0092167460999992000020604504+35480+024120FM-15+0151LGSA V0209999C00001220001CN0099001N1+00501+00001999999ADDMA1102401999999MW1001REMMET040LGSA 060450Z 00000KT CAVOK 05/M00 Q1024;EQDQ01+000000PRSWM2
0213167460999992000021000004+35480+024120FM-12+0151LGSA V0209999C000012200019N0100001N1+00841+00621101821ADDAA199000091GF102991021041008001001001MA1999999099951MD1810051+9999REMSYN116AAXX  10004 16746 32560 20000 10084 20062 39995 40182 58005 82400 333 90730 91104 555 40000 47524 44175 50000 50074;EQDQ01  00002PRCP99
0162167460999992000021111504+35480+024120FM-15+0151LGSA V0209999C000010240019N0112651N1+01401+00901999999ADDGA1021+009009999GA2071+024009999GF107991999999999999999999MA1101901999999MW1001REMMET052LGSA 111150Z 00000KT 9999 SCT030 BKN080 14/09 Q1019;EQDQ01+000000PRSWM2
0318167460999992000021306004+35480+024120FM-12+0151LGSA V0209999C000010120019N0100001N1+01001+00841101901ADDAA199000091GA1041+006009089GA2051+012009069GF107991071081004501001001KA1120N+00961MA1999999100041MD1310041+9999REMSYN176AAXX  13064 16746 32460 70000 10100 20084 30004 40190 53004 87800 333 20096 30/// 55026 84820 85640 90730 91106 555 10000 30104 20000 89064 99094 40000 47532 44180 50000 50092;EQDQ01  00002PRCP99
0173167460999992000022107504+35480+024120FM-15+0151LGSA V0202501N007212200019N0112651N1+01101+00701999999ADDGA1021+006009999GA2021+010509999GF104991999999999999999999MA1101191999999MW1001OC101231REMMET055LGSA 210750Z 25014G24KT 9999 FEW020 SCT035 11/07 Q1012;EQDQ01+000000PRSWM2
0162167460999992000022115204+35480+024120FM-15+0151LGSA V0202801N008212200019N0112651N1+01001+00801999999ADDGA1021+006009999GA2021+007509999GF104991999999999999999999MA1101291999999MW1001REMMET052LGSA 211520Z 28016KT 9999 FEW020 SCT025 10/08 Q1013;EQDQ01+000000PRSWM2
0185167460999992000022405504+35480+024120FM-15+0151LGSA V0201701N003110270019N0112651N1+00601+00301999999ADDGA1021+006009999GA2021+010509999GA3071+027009999GF107991999999999999999999MA1101901999999MW1001REMMET059LGSA 240550Z 17006KT 9999 SCT020 SCT035 BKN090 06/03 Q1019;EQDQ01+000000PRSWM2
0177167460999992000030409004+35480+024120FM-12+0151LGSA V0202601N008212200019N0100001N1+01381+00591102251ADDGF101991011011008001001001MA1999999100421MD1310121+9999REMSYN110AAXX  04094 16746 42560 12616 10138 20059 30042 40225 53012 81100 333 91120 555 40000 47560 44180 50000 50100;
0139167460999992000030409504+35480+024120FM-15+0151LGSA V0202801N007212200019N0112651N1+01401+00601999999ADDGA1021+007509999GF102991999999999999999999MA1102201999999MW1001REMMET045LGSA 040950Z 28014KT 9999 FEW025 14/06 Q1022;EQDQ01+000000PRSWM2
0139167460999992000030415504+35480+024120FM-15+0151LGSA V0202601N007212200019N0112651N1+01401+00501999999ADDGA1021+007509999GF102991999999999999999999MA1102001999999MW1001REMMET045LGSA 041550Z 26014KT 9999 FEW025 14/05 Q1020;EQDQ01+000000PRSWM2
0162167460999992000030514504+35480+024120FM-15+0151LGSA V0202801N007210210019N0112651N1+01601+00501999999ADDGA1021+007509999GA2071+021009999GF107991999999999999999999MA1101801999999MW1001REMMET052LGSA 051450Z 28014KT 9999 FEW025 BKN070 16/05 Q1018;EQDQ01+000000PRSWM2
0164167460999992000030619504+35480+024120FM-15+0151LGSA V0200401N008210105019N0112651N1+00701-00201999999ADDGA1021+007509999GA2081+010509999GF108991999999999999999999MW1001REMMET053LGSA 061950Z 04016KT 9999 SCT025 OVC035 07/M02 Q1018;EQDQ01+101803APOA  Q02+000000PRSWM2
0139167460999992000031117504+35480+024120FM-15+0151LGSA V0201101N002112200019N0112651N1+01301+00901999999ADDGA1021+007509999GF102991999999999999999999MA1102201999999MW1001REMMET045LGSA 111750Z 11004KT 9999 FEW025 13/09 Q1022;EQDQ01+000000PRSWM2
0139167460999992000031404504+35480+024120FM-15+0151LGSA V0209999C000012200019N0112651N1+00901+00501999999ADDGA1021+007509999GF102991999999999999999999MA1102401999999MW1001REMMET045LGSA 140450Z 00000KT 9999 FEW025 09/05 Q1024;EQDQ01+000000PRSWM2
0162167460999992000031501504+35480+024120FM-15+0151LGSA V0209999C000010540019N0112651N1+00801+00601999999ADDGA1021+007509999GA2071+054009999GF107991999999999999999999MA1102101999999MW1001REMMET052LGSA 150150Z 00000KT 9999 FEW025 BKN180 08/06 Q1021;EQDQ01+000000PRSWM2
0257167460999992000031612004+35480+024120FM-12+0151LGSA V0200801N002110540019N0100001N1+02101+00861101381ADDAA199000091GA1011+007509089GA2041+054009009GF105991011011008001001051MA1999999099601MD1710201+9999REMSYN128AAXX  16124 16746 32560 50804 10210 20086 39960 40138 57020 81105 333 81825 84068 90730 91110 555 40000 47498 44175 50000 50144;EQDQ01  00002PRCP99
0185167460999992000032713504+35480+024120FM-15+0151LGSA V0201101N002110540019N0112651N1+02001+00701999999ADDGA1021+007509999GA2021+024009999GA3081+054009999GF108991999999999999999999MA1101591999999MW1001REMMET059LGSA 271350Z 11004KT 9999 FEW025 SCT080 OVC180 20/07 Q1016;EQDQ01+000000PRSWM2
0139167460999992000041210504+35480+024120FM-15+0151LGSA V0200201N003112200019N0080001N1+01801+01201999999ADDGA1021+006009999GF104991999999999999999999MA1100311999999MW1001REMMET045LGSA 121050Z 02006KT 8000 SCT020 18/12 Q1003;EQDQ01+000000PRSWM2
0162167460999992000041713204+35480+024120FM-15+0151LGSA V0200501N003612200019N0112651N1+02001+01401999999ADDGA1021+003009999GA2021+021009999GF104991999999999999999999MA1100711999999MW1001REMMET052LGSA 171320Z 05007KT 9999 FEW010 SCT070 20/14 Q1007;EQDQ01+000000PRSWM2
0162167460999992000042120504+35480+024120FM-15+0151LGSA V0203301N002610240019N0112651N1+01401+01301999999ADDGA1021+006009999GA2071+024009999GF107991999999999999999999MA1101191999999MW1001REMMET052LGSA 212050Z 33005KT 9999 FEW020 BKN080 14/13 Q1012;EQDQ01+000000PRSWM2
0091167460999992000042410504+35480+024120FM-15+0151LGSA V0202701N00821220001CN0099001N1+02501+00701999999ADDMA1101191999999MW1001REMMET039LGSA 241050Z 27016KT CAVOK 25/07 Q1012;EQDQ01+000000PRSWM2
0091167460999992000042918504+35480+024120FM-15+0151LGSA V0209999C00001220001CN0099001N1+01701+01301999999ADDMA1101591999999MW1001REMMET039LGSA 291850Z 00000KT CAVOK 17/13 Q1016;EQDQ01+000000PRSWM2
0091167460999992000050516504+35480+024120FM-15+0151LGSA V0202801N00411220001CN0099001N1+01601+00501999999ADDMA1101591999999MW1001REMMET039LGSA 051650Z 28008KT CAVOK 16/05 Q1016;EQDQ01+000000PRSWM2
0139167460999992000050520504+35480+024120FM-15+0151LGSA V0209999C000012200019N0112651N1+01201+00401999999ADDGA1021+007509999GF102991999999999999999999MA1101691999999MW1001REMMET045LGSA 052050Z 00000KT 9999 FEW025 12/04 Q1017;EQDQ01+000000PRSWM2
0091167460999992000051001504+35480+024120FM-15+0151LGSA V0209999C00001220001CN0099001N1+01701+00901999999ADDMA1102001999999MW1001REMMET039LGSA 100150Z 00000KT CAVOK 17/09 Q1020;EQDQ01+000000PRSWM2
0221167460999992000051415004+35480+024120FM-12+0151LGSA V0200601N003112200019N0100001N1+02321+01361101681ADDGA1011+007509089GA2031+054009009GF103991011021008001001021MA1999999099931MD1810011+9999REMSYN122AAXX  14154 16746 42560 30606 10232 20136 39993 40168 58001 81202 333 81825 83068 91112 555 40000 47532 44255 50000 50176;
0162167460999992000051612504+35480+024120FM-15+0151LGSA V0200501N004112200019N0112651N1+02401+00701999999ADDGA1021+007509999GA2021+021009999GF104991999999999999999999MA1101291999999MW1001REMMET052LGSA 161250Z 05008KT 9999 FEW025 SCT070 24/07 Q1013;EQDQ01+000000PRSWM2
0139167460999992000052106504+35480+024120FM-15+0151LGSA V0202801N007712200019N0112651N1+02401+00501999999ADDGA1021+007509999GF102991999999999999999999MA1101291999999MW1001REMMET045LGSA 210650Z 28015KT 9999 FEW025 24/05 Q1013;EQDQ01+000000PRSWM2
0187167460999992000052115004+35480+024120FM-12+0151LGSA V0203101N007712200019N0100001N1+02541+00891101331ADDGA1001+999999999GF100991001001999999001001MA1999999099581MD1810011+9999REMSYN104AAXX  21154 16746 42960 03115 10254 20089 39958 40133 58001 333 91126 555 40000 47504 44240 50000 50158;
0091167460999992000053022504+35480+024120FM-15+0151LGSA V0209999C00001220001CN0099001N1+02001+01601999999ADDMA1101191999999MW1001REMMET039LGSA 302250Z 00000KT CAVOK 20/16 Q1012;EQDQ01+000000PRSWM2
0285167460999992000053106004+35480+024120FM-12+0151LGSA V0201101N003112200019N0100001N1+02241+01761101301ADDAA199000091GA1001+999999999GF100991001001999999001001KA1120N+01801MA1999999099541MD1210101+9999REMSYN159AAXX  31064 16746 32960 01106 10224 20176 39954 40130 52010 333 20180 30/// 55120 90730 91108 555 10000 30236 20000 89040 99084 40000 47504 44260 50000 5 0194;EQDQ01  00002PRCP99
0139167460999992000060418504+35480+024120FM-15+0151LGSA V0209999C000012200019N0112651N1+02201+01201999999ADDGA1021+007509999GF102991999999999999999999MA1101691999999MW1001REMMET045LGSA 041850Z 00000KT 9999 FEW025 22/12 Q1017;EQDQ01+000000PRSWM2
0091167460999992000060603504+35480+024120FM-15+0151LGSA V0202801N00211220001CN0099001N1+01801+01501999999ADDMA1101081999999MW1001REMMET039LGSA 060350Z 28004KT CAVOK 18/15 Q1011;EQDQ01+000000PRSWM2
0091167460999992000060806504+35480+024120FM-15+0151LGSA V0209999C00001220001CN0099001N1+02901+01201999999ADDMA1101491999999MW1001REMMET039LGSA 080650Z 00000KT CAVOK 29/12 Q1015;EQDQ01+000000PRSWM2
0091167460999992000060919504+35480+024120FM-15+0151LGSA V0200901N00211220001CN0099001N1+02401+01401999999ADDMA1101591999999MW1001REMMET039LGSA 091950Z 09004KT CAVOK 24/14 Q1016;EQDQ01+000000PRSWM2
0091167460999992000061005504+35480+024120FM-15+0151LGSA V0209999C00001220001CN0099001N1+02601+01401999999ADDMA1101491999999MW1001REMMET039LGSA 100550Z 00000KT CAVOK 26/14 Q1015;EQDQ01+000000PRSWM2
0091167460999992000061019504+35480+024120FM-15+0151LGSA V0209999C00001220001CN0099001N1+02201+02001999999ADDMA1101391999999MW1001REMMET039LGSA 101950Z 00000KT CAVOK 22/20 Q1014;EQDQ01+000000PRSWM2
0091167460999992000061304504+35480+024120FM-15+0151LGSA V0209999C00001220001CN0099001N1+02101+01501999999ADDMA1102001999999MW1001REMMET039LGSA 130450Z 00000KT CAVOK 21/15 Q1020;EQDQ01+000000PRSWM2
0221167460999992000061809004+35480+024110FM-12+0151LGSA V0200301N006710240019N0100001N1+02101+00861102021ADDGA1021+006009089GA2061+024009039GF106991021021004501051001MA1999999100241MD1210251+9999REMSYN122AAXX  18094 16746 42460 60313 10210 20086 30024 40202 52025 82250 333 82820 86358 91126 555 40000 47559 44280 50000 50144;
0091167460999992000062500504+35480+024110FM-15+0151LGSA V0203101N00261220001CN0099001N1+02401+01101999999ADDMA1101021999999MW1001REMMET039LGSA 250050Z 31005KT CAVOK 24/11 Q1010;EQDQ01+000000PRSWM2
0089167460999992000063002204+35480+024110FM-15+0151LGSA V0209999999999220001CN0099001N1+01901+01401999999ADDMA1101081999999MW1001REMMET037LGSA 300220Z 00000 CAVOK 19/14 Q1011;EQDQ01+000000PRSWM2
0223167460999992000070312004+35480+024110FM-12+0151LGSA V0203301N004612200019N0100001N1+03141+00811101271ADDAA199000091GA1001+999999999GF100991001001999999001001MA1999999099571MD1710071+9999REMSYN110AAXX  03124 16746 32960 03309 10314 20081 39957 40127 57007 333 90730 91117 555 40000 47508 44275 50000 50184;EQDQ01  00002PRCP99
0091167460999992000071205504+35480+024110FM-15+0151LGSA V0209999C00001220001CN0099001N1+03201+00801999999ADDMA1100911999999MW1001REMMET039LGSA 120550Z 00000KT CAVOK 32/08 Q1009;EQDQ01+000000PRSWM2
0187167460999992000071309004+35480+024110FM-12+0151LGSA V0202801N008212200019N0100001N1+03581+01091100531ADDGA1001+999999999GF100991001001999999001001MA1999999098861MD1410001+9999REMSYN104AAXX  13094 16746 42960 02816 10358 20109 39886 40053 54000 333 91120 555 40000 47460 44320 50000 50210;
0139167460999992000071523204+35480+024110FM-15+0151LGSA V0202701N007712200019N0112651N1+02301+01601999999ADDGA1021+007509999GF102991999999999999999999MA1100811999999MW1001REMMET045LGSA 152320Z 27015KT 9999 FEW025 23/16 Q1008;EQDQ01+000000PRSWM2
0091167460999992000072021504+35480+024110FM-15+0151LGSA V0209999C00001220001CN0099001N1+02101+01501999999ADDMA1101081999999MW1001REMMET039LGSA 202150Z 00000KT CAVOK 21/15 Q1011;EQDQ01+000000PRSWM2
0187167460999992000072715004+35480+024110FM-12+0151LGSA V0203101N002112200019N0100001N1+03781+01231100671ADDGA1001+999999999GF100991001001999999001001MA1999999099011MD1710091+9999REMSYN104AAXX  27154 16746 42960 03104 10378 20123 39901 40067 57009 333 91109 555 40000 47470 44310 50000 50222;
0091167460999992000072807504+35480+024110FM-15+0151LGSA V0200801N00211220001CN0099001N1+03801+00801999999ADDMA1100611999999MW1001REMMET039LGSA 280750Z 08004KT CAVOK 38/08 Q1006;EQDQ01+000000PRSWM2
0091167460999992000072900504+35480+024110FM-15+0151LGSA V0209999C00001220001CN0099001N1+02401+02201999999ADDMA1100611999999MW1001REMMET039LGSA 290050Z 00000KT CAVOK 24/22 Q1006;EQDQ01+000000PRSWM2
0266167460999992000080118004+35480+024110FM-12+0151LGSA V0209999C000012200019N0100001N1+02501+01511101601ADDAA199000091GA1001+999999999GF100991001001999999001001KA1120M+02841MA1999999099861MD1710031+9999REMSYN140AAXX  01184 16746 32960 00000 10250 20151 39986 40160 57003 333 10284 30/// 55096 90730 91104 555 10000 40250 40000 47531 44290 50000 50190;EQDQ01  00002PRCP99
0187167460999992000081003004+35480+024110FM-12+0151LGSA V0203201N001012200019N0100001N1+02161+01911101141ADDGA1001+999999999GF100991001001999999001001MA1999999099381MD1710061+9999REMSYN104AAXX  10034 16746 42960 03202 10216 20191 39938 40114 57006 333 91106 555 40000 47494 44280 50000 50200;
0091167460999992000081622504+35480+024110FM-15+0151LGSA V0202801N00361220001CN0099001N1+02401+02001999999ADDMA1101021999999MW1001REMMET039LGSA 162250Z 28007KT CAVOK 24/20 Q1010;EQDQ01+000000PRSWM2
0091167460999992000081801504+35480+024110FM-15+0151LGSA V0202701N00261220001CN0099001N1+02201+01701999999ADDMA1101191999999MW1001REMMET039LGSA 180150Z 27005KT CAVOK 22/17 Q1012;EQDQ01+000000PRSWM2
0091167460999992000082503504+35480+024110FM-15+0151LGSA V0202801N00311220001CN0099001N1+02601+01401999999ADDMA1100911999999MW1001REMMET039LGSA 250350Z 28006KT CAVOK 26/14 Q1009;EQDQ01+000000PRSWM2
0187167460999992000082821004+35480+024110FM-12+0151LGSA V0209999C000012200019N0100001N1+02241+01511101551ADDGA1001+999999999GF100991001001999999001001MA1999999099801MD1710021+9999REMSYN104AAXX  28214 16746 42960 00000 10224 20151 39980 40155 57002 333 91106 555 40000 47525 44280 50000 50180;
0091167460999992000090210504+35480+024110FM-15+0151LGSA V0202801N00821220001CN0099001N1+03101+02201999999ADDMA1100911999999MW1001REMMET039LGSA 021050Z 28016KT CAVOK 31/22 Q1009;EQDQ01+000000PRSWM2
0091167460999992000090216504+35480+024110FM-15+0151LGSA V0202901N00931220001CN0099001N1+02701+01701999999ADDMA1100711999999MW1001REMMET039LGSA 021650Z 29018KT CAVOK 27/17 Q1007;EQDQ01+000000PRSWM2
0162167460999992000090811504+35480+024110FM-15+0151LGSA V0200801N005112200019N0112651N1+02501+01601999999ADDGA1021+007509999GA2021+054009999GF104991999999999999999999MA1101391999999MW1001REMMET052LGSA 081150Z 08010KT 9999 SCT025 SCT180 25/16 Q1014;EQDQ01+000000PRSWM2
0139167460999992000091121504+35480+024110FM-15+0151LGSA V0202701N002612200019N0112651N1+02301+01701999999ADDGA1021+010509999GF102991999999999999999999MA1101081999999MW1001REMMET045LGSA 112150Z 27005KT 9999 FEW035 23/17 Q1011;EQDQ01+000000PRSWM2
0162167460999992000091218504+35480+024110FM-15+0151LGSA V0203501N002112200019N0112651N1+02201+01901999999ADDGA1021+006009999GA2021+009009999GF104991999999999999999999MA1101191999999MW1001REMMET052LGSA 121850Z 35004KT 9999 FEW020 SCT030 22/19 Q1012;EQDQ01+000000PRSWM2
0091167460999992000092210504+35480+024110FM-15+0151LGSA V0202801N00411220001CN0099001N1+03501+00801999999ADDMA1101291999999MW1001REMMET039LGSA 221050Z 28008KT CAVOK 35/08 Q1013;EQDQ01+000000PRSWM2
0177167460999992000092621004+35480+024110FM-12+0151LGSA V0209999C000012200019N0100001N1+01861+01131101861ADDGF102991021011004501001001MA1999999100071MD1210041+9999REMSYN110AAXX  26214 16746 42460 20000 10186 20113 30007 40186 52004 82100 333 91106 555 40000 47541 44240 50000 50146;
0139167460999992000093003504+35480+024110FM-15+0151LGSA V0209999C000012200019N0112651N1+01401+01101999999ADDGA1021+006009999GF102991999999999999999999MA1101691999999MW1001REMMET045LGSA 300350Z 00000KT 9999 FEW020 14/11 Q1017;EQDQ01+000000PRSWM2
0091167460999992000100109504+35480+024110FM-15+0151LGSA V0200501N00411220001CN0099001N1+02501+00801999999ADDMA1102101999999MW1001REMMET039LGSA 010950Z 05008KT CAVOK 25/08 Q1021;EQDQ01+000000PRSWM2
0139167460999992000100821504+35480+024110FM-15+0151LGSA V0202901N002112200019N0112651N1+01901+01401999999ADDGA1021+007509999GF102991999999999999999999MA1101191999999MW1001REMMET045LGSA 082150Z 29004KT 9999 FEW025 19/14 Q1012;EQDQ01+000000PRSWM2
0162167460999992000101004504+35480+024110FM-15+0151LGSA V0202801N002612200019N0112651N1+01901+01401999999ADDGA1021+006009999GA2021+024009999GF104991999999999999999999MA1100911999999MW1001REMMET052LGSA 100450Z 28005KT 9999 SCT020 SCT080 19/14 Q1009;EQDQ01+000000PRSWM2
0091167460999992000101313504+35480+024110FM-15+0151LGSA V0200701N00411220001CN0099001N1+02401+01601999999ADDMA1101691999999MW1001REMMET039LGSA 131350Z 07008KT CAVOK 24/16 Q1017;EQDQ01+000000PRSWM2
0162167460999992000101512504+35480+024110FM-15+0151LGSA V0200701N004110090019N0112651N1+02101+01401999999ADDGA1021+006009999GA2071+009009999GF107991999999999999999999MA1101691999999MW1001REMMET052LGSA 151250Z 07008KT 9999 SCT020 BKN030 21/14 Q1017;EQDQ01+000000PRSWM2
0284167460999992000110706004+35480+024110FM-12+0151LGSA V0209999C000012200019N0100001N1+01841+00891101421ADDAA199000091GA1001+999999999GF100991001001999999001001KA1120N+01461MA1999999099631MD1310061+9999REMSYN158AAXX  07064 16746 32960 00000 10184 20089 39963 40142 53006 333 20146 30/// 55052 90730 91104 555 10000 30186 20000 89094 99052 40000 47505 44210 50000 50134;EQDQ01  00002PRCP99
0098167460999992000110814504+35480+024110FM-15+0151LGSA V0209999C00001220001CN0099001N1+02501+00401999999ADDMA1101801999999MW1001REMMET046LGSA 081450Z 00000KT CAVOK 25/04 Q1018 SCT180;EQDQ01+000000PRSWM2
0091167460999992000111620504+35480+024110FM-15+0151LGSA V0209999C00001220001CN0099001N1+01401+01301999999ADDMA1102001999999MW1001REMMET039LGSA 162050Z 00000KT CAVOK 14/13 Q1020;EQDQ01+000000PRSWM2
0091167460999992000111714504+35480+024110FM-15+0151LGSA V0200801N00211220001CN0099001N1+01701+01401999999ADDMA1101801999999MW1001REMMET039LGSA 171450Z 08004KT CAVOK 17/14 Q1018;EQDQ01+000000PRSWM2
0091167460999992000111717504+35480+024110FM-15+0151LGSA V0209999C00001220001CN0099001N1+01501+01301999999ADDMA1101901999999MW1001REMMET039LGSA 171750Z 00000KT CAVOK 15/13 Q1019;EQDQ01+000000PRSWM2
0162167460999992000111821504+35480+024110FM-15+0151LGSA V0209999C000012200019N0080001N1+01301+01201999999ADDGA1021+006009999GA2021+054009999GF104991999999999999999999MA1101691999999MW1001REMMET052LGSA 182150Z 00000KT 8000 FEW020 SCT180 13/12 Q1017;EQDQ01+000000PRSWM2
0139167460999992000112406504+35480+024110FM-15+0151LGSA V0209999C000012200019N0112651N1+01601+01201999999ADDGA1021+006009999GF102991999999999999999999MA1101901999999MW1001REMMET045LGSA 240650Z 00000KT 9999 FEW020 16/12 Q1019;EQDQ01+000000PRSWM2
0196167460999992000112903504+35480+024110FM-15+0151LGSA V0203601N010310090019N0080001N1+01201+00901999999ADDGA1021+006009029GA2081+009009999GF108991999999999999999999MA1101081999999MW1611OC101801REMMET062LGSA 290350Z 36020G35KT 8000 -RA SCT020TCU OVC030 12/09 Q1011;EQDQ01+000003PRSWM1Q02    003PRSWM1
0185167460999992000113010504+35480+024110FM-15+0151LGSA V0200101N005110075019N0112651N1+01401+01101999999ADDGA1021+004509999GA2021+006009999GA3081+007509999GF108991999999999999999999MA1102001999999MW1001REMMET059LGSA 301050Z 01010KT 9999 FEW015 SCT020 OVC025 14/11 Q1020;EQDQ01+000000PRSWM2
0307167460999992000120603004+35480+024110FM-12+0151LGSA V0201401N005710210019N0090001N1+01361+01251101891ADDAY191031AY261031GA1021+006009089GA2041+009009069GA3071+021009039GF107991041081004501071001MA1999999100061MD1810051+9999MW1601REMSYN170AAXX  06034 16746 41459 71411 10136 20125 30006 40189 58005 76096 84870 333 82820 84630 87357 91112 555 40000 47534 44190 50000 50130 60000 60100 60130 70000 774// 754//;
0162167460999992000120803504+35480+024110FM-15+0151LGSA V0200101N005710105019N0112651N1+01301+00701999999ADDGA1021+006009999GA2071+010509999GF107991999999999999999999MA1102101999999MW1001REMMET052LGSA 080350Z 01011KT 9999 FEW020 BKN035 13/07 Q1021;EQDQ01+000000PRSWM2
0139167460999992000121014504+35480+024110FM-15+0151LGSA V0203101N003112200019N0112651N1+01401+00901999999ADDGA1021+007509999GF102991999999999999999999MA1102201999999MW1001REMMET045LGSA 101450Z 31006KT 9999 FEW025 14/09 Q1022;EQDQ01+000000PRSWM2
0091167460999992000121403504+35480+024110FM-15+0151LGSA V0209999C00001220001CN0099001N1+00901+00901999999ADDMA1101801999999MW1001REMMET039LGSA 140350Z 00000KT CAVOK 09/09 Q1018;EQDQ01+000000PRSWM2
0139167460999992000121504504+35480+024110FM-15+0151LGSA V0202801N009312200019N0112651N1+01501+01101999999ADDGA1021+006009999GF102991999999999999999999MA1101491999999MW1001REMMET045LGSA 150450Z 28018KT 9999 FEW020 15/11 Q1015;EQDQ01+000000PRSWM2
0163167460999992000121605504+35480+024110FM-15+0151LGSA V0201601N002110180019N0112651N1+01301+01001999999ADDGA1021+009009999GA2071+018009999GF107991999999999999999999MA1101391999999MW1001REMMET053LGSA 160550 16004KT FEW020 SCT030 BKN060 13/10 Q1014;EQDQ01+000000PRSWM2
0162167460999992000121606504+35480+024110FM-15+0151LGSA V0209999C000010180019N0112651N1+01401+01001999999ADDGA1021+007509999GA2071+018009999GF107991999999999999999999MA1101491999999MW1001REMMET052LGSA 160650Z 00000KT 9999 FEW025 BKN060 14/10 Q1015;EQDQ01+000000PRSWM2
0139167460999992000121720504+35480+024110FM-15+0151LGSA V0202601N003112200019N0112651N1+01401+00801999999ADDGA1021+007509999GF102991999999999999999999MA1102001999999MW1001REMMET045LGSA 172050Z 26006KT 9999 FEW025 14/08 Q1020;EQDQ01+000000PRSWM2
0162167460999992000122123504+35480+024110FM-15+0151LGSA V0201001N004610105019N0112651N1+01001+00401999999ADDGA1021+007509999GA2071+010509999GF107991999999999999999999MA1101901999999MW1001REMMET052LGSA 212350Z 10009KT 9999 SCT025 BKN035 10/04 Q1019;EQDQ01+000000PRSWM2
0162167460999992000122402504+35480+024110FM-15+0151LGSA V0203001N002112200019N0112651N1+00601+00201999999ADDGA1021+007509999GA2021+012009999GF104991999999999999999999MA1101691999999MW1001REMMET052LGSA 240250Z 30004KT 9999 FEW025 SCT040 06/02 Q1017;EQDQ01+000000PRSWM2
0241167460999992000123003004+35480+024110FM-12+0151LGSA V0209999C000010075019N0100001N1+01161+00921100341ADDAY161031AY221031GF107991071041008001001001MA1999999098531MD1710121+9999MW1021REMSYN152AAXX  30034 16746 41560 70000 10116 20092 39853 40034 57012 70262 87400 333 91111 555 40000 47418 44180 50000 50104 60000 60010 60200 70000 77/// 74///;
0198167464332092000010512005+35533+024150FM-15+014699999V0202705N003650213459N011200599+01105+00205101895ADDGD13995+9999999MA1101905100225EQDN01 00000JPWTH 0QNNE71D0 00499F71 0 00499G71 0 00070K71D0 00036J71 0 00020L71 0 00700C71 0 03009M71 0 29595N71 0 00000Q71 0 10189S71D0 00052R71 0 00110X71 0 27007
0369167464332092000011409003+35533+024150FM-15+0146KQNC V0200205N004650061059N0112005N1+01005+00405102285ADDGD13995+0060099GD24995+0120099GF108991999999999999999999MA1102275100595MW1001REMMET077KQNC COR 140955Z 02008KT 9999 BKN020 OVC040 10/04 A3017 RMK SLP216 T01000040;EQDQ01+000000PRSWM2N01 00000JPWTH 0QNNE71D0 00499F71 0 00499E71D0 00699F71 0 00699G71 0 00020K71D0 00039J71 0 00040L71 0 00700C71 0 03020M71 0 29705N71 0 00000Q71 0 10228S71D0 00050R71 0 00100X71 0 02009
0509167464332092000011421003+35533+024150FM-15+0146KQNC V0200205N002650121959N0096005N1+01005+01005101775ADDGD12995+0075099GD24995+0120099GF108991999999999999999999KA1999M+01001KA2999N+01001MA1101765100105MD1710061+9999MW1615REMMET161KQNC 142055Z 02005KT 9000 -RA SCT025 OVC040 10/10 A3005 RMK SLP177 60028 8/8// T01000100 57006 14213 16746 41561 80205 10100 20100 30010 40177 57006 76162 848//;EQDQ01+000003PRSWM1Q02    003PRSWM1N01 00020JPWTH 0QNNE71D0 00299F71 0 00299E71D0 00699F71 0 00699G71 0 00040K71D0 00050J71 0 00100L71 0 00600C71 0 03005M71 0 29560N71 0 00020Q71 0 10177S71D0 00050R71 0 00100X71 0 02005
0434167464332092000012903003+35533+024150FM-15+0146KQNC V0202505N007752200059N0112005N1+00905+00505102085ADDGD11995+0075099GF102991999999999999999999KA1999M+00901KA2999N+00501MA1102075100415MD1710061+9999MW1001REMMET139KQNC 290255Z 25015KT 9999 FEW025 09/05 A3014 RMK SLP2080 8/100 T00900050 57006 29033 16746 42561 22515 10090 20050 30040 40208 57006 82100;EQDQ01+000000PRSWM2N01 00000JPWTH 0QNNE71D0 00299F71 0 00199G71U0 99999K71D0 00041J71 0 00050L71 0 00700C71 0 03014M71 0 29650N71 0 00000Q71 0 10208S71D0 00048R71 0 00090X71 0 25015
0292167464332092000020122003+35533+024150FM-15+0146KQNC V0202505N001552200059N0112005N1+00905+00705102775ADDGF100991999999999999999999MA1102785999999MW1001REMMET063KQNC 012155Z 25003KT 9999 SKC 09/07 A3035 RMK SLP277 T00900070;EQDQ01+000000PRSWM2N01 00000JPWTH 0QNNE71D0 00000F71 0 00000G71U0 99999K71D0 00045J71 0 00070L71 0 00700C71 0 03035N71 0 00000Q71 0 10277S71D0 00048R71 0 00090X71 0 25003
0235167464332092000020503005+35533+024150FM-15+014699999V0200205N007250152459N011200599+00905+00305102835ADDGD12995+9999999GD24995+9999999MA1102845101135EQDN01 00000JPWTH 0QNNE71D0 00299F71 0 00299E71D0 00699F71 0 00699G71 0 00050K71D0 00037J71 0 00030L71 0 00700C71 0 03037M71 0 29865N71 0 00000Q71 0 10283S71D0 00048R71 0 00090X71 0 02014
0310167464332092000021007003+35533+024150FM-15+0146KQNC V0203105N001552200059N0112005N1+01205+00705101575ADDGD12995+0210099GF104991999999999999999999MA1101565999999MW1001REMMET066KQNC 100655Z 31003KT 9999 SCT070 12/07 A2999 RMK SLP157 T01200070;EQDQ01+000000PRSWM2N01 00000JPWTH 0QNNE71D0 00299F71 0 00299G71U0 99999K71D0 00045J71 0 00070L71 0 00700C71 0 02999N71 0 00000Q71 0 10157S71D0 00054R71 0 00120X71 0 31003
0527167464332092000022312003+35533+024150FM-15+0146KQNC V0209995C000050121959N0096005N1+00805+00605101955ADDGD12995+0090099GD24995+0120099GF108991999999999999999999KA1999M+00801KA2999N+00601MA1101965100295MD1810071+9999MW1515REMMET179KQNC 231155Z 00000KT 9000 -DZ SCT030 OVC040 08/06 A3011 RMK SLP202 60000 8/8// T00800060 10080 20060 58007 23123 16746 11560 80000 10080 20060 30028 40195 58007 69901 75162 888//;EQDQ01+000003PRSWM1Q02    003PRSWM1N01 00033JPWTH 0QNNE71D0 00299F71 0 00299E71D0 00699F71 0 00699G71 0 00040K71D0 00043J71 0 00060L71 0 00600C71 0 03011M71 0 29615N71 0 00033Q71 0 10195S71D0 00046R71 0 00080X71 0 00000
0374167464332092000022401003+35533+024150FM-15+0146KQNC V0209995V003150121959N0112005N1+00705+00705102025ADDGD12995+0090099GD24995+0120099GF108991999999999999999999MA1102035999999MW1615REMMET077KQNC 240055Z VRB06KT 9999 -RA SCT030 OVC040 07/07 A3013 RMK SLP202 T00700070;EQDQ01+000003PRSWM1Q02    003PRSWM1N01 00020JPWTH 0QNNE71D0 00299F71 0 00299E71D0 00699F71 0 00699G71 0 00040K71D0 00045J71 0 00070L71 0 00700C71 0 03013N71 0 00020Q71 0 10202S71D0 00045R71 0 00070X71 0 00006
0354167464332092000022408003+35533+024150FM-15+0146KQNC V0201805N002650091459N0112005N1+00705+00405102025ADDGD13995+0090099GD24995+0150099GF108991999999999999999999MA1102035999999MW1001REMMET073KQNC 240755Z 18005KT 9999 BKN030 OVC050 07/04 A3013 RMK SLP202 T00700040;EQDQ01+000000PRSWM2N01 00000JPWTH 0QNNE71D0 00499F71 0 00499E71D0 00699F71 0 00699G71 0 00030K71D0 00039J71 0 00040L71 0 00700C71 0 03013N71 0 00000Q71 0 10202S71D0 00045R71 0 00070X71 0 18005
0187167464332092000030822005+35533+024150FM-15+014699999V0202905N003652200059N011200599+00805+00605102445ADDGD10005+9999999MA1102445999999EQDN01 00000JPWTH 0QNNE71D0 00000F71 0 00000G71U0 99999K71D0 00043J71 0 00060L71 0 00700C71 0 03025N71 0 00000Q71 0 10244S71D0 00046R71 0 00080X71 0 29007
0198167464332092000031200005+35533+024150FM-15+014699999V0209995C000052200059N011200599+00905+00705102085ADDGD10005+9999999MA1102075100415EQDN01 00000JPWTH 0QNNE71D0 00000F71 0 00000G71U0 99999K71D0 00045J71 0 00070L71 0 00700C71 0 03014M71 0 29650N71 0 00000Q71 0 10208S71D0 00048R71 0 00090X71 0 00000
0182167464332092000032922404+35530+024150FM-16+0146KQNC V0203101N002610003019N0012001N1+01401+01401101611ADDGD14991+0003099GF108991999999999999999999MA1101631999999MW1441REMMET073KQNC COR 292240Z 31005KT 1200 FG OVC001 14/14 A3001 RMK SLP161 T01400140;EQDQ01+000003PRSWM1Q02    003PRSWM1
0292167464332092000042602003+35533+024150FM-15+0146KQNC V0202605N007752200059N0112005N1+01405+00905101145ADDGF100991999999999999999999MA1101155999999MW1001REMMET063KQNC 260155Z 26015KT 9999 SKC 14/09 A2987 RMK SLP114 T01400090;EQDQ01+000000PRSWM2N01 00000JPWTH 0QNNE71D0 00000F71 0 00000G71U0 99999K71D0 00048J71 0 00090L71 0 00700C71 0 02987N71 0 00000Q71 0 10114S71D0 00057R71 0 00140X71 0 26015
0292167464332092000050104003+35533+024150FM-15+0146KQNC V0201205N001552200059N0112005N1+01505+01305101415ADDGF100991999999999999999999MA1101425999999MW1001REMMET063KQNC 010355Z 12003KT 9999 SKC 15/13 A2995 RMK SLP141 T01500130;EQDQ01+000000PRSWM2N01 00000JPWTH 0QNNE71D0 00000F71 0 00000G71U0 99999K71D0 00055J71 0 00130L71 0 00700C71 0 02995N71 0 00000Q71 0 10141S71D0 00059R71 0 00150X71 0 12003
0354167464332092000050301003+35533+024150FM-15+0146KQNC V0202805N001550304859N0112005N1+01705+01305100985ADDGD12995+0240099GD24995+0300099GF108991999999999999999999MA1100985999999MW1001REMMET073KQNC 030055Z 28003KT 9999 SCT080 OVC100 17/13 A2982 RMK SLP098 T01700130;EQDQ01+000000PRSWM2N01 00000JPWTH 0QNNE71D0 00299F71 0 00299E71D0 00699F71 0 00699G71 0 00100K71D0 00055J71 0 00130L71 0 00700C71 0 02982N71 0 00000Q71 0 10098S71D0 00063R71 0 00170X71 0 28003
0449167464332092000050809003+35533+024150FM-15+0146KQNC V0200605N003152200059N0112005N1+02405+00705102345ADDGD11995+0750099GF102991999999999999999999KA1999M+99999KA2999N+00701MA1102345100665MD1210101+9999MW1001REMMET138KQNC 080855Z 06006KT 9999 FEW250 24/07 A3022 RMK SLP234 8/001 T02400070 52010 08093 16746 42961 10606 10240 20070 30066 40234 52010 80001;EQDQ01+000000PRSWM2Q02 +06062ATMX  N01 00000JPWTH 0QNNE71D0 00299F71 0 00199G71U0 99999K71D0 00045J71 0 00070L71 0 00700C71 0 03022M71 0 29725N71 0 00000Q71 0 10234S71D0 00075R71 0 00240X71 0 06006
0326167464332092000051322003+35533+024150FM-15+0146KQNC V0202905N002152200059N0112005N1+02105+01505101535ADDGD19999+0600099GF102991999999999999999999MA1101525999999MW1001REMMET066KQNC 132155Z 00000KT 9999 FEW200 20/14 A2998 RMK SLP151 T02000140;EQDQ01+000000PRSWM2N01 00000JPWTH 0P01   0003SCCGD1QNNE71D0 00000F71 0 00000G71U0 99999K71D0 00059J71 0 00150L71 0 00700C71 0 02998N71 0 00000Q71 0 10153S71D0 00070R71 0 00210X71 0 29004
0187167464332092000051817005+35533+024150FM-15+014699999V0203105N003652200059N011200599+02105+01305101105ADDGD11995+9999999MA1101125999999EQDN01 00000JPWTH 0QNNE71D0 00299F71 0 00199G71U0 99999K71D0 00055J71 0 00130L71 0 00700C71 0 02986N71 0 00000Q71 0 10110S71D0 00070R71 0 00210X71 0 31007
0292167464332092000052222003+35533+024150FM-15+0146KQNC V0203405N002152200059N0112005N1+01805+01305101455ADDGF100991999999999999999999MA1101465999999MW1001REMMET063KQNC 222155Z 28016KT 9999 SKC 22/11 A2996 RMK SLP145 T02200110;EQDQ01+000000PRSWM2N01 00000JPWTH 0QNNE71D0 00000F71 0 00000G71U0 99999K71D0 00055J71 0 00130L71 0 00700C71 0 02996N71 0 00000Q71 0 10145S71D0 00064R71 0 00180X71 0 34004
0187167464332092000060420005+35533+024150FM-15+014699999V0209995C000052200059N011200599+02205+01305101755ADDGD10005+9999999MA1101765999999EQDN01 00000JPWTH 0QNNE71D0 00000F71 0 00000G71U0 99999K71D0 00055J71 0 00130L71 0 00700C71 0 03005N71 0 00000Q71 0 10175S71D0 00072R71 0 00220X71 0 00000
0292167464332092000060913003+35533+024150FM-15+0146KQNC V0209995V002652200059N0112005N1+02905+02205101715ADDGF100991999999999999999999MA1101735999999MW1001REMMET063KQNC 091255Z VRB05KT 9999 SKC 29/22 A3004 RMK SLP171 T02900220;EQDQ01+000000PRSWM2N01 00000JPWTH 0QNNE71D0 00000F71 0 00000G71U0 99999K71D0 00072J71 0 00220L71 0 00700C71 0 03004N71 0 00000Q71 0 10171S71D0 00084R71 0 00290X71 0 00005
0187167464332092000061211005+35533+024150FM-15+014699999V0209995C000052200059N011200599+02705+01605102065ADDGD10005+9999999MA1102075999999EQDN01 00000JPWTH 0QNNE71D0 00000F71 0 00000G71U0 99999K71D0 00061J71 0 00160L71 0 00700C71 0 03014N71 0 00000Q71 0 10206S71D0 00081R71 0 00270X71 0 00000
0292167464332092000061907003+35533+024150FM-15+0146KQNC V0200105N005252200059N0112005N1+02105+01405101935ADDGF100991999999999999999999MA1101935999999MW1001REMMET063KQNC 190655Z 01010KT 9999 SKC 21/14 A3010 RMK SLP193 T02100140;EQDQ01+000000PRSWM2N01 00000JPWTH 0QNNE71D0 00000F71 0 00000G71U0 99999K71D0 00057J71 0 00140L71 0 00700C71 0 03010N71 0 00000Q71 0 10193S71D0 00070R71 0 00210X71 0 01010
0292167464332092000062607003+35533+024150FM-15+0146KQNC V0202905N007752200059N0112005N1+02905+01605100945ADDGF100991999999999999999999MA1100955999999MW1001REMMET063KQNC 260655Z 29015KT 9999 SKC 29/16 A2981 RMK SLP094 T02900160;EQDQ01+000000PRSWM2N01 00000JPWTH 0QNNE71D0 00000F71 0 00000G71U0 99999K71D0 00061J71 0 00160L71 0 00700C71 0 02981N71 0 00000Q71 0 10094S71D0 00084R71 0 00290X71 0 29015
0310167464332092000070116003+35533+024150FM-15+0146KQNC V0200905N003152200059N0112005N1+02605+01605101535ADDGD11995+0600099GF102991999999999999999999MA1101525999999MW1001REMMET066KQNC 011555Z 09006KT 9999 FEW200 26/16 A2998 RMK SLP153 T02600160;EQDQ01+000000PRSWM2N01 00000JPWTH 0QNNE71D0 00299F71 0 00199G71U0 99999K71D0 00061J71 0 00160L71 0 00700C71 0 02998N71 0 00000Q71 0 10153S71D0 00079R71 0 00260X71 0 09006
0292167464332092000070619003+35533+024150FM-15+0146KQNC V0209995C000052200059N0112005N1+02905+01605100775ADDGF100991999999999999999999MA1100785999999MW1001REMMET063KQNC 061855Z 00000KT 9999 SKC 29/16 A2976 RMK SLP077 T02900160;EQDQ01+000000PRSWM2N01 00000JPWTH 0QNNE71D0 00000F71 0 00000G71U0 99999K71D0 00061J71 0 00160L71 0 00700C71 0 02976N71 0 00000Q71 0 10077S71D0 00084R71 0 00290X71 0 00000
0292167464332092000070813003+35533+024150FM-15+0146KQNC V0209995V001552200059N0112005N1+03305+01705100825ADDGF100991999999999999999999MA1100815999999MW1001REMMET063KQNC 081255Z VRB03KT 9999 SKC 33/17 A2977 RMK SLP082 T03300170;EQDQ01+000000PRSWM2N01 00000JPWTH 0QNNE71D0 00000F71 0 00000G71U0 99999K71D0 00063J71 0 00170L71 0 00700C71 0 02977N71 0 00000Q71 0 10082S71D0 00091R71 0 00330X71 0 00003
0292167464332092000071114003+35533+024150FM-15+0146KQNC V0202705N003652200059N0112005N1+03205+01605100925ADDGF100991999999999999999999MA1100915999999MW1001REMMET063KQNC 111355Z 27007KT 9999 SKC 32/16 A2980 RMK SLP092 T03200160;EQDQ01+000000PRSWM2N01 00000JPWTH 0QNNE71D0 00000F71 0 00000G71U0 99999K71D0 00061J71 0 00160L71 0 00700C71 0 02980N71 0 00000Q71 0 10092S71D0 00090R71 0 00320X71 0 27007
0292167464332092000071422003+35533+024150FM-15+0146KQNC V0202905N007752200059N0112005N1+02105+01505100695ADDGF100991999999999999999999MA1100685999999MW1001REMMET063KQNC 142155Z 29014KT 9999 SKC 23/13 A2975 RMK SLP072 T02300130;EQDQ01+000000PRSWM2N01 00000JPWTH 0QNNE71D0 00000F71 0 00000G71U0 99999K71D0 00059J71 0 00150L71 0 00700C71 0 02973N71 0 00000Q71 0 10069S71D0 00070R71 0 00210X71 0 29015
0415167464332092000071806003+35533+024150FM-15+0146KQNC V0209995C000052200059N0112005N1+02605+01705101245ADDGF100991999999999999999999KA1999M+02601KA2999N+01801MA1101255099585MD1310041+9999MW1001REMMET135KQNC 180555Z 00000KT 9999 SKC 26/17 A2990 RMK SLP124 T02600170 10260 20180 53004 18063 16746 32961 00000 10260 20170 39958 40124 53004;EQDQ01+000000PRSWM2N01 00000JPWTH 0QNNE71D0 00000F71 0 00000G71U0 99999K71D0 00063J71 0 00170L71 0 00700C71 0 02990M71 0 29405N71 0 00000Q71 0 10124S71D0 00079R71 0 00260X71 0 00000
0292167464332092000072922003+35533+024150FM-15+0146KQNC V0209995C000052200059N0112005N1+02405+02105100615ADDGF100991999999999999999999MA1100615999999MW1001REMMET063KQNC 292155Z 00000KT 9999 SKC 23/23 A2977 RMK SLP082 T02300230;EQDQ01+000000PRSWM2N01 00000JPWTH 0QNNE71D0 00000F71 0 00000G71U0 99999K71D0 00070J71 0 00210L71 0 00700C71 0 02971N71 0 00000Q71 0 10061S71D0 00075R71 0 00240X71 0 00000
0415167464332092000073106003+35533+024150FM-15+0146KQNC V0209995C000052200059N0112005N1+02505+02305101005ADDGF100991999999999999999999KA1999M+02501KA2999N+02201MA1101025099345MD1310061+9999MW1001REMMET135KQNC 310555Z 00000KT 9999 SKC 25/23 A2983 RMK SLP100 T02500230 10250 20220 53006 31063 16746 32961 00000 10250 20230 39934 40100 53006;EQDQ01+000000PRSWM2N01 00000JPWTH 0QNNE71D0 00000F71 0 00000G71U0 99999K71D0 00073J71 0 00230L71 0 00700C71 0 02983M71 0 29335N71 0 00000Q71 0 10100S71D0 00077R71 0 00250X71 0 00000
0292167464332092000080208003+35533+024150FM-15+0146KQNC V0203605N003652200059N0112005N1+02615+01445101905ADDGF100991999999999999999999MA1101965999999MW1001REMMET063KQNC 020755Z 08010KT 9999 SKC 26/14 A3011 RMK SLP183 T02600140;EQDQ01+000000PRSWM2N01 00000JPWTH 0QNNE71D0 00000F71 0 00000G71U0 99999K71D0 00058J71 0 00144L71 0 00700C71 0 03011N71 0 00000Q71 0 10190S71D0 00079R71 0 00261X71 0 36007
0334167464332092000080215003+35533+024150FM-15+0146KQNC V0200405N003152200059N0112005N1+02615+01285101885ADDGF100991999999999999999999MA1101935100195MD1810021+9999MW1001OC100771REMMET072KQNC 021455Z 04006G15KT 9999 SKC 26/13 A3010 RMK SLP188 T02610128 58002;EQDQ01+000000PRSWM2N01 00000JPWTH 0QNNE71D0 00000F71 0 00000G71U0 99999K71D0 00055J71 0 00128L71 0 00700C71 0 03010M71 0 29585N71 0 00000Q71 0 10188S71D0 00079R71 0 00261X71 0 04006
0198167464332092000080221005+35533+024150FM-15+014699999V0202505N002652200059N011200599+02115+01335101895ADDGD10005+9999999MA1101965100205EQDN01 00000JPWTH 0QNNE71D0 00000F71 0 00000G71U0 99999K71D0 00056J71 0 00133L71 0 00700C71 0 03011M71 0 29590N71 0 00000Q71 0 10189S71D0 00070R71 0 00211X71 0 25005
0426167464332092000080818003+35533+024150FM-15+0146KQNC V0202905N006252200059N0112005N1+02335+01785101175ADDGF100991999999999999999999KA1999M+03061KA2999N+02331MA1101255099495MD1210101+9999MW1001OC100981REMMET138KQNC 081755Z 29012G19KT 9999 SKC 23/18 A2990 RMK SLP117 T02330178 10306 20233 52010 08183 16746 32961 02912 10233 20178 39950 40117 52010;EQDQ01+000000PRSWM2N01 00000JPWTH 0QNNE71D0 00000F71 0 00000G71U0 99999K71D0 00064J71 0 00178L71 0 00700C71 0 02990M71 0 29380N71 0 00000Q71 0 10117S71D0 00074R71 0 00233X71 0 29012
0292167464332092000080917003+35533+024150FM-15+0146KQNC V0203105N004152200059N0112005N1+02615+01945101255ADDGF100991999999999999999999MA1101325999999MW1001REMMET063KQNC 091655Z 31008KT 9999 SKC 26/19 A2992 RMK SLP125 T02610194;EQDQ01+000000PRSWM2N01 00000JPWTH 0QNNE71D0 00000F71 0 00000G71U0 99999K71D0 00067J71 0 00194L71 0 00700C71 0 02992N71 0 00000Q71 0 10125S71D0 00079R71 0 00261X71 0 31008
0415167464332092000081518003+35533+024150FM-15+0146KQNC V0203205N002152200059N0112005N1+02445+01785101075ADDGF100991999999999999999999KA1999M+03111KA2999N+02441MA1101155099395MD1110041+9999MW1001REMMET135KQNC 151755Z 32004KT 9999 SKC 24/18 A2987 RMK SLP107 T02440178 10311 20244 51004 15184 16746 32961 03204 10244 20178 39940 40107 51004;EQDQ01+000000PRSWM2N01 00000JPWTH 0QNNE71D0 00000F71 0 00000G71U0 99999K71D0 00064J71 0 00178L71 0 00700C71 0 02987M71 0 29350N71 0 00000Q71 0 10107S71D0 00076R71 0 00244X71 0 32004
0292167464332092000081701003+35533+024150FM-15+0146KQNC V0203005N001552200059N0112005N1+02335+01785100985ADDGF100991999999999999999999MA1101055999999MW1001REMMET063KQNC 170055Z 30003KT 9999 SKC 23/18 A2984 RMK SLP098 T02330178;EQDQ01+000000PRSWM2N01 00000JPWTH 0QNNE71D0 00000F71 0 00000G71U0 99999K71D0 00064J71 0 00178L71 0 00700C71 0 02984N71 0 00000Q71 0 10098S71D0 00074R71 0 00233X71 0 30003
0323167464332092000081715003+35533+024150FM-15+0146KQNC V0203405N004652200059N0112005N1+02785+01785101185ADDGF100991999999999999999999MA1101255099535MD1310011+9999MW1001REMMET069KQNC 171455Z 34009KT 9999 SKC 28/18 A2990 RMK SLP118 T02780178 53001;EQDQ01+000000PRSWM2N01 00000JPWTH 0QNNE71D0 00000F71 0 00000G71U0 99999K71D0 00064J71 0 00178L71 0 00700C71 0 02990M71 0 29390N71 0 00000Q71 0 10118S71D0 00082R71 0 00278X71 0 34009
0292167464332092000081920003+35533+024150FM-15+0146KQNC V0202205N002652200059N0112005N1+02395+01615101575ADDGF100991999999999999999999MA1101665999999MW1001REMMET063KQNC 191955Z 22005KT 9999 SKC 24/16 A3002 RMK SLP157 T02390161;EQDQ01+000000PRSWM2N01 00000JPWTH 0QNNE71D0 00000F71 0 00000G71U0 99999K71D0 00061J71 0 00161L71 0 00700C71 0 03002N71 0 00000Q71 0 10157S71D0 00075R71 0 00239X71 0 22005
0292167464332092000082017003+35533+024150FM-15+0146KQNC V0202805N002652200059N0112005N1+02615+01785101265ADDGF100991999999999999999999MA1101355999999MW1001REMMET063KQNC 201655Z 28005KT 9999 SKC 26/18 A2993 RMK SLP126 T02610178;EQDQ01+000000PRSWM2N01 00000JPWTH 0QNNE71D0 00000F71 0 00000G71U0 99999K71D0 00064J71 0 00178L71 0 00700C71 0 02993N71 0 00000Q71 0 10126S71D0 00079R71 0 00261X71 0 28005
0415167464332092000082106003+35533+024150FM-15+0146KQNC V0203105N003152200059N0112005N1+02675+01785101175ADDGF100991999999999999999999KA1999M+02671KA2999N+02171MA1101255099495MD1610061+9999MW1001REMMET135KQNC 210555Z 31006KT 9999 SKC 27/18 A2990 RMK SLP117 T02670178 10267 20217 56006 21064 16746 32961 03106 10267 20178 39950 40117 52006;EQDQ01+000000PRSWM2N01 00000JPWTH 0QNNE71D0 00000F71 0 00000G71U0 99999K71D0 00064J71 0 00178L71 0 00700C71 0 02990M71 0 29380N71 0 00000Q71 0 10117S71D0 00080R71 0 00267X71 0 31006
0310167464332092000082211003+35533+024150FM-15+0146KQNC V0203205N004652200059N0112005N1+03005+01835101185ADDGD11995+0090099GF102991999999999999999999MA1101255999999MW1001REMMET066KQNC 221055Z 32009KT 9999 FEW030 30/18 A2990 RMK SLP118 T03000183;EQDQ01+000000PRSWM2N01 00000JPWTH 0QNNE71D0 00299F71 0 00199G71U0 99999K71D0 00065J71 0 00183L71 0 00700C71 0 02990N71 0 00000Q71 0 10118S71D0 00086R71 0 00300X71 0 32009
0456167464332092000082800003+35533+024150FM-15+0146KQNC V0201305N001552200059N0064005N1+02175+01835101635ADDGD12995+9999999KA1999M+02221KA2999N+02171MA1101695099935MD1110031+9999MW1041MW2055REMMET165KQNC 272355Z 13003KT 7000 HZ FU020 SCT025 22/18 A3004 RMK SLP163 8/100 T02170183 10222 20217 51003 28004 16746 31556 31303 10217 20183 39994 40163 51003 70500 83100;EQDQ01+000003PRSWM1Q02    003PRSWM1N01 00081JPWTH 0QNNE71D0 00299F71 0 00299G71U0 99999K71D0 00065J71 0 00183L71 0 00400C71 0 03003M71 0 29510N71 0 00081Q71 0 10163S71D0 00071R71 0 00217X71 0 13003
0292167464332092000082817003+35533+024150FM-15+0146KQNC V0200905N002652200059N0112005N1+02445+01285101635ADDGF100991999999999999999999MA1101735999999MW1001REMMET063KQNC 281655Z 09008KT 9999 SKC 24/13 A3004 RMK SLP163 T02440128;EQDQ01+000000PRSWM2N01 00000JPWTH 0QNNE71D0 00000F71 0 00000G71U0 99999K71D0 00055J71 0 00128L71 0 00700C71 0 03004N71 0 00000Q71 0 10163S71D0 00076R71 0 00244X71 0 09005
0432167464332092000090404003+35533+024150FM-15+0146KQNC V0203005N003152200019N0112005N1+02405+01105100905ADDGF100991999999999999999999MA1100985999999MW1001REMMET063KQNC 040355Z 30006KT 9999 SKC 24/11 A2982 RMK SLP090 T02440106;EQDQ01+000000PRSWM2N01 00000JALM1 3N02 09000JALC2D3N03 09000JALM2 3N04 09000JALC3D3N05 09000JALM3 3N06 99999CCLHTU3N07 00000JPWTH 0QNNAA1D0 00000BA1 3 00000AA1D3 09000BA1 3 09000AA1D3 09000BA1 3 09000GA1U3 99999KA1D0 00052JA1 0 00110LA1 0 00700CA1 0 02982NA1 0 00000QA1 0 10090SA1D0 00075RA1 0 00240YA1 0 30006
0424167464332092000090815003+35533+024150FM-15+0146KQNC V0201005N00465184715MN0112005N1+02405+01705101525ADDGD12995+0137259GD23995+0182959GD33995+0609659GF107991999999999999999999MA1101595999999MD1310101+9999MW1001REMMET092KQNC 081455Z 10009KT 9999 SCT045 BKN065 BKN200 24/17 A3000 RMK SLP152 8/101 T02390172 53010;EQDQ01+000000PRSWM2N01 00000JPWTH 0QNNAA1D0 02045BA1 0 02045AA1D0 04060BA1 0 04060AA1D0 04200BA1 0 04200GA1 0 00606KA1D0 00063JA1 0 00170LA1 0 00700CA1 0 03000NA1 0 00000QA1 0 10152SA1D0 00075RA1 0 00240YA1 0 10009
0213167464332092000090921596+35533+024150SOD  +0146KQNC V020999999999999999999999999999+99999+99999999999ADDOE11249999999999997OE22249999999999997REMSOD163HOURLY INCREMENTAL PRECIPITATION VALUES (IN):.00  .00  .00  .00  .00  .00  .00  .00  .00  .00  .00  .00  .00  .00  .00  .00  .00  .00  .00  .00  .00  .00  .00  .00
0310167464332092000091311003+35533+024150FM-15+0146KQNC V0203605N00365220005MN0112005N1+02605+01605101435ADDGD12995+0121959GF104991999999999999999999MA1101525999999MW1001REMMET066KQNC 131055Z 36007KT 9999 SCT040 26/16 A2998 RMK SLP143 T02560161;EQDQ01+000000PRSWM2N01 00000JPWTH 0QNNAA1D0 02040BA1 0 02040GA1U0 99999KA1D0 00061JA1 0 00160LA1 0 00700CA1 0 02998NA1 0 00000QA1 0 10143SA1D0 00079RA1 0 00260YA1 0 36007
0354167464332092000091517003+35533+024150FM-15+0146KQNC V0203005N00465220005MN0112005N1+02305+02005101345ADDGD12995+0121959GD22995+0457259GF102991999999999999999999MA1101425999999MW1001REMMET073KQNC 151655Z 30009KT 9999 FEW040 FEW150 23/20 A2995 RMK SLP134 T02280200;EQDQ01+000000PRSWM2N01 00000JPWTH 0QNNAA1D0 02040BA1 0 02040AA1D0 02150BA1 0 02150GA1U0 99999KA1D0 00068JA1 0 00200LA1 0 00700CA1 0 02995NA1 0 00000QA1 0 10134SA1D0 00073RA1 0 00230YA1 0 30009
0544167464332092000091523553+35533+024150FM-15+0146KQNC V0203205N002652200019N0112005N1+02105+01705101365ADDGF100991999999999999999999KA1999M+02221KA2999N+02061MA1101465999999MD1710061+9999MW1001REMMET135KQNC 152355Z 32005KT 9999 SKC 21/17 A2996 RMK SLP136 T02110172 10222 20206 57006 16004 16746 32961 03205 10211 20172 39966 40136 57006;EQDQ01+000000PRSWM2N01 00000JALM1 3N02 09000JALC2D3N03 09000JALM2 3N04 09000JALC3D3N05 09000JALM3 3N06 99999CCLHTU3N07 00000JPWTH 0QNNAA1D0 00000BA1 3 00000AA1D3 09000BA1 3 09000AA1D3 09000BA1 3 09000GA1U3 99999KA1D0 00063JA1 0 00170LA1 0 00700CA1 0 02996NA1 0 00000QA1 0 10136SA1D0 00070RA1 0 00210YA1 0 32005
0432167464332092000091922003+35533+024150FM-15+0146KQNC V0202805N002152200019N0112005N1+02305+01105101575ADDGF100991999999999999999999MA1101665999999MW1001REMMET063KQNC 192155Z 28004KT 9999 SKC 23/11 A3002 RMK SLP157 T02330111;EQDQ01+000000PRSWM2N01 00000JALM1 3N02 09000JALC2D3N03 09000JALM2 3N04 09000JALC3D3N05 09000JALM3 3N06 99999CCLHTU3N07 00000JPWTH 0QNNAA1D0 00000BA1 3 00000AA1D3 09000BA1 3 09000AA1D3 09000BA1 3 09000GA1U3 99999KA1D0 00052JA1 0 00110LA1 0 00700CA1 0 03002NA1 0 00000QA1 0 10157SA1D0 00073RA1 0 00230YA1 0 28004
0507167464332092000100121003+35533+024150FM-15+0146KQNC V0201005N002652200019N0080005N1+01805+01705102015ADDGF100991999999999999999999KA1999M+02391KA2999N+01501MA1102105999999MD1810011+9999MW1045REMMET082KQNC 012055Z 10005KT 8000 FU SKC 18/17 A3015 RMK SLP201 T01830167 402390150 58001;EQDQ01+000003PRSWM1Q02    003PRSWM1N01 00000JALM1 3N02 09000JALC2D3N03 09000JALM2 3N04 09000JALC3D3N05 09000JALM3 3N06 99999CCLHTU3N07 00080JPWTH 0QNNAA1D0 00000BA1 3 00000AA1D3 09000BA1 3 09000AA1D3 09000BA1 3 09000GA1U3 99999KA1D0 00063JA1 0 00170LA1 0 00500CA1 0 03015NA1 0 00080QA1 0 10201SA1D0 00064RA1 0 00180YA1 0 10005
0432167464332092000100208003+35533+024150FM-15+0146KQNC V0201105N003152200019N0112005N1+02305+01705101815ADDGF100991999999999999999999MA1101905999999MW1001REMMET063KQNC 020755Z 11006KT 9999 SKC 23/17 A3009 RMK SLP181 T02280172;EQDQ01+000000PRSWM2N01 00000JALM1 3N02 09000JALC2D3N03 09000JALM2 3N04 09000JALC3D3N05 09000JALM3 3N06 99999CCLHTU3N07 00000JPWTH 0QNNAA1D0 00000BA1 3 00000AA1D3 09000BA1 3 09000AA1D3 09000BA1 3 09000GA1U3 99999KA1D0 00063JA1 0 00170LA1 0 00700CA1 0 03009NA1 0 00000QA1 0 10181SA1D0 00073RA1 0 00230YA1 0 11006
0354167464332092000101107003+35533+024150FM-15+0146KQNC V0203105N00315220005MN0112005N1+02205+01605101565ADDGD12995+0094559GD22995+0548659GF102991999999999999999999MA1101665999999MW1001REMMET073KQNC 110655Z 31006KT 9999 FEW030 FEW180 22/16 A3002 RMK SLP156 T02220156;EQDQ01+000000PRSWM2N01 00000JPWTH 0QNNAA1D0 02031BA1 0 02031AA1D0 02180BA1 0 02180GA1U0 99999KA1D0 00061JA1 0 00160LA1 0 00700CA1 0 03002NA1 0 00000QA1 0 10156SA1D0 00072RA1 0 00220YA1 0 31006
0398167464332092000101820003+35533+024150FM-15+0146KQNC V0209995C00005060965MN0112005N1+01705+01405101985ADDGD12995+0121959GD22995+0243859GD33995+0609659GF107991999999999999999999MA1102035999999MW1001REMMET080KQNC 181955Z 00000KT 9999 SCT040 SCT080 BKN200 17/14 A3013 RMK SLP198 T01720144;EQDQ01+000000PRSWM2N01 00000JPWTH 0QNNAA1D0 02040BA1 0 02040AA1D0 02080BA1 0 02080AA1D0 04200BA1 0 04200GA1 0 00200KA1D0 00057JA1 0 00140LA1 0 00700CA1 0 03013NA1 0 00000QA1 0 10198SA1D0 00063RA1 0 00170YA1 0 00000
0203167464332092000101917184+35530+024150FM-16+0146KQNC V0203301N003610150019N0090001N1+01801+01301101981ADDGD12991+0090099GD24991+0150099GF108991999999999999999999MA1102031999999MW1801REMMET079KQNC 191718Z 33007KT 9000 -SHRA SCT030 OVC050 18/13 A3013 RMK SLP198 T01780133;EQDQ01+000003PRSWM1Q02    003PRSWM1
0181167464332092000102001004+35530+024150FM-15+0146KQNC V0203201N002110150019N0112651N1+01701+01301101911ADDGD12991+0090099GD23991+0150099GF107991999999999999999999MA1101961999999MW1001REMMET073KQNC 200055Z 32004KT 9999 SCT030 BKN050 17/13 A3011 RMK SLP191 T01670133;EQDQ01+000000PRSWM2
0310167464332092000102423003+35533+024150FM-15+0146KQNC V0202405N00155012195MN0112005N1+01105+00705102225ADDGD13995+0121959GF107991999999999999999999MA1102275999999MW1001REMMET066KQNC 242255Z 24003KT 9999 BKN040 11/07 A3020 RMK SLP222 T01060067;EQDQ01+000000PRSWM2N01 00000JPWTH 0QNNAA1D0 04040BA1 0 04040GA1 0 00040KA1D0 00045JA1 0 00070LA1 0 00700CA1 0 03020NA1 0 00000QA1 0 10222SA1D0 00052RA1 0 00110YA1 0 24003
0354167464332092000111110003+35533+024150FM-15+0146KQNC V0203005N00525060965MN0112005N1+02405+01205102295ADDGD12995+0365859GD23995+0609659GF107991999999999999999999MA1102375999999MW1001REMMET073KQNC 110955Z 30010KT 9999 SCT120 BKN200 24/12 A3023 RMK SLP229 T02390117;EQDQ01+000000PRSWM2N01 00000JPWTH 0QNNAA1D0 02120BA1 0 02120AA1D0 04200BA1 0 04200GA1 0 00200KA1D0 00054JA1 0 00120LA1 0 00700CA1 0 03023NA1 0 00000QA1 0 10229SA1D0 00075RA1 0 00240YA1 0 30010
0398167464332092000111202003+35533+024150FM-15+0146KQNC V0209995C00005220005MN0112005N1+01505+01305102195ADDGD12995+0243859GD22995+0365859GD32995+0609659GF104991999999999999999999MA1102245999999MW1001REMMET080KQNC 120155Z 00000KT 9999 FEW080 FEW120 SCT200 15/13 A3019 RMK SLP219 T01500128;EQDQ01+000000PRSWM2N01 00000JPWTH 0QNNAA1D0 02080BA1 0 02080AA1D0 02120BA1 0 02120AA1D0 02200BA1 0 02200GA1U0 99999KA1D0 00055JA1 0 00130LA1 0 00700CA1 0 03019NA1 0 00000QA1 0 10219SA1D0 00059RA1 0 00150YA1 0 00000
0478167464332092000111306003+35533+024150FM-15+0146KQNC V0209995C00005012195MN0112005N1+01505+01205102255ADDGD12995+0094559GD23995+0121959GF107991999999999999999999KA1999M+01561KA2999N+01391MA1102305999999MD1210031+9999MW1001REMMET157KQNC 130555Z 00000KT 9999 FEW030 BKN040 15/12 A3021 RMK SLP225 8/800 T01500122 10156 20139 52003 13064 16746 32961 70000 10150 20122 30054 40225 52003 87800;EQDQ01+000000PRSWM2N01 00000JPWTH 0QNNAA1D0 02031BA1 0 02031AA1D0 04040BA1 0 04040GA1 0 00040KA1D0 00054JA1 0 00120LA1 0 00700CA1 0 03021NA1 0 00000QA1 0 10225SA1D0 00059RA1 0 00150YA1 0 00000
0432167464332092000111710003+35533+024150FM-15+0146KQNC V0200905N003152200019N0112005N1+01905+01405102025ADDGF100991999999999999999999MA1102075999999MW1001REMMET063KQNC 170955Z VRB04KT 9999 SKC 19/14 A3014 RMK SLP202 T01890144;EQDQ01+000000PRSWM2N01 00000JALM1 3N02 09000JALC2D3N03 09000JALM2 3N04 09000JALC3D3N05 09000JALM3 3N06 99999CCLHTU3N07 00000JPWTH 0QNNAA1D0 00000BA1 3 00000AA1D3 09000BA1 3 09000AA1D3 09000BA1 3 09000GA1U3 99999KA1D0 00057JA1 0 00140LA1 0 00700CA1 0 03014NA1 0 00000QA1 0 10202SA1D0 00066RA1 0 00190YA1 0 09006
0398167464332092000112008003+35533+024150FM-15+0146KQNC V0201605N00215030485MN0112005N1+02105+00905101895ADDGD12995+0121959GD23995+0304859GD33995+0609659GF107991999999999999999999MA1101965999999MW1001REMMET080KQNC 200755Z 16004KT 9999 SCT040 BKN100 BKN200 21/09 A3011 RMK SLP189 T02110094;EQDQ01+000000PRSWM2N01 00000JPWTH 0QNNAA1D0 02040BA1 0 02040AA1D0 04100BA1 0 04100AA1D0 04200BA1 0 04200GA1 0 00100KA1D0 00048JA1 0 00090LA1 0 00700CA1 0 03011NA1 0 00000QA1 0 10189SA1D0 00070RA1 0 00210YA1 0 16004
0365167464332092000112010003+35533+024150FM-15+0146KQNC V0203005N00575027435MN0112005N1+02305+00905101885ADDGD12995+0121959GD23995+0274359GF107991999999999999999999MA1101935999999MW1001OC100771REMMET076KQNC 200955Z 30011G15KT 9999 SCT040 BKN090 23/09 A3010 RMK SLP188 T02280094;EQDQ01+000000PRSWM2N01 00000JPWTH 0QNNAA1D0 02040BA1 0 02040AA1D0 04090BA1 0 04090GA1 0 00090KA1D0 00048JA1 0 00090LA1 0 00700CA1 0 03010NA1 0 00000QA1 0 10188SA1D0 00073RA1 0 00230YA1 0 30011
0490167464332092000112909003+35533+024150FM-15+0146KQNC V0200205N01135009455MN0080005N1+01405+01005101415ADDGD12995+0076259GD23995+0094559GD34995+0152459GF108991999999999999999999MA1101465999999MD1210081+9999MW1101MW2455OC101491REMMET128KQNC 290855Z 02022G29KT 8000 BR SCT025 BKN030 OVC050 14/10 A2996 RMK PK WND 01029/0847 SLP141 P0001 60002 8/7// T01390100 52008;EQDQ01+000003PRSWM1Q02    003PRSWM1N01 00070JPWTH 0QNNAA1D0 02025BA1 0 02025AA1D0 04031BA1 0 04031AA1D0 06050BA1 0 06050GA1 0 00031KA1D0 00050JA1 0 00100LA1 0 00500CA1 0 02996NA1 0 00070QA1 0 10141SA1D0 00057RA1 0 00140YA1 0 02022
0354167464332092000120901003+35533+024150FM-15+0146KQNC V0200205N00415012195MN0112005N1+01305+00705102355ADDGD12995+0061059GD24995+0121959GF108991999999999999999999MA1102375999999MW1001REMMET073KQNC 090055Z 02008KT 9999 FEW020 OVC040 13/07 A3023 RMK SLP235 T01330067;EQDQ01+000000PRSWM2N01 00000JPWTH 0QNNAA1D0 02020BA1 0 02020AA1D0 06040BA1 0 06040GA1 0 00040KA1D0 00045JA1 0 00070LA1 0 00700CA1 0 03023NA1 0 00000QA1 0 10235SA1D0 00055RA1 0 00130YA1 0 02008
0310167464332092000120920003+35533+024150FM-15+0146KQNC V0202505N00155010675MN0112005N1+01105+00705102465ADDGD13995+0106759GF107991999999999999999999MA1102515999999MW1001REMMET066KQNC 091955Z 25003KT 9999 BKN035 11/07 A3027 RMK SLP246 T01060072;EQDQ01+000000PRSWM2N01 00000JPWTH 0QNNAA1D0 04035BA1 0 04035GA1 0 00035KA1D0 00045JA1 0 00070LA1 0 00700CA1 0 03027NA1 0 00000QA1 0 10246SA1D0 00052RA1 0 00110YA1 0 25003
0417167464332092000121912004+35530+024150FM-15+0146KQNC V0203101N002110150019N0112651N1+01301+01001101701ADDGA1999+009009099GD12991+0090099GD23991+0150099GD33991+0270099GD44991+0600099GF108991999999999999999999KA1999M+01561KA2999N+01221MA1101761999999MD1810111+9999MW1001REMMET223KQNC 191155Z 31004KT 9999 SCT030CB BKN050 BKN090 OVC200 13/10 A3005 RMK CB NW MOV SE SLP170 P0000 60005 70006 8/372 T01280100 10156 20122 58011 T2 SET 19124 16746 11561 83104 10128 20100 39996 40170 58011 60014 72588 85372;EQDQ01+000000PRSWM2
0310167464332092000122417003+35533+024150FM-15+0146KQNC V0202205N00215220005MN0112005N1+00605+00305102005ADDGD12995+0152459GF102991999999999999999999MA1102035999999MW1001REMMET066KQNC 241655Z 22004KT 9999 FEW050 06/03 A3013 RMK SLP200 T00610028;EQDQ01+000000PRSWM2N01 00000JPWTH 0QNNAA1D0 02050BA1 0 02050GA1U0 99999KA1D0 00037JA1 0 00030LA1 0 00700CA1 0 03013NA1 0 00000QA1 0 10200SA1D0 00043RA1 0 00060YA1 0 22004
0409167464332092000122717003+35533+024150FM-15+0146KQNC V0201505N00315060965MN0112005N1+01705+00805101395ADDGD12995+0121959GD22995+0457259GD33995+0609659GF107991999999999999999999MA1101425999999MW1001OC100771REMMET083KQNC 271655Z 15006G15KT 9999 FEW040 SCT150 BKN200 17/08 A2995 RMK SLP139 T01670079;EQDQ01+000000PRSWM2N01 00000JPWTH 0QNNAA1D0 02040BA1 0 02040AA1D0 02150BA1 0 02150AA1D0 04200BA1 0 04200GA1 0 00200KA1D0 00046JA1 0 00080LA1 0 00700CA1 0 02995NA1 0 00000QA1 0 10139SA1D0 00063RA1 0 00170YA1 0 15006
0145167490999992000010405504+36400+028080FM-15+0011LGRP V0203001N010312200019N0112651N1+00801-00101999999ADDGA1021+000609999GF102991999999999999999999MA1101021999999MW1001REMMET051LGRP 040550Z 30020KT 9999 FEW02 08/M01 Q1010 NOSIG;EQDQ01+000000PRSWM2
0146167490999992000010520504+36400+028080FM-15+0011LGRP V0203201N003612200019N0112651N1+00901-00301999999ADDGA1021+006009999GF102991999999999999999999MA1101191999999MW1001REMMET052LGRP 052050Z 32007KT 9999 FEW020 09/M03 Q1012 NOSIG;EQDQ01+000000PRSWM2
0177167490999992000010609004+36400+028080FM-12+0011LGRP V0203101N005112200019N0200001N1+01081+00131101631ADDGF101991011011008001001001MA1999999101491MD1210121+9999REMSYN110AAXX  06094 16749 42570 13110 10108 20013 30149 40163 52012 81100 333 91116 555 40000 47642 44200 50000 50068;
0145167490999992000010609504+36400+028080FM-15+0011LGRP V0203101N006212200019N0112651N1+01101+00101999999ADDGA1021+006009999GF102991999999999999999999MA1101491999999MW1001REMMET051LGRP 060950Z 31012KT 9999 FEW020 11/01 Q1015 NOSIG;EQDQ01+000000PRSWM2
0213167490999992000010712004+36400+028080FM-12+0011LGRP V0202901N007712200019N0200001N1+01101-00161101711ADDAA106000091GF101991011021008001001001MA1999999101581MD1710051+9999REMSYN116AAXX  07124 16749 32570 12915 10110 21016 30158 40171 57005 81200 333 90730 91120 555 40000 47652 44230 50000 50060;EQDQ01  00002PRCP06
0274167490999992000011106004+36400+028080FM-12+0011LGRP V0209999C000012200019N0100001N1+00801+00331102391ADDAA106000091GF102991021011008001001001KA1120N+00781MA1999999102251MD1310071+9999REMSYN164AAXX  11064 16749 32560 20000 10080 20033 30225 40239 53007 82100 333 20078 30/// 55080 90730 91109 555 10000 30080 20000 89061 99042 40000 47703 44230 50000 50060;EQDQ01  00002PRCP06
0168167490999992000011109504+36400+028080FM-15+0011LGRP V0203001N002612200019N0112651N1+01201+00401999999ADDGA1021+006009999GA2021+054009999GF104991999999999999999999MA1102401999999MW1001REMMET058LGRP 110950Z 30005KT 9999 FEW020 SCT180 12/04 Q1024 NOSIG;EQDQ01+000000PRSWM2
0225167490999992000011709004+36400+028080FM-12+001199999V0209999C00001006001RN0100001N1+01281+00661101501ADDGA1051+006009069GA2061+024009039GF107991051051008001051001MA1999999101371MD1710081+9999REMSYN126    AAXX  17094 16749 42560 70000 10128 20066 30137 40150 57008 85550 333 85620 86358 91104 555 40000 47636 44230 50000 50098;
0275167490999992000011715004+36400+028080FM-12+001199999V0201401N00211024001RN0070001N1+01041+00841100821ADDAY161031AY221031GA1021+004509089GA2041+006009069GA3081+024009049GF108991041081004501021999MA1999999100691MD1710321+9999MW1601REMSYN138    AAXX  17154 16749 41457 81404 10104 20084 30069 40082 57032 76062 8482/ 333 82815 84620 88458 91106 555 40000 47584 44220 50000 50094;
0187167490999992000012109004+36400+028080FM-12+0011LGRP V0202901N007712200019N0100001N1+00681-00501102021ADDGA1001+999999999GF100991001001999999001001MA1999999101871MD1210071+9999REMSYN104AAXX  21094 16749 42960 02915 10068 21050 30187 40202 52007 333 91121 555 40000 47670 44195 50000 50026;
0097167490999992000012308504+36400+028080FM-15+0011LGRP V0209999C00001220001CN0099001N1+01101+00101999999ADDMA1101801999999MW1001REMMET045LGRP 230850Z 00000KT CAVOK 11/01 Q1018 NOSIG;EQDQ01+000000PRSWM2
0194167490999992000012401504+36400+028080FM-15+0011LGRP V0209999C000010090019N0112651N1+01201+01001999999ADDGA1021+005409029GA2071+009009999GA3081+024009999GF108991999999999999999999MA1101291999999MW1001REMMET068LGRP 240150Z 00000KT 9999 FEW018TCU BKN030 OVC080 12/10 Q1013 NOSIG;EQDQ01+000000PRSWM2
0194167490999992000012503504+36400+028080FM-15+0011LGRP V0202201N005110240019N0112651N1+01201+00701999999ADDGA1021+005409029GA2021+009009999GA3071+024009999GF107991999999999999999999MA1101021999999MW1001REMMET068LGRP 250350Z 22010KT 9999 FEW018TCU SCT030 BKN080 12/07 Q1010 NOSIG;EQDQ01+000000PRSWM2
0221167490999992000012509004+36400+028080FM-12+0011LGRP V0202601N006712200019N0150001N1+01261+00481101381ADDGA1021+005409089GA2031+009009069GF104991041081004501001001MA1999999101241MD1210261+9999REMSYN122AAXX  25094 16749 42465 42613 10126 20048 30124 40138 52026 84800 333 82818 83630 91119 555 40000 47626 44215 50000 50090;
0363167490999992000013006004+36400+028080FM-12+0011LGRP V0209999C000010360019N0100001N1+01281+00931102251ADDAA112000591GA1011+005409099GA2021+006009089GA3031+009009069GF105991041091004501031001KA1120N+01161MA1999999102101MD1310061+9999REMSYN224AAXX  30064 16749 12460 50000 10128 20093 30210 40225 53006 69952 84930 333 20116 31/// 55052 81918 82820 83630 90730 91108 555 10000 30130 20000 89088 99056 40000 47691 44220 50000 50110 60000 60005 60050 70000 77/// 74///;
0145167490999992000020510504+36400+028080FM-15+0011LGRP V0203301N006212200019N0112651N1+01201+00201999999ADDGA1021+006009999GF102991999999999999999999MA1101901999999MW1001REMMET051LGRP 051050Z 33012KT 9999 FEW020 12/02 Q1019 NOSIG;EQDQ01+000000PRSWM2
0145167490999992000020721504+36400+028080FM-15+0011LGRP V0209999C000012200019N0112651N1+01001+00701999999ADDGA1021+006009999GF102991999999999999999999MA1102001999999MW1001REMMET051LGRP 072150Z 00000KT 9999 FEW020 10/07 Q1020 NOSIG;EQDQ01+000000PRSWM2
0202167490999992000020914504+36400+028080FM-15+0011LGRP V0201601N002112200019N0112651N1+01501+00901999999ADDGA1021+006009999GA2021+024009999GF104991999999999999999999MA1101901999999MW1001REMMET092LGRP 091450Z 16004KT 9999 FEW020 SCT080 15/09 Q1019 NOSIG RWY07 16004G10KT RWY25 16006G10KT;EQDQ01+000000PRSWM2
0254167490999992000021008504+36400+028080FM-15+0011LGRP V0201201N002610240019N0112651N1+01401+01001999999ADDGA1021+006009999GA2021+009009999GA3081+024009999GF108991999999999999999999KA1999M+99999MA1102001999999MW1001REMMET099LGRP 100850Z 12005KT 9999 SCT020 SCT030 OVC080 14/10 Q1020 NOSIG RWY07 12005G09KT RWY25 11007G13KT;EQDQ01+000000PRSWM2Q02 -00072ATMX  
0168167490999992000021306504+36400+028080FM-15+0011LGRP V0203001N005110240019N0112651N1+01301+00801999999ADDGA1021+006009999GA2071+024009999GF107991999999999999999999MA1101391999999MW1001REMMET058LGRP 130650Z 30010KT 9999 FEW020 BKN080 13/08 Q1014 NOSIG;EQDQ01+000000PRSWM2
0191167490999992000021519504+36400+028080FM-15+0011LGRP V02099999999990090019N9999999N1+01101+00401999999ADDGA1021+006009999GA2071+009009999GA3081+021009999GF108991999999999999999999MA1101291999999MW1001REMMET065LGRP 151950Z 30019(T 9999 FEW020 BKN030 OVC070 11/04 Q1013 NOSIG;EQDQ01+000000PRSWM2
0145167490999992000021621204+36400+028080FM-15+0011LGRP V0203001N004112200019N0112651N1+01001+00301999999ADDGA1021+006009999GF102991999999999999999999MA1101801999999MW1001REMMET051LGRP 162120Z 30008KT 9999 FEW020 10/03 Q1018 NOSIG;EQDQ01+000000PRSWM2
0145167490999992000021702504+36400+028080FM-15+0011LGRP V0209999C000012200019N0112651N1+00701+00301999999ADDGA1021+006009999GF102991999999999999999999MA1101691999999MW1001REMMET051LGRP 170250Z 00000KT 9999 FEW020 07/03 Q1017 NOSIG;EQDQ01+000000PRSWM2
0385167490999992000021806004+36400+028080FM-12+0011LGRP V0201701N006210090019N0030001N1+01601+01121101191ADDAA112006191AY191061AY261061GA1011+003009079GA2031+005409099GA3081+009009069GF108991081081004501999999KA1120N+01501MA1999999101061MD1510061+9999MW1961REMSYN224AAXX  18064 16749 32430 81712 10160 20112 30106 40119 55006 60062 79696 888// 333 20150 31/// 81710 83918 88630 90730 91127 555 10000 30160 20000 89093 99067 40000 47612 44220 50000 50134 60000 60058 60020 70000 77546 7546/;
0243167490999992000021815004+36400+028080FM-12+0011LGRP V0201601N005110090019N0100001N1+01621+01261100801ADDGA1021+005409089GA2051+009009069GA3051+024009039GF107991061081004501051001MA1999999100671MD1710161+9999REMSYN128AAXX  18154 16749 42460 71610 10162 20126 30067 40080 57016 86850 333 82818 85630 85358 91122 555 40000 47588 44260 50000 50142;
0171167490999992000022218504+36400+028080FM-15+0011LGRP V0203201N006212200019N0112651N1+01001+00501999999ADDGA1021+005409029GA2021+009009999GF104991999999999999999999MA1101291999999MW1001REMMET061LGRP 221850Z 32012KT 9999 FEW018TCU SCT030 10/05 Q1013 NOSIG;EQDQ01+000000PRSWM2
0097167490999992000022513504+36400+028080FM-15+0011LGRP V0203401N00511220001CN0099001N1+01201+00301999999ADDMA1102201999999MW1001REMMET045LGRP 251350Z 34010KT CAVOK 12/03 Q1022 NOSIG;EQDQ01+000000PRSWM2
0145167490999992000022622504+36400+028080FM-15+0011LGRP V0203301N003612200019N0112651N1+01201+00601999999ADDGA1021+006009999GF102991999999999999999999MA1102001999999MW1001REMMET051LGRP 262250Z 33007KT 9999 FEW020 12/06 Q1020 NOSIG;EQDQ01+000000PRSWM2
0307167490999992000022821004+36400+028080FM-12+0011LGRP V0200201N002610090019N0060001N1+00741+00651102601ADDAY161031AY261031GA1021+006009089GA2051+009009069GA3071+024009049GF107991061081008001021001MA1999999102441MD1010041+9999MW1611REMSYN170AAXX  28214 16749 41556 70205 10074 20065 30244 40260 50004 76166 86820 333 82820 85630 87458 91107 555 40000 47715 44205 50000 50070 60000 60072 60300 70000 7746/ 746//;
0307167490999992000030321004+36400+028080FM-12+0011LGRP V0209999C000010240019N0080001N1+01061+00941101621ADDAY161031AY221031GA1021+006009089GA2041+009009069GA3061+024009039GF106991041081008001051001MA1999999101471MD1010031+9999MW1211REMSYN170AAXX  03214 16749 41558 60000 10106 20094 30147 40162 50003 72162 84850 333 82820 84630 86358 91114 555 40000 47643 44215 50000 50100 60000 60021 60145 70000 7746/ 746//;
0191167490999992000030605504+36400+028080FM-15+0011LGRP V0203001N008210240019N0112651N1+01301+01001999999ADDGA1021+006009999GA2021+009009999GA3071+024009999GF107991999999999999999999MA1101691999999MW1001REMMET065LGRP 060550Z 30016KT 9999 FEW020 SCT030 BKN080 13/10 Q1017 NOSIG;EQDQ01+000000PRSWM2
0191167490999992000030606504+36400+028080FM-15+0011LGRP V0202901N007210240019N0112651N1+01301+00901999999ADDGA1021+006009999GA2021+009009999GA3071+024009999GF107991999999999999999999MA1101801999999MW1001REMMET065LGRP 060650Z 29014KT 9999 FEW020 SCT030 BKN080 13/09 Q1018 NOSIG;EQDQ01+000000PRSWM2
0213167490999992000031000004+36400+028080FM-12+0011LGRP V0202101N003112200019N0100001N1+01181+00991102101ADDAA199000091GF101991011011008001001001MA1999999101951MD1710041+9999REMSYN116AAXX  10004 16749 32560 12106 10118 20099 30195 40210 57004 81100 333 90730 91110 555 40000 47678 44210 50000 50108;EQDQ01  00002PRCP99
0145167490999992000031016504+36400+028080FM-15+0011LGRP V0209999C000012200019N0112651N1+01501+01101999999ADDGA1021+006009999GF102991999999999999999999MA1101801999999MW1001REMMET051LGRP 101650Z 00000KT 9999 FEW020 15/11 Q1018 NOSIG;EQDQ01+000000PRSWM2
0145167490999992000031112504+36400+028080FM-15+0011LGRP V0202701N007212200019N0112651N1+01801+01201999999ADDGA1021+006009999GF102991999999999999999999MA1101801999999MW1001REMMET051LGRP 111250Z 27014KT 9999 FEW020 18/12 Q1018 NOSIG;EQDQ01+000000PRSWM2
0168167490999992000031514504+36400+028080FM-15+0011LGRP V0202701N003612200019N0112651N1+01501+01101999999ADDGA1021+006009999GA2021+024009999GF104991999999999999999999MA1101901999999MW1001REMMET058LGRP 151450Z 27007KT 9999 FEW020 SCT080 15/11 Q1019 NOSIG;EQDQ01+000000PRSWM2
0213167490999992000032202504+36400+028080FM-15+0011LGRP V0209999C000010240019N0090001N1+01001+00801999999ADDGA1021+003009999GA2021+006009029GA3081+024009999GF108991999999999999999999MA1101191999999MW1631REMMET071LGRP 220250Z 00000KT 9000 RA SCT010 SCT020TCU OVC080 10/08 Q1012 NOSIG;EQDQ01+000003PRSWM1Q02    003PRSWM1
0097167490999992000032411504+36400+028080FM-15+0011LGRP V0202601N00821220001CN0099001N1+01701+01001999999ADDMA1101291999999MW1001REMMET045LGRP 241150Z 26016KT CAVOK 17/10 Q1013 NOSIG;EQDQ01+000000PRSWM2
0097167490999992000032600504+36400+028080FM-15+0011LGRP V0209999C00001220001CN0099001N1+01301+01101999999ADDMA1102001999999MW1001REMMET045LGRP 260050Z 00000KT CAVOK 13/11 Q1020 NOSIG;EQDQ01+000000PRSWM2
0097167490999992000032602504+36400+028080FM-15+0011LGRP V0209999C00001220001CN0099001N1+01101+00901999999ADDMA1102001999999MW1001REMMET045LGRP 260250Z 00000KT CAVOK 11/09 Q1020 NOSIG;EQDQ01+000000PRSWM2
0221167490999992000040421004+36400+028080FM-12+0011LGRP V0200501N003110240019N0100001N1+01681+01541101581ADDGA1021+006009089GA2081+024009049GF108991021021008001011999MA1999999101461MD1010031+9999REMSYN122AAXX  04214 16749 42560 80506 10168 20154 30146 40158 50003 8221/ 333 82820 88458 91112 555 40000 47643 44230 50000 50160;
0257167490999992000040500004+36400+028080FM-12+0011LGRP V0201001N002110240019N0100001N1+01641+01471101511ADDAA199000091GA1021+006009089GA2081+024009049GF108991021021008001011999MA1999999101381MD1610081+9999REMSYN128AAXX  05004 16749 32560 81004 10164 20147 30138 40151 56008 8221/ 333 82820 88458 90730 91112 555 40000 47639 44240 50000 50154;EQDQ01  00002PRCP99
0097167490999992000040820504+36400+028080FM-15+0011LGRP V0203101N004112200019N0112651N1+01401+01001999999ADDMA1101291999999MW1001REMMET045LGRP 082050Z 31008KT 9999 =:5020 14/10 Q1013;EQDQ01+000000PRSWM2
0191167490999992000041904504+36400+028080FM-15+0011LGRP V0209999C000010240019N0112651N1+01501+01301999999ADDGA1021+006009999GA2021+009009999GA3081+024009999GF108991999999999999999999MA1099591999999MW1001REMMET065LGRP 190450Z 00000KT 9999 FEW020 SCT030 OVC080 15/13 Q0996 NOSIG;EQDQ01+000000PRSWM2
0194167490999992000042005504+36400+028080FM-15+0011LGRP V0209999C000010090019N0112651N1+01601+01401999999ADDGA1021+006009029GA2071+009009999GA3071+024009999GF107991999999999999999999MA1100001999999MW1001REMMET068LGRP 200550Z 00000KT 9999 FEW020TCU BKN030 BKN080 16/14 Q1000 NOSIG;EQDQ01+000000PRSWM2
0145167490999992000042502504+36400+028080FM-15+0011LGRP V0201101N002112200019N0090001N1+01601+01401999999ADDGA1021+006009999GF102991999999999999999999MA1101391999999MW1001REMMET051LGRP 250250Z 11004KT 9000 FEW020 16/14 Q1014 NOSIG;EQDQ01+000000PRSWM2
0145167490999992000050100504+36400+028080FM-15+0011LGRP V0202101N001512200019N0112651N1+01601+01201999999ADDGA1021+006009999GF102991999999999999999999MA1101391999999MW1001REMMET051LGRP 010050Z 21003KT 9999 FEW020 16/12 Q1014 NOSIG;EQDQ01+000000PRSWM2
0191167490999992000050203504+36400+028080FM-15+0011LGRP V02099999999990240019N0112651N1+01501+01301999999ADDGA1021+006009999GA2071+024009999GA3081+054009999GF108991999999999999999999MA1101191999999MW1001REMMET065LGRP 020350Z 00000(T 9999 FEW020 BKN080 OVC180 15/13 Q1012 NOSIG;EQDQ01+000000PRSWM2
0217167490999992000050400504+36400+028080FM-15+0011LGRP V0202401N00261009001CN0112651N1+01701+01601999999ADDGA1021+003009999GA2021+006009029GA3021+009009999GA4071+024009999GF107991999999999999999999MA1100711999999MW1001REMMET075LGRP 040050Z 24005KT 9999 FEW010 FEW020TCU SCT030 BKN080 17/16 Q1007 NOSIG;EQDQ01+000000PRSWM2
0194167490999992000050405504+36400+028080FM-15+0011LGRP V0202201N002110240019N0112651N1+01701+01501999999ADDGA1021+005409029GA2021+007509999GA3071+024009999GF107991999999999999999999MA1100711999999MW1001REMMET068LGRP 040550Z 22004KT 9999 FEW018TCU SCT025 BKN080 17/15 Q1007 NOSIG;EQDQ01+000000PRSWM2
0097167490999992000050704204+36400+028080FM-15+0011LGRP V0202301N00361220001CN0099001N1+01601+01201999999ADDMA1101591999999MW1001REMMET045LGRP 070420Z 23007KT CAVOK 16/12 Q1016 NOSIG;EQDQ01+000000PRSWM2
0223167490999992000051112004+36400+028080FM-12+0011LGRP V0202501N003612200019N0100001N1+02501+01621101591ADDAA199000091GA1001+999999999GF100991001001999999001001MA1999999101461MD1710111+9999REMSYN110AAXX  11124 16749 32960 02507 10250 20162 30146 40159 57011 333 90730 91116 555 40000 47646 44250 50000 50196;EQDQ01  00002PRCP99
0097167490999992000051123504+36400+028080FM-15+0011LGRP V0202401N00211220001CN0099001N1+02101+01501999999ADDMA1101391999999MW1001REMMET045LGRP 112350Z 24004KT CAVOK 21/15 Q1014 NOSIG;EQDQ01+000000PRSWM2
0097167490999992000052814504+36400+028080FM-15+0011LGRP V0202501N00411220001CN0099001N1+02401+02201999999ADDMA1101081999999MW1001REMMET045LGRP 281450Z 25008KT CAVOK 24/22 Q1011 NOSIG;EQDQ01+000000PRSWM2
0104167490999992000060612504+36400+028080FM-15+0011LGRP V0202501N00671220001CN0099001N1+02401+02301999999ADDMA1100711999999MW1001REMMET052LGRP 061250Z 25013KT CAVOK 24/23 Q1007 NOSIG FEW080;EQDQ01+000000PRSWM2
0187167490999992000061015004+36400+028080FM-12+0011LGRP V0202501N007212200019N0100001N1+02701+01971101131ADDGA1001+999999999GF100991001001999999001001MA1999999101001MD1710111+9999REMSYN104AAXX  10154 16749 42960 02514 10270 20197 30100 40113 57011 333 91117 555 40000 47610 44245 50000 50222;
0145167490999992000061117504+36400+028080FM-15+0011LGRP V0202401N005712200019N0112651N1+02501+01701999999ADDGA1021+006009999GF102991999999999999999999MA1101081999999MW1001REMMET051LGRP 111750Z 24011KT 9999 FEW020 25/17 Q1011 NOSIG;EQDQ01+000000PRSWM2
0097167490999992000061705504+36400+028790FM-15+0011LGRP V0202401N00571220001CN0099001N1+02401+02001999999ADDMA1100611999999MW1001REMMET045LGRP 170550Z 24011KT CAVOK 24/20 Q1006 NOSIG;EQDQ01+000000PRSWM2
0284167490999992000062006004+36400+028790FM-12+0011LGRP V0203201N003112200019N0200001N1+02181+00371101331ADDAA199000091GA1001+999999999GF100991001001999999001001KA1120N+02081MA1999999101191MD1310081+9999REMSYN158AAXX  20064 16749 32970 03206 10218 20037 30119 40133 53008 333 20208 30/// 55133 90730 91110 555 10000 30246 20000 89037 99056 40000 47625 44240 50000 50130;EQDQ01  00002PRCP99
0097167490999992000070111504+36400+028790FM-15+0011LGRP V0202401N00871220001CN0099001N1+02801+01901999999ADDMA1101021999999MW1001REMMET045LGRP 011150Z 24017KT CAVOK 28/19 Q1010 NOSIG;EQDQ01+000000PRSWM2
0223167490999992000070200004+36400+028790FM-12+0011LGRP V0202401N004612200019N0100001N1+02381+01601100961ADDAA199000091GA1001+999999999GF100991001001999999001001MA1999999100821MD1810061+9999REMSYN110AAXX  02004 16749 32960 02409 10238 20160 30082 40096 58006 333 90730 91114 555 40000 47595 44225 50000 50190;EQDQ01  00002PRCP99
0097167490999992000070315504+36400+028790FM-15+0011LGRP V0202401N00721220001CN0099001N1+02901+01901999999ADDMA1100611999999MW1001REMMET045LGRP 031550Z 24014KT CAVOK 29/19 Q1006 NOSIG;EQDQ01+000000PRSWM2
0097167490999992000070614504+36400+028790FM-15+0011LGRP V0202401N00771220001CN0099001N1+03601+01601999999ADDMA1100311999999MW1001REMMET045LGRP 061450Z 24015KT CAVOK 36/16 Q1003 NOSIG;EQDQ01+000000PRSWM2
0097167490999992000071805504+36400+028070FM-15+0011LGRP V0202601N00571220001CN0099001N1+02701+02001999999ADDMA1100611999999MW1001REMMET045LGRP 180550Z 26011KT CAVOK 27/20 Q1006 NOSIG;EQDQ01+000000PRSWM2
0097167490999992000072011504+36400+028070FM-15+0011LGRP V0202501N00771220001CN0099001N1+02801+01901999999ADDMA1100101999999MW1001REMMET045LGRP 201150Z 25015KT CAVOK 28/19 Q1001 NOSIG;EQDQ01+000000PRSWM2
0097167490999992000072220504+36400+028070FM-15+0011LGRP V0202301N00511220001CN0099001N1+02301+02001999999ADDMA1101021999999MW1001REMMET045LGRP 222050Z 23010KT CAVOK 23/20 Q1010 NOSIG;EQDQ01+000000PRSWM2
0254167490999992000072318004+36400+028070FM-12+0011LGRP V0202401N006212200019N0100001N1+02641+01901100961ADDAA199000091GA1001+999999999GF100991001001999999001001KA1120M+02801MA1999999100821MD1410001+9999REMSYN128AAXX  23184 16749 32960 02412 10264 20190 30082 40096 54000 333 10280 90730 91118 555 10000 40242 40000 47598 44250 50000 50216;EQDQ01  00002PRCP99
0187167490999992000072403004+36400+028070FM-12+0011LGRP V0202401N004112200019N0100001N1+02521+01651100861ADDGA1001+999999999GF100991001001999999001001MA1999999100731MD1810041+9999REMSYN104AAXX  24034 16749 42960 02408 10252 20165 30073 40086 58004 333 91110 555 40000 47589 44235 50000 50198;
0097167490999992000072504504+36400+028070FM-15+0011LGRP V0202201N00211220001CN0099001N1+02801+01601999999ADDMA1100711999999MW1001REMMET045LGRP 250450Z 22004KT CAVOK 28/16 Q1007 NOSIG;EQDQ01+000000PRSWM2
0097167490999992000080813504+36400+028070FM-15+0011LGRP V0202601N00671220001CN0099001N1+02801+02301999999ADDMA1100911999999MW1001REMMET045LGRP 081350Z 26013KT CAVOK 28/23 Q1009 NOSIG;EQDQ01+000000PRSWM2
0145167490999992000080903504+36400+028070FM-15+0011LGRP V0202301N005112200019N0112651N1+02401+02101999999ADDGA1021+004509999GF102991999999999999999999MA1100811999999MW1001REMMET051LGRP 090350Z 23010KT 9999 FEW015 24/21 Q1008 NOSIG;EQDQ01+000000PRSWM2
0097167490999992000080922504+36400+028070FM-15+0011LGRP V0202301N00571220001CN0099001N1+02501+02401999999ADDMA1100811999999MW1001REMMET045LGRP 092250Z 23011KT CAVOK 25/24 Q1008 NOSIG;EQDQ01+000000PRSWM2
0187167490999992000082103004+36400+028070FM-12+0011LGRP V0209999C000012200019N0100001N1+02361+01991100611ADDGA1001+999999999GF100991001001999999001001MA1999999100471MD1610061+9999REMSYN104AAXX  21034 16749 42960 00000 10236 20199 30047 40061 56006 333 91106 555 40000 47572 44250 50000 50212;
0097167490999992000082323504+36400+028070FM-15+0011LGRP V0202401N00621220001CN0099001N1+02401+02301999999ADDMA1100811999999MW1001REMMET045LGRP 232350Z 24012KT CAVOK 24/23 Q1008 NOSIG;EQDQ01+000000PRSWM2
0097167490999992000090200504+36400+028070FM-15+0011LGRP V0202401N00411220001CN0099001N1+02401+02001999999ADDMA1100811999999MW1001REMMET045LGRP 020050Z 24008KT CAVOK 24/20 Q1008 NOSIG;EQDQ01+000000PRSWM2
0098167490999992000090818504+36400+028070FM-15+0011LGRP V0202201N00311220001CN0099001N1+02201+01601999999ADDMA1101591999999MW1001REMMET046LGRP 081850Z 22006KT CAVOK 22/16 Q1016 FEW080;EQDQ01+000000PRSWM2
0097167490999992000091003504+36400+028070FM-15+0011LGRP V0202701N00361220001CN0099001N1+02401+02001999999ADDMA1101491999999MW1001REMMET045LGRP 100350Z 27007KT CAVOK 24/20 Q1015 NOSIG;EQDQ01+000000PRSWM2
0097167490999992000091114504+36400+028070FM-15+0011LGRP V0202401N01031220001CN0099001N1+02601+02201999999ADDMA1100711999999MW1001REMMET045LGRP 111450Z 24020KT CAVOK 26/22 Q1007 NOSIG;EQDQ01+000000PRSWM2
0097167490999992000091215504+36400+028070FM-15+0011LGRP V0202501N00771220001CN0099001N1+02401+02201999999ADDMA1100611999999MW1001REMMET045LGRP 121550Z 25015KT CAVOK 24/22 Q1006 NOSIG;EQDQ01+000000PRSWM2
0145167490999992000091501504+36400+028070FM-15+0011LGRP V0202201N003612200019N0112651N1+02201+02101999999ADDGA1021+006009999GF102991999999999999999999MA1101081999999MW1001REMMET051LGRP 150150Z 22007KT 9999 FEW020 22/21 Q1011 NOSIG;EQDQ01+000000PRSWM2
0145167490999992000091522504+36400+028070FM-15+0011LGRP V0202201N004112200019N0112651N1+02301+01801999999ADDGA1021+006009999GF102991999999999999999999MA1101081999999MW1001REMMET051LGRP 152250Z 22008KT 9999 FEW020 23/18 Q1011 NOSIG;EQDQ01+000000PRSWM2
0145167490999992000091605504+36400+028070FM-15+0011LGRP V0202301N003612200019N0112651N1+02401+02001999999ADDGA1021+006009999GF102991999999999999999999MA1101021999999MW1001REMMET051LGRP 160550Z 23007KT 9999 FEW020 24/20 Q1010 NOSIG;EQDQ01+000000PRSWM2
0126167490999992000091810504+36400+028070FM-15+0011LGRP V0202601N007212200019N0080001N1+02601+02301999999ADDGF100991999999999999999999MA1101391999999MW1001REMMET048LGRP 181050Z 26014KT 8000 SKC 26/23 Q1014 NOSIG;EQDQ01+000000PRSWM2
0126167490999992000091811504+36400+028070FM-15+0011LGRP V0202601N006212200019N0080001N1+02601+02201999999ADDGF100991999999999999999999MA1101391999999MW1001REMMET048LGRP 181150Z 26012KT 8000 SKC 26/22 Q1014 NOSIG;EQDQ01+000000PRSWM2
0099167490999992000091820504+36400+028070FM-15+0011LGRP V0202301N004612200019N0080001N1+02301+02201999999ADDMA1101391999999MW1001REMMET047LGRP 182050Z 23009KT 8000 KC 23/22 Q1014 NOSIG;EQDQ01+000000PRSWM2
0145167490999992000092321504+36400+028070FM-15+0011LGRP V0202301N003112200019N0112651N1+02301+02201999999ADDGA1021+003609999GF102991999999999999999999MA1101081999999MW1001REMMET051LGRP 232150Z 23006KT 9999 FEW012 23/22 Q1011 NOSIG;EQDQ01+000000PRSWM2
0097167490999992000092503504+36400+028070FM-15+0011LGRP V0203001N00571220001CN0099001N1+02301+01801999999ADDMA1101191999999MW1001REMMET045LGRP 250350Z 30011KT CAVOK 23/18 Q1012 NOSIG;EQDQ01+000000PRSWM2
0097167490999992000092514504+36400+028070FM-15+0011LGRP V0202801N00871220001CN0099001N1+02501+01801999999ADDMA1101191999999MW1001REMMET045LGRP 251450Z 28017KT CAVOK 25/18 Q1012 NOSIG;EQDQ01+000000PRSWM2
0177167490999992000092715004+36400+028070FM-12+0011LGRP V0202601N005112200019N0150001N1+02421+01371100841ADDGF102991011021008001001011MA1999999100711MD1610041+9999REMSYN110AAXX  27154 16749 42565 22610 10242 20137 30071 40084 56004 81201 333 91117 555 40000 47595 44290 50000 50180;
0097167490999992000093014504+36400+028070FM-15+0011LGRP V0202501N00461220001CN0099001N1+02501+01701999999ADDMA1101691999999MW1001REMMET045LGRP 301450Z 25009KT CAVOK 25/17 Q1017 NOSIG;EQDQ01+000000PRSWM2
0097167490999992000100100504+36400+028070FM-15+0011LGRP V0202001N00211220001CN0099001N1+02101+01601999999ADDMA1101801999999MW1001REMMET045LGRP 010050Z 20004KT CAVOK 21/16 Q1018 NOSIG;EQDQ01+000000PRSWM2
0097167490999992000100318504+36400+028070FM-15+0011LGRP V0209999C00001220001CN0099001N1+02201+01801999999ADDMA1101291999999MW1001REMMET045LGRP 031850Z 00000KT CAVOK 22/18 Q1013 NOSIG;EQDQ01+000000PRSWM2
0145167490999992000100609504+36400+028070FM-15+0011LGRP V0202701N004612200019N0112651N1+02501+02201999999ADDGA1021+006009999GF102991999999999999999999MA1101191999999MW1001REMMET051LGRP 060950Z 27009KT 9999 FEW020 25/22 Q1012 NOSIG;EQDQ01+000000PRSWM2
0145167490999992000101106504+36400+028070FM-15+0011LGRP V0202901N001512200019N0112651N1+02201+01801999999ADDGA1021+006009999GF102991999999999999999999MA1101491999999MW1001REMMET051LGRP 110650Z 29003KT 9999 FEW020 22/18 Q1015 NOSIG;EQDQ01+000000PRSWM2
0139167490999992000101109504+36400+028070FM-15+0011LGRP V0202601N004612200019N0112651N1+02301+01701999999ADDGA1021+006009999GF102991999999999999999999MA1101491999999MW1001REMMET045LGRP 110950Z 26009KT 9999 FEW020 23/17 Q1015;EQDQ01+000000PRSWM2
0187167490999992000101621004+36400+028070FM-12+0011LGRP V0209999C000012200019N0100001N1+02041+01821101911ADDGA1001+999999999GF100991001001999999001001MA1999999101781MD1110051+9999REMSYN104AAXX  16214 16749 42960 00000 10204 20182 30178 40191 51005 333 91108 555 40000 47669 44240 50000 50190;
0177167490999992000101709004+36400+028070FM-12+0011LGRP V0202501N005712200019N0100001N1+02301+01931101871ADDGF102991011011008001001011MA1999999101741MD1110011+9999REMSYN110AAXX  17094 16749 42560 22511 10230 20193 30174 40187 51001 81101 333 91116 555 40000 47666 44240 50000 50206;
0097167490999992000102300504+36400+028070FM-15+0011LGRP V0200101N00621220001CN0099001N1+01601+00801999999ADDMA1101691999999MW1001REMMET045LGRP 230050Z 01012KT CAVOK 16/08 Q1017 NOSIG;EQDQ01+000000PRSWM2
0284167490999992000102506004+36400+028070FM-12+0011LGRP V0203401N005712200019N0100001N1+01741+00991101541ADDAA199000091GA1001+999999999GF100991001001999999001001KA1120N+01661MA1999999101411MD1310031+9999REMSYN158AAXX  25064 16749 32960 03411 10174 20099 30141 40154 53003 333 20166 30/// 55093 90730 91114 555 10000 30180 20000 89053 99071 40000 47641 44240 50000 50134;EQDQ01  00002PRCP99
0168167490999992000110109504+36400+028070FM-15+0011LGRP V0202601N004612200019N0112651N1+02101+01701999999ADDGA1021+006009999GA2021+054009999GF104991999999999999999999MA1101901999999MW1001REMMET058LGRP 010950Z 26009KT 9999 FEW020 SCT180 21/17 Q1019 NOSIG;EQDQ01+000000PRSWM2
0097167490999992000110517204+36400+028070FM-15+0011LGRP V0209999C00001220001CN0099001N1+02001+01601999999ADDMA1101901999999MW1001REMMET045LGRP 051720Z 00000KT CAVOK 20/16 Q1019 NOSIG;EQDQ01+000000PRSWM2
0097167490999992000110922504+36400+028070FM-15+0011LGRP V0202301N00361220001CN0099001N1+02101+01301999999ADDMA1102101999999MW1001REMMET045LGRP 092250Z 23007KT CAVOK 21/13 Q1021 NOSIG;EQDQ01+000000PRSWM2
0097167490999992000111213504+36400+028070FM-15+0011LGRP V0202401N00571220001CN0099001N1+02201+01901999999ADDMA1101801999999MW1001REMMET045LGRP 121350Z 24011KT CAVOK 22/19 Q1018 NOSIG;EQDQ01+000000PRSWM2
0097167490999992000111220504+36400+028070FM-15+0011LGRP V0202701N00361220001CN0099001N1+02101+01501999999ADDMA1101691999999MW1001REMMET045LGRP 122050Z 27007KT CAVOK 21/15 Q1017 NOSIG;EQDQ01+000000PRSWM2
0097167490999992000111709504+36400+028070FM-15+0011LGRP V0200401N00571220001CN0099001N1+02201+01701999999ADDMA1102001999999MW1001REMMET045LGRP 170950Z 04011KT CAVOK 22/17 Q1020 NOSIG;EQDQ01+000000PRSWM2
0145167490999992000112115504+36400+028070FM-15+0011LGRP V0202101N001512200019N0112651N1+01801+01701999999ADDGA1021+006009999GF102991999999999999999999MA1101801999999MW1001REMMET051LGRP 211550Z 21003KT 9999 FEW020 18/17 Q1018 NOSIG;EQDQ01+000000PRSWM2
0194167490999992000112720504+36400+028070FM-15+0011LGRP V0201901N003110240019N0112651N1+01601+01301999999ADDGA1021+005409029GA2021+009009999GA3071+024009999GF107991999999999999999999MA1100411999999MW1001REMMET068LGRP 272050Z 19006KT 9999 FEW018TCU SCT030 BKN080 16/13 Q1004 NOSIG;EQDQ01+000000PRSWM2
0194167490999992000112822504+36400+028070FM-15+0011LGRP V0209999C000010240019N0112651N1+01401+01301999999ADDGA1021+005409029GA2021+009009999GA3071+024009999GF107991999999999999999999MA1100411999999MW1001REMMET068LGRP 282250Z 00000KT 9999 FEW018TCU SCT030 BKN080 14/13 Q1004 NOSIG;EQDQ01+000000PRSWM2
0091167490999992000120102204+36400+028070FM-15+0011LGRP V0209999C00001220001CN0099001N1+01501+01201999999ADDMA1101801999999MW1001REMMET039LGRP 010220Z 00000KT CAVOK 15/12 Q1018;EQDQ01+000000PRSWM2
0145167490999992000120322504+36400+028070FM-15+0011LGRP V0202001N001512200019N0112651N1+01501+01401999999ADDGA1021+006009999GF102991999999999999999999MA1102201999999MW1001REMMET051LGRP 032250Z 20003KT 9999 FEW020 15/14 Q1022 NOSIG;EQDQ01+000000PRSWM2
0139167490999992000120623504+36400+028070FM-15+0011LGRP V0209999C000012200019N0112651N1+01501+01401999999ADDGA1021+006009999GF102991999999999999999999MA1101801999999MW1001REMMET045LGRP 062350Z 00000KT 9999 FEW020 15/14 Q1018;EQDQ01+000000PRSWM2
0097167490999992000120823504+36400+028070FM-15+0011LGRP V0209999C00001220001CN0099001N1+01401+00701999999ADDMA1101591999999MW1001REMMET045LGRP 082350Z 00000KT CAVOK 14/07 Q1016 NOSIG;EQDQ01+000000PRSWM2
0254167490999992000120918004+36400+028070FM-12+0011LGRP V0203501N002612200019N0100001N1+01541+00591101841ADDAA199000091GA1001+999999999GF100991001001999999001001KA1120M+01701MA1999999101701MD1210081+9999REMSYN128AAXX  09184 16749 32960 03505 10154 20059 30170 40184 52008 333 10170 90730 91110 555 10000 40120 40000 47661 44220 50000 50108;EQDQ01  00002PRCP99
0097167490999992000121203504+36400+028070FM-15+0011LGRP V0203001N00931220001CN0099001N1+01401+01001999999ADDMA1101591999999MW1001REMMET045LGRP 120350Z 30018KT CAVOK 14/10 Q1016 NOSIG;EQDQ01+000000PRSWM2
0097167490999992000121322204+36400+028070FM-15+0011LGRP V0203301N00411220001CN0099001N1+01501+00901999999ADDMA1101491999999MW1001REMMET045LGRP 132220Z 33008KT CAVOK 15/09 Q1015 NOSIG;EQDQ01+000000PRSWM2
0178167490999992000122705504+36400+028070FM-15+0011LGRP V0201401N002110060019N0112651N1+01601+01601999999ADDGA1021+004509029GA2071+006009999GF107991999999999999999999MA1101901999999MW1001REMMET068LGRP 270550Z 14004KT 9999 FEW015TCU BKN020 16/16 Q1019 NOSIG FEW080;EQDQ01+000000PRSWM2
0279167490999992000122812004+36400+028070FM-12+0011LGRP V0200901N004610240019N0100001N1+01701+01531101761ADDAA199000091GA1021+005409089GA2041+007509069GA3061+024009039GF107991041081004501071001MA1999999101621MD1810181+9999REMSYN134AAXX  28124 16749 32460 70909 10170 20153 30162 40176 58018 84870 333 82818 84625 86358 90730 91120 555 40000 47656 44230 50000 50160;EQDQ01  00002PRCP99
0221167540999992000010803004+35330+025180FM-12+0039LGIR V0200101N007210090019N0150001N1+00961+00261102171ADDGA1031+006009089GA2041+009009069GF105991051081008001001001MA1999999101681MD1410001+9999REMSYN122AAXX  08034 16754 42565 50114 10096 20026 30168 40217 54000 85800 333 83820 84630 91119 555 40000 47657 44190 50000 50066;
0166167540999992000011305504+35330+025180FM-15+0039LGIR V0200151N006210090019N0112651N1+01101+00301999999ADDGD12991+0060099GD23991+0090099GF107991999999999999999999MA1102611999999MW1001REMMET058LGIR 130550Z 01512KT 9999 SCT020 BKN030 11/03 Q1026 NOSIG;EQDQ01+000000PRSWM2
0186167540999992000011422204+35330+025180FM-15+0039LGIR V0201001N007210300019N0112651N1+01101+00501999999ADDGD12991+0060099GD24991+0300099GF108991999999999999999999MA1101691999999MW1611REMMET062LGIR 142220Z 10014KT 9999 -RA SCT020 OVC100 11/05 Q1017 NOSIG;EQDQ01+000003PRSWM1Q02    003PRSWM1
0208167540999992000011515504+35330+025180FM-15+0039LGIR V0200701N013410060019N0050001N1+01201+01201999999ADDGD12991+0030099GD23991+0060099GD33991+0270099GF107991999999999999999999MA1101491999999MW1611REMMET069LGIR 151550Z 07026KT 5000 -RA SCT010 BKN020 BKN090 12/12 Q1015 NOSIG;EQDQ01+000003PRSWM1Q02    003PRSWM1
0144167540999992000011907504+35330+025180FM-15+0039LGIR V0203001N002612200019N0112651N1+01601+00701999999ADDGD12991+0075099GF102991999999999999999999MA1100511999999MW1001REMMET051LGIR 190750Z 30005KT 9999 FEW025 16/07 Q1005 NOSIG;EQDQ01+000000PRSWM2
0188167540999992000012003504+35330+025180FM-15+0039LGIR V0203501N008210075019N0112651N1+00901+00401999999ADDGD12991+0045099GD23991+0075099GD33991+0210099GF107991999999999999999999MA1101081999999MW1001REMMET065LGIR 200350Z 35016KT 9999 FEW015 BKN025 BKN070 09/04 Q1011 NOSIG;EQDQ01+000000PRSWM2
0166167540999992000012401504+35330+025180FM-15+0039LGIR V0202201N005712200019N0112651N1+01301+00601999999ADDGD12991+0060099GD22991+0090099GF104991999999999999999999MA1101081999999MW1001REMMET058LGIR 240150Z 22011KT 9999 FEW020 SCT030 13/06 Q1011 NOSIG;EQDQ01+000000PRSWM2
0144167540999992000012412504+35330+025180FM-15+0039LGIR V0202001N006212200019N0112651N1+01701+00601999999ADDGD12991+0060099GF104991999999999999999999MA1100811999999MW1001REMMET051LGIR 241250Z 20012KT 9999 SCT020 17/06 Q1008 NOSIG;EQDQ01+000000PRSWM2
0144167540999992000020611504+35330+025180FM-15+0039LGIR V0203101N006212200019N0112651N1+01401+00401999999ADDGD12991+0060099GF102991999999999999999999MA1102401999999MW1001REMMET051LGIR 061150Z 31012KT 9999 FEW020 14/04 Q1024 NOSIG;EQDQ01+000000PRSWM2
0166167540999992000021316504+35330+025180FM-15+0039LGIR V0203401N004112200019N0112651N1+01401+00701999999ADDGD12991+0060099GD22991+0075099GF104991999999999999999999MA1101801999999MW1001REMMET058LGIR 131650Z 34008KT 9999 FEW020 SCT025 14/07 Q1018 NOSIG;EQDQ01+000000PRSWM2
0166167540999992000021323504+35330+025180FM-15+0039LGIR V0201901N002612200019N0112651N1+00901+00701999999ADDGD12991+0060099GD22991+0075099GF104991999999999999999999MA1101801999999MW1001REMMET058LGIR 132350Z 19005KT 9999 FEW020 SCT025 09/07 Q1018 NOSIG;EQDQ01+000000PRSWM2
0138167540999992000021700504+35330+025180FM-15+0039LGIR V0201601N004112200019N0112651N1+01001+00401999999ADDGD12991+0060099GF102991999999999999999999MA1101591999999MW1001REMMET045LGIR 170050Z 16008KT 9999 FEW020 10/04 Q1016;EQDQ01+000000PRSWM2
0188167540999992000021722504+35330+025180FM-15+0039LGIR V0202001N010310240019N0112651N1+01501+00701999999ADDGD12991+0060099GD22991+0090099GD33991+0240099GF107991999999999999999999MA1100911999999MW1001REMMET065LGIR 172250Z 20020KT 9999 FEW020 SCT030 BKN080 15/07 Q1009 NOSIG;EQDQ01+000000PRSWM2
0212167540999992000022201504+35330+025180FM-15+0039LGIR V0202501N009810075019N0112651N1+00801+00501999999ADDGA1999+004509099GD12991+0045099GD23991+0075099GF107991999999999999999999MA1101391999999MW1171MW2611REMMET066LGIR 220150Z 25019KT 9999 TS-RA FEW015CB BKN025 08/05 Q1014 NOSIG;EQDQ01+000003PRSWM1Q02    003PRSWM1
0244167540999992000030118004+35330+025180FM-12+0039LGIR V0201901N003112200019N0150001N1+00881+00041102311ADDAA199000091GF101991011011008001001001KA1120M+01221MA1999999101821MD1410001+9999REMSYN134AAXX  01184 16754 32565 11906 10088 20004 30182 40231 54000 81100 333 10122 90730 91116 555 10000 40088 40000 47669 44210 50000 50054;EQDQ01  00002PRCP99
0144167540999992000030720504+35330+025180FM-15+0039LGIR V0201801N002612200019N0112651N1+00501+00001999999ADDGD12991+0060099GF102991999999999999999999MA1102711999999MW1001REMMET051LGIR 072050Z 18005KT 9999 FEW020 05/00 Q1027 NOSIG;EQDQ01+000000PRSWM2
0324167540999992000030806004+35330+025180FM-12+0039LGIR V0201701N002610075019N0150001N1+00741+00311102601ADDAA199000091GA1021+006009089GA2061+007509069GF107991071081008001001001KA1120N+00461MA1999999102101MD1310041+9999REMSYN182AAXX  08064 16754 32565 71705 10074 20031 30210 40260 53004 87800 333 20046 30/// 50300 55069 82820 86625 90730 91107 555 10000 30084 20000 89033 99069 40000 47690 44210 50000 50056;EQDQ01  00002PRCP99
0144167540999992000030809504+35330+025180FM-15+0039LGIR V0203501N004612200019N0112651N1+01401+00501999999ADDGD12991+0075099GF102991999999999999999999MA1102611999999MW1001REMMET051LGIR 080950Z 35009KT 9999 FEW025 14/05 Q1026 NOSIG;EQDQ01+000000PRSWM2
0138167540999992000031102204+35330+025180FM-15+0039LGIR V0202401N003112200019N0112651N1+01301+00701999999ADDGD12991+0075099GF102991999999999999999999MA1101901999999MW1001REMMET045LGIR 110220Z 24006KT 9999 FEW025 13/07 Q1019;EQDQ01+000000PRSWM2
0166167540999992000031313504+35330+025180FM-15+0039LGIR V0203201N004610075019N0112651N1+01501+01301999999ADDGD12991+0060099GD23991+0075099GF107991999999999999999999MA1102101999999MW1001REMMET058LGIR 131350Z 32009KT 9999 SCT020 BKN025 15/13 Q1021 NOSIG;EQDQ01+000000PRSWM2
0166167540999992000031422504+35330+025180FM-15+0039LGIR V0201801N003110540019N0112651N1+00801+00401999999ADDGD12991+0060099GD23991+0540099GF107991999999999999999999MA1102201999999MW1001REMMET058LGIR 142250Z 18006KT 9999 FEW020 BKN180 08/04 Q1022 NOSIG;EQDQ01+000000PRSWM2
0166167540999992000031501504+35330+025180FM-15+0039LGIR V0201701N003110540019N0112651N1+00701+00301999999ADDGD12991+0060099GD23991+0540099GF107991999999999999999999MA1102101999999MW1001REMMET058LGIR 150150Z 17006KT 9999 FEW020 BKN180 07/03 Q1021 NOSIG;EQDQ01+000000PRSWM2
0166167540999992000032117504+35330+025180FM-15+0039LGIR V0202901N005712200019N0112651N1+01301+00501999999ADDGD12991+0060099GD22991+0090099GF104991999999999999999999MA1101591999999MW1001REMMET058LGIR 211750Z 29011KT 9999 FEW020 SCT030 13/05 Q1016 NOSIG;EQDQ01+000000PRSWM2
0144167540999992000032601504+35330+025180FM-15+0039LGIR V02099999999992200019N0099001N1+00701+00501999999ADDGD12991+0075099GF102991999999999999999999MA1102001999999MW1001REMMET051LGIR 260150Z 16005 T 9999 FEW025 07/05 Q1020 NOSIG;EQDQ01+000000PRSWM2
0244167540999992000032718004+35330+025180FM-12+0039LGIR V0201701N010319999999N0200001N1+01721+00411101511ADDAA199000091GF107991071001999999071999KA1120M+02201MA1999999101051MD1710211+9999REMSYN134AAXX  27184 16754 32970 71720 10172 20041 30105 40151 57021 8707/ 333 10220 90730 91127 555 10000 40140 40000 47611 44210 50000 50110;EQDQ01  00002PRCP99
0098167540999992000033000204+35330+025180FM-15+0039LGIR V0201801N00671220001CN0099001N1+02101+00001999999ADDMA1101591999999MW1001REMMET046LGIR 300020Z 18013KT CAVOK 21/M00 Q1016 NOSIG;EQDQ01+000000PRSWM2
0097167540999992000040222504+35330+025180FM-15+0039LGIR V0201901N00211220001CN0099001N1+01301+00901999999ADDMA1101191999999MW1001REMMET045LGIR 022250Z 19004KT CAVOK 13/09 Q1012 NOSIG;EQDQ01+000000PRSWM2
0097167540999992000040311504+35330+025180FM-15+0039LGIR V0200701N00411220001CN0099001N1+01901+01201999999ADDMA1101391999999MW1001REMMET045LGIR 031150Z 07008KT CAVOK 19/12 Q1014 NOSIG;EQDQ01+000000PRSWM2
0144167540999992000040618504+35330+025180FM-15+0039LGIR V0202501N005112200019N0112651N1+01601+00701999999ADDGD12991+0060099GF102991999999999999999999MA1101491999999MW1001REMMET051LGIR 061850Z 25010KT 9999 FEW020 16/07 Q1015 NOSIG;EQDQ01+000000PRSWM2
0144167540999992000040901504+35330+025180FM-15+0039LGIR V0203201N003612200019N0112651N1+01301+00601999999ADDGD12991+0060099GF102991999999999999999999MA1101491999999MW1001REMMET051LGIR 090150Z 32007KT 9999 FEW020 13/06 Q1015 NOSIG;EQDQ01+000000PRSWM2
0261167540999992000041303004+35330+025180FM-12+0039LGIR V0202601N002612200019N0090001N1+01441+00981100641ADDAY101031AY201031GA1011+005409089GA2031+024009039GF104991011021004501071001MA1999999100171MD1210131+9999MW1101REMSYN140AAXX  13034 16754 41459 42605 10144 20098 30017 40064 52013 71000 81270 333 81818 83358 91113 555 40000 47542 44190 50000 50120 70000 776//;
0166167540999992000041905504+35330+025180FM-15+0039LGIR V0202901N003610240019N0112651N1+01701+01201999999ADDGD12991+0075099GD23991+0240099GF107991999999999999999999MA1099801999999MW1001REMMET058LGIR 190550Z 29007KT 9999 FEW025 BKN080 17/12 Q0998 NOSIG;EQDQ01+000000PRSWM2
0097167540999992000042401504+35330+025180FM-15+0039LGIR V0201801N00211220001CN0099001N1+01401+01001999999ADDMA1101081999999MW1001REMMET045LGIR 240150Z 18004KT CAVOK 14/10 Q1011 NOSIG;EQDQ01+000000PRSWM2
0166167540999992000042819504+35330+025180FM-15+0039LGIR V0203101N005110540019N0112651N1+01601+01201999999ADDGD12991+0060099GD23991+0540099GF107991999999999999999999MA1101391999999MW1001REMMET058LGIR 281950Z 31010KT 9999 FEW020 BKN180 16/12 Q1014 NOSIG;EQDQ01+000000PRSWM2
0208167540999992000050308504+35330+025180FM-15+0039LGIR V0200401N003110270019N0112651N1+01901+01701999999ADDGD12991+0036099GD22991+0075099GD33991+0270099GF107991999999999999999999MA1101081999999MW1611REMMET069LGIR 030850Z 04006KT 9999 -RA FEW012 SCT025 BKN090 19/17 Q1011 NOSIG;EQDQ01+000003PRSWM1Q02    003PRSWM1
0097167540999992000051211204+35330+025180FM-15+0039LGIR V0203301N00461220001CN0099001N1+02801+00401999999ADDMA1101491999999MW1001REMMET045LGIR 121120Z 33009KT CAVOK 28/04 Q1015 NOSIG;EQDQ01+000000PRSWM2
0177167540999992000051315004+35330+025180FM-12+0039LGIR V0203601N003112200019N0200001N1+02521+01161101411ADDGF101991001001999999001011MA1999999100961MD1710111+9999REMSYN110AAXX  13154 16754 42970 13606 10252 20116 30096 40141 57011 80001 333 91109 555 40000 47610 44260 50000 50174;
0097167540999992000051401504+35330+025180FM-15+0039LGIR V0201901N00211220001CN0099001N1+01701+00901999999ADDMA1101391999999MW1001REMMET045LGIR 140150Z 19004KT CAVOK 17/09 Q1014 NOSIG;EQDQ01+000000PRSWM2
0188167540999992000051512504+35330+025180FM-15+0039LGIR V0203501N005710540019N0112651N1+02101+01201999999ADDGD12991+0060099GD22991+0240099GD33991+0540099GF107991999999999999999999MA1101691999999MW1001REMMET065LGIR 151250Z 35011KT 9999 FEW020 SCT080 BKN180 21/12 Q1017 NOSIG;EQDQ01+000000PRSWM2
0166167540999992000051609504+35330+025180FM-15+0039LGIR V0203401N004110135019N0112651N1+02001+01301999999ADDGD12991+0024099GD23991+0135099GF107991999999999999999999MA1101391999999MW1001REMMET058LGIR 160950Z 34008KT 9999 FEW008 BKN045 20/13 Q1014 NOSIG;EQDQ01+000000PRSWM2
0221167540999992000051703004+35330+025180FM-12+0039LGIR V0203001N004112200019N0150001N1+01801+01271101191ADDGA1011+006009089GA2031+010509069GF104991031081008001041001MA1999999100731MD1610041+9999REMSYN122AAXX  17034 16754 42565 43008 10180 20127 30073 40119 56004 83840 333 81820 83635 91111 555 40000 47589 44225 50000 50150;
0177167540999992000052315004+35330+025180FM-12+0039LGIR V0203501N002612200019N0150001N1+02381+01701101281ADDGF102991021001999999081001MA1999999100831MD1610161+9999REMSYN110AAXX  23154 16754 42965 23505 10238 20170 30083 40128 56016 82080 333 91108 555 40000 47601 44255 50000 50196;
0097167540999992000052708504+35330+025180FM-15+0039LGIR V0203301N00671220001CN0099001N1+02201+01601999999ADDMA1101491999999MW1001REMMET045LGIR 270850Z 33013KT CAVOK 22/16 Q1015 NOSIG;EQDQ01+000000PRSWM2
0279167540999992000052712004+35330+025180FM-12+0039LGIR V0203301N002610600019N0150001N1+02181+01661101581ADDAA199000091GA1011+007509089GA2031+030009039GA3081+060009029GF108991011011008001051071MA1999999101111MD1110011+9999REMSYN134AAXX  27124 16754 32565 83305 10218 20166 30111 40158 51001 81157 333 81825 83360 88270 90730 91115 555 40000 47621 44250 50000 50186;EQDQ01  00002PRCP99
0105167540999992000052719504+35330+025180FM-15+0039LGIR V0209999C00001220001CN0099001N1+02001+01501999999ADDMA1101391999999MW1001REMMET053LGIR 271950Z 00000KT CAVOK 20/15 Q1014 FEW090 OVC180;EQDQ01+000000PRSWM2
0144167540999992000053015504+35330+025180FM-15+0039LGIR V0200201N003112200019N0112651N1+02501+01701999999ADDGD12991+0060099GF102991999999999999999999MA1101081999999MW1001REMMET051LGIR 301550Z 02006KT 9999 FEW020 25/17 Q1011 NOSIG;EQDQ01+000000PRSWM2
0097167540999992000053115504+35330+025180FM-15+0039LGIR V0203401N00261220001CN0099001N1+02401+02001999999ADDMA1101291999999MW1001REMMET045LGIR 311550Z 34005KT CAVOK 24/20 Q1013 NOSIG;EQDQ01+000000PRSWM2
0166167540999992000060213504+35330+025180FM-15+0039LGIR V0203101N009310075019N0112651N1+02101+01401999999ADDGD12991+0054099GD23991+0075099GF107991999999999999999999MA1101491999999MW1001REMMET058LGIR 021350Z 31018KT 9999 FEW018 BKN025 21/14 Q1015 NOSIG;EQDQ01+000000PRSWM2
0166167540999992000060304504+35330+025180FM-15+0039LGIR V0203301N010312200019N0112651N1+02001+01201999999ADDGD12991+0054099GD22991+0075099GF104991999999999999999999MA1101491999999MW1001REMMET058LGIR 030450Z 33020KT 9999 FEW018 SCT025 20/12 Q1015 NOSIG;EQDQ01+000000PRSWM2
0187167540999992000060921004+35330+025180FM-12+0039LGIR V0201801N002612200019N0150001N1+02141+01471101641ADDGA1001+999999999GF100991001001999999001001MA1999999101181MD1210011+9999REMSYN104AAXX  09214 16754 42965 01805 10214 20147 30118 40164 52001 333 91107 555 40000 47627 44255 50000 50174;
0097167540999992000062320504+35320+025180FM-15+0039LGIR V0201801N00311220001CN0099001N1+02301+00701999999ADDMA1101391999999MW1001REMMET045LGIR 232050Z 18006KT CAVOK 23/07 Q1014 NOSIG;EQDQ01+000000PRSWM2
0097167540999992000062707504+35320+025180FM-15+0039LGIR V0203101N01081220001CN0099001N1+02701+01801999999ADDMA1100611999999MW1001REMMET045LGIR 270750Z 31021KT CAVOK 27/18 Q1006 NOSIG;EQDQ01+000000PRSWM2
