0161942830999992000122020004-15420+145180FM-12+000999999V0201101N005712200019N0400001N1+02571+02001100881ADDAY121999AY221999GF105991011011008001051091MA1999999100781MD1210131+9999MW1021REMSYN072AAXX  20204 94283 41582 51111 10257 20200 30078 40088 52013 70222 81159;
0081942830999992000122521004-15420+145180FM-12+000999999V0209999C000019999999N9999999N1+02451+02321100781ADDMA1999999100681REMSYN054AAXX  25214 94283 46/// /0000 10245 20232 30068 40078;
0191942850999992000010811004-16380+145570FM-12+000499999V0200901N007212200019N0200001N1+02851+02471100901ADDAA106000091AY111999AY211999GF102991021051004501999999MA1999999100861MD1210231+9999MW1021REMSYN072AAXX  08114 94285 31498 20914 10285 20247 30086 40090 52023 70211 825//;EQDQ01  00002PRCP06
0161942850999992000012320004-16380+145570FM-12+000499999V0203101N004612200019N0200001N1+02731+02501100591ADDAY101999AY201999GF103991011091001501041081MA1999999100551MD1210071+9999MW1021REMSYN072AAXX  23204 94285 41298 33109 10273 20250 30055 40059 52007 70200 81948;
0107942850999992000020708004-16380+145570FM-12+000499999V0201501N008719999999N9999999N1+02691+02621100911ADDMA1999999100871MD1710031+9999REMSYN066AAXX  07084 94285 4//// /1517 10269 20262 30087 40091 57003 7//44;
0118942850999992000021423004-16380+145570FM-12+000499999V0202601N002619999999N9999999N1+02751+02471100591ADDAA124023991MA1999999100551MD1210031+9999REMSYN066AAXX  14234 94285 15/// /2605 10275 20247 30055 40059 52003 60244;
0178942850999992000022223004-16380+145570FM-12+000499999V0203301N003110006019N0500001N1+02701+02551100751ADDAA124002091AY121999AY221999GF107991071041000751999999MA1999999100711MD1210151+9999MW1021REMSYN078AAXX  22234 94285 11199 73306 10270 20255 30071 40075 52015 60024 70222 874//;
0124942850999992000031317004-16380+145570FM-12+000499999V0201301N010319999999N9999999N1+02731+02311100861ADDAA106000191MA1999999100821MD1710131+9999REMSYN072AAXX  13174 94285 1//// /1320 10273 20231 30082 40086 57013 69921 7//44;
0130942850999992000031414004-16380+145570FM-12+000499999V0201101N010819999999N9999999N1+02641+02271100961ADDKA1999M+02841MA1999999100921MD1710081+9999REMSYN076AAXX  14144 94285 4//// /1121 10264 20227 30092 40096 57008 7//44 333 10284;
0124942850999992000041002004-16380+145570FM-12+000499999V0201401N009819999999N9999999N1+02851+02571101331ADDKA1999N+02511MA1999999101291MD1710111+9999REMSYN070AAXX  10024 94285 45/// /1419 10285 20257 30129 40133 57011 333 20251;
0124942850999992000041114004-16380+145570FM-12+000499999V0201301N010319999999N9999999N1+02611+02231101361ADDKA1999M+02971MA1999999101321MD1710061+9999REMSYN070AAXX  11144 94285 45/// /1320 10261 20223 30132 40136 57006 333 10297;
0191942850999992000041605004-16380+145570FM-12+000499999V0201501N006712200019N0100001N1+02881+02501100991ADDAA199000091AY111999AY211999GF101991011031004501001081MA1999999100951MD1710191+9999MW1051REMSYN072AAXX  16054 94285 31497 11513 10288 20250 30095 40099 57019 70511 81308;EQDQ01  00002PRCP99
0124942850999992000043002004-16380+145570FM-12+000499999V0201101N004619999999N9999999N1+02791+02001100921ADDKA1999N+02391MA1999999100881MD1710091+9999REMSYN070AAXX  30024 94285 45/// /1109 10279 20200 30088 40092 57009 333 20239;
0101942850999992000050408004-16380+145570FM-12+000499999V0200601N001519999999N9999999N1+02631+02321100921ADDMA1999999100881MD1210121+9999REMSYN060AAXX  04084 94285 45/// /0603 10263 20232 30088 40092 52012;
0101942850999992000050708004-16380+145570FM-12+000499999V0201401N010319999999N9999999N1+02521+02181101361ADDMA1999999101321MD1210111+9999REMSYN060AAXX  07084 94285 45/// /1420 10252 20218 30132 40136 52011;
0161942850999992000051420004-16380+145570FM-12+000499999V0202001N004612200019N0200001N1+02331+01801101491ADDAY111999AY211999GF101991011041004501001081MA1999999101451MD1410001+9999MW1011REMSYN072AAXX  14204 94285 41498 12009 10233 20180 30145 40149 54000 70111 81408;
0124942850999992000060302004-16380+145570FM-12+000499999V0201601N009319999999N9999999N1+02191+01441101641ADDKA1999N+01721MA1999999101601MD1710051+9999REMSYN070AAXX  03024 94285 45/// /1618 10219 20144 30160 40164 57005 333 20172;
0101942850999992000070408004-16380+145560FM-12+000499999V0201501N008219999999N9999999N1+02231+01901101451ADDMA1999999101411MD1210131+9999REMSYN060AAXX  04084 94285 45/// /1516 10223 20190 30141 40145 52013;
0161942850999992000071620004-16380+145560FM-12+000499999V0202101N006712200019N0200001N1+01931+01521101851ADDAY101999AY201999GF101991011041008001001001MA1999999101811MD1410001+9999MW1021REMSYN072AAXX  16204 94285 41598 12113 10193 20152 30181 40185 54000 70200 81400;
0124942850999992000072202004-16380+145560FM-12+000499999V0201701N005719999999N9999999N1+02611+01731101771ADDKA1999N+02011MA1999999101731MD1710081+9999REMSYN070AAXX  22024 94285 45/// /1711 10261 20173 30173 40177 57008 333 20201;
0124942850999992000072702004-16380+145560FM-12+000499999V0201401N007719999999N9999999N1+02581+01721101491ADDKA1999N+02111MA1999999101451MD1710101+9999REMSYN070AAXX  27024 94285 45/// /1415 10258 20172 30145 40149 57010 333 20211;
0101942850999992000090708004-16380+145560FM-12+000499999V0200201N005719999999N9999999N1+02521+02001101101ADDMA1999999101061MD1210011+9999REMSYN060AAXX  07084 94285 45/// /0211 10252 20200 30106 40110 52001;
0191942850999992000090711004-16380+145560FM-12+000499999V0200101N005712200019N0200001N1+02401+02131101271ADDAA199000091AY101999AY201999GF101991011041004501001001MA1999999101231MD1210171+9999MW1051REMSYN072AAXX  07114 94285 31498 10111 10240 20213 30123 40127 52017 70500 81400;EQDQ01  00002PRCP99
0131942850999992000091017004-16380+145560FM-12+000499999V0202601N004119999999N9999999N1+02141+01541101281ADDAA199000091MA1999999101241MD1710201+9999REMSYN060AAXX  10174 94285 35/// /2608 10214 20154 30124 40128 57020;EQDQ01  00002PRCP99
0191942850999992000101523004-16380+145560FM-12+000499999V0201601N006210450019N0040001N1+02791+02171101371ADDAA199000091AY121999AY221999GF107991031041004501051999MA1999999101331MD1210171+9999MW1051REMSYN072AAXX  15234 94285 31496 71612 10279 20217 30133 40137 52017 70522 8345/;EQDQ01  00002PRCP99
0170942850999992000102823004-16380+145560FM-12+000499999V0202601N003110060019N0200001N1+02401+01981101141ADDAA124000591AY151999GF108991051081002501071999MA1999999101101MD1210101+9999MW1201REMSYN078AAXX  28234 94285 11398 82606 10240 20198 30110 40114 52010 69944 7205/ 8587/;
0178942850999992000111605004-16380+145560FM-12+000499999V0201401N006711050019N0100001N1+02711+02421100731ADDAA106001091AY191999AY281999GF106991021091004501071031MA1999999100691MD1710241+9999MW1151REMSYN078AAXX  16054 94285 11497 61413 10271 20242 30069 40073 57024 60011 71598 82973;
0130942850999992000112614004-16380+145560FM-12+000499999V0201501N012919999999N9999999N1+02571+02341100911ADDKA1999M+02891MA1999999100871MD1410001+9999REMSYN076AAXX  26144 94285 4//// /1525 10257 20234 30087 40091 54000 7//44 333 10289;
0107942850999992000112708004-16380+145560FM-12+000499999V0201201N007219999999N9999999N1+02451+02291100781ADDMA1999999100741MD1210081+9999REMSYN066AAXX  27084 94285 4//// /1214 10245 20229 30074 40078 52008 72144;
0191942860999992000011105004-17070+145420FM-12+047699999V0200701N003610042019N0200001N1+02731+02091100351ADDAA106000091AY121999AY221999GF107991051031004501031031MA1999999095121MD1710231+9999MW1151REMSYN072AAXX  11054 94286 31470 70707 10273 20209 39512 40035 57023 71522 85333;EQDQ01  00002PRCP06
0161942860999992000012620004-17070+145420FM-12+047699999V0209999C000012200019N0200001N1+01931+01881100881ADDAY101999AY201999GF101991011051008001001001MA1999999095621MD1210111+9999MW1031REMSYN072AAXX  26204 94286 41570 10000 10193 20188 39562 40088 52011 70300 81500;
0191942860999992000040205004-17070+145420FM-12+047699999V0201301N007710450019N0300001N1+02921+02191100751ADDAA199000091AY121999AY221999GF106991031011004501061001MA1999999095441MD1710221+9999MW1021REMSYN072AAXX  02054 94286 31480 61315 10292 20219 39544 40075 57022 70222 83160;EQDQ01  00002PRCP99
0178942860999992000042823004-17070+145420FM-12+047699999V0201301N007710042019N0200001N1+02231+01871101121ADDAA124000191AY121999AY221999GF107991071051004501999999MA1999999095791MD1210131+9999MW1151REMSYN078AAXX  28234 94286 11470 71315 10223 20187 39579 40112 52013 69924 71522 875//;
0161942860999992000052720004-17070+145420FM-12+047699999V0201301N001512200019N0200001N1+01931+01741101331ADDAY111999AY211999GF104991011081004501001081MA1999999095961MD1210051+9999MW1021REMSYN072AAXX  27204 94286 41470 41303 10193 20174 39596 40133 52005 70211 81808;
0178942860999992000060805004-17070+145420FM-12+047699999V0201301N005110450019N0200001N1+01831+01631101661ADDAA106000191AY161999AY221999GF108991031051004501091999MA1999999096231MD1710111+9999MW1151REMSYN078AAXX  08054 94286 11470 81310 10183 20163 39623 40166 57011 69921 71562 8359/;
0101942860999992000061208004-17070+145420FM-12+047699999V0201501N003619999999N9999999N1+01671+01151101831ADDMA1999999096421MD1210181+9999REMSYN060AAXX  12084 94286 45/// /1507 10167 20115 39642 40183 52018;
0191942860999992000062223004-17700+145420FM-12+047699999V0201301N003612200019N0350001N1+02061+01511101791ADDAA199000091AY101999AY201999GF104991041051004501001001MA1999999096361MD1210221+9999MW1021REMSYN072AAXX  22234 94286 31481 41307 10206 20151 39636 40179 52022 70200 84500;EQDQ01  00002PRCP99
0191942860999992000062805004-17700+145420FM-12+047699999V0201301N001012200019N0400001N1+02301+01371101281ADDAA199000091AY121999AY221999GF104991041051004501001001MA1999999095871MD1710251+9999MW1021REMSYN072AAXX  28054 94286 31482 41302 10230 20137 39587 40128 57025 70222 84500;EQDQ01  00002PRCP99
0191942860999992000070423004-17700+145420FM-12+047699999V0201301N002610042019N0200001N1+01901+01571101671ADDAA199000091AY121999AY221999GF107991071051004501999999MA1999999096231MD1210181+9999MW1161REMSYN072AAXX  04234 94286 31470 71305 10190 20157 39623 40167 52018 71622 875//;EQDQ01  00002PRCP99
0201942860999992000071117004-17700+145420FM-12+047699999V0209999C000012200019N0200001N1+00961+00861101561ADDAA199000091AY101999AY201999GA1001+999999999GF100991001001999999001001MA1999999096131MD1710091+9999MW1021REMSYN066AAXX  11174 94286 31970 00000 10096 20086 39613 40156 57009 70200;EQDQ01  00002PRCP99
0161942860999992000080820004-17060+145420FM-12+047699999V0201301N002112200019N0200001N1+01511+01391101721ADDAY101999AY201999GF101991011051004501001001MA1999999096291MD1210041+9999MW1401REMSYN072AAXX  08204 94286 41470 11304 10151 20139 39629 40172 52004 74000 81500;
0171942860999992000091311004-17060+145420FM-12+047699999V0201301N001512200019N0300001N1+01721+01041101831ADDAA199000091AY101999AY201999GF103991031011008001001001MA1999999096471MW1021REMSYN066AAXX  13114 94286 31580 31303 10172 20104 39647 40183 70200 83100;EQDQ01  00002PRCP99
0141942860999992000092020004-17060+145420FM-12+047699999V0201301N005112200019N0300001N1+01721+01601101581ADDAY101999AY201999GF101991011081004501001001MA1999999096241MW1021REMSYN066AAXX  20204 94286 41480 11310 10172 20160 39624 40158 70200 81800;
0171942860999992000101517004-17060+145420FM-12+047699999V0201301N003110120019N0150001N1+02011+01421101111ADDAA199000091AY111999AY211999GF107991071051012501999999MA1999999095821MW1041REMSYN066AAXX  15174 94286 31665 71306 10201 20142 39582 40111 70411 875//;EQDQ01  00002PRCP99
0171942860999992000110605004-17060+145420FM-12+047699999V0200501N004110450019N0200001N1+02901+01911100581ADDAA199000091AY121999AY221999GF107991031021008001031081MA1999999095351MW1041REMSYN066AAXX  06054 94286 31570 70508 10290 20191 39535 40058 70422 83238;EQDQ01  00002PRCP99
0158942860999992000110805004-17060+145420FM-12+047699999V0203601N003610075019N0200001N1+02191+02181100641ADDAA106038191AY191999AY211999GF107991071091008001031999MA1999999095411MW1951REMSYN072AAXX  08054 94286 11570 73607 10219 20218 39541 40064 60381 79591 8793/;
0158942860999992000112523004-17060+145420FM-12+047699999V0200401N003110042019N0300001N1+02431+02051101091ADDAA124007191AY121999AY221999GF106991051051004501031091MA1999999095811MW1021REMSYN072AAXX  25234 94286 11480 60406 10243 20205 39581 40109 60074 70222 85539;
0181942860999992000120111004-17060+145420FM-12+047699999V0201301N002612200019N0200001N1+02231+01871100891ADDAA199000091AY101999AY201999GA1001+999999999GF100991001001999999001001MA1999999095631MW1021REMSYN060AAXX  01114 94286 31970 01305 10223 20187 39563 40089 70200;EQDQ01  00002PRCP99
0158942860999992000120823004-17060+145420FM-12+047699999V0201601N003610450019N0200001N1+02051+01841100901ADDAA124007991AY151999AY221999GF108991011061001501021999MA1999999095671MW1151REMSYN072AAXX  08234 94286 11270 81607 10205 20184 39567 40090 60084 71552 8162/;
0220942870999992000010915004-16880+145750SY-MT+0007YBCS V0201801N002112200019N0112651N1+02541+02071100781ADDGA1021+006009999GF102991999999999999999999MA1100711100691MW1001REMSYN054AAXX  09154 94287 46/// /1804 10254 20207 30069 40078;MET066YBCS 1500Z 18004KT 9999 FEW020 25/21 Q1007 RMK RF00.0/000.0 NOSIG;EQDQ01+000000PRSWM2
0247942870999992000011500004-16880+145750SY-MT+000799999V0201701N00571220001CN0112651N1+02841+01791100951ADDGA1021+008409999GA2021+090009999GF104991999999999999999999MA1100911100861MW1001REMSYN058    AAXX  15004 94287 46/// /1711 10284 20179 30086 40095;MET073YBCS 0000Z 17011KT 9999 FEW028 SCT300 28/18 Q1009 RMK RF00.0/000.0 NOSIG;EQDQ01+000000PRSWM2
0317942870999992000011911004-16880+145750SY-MT+000799999V0201801N00261012001CN0250001N1+02711+02221101201ADDAA199000091AY121999AY211999GA1021+006609999GA2071+012009999GF107991071081008001999999MA1101191101111MD1210201+9999MW1131REMSYN076    AAXX  19114 94287 31575 71805 10271 20222 30111 40120 52020 71321 878//;MET052YBCS 191100Z 18005KT 9999 FEW022 BKN040 27/22 Q1012;EQDQ01+000000PRSWM2Q02  00002PRCP99Q03    003PRSWM1
0222942870999992000012700004-16880+145750SY-MT+0007YBCS V0201601N003112200019N0112651N1+02891+02251101041ADDGA1021+003609999GA2021+007809999GF104991999999999999999999MA1101021100951MW1001REMSYN054AAXX  27004 94287 46/// /1606 10289 20225 30095 40104;MET052YBCS 270000Z 16006KT 9999 FEW012 SCT026 29/23 Q1010;EQDQ01+000000PRSWM2
0288942870999992000013023004-16880+145750SY-MT+0007YBCS V0201601N004110300019N0112651N1+02831+02131101091ADDAA124000191GA1021+006009999GA2071+030009999GA3071+090009999GF107991999999999999999999MA1101081101001MD1210151+9999MW1001REMSYN066AAXX  30234 94287 15/// /1608 10283 20213 30100 40109 52015 69924;MET065YBCS 302300Z 16008KT 9999 FEW020 BKN100 BKN300 28/21 Q1011 NOSIG;EQDQ01+000000PRSWM2
0220942870999992000020107004-16880+145750FM-15+0007YBCS V0201301N009812200019N0112651N1+03001+02201999999ADDGA1021+006909999GA2021+048009999GF104991999999999999999999MA1100911999999MW1001REMMET110YBCS 0700Z 13019KT 9999 FEW023 SCT160 30/22 Q1009 RMK RF00.0/000.2 NOSIG RMK USE TAF FOR ARRIVALS AFTER 0830Z;EQDQ01+000000PRSWM2
0184942870999992000020322054-16880+145750FM-15+0007YBCS V0201601N006710120019N0112651N1+02601+02401999999ADDGA1021+000909999GA2071+012009999GF107991999999999999999999MA1101081999999MW1801REMMET058YBCS 032205Z 16013KT 9999 -SHRA FEW003 BKN040 26/24 Q1011;EQDQ01+000003PRSWM1Q02    003PRSWM1
0329942870999992000020323004-16880+145750SY-MT+0007YBCS V0201601N005710450019N0250001N1+02841+02381101131ADDAA124004191AY181999AY211999GA1021+006609029GA2021+006609999GA3021+033009999GF106991021081008001031021MA1101081101041MD1110131+9999MW1251REMSYN078AAXX  03234 94287 11575 61611 10284 20238 30104 40113 51013 60044 72581 82832;MET062YBCS 032300Z 16011KT 9999 FEW022TCU FEW022 SCT110 28/24 Q1011;EQDQ01+000000PRSWM2Q02    003PRSWM1
0368942870999992000020405004-16880+145750SY-MT+0007YBCS V0201201N00721036001CN0250001N1+02971+02381100701ADDAA199000021AY121999AY221999GA1021+006009999GA2021+012009999GA3071+036009999GA4071+090009999GF107991041081008001031021MA1100711100611MD1710241+9999MW1151REMSYN072AAXX  04054 94287 31575 71214 10297 20238 30061 40070 57024 71522 84832;MET091YBCS 0500Z 12014KT 9999 FEW020 SCT040 BKN120 BKN300 30/24 Q1007 RMK RF00.0/000.2 DIST SHRA;EQDQ01+000000PRSWM2Q02    003PRSWM1
0222942870999992000020809004-16880+145750SY-MT+0007YBCS V0201501N007210900019N0112651N1+02601+02261101131ADDGA1021+007209999GA2071+090009999GF107991999999999999999999MA1101081101041MW1001REMSYN054AAXX  08094 94287 46/// /1514 10260 20226 30104 40113;MET052YBCS 080900Z 15014KT 9999 FEW024 BKN300 26/23 Q1011;EQDQ01+000000PRSWM2
0320942870999992000020902004-16880+145750SY-MT+0007YBCS V0201401N00821015001CN0120001N1+02711+02241101191ADDAY181999AY221999GA1021+007509999GA2071+015009999GF107991071081008001999999KA1999N+02351MA1101191101101MD1810071+9999MW1801REMSYN082AAXX  09024 94287 41562 71416 10271 20224 30110 40119 58007 78082 878// 333 20235;MET079YBCS 0200Z 14016KT 9999 -SHRA FEW025 BKN050 27/22 Q1012 RMK RF00.0/000.4 NOSIG;EQDQ01    003PRSWM1
0220942870999992000021007004-16880+145750FM-15+0007YBCS V0203201N000510270019N0020001N1+02401+02301999999ADDGA1021+001809999GA2021+006009999GA3081+027009999GF108991999999999999999999MA1100911999999MW1611REMMET078YBCS 0700Z 32001KT 2000 -RA FEW006 SCT020 OVC090 24/23 Q1009 RMK RF01.4/048.2;EQDQ01+000003PRSWM1Q02    003PRSWM1
0145942870999992000021319004-16880+145750FM-15+0007YBCS V0209999C000012200019N0112651N1+02401+02401999999ADDGA1021+001209999GF102991999999999999999999MA1100711999999MW1001REMMET051YBCS 131900Z 00000KT 9999 FEW004 24/24 Q1007 NOSIG;EQDQ01+000000PRSWM2
0335942870999992000021523004-16880+145750SY-MT+0007YBCS V0201601N00311090001CN0300001N1+02811+02361100691ADDAA124000791AY121999AY221999GA1021+002409999GA2021+006009029GA3071+090009999GF107991031031002501031021MA1100711100601MD1210181+9999MW1021REMSYN078AAXX  15234 94287 11380 71606 10281 20236 30060 40069 52018 69904 70222 83332;MET068YBCS 152300Z 16006KT 9999 FEW008 FEW020TCU BKN300 28/24 Q1007 NOSIG;EQDQ01+000000PRSWM2Q02    003PRSWM1
0210942870999992000021913004-16880+145750FM-15+0007YBCS V0201401N003610840019N0112651N1+02501+02301999999ADDGA1021+005409999GA2021+030009999GA3071+084009999GF107991999999999999999999MA1101081999999MW1001REMMET084YBCS 1300Z 14007KT 9999 SCT018 SCT100 BKN280 25/23 Q1011 RMK RF00.0/000.2 DIST SHRA;EQDQ01+000000PRSWM2
0260942870999992000022121004-16880+145750SY-MT+0007YBCS V0201401N000510420019N0112651N1+02531+02211100721ADDGA1021+008409999GA2021+036009999GA3071+042009999GF107991999999999999999999MA1100711100631MW1001REMSYN054AAXX  21214 94287 46/// /1401 10253 20221 30063 40072;MET074YBCS 2100Z 14001KT 9999 FEW028 SCT120 BKN140 25/22 Q1007 RMK RF00.0/010.6;EQDQ01+000000PRSWM2
0243942870999992000022221004-16880+145750SY-MT+0007YBCS V0202601N000510330019N0112651N1+02421+02321100741ADDGA1021+000309999GA2071+033009999GF107991999999999999999999MA1100711100651MW1001REMSYN054AAXX  22214 94287 46/// /2601 10242 20232 30065 40074;MET073YBCS 2100Z 26001KT 9999 FEW001 BKN110 24/23 Q1007 RMK RF00.0/026.4 NOSIG;EQDQ01+000000PRSWM2
0090942870999992000022814554-16880+145750FM-15+0007YBCS V0209999C000012200019N0070001N1+02401+99999999999ADDMA1100811999999MW1001REMMET038YBCS 281455Z 00000KT //// 24/// Q1008;EQDQ01+000000PRSWM2
0312942870999992000030517004-16880+145750SY-MT+0007YBCS V0209999C000012200019N0400001N1+02231+02151101111ADDAA199000091AY101999AY201999GA1021+007509999GF199999011011008001001001MA1101081101021MD1710201+9999MW1021REMSYN072AAXX  05174 94287 31582 10000 10223 20215 30102 40111 57020 70200 81100;MET051YBCS 051700Z 00000KT 9999 FEW025 22/21 Q1011 NOSIG;EQDQ01+000012SCOTCVQ02+000000PRSWM2Q03  00002PRCP99Q04    003PRSWM1
0160942870999992000030519004-16880+145750FM-15+0007YBCS V0201301N005112200019N0112651N1+02301+02101999999ADDGA1021+007509999GF102991999999999999999999MA1101081999999MW1001REMMET066YBCS 1900Z 13010KT 9999 FEW025 23/21 Q1011 RMK RF00.0/000.0 NOSIG;EQDQ01+000000PRSWM2
0311942870999992000030705004-16880+145750SY-MT+0007YBCS V0200301N004612200019N0400001N1+02961+02121100951ADDAA199000091AY101999AY201999GA1021+009009999GF102991011081008001001021MA1100911100861MD1610251+9999MW1021REMSYN072AAXX  07054 94287 31582 20309 10296 20212 30086 40095 56025 70200 81802;MET066YBCS 0500Z 03009KT 9999 FEW030 30/21 Q1009 RMK RF00.0/000.0 NOSIG;EQDQ01+000000PRSWM2Q02  00002PRCP99Q03    003PRSWM1
0161942870999992000031308004-16880+145750FM-12+0007YBCS V0201301N005710120019N0250001N1+02771+02301100971ADDAY121999AY221999GF107991071081008001999999MA1999999100881MD1310131+9999MW1801REMSYN072AAXX  13084 94287 41575 71311 10277 20230 30088 40097 53013 78022 878//;
0350942870999992000031715004-16880+145750SY-MT+0007YBCS V0201601N003610300019N0060001N1+02501+02391101291ADDGA1021+002409999GA2021+006009999GA3071+030009999GF107991999999999999999999MA1101191101201MW1631REMSYN054AAXX  17154 94287 46/// /1607 10250 20239 30120 40129;MET148YBCS 171500Z 16007KT 6000 RA FEW008 SCT020 BKN100 25/24 Q1012 FM1500 16009KT 9000 -RA SCT018 BKN020 BKN120 TEMPO 1500/1800 3000 +SHRA SCT010 BKN015;EQDQ01+000003PRSWM1Q02    003PRSWM1
0161942870999992000032108004-16880+145750FM-12+0007YBCS V0201301N006712200019N0250001N1+02641+02131101071ADDAY111999AY201999GF103991031081008001001001MA1999999100981MD1310101+9999MW1021REMSYN072AAXX  21084 94287 41575 31313 10264 20213 30098 40107 53010 70210 83800;
0282942870999992000032405004-16880+145750SY-MT+0007YBCS V0200701N006712200019N0400001N1+03021+01821100921ADDAA199000091AY101999AY201999GF104991011011008001001011MA1100911100831MD1710171+9999MW1021REMSYN072AAXX  24054 94287 31582 40713 10302 20182 30083 40092 57017 70200 81101;MET053YBCS 0500Z 07013KT //// 30/18 Q1009 RMK RF00.0/000.0;EQDQ01+000000PRSWM2Q02  00002PRCP99Q03    003PRSWM1
0220942870999992000032507004-16880+145750FM-15+0007YBCS V0201301N006710900019N0112651N1+02901+02101999999ADDGA1021+007509999GA2071+090009999GF107991999999999999999999MA1101021999999MW1001REMMET110YBCS 0700Z 13013KT 9999 FEW025 BKN300 29/21 Q1010 RMK RF00.0/000.0 NOSIG RMK USE TAF FOR ARRIVALS AFTER 0803Z;EQDQ01+000000PRSWM2
0308942870999992000033011004-16880+145750SY-MT+0007YBCS V0201501N00671006001CN0080001N1+02471+02321101181ADDAA106007991AY181999AY221999GA1021+003009999GA2071+006009999GF108991081021004501999999MA1101081101091MD1210201+9999MW1801REMSYN078AAXX  30114 94287 11458 81513 10247 20232 30109 40118 52020 60081 78082 882//;MET073YBCS 1100Z 15013KT 8000 -SHRA FEW010 BKN020 25/23 Q1011 RMK RF00.2/008.8;EQDQ01    003PRSWM1
0292942870999992000040223004-16880+145750SY-MT+0007YBCS V0201301N00211012001CN0200001N1+02791+02391101181ADDAY151999AY221999GA1021+002409999GA2071+012009999GF107991071081002501999999MA1101081101091MD1210231+9999MW1151REMSYN072AAXX  02234 94287 11370 71304 10279 20239 30109 40118 52023 71552 878//;MET058YBCS 022300Z 13004KT 9999 FEW008 BKN040 28/24 Q1011 NOSIG;EQDQ01+000000PRSWM2Q02    003PRSWM1
0260942870999992000040306004-16880+145750SY-MT+0007YBCS V0203501N003110900019N0112651N1+02951+02331100881ADDGA1021+008409999GA2021+048009999GA3071+090009999GF107991999999999999999999MA1100811100791MW1001REMSYN054AAXX  03064 94287 46/// /3506 10295 20233 30079 40088;MET074YBCS 0600Z 35006KT 9999 FEW028 SCT160 BKN300 29/23 Q1008 RMK RF00.0/000.0;EQDQ01+000000PRSWM2
0308942870999992000040414004-16880+145750SY-MT+0007YBCS V0201801N004612200019N0250001N1+02461+02141101141ADDAY101999AY201999GA1021+007509999GF199999011081008001001001KA1999M+02691MA1101081101051MD1810021+9999MW1021REMSYN082AAXX  04144 94287 41575 11809 10246 20214 30105 40114 58002 70200 81800 333 10269;MET051YBCS 041400Z 18009KT 9999 FEW025 25/21 Q1011 NOSIG;EQDQ01+000012SCOTCVQ02+000000PRSWM2Q03    003PRSWM1
0307942870999992000040902004-16880+145750SY-MT+0007YBCS V0201301N006712200019N0300001N1+02951+02181101231ADDAY101999AY201999GA1021+007509999GF103991031021008001001001KA1999N+02271MA1101191101141MD1710091+9999MW1021REMSYN082AAXX  09024 94287 41580 31313 10295 20218 30114 40123 57009 70200 83200 333 20227;MET066YBCS 0200Z 13013KT 9999 SCT025 29/22 Q1012 RMK RF00.0/000.0 NOSIG;EQDQ01+000000PRSWM2Q02    003PRSWM1
0243942870999992000041800004-16880+145750SY-MT+0007YBCS V0201501N004110210019N0112651N1+02821+02251101561ADDGA1021+006609999GA2071+021009999GF107991999999999999999999MA1101491101471MW1001REMSYN054AAXX  18004 94287 46/// /1508 10282 20225 30147 40156;MET073YBCS 0000Z 15008KT 9999 FEW022 BKN070 28/23 Q1015 RMK RF00.0/000.0 NOSIG;EQDQ01+000000PRSWM2
0225942870999992000042222004-16880+145750FM-15+0007YBCS V0201601N003110120019N0112651N1+02601+02201999999ADDGA1021+000309999GA2021+006009999GA3071+012009999GF107991999999999999999999MA1101391999999MW1001REMMET099YBCS 222200Z 16006KT 9999 FEW001 SCT020 BKN040 26/22 Q1014 INTER 2200/0000 4000 SHRA FEW008 BKN018;EQDQ01+000000PRSWM2
0216942870999992000042513304-16880+145750FM-15+0007YBCS V0201301N008710270019N0070001N1+02301+02101999999ADDGA1021+003009999GA2021+004509999GA3081+027009999GF108991999999999999999999MA1101391999999MW1611OC101391REMMET066YBCS 251330Z 13017G27KT 7000 -RA FEW010 SCT015 OVC090 23/21 Q1014;EQDQ01+000003PRSWM1Q02    003PRSWM1
0329942870999992000042600514-16880+145750FM-16+0007YBCS V0201601N007710270019N0030001N1+02201+02101999999ADDGA1021+001209999GA2021+003009999GA3081+027009999GF108991999999999999999999MA1101291999999MW1651OC101391REMMET179YBCS 260051Z 16015G27KT 3000 +RA FEW004 SCT010 OVC090 22/21 Q1013 FM0051 14016G28KT 8000 -RA FEW008 BKN020 OVC090 FM0051 MOD TURB BLW 4000FT TEMPO 0051/0351 4000 RA SCT008 BKN017;EQDQ01+000003PRSWM1Q02    003PRSWM1
0328942870999992000042601204-16880+145750FM-15+0007YBCS V0201601N007710270019N0040001N1+02201+02101999999ADDGA1021+001209999GA2021+003009999GA3081+027009999GF108991999999999999999999MA1101191999999MW1631OC101341REMMET178YBCS 260120Z 16015G26KT 4000 RA FEW004 SCT010 OVC090 22/21 Q1012 FM0120 14018G30KT 8000 -RA FEW008 BKN020 OVC090 FM0120 MOD TURB BLW 4000FT TEMPO 0120/0420 4000 RA SCT008 BKN017;EQDQ01+000003PRSWM1Q02    003PRSWM1
0205942870999992000042612304-16880+145750FM-15+0007YBCS V0201501N008710270019N0020001N1+02201+02101999999ADDGA1021+001509999GA2021+003609999GA3081+027009999GF108991999999999999999999MA1101191999999MW1611REMMET063YBCS 261230Z 15017KT 2000 -RA FEW005 SCT012 OVC090 22/21 Q1012;EQDQ01+000003PRSWM1Q02    003PRSWM1
0222942870999992000042701004-16880+145750FM-15+0007YBCS V0201501N009810090019N0112651N1+02301+02101999999ADDGA1021+001509999GA2021+005409999GA3071+009009999GF107991999999999999999999MA1101021999999MW1801REMMET080YBCS 0100Z 15019KT 9999 -SHRA FEW005 SCT018 BKN030 23/21 Q1010 RMK RF00.0/000.0;EQDQ01+000003PRSWM1Q02    003PRSWM1
0162942870999992000042709304-16880+145750FM-15+0007YBCS V0201601N011310270019N0112651N1+02301+01801999999ADDGA1021+004509999GA2081+027009999GF108991999999999999999999MA1101021999999MW1001REMMET052YBCS 270930Z 16022KT 9999 SCT015 OVC090 23/18 Q1010;EQDQ01+000000PRSWM2
0185942870999992000042713004-16880+145750FM-15+0007YBCS V0201501N009810270019N0112651N1+02301+02001999999ADDGA1021+004509999GA2021+007509999GA3081+027009999GF108991999999999999999999MA1101081999999MW1001REMMET059YBCS 271300Z 15019KT 9999 FEW015 SCT025 OVC090 23/20 Q1011;EQDQ01+000000PRSWM2
0326942870999992000042720004-16880+145750SY-MT+0007YBCS V0201601N00621036001CN0250001N1+02291+02001101001ADDAY121999AY221999GA1021+006609999GA2071+036009999GF107991011011008001071999MA1101021100911MD1310111+9999MW1251REMSYN072AAXX  27204 94287 41575 71612 10229 20200 30091 40100 53011 72522 8117/;MET092YBCS 272000Z 16012KT 9999 FEW022 BKN120 23/20 Q1010 INTER 2000/2300 4000 SHRA FEW010 BKN018;EQDQ01+000000PRSWM2Q02    003PRSWM1
0206942870999992000042810304-16880+145750FM-15+0007YBCS V0201801N005110300019N0070001N1+02301+02101999999ADDGA1021+002409999GA2021+006009999GA3081+030009999GF108991999999999999999999MA1101081999999MW1161REMMET064YBCS 281030Z 18010KT 7000 VCSH FEW008 SCT020 OVC100 23/21 Q1011;EQDQ01+000003PRSWM1Q02    003PRSWM1
0197942870999992000050107004-16880+145750FM-15+0007YBCS V0201401N005712200019N0112651N1+02701+01801999999ADDGA1021+008409999GF102991999999999999999999MA1100711999999MW1001REMMET103YBCS 0700Z 14011KT 9999 FEW028 27/18 Q1007 RMK RF00.0/000.0 NOSIG RMK USE TAF FOR ARRIVALS AFTER 0830Z;EQDQ01+000000PRSWM2
0228942870999992000050203004-16880+145750SY-MT+0007YBCS V0200301N003110900019N0112651N1+02781+02021100821ADDGA1021+008409999GA2071+090009999GF107991999999999999999999MA1100811100731MW1001REMSYN054AAXX  02034 94287 46/// /0306 10278 20202 30073 40082;MET058YBCS 020300Z 03006KT 9999 FEW028 BKN300 28/20 Q1008 NOSIG;EQDQ01+000000PRSWM2
0243942870999992000050618004-16880+145750SY-MT+0007YBCS V0201701N003610105019N0112651N1+02431+01871101311ADDGA1021+007209999GA2071+010509999GF107991999999999999999999MA1101291101221MW1001REMSYN054AAXX  06184 94287 46/// /1707 10243 20187 30122 40131;MET073YBCS 1800Z 17007KT 9999 FEW024 BKN035 24/19 Q1013 RMK RF00.0/000.0 NOSIG;EQDQ01+000000PRSWM2
0242942870999992000050904004-16880+145750FM-15+0007YBCS V0201301N012910150019N0112651N1+02701+01901999999ADDGA1021+006609999GA2071+015009999GF107991999999999999999999MA1101291999999MW1001REMMET132YBCS 090400Z 13025KT 9999 FEW022 BKN050 27/19 Q1013 FM0600 14022G32KT 9999 -SHRA SCT020 SCT040 FM0400 MOD TURB BLW 5000FT TILL 0600;EQDQ01+000000PRSWM2
0162942870999992000051513004-16880+145750FM-15+0007YBCS V0201601N005710150019N0112651N1+02301+01501999999ADDGA1021+007509999GA2071+015009999GF107991999999999999999999MA1101591999999MW1001REMMET052YBCS 151300Z 16011KT 9999 FEW025 BKN050 23/15 Q1016;EQDQ01+000000PRSWM2
0411942870999992000051708004-16880+145750SY-MT+0007YBCS V0201301N00721030001CN0250001N1+02391+01751101541ADDAY121999AY221999GA1021+006009999GA2021+010509999GA3071+030009999GF107991051081008001071999MA1101491101451MD1310131+9999MW1151REMSYN072AAXX  17084 94287 41575 71314 10239 20175 30145 40154 53013 71522 8587/;MET161YBCS 0800Z 13014KT 9999 FEW020 SCT035 BKN100 24/17 Q1015 RMK RF00.0/000.0 DIST SHRA INTER 1000/1100 4000 SHRA FEW008 BKN018 RMK USE TAF FOR ARRIVALS AFTER 0830Z;EQDQ01+000000PRSWM2Q02    003PRSWM1
0179942870999992000051713004-16880+145750FM-15+0007YBCS V02099999999990300019N0112651N1+02401+01501999999ADDGA1021+006909999GA2071+030009999GF107991999999999999999999MA1101591999999MW1001REMMET069YBCS 1300Z 1016G26KT 9999 FEW023 BKN100 24/15 Q1016 RMK RF00.0/000.0;EQDQ01+000000PRSWM2
0173942870999992000051713414-16880+145750FM-16+0007YBCS V0201401N007710900019N0112651N1+02401+01501999999ADDGA1021+007509999GA2071+090009999GF107991999999999999999999MA1101591999999MW1001OC101291REMMET055YBCS 171341Z 14015G25KT 9999 FEW025 BKN300 24/15 Q1016;EQDQ01+000000PRSWM2
0333942870999992000051819304-16880+145750FM-15+0007YBCS V0201801N004610105019N0060001N1+02301+02201999999ADDGA1021+001509999GA2021+005409999GA3071+010509999GF107991999999999999999999MA1101391999999MW1161REMMET191YBCS 181930Z 18009KT 6000 VCSH FEW005 SCT018 BKN035 23/22 Q1014 FM1930 16015KT 9999 -SHRA FEW005 BKN020 OVC030 TEMPO 1930/2000 3000 SHRA SCT005 BKN015 INTER 2000/2230 4000 SHRA FEW008 BKN018;EQDQ01+000003PRSWM1Q02    003PRSWM1
0207942870999992000061313304-16880+145750FM-15+0007YBCS V0201501N007710300019N0050001N1+01901+01801999999ADDGA1021+001209999GA2021+005409999GA3081+030009999GF108991999999999999999999MA1102101999999MW1801REMMET065YBCS 131330Z 15015KT 5000 -SHRA FEW004 SCT018 OVC100 19/18 Q1021;EQDQ01+000003PRSWM1Q02    003PRSWM1
0285942870999992000061315004-16880+145750SY-MT+0007YBCS V0201701N005710300019N0112651N1+01961+01751102181ADDGA1021+003009999GA2021+006009999GA3071+030009999GF107991999999999999999999MA1102101102091MW1001REMSYN054AAXX  13154 94287 46/// /1711 10196 20175 30209 40218;MET099YBCS 131500Z 17011KT 9999 FEW010 SCT020 BKN100 20/17 Q1021 INTER 1500/1800 4000 SHRA FEW010 BKN018;EQDQ01+000000PRSWM2
0294942870999992000061516184-16880+145750FM-16+0007YBCS V0201501N006710105019N0060001N1+01901+01701999999ADDGA1021+001809999GA2021+005409999GA3071+010509999GF107991999999999999999999MA1101901999999MW1801REMMET152YBCS 151618Z 15013KT 6000 -SHRA FEW006 SCT018 BKN035 19/17 Q1019 FM1618 16013KT 9999 -SHRA SCT018 BKN035 BKN120 INTER 1618/1918 4000 SHRA FEW008 BKN018;EQDQ01+000003PRSWM1Q02    003PRSWM1
0319942870999992000062205004-16880+145750SY-MT+0007YBCS V0201301N006210105019N0350001N1+02661+01951101501ADDAA199000091AY121999AY221999GA1021+006009999GA2071+010509999GF106991061081008001031011MA1101491101411MD1710161+9999MW1151REMSYN072AAXX  22054 94287 31581 61312 10266 20195 30141 40150 57016 71522 86831;MET058YBCS 220500Z 13012KT 9999 FEW020 BKN035 27/19 Q1015 NOSIG;EQDQ01+000000PRSWM2Q02  00002PRCP99Q03    003PRSWM1
0191942870999992000062304004-16880+145750FM-15+0007YBCS V0201201N006210300019N0112651N1+02601+01901999999ADDGA1021+006609999GA2021+012009999GA3071+030009999GF107991999999999999999999MA1101491999999MW1001REMMET065YBCS 230400Z 12012KT 9999 FEW022 SCT040 BKN100 26/19 Q1015 NOSIG;EQDQ01+000000PRSWM2
0091942870999992000062910004-16880+145750FM-15+0007YBCS V0201801N00311220001CN0099001N1+02101+01301999999ADDMA1101491999999MW1001REMMET039YBCS 291000Z 18006KT CAVOK 21/13 Q1015;EQDQ01+000000PRSWM2
0268942870999992000063017004-16880+145750SY-MT+0007YBCS V0200401N003612200019N0400001N1+01471+00781101701ADDAA199000091AY101999AY201999GF101991999999999999999999MA1101691101611MD1810111+9999MW1021REMSYN066AAXX  30174 94287 31982 10407 10147 20078 30161 40170 58011 70200;MET045YBCS 301700Z 14007KT CAVOK 15/08 Q1017 NOSIG;EQDQ01+000000PRSWM2Q02  00002PRCP99Q03    003PRSWM1
0228942870999992000070300004-16880+145750SY-MT+0007YBCS V0201501N007210135019N0112651N1+02231+01641101631ADDGA1021+006609999GA2071+013509999GF107991999999999999999999MA1101591101541MW1001REMSYN054AAXX  03004 94287 46/// /1514 10223 20164 30154 40163;MET058YBCS 030000Z 15014KT 9999 FEW022 BKN045 22/16 Q1016 NOSIG;EQDQ01+000000PRSWM2
0319942870999992000070705004-16880+145750SY-MT+0007YBCS V0201101N00361015001CN0400001N1+02531+01401101161ADDAA199000021AY111999AY211999GA1021+009009999GA2071+015009999GF199999061081008001001001MA1101081101071MD1710221+9999MW1021REMSYN072AAXX  07054 94287 31582 61107 10253 20140 30107 40116 57022 70211 86800;MET058YBCS 070500Z 11007KT 9999 FEW030 BKN050 25/14 Q1011 NOSIG;EQDQ01+000062SCOTCVQ02+000000PRSWM2Q03    003PRSWM1
0237942870999992000070715004-16880+145750SY-MT+0007YBCS V0201601N002612200019N0112651N1+01921+01531101401ADDGA1021+006609999GF102991999999999999999999MA1101291101311MW1001REMSYN054AAXX  07154 94287 46/// /1605 10192 20153 30131 40140;MET083YBCS 071500Z 16005KT 9999 FEW022 19/15 Q1013 INTER 1700/1800 5000 DZ FEW010 BKN018;EQDQ01+000000PRSWM2
0205942870999992000071503004-16880+145750SY-MT+0007YBCS V0201001N005712200019N0112651N1+02471+00791101851ADDGA1021+010509999GF102991999999999999999999MA1101801101761MW1001REMSYN054AAXX  15034 94287 46/// /1011 10247 20079 30176 40185;MET051YBCS 150300Z 10011KT 9999 FEW035 25/08 Q1018 NOSIG;EQDQ01+000000PRSWM2
0228942870999992000072121004-16880+145750SY-MT+0007YBCS V0209999C000010900019N0112651N1+01351+01281101851ADDGA1021+006009999GA2071+090009999GF107991999999999999999999MA1101801101761MW1001REMSYN054AAXX  21214 94287 46/// /0000 10135 20128 30176 40185;MET058YBCS 212100Z 00000KT 9999 FEW020 BKN300 13/13 Q1018 NOSIG;EQDQ01+000000PRSWM2
0292942870999992000072320004-16880+145750SY-MT+0007YBCS V0201601N003112200019N0300001N1+01941+01541101851ADDAY101999AY201999GA1021+006009999GA2021+012009999GF103991031081008001001001MA1101801101761MD1310031+9999MW1021REMSYN072AAXX  23204 94287 41580 31606 10194 20154 30176 40185 53003 70200 83800;MET058YBCS 232000Z 16006KT 9999 FEW020 SCT040 19/15 Q1018 NOSIG;EQDQ01+000000PRSWM2Q02    003PRSWM1
0205942870999992000072500004-16880+145750SY-MT+0007YBCS V0201601N003112200019N0112651N1+02401+01581101801ADDGA1021+007509999GF102991999999999999999999MA1101691101711MW1001REMSYN054AAXX  25004 94287 46/// /1606 10240 20158 30171 40180;MET051YBCS 250000Z 16006KT 9999 FEW025 24/16 Q1017 NOSIG;EQDQ01+000000PRSWM2
0191942870999992000072904004-16880+145750FM-15+0007YBCS V0201301N010310300019N0112651N1+02301+01401999999ADDGA1021+009009999GA2021+021009999GA3071+030009999GF107991999999999999999999MA1101801999999MW1001REMMET065YBCS 290400Z 13020KT 9999 FEW030 SCT070 BKN100 23/14 Q1018 NOSIG;EQDQ01+000000PRSWM2
0364942870999992000072914004-16880+145750SY-MT+0007YBCS V0201601N006210090019N0200001N1+01881+01641102071ADDAY151999AY221999GA1021+004509999GA2021+006009999GA3071+009009999GF108991081081004501999999KA1999M+02441MA1102001101981MD1810031+9999MW1501MW2511REMSYN082AAXX  29144 94287 41470 81612 10188 20164 30198 40207 58003 75052 888// 333 10244;MET101YBCS 291400Z 16012KT 9999 -DZ FEW015 SCT020 BKN030 19/16 Q1020 INTER 1600/1700 4000 DZ FEW010 BKN018;EQDQ01    003PRSWM1
0308942870999992000080514004-16880+145750SY-MT+0007YBCS V0201701N003112200019N0300001N1+01941+01671101731ADDAY111999AY211999GA1021+006609999GF199999011081008001001001KA1999M+02571MA1101691101641MD1810021+9999MW1021REMSYN082AAXX  05144 94287 41580 11706 10194 20167 30164 40173 58002 70211 81800 333 10257;MET051YBCS 051400Z 17006KT 9999 FEW022 19/17 Q1017 NOSIG;EQDQ01+000012SCOTCVQ02+000000PRSWM2Q03    003PRSWM1
0265942870999992000080723304-16880+145750FM-15+0007YBCS V0201801N002610270019N0090001N1+02001+01901999999ADDGA1021+001209999GA2021+010509999GA3071+027009999GF107991999999999999999999MA1101901999999MW1001REMMET139YBCS 072330Z 18005KT 9000 FEW004 SCT035 BKN090 20/19 Q1019 FM2330 12012KT 9999 -SHRA SCT025 BKN040 INTER 2330/0200 4000 SHRA FEW008 BKN018;EQDQ01+000000PRSWM2
0319942870999992000081117004-16880+145750SY-MT+0007YBCS V0201201N004612200019N0300001N1+01861+01611101731ADDAA199000091AY101999AY201999GA1021+007509999GA2021+090009999GF104991011011008001001011MA1101691101641MD1710051+9999MW1021REMSYN072AAXX  11174 94287 31580 41209 10186 20161 30164 40173 57005 70200 81101;MET058YBCS 111700Z 12009KT 9999 FEW025 SCT300 19/16 Q1017 NOSIG;EQDQ01+000000PRSWM2Q02  00002PRCP99Q03    003PRSWM1
0145942870999992000081506004-16880+145750FM-15+0007YBCS V0201301N008212200019N0112651N1+02401+01501999999ADDGA1021+007509999GF102991999999999999999999MA1101291999999MW1001REMMET051YBCS 150600Z 13016KT 9999 FEW025 24/15 Q1013 NOSIG;EQDQ01+000000PRSWM2
0151942870999992000082012004-16880+145750SY-MT+0007YBCS V0202801N002619999999Y0099001N1+01871+01711101371ADDMA1101291101281MW1001REMSYN054AAXX  20124 94287 46/// /2805 10187 20171 30128 40137;MET039YBCS 201200Z 28005KT CAVOK 19/17 Q1013;EQDQ01+000000PRSWM2
0205942870999992000090515004-16880+145750SY-MT+0007YBCS V0209999C000012200019N0112651N1+01921+01811101391ADDGA1021+007509999GF102991999999999999999999MA1101291101301MW1001REMSYN054AAXX  05154 94287 46/// /0000 10192 20181 30130 40139;MET051YBCS 051500Z 00000KT 9999 FEW025 19/18 Q1013 NOSIG;EQDQ01+000000PRSWM2
0158942870999992000091006004-16880+145750SY-MT+0007YBCS V0201401N008219999999Y0099001N1+02891-00131101241ADDMA1101191101151MW1001REMSYN054AAXX  10064 94287 46/// /1416 10289 21013 30115 40124;MET046YBCS 100600Z 14016KT CAVOK 29/M01 Q1012 NOSIG;EQDQ01+000000PRSWM2
0247942870999992000091020004-16880+145750SY-MT+0007YBCS V0202701N001512200019N0200001N1+01361+00711101471ADDAY101999AY201999GF103991001001999999001011MA1101391101381MD1310141+9999MW1041REMSYN072AAXX  10204 94287 41970 32703 10136 20071 30138 40147 53014 70400 80001;MET045YBCS 102000Z 27003KT CAVOK 14/07 Q1014 NOSIG;EQDQ01+000000PRSWM2Q02    003PRSWM1
0205942870999992000091703004-16880+145750SY-MT+0007YBCS V0201301N012312200019N0112651N1+02641+01461101741ADDGA1021+007509999GF104991999999999999999999MA1101691101651MW1001REMSYN054AAXX  17034 94287 46/// /1324 10264 20146 30165 40174;MET051YBCS 170300Z 13024KT 9999 SCT025 26/15 Q1017 NOSIG;EQDQ01+000000PRSWM2
0150942870999992000092203004-16880+145750SY-MT+0007YBCS V0201201N008719999999N0099001N1+02741+01591101631ADDMA1101591101541MW1001REMSYN054AAXX  22034 94287 46/// /1217 10274 20159 30154 40163;MET038YBCS 220300Z 12017KT //// 27/16 Q1016;EQDQ01+000000PRSWM2
0269942870999992000092308004-16880+145750SY-MT+0007YBCS V0201201N008712200019N0300001N1+02361+01661101621ADDAY101999AY201999GA1021+008409999GF102991021081008001001001MA1101591101531MD1310131+9999MW1021REMSYN072AAXX  23084 94287 41580 21217 10236 20166 30153 40162 53013 70200 82800;MET051YBCS 230800Z 12017KT 9999 FEW028 24/17 Q1016 NOSIG;EQDQ01+000000PRSWM2Q02    003PRSWM1
0162942870999992000100216004-16880+145750FM-15+0007YBCS V0201701N001512200019N0112651N1+02401+02101999999ADDGA1021+005409999GF104991999999999999999999MA1101291999999MW1001REMMET068YBCS 021600Z 17003KT 9999 SCT018 24/21 Q1013 INTER 1600/1900 BKN015;EQDQ01+000000PRSWM2
0139942870999992000100513004-16880+145750FM-15+0007YBCS V0201501N005710066019N0112651N1+02301+02001999999ADDGA1071+006609999GF107991999999999999999999MA1101591999999MW1001REMMET045YBCS 051300Z 15011KT 9999 BKN022 23/20 Q1016;EQDQ01+000000PRSWM2
0286942870999992000102408004-16880+145750SY-MT+0007YBCS V0201701N003610090019N0150001N1+02431+02101101141ADDAY121999AY221999GA1021+004509999GA2021+005409999GF107991071081004501999999MA1101081101051MD1310041+9999MW1151REMSYN072AAXX  24084 94287 41465 71707 10243 20210 30105 40114 53004 71522 878//;MET052YBCS 240800Z 17007KT 9999 FEW015 SCT018 24/21 Q1011;EQDQ01+000000PRSWM2Q02    003PRSWM1
0228942870999992000102803004-16880+145750SY-MT+0007YBCS V0200101N004612200019N0112651N1+02851+02161101021ADDGA1021+007509999GA2021+090009999GF104991999999999999999999MA1101021100931MW1001REMSYN054AAXX  28034 94287 46/// /0109 10285 20216 30093 40102;MET058YBCS 280300Z 01009KT 9999 FEW025 SCT300 29/22 Q1010 NOSIG;EQDQ01+000000PRSWM2
0097942870999992000110301004-16880+145750FM-15+0007YBCS V0200501N00621220001CN0099001N1+03301+02101999999ADDMA1100811999999MW1001REMMET045YBCS 030100Z 05012KT CAVOK 33/21 Q1008 NOSIG;EQDQ01+000000PRSWM2
0358942870999992000110915004-16880+145750SY-MT+0007YBCS V0202001N002110300019N0090001N1+02381+02191101111ADDGA1021+001509999GA2021+005409999GA3081+030009999GF108991999999999999999999MA1101081101021MW1801REMSYN054AAXX  09154 94287 46/// /2004 10238 20219 30102 40111;MET156YBCS 091500Z 20004KT 9000 -SHRA FEW005 SCT018 OVC100 24/22 Q1011 FM1500 16005KT 9999 -SHRA -RA BKN020BKN030 BKN100 TEMPO 1500/1800 2000 +SHRA SCT010 BKN015;EQDQ01+000003PRSWM1Q02    003PRSWM1
0202942870999992000111107004-16880+145750FM-15+0007YBCS V0201401N003110360019N0112651N1+02501+02001999999ADDGA1021+006009999GA2071+036009999GF107991999999999999999999MA1100911999999MW1001REMMET092YBCS 110700Z 14006KT 9999 FEW020 BKN120 25/20 Q1009 INTER 0800/1000 5000 SHRA FEW010 BKN018;EQDQ01+000000PRSWM2
0307942870999992000111115004-16880+145750SY-MT+0007YBCS V0202301N001510360019N0112651N1+02351+02061101001ADDGA1021+005409999GA2021+018009999GA3071+036009999GF107991999999999999999999MA1100911100911MW1161REMSYN054AAXX  11154 94287 46/// /2303 10235 20206 30091 40100;MET105YBCS 111500Z 23003KT 9999 VCSH FEW018 SCT060 BKN120 23/21 Q1009 TEMPO 1530/1800 5000 +SHRA FEW008 BKN018;EQDQ01+000003PRSWM1Q02    003PRSWM1
0245942870999992000111421004-16880+145750SY-MT+0007YBCS V0201401N003610900019N0112651N1+02371+02071100991ADDGA1021+007509999GA2021+015009999GA3071+090009999GF107991999999999999999999MA1100911100901MW1001REMSYN054AAXX  14214 94287 46/// /1407 10237 20207 30090 40099;MET059YBCS 142100Z 14007KT 9999 FEW025 SCT050 BKN300 24/21 Q1009;EQDQ01+000000PRSWM2
0162942870999992000111710004-16880+145750FM-15+0007YBCS V0201401N008212200019N0112651N1+02701+02101999999ADDGA1021+004509999GA2021+010509999GF104991999999999999999999MA1100911999999MW1001REMMET052YBCS 171000Z 14016KT 9999 FEW015 SCT035 27/21 Q1009;EQDQ01+000000PRSWM2
0228942870999992000112111304-16880+145750FM-15+0007YBCS V0203001N00261220001CN0090001N1+02601+02401999999ADDGA1021+003009999GA2021+005409999GA3021+006009099GA4071+036009999MA1100611999999MW1801MW2951REMMET074YBCS 211130Z 30005KT 9000 -TSRA FEW010 SCT018 BKN120 FEW020CB 26/24 Q1006;EQDQ01+000022SCOTCVQ02+000003PRSWM1Q03    003PRSWM1
0320942870999992000112411004-16880+145750SY-MT+0007YBCS V0201501N00211036001CN0100001N1+02561+02251100801ADDAA106000591AY121999AY221999GA1021+004509999GA2021+009009999GA3071+036009999GF108991031081004501021999MA1100811100711MD1210251+9999MW1601MW2611REMSYN078AAXX  24114 94287 11460 81504 10256 20225 30071 40080 52025 69941 76022 8382/;MET063YBCS 241100Z 15004KT 8000 -RA FEW015 SCT030 BKN120 26/23 Q1008;EQDQ01    003PRSWM1
0294942870999992000112519004-16880+145750FM-15+0007YBCS V0201601N002610060019N0040001N1+02301+02201999999ADDGA1021+003009999GA2071+006009999GA3081+036009999GF108991999999999999999999MA1100911999999MW1801REMMET152YBCS 251900Z 16005KT 4000 -SHRA FEW010 BKN020 OVC120 23/22 Q1009 FM1900 16008KT 9999 -SHRA FEW010 SCT020 BKN100 INTER 1900/2200 4000 SHRA SCT010 BKN018;EQDQ01+000003PRSWM1Q02    003PRSWM1
0303942870999992000120914004-16880+145750SY-MT+0007YBCS V0203001N00151030001CN0200001N1+02191+01991100981ADDAY121999AY221999GA1021+005409999GA2081+030009999GF108991011081004501071999KA1999M+02491MA1100911100891MD1810031+9999MW1601MW2611REMSYN082AAXX  09144 94287 41470 83003 10219 20199 30089 40098 58003 76022 8187/ 333 10249;MET056YBCS 091400Z 30003KT 9999 -RA FEW018 OVC100 22/20 Q1009;EQDQ01    003PRSWM1
0314942870999992000121811004-16880+145750SY-MT+0007YBCS V0201801N00511030001CN0090001N1+02411+02281100711ADDAA106013091AY161999AY261999GA1021+001209999GA2021+004509999GA3071+030009999GF108991041021001501021999MA1100711100621MD1210141+9999MW1611REMSYN078AAXX  18114 94287 11259 81810 10241 20228 30062 40071 52014 60131 76166 8422/;MET063YBCS 181100Z 18010KT 9000 -RA FEW004 SCT015 BKN100 24/23 Q1007;EQDQ01    003PRSWM1
0205942870999992000121816004-16880+145750FM-15+0007YBCS V0201901N004610030019N0030001N1+02401+02301999999ADDGA1021+001509999GA2071+003009999GA3071+030009999GF107991999999999999999999MA1100511999999MW1651REMMET063YBCS 181600Z 19009KT 3000 +RA FEW005 BKN010 BKN100 24/23 Q1005;EQDQ01+000003PRSWM1Q02    003PRSWM1
0145942870999992000122204004-16880+145750FM-15+0007YBCS V0201101N006212200019N0112651N1+03001+02001999999ADDGA1021+008409999GF102991999999999999999999MA1100811999999MW1001REMMET051YBCS 220400Z 11012KT 9999 FEW028 30/20 Q1008 NOSIG;EQDQ01+000000PRSWM2
0315942870999992000122702004-16880+145750SY-MT+0007YBCS V0200301N004112200019N0400001N1+03001+02201100591ADDAY101999AY201999GA1021+009009999GA2021+090009999GF104991011021008001999021KA1999N+02381MA1100611100501MD1710111+9999MW1031REMSYN082AAXX  27024 94287 41582 40308 10300 20220 30050 40059 57011 70300 812/2 333 20238;MET058YBCS 270200Z 03008KT 9999 FEW030 SCT300 30/22 Q1006 NOSIG;EQDQ01+000000PRSWM2Q02    003PRSWM1
0286942870999992000123006004-16880+145750SY-MT+0007YBCS V0200101N002110420019N0112651N1+02831+02461100591ADDGA1021+004509999GA2021+036009999GA3071+042009999GF107991999999999999999999MA1100511100501MW1001REMSYN054AAXX  30064 94287 46/// /0104 10283 20246 30050 40059;MET100YBCS 300600Z 01004KT 9999 FEW015 SCT120 BKN140 28/25 Q1005 INTER 0600/0900 3000 +SHRA FEW010 BKN018;EQDQ01+000000PRSWM2
0144942880999992000100923004-16920+146000FM-12+010799999V0201301N003110075019N0500001N1+02001+01681999999ADDAA199000091AY121999AY221999GF106991061021008001001001MW1031REMSYN054AAXX  09234 94288 31584 61306 10200 20168 70322 86200;EQDQ01  00002PRCP99
0131942880999992000111005004-16920+146000FM-12+010799999V0200501N000510042019N0200001N1+02401+01881999999ADDAA106000791AY121999AY221999GF107991071071004501051001MW1031REMSYN060AAXX  10054 94288 11470 70501 10240 20188 69901 70322 87750;
0131942880999992000121923004-16920+146000FM-12+010799999V0201301N004110012019N0200001N1+02181+01811999999ADDAA124001091AY121999AY221999GF107991071051001501999999MW1031REMSYN060AAXX  19234 94288 11270 71308 10218 20181 60014 70322 875//;
0125942890999992000012509004-16520+147850FM-12+000799999V0201001N008219999999N9999999N1+02841+99999100861ADDAA199000091MA1999999100771MD1210131+9999REMSYN054AAXX  25094 94289 35/// /1016 10284 30077 40086 52013;EQDQ01  00002PRCP99
0125942890999992000013118004-16520+147850FM-12+000799999V0201201N009819999999N9999999N1+02781+99999100811ADDAA199000091MA1999999100721MD1710061+9999REMSYN054AAXX  31184 94289 35/// /1219 10278 30072 40081 57006;EQDQ01  00002PRCP99
0125942890999992000020100004-16520+147850FM-12+000799999V0201301N009819999999N9999999N1+02821+99999101061ADDAA199000091MA1999999100971MD1210131+9999REMSYN054AAXX  01004 94289 35/// /1319 10282 30097 40106 52013;EQDQ01  00002PRCP99
0125942890999992000020812004-16520+147850FM-12+000799999V0201001N010819999999N9999999N1+02731+99999101081ADDAA199000091MA1999999100991MD1210061+9999REMSYN054AAXX  08124 94289 35/// /1021 10273 30099 40108 52006;EQDQ01  00002PRCP99
0125942890999992000021521004-16520+147850FM-12+000799999V0209999C000019999999N9999999N1+02891+99999100581ADDAA199000091MA1999999100491MD1210151+9999REMSYN054AAXX  15214 94289 35/// /0000 10289 30049 40058 52015;EQDQ01  00002PRCP99
0125942890999992000030306004-16520+147850FM-12+000799999V0201401N008719999999N9999999N1+02741+99999101011ADDAA199000091MA1999999100921MD1710111+9999REMSYN054AAXX  03064 94289 35/// /1417 10274 30092 40101 57011;EQDQ01  00002PRCP99
0125942890999992000031506004-16520+147850FM-12+000799999V0201201N010319999999N9999999N1+02801+99999100731ADDAA199000091MA1999999100641MD1710061+9999REMSYN054AAXX  15064 94289 35/// /1220 10280 30064 40073 57006;EQDQ01  00002PRCP99
0125942890999992000032500004-16520+147850FM-12+000799999V0201101N003619999999N9999999N1+02751+99999101201ADDAA199000091MA1999999101111MD1210081+9999REMSYN054AAXX  25004 94289 35/// /1107 10275 30111 40120 52008;EQDQ01  00002PRCP99
0125942890999992000032600004-16520+147850FM-12+000799999V0201201N006719999999N9999999N1+02781+99999101141ADDAA199000091MA1999999101051MD1210101+9999REMSYN054AAXX  26004 94289 35/// /1213 10278 30105 40114 52010;EQDQ01  00002PRCP99
0125942890999992000040812004-16520+147850FM-12+000799999V0200901N010819999999N9999999N1+02781+99999100971ADDAA199000091MA1999999100881MD1710121+9999REMSYN054AAXX  08124 94289 35/// /0921 10278 30088 40097 57012;EQDQ01  00002PRCP99
0125942890999992000041303004-16520+147850FM-12+000799999V0201101N010319999999N9999999N1+02751+99999100961ADDAA199000091MA1999999100871MD1710301+9999REMSYN054AAXX  13034 94289 35/// /1120 10275 30087 40096 57030;EQDQ01  00002PRCP99
0125942890999992000042718004-16520+147850FM-12+000799999V0201001N009319999999N9999999N1+02671+99999100721ADDAA199000091MA1999999100631MD1710051+9999REMSYN054AAXX  27184 94289 35/// /1018 10267 30063 40072 57005;EQDQ01  00002PRCP99
0125942890999992000052109004-16520+147850FM-12+000799999V0201101N011819999999N9999999N1+02591+99999101521ADDAA199000091MA1999999101431MD1210111+9999REMSYN054AAXX  21094 94289 35/// /1123 10259 30143 40152 52011;EQDQ01  00002PRCP99
0125942890999992000052303004-16520+147850FM-12+000799999V0201201N010819999999N9999999N1+02531+99999101321ADDAA199000091MA1999999101231MD1710211+9999REMSYN054AAXX  23034 94289 35/// /1221 10253 30123 40132 57021;EQDQ01  00002PRCP99
0125942890999992000060903004-16520+147850FM-12+000799999V0201201N011319999999N9999999N1+02301+99999101281ADDAA199000091MA1999999101191MD1710261+9999REMSYN054AAXX  09034 94289 35/// /1222 10230 30119 40128 57026;EQDQ01  00002PRCP99
0125942890999992000063012004-16510+147850FM-12+000799999V0201401N012319999999N9999999N1+02211+99999101631ADDAA199000091MA1999999101541MD1210111+9999REMSYN054AAXX  30124 94289 35/// /1424 10221 30154 40163 52011;EQDQ01  00002PRCP99
0125942890999992000071500004-16510+147850FM-12+000799999V0201201N005119999999N9999999N1+02221+99999101901ADDAA199000091MA1999999101811MD1210141+9999REMSYN054AAXX  15004 94289 35/// /1210 10222 30181 40190 52014;EQDQ01  00002PRCP99
0125942890999992000080506004-16510+147850FM-12+000799999V0201301N006719999999N9999999N1+02281+99999101381ADDAA199000091MA1999999101291MD1710101+9999REMSYN054AAXX  05064 94289 35/// /1313 10228 30129 40138 57010;EQDQ01  00002PRCP99
0125942890999992000082103004-16510+147850FM-12+000799999V0201501N003119999999N9999999N1+02281+99999101121ADDAA199000091MA1999999101031MD1710201+9999REMSYN054AAXX  21034 94289 35/// /1506 10228 30103 40112 57020;EQDQ01  00002PRCP99
0125942890999992000082418004-16510+147850FM-12+000799999V0209999C000019999999N9999999N1+02301+99999101151ADDAA199000091MA1999999101061MD1710121+9999REMSYN054AAXX  24184 94289 35/// /0000 10230 30106 40115 57012;EQDQ01  00002PRCP99
0125942890999992000090709004-16510+147850FM-12+000799999V0200301N004619999999N9999999N1+02441+99999101181ADDAA199000091MA1999999101091MD1210051+9999REMSYN054AAXX  07094 94289 35/// /0309 10244 30109 40118 52005;EQDQ01  00002PRCP99
0125942890999992000090712004-16510+147850FM-12+000799999V0200301N004619999999N9999999N1+02451+99999101311ADDAA199000091MA1999999101221MD1210131+9999REMSYN054AAXX  07124 94289 35/// /0309 10245 30122 40131 52013;EQDQ01  00002PRCP99
0125942890999992000090906004-16510+147850FM-12+000799999V0201101N004119999999N9999999N1+02491+99999101191ADDAA199000091MA1999999101101MD1710081+9999REMSYN054AAXX  09064 94289 35/// /1108 10249 30110 40119 57008;EQDQ01  00002PRCP99
0125942890999992000101703004-16510+147850FM-12+000799999V0201101N007719999999N9999999N1+02601+99999101111ADDAA199000091MA1999999101021MD1710161+9999REMSYN054AAXX  17034 94289 35/// /1115 10260 30102 40111 57016;EQDQ01  00002PRCP99
0125942890999992000110315004-16510+147850FM-12+000799999V0200101N004619999999N9999999N1+02651+99999100901ADDAA199000091MA1999999100811MD1710081+9999REMSYN054AAXX  03154 94289 35/// /0109 10265 30081 40090 57008;EQDQ01  00002PRCP99
0125942890999992000111009004-16510+147850FM-12+000799999V0200901N008719999999N9999999N1+02571+99999101081ADDAA199000091MA1999999100991MD1210141+9999REMSYN054AAXX  10094 94289 35/// /0917 10257 30099 40108 52014;EQDQ01  00002PRCP99
0125942890999992000111309004-16510+147850FM-12+000799999V0201001N006719999999N9999999N1+02661+99999100871ADDAA199000091MA1999999100781MD1210151+9999REMSYN054AAXX  13094 94289 35/// /1013 10266 30078 40087 52015;EQDQ01  00002PRCP99
0125942890999992000112215004-16510+147850FM-12+000799999V0203201N003619999999N9999999N1+02851+99999100511ADDAA199000091MA1999999100421MD1710221+9999REMSYN054AAXX  22154 94289 35/// /3207 10285 30042 40051 57022;EQDQ01  00002PRCP99
0125942890999992000112412004-16510+147850FM-12+000799999V0201001N007719999999N9999999N1+02781+99999100831ADDAA199000091MA1999999100741MD1210221+9999REMSYN054AAXX  24124 94289 35/// /1015 10278 30074 40083 52022;EQDQ01  00002PRCP99
0125942890999992000120709004-16510+147850FM-12+000799999V0201201N008219999999N9999999N1+02581+99999100831ADDAA199000091MA1999999100741MD1210101+9999REMSYN054AAXX  07094 94289 35/// /1216 10258 30074 40083 52010;EQDQ01  00002PRCP99
0125942890999992000122821004-16510+147850FM-12+000799999V0203501N005719999999N9999999N1+02831+99999100501ADDAA199000091MA1999999100411MD1210161+9999REMSYN054AAXX  28214 94289 35/// /3511 10283 30041 40050 52016;EQDQ01  00002PRCP99
0129942900999992000011903004-17720+148450FM-12+000799999V0201201N005119999999N9999999N1+02741+99999101061ADDAA199000091MA1999999100991MD1710181+9999REMSYN058    AAXX  19034 94290 35/// /1210 10274 30099 40106 57018;EQDQ01  00002PRCP99
0125942900999992000012900004-17720+148450FM-12+000799999V0209999C000019999999N9999999N1+02901+99999100901ADDAA199000091MA1999999100831MD1210041+9999REMSYN054AAXX  29004 94290 35/// /0000 10290 30083 40090 52004;EQDQ01  00002PRCP99
0125942900999992000022005004-17720+148450FM-12+000799999V0201101N004119999999N9999999N1+02791+99999100551ADDAA199000091MA1999999100481MD1710241+9999REMSYN054AAXX  20054 94290 35/// /1108 10279 30048 40055 57024;EQDQ01  00002PRCP99
0125942900999992000022017004-17720+148450FM-12+000799999V0200701N002619999999N9999999N1+02761+99999100561ADDAA199000091MA1999999100491MD1710141+9999REMSYN054AAXX  20174 94290 35/// /0705 10276 30049 40056 57014;EQDQ01  00002PRCP99
0125942900999992000031721004-17720+148450FM-12+000799999V0201201N009819999999N9999999N1+02681+99999101271ADDAA199000091MA1999999101201MD1210131+9999REMSYN054AAXX  17214 94290 35/// /1219 10268 30120 40127 52013;EQDQ01  00002PRCP99
0125942900999992000031823004-17720+148450FM-12+000799999V0201101N010319999999N9999999N1+02661+99999101201ADDAA199000091MA1999999101131MD1210191+9999REMSYN054AAXX  18234 94290 35/// /1120 10266 30113 40120 52019;EQDQ01  00002PRCP99
0125942900999992000032315004-17720+148450FM-12+000799999V0201101N005119999999N9999999N1+02621+99999101041ADDAA199000091MA1999999100971MD1710231+9999REMSYN054AAXX  23154 94290 35/// /1110 10262 30097 40104 57023;EQDQ01  00002PRCP99
0125942900999992000033111004-17720+148450FM-12+000799999V0201101N009819999999N9999999N1+02691+99999101151ADDAA199000091MA1999999101081MD1210201+9999REMSYN054AAXX  31114 94290 35/// /1119 10269 30108 40115 52020;EQDQ01  00002PRCP99
0125942900999992000040120004-17720+148450FM-12+000799999V0201601N006719999999N9999999N1+02681+99999100671ADDAA199000091MA1999999100601MD1210071+9999REMSYN054AAXX  01204 94290 35/// /1613 10268 30060 40067 52007;EQDQ01  00002PRCP99
0125942900999992000040506004-17720+148450FM-12+000799999V0201301N010319999999N9999999N1+02701+99999100731ADDAA199000091MA1999999100661MD1710121+9999REMSYN054AAXX  05064 94290 35/// /1320 10270 30066 40073 57012;EQDQ01  00002PRCP99
0125942900999992000042511004-17720+148450FM-12+000799999V0201101N015419999999N9999999N1+02591+99999101341ADDAA199000091MA1999999101271MD1210101+9999REMSYN054AAXX  25114 94290 35/// /1130 10259 30127 40134 52010;EQDQ01  00002PRCP99
0125942900999992000042602004-17720+148450FM-12+000799999V0201001N014919999999N9999999N1+02631+99999101111ADDAA199000091MA1999999101041MD1710171+9999REMSYN054AAXX  26024 94290 35/// /1029 10263 30104 40111 57017;EQDQ01  00002PRCP99
0125942900999992000042800004-17720+148450FM-12+000799999V0201201N010819999999N9999999N1+02651+99999101081ADDAA199000091MA1999999101011MD1210081+9999REMSYN054AAXX  28004 94290 35/// /1221 10265 30101 40108 52008;EQDQ01  00002PRCP99
0125942900999992000050403004-17720+148450FM-12+000799999V0201201N000519999999N9999999N1+02761+99999100941ADDAA199000091MA1999999100871MD1710171+9999REMSYN054AAXX  04034 94290 35/// /1201 10276 30087 40094 57017;EQDQ01  00002PRCP99
0125942900999992000052006004-17720+148450FM-12+000799999V0201301N011819999999N9999999N1+02531+99999101461ADDAA199000091MA1999999101391MD1210011+9999REMSYN054AAXX  20064 94290 35/// /1323 10253 30139 40146 52001;EQDQ01  00002PRCP99
0125942900999992000052400004-17720+148450FM-12+000799999V0201101N008219999999N9999999N1+02501+99999101481ADDAA199000091MA1999999101411MD1210011+9999REMSYN054AAXX  24004 94290 35/// /1116 10250 30141 40148 52001;EQDQ01  00002PRCP99
0125942900999992000052721004-17720+148450FM-12+000799999V0201701N010819999999N9999999N1+02481+99999101341ADDAA199000091MA1999999101271MD1210151+9999REMSYN054AAXX  27214 94290 35/// /1721 10248 30127 40134 52015;EQDQ01  00002PRCP99
0125942900999992000060215004-17720+148450FM-12+000799999V0201401N008719999999N9999999N1+02001+99999101571ADDAA199000091MA1999999101501MD1710111+9999REMSYN054AAXX  02154 94290 35/// /1417 10200 30150 40157 57011;EQDQ01  00002PRCP99
0125942900999992000060818004-17720+148450FM-12+000799999V0201201N013419999999N9999999N1+02331+99999101601ADDAA199000091MA1999999101531MD1710071+9999REMSYN054AAXX  08184 94290 35/// /1226 10233 30153 40160 57007;EQDQ01  00002PRCP99
0125942900999992000060902004-17720+148450FM-12+000799999V0201101N012319999999N9999999N1+02131+99999101521ADDAA199000091MA1999999101451MD1710211+9999REMSYN054AAXX  09024 94290 35/// /1124 10213 30145 40152 57021;EQDQ01  00002PRCP99
0125942900999992000060905004-17720+148450FM-12+000799999V0201301N013919999999N9999999N1+02011+99999101311ADDAA199000091MA1999999101241MD1710211+9999REMSYN054AAXX  09054 94290 35/// /1327 10201 30124 40131 57021;EQDQ01  00002PRCP99
0125942900999992000060906004-17720+148450FM-12+000799999V0201301N014919999999N9999999N1+02101+99999101251ADDAA199000091MA1999999101181MD1710131+9999REMSYN054AAXX  09064 94290 35/// /1329 10210 30118 40125 57013;EQDQ01  00002PRCP99
0125942900999992000061014004-17720+148450FM-12+000799999V0201601N012319999999N9999999N1+02181+99999101341ADDAA199000091MA1999999101271MD1710091+9999REMSYN054AAXX  10144 94290 35/// /1624 10218 30127 40134 57009;EQDQ01  00002PRCP99
0125942900999992000061212004-17720+148450FM-12+000799999V0201001N012319999999N9999999N1+02381+99999101931ADDAA199000091MA1999999101861MD1210091+9999REMSYN054AAXX  12124 94290 35/// /1024 10238 30186 40193 52009;EQDQ01  00002PRCP99
0125942900999992000061223004-17720+148450FM-12+000799999V0201001N012919999999N9999999N1+02381+99999101991ADDAA199000091MA1999999101921MD1210221+9999REMSYN054AAXX  12234 94290 35/// /1025 10238 30192 40199 52022;EQDQ01  00002PRCP99
0125942900999992000062115004-17720+148450FM-12+000799999V0201301N007719999999N9999999N1+02271+99999101691ADDAA199000091MA1999999101621MD1710071+9999REMSYN054AAXX  21154 94290 35/// /1315 10227 30162 40169 57007;EQDQ01  00002PRCP99
0125942900999992000062308004-17720+148450FM-12+000799999V0201201N009819999999N9999999N1+02381+99999101661ADDAA199000091MA1999999101591MD1210151+9999REMSYN054AAXX  23084 94290 35/// /1219 10238 30159 40166 52015;EQDQ01  00002PRCP99
0125942900999992000062418004-17720+148450FM-12+000799999V0201301N011819999999N9999999N1+02241+99999101541ADDAA199000091MA1999999101471MD1710131+9999REMSYN054AAXX  24184 94290 35/// /1323 10224 30147 40154 57013;EQDQ01  00002PRCP99
0125942900999992000120509004-17720+148450FM-12+000799999V0201201N012319999999N9999999N1+02511+99999101121ADDAA199000091MA1999999101051MD1210181+9999REMSYN054AAXX  05094 94290 35/// /1224 10251 30105 40112 52018;EQDQ01  00002PRCP99
0125942900999992000120523004-17720+148450FM-12+000799999V0201101N009819999999N9999999N1+02661+99999101191ADDAA199000091MA1999999101121MD1210111+9999REMSYN054AAXX  05234 94290 35/// /1119 10266 30112 40119 52011;EQDQ01  00002PRCP99
0125942900999992000120720004-17720+148450FM-12+000799999V0201101N007219999999N9999999N1+02561+99999100871ADDAA199000091MA1999999100801MD1210081+9999REMSYN054AAXX  07204 94290 35/// /1114 10256 30080 40087 52008;EQDQ01  00002PRCP99
0125942900999992000120803004-17720+148450FM-12+000799999V0201201N005119999999N9999999N1+02631+99999100781ADDAA199000091MA1999999100711MD1710131+9999REMSYN054AAXX  08034 94290 35/// /1210 10263 30071 40078 57013;EQDQ01  00002PRCP99
0125942900999992000121215004-17720+148450FM-12+000799999V0200801N007219999999N9999999N1+02561+99999100721ADDAA199000091MA1999999100651MD1710161+9999REMSYN054AAXX  12154 94290 35/// /0814 10256 30065 40072 57016;EQDQ01  00002PRCP99
0125942900999992000121903004-17720+148450FM-12+000799999V0201101N010319999999N9999999N1+02701+99999100741ADDAA199000091MA1999999100671MD1710091+9999REMSYN054AAXX  19034 94290 35/// /1120 10270 30067 40074 57009;EQDQ01  00002PRCP99
0125942900999992000122209004-17720+148450FM-12+000799999V0201101N008719999999N9999999N1+02561+99999100941ADDAA199000091MA1999999100871MD1210101+9999REMSYN054AAXX  22094 94290 35/// /1117 10256 30087 40094 52010;EQDQ01  00002PRCP99
0125942900999992000122712004-17720+148450FM-12+000799999V0202601N002619999999N9999999N1+02731+99999100611ADDAA199000091MA1999999100541MD1210161+9999REMSYN054AAXX  27124 94290 35/// /2605 10273 30054 40061 52016;EQDQ01  00002PRCP99
0125942900999992000122900004-17720+148450FM-12+000799999V0203601N007219999999N9999999N1+02881+99999100611ADDAA199000091MA1999999100541MD1210061+9999REMSYN054AAXX  29004 94290 35/// /3614 10288 30054 40061 52006;EQDQ01  00002PRCP99
0125942900999992000122915004-17720+148450FM-12+000799999V0203501N005119999999N9999999N1+02771+99999100561ADDAA199000091MA1999999100491MD1710101+9999REMSYN054AAXX  29154 94290 35/// /3510 10277 30049 40056 57010;EQDQ01  00002PRCP99
0131942910999992000012723004-17520+146020FM-12+000499999V0200201N001512200019N0250001N1+02851+02481999999ADDAA124000791AY101999AY201999GF103991021011008001001061MW1051REMSYN060AAXX  27234 94291 11575 30203 10285 20248 69904 70500 82106;
0131942910999992000020405004-17520+146020FM-12+000499999V0201301N006710120019N0200001N1+02901+02411999999ADDAA106001091AY181999AY221999GF107991071011012501999999MW1031REMSYN060AAXX  04054 94291 11670 71313 10290 20241 60011 70382 871//;
0144942910999992000030623004-17520+146020FM-12+000499999V0202501N001512200019N0450001N1+02601+02381999999ADDAA199000091AY141999AY201999GF102991011011012501001051MW1031REMSYN054AAXX  06234 94291 31683 22503 10260 20238 70340 81105;EQDQ01  00002PRCP99
0144942910999992000081405004-17510+146020FM-12+000499999V0201301N005112200019N0250001N1+02361+01611999999ADDAA199000091AY111999AY211999GF104991041011008001001051MW1051REMSYN054AAXX  14054 94291 31575 41310 10236 20161 70511 84105;EQDQ01  00002PRCP99
0114942910999992000081820004-17510+146020FM-12+000499999V0203101N000510075019N0300001N1+01911+01761999999ADDAY111999AY211999GF106991051011008001001051MW1031REMSYN054AAXX  18204 94291 41580 63101 10191 20176 70311 85105;
0131942910999992000091923004-17510+146020FM-12+000499999V0201101N002110075019N0200001N1+02121+01901999999ADDAA124000791AY121999AY221999GF107991071011008001999999MW1031REMSYN060AAXX  19234 94291 11570 71104 10212 20190 69904 70322 871//;
0144942910999992000102105004-17510+146020FM-12+000499999V0201301N003610150019N0250001N1+02701+02001999999ADDAA199000091AY121999AY221999GF107991051081012501081061MW1011REMSYN054AAXX  21054 94291 31675 71307 10270 20200 70122 85886;EQDQ01  00002PRCP99
0131942910999992000112923004-17510+146020FM-12+000499999V0209999V001010120019N0300001N1+02611+02081999999ADDAA124003091AY121999AY221999GF107991071011012501999999MW1031REMSYN060AAXX  29234 94291 11680 79902 10261 20208 60034 70322 871//;
0161942920999992000040320004-18250+146020FM-12+000799999V0201101N001010450019N0050001N1+02391+02361101131ADDAY161999AY261999GF108991011071002501021999MA1999999101061MD1510001+9999MW1611REMSYN072AAXX  03204 94292 41350 81102 10239 20236 30106 40113 55000 76166 8172/;
0178942920999992000042523004-18250+146020FM-12+000799999V0201301N012910450019N0200001N1+02211+02021101521ADDAA124041991AY161999AY261999GF108991011071002501021999MA1999999101451MD1110121+9999MW1021REMSYN078AAXX  25234 94292 11370 81325 10221 20202 30145 40152 51012 60424 70266 8172/;
0191942920999992000051417004-18250+146020FM-12+000799999V0209999C000012200019N0300001N1+01681+01611101611ADDAA199000091AY111999AY211999GF103991001001999999001021MA1999999101541MD1710131+9999MW1011REMSYN072AAXX  14174 94292 31/80 30000 10168 20161 30154 40161 57013 70111 80002;EQDQ01  00002PRCP99
0178942920999992000052023004-18250+146020FM-12+000799999V0201301N005110450019N0200001N1+02381+01841101921ADDAA124000791AY121999AY221999GF108991041051004501071001MA1999999101851MD1210151+9999MW1031REMSYN078AAXX  20234 94292 11470 81310 10238 20184 30185 40192 52015 69904 70322 84570;
0201942920999992000060117004-18250+146020FM-12+000799999V0209999C000012200019N0300001N1+00751+00711101691ADDAA199000091AY101999AY201999GA1001+999999999GF100991001001999999001001MA1999999101621MD1710051+9999MW1021REMSYN066AAXX  01174 94292 31980 00000 10075 20071 30162 40169 57005 70200;EQDQ01  00002PRCP99
0191942920999992000072623004-18250+146020FM-12+000799999V0202301N002619999999N0400001N1+02051+00681101751ADDAA199000091AY121999AY221999GF107991071001999999051001MA1999999101681MD1210271+9999MW1021REMSYN072AAXX  26234 94292 31/82 72305 10205 20068 30168 40175 52027 70222 87050;EQDQ01  00002PRCP99
0178942920999992000111423004-18250+146020FM-12+000799999V0200901N002612200019N0500001N1+02621+02281101121ADDAA124013091AY101999AY201999GF103991031041004501001021MA1999999101051MD1210121+9999MW1031REMSYN078AAXX  14234 94292 11484 30905 10262 20228 30105 40112 52012 60134 70300 83402;
0161942920999992000121420004-18250+146020FM-12+000799999V0202001N001010021019N0450001N1+02441+02371100931ADDAY181999AY281999GF108991061021002501071999MA1999999100861MD1310171+9999MW1021REMSYN072AAXX  14204 94292 41383 82002 10244 20237 30086 40093 53017 70288 8627/;
0263942940999992000010114004-19250+146750SY-MT+0006YBTL V0202401N002112200019N0250001N1+02481+02101100681ADDAY101999AY201999GF101991011001999999031011KA1999M+03351MA1100611100581MD1210051+9999MW1021REMSYN082AAXX  01144 94294 41975 12404 10248 20210 30058 40068 52005 70200 81031 333 10335;MET054YBTL 1400Z 24004KT CAVOK 25/21 Q1006 RMK RF00.0/000.0;EQDQ01    003PRSWM1
0300942940999992000010208004-19250+146750SY-MT+0006YBTL V0200701N005712200019N0250001N1+02931+02371100621ADDAY101999AY201999GA1021+015009999GF199999011011017501031011MA1100611100521MD1310021+9999MW1021REMSYN072AAXX  02084 94294 41775 10711 10293 20237 30052 40062 53002 70200 81131;MET066YBTL 0800Z 07011KT 9999 FEW050 29/24 Q1006 RMK RF00.0/000.0 NOSIG;EQDQ01+000012SCOTCVQ02+000000PRSWM2Q03    003PRSWM1
0321942940999992000010517004-19250+146750SY-MT+0006YBTL V0203501N000512200019N0200001N1+02491+02241100711ADDAA106000091AY101999AY201999GA1021+006009999GF199999011081008001001011MA1100711100611MD1710241+9999MW1021REMSYN072AAXX  05174 94294 31570 13501 10249 20224 30061 40071 57024 70200 81801;MET060YBTL 1700Z 35001KT 9999 FEW020 25/22 Q1007 RMK RF00.0/000.0;EQDQ01+000012SCOTCVQ02+000000PRSWM2Q03  00002PRCP06Q04    003PRSWM1
0220942940999992000010606004-19250+146750SY-MT+0006YBTL V0200601N006712200019N0112651N1+02991+02201100571ADDGA1021+009009999GF102991999999999999999999MA1100511100471MW1001REMSYN054AAXX  06064 94294 46/// /0613 10299 20220 30047 40057;MET066YBTL 0600Z 06013KT 9999 FEW030 30/22 Q1005 RMK RF00.0/000.0 NOSIG;EQDQ01+000000PRSWM2
0183942940999992000010607004-19250+146750FM-15+0006YBTL V0200401N007210900019N0112651N1+02901+02201999999ADDGA1021+007509999GA2071+090009999GF107991999999999999999999MA1100511999999MW1001REMMET073YBTL 0700Z 04014KT 9999 FEW025 BKN300 29/22 Q1005 RMK RF00.0/000.0 NOSIG;EQDQ01+000000PRSWM2
0307942940999992000011002004-19250+146750SY-MT+0006YBTL V0200701N008210450019N0200001N1+03081+02181100791ADDAY121999AY221999GA1021+009009999GF105991031081008001031021KA1999N+02541MA1100811100691MD1810121+9999MW1021REMSYN082AAXX  10024 94294 41570 50716 10308 20218 30069 40079 58012 70222 83832 333 20254;MET066YBTL 0200Z 07016KT 9999 FEW030 31/22 Q1008 RMK RF00.0/000.0 NOSIG;EQDQ01+000000PRSWM2Q02    003PRSWM1
0220942940999992000011510004-19250+146750FM-15+0006YBTL V0200301N003612200019N0112651N1+02601+02101999999ADDGA1021+007509999GA2021+036009999GF104991999999999999999999MA1100911999999MW1001REMMET110YBTL 1000Z 03007KT 9999 FEW025 SCT120 26/21 Q1009 RMK RF00.0/000.0 NOSIG RMK USE TAF FOR ARRIVALS AFTER 1130Z;EQDQ01+000000PRSWM2
0377942940999992000012308004-19250+146750SY-MT+0006YBTL V0200601N00511075001CN0300001N1+02951+02401100441ADDAY101999AY201999GA1021+009009999GA2021+036009999GA3071+075009999GF107991011021008001031081MA1100411100341MD1310101+9999MW1011REMSYN072AAXX  23084 94294 41580 70610 10295 20240 30034 40044 53010 70100 81238;MET127YBTL 0800Z 06010KT 9999 FEW030 SCT120 BKN250 29/24 Q1004 RMK RF00.0/000.0 CB TOPS SE TEMPO 1000/1100 3000 TSRA BKN010 FEW030CB;EQDQ01+000000PRSWM2Q02    003PRSWM1
0292942940999992000012802004-19250+146750SY-MT+0006YBTL V0203401N002612200019N0200001N1+03051+02341100731ADDAY111999AY211999GA1021+010509999GF103991031081012501001001KA1999N+02541MA1100711100631MD1710171+9999MW1021REMSYN082AAXX  28024 94294 41670 33405 10305 20234 30063 40073 57017 70211 83800 333 20254;MET051YBTL 280200Z 34005KT 9999 SCT035 31/23 Q1007 NOSIG;EQDQ01+000000PRSWM2Q02    003PRSWM1
0219942940999992000013106004-19250+146750SY-MT+0006YBTL V0200701N009312200019N0112651N1+03071+02291100881ADDGA1021+012009999GF102991999999999999999999MA1100811100781MW1001REMSYN054AAXX  31064 94294 46/// /0718 10307 20229 30078 40088;MET065YBTL 0600Z 07018KT 9999 FEW040 31/23 Q1008 RMK RF00.0////./NOSIG;EQDQ01+000000PRSWM2
0341942940999992000020617004-19250+146750SY-MT+0006YBTL V0201501N00511009001CN0200001N1+02421+02181101171ADDAA106000191AY121999AY221999GA1021+004209999GA2071+009009999GA3081+042009999GF108991071071004501021999MA1101081101071MD1710151+9999MW1021REMSYN078AAXX  06174 94294 11470 81510 10242 20218 30107 40117 57015 69921 70222 8772/;MET074YBTL 1700Z 15010KT 9999 FEW014 BKN030 OVC140 24/22 Q1011 RMK RF00.0/026.6;EQDQ01+000000PRSWM2Q02    003PRSWM1
0105942940999992000020807004-19250+146750FM-15+0006YBTL V0201001N008212200019N0112651N1+02901+02101999999ADDMA1101191999999MW1001REMMET053YBTL 0700Z 10016KT //// 29/21 Q1012 RMK RF00.0/000.2;EQDQ01+000000PRSWM2
0222942940999992000020812004-19250+146750SY-MT+0006YBTL V0201201N007210420019N0112651N1+02621+02021101491ADDGA1021+009009999GA2071+042009999GF107991999999999999999999MA1101391101391MW1001REMSYN054AAXX  08124 94294 46/// /1214 10262 20202 30139 40149;MET052YBTL 081200Z 12014KT 9999 FEW030 BKN140 26/20 Q1014;EQDQ01+000000PRSWM2
0090942940999992000021716004-19250+146750FM-15+0006YBTL V0203101N002112200019N0112651N1+02401+02401999999ADDMA1101081999999MW1001REMMET038YBTL 171600Z 31004KT //// 24/24 Q1011;EQDQ01+000000PRSWM2
0211942940999992000021807004-19250+146750FM-15+0006YBTL V0200601N004110300019N0112651N1+02701+02501999999ADDGA1021+004509999GA2071+030009999GF107991999999999999999999MA1101021999999MW1001REMMET101YBTL 0700Z 06008KT 9999 SCT015 BKN100 27/25 Q1010 RMK RF00.0/002.2 TEMPO 0800/1000 3000 +SHRA BKN010;EQDQ01+000000PRSWM2
0243942940999992000021821004-19250+146750SY-MT+0006YBTL V0202101N001512200019N0112651N1+02361+02321101131ADDGA1021+000309999GA2021+030009999GF104991999999999999999999MA1101081101031MW1001REMSYN054AAXX  18214 94294 46/// /2103 10236 20232 30103 40113;MET073YBTL 2100Z 21003KT 9999 FEW001 SCT100 24/23 Q1011 RMK RF00.0/107.2 NOSIG;EQDQ01+000000PRSWM2
0222942940999992000022413004-19250+146750FM-15+0006YBTL V0201401N005110300019N0080001N1+02501+02301999999ADDGA1021+003009999GA2021+005409999GA3081+030009999GF108991999999999999999999MA1100911999999MW1801REMMET080YBTL 1300Z 14010KT 8000 -SHRA FEW010 SCT018 OVC100 25/23 Q1009 RMK RF00.6/004.6;EQDQ01+000003PRSWM1Q02    003PRSWM1
0351942940999992000022723004-19250+146750SY-MT+0006YBTL V0201201N006710450019N0120001N1+02641+02381101111ADDAA124023191AY181999AY221999GA1021+002409999GA2021+004809999GF105991031021002501031021MA1101081101011MD1210171+9999MW1151REMSYN078AAXX  27234 94294 11362 51213 10264 20238 30101 40111 52017 60234 71582 83232;MET100YBTL 2300Z 12013KT 9999 FEW008 SCT016 26/24 Q1011 RMK RF00.0/023.2 INTER 2300/0200 4000 SHRA BKN010;EQDQ01+000000PRSWM2Q02    003PRSWM1
0262942940999992000032717004-19250+146750SY-MT+0006YBTL V0202101N002612200019N0350001N1+02331+02191101141ADDAA199000091AY101999AY201999GF100991001001999999001001MA1101081101041MD1710031+9999MW1021REMSYN066AAXX  27174 94294 31981 02105 10233 20219 30104 40114 57003 70200;MET039YBTL 271700Z 21005KT CAVOK 23/22 Q1011;EQDQ01+000000PRSWM2Q02  00002PRCP99Q03    003PRSWM1
0154942940999992000040113004-19250+146750FM-15+0006YBTL V0209999C000012200019N0112651N1+02601+02301999999ADDGA1021+010509999GF104991999999999999999999MA1101021999999MW1001REMMET060YBTL 1300Z 00000KT 9999 SCT035 26/23 Q1010 RMK RF00.0/000.0;EQDQ01+000000PRSWM2
0282942940999992000040509004-19250+146750SY-MT+0006YBTL V0201101N002110360019N0112651N1+02631+02231101091ADDGA1021+007509999GA2071+036009999GF107991999999999999999999MA1101021100991MW1001REMSYN054AAXX  05094 94294 46/// /1104 10263 20223 30099 40109;MET112YBTL 0900Z 11004KT 9999 FEW025 BKN120 26/22 Q1010 RMK RF00.0/000.0 NOSIG RMK USE TAF FOR ARRIVALS AFTER 1130UTC;EQDQ01+000000PRSWM2
0189942940999992000040910004-19250+146750FM-15+0006YBTL V0201201N004110105019N0112651N1+02601+02301999999ADDGA1021+006009999GA2071+010509999GF107991999999999999999999MA1101491999999MW1161REMMET063YBTL 091000Z 12008KT 9999 VCSH SCT020 BKN035 26/23 Q1015 NOSIG;EQDQ01+000003PRSWM1Q02    003PRSWM1
0168942940999992000041000014-19250+146750FM-15+0006YBTL V0201401N005110210019N0112651N1+02701+02301999999ADDGA1021+004809999GA2071+021009999GF107991999999999999999999MA1101691999999MW1001REMMET058YBTL 100001Z 14010KT 9999 FEW016 BKN070 27/23 Q1017 NOSIG;EQDQ01+000000PRSWM2
0250942940999992000041921304-19250+146750FM-15+0006YBTL V0201201N004110066019N0040001N1+02301+02201999999ADDGA1021+004809999GA2071+006609999GF107991999999999999999999MA1101291999999MW1801REMMET124YBTL 192130Z 12008KT 4000 -SHRA FEW016 BKN022 23/22 Q1013 FM2130 12008KT 9000 -SHRA BKN022 INTER 2130/0030 4000 SHRA BKN012;EQDQ01+000003PRSWM1Q02    003PRSWM1
0266942940999992000042003004-19250+146750SY-MT+0006YBTL V0201101N003610360019N0112651N1+02531+01871101381ADDGA1021+004509999GA2021+015009999GA3071+036009999GF107991999999999999999999MA1101291101281MW1001REMSYN054AAXX  20034 94294 46/// /1107 10253 20187 30128 40138;MET080YBTL 0300Z 11007KT 9999 FEW015 SCT050 BKN120 25/19 Q1013 RMK RF00.0/000.2 NOSIG;EQDQ01+000000PRSWM2
0233942940999992000042422004-19250+146750FM-15+0006YBTL V0201501N006710300019N0112651N1+02301+01801999999ADDGA1021+006009999GA2021+015009999GA3071+030009999GF107991999999999999999999MA1101591999999MW1001REMMET107YBTL 2200Z 15013KT 9999 FEW020 SCT050 BKN100 23/18 Q1016 RMK RF00.0/005.6 INTER 2300/0100 4000 SHRA BKN012;EQDQ01+000000PRSWM2
0266942940999992000042721004-19250+146750SY-MT+0006YBTL V0201701N005110090019N0112651N1+02201+01751101351ADDGA1021+006009999GA2071+009009999GA3071+036009999GF107991999999999999999999MA1101291101251MW1001REMSYN054AAXX  27214 94294 46/// /1710 10220 20175 30125 40135;MET080YBTL 2100Z 17010KT 9999 FEW020 BKN030 BKN120 22/17 Q1013 RMK RF00.0/006.8 NOSIG;EQDQ01+000000PRSWM2
0199942940999992000042818004-19250+146750SY-MT+0006YBTL V0201701N002112200019N0112651N1+02091+01751101151ADDGA1021+009009999GF102991999999999999999999MA1101081101051MW1001REMSYN054AAXX  28184 94294 46/// /1704 10209 20175 30105 40115;MET045YBTL 281800Z 17004KT 9999 FEW030 21/17 Q1011;EQDQ01+000000PRSWM2
0105942940999992000050122004-19250+146750FM-15+0006YBTL V0202401N003612200019N0112651N1+02501+02001999999ADDMA1101021999999MW1001REMMET053YBTL 2200Z 24007KT //// 25/20 Q1010 RMK RF00.0/000.0;EQDQ01+000000PRSWM2
0183942940999992000050222004-19250+146750FM-15+0006YBTL V0209999C000010150019N0112651N1+02501+02201999999ADDGA1021+009009999GA2071+015009999GF107991999999999999999999MA1100911999999MW1001REMMET073YBTL 2200Z 00000KT 9999 FEW030 BKN050 25/22 Q1009 RMK RF00.0/000.0 NOSIG;EQDQ01+000000PRSWM2
0166942940999992000050618004-19250+146750SY-MT+0006YBTL V0202101N006719999999Y0099001N1+02191+01721101541ADDMA1101491101441MW1001REMSYN054AAXX  06184 94294 46/// /2113 10219 20172 30144 40154;MET054YBTL 1800Z 21013KT CAVOK 22/17 Q1015 RMK RF00.0/000.0;EQDQ01+000000PRSWM2
0165942940999992000050815004-19250+146750SY-MT+0006YBTL V0201201N007719999999N0150001N1+02351+01791101871ADDMA1101801101771MW1001REMSYN054AAXX  08154 94294 46/// /1215 10235 20179 30177 40187;MET053YBTL 1500Z 12015KT //// 23/18 Q1018 RMK RF00.0/000.0;EQDQ01+000000PRSWM2
0313942940999992000050917004-19250+146750SY-MT+0006YBTL V0201701N002612200019N0200001N1+02091+01651101751ADDAA199000091AY111999AY211999GA1021+007509999GA2021+012009999GF104991041081008001001001MA1101691101651MD1710111+9999MW1021REMSYN072AAXX  09174 94294 31570 41705 10209 20165 30165 40175 57011 70211 84800;MET052YBTL 091700Z 17005KT 9999 FEW025 SCT040 21/17 Q1017;EQDQ01+000000PRSWM2Q02  00002PRCP99Q03    003PRSWM1
0185942940999992000051913004-19250+146750FM-15+0006YBTL V0201301N004610360019N0112651N1+02301+01701999999ADDGA1021+009009999GA2021+018009999GA3071+036009999GF107991999999999999999999MA1101901999999MW1001REMMET059YBTL 191300Z 13009KT 9999 FEW030 SCT060 BKN120 23/17 Q1019;EQDQ01+000000PRSWM2
0228942940999992000052021004-19250+146750SY-MT+0006YBTL V0201601N002110300019N0112651N1+02011+01651101881ADDGA1021+010509999GA2071+030009999GF107991999999999999999999MA1101801101781MW1001REMSYN054AAXX  20214 94294 46/// /1604 10201 20165 30178 40188;MET058YBTL 202100Z 16004KT 9999 FEW035 BKN100 20/17 Q1018 NOSIG;EQDQ01+000000PRSWM2
0191942940999992000052117004-19250+146750FM-12+0006YBTL V0209999C000010120019N0300001N1+02121+01921101791ADDAA199000091AY121999AY221999GF108991081081008001999999MA1999999101691MD1710171+9999MW1021REMSYN072AAXX  21174 94294 31580 80000 10212 20192 30169 40179 57017 70222 888//;EQDQ01  00002PRCP99
0331942940999992000052220004-19250+146750SY-MT+0006YBTL V0201801N00261090001CN0250001N1+01961+01651101821ADDAY121999AY221999GA1021+007509999GA2021+036009999GA3071+090009999GF199999011081008001031021MA1101801101721MD1510021+9999MW1031REMSYN072AAXX  22204 94294 41575 61805 10196 20165 30172 40182 55002 70322 81832;MET065YBTL 222000Z 18005KT 9999 FEW025 SCT120 BKN300 20/17 Q1018 NOSIG;EQDQ01+000062SCOTCVQ02+000000PRSWM2Q03    003PRSWM1
0205942940999992000052303004-19250+146750SY-MT+0006YBTL V0200701N008712200019N0112651N1+02631+01681101671ADDGA1021+012009999GF102991999999999999999999MA1101591101571MW1001REMSYN054AAXX  23034 94294 46/// /0717 10263 20168 30157 40167;MET051YBTL 230300Z 07017KT 9999 FEW040 26/17 Q1016 NOSIG;EQDQ01+000000PRSWM2
0151942940999992000052812004-19250+146750SY-MT+0006YBTL V0202001N004119999999Y0099001N1+01701+00481101911ADDMA1101801101811MW1001REMSYN054AAXX  28124 94294 46/// /2008 10170 20048 30181 40191;MET039YBTL 281200Z 20008KT CAVOK 17/05 Q1018;EQDQ01+000000PRSWM2
0090942940999992000052916004-19250+146750FM-15+0006YBTL V0209999C000012200019N0112651N1+01101+00501999999ADDMA1101691999999MW1001REMMET038YBTL 291600Z 00000KT //// 11/05 Q1017;EQDQ01+000000PRSWM2
0097942940999992000053010004-19250+146750FM-15+0006YBTL V0201701N00571220001CN0099001N1+01801+00301999999ADDMA1101591999999MW1001REMMET045YBTL 301000Z 17011KT CAVOK 18/03 Q1016 NOSIG;EQDQ01+000000PRSWM2
0150942940999992000053015004-19250+146750SY-MT+0006YBTL V0202001N004119999999N0099001N1+01621+00421101711ADDMA1101591101611MW1001REMSYN054AAXX  30154 94294 46/// /2008 10162 20042 30161 40171;MET038YBTL 301500Z 20008KT //// 16/04 Q1016;EQDQ01+000000PRSWM2
0270942940999992000060302004-19250+146750SY-MT+0006YBTL V0201401N003112200019N0500001N1+02071+00501101871ADDAY101999AY201999GF102991021051017501001001KA1999N+00691MA1101801101761MD1810061+9999MW1031REMSYN082AAXX  03024 94294 41784 21406 10207 20050 30176 40187 58006 70300 82500 333 20069;MET045YBTL 030200Z 14006KT CAVOK 21/05 Q1018 NOSIG;EQDQ01+000000PRSWM2Q02    003PRSWM1
0097942940999992000060322004-19250+146750FM-15+0006YBTL V0209999C00001220001CN0099001N1+01501+01001999999ADDMA1101801999999MW1001REMMET045YBTL 032200Z 00000KT CAVOK 15/10 Q1018 NOSIG;EQDQ01+000000PRSWM2
0097942940999992000060422004-19250+146750FM-15+0006YBTL V0209999C00001220001CN0099001N1+01601+01401999999ADDMA1101901999999MW1001REMMET045YBTL 042200Z 00000KT CAVOK 16/14 Q1019 NOSIG;EQDQ01+000000PRSWM2
0191942940999992000060719004-19250+146750FM-15+0006YBTL V0201901N004110420019N0112651N1+01501+01101999999ADDGA1021+015009999GA2021+036009999GA3081+042009999GF108991999999999999999999MA1102001999999MW1001REMMET065YBTL 071900Z 19008KT 9999 FEW050 SCT120 OVC140 15/11 Q1020 NOSIG;EQDQ01+000000PRSWM2
0193942940999992000061014004-19250+146750SY-MT+0006YBTL V0201801N006219999999N0112651N1+01681+01291101701ADDKA1999M+01951MA1101691101591MD1710041+9999MW1001REMSYN070AAXX  10144 94294 45/// /1812 10168 20129 30159 40170 57004 333 10195;MET038YBTL 101400Z 18012KT //// 17/13 Q1017;EQDQ01+000000PRSWM2
0193942940999992000061514004-19250+146750SY-MT+0006YBTL V0201401N003119999999N0112651N1+01911+01291102401ADDKA1999M+02301MA1102401102291MD1710021+9999MW1001REMSYN070AAXX  15144 94294 45/// /1406 10191 20129 30229 40240 57002 333 10230;MET038YBTL 151400Z 14006KT //// 19/13 Q1024;EQDQ01+000000PRSWM2
0322942940999992000062205004-19250+146750SY-MT+0006YBTL V0200401N00411007501CN0150001N1+02431+02051101701ADDAA112000791AY121999AY221999GA1021+004509999GA2071+007509999GA3071+015009999GF107991071081004501999999MA1101691101591MD1710191+9999MW1801REMSYN078AAXX  22054 94294 11465 70408 10243 20205 30159 40170 57019 69902 78022 878//;MET071YBTL 220500Z 04008KT 9999 -SHRA FEW015 BKN025 BKN050 24/21 Q1017 NOSIG;EQDQ01    003PRSWM1
0275942940999992000063011004-19250+146750SY-MT+0006YBTL V0201801N00261220001CN0300001N1+01441-00031101991ADDAA199000091AY101999AY201999GF102991001001999999001011MA1101901101881MD1210191+9999MW1021REMSYN072AAXX  30114 94294 31/80 21805 10144 21003 30188 40199 52019 70200 80001;MET046YBTL 301100Z 18005KT CAVOK 14/M00 Q1019 NOSIG;EQDQ01+000000PRSWM2Q02  00002PRCP99Q03    003PRSWM1
0097942940999992000063019004-19250+146750FM-15+0006YBTL V0202901N00261220001CN0099001N1+00801+00401999999ADDMA1101901999999MW1001REMMET045YBTL 301900Z 29005KT CAVOK 08/04 Q1019 NOSIG;EQDQ01+000000PRSWM2
0191942940999992000072211004-19250+146750FM-12+0006YBTL V0201401N003112200019N0400001N1+01831+01681101961ADDAA199000091AY101999AY201999GF101991011061004501001001MA1999999101851MD1210151+9999MW1021REMSYN072AAXX  22114 94294 31482 11406 10183 20168 30185 40196 52015 70200 81600;EQDQ01  00002PRCP99
0145942940999992000080422004-19250+146750FM-15+0006YBTL V0201501N002612200019N0112651N1+01901+01501999999ADDGA1021+007509999GF102991999999999999999999MA1101901999999MW1001REMMET051YBTL 042200Z 15005KT 9999 FEW025 19/15 Q1019 NOSIG;EQDQ01+000000PRSWM2
0199942940999992000080512004-19250+146750SY-MT+0006YBTL V0209999C000012200019N0112651N1+01841+01671101861ADDGA1021+006009999GF102991999999999999999999MA1101801101761MW1001REMSYN054AAXX  05124 94294 46/// /0000 10184 20167 30176 40186;MET045YBTL 051200Z 00000KT 9999 FEW020 18/17 Q1018;EQDQ01+000000PRSWM2
0367942940999992000080923004-19250+146750SY-MT+0006YBTL V0201301N003112200019N0200001N1+02071+01691101971ADDAA199000091AY101999AY201999GA1021+004509999GF199999011011004501999999KA1999M+99999MA1101901101861MD1210201+9999MW1401MW2411REMSYN072AAXX  09234 94294 31470 11306 10207 20169 30186 40197 52020 74000 811//;MET087YBTL 092300Z 13006KT 9999 BCFG FEW015 21/17 Q1019 FM2300 10005KT 9999 NO SIG WX FEW020;EQDQ01+000012SCOTCVQ02  00002PRCP99Q03    003PRSWM1Q04 +00052ATMX  
0150942940999992000081115004-19250+146750SY-MT+0006YBTL V0209999C000019999999N0100001N1+01551+01481101991ADDMA1101901101891MW1001REMSYN054AAXX  11154 94294 46/// /0000 10155 20148 30189 40199;MET038YBTL 111500Z 00000KT //// 15/15 Q1019;EQDQ01+000000PRSWM2
0081942940999992000081306004-19250+146750FM-12+0006YBTL V0200601N007719999999N9999999N1+02361+01511101841ADDMA1999999101741REMSYN054AAXX  13064 94294 46/// /0615 10236 20151 30174 40184;
0312942940999992000081323004-19250+146750SY-MT+0006YBTL V0201601N001512200019N0250001N1+02071+01431102061ADDAA199000091AY141999AY241999GA1021+005409999GF199999011011004501001001MA1102001101951MD1210141+9999MW1021REMSYN072AAXX  13234 94294 31475 11603 10207 20143 30195 40206 52014 70244 81100;MET051YBTL 132300Z 15003KT 9999 FEW018 21/14 Q1020 NOSIG;EQDQ01+000012SCOTCVQ02+000000PRSWM2Q03  00002PRCP99Q04    003PRSWM1
0293942940999992000082017004-19250+146750SY-MT+0006YBTL V0209999C000012200019N0020001N1+01491+01481101261ADDAA199000091AY101999AY201999GA1021+006009999GF199999011051008001001001MA1101191101151MD1710101+9999MW1101REMSYN072AAXX  20174 94294 31520 10000 10149 20148 30115 40126 57010 71000 81500;MET048YBTL 201700Z 00000KT 2000 BR FEW020 15/15 Q1012;EQDQ01+000012SCOTCVQ02  00002PRCP99Q03    003PRSWM1
0151942940999992000082518004-19250+146750SY-MT+0006YBTL V0209999C000019999999Y0099001N1+01071+00871101471ADDMA1101391101371MW1001REMSYN054AAXX  25184 94294 46/// /0000 10107 20087 30137 40147;MET039YBTL 251800Z 00000KT CAVOK 11/09 Q1014;EQDQ01+000000PRSWM2
0097942940999992000083104004-19250+146750FM-15+0006YBTL V0200501N00461220001CN0099001N1+02901+01601999999ADDMA1101191999999MW1001REMMET045YBTL 310400Z 05009KT CAVOK 29/16 Q1012 NOSIG;EQDQ01+000000PRSWM2
0269942940999992000090420004-19250+146750SY-MT+0006YBTL V0209999C000012200019N0200001N1+01631+01481101571ADDAY101999AY201999GA1021+006009999GF102991021011008001001001MA1101491101461MD1210041+9999MW1021REMSYN072AAXX  04204 94294 41570 20000 10163 20148 30146 40157 52004 70200 82100;MET051YBTL 042000Z 00000KT 9999 FEW020 16/15 Q1015 NOSIG;EQDQ01+000000PRSWM2Q02    003PRSWM1
0150942940999992000090515004-19250+146750SY-MT+0006YBTL V0200301N002119999999N9999999N1+02011+01701101521ADDMA1101391101421MW1001REMSYN054AAXX  05154 94294 46/// /0304 10201 20170 30142 40152;MET038YBTL 051500Z 03004KT //// 20/17 Q1014;EQDQ01+000000PRSWM2
0285942940999992000090608004-19250+146750SY-MT+0006YBTL V0200201N003612200019N0300001N1+02351+01741101341ADDAY101999AY201999GA1021+009009999GF199999011081008001001001MA1101291101231MD1210101+9999MW1021REMSYN072AAXX  06084 94294 41580 10207 10235 20174 30123 40134 52010 70200 81800;MET051YBTL 060800Z 02007KT 9999 FEW030 23/17 Q1013 NOSIG;EQDQ01+000012SCOTCVQ02+000000PRSWM2Q03    003PRSWM1
0274942940999992000091105004-19250+146750SY-MT+0006YBTL V0200501N006212200019N0120001N1+02931+01101101351ADDAA199000091AY101999AY201999GF102991001001999999001011MA1101291101241MD1710281+9999MW1041REMSYN072AAXX  11054 94294 31962 20512 10293 20110 30124 40135 57028 70400 80001;MET045YBTL 110500Z 05012KT CAVOK 29/11 Q1013 NOSIG;EQDQ01+000000PRSWM2Q02  00002PRCP99Q03    003PRSWM1
0205942940999992000091306004-19250+146750SY-MT+0006YBTL V0200501N007212200019N0112651N1+02531+01611101831ADDGA1021+010509999GF102991999999999999999999MA1101801101731MW1001REMSYN054AAXX  13064 94294 46/// /0514 10253 20161 30173 40183;MET051YBTL 130600Z 05014KT 9999 FEW035 25/16 Q1018 NOSIG;EQDQ01+000000PRSWM2
0222942940999992000091912004-19250+146750SY-MT+0006YBTL V0201001N004110900019N0112651N1+02211+01601101901ADDGA1021+009009999GA2071+090009999GF107991999999999999999999MA1101801101801MW1001REMSYN054AAXX  19124 94294 46/// /1008 10221 20160 30180 40190;MET052YBTL 191200Z 10008KT 9999 SCT030 BKN300 22/16 Q1018;EQDQ01+000000PRSWM2
0308942940999992000092208004-19250+146750SY-MT+0006YBTL V0200701N00671075001CN0250001N1+02351+01681101811ADDAY111999AY211999GA1021+006009999GA2071+075009999GF199999011011008001001011MA1101801101701MD1210091+9999MW1031REMSYN072AAXX  22084 94294 41575 50713 10235 20168 30170 40181 52009 70311 81101;MET058YBTL 220800Z 07013KT 9999 FEW020 BKN250 23/17 Q1018 NOSIG;EQDQ01+000052SCOTCVQ02+000000PRSWM2Q03    003PRSWM1
0150942940999992000092315004-19250+146750SY-MT+0006YBTL V0201401N003119999999N0112651N1+02021+01731101911ADDMA1101801101811MW1001REMSYN054AAXX  23154 94294 46/// /1406 10202 20173 30181 40191;MET038YBTL 231500Z 14006KT //// 20/17 Q1018;EQDQ01+000000PRSWM2
0205942940999992000092400004-19250+146750SY-MT+0006YBTL V0200901N007212200019N0112651N1+02671+01601101971ADDGA1021+009009999GF102991999999999999999999MA1101901101871MW1001REMSYN054AAXX  24004 94294 46/// /0914 10267 20160 30187 40197;MET051YBTL 240000Z 09014KT 9999 FEW030 27/16 Q1019 NOSIG;EQDQ01+000000PRSWM2
0145942940999992000092810004-19250+146750FM-15+0006YBTL V0200701N005112200019N0112651N1+02301+01901999999ADDGA1021+005409999GF102991999999999999999999MA1101691999999MW1001REMMET051YBTL 281000Z 07010KT 9999 FEW018 23/19 Q1017 NOSIG;EQDQ01+000000PRSWM2
0199942940999992000100309004-19250+146750SY-MT+0006YBTL V0200801N004612200019N0112651N1+02491+01981101671ADDGA1021+004509999GF102991999999999999999999MA1101591101571MW1001REMSYN054AAXX  03094 94294 46/// /0809 10249 20198 30157 40167;MET045YBTL 030900Z 08009KT 9999 FEW015 25/20 Q1016;EQDQ01+000000PRSWM2
0145942940999992000100509004-19250+146750FM-15+0006YBTL V0201001N007712200019N0112651N1+02401+01901999999ADDGA1021+007509999GF102991999999999999999999MA1101691999999MW1001REMMET051YBTL 050900Z 10015KT 9999 FEW025 24/19 Q1017 NOSIG;EQDQ01+000000PRSWM2
0274942940999992000101505004-19250+146750SY-MT+0006YBTL V0200601N010312200019N0300001N1+02971+01211101001ADDAA199000091AY101999AY201999GF101991011001999999031001MA1101021100901MD1710191+9999MW1021REMSYN072AAXX  15054 94294 31980 10620 10297 20121 30090 40100 57019 70200 81030;MET045YBTL 150500Z 06020KT CAVOK 30/12 Q1010 NOSIG;EQDQ01+000000PRSWM2Q02  00002PRCP99Q03    003PRSWM1
0285942940999992000101508004-19250+146750SY-MT+0006YBTL V0200601N007212200019N0300001N1+02511+01991101141ADDAY101999AY201999GA1021+009009999GF199999011011008001001001MA1101081101041MD1310141+9999MW1021REMSYN072AAXX  15084 94294 41580 10614 10251 20199 30104 40114 53014 70200 81100;MET051YBTL 150800Z 06014KT 9999 FEW030 25/20 Q1011 NOSIG;EQDQ01+000012SCOTCVQ02+000000PRSWM2Q03    003PRSWM1
0306942940999992000101917004-19250+146750SY-MT+0006YBTL V0201201N002612200019N0200001N1+02171+01701101501ADDAA199000091AY101999AY201999GA1021+007509999GF199999011011008001031001MA1101491101401MD1710181+9999MW1021REMSYN072AAXX  19174 94294 31570 11205 10217 20170 30140 40150 57018 70200 81130;MET045YBTL 191700Z 12005KT 9999 FEW025 22/17 Q1015;EQDQ01+000012SCOTCVQ02+000000PRSWM2Q03  00002PRCP99Q04    003PRSWM1
0228942940999992000102100004-19250+146750SY-MT+0006YBTL V0200701N007212200019N0112651N1+02751+01681101511ADDGA1021+009009999GA2021+090009999GF104991999999999999999999MA1101391101411MW1001REMSYN054AAXX  21004 94294 46/// /0714 10275 20168 30141 40151;MET058YBTL 210000Z 07014KT 9999 FEW030 SCT300 27/17 Q1014 NOSIG;EQDQ01+000000PRSWM2
0353942940999992000102320004-19250+146750SY-MT+0006YBTL V0201301N00411002401CN0080001N1+02181+02111101301ADDAY151999AY261999GA1071+002409999GA2081+018009999GF108991081071002501999999MA1101291101201MD1310071+9999MW1511REMSYN072AAXX  23204 94294 41358 81308 10218 20211 30120 40130 53007 75156 887//;MET135YBTL 232000Z 13008KT 3000N 8000 -DZ BKN008 OVC060 22/21 Q1013 FM2000 13008KT 9999 -SHRA SCT008 SCT025 TEMPO 2000/2300 4000 SHRA BKN008;EQDQ01    003PRSWM1
0335942940999992000102811004-19250+146750SY-MT+0006YBTL V0203601N00461084001CN0250001N1+02581+02211101081ADDAA199000091AY121999AY221999GA1021+005409999GA2071+084009999GF199999021011004501031081MA1101021100981MD1210181+9999MW1021REMSYN072AAXX  28114 94294 31475 63609 10258 20221 30098 40108 52018 70222 82138;MET058YBTL 281100Z 36009KT 9999 FEW018 BKN280 26/22 Q1010 NOSIG;EQDQ01+000062SCOTCVQ02+000000PRSWM2Q03  00002PRCP99Q04    003PRSWM1
0228942940999992000110500004-19250+146750SY-MT+0006YBTL V0200301N005110360019N0112651N1+02851+02231101211ADDGA1021+009009999GA2071+036009999GF107991999999999999999999MA1101081101111MW1001REMSYN054AAXX  05004 94294 46/// /0310 10285 20223 30111 40121;MET058YBTL 050000Z 03010KT 9999 SCT030 BKN120 29/22 Q1011 NOSIG;EQDQ01+000000PRSWM2
0321942940999992000110908134-19250+146750FM-16+0006YBTL V0200801N00671220001CN0050001N1+02401+02201999999ADDGA1021+003609999GA2021+007509099GA3071+007509999GA4071+036009999MA1101081999999MW1811MW2951REMMET167YBTL 090813Z 08013KT 5000 TSRA FEW012 BKN025 BKN120 FEW025CB 24/22 Q1011 FM0813 08014KT 8000 RA FEW012 SCT018 BKN120 TEMPO 0813/1113 MAX25KT 2000 TSRA BKN010 SCT025CB;EQDQ01+000022SCOTCVQ02+000003PRSWM1Q03    003PRSWM1
0090942940999992000110913004-19250+146750FM-15+0006YBTL V0200201N002612200019N0020001N1+02401+02101999999ADDMA1101191999999MW1001REMMET038YBTL 091300Z 02005KT //// 24/21 Q1012;EQDQ01+000000PRSWM2
0238942940999992000111010004-19250+146750FM-15+0006YBTL V0201001N006210360019N0112651N1+02301+02101999999ADDGA1021+002409999GA2021+004809999GA3081+036009999GF108991999999999999999999MA1101291999999MW1611REMMET096YBTL 101000Z 10012KT 9999 -RA FEW008 SCT016 OVC120 23/21 Q1013 TEMPO 1000/1300 4000 SHRA BKN010;EQDQ01+000003PRSWM1Q02    003PRSWM1
0314942940999992000111400304-19250+146750FM-15+0006YBTL V0201301N005110075019N0060001N1+02301+02201999999ADDGA1021+004509999GA2071+007509999GA3071+042009999GF107991999999999999999999KA1999M+99999MA1101191999999MW1611REMMET143YBTL 140030Z 13010KT 6000 -RA SCT015 BKN025 BKN140 23/22 Q1012 FM0030 10014KT 9999 -SHRA SCT018 SCT025 BKN060 INTER 0030/0330 4000 SHRA BKN015;EQDQ01+000003PRSWM1Q02    003PRSWM1Q03 +00142ATMX  
0283942940999992000111506004-19250+146750SY-MT+0006YBTL V0201101N009310300019N0112651N1+02601+02231100971ADDGA1021+003609999GA2021+006009999GA3071+030009999GF107991999999999999999999MA1100911100871MW1001REMSYN054AAXX  15064 94294 46/// /1118 10260 20223 30087 40097;MET097YBTL 150600Z 11018KT 9999 FEW012 SCT020 BKN100 26/22 Q1009 TEMPO 0800/0900 3000 RA BKN010 BKN100;EQDQ01+000000PRSWM2
0090942940999992000112113004-19250+146750FM-15+0006YBTL V0209999C000012200019N0099001N1+02601+02401999999ADDMA1100411999999MW1001REMMET038YBTL 211300Z 00000KT //// 26/24 Q1004;EQDQ01+000000PRSWM2
0168942940999992000112122004-19250+146750FM-15+0006YBTL V0201201N003612200019N0112651N1+02901+02601999999ADDGA1021+004809999GA2021+006009999GF104991999999999999999999MA1100611999999MW1001REMMET058YBTL 212200Z 12007KT 9999 FEW016 SCT020 29/26 Q1006 NOSIG;EQDQ01+000000PRSWM2
0311942940999992000112504554-19250+146750FM-15+0006YBTL V0201201N00411220001CN0040001N1+02501+02301999999ADDGA1021+002409999GA2071+006009999GA3021+006009029KA1999M+99999MA1100811999999MW1801REMMET150YBTL 250455Z 12008KT 4000 -SHRA SCT008 BKN020 FEW020TCU 25/23 Q1008 FM0525 11010KT 9999 -SHRA SCT010 BKN020 INTER 0455/0755 3000 TSRA BKN010 SCT020CB;EQDQ01+000022SCOTCVQ02+000003PRSWM1Q03    003PRSWM1Q04 -00102ATMX  
0327942940999992000112517004-19250+146750SY-MT+0006YBTL V0201301N00411007501CN0150001N1+02271+02211101001ADDAA106005191AY161999AY261999GA1021+002409999GA2071+007509999GA3081+036009999GF108991051011002501071999MA1101021100901MD1710141+9999MW1611MW2801REMSYN078AAXX  25174 94294 11365 81308 10227 20221 30090 40100 57014 60051 76166 8517/;MET070YBTL 251700Z 13008KT 9999 -SHRA SCT008 BKN025 OVC120 23/22 Q1010 RERA;EQDQ01    003PRSWM1
0452942940999992000112602004-19250+146750SY-MT+0006YBTL V0201101N002610360019N0080001N1+02341+02251101251ADDAY181999AY261999GA1021+002409999GA2021+006009999GA3081+036009999GF108991061021002501021999KA1999M+99999KA2999N+99999MA1101191101151MD1710011+9999MW1611REMSYN082AAXX  26024 94294 41358 81105 10234 20225 30115 40125 57001 76186 8622/ 333 20223;MET150YBTL 260200Z 11005KT 6000 -RA SCT008 SCT020 OVC120 23/23 Q1012 FM0215 10015KT 9999 -SHRA SCT010 BKN025 BKN110 INTER 0200/0500 3000 SHRA SCT010 BKN015;EQDQ01    003PRSWM1Q02 +00153ATMM  Q03 +02233ATMM  
0090942940999992000112713004-19250+146750FM-15+0006YBTL V0201101N004612200019N0112651N1+02301+02001999999ADDMA1101191999999MW1001REMMET038YBTL 271300Z 11009KT //// 23/20 Q1012;EQDQ01+000000PRSWM2
0191942940999992000121210004-19250+146750FM-15+0006YBTL V0200701N006210750019N0112651N1+02601+01901999999ADDGA1021+006009999GA2021+042009999GA3071+075009999GF107991999999999999999999MA1100911999999MW1001REMMET065YBTL 121000Z 07012KT 9999 FEW020 SCT140 BKN250 26/19 Q1009 NOSIG;EQDQ01+000000PRSWM2
0265942940999992000121618004-19250+146750SY-MT+0006YBTL V0200801N003110420019N0060001N1+02291+02241100801ADDGA1021+001509999GA2021+006009999GA3071+042009999GF107991999999999999999999MA1100711100701MW1611REMSYN054AAXX  16184 94294 46/// /0806 10229 20224 30070 40080;MET063YBTL 161800Z 08006KT 6000 -RA SCT005 SCT020 BKN140 23/22 Q1007;EQDQ01+000003PRSWM1Q02    003PRSWM1
0319942940999992000121808004-19250+146750SY-MT+0006YBTL V0201101N009310450019N0150001N1+02631+02181100721ADDAY181999AY221999GA1021+007509999GA2021+036009999GF107991041081008001031011MA1100711100621MD1310071+9999MW1021REMSYN072AAXX  18084 94294 41565 71118 10263 20218 30062 40072 53007 70282 84831;MET085YBTL 180800Z 11018KT 9999 SCT025 SCT120 26/22 Q1007 INTER 0900/1100 5000 SHRA BKN012;EQDQ01+000000PRSWM2Q02    003PRSWM1
0228942940999992000121900004-19250+146750SY-MT+0006YBTL V0200701N006210420019N0112651N1+02701+02141101061ADDGA1021+007509999GA2071+042009999GF107991999999999999999999MA1101021100961MW1001REMSYN054AAXX  19004 94294 46/// /0712 10270 20214 30096 40106;MET058YBTL 190000Z 07012KT 9999 SCT025 BKN140 27/21 Q1010 NOSIG;EQDQ01+000000PRSWM2
0252942940999992000122119004-19250+146750FM-15+0006YBTL V0201401N004112200019N0050001N1+02301+02101999999ADDGA1021+007509999GA2021+018009999GF104991999999999999999999MA1101021999999MW1801REMMET126YBTL 211900Z 14008KT 5000 -SHRA SCT025 SCT060 23/21 Q1010 FM1900 13008KT 9999 -SHRA SCT020 SCT060 INTER 1900/2200 4000 SCT010;EQDQ01+000003PRSWM1Q02    003PRSWM1
0090942940999992000122313004-19250+146750FM-15+0006YBTL V0200601N004112200019N0099001N1+02601+02101999999ADDMA1101021999999MW1001REMMET038YBTL 231300Z 06008KT //// 26/21 Q1010;EQDQ01+000000PRSWM2
0090942940999992000122416004-19250+146750FM-15+0006YBTL V0203601N002612200019N0112651N1+02501+02101999999ADDMA1100811999999MW1001REMMET038YBTL 241600Z 36005KT //// 25/21 Q1008;EQDQ01+000000PRSWM2
0145942940999992000122422004-19250+146750FM-15+0006YBTL V0209999C000012200019N0112651N1+02701+02201999999ADDGA1021+009009999GF104991999999999999999999MA1100911999999MW1001REMMET051YBTL 242200Z 00000KT 9999 SCT030 27/22 Q1009 NOSIG;EQDQ01+000000PRSWM2
