0101479120999992000040505004+24470+123020FM-12+003699999V0200301N007719999999N9999999N1+02191+01751101191ADDMA1999999100771MD1710111+9999REMSYN060AAXX  05054 47912 46/// /0315 10219 20175 30077 40119 57011;
0101479120999992000040809004+24470+123020FM-12+003699999V0201001N007219999999N9999999N1+02211+02131101431ADDMA1999999101011MD1710051+9999REMSYN060AAXX  08094 47912 46/// /1014 10221 20213 30101 40143 57005;
0101479120999992000041314004+24470+123020FM-12+003699999V0201401N006719999999N9999999N1+02361+02131101121ADDMA1999999100711MD1210111+9999REMSYN060AAXX  13144 47912 46/// /1413 10236 20213 30071 40112 52011;
0101479120999992000041320004+24470+123020FM-12+003699999V0201401N006719999999N9999999N1+02371+02231100751ADDMA1999999100341MD1710201+9999REMSYN060AAXX  13204 47912 46/// /1413 10237 20223 30034 40075 57020;
0101479120999992000041614004+24470+123020FM-12+003699999V0200401N005119999999N9999999N1+01861+00801101881ADDMA1999999101451MD1210131+9999REMSYN060AAXX  16144 47912 46/// /0410 10186 20080 30145 40188 52013;
0101479120999992000042217004+24470+123020FM-12+003699999V0200601N008719999999N9999999N1+02101+02001100991ADDMA1999999100571MD1710011+9999REMSYN060AAXX  22174 47912 46/// /0617 10210 20200 30057 40099 57001;
0101479120999992000042419004+24470+123020FM-12+003699999V0201401N006719999999N9999999N1+02341+02111100801ADDMA1999999100391MD1710211+9999REMSYN060AAXX  24194 47912 46/// /1413 10234 20211 30039 40080 57021;
0101479120999992000042719004+24470+123020FM-12+003699999V0201201N003619999999N9999999N1+02101+01511101391ADDMA1999999100971MD1710111+9999REMSYN060AAXX  27194 47912 46/// /1207 10210 20151 30097 40139 57011;
0101479120999992000050218004+24470+123020FM-12+003699999V0200701N003119999999N9999999N1+02211+02041101151ADDMA1999999100731MD1710201+9999REMSYN060AAXX  02184 47912 46/// /0706 10221 20204 30073 40115 57020;
0101479120999992000050814004+24470+123020FM-12+003699999V0201001N005119999999N9999999N1+02281+01731101351ADDMA1999999100931MD1210091+9999REMSYN060AAXX  08144 47912 46/// /1010 10228 20173 30093 40135 52009;
0101479120999992000050905004+24470+123020FM-12+003699999V0200901N004619999999N9999999N1+02641+01611100881ADDMA1999999100471MD1710201+9999REMSYN060AAXX  09054 47912 46/// /0909 10264 20161 30047 40088 57020;
0101479120999992000051501004+24470+123020FM-12+003699999V0201301N005119999999N9999999N1+02761+02361101061ADDMA1999999100651MD1210081+9999REMSYN060AAXX  15014 47912 46/// /1310 10276 20236 30065 40106 52008;
0101479120999992000051917004+24470+123020FM-12+003699999V0203301N006719999999N9999999N1+02271+01931100811ADDMA1999999100401MD1710051+9999REMSYN060AAXX  19174 47912 46/// /3313 10227 20193 30040 40081 57005;
0101479120999992000052117004+24470+123020FM-12+003699999V0201001N007219999999N9999999N1+02231+02081101051ADDMA1999999100631MD1710161+9999REMSYN060AAXX  21174 47912 46/// /1014 10223 20208 30063 40105 57016;
0101479120999992000052215004+24470+123020FM-12+003699999V0200601N007219999999N9999999N1+02411+01831101291ADDMA1999999100881MD1210021+9999REMSYN060AAXX  22154 47912 46/// /0614 10241 20183 30088 40129 52002;
0101479120999992000052418004+24470+123020FM-12+003699999V0201301N002619999999N9999999N1+02331+02101100911ADDMA1999999100501MD1710111+9999REMSYN060AAXX  24184 47912 46/// /1305 10233 20210 30050 40091 57011;
0101479120999992000060217004+24470+123020FM-12+003699999V0201801N007719999999N9999999N1+02781+02461101121ADDMA1999999100711MD1710141+9999REMSYN060AAXX  02174 47912 46/// /1815 10278 20246 30071 40112 57014;
0101479120999992000061507004+24470+123190FM-12+003699999V0201101N005719999999N9999999N1+02681+02201100571ADDMA1999999100161MD1710141+9999REMSYN060AAXX  15074 47912 46/// /1111 10268 20220 30016 40057 57014;
0143479120999992000070706004+24470+123190FM-12+003699999V0201001N006212200019N0300001N1+03061+02331100121ADDGF104991021031999999001021MA1999999099721MD1610081+9999REMSYN076AAXX  07064 47912 42/80 41012 10306 20233 39972 40012 56008 82302 555 00314;
0101479120999992000071011004+24470+123190FM-12+003699999V0201801N007219999999N9999999N1+02871+02611100861ADDMA1999999100451MD1210201+9999REMSYN060AAXX  10114 47912 46/// /1814 10287 20261 30045 40086 52020;
0101479120999992000071519004+24470+123190FM-12+003699999V0201401N007719999999N9999999N1+02791+02391100681ADDMA1999999100271MD1710171+9999REMSYN060AAXX  15194 47912 46/// /1415 10279 20239 30027 40068 57017;
0101479120999992000072011004+24470+123020FM-12+003699999V0201201N001019999999N9999999N1+02801+02441101051ADDMA1999999100641MD1210111+9999REMSYN060AAXX  20114 47912 46/// /1202 10280 20244 30064 40105 52011;
0101479120999992000072717004+24470+123020FM-12+003699999V0201601N001019999999N9999999N1+02811+02631100031ADDMA1999999099631MD1710101+9999REMSYN060AAXX  27174 47912 46/// /1602 10281 20263 39963 40003 57010;
0101479120999992000073117004+24470+123020FM-12+003699999V0201801N002619999999N9999999N1+02731+02491100511ADDMA1999999100101MD1710101+9999REMSYN060AAXX  31174 47912 46/// /1805 10273 20249 30010 40051 57010;
0101479120999992000080907004+24470+123020FM-12+003699999V0202301N004619999999N9999999N1+03091+02411100541ADDMA1999999100141MD1710171+9999REMSYN060AAXX  09074 47912 46/// /2309 10309 20241 30014 40054 57017;
0101479120999992000081304004+24470+123020FM-12+003699999V0202001N003619999999N9999999N1+03201+02181100701ADDMA1999999100301MD1710091+9999REMSYN060AAXX  13044 47912 46/// /2007 10320 20218 30030 40070 57009;
0101479120999992000081910004+24470+123020FM-12+003699999V0201801N004619999999N9999999N1+02981+02511100631ADDMA1999999100231MD1210031+9999REMSYN060AAXX  19104 47912 46/// /1809 10298 20251 30023 40063 52003;
0101479120999992000082518004+24470+123020FM-12+003699999V0201701N004619999999N9999999N1+02711+02401100721ADDMA1999999100311MD1710171+9999REMSYN060AAXX  25184 47912 46/// /1709 10271 20240 30031 40072 57017;
0101479120999992000082819004+24470+123020FM-12+003699999V0200101N010819999999N9999999N1+02761+02541099281ADDMA1999999098881MD1710281+9999REMSYN060AAXX  28194 47912 46/// /0121 10276 20254 39888 49928 57028;
0101479120999992000091217004+24470+123020FM-12+003699999V0203201N017519999999N9999999N1+02621+01981099791ADDMA1999999099391MD1710171+9999REMSYN060AAXX  12174 47912 46/// /3234 10262 20198 39939 49979 57017;
0101479120999992000091220004+24470+123020FM-12+003699999V0203201N016419999999N9999999N1+02511+02081099731ADDMA1999999099321MD1710071+9999REMSYN060AAXX  12204 47912 46/// /3232 10251 20208 39932 49973 57007;
0101479120999992000091317004+24470+123020FM-12+003699999V0203001N012919999999N9999999N1+02681+01871099701ADDMA1999999099301MD1710121+9999REMSYN060AAXX  13174 47912 46/// /3025 10268 20187 39930 49970 57012;
0101479120999992000100104004+24470+123020FM-12+003699999V0201501N004119999999N9999999N1+02891+02171101491ADDMA1999999101081MD1710091+9999REMSYN060AAXX  01044 47912 46/// /1508 10289 20217 30108 40149 57009;
0101479120999992000100204004+24470+123020FM-12+003699999V0202201N004119999999N9999999N1+02911+02401101201ADDMA1999999100791MD1710161+9999REMSYN060AAXX  02044 47912 46/// /2208 10291 20240 30079 40120 57016;
0101479120999992000102515004+24470+123020FM-12+003699999V0203301N011819999999N9999999N1+02621+02331101211ADDMA1999999100801MD1210071+9999REMSYN060AAXX  25154 47912 46/// /3323 10262 20233 30080 40121 52007;
0201479120999992000102900004+24470+123020FM-12+003699999V0202101N004612200019N0200001N1+02731+02421101081ADDAA112000791AY181061AY211061GF102991011021999999001021KA1999N+02501MA1999999100671MD1010021+9999MW1021REMSYN088AAXX  29004 47912 11/70 22109 10273 20242 30067 40108 50002 69902 70281 81202 333 20250;
0201479120999992000102912004+24470+123020FM-12+003699999V0200201N014419999999N0050001N1+02341+02171101271ADDAA112003091AY181061AY221061GF108991081021999999999999KA1999M+03001MA1999999100861MD1210111+9999MW1801REMSYN088AAXX  29124 47912 11/50 80228 10234 20217 30086 40127 52011 60032 78082 882// 333 10300;
0101479120999992000103020004+24470+123020FM-12+003699999V0201501N007219999999N9999999N1+02451+02241100741ADDMA1999999100331MD1710081+9999REMSYN060AAXX  30204 47912 46/// /1514 10245 20224 30033 40074 57008;
0101479120999992000110304004+24470+123020FM-12+003699999V0200201N009819999999N9999999N1+02211+01891101741ADDMA1999999101321MD1710151+9999REMSYN060AAXX  03044 47912 46/// /0219 10221 20189 30132 40174 57015;
0101479120999992000112308004+24470+123020FM-12+003699999V0200601N008219999999N9999999N1+02341+01671101871ADDMA1999999101451MD1710021+9999REMSYN060AAXX  23084 47912 46/// /0616 10234 20167 30145 40187 57002;
0101479120999992000112511004+24470+123020FM-12+003699999V0200701N003619999999N9999999N1+02411+02061101721ADDMA1999999101301MD1210171+9999REMSYN060AAXX  25114 47912 46/// /0707 10241 20206 30130 40172 52017;
0101479120999992000113020004+24470+123020FM-12+003699999V0201701N001019999999N9999999N1+02071+01861101461ADDMA1999999101041MD1710011+9999REMSYN060AAXX  30204 47912 46/// /1702 10207 20186 30104 40146 57001;
0101479120999992000120208004+24470+123020FM-12+003699999V0200401N006719999999N9999999N1+02351+01581101621ADDMA1999999101201MD1710061+9999REMSYN060AAXX  02084 47912 46/// /0413 10235 20158 30120 40162 57006;
0101479120999992000120417004+24470+123020FM-12+003699999V0200601N007219999999N9999999N1+02221+01731101651ADDMA1999999101231MD1710081+9999REMSYN060AAXX  04174 47912 46/// /0614 10222 20173 30123 40165 57008;
0101479120999992000120618004+24470+123020FM-12+003699999V0200901N004619999999N9999999N1+02191+01681101781ADDMA1999999101361MD1710121+9999REMSYN060AAXX  06184 47912 46/// /0909 10219 20168 30136 40178 57012;
0171479120999992000121206004+24470+123020FM-12+003699999V0200401N009819999999N0100001N1+01881+01641101931ADDAY161061AY261061GF108991081081999999999999MA1999999101511MD1610201+9999MW1611REMSYN082AAXX  12064 47912 41/60 80419 10188 20164 30151 40193 56020 76166 888// 555 00204;
0101479120999992000121222004+24470+123020FM-12+003699999V0201101N007219999999N9999999N1+02101+01701101571ADDMA1999999101151MD1710051+9999REMSYN060AAXX  12224 47912 46/// /1114 10210 20170 30115 40157 57005;
0101479120999992000121315004+24470+123020FM-12+003699999V0200101N013419999999N9999999N1+01991+01671101511ADDMA1999999101091MD1210171+9999REMSYN060AAXX  13154 47912 46/// /0126 10199 20167 30109 40151 52017;
0101479120999992000121709004+24470+123020FM-12+003699999V0200201N005119999999N9999999N1+02271+02101101711ADDMA1999999101291MD1210021+9999REMSYN060AAXX  17094 47912 46/// /0210 10227 20210 30129 40171 52002;
0101479120999992000121909004+24470+123020FM-12+003699999V0200701N010319999999N9999999N1+02371+02101101661ADDMA1999999101241MD1210041+9999REMSYN060AAXX  19094 47912 46/// /0720 10237 20210 30124 40166 52004;
0101479120999992000122509004+24470+123020FM-12+003699999V0200501N009319999999N9999999N1+02101+01161102311ADDMA1999999101891MD1210161+9999REMSYN060AAXX  25094 47912 46/// /0518 10210 20116 30189 40231 52016;
0101479120999992000122721004+24470+123020FM-12+003699999V0201201N006219999999N9999999N1+01971+01621101891ADDMA1999999101471MD1710051+9999REMSYN060AAXX  27214 47912 46/// /1212 10197 20162 30147 40189 57005;
0101479180999992000010113004+24330+124170FM-12+0007ROIG V0201701N002619999999N9999999N1+02211+01761101561ADDMA1999999101481MD1210061+9999REMSYN060AAXX  01134 47918 46/// /1705 10221 20176 30148 40156 52006;
0101479180999992000010314004+24330+124170FM-12+0007ROIG V0200301N002619999999N9999999N1+01861+01191101841ADDMA1999999101761MD1210061+9999REMSYN060AAXX  03144 47918 46/// /0305 10186 20119 30176 40184 52006;
0101479180999992000010614004+24330+124170FM-12+0007ROIG V0201101N003619999999N9999999N1+02041+01821101491ADDMA1999999101411MD1210091+9999REMSYN060AAXX  06144 47918 46/// /1107 10204 20182 30141 40149 52009;
0316479180999992000010723004+24330+124170SY-MT+0007ROIG V0200701N005710060019N0080001N1+02131+01901101541ADDGA1021+003009999GA2071+006009999GA3071+018009999GF107991999999999999999999MA1101491101461MD1210031+9999MW1801REMSYN060AAXX  07234 47918 46/// /0711 10213 20190 30146 40154 52003;MET094ROIG 2300Z 08013KT 8000 -SHRA FEW010 BKN020 BKN060 21/19 Q1015 RMK 2CU010 5CU020 7SC060 A2999;EQDQ01+000003PRSWM1Q02    003PRSWM1
0105479180999992000011519004+24330+124170FM-12+000799999V0203401N003119999999N9999999N1+02141+01971101131ADDMA1999999101051MD1710041+9999REMSYN064    AAXX  15194 47918 46/// /3406 10214 20197 30105 40113 57004;
0290479180999992000011603004+24330+124170SY-MT+000799999V0203601N005719999999N0300001N1+02411+01821101391ADDAY101031AY201031GA1021+006609999GF105991051021999999001001MA1101291101311MD1010031+9999MW1251REMSYN076    AAXX  16034 47918 41/80 53611 10241 20182 30131 40139 50003 72500 85200;MET068ROIG 0300Z 36012KT 340V040 9999 SCT022 24/18 Q1013 RMK 4CU022 A2994;EQDQ01+000000PRSWM2Q02    003PRSWM1
0288479180999992000011908004+24330+124170SY-MT+000799999V0200301N005110180019N0060001N1+01441+01001102061ADDGA1021+009009999GA2071+018009999GF107991999999999999999999MA1102001101981MD1210031+9999MW1611REMSYN064    AAXX  19084 47918 46/// /0310 10144 20100 30198 40206 52003;MET078ROIG 0800Z 03014KT 6000 -RA SCT030 BKN060 14/10 Q1020 RMK 4CU030 7SC060 A3013;EQDQ01+000003PRSWM1Q02    003PRSWM1
0308479180999992000012921004+24330+124170SY-MT+0007ROIG V0200101N002610150019N0200001N1+01741+01411102551ADDAY181031AY221031GA1021+007509999GA2071+015009999GF107991071081999999999999MA1102511102471MD1510011+9999MW1021REMSYN072AAXX  29214 47918 41/70 70105 10174 20141 30247 40255 55001 70282 878//;MET074ROIG 2100Z 36006KT 9999 FEW025 BKN050 18/14 Q1025 RMK 2CU025 5SC050 A3028;EQDQ01+000000PRSWM2Q02    003PRSWM1
0294479180999992000021210004+24330+124170SY-MT+0007ROIG V0200301N002110180019N0112651N1+01931+01731101381ADDGA1021+004509999GA2021+011409999GA3071+018009999GF107991999999999999999999MA1101291101301MD1210021+9999MW1001REMSYN060AAXX  12104 47918 46/// /0304 10193 20173 30130 40138 52002;MET088ROIG 1000Z 03005KT 9999 FEW015 SCT038 BKN060 19/17 Q1013 RMK 1CU015 3CU038 7SC060 A2993;EQDQ01+000000PRSWM2
0294479180999992000021822004+24330+124170SY-MT+0007ROIG V0201901N010310075019N0112651N1+02261+01941101111ADDGA1021+005409999GA2071+007509999GA3071+018009999GF107991999999999999999999MA1101021101031MD1710021+9999MW1001REMSYN060AAXX  18224 47918 46/// /1920 10226 20194 30103 40111 57002;MET088ROIG 2200Z 19019KT 9999 FEW018 BKN025 BKN060 23/19 Q1010 RMK 2CU018 6CU025 7SC060 A2985;EQDQ01+000000PRSWM2
0366479180999992000022100004+24330+124170SY-MT+0007ROIG V0200301N00511018001CN0100001N1+01591+01321101821ADDAA112000791AY181061AY261061GA1021+003009999GA2021+006009999GA3071+018009999GF108991081081004501999999KA1999N+01541MA1101691101741MD1110201+9999MW1611REMSYN088AAXX  21004 47918 11460 80310 10159 20132 30174 40182 51020 69902 76186 888// 333 20154;MET092ROIG 0000Z 03012KT 9999 -RA FEW010 SCT020 BKN060 16/13 Q1017 RMK 1CU010 3CU020 6SC060 A3006;EQDQ01    003PRSWM1
0101479180999992000030414004+24330+124170FM-12+0007ROIG V0201001N002119999999N9999999N1+02331+02211101511ADDMA1999999101431MD1210081+9999REMSYN060AAXX  04144 47918 46/// /1004 10233 20221 30143 40151 52008;
0314479180999992000031310004+24330+124170SY-MT+0007ROIG V0200401N003110060019N0080001N1+02101+01931101461ADDGA1021+003609999GA2071+006009999GA3071+013509999GF107991999999999999999999MA1101391101381MD1210141+9999MW1611REMSYN060AAXX  13104 47918 46/// /0406 10210 20193 30138 40146 52014;MET092ROIG 1000Z 05008KT 8000 -RA FEW012 BKN020 BKN045 21/19 Q1014 RMK 2CU012 5CU020 7SC045 A2995;EQDQ01+000003PRSWM1Q02    003PRSWM1
0240479180999992000031405004+24330+124170SY-MT+0007ROIG V0201101N005110270019N0112651N1+02471+01841101471ADDGA1021+005409999GA2071+027009999GF107991999999999999999999MA1101391101391MD1710211+9999MW1001REMSYN060AAXX  14054 47918 46/// /1110 10247 20184 30139 40147 57021;MET050ROIG 0500Z 11010KT 9999 FEW018 BKN090 24/19 Q1014;EQDQ01+000000PRSWM2
0302479180999992000031722004+24330+124170SY-MT+0007ROIG V0200401N003110135019N0112651N1+01901+01571101521ADDGA1021+007509999GA2021+010509999GA3071+013509999GF107991999999999999999999MA1101391101441MD1210031+9999MW1001REMSYN060AAXX  17224 47918 46/// /0406 10190 20157 30144 40152 52003;MET096ROIG 2200Z 05005KT 030V100 9999 FEW025 SCT035 BKN045 19/16 Q1014 RMK 2CU025 3CU035 6SC045 A2997;EQDQ01+000000PRSWM2
0234479180999992000032001004+24330+124170SY-MT+0007ROIG V0200401N004112200019N0112651N1+01951+01131101801ADDGA1021+010209999GF104991999999999999999999MA1101691101721MD1210131+9999MW1001REMSYN060AAXX  20014 47918 46/// /0408 10195 20113 30172 40180 52013;MET060ROIG 0100Z 03010KT 9999 SCT034 19/12 Q1017 RMK 4CU034 A3005;EQDQ01+000000PRSWM2
0338479180999992000032321004+24330+124170SY-MT+0007ROIG V0200101N004610150019N0150001N1+01901+01271101881ADDAY181031AY221031GA1021+007509999GA2021+009609999GA3071+015009999GF108991081081999999999999MA1101801101801MD1310091+9999MW1021REMSYN072AAXX  23214 47918 41/65 80109 10190 20127 30180 40188 53009 70282 888//;MET088ROIG 2100Z 02011KT 9999 FEW025 SCT032 BKN050 18/13 Q1018 RMK 1CU025 4CU032 7SC050 A3008;EQDQ01+000000PRSWM2Q02    003PRSWM1
0101479180999992000032420004+24330+124170FM-12+0007ROIG V0200101N003119999999N9999999N1+01601+00851102271ADDMA1999999102191MD1210021+9999REMSYN060AAXX  24204 47918 46/// /0106 10160 20085 30219 40227 52002;
0101479180999992000032519004+24330+124170FM-12+0007ROIG V0200301N002119999999N9999999N1+01821+01081102101ADDMA1999999102021MD1710121+9999REMSYN060AAXX  25194 47918 46/// /0304 10182 20108 30202 40210 57012;
0257479180999992000033010004+24330+124170SY-MT+0007ROIG V0201301N003619999999N0112651N1+02001+01251101461ADDGA1021+010509999GA2071+999999999GF107991999999999999999999MA1101391101381MD1710071+9999MW1001REMSYN060AAXX  30104 47918 46/// /1307 10200 20125 30138 40146 57007;MET067ROIG 1000Z 14007KT 9999 FEW035 BKN/// 19/12 Q1014 RMK 1CU035 A2995;EQDQ01+000000PRSWM2
0318479180999992000040900004+24330+124170SY-MT+0007ROIG V0201201N007212200019N0250001N1+02461+02091101451ADDAA112000791AY181061AY221061GA1021+003609999GF102991021081004501001001KA1999N+02231MA1101391101371MD1010031+9999MW1021REMSYN088AAXX  09004 47918 11475 21214 10246 20209 30137 40145 50003 69902 70282 82800 333 20223;MET060ROIG 0000Z 13012KT 9999 FEW012 24/21 Q1014 RMK 1CU012 A2995;EQDQ01+000000PRSWM2Q02    003PRSWM1
0161479180999992000041318004+24330+124170FM-12+0007ROIG V0201101N003619999999N0150001N1+02351+02211100901ADDAY181061AY221061GF107991071021999999031999MA1999999100821MD1810201+9999MW1251REMSYN072AAXX  13184 47918 41/65 71107 10235 20221 30082 40090 58020 72582 8723/;
0234479180999992000041622004+24330+124170SY-MT+0007ROIG V0200101N002612200019N0112651N1+01611+00861101791ADDGA1021+010509999GF102991999999999999999999MA1101691101711MD1210111+9999MW1001REMSYN060AAXX  16224 47918 46/// /0105 10161 20086 30171 40179 52011;MET060ROIG 2200Z 36005KT 9999 FEW035 16/08 Q1017 RMK 1CU035 A3005;EQDQ01+000000PRSWM2
0101479180999992000042314004+24330+124170FM-12+0007ROIG V0200701N004119999999N9999999N1+02201+01691101231ADDMA1999999101151MD1210171+9999REMSYN060AAXX  23144 47918 46/// /0708 10220 20169 30115 40123 52017;
0286479180999992000042811004+24330+124170SY-MT+0007ROIG V0200601N003610240019N0112651N1+02021+01481101531ADDGA1021+012009999GA2071+024009999GF107991999999999999999999MA1101491101451MD1210231+9999MW1611REMSYN060AAXX  28114 47918 46/// /0607 10202 20148 30145 40153 52023;MET080ROIG 281100Z 06009KT 9999 -RA SCT040 BKN080 20/15 Q1015 RMK 3SC040 7AS080 A2998;EQDQ01+000003PRSWM1Q02    003PRSWM1
0101479180999992000050414004+24330+124170FM-12+0007ROIG V0200501N003619999999N9999999N1+02221+01651101591ADDMA1999999101511MD1210111+9999REMSYN060AAXX  04144 47918 46/// /0507 10222 20165 30151 40159 52011;
0236479180999992000050911004+24330+124170SY-MT+0007ROIG V0200501N002612200019N0112651N1+02381+01531100781ADDGA1021+010209999GF102991999999999999999999MA1100711100701MD1210061+9999MW1001REMSYN060AAXX  09114 47918 46/// /0505 10238 20153 30070 40078 52006;MET062ROIG 091100Z 05006KT 9999 FEW034 22/16 Q1007 RMK 2CU034 A2976;EQDQ01+000000PRSWM2
0295479180999992000051321004+24330+124170SY-MT+0007ROIG V0201301N002619999999N0200001N1+02411+01961101051ADDGA1021+009009999GA2021+024009999GA3071+999999999GF107991011011999999031021MA1101021100971MD1310061+9999MW1001REMSYN066AAXX  13214 47918 42/70 71305 10241 20196 30097 40105 53006 81132;MET083ROIG 132100Z 14004KT 9999 FEW030 SCT080 BKN/// 24/19 Q1010 RMK 1CU030 3AC080 A2984;EQDQ01+000000PRSWM2
0201479180999992000052012004+24330+124170FM-12+0007ROIG V0201101N003119999999N0100001N1+02351+02081101101ADDAA112000591AY181061AY261061GF108991011011999999071999KA1999M+02661MA1999999101021MD1110081+9999MW1211REMSYN088AAXX  20124 47918 11/60 81106 10235 20208 30102 40110 51008 69952 72186 8117/ 333 10266;
0186479180999992000052912004+24330+124170FM-12+0007ROIG V0201901N002119999999N0300001N1+02791+02531101131ADDAA199000091GF106991021021999999001021KA1999M+03021MA1999999101051MD1210101+9999REMSYN076AAXX  29124 47918 32/80 61904 10279 20253 30105 40113 52010 82202 333 10302;EQDQ01  00002PRCP99
0101479180999992000060520004+24330+124170FM-12+0007ROIG V0200401N000519999999N9999999N1+02611+02361100681ADDMA1999999100601MD1710041+9999REMSYN060AAXX  05204 47918 46/// /0401 10261 20236 30060 40068 57004;
0318479180999992000060622004+24330+124170SY-MT+0007ROIG V0203601N001012200019N0112651N1+02501+02211100961ADDGA1021+004509999GA2021+006009029GA3021+024009999GF104991999999999999999999MA1100911100881MD1210101+9999MW1001REMSYN060AAXX  06224 47918 46/// /3602 10250 20221 30088 40096 52010;MET112ROIG 062200Z 35002KT 9999 FEW015 FEW020TCU SCT080 25/22 Q1009 RMK 1CU015 1TCU020 4AC080 A2981 TCU 20KM SW MOV E;EQDQ01+000000PRSWM2
0266479180999992000060702004+24330+124170SY-MT+0007ROIG V0202001N001512200019N0112651N1+02861+02191101001ADDGA1021+006009999GA2021+024009999GF104991999999999999999999MA1100911100921MD1710021+9999MW1001REMSYN060AAXX  07024 47918 46/// /2003 10286 20219 30092 40100 57002;MET076ROIG 070200Z VRB02KT 9999 FEW020 SCT080 29/23 Q1009 RMK 1CU020 3AC080 A2982;EQDQ01+000000PRSWM2
0101479180999992000060713004+24330+124170FM-12+0007ROIG V0200901N004119999999N9999999N1+02781+02401100881ADDMA1999999100801MD1210081+9999REMSYN060AAXX  07134 47918 46/// /0908 10278 20240 30080 40088 52008;
0101479180999992000061914004+24320+124170FM-12+0007ROIG V0201401N004619999999N9999999N1+02801+02481101151ADDMA1999999101071MD1210101+9999REMSYN060AAXX  19144 47918 46/// /1409 10280 20248 30107 40115 52010;
0275479180999992000062106004+24320+124170SY-MT+0007ROIG V0202001N005119999999N0400001N1+03131+02611101081ADDGA1021+004509999GA2071+999999999GF107991011021999999031021MA1101021101001MD1610131+9999MW1001REMSYN076AAXX  21064 47918 42/82 72010 10313 20261 30100 40108 56013 81232 555 00317;MET069ROIG 210600Z 20011KT 9999 FEW015 BKN/// 31/27 Q1010 RMK 1CU015 A2984;EQDQ01+000000PRSWM2
0320479180999992000062200004+24320+124170SY-MT+0007ROIG V0201901N005112200019N0250001N1+02981+02551101241ADDAA112000791AY181061AY211061GA1021+003609999GF102991021021004501031001KA1999N+02771MA1101191101161MD1110101+9999MW1251REMSYN088AAXX  22004 47918 11475 21910 10298 20255 30116 40124 51010 69902 72581 82230 333 20277;MET062ROIG 220000Z 20010KT 9999 FEW012 29/26 Q1012 RMK 2CU012 A2989;EQDQ01+000000PRSWM2Q02    003PRSWM1
0101479180999992000062617004+24320+124170FM-12+0007ROIG V0201801N004119999999N9999999N1+02881+02481101111ADDMA1999999101031MD1710071+9999REMSYN060AAXX  26174 47918 46/// /1808 10288 20248 30103 40111 57007;
0101479180999992000070615004+24320+124170FM-12+0007ROIG V0200501N002119999999N9999999N1+02771+02391100291ADDMA1999999100211MD1210041+9999REMSYN060AAXX  06154 47918 46/// /0504 10277 20239 30021 40029 52004;
0267479180999992000071123004+24320+124170SY-MT+0007ROIG V0201301N002619999999N0112651N1+02851+02341101231ADDGA1021+004809999GA2071+999999999GF107991999999999999999999MA1101191101151MD1210051+9999MW1001REMSYN060AAXX  11234 47918 46/// /1305 10285 20234 30115 40123 52005;MET077ROIG 112300Z 14005KT 110V170 9999 FEW016 BKN/// 29/24 Q1012 RMK 1CU016 A2989;EQDQ01+000000PRSWM2
0133479180999992000071918004+24320+124170FM-12+0007ROIG V0200201N001019999999N0200001N1+02791+02451100941ADDGF106991031021999999001021MA1999999100861MD1510061+9999REMSYN066AAXX  19184 47918 42/70 60202 10279 20245 30086 40094 55006 83202;
0101479180999992000072414004+24320+124170FM-12+0007ROIG V0201601N004619999999N9999999N1+02871+02381100541ADDMA1999999100461MD1210061+9999REMSYN060AAXX  24144 47918 46/// /1609 10287 20238 30046 40054 52006;
0367479180999992000080209004+24320+124170SY-MT+0007ROIG V0200401N002110210019N0080001N1+02621+02421100561ADDAY181031AY221031GA1021+003009999GA2021+006009029GA3071+021009999GF108991041091999999071999MA1100511100481MD1310011+9999MW1801MW2811REMSYN072AAXX  02094 47918 41/58 80404 10262 20242 30048 40056 53001 78082 8497/;MET127ROIG 020900Z 04009KT 7000 SHRA FEW010 SCT020TCU BKN070 26/24 Q1005 RMK 1CU010 3TCU020 7AC070 A2969 TCU OHD-SW AND 5KM SE MOV S;EQDQ01    003PRSWM1
0242479180999992000081921004+24320+124170SY-MT+0007ROIG V0201901N004112200019N0350001N1+02881+02481100641ADDGA1021+005409999GF102991021021999999001001MA1100611100561MD1510011+9999MW1001REMSYN066AAXX  19214 47918 42/81 21908 10288 20248 30056 40064 55001 82200;MET062ROIG 192100Z 19007KT 9999 FEW018 28/25 Q1006 RMK 1CU018 A2971;EQDQ01+000000PRSWM2
0216479180999992000082808004+24320+124170FM-15+0007ROIG V0200101N008210060019N0070001N1+02901+02501999999ADDGA1021+003009999GA2071+006009999GA3081+030009999GF108991999999999999999999MA1099391999999MW1001REMMET090ROIG 280800Z 01016KT 7000 FEW010 BKN020 OVC100 29/25 Q0994 RMK 1CU010 5CU020 8AC100 A2936;EQDQ01+000000PRSWM2
0101479180999992000082820004+24320+124170FM-12+0007ROIG V0203601N008219999999N9999999N1+02711+02491098811ADDMA1999999098731MD1710291+9999REMSYN060AAXX  28204 47918 46/// /3616 10271 20249 39873 49881 57029;
0259479180999992000090207004+24320+124170SY-MT+0007ROIG V0200201N005112200019N0112651N1+03171+02461100581ADDGA1021+006309999GA2021+999999999GF104991999999999999999999MA1100511100501MD1710171+9999MW1001REMSYN060AAXX  02074 47918 46/// /0210 10317 20246 30050 40058 57017;MET069ROIG 020700Z 04014KT 9999 FEW021 SCT/// 30/25 Q1005 RMK 2CU021 A2970;EQDQ01+000000PRSWM2
0101479180999992000090215004+24320+124170FM-12+0007ROIG V0201301N008219999999N9999999N1+02751+02531100721ADDMA1999999100641MD1210031+9999REMSYN060AAXX  02154 47918 46/// /1316 10275 20253 30064 40072 52003;
0101479180999992000090519004+24320+124170FM-12+0007ROIG V0200401N001519999999N9999999N1+02581+02271100331ADDMA1999999100251MD1710021+9999REMSYN060AAXX  05194 47918 46/// /0403 10258 20227 30025 40033 57002;
0244479180999992000090702004+24320+124170SY-MT+0007ROIG V0200501N004612200019N0112651N1+03031+01971100781ADDGA1021+006609999GF102991999999999999999999MA1100711100701MD1210061+9999MW1001REMSYN060AAXX  07024 47918 46/// /0509 10303 20197 30070 40078 52006;MET070ROIG 070200Z 05009KT 010V080 9999 FEW022 30/20 Q1007 RMK 1CU022 A2976;EQDQ01+000000PRSWM2
0343479180999992000090821004+24320+124170SY-MT+0007ROIG V0203201N009810060019N0100001N1+02671+02271100181ADDAY181031AY221031GA1021+005109999GA2071+006009999GA3071+024009999GF108991061021999999071999MA1100101100101MD1510101+9999MW1251REMSYN072AAXX  08214 47918 41/60 83219 10267 20227 30010 40018 55010 72582 8627/;MET093ROIG 082100Z 32020G32KT 8000 FEW017 BKN020 BKN080 27/23 Q1001 RMK 2CU017 5CU020 7AC080 A2958;EQDQ01+000000PRSWM2Q02    003PRSWM1
0101479180999992000091316004+24320+124170FM-12+0007ROIG V0202801N009819999999N9999999N1+02611+01971099691ADDMA1999999099611MD1710071+9999REMSYN060AAXX  13164 47918 46/// /2819 10261 20197 39961 49969 57007;
0161479180999992000091318004+24320+124170FM-12+0007ROIG V0202801N010819999999N0080001N1+02541+02001099641ADDAY181061AY221061GF108991061021999999071999MA1999999099561MD1610111+9999MW1801REMSYN072AAXX  13184 47918 41/58 82821 10254 20200 39956 49964 56011 78082 8627/;
0181479180999992000092222004+24320+124170SY-MT+0007ROIG V0200201N001519999999Y0099001N1+02401+02111101351ADDMA1101291101271MD1210021+9999MW1001REMSYN060AAXX  22224 47918 46/// /0203 10240 20211 30127 40135 52002;MET049ROIG 222200Z 02005KT CAVOK 24/22 Q1013 RMK A2992;EQDQ01+000000PRSWM2
0259479180999992000101211004+24320+124170SY-MT+0007ROIG V0200401N003619999999N0112651N1+02581+01971101331ADDGA1021+006009999GA2071+999999999GF107991999999999999999999MA1101291101251MD1210111+9999MW1001REMSYN060AAXX  12114 47918 46/// /0407 10258 20197 30125 40133 52011;MET069ROIG 121100Z 05008KT 9999 FEW020 BKN/// 25/20 Q1013 RMK 1CU020 A2992;EQDQ01+000000PRSWM2
0236479180999992000101302004+24320+124170SY-MT+0007ROIG V0200501N007712200019N0112651N1+02911+02131101331ADDGA1021+006909999GF104991999999999999999999MA1101291101251MD1210051+9999MW1001REMSYN060AAXX  13024 47918 46/// /0515 10291 20213 30125 40133 52005;MET062ROIG 130200Z 05019KT 9999 SCT023 29/21 Q1013 RMK 3CU023 A2992;EQDQ01+000000PRSWM2
0244479180999992000101905004+24320+124170SY-MT+0007ROIG V0201401N003112200019N0112651N1+02901+02341101261ADDGA1021+004509999GF102991999999999999999999MA1101191101181MD1710211+9999MW1001REMSYN060AAXX  19054 47918 46/// /1406 10290 20234 30118 40126 57021;MET070ROIG 190500Z 13007KT 080V170 9999 FEW015 29/24 Q1012 RMK 1CU015 A2990;EQDQ01+000000PRSWM2
0236479180999992000102807004+24320+124170SY-MT+0007ROIG V0201801N005112200019N0112651N1+02811+02431101101ADDGA1021+003609999GF102991999999999999999999MA1101021101021MD1710161+9999MW1001REMSYN060AAXX  28074 47918 46/// /1810 10281 20243 30102 40110 57016;MET062ROIG 280700Z 18012KT 9999 FEW012 28/25 Q1010 RMK 2CU012 A2985;EQDQ01+000000PRSWM2
0101479180999992000102814004+24320+124170FM-12+0007ROIG V0201601N003119999999N9999999N1+02641+02391101301ADDMA1999999101221MD1210071+9999REMSYN060AAXX  28144 47918 46/// /1606 10264 20239 30122 40130 52007;
0277479180999992000110107004+24320+124170SY-MT+0007ROIG V0202301N014410210019N0060001N1+02411+02041100241ADDGA1021+004509999GA2071+021009999GF107991999999999999999999MA1100201100161MD1210191+9999MW1001OC101591REMSYN060AAXX  01074 47918 46/// /2328 10241 20204 30016 40024 52019;MET079ROIG 010700Z 24019G31KT 6000 SCT015 BKN070 24/21 Q1002 RMK 4CU015 7AC070 A2960;EQDQ01+000000PRSWM2
0101479180999992000110220004+24320+124170FM-12+0007ROIG V0200201N006719999999N9999999N1+02201+01841101521ADDMA1999999101441MD1710131+9999REMSYN060AAXX  02204 47918 46/// /0213 10220 20184 30144 40152 57013;
0101479180999992000110416004+24320+124170FM-12+0007ROIG V0200601N004619999999N9999999N1+02511+02261101301ADDMA1999999101221MD1710101+9999REMSYN060AAXX  04164 47918 46/// /0609 10251 20226 30122 40130 57010;
0236479180999992000110723004+24320+124170SY-MT+0007ROIG V0200601N005112200019N0112651N1+02621+02291101321ADDGA1021+005109999GF102991999999999999999999MA1101291101241MD1210121+9999MW1001REMSYN060AAXX  07234 47918 46/// /0610 10262 20229 30124 40132 52012;MET062ROIG 072300Z 07011KT 9999 FEW017 26/24 Q1013 RMK 2CU017 A2992;EQDQ01+000000PRSWM2
0101479180999992000111120004+24320+124170FM-12+0007ROIG V0200901N005119999999N9999999N1+02521+01891101621ADDMA1999999101541MD1710101+9999REMSYN060AAXX  11204 47918 46/// /0910 10252 20189 30154 40162 57010;
0161479180999992000112018004+24320+124170FM-12+0007ROIG V0200101N005719999999N0100001N1+01871+01671101681ADDAY181061AY261061GF108991041021999999021999MA1999999101601MD1510041+9999MW1611REMSYN072AAXX  20184 47918 41/60 80111 10187 20167 30160 40168 55004 76186 8422/;
0133479180999992000112518004+24320+124170FM-12+0007ROIG V0200401N002612200019N0150001N1+02261+02001101651ADDGF101991011011999999001001MA1999999101571MD1610081+9999REMSYN066AAXX  25184 47918 42/65 10405 10226 20200 30157 40165 56008 81100;
0296479180999992000112808004+24320+124170SY-MT+0007ROIG V0200201N005110135019N0112651N1+02291+01451101881ADDGA1021+005409999GA2021+009009999GA3071+013509999GF107991999999999999999999MA1101801101801MD1210051+9999MW1001REMSYN060AAXX  28084 47918 46/// /0210 10229 20145 30180 40188 52005;MET090ROIG 280800Z 02012KT 9999 FEW018 SCT030 BKN045 23/15 Q1018 RMK 1CU018 4CU030 6SC045 A3008;EQDQ01+000000PRSWM2
0283479180999992000120206004+24320+124170SY-MT+0007ROIG V0200301N004619999999N0250001N1+02481+01571101601ADDGA1021+009909999GA2021+999999999GF106991041021999999001011MA1101491101521MD1610171+9999MW1001REMSYN076AAXX  02064 47918 42/75 60309 10248 20157 30152 40160 56017 84201 555 00268;MET077ROIG 020600Z 03010KT 350V070 9999 FEW033 SCT/// 25/17 Q1015 RMK 2CU033 A3000;EQDQ01+000000PRSWM2
0259479180999992000120623004+24320+124170SY-MT+0007ROIG V0200301N002619999999N0112651N1+02061+01491101911ADDGA1021+010509999GA2071+999999999GF107991999999999999999999MA1101801101831MD1210131+9999MW1001REMSYN060AAXX  06234 47918 46/// /0305 10206 20149 30183 40191 52013;MET069ROIG 062300Z 03005KT 9999 FEW035 BKN/// 21/15 Q1018 RMK 1CU035 A3009;EQDQ01+000000PRSWM2
0101479180999992000120716004+24320+124170FM-12+0007ROIG V0200201N003119999999N9999999N1+02061+01601101761ADDMA1999999101681MD1710131+9999REMSYN060AAXX  07164 47918 46/// /0206 10206 20160 30168 40176 57013;
0101479180999992000120815004+24320+124170FM-12+0007ROIG V0200601N003119999999N9999999N1+02121+01511101591ADDMA1999999101511MD1710071+9999REMSYN060AAXX  08154 47918 46/// /0606 10212 20151 30151 40159 57007;
0101479180999992000121214004+24320+124170FM-12+0007ROIG V0200501N005119999999N9999999N1+01901+01591101951ADDMA1999999101871MD1710011+9999REMSYN060AAXX  12144 47918 46/// /0510 10190 20159 30187 40195 57001;
0285479180999992000121223004+24320+124170SY-MT+0007ROIG V0201001N007210180019N0112651N1+02211+01661101631ADDGA1021+007509999GA2071+018009999GF107991999999999999999999MA1101591101551MD1710011+9999MW1001OC101341REMSYN060AAXX  12234 47918 46/// /1014 10221 20166 30155 40163 57001;MET087ROIG 122300Z 11015G26KT 070V130 9999 SCT025 BKN060 22/17 Q1016 RMK 4CU025 7SC060 A3001;EQDQ01+000000PRSWM2
0101479180999992000121317004+24320+124170FM-12+0007ROIG V0203601N009319999999N9999999N1+01961+01741101331ADDMA1999999101251MD1210241+9999REMSYN060AAXX  13174 47918 46/// /3618 10196 20174 30125 40133 52024;
0272479180999992000121909004+24320+124170SY-MT+0007ROIG V0200601N005110360019N0300001N1+02381+02051101741ADDGA1021+005109999GA2021+036009999GF106991021021004501071001MA1101691101661MD1110131+9999MW1001REMSYN066AAXX  19094 47918 42480 60610 10238 20205 30166 40174 51013 82270;MET076ROIG 190900Z 06011KT 9999 FEW017 SCT120 24/21 Q1017 RMK 2CU017 3AC120 A3004;EQDQ01+000000PRSWM2
0266479180999992000122222004+24320+124170SY-MT+0007ROIG V0200201N005710096019N0112651N1+01921+01611101601ADDGA1021+004809999GA2071+009609999GF107991999999999999999999MA1101491101521MD1210111+9999MW1001REMSYN060AAXX  22224 47918 46/// /0211 10192 20161 30152 40160 52011;MET076ROIG 222200Z 02013KT 9999 FEW016 BKN032 19/16 Q1015 RMK 2CU016 7CU032 A3000;EQDQ01+000000PRSWM2
0242479180999992000122321004+24320+124170SY-MT+0007ROIG V0200301N003119999999N0250001N1+01821+01131101981ADDGA1021+010809999GF105991051021999999001001MA1101901101901MD1510011+9999MW1001REMSYN066AAXX  23214 47918 42/75 50306 10182 20113 30190 40198 55001 85200;MET062ROIG 232100Z 05011KT 9999 FEW036 18/12 Q1019 RMK 2CU036 A3010;EQDQ01+000000PRSWM2
0236479180999992000122323004+24320+124170SY-MT+0007ROIG V0200401N003112200019N0112651N1+01821+01101102091ADDGA1021+011109999GF102991999999999999999999MA1102001102011MD1210121+9999MW1001REMSYN060AAXX  23234 47918 46/// /0406 10182 20110 30201 40209 52012;MET062ROIG 232300Z 05009KT 9999 FEW037 18/12 Q1020 RMK 2CU037 A3014;EQDQ01+000000PRSWM2
0236479180999992000122722004+24320+124170SY-MT+0007ROIG V0200601N006712200019N0112651N1+02051+01391101961ADDGA1021+009009999GF104991999999999999999999MA1101901101881MD1210011+9999MW1001REMSYN060AAXX  27224 47918 46/// /0613 10205 20139 30188 40196 52001;MET062ROIG 272200Z 06012KT 9999 SCT030 20/14 Q1019 RMK 4CU030 A3010;EQDQ01+000000PRSWM2
0296479180999992000122808004+24320+124170SY-MT+0007ROIG V0200501N005710210019N0112651N1+02231+01471101751ADDGA1021+009009999GA2021+018009999GA3071+021009999GF107991999999999999999999MA1101691101671MD1710011+9999MW1001REMSYN060AAXX  28084 47918 46/// /0511 10223 20147 30167 40175 57001;MET090ROIG 280800Z 06011KT 9999 FEW030 SCT060 BKN070 22/15 Q1017 RMK 2CU030 4SC060 7AC070 A3004;EQDQ01+000000PRSWM2
0266479180999992000122823004+24320+124170SY-MT+0007ROIG V0200501N003610135019N0112651N1+01981+01631101771ADDGA1021+004509999GA2071+013509999GF107991999999999999999999MA1101691101691MD1210121+9999MW1001REMSYN060AAXX  28234 47918 46/// /0507 10198 20163 30169 40177 52012;MET076ROIG 282300Z 07010KT 9999 FEW015 BKN045 20/16 Q1017 RMK 1CU015 6SC045 A3005;EQDQ01+000000PRSWM2
0354479270999992000010522004+24780+125280SY-MT+0041ROMY V0201101N00211015001CN0112651N1+01941+01801101421ADDGA1021+005109999GA2021+007509029GA3021+015009999GA4071+024009999GF107991999999999999999999MA1101291100941MD1210011+9999MW1611REMSYN060AAXX  05224 47927 46/// /1104 10194 20180 30094 40142 52001;MET116ROMY 2200Z 10004KT 9999 -RA FEW017 FEW025TCU SCT050 BKN080 19/18 Q1013 RMK 1CU017 1TCU025 4SC050 7AS080 A2994 TCU W;EQDQ01+000003PRSWM1Q02    003PRSWM1
0280479270999992000011006004+24780+125280SY-MT+0041ROMY V0200401N005719999999N0150001N1+02171+01641101631ADDGA1021+006009999GA2021+007509999GF107991051021999999031999MA1101591101151MD1610131+9999MW1001REMSYN076AAXX  10064 47927 42/65 70411 10217 20164 30115 40163 56013 8523/ 555 00230;MET074ROMY 0600Z 04011KT 9999 SCT020 SCT025 21/16 Q1016 RMK 4CU020 4CU025 A3001;EQDQ01+000000PRSWM2
0344479270999992000011721004+24780+125280SY-MT+004199999V0200201N00461015001MN0150001N1+01621+01101101721ADDAY161031AY221031GA1021+004509999GA2021+007209999GA3071+015009999GF108991071081999999999999MA1101591101231MD1510031+9999MW1211MW2611REMSYN076    AAXX  17214 47927 41/65 80209 10162 20110 30123 40172 55003 72162 878//;MET100ROMY 2100Z 01009KT 320V060 9999 -RA FEW015 SCT024 BKN050 16/11 Q1016 RMK 1CU015 3CU024 7SC050 A3002;EQDQ01    003PRSWM1
0234479270999992000020302004+24780+125280SY-MT+0041ROMY V0201101N005112200019N0112651N1+02211+01421102331ADDGA1021+009009999GF102991999999999999999999MA1102201101851MD1210071+9999MW1001REMSYN060AAXX  03024 47927 46/// /1110 10221 20142 30185 40233 52007;MET060ROMY 0200Z 11012KT 9999 FEW030 22/14 Q1022 RMK 1CU030 A3021;EQDQ01+000000PRSWM2
0251479270999992000020402444+24780+125280FM-16+0041ROMY V0200601N006210045019N0050001N1+01901+01701999999ADDGA1021+003009999GA2071+004509999GA3071+018009999GF107991999999999999999999MA1102001999999MW1801REMMET109ROMY 040244Z 06012KT 030V100 5000 -SHRA SCT010 BKN015 BKN060 19/17 Q1020 RERA RMK 3CU010 5CU015 6SC060 A3015;EQDQ01+000003PRSWM1Q02    003PRSWM1
0234479270999992000021322004+24780+125280SY-MT+0041ROMY V0200601N001512200019N0112651N1+01911+01781101171ADDGA1021+006009999GF102991999999999999999999MA1101081100691MD1210011+9999MW1001REMSYN060AAXX  13224 47927 46/// /0603 10191 20178 30069 40117 52001;MET060ROMY 2200Z 05003KT 9999 FEW020 17/16 Q1011 RMK 1CU020 A2986;EQDQ01+000000PRSWM2
0250479270999992000021906004+24780+125280SY-MT+0041ROMY V0202101N007710039019N0150001N1+02361+02051100761ADDGA1071+003909999GF107991071081999999999999MA1100711100291MD1810251+9999MW1001REMSYN076AAXX  19064 47927 42/65 72115 10236 20205 30029 40076 58025 878// 555 00246;MET060ROMY 0600Z 21020KT 9999 BKN013 24/20 Q1007 RMK 7CU013 A2975;EQDQ01+000000PRSWM2
0294479270999992000022005004+24780+125280SY-MT+0041ROMY V0200201N005710240019N0112651N1+01831+01631101001ADDGA1021+003609999GA2021+005409999GA3081+024009999GF108991999999999999999999MA1100911100521MD1710141+9999MW1001REMSYN060AAXX  20054 47927 46/// /0211 10183 20163 30052 40100 57014;MET088ROMY 0500Z 02010KT 9999 FEW012 SCT018 OVC080 18/16 Q1009 RMK 2CU012 4CU018 8AS080 A2981;EQDQ01+000000PRSWM2
0326479270999992000022109004+24780+125280SY-MT+0041ROMY V0200501N004110240019N0150001N1+01561+01251101641ADDAY161031AY261031GA1021+006609999GA2021+009609999GA3081+024009999GF108991071081999999021999MA1101591101151MD1810031+9999MW1611REMSYN072AAXX  21094 47927 41/65 80508 10156 20125 30115 40164 58003 76166 8782/;MET092ROMY 0900Z 05009KT 9999 -RA FEW022 SCT032 OVC080 15/12 Q1016 RMK 2CU022 4SC032 8AS080 A3000;EQDQ01    003PRSWM1
0101479270999992000022119004+24780+125280FM-12+0041ROMY V0200901N002619999999N9999999N1+01701+01451101381ADDMA1999999100901MD1710241+9999REMSYN060AAXX  21194 47927 46/// /0905 10170 20145 30090 40138 57024;
0292479270999992000022602004+24780+125280SY-MT+0041ROMY V0203601N008210150019N0112651N1+01501+01021101941ADDGA1021+006909999GA2071+015009999GF107991999999999999999999MA1101901101451MD1210061+9999MW1611REMSYN060AAXX  26024 47927 46/// /3616 10150 20102 30145 40194 52006;MET086ROMY 0200Z 36013KT 320V030 9999 -RA SCT023 BKN050 15/10 Q1019 RMK 4CU023 7SC050 A3009;EQDQ01+000003PRSWM1Q02    003PRSWM1
0186479270999992000031412004+24780+125280FM-12+0041ROMY V0201101N002619999999N0150001N1+02121+01841101591ADDAA199000091GF107991011011999999031999KA1999M+02451MA1999999101111MD1310121+9999REMSYN076AAXX  14124 47927 32/65 71105 10212 20184 30111 40159 53012 8113/ 333 10245;EQDQ01  00002PRCP99
0101479270999992000032017004+24780+125280FM-12+0041ROMY V0201601N002119999999N9999999N1+01841+01191101681ADDMA1999999101201MD1710041+9999REMSYN060AAXX  20174 47927 46/// /1604 10184 20119 30120 40168 57004;
0101479270999992000032314004+24780+125280FM-12+0041ROMY V0203601N006719999999N9999999N1+02061+01721101721ADDMA1999999101241MD1210201+9999REMSYN060AAXX  23144 47927 46/// /3613 10206 20172 30124 40172 52020;
0258479270999992000032506004+24780+125280SY-MT+0041ROMY V0200301N005112200019N0200001N1+01901+00781102031ADDGA1021+012609999GF103991031011999999001001MA1101901101551MD1610271+9999MW1001REMSYN076AAXX  25064 47927 42/70 30310 10190 20078 30155 40203 56027 83100 555 00199;MET068ROMY 0600Z 03009KT 310V070 9999 FEW042 19/08 Q1019 RMK 2CU042 A3012;EQDQ01+000000PRSWM2
0201479270999992000032812004+24780+125280FM-12+0041ROMY V0200301N006719999999N0100001N1+02151+01601101621ADDAA112000791AY111061AY211061GF107991071081999999999999KA1999M+02611MA1999999101141MD1210271+9999MW1801REMSYN088AAXX  28124 47927 11/60 70313 10215 20160 30114 40162 52027 69902 78011 878// 333 10261;
0101479270999992000032913004+24780+125280FM-12+0041ROMY V0200201N002619999999N9999999N1+01691+00781102101ADDMA1999999101611MD1210041+9999REMSYN060AAXX  29134 47927 46/// /0205 10169 20078 30161 40210 52004;
0264479270999992000041207004+24780+125280SY-MT+0041ROMY V0202001N005110450019N0112651N1+02281+01661101021ADDGA1021+007509999GA2071+045009999GF107991999999999999999999MA1100911100551MD1710161+9999MW1001REMSYN060AAXX  12074 47927 46/// /2010 10228 20166 30055 40102 57016;MET074ROMY 0700Z 20012KT 9999 FEW025 BKN150 23/17 Q1009 RMK 1CU025 5AC150 A2982;EQDQ01+000000PRSWM2
0101479270999992000041620004+24780+125280FM-12+0041ROMY V0200501N002619999999N9999999N1+01621+00791101761ADDMA1999999101271MD1410001+9999REMSYN060AAXX  16204 47927 46/// /0505 10162 20079 30127 40176 54000;
0101479270999992000042114004+24780+125280FM-12+0041ROMY V0200201N005119999999N9999999N1+02181+01861101241ADDMA1999999100771MD1210121+9999REMSYN060AAXX  21144 47927 46/// /0210 10218 20186 30077 40124 52012;
0286479270999992000042408004+24780+125280SY-MT+0041ROMY V0200901N004610090019N0112651N1+02041+01601101201ADDGA1021+006009999GA2071+009009999GF107991999999999999999999MA1101081100721MD1710041+9999MW1611REMSYN060AAXX  24084 47927 46/// /0909 10204 20160 30072 40120 57004;MET080ROMY 240800Z 09014KT 9999 -RA FEW020 BKN030 20/16 Q1011 RMK 2CU020 7SC030 A2987;EQDQ01+000003PRSWM1Q02    003PRSWM1
0101479270999992000042817004+24780+125280FM-12+0041ROMY V0201401N002119999999N9999999N1+01901+01381101591ADDMA1999999101111MD1710091+9999REMSYN060AAXX  28174 47927 46/// /1404 10190 20138 30111 40159 57009;
0310479270999992000043003004+24780+125280SY-MT+0041ROMY V0202001N007719999999N0070001N1+02831+02471100951ADDAY181031AY221031GA1021+002109999GA2021+003009999GF106991061021999999031001MA1100911100491MD1710151+9999MW1101REMSYN072AAXX  30034 47927 41/57 62015 10283 20247 30049 40095 57015 71082 86230;MET076ROMY 300300Z 20020KT 9999 FEW007 SCT010 28/25 Q1009 RMK 1ST007 3CU010 A2981;EQDQ01+000000PRSWM2Q02    003PRSWM1
0266479270999992000050222004+24780+125280SY-MT+0041ROMY V0200501N003110135019N0112651N1+02131+01921101221ADDGA1021+005409999GA2071+013509999GF107991999999999999999999MA1101081100751MD1210101+9999MW1001REMSYN060AAXX  02224 47927 46/// /0506 10213 20192 30075 40122 52010;MET076ROMY 022200Z 05005KT 9999 SCT018 BKN045 21/19 Q1011 RMK 3CU018 6SC045 A2988;EQDQ01+000000PRSWM2
0265479270999992000050309004+24780+125280SY-MT+0041ROMY V0200501N005119999999N0300001N1+02351+01821101201ADDGA1021+006009999GA2021+999999999GF106991011021999999031091MA1101081100731MD1610081+9999MW1001REMSYN066AAXX  03094 47927 42/80 60510 10235 20182 30073 40120 56008 81239;MET069ROMY 030900Z 05010KT 9999 FEW020 SCT/// 24/18 Q1011 RMK 2CU020 A2988;EQDQ01+000000PRSWM2
0101479270999992000050414004+24780+125280FM-12+0041ROMY V0200601N002619999999N9999999N1+02081+01491101651ADDMA1999999101171MD1210121+9999REMSYN060AAXX  04144 47927 46/// /0605 10208 20149 30117 40165 52012;
0236479270999992000050722004+24780+125280SY-MT+0041ROMY V0200501N005112200019N0112651N1+02221+01691101351ADDGA1021+007209999GF102991999999999999999999MA1101291100881MD1210091+9999MW1001REMSYN060AAXX  07224 47927 46/// /0510 10222 20169 30088 40135 52009;MET062ROMY 072200Z 06010KT 9999 FEW024 22/16 Q1013 RMK 1CU024 A2992;EQDQ01+000000PRSWM2
0271479270999992000051200004+24780+125280SY-MT+0041ROMY V0200601N003112200019N0200001N1+02441+01331100981ADDAA199000091GF101991001001999999001011KA1999N+02021MA1100911100511MD1110131+9999MW1001REMSYN076AAXX  12004 47927 32970 10606 10244 20133 30051 40098 51013 80001 333 20202;MET057ROMY 120000Z 05006KT 360V090 CAVOK 24/13 Q1009 RMK A2981;EQDQ01+000000PRSWM2Q02  00002PRCP99
0266479270999992000052207004+24780+125280SY-MT+0041ROMY V0200601N008710210019N0112651N1+02391+01761101051ADDGA1021+004509999GA2071+021009999GF107991999999999999999999MA1101021100581MD1710021+9999MW1001REMSYN060AAXX  22074 47927 46/// /0617 10239 20176 30058 40105 57002;MET076ROMY 220700Z 06020KT 9999 FEW015 BKN070 24/18 Q1010 RMK 1CU015 7AC070 A2983;EQDQ01+000000PRSWM2
0101479270999992000052817004+24780+125280FM-12+0041ROMY V0201801N004119999999N9999999N1+02621+02551101081ADDMA1999999100611MD1710161+9999REMSYN060AAXX  28174 47927 46/// /1808 10262 20255 30061 40108 57016;
0101479270999992000053020004+24780+125280FM-12+0041ROMY V0201901N005119999999N9999999N1+02651+02491100851ADDMA1999999100391MD1710071+9999REMSYN060AAXX  30204 47927 46/// /1910 10265 20249 30039 40085 57007;
0101479270999992000060816004+24780+125280FM-12+0041ROMY V0202001N006719999999N9999999N1+02761+02541100801ADDMA1999999100341MD1710061+9999REMSYN060AAXX  08164 47927 46/// /2013 10276 20254 30034 40080 57006;
0265479270999992000060921004+24780+125280SY-MT+0041ROMY V0201901N006219999999N0100001N1+02711+02551100791ADDGA1021+003609999GA2071+999999999GF107991021011999999031021MA1100711100331MD1710061+9999MW1001REMSYN066AAXX  09214 47927 42/60 71912 10271 20255 30033 40079 57006 82132;MET069ROMY 092100Z 18014KT 9999 SCT012 BKN/// 27/25 Q1007 RMK 3CU012 A2975;EQDQ01+000000PRSWM2
0266479270999992000061701004+24770+125270SY-MT+0041ROMY V0201801N005110450019N0112651N1+02711+02531101061ADDGA1021+001809999GA2071+045009999GF107991999999999999999999MA1101021100601MD1210111+9999MW1001REMSYN060AAXX  17014 47927 46/// /1810 10271 20253 30060 40106 52011;MET076ROMY 170100Z 17013KT 9999 SCT006 BKN150 27/25 Q1010 RMK 3ST006 7AS150 A2984;EQDQ01+000000PRSWM2
0343479270999992000062406004+24770+125270SY-MT+0041ROMY V0202001N004619999999N0350001N1+03091+02571100951ADDAY111061AY211061GA1021+004509999GA2021+006009029GF105991021021999999061031MA1100911100491MD1610111+9999MW1251REMSYN082AAXX  24064 47927 41/81 52009 10309 20257 30049 40095 56011 72511 82263 555 00312;MET099ROMY 240600Z 20012KT 9999 FEW015 FEW020TCU 30/25 Q1009 RMK 2CU015 1TCU020 A2981 TCU 15KM SW MOV NE;EQDQ01+000000PRSWM2Q02    003PRSWM1
0267479270999992000070623004+24770+125270SY-MT+0041ROMY V0200501N003119999999N0112651N1+02761+02301100291ADDGA1021+005109999GA2071+999999999GF107991999999999999999999MA1100201099831MD1210061+9999MW1001REMSYN060AAXX  06234 47927 46/// /0506 10276 20230 39983 40029 52006;MET077ROMY 062300Z 05006KT 020V080 9999 FEW017 BKN/// 27/23 Q1002 RMK 2CU017 A2961;EQDQ01+000000PRSWM2
0296479270999992000070823004+24770+125270SY-MT+0041ROMY V0201601N004110450019N0112651N1+02741+02541099971ADDGA1021+004509999GA2021+036009999GA3071+045009999GF107991999999999999999999MA1099901099511MD1210051+9999MW1001REMSYN060AAXX  08234 47927 46/// /1608 10274 20254 39951 49997 52005;MET090ROMY 082300Z 16010KT 9999 FEW015 SCT120 BKN150 27/25 Q0999 RMK 1CU015 3AC120 5AS150 A2952;EQDQ01+000000PRSWM2
0236479270999992000071008004+24770+125270SY-MT+0041ROMY V0201801N007712200019N0112651N1+02971+02591100861ADDGA1021+003909999GF104991999999999999999999MA1100811100401MD1210031+9999MW1001REMSYN060AAXX  10084 47927 46/// /1815 10297 20259 30040 40086 52003;MET062ROMY 100800Z 17017KT 9999 SCT013 29/26 Q1008 RMK 4CU013 A2978;EQDQ01+000000PRSWM2
0101479270999992000071020004+24770+125270FM-12+0041ROMY V0201701N003619999999N9999999N1+02701+02541101221ADDMA1999999100761MD1210051+9999REMSYN060AAXX  10204 47927 46/// /1707 10270 20254 30076 40122 52005;
0101479270999992000071319004+24770+125270FM-12+0041ROMY V0201401N003119999999N9999999N1+02641+02391100771ADDMA1999999100311MD1710181+9999REMSYN060AAXX  13194 47927 46/// /1406 10264 20239 30031 40077 57018;
0264479270999992000071321004+24770+125270SY-MT+0041ROMY V0201401N002612200019N0250001N1+02581+02351100771ADDGA1021+004509999GA2021+999999999GF103991011021999999001021MA1100711100311MD1510041+9999MW1001REMSYN066AAXX  13214 47927 42/75 31405 10258 20235 30031 40077 55004 81202;MET068ROMY 132100Z 14005KT 9999FEW015 SCT/// 26/23 Q1007 RMK 1CU015 A2975;EQDQ01+000000PRSWM2
0267479270999992000071708004+24770+125270SY-MT+0041ROMY V0201801N004112200019N0112651N1+02921+02501100941ADDGA1021+004509999GA2021+999999999GF104991999999999999999999MA1100911100481MD1710101+9999MW1001REMSYN060AAXX  17084 47927 46/// /1808 10292 20250 30048 40094 57010;MET077ROMY 170800Z 19008KT 150V220 9999 FEW015 SCT/// 29/25 Q1009 RMK 2CU015 A2980;EQDQ01+000000PRSWM2
0101479270999992000071720004+24770+125270FM-12+0041ROMY V0201801N002619999999N9999999N1+02651+02551100931ADDMA1999999100471MD1710081+9999REMSYN060AAXX  17204 47927 46/// /1805 10265 20255 30047 40093 57008;
0101479270999992000072220004+24770+125270FM-12+0041ROMY V0201201N001019999999N9999999N1+02671+02451100611ADDMA1999999100151MD1710101+9999REMSYN060AAXX  22204 47927 46/// /1202 10267 20245 30015 40061 57010;
0101479270999992000072713004+24770+125270FM-12+0041ROMY V0202801N003119999999N9999999N1+02821+02561100021ADDMA1999999099561MD1210091+9999REMSYN060AAXX  27134 47927 46/// /2806 10282 20256 39956 40002 52009;
0332479270999992000080609004+24770+125270SY-MT+0041ROMY V0203501N005712200019N0200001N1+02841+02421100731ADDAY101031AY201031GA1021+004509999GA2021+007509029GF103991031031999999001001MA1100711100271MD1610061+9999MW1251REMSYN072AAXX  06094 47927 41/70 33511 10284 20242 30027 40073 56006 72500 83300;MET098ROMY 060900Z 35011KT 9999 FEW015 FEW025TCU 29/24 Q1007 RMK 2CU015 1TCU025 A2974 TCU 10KM SW MOV S;EQDQ01+000000PRSWM2Q02    003PRSWM1
0267479270999992000080704004+24770+125270SY-MT+0041ROMY V0203401N005110039019N0112651N1+03011+02501100661ADDGA1071+003909999GA2071+999999999GF107991999999999999999999MA1100611100201MD1710091+9999MW1001REMSYN060AAXX  07044 47927 46/// /3410 10301 20250 30020 40066 57009;MET077ROMY 070400Z 32013KT 280V350 9999 BKN013 BKN/// 31/25 Q1006 RMK 5CU013 A2972;EQDQ01+000000PRSWM2
0101479270999992000081016004+24770+125270FM-12+0041ROMY V0201501N002619999999N9999999N1+02621+02351100551ADDMA1999999100091MD1710061+9999REMSYN060AAXX  10164 47927 46/// /1505 10262 20235 30009 40055 57006;
0259479270999992000081610004+24770+125270SY-MT+0041ROMY V0201801N005719999999N0112651N1+02911+02531100671ADDGA1021+004509999GA2071+999999999GF107991999999999999999999MA1100611100211MD1710011+9999MW1001REMSYN060AAXX  16104 47927 46/// /1811 10291 20253 30021 40067 57001;MET069ROMY 161000Z 18011KT 9999 FEW015 BKN/// 29/25 Q1006 RMK 2CU015 A2973;EQDQ01+000000PRSWM2
0281479270999992000081621004+24770+125270SY-MT+0041ROMY V0201701N002112200019N0300001N1+02711+02511100921ADDGA1021+004509999GA2071+999999999GF199999021021999999001021MA1100811100461MD1310021+9999MW1001REMSYN066AAXX  16214 47927 42/80 21704 10271 20251 30046 40092 53002 82202;MET069ROMY 162100Z 17005KT 9999 FEW015 BKN/// 27/25 Q1008 RMK 1CU015 A2979;EQDQ01+000022SCOTCVQ02+000000PRSWM2
0302479270999992000082303004+24770+125270SY-MT+0041ROMY V0201501N008719999999N0080001N1+02941+02431100841ADDAY181031AY221031GA1021+004509999GA2071+999999999GF108991061021999999071999MA1999999100381MD1010041+9999MW1251REMSYN072AAXX  23034 47927 41/58 81517 10294 20243 30038 40084 50004 72582 8627/;MET068ROMY 230300Z 14020KT 9999 FEW015 BKN/// 29/25 Q100 RMK 2CU015 A2978;EQDQ01+000000PRSWM2Q02    003PRSWM1
0101479270999992000082515004+24770+125270FM-12+0041ROMY V0201501N002119999999N9999999N1+02681+02431101001ADDMA1999999100541MD1410001+9999REMSYN060AAXX  25154 47927 46/// /1504 10268 20243 30054 40100 54000;
0281479270999992000082521004+24770+125270SY-MT+0041ROMY V0201201N001519999999N0250001N1+02591+02391100781ADDGA1021+004509999GA2071+999999999GF199999011021999999001021MA1100711100321MD1410001+9999MW1001REMSYN066AAXX  25214 47927 42/75 61203 10259 20239 30032 40078 54000 81202;MET069ROMY 252100Z 12003KT 9999 FEW015 BKN/// 25/23 Q1007 RMK 2CU015 A2975;EQDQ01+000062SCOTCVQ02+000000PRSWM2
0101479270999992000082815004+24770+125270FM-12+0041ROMY V0200401N011319999999N9999999N1+02721+02481099021ADDMA1999999098571MD1710151+9999REMSYN060AAXX  28154 47927 46/// /0422 10272 20248 39857 49902 57015;
0101479270999992000090714004+24770+125270FM-12+0041ROMY V0200401N004619999999N9999999N1+02711+02291100811ADDMA1999999100351MD1210041+9999REMSYN060AAXX  07144 47927 46/// /0409 10271 20229 30035 40081 52004;
0274479270999992000091504004+24770+125270SY-MT+0041ROMY V0203001N004610240019N0112651N1+02701+02041100231ADDGA1021+009009999GA2071+024009999GF107991999999999999999999MA1100201099771MD1210091+9999MW1001REMSYN060AAXX  15044 47927 46/// /3009 10270 20204 39977 40023 52009;MET084ROMY 150400Z 29011KT 260V330 9999 FEW030 BKN080 27/20 Q1002 RMK 1CU030 7AC080 A2959;EQDQ01+000000PRSWM2
0296479270999992000091510004+24770+125270SY-MT+0041ROMY V0203401N003110120019N0112651N1+02551+02011100441ADDGA1021+007509999GA2071+012009999GA3071+030009999GF107991999999999999999999MA1100411099981MD1210191+9999MW1001REMSYN060AAXX  15104 47927 46/// /3406 10255 20201 39998 40044 52019;MET090ROMY 151000Z 33008KT 9999 FEW025 BKN040 BKN100 25/20 Q1004 RMK 2CU025 6SC040 7AC100 A2966;EQDQ01+000000PRSWM2
0274479270999992000091610004+24770+125270SY-MT+0041ROMY V0200201N003110210019N0112651N1+02481+02031100891ADDGA1021+005409999GA2071+021009999GF107991999999999999999999MA1100811100421MD1210041+9999MW1001REMSYN060AAXX  16104 47927 46/// /0206 10248 20203 30042 40089 52004;MET084ROMY 161000Z 03005KT 350V050 9999 FEW018 BKN070 24/21 Q1008 RMK 1CU018 7AC070 A2979;EQDQ01+000000PRSWM2
0259479270999992000092107004+24770+125270SY-MT+0041ROMY V0200601N004119999999N0112651N1+02741+02301101581ADDGA1021+005409999GA2071+999999999GF107991999999999999999999MA1101491101111MD1710071+9999MW1001REMSYN060AAXX  21074 47927 46/// /0608 10274 20230 30111 40158 57007;MET069ROMY 210700Z 07011KT 9999 SCT018 BKN/// 28/23 Q1015 RMK 3CU018 A2999;EQDQ01+000000PRSWM2
0236479270999992000092511004+24770+125270SY-MT+0041ROMY V0200501N003112200019N0112651N1+02531+01901101331ADDGA1021+009009999GF102991999999999999999999MA1101291100861MD1210151+9999MW1001REMSYN060AAXX  25114 47927 46/// /0506 10253 20190 30086 40133 52015;MET062ROMY 251100Z 06004KT 9999 FEW030 24/19 Q1013 RMK 1CU030 A2991;EQDQ01+000000PRSWM2
0315479270999992000092900004+24770+125270SY-MT+0041ROMY V0201401N001012200019N0100001N1+02641+02121101521ADDAA199000091GA1021+007509999GA2021+999999999GF103991011021999999031021KA1999N+02291MA1101391101051MD1310151+9999MW1001REMSYN076AAXX  29004 47927 32/60 31402 10264 20212 30105 40152 53015 81232 333 20229;MET069ROMY 290000Z VRB03KT 9999 FEW025 SCT/// 27/23 Q1014 RMK 1CU025 A2997;EQDQ01+000000PRSWM2Q02  00002PRCP99
0101479270999992000100914004+24770+125270FM-12+0041ROMY V0200601N003119999999N9999999N1+02601+02211101321ADDMA1999999100851MD1210091+9999REMSYN060AAXX  09144 47927 46/// /0606 10260 20221 30085 40132 52009;
0101479270999992000101415004+24770+125270FM-12+0041ROMY V0200301N005719999999N9999999N1+02471+01891101691ADDMA1999999101221MD1210061+9999REMSYN060AAXX  14154 47927 46/// /0311 10247 20189 30122 40169 52006;
0341479270999992000101603004+24770+125270SY-MT+0041ROMY V0200401N007210210019N0100001N1+02561+02171101621ADDAY181031AY221031GA1021+003009999GA2021+006009999GA3071+021009999GF108991081081999999999999MA1101591101151MD1810051+9999MW1801OC101341REMSYN072AAXX  16034 47927 41/60 80414 10256 20217 30115 40162 58005 78082 888//;MET099ROMY 160300Z 05016G26KT 2500 -SHRA FEW010 SCT020 BKN070 25/22 Q1016 RMK 2CU010 4CU020 7AC070 A3001;EQDQ01    003PRSWM1
0345479270999992000101801004+24770+125270SY-MT+0041ROMY V0203601N00511027001CN0112651N1+02701+02391101381ADDGA1021+004509999GA2021+006009029GA3021+027009999GA4071+999999999GF107991999999999999999999MA1101291100911MD1210141+9999MW1001REMSYN060AAXX  18014 47927 46/// /3610 10270 20239 30091 40138 52014;MET123ROMY 180100Z 36009KT 310V020 9999 FEW015 FEW020TCU SCT090 BKN/// 27/24 Q1013 RMK 1CU015 1TCU020 3AC090 A2993 TCU NE AND SE;EQDQ01+000000PRSWM2
0206479270999992000102710444+24770+125270FM-16+0041ROMY V0203201N006710015019N0050001N1+02501+02401999999ADDGA1071+001509999GA2071+003009999GF107991999999999999999999MA1101081999999MW1611REMMET080ROMY 271044Z 32013KT 5000 -RA BKN005 BKN010 25/24 Q1011 RMK 5ST005 6CU010 A2986;EQDQ01+000003PRSWM1Q02    003PRSWM1
0161479270999992000102818004+24770+125270FM-12+0041ROMY V0201201N001512200019N0300001N1+02451+02271101221ADDAY181061AY201061GF101991011011999999001001MA1999999100751MD1610151+9999MW1021REMSYN072AAXX  28184 47927 41/80 11203 10245 20227 30075 40122 56015 70280 81100;
0251479270999992000103011144+24770+125270FM-16+0041ROMY V0200901N007710030019N0015001N1+02401+02401999999ADDGA1021+001209999GA2071+003009999GA3071+018009999GF107991999999999999999999MA1101081999999MW1651REMMET109ROMY 301114Z 09015KT 1500 R22/0800V1400D +RA SCT004 BKN010 BKN060 24/24 Q1011 RMK 3ST004 5CU010 7NS060 A2986;EQDQ01+000003PRSWM1Q02    003PRSWM1
0314479270999992000110109004+24770+125270SY-MT+0041ROMY V0202201N008219999999N0100001N1+02501+02091100421ADDAY181031AY221031GA1021+006009999GA2071+999999999GF107991011011999999031021MA1100411099961MD1310291+9999MW1021OC101651REMSYN072AAXX  01094 47927 41/60 72216 10250 20209 39996 40042 53029 70282 81132;MET072ROMY 010900Z 22022G32KT 9999 FEW020 BKN/// 24/20 Q1004 RMK 2CU020 A2965;EQDQ01+000000PRSWM2Q02    003PRSWM1
0101479270999992000110116004+24770+125270FM-12+0041ROMY V0203201N005719999999N9999999N1+02351+02011101081ADDMA1999999100611MD1210191+9999REMSYN060AAXX  01164 47927 46/// /3211 10235 20201 30061 40108 52019;
0316479270999992000110311004+24770+125270SY-MT+0041ROMY V0200401N006210045019N0112651N1+02461+02191101641ADDGA1021+003009999GA2071+004509999GA3071+015009999GF107991999999999999999999MA1101591101171MD1210101+9999MW1611REMSYN060AAXX  03114 47927 46/// /0412 10246 20219 30117 40164 52010;MET094ROMY 031100Z 05013KT 9999 -RA FEW010 BKN015 BKN050 24/22 Q1016 RMK 1CU010 5CU015 7SC050 A3001;EQDQ01+000003PRSWM1Q02    003PRSWM1
0315479270999992000110510004+24770+125270SY-MT+0041ROMY V0200601N005710150019N0070001N1+02381+02281101031ADDGA1021+001509999GA2021+003009999GA3071+015009999GF107991999999999999999999MA1101021100561MD1210051+9999MW1631REMSYN060AAXX  05104 47927 46/// /0611 10238 20228 30056 40103 52005;MET093ROMY 051000Z 06011KT 7000 RA FEW005 SCT010 BKN050 24/23 Q1010 RMK 2ST005 4CU010 6SC050 A2983;EQDQ01+000003PRSWM1Q02    003PRSWM1
0292479270999992000110822004+24770+125270SY-MT+0041ROMY V0201001N005710030019N0040001N1+02371+02271100831ADDGA1021+001509999GA2071+003009999GF107991999999999999999999MA1100711100361MD1710121+9999MW1811REMSYN060AAXX  08224 47927 46/// /1011 10237 20227 30036 40083 57012;MET086ROMY 082200Z 10013KT 4000 SHRA FEW005 BKN010 24/23 Q1007 RERA RMK 1ST005 6CU010 A2976;EQDQ01+000003PRSWM1Q02    003PRSWM1
0101479270999992000111617004+24770+125270FM-12+0041ROMY V0200601N003619999999N9999999N1+02351+02211101621ADDMA1999999101151MD1710111+9999REMSYN060AAXX  16174 47927 46/// /0607 10235 20221 30115 40162 57011;
0266479270999992000112907004+24770+125270SY-MT+0041ROMY V0200501N004612200019N0112651N1+02251+01331101871ADDGA1021+010509999GA2021+018009999GF104991999999999999999999MA1101801101391MD1710071+9999MW1001REMSYN060AAXX  29074 47927 46/// /0509 10225 20133 30139 40187 57007;MET076ROMY 290700Z 06009KT 9999 FEW035 SCT060 23/15 Q1018 RMK 1CU035 3SC060 A3008;EQDQ01+000000PRSWM2
0236479270999992000120910004+24770+125270SY-MT+0041ROMY V0200401N001512200019N0112651N1+02231+01591101541ADDGA1021+010509999GF102991999999999999999999MA1101491101071MD1210111+9999MW1001REMSYN060AAXX  09104 47927 46/// /0403 10223 20159 30107 40154 52011;MET062ROMY 091000Z 04003KT 9999 FEW035 20/16 Q1015 RMK 1CU035 A2998;EQDQ01+000000PRSWM2
0252479270999992000121506004+24770+125270SY-MT+0041ROMY V0200501N006712200019N0250001N1+02251+01561101931ADDGA1021+007509999GF102991021011999999031001MA1101901101451MD1610141+9999MW1001REMSYN076AAXX  15064 47927 42/75 20513 10225 20156 30145 40193 56014 82130 555 00229;MET062ROMY 150600Z 07015KT 9999 FEW025 23/16 Q1019 RMK 2CU025 A3009;EQDQ01+000000PRSWM2
0274479270999992000122702004+24770+125270SY-MT+0041ROMY V0200401N007212200019N0112651N1+02011+01021102431ADDGA1021+011409999GA2021+036009999GF104991999999999999999999MA1102401101951MD1210041+9999MW1001REMSYN060AAXX  27024 47927 46/// /0414 10201 20102 30195 40243 52004;MET084ROMY 270200Z 04015KT 010V070 9999 FEW038 SCT120 20/11 Q1024 RMK 2CU038 4AC120 A3024;EQDQ01+000000PRSWM2
0282479270999992000122706004+24770+125270SY-MT+0041ROMY V0200501N006210150019N0250001N1+02031+01231102091ADDGA1021+009609999GA2071+015009999GF107991071081999999031999MA1102001101611MD1610251+9999MW1001REMSYN076AAXX  27064 47927 42/75 70512 10203 20123 30161 40209 56025 8783/ 555 00215;MET076ROMY 270600Z 05012KT 9999 SCT032 BKN050 20/12 Q1020 RMK 4CU032 6SC050 A3013;EQDQ01+000000PRSWM2
0189479276999992000010322004+24830+125150FM-15+0016RORS V0200501N003110150019N0112651N1+01701+01601999999ADDGA1021+007509999GA2071+015009999GF107991999999999999999999MA1101691999999MW1001REMMET079RORS 2200Z 05006KT 9999 FEW025 BKN050 17/16 Q1017 RERA RMK 2CU025 7SC050 A3004;EQDQ01+000000PRSWM2
0184479276999992000010710004+24830+125150FM-15+0016RORS V0200601N010810240019N0112651N1+01901+01401999999ADDGA1021+006609999GA2071+024009999GF107991999999999999999999MA1101591999999MW1001REMMET074RORS 1000Z 06021KT 9999 FEW022 BKN080 19/14 Q1016 RMK 2CU022 7AC080 A3003;EQDQ01+000000PRSWM2
0214479276999992000011305004+24830+125150FM-15+0016RORS V0200101N010810180019N0112651N1+01901+01501999999ADDGA1021+006009999GA2021+007509999GA3071+018009999GF107991999999999999999999MA1101191999999MW1001REMMET088RORS 0500Z 01021KT 9999 FEW020 SCT025 BKN060 19/15 Q1012 RMK 1CU020 3CU025 7SC060 A2989;EQDQ01+000000PRSWM2
0184479276999992000011309004+24830+125150FM-15+0016RORS V0200301N010310150019N0112651N1+01801+01501999999ADDGA1021+004509999GA2071+015009999GF107991999999999999999999MA1101291999999MW1001REMMET074RORS 0900Z 03020KT 9999 FEW015 BKN050 18/15 Q1013 RMK 2CU015 7SC050 A2992;EQDQ01+000000PRSWM2
0239479276999992000012505004+24830+125150FM-15+0016RORS V0200201N016510045019N0112651N1+01501+01401999999ADDGA1021+003009999GA2071+004509999GA3081+024009999GF108991999999999999999999MA1102101999999MW1611REMMET097RORS 0500Z 02032KT 9999 -RA FEW010 BKN015 OVC080 15/14 Q1021 RERA RMK 2CU010 5CU015 8AS080 A3017;EQDQ01+000003PRSWM1Q02    003PRSWM1
0214479276999992000012908004+24830+125150FM-15+0016RORS V0200901N003610210019N0112651N1+01801+01201999999ADDGA1021+007509999GA2021+012009999GA3071+021009999GF107991999999999999999999MA1102401999999MW1001REMMET088RORS 0800Z 09007KT 9999 FEW025 SCT040 BKN070 18/12 Q1024 RMK 1CU025 3SC040 7AC070 A3026;EQDQ01+000000PRSWM2
0184479276999992000020206004+24830+125150FM-15+0016RORS V0200701N009312200019N0112651N1+02001+01301999999ADDGA1021+005409999GA2021+006909999GF104991999999999999999999MA1102201999999MW1001REMMET074RORS 0600Z 07018KT 9999 FEW018 SCT023 20/13 Q1022 RMK 1CU018 3CU023 A3019;EQDQ01+000000PRSWM2
0184479276999992000020503004+24830+125150FM-15+0016RORS V0201301N008710240019N0112651N1+02201+01601999999ADDGA1021+006909999GA2071+024009999GF107991999999999999999999MA1101801999999MW1001REMMET074RORS 0300Z 13017KT 9999 FEW023 BKN080 22/16 Q1018 RMK 2CU023 6AC080 A3007;EQDQ01+000000PRSWM2
0197479276999992000020508004+24830+125150FM-15+0016RORS V0201301N007719999999N0112651N1+02001+01701999999ADDGA1021+006009999GA2071+999999999GF107991999999999999999999MA1101591999999MW1611REMMET071RORS 0800Z 13015KT 9999 -RA FEW020 BKN/// 20/17 Q1016 RMK 2CU020 A3001;EQDQ01+000003PRSWM1Q02    003PRSWM1
0207479276999992000020510004+24830+125150FM-15+0016RORS V0201301N009310240019N0112651N1+02001+01801999999ADDGA1021+006009999GA2071+024009999GA3071+999999999GF107991999999999999999999MA1101491999999MW1001REMMET081RORS 1000Z 13018KT 9999 FEW020 BKN080 BKN/// 20/18 Q1015 RMK 1CU020 5AC080 A2999;EQDQ01+000000PRSWM2
0214479276999992000020704004+24830+125150FM-15+0016RORS V0203601N009810150019N0112651N1+01801+01601999999ADDGA1021+003009999GA2021+006009999GA3071+015009999GF107991999999999999999999MA1101191999999MW1001REMMET088RORS 0400Z 36019KT 9999 FEW010 SCT020 BKN050 18/16 Q1012 RMK 1CU010 3CU020 7SC050 A2990;EQDQ01+000000PRSWM2
0184479276999992000021509004+24830+125150FM-15+0016RORS V0200201N011310210019N0112651N1+01401+00601999999ADDGA1021+009009999GA2071+021009999GF107991999999999999999999MA1102001999999MW1001REMMET074RORS 0900Z 02022KT 9999 FEW030 BKN070 14/06 Q1020 RMK 1CU030 6AC070 A3014;EQDQ01+000000PRSWM2
0243479276999992000022123004+24830+125150FM-15+0016RORS V0201001N003610150019N0040001N1+01601+01601999999ADDGA1021+004509999GA2071+015009999GA3081+024009999GF108991999999999999999999MA1101391999999MW1101MW2611REMMET095RORS 2300Z 10007KT 4000 -RA BR FEW015 BKN050 OVC080 16/16 Q1014 RMK 1CU015 6SC050 8AS080 A2995;EQDQ01+000003PRSWM1Q02    003PRSWM1
0214479276999992000022606004+24830+125150FM-15+0016RORS V0200101N014410180019N0112651N1+01401+00801999999ADDGA1021+006009999GA2021+008409999GA3071+018009999GF107991999999999999999999MA1101801999999MW1001REMMET088RORS 0600Z 01028KT 9999 FEW020 SCT028 BKN060 14/08 Q1018 RMK 1CU020 3CU028 7SC060 A3007;EQDQ01+000000PRSWM2
0234479276999992000030809004+24830+125150FM-15+0016RORS V0200601N009810090019N0112651N1+01701+01501999999ADDGA1021+004509999GA2071+009009999GA3071+015009999GF107991999999999999999999MA1101691999999MW1611REMMET092RORS 0900Z 06019KT 9999 -RA SCT015 BKN030 BKN050 17/15 Q1017 RMK 3CU015 5CU030 7SC050 A3003;EQDQ01+000003PRSWM1Q02    003PRSWM1
0106479276999992000031400004+24830+125150FM-15+0016RORS V0201101N00571220001CN0099001N1+02201+01901999999ADDMA1101591999999MW1001REMMET054RORS 0000Z 11011KT CAVOK 22/19 Q1016 RMK 7SC060 A3001;EQDQ01+000000PRSWM2
0154479276999992000031506004+24830+125150FM-15+0016RORS V0201801N007212200019N0112651N1+02401+02101999999ADDGA1021+003609999GF102991999999999999999999MA1101021999999MW1001REMMET060RORS 0600Z 18014KT 9999 FEW012 24/21 Q1010 RMK 2CU012 A2983;EQDQ01+000000PRSWM2
0214479276999992000031603004+24830+125150FM-15+0016RORS V0200101N012910060019N0112651N1+01901+01701999999ADDGA1021+003009999GA2071+006009999GA3071+015009999GF107991999999999999999999MA1101191999999MW1001REMMET088RORS 0300Z 01025KT 9999 FEW010 BKN020 BKN050 19/17 Q1012 RMK 2CU010 6CU020 7SC050 A2989;EQDQ01+000000PRSWM2
0184479276999992000031722004+24830+125150FM-15+0016RORS V0201301N003610120019N0112651N1+01801+01501999999ADDGA1021+006009999GA2071+012009999GF107991999999999999999999MA1101491999999MW1001REMMET074RORS 2200Z 13007KT 9999 FEW020 BKN040 18/15 Q1015 RMK 2CU020 7SC040 A2998;EQDQ01+000000PRSWM2
0170479276999992000032407004+24830+125150FM-15+0016RORS V0200201N011812200019N9999999N1+01901+00901999999ADDGA1021+010509999GF102991999999999999999999MA1102001999999MW1001REMMET060RORS 0700Z 02023KT 7000 FEW035 19/09 Q1020 RMK 1CU035 A3012;EQDQ01+070002VODIS Q02+000000PRSWM2
0214479276999992000032902004+24830+125150FM-15+0016RORS V0200201N011319999999N0112651N1+02001+01001999999ADDGA1021+009009999GA2021+013509999GA3071+999999999GF107991999999999999999999MA1102201999999MW1001REMMET088RORS 0200Z 02022KT 9999 FEW030 SCT045 BKN/// 20/10 Q1022 RMK 1CU030 3SC045 6///// A3019;EQDQ01+000000PRSWM2
0184479276999992000040503004+24830+125150FM-15+0016RORS V0200201N008210300019N0112651N1+02401+01801999999ADDGA1021+006009999GA2071+030009999GF107991999999999999999999MA1101191999999MW1001REMMET074RORS 0300Z 02016KT 9999 FEW020 BKN100 24/18 Q1012 RMK 2CU020 7AC100 A2989;EQDQ01+000000PRSWM2
0154479276999992000040905004+24830+125150FM-15+0016RORS V0201401N007212200019N0112651N1+02601+02201999999ADDGA1021+003009999GF102991999999999999999999MA1101191999999MW1001REMMET060RORS 0500Z 14014KT 9999 FEW010 26/22 Q1012 RMK 2CU010 A2990;EQDQ01+000000PRSWM2
0154479276999992000041706004+24830+125150FM-15+0016RORS V0200601N004612200019N0112651N1+02101+01001999999ADDGA1021+013509999GF102991999999999999999999MA1101691999999MW1001REMMET060RORS 0600Z 06009KT 9999 FEW045 21/10 Q1017 RMK 1SC045 A3003;EQDQ01+000000PRSWM2
0184479276999992000041807004+24830+125150FM-15+0016RORS V0201401N006712200019N0112651N1+02501+01801999999ADDGA1021+007509999GA2021+024009999GF104991999999999999999999MA1101391999999MW1001REMMET074RORS 0700Z 14013KT 9999 FEW025 SCT080 25/18 Q1014 RMK 1CU025 4AC080 A2996;EQDQ01+000000PRSWM2
0216479276999992000042406004+24830+125150FM-15+0016RORS V0200901N008710120019N0112651N1+02101+01601999999ADDGA1021+007509999GA2071+012009999GA3071+036009999GF107991999999999999999999MA1101081999999MW1001REMMET090RORS 240600Z 09017KT 9999 FEW025 BKN040 BKN120 21/16 Q1011 RMK 1CU025 5SC040 7AS120 A2986;EQDQ01+000000PRSWM2
0186479276999992000042508004+24830+125150FM-15+0016RORS V0202001N005710180019N0112651N1+02601+02301999999ADDGA1021+003009999GA2071+018009999GF107991999999999999999999MA1100511999999MW1001REMMET076RORS 250800Z 20011KT 9999 FEW010 BKN060 26/23 Q1005 RMK 1CU010 7SC060 A2969;EQDQ01+000000PRSWM2
0186479276999992000051011004+24830+125150FM-15+0016RORS V0200301N008212200019N0112651N1+02401+01801999999ADDGA1021+008109999GA2021+045009999GF104991999999999999999999MA1100711999999MW1001REMMET076RORS 101100Z 03016KT 9999 FEW027 SCT150 24/18 Q1007 RMK 2CU027 3AC150 A2975;EQDQ01+000000PRSWM2
0109479276999992000051202004+24830+125150FM-15+0016RORS V0200501N00361220001CN0099001N1+02601+01301999999ADDMA1100911999999MW1001REMMET057RORS 120200Z 05007KT 010V110 CAVOK 26/13 Q1009 RMK A2980;EQDQ01+000000PRSWM2
0186479276999992000051210004+24830+125150FM-15+0016RORS V0201501N002610240019N0112651N1+02201+01601999999ADDGA1021+012009999GA2071+024009999GF107991999999999999999999MA1100811999999MW1001REMMET076RORS 121000Z 15005KT 9999 FEW040 BKN080 22/16 Q1008 RMK 1CU040 6AC080 A2977;EQDQ01+000000PRSWM2
0238479276999992000051608004+24830+125150FM-15+0016RORS V0201401N006712200019N0112651N1+02701+02301999999ADDGA1021+003609999GA2021+005109029GA3021+045009999GF104991999999999999999999MA1100611999999MW1001REMMET112RORS 160800Z 14013KT 9999 SCT012 FEW017TCU SCT150 27/23 Q1006 RMK 3CU012 1TCU017 3AC150 A2971 TCU 5KM NW MOV NW;EQDQ01+000000PRSWM2
0216479276999992000051904004+24830+125150FM-15+0016RORS V0200501N010810240019N0112651N1+02501+02001999999ADDGA1021+004509999GA2021+018009999GA3071+024009999GF107991999999999999999999MA1100411999999MW1001REMMET090RORS 190400Z 05021KT 9999 FEW015 SCT060 BKN080 25/20 Q1004 RMK 1CU015 3SC060 7AC080 A2967;EQDQ01+000000PRSWM2
0156479276999992000052408004+24830+125150FM-15+0016RORS V0200701N005112200019N0112651N1+02601+02201999999ADDGA1021+004509999GF104991999999999999999999MA1100911999999MW1001REMMET062RORS 240800Z 07010KT 9999 SCT015 26/22 Q1009 RMK 3CU015 A2980;EQDQ01+000000PRSWM2
0179479276999992000060110004+24830+125150FM-15+0016RORS V0201601N004619999999N0112651N1+02801+02501999999ADDGA1021+004509999GA2071+999999999GF107991999999999999999999MA1101081999999MW1001REMMET069RORS 011000Z 16009KT 9999 FEW015 BKN/// 28/25 Q1011 RMK 1CU015 A2987;EQDQ01+000000PRSWM2
0208479276999992000060503004+24830+125150FM-15+0016RORS V0202101N004112200019N0112651N1+02901+02601999999ADDGA1021+003009999GA2021+004509029GF102991999999999999999999MA1100611999999MW1001REMMET098RORS 050300Z 21008KT 9999 FEW010 FEW015TCU 29/26 Q1006 RMK 1CU010 1TCU015 A2972 TCU 20KM S MOV NE;EQDQ01+000000PRSWM2
0156479276999992000060504004+24830+125150FM-15+0016RORS V0202401N004112200019N0112651N1+03101+02601999999ADDGA1021+003609999GF102991999999999999999999MA1100611999999MW1001REMMET062RORS 050400Z 24008KT 9999 FEW012 31/26 Q1006 RMK 1CU012 A2972;EQDQ01+000000PRSWM2
0294479276999992000061111004+24830+125150FM-15+0016RORS V0202501N00871007501CN0112651N1+02701+02501999999ADDGA1021+001809999GA2021+004509999GA3021+007509099GA4071+030009999GF107991999999999999999999MA1100511999999MW1801REMMET136RORS 111100Z 25017KT 9999 -SHRA FEW006 SCT015 FEW025CB BKN100 27/25 Q1005 RETS RMK 1ST006 3CU015 2CB025 5AC100 A2969 CB 5KM W-NE MOV NE;EQDQ01+000003PRSWM1Q02    003PRSWM1
0187479276999992000061906004+24820+125140FM-15+0016RORS V0201601N004119999999N0112651N1+02901+02501999999ADDGA1021+003009999GA2071+999999999GF107991999999999999999999MA1101021999999MW1001REMMET077RORS 190600Z 16008KT 140V200 9999 FEW010 BKN/// 29/25 Q1010 RMK 2CU010 A2985;EQDQ01+000000PRSWM2
0179479276999992000061910004+24820+125140FM-15+0016RORS V0201501N003619999999N0112651N1+02801+02501999999ADDGA1021+003609999GA2071+999999999GF107991999999999999999999MA1101021999999MW1001REMMET069RORS 191000Z 15007KT 9999 FEW012 BKN/// 28/25 Q1010 RMK 1CU012 A2984;EQDQ01+000000PRSWM2
0156479276999992000062303004+24820+125140FM-15+0016RORS V0201801N007212200019N0112651N1+03001+02601999999ADDGA1021+003609999GF104991999999999999999999MA1101081999999MW1001REMMET062RORS 230300Z 18014KT 9999 SCT012 30/26 Q1011 RMK 3CU012 A2986;EQDQ01+000000PRSWM2
0179479276999992000062508004+24820+125140FM-15+0016RORS V0202001N005712200019N0112651N1+03001+02701999999ADDGA1021+003609999GA2021+999999999GF104991999999999999999999MA1100911999999MW1001REMMET069RORS 250800Z 20011KT 9999 SCT012 SCT/// 30/27 Q1009 RMK 3CU012 A2981;EQDQ01+000000PRSWM2
0179479276999992000070522004+24820+125140FM-15+0016RORS V0200501N008719999999N0112651N1+02801+02401999999ADDGA1021+004509999GA2071+999999999GF107991999999999999999999MA1100311999999MW1001REMMET069RORS 052200Z 05017KT 9999 FEW015 BKN/// 28/24 Q1003 RMK 2CU015 A2962;EQDQ01+000000PRSWM2
0179479276999992000070911004+24820+125140FM-15+0016RORS V0201501N010319999999N0112651N1+02801+02601999999ADDGA1021+004509999GA2071+999999999GF107991999999999999999999MA1100001999999MW1001REMMET069RORS 091100Z 15020KT 9999 FEW015 BKN/// 28/26 Q1000 RMK 2CU015 A2955;EQDQ01+000000PRSWM2
0209479276999992000071807004+24820+125140FM-15+0016RORS V0201501N005119999999N0112651N1+03001+02601999999ADDGA1021+003609999GA2021+048009999GA3071+999999999GF107991999999999999999999MA1100811999999MW1001REMMET083RORS 180700Z 15010KT 9999 FEW012 SCT160 BKN/// 30/26 Q1008 RMK 1CU012 4AC160 A2977;EQDQ01+000000PRSWM2
0205479276999992000072202004+24820+125140FM-15+0016RORS V0200101N004612200019N0112651N1+02901+02501999999ADDGA1021+005709999GA2021+007509029GF104991999999999999999999MA1100811999999MW1001REMMET095RORS 220200Z 01009KT 9999 FEW019 SCT025TCU 29/25 Q1008 RMK 2CU019 4TCU025 A2978 TCU OHD MOV NW;EQDQ01+000000PRSWM2
0207479276999992000072223004+24820+125140FM-15+0016RORS V0201501N003612200019N0112651N1+02901+02601999999ADDGA1021+006009999GA2021+007509029GF102991999999999999999999MA1100511999999MW1001REMMET097RORS 222300Z 15007KT 9999 FEW020 FEW025TCU 29/26 Q1005 RMK 1CU020 1TCU025 A2970 TCU SE-SW MOV NW;EQDQ01+000000PRSWM2
0186479276999992000072901004+24820+125140FM-15+0016RORS V0202301N010810210019N0112651N1+02901+02601999999ADDGA1021+003909999GA2071+021009999GF107991999999999999999999MA1100101999999MW1001REMMET076RORS 290100Z 23021KT 9999 FEW013 BKN070 29/26 Q1001 RMK 2CU013 7AC070 A2956;EQDQ01+000000PRSWM2
0304479276999992000080101004+24820+125140FM-15+0016RORS V0202201N006210075019N0035001N1+02501+02401999999ADDGA1021+001509999GA2021+003609999GA3071+007509099GA4081+021009999GF108991999999999999999999MA1100611999999MW1811MW2951REMMET140RORS 010100Z 22012KT 3500 TSRA FEW005 SCT012 BKN025CB OVC070 25/24 Q1006 RERA RMK 1ST005 3CU012 5CB025 8AS070 A2972 FBL TS W TCU OHD MOV NE;EQDQ01+000003PRSWM1Q02    003PRSWM1
0179479276999992000081007004+24820+125140FM-15+0016RORS V0201501N008219999999N0112651N1+02901+02401999999ADDGA1021+006909999GA2071+999999999GF107991999999999999999999MA1100411999999MW1001REMMET069RORS 100700Z 15016KT 9999 FEW023 BKN/// 29/24 Q1004 RMK 1CU023 A2965;EQDQ01+000000PRSWM2
0156479276999992000081404004+24820+125140FM-15+0016RORS V0201901N006212200019N0112651N1+03001+02601999999ADDGA1021+005409999GF102991999999999999999999MA1100711999999MW1001REMMET062RORS 140400Z 19012KT 9999 FEW018 30/26 Q1007 RMK 1CU018 A2976;EQDQ01+000000PRSWM2
0186479276999992000082711004+24820+125140FM-15+0016RORS V0200201N009810510019N0112651N1+02801+02501999999ADDGA1021+004509999GA2071+051009999GF107991999999999999999999MA1100311999999MW1001REMMET076RORS 271100Z 02019KT 9999 FEW015 BKN170 28/25 Q1003 RMK 2CU015 7AC170 A2963;EQDQ01+000000PRSWM2
0208479276999992000082906004+24820+125140FM-15+0016RORS V0200701N006710039019N0112651N1+02701+02601999999ADDGA1021+002409999GA2071+003909999GF107991999999999999999999MA1097901999999MW1801REMMET082RORS 290600Z 07013KT 9999 -SHRA SCT008 BKN013 27/26 Q0979 RMK 4CU008 7CU013 A2892;EQDQ01+000003PRSWM1Q02    003PRSWM1
0208479276999992000082911004+24820+125140FM-15+0016RORS V0201801N008710045019N0112651N1+02601+02501999999ADDGA1021+002409999GA2071+004509999GF107991999999999999999999MA1097801999999MW1801REMMET082RORS 291100Z 18017KT 9999 -SHRA SCT008 BKN015 26/25 Q0978 RMK 4CU008 7CU015 A2890;EQDQ01+000003PRSWM1Q02    003PRSWM1
0241479276999992000091410004+24820+125140FM-15+0016RORS V0202701N010310150019N0050001N1+02301+02201999999ADDGA1021+001809999GA2021+003609999GA3071+015009999GF107991999999999999999999MA1099701999999MW1611REMMET099RORS 141000Z 27020KT 5000 -RA FEW006 SCT012 BKN050 23/22 Q0997 RERA RMK 1ST006 3CU012 7SC050 A2945;EQDQ01+000003PRSWM1Q02    003PRSWM1
0186479276999992000091606004+24820+125140FM-15+0016RORS V0200201N006210210019N0112651N1+02601+02001999999ADDGA1021+006909999GA2071+021009999GF107991999999999999999999MA1100811999999MW1001REMMET076RORS 160600Z 02012KT 9999 FEW023 BKN070 26/20 Q1008 RMK 1CU023 7AC070 A2978;EQDQ01+000000PRSWM2
0186479276999992000092104004+24820+125140FM-15+0016RORS V0200801N006712200019N0112651N1+02901+02301999999ADDGA1021+004809999GA2021+010509999GF104991999999999999999999MA1101591999999MW1001REMMET076RORS 210400Z 08013KT 9999 FEW016 SCT035 29/23 Q1016 RMK 2CU016 4CU035 A3001;EQDQ01+000000PRSWM2
0194479276999992000100510004+24820+125140FM-15+0016RORS V0200701N003112200019N0112651N1+02701+02401999999ADDGA1021+004809999GA2021+007509099GF102991999999999999999999MA1101291999999MW1001REMMET084RORS 051000Z 07006KT 9999 FEW016 FEW025CB 27/24 Q1013 RMK 2CU016 1CB025 A2993 CB NW;EQDQ01+000000PRSWM2
0216479276999992000102601004+24820+125140FM-15+0016RORS V0203001N010310150019N0112651N1+02601+02201999999ADDGA1021+004509999GA2021+006009999GA3071+015009999GF107991999999999999999999MA1101191999999MW1001REMMET090RORS 260100Z 30020KT 9999 FEW015 SCT020 BKN050 26/22 Q1012 RMK 2CU015 4CU020 7SC050 A2988;EQDQ01+000000PRSWM2
0216479276999992000110210004+24820+125140FM-15+0016RORS V0200101N012310120019N0112651N1+02401+02001999999ADDGA1021+006009999GA2021+007509999GA3071+012009999GF107991999999999999999999MA1101491999999MW1001REMMET090RORS 021000Z 01024KT 9999 FEW020 SCT025 BKN040 24/20 Q1015 RMK 2CU020 3CU025 7SC040 A2997;EQDQ01+000000PRSWM2
0216479276999992000110307004+24820+125140FM-15+0016RORS V0200401N009310069019N0112651N1+02501+02101999999ADDGA1021+004809999GA2071+006909999GA3071+015009999GF107991999999999999999999MA1101491999999MW1001REMMET090RORS 030700Z 04018KT 9999 FEW016 BKN023 BKN050 25/21 Q1015 RMK 2CU016 5CU023 7SC050 A2998;EQDQ01+000000PRSWM2
0308479276999992000110805114+24820+125140FM-16+0016RORS V0200901N007210069019N0060001N1+02501+02301999999ADDGA1021+003009999GA2071+006909999GA3021+007509029GA4071+012009999GF107991999999999999999999MA1101081999999MW1811REMMET150RORS 080511Z 09014KT 6000 R17/0650VP1800D SHRA FEW010 BKN023 FEW025TCU BKN040 25/23 Q1011 RMK 1CU010 5CU023 2TCU025 7SC040 A2988 TCU 10KM E-SW MOV NW;EQDQ01+000003PRSWM1Q02    003PRSWM1
0206479276999992000110904004+24820+125140FM-15+0016RORS V0200101N014910027019N0070001N1+02401+02301999999ADDGA1021+001509999GA2071+002709999GF107991999999999999999999MA1100811999999MW1611REMMET080RORS 090400Z 01029KT 7000 -RA SCT005 BKN009 24/23 Q1008 RMK 3ST005 6CU009 A2977;EQDQ01+000003PRSWM1Q02    003PRSWM1
0156479276999992000112902004+24820+125140FM-15+0016RORS V0200601N008712200019N0112651N1+02401+01501999999ADDGA1021+009609999GF104991999999999999999999MA1102001999999MW1001REMMET062RORS 290200Z 06017KT 9999 SCT032 24/15 Q1020 RMK 3CU032 A3012;EQDQ01+000000PRSWM2
0156479276999992000113022004+24820+125140FM-15+0016RORS V0201101N001512200019N0112651N1+02001+01801999999ADDGA1021+008109999GF102991999999999999999999MA1101491999999MW1001REMMET062RORS 302200Z 11003KT 9999 FEW027 20/18 Q1015 RMK 1CU027 A2999;EQDQ01+000000PRSWM2
0179479276999992000120102004+24820+125140FM-15+0016RORS V0203501N001519999999N0112651N1+02601+01901999999ADDGA1021+007509999GA2071+999999999GF107991999999999999999999MA1101691999999MW1001REMMET069RORS 010200Z 35003KT 9999 FEW025 BKN/// 26/19 Q1017 RMK 1CU025 A3004;EQDQ01+000000PRSWM2
0186479276999992000120302004+24820+125140FM-15+0016RORS V0200201N010810111019N0112651N1+02301+01701999999ADDGA1021+008409999GA2071+011109999GF107991999999999999999999MA1101691999999MW1001REMMET076RORS 030200Z 02021KT 9999 FEW028 BKN037 23/17 Q1017 RMK 2CU028 6SC037 A3003;EQDQ01+000000PRSWM2
0186479276999992000121100004+24820+125140FM-15+0016RORS V0200301N014910240019N0112651N1+02201+01501999999ADDGA1021+008109999GA2071+024009999GF107991999999999999999999MA1102101999999MW1001REMMET076RORS 110000Z 03029KT 9999 SCT027 BKN080 22/15 Q1021 RMK 3CU027 7AC080 A3017;EQDQ01+000000PRSWM2
0216479276999992000121310004+24820+125140FM-15+0016RORS V0201001N008710210019N0112651N1+02201+01801999999ADDGA1021+007509999GA2021+015009999GA3071+021009999GF107991999999999999999999MA1101291999999MW1001REMMET090RORS 131000Z 10017KT 9999 FEW025 SCT050 BKN070 22/18 Q1013 RMK 1CU025 3SC050 7AC070 A2992;EQDQ01+000000PRSWM2
0249479276999992000122009284+24820+125140FM-16+0016RORS V0203301N01181220001CN0030001N1+02301+02101999999ADDGA1021+001809999GA2071+003609999GA3021+006009099MA1101291999999MW1811REMMET117RORS 200928Z 33023KT 3000 SHRA FEW006 BKN012 FEW020CB 23/21 Q1013 RMK 1ST006 5CU012 2CB020 A2992 CB 15KM SW-W MOV NE;EQDQ01+000022SCOTCVQ02+000003PRSWM1Q03    003PRSWM1
0154479290999992000011012004+26330+126800FM-12+0005ROKJ V0200501N004619999999N9999999N1+02051+01491101901ADDAA106000091KA1999M+02201MA1999999101841MD1010101+9999REMSYN070AAXX  10124 47929 36/// /0509 10205 20149 30184 40190 50010 333 10220;EQDQ01  00002PRCP06
0101479290999992000011016004+26330+126800FM-12+0005ROKJ V0200601N003119999999N9999999N1+02011+01411101871ADDMA1999999101811MD1810051+9999REMSYN060AAXX  10164 47929 46/// /0606 10201 20141 30181 40187 58005;
0310479290999992000011306004+26330+126800SY-MT+0005ROKJ V0203301N004610150019N0300001N1+01941+01361101271ADDGA1021+006009999GA2021+007509999GA3071+015009999GF108991071021999999071999MA1101191101211MD1610161+9999MW1001REMSYN076AAXX  13064 47929 42/80 83309 10194 20136 30121 40127 56016 8727/ 555 00200;MET088ROKJ 0600Z 36018KT 9999 FEW020 SCT025 BKN050 20/14 Q1012 RMK 2CU020 4CU025 6SC050 A2989;EQDQ01+000000PRSWM2
0234479290999992000012308004+26330+126800SY-MT+0005ROKJ V0201801N003112200019N0112651N1+02171+01291102111ADDGA1021+009009999GF102991999999999999999999MA1102001102051MD1510071+9999MW1001REMSYN060AAXX  23084 47929 46/// /1806 10217 20129 30205 40211 55007;MET060ROKJ 0800Z 18012KT 9999 FEW030 22/13 Q1020 RMK 2CU030 A3014;EQDQ01+000000PRSWM2
0101479290999992000020117004+26330+126800FM-12+0005ROKJ V0200101N005719999999N9999999N1+01501+01091102591ADDMA1999999102531MD1810081+9999REMSYN060AAXX  01174 47929 46/// /0111 10150 20109 30253 40259 58008;
0314479290999992000020607004+26330+126800SY-MT+0005ROKJ V0203601N005710036019N0040001N1+01691+01561101461ADDGA1021+002409999GA2071+003609999GA3081+024009999GF108991999999999999999999MA1101391101401MD1610051+9999MW1611REMSYN060AAXX  06074 47929 46/// /3611 10169 20156 30140 40146 56005;MET092ROKJ 0700Z 01018KT 4000 -RA FEW008 BKN012 OVC080 17/16 Q1014 RMK 2ST008 5CU012 8AS080 A2995;EQDQ01+000003PRSWM1Q02    003PRSWM1
0332479290999992000020700004+26330+126800SY-MT+0005ROKJ V0200401N004110150019N0200001N1+01771+01161101481ADDAA112000591GA1021+007509999GA2071+015009999GF107991041081999999071999KA1999N+01671MA1101391101421MD1110071+9999MW1021REMSYN088AAXX  07004 47929 11/70 70408 10177 20116 30142 40148 51007 69952 702// 8487/ 333 20167;MET074ROKJ 0000Z 05012KT 9999 SCT025 BKN050 18/12 Q1014 RMK 3CU025 7SC050 A2995;EQDQ01+000000PRSWM2Q02    003PRSWM1
0264479290999992000020721004+26330+126800SY-MT+0005ROKJ V0203401N007210150019N0112651N1+01251+00331101611ADDGA1021+009009999GA2071+015009999GF107991999999999999999999MA1101491101551MD1310081+9999MW1001REMSYN060AAXX  07214 47929 46/// /3414 10125 20033 30155 40161 53008;MET074ROKJ 2100Z 35023KT 9999 SCT030 BKN050 13/06 Q1015 RMK 3CU030 7SC050 A2999;EQDQ01+000000PRSWM2
0101479290999992000021019004+26330+126800FM-12+0005ROKJ V0201901N002619999999N9999999N1+01731+01161101671ADDMA1999999101611MD1810171+9999REMSYN060AAXX  10194 47929 46/// /1905 10173 20116 30161 40167 58017;
0101479290999992000021217004+26330+126800FM-12+0005ROKJ V0201001N002119999999N9999999N1+01791+01491101561ADDMA1999999101501MD1810021+9999REMSYN060AAXX  12174 47929 46/// /1004 10179 20149 30150 40156 58002;
0272479290999992000021307004+26330+126800SY-MT+0005ROKJ V0201201N002610150019N0112651N1+02091+01461101271ADDGA1021+007509999GA2071+015009999GF107991999999999999999999MA1101191101211MD1610111+9999MW1001REMSYN060AAXX  13074 47929 46/// /1205 10209 20146 30121 40127 56011;MET082ROKJ 0700Z 10007KT 080V140 9999 SCT025 BKN050 21/14 Q1012 RMK 3CU025 5SC050 A2989;EQDQ01+000000PRSWM2
0294479290999992000021901004+26330+126800SY-MT+0005ROKJ V0202001N007710240019N0112651N1+02211+01721101031ADDGA1021+004509999GA2021+006009999GA3071+024009999GF107991999999999999999999MA1100911100971MD1510061+9999MW1001REMSYN060AAXX  19014 47929 46/// /2015 10221 20172 30097 40103 55006;MET088ROKJ 0100Z 21027KT 9999 FEW015 SCT020 BKN080 22/17 Q1009 RMK 1CU015 3CU020 5AC080 A2981;EQDQ01+000000PRSWM2
0316479290999992000021902004+26330+126800SY-MT+0005ROKJ V0202101N008710240019N0112651N1+02251+01741100961ADDGA1021+003009999GA2021+006009999GA3071+024009999GF107991999999999999999999MA1100811100901MD1810101+9999MW1801REMSYN060AAXX  19024 47929 46/// /2117 10225 20174 30090 40096 58010;MET094ROKJ 0200Z 21027KT 9999 -SHRA FEW010 SCT020 BKN080 23/18 Q1008 RMK 1CU010 4CU020 7AC080 A2980;EQDQ01+000003PRSWM1Q02    003PRSWM1
0315479290999992000022007004+26330+126800SY-MT+0005ROKJ V0203401N003110054019N0050001N1+01591+01341101121ADDGA1021+003609999GA2071+005409999GA3071+015009999GF107991999999999999999999MA1101021101061MD1310051+9999MW1811REMSYN060AAXX  20074 47929 46/// /3406 10159 20134 30106 40112 53005;MET093ROKJ 0700Z 01017KT 5000 SHRA FEW012 BKN018 BKN050 16/13 Q1010 RMK 2CU012 5CU018 7SC050 A2985;EQDQ01+000003PRSWM1Q02    003PRSWM1
0101479290999992000022118004+26330+126800FM-12+0005ROKJ V0200901N003119999999N9999999N1+01581+00881101591ADDMA1999999101531MD1610191+9999REMSYN060AAXX  21184 47929 46/// /0906 10158 20088 30153 40159 56019;
0285479290999992000022321004+26330+126800SY-MT+0005ROKJ V0200301N006210036019N0050001N1+01771+01431101571ADDGA1021+002709999GA2071+003609999GF107991999999999999999999MA1101391101511MD1310201+9999MW1811REMSYN060AAXX  23214 47929 46/// /0312 10177 20143 30151 40157 53020;MET079ROKJ 2100Z 04021KT 5000 SHRA SCT009 BKN012 17/14 Q1014 RMK 3ST009 6CU012 A2996;EQDQ01+000003PRSWM1Q02    003PRSWM1
0101479290999992000022419004+26330+126800FM-12+0005ROKJ V0200601N005719999999N9999999N1+01511+00771101791ADDMA1999999101731MD1810071+9999REMSYN060AAXX  24194 47929 46/// /0611 10151 20077 30173 40179 58007;
0141479290999992000030112004+26330+126800FM-12+0005ROKJ V0200701N006219999999N9999999N1+01651+01491102061ADDAA112005191KA1999M+01841MA1999999102001MD1810031+9999REMSYN076AAXX  01124 47929 16/// /0712 10165 20149 30200 40206 58003 60052 333 10184;
0310479290999992000030406004+26330+126800SY-MT+0005ROKJ V0202001N003610270019N0250001N1+02371+02001101431ADDGA1021+002409999GA2021+004509999GA3071+027009999GF107991061021999999071999MA1101291101371MD1610191+9999MW1001REMSYN076AAXX  04064 47929 42/75 72007 10237 20200 30137 40143 56019 8627/ 555 00246;MET088ROKJ 0600Z 20011KT 9999 FEW008 SCT015 BKN090 24/20 Q1013 RMK 2ST008 4CU015 7AC090 A2994;EQDQ01+000000PRSWM2
0101479290999992000031219004+26330+126800FM-12+0005ROKJ V0200701N002119999999N9999999N1+01681+01411101601ADDMA1999999101541MD1010001+9999REMSYN060AAXX  12194 47929 46/// /0704 10168 20141 30154 40160 50000;
0234479290999992000031306004+26330+126800FM-15+0005ROKJ V0201101N004610180019N0040001N1+01901+01501999999ADDGA1021+007509999GA2071+018009999GA3071+030009999GF107991999999999999999999MA1101491999999MW1611REMMET092ROKJ 0600Z 11009KT 4000 -RA FEW025 BKN060 BKN100 19/15 Q1015 RMK 2CU025 6SC060 7AC100 A2998;EQDQ01+000003PRSWM1Q02    003PRSWM1
0321479290999992000031523004+26330+126800SY-MT+0005ROKJ V0203401N005710036019N0080001N1+01831+01651100961ADDGA1021+002109999GA2071+003609999GA3071+015009999GF107991999999999999999999MA1100911100901MD1310271+9999MW1801REMSYN060AAXX  15234 47929 46/// /3411 10183 20165 30090 40096 53027;MET099ROKJ 2300Z 35024KT 8000 -SHRA FEW007 BKN012 BKN050 19/17 Q1009 RERA RMK 2ST007 6CU012 7SC050 A2980;EQDQ01+000003PRSWM1Q02    003PRSWM1
0101479290999992000031615004+26330+126800FM-12+0005ROKJ V0203601N004619999999N9999999N1+01561+00781101691ADDMA1999999101631MD1310151+9999REMSYN060AAXX  16154 47929 46/// /3609 10156 20078 30163 40169 53015;
0101479290999992000031714004+26330+126800FM-12+0005ROKJ V0201001N003619999999N9999999N1+01711+00861101821ADDMA1999999101761MD1110061+9999REMSYN060AAXX  17144 47929 46/// /1007 10171 20086 30176 40182 51006;
0154479290999992000032012004+26330+126800FM-12+0005ROKJ V0201001N003619999999N9999999N1+01851+01101101721ADDAA199000091KA1999M+02081MA1999999101661MD1310091+9999REMSYN070AAXX  20124 47929 36/// /1007 10185 20110 30166 40172 53009 333 10208;EQDQ01  00002PRCP99
0287479290999992000032304004+26330+126800SY-MT+0005ROKJ V0202101N006219999999N0112651N1+02471+01721101501ADDGA1021+007509999GA2021+021009999GA3071+999999999GF107991999999999999999999MA1101391101441MD1810171+9999MW1001REMSYN060AAXX  23044 47929 46/// /2112 10247 20172 30144 40150 58017;MET081ROKJ 0400Z 22017KT 9999 FEW025 SCT070 BKN/// 24/17 Q1014 RMK 2CU025 4AC070 A2996;EQDQ01+000000PRSWM2
0294479290999992000032701004+26330+126800SY-MT+0005ROKJ V0201901N003110150019N0112651N1+01731+01431101891ADDGA1021+004509999GA2021+007509999GA3071+015009999GF107991999999999999999999MA1101801101831MD1110101+9999MW1001REMSYN060AAXX  27014 47929 46/// /1906 10173 20143 30183 40189 51010;MET088ROKJ 0100Z 17016KT 9999 FEW015 SCT025 BKN050 19/15 Q1018 RMK 1CU015 3CU025 6SC050 A3007;EQDQ01+000000PRSWM2
0265479290999992000032923004+26330+126800SY-MT+0005ROKJ V0203201N001019999999N0112651N1+01491+00851101981ADDGA1021+010509999GA2071+999999999GF107991999999999999999999MA1101901101921MD1310121+9999MW1001REMSYN060AAXX  29234 47929 46/// /3202 10149 20085 30192 40198 53012;MET075ROKJ 2300Z 03006KT 360V070 9999 SCT035 BKN/// 16/07 Q1019 RMK 3CU035 A3010;EQDQ01+000000PRSWM2
0280479290999992000040306004+26330+126800SY-MT+0005ROKJ V0203501N002610075019N0400001N1+02331+01761101141ADDGA1021+005409999GA2071+007509999GF107991021021999999071999MA1101021101081MD1610091+9999MW1001REMSYN076AAXX  03064 47929 42/82 73505 10233 20176 30108 40114 56009 8227/ 555 00246;MET074ROKJ 0600Z 35008KT 9999 FEW018 BKN025 23/18 Q1010 RMK 1CU018 7CU025 A2985;EQDQ01+000000PRSWM2
0291479290999992000040403004+26330+126800SY-MT+0005ROKJ V0202601N003610036019N0090001N1+02321+02091100911ADDGA1021+002409999GA2071+003609999GF107991999999999999999999MA1100811100851MD1810081+9999MW1801REMSYN060AAXX  04034 47929 46/// /2607 10232 20209 30085 40091 58008;MET085ROKJ 0300Z 25011KT 9000 -SHRA FEW008 BKN012 23/21 Q1008 RERA RMK 2ST008 6CU012 A2979;EQDQ01+000003PRSWM1Q02    003PRSWM1
0101479290999992000040515004+26330+126800FM-12+0005ROKJ V0203601N004619999999N9999999N1+01941+01181101761ADDMA1999999101701MD1310211+9999REMSYN060AAXX  05154 47929 46/// /3609 10194 20118 30170 40176 53021;
0101479290999992000041018004+26330+126800FM-12+0005ROKJ V0203601N005119999999N9999999N1+01581+00891101731ADDMA1999999101671MD1810081+9999REMSYN060AAXX  10184 47929 46/// /3610 10158 20089 30167 40173 58008;
0257479290999992000041122004+26330+126800SY-MT+0005ROKJ V0203001N001012200019N0112651N1+01491+01251101461ADDGA1021+009009999GA2021+999999999GF104991999999999999999999MA1101291101401MD1310121+9999MW1001REMSYN060AAXX  11224 47929 46/// /3002 10149 20125 30140 40146 53012;MET067ROKJ 2200Z 00000KT 9999 FEW030 SCT/// 17/13 Q1013 RMK 2CU030 A2994;EQDQ01+000000PRSWM2
0294479290999992000041401004+26330+126800SY-MT+0005ROKJ V0200901N002110270019N0112651N1+02171+02041101081ADDGA1021+006009999GA2021+015009999GA3071+027009999GF107991999999999999999999MA1101021101021MD1110041+9999MW1001REMSYN060AAXX  14014 47929 46/// /0904 10217 20204 30102 40108 51004;MET088ROKJ 0100Z 03003KT 9999 FEW020 SCT050 BKN090 22/21 Q1010 RMK 1CU020 3SC050 7AC090 A2983;EQDQ01+000000PRSWM2
0290479290999992000041403004+26330+126800SY-MT+0005ROKJ V0201301N003610150019N0040001N1+02151+02041100941ADDGA1021+001509999GA2021+003009999GA3071+015009999GF107991999999999999999999MA1100811100881MD1810141+9999MW1801REMSYN060AAXX  14034 47929 46/// /1307 10215 20204 30088 40094 58014;MET068ROKJ 0300Z 14012KT 4000 -SHRA SCT005 SCT010 BKN050 22/21 Q1008 RERA;EQDQ01+000003PRSWM1Q02    003PRSWM1
0101479290999992000042314004+26330+126800FM-12+0005ROKJ V0200901N004119999999N9999999N1+02101+01221101301ADDMA1999999101241MD1110071+9999REMSYN060AAXX  23144 47929 46/// /0908 10210 20122 30124 40130 51007;
0241479290999992000042507144+26330+126800FM-16+0005ROKJ V0201401N011810036019N0070001N1+02201+02001999999ADDGA1021+001809999GA2071+003609999GA3071+015009999GF107991999999999999999999MA1100511999999MW1611REMMET099ROKJ 250714Z 14023KT 7000 -RA FEW006 BKN012 BKN050 22/20 Q1005 RERA RMK 1ST006 5CU012 7SC050 A2970;EQDQ01+000003PRSWM1Q02    003PRSWM1
0101479290999992000042815004+26330+126800FM-12+0005ROKJ V0200901N000519999999N9999999N1+01881+01271101641ADDMA1999999101581MD1010011+9999REMSYN060AAXX  28154 47929 46/// /0901 10188 20127 30158 40164 50001;
0322479290999992000050206004+26330+126800SY-MT+0005ROKJ V0201301N001510180019N0200001N1+02291+01881101101ADDAY181061AY221061GA1021+006009999GA2071+018009999GF107991031021999999071999MA1101021101041MD1810081+9999MW1611MW2801REMSYN082AAXX  02064 47929 41/70 71303 10229 20188 30104 40110 58008 78082 8327/ 555 00240;MET088ROKJ 020600Z 03004KT 350V060 9999 -RA FEW020 BKN060 23/18 Q1010 RMK 2CU020 6SC060 A2984;EQDQ01    003PRSWM1
0101479290999992000050419004+26330+126800FM-12+0005ROKJ V0201201N002619999999N9999999N1+01971+01311101551ADDMA1999999101491MD1610071+9999REMSYN060AAXX  04194 47929 46/// /1205 10197 20131 30149 40155 56007;
0101479290999992000050519004+26330+126800FM-12+0005ROKJ V0201101N003119999999N9999999N1+02091+01391101561ADDMA1999999101501MD1810081+9999REMSYN060AAXX  05194 47929 46/// /1106 10209 20139 30150 40156 58008;
0259479290999992000051101004+26330+126800SY-MT+0005ROKJ V0200401N003612200019N0112651N1+02441+01911100831ADDGA1021+006009999GA2021+999999999GF104991999999999999999999MA1100711100771MD1310071+9999MW1001REMSYN060AAXX  11014 47929 46/// /0407 10244 20191 30077 40083 53007;MET069ROKJ 110100Z 01014KT 9999 SCT020 SCT/// 25/17 Q1007 RMK 4CU020 A2976;EQDQ01+000000PRSWM2
0236479290999992000051103004+26330+126800SY-MT+0005ROKJ V0200101N004612200019N0112651N1+02581+01771100781ADDGA1021+006009999GF102991999999999999999999MA1100711100721MD1810021+9999MW1001REMSYN060AAXX  11034 47929 46/// /0109 10258 20177 30072 40078 58002;MET062ROKJ 110300Z 02014KT 9999 FEW020 27/18 Q1007 RMK 2CU020 A2975;EQDQ01+000000PRSWM2
0242479290999992000051409004+26330+126800SY-MT+0005ROKJ V0201301N001519999999N0112651N1+02491+01931101111ADDGA1021+006009999GA2071+999999999GF107991999999999999999999MA1101021101051MD1510041+9999MW1001REMSYN060AAXX  14094 47929 46/// /1303 10249 20193 30105 40111 55004;MET052ROKJ 140900Z 21004KT 9999 FEW020 BKN/// 25/20 Q1010;EQDQ01+000000PRSWM2
0236479290999992000051509004+26330+126800SY-MT+0005ROKJ V0201801N003612200019N0112651N1+02501+02021101051ADDGA1021+004509999GF104991999999999999999999MA1100911100991MD1210011+9999MW1001REMSYN060AAXX  15094 47929 46/// /1807 10250 20202 30099 40105 52001;MET062ROKJ 150900Z 17013KT 9999 SCT015 26/20 Q1009 RMK 3CU015 A2982;EQDQ01+000000PRSWM2
0135479290999992000052412004+26330+126800FM-12+0005ROKJ V0200801N003619999999N9999999N1+02331+01971101141ADDAA199000021KA1999M+02541MA1999999101081MD1110081+9999REMSYN070AAXX  24124 47929 36/// /0807 10233 20197 30108 40114 51008 333 10254;
0101479290999992000052416004+26330+126800FM-12+0005ROKJ V0200901N003119999999N9999999N1+02291+02021101031ADDMA1999999100971MD1810121+9999REMSYN060AAXX  24164 47929 46/// /0906 10229 20202 30097 40103 58012;
0318479290999992000061203004+26330+126800SY-MT+0005ROKJ V0200401N004110240019N0112651N1+02481+02251100451ADDGA1021+002109999GA2021+003609999GA3071+024009999GF107991999999999999999999MA1100411100391MD1010011+9999MW1801REMSYN060AAXX  12034 47929 46/// /0408 10248 20225 30039 40045 50001;MET096ROKJ 120300Z 04013KT 9999 -SHRA SCT007 SCT012 BKN080 25/22 Q1004 RMK 3ST007 4CU012 7AC080 A2965;EQDQ01+000003PRSWM1Q02    003PRSWM1
0101479290999992000062117004+26320+126800FM-12+0005ROKJ V0202201N003119999999N9999999N1+02741+02441101281ADDMA1999999101221MD1810061+9999REMSYN060AAXX  21174 47929 46/// /2206 10274 20244 30122 40128 58006;
0266479290999992000062122004+26320+126800SY-MT+0005ROKJ V0202101N003612200019N0112651N1+02791+02411101221ADDGA1021+003909999GA2021+030009999GF104991999999999999999999MA1101081101161MD1510011+9999MW1001REMSYN060AAXX  21224 47929 46/// /2107 10279 20241 30116 40122 55001;MET076ROKJ 212200Z 21013KT 9999 FEW013 SCT100 27/25 Q1011 RMK 2CU013 3AC100 A2988;EQDQ01+000000PRSWM2
0259479290999992000062609004+26320+126800SY-MT+0005ROKJ V0202201N002612200019N0112651N1+02961+02491101001ADDGA1021+004509999GA2021+999999999GF104991999999999999999999MA1100911100941MD1610061+9999MW1001REMSYN060AAXX  26094 47929 46/// /2205 10296 20249 30094 40100 56006;MET069ROKJ 260900Z 23007KT 9999 FEW015 SCT/// 30/25 Q1009 RMK 2CU015 A2981;EQDQ01+000000PRSWM2
0186479290999992000062821004+26320+126800FM-15+0005ROKJ V0202101N004110300019N0112651N1+02801+02501999999ADDGA1021+004509999GA2071+030009999GF107991999999999999999999MA1100711999999MW1001REMMET076ROKJ 282100Z 21008KT 9999 FEW015 BKN100 28/25 Q1007 RMK 2CU015 7AC100 A2974;EQDQ01+000000PRSWM2
