0123724845999992000100622404+41110-114970FM-15+1731K9BB V0209999C000012200019N0321861N1+02401+00701999999ADDGF100991999999999999999999MW1001REMMET060K9BB 062240Z 00000KT 20SM SKC 24/07 RMK NOSPECI T02440067 N;EQDQ01+000000PRSWM2
0160724845999992000101823454+41110-114970FM-15+1731K9BB V0202601N004610600019N0321861N1+02001+00201999999ADDGD13991+0600099GF107991999999999999999999KA1999M+02441MW1001REMMET069K9BB 182345Z 26009KT 20SM BKN200 20/02 RMK NOSPECI T02000022 10244 N;EQDQ01+000000PRSWM2
0165724845999992000102302454+41110-114970FM-15+1731K9BB V0200201N004110300019N0321861N1+00601-00201999999ADDGD13991+0300099GF107991999999999999999999KA1999M+01001MW1001REMMET074K9BB 230245Z 02008KT 20SM BKN100 06/M02 RMK NOSPECI FIRST T00561022 10100;EQDQ01+000000PRSWM2
0202724845999992000103017454+41110-114970FM-15+1731K9BB V0209999C000010060019N0032181N1+00201+00001999999ADDAA106000021AJ100089199999999GD14991+0060099GF108991999999999999999999MW1851REMMET080K9BB 301745Z 00000KT 2SM -SHSN OVC020 02/00 RMK NOSPECI T00170000 4/003 60000 N;EQDQ01+000003PRSWM1Q02    003PRSWM1
0224724845999992000111423304+41110-114970FM-15+1731K9BB V0202301N007710120019N0321861N1-00101-00601999999ADDAA106000591AJ100039199999999GD13991+0120099GF107991999999999999999999KA1999M+00221MW1851REMMET089K9BB 142330Z 23015KT 20SM -SHSN BKN040 M01/M06 RMK NOSPECI 60002 4/001 T10111056 10022 N;EQDQ01+000003PRSWM1Q02    003PRSWM1
0140724845999992000111719454+41110-114970FM-15+1731K9BB V0209999C000012200019N0321861N1+00001-00601999999ADDGD12991+0150099GF102991999999999999999999MW1001REMMET062K9BB 171945Z 00000KT 20SM FEW050 00/M06 RMK NOSPECI T00001056;EQDQ01+000000PRSWM2
0125724845999992000111803454+41110-114970FM-15+1731K9BB V0209999C000012200019N0321861N1-01201-01601999999ADDGF100991999999999999999999MW1001REMMET062K9BB 180345Z 00000KT 20SM SKC M12/M16 RMK NOSPECI T11171161 N;EQDQ01+000000PRSWM2
0167724845999992000111814404+41110-114970FM-15+1731K9BB V0209999C000012200019N0321861N1-01901-02301999999ADDGF100991999999999999999999KA1999M+00391KA2999N-02111MW1001REMMET078K9BB 181440Z 00000KT 20SM SKC M19/M23 RMK NOSPECI FIRST T11891228 400391211 N;EQDQ01+000000PRSWM2
0146724845999992000120705304+41110-114970FM-15+1731K9BB V0209999C000012200019N0321861N1-00501-01001999999ADDGD12991+0450099GF102991999999999999999999MW1001REMMET068K9BB 070530Z 00000KT 20SM FEW150 M05/M10 RMK NOSPECI LAST T10501100;EQDQ01+000000PRSWM2
0140724845999992000122118454+41110-114970FM-15+1731K9BB V0209999C000012200019N0321861N1+00701-00101999999ADDGD12991+0300099GF102991999999999999999999MW1001REMMET062K9BB 211845Z 00000KT 20SM FEW100 07/M01 RMK NOSPECI T00721011;EQDQ01+000000PRSWM2
0071724846999992000010400009+36217-115200NSRDB+067199999V020999999999999999999999999999+99999+99999999999ADDGP10060018702009036202021011902009GQ100600793923119GR100600262914159
0132724846999992000010521504+36220-115200FM-15+0671KVGT V0202901N009312200019N0321861N1+01301-00901999999ADDGF100991999999999999999999MA1102031999999MW1001OC101291REMMET046KVGT 052150Z 29018G25KT 20SM SKC 13/M09 A3013;EQDQ01+000000PRSWM2
0071724846999992000010621009+36217-115200NSRDB+067199999V020999999999999999999999999999+99999+99999999999ADDGP10060052502009078602021012702009GQ100600597919169GR100600713914159
0139724846999992000010722504+36220-115200FM-15+0671KVGT V02099999999990750019N0321861N1+01101-01401999999ADDGD13991+0750019GF107991999999999999999999MA1102341999999MW1001REMMET046KVGT 072250Z VRB05KT 20SM BKN250 11/M14 A3022;EQDQ01+000000PRSWM2
0054724846999992000010905009+36217-115200NSRDB+067199999V020999999999999999999999999999+99999+99999999999ADDGP10060000002000000002000000002000GR100600000900009
0121724846999992000011014474+36220-115200FM-15+0671KVGT V02099999999992200019N0402331N1+00101-01101999999ADDGF100991999999999999999999MA1101901999999MW1001REMMET043KVGT 101447Z VRB05KT 25SM SKC 01/M11 A3009;EQDQ01+000000PRSWM2
0071724846999992000011116009+36217-115200NSRDB+067199999V020999999999999999999999999999+99999+99999999999ADDGP10060005002009029502021002002009GQ100600841912269GR100600146914149
0161724846999992000011614474+36220-115200FM-15+0671KVGT V0201301N004110240019N0321861N1+01101-00401999999ADDGD13991+0240019GD24991+0360019GF108991999999999999999999MA1101931999999MW1001REMMET053KVGT 161447Z 13008KT 20SM BKN085 OVC120 11/M04 A3010;EQDQ01+000000PRSWM2
0071724846999992000011723009+36217-115200NSRDB+067199999V020999999999999999999999999999+99999+99999999999ADDGP10060018302008012402015013702008GQ100600683922009GR100600523914149
0054724846999992000012114009+36217-115200NSRDB+067199999V020999999999999999999999999999+99999+99999999999ADDGP10060000002000000002000000002000GR100600000900009
0054724846999992000012412009+36217-115200NSRDB+067199999V020999999999999999999999999999+99999+99999999999ADDGP10060000002000000002000000002000GR100600000900009
0121724846999992000012700474+36220-115200FM-15+0671KVGT V0203001N006712200019N0402331N1+01501-00501999999ADDGF100991999999999999999999MA1101491999999MW1001REMMET043KVGT 270047Z 30013KT 25SM SKC 15/M05 A2997;EQDQ01+000000PRSWM2
0054724846999992000012814009+36217-115200NSRDB+067199999V020999999999999999999999999999+99999+99999999999ADDGP10060000002000000002000000002000GR100600000900009
0139724846999992000013018474+36220-115200FM-15+0671KVGT V02099999999990450019N0321861N1+00901-01101999999ADDGD14991+0450019GF108991999999999999999999MA1102031999999MW1001REMMET046KVGT 301847Z VRB05KT 20SM OVC150 09/M11 A3013;EQDQ01+000000PRSWM2
0054724846999992000013108009+36217-115200NSRDB+067199999V020999999999999999999999999999+99999+99999999999ADDGP10060000002000000002000000002000GR100600000900009
0139724846999992000020117484+36220-115200FM-15+0671KVGT V02099999999990600019N0321861N1+01101-00601999999ADDGD13991+0600019GF107991999999999999999999MA1102981999999MW1001REMMET046KVGT 011748Z VRB04KT 20SM BKN200 11/M06 A3041;EQDQ01+000000PRSWM2
0054724846999992000020313009+36217-115200NSRDB+067199999V020999999999999999999999999999+99999+99999999999ADDGP10060000002000000002000000002000GR100600000900009
0071724846999992000020419009+36217-115200NSRDB+067199999V020999999999999999999999999999+99999+99999999999ADDGP10060033602008013002015026402008GQ100600563915549GR100600781914089
0054724846999992000020505009+36217-115200NSRDB+067199999V020999999999999999999999999999+99999+99999999999ADDGP10060000002000000002000000002000GR100600000900009
0071724846999992000020620009+36217-115200NSRDB+067199999V020999999999999999999999999999+99999+99999999999ADDGP10060064802008089202015010102008GQ100600523917259GR100600860914079
0161724846999992000020720474+36220-115200FM-15+0671KVGT V02099999999990750019N0402331N1+02001-00701999999ADDGD12991+0450019GD23991+0750019GF107991999999999999999999MA1102811999999MW1001REMMET053KVGT 072047Z VRB05KT 25SM SCT150 BKN250 20/M07 A3036;EQDQ01+000000PRSWM2
0139724846999992000021300474+36220-115200FM-15+0671KVGT V0202001N005110450019N0402331N1+01401-00301999999ADDGD13991+0450019GF107991999999999999999999MA1100951999999MW1001REMMET046KVGT 130047Z 20010KT 25SM BKN150 14/M03 A2981;EQDQ01+000000PRSWM2
0160724846999992000021400494+36220-115200FM-15+0671KVGT V0201501N005110300019N0402331N1+01401+00501999999ADDGD12991+0150019GD23991+0300019GF107991999999999999999999MA1101251999999MW1001REMMET052KVGT 140049Z 15010KT 25SM SCT055 BKN100 14/05 A2990;EQDQ01+000000PRSWM2
0171724846999992000021616474+36220-115200FM-15+0671KVGT V0202101N006210300019N0321861N1+01201+00301999999ADDGD12991+0210019GD24991+0300019GF108991999999999999999999MA1101591999999MW1001OC101031REMMET055KVGT 161647Z 21012G20KT 20SM FEW070 OVC100 12/03 A3000;EQDQ01+000000PRSWM2
0177724846999992000022403474+36220-115200FM-15+0671KVGT V0202301N006210090019N0128741N1+00701+00301999999ADDGD14991+0090019GF108991999999999999999999MA1100751999999MW1611OC101131REMMET060KVGT 240347Z 23012G22KT 8SM -RA OVC030 07/03 A2975 RMK LAST;EQDQ01+000003PRSWM1Q02    003PRSWM1
0071724846999992000022518009+36217-115200NSRDB+067199999V020999999999999999999999999999+99999+99999999999ADDGP10060054702008087102015006702008GQ100600567913619GR100600766913969
0071724846999992000022700009+36217-115200NSRDB+067199999V020999999999999999999999999999+99999+99999999999ADDGP10060036502008086102015003802008GQ100600678923989GR100600527913959
0148724846999992000022903474+36220-115200FM-15+0671KVGT V0202501N003612200019N0160931N1+01201-00501999999ADDGD12991+0330019GF102991999999999999999999MA1101661999999MW1001REMMET055KVGT 290347Z 25007KT 10SM FEW110 12/M05 A3002 RMK LAST;EQDQ01+000000PRSWM2
0149724846999992000030116474+36220-115200FM-15+0671KVGT V0203101N007710210019N0402331N1+01001+00101999999ADDGD13991+0210019GF107991999999999999999999MA1101691999999MW1001OC101031REMMET048KVGT 011647Z 31015G20KT 25SM BKN075 10/01 A3003;EQDQ01+000000PRSWM2
0071724846999992000030815009+36217-115200NSRDB+067199999V020999999999999999999999999999+99999+99999999999ADDGP10060002802008004502015002402008GQ100600846909979GR100600125913299
0071724846999992000031320009+36217-115200NSRDB+067199999V020999999999999999999999999999+99999+99999999999ADDGP10060074102008070202015019602008GQ100600393917219GR100601071913839
0071724846999992000031322009+36217-115200NSRDB+067199999V020999999999999999999999999999+99999+99999999999ADDGP10060065102008056202015025502008GQ100600453921639GR100600972913839
0054724846999992000031804009+36217-115200NSRDB+067199999V020999999999999999999999999999+99999+99999999999ADDGP10060000002000000002000000002000GR100600000900009
0054724846999992000032003009+36217-115200NSRDB+067199999V020999999999999999999999999999+99999+99999999999ADDGP10060000002000000002000000002000GR100600000900009
0150724846999992000032101474+36220-115200FM-15+0671KVGT V0203101N007710360019N0402331N1+01101-01601999999ADDGD13991+0360019GF107991999999999999999999MA1100781999999MW1001OC101291REMMET049KVGT 210147Z 31015G25KT 25SM BKN120 11/M16 A2976;EQDQ01+000000PRSWM2
0132724846999992000040117474+36220-115200FM-15+0671KVGT V0203301N007212200019N0402331N1+01701-01401999999ADDGF100991999999999999999999MA1101901999999MW1001OC101031REMMET046KVGT 011747Z 33014G20KT 25SM SKC 17/M14 A3009;EQDQ01+000000PRSWM2
0071724846999992000040319009+36217-115200NSRDB+067199999V020999999999999999999999999999+99999+99999999999ADDGP10060080802008069702015023602008GQ100600351914699GR100601117913679
0071724846999992000040415009+36217-115200NSRDB+067199999V020999999999999999999999999999+99999+99999999999ADDGP10060017802008059202015004502008GQ100600771909209GR100600305913669
0121724846999992000040418474+36220-115200FM-15+0671KVGT V02099999999992200019N0321861N1+02501-00101999999ADDGF100991999999999999999999MA1102101999999MW1001REMMET043KVGT 041847Z VRB04KT 20SM SKC 25/M01 A3015;EQDQ01+000000PRSWM2
0139724846999992000040816504+36220-115200FM-15+0671KVGT V02099999999992200019N0321861N1+02201-00201999999ADDGD12991+0900019GF102991999999999999999999MA1101801999999MW1001REMMET046KVGT 081650Z VRB05KT 20SM FEW300 22/M02 A3006;EQDQ01+000000PRSWM2
0139724846999992000040821484+36220-115200FM-15+0671KVGT V02099999999992200019N0321861N1+03001-00601999999ADDGD12991+0600019GF104991999999999999999999MA1101291999999MW1001REMMET046KVGT 082148Z VRB05KT 20SM SCT200 30/M06 A2991;EQDQ01+000000PRSWM2
0054724846999992000041011009+36217-115200NSRDB+067199999V020999999999999999999999999999+99999+99999999999ADDGP10060000002000000002000000002000GR100600000900009
0071724846999992000041100009+36217-115200NSRDB+067199999V020999999999999999999999999999+99999+99999999999ADDGP10060045602008046502015021302008GQ100600587925639GR100600707913619
0071724846999992000041114009+36217-115200NSRDB+067199999V020999999999999999999999999999+99999+99999999999ADDGP10060002002008017502015001102008GQ100600857908239GR100600079910549
0071724846999992000041215009+36217-115200NSRDB+067199999V020999999999999999999999999999+99999+99999999999ADDGP10060019302008045502015007402008GQ100600749908999GR100600353913599
0071724846999992000041218009+36217-115200NSRDB+067199999V020999999999999999999999999999+99999+99999999999ADDGP10060074902008076902015016302008GQ100600405912459GR100601033913599
0150724846999992000042816544+36220-115200FM-15+0671KVGT V0201901N006210750019N0402331N1+02701-00401999999ADDGD13991+0750019GF107991999999999999999999MA1100711999999MW1001OC101031REMMET049KVGT 281654Z 19012G20KT 25SM BKN250 27/M04 A2974;EQDQ01+000000PRSWM2
0071724846999992000050200009+36217-115200NSRDB+067199999V020999999999999999999999999999+99999+99999999999ADDGP10060052402008061202015017602008GQ100600553926389GR100600764913459
0071724846999992000050215009+36217-115200NSRDB+067199999V020999999999999999999999999999+99999+99999999999ADDGP10060026302008048102015010102008GQ100600704908479GR100600450913449
0054724846999992000051610009+36217-115200NSRDB+067199999V020999999999999999999999999999+99999+99999999999ADDGP10060000002000000002000000002000GR100600000900009
0071724846999992000052000009+36217-115200NSRDB+067199999V020999999999999999999999999999+99999+99999999999ADDGP10060060102008070802015017502008GQ100600530926879GR100600802913349
0071724846999992000052019009+36217-115200NSRDB+067199999V020999999999999999999999999999+99999+99999999999ADDGP10060087502008066902015025402008GQ100600220913389GR100601235913349
0139724846999992000052319474+36220-115200FM-15+0671KVGT V02099999999992200019N0321861N1+03901-00301999999ADDGD12991+0360019GF102991999999999999999999MA1101021999999MW1001REMMET046KVGT 231947Z VRB05KT 20SM FEW120 39/M03 A2983;EQDQ01+000000PRSWM2
0071724846999992000052614009+36217-115200NSRDB+067199999V020999999999999999999999999999+99999+99999999999ADDGP10060013202008048302015004002008GQ100600790907159GR100600253913319
0054724846999992000052911009+36217-115200NSRDB+067199999V020999999999999999999999999999+99999+99999999999ADDGP10060000002000000002000000002000GR100600000900009
0054724846999992000053011009+36217-115200NSRDB+067199999V020999999999999999999999999999+99999+99999999999ADDGP10060000002000000002000000002000GR100600000900009
0054724846999992000060208009+36217-115200NSRDB+067199999V020999999999999999999999999999+99999+99999999999ADDGP10060000002000000002000000002000GR100600000900009
0121724846999992000060215474+36220-115200FM-15+0671KVGT V02099999999992200019N0402331N1+02901-00601999999ADDGF100991999999999999999999MA1101661999999MW1001REMMET043KVGT 021547Z VRB05KT 25SM SKC 29/M06 A3002;EQDQ01+000000PRSWM2
0140724846999992000060722504+36220-115200FM-15+0671KVGT V0201901N010312200019N0321861N1+03901-01101999999ADDGF100991999999999999999999MA1100811999999MW1001OC101291REMMET054KVGT 072250Z 19020G25KT 150V230 20SM SKC 39/M11 A2977;EQDQ01+000000PRSWM2
0054724846999992000061405009+36217-115200NSRDB+067199999V020999999999999999999999999999+99999+99999999999ADDGP10060000002000000002000000002000GR100600000900009
0121724846999992000061416474+36210-115190FM-15+0671KVGT V0203201N005112200019N0402331N1+03401-00101999999ADDGF100991999999999999999999MA1101731999999MW1001REMMET043KVGT 141647Z 32010KT 25SM SKC 34/M01 A3004;EQDQ01+000000PRSWM2
0071724846999992000061602009+36217-115200NSRDB+067199999V020999999999999999999999999999+99999+99999999999ADDGP10060020902008039802015010102008GQ100600742928779GR100600360913249
0071724846999992000062121009+36217-115200NSRDB+067199999V020999999999999999999999999999+99999+99999999999ADDGP10060102902008095902015010902008GQ100600166922059GR100601266913229
0138724846999992000062721474+36210-115190FM-15+0671KVGT V0201901N005110450019N0402331N1+04101+00001999999ADDGD13991+0450019GF107991999999999999999999MA1101051999999MW1001REMMET045KVGT 272147Z 19010KT 25SM BKN150 41/00 A2984;EQDQ01+000000PRSWM2
0071724846999992000070415009+36217-115200NSRDB+067199999V020999999999999999999999999999+99999+99999999999ADDGP10060032902008074402015005002008GQ100600680907719GR100600494913219
0071724846999992000071201009+36217-115200NSRDB+067199999V020999999999999999999999999999+99999+99999999999ADDGP10060043102008068102015011302008GQ100600622927799GR100600615913229
0071724846999992000071318009+36217-115200NSRDB+067199999V020999999999999999999999999999+99999+99999999999ADDGP10060079002008073002015017802008GQ100600330910699GR100601107913229
0071724846999992000071319009+36217-115200NSRDB+067199999V020999999999999999999999999999+99999+99999999999ADDGP10060091802008083602015014302008GQ100600222912679GR100601222913229
0071724846999992000071415009+36217-115200NSRDB+067199999V020999999999999999999999999999+99999+99999999999ADDGP10060014002008002202015013202008GQ100600690907809GR100600474913229
0139724846999992000071700474+36210-115190FM-15+0671KVGT V0201501N005112200019N0402331N1+03901-00101999999ADDGD12991+0600019GF102991999999999999999999MA1100911999999MW1001REMMET046KVGT 170047Z 15010KT 25SM FEW200 39/M01 A2980;EQDQ01+000000PRSWM2
0054724846999992000072104009+36217-115200NSRDB+067199999V020999999999999999999999999999+99999+99999999999ADDGP10060000002000000002000000002000GR100600000900009
0054724846999992000072304009+36217-115200NSRDB+067199999V020999999999999999999999999999+99999+99999999999ADDGP10060000002000000002000000002000GR100600000900009
0054724846999992000072606009+36217-115200NSRDB+067199999V020999999999999999999999999999+99999+99999999999ADDGP10060000002000000002000000002000GR100600000900009
0138724846999992000080222474+36210-115190FM-15+0671KVGT V0200701N002112200019N0241401N1+04301+00601999999ADDGD12991+0450019GF104991999999999999999999MA1100981999999MW1001REMMET045KVGT 022247Z 07004KT 15SM SCT150 43/06 A2982;EQDQ01+000000PRSWM2
0138724846999992000080223504+36210-115190FM-15+0671KVGT V02099999999992200019N0241401N1+04301+00501999999ADDGD12991+0540019GF104991999999999999999999MA1100911999999MW1001REMMET045KVGT 022350Z VRB04KT 15SM SCT180 43/05 A2980;EQDQ01+000000PRSWM2
0071724846999992000081717009+36217-115200NSRDB+067199999V020999999999999999999999999999+99999+99999999999ADDGP10060062702008083102015008402008GQ100600492910519GR100600869913339
0147724846999992000082303474+36210-115190FM-15+0671KVGT V0201001N006710360019N0241401N1+03401+01101999999ADDGD13991+0360019GF107991999999999999999999MA1101221999999MW1001REMMET054KVGT 230347Z 10013KT 15SM BKN120 34/11 A2989 RMK LAST;EQDQ01+000000PRSWM2
0172724846999992000082500504+36210-115190FM-15+0671KVGT V0201201N005110360019N0241401N1+03001+01601999999ADDGD13991+0360019GD24991+0540019GF108991999999999999999999MA1101831999999MW1001REMMET064KVGT 250050Z 12010KT 15SM BKN120 OVC180 30/16 A3007 RMK TSE0038;EQDQ01+000000PRSWM2
0071724846999992000082502009+36217-115200NSRDB+067199999V020999999999999999999999999999+99999+99999999999ADDGP10060017102008043002015010402008GQ100600810927689GR100600209913379
0138724846999992000083112494+36210-115190FM-15+0671KVGT V0209999C000012200019N0321861N1+02001+01601999999ADDGD12991+0210019GF104991999999999999999999MA1101351999999MW1001REMMET045KVGT 311249Z 00000KT 20SM SCT070 20/16 A2993;EQDQ01+000000PRSWM2
0120724846999992000083113504+36210-115190FM-15+0671KVGT V0209999C000012200019N0241401N1+02001+01501999999ADDGF100991999999999999999999MA1101421999999MW1001REMMET042KVGT 311350Z 00000KT 15SM SKC 20/15 A2995;EQDQ01+000000PRSWM2
0139724846999992000090223474+36210-115190FM-15+0671KVGT V0201601N005112200019N0402331N1+03001+00101999999ADDGF100991999999999999999999MA1101191999999MW1001OC101031REMMET053KVGT 022347Z 16010G20KT 140V200 25SM SKC 30/01 A2988;EQDQ01+000000PRSWM2
0054724846999992000090306009+36217-115200NSRDB+067199999V020999999999999999999999999999+99999+99999999999ADDGP10060000002000000002000000002000GR100600000900009
0054724846999992000090409009+36217-115200NSRDB+067199999V020999999999999999999999999999+99999+99999999999ADDGP10060000002000000002000000002000GR100600000900009
0054724846999992000090505009+36217-115200NSRDB+067199999V020999999999999999999999999999+99999+99999999999ADDGP10060000002000000002000000002000GR100600000900009
0071724846999992000090717009+36217-115200NSRDB+067199999V020999999999999999999999999999+99999+99999999999ADDGP10060061502008091002015006402008GQ100600528911379GR100600813913469
0121724846999992000091115474+36210-115190FM-15+0671KVGT V02099999999992200019N0402331N1+02401-00401999999ADDGF100991999999999999999999MA1101691999999MW1001REMMET043KVGT 111547Z VRB04KT 25SM SKC 24/M04 A3003;EQDQ01+000000PRSWM2
0071724846999992000091301009+36217-115200NSRDB+067199999V020999999999999999999999999999+99999+99999999999ADDGP10060027102008065202015009402008GQ100600743926309GR100600365913509
0054724846999992000091406009+36217-115200NSRDB+067199999V020999999999999999999999999999+99999+99999999999ADDGP10060000002000000002000000002000GR100600000900009
0071724846999992000091501009+36217-115200NSRDB+067199999V020999999999999999999999999999+99999+99999999999ADDGP10060024402008059402015008902008GQ100600749926259GR100600352913519
0120724846999992000091516474+36210-115190FM-15+0671KVGT V02099999999992200019N0241401N1+03101+00201999999ADDGF100991999999999999999999MA1101631999999MW1001REMMET042KVGT 151647Z VRB04KT 15SM SKC 31/02 A3001;EQDQ01+000000PRSWM2
0054724846999992000091603009+36217-115200NSRDB+067199999V020999999999999999999999999999+99999+99999999999ADDGP10060000002000000002000000002000GR100600000900009
0054724846999992000091613009+36217-115200NSRDB+067199999V020999999999999999999999999999+99999+99999999999ADDGP10060000002000000002000000002000GR100600000900009
0071724846999992000091814009+36217-115200NSRDB+067199999V020999999999999999999999999999+99999+99999999999ADDGP10060000102008011402015000002008GQ100600870909009GR100600039907349
0071724846999992000091818009+36217-115200NSRDB+067199999V020999999999999999999999999999+99999+99999999999ADDGP10060065802008068602015017402008GQ100600452913339GR100600954913549
0054724846999992000092103009+36217-115200NSRDB+067199999V020999999999999999999999999999+99999+99999999999ADDGP10060000002000000002000000002000GR100600000900009
0071724846999992000092723009+36217-115200NSRDB+067199999V020999999999999999999999999999+99999+99999999999ADDGP10060047602008047702015021202008GQ100600565923739GR100600751913619
0071724846999992000093015009+36217-115200NSRDB+067199999V020999999999999999999999999999+99999+99999999999ADDGP10060012202008050602015003302008GQ100600799910149GR100600240913649
0071724846999992000093023009+36217-115200NSRDB+067199999V020999999999999999999999999999+99999+99999999999ADDGP10060056102008090702015007302008GQ100600575923659GR100600732913649
0054724846999992000100213009+36217-115200NSRDB+067199999V020999999999999999999999999999+99999+99999999999ADDGP10060000002000000002000000002000GR100600000900009
0156724846999992000100219534+36210-115190FM-15+0671KVGT V0201901N008212200019N0160931N1+03701+00901100601ADDGF100991999999999999999999MA1100981999999MW1001OC101131REMMET070KVGT 021953Z 19016G22KT 10SM CLR 37/09 A2982 RMK AO2 SLP060 T03670089;EQDQ01+000000PRSWM2
0071724846999992000100417009+36217-115200NSRDB+067199999V020999999999999999999999999999+99999+99999999999ADDGP10060053802008090402015006502008GQ100600586912469GR100600712913679
0071724846999992000100618009+36217-115200NSRDB+067199999V020999999999999999999999999999+99999+99999999999ADDGP10060066602008095002015005602008GQ100600502914029GR100600876913699
0054724846999992000100704009+36217-115200NSRDB+067199999V020999999999999999999999999999+99999+99999999999ADDGP10060000002000000002000000002000GR100600000900009
0145724846999992000100704534+36210-115190FM-15+0671KVGT V0202901N002612200019N0160931N1+02401+00401100771ADDGF100991999999999999999999MA1101081999999MW1001REMMET067KVGT 070453Z 29005KT 10SM CLR 24/04 A2985 RMK AO2 SLP077 T02390044;EQDQ01+000000PRSWM2
0071724846999992000101314009+36217-115200NSRDB+067199999V020999999999999999999999999999+99999+99999999999ADDGP10060000002008000002015000002008GQ100600890910049GR100600005902869
0150724846999992000101406534+36210-115190FM-15+0671KVGT V0203101N001512200019N0160931N1+01401+00101101611ADDGF100991999999999999999999MA1101801999999MW1001REMMET072KVGT 140653Z AUTO 31003KT 10SM CLR 14/01 A3006 RMK AO2 SLP161 T01440006;EQDQ01+000000PRSWM2
0165724846999992000101614534+36210-115190FM-15+0671KVGT V0202801N002112200019N0160931N1+01401+00101101781ADDGF100991999999999999999999MA1102001999999MD1310191+9999MW1001REMMET073KVGT 161453Z 28004KT 10SM CLR 14/01 A3012 RMK AO2 SLP178 T01440006 53019;EQDQ01+000000PRSWM2
0165724846999992000101702534+36210-115190FM-15+0671KVGT V0202901N003612200019N0160931N1+02101+00101101601ADDGF100991999999999999999999MA1101831999999MD1310071+9999MW1001REMMET073KVGT 170253Z 29007KT 10SM CLR 21/01 A3007 RMK AO2 SLP160 T02060011 53007;EQDQ01+000000PRSWM2
0071724846999992000101722009+36217-115200NSRDB+067199999V020999999999999999999999999999+99999+99999999999ADDGP10060050202008047002015022802008GQ100600544921859GR100600801913779
0054724846999992000101807009+36217-115200NSRDB+067199999V020999999999999999999999999999+99999+99999999999ADDGP10060000002000000002000000002000GR100600000900009
0054724846999992000101912009+36217-115200NSRDB+067199999V020999999999999999999999999999+99999+99999999999ADDGP10060000002000000002000000002000GR100600000900009
0071724846999992000102214009+36217-115200NSRDB+067199999V020999999999999999999999999999+99999+99999999999ADDGP10060000002008000002015000002008GQ100600897910399GR100600001901049
0054724846999992000102308009+36217-115200NSRDB+067199999V020999999999999999999999999999+99999+99999999999ADDGP10060000002000000002000000002000GR100600000900009
0151724846999992000102703534+36210-115190FM-15+0671KVGT V0201901N002612200019N0160931N1+01701-00401100641ADDGF100991999999999999999999MA1100851999999MW1001REMMET073KVGT 270353Z AUTO 19005KT 10SM CLR 17/M04 A2978 RMK AO2 SLP064 T01721044;EQDQ01+000000PRSWM2
0071724846999992000103015009+36217-115200NSRDB+067199999V020999999999999999999999999999+99999+99999999999ADDGP10060004402008037802015001302008GQ100600850911139GR100600113913079
0071724846999992000103021009+36217-115200NSRDB+067199999V020999999999999999999999999999+99999+99999999999ADDGP10060045302008025002015030102008GQ100600528920009GR100600840913889
0071724846999992000103116009+36217-115200NSRDB+067199999V020999999999999999999999999999+99999+99999999999ADDGP10060017002008032002015008602008GQ100600749912119GR100600362913889
0071724846999992000103121009+36217-115200NSRDB+067199999V020999999999999999999999999999+99999+99999999999ADDGP10060056302008056702015022202008GQ100600531919999GR100600834913889
0204724846999992000103123534+36210-115190FM-15+0671KVGT V0203201N006712200019N0160931N1+01701-00201101391ADDGF100991999999999999999999KA1999M+01781KA2999N+01391MA1101561999999MD1110031+9999MW1001REMMET086KVGT 312353Z 32013KT 10SM CLR 17/M02 A2999 RMK AO2 SLP139 T01721017 10178 20139 51003;EQDQ01+000000PRSWM2
0151724846999992000110112534+36210-115190FM-15+0671KVGT V0203301N005712200019N0160931N1+01001-00101101931ADDGF100991999999999999999999MA1102071999999MW1001REMMET073KVGT 011253Z AUTO 33011KT 10SM CLR 10/M01 A3014 RMK AO2 SLP193 T01001006;EQDQ01+000000PRSWM2
0146724846999992000110216534+36210-115190FM-15+0671KVGT V0203401N006712200019N0160931N1+01401-00201101791ADDGF100991999999999999999999MA1101931999999MW1001REMMET068KVGT 021653Z 34013KT 10SM CLR 14/M02 A3010 RMK AO2 SLP179 T01441017;EQDQ01+000000PRSWM2
0054724846999992000110613009+36217-115200NSRDB+067199999V020999999999999999999999999999+99999+99999999999ADDGP10060000002000000002000000002000GR100600000900009
0071724846999992000110701009+36217-115200NSRDB+067199999V020999999999999999999999999999+99999+99999999999ADDGP10060000602008016202015000202008GQ100600867924729GR100600050908709
0204724846999992000110823534+36210-115190FM-15+0671KVGT V0200501N003112200019N0160931N1+01401-00701100971ADDGF100991999999999999999999KA1999M+01501KA2999N+01111MA1101051999999MD1610311+9999MW1001REMMET086KVGT 082353Z 05006KT 10SM CLR 14/M07 A2984 RMK AO2 SLP097 T01441072 10150 20111 56031;EQDQ01+000000PRSWM2
0054724846999992000110910009+36217-115200NSRDB+067199999V020999999999999999999999999999+99999+99999999999ADDGP10060000002000000002000000002000GR100600000900009
0227724846999992000111005534+36210-115190FM-15+0671KVGT V0203301N009310270019N0160931N1+00901-00201100301ADDGD14991+0270019GF108991999999999999999999KA1999M+01671KA2999N+00941MA1100441999999MD1210081+9999MW1001REMMET094KVGT 100553Z AUTO 33018KT 10SM OVC095 09/M02 A2966 RMK AO2 SLP030 T00941022 10167 20094 52008;EQDQ01+000000PRSWM2
0054724846999992000111211009+36217-115200NSRDB+067199999V020999999999999999999999999999+99999+99999999999ADDGP10060000002000000002000000002000GR100600000900009
0166724846999992000111614534+36210-115190FM-15+0671KVGT V0203401N006212200019N0160931N1+00601-00801101821ADDGF100991999999999999999999MA1101861999999MD1310161+9999MW1001REMMET074KVGT 161453Z 34012KT 10SM CLR 06/M08 A3008 RMK AO2 SLP182 T00561078 53016;EQDQ01+000000PRSWM2
0171724846999992000111708534+36210-115190FM-15+0671KVGT V0209999V001512200019N0160931N1+00501-00901102261ADDGF100991999999999999999999MA1102341999999MD1110101+9999MW1001REMMET079KVGT 170853Z AUTO VRB03KT 10SM CLR 05/M09 A3022 RMK AO2 SLP226 T00501089 51010;EQDQ01+000000PRSWM2
0151724846999992000112116534+36210-115190FM-15+0671KVGT V0209999C000012200019N0160931N1+01001-00301102251ADDGF100991999999999999999999MA1102341999999MW1001REMMET073KVGT 211653Z AUTO 00000KT 10SM CLR 10/M03 A3022 RMK AO2 SLP225 T01001028;EQDQ01+000000PRSWM2
0189724846999992000112407534+36210-115190FM-15+0671KVGT V0203001N003112200019N0160931N1+01001-00401102071ADDGF100991999999999999999999KA1999M+01891KA2999N+00831MA1102241999999MW1001REMMET085KVGT 240753Z AUTO 30006KT 10SM CLR 10/M04 A3019 RMK AO2 SLP207 T01001039 401890083 $;EQDQ01+000000PRSWM2
0153724846999992000112409534+36210-115190FM-15+0671KVGT V0203101N002612200019N0160931N1+00701-00501102081ADDGF100991999999999999999999MA1102201999999MW1001REMMET075KVGT 240953Z AUTO 31005KT 10SM CLR 07/M05 A3018 RMK AO2 SLP208 T00671050 $;EQDQ01+000000PRSWM2
0146724846999992000112621534+36210-115190FM-15+0671KVGT V0201301N002112200019N0160931N1+01701-00601101811ADDGF100991999999999999999999MA1101931999999MW1001REMMET068KVGT 262153Z 13004KT 10SM CLR 17/M06 A3010 RMK AO2 SLP181 T01671061;EQDQ01+000000PRSWM2
0166724846999992000112814534+36210-115190FM-15+0671KVGT V0203201N001512200019N0160931N1+00701-00101101971ADDGF100991999999999999999999MA1102071999999MD1310181+9999MW1001REMMET074KVGT 281453Z 32003KT 10SM CLR 07/M01 A3014 RMK AO2 SLP197 T00671011 53018;EQDQ01+000000PRSWM2
0071724846999992000112822009+36217-115200NSRDB+067199999V020999999999999999999999999999+99999+99999999999ADDGP10060044002008086202015006602008GQ100600645921129GR100600606914069
0146724846999992000120122534+36210-115190FM-15+0671KVGT V0209999C000012200019N0160931N1+01701-00301101831ADDGF100991999999999999999999MA1101961999999MW1001REMMET068KVGT 012253Z 00000KT 10SM CLR 17/M03 A3011 RMK AO2 SLP183 T01671028;EQDQ01+000000PRSWM2
0071724846999992000120219009+36217-115200NSRDB+067199999V020999999999999999999999999999+99999+99999999999ADDGP10060042902008048102015018802008GQ100600601916399GR100600701914089
0151724846999992000120312534+36210-115190FM-15+0671KVGT V0202901N002112200019N0160931N1+00501-00401102061ADDGF100991999999999999999999MA1102171999999MW1001REMMET073KVGT 031253Z AUTO 29004KT 10SM CLR 05/M04 A3017 RMK AO2 SLP206 T00501044;EQDQ01+000000PRSWM2
0146724846999992000120416534+36210-115190FM-15+0671KVGT V0203201N001512200019N0160931N1+01201-00301102591ADDGF100991999999999999999999MA1102681999999MW1001REMMET068KVGT 041653Z 32003KT 10SM CLR 12/M03 A3032 RMK AO2 SLP259 T01171033;EQDQ01+000000PRSWM2
0220724846999992000120805534+36210-115190FM-15+0671KVGT V0209999C000012200019N0160931N1+01101-00101101411ADDGF100991999999999999999999KA1999M+01781KA2999N+01061MA1101561999999MD1310021+9999MW1001REMMET102KVGT 080553Z AUTO 00000KT 10SM CLR 11/M01 A2999 RMK AO2 LTG DSNT E SLP141 T01111006 10178 20106 53002;EQDQ01+000000PRSWM2
0145724846999992000120916534+36210-115190FM-15+0671KVGT V0203401N001512200019N0160931N1+01101+00001101731ADDGF100991999999999999999999MA1101831999999MW1001REMMET067KVGT 091653Z 34003KT 10SM CLR 11/00 A3007 RMK AO2 SLP173 T01110000;EQDQ01+000000PRSWM2
0054724846999992000121006009+36217-115200NSRDB+067199999V020999999999999999999999999999+99999+99999999999ADDGP10060000002000000002000000002000GR100600000900009
0150724846999992000121009534+36210-115190FM-15+0671KVGT V0203401N002612200019N0160931N1+00901+00001101301ADDGF100991999999999999999999MA1101461999999MW1001REMMET072KVGT 100953Z AUTO 34005KT 10SM CLR 09/00 A2996 RMK AO2 SLP130 T00890000;EQDQ01+000000PRSWM2
0071724846999992000121516009+36217-115200NSRDB+067199999V020999999999999999999999999999+99999+99999999999ADDGP10060006102008024802015003102008GQ100600831912569GR100600171914129
0054724846999992000121810009+36217-115200NSRDB+067199999V020999999999999999999999999999+99999+99999999999ADDGP10060000002000000002000000002000GR100600000900009
0054724846999992000121913009+36217-115200NSRDB+067199999V020999999999999999999999999999+99999+99999999999ADDGP10060000002000000002000000002000GR100600000900009
0153724846999992000122109534+36210-115190FM-15+0671KVGT V0203201N002112200019N0160931N1+00301-00801101971ADDGF100991999999999999999999MA1102031999999MW1001REMMET075KVGT 210953Z AUTO 32004KT 10SM CLR 03/M08 A3013 RMK AO2 SLP197 T00331083 $;EQDQ01+000000PRSWM2
0151724846999992000122210534+36210-115190FM-15+0671KVGT V0203301N003112200019N0160931N1+00301-00801101541ADDGF100991999999999999999999MA1101631999999MW1001REMMET073KVGT 221053Z AUTO 33006KT 10SM CLR 03/M08 A3001 RMK AO2 SLP154 T00281078;EQDQ01+000000PRSWM2
0054724846999992000122608009+36217-115200NSRDB+067199999V020999999999999999999999999999+99999+99999999999ADDGP10060000002000000002000000002000GR100600000900009
0054724846999992000122702009+36217-115200NSRDB+067199999V020999999999999999999999999999+99999+99999999999ADDGP10060000002000000002000000002000GR100600000900009
0071724846999992000122717009+36217-115200NSRDB+067199999V020999999999999999999999999999+99999+99999999999ADDGP10060024602009078302021004102009GQ100600748913509GR100600370914159
0146724846999992000122918534+36210-115190FM-15+0671KVGT V0201501N002112200019N0160931N1+01501-00501102401ADDGF100991999999999999999999MA1102511999999MW1001REMMET068KVGT 291853Z 15004KT 10SM CLR 15/M05 A3027 RMK AO2 SLP240 T01501050;EQDQ01+000000PRSWM2
0189724855231532000010123504+38050-117080FM-15+1654KTPH V0201601N002110450019N0804671N1+00601-01201100871ADDGD13991+0450019GF107991999999999999999999KA1999M+00911KA2999N+00401MA1100881999999MD1610201+9999MW1001REMMET075KTPH 012350Z 16004KT 50SM BKN150 06/M12 A2979 RMK SLP087 10091 20040 56020;
0054724855231532000010804009+38067-117083NSRDB+165599999V020999999999999999999999999999+99999+99999999999ADDGP10060000002000000002000000002000GR100600000900009
0054724855231532000011003009+38067-117083NSRDB+165599999V020999999999999999999999999999+99999+99999999999ADDGP10060000002000000002000000002000GR100600000900009
0071724855231532000011217009+38067-117083NSRDB+165599999V020999999999999999999999999999+99999+99999999999ADDGP10060020202009080402021001902009GQ100600769913179GR100600320914149
0054724855231532000011402009+38067-117083NSRDB+165599999V020999999999999999999999999999+99999+99999999999ADDGP10060000002000000002000000002000GR100600000900009
0409724855231532000011406003+38067-117083FM-15+1655TPH  V0209999C000050609659N0400005N1+00105-00801102615ADDGD14995+0600019GF108995999999999999999999GP10060000002000000002000000002000GR100600000900009KA1999M+01131KA2999N+00081MA1102571084005MD1110051+9999MW1001REMMET074KTPH 140555Z 00000KT 25SM OVC200 01/M08 A3029 RMK SP261 10113 20008 51005;EQDQ01+000000PRSWM2N01 00000JPWTH 0QNNE71D0 00699F71 0 00699G71 0 00200L71 0 02500M71 0 24805N71 0 00000Q71 0 10261S71D0 00034R71 0 00010V71D0 01099U71 0 00899X71 0 00000
0054724855231532000011702009+38067-117083NSRDB+165599999V020999999999999999999999999999+99999+99999999999ADDGP10060000002000000002000000002000GR100600000900009
0071724855231532000011919009+38067-117083NSRDB+165599999V020999999999999999999999999999+99999+99999999999ADDGP10060033102008023502015022102008GQ100600621915649GR100600660914139
0366724855231532000011922503+38067-117083FM-15+1655TPH  V0201505N002650609659N0800005N1+01305+00405102035ADDGD11995+0150019GD23995+0600019GF106995999999999999999999MA1102131083635MW1001REMMET063KTPH 192250Z 15005KT 50SM FEW050 BKN200 13/04 A3016 RMK SLP203;EQDQ01+000000PRSWM2N01 00000JPWTH 0QNNE71D0 00299F71 0 00199E71D0 00499F71 0 00499G71 0 00200K71D0 00039J71 0 00040L71 0 05000M71 0 24695N71 0 00000Q71 0 10203S71D0 00055R71 0 00130V71D0 00899U71 0 00699X71 0 15005
0424724855231532000012023503+38067-117083FM-15+1655TPH  V0201705N002650609659N0800005N1+01205+00205101405ADDGD11995+0120019GD23995+0600019GF107995999999999999999999KA1999M+01411KA2999N+00951MA1101591083175MD1610121+9999MW1001REMMET081KTPH 202350Z 17005KT 50SM FEW040 BKN200 12/02 A3000 RMK SLP140 10141 20095 56012;EQDQ01+000000PRSWM2N01 00000JPWTH 0QNNE71D0 00299F71 0 00199E71D0 00499F71 0 00499G71 0 00200K71D0 00036J71 0 00020L71 0 05000M71 0 24560N71 0 00000Q71 0 10140S71D0 00054R71 0 00120V71D0 00999U71 0 00799X71 0 17005
0280724855231532000012715503+38067-117083FM-15+1655TPH  V0203305N002152200059N0800005N1-00201-00601102505ADDGD11995+0600019GF102995999999999999999999MA1102341083815MW1001REMMET058KTPH 271550Z 33004KT 50SM FEW200 M02/M06 A3022 RMK SLP250;EQDQ01+000000PRSWM2N01 00000JPWTH 0QNNE71D0 00299F71 0 00199G71U0 99999L71 0 05000M71 0 24750N71 0 00000Q71 0 10250V71D0 00299U71 0 00299X71 0 33004
0296724855231532000013004503+38067-117083FM-15+1655TPH  V0203305N003152200059N0400005N1-00602-01301102255ADDGD11995+0750019GF101995999999999999999999MA1101901083425MW1001REMMET058KTPH 300450Z 33006KT 25SM FEW250 M06/M13 A3009 RMK SLP225;EQDQ01-000603ATOT  Q02+000000PRSWM2N01 00000JPWTH 0QNNE71D0 00299F71 0 00199G71U0 99999L71 0 02500M71 0 24635N71 0 00000Q71 0 10225V71D0 00199U71 0 00199X71 0 33006
0301724855231532000020518503+38067-117083FM-15+1655TPH  V0201305N005752200059N0800005N1+01005-00101101995ADDGD11995+0600019GF101995999999999999999999MA1102131083645MW1001REMMET057KTPH 051850Z 13011KT 50SM FEW200 10/M01 A3016 RMK SLP199;EQDQ01+000000PRSWM2N01 00000JPWTH 0QNNE71D0 00299F71 0 00199G71U0 99999L71 0 05000M71 0 24700N71 0 00000Q71 0 10199S71D0 00050R71 0 00100V71D0 00199U71 0 00199X71 0 13011
0262724855231532000020607503+38067-117083FM-15+1655TPH  V0203405N002652200059N0400005N1-00101-00801102295ADDGF100995999999999999999999MA1102371083835MW1001REMMET055KTPH 060750Z 34005KT 25SM SKC M01/M08 A3023 RMK SLP229;EQDQ01+000000PRSWM2N01 00000JPWTH 0QNNE71D0 00000F71 0 00000G71U0 99999L71 0 02500M71 0 24755N71 0 00000Q71 0 10229V71D0 00099U71 0 00099X71 0 34005
0301724855231532000020715503+38067-117083FM-15+1655TPH  V0203405N002652200059N0800005N1+00205-00901103235ADDGD12995+0750019GF103995999999999999999999MA1103151084495MW1001REMMET057KTPH 071550Z 34005KT 50SM SCT250 02/M09 A3046 RMK SLP323;EQDQ01+000000PRSWM2N01 00000JPWTH 0QNNE71D0 00299F71 0 00299G71U0 99999L71 0 05000M71 0 24950N71 0 00000Q71 0 10323S71D0 00036R71 0 00020V71D0 00499U71 0 00399X71 0 34005
0334724855231532000021100503+38067-117083FM-15+1655TPH  V0201705N004150450019N0480005N1+00805-00101100785ADDGD12995+0120019GD23995+0450019GF107995999999999999999999MA1100851082545MW1001REMMET064KTPH 110050Z 17008KT 30SM SCT040 BKN150 08/M01 A2978 RMK SLP078;EQDQ01+000000PRSWM2N01 00000JPWTH 0QNNE71D0 00299F71 0 00299E71D0 00499F71 0 00499L71 0 03000M71 0 24375N71 0 00000Q71 0 10078S71D0 00046R71 0 00080V71D0 00999U71 0 00799X71 0 17008
0071724855231532000021502009+38067-117083NSRDB+165599999V020999999999999999999999999999+99999+99999999999ADDGP10060000002008000002015000002008GQ100600880925209GR100600020905499
0054724855231532000021606009+38067-117083NSRDB+165599999V020999999999999999999999999999+99999+99999999999ADDGP10060000002000000002000000002000GR100600000900009
0054724855231532000021904009+38067-117083NSRDB+165599999V020999999999999999999999999999+99999+99999999999ADDGP10060000002000000002000000002000GR100600000900009
0054724855231532000021913009+38067-117083NSRDB+165599999V020999999999999999999999999999+99999+99999999999ADDGP10060000002000000002000000002000GR100600000900009
0301724855231532000022013503+38067-117083FM-15+1655TPH  V0209999C000051834959N0400005N1+00505-00501101335ADDGD14995+0180019GF108995999999999999999999MA1101461083055MW1001REMMET057KTPH 201350Z 00000KT 25SM OVC060 05/M05 A2996 RMK SLP133;EQDQ01+000000PRSWM2N01 00000JPWTH 0QNNE71D0 00699F71 0 00699G71 0 00602L71 0 02500M71 0 24525N71 0 00000Q71 0 10133S71D0 00041R71 0 00050V71D0 01099U71 0 00899X71 0 00000
0071724855231532000022120009+38067-117083NSRDB+165599999V020999999999999999999999999999+99999+99999999999ADDGP10060027802008001202015027002008GQ100600494916979GR100600910913989
0324724855231532000022212503+38067-117083FM-15+1655TPH  V0209999C000050707159N0400005N1-00101-00101101835ADDGD11995+0030019GD23995+0069019GF107995999999999999999999MA1101801083345MW1001REMMET065KTPH 221250Z 00000KT 25SM FEW010 BKN023 M01/M01 A3006 RMK SLP183;EQDQ01+000000PRSWM2N01 00000JPWTH 0QNNE71D0 00299F71 0 00199E71D0 00499F71 0 00499G71 0 00232L71 0 02500M71 0 24610N71 0 00000Q71 0 10183V71D0 00999U71 0 00799X71 0 00000
0054724855231532000022408009+38067-117083NSRDB+165599999V020999999999999999999999999999+99999+99999999999ADDGP10060000002000000002000000002000GR100600000900009
0397724855231532000030602503+38067-117083FM-15+1655TPH  V0201205N009350061059N0400005N1+00105+00005099975ADDGD13995+0060019GD24995+0090019GF108995999999999999999999MA1099831081685MD1310021+9999MW1001OC101291REMMET072KTPH 060250Z 12018G25KT 25SM BKN020 OVC030 01/00 A2948 RMK SLP997 53002;EQDQ01+000000PRSWM2N01 00000JPWTH 0QNNE71D0 00499F71 0 00499E71D0 00699F71 0 00699G71 0 00020K71D0 00032J71 0 00000L71 0 02500M71 0 24120N71 0 00000Q71 0 09997S71D0 00034R71 0 00010V71D0 01099U71 0 00899X71 0 12018
0290724855231532000031004503+38067-117083FM-15+1655TPH  V0209999C000052200059N0400005N1+00005-00201102345ADDGD11995+0180019GF101995999999999999999999MA1102171083685MW1001REMMET057KTPH 100450Z 00000KT 25SM FEW060 00/M02 A3017 RMK SLP234;EQDQ01+000000PRSWM2N01 00000JPWTH 0QNNE71D0 00299F71 0 00199G71U0 99999L71 0 02500M71 0 24710N71 0 00000Q71 0 10234S71D0 00032V71D0 00199U71 0 00199X71 0 00000
0283724855231532000031213503+38067-117083FM-15+1655TPH  V0203405N004652200059N0640005N1+00105-00301102195ADDGF101995999999999999999999MA1102301083805MW1001REMMET054KTPH 121350Z 34009KT 25SM SKC 01/M03 A3021 RMK SLP219;EQDQ01+000000PRSWM2N01 00000JPWTH 0QNNE71D0 00299F71 0 00199G71U0 99999L71 0 04000M71 0 24745N71 0 00000Q71 0 10219S71D0 00034R71 0 00010V71D0 00199U71 0 00199X71 0 34009
0071724855231532000031323009+38067-117083NSRDB+165599999V020999999999999999999999999999+99999+99999999999ADDGP10060063202008091302015009102008GQ100600538922979GR100600817913839
0054724855231532000031411009+38067-117083NSRDB+165599999V020999999999999999999999999999+99999+99999999999ADDGP10060000002000000002000000002000GR100600000900009
0321724855231532000031608503+38067-117083FM-15+1655TPH  V0209999C000052200059N0400005N1+00305-00801101725ADDGD11995+0750019GF102995999999999999999999MA1101961083495MD1510001+9999MW1001REMMET063KTPH 160850Z 00000KT 25SM FEW250 03/M08 A3011 RMK SLP172 55000;EQDQ01+000000PRSWM2N01 00000JPWTH 0QNNE71D0 00299F71 0 00199G71U0 99999L71 0 02500M71 0 24655N71 0 00000Q71 0 10172S71D0 00037R71 0 00030V71D0 00299U71 0 00299X71 0 00000
0054724855231532000031708009+38067-117083NSRDB+165599999V020999999999999999999999999999+99999+99999999999ADDGP10060000002000000002000000002000GR100600000900009
0071724855231532000031815009+38067-117083NSRDB+165599999V020999999999999999999999999999+99999+99999999999ADDGP10060006902008049502015001402008GQ100600836909589GR100600153913799
0071724855231532000031823009+38067-117083NSRDB+165599999V020999999999999999999999999999+99999+99999999999ADDGP10060066402008093002015009602008GQ100600524923169GR100600840913799
0370724855231532000032017503+38067-117083FM-15+1655TPH  V0203205N012952200059N0800005N1+00205-01501101415ADDGD11995+0180019GF101995999999999999999999KA1999M+00201KA2999N-00501MA1101391083005MD1010021+9999MW1001OC101751REMMET078KTPH 201750Z 32025G34KT 50SM FEW060 02/M15 A2994 RMK SLP141 10020 21050 50002;EQDQ01+000000PRSWM2N01 00000JPWTH 0QNNE71D0 00299F71 0 00199G71U0 99999L71 0 05000M71 0 24510N71 0 00000Q71 0 10141S71D0 00036R71 0 00020V71D0 00199U71 0 00199X71 0 32025
0071724855231532000032120009+38067-117083NSRDB+165599999V020999999999999999999999999999+99999+99999999999ADDGP10060084602008093502015010802008GQ100600381916989GR100601083913779
0345724855231532000032521503+38067-117083FM-15+1655TPH  V0201705N007252200059N0800005N1+01905-00601101545ADDGD11995+0300019GD21995+0750019GF102995999999999999999999MA1101861083415MW1001REMMET064KTPH 252150Z 17014KT 50SM FEW100 FEW250 19/M06 A3008 RMK SLP154;EQDQ01+000000PRSWM2N01 00000JPWTH 0QNNE71D0 00299F71 0 00199E71D0 00299F71 0 00199G71U0 99999L71 0 05000M71 0 24630N71 0 00000Q71 0 10154S71D0 00066R71 0 00190V71D0 00299U71 0 00299X71 0 17014
0054724855231532000032911009+38067-117083NSRDB+165599999V020999999999999999999999999999+99999+99999999999ADDGP10060000002000000002000000002000GR100600000900009
0283724855231532000033018503+38067-117083FM-15+1655TPH  V0203605N007252200059N0800005N1+01005-01901102155ADDGF100995999999999999999999MA1102371083835MW1001REMMET054KTPH 301850Z 36014KT 50SM SKC 10/M19 A3023 RMK ALP215;EQDQ01+000000PRSWM2N01 00000JPWTH 0QNNE71D0 00000F71 0 00000G71U0 99999L71 0 05000M71 0 24755N71 0 00000Q71 0 10215S71D0 00050R71 0 00100V71D0 00099U71 0 00099X71 0 36014
0054724855231532000033113009+38067-117083NSRDB+165599999V020999999999999999999999999999+99999+99999999999ADDGP10060000002000000002000000002000GR100600000900009
0283724855231532000040313503+38067-117083FM-15+1655TPH  V0203405N004152200059N0800005N1+00405-00501102275ADDGF100995999999999999999999MA1102571084005MW1001REMMET054KTPH 031350Z 34008KT 50SM SKC 04/M05 A3029 RMK SLP227;EQDQ01+000000PRSWM2N01 00000JPWTH 0QNNE71D0 00000F71 0 00000G71U0 99999L71 0 05000M71 0 24805N71 0 00000Q71 0 10227S71D0 00039R71 0 00040V71D0 00099U71 0 00099X71 0 34008
0341724855231532000040505503+38067-117083FM-15+1655TPH  V0203305N002152200059N0400005N1+01505-00501101475ADDGF100995999999999999999999KA1999M+02511KA2999N+01501MA1102001083535MD1210151+9999MW1001REMMET072KTPH 050550Z 33004KT 25SM SKC 15/M05 A3012 RMK SLP147 10251 20150 52015;EQDQ01+000000PRSWM2N01 00000JPWTH 0QNNE71D0 00000F71 0 00000G71U0 99999L71 0 02500M71 0 24665N71 0 00000Q71 0 10147S71D0 00059R71 0 00150V71D0 00099U71 0 00099X71 0 33004
0054724855231532000040808009+38067-117083NSRDB+165599999V020999999999999999999999999999+99999+99999999999ADDGP10060000002000000002000000002000GR100600000900009
0283724855231532000040810503+38067-117083FM-15+1655TPH  V0203505N004152200059N0400005N1+00605-00701101765ADDGF100995999999999999999999MA1102201083695MW1001REMMET054KTPH 081050Z 35008KT 25SM SKC 06/M07 A3018 RMK SLP176;EQDQ01+000000PRSWM2N01 00000JPWTH 0QNNE71D0 00000F71 0 00000G71U0 99999L71 0 02500M71 0 24715N71 0 00000Q71 0 10176S71D0 00043R71 0 00060V71D0 00099U71 0 00099X71 0 35008
0054724855231532000040813009+38067-117083NSRDB+165599999V020999999999999999999999999999+99999+99999999999ADDGP10060000002000000002000000002000GR100600000900009
0359724855231532000041023543+38067-117083FM-15+1655TPH  V0203105N005752200059N0800005N1+01805-00401101495ADDGD11995+0240019GF102995999999999999999999KA1999M+01941KA2999N+01381MA1101861083415MD1610021+9999MW1001REMMET075KTPH 102354Z 31011KT 50SM FEW080 18/M04 A3008 RMK SLP149 10194 20138 56002;EQDQ01+000000PRSWM2N01 00000JPWTH 0QNNE71D0 00299F71 0 00199G71U0 99999L71 0 05000M71 0 24630N71 0 00000Q71 0 10149S71D0 00064R71 0 00180V71D0 00299U71 0 00299X71 0 31011
0301724855231532000041221503+38067-117083FM-15+1655TPH  V0202105N004150762059N0800005N1+02305-00801101815ADDGD14995+0750019GF108995999999999999999999MA1102241083715MW1001REMMET057KTPH 122150Z 21008KT 50SM OVC250 23/M08 A3019 RMK SLP181;EQDQ01+000000PRSWM2N01 00000JPWTH 0QNNE71D0 00699F71 0 00699G71 0 00250L71 0 05000M71 0 24720N71 0 00000Q71 0 10181S71D0 00073R71 0 00230V71D0 01099U71 0 00899X71 0 21008
0054724855231532000041309009+38067-117083NSRDB+165599999V020999999999999999999999999999+99999+99999999999ADDGP10060000002000000002000000002000GR100600000900009
0071724855231532000041520009+38067-117083NSRDB+165599999V020999999999999999999999999999+99999+99999999999ADDGP10060090402008080402015019602008GQ100600285917079GR100601192913579
0071724855231532000041903009+38067-117083NSRDB+165599999V020999999999999999999999999999+99999+99999999999ADDGP10060000002008000002015000002008GQ100600878928289GR100600023905989
0071724855231532000042116009+38067-117083NSRDB+165599999V020999999999999999999999999999+99999+99999999999ADDGP10060045502008080902015008002008GQ100600623909639GR100600627913529
0283724855231532000042419523+38067-117083FM-15+1655TPH  V0209999C000052200059N0800005N1+01805-01501101865ADDGF100995999999999999999999MA1102241083715MW1001REMMET054KTPH 241952Z 00000KT 50SM SKC 18/M15 A3019 RMK SLP180;EQDQ01+000000PRSWM2N01 00000JPWTH 0QNNE71D0 00000F71 0 00000G71U0 99999L71 0 05000M71 0 24720N71 0 00000Q71 0 10186S71D0 00064R71 0 00180V71D0 00099U71 0 00099X71 0 00000
0071724855231532000042919009+38067-117083NSRDB+165599999V020999999999999999999999999999+99999+99999999999ADDGP10060093302008092502015012202008GQ100600289913989GR100601178913479
0345724855231532000050621503+38067-117083FM-15+1655TPH  V0201305N004150762059N0800005N1+02305-00301100605ADDGD11995+0450019GD23995+0750019GF107995999999999999999999MA1101191082835MW1001REMMET064KTPH 062150Z 13008KT 50SM FEW150 BKN250 23/M03 A2988 RMK SLP060;EQDQ01+000000PRSWM2N01 00000JPWTH 0QNNE71D0 00299F71 0 00199E71D0 00499F71 0 00499G71 0 00250L71 0 05000M71 0 24460N71 0 00000Q71 0 10060S71D0 00073R71 0 00230V71D0 00999U71 0 00799X71 0 13008
0359724855231532000050701503+38067-117083FM-15+1655TPH  V0201705N006750457259N0800005N1+02105-00201100585ADDGD12995+0300019GD23995+0450019GF106995999999999999999999MA1101081082755MW1001REMMET078KTPH 070150Z 17013KT 50SM SCT100 BKN150 21/M02 A2985 RMK SLP058 SHRA DSNT W-N;EQDQ01+000000PRSWM2N01 00000JPWTH 0QNNE71D0 00299F71 0 00299E71D0 00499F71 0 00499G71 0 00150L71 0 05000M71 0 24435N71 0 00000Q71 0 10058S71D0 00070R71 0 00210V71D0 00899U71 0 00699X71 0 17013
0366724855231532000050722533+38067-117083FM-15+1655TPH  V0202205N005750457259N0640005N1+02005+00005100805ADDGD12995+0240019GD24995+0450019GF108995999999999999999999MA1101351082975MW1001REMMET063KTPH 072253Z 22011KT 40SM SCT080 OVC150 20/00 A2993 RMK SLP080;EQDQ01+000000PRSWM2N01 00000JPWTH 0QNNE71D0 00299F71 0 00299E71D0 00699F71 0 00699G71 0 00150K71D0 00032J71 0 00000L71 0 04000M71 0 24500N71 0 00000Q71 0 10080S71D0 00068R71 0 00200V71D0 01099U71 0 00899X71 0 22011
0054724855231532000050809009+38067-117083NSRDB+165599999V020999999999999999999999999999+99999+99999999999ADDGP10060000002000000002000000002000GR100600000900009
0054724855231532000050905009+38067-117083NSRDB+165599999V020999999999999999999999999999+99999+99999999999ADDGP10060000002000000002000000002000GR100600000900009
0401724855231532000051612503+38067-117083FM-15+1655TPH  V0202905N008250015259N0112005N1+00205+00005100355ADDGD13995+0015019GD24995+0030019GF108995999999999999999999MA1100751082425MW1715REMMET082KTPH 161250Z COR 29016KT 7SM -SN BKN005 OVC010 02/M00 A2975 RMK RAE35SNB35 SLP035;EQDQ01+000003PRSWM1Q02    003PRSWM1N01 00040JPWTH 0QNNE71D0 00499F71 0 00499E71D0 00699F71 0 00699G71 0 00005K71D0 00032J71 0 00000L71 0 00700M71 0 24340N71 0 00040Q71 0 10035S71D0 00036R71 0 00020V71D0 01099U71 0 00899X71 0 29016
0071724855231532000051801009+38067-117083NSRDB+165599999V020999999999999999999999999999+99999+99999999999ADDGP10060042202008064602015013402008GQ100600636927499GR100600593913359
0304724855231532000051806503+38067-117083FM-15+1655TPH  V0203205N002152200059N0400005N1+00805+00405101785ADDGF100995999999999999999999MA1102101083615MW1001REMMET053KTPH 180650Z 32004KT 25SM SKC 08/04 A3015 RMK SLP178;EQDQ01+000000PRSWM2N01 00000JPWTH 0QNNE71D0 00000F71 0 00000G71U0 99999K71D0 00039J71 0 00040L71 0 02500M71 0 24690N71 0 00000Q71 0 10178S71D0 00046R71 0 00080V71D0 00099U71 0 00099X71 0 32004
0322724855231532000052015503+38067-117083FM-15+1655TPH  V0203505N003152200059N0800005N1+02005+00005101875ADDGD11995+0750019GF101995999999999999999999MA1102471083935MW1001REMMET056KTPH 201550Z 35006KT 50SM FEW250 20/00 A3026 RMK SLP187;EQDQ01+000000PRSWM2N01 00000JPWTH 0QNNE71D0 00299F71 0 00199G71U0 99999K71D0 00032J71 0 00000L71 0 05000M71 0 24785N71 0 00000Q71 0 10187S71D0 00068R71 0 00200V71D0 00199U71 0 00199X71 0 35006
0054724855231532000052407009+38067-117083NSRDB+165599999V020999999999999999999999999999+99999+99999999999ADDGP10060000002000000002000000002000GR100600000900009
0386724855231532000052414503+38067-117083FM-15+1655TPH  V0203305N003150609659N0800005N1+01905+00805101085ADDGD12995+0450019GD23995+0600019GF105995999999999999999999MA1101831083375MD1510001+9999MW1001REMMET069KTPH 241450Z 33006KT 50SM SCT150 BKN200 19/08 A3007 RMK SLP108 55000;EQDQ01+000000PRSWM2N01 00000JPWTH 0QNNE71D0 00299F71 0 00299E71D0 00499F71 0 00499G71 0 00200K71D0 00046J71 0 00080L71 0 05000M71 0 24620N71 0 00000Q71 0 10108S71D0 00066R71 0 00190V71D0 00699U71 0 00599X71 0 33006
0071724855231532000052523009+38067-117083NSRDB+165599999V020999999999999999999999999999+99999+99999999999ADDGP10060040302008004902015036502008GQ100600392925629GR100601030913319
0359724855231532000053011503+38067-117083FM-15+1655TPH  V0202905N003652200059N0400005N1+01205-01001100435ADDGD11995+0540019GF102995999999999999999999KA1999M+02101KA2999N+01151MA1101191082855MD1610071+9999MW1001REMMET075KTPH 301150Z 29007KT 25SM FEW180 12/M10 A2988 RMK SLP043 10210 20115 56007;EQDQ01+000000PRSWM2N01 00000JPWTH 0QNNE71D0 00299F71 0 00199G71U0 99999L71 0 02500M71 0 24465N71 0 00000Q71 0 10043S71D0 00054R71 0 00120V71D0 00299U71 0 00299X71 0 29007
0071724855231532000060215009+38067-117083NSRDB+165599999V020999999999999999999999999999+99999+99999999999ADDGP10060032502008072802015005402008GQ100600681907829GR100600494913289
0303724855231532000060220503+38067-117083FM-15+1655TPH  V0202105N005752200059N0800005N1+02805-00701101505ADDGF100995999999999999999999MA1102131083635MD1710051+9999MW1001REMMET060KTPH 022050Z 21011KT 50SM SKC 28/M07 A3016 RMK SLP150 57005;EQDQ01+000000PRSWM2N01 00000JPWTH 0QNNE71D0 00000F71 0 00000G71U0 99999L71 0 05000M71 0 24695N71 0 00000Q71 0 10150S71D0 00082R71 0 00280V71D0 00099U71 0 00099X71 0 21011
0433724855231532000060307596+38051-117090SOD  +1656KTPH V020999999999999999999999999999+99999+99999999999ADDAA124000095AJ100009599999999AL12400095AN1024000095KA1240M+03065KA2240N+00725OE11249999999999997OE22249999999999997REMSOD30724 HR PRECIPITATION (IN): 0.00 SNOW DEPTH (IN):  0   24 HR SNOWFALL (IN): 0.0 24 HR MAX TEMP (F): 8724 HR MIN TEMP (F): 4524 HR AVG TEMP (F): 66HOURLY INCREMENTAL PRECIPITATION VALUES (IN):.00  .00  .00  .00  .00  .00  .00  .00  .00  .00  .00  .00  .00  .00  .00  .00  .00  .00  .00  .00  .00  .00  .00  .00
0054724855231532000060507009+38067-117083NSRDB+165599999V020999999999999999999999999999+99999+99999999999ADDGP10060000002000000002000000002000GR100600000900009
0433724855231532000060507596+38051-117090SOD  +1656KTPH V020999999999999999999999999999+99999+99999999999ADDAA124000095AJ100009599999999AL12400095AN1024000095KA1240M+03285KA2240N+01115OE11249999999999997OE22249999999999997REMSOD30724 HR PRECIPITATION (IN): 0.00 SNOW DEPTH (IN):  0   24 HR SNOWFALL (IN): 0.0 24 HR MAX TEMP (F): 9124 HR MIN TEMP (F): 5224 HR AVG TEMP (F): 72HOURLY INCREMENTAL PRECIPITATION VALUES (IN):.00  .00  .00  .00  .00  .00  .00  .00  .00  .00  .00  .00  .00  .00  .00  .00  .00  .00  .00  .00  .00  .00  .00  .00
0303724855231532000060702543+38067-117083FM-15+1655TPH  V0201505N005252200059N0800005N1+02605-00901100945ADDGF100995999999999999999999MA1101691083255MD1510031+9999MW1001REMMET060KTPH 070254Z 15010KT 50SM SKC 26/M09 A3003 RMK SLP094 55003;EQDQ01+000000PRSWM2N01 00000JPWTH 0QNNE71D0 00000F71 0 00000G71U0 99999L71 0 05000M71 0 24585N71 0 00000Q71 0 10094S71D0 00079R71 0 00260V71D0 00099U71 0 00099X71 0 15010
0283724855231532000060716503+38067-117083FM-15+1655TPH  V0201605N004652200059N0800005N1+02405-00701100965ADDGF100995999999999999999999MA1101661083245MW1001REMMET054KTPH 071650Z 16009KT 50SM SKC 24/M07 A3002 RMK SLP096;EQDQ01+000000PRSWM2N01 00000JPWTH 0QNNE71D0 00000F71 0 00000G71U0 99999L71 0 05000M71 0 24580N71 0 00000Q71 0 10096S71D0 00075R71 0 00240V71D0 00099U71 0 00099X71 0 16009
0312724855231532000060721503+38067-117083FM-15+1655TPH  V0201805N013952200059N0800005N1+03005-00601100535ADDGD12995+0750019GF103995999999999999999999MA1101321082955MW1001OC102161REMMET060KTPH 072150Z 18027G42KT 50SM SCT250 30/M06 A2992 RMK SLP053;EQDQ01+000000PRSWM2N01 00000JPWTH 0QNNE71D0 00299F71 0 00299G71U0 99999L71 0 05000M71 0 24495N71 0 00000Q71 0 10053S71D0 00086R71 0 00300V71D0 00499U71 0 00399X71 0 18027
0071724855231532000060923009+38067-117083NSRDB+165599999V020999999999999999999999999999+99999+99999999999ADDGP10060082102008083802015015802008GQ100600377925829GR100601047913259
0054724855231532000061006009+38067-117083NSRDB+165599999V020999999999999999999999999999+99999+99999999999ADDGP10060000002000000002000000002000GR100600000900009
0301724855231532000061115503+38067-117083FM-15+1655TPH  V0201005N001552200059N0800005N1+02005-00601101275ADDGD11995+0750019GF101995999999999999999999MA1101931083465MW1001REMMET057KTPH 111550Z 10003KT 50SM FEW250 20/M06 A3010 RMK SLP127;EQDQ01+000000PRSWM2N01 00000JPWTH 0QNNE71D0 00299F71 0 00199G71U0 99999L71 0 05000M71 0 24645N71 0 00000Q71 0 10127S71D0 00068R71 0 00200V71D0 00199U71 0 00199X71 0 10003
0324724855231532000061314503+38067-117083FM-15+1655TPH  V0203305N003152200059N0800005N1+02005+00705101625ADDGF100995999999999999999999MA1102371083855MD1110191+9999MW1001REMMET059KTPH 131450Z 33006KT 50SM SKC 20/07 A3023 RMK SLP162 51019;EQDQ01+000000PRSWM2N01 00000JPWTH 0QNNE71D0 00000F71 0 00000G71U0 99999K71D0 00045J71 0 00070L71 0 05000M71 0 24760N71 0 00000Q71 0 10162S71D0 00068R71 0 00200V71D0 00099U71 0 00099X71 0 33006
0301724855231532000061806503+38067-117083FM-15+1655TPH  V0209999C000052200059N0400005N1+01805-00301100745ADDGD11995+0600019GF101995999999999999999999MA1101491083095MW1001REMMET057KTPH 180650Z 00000KT 25SM FEW200 18/M03 A2997 RMK SLP074;EQDQ01+000000PRSWM2N01 00000JPWTH 0QNNE71D0 00299F71 0 00199G71U0 99999L71 0 02500M71 0 24535N71 0 00000Q71 0 10074S71D0 00064R71 0 00180V71D0 00199U71 0 00199X71 0 00000
0283724855231532000062003503+38067-117083FM-15+1655TPH  V0203105N006252200059N0800005N1+02305-00101100915ADDGF100995999999999999999999MA1101661083245MW1001REMMET054KTPH 200350Z 31012KT 50SM SKC 23/M01 A3002 RMK SLP091;EQDQ01+000000PRSWM2N01 00000JPWTH 0QNNE71D0 00000F71 0 00000G71U0 99999L71 0 05000M71 0 24580N71 0 00000Q71 0 10091S71D0 00073R71 0 00230V71D0 00099U71 0 00099X71 0 31012
0341724855231532000062005503+38067-117083FM-15+1655TPH  V0203105N003152200059N0400005N1+01905-00201101035ADDGF100995999999999999999999KA1999M+02971KA2999N+01941MA1101801083345MD1310171+9999MW1001REMMET072KTPH 200550Z 31006KT 25SM SKC 19/M02 A3006 RMK SLP103 10297 20194 53017;EQDQ01+000000PRSWM2N01 00000JPWTH 0QNNE71D0 00000F71 0 00000G71U0 99999L71 0 02500M71 0 24610N71 0 00000Q71 0 10103S71D0 00066R71 0 00190V71D0 00099U71 0 00099X71 0 31006
0303724855231532000062014503+38067-117083FM-15+1655TPH  V0203605N004152200059N0800005N1+01805-00801101535ADDGF100995999999999999999999MA1102241083715MD1110141+9999MW1001REMMET060KTPH 201450Z 36008KT 50SM SKC 18/M08 A3019 RMK SLP153 51014;EQDQ01+000000PRSWM2N01 00000JPWTH 0QNNE71D0 00000F71 0 00000G71U0 99999L71 0 05000M71 0 24720N71 0 00000Q71 0 10153S71D0 00064R71 0 00180V71D0 00099U71 0 00099X71 0 36008
0071724855231532000062017009+38067-117083NSRDB+165599999V020999999999999999999999999999+99999+99999999999ADDGP10060071902008089402015008402008GQ100600448909429GR100600937913229
0322724855231532000062307503+38067-117083FM-15+1655TPH  V0209999V002150365859N0400005N1+02105+00405100845ADDGD13995+0360019GF106995999999999999999999MA1101761083325MW1001REMMET056KTPH 230750Z VRB04KT 25SM BKN120 21/04 A3005 RMK SLP084;EQDQ01+000000PRSWM2N01 00000JPWTH 0QNNE71D0 00499F71 0 00499G71 0 00120K71D0 00039J71 0 00040L71 0 02500M71 0 24605N71 0 00000Q71 0 10084S71D0 00070R71 0 00210V71D0 00899U71 0 00699X71 0 00004
0366724855231532000062400503+38067-117083FM-15+1655TPH  V0201605N007250548659N0640005N1+02505+00405101255ADDGD12995+0360019GD23995+0540019GF107995999999999999999999MA1101901083425MW1001REMMET063KTPH 240050Z 16014KT 40SM SCT120 BKN180 25/04 A3009 RMK SLP125;EQDQ01+000000PRSWM2N01 00000JPWTH 0QNNE71D0 00299F71 0 00299E71D0 00499F71 0 00499G71 0 00180K71D0 00039J71 0 00040L71 0 04000M71 0 24635N71 0 00000Q71 0 10125S71D0 00077R71 0 00250V71D0 00999U71 0 00799X71 0 16014
0054724855231532000062612009+38067-117083NSRDB+165599999V020999999999999999999999999999+99999+99999999999ADDGP10060000002000000002000000002000GR100600000900009
0199724855231532000062621274+38500-117800FM-16+1654KTPH V0200101N009312200019N0804671N1+02801+00401999999ADDGA1999+036001091GD12991+0360019GF104991999999999999999999MA1102001999999MW1001OC101341REMMET082KTPH 262127Z 01018G26KT 50SM SCT120CB 28/04 A3012 RMK WSHFT12 CB DSNT N TC U NW-S;EQDQ01+000000PRSWM2
0054724855231532000062707009+38067-117083NSRDB+165599999V020999999999999999999999999999+99999+99999999999ADDGP10060000002000000002000000002000GR100600000900009
0071724855231532000062719009+38067-117083NSRDB+165599999V020999999999999999999999999999+99999+99999999999ADDGP10060095102008089502015012602008GQ100600229912529GR100601216913229
0358724855231532000062802503+38067-117083FM-15+1655TPH  V0200305N004650365859N0800005N1+03005+00105100955ADDGD13995+0360019GF105995999999999999999999MA1101831083375MD1510001+9999MW1001REMMET078KTPH 280250Z 03009KT 50SM BKN120 30/01 A3007 RMK VIRGA OHD ALQDS SLP095 55000;EQDQ01+000000PRSWM2N01 00000JPWTH 0QNNE71D0 00499F71 0 00499G71 0 00120K71D0 00034J71 0 00010L71 0 05000M71 0 24620N71 0 00000Q71 0 10095S71D0 00086R71 0 00300V71D0 00699U71 0 00599X71 0 03009
0322724855231532000063016503+38067-117083FM-15+1655TPH  V0201705N003152200059N0800005N1+02705+00505101115ADDGD11995+0360019GF102995999999999999999999MA1101931083465MW1001REMMET056KTPH 301650Z 17006KT 50SM FEW120 27/05 A3010 RMK SLP111;EQDQ01+000000PRSWM2N01 00000JPWTH 0QNNE71D0 00299F71 0 00199G71U0 99999K71D0 00041J71 0 00050L71 0 05000M71 0 24645N71 0 00000Q71 0 10111S71D0 00081R71 0 00270V71D0 00299U71 0 00299X71 0 17006
0321724855231532000070202513+38067-117083FM-15+1655TPH  V0201705N005252200059N0800005N1+02805-00101100545ADDGD11995+0360019GF101995999999999999999999MA1101391083005MD1510051+9999MW1001REMMET063KTPH 020251Z 17010KT 50SM FEW120 28/M01 A2994 RMK SLP054 55005;EQDQ01+000000PRSWM2N01 00000JPWTH 0QNNE71D0 00299F71 0 00199G71U0 99999L71 0 05000M71 0 24510N71 0 00000Q71 0 10054S71D0 00082R71 0 00280V71D0 00199U71 0 00199X71 0 17010
0381724855231532000070317503+38067-117083FM-15+1655TPH  V0202705N003652200059N0800005N1+02305+00005100745ADDGD11995+0270019GF101995999999999999999999KA1999M+02401KA2999N+01531MA1101521083125MD1310031+9999MW1001REMMET075KTPH 031750Z 27007KT 50SM FEW090 23/M00 A2998 RMK SLP074 10240 20153 53003;EQDQ01+000000PRSWM2N01 00000JPWTH 0QNNE71D0 00299F71 0 00199G71U0 99999K71D0 00032J71 0 00000L71 0 05000M71 0 24545N71 0 00000Q71 0 10074S71D0 00073R71 0 00230V71D0 00199U71 0 00199X71 0 27007
0071724855231532000070417009+38067-117083NSRDB+165599999V020999999999999999999999999999+99999+99999999999ADDGP10060071102008086402015010702008GQ100600457909459GR100600922913219
0283724855231532000070810503+38067-117083FM-15+1655TPH  V0203505N001552200059N0400005N1+01005-01101101075ADDGF100995999999999999999999MA1101691083275MW1001REMMET054KTPH 081050Z 35003KT 25SM SKC 10/M11 A3003 RMK SLP107;EQDQ01+000000PRSWM2N01 00000JPWTH 0QNNE71D0 00000F71 0 00000G71U0 99999L71 0 02500M71 0 24590N71 0 00000Q71 0 10107S71D0 00050R71 0 00100V71D0 00099U71 0 00099X71 0 35003
0054724855231532000070905009+38067-117083NSRDB+165599999V020999999999999999999999999999+99999+99999999999ADDGP10060000002000000002000000002000GR100600000900009
0283724855231532000070906503+38067-117083FM-15+1655TPH  V0203505N001552200059N0400005N1+01405-01401101145ADDGF100995999999999999999999MA1101831083375MW1001REMMET054KTPH 090650Z 35003KT 25SM SKC 14/M14 A3007 RMK SLP114;EQDQ01+000000PRSWM2N01 00000JPWTH 0QNNE71D0 00000F71 0 00000G71U0 99999L71 0 02500M71 0 24620N71 0 00000Q71 0 10114S71D0 00057R71 0 00140V71D0 00099U71 0 00099X71 0 35003
0054724855231532000070908009+38067-117083NSRDB+165599999V020999999999999999999999999999+99999+99999999999ADDGP10060000002000000002000000002000GR100600000900009
0071724855231532000071100009+38067-117083NSRDB+165599999V020999999999999999999999999999+99999+99999999999ADDGP10060069302008093702015007402008GQ100600487926699GR100600871913229
0071724855231532000071300009+38067-117083NSRDB+165599999V020999999999999999999999999999+99999+99999999999ADDGP10060067902008090602015008202008GQ100600488926669GR100600870913229
0071724855231532000071503009+38067-117083NSRDB+165599999V020999999999999999999999999999+99999+99999999999ADDGP10060000002008000002015000002008GQ100600834929249GR100600152913229
0345724855231532000071514503+38067-117083FM-15+1655TPH  V0209999C000050457259N0800005N1+02105-00401101415ADDGD12995+0360019GD23995+0450019GF105995999999999999999999MA1102271083755MW1001REMMET064KTPH 151450Z 00000KT 50SM SCT120 BKN150 21/M04 A3020 RMK SLP141;EQDQ01+000000PRSWM2N01 00000JPWTH 0QNNE71D0 00299F71 0 00299E71D0 00499F71 0 00499G71 0 00150L71 0 05000M71 0 24730N71 0 00000Q71 0 10141S71D0 00070R71 0 00210V71D0 00699U71 0 00599X71 0 00000
0304724855231532000071713503+38067-117083FM-15+1655TPH  V0209999C000052200059N0800005N1+01505+00005101265ADDGF100995999999999999999999MA1102001083535MW1001REMMET053KTPH 171350Z 00000KT 50SM SKC 15/00 A3012 RMK SLP126;EQDQ01+000000PRSWM2N01 00000JPWTH 0QNNE71D0 00000F71 0 00000G71U0 99999K71D0 00032J71 0 00000L71 0 05000M71 0 24665N71 0 00000Q71 0 10126S71D0 00059R71 0 00150V71D0 00099U71 0 00099X71 0 00000
0071724855231532000071904009+38067-117083NSRDB+165599999V020999999999999999999999999999+99999+99999999999ADDGP10060000002008000002015000002008GQ100600895929689GR100600001901659
0054724855231532000071906009+38067-117083NSRDB+165599999V020999999999999999999999999999+99999+99999999999ADDGP10060000002000000002000000002000GR100600000900009
0341724855231532000071911503+38067-117083FM-15+1655TPH  V0203505N002152200059N0400005N1+01505-01001101605ADDGF100995999999999999999999KA1999M+02381KA2999N+01481MA1102441083865MD1010001+9999MW1001REMMET072KTPH 191150Z 35004KT 25SM SKC 15/M10 A3025 RMK SLP160 10238 20148 50000;EQDQ01+000000PRSWM2N01 00000JPWTH 0QNNE71D0 00000F71 0 00000G71U0 99999L71 0 02500M71 0 24765N71 0 00000Q71 0 10160S71D0 00059R71 0 00150V71D0 00099U71 0 00099X71 0 35004
0071724855231532000072103009+38067-117083NSRDB+165599999V020999999999999999999999999999+99999+99999999999ADDGP10060000002008000002015000002008GQ100600839929159GR100600139913239
0287724855231532000072513503+38067-117083FM-15+1655TPH  V0203605N002152200059N0800005N1+01905-01201101175ADDGF100995999999999999999999MA1102031083565MW1001REMMET058KTPH 251350Z COR 36004KT 50SM SKC 19/M12 A3013 RMK SLP117;EQDQ01+000000PRSWM2N01 00000JPWTH 0QNNE71D0 00000F71 0 00000G71U0 99999L71 0 05000M71 0 24675N71 0 00000Q71 0 10117S71D0 00066R71 0 00190V71D0 00099U71 0 00099X71 0 36004
0283724855231532000072810503+38067-117083FM-15+1655TPH  V0203505N004652200059N0400005N1+01505-00801101335ADDGF100995999999999999999999MA1102131083645MW1001REMMET054KTPH 281050Z 35009KT 25SM SKC 15/M08 A3016 RMK SLP133;EQDQ01+000000PRSWM2N01 00000JPWTH 0QNNE71D0 00000F71 0 00000G71U0 99999L71 0 02500M71 0 24700N71 0 00000Q71 0 10133S71D0 00059R71 0 00150V71D0 00099U71 0 00099X71 0 35009
0054724855231532000080408009+38067-117083NSRDB+165599999V020999999999999999999999999999+99999+99999999999ADDGP10060000002000000002000000002000GR100600000900009
0071724855231532000080420009+38067-117083NSRDB+165599999V020999999999999999999999999999+99999+99999999999ADDGP10060100302008094702015012302008GQ100600220916459GR100601230913279
0071724855231532000080915009+38067-117083NSRDB+165599999V020999999999999999999999999999+99999+99999999999ADDGP10060024402008073702015003302008GQ100600733908299GR100600381913309
0054724855231532000081004009+38067-117083NSRDB+165599999V020999999999999999999999999999+99999+99999999999ADDGP10060000002000000002000000002000GR100600000900009
0330724855231532000081105503+38067-117083FM-15+1655TPH  V0203205N005752200059N0400005N1+02205-00401101155ADDGF100995999999999999999999KA1999M+03251KA2999N+02201MA1102001999999MD1310271+9999MW1001REMMET072KTPH 110550Z 32011KT 25SM SKC 22/M04 A3012 RMK SLP115 10325 20220 53027;EQDQ01+000000PRSWM2N01 00000JPWTH 0QNNE71D0 00000F71 0 00000G71U0 99999L71 0 02500N71 0 00000Q71 0 10115S71D0 00072R71 0 00220V71D0 00099U71 0 00099X71 0 32011
0272724855231532000081209503+38067-117083FM-15+1655TPH  V0203505N003152200059N0400005N1+01405-01501101355ADDGF100995999999999999999999MA1102101999999MW1001REMMET054KTPH 120950Z 35006KT 25SM SKC 14/M15 A3015 RMK SLP135;EQDQ01+000000PRSWM2N01 00000JPWTH 0QNNE71D0 00000F71 0 00000G71U0 99999L71 0 02500N71 0 00000Q71 0 10135S71D0 00057R71 0 00140V71D0 00099U71 0 00099X71 0 35006
0218724855231532000081623154+38050-117070FM-16+1654KTPH V0201101N008712200019N0643731N1+02701+01401999999ADDGA1999+030001091GD12991+0300019GF104991999999999999999999MA1102201999999MW1801MW2951REMMET087KTPH 162315Z 11017KT 40SM -TSRA SCT100CB 27/14 A3018 RMK OCNL LTCCG VC W TSB12 VC W-NE;EQDQ01+000003PRSWM1Q02    003PRSWM1
0319724855231532000082020503+38067-117083FM-15+1655TPH  V0202905N003652200059N0800005N1+03005-00301101305ADDGF100995999999999999999999MA1102101999999MD1710081+9999MW1001REMMET060KTPH 202050Z 29007KT 50SM SKC 30/M03 A3015 RMK SLP130 57008;EQDQ01+000000PRSWM2N01 00500DHZVS 2N02 00000JPWTH 0QNNE71D0 00000F71 0 00000G71U0 99999L71 2 00500L71 0 05000N71 0 00000Q71 0 10130S71D0 00086R71 0 00300V71D0 00099U71 0 00099X71 0 29007
0071724855231532000082201009+38067-117083NSRDB+165599999V020999999999999999999999999999+99999+99999999999ADDGP10060039102008081102015007202008GQ100600668926699GR100600525913369
0054724855231532000082305009+38067-117083NSRDB+165599999V020999999999999999999999999999+99999+99999999999ADDGP10060000002000000002000000002000GR100600000900009
0071724855231532000082601009+38067-117083NSRDB+165599999V020999999999999999999999999999+99999+99999999999ADDGP10060039202008071102015012402008GQ100600679926599GR100600503913389
0382724855231532000082613503+38067-117083FM-15+1655TPH  V0203505N003652200059N0800005N1+01505+01405101585ADDGD11995+0270019GD22995+0450019GF103995999999999999999999MA1102171999999MW1001REMMET063KTPH 261350Z 35007KT 50SM FEW090 SCT150 15/14 A3017 RMK SLP158;EQDQ01+000000PRSWM2N01 00500DHZVS 2N02 00000JPWTH 0QNNE71D0 00299F71 0 00199E71D0 00299F71 0 00299G71U0 99999K71D0 00057J71 0 00140L71 2 00500L71 0 05000N71 0 00000Q71 0 10158S71D0 00059R71 0 00150V71D0 00499U71 0 00399X71 0 35007
0351724855231532000082711503+38067-117083FM-15+1655TPH  V0203505N005752200059N0400005N1+01305+01005101195ADDGF100995999999999999999999KA1999M+01741KA2999N+01271MA1101831999999MD1810071+9999MW1001REMMET071KTPH 271150Z 35011KT 25SM SKC 13/10 A3007 RMK SLP119 10174 20127 58007;EQDQ01+000000PRSWM2N01 00000JPWTH 0QNNE71D0 00000F71 0 00000G71U0 99999K71D0 00050J71 0 00100L71 0 02500N71 0 00000Q71 0 10119S71D0 00055R71 0 00130V71D0 00099U71 0 00099X71 0 35011
0071724855231532000082719009+38067-117083NSRDB+165599999V020999999999999999999999999999+99999+99999999999ADDGP10060088802008097202015007802008GQ100600336914299GR100601114913399
0311724855231532000082909503+38067-117083FM-15+1655TPH  V0209999C000052200059N0400005N1+01705+01205101245ADDGD12995+0360019GF103995999999999999999999MA1102001999999MW1001REMMET056KTPH 290950Z 00000KT 25SM SCT120 17/12 A3012 RMK SLP124;EQDQ01+000000PRSWM2N01 00000JPWTH 0QNNE71D0 00299F71 0 00299G71U0 99999K71D0 00054J71 0 00120L71 0 02500N71 0 00000Q71 0 10124S71D0 00063R71 0 00170V71D0 00499U71 0 00399X71 0 00000
0071724855231532000083115009+38067-117083NSRDB+165599999V020999999999999999999999999999+99999+99999999999ADDGP10060018302008068002015002602008GQ100600766908979GR100600310913429
0338724855231532000083116503+38067-117083FM-15+1655TPH  V0201505N003652200059N0480005N1+01705+01205101375ADDGD11995+0060019GF101995999999999999999999MA1101831999999MW1001REMMET056KTPH 311650Z 15007KT 30SM FEW020 17/12 A3007 RMK SLP137;EQDQ01+000000PRSWM2N01 00300DHZVS 2N02 00000JPWTH 0QNNE71D0 00299F71 0 00199G71U0 99999K71D0 00054J71 0 00120L71 2 00300L71 0 03000N71 0 00000Q71 0 10137S71D0 00063R71 0 00170V71D0 00199U71 0 00199X71 0 15007
0071724855231532000090423009+38067-117083NSRDB+165599999V020999999999999999999999999999+99999+99999999999ADDGP10060068502008085802015011402008GQ100600483924009GR100600893913449
0071724855231532000090515009+38067-117083NSRDB+165599999V020999999999999999999999999999+99999+99999999999ADDGP10060017402008069602015002202008GQ100600774909159GR100600293913459
0071724855231532000090523009+38067-117083NSRDB+165599999V020999999999999999999999999999+99999+99999999999ADDGP10060070002008092102015009102008GQ100600487923989GR100600887913459
0071724855231532000090802009+38067-117083NSRDB+165599999V020999999999999999999999999999+99999+99999999999ADDGP10060000002008000002015000002008GQ100600832927209GR100600159913469
0054724855231532000091013009+38067-117083NSRDB+165599999V020999999999999999999999999999+99999+99999999999ADDGP10060000002000000002000000002000GR100600000900009
0071724855231532000091103009+38067-117083NSRDB+165599999V020999999999999999999999999999+99999+99999999999ADDGP10060000002008000002015000002008GQ100600898927609GR100600000900349
0433724855231532000091207596+38051-117090SOD  +1656KTPH V020999999999999999999999999999+99999+99999999999ADDAA124000095AJ100009599999999AL12400095AN1024000095KA1240M+02835KA2240N+00895OE11249999999999997OE22249999999999997REMSOD30724 HR PRECIPITATION (IN): 0.00 SNOW DEPTH (IN):  0   24 HR SNOWFALL (IN): 0.0 24 HR MAX TEMP (F): 8324 HR MIN TEMP (F): 4824 HR AVG TEMP (F): 66HOURLY INCREMENTAL PRECIPITATION VALUES (IN):.00  .00  .00  .00  .00  .00  .00  .00  .00  .00  .00  .00  .00  .00  .00  .00  .00  .00  .00  .00  .00  .00  .00  .00
0348724855231532000091217503+38067-117083FM-15+1655TPH  V0209999C000052200059N0800005N1+02405-00501101825ADDGD11995+0750019GF101995999999999999999999KA1999M+02421KA2999N+00931MA1102441999999MD1010051+9999MW1001REMMET075KTPH 121750Z 00000KT 50SM FEW250 24/M05 A3025 RMK SLP182 10242 20093 50005;EQDQ01+000000PRSWM2N01 00000JPWTH 0QNNE71D0 00299F71 0 00199G71U0 99999L71 0 05000N71 0 00000Q71 0 10182S71D0 00075R71 0 00240V71D0 00199U71 0 00199X71 0 00000
0313724855231532000091321503+38067-117083FM-15+1655TPH  V0209999V003150762059N0800005N1+03105+00005101325ADDGD13995+9999999GF106995999999999999999999MA1102101999999MW1001REMMET058KTPH 132150Z VRB06KT 50SM BBKN250 31/M06 A3015 RMK SLP132;EQDQ01+000000PRSWM2N01 00000JPWTH 0QNNE71D0 00499F71 0 00499G71 0 00250K71D0 00032J71 0 00000L71 0 05000N71 0 00000Q71 0 10132S71D0 00088R71 0 00310V71D0 00899U71 0 00699X71 0 00006
0293724855231532000091616503+38067-117083FM-15+1655TPH  V0209999C000052200059N0800005N1+02505+00105101445ADDGF100995999999999999999999MA1102131999999MW1001REMMET053KTPH 161650Z 00000KT 50SM SKC 25/01 A3016 RMK SLP144;EQDQ01+000000PRSWM2N01 00000JPWTH 0QNNE71D0 00000F71 0 00000G71U0 99999K71D0 00034J71 0 00010L71 0 05000N71 0 00000Q71 0 10144S71D0 00077R71 0 00250V71D0 00099U71 0 00099X71 0 00000
0272724855231532000091715503+38067-117083FM-15+1655TPH  V0203505N003152200059N0800005N1+02105-00201101505ADDGF100995999999999999999999MA1102201999999MW1001REMMET054KTPH 171550Z 35006KT 50SM SKC 21/M02 A3018 RMK SLP150;EQDQ01+000000PRSWM2N01 00000JPWTH 0QNNE71D0 00000F71 0 00000G71U0 99999L71 0 05000N71 0 00000Q71 0 10150S71D0 00070R71 0 00210V71D0 00099U71 0 00099X71 0 35006
0301724855231532000092414503+38067-117083FM-15+1655TPH  V0200205N001552200059N0800005N1+00605-00801102405ADDGF100995999999999999999999MA1102611999999MD1110121+9999MW1001REMMET069KTPH 241450Z 02003KT 50SM SKC 06/M08 A3030 RMK SLP240 51012 ?       ;EQDQ01+000000PRSWM2N01 00000JPWTH 0QNNE71D0 00000F71 0 00000G71U0 99999L71 0 05000N71 0 00000Q71 0 10240S71D0 00043R71 0 00060V71D0 00099U71 0 00099X71 0 02003
0272724855231532000092513503+38067-117083FM-15+1655TPH  V0203405N002152200059N0800005N1+00305-01001102275ADDGF100995999999999999999999MA1102511999999MW1001REMMET054KTPH 251350Z 34004KT 50SM SKC 03/M10 A3027 RMK SLP227;EQDQ01+000000PRSWM2N01 00000JPWTH 0QNNE71D0 00000F71 0 00000G71U0 99999L71 0 05000N71 0 00000Q71 0 10227S71D0 00037R71 0 00030V71D0 00099U71 0 00099X71 0 34004
0071724855231532000092620009+38067-117083NSRDB+165599999V020999999999999999999999999999+99999+99999999999ADDGP10060078302008081102015016002008GQ100600399917639GR100601044913619
0272724855231532000092710503+38067-117083FM-15+1655TPH  V0203505N003152200059N0400005N1+01005-00701101675ADDGF100995999999999999999999MA1102201999999MW1001REMMET054KTPH 271050Z 35006KT 25SM SKC 10/M07 A3018 RMK SLP167;EQDQ01+000000PRSWM2N01 00000JPWTH 0QNNE71D0 00000F71 0 00000G71U0 99999L71 0 02500N71 0 00000Q71 0 10167S71D0 00050R71 0 00100V71D0 00099U71 0 00099X71 0 35006
0054724855231532000092905009+38067-117083NSRDB+165599999V020999999999999999999999999999+99999+99999999999ADDGP10060000002000000002000000002000GR100600000900009
0071724855231532000092915009+38067-117083NSRDB+165599999V020999999999999999999999999999+99999+99999999999ADDGP10060009902008055102015001702008GQ100600815910029GR100600202913639
0071724855231532000092923009+38067-117083NSRDB+165599999V020999999999999999999999999999+99999+99999999999ADDGP10060052302008062102015018402008GQ100600570923419GR100600742913639
0290724855231532000100401503+38067-117083FM-15+1655TPH  V0202805N001552200059N0400005N1+01905-00301101085ADDGD11995+0540019GF101995999999999999999999MA1101521999999MW1001REMMET057KTPH 040150Z 28003KT 25SM FEW180 19/M03 A2998 RMK SLP108;EQDQ01+000000PRSWM2N01 00000JPWTH 0QNNE71D0 00299F71 0 00199G71U0 99999L71 0 02500N71 0 00000Q71 0 10108S71D0 00066R71 0 00190V71D0 00199U71 0 00199X71 0 28003
0054724855231532000100504009+38067-117083NSRDB+165599999V020999999999999999999999999999+99999+99999999999ADDGP10060000002000000002000000002000GR100600000900009
0290724855231532000100801503+38067-117083FM-15+1655TPH  V0202605N003652200059N0560005N1+01805-00501101335ADDGD11995+0360019GF101995999999999999999999MA1101761999999MW1001REMMET057KTPH 080150Z 26007KT 35SM FEW120 18/M05 A3005 RMK SLP133;EQDQ01+000000PRSWM2N01 00000JPWTH 0QNNE71D0 00299F71 0 00199G71U0 99999L71 0 03500N71 0 00000Q71 0 10133S71D0 00064R71 0 00180V71D0 00199U71 0 00199X71 0 26007
0071724855231532000100820009+38067-117083NSRDB+165599999V020999999999999999999999999999+99999+99999999999ADDGP10060079802008102102015006702008GQ100600445917809GR100600978913709
0272724855231532000100915503+38067-117083FM-15+1655TPH  V0200605N001552200059N0800005N1+01405-00401101385ADDGF100995999999999999999999MA1101831999999MW1001REMMET054KTPH 091550Z 06003KT 50SM SKC 14/M04 A3007 RMK SLP138;EQDQ01+000000PRSWM2N01 00000JPWTH 0QNNE71D0 00000F71 0 00000G71U0 99999L71 0 05000N71 0 00000Q71 0 10138S71D0 00057R71 0 00140V71D0 00099U71 0 00099X71 0 06003
0311724855231532000101301503+38067-117083FM-15+1655TPH  V0203105N002152200059N0400005N1+00805+00005101885ADDGD12995+0240019GF104995999999999999999999MA1101961999999MW1001REMMET056KTPH 130150Z 31004KT 25SM SCT080 08/00 A3011 RMK SLP188;EQDQ01+000000PRSWM2N01 00000JPWTH 0QNNE71D0 00299F71 0 00299G71U0 99999K71D0 00032J71 0 00000L71 0 02500N71 0 00000Q71 0 10188S71D0 00046R71 0 00080V71D0 00599U71 0 00499X71 0 31004
0290724855231532000101512503+38067-117083FM-15+1655TPH  V0203505N001552200059N0400005N1+00105-00301101855ADDGD12995+0750019GF103995999999999999999999MA1102031999999MW1001REMMET057KTPH 151250Z 35003KT 25SM SCT250 01/M03 A3013 RMK SLP185;EQDQ01+000000PRSWM2N01 00000JPWTH 0QNNE71D0 00299F71 0 00299G71U0 99999L71 0 02500N71 0 00000Q71 0 10185S71D0 00034R71 0 00010V71D0 00499U71 0 00399X71 0 35003
0290724855231532000101607503+38067-117083FM-15+1655TPH  V0209999V002150609659N0400005N1+00605-00301101905ADDGD13995+0600019GF106995999999999999999999MA1102201999999MW1001REMMET057KTPH 160750Z VRB04KT 25SM BKN200 06/M03 A3018 RMK SLP190;EQDQ01+000000PRSWM2N01 00000JPWTH 0QNNE71D0 00499F71 0 00499G71 0 00200L71 0 02500N71 0 00000Q71 0 10190S71D0 00043R71 0 00060V71D0 00899U71 0 00699X71 0 00004
0054724855231532000101611009+38067-117083NSRDB+165599999V020999999999999999999999999999+99999+99999999999ADDGP10060000002000000002000000002000GR100600000900009
0071724855231532000101718009+38067-117083NSRDB+165599999V020999999999999999999999999999+99999+99999999999ADDGP10060059202008088702015009102008GQ100600558914239GR100600775913779
0054724855231532000101806009+38067-117083NSRDB+165599999V020999999999999999999999999999+99999+99999999999ADDGP10060000002000000002000000002000GR100600000900009
0071724855231532000102122009+38067-117083NSRDB+165599999V020999999999999999999999999999+99999+99999999999ADDGP10060030202008016702015020902008GQ100600563921529GR100600765913819
0290724855231532000102310503+38067-117083FM-15+1655TPH  V0203005N002150182959N0400005N1+00805-00201101665ADDGD14995+0180019GF108995999999999999999999MA1101931999999MW1001REMMET057KTPH 231050Z 30004KT 25SM OVC060 08/M02 A3010 RMK SLP166;EQDQ01+000000PRSWM2N01 00000JPWTH 0QNNE71D0 00699F71 0 00699G71 0 00060L71 0 02500N71 0 00000Q71 0 10166S71D0 00046R71 0 00080V71D0 01099U71 0 00899X71 0 30004
0071724855231532000102316009+38067-117083NSRDB+165599999V020999999999999999999999999999+99999+99999999999ADDGP10060021502008069402015003802008GQ100600753911819GR100600350913829
0369724855231532000102323523+38067-117083FM-15+1655TPH  V0201305N003150182959N0800005N1+01605+00205101435ADDGD13995+0180019GF107995999999999999999999KA1999M+01901KA2999N+01401MA1101761999999MD1310031+9999MW1001REMMET074KTPH 232352Z 13006KT 50SM BKN060 16/02 A3005 RMK SLP143 10190 20140 53003;EQDQ01+000000PRSWM2N01 00000JPWTH 0QNNE71D0 00499F71 0 00499G71 0 00060K71D0 00036J71 0 00020L71 0 05000N71 0 00000Q71 0 10143S71D0 00061R71 0 00160V71D0 00999U71 0 00799X71 0 13006
0071724855231532000102515009+38067-117083NSRDB+165599999V020999999999999999999999999999+99999+99999999999ADDGP10060000702008000002015000702008GQ100600856910939GR100600091911889
0054724855231532000103109009+38067-117083NSRDB+165599999V020999999999999999999999999999+99999+99999999999ADDGP10060000002000000002000000002000GR100600000900009
0208724855231532000110205514+38050-117070FM-15+1654KTPH V0203601N005112200019N0402331N1+00401-00301102021ADDGD12991+0360019GF102991999999999999999999KA1999M+01031KA2999N+00341MA1102101999999MD1310031+9999MW1001REMMET075KTPH 020551Z 36010KT 25SM FEW120 04/M03 A3015 RMK SLP202 10103 20034 53003;EQDQ01+000000PRSWM2
0133724855231532000110213504+38050-117070FM-15+1654KTPH V0200201N001512200019N0402331N1-00201-00401102091ADDGF100991999999999999999999MA1102071999999MW1001REMMET055KTPH 021350Z 02003KT 25SM SKC M02/M04 A3014 RMK SLP209;EQDQ01+000000PRSWM2
0152724855231532000110314504+38050-117070FM-15+1654KTPH V0203501N002112200019N0804671N1+00101-00501102251ADDGF100991999999999999999999MA1102271999999MD1210081+9999MW1001REMMET060KTPH 031450Z 35004KT 50SM SKC 01/M05 A3020 RMK SLP225 52008;EQDQ01+000000PRSWM2
0190724855231532000110417504+38050-117070FM-15+1654KTPH V0201101N002112200019N0804671N1+00701-00701102021ADDGF100991999999999999999999KA1999M+00721KA2999N-00301MA1102031999999MD1810081+9999MW1001REMMET072KTPH 041750Z 11004KT 50SM SKC 07/M07 A3013 RMK SLP202 10072 21030 58008;EQDQ01+000000PRSWM2
0183724855231532000110522504+38050-117070FM-15+1654KTPH V0203001N007712200019N0804671N1+01201-01401101041ADDGD12991+0240019GD22991+0360019GF104991999999999999999999MA1101291999999MW1001OC101231REMMET067KTPH 052250Z 30015G24KT 50SM FEW080 SCT120 12/M14 A2991 RMK SLP104;EQDQ01+000000PRSWM2
0150724855231532000110604504+38050-117070FM-15+1654KTPH V0203001N005712200019N0402331N1+00601-00901100961ADDGD12991+0450019GF104991999999999999999999MA1101151999999MW1001REMMET057KTPH 060450Z 30011KT 25SM SCT150 06/M09 A2987 RMK SLP096;EQDQ01+000000PRSWM2
0150724855231532000110716504+38050-117070FM-15+1654KTPH V0203501N006712200019N0804671N1+00201-01001102221ADDGD12991+0600019GF102991999999999999999999MA1102171999999MW1001REMMET057KTPH 071650Z 35013KT 50SM FEW200 02/M10 A3017 RMK SLP222;EQDQ01+000000PRSWM2
0071724855231532000110722009+38067-117083NSRDB+165599999V020999999999999999999999999999+99999+99999999999ADDGP10060049902008089802015006602008GQ100600613921259GR100600668913939
001572485523153200011120759O+38067-117083SOD  +165599999V020999999999999999999999999999+99999+99999999999ADDAT1MW18SN  1
0204724855231532000111303003+38050-117070FM-15+1654KTPH V0202901N006212200019N0402331N1-00101-01501102311ADDGF100991999999999999999999GP10060000002000000002000000002000GR100600000900009MA1101961999999MD1310021+9999MW1001REMMET061KTPH 130255Z 29012KT 25SM SKC M01/M15 A3011 RMK SLP231 53002;EQDQ01+000000PRSWM2
0071724855231532000111320009+38067-117083NSRDB+165599999V020999999999999999999999999999+99999+99999999999ADDGP10060058902008095702015005802008GQ100600564917929GR100600773913979
0054724855231532000111905009+38067-117083NSRDB+165599999V020999999999999999999999999999+99999+99999999999ADDGP10060000002000000002000000002000GR100600000900009
0054724855231532000111906009+38067-117083NSRDB+165599999V020999999999999999999999999999+99999+99999999999ADDGP10060000002000000002000000002000GR100600000900009
0071724855231532000112015009+38067-117083NSRDB+165599999V020999999999999999999999999999+99999+99999999999ADDGP10060000002008000002015000002008GQ100600882911699GR100600018905499
0054724855231532000112210009+38067-117083NSRDB+165599999V020999999999999999999999999999+99999+99999999999ADDGP10060000002000000002000000002000GR100600000900009
0133724855231532000112409504+38050-117070FM-15+1654KTPH V0203601N002612200019N0402331N1+00001-00801102301ADDGF100991999999999999999999MA1102341999999MW1001REMMET055KTPH 240950Z 36005KT 25SM SKC M00/M08 A3022 RMK SLP230;EQDQ01+000000PRSWM2
0054724855231532000112510009+38067-117083NSRDB+165599999V020999999999999999999999999999+99999+99999999999ADDGP10060000002000000002000000002000GR100600000900009
0172724855231532000112621504+38050-117070FM-15+1654KTPH V0202601N003610540019N0804671N1+01101-00401102081ADDGD12991+0450019GD23991+0540019GF107991999999999999999999MA1102101999999MW1001REMMET064KTPH 262150Z 26007KT 50SM FEW150 BKN180 11/M04 A3015 RMK SLP208;EQDQ01+000000PRSWM2
0208724855231532000112917504+38050-117070FM-15+1654KTPH V0201701N005112200019N0804671N1+00901-00401101561ADDGD12991+0600019GF102991999999999999999999KA1999M+00901KA2999N-00271MA1101661999999MD1610081+9999MW1001REMMET075KTPH 291750Z 17010KT 50SM FEW200 09/M04 A3002 RMK SLP156 10090 21027 56008;EQDQ01+000000PRSWM2
0381724855231532000120409003+38067-117083FM-15+1655TPH  V0203505N00465220005MN0160005N1-00175-01005102645ADDGF100991999999999999999999GP10060000002000000002000000002000GR100600000900009MA1102715999999MD1010021+9999MW1001REMMET087KTPH 040856Z AUTO 35009KT 10SM CLR M02/M10 A3033 RMK AO2 SLP264 T10171100 50002 FZRANO;EQDQ01+000000PRSWM2N01 00000JPWTH 0QNNAA1D0 00000BA1 0 00000GA1U0 99999KA1D0 00014JA1 0-00100LA1 0 01000CA1 0 03033NA1 0 00000QA1 0 10264SA1D0 00029RA1 0-00017YA1 0 35009
0370724855231532000120620003+38067-117083FM-15+1655TPH  V0201705N00265220005MN0160005N1+00895-00835102715ADDGF100991999999999999999999GP10060050702008072702015015102008GQ100600608917759GR100600687914099MA1102785999999MW1001REMMET073KTPH 061956Z AUTO 17005KT 10SM CLR 09/M08 A3035 RMK AO2 SLP271 T00891083;EQDQ01+000000PRSWM2N01 00000JPWTH 0QNNAA1D0 00000BA1 0 00000GA1U0 99999KA1D0 00017JA1 0-00083LA1 0 01000CA1 0 03035NA1 0 00000QA1 0 10271SA1D0 00048RA1 0 00089YA1 0 17005
0381724855231532000120709003+38067-117083FM-15+1655TPH  V0203505N00415220005MN0160005N1-00065-01005102285ADDGF100991999999999999999999GP10060000002000000002000000002000GR100600000900009MA1102345999999MD1810111+9999MW1001REMMET087KTPH 070856Z AUTO 35008KT 10SM CLR M01/M10 A3022 RMK AO2 SLP228 T10061100 58011 FZRANO;EQDQ01+000000PRSWM2N01 00000JPWTH 0QNNAA1D0 00000BA1 0 00000GA1U0 99999KA1D0 00014JA1 0-00100LA1 0 01000CA1 0 03022NA1 0 00000QA1 0 10228SA1D0 00031RA1 0-00006YA1 0 35008
0361724855231532000121904003+38067-117083FM-15+1655TPH  V0203405N00525220005MN0160005N1-00505-02285103805ADDGF100991999999999999999999GP10060000002000000002000000002000GR100600000900009MA1103395999999MW1001REMMET081KTPH 190356Z AUTO 34010KT 10SM CLR M05/M23 A3053 RMK AO2 SLP380 T10501228 FZRANO;EQDQ01+000000PRSWM2N01 00000JPWTH 0QNNAA1D0 00000BA1 0 00000GA1U0 99999KA1D0-00009JA1 0-00228LA1 0 01000CA1 0 03053NA1 0 00000QA1 0 10380SA1D0 00023RA1 0-00050YA1 0 34010
0370724855231532000122420003+38067-117083FM-15+1655TPH  V0203105N00825220005MN0160005N1+00835-00615101965ADDGF100991999999999999999999GP10060051402009097702021004902009GQ100600617917539GR100600670914149MA1102005999999MW1001REMMET073KTPH 241956Z AUTO 31016KT 10SM CLR 08/M06 A3012 RMK AO2 SLP196 T00831061;EQDQ01+000000PRSWM2N01 00000JPWTH 0QNNAA1D0 00000BA1 0 00000GA1U0 99999KA1D0 00021JA1 0-00061LA1 0 01000CA1 0 03012NA1 0 00000QA1 0 10196SA1D0 00047RA1 0 00083YA1 0 31016
0423724855231532000122618003+38067-117083FM-15+1655TPH  V0200605N00265220005MN0160005N1+00005-01115103365ADDGF100991999999999999999999GP10060033602009085702021003602009GQ100600696914619GR100600493914159KA1999M+00001KA2999N-00831MA1103155999999MD1310121+9999MW1001REMMET086KTPH 261756Z 06005KT 10SM CLR 00/M11 A3046 RMK AO2 SLP336 T00001111 10000 21083 53012;EQDQ01+000000PRSWM2N01 00000JPWTH 0QNNAA1D0 00000BA1 0 00000GA1U0 99999KA1D0 00012JA1 0-00111LA1 0 01000CA1 0 03046NA1 0 00000QA1 0 10336SA1D0 00032RA1 0 00000YA1 0 06005
0370724855231532000123123003+38067-117083FM-15+1655TPH  V0209999C00005220005MN0160005N1+01065-01115102115ADDGF100991999999999999999999GP10060035002009089602021006502009GQ100600715921819GR100600448914159MA1102105999999MW1001REMMET073KTPH 312256Z AUTO 00000KT 10SM CLR 11/M11 A3015 RMK AO2 SLP211 T01061111;EQDQ01+000000PRSWM2N01 00000JPWTH 0QNNAA1D0 00000BA1 0 00000GA1U0 99999KA1D0 00012JA1 0-00111LA1 0 01000CA1 0 03015NA1 0 00000QA1 0 10211SA1D0 00051RA1 0 00106YA1 0 00000
0250724860231542000010205534+39280-114850FM-15+1909KELY V0203001N004610210019N0160931N1-00101-01301100801ADDGD13991+0210019GD24991+0270019GF108991999999999999999999KA1999M+00391KA2999N-00111MA1100851999999MD1310121+9999MW1001REMMET102KELY 020553Z AUTO 30009KT 10SM BKN070 OVC090 M01/M13 A2978 RMK AO2 SLP080 T10061133 10039 21011 53012;EQDQ01+000000PRSWM2
033272486023154200001031853C+39300-114850FM-15+1909ELY  V0200805N00215012195MN0160005N1-00225-00945103145ADDAA101000095GD14995+0121959GF108991999999999999999999MA1102915999999MW1001REMMET077KELY 031853Z AUTO 08004KT 10SM OVC040 M02/M09 A3039 RMK AO2 SLP314 T10221094;EQDQ01+000000PRSWM2N01 00000JPWTH 0QNNAA1D0 06040BA1 0 06040GA1 0 00040KA1D0 00015JA1 0-00094LA1 0 01000CA1 0 03039NA1 0 00000QA1 0 10314SA1D0 00028RA1 0-00022YA1 0 08004
0054724860231542000010502009+39300-114850NSRDB+190999999V020999999999999999999999999999+99999+99999999999ADDGP10060000002000000002000000002000GR100600000900009
037872486023154200001071053C+39300-114850FM-15+1909ELY  V0202005N00265033535MN0160005N1-00835-01675102875ADDAA101000095GD12995+0274359GD24995+0335359GF108991999999999999999999MA1102715999999MW1001REMMET086KELY 071053Z AUTO 20005KT 10SM SCT090 OVC110 M08/M17 A3033 RMK AO2 SLP287 T10831167 $;EQDQ01+000000PRSWM2N01 00000JPWTH 0QNNAA1D0 02090BA1 0 02090AA1D0 06110BA1 0 06110GA1 0 00110KA1D0 00002JA1 0-00167LA1 0 01000CA1 0 03033NA1 0 00000QA1 0 10287SA1D0 00017RA1 0-00083YA1 0 20005
032072486023154200001101953C+39300-114850FM-15+1909ELY  V0201805N00365220005MN0160005N1+00835-00505101315ADDAA101000095GF100991999999999999999999MA1101525999999MW1001REMMET080KELY 101953Z AUTO 18007KT 10SM CLR 08/M05 A2998 RMK AO2 PRESFR SLP131 T00831050;EQDQ01+000000PRSWM2N01 00000JPWTH 0QNNAA1D0 00000BA1 0 00000GA1U0 99999KA1D0 00023JA1 0-00050LA1 0 01000CA1 0 02998NA1 0 00000QA1 0 10131SA1D0 00047RA1 0 00083YA1 0 18007
0459724860231542000011106003+39300-114850SY-MT+1909ELY  V0202005N00365220005MN0160005N1+00445-00945101115ADDAA101000095AA206000091GA1001+999999999GD10995+9999999GF100991001001999999001001GP10060000002000000002000000002000GR100600000900009KA1240M+00941KA2240N-00211MA1101425080491MD1810041+9999REMSYN092AAXX  11064 72486 35966 02007 10044 21094 38049 40111 58004 90553 333 10094 21021 555 91106;EQDQ01  00002PRCP06N01 00000JPWTH 0QNNAA1D0 00000BA1 0 00000GA1U0 99999KA1D0 00015JA1 0-00094LA1 0 01000CA1 0 02995NA1 0 00000QA1 0 10111SA1D0 00040RA1 0 00044YA1 0 20007
031372486023154200001122253C+39300-114850FM-15+1909ELY  V0202605N00465220005MN0160005N1+00895-01895101825ADDAA101000095GF100991999999999999999999MA1101905999999MW1001REMMET073KELY 122253Z AUTO 26009KT 10SM CLR 09/M19 A3009 RMK AO2 SLP182 T00891189;EQDQ01+000000PRSWM2N01 00000JPWTH 0QNNAA1D0 00000BA1 0 00000GA1U0 99999KA1D0-00002JA1 0-00189LA1 0 01000CA1 0 03009NA1 0 00000QA1 0 10182SA1D0 00048RA1 0 00089YA1 0 26009
0054724860231542000011408009+39300-114850NSRDB+190999999V020999999999999999999999999999+99999+99999999999ADDGP10060000002000000002000000002000GR100600000900009
031672486023154200001151253C+39300-114850FM-15+1909ELY  V0201705N00155220005MN0160005N1-00115-01115102105ADDAA101000095GF100991999999999999999999MA1102245999999MW1001REMMET076KELY 151253Z AUTO 17003KT 10SM CLR M01/M11 A3019 RMK AO2 SLP210 T10111111 $;EQDQ01+000000PRSWM2N01 00000JPWTH 0QNNAA1D0 00000BA1 0 00000GA1U0 99999KA1D0 00012JA1 0-00111LA1 0 01000CA1 0 03019NA1 0 00000QA1 0 10210SA1D0 00030RA1 0-00011YA1 0 17003
0491724860231542000011618003+39300-114850SY-MT+1909ELY  V0201805N00985220005MN0160005N1+00945-00505101455ADDAA101000095GA1001+999999999GD10995+9999999GF100991001001999999001001GP10060022802009013802021017702009GQ100600685914529GR100600517914149KA1120M+00941KA2240N+00721MA1101965080941MD1310181+9999REMSYN102    AAXX  16184 72486 35966 01819 10094 21050 38094 40145 53018 91753 333 10094 20072 91026 555 91618;EQDQ01  00002PRCP99Q02  00003PRCP99N01 00000JPWTH 0QNNAA1D0 00000BA1 0 00000GA1U0 99999KA1D0 00023JA1 0-00050LA1 0 01000CA1 0 03011NA1 0 00000QA1 0 10145SA1D0 00049RA1 0 00094YA1 0 18019
033372486023154200001171053C+39300-114850FM-15+1909ELY  V0202105N00525220005MN0160005N1+00395-00225101875ADDAA101000095GD11995+0128059GF102991999999999999999999MA1102245999999MW1001REMMET078KELY 171053Z AUTO 21010KT 10SM FEW042 04/M02 A3019 RMK AO2 SLP187 T00391022 $;EQDQ01+000000PRSWM2N01 00000JPWTH 0QNNAA1D0 02042BA1 0 01042GA1U0 99999KA1D0 00028JA1 0-00022LA1 0 01000CA1 0 03019NA1 0 00000QA1 0 10187SA1D0 00039RA1 0 00039YA1 0 21010
0071724860231542000011723009+39300-114850NSRDB+190999999V020999999999999999999999999999+99999+99999999999ADDGP10060011502009000002021011502009GQ100600708921969GR100600464914149
033472486023154200001191353C+39300-114850FM-15+1909ELY  V0201705N00415010975MN0160005N1-00175-00225102355ADDAA101000095GD13995+0109759GF107991999999999999999999MA1102515999999MW1001REMMET079KELY 191353Z AUTO 17008KT 10SM BKN036 M02/M02 A3027 RMK AO2 SLP235 T10171022 $;EQDQ01+000000PRSWM2N01 00000JPWTH 0QNNAA1D0 04036BA1 0 04036GA1 0 00036KA1D0 00028JA1 0-00022LA1 0 01000CA1 0 03027NA1 0 00000QA1 0 10235SA1D0 00029RA1 0-00017YA1 0 17008
0054724860231542000012003009+39300-114850NSRDB+190999999V020999999999999999999999999999+99999+99999999999ADDGP10060000002000000002000000002000GR100600000900009
0481724860231542000012018003+39300-114850SY-MT+1909ELY  V0201805N00315220005MN0160005N1+00725+00175101855ADDAA101000095GA1001+999999999GD10995+9999999GF100991001001999999001001GP10060037102009064902021012602009GQ100600680914459GR100600530914139KA1120M+00721KA2240N+00001MA1102105081051MD1110051+9999REMSYN092AAXX  20184 72486 35966 01806 10072 20017 38105 40185 51005 91753 333 10072 20000 555 92018;EQDQ01  00002PRCP99Q02  00003PRCP99N01 00000JPWTH 0QNNAA1D0 00000BA1 0 00000GA1U0 99999KA1D0 00035JA1 0 00017LA1 0 01000CA1 0 03015NA1 0 00000QA1 0 10185SA1D0 00045RA1 0 00072YA1 0 18006
0071724860231542000012123009+39300-114850NSRDB+190999999V020999999999999999999999999999+99999+99999999999ADDGP10060038802009099702021004602009GQ100600700921989GR100600484914139
0054724860231542000012204009+39300-114850NSRDB+190999999V020999999999999999999999999999+99999+99999999999ADDGP10060000002000000002000000002000GR100600000900009
0071724860231542000012323009+39300-114850NSRDB+190999999V020999999999999999999999999999+99999+99999999999ADDGP10060022502009017602021016302009GQ100600695921999GR100600494914129
0071724860231542000012521009+39300-114850NSRDB+190999999V020999999999999999999999999999+99999+99999999999ADDGP10060014002009000002021014002009GQ100600591919059GR100600725914119
0054724860231542000012702009+39300-114850NSRDB+190999999V020999999999999999999999999999+99999+99999999999ADDGP10060000002000000002000000002000GR100600000900009
031472486023154200001290153C+39300-114850FM-15+1909ELY  V0201705N00415220005MN0160005N1-00785-01065102895ADDAA101000095GF100991999999999999999999MA1102345999999MW1001REMMET074KELY 290153Z AUTO 17008KT 10SM CLR M08/M11 A3022 RMK AO2 SLP289 T10781106;EQDQ01+000000PRSWM2N01 00000JPWTH 0QNNAA1D0 00000BA1 0 00000GA1U0 99999KA1D0 00013JA1 0-00106LA1 0 01000CA1 0 03022NA1 0 00000QA1 0 10289SA1D0 00018RA1 0-00078YA1 0 17008
0054724860231542000012905009+39300-114850NSRDB+190999999V020999999999999999999999999999+99999+99999999999ADDGP10060000002000000002000000002000GR100600000900009
0054724860231542000012907009+39300-114850NSRDB+190999999V020999999999999999999999999999+99999+99999999999ADDGP10060000002000000002000000002000GR100600000900009
0071724860231542000012920009+39300-114850NSRDB+190999999V020999999999999999999999999999+99999+99999999999ADDGP10060044102009029902021028002009GQ100600576917379GR100600755914109
0054724860231542000020608009+39300-114850NSRDB+190999999V020999999999999999999999999999+99999+99999999999ADDGP10060000002000000002000000002000GR100600000900009
0464724860231542000020712003+39300-114850SY-MT+1909ELY  V0201905N00415220005MN0160005N1-00565-00725103145ADDAA101000095GA1001+999999999GD10995+9999999GF100991001001999999001001GP10060000002000000002000000002000GR100600000900009KA1999M+01171KA2120N-00561MA1103225081981MD1310061+9999REMSYN092AAXX  07124 72486 35966 01908 11056 21072 38198 40314 53006 91153 333 10117 21056 555 90712;EQDQ01  00002PRCP99Q02  00003PRCP99N01 00000JPWTH 0QNNAA1D0 00000BA1 0 00000GA1U0 99999KA1D0 00019JA1 0-00072LA1 0 01000CA1 0 03048NA1 0 00000QA1 0 10314SA1D0 00022RA1 0-00056YA1 0 19008
041872486023154200002101853C+39300-114850FM-15+1909ELY  V0209999V00315018295MN0160005N1+00565+00115101095ADDAA101000095GD12995+0064059GD22995+0137259GD34995+0182959GF108991999999999999999999MA1101425999999MW1001REMMET089KELY 101853Z AUTO VRB06KT 10SM SCT021 SCT045 OVC060 06/01 A2995 RMK AO2 SLP109 T00560011;EQDQ01+000000PRSWM2N01 00000JPWTH 0QNNAA1D0 02021BA1 0 02021AA1D0 02045BA1 0 02045AA1D0 06060BA1 0 06060GA1 0 00060KA1D0 00034JA1 0 00011LA1 0 01000CA1 0 02995NA1 0 00000QA1 0 10109SA1D0 00042RA1 0 00056YA1 0 00006
036772486023154200002160753C+39300-114850FM-15+1909ELY  V0201905N00315033535MN0160005N1+00285-00785101825ADDAA101000095GD13995+0335359GF107991999999999999999999KA1999M+00781KA2999N-00611MA1102035999999MW1001REMMET086KELY 160753Z AUTO 19006KT 10SM BKN110 03/M08 A3013 RMK AO2 SLP182 T00281078 400781061;EQDQ01+000000PRSWM2N01 00000JPWTH 0QNNAA1D0 04110BA1 0 04110GA1 0 00110KA1D0 00018JA1 0-00078LA1 0 01000CA1 0 03013NA1 0 00000QA1 0 10182SA1D0 00037RA1 0 00028YA1 0 19006
0071724860231542000021719009+39300-114850NSRDB+190999999V020999999999999999999999999999+99999+99999999999ADDGP10060010102008000002015010102008GQ100600550915499GR100600803914019
