0201723447999992000041523003+36300-092470FM-15+0350KFLP V0201701N003112200019N0160931N1+02301+00901999999ADDGF100991999999999999999999GP10060040002008069102015009602008GQ100600640926339GR100600595913579MA1101251999999MW1001REMMET055KFLP 152255Z AUTO 17006KT 10SM CLR 23/09 A2990 RMK AO1;EQDQ01+000000PRSWM2
0202723447999992000042201003+36300-092470FM-15+0350KFLP V0202901N002112200019N0160931N1+01701-00101999999ADDGF100991999999999999999999GP10060001802008009702015001302008GQ100600856928219GR100600082910719MA1101761999999MW1001REMMET056KFLP 220055Z AUTO 29004KT 10SM CLR 17/M01 A3005 RMK AO1;EQDQ01+000000PRSWM2
0201723447999992000042223003+36300-092470FM-15+0350KFLP V0201701N001512200019N0160931N1+02501+00101999999ADDGF100991999999999999999999GP10060032302008027402015019802008GQ100600629926589GR100600615913529MA1100911999999MW1001REMMET055KFLP 222255Z AUTO 17003KT 10SM CLR 25/01 A2980 RMK AO1;EQDQ01+000000PRSWM2
0364723447999992000050300003+36300-092470FM-15+0350KFLP V0209999C000010138019N0064371N1+01701+01501999999ADDAA101001091AA206013291GD12991+0006019GD23991+0138019GD34991+0210019GF108991999999999999999999GP10060004302008000002015004302008GQ100600734927769GR100600383913449KA1999M+02101KA2999N+01701MA1101691999999MD1210031+9999MW1001REMMET111KFLP 022355Z AUTO 00000KT 4SM SCT002 BKN046 OVC070 17/15 A3003 RMK AO1 P0004 60052 10210 20170 402300120 52003;EQDQ01+000000PRSWM2
0201723447999992000050304003+36300-092470FM-15+0350KFLP V0209999C000010012019N0128741N1+01601+01401999999ADDGD14991+0012019GF108991999999999999999999GP10060000002000000002000000002000GR100600000900009MA1101691999999MW1001REMMET057KFLP 030355Z AUTO 00000KT 8SM OVC004 16/14 A3003 RMK AO1;EQDQ01+000000PRSWM2
0054723447999992000051003009+36300-092467NSRDB+035099999V020999999999999999999999999999+99999+99999999999ADDGP10060000002000000002000000002000GR100600000900009
0221723447999992000051015003+36300-092470FM-15+0350KFLP V0201401N002612200019N0160931N1+01601+00801999999ADDGF100991999999999999999999GP10060059502008070802015014702008GQ100600508909639GR100600844913399MA1101731999999MD1210101+9999MW1001REMMET061KFLP 101455Z AUTO 14005KT 10SM CLR 16/08 A3004 RMK AO1 52010;EQDQ01+000000PRSWM2
0184723447999992000051211003+36300-092470FM-15+0350KFLP V0209999C000012200019N0160931N1+02401+01801999999ADDGF100991999999999999999999GP10060000002000000002000000002000GR100600000900009MA1100471999999MW1001REMMET055KFLP 121055Z AUTO 00000KT 10SM CLR 24/18 A2967 RMK AO1;EQDQ01+000000PRSWM2
0201723447999992000052202003+36300-092470FM-15+0350KFLP V0209999C000012200019N0160931N1+01901+01401999999ADDGF100991999999999999999999GP10060000002008000002015000002008GQ100600890929529GR100600005903009MA1101421999999MW1001REMMET055KFLP 220155Z AUTO 00000KT 10SM CLR 19/14 A2995 RMK AO1;EQDQ01+000000PRSWM2
0183723447999992000060210003+36300-092470FM-15+0350KFLP V0209999C000012200019N0128741N1+02101+01801999999ADDGF100991999999999999999999GP10060000002000000002000000002000GR100600000900009MA1102071999999MW1001REMMET054KFLP 020955Z AUTO 00000KT 8SM CLR 21/18 A3014 RMK AO1;EQDQ01+000000PRSWM2
0241723447999992000061614003+36300-092470FM-15+0350KFLP V0201901N002110117019N0160931N1+02501+02001999999ADDGD13991+0117019GD24991+0138019GF108991999999999999999999GP10060019202008000602015018902008GQ100600609908119GR100600643913239MA1101021999999MW1001REMMET065KFLP 161355Z AUTO 19004KT 10SM BKN039 OVC046 25/20 A2983 RMK AO1;EQDQ01+000000PRSWM2
0219723447999992000061917003+36300-092470FM-15+0350KFLP V0209999C000010051019N0160931N1+02501+02101999999ADDGD14991+0051019GF108991999999999999999999GP10060022202008000602015021702008GQ100600254911409GR100601193913239MA1102101999999MW1001REMMET058KFLP 191655Z AUTO 00000KT 10SM OVC017 25/21 A3015 RMK AO1;EQDQ01+000000PRSWM2
0204723447999992000062003003+36300-092470FM-15+0350KFLP V0201501N001512200019N0160931N1+02401+02101999999ADDGF100991999999999999999999GP10060000002000000002000000002000GR100600000900009MA1101761999999MD1710071+9999MW1001REMMET061KFLP 200255Z AUTO 15003KT 10SM CLR 24/21 A3005 RMK AO1 57007;EQDQ01+000000PRSWM2
0183723447999992000062208003+36300-092470FM-15+0350KFLP V0209999C000012200019N0144841N1+01701+01501999999ADDGF100991999999999999999999GP10060000002000000002000000002000GR100600000900009MA1101731999999MW1001REMMET054KFLP 220755Z AUTO 00000KT 9SM CLR 17/15 A3004 RMK AO1;EQDQ01+000000PRSWM2
0366723447999992000062818003+36300-092470FM-15+0350KFLP V0200501N001510003019N0048281N1+01801+01601999999ADDAA101003391AA206007691GD13991+0003019GD23991+0018019GD34991+0093019GF108991999999999999999999GP10060015202008000002015015202008GQ100600163914299GR100601267913229KA1999M+01901KA2999N+01801MA1101961999999MD1210071+9999MW1001REMMET113KFLP 281755Z AUTO 05003KT 3SM BKN001 BKN006 OVC031 18/16 A3011 RMK AO1 LTG DSNT SW P0013 60030 10190 20180 52007;EQDQ01+000000PRSWM2
0296723447999992000070322003+36300-092470FM-15+0350KFLP V0201701N004612200019N0144841N1+03101+02201999999ADDAA101000891GD12991+0138019GF102991999999999999999999GP10060026002008002402015024302008GQ100600441926629GR100600947913219MA1101491999999MW1171OC100931REMMET100KFLP 032155Z AUTO 17009G18KT 130V200 9SM VCTS FEW046 31/22 A2997 RMK AO1 LTG DSNT ALQDS TSB25 P0003;EQDQ01+000003PRSWM1Q02    003PRSWM1
0204723447999992000070609003+36300-092470FM-15+0350KFLP V0202501N002112200019N0160931N1+02301+01901999999ADDGF100991999999999999999999GP10060000002000000002000000002000GR100600000900009MA1101461999999MD1710071+9999MW1001REMMET061KFLP 060855Z AUTO 25004KT 10SM CLR 23/19 A2996 RMK AO1 57007;EQDQ01+000000PRSWM2
0244723447999992000070803003+36300-092470FM-15+0350KFLP V0200701N002110141019N0160931N1+02801+02201999999ADDGD12991+0120019GD23991+0141019GF107991999999999999999999GP10060000002000000002000000002000GR100600000900009MA1101861999999MD1210141+9999MW1001REMMET071KFLP 080255Z AUTO 07004KT 10SM SCT040 BKN047 28/22 A3008 RMK AO1 52014;EQDQ01+000000PRSWM2
0221723447999992000070915003+36300-092470FM-15+0350KFLP V0201901N002112200019N0160931N1+02801+01901999999ADDGF100991999999999999999999GP10060056102008065902015014002008GQ100600503909009GR100600842913229MA1101801999999MD1710071+9999MW1001REMMET061KFLP 091455Z AUTO 19004KT 10SM CLR 28/19 A3006 RMK AO1 57007;EQDQ01+000000PRSWM2
0242723447999992000072106003+36300-092470FM-15+0350KFLP V0209999C000012200019N0160931N1+02201+01901999999ADDGF100991999999999999999999GP10060000002000000002000000002000GR100600000900009KA1999M+02801KA2999N+02201MA1101631999999MD1210031+9999MW1001REMMET073KFLP 210555Z AUTO 00000KT 10SM CLR 22/19 A3001 RMK AO1 10280 20220 52003;EQDQ01+000000PRSWM2
0154723447999992000072311003+36300-092470FM-15+0350KFLP V0209999C000012200019N0160931N1+01701+01501999999ADDGP10060000002000000002000000002000GR100600000900009MA1102131999999MW1001REMMET051KFLP 231055Z AUTO 00000KT 10SM 17/15 A3016 RMK AO1;EQDQ01+000000PRSWM2
0203723447999992000080109003+36300-092470FM-15+0350KFLP V0209999C000012200019N0080461N1+01901+01701999999ADDGF100991999999999999999999GP10060000002000000002000000002000GR100600000900009MA1101731999999MD1710031+9999MW1001REMMET060KFLP 010855Z AUTO 00000KT 5SM CLR 19/17 A3004 RMK AO1 57003;EQDQ01+000000PRSWM2
0184723447999992000080704003+36300-092470FM-15+0350KFLP V0202501N001512200019N0160931N1+02801+02101999999ADDGF100991999999999999999999GP10060000002000000002000000002000GR100600000900009MA1101351999999MW1001REMMET055KFLP 070355Z AUTO 25003KT 10SM CLR 28/21 A2993 RMK AO1;EQDQ01+000000PRSWM2
0201723447999992000081117003+36300-092470FM-15+0350KFLP V0200401N002112200019N0160931N1+03001+01801999999ADDGF100991999999999999999999GP10060079502008069402015020402008GQ100600317912589GR100601131913309MA1102031999999MW1001REMMET055KFLP 111655Z AUTO 04004KT 10SM CLR 30/18 A3013 RMK AO1;EQDQ01+000000PRSWM2
0183723447999992000081310003+36300-092470FM-15+0350KFLP V0209999C000012200019N0080461N1+01701+01401999999ADDGF100991999999999999999999GP10060000002000000002000000002000GR100600000900009MA1101661999999MW1001REMMET054KFLP 130955Z AUTO 00000KT 5SM CLR 17/14 A3002 RMK AO1;EQDQ01+000000PRSWM2
0200723447999992000083116003+36300-092470FM-15+0350KFLP V0209999C000012200019N0144841N1+03201+01701999999ADDGF100991999999999999999999GP10060062602008067402015015602008GQ100600459911779GR100600933913429MA1101461999999MW1001REMMET054KFLP 311555Z AUTO 00000KT 9SM CLR 32/17 A2996 RMK AO1;EQDQ01+000000PRSWM2
0200723447999992000083117003+36300-092470FM-15+0350KFLP V0200201N002612200019N0144841N1+03601+01801999999ADDGF100991999999999999999999GP10060073402008065202015020602008GQ100600361913509GR100601082913429MA1101421999999MW1001REMMET054KFLP 311655Z AUTO 02005KT 9SM CLR 36/18 A2995 RMK AO1;EQDQ01+000000PRSWM2
0203723447999992000090709003+36300-092470FM-15+0350KFLP V0209999C000012200019N0112651N1+01901+01301999999ADDGF100991999999999999999999GP10060000002000000002000000002000GR100600000900009MA1101801999999MD1710071+9999MW1001REMMET060KFLP 070855Z AUTO 00000KT 7SM CLR 19/13 A3006 RMK AO1 57007;EQDQ01+000000PRSWM2
0219723447999992000090913003+36300-092470FM-15+0350KFLP V0201001N001510048019N0160931N1+02201+01801999999ADDGD14991+0048019GF108991999999999999999999GP10060004002008000002015004002008GQ100600822908939GR100600182913489MA1101661999999MW1001REMMET058KFLP 091255Z AUTO 10003KT 10SM OVC016 22/18 A3002 RMK AO1;EQDQ01+000000PRSWM2
0260723447999992000091120003+36300-092470FM-15+0350KFLP V0201801N004612200019N0160931N1+03401+01801999999ADDGD12991+0111019GD22991+0150019GF104991999999999999999999GP10060075402008076502015014702008GQ100600376921569GR100601069913499MA1101121999999MW1001OC100821REMMET076KFLP 111955Z AUTO 18009G16KT 120V220 10SM FEW037 SCT050 34/18 A2986 RMK AO1;EQDQ01+000000PRSWM2
0184723447999992000091811003+36300-092470FM-15+0350KFLP V0209999C000012200019N0160931N1+00901+00401999999ADDGF100991999999999999999999GP10060000002000000002000000002000GR100600000900009MA1101901999999MW1001REMMET055KFLP 181055Z AUTO 00000KT 10SM CLR 09/04 A3009 RMK AO1;EQDQ01+000000PRSWM2
0204723447999992000092303003+36300-092470FM-15+0350KFLP V0201701N001512200019N0160931N1+02701+01801999999ADDGF100991999999999999999999GP10060000002000000002000000002000GR100600000900009MA1100951999999MD1210201+9999MW1001REMMET061KFLP 230255Z AUTO 17003KT 10SM CLR 27/18 A2981 RMK AO1 52020;EQDQ01+000000PRSWM2
0280723447999992000092313003+36300-092470FM-15+0350KFLP V0202401N001510135019N0160931N1+01901+01601999999ADDAA101001091GD12991+0006019GD22991+0093019GD33991+0135019GF107991999999999999999999GP10060000002008000002015000002008GQ100600843909449GR100600133913479MA1101221999999MW1001REMMET078KFLP 231255Z AUTO 24003KT 10SM FEW002 FEW031 BKN045 19/16 A2989 RMK AO1 P0004;EQDQ01+000000PRSWM2
0293723447999992000092418003+36300-092470FM-15+0350KFLP V0200101N003110009019N0112651N1+01901+01601999999ADDAA106002391GD14991+0009019GF108991999999999999999999GP10060020102008000002015020102008GQ100600380916719GR100601071913599KA1999M+02101KA2999N+01901MA1101251999999MD1710101+9999MW1001REMMET081KFLP 241755Z AUTO 01006KT 7SM OVC003 19/16 A2990 RMK AO1 60009 10210 20190 57010;EQDQ01+000000PRSWM2
0184723447999992000092611003+36300-092470FM-15+0350KFLP V0209999C000012200019N0160931N1+00501+00201999999ADDGF100991999999999999999999GP10060000002000000002000000002000GR100600000900009MA1102441999999MW1001REMMET055KFLP 261055Z AUTO 00000KT 10SM CLR 05/02 A3025 RMK AO1;EQDQ01+000000PRSWM2
0269723447999992000100200003+36300-092470FM-15+0350KFLP V0201601N002112200019N0160931N1+02501+00701999999ADDGF100991999999999999999999GP10060002902008014502015001902008GQ100600852926219GR100600098911719KA1999M+02901KA2999N+02501MA1101121999999MD1710071+9999MW1001REMMET083KFLP 012355Z AUTO 16004KT 10SM CLR 25/07 A2986 RMK AO1 10290 20250 402900110 57007;EQDQ01+000000PRSWM2
0270723447999992000101000003+36300-092470FM-15+0350KFLP V0209999C000012200019N0160931N1+01201-00401999999ADDGF100991999999999999999999GP10060000702008004602015000602008GQ100600864925929GR100600058909259KA1999M+01601KA2999N+01201MA1103081999999MD1710171+9999MW1001REMMET084KFLP 092355Z AUTO 00000KT 10SM CLR 12/M04 A3044 RMK AO1 10160 20120 401601030 57017;EQDQ01+000000PRSWM2
0261723447999992000101521003+36300-092470FM-15+0350KFLP V0209999C000012200019N0160931N1+02301+01401999999ADDGD12991+0123019GD22991+0360019GF102991999999999999999999GP10060050202008060202015018202008GQ100600580922669GR100600729913769MA1101931999999MD1710171+9999MW1001REMMET071KFLP 152055Z AUTO 00000KT 10SM FEW041 FEW120 23/14 A3010 RMK AO1 57017;EQDQ01+000000PRSWM2
0280723447999992000101700003+36300-092470FM-15+0350KFLP V0202601N004112200019N0160931N1+01901+01201999999ADDGF100991999999999999999999GP10060000002008000002015000002008GQ100600873925669GR100600033907009KA1999M+02401KA2999N+01901MA1101631999999MD1210241+9999MW1001OC100821REMMET086KFLP 162355Z AUTO 26008G16KT 10SM CLR 19/12 A3001 RMK AO1 10240 20190 402400160 52024;EQDQ01+000000PRSWM2
0200723447999992000102017003+36300-092470FM-15+0350KFLP V0209999C000012200019N0080461N1+02001+01001999999ADDGF100991999999999999999999GP10060061302008076802015012802008GQ100600511915309GR100600866913809MA1102171999999MW1001REMMET054KFLP 201655Z AUTO 00000KT 5SM CLR 20/10 A3017 RMK AO1;EQDQ01+000000PRSWM2
0183723447999992000102604003+36300-092470FM-15+0350KFLP V0209999C000012200019N0144841N1+01701+01001999999ADDGF100991999999999999999999GP10060000002000000002000000002000GR100600000900009MA1101961999999MW1001REMMET054KFLP 260355Z AUTO 00000KT 9SM CLR 17/10 A3011 RMK AO1;EQDQ01+000000PRSWM2
0133723447999992000110306354+36300-092470FM-15+0350KFLP V0209999C000012200019N0160931N1+01201+00901999999ADDGF100991999999999999999999MA1102171999999MW1001REMMET055KFLP 030635Z AUTO 00000KT 10SM CLR 12/09 A3017 RMK AO1;EQDQ01+000000PRSWM2
0071723447999992000110523009+36300-092467NSRDB+035099999V020999999999999999999999999999+99999+99999999999ADDGP10060002802008000002015002802008GQ100600834924469GR100600160913929
0180723447999992000110822354+36300-092470FM-15+0350KFLP V0203501N003610018019N0032181N1+00401+00201999999ADDGD13991+0018019GD24991+0033019GF108991999999999999999999MA1100881999999MW1001REMMET072KFLP 082235Z AUTO 35007KT 330V040 2SM BKN006 OVC011 04/02 A2979 RMK AO1;EQDQ01+000000PRSWM2
0054723447999992000111410009+36300-092467NSRDB+035099999V020999999999999999999999999999+99999+99999999999ADDGP10060000002000000002000000002000GR100600000900009
0071723447999992000111500009+36300-092467NSRDB+035099999V020999999999999999999999999999+99999+99999999999ADDGP10060000002000000002000000002000GQ100600899924729GR100600000900129
0054723447999992000111904009+36300-092467NSRDB+035099999V020999999999999999999999999999+99999+99999999999ADDGP10060000002000000002000000002000GR100600000900009
0054723447999992000112010009+36300-092467NSRDB+035099999V020999999999999999999999999999+99999+99999999999ADDGP10060000002000000002000000002000GR100600000900009
0133723447999992000112822354+36300-092470FM-15+0350KFLP V0200801N001512200019N0160931N1+01401+00101999999ADDGF100991999999999999999999MA1101801999999MW1001REMMET055KFLP 282235Z AUTO 08003KT 10SM CLR 14/01 A3006 RMK AO1;EQDQ01+000000PRSWM2
0054723447999992000112909009+36300-092467NSRDB+035099999V020999999999999999999999999999+99999+99999999999ADDGP10060000002000000002000000002000GR100600000900009
0054723447999992000113008009+36300-092467NSRDB+035099999V020999999999999999999999999999+99999+99999999999ADDGP10060000002000000002000000002000GR100600000900009
0134723447999992000113017354+36300-092470FM-15+0350KFLP V0200901N001512200019N0160931N1+00601-00301999999ADDGF100991999999999999999999MA1102741999999MW1001REMMET056KFLP 301735Z AUTO 09003KT 10SM CLR 06/M03 A3034 RMK AO1;EQDQ01+000000PRSWM2
0134723447999992000120320354+36300-092470FM-15+0350KFLP V0201401N002112200019N0160931N1+00401-00801999999ADDGF100991999999999999999999MA1103291999999MW1001REMMET056KFLP 032035Z AUTO 14004KT 10SM CLR 04/M08 A3050 RMK AO1;EQDQ01+000000PRSWM2
0054723447999992000120402009+36300-092467NSRDB+035099999V020999999999999999999999999999+99999+99999999999ADDGP10060000002000000002000000002000GR100600000900009
0173723447999992000120622354+36300-092470FM-15+0350KFLP V0202501N001510042019N0144841N1+00101-00201999999ADDGD13991+0042019GD24991+0060019GF108991999999999999999999MA1102171999999MW1001REMMET065KFLP 062235Z AUTO 25003KT 9SM BKN014 OVC020 01/M02 A3017 RMK AO1;EQDQ01+000000PRSWM2
0150723447999992000121017354+36300-092470FM-15+0350KFLP V0209999C000010126019N0080461N1+00601+00301999999ADDGD14991+0126019GF108991999999999999999999MA1101961999999MW1001REMMET057KFLP 101735Z AUTO 00000KT 5SM OVC042 06/03 A3011 RMK AO1;EQDQ01+000000PRSWM2
0172723447999992000121206354+36300-092470FM-15+0350KFLP V0200201N005112200019N0160931N1-01101-01601999999ADDGD12991+0039019GF102991999999999999999999MA1102911999999MW1001OC100871REMMET071KFLP 120635Z AUTO 02010G17KT 310V090 10SM FEW013 M11/M16 A3039 RMK AO1;EQDQ01+000000PRSWM2
0071723447999992000121219009+36300-092467NSRDB+035099999V020999999999999999999999999999+99999+99999999999ADDGP10060042202009044302021019802009GQ100600599918699GR100600709914129
0054723447999992000121411009+36300-092467NSRDB+035099999V020999999999999999999999999999+99999+99999999999ADDGP10060000002000000002000000002000GR100600000900009
0054723447999992000121612009+36300-092467NSRDB+035099999V020999999999999999999999999999+99999+99999999999ADDGP10060000002000000002000000002000GR100600000900009
0135723447999992000122214354+36300-092470FM-15+0350KFLP V0209999C000012200019N0160931N1-01201-01801999999ADDGF100991999999999999999999MA1103391999999MW1001REMMET057KFLP 221435Z AUTO 00000KT 10SM CLR M12/M18 A3053 RMK AO1;EQDQ01+000000PRSWM2
0054723447999992000122401009+36300-092467NSRDB+035099999V020999999999999999999999999999+99999+99999999999ADDGP10060000002000000002000000002000GR100600000900009
0101723447999992000123001354+36300-092470FM-16+0350KFLP V02099999999992200019N9999999N1+99999+99999999999ADDMA1102511999999MW1001REMMET049KFLP 300135Z AUTO 10SM CLR M07/M14 A3027 RMK AO1;EQDQ01+000000PRSWM2
0104723447999992000123011354+36300-092470FM-16+0350KFLP V02099999999992200019N9999999N1+99999+99999999999ADDMA1102511999999MW1001REMMET052KFLP 301135Z AUTO 10SM FEW022 M09/M14 A3027 RMK AO1;EQDQ01+000000PRSWM2
0101723447999992000123015354+36300-092470FM-16+0350KFLP V02099999999992200019N9999999N1+99999+99999999999ADDMA1102711999999MW1001REMMET049KFLP 301535Z AUTO 10SM CLR M07/M13 A3033 RMK AO1;EQDQ01+000000PRSWM2
0143723447999992000123021354+36300-092470FM-15+0350KFLP V0203201N004612200019N0160931N1-00401-01301999999ADDGF100991999999999999999999MA1102611999999MW1001REMMET065KFLP 302135Z AUTO 32009KT 160V120 10SM CLR M04/M13 A3030 RMK AO1;EQDQ01+000000PRSWM2
0205723447999992000123117354+36300-092470FM-15+0350KFLP V0203401N003612200019N0160931N1-00801-01501999999ADDGD12991+0135019GD22991+0270019GD32991+0330019GF104991999999999999999999MA1103051999999MW1001REMMET082KFLP 311735Z AUTO 34007KT 210V130 10SM FEW045 FEW090 SCT110 M08/M15 A3043 RMK AO1;EQDQ01+000000PRSWM2
0215723448999992000010403003+35730-091650FM-15+0141KBVX V0203201N005112200019N0160931N1+01101+00601999999ADDGF100991999999999999999999GP10060000002000000002000000002000GR100600000900009MA1100981999999MD1210341+9999MW1001OC100821REMMET064KBVX 040255Z AUTO 32010G16KT 10SM CLR 11/06 A2982 RMK AO1 52034;EQDQ01+000000PRSWM2
0195723448999992000011004003+35730-091650FM-15+0141KBVX V0202001N005712200019N0160931N1+00901+00801999999ADDGF100991999999999999999999GP10060000002000000002000000002000GR100600000900009MA1100271999999MW1001OC101031REMMET058KBVX 100355Z AUTO 20011G20KT 10SM CLR 09/08 A2961 RMK AO1;EQDQ01+000000PRSWM2
0244723448999992000011609003+35730-091650FM-15+0141KBVX V0202001N003610240019N0160931N1+01301+00701999999ADDGD12991+0210019GD23991+0240019GF107991999999999999999999GP10060000002000000002000000002000GR100600000900009MA1102641999999MD1210031+9999MW1001REMMET071KBVX 160855Z AUTO 20007KT 10SM SCT070 BKN080 13/07 A3031 RMK AO1 52003;EQDQ01+000000PRSWM2
0269723448999992000011900003+35730-091650FM-15+0141KBVX V0200901N003112200019N0160931N1+00701+00401999999ADDGF100991999999999999999999GP10060000002008000002015000002008GQ100600886924369GR100600010904129KA1999M+01101KA2999N+00701MA1102271999999MD1210201+9999MW1001REMMET083KBVX 182355Z AUTO 09006KT 10SM CLR 07/04 A3020 RMK AO1 10110 20070 401100060 52020;EQDQ01+000000PRSWM2
0219723448999992000012316003+35730-091650FM-15+0141KBVX V0200301N003110024019N0160931N1+00301+00101999999ADDGD14991+0024019GF108991999999999999999999GP10060009602008000002015009602008GQ100600681913729GR100600525914129MA1101861999999MW1001REMMET058KBVX 231555Z AUTO 03006KT 10SM OVC008 03/01 A3008 RMK AO1;EQDQ01+000000PRSWM2
0201723448999992000012322003+35730-091650FM-15+0141KBVX V0201401N002612200019N0160931N1+00501+00201999999ADDGF100991999999999999999999GP10060014502008004002015013202008GQ100600714922759GR100600449914129MA1101801999999MW1001REMMET055KBVX 232155Z AUTO 14005KT 10SM CLR 05/02 A3006 RMK AO1;EQDQ01+000000PRSWM2
0283723448999992000012406003+35730-091650FM-15+0141KBVX V0203401N002110096019N0160931N1+00101-00101999999ADDGD12991+0030019GD24991+0096019GF108991999999999999999999GP10060000002000000002000000002000GR100600000900009KA1999M+00401KA2999N+00101MA1102371999999MD1210241+9999MW1001REMMET084KBVX 240555Z AUTO 34004KT 10SM SCT010 OVC032 01/M01 A3023 RMK AO1 10040 20010 52024;EQDQ01+000000PRSWM2
0186723448999992000012504003+35730-091650FM-15+0141KBVX V0209999C000012200019N0160931N1-00201-00701999999ADDGF100991999999999999999999GP10060000002000000002000000002000GR100600000900009MA1102071999999MW1001REMMET057KBVX 250355Z AUTO 00000KT 10SM CLR M02/M07 A3014 RMK AO1;EQDQ01+000000PRSWM2
0186723448999992000012510003+35730-091650FM-15+0141KBVX V0209999C000012200019N0160931N1-00601-00801999999ADDGF100991999999999999999999GP10060000002000000002000000002000GR100600000900009MA1101901999999MW1001REMMET057KBVX 250955Z AUTO 00000KT 10SM CLR M06/M08 A3009 RMK AO1;EQDQ01+000000PRSWM2
0203723448999992000012616003+35730-091650FM-15+0141KBVX V0200101N002112200019N0160931N1-00301-01101999999ADDGF100991999999999999999999GP10060032202008046702015014402008GQ100600677913669GR100600536914119MA1102741999999MW1001REMMET057KBVX 261555Z AUTO 01004KT 10SM CLR M03/M11 A3034 RMK AO1;EQDQ01+000000PRSWM2
0204723448999992000012704003+35730-091650FM-15+0141KBVX V0200701N002112200019N0160931N1-00401-00901999999ADDGD12991+0360019GF104991999999999999999999GP10060000002000000002000000002000GR100600000900009MA1102781999999MW1001REMMET060KBVX 270355Z AUTO 07004KT 10SM SCT120 M04/M09 A3035 RMK AO1;EQDQ01+000000PRSWM2
0204723448999992000013004003+35730-091650FM-15+0141KBVX V0203301N002110078019N0160931N1-00101-00601999999ADDGD14991+0078019GF108991999999999999999999GP10060000002000000002000000002000GR100600000900009MA1102711999999MW1001REMMET060KBVX 300355Z AUTO 33004KT 10SM OVC026 M01/M06 A3033 RMK AO1;EQDQ01+000000PRSWM2
0185723448999992000020101003+35730-091650FM-15+0141KBVX V0201801N004112200019N0160931N1+00101-00401999999ADDGF100991999999999999999999GP10060000002000000002000000002000GR100600000900009MA1102241999999MW1001REMMET056KBVX 010055Z AUTO 18008KT 10SM CLR 01/M04 A3019 RMK AO1;EQDQ01+000000PRSWM2
0186723448999992000020110003+35730-091650FM-15+0141KBVX V0209999C000012200019N0160931N1-00101-00501999999ADDGF100991999999999999999999GP10060000002000000002000000002000GR100600000900009MA1102371999999MW1001REMMET057KBVX 010955Z AUTO 00000KT 10SM CLR M01/M05 A3023 RMK AO1;EQDQ01+000000PRSWM2
0202723448999992000020117003+35730-091650FM-15+0141KBVX V0203101N002112200019N0160931N1+00501-00201999999ADDGF100991999999999999999999GP10060052502008083402015009402008GQ100600591914919GR100600724914099MA1102781999999MW1001REMMET056KBVX 011655Z AUTO 31004KT 10SM CLR 05/M02 A3035 RMK AO1;EQDQ01+000000PRSWM2
0247723448999992000021402003+35730-091650FM-15+0141KBVX V0202901N005110042019N0008051N1+01101+01101999999ADDGD13991+0042019GD23991+0096019GD33991+0210019GF107991999999999999999999GP10060000002000000002000000002000GR100600000900009MA1100581999999MW1001REMMET073KBVX 140155Z AUTO 29010KT 1/2SM BKN014 BKN032 BKN070 11/11 A2970 RMK AO1;EQDQ01+000000PRSWM2
0240723448999992000021415003+35730-091650FM-15+0141KBVX V0203001N004110063019N0160931N1+00501-00101999999ADDGD14991+0063019GF108991999999999999999999GP10060015302008009102015012702008GQ100600731912079GR100600406914039MA1101801999999MD1210341+9999MW1001REMMET065KBVX 141455Z AUTO 30008KT 10SM OVC021 05/M01 A3006 RMK AO1 52034;EQDQ01+000000PRSWM2
0213723448999992000022012003+35730-091650FM-15+0141KBVX V0203101N001519999999N9999999N1+99999+99999999999ADDGP10060000002000000002000000002000GR100600000900009KA1999M+00001KA2999N-00301MA1103181999999MD1210031+9999MW1001REMMET070KBVX 201155Z AUTO 31003KT CLR M03/M03 A3047 RMK AO1 10000 21030 52003;EQDQ01+000000PRSWM2
0212723448999992000022223003+35730-091650FM-15+0141KBVX V0201701N004612200019N0160931N1+02001+00201999999ADDGF100991999999999999999999GP10060022002008061002015005702008GQ100600745924489GR100600372913989MA1102001999999MW1001OC100821REMMET058KBVX 222255Z AUTO 17009G16KT 10SM CLR 20/02 A3012 RMK AO1;EQDQ01+000000PRSWM2
0195723448999992000022307003+35730-091650FM-15+0141KBVX V0201501N005712200019N0160931N1+01701+00201999999ADDGF100991999999999999999999GP10060000002000000002000000002000GR100600000900009MA1101931999999MW1001OC100871REMMET058KBVX 230655Z AUTO 15011G17KT 10SM CLR 17/02 A3010 RMK AO1;EQDQ01+000000PRSWM2
0230723448999992000022522003+35730-091650FM-15+0141KBVX V0201601N006212200019N0160931N1+02201+01301999999ADDGD12991+0114019GF104991999999999999999999GP10060013502008000002015013502008GQ100600634923459GR100600624913969MA1101221999999MW1001OC101441REMMET061KBVX 252155Z AUTO 16012G28KT 10SM SCT038 22/13 A2989 RMK AO1;EQDQ01+000000PRSWM2
0239723448999992000030221003+35730-091650FM-15+0141KBVX V0200701N003612200019N0160931N1+01201+00101999999ADDGD12991+0330019GF102991999999999999999999GP10060018202008000002015018202008GQ100600527922259GR100600843913929MA1101961999999MD1710411+9999MW1001REMMET064KBVX 022055Z AUTO 07007KT 10SM FEW110 12/01 A3011 RMK AO1 57041;EQDQ01+000000PRSWM2
0259723448999992000030700003+35730-091650FM-15+0141KBVX V0201501N002612200019N0160931N1+02001+00901999999ADDGF100991999999999999999999GP10060006702008033602015002802008GQ100600833925879GR100600161913899KA1999M+02201KA2999N+01801MA1102001999999MD1710031+9999MW1001REMMET073KBVX 062355Z AUTO 15005KT 10SM CLR 20/09 A3012 RMK AO1 10220 20180 57003;EQDQ01+000000PRSWM2
0133723448999992000030716354+35730-091650FM-15+0141KBVX V0201901N001512200019N0160931N1+02201+01201999999ADDGF100991999999999999999999MA1102201999999MW1001REMMET055KBVX 071735Z AUTO 19003KT 10SM CLR 22/12 A3018 RMK AO1;EQDQ01+000000PRSWM2
0201723448999992000031422003+35730-091650FM-15+0141KBVX V0201501N003612200019N0160931N1+01801+00201999999ADDGF100991999999999999999999GP10060033902008017002015025102008GQ100600591924089GR100600710913839MA1101831999999MW1001REMMET055KBVX 142155Z AUTO 15007KT 10SM CLR 18/02 A3007 RMK AO1;EQDQ01+000000PRSWM2
0331723448999992000031600003+35730-091650FM-15+0141KBVX V0201401N003610063019N0160931N1+01601+01301999999ADDGD12991+0045019GD23991+0063019GD34991+0129019GF108991999999999999999999GP10060003002008000002015003002008GQ100600817926199GR100600198913829KA1999M+02201KA2999N+01601MA1101491999999MD1210071+9999MW1001REMMET100KBVX 152355Z AUTO 14007KT 10SM SCT015 BKN021 OVC043 16/13 A2997 RMK AO1 10220 20160 402200080 52007;EQDQ01+000000PRSWM2
0184723448999992000032102003+35730-091650FM-15+0141KBVX V0200901N004612200019N0160931N1+01101+00701999999ADDGF100991999999999999999999GP10060000002000000002000000002000GR100600000900009MA1101731999999MW1001REMMET055KBVX 210155Z AUTO 09009KT 10SM CLR 11/07 A3004 RMK AO1;EQDQ01+000000PRSWM2
0201723448999992000032513003+35730-091650FM-15+0141KBVX V0209999C000012200019N0160931N1+01701+01301999999ADDGF100991999999999999999999GP10060000002008000002015000002008GQ100600847909129GR100600120912949MA1101901999999MW1001REMMET055KBVX 251255Z AUTO 00000KT 10SM CLR 17/13 A3009 RMK AO1;EQDQ01+000000PRSWM2
0203723448999992000032708003+35730-091650FM-15+0141KBVX V0203201N004612200019N0160931N1+01601+01001999999ADDGF100991999999999999999999GP10060000002000000002000000002000GR100600000900009MA1100511999999MW1001OC100931REMMET066KBVX 270755Z AUTO 32009G18KT 300V360 10SM CLR 16/10 A2968 RMK AO1;EQDQ01+000000PRSWM2
0220723448999992000040413003+35730-091650FM-15+0141KBVX V0202901N002610240019N0160931N1+00601-00301999999ADDGD13991+0240019GF107991999999999999999999GP10060009402008019002015006802008GQ100600823908829GR100600184913669MA1102201999999MW1001REMMET059KBVX 041255Z AUTO 29005KT 10SM BKN080 06/M03 A3018 RMK AO1;EQDQ01+000000PRSWM2
0201723448999992000040616003+35730-091650FM-15+0141KBVX V0202001N004612200019N0160931N1+02101+01101999999ADDGF100991999999999999999999GP10060067902008076602015015102008GQ100600465911919GR100600937913649MA1101291999999MW1001REMMET055KBVX 061555Z AUTO 20009KT 10SM CLR 21/11 A2991 RMK AO1;EQDQ01+000000PRSWM2
0242723448999992000041306003+35730-091650FM-15+0141KBVX V0209999C000012200019N0160931N1+00801+00201999999ADDGF100991999999999999999999GP10060000002000000002000000002000GR100600000900009KA1999M+01101KA2999N+00801MA1102541999999MD1710071+9999MW1001REMMET073KBVX 130555Z AUTO 00000KT 10SM CLR 08/02 A3028 RMK AO1 10110 20080 57007;EQDQ01+000000PRSWM2
0227723448999992000041319003+35730-091650FM-15+0141KBVX V0200701N003610180019N0160931N1+01801+00601999999ADDGD13991+0180019GF107991999999999999999999GP10060060302008018602015043702008GQ100600272919249GR100601209913599MA1102101999999MW1001REMMET066KBVX 131855Z AUTO 07007KT 050V110 10SM BKN060 18/06 A3015 RMK AO1;EQDQ01+000000PRSWM2
0239723448999992000041421003+35730-091650FM-15+0141KBVX V0201401N003610057019N0160931N1+01601+01201999999ADDGD14991+0057019GF108991999999999999999999GP10060020002008000002015020002008GQ100600417924009GR100601013913589MA1101631999999MD1710171+9999MW1001REMMET064KBVX 142055Z AUTO 14007KT 10SM OVC019 16/12 A3001 RMK AO1 57017;EQDQ01+000000PRSWM2
0224723448999992000041505003+35730-091650FM-15+0141KBVX V0209999C000010066019N0160931N1+01501+01301999999ADDGD13991+0066019GD24991+0096019GF108991999999999999999999GP10060000002000000002000000002000GR100600000900009MA1101561999999MW1001REMMET065KBVX 150455Z AUTO 00000KT 10SM BKN022 OVC032 15/13 A2999 RMK AO1;EQDQ01+000000PRSWM2
0184723448999992000041708003+35730-091650FM-15+0141KBVX V0203001N002612200019N0160931N1+00901+00301999999ADDGF100991999999999999999999GP10060000002000000002000000002000GR100600000900009MA1101691999999MW1001REMMET055KBVX 170755Z AUTO 30005KT 10SM CLR 09/03 A3003 RMK AO1;EQDQ01+000000PRSWM2
0184723448999992000042707003+35730-091650FM-15+0141KBVX V0202401N001512200019N0160931N1+01301+00701999999ADDGF100991999999999999999999GP10060000002000000002000000002000GR100600000900009MA1101731999999MW1001REMMET055KBVX 270655Z AUTO 24003KT 10SM CLR 13/07 A3004 RMK AO1;EQDQ01+000000PRSWM2
0287723448999992000050600003+35730-091650FM-15+0141KBVX V0201801N002612200019N0160931N1+02301+01801999999ADDGD12991+0129019GF102991999999999999999999GP10060014202008012302015010802008GQ100600737927909GR100600375913429KA1999M+02501KA2999N+02301MA1101661999999MD1410001+9999MW1001REMMET086KBVX 052355Z AUTO 18005KT 10SM FEW043 23/18 A3002 RMK AO1 10250 20230 402500170 54000;EQDQ01+000000PRSWM2
0242723448999992000050806003+35730-091650FM-15+0141KBVX V0201801N003112200019N0160931N1+02301+01901999999ADDGF100991999999999999999999GP10060000002000000002000000002000GR100600000900009KA1999M+02701KA2999N+02301MA1100951999999MD1710101+9999MW1001REMMET073KBVX 080555Z AUTO 18006KT 10SM CLR 23/19 A2981 RMK AO1 10270 20230 57010;EQDQ01+000000PRSWM2
0201723448999992000060113003+35730-091650FM-15+0141KBVX V0209999C000012200019N0160931N1+02301+01901999999ADDGF100991999999999999999999GP10060023202008041502015010502008GQ100600723907509GR100600404913289MA1102031999999MW1001REMMET055KBVX 011255Z AUTO 00000KT 10SM CLR 23/19 A3013 RMK AO1;EQDQ01+000000PRSWM2
0201723448999992000060313003+35730-091650FM-15+0141KBVX V0200301N002112200019N0160931N1+01901+01501999999ADDGF100991999999999999999999GP10060013102008000602015012902008GQ100600722907489GR100600405913279MA1102241999999MW1001REMMET055KBVX 031255Z AUTO 03004KT 10SM CLR 19/15 A3019 RMK AO1;EQDQ01+000000PRSWM2
0183723448999992000060506003+35730-091650FM-15+0141KBVX V0209999C000012200019N0144841N1+01901+01901999999ADDGF100991999999999999999999GP10060000002000000002000000002000GR100600000900009MA1101491999999MW1001REMMET054KBVX 050555Z AUTO 00000KT 9SM CLR 19/19 A2997 RMK AO1;EQDQ01+000000PRSWM2
0220723448999992000061122003+35730-091650FM-15+0141KBVX V0201901N004112200019N0160931N1+03101+02001999999ADDGF100991999999999999999999GP10060058002008051602015021902008GQ100600455926849GR100600926913259MA1101861999999MW1001OC100871REMMET066KBVX 112155Z AUTO 19008G17KT 170V240 10SM CLR 31/20 A3008 RMK AO1;EQDQ01+000000PRSWM2
0204723448999992000061209003+35730-091650FM-15+0141KBVX V0209999C000012200019N0160931N1+02101+02001999999ADDGF100991999999999999999999GP10060000002000000002000000002000GR100600000900009MA1101931999999MD1710031+9999MW1001REMMET061KBVX 120855Z AUTO 00000KT 10SM CLR 21/20 A3010 RMK AO1 57003;EQDQ01+000000PRSWM2
0204723448999992000061409003+35730-091640FM-15+0141KBVX V0201801N002612200019N0160931N1+02401+02201999999ADDGF100991999999999999999999GP10060000002000000002000000002000GR100600000900009MA1101191999999MD1710101+9999MW1001REMMET061KBVX 140855Z AUTO 18005KT 10SM CLR 24/22 A2988 RMK AO1 57010;EQDQ01+000000PRSWM2
0184723448999992000061610003+35730-091640FM-15+0141KBVX V0201801N002612200019N0160931N1+02301+02201999999ADDGF100991999999999999999999GP10060000002000000002000000002000GR100600000900009MA1100781999999MW1001REMMET055KBVX 160955Z AUTO 18005KT 10SM CLR 23/22 A2976 RMK AO1;EQDQ01+000000PRSWM2
0183723448999992000061904003+35730-091640FM-15+0141KBVX V0209999C000012200019N0128741N1+02101+02001999999ADDGF100991999999999999999999GP10060000002000000002000000002000GR100600000900009MA1102031999999MW1001REMMET054KBVX 190355Z AUTO 00000KT 8SM CLR 21/20 A3013 RMK AO1;EQDQ01+000000PRSWM2
0349723448999992000062112003+35730-091640FM-15+0141KBVX V0209999C000010003019N0144841N1+01901+01801999999ADDAA101001391AA206016391AA324018091GD13991+0003019GD24991+0180019GF108991999999999999999999GP10060001502008000002015001502008GQ100600836906559GR100600147913229KA1999M+02601KA2999N+01901MA1101731999999MD1210101+9999MW1001REMMET100KBVX 211155Z AUTO 00000KT 9SM BKN001 OVC060 19/18 A3004 RMK AO1 P0005 60064 70071 10260 20190 52010;EQDQ01+000000PRSWM2
0311723448999992000062118003+35730-091640FM-15+0141KBVX V0202101N002110003019N0160931N1+02101+01901999999ADDAA101000391AA206010491GD13991+0003019GF107991999999999999999999GP10060015802008000002015015802008GQ100600152914499GR100601275913229KA1999M+02101KA2999N+01901MA1101801999999MD1210031+9999MW1001REMMET088KBVX 211755Z AUTO 21004KT 10SM BKN001 21/19 A3006 RMK AO1 P0001 60041 10210 20190 52003;EQDQ01+000000PRSWM2
0146723448999992000062219003+35730-091640FM-15+0141KBVX V02099999999992200019N9999999N1+02901+02101999999ADDGP10060097502008084602015015102008GQ100600136920069GR100601285913229MW1001REMMET041KBVX 221855Z AUTO 10SM CLR 29/21 RMK AO1;EQDQ01+000000PRSWM2
0183723448999992000070808003+35730-091640FM-15+0141KBVX V0203101N001512200019N0048281N1+02201+02201999999ADDGF100991999999999999999999GP10060000002000000002000000002000GR100600000900009MA1101861999999MW1001REMMET054KBVX 080755Z AUTO 31003KT 3SM CLR 22/22 A3008 RMK AO1;EQDQ01+000000PRSWM2
0184723448999992000071510003+35730-091640FM-15+0141KBVX V0209999C000012200019N0160931N1+02201+02101999999ADDGF100991999999999999999999GP10060000002000000002000000002000GR100600000900009MA1101291999999MW1001REMMET055KBVX 150955Z AUTO 00000KT 10SM CLR 22/21 A2991 RMK AO1;EQDQ01+000000PRSWM2
0184723448999992000071804003+35730-091640FM-15+0141KBVX V0209999C000012200019N0160931N1+02501+02301999999ADDGF100991999999999999999999GP10060000002000000002000000002000GR100600000900009MA1101801999999MW1001REMMET055KBVX 180355Z AUTO 00000KT 10SM CLR 25/23 A3006 RMK AO1;EQDQ01+000000PRSWM2
0184723448999992000072405003+35730-091640FM-15+0141KBVX V0209999C000012200019N0160931N1+01801+01701999999ADDGF100991999999999999999999GP10060000002000000002000000002000GR100600000900009MA1102001999999MW1001REMMET055KBVX 240455Z AUTO 00000KT 10SM CLR 18/17 A3012 RMK AO1;EQDQ01+000000PRSWM2
0201723448999992000072617003+35730-091640FM-15+0141KBVX V0201201N002112200019N0160931N1+03001+01501999999ADDGF100991999999999999999999GP10060081802008071202015018902008GQ100600281911969GR100601167913249MA1101961999999MW1001REMMET055KBVX 261655Z AUTO 12004KT 10SM CLR 30/15 A3011 RMK AO1;EQDQ01+000000PRSWM2
0184723448999992000081007003+35730-091640FM-15+0141KBVX V0209999C000012200019N0160931N1+02701+02101999999ADDGF100991999999999999999999GP10060000002000000002000000002000GR100600000900009MA1101631999999MW1001REMMET055KBVX 100655Z AUTO 00000KT 10SM CLR 27/21 A3001 RMK AO1;EQDQ01+000000PRSWM2
0201723448999992000081220003+35730-091640FM-15+0141KBVX V0200701N004112200019N0160931N1+03301+01401999999ADDGF100991999999999999999999GP10060085802008083102015012002008GQ100600276922439GR100601179913319MA1101661999999MW1001REMMET055KBVX 121955Z AUTO 07008KT 10SM CLR 33/14 A3002 RMK AO1;EQDQ01+000000PRSWM2
0184723448999992000081607003+35730-091640FM-15+0141KBVX V0209999C000012200019N0160931N1+02401+01901999999ADDGF100991999999999999999999GP10060000002000000002000000002000GR100600000900009MA1102101999999MW1001REMMET055KBVX 160655Z AUTO 00000KT 10SM CLR 24/19 A3015 RMK AO1;EQDQ01+000000PRSWM2
0201723448999992000082723003+35730-091640FM-15+0141KBVX V0201201N004612200019N0160931N1+03801+01801999999ADDGF100991999999999999999999GP10060034002008052802015011302008GQ100600645926359GR100600575913399MA1101021999999MW1001REMMET055KBVX 272255Z AUTO 12009KT 10SM CLR 38/18 A2983 RMK AO1;EQDQ01+000000PRSWM2
0203723448999992000090109003+35730-091640FM-15+0141KBVX V0209999C000012200019N0144841N1+02201+02201999999ADDGF100991999999999999999999GP10060000002000000002000000002000GR100600000900009MA1101351999999MD1210031+9999MW1001REMMET060KBVX 010855Z AUTO 00000KT 9SM CLR 22/22 A2993 RMK AO1 52003;EQDQ01+000000PRSWM2
0133723448999992000090115154+35730-091640FM-15+0141KBVX V0201501N001512200019N0160931N1+03101+02101999999ADDGF100991999999999999999999MA1101491999999MW1001REMMET055KBVX 011515Z AUTO 15003KT 10SM CLR 31/21 A2997 RMK AO1;EQDQ01+000000PRSWM2
0204723448999992000090309003+35730-091640FM-15+0141KBVX V0209999C000012200019N0160931N1+02101+01801999999ADDGF100991999999999999999999GP10060000002000000002000000002000GR100600000900009MA1101291999999MD1710031+9999MW1001REMMET061KBVX 030855Z AUTO 00000KT 10SM CLR 21/18 A2991 RMK AO1 57003;EQDQ01+000000PRSWM2
0259723448999992000090618003+35730-091640FM-15+0141KBVX V0200701N002612200019N0160931N1+02701+01701999999ADDGF100991999999999999999999GP10060080902008064902015025002008GQ100600309916319GR100601155913469KA1999M+02701KA2999N+01601MA1102001999999MD1710101+9999MW1001REMMET073KBVX 061755Z AUTO 07005KT 10SM CLR 27/17 A3012 RMK AO1 10270 20160 57010;EQDQ01+000000PRSWM2
0224723448999992000090811003+35730-091640FM-15+0141KBVX V0209999C000010012019N0160931N1+02001+02001999999ADDGD13991+0012019GD24991+0045019GF108991999999999999999999GP10060000002000000002000000002000GR100600000900009MA1101691999999MW1001REMMET065KBVX 081055Z AUTO 00000KT 10SM BKN004 OVC015 20/20 A3003 RMK AO1;EQDQ01+000000PRSWM2
0184723448999992000091410003+35730-091640FM-15+0141KBVX V0209999C000012200019N0160931N1+01701+01601999999ADDGF100991999999999999999999GP10060000002000000002000000002000GR100600000900009MA1101561999999MW1001REMMET055KBVX 140955Z AUTO 00000KT 10SM CLR 17/16 A2999 RMK AO1;EQDQ01+000000PRSWM2
0259723448999992000091418003+35730-091640FM-15+0141KBVX V0202901N002612200019N0160931N1+03501+01701999999ADDGF100991999999999999999999GP10060081502008079402015015202008GQ100600337916569GR100601124913519KA1999M+03501KA2999N+01601MA1101461999999MD1710171+9999MW1001REMMET073KBVX 141755Z AUTO 29005KT 10SM CLR 35/17 A2996 RMK AO1 10350 20160 57017;EQDQ01+000000PRSWM2
0201723448999992000091420003+35730-091640FM-15+0141KBVX V0202601N003612200019N0160931N1+03801+01701999999ADDGF100991999999999999999999GP10060075302008077602015014502008GQ100600386921679GR100601055913519MA1101251999999MW1001REMMET055KBVX 141955Z AUTO 26007KT 10SM CLR 38/17 A2990 RMK AO1;EQDQ01+000000PRSWM2
0184723448999992000091810003+35730-091640FM-15+0141KBVX V0203101N002112200019N0160931N1+01101+00701999999ADDGF100991999999999999999999GP10060000002000000002000000002000GR100600000900009MA1101831999999MW1001REMMET055KBVX 180955Z AUTO 31004KT 10SM CLR 11/07 A3007 RMK AO1;EQDQ01+000000PRSWM2
0219723448999992000092216003+35730-091640FM-15+0141KBVX V0202001N003112200019N0160931N1+02701+01901999999ADDGD12991+0048019GF102991999999999999999999GP10060039102008014002015030102008GQ100600498912769GR100600875913579MA1101221999999MW1001REMMET058KBVX 221555Z AUTO 20006KT 10SM FEW016 27/19 A2989 RMK AO1;EQDQ01+000000PRSWM2
0242723448999992000092906003+35730-091640FM-15+0141KBVX V0203001N001512200019N0160931N1+01201+01101999999ADDGF100991999999999999999999GP10060000002000000002000000002000GR100600000900009KA1999M+02201KA2999N+01201MA1102371999999MD1210031+9999MW1001REMMET073KBVX 290555Z AUTO 30003KT 10SM CLR 12/11 A3023 RMK AO1 10220 20120 52003;EQDQ01+000000PRSWM2
0204723448999992000092909003+35730-091640FM-15+0141KBVX V0209999C000012200019N0160931N1+01201+01101999999ADDGF100991999999999999999999GP10060000002000000002000000002000GR100600000900009MA1102371999999MD1410001+9999MW1001REMMET061KBVX 290855Z AUTO 00000KT 10SM CLR 12/11 A3023 RMK AO1 54000;EQDQ01+000000PRSWM2
0204723448999992000100303003+35730-091640FM-15+0141KBVX V0201401N002112200019N0160931N1+02201+01301999999ADDGF100991999999999999999999GP10060000002000000002000000002000GR100600000900009MA1101291999999MD1210171+9999MW1001REMMET061KBVX 030255Z AUTO 14004KT 10SM CLR 22/13 A2991 RMK AO1 52017;EQDQ01+000000PRSWM2
0054723448999992000100407009+35733-091650NSRDB+014199999V020999999999999999999999999999+99999+99999999999ADDGP10060000002000000002000000002000GR100600000900009
0219723448999992000101716003+35730-091640FM-15+0141KBVX V0203501N002610054019N0160931N1+01701+01301999999ADDGD13991+0054019GF107991999999999999999999GP10060009702008000002015009702008GQ100600563913679GR100600763913779MA1102271999999MW1001REMMET058KBVX 171555Z AUTO 35005KT 10SM BKN018 17/13 A3020 RMK AO1;EQDQ01+000000PRSWM2
0269723448999992000102200003+35730-091640FM-15+0141KBVX V0209999C000012200019N0160931N1+01901+01401999999ADDGF100991999999999999999999GP10060000002008000002015000002008GQ100600881925519GR100600016904959KA1999M+02201KA2999N+01901MA1102001999999MD1210031+9999MW1001REMMET083KBVX 212355Z AUTO 00000KT 10SM CLR 19/14 A3012 RMK AO1 10220 20190 402200120 52003;EQDQ01+000000PRSWM2
0184723448999992000102201003+35730-091640FM-15+0141KBVX V0209999C000012200019N0160931N1+01901+01501999999ADDGF100991999999999999999999GP10060000002000000002000000002000GR100600000900009MA1102071999999MW1001REMMET055KBVX 220055Z AUTO 00000KT 10SM CLR 19/15 A3014 RMK AO1;EQDQ01+000000PRSWM2
0276723448999992000102718003+35730-091640FM-15+0141KBVX V0209999C000012200019N0160931N1+02101+01701999999ADDAA106001891GF100991999999999999999999GP10060015802008000002015015802008GQ100600492917349GR100600906913859KA1999M+02101KA2999N+01701MA1102171999999MD1710071+9999MW1001REMMET079KBVX 271755Z AUTO 00000KT 10SM CLR 21/17 A3017 RMK AO1 60007 10210 20170 57007;EQDQ01+000000PRSWM2
0151723448999992000102723354+35730-091640FM-15+0141KBVX V0209999C000012200019N0160931N1+02101+01601999999ADDGD12991+0180019GF102991999999999999999999MA1102101999999MW1001REMMET058KBVX 272335Z AUTO 00000KT 10SM FEW065 21/16 A3015 RMK AO1;EQDQ01+000000PRSWM2
0054723448999992000102801009+35733-091650NSRDB+014199999V020999999999999999999999999999+99999+99999999999ADDGP10060000002000000002000000002000GR100600000900009
0071723448999992000102821009+35733-091650NSRDB+014199999V020999999999999999999999999999+99999+99999999999ADDGP10060044102008073502015009502008GQ100600620922499GR100600650913869
0071723448999992000103016009+35733-091650NSRDB+014199999V020999999999999999999999999999+99999+99999999999ADDGP10060016902008000002015016902008GQ100600599914009GR100600696913889
0071723448999992000110616009+35733-091650NSRDB+014199999V020999999999999999999999999999+99999+99999999999ADDGP10060014402008000002015014402008GQ100600617914139GR100600660913939
0152723448999992000111009354+35730-091640FM-15+0141KBVX V0203101N002110039019N0160931N1+00201-00101999999ADDGD14991+0039019GF108991999999999999999999MA1101901999999MW1001REMMET059KBVX 100935Z AUTO 31004KT 10SM OVC013 02/M01 A3009 RMK AO1;EQDQ01+000000PRSWM2
0054723448999992000111010009+35733-091650NSRDB+014199999V020999999999999999999999999999+99999+99999999999ADDGP10060000002000000002000000002000GR100600000900009
0054723448999992000111105009+35733-091650NSRDB+014199999V020999999999999999999999999999+99999+99999999999ADDGP10060000002000000002000000002000GR100600000900009
0133723448999992000111122354+35730-091640FM-15+0141KBVX V0209999C000012200019N0160931N1+00501+00101999999ADDGF100991999999999999999999MA1101961999999MW1001REMMET055KBVX 112235Z AUTO 00000KT 10SM CLR 05/01 A3011 RMK AO1;EQDQ01+000000PRSWM2
0135723448999992000111507354+35730-091640FM-15+0141KBVX V0209999C000012200019N0160931N1-00201-00201999999ADDGF100991999999999999999999MA1102241999999MW1001REMMET057KBVX 150735Z AUTO 00000KT 10SM CLR M02/M02 A3019 RMK AO1;EQDQ01+000000PRSWM2
0145723448999992000111521354+35730-091640FM-15+0141KBVX V0201501N005112200019N0160931N1+01001-00201999999ADDGF100991999999999999999999MA1101661999999MW1001OC100721REMMET059KBVX 152135Z AUTO 15010G14KT 10SM CLR 10/M02 A3002 RMK AO1;EQDQ01+000000PRSWM2
0054723448999992000111607009+35733-091650NSRDB+014199999V020999999999999999999999999999+99999+99999999999ADDGP10060000002000000002000000002000GR100600000900009
0054723448999992000111612009+35733-091650NSRDB+014199999V020999999999999999999999999999+99999+99999999999ADDGP10060000002000000002000000002000GR100600000900009
0054723448999992000111901009+35733-091650NSRDB+014199999V020999999999999999999999999999+99999+99999999999ADDGP10060000002000000002000000002000GR100600000900009
0054723448999992000112012009+35733-091650NSRDB+014199999V020999999999999999999999999999+99999+99999999999ADDGP10060000002000000002000000002000GR100600000900009
0135723448999992000112107354+35730-091640FM-15+0141KBVX V0203001N001512200019N0160931N1-00201-01201999999ADDGF100991999999999999999999MA1103251999999MW1001REMMET057KBVX 210735Z AUTO 30003KT 10SM CLR M02/M12 A3049 RMK AO1;EQDQ01+000000PRSWM2
0054723448999992000112405009+35733-091650NSRDB+014199999V020999999999999999999999999999+99999+99999999999ADDGP10060000002000000002000000002000GR100600000900009
0054723448999992000112411009+35733-091650NSRDB+014199999V020999999999999999999999999999+99999+99999999999ADDGP10060000002000000002000000002000GR100600000900009
0151723448999992000112515354+35730-091640FM-15+0141KBVX V0202901N004610036019N0160931N1+00701+00401999999ADDGD14991+0036019GF108991999999999999999999MA1100851999999MW1001REMMET058KBVX 251535Z AUTO 29009KT 10SM OVC012 07/04 A2978 RMK AO1;EQDQ01+000000PRSWM2
0071723448999992000112523009+35733-091650NSRDB+014199999V020999999999999999999999999999+99999+99999999999ADDGP10060000802009000002021000802009GQ100600856924039GR100600095912299
0151723448999992000120114354+35730-091640FM-15+0141KBVX V0201101N001512200019N0160931N1+00401+00101999999ADDGD12991+0210019GF104991999999999999999999MA1102271999999MW1001REMMET058KBVX 011435Z AUTO 11003KT 10SM SCT070 04/01 A3020 RMK AO1;EQDQ01+000000PRSWM2
0071723448999992000120218009+35733-091650NSRDB+014199999V020999999999999999999999999999+99999+99999999999ADDGP10060008502009000002021008502009GQ100600583917299GR100600741914089
0054723448999992000120307009+35733-091650NSRDB+014199999V020999999999999999999999999999+99999+99999999999ADDGP10060000002000000002000000002000GR100600000900009
0054723448999992000120406009+35733-091650NSRDB+014199999V020999999999999999999999999999+99999+99999999999ADDGP10060000002000000002000000002000GR100600000900009
0071723448999992000120414009+35733-091650NSRDB+014199999V020999999999999999999999999999+99999+99999999999ADDGP10060000002009000002021000002009GQ100600853912189GR100600110913509
0134723448999992000120501354+35730-091640FM-15+0141KBVX V0202301N001512200019N0160931N1+00201-00401999999ADDGF100991999999999999999999MA1102881999999MW1001REMMET056KBVX 050135Z AUTO 23003KT 10SM CLR 02/M04 A3038 RMK AO1;EQDQ01+000000PRSWM2
0054723448999992000120502009+35733-091650NSRDB+014199999V020999999999999999999999999999+99999+99999999999ADDGP10060000002000000002000000002000GR100600000900009
0134723448999992000120515354+35730-091640FM-15+0141KBVX V0203001N003612200019N0160931N1+00401-00101999999ADDGF100991999999999999999999MA1103121999999MW1001REMMET056KBVX 051535Z AUTO 30007KT 10SM CLR 04/M01 A3045 RMK AO1;EQDQ01+000000PRSWM2
0071723448999992000120521009+35733-091650NSRDB+014199999V020999999999999999999999999999+99999+99999999999ADDGP10060033502009064202021010002009GQ100600685921779GR100600515914099
0135723448999992000120612354+35730-091640FM-15+0141KBVX V0209999C000012200019N0160931N1-00101-00601999999ADDGF100991999999999999999999MA1102511999999MW1001REMMET057KBVX 061235Z AUTO 00000KT 10SM CLR M01/M06 A3027 RMK AO1;EQDQ01+000000PRSWM2
0152723448999992000120701354+35730-091640FM-15+0141KBVX V0209999C000010051019N0160931N1+00201-00101999999ADDGD14991+0051019GF108991999999999999999999MA1102201999999MW1001REMMET059KBVX 070135Z AUTO 00000KT 10SM OVC017 02/M01 A3018 RMK AO1;EQDQ01+000000PRSWM2
0054723448999992000120812009+35733-091650NSRDB+014199999V020999999999999999999999999999+99999+99999999999ADDGP10060000002000000002000000002000GR100600000900009
0150723448999992000121002354+35730-091640FM-15+0141KBVX V0209999C000012200019N0080461N1+00201+00101999999ADDGD12991+0330019GF104991999999999999999999MA1101931999999MW1001REMMET057KBVX 100235Z AUTO 00000KT 5SM SCT110 02/01 A3010 RMK AO1;EQDQ01+000000PRSWM2
0146723448999992000121204354+35730-091640FM-15+0141KBVX V0203001N003112200019N0160931N1-00801-01301999999ADDGF100991999999999999999999MA1102741999999MW1001OC100771REMMET060KBVX 120435Z AUTO 30006G15KT 10SM CLR M08/M13 A3034 RMK AO1;EQDQ01+000000PRSWM2
0146723448999992000121212354+35730-091640FM-15+0141KBVX V0203101N004612200019N0160931N1-01101-01401999999ADDGF100991999999999999999999MA1103351999999MW1001OC100721REMMET060KBVX 121235Z AUTO 31009G14KT 10SM CLR M11/M14 A3052 RMK AO1;EQDQ01+000000PRSWM2
0054723448999992000121608009+35733-091650NSRDB+014199999V020999999999999999999999999999+99999+99999999999ADDGP10060000002000000002000000002000GR100600000900009
0071723448999992000121623009+35733-091650NSRDB+014199999V020999999999999999999999999999+99999+99999999999ADDGP10060001802009003802021001502009GQ100600857923729GR100600094912609
0054723448999992000122809009+35733-091650NSRDB+014199999V020999999999999999999999999999+99999+99999999999ADDGP10060000002000000002000000002000GR100600000900009
0071723448999992000122818009+35733-091650NSRDB+014199999V020999999999999999999999999999+99999+99999999999ADDGP10060051702009068802021016902009GQ100600598916989GR100600712914159
0154723448999992000123014354+35730-091640FM-15+0141KBVX V0203101N004112200019N0160931N1-00701-01201999999ADDGF100991999999999999999999MA1102511999999MW1001OC100821REMMET068KBVX 301435Z AUTO 31008G16KT 280V340 10SM CLR M07/M12 A3027 RMK AO1;EQDQ01+000000PRSWM2
0230723449999992000010214003+36370-094100FM-15+0415KROG V0202201N008712200019N0160931N1+01601+01001999999ADDGD12991+0300019GF104991999999999999999999GP10060000002009000002021000002009GQ100600876912089GR100600030907199MA1101051999999MW1001OC101181REMMET061KROG 021355Z AUTO 22017G23KT 10SM SCT100 16/10 A2984 RMK AO1;EQDQ01+000000PRSWM2
0217723449999992000010408003+36370-094100FM-15+0415KROG V0203301N005110042019N9999999N1-00101-00201999999ADDGD14991+0042019GF108991999999999999999999GP10060000002000000002000000002000GR100600000900009MA1101761999999MW1001OC101081REMMET065KROG 040755Z AUTO 33010G21KT BKN006 OVC014 M01/M02 A3005 RMK AO1;EQDQ01+000000PRSWM2
0134723449999992000011206154+36370-094100FM-15+0415KROG V0201201N004612200019N0160931N1+00501-00501999999ADDGF100991999999999999999999MA1101521999999MW1001REMMET056KROG 120615Z AUTO 12009KT 10SM CLR 05/M05 A2998 RMK AO1;EQDQ01+000000PRSWM2
0233723449999992000011321003+36370-094100FM-15+0415KROG V0200101N005712200019N0160931N1+00801-00801999999ADDGF100991999999999999999999GP10060039602009073002021008602009GQ100600650921219GR100600597914149MA1103661999999MD1210071+9999MW1001OC100871REMMET065KROG 132055Z AUTO 01011G17KT 10SM CLR 08/M08 A3061 RMK AO1 52007;EQDQ01+000000PRSWM2
0184723449999992000012304003+36370-094100FM-15+0415KROG V0201201N002112200019N0160931N1+00301+00201999999ADDGF100991999999999999999999GP10060000002000000002000000002000GR100600000900009MA1101391999999MW1001REMMET055KROG 230355Z AUTO 12004KT 10SM CLR 03/02 A2994 RMK AO1;EQDQ01+000000PRSWM2
0186723449999992000020201003+36370-094100FM-15+0415KROG V0203601N002112200019N0160931N1-00301-00601999999ADDGF100991999999999999999999GP10060000002000000002000000002000GR100600000900009MA1102911999999MW1001REMMET057KROG 020055Z AUTO 36004KT 10SM CLR M03/M06 A3039 RMK AO1;EQDQ01+000000PRSWM2
0205723449999992000020203003+36370-094100FM-15+0415KROG V0209999C000012200019N0128741N1-00401-00601999999ADDGF100991999999999999999999GP10060000002000000002000000002000GR100600000900009MA1102911999999MD1210031+9999MW1001REMMET062KROG 020255Z AUTO 00000KT 8SM CLR M04/M06 A3039 RMK AO1 52003;EQDQ01+000000PRSWM2
0270723449999992000020300003+36370-094100FM-15+0415KROG V0202001N004112200019N0160931N1+00101-00401999999ADDGF100991999999999999999999GP10060001202008016202015000602008GQ100600864924629GR100600061909749KA1999M+00301KA2999N-00101MA1102401999999MD1710201+9999MW1001REMMET084KROG 022355Z AUTO 20008KT 10SM CLR 01/M04 A3024 RMK AO1 10030 21010 400301100 57020;EQDQ01+000000PRSWM2
0202723449999992000020723003+36370-094100FM-15+0415KROG V0200101N003112200019N0160931N1+01301-00201999999ADDGF100991999999999999999999GP10060019702008063702015004702008GQ100600765923909GR100600328914069MA1102611999999MW1001REMMET056KROG 072255Z AUTO 01006KT 10SM CLR 13/M02 A3030 RMK AO1;EQDQ01+000000PRSWM2
0185723449999992000021507003+36370-094100FM-15+0415KROG V0201301N003112200019N0160931N1+00301-00101999999ADDGF100991999999999999999999GP10060000002000000002000000002000GR100600000900009MA1101731999999MW1001REMMET056KROG 150655Z AUTO 13006KT 10SM CLR 03/M01 A3004 RMK AO1;EQDQ01+000000PRSWM2
0400723449999992000021712003+36370-094100FM-15+0415KROG V0201001N007210093019N0160931N1+00201+00001999999ADDAA101005191AA206006491AA324006491GD12991+0003019GD22991+0027019GD34991+0093019GF108991999999999999999999GP10060000002000000002000000002000GR100600000900009KA1999M+00701KA2999N+00201MA1102001999999MD1710201+9999MW1171OC100981REMMET129KROG 171155Z AUTO 10014G19KT 10SM TS FEW001 FEW009 OVC031 02/00 A3012 RMK AO1 LTG DSNT ALQDS P0020 60025 70025 10070 20020 57020;EQDQ01+000003PRSWM1Q02    003PRSWM1
0233723449999992000021809003+36370-094100FM-15+0415KROG V0202301N007710051019N0160931N1+01401+01301999999ADDGD14991+0051019GF108991999999999999999999GP10060000002000000002000000002000GR100600000900009MA1100641999999MD1710031+9999MW1001OC101131REMMET067KROG 180855Z AUTO 23015G22KT 10SM OVC017 14/13 A2972 RMK AO1 57003;EQDQ01+000000PRSWM2
0230723449999992000022116003+36370-094100FM-15+0415KROG V0201801N005710150019N0160931N1+01201+00001999999ADDGD13991+0150019GF107991999999999999999999GP10060029702008018502015021302008GQ100600633912909GR100600627913989MA1102681999999MW1001OC100821REMMET061KROG 211555Z AUTO 18011G16KT 10SM BKN050 12/00 A3032 RMK AO1;EQDQ01+000000PRSWM2
0204723449999992000022503003+36370-094100FM-15+0415KROG V0201601N005712200019N0160931N1+01701+01201999999ADDGF100991999999999999999999GP10060000002000000002000000002000GR100600000900009MA1101461999999MD1710031+9999MW1001REMMET061KROG 250255Z AUTO 16011KT 10SM CLR 17/12 A2996 RMK AO1 57003;EQDQ01+000000PRSWM2
0195723449999992000022508003+36370-094100FM-15+0415KROG V0201701N008212200019N0160931N1+01701+01101999999ADDGF100991999999999999999999GP10060000002000000002000000002000GR100600000900009MA1101151999999MW1001OC101441REMMET058KROG 250755Z AUTO 17016G28KT 10SM CLR 17/11 A2987 RMK AO1;EQDQ01+000000PRSWM2
0252723449999992000022522003+36370-094100FM-15+0415KROG V0202001N008210057019N0160931N1+01701+01401999999ADDGD13991+0057019GD23991+0078019GF107991999999999999999999GP10060026202008010002015021502008GQ100600622923229GR100600651913969MA1100781999999MW1001OC101341REMMET068KROG 252155Z AUTO 20016G26KT 10SM BKN019 BKN026 17/14 A2976 RMK AO1;EQDQ01+000000PRSWM2
0202723449999992000022723003+36370-094100FM-15+0415KROG V0202601N002612200019N0160931N1+01401-00401999999ADDGF100991999999999999999999GP10060027902008069402015006302008GQ100600719924459GR100600432913949MA1102511999999MW1001REMMET056KROG 272255Z AUTO 26005KT 10SM CLR 14/M04 A3027 RMK AO1;EQDQ01+000000PRSWM2
0185723449999992000022902003+36370-094100FM-15+0415KROG V0201401N005712200019N0160931N1+01301-00101999999ADDGF100991999999999999999999GP10060000002000000002000000002000GR100600000900009MA1101761999999MW1001REMMET056KROG 290155Z AUTO 14011KT 10SM CLR 13/M01 A3005 RMK AO1;EQDQ01+000000PRSWM2
0184723449999992000022904003+36370-094100FM-15+0415KROG V0201401N003612200019N0160931N1+01201+00101999999ADDGF100991999999999999999999GP10060000002000000002000000002000GR100600000900009MA1101731999999MW1001REMMET055KROG 290355Z AUTO 14007KT 10SM CLR 12/01 A3004 RMK AO1;EQDQ01+000000PRSWM2
0184723449999992000030908003+36370-094100FM-15+0415KROG V0202901N004112200019N0160931N1+00901+00201999999ADDGF100991999999999999999999GP10060000002000000002000000002000GR100600000900009MA1101461999999MW1001REMMET055KROG 090755Z AUTO 29008KT 10SM CLR 09/02 A2996 RMK AO1;EQDQ01+000000PRSWM2
0202723449999992000030914003+36370-094100FM-15+0415KROG V0203101N003112200019N0160931N1+00401-00101999999ADDGF100991999999999999999999GP10060015502008043402015007802008GQ100600799910309GR100600244913869MA1101761999999MW1001REMMET056KROG 091355Z AUTO 31006KT 10SM CLR 04/M01 A3005 RMK AO1;EQDQ01+000000PRSWM2
0185723449999992000031008003+36370-094100FM-15+0415KROG V0200801N003112200019N0160931N1+00401-00101999999ADDGF100991999999999999999999GP10060000002000000002000000002000GR100600000900009MA1101731999999MW1001REMMET056KROG 100755Z AUTO 08006KT 10SM CLR 04/M01 A3004 RMK AO1;EQDQ01+000000PRSWM2
0219723449999992000031323003+36370-094100FM-15+0415KROG V0201501N001510330019N0160931N1+01401+00201999999ADDGD13991+0330019GF107991999999999999999999GP10060022002008012102015017602008GQ100600687924979GR100600501913839MA1102101999999MW1001REMMET058KROG 132255Z AUTO 15003KT 10SM BKN110 14/02 A3015 RMK AO1;EQDQ01+000000PRSWM2
0213723449999992000031707003+36370-094100FM-15+0415KROG V0200801N006210129019N0160931N1+00301+00101999999ADDGD14991+0129019GF108991999999999999999999GP10060000002000000002000000002000GR100600000900009MA1102171999999MW1001OC100871REMMET061KROG 170655Z AUTO 08012G17KT 10SM OVC043 03/01 A3017 RMK AO1;EQDQ01+000000PRSWM2
0201723449999992000032019003+36370-094100FM-15+0415KROG V0202301N002112200019N0160931N1+01201+00301999999ADDGF100991999999999999999999GP10060085202008090002015012602008GQ100600364918269GR100601109913789MA1101351999999MW1001REMMET055KROG 201855Z AUTO 23004KT 10SM CLR 12/03 A2993 RMK AO1;EQDQ01+000000PRSWM2
0263723449999992000032402003+36370-094100FM-15+0415KROG V0202001N003110150019N0160931N1+01401+01301999999ADDAA101000591GD12991+0114019GD22991+0144019GD33991+0150019GF107991999999999999999999GP10060000002000000002000000002000GR100600000900009MA1101391999999MW1001REMMET078KROG 240155Z AUTO 20006KT 10SM FEW038 SCT048 BKN055 14/13 A2994 RMK AO1 P0002;EQDQ01+000000PRSWM2
0071723449999992000032817009+36367-094100NSRDB+041599999V020999999999999999999999999999+99999+99999999999ADDGP10060075802008084102015013202008GQ100600419913599GR100601019913719
0288723449999992000032906003+36370-094100FM-15+0415KROG V0201101N005110180019N0160931N1+00901-00401999999ADDGD13991+0180019GF107991999999999999999999GP10060000002000000002000000002000GR100600000900009KA1999M+01201KA2999N+00901MA1100781999999MD1210031+9999MW1001OC100871REMMET096KROG 290555Z AUTO 11010G17KT 10SM BKN060 09/M04 A2976 RMK AO1 LTG DSNT E - SW 10120 20090 52003;EQDQ01+000000PRSWM2
0314723449999992000032921003+36370-094100FM-15+0415KROG V0201101N006710081019N0160931N1+00501+00301999999ADDAA101000591AA203003091GD14991+0081019GF108991999999999999999999GP10060012102008000002015012102008GQ100600442922979GR100600982913719MA1100851999999MD1710071+9999MW1001OC100981REMMET109KROG 292055Z AUTO 11013G19KT 10SM OVC027 05/03 A2978 RMK AO1 LTG DSNT NW - E TSE1959B36E51 P0002 60012 57007;EQDQ01+000000PRSWM2
0325723449999992000040200003+36370-094100FM-15+0415KROG V0200801N002612200019N0144841N1+00901+00801999999ADDAA106003691GD12991+0180019GD22991+0240019GF104991999999999999999999GP10060002702008000002015002702008GQ100600769926659GR100600309913689KA1999M+01301KA2999N+00901MA1101461999999MD1710031+9999MW1001REMMET098KROG 012355Z AUTO 08005KT 9SM FEW060 SCT080 09/08 A2996 RMK AO1 60014 10130 20090 401500080 57003;EQDQ01+000000PRSWM2
0156723449999992000040308003+36370-094100FM-15+0415KROG V0202101N002112200019N9999999N1+00801+00701999999ADDGP10060000002000000002000000002000GR100600000900009MA1101351999999MW1001REMMET053KROG 030755Z AUTO 21004KT SCT095 08/07 A2993 RMK AO1;EQDQ01+000000PRSWM2
0202723449999992000040420003+36370-094100FM-15+0415KROG V0203401N003612200019N0160931N1+01101-00501999999ADDGF100991999999999999999999GP10060087002008086702015015402008GQ100600346921219GR100601124913669MA1102271999999MW1001REMMET056KROG 041955Z AUTO 34007KT 10SM CLR 11/M05 A3020 RMK AO1;EQDQ01+000000PRSWM2
0184723449999992000040510003+36370-094100FM-15+0415KROG V0201901N004612200019N0160931N1+00701+00101999999ADDGF100991999999999999999999GP10060000002000000002000000002000GR100600000900009MA1101491999999MW1001REMMET055KROG 050955Z AUTO 19009KT 10SM CLR 07/01 A2997 RMK AO1;EQDQ01+000000PRSWM2
0195723449999992000040607003+36370-094100FM-15+0415KROG V0202001N005712200019N0160931N1+01501+00701999999ADDGF100991999999999999999999GP10060000002000000002000000002000GR100600000900009MA1100951999999MW1001OC100771REMMET058KROG 060655Z AUTO 20011G15KT 10SM CLR 15/07 A2981 RMK AO1;EQDQ01+000000PRSWM2
0202723449999992000040901003+36370-094100FM-15+0415KROG V0202701N002112200019N0160931N1+00701-00601999999ADDGF100991999999999999999999GP10060001502008013502015000902008GQ100600860927679GR100600069909889MA1102711999999MW1001REMMET056KROG 090055Z AUTO 27004KT 10SM CLR 07/M06 A3033 RMK AO1;EQDQ01+000000PRSWM2
0201723449999992000041104003+36370-094100FM-15+0415KROG V0201501N003110063019N0128741N1+01301+01201999999ADDGD14991+0063019GF108991999999999999999999GP10060000002000000002000000002000GR100600000900009MA1101661999999MW1001REMMET057KROG 110355Z AUTO 15006KT 8SM OVC021 13/12 A3002 RMK AO1;EQDQ01+000000PRSWM2
0277723449999992000041111003+36370-094100FM-15+0415KROG V0209999C000010081019N0048281N1+01201+01201999999ADDAA101000891GD12991+0006019GD23991+0081019GD34991+0150019GF108991999999999999999999GP10060000002000000002000000002000GR100600000900009MA1101661999999MW1001REMMET092KROG 111055Z AUTO 00000KT 3SM SCT002 BKN027 OVC050 12/12 A3002 RMK AO1 LTG DSNT ALQDS P0003;EQDQ01+000000PRSWM2
0202723449999992000041307003+36370-094100FM-15+0415KROG V0201301N004610135019N0160931N1+00801+00001999999ADDGD13991+0135019GF107991999999999999999999GP10060000002000000002000000002000GR100600000900009MA1102401999999MW1001REMMET058KROG 130655Z AUTO 13009KT 10SM BKN045 08/00 A3024 RMK AO1;EQDQ01+000000PRSWM2
0201723449999992000041320003+36370-094100FM-15+0415KROG V0209999C000012200019N0160931N1+01801+00701999999ADDGF100991999999999999999999GP10060089402008086102015016102008GQ100600319921589GR100601153913599MA1102031999999MW1001REMMET055KROG 131955Z AUTO 00000KT 10SM CLR 18/07 A3013 RMK AO1;EQDQ01+000000PRSWM2
0184723449999992000042111003+36370-094100FM-15+0415KROG V0203301N004612200019N0160931N1+00501+00201999999ADDGF100991999999999999999999GP10060000002000000002000000002000GR100600000900009MA1101961999999MW1001REMMET055KROG 211055Z AUTO 33009KT 10SM CLR 05/02 A3011 RMK AO1;EQDQ01+000000PRSWM2
0270723449999992000042118003+36370-094100FM-15+0415KROG V0203601N004612200019N0160931N1+01301+00301999999ADDGF100991999999999999999999GP10060091402008081802015018102008GQ100600265915499GR100601210913529KA1999M+01301KA2999N+00501MA1102131999999MD1410001+9999MW1001OC100721REMMET076KROG 211755Z AUTO 36009G14KT 10SM CLR 13/03 A3016 RMK AO1 10130 20050 54000;EQDQ01+000000PRSWM2
0224723449999992000042708003+36370-094100FM-15+0415KROG V0201801N001512200019N0160931N1+00901+00801999999ADDGD12991+0108019GD22991+0144019GF102991999999999999999999GP10060000002000000002000000002000GR100600000900009MA1101731999999MW1001REMMET065KROG 270755Z AUTO 18003KT 10SM FEW036 FEW048 09/08 A3004 RMK AO1;EQDQ01+000000PRSWM2
0230723449999992000051122003+36370-094100FM-15+0415KROG V0202101N006710099019N0160931N1+02601+02001999999ADDGD13991+0099019GF107991999999999999999999GP10060054002008039702015026802008GQ100600469926079GR100600913913399MA1100441999999MW1001OC101181REMMET061KROG 112155Z AUTO 21013G23KT 10SM BKN033 26/20 A2966 RMK AO1;EQDQ01+000000PRSWM2
0195723449999992000051207003+36370-094100FM-15+0415KROG V0202001N005712200019N0160931N1+02301+01901999999ADDGF100991999999999999999999GP10060000002000000002000000002000GR100600000900009MA1100371999999MW1001OC101231REMMET058KROG 120655Z AUTO 20011G24KT 10SM CLR 23/19 A2964 RMK AO1;EQDQ01+000000PRSWM2
0212723449999992000051316003+36370-094100FM-15+0415KROG V0200101N004612200019N0160931N1+01401+00501999999ADDGF100991999999999999999999GP10060075402008077602015015902008GQ100600399910569GR100601025913379MA1102401999999MW1001OC100721REMMET058KROG 131555Z AUTO 01009G14KT 10SM CLR 14/05 A3024 RMK AO1;EQDQ01+000000PRSWM2
0213723449999992000051810003+36370-094100FM-15+0415KROG V0202001N007212200019N0160931N1+02101+01601999999ADDGD12991+0084019GF104991999999999999999999GP10060000002000000002000000002000GR100600000900009MA1100781999999MW1001OC101131REMMET061KROG 180955Z AUTO 20014G22KT 10SM SCT028 21/16 A2976 RMK AO1;EQDQ01+000000PRSWM2
0201723449999992000052201003+36370-094100FM-15+0415KROG V0209999C000012200019N0160931N1+02101+01401999999ADDGF100991999999999999999999GP10060008902008033302015003802008GQ100600812928909GR100600204913339MA1101391999999MW1001REMMET055KROG 220055Z AUTO 00000KT 10SM CLR 21/14 A2994 RMK AO1;EQDQ01+000000PRSWM2
0358723449999992000052706003+36370-094100FM-15+0415KROG V0201601N008710075019N0160931N1+02001+01901999999ADDAA106001391GD12991+0054019GD23991+0075019GF107991999999999999999999GP10060000002000000002000000002000GR100600000900009KA1999M+02601KA2999N+01901MA1100581999999MD1710171+9999MW1171OC101231REMMET124KROG 270555Z AUTO 16017G24KT 140V200 10SM TS SCT018 BKN025 20/19 A2970 RMK AO1 LTG DSNT ALQDS TSB51 60005 10260 20190 57017;EQDQ01+000003PRSWM1Q02    003PRSWM1
0259723449999992000052912003+36370-094100FM-15+0415KROG V0201801N002612200019N0160931N1+01701+01401999999ADDGF100991999999999999999999GP10060000002008000002015000002008GQ100600851906639GR100600109912749KA1999M+01801KA2999N+01601MA1101591999999MD1210071+9999MW1001REMMET073KROG 291155Z AUTO 18005KT 10SM CLR 17/14 A3000 RMK AO1 10180 20160 52007;EQDQ01+000000PRSWM2
0146723449999992000053117003+36370-094100FM-15+0415KROG V02099999999992200019N9999999N1+02801+01901999999ADDGP10060087302008074202015021002008GQ100600268911589GR100601184913289MW1001REMMET041KROG 311655Z AUTO 10SM CLR 28/19 RMK AO1;EQDQ01+000000PRSWM2
0184723449999992000060105003+36370-094100FM-15+0415KROG V0201301N002612200019N0160931N1+02201+01701999999ADDGF100991999999999999999999GP10060000002000000002000000002000GR100600000900009MA1101801999999MW1001REMMET055KROG 010455Z AUTO 13005KT 10SM CLR 22/17 A3006 RMK AO1;EQDQ01+000000PRSWM2
0258723449999992000060412003+36370-094100FM-15+0415KROG V0201201N003612200019N0128741N1+01801+01701999999ADDGF100991999999999999999999GP10060000002008000002015000002008GQ100600850906549GR100600115913169KA1999M+01901KA2999N+01701MA1101731999999MD1410001+9999MW1001REMMET072KROG 041155Z AUTO 12007KT 8SM CLR 18/17 A3004 RMK AO1 10190 20170 54000;EQDQ01+000000PRSWM2
0201723449999992000060714003+36370-094100FM-15+0415KROG V0201701N004112200019N0160931N1+01601+00901999999ADDGF100991999999999999999999GP10060040002008064602015009802008GQ100600621908119GR100600620913269MA1102511999999MW1001REMMET055KROG 071355Z AUTO 17008KT 10SM CLR 16/09 A3027 RMK AO1;EQDQ01+000000PRSWM2
0201723449999992000060902003+36370-094100FM-15+0415KROG V0201501N002112200019N0160931N1+02101+01301999999ADDGF100991999999999999999999GP10060000002008000002015000002008GQ100600875929719GR100600031906969MA1101731999999MW1001REMMET055KROG 090155Z AUTO 15004KT 10SM CLR 21/13 A3004 RMK AO1;EQDQ01+000000PRSWM2
0250723449999992000061321003+36360-094100FM-15+0415KROG V0201801N007212200019N0160931N1+02701+01901999999ADDGD12991+0120019GF102991999999999999999999GP10060050402008013102015039202008GQ100600316925459GR100601126913249MA1101351999999MD1710241+9999MW1001OC101131REMMET067KROG 132055Z AUTO 18014G22KT 10SM FEW040 27/19 A2993 RMK AO1 57024;EQDQ01+000000PRSWM2
0212723449999992000061401003+36360-094100FM-15+0415KROG V0201801N006712200019N0160931N1+02501+01701999999ADDGF100991999999999999999999GP10060011602008034802015004902008GQ100600789929099GR100600255913249MA1101081999999MW1001OC100931REMMET058KROG 140055Z AUTO 18013G18KT 10SM CLR 25/17 A2985 RMK AO1;EQDQ01+000000PRSWM2
0221723449999992000061515003+36360-094100FM-15+0415KROG V0202001N003612200019N0160931N1+01901+01701999999ADDGF100991999999999999999999GP10060058702008073202015011802008GQ100600502908859GR100600846913249MA1101321999999MD1210031+9999MW1001REMMET061KROG 151455Z AUTO 20007KT 10SM CLR 19/17 A2992 RMK AO1 52003;EQDQ01+000000PRSWM2
0293723449999992000062212003+36360-094100FM-15+0415KROG V0201601N002110009019N0048281N1+01601+01601999999ADDAA124013591GD14991+0009019GF108991999999999999999999GP10060000002008000002015000002008GQ100600851906429GR100600112913119KA1999M+01601KA2999N+01401MA1101861999999MD1210071+9999MW1001REMMET081KROG 221155Z AUTO 16004KT 3SM OVC003 16/16 A3008 RMK AO1 70053 10160 20140 52007;EQDQ01+000000PRSWM2
0219723449999992000062217003+36360-094100FM-15+0415KROG V0202801N003612200019N0160931N1+02401+02101999999ADDGD12991+0057019GF104991999999999999999999GP10060086102008067502015025702008GQ100600267911199GR100601179913229MA1101931999999MW1001REMMET058KROG 221655Z AUTO 28007KT 10SM SCT019 24/21 A3010 RMK AO1;EQDQ01+000000PRSWM2
0183723449999992000062310003+36360-094100FM-15+0415KROG V0201801N002112200019N0112651N1+02101+02101999999ADDGF100991999999999999999999GP10060000002000000002000000002000GR100600000900009MA1101731999999MW1001REMMET054KROG 230955Z AUTO 18004KT 7SM CLR 21/21 A3004 RMK AO1;EQDQ01+000000PRSWM2
0230723449999992000062317003+36360-094100FM-15+0415KROG V0202101N006712200019N0160931N1+02801+02301999999ADDGD12991+0078019GF102991999999999999999999GP10060037202008004202015033402008GQ100600268911199GR100601178913229MA1101761999999MW1001OC100821REMMET061KROG 231655Z AUTO 21013G16KT 10SM FEW026 28/23 A3005 RMK AO1;EQDQ01+000000PRSWM2
0202723449999992000070204003+36360-094100FM-15+0415KROG V0201701N003612200019N0160931N1+02401+02201999999ADDGD12991+0099019GF102991999999999999999999GP10060000002000000002000000002000GR100600000900009MA1101631999999MW1001REMMET058KROG 020355Z AUTO 17007KT 10SM FEW033 24/22 A3001 RMK AO1;EQDQ01+000000PRSWM2
0219723449999992000070216003+36360-094100FM-15+0415KROG V0202001N004112200019N0160931N1+02801+02201999999ADDGD12991+0150019GF102991999999999999999999GP10060055802008029102015033202008GQ100600390909819GR100601025913219MA1101661999999MW1001REMMET058KROG 021555Z AUTO 20008KT 10SM FEW050 28/22 A3002 RMK AO1;EQDQ01+000000PRSWM2
0219723449999992000070822003+36360-094100FM-15+0415KROG V0201901N003612200019N0160931N1+02901+02301999999ADDGD12991+0120019GF104991999999999999999999GP10060066402008066502015017602008GQ100600429926429GR100600966913219MA1101901999999MW1001REMMET058KROG 082155Z AUTO 19007KT 10SM SCT040 29/23 A3009 RMK AO1;EQDQ01+000000PRSWM2
0269723449999992000071500003+36360-094100FM-15+0415KROG V0209999C000012200019N0160931N1+03101+02101999999ADDGF100991999999999999999999GP10060030802008059902015007602008GQ100600672928069GR100600512913229KA1999M+03201KA2999N+02901MA1101691999999MD1710141+9999MW1001REMMET083KROG 142355Z AUTO 00000KT 10SM CLR 31/21 A3003 RMK AO1 10320 20290 403200180 57014;EQDQ01+000000PRSWM2
0232723449999992000071821003+36360-094100FM-15+0415KROG V0202201N005112200019N0160931N1+03101+02101999999ADDGF100991999999999999999999GP10060041802008007802015035202008GQ100600318924929GR100601122913239MA1101661999999MD1710201+9999MW1001OC100721REMMET064KROG 182055Z AUTO 22010G14KT 10SM CLR 31/21 A3002 RMK AO1 57020;EQDQ01+000000PRSWM2
0221723449999992000072421003+36360-094100FM-15+0415KROG V0201101N003112200019N0160931N1+02501+01301999999ADDGF100991999999999999999999GP10060075902008066802015019502008GQ100600325924739GR100601115913249MA1101961999999MD1710171+9999MW1001REMMET061KROG 242055Z AUTO 11006KT 10SM CLR 25/13 A3011 RMK AO1 57017;EQDQ01+000000PRSWM2
0245723449999992000073106003+36360-094100FM-15+0415KROG V0209999C000012200019N0024141N1+01801+01801999999ADDGF100991999999999999999999GP10060000002000000002000000002000GR100600000900009KA1999M+02301KA2999N+01801MA1101691999999MD1210071+9999MW1001REMMET076KROG 310555Z AUTO 00000KT 1 1/2SM CLR 18/18 A3003 RMK AO1 10230 20180 52007;EQDQ01+000000PRSWM2
0204723449999992000080113003+36360-094100FM-15+0415KROG V0209999C000012200019N0040231N1+01901+01801999999ADDGF100991999999999999999999GP10060013802008030802015007402008GQ100600780907659GR100600275913269MA1101961999999MW1001REMMET058KROG 011255Z AUTO 00000KT 2 1/2SM CLR 19/18 A3011 RMK AO1;EQDQ01+000000PRSWM2
0171723449999992000080422003+36360-094100FM-15+0415KROG V0202101N003612200019N0160931N1+03301+02001999999ADDGP10060059802008061702015016702008GQ100600456925759GR100600927913279MA1101761999999MW1001REMMET051KROG 042155Z AUTO 21007KT 10SM 33/20 A3005 RMK AO1;EQDQ01+000000PRSWM2
0154723449999992000080608003+36360-094100FM-15+0415KROG V0202001N004112200019N0160931N1+02401+01801999999ADDGP10060000002000000002000000002000GR100600000900009MA1101251999999MW1001REMMET051KROG 060755Z AUTO 20008KT 10SM 24/18 A2990 RMK AO1;EQDQ01+000000PRSWM2
0201723449999992000081322003+36360-094100FM-15+0415KROG V0201101N002612200019N0160931N1+03201+01901999999ADDGF100991999999999999999999GP10060060802008073502015011002008GQ100600474925499GR100600899913319MA1101631999999MW1001REMMET055KROG 132155Z AUTO 11005KT 10SM CLR 32/19 A3001 RMK AO1;EQDQ01+000000PRSWM2
0054723449999992000081410009+36367-094100NSRDB+041599999V020999999999999999999999999999+99999+99999999999ADDGP10060000002000000002000000002000GR100600000900009
0219723449999992000081819003+36360-094100FM-15+0415KROG V0200301N004610030019N0160931N1+02301+01901999999ADDGD14991+0030019GF108991999999999999999999GP10060033002008001802015031302008GQ100600240918599GR100601219913349MA1102171999999MW1001REMMET058KROG 181855Z AUTO 03009KT 10SM OVC010 23/19 A3017 RMK AO1;EQDQ01+000000PRSWM2
0242723449999992000082606003+36360-094100FM-15+0415KROG V0201601N001512200019N0160931N1+02401+01701999999ADDGF100991999999999999999999GP10060000002000000002000000002000GR100600000900009KA1999M+03401KA2999N+02401MA1101591999999MD1410001+9999MW1001REMMET073KROG 260555Z AUTO 16003KT 10SM CLR 24/17 A3000 RMK AO1 10340 20240 54000;EQDQ01+000000PRSWM2
0201723449999992000082801003+36360-094100FM-15+0415KROG V0202201N002112200019N0160931N1+03301+01501999999ADDGF100991999999999999999999GP10060002002008010402015001302008GQ100600855927899GR100600087911059MA1101191999999MW1001REMMET055KROG 280055Z AUTO 22004KT 10SM CLR 33/15 A2988 RMK AO1;EQDQ01+000000PRSWM2
0054723449999992000090809009+36367-094100NSRDB+041599999V020999999999999999999999999999+99999+99999999999ADDGP10060000002000000002000000002000GR100600000900009
0202723449999992000090908003+36360-094100FM-15+0415KROG V0201501N003112200019N0160931N1+02101+01801999999ADDGD12991+0081019GF102991999999999999999999GP10060000002000000002000000002000GR100600000900009MA1101521999999MW1001REMMET058KROG 090755Z AUTO 15006KT 10SM FEW027 21/18 A2998 RMK AO1;EQDQ01+000000PRSWM2
0204723449999992000091009003+36360-094100FM-15+0415KROG V0201501N003112200019N0160931N1+02101+01901999999ADDGF100991999999999999999999GP10060000002000000002000000002000GR100600000900009MA1101421999999MD1710031+9999MW1001REMMET061KROG 100855Z AUTO 15006KT 10SM CLR 21/19 A2995 RMK AO1 57003;EQDQ01+000000PRSWM2
0071723449999992000092419009+36367-094100NSRDB+041599999V020999999999999999999999999999+99999+99999999999ADDGP10060016102008000002015016102008GQ100600377918899GR100601075913599
0071723449999992000092622009+36367-094100NSRDB+041599999V020999999999999999999999999999+99999+99999999999ADDGP10060044002008070402015009202008GQ100600604924269GR100600670913619
0054723449999992000100210009+36367-094100NSRDB+041599999V020999999999999999999999999999+99999+99999999999ADDGP10060000002000000002000000002000GR100600000900009
0212723449999992000100219003+36360-094100FM-15+0415KROG V0202101N008212200019N0160931N1+02801+01401999999ADDGF100991999999999999999999GP10060076302008082102015014002008GQ100600409918939GR100601033913659MA1101151999999MW1001OC101081REMMET058KROG 021855Z AUTO 21016G21KT 10SM CLR 28/14 A2987 RMK AO1;EQDQ01+000000PRSWM2
0259723449999992000100418003+36360-094100FM-15+0415KROG V0202001N006212200019N0160931N1+02801+01901999999ADDGF100991999999999999999999GP10060075602008084802015012402008GQ100600420916709GR100601016913679KA1999M+02801KA2999N+01901MA1101351999999MD1710071+9999MW1001REMMET073KROG 041755Z AUTO 20012KT 10SM CLR 28/19 A2993 RMK AO1 10280 20190 57007;EQDQ01+000000PRSWM2
0071723449999992000100419009+36367-094100NSRDB+041599999V020999999999999999999999999999+99999+99999999999ADDGP10060074502008080302015014302008GQ100600416918949GR100601022913679
0230723449999992000100616003+36360-094100FM-15+0415KROG V0200301N007210045019N0160931N1+00801+00201999999ADDGD13991+0045019GF107991999999999999999999GP10060016902008000002015016902008GQ100600553913109GR100600779913699MA1102811999999MW1001OC100931REMMET061KROG 061555Z AUTO 03014G18KT 10SM BKN015 08/02 A3036 RMK AO1;EQDQ01+000000PRSWM2
0251723449999992000100621003+36360-094100FM-15+0415KROG V0200101N004112200019N0160931N1+01001-00201999999ADDGD12991+0270019GF104991999999999999999999GP10060030402008009502015024902008GQ100600540922689GR100600803913699MA1102781999999MD1710071+9999MW1001OC100821REMMET068KROG 062055Z AUTO 01008G16KT 10SM SCT095 10/M02 A3035 RMK AO1 57007;EQDQ01+000000PRSWM2
0185723449999992000100905003+36360-094100FM-15+0415KROG V0209999C000012200019N0160931N1+00101-00601999999ADDGF100991999999999999999999GP10060000002000000002000000002000GR100600000900009MA1103661999999MW1001REMMET056KROG 090455Z AUTO 00000KT 10SM CLR 01/M06 A3061 RMK AO1;EQDQ01+000000PRSWM2
0270723449999992000101100003+36360-094100FM-15+0415KROG V0202201N003112200019N0160931N1+01301-00601999999ADDGF100991999999999999999999GP10060001602008016302015000902008GQ100600859925839GR100600074910409KA1999M+01701KA2999N+01301MA1102571999999MD1710031+9999MW1001REMMET084KROG 102355Z AUTO 22006KT 10SM CLR 13/M06 A3029 RMK AO1 10170 20130 401701020 57003;EQDQ01+000000PRSWM2
0260723449999992000101412003+36360-094100FM-15+0415KROG V0201801N002112200019N0160931N1+01701+00401999999ADDGD12991+0150019GF102991999999999999999999GP10060000002000000002000000002000GR100600000900009KA1999M+01801KA2999N+01701MA1102001999999MD1210031+9999MW1001REMMET076KROG 141155Z AUTO 18004KT 10SM FEW050 17/04 A3012 RMK AO1 10180 20170 52003;EQDQ01+000000PRSWM2
0219723449999992000101416003+36360-094100FM-15+0415KROG V0202001N007212200019N0160931N1+02201+01201999999ADDGD12991+0120019GF102991999999999999999999GP10060048202008048302015022102008GQ100600574913379GR100600741913759MA1102101999999MW1001REMMET058KROG 141555Z AUTO 20014KT 10SM FEW040 22/12 A3015 RMK AO1;EQDQ01+000000PRSWM2
0179723449999992000101905003+36360-094100FM-15+0415KROG V0201401N001512200019N0160931N1+01301+00901999999ADDGF100991999999999999999999GP10060000002000000002000000002000GR100600000900009MA1102341999999MW1001REMMET050KROG 190455Z 14003KT 10SM CLR 13/09 A3022 RMK AO1;EQDQ01+000000PRSWM2
0179723449999992000101907003+36360-094100FM-15+0415KROG V0201401N001512200019N0160931N1+01201+00901999999ADDGF100991999999999999999999GP10060000002000000002000000002000GR100600000900009MA1102341999999MW1001REMMET050KROG 190655Z 14003KT 10SM CLR 12/09 A3022 RMK AO1;EQDQ01+000000PRSWM2
0199723449999992000102103003+36360-094100FM-15+0415KROG V0202601N002112200019N0160931N1+01501+00901999999ADDGF100991999999999999999999GP10060000002000000002000000002000GR100600000900009MA1102031999999MD1210141+9999MW1001REMMET056KROG 210255Z 26004KT 10SM CLR 15/09 A3013 RMK AO1 52014;EQDQ01+000000PRSWM2
0147723449999992000102808354+36360-094100FM-15+0415KROG V0201001N002110003019N0004021N1+01501+01401999999ADDGD14991+0003019GF108991999999999999999999MA1102341999999MW1001REMMET054KROG 280835Z 10004KT 1/4SM OVC001 15/14 A3022 RMK AO1;EQDQ01+000000PRSWM2
0071723449999992000102900009+36367-094100NSRDB+041599999V020999999999999999999999999999+99999+99999999999ADDGP10060000002008000002015000002008GQ100600881925199GR100600017905209
0128723449999992000103123354+36360-094100FM-15+0415KROG V0201601N004612200019N0160931N1+02301+01601999999ADDGF100991999999999999999999MA1101761999999MW1001REMMET050KROG 312335Z 16009KT 10SM CLR 23/16 A3005 RMK AO1;EQDQ01+000000PRSWM2
0128723449999992000110106354+36360-094100FM-15+0415KROG V0201601N005112200019N0160931N1+01901+01401999999ADDGF100991999999999999999999MA1101661999999MW1001REMMET050KROG 010635Z 16010KT 10SM CLR 19/14 A3002 RMK AO1;EQDQ01+000000PRSWM2
0071723449999992000110323009+36367-094100NSRDB+041599999V020999999999999999999999999999+99999+99999999999ADDGP10060002702008000002015002702008GQ100600819924419GR100600196913919
0146723449999992000110401354+36360-094100FM-15+0415KROG V0200801N003610138019N0160931N1+01101+00701999999ADDGD13991+0138019GF107991999999999999999999MA1102401999999MW1001REMMET053KROG 040135Z 08007KT 10SM BKN046 11/07 A3024 RMK AO1;EQDQ01+000000PRSWM2
0071723449999992000110718009+36367-094100NSRDB+041599999V020999999999999999999999999999+99999+99999999999ADDGP10060011602008000002015011602008GQ100600535917109GR100600829913939
0180723449999992000111101003+36360-094100FM-15+0415KROG V0200301N002112200019N0160931N1+00201-00201999999ADDGF100991999999999999999999GP10060000002000000002000000002000GR100600000900009MA1102071999999MW1001REMMET051KROG 110055Z 03004KT 10SM CLR 02/M02 A3014 RMK AO1;EQDQ01+000000PRSWM2
0146723449999992000111208354+36360-094100FM-15+0415KROG V0202201N002110042019N0160931N1+00501+00101999999ADDGD14991+0042019GF108991999999999999999999MA1101631999999MW1001REMMET053KROG 120835Z 22004KT 10SM OVC014 05/01 A3001 RMK AO1;EQDQ01+000000PRSWM2
0071723449999992000111413009+36367-094100NSRDB+041599999V020999999999999999999999999999+99999+99999999999ADDGP10060000002008000002015000002008GQ100600896911309GR100600001901289
0239723449999992000111506003+36360-094100FM-15+0415KROG V0201901N002612200019N0160931N1-00101-00601999999ADDGF100991999999999999999999GP10060000002000000002000000002000GR100600000900009KA1999M+00301KA2999N-00101MA1102201999999MD1710071+9999MW1001REMMET070KROG 150555Z 19005KT 10SM CLR M01/M06 A3018 RMK AO1 10030 21010 57007;EQDQ01+000000PRSWM2
0130723449999992000111507354+36360-094100FM-15+0415KROG V0209999C000012200019N0160931N1-00201-00601999999ADDGF100991999999999999999999MA1102131999999MW1001REMMET052KROG 150735Z 00000KT 10SM CLR M02/M06 A3016 RMK AO1;EQDQ01+000000PRSWM2
0129723449999992000111617354+36360-094100FM-15+0415KROG V0203301N003112200019N0160931N1+00601-00401999999ADDGF100991999999999999999999MA1101631999999MW1001REMMET051KROG 161735Z 33006KT 10SM CLR 06/M04 A3001 RMK AO1;EQDQ01+000000PRSWM2
0146723449999992000112305354+36360-094100FM-15+0415KROG V0201601N002110135019N0160931N1+00701+00201999999ADDGD13991+0135019GF107991999999999999999999MA1102201999999MW1001REMMET053KROG 230535Z 16004KT 10SM BKN045 07/02 A3018 RMK AO1;EQDQ01+000000PRSWM2
0054723449999992000112311009+36367-094100NSRDB+041599999V020999999999999999999999999999+99999+99999999999ADDGP10060000002000000002000000002000GR100600000900009
0071723449999992000112620009+36367-094100NSRDB+041599999V020999999999999999999999999999+99999+99999999999ADDGP10060046502009074802021010202009GQ100600611920309GR100600680914059
0152723449999992000120211354+36360-094100FM-15+0415KROG V0203601N003610030019N0160931N1+00101-00201999999ADDGD14991+0030019GF108991999999999999999999MA1103011999999MW1001REMMET059KROG 021135Z AUTO 36007KT 10SM OVC010 01/M02 A3042 RMK AO1;EQDQ01+000000PRSWM2
0134723449999992000120519354+36360-094100FM-15+0415KROG V0200701N002112200019N0160931N1+00701-00701999999ADDGF100991999999999999999999MA1102681999999MW1001REMMET056KROG 051935Z AUTO 07004KT 10SM CLR 07/M07 A3032 RMK AO1;EQDQ01+000000PRSWM2
0054723449999992000120702009+36367-094100NSRDB+041599999V020999999999999999999999999999+99999+99999999999ADDGP10060000002000000002000000002000GR100600000900009
0054723449999992000120813009+36367-094100NSRDB+041599999V020999999999999999999999999999+99999+99999999999ADDGP10060000002000000002000000002000GR100600000900009
0054723449999992000121005009+36367-094100NSRDB+041599999V020999999999999999999999999999+99999+99999999999ADDGP10060000002000000002000000002000GR100600000900009
0071723449999992000122018009+36367-094100NSRDB+041599999V020999999999999999999999999999+99999+99999999999ADDGP10060011702009000002021011702009GQ100600608916849GR100600689914149
0135723449999992000122402354+36360-094100FM-15+0415KROG V0203501N002612200019N0160931N1-00101-00801999999ADDGF100991999999999999999999MA1102741999999MW1001REMMET057KROG 240235Z AUTO 35005KT 10SM CLR M01/M08 A3034 RMK AO1;EQDQ01+000000PRSWM2
0054723449999992000122513009+36367-094100NSRDB+041599999V020999999999999999999999999999+99999+99999999999ADDGP10060000002000000002000000002000GR100600000900009
0153723449999992000123100354+36360-094100FM-15+0415KROG V0203001N002110078019N0160931N1-00701-01201999999ADDGD14991+0078019GF108991999999999999999999MA1102611999999MW1001REMMET060KROG 310035Z AUTO 30004KT 10SM OVC026 M07/M12 A3030 RMK AO1;EQDQ01+000000PRSWM2
0071723489039352000010119009+37233-089567NSRDB+010399999V020999999999999999999999999999+99999+99999999999ADDGP10060049202009080202021009902009GQ100600607918749GR100600692914159
0332723489039352000010413533+37233-089567FM-15+0103CGI  V0203105N00465064015MN0160005N1+00225-00115101835ADDGD14995+0064059GF108991999999999999999999MA1101835999999MW1001REMMET088KCGI 041353Z AUTO 31009KT 10SM OVC021 02/M01 A3007 RMK AO2 SLP183 T00221011 FZRANO TSNO;EQDQ01+000000PRSWM2N01 00000JPWTH 0QNNAA1D0 06021BA1 0 06021GA1 0 00210KA1D0 00030JA1 0-00011LA1 0 01000CA1 0 03007NA1 0 00000QA1 0 10183SA1D0 00036RA1 0 00022YA1 0 31009
0071723489039352000010416009+37233-089567NSRDB+010399999V020999999999999999999999999999+99999+99999999999ADDGP10060006202009000002021006202009GQ100600700914269GR100600483914159
0071723489039352000010823009+37233-089567NSRDB+010399999V020999999999999999999999999999+99999+99999999999ADDGP10060003602009016202021002402009GQ100600856923779GR100600101913099
0327723489039352000011114533+37233-089567FM-15+0103CGI  V0202505N00525220005MN0160005N1+00675-00675101825ADDGF100991999999999999999999MA1101835999999MD1310301+9999MW1001REMMET084KCGI 111453Z AUTO 25010KT 10SM CLR 07/M07 A3007 RMK AO2 SLP182 T00671067 53030 TSNO;EQDQ01+000000PRSWM2N01 00000JPWTH 0QNNAA1D0 00000BA1 0 00000GA1U0 99999KA1D0 00020JA1 0-00067LA1 0 01000CA1 0 03007NA1 0 00000QA1 0 10182SA1D0 00044RA1 0 00067YA1 0 25010
0325723489039352000011315533+37233-089567FM-15+0103CGI  V0203305N00825220005MN0160005N1+00225-00615103215ADDGF100991999999999999999999MA1103225999999MW1001OC101181REMMET088KCGI 131553Z AUTO 33016G23KT 10SM CLR 02/M06 A3048 RMK AO2 SLP321 T00221061 FZRANO TSNO;EQDQ01+000000PRSWM2N01 00000JPWTH 0QNNAA1D0 00000BA1 0 00000GA1U0 99999KA1D0 00021JA1 0-00061LA1 0 01000CA1 0 03048NA1 0 00000QA1 0 10321SA1D0 00036RA1 0 00022YA1 0 33016
0332723489039352000011710533+37233-089567FM-15+0103CGI  V0200505N00465213365MN0160005N1+00225-00285103035ADDGD13995+0213459GF107991999999999999999999MA1103015999999MW1001REMMET088KCGI 171053Z AUTO 05009KT 10SM BKN070 02/M03 A3042 RMK AO2 SLP303 T00221028 FZRANO TSNO;EQDQ01+000000PRSWM2N01 00000JPWTH 0QNNAA1D0 04070BA1 0 04070GA1 0 00700KA1D0 00027JA1 0-00028LA1 0 01000CA1 0 03042NA1 0 00000QA1 0 10303SA1D0 00036RA1 0 00022YA1 0 05009
0054723489039352000011807009+37233-089567NSRDB+010399999V020999999999999999999999999999+99999+99999999999ADDGP10060000002000000002000000002000GR100600000900009
0054723489039352000012406009+37233-089567NSRDB+010399999V020999999999999999999999999999+99999+99999999999ADDGP10060000002000000002000000002000GR100600000900009
0071723489039352000012419009+37233-089567NSRDB+010399999V020999999999999999999999999999+99999+99999999999ADDGP10060057302008084502015010802008GQ100600568918559GR100600773914129
0071723489039352000020300009+37233-089567NSRDB+010399999V020999999999999999999999999999+99999+99999999999ADDGP10060000002008000002015000002008GQ100600882924759GR100600016905059
0054723489039352000020309009+37233-089567NSRDB+010399999V020999999999999999999999999999+99999+99999999999ADDGP10060000002000000002000000002000GR100600000900009
0071723489039352000020317009+37233-089567NSRDB+010399999V020999999999999999999999999999+99999+99999999999ADDGP10060052202008081502015010102008GQ100600590915139GR100600724914089
0352723489039352000020514533+37233-089567FM-15+0103CGI  V0202805N00365010675MN0160005N1+00005-00725103315ADDGD13995+0106759GF107991999999999999999999MA1103285999999MD1310081+9999MW1001REMMET094KCGI 051453Z AUTO 28007KT 10SM BKN035 00/M07 A3050 RMK AO2 SLP331 T00001072 53008 FZRANO TSNO;EQDQ01+000000PRSWM2N01 00000JPWTH 0QNNAA1D0 04035BA1 0 04035GA1 0 00035KA1D0 00019JA1 0-00072LA1 0 01000CA1 0 03050NA1 0 00000QA1 0 10331SA1D0 00032RA1 0 00000YA1 0 28007
0054723489039352000020608009+37233-089567NSRDB+010399999V020999999999999999999999999999+99999+99999999999ADDGP10060000002000000002000000002000GR100600000900009
0382723489039352000020705533+37233-089567FM-15+0103CGI  V0201505N00215220005MN0160005N1+00225-00115102485ADDGF100991999999999999999999KA1999M+00561KA2999N+00221MA1102475999999MD1810011+9999MW1001REMMET113KCGI 070553Z AUTO 15004KT 10SM CLR 02/M01 A3026 RMK AO2 SLP248 T00221011 10056 20022 400831078 58001 FZRANO TSNO;EQDQ01+000000PRSWM2N01 00000JPWTH 0QNNAA1D0 00000BA1 0 00000GA1U0 99999KA1D0 00030JA1 0-00011LA1 0 01000CA1 0 03026NA1 0 00000QA1 0 10248SA1D0 00036RA1 0 00022YA1 0 15004
0054723489039352000020912009+37233-089567NSRDB+010399999V020999999999999999999999999999+99999+99999999999ADDGP10060000002000000002000000002000GR100600000900009
0349723489039352000021112533+37233-089567FM-15+0103CGI  V0200105N00525005495MN0080005N1+00395+00005101845ADDGD14995+0054959GF108991999999999999999999MA1101835999999MW1055REMMET089KCGI 111253Z AUTO 01010KT 5SM HZ OVC018 04/00 A3007 RMK AO2 PRESRR SLP184 T00390000 TSNO;EQDQ01+000003PRSWM1Q02    003PRSWM1N01 00081JPWTH 0QNNAA1D0 06018BA1 0 06018GA1 0 00018KA1D0 00032JA1 0 00000LA1 0 00500CA1 0 03007NA1 0 00081QA1 0 10184SA1D0 00039RA1 0 00039YA1 0 01010
0377723489039352000021302533+37233-089567FM-15+0103CGI  V0201605N00575001835MN0048005N1+00225+00115101735ADDGD14995+0018359GF108991999999999999999999MA1101695999999MD1710101+9999MW1101MW2455REMMET097KCGI 130253Z AUTO 16011KT 3SM BR OVC006 02/01 A3003 RMK AO2 SLP173 T00220011 57010 FZRANO TSNO $;EQDQ01+000003PRSWM1Q02    003PRSWM1N01 00070JPWTH 0QNNAA1D0 06006BA1 0 06006GA1 0 00006KA1D0 00034JA1 0 00011LA1 0 00300CA1 0 03003NA1 0 00070QA1 0 10173SA1D0 00036RA1 0 00022YA1 0 16011
0054723489039352000021305009+37233-089567NSRDB+010399999V020999999999999999999999999999+99999+99999999999ADDGP10060000002000000002000000002000GR100600000900009
0435723489039352000021402533+37233-089567FM-15+0103CGI  V0203305N00465001835MN0112005N1+00725+00615100625ADDAA101000391AA203000391GD13995+0018359GD24995+0033559GF108991999999999999999999MA1100645999999MD1310291+9999MW1001REMMET118KCGI 140253Z AUTO 33009KT 7SM BKN006 OVC011 07/06 A2972 RMK AO2 CIG 006V010 SLP062 P0001 60001 T00720061 53029 TSNO $;EQDQ01+000000PRSWM2N01 00000JPWTH 0QNNAA1D0 04006BA1 0 04006AA1D0 06011BA1 0 06011GA1 0 00006KA1D0 00043JA1 0 00061LA1 0 00700CA1 0 02972NA1 0 00000QA1 0 10062SA1D0 00045RA1 0 00072YA1 0 33009
0071723489039352000021422009+37233-089567NSRDB+010399999V020999999999999999999999999999+99999+99999999999ADDGP10060011102008000002015011102008GQ100600684923269GR100600516914039
0393723489039352000021611533+37233-089567FM-15+0103CGI  V0203505N00825220005MN0096005N1+00615+00225102175ADDGF100991999999999999999999KA1999M+00941KA2999N+00391MA1102175999999MD1310421+9999MW1055OC101181REMMET100KCGI 161153Z AUTO 35016G23KT 6SM HZ CLR 06/02 A3017 RMK AO2 SLP217 T00610022 10094 20039 53042 TSNO;EQDQ01+000003PRSWM1Q02    003PRSWM1N01 00081JPWTH 0QNNAA1D0 00000BA1 0 00000GA1U0 99999KA1D0 00036JA1 0 00022LA1 0 00600CA1 0 03017NA1 0 00081QA1 0 10217SA1D0 00043RA1 0 00061YA1 0 35016
0355723489039352000022220533+37233-089567FM-15+0103CGI  V0201905N00725220005MN0160005N1+01725+00725102125ADDGD12995+0274359GF104991999999999999999999MA1102135999999MD1610271+9999MW1001OC101181REMMET089KCGI 222053Z AUTO 19014G23KT 10SM SCT090 17/07 A3016 RMK AO2 SLP212 T01720072 56027 TSNO;EQDQ01+000000PRSWM2N01 00000JPWTH 0QNNAA1D0 02090BA1 0 02090GA1U0 99999KA1D0 00045JA1 0 00072LA1 0 01000CA1 0 03016NA1 0 00000QA1 0 10212SA1D0 00063RA1 0 00172YA1 0 19014
0071723489039352000022313009+37233-089567NSRDB+010399999V020999999999999999999999999999+99999+99999999999ADDGP10060000002008000002015000002008GQ100600882910379GR100600015904779
0306723489039352000022800533+37233-089567FM-15+0103CGI  V0209999C00005220005MN0160005N1+00725+00225102525ADDGF100991999999999999999999MA1102515999999MW1001REMMET077KCGI 280053Z AUTO 00000KT 10SM CLR 07/02 A3027 RMK AO2 SLP252 T00720022 TSNO;EQDQ01+000000PRSWM2N01 00000JPWTH 0QNNAA1D0 00000BA1 0 00000GA1U0 99999KA1D0 00036JA1 0 00022LA1 0 01000CA1 0 03027NA1 0 00000QA1 0 10252SA1D0 00045RA1 0 00072YA1 0 00000
0306723489039352000022912533+37233-089567FM-15+0103CGI  V0201305N00675220005MN0160005N1+00725+00115102005ADDGF100991999999999999999999MA1102005999999MW1001REMMET077KCGI 291253Z AUTO 13013KT 10SM CLR 07/01 A3012 RMK AO2 SLP200 T00720011 TSNO;EQDQ01+000000PRSWM2N01 00000JPWTH 0QNNAA1D0 00000BA1 0 00000GA1U0 99999KA1D0 00034JA1 0 00011LA1 0 01000CA1 0 03012NA1 0 00000QA1 0 10200SA1D0 00045RA1 0 00072YA1 0 13013
1219723489039352000030105596+37225-089571SOM  +0107KCGI V020999999999999999999999999999+99999+99999999999ADDAB10123796AD10045291717999999996AE1076066999005AH1005006991814205AH2010011991814245AH3015012291814255AH4020012291814255AH5030012291814255AH6045014292609165AI1060017092609215AI2080020392609455AI3100022692610005AI4120023192610055AI5150024492610415AI6180025492611205KB1696N+00615KB2696M+12285KB3696A+06445KD1696H06137KD2696C00016KE1005005165005MH1100754102174MK1103352011165100171316235REMSOM725PCP MTOT: 4.87 DEPNRM: 2.00 PCP GT 24HRS: 1.78 DATE(S):171+ DAYS W/PCP >=.01: 7 DAYS W/PCP >=.10: 6 DAYS W/PCP >=1.00:  MSDP AMTS W/DATE-TIME TAGS:MIN:5  .27  18/1420 MIN:10  .47  18/1424 MIN:15  .48  18/1425 MIN:20  .48  18/1425 MIN:30  .48  18/1425 MIN:45  .56  26/0916 MIN:60  .67  26/0921 MIN:80  .80  26/0945 MIN:100  .89  26/1000 MIN:120  .91  26/1005 MIN:150  .96  26/1041 MIN:180 1.00  26/1120 SN GT DP ON GRND:0 DATE(S):0  AVG DLY MIN: 33.1 AVG DLY MAX: 54.1 AVG MLY TMP: 43.6 DAYS MAX <=32:  DAYS MAX >=70: 0 DAYS MAX >=90: 0 DAYS MIN <=32:16 DAYS MIN  <=0: 0 AVG STP:29.75  AVG SLP:30.17  LWST SLP:29.58 DATE/TIME:131623 HGST SLP:30.52 DATE/TIME:201116 HDD MTH TOT: 613 DEP NORM:-191 CDD MTH TOT:   1 DEP NORM:   1EQDR01  4.877ABP070R02  1.787ADP081R03     77AE1100R04      7AE2103R05   6137KDH015R06     17KDC058
0376723489039352000030117533+37233-089567FM-15+0103CGI  V0203305N00625220005MN0160005N1+01505-00115102125ADDGF100991999999999999999999KA1999M+01501KA2999N+01111MA1102135999999MD1110171+9999MW1001OC101081REMMET099KCGI 011753Z AUTO 33012G21KT 10SM CLR 15/M01 A3016 RMK AO2 SLP212 T01501011 10150 20111 51017 TSNO;EQDQ01+000000PRSWM2N01 00000JPWTH 0QNNAA1D0 00000BA1 0 00000GA1U0 99999KA1D0 00030JA1 0-00011LA1 0 01000CA1 0 03016NA1 0 00000QA1 0 10212SA1D0 00059RA1 0 00150YA1 0 33012
0309723489039352000030209533+37233-089567FM-15+0103CGI  V0203605N00415220005MN0160005N1+00395-00065102345ADDGF100991999999999999999999MA1102345999999MW1001REMMET080KCGI 020953Z AUTO 36008KT 10SM CLR 04/M01 A3022 RMK AO2 SLP234 T00391006 TSNO $;EQDQ01+000000PRSWM2N01 00000JPWTH 0QNNAA1D0 00000BA1 0 00000GA1U0 99999KA1D0 00031JA1 0-00006LA1 0 01000CA1 0 03022NA1 0 00000QA1 0 10234SA1D0 00039RA1 0 00039YA1 0 36008
0326723489039352000030520533+37233-089567FM-15+0103CGI  V0201805N00365220005MN0160005N1+01725+00065101745ADDGF100991999999999999999999MA1101735999999MD1610191+9999MW1001REMMET083KCGI 052053Z AUTO 18007KT 10SM CLR 17/01 A3004 RMK AO2 SLP174 T01720006 56019 TSNO;EQDQ01+000000PRSWM2N01 00000JPWTH 0QNNAA1D0 00000BA1 0 00000GA1U0 99999KA1D0 00033JA1 0 00006LA1 0 01000CA1 0 03004NA1 0 00000QA1 0 10174SA1D0 00063RA1 0 00172YA1 0 18007
0306723489039352000030601533+37233-089567FM-15+0103CGI  V0209999C00005220005MN0160005N1+00675+00335101845ADDGF100991999999999999999999MA1101835999999MW1001REMMET077KCGI 060153Z AUTO 00000KT 10SM CLR 07/03 A3007 RMK AO2 SLP184 T00670033 TSNO;EQDQ01+000000PRSWM2N01 00000JPWTH 0QNNAA1D0 00000BA1 0 00000GA1U0 99999KA1D0 00038JA1 0 00033LA1 0 01000CA1 0 03007NA1 0 00000QA1 0 10184SA1D0 00044RA1 0 00067YA1 0 00000
0316723489039352000030813533+37233-089567FM-15+0103CGI  V0201805N00675220005MN0128005N1+01675+01115101615ADDGF100991999999999999999999MA1101635999999MW1001OC100981REMMET079KCGI 081353Z AUTO 18013G19KT 8SM CLR 17/11 A3001 RMK AO2 SLP161 T01670111 TSNO;EQDQ01+000000PRSWM2N01 00000JPWTH 0QNNAA1D0 00000BA1 0 00000GA1U0 99999KA1D0 00052JA1 0 00111LA1 0 00800CA1 0 03001NA1 0 00000QA1 0 10161SA1D0 00062RA1 0 00167YA1 0 18013
0335723489039352000031109533+37233-089567FM-15+0103CGI  V0200205N00885010065MN0144005N1+00445-00115101315ADDGD14995+0100659GF108991999999999999999999MA1101325999999MW1001OC101031REMMET083KCGI 110953Z AUTO 02017G20KT 9SM OVC033 04/M01 A2992 RMK AO2 SLP131 T00441011 TSNO;EQDQ01+000000PRSWM2N01 00000JPWTH 0QNNAA1D0 06033BA1 0 06033GA1 0 00033KA1D0 00030JA1 0-00011LA1 0 00900CA1 0 02992NA1 0 00000QA1 0 10131SA1D0 00040RA1 0 00044YA1 0 02017
0071723489039352000031320009+37233-089567NSRDB+010399999V020999999999999999999999999999+99999+99999999999ADDGP10060073502008084202015013102008GQ100600443921019GR100600990913839
0071723489039352000031515009+37233-089567NSRDB+010399999V020999999999999999999999999999+99999+99999999999ADDGP10060042002008067102015012102008GQ100600636911519GR100600614913829
0323723489039352000031622533+37233-089567FM-15+0103CGI  V0203405N00825004575MN0144005N1+00445+00175101815ADDGD14995+0045759GF108991999999999999999999MA1101795999999MW1001REMMET079KCGI 162253Z AUTO 34016KT 9SM OVC015 04/02 A3006 RMK AO2 SLP181 T00440017 TSNO;EQDQ01+000000PRSWM2N01 00000JPWTH 0QNNAA1D0 06015BA1 0 06015GA1 0 00015KA1D0 00035JA1 0 00017LA1 0 00900CA1 0 03006NA1 0 00000QA1 0 10181SA1D0 00040RA1 0 00044YA1 0 34016
0371723489039352000031717533+37233-089567FM-15+0103CGI  V0200205N00465220005MN0160005N1+00895-00445102875ADDGF100991999999999999999999KA1999M+00891KA2999N+00061MA1102885999999MD1010021+9999MW1001OC100821REMMET094KCGI 171753Z AUTO 02009G16KT 10SM CLR 09/M04 A3038 RMK AO2 SLP287 T00891044 10089 20006 50002;EQDQ01+000000PRSWM2N01 00000JPWTH 0QNNAA1D0 00000BA1 0 00000GA1U0 99999KA1D0 00024JA1 0-00044LA1 0 01000CA1 0 03038NA1 0 00000QA1 0 10287SA1D0 00048RA1 0 00089YA1 0 02009
