0167829860999992000090218004-09390-038210FM-12+0252SBUF V0201401N003112200019N0500001N1+03091+01441101051ADDAA199000091GF102991011011012501001011MA1999999098201MD1999999-0161REMSYN070AAXX  02184 82986 32699 21406 10309 20144 39820 40105 81101 333 59016;EQDQ01  00002PRCP99
0139829860999992000092314004-09390-038210FM-15+0252SBUF V0201301N005112200019N0112651N1+02801+01601999999ADDGA1021+006009999GF104991999999999999999999MA1101591999999MW1001REMMET045SBUF 231400Z 13010KT 9999 SCT020 28/16 Q1016;EQDQ01+000000PRSWM2
0140829860999992000092513004-09390-038210FM-15+0252SBUF V0201301N007712200019N0112651N1+02701+01801999999ADDGA1021+006009999GF104991999999999999999999MA1101591999999MW1001REMMET046SBUF 251300Z 13015KT 9999 SCT020 27/18 Q1016 ;EQDQ01+000000PRSWM2
0196829860999992000101500004-09390-038210FM-12+0252SBUF V0201401N003112200019N0020001N1+02431+01651101631ADDAA199000091GA1001+999999999GF100991001001999999001001KA1240M+03201MA1999999098771MD1999999+0021REMSYN070AAXX  15004 82986 32995 01406 10243 20165 39877 40163 333 10320 58002;EQDQ01  00002PRCP99
0162829860999992000110517004-09390-038210FM-15+0252SBUF V0202801N002110300019N0112651N1+03301+01601999999ADDGA1021+006009999GA2071+030009999GF107991999999999999999999MA1100711999999MW1001REMMET052SBUF 051700Z 28004KT 9999 FEW020 BKN100 33/16 Q1007;EQDQ01+000000PRSWM2
0139829860999992000111715004-09390-038210FM-15+0252SBUF V0201101N006212200019N0112651N1+03201+01901999999ADDGA1021+006009999GF104991999999999999999999MA1101291999999MW1001REMMET045SBUF 171500Z 11012KT 9999 SCT020 32/19 Q1013;EQDQ01+000000PRSWM2
0162829860999992000120721004-09390-038210FM-15+0252SBUF V0201301N005112200019N0112651N1+03301+01601999999ADDGA1021+006009999GA2021+030009999GF104991999999999999999999MA1100911999999MW1001REMMET052SBUF 072100Z 13010KT 9999 FEW020 SCT100 33/16 Q1009;EQDQ01+000000PRSWM2
0139829860999992000120813004-09390-038210FM-15+0252SBUF V0200901N005110090019N0112651N1+02901+01901999999ADDGA1071+009009999GF107991999999999999999999MA1101591999999MW1001REMMET045SBUF 081300Z 09010KT 9999 BKN030 29/19 Q1016;EQDQ01+000000PRSWM2
0139829860999992000123110004-09390-038210FM-15+0252SBUF V0201301N004112200019N0112651N1+02401+02101999999ADDGA1021+006009999GF102991999999999999999999MA1101391999999MW1001REMMET045SBUF 311000Z 13008KT 9999 FEW020 24/21 Q1014;EQDQ01+000000PRSWM2
0139829930999992000011407004-09520-035780FM-15+0115SBMO V0200801N002112200019N0112651N1+02301+02201999999ADDGA1021+006009999GF104991999999999999999999MA1100911999999MW1001REMMET045SBMO 140700Z 08004KT 9999 SCT020 23/22 Q1009;EQDQ01+000000PRSWM2
0250829930999992000011809004-09520-035780SY-MT+0115SBMO V0201001N002112200019N0200001N1+02341+02241101221ADDGA1021+006009999GA2021+030009999GF104991021011008001001011MA1101291999999MD1999999+0121MW1001REMSYN068    AAXX  18094 82993 42570 41004 10234 20224 40122 82101 333 58012;MET052SBMO 180900Z 10004KT 9999 FEW020 SCT100 23/22 Q1013;EQDQ01+000000PRSWM2
0091829930999992000012510004-09520-035780FM-15+0115SBMO V0200901N00211220001CN0099001N1+02501+02301999999ADDMA1101291999999MW1001REMMET039SBMO 251000Z 09004KT CAVOK 25/23 Q1013;EQDQ01+000000PRSWM2
0285829930999992000020312004-09520-035780SY-MT+0115SBMO V0200801N005712200019N0200001N1+03001+02271101101ADDAA199000091GA1021+006009999GF199999011011008001001001KA1240N+02401MA1101081999999MD1999999-0151MW1001REMSYN070AAXX  03124 82993 32570 10811 10300 20227 40110 81100 333 20240 59015;MET045SBMO 031200Z 08011KT 9999 FEW020 30/23 Q1011;EQDQ01+000012SCOTCVQ02+000000PRSWM2Q03  00002PRCP99
0139829930999992000020801004-09520-035780FM-15+0115SBMO V0201101N002112200019N0112651N1+02501+02401999999ADDGA1021+006009999GF102991999999999999999999MA1101391999999MW1001REMMET045SBMO 080100Z 11004KT 9999 FEW020 25/24 Q1014;EQDQ01+000000PRSWM2
0284829930999992000021015004-09520-035780SY-MT+0115SBMO V0200901N005112200019N0200001N1+03041+02331101311ADDAY161031AY221031GA1021+006009999GA2021+060009999GF105991041021008001001011MA1101291999999MD1999999+0021MW1011REMSYN070AAXX  10154 82993 41570 50910 10304 20233 40131 70162 84201 333 58002;MET052SBMO 101500Z 09010KT 9999 SCT020 SCT200 30/23 Q1013;EQDQ01+000000PRSWM2Q02    003PRSWM1
0116829930999992000021209004-09520-035780FM-12+0115SBMO V0200901N003112200019N0200001N1+02361+02221101301ADDGF102991021011008001001001MD1999999+0051REMSYN064AAXX  12094 82993 42570 20906 10236 20222 40130 82100 333 58005;
0162829930999992000021510004-09520-035780FM-15+0115SBMO V0203001N004110600019N0112651N1+02401+02301999999ADDGA1021+004809999GA2071+060009999GF107991999999999999999999MA1101191999999MW1001REMMET052SBMO 151000Z 30008KT 9999 SCT016 BKN200 24/23 Q1012;EQDQ01+000000PRSWM2
0139829930999992000021910004-09520-035780FM-15+0115SBMO V0200401N002112200019N0112651N1+02501+02401999999ADDGA1021+006009999GF102991999999999999999999MA1101291999999MW1001REMMET045SBMO 191000Z 04004KT 9999 FEW020 25/24 Q1013;EQDQ01+000000PRSWM2
0139829930999992000022416004-09520-035780FM-15+0115SBMO V0201501N005112200019N0112651N1+03001+02501999999ADDGA1021+006009999GF104991999999999999999999MA1101081999999MW1001REMMET045SBMO 241600Z 15010KT 9999 SCT020 30/25 Q1011;EQDQ01+000000PRSWM2
0292829930999992000022500004-09520-035780SY-MT+0115SBMO V0201201N003612200019N0200001N1+02481+02431101151ADDAA199000091GA1021+006009999GA2021+060009999GF104991021021008001001011KA1240M+03001MA1101191999999MD1999999-0091MW1001REMSYN070AAXX  25004 82993 32570 41207 10248 20243 40115 82201 333 10300 59009;MET052SBMO 250000Z 12007KT 9999 FEW020 SCT200 25/24 Q1012;EQDQ01+000000PRSWM2Q02  00002PRCP99
0273829930999992000022818004-09520-035780SY-MT+0115SBMO V0201401N006212200019N0200001N1+02981+02281101031ADDAA199000091GA1021+006009999GA2021+060009999GF105991031021008001001011MA1101081999999MD1999999-0011MW1001REMSYN064AAXX  28184 82993 32570 51412 10298 20228 40103 83201 333 59001;MET052SBMO 281800Z 14012KT 9999 SCT020 SCT200 30/23 Q1011;EQDQ01+000000PRSWM2Q02  00002PRCP99
0162829930999992000030104004-09520-035780FM-15+0115SBMO V0203601N002110600019N0112651N1+02301+02301999999ADDGA1021+006009999GA2071+060009999GF107991999999999999999999MA1101291999999MW1001REMMET052SBMO 010400Z 36004KT 9999 SCT020 BKN200 23/23 Q1013;EQDQ01+000000PRSWM2
0246829930999992000030109004-09520-035780SY-MT+0115SBMO V0200101N00261060001CN0200001N1+02301+02271101241ADDGA1021+006009999GA2071+060009999GF107991031021008001001011MA1101291999999MD1999999+0131MW1001REMSYN064AAXX  01094 82993 42570 70105 10230 20227 40124 83201 333 58013;MET052SBMO 010900Z 01005KT 9999 SCT020 BKN200 23/23 Q1013;EQDQ01+000000PRSWM2
0162829930999992000030208004-09520-035780FM-15+0115SBMO V0203601N002110600019N0112651N1+02301+02201999999ADDGA1021+006009999GA2071+060009999GF107991999999999999999999MA1101191999999MW1001REMMET052SBMO 020800Z 36004KT 9999 FEW020 BKN200 23/22 Q1012;EQDQ01+000000PRSWM2
0162829930999992000030722004-09520-035780FM-15+0115SBMO V0201601N002110600019N0112651N1+02601+02501999999ADDGA1021+006009999GA2071+060009999GF107991999999999999999999MA1101081999999MW1001REMMET052SBMO 072200Z 16004KT 9999 FEW020 BKN200 26/25 Q1011;EQDQ01+000000PRSWM2
0162829930999992000030914004-09520-035780FM-15+0115SBMO V0201501N005110060019N0112651N1+03001+02601999999ADDGA1071+006009999GA2071+060009999GF107991999999999999999999MA1101291999999MW1001REMMET052SBMO 091400Z 15010KT 9999 BKN020 BKN200 30/26 Q1013;EQDQ01+000000PRSWM2
0140829930999992000031317004-09520-035780FM-15+0115SBMO V0201201N005112200019N0112651N1+03201+02601999999ADDGA1021+006009999GF102991999999999999999999MW1001REMMET045SBMO 131700Z 12010KT 9999 FEW020 32/26 Q1017;EQDQ01+101693APOA  Q02+000000PRSWM2
0270829930999992000032600004-09520-035780SY-MT+0115SBMO V0201301N004112200019N0200001N1+02501+02471101151ADDAA199000091GA1021+006009999GF102991021021008001001001KA1240M+03001MA1101191999999MD1999999-0121MW1001REMSYN070AAXX  26004 82993 32570 21308 10250 20247 40115 82200 333 10300 59012;MET046SBMO 260000Z 13008KT 9999 FEW020 25/25 Q1012 ;EQDQ01+000000PRSWM2Q02  00002PRCP99
0139829930999992000032805004-09520-035780FM-15+0115SBMO V0201401N002112200019N0112651N1+02401+02301999999ADDGA1021+006009999GF104991999999999999999999MA1101021999999MW1001REMMET045SBMO 280500Z 14004KT 9999 SCT020 24/23 Q1010;EQDQ01+000000PRSWM2
0162829930999992000033108004-09520-035780FM-15+0115SBMO V0203501N002610600019N0112651N1+02301+02301999999ADDGA1021+006009999GA2071+060009999GF107991999999999999999999MA1101081999999MW1001REMMET052SBMO 310800Z 35005KT 9999 SCT020 BKN200 23/23 Q1011;EQDQ01+000000PRSWM2
0162829930999992000040117004-09520-035780FM-15+0115SBMO V0201501N003610060019N0112651N1+02601+02301999999ADDGA1071+006009999GA2071+060009999GF107991999999999999999999MA1101081999999MW1001REMMET052SBMO 011700Z 15007KT 9999 BKN020 BKN200 26/23 Q1011;EQDQ01+000000PRSWM2
0162829930999992000040820004-09520-035780FM-15+0115SBMO V0201801N005112200019N0112651N1+02801+02501999999ADDGA1021+006009999GA2021+030009999GF104991999999999999999999MA1101081999999MW1001REMMET052SBMO 082000Z 18010KT 9999 SCT020 SCT100 28/25 Q1011;EQDQ01+000000PRSWM2
0162829930999992000041504004-09520-035780FM-15+0115SBMO V0203201N003110300019N0090001N1+02401+02401999999ADDGA1021+004809999GA2071+030009999GF107991999999999999999999MA1101191999999MW1001REMMET052SBMO 150400Z 32006KT 9000 SCT016 BKN100 24/24 Q1012;EQDQ01+000000PRSWM2
0182829930999992000041705004-09520-035780FM-15+0115SBMO V0201301N002110051019N0030001N1+02401+02401999999ADDGA1071+005109999GA2071+030009999GF107991999999999999999999MA1101081999999MW1611REMMET056SBMO 170500Z 13004KT 3000 -RA BKN017 BKN100 24/24 Q1011;EQDQ01+000003PRSWM1Q02    003PRSWM1
0139829930999992000042105004-09520-035780FM-15+0115SBMO V0200701N002112200019N0112651N1+02401+02401999999ADDGA1021+006009999GF104991999999999999999999MA1101191999999MW1001REMMET045SBMO 210500Z 07004KT 9999 SCT020 24/24 Q1012;EQDQ01+000000PRSWM2
0246829930999992000042621004-09520-035780SY-MT+0115SBMO V0202501N00311027001CN0200001N1+02521+02431101271ADDGA1021+006009999GA2071+027009999GF107991031021008001031001MA1101291999999MD1999999-0011MW1001REMSYN064AAXX  26214 82993 42570 72506 10252 20243 40127 83230 333 59001;MET052SBMO 262100Z 25006KT 9999 SCT020 BKN090 25/24 Q1013;EQDQ01+000000PRSWM2
0230829930999992000042809004-09520-035780SY-MT+0115SBMO V0200301N001512200019N0200001N1+02301+02201101401ADDAA102999999GA1021+006009999GF102991021011008001001001MA1101391999999MW1001REMSYN058AAXX  28094 82993 42570 20303 20223 40140 82100 333 68016;MET045SBMO 280900Z 03003KT 9999 FEW020 23/22 Q1014;EQDQ01+000000PRSWM2Q02  80112PRCP02
0285829930999992000042812004-09520-035780SY-MT+0115SBMO V0201501N004112200019N0200001N1+02801+02501101541ADDAA199000091GA1021+006009999GF103991031021008001001001KA1240M+99999MA1101591999999MD1999999+0161MW1001REMSYN070AAXX  28124 82993 32570 31508 10280 20250 40154 83200 333 10224 58016;MET045SBMO 281200Z 15008KT 9999 SCT020 28/25 Q1016;EQDQ01+000000PRSWM2Q02  00002PRCP99Q03 +02242ATMX  
0284829930999992000043003004-09520-035780SY-MT+0115SBMO V0202901N002610450019N0120001N1+02281+02261101461ADDAY161031AY221031GA1021+006009999GA2021+030009999GF105991031021008001031001MA1101491999999MD1999999+0041MW1101REMSYN070AAXX  30034 82993 41562 52905 10228 20226 40146 71062 83230 333 58004;MET052SBMO 300300Z 29005KT 9999 SCT020 SCT100 23/23 Q1015;EQDQ01+000000PRSWM2Q02    003PRSWM1
0139829930999992000050901004-09520-035780FM-15+0115SBMO V0201801N003110060019N0112651N1+02501+02401999999ADDGA1071+006009999GF107991999999999999999999MA1101391999999MW1001REMMET045SBMO 090100Z 18006KT 9999 BKN020 25/24 Q1014;EQDQ01+000000PRSWM2
0139829930999992000051820004-09520-035780FM-15+0115SBMO V0201201N004112200019N0112651N1+02701+02401999999ADDGA1021+006009999GF102991999999999999999999MA1101191999999MW1001REMMET045SBMO 182000Z 12008KT 9999 FEW020 27/24 Q1012;EQDQ01+000000PRSWM2
0139829930999992000051904004-09520-035780FM-15+0115SBMO V0200401N001512200019N0112651N1+02301+02301999999ADDGA1021+006009999GF102991999999999999999999MA1101291999999MW1001REMMET045SBMO 190400Z 04003KT 9999 FEW020 23/23 Q1013;EQDQ01+000000PRSWM2
0139829930999992000052016004-09520-035780FM-15+0115SBMO V0201401N005112200019N0112651N1+03001+02401999999ADDGA1021+006009999GF104991999999999999999999MA1101391999999MW1001REMMET045SBMO 201600Z 14010KT 9999 SCT020 30/24 Q1014;EQDQ01+000000PRSWM2
0159829930999992000052423004-09520-035780FM-15+0115SBMO V0202701N002110060019N0040001N1+02401+02301999999ADDGA1071+006009999GF107991999999999999999999MA1101591999999MW1611REMMET049SBMO 242300Z 27004KT 4000 -RA BKN020 24/23 Q1016;EQDQ01+000003PRSWM1Q02    003PRSWM1
0162829930999992000060510004-09520-035780FM-15+0115SBMO V0200101N001512200019N0112651N1+02301+02301999999ADDGA1021+006009999GA2021+030009999GF104991999999999999999999MA1101591999999MW1001REMMET052SBMO 051000Z 01003KT 9999 FEW020 SCT100 23/23 Q1016;EQDQ01+000000PRSWM2
0181829930999992000060514004-09520-035780FM-15+0115SBMO V0201401N005110060019N0030001N1+02401+02401999999ADDGA1021+003009999GA2071+006009999GF107991999999999999999999MA1101801999999MW1631REMMET055SBMO 051400Z 14010KT 3000 RA SCT010 BKN020 24/24 Q1018;EQDQ01+000003PRSWM1Q02    003PRSWM1
0162829930999992000061011004-09520-035780FM-15+0115SBMO V0203001N004110300019N0112651N1+02301+02301999999ADDGA1021+006009999GA2071+030009999GF107991999999999999999999MA1101691999999MW1001REMMET052SBMO 101100Z 30008KT 9999 SCT020 BKN100 23/23 Q1017;EQDQ01+000000PRSWM2
0139829930999992000061111004-09520-035780FM-15+0115SBMO V0203001N003612200019N0112651N1+02301+02301999999ADDGA1021+006009999GF104991999999999999999999MA1101691999999MW1001REMMET045SBMO 111100Z 30007KT 9999 SCT020 23/23 Q1017;EQDQ01+000000PRSWM2
0139829930999992000062401004-09510-035780FM-15+0115SBMO V0201801N003612200019N0112651N1+02401+02301999999ADDGA1021+006009999GF104991999999999999999999MA1101691999999MW1001REMMET045SBMO 240100Z 18007KT 9999 SCT020 24/23 Q1017;EQDQ01+000000PRSWM2
0139829930999992000062413004-09510-035780FM-15+0115SBMO V0201601N006212200019N0112651N1+02801+02201999999ADDGA1021+006009999GF104991999999999999999999MA1101691999999MW1001REMMET045SBMO 241300Z 16012KT 9999 SCT020 28/22 Q1017;EQDQ01+000000PRSWM2
0139829930999992000062720004-09510-035780FM-15+0115SBMO V0201501N004112200019N0112651N1+02601+02101999999ADDGA1021+006009999GF104991999999999999999999MA1101491999999MW1001REMMET045SBMO 272000Z 15008KT 9999 SCT020 26/21 Q1015;EQDQ01+000000PRSWM2
0139829930999992000062802004-09510-035780FM-15+0115SBMO V0201801N001512200019N0112651N1+02201+02101999999ADDGA1021+006009999GF102991999999999999999999MA1101591999999MW1001REMMET045SBMO 280200Z 18003KT 9999 FEW020 22/21 Q1016;EQDQ01+000000PRSWM2
0223829930999992000062803004-09510-035780SY-MT+0115SBMO V0209999C000012200019N0200001N1+02201+02081101561ADDGA1021+006009999GF102991021011008001001001MA1101591999999MD1999999+0061MW1001REMSYN064AAXX  28034 82993 42570 20000 10220 20208 40156 82100 333 58006;MET045SBMO 280300Z 00000KT 9999 FEW020 22/21 Q1016;EQDQ01+000000PRSWM2
0139829930999992000062816004-09510-035780FM-15+0115SBMO V0201501N006210060019N0112651N1+02701+02001999999ADDGA1071+006009999GF107991999999999999999999MA1101591999999MW1001REMMET045SBMO 281600Z 15012KT 9999 BKN020 27/20 Q1016;EQDQ01+000000PRSWM2
0139829930999992000070204004-09510-035780FM-15+0115SBMO V0201601N002112200019N0112651N1+02001+02001999999ADDGA1021+006009999GF104991999999999999999999MA1101491999999MW1001REMMET045SBMO 020400Z 16004KT 9999 SCT020 20/20 Q1015;EQDQ01+000000PRSWM2
0162829930999992000070614004-09510-035780FM-15+0115SBMO V0201201N003110300019N0112651N1+02501+02201999999ADDGA1021+006009999GA2071+030009999GF107991999999999999999999MA1101591999999MW1001REMMET052SBMO 061400Z 12006KT 9999 SCT020 BKN100 25/22 Q1016;EQDQ01+000000PRSWM2
0206829930999992000071105004-09510-035780FM-15+0115SBMO V0203001N002610048019N0060001N1+02201+02201999999ADDGA1021+002409999GA2071+004809999GA3071+027009999GF107991999999999999999999MA1101391999999MW1161REMMET064SBMO 110500Z 30005KT 6000 VCSH FEW008 BKN016 BKN090 22/22 Q1014;EQDQ01+000003PRSWM1Q02    003PRSWM1
0259829930999992000072412004-09510-035780SY-MT+0115SBMO V0202101N002112200019N0200001N1+02521+02311101591ADDAA124007991GA1021+006009999GF104991041021008001001001KA1240N+02181MA1101591999999MD1999999-0031MW1001REMSYN076AAXX  24124 82993 22570 42104 10252 20231 40159 84200 333 20218 59003 60084;MET045SBMO 241200Z 21004KT 9999 SCT020 25/23 Q1016;EQDQ01+000000PRSWM2
0162829930999992000072509004-09510-035780FM-15+0115SBMO V0200201N001512200019N0112651N1+02101+02101999999ADDGA1021+006009999GA2021+030009999GF104991999999999999999999MA1101491999999MW1001REMMET052SBMO 250900Z 02003KT 9999 FEW020 SCT100 21/21 Q1015;EQDQ01+000000PRSWM2
0294829930999992000080109004-09510-035780SY-MT+0115SBMO V0201801N00361002101CN0020001N1+02271+02251101441ADDAY161031AY221031GA1071+002109999GA2071+004809999GA3081+024009999GF108991071081002501021999MA1101491999999MD1999999+0001MW1631REMSYN070AAXX  01094 82993 41320 81807 10227 20225 40144 76362 8782/ 333 58000;MET062SBMO 010900Z 18007KT 2000 RA BKN007 BKN016 OVC080 23/23 Q1015;EQDQ01    003PRSWM1
0139829930999992000081617004-09510-035780FM-15+0115SBMO V0202101N005112200019N0112651N1+02801+01901999999ADDGA1021+006009999GF104991999999999999999999MA1101591999999MW1001REMMET045SBMO 161700Z 21010KT 9999 SCT020 28/19 Q1016;EQDQ01+000000PRSWM2
0098829930999992000081704004-09510-035780FM-15+0115SBMO V0203601N002612200019N0112651N1+02101+02001999999ADDMA1101801999999MW1001REMMET046SBMO 170400Z 36005KT 9999 FFEW020 21/20 Q1018;EQDQ01+000000PRSWM2
0223829930999992000082203004-09510-035780SY-MT+0115SBMO V0203301N002112200019N0200001N1+02181+02131101751ADDGA1021+006009999GF104991041021008001001001MA1101801999999MD1999999-0031MW1001REMSYN064AAXX  22034 82993 42570 43304 10218 20213 40175 84200 333 59003;MET045SBMO 220300Z 33004KT 9999 SCT020 22/21 Q1018;EQDQ01+000000PRSWM2
0269829930999992000082700004-09510-035780SY-MT+0115SBMO V0201101N002612200019N0200001N1+02201+02171101501ADDAA199000091GA1021+006009999GF104991041021008001001001KA1240M+02881MA1101491999999MD1999999-0121MW1001REMSYN070AAXX  27004 82993 32570 41105 10220 20217 40150 84200 333 10288 59012;MET045SBMO 270000Z 11005KT 9999 SCT020 22/22 Q1015;EQDQ01+000000PRSWM2Q02  00002PRCP99
0139829930999992000090301004-09510-035780FM-15+0115SBMO V0200801N003112200019N0112651N1+02101+02001999999ADDGA1021+006009999GF102991999999999999999999MA1101491999999MW1001REMMET045SBMO 030100Z 08006KT 9999 FEW020 21/20 Q1015;EQDQ01+000000PRSWM2
0301829930999992000090615004-09510-035780SY-MT+0115SBMO V0202701N00261001801CN0050001N1+02401+02331101401ADDAY161031AY221031GA1071+001809999GA2021+004809999GA3081+030009999GF108991061081001501021999MA1101391999999MD1999999+0011MW1601MW2611REMSYN070AAXX  06154 82993 41250 82705 10240 20233 40140 76062 8682/ 333 58001;MET063SBMO 061500Z 27005KT 5000 -RA BKN006 SCT016 OVC100 24/23 Q1014;EQDQ01    003PRSWM1
0162829930999992000091701004-09510-035780FM-15+0115SBMO V0201801N003110240019N0112651N1+02501+02501999999ADDGA1021+005109999GA2081+024009999GF108991999999999999999999MA1101591999999MW1001REMMET052SBMO 170100Z 18006KT 9999 SCT017 OVC080 25/25 Q1016;EQDQ01+000000PRSWM2
0162829930999992000091714004-09510-035780FM-15+0115SBMO V0201601N006210270019N0112651N1+02801+02301999999ADDGA1021+006009999GA2071+027009999GF107991999999999999999999MA1101691999999MW1001REMMET052SBMO 171400Z 16012KT 9999 SCT020 BKN090 28/23 Q1017;EQDQ01+000000PRSWM2
0162829930999992000091819004-09510-035780FM-15+0115SBMO V0202001N006210300019N0112651N1+02701+02401999999ADDGA1021+006009999GA2071+030009999GF107991999999999999999999MA1101591999999MW1001REMMET052SBMO 181900Z 20012KT 9999 SCT020 BKN100 27/24 Q1016;EQDQ01+000000PRSWM2
0139829930999992000092120004-09510-035780FM-15+0115SBMO V0201801N004112200019N0112651N1+02501+02301999999ADDGA1021+006009999GF104991999999999999999999MA1101491999999MW1001REMMET045SBMO 212000Z 18008KT 9999 SCT020 25/23 Q1015;EQDQ01+000000PRSWM2
0139829930999992000092401004-09510-035780FM-15+0115SBMO V0200901N001512200019N0112651N1+02101+02001999999ADDGA1021+006009999GF102991999999999999999999MA1101591999999MW1001REMMET045SBMO 240100Z 09003KT 9999 FEW020 21/20 Q1016;EQDQ01+000000PRSWM2
0140829930999992000092907004-09510-035780FM-15+0115SBMO V0200901N002112200019N0112651N1+02201+02201999999ADDGA1021+006009999GF104991999999999999999999MA1101491999999MW1001REMMET046SBMO 290700Z 09004KT 9999 SCT020 22/22 Q1015 ;EQDQ01+000000PRSWM2
0223829930999992000093021004-09510-035780SY-MT+0115SBMO V0201401N004112200019N0200001N1+02521+02361101621ADDGA1021+006009999GF103991031021008001001001MA1101591999999MD1999999+0011MW1001REMSYN064AAXX  30214 82993 42570 31408 10252 20236 40162 83200 333 58001;MET045SBMO 302100Z 14008KT 9999 SCT020 25/24 Q1016;EQDQ01+000000PRSWM2
0139829930999992000100617004-09510-035780FM-15+0115SBMO V0201301N005112200019N0112651N1+03101+02201999999ADDGA1021+006009999GF102991999999999999999999MA1101081999999MW1001REMMET045SBMO 061700Z 13010KT 9999 FEW020 31/22 Q1011;EQDQ01+000000PRSWM2
0250829930999992000100618004-09510-035780SY-MT+0115SBMO V0201201N005112200019N0200001N1+03051+02341101101ADDAA199000091GA1021+006009999GF102991021021008001001001MA1101081999999MD1999999-0111MW1001REMSYN064AAXX  06184 82993 32570 21210 10305 20234 40110 82200 333 59011;MET045SBMO 061800Z 12010KT 9999 FEW020 31/23 Q1011;EQDQ01+000000PRSWM2Q02  00002PRCP99
0139829930999992000101017004-09510-035780FM-15+0115SBMO V0201801N005112200019N0112651N1+02801+02101999999ADDGA1021+006009999GF104991999999999999999999MA1101291999999MW1001REMMET045SBMO 101700Z 18010KT 9999 SCT020 28/21 Q1013;EQDQ01+000000PRSWM2
0139829930999992000101408004-09510-035780FM-15+0115SBMO V0200901N002112200019N0112651N1+02101+02101999999ADDGA1021+006009999GF104991999999999999999999MA1101591999999MW1001REMMET045SBMO 140800Z 09004KT 9999 SCT020 21/21 Q1016;EQDQ01+000000PRSWM2
0162829930999992000101723004-09510-035780FM-15+0115SBMO V0200901N003110300019N0112651N1+02401+02401999999ADDGA1021+006009999GA2071+030009999GF107991999999999999999999MA1101801999999MW1001REMMET052SBMO 172300Z 09006KT 9999 SCT020 BKN100 24/24 Q1018;EQDQ01+000000PRSWM2
0139829930999992000102216004-09510-035780FM-15+0115SBMO V0201201N006212200019N0112651N1+03001+02301999999ADDGA1021+006009999GF104991999999999999999999MA1101191999999MW1001REMMET045SBMO 221600Z 12012KT 9999 SCT020 30/23 Q1012;EQDQ01+000000PRSWM2
0162829930999992000102319004-09510-035780FM-15+0115SBMO V0201301N005110300019N0112651N1+02801+02401999999ADDGA1021+006009999GA2071+030009999GF107991999999999999999999MA1101291999999MW1001REMMET052SBMO 231900Z 13010KT 9999 SCT020 BKN100 28/24 Q1013;EQDQ01+000000PRSWM2
0162829930999992000102620004-09510-035780FM-15+0115SBMO V0201501N006212200019N0112651N1+02701+02401999999ADDGA1021+006009999GA2021+030009999GF104991999999999999999999MA1101291999999MW1001REMMET052SBMO 262000Z 15012KT 9999 SCT020 SCT100 27/24 Q1013;EQDQ01+000000PRSWM2
0308829930999992000102700004-09510-035780SY-MT+0115SBMO V0201601N00261060001CN0200001N1+02301+02231101411ADDAA199000091GA1021+006009999GA2071+060009999GF199999031021008001001011KA1240M+02981MA1101391999999MD1999999+0061MW1001REMSYN070AAXX  27004 82993 32570 51605 10230 20223 40141 83201 333 10298 58006;MET052SBMO 270000Z 12005KT 9999 SCT020 BKN200 23/22 Q1014;EQDQ01+000052SCOTCVQ02+000000PRSWM2Q03  00002PRCP99
0246829930999992000102715004-09510-035780SY-MT+0115SBMO V0200901N001512200019N0200001N1+02701+02241101421ADDGA1021+006009999GA2021+030009999GF107991041021008001031011MA1101491999999MD1999999+0121MW1001REMSYN064AAXX  27154 82993 42570 70903 10270 20224 40142 84231 333 58012;MET052SBMO 271500Z 09003KT 9999 SCT020 SCT100 27/22 Q1015;EQDQ01+000000PRSWM2
0162829930999992000102813004-09510-035780FM-15+0115SBMO V0201201N005110060019N0112651N1+02801+02501999999ADDGA1071+006009999GA2071+030009999GF107991999999999999999999MA1101491999999MW1001REMMET052SBMO 281300Z 12010KT 9999 BKN020 BKN100 28/25 Q1015;EQDQ01+000000PRSWM2
0162829930999992000110401004-09510-035780FM-15+0115SBMO V0200901N001012200019N0112651N1+02401+02401999999ADDGA1021+006009999GA2021+060009999GF104991999999999999999999MA1101021999999MW1001REMMET052SBMO 040100Z 09002KT 9999 FEW020 SCT200 24/24 Q1010;EQDQ01+000000PRSWM2
0239829930999992000110503004-09510-035780SY-MT+0115SBMO V0200601N002112200019N0200001N1+02361+02291100981ADDGA1021+006009999GF199999011011008001001001MA1101021999999MD1999999+0091MW1001REMSYN064AAXX  05034 82993 42570 10604 10236 20229 40098 81100 333 58009;MET045SBMO 050300Z 06004KT 9999 FEW020 24/23 Q1010;EQDQ01+000012SCOTCVQ02+000000PRSWM2
0139829930999992000111111004-09510-035780FM-15+0115SBMO V0201001N003112200019N0112651N1+02801+02401999999ADDGA1021+006009999GF102991999999999999999999MA1101021999999MW1001REMMET045SBMO 111100Z 10006KT 9999 FEW020 28/24 Q1010;EQDQ01+000000PRSWM2
0139829930999992000111511004-09510-035780FM-15+0115SBMO V0200601N003112200019N0112651N1+02701+02301999999ADDGA1021+006009999GF102991999999999999999999MA1101191999999MW1001REMMET045SBMO 151100Z 06006KT 9999 FEW020 27/23 Q1012;EQDQ01+000000PRSWM2
0139829930999992000112222004-09510-035780FM-15+0115SBMO V0201501N001512200019N0112651N1+02601+02401999999ADDGA1021+006009999GF102991999999999999999999MA1101491999999MW1001REMMET045SBMO 222200Z 15003KT 9999 FEW020 26/24 Q1015;EQDQ01+000000PRSWM2
0139829930999992000112616004-09510-035780FM-15+0115SBMO V0200401N005112200019N0112651N1+03101+02301999999ADDGA1021+006009999GF104991999999999999999999MA1101391999999MW1001REMMET045SBMO 261600Z 04010KT 9999 SCT020 31/23 Q1014;EQDQ01+000000PRSWM2
0139829930999992000120318004-09510-035780FM-15+0115SBMO V0201201N006212200019N0112651N1+03001+02301999999ADDGA1021+006009999GF102991999999999999999999MA1101081999999MW1001REMMET045SBMO 031800Z 12012KT 9999 FEW020 30/23 Q1011;EQDQ01+000000PRSWM2
0139829930999992000120719004-09510-035780FM-15+0115SBMO V0201201N005112200019N0112651N1+03001+02401999999ADDGA1021+006009999GF102991999999999999999999MA1101081999999MW1001REMMET045SBMO 071900Z 12010KT 9999 FEW020 30/24 Q1011;EQDQ01+000000PRSWM2
0246829930999992000121215004-09510-035780SY-MT+0115SBMO V0200901N00261006001CN0200001N1+02901+02431101181ADDGA1071+006009999GA2071+030009999GF107991061021008001031011MA1101191999999MD1999999+0211MW1001REMSYN064AAXX  12154 82993 42570 70905 10290 20243 40118 86231 333 58021;MET052SBMO 121500Z 09005KT 9999 BKN020 BKN100 29/24 Q1012;EQDQ01+000000PRSWM2
0162829930999992000121608004-09510-035780FM-15+0115SBMO V0209999C000010300019N0112651N1+02201+02201999999ADDGA1021+005409999GA2071+030009999GF107991999999999999999999MA1101021999999MW1001REMMET052SBMO 160800Z 00000KT 9999 SCT018 BKN100 22/22 Q1010;EQDQ01+000000PRSWM2
0162829930999992000121702004-09510-035780FM-15+0115SBMO V0209999C000010300019N0112651N1+02301+02301999999ADDGA1021+004809999GA2071+030009999GF107991999999999999999999MA1101191999999MW1001REMMET052SBMO 170200Z 00000KT 9999 SCT016 BKN100 23/23 Q1012;EQDQ01+000000PRSWM2
0162829930999992000122406004-09510-035780FM-15+0115SBMO V0200301N001512200019N0112651N1+02201+02201999999ADDGA1021+006009999GA2021+030009999GF104991999999999999999999MA1101291999999MW1001REMMET052SBMO 240600Z 03003KT 9999 FEW020 SCT100 22/22 Q1013;EQDQ01+000000PRSWM2
0162830630999992000011714004-10700-048400FM-15+0290SBPN V0202501N001510300019N0112651N1+03101+02401999999ADDGA1021+009009999GA2071+030009999GF107991999999999999999999MA1101291999999MW1001REMMET052SBPN 171400Z 25003KT 9999 SCT030 BKN100 31/24 Q1013;EQDQ01+000000PRSWM2
0091830630999992000012012004-10700-048400FM-15+0290SBPN V0209999C00001220001CN0099001N1+02901+02401999999ADDMA1101391999999MW1001REMMET039SBPN 201200Z 00000KT CAVOK 29/24 Q1014;EQDQ01+000000PRSWM2
0188830630999992000012216004-10700-048400FM-15+0290SBPN V0200401N002112200019N0112651N1+03201+02301999999ADDGA1021+007509029GA2021+009009999GA3021+030009999GF104991999999999999999999MA1101191999999MW1001REMMET062SBPN 221600Z 04004KT 9999 FEW025TCU SCT030 SCT100 32/23 Q1012;EQDQ01+000000PRSWM2
0162830630999992000013018004-10700-048400FM-15+0290SBPN V0200901N002110300019N0112651N1+03401+02101999999ADDGA1021+009009999GA2071+030009999GF107991999999999999999999MA1101021999999MW1001REMMET052SBPN 301800Z 09004KT 9999 SCT030 BKN100 34/21 Q1010;EQDQ01+000000PRSWM2
0185830630999992000020921004-10700-048400FM-15+0290SBPN V0203001N002610900019N0112651N1+02901+02401999999ADDGA1021+009009999GA2021+030009999GA3071+090009999GF107991999999999999999999MA1101081999999MW1001REMMET059SBPN 092100Z 30005KT 9999 FEW030 SCT100 BKN300 29/24 Q1011;EQDQ01+000000PRSWM2
0204830630999992000021617004-10700-048400FM-15+0290SBPN V0202501N001510300019N0050001N1+02201+02101999999ADDGA1021+001809999GA2021+004209999GA3071+030009999GF107991999999999999999999MA1101291999999MW1531REMMET062SBPN 161700Z 25003KT 5000 DZ FEW006 SCT014 BKN100 22/21 Q1013;EQDQ01+000003PRSWM1Q02    003PRSWM1
0210830630999992000030313004-10700-048400FM-15+0290SBPN V0202901N00101030001CN0112651N1+03001+02501999999ADDGA1021+007509099GA2021+009009999GA3021+030009999GA4071+090009999GF107991999999999999999999MA1101391999999MW1001REMMET068SBPN 031300Z 29002KT 9999 FEW025CB SCT030 SCT100 BKN300 30/25 Q1014;EQDQ01+000000PRSWM2
0162830630999992000030512004-10700-048400FM-15+0290SBPN V0201801N002112200019N0112651N1+02801+02301999999ADDGA1021+009009999GA2021+030009999GF104991999999999999999999MA1101391999999MW1001REMMET052SBPN 051200Z 18004KT 9999 FEW030 SCT100 28/23 Q1014;EQDQ01+000000PRSWM2
0206830630999992000031619004-10700-048400FM-15+0290SBPN V0200601N004110300019N0050001N1+02401+02301999999ADDGA1021+007509099GA2021+009009999GA3071+030009999GF107991999999999999999999MA1101021999999MW1631REMMET064SBPN 161900Z 06008KT 5000 RA FEW025CB SCT030 BKN100 24/23 Q1010;EQDQ01+000003PRSWM1Q02    003PRSWM1
0158830630999992000041311004-10700-048400FM-15+0290SBPN V0209999C000010030019N0050001N1+02401+02201999999ADDGA1071+003009999GF107991999999999999999999MA1101291999999MW1101REMMET048SBPN 131100Z 00000KT 5000 BR BKN010 24/22 Q1013;EQDQ01+000003PRSWM1Q02    003PRSWM1
0181830630999992000041516004-10700-048400FM-15+0290SBPN V0209999C000012200019N0112651N1+02501+02101999999ADDGA1021+009009999GA2021+024009999GF104991999999999999999999MA1101391999999MW1631REMMET055SBPN 151600Z 00000KT 9999 RA FEW030 SCT080 25/21 Q1014;EQDQ01+000003PRSWM1Q02    003PRSWM1
0185830630999992000041518004-10700-048400FM-15+0290SBPN V0209999C000010900019N0112651N1+02501+02401999999ADDGA1021+009009999GA2021+030009999GA3071+090009999GF107991999999999999999999MA1101191999999MW1001REMMET059SBPN 151800Z 00000KT 9999 FEW030 SCT100 BKN300 25/24 Q1012;EQDQ01+000000PRSWM2
0162830630999992000042409004-10700-048400FM-15+0290SBPN V0209999C000010300019N0112651N1+02201+02201999999ADDGA1021+006009999GA2071+030009999GF107991999999999999999999MA1101191999999MW1001REMMET052SBPN 240900Z 00000KT 9999 SCT020 BKN100 22/22 Q1012;EQDQ01+000000PRSWM2
0091830630999992000050209004-10700-048400FM-15+0290SBPN V0209999C00001220001CN0099001N1+02201+02101999999ADDMA1101191999999MW1001REMMET039SBPN 020900Z 00000KT CAVOK 22/21 Q1012;EQDQ01+000000PRSWM2
0091830630999992000051817004-10700-048400FM-15+0290SBPN V0202101N00151220001CN0099001N1+03501+01701999999ADDMA1101191999999MW1001REMMET039SBPN 181700Z 21003KT CAVOK 35/17 Q1012;EQDQ01+000000PRSWM2
0091830630999992000061211004-10700-048400FM-15+0290SBPN V0209999C00001220001CN0099001N1+02301+01901999999ADDMA1101491999999MW1001REMMET039SBPN 121100Z 00000KT CAVOK 23/19 Q1015;EQDQ01+000000PRSWM2
0091830630999992000061321004-10700-048400FM-15+0290SBPN V0201001N00101220001CN0099001N1+03201+01801999999ADDMA1101081999999MW1001REMMET039SBPN 132100Z 10002KT CAVOK 32/18 Q1011;EQDQ01+000000PRSWM2
0091830630999992000062717004-10700-048400FM-15+0290SBPN V0201201N00151220001CN0099001N1+03501+01501999999ADDMA1101291999999MW1001REMMET039SBPN 271700Z 12003KT CAVOK 35/15 Q1013;EQDQ01+000000PRSWM2
0091830630999992000062916004-10700-048400FM-15+0290SBPN V0200901N00261220001CN0099001N1+03301+01401999999ADDMA1101291999999MW1001REMMET039SBPN 291600Z 09005KT CAVOK 33/14 Q1013;EQDQ01+000000PRSWM2
0091830630999992000070312004-10700-048400FM-15+0290SBPN V0202101N00101220001CN0099001N1+02301+01701999999ADDMA1101691999999MW1001REMMET039SBPN 031200Z 21002KT CAVOK 23/17 Q1017;EQDQ01+000000PRSWM2
0185830630999992000071309004-10700-048400FM-15+0290SBPN V0201801N001010900019N0112651N1+02201+01801999999ADDGA1021+009009999GA2021+030009999GA3071+090009999GF107991999999999999999999MA1101491999999MW1001REMMET059SBPN 130900Z 18002KT 9999 FEW030 SCT100 BKN300 22/18 Q1015;EQDQ01+000000PRSWM2
0091830630999992000071611004-10700-048400FM-15+0290SBPN V0203301N00101220001CN0099001N1+02401+01801999999ADDMA1101491999999MW1001REMMET039SBPN 161100Z 33002KT CAVOK 24/18 Q1015;EQDQ01+000000PRSWM2
0091830630999992000071709004-10700-048400FM-15+0290SBPN V0209999C00001220001CN0099001N1+02001+01801999999ADDMA1101391999999MW1001REMMET039SBPN 170900Z 00000KT CAVOK 20/18 Q1014;EQDQ01+000000PRSWM2
0091830630999992000073013004-10700-048400FM-15+0290SBPN V0209999C00001220001CN0099001N1+03001+01701999999ADDMA1101491999999MW1001REMMET039SBPN 301300Z 00000KT CAVOK 30/17 Q1015;EQDQ01+000000PRSWM2
0091830630999992000081915004-10700-048400FM-15+0290SBPN V0200901N00511220001CN0099001N1+03501+01401999999ADDMA1101391999999MW1001REMMET039SBPN 191500Z 09010KT CAVOK 35/14 Q1014;EQDQ01+000000PRSWM2
0091830630999992000082612004-10700-048400FM-15+0290SBPN V0209999C00001220001CN0099001N1+03201+01701999999ADDMA1101391999999MW1001REMMET039SBPN 261200Z 00000KT CAVOK 32/17 Q1014;EQDQ01+000000PRSWM2
0095830630999992000090321004-10700-048400FM-15+0290SBPN V02099999999992200019N0112651N1+99999+99999999999ADDMW1001REMMET058SBPN 032100Z KT 7000 -TSRA F030CB F040 SCT030 23/22 Q1010;EQDQ01+000000PRSWM2
0139830630999992000090915004-10700-048400FM-15+0290SBPN V0200901N002112200019N0112651N1+03401+01901999999ADDGA1021+009009999GF102991999999999999999999MA1101191999999MW1001REMMET045SBPN 091500Z 09004KT 9999 FEW030 34/19 Q1012;EQDQ01+000000PRSWM2
0092830630999992000091118004-10700-048400FM-15+0290SBPN V0203601N00211220001CN0099001N1+03401+02101999999ADDMA1100811999999MW1001REMMET040SBPN 111800Z 36004KT CAVOK 34/21 Q1008 ;EQDQ01+000000PRSWM2
0091830630999992000091614004-10700-048400FM-15+0290SBPN V0203601N00411220001CN0099001N1+03401+01901999999ADDMA1101391999999MW1001REMMET039SBPN 161400Z 36008KT CAVOK 34/19 Q1014;EQDQ01+000000PRSWM2
0121830630999992000092610004-10700-048400FM-15+0290SBPN V0209999C000012200019N0080001N1+02301+02201999999ADDGF100991999999999999999999MA1101191999999MW1001REMMET043SBPN 261000Z 00000KT 8000 SKC 23/22 Q1012 ;EQDQ01+000000PRSWM2
0158830630999992000092710004-10700-048400FM-15+0290SBPN V0209999C000010042019N0030001N1+02201+02201999999ADDGA1081+004209999GF108991999999999999999999MA1101591999999MW1631REMMET048SBPN 271000Z 00000KT 3000 RA OVC014 22/22 Q1016;EQDQ01+000003PRSWM1Q02    003PRSWM1
0162830630999992000100218004-10700-048400FM-15+0290SBPN V0209999C000012200019N0112651N1+03501+02101999999ADDGA1021+009009999GA2021+030009999GF104991999999999999999999MA1101081999999MW1001REMMET052SBPN 021800Z 00000KT 9999 FEW030 SCT100 35/21 Q1011;EQDQ01+000000PRSWM2
0120830630999992000101712004-10700-048400FM-15+0290SBPN V0201401N002112200019N0080001N1+03001+02201999999ADDGF100991999999999999999999MA1101591999999MW1001REMMET042SBPN 171200Z 14004KT 8000 SKC 30/22 Q1016;EQDQ01+000000PRSWM2
0185830630999992000103017004-10700-048400FM-15+0290SBPN V0201801N002110900019N0112651N1+03401+02201999999ADDGA1021+009009999GA2021+030009999GA3071+090009999GF107991999999999999999999MA1101021999999MW1001REMMET059SBPN 301700Z 18004KT 9999 FEW030 SCT100 BKN300 34/22 Q1010;EQDQ01+000000PRSWM2
0162830630999992000112820004-10700-048400FM-15+0290SBPN V0201201N001012200019N0112651N1+03101+02401999999ADDGA1021+009009999GA2021+030009999GF104991999999999999999999MA1101081999999MW1001REMMET052SBPN 282000Z 12002KT 9999 FEW030 SCT100 31/24 Q1011;EQDQ01+000000PRSWM2
0204830630999992000121410004-10700-048400FM-15+0290SBPN V0209999C000010300019N0050001N1+02301+02301999999ADDGA1021+009009999GA2071+030009999GA3081+090009999GF108991999999999999999999MA1101081999999MW1101REMMET062SBPN 141000Z 00000KT 5000 BR SCT030 BKN100 OVC300 23/23 Q1011;EQDQ01+000003PRSWM1Q02    003PRSWM1
0181830630999992000121710004-10700-048400FM-15+0290SBPN V0203601N003110048019N0060001N1+02201+02201999999ADDGA1021+002409999GA2081+004809999GF108991999999999999999999MA1100811999999MW1531REMMET055SBPN 171000Z 36006KT 6000 DZ FEW008 OVC016 22/22 Q1008;EQDQ01+000003PRSWM1Q02    003PRSWM1
0177830640999992000011512004-10520-048720FM-12+023999999V0209999C000010120019N0200001N1+02681+02391101151ADDAA124000191GF105991051021012501001001KA1240N+02351MA1999999098461MD1999999-0161REMSYN086    AAXX  15124 83064 22698 50000 10268 20239 39846 40115 85200 333 20235 59016 69914;
0173830640999992000020612004-10520-048720FM-12+023999999V0203601N001510120019N0200001N1+02521+02291101451ADDAA124040991GF108991081051012501999999KA1240N+02331MA1999999098741MD1999999-0131REMSYN082AAXX  06124 83064 22698 83603 10252 20229 39874 40145 885// 333 20233 59013 60414;
0173830640999992000021700004-10520-048720FM-12+023999999V0209999C000010120019N0200001N1+02301+02201101371ADDAA199000091GF108991081051012501999999MA1999999098641MD1999999+0141REMSYN076AAXX  17004 83064 32698 80000 10230 20220 39864 40137 885// 333 10/// 58014;EQDQ01  00002PRCP99
0167830640999992000042818004-10520-048720FM-12+023999999V0200501N002112200019N0200001N1+03291+01661101251ADDAA199000091GF103991031021012501001001MA1999999098561MD1999999+0001REMSYN070AAXX  28184 83064 32698 30504 10329 20166 39856 40125 83200 333 58000;EQDQ01  00002PRCP99
0196830640999992000062900004-10510-048710FM-12+023999999V0209999C000012200019N0200001N1+02701+02111101151ADDAA199000091GA1001+999999999GF100991001001999999001001KA1240M+03441MA1999999098461MD1999999-0081REMSYN070AAXX  29004 83064 32998 00000 10270 20211 39846 40115 333 10344 59008;EQDQ01  00002PRCP99
0196830640999992000072412004-10510-048710FM-12+023999999V0201801N002112200019N0200001N1+02601+02031101351ADDAA199000091GA1001+999999999GF100991001001999999001001KA1240N+02111MA1999999098661MD1999999+0001REMSYN070AAXX  24124 83064 32998 01804 10260 20203 39866 40135 333 20211 58000;EQDQ01  00002PRCP99
0214830640999992000082312004-10510-048710FM-12+023999999V0201801N001512200019N0100001N1+02781+01611101331ADDAA199000091AY141061AY201061GF101991011011017501001001KA1240N+02061MA1999999098671MD1999999-0041MW1051REMSYN082AAXX  23124 83064 31797 11803 10278 20161 39867 40133 70540 81100 333 20206 59004;EQDQ01  00002PRCP99
0186830640999992000102600004-10510-048710FM-12+023999999V0209999C000012200019N0200001N1+02651+02231100841ADDAA199000091GF102991021021012501001001KA1240M+03631MA1999999098161MD1999999-0161REMSYN076AAXX  26004 83064 32698 20000 10265 20223 39816 40084 82200 333 10363 59016;EQDQ01  00002PRCP99
0201830640999992000120900004-10510-048710FM-12+023999999V0209999C000010120019N0200001N1+02441+02421101141ADDAA106013091AY191061AY261061GF108991081051012501999999KA1240M+03171MA1999999098431MD1999999+0041MW1021REMSYN088AAXX  09004 83064 21698 80000 10244 20242 39843 40114 70296 885// 333 10317 58004 60131;
0195830640999992000122318004-10510-048710FM-12+023999999V0201801N003110120019N0200001N1+03141+02321100821ADDAA199000091AY121061AY211061GF106991051091012501041001MA1999999098151MD1999999-0141MW1291REMSYN076AAXX  23184 83064 31698 61806 10314 20232 39815 40082 72921 85940 333 59014;EQDQ01  00002PRCP99
0173830760999992000010712004-11020-044520FM-12+045099999V0200501N001012200019N0200001N1+02581+01991101101ADDAA124000391GF104991021011008001031061KA1240N+02101MA1999999096081MD1999999+0061REMSYN082AAXX  07124 83076 22598 40502 10258 20199 39608 40110 82136 333 20210 58006 69934;
0167830760999992000041218004-11020-044520FM-12+045099999V0203601N000510450019N0500001N1+02861+01811100871ADDAA199000091GF106991011011008001051001MA1999999095871MD1999999+0001REMSYN070AAXX  12184 83076 32599 63601 10286 20181 39587 40087 81150 333 58000;EQDQ01  00002PRCP99
0167830760999992000052418004-11020-044520FM-12+045099999V0200901N003110450019N0500001N1+02881+01801101361ADDAA199000091GF105991011011008001051001MA1999999096411MD1999999-0121REMSYN070AAXX  24184 83076 32599 50906 10288 20180 39641 40136 81150 333 59012;EQDQ01  00002PRCP99
0196830760999992000062812004-11200-044510FM-12+045099999V0200901N003112200019N0200001N1+02291+01631101551ADDAA199000091GA1001+999999999GF100991001001999999001001KA1240N+01491MA1999999096461MD1999999+0001REMSYN070AAXX  28124 83076 32998 00906 10229 20163 39646 40155 333 20149 58000;EQDQ01  00002PRCP99
0196830760999992000081712004-11010-044510FM-12+045099999V0200901N002612200019N0200001N1+02231+01241101731ADDAA199000091GA1001+999999999GF100991001001999999001001KA1240N+01041MA1999999096641MD1999999+0021REMSYN070AAXX  17124 83076 32998 00905 10223 20124 39664 40173 333 20104 58002;EQDQ01  00002PRCP99
0186830760999992000100712004-11010-044510FM-12+045099999V0201801N000510450019N0200001N1+02801+02051101131ADDAA199000091GF106991011011008001051001KA1240N+01791MA1999999096151MD1999999+0151REMSYN076AAXX  07124 83076 32598 61801 10280 20205 39615 40113 81150 333 20179 58015;EQDQ01  00002PRCP99
0186830760999992000120612004-11010-044510FM-12+045099999V0201401N001510450019N0200001N1+02611+02191101121ADDAA199000091GF106991021011008001051001KA1240N+02031MA1999999096101MD1999999-0011REMSYN076AAXX  06124 83076 32598 61403 10261 20219 39610 40112 82150 333 20203 59001;EQDQ01  00002PRCP99
0201830760999992000120900004-11010-044510FM-12+045099999V0200901N000510450019N0002001N1+02411+02261101371ADDAA106000191AY161061AY211061GF108991021011008001051001KA1240M+02981MA1999999096331MD1999999+0051MW1031REMSYN088AAXX  09004 83076 21592 80901 10241 20226 39633 40137 70361 82150 333 10298 58005 69911;
0190830900999992000011600004-10430-039300FM-12+046499999V0200501N002612200019N9999999N1+02641+01931100671ADDAA199000091GF103991031041017501001001KA1240M+03091MA1999999095541MD1999999+0001REMSYN080    AAXX  16004 83090 327// 30505 10264 20193 39554 40067 83400 333 10309 59000;EQDQ01  00002PRCP99
0186830900999992000022512004-10430-039300FM-12+046499999V0200901N001512200019N0200001N1+02501+01821101261ADDAA199000091GF102991021011012501001001KA1240N+02031MA1999999096081MD1999999+0081REMSYN076AAXX  25124 83090 32698 20903 10250 20182 39608 40126 82100 333 20203 58008;EQDQ01  00002PRCP99
0186830900999992000041512004-10430-039300FM-12+046499999V0201401N003110120019N0200001N1+02331+01871101501ADDAA199000091GF108991081051012501999999KA1240N+02151MA1999999096301MD1999999+0181REMSYN076AAXX  15124 83090 32698 81406 10233 20187 39630 40150 885// 333 20215 58018;EQDQ01  00002PRCP99
0167830900999992000050600004-10430-039300FM-12+046499999V0200901N003110150019N9999999N1+02331+02031101281ADDAA199000021GF107991071051017501001001KA1240M+02931MA1999999096071MD1999999+0501REMSYN076AAXX  06004 83090 327// 70906 10233 20203 39607 40128 87500 333 10293 58050;
0148830900999992000051418004-10430-039300FM-12+046499999V0200901N004612200019N0200001N1+02241+01821101011ADDAA199000021GF106991041011017501001041MA1999999095841MD1999999-0161REMSYN070AAXX  14184 83090 32798 60909 10224 20182 39584 40101 84104 333 59016;
0186830900999992000070800004-10420-039300FM-12+046499999V0200901N003612200019N9999999N1+02091+01931101631ADDAA199000091GF102991021041012501001001KA1240M+02641MA1999999096351MD1999999+0041REMSYN076AAXX  08004 83090 326// 20907 10209 20193 39635 40163 82400 333 10264 58004;EQDQ01  00002PRCP99
0201830900999992000082112004-10420-039300FM-12+046499999V0201401N001510075019N0200001N1+01881+01451101741ADDAA124002091AY121061AY251061GF108991081051008001999999KA1240N+01781MA1999999096431MD1999999+0011MW1021REMSYN088AAXX  21124 83090 21598 81403 10188 20145 39643 40174 70225 885// 333 20178 58001 60024;
0201830900999992000090700004-10420-039300FM-12+046499999V0200901N001510120019N9999999N1+02041+01961101391ADDAA106000191AY121061AY221061GF108991081061012501999999KA1240M+02871MA1999999096121MD1999999+0381MW1501REMSYN088AAXX  07004 83090 216// 80903 10204 20196 39612 40139 75022 886// 333 10287 58038 69911;
0186830900999992000092612004-10420-039300FM-12+046499999V0201401N003112200019N0200001N1+02401+01651101771ADDAA199000091GF104991041041008001001001KA1240N+01951MA1999999096561MD1999999+0241REMSYN076AAXX  26124 83090 32598 41406 10240 20165 39656 40177 84400 333 20195 58024;EQDQ01  00002PRCP99
0186830900999992000101312004-10420-039300FM-12+046499999V0201401N004110075019N0200001N1+02481+01431101301ADDAA199000091GF107991071041008001001001KA1240N+01801MA1999999096111MD1999999-0101REMSYN076AAXX  13124 83090 32598 71408 10248 20143 39611 40130 87400 333 20180 59010;EQDQ01  00002PRCP99
0186830900999992000102012004-10420-039300FM-12+046499999V0201401N003110075019N0200001N1+02421+01651101541ADDAA199000091GF108991081051008001999999KA1240N+02011MA1999999096341MD1999999+0001REMSYN076AAXX  20124 83090 32598 81406 10242 20165 39634 40154 885// 333 20201 58000;EQDQ01  00002PRCP99
0182830900999992000111718004-10420-039300FM-12+046499999V0200901N004610120019N0100001N1+02541+01931101151ADDAA106000391AY151061AY221061GF106991061051012501001001MA1999999095941MD1999999+0131MW1501REMSYN082AAXX  17184 83090 21697 60909 10254 20193 39594 40115 75052 86500 333 58013 69931;
0186830900999992000121500004-10420-039300FM-12+046499999V0201801N003110150019N0020001N1+02361+01831100711ADDAA199000091GF108991081051017501999999KA1240M+02481MA1999999095561MD1999999-0451REMSYN076AAXX  15004 83090 32795 81806 10236 20183 39556 40071 885// 333 10248 59045;EQDQ01  00002PRCP99
0143830950999992000010113004-10980-037070FM-15+0009SBAR V0200801N003110900019N0112651N1+02901+02401999999ADDGA1021+004809999GA2071+090009999GF107991999999999999999999MA1101021999999MW1001REMMET052SBAR 011300Z 08006KT 9999 SCT016 BKN300 29/24 Q1010;
0162830950999992000010307004-10980-037070FM-15+0009SBAR V0200901N001012200019N0112651N1+02601+02301999999ADDGA1021+004509999GA2021+090009999GF104991999999999999999999MA1100811999999MW1001REMMET052SBAR 030700Z 09002KT 9999 SCT015 SCT300 26/23 Q1008;EQDQ01+000000PRSWM2
0162830950999992000010803004-10980-037070FM-15+0009SBAR V0201401N003112200019N0112651N1+02601+02201999999ADDGA1021+004509999GA2021+090009999GF104991999999999999999999MA1101021999999MW1001REMMET052SBAR 080300Z 14006KT 9999 SCT015 SCT300 26/22 Q1010;EQDQ01+000000PRSWM2
0139830950999992000011002004-10980-037070FM-15+0009SBAR V0201201N002112200019N0112651N1+02701+02301999999ADDGA1021+004509999GF104991999999999999999999MA1101191999999MW1001REMMET045SBAR 100200Z 12004KT 9999 SCT015 27/23 Q1012;EQDQ01+000000PRSWM2
0162830950999992000011012004-10980-037070FM-15+0009SBAR V0201001N003112200019N0112651N1+02901+02301999999ADDGA1021+004509999GA2021+090009999GF104991999999999999999999MA1101191999999MW1001REMMET052SBAR 101200Z 10006KT 9999 SCT015 SCT300 29/23 Q1012;EQDQ01+000000PRSWM2
0139830950999992000011020004-10980-037070FM-15+0009SBAR V0201601N003112200019N0112651N1+02901+02401999999ADDGA1021+006009999GF102991999999999999999999MA1101021999999MW1001REMMET045SBAR 102000Z 16006KT 9999 FEW020 29/24 Q1010;EQDQ01+000000PRSWM2
0139830950999992000011507004-10980-037070FM-15+0009SBAR V0201201N003112200019N0112651N1+02701+02301999999ADDGA1021+004809999GF104991999999999999999999MA1100811999999MW1001REMMET045SBAR 150700Z 12006KT 9999 SCT016 27/23 Q1008;EQDQ01+000000PRSWM2
0139830950999992000012508004-10980-037070FM-15+0009SBAR V0200301N002112200019N0112651N1+02601+02201999999ADDGA1021+005109999GF104991999999999999999999MA1101021999999MW1001REMMET045SBAR 250800Z 03004KT 9999 SCT017 26/22 Q1010;EQDQ01+000000PRSWM2
0139830950999992000012818004-10980-037070FM-15+0009SBAR V0201201N005112200019N0112651N1+03101+02501999999ADDGA1021+004809999GF102991999999999999999999MA1100911999999MW1001REMMET045SBAR 281800Z 12010KT 9999 FEW016 31/25 Q1009;EQDQ01+000000PRSWM2
0162830950999992000013001004-10980-037070FM-15+0009SBAR V0201101N002612200019N0112651N1+02801+02401999999ADDGA1021+005409999GA2021+090009999GF104991999999999999999999MA1101291999999MW1001REMMET052SBAR 300100Z 11005KT 9999 SCT018 SCT300 28/24 Q1013;EQDQ01+000000PRSWM2
0139830950999992000013018004-10980-037070FM-15+0009SBAR V0201101N004112200019N0112651N1+03001+02501999999ADDGA1021+006009999GF102991999999999999999999MA1101191999999MW1001REMMET045SBAR 301800Z 11008KT 9999 FEW020 30/25 Q1012;EQDQ01+000000PRSWM2
0162830950999992000013100004-10980-037070FM-15+0009SBAR V0201101N002612200019N0112651N1+02801+02401999999ADDGA1021+004809999GA2021+090009999GF104991999999999999999999MA1101391999999MW1001REMMET052SBAR 310000Z 11005KT 9999 FEW016 SCT300 28/24 Q1014;EQDQ01+000000PRSWM2
0139830950999992000020202004-10980-037070FM-15+0009SBAR V0200601N003112200019N0112651N1+02801+02401999999ADDGA1021+004509999GF104991999999999999999999MA1101081999999MW1001REMMET045SBAR 020200Z 06006KT 9999 SCT015 28/24 Q1011;EQDQ01+000000PRSWM2
0139830950999992000020205004-10980-037070FM-15+0009SBAR V0200301N003112200019N0112651N1+02701+02401999999ADDGA1021+004509999GF102991999999999999999999MA1101021999999MW1001REMMET045SBAR 020500Z 03006KT 9999 FEW015 27/24 Q1010;EQDQ01+000000PRSWM2
0185830950999992000020410004-10980-037070FM-15+0009SBAR V0200201N003110900019N0112651N1+02801+02401999999ADDGA1021+004509999GA2021+030009999GA3071+090009999GF107991999999999999999999MA1101021999999MW1001REMMET059SBAR 041000Z 02006KT 9999 FEW015 SCT100 BKN300 28/24 Q1010;EQDQ01+000000PRSWM2
0162830950999992000021014004-10980-037070FM-15+0009SBAR V0200701N003110300019N0112651N1+02701+02301999999ADDGA1021+005109999GA2071+030009999GF107991999999999999999999MA1101391999999MW1001REMMET052SBAR 101400Z 07006KT 9999 SCT017 BKN100 27/23 Q1014;EQDQ01+000000PRSWM2
0162830950999992000021502004-10980-037070FM-15+0009SBAR V0201601N002610300019N0112651N1+02801+02401999999ADDGA1021+004509999GA2071+030009999GF107991999999999999999999MA1101191999999MW1001REMMET052SBAR 150200Z 16005KT 9999 SCT015 BKN100 28/24 Q1012;EQDQ01+000000PRSWM2
0139830950999992000022705004-10980-037070FM-15+0009SBAR V0200601N002612200019N0112651N1+02701+02401999999ADDGA1021+004509999GF104991999999999999999999MA1101081999999MW1001REMMET045SBAR 270500Z 06005KT 9999 SCT015 27/24 Q1011;EQDQ01+000000PRSWM2
0162830950999992000022919004-10980-037070FM-15+0009SBAR V0201101N004610900019N0112651N1+03001+02401999999ADDGA1021+006009999GA2071+090009999GF107991999999999999999999MA1101081999999MW1001REMMET052SBAR 291900Z 11009KT 9999 SCT020 BKN300 30/24 Q1011;EQDQ01+000000PRSWM2
0162830950999992000030423004-10980-037070FM-15+0009SBAR V0201201N003110900019N0112651N1+02901+02501999999ADDGA1021+004809999GA2071+090009999GF107991999999999999999999MA1101291999999MW1001REMMET052SBAR 042300Z 12006KT 9999 FEW016 BKN300 29/25 Q1013;EQDQ01+000000PRSWM2
0188830950999992000030515004-10980-037070FM-15+0009SBAR V0201301N003110300019N0112651N1+02901+02501999999ADDGA1021+004509999GA2021+006009029GA3071+030009999GF107991999999999999999999MA1101391999999MW1001REMMET062SBAR 051500Z 13006KT 9999 SCT015 FEW020TCU BKN100 29/25 Q1014;EQDQ01+000000PRSWM2
0188830950999992000030518004-10980-037070FM-15+0009SBAR V0201701N003110300019N0112651N1+02901+02601999999ADDGA1021+004509999GA2021+006009029GA3071+030009999GF107991999999999999999999MA1101191999999MW1001REMMET062SBAR 051800Z 17006KT 9999 SCT015 FEW020TCU BKN100 29/26 Q1012;EQDQ01+000000PRSWM2
0185830950999992000030613004-10980-037070FM-15+0009SBAR V0201201N003110900019N0112651N1+02801+02501999999ADDGA1021+004509999GA2021+030009999GA3071+090009999GF107991999999999999999999MA1101291999999MW1001REMMET059SBAR 061300Z 12006KT 9999 SCT015 SCT100 BKN300 28/25 Q1013;EQDQ01+000000PRSWM2
0091830950999992000030800004-10980-037070FM-15+0009SBAR V0200901N00211220001CN0099001N1+02801+02501999999ADDMA1101021999999MW1001REMMET039SBAR 080000Z 09004KT CAVOK 28/25 Q1010;EQDQ01+000000PRSWM2
0091830950999992000031700004-10980-037070FM-15+0009SBAR V0200901N00311220001CN0099001N1+02801+02401999999ADDMA1101081999999MW1001REMMET039SBAR 170000Z 09006KT CAVOK 28/24 Q1011;EQDQ01+000000PRSWM2
0162830950999992000032610004-10980-037070FM-15+0009SBAR V0202701N002112200019N0112651N1+02501+02301999999ADDGA1021+005109999GA2021+030009999GF104991999999999999999999MA1101081999999MW1001REMMET052SBAR 261000Z 27004KT 9999 FEW017 SCT100 25/23 Q1011;EQDQ01+000000PRSWM2
0185830950999992000032702004-10980-037070FM-15+0009SBAR V0200901N003610300019N0112651N1+02701+02501999999ADDGA1021+004509999GA2021+005109999GA3071+030009999GF107991999999999999999999MA1101081999999MW1001REMMET059SBAR 270200Z 09007KT 9999 SCT015 SCT017 BKN100 27/25 Q1011;EQDQ01+000000PRSWM2
0139830950999992000032906004-10980-037070FM-15+0009SBAR V0203401N001512200019N0112651N1+02501+02301999999ADDGA1021+004509999GF104991999999999999999999MA1101021999999MW1001REMMET045SBAR 290600Z 34003KT 9999 SCT015 25/23 Q1010;EQDQ01+000000PRSWM2
0139830950999992000040806004-10980-037070FM-15+0009SBAR V0201201N003112200019N0112651N1+02601+02301999999ADDGA1021+005109999GF104991999999999999999999MA1101081999999MW1001REMMET045SBAR 080600Z 12006KT 9999 SCT017 26/23 Q1011;EQDQ01+000000PRSWM2
0162830950999992000042411004-10980-037070FM-15+0009SBAR V0201501N003110900019N0112651N1+02901+02401999999ADDGA1021+004809999GA2071+090009999GF107991999999999999999999MA1101291999999MW1001REMMET052SBAR 241100Z 15006KT 9999 SCT016 BKN300 29/24 Q1013;EQDQ01+000000PRSWM2
0162830950999992000042600004-10980-037070FM-15+0009SBAR V0201701N005110300019N0112651N1+02801+02401999999ADDGA1021+005109999GA2071+030009999GF107991999999999999999999MA1101291999999MW1001REMMET052SBAR 260000Z 17010KT 9999 SCT017 BKN100 28/24 Q1013;EQDQ01+000000PRSWM2
0162830950999992000051111004-10980-037070FM-15+0009SBAR V0209999C000012200019N0112651N1+02701+02401999999ADDGA1021+004809999GA2021+090009999GF104991999999999999999999MA1101491999999MW1001REMMET052SBAR 111100Z 00000KT 9999 FEW016 SCT300 27/24 Q1015;EQDQ01+000000PRSWM2
0139830950999992000051500004-10980-037070FM-15+0009SBAR V0209999C000012200019N0112651N1+02701+02201999999ADDGA1021+004509999GF104991999999999999999999MA1101591999999MW1001REMMET045SBAR 150000Z 00000KT 9999 SCT015 27/22 Q1016;EQDQ01+000000PRSWM2
0139830950999992000051622004-10980-037070FM-15+0009SBAR V0201301N002612200019N0112651N1+02801+02401999999ADDGA1021+004809999GF102991999999999999999999MA1101291999999MW1001REMMET045SBAR 162200Z 13005KT 9999 FEW016 28/24 Q1013;EQDQ01+000000PRSWM2
0162830950999992000051714004-10980-037070FM-15+0009SBAR V0201601N002610300019N0112651N1+02901+02401999999ADDGA1021+004809999GA2071+030009999GF107991999999999999999999MA1101391999999MW1001REMMET052SBAR 171400Z 16005KT 9999 SCT016 BKN100 29/24 Q1014;EQDQ01+000000PRSWM2
0088830950999992000051907004-10980-037070FM-15+0009SBAR V02099999999992200019N0099001N1+99999+99999999999ADDMW1001REMMET051SBAR 19070Z 06007KT 9999 SCT020 BKN100 26/23 Q1011;EQDQ01+000000PRSWM2
0162830950999992000051918004-10980-037070FM-15+0009SBAR V0200601N005110900019N0112651N1+03001+02501999999ADDGA1021+006009999GA2071+090009999GF107991999999999999999999MA1101081999999MW1001REMMET052SBAR 191800Z 06010KT 9999 SCT020 BKN300 30/25 Q1011;EQDQ01+000000PRSWM2
0162830950999992000051920004-10980-037070FM-15+0009SBAR V0200701N004110900019N0112651N1+02901+02401999999ADDGA1021+006009999GA2071+090009999GF107991999999999999999999MA1101081999999MW1001REMMET052SBAR 192000Z 07008KT 9999 FEW020 BKN300 29/24 Q1011;EQDQ01+000000PRSWM2
0182830950999992000052223004-10980-037070FM-15+0009SBAR V0200701N002110030019N0040001N1+02501+02301999999ADDGA1071+003009999GA2071+030009999GF107991999999999999999999MA1101691999999MW1611REMMET056SBAR 222300Z 07004KT 4000 -RA BKN010 BKN100 25/23 Q1017;EQDQ01+000003PRSWM1Q02    003PRSWM1
0185830950999992000052508004-10980-037070FM-15+0009SBAR V0201601N002110300019N0112651N1+02401+02101999999ADDGA1021+003609999GA2021+004509999GA3071+030009999GF107991999999999999999999MA1101491999999MW1001REMMET059SBAR 250800Z 16004KT 9999 SCT012 SCT015 BKN100 24/21 Q1015;EQDQ01+000000PRSWM2
0165830950999992000052616004-10980-037070FM-15+0009SBAR V0201301N002612200019N0112651N1+02901+02301999999ADDGA1021+006009999GA2021+006909029GF102991999999999999999999MW1001REMMET070SBAR 261600Z 13005KT 9999 SCT020 FEW023TCU 29/23 THE MESSAGE CONTINUE;EQDQ01+000000PRSWM2
0140830950999992000052717004-10980-037070FM-15+0009SBAR V0200901N002112200019N0112651N1+03001+02401999999ADDGA1021+006009999GF102991999999999999999999MA1101191999999MW1001REMMET046SBAR 271700Z 09004KT 9999 FEW020 30/24 Q1012 ;EQDQ01+000000PRSWM2
0140830950999992000060218004-10980-037070FM-15+0009SBAR V0201101N003612200019N0112651N1+02901+02501999999ADDGA1021+004809999GF104991999999999999999999MA1101291999999MW1001REMMET046SBAR 021800Z 11007KT 9999 SCT016 29/25 Q1013 ;EQDQ01+000000PRSWM2
0162830950999992000060319004-10980-037070FM-15+0009SBAR V0201901N003612200019N0112651N1+02801+02401999999ADDGA1021+004809999GA2021+030009999GF104991999999999999999999MA1101491999999MW1001REMMET052SBAR 031900Z 19007KT 9999 SCT016 SCT100 28/24 Q1015;EQDQ01+000000PRSWM2
0139830950999992000060623004-10980-037070FM-15+0009SBAR V0201801N002112200019N0112651N1+02501+02101999999ADDGA1021+004509999GF104991999999999999999999MA1101691999999MW1001REMMET045SBAR 062300Z 18004KT 9999 SCT015 25/21 Q1017;EQDQ01+000000PRSWM2
0185830950999992000061801004-10980-037690FM-15+0009SBAR V0201701N003110300019N0112651N1+02501+02101999999ADDGA1021+003609999GA2021+004809999GA3071+030009999GF107991999999999999999999MA1101491999999MW1001REMMET059SBAR 180100Z 17006KT 9999 SCT012 SCT016 BKN100 25/21 Q1015;EQDQ01+000000PRSWM2
0139830950999992000062207004-10980-037690FM-15+0009SBAR V0209999C000012200019N0112651N1+02301+02001999999ADDGA1021+004509999GF104991999999999999999999MA1101291999999MW1001REMMET045SBAR 220700Z 00000KT 9999 SCT015 23/20 Q1013;EQDQ01+000000PRSWM2
0162830950999992000062922004-10980-037690FM-15+0009SBAR V0200601N002110300019N0112651N1+02401+02201999999ADDGA1021+004509999GA2071+030009999GF107991999999999999999999MA1101391999999MW1001REMMET052SBAR 292200Z 06004KT 9999 SCT015 BKN100 24/22 Q1014;EQDQ01+000000PRSWM2
0162830950999992000070815004-10980-037690FM-15+0009SBAR V0201201N004110300019N0112651N1+02701+02301999999ADDGA1021+004809999GA2071+030009999GF107991999999999999999999MA1101591999999MW1001REMMET052SBAR 081500Z 12008KT 9999 SCT016 BKN100 27/23 Q1016;EQDQ01+000000PRSWM2
0162830950999992000080209004-10980-037070FM-15+0009SBAR V0200901N004110030019N0112651N1+02401+02201999999ADDGA1071+003009999GA2071+030009999GF107991999999999999999999MA1101491999999MW1001REMMET052SBAR 020900Z 09008KT 9999 BKN010 BKN100 24/22 Q1015;EQDQ01+000000PRSWM2
0162830950999992000080323004-10980-037070FM-15+0009SBAR V0201801N003112200019N0112651N1+02301+02001999999ADDGA1021+004509999GA2021+030009999GF104991999999999999999999MA1101591999999MW1001REMMET052SBAR 032300Z 18006KT 9999 SCT015 SCT100 23/20 Q1016;EQDQ01+000000PRSWM2
0162830950999992000080507004-10980-037070FM-15+0009SBAR V0202001N002112200019N0112651N1+02201+01901999999ADDGA1021+004509999GA2021+090009999GF104991999999999999999999MA1101491999999MW1001REMMET052SBAR 050700Z 20004KT 9999 FEW015 SCT300 22/19 Q1015;EQDQ01+000000PRSWM2
0162830950999992000081816004-10980-037070FM-15+0009SBAR V0201501N003110300019N0112651N1+02501+02201999999ADDGA1021+004509999GA2081+030009999GF108991999999999999999999MA1101591999999MW1001REMMET052SBAR 181600Z 15006KT 9999 SCT015 OVC100 25/22 Q1016;EQDQ01+000000PRSWM2
0139830950999992000090505004-10980-037070FM-15+0009SBAR V0201501N002112200019N0112651N1+02601+02301999999ADDGA1021+004509999GF104991999999999999999999MA1101291999999MW1001REMMET045SBAR 050500Z 15004KT 9999 SCT015 26/23 Q1013;EQDQ01+000000PRSWM2
0139830950999992000091209004-10980-037070FM-15+0009SBAR V0200601N003110036019N0112651N1+02501+02301999999ADDGA1071+003609999GF107991999999999999999999MA1101291999999MW1001REMMET045SBAR 120900Z 06006KT 9999 BKN012 25/23 Q1013;EQDQ01+000000PRSWM2
0185830950999992000091600004-10980-037070FM-15+0009SBAR V0201301N003110300019N0112651N1+02601+02301999999ADDGA1021+002709999GA2021+004509999GA3071+030009999GF107991999999999999999999MA1101691999999MW1001REMMET059SBAR 160000Z 13006KT 9999 SCT009 SCT015 BKN100 26/23 Q1017;EQDQ01+000000PRSWM2
0162830950999992000091621004-10980-037070FM-15+0009SBAR V0201101N003110045019N0112651N1+02701+02301999999ADDGA1071+004509999GA2071+030009999GF107991999999999999999999MA1101491999999MW1001REMMET052SBAR 162100Z 11006KT 9999 BKN015 BKN100 27/23 Q1015;EQDQ01+000000PRSWM2
0139830950999992000092504004-10980-037070FM-15+0009SBAR V0201101N003112200019N0112651N1+02601+02201999999ADDGA1021+004809999GF104991999999999999999999MA1101391999999MW1001REMMET045SBAR 250400Z 11006KT 9999 SCT016 26/22 Q1014;EQDQ01+000000PRSWM2
0162830950999992000101213004-10980-037070FM-15+0009SBAR V0201101N006212200019N0112651N1+03001+02601999999ADDGA1021+004809999GA2021+090009999GF104991999999999999999999MA1101691999999MW1001REMMET052SBAR 121300Z 11012KT 9999 SCT016 SCT300 30/26 Q1017;EQDQ01+000000PRSWM2
0139830950999992000101218004-10980-037070FM-15+0009SBAR V0201201N002112200019N0112651N1+03001+02401999999ADDGA1021+004809999GF104991999999999999999999MA1101391999999MW1001REMMET045SBAR 121800Z 12004KT 9999 SCT016 30/24 Q1014;EQDQ01+000000PRSWM2
0162830950999992000101322004-10980-037070FM-15+0009SBAR V0201001N002612200019N0112651N1+02801+02301999999ADDGA1021+004509999GA2021+090009999GF104991999999999999999999MA1101591999999MW1001REMMET052SBAR 132200Z 10005KT 9999 FEW015 SCT300 28/23 Q1016;EQDQ01+000000PRSWM2
0081830950999992000110305004-10980-037070FM-15+0009SBAR V0200601N002112200019N0990001N1+99999+99999999999ADDMW1001REMMET044SBAR 030500Z 06004KT 999 SCT015 27/24 Q1009;EQDQ01+000000PRSWM2
0183830950999992000110408004-10980-037070FM-15+0009SBAR V0200401N002612200019N0080001N1+02601+02301999999ADDGA1021+004509999GA2021+030009999GF104991999999999999999999MA1100811999999MW1161REMMET057SBAR 040800Z 04005KT 8000 VCSH SCT015 SCT100 26/23 Q1008;EQDQ01+000003PRSWM1Q02    003PRSWM1
0091830950999992000110703004-10980-037070FM-15+0009SBAR V0200601N00211220001CN0099001N1+02701+02301999999ADDMA1100811999999MW1001REMMET039SBAR 070300Z 06004KT CAVOK 27/23 Q1008;EQDQ01+000000PRSWM2
0139830950999992000112708004-10980-037070FM-15+0009SBAR V0200601N002112200019N0112651N1+02701+02401999999ADDGA1021+004509999GF104991999999999999999999MA1101391999999MW1001REMMET045SBAR 270800Z 06004KT 9999 SCT015 27/24 Q1014;EQDQ01+000000PRSWM2
0183830950999992000121501004-10980-037070FM-15+0009SBAR V0200501N001510030019N0080001N1+02501+02401999999ADDGA1071+003009999GA2071+030009999GF107991999999999999999999MA1100911999999MW1161REMMET057SBAR 150100Z 05003KT 8000 VCSH BKN010 BKN100 25/24 Q1009;EQDQ01+000003PRSWM1Q02    003PRSWM1
0182830950999992000121603004-10980-037070FM-15+0009SBAR V0200401N002110300019N0050001N1+02301+02201999999ADDGA1021+004509999GA2071+030009999GF107991999999999999999999MA1101021999999MW1611REMMET056SBAR 160300Z 04004KT 5000 -RA SCT015 BKN100 23/22 Q1010;EQDQ01+000003PRSWM1Q02    003PRSWM1
0162830950999992000121902004-10980-037070FM-15+0009SBAR V0200401N002110300019N0112651N1+02601+02401999999ADDGA1021+003609999GA2071+030009999GF107991999999999999999999MA1101291999999MW1001REMMET052SBAR 190200Z 04004KT 9999 SCT012 BKN100 26/24 Q1013;EQDQ01+000000PRSWM2
0139830950999992000122306004-10980-037070FM-15+0009SBAR V0200601N002112200019N0112651N1+02601+02301999999ADDGA1021+004509999GF104991999999999999999999MA1101191999999MW1001REMMET045SBAR 230600Z 06004KT 9999 SCT015 26/23 Q1012;EQDQ01+000000PRSWM2
0139830950999992000122508004-10980-037070FM-15+0009SBAR V0200601N002112200019N0112651N1+02601+02301999999ADDGA1021+004509999GF102991999999999999999999MA1101291999999MW1001REMMET045SBAR 250800Z 06004KT 9999 FEW015 26/23 Q1013;EQDQ01+000000PRSWM2
0091830950999992000122900004-10980-037070FM-15+0009SBAR V0200601N00211220001CN0099001N1+02801+02301999999ADDMA1101391999999MW1001REMMET039SBAR 290000Z 06004KT CAVOK 28/23 Q1014;EQDQ01+000000PRSWM2
0139830950999992000123020004-10980-037070FM-15+0009SBAR V0200701N004112200019N0112651N1+03001+02401999999ADDGA1021+004509999GF102991999999999999999999MA1101081999999MW1001REMMET045SBAR 302000Z 07008KT 9999 FEW015 30/24 Q1011;EQDQ01+000000PRSWM2
0173830960999992000030312004-10920-037050FM-12+000699999V0200901N001512200019N0200001N1+02721+02391101231ADDAA124003091GF103991031051008001001001KA1240N+02121MA1999999101161MD1999999-0171REMSYN082AAXX  03124 83096 22598 30903 10272 20239 30116 40123 83500 333 20212 59017 60034;
0167830960999992000031418004-10920-037050FM-12+000699999V0200901N005110450019N0200001N1+02941+02561100741ADDAA199000091GF106991021051012501031011MA1999999100671MD1999999+0061REMSYN070AAXX  14184 83096 32698 60910 10294 20256 30067 40074 82531 333 58006;EQDQ01  00002PRCP99
0167830960999992000042118004-10920-037050FM-12+000699999V0200901N004112200019N9999999N1+02941+02521100881ADDAA199000091GF101991011051999999001001MA1999999100811MD1999999-0041REMSYN070AAXX  21184 83096 3298/ 10908 10294 20252 30081 40088 81500 333 59004;EQDQ01  00002PRCP99
0173830960999992000060312004-10920-037050FM-12+000699999V0201801N002110120019N0200001N1+02441+02251101611ADDAA124005191GF106991061051012501001001KA1240N+02081MA1999999101541MD1999999+0131REMSYN082AAXX  03124 83096 22698 61804 10244 20225 30154 40161 86500 333 20208 58013 60054;
0186830960999992000062012004-10910-037500FM-12+000699999V0200901N001510120019N0200001N1+02721+02221101491ADDAA199000091GF105991051051012501001001KA1240N+02021MA1999999101421MD1999999-0101REMSYN076AAXX  20124 83096 32698 50903 10272 20222 30142 40149 85500 333 20202 59010;EQDQ01  00002PRCP99
0154830960999992000062118004-10910-037500FM-12+000699999V0201401N003112200019N0200001N1+02761+02361101381ADDAA106000191GF102991021051012501001001MA1999999101211MD1999999-0031REMSYN076AAXX  21184 83096 22698 21406 10276 20236 30121 40138 82500 333 59003 69921;
0186830960999992000070200004-10910-037500FM-12+000699999V0201401N001512200019N9999999N1+02481+01941101491ADDAA199000091GF101991011051012501001001KA1240M+02761MA1999999101421MD1999999-0061REMSYN076AAXX  02004 83096 326// 11403 10248 20194 30142 40149 81500 333 10276 59006;EQDQ01  00002PRCP99
0220830960999992000070812004-10910-037500FM-12+000699999V0201401N001510075019N0100001N1+02331+02131101751ADDAA124017091AY161061AY261061GF108991081071008001999999KA1240M+99999MA1999999101681MD1999999+0051MW1601REMSYN088AAXX  08124 83096 21597 81403 10233 20213 30168 40175 76066 887// 333 10217 58005 60174;EQDQ01 +02172ATMX  
0186830960999992000071912004-10910-037050FM-12+000699999V0201801N002610450019N0010001N1+02671+02221101741ADDAA199000091GF106991041051012501031001KA1240N+02471MA1999999101671MD1999999+0141REMSYN076AAXX  19124 83096 32694 61805 10267 20222 30167 40174 84530 333 20247 58014;EQDQ01  00002PRCP99
0173830960999992000080512004-10910-037050FM-12+000699999V0203601N005710120019N0010001N1+02591+02171101741ADDAA124000191GF105991051051012501001001KA1240N+02191MA1999999101671MD1999999+0011REMSYN082AAXX  05124 83096 22694 53611 10259 20217 30167 40174 85500 333 20219 58001 69924;
0167830960999992000092418004-10910-037050FM-12+000699999V0202701N002112200019N0010001N1+02731+02121101371ADDAA199000091GF101991011031012501001001MA1999999101301MD1999999-0111REMSYN070AAXX  24184 83096 32694 12704 10273 20212 30130 40137 81300 333 59011;EQDQ01  00002PRCP99
0186830960999992000102000004-10910-037050FM-12+000699999V0201401N003612200019N0010001N1+02511+01981101701ADDAA199000091GF101991011011012501001001KA1240M+02891MA1999999101631MD1999999+0011REMSYN076AAXX  20004 83096 32694 11407 10251 20198 30163 40170 81100 333 10289 58001;EQDQ01  00002PRCP99
0201830960999992000110812004-10910-037050FM-12+000699999V0200901N002110075019N0005001N1+02271+02181101011ADDAA124007191AY161061AY261061GF108991081051008001999999KA1240N+02071MA1999999100941MD1999999+0061MW1601REMSYN088AAXX  08124 83096 21593 80904 10227 20218 30094 40101 76066 885// 333 20207 58006 60074;
0167830960999992000112818004-10910-037050FM-12+000699999V0200901N003112200019N0010001N1+02821+02311101501ADDAA199000091GF101991011051012501001001MA1999999101431MD1999999+0091REMSYN070AAXX  28184 83096 32694 10906 10282 20231 30143 40150 81500 333 58009;EQDQ01  00002PRCP99
0186830960999992000122612004-10910-037050FM-12+000699999V0200901N004612200019N0010001N1+02791+02301101501ADDAA199000091GF103991031031012501001001KA1240N+02251MA1999999101431MD1999999-0101REMSYN076AAXX  26124 83096 32694 30909 10279 20230 30143 40150 83300 333 20225 59010;EQDQ01  00002PRCP99
0174830970999992000030218004-10200-036870FM-12+001999999V02099999999992200019N0200001N1+03141+02241100901ADDAA106001091AY151061GF103991031021008001001001MA1999999100671MD1999999+0121MW1021REMSYN082AAXX  02184 83097 21598 3//// 10314 20224 30067 40090 7025/ 83200 333 58012 69991;
0186830970999992000051912004-10200-036870FM-12+001999999V02099999999990450019N0200001N1+02801+02361101231ADDAA199000091GF105991031021008001021001KA1240N+02301MA1999999101001MD1999999+0001REMSYN076AAXX  19124 83097 32598 5//// 10280 20236 30100 40123 83220 333 20230 58000;EQDQ01  00002PRCP99
0196830970999992000060300004-10200-036870FM-12+001999999V02099999999992200019N9999999N1+02441+02301101421ADDAA199000091GA1001+999999999GF100991001001999999001001KA1240M+02901MA1999999101191MD1999999-0131REMSYN070AAXX  03004 83097 329// 0//// 10244 20230 30119 40142 333 10290 59013;EQDQ01  00002PRCP99
0167830970999992000062218004-10200-036860FM-12+001999999V02099999999992200019N0200001N1+02901+02341101221ADDAA199000091GF102991021021008001001001MA1999999100991MD1999999+0031REMSYN070AAXX  22184 83097 32598 2//// 10290 20234 30099 40122 82200 333 58003;EQDQ01  00002PRCP99
0173830970999992000063012004-10200-036860FM-12+001999999V0209999C000012200019N0040001N1+02431+02241101651ADDAA124000591GF104991041021008001001001KA1240N+02101MA1999999101421MD1999999-0071REMSYN082AAXX  30124 83097 22596 42300 10243 20224 30142 40165 84200 333 20210 59007 69964;
0201830970999992000070412004-10200-036860FM-12+001999999V0209999C000012200019N0040001N1+02441+02131101681ADDAA124005191AY151061AY261061GF104991041021008001001001KA1240N+02081MA1999999101451MD1999999+0061MW1031REMSYN088AAXX  04124 83097 21596 43200 10244 20213 30145 40168 70356 84200 333 20208 58006 60054;
0167830970999992000081218004-10200-036860FM-12+001999999V0201401N002612200019N0040001N1+02791+02371101381ADDAA199000091GF104991041021008001001001MA1999999101151MD1999999+0081REMSYN070AAXX  12184 83097 32596 41405 10279 20237 30115 40138 84200 333 58008;EQDQ01  00002PRCP99
0201830970999992000092812004-10200-036860FM-12+001999999V0209999C000010075019N0040001N1+02651+02241101671ADDAA124000591AY151061AY251061GF105991051021008001001001KA1240N+02041MA1999999101441MD1999999+0151MW1021REMSYN088AAXX  28124 83097 21596 50500 10265 20224 30144 40167 70255 85200 333 20204 58015 69944;
0167830970999992000100418004-10200-036860FM-12+001999999V0200901N006212200019N0010001N1+03051+02341101121ADDAA199000091GF103991031021008001001001MA1999999100891MD1999999+0171REMSYN070AAXX  04184 83097 32594 30912 10305 20234 30089 40112 83200 333 58017;EQDQ01  00002PRCP99
0186830970999992000102512004-10200-036860FM-12+001999999V0200901N001512200019N0040001N1+02871+02241101461ADDAA199000091GF104991041021008001001001KA1240N+02021MA1999999101231MD1999999+0061REMSYN076AAXX  25124 83097 32596 40903 10287 20224 30123 40146 84200 333 20202 58006;EQDQ01  00002PRCP99
0167830970999992000112218004-10200-036860FM-12+001999999V0200901N004112200019N0040001N1+03091+01931101401ADDAA199000091GF102991021021008001001001MA1999999101171MD1999999-0161REMSYN070AAXX  22184 83097 32596 20908 10309 20193 30117 40140 82200 333 59016;EQDQ01  00002PRCP99
0203830970999992000112400004-10200-036860FM-12+001999999V0200901N001512200019N0010001N1+02451+02291101531ADDAA106000191AY151061GA1001+999999999GF100991001001999999001001KA1240M+03221MA1999999101301MD1999999+0101MW1001REMSYN082AAXX  24004 83097 21994 00903 10245 20229 30130 40153 7005/ 333 10322 58010 69921;
0196830970999992000112800004-10200-036860FM-12+001999999V0200901N003112200019N0010001N1+02591+02221101581ADDAA199000091GA1001+999999999GF100991001001999999001001KA1240M+03281MA1999999101351MD1999999-0131REMSYN070AAXX  28004 83097 32994 00906 10259 20222 30135 40158 333 10328 59013;EQDQ01  00002PRCP99
0167830970999992000122418004-10200-036860FM-12+001999999V02099999999990450019N0040001N1+02891+02061101251ADDAA199000091GF106991041051008001021001MA1999999101021MD1999999-0061REMSYN070AAXX  24184 83097 32596 609// 10289 20206 30102 40125 84520 333 59006;EQDQ01  00002PRCP99
0182831110999992000010221004-22980-043370FM-15+0003SBJR V0202201N002110012019N0020001N1+02201+02201999999ADDGA1071+001209999GA2081+024009999GF108991999999999999999999MA1100511999999MW1611REMMET056SBJR 022100Z 22004KT 2000 -RA BKN004 OVC080 22/22 Q1005;EQDQ01+000003PRSWM1Q02    003PRSWM1
0091831110999992000010919004-22980-043370FM-15+0003SBJR V0201201N00311220001CN0099001N1+03201+02201999999ADDMA1101191999999MW1001REMMET039SBJR 091900Z 12006KT CAVOK 32/22 Q1012;EQDQ01+000000PRSWM2
0165831110999992000011417004-22980-043370FM-15+0003SBJR V0201601N001510300019N0112651N1+03201+02301999999ADDGA1021+012009029GA2071+030009999GF107991999999999999999999MA1100611999999MW1001REMMET055SBJR 141700Z 16003KT 9999 FEW040TCU BKN100 32/23 Q1006;EQDQ01+000000PRSWM2
0139831110999992000012510304-22980-043370FM-15+0003SBJR V02099999999992200019N0112651N1+02901+02301999999ADDGA1021+005409999GF102991999999999999999999MA1101021999999MW1001REMMET045SBJR 251130Z VRB02KT 9999 FEW018 29/23 Q1010;EQDQ01+000000PRSWM2
0123831110999992000012518304-22980-043370FM-15+0003SBJR V0201101N003112200019N0112651N1+99999+99999999999ADDGA1021+006009999GF102991999999999999999999MW1001REMMET044SBJR 251930Z 11006KT 9999 FEW020 3123 Q1004;EQDQ01+000000PRSWM2
0162831110999992000021618304-22980-043370FM-15+0003SBJR V0202101N002610099019N0112651N1+02801+02301999999ADDGA1021+005109999GA2071+009909999GF107991999999999999999999MA1101081999999MW1001REMMET052SBJR 161930Z 21005KT 9999 FEW017 BKN033 28/23 Q1011;EQDQ01+000000PRSWM2
0182831110999992000021708304-22980-043370FM-15+0003SBJR V0201501N002110024019N0020001N1+02201+02201999999ADDGA1071+002409999GA2081+027009999GF108991999999999999999999MA1101291999999MW1611REMMET056SBJR 170930Z 15004KT 2000 -RA BKN008 OVC090 22/22 Q1013;EQDQ01+000003PRSWM1Q02    003PRSWM1
0091831110999992000022412304-22980-043370FM-15+0003SBJR V0201301N00261220001CN0099001N1+03001+02301999999ADDMA1101081999999MW1001REMMET039SBJR 241330Z 13005KT CAVOK 30/23 Q1011;EQDQ01+000000PRSWM2
0162831110999992000022418004-22980-043370FM-15+0003SBJR V0201801N002612200019N0112651N1+03001+02101999999ADDGA1021+007509999GA2021+030009999GF104991999999999999999999MA1100911999999MW1001REMMET052SBJR 241800Z 18005KT 9999 FEW025 SCT100 30/21 Q1009;EQDQ01+000000PRSWM2
0162831110999992000030617304-22980-043370FM-15+0003SBJR V0201601N002112200019N0112651N1+03001+02001999999ADDGA1021+006909999GA2021+090009999GF104991999999999999999999MA1101081999999MW1001REMMET052SBJR 061830Z 16004KT 9999 FEW023 SCT300 30/20 Q1011;EQDQ01+000000PRSWM2
0091831110999992000031410304-22980-043370FM-15+0003SBJR V0203201N00151220001CN0099001N1+02401+02001999999ADDMA1101081999999MW1001REMMET039SBJR 141130Z 32003KT CAVOK 24/20 Q1011;EQDQ01+000000PRSWM2
0091831110999992000031509004-22980-043370FM-15+0003SBJR V0209999C00001220001CN0099001N1+02101+01901999999ADDMA1101081999999MW1001REMMET039SBJR 150900Z 00000KT CAVOK 21/19 Q1011;EQDQ01+000000PRSWM2
0162831110999992000031613304-22980-043370FM-15+0003SBJR V0201001N002610240019N0112651N1+03001+02201999999ADDGA1021+006009999GA2071+024009999GF107991999999999999999999MA1101191999999MW1001REMMET052SBJR 161430Z 10005KT 9999 FEW020 BKN080 30/22 Q1012;EQDQ01+000000PRSWM2
0091831110999992000031619304-22980-043370FM-15+0003SBJR V0201001N00411220001CN0099001N1+02801+02101999999ADDMA1100911999999MW1001REMMET039SBJR 162030Z 10008KT CAVOK 28/21 Q1009;EQDQ01+000000PRSWM2
0091831110999992000032719304-22980-043370FM-15+0003SBJR V0209999C00001220001CN0099001N1+03201+02301999999ADDMA1100811999999MW1001REMMET039SBJR 272030Z 00000KT CAVOK 32/23 Q1008;EQDQ01+000000PRSWM2
0159831110999992000032922004-22980-043370FM-15+0003SBJR V0209999C000010045019N0112651N1+02501+02401999999ADDGA1081+004509999GF108991999999999999999999MA1101391999999MW1611REMMET049SBJR 292200Z 00000KT 9999 -RA OVC015 25/24 Q1014;EQDQ01+000003PRSWM1Q02    003PRSWM1
0162831110999992000040310304-22980-043370FM-15+0003SBJR V0201401N002110270019N0112651N1+02501+01701999999ADDGA1021+006009999GA2071+027009999GF107991999999999999999999MA1102101999999MW1001REMMET052SBJR 031130Z 14004KT 9999 SCT020 BKN090 25/17 Q1021;EQDQ01+000000PRSWM2
0091831110999992000042720304-22980-043370FM-15+0003SBJR V0201001N00211220001CN0099001N1+02401+01901999999ADDMA1101691999999MW1001REMMET039SBJR 272130Z 10004KT CAVOK 24/19 Q1017;EQDQ01+000000PRSWM2
0139831110999992000042917304-22980-043370FM-15+0003SBJR V0201501N002112200019N0112651N1+02801+02101999999ADDGA1021+007509999GF102991999999999999999999MA1101591999999MW1001REMMET045SBJR 291830Z 15004KT 9999 FEW025 28/21 Q1016;EQDQ01+000000PRSWM2
0091831110999992000050509004-22980-043370FM-15+0003SBJR V0203601N00151220001CN0099001N1+02201+02001999999ADDMA1101291999999MW1001REMMET039SBJR 050900Z 36003KT CAVOK 22/20 Q1013;EQDQ01+000000PRSWM2
0147831110999992000050820304-22980-043370FM-15+0003SBJR V0200901N003110060019N0112651N1+02301+01901999999ADDGA1081+006009999GF108991999999999999999999MA1101391999999MW1001REMMET053SBJR 082130Z 09006KT 050V120 9999 OVC020 23/19 Q1014;EQDQ01+000000PRSWM2
0091831110999992000051420304-22980-043370FM-15+0003SBJR V0209999C00001220001CN0099001N1+02101+01801999999ADDMA1101591999999MW1001REMMET039SBJR 142130Z 00000KT CAVOK 21/18 Q1016;EQDQ01+000000PRSWM2
0139831110999992000051822004-22980-043370FM-15+0003SBJR V0202401N002612200019N0112651N1+02201+01501999999ADDGA1021+009009999GF102991999999999999999999MA1101291999999MW1001REMMET045SBJR 182200Z 24005KT 9999 FEW030 22/15 Q1013;EQDQ01+000000PRSWM2
0162831110999992000052212004-22980-043370FM-15+0003SBJR V0209999C000010270019N0112651N1+02001+01801999999ADDGA1021+006009999GA2071+027009999GF107991999999999999999999MA1102511999999MW1001REMMET052SBJR 221200Z 00000KT 9999 FEW020 BKN090 20/18 Q1025;EQDQ01+000000PRSWM2
0183831110999992000052810004-22980-043370FM-15+0003SBJR V0201901N002110024019N0020001N1+01901+01801999999ADDGA1071+002409999GA2081+024009999GF108991999999999999999999MA1101291999999MW1611REMMET057SBJR 281000Z 19004KT 2000 -RA BKN008 OVC080 19/18 Q1013 ;EQDQ01+000003PRSWM1Q02    003PRSWM1
0091831110999992000061216304-22980-043370FM-15+0003SBJR V0201401N00151220001CN0099001N1+02801+01601999999ADDMA1101291999999MW1001REMMET039SBJR 121730Z 14003KT CAVOK 28/16 Q1013;EQDQ01+000000PRSWM2
0091831110999992000061316304-22980-043370FM-15+0003SBJR V0201501N00211220001CN0099001N1+02501+02001999999ADDMA1101591999999MW1001REMMET039SBJR 131730Z 15004KT CAVOK 25/20 Q1016;EQDQ01+000000PRSWM2
0083831110999992000061412304-22980-043360FM-15+0003SBJR V0209999C000012200019N0040001N1+99999+99999999999ADDMW1001REMMET046SBJR 141330Z 00000KT 40000 HZ SKC 25/20 Q1018;EQDQ01+000000PRSWM2
0162831110999992000062109304-22980-043360FM-15+0003SBJR V0202301N002110300019N0070001N1+02101+01901999999ADDGA1021+004509999GA2071+030009999GF107991999999999999999999MA1101291999999MW1001REMMET052SBJR 211030Z 23004KT 7000 SCT015 BKN100 21/19 Q1013;EQDQ01+000000PRSWM2
0190831110999992000062117304-22980-043360FM-15+0003SBJR V0202301N003610048019N0050001N1+01901+01701999999ADDGA1071+004809999GA2081+024009999GF108991999999999999999999MA1101591999999MW1511MW2611REMMET058SBJR 211830Z 23007KT 5000 -RADZ BKN016 OVC080 19/17 Q1016;EQDQ01+000003PRSWM1Q02    003PRSWM1
0091831110999992000071109304-22980-043360FM-15+0003SBJR V0200101N00261220001CN0099001N1+02501+01601999999ADDMA1101491999999MW1001REMMET039SBJR 111030Z 01005KT CAVOK 25/16 Q1015;EQDQ01+000000PRSWM2
0162831110999992000071613304-22980-043360FM-15+0003SBJR V0202101N005110030019N0112651N1+01901+01701999999ADDGA1071+003009999GA2081+027009999GF108991999999999999999999MA1101021999999MW1001REMMET052SBJR 161430Z 21010KT 9999 BKN010 OVC090 19/17 Q1010;EQDQ01+000000PRSWM2
0162831110999992000072710304-22980-043360FM-15+0003SBJR V0209999C000010270019N0112651N1+01901+01801999999ADDGA1021+006009999GA2071+027009999GF107991999999999999999999MA1102301999999MW1001REMMET052SBJR 271130Z 00000KT 9999 FEW020 BKN090 19/18 Q1023;EQDQ01+000000PRSWM2
0139831110999992000081922004-22980-043360FM-15+0003SBJR V0209999C000012200019N0112651N1+01901+01701999999ADDGA1021+007509999GF102991999999999999999999MA1102101999999MW1001REMMET045SBJR 192200Z 00000KT 9999 FEW025 19/17 Q1021;EQDQ01+000000PRSWM2
0091831110999992000082209004-22980-043360FM-15+0003SBJR V0209999C00001220001CN0099001N1+01801+01701999999ADDMA1101691999999MW1001REMMET039SBJR 220900Z 00000KT CAVOK 18/17 Q1017;EQDQ01+000000PRSWM2
0091831110999992000082415004-22980-043360FM-15+0003SBJR V0200101N00311220001CN0099001N1+03101+01601999999ADDMA1101291999999MW1001REMMET039SBJR 241500Z 01006KT CAVOK 31/16 Q1013;EQDQ01+000000PRSWM2
0091831110999992000082619304-22980-043360FM-15+0003SBJR V0209999C00001220001CN0099001N1+03701+01601999999ADDMA1100511999999MW1001REMMET039SBJR 261930Z 00000KT CAVOK 37/16 Q1005;EQDQ01+000000PRSWM2
0092831110999992000091012004-22980-043360FM-15+0003SBJR V0209999C00001220001CN0099001N1+02401+01801999999ADDMA1101691999999MW1001REMMET040SBJR 101200Z 00000KT CAVOK 24/18 Q1017 ;EQDQ01+000000PRSWM2
0162831110999992000092709004-22980-043360FM-15+0003SBJR V0209999C000010300019N0112651N1+01701+01601999999ADDGA1021+006009999GA2081+030009999GF108991999999999999999999MA1102611999999MW1001REMMET052SBJR 270900Z 00000KT 9999 FEW020 OVC100 17/16 Q1026;EQDQ01+000000PRSWM2
0091831110999992000101822004-22980-043360FM-15+0003SBJR V0202201N00361220001CN0099001N1+02601+02301999999ADDMA1101591999999MW1001REMMET039SBJR 182200Z 22007KT CAVOK 26/23 Q1016;EQDQ01+000000PRSWM2
0162831110999992000103017004-22980-043360FM-15+0003SBJR V0200901N002610240019N0112651N1+02501+01701999999ADDGA1021+005109999GA2071+024009999GF107991999999999999999999MA1101591999999MW1001REMMET052SBJR 301700Z 09005KT 9999 SCT017 BKN080 25/17 Q1016;EQDQ01+000000PRSWM2
0091831110999992000110108004-22980-043360FM-15+0003SBJR V0209999C00001220001CN0099001N1+02101+01901999999ADDMA1101491999999MW1001REMMET039SBJR 010800Z 00000KT CAVOK 21/19 Q1015;EQDQ01+000000PRSWM2
0162831110999992000111410004-22980-043360FM-15+0003SBJR V0202001N002110300019N0112651N1+02401+02201999999ADDGA1021+004509999GA2071+030009999GF107991999999999999999999MA1100411999999MW1001REMMET052SBJR 141000Z 20004KT 9999 SCT015 BKN100 24/22 Q1004;EQDQ01+000000PRSWM2
0162831110999992000111911304-22980-043360FM-15+0003SBJR V0203401N002610270019N0112651N1+02301+02101999999ADDGA1021+006009999GA2081+027009999GF108991999999999999999999MA1101081999999MW1001REMMET052SBJR 191130Z 34005KT 9999 SCT020 OVC090 23/21 Q1011;EQDQ01+000000PRSWM2
0185831110999992000121309304-22980-043360FM-15+0003SBJR V0209999C000010900019N0112651N1+02601+02201999999ADDGA1021+006009999GA2021+030009999GA3071+090009999GF107991999999999999999999MA1100811999999MW1001REMMET059SBJR 130930Z 00000KT 9999 FEW020 SCT100 BKN300 26/22 Q1008;EQDQ01+000000PRSWM2
0162831110999992000121417304-22980-043360FM-15+0003SBJR V0201101N003612200019N0112651N1+03301+02201999999ADDGA1021+009009999GA2021+090009999GF104991999999999999999999MA1100411999999MW1001REMMET052SBJR 141730Z 11007KT 9999 FEW030 SCT300 33/22 Q1004;EQDQ01+000000PRSWM2
0091831110999992000121615304-22980-043360FM-15+0003SBJR V0201501N00211220001CN0099001N1+03201+02101999999ADDMA1100101999999MW1001REMMET039SBJR 161530Z 15004KT CAVOK 32/21 Q1001;EQDQ01+000000PRSWM2
0091831110999992000122711304-22980-043360FM-15+0003SBJR V0200101N00211220001CN0099001N1+03001+02201999999ADDMA1101021999999MW1001REMMET039SBJR 271130Z 01004KT CAVOK 30/22 Q1010;EQDQ01+000000PRSWM2
0202831790999992000041900004-11080-043170FM-12+040399999V0201401N001519999999N9999999N1+02611+02061100861ADDAA199000091GA1091+999999999GF109991091999999999999999KA1240M+03361MA1999999096401MD1999999+0011REMSYN076AAXX  19004 83179 329// 91403 10261 20206 39640 40086 89/// 333 10336 58001;EQDQ01  00002PRCP99
0186831790999992000072812004-11080-043170FM-12+040399999V0201401N003112200019N0200001N1+02481+01541101671ADDAA199000091GF104991031021008001001011KA1240N+01871MA1999999097161MD1999999+0061REMSYN076AAXX  28124 83179 32598 41406 10248 20154 39716 40167 83201 333 20187 58006;EQDQ01  00002PRCP99
0167831790999992000081618004-11080-043170FM-12+040399999V0200501N002112200019N0200001N1+03101+01241101221ADDAA199000091GF102991021011008001001001MA1999999096721MD1999999-0081REMSYN070AAXX  16184 83179 32598 20504 10310 20124 39672 40122 82100 333 59008;EQDQ01  00002PRCP99
0201831790999992000121312004-11080-043170FM-12+040399999V0200501N003110450019N0200001N1+02151+02111101161ADDAA124005191AY161061AY221061GF108991041051008001021999KA1240N+02081MA1999999096601MD1999999-0121MW1021REMSYN088AAXX  13124 83179 21598 80506 10215 20211 39660 40116 70262 8452/ 333 20208 59012 60054;
0167831820999992000021218004-11300-041870FM-12+074799999V0201801N004610075019N0040001N1+02811+99999100921ADDAA199000091GF106991051021008001001011MA1999999092621MD1999999-0121REMSYN070AAXX  12184 83182 32596 61809 10281 20/// 39262 40092 85201 333 59012;EQDQ01  00002PRCP99
0167831820999992000030318004-11300-041870FM-12+074799999V0200901N003110075019N0100001N1+03061+99999100921ADDAA199000091GF105991051021008001001001MA1999999092651MD1999999+0041REMSYN070AAXX  03184 83182 32597 50906 10306 20/// 39265 40092 85200 333 58004;EQDQ01  00002PRCP99
0196831820999992000031812004-11300-041870FM-12+074799999V0200501N001512200019N0040001N1+02331+99999101181ADDAA199000091GA1001+999999999GF100991001001999999001001KA1240N+01621MA1999999092841MD1999999-0111REMSYN070AAXX  18124 83182 32996 00503 10233 2//// 39284 40118 333 20162 59011;EQDQ01  00002PRCP99
0167831820999992000042418004-11300-041870FM-12+074799999V0200901N005710450019N0100001N1+02631+99999101121ADDAA199000091GF107991021031004501051011MA1999999092821MD1999999+0141REMSYN070AAXX  24184 83182 32497 70911 10263 2//// 39282 40112 82351 333 58014;EQDQ01  00002PRCP99
0186831820999992000050600004-11300-041870FM-12+074799999V0201401N003612200019N9999999N1+02131+99999101381ADDAA199000091GF106991021021008001001011KA1240M+02761MA1999999093021MD1999999+0001REMSYN076AAXX  06004 83182 325// 61407 10213 20/// 39302 40138 82201 333 10276 58000;EQDQ01  00002PRCP99
0167831820999992000060818004-11300-041870FM-12+074799999V0201401N004612200019N0100001N1+02701+01721101531ADDAA199000091GF106991031021008001001041MA1999999093151MD1999999-0051REMSYN070AAXX  08184 83182 32597 61409 10270 20172 39315 40153 83204 333 59005;EQDQ01  00002PRCP99
0186831820999992000071512004-11290-041860FM-12+074799999V0200901N005110075019N0100001N1+02031+01421101801ADDAA199000091GF106991061021008001001001KA1240N+01731MA1999999093371MD1999999-0071REMSYN076AAXX  15124 83182 32597 60910 10203 20142 39337 40180 86200 333 20173 59007;EQDQ01  00002PRCP99
0186831820999992000083112004-11290-041860FM-12+074799999V0201401N005710075019N0100001N1+02291+01601101721ADDAA199000091GF108991081051008001999999KA1240N+01411MA1999999093341MD1999999+0011REMSYN076AAXX  31124 83182 32597 81411 10229 20160 39334 40172 885// 333 20141 58001;EQDQ01  00002PRCP99
0167831820999992000091818004-11290-041860FM-12+074799999V0200901N006212200019N0040001N1+02881+01051101361ADDAA199000091GF102991021021008001001001MA1999999093041MD1999999+0071REMSYN070AAXX  18184 83182 32596 20912 10288 20105 39304 40136 82200 333 58007;EQDQ01  00002PRCP99
0196831820999992000102100004-11290-041860FM-12+074799999V0200901N003112200019N0005001N1+02591+00841101191ADDAA199000091GA1001+999999999GF100991001001999999001001KA1240M+03351MA1999999092901MD1999999-0191REMSYN070AAXX  21004 83182 32993 00906 10259 20084 39290 40119 333 10335 59019;EQDQ01  00002PRCP99
0186831820999992000120200004-11290-041860FM-12+074799999V0201401N002612200019N0005001N1+02451+01751101191ADDAA199000091GF106991041021008001001011KA1240M+03201MA1999999092911MD1999999+0041REMSYN076AAXX  02004 83182 32593 61405 10245 20175 39291 40119 84201 333 10320 58004;EQDQ01  00002PRCP99
0186831860999992000022900004-11180-040470FM-12+048499999V0201401N006210075019N9999999N1+02601+02101100861ADDAA199000091GF106991061051008001001001KA1240M+03011MA1999999095371MD1999999-0021REMSYN076AAXX  29004 83186 325// 61412 10260 20210 39537 40086 86500 333 10301 59002;EQDQ01  00002PRCP99
0186831860999992000030812004-11180-040470FM-12+048499999V0201401N003610450019N0200001N1+02541+01951100911ADDAA199000091GF106991011021008001011081KA1240N+02111MA1999999095401MD1999999-0061REMSYN076AAXX  08124 83186 32598 61407 10254 20195 39540 40091 81218 333 20211 59006;EQDQ01  00002PRCP99
0196831860999992000031200004-11180-040470FM-12+048499999V0200501N001512200019N9999999N1+02421+02111100741ADDAA199000091GA1001+999999999GF100991001001999999001001KA1240M+03091MA1999999095231MD1999999-0261REMSYN070AAXX  12004 83186 329// 00503 10242 20211 39523 40074 333 10309 59026;EQDQ01  00002PRCP99
0201831860999992000032912004-11180-040470FM-12+048499999V0201401N003111050019N0100001N1+02481+02051100971ADDAA124005191AY161061AY261061GF106991041071008001001081KA1240N+02041MA1999999095451MD1999999-0081MW1021REMSYN088AAXX  29124 83186 21597 61406 10248 20205 39545 40097 70266 84708 333 20204 59008 60054;
0186831860999992000041600004-11180-040470FM-12+048499999V0201401N006210075019N9999999N1+02381+02151101171ADDAA199000091GF108991081071008001999999KA1240M+02941MA1999999095641MD1999999+0111REMSYN076AAXX  16004 83186 325// 81412 10238 20215 39564 40117 887// 333 10294 58011;EQDQ01  00002PRCP99
0186831860999992000051100004-11180-040470FM-12+048499999V0203601N001512200019N9999999N1+02311+01961101061ADDAA199000091GF104991001001999999001041KA1240M+03011MA1999999095531MD1999999+0071REMSYN076AAXX  11004 83186 329// 43603 10231 20196 39553 40106 80004 333 10301 58007;EQDQ01  00002PRCP99
0148831860999992000060518004-11180-040470FM-12+048499999V0201401N004110075019N0100001N1+02071+01821101461ADDAA199000021GF108991081071008001999999MA1999999095851MD1999999+0011REMSYN070AAXX  05184 83186 32597 81408 10207 20182 39585 40146 887// 333 58001;
0186831860999992000081612004-11170-040460FM-12+048499999V0201401N003110075019N0100001N1+01931+01611102061ADDAA199000091GF107991061071008001001081KA1240N+01711MA1999999096421MD1999999-0121REMSYN076AAXX  16124 83186 32597 71406 10193 20161 39642 40206 86708 333 20171 59012;EQDQ01  00002PRCP99
0186831860999992000090512004-11170-040460FM-12+048499999V0201401N005110075019N0100001N1+02161+01781101801ADDAA199000091GF108991081071008001999999KA1240N+01961MA1999999096231MD1999999+0131REMSYN076AAXX  05124 83186 32597 81410 10216 20178 39623 40180 887// 333 20196 58013;EQDQ01  00002PRCP99
0202831860999992000122800004-11170-040460FM-12+048499999V0209999C001012200019N0100001N1+02331+01891101281ADDAA199000091GF103991999001999999081001KA1240M+02981MA1999999095921MD1999999-0021REMSYN076AAXX  28004 83186 32997 30002 10233 20189 39592 40128 80080 333 10298 59002;EQDQ01+000002SCOTLCQ02  00002PRCP99
0186831900999992000070612004+99999+999999FM-12+999999999V0201801N004010090019N0100001N1+02061+01981101721ADDAA199000091GF107991071081004501001001KA1240N+01811MA1999999097551MD1999999-0011REMSYN076AAXX  0612  83190 32497 71804 10206 20198 39755 40172 87800 333 20181 59001;EQDQ01  00002PRCP99
0186831900999992000092612004+99999+999999FM-12+999999999V0201401N006010075019N0100001N1+02301+01831101941ADDAA199000091GF106991061021008001001001KA1240N+01801MA1999999097731MD1999999+0491REMSYN076AAXX  2612  83190 32597 61406 10230 20183 39773 40194 86200 333 20180 58049;EQDQ01  00002PRCP99
0161831900999992000100818004+99999+999999FM-12+999999999V0201401N007012200019N0500001N1+03041+01281999999ADDAA199000091GF104991041021008001001001MA1999999097191MD1999999+0011REMSYN064AAXX  0818  83190 32599 41407 10304 20128 39719 84200 333 58001;EQDQ01  00002PRCP99
0167831920999992000030318004-11080-038500FM-12+014599999V0200901N005110450019N0200001N1+03171+01431999999ADDAA199000091GF105991041021008001041001MA1999999099221MD1999999-0081REMSYN070AAXX  03184 83192 32598 50910 10317 20143 39922 40/// 84240 333 59008;EQDQ01  00002PRCP99
0186831920999992000030612004-11080-038500FM-12+014599999V0201401N003110075019N0200001N1+02711+01991999999ADDAA199000091GF107991051031008001021001KA1240N+02371MA1999999099681MD1999999-0121REMSYN076AAXX  06124 83192 32598 71406 10271 20199 39968 4//// 85320 333 20237 59012;EQDQ01  00002PRCP99
0196831920999992000053000004-11080-038500FM-12+014599999V0201401N002112200019N9999999N1+02341+02291999999ADDAA199000091GA1001+999999999GF100991001001999999001001KA1240M+03261MA1999999099621MD1999999+0101REMSYN070AAXX  30004 83192 329// 01404 10234 20229 39962 40/// 333 10326 58010;EQDQ01  00002PRCP99
0182831920999992000072818004-11080-038500FM-12+014599999V0201401N005110075019N0100001N1+02111+01931101701ADDAA106004191AY161061AY261061GF108991051031008001021999MA1999999100021MD1999999+0221MW1031REMSYN082AAXX  28184 83192 21597 81410 10211 20193 30002 40170 70366 8532/ 333 58022 60041;
0182831920999992000080718004-11080-038500FM-12+014599999V0200501N002110450019N0100001N1+02391+02221101601ADDAA106000191AY151061AY221061GF107991041031008001021001MA1999999099931MD1999999-0101MW1031REMSYN082AAXX  07184 83192 21597 70504 10239 20222 39993 40160 70352 84320 333 59010 69921;
0201831920999992000091300004-11080-038500FM-12+014599999V0200901N002110450019N0020001N1+02221+02191101531ADDAA106000591AY151061AY221061GF107991021041008001051001KA1240M+02781MA1999999099861MD1999999-0041MW1031REMSYN088AAXX  13004 83192 21595 70904 10222 20219 39986 40153 70352 82450 333 10278 59004 69941;
0173831920999992000111012004-11080-038500FM-12+014599999V0200501N002110075019N0100001N1+02661+02221100991ADDAA124007191GF108991051031008001021999KA1240N+02291MA1999999099351MD1999999+0111REMSYN082AAXX  10124 83192 22597 80504 10266 20222 39935 40099 8532/ 333 20229 58011 60074;
0186831920999992000112912004-11080-038500FM-12+014599999V0201401N003112200019N0100001N1+02891+01941101661ADDAA199000091GF103991031021008001001001KA1240N+02301MA1999999100011MD1999999+0021REMSYN076AAXX  29124 83192 32597 31406 10289 20194 30001 40166 83200 333 20230 58002;EQDQ01  00002PRCP99
0201831920999992000121512004-11080-038500FM-12+014599999V0200901N001010450019N0100001N1+02261+02211101131ADDAA124029091AY161061AY261061GF108991021041008001051999KA1240N+02181MA1999999099461MD1999999-0011MW1501REMSYN088AAXX  15124 83192 21597 80902 10226 20221 39946 40113 75066 8245/ 333 20218 59001 60294;
0186831950999992000010612004-11120-037820FM-12+020899999V02099999999990450019N0500001N1+02701+02151101221ADDAA106000091GF106991041021008001041001KA1240N+02051MA1999999098791MD1999999+0061REMSYN076AAXX  06124 83195 32599 605// 10270 20215 39879 40122 84240 333 20205 58006;EQDQ01  00002PRCP06
0196831950999992000012700004-11120-037820FM-12+020899999V02099999999992200019N9999999N1+02411+02191101181ADDAA199000091GA1001+999999999GF100991001001999999001001KA1240M+03221MA1999999098721MD1999999+0061REMSYN070AAXX  27004 83195 329// 005// 10241 20219 39872 40118 333 10322 58006;EQDQ01  00002PRCP99
0167831950999992000012718004-11120-037820FM-12+020899999V02099999999992200019N0500001N1+03261+02461100891ADDAA199000091GF102991021011004501001001MA1999999098461MD1999999-0091REMSYN070AAXX  27184 83195 32499 209// 10326 20246 39846 40089 82100 333 59009;EQDQ01  00002PRCP99
0196831950999992000021900004-11120-037820FM-12+020899999V02099999999992200019N9999999N1+02411+02231101311ADDAA199000091GA1001+999999999GF100991001001999999001001KA1240M+03091MA1999999098871MD1999999+0131REMSYN070AAXX  19004 83195 329// 005// 10241 20223 39887 40131 333 10309 58013;EQDQ01  00002PRCP99
0186831950999992000022512004-11120-037820FM-12+020899999V02099999999990075019N0500001N1+02571+02331101281ADDAA199000091GF106991051021008001001011KA1240N+02191MA1999999098811MD1999999-0061REMSYN076AAXX  25124 83195 32599 605// 10257 20233 39881 40128 85201 333 20219 59006;EQDQ01  00002PRCP99
0167831950999992000042018004-11120-037820FM-12+020899999V02099999999992200019N0500001N1+02911+02411100911ADDAA199000091GF104991041021008001001001MA1999999098501MD1999999-0131REMSYN070AAXX  20184 83195 32599 409// 10291 20241 39850 40091 84200 333 59013;EQDQ01  00002PRCP99
0201831950999992000042512004-11120-037820FM-12+020899999V02099999999992200019N0500001N1+02631+02121101391ADDAA124009991AY161061AY201061GF104991041021008001001001KA1240N+02221MA1999999098931MD1999999+0031MW1021REMSYN088AAXX  25124 83195 21599 409// 10263 20212 39893 40139 70260 84200 333 20222 58003 60104;
0196831950999992000050600004-11120-037820FM-12+020899999V02099999999992200019N9999999N1+02291+02181101301ADDAA199000091GA1001+999999999GF100991001001999999001001KA1240M+02881MA1999999098901MD1999999+0011REMSYN070AAXX  06004 83195 329// 009// 10229 20218 39890 40130 333 10288 58001;EQDQ01  00002PRCP99
0182831950999992000052518004-11120-037820FM-12+020899999V02099999999992200019N0500001N1+02731+02281101381ADDAA106003091AY161061AY261061GF104991041021008001001001MA1999999098921MD1999999-0151MW1021REMSYN082AAXX  25184 83195 21599 414// 10273 20228 39892 40138 70266 84200 333 59015 60031;
0167831950999992000061218004-11120-037820FM-12+020899999V02099999999990075019N0500001N1+02651+02251101351ADDAA199000091GF105991051021008001001001MA1999999098961MD1999999+0031REMSYN070AAXX  12184 83195 32599 514// 10265 20225 39896 40135 85200 333 58003;EQDQ01  00002PRCP99
0201831950999992000082512004-11120-037820FM-12+020899999V0201401N001510075019N0200001N1+02441+02091101761ADDAA124009991AY161061AY221061GF105991051021008001001001KA1240N+02091MA1999999099371MD1999999-0111MW1021REMSYN088AAXX  25124 83195 21598 51403 10244 20209 39937 40176 70262 85200 333 20209 59011 60104;
0196831950999992000090400004-11120-037820FM-12+020899999V0200901N002112200019N0005001N1+02091+01841101481ADDAA199000091GA1001+999999999GF100991001001999999001001KA1240M+02891MA1999999099051MD1999999-0071REMSYN070AAXX  04004 83195 32993 00904 10209 20184 39905 40148 333 10289 59007;EQDQ01  00002PRCP99
0196831950999992000092000004-11120-037820FM-12+020899999V0201401N001012200019N0005001N1+02161+01931101761ADDAA199000091GA1001+999999999GF100991001001999999001001KA1240M+02841MA1999999099371MD1999999-0141REMSYN070AAXX  20004 83195 32993 01402 10216 20193 39937 40176 333 10284 59014;EQDQ01  00002PRCP99
0201831950999992000110812004-11120-037820FM-12+020899999V0209999C000010075019N0100001N1+02291+02251100911ADDAA124016091AY161061AY221061GF108991061071008001021001KA1240N+02231MA1999999098561MD1999999-0021MW1021REMSYN088AAXX  08124 83195 21597 80500 10229 20225 39856 40091 70262 86720 333 20223 59002 60164;
0186831950999992000120612004-11120-037820FM-12+020899999V0200501N004112200019N0200001N1+02791+01961101271ADDAA199000091GF104991041021008001001001KA1240N+02251MA1999999098931MD1999999-0011REMSYN076AAXX  06124 83195 32598 40508 10279 20196 39893 40127 84200 333 20225 59001;EQDQ01  00002PRCP99
0167831950999992000121618004-11120-037820FM-12+020899999V0203201N005110075019N0200001N1+02651+01851100841ADDAA199000091GF107991051051008001011001MA1999999098481MD1999999-0011REMSYN070AAXX  16184 83195 32598 73210 10265 20185 39848 40084 85510 333 59001;EQDQ01  00002PRCP99
0201831950999992000121800004-11120-037820FM-12+020899999V0200501N002610075019N0005001N1+02311+02181101271ADDAA106000191AY161061AY221061GF108991081071008001999999KA1240M+02971MA1999999098901MD1999999+0101MW1031REMSYN088AAXX  18004 83195 21593 80505 10231 20218 39890 40127 70362 887// 333 10297 58010 69921;
0167831950999992000122218004-11120-037820FM-12+020899999V0200901N003112200019N0200001N1+03081+01851101221ADDAA199000091GF103991031021008001001001MA1999999098881MD1999999+0051REMSYN070AAXX  22184 83195 32598 30906 10308 20185 39888 40122 83200 333 58005;EQDQ01  00002PRCP99
0162832080999992000011522004-12730-060130FM-15+0652SBVH V0203301N002610300019N0112651N1+02501+02101999999ADDGA1021+006009999GA2071+030009999GF107991999999999999999999MA1100811999999MW1001REMMET052SBVH 152200Z 33005KT 9999 FEW020 BKN100 25/21 Q1008;EQDQ01+000000PRSWM2
