0173010010999992000010300004+70930-008670FM-12+0009ENJA V0203401N002612200019N0300001N1-00261-00551098651ADDAA106000091GF103991031051008001001001MA1999999098541MD1010021+9999REMSYN076AAXX  03004 01001 32580 33405 11026 21055 39854 49865 50002 83500 333 91114;EQDQ01  00002PRCP06
0207010010999992000012906004+70930-008670FM-12+0009ENJA V0200201N005710075019N0100001N1-01351-01771099101ADDAA112000191AY181061AY231061GF107991071051008001999999KA1120N-01381MA1999999098981MD1510031+9999MW1361REMSYN094AAXX  29064 01001 11560 70211 11135 21177 39898 49910 55003 69922 73683 875// 333 21138 91116;
0220010010999992000021506004+70930-008670FM-12+0009ENJA V0200701N007710090019N0250001N1-00171-00351099331ADDAA199000091AY131061AY221061GF107991071081004501999999KA1120N-00321MA1999999099211MD1810111+9999MW1361REMSYN088AAXX  15064 01001 31475 70715 11017 21035 39921 49933 58011 73632 878// 333 21032 91122;EQDQ01  00002PRCP99
0188010010999992000021800004+70930-008670FM-12+0009ENJA V0203601N004610120019N0050001N1-00291-00471100751ADDAA106000191AY181061AY231061GF108991081081008001999999MA1999999100631MD1310151+9999MW1361REMSYN088AAXX  18004 01001 11550 83609 11029 21047 30063 40075 53015 69921 73683 888// 333 91118;
0101010010999992000030203004+70930-008670FM-12+0009ENJA V0200301N003619999999N9999999N1-00631-00791100661ADDMA1999999100541MD1510031+9999REMSYN060AAXX  02034 01001 46/// /0307 11063 21079 30054 40066 55003;
0161010010999992000032009004+70930-008670FM-12+0009ENJA V0203501N006710060019N0005001N1-00811-01081099961ADDAY131031AY221031GF107991071081002501999999MA1999999099841MD1110331+9999MW1381REMSYN072AAXX  20094 01001 41305 73513 11081 21108 39984 49996 51033 73832 878//;
0101010010999992000032221004+70930-008670FM-12+0009ENJA V0203601N005119999999N9999999N1-00701-00961101441ADDMA1999999101321MD1110131+9999REMSYN060AAXX  22214 01001 46/// /3610 11070 21096 30132 40144 51013;
0207010010999992000032418004+70930-008670FM-12+0009ENJA V0200201N001010075019N0300001N1-00831-01291102631ADDAA112000791AY171061AY221061GF106991061051008001001001KA1120M-00721MA1999999102511MD1310051+9999MW1701REMSYN094AAXX  24184 01001 11580 60202 11083 21129 30251 40263 53005 69902 77072 86500 333 11072 91108;
0207010010999992000040406004+70930-008670FM-12+0009ENJA V0201701N004112200019N0150001N1-00491-00711100961ADDAA112000191AY181061AY231061GF104991041091002501001001KA1120N-00611MA1999999100841MD1110071+9999MW1851REMSYN094AAXX  04064 01001 11365 41708 11049 21071 30084 40096 51007 69912 78583 84900 333 21061 91115;
0101010010999992000040703004+70930-008670FM-12+0009ENJA V0201401N001019999999N9999999N1-00021-00091100851ADDMA1999999100731MD1810291+9999REMSYN060AAXX  07034 01001 46/// /1402 11002 21009 30073 40085 58029;
0101010010999992000040803004+70930-008670FM-12+0009ENJA V0202101N003119999999N9999999N1-00261-00351100571ADDMA1999999100451MD1810161+9999REMSYN060AAXX  08034 01001 46/// /2106 11026 21035 30045 40057 58016;
0226010010999992000040906004+70930-008670FM-12+0009ENJA V0203601N003110012019N0090001N1-00411-00511099851ADDAA112000891AY171061AY231061GF108991999051001501021999KA1120N-00411MA1999999099731MD1310211+9999MW1021REMSYN094AAXX  09064 01001 11259 83606 11041 21051 39973 49985 53021 69972 70273 8852/ 333 21041 91122;EQDQ01+000082SCOTLC
0173010010999992000041306004+70930-008670FM-12+0009ENJA V0202901N004610240019N0300001N1-00301-00571101931ADDAA199000021GF105991041051004501071021KA1120N-00851MA1999999101811MD1810271+9999REMSYN082AAXX  13064 01001 32480 52909 11030 21057 30181 40193 58027 84572 333 21085 91112;
0173010010999992000041400004+70930-008670FM-12+0009ENJA V0201201N002110240019N0600001N1-00311-00441100721ADDAA199000091GF107991011051004501071071MA1999999100601MD1710221+9999REMSYN076AAXX  14004 01001 32486 71204 11031 21044 30060 40072 57022 81577 333 91105;EQDQ01  00002PRCP99
0207010010999992000050818004+70930-008670FM-12+0009ENJA V0201501N002110006019N0020001N1+00041-00051099591ADDAA112009991AY161061AY221061GF108991081061000751999999KA1120M+00081MA1999999099481MD1710411+9999MW1651REMSYN094AAXX  08184 01001 11120 81504 10004 21005 39948 49959 57041 60102 76562 886// 333 10008 91107;
0207010010999992000051906004+70930-008670FM-12+0009ENJA V0203301N006710012019N0080001N1+00051-00041099391ADDAA112000191AY151061AY221061GF107991061061001501999999KA1120N+00031MA1999999099281MD1110051+9999MW1501REMSYN094AAXX  19064 01001 11258 73313 10005 21004 39928 49939 51005 69912 75052 866// 333 20003 91120;
0208010010999992000051912004+70930-008670FM-12+0009ENJA V0203301N007210060019N0080001N1+00071-00021099571ADDAA106000191AY151061AY221061GF107991071081001501999999MA1999999099451MD1210061+9999MW1201SA1+0039REMSYN100AAXX  19124 01001 11258 73314 10007 21002 39945 49957 52006 69911 72052 878// 222// 00003 333 91117;
0207010010999992000053106004+70930-008670FM-12+0009ENJA V0203501N007210240019N0050001N1-00151-00281100161ADDAA112002091AY181061AY231061GF107991041081002501071999KA1120N-00221MA1999999100041MD1510001+9999MW1361REMSYN094AAXX  31064 01001 11350 73514 11015 21028 30004 40016 55000 60022 73683 8487/ 333 21022 91122;
0207010010999992000053118004+70930-008670FM-12+0009ENJA V0203401N006210060019N0050001N1-00211-00391100331ADDAA112001091AY181061AY231061GF107991071081002501999999KA1120M-00141MA1999999100211MD1210011+9999MW1381REMSYN094AAXX  31184 01001 11350 73412 11021 21039 30021 40033 52001 60012 73883 878// 333 11014 91121;
0133010010999992000061715004+70930-008660FM-12+0009ENJA V0202101N002610006019N0150001N1+00101+00011101801ADDGF108991081061000751999999MA1999999101681MD1810121+9999REMSYN066AAXX  17154 01001 42165 82105 10010 20001 30168 40180 58012 886//;
0133010010999992000062215004+70930-008660FM-12+0009ENJA V0201801N001012200019N0100001N1+00161+00051102151ADDGF101991011061001501001001MA1999999102031MD1410001+9999REMSYN066AAXX  22154 01001 42260 11802 10016 20005 30203 40215 54000 81600;
0188010010999992000062400004+70930-008660FM-12+0009ENJA V0200101N003110006019N0150001N1+00091+00011102281ADDAA106000791AY151061AY241061GF107991071061000751999999MA1999999102161MD1110081+9999MW1501REMSYN088AAXX  24004 01001 11165 70106 10009 20001 30216 40228 51008 69901 75054 876// 333 91116;
0192010010999992000070706004+70930-008660FM-12+0009ENJA V0201401N001010012019N0300001N1+00241+00101101521ADDAA199000091GF108991081061001501999999KA1120N+00211MA1999999101401MD1610081+9999REMSYN082AAXX  07064 01001 32280 81402 10024 20010 30140 40152 56008 886// 333 20021 91103;EQDQ01  00002PRCP99
0101010010999992000070821004+70930-008660FM-12+0009ENJA V0203101N003619999999N9999999N1+00231+00141100051ADDMA1999999099931MD1210041+9999REMSYN060AAXX  08214 01001 46/// /3107 10023 20014 39993 40005 52004;
0218010010999992000080212004+70930-008660FM-12+0009ENJA V0202401N001510006019N0008001N1+00591+00481100601ADDAA106007191AY161061AY251061GA1091+999999999GF109991091999999999999999MA1999999100481MD1610021+9999MW1581SA1+0279REMSYN094AAXX  02124 01001 11/08 92403 10059 20048 30048 40060 56002 60071 75865 222// 00027 333 91106;
0188010010999992000091300004+70930-008660FM-12+0009ENJA V0201801N005110012019N0018001N1+00631+00521101071ADDAA106000191AY151061AY221061GF108991081061001501999999MA1999999100951MD1110041+9999MW1511REMSYN088AAXX  13004 01001 11218 81810 10063 20052 30095 40107 51004 69911 75152 886// 333 91114;
0207010010999992000091318004+70930-008660FM-12+0009ENJA V0201601N004610060019N0200001N1+00641+00501100911ADDAA112000791AY181061AY281061GF108991081081002501999999KA1120M+00711MA1999999100801MD1710121+9999MW1251REMSYN094AAXX  13184 01001 11370 81609 10064 20050 30080 40091 57012 69902 72588 888// 333 10071 91113;
0161010010999992000092015004+70930-008660FM-12+0009ENJA V0202201N003610006019N0016001N1+00471+00371101501ADDAY151031AY241031GF108991081061000751999999MA1999999101391MD1110021+9999MW1511REMSYN072AAXX  20154 01001 41116 82207 10047 20037 30139 40150 51002 75154 886//;
0161010010999992000092115004+70930-008660FM-12+0009ENJA V0202101N002110012019N0090001N1+00721+00621101521ADDAY161031AY221031GF108991081061001501999999MA1999999101401MD1010001+9999MW1101REMSYN072AAXX  21154 01001 41259 82104 10072 20062 30140 40152 50000 71062 886//;
0217010010999992000092518004+70930-008660FM-12+0009ENJA V0202001N002610003019N0005001N1+00571+00471102151ADDAA112000591AY151061AY241061GA1091+999999999GF109991091999999999999999KA1120M+00611MA1999999102031MD1610011+9999MW1531REMSYN088AAXX  25184 01001 11/05 92005 10057 20047 30203 40215 56001 69952 75354 333 10061 91109;
0208010010999992000092712004+70930-008660FM-12+0009ENJA V0201701N001010006019N0070001N1+00521+00421101341ADDAA106000791AY151061AY241061GF108991081061000751999999MA1999999101221MD1610081+9999MW1401SA1+0419REMSYN100AAXX  27124 01001 11157 81702 10052 20042 30122 40134 56008 69901 74054 886// 222// 00041 333 91106;
0101010010999992000101903004+70930-008660FM-12+0009ENJA V0209999C000019999999N9999999N1+00331+00231099101ADDMA1999999098991MD1010061+9999REMSYN060AAXX  19034 01001 46/// /0000 10033 20023 39899 49910 50006;
0161010010999992000110209004+70930-008660FM-12+0009ENJA V0200201N001510012019N0050001N1+00461+00341099691ADDAY161031AY251031GF108991081051001501999999MA1999999099571MD1110251+9999MW1511REMSYN072AAXX  02094 01001 41250 80203 10046 20034 39957 49969 51025 75165 885//;
0161010010999992000110509004+70930-008660FM-12+0009ENJA V0200101N006710042019N0060001N1-00431-00691101451ADDAY171031AY231031GF108991071051004501999999MA1999999101331MD1110131+9999MW1701REMSYN072AAXX  05094 01001 41456 80113 11043 21069 30133 40145 51013 77073 875//;
0208010010999992000110512004+70930-008660FM-12+0009ENJA V0200101N006210042019N0050001N1-00451-00821101631ADDAA106000791AY171061AY231061GF107991071051004501999999MA1999999101501MD1310171+9999MW1711SA1+0259REMSYN100AAXX  05124 01001 11450 70112 11045 21082 30150 40163 53017 69901 77173 875// 222// 00025 333 91121;
0208010010999992000111512004+70930-008660FM-12+0009ENJA V0201101N003610012019N0070001N1+00111+00021099451ADDAA106002091AY181061AY271061GF108991061071001501021999MA1999999099341MD1810031+9999MW1611SA1+0119REMSYN100AAXX  15124 01001 11257 81107 10011 20002 39934 49945 58003 60021 76187 8672/ 222// 00011 333 91116;
0154010010999992000111712004+70930-008660FM-12+0009ENJA V0201101N002610240019N0070001N1+00331+00231100471ADDAA199000021GF105991041051001501071001MA1999999100361MD1110091+9999REMSYN076AAXX  17124 01001 32257 51105 10033 20023 30036 40047 51009 84570 333 91111;
0101010010999992000112103004+70930-008660FM-12+0009ENJA V0201101N003119999999N9999999N1+00391+00201101931ADDMA1999999101811MD1810071+9999REMSYN060AAXX  21034 01001 46/// /1106 10039 20020 30181 40193 58007;
0161010010999992000112515004+70930-008660FM-12+0009ENJA V0200201N007710021019N0050001N1+00201+00041099171ADDAY151031AY241031GF108991061051002501999999MA1999999099051MD1810221+9999MW1501REMSYN072AAXX  25154 01001 41350 80215 10020 20004 39905 49917 58022 75054 865//;
0101010010999992000112603004+70930-008660FM-12+0009ENJA V0203501N006219999999N9999999N1+00101+00001099031ADDMA1999999098911MD1310031+9999REMSYN060AAXX  26034 01001 46/// /3512 10010 20000 39891 49903 53003;
0192010010999992000121618004+70930-008660FM-12+0009ENJA V0203601N001012200019N0300001N1-00781-01171101011ADDAA199000091GF104991031051008001001011KA1120M-00731MA1999999100881MD1710101+9999REMSYN082AAXX  16184 01001 32580 43602 11078 21117 30088 40101 57010 83501 333 11073 91106;EQDQ01  00002PRCP99
0140010014999992000012106504+59800+005350FM-15+0049ENSO V0203501N008212200019N0112651N1+00201-00501999999ADDGA1021+007509999GF102991999999999999999999MA1101901999999MW1001REMMET046ENSO 210650Z 35016KT 9999 FEW025 02/M05 Q1019;EQDQ01+000000PRSWM2
0163010014999992000012313504+59800+005350FM-15+0049ENSO V0201201N002610210019N0112651N1+00101-00401999999ADDGA1021+009009999GA2071+021009999GF107991999999999999999999MA1102001999999MW1001REMMET053ENSO 231350Z 12005KT 9999 FEW030 BKN070 01/M04 Q1020;EQDQ01+000000PRSWM2
0185010014999992000020717504+59800+005350FM-15+0049ENSO V02099999999990180019N0112651N1+00501+00001999999ADDGA1021+004509999GA2021+007509999GA3071+018009999GF107991999999999999999999MA1098821999999MW1001REMMET059ENSO 071750Z VRB04KT 9999 FEW015 SCT025 BKN060 05/00 Q0988;EQDQ01+000000PRSWM2
0185010014999992000022211504+59800+005350FM-15+0049ENSO V0201301N002610090019N0112651N1+00301+00301999999ADDGA1021+002109999GA2021+003009999GA3071+009009999GF107991999999999999999999MA1101901999999MW1001REMMET059ENSO 221150Z 13005KT 9999 FEW007 SCT010 BKN030 03/03 Q1019;EQDQ01+000000PRSWM2
0202010014999992000022416504+59800+005350FM-15+0049ENSO V0202501N004110090019N0112651N1+00501-00101999999ADDGA1021+004509099GA2071+009009999GF107991999999999999999999MA1100201999999MW1811MW2871REMMET070ENSO 241650Z 25008KT 080V020 9999 SHRAGS FEW015CB BKN030 05/M01 Q1002;EQDQ01+000003PRSWM1Q02    003PRSWM1
0170010014999992000030817504+59800+005350FM-15+0049ENSO V0203201N004610021019N0112651N1+00401+00401999999ADDGA1021+001209999GA2071+002109999GF107991999999999999999999MA1098711999999MW1001REMMET060ENSO 081750Z 32009KT 280V360 9999 SCT004 BKN007 04/04 Q0987;EQDQ01+000000PRSWM2
0097010014999992000031315504+59800+005350FM-15+0049ENSO V0203201N003112200019N0112651N1+99999+99999999999ADDMW1001REMMET060ENSO 131550Z 32006KT 250V010 9999 FEWO20 BKN070 06/05 Q1009;EQDQ01+000000PRSWM2
0170010014999992000031516504+59800+005350FM-15+0049ENSO V0200801N002610036019N0112651N1+00101+00101999999ADDGA1021+001509999GA2071+003609999GF107991999999999999999999MA1101291999999MW1001REMMET060ENSO 151650Z 08005KT 050V120 9999 FEW005 BKN012 01/01 Q1013;EQDQ01+000000PRSWM2
0162010014999992000032015504+59800+005350FM-15+0049ENSO V0203201N004612200019N0112651N1+00601+00401999999ADDGA1021+003909999GA2021+007509999GF104991999999999999999999MA1101901999999MW1001REMMET052ENSO 201550Z 32009KT 9999 FEW013 SCT025 06/04 Q1019;EQDQ01+000000PRSWM2
0162010014999992000032211504+59800+005350FM-15+0049ENSO V0203101N002612200019N0112651N1+00501+00201999999ADDGA1021+004209999GA2021+006009999GF104991999999999999999999MA1101191999999MW1001REMMET052ENSO 221150Z 31005KT 9999 FEW014 SCT020 05/02 Q1012;EQDQ01+000000PRSWM2
0158010014999992000032314504+59800+005350FM-15+0049ENSO V0203401N005112200019N0112651N1+99999+99999999999ADDGA1021+004509029GA2021+007509999GF104991999999999999999999MW1001REMMET063ENSO 231450Z 34010KT 270V010 9999 FEW015TCU SCT025 04M06 Q1016;EQDQ01+000000PRSWM2
0193010014999992000032616504+59800+005350FM-15+0049ENSO V0203401N003110150019N0112651N1+00501+00301999999ADDGA1021+004509999GA2021+012009999GA3071+015009999GF107991999999999999999999MA1101021999999MW1001REMMET067ENSO 261650Z 34006KT 300V010 9999 FEW015 SCT040 BKN050 05/03 Q1010;EQDQ01+000000PRSWM2
0164010014999992000040304504+59800+005350FM-15+0049ENSO V02099999999990450019N0112651N1+00001-00201999999ADDGA1021+006009999GA2071+045009999GF107991999999999999999999MA1100201999999MW1001REMMET054ENSO 030450Z VRB03KT 9999 FEW020 BKN150 M00/M02 Q1002;EQDQ01+000000PRSWM2
0181010014999992000041811504+59800+005350FM-15+0049ENSO V0201701N008710060019N0112651N1+00701+00501999999ADDGA1021+003909999GA2071+006009999GF107991999999999999999999MA1099701999999MW1001OC101391REMMET063ENSO 181150Z 17017G27KT 130V220 9999 SCT013 BKN020 07/05 Q0997;EQDQ01+000000PRSWM2
0091010014999992000050514504+59800+005350FM-15+0049ENSO V0203301N00621220001CN0099001N1+01101+00601999999ADDMA1102001999999MW1001REMMET039ENSO 051450Z 33012KT CAVOK 11/06 Q1020;EQDQ01+000000PRSWM2
0173010014999992000052411504+59800+005350FM-15+0049ENSO V0202601N002612200019N0112651N1+01201+00101999999ADDGA1021+005409999GA2021+007509029GF104991999999999999999999MA1100411999999MW1001REMMET063ENSO 241150Z 26005KT 150V030 9999 FEW018 SCT025TCU 12/01 Q1004;EQDQ01+000000PRSWM2
0173010014999992000052510504+59800+005350FM-15+0049ENSO V0202101N002612200019N0112651N1+01401+00201999999ADDGA1021+004509999GA2021+006009029GF104991999999999999999999MA1100411999999MW1001REMMET063ENSO 251050Z 21005KT 120V270 9999 FEW015 SCT020TCU 14/02 Q1004;EQDQ01+000000PRSWM2
0173010014999992000052616504+59800+005350FM-15+0049ENSO V0201901N003612200019N0112651N1+01301+00501999999ADDGA1021+005409999GA2021+007509029GF104991999999999999999999MA1100811999999MW1001REMMET063ENSO 261650Z 19007KT 130V270 9999 FEW018 SCT025TCU 13/05 Q1008;EQDQ01+000000PRSWM2
0162010014999992000060611504+59800+005350FM-15+0049ENSO V0203401N002610180019N0112651N1+01401+00301999999ADDGA1021+009009999GA2071+018009999GF107991999999999999999999MA1101391999999MW1001REMMET052ENSO 061150Z 34005KT 9999 SCT030 BKN060 14/03 Q1014;EQDQ01+000000PRSWM2
0218010014999992000061609504+59800+005350FM-15+0049ENSO V0203301N008710060019N0112651N1+00801+00601999999ADDGA1021+003609999GA2021+004509029GA3071+006009999GF107991999999999999999999MA1102301999999MW1801REMMET076ENSO 160950Z 33017KT 290V010 9999 -SHRA FEW012 SCT015TCU BKN020 08/06 Q1023;EQDQ01+000003PRSWM1Q02    003PRSWM1
0181010014999992000061814504+59800+005350FM-15+0049ENSO V02099999999990009019N0040001N1+01201+01201999999ADDGA1021+000309999GA2071+000909999GF107991999999999999999999MA1102001999999MW1101REMMET055ENSO 181450Z VRB01KT 4000 BR FEW001 BKN003 12/12 Q1020;EQDQ01+000003PRSWM1Q02    003PRSWM1
0193010014999992000062108504+59800+005350FM-15+0049ENSO V0201501N004110012019N0020001N1+01501+01501999999ADDGA1021+000609999GA2071+001209999GF107991999999999999999999MA1100411999999MW1101MW2801REMMET061ENSO 210850Z 15008KT 2000 -SHRA BR SCT002 BKN004 15/15 Q1004;EQDQ01+000003PRSWM1Q02    003PRSWM1
0162010014999992000080407504+59800+005350FM-15+0049ENSO V02099999999990105019N0112651N1+01401+01001999999ADDGA1021+006009999GA2071+010509999GF107991999999999999999999MA1101491999999MW1001REMMET052ENSO 040750Z VRB01KT 9999 SCT020 BKN035 14/10 Q1015;EQDQ01+000000PRSWM2
0170010014999992000082314504+59800+005350FM-15+0049ENSO V0202801N002610120019N0112651N1+01301+00701999999ADDGA1021+007509999GA2071+012009999GF107991999999999999999999MA1102001999999MW1001REMMET060ENSO 231450Z 28005KT 200V340 9999 SCT025 BKN040 13/07 Q1020;EQDQ01+000000PRSWM2
0131010014999992000083114504+59800+005350FM-15+0049ENSO V02099999999992200019N0112651N1+99999+99999999999ADDGA1021+007509999GF104991999999999999999999MW1001REMMET052ENSO 311450Z VRB01KT 9999 SCT025 BKT050 13/08 Q1009;EQDQ01+000000PRSWM2
0185010014999992000090106504+59800+005350FM-15+0049ENSO V0209999C000010120019N0112651N1+01201+01201999999ADDGA1021+001509999GA2021+007509999GA3071+012009999GF107991999999999999999999MA1100611999999MW1001REMMET059ENSO 010650Z 00000KT 9999 FEW005 SCT025 BKN040 12/12 Q1006;EQDQ01+000000PRSWM2
0170010014999992000090410504+59800+005350FM-15+0049ENSO V0203301N004612200019N0112651N1+01401+00801999999ADDGA1021+007509999GA2021+009009999GF104991999999999999999999MA1101691999999MW1001REMMET060ENSO 041050Z 33009KT 280V020 9999 FEW025 SCT030 14/08 Q1017;EQDQ01+000000PRSWM2
0139010014999992000091206504+59800+005350FM-15+0049ENSO V02099999999992200019N0112651N1+01001+00601999999ADDGA1021+006009999GF102991999999999999999999MA1101391999999MW1001REMMET045ENSO 120650Z VRB02KT 9999 FEW020 10/06 Q1014;EQDQ01+000000PRSWM2
0162010014999992000101308504+59800+005350FM-15+0049ENSO V0201201N005710180019N0112651N1+01301+00501999999ADDGA1021+010509999GA2071+018009999GF107991999999999999999999MA1100511999999MW1001REMMET052ENSO 130850Z 12011KT 9999 FEW035 BKN060 13/05 Q1005;EQDQ01+000000PRSWM2
0184010014999992000101511504+59800+005350FM-15+0049ENSO V0201501N004610036019N0080001N1+01201+01101999999ADDGA1021+002409999GA2071+003609999GF107991999999999999999999MA1101391999999MW1801REMMET058ENSO 151150Z 15009KT 8000 -SHRA SCT008 BKN012 12/11 Q1014;EQDQ01+000003PRSWM1Q02    003PRSWM1
0091010014999992000101614504+59800+005350FM-15+0049ENSO V0203401N00311220001CN0099001N1+01301+01101999999ADDMA1100201999999MW1001REMMET039ENSO 161450Z 34006KT CAVOK 13/11 Q1002;EQDQ01+000000PRSWM2
0150010014999992000102014504+59800+005350FM-15+0049ENSO V0201701N004612200019N0112651N1+01201+00401999999ADDGA1021+006009029GF102991999999999999999999MA1102101999999MW1001REMMET056ENSO 201450Z 17009KT 120V230 9999 FEW020TCU 12/04 Q1021;EQDQ01+000000PRSWM2
0161010014999992000102914504+59800+005350FM-15+0049ENSO V0201801N005712200019N0112651N1+99999+99999999999ADDGA1021+003009999GF102991999999999999999999MW1001MW2801REMMET076ENSO 291450Z 18011KT 120V240 9999 -SHRA FEW010 SCR015CB BKN025 09/09 Q0985 ;EQDQ01+000003PRSWM1
0206010014999992000110316504+59800+005350FM-15+0049ENSO V0201401N010810060019N0112651N1+00901+00501999999ADDGA1021+003009999GA2021+004509099GA3071+006009999GF107991999999999999999999MA1098311999999MW1001OC101701REMMET072ENSO 031650Z 14021G33KT 100V210 9999 FEW010 SCT015CB BKN020 09/05 Q0983;EQDQ01+000000PRSWM2
0165010014999992000110515504+59800+005350FM-15+0049ENSO V0201201N004110120019N0112651N1+00801+00501999999ADDGA1021+007509029GA2071+012009999GF107991999999999999999999MA1099801999999MW1001REMMET055ENSO 051550Z 12008KT 9999 SCT025TCU BKN040 08/05 Q0998;EQDQ01+000000PRSWM2
0215010014999992000113010504+59800+005350FM-15+0049ENSO V0202201N003110066019N0112651N1+01001+01001999999ADDGA1021+003609999GA2021+004509999GA3071+006609999GF107991999999999999999999MA1100001999999MW1801REMMET073ENSO 301050Z 22006KT 110V360 9999 -SHRA FEW012 SCT015 BKN022 10/10 Q1000;EQDQ01+000003PRSWM1Q02    003PRSWM1
0092010014999992000121912504+59800+005350FM-15+0049ENSO V0201101N00461220001CN0099001N1+00301-00601999999ADDMA1102711999999MW1001REMMET040ENSO 191250Z 11009KT CAVOK 03/M06 Q1027;EQDQ01+000000PRSWM2
0139010014999992000123120504+59800+005350FM-15+0049ENSO V0201401N006212200019N0112651N1+00301+00101999999ADDGA1021+010509999GF102991999999999999999999MA1100201999999MW1001REMMET045ENSO 312050Z 14012KT 9999 FEW035 03/01 Q1002;EQDQ01+000000PRSWM2
0193010015999992000010713504+61450+005870FM-15+0150ENBL V0202001N008210054019N0080001N1+00501+00401999999ADDGA1021+003609999GA2071+005409999GF107991999999999999999999MA1098711999999MW1611OC101541REMMET059ENBL 071350Z 20016G30KT 8000 -RA SCT012 BKN018 05/04 Q0987;EQDQ01+000003PRSWM1Q02    003PRSWM1
0184010015999992000010913504+61450+005870FM-15+0150ENBL V0203001N002610024019N0020001N1+00001+00001999999ADDGA1021+000609999GA2071+002409999GF107991999999999999999999MA1100811999999MW1861REMMET058ENBL 091350Z 30005KT 2000E SHSN SCT002 BKN008 00/00 Q1008;EQDQ01+000003PRSWM1Q02    003PRSWM1
0165010015999992000011314504+61450+005870FM-15+0150ENBL V02099999999992200019N0112651N1-00101-00101999999ADDGA1021+009009999GA2021+999999999GF102991999999999999999999MA1101591999999MW1001REMMET055ENBL 131450Z VRB02KT 9999 FEW/// FEW030 M01/M01 Q1016 ;EQDQ01+000000PRSWM2
0185010015999992000011910204+61450+005870FM-15+0150ENBL V02099999999990036019N0070001N1+00001+00001999999ADDGA1021+002109999GA2071+003609999GF107991999999999999999999MA1102401999999MW1161REMMET059ENBL 191020Z VRB03KT 7000 VCSH FEW007 BKN012 M00/M00 Q1024;EQDQ01+000003PRSWM1Q02    003PRSWM1
0162010015999992000012617504+61450+005870FM-15+0150ENBL V0209999999999000151CN0010001N1+00201+00201999999ADDGA1091+000159999GF109991999999000251999999MA1101491999999MW1411MW2511MW3611REMMET056ENBL 261750Z VRB03KT 1000 -DZRA BCFG VV005 02/02 Q1015 ;EQDQ01+000003PRSWM1
0168010015999992000012810504+61450+005870FM-15+0150ENBL V0202601N00151000151CN0020001N1-00201-00201999999ADDGA1091+000159999GF109991999999000251999999MA1098981999999MW1711REMMET058ENBL 281050Z 26003KT 2000E -SN SCT003 VV008 M02/M02 Q0990;EQDQ01+000003PRSWM1Q02    003PRSWM1
0164010015999992000020312504+61450+005870FM-15+0150ENBL V02099999999990105019N0112651N1-00201-00301999999ADDGA1021+007509999GA2071+010509999GF107991999999999999999999MA1101691999999MW1001REMMET054ENBL 031250Z VRB02KT 9999 FEW025 BKN035 M02/M03 Q1017;EQDQ01+000000PRSWM2
0164010015999992000021609204+61450+005870FM-15+0150ENBL V0200701N001510240019N0112651N1-00301-00601999999ADDGA1021+015009999GA2071+024009999GF107991999999999999999999MA1098921999999MW1001REMMET054ENBL 160920Z 07003KT 9999 FEW050 BKN080 M03/M06 Q0989;EQDQ01+000000PRSWM2
0141010015999992000021712504+61450+005870FM-15+0150ENBL V0209999C000012200019N0112651N1+00001-00701999999ADDGA1021+009009999GF102991999999999999999999MA1100201999999MW1001REMMET047ENBL 171250Z 00000KT 9999 FEW030 M00/M07 Q1002;EQDQ01+000000PRSWM2
0160010015999992000022406504+61450+005870FM-15+0150ENBL V0202401N00671000151CN0030001N1+99999+99999999999ADDGA1091+000159999GF109991999999000251999999MA1099701999999MW1001MW2861OC101181REMMET052ENBL 240650Z 24013G23KT 3000 SHSN VV010 01/03 Q0997;EQDQ01+000003PRSWM1
0205010015999992000022615504+61450+005870FM-15+0150ENBL V0202001N002610045019N0080001N1+00301+00301999999ADDGA1021+001809999GA2021+003009999GA3071+004509999GF107991999999999999999999MA1101291999999MW1611REMMET063ENBL 261550Z 20005KT 8000 -RA FEW006 SCT010 BKN015 03/03 Q1013;EQDQ01+000003PRSWM1Q02    003PRSWM1
0219010015999992000022816504+61450+005870FM-15+0150ENBL V0201901N006210060019N0112651N1+00101-00101999999ADDGA1021+003009999GA2021+004509029GA3071+006009999GF107991999999999999999999MA1098101999999MW1851MW2891REMMET071ENBL 281650Z 19012KT 9999 -SHSNGR FEW010 SCT015TCU BKN020 01/M01 Q0981;EQDQ01+000003PRSWM1Q02    003PRSWM1
0167010015999992000022909504+61450+005870FM-15+0150ENBL V0202101N00931000151CN0025001N1+00101+00001999999ADDGA1091+000159999GF109991999999000251999999MA1098101999999MW1851REMMET057ENBL 290950Z 21018KT 2500 -SHSN FEW005 VV010 01/00 Q0981;EQDQ01+000003PRSWM1Q02    003PRSWM1
0196010015999992000030406504+61450+005870FM-15+0150ENBL V0203101N007212200019N0112651N1-00501-00601999999ADDGA1021+003609999GA2021+006009999GF104991999999999999999999MA1099901999999MW1161OC101291REMMET062ENBL 040650Z 31014G25KT 9999 VCSH FEW012 SCT020 M05/M06 Q0999;EQDQ01+000003PRSWM1Q02    003PRSWM1
0142010015999992000030907504+61450+005870FM-15+0150ENBL V0203501N002612200019N0112651N1-00301-00901999999ADDGA1021+009009999GF102991999999999999999999MA1100511999999MW1001REMMET048ENBL 090750Z 35005KT 9999 FEW030 M03/M09 Q1005 ;EQDQ01+000000PRSWM2
0093010015999992000031006504+61450+005870FM-15+0150ENBL V0203501N00151220001CN0099001N1-00701-00801999999ADDMA1102001999999MW1001REMMET041ENBL 100650Z 35003KT CAVOK M07/M08 Q1020;EQDQ01+000000PRSWM2
0092010015999992000031109504+61450+005870FM-15+0150ENBL V0201601N00101220001CN0099001N1+00201-01001999999ADDMA1100611999999MW1001REMMET040ENBL 110950Z 16002KT CAVOK 02/M10 Q1006;EQDQ01+000000PRSWM2
0159010015999992000031609504+61450+005870FM-15+0150ENBL V0209999999999000151CN0009001N1-00301-00301999999ADDGA1091+000159999GF109991999999000251999999MA1101801999999MW1731REMMET049ENBL 160950Z VRB02KT 0900 SN VV004 M03/M03 Q1018;EQDQ01+000003PRSWM1Q02    003PRSWM1
0216010015999992000031915504+61450+005870FM-15+0150ENBL V0202201N005710030019N0040001N1+00401+00401999999ADDGA1021+000909999GA2021+001809999GA3071+003009999GF107991999999999999999999MA1102201999999MW1531MW2801REMMET068ENBL 191550Z 22011KT 4000E -SHRADZ FEW003 SCT006 BKN010 04/04 Q1022;EQDQ01+000003PRSWM1Q02    003PRSWM1
0139010015999992000032918504+61450+005870FM-15+0150ENBL V02099999999992200019N0112651N1+00201+00101999999ADDGA1021+004509999GF102991999999999999999999MA1102201999999MW1001REMMET045ENBL 291850Z VRB01KT 9999 FEW015 02/01 Q1022;EQDQ01+000000PRSWM2
0162010015999992000033103204+61450+005870FM-15+0150ENBL V0209999C000010075019N0070001N1+00101+00101999999ADDGA1021+000609999GA2071+007509999GF107991999999999999999999MA1100411999999MW1001REMMET052ENBL 310320Z 00000KT 7000 FEW002 BKN025 01/01 Q1004;EQDQ01+000000PRSWM2
0154010015999992000040214504+61450+005870FM-15+0150ENBL V0200501N002112200019N0112651N1+99999+99999999999ADDGA1021+006009999GA2021+009009999GF104991999999999999999999MW1001REMMET059ENBL 021450Z 05004KT 9999 FEW020 SCT030 BN070 00/M07 Q1002;EQDQ01+000000PRSWM2
0186010015999992000040615504+61450+005870FM-15+0150ENBL V0202501N002612200019N0040001N1+00401+00401999999ADDGA1021+001209999GA2021+002409999GA3021+009009999GF104991999999999999999999MA1102101999999MW1001REMMET060ENBL 061550Z 25005KT 4000E FEW004 SCT008 SCT030 04/04 Q1021;EQDQ01+000000PRSWM2
0162010015999992000040617504+61450+005870FM-15+0150ENBL V0202701N002610075019N0112651N1+00401+00101999999ADDGA1021+003609999GA2071+007509999GF107991999999999999999999MA1102201999999MW1001REMMET052ENBL 061750Z 27005KT 9999 SCT012 BKN025 04/01 Q1022;EQDQ01+000000PRSWM2
0163010015999992000041403504+61450+005870FM-15+0150ENBL V0200301N003110240019N0112651N1+00201-00201999999ADDGA1021+018009999GA2071+024009999GF107991999999999999999999MA1098981999999MW1001REMMET053ENBL 140350Z 03006KT 9999 SCT060 BKN080 02/M02 Q0990;EQDQ01+000000PRSWM2
0163010015999992000041511504+61450+005870FM-15+0150ENBL V0202701N002110060019N0112651N1+00401-00201999999ADDGA1021+003609999GA2071+006009999GF107991999999999999999999MA1099391999999MW1001REMMET053ENBL 151150Z 27004KT 9999 SCT012 BKN020 04/M02 Q0994;EQDQ01+000000PRSWM2
0162010015999992000041912504+61450+005870FM-15+0150ENBL V0201501N004110150019N0112651N1+00701+00001999999ADDGA1021+009009999GA2071+015009999GF107991999999999999999999MA1101021999999MW1001REMMET052ENBL 191250Z 15008KT 9999 SCT030 BKN050 07/00 Q1010;EQDQ01+000000PRSWM2
0185010015999992000042717504+61450+005870FM-15+0150ENBL V02099999999990150019N0112651N1+00701+00401999999ADDGA1021+006009999GA2021+009009999GA3071+015009999GF107991999999999999999999MA1101691999999MW1001REMMET059ENBL 271750Z VRB03KT 9999 FEW020 SCT030 BKN050 07/04 Q1017;EQDQ01+000000PRSWM2
0092010015999992000050317504+61450+005870FM-15+0150ENBL V0203601N00411220001CN0099001N1+00801-00201999999ADDMA1102401999999MW1001REMMET040ENBL 031750Z 36008KT CAVOK 08/M02 Q1024;EQDQ01+000000PRSWM2
0162010015999992000050716504+61450+005870FM-15+0150ENBL V02099999999990150019N0112651N1+01101+00401999999ADDGA1021+009009999GA2071+015009999GF107991999999999999999999MA1102511999999MW1001REMMET052ENBL 071650Z VRB02KT 9999 SCT030 BKN050 11/04 Q1025;EQDQ01+000000PRSWM2
0139010015999992000050915504+61450+005870FM-15+0150ENBL V0202401N004612200019N0112651N1+01701+00501999999ADDGA1021+015009999GF102991999999999999999999MA1102001999999MW1001REMMET045ENBL 091550Z 24009KT 9999 FEW050 17/05 Q1020;EQDQ01+000000PRSWM2
0139010015999992000051016504+61450+005870FM-15+0150ENBL V0203001N004110090019N0112651N1+00801+00201999999ADDGA1071+009009999GF107991999999999999999999MA1102301999999MW1001REMMET045ENBL 101650Z 30008KT 9999 BKN030 08/02 Q1023;EQDQ01+000000PRSWM2
0092010015999992000051117504+61450+005870FM-15+0150ENBL V0203501N00461220001CN0099001N1+00801-00501999999ADDMA1102911999999MW1001REMMET040ENBL 111750Z 35009KT CAVOK 08/M05 Q1029;EQDQ01+000000PRSWM2
0092010015999992000051205504+61450+005870FM-15+0150ENBL V0209999999999220001CN0099001N1+00601-00201999999ADDMA1103011999999MW1001REMMET040ENBL 120550Z VRB02KT CAVOK 06/M02 Q1030;EQDQ01+000000PRSWM2
0091010015999992000051412504+61450+005870FM-15+0150ENBL V0202401N00411220001CN0099001N1+02001+00401999999ADDMA1102301999999MW1001REMMET039ENBL 141250Z 24008KT CAVOK 20/04 Q1023;EQDQ01+000000PRSWM2
0162010015999992000051805504+61450+005870FM-15+0150ENBL V0202001N002610060019N0112651N1+00701+00401999999ADDGA1021+004509999GA2071+006009999GF107991999999999999999999MA1099591999999MW1001REMMET052ENBL 180550Z 20005KT 9999 FEW015 BKN020 07/04 Q0996;EQDQ01+000000PRSWM2
0183010015999992000051906504+61450+005870FM-15+0150ENBL V02099999999990150019N0112651N1+00701+00301999999ADDGA1021+010509999GA2071+015009999GF107991999999999999999999MA1099701999999MW1161REMMET057ENBL 190650Z VRB02KT 9999 VCSH SCT035 BKN050 07/03 Q0997;EQDQ01+000003PRSWM1Q02    003PRSWM1
0188010015999992000052614504+61450+005870FM-15+0150ENBL V0202401N003110105019N0112651N1+00701+00401999999ADDGA1021+003609999GA2021+007509029GA3071+010509999GF107991999999999999999999MA1100811999999MW1001REMMET062ENBL 261450Z 24006KT 9999 FEW012 SCT025TCU BKN035 07/04 Q1008;EQDQ01+000000PRSWM2
0185010015999992000052903504+61450+005870FM-15+0150ENBL V0200301N002610075019N0112651N1+00501+00501999999ADDGA1021+001209999GA2021+003609999GA3071+007509999GF107991999999999999999999MA1099801999999MW1001REMMET059ENBL 290350Z 03005KT 9999 FEW004 SCT012 BKN025 05/05 Q0998;EQDQ01+000000PRSWM2
0185010015999992000053115504+61450+005870FM-15+0150ENBL V0202401N003610054019N0112651N1+00701+00301999999ADDGA1021+001509999GA2021+003609999GA3071+005409999GF107991999999999999999999MA1101081999999MW1001REMMET059ENBL 311550Z 24007KT 9999 FEW005 SCT012 BKN018 07/03 Q1011;EQDQ01+000000PRSWM2
0092010015999992000060607204+61450+005870FM-15+0150ENBL V0200301N00211220001CN0099001N1+01301-00301999999ADDMA1101491999999MW1001REMMET040ENBL 060720Z 03004KT CAVOK 13/M03 Q1015;EQDQ01+000000PRSWM2
0091010015999992000060914504+61450+005870FM-15+0150ENBL V0201701N00511220001CN0099001N1+01901+00101999999ADDMA1101591999999MW1001REMMET039ENBL 091450Z 17010KT CAVOK 19/01 Q1016;EQDQ01+000000PRSWM2
0206010015999992000061407204+61440+005870FM-15+0150ENBL V0202401N004610054019N0112651N1+00701+00501999999ADDGA1021+002409999GA2021+004209999GA3071+005409999GF107991999999999999999999MA1100811999999MW1161REMMET064ENBL 140720Z 24009KT 9999 VCSH FEW008 SCT014 BKN018 07/05 Q1008;EQDQ01+000003PRSWM1Q02    003PRSWM1
0162010015999992000062104504+61440+005870FM-15+0150ENBL V02099999999990105019N0112651N1+01201+01101999999ADDGA1021+007509999GA2071+010509999GF107991999999999999999999MA1100611999999MW1001REMMET052ENBL 210450Z VRB03KT 9999 FEW025 BKN035 12/11 Q1006;EQDQ01+000000PRSWM2
0182010015999992000062110504+61440+005870FM-15+0150ENBL V0209999C000010120019N0112651N1+01501+01001999999ADDGA1021+007509999GA2071+012009999GF107991999999999999999999MA1100611999999MW1611REMMET056ENBL 211050Z 00000KT 9999 -RA SCT025 BKN040 15/10 Q1006;EQDQ01+000003PRSWM1Q02    003PRSWM1
0162010015999992000062204504+61440+005870FM-15+0150ENBL V0201801N002610105019N0112651N1+01201+00801999999ADDGA1021+006009999GA2071+010509999GF107991999999999999999999MA1100311999999MW1001REMMET052ENBL 220450Z 18005KT 9999 FEW020 BKN035 12/08 Q1003;EQDQ01+000000PRSWM2
0162010015999992000071505504+61440+005870FM-15+0150ENBL V0200501N002110150019N0112651N1+00901+00901999999ADDGA1021+006009999GA2071+015009999GF107991999999999999999999MA1100711999999MW1001REMMET052ENBL 150550Z 05004KT 9999 FEW020 BKN050 09/09 Q1007;EQDQ01+000000PRSWM2
0162010015999992000071515204+61440+005870FM-15+0150ENBL V0203501N005112200019N0112651N1+01501+00701999999ADDGA1021+004509999GA2021+007509999GF104991999999999999999999MA1100911999999MW1001REMMET052ENBL 151520Z 35010KT 9999 FEW015 SCT025 15/07 Q1009;EQDQ01+000000PRSWM2
0162010015999992000072012504+61440+005870FM-15+0150ENBL V0203401N002610090019N0112651N1+01301+00801999999ADDGA1021+006009999GA2071+009009999GF107991999999999999999999MA1101691999999MW1001REMMET052ENBL 201250Z 34005KT 9999 SCT020 BKN030 13/08 Q1017;EQDQ01+000000PRSWM2
0139010015999992000072416504+61440+005870FM-15+0150ENBL V0200701N006212200019N0112651N1+02401+01001999999ADDGA1021+012009999GF102991999999999999999999MA1100911999999MW1001REMMET045ENBL 241650Z 07012KT 9999 FEW040 24/10 Q1009;EQDQ01+000000PRSWM2
0162010015999992000081314504+61440+005870FM-15+0150ENBL V0202301N002610180019N0112651N1+01801+00801999999ADDGA1021+012009999GA2071+018009999GF107991999999999999999999MA1101691999999MW1001REMMET052ENBL 131450Z 23005KT 9999 SCT040 BKN060 18/08 Q1017;EQDQ01+000000PRSWM2
0162010015999992000082008504+61440+005870FM-15+0150ENBL V0200301N002110300019N0112651N1+01201+00901999999ADDGA1021+012009999GA2071+030009999GF107991999999999999999999MA1100411999999MW1001REMMET052ENBL 200850Z 03004KT 9999 SCT040 BKN100 12/09 Q1004;EQDQ01+000000PRSWM2
0139010015999992000082107504+61440+005870FM-15+0150ENBL V0203301N002612200019N0112651N1+99999+99999999999ADDGA1021+000309999GF102991999999999999999999MW1001REMMET060ENBL 210750Z 33005KT 9999 FEW0010 FEW015 BKN040 12/09 Q1008;EQDQ01+000000PRSWM2
0162010015999992000082113504+61440+005870FM-15+0150ENBL V0203401N002610075019N0112651N1+01201+00801999999ADDGA1021+004509999GA2071+007509999GF107991999999999999999999MA1101081999999MW1001REMMET052ENBL 211350Z 34005KT 9999 SCT015 BKN025 12/08 Q1011;EQDQ01+000000PRSWM2
0139010015999992000082210504+61440+005870FM-15+0150ENBL V0203201N004112200019N0112651N1+01201+00301999999ADDGA1021+010509999GF104991999999999999999999MA1101591999999MW1001REMMET045ENBL 221050Z 32008KT 9999 SCT035 12/03 Q1016;EQDQ01+000000PRSWM2
0162010015999992000082512504+61440+005870FM-15+0150ENBL V0202201N002110060019N0112651N1+01201+00901999999ADDGA1021+003609999GA2071+006009999GF107991999999999999999999MA1102101999999MW1001REMMET052ENBL 251250Z 22004KT 9999 SCT012 BKN020 12/09 Q1021;EQDQ01+000000PRSWM2
0162010015999992000090119504+61440+005870FM-15+0150ENBL V0200301N002610300019N0112651N1+01101+00901999999ADDGA1021+007509999GA2071+030009999GF107991999999999999999999MA1100611999999MW1001REMMET052ENBL 011950Z 03005KT 9999 FEW025 BKN100 11/09 Q1006;EQDQ01+000000PRSWM2
0186010015999992000090813504+61440+005870FM-15+0150ENBL V0202601N005710060019N0112651N1+00901+00801999999ADDGA1021+004509029GA2071+006009999GF107991999999999999999999MA1100311999999MW1161REMMET060ENBL 081350Z 26011KT 9999 VCSH FEW015TCU BKN020 09/08 Q1003;EQDQ01+000003PRSWM1Q02    003PRSWM1
0091010015999992000091220504+61440+005870FM-15+0150ENBL V0200401N00261220001CN0099001N1+00901+00201999999ADDMA1101391999999MW1001REMMET039ENBL 122050Z 04005KT CAVOK 09/02 Q1014;EQDQ01+000000PRSWM2
0139010015999992000091310504+61440+005870FM-15+0150ENBL V0201701N003612200019N0112651N1+01301+00101999999ADDGA1021+012009999GF102991999999999999999999MA1101391999999MW1001REMMET045ENBL 131050Z 17007KT 9999 FEW040 13/01 Q1014;EQDQ01+000000PRSWM2
0162010015999992000100518504+61440+005870FM-15+0150ENBL V02099999999990240019N0112651N1+00801+00401999999ADDGA1021+009009999GA2071+024009999GF107991999999999999999999MA1101081999999MW1001REMMET052ENBL 051850Z VRB02KT 9999 FEW030 BKN080 08/04 Q1011;EQDQ01+000000PRSWM2
0139010015999992000101216504+61440+005870FM-15+0150ENBL V0200701N003112200019N0112651N1+01101+00101999999ADDGA1021+012009999GF102991999999999999999999MA1100001999999MW1001REMMET045ENBL 121650Z 07006KT 9999 FEW040 11/01 Q1000;EQDQ01+000000PRSWM2
0139010015999992000101405504+61440+005870FM-15+0150ENBL V0202301N002110090019N0112651N1+00901+00601999999ADDGA1071+009009999GF107991999999999999999999MA1100611999999MW1001REMMET045ENBL 140550Z 23004KT 9999 BKN030 09/06 Q1006;EQDQ01+000000PRSWM2
0162010015999992000102611204+61440+005870FM-15+0150ENBL V0200401N002612200019N0112651N1+00901+00101999999ADDGA1021+012009999GA2021+015009999GF104991999999999999999999MA1099191999999MW1001REMMET052ENBL 261120Z 04005KT 9999 FEW040 SCT050 09/01 Q0992;EQDQ01+000000PRSWM2
0139010015999992000111010504+61440+005870FM-15+0150ENBL V0209999C000012200019N0112651N1+00701+00001999999ADDGA1021+012009999GF102991999999999999999999MA1100201999999MW1001REMMET045ENBL 101050Z 00000KT 9999 FEW040 07/00 Q1002;EQDQ01+000000PRSWM2
0204010015999992000111212504+61440+005870FM-15+0150ENBL V0201001N003610090019N0080001N1+00601+00401999999ADDGA1021+000159999GA2021+004509999GA3071+009009999GF107991999999999999999999MA1099191999999MW1631REMMET062ENBL 121250Z 10007KT 8000 RA FEW000 SCT015 BKN030 06/04 Q0992;EQDQ01+000003PRSWM1Q02    003PRSWM1
0164010015999992000112115504+61440+005870FM-15+0150ENBL V0200901N005112200019N0112651N1+00701-00201999999ADDGA1021+012009999GA2021+045009999GF104991999999999999999999MA1100811999999MW1001REMMET054ENBL 211550Z 09010KT 9999 SCT040 SCT150 07/M02 Q1008 ;EQDQ01+000000PRSWM2
0184010015999992000120516504+61440+005870FM-15+0150ENBL V0201601N004110090019N0112651N1+00901+00501999999ADDGA1021+006009999GA2071+009009999GF107991999999999999999999MA1099801999999MW1801REMMET058ENBL 051650Z 16008KT 9999 -SHRA SCT020 BKN030 09/05 Q0998;EQDQ01+000003PRSWM1Q02    003PRSWM1
0162010015999992000120821504+61440+005870FM-15+0150ENBL V0200701N003610240019N0112651N1+00601+00101999999ADDGA1021+012009999GA2071+024009999GF107991999999999999999999MA1099491999999MW1001REMMET052ENBL 082150Z 07007KT 9999 SCT040 BKN080 06/01 Q0995;EQDQ01+000000PRSWM2
0182010015999992000121011504+61440+005870FM-15+0150ENBL V0201801N002110045019N0112651N1+00501+00301999999ADDGA1021+003009999GA2071+004509999GF107991999999999999999999MA1099391999999MW1611REMMET056ENBL 101150Z 18004KT 9999 -RA FEW010 BKN015 05/03 Q0994;EQDQ01+000003PRSWM1Q02    003PRSWM1
0093010015999992000121815504+61440+005870FM-15+0150ENBL V0203001N00151220001CN0099001N1-00401-00801999999ADDMA1101901999999MW1001REMMET041ENBL 181550Z 30003KT CAVOK M04/M08 Q1019;EQDQ01+000000PRSWM2
0093010015999992000122008504+61440+005870FM-15+0150ENBL V0202601N00151220001CN0099001N1-00701-01201999999ADDMA1102611999999MW1001REMMET041ENBL 200850Z 26003KT CAVOK M07/M12 Q1026;EQDQ01+000000PRSWM2
0159010015999992000122618504+61440+005870FM-15+0150ENBL V0209999C00001000151CN0010001N1-00401-00501999999ADDGA1091+000159999GF109991999999000251999999MA1099091999999MW1451REMMET049ENBL 261850Z 00000KT 1000 FG VV005 M04/M05 Q0991;EQDQ01+000003PRSWM1Q02    003PRSWM1
0122010015999992000122806504+61440+005870FM-15+0150ENBL V02099999999992200019N0112651N1-00801-01001999999ADDGF100991999999999999999999MA1099901999999MW1001REMMET044ENBL 280650Z VRB02KT 9999 SKC M08/M10 Q0999;EQDQ01+000000PRSWM2
0139010017999992000011316504+59930+002000FM-15+0000ENFR V0200301N011810045019N0112651N1+00601+00101999999ADDGA1071+004509999GF107991999999999999999999MA1101901999999MW1001REMMET045ENFR 131650Z 03023KT 9999 BKN015 06/01 Q1019;EQDQ01+000000PRSWM2
0162010017999992000020107504+59930+002000FM-15+0000ENFR V0201301N017010090019N0112651N1+00401+00101999999ADDGA1021+003009999GA2081+009009999GF108991999999999999999999MA1099701999999MW1001REMMET052ENFR 010750Z 13033KT 9999 SCT010 OVC030 04/01 Q0997;EQDQ01+000000PRSWM2
0165010017999992000021509504+59930+002000FM-15+0000ENFR V0202401N009310060019N0112651N1+00401+00001999999ADDGA1071+006009029GF107991999999999999999999MA1100001999999MW1821REMMET055ENFR 150950Z 24018KT 9999 +SHRA BKN020TCU 04/M00 Q1000;EQDQ01+000003PRSWM1Q02    003PRSWM1
0139010017999992000022107504+59930+002000FM-15+0000ENFR V0201601N015910036019N0112651N1+00501+00201999999ADDGA1081+003609999GF108991999999999999999999MA1101691999999MW1001REMMET045ENFR 210750Z 16031KT 9999 OVC012 05/02 Q1017;EQDQ01+000000PRSWM2
0182010017999992000022116504+59930+002000FM-15+0000ENFR V0202251N005110036019N0080001N1+00501+00401999999ADDGA1021+001509999GA2071+003609999GF107991999999999999999999MA1101491999999MW1611REMMET056ENFR 211650Z 22510KT 8000 -RA FEW005 BKN012 05/04 Q1015;EQDQ01+000003PRSWM1Q02    003PRSWM1
0139010017999992000022607504+59930+002000FM-15+0000ENFR V0202201N014410120019N0112651N1+00701+00401999999ADDGA1071+012009999GF107991999999999999999999MA1101491999999MW1001REMMET045ENFR 260750Z 22028KT 9999 BKN040 07/04 Q1015;EQDQ01+000000PRSWM2
0183010017999992000022908504+59930+002000FM-15+0000ENFR V0202201N019010045019N0112651N1+00601+00101999999ADDGA1021+003009999GA2071+004509999GF107991999999999999999999MA1098511999999MW1161REMMET057ENFR 290850Z 22037KT 9999 VCSH SCT010 BKN015 06/01 Q0985;EQDQ01+000003PRSWM1Q02    003PRSWM1
0159010017999992000030605504+59930+002000FM-15+0000ENFR V0202501N018510024019N0050001N1+00801+00501999999ADDGA1071+002409999GF107991999999999999999999MA1099901999999MW1611REMMET049ENFR 060550Z 25036KT 5000 -RA BKN008 08/05 Q0999;EQDQ01+000003PRSWM1Q02    003PRSWM1
0139010017999992000040609504+59930+002000FM-15+0000ENFR V0202601N013912200019N0112651N1+00701+00501999999ADDGA1021+012009999GF104991999999999999999999MA1102301999999MW1001REMMET045ENFR 060950Z 26027KT 9999 SCT040 07/05 Q1023;EQDQ01+000000PRSWM2
0139010017999992000040714504+59930+002000FM-15+0000ENFR V0201801N009312200019N0112651N1+00701+00401999999ADDGA1021+012009999GF104991999999999999999999MA1102511999999MW1001REMMET045ENFR 071450Z 18018KT 9999 SCT040 07/04 Q1025;EQDQ01+000000PRSWM2
0162010017999992000042407504+59930+002000FM-15+0000ENFR V0200601N003110105019N0112651N1+00601+00401999999ADDGA1021+006009999GA2081+010509999GF108991999999999999999999MA1101191999999MW1001REMMET052ENFR 240750Z 06006KT 9999 FEW020 OVC035 06/04 Q1012;EQDQ01+000000PRSWM2
0157010017999992000043009504+59930+002000FM-15+0000ENFR V0202301N00411000151CN0003001N1+00601+00601999999ADDGA1091+000159999GF109991999999000251999999MA1102001999999MW1451REMMET047ENFR 300950Z 23008KT 0300 FG VV/// 06/06 Q1020;EQDQ01+000003PRSWM1Q02    003PRSWM1
0185010017999992000051003504+59930+002000FM-15+0000ENFR V0203601N003610240019N0112651N1+00901+00701999999ADDGA1021+002109999GA2021+006009999GA3071+024009999GF107991999999999999999999MA1102201999999MW1001REMMET059ENFR 100350Z 36007KT 9999 FEW007 SCT020 BKN080 09/07 Q1022;EQDQ01+000000PRSWM2
0139010017999992000051814504+59930+002000FM-15+0000ENFR V0202201N005110060019N0112651N1+01001+00701999999ADDGA1071+006009999GF107991999999999999999999MA1099801999999MW1001REMMET045ENFR 181450Z 22010KT 9999 BKN020 10/07 Q0998;EQDQ01+000000PRSWM2
0139010017999992000052414504+59930+002000FM-15+0000ENFR V0202401N006212200019N0112651N1+00901+00501999999ADDGA1021+004509999GF104991999999999999999999MA1100611999999MW1001REMMET045ENFR 241450Z 24012KT 9999 SCT015 09/05 Q1006;EQDQ01+000000PRSWM2
0162010017999992000061404504+59920+002000FM-15+0000ENFR V0202501N011812200019N0112651N1+00901+00701999999ADDGA1021+004509999GA2021+012009999GF102991999999999999999999MA1101291999999MW1001REMMET052ENFR 140450Z 25023KT 9999 SCT015 FEW040 09/07 Q1013;EQDQ01+000000PRSWM2
0139010017999992000061608504+59920+002000FM-15+0000ENFR V0203201N007210045019N0112651N1+00701+00101999999ADDGA1071+004509999GF107991999999999999999999MA1102811999999MW1001REMMET045ENFR 160850Z 32014KT 9999 BKN015 07/01 Q1028;EQDQ01+000000PRSWM2
0181010017999992000070212504+59920+002000FM-15+0000ENFR V0202301N002610018019N0040001N1+01201+01101999999ADDGA1021+001209999GA2071+001809999GF107991999999999999999999MA1101491999999MW1101REMMET055ENFR 021250Z 23005KT 4000 BR SCT004 BKN006 12/11 Q1015;EQDQ01+000003PRSWM1Q02    003PRSWM1
0162010017999992000070509504+59920+002000FM-15+0000ENFR V0203601N010810036019N0112651N1+01001+00701999999ADDGA1021+002409999GA2071+003609999GF107991999999999999999999MA1101021999999MW1001REMMET052ENFR 050950Z 36021KT 9999 SCT008 BKN012 10/07 Q1010;EQDQ01+000000PRSWM2
0160010017999992000070610504+59920+002000FM-15+0000ENFR V0203301N012910045019N0112651N1+00901+00601999999ADDGA1071+004509999GF107991999999999999999999MA1101591999999MW1811REMMET050ENFR 061050Z 33025KT 9999 SHRA BKN015 09/06 Q1016;EQDQ01+000003PRSWM1Q02    003PRSWM1
0139010017999992000071612504+59920+002000FM-15+0000ENFR V0203501N018010030019N0112651N1+01001+00801999999ADDGA1071+003009999GF107991999999999999999999MA1101491999999MW1001REMMET045ENFR 161250Z 35035KT 9999 BKN010 10/08 Q1015;EQDQ01+000000PRSWM2
0158010017999992000080510504+59920+002000FM-15+0000ENFR V0202201N007710009019N0020001N1+01201+01201999999ADDGA1081+000909999GF108991999999999999999999MA1101801999999MW1631REMMET048ENFR 051050Z 22015KT 2000 RA OVC003 12/12 Q1018;EQDQ01+000003PRSWM1Q02    003PRSWM1
0162010017999992000082207504+59920+002000FM-15+0000ENFR V0203201N004612200019N0112651N1+01101+00601999999ADDGA1021+010509999GA2021+015009999GF104991999999999999999999MA1101901999999MW1001REMMET052ENFR 220750Z 32009KT 9999 FEW035 SCT050 11/06 Q1019;EQDQ01+000000PRSWM2
0182010017999992000091414504+59920+002000FM-15+0000ENFR V0201401N015410042019N0080001N1+01201+01001999999ADDGA1021+002409999GA2071+004209999GF107991999999999999999999MA1101491999999MW1611REMMET056ENFR 141450Z 14030KT 8000 -RA SCT008 BKN014 12/10 Q1015;EQDQ01+000003PRSWM1Q02    003PRSWM1
0158010017999992000093013504+59920+002000FM-15+0000ENFR V0201601N009310024019N0020001N1+01301+01201999999ADDGA1071+002409999GF107991999999999999999999MA1100911999999MW1101REMMET048ENFR 301350Z 16018KT 2000 BR BKN008 13/12 Q1009;EQDQ01+000003PRSWM1Q02    003PRSWM1
0139010017999992000100516504+59920+002000FM-15+0000ENFR V0200401N005710045019N0112651N1+00901+00601999999ADDGA1071+004509999GF107991999999999999999999MA1101081999999MW1001REMMET045ENFR 051650Z 04011KT 9999 BKN015 09/06 Q1011;EQDQ01+000000PRSWM2
0139010017999992000100715504+59920+002000FM-15+0000ENFR V0201601N018510045019N0112651N1+01201+00801999999ADDGA1071+004509999GF107991999999999999999999MA1101291999999MW1001REMMET045ENFR 071550Z 16036KT 9999 BKN015 12/08 Q1013;EQDQ01+000000PRSWM2
0168010017999992000101411504+59920+002000FM-15+0000ENFR V0201901N012910036019N0070001N1+01001+00901999999ADDGA1071+003609999GF107991999999999999999999MA1100611999999MW1101MW2611REMMET052ENFR 141150Z 19025KT 7000 -RA BR BKN012 10/09 Q1006;EQDQ01+000003PRSWM1Q02    003PRSWM1
0138010017999992000102404504+59920+002000FM-15+0000ENFR V0202401N00771000151CN0112651N1+01101+00901999999ADDGA1091+000159999GF109991999999000251999999MA1099291999999MW1001REMMET044ENFR 240450Z 24015KT 9999 VV/// 11/09 Q0993;EQDQ01+000000PRSWM2
0198010017999992000103005504+59920+002000FM-15+0000ENFR V0201201N999990075019N0112651N1+00701+00401999999ADDGA1021+004509999GA2071+007509999GF107991999999999999999999MA1097601999999MW1631REMMET056ENFR 300550Z 120113KT 9999 RA SCT015 BKN025 07/04 Q0976;EQDQ01+005813WOSPD Q02+000003PRSWM1Q03    003PRSWM1
0162010017999992000110813504+59920+002000FM-15+0000ENFR V0200801N004112200019N0112651N1+01001+00701999999ADDGA1021+012009999GA2021+018009999GF104991999999999999999999MA1098821999999MW1001REMMET052ENFR 081350Z 08008KT 9999 FEW040 SCT060 10/07 Q0988;EQDQ01+000000PRSWM2
0139010017999992000112109504+59920+002000FM-15+0000ENFR V0201301N012310045019N0112651N1+00901+00401999999ADDGA1071+004509999GF107991999999999999999999MA1100411999999MW1001REMMET045ENFR 210950Z 13024KT 9999 BKN015 09/04 Q1004;EQDQ01+000000PRSWM2
0139010017999992000112415504+59920+002000FM-15+0000ENFR V0202201N012912200019N0112651N1+00801+00401999999ADDGA1021+003009999GF104991999999999999999999MA1099091999999MW1001REMMET045ENFR 241550Z 22025KT 9999 SCT010 08/04 Q0991;EQDQ01+000000PRSWM2
0206010017999992000112512504+59920+002000FM-15+0000ENFR V0201501N020110045019N0112651N1+00901+00601999999ADDGA1021+001809999GA2021+003009999GA3071+004509999GF107991999999999999999999MA1098981999999MW1161REMMET064ENFR 251250Z 15039KT 9999 VCSH FEW006 SCT010 BKN015 09/06 Q0990;EQDQ01+000003PRSWM1Q02    003PRSWM1
0123010017999992000123108504+59920+002000FM-15+0000ENFR V0202101N010812200019N0112651N1+00601+00101999999ADDMA1100201999999MW1101MW2611REMMET049ENFR 310850Z 21021KT 9999 -RA BRK020 06/01 Q1002;EQDQ01+000003PRSWM1Q02    003PRSWM1
0139010017999992000123109504+59920+002000FM-15+0000ENFR V0202201N012312200019N0112651N1+00601+00101999999ADDGA1021+006009999GF104991999999999999999999MA1100201999999MW1001REMMET045ENFR 310950Z 22024KT 9999 SCT020 06/01 Q1002;EQDQ01+000000PRSWM2
0150010030999992000010609004+77000+015500FM-12+001299999V0200701N003612200019N0200001N1-00061-00371099161ADDAY131031AY201031GF102991021001017501031001MD1410001+9999MW1021REMSYN076AAXX  06094 01003 41770 20707 11006 21037 49916 54000 70230 82030 333 91115;
0157010030999992000012412004+77000+015500FM-12+001299999V0202601N002110150019N0070001N1-00291-00361099311ADDAA106001091AY171061AY261061GF108991081001017501021999MD1710311+9999MW1681REMSYN072AAXX  24124 01003 11757 82604 11029 21036 49931 57031 60011 76876 8802/;
0215010030999992000020806004+77000+015500FM-12+001299999V0200501N006710150019N0007001N1-00781-00931097971ADDAA112000591AJ100159199999999AY171061AY231061GF108991081001017501021999IA1309KA1120N-00791MD1210031+9999MW1731REMSYN094AAXX  08064 01003 11707 80513 11078 21093 49797 52003 69952 77373 8802/ 333 21079 42015 91126;
0157010030999992000042012004+77000+015500FM-12+001299999V0201001N002110240019N0025001N1-01191-01381101331ADDAA106000791AY111061AY211061GF108991021051004501011999MD1210081+9999MW1711REMSYN072AAXX  20124 01003 11425 81004 11119 21138 40133 52008 69901 77111 8251/;
0193010030999992000042118004+77000+015500FM-12+001299999V0209999C000019999999N0400001N1-00971-01551100751ADDAA199000091AY121061AY221061GF107991011001012501031021KA1999M-00681MD1310031+9999MW1011REMSYN076AAXX  21184 01003 31682 70000 11097 21155 40075 53003 70122 81032 333 11068;EQDQ01  00002PRCP99
0186010030999992000060518004+77000+015500FM-12+001299999V0202501N005110075019N0400001N1+00071-00511101221ADDAA112000191AY181061AY221061GF105991051051008001001001KA1120M+00071MD1710081+9999MW1011REMSYN088AAXX  05184 01003 11582 52510 10007 21051 40122 57008 69922 70182 85500 333 10007 91115;
0232010030999992000061006004+77000+015500FM-12+001299999V0201901N000512200019N0500001N1+00041-00671100901ADDAA199000091AJ100009199999999AY101061AY201061GA1001+999999999GF100991001001999999001001IA1259KA1120N-00251MD1210051+9999MW1021REMSYN076AAXX  10064 01003 31984 01901 10004 21067 40090 52005 70200 333 21025 41998;EQDQ01  00002PRCP99
0157010030999992000062112004+77000+015500FM-12+001299999V0200901N003110012019N0150001N1+00261+00101100961ADDAA106000891AY161061AY251061GF108991081051001501999999MD1310081+9999MW1611REMSYN072AAXX  21124 01003 11265 80906 10026 20010 40096 53008 69971 76165 885//;
0180010030999992000070118004+77000+015500FM-12+001299999V0200801N000510060019N0300001N1+00521+00201102491ADDAA112000791AY181061AY221061GF107991071081002501999999KA1999M+00701MD1410001+9999MW1251REMSYN082AAXX  01184 01003 11380 70801 10052 20020 40249 54000 69902 72582 878// 333 10070;
0180010030999992000070706004+77000+015500FM-12+001299999V0202801N002110042019N0300001N1+00461+00161101191ADDAA112000791AY161061AY221061GF107991071051004501999999KA1999N+00371MD1710101+9999MW1021REMSYN082AAXX  07064 01003 11480 72804 10046 20016 40119 57010 69902 70262 875// 333 20037;
0180010030999992000070806004+77000+015500FM-12+001299999V0202101N000510021019N0150001N1+00431+00261100511ADDAA112000191AY121061AY221061GF108991081051002501999999KA1999N+00341MD1710071+9999MW1011REMSYN082AAXX  08064 01003 11365 82101 10043 20026 40051 57007 69912 70122 885// 333 20034;
0140010030999992000071009004+77000+015500FM-12+001299999V0201001N004619999999N0200001N1+00461+00101101131ADDAY121031AY221031GF107991021051004501999081MD1010001+9999MW1011REMSYN066AAXX  10094 01003 41470 71009 10046 20010 40113 50000 70122 825/8;
0140010030999992000071421004+77000+015500FM-12+001299999V0200801N000512200019N0750001N1+00561+00211100831ADDAY101031AY201031GF101991001001999999001011MD1610031+9999MW1011REMSYN066AAXX  14214 01003 41989 10801 10056 20021 40083 56003 70100 80001;
0140010030999992000072103004+77000+015500FM-12+001299999V0202301N001510021019N0080001N1+00491+00421101521ADDAY121031AY221031GF108991081061002501999999MD1210201+9999MW1511REMSYN066AAXX  21034 01003 41358 82303 10049 20042 40152 52020 75122 886//;
0140010030999992000080309004+77000+015500FM-12+001299999V0202301N002610006019N0080001N1+00411+00311100551ADDAY121031AY221031GF108991081051000751999999MD1210221+9999MW1101REMSYN066AAXX  03094 01003 41158 82305 10041 20031 40055 52022 71022 885//;
0157010030999992000081012004+77000+015500FM-12+001299999V0202101N001010012019N0080001N1+00481+00411100511ADDAA106000791AY151061AY221061GF108991081061001501999999MD1310041+9999MW1101REMSYN072AAXX  10124 01003 11258 82102 10048 20041 40051 53004 69901 71052 886//;
0140010030999992000082115004+77000+015500FM-12+001299999V0200601N002110042019N0200001N1+00361+00211100751ADDAY121031AY221031GF108991081051004501999999MD1710061+9999MW1021REMSYN066AAXX  21154 01003 41470 80604 10036 20021 40075 57006 70222 885//;
0157010030999992000092112004+77000+015500FM-12+001299999V0202401N003110012019N0060001N1+00471+00421101151ADDAA106001091AY161061AY221061GF108991081061001501999999MD1410001+9999MW1511REMSYN072AAXX  21124 01003 11256 82406 10047 20042 40115 54000 60011 75162 886//;
0167010030999992000102412004+77000+015500FM-12+001299999V0200501N004610240019N0100001N1+00191-00311100791ADDAA106000791AY171061AY221061GF105991031051008001031011MD1110071+9999MW1021REMSYN082AAXX  24124 01003 11560 50509 10019 21031 40079 51007 69901 70272 83531 333 91115;
0140010030999992000102909004+77000+015500FM-12+001299999V0203601N000510075019N0400001N1-00061-00371102161ADDAY121031AY221031GF107991071051008001999999MD1210071+9999MW1021REMSYN066AAXX  29094 01003 41582 73601 11006 21037 40216 52007 70222 875//;
0186010030999992000110218004+77000+015500FM-12+001299999V0200701N005110021019N0060001N1+00051-00181101591ADDAA112000791AY171061AY231061GF108991071071002501021999KA1120M+00091MD1710091+9999MW1711REMSYN088AAXX  02184 01003 11356 80710 10005 21018 40159 57009 69902 77173 8772/ 333 10009 91114;
0222010030999992000111806004+77000+015500FM-12+001299999V0200401N003612200019N0300001N1-00271-00641102801ADDAA199000091AJ100019199999999AY101061AY201061GF102991011051008001031001IA1309KA1120N-00371MD1310011+9999MW1021REMSYN082AAXX  18064 01003 31580 20407 11027 21064 40280 53001 70200 81530 333 21037 42001;EQDQ01  00002PRCP99
0215010030999992000121606004+77000+015500FM-12+001299999V0200301N005719999999N0040001N1-00681-01011099861ADDAA112000791AJ100049199999999AY131061AY231061GF108991081001999999011999IA1299KA1120N-00951MD1710091+9999MW1381REMSYN094AAXX  16064 01003 11940 80311 11068 21101 49986 57009 69902 73833 8801/ 333 21095 49004 91117;
0209010030999992000122106004+77000+015500FM-12+001299999V0202501N001010021019N0050001N1+00031-00081100981ADDAA112000891AJ100069199999999AY171061AY251061GF108991081051002501999999IA1299KA1120N-00041MD1710141+9999MW1681REMSYN088AAXX  21064 01003 11350 82502 10003 21008 40098 57014 69982 76875 885// 333 21004 49006;
0170010030999992000122312004+77000+015500FM-12+001299999V0203601N002612200019N0400001N1-01421-02351101741ADDAA199000091AY101061AY201061GF102991021001999999031001MD1210081+9999MW1021REMSYN066AAXX  23124 01003 31982 23605 11142 21235 40174 52008 70200 82030;EQDQ01  00002PRCP99
0140010030999992000122503004+77000+015500FM-12+001299999V0202401N000512200019N0300001N1-01601-02351101201ADDAY101031AY201031GF103991011001999999031051MD1810191+9999MW1031REMSYN066AAXX  25034 01003 41980 32401 11160 21235 40120 58019 70300 81035;
0171010070999992000012312004+78920+011930FM-12+001299999V0201301N000510075019N0300001N1-00861-00931100261ADDAY171061AY271061GF108991081061008001999999MA1999999100161MD1810051+9999MW1711REMSYN082AAXX  23124 01007 41580 81301 11086 21093 30016 40026 58005 77177 886// 333 91106;
0192010070999992000020706004+78920+011930FM-12+001299999V0200801N004612200019N0550001N1-00711-01201098441ADDAA199000091GF102991021081008001001001KA1120N-00781MA1999999098351MD1710051+9999REMSYN082AAXX  07064 01007 32585 20809 11071 21120 39835 49844 57005 82800 333 21078 91114;EQDQ01  00002PRCP99
0111010070999992000021400004+78920+011930FM-12+001299999V0201401N001519999999N9999999N1-00501-00681099261ADDMA1999999099161MD1310041+9999REMSYN070AAXX  14004 01007 46/// /1403 11050 21068 39916 49926 53004 333 91111;
0101010070999992000030321004+78920+011930FM-12+001299999V0202901N000519999999N9999999N1-02151-02731101331ADDMA1999999101221MD1810041+9999REMSYN060AAXX  03214 01007 46/// /2901 11215 21273 30122 40133 58004;
0101010070999992000031521004+78920+011930FM-12+001299999V0201401N000519999999N9999999N1-00631-00911100401ADDMA1999999100301MD1110161+9999REMSYN060AAXX  15214 01007 46/// /1401 11063 21091 30030 40040 51016;
0192010070999992000032018004+78920+011930FM-12+001299999V0202901N000510240019N0400001N1-00881-01241097771ADDAA199000091GF105991021051012501041001KA1120M-00371MA1999999097671MD1110181+9999REMSYN082AAXX  20184 01007 32682 52901 11088 21124 39767 49777 51018 82540 333 11037 91107;EQDQ01  00002PRCP99
0101010070999992000033003004+78920+011930FM-12+001299999V0201101N005119999999N9999999N1-01541-01971101361ADDMA1999999101261MD1310031+9999REMSYN060AAXX  30034 01007 46/// /1110 11154 21197 30126 40136 53003;
0101010070999992000040709004+78920+011930FM-12+001299999V0201401N000519999999N9999999N1-01841-02171101091ADDMA1999999100981MD1010031+9999REMSYN060AAXX  07094 01007 46/// /1401 11184 21217 30098 40109 50003;
0192010070999992000041418004+78920+011930FM-12+001299999V0201501N000510075019N0550001N1-01051-01601101351ADDAA199000091GF107991071051008001999999KA1120M-00931MA1999999101251MD1610041+9999REMSYN082AAXX  14184 01007 32585 71501 11105 21160 30125 40135 56004 875// 333 11093 91104;EQDQ01  00002PRCP99
0101010070999992000041503004+78920+011930FM-12+001299999V0201601N000519999999N9999999N1-01241-01471101251ADDMA1999999101151MD1810041+9999REMSYN060AAXX  15034 01007 46/// /1601 11124 21147 30115 40125 58004;
0101010070999992000041821004+78920+011930FM-12+001299999V0202901N000519999999N9999999N1-00711-01071101441ADDMA1999999101341MD1210031+9999REMSYN060AAXX  18214 01007 46/// /2901 11071 21107 30134 40144 52003;
0101010070999992000051703004+78920+011930FM-12+001299999V0202301N000519999999N9999999N1-00431-00981102091ADDMA1999999101991MD1810041+9999REMSYN060AAXX  17034 01007 46/// /2301 11043 21098 30199 40209 58004;
0173010070999992000060418004+78920+011930FM-12+001299999V0201401N002110075019N0550001N1+00131-00331101631ADDAA199000021GF108991081051008001999999KA1120M+00211MA1999999101531MD1810121+9999REMSYN082AAXX  04184 01007 32585 81404 10013 21033 30153 40163 58012 885// 333 10021 91109;
0192010070999992000061418004+78920+011920FM-12+001299999V0202901N003110075019N0550001N1+00051-00191100671ADDAA199000091GF107991071051008001001001KA1120M+00251MA1999999100571MD1710031+9999REMSYN082AAXX  14184 01007 32585 72906 10005 21019 30057 40067 57003 87500 333 10025 91109;EQDQ01  00002PRCP99
0207010070999992000061718004+78920+011920FM-12+001299999V0202501N000510075019N0300001N1-00071-00251100931ADDAA112000191AY171061AY221061GF108991081071008001999999KA1120M+00101MA1999999100841MD1810061+9999MW1711REMSYN094AAXX  17184 01007 11580 82501 11007 21025 30084 40093 58006 69912 77172 887// 333 10010 91110;
0101010070999992000062315004+78920+011920FM-12+001299999V0202801N000519999999N9999999N1+00291+00011101961ADDMA1999999101861MD1810091+9999REMSYN060AAXX  23154 01007 46/// /2801 10029 20001 30186 40196 58009;
0192010070999992000071206004+78920+011920FM-12+001299999V0203301N001510600019N0500001N1+00251+00221100641ADDAA199000091GF107991021061001501001061KA1120N+00241MA1999999100541MD1610021+9999REMSYN082AAXX  12064 01007 32284 73303 10025 20022 30054 40064 56002 82606 333 20024 91105;EQDQ01  00002PRCP99
0101010070999992000072815004+78920+011920FM-12+001299999V0200801N000519999999N9999999N1+00111-00301100351ADDMA1999999100251MD1310101+9999REMSYN060AAXX  28154 01007 46/// /0801 10011 21030 30025 40035 53010;
0101010070999992000080209004+78920+011920FM-12+001299999V0200901N000519999999N9999999N1+00181-00101100781ADDMA1999999100681MD1810031+9999REMSYN060AAXX  02094 01007 46/// /0901 10018 21010 30068 40078 58003;
0192010070999992000081406004+78920+011920FM-12+001299999V0201301N001010042019N0750001N1+00291+00161102231ADDAA199000091GF108991081051004501999999KA1120N+00221MA1999999102131MD1210041+9999REMSYN082AAXX  14064 01007 32489 81302 10029 20016 30213 40223 52004 885// 333 20022 91104;EQDQ01  00002PRCP99
0101010070999992000090209004+78920+011920FM-12+001299999V0202201N000519999999N9999999N1-00181-00591101451ADDMA1999999101351MD1310051+9999REMSYN060AAXX  02094 01007 46/// /2201 11018 21059 30135 40145 53005;
0101010070999992000091409004+78920+011920FM-12+001299999V0202401N001519999999N9999999N1+00501+00441100871ADDMA1999999100781MD1010001+9999REMSYN060AAXX  14094 01007 46/// /2403 10050 20044 30078 40087 50000;
0171010070999992000092212004+78920+011920FM-12+001299999V0200901N003610042019N0100001N1+00341+00211101211ADDAY161061AY221061GF108991081071004501999999MA1999999101111MD1810311+9999MW1621REMSYN082AAXX  22124 01007 41460 80907 10034 20021 30111 40121 58031 76262 887// 333 91113;
0171010070999992000092312004+78920+011920FM-12+001299999V0202801N000510021019N0150001N1+00351+00311100151ADDAY161061AY221061GF108991081071002501999999MA1999999100061MD1810291+9999MW1611REMSYN082AAXX  23124 01007 41365 82801 10035 20031 30006 40015 58029 76162 887// 333 91104;
0143010070999992000092512004+78920+011920FM-12+001299999V0201601N001510075019N0300001N1-00191-00651101951ADDGF108991081051008001999999MA1999999101851MD1710061+9999REMSYN076AAXX  25124 01007 42580 81603 11019 21065 30185 40195 57006 885// 333 91106;
0101010070999992000092815004+78920+011920FM-12+001299999V0202801N000519999999N9999999N1-00361-00471101131ADDMA1999999101031MD1310021+9999REMSYN060AAXX  28154 01007 46/// /2801 11036 21047 30103 40113 53002;
0101010070999992000092915004+78920+011920FM-12+001299999V0201301N001519999999N9999999N1-00061-00301100981ADDMA1999999100881MD1810111+9999REMSYN060AAXX  29154 01007 46/// /1303 11006 21030 30088 40098 58011;
0179010070999992000101206004+78920+011920FM-12+001299999V0202601N000512200019N0400001N1-00011-00191101921ADDAA112000791GF101991011001017501031001KA1120N-00171MA1999999101821MD1510051+9999REMSYN088AAXX  12064 01007 12782 12601 11001 21019 30182 40192 55005 69902 81030 333 21017 91106;
0190010070999992000101718004+78920+011920FM-12+001299999V0202501N000519999999N0300001N1+00141-00011099831ADDAY161061AY221061GF105991051001012501071001KA1120M+00441MA1999999099741MD1810251+9999MW1021REMSYN088AAXX  17184 01007 41680 52501 10014 21001 39974 49983 58025 70262 85070 333 10044 91105;
0207010070999992000102606004+78920+011920FM-12+001299999V0201201N003610120019N0250001N1-00111-00341100981ADDAA112000791AY171061AY221061GF107991071081008001999999KA1120N-00141MA1999999100881MD1510001+9999MW1781REMSYN094AAXX  26064 01007 11575 71207 11011 21034 30088 40098 55000 69902 77872 878// 333 21014 91109;
0217010070999992000102718004+78920+011920FM-12+001299999V0201701N001010024019N0050001N1-00131-00291101731ADDAA112001091AY171061AY221061GA1091+999999999GF109991091999999999999999KA1120M-00131MA1999999101631MD1110021+9999MW1021REMSYN088AAXX  27184 01007 11450 91702 11013 21029 30163 40173 51002 60012 70272 333 11013 91103;
0101010070999992000103115004+78920+011920FM-12+001299999V0201101N001019999999N9999999N1-00291-00431101911ADDMA1999999101811MD1310021+9999REMSYN060AAXX  31154 01007 46/// /1102 11029 21043 30181 40191 53002;
0101010070999992000111521004+78920+011920FM-12+001299999V0201401N000519999999N9999999N1-00741-00961101041ADDMA1999999100941MD1310061+9999REMSYN060AAXX  15214 01007 46/// /1401 11074 21096 30094 40104 53006;
0143010070999992000112312004+78920+011920FM-12+001299999V0201301N003110240019N0150001N1-00161-00401101121ADDGF108991041051004501021999MA1999999101021MD1810061+9999REMSYN076AAXX  23124 01007 42465 81306 11016 21040 30102 40112 58006 8452/ 333 91108;
0145010080999992000010120504+78250+015470FM-15+0029ENSB V0201401N005710120019N0112651N1-00101-00601999999ADDGA1021+006009999GA2071+012009999GF107991999999999999999999MA1100311999999MW1001REMMET054ENSB 012050Z 14011KT 9999 FEW020 BKN040 M01/M06 Q1003;
0183010080999992000011906504+78250+015470FM-15+0029ENSB V0201101N003610060019N0050001N1-01801-01901999999ADDGA1021+003009999GA2071+006009999GF107991999999999999999999MA1101021999999MW1731REMMET057ENSB 190650Z 11007KT 5000 SN FEW010 BKN020 M18/M19 Q1010;EQDQ01+000003PRSWM1Q02    003PRSWM1
0215010080999992000020212004+78250+015470FM-12+0029ENSB V0201101N001510150019N0250001N1-01391-01661098771ADDAY171061AY221061GA1031+006009069GA2051+015009069GF107991061051008001071011MA1999999098401MD1810011+9999MW1701REMSYN094AAXX  02124 01008 41575 71103 11139 21166 39840 49877 58001 77072 86571 333 83620 85650 91113;
0215010080999992000020712504+78250+015470FM-15+0029ENSB V0201401N010810450019N0112651N1-01001-01701999999ADDGA1021+009009999GA2021+027009999GA3071+045009999GF107991999999999999999999MA1098411999999MW1361REMMET073ENSB 071250Z 14021KT 9999 -DRSN FEW030 SCT090 BKN150 M10/M17 Q0984 NOSIG;EQDQ01+000003PRSWM1Q02    003PRSWM1
0200010080999992000020807504+78250+015470FM-15+0029ENSB V0201201N009812200019N0112651N1-01001-01501999999ADDGA1021+007509999GA2021+030009999GF104991999999999999999999MA1098511999999MW1361REMMET074ENSB 080750Z 12019KT 090V150 9999 -DRSN FEW025 SCT100 M10/M15 Q0985 NOSIG;EQDQ01+000003PRSWM1Q02    003PRSWM1
0093010080999992000021922504+78250+015470FM-15+0029ENSB V0202201N00051220001CN0099001N1-01001-01501999999ADDMA1101191999999MW1001REMMET041ENSB 192250Z 22001KT CAVOK M10/M15 Q1012;EQDQ01+000000PRSWM2
0193010080999992000022015004+78250+015470FM-12+0029ENSB V0201401N000512200019N0600001N1-01371-01511101941ADDAY111031AY201031GA1011+006009069GF103991011051008001071001MA1999999101561MD1210111+9999MW1031REMSYN088AAXX  20154 01008 41586 31401 11137 21151 30156 40194 52011 70310 81570 333 81620 83359;
0215010080999992000022400004+78250+015470FM-12+0029ENSB V0201301N003112200019N0300001N1-00401-00781101211ADDAY111061AY201061GA1011+006009069GA2031+018009039GF103991031051008001071001MA1999999100831MD1710041+9999MW1021REMSYN094AAXX  24004 01008 41580 31306 11040 21078 30083 40121 57004 70210 83570 333 81620 83356 91109;
0187010080999992000022515504+78250+015470FM-15+0029ENSB V0201101N008710540019N0112651N1-00501-01001999999ADDGA1021+004509999GA2021+010509999GA3071+054009999GF107991999999999999999999MA1101391999999MW1001REMMET061ENSB 251550Z 11017KT 9999 FEW015 SCT035 BKN180 M05/M10 Q1014;EQDQ01+000000PRSWM2
0194010080999992000022609504+78250+015470FM-15+0029ENSB V0201201N013412200019N0112651N1-01001-01401999999ADDGA1021+004509999GA2021+009009999GF104991999999999999999999MA1101491999999MW1361REMMET068ENSB 260950Z 12026KT 9999 -DRSN FEW015 SCT030 M10/M14 Q1015 DIST SN;EQDQ01+000003PRSWM1Q02    003PRSWM1
0242010080999992000022806004+78250+015470FM-12+0029ENSB V0201201N005112200019N0750001N1-01801-02491101401ADDAA199000091AY131061AY201061GA1001+999999999GF100991001001999999001001IA1249KA1120N-01851MA1999999101011MD1710071+9999MW1021REMSYN088AAXX  28064 01008 31989 01210 11180 21249 30101 40140 57007 70230 333 21185 48/// 91116;EQDQ01  00002PRCP99
0193010080999992000030103004+78250+015470FM-12+0029ENSB V0201401N000512200019N0250001N1-02031-02321100391ADDAY101031AY201031GA1011+003009079GF103991011051004501001061MA1999999100001MD1710241+9999MW1031REMSYN088AAXX  01034 01008 41475 31401 11203 21232 30000 40039 57024 70300 81506 333 81710 83268;
0186010080999992000030114504+78250+015470FM-15+0029ENSB V0201401N005712200019N0112651N1-02201-02701999999ADDGA1021+006009999GA2021+054009999GF104991999999999999999999MA1100611999999MW1161REMMET060ENSB 011450Z 14011KT 9999 -VCSH FEW020 SCT180 M22/M27 Q1006;EQDQ01+000003PRSWM1Q02    003PRSWM1
0141010080999992000030123504+78250+015470FM-15+0029ENSB V0201401N011312200019N0112651N1-02501-03001999999ADDGA1021+006009999GF102991999999999999999999MA1101021999999MW1001REMMET047ENSB 012350Z 14022KT 9999 FEW020 M25/M30 Q1010;EQDQ01+000000PRSWM2
0093010080999992000030217504+78250+015470FM-15+0029ENSB V0201201N00821220001CN0099001N1-02001-02701999999ADDMA1101291999999MW1001REMMET041ENSB 021750Z 12016KT CAVOK M20/M27 Q1013;EQDQ01+000000PRSWM2
0093010080999992000030407504+78250+015470FM-15+0029ENSB V0201201N00621220001CN0099001N1-02401-02901999999ADDMA1101191999999MW1001REMMET041ENSB 040750Z 12012KT CAVOK M24/M29 Q1012;EQDQ01+000000PRSWM2
0181010080999992000030703004+78250+015470FM-12+0029ENSB V0201101N002610036019N0050001N1-02361-02661099581ADDAY111031AY201031GA1091+003609999GF109991091999999999999999MA1999999099191MD1710281+9999MW1221REMSYN076AAXX  07034 01008 41/50 91105 11236 21266 39919 49958 57028 72210 333 89/12;
0094010080999992000031003504+78250+015470FM-15+0029ENSB V0201101N00461220001CN0099001N1-02501-02701999999ADDMA1101801999999MW1001REMMET042ENSB 100350Z 11009KT CAVOK M25/M27 Q1018 ;EQDQ01+000000PRSWM2
0209010080999992000032116504+78250+015470FM-15+0029ENSB V0200601N008710270019N0112651N1-00401-00901999999ADDGA1021+004509999GA2021+007509999GA3071+027009999GF107991999999999999999999MA1098711999999MW1361REMMET067ENSB 211650Z 06017KT 9999 -DRSN FEW015 SCT025 BKN090 M04/M09 Q0987;EQDQ01+000003PRSWM1Q02    003PRSWM1
0186010080999992000032120504+78250+015470FM-15+0029ENSB V0200501N009810270019N0112651N1-00401-01001999999ADDGA1021+004509999GA2071+027009999GF107991999999999999999999MA1098921999999MW1361REMMET060ENSB 212050Z 05019KT 9999 -DRSN FEW015 BKN090 M04/M10 Q0989;EQDQ01+000003PRSWM1Q02    003PRSWM1
0141010080999992000032500504+78250+015470FM-15+0029ENSB V0201101N002612200019N0112651N1-01601-01701999999ADDGA1021+006009999GF102991999999999999999999MA1101391999999MW1001REMMET047ENSB 250050Z 11005KT 9999 FEW020 M16/M17 Q1014;EQDQ01+000000PRSWM2
0170010080999992000040306504+78250+015470FM-15+0029ENSB V0201201N001010540019N0112651N1-02101-02201999999ADDGA1021+004509999GA2071+054009999GF107991999999999999999999MA1102001999999MW1001REMMET060ENSB 030650Z 12002KT 9999 FEW015 BKN180 M21/M22 Q1020 NOSIG;EQDQ01+000000PRSWM2
0158010080999992000040900504+78250+015470FM-15+0029ENSB V0202101N00721000151CN0025001N1+00101-00101999999ADDGA1091+000159999GF109991999999000251999999MA1097391999999MW1731REMMET048ENSB 090050Z 21014KT 2500 SN VV010 01/M01 Q0974;EQDQ01+000003PRSWM1Q02    003PRSWM1
0155010080999992000041210504+78250+015470FM-15+0029ENSB V0201101N004112200019N0112651N1-01701-02001999999ADDGA1021+006009999GF102991999999999999999999MA1102201999999MW1001REMMET061ENSB 121050Z 11008KT 9999 FEW020 M17/M20 Q1022 TEMPO 06015KT;EQDQ01+000000PRSWM2
0093010080999992000041517504+78250+015470FM-15+0029ENSB V0201501N00151220001CN0099001N1-01101-02001999999ADDMA1101291999999MW1001REMMET041ENSB 151750Z 15003KT CAVOK M11/M20 Q1013;EQDQ01+000000PRSWM2
0093010080999992000041822504+78250+015470FM-15+0029ENSB V0201401N00771220001CN0099001N1-01201-01801999999ADDMA1101391999999MW1001REMMET041ENSB 182250Z 14015KT CAVOK M12/M18 Q1014;EQDQ01+000000PRSWM2
0215010080999992000042309004+78250+015470FM-12+0029ENSB V0201201N002110240019N0300001N1-01501-01771101961ADDAY121031AY221031GA1011+003009079GA2031+007509069GF107991031051004501071011MA1999999101581MD1310091+9999MW1151REMSYN094AAXX  23094 01008 41480 71204 11150 21177 30158 40196 53009 71522 83571 333 81710 83625 85358;
0187010080999992000043008504+78250+015470FM-15+0029ENSB V0200901N002110210019N0112651N1-00601-01001999999ADDGA1021+004509999GA2021+007509999GA3071+021009999GF107991999999999999999999MA1103011999999MW1001REMMET061ENSB 300850Z 09004KT 9999 FEW015 SCT025 BKN070 M06/M10 Q1030;EQDQ01+000000PRSWM2
0207010080999992000043012504+78250+015470FM-15+0029ENSB V02099999999990150019N0112651N1-00501-00701999999ADDGA1021+003609999GA2021+007509999GA3071+015009999GF107991999999999999999999MA1102811999999MW1711REMMET065ENSB 301250Z VRB01KT 9999 -SN FEW012 SCT025 BKN050 M05/M07 Q1028;EQDQ01+000003PRSWM1Q02    003PRSWM1
0285010080999992000050306004+78250+015470FM-12+0029ENSB V0200301N002610105019N0060001N1-00621-00771100421ADDAA112001091AY171061AY271061GA1011+004509069GA2031+006009069GA3071+010509069GF107991071051004501071999IA1249KA1120N-00621MA1999999100031MD1210121+9999MW1711REMSYN118AAXX  03064 01008 11456 70305 11062 21077 30003 40042 52012 60012 77177 8757/ 333 21062 48/// 81615 83620 87635 91111;
0207010080999992000050322504+78250+015470FM-15+0029ENSB V0201101N003110105019N0112651N1-00801-01101999999ADDGA1021+003909999GA2021+007509999GA3071+010509999GF107991999999999999999999MA1100811999999MW1711REMMET065ENSB 032250Z 11006KT 9999 -SN FEW013 SCT025 BKN035 M08/M11 Q1008;EQDQ01+000003PRSWM1Q02    003PRSWM1
0251010080999992000050418004+78250+015470FM-12+0029ENSB V0201101N004110540019N0600001N1-01131-01521100401ADDAA112000191AY121061AY211061GA1011+004509069GA2051+054009009GF105991011051004501041081KA1120M-00981MA1999999100021MD1710111+9999MW1021REMSYN106AAXX  04184 01008 11486 51108 11113 21152 30002 40040 57011 69912 70221 81548 333 11098 81615 85068 91110;
0186010080999992000050502504+78250+015470FM-15+0029ENSB V0201401N007210210019N0112651N1-01301-01801999999ADDGA1021+005409999GA2071+021009999GF107991999999999999999999MA1100411999999MW1361REMMET060ENSB 050250Z 14014KT 9999 -DRSN FEW018 BKN070 M13/M18 Q1004;EQDQ01+000003PRSWM1Q02    003PRSWM1
0215010080999992000051009004+78250+015470FM-12+0029ENSB V0200201N00511024001CN0090001N1-00751-01101099461ADDAY171031AY221031GA1011+003009079GA2031+007509069GF107991031051004501071081MA1999999099101MD1210151+9999MW1701REMSYN094AAXX  10094 01008 41459 70210 11075 21110 39910 49946 52015 77072 83578 333 81710 83625 86068;
0164010080999992000051301504+78250+015470FM-15+0029ENSB V0203301N008712200019N0112651N1-00701-01401999999ADDGA1021+013509999GA2021+021009999GF104991999999999999999999MA1101491999999MW1001REMMET054ENSB 130150Z 33017KT 9999 FEW045 SCT070 M07/M14 Q1015;EQDQ01+000000PRSWM2
0147010080999992000051511504+78250+015470FM-15+0029ENSB V0203101N005712200019N0112651N1-00801-01401999999ADDGA1021+002409999GF104991999999999999999999MA1101801999999MW1001REMMET053ENSB 151150Z 31011KT 9999 SCT08 M08/M14 Q1018 NOSIG ;EQDQ01+000000PRSWM2
0093010080999992000051801504+78250+015470FM-15+0029ENSB V0201301N00261220001CN0099001N1-00401-01201999999ADDMA1101901999999MW1001REMMET041ENSB 180150Z 13005KT CAVOK M04/M12 Q1019;EQDQ01+000000PRSWM2
0164010080999992000060715504+78250+015470FM-15+0029ENSB V0202401N004610180019N0112651N1+00001-00701999999ADDGA1021+006009999GA2071+018009999GF107991999999999999999999MA1101081999999MW1001REMMET054ENSB 071550Z 24009KT 9999 FEW020 BKN060 M00/M07 Q1011;EQDQ01+000000PRSWM2
0140010080999992000061422504+78250+015470FM-15+0029ENSB V0202101N005712200019N0112651N1+00101-00401999999ADDGA1021+004509999GF102991999999999999999999MA1100511999999MW1001REMMET046ENSB 142250Z 21011KT 9999 FEW015 01/M04 Q1005;EQDQ01+000000PRSWM2
0140010080999992000061513504+78250+015470FM-15+0029ENSB V0202401N004110090019N0112651N1+00101-00601999999ADDGA1071+009009999GF107991999999999999999999MA1100611999999MW1001REMMET046ENSB 151350Z 24008KT 9999 BKN030 01/M06 Q1006;EQDQ01+000000PRSWM2
0215010080999992000061912004+78250+015470FM-12+0029ENSB V0203601N001012200019N0700001N1+00261-00391100771ADDAY111061AY201061GA1011+007509089GA2031+013509069GF104991041081008001001061MA1999999100421MD1410001+9999MW1021REMSYN094AAXX  19124 01008 41588 43602 10026 21039 30042 40077 54000 70210 84806 333 81825 83645 91104;
0248010080999992000062306004+78250+015470FM-12+0029ENSB V0202501N002110270019N0750001N1+00511+00101102041ADDAA101999999AY121061AY211061GA1071+027009039GF107991011011012501071081KA1120N+00461MA1999999101681MD1410001+9999MW1031REMSYN100AAXX  23064 01008 31689 72504 10051 20010 30168 40204 54000 70321 81178 333 20046 61835 87359 91108;EQDQ01  18292PRCP01
0164010080999992000062417504+78250+015470FM-15+0029ENSB V0201101N006210300019N0112651N1+00501-00301999999ADDGA1021+007509999GA2071+030009999GF107991999999999999999999MA1101901999999MW1001REMMET054ENSB 241750Z 11012KT 9999 FEW025 BKN100 05/M03 Q1019 ;EQDQ01+000000PRSWM2
0163010080999992000062508504+78250+015470FM-15+0029ENSB V0202701N002110300019N0112651N1+00401-00101999999ADDGA1021+009009999GA2071+030009999GF107991999999999999999999MA1102001999999MW1001REMMET053ENSB 250850Z 27004KT 9999 FEW030 BKN100 04/M01 Q1020;EQDQ01+000000PRSWM2
0163010080999992000062513504+78250+015470FM-15+0029ENSB V0202701N001512200019N0112651N1+00501-00101999999ADDGA1021+030009999GA2021+054009999GF104991999999999999999999MA1102001999999MW1001REMMET053ENSB 251350Z 27003KT 9999 FEW100 SCT180 05/M01 Q1020;EQDQ01+000000PRSWM2
0186010080999992000070312504+78250+015470FM-15+0029ENSB V0202501N005110150019N0112651N1+00501-00101999999ADDGA1021+004509999GA2021+009009999GA3071+015009999GF107991999999999999999999MA1102301999999MW1001REMMET060ENSB 031250Z 25010KT 9999 FEW015 SCT030 BKN050 05/M01 Q1023;EQDQ01+000000PRSWM2
0273010080999992000070906004+78250+015470FM-12+0029ENSB V0202601N001010240019N0400001N1+00721+00201100621ADDAA112000191AY121061AY221061GA1011+004509069GA2041+012009069GA3061+024009039GF106991041051008001071999KA1120N+00421MA1999999100271MD1210071+9999MW1021REMSYN112AAXX  09064 01008 11582 62602 10072 20020 30027 40062 52007 69912 70222 8457/ 333 20042 81615 84640 86358 91104;
0167010080999992000070908504+78250+015470FM-15+0029ENSB V0200201N002110105019N0112651N1+00701+00401999999ADDGA1021+005409999GA2071+010509999GF107991999999999999999999MA1100711999999MW1001REMMET057ENSB 090850Z 02004KT 9999 SCT018 BKN035 07/04 Q1007 RERA;EQDQ01+000000PRSWM2
0193010080999992000071103004+78250+015470FM-12+0029ENSB V0201001N00311060001CN0700001N1+00601+00091101081ADDAY121031AY221031GA1011+006009069GF105991011051008001071081MA1999999100721MD1710071+9999MW1011REMSYN088AAXX  11034 01008 41588 51006 10060 20009 30072 40108 57007 70122 81578 333 81620 84068;
0169010080999992000071108504+78250+015470FM-15+0029ENSB V0201401N005712200019N0112651N1+00901-00101999999ADDGA1021+007509999GA2021+054009999GF104991999999999999999999MA1100811999999MW1001REMMET059ENSB 110850Z 14011KT 9999 FEW025 SCT180 09/M01 Q1008 NOSIG;EQDQ01+000000PRSWM2
0091010080999992000071117504+78250+015470FM-15+0029ENSB V0202501N00411220001CN0099001N1+01001+00001999999ADDMA1100711999999MW1001REMMET039ENSB 111750Z 25008KT CAVOK 10/00 Q1007;EQDQ01+000000PRSWM2
0205010080999992000071705504+78250+015470FM-15+0029ENSB V0202001N004110210019N0112651N1+00801+00301999999ADDGA1021+003009999GA2021+007509999GA3071+021009999GF107991999999999999999999MA1101021999999MW1611REMMET063ENSB 170550Z 20008KT 9999 -RA FEW010 SCT025 BKN070 08/03 Q1010;EQDQ01+000003PRSWM1Q02    003PRSWM1
0185010080999992000072208504+78250+015470FM-15+0029ENSB V0202101N007210240019N0112651N1+01101+00001999999ADDGA1021+003009999GA2021+006009999GA3071+024009999GF107991999999999999999999MA1101081999999MW1001REMMET059ENSB 220850Z 21014KT 9999 FEW010 SCT020 BKN080 11/00 Q1011;EQDQ01+000000PRSWM2
0193010080999992000072403004+78250+015470FM-12+0029ENSB V0202101N00211002101CN0400001N1+00301+00021101921ADDAY161031AY221031GA1041+002409079GF108991081061002501999999MA1999999101561MD1210101+9999MW1611REMSYN088AAXX  24034 01008 41382 82104 10030 20002 30156 40192 52010 76162 886// 333 84708 84620;
0139010080999992000072618504+78250+015470FM-15+0029ENSB V0202401N009812200019N0112651N1+01001+00201999999ADDGA1021+012009999GF102991999999999999999999MA1101391999999MW1001REMMET045ENSB 261850Z 24019KT 9999 FEW040 10/02 Q1014;EQDQ01+000000PRSWM2
0186010080999992000073000504+78250+015470FM-15+0029ENSB V0200101N004610210019N0112651N1+00301-00101999999ADDGA1021+003009999GA2021+010509999GA3071+021009999GF107991999999999999999999MA1100611999999MW1001REMMET060ENSB 300050Z 01009KT 9999 FEW010 SCT035 BKN070 03/M01 Q1006;EQDQ01+000000PRSWM2
0193010080999992000080309004+78250+015470FM-12+0029ENSB V0200101N001012200019N0450001N1+00501+00221100511ADDAY121031AY211031GA1011+004209079GF103991031051004501001001MA1999999100161MD1210201+9999MW1011REMSYN088AAXX  03094 01008 41483 30102 10050 20022 30016 40051 52020 70121 83500 333 81714 83630;
0162010080999992000080419504+78250+015470FM-15+0029ENSB V0202501N001010084019N0112651N1+00501+00201999999ADDGA1021+004509999GA2071+008409999GF107991999999999999999999MA1101391999999MW1001REMMET052ENSB 041950Z 25002KT 9999 FEW015 BKN028 05/02 Q1014;EQDQ01+000000PRSWM2
0162010080999992000080600504+78250+015470FM-15+0029ENSB V0201401N006712200019N0112651N1+00601+00201999999ADDGA1021+005409999GA2021+009009999GF104991999999999999999999MA1101081999999MW1001REMMET052ENSB 060050Z 14013KT 9999 FEW018 SCT030 06/02 Q1011;EQDQ01+000000PRSWM2
0139010080999992000081423504+78250+015470FM-15+0029ENSB V0202501N004112200019N0112651N1+00701+00401999999ADDGA1021+010509999GF104991999999999999999999MA1102401999999MW1001REMMET045ENSB 142350Z 25008KT 9999 SCT035 07/04 Q1024;EQDQ01+000000PRSWM2
0091010080999992000081812504+78250+015470FM-15+0029ENSB V0202901N00151220001CN0099001N1+00501+00301999999ADDMA1102101999999MW1001REMMET039ENSB 181250Z 29003KT CAVOK 05/03 Q1021;EQDQ01+000000PRSWM2
0187010080999992000082015004+78250+015470FM-12+0029ENSB V0202501N003612200019N0500001N1+00491+00241101211ADDAY101031AY201031GA1031+004509059GF103991031051004501001061MA1999999100851MD1710061+9999MW1031REMSYN082AAXX  20154 01008 41484 32507 10049 20024 30085 40121 57006 70300 83506 333 83615;
0215010080999992000082100004+78250+015470FM-12+0029ENSB V0202501N001510066019N0500001N1+00411+00211101041ADDAY121061AY221061GA1031+004509069GA2071+006609069GF108991071051004501071999MA1999999100681MD1710081+9999MW1031REMSYN094AAXX  21004 01008 41484 82503 10041 20021 30068 40104 57008 70322 8757/ 333 83615 87622 91105;
0215010080999992000082421004+78250+015470FM-12+0029ENSB V0202001N00211004201CN0400001N1+00491-00021100411ADDAY121031AY221031GA1011+003609079GA2031+009009069GF107991051051004501071081MA1999999100061MD1710011+9999MW1021REMSYN094AAXX  24214 01008 41482 72004 10049 21002 30006 40041 57001 70222 85578 333 81712 83630 85640;
0162010080999992000082514504+78250+015470FM-15+0029ENSB V0201101N005710120019N0112651N1+00401+00101999999ADDGA1021+003609999GA2071+012009999GF107991999999999999999999MA1100001999999MW1001REMMET052ENSB 251450Z 11011KT 9999 SCT012 BKN040 04/01 Q1000;EQDQ01+000000PRSWM2
0169010080999992000082908504+78250+015470FM-15+0029ENSB V0201201N001512200019N0112651N1+00201-00201999999ADDGA1021+006009999GA2021+054009999GF104991999999999999999999MA1100311999999MW1001REMMET059ENSB 290850Z 12003KT 9999 FEW020 SCT180 02/M02 Q1003 NOSIG;EQDQ01+000000PRSWM2
0163010080999992000082915504+78250+015470FM-15+0029ENSB V0203201N007710105019N0112651N1+00301-00201999999ADDGA1021+006009999GA2071+010509999GF107991999999999999999999MA1100201999999MW1001REMMET053ENSB 291550Z 32015KT 9999 FEW020 BKN035 03/M02 Q1002;EQDQ01+000000PRSWM2
0164010080999992000082923504+78250+015470FM-15+0029ENSB V0202601N011312200019N0112651N1+00001-00401999999ADDGA1021+004509999GA2021+009009999GF104991999999999999999999MA1100411999999MW1001REMMET054ENSB 292350Z 26022KT 9999 FEW015 SCT030 M00/M04 Q1004;EQDQ01+000000PRSWM2
0193010080999992000091100004+78250+015470FM-12+0029ENSB V0201301N002110090019N0600001N1+00551+00251100441ADDAY161061AY221061GA1061+009009059GF107991061051008001071999MA1999999100091MD1310031+9999MW1011REMSYN088AAXX  11004 01008 41586 71304 10055 20025 30009 40044 53003 70162 8657/ 333 86530 91110;
0215010080999992000091209004+78250+015470FM-12+0029ENSB V0202301N00261006001CN0250001N1+00451+00131100851ADDAY181031AY221031GA1011+002109079GA2031+004509089GF107991061081002501031999MA1999999100501MD1210181+9999MW1151REMSYN094AAXX  12094 01008 41375 72305 10045 20013 30050 40085 52018 71582 8683/ 333 81707 83815 85630;
0237010080999992000091400004+78250+015470FM-12+0029ENSB V0202201N003610090019N0200001N1+00651+00411101001ADDAY161061AY221061GA1011+003009079GA2031+007509069GA3081+009009069GF108991081051004501999999MA1999999100641MD1710011+9999MW1611REMSYN100AAXX  14004 01008 41470 82207 10065 20041 30064 40100 57001 76162 885// 333 81710 83625 88630 91112;
0220010080999992000092107504+78250+015470FM-15+0029ENSB V0202501N003610045019N0080001N1+00401+00401999999ADDGA1021+002409999GA2071+004509999GF107991999999999999999999MA1100711999999MW1511MW2611REMMET088ENSB 210750Z 25007KT 180V360 8000 -RADZ SCT008 BKN015 04/04 Q1007 TEMPO 3000 RADZ VV008;EQDQ01+000003PRSWM1Q02    003PRSWM1
0185010080999992000092308504+78250+015470FM-15+0029ENSB V0201901N003610150019N0112651N1+00901+00501999999ADDGA1021+003009999GA2021+009009999GA3071+015009999GF107991999999999999999999MA1100511999999MW1001REMMET059ENSB 230850Z 19007KT 9999 FEW010 SCT030 BKN050 09/05 Q1005;EQDQ01+000000PRSWM2
0173010080999992000092405504+78250+015470FM-15+0029ENSB V0202401N011310060019N0112651N1+00401+00301999999ADDGA1021+001209999GA2071+006009999GF107991999999999999999999MA1098711999999MW1001OC101701REMMET055ENSB 240550Z 24022G33KT 9999 SCT004 BKN020 04/03 Q0987;EQDQ01+000000PRSWM2
0215010080999992000092615004+78250+015470FM-12+0029ENSB V0201301N00211001201CN0250001N1+00171+00001101591ADDAY171031AY221031GA1011+001509079GA2031+004509079GF108991071061001501021999MA1999999101131MD1710081+9999MW1151REMSYN094AAXX  26154 01008 41275 81304 10017 20000 30113 40159 57008 71572 8762/ 333 81705 83715 87635;
0208010080999992000092903504+78250+015470FM-15+0029ENSB V0201301N004610060019N0112651N1-00301-00401999999ADDGA1021+002409999GA2021+003609999GA3071+006009999GF107991999999999999999999MA1101191999999MW1161REMMET066ENSB 290350Z 13009KT 9999 VCSH FEW008 SCT012 BKN020 M03/M04 Q1012;EQDQ01+000003PRSWM1Q02    003PRSWM1
0168010080999992000100120504+78250+015470FM-15+0029ENSB V0200901N002610120019N0112651N1+00101+00001999999ADDGA1021+004509999GA2071+012009999GF107991999999999999999999MA1100811999999MW1001REMMET058ENSB 012050Z 09005KT 9999 FEW015 BKN040 01/00 Q1008 NOSIG;EQDQ01+000000PRSWM2
0168010080999992000100407504+78250+015470FM-15+0029ENSB V0201101N001010075019N0112651N1+00201+00101999999ADDGA1021+003609999GA2071+007509999GF107991999999999999999999MA1100811999999MW1001REMMET058ENSB 040750Z 11002KT 9999 FEW012 BKN025 02/01 Q1008 NOSIG;EQDQ01+000000PRSWM2
0214010080999992000100700504+78250+015470FM-15+0029ENSB V0202101N006710090019N0112651N1+00201-00201999999ADDGA1021+002409999GA2021+005409999GA3071+009009999GF107991999999999999999999MA1100101999999MW1611MW2711REMMET066ENSB 070050Z 21013KT 9999 -SNRA FEW008 SCT018 BKN030 02/M02 Q1001;EQDQ01+000003PRSWM1Q02    003PRSWM1
0225010080999992000100706504+78250+015470FM-15+0029ENSB V0202301N007210060019N0080001N1+00101-00201999999ADDGA1021+002409999GA2021+003609999GA3071+006009999GF107991999999999999999999MA1100511999999MW1611MW2711OC101291REMMET069ENSB 070650Z 23014G25KT 8000 -SNRA FEW008 SCT012 BKN020 01/M02 Q1005;EQDQ01+000003PRSWM1Q02    003PRSWM1
0205010080999992000101404504+78250+015470FM-15+0029ENSB V02099999999990090019N0112651N1+00301+00201999999ADDGA1021+003009999GA2021+006009999GA3071+009009999GF107991999999999999999999MA1100001999999MW1611REMMET063ENSB 140450Z VRB02KT 9999 -RA FEW010 SCT020 BKN030 03/02 Q1000;EQDQ01+000003PRSWM1Q02    003PRSWM1
0251010080999992000101618004+78250+015470FM-12+0029ENSB V0201101N001010540019N0300001N1+00051-00081100571ADDAA112000791AY161061AY221061GA1011+003009079GA2071+054009029GF107991021051004501031071KA1120M+00641MA1999999100221MD1810021+9999MW1021REMSYN106AAXX  16184 01008 11480 71102 10005 21008 30022 40057 58002 69902 70262 82537 333 10064 81710 87268 91114;
0163010080999992000102317504+78250+015470FM-15+0029ENSB V0201501N005710180019N0112651N1+00301-00201999999ADDGA1021+009009999GA2071+018009999GF107991999999999999999999MA1100511999999MW1001REMMET053ENSB 231750Z 15011KT 9999 FEW030 BKN060 03/M02 Q1005;EQDQ01+000000PRSWM2
0207010080999992000110623504+78250+015470FM-15+0029ENSB V0202801N005110075019N0112651N1-00801-01201999999ADDGA1021+002409999GA2021+006009999GA3071+007509999GF107991999999999999999999MA1100411999999MW1711REMMET065ENSB 062350Z 28010KT 9999 -SN FEW008 SCT020 BKN025 M08/M12 Q1004;EQDQ01+000003PRSWM1Q02    003PRSWM1
0142010080999992000111513504+78250+015470FM-15+0029ENSB V0201201N005112200019N0112651N1-00701-01101999999ADDGA1021+009009999GF102991999999999999999999MA1100811999999MW1001REMMET048ENSB 151350Z 12010KT 9999 FEW030 M07/M11 Q1008 ;EQDQ01+000000PRSWM2
0186010080999992000111905504+78250+015470FM-15+0029ENSB V0202101N008210180019N0112651N1+00301-00201999999ADDGA1021+003009999GA2021+012009999GA3071+018009999GF107991999999999999999999MA1102101999999MW1001REMMET060ENSB 190550Z 21016KT 9999 FEW010 SCT040 BKN060 03/M02 Q1021;EQDQ01+000000PRSWM2
0292010080999992000112218004+78250+015470FM-12+0029ENSB V0201101N003610075019N0300001N1-00171-00231101651ADDAA112000191AY171061AY221061GA1011+003009079GA2031+004509069GA3071+007509069GF108991081051004501999999KA1120N+99999MA1999999101281MD1710051+9999MW1221REMSYN112AAXX  22184 01008 11480 81107 11017 21023 30128 40165 57005 69912 72272 885// 333 20017 81710 83615 87625 91110;EQDQ01 +00172ATMN  
0207010080999992000112603504+78250+015470FM-15+0029ENSB V0201401N006210180019N0112651N1+00001-00301999999ADDGA1021+003009999GA2021+007509999GA3071+018009999GF107991999999999999999999MA1100711999999MW1711REMMET065ENSB 260350Z 14012KT 9999 -SN FEW010 SCT025 BKN060 M00/M03 Q1007;EQDQ01+000003PRSWM1Q02    003PRSWM1
0141010080999992000112801504+78250+015470FM-15+0029ENSB V0201301N004112200019N0112651N1-00301-00701999999ADDGA1021+007509999GF102991999999999999999999MA1101081999999MW1001REMMET047ENSB 280150Z 13008KT 9999 FEW025 M03/M07 Q1011;EQDQ01+000000PRSWM2
0187010080999992000120211504+78250+015470FM-15+0029ENSB V0201001N004610210019N0112651N1-00301-00601999999ADDGA1021+003009999GA2021+009009999GA3071+021009999GF107991999999999999999999MA1100911999999MW1001REMMET061ENSB 021150Z 10009KT 9999 FEW010 SCT030 BKN070 M03/M06 Q1009;EQDQ01+000000PRSWM2
0184010080999992000121708504+78250+015470FM-15+0029ENSB V0201201N001510075019N0112651N1-00901-01101999999ADDGA1021+004509999GA2071+007509999GF107991999999999999999999MA1100411999999MW1711REMMET058ENSB 170850Z 12003KT 9999 -SN FEW015 BKN025 M09/M11 Q1004;EQDQ01+000003PRSWM1Q02    003PRSWM1
0202010080999992000121800504+78250+015470FM-15+0029ENSB V0201201N003110084019N0112651N1+99999+99999999999ADDGA1021+004509999GA2021+006609999GA3071+008409999GF107991999999999999999999MA1101021999999MW1001MW2711REMMET070ENSB 180050Z 12006KT 9999 -SN FEW015 SCT022 BKN028 M09/M2 Q1010 NOSIG;EQDQ01+000003PRSWM1
0164010080999992000122922504+78250+015470FM-15+0029ENSB V0201101N007212200019N0112651N1-00601-01101999999ADDGA1021+006009999GA2021+012009999GF104991999999999999999999MA1102101999999MW1001REMMET054ENSB 292250Z 11014KT 9999 FEW020 SCT040 M06/M11 Q1021;EQDQ01+000000PRSWM2
0226010100999992000010408504+69300+016150FM-15+0014ENAN V0200801N005110075019N0050001N1+00001-00201999999ADDGA1021+002109999GA2021+003009999GA3071+007509999GF107991999999999999999999MA1097901999999MW1711REMMET084ENAN 040850Z 08010KT 5000SW -SN FEW007 SCT010 BKN025 00/M02 Q0979 TEMPO 4000 BKN015;EQDQ01+000003PRSWM1Q02    003PRSWM1
0161010100999992000010721004+69300+016150FM-12+0014ENAN V0202001N006210042019N0100001N1+00191+00011097221ADDAY171031AY261031GF108991071051004501999999MA1999999097051MD1710431+9999MW1601REMSYN072AAXX  07214 01010 41460 82012 10019 20001 39705 49722 57043 76076 875//;
0165010100999992000011515004+69300+016150FM-12+001499999V0203101N00311007501AN0300001N1+00071-00541101161ADDAY121031AY221031GF107991071051008001071999MA1999999100991MD1110071+9999MW1021REMSYN076    AAXX  15154 01010 41580 73106 10007 21054 30099 40116 51007 70222 8757/;
0191010100999992000011706504+69300+016150FM-15+0014ENAN V0202901N008210090019N0112651N1+00301-00101999999ADDGA1021+004509099GA2071+009009999GF107991999999999999999999MA1098211999999MW1001REMMET081ENAN 170650Z 29016KT 9999 FEW015CB BKN030 03/M01 Q0982 TEMPO 1000 SHSNRAGS VV008;EQDQ01+000000PRSWM2
0222010100999992000012005504+69300+016150FM-15+0014ENAN V0203201N013410060019N0030001N1-00401-00601999999ADDGA1021+003609099GA2071+006009999GF107991999999999999999999MA1100101999999MW1381OC101901REMMET088ENAN 200550Z 32026G37KT 3000 BLSN FEW012CB BKN020 M04/M06 Q1001 TEMPO 0500 SHSNGS VV005;EQDQ01+000003PRSWM1Q02    003PRSWM1
0174010100999992000012211504+69300+016150FM-15+0014ENAN V0203501N005710075019N0112651N1-00301-01201999999ADDGA1021+004509099GA2071+007509999GF107991999999999999999999MA1101021999999MW1001REMMET064ENAN 221150Z 35011KT 320V030 9999 FEW015CB BKN025 M03/M12 Q1010;EQDQ01+000000PRSWM2
0171010100999992000012212004+69300+016150FM-12+0014ENAN V0203501N002610042019N0650001N1-00301-01241101081ADDAY181061AY211061GF106991051091004501061011MA1999999100901MD1110081+9999MW1151REMSYN082AAXX  22124 01010 41487 63505 11030 21124 30090 40108 51008 71581 85961 333 91115;
0161010100999992000012521004+69300+016150FM-12+0014ENAN V0202401N006710042019N0150001N1+00551+00361099261ADDAY161031AY261031GF108991081071004501999999MA1999999099091MD1710281+9999MW1611REMSYN072AAXX  25214 01010 41465 82413 10055 20036 39909 49926 57028 76166 887//;
0141010100999992000012718504+69300+016150FM-15+0014ENAN V0202801N009812200019N0112651N1-00401-01301999999ADDGA1021+007509999GF104991999999999999999999MA1098511999999MW1001REMMET047ENAN 271850Z 28019KT 9999 SCT025 M04/M13 Q0985;EQDQ01+000000PRSWM2
0171010100999992000012912004+69300+016150FM-12+0014ENAN V0201001N003112200019N0750001N1-00621-01261097411ADDAY101061AY201061GF103991021091004501071061MA1999999097231MD1710261+9999MW1021REMSYN082AAXX  29124 01010 41489 31006 11062 21126 39723 49741 57026 70200 82976 333 91109;
0217010100999992000013018004+69300+016150FM-12+0014ENAN V0202701N009310003019N0003001N1-00491-00601097071ADDAA112011991AY171061AY271061GA1091+999999999GF109991091999999999999999KA1120M-00071MA1999999096901MD1210391+9999MW1731REMSYN088AAXX  30184 01010 11/03 92718 11049 21060 39690 49707 52039 60122 77377 333 11007 91128;
0163010100999992000013023504+69300+016150FM-15+0014ENAN V0202601N01341000151CN0005001N1-00601-01101999999ADDGA1091+000159999GF109991999999000251999999MA1097391999999MW1861REMMET053ENAN 302350Z 26026KT 0500 +SHSN VV005 M06/M11 Q0974 ;EQDQ01+000003PRSWM1Q02    003PRSWM1
0170010100999992000021706504+69300+016150FM-15+0014ENAN V0201801N004610600019N0112651N1-00601-00901999999ADDGA1021+012009999GA2071+060009999GF107991999999999999999999MA1099801999999MW1001REMMET060ENAN 170650Z 18009KT 9999 FEW040 BKN200 M06/M09 Q0998 NOSIG;EQDQ01+000000PRSWM2
0093010100999992000021719504+69300+016150FM-15+0014ENAN V0202101N00411220001CN0099001N1-00801-01101999999ADDMA1099901999999MW1001REMMET041ENAN 171950Z 21008KT CAVOK M08/M11 Q0999;EQDQ01+000000PRSWM2
0188010100999992000022020504+69300+016150FM-15+0014ENAN V0202501N001510060019N0112651N1-00301-00401999999ADDGA1021+003609099GA2071+006009999GF107991999999999999999999MA1101591999999MW1851REMMET062ENAN 202050Z 25003KT 9999 -SHSN FEW012CB BKN020 M03/M04 Q1016;EQDQ01+000003PRSWM1Q02    003PRSWM1
0141010100999992000022320504+69300+016150FM-15+0014ENAN V0201701N006212200019N0112651N1-00201-00501999999ADDGA1021+013509999GF102991999999999999999999MA1101081999999MW1001REMMET047ENAN 232050Z 17012KT 9999 FEW045 M02/M05 Q1011;EQDQ01+000000PRSWM2
0161010100999992000030223504+69300+016150FM-15+0014ENAN V0200401N00571000151CN0020001N1-00301-00501999999ADDGA1091+000159999GF109991999999000251999999MA1098981999999MW1861REMMET051ENAN 022350Z 04011KT 2000 SHSN VV012 M03/M05 Q0990;EQDQ01+000003PRSWM1Q02    003PRSWM1
0141010100999992000030403504+69300+016150FM-15+0014ENAN V0200501N007712200019N0112651N1-00401-01201999999ADDGA1021+009009999GF102991999999999999999999MA1099191999999MW1001REMMET047ENAN 040350Z 05015KT 9999 FEW030 M04/M12 Q0992;EQDQ01+000000PRSWM2
0093010100999992000030518504+69300+016150FM-15+0014ENAN V0201701N00721220001CN0099001N1-00701-01501999999ADDMA1100411999999MW1001REMMET041ENAN 051850Z 17014KT CAVOK M07/M15 Q1004;EQDQ01+000000PRSWM2
0221010100999992000031513504+69300+016150FM-15+0014ENAN V0202501N005110075019N0112651N1+00001-00601999999ADDGA1021+003609099GA2071+007509999GF107991999999999999999999MA1099801999999MW1851MW2871REMMET089ENAN 151350Z 25010KT 9999 -SHSNGS FEW012CB BKN025 M00/M06 Q0998 TEMPO 0500 +SHSNGS VV005;EQDQ01+000003PRSWM1Q02    003PRSWM1
0169010100999992000031710504+69300+016150FM-15+0014ENAN V0201801N010310120019N0112651N1+00001-00901999999ADDGA1021+007509999GA2071+012009999GF107991999999999999999999MA1101081999999MW1001REMMET059ENAN 171050Z 18020KT 9999 FEW025 BKN040 00/M09 Q1011 NOSIG;EQDQ01+000000PRSWM2
0199010100999992000032122504+69300+016150FM-15+0014ENAN V0202501N010310090019N0112651N1+00001-00501999999ADDGA1021+003609099GA2071+009009999GF107991999999999999999999MA1098981999999MW1871OC101541REMMET065ENAN 212250Z 25020G30KT 9999 -SHGS SCT012CB BKN030 M00/M05 Q0990;EQDQ01+000003PRSWM1Q02    003PRSWM1
0212010100999992000032615504+69300+016150FM-15+0014ENAN V0203501N006710075019N0030001N1-00101-00301999999ADDGA1021+002409999GA2021+003609099GA3071+007509999GF107991999999999999999999MA1102001999999MW1851REMMET070ENAN 261550Z 35013KT 3000N -SHSN FEW008 FEW012CB BKN025 M01/M03 Q1020;EQDQ01+000003PRSWM1Q02    003PRSWM1
0161010100999992000032709004+69300+016150FM-12+0014ENAN V0202301N003610042019N0300001N1+00051-00521102211ADDAY171031AY221031GF108991071051004501071999MA1999999102031MD1810011+9999MW1711REMSYN072AAXX  27094 01010 41480 82307 10005 21052 30203 40221 58001 77172 8757/;
0161010100999992000033009004+69300+016150FM-12+0014ENAN V0202501N007710090019N0280001N1+00331-00261099481ADDAY181031AY221031GF107991061081004501071999MA1999999099311MD1710111+9999MW1251REMSYN072AAXX  30094 01010 41478 72515 10033 21026 39931 49948 57011 72582 8687/;
0174010100999992000040111504+69300+016150FM-15+0014ENAN V0203601N004110075019N0112651N1-00501-01201999999ADDGA1021+004509099GA2071+007509999GF107991999999999999999999MA1100711999999MW1001REMMET064ENAN 011150Z 36008KT 320V040 9999 FEW015CB BKN025 M05/M12 Q1007;EQDQ01+000000PRSWM2
