0213911650225362000110223204+21980-159350FM-15+0045PHLI V0201401N004110075019N0160931N1+02501+02401999999ADDAA101000891GD12991+0015019GD23991+0075019GD34991+0096019GF108991999999999999999999MA1101321999999MW1001REMMET079PHLI 022320Z 14008KT 10SM FEW005 BKN025 OVC032 25/24 A2992 RMK AO2 RAE18 P0003;EQDQ01+000000PRSWM2
032791165022536200011031453C+21983-159333FM-15+0031LIH  V0202605N00215220005MN0160005N1+02175+02115101305ADDAA101000095GF100991999999999999999999MA1101355999999MD1510011+9999MW1001REMMET073PHLI 031453Z 26004KT 10SM CLR 22/21 A2993 RMK AO2 SLP130 T02170211 55001;EQDQ01+000000PRSWM2N01 00000JPWTH 0QNNAA1D0 00000BA1 0 00000GA1U0 99999KA1D0 00070JA1 0 00211LA1 0 01000CA1 0 02993NA1 0 00000QA1 0 10130SA1D0 00071RA1 0 00217YA1 0 26004
0203911650225362000110417534+21980-159350FM-15+0045PHLI V0209999C000012200019N0160931N1+02301+02101101371ADDGF100991999999999999999999KA1999M+02331KA2999N+02111MA1101421999999MD1310111+9999MW1001REMMET085PHLI 041753Z 00000KT 10SM CLR 23/21 A2995 RMK AO2 SLP137 T02330211 10233 20211 53011;EQDQ01+000000PRSWM2
0286911650225362000110809003+21983-159333FM-15+0031LIH  V0200705N00625220005MN016000599+02505+02005101745ADDAA101000095GD12995+0079259GD22995+0167659GP10060000002000000002000000002000GR100600000900009MA1101765999999EQDN01 00000JPWTH 0QNNAA1D0 02026BA1 0 02026AA1D0 02055BA1 0 02055GA1U0 99999KA1D0 00068JA1 0 00200LA1 0 01000CA1 0 03005NA1 0 00000QA1 0 10174SA1D0 00077RA1 0 00250YA1 0 07012
0071911650225362000111119009+21983-159333NSRDB+003199999V020999999999999999999999999999+99999+99999999999ADDGP10060029802008052502015011002008GQ100600691912049GR100600497913969
0304911650225362000111223534+21980-159350FM-15+0045PHLI V0200701N007710150019N0160931N1+02501+02201101591ADDAA101001591AA206001591GD12991+0135019GD24991+0150019GF108991999999999999999999KA1999M+02671KA2999N+02331MA1101631999999MD1810231+9999MW1001REMMET134PHLI 122353Z 07015KT 10SM FEW045 OVC055 25/22 A3001 RMK AO2 PK WND 08026/2307 RAB01E34 SLP159 P0006 60006 T02500217 10267 20233 58023;EQDQ01+000000PRSWM2
036191165022536200011160253C+21983-159333FM-15+0031LIH  V0200505N00525220005MN0160005N1+02615+02065101665ADDAA101000095GD11995+0073259GF102991999999999999999999MA1101695999999MD1310011+9999MW1001REMMET076PHLI 160253Z 05010KT 10SM FEW024 26/21 A3003 RMK AO2 SLP166 T02610206 53000;EQDQ01+000002APC3  Q02+000000PRSWM2N01 00000JPWTH 0QNNAA1D0 02024BA1 0 01024GA1U0 99999KA1D0 00069JA1 0 00206LA1 0 01000CA1 0 03003NA1 0 00000QA1 0 10166SA1D0 00079RA1 0 00261YA1 0 05010
0190911650225362000111618034+21980-159350FM-16+0045PHLI V0200101N005710039019N0160931N1+02401+02201999999ADDGD13991+0039019GD23991+0078019GD33991+0123019GF107991999999999999999999MA1102001999999MW1001REMMET067PHLI 161803Z 01011KT 10SM BKN013 BKN026 BKN041 24/22 A3012 RMK AO2;EQDQ01+000000PRSWM2
0071911650225362000111702009+21983-159333NSRDB+003199999V020999999999999999999999999999+99999+99999999999ADDGP10060047402008086802015006002008GQ100600616923169GR100600665913999
0293911650225362000111711534+21980-159350FM-15+0045PHLI V0200401N009310108019N0160931N1+02401+01901101991ADDAA124004691GD12991+0084019GD23991+0108019GD33991+0132019GF107991999999999999999999KA1999M+02501KA2999N+02391MA1102031999999MD1810091+9999MW1001OC101231REMMET111PHLI 171153Z 04018G24KT 10SM FEW028 BKN036 BKN044 24/19 A3013 RMK AO2 SLP199 70018 T02390189 10250 20239 58009;EQDQ01+000000PRSWM2
003991165022536200011190959O+21983-159333SOD  +003199999V020999999999999999999999999999+99999+99999999999ADDAT1MW16RA  1AT2MW01FG  5AT3MW13BR  1
0448911650225362000112106003+21983-159333SY-MT+0031LIH  V0200605N00675220005MN0160005N1+02445+01895101905ADDAA101000095GD11995+0085359GF102991999999008001999999GP10060000002000000002000000002000GR100600000900009KA1240M+02721KA2240N+02391MA1101935101381MD1310121+9999REMSYN092AAXX  21064 91165 32566 20613 10244 20189 30138 40190 53012 90553 333 10272 20239 555 92106;EQDQ01  00002PRCP99Q02  00003PRCP99N01 00000JPWTH 0QNNAA1D0 02028BA1 0 01028GA1U0 99999KA1D0 00066JA1 0 00189LA1 0 01000CA1 0 03010NA1 0 00000QA1 0 10190SA1D0 00076RA1 0 00244YA1 0 06013
0252911650225362000112210073+21980-159350FM-16+0045PHLI V0200101N006710081019N0160931N1+02401+02101999999ADDGD12991+0063019GD23991+0081019GD34991+0210019GF108991999999999999999999GP10060000002000000002000000002000GR100600000900009MA1102031999999MW1001REMMET078PHLI 221007Z 01013KT 10SM FEW021 BKN027 OVC070 24/21 A3013 RMK AO2 WSHFT 0952;EQDQ01+000000PRSWM2
0071911650225362000112417009+21983-159333NSRDB+003199999V020999999999999999999999999999+99999+99999999999ADDGP10060000002008000002015000002008GQ100600897911239GR100600000900829
0071911650225362000112420009+21983-159333NSRDB+003199999V020999999999999999999999999999+99999+99999999999ADDGP10060047802008074402015010902008GQ100600603913229GR100600694914049
0071911650225362000112604009+21983-159333NSRDB+003199999V020999999999999999999999999999+99999+99999999999ADDGP10060003202008032202015000802008GQ100600849924509GR100600107912059
0205911650225362000112722364+21980-159350FM-16+0045PHLI V0200401N007710117019N0160931N1+02601+02401999999ADDGD12991+0036019GD23991+0117019GD33991+0138019GF107991999999999999999999MA1101801999999MW1001REMMET082PHLI 272236Z 04015KT 10SM FEW012 BKN039 BKN046 26/24 A3006 RMK AO2 RAB06E33 P0000;EQDQ01+000000PRSWM2
043391165022536200011281453C+21983-159333FM-15+0031LIH  V0200505N00775010065MN0160005N1+02395+02175101815ADDAA101000095GD11995+0061059GD22995+0076259GD33995+0100659GF107991999999999999999999MA1101835999999MD1810071+9999MW1001REMMET090PHLI 281453Z 05015KT 10SM FEW020 SCT025 BKN033 24/22 A3007 RMK AO2 SLP181 T02390217 58007;EQDQ01+000000PRSWM2N01 00000JPWTH 0QNNAA1D0 02020BA1 0 01020AA1D0 02025BA1 0 02025AA1D0 04033BA1 0 04033GA1 0 00033KA1D0 00071JA1 0 00217LA1 0 01000CA1 0 03007NA1 0 00000QA1 0 10181SA1D0 00075RA1 0 00239YA1 0 05015
041591165022536200012020953C+21983-159333FM-15+0031LIH  V0203305N00155009145MN0160005N1+02175+02005101845ADDAA101000095GD12995+0070159GD23995+0091459GF107991999999999999999999KA1999M+02671KA2999N+01941MA1101865999999MW1001REMMET097PHLI 020953Z AUTO 33003KT 10SM SCT023 BKN030 22/20 A3008 RMK AO2 SLP184 T02170200 402670194 TSNO;EQDQ01+000000PRSWM2N01 00000JPWTH 0QNNAA1D0 02023BA1 0 02023AA1D0 04030BA1 0 04030GA1 0 00030KA1D0 00068JA1 0 00200LA1 0 01000CA1 0 03008NA1 0 00000QA1 0 10184SA1D0 00071RA1 0 00217YA1 0 33003
0054911650225362000120214009+21983-159333NSRDB+003199999V020999999999999999999999999999+99999+99999999999ADDGP10060000002000000002000000002000GR100600000900009
0071911650225362000120503009+21983-159333NSRDB+003199999V020999999999999999999999999999+99999+99999999999ADDGP10060023402008048802015009702008GQ100600738923699GR100600393914099
0501911650225362000120511003+21983-159333FM-15+0031LIH  V0203605N01185003665MN0144005N1+02065+02005101765ADDAA101000395GD13995+0036659GD23995+0064059GD34995+0106759GF108991999999999999999999GP10060000002000000002000000002000GR100600000900009MA1101795999999MW1615OC101491REMMET097PHLI 051100Z 36019G29KT 8SM -RA SCT012 BKN021 OVC031 21/20 A3006 RMK AO2 PK WND 02029/1055 P0000;EQDQ01+000003PRSWM1Q02    003PRSWM1N01 00020JPWTH 0QNNAA1D0 04012BA1 0 04012AA1D0 04021BA1 0 04021AA1D0 06035BA1 0 06035GA1 0 00012KA1D0 00068JA1 0 00200LA1 0 00900CA1 0 03006NA1 0 00020QA1 0 10176SA1D0 00069RA1 0 00206YA1 0 36023
0474911650225362000120512003+21983-159333SY-MT+0031LIH  V0203605N00935007015MN0160005N1+02115+01895101725ADDAA101000025AA206000891AA324000891GD13995+0070159GD24995+0085359GF108991999999008001999999GP10060000002000000002000000002000GR100600000900009KA1240N+02061MA1101765101211MD1810121+9999REMSYN104AAXX  05124 91165 12566 83618 10211 20189 30121 40172 58012 69981 91153 333 20206 70008 91023 555 90512;EQDN01 00000JPWTH 0QNNAA1D0 04023BA1 0 04023AA1D0 06028BA1 0 06028GA1 0 00023KA1D0 00066JA1 0 00189LA1 0 01000CA1 0 03005NA1 0 00000QA1 0 10172SA1D0 00070RA1 0 00211YA1 0 36018
0054911650225362000120613009+21983-159333NSRDB+003199999V020999999999999999999999999999+99999+99999999999ADDGP10060000002000000002000000002000GR100600000900009
0071911650225362000121002009+21983-159333NSRDB+003199999V020999999999999999999999999999+99999+99999999999ADDGP10060046402008064302015016902008GQ100600628922709GR100600645914119
0252911650225362000121209394+21980-159350FM-15+0045PHLI V0200201N012310042019N0096561N1+02101+02101999999ADDAA101000591GD13991+0042019GD24991+0063019GF108991999999999999999999MA1101761999999MW1101MW2611OC101491REMMET103PHLI 120939Z AUTO 02024G29KT 6SM -RA BR BKN014 OVC021 21/21 A3005 RMK AO2 PK WND 02037/0923 P0002 TSNO;EQDQ01+000003PRSWM1Q02    003PRSWM1
0071911650225362000121302009+21983-159333NSRDB+003199999V020999999999999999999999999999+99999+99999999999ADDGP10060043902008077802015008202008GQ100600627922659GR100600647914129
031791165022536200012130753C+21983-159333FM-15+0031LIH  V0200605N00885220005MN0160005N1+02445+01945101905ADDAA101000095GF100991999999999999999999MA1101935999999MW1001REMMET077PHLI 130753Z AUTO 06017KT 10SM CLR 24/19 A3010 RMK AO2 SLP190 T02440194 TSNO;EQDQ01+000000PRSWM2N01 00000JPWTH 0QNNAA1D0 00000BA1 0 00000GA1U0 99999KA1D0 00067JA1 0 00194LA1 0 01000CA1 0 03010NA1 0 00000QA1 0 10190SA1D0 00076RA1 0 00244YA1 0 06017
0071911650225362000121501009+21983-159333NSRDB+003199999V020999999999999999999999999999+99999+99999999999ADDGP10060051002008041402015026302008GQ100600536921399GR100600837914129
031791165022536200012150753C+21983-159333FM-15+0031LIH  V0200605N00365220005MN0160005N1+02395+02335101935ADDAA101000095GF100991999999999999999999MA1101965999999MW1001REMMET077PHLI 150753Z AUTO 06007KT 10SM CLR 24/23 A3011 RMK AO2 SLP193 T02390233 TSNO;EQDQ01+000000PRSWM2N01 00000JPWTH 0QNNAA1D0 00000BA1 0 00000GA1U0 99999KA1D0 00074JA1 0 00233LA1 0 01000CA1 0 03011NA1 0 00000QA1 0 10193SA1D0 00075RA1 0 00239YA1 0 06007
0054911650225362000121805009+21983-159333NSRDB+003199999V020999999999999999999999999999+99999+99999999999ADDGP10060000002000000002000000002000GR100600000900009
0054911650225362000121809009+21983-159333NSRDB+003199999V020999999999999999999999999999+99999+99999999999ADDGP10060000002000000002000000002000GR100600000900009
0123911690999992000022912004+21680-158030FM-12+001099999V0200601N005719999999N0160001N1+02221+01781102091ADDGF106991999999008001999999MA1999999101591REMSYN070AAXX  29124 91169 /2566 60611 10222 20178 30159 40209 91153 555 92912;
0181911700999992000010401464+21480-158030FM-16+0255PHHI V02099999999990120019N0112651N1+02401+01701999999ADDGD12991+0060019GD22991+0090019GD33991+0120019GF107991999999999999999999MA1101861999999MW1001REMMET058PHHI 040146Z VRB05KT 7SM FEW020 SCT030 BKN040 24/17 A3008;EQDQ01+000000PRSWM2
0306911700999992000010402003+21480-158030FM-15+0255PHHI V0203301N003610120019N0112651N1+02301+01901999999ADDGD12991+0060019GD22991+0090019GD33991+0120019GF107991999999999999999999GP10060025402008007702015021702008GQ100600612922619GR100600680914159MA1101861999999MW1801REMMET099PHHI 040055Z 33007KT 300V020 7SM -SHRA FEW020 SCT030 BKN040 23/19 A3008 RMK SLPNO 8/100 9/600 WR//;EQDQ01+000003PRSWM1Q02    003PRSWM1
0054911700999992000010413009+21483-158033NSRDB+025299999V020999999999999999999999999999+99999+99999999999ADDGP10060000002000000002000000002000GR100600000900009
0198911700999992000010801003+21480-158030FM-15+0255PHHI V02099999999992200019N0070001N1+99999+99999999999ADDGP10060057902008065302015017302008GQ100600517921349GR100600876914159MW1001REMMET093PHHI 0100Z 0813007KT 050V150 7SM VCSH FEW018 SCT030 BKN035 23/15 A3011 RMK SLPNO 8/800 9/500;EQDQ01+000000PRSWM2
0054911700999992000010812009+21483-158033NSRDB+025299999V020999999999999999999999999999+99999+99999999999ADDGP10060000002000000002000000002000GR100600000900009
0054911700999992000010916009+21483-158033NSRDB+025299999V020999999999999999999999999999+99999+99999999999ADDGP10060000002000000002000000002000GR100600000900009
0258911700999992000011017003+21480-158030FM-15+0255PHHI V0203201N003112200019N0112651N1+01601+01401999999ADDGD12991+0045019GD22991+0600019GF102991999999999999999999GP10060000002000000002000000002000GR100600000900009MA1101831999999MW1161REMMET083PHHI 101655Z 32006KT 7SM VCSH FEW015 FEW200 16/14 A3007 RMK SLPNO 8/108 9/101 WR//;EQDQ01+000003PRSWM1Q02    003PRSWM1
0054911700999992000011114009+21483-158033NSRDB+025299999V020999999999999999999999999999+99999+99999999999ADDGP10060000002000000002000000002000GR100600000900009
0054911700999992000011512009+21483-158033NSRDB+025299999V020999999999999999999999999999+99999+99999999999ADDGP10060000002000000002000000002000GR100600000900009
0277911700999992000012020003+21480-158030FM-15+0255PHHI V02099999999990054019N0048281N1+01801+01501101671ADDGD13991+0054019GD24991+0090019GF108991999999999999999999GP10060006802008000002015006802008GQ100600629912829GR100600642914139MA1101731999999MW1801REMMET085PHHI 201955Z VRB02KT 3SM -SHRA BKN018 OVC030 18/15 A3004 RMK SLP167 8/5// 9/8// WR//;EQDQ01+000003PRSWM1Q02    003PRSWM1
0054911700999992000012209009+21483-158033NSRDB+025299999V020999999999999999999999999999+99999+99999999999ADDGP10060000002000000002000000002000GR100600000900009
0256911700999992000012418003+21480-158030FM-15+0255PHHI V02099999999992200019N0112651N1+01301+01001999999ADDAA172000891GD12991+0150019GF102991999999999999999999GP10060001902008016002015001002008GQ100600853911289GR100600090910949MA1101961999999MW1001REMMET084PHHI 241755Z VRB03KT 7SM FEW055 13/10 A3011 RMK SLPNO 70003 E72HR 8/500 9/200 5////;EQDQ01+000000PRSWM2
0054911700999992000013110009+21483-158033NSRDB+025299999V020999999999999999999999999999+99999+99999999999ADDGP10060000002000000002000000002000GR100600000900009
0054911700999992000020512009+21483-158033NSRDB+025299999V020999999999999999999999999999+99999+99999999999ADDGP10060000002000000002000000002000GR100600000900009
0054911700999992000020713009+21483-158033NSRDB+025299999V020999999999999999999999999999+99999+99999999999ADDGP10060000002000000002000000002000GR100600000900009
0271911700999992000021020003+21480-158030FM-15+0255PHHI V02099999999992200019N0112651N1+02301+01601102051ADDGD12991+0060019GD22991+0090019GF104991999999999999999999GP10060047702008080402015007502008GQ100600601912259GR100600700914059MA1102131999999MW1161REMMET079PHHI 101955Z VRB05KT 7SM VCSH FEW020 SCT030 23/16 A3016 RMK SLP205 8/800 9/400;EQDQ01+000003PRSWM1Q02    003PRSWM1
0054911700999992000021113009+21483-158033NSRDB+025299999V020999999999999999999999999999+99999+99999999999ADDGP10060000002000000002000000002000GR100600000900009
0071911700999992000021322009+21483-158033NSRDB+025299999V020999999999999999999999999999+99999+99999999999ADDGP10060080002008089802015010802008GQ100600397915039GR100601078914039
0252911700999992000021707003+21480-158030FM-15+0255PHHI V02099999999990090019N0096561N1+01901+01601102081ADDGD12991+0054019GD23991+0090019GF107991999999999999999999GP10060000002000000002000000002000GR100600000900009MA1102171999999MW1051REMMET077PHHI 170655Z VRB01KT 6SM HZ FEW018 BKN030 19/16 A3017 RMK SLP208 8/800 9/500;EQDQ01+000003PRSWM1Q02    003PRSWM1
0054911700999992000021814009+21483-158033NSRDB+025299999V020999999999999999999999999999+99999+99999999999ADDGP10060000002000000002000000002000GR100600000900009
0054911700999992000021911009+21483-158033NSRDB+025299999V020999999999999999999999999999+99999+99999999999ADDGP10060000002000000002000000002000GR100600000900009
0235911700999992000022323003+21480-158030FM-15+0255PHHI V0201001N005112200019N0112651N1+02301+01401999999ADDGD12991+0105019GF104991999999999999999999GP10060039602008005402015035002008GQ100600318917289GR100601187913979MA1102201999999MW1001REMMET074PHHI 232256Z 10010KT 060V140 7SM SCT035 23/14 A3018 RMK SLPNO 8/800 9/400;EQDQ01+000000PRSWM2
0269911700999992000022521003+21480-158030FM-15+0255PHHI V0201101N006210750019N0112651N1+02401+01401999999ADDGD12991+0120019GD23991+0750019GF107991999999999999999999GP10060063502008051302015027302008GQ100600452912949GR100600982913969MA1102371999999MD1010031+9999MW1001REMMET079PHHI 252055Z 11012KT 7SM SCT040 BKN250 24/14 A3023 RMK SLPNO 8/801 9/402 50003;EQDQ01+000000PRSWM2
0238911700999992000022922003+21480-158030FM-15+0255PHHI V0201001N007212200019N0112651N1+02401+01401999999ADDGD12991+0105019GF104991999999999999999999GP10060080402008060202015030702008GQ100600345914629GR100601147913939MA1102171999999MW1001OC101081REMMET069PHHI 292155Z 10014G21KT 7SM SCT035 24/14 A3017 RMK SLPNO 8/100 9/300;EQDQ01+000000PRSWM2
0054911700999992000030209009+21483-158033NSRDB+025299999V020999999999999999999999999999+99999+99999999999ADDGP10060000002000000002000000002000GR100600000900009
0198911700999992000030303504+21480-158030FM-15+0255PHHI V0200901N004110090019N0112651N1+02201+01801999999ADDGD12991+0054019GD23991+0090019GF107991999999999999999999MA1102131999999MW1801REMMET074PHHI 030350Z COR 09008KT 7SM -SHRA FEW018 BKN030 22/18 A3016 RMK COR 0352;EQDQ01+000003PRSWM1Q02    003PRSWM1
0071911700999992000030418009+21483-158033NSRDB+025299999V020999999999999999999999999999+99999+99999999999ADDGP10060007902008029102015003602008GQ100600815910019GR100600206913909
0269911700999992000030803003+21480-158030FM-15+0255PHHI V0201001N007212200019N0112651N1+02301+01301999999ADDGD12991+0075019GD22991+0120019GF104991999999999999999999GP10060043602008060102015014902008GQ100600615925159GR100600661913889MA1101931999999MD1610081+9999MW1001REMMET079PHHI 080255Z 10014KT 7SM FEW025 SCT040 23/13 A3010 RMK SLPNO 8/100 9/300 56008;EQDQ01+000000PRSWM2
0284911700999992000031023003+21480-158030FM-15+0255PHHI V0201501N005110120019N0112651N1+02501+01501999999ADDGD12991+0060019GD22991+0090019GD33991+0120019GF107991999999999999999999GP10060019802008001802015018202008GQ100600257917309GR100601249913869MA1101901999999MW1001REMMET093PHHI 102255Z 15010KT 120V220 7SM FEW020 SCT030 BKN040 25/15 A3009 RMK SLPNO FU W 8/100 9/500;EQDQ01+000000PRSWM2
0054911700999992000031313009+21483-158033NSRDB+025299999V020999999999999999999999999999+99999+99999999999ADDGP10060000002000000002000000002000GR100600000900009
0288911700999992000031602003+21480-158030FM-15+0255PHHI V0201001N006210105019N0112651N1+02501+01501999999ADDGD12991+0054019GD23991+0105019GF107991999999999999999999GP10060061302008059602015020902008GQ100600474924599GR100600933913829MA1102001999999MW1161REMMET096PHHI 160155Z 10012KT 060V120 7SM VCSH FEW018 BKN035 25/15 A3012 RMK SLPN0 VIS LWR E 8/800 9/500;EQDQ01+000003PRSWM1Q02    003PRSWM1
0216911700999992000031708003+21480-158030FM-15+0255PHHI V0201801N002612200019N0112651N1+02001+01601102191ADDGD12991+0054019GF102991999999999999999999GP10060000002000000002000000002000GR100600000900009MA1102301999999MW1001REMMET072PHHI 170755Z 18005KT 7SM FEW018 20/16 A3021 RMK SLP219 8/100 9/100 LAST;EQDQ01+000000PRSWM2
0054911700999992000032006009+21483-158033NSRDB+025299999V020999999999999999999999999999+99999+99999999999ADDGP10060000002000000002000000002000GR100600000900009
0304911700999992000032222003+21480-158030FM-15+0255PHHI V0200501N008210150019N0112651N1+02301+01401999999ADDGD12991+0054019GD22991+0090019GD33991+0150019GF107991999999999999999999GP10060093102008078702015022602008GQ100600266913919GR100601229913769MA1102401999999MW1161REMMET097PHHI 222155Z 05016KT 7SM VCSH SCT018 SCT030 BKN050 23/14 A3024 RMK SLPNO ESTMD ALSTG 8/100 9/500;EQDQ01+000003PRSWM1Q02    003PRSWM1
0054911700999992000032709009+21483-158033NSRDB+025299999V020999999999999999999999999999+99999+99999999999ADDGP10060000002000000002000000002000GR100600000900009
0054911700999992000032715009+21483-158033NSRDB+025299999V020999999999999999999999999999+99999+99999999999ADDGP10060000002000000002000000002000GR100600000900009
0233911700999992000032718464+21480-158030FM-16+0255PHHI V0200701N005110090019N0112651N1+02101+01601999999ADDGD12991+0054019GD23991+0090019GD33991+0420019GD43991+0600019GF107991999999999999999999MA1102241999999MW1801REMMET079PHHI 271846Z 07010KT 020V100 7SM -SHRA FEW018 BKN030 BKN140 BKN200 21/16 A3019;EQDQ01+000003PRSWM1Q02    003PRSWM1
0054911700999992000040308009+21483-158033NSRDB+025299999V020999999999999999999999999999+99999+99999999999ADDGP10060000002000000002000000002000GR100600000900009
0307911700999992000040706003+21480-158030FM-15+0255PHHI V0202001N000512200019N0112651N1+01801+01401101821ADDGD12991+0090019GD22991+0120019GF104991999999999999999999GP10060000002000000002000000002000GR100600000900009KA1999M+02241KA2999N+01801MA1101901999999MD1210101+9999MW1001REMMET108PHHI 070555Z 20001KT 7SM FEW030 SCT040 18/14 A3009 RMK SLP182 ESTMD ALSTG/SLP 8/500 9/300 10224 20180 52010;EQDQ01+000000PRSWM2
0054911700999992000041513009+21483-158033NSRDB+025299999V020999999999999999999999999999+99999+99999999999ADDGP10060000002000000002000000002000GR100600000900009
0054911700999992000041612009+21483-158033NSRDB+025299999V020999999999999999999999999999+99999+99999999999ADDGP10060000002000000002000000002000GR100600000900009
0293911700999992000042020003+21480-158030FM-15+0255PHHI V0200901N007210120019N0112651N1+02201+01501102341ADDGD12991+0087019GD23991+0120019GD33991+0720019GF107991999999999999999999GP10060051802008027002015032402008GQ100600442909529GR100600967913539MA1102441999999MW1161REMMET086PHHI 201956Z 09014KT 7SM VCSH SCT029 BKN040 BKN240 22/15 A3025 RMK SLP234 8/806 9/601;EQDQ01+000003PRSWM1Q02    003PRSWM1
0271911700999992000042505003+21480-158030FM-15+0255PHHI V0200901N004112200019N0112651N1+02101+01601101811ADDGD12991+0054019GD22991+0750019GF104991999999999999999999GP10060003302008016702015001902008GQ100600842928219GR100600121912049MA1101931999999MW1161REMMET079PHHI 250455Z 09008KT 7SM VCSH FEW018 SCT250 21/16 A3010 RMK SLP181 8/101 9/102;EQDQ01+000003PRSWM1Q02    003PRSWM1
0238911700999992000042508003+21480-158030FM-15+0255PHHI V02099999999992200019N0112651N1+02001+01601101971ADDGD12991+0054019GD22991+0120019GF104991999999999999999999GP10060000002000000002000000002000GR100600000900009MA1102101999999MW1001REMMET079PHHI 250755Z VRB05KT 7SM FEW018 SCT040 20/16 A3015 RMK SLP197 8/100 9/300 LAST;EQDQ01+000000PRSWM2
0054911700999992000042609009+21483-158033NSRDB+025299999V020999999999999999999999999999+99999+99999999999ADDGP10060000002000000002000000002000GR100600000900009
0054911700999992000042715009+21483-158033NSRDB+025299999V020999999999999999999999999999+99999+99999999999ADDGP10060000002000000002000000002000GR100600000900009
0367911700999992000042800003+21480-158030FM-15+0255PHHI V02099999999990090019N0112651N1+02201+01501999999ADDAA106000391GD12991+0054019GD22991+0075019GD33991+0090019GF107991999999999999999999GP10060038402008001802015036602008GQ100600162924399GR100601292913489KA1999M+02221KA2999N+02041MA1102201999999MD1810121+9999MW1161REMMET109PHHI 272355Z VRB06KT 7SM VCSH FEW018 SCT025 BKN030 22/15 A3018 RMK SLPNO 60001 8/500 9/700 10222 20204 58012;EQDQ01+000003PRSWM1Q02    003PRSWM1
0203911700999992000050223264+21480-158030FM-16+0255PHHI V0201101N006210075019N0080461N1+02201+01801999999ADDGD12991+0045019GD23991+0075019GD34991+0090019GF108991999999999999999999MA1102031999999MW1801REMMET064PHHI 022326Z 11012KT 5SM -SHRA FEW015 BKN025 OVC030 22/18 A3013;EQDQ01+000003PRSWM1Q02    003PRSWM1
0054911700999992000050314009+21483-158033NSRDB+025299999V020999999999999999999999999999+99999+99999999999ADDGP10060000002000000002000000002000GR100600000900009
0259911700999992000051118254+21480-158030FM-15+0255PHHI V0201201N003610084019N0096561N1+02101+01701999999ADDGD12991+0045019GD22991+0060019GD33991+0084019GD44991+0150019GF108991999999999999999999MA1102201999999MW1101MW2801REMMET099PHHI 111825Z 12007KT 070V150 6SM -SHRA BR FEW015 SCT020 BKN028 OVC055 21/17 A3018 RMK VIS LWR NE-E;EQDQ01+000003PRSWM1Q02    003PRSWM1
0227911700999992000051520003+21480-158030FM-15+0255PHHI V0201201N004112200019N0112651N1+02501+01401999999ADDGD12991+0090019GF102991999999999999999999GP10060073202008082302015011802008GQ100600418908509GR100600994913369MA1102101999999MW1001REMMET066PHHI 151955Z 12008KT 7SM FEW030 25/14 A3015 RMK SLPNO 8/100 9/100;EQDQ01+000000PRSWM2
0255911700999992000051807003+21480-158030FM-15+0255PHHI V02099999999992200019N0112651N1+02101+01701102021ADDGD12991+0063019GD22991+0096019GD32991+0150019GF104991999999999999999999GP10060000002000000002000000002000GR100600000900009MA1102131999999MW1001REMMET081PHHI 180655Z VRB03KT 7SM FEW021 FEW032 SCT050 21/17 A3016 RMK SLP202 8/800 9/300;EQDQ01+000000PRSWM2
0054911700999992000052310009+21483-158033NSRDB+025299999V020999999999999999999999999999+99999+99999999999ADDGP10060000002000000002000000002000GR100600000900009
0054911700999992000052814009+21483-158033NSRDB+025299999V020999999999999999999999999999+99999+99999999999ADDGP10060000002000000002000000002000GR100600000900009
0249911700999992000053022003+21480-158030FM-15+0255PHHI V0200901N006212200019N0112651N1+02601+01301999999ADDGD12991+0060019GD22991+0150019GF104991999999999999999999GP10060097002008083102015016402008GQ100600139908539GR100601287913299MA1101861999999MW1001REMMET073PHHI 302155Z 09012KT 7SM FEW020 SCT050 26/13 A3008 RMK SLPNO 8/500 9/400;EQDQ01+000000PRSWM2
0071911700999992000060506009+21483-158033NSRDB+025299999V020999999999999999999999999999+99999+99999999999ADDGP10060000002008000002015000002008GQ100600890929419GR100600004902329
0386911700999992000060800003+21480-158030FM-15+0255PHHI V0200501N005712200019N0112651N1+02701+01701999999ADDAA106000391GD12991+0054019GD22991+0120019GD32991+0600019GF104991999999999999999999GP10060097202008077902015021502008GQ100600137927919GR100601285913269KA1999M+02721KA2999N+02391MA1101931999999MD1710071+9999MW1161OC100821REMMET120PHHI 072355Z 05011G16KT 020V120 7SM VCSH FEW018 SCT040 SCT200 27/17 A3010 RMK SLPNO 60001 8/800 9/400 10272 20239 57007;EQDQ01+000003PRSWM1Q02    003PRSWM1
0373911700999992000060806003+21480-158030FM-15+0255PHHI V0200601N004110090019N0112651N1+02201+01801101931ADDAA106000391GD12991+0054019GD22991+0075019GD33991+0090019GF107991999999999999999999GP10060000002008000002015000002008GQ100600889929449GR100600005902769KA1999M+02551KA2999N+02201MA1102031999999MD1310101+9999MW1161REMMET115PHHI 080555Z 06008KT 7SM VCSH FEW018 SCT025 BKN030 22/18 A3013 RMK SLP193 60001 8/800 9/700 10255 20220 53010 WR//;EQDQ01+000003PRSWM1Q02    003PRSWM1
0071911700999992000061902009+21483-158033NSRDB+025299999V020999999999999999999999999999+99999+99999999999ADDGP10060071202008070802015017502008GQ100600407928149GR100601001913239
0054911700999992000062115009+21483-158033NSRDB+025299999V020999999999999999999999999999+99999+99999999999ADDGP10060000002000000002000000002000GR100600000900009
0071911700999992000062505009+21483-158033NSRDB+025299999V020999999999999999999999999999+99999+99999999999ADDGP10060014502008018302015011502008GQ100600805929169GR100600218913229
0323911700999992000063003003+21480-158290FM-15+0255PHHI V0200801N006212200019N0112651N1+02601+01601999999ADDGD12991+0060019GD22991+0120019GD32991+0600019GF102991999999999999999999GP10060052402008062002015015802008GQ100600538928379GR100600779913219MA1101591999999MD1710031+9999MW1001OC100981REMMET110PHHI 300255Z COR 08012G19KT 020V150 7SM FEW020 FEW040 FEW200 26/16 A3000 RMK SLPNO 8/108 9/101 57003 COR 1704;EQDQ01+000000PRSWM2
0054911700999992000063012009+21483-158033NSRDB+025299999V020999999999999999999999999999+99999+99999999999ADDGP10060000002000000002000000002000GR100600000900009
0071911700999992000070206009+21483-158033NSRDB+025299999V020999999999999999999999999999+99999+99999999999ADDGP10060000002008000002015000002008GQ100600884929439GR100600011903859
0324911700999992000070318003+21480-158290FM-15+0255PHHI V0202701N006212200019N0112651N1+02301+01701999999ADDAA172005191GD12991+0054019GD22991+0090019GF104991999999999999999999GP10060022002008027702015012502008GQ100600700907249GR100600451913219MA1102031999999MW1161OC101081REMMET113PHHI 031755Z 27012G21KT 110V280 7SM VCSH FEW018 SCT030 23/17 A3013 RMK SLPNO 6//// 70020 E72HR 8/100 9/400 5////;EQDQ01+000003PRSWM1Q02    003PRSWM1
0054911700999992000070512009+21483-158033NSRDB+025299999V020999999999999999999999999999+99999+99999999999ADDGP10060000002000000002000000002000GR100600000900009
0054911700999992000070909009+21483-158033NSRDB+025299999V020999999999999999999999999999+99999+99999999999ADDGP10060000002000000002000000002000GR100600000900009
0351911700999992000071106003+21480-158290FM-15+0255PHHI V02099999999992200019N0112651N1+02201+01801101691ADDGD12991+0054019GD22991+0090019GD32991+0750019GF104991999999999999999999GP10060000002008000002015000002008GQ100600884929339GR100600010903639KA1999M+02581KA2999N+02191MA1101801999999MD1310121+9999MW1161REMMET104PHHI 110555Z VRB03KT 7SM VCSH FEW018 FEW030 SCT250 22/18 A3006 RMK SLP169 8/102 9/201 10258 20219 53012;EQDQ01+000003PRSWM1Q02    003PRSWM1
0354911700999992000071122003+21480-158290FM-15+0255PHHI V0200901N006210330019N0112651N1+02801+01801999999ADDGD12991+0054019GD22991+0120019GD33991+0330019GD43991+0600019GF107991999999999999999999GP10060085502008057902015029702008GQ100600157908509GR100601269913229MA1101761999999MW1161OC100821REMMET124PHHI 112155Z 09012G16KT 030V110 7SM VCSH FEW018 SCT040 BKN110 BKN200 28/18 A3005 RMK SLPNO MOD CU NE-E AND W-NW 8/271 9/411;EQDQ01+000003PRSWM1Q02    003PRSWM1
0071911700999992000071517009+21483-158033NSRDB+025299999V020999999999999999999999999999+99999+99999999999ADDGP10060004302008020702015002202008GQ100600838906939GR100600140913119
0054911700999992000071809009+21483-158033NSRDB+025299999V020999999999999999999999999999+99999+99999999999ADDGP10060000002000000002000000002000GR100600000900009
0318911700999992000072101003+21480-158030FM-15+0255PHHI V02099999999990084019N0080461N1+02401+02101999999ADDGD12991+0045019GD22991+0069019GD34991+0084019GF108991999999999999999999GP10060028002008000602015027502008GQ100600260927289GR100601186913239MA1101961999999MW1101MW2801REMMET105PHHI 210057Z VRB04KT 5SM -SHRA BR FEW015 SCT023 OVC028 24/21 A3011 RMK SLPNO VIS SW-W 4 8/5// 9/8// WR//;EQDQ01+000003PRSWM1Q02    003PRSWM1
0376911700999992000072906003+21480-158030FM-15+0255PHHI V0200701N004610105019N0112651N1+02401+01901101811ADDAA106000021GD12991+0054019GD22991+0084019GD33991+0105019GF107991999999999999999999GP10060000002008000002015000002008GQ100600889928989GR100600005902549KA1999M+02821KA2999N+02431MA1101931999999MD1310101+9999MW1161REMMET118PHHI 290558Z 07009KT 350V080 7SM VCSH FEW018 SCT028 BKN035 24/19 A3010 RMK SLP181 60000 8/800 9/700 10282 20243 53010;EQDQ01+000003PRSWM1Q02    003PRSWM1
0054911700999992000072910009+21483-158033NSRDB+025299999V020999999999999999999999999999+99999+99999999999ADDGP10060000002000000002000000002000GR100600000900009
0054911700999992000073112009+21483-158033NSRDB+025299999V020999999999999999999999999999+99999+99999999999ADDGP10060000002000000002000000002000GR100600000900009
0238911700999992000073116003+21480-158030FM-15+0255PHHI V0202701N003110051019N0112651N1+02101+01901999999ADDGD13991+0051019GD23991+0069019GF107991999999999999999999GP10060000002000000002000000002000GR100600000900009MA1101631999999MW1001REMMET079PHHI 311555Z 27006KT 7SM BKN017 BKN023 21/19 A3001 RMK SLPNO 8/500 9/700 FIRST;EQDQ01+000000PRSWM2
0071911700999992000080620009+21483-158033NSRDB+025299999V020999999999999999999999999999+99999+99999999999ADDGP10060062202008057502015021302008GQ100600445908819GR100600944913289
0071911700999992000081303009+21483-158033NSRDB+025299999V020999999999999999999999999999+99999+99999999999ADDGP10060054602008062402015019302008GQ100600555927339GR100600752913319
0054911700999992000081714009+21483-158033NSRDB+025299999V020999999999999999999999999999+99999+99999999999ADDGP10060000002000000002000000002000GR100600000900009
0054911700999992000081811009+21483-158033NSRDB+025299999V020999999999999999999999999999+99999+99999999999ADDGP10060000002000000002000000002000GR100600000900009
0356911700999992000082206003+21480-158030FM-15+0255PHHI V0200801N00261010501CN0112651N1+02401+02001101741ADDGD12991+0051019GD22991+0075019GD32991+0105019GD43991+0750019GF107991999999999999999999GP10060000002000000002000000002000GR100600000900009KA1999M+02731KA2999N+02411MA1101861999999MD1210151+9999MW1161REMMET111PHHI 220555Z 08005KT 7SM VCSH FEW017 FEW025 SCT035 BKN250 24/20 A3008 RMK SLP174 8/501 9/402 10273 20241 52015;EQDQ01+000003PRSWM1Q02    003PRSWM1
0054911700999992000082707009+21483-158033NSRDB+025299999V020999999999999999999999999999+99999+99999999999ADDGP10060000002000000002000000002000GR100600000900009
0334911700999992000083006003+21480-158030FM-15+0255PHHI V02099999999990750019N0112651N1+02401+02001101441ADDGD12991+0054019GD22991+0120019GD33991+0750019GF107991999999999999999999GP10060000002000000002000000002000GR100600000900009KA1999M+02811KA2999N+02411MA1101561999999MD1210121+9999MW1161REMMET104PHHI 300555Z VRB03KT 7SM VCSH FEW018 FEW040 BKN250 24/20 A2999 RMK SLP144 8/108 9/204 10281 20241 52012;EQDQ01+000003PRSWM1Q02    003PRSWM1
0054911700999992000083010009+21483-158033NSRDB+025299999V020999999999999999999999999999+99999+99999999999ADDGP10060000002000000002000000002000GR100600000900009
0356911700999992000090106003+21480-158030FM-15+0255PHHI V0209999999999009001CN0112651N1+02401+01901101561ADDGD12991+0057019GD22991+0081019GD32991+0090019GD43991+0300019GF107991999999999999999999GP10060000002000000002000000002000GR100600000900009KA1999M+02721KA2999N+02371MA1101691999999MD1210191+9999MW1161REMMET111PHHI 010557Z VRB02KT 7SM VCSH FEW019 FEW027 SCT030 BKN100 24/19 A3003 RMK SLP156 8/170 9/320 10272 20237 52019;EQDQ01+000003PRSWM1Q02    003PRSWM1
0054911700999992000090406009+21483-158033NSRDB+025299999V020999999999999999999999999999+99999+99999999999ADDGP10060000002000000002000000002000GR100600000900009
0300911700999992000090523003+21480-158030FM-15+0255PHHI V0201201N003610090019N0112651N1+02801+02101999999ADDGD12991+0060019GD23991+0090019GD33991+0600019GF107991999999999999999999GP10060035102008003002015032202008GQ100600156917959GR100601295913459MA1101521999999MW1161REMMET093PHHI 052256Z 12007KT 100V160 7SM VCSH FEW020 BKN030 BKN200 28/21 A2998 RMK SLPNO 8/802 9/502;EQDQ01+000003PRSWM1Q02    003PRSWM1
0233911700999992000090907003+21480-158030FM-15+0255PHHI V02099999999992200019N0112651N1+02401+01901101571ADDGD12991+0054019GD22991+0072019GF102991999999999999999999GP10060000002000000002000000002000GR100600000900009MA1101731999999MW1001REMMET074PHHI 090655Z VRB04KT 7SM FEW018 FEW024 24/19 A3004 RMK SLP157 8/800 9/200;EQDQ01+000000PRSWM2
0054911700999992000090911009+21483-158033NSRDB+025299999V020999999999999999999999999999+99999+99999999999ADDGP10060000002000000002000000002000GR100600000900009
0312911700999992000091421003+21480-158030FM-15+0255PHHI V02099999999992200019N0112651N1+02701+01901999999ADDGD12991+0054019GD22991+0075019GD32991+0099019GF104991999999999999999999GP10060053002008019002015037202008GQ100600340911929GR100601118913519MA1101761999999MD1010001+9999MW1161REMMET091PHHI 142055Z VRB06KT 7SM VCSH FEW018 FEW025 SCT033 27/19 A3005 RMK SLPNO 8/800 9/400 50000;EQDQ01+000003PRSWM1Q02    003PRSWM1
0271911700999992000092122003+21480-158030FM-15+0255PHHI V02099999999990750019N0112651N1+02801+01701999999ADDGD12991+0060019GD22991+0120019GD33991+0750019GF107991999999999999999999GP10060049602008011902015038802008GQ100600253914669GR100601226913579MA1101661999999MW1001REMMET080PHHI 212155Z VRB04KT 7SM FEW020 SCT040 BKN250 28/17 A3002 RMK SLPNO 8/801 9/401;EQDQ01+000000PRSWM2
0071911700999992000092304009+21483-158033NSRDB+025299999V020999999999999999999999999999+99999+99999999999ADDGP10060020802008049702015009902008GQ100600773926479GR100600297913579
0054911700999992000092307009+21483-158033NSRDB+025299999V020999999999999999999999999999+99999+99999999999ADDGP10060000002000000002000000002000GR100600000900009
0054911700999992000092709009+21483-158033NSRDB+025299999V020999999999999999999999999999+99999+99999999999ADDGP10060000002000000002000000002000GR100600000900009
0332911700999992000092816003+21480-158030FM-15+0255PHHI V0200701N000510090019N0080461N1+02301+02301101541ADDGD12991+0042019GD22991+0072019GD33991+0090019GD44991+0300019GF108991999999999999999999GP10060000002000000002000000002000GR100600000900009MA1101661999999MW1101MW2801REMMET121PHHI 281555Z COR 07001KT 5SM -SHRA BR FEW014 SCT024 BKN030 OVC100 23/23 A3002 RMK SLP154 8/87/ 9/62/ WR// FIRST COR 0611;EQDQ01+000003PRSWM1Q02    003PRSWM1
0224911700999992000092816234+21480-158030FM-16+0255PHHI V0200701N001010180019N0112651N1+02301+02301999999ADDGD12991+0054019GD22991+0072019GD33991+0180019GD44991+0300019GF108991999999999999999999MA1101731999999MW1161REMMET070PHHI 281623Z 07002KT 7SM VCSH FEW018 SCT024 BKN065 OVC100 23/23 A3004;EQDQ01+000003PRSWM1Q02    003PRSWM1
0244911700999992000092900334+21480-158030FM-16+0255PHHI V0201801N004610060019N0112651N1+02401+02301999999ADDGD12991+0024019GD22991+0045019GD33991+0060019GD44991+0120019GF108991999999999999999999MA1101661999999MW1801REMMET090PHHI 290033Z 18009KT 7SM -SHRA FEW008 SCT015 BKN020 OVC040 24/23 A3002 RMK VIS SE-S 1 3/4;EQDQ01+000003PRSWM1Q02    003PRSWM1
0054911700999992000100814009+21483-158033NSRDB+025299999V020999999999999999999999999999+99999+99999999999ADDGP10060000002000000002000000002000GR100600000900009
0054911700999992000100915009+21483-158033NSRDB+025299999V020999999999999999999999999999+99999+99999999999ADDGP10060000002000000002000000002000GR100600000900009
0254911700999992000101101003+21480-158030FM-15+0255PHHI V0200501N005712200019N0112651N1+02701+01801999999ADDGD12991+0060019GD22991+0135019GF102991999999999999999999GP10060066802008062102015021402008GQ100600431923179GR100601001913729MA1101591999999MW1001REMMET078PHHI 110055Z 05011KT 7SM FEW020 FEW045 27/18 A3000 RMK SLPNO 8/100 9/200 WR//;EQDQ01+000000PRSWM2
0054911700999992000101411009+21483-158033NSRDB+025299999V020999999999999999999999999999+99999+99999999999ADDGP10060000002000000002000000002000GR100600000900009
0054911700999992000101412009+21483-158033NSRDB+025299999V020999999999999999999999999999+99999+99999999999ADDGP10060000002000000002000000002000GR100600000900009
0071911700999992000102222009+21483-158033NSRDB+025299999V020999999999999999999999999999+99999+99999999999ADDGP10060053902008018502015038702008GQ100600350916009GR100601131913819
0054911700999992000102814009+21483-158033NSRDB+025299999V020999999999999999999999999999+99999+99999999999ADDGP10060000002000000002000000002000GR100600000900009
0302911700999992000110307003+21480-158030FM-15+0255PHHI V0201701N001510072019N0112651N1+02201+01801101461ADDGD12991+0015019GD22991+0045019GD33991+0072019GD44991+0090019GF108991999999999999999999GP10060000002000000002000000002000GR100600000900009MA1101561999999MW1611REMMET097PHHI 030655Z 17003KT 7SM -RA FEW005 SCT015 BKN024 OVC030 22/18 A2999 RMK SLP146 8/5// 9/8// WR//;EQDQ01+000003PRSWM1Q02    003PRSWM1
0054911700999992000110315009+21483-158033NSRDB+025299999V020999999999999999999999999999+99999+99999999999ADDGP10060000002000000002000000002000GR100600000900009
0054911700999992000110711009+21483-158033NSRDB+025299999V020999999999999999999999999999+99999+99999999999ADDGP10060000002000000002000000002000GR100600000900009
0330911700999992000111721003+21480-158030FM-15+0255PHHI V0200501N005112200019N0112651N1+02501+01701999999ADDAA103000021GD12991+0069019GD22991+0135019GD32991+0750019GF104991999999999999999999GP10060059202008058502015020402008GQ100600485914559GR100600926914009MA1102071999999MD1010001+9999MW1801REMMET098PHHI 172055Z 05010KT 7SM -SHRA FEW023 SCT045 SCT250 25/17 A3014 RMK SLPNO 60000 8/802 9/301 50000;EQDQ01+000003PRSWM1Q02    003PRSWM1
0071911700999992000111923009+21483-158033NSRDB+025299999V020999999999999999999999999999+99999+99999999999ADDGP10060070602008059602015025702008GQ100600415918439GR100601050914019
0054911700999992000112009009+21483-158033NSRDB+025299999V020999999999999999999999999999+99999+99999999999ADDGP10060000002000000002000000002000GR100600000900009
0054911700999992000112214009+21483-158033NSRDB+025299999V020999999999999999999999999999+99999+99999999999ADDGP10060000002000000002000000002000GR100600000900009
0054911700999992000112311009+21483-158033NSRDB+025299999V020999999999999999999999999999+99999+99999999999ADDGP10060000002000000002000000002000GR100600000900009
0071911700999992000112322009+21483-158033NSRDB+025299999V020999999999999999999999999999+99999+99999999999ADDGP10060059502008039402015031002008GQ100600439916359GR100601012914039
0054911700999992000112412009+21483-158033NSRDB+025299999V020999999999999999999999999999+99999+99999999999ADDGP10060000002000000002000000002000GR100600000900009
0181911700999992000112417174+21480-158030FM-16+0255PHHI V02099999999990102019N0112651N1+02001+01801999999ADDGD12991+0051019GD22991+0072019GD33991+0102019GF107991999999999999999999MA1101961999999MW1001REMMET058PHHI 241717Z VRB02KT 7SM FEW017 SCT024 BKN034 20/18 A3011;EQDQ01+000000PRSWM2
0054911700999992000112514009+21483-158033NSRDB+025299999V020999999999999999999999999999+99999+99999999999ADDGP10060000002000000002000000002000GR100600000900009
0291911700999992000113004003+21480-158030FM-15+0255PHHI V0201401N003110093019N0112651N1+02301+01901101601ADDGD12991+0060019GD23991+0093019GD33991+0120019GF107991999999999999999999GP10060002002008018102015000902008GQ100600853924469GR100600090911139MA1101691999999MW1051REMMET084PHHI 300355Z 14006KT 7SM HZ FEW020 BKN031 BKN040 23/19 A3003 RMK SLP160 8/500 9/600;EQDQ01+000003PRSWM1Q02    003PRSWM1
0255911700999992000113005003+21480-158030FM-15+0255PHHI V02099999999990096019N0112651N1+02201+01901101651ADDGD12991+0060019GD22991+0075019GD33991+0096019GF107991999999999999999999GP10060000002000000002000000002000GR100600000900009MA1101731999999MW1001REMMET081PHHI 300455Z VRB02KT 7SM FEW020 SCT025 BKN032 22/19 A3004 RMK SLP165 8/500 9/600;EQDQ01+000000PRSWM2
0054911700999992000113014009+21483-158033NSRDB+025299999V020999999999999999999999999999+99999+99999999999ADDGP10060000002000000002000000002000GR100600000900009
0054911700999992000120307009+21483-158033NSRDB+025299999V020999999999999999999999999999+99999+99999999999ADDGP10060000002000000002000000002000GR100600000900009
0316911700999992000120819003+21480-158030FM-15+0255PHHI V0209999999999010501CN0112651N1+02201+02001101811ADDGD12991+0045019GD22991+0069019GD32991+0105019GD43991+0210019GF107991999999999999999999GP10060026302008073202015003902008GQ100600722912449GR100600430914109MA1101901999999MW1801REMMET094PHHI 081855Z VRB01KT 7SM -SHRA FEW015 FEW023 SCT035 BKN070 22/20 A3009 RMK SLP181 8/870 9/320;EQDQ01+000003PRSWM1Q02    003PRSWM1
0214911700999992000121118003+21480-158030FM-15+0255PHHI V02099999999992200019N0112651N1+01901+01801999999ADDGF100991999999999999999999GP10060003502008013402015002202008GQ100600843911759GR100600136913769MA1101691999999MW1001REMMET068PHHI 111755Z VRB02KT 7SM SKC 19/18 A3003 RMK SLPNO 6/// 70003 E72HR;EQDQ01+000000PRSWM2
0054911700999992000121611009+21483-158033NSRDB+025299999V020999999999999999999999999999+99999+99999999999ADDGP10060000002000000002000000002000GR100600000900009
0255911700999992000121818003+21480-158030FM-15+0255PHHI V0200101N001012200019N0112651N1+01801+01601999999ADDGD12991+0060019GD22991+0180019GF102991999999999999999999GP10060003802008033702015001002008GQ100600847911779GR100600118912849MA1101761999999MW1001REMMET079PHHI 181755Z 01002KT 7SM FEW020 FEW065 18/16 A3005 RMK SLPNO 6//// 8/800 9/200;EQDQ01+000000PRSWM2
0378911700999992000122018003+21480-158030FM-15+0255PHHI V0200301N003610075019N0096561N1+02101+02101999999ADDGD12991+0030019GD22991+0045019GD33991+0075019GD43991+0120019GF107991999999999999999999GP10060002702008012602015001702008GQ100600848911779GR100600113912609MA1102031999999MW1101MW2801REMMET150PHHI 201755Z COR 03007KT 310V080 6SM -SHRA BR FEW010 SCT015 BKN025 BKN040 21/21 A3013 RMK VIS E 3 W 2 1/2 SLPNO 6//// 70009 8/600 9/700 WR// COR 1846;EQDQ01+000003PRSWM1Q02    003PRSWM1
0468911760225192000010503003+21450-157783FM-15+0003NGF  V0200505N003650096019N0112005N1+02405+01905101825ADDGD19999+0072019GD23991+0096019GD33991+0150019GF107991999999999999999999GP10060029702008062602015010302008GQ100600721923569GR100600435914159MA1101865999999MD1310011+9999MW1001REMMET091PHNG 050256Z 05007KT 7SM SCT024 BKN032 BKN050 24/19 A3008 RMK SLP182 8/800 T02390194 53001;EQDQ01+000000PRSWM2N01 00999JALM1 3N02 00000JPWTH 0P01     03SCCGD1QNNAA1D0 00999BA1 3 00999KA1D0 00066JA1 0 00190LA1 0 00700CA1 0 03008NA1 0 00000QA1 0 10182SA1D0 00075RA1 0 00240YA1 0 05007
0377911760225192000010701003+21450-157783FM-15+0003NGF  V0200805N00415220005MN0112005N1+02505+01805101945ADDGD12995+0076259GF104991999999999999999999GP10060055902008057902015020102008GQ100600520921369GR100600871914159MA1101965999999MW1001REMMET065PHNG 070056Z 08008KT 7SM SCT025 25/18 A3011 RMK SLP194 T02500178;EQDQ01+000000PRSWM2N01 00000JPWTH 0QNNAA1D0 02025BA1 0 02025GA1U0 99999KA1D0 00064JA1 0 00180LA1 0 00700CA1 0 03011NA1 0 00000QA1 0 10194SA1D0 00077RA1 0 00250YA1 0 08008
0071911760225192000010905009+21450-157783NSRDB+000399999V020999999999999999999999999999+99999+99999999999ADDGP10060000002008000002015000002008GQ100600897924619GR100600000900839
0213911760225192000010909596+21450-157767SOD  +0005PHNG V020999999999999999999999999999+99999+99999999999ADDOE11249999999999997OE22249999999999997REMSOD163HOURLY INCREMENTAL PRECIPITATION VALUES (IN):.00  .00  .00  .00  .00  .00  .00  .00  .00  .00  .00  .00  .00  .00  .00  .00  .00  .00  .00  .00  .00  .00  .00  .00
0525911760225192000011901003+21450-157783FM-15+0003NGF  V0200805N00575015245MN0080005N1+02205+01605101535ADDAA101000591GD12995+0112859GD23995+0152459GD33995+0213459GF107991999999999999999999GP10060012202008000002015012202008GQ100600497921399GR100600913914139MA1101565999999MW1101MW2805OC100871REMMET098PHNG 190056Z 08011G17KT 5SM -SHRA BR SCT037 BKN050 BKN075 22/ 16 A2999 RMK SLP153 P0002 T02220156;EQDQ01+000003PRSWM1Q02    003PRSWM1N01 00023JPWTH 0QNNAA1D0 02037BA1 0 02037AA1D0 04050BA1 0 04050AA1D0 04070BA1 0 04070GA1 0 00050KA1D0 00061JA1 0 00160LA1 0 00500CA1 0 02999NA1 0 00023QA1 0 10153SA1D0 00072RA1 0 00220YA1 0 08011
0415911760225192000012110003+21450-157783FM-15+0003NGF  V0200605N00525008535MN0112005N1+02205+01705101665ADDGD13995+0085359GD24995+0152459GF108991999999999999999999GP10060000002000000002000000002000GR100600000900009MA1101695999999MW1001OC100821REMMET075PHNG 210956Z 06010G16KT 7SM BKN028 OVC050 22/17 A3003 RMK SLP166 T02170167;EQDQ01+000000PRSWM2N01 00000JPWTH 0QNNAA1D0 04028BA1 0 04028AA1D0 06050BA1 0 06050GA1 0 00028KA1D0 00063JA1 0 00170LA1 0 00700CA1 0 03003NA1 0 00000QA1 0 10166SA1D0 00072RA1 0 00220YA1 0 06010
0468911760225192000012506003+21450-157783FM-15+0003NGF  V0200905N00155018295MN0112005N1+02105+01405101835ADDGD12995+0121959GD23995+0182959GF107991999999999999999999GP10060000002000000002000000002000GR100600000900009KA1999M+02391KA2999N+02061MA1101865999999MD1310161+9999MW1001REMMET096PHNG 250556Z 09003KT 7SM FEW040 BKN060 21/14 A3008 RMK SLP183 8/400 T02110139 10239 20206 53016;EQDQ01+000000PRSWM2N01 00000JPWTH 0QNNAA1D0 02040BA1 0 02040AA1D0 04060BA1 0 04060GA1 0 00060KA1D0 00057JA1 0 00140LA1 0 00700CA1 0 03008NA1 0 00000QA1 0 10183SA1D0 00070RA1 0 00210YA1 0 09003
0428911760225192000012512003+21450-157783FM-15+0003NGF  V0201905N00155012195MN0112005N1+02005+01605999999ADDGD13995+0121959GD23995+0152459GF107991999999999999999999GP10060000002000000002000000002000GR100600000900009KA1999M+02171KA2999N+01001MA1101835999999MW1001REMMET081PHNG 251156Z 19003KT 7SM BKN040 BKN050 20/16 A30078+:S4C3 02000156 10217 20100 5;EQDQ01+000000PRSWM2N01 00000JPWTH 0QNNAA1D0 04040BA1 0 04040AA1D0 04050BA1 0 04050GA1 0 00040KA1D0 00061JA1 0 00160LA1 0 00700CA1 0 03007NA1 0 00000SA1D0 00068RA1 0 00200YA1 0 19003
0440911760225192000013010003+21450-157783FM-15+0003NGF  V0200905N00315011585MN0112005N1+02205+01705102075ADDGD12995+0097559GD23995+0115859GF107991999999999999999999GP10060000002000000002000000002000GR100600000900009KA1999M+02501KA2999N+02111MA1102105999999MW1001REMMET082PHNG 300956Z 09006KT 7SM SCT032 BKN038 22/17 A3015 RMK SLP207 T02220167 402500211;EQDQ01+000000PRSWM2N01 00000JPWTH 0QNNAA1D0 02032BA1 0 02032AA1D0 04038BA1 0 04038GA1 0 00038KA1D0 00063JA1 0 00170LA1 0 00700CA1 0 03015NA1 0 00000QA1 0 10207SA1D0 00072RA1 0 00220YA1 0 09006
0495911760225192000020400003+21450-157783FM-15+0003NGF  V0203605N00215015245MN0112005N1+02605+01805101545ADDGD12995+0112859GD23995+0152459GF107991999999999999999999GP10060070502008050202015031802008GQ100600397919699GR100601083914089KA1999M+02561KA2999N+01891MA1101565999999MD1810231+9999MW1001REMMET106PHNG 032356Z 36004KT 7SM FEW037 BKN050 26/18 A2999 RMK SLP154 8/400 T02560178 10256 20189 58023 AA/BB/CC/;EQDQ01+000000PRSWM2N01 00000JPWTH 0QNNAA1D0 02037BA1 0 02037AA1D0 04050BA1 0 04050GA1 0 00050KA1D0 00064JA1 0 00180LA1 0 00700CA1 0 02999NA1 0 00000QA1 0 10154SA1D0 00079RA1 0 00260YA1 0 36004
0482911760225192000020411003+21450-157783FM-15+0003NGF  V0209999C000052200019N0112005N1+01905+01805101695ADDGF100991999999999999999999GP10060000002000000002000000002000GR100600000900009MA1101735999999MW1001REMMET062PHNG 041056Z 00000KT 7SM SKC 19/18 A3004 RMK SLP169 T01940183;EQDQ01+000000PRSWM2N01 00000JALM1 3N02 09000JALC2D3N03 09000JALM2 3N04 09000JALC3D3N05 09000JALM3 3N06 99999CCLHTU3N07 00000JPWTH 0QNNAA1D0 00000BA1 3 00000AA1D3 09000BA1 3 09000AA1D3 09000BA1 3 09000GA1U3 99999KA1D0 00064JA1 0 00180LA1 0 00700CA1 0 03004NA1 0 00000QA1 0 10169SA1D0 00066RA1 0 00190YA1 0 00000
0377911760225192000020419003+21450-157783FM-15+0003NGF  V0209999C00005220005MN0112005N1+02105+01805101755ADDGD12995+0137259GF104991999999999999999999GP10060017102008018102015011702008GQ100600730911599GR100600412914089MA1101765999999MW1001REMMET065PHNG 041856Z 00000KT 7SM SCT045 21/18 A3005 RMK SLP175 T02110183;EQDQ01+000000PRSWM2N01 00000JPWTH 0QNNAA1D0 02045BA1 0 02045GA1U0 99999KA1D0 00064JA1 0 00180LA1 0 00700CA1 0 03005NA1 0 00000QA1 0 10175SA1D0 00070RA1 0 00210YA1 0 00000
0448911760225192000021813003+21450-157783FM-15+0003NGF  V0200805N00315010675MN0112005N1+02305+01905102105ADDGD12995+0036659GD22995+0067159GD33995+0106759GF107991999999999999999999GP10060000002000000002000000002000GR100600000900009MA1102135999999MW1001REMMET079PHNG 181256Z 08006KT 7SM FEW012 SCT022 BKN035 23/19 A3016 RMK SLP210 T02280194;EQDQ01+000000PRSWM2N01 00000JPWTH 0QNNAA1D0 02012BA1 0 02012AA1D0 02022BA1 0 02022AA1D0 04035BA1 0 04035GA1 0 00035KA1D0 00066JA1 0 00190LA1 0 00700CA1 0 03016NA1 0 00000QA1 0 10210SA1D0 00073RA1 0 00230YA1 0 08006
0377911760225192000022005003+21450-157783FM-15+0003NGF  V0200705N00415220005MN0112005N1+02205+01505102245ADDGD12995+0109759GF104991999999999999999999GP10060000002008000002015000002008GQ100600869925689GR100600037906889MA1102275999999MW1001REMMET065PHNG 200456Z 07008KT 7SM SCT036 22/15 A3020 RMK SLP224 T02220150;EQDQ01+000000PRSWM2N01 00000JPWTH 0QNNAA1D0 02036BA1 0 02036GA1U0 99999KA1D0 00059JA1 0 00150LA1 0 00700CA1 0 03020NA1 0 00000QA1 0 10224SA1D0 00072RA1 0 00220YA1 0 07008
0557911760225192000022206003+21450-157783FM-15+0003NGF  V0200705N00415010675MN0112005N1+02205+01905102095ADDAA101001391AA206001591GD12995+0054959GD22995+0067159GD33995+0106759GF107991999999999999999999GP10060000002000000002000000002000GR100600000900009KA1999M+02611KA2999N+02171MA1102135999999MD1310131+9999MW1001OC100821REMMET118PHNG 220556Z 07008G16KT 7SM FEW018 SCT022 BKN035 22/19 A3016 RMK SLP209 P0005 60006 8/400 T02170194 10261 20217 53013;EQDQ01+000000PRSWM2N01 00000JPWTH 0QNNAA1D0 02018BA1 0 02018AA1D0 02022BA1 0 02022AA1D0 04035BA1 0 04035GA1 0 00035KA1D0 00066JA1 0 00190LA1 0 00700CA1 0 03016NA1 0 00000QA1 0 10209SA1D0 00072RA1 0 00220YA1 0 07008
0421911760225192000030123003+21450-157783FM-15+0003NGF  V0200605N00465010065MN0112005N1+02405+01905102015ADDGD12995+0076259GD23995+0100659GF107991999999999999999999GP10060085902008059402015033802008GQ100600291917339GR100601216913929MA1102035999999MW1001REMMET072PHNG 012256Z 06009KT 7SM SCT025 BKN033 24/19 A3013 RMK SLP201 T02440194;EQDQ01+000000PRSWM2N01 00000JPWTH 0QNNAA1D0 02025BA1 0 02025AA1D0 04033BA1 0 04033GA1 0 00033KA1D0 00066JA1 0 00190LA1 0 00700CA1 0 03013NA1 0 00000QA1 0 10201SA1D0 00075RA1 0 00240YA1 0 06009
0360911760225192000030313003+21450-157783FM-15+0003NGF  V0200905N00525220005MN0112005N1+02305+01905101965ADDGD12995+0076259GF102991999999999999999999GP10060000002000000002000000002000GR100600000900009MA1102005999999MW1001REMMET065PHNG 031256Z 09010KT 7SM FEW025 23/19 A3012 RMK SLP196 T02280194;EQDQ01+000000PRSWM2N01 00000JPWTH 0QNNAA1D0 02025BA1 0 02025GA1U0 99999KA1D0 00066JA1 0 00190LA1 0 00700CA1 0 03012NA1 0 00000QA1 0 10196SA1D0 00073RA1 0 00230YA1 0 09010
0431911760225192000030917003+21450-157783FM-15+0003NGF  V0209999C00005220005MN0112005N1+01805+01705101765ADDGD12995+0073259GD22995+0125059GF104991999999999999999999GP10060000002008000002015000002008GQ100600886909499GR100600008903359MA1101795999999MW1001REMMET082PHNG 091656Z 00000KT 7SM SCT024 SCT041 18/17 A3006 RMK SLP176 T01780167 AA1BB2CC6;EQDQ01+000000PRSWM2N01 00000JPWTH 0QNNAA1D0 02024BA1 0 02024AA1D0 02041BA1 0 02041GA1U0 99999KA1D0 00063JA1 0 00170LA1 0 00700CA1 0 03006NA1 0 00000QA1 0 10176SA1D0 00064RA1 0 00180YA1 0 00000
0403911760225192000031103003+21450-157783FM-15+0003NGF  V0203405N00365220005MN0112005N1+02505+01805101635ADDGD12995+0094559GF102991999999999999999999GP10060046902008061402015017402008GQ100600613925299GR100600664913869MA1101665999999MD1510021+9999MW1001REMMET077PHNG 110256Z 34007KT 7SM FEW030 25/18 A3002 RMK SLP163 8/100 T02500178 55002;EQDQ01+000000PRSWM2N01 00000JPWTH 0QNNAA1D0 02031BA1 0 02031GA1U0 99999KA1D0 00064JA1 0 00180LA1 0 00700CA1 0 03002NA1 0 00000QA1 0 10163SA1D0 00077RA1 0 00250YA1 0 34007
0377911760225192000031119003+21450-157783FM-15+0003NGF  V0200205N00265220005MN0112005N1+02405+01905102035ADDGD12995+0076259GF102991999999999999999999GP10060031902008044002015014102008GQ100600662910419GR100600559913859MA1102075999999MW1001REMMET065PHNG 111856Z 02005KT 7SM FEW025 24/19 A3014 RMK SLP203 T02390189;EQDQ01+000000PRSWM2N01 00000JPWTH 0QNNAA1D0 02025BA1 0 02025GA1U0 99999KA1D0 00066JA1 0 00190LA1 0 00700CA1 0 03014NA1 0 00000QA1 0 10203SA1D0 00075RA1 0 00240YA1 0 02005
0377911760225192000031202003+21450-157783FM-15+0003NGF  V0200305N00265009455MN0112005N1+02605+01805101825ADDGD13995+0094559GF107991999999999999999999GP10060058002008045402015027702008GQ100600482924419GR100600921913859MA1101865999999MW1001REMMET065PHNG 120156Z 03005KT 7SM BKN030 26/18 A3008 RMK SLP182 T02560178;EQDQ01+000000PRSWM2N01 00000JPWTH 0QNNAA1D0 04031BA1 0 04031GA1 0 00031KA1D0 00064JA1 0 00180LA1 0 00700CA1 0 03008NA1 0 00000QA1 0 10182SA1D0 00079RA1 0 00260YA1 0 03005
0447911760225192000031203003+21450-157783FM-15+0003NGF  V0200205N00265220005MN0112005N1+02505+01805101855ADDGD12995+0082359GD22995+0152459GF104991999999999999999999GP10060044402008051602015019502008GQ100600612925339GR100600666913859MA1101905999999MD1310041+9999MW1001REMMET084PHNG 120256Z 02005KT 7SM SCT027 SCT050 25/18 A3009 RMK SLP185 8/400 T02500183 53004;EQDQ01+000000PRSWM2N01 00000JPWTH 0QNNAA1D0 02027BA1 0 02027AA1D0 02050BA1 0 02050GA1U0 99999KA1D0 00064JA1 0 00180LA1 0 00700CA1 0 03009NA1 0 00000QA1 0 10185SA1D0 00077RA1 0 00250YA1 0 02005
0421911760225192000031204003+21450-157783FM-15+0003NGF  V0200405N00215220005MN0112005N1+02405+01805101905ADDGD12995+0082359GD22995+0152459GF104991999999999999999999GP10060019302008019802015014102008GQ100600747926029GR100600364913859MA1101935999999MW1001REMMET072PHNG 120356Z 04004KT 7SM SCT027 SCT050 24/18 A3010 RMK SLP190 T02390183;EQDQ01+000000PRSWM2N01 00000JPWTH 0QNNAA1D0 02027BA1 0 02027AA1D0 02050BA1 0 02050GA1U0 99999KA1D0 00064JA1 0 00180LA1 0 00700CA1 0 03010NA1 0 00000QA1 0 10190SA1D0 00075RA1 0 00240YA1 0 04004
0404911760225192000031308003+21450-157783FM-15+0003NGF  V0200905N00365009455MN0112005N1+02305+01905101985ADDGD12995+0064059GD23995+0094559GF107991999999999999999999GP10060000002000000002000000002000GR100600000900009MA1102005999999MW1001REMMET072PHNG 130756Z 09007KT 7SM SCT021 BKN030 23/19 A3012 RMK SLP198 TO233O194;EQDQ01+000000PRSWM2N01 00000JPWTH 0QNNAA1D0 02021BA1 0 02021AA1D0 04031BA1 0 04031GA1 0 00031KA1D0 00066JA1 0 00190LA1 0 00700CA1 0 03012NA1 0 00000QA1 0 10198SA1D0 00073RA1 0 00230YA1 0 09007
0468911760225192000031406003+21450-157783FM-15+0003NGF  V0201005N00415014025MN0112005N1+02305+01905101795ADDGD12995+0057959GD23995+0140259GF107991999999999999999999GP10060000002000000002000000002000GR100600000900009KA1999M+02671KA2999N+02331MA1101835999999MD1310181+9999MW1001REMMET096PHNG 140556Z 10008KT 7SM FEW019 BKN046 23/19 A3007 RMK SLP179 8/400 TO2330194 10267 20233 53018;EQDQ01+000000PRSWM2N01 00000JPWTH 0QNNAA1D0 02019BA1 0 02019AA1D0 04046BA1 0 04046GA1 0 00046KA1D0 00066JA1 0 00190LA1 0 00700CA1 0 03007NA1 0 00000QA1 0 10179SA1D0 00073RA1 0 00230YA1 0 10008
0468911760225192000031412003+21450-157783FM-15+0003NGF  V0200805N00155220005MN0112005N1+02205+01805101775ADDGD12995+0094559GD22995+0548659GF104991999999999999999999GP10060000002000000002000000002000GR100600000900009KA1999M+02331KA2999N+02111MA1101795999999MD1810101+9999MW1001REMMET096PHNG 141156Z 08003KT 7SM SCT030 SCT180 22/18 A3006 RMK SLP177 8/109 TO2220178 10233 20211 58010;EQDQ01+000000PRSWM2N01 00000JPWTH 0QNNAA1D0 02031BA1 0 02031AA1D0 02180BA1 0 02180GA1U0 99999KA1D0 00064JA1 0 00180LA1 0 00700CA1 0 03006NA1 0 00000QA1 0 10177SA1D0 00072RA1 0 00220YA1 0 08003
0502911760225192000031618003+21450-157783FM-15+0003NGF  V0200705N00465220005MN0112005N1+02305+01805102225ADDAA106000021GD12995+0082359GD22995+0152459GF104991999999999999999999GP10060013502008048902015004002008GQ100600787909609GR100600269913819KA1999M+02331KA2999N+02281MA1102245999999MD1310161+9999MW1001REMMET102PHNG 161756Z 07009KT 7SM FEW027 SCT050 23/18 A3019 RMK SLP222 60000 8/400 T02330178 10233 20228 53016;EQDQ01+000000PRSWM2N01 00000JPWTH 0QNNAA1D0 02027BA1 0 02027AA1D0 02050BA1 0 02050GA1U0 99999KA1D0 00064JA1 0 00180LA1 0 00700CA1 0 03019NA1 0 00000QA1 0 10222SA1D0 00073RA1 0 00230YA1 0 07009
0465911760225192000032622003+21450-157783FM-15+0003NGF  V0201005N00525060965MN0112005N1+02405+01905101915ADDGD12995+0070159GD22995+0106759GD33995+0609659GF107991999999999999999999GP10060063202008023302015042002008GQ100600251913799GR100601242913739MA1101935999999MW1001REMMET079PHNG 262156Z 10010KT 7SM SCT023 SCT035 BKN200 24/19 A3010 RMK SLP191 T02440194;EQDQ01+000000PRSWM2N01 00000JPWTH 0QNNAA1D0 02023BA1 0 02023AA1D0 02035BA1 0 02035AA1D0 04200BA1 0 04200GA1 0 00200KA1D0 00066JA1 0 00190LA1 0 00700CA1 0 03010NA1 0 00000QA1 0 10191SA1D0 00075RA1 0 00240YA1 0 10010
0589911760225192000032912003+21450-157783FM-15+0003NGF  V0200705N00525015245MN0096005N1+02105+01805101685ADDAA101000021AA206000021GD12995+0064059GD22995+0121959GD34995+0152459GF108991999999999999999999GP10060000002000000002000000002000GR100600000900009KA1999M+02281KA2999N+02111MA1101695999999MD1810161+9999MW1101MW2805OC100871REMMET128PHNG 291156Z 07010G17KT 6SM -SHRA BR FEW021 SCT040 OVC050 21/ 18 A3003 RMK SLP168 P0000 60000 8/4// T02110178 10228 20211 58016;EQDQ01+000003PRSWM1Q02    003PRSWM1N01 00023JPWTH 0QNNAA1D0 02021BA1 0 02021AA1D0 02040BA1 0 02040AA1D0 06050BA1 0 06050GA1 0 00050KA1D0 00064JA1 0 00180LA1 0 00600CA1 0 03003NA1 0 00023QA1 0 10168SA1D0 00070RA1 0 00210YA1 0 07010
0431911760225192000033001003+21450-157783FM-15+0003NGF  V0200905N00415220005MN0112005N1+02405+01805101385ADDGD12995+0085359GD22995+0137259GF104991999999999999999999GP10060080702008056702015033002008GQ100600330924119GR100601148913719MA1101425999999MW1001OC100771REMMET074PHNG 300056Z 09008G15KT 7SM SCT028 SCT045 24/18 A2995 RMK SLP138 T0244B8 ;EQDQ01+000000PRSWM2N01 00000JPWTH 0QNNAA1D0 02028BA1 0 02028AA1D0 02045BA1 0 02045GA1U0 99999KA1D0 00064JA1 0 00180LA1 0 00700CA1 0 02995NA1 0 00000QA1 0 10138SA1D0 00075RA1 0 00240YA1 0 09008
0476911760225192000040214003+21450-157783FM-15+0003NGF  V0200505N00725007625MN0112005N1+02205+01905101955ADDAA101000391GD12995+0061059GD23995+0076259GD34995+0182959GF108991999999999999999999GP10060000002000000002000000002000GR100600000900009MA1102005999999MW1001OC100981REMMET088PHNG 021356Z 05014G19KT 7SM SCT020 BKN025 OVC060 22/19 A3012 RMK SLP195 P0001 T02170194;EQDQ01+000000PRSWM2N01 00000JPWTH 0QNNAA1D0 02020BA1 0 02020AA1D0 04025BA1 0 04025AA1D0 06060BA1 0 06060GA1 0 00025KA1D0 00066JA1 0 00190LA1 0 00700CA1 0 03012NA1 0 00000QA1 0 10195SA1D0 00072RA1 0 00220YA1 0 05014
0221911760225192000040412014+21450-157770FM-16+0005PHNG V0201001N007210105019N0096561N1+02201+01701102131ADDGD12991+0084019GD23991+0105019GF107991999999999999999999MA1102171999999MW1811OC101031REMMET073PHNG 041201Z 10014G20KT 6SM SHRA BR SCT028 BKN035 22/17 A3017 RMK SLP213;EQDQ01+000100PRSWM3Q02+000003PRSWM1Q03    003PRSWM1
0439911760225192000040904003+21450-157783FM-15+0003NGF  V0200105N00415010065MN0112005N1+02105+01505101685ADDAA101000021GD13995+0100659GD23995+0125059GF107991999999999999999999GP10060017702008010802015014502008GQ100600726927169GR100600406913629MA1101695999999MW1001REMMET079PHNG 090356Z 01008KT 10SM BKN033 BKN041 21/15 A3003 RMK SLP168 P0000 T02110150;EQDQ01+000000PRSWM2N01 00000JPWTH 0QNNAA1D0 04033BA1 0 04033AA1D0 04041BA1 0 04041GA1 0 00033KA1D0 00059JA1 0 00150LA1 0 00700CA1 0 03003NA1 0 00000QA1 0 10168SA1D0 00070RA1 0 00210YA1 0 01008
0486911760225192000041312003+21450-157783FM-15+0003NGF  V0200605N00465018295MN0112005N1+01905+01705102085ADDAA101000021GD12995+0061059GD23995+0182959GF107991999999999999999999GP10060000002000000002000000002000GR100600000900009KA1999M+02221KA2999N+01941MA1102105999999MD1610091+9999MW1001REMMET103PHNG 131156Z 06009KT 10SM FEW020 BKN060 19/17 A3015 RMK SLP208 P0000 8/400 T01940172 10222 20194 56009;EQDQ01+000000PRSWM2N01 00000JPWTH 0QNNAA1D0 02020BA1 0 02020AA1D0 04060BA1 0 04060GA1 0 00060KA1D0 00063JA1 0 00170LA1 0 00700CA1 0 03015NA1 0 00000QA1 0 10208SA1D0 00066RA1 0 00190YA1 0 06009
0472911760225192000042101003+21450-157783FM-15+0003NGF  V0200605N00575013725MN0112005N1+02305+01805102085ADDGD12995+0094559GD23995+0137259GD34995+0182959GF108991999999999999999999GP10060054102008014602015041502008GQ100600303925619GR100601166913539MA1102105999999MW1001OC100981REMMET078PHNG 210056Z 06011G19KT 7SM FEW030 BKN045 OVC060 23/18 A3015 SLP208 T02330183;EQDQ01+000000PRSWM2N01 00000JPWTH 0QNNAA1D0 02031BA1 0 02031AA1D0 04045BA1 0 04045AA1D0 06060BA1 0 06060GA1 0 00045KA1D0 00064JA1 0 00180LA1 0 00700CA1 0 03015NA1 0 00000QA1 0 10208SA1D0 00073RA1 0 00230YA1 0 06011
0444911760225192000042211003+21450-157783FM-15+0003NGF  V0200905N00415010675MN0112005N1+02305+01805101995ADDGD12995+0076259GD23995+0106759GD33995+0152459GF107991999999999999999999GP10060000002000000002000000002000GR100600000900009MA1102035999999MW1001REMMET075PHNG 221056Z 09008KT 7SM SCT025 BKN035 BKN050 23/18 A3013 SLP199 T02280178;EQDQ01+000000PRSWM2N01 00000JPWTH 0QNNAA1D0 02025BA1 0 02025AA1D0 04035BA1 0 04035AA1D0 04050BA1 0 04050GA1 0 00035KA1D0 00064JA1 0 00180LA1 0 00700CA1 0 03013NA1 0 00000QA1 0 10199SA1D0 00073RA1 0 00230YA1 0 09008
0255911760225192000042318003+21450-157770FM-15+0005PHNG V0200801N005110600019N0112651N1+02301+01801101981ADDAA106001391GD12991+0084019GD23991+0600019GF107991999999999999999999GP10060019802008021402015013002008GQ100600714908329GR100600430913519MA1102001999999MW1001REMMET068PHNG 231756Z 08010KT 7SM SCT028 BKN200 23/18 A3012 SLP198 60005 87C;EQDQ01+000000PRSWM2
0071911760225192000042321009+21450-157783NSRDB+000399999V020999999999999999999999999999+99999+99999999999ADDGP10060073902008050402015030102008GQ100600297910229GR100601170913519
0498911760225192000042716003+21450-157783FM-15+0003NGF  V0200805N00625015245MN0112005N1+02205+01905101995ADDAA101000021GD12995+0057959GD22995+0076259GD33995+0152459GD43991+0720019GF107991999999999999999999GP10060000002000000002000000002000GR100600000900009MA1102035999999MW1001OC100871REMMET095PHNG 271556Z 08012G17KT 7SM SCT019 SCT025 BKN050 BKN240 22/19 A3013 RMK SLP199 P0000 T02220189;EQDQ01+000000PRSWM2N01 00000JPWTH 0QNNAA1D0 02019BA1 0 02019AA1D0 02025BA1 0 02025AA1D0 04050BA1 0 04050GA1 0 00050KA1D0 00066JA1 0 00190LA1 0 00700CA1 0 03013NA1 0 00000QA1 0 10199SA1D0 00072RA1 0 00220YA1 0 08012
0350911760225192000042913003+21450-157783FM-15+0003NGF  V0209999999999220005MN0112005N1+02205+01805101795ADDGD12995+0064059GF104991999999999999999999GP10060000002000000002000000002000GR100600000900009MA1101835999999MW1001REMMET066PHNG 291256Z VRB06KT 10SM SCT021 22/18 A3007 RMK SLP179 T02200180;EQDQ01+000000PRSWM2N01 00000JPWTH 0QNNAA1D0 02021BA1 0 02021GA1U0 99999KA1D0 00064JA1 0 00180LA1 0 00700CA1 0 03007NA1 0 00000QA1 0 10179SA1D0 00072RA1 0 00220
0421911760225192000042922003+21450-157783FM-15+0003NGF  V0200605N00575010065MN0112005N1+02505+01805101895ADDGD12995+0079259GD23995+0100659GF107991999999999999999999GP10060078902008041802015038502008GQ100600155911509GR100601295913479MA1101935999999MW1001REMMET072PHNG 292156Z 06011KT 7SM SCT026 BKN033 25/18 A3010 RMK SLP189 T02500180;EQDQ01+000000PRSWM2N01 00000JPWTH 0QNNAA1D0 02026BA1 0 02026AA1D0 04033BA1 0 04033GA1 0 00033KA1D0 00064JA1 0 00180LA1 0 00700CA1 0 03010NA1 0 00000QA1 0 10189SA1D0 00077RA1 0 00250YA1 0 06011
0213911760225192000043009596+21450-157767SOD  +0005PHNG V020999999999999999999999999999+99999+99999999999ADDOE11249999999999997OE22249999999999997REMSOD163HOURLY INCREMENTAL PRECIPITATION VALUES (IN):.00  .00  .00  .00  .00  .00  .00  .00  .00  .00  .00  .00  .00  .00  .00  .00  .00  .00  .00  .00  .00  .00  .00  .00
0466911760225192000050601003+21450-157783FM-15+0003NGF  V0200605N00465220005MN0112005N1+02505+01905101845ADDGD12995+0061059GD22995+0131159GD32995+0152459GF104991999999999999999999GP10060081102008059102015029502008GQ100600293926559GR100601168913429MA1101865999999MW1001REMMET080PHNG 060056Z 06009KT 10SM FEW020 FEW043 SCT055 25/19 A3008 RMK SLP184 T02500194;EQDQ01+000000PRSWM2N01 00000JPWTH 0QNNAA1D0 02020BA1 0 02020AA1D0 02043BA1 0 02043AA1D0 02050BA1 0 02050GA1U0 99999KA1D0 00066JA1 0 00190LA1 0 00700CA1 0 03008NA1 0 00000QA1 0 10184SA1D0 00077RA1 0 00250YA1 0 06009
0431911760225192000050615003+21450-157783FM-15+0003NGF  V0200805N00415220005MN0112005N1+02205+01905101845ADDGD12995+0061059GD22995+0121959GF102991999999999999999999GP10060000002000000002000000002000GR100600000900009MA1101865999999MD1510051+9999MW1001REMMET085PHNG 061456Z 08008KT 10SM FEW020 FEW040 22/19 A3008 RMK SLP184 8/100 T02220189 55005;EQDQ01+000000PRSWM2N01 00000JPWTH 0QNNAA1D0 02020BA1 0 02020AA1D0 02040BA1 0 02040GA1U0 99999KA1D0 00066JA1 0 00190LA1 0 00700CA1 0 03008NA1 0 00000QA1 0 10184SA1D0 00072RA1 0 00220YA1 0 08008
0250911760225192000051212564+21450-157770FM-15+0005PHNG V0200801N004610123019N0112651N1+02301+02001101831ADDAA101000391GD12991+0060019GD23991+0123019GD34991+0150019GF108991999999999999999999MA1101861999999MW1611OC100821REMMET092PHNG 121256Z 08009G16KT 7SM -RA SCT020 BKN041 OVC050 23/20 A3008 RMK SLP183 P0001 T02330200;EQDQ01+000003PRSWM1Q02    003PRSWM1
0387911760225192000051815003+21450-157783FM-15+0003NGF  V0200905N00155220005MN0112005N1+02205+01805101845ADDGD12995+0076259GF104991999999999999999999GP10060000002000000002000000002000GR100600000900009MA1101865999999MD1510031+9999MW1001REMMET078PHNG 181456Z 09003KT 10SM SCT025 22/18 A3008 RMK SLP184 8/100 T02220183 55003;EQDQ01+000000PRSWM2N01 00000JPWTH 0QNNAA1D0 02025BA1 0 02025GA1U0 99999KA1D0 00064JA1 0 00180LA1 0 00700CA1 0 03008NA1 0 00000QA1 0 10184SA1D0 00072RA1 0 00220YA1 0 09003
0377911760225192000051823003+21450-157783FM-15+0003NGF  V0201105N00575220005MN0112005N1+02705+01805101925ADDGD12995+0094559GF102991999999999999999999GP10060097002008070302015026702008GQ100600041918639GR100601331913359MA1101965999999MW1001REMMET065PHNG 182256Z 11011KT 7SM FEW030 27/18 A3011 RMK SLP192 T02670183;EQDQ01+000000PRSWM2N01 00000JPWTH 0QNNAA1D0 02031BA1 0 02031GA1U0 99999KA1D0 00064JA1 0 00180LA1 0 00700CA1 0 03011NA1 0 00000QA1 0 10192SA1D0 00081RA1 0 00270YA1 0 11011
0448911760225192000052021003+21450-157783FM-15+0003NGF  V0200505N00575220005MN0112005N1+02605+01905102135ADDGD12995+0085359GD22995+0137259GF104991999999999999999999GP10060080502008061202015026202008GQ100600275908739GR100601180913349MA1102175999999MD1010051+9999MW1001REMMET085PHNG 202056Z 05011KT 10SM SCT028 SCT045 26/19 A3017 RMK SLP213 8/100 T02610189 50005;EQDQ01+000000PRSWM2N01 00000JPWTH 0QNNAA1D0 02028BA1 0 02028AA1D0 02045BA1 0 02045GA1U0 99999KA1D0 00066JA1 0 00190LA1 0 00700CA1 0 03017NA1 0 00000QA1 0 10213SA1D0 00079RA1 0 00260YA1 0 05011
0485911760225192000052106003+21450-157783FM-15+0003NGF  V0201005N00315220005MN0112005N1+02405+01905101985ADDGD12995+0070159GD22995+0082359GF104991999999999999999999GP10060000002008000002015000002008GQ100600897929199GR100600000900789KA1999M+02611KA2999N+02391MA1102005999999MD1310101+9999MW1001REMMET096PHNG 210556Z 10006KT 7SM FEW023 SCT027 24/19 A3012 RMK SLP198 8/100 T02390189 10261 20239 53010;EQDQ01+000000PRSWM2N01 00000JPWTH 0QNNAA1D0 02023BA1 0 02023AA1D0 02027BA1 0 02027GA1U0 99999KA1D0 00066JA1 0 00190LA1 0 00700CA1 0 03012NA1 0 00000QA1 0 10198SA1D0 00075RA1 0 00240YA1 0 10006
0422911760225192000052201003+21450-157783FM-15+0003NGF  V0200605N00365015245MN0112005N1+02605+01905101755ADDGD12995+0076259GD23995+0152459GF107991999999999999999999GP10060086102008073102015021902008GQ100600285927359GR100601168913339MA1101765999999MW1001REMMET073PHNG 220056Z 06007KT 10SM SCT025 BKN055 26/19 A3005 RMK SLP175 T02560194;EQDQ01+000000PRSWM2N01 00000JPWTH 0QNNAA1D0 02025BA1 0 02025AA1D0 04050BA1 0 04050GA1 0 00050KA1D0 00066JA1 0 00190LA1 0 00700CA1 0 03005NA1 0 00000QA1 0 10175SA1D0 00079RA1 0 00260YA1 0 06007
0198911760225192000052802024+21450-157770FM-16+0005PHNG V0200701N003610180019N0112651N1+02601+01801101661ADDGD12991+0075019GD22991+0135019GD33991+0180019GF107991999999999999999999MA1101691999999MW1001REMMET075PHNG 280202Z 07007KT 7SM FEW025 SCT045 BKN060 26/18 A3003 RMK SLP166 8/400;EQDQ01+000000PRSWM2
0435911760225192000060305003+21450-157783FM-15+0003NGF  V0200505N002152200059N0112005N1+02445+01945101565ADDGD11995+0084019GD22995+0096019GF104991999999999999999999GP10060015002008000002015015002008GQ100600820929109GR100600184913289MA1101595101575MW1001REMMET075PHNG 030456Z 05004KT 7SM FEW028 SCT032 24/19 A3000 RMK SLP156 T02440194 NN;EQDQ01+000000PRSWM2N01 00000JPWTH 0QNNE71D0 00299F71 0 00199E71D0 00299F71 0 00299G71U0 99999K71D0 00067J71 0 00194L71 0 00700C71 0 03000M71 0 29995N71 0 00000Q71 0 10156S71D0 00076R71 0 00244X71 0 05004
0426911760225192000060607003+21450-157783FM-15+0003NGF  V0200705N005250121959N0112005N1+02445+01835102025ADDGD12995+0084019GD23995+0120019GF107991999999999999999999GP10060000002000000002000000002000GR100600000900009MA1102035102015MW1001OC100821REMMET075PHNG 060656Z 07010G16KT 7SM SCT028 BKN040 24/18 A3011 RMK SLP202 T02440183;EQDQ01+000000PRSWM2N01 00000JPWTH 0QNNE71D0 00299F71 0 00299E71D0 00499F71 0 00499G71 0 00040K71D0 00065J71 0 00183L71 0 00700C71 0 03013M71 0 30125N71 0 00000Q71 0 10202S71D0 00076R71 0 00244X71 0 07010
0389911760225192000060702003+21450-157783FM-15+0003NGF  V0200605N004652200059N0112005N1+02725+02005101865ADDGD11995+0066019GF102991999999999999999999GP10060070902008071502015017402008GQ100600415928069GR100600990913269MA1101905101855MW1001REMMET066PHNG 070155Z 06009KT 10SM FEW022 27/20 A3009 RMK SLP186 T02720200;EQDQ01+000000PRSWM2N01 00000JPWTH 0QNNE71D0 00299F71 0 00199G71U0 99999K71D0 00068J71 0 00200L71 0 00700C71 0 03009M71 0 30075N71 0 00000Q71 0 10186S71D0 00081R71 0 00272X71 0 06009
0477911760225192000061501003+21450-157783FM-15+0003NGF  V0200805N003650518259N0112005N1+02725+02065101635ADDGD11995+0081019GD22995+0150019GD33995+0510019GF107991999999999999999999GP10060064702008029202015038802008GQ100600274927969GR100601173913249MA1101665101595MW1001REMMET080PHNG 150056Z 08007KT 10SM FEW027 SCT050 BKN170 27/21 A3002 RMK SLP163 T02720206;EQDQ01+000000PRSWM2N01 00000JPWTH 0QNNE71D0 00299F71 0 00199E71D0 00299F71 0 00299E71D0 00499F71 0 00499G71 0 00170K71D0 00069J71 0 00206L71 0 00700C71 0 03002M71 0 30000N71 0 00000Q71 0 10163S71D0 00081R71 0 00272X71 0 08007
0459911760225192000061514003+21450-157783FM-15+0003NGF  V0200805N003650167659N0112005N1+02445+02065101705ADDGD11995+0060019GD22995+0093019GD33995+0150019GF107991999999999999999999GP10060000002000000002000000002000GR100600000900009MA1101735101665MW1001REMMET079PHNG 151356Z 08007KT 7SM FEW020 SCT031 BKN055 24/21 A3004 RMK SLP170 T02440206;EQDQ01+000000PRSWM2N01 00000JPWTH 0QNNE71D0 00299F71 0 00199E71D0 00299F71 0 00299E71D0 00499F71 0 00499G71 0 00055K71D0 00069J71 0 00206L71 0 00700C71 0 03004M71 0 30020N71 0 00000Q71 0 10170S71D0 00076R71 0 00244X71 0 08007
0508911760225192000061621003+21450-157783FM-15+0003NGF  V0200505N004650106759N0112005N1+02505+02115101865ADDAA101000021GD12995+0075019GD23995+0105019GF107991999999999999999999GP10060066902008034402015036502008GQ100600282908029GR100601164913239MA1101905101835MD1010001+9999MW1805OC100871REMMET099PHNG 162056Z 06013G17KT 7SM -SHRA SCT025 BKN035 27/20 A3009 RMK SLP186 P0000 8/400 T02670200 50000;EQDQ01+000003PRSWM1Q02    003PRSWM1N01 00023JPWTH 0QNNE71D0 00299F71 0 00299E71D0 00499F71 0 00499G71 0 00035K71D0 00070J71 0 00211L71 0 00700C71 0 03009M71 0 30070N71 0 00023Q71 0 10186S71D0 00077R71 0 00250X71 0 05009
0213911760225192000061909596+21450-157767SOD  +0005PHNG V020999999999999999999999999999+99999+99999999999ADDOE11249999999999997OE22249999999999997REMSOD163HOURLY INCREMENTAL PRECIPITATION VALUES (IN):.00  .00  .00  .00  .00  .00  .00  .00  .00  .00  .00  .00  .00  .00  .00  .00  .00  .00  .00  .00  .00  .00  .00  .00
0541911760225192000062406003+21450-157783FM-15+0003NGF  V0200805N004150121959N0112005N1+02505+01945101445ADDGD11995+0072019GD23995+0135019GD33995+0180019GF107991999999999999999999GP10060000002008000002015000002008GQ100600886929489GR100600008903429KA1999M+02601KA2999N+02401MA1101465101395MD1310101+9999MW1001REMMET104PHNG 240555Z 08008KT 10SM FEW024 BKN045 BKN060 25/19 A2996 RMK SLP144 8/800 T02500194 10260 20240 53010;EQDQ01+000000PRSWM2N01 00000JPWTH 0QNNE71D0 00299F71 0 00199E71D0 00499F71 0 00499E71D0 00499F71 0 00499G71 0 00040K71D0 00067J71 0 00194L71 0 00700C71 0 02996M71 0 29940N71 0 00000Q71 0 10144S71D0 00077R71 0 00250X71 0 08008
0389911760225192000063002003+21450-157783FM-15+0003NGF  V0200605N004652200059N0112005N1+02785+01895101505ADDGD12995+0096019GF104991999999999999999999GP10060071802008064702015022602008GQ100600404928109GR100601004913219MA1101525101465MW1001REMMET066PHNG 300156Z 06009KT 10SM SCT032 28/19 A2998 RMK SLP150 T02780189;EQDQ01+000000PRSWM2N01 00000JPWTH 0QNNE71D0 00299F71 0 00299G71U0 99999K71D0 00066J71 0 00189L71 0 00700C71 0 02998M71 0 29960N71 0 00000Q71 0 10150S71D0 00082R71 0 00278X71 0 06009
0248911760225192000063023364+21450-157770FM-16+0005PHNG V0200601N007210099019N0096561N1+02601+02201101681ADDGD12991+0054019GD23991+0099019GD34991+0141019GF108991999999999999999999MA1101731999999MW1611OC100931REMMET085PHNG 302336Z 06014G18KT 6SM -RA BR SCT018 BKN033 OVC047 26/22 A3004 RMK SLP168 8/8//;EQDQ01+000100PRSWM3Q02+000003PRSWM1Q03    003PRSWM1
0198911760225192000070120074+21450-157770FM-16+0005PHNG V0200901N003610066019N0112651N1+02401+02201101691ADDGD12991+0051019GD23991+0066019GD33991+0108019GF107991999999999999999999MA1101731999999MW1001REMMET075PHNG 012007Z 09007KT 7SM FEW017 BKN022 BKN036 24/22 A3004 RMK SLP169 8/400;EQDQ01+000000PRSWM2
0519911760225192000071109003+21450-157783FM-15+0003NGF  V0200805N00365009455MN0064005N1+02405+02105101735ADDAA101000591GD12995+0057959GD23995+0094559GD34995+0128059GF108991999999999999999999GP10060000002000000002000000002000GR100600000900009MA1101765999999MD1110081+9999MW1805REMMET109PHNG 110856Z 08007KT 4SM -SHRA FEW019 BKN030 OVC042 24/21 A3005 RMK SLP173 P0002 P0002 8/4// T02400210 51008;EQDQ01+000003PRSWM1Q02    003PRSWM1N01 00023JPWTH 0QNNAA1D0 02019BA1 0 02019AA1D0 04031BA1 0 04031AA1D0 06042BA1 0 06042GA1 0 00031KA1D0 00070JA1 0 00210LA1 0 00400CA1 0 03005NA1 0 00023QA1 0 10173SA1D0 00075RA1 0 00240YA1 0 08007
0476911760225192000071218003+21450-157783FM-15+0003NGF  V0200805N00365060965MN0112005N1+02605+02005101615ADDGD12995+0067159GD23995+0609659GF107991999999999999999999GP10060025802008046102015010402008GQ100600704907349GR100600443913229KA1999M+02611KA2999N+02501MA1101635999999MD1310101+9999MW1001REMMET087PHNG 121756Z 08007KT 10SM SCT022 BKN200 26/20 A3001 RMK SLP161 8/101 10261 20250 53010;EQDQ01+000000PRSWM2N01 00000JPWTH 0QNNAA1D0 02022BA1 0 02022AA1D0 04200BA1 0 04200GA1 0 00200KA1D0 00068JA1 0 00200LA1 0 00700CA1 0 03001NA1 0 00000QA1 0 10161SA1D0 00079RA1 0 00260YA1 0 08007
0071911760225192000071220009+21450-157783NSRDB+000399999V020999999999999999999999999999+99999+99999999999ADDGP10060040902008020002015026302008GQ100600432908049GR100600961913229
0485911760225192000071606003+21450-157783FM-15+0003NGF  V0200705N00415220005MN0112005N1+02505+02005101745ADDGD12995+0073259GD22995+0137259GF104991999999999999999999GP10060000002008000002015000002008GQ100600886929269GR100600008903429KA1999M+02671KA2999N+02501MA1101765999999MD1310111+9999MW1001REMMET096PHNG 160556Z 07008KT 7SM SCT024 SCT045 25/20 A3005 RMK SLP174 8/800 T02500200 10267 20250 53011;EQDQ01+000000PRSWM2N01 00000JPWTH 0QNNAA1D0 02024BA1 0 02024AA1D0 02045BA1 0 02045GA1U0 99999KA1D0 00068JA1 0 00200LA1 0 00700CA1 0 03005NA1 0 00000QA1 0 10174SA1D0 00077RA1 0 00250YA1 0 07008
0071911760225192000072022009+21450-157783NSRDB+000399999V020999999999999999999999999999+99999+99999999999ADDGP10060066902008026302015041602008GQ100600158909089GR100601270913239
0265911760225192000072416003+21450-157770FM-15+0005PHNG V0200701N005110210019N0112651N1+99999+99999101601ADDGD12991+0063019GD22991+0135019GD33991+0210019GF107991999999999999999999GP10060000002000000002000000002000GR100600000900009MA1101661999999MW1001OC100721REMMET083PHNG 241556Z 07010G14KT 7SM FEW021 SCT045 BKN070 244/20 A3002 RMK SLP160 T02440200;EQDQ01+000000PRSWM2
0512911760225192000072612003+21450-157783FM-15+0003NGF  V0200705N00465015245MN0112005N1+02405+02205101625ADDGD12995+0061059GD22995+0085359GD34995+0152459GF108991999999999999999999GP10060000002000000002000000002000GR100600000900009KA1999M+02501KA2999N+02301MA1101665999999MD1810121+9999MW1001REMMET103PHNG 261156Z 07009KT 7SM FEW020 SCT028 OVC050 24/22 A3002 RMK SLP162 8/400 T02400220 10250 20230 58012;EQDQ01+000000PRSWM2N01 00000JPWTH 0QNNAA1D0 02020BA1 0 02020AA1D0 02028BA1 0 02028AA1D0 06050BA1 0 06050GA1 0 00050KA1D0 00072JA1 0 00220LA1 0 00700CA1 0 03002NA1 0 00000QA1 0 10162SA1D0 00075RA1 0 00240YA1 0 07009
0421911760225192000080301003+21450-157783FM-15+0003NGF  V0200605N00525010675MN0112005N1+02805+02105101565ADDGD12995+0079259GD23995+0106759GF107991999999999999999999GP10060079702008063902015022702008GQ100600268926629GR100601181913279MA1101595999999MW1001REMMET072PHNG 030056Z 06010KT 7SM FEW026 BKN035 28/21 A3000 RMK SLP156 T02780206;EQDQ01+000000PRSWM2N01 00000JPWTH 0QNNAA1D0 02026BA1 0 02026AA1D0 04035BA1 0 04035GA1 0 00035KA1D0 00070JA1 0 00210LA1 0 00700CA1 0 03000NA1 0 00000QA1 0 10156SA1D0 00082RA1 0 00280YA1 0 06010
0425911760225192000080712003+21450-157783FM-15+0003NGF  V0201205N00315220005MN0112005N1+02505+02105101685ADDGD12995+0061059GF102991999999999999999999GP10060000002000000002000000002000GR100600000900009KA1999M+02601KA2999N+02501MA1101735999999MD1810101+9999MW1001REMMET090PHNG 071156Z 12006KT 10SM FEW020 25/21 A3004 RMK SLP168 8/100 T02500206 10260 20250 58010;EQDQ01+000000PRSWM2N01 00000JPWTH 0QNNAA1D0 02020BA1 0 02020GA1U0 99999KA1D0 00070JA1 0 00210LA1 0 00700CA1 0 03004NA1 0 00000QA1 0 10168SA1D0 00077RA1 0 00250YA1 0 12006
0405911760225192000080816003+21450-157783FM-15+0003NGF  V0200805N00525010365MN0112005N1+02505+01905101765ADDGD12995+0085359GD23995+0103659GF107991999999999999999999GP10060000002000000002000000002000GR100600000900009MA1101795999999MW1001REMMET073PHNG 081556Z 08010KT 10SM FEW028 BKN034 25/19 A3006 RMK SLP176 T02500194;EQDQ01+000000PRSWM2N01 00000JPWTH 0QNNAA1D0 02028BA1 0 02028AA1D0 04034BA1 0 04034GA1 0 00034KA1D0 00066JA1 0 00190LA1 0 00700CA1 0 03006NA1 0 00000QA1 0 10176SA1D0 00077RA1 0 00250YA1 0 08010
0457911760225192000081914003+21450-157783FM-15+0003NGF  V0200905N00525018295MN0112005N1+02405+01905101505ADDGD12995+0030559GD22995+0076259GD34995+0182959GF108991999999999999999999GP10060000002000000002000000002000GR100600000900009MA1101525999999MW1001OC100931REMMET080PHNG 1356Z 09010G18KT 7SM FEW010 SCT025 OVC060 24/19 A2998 RMK SLP150 T02390194;EQDQ01+000000PRSWM2N01 00000JPWTH 0QNNAA1D0 02010BA1 0 02010AA1D0 02025BA1 0 02025AA1D0 06060BA1 0 06060GA1 0 00060KA1D0 00066JA1 0 00190LA1 0 00700CA1 0 02998NA1 0 00000QA1 0 10150SA1D0 00075RA1 0 00240YA1 0 09010
0448911760225192000082713003+21450-157783FM-15+0003NGF  V0200605N00415005795MN0112005N1+02405+02205101475ADDGD12995+0036659GD23995+0057959GD34995+0131159GF108991999999999999999999GP10060000002000000002000000002000GR100600000900009MA1101495999999MW1001REMMET079PHNG 271256Z 06008KT 7SM SCT012 BKN019 OVC043 24/22 A2997 RMK SLP147 T02390217;EQDQ01+000000PRSWM2N01 00000JPWTH 0QNNAA1D0 02012BA1 0 02012AA1D0 04019BA1 0 04019AA1D0 06043BA1 0 06043GA1 0 00019KA1D0 00072JA1 0 00220LA1 0 00700CA1 0 02997NA1 0 00000QA1 0 10147SA1D0 00075RA1 0 00240YA1 0 06008
0440911760225192000082910003+21450-157783FM-15+0003NGF  V0200805N00415012505MN0112005N1+02605+02205101425ADDGD12995+0051859GD23995+0125059GF107991999999999999999999GP10060000002000000002000000002000GR100600000900009KA1999M+02781KA2999N+02331MA1101465999999MW1001REMMET082PHNG 290956Z 08008KT 7SM FEW017 BKN041 26/22 A2996 RMK SLP142 T02560217 402780233;EQDQ01+000000PRSWM2N01 00000JPWTH 0QNNAA1D0 02017BA1 0 02017AA1D0 04041BA1 0 04041GA1 0 00041KA1D0 00072JA1 0 00220LA1 0 00700CA1 0 02996NA1 0 00000QA1 0 10142SA1D0 00079RA1 0 00260YA1 0 08008
0476911760225192000082916003+21450-157783FM-15+0003NGF  V0200805N00465014635MN0112005N1+02505+02205101255ADDAA101000021GD12995+0048859GD23995+0146359GD33995+0213459GF107991999999999999999999GP10060000002000000002000000002000GR100600000900009MA1101295999999MW1001REMMET096PHNG 291556Z 08009KT 7SM FEW016 BKN048 BKN075 25/22 A2991 RMK SHRAB21E31 SLP125 P0000 T02500217;EQDQ01+000000PRSWM2N01 00000JPWTH 0QNNAA1D0 02016BA1 0 02016AA1D0 04048BA1 0 04048AA1D0 04070BA1 0 04070GA1 0 00048KA1D0 00072JA1 0 00220LA1 0 00700CA1 0 02991NA1 0 00000QA1 0 10125SA1D0 00077RA1 0 00250YA1 0 08009
0465911760225192000090405003+21450-157783FM-15+0003NGF  V0200605N00465054865MN0112005N1+02605+01905101355ADDGD12995+0082359GD22995+0182959GD33995+0548659GF107991999999999999999999GP10060000702008000002015000702008GQ100600853927589GR100600080909749MA1101395999999MW1001REMMET079PHNG 040456Z 06009KT 7SM FEW027 SCT065 BKN180 26/19 A2994 RMK SLP135 T02560194;EQDQ01+000000PRSWM2N01 00000JPWTH 0QNNAA1D0 02027BA1 0 02027AA1D0 02060BA1 0 02060AA1D0 04180BA1 0 04180GA1 0 00180KA1D0 00066JA1 0 00190LA1 0 00700CA1 0 02994NA1 0 00000QA1 0 10135SA1D0 00079RA1 0 00260YA1 0 06009
0213911760225192000091009596+21450-157767SOD  +0005PHNG V020999999999999999999999999999+99999+99999999999ADDOE11249999999999997OE22249999999999997REMSOD163HOURLY INCREMENTAL PRECIPITATION VALUES (IN):.00  .00  .00  .00  .00  .00  .00  .00  .00  .00  .00  .00  .00  .00  .00  .00  .00  .00  .00  .00  .00  .00  .00  .00
0442911760225192000091219003+21450-157783FM-15+0003NGF  V0200805N004150084019N0112005N1+02705+02105101655ADDGD19999+0072019GD23991+0084019GD33991+0180019GF107991999999999999999999GP10060027502008012502015021302008GQ100600601909839GR100600672913509MA1101695999999MW1001REMMET079PHNG 121856Z VRB06KT 7SM SCT024 BKN028 BKN065 27/21 A3003 RMK SLP165 T02720206;EQDQ01+000000PRSWM2N01 00999JALM1 3N02 00000JPWTH 0P01     03SCCGD1QNNAA1D0 00999BA1 3 00999KA1D0 00070JA1 0 00210LA1 0 00700CA1 0 03003NA1 0 00000QA1 0 10165SA1D0 00081RA1 0 00270YA1 0 08008
0482911760225192000091420003+21450-157783FM-15+0003NGF  V0200505N00415012195MN0112005N1+02405+02205101605ADDAA101000391GD12995+0061059GD22995+0082359GD33995+0121959GF107991999999999999999999GP10060054102008041602015025602008GQ100600466910729GR100600926913519MA1101665999999MW1001REMMET085PHNG 141956Z 05008KT 7SM FEW020 SCT027 BKN040 24/22 A3002 RMK SLP160 P0001 T02390222;EQDQ01+000000PRSWM2N01 00000JPWTH 0QNNAA1D0 02020BA1 0 02020AA1D0 02027BA1 0 02027AA1D0 04040BA1 0 04040GA1 0 00040KA1D0 00072JA1 0 00220LA1 0 00700CA1 0 03002NA1 0 00000QA1 0 10160SA1D0 00075RA1 0 00240YA1 0 05008
0421911760225192000091717003+21450-157783FM-15+0003NGF  V0201005N00365008535MN0112005N1+02505+02105101585ADDGD12995+0070159GD23995+0085359GF107991999999999999999999GP10060000902008013802015000402008GQ100600857908959GR100600068909149MA1101635999999MW1001REMMET072PHNG 171656Z 10007KT 7SM FEW023 BKN028 25/21 A3001 RMK SLP158 T02500211;EQDQ01+000000PRSWM2N01 00000JPWTH 0QNNAA1D0 02023BA1 0 02023AA1D0 04028BA1 0 04028GA1 0 00028KA1D0 00070JA1 0 00210LA1 0 00700CA1 0 03001NA1 0 00000QA1 0 10158SA1D0 00077RA1 0 00250YA1 0 10007
0421911760225192000092219003+21450-157783FM-15+0003NGF  V0200405N00265220005MN0112005N1+02705+01905101495ADDGD12995+0091459GD22995+0118959GF104991999999999999999999GP10060044502008080202015005302008GQ100600608910289GR100600660913579MA1101525999999MW1001REMMET072PHNG 221856Z VRB06KT 7SM SCT029 SCT039 27/19 A2998 RMK SLP149 T02670194;EQDQ01+000000PRSWM2N01 00000JPWTH 0QNNAA1D0 02030BA1 0 02030AA1D0 02039BA1 0 02039GA1U0 99999KA1D0 00066JA1 0 00190LA1 0 00700CA1 0 02998NA1 0 00000QA1 0 10149SA1D0 00081RA1 0 00270YA1 0 04005
0377911760225192000100523003+21450-157783FM-15+0003NGF  V0200405N00415220005MN0112005N1+02805+01905101465ADDGD12995+0103659GF102991999999999999999999GP10060071502008036702015038702008GQ100600270918589GR100601218913689MA1101495999999MW1001REMMET065PHNG 052256Z 04008KT 7SM FEW034 28/19 A2997 RMK SLP146 T02800190;EQDQ01+000000PRSWM2N01 00000JPWTH 0QNNAA1D0 02034BA1 0 02034GA1U0 99999KA1D0 00066JA1 0 00190LA1 0 00700CA1 0 02997NA1 0 00000QA1 0 10146SA1D0 00082RA1 0 00280YA1 0 04008
0459911760225192000100914003+21450-157783FM-15+0003NGF  V0200805N00675018295MN0112005N1+02505+01905101645ADDGD12995+0091459GD22995+0149459GD34995+0182959GF108991999999999999999999GP10060000002000000002000000002000GR100600000900009MA1101665999999MW1001OC100981REMMET082PHNG 091356Z 08013G19KT 7SM FEW029 SCT049 OVC065 25/19 A3002 RMK SLP164 T02500190;EQDQ01+000000PRSWM2N01 00000JPWTH 0QNNAA1D0 02030BA1 0 02030AA1D0 02049BA1 0 02049AA1D0 06060BA1 0 06060GA1 0 00060KA1D0 00066JA1 0 00190LA1 0 00700CA1 0 03002NA1 0 00000QA1 0 10164SA1D0 00077RA1 0 00250YA1 0 08013
0412911760225192000101214003+21450-157783FM-15+0003NGF  V0200605N00365220005MN0112005N1+02505+02005101415ADDGD12995+0076259GD22995+0243859GF104991999999999999999999GP10060000002000000002000000002000GR100600000900009MA1101465999999MW1001REMMET080PHNG 121356Z 06007KT 030V100 7SM FEW025 SCT085 25/20 A2996 RMK SLP141 T02500200;EQDQ01+000000PRSWM2N01 00000JPWTH 0QNNAA1D0 02025BA1 0 02025AA1D0 02080BA1 0 02080GA1U0 99999KA1D0 00068JA1 0 00200LA1 0 00700CA1 0 02996NA1 0 00000QA1 0 10141SA1D0 00077RA1 0 00250YA1 0 06007
0386911760225192000101609003+21450-157783FM-15+0003NGF  V0200605N00525220005MN0112005N1+02505+01905101655ADDGD12995+0085359GF102991999999999999999999GP10060000002000000002000000002000GR100600000900009MA1101695999999MD1010061+9999MW1001REMMET077PHNG 160856Z 06010KT 7SM FEW028 25/19 A3003 RMK SLP165 8/100 T02500189 50006;EQDQ01+000000PRSWM2N01 00000JPWTH 0QNNAA1D0 02028BA1 0 02028GA1U0 99999KA1D0 00066JA1 0 00190LA1 0 00700CA1 0 03003NA1 0 00000QA1 0 10165SA1D0 00077RA1 0 00250YA1 0 06010
0465911760225192000101702003+21450-157783FM-15+0003NGF  V0200705N00415014335MN0112005N1+02605+01905101375ADDGD12995+0094559GD23995+0143359GD33995+0609659GF107991999999999999999999GP10060030702008008902015025802008GQ100600566924209GR100600757913779MA1101395999999MW1001REMMET079PHNG 170156Z 07008KT 7SM SCT030 BKN047 BKN200 26/19 A2994 RMK SLP137 T02610194;EQDQ01+000000PRSWM2N01 00000JPWTH 0QNNAA1D0 02031BA1 0 02031AA1D0 04047BA1 0 04047AA1D0 04200BA1 0 04200GA1 0 00047KA1D0 00066JA1 0 00190LA1 0 00700CA1 0 02994NA1 0 00000QA1 0 10137SA1D0 00079RA1 0 00260YA1 0 07008
0421911760225192000102319003+21450-157783FM-15+0003NGF  V0200605N00415008535MN0112005N1+02705+02105101705ADDGD12995+0064059GD23995+0085359GF107991999999999999999999GP10060032802008043402015014102008GQ100600645911559GR100600594913829MA1101735999999MW1001REMMET072PHNG 231856Z 06008KT 7SM FEW021 BKN028 27/21 A3004 RMK SLP170 T02670206;EQDQ01+000000PRSWM2N01 00000JPWTH 0QNNAA1D0 02021BA1 0 02021AA1D0 04028BA1 0 04028GA1 0 00028KA1D0 00070JA1 0 00210LA1 0 00700CA1 0 03004NA1 0 00000QA1 0 10170SA1D0 00081RA1 0 00270YA1 0 06008
0388911760225192000102420003+21450-157783FM-15+0003NGF  V0200605N00525220005MN0112005N1+02705+02005101755ADDGD12995+0076259GF104991999999999999999999GP10060044802008030902015026002008GQ100600527912589GR100600837913839MA1101795999999MW1001OC100771REMMET068PHNG 241956Z 06010G15KT 7SM SCT025 27/20 A3006 RMK SLP175 T02720200;EQDQ01+000000PRSWM2N01 00000JPWTH 0QNNAA1D0 02025BA1 0 02025GA1U0 99999KA1D0 00068JA1 0 00200LA1 0 00700CA1 0 03006NA1 0 00000QA1 0 10175SA1D0 00081RA1 0 00270YA1 0 06010
0404911760225192000102805003+21450-157783FM-15+0003NGF  V0200805N00215006405MN0112005N1+02505+02105101515ADDGD13995+0064059GD23995+0079259GF107991999999999999999999GP10060000002000000002000000002000GR100600000900009MA1101565999999MW1001REMMET072PHNG 280456Z 08004KT 7SM BKN021 BKN026 25/21 A2999 RMK SLP151 T02500211;EQDQ01+000000PRSWM2N01 00000JPWTH 0QNNAA1D0 04021BA1 0 04021AA1D0 04026BA1 0 04026GA1 0 00021KA1D0 00070JA1 0 00210LA1 0 00700CA1 0 02999NA1 0 00000QA1 0 10151SA1D0 00077RA1 0 00250YA1 0 08004
0440911760225192000102810003+21450-157783FM-15+0003NGF  V0200905N00315007015MN0112005N1+02505+02105101545ADDGD13995+0070159GD23995+0085359GF107991999999999999999999GP10060000002000000002000000002000GR100600000900009KA1999M+02781KA2999N+02441MA1101565999999MW1001REMMET082PHNG 280956Z 09006KT 7SM BKN023 BKN028 25/21 A2999 RMK SLP154 T02500206 402780244;EQDQ01+000000PRSWM2N01 00000JPWTH 0QNNAA1D0 04023BA1 0 04023AA1D0 04028BA1 0 04028GA1 0 00023KA1D0 00070JA1 0 00210LA1 0 00700CA1 0 02999NA1 0 00000QA1 0 10154SA1D0 00077RA1 0 00250YA1 0 09006
0459911760225192000102907003+21450-157783FM-15+0003NGF  V0200905N00575007015MN0112005N1+02405+02105101675ADDGD12995+0045759GD23995+0070159GD33995+0335359GF107991999999999999999999GP10060000002000000002000000002000GR100600000900009MA1101695999999MW1001OC100821REMMET082PHNG 290656Z 09011G16KT 7SM SCT015 BKN023 BKN110 24/21 A3003 RMK SLP167 T02440211;EQDQ01+000000PRSWM2N01 00000JPWTH 0QNNAA1D0 02015BA1 0 02015AA1D0 04023BA1 0 04023AA1D0 04110BA1 0 04110GA1 0 00023KA1D0 00070JA1 0 00210LA1 0 00700CA1 0 03003NA1 0 00000QA1 0 10167SA1D0 00075RA1 0 00240YA1 0 09011
0283911760225192000110108003+21450-157770FM-15+0005PHNG V0200801N003610078019N0112651N1+02601+02201101731ADDGD12991+0057019GD23991+0078019GD33991+0144019GD44991+0480019GF108991999999999999999999GP10060000002000000002000000002000GR100600000900009MA1101761999999MW1001REMMET094PHNG 010756Z 08007KT 060V120 7SM SCT019 BKN026 BKN048 OVC160 26/22 A3005 RMK SLP173 T02560222;EQDQ01+000000PRSWM2
0494911760225192000110409003+21450-157783FM-15+0003NGF  V0209999C00005005495MN0112005N1+02405+02205101455ADDGD12995+0042759GD23995+0054959GD34995+0070159GF108991999999999999999999GP10060000002000000002000000002000GR100600000900009MA1101495999999MD1010071+9999MW1615REMMET095PHNG 040856Z 00000KT 7SM -RA SCT014 BKN018 OVC023 24/22 A2997 RMK SLP145 8/400 T02390222 50007;EQDQ01+000003PRSWM1Q02    003PRSWM1N01 00020JPWTH 0QNNAA1D0 02014BA1 0 02014AA1D0 04018BA1 0 04018AA1D0 06023BA1 0 06023GA1 0 00018KA1D0 00072JA1 0 00220LA1 0 00700CA1 0 02997NA1 0 00020QA1 0 10145SA1D0 00075RA1 0 00240YA1 0 00000
0430911760225192000111409003+21450-157783FM-15+0003NGF  V0200805N00575220005MN0112005N1+02405+02005101645ADDGD12995+0061059GD22995+0094559GF104991999999999999999999GP10060000002000000002000000002000GR100600000900009MA1101665999999MD1110031+9999MW1001REMMET084PHNG 140856Z 08011KT 7SM FEW020 SCT030 24/20 A3002 RMK SLP164 8/830 T02390200 51003;EQDQ01+000000PRSWM2N01 00000JPWTH 0QNNAA1D0 02020BA1 0 02020AA1D0 02031BA1 0 02031GA1U0 99999KA1D0 00068JA1 0 00200LA1 0 00700CA1 0 03002NA1 0 00000QA1 0 10164SA1D0 00075RA1 0 00240YA1 0 08011
0388911760225192000111622003+21450-157783FM-15+0003NGF  V0200705N00625220005MN0112005N1+02605+01905101875ADDGD12995+0085359GF104991999999999999999999GP10060059702008037602015031702008GQ100600422916389GR100601037913999MA1101905999999MW1001OC100931REMMET068PHNG 162156Z 07012G18KT 7SM SCT028 26/19 A3009 RMK SLP187 T02610194;EQDQ01+000000PRSWM2N01 00000JPWTH 0QNNAA1D0 02028BA1 0 02028GA1U0 99999KA1D0 00066JA1 0 00190LA1 0 00700CA1 0 03009NA1 0 00000QA1 0 10187SA1D0 00079RA1 0 00260YA1 0 07012
0371911760225192000111708003+21450-157783FM-15+0003NGF  V0200605N00465220005MN0112005N1+02405+01905101995ADDGD12995+0076259GF102991999999999999999999GP10060000002000000002000000002000GR100600000900009MA1102035999999MW1001OC100871REMMET068PHNG 170756Z 06009G17KT 7SM FEW025 24/19 A3013 RMK SLP199 T02390194;EQDQ01+000000PRSWM2N01 00000JPWTH 0QNNAA1D0 02025BA1 0 02025GA1U0 99999KA1D0 00066JA1 0 00190LA1 0 00700CA1 0 03013NA1 0 00000QA1 0 10199SA1D0 00075RA1 0 00240YA1 0 06009
0435911760225192000111806003+21450-157783FM-15+0003NGF  V0200805N00575220005MN0112005N1+02405+01805101845ADDGD12995+0097559GF104991999999999999999999GP10060000002000000002000000002000GR100600000900009KA1999M+02611KA2999N+02441MA1101865999999MD1310161+9999MW1001OC101031REMMET092PHNG 180556Z 08011G20KT 7SM SCT032 24/18 A3008 RMK SLP184 8/100 T02440178 10261 20244 53016;EQDQ01+000000PRSWM2N01 00000JPWTH 0QNNAA1D0 02032BA1 0 02032GA1U0 99999KA1D0 00064JA1 0 00180LA1 0 00700CA1 0 03008NA1 0 00000QA1 0 10184SA1D0 00075RA1 0 00240YA1 0 08011
0523911760225192000111812003+21450-157783FM-15+0003NGF  V0200605N00675009755MN0112005N1+02305+02005101785ADDGD12995+0067159GD23995+0097559GD33995+0152459GF107991999999999999999999GP10060000002000000002000000002000GR100600000900009KA1999M+02441KA2999N+02331MA1101835999999MD1810101+9999MW1001OC100981REMMET106PHNG 181156Z 06013G19KT 7SM FEW022 BKN032 BKN050 23/20 A3007 RMK SLP178 8/800 T02330200 10244 20233 58010;EQDQ01+000000PRSWM2N01 00000JPWTH 0QNNAA1D0 02022BA1 0 02022AA1D0 04032BA1 0 04032AA1D0 04050BA1 0 04050GA1 0 00032KA1D0 00068JA1 0 00200LA1 0 00700CA1 0 03007NA1 0 00000QA1 0 10178SA1D0 00073RA1 0 00230YA1 0 06013
0435911760225192000111813003+21450-157783FM-15+0003NGF  V0200505N00575009455MN0064005N1+02305+02005101755ADDGD12995+0045759GD24995+0094559GF108991999999999999999999GP10060000002000000002000000002000GR100600000900009MA1101795999999MW1615OC100981REMMET079PHNG 181256Z 05011G19KT 4SM -RA SCT015 OVC030 23/20 A3006 RMK SLP175 T02280200;EQDQ01+000003PRSWM1Q02    003PRSWM1N01 00020JPWTH 0QNNAA1D0 02015BA1 0 02015AA1D0 06031BA1 0 06031GA1 0 00031KA1D0 00068JA1 0 00200LA1 0 00400CA1 0 03006NA1 0 00020QA1 0 10175SA1D0 00073RA1 0 00230YA1 0 05011
0054911760225192000112307009+21450-157783NSRDB+000399999V020999999999999999999999999999+99999+99999999999ADDGP10060000002000000002000000002000GR100600000900009
0474911760225192000112421003+21450-157783FM-15+0003NGF  V0200705N00575013725MN0112005N1+02505+01805101945ADDGD12995+0085359GD23995+0137259GF107991999999999999999999GP10060051902008038402015027102008GQ100600499914649GR100600904914049MA1101965999999MD1810011+9999MW1001OC101031REMMET087PHNG 242056Z 07011G20KT 7SM FEW028 BKN045 25/18 A3011 RMK SLP194 8/800 T02500178 58000;EQDQ01+000002APC3  Q02+000000PRSWM2N01 00000JPWTH 0QNNAA1D0 02028BA1 0 02028AA1D0 04045BA1 0 04045GA1 0 00045KA1D0 00064JA1 0 00180LA1 0 00700CA1 0 03011NA1 0 00000QA1 0 10194SA1D0 00077RA1 0 00250YA1 0 07011
0440911760225192000112610003+21450-157783FM-15+0003NGF  V0209999C00005220005MN0112005N1+02305+01905101775ADDGD12995+0064059GD22995+0103659GF104991999999999999999999GP10060000002000000002000000002000GR100600000900009KA1999M+02501KA2999N+02301MA1101795999999MW1001REMMET082PHNG 260956Z 00000KT 7SM FEW021 SCT034 23/19 A3006 RMK SLP177 T02330194 402500230;EQDQ01+000000PRSWM2N01 00000JPWTH 0QNNAA1D0 02021BA1 0 02021AA1D0 02034BA1 0 02034GA1U0 99999KA1D0 00066JA1 0 00190LA1 0 00700CA1 0 03006NA1 0 00000QA1 0 10177SA1D0 00073RA1 0 00230YA1 0 00000
0448911760225192000112616003+21450-157783FM-15+0003NGF  V0200705N00315013725MN0112005N1+02305+01905101655ADDGD12995+0064059GD22995+0094559GD33995+0137259GF107991999999999999999999GP10060000002000000002000000002000GR100600000900009MA1101695999999MW1001REMMET079PHNG 261556Z 07006KT 7SM FEW021 SCT030 BKN045 23/19 A3003 RMK SLP165 T02330194;EQDQ01+000000PRSWM2N01 00000JPWTH 0QNNAA1D0 02021BA1 0 02021AA1D0 02031BA1 0 02031AA1D0 04045BA1 0 04045GA1 0 00045KA1D0 00066JA1 0 00190LA1 0 00700CA1 0 03003NA1 0 00000QA1 0 10165SA1D0 00073RA1 0 00230YA1 0 07006
0198911760225192000112723044+21450-157770FM-16+0005PHNG V0200401N005110141019N0112651N1+02601+02301101621ADDGD12991+0066019GD22991+0090019GD33991+0141019GF107991999999999999999999MA1101661999999MW1001REMMET075PHNG 272304Z 04010KT 7SM FEW022 SCT030 BKN047 26/23 A3002 RMK SLP162 8/8//;EQDQ01+000000PRSWM2
0421911760225192000120323003+21450-157783FM-15+0003NGF  V0201105N00365220005MN0112005N1+02705+01905101635ADDGD12995+0094559GD22995+0152459GF102991999999999999999999GP10060069202008074102015015602008GQ100600439918299GR100601014914089MA1101665999999MW1001REMMET072PHNG 032256Z 11007KT 7SM FEW030 FEW055 27/19 A3002 RMK SLP163 T02700190;EQDQ01+000000PRSWM2N01 00000JPWTH 0QNNAA1D0 02031BA1 0 02031AA1D0 02050BA1 0 02050GA1U0 99999KA1D0 00066JA1 0 00190LA1 0 00700CA1 0 03002NA1 0 00000QA1 0 10163SA1D0 00081RA1 0 00270YA1 0 11007
0529911760225192000121418003+21450-157783FM-15+0003NGF  V0201005N00315015245MN0112005N1+02405+01905101895ADDGD12995+0076259GD22995+0094559GD33995+0152459GF107991999999999999999999GP10060004002008019702015002102008GQ100600844911779GR100600133913539KA1999M+02401KA2999N+02301MA1101935999999MD1110141+9999MW1001REMMET103PHNG 141756Z 10006KT 7SM FEW025 SCT030 BKN055 24/19 A3010 RMK SLP189 8/800 T02390194 10240 20230 51014;EQDQ01+000000PRSWM2N01 00000JPWTH 0QNNAA1D0 02025BA1 0 02025AA1D0 02031BA1 0 02031AA1D0 04050BA1 0 04050GA1 0 00050KA1D0 00066JA1 0 00190LA1 0 00700CA1 0 03010NA1 0 00000QA1 0 10189SA1D0 00075RA1 0 00240YA1 0 10006
0449911760225192000121513003+21450-157783FM-15+0003NGF  V0200905N00155014025MN0112005N1+02405+02105101775ADDGD12995+0051859GD22995+0076259GD34995+0140259GF108991999999999999999999GP10060000002000000002000000002000GR100600000900009MA1101795999999MW1001REMMET080PHNG 151256Z 09003KT 10SM FEW017 SCT025 OVC046 24/21 A3006 RMK SLP177 T02400210;EQDQ01+000000PRSWM2N01 00000JPWTH 0QNNAA1D0 02017BA1 0 02017AA1D0 02025BA1 0 02025AA1D0 06046BA1 0 06046GA1 0 00046KA1D0 00070JA1 0 00210LA1 0 00700CA1 0 03006NA1 0 00000QA1 0 10177SA1D0 00075RA1 0 00240YA1 0 09003
0179911760225192000121609003+21450-157770FM-15+0005PHNG V02099999999992200019N0112651N1+99999+99999999999ADDGP10060000002000000002000000002000GR100600000900009MW1001REMMET091PHNG 160855Z VRBO5KT 7SM FEW023 SCT032 BKN040 24/20 A3010 RMK SLP189 8/800 T02390200 50000;EQDQ01+000000PRSWM2
0364911760225192000121617003+21450-157783FM-15+0003NGF  V0201105N00415220005MN0112005N1+02405+01805101885ADDGD12995+0097559GF102991999999999999999999GP10060000002000000002000000002000GR100600000900009MA1101905999999MW1001REMMET069PHNG 1656Z 11008KT 10SM FEW031 24/18 A3009 RMK AO2 SLP188 T0230178 $;EQDQ01+000000PRSWM2N01 00000JPWTH 0QNNAA1D0 02032BA1 0 02032GA1U0 99999KA1D0 00064JA1 0 00180LA1 0 00700CA1 0 03009NA1 0 00000QA1 0 10188SA1D0 00075RA1 0 00240YA1 0 11008
0470911760225192000122016003+21450-157783FM-15+0003NGF  V0200205N00575006715MN0112005N1+02305+02105101815ADDGD12995+0048859GD23995+0067159GD34995+0100659GF108991999999999999999999GP10060000002000000002000000002000GR100600000900009MA1101835999999MW1805REMMET085PHNG 201556Z 02011KT 7SM -SHRA FEW016 BKN022 OVC033 23/21 A3007 RMK SLP181 T02280211;EQDQ01+000003PRSWM1Q02    003PRSWM1N01 00023JPWTH 0QNNAA1D0 02016BA1 0 02016AA1D0 04022BA1 0 04022AA1D0 06033BA1 0 06033GA1 0 00022KA1D0 00070JA1 0 00210LA1 0 00700CA1 0 03007NA1 0 00023QA1 0 10181SA1D0 00073RA1 0 00230YA1 0 02011
0366911760225192000122522003+21450-157783FM-15+0003NGF  V0209999999999220005MN0112005N1+02605+01905101615ADDGD12995+0091459GF102991999999999999999999GP10060064002008072602015014602008GQ100600474916089GR100600957914149MA1101665999999MW1001REMMET065PHNG 252156Z VRB05KT 7SM FEW029 26/19 A3002 RMK SLP161 T02560194;EQDQ01+000000PRSWM2N01 00000JPWTH 0QNNAA1D0 02030BA1 0 02030GA1U0 99999KA1D0 00066JA1 0 00190LA1 0 00700CA1 0 03002NA1 0 00000QA1 0 10161SA1D0 00079RA1 0 00260
