0277725805241722000081102003+40067-118550FM-15+1189LOL  V0202705N009852200059N080000599+02855+01145101215ADDGD11995+9999999GF101995999999999999999999GP10060025002008063702015008102008GQ100600747927729GR100600351913309EQDN01 00000JPWTH 0QNNE71D0 00299F71 0 00199G71U0 99999K71D0 00053J71 0 00114L71 0 05000N71 0 00000Q71 0 10121S71D0 00083R71 0 00285V71D0 00199U71 0 00199X71 0 27019
0367725805241722000081521003+40067-118550FM-15+1189LOL  V0209999V002652200059N080000599+03285+99999101705ADDGD11995+9999999GD21995+9999999GD31995+9999999GF101995999999999999999999GP10060088702008070502015026002008GQ100600274919669GR100601182913329EQDN01 00000JPWTH 0P01 +01313ATOD  QNNE71D0 00299F71 0 00199E71D0 00299F71 0 00199E71D0 00299F71 0 00199G71U0 99999K71D0 00056J71 0 00131L71 0 05000N71 0 00000Q71 0 10170S71D0 00091R71 0 00328V71D0 00199U71 0 00199X71 0 00005
0166725805241722000081701521+40070-118560FM-15+1190KLOL V0203001N003112200019N0804671N1+03401+99999101381ADDGD12991+0150019GF102991999999999999999999MA1101731999999MW1001REMMET057KLOL 170152Z 30006KT 50SM FEW050 34/M09 A3004 RMK SLP138;EQDQ01+000000PRSWM2Q02 -00903ATOD  
0148725805241722000081819521+40070-118560FM-15+1190KLOL V0201701N006212200019N0482801N1+03101+99999101391ADDGF100991999999999999999999MA1101761999999MW1001REMMET054KLOL 181952Z 17012KT 30SM SKC 31/M05 A3005 RMK SLP139;EQDQ01+000000PRSWM2Q02 -00503ATOD  
0198725805241722000082007521+40070-118560FM-15+1190KLOL V0200501N002610051019N0040231N1+01501+99999101691ADDGD14991+0051019GF108991999999999999999999MA1102031999999MW1041REMMET073KLOL 200752Z 05005KT 2 1/2SM FU OVC017 15/M07 A3013 RMK FU OVC017 SLP169;EQDQ01+000003PRSWM1Q02 -00703ATOD  Q03    003PRSWM1
0185725805241722000082408541+40070-118560FM-15+1190KLOL V0200701N003610300019N0241401N1+02301+99999101661ADDGD13991+0300019GF107991999999999999999999MA1102131999999MD1110201+9999MW1001REMMET062KLOL 240854Z 07007KT 15SM BKN100 23/00 A3016 RMK SLP166 51020;EQDQ01+000000PRSWM2Q02 +00003ATOD  
0215725805241722000082615521+40070-118560FM-15+1190KLOL V02099999999992200019N0160931N1+02201+00101101441ADDGD12991+0001519GD22991+0450019GD32991+0750019GF104991999999999999999999MA1101861999999MW1001REMMET092KLOL 261552Z VRB04KT 10SM FEW000 FEW150 SCT250 22/01 A3008 RMK FU FEW000 ACC DSNT NW SLP144;EQDQ01+000000PRSWM2
0277725805241722000082723003+40067-118550FM-15+1189LOL  V0201905N003152200059N064000599+03365+01575100775ADDGD11995+9999999GF102995999999999999999999GP10060070702008083602015012302008GQ100600458923909GR100600932913399EQDN01 00000JPWTH 0QNNE71D0 00299F71 0 00199G71U0 99999K71D0 00060J71 0 00157L71 0 04000N71 0 00000Q71 0 10077S71D0 00092R71 0 00336V71D0 00299U71 0 00299X71 0 19006
0208725805241722000082817531+40070-118560FM-15+1190KLOL V02099999999990750019N0241401N1+02801-00101101331ADDGD14991+0750019GF108991999999999999999999KA1999M+02981KA2999N+01111MA1101801999999MD1110021+9999MW1001REMMET075KLOL 281753Z VRB04KT 15SM OVC250 28/M01 A3006 RMK SLP133 10298 20111 51002;EQDQ01+000000PRSWM2
0171725805241722000082913541+40070-118560FM-15+1190KLOL V0200801N002610450019N0804671N1+01601+00301101181ADDGD13991+0450019GD23991+0750019GF107991999999999999999999MA1101591999999MW1001REMMET063KLOL 291354Z 08005KT 50SM BKN150 BKN250 16/03 A3000 RMK SLP118;EQDQ01+000000PRSWM2
0169725805241722000083112521+40070-118560FM-15+1190KLOL V02099999999990300019N0321861N1+01601+01301101131ADDGD14991+0300019GF108991999999999999999999MA1101421999999MW1611REMMET060KLOL 311252Z VRB04KT 20SM -RA OVC100 16/13 A2995 RMK SLP113;EQDQ01+000003PRSWM1Q02    003PRSWM1
0277725805241722000083121003+40067-118550FM-15+1189LOL  V0201805N006252200059N040000599+02615+01335100875ADDGD11995+9999999GF102995999999999999999999GP10060085502008073602015023602008GQ100600330919639GR100601126913429EQDN01 00000JPWTH 0QNNE71D0 00299F71 0 00199G71U0 99999K71D0 00056J71 0 00133L71 0 02500N71 0 00000Q71 0 10087S71D0 00079R71 0 00261V71D0 00299U71 0 00299X71 0 18012
0269725805241722000090110224+40070-118560FM-16+1190KLOL V0201801N003610240019N0241401N1+01201+01101999999ADDGA1999+012001091GD12991+0120019GD23991+0240019GD34991+0330019GF108991999999999999999999MA1101321999999MW1801MW2951REMMET108KLOL 011022Z 18007KT 15SM -TSRA SCT040CB BKN080 OVC110 12/11 A2992 RMK FRQ LTGICCC E-SE TSB22 TS E-SE MOV N;EQDQ01+000003PRSWM1Q02    003PRSWM1
0184725805241722000090204521+40070-118560FM-15+1190KLOL V0202701N005110270019N0482801N1+01501+00701100971ADDGD12991+0210019GD24991+0270019GF108991999999999999999999MA1101191999999MW1001REMMET076KLOL 020452Z 27010KT 30SM FEW070 OVC095 15/07 A2988 RMK SHRAB0356E05 SLP097;EQDQ01+000000PRSWM2
0277725805241722000090314003+40067-118550FM-15+1189LOL  V0200305N003152200059N080000599+00995+00675101565ADDGD12995+9999999GF104995999999999999999999GP10060000102008000002015000102008GQ100600871908279GR100600040907739EQDN01 00000JPWTH 0QNNE71D0 00299F71 0 00299G71U0 99999K71D0 00044J71 0 00067L71 0 05000N71 0 00000Q71 0 10156S71D0 00050R71 0 00099V71D0 00599U71 0 00499X71 0 03006
0198725805241722000090719531+40070-118560FM-15+1190KLOL V0201801N001512200019N0804671N1+02401+99999101681ADDGD12991+0036019GD22991+0750019GF102991999999999999999999MA1101931999999MW1001REMMET074KLOL 071953Z 18003KT 50SM FEW012 FEW250 24/M02 A3010 RMK FU FEW012 SLP168;EQDQ01+000000PRSWM2Q02 -00203ATOD  
0209725805241722000091204002+40067-118550FM-15+1189LOL  V0203105N002652200059N048000599+02225+01095101505ADDGD10005+9999999GF100995999999999999999999EQDN01 00000JPWTH 0QNNE71D0 00000F71 0 00000G71U0 99999K71D0 00052J71 0 00109L71 0 03000N71 0 00000Q71 0 10150S71D0 00072R71 0 00222V71D0 00099U71 0 00099X71 0 31005
0330725805241722000091323003+40067-118550FM-15+1189LOL  V0209999V001550762059N080000599+03345+99999101325ADDGD12995+9999999GD24995+9999999GF108995999999999999999999GP10060046702008024102015031602008GQ100600515923509GR100600840913519EQDN01 00000JPWTH 0P01 +01373ATOD  QNNE71D0 00299F71 0 00299E71D0 00699F71 0 00699G71 0 00250K71D0 00057J71 0 00137L71 0 05000N71 0 00000Q71 0 10132S71D0 00092R71 0 00334V71D0 01099U71 0 00899X71 0 00003
0260725805241722000091508003+40067-118550FM-15+1189LOL  V0209999C000052200059N048000599+01685+01035101425ADDGD11995+9999999GF101995999999999999999999GP10060000002000000002000000002000GR100600000900009EQDN01 00000JPWTH 0QNNE71D0 00299F71 0 00199G71U0 99999K71D0 00051J71 0 00103L71 0 03000N71 0 00000Q71 0 10142S71D0 00062R71 0 00168V71D0 00199U71 0 00199X71 0 00000
0169725805241722000091520531+40070-118560FM-15+1190KLOL V0201701N004112200019N0804671N1+03101+00301101391ADDGD12991+0540019GF102991999999999999999999MA1101761999999MD1810171+9999MW1001REMMET062KLOL 152053Z 17008KT 50SM FEW180 31/03 A3005 RMK SLP139 58017;EQDQ01+000000PRSWM2
0277725805241722000091802003+40067-118550FM-15+1189LOL  V0200305N003652200059N080000599+02605+01285101725ADDGD10005+9999999GF100995999999999999999999GP10060003802008030702015001202008GQ100600849926829GR100600116912979EQDN01 00000JPWTH 0QNNE71D0 00000F71 0 00000G71U0 99999K71D0 00055J71 0 00128L71 0 05000N71 0 00000Q71 0 10172S71D0 00079R71 0 00260V71D0 00099U71 0 00099X71 0 03007
0277725805241722000092920003+40067-118550FM-15+1189LOL  V0200605N004150670659N080000599+02605+01185101765ADDGD13995+9999999GF105995999999999999999999GP10060064802008051602015027102008GQ100600431917489GR100600995913639EQDN01 00000JPWTH 0QNNE71D0 00499F71 0 00499G71 0 00220K71D0 00053J71 0 00118L71 0 05000N71 0 00000Q71 0 10176S71D0 00079R71 0 00260V71D0 00699U71 0 00599X71 0 06008
0260725805241722000100107003+40067-118550FM-15+1189LOL  V0209999C000052200059N048000599+01145+00645101385ADDGD11995+9999999GF102995999999999999999999GP10060000002000000002000000002000GR100600000900009EQDN01 00000JPWTH 0QNNE71D0 00299F71 0 00199G71U0 99999K71D0 00044J71 0 00064L71 0 03000N71 0 00000Q71 0 10138S71D0 00053R71 0 00114V71D0 00299U71 0 00299X71 0 00000
0260725805241722000100211003+40067-118550FM-15+1189LOL  V0201405N002652200059N048000599+00915+00425101315ADDGD10005+9999999GF100995999999999999999999GP10060000002000000002000000002000GR100600000900009EQDN01 00000JPWTH 0QNNE71D0 00000F71 0 00000G71U0 99999K71D0 00040J71 0 00042L71 0 03000N71 0 00000Q71 0 10131S71D0 00048R71 0 00091V71D0 00099U71 0 00099X71 0 14005
0260725805241722000100405003+40067-118550FM-15+1189LOL  V0200305N004152200059N048000599+01515+00665101345ADDGD11995+9999999GF102995999999999999999999GP10060000002000000002000000002000GR100600000900009EQDN01 00000JPWTH 0QNNE71D0 00299F71 0 00199G71U0 99999K71D0 00044J71 0 00066L71 0 03000N71 0 00000Q71 0 10134S71D0 00059R71 0 00151V71D0 00299U71 0 00299X71 0 03008
0148725805241722000100700511+40070-118560FM-15+1190KLOL V0200601N002112200019N0804671N1+02501+99999101421ADDGF100991999999999999999999MA1101691999999MW1001REMMET054KLOL 070051Z 06004KT 50SM SKC 25/M04 A3003 RMK SLP142;EQDQ01+000000PRSWM2Q02 -00403ATOD  
0150725805241722000100912521+40070-118560FM-15+1190KLOL V0201401N001512200019N0482801N1+00301-00601101171ADDGD12991+0600019GF102991999999999999999999MA1101351999999MW1001REMMET057KLOL 091252Z 14003KT 30SM FEW200 03/M06 A2993 RMK SLP117;EQDQ01+000000PRSWM2
0150725805241722000101313521+40070-118560FM-15+1190KLOL V02099999999992200019N0482801N1+00101-00101102441ADDGD12991+0150019GF102991999999999999999999MA1102401999999MW1001REMMET057KLOL 131352Z VRB03KT 30SM FEW055 01/M01 A3024 RMK SLP244;EQDQ01+000000PRSWM2
0277725805241722000101318003+40067-118550FM-15+1189LOL  V0209999C000050167659N080000599+01065+00665102515ADDGD14995+9999999GF108995999999999999999999GP10060026402008003502015024502008GQ100600568914059GR100600751913749EQDN01 00000JPWTH 0QNNE71D0 00699F71 0 00699G71 0 00055K71D0 00044J71 0 00066L71 0 05000N71 0 00000Q71 0 10251S71D0 00051R71 0 00106V71D0 01099U71 0 00899X71 0 00000
0150725805241722000101810531+40070-118560FM-15+1190KLOL V02099999999990750019N0482801N1+00301-00201101971ADDGD13991+0750019GF107991999999999999999999MA1102131999999MW1001REMMET057KLOL 181053Z VRB03KT 30SM BKN250 03/M02 A3016 RMK SLP197;EQDQ01+000000PRSWM2
0246725805241722000102105541+40070-118560FM-15+1190KLOL V0203301N008210270019N0241401N1+01101+00601101251ADDAA106000021GD12991+0135019GD23991+0270019GF107991999999999999999999KA1999M+02091KA2999N+01111MA1101421999999MD1310221+9999MW1001REMMET087KLOL 210554Z 33016KT 15SM FEW045 BKN090 11/06 A2995 RMK SLP125 60000 10209 20111 53022;EQDQ01+000000PRSWM2
0297725805241722000102112003+40067-118550FM-15+1189LOL  V0203405N006250426759N024000599+00795+00045101415ADDGD12995+9999999GD24995+9999999GF108995999999999999999999GP10060000002000000002000000002000GR100600000900009EQDN01 00000JPWTH 0QNNE71D0 00299F71 0 00299E71D0 00699F71 0 00699G71 0 00140K71D0 00033J71 0 00004L71 0 01500N71 0 00000Q71 0 10141S71D0 00046R71 0 00079V71D0 01099U71 0 00899X71 0 34012
0351725805241722000102115003+40067-118550FM-15+1189LOL  V0200105N005250365859N080000599+00595+00285101725ADDGD12995+9999999GD23995+9999999GD33995+9999999GF106995999999999999999999GP10060002002008016102015001202008GQ100600860910779GR100600075910709EQDN01 00000JPWTH 0QNNE71D0 00299F71 0 00299E71D0 00499F71 0 00499E71D0 00499F71 0 00499G71 0 00120K71D0 00037J71 0 00028L71 0 05000N71 0 00000Q71 0 10172S71D0 00043R71 0 00059V71D0 00899U71 0 00699X71 0 01010
0230725805241722000102517531+40070-118560FM-15+1190KLOL V0209999C000010360019N0804671N1+01501+00001101481ADDGD12991+0270019GD23991+0360019GF107991999999999999999999KA1999M+01511KA2999N+00201MA1101561999999MD1810081+9999MW1001REMMET082KLOL 251753Z 00000KT 50SM FEW090 BKN120 15/M00 A2999 RMK SLP148 10151 20020 58008;EQDQ01+000000PRSWM2
0293725805241722000102803513+40067-118550FM-15+1189LOL  V0203105N002652200059N0480005N1+00505+00395101325ADDGF100995999999999999999999MA1101291999999MW1001REMMET053KLOL 280351Z 31005KT 30SM SKC 05/03 A2991 RMK SLP132;EQDQ01+000000PRSWM2N01 00000JPWTH 0QNNE71D0 00000F71 0 00000G71U0 99999K71D0 00039J71 0 00039L71 0 03000N71 0 00000Q71 0 10132S71D0 00041R71 0 00050V71D0 00099U71 0 00099X71 0 31005
0054725805241722000102806009+40067-118550NSRDB+118999999V020999999999999999999999999999+99999+99999999999ADDGP10060000002000000002000000002000GR100600000900009
0356725805241722000103007543+40067-118550FM-15+1189LOL  V0200705N003152200059N0480005N1+00015-00055101545ADDGD11995+0090019GD21995+0210019GF102995999999999999999999MA1101461999999MW1001REMMET064KLOL 300754Z 07006KT 30SM FEW030 FEW070 00/M01 A2996 RMK SLP154;EQDQ01+000000PRSWM2N01 00000JPWTH 0QNNE71D0 00299F71 0 00199E71D0 00299F71 0 00199G71U0 99999K71D0 00031J71 0-00005L71 0 03000N71 0 00000Q71 0 10154S71D0 00032R71 0 00001V71D0 00299U71 0 00299X71 0 07006
0054725805241722000103009009+40067-118550NSRDB+118999999V020999999999999999999999999999+99999+99999999999ADDGP10060000002000000002000000002000GR100600000900009
0172725805241722000110609531+40070-118560FM-15+1190KLOL V0203201N002110660019N0482801N1+00501-00201101231ADDGD12991+0210019GD23991+0660019GF107991999999999999999999MA1101251999999MW1001REMMET064KLOL 060953Z 32004KT 30SM SCT070 BKN220 05/M02 A2990 RMK SLP123;EQDQ01+000000PRSWM2
0297725805241722000110911003+40067-118550FM-15+1189LOL  V0209999C000050335359N048000599-00045-00115100905ADDGD12995+9999999GD24995+9999999GF108995999999999999999999GP10060000002000000002000000002000GR100600000900009EQDN01 00000JPWTH 0QNNE71D0 00299F71 0 00299E71D0 00699F71 0 00699G71 0 00110K71D0 00030J71 0-00011L71 0 03000N71 0 00000Q71 0 10090S71D0 00031R71 0-00004V71D0 01099U71 0 00899X71 0 00000
0071725805241722000111017009+40067-118550NSRDB+118999999V020999999999999999999999999999+99999+99999999999ADDGP10060013702008005602015012002008GQ100600722913299GR100600426913959
0054725805241722000111109009+40067-118550NSRDB+118999999V020999999999999999999999999999+99999+99999999999ADDGP10060000002000000002000000002000GR100600000900009
001572580524172200011160759O+40067-118550SOD  +118999999V020999999999999999999999999999+99999+99999999999ADDAT1MW01FG  1
0133725805241722000111810521+40070-118560FM-15+1190KLOL V0209999C000012200019N0482801N1-00801-00901103381ADDGF100991999999999999999999MA1103121999999MW1001REMMET055KLOL 181052Z 00000KT 30SM SKC M08/M09 A3045 RMK SLP338;EQDQ01+000000PRSWM2
0312725805241722000111900513+40067-118550FM-15+1189LOL  V0202505N001552200059N0480005N1+00325+00035103245ADDGD11995+0750019GF101995999999999999999999MA1102911999999MW1001REMMET057KLOL 190051Z 25003KT 30SM FEW250 03/M04 A3039 RMK SLP324;EQDQ01+000000PRSWM2N01 00000JPWTH 0QNNE71D0 00299F71 0 00199G71U0 99999K71D0 00033J71 0 00003L71 0 03000N71 0 00000Q71 0 10324S71D0 00038R71 0 00032V71D0 00199U71 0 00199X71 0 25003
0209725805241722000112005541+40070-118560FM-15+1190KLOL V02099999999992200019N0482801N1-00201-00501103041ADDGD12991+0660019GF104991999999999999999999KA1999M+00671KA2999N-00231MA1102811999999MD1110051+9999MW1001REMMET076KLOL 200554Z VRB03KT 30SM SCT220 M02/M05 A3036 RMK SLP304 10067 21023 51005;EQDQ01+000000PRSWM2
0152725805241722000112909124+40070-118560FM-16+1190KLOL V0202001N001512200019N0321861N1-00101-00301999999ADDGD12991+0021019GF102991999999999999999999MA1101521999999MW1001REMMET059KLOL 290912Z 20003KT 20SM FEW007 M01/M03 A2998 RMK VIS S 2;EQDQ01+000000PRSWM2
0260725805241722000113007003+40067-118550FM-15+1189LOL  V0200405N003652200059N048000599-00105-00185102405ADDGD10005+9999999GF100995999999999999999999GP10060000002000000002000000002000GR100600000900009EQDN01 00000JPWTH 0QNNE71D0 00000F71 0 00000G71U0 99999K71D0 00029J71 0-00018L71 0 03000N71 0 00000Q71 0 10240S71D0 00030R71 0-00010V71D0 00099U71 0 00099X71 0 04007
0279725805241722000120121523+40067-118550FM-15+1189LOL  V0203505N00155067065MN0800005N1+00905-00201102275ADDGD13995+0670659GF107991999999999999999999MA1102205999999MW1001REMMET057KLOL 012152Z 35003KT 50SM BKN220 09/M02 A3018 RMK SLP227;EQDQ01+000000PRSWM2N01 00000JPWTH 0QNNAA1D0 04220BA1 0 04220GA1 0 00220LA1 0 05000CA1 0 03018NA1 0 00000QA1 0 10227SA1D0 00048RA1 0 00090YA1 0 35003
0071725805241722000120416009+40067-118550NSRDB+118999999V020999999999999999999999999999+99999+99999999999ADDGP10060003602009028302021001502009GQ100600856912419GR100600103913509
0303725805241722000120706533+40067-118550FM-15+1189LOL  V0200805N00215220005MN0160005N1-00725-01065102645ADDGF100991999999999999999999MA1102405999999MW1001REMMET074KLOL 070653Z AUTO 08004KT 10SM CLR M07/M11 A3024 RMK AO2 SLP264 T10721106;EQDQ01+000000PRSWM2N01 00000JPWTH 0QNNAA1D0 00000BA1 0 00000GA1U0 99999KA1D0 00013JA1 0-00106LA1 0 01000CA1 0 03024NA1 0 00000QA1 0 10264SA1D0 00019RA1 0-00072YA1 0 08004
0054725805241722000120712009+40067-118550NSRDB+118999999V020999999999999999999999999999+99999+99999999999ADDGP10060000002000000002000000002000GR100600000900009
0071725805241722000120716009+40067-118550NSRDB+118999999V020999999999999999999999999999+99999+99999999999ADDGP10060001602009001802021001502009GQ100600859912439GR100600093913049
0320725805241722000120915533+40067-118550FM-15+1189LOL  V0209999C00005030485MN0144005N1-00505-00675102125ADDGD14995+0304859GF108991999999999999999999MA1101795999999MW1001REMMET076KLOL 091553Z AUTO 00000KT 9SM OVC100 M05/M07 A3006 RMK AO2 SLP212 T10501067;EQDQ01+000000PRSWM2N01 00000JPWTH 0QNNAA1D0 06100BA1 0 06100GA1 0 00100KA1D0 00020JA1 0-00067LA1 0 00900CA1 0 03006NA1 0 00000QA1 0 10212SA1D0 00023RA1 0-00050YA1 0 00000
0544725805241722000121011533+40067-118550FM-15+1189LOL  V0209999C00005015245MN0096005N1+00225-00065101525ADDAA101000021AA206003891AA324003891GD11995+0115859GD23995+0152459GD34995+0182959GF108991999999999999999999KA1999M+00331KA2999N+00171MA1101465999999MD1810011+9999MW1055REMMET137KLOL 101153Z AUTO 00000KT 6SM HZ FEW038 BKN050 OVC060 02/M01 A2996 RMK AO2 RAB38E48 SLP152 P0000 60015 70015 T00221006 10033 20017 58001;EQDQ01+000003PRSWM1Q02    003PRSWM1N01 00081JPWTH 0QNNAA1D0 02038BA1 0 01038AA1D0 04050BA1 0 04050AA1D0 06060BA1 0 06060GA1 0 00050KA1D0 00031JA1 0-00006LA1 0 00600CA1 0 02996NA1 0 00081QA1 0 10152SA1D0 00036RA1 0 00022YA1 0 00000
0071725805241722000121020009+40067-118550NSRDB+118999999V020999999999999999999999999999+99999+99999999999ADDGP10060037702009048002021016002009GQ100600633917569GR100600634914119
0071725805241722000121316009+40067-118550NSRDB+118999999V020999999999999999999999999999+99999+99999999999ADDGP10060002202009017302021001302009GQ100600863912469GR100600076911889
0322725805241722000121402533+40067-118550FM-15+1189LOL  V0202305N00525220005MN0160005N1+00615-00335101205ADDGF100991999999999999999999MA1101085999999MD1810061+9999MW1001REMMET079KLOL 140253Z AUTO 23010KT 10SM CLR 06/M03 A2985 RMK AO2 SLP120 T00611033 58006;EQDQ01+000000PRSWM2N01 00000JPWTH 0QNNAA1D0 00000BA1 0 00000GA1U0 99999KA1D0 00026JA1 0-00033LA1 0 01000CA1 0 02985NA1 0 00000QA1 0 10120SA1D0 00043RA1 0 00061YA1 0 23010
0375725805241722000121422533+40067-118550FM-15+1189LOL  V0202505N00675019815MN0160005N1+00895-00335101885ADDGD13995+0198159GD24995+0243859GF108991999999999999999999MA1101865999999MW1001OC100871REMMET086KLOL 142253Z AUTO 25013G17KT 10SM BKN065 OVC080 09/M03 A3008 RMK AO2 SLP188 T00891033;EQDQ01+000000PRSWM2N01 00000JPWTH 0QNNAA1D0 04065BA1 0 04065AA1D0 06080BA1 0 06080GA1 0 00065KA1D0 00026JA1 0-00033LA1 0 01000CA1 0 03008NA1 0 00000QA1 0 10188SA1D0 00048RA1 0 00089YA1 0 25013
0054725805241722000121506009+40067-118550NSRDB+118999999V020999999999999999999999999999+99999+99999999999ADDGP10060000002000000002000000002000GR100600000900009
0071725805241722000121718009+40067-118550NSRDB+118999999V020999999999999999999999999999+99999+99999999999ADDGP10060029202009080702021003402009GQ100600714914629GR100600449914139
0303725805241722000121806533+40067-118550FM-15+1189LOL  V0201005N00215220005MN0160005N1-00785-01285103875ADDGF100991999999999999999999MA1103595999999MW1001REMMET074KLOL 180653Z AUTO 10004KT 10SM CLR M08/M13 A3059 RMK AO2 SLP387 T10781128;EQDQ01+000000PRSWM2N01 00000JPWTH 0QNNAA1D0 00000BA1 0 00000GA1U0 99999KA1D0 00009JA1 0-00128LA1 0 01000CA1 0 03059NA1 0 00000QA1 0 10387SA1D0 00018RA1 0-00078YA1 0 10004
0054725805241722000121809009+40067-118550NSRDB+118999999V020999999999999999999999999999+99999+99999999999ADDGP10060000002000000002000000002000GR100600000900009
0255725805241722000122001003+40067-118550FM-15+1189LOL  V0201705N00155220005MN016000599+00175-01005102475ADDGD10995+9999999GP10060000002009000002021000002009GQ100600878923689GR100600026906959MA1102175999999EQDN01 00000JPWTH 0QNNAA1D0 00000BA1 0 00000GA1U0 99999KA1D0 00014JA1 0-00100LA1 0 01000CA1 0 03017NA1 0 00000QA1 0 10247SA1D0 00035RA1 0 00017YA1 0 17003
0385725805241722000122011533+40067-118550FM-15+1189LOL  V0209999C00005030485MN0160005N1-00615-01005102495ADDGD14995+0304859GF108991999999999999999999KA1999M-00281KA2999N-00891MA1102275999999MD1010041+9999MW1001REMMET101KLOL 201153Z AUTO 00000KT 10SM OVC100 M06/M10 A3020 RMK AO2 SLP249 7//// T10611100 11028 21089 50004;EQDQ01+000000PRSWM2N01 00000JPWTH 0QNNAA1D0 06100BA1 0 06100GA1 0 00100KA1D0 00014JA1 0-00100LA1 0 01000CA1 0 03020NA1 0 00000QA1 0 10249SA1D0 00021RA1 0-00061YA1 0 00000
0303725805241722000122213533+40067-118550FM-15+1189LOL  V0200405N00365220005MN0160005N1-00285-00895101855ADDGF100991999999999999999999MA1101765999999MW1001REMMET074KLOL 221353Z AUTO 04007KT 10SM CLR M03/M09 A3005 RMK AO2 SLP185 T10281089;EQDQ01+000000PRSWM2N01 00000JPWTH 0QNNAA1D0 00000BA1 0 00000GA1U0 99999KA1D0 00016JA1 0-00089LA1 0 01000CA1 0 03005NA1 0 00000QA1 0 10185SA1D0 00027RA1 0-00028YA1 0 04007
0054725805241722000122315009+40067-118550NSRDB+118999999V020999999999999999999999999999+99999+99999999999ADDGP10060000002000000002000000002000GR100600000900009
0328725805241722000122419533+40067-118550FM-15+1189LOL  V0203405N00315220005MN0160005N1+00675-00565102435ADDAA101000021GF100991999999999999999999MA1102345999999MW1001REMMET088KLOL 241953Z AUTO 34006KT 10SM CLR 07/M06 A3022 RMK AO2 RAB03E12 SLP243 P0000 T00671056;EQDQ01+000000PRSWM2N01 00000JPWTH 0QNNAA1D0 00000BA1 0 00000GA1U0 99999KA1D0 00022JA1 0-00056LA1 0 01000CA1 0 03022NA1 0 00000QA1 0 10243SA1D0 00044RA1 0 00067YA1 0 34006
0303725805241722000122618533+40067-118550FM-15+1189LOL  V0209999C00005220005MN0160005N1-00065-00615103745ADDGF100991999999999999999999MA1103395999999MW1001REMMET074KLOL 261853Z AUTO 00000KT 10SM CLR M01/M06 A3053 RMK AO2 SLP374 T10061061;EQDQ01+000000PRSWM2N01 00000JPWTH 0QNNAA1D0 00000BA1 0 00000GA1U0 99999KA1D0 00021JA1 0-00061LA1 0 01000CA1 0 03053NA1 0 00000QA1 0 10374SA1D0 00031RA1 0-00006YA1 0 00000
0278725805241722000123121533+40067-118550FM-15+1189LOL  V0202605N002652200019N0160005N1+00615-00505102475ADDGD10995+9999999MA1102205999999MW1001REMMET071KLOL 312153Z AUTO 26005KT 10SM 06/M05 A3018 RMK AO2 SLP247 T00611050 $;EQDQ01+000000PRSWM2N01 00000JPWTH 0QNNAA1D0 00999BA1 0 00999KA1D0 00023JA1 0-00050LA1 0 01000CA1 0 03018NA1 0 00000QA1 0 10247SA1D0 00043RA1 0 00061YA1 0 26005
0071725810999992000010600009+40717-114033NSRDB+129199999V020999999999999999999999999999+99999+99999999999ADDGP10060016102009055602021008802009GQ100600825923149GR100600184914159
0203725810999992000010701003+40730-114030FM-15+1292KENV V0200401N002112200019N0160931N1-00301-00901999999ADDGF100991999999999999999999GP10060000002009000002021000002009GQ100600884923849GR100600014905079MA1103081999999MW1001REMMET057KENV 070055Z AUTO 04004KT 10SM CLR M03/M09 A3044 RMK AO1;EQDQ01+000000PRSWM2
0202725810999992000010720003+40730-114030FM-15+1292KENV V0201401N003612200019N0160931N1+00101-00901999999ADDGF100991999999999999999999GP10060042102009051602021018802009GQ100600633917689GR100600637914159MA1102681999999MW1001REMMET056KENV 071955Z AUTO 14007KT 10SM CLR 01/M09 A3032 RMK AO1;EQDQ01+000000PRSWM2
0135725810999992000012818354+40730-114030FM-15+1292KENV V0201301N002112200019N0160931N1-00101-00801999999ADDGF100991999999999999999999MA1102681999999MW1001REMMET057KENV 281935Z AUTO 13004KT 10SM CLR M01/M08 A3032 RMK AO1;EQDQ01+000000PRSWM2
0261725810999992000020218003+40730-114030FM-15+1292KENV V0200701N001512200019N0160931N1-00301-00501999999ADDGF100991999999999999999999GP10060030402009035802021015902009GQ100600661914329GR100600569914089KA1999M-00301KA2999N-00701MA1103181999999MD1210071+9999MW1001REMMET075KENV 021755Z AUTO 07003KT 10SM CLR M03/M05 A3047 RMK AO1 11030 21070 52007;EQDQ01+000000PRSWM2
0186725810999992000020302003+40730-114030FM-15+1292KENV V0209999C000012200019N0160931N1-00101-00201999999ADDGF100991999999999999999999GP10060000002000000002000000002000GR100600000900009MA1102951999999MW1001REMMET057KENV 030155Z AUTO 00000KT 10SM CLR M01/M02 A3040 RMK AO1;EQDQ01+000000PRSWM2
0223725810999992000020317003+40730-114030FM-15+1292KENV V0209999C000010003019N0004021N1-00501-00601999999ADDGD14991+0003019GF108991999999999999999999GP10060026502009069002021007002009GQ100600737913029GR100600395914089MA1102711999999MW1001REMMET062KENV 031655Z AUTO 00000KT M1/4SM OVC001 M05/M06 A3033 RMK AO1;EQDQ01+000000PRSWM2
0242725810999992000021406003+40730-114030FM-15+1292KENV V0202801N002612200019N0160931N1+00601+00101999999ADDGF100991999999999999999999GP10060000002000000002000000002000GR100600000900009KA1999M+00701KA2999N+00301MA1100981999999MD1210141+9999MW1001REMMET073KENV 140555Z AUTO 28005KT 10SM CLR 06/01 A2982 RMK AO1 10070 20030 52014;EQDQ01+000000PRSWM2
0202725810999992000021902003+40730-114030FM-15+1292KENV V0201901N001512200019N0160931N1+00401-00201999999ADDGF100991999999999999999999GP10060000002009000002021000002009GQ100600890925419GR100600005902929MA1102511999999MW1001REMMET056KENV 190155Z AUTO 19003KT 10SM CLR 04/M02 A3027 RMK AO1;EQDQ01+000000PRSWM2
0183725810999992000022211003+40730-114030FM-15+1292KENV V0209999C000012200019N0096561N1+00101+00001999999ADDGF100991999999999999999999GP10060000002000000002000000002000GR100600000900009MA1101321999999MW1001REMMET054KENV 221055Z AUTO 00000KT 6SM CLR 01/00 A2992 RMK AO1;EQDQ01+000000PRSWM2
0205725810999992000022603003+40730-114030FM-15+1292KENV V0203501N004612200019N0160931N1+00201-00801999999ADDGF100991999999999999999999GP10060000002000000002000000002000GR100600000900009MA1102031999999MD1210171+9999MW1001REMMET062KENV 260255Z AUTO 35009KT 10SM CLR 02/M08 A3013 RMK AO1 52017;EQDQ01+000000PRSWM2
0241725810999992000022915003+40730-114030FM-15+1292KENV V0200301N001510300019N0160931N1-00201-00501999999ADDGD13991+0300019GF107991999999999999999999GP10060002302009034702021000502009GQ100600859910369GR100600079911039MA1101731999999MD1210031+9999MW1001REMMET066KENV 291455Z AUTO 03003KT 10SM BKN100 M02/M05 A3004 RMK AO1 52003;EQDQ01+000000PRSWM2
0071725810999992000030717009+40717-114033NSRDB+129199999V020999999999999999999999999999+99999+99999999999ADDGP10060025602009012602021020102009GQ100600642912319GR100600604913889
0220725810999992000031002003+40730-114030FM-15+1292KENV V0202801N002610300019N0160931N1+00501-00401999999ADDGD13991+0300019GF107991999999999999999999GP10060000302009007002021000202009GQ100600870926229GR100600043908209MA1101861999999MW1001REMMET059KENV 100155Z AUTO 28005KT 10SM BKN100 05/M04 A3008 RMK AO1;EQDQ01+000000PRSWM2
0185725810999992000031211003+40730-114030FM-15+1292KENV V0209999C000012200019N0160931N1+00101-00101999999ADDGF100991999999999999999999GP10060000002000000002000000002000GR100600000900009MA1102401999999MW1001REMMET056KENV 121055Z AUTO 00000KT 10SM CLR 01/M01 A3024 RMK AO1;EQDQ01+000000PRSWM2
0253725810999992000032002003+40730-114030FM-15+1292KENV V0203201N003110210019N0160931N1+00101-00801999999ADDGD13991+0210019GD23991+0270019GF107991999999999999999999GP10060002002008017502015001102008GQ100600860926669GR100600075910689MA1101191999999MW1001OC100871REMMET069KENV 200155Z AUTO 32006G17KT 10SM BKN075 BKN090 01/M08 A2988 RMK AO1;EQDQ01+000000PRSWM2
0240725810999992000033015003+40730-114030FM-15+1292KENV V0202801N007710210019N0160931N1+00301-00601999999ADDGD13991+0210019GF107991999999999999999999GP10060017002008062302015003902008GQ100600779909519GR100600286913709MA1102401999999MD1210341+9999MW1001REMMET065KENV 301455Z AUTO 28015KT 10SM BKN070 03/M06 A3024 RMK AO1 52034;EQDQ01+000000PRSWM2
0196725810999992000040305003+40730-114030FM-15+1292KENV V0203401N007212200019N0160931N1+01401-00201999999ADDGF100991999999999999999999GP10060000002000000002000000002000GR100600000900009MA1102131999999MW1001OC100871REMMET059KENV 030455Z AUTO 34014G17KT 10SM CLR 14/M02 A3016 RMK AO1;EQDQ01+000000PRSWM2
0071725810999992000040718009+40717-114033NSRDB+129199999V020999999999999999999999999999+99999+99999999999ADDGP10060074502008089402015010202008GQ100600441913109GR100600978913639
0054725810999992000040913009+40717-114033NSRDB+129199999V020999999999999999999999999999+99999+99999999999ADDGP10060000002000000002000000002000GR100600000900009
0212725810999992000041322003+40730-114030FM-15+1292KENV V0202901N007712200019N0160931N1+02201+00001999999ADDGF100991999999999999999999GP10060038602008006702015033402008GQ100600402922649GR100601036913599MA1100851999999MW1001OC100981REMMET058KENV 132155Z AUTO 29015G19KT 10SM CLR 22/00 A2978 RMK AO1;EQDQ01+000000PRSWM2
0220725810999992000041601003+40730-114030FM-15+1292KENV V0201201N003612200019N0160931N1+01501-00101999999ADDGD12991+0300019GF102991999999999999999999GP10060032502008046902015017102008GQ100600709926709GR100600444913579MA1101021999999MW1001REMMET059KENV 160055Z AUTO 12007KT 10SM FEW100 15/M01 A2983 RMK AO1;EQDQ01+000000PRSWM2
0223725810999992000041809003+40730-114030FM-15+1292KENV V0201401N003112200019N0160931N1+01401-00501999999ADDGD12991+0330019GF104991999999999999999999GP10060000002000000002000000002000GR100600000900009MA1100411999999MD1710141+9999MW1001REMMET065KENV 180855Z AUTO 14006KT 10SM SCT110 14/M05 A2965 RMK AO1 57014;EQDQ01+000000PRSWM2
0264725810999992000042323003+40730-114030FM-15+1292KENV V0200401N003612200019N0160931N1+01601-00101999999ADDGD12991+0120019GD22991+0144019GD32991+0180019GF104991999999999999999999GP10060026902008001202015026102008GQ100600474924679GR100600914913519MA1101391999999MW1001REMMET073KENV 232255Z AUTO 04007KT 10SM FEW040 FEW048 SCT060 16/M01 A2994 RMK AO1;EQDQ01+000000PRSWM2
0260725810999992000050218003+40730-114030FM-15+1292KENV V0200801N007212200019N0160931N1+02101-00301999999ADDGF100991999999999999999999GP10060083902008092002015010002008GQ100600367912469GR100601077913449KA1999M+02301KA2999N+01101MA1101491999999MD1210031+9999MW1001REMMET074KENV 021755Z AUTO 08014KT 10SM CLR 21/M03 A2997 RMK AO1 10230 20110 52003;EQDQ01+000000PRSWM2
0274725810999992000050522003+40730-114030FM-15+1292KENV V0203201N009310180019N0160931N1+01201+00301999999ADDGD12991+0102019GD22991+0117019GD33991+0180019GF107991999999999999999999GP10060044802008010302015036302008GQ100600351923469GR100601097913429MA1101321999999MW1001OC101291REMMET075KENV 052155Z AUTO 32018G25KT 10SM FEW034 FEW039 BKN060 12/03 A2992 RMK AO1;EQDQ01+000000PRSWM2
0331725810999992000050600003+40730-114030FM-15+1292KENV V0203101N005710180019N0160931N1+01301+00201999999ADDGD12991+0096019GD22991+0117019GD34991+0180019GF108991999999999999999999GP10060012602008000002015012602008GQ100600562926289GR100600746913429KA1999M+01401KA2999N+01101MA1101291999999MD1710031+9999MW1001REMMET100KENV 052355Z AUTO 31011KT 10SM FEW032 SCT039 OVC060 13/02 A2991 RMK AO1 10140 20110 402700110 57003;EQDQ01+000000PRSWM2
0259725810999992000052018003+40730-114030FM-15+1292KENV V0201401N002612200019N0160931N1+02201+00101999999ADDGF100991999999999999999999GP10060090502008096902015009502008GQ100600333911949GR100601114913349KA1999M+02201KA2999N+01201MA1102271999999MD1710071+9999MW1001REMMET073KENV 201755Z AUTO 14005KT 10SM CLR 22/01 A3020 RMK AO1 10220 20120 57007;EQDQ01+000000PRSWM2
0195725810999992000052505003+40730-114030FM-15+1292KENV V0202001N006212200019N0160931N1+01801+01001999999ADDGF100991999999999999999999GP10060000002000000002000000002000GR100600000900009MA1101121999999MW1001OC100931REMMET058KENV 250455Z AUTO 20012G18KT 10SM CLR 18/10 A2986 RMK AO1;EQDQ01+000000PRSWM2
0205725810999992000060409003+40730-114030FM-15+1292KENV V0209999C000012200019N0160931N1+02101-00101999999ADDGF100991999999999999999999GP10060000002000000002000000002000GR100600000900009MA1102031999999MD1210071+9999MW1001REMMET062KENV 040855Z AUTO 00000KT 10SM CLR 21/M01 A3013 RMK AO1 52007;EQDQ01+000000PRSWM2
0217725810999992000060616003+40730-114030FM-15+1292KENV V0201201N004112200019N9999999N1+02501-00201999999ADDGF100991999999999999999999GP10060058602008090102015005502008GQ100600539908989GR100600780913269MA1101731999999MW1001REMMET055KENV 061555Z AUTO 12008KT 3SM CLR 25/M02 A3004 RMK AO1;EQDQ01+048282VODIS Q02+000000PRSWM2
0185725810999992000060805003+40730-114030FM-15+1292KENV V0202001N006712200019N0160931N1+02601-00701999999ADDGF100991999999999999999999GP10060000002000000002000000002000GR100600000900009MA1100581999999MW1001REMMET056KENV 080455Z AUTO 20013KT 10SM CLR 26/M07 A2970 RMK AO1;EQDQ01+000000PRSWM2
0212725810999992000061220003+40730-114030FM-15+1292KENV V0202301N006712200019N0160931N1+02701+00201999999ADDGF100991999999999999999999GP10060046402008006002015040702008GQ100600179917559GR100601260913249MA1101521999999MW1001OC101031REMMET058KENV 121955Z AUTO 23013G20KT 10SM CLR 27/02 A2998 RMK AO1;EQDQ01+000000PRSWM2
0243725810999992000062112003+40730-114300FM-15+1292KENV V0200501N002112200019N0160931N1+01401-00401999999ADDGF100991999999999999999999GP10060000002000000002000000002000GR100600000900009KA1999M+01701KA2999N+01401MA1101961999999MD1210071+9999MW1001REMMET074KENV 211155Z AUTO 05004KT 10SM CLR 14/M04 A3011 RMK AO1 10170 20140 52007;EQDQ01+000000PRSWM2
0185725810999992000062210003+40730-114300FM-15+1292KENV V0202801N002612200019N0160931N1+01801-00601999999ADDGF100991999999999999999999GP10060000002000000002000000002000GR100600000900009MA1101391999999MW1001REMMET056KENV 220955Z AUTO 28005KT 10SM CLR 18/M06 A2994 RMK AO1;EQDQ01+000000PRSWM2
0280725810999992000063022003+40730-114300FM-15+1292KENV V0200301N003110360019N0160931N1+02401+01301999999ADDAA101000591GD12991+0033019GD22991+0150019GD33991+0360019GF107991999999999999999999GP10060025702008000602015025102008GQ100600291924079GR100601153913219MA1101461999999MW1001REMMET078KENV 302155Z AUTO 03006KT 10SM FEW011 SCT050 BKN120 24/13 A2996 RMK AO1 P0002;EQDQ01+000000PRSWM2
0201725810999992000070116003+40730-114300FM-15+1292KENV V0200701N003112200019N0160931N1+02401+00801999999ADDGF100991999999999999999999GP10060052202008065602015014302008GQ100600547908879GR100600762913219MA1101391999999MW1001REMMET055KENV 011555Z AUTO 07006KT 10SM CLR 24/08 A2994 RMK AO1;EQDQ01+000000PRSWM2
0202725810999992000070416003+40730-114300FM-15+1292KENV V0200601N003612200019N0160931N1+02101-00101999999ADDGF100991999999999999999999GP10060055202008081302015008502008GQ100600550908889GR100600757913219MA1101561999999MW1001REMMET056KENV 041555Z AUTO 06007KT 10SM CLR 21/M01 A2999 RMK AO1;EQDQ01+000000PRSWM2
0212725810999992000070819003+40730-114300FM-15+1292KENV V0201701N008212200019N0160931N1+03201+00201999999ADDGF100991999999999999999999GP10060064702008029902015037402008GQ100600239913599GR100601207913219MA1101421999999MW1001OC100981REMMET058KENV 081855Z AUTO 17016G19KT 10SM CLR 32/02 A2995 RMK AO1;EQDQ01+000000PRSWM2
0171725810999992000070913003+40730-114300FM-15+1292KENV V0203301N005112200019N9999999N1+02301-00101999999ADDGP10060001202008021702015000402008GQ100600866906309GR100600059909809MA1101521999999MW1001REMMET051KENV 091255Z AUTO 33010KT CLR 23/M01 A2998 RMK AO1;EQDQ01+000000PRSWM2
0246725810999992000071704003+40730-114300FM-15+1292KENV V0201401N002610360019N0160931N1+02901+00801999999ADDGD13991+0360019GF107991999999999999999999GP10060000002008000002015000002008GQ100600898929879GR100600000900779MA1101351999999MW1001REMMET085KENV 170355Z AUTO 14005KT 10SM BKN120 29/08 A2993 RMK AO1 LTG DSNT NE AND S TSB28E43;EQDQ01+000000PRSWM2
0201725810999992000071816003+40730-114020FM-15+1292KENV V0201301N003612200019N0160931N1+02501+00601999999ADDGF100991999999999999999999GP10060052102008081102015007302008GQ100600564909049GR100600731913239MA1102301999999MW1001REMMET055KENV 181555Z AUTO 13007KT 10SM CLR 25/06 A3021 RMK AO1;EQDQ01+000000PRSWM2
0202725810999992000072004003+40730-114020FM-15+1292KENV V0200401N002612200019N0160931N1+02701-00201999999ADDGF100991999999999999999999GP10060000002008000002015000002008GQ100600899929819GR100600000900339MA1101801999999MW1001REMMET056KENV 200355Z AUTO 04005KT 10SM CLR 27/M02 A3006 RMK AO1;EQDQ01+000000PRSWM2
0204725810999992000072209003+40730-114020FM-15+1292KENV V0202101N001512200019N0160931N1+02101+00101999999ADDGF100991999999999999999999GP10060000002000000002000000002000GR100600000900009MA1101591999999MD1210031+9999MW1001REMMET061KENV 220855Z AUTO 21003KT 10SM CLR 21/01 A3000 RMK AO1 52003;EQDQ01+000000PRSWM2
0201725810999992000072520003+40730-114020FM-15+1292KENV V0200801N004112200019N0144841N1+03301-00201999999ADDGF100991999999999999999999GP10060091902008072602015024302008GQ100600217917209GR100601230913249MA1101591999999MW1001REMMET055KENV 251955Z AUTO 08008KT 9SM CLR 33/M02 A3000 RMK AO1;EQDQ01+000000PRSWM2
0280725810999992000080300003+40730-114020FM-15+1292KENV V0202401N001512200019N0128741N1+03601+00401999999ADDGF100991999999999999999999GP10060020402008000002015020402008GQ100600538926199GR100600782913279KA1999M+03801KA2999N+03401MA1101391999999MD1710101+9999MW1001REMMET094KENV 022355Z AUTO 24003KT 8SM CLR 36/04 A2994 RMK AO1 LTG DSNT NW 10380 20340 403800260 57010;EQDQ01+000000PRSWM2
0243725810999992000080621003+40730-114020FM-15+1292KENV V0200801N004112200019N0144841N1+03301+00401999999ADDGF100991999999999999999999GP10060088802008071202015025102008GQ100600266920639GR100601187913289MA1101491999999MD1710271+9999MW1001OC100721REMMET075KENV 062055Z AUTO 08008G14KT 9SM CLR 33/04 A2997 RMK AO1 LTG DSNT SW 57027;EQDQ01+000000PRSWM2
0221725810999992000080715003+40730-114020FM-15+1292KENV V0200401N001512200019N0160931N1+02601+00601999999ADDGF100991999999999999999999GP10060026302008048802015009902008GQ100600704908519GR100600444913299MA1101591999999MD1210141+9999MW1001REMMET061KENV 071455Z AUTO 04003KT 10SM CLR 26/06 A3000 RMK AO1 52014;EQDQ01+000000PRSWM2
0271725810999992000081112003+40730-114020FM-15+1292KENV V0203201N009312200019N0160931N1+02401-00401999999ADDAA124001391GF100991999999999999999999GP10060000002000000002000000002000GR100600000900009KA1999M+02901KA2999N+02401MA1101691999999MD1210171+9999MW1001OC101341REMMET083KENV 111155Z AUTO 32018G26KT 10SM CLR 24/M04 A3003 RMK AO1 70005 10290 20240 52017;EQDQ01+000000PRSWM2
0222725810999992000081203003+40730-114020FM-15+1292KENV V0200401N003612200019N0160931N1+02801-00301999999ADDGF100991999999999999999999GP10060000502008016502015000202008GQ100600870928749GR100600044908329MA1101691999999MD1710031+9999MW1001REMMET062KENV 120255Z AUTO 04007KT 10SM CLR 28/M03 A3003 RMK AO1 57003;EQDQ01+000000PRSWM2
0184725810999992000081705003+40730-114020FM-15+1292KENV V0203101N001512200019N0160931N1+02501+00701999999ADDGF100991999999999999999999GP10060000002000000002000000002000GR100600000900009MA1101861999999MW1001REMMET055KENV 170455Z AUTO 31003KT 10SM CLR 25/07 A3008 RMK AO1;EQDQ01+000000PRSWM2
0232725810999992000081921003+40730-114020FM-15+1292KENV V0200701N005112200019N0160931N1+03201+00001999999ADDGF100991999999999999999999GP10060092902008097802015008502008GQ100600305920479GR100601149913349MA1101461999999MD1710271+9999MW1001OC100721REMMET064KENV 192055Z AUTO 07010G14KT 10SM CLR 32/00 A2996 RMK AO1 57027;EQDQ01+000000PRSWM2
0185725810999992000082007003+40730-114020FM-15+1292KENV V0201401N007212200019N0160931N1+02401-00601999999ADDGF100991999999999999999999GP10060000002000000002000000002000GR100600000900009MA1101561999999MW1001REMMET056KENV 200655Z AUTO 14014KT 10SM CLR 24/M06 A2999 RMK AO1;EQDQ01+000000PRSWM2
0201725810999992000082423003+40730-114020FM-15+1292KENV V0201501N003612200019N0160931N1+03201+00701999999ADDGF100991999999999999999999GP10060067002008083902015011002008GQ100600482924379GR100600890913379MA1102031999999MW1001REMMET055KENV 242255Z AUTO 15007KT 10SM CLR 32/07 A3013 RMK AO1;EQDQ01+000000PRSWM2
0219725810999992000082623003+40730-114020FM-15+1292KENV V0203001N002112200019N0160931N1+02801+00801999999ADDGD12991+0270019GF104991999999999999999999GP10060038802008011102015031502008GQ100600488924329GR100600880913389MA1101521999999MW1001REMMET058KENV 262255Z AUTO 30004KT 10SM SCT095 28/08 A2998 RMK AO1;EQDQ01+000000PRSWM2
0184725810999992000082807003+40730-114020FM-15+1292KENV V0209999C000012200019N0160931N1+02201+01101999999ADDGF100991999999999999999999GP10060000002000000002000000002000GR100600000900009MA1101321999999MW1001REMMET055KENV 280655Z AUTO 00000KT 10SM CLR 22/11 A2992 RMK AO1;EQDQ01+000000PRSWM2
0338725810999992000083018003+40730-114020FM-15+1292KENV V0209999C000010114019N0160931N1+01801+01301999999ADDAA106000591GD13991+0114019GD23991+0141019GD34991+0150019GF108991999999999999999999GP10060026202008001202015025302008GQ100600426913029GR100600986913419KA1999M+01901KA2999N+01701MA1101491999999MD1210101+9999MW1001REMMET096KENV 301755Z AUTO 00000KT 10SM BKN038 BKN047 OVC055 18/13 A2997 RMK AO1 60002 10190 20170 52010;EQDQ01+000000PRSWM2
0202725810999992000090801003+40730-114020FM-15+1292KENV V0201401N002112200019N0160931N1+02401-00201999999ADDGF100991999999999999999999GP10060027802008083102015005102008GQ100600742926389GR100600366913469MA1101561999999MW1001REMMET056KENV 080055Z AUTO 14004KT 10SM CLR 24/M02 A2999 RMK AO1;EQDQ01+000000PRSWM2
0204725810999992000091509003+40730-114020FM-15+1292KENV V0201101N001512200019N0160931N1+01701+00101999999ADDGF100991999999999999999999GP10060000002000000002000000002000GR100600000900009MA1101831999999MD1410001+9999MW1001REMMET061KENV 150855Z AUTO 11003KT 10SM CLR 17/01 A3007 RMK AO1 54000;EQDQ01+000000PRSWM2
0185725810999992000092504003+40730-114020FM-15+1292KENV V0202801N001512200019N0160931N1+00701-00601999999ADDGF100991999999999999999999GP10060000002000000002000000002000GR100600000900009MA1102781999999MW1001REMMET056KENV 250355Z AUTO 28003KT 10SM CLR 07/M06 A3035 RMK AO1;EQDQ01+000000PRSWM2
0071725810999992000100214009+40717-114033NSRDB+129199999V020999999999999999999999999999+99999+99999999999ADDGP10060000002008000002015000002008GQ100600879909669GR100600020905589
0196725810999992000102202003+40730-114020FM-15+1292KENV V0200101N014912200019N0160931N1+00801-00601999999ADDGF100991999999999999999999GP10060000002000000002000000002000GR100600000900009MA1101591999999MW1001OC101851REMMET059KENV 220155Z AUTO 01029G36KT 10SM CLR 08/M06 A3000 RMK AO1;EQDQ01+000000PRSWM2
0224725810999992000102711003+40730-114020FM-15+1292KENV V0200401N002610132019N0160931N1+00801+00401999999ADDGD13991+0132019GD23991+0300019GF107991999999999999999999GP10060000002000000002000000002000GR100600000900009MA1101151999999MW1001REMMET065KENV 271055Z AUTO 04005KT 10SM BKN044 BKN100 08/04 A2987 RMK AO1;EQDQ01+000000PRSWM2
0151725810999992000103015354+40730-114020FM-15+1292KENV V0200301N003110066019N0160931N1+00501+00101999999ADDGD14991+0066019GF108991999999999999999999MA1101191999999MW1001REMMET058KENV 301535Z AUTO 03006KT 10SM OVC022 05/01 A2988 RMK AO1;EQDQ01+000000PRSWM2
0071725810999992000103022009+40717-114033NSRDB+129199999V020999999999999999999999999999+99999+99999999999ADDGP10060014302009000002021014302009GQ100600626921599GR100600637913889
0071725810999992000103023009+40717-114033NSRDB+129199999V020999999999999999999999999999+99999+99999999999ADDGP10060007702009000002021007702009GQ100600703922949GR100600467913889
0071725810999992000103117009+40717-114033NSRDB+129199999V020999999999999999999999999999+99999+99999999999ADDGP10060023202009016502021016902009GQ100600677913519GR100600527913889
0153725810999992000111617354+40730-114020FM-15+1292KENV V0201501N002112200019N0160931N1-00201-00801999999ADDGD12991+0102019GF104991999999999999999999MA1102271999999MW1001REMMET060KENV 161735Z AUTO 15004KT 10SM SCT034 M02/M08 A3020 RMK AO1;EQDQ01+000000PRSWM2
0054725810999992000111706009+40717-114033NSRDB+129199999V020999999999999999999999999999+99999+99999999999ADDGP10060000002000000002000000002000GR100600000900009
0054725810999992000111813009+40717-114033NSRDB+129199999V020999999999999999999999999999+99999+99999999999ADDGP10060000002000000002000000002000GR100600000900009
0054725810999992000112904009+40717-114033NSRDB+129199999V020999999999999999999999999999+99999+99999999999ADDGP10060000002000000002000000002000GR100600000900009
0134725810999992000112920354+40730-114020FM-15+1292KENV V0201101N002612200019N0160931N1+00401-00201999999ADDGF100991999999999999999999MA1101221999999MW1001REMMET056KENV 292035Z AUTO 11005KT 10SM CLR 04/M02 A2989 RMK AO1;EQDQ01+000000PRSWM2
0135725810999992000120605354+40730-114020FM-15+1292KENV V0209999C000012200019N0160931N1-00301-00701999999ADDGF100991999999999999999999MA1103011999999MW1001REMMET057KENV 060535Z AUTO 00000KT 10SM CLR M03/M07 A3042 RMK AO1;EQDQ01+000000PRSWM2
0071725810999992000120801009+40717-114033NSRDB+129199999V020999999999999999999999999999+99999+99999999999ADDGP10060000002009000002021000002009GQ100600895923939GR100600001901539
0054725810999992000120903009+40717-114033NSRDB+129199999V020999999999999999999999999999+99999+99999999999ADDGP10060000002000000002000000002000GR100600000900009
0174725810999992000121006354+40730-114020FM-15+1292KENV V0209999C000010210019N0160931N1+00101-00301999999ADDGD13991+0210019GD24991+0240019GF108991999999999999999999MA1101221999999MW1001REMMET066KENV 100635Z AUTO 00000KT 10SM BKN070 OVC080 01/M03 A2989 RMK AO1;EQDQ01+000000PRSWM2
0071725810999992000121022009+40717-114033NSRDB+129199999V020999999999999999999999999999+99999+99999999999ADDGP10060029202009039702021015402009GQ100600697920959GR100600490914119
0054725810999992000121506009+40717-114033NSRDB+129199999V020999999999999999999999999999+99999+99999999999ADDGP10060000002000000002000000002000GR100600000900009
0054725810999992000121604009+40717-114033NSRDB+129199999V020999999999999999999999999999+99999+99999999999ADDGP10060000002000000002000000002000GR100600000900009
0145725810999992000121604354+40730-114020FM-15+1292KENV V0203101N017512200019N0160931N1+00301-00901999999ADDGF100991999999999999999999MA1102401999999MW1001OC102161REMMET059KENV 160435Z AUTO 31034G42KT 10SM CLR 03/M09 A3024 RMK AO1;EQDQ01+000000PRSWM2
0071725810999992000121817009+40717-114033NSRDB+129199999V020999999999999999999999999999+99999+99999999999ADDGP10060019902009075702021002702009GQ100600769913769GR100600319914139
0054725810999992000122409009+40717-114033NSRDB+129199999V020999999999999999999999999999+99999+99999999999ADDGP10060000002000000002000000002000GR100600000900009
0071725810999992000122416009+40717-114033NSRDB+129199999V020999999999999999999999999999+99999+99999999999ADDGP10060003802009021802021002202009GQ100600856912619GR100600107914149
0145725810999992000122519354+40730-114020FM-15+1292KENV V0203201N002612200019N0160931N1+00401-00601999999ADDGF100991999999999999999999MA1102811999999MW1001OC100821REMMET059KENV 251935Z AUTO 32005G16KT 10SM CLR 04/M06 A3036 RMK AO1;EQDQ01+000000PRSWM2
0054725810999992000122604009+40717-114033NSRDB+129199999V020999999999999999999999999999+99999+99999999999ADDGP10060000002000000002000000002000GR100600000900009
0071725810999992000123119009+40717-114033NSRDB+129199999V020999999999999999999999999999+99999+99999999999ADDGP10060042002009090802021004702009GQ100600658916259GR100600579914159
0135725824999992000012703534+39520-115970FM-16+1993KP68 V0203401N003112200019N9999999N1+99999+99999102141ADDMA1102101999999MW1001REMMET083KP68 270353Z AUTO 34006KT M01/M04 A3015 RMK AO2 SLP214 T10111044 PWINO FZRANO TSNO;EQDQ01+000000PRSWM2
0134725824999992000012800534+39520-115970FM-16+1993KP68 V0200401N003112200019N0000001N1+99999+99999102301ADDMA1102171999999MW1001REMMET082KP68 280053Z AUTO 04006KT 00/M07 A3017 RMK AO2 SLP230 T00001072 PWINO FZRANO TSNO;EQDQ01+000000PRSWM2
0111725824999992000020219534+39520-115970FM-16+1993KP68 V0200901N002112200019N9999999N1+99999+99999102661ADDMW1001REMMET074KP68 021953Z AUTO 09004KT 10/00 A3037 RMK AO2 SLP266 T01000000 PWINO TSNO;EQDQ01+000000PRSWM2
0127725824999992000020522534+39520-115970FM-16+1993KP68 V0201601N006212200019N0130001N1+99999+99999101471ADDMA1101801999999MW1001REMMET075KP68 052253Z AUTO 16012KT 13/M04 A3006 RMK AO2 SLP147 T01331044 PWINO TSNO;EQDQ01+000000PRSWM2
0127725824999992000020906534+39520-115970FM-16+1993KP68 V0209999C000012200019N0060001N1+99999+99999101631ADDMA1101961999999MW1001REMMET075KP68 090653Z AUTO 00000KT 06/M08 A3011 RMK AO2 SLP163 T00561083 PWINO TSNO;EQDQ01+000000PRSWM2
0185725824999992000021005534+39520-115970FM-16+1993KP68 V0201201N003119999999N0030001N1+99999+99999101141ADDKA1999M+01111KA2999N+00171MA1101391999999MD1510001+9999MW1001REMMET093KP68 100553Z AUTO 12006KT 03/M04 A2994 RMK AO2 SLP114 T00281039 10111 20017 55000 PWINO TSNO;EQDQ01+000000PRSWM2
0135725824999992000021013534+39520-115970FM-16+1993KP68 V0201601N002112200019N9999999N1+99999+99999101291ADDMA1101291999999MW1001REMMET083KP68 101353Z AUTO 16004KT M06/M07 A2991 RMK AO2 SLP129 T10611072 PWINO FZRANO TSNO;EQDQ01+000000PRSWM2
0134725824999992000021603534+39520-115970FM-16+1993KP68 V0209999C000012200019N0020001N1+99999+99999102041ADDMA1102001999999MW1001REMMET082KP68 160353Z AUTO 00000KT 02/M08 A3012 RMK AO2 SLP204 T00171078 PWINO FZRANO TSNO;EQDQ01+000000PRSWM2
0135725824999992000021800534+39520-115970FM-16+1993KP68 V0209999C000012200019N9999999N1+99999+99999101621ADDMA1101591999999MW1001REMMET083KP68 180053Z AUTO 00000KT M01/M03 A3000 RMK AO2 SLP162 T10061028 PWINO FZRANO TSNO;EQDQ01+000000PRSWM2
0127725824999992000021822534+39520-115970FM-16+1993KP68 V0200901N001512200019N0030001N1+99999+99999102351ADDMA1102301999999MW1001REMMET075KP68 182253Z AUTO 09003KT 03/M08 A3021 RMK AO2 SLP235 T00331078 PWINO TSNO;EQDQ01+000000PRSWM2
0147725824999992000022107534+39520-115970FM-16+1993KP68 V0201501N005119999999N9999999N1+99999+99999100861ADDKA1999M+00831KA2999N+00221MW1001REMMET084KP68 210753Z AUTO 15010KT 03/00 A2986 RMK AO2 SLP086 T00280000 400830022 PWINO TSNO;EQDQ01+000000PRSWM2
0127725824999992000022309534+39520-115970FM-16+1993KP68 V0201601N009812200019N0030001N1+99999+99999100961ADDMA1101221999999MW1001REMMET075KP68 230953Z AUTO 16019KT 03/M01 A2989 RMK AO2 SLP096 T00281011 PWINO TSNO;EQDQ01+000000PRSWM2
0160725824999992000030120534+39520-115970FM-16+1993KP68 V0200101N003612200019N0020001N1+99999+99999102011ADDMA1102031999999MD1010001+9999MW1001REMMET094KP68 012053Z AUTO 01007KT 02/M03 A3013 RMK AO2 SLP201 60004 T00221033 50000 PWINO FZRANO TSNO;EQDQ01+000000PRSWM2
0127725824999992000030516534+39520-115970FM-16+1993KP68 V0201601N006712200019N0030001N1+99999+99999099601ADDMA1099901999999MW1001REMMET075KP68 051653Z AUTO 16013KT 03/M01 A2950 RMK AO2 SLP960 T00331011 PWINO TSNO;EQDQ01+000000PRSWM2
0127725824999992000030718534+39520-115970FM-16+1993KP68 V0209999V001512200019N0030001N1+99999+99999101071ADDMA1101081999999MW1001REMMET075KP68 071853Z AUTO VRB03KT 03/M08 A2985 RMK AO2 SLP107 T00281083 PWINO TSNO;EQDQ01+000000PRSWM2
0134725824999992000031103534+39520-115970FM-16+1993KP68 V0201601N004112200019N0020001N1+99999+99999102561ADDMA1102511999999MW1001REMMET082KP68 110353Z AUTO 16008KT 02/M03 A3027 RMK AO2 SLP256 T00221033 PWINO FZRANO TSNO;EQDQ01+000000PRSWM2
0138725824999992000031516534+39520-115970FM-16+1993KP68 V0202801N007712200019N0080001N1+99999+99999101421ADDMA1101691999999MW1001OC101081REMMET078KP68 151653Z AUTO 28015G21KT 08/M09 A3003 RMK AO2 SLP142 T00831094 PWINO TSNO;EQDQ01+000000PRSWM2
0135725824999992000032410534+39520-115970FM-16+1993KP68 V0202001N001512200019N9999999N1+99999+99999101701ADDMA1101861999999MW1001REMMET083KP68 241053Z AUTO 20003KT M02/M04 A3008 RMK AO2 SLP170 T10221044 PWINO FZRANO TSNO;EQDQ01+000000PRSWM2
0185725824999992000033017534+39520-115970FM-16+1993KP68 V0209999V002619999999N0030001N1+99999+99999102411ADDKA1999M+00391KA2999N-01001MA1102541999999MD1010041+9999MW1001REMMET093KP68 301753Z AUTO VRB05KT 03/M09 A3028 RMK AO2 SLP241 T00331094 10039 21100 50004 PWINO TSNO;EQDQ01+000000PRSWM2
0155725824999992000040108534+39520-115970FM-16+1993KP68 V0202001N002612200019N9999999N1+99999+99999102391ADDMA1102511999999MD1810011+9999MW1001REMMET089KP68 010853Z AUTO 20005KT M06/M14 A3027 RMK AO2 SLP239 T10611139 58001 PWINO FZRANO TSNO;EQDQ01+000000PRSWM2
0170725824999992000040307534+39520-115970FM-16+1993KP68 V0201401N004119999999N0010001N1+99999+99999102151ADDKA1999M+01831KA2999N-00391MA1102511999999MW1001REMMET092KP68 030753Z AUTO 14008KT 01/M07 A3027 RMK AO2 SLP215 T00111072 401831039 PWINO FZRANO TSNO;EQDQ01+000000PRSWM2
0193725824999992000041011534+39520-115970FM-16+1993KP68 V0202101N001519999999N9999999N1+99999+99999101531ADDKA1999M+00561KA2999N-00171MA1101861999999MD1310031+9999MW1001REMMET101KP68 101153Z AUTO 21003KT M01/M07 A3008 RMK AO2 SLP153 T10111067 10056 21017 53003 PWINO FZRANO TSNO;EQDQ01+000000PRSWM2
0158725824999992000042020534+39520-115970FM-16+1993KP68 V0201301N005712200019N0180001N1+99999+99999101641ADDMA1102031999999MD1810131+9999MW1001OC100821REMMET084KP68 202053Z AUTO 13011G16KT 18/M03 A3013 RMK AO2 SLP164 T01781028 58013 PWINO TSNO;EQDQ01+000000PRSWM2
0147725824999992000042108534+39520-115970FM-16+1993KP68 V0202101N003112200019N0030001N1+99999+99999101381ADDMA1101831999999MD1810041+9999MW1001REMMET081KP68 210853Z AUTO 21006KT 03/M06 A3007 RMK AO2 SLP138 T00281056 58004 PWINO TSNO;EQDQ01+000000PRSWM2
0127725824999992000042219534+39520-115970FM-16+1993KP68 V0202301N003612200019N0160001N1+99999+99999100941ADDMA1101391999999MW1001REMMET075KP68 221953Z AUTO 23007KT 16/M02 A2994 RMK AO2 SLP094 T01561022 PWINO TSNO;EQDQ01+000000PRSWM2
0193725824999992000042311534+39520-115970FM-16+1993KP68 V0201901N002619999999N9999999N1+99999+99999101431ADDKA1999M+00611KA2999N-00281MA1101801999999MD1310101+9999MW1001REMMET101KP68 231153Z AUTO 19005KT M02/M05 A3006 RMK AO2 SLP143 T10171050 10061 21028 53010 PWINO FZRANO TSNO;EQDQ01+000000PRSWM2
0127725824999992000042701534+39520-115970FM-16+1993KP68 V0201201N004612200019N0230001N1+99999+99999101381ADDMA1101961999999MW1001REMMET075KP68 270153Z AUTO 12009KT 23/M03 A3011 RMK AO2 SLP138 T02331033 PWINO TSNO;EQDQ01+000000PRSWM2
0147725824999992000042702534+39520-115970FM-16+1993KP68 V0200101N004112200019N0190001N1+99999+99999101441ADDMA1102031999999MD1310011+9999MW1001REMMET081KP68 270253Z AUTO 01008KT 19/M03 A3013 RMK AO2 SLP144 T01891033 53001 PWINO TSNO;EQDQ01+000000PRSWM2
0127725824999992000050304534+39520-115970FM-16+1993KP68 V0200601N002112200019N0130001N1+99999+99999100981ADDMA1101631999999MW1001REMMET075KP68 030453Z AUTO 06004KT 13/M06 A3001 RMK AO2 SLP098 T01281061 PWINO TSNO;EQDQ01+000000PRSWM2
0111725824999992000050522534+39520-115970FM-16+1993KP68 V0203501N004112200019N9999999N1+99999+99999100901ADDMW1001REMMET074KP68 052253Z AUTO 35008KT 14/04 A2992 RMK AO2 SLP090 T01390044 PWINO TSNO;EQDQ01+000000PRSWM2
0127725824999992000050610534+39520-115970FM-16+1993KP68 V0202401N001512200019N0060001N1+99999+99999100951ADDMA1101391999999MW1001REMMET075KP68 061053Z AUTO 24003KT 06/M01 A2994 RMK AO2 SLP095 T00561006 PWINO TSNO;EQDQ01+000000PRSWM2
0111725824999992000050810534+39520-115970FM-16+1993KP68 V0209999C000012200019N9999999N1+99999+99999101011ADDMW1001REMMET074KP68 081053Z AUTO 00000KT 06/04 A2997 RMK AO2 SLP101 T00610044 PWINO TSNO;EQDQ01+000000PRSWM2
0122725824999992000051621534+39520-115970FM-16+1993KP68 V0202701N005112200019N9999999N1+99999+99999100291ADDMW1001OC100871REMMET077KP68 162153Z AUTO 27010G17KT 08/02 A2972 RMK AO2 SLP029 T00830017 PWINO TSNO;EQDQ01+000000PRSWM2
0127725824999992000052009534+39520-115970FM-16+1993KP68 V0202001N004112200019N0030001N1+99999+99999101951ADDMA1102441999999MW1001REMMET075KP68 200953Z AUTO 20008KT 03/M01 A3025 RMK AO2 SLP195 T00331011 PWINO TSNO;EQDQ01+000000PRSWM2
0127725824999992000052021534+39520-115970FM-16+1993KP68 V0200501N003612200019N0230001N1+99999+99999101841ADDMA1102371999999MW1001REMMET075KP68 202153Z AUTO 05007KT 23/M03 A3023 RMK AO2 SLP184 T02331033 PWINO TSNO;EQDQ01+000000PRSWM2
0181725824999992000052405534+39520-115970FM-16+1993KP68 V0201901N004119999999N9999999N1+99999+99999101401ADDKA1999M+02831KA2999N+01441MD1010121+9999MW1001REMMET104KP68 240553Z AUTO 19008KT 14/13 A3017 RMK AO2 SLP140 P0002 60007 T01440128 10283 20144 50012 PWINO TSNO;EQDQ01+000000PRSWM2
0111725824999992000052618534+39520-115970FM-16+1993KP68 V0209999C000012200019N9999999N1+99999+99999101041ADDMW1001REMMET074KP68 261853Z AUTO 00000KT 18/04 A3002 RMK AO2 SLP104 T01780044 PWINO TSNO;EQDQ01+000000PRSWM2
0138725824999992000052821534+39520-115970FM-16+1993KP68 V0202401N004612200019N0290001N1+99999+99999100911ADDMA1101731999999MW1001OC100721REMMET078KP68 282153Z AUTO 24009G14KT 29/M05 A3004 RMK AO2 SLP091 T02891050 PWINO TSNO;EQDQ01+000000PRSWM2
0127725824999992000053015534+39520-115970FM-16+1993KP68 V0209999V002112200019N0170001N1+99999+99999100571ADDMA1101351999999MW1001REMMET075KP68 301553Z AUTO VRB04KT 17/M10 A2993 RMK AO2 SLP057 T01671100 PWINO TSNO;EQDQ01+000000PRSWM2
0156725824999992000060622534+39520-115970FM-16+1993KP68 V0201901N005112200019N0310001N1+99999+99999100961ADDMA1101691999999MW1001OC101651REMMET096KP68 062253Z AUTO 19010G32KT 31/M04 A3003 RMK AO2 PK WND 17032/2245 SLP096 T03111044 PWINO TSNO;EQDQ01+000000PRSWM2
0111725824999992000060819534+39520-115970FM-16+1993KP68 V0203501N006712200019N9999999N1+99999+99999099941ADDMW1001REMMET074KP68 081953Z AUTO 35013KT 18/00 A2975 RMK AO2 SLP994 T01780000 PWINO TSNO;EQDQ01+000000PRSWM2
0122725824999992000061222534+39520-115970FM-16+1993KP68 V0202901N005712200019N9999999N1+99999+99999101141ADDMW1001OC101081REMMET077KP68 122253Z AUTO 29011G21KT 27/03 A3010 RMK AO2 SLP114 T02670033 PWINO TSNO;EQDQ01+000000PRSWM2
0127725824999992000061603534+39510-115970FM-16+1993KP68 V0203601N004112200019N0200001N1+99999+99999100831ADDMA1101731999999MW1001REMMET075KP68 160353Z AUTO 36008KT 20/M01 A3004 RMK AO2 SLP083 T02001006 PWINO TSNO;EQDQ01+000000PRSWM2
0140725824999992000062321534+39510-115970FM-16+1993KP68 V0203101N008712200019N9999999N1+99999+99999100971ADDMW1001OC101341REMMET095KP68 232153Z AUTO 31017G26KT 28/02 A3007 RMK AO2 PK WND 32026/2146 SLP097 T02780017 PWINO TSNO;EQDQ01+000000PRSWM2
0180725824999992000062523534+39510-115970FM-16+1993KP68 V0200901N008219999999N9999999N1+99999+99999101881ADDKA1999M+02781KA2999N+01891MD1110201+9999MW1001OC101081REMMET095KP68 252353Z AUTO 09016G21KT 20/09 A3025 RMK AO2 SLP188 T02000089 10278 20189 51020 PWINO TSNO;EQDQ01+000000PRSWM2
0111725824999992000062710534+39510-115970FM-16+1993KP68 V0201901N003612200019N9999999N1+99999+99999101551ADDMW1001REMMET074KP68 271053Z AUTO 19007KT 10/03 A3016 RMK AO2 SLP155 T01000033 PWINO TSNO;EQDQ01+000000PRSWM2
0111725824999992000062903534+39510-115970FM-16+1993KP68 V0209999V001512200019N9999999N1+99999+99999101101ADDMW1001REMMET074KP68 290353Z AUTO VRB03KT 22/03 A3012 RMK AO2 SLP110 T02220028 PWINO TSNO;EQDQ01+000000PRSWM2
0147725824999992000070202534+39510-115970FM-16+1993KP68 V0203601N002112200019N0240001N1+99999+99999100611ADDMA1101491999999MD1310131+9999MW1001REMMET081KP68 020253Z AUTO 36004KT 24/M07 A2997 RMK AO2 SLP061 T02441067 53013 PWINO TSNO;EQDQ01+000000PRSWM2
0157725824999992000070221534+39510-115970FM-16+1993KP68 V0202301N004112200019N0290001N1+99999+99999100451ADDMA1101291999999MW1001OC100981REMMET097KP68 022153Z AUTO 23008G19KT 190V260 29/M04 A2991 RMK AO2 WSHFT 2051 SLP045 T02941039 PWINO TSNO;EQDQ01+000000PRSWM2
0127725824999992000071818534+39510-115970FM-16+1993KP68 V0209999V002612200019N0270001N1+99999+99999101831ADDMA1102541999999MW1001REMMET075KP68 181853Z AUTO VRB05KT 27/M01 A3028 RMK AO2 SLP183 T02721006 PWINO TSNO;EQDQ01+000000PRSWM2
0111725824999992000080519534+39510-115970FM-16+1993KP68 V0209999V003112200019N9999999N1+99999+99999101481ADDMW1001REMMET074KP68 051953Z AUTO VRB06KT 30/04 A3023 RMK AO2 SLP148 T03000039 PWINO TSNO;EQDQ01+000000PRSWM2
0158725824999992000080820534+39510-115970FM-16+1993KP68 V0202201N007212200019N0320001N1+99999+99999101071ADDMA1102031999999MD1610131+9999MW1001OC101181REMMET084KP68 082053Z AUTO 22014G23KT 32/M02 A3013 RMK AO2 SLP107 T03221022 56013 PWINO TSNO;EQDQ01+000000PRSWM2
0111725824999992000081719534+39510-115970FM-16+1993KP68 V0203401N003612200019N9999999N1+99999+99999101151ADDMW1001REMMET074KP68 171953Z AUTO 34007KT 31/01 A3015 RMK AO2 SLP115 T03060011 PWINO TSNO;EQDQ01+000000PRSWM2
0111725824999992000081812534+39510-115970FM-16+1993KP68 V0201501N002112200019N9999999N1+99999+99999101241ADDMW1001REMMET074KP68 181253Z AUTO 15004KT 12/01 A3013 RMK AO2 SLP124 T01170006 PWINO TSNO;EQDQ01+000000PRSWM2
0169725824999992000082505534+39510-115970FM-16+1993KP68 V0209999C000019999999N9999999N1+99999+99999101571ADDKA1999M+03061KA2999N+02061MD1110141+9999MW1001REMMET092KP68 250553Z AUTO 00000KT 21/02 A3027 RMK AO2 SLP157 T02110017 10306 20206 51014 PWINO TSNO;EQDQ01+000000PRSWM2
0127725824999992000090204534+39510-115970FM-16+1993KP68 V0202001N004612200019N0120001N1+99999+99999100761ADDMA1101391999999MW1001REMMET075KP68 020453Z AUTO 20009KT 12/M01 A2994 RMK AO2 SLP076 T01221011 PWINO TSNO;EQDQ01+000000PRSWM2
0169725824999992000090311534+39510-115970FM-16+1993KP68 V0202101N001519999999N9999999N1+99999+99999101171ADDKA1999M+00611KA2999N+00171MD1810041+9999MW1001REMMET092KP68 031153Z AUTO 21003KT 03/02 A3002 RMK AO2 SLP117 T00280017 10061 20017 58004 PWINO TSNO;EQDQ01+000000PRSWM2
0185725824999992000090817534+39510-115970FM-16+1993KP68 V0201401N002619999999N0210001N1+99999+99999100881ADDKA1999M+02111KA2999N+00611MA1101521999999MD1810021+9999MW1001REMMET093KP68 081753Z AUTO 14005KT 21/M05 A2998 RMK AO2 SLP088 T02111050 10211 20061 58002 PWINO TSNO;EQDQ01+000000PRSWM2
0147725824999992000091002534+39510-115970FM-16+1993KP68 V0209999C000012200019N0130001N1+99999+99999101041ADDMA1101561999999MD1310111+9999MW1001REMMET081KP68 100253Z AUTO 00000KT 13/M07 A2999 RMK AO2 SLP104 T01281067 53011 PWINO TSNO;EQDQ01+000000PRSWM2
0111725824999992000091918534+39510-115970FM-16+1993KP68 V0200201N005112200019N9999999N1+99999+99999101461ADDMW1001REMMET074KP68 191853Z AUTO 02010KT 23/06 A3017 RMK AO2 SLP146 T02330056 PWINO TSNO;EQDQ01+000000PRSWM2
0169725824999992000092011534+39510-115970FM-16+1993KP68 V0209999C000019999999N9999999N1+99999+99999101351ADDKA1999M+01781KA2999N+00501MD1810011+9999MW1001REMMET092KP68 201153Z AUTO 00000KT 06/02 A3013 RMK AO2 SLP135 T00610022 10178 20050 58001 PWINO TSNO;EQDQ01+000000PRSWM2
0160725824999992000092120534+39510-115970FM-16+1993KP68 V0202601N008212200019N9999999N1+99999+99999099541ADDMD1710201+9999MW1001OC101181REMMET101KP68 212053Z AUTO 26016G23KT 26/01 A2964 RMK AO2 PK WND 25027/2008 SLP954 T02560006 57020 PWINO TSNO;EQDQ01+000000PRSWM2
0135725824999992000092409534+39510-115970FM-16+1993KP68 V0201701N002612200019N9999999N1+99999+99999102371ADDMA1102541999999MW1001REMMET083KP68 240953Z AUTO 17005KT M04/M09 A3028 RMK AO2 SLP237 T10441094 PWINO FZRANO TSNO;EQDQ01+000000PRSWM2
0163725824999992000100407534+39510-115970FM-16+1993KP68 V0201801N004119999999N0040001N1+99999+99999101191ADDKA1999M+02331KA2999N+00061MA1101731999999MW1001REMMET085KP68 040753Z AUTO 18008KT 04/M09 A3004 RMK AO2 SLP119 T00441094 402330006 PWINO TSNO;EQDQ01+000000PRSWM2
0127725824999992000100615534+39510-115970FM-16+1993KP68 V0209999C000012200019N0100001N1+99999+99999101981ADDMA1102271999999MW1001REMMET075KP68 061553Z AUTO 00000KT 10/M14 A3020 RMK AO2 SLP198 T01001139 PWINO TSNO;EQDQ01+000000PRSWM2
0185725824999992000101717534+39510-115970FM-16+1993KP68 V0209999V001519999999N0140001N1+99999+99999102311ADDKA1999M+01501KA2999N-00171MA1102641999999MD1010001+9999MW1001REMMET093KP68 171753Z AUTO VRB03KT 14/M06 A3031 RMK AO2 SLP231 T01441056 10150 21017 50000 PWINO TSNO;EQDQ01+000000PRSWM2
0185725824999992000101823534+39510-115970FM-16+1993KP68 V0201501N004619999999N0170001N1+99999+99999101661ADDKA1999M+02061KA2999N+01611MA1102071999999MD1610061+9999MW1001REMMET093KP68 182353Z AUTO 15009KT 17/M06 A3014 RMK AO2 SLP166 T01721061 10206 20161 56006 PWINO TSNO;EQDQ01+000000PRSWM2
0134725824999992000102006534+39510-115970FM-16+1993KP68 V0201801N002612200019N0020001N1+99999+99999101781ADDMA1102171999999MW1001REMMET082KP68 200653Z AUTO 18005KT 02/M07 A3017 RMK AO2 SLP178 T00171067 PWINO FZRANO TSNO;EQDQ01+000000PRSWM2
0127725824999992000102221534+39510-115970FM-16+1993KP68 V0200101N006212200019N0080001N1+99999+99999101681ADDMA1101801999999MW1001REMMET075KP68 222153Z AUTO 01012KT 08/M08 A3006 RMK AO2 SLP168 T00831078 PWINO TSNO;EQDQ01+000000PRSWM2
0127725824999992000102403534+39510-115970FM-16+1993KP68 V0209999C000012200019N0030001N1+99999+99999101711ADDMA1101861999999MW1001REMMET075KP68 240353Z AUTO 00000KT 03/M03 A3008 RMK AO2 SLP171 T00331033 PWINO TSNO;EQDQ01+000000PRSWM2
0199725824999992000110111534+39510-115970FM-16+1993KP68 V0201801N003119999999N9999999N1+99999+99999102491ADDKA1999M-00501KA2999N-01171MA1102341999999MD1510011+9999MW1001REMMET107KP68 011153Z AUTO 18006KT M06/M08 A3022 RMK AO2 SLP249 70030 T10611083 11050 21117 55001 PWINO FZRANO TSNO;EQDQ01+000000PRSWM2
0205725824999992000110117534+39510-115970FM-16+1993KP68 V0202001N002619999999N9999999N1+99999+99999102701ADDKA1999M-00171KA2999N-01061MA1102441999999MD1010041+9999MW1001REMMET113KP68 011753Z AUTO 20005KT M02/M05 A3025 RMK AO2 SLP270 P0001 60001 T10171050 11017 21106 50004 PWINO FZRANO TSNO;EQDQ01+000000PRSWM2
0134725824999992000110521534+39510-115970FM-16+1993KP68 V0200501N004112200019N0020001N1+99999+99999101311ADDMA1101351999999MW1001REMMET082KP68 052153Z AUTO 05008KT 02/M07 A2993 RMK AO2 SLP131 T00221067 PWINO FZRANO TSNO;EQDQ01+000000PRSWM2
0135725824999992000110809534+39510-115970FM-16+1993KP68 V0201901N003612200019N9999999N1+99999+99999101931ADDMA1101801999999MW1001REMMET083KP68 080953Z AUTO 19007KT M08/M10 A3006 RMK AO2 SLP193 T10781100 PWINO FZRANO TSNO;EQDQ01+000000PRSWM2
0135725824999992000111413534+39510-115970FM-16+1993KP68 V0201701N001512200019N9999999N1+99999+99999101431ADDMA1101191999999MW1001REMMET083KP68 141353Z AUTO 17003KT M11/M13 A2988 RMK AO2 SLP143 T11061133 PWINO FZRANO TSNO;EQDQ01+000000PRSWM2
0155725824999992000111914534+39510-115970FM-16+1993KP68 V0202201N003612200019N9999999N1+99999+99999103281ADDMA1102741999999MD1210031+9999MW1001REMMET089KP68 191453Z AUTO 22007KT M10/M14 A3034 RMK AO2 SLP328 T11001139 52003 PWINO FZRANO TSNO;EQDQ01+000000PRSWM2
0135725824999992000112109534+39510-115970FM-16+1993KP68 V0209999C000012200019N9999999N1+99999+99999102441ADDMA1102441999999MW1001REMMET083KP68 210953Z AUTO 00000KT M07/M10 A3025 RMK AO2 SLP244 T10671100 PWINO FZRANO TSNO;EQDQ01+000000PRSWM2
0193725824999992000112211534+39510-115970FM-16+1993KP68 V0201901N001519999999N9999999N1+99999+99999101571ADDKA1999M+00221KA2999N-00671MA1101561999999MD1610051+9999MW1001REMMET101KP68 221153Z AUTO 19003KT M07/M11 A2999 RMK AO2 SLP157 T10671111 10022 21067 56005 PWINO FZRANO TSNO;EQDQ01+000000PRSWM2
0137725824999992000120804534+39510-115970FM-16+1993KP68 V0202001N002112200019N9999999N1+99999+99999101821ADDMA1101691999999MW1001REMMET085KP68 080453Z AUTO 20004KT M02/M04 A3003 RMK AO2 SLP182 T10171044 PWINO FZRANO TSNO $;EQDQ01+000000PRSWM2
0134725824999992000121122534+39510-115970FM-16+1993KP68 V0203501N002112200019N0020001N1+99999+99999101561ADDMA1101461999999MW1001REMMET082KP68 112253Z AUTO 35004KT 02/M08 A2996 RMK AO2 SLP156 T00221078 PWINO FZRANO TSNO;EQDQ01+000000PRSWM2
0135725824999992000122001534+39510-115970FM-16+1993KP68 V0201801N001512200019N9999999N1+99999+99999102371ADDMA1102031999999MW1001REMMET083KP68 200153Z AUTO 18003KT M03/M09 A3013 RMK AO2 SLP237 T10331094 PWINO FZRANO TSNO;EQDQ01+000000PRSWM2
0135725824999992000122204534+39510-115970FM-16+1993KP68 V0202001N002612200019N9999999N1+99999+99999101431ADDMA1101461999999MW1001REMMET083KP68 220453Z AUTO 20005KT M01/M07 A2996 RMK AO2 SLP143 T10111072 PWINO FZRANO TSNO;EQDQ01+000000PRSWM2
0135725824999992000122210534+39510-115970FM-16+1993KP68 V0209999V002112200019N9999999N1+99999+99999101551ADDMA1101591999999MW1001REMMET083KP68 221053Z AUTO VRB04KT M07/M11 A3000 RMK AO2 SLP155 T10721106 PWINO FZRANO TSNO;EQDQ01+000000PRSWM2
0171725824999992000122407534+39510-115970FM-16+1993KP68 V0209999C000019999999N9999999N1+99999+99999101791ADDKA1999M+00721KA2999N-01111MA1101831999999MW1001REMMET093KP68 240753Z AUTO 00000KT M01/M07 A3007 RMK AO2 SLP179 T10111067 400721111 PWINO FZRANO TSNO;EQDQ01+000000PRSWM2
0135725824999992000122703534+39510-115970FM-16+1993KP68 V0209999C000012200019N9999999N1+99999+99999103591ADDMA1103081999999MW1001REMMET083KP68 270353Z AUTO 00000KT M07/M10 A3044 RMK AO2 SLP359 T10671100 PWINO FZRANO TSNO;EQDQ01+000000PRSWM2
0155725824999992000122714534+39510-115970FM-16+1993KP68 V0201901N002612200019N9999999N1+99999+99999103351ADDMA1102881999999MD1510001+9999MW1001REMMET089KP68 271453Z AUTO 19005KT M11/M13 A3038 RMK AO2 SLP335 T11061133 55000 PWINO FZRANO TSNO;EQDQ01+000000PRSWM2
0135725824999992000122803534+39510-115970FM-16+1993KP68 V0202301N003112200019N9999999N1+99999+99999103201ADDMA1102811999999MW1001REMMET083KP68 280353Z AUTO 23006KT M05/M07 A3036 RMK AO2 SLP320 T10501072 PWINO FZRANO TSNO;EQDQ01+000000PRSWM2
0054725825241212000010312009+40833-115800NSRDB+154899999V020999999999999999999999999999+99999+99999999999ADDGP10060000002000000002000000002000GR100600000900009
0244725825241212000010323003+40830-115780FM-15+1565KEKO V0202301N003610096019N0160931N1+00101-00701103221ADDGD13991+0096019GD24991+0120019GF108991999999999999999999GP10060016802009017002021012102009GQ100600740921859GR100600390914159MA1103011999999MW1001REMMET068KEKO 032255Z 23007KT 10SM BKN032 OVC040 01/M07 A3042 RMK AO1 SLP322;EQDQ01+000000PRSWM2
0202725825241212000010421214+40830-115780FM-16+1565KEKO V0202001N004610015019N0016091N1+00101-00101999999ADDGD13991+0015019GD23991+0033019GD34991+0057019GF108991999999999999999999MA1102371999999MW1711REMMET063KEKO 042121Z 20009KT 1SM -SN BKN005 BKN011 OVC019 01/M01 A3023;EQDQ01+000003PRSWM1Q02    003PRSWM1
0257725825241212000010612003+40830-115780FM-15+1565KEKO V0200901N002612200019N0160931N1-01801-01901103831ADDGF100991999999999999999999GP10060000002000000002000000002000GR100600000900009KA1999M-01501KA2999N-01901MA1103251999999MD1210141+9999MW1001REMMET088KEKO 061155Z 09005KT 10SM CLR M18/M19 A3049 RMK AO1 SLP383 WEA: 4/000 11150 21190 52014;EQDQ01+000000PRSWM2
0237725825241212000010909003+40830-115780FM-15+1565KEKO V0202301N003612200019N0160931N1-00101-00901102041ADDGD12991+0360019GF102991999999999999999999GP10060000002000000002000000002000GR100600000900009MA1102001999999MD1210071+9999MW1001OC100771REMMET071KEKO 090855Z 23007G15KT 10SM FEW120 M01/M09 A3012 RMK AO1 SLP204 52007;EQDQ01+000000PRSWM2
0071725825241212000011016009+40833-115800NSRDB+154899999V020999999999999999999999999999+99999+99999999999ADDGP10060001802009017202021000802009GQ100600862912349GR100600079912149
0207725825241212000011703003+40830-115780FM-15+1565KEKO V0209999C000012200019N0160931N1+00301-00201101861ADDGF100991999999999999999999GP10060000002000000002000000002000GR100600000900009MA1101861999999MD1210241+9999MW1001REMMET064KEKO 170255Z 00000KT 10SM CLR 03/M02 A3008 RMK AO1 SLP186 52024;EQDQ01+000000PRSWM2
0188725825241212000011708003+40830-115780FM-15+1565KEKO V0209999C000012200019N0160931N1-00101-00301101941ADDGF100991999999999999999999GP10060000002000000002000000002000GR100600000900009MA1102031999999MW1001REMMET059KEKO 170755Z 00000KT 10SM CLR M01/M03 A3013 RMK AO1 SLP194;EQDQ01+000000PRSWM2
0262725825241212000011718003+40830-115780FM-15+1565KEKO V0209999C000012200019N0160931N1+00101-00201102561ADDGF100991999999999999999999GP10060014502009002302021013702009GQ100600701914459GR100600482914149KA1999M+00101KA2999N-00301MA1102441999999MD1210241+9999MW1001REMMET076KEKO 171755Z 00000KT 10SM CLR 01/M02 A3025 RMK AO1 SLP256 10010 21030 52024;EQDQ01+000000PRSWM2
0193725825241212000012102514+40830-115780FM-15+1565KEKO V0203301N003110240019N0160931N1+00601+00301101611ADDGD12991+0003019GD22991+0093019GD34991+0240019GF108991999999999999999999MA1101521999999MW1001REMMET070KEKO 210251Z 33006KT 10SM FEW001 SCT031 OVC080 06/03 A2998 RMK SLP161;EQDQ01+000000PRSWM2
0269725825241212000012112003+40830-115780FM-15+1565KEKO V0202801N003110210019N0160931N1+00201-00101101521ADDGD12991+0138019GD22991+0180019GD33991+0210019GF107991999999999999999999GP10060000002000000002000000002000GR100600000900009MA1101591999999MD1210031+9999MW1001REMMET081KEKO 211155Z 28006KT 10SM FEW046 SCT065 BKN075 02/M01 A3000 RMK AO1 SLP152 52003;EQDQ01+000000PRSWM2
0262725825241212000012118003+40830-115780FM-15+1565KEKO V0209999C000012200019N0160931N1+00201-00201101741ADDGF100991999999999999999999GP10060035002009091402021002802009GQ100600695914389GR100600495914139KA1999M+00201KA2999N-00401MA1101731999999MD1210071+9999MW1001REMMET076KEKO 211755Z 00000KT 10SM CLR 02/M02 A3004 RMK AO1 SLP174 10020 21040 52007;EQDQ01+000000PRSWM2
0205725825241212000012717003+40830-115780FM-15+1565KEKO V0200901N002112200019N0160931N1-00401-00801102811ADDGF100991999999999999999999GP10060022002009081302021002502009GQ100600761913029GR100600337914119MA1102541999999MW1001REMMET059KEKO 271655Z 09004KT 10SM CLR M04/M08 A3028 RMK AO1 SLP281;EQDQ01+000000PRSWM2
0246725825241212000020806003+40830-115780FM-15+1565KEKO V0200701N001512200019N0160931N1-00101-00501102881ADDGF100991999999999999999999GP10060000002000000002000000002000GR100600000900009KA1999M+01101KA2999N-00101MA1102811999999MD1710031+9999MW1001REMMET077KEKO 080555Z 07003KT 10SM CLR M01/M05 A3036 RMK AO1 SLP288 10110 21010 57003;EQDQ01+000000PRSWM2
0266725825241212000020822003+40830-115780FM-15+1565KEKO V0209999C000010210019N0160931N1+01301-00501102171ADDGD13991+0210019GD23991+0270019GD33991+0330019GF107991999999999999999999GP10060025602009007402021021902009GQ100600599920609GR100600705914069MA1102241999999MW1001REMMET075KEKO 082155Z 00000KT 10SM BKN070 BKN090 BKN110 13/M05 A3019 RMK AO1 SLP217;EQDQ01+000000PRSWM2
0205725825241212000020907003+40830-115780FM-15+1565KEKO V0209999C000010270019N0160931N1+00101-00301101911ADDGD14991+0270019GF108991999999999999999999GP10060000002000000002000000002000GR100600000900009MA1101961999999MW1001REMMET061KEKO 090655Z 00000KT 10SM OVC090 01/M03 A3011 RMK AO1 SLP191;EQDQ01+000000PRSWM2
0191725825241212000021409504+40830-115780FM-15+1565KEKO V0202201N005110084019N0160931N1+00301+00101100811ADDGD12991+0057019GD24991+0084019GF108991999999999999999999MA1100851999999MW1611REMMET067KEKO 140950Z 22010KT 10SM -RA SCT019 OVC028 03/01 A2978 RMK SLP081;EQDQ01+000003PRSWM1Q02    003PRSWM1
0187725825241212000021510003+40830-115780FM-15+1565KEKO V0202201N004612200019N0160931N1+00101-00501101881ADDGF100991999999999999999999GP10060000002000000002000000002000GR100600000900009MA1101861999999MW1001REMMET058KEKO 150955Z 22009KT 10SM CLR 01/M05 A3008 RMK AO1 SLP188;EQDQ01+000000PRSWM2
0205725825241212000021817003+40830-115780FM-15+1565KEKO V0209999C000012200019N0160931N1-00301-00601102721ADDGF100991999999999999999999GP10060030502008058402015011502008GQ100600710912569GR100600455914009MA1102471999999MW1001REMMET059KEKO 181655Z 00000KT 10SM CLR M03/M06 A3026 RMK AO1 SLP272;EQDQ01+000000PRSWM2
0202725825241212000022322304+40830-115780FM-15+1565KEKO V0201801N004610057019N0160931N1+00401+00001999999ADDGD12991+0039019GD23991+0057019GD34991+0081019GF108991999999999999999999MA1100611999999MW1611REMMET063KEKO 232230Z 18009KT 10SM -RA FEW013 BKN019 OVC027 04/00 A2971;EQDQ01+000003PRSWM1Q02    003PRSWM1
0203725825241212000022401134+40830-115780FM-16+1565KEKO V0202201N005710030019N0064371N1-00101-00301999999ADDGD12991+0003019GD23991+0030019GD34991+0054019GF108991999999999999999999MA1100581999999MW1711REMMET064KEKO 240113Z 22011KT 4SM -SN SCT001 BKN010 OVC018 M01/M03 A2970;EQDQ01+000003PRSWM1Q02    003PRSWM1
0232725825241212000022613063+40830-115780FM-16+1565KEKO V0202401N002110027019N0064371N1-00201-00401999999ADDGD13991+0027019GD24991+0090019GF108991999999999999999999GP10060000002000000002000000002000GR100600000900009MA1101831999999MW1711REMMET057KEKO 261306Z 24004KT 4SM -SN BKN009 OVC030 M02/M04 A3007;EQDQ01+000003PRSWM1Q02    003PRSWM1
0220725825241212000030501003+40830-115780FM-15+1565KEKO V0209999C000012200019N0160931N1+01101-00101100491ADDGF100991999999999999999999GP10060012602008010302015010502008GQ100600782925129GR100600284913909MA1100511999999MW1001REMMET074KEKO 050055Z 00000KT 10SM CLR 11/M01 A2968 RMK AO1 SLP049 WEA: VIRGA S-NW;EQDQ01+000000PRSWM2
0191725825241212000030517504+40830-115780FM-15+1565KEKO V0202601N001510039019N0160931N1+00301+00001099761ADDGD12991+0024019GD24991+0039019GF108991999999999999999999MA1099931999999MW1611REMMET067KEKO 051750Z 26003KT 10SM -RA SCT008 OVC013 03/00 A2951 RMK SLP976;EQDQ01+000003PRSWM1Q02    003PRSWM1
0426725825241212000030607596+40829-115788SOD  +1547KEKO V020999999999999999999999999999+99999+99999999999ADDAA124005696AL12400095AN1024000095AT1MW16RA  1KA1240M+00945KA2240N+00225OE11249999999999997OE22249999999999997REMSOD28624 HR PRECIPITATION (IN):  .22  24 HR SNOWFALL (IN): 0.0 24 HR MAX TEMP (F): 4924 HR MIN TEMP (F): 3624 HR AVG TEMP (F): 43HOURLY INCREMENTAL PRECIPITATION VALUES (IN):.00  .00  .00  .00  .00  .00  .00  .00  .00  .00  .00  .00  .00  .00  .00  .00  .00  .00  .00  .00  .00  .00  .00  .00EQDR01   .227AAP092
0184725825241212000030616254+40830-115780FM-15+1565KEKO V0202201N002110054019N0024141N1+00101-00201999999ADDGD12991+0033019GD24991+0054019GF108991999999999999999999MA1100241999999MW1711REMMET060KEKO 061625Z 22004KT 1 1/2SM -SN SCT011 OVC018 01/M02 A2960;EQDQ01+000003PRSWM1Q02    003PRSWM1
0054725825241212000030812009+40833-115800NSRDB+154899999V020999999999999999999999999999+99999+99999999999ADDGP10060000002000000002000000002000GR100600000900009
0242725825241212000031521003+40830-115780FM-15+1565KEKO V0203101N002612200019N0160931N1+00701-00901101881ADDGD12991+0150019GF102991999999999999999999GP10060080502008101502015006802008GQ100600436919389GR100601000913829MA1101961999999MD1710071+9999MW1001REMMET067KEKO 152055Z 31005KT 10SM FEW055 07/M09 A3011 RMK AO1 SLP188 57007;EQDQ01+000000PRSWM2
0246725825241212000031606003+40830-115780FM-15+1565KEKO V0209999C000012200019N0160931N1-00201-00801102241ADDGF100991999999999999999999GP10060000002000000002000000002000GR100600000900009KA1999M+00701KA2999N-00301MA1102171999999MD1210071+9999MW1001REMMET077KEKO 160555Z 00000KT 10SM CLR M02/M08 A3017 RMK AO1 SLP224 10070 21030 52007;EQDQ01+000000PRSWM2
0158725825241212000031705154+40830-115780FM-16+1565KEKO V0202101N004610048019N0016091N1+00101-00201999999ADDGD14991+0048019GF108991999999999999999999MA1102101999999MW1711REMMET049KEKO 170515Z 21009KT 1SM -SN OVC016 01/M02 A3015;EQDQ01+000003PRSWM1Q02    003PRSWM1
0314725825241212000031718003+40830-115780FM-15+1565KEKO V0202301N004112200019N0160931N1+00201-00601102821ADDGD12991+0078019GD22991+0093019GF104991999999999999999999GP10060064402008077602015017402008GQ100600528913359GR100600834913809KA1999M+00201KA2999N-00301MA1102711999999MD1210031+9999MW1001REMMET098KEKO 171755Z 23008KT 10SM FEW026 SCT031 02/M06 A3033 RMK AO1 SLP282 WEA: 933000 10020 21030 52003;EQDQ01+000000PRSWM2
0246725825241212000032306003+40830-115780FM-15+1565KEKO V0209999C000012200019N0160931N1-00201-00701101561ADDGF100991999999999999999999GP10060000002000000002000000002000GR100600000900009KA1999M+01401KA2999N-00201MA1101521999999MD1410001+9999MW1001REMMET077KEKO 230555Z 00000KT 10SM CLR M02/M07 A2998 RMK AO1 SLP156 10140 21020 54000;EQDQ01+000000PRSWM2
0222725825241212000032601003+40830-115780FM-15+1565KEKO V0202601N004112200019N0160931N1+01601-00301101621ADDGD12991+0330019GF102991999999999999999999GP10060025502008046302015012402008GQ100600736925859GR100600386913749MA1101761999999MW1001REMMET061KEKO 260055Z 26008KT 10SM FEW110 16/M03 A3005 RMK AO1 SLP162;EQDQ01+000000PRSWM2
0204725825241212000032620003+40830-115780FM-15+1565KEKO V0202101N004112200019N0160931N1+01701-00601102191ADDGF100991999999999999999999GP10060087402008102002015007602008GQ100600387917269GR100601072913739MA1102371999999MW1001REMMET058KEKO 261955Z 21008KT 10SM CLR 17/M06 A3023 RMK AO1 SLP219;EQDQ01+000000PRSWM2
0187725825241212000040104003+40830-115780FM-15+1565KEKO V0200401N003112200019N0160931N1+00401-00901102641ADDGF100991999999999999999999GP10060000002000000002000000002000GR100600000900009MA1102571999999MW1001REMMET058KEKO 010355Z 04006KT 10SM CLR 04/M09 A3029 RMK AO1 SLP264;EQDQ01+000000PRSWM2
0169725825241212000040623354+40830-115780FM-15+1565KEKO V0209999C000012200019N0160931N1+99999-00701999999ADDGF100991999999999999999999MW1001REMMET058KEKO 080735Z 00000KT 10SM CLR 01/M07 A3027 RMK AO1 SLP235;EQDQ01+000103ATOT  Q02+102513APOA  Q03+102353APOSLPQ04+000000PRSWM2
0272725825241212000040700003+40830-115780FM-15+1565KEKO V0202901N012312200019N0160931N1+01801-00401101411ADDGF100991999999999999999999GP10060052302008086102015009502008GQ100600602925179GR100600676913649KA1999M+01901KA2999N+01601MA1101591999999MD1710031+9999MW1001REMMET086KEKO 062355Z 29024KT 10SM CLR 18/M04 A3000 RMK AO1 SLP141 10190 20160 402001010 57003;EQDQ01+000000PRSWM2
0204725825241212000041117003+40830-115780FM-15+1565KEKO V0209999C000012200019N0160931N1+01001-00501102391ADDGF100991999999999999999999GP10060061202008089902015007802008GQ100600536911329GR100600805913609MA1102541999999MW1001REMMET058KEKO 111655Z 00000KT 10SM CLR 10/M05 A3028 RMK AO1 SLP239;EQDQ01+000000PRSWM2
0187725825241212000041211003+40830-115780FM-15+1565KEKO V0200801N002612200019N0160931N1+00101-00801102061ADDGF100991999999999999999999GP10060000002000000002000000002000GR100600000900009MA1102301999999MW1001REMMET058KEKO 121055Z 08005KT 10SM CLR 01/M08 A3021 RMK AO1 SLP206;EQDQ01+000000PRSWM2
0221725825241212000041317003+40830-115780FM-15+1565KEKO V0202201N005712200019N0160931N1+01501+00001101211ADDGD12991+0330019GF102991999999999999999999GP10060031502008009902015025502008GQ100600530911269GR100600816913599MA1101561999999MW1001REMMET060KEKO 131655Z 22011KT 10SM FEW110 15/00 A2999 RMK AO1 SLP121;EQDQ01+000000PRSWM2
0253725825241212000041621003+40830-115780FM-15+1565KEKO V0202101N006712200019N0160931N1+01601-00201100981ADDGD12991+0240019GF104991999999999999999999GP10060038602008003002015036102008GQ100600323920209GR100601146913569MA1101251999999MD1710141+9999MW1001OC101181REMMET070KEKO 162055Z 21013G23KT 10SM SCT085 16/M02 A2990 RMK AO1 SLP098 57014;EQDQ01+000000PRSWM2
0187725825241212000042111003+40830-115780FM-15+1565KEKO V0209999C000012200019N0160931N1+00101-00201101541ADDGF100991999999999999999999GP10060000002000000002000000002000GR100600000900009MA1101801999999MW1001REMMET058KEKO 211055Z 00000KT 10SM CLR 01/M02 A3006 RMK AO1 SLP154;EQDQ01+000000PRSWM2
0221725825241212000042214003+40830-115780FM-15+1565KEKO V0209999C000010270019N0160931N1+00901+00301100911ADDGD13991+0270019GF107991999999999999999999GP10060003202008004502015002702008GQ100600839907879GR100600144913529MA1101221999999MW1001REMMET060KEKO 221355Z 00000KT 10SM BKN090 09/03 A2989 RMK AO1 SLP091;EQDQ01+000000PRSWM2
0203725825241212000042813003+40830-115780FM-15+1565KEKO V0209999C000012200019N0160931N1+00401+00001100581ADDGF100991999999999999999999GP10060000002008000002015000002008GQ100600889907159GR100600006903039MA1101021999999MW1001REMMET057KEKO 281255Z 00000KT 10SM CLR 04/00 A2983 RMK AO1 SLP058;EQDQ01+000000PRSWM2
0208725825241212000043009003+40830-115780FM-15+1565KEKO V0209999C000012200019N0160931N1-00201-00801102641ADDGF100991999999999999999999GP10060000002000000002000000002000GR100600000900009MA1102711999999MD1210101+9999MW1001REMMET065KEKO 300855Z 00000KT 10SM CLR M02/M08 A3033 RMK AO1 SLP264 52010;EQDQ01+000000PRSWM2
0272725825241212000050200003+40830-115780FM-15+1565KEKO V0200501N002612200019N0160931N1+02601-00401101301ADDGF100991999999999999999999GP10060053802008057802015021102008GQ100600555926039GR100600760913459KA1999M+02701KA2999N+01901MA1101591999999MD1710301+9999MW1001REMMET086KEKO 012355Z 05005KT 10SM CLR 26/M04 A3000 RMK AO1 SLP130 10270 20190 402701020 57030;EQDQ01+000000PRSWM2
0308725825241212000050918003+40830-115780FM-15+1565KEKO V0202501N007710210019N0160931N1+01401-00401101151ADDAA106000591GD13991+0210019GF107991999999999999999999GP10060046102008010702015037502008GQ100600363912059GR100601078913409KA1999M+01501KA2999N+00101MA1101421999999MD1710031+9999MW1001OC100981REMMET088KEKO 091755Z 25015G19KT 10SM BKN070 14/M04 A2995 RMK AO1 SLP115 60002 10150 20010 57003;EQDQ01+000000PRSWM2
0272725825241212000051300003+40830-115780FM-15+1565KEKO V0200201N001512200019N0160931N1+01301-01201102141ADDGF100991999999999999999999GP10060044302008030702015026202008GQ100600538926339GR100600790913389KA1999M+01401KA2999N+00801MA1102101999999MD1710201+9999MW1001REMMET086KEKO 122355Z 02003KT 10SM CLR 13/M12 A3015 RMK AO1 SLP214 10140 20080 401401080 57020;EQDQ01+000000PRSWM2
0215725825241212000051420003+40830-115780FM-15+1565KEKO V0202501N005712200019N0160931N1+02201-00501100901ADDGF100991999999999999999999GP10060085402008060602015029302008GQ100600224917419GR100601236913379MA1101251999999MW1001OC100981REMMET061KEKO 141955Z 25011G19KT 10SM CLR 22/M05 A2990 RMK AO1 SLP090;EQDQ01+000000PRSWM2
0204725825241212000051502003+40830-115780FM-15+1565KEKO V0203301N002612200019N0160931N1+01801-00501100701ADDGF100991999999999999999999GP10060021502008030402015014102008GQ100600759928319GR100600324913379MA1100981999999MW1001REMMET058KEKO 150155Z 33005KT 10SM CLR 18/M05 A2982 RMK AO1 SLP070;EQDQ01+000000PRSWM2
0203725825241212000052020003+40830-115780FM-15+1565KEKO V0202101N004612200019N0160931N1+02301+00201102081ADDGF100991999999999999999999GP10060102302008099002015009702008GQ100600211917379GR100601244913349MA1102401999999MW1001REMMET057KEKO 201955Z 21009KT 10SM CLR 23/02 A3024 RMK AO1 SLP208;EQDQ01+000000PRSWM2
0071725825241212000052614009+40833-115800NSRDB+154899999V020999999999999999999999999999+99999+99999999999ADDGP10060016002008044302015006902008GQ100600781907219GR100600275913319
0255725825241212000052912003+40830-115780FM-15+1565KEKO V0209999C000012200019N0160931N1+00401-00201101071ADDGF100991999999999999999999GP10060000002000000002000000002000GR100600000900009KA1999M+01301KA2999N+00401MA1101491999999MD1710031+9999MW1001REMMET086KEKO 291155Z 00000KT 10SM CLR 04/M02 A2997 RMK AO1 ACSL E-SE SLP107 10130 20040 57003;EQDQ01+000000PRSWM2
0204725825241212000061113003+40830-115780FM-15+1565KEKO V0200701N001512200019N0160931N1+00401-00401101541ADDGF100991999999999999999999GP10060001402008015602015000702008GQ100600864906199GR100600065910499MA1101861999999MW1001REMMET058KEKO 111255Z 07003KT 10SM CLR 04/M04 A3008 RMK AO1 SLP154;EQDQ01+000000PRSWM2
0235725825241212000061121003+40830-115780FM-15+1565KEKO V0202601N005712200019N0160931N1+02401-00101101371ADDGF100991999999999999999999GP10060092202008072302015024302008GQ100600205921209GR100601240913259MA1101761999999MD1710171+9999MW1001OC101081REMMET067KEKO 112055Z 26011G21KT 10SM CLR 24/M01 A3005 RMK AO1 SLP137 57017;EQDQ01+000000PRSWM2
0226725825241212000061910003+40820-115770FM-15+1565KEKO V0201601N003110300019N0160931N1+01501+00201100781ADDGD13991+0300019GD24991+0360019GF108991999999999999999999GP10060000002000000002000000002000GR100600000900009MA1101391999999MW1001REMMET067KEKO 190955Z 16006KT 10SM BKN100 OVC120 15/02 A2994 RMK AO1 SLP078;EQDQ01+000000PRSWM2
0204725825241212000062004003+40820-115770FM-15+1565KEKO V0203501N006212200019N0160931N1+01701-00701101441ADDGF100991999999999999999999GP10060000002008000002015000002008GQ100600889930109GR100600007903649MA1101901999999MW1001REMMET058KEKO 200355Z 35012KT 10SM CLR 17/M07 A3009 RMK AO1 SLP144;EQDQ01+000000PRSWM2
0187725825241212000062107003+40820-115770FM-15+1565KEKO V0209999C000012200019N0160931N1+00701-00301101771ADDGF100991999999999999999999GP10060000002000000002000000002000GR100600000900009MA1102131999999MW1001REMMET058KEKO 210655Z 00000KT 10SM CLR 07/M03 A3016 RMK AO1 SLP177;EQDQ01+000000PRSWM2
0071725825241212000062601009+40833-115800NSRDB+154899999V020999999999999999999999999999+99999+99999999999ADDGP10060007802008000002015007802008GQ100600609927689GR100600641913229
0221725825241212000062720003+40820-115770FM-15+1565KEKO V0202001N004112200019N0160931N1+02901+00401101361ADDGD12991+0300019GF104991999999999999999999GP10060100702008092402015012802008GQ100600182916819GR100601255913229MA1102001999999MW1001REMMET060KEKO 271955Z 20008KT 10SM SCT100 29/04 A3012 RMK AO1 SLP136;EQDQ01+000000PRSWM2
0203725825241212000062814003+40820-115770FM-15+1565KEKO V0200901N001512200019N0160931N1+01401+00301101641ADDGF100991999999999999999999GP10060015902008060202015003302008GQ100600779906959GR100600277913229MA1102241999999MW1001REMMET057KEKO 281355Z 09003KT 10SM CLR 14/03 A3019 RMK AO1 SLP164;EQDQ01+000000PRSWM2
0208725825241212000062820003+40820-115770FM-15+1565KEKO V0202301N004612200019N0160931N1+03101+00301101371ADDGF100991999999999999999999GP10060101902008097802015008902008GQ100600183916809GR100601255913229MA1102031999999MW1001REMMET062KEKO 281955Z 23009KT 10SM CLR 31/03 A3013 RMK AO1 SLP137 TSNO;EQDQ01+000000PRSWM2
0244725825241212000062912003+40820-115770FM-15+1565KEKO V0200801N002112200019N0160931N1+01101+00101101461ADDGF100991999999999999999999GP10060000002000000002000000002000GR100600000900009KA1999M+01801KA2999N+00801MA1102071999999MD1210141+9999MW1001REMMET075KEKO 291155Z 08004KT 10SM CLR 11/01 A3014 RMK AO1 SLP146 10180 20080 52014;EQDQ01+000000PRSWM2
0248725825241212000063001003+40820-115770FM-15+1565KEKO V0202401N008712200019N0160931N1+03001+00201101001ADDGD12991+0330019GF104991999999999999999999GP10060020302008005102015017802008GQ100600609927659GR100600642913219MA1101561999999MW1001OC101441REMMET079KEKO 300055Z 24017G28KT 10SM SCT110 30/02 A2999 RMK AO1 SLP100 WEA: VIRGA N-SW;EQDQ01+000000PRSWM2
0207725825241212000070909003+40820-115770FM-15+1565KEKO V0209999C000012200019N0160931N1+00801-00301101291ADDGF100991999999999999999999GP10060000002000000002000000002000GR100600000900009MA1101801999999MD1210141+9999MW1001REMMET064KEKO 090855Z 00000KT 10SM CLR 08/M03 A3006 RMK AO1 SLP129 52014;EQDQ01+000000PRSWM2
0204725825241212000071404003+40820-115770FM-15+1565KEKO V0209999C000012200019N0160931N1+02301-00501101361ADDGF100991999999999999999999GP10060000002008000002015000002008GQ100600891929879GR100600004902759MA1102001999999MW1001REMMET058KEKO 140355Z 00000KT 10SM CLR 23/M05 A3012 RMK AO1 SLP136;EQDQ01+000000PRSWM2
0349725825241212000071800003+40820-115770FM-15+1565KEKO V0202801N012910360019N0160931N1+02501+00401101491ADDGD12991+0180019GD23991+0360019GF107991999999999999999999GP10060059602008069002015015502008GQ100600503926419GR100600843913229KA1999M+03101KA2999N+02501MA1102001999999MD1210241+9999MW1001OC101651REMMET125KEKO 172355Z 28025G32KT 10SM SCT060 BKN120 25/04 A3012 RMK AO1 LTG DSNT S SLP149 WEA: BLDU SE-SW 10310 20250 403100070 52024;EQDQ01+000000PRSWM2
0224725825241212000072121003+40820-115770FM-15+1565KEKO V0209999C000012200019N0160931N1+03401-00101101271ADDGF100991999999999999999999GP10060097002008094602015009402008GQ100600225920529GR100601222913239MA1101861999999MD1710201+9999MW1001REMMET064KEKO 212055Z 00000KT 10SM CLR 34/M01 A3008 RMK AO1 SLP127 57020;EQDQ01+000000PRSWM2
0262725825241212000072318003+40820-115770FM-15+1565KEKO V0209999C000012200019N0160931N1+02801-00401101781ADDGF100991999999999999999999GP10060081702008088402015010502008GQ100600363911499GR100601065913249KA1999M+02801KA2999N+00201MA1102371999999MD1710071+9999MW1001REMMET076KEKO 231755Z 00000KT 10SM CLR 28/M04 A3023 RMK AO1 SLP178 10280 20020 57007;EQDQ01+000000PRSWM2
0217725825241212000073102003+40820-115770FM-15+1565KEKO V0203101N002612200019N0160931N1+03301-00101101121ADDGF100991999999999999999999GP10060025402008051002015011802008GQ100600745928109GR100600353913269MA1101761999999MW1001REMMET071KEKO 310155Z 31005KT 10SM CLR 33/M01 A3005 RMK AO1 SLP112 WEA:HZ ALQDS;EQDQ01+000000PRSWM2
0186725825241212000080107003+40820-115770FM-15+1565KEKO V0209999C000012200019N0160931N1+02101+00401101301ADDGF100991999999999999999999GP10060000002000000002000000002000GR100600000900009MA1102071999999MW1001REMMET057KEKO 010655Z 00000KT 10SM CLR 21/04 A3014 RMK AO1 SLP130;EQDQ01+000000PRSWM2
0206725825241212000080506003+40820-115770FM-15+1565KEKO V0200501N003112200019N0160931N1+01901+00801101661ADDGF100991999999999999999999GP10060000002000000002000000002000GR100600000900009MA1102271999999MD1210171+9999MW1001REMMET063KEKO 050555Z 05006KT 10SM CLR 19/08 A3020 RMK AO1 SLP166 52017;EQDQ01+000000PRSWM2
0214725825241212000080819003+40820-115770FM-15+1565KEKO V0202001N005112200019N0160931N1+03201+00001101221ADDGF100991999999999999999999GP10060090302008094902015008402008GQ100600304914039GR100601146913299MA1101931999999MW1001OC100771REMMET060KEKO 081855Z 20010G15KT 10SM CLR 32/00 A3010 RMK AO1 SLP122;EQDQ01+000000PRSWM2
0224725825241212000081315003+40820-115770FM-15+1565KEKO V0201101N002112200019N0160931N1+01601-00401101501ADDGF100991999999999999999999GP10060025502008071702015004202008GQ100600727908569GR100600396913319MA1102031999999MD1210171+9999MW1001REMMET064KEKO 131455Z 11004KT 10SM CLR 16/M04 A3013 RMK AO1 SLP150 52017;EQDQ01+000000PRSWM2
0054725825241212000081412009+40833-115800NSRDB+154899999V020999999999999999999999999999+99999+99999999999ADDGP10060000002000000002000000002000GR100600000900009
0203725825241212000082119003+40820-115770FM-15+1565KEKO V0201401N001512200019N0160931N1+02601+00101101531ADDGF100991999999999999999999GP10060087402008094802015008302008GQ100600336914499GR100601111913369MA1102031999999MW1001REMMET057KEKO 211855Z 14003KT 10SM CLR 26/01 A3013 RMK AO1 SLP153;EQDQ01+000000PRSWM2
0187725825241212000082311003+40820-115770FM-15+1565KEKO V0200401N003612200019N0160931N1+00901-00601101501ADDGF100991999999999999999999GP10060000002000000002000000002000GR100600000900009MA1102071999999MW1001REMMET058KEKO 231055Z 04007KT 10SM CLR 09/M06 A3014 RMK AO1 SLP150;EQDQ01+000000PRSWM2
0395725825241212000090307596+40829-115788SOD  +1547KEKO V020999999999999999999999999999+99999+99999999999ADDAA124000095AL12400095AN1024000095KA1240M+01835KA2240N+00225OE11249999999999997OE22249999999999997REMSOD28624 HR PRECIPITATION (IN): 0.00  24 HR SNOWFALL (IN): 0.0 24 HR MAX TEMP (F): 6524 HR MIN TEMP (F): 3624 HR AVG TEMP (F): 51HOURLY INCREMENTAL PRECIPITATION VALUES (IN):.00  .00  .00  .00  .00  .00  .00  .00  .00  .00  .00  .00  .00  .00  .00  .00  .00  .00  .00  .00  .00  .00  .00  .00
0203725825241212000090316003+40820-115770FM-15+1565KEKO V0209999C000012200019N0160931N1+01001+00101101471ADDGF100991999999999999999999GP10060040602008082102015005902008GQ100600650910279GR100600567913449MA1101691999999MW1001REMMET057KEKO 031555Z 00000KT 10SM CLR 10/01 A3003 RMK AO1 SLP147;EQDQ01+000000PRSWM2
0246725825241212000090402003+40820-115770FM-15+1565KEKO V0202801N004612200019N0160931N1+01901+00201101051ADDGD12991+0270019GF104991999999999999999999GP10060000002008000002015000002008GQ100600829927349GR100600166913449MA1101351999999MW1001REMMET085KEKO 040155Z 28009KT 10SM SCT090 19/02 A2993 RMK AO1 SLP105 WEA:VIRGA - CB DSNT E-SE;EQDQ01+000000PRSWM2
0245725825241212000090412003+40820-115770FM-15+1565KEKO V0200401N002112200019N0160931N1+00401-00101101321ADDGF100991999999999999999999GP10060000002000000002000000002000GR100600000900009KA1999M+00901KA2999N+00201MA1101631999999MD1410001+9999MW1001REMMET076KEKO 041155Z 04004KT 10SM CLR 04/M01 A3001 RMK AO1 SLP132 10090 20020 54000;EQDQ01+000000PRSWM2
0245725825241212000090512003+40820-115770FM-15+1565KEKO V0209999C000012200019N0160931N1+00101-00401101601ADDGF100991999999999999999999GP10060000002000000002000000002000GR100600000900009KA1999M+01301KA2999N+00101MA1101961999999MD1210071+9999MW1001REMMET076KEKO 051155Z 00000KT 10SM CLR 01/M04 A3011 RMK AO1 SLP160 10130 20010 52007;EQDQ01+000000PRSWM2
0187725825241212000091310003+40820-115770FM-15+1565KEKO V0209999C000012200019N0160931N1+01001-00401101691ADDGF100991999999999999999999GP10060000002000000002000000002000GR100600000900009MA1102241999999MW1001REMMET058KEKO 130955Z 00000KT 10SM CLR 10/M04 A3019 RMK AO1 SLP169;EQDQ01+000000PRSWM2
0221725825241212000091719003+40820-115770FM-15+1565KEKO V0202501N002112200019N0160931N1+02401+00201101641ADDGD12991+0240019GF102991999999999999999999GP10060066002008050702015028202008GQ100600419915449GR100601007913549MA1102201999999MW1001REMMET060KEKO 171855Z 25004KT 10SM FEW085 24/02 A3018 RMK AO1 SLP164;EQDQ01+000000PRSWM2
0211725825241212000100514003+40820-115770FM-15+1565KEKO V0209999C000012200019N0160931N1-00701-01301102271ADDGF100991999999999999999999GP10060000002008000002015000002008GQ100600889909739GR100600007903319MA1102301999999MW1001REMMET065KEKO 051355Z 00000KT 10SM CLR M07/M13 A3021 RMK AO2 SLP227 RVRNO;EQDQ01+000000PRSWM2
0254725825241212000101110003+40820-115770FM-15+1565KEKO V0200601N001510105019N0160931N1+00201+00101100701ADDGD13991+0105019GD23991+0132019GD34991+0210019GF108991999999999999999999GP10060000002000000002000000002000GR100600000900009MA1100781999999MW1001REMMET080KEKO 110955Z 06003KT 10SM BKN035 BKN044 OVC070 02/01 A2976 RMK AO2 SLP070 RVRNO;EQDQ01+000000PRSWM2
0207725825241212000101608003+40820-115770FM-15+1565KEKO V0209999C000012200019N0160931N1-00301-00601102101ADDGF100991999999999999999999GP10060000002000000002000000002000GR100600000900009MA1102201999999MW1001REMMET078KEKO 160755Z 00000KT 10SM CLR M03/M06 A3018 RMK AO2 SLP210 PWINO FZRANO RVRNO;EQDQ01+000000PRSWM2
0226725825241212000101903003+40820-115770FM-15+1565KEKO V0209999C000012200019N0160931N1+00801-00701102081ADDGF100991999999999999999999GP10060000002000000002000000002000GR100600000900009MA1102101999999MD1210101+9999MW1001REMMET083KEKO 190255Z 00000KT 10SM CLR 08/M07 A3015 RMK AO2 SLP208 52010 PWINO FZRANO RVRNO;EQDQ01+000000PRSWM2
0207725825241212000101914003+40820-115770FM-15+1565KEKO V0209999C000012200019N0160931N1-00401-00901102051ADDGF100991999999999999999999GP10060000002000000002000000002000GR100600000900009MA1102271999999MW1001REMMET078KEKO 191355Z 00000KT 10SM CLR M04/M09 A3020 RMK AO2 SLP205 PWINO FZRANO RVRNO;EQDQ01+000000PRSWM2
0414725825241212000102207596+40829-115788SOD  +1547KEKO V020999999999999999999999999999+99999+99999999999ADDAA124000596AL12400095AN1024000095KA1240M+00945KA2240N-00435OE11249999999999997OE22249999999999997REMSOD28624 HR PRECIPITATION (IN):  .02  24 HR SNOWFALL (IN): 0.0 24 HR MAX TEMP (F): 4924 HR MIN TEMP (F): 2424 HR AVG TEMP (F): 37HOURLY INCREMENTAL PRECIPITATION VALUES (IN):.00  .00  .00  .00  .00  .00  .00  .00  .00  .00  .00  .00  .00  .00  .00  .00  .00  .00  .00  .00  .00  .00  .00  .00EQDR01   .027AAP092
0217725825241212000102511003+40820-115770FM-15+1565KEKO V0200701N002112200019N0160931N1-00101-00401101821ADDGF100991999999999999999999GP10060000002000000002000000002000GR100600000900009MA1101931999999MW1001REMMET088KEKO 251055Z 07004KT 10SM CLR M01/M04 A3010 RMK AO2 SLP182 T10171066 PWINO FZRANO RVRNO;EQDQ01+000000PRSWM2
0054725825241212000103002009+40833-115800NSRDB+154899999V020999999999999999999999999999+99999+99999999999ADDGP10060000002000000002000000002000GR100600000900009
0210725825241212000103008354+40820-115770FM-15+1565KEKO V0209999C000010120019N0160931N1+00201-00101999999ADDGD12991+0030019GD23991+0120019GD34991+0150019GF108991999999999999999999MA1101321999999MW1001REMMET087KEKO 300835Z 00000KT 10SM SCT010 BKN040 OVC050 02/M01 A2992 RMK AO2 PWINO FZRANO RVRNO;EQDQ01+000000PRSWM2
0071725825241212000103019009+40833-115800NSRDB+154899999V020999999999999999999999999999+99999+99999999999ADDGP10060009802008000002015009802008GQ100600566916359GR100600764913889
0195725825241212000103119354+40820-115770FM-15+1565KEKO V0202901N003610099019N0160931N1+00401-00101101991ADDGD12991+0072019GD23991+0099019GF107991999999999999999999MA1101931999999MW1001REMMET087KEKO 311935Z 29007KT 10SM SCT024 BKN033 04/M01 A3010 RMK AO2 SLP199 PWINO FZRANO RVRNO;EQDQ01+000000PRSWM2
0173725825241212000110109354+40820-115770FM-15+1565KEKO V0202101N002610132019N0160931N1+00101-00301102351ADDGD14991+0132019GF108991999999999999999999MA1102341999999MW1001REMMET080KEKO 010935Z 21005KT 10SM OVC044 01/M03 A3022 RMK AO2 SLP235 PWINO FZRANO RVRNO;EQDQ01+000000PRSWM2
0054725825241212000110213009+40833-115800NSRDB+154899999V020999999999999999999999999999+99999+99999999999ADDGP10060000002000000002000000002000GR100600000900009
0156725825241212000110312354+40820-115770FM-15+1565KEKO V0209999C000012200019N0160931N1-00601-00801102511ADDGF100991999999999999999999MA1102471999999MW1001REMMET078KEKO 031235Z 00000KT 10SM CLR M06/M08 A3026 RMK AO2 SLP251 PWINO FZRANO RVRNO;EQDQ01+000000PRSWM2
0156725825241212000110711354+40820-115770FM-15+1565KEKO V0209999C000012200019N0160931N1-01101-01401102291ADDGF100991999999999999999999MA1102071999999MW1001REMMET078KEKO 071135Z 00000KT 10SM CLR M11/M14 A3014 RMK AO2 SLP229 PWINO FZRANO RVRNO;EQDQ01+000000PRSWM2
