0240688420999992000052200004-33980+025600SY-MT+0060FAPE V0202601N002112200019N0300001N1+00911+00831101631ADDAA199000091GF103991001001999999001081MA1101591100881MD1510091+9999MW1001REMSYN076AAXX  22004 68842 32980 32604 10091 20083 30088 40163 55009 80008 555 91016;MET039FAPE 220000Z 27004KT CAVOK 09/08 Q1016;EQDQ01+000000PRSWM2Q02  00002PRCP99
0097688420999992000053005004-33980+025600FM-15+0060FAPE V0202601N00511220001CN0099001N1+01501+01101999999ADDMA1101191999999MW1001REMMET045FAPE 300500Z 26010KT CAVOK 15/11 Q1012 NOSIG;EQDQ01+000000PRSWM2
0097688420999992000060105004-33980+025600FM-15+0060FAPE V0203501N00261220001CN0099001N1+01101+00801999999ADDMA1101801999999MW1001REMMET045FAPE 010500Z 35005KT CAVOK 11/08 Q1018 NOSIG;EQDQ01+000000PRSWM2
0091688420999992000060322004-33980+025600FM-15+0060FAPE V0209999C00001220001CN0099001N1+01001+01001999999ADDMA1102711999999MW1001REMMET039FAPE 032200Z 00000KT CAVOK 10/10 Q1027;EQDQ01+000000PRSWM2
0313688420999992000061600004-33980+025590SY-MT+0060FAPE V0202601N00621033001CN0100001N1+01281+00991101801ADDAA118000021AY191061AY221061GA1021+006009999GA2071+033009999GF107991021051008001081081MA1101801101061MD1610011+9999MW1021REMSYN088AAXX  16004 68842 11560 72612 10128 20099 30106 40180 56001 60003 70292 82588 555 91018;MET052FAPE 160000Z 26012KT 9999 FEW020 BKN110 13/10 Q1018;EQDQ01+000000PRSWM2Q02    003PRSWM1
0235688420999992000061900004-33980+025590SY-MT+0060FAPE V0203401N001512200019N0400001N1+01101+00961102971ADDAA199000091GF100991001001999999001001MA1102911102211MD1510001+9999MW1001REMSYN070AAXX  19004 68842 32982 03403 10110 20096 30221 40297 55000 555 91029;MET040FAPE 190000Z 35003KT CAVOK 12/10 Q1029 ;EQDQ01+000000PRSWM2Q02  00002PRCP99
0097688420999992000062005004-33980+025590FM-15+0060FAPE V0203201N00211220001CN0099001N1+00701+00501999999ADDMA1101591999999MW1001REMMET045FAPE 200500Z 32004KT CAVOK 07/05 Q1016 NOSIG;EQDQ01+000000PRSWM2
0097688420999992000062010004-33980+025590FM-15+0060FAPE V0203601N00101220001CN0099001N1+02601+00601999999ADDMA1101491999999MW1001REMMET045FAPE 201000Z 36002KT CAVOK 26/06 Q1015 NOSIG;EQDQ01+000000PRSWM2
0157688420999992000062720004-33980+025590FM-15+0060FAPE V0202801N001012200019N0112651N1+00901+00901999999ADDGF100991999999999999999999MA1102201999999MW1121REMMET063FAPE 272000Z 28002KT 9999 R08/0020V0130D MIFG SKC 09/09 Q1022 ;EQDQ01+000003PRSWM1Q02    003PRSWM1
0145688420999992000062817004-33980+025590FM-15+0060FAPE V0202401N005712200019N0090001N1+01301+01201999999ADDGA1021+003009999GF102991999999999999999999MA1102401999999MW1001REMMET051FAPE 281700Z 24011KT 9000 FEW010 13/12 Q1024 NOSIG;EQDQ01+000000PRSWM2
0213688420999992000062921004-33980+025590SY-MT+0060FAPE V0200301N002612200019N0100001N1+00991+00781102601ADDGF100991001001999999001001MA1102611101841MD1710131+9999MW1001REMSYN070AAXX  29214 68842 42960 00305 10099 20078 30184 40260 57013 555 91025;MET045FAPE 292100Z 03005KT CAVOK 10/08 Q1026 NOSIG;EQDQ01+000000PRSWM2
0145688420999992000070113004-33980+025590FM-15+0060FAPE V0202301N007712200019N0112651N1+01701+01301999999ADDGA1021+003609999GF102991999999999999999999MA1102201999999MW1001REMMET051FAPE 011300Z 23015KT 9999 FEW012 17/13 Q1022 NOSIG;EQDQ01+000000PRSWM2
0251688420999992000070521004-33980+025590SY-MT+0060FAPE V0200801N00211009001CN0400001N1+01531+01391103141ADDGA1071+009009999GF199999051051012501001001MA1103121102391MD1010021+9999MW1001REMSYN076AAXX  05214 68842 42682 50804 10153 20139 30239 40314 50002 85500 555 91031;MET045FAPE 052100Z 08004KT 9999 BKN030 15/14 Q1031;EQDQ01+000052SCOTCVQ02+000000PRSWM2
0263688420999992000071012004-33980+025590SY-MT+0060FAPE V0200801N00261220001CN0400001N1+02031+00921101931ADDAA199000091GF100991001001999999001001KA1120N+00001MA1101901101201MD1710281+9999MW1001REMSYN080AAXX  10124 68842 32982 00805 10203 20092 30120 40193 57028 333 20000 555 91019;MET045FAPE 101200Z 07005KT CAVOK 20/09 Q1019 NOSIG;EQDQ01+000000PRSWM2Q02  00002PRCP99
0213688420999992000071203004-33980+025590SY-MT+0060FAPE V0202901N003112200019N0400001N1+00971+00781101761ADDGF100991001001999999001001MA1101691101011MD1710161+9999MW1001REMSYN070AAXX  12034 68842 42982 02906 10097 20078 30101 40176 57016 555 91017;MET045FAPE 120300Z 30006KT CAVOK 10/08 Q1017 NOSIG;EQDQ01+000000PRSWM2
0097688420999992000071701004-33980+025590FM-15+0060FAPE V0203101N00101220001CN0099001N1+00301+00001999999ADDMA1102001999999MW1001REMMET045FAPE 170100Z 31002KT CAVOK 03/00 Q1020 NOSIG;EQDQ01+000000PRSWM2
0224688420999992000072400004-33980+025590SY-MT+0060FAPE V0200301N003612200019N0400001N1+01191+01011101471ADDAA118000021GF100991001001999999001001MA1101491100731MD1710241+9999MW1001REMSYN076AAXX  24004 68842 12982 00307 10119 20101 30073 40147 57024 60003 555 91014;MET039FAPE 240000Z 04006KT CAVOK 12/10 Q1015;EQDQ01+000000PRSWM2
0097688420999992000080820004-33980+025590FM-15+0060FAPE V0202501N00461220001CN0099001N1+01601+00801999999ADDMA1101801999999MW1001REMMET045FAPE 082000Z 25009KT CAVOK 16/08 Q1018 NOSIG;EQDQ01+000000PRSWM2
0097688420999992000081422004-33980+025590FM-15+0060FAPE V0200101N00311220001CN0099001N1+01401+01301999999ADDMA1102811999999MW1001REMMET045FAPE 142200Z 01006KT CAVOK 14/13 Q1028 NOSIG;EQDQ01+000000PRSWM2
0097688420999992000082520004-33980+025590FM-15+0060FAPE V0202801N00211220001CN0099001N1+01101+01001999999ADDMA1102401999999MW1001REMMET045FAPE 252000Z 28004KT CAVOK 11/10 Q1024 NOSIG;EQDQ01+000000PRSWM2
0310688420999992000082706004-33980+025590SY-MT+0060FAPE V0202401N00621009001CN0300001N1+01421+01241102501ADDAA199000091GA1081+009009999GF108991081051012501999999KA1240M+01981KA2120N+00921MA1102511101751MD1210191+9999MW1001REMSYN092AAXX  27064 68842 32680 82412 10142 20124 30175 40250 52019 885// 333 20092 555 10198 91025;MET051FAPE 270600Z 24010KT 9999 OVC030 14/13 Q1025 NOSIG;EQDQ01+000000PRSWM2Q02  00002PRCP99
0207688420999992000083114004-33980+025590FM-15+0060FAPE V0202401N015912200019N0050001N1+01801+01201999999ADDGA1021+004509999GA2021+027009999GF104991999999999999999999MA1100611999999MW1071OC102521REMMET073FAPE 311400Z 24031G49KT 5000 BLSA SCT015 SCT090 18/12 Q1006 TEMPO BKN012;EQDQ01+000003PRSWM1Q02    003PRSWM1
0286688420999992000090312004-33980+025590SY-MT+0060FAPE V0202401N015912200019N0300001N1+01621+00251101081ADDAA199000021GA1021+010509999GF102991021011012501001001KA1120N+01081MA1101081100351MD1610031+9999MW1001OC102311REMSYN086AAXX  03124 68842 32680 22431 10162 20025 30035 40108 56003 82100 333 20108 555 91010;MET054FAPE 031200Z 25029G45KT 9999 FEW035 17/02 Q1011 NOSIG;EQDQ01+000000PRSWM2
0284688420999992000090406004-33980+025590SY-MT+0060FAPE V0203201N004112200019N0400001N1+01171+00031101871ADDAA124000091GF101991001001999999001011KA1240M+01671KA2120N+00721MA1101801101121MD1210131+9999MW1001REMSYN104AAXX  04064 68842 12982 13208 10117 20003 30112 40187 52013 69904 80001 333 20072 555 10167 20000 91018;MET045FAPE 040600Z 33007KT CAVOK 11/00 Q1018 NOSIG;EQDQ01+000000PRSWM2
0291688420999992000091112004-33980+025590SY-MT+0060FAPE V0201801N004112200019N0300001N1+01811+00091102291ADDAA106002091AY161061AY201061GF100991001001999999001001KA1120N+00891MA1102301101551MD1710241+9999MW1021REMSYN092AAXX  11124 68842 11980 01808 10181 20009 30155 40229 57024 60021 70260 333 20089 555 91023;MET045FAPE 111200Z 17009KT CAVOK 18/00 Q1023 NOSIG;EQDQ01+000000PRSWM2Q02    003PRSWM1
0240688420999992000091200004-33980+025590SY-MT+0060FAPE V0203601N002619999999N0300001N1+01001+00361101391ADDAA199000091GF106991001001999999001081MA1101391100641MD1710351+9999MW1001REMSYN076AAXX  12004 68842 32980 63605 10100 20036 30064 40139 57035 80008 555 91013;MET039FAPE 120000Z 36005KT CAVOK 10/04 Q1014;EQDQ01+000000PRSWM2Q02  00002PRCP99
0145688420999992000092013004-33980+025590FM-15+0060FAPE V0200801N008712200019N0112651N1+01901+01301999999ADDGA1021+009009999GF102991999999999999999999MA1102711999999MW1001REMMET051FAPE 201300Z 08017KT 9999 FEW030 19/13 Q1027 NOSIG;EQDQ01+000000PRSWM2
0097688420999992000092311004-33980+025590FM-15+0060FAPE V0203301N00721220001CN0099001N1+03601+00001999999ADDMA1100811999999MW1001REMMET045FAPE 231100Z 33014KT CAVOK 36/00 Q1008 NOSIG;EQDQ01+000000PRSWM2
0172688420999992000092414004-33980+025590FM-15+0060FAPE V0202301N01181220001CN0112651N1+01601+01301999999ADDGA1071+003609999GA2021+009009029MA1101021999999MW1001OC101851REMMET064FAPE 241400Z 23023G36KT 9999 BKN012 SCT030TCU 16/13 Q1010 NOSIG;EQDQ01+000042SCOTCVQ02+000000PRSWM2
0168688420999992000093016004-33980+025590FM-15+0060FAPE V0202401N005710420019N0112651N1+01801+01501999999ADDGA1021+009009999GA2071+042009999GF107991999999999999999999MA1101191999999MW1001REMMET058FAPE 301600Z 24011KT 9999 FEW030 BKN140 18/15 Q1012 NOSIG;EQDQ01+000000PRSWM2
0301688420999992000101003004-33980+025590SY-MT+0060FAPE V0202301N00671007501CN0050001N1+01451+01291101661ADDAY181031AY261031GA1021+001509999GA2081+007509999GF108991081051001501999999MA1101591100921MD1210391+9999MW1601MW2631REMSYN082AAXX  10034 68842 41250 82313 10145 20129 30092 40166 52039 76086 885// 555 91016;MET067FAPE 100300Z 23014KT 5000 RA SCT005 OVC025 15/13 Q1016 TEMPO 8000 ;EQDQ01    003PRSWM1
0234688420999992000101218004-33980+025590FM-12+0060FAPE V0200501N001512200019N0150001N1+01681+01421101131ADDAA199000091AY101061AY201061GA1001+999999999GF100991001001999999001001KA1120M+02201MA1999999100401MD1510001+9999MW1051REMSYN086AAXX  12184 68842 31965 00503 10168 20142 30040 40113 55000 70500 333 10220 555 91011;EQDQ01  00002PRCP99
0097688420999992000101222004-33980+025590FM-15+0060FAPE V0201001N00101220001CN0099001N1+01601+01401999999ADDMA1100911999999MW1001REMMET045FAPE 122200Z 10002KT CAVOK 16/14 Q1009 NOSIG;EQDQ01+000000PRSWM2
0145688420999992000101408004-33980+025590FM-15+0060FAPE V0200201N003610105019N0070001N1+01901+01501999999ADDGA1071+010509999GF107991999999999999999999MA1102001999999MW1001REMMET051FAPE 140800Z 02007KT 7000 BKN035 19/15 Q1020 NOSIG;EQDQ01+000000PRSWM2
0156688420999992000101614004-33980+025590FM-15+0060FAPE V0202401N014412200019N0112651N1+01801+01101999999ADDGA1021+009009999GF102991999999999999999999MA1101691999999MW1001OC102261REMMET054FAPE 161400Z 24028G44KT 9999 FEW030 18/11 Q1017 NOSIG;EQDQ01+000000PRSWM2
0307688420999992000101909004-33980+025590SY-MT+0060FAPE V0201801N00411007501CN0100001N1+01571+01411102511ADDAY161031AY261031GA1021+003009999GA2081+007509999GF108991081051004501999999MA1102511101771MD1110181+9999MW1211REMSYN082AAXX  19094 68842 41460 81808 10157 20141 30177 40251 51018 72166 885// 555 91025;MET063FAPE 190900Z 18006KT 9999 FEW010 OVC025 16/15 Q1025 RERA NOSIG;EQDQ01+000000PRSWM2Q02    003PRSWM1
0145688420999992000102710004-33980+025590FM-15+0060FAPE V0200801N008712200019N0112651N1+01901+01101999999ADDGA1021+009009999GF102991999999999999999999MA1102511999999MW1001REMMET051FAPE 271000Z 08017KT 9999 FEW030 19/11 Q1025 NOSIG;EQDQ01+000000PRSWM2
0097688420999992000102722004-33980+025590FM-15+0060FAPE V0200601N00671220001CN0099001N1+01501+01301999999ADDMA1102201999999MW1001REMMET045FAPE 272200Z 06013KT CAVOK 15/13 Q1022 NOSIG;EQDQ01+000000PRSWM2
0168688420999992000110319004-33980+025590FM-15+0060FAPE V0202701N001012200019N0112651N1+01501+01401999999ADDGA1021+002409999GA2021+015009999GF104991999999999999999999MA1100911999999MW1001REMMET058FAPE 031900Z 27002KT 9999 FEW008 SCT050 15/14 Q1009 NOSIG;EQDQ01+000000PRSWM2
0282688420999992000110406004-33980+025590SY-MT+0060FAPE V0202501N008712200019N0400001N1+01941+00971101041ADDAA199000091GF100991001001999999001001KA1240M+01971KA2120N+01271MA1101021100321MD1010081+9999MW1001REMSYN086AAXX  04064 68842 32982 02517 10194 20097 30032 40104 50008 333 20127 555 10197 91010;MET045FAPE 040600Z 24019KT CAVOK 19/09 Q1010 NOSIG;EQDQ01+000000PRSWM2Q02  00002PRCP99
0291688420999992000110418004-33980+025590SY-MT+0060FAPE V0202501N004612200019N0200001N1+01661+01511101431ADDAA199000091GA1021+003609999GF102991021051004501001001KA1120M+02211MA1101391100701MD1110291+9999MW1001REMSYN086AAXX  04184 68842 32470 22509 10166 20151 30070 40143 51029 82500 333 10221 555 91014;MET051FAPE 041800Z 24011KT 9999 FEW012 17/15 Q1014 NOSIG;EQDQ01+000000PRSWM2Q02  00002PRCP99
0145688420999992000111314004-33980+025590FM-15+0060FAPE V0201701N006212200019N0112651N1+01901+01001999999ADDGA1021+009009999GF104991999999999999999999MA1102001999999MW1001REMMET051FAPE 131400Z 17012KT 9999 SCT030 19/10 Q1020 NOSIG;EQDQ01+000000PRSWM2
0234688420999992000111600004-33980+025590SY-MT+0060FAPE V0200701N005712200019N0300001N1+01871+01771101561ADDAA199000091GF100991001001999999001001MA1101491100831MD1710141+9999MW1001REMSYN070AAXX  16004 68842 32980 00711 10187 20177 30083 40156 57014 555 91015;MET039FAPE 160000Z 07012KT CAVOK 19/18 Q1015;EQDQ01+000000PRSWM2Q02  00002PRCP99
0326688420999992000120206004-33980+025590SY-MT+0060FAPE V0202401N005712200019N0300001N1+02201+01571101481ADDAA199000091GA1021+007509999GF199999011051008001001041KA1240M+02511KA2120N+01791MA1101491100761MD1010061+9999MW1001REMSYN092AAXX  02064 68842 32580 12411 10220 20157 30076 40148 50006 81504 333 20179 555 10251 91015;MET051FAPE 020600Z 24011KT 9999 FEW025 22/15 Q1015 NOSIG;EQDQ01+000012SCOTCVQ02+000000PRSWM2Q03  00002PRCP99
0139688420999992000122023004-33980+025590FM-15+0060FAPE V0202101N001010090019N0112651N1+01601+01501999999ADDGA1071+009009999GF107991999999999999999999MA1101801999999MW1001REMMET045FAPE 202300Z 21002KT 9999 BKN030 16/15 Q1018;EQDQ01+000000PRSWM2
0156688420999992000122414004-33980+025590FM-15+0060FAPE V0202401N012912200019N0112651N1+02301+01601999999ADDGA1021+004509999GF104991999999999999999999MA1100911999999MW1001OC102011REMMET054FAPE 241400Z 24025G39KT 9999 SCT015 23/16 Q1009 NOSIG;EQDQ01+000000PRSWM2
0159688420999992000122420004-33980+025590FM-15+0060FAPE V0202101N004110066019N0112651N1+01801+01401999999ADDGA1081+006609999GF108991999999999999999999MA1101291999999MW1511REMMET049FAPE 242000Z 21008KT 9999 -DZ OVC022 18/14 Q1013;EQDQ01+000003PRSWM1Q02    003PRSWM1
0251688420999992000122521004-33980+025590SY-MT+0060FAPE V0202101N00151015001CN0400001N1+01611+01591101861ADDGA1071+015009999GF199999061051012501001001MA1101801101121MD1110081+9999MW1001REMSYN076AAXX  25214 68842 42682 62103 10161 20159 30112 40186 51008 86500 555 91018;MET045FAPE 252100Z 21003KT 9999 BKN050 16/16 Q1018;EQDQ01+000062SCOTCVQ02+000000PRSWM2
0097688420999992000122713004-33980+025590FM-15+0060FAPE V0200901N00721220001CN0099001N1+02601+01701999999ADDMA1100311999999MW1001REMMET045FAPE 271300Z 09014KT CAVOK 26/17 Q1003 NOSIG;EQDQ01+000000PRSWM2
0291688420999992000123018004-33980+025590SY-MT+0060FAPE V0202301N005712200019N0300001N1+01941+01541101071ADDAA199000091GA1021+006309999GF104991041051008001001001KA1120M+02471MA1101021100351MD1210201+9999MW1001REMSYN086AAXX  30184 68842 32580 42311 10194 20154 30035 40107 52020 84500 333 10247 555 91010;MET051FAPE 301800Z 23010KT 9999 SCT021 19/15 Q1010 NOSIG;EQDQ01+000000PRSWM2Q02  00002PRCP99
0189688470999992000012306004-33600+026880FM-12+003799999V0201701N002119999999N9999999N1+02221+99999101721ADDAA199000091KA1240M+02501KA2120N+01901MA1999999101291MD1210081+9999REMSYN092AAXX  23064 68847 36/// /1704 10222 2//// 30129 40172 52008 333 20190 91006 555 10250 91017;EQDQ01  00002PRCP99
0189688470999992000022312004-33600+026880FM-12+003799999V0202101N008719999999N9999999N1+02171+99999101721ADDAA199000091KA1120M+02431KA2120N+01881MA1999999101291MD1710051+9999REMSYN092AAXX  23124 68847 36/// /2117 10217 2//// 30129 40172 57005 333 10243 20188 91018 555 91017;EQDQ01  00002PRCP99
0189688470999992000042106004-33600+026880FM-12+003799999V0203401N002119999999N9999999N1+01821+99999101481ADDAA199000091KA1240M+02211KA2120N+01601MA1999999101041MD1210051+9999REMSYN092AAXX  21064 68847 36/// /3404 10182 2//// 30104 40148 52005 333 20160 91005 555 10221 91014;EQDQ01  00002PRCP99
0189688470999992000042900004-33600+026880FM-12+003799999V0200801N004119999999N9999999N1+01581+99999102301ADDAA199000091KA1120M+02021KA2120N+01561MA1999999101851MD1710131+9999REMSYN092AAXX  29004 68847 36/// /0808 10158 2//// 30185 40230 57013 333 10202 20156 91014 555 91022;EQDQ01  00002PRCP99
0189688470999992000043012004-33600+026880FM-12+003799999V0202001N004119999999N9999999N1+02031+99999101741ADDAA199000091KA1120M+02171KA2120N+01391MA1999999101301MD1710141+9999REMSYN092AAXX  30124 68847 36/// /2008 10203 2//// 30130 40174 57014 333 10217 20139 91016 555 91017;EQDQ01  00002PRCP99
0189688470999992000051006004-33600+026880FM-12+003799999V0203101N003119999999N9999999N1+01421+99999102381ADDAA199000091KA1240M+02131KA2120N+01281MA1999999101931MD1210061+9999REMSYN092AAXX  10064 68847 36/// /3106 10142 2//// 30193 40238 52006 333 20128 91006 555 10213 91023;EQDQ01  00002PRCP99
0189688470999992000052600004-33600+026880FM-12+003799999V0203301N002119999999N9999999N1+01281+99999101261ADDAA199000091KA1120M+01901KA2120N+01251MA1999999100821MD1210061+9999REMSYN092AAXX  26004 68847 36/// /3304 10128 2//// 30082 40126 52006 333 10190 20125 91005 555 91012;EQDQ01  00002PRCP99
0189688470999992000061718004-33590+026880FM-12+003799999V0203201N003119999999N9999999N1+01021+99999102181ADDAA199000091KA1120M+01951KA2120N+01011MA1999999101731MD1210101+9999REMSYN092AAXX  17184 68847 36/// /3206 10102 2//// 30173 40218 52010 333 10195 20101 91007 555 91021;EQDQ01  00002PRCP99
0189688470999992000062412004-33590+026880FM-12+003799999V0202901N006219999999N9999999N1+02131+99999101971ADDAA199000091KA1120M+02151KA2120N+00491MA1999999101521MD1710281+9999REMSYN092AAXX  24124 68847 36/// /2912 10213 2//// 30152 40197 57028 333 10215 20049 91012 555 91019;EQDQ01  00002PRCP99
0189688470999992000080418004-33590+026880FM-12+003799999V0202701N004119999999N9999999N1+01521+99999102581ADDAA199000091KA1120M+02181KA2120N+01521MA1999999102131MD1210211+9999REMSYN092AAXX  04184 68847 36/// /2708 10152 2//// 30213 40258 52021 333 10218 20152 91012 555 91025;EQDQ01  00002PRCP99
0189688470999992000100612004-33590+026880FM-12+003799999V0201601N004119999999N9999999N1+02041+99999101861ADDAA199000091KA1120M+02121KA2120N+01231MA1999999101411MD1710151+9999REMSYN092AAXX  06124 68847 36/// /1608 10204 2//// 30141 40186 57015 333 10212 20123 91013 555 91018;EQDQ01  00002PRCP99
0189688470999992000112800004-33590+026880FM-12+003799999V0202901N002119999999N9999999N1+01651+99999101611ADDAA199000091KA1120M+02471KA2120N+01651MA1999999101171MD1710241+9999REMSYN092AAXX  28004 68847 36/// /2904 10165 2//// 30117 40161 57024 333 10247 20165 91005 555 91016;EQDQ01  00002PRCP99
0189688470999992000121318004-33590+026880FM-12+003799999V0202701N002119999999N9999999N1+01841+99999101461ADDAA199000091KA1120M+02411KA2120N+01841MA1999999101021MD1210121+9999REMSYN092AAXX  13184 68847 36/// /2704 10184 2//// 30102 40146 52012 333 10241 20184 91006 555 91014;EQDQ01  00002PRCP99
0189688470999992000123012004-33590+026880FM-12+003799999V0202001N007719999999N9999999N1+02491+99999101001ADDAA199000091KA1120M+02581KA2120N+01521MA1999999100561MD1410001+9999REMSYN092AAXX  30124 68847 36/// /2015 10249 2//// 30056 40100 54000 333 10258 20152 91022 555 91010;EQDQ01  00002PRCP99
0198688490999992000011100004-33280+026500FM-12+064299999V0200701N006719999999N9999999N1+01841+01761999999ADDAA106000091KA1120M+02421KA2120N+01781MA1999999093811MD1710121+9999ME1314879REMSYN092AAXX  11004 68849 36/// /0713 10184 20176 39381 48487 57012 333 10242 20178 91015 555 91012;EQDQ01  00002PRCP06
0198688490999992000012300004-33280+026500FM-12+064299999V0209999C000019999999N9999999N1+01801+01721999999ADDAA199000091KA1120M+02651KA2120N+01801MA1999999094451MD1710051+9999ME1315479REMSYN092AAXX  23004 68849 36/// /0000 10180 20172 39445 48547 57005 333 10265 20180 91007 555 91019;EQDQ01  00002PRCP99
0198688490999992000020100004-33280+026500FM-12+064299999V0201401N003119999999N9999999N1+01671+01591999999ADDAA199000091KA1120M+02411KA2120N+01671MA1999999094071MD1710131+9999ME1315099REMSYN092AAXX  01004 68849 36/// /1406 10167 20159 39407 48509 57013 333 10241 20167 91006 555 91015;EQDQ01  00002PRCP99
0198688490999992000020518004-33280+026500FM-12+064299999V0201601N004119999999N9999999N1+01821+01741999999ADDAA199000091KA1120M+02411KA2120N+01791MA1999999094451MD1210141+9999ME1315499REMSYN092AAXX  05184 68849 36/// /1608 10182 20174 39445 48549 52014 333 10241 20179 91010 555 91019;EQDQ01  00002PRCP99
0202688490999992000031800004-33280+026500FM-12+064299999V0201601N003119999999N9999999N1+01551+01471999999ADDAA106005191AA224005291KA1120M+01841KA2120N+01551MA1999999094491MD1710051+9999ME1315449REMSYN104AAXX  18004 68849 16/// /1606 10155 20147 39449 48544 57005 60051 333 10184 20155 91010 555 20052 91020;
0198688490999992000032306004-33280+026500FM-12+064299999V0203201N003119999999N9999999N1+02151+01471999999ADDAA199000091KA1240M+03261KA2120N+01581MA1999999094441MD1210031+9999ME1315619REMSYN092AAXX  23064 68849 36/// /3206 10215 20147 39444 48561 52003 333 20158 91006 555 10326 91019;EQDQ01  00002PRCP99
0198688490999992000033112004-33280+026500FM-12+064299999V0202101N004119999999N9999999N1+01901+01631999999ADDAA199000091KA1120M+02001KA2120N+01371MA1999999094651MD1710121+9999ME1315639REMSYN092AAXX  31124 68849 36/// /2108 10190 20163 39465 48563 57012 333 10200 20137 91011 555 91021;EQDQ01  00002PRCP99
0198688490999992000062412004-33280+026500FM-12+064299999V0202501N003119999999N9999999N1+01651-00161999999ADDAA199000091KA1120M+01691KA2120N+00281MA1999999094531MD1710281+9999ME1315379REMSYN092AAXX  24124 68849 36/// /2506 10165 21016 39453 48537 57028 333 10169 20028 91022 555 91020;EQDQ01  00002PRCP99
0198688490999992000091206004-33280+026500FM-12+064299999V0203001N005119999999N9999999N1+01641-00081999999ADDAA199000091KA1240M+02021KA2120N+00721MA1999999093691MD1710241+9999ME1314659REMSYN092AAXX  12064 68849 36/// /3010 10164 21008 39369 48465 57024 333 20072 91015 555 10202 91011;EQDQ01  00002PRCP99
0202688490999992000100218004-33280+026500FM-12+064299999V0201001N009819999999N9999999N1+01251+01171999999ADDAA112000191AA224000291KA1120M+01791KA2120N+01251MA1999999094751MD1210041+9999ME1315559REMSYN104AAXX  02184 68849 16/// /1019 10125 20117 39475 48555 52004 69922 333 10179 20125 91019 555 20002 91022;
0198688490999992000111200004-33280+026500FM-12+064299999V0209999C000019999999N9999999N1+01791+01711999999ADDAA199000091KA1120M+02811KA2120N+01771MA1999999093181MD1710161+9999ME1314279REMSYN092AAXX  12004 68849 36/// /0000 10179 20171 39318 48427 57016 333 10281 20177 91011 555 91006;EQDQ01  00002PRCP99
0214688490999992000122500004-33280+026500FM-12+064299999V0202301N002119999999N9999999N1+01311+01231999999ADDAA101000591AA224002691KA1120M+02441KA2120N+01311MA1999999094051MD1710061+9999ME1315019REMSYN116AAXX  25004 68849 1//// /2304 10131 20123 39405 48501 57006 60031 7216/ 333 10244 20131 69945 91012 555 20026 91015;
0143688580999992000010108004-33030+027830FM-15+0125FAEL V0202101N006210015019N0112651N1+02001+01801999999ADDGA1071+001509999GA2071+006009999GF107991999999999999999999MA1100911999999MW1001REMMET052FAEL 010800Z 21012KT 9999 BKN005 BKN020 20/18 Q1009;
0139688580999992000010905004-33030+027830FM-15+0125FAEL V0200401N003612200019N0112651N1+01901+01601999999ADDGA1021+007509999GF104991999999999999999999MA1101081999999MW1001REMMET045FAEL 090500Z 04007KT 9999 SCT025 19/16 Q1011;EQDQ01+000000PRSWM2
0235688580999992000010909004-33030+027830SY-MT+0125FAEL V0200701N008712200019N0400001N1+02351+01741100891ADDGA1021+006909999GF103991021011008001001021MA1100911099461MD1710111+9999MW1001REMSYN076AAXX  09094 68858 42582 30717 10235 20174 39946 40089 57011 82102 555 91009;MET045FAEL 090900Z 07017KT 9999 SCT023 23/17 Q1009;EQDQ01+000000PRSWM2
0162688580999992000012310004-33030+027830FM-15+0125FAEL V0201201N003610090019N0112651N1+02601+02001999999ADDGA1021+006009999GA2071+009009999GF107991999999999999999999MA1101691999999MW1001REMMET052FAEL 231000Z 12007KT 9999 SCT020 BKN030 26/20 Q1017;EQDQ01+000000PRSWM2
0314688580999992000020109004-33030+027830SY-MT+0125FAEL V0202001N003610015019N0040001N1+02101+01931101281ADDAY151031AY251031GA1071+001509999GA2071+003009999GA3081+006009999GF108991081061001501999999MA1101291099841MD1610051+9999MW1501MW2511REMSYN082AAXX  01094 68858 41240 82007 10210 20193 39984 40128 56005 75055 886// 555 91013;MET064FAEL 010900Z 21007KT 4000W -DZ BKN005 BKN010 OVC020 21/20 Q1013;EQDQ01    003PRSWM1
0361688580999992000020212004-33030+027830SY-MT+0125FAEL V0202201N00211001801CN0090001N1+01991+01751101871ADDAA106000791AY161061AY221061GA1071+001809999GA2021+004509999GA3081+010509999GF108991081051002501999999KA1120N+01951MA1101901100411MD1010021+9999MW1021REMSYN098AAXX  02124 68858 11359 82204 10199 20175 30041 40187 50002 69901 70262 885// 333 20195 555 91019;MET061FAEL 021200Z 23004KT 9000NW BKN006 SCT015 OVC035 20/17 Q1019;EQDQ01+000000PRSWM2Q02    003PRSWM1
0162688580999992000020810004-33030+027830FM-15+0125FAEL V0202001N004610105019N0112651N1+02701+02101999999ADDGA1021+007509999GA2071+010509999GF107991999999999999999999MA1101491999999MW1001REMMET052FAEL 081000Z 20009KT 9999 FEW025 BKN035 27/21 Q1015;EQDQ01+000000PRSWM2
0235688580999992000020909004-33030+027830SY-MT+0125FAEL V0200801N006712200019N0400001N1+02751+01701101561ADDGA1021+008109999GF103991021011008001001051MA1101591100141MD1710031+9999MW1001REMSYN076AAXX  09094 68858 42582 30813 10275 20170 30014 40156 57003 82105 555 91016;MET045FAEL 090900Z 07012KT 9999 FEW027 28/18 Q1016;EQDQ01+000000PRSWM2
0196688580999992000021212004-33030+027830FM-12+0125FAEL V0201101N004112200019N0400001N1+02801+02231100751ADDAA199000091GF103991031011012501001001KA1120N+02511MA1999999099351MD1710141+9999REMSYN086AAXX  12124 68858 32682 31108 10280 20223 39935 40075 57014 83100 333 20251 555 91008;EQDQ01  00002PRCP99
0311688580999992000021506004-33030+027830SY-MT+0125FAEL V0202201N009812200019N0400001N1+02271+01511100801ADDAA124000491GA1021+009009999GF102991011041012501041001KA1240M+02571KA2120N+02011MA1100811099371MD1110151+9999MW1001OC101491REMSYN104AAXX  15064 68858 12682 22219 10227 20151 39937 40080 51015 69944 81440 333 20201 555 10257 20004 91008;MET048FAEL 150600Z 23019G29KT 9999 FEW030 22/15 Q1008;EQDQ01+000000PRSWM2
0258688580999992000021509004-33030+027830SY-MT+0125FAEL V0202101N009312200019N0400001N1+02281+01571100881ADDGA1021+007509999GA2021+030009999GF104991021051008001051001MA1100911099451MD1210081+9999MW1001REMSYN076AAXX  15094 68858 42582 42118 10228 20157 39945 40088 52008 82550 555 91009;MET052FAEL 150900Z 21019KT 9999 FEW025 SCT100 22/16 Q1009;EQDQ01+000000PRSWM2
0162688580999992000030210004-33030+027830FM-15+0125FAEL V0200701N004110036019N0112651N1+02201+01801999999ADDGA1071+003609999GA2081+008109999GF108991999999999999999999MA1101901999999MW1001REMMET052FAEL 021000Z 07008KT 9999 BKN012 OVC027 22/18 Q1019;EQDQ01+000000PRSWM2
0182688580999992000030813004-33030+027830FM-15+0125FAEL V0201301N002610024019N0040001N1+02201+02101999999ADDGA1071+002409999GA2081+006009999GF108991999999999999999999MA1102001999999MW1611REMMET056FAEL 081300Z 13005KT 4000 -RA BKN008 OVC020 22/21 Q1020;EQDQ01+000003PRSWM1Q02    003PRSWM1
0143688580999992000031715004-33030+027830FM-12+0125FAEL V0202401N004110360019N0400001N1+02221+01991101481ADDGF107991031051008001051999MA1999999100041MD1510011+9999REMSYN076AAXX  17154 68858 42582 72408 10222 20199 30004 40148 55001 8355/ 555 91015;
0091688580999992000031905004-33030+027830FM-15+0125FAEL V0203401N00211220001CN0099001N1+02101+02001999999ADDMA1101391999999MW1001REMMET039FAEL 190500Z 34004KT CAVOK 21/20 Q1014;EQDQ01+000000PRSWM2
0102688580999992000040502004-33030+027830FM-15+0125FAEL V0200901N001012200019N9999999N1+01501+01001999999ADDMA1102911999999MW1001REMMET050FAEL 050200Z AUTO 09002KT //// // /// 15/10 Q1029;EQDQ01+000000PRSWM2
0162688580999992000040508004-33030+027830FM-15+0125FAEL V0203101N001010300019N0112651N1+01701+01501999999ADDGA1021+012009999GA2071+030009999GF107991999999999999999999MA1103011999999MW1001REMMET052FAEL 050800Z 31002KT 9999 SCT040 BKN100 17/15 Q1030;EQDQ01+000000PRSWM2
0162688580999992000040911004-33030+027830FM-15+0125FAEL V0202101N004610135019N0112651N1+02201+01601999999ADDGA1021+006009999GA2071+013509999GF107991999999999999999999MA1102101999999MW1001REMMET052FAEL 091100Z 21009KT 9999 FEW020 BKN045 22/16 Q1021;EQDQ01+000000PRSWM2
0147688580999992000041600004-33030+027830FM-12+0125FAEL V0203401N002119999999N9999999N1+01571+01481101871ADDAA199000091MA1999999100391MD1710161+9999REMSYN076AAXX  16004 68858 320// /3404 10157 20148 30039 40187 57016 83550 555 91018;EQDQ01  00002PRCP99
0143688580999992000041815004-33030+027830FM-12+0125FAEL V0200601N004612200019N0400001N1+02191+01771102191ADDGF102991021021012501001021MA1999999100741MD1110121+9999REMSYN076AAXX  18154 68858 42682 20609 10219 20177 30074 40219 51012 82202 555 91022;
0091688580999992000042108004-33030+027830FM-15+0125FAEL V0200401N00311220001CN0099001N1+02401+01701999999ADDMA1101591999999MW1001REMMET039FAEL 210800Z 04006KT CAVOK 24/17 Q1016;EQDQ01+000000PRSWM2
0188688580999992000042313004-33030+027830FM-15+0125FAEL V0202101N004612200019N0112651N1+02101+01501999999ADDGA1021+007509999GA2021+012009029GA3021+036009999GF104991999999999999999999MA1101291999999MW1001REMMET062FAEL 231300Z 21009KT 9999 SCT025 FEW040TCU SCT120 21/15 Q1013;EQDQ01+000000PRSWM2
0171688580999992000042609004-33030+027830FM-12+0125FAEL V0202601N005110021019N0080001N1+01401+01271101941ADDAY161031AY251031GF108991081051002501999999MA1999999100451MD1010081+9999MW1621REMSYN082AAXX  26094 68858 41358 82610 10140 20127 30045 40194 50008 76265 885// 555 91019;
0102688580999992000050902004-33030+027830FM-15+0125FAEL V0202901N003112200019N9999999N1+01501+01301999999ADDMA1102301999999MW1001REMMET050FAEL 090200Z AUTO 29006KT //// // /// 15/13 Q1023;EQDQ01+000000PRSWM2
0262688580999992000052603004-33030+027830SY-MT+0125FAEL V0202601N005710900019N0300001N1+01411+01171101301ADDAY121031AY221031GF105991031051008001001031MA1101291099821MD1110051+9999MW1131REMSYN082AAXX  26034 68858 41580 52611 10141 20117 39982 40130 51005 71322 83503 555 91013;MET050FAEL 260300Z AUTO 26010KT //// // /// 14/12 Q1013;EQDQ01+000000PRSWM2Q02    003PRSWM1
0102688580999992000060702004-33030+027830FM-15+0125FAEL V0203301N003112200019N9999999N1+01101+00801999999ADDMA1102401999999MW1001REMMET050FAEL 070200Z AUTO 33006KT //// // /// 11/08 Q1024;EQDQ01+000000PRSWM2
0091688580999992000060811004-33030+027830FM-15+0125FAEL V0201801N00261220001CN0099001N1+02501+00901999999ADDMA1102201999999MW1001REMMET039FAEL 081100Z 18005KT CAVOK 25/09 Q1022;EQDQ01+000000PRSWM2
0276688580999992000061306004-33030+027830SY-MT+0125FAEL V0203401N001512200019N0400001N1+01121+01001102001ADDAA199000091GF100991001001999999001001KA1240M+01781KA2120N+00961MA1102001100501MD1110031+9999MW1001REMSYN086AAXX  13064 68858 32982 03403 10112 20100 30050 40200 51003 333 20096 555 10178 91020;MET039FAEL 130600Z 35002KT CAVOK 11/10 Q1020;EQDQ01+000000PRSWM2Q02  00002PRCP99
0091688580999992000061604004-33300+027820FM-15+0125FAEL V0202501N00361220001CN0099001N1+01501+01001999999ADDMA1101801999999MW1001REMMET039FAEL 160400Z 25007KT CAVOK 15/10 Q1018;EQDQ01+000000PRSWM2
0102688580999992000061802004-33300+027820FM-15+0125FAEL V0202701N007212200019N9999999N1+01501+00301999999ADDMA1102301999999MW1001REMMET050FAEL 180200Z AUTO 27014KT //// // /// 15/03 Q1023;EQDQ01+000000PRSWM2
0091688580999992000070804004-33300+027820FM-15+0125FAEL V0203401N00311220001CN0099001N1+01001+00601999999ADDMA1102511999999MW1001REMMET039FAEL 080400Z 34006KT CAVOK 10/06 Q1025;EQDQ01+000000PRSWM2
0143688580999992000070915004-33300+027820FM-12+0125FAEL V0200401N003112200019N0300001N1+01991+00641102091ADDGF102991001001999999001011MA1999999100631MD1710051+9999REMSYN076AAXX  09154 68858 42980 20406 10199 20064 30063 40209 57005 80001 555 91021;
0150688580999992000071610004-33300+027820FM-15+0125FAEL V0202501N010812200019N0112651N1+01401+00201999999ADDGA1021+007809999GF104991999999999999999999MA1102711999999MW1001OC101651REMMET048FAEL 161000Z 25021G32KT 9999 SCT026 14/02 Q1027;EQDQ01+000000PRSWM2
0185688580999992000073111004-33030+027820FM-15+0125FAEL V0200801N005110150019N0112651N1+01901+01301999999ADDGA1021+008109999GA2071+015009999GA3071+036009999GF107991999999999999999999MA1102101999999MW1001REMMET059FAEL 311100Z 08010KT 9999 SCT027 BKN050 BKN120 19/13 Q1021;EQDQ01+000000PRSWM2
0140688580999992000080313004-33030+027820FM-15+0125FAEL V0202401N008212200019N0112651N1+02301-00501999999ADDGA1021+008409999GF102991999999999999999999MA1101691999999MW1001REMMET046FAEL 031300Z 24016KT 9999 FEW028 23/M05 Q1017;EQDQ01+000000PRSWM2
0091688580999992000080710004-33030+027820FM-15+0125FAEL V0200601N00461220001CN0099001N1+02001+01201999999ADDMA1102511999999MW1001REMMET039FAEL 071000Z 06009KT CAVOK 20/12 Q1025;EQDQ01+000000PRSWM2
0162688580999992000081204004-33030+027820FM-15+0125FAEL V0202701N003612200019N0112651N1+01301+00801999999ADDGA1021+006909999GA2021+030009999GF104991999999999999999999MA1102811999999MW1001REMMET052FAEL 120400Z 27007KT 9999 FEW023 SCT100 13/08 Q1028;EQDQ01+000000PRSWM2
0276688580999992000081406004-33030+027820SY-MT+0125FAEL V0203001N003612200019N0400001N1+01301+00841103321ADDAA199000091GF100991001001999999001001KA1240M+02041KA2120N+00891MA1103291101811MD1110091+9999MW1001REMSYN086AAXX  14064 68858 32982 03007 10130 20084 30181 40332 51009 333 20089 555 10204 91033;MET039FAEL 140600Z 30007KT CAVOK 13/08 Q1033;EQDQ01+000000PRSWM2Q02  00002PRCP99
0207688580999992000082903004-33030+027820SY-MT+0125FAEL V0202701N002612200019N0300001N1+01081+00921102041ADDGF100991001001999999001001MA1102001100531MD1710131+9999MW1001REMSYN070AAXX  29034 68858 42980 02705 10108 20092 30053 40204 57013 555 91020;MET039FAEL 290300Z 27005KT CAVOK 11/09 Q1020;EQDQ01+000000PRSWM2
0319688580999992000083009004-33030+027820SY-MT+0125FAEL V0202001N00311033001CN0300001N1+01651+01271101731ADDAY161031AY221031GA1021+005409999GA2021+007509999GA3071+033009999GF107991041051004501051999MA1101691100261MD1010001+9999MW1021REMSYN082AAXX  30094 68858 41480 72006 10165 20127 30026 40173 50000 70262 8455/ 555 91017;MET059FAEL 300900Z 20007KT 9999 SCT018 SCT025 BKN110 17/13 Q1017;EQDQ01+000000PRSWM2Q02    003PRSWM1
0207688580999992000090903004-33030+027820SY-MT+0125FAEL V0203501N004612200019N0400001N1+01171+00521100601ADDGF100991001001999999001001MA1100611099121MD1710291+9999MW1001REMSYN070AAXX  09034 68858 42982 03509 10117 20052 39912 40060 57029 555 91006;MET039FAEL 090300Z 35009KT CAVOK 12/05 Q1006;EQDQ01+000000PRSWM2
0251688580999992000092109004-33030+027820SY-MT+0125FAEL V0200701N006712200019N0400001N1+02141+01181102431ADDGA1021+007509999GF199999011011008001001001MA1102401100971MD1710121+9999MW1001REMSYN076AAXX  21094 68858 42582 10713 10214 20118 30097 40243 57012 81100 555 91024;MET045FAEL 210900Z 07013KT 9999 FEW025 22/12 Q1024;EQDQ01+000012SCOTCVQ02+000000PRSWM2
0091688580999992000092308004-33030+027820FM-15+0125FAEL V0200501N00411220001CN0099001N1+02501+01501999999ADDMA1101491999999MW1001REMMET039FAEL 230800Z 05008KT CAVOK 25/15 Q1015;EQDQ01+000000PRSWM2
0102688580999992000092502004-33030+027820FM-15+0125FAEL V0203001N004112200019N9999999N1+01301+01001999999ADDMA1101391999999MW1001REMMET050FAEL 250200Z AUTO 30008KT //// // /// 13/10 Q1014;EQDQ01+000000PRSWM2
0091688580999992000100407004-33030+027820FM-15+0125FAEL V0202301N00821220001CN0099001N1+02001+01001999999ADDMA1101391999999MW1001REMMET039FAEL 040700Z 23016KT CAVOK 20/10 Q1014;EQDQ01+000000PRSWM2
0102688580999992000100702004-33030+027820FM-15+0125FAEL V0201701N001012200019N9999999N1+01601+01401999999ADDMA1102201999999MW1001REMMET050FAEL 070200Z AUTO 17002KT //// // /// 16/14 Q1022;EQDQ01+000000PRSWM2
0206688580999992000101718004-33030+027820FM-12+0125FAEL V0200401N002112200019N0400001N1+01701+01351102091ADDAA199000091GA1001+999999999GF100991001001999999001001KA1120M+02121MA1999999100621MD1310061+9999REMSYN080AAXX  17184 68858 32982 00404 10170 20135 30062 40209 53006 333 10212 555 91021;EQDQ01  00002PRCP99
0091688580999992000101805004-33030+027820FM-15+0125FAEL V0200401N00671220001CN0099001N1+01801+01401999999ADDMA1101291999999MW1001REMMET039FAEL 180500Z 04013KT CAVOK 18/14 Q1013;EQDQ01+000000PRSWM2
0117688580999992000102321004-33030+027820FM-12+0125FAEL V0202701N004119999999N9999999N1+01761+01501101051ADDMA1999999099591MD1010041+9999REMSYN076AAXX  23214 68858 420// /2708 10176 20150 39959 40105 50004 82552 555 91010;
0193688580999992000103111004-33030+027820FM-15+0125FAEL V0202501N008712200019N0112651N1+01701+01201999999ADDGA1021+007509999GA2021+018009029GA3021+036009999GF104991999999999999999999MA1102001999999MW1001REMMET067FAEL 311100Z 25017KT 9999 SCT025 FEW060TCU SCT120 17/12 Q1020 RERA;EQDQ01+000000PRSWM2
0139688580999992000110210004-33030+027820FM-15+0125FAEL V0200701N007212200019N0112651N1+02101+01401999999ADDGA1021+007509999GF104991999999999999999999MA1101081999999MW1001REMMET045FAEL 021000Z 07014KT 9999 SCT025 21/14 Q1011;EQDQ01+000000PRSWM2
0139688580999992000111505004-33030+027820FM-15+0125FAEL V0203101N002610090019N0112651N1+01801+01301999999ADDGA1071+009009999GF107991999999999999999999MA1101901999999MW1001REMMET045FAEL 150500Z 31005KT 9999 BKN030 18/13 Q1019;EQDQ01+000000PRSWM2
0162688580999992000111910004-33030+027820FM-15+0125FAEL V0202101N008210300019N0112651N1+02101+01301999999ADDGA1021+007509999GA2071+030009999GF107991999999999999999999MA1101491999999MW1001REMMET052FAEL 191000Z 21016KT 9999 FEW025 BKN100 21/13 Q1015;EQDQ01+000000PRSWM2
0211688580999992000111918004-33030+027820FM-12+0125FAEL V0202501N003110360019N0200001N1+01731+01511101941ADDAA112000191AY161061AY221061GF107991031051012501051001KA1120M+02171MA1999999100471MD1110261+9999MW1601REMSYN098AAXX  19184 68858 11670 72506 10173 20151 30047 40194 51026 69922 76062 83550 333 10217 555 91019;
0117688580999992000121621004-33030+027820FM-12+0125FAEL V0202401N005719999999N9999999N1+01971+01861101341ADDMA1999999099891MD1010121+9999REMSYN076AAXX  16214 68858 420// /2411 10197 20186 39989 40134 50012 885// 555 91013;
0183688580999992000123018004-33030+027820FM-12+0125FAEL V0202401N003110075019N0300001N1+02131+01361101241ADDAA112000191GF108991081051008001999999KA1120M+02481MA1999999099801MD1210201+9999REMSYN092AAXX  30184 68858 12580 82406 10213 20136 39980 40124 52020 69922 885// 333 10248 555 91012;
0284689060999992000010612004-40350-009880FM-12+0054FAGE V0202401N002112200019N0200001N1+01131+00231101801ADDAA106000091GF104991041051008001001001KA1120M+01161KA2120N+00891MA1999999101141MD1210131+9999SA1+1209UA1M000009999UG1070151809REMSYN128AAXX  06124 68906 32598 42404 10113 20023 30114 40180 52013 84500 222// 00120 20000 318// 40703 333 10116 20089 91014 555 91017;EQDQ01  00002PRCP06
0191689060999992000012709004-40350-009880FM-12+0054FAGE V0203601N002110042019N0200001N1+01181+00991102251ADDGF107991071051004501999999KA1120M+01181KA2120N+01011MA1999999101591MD1710091+9999REMSYN098AAXX  27094 68906 42498 73604 10118 20099 30159 40225 57009 875// 333 10118 20101 91008 555 91022;
0259689060999992000020918004-40350-009880FM-12+0054FAGE V0202401N005110042019N0200001N1+01311+01121101991ADDAA112000592AA224000492AY121061AY221061GF107991071061004501999999KA1120M+01581KA2120N+01311MA1999999101341MD1710041+9999MW1501REMSYN122AAXX  09184 68906 11498 72410 10131 20112 30134 40199 57004 69942 75022 876// 222// 333 10158 20131 91020 555 20004 91019;
0208689060999992000021721004-40350-009880FM-12+0054FAGE V0202501N008712200019N0200001N1+01191+00531101761ADDAA124001491GF104991031021008001001011KA1120M+01831KA2120N+01191MA1999999101111MD1210271+9999REMSYN104AAXX  17214 68906 42598 42517 10119 20053 30111 40176 52027 83201 333 10183 20119 91020 555 20014 91017;
0221689060999992000022418004-40350-009880FM-12+0054FAGE V0209999C000012200019N0200001N1+01821+01291101241ADDAA199000091GF104991031011008001001021KA1120M+01951KA2120N+01671MA1999999100601MD1710121+9999REMSYN098AAXX  24184 68906 32598 40000 10182 20129 30060 40124 57012 83102 333 10195 20167 91016 555 91012;EQDQ01  00002PRCP99
0221689060999992000040518004-40350-009880FM-12+0054FAGE V0202901N003110075019N0200001N1+01311+00531102831ADDAA199000091GF106991061051008001001001KA1120M+01531KA2120N+01271MA1999999102171MD1710031+9999REMSYN098AAXX  05184 68906 32598 62906 10131 20053 30217 40283 57003 86500 333 10153 20127 91015 555 91028;EQDQ01  00002PRCP99
0191689060999992000041415004-40350-009880FM-12+0054FAGE V0200201N002110075019N0200001N1+01371+00701102741ADDGF106991061051008001001001KA1120M+01441KA2120N+01291MA1999999102081MD1710151+9999REMSYN098AAXX  14154 68906 42598 60204 10137 20070 30208 40274 57015 86500 333 10144 20129 91008 555 91027;
0191689060999992000042309004-40350-009880FM-12+0054FAGE V0200301N006210075019N0200001N1+01241+00771101791ADDGF107991071051008001999999KA1120M+01251KA2120N+00661MA1999999101131MD1710121+9999REMSYN098AAXX  23094 68906 42598 70312 10124 20077 30113 40179 57012 875// 333 10125 20066 91021 555 91017;
0191689060999992000042915004-40350-009880FM-12+0054FAGE V0202401N006219999999N0200001N1+01111+00831102701ADDGF107991041051004501999999KA1120M+01401KA2120N+01111MA1999999102041MD1210011+9999REMSYN098AAXX  29154 68906 42498 72412 10111 20083 30204 40270 52001 845// 333 10140 20111 91021 555 91026;
0259689060999992000050300004-40350-009880FM-12+0054FAGE V0200101N005110012019N0020001N1+01181+01121102491ADDAA101001091AA224016491AY161061AY261061GF108991081061001501999999KA1120M+01461KA2120N+01111MA1999999101831MD1710121+9999MW1511REMSYN122AAXX  03004 68906 11295 80110 10118 20112 30183 40249 57012 60161 75166 886// 333 10146 20111 60015 91012 555 20164 91024;
0245689060999992000050312004-40350-009880FM-12+0054FAGE V0202501N008710360019N0100001N1+01761+01411102271ADDAA106000191AA224000291GF106991041051004501071001KA1120M+01791KA2120N+01111MA1999999101621MD1710081+9999SA1+1409REMSYN122AAXX  03124 68906 12497 62517 10176 20141 30162 40227 57008 69921 84570 222// 00140 333 10179 20111 91028 555 20002 91022;
0191689060999992000050921004-40350-009880FM-12+0054FAGE V0202501N003110075019N0200001N1+00891+00561102441ADDGF105991051051008001001001KA1120M+01311KA2120N+00861MA1999999101781MD1210141+9999REMSYN098AAXX  09214 68906 42598 52506 10089 20056 30178 40244 52014 85500 333 10131 20086 91008 555 91024;
0253689060999992000051100004-40350-009880FM-12+0054FAGE V0202601N005110021019N0100001N1+01631+01551101921ADDAA106000891AA224000891AY151061AY221061GF108991081061002501999999KA1120M+01651KA2120N+01291MA1999999101271MD1710111+9999MW1501REMSYN116AAXX  11004 68906 11397 82610 10163 20155 30127 40192 57011 69981 75052 886// 333 10165 20129 91017 555 20008 91019;
0208689060999992000051503004-40350-009880FM-12+0054FAGE V0201401N009810042019N0200001N1+01101+00661101061ADDAA124007691GF105991051051004501001001KA1120M+01691KA2120N+00971MA1999999100411MD1210301+9999REMSYN104AAXX  15034 68906 42498 51419 10110 20066 30041 40106 52030 85500 333 10169 20097 91031 555 20076 91010;
0248689060999992000051606004-40350-009880FM-12+0054FAGE V0202901N003110042019N0100001N1+01441+01261101391ADDAA124005491AY121061AY221061GF107991071051004501999999KA1240M+01491KA2120N+00931MA1999999100741MD1710051+9999MW1201REMSYN122AAXX  16064 68906 11497 72906 10144 20126 30074 40139 57005 60054 72022 875// 222// 333 20093 91020 555 10149 20054 91013;
0191689060999992000052103004-40350-009880FM-12+0054FAGE V0200101N004110360019N0200001N1+01171+00871101671ADDGF108991041051008001071999KA1120M+01181KA2120N+00841MA1999999101011MD1710171+9999REMSYN098AAXX  21034 68906 42598 80108 10117 20087 30101 40167 57017 8457/ 333 10118 20084 91010 555 91016;
0208689060999992000052903004-40350-009880FM-12+0054FAGE V0203401N002110075019N0200001N1+00631+00291101211ADDAA124001291GF106991061051008001001001KA1120M+00861KA2120N+00501MA1999999100551MD1210021+9999REMSYN104AAXX  29034 68906 42598 63404 10063 20029 30055 40121 52002 86500 333 10086 20050 91005 555 20012 91011;
0253689060999992000061000004-40350-009880FM-12+0054FAGE V0202301N008710042019N0200001N1+00461+00061101521ADDAA106004192AA224003892AY121061AY221061GF107991071021004501999999KA1120M+00651KA2120N+00261MA1999999100851MD1210171+9999MW1251REMSYN116AAXX  10004 68906 11498 72317 10046 20006 30085 40152 52017 60041 72522 872// 333 10065 20026 91027 555 20038 91014;
0323689060999992000062603004-40340-009870FM-12+0054FAGE V0202801N009810360019N0100001N1+01241+01051099631ADDAA101001091AA224001891AY121031AY221031GF108991031061008001021999KA1240M+02601KA2120N+00831MA1999999098991MD1710231+9999MW1611REMSYN186AAXX  26034 68906 41597 82819 10124 20105 39899 49963 57023 76122 8362/ 333 10125 20083 60015 91037 555 20018 90996 78958 41568 20605 10260 20232 30138 40148 70600 82200 333 59008 82821;
0191689060999992000062709004-40340-009870FM-12+0054FAGE V0209999C000010360019N0200001N1+00651+00201101511ADDGF107991031021008001031061KA1120M+00651KA2120N+00521MA1999999100851MD1210281+9999REMSYN098AAXX  27094 68906 42598 70000 10065 20020 30085 40151 52028 83236 333 10065 20052 91006 555 91014;
0191689060999992000070409004-40340-009870FM-12+0054FAGE V0203601N005112200019N0200001N1+00671+00281103711ADDGF104991041051004501001001KA1120M+00671KA2120N+00151MA1999999103031MD1210111+9999REMSYN098AAXX  04094 68906 42498 43610 10067 20028 30303 40371 52011 84500 333 10067 20015 91012 555 91036;
0236689060999992000072909004-40340-009870FM-12+0054FAGE V0201501N007710042019N0100001N1+00621+00421102611ADDAA124000691AY121031AY221031GF108991081021004501999999KA1120M+00651KA2120N+00511MA1999999101941MD1210041+9999MW1251REMSYN110AAXX  29094 68906 41497 81515 10062 20042 30194 40261 52004 72522 882// 333 10065 20051 91026 555 20006 91025;
0225689060999992000080918004-40340-009870FM-12+0054FAGE V0203401N017010360019N0200001N1+01291+00861100611ADDAA112003091AA224003091GF108991031051008001071999KA1120M+01321KA2120N+01071MA1999999099961MD1710051+9999REMSYN110AAXX  09184 68906 12598 83433 10129 20086 39996 40061 57005 60032 8357/ 333 10132 20107 91048 555 20030 91006;
0259689060999992000082300004-40340-009870FM-12+0054FAGE V0203201N009810360019N0200001N1+00991+00851099721ADDAA101003091AA224010691AY121061AY221061GF108991031071001501021999KA1120M+01261KA2120N+00891MA1999999099071MD1710561+9999MW1211REMSYN122AAXX  23004 68906 11298 83219 10099 20085 39907 49972 57056 60111 72122 8372/ 333 10126 20089 60035 91034 555 20106 90997;
0225689060999992000082500004-40340-009870FM-12+0054FAGE V0202501N005110360019N0100001N1+00811+00661100541ADDAA106002092AA224001892GF105991041021004501071001KA1120M+01281KA2120N+00781MA1999999099891MD1210271+9999REMSYN110AAXX  25004 68906 12497 52510 10081 20066 39989 40054 52027 60021 84270 333 10128 20078 91018 555 20018 91005;
0253689060999992000090715004-40340-009870FM-12+0054FAGE V0202601N005112200019N0200001N1+00921+00541100771ADDAA101000191AA224001891AY101031AY201031GF104991041021008001001001KA1120M+01171KA2120N+00871MA1999999100121MD1710021+9999MW1251REMSYN116AAXX  07154 68906 41598 42610 10092 20054 30012 40077 57002 72500 84200 333 10117 20087 69925 91024 555 20018 91007;
0236689060999992000090903004-40340-009870FM-12+0054FAGE V0202601N006212200019N0100001N1+00381+00101102101ADDAA124003091AY101031AY221031GF103991031021004501001001KA1120M+00831KA2120N+00291MA1999999101431MD1210141+9999MW1251REMSYN110AAXX  09034 68906 41497 32612 10038 20010 30143 40210 52014 72502 83200 333 10083 20029 91020 555 20030 91020;
0236689060999992000092121004-40340-009870FM-12+0054FAGE V0202001N005110042019N0100001N1+00581+00231100901ADDAA124020891AY161031AY261031GF108991081061004501999999KA1120M+01201KA2120N+00561MA1999999100241MD1210331+9999MW1031REMSYN110AAXX  21214 68906 41497 82010 10058 20023 30024 40090 52033 70366 886// 333 10120 20056 91032 555 20208 91008;
0253689060999992000101218004-40340-009870FM-12+0054FAGE V0202301N005110042019N0100001N1+00871+00621102021ADDAA199000021GF107991071051004501999999KA1120M+01161KA2120N+00861MA1999999101361MD1210211+9999SA1+1029UA1M000009999REMSYN128AAXX  12184 68906 32497 72310 10087 20062 30136 40202 52021 875// 222// 00102 20000 300// 49900 333 10116 20086 91013 555 91020;
0251689060999992000110912004-40340-009870FM-12+0054FAGE V0201601N004112200019N0100001N1+00911+00101101721ADDAA199000021GF104991021011008001061001KA1120M+00951KA2120N+00661MA1999999101061MD1210021+9999UA1M000009999UG1090151809REMSYN122AAXX  09124 68906 32597 41608 10091 20010 30106 40172 52002 82160 222// 20000 318// 40903 333 10095 20066 91018 555 91017;
0236689060999992000111209004-40340-009870FM-12+0054FAGE V0203101N007710075019N0100001N1+01381+00671099741ADDAA124002291AY151031AY251031GF107991051051008001001011KA1120M+01461KA2120N+01251MA1999999099101MD1410001+9999MW1031REMSYN110AAXX  12094 68906 41597 73115 10138 20067 39910 49974 54000 70355 85501 333 10146 20125 91031 555 20022 90997;
0288689060999992000111618004-40340-009870FM-12+0054FAGE V0202901N006212200019N0100001N1+01301+00641100351ADDAA112000191AA224000291GF103991021011008001041001KA1120M+01671KA2120N+01301MA1999999099711MD1210141+9999SA1+1189UA1M000009999UG1090102409REMSYN140AAXX  16184 68906 12597 32912 10130 20064 39971 40035 52014 69922 82140 222// 00118 20000 324// 40902 333 10167 20130 91024 555 20002 91003;
0265689060999992000112606004-40340-009870FM-12+0054FAGE V0203301N006210021019N0040001N1+01671+01401100971ADDAA101000591AA224003191AY121061AY251061GF106991061061002501001001KA1240M+01681KA2120N+01221MA1999999100331MD1710081+9999MW1501REMSYN128AAXX  26064 68906 11396 63312 10167 20140 30033 40097 57008 60034 75025 86600 222// 333 20122 69945 91029 555 10168 20031 91009;
0259689060999992000122006004-40340-009870FM-12+0054FAGE V0203401N006210021019N0100001N1+01911+01811100711ADDAA101000191AA224001591AY121061AY221061GF108991051061002501071999KA1240M+02091KA2120N+01371MA1999999100081MD1710061+9999MW1501REMSYN122AAXX  20064 68906 11397 83412 10191 20181 30008 40071 57006 60024 75022 8567/ 333 20137 69925 91026 555 10209 20015 91007;
0245689120999992000010506004-34150+018320FM-12+000899999V0209999C000012200019N0220001N1+02061+01851101171ADDAA106000091GF101991011021002501001001KA1240M+02691KA2120N+01721MA1999999101081MD1310171+9999UG1080102309REMSYN110AAXX  05064 68912 32372 10000 10206 20185 30108 40117 53017 81200 222// 323// 40802 333 20172 555 10269 91011;EQDQ01  00002PRCP06
0166689120999992000022618004-34150+018320FM-12+000899999V0201801N006212200019N0180001N1+01801+01491101631ADDGF103991031051002501001001KA1120M+02241MA1999999101541MD1210111+9999REMSYN086AAXX  26184 68912 42368 31812 10180 20149 30154 40163 52011 83500 333 10224 555 91016;
0254689120999992000051706004-34150+018320FM-12+000899999V0209999C000012200019N0180001N1+01461+01331999999ADDAA199000091GF104991011061000751001041KA1240M+02301KA2120N+01161MA1999999101881MD1310051+9999ME1199999UG1110102309REMSYN110AAXX  17064 68912 32168 40000 10146 20133 30188 41714 53005 81604 222// 323// 41102 333 20116 555 10230 91181;EQDQ01  00002PRCP99
0196689120999992000071112004-34150+018310FM-12+000899999V0203101N003112200019N0200001N1+01681+01421102101ADDGF101991011051002501001001KA1120N+01451MA1999999102001MD1810251+9999UG1140502309REMSYN104AAXX  11124 68912 42370 13106 10168 20142 30200 40210 58025 81500 222// 323// 41410 333 20145 555 91020;
0238689120999992000112406004-34150+018310FM-12+000899999V0202301N004112200019N0200001N1+01411+00781102071ADDAA124001391GF102991021081002501001001KA1240M+02091KA2120N+01301MA1999999101971MD1310271+9999UG1090252309REMSYN122AAXX  24064 68912 12370 22308 10141 20078 30197 40207 53027 60014 82800 222// 323// 40905 333 20130 555 10209 20013 91020;
0196689120999992000120412004-34150+018310FM-12+000899999V0202301N006212200019N0200001N1+01551+01181101701ADDGF105991021051002501001061KA1120N+01501MA1999999101601MD1710091+9999UG1120302309REMSYN104AAXX  04124 68912 42370 52312 10155 20118 30160 40170 57009 82506 222// 323// 41206 333 20150 555 91016;
0143689160999992000010200004-34350+018500FM-12+022699999V0201401N012912200019N0180001N1+01561+00911101861ADDGF104991041081002501001001MA1999999099011MD1710051+9999REMSYN076AAXX  02004 68916 42368 41425 10156 20091 39901 40186 57005 84800 555 91019;
0215689160999992000010312004-34350+018500FM-12+022699999V0201401N018012200019N0180001N1+01851+01351101411ADDGF101991011021002501001001KA1120N+01741MA1999999098581MD1710161+9999UA1M020059999UG1120252309REMSYN110AAXX  03124 68916 42368 11435 10185 20135 39858 40141 57016 81200 222// 20201 323// 41205 333 20174 555 91014;
0257689160999992000010806004-34350+018500FM-12+022699999V0201401N016412200019N0200001N1+01511+00871101241ADDAA124000591GF102991011051002501001041KA1240M+01961KA2120N+01371MA1999999098401MD1610081+9999UA1M020059999UG1120252309REMSYN128AAXX  08064 68916 12370 21432 10151 20087 39840 40124 56008 69954 81504 222// 20201 323// 41205 333 20137 555 10196 20005 91012;
0143689160999992000012203004-34350+018500FM-12+022699999V0201801N012912200019N0160001N1+01481+01371101371ADDGF102991021051002501001001MA1999999098551MD1710061+9999REMSYN076AAXX  22034 68916 42366 21825 10148 20137 39855 40137 57006 82500 555 91014;
0173689160999992000012909004-34350+018500FM-12+022699999V0209999C000012200019N0180001N1+02061+01341101301ADDGF106991011051002501001061MA1999999098501MD1210101+9999UG1120152309REMSYN094AAXX  29094 68916 42368 60000 10206 20134 39850 40130 52010 81506 222// 323// 41203 555 91013;
0224689160999992000021012004-34350+018500FM-12+022699999V0201801N008212200019N0220001N1+02141+01871101071ADDAY141061AY241061GF102991021051002501001001KA1120N+02021MA1999999098291MD1410001+9999MW1011UG1120152309REMSYN110AAXX  10124 68916 41372 21816 10214 20187 39829 40107 54000 70144 82500 222// 323// 41203 333 20202 555 91011;
0173689160999992000022609004-34350+018500FM-12+022699999V0201801N007712200019N0220001N1+01961+01451101581ADDGF102991021051002501001001MA1999999098771MD1210111+9999UG1120202309REMSYN094AAXX  26094 68916 42372 21815 10196 20145 39877 40158 52011 82500 222// 323// 41204 555 91016;
0173689160999992000022909004-34350+018500FM-12+022699999V0202301N006212200019N0200001N1+01921+01251101451ADDGF104991041051002501001001MA1999999098661MD1210171+9999UG1120202309REMSYN094AAXX  29094 68916 42370 42312 10192 20125 39866 40145 52017 84500 222// 323// 41204 555 91015;
0255689160999992000030506004-34350+018500FM-12+022699999V0209999C000012200019N0180001N1+02121+01591101191ADDAA199000091GA1001+999999999GF100991001001999999001001KA1240M+02281KA2120N+01831MA1999999098401MD1310071+9999UG1090202309REMSYN104AAXX  05064 68916 32968 00000 10212 20159 39840 40119 53007 222// 323// 40904 333 20183 555 10228 91012;EQDQ01  00002PRCP99
0215689160999992000032012004-34350+018500FM-12+022699999V0201401N016412200019N0180001N1+02071+01521101331ADDGF101991011051002501001001KA1120N+01761MA1999999098521MD1710141+9999UA1M030109999UG1100202309REMSYN110AAXX  20124 68916 42368 11432 10207 20152 39852 40133 57014 81500 222// 20302 323// 41004 333 20176 555 91014;
0143689160999992000032603004-34350+018500FM-12+022699999V0201401N019512200019N0160001N1+01451+01171101671ADDGF103991031051002501001001MA1999999098821MD1710071+9999REMSYN076AAXX  26034 68916 42366 31438 10145 20117 39882 40167 57007 83500 555 91017;
0166689160999992000033018004-34350+018500FM-12+022699999V0201401N018010021019N0180001N1+01601+01261101771ADDGF106991061051002501001001KA1120M+01781MA1999999098921MD1110031+9999REMSYN086AAXX  30184 68916 42368 61435 10160 20126 39892 40177 51003 86500 333 10178 555 91018;
0143689160999992000040203004-34350+018500FM-12+022699999V0203101N009312200019N0160001N1+01601+01391100811ADDGF103991031051002501001001MA1999999097991MD1110061+9999REMSYN076AAXX  02034 68916 42366 33118 10160 20139 39799 40081 51006 83500 555 91008;
0143689160999992000041603004-34350+018500FM-12+022699999V0201401N018012200019N0180001N1+01361+01211101141ADDGF101991011051002501001001MA1999999098291MD1810021+9999REMSYN076AAXX  16034 68916 42368 11435 10136 20121 39829 40114 58002 81500 555 91011;
0273689160999992000042106004-34350+018500FM-12+022699999V0203401N007710012019N0100001N1+01361+01321101281ADDAA199000091AY121061AY221061GF108991081061001501999999KA1240M+02601KA2120N+01341MA1999999098451MD1310131+9999MW1111UG1120152309REMSYN116AAXX  21064 68916 31260 83415 10136 20132 39845 40128 53013 71122 886// 222// 323// 41203 333 20134 555 10260 91013;EQDQ01  00002PRCP99
0173689160999992000050209004-34350+018500FM-12+022699999V0201801N007712200019N0200001N1+01331+00451102421ADDGF104991041051002501001001MA1999999099531MD1210141+9999UG1100202309REMSYN094AAXX  02094 68916 42370 41815 10133 20045 39953 40242 52014 84500 222// 323// 41004 555 91024;
0177689160999992000051609004-34350+018500FM-12+022699999V0203201N004112200019N0200001N1+02301+00901101991ADDGF101991011051002501001001MA1999999099201MD1310091+9999UG1120152309REMSYN098AAXX  16094 68916 42370 13208 10230 20090 39920 40199 53009 81500 222// 323// 41203 333 555 91021;
0177689160999992000060509004-34350+018500FM-12+022699999V0203601N007712200019N0200001N1+01941+00691102331ADDGF102991001001999999001061MA1999999099501MD1210111+9999UG1120202309REMSYN098AAXX  05094 68916 42970 23615 10194 20069 39950 40233 52011 80006 222// 323// 41204 333 555 91024;
0181689160999992000061103004-34350+018500FM-12+022699999V0203201N018010060019N0120001N1+01261+00861101051ADDAY181031AY281031GF108991081081002501999999MA1999999098161MD1210311+9999MW1801REMSYN092AAXX  11034 68916 41362 83235 10126 20086 39816 40105 52031 78088 888// 222// 333 555 91010;
0177689160999992000062715004-34340+018500FM-12+022699999V0201801N002612200019N0160001N1+01381+01141102181ADDGF101991011061002501001001MA1999999099261MD1710081+9999UG1120202309REMSYN098AAXX  27154 68916 42366 11805 10138 20114 39926 40218 57008 81600 222// 323// 41204 333 555 91021;
0177689160999992000072709004-34340+018500FM-12+022699999V0201601N006212200019N0180001N1+01431+00821102471ADDGF104991011061002501001061MA1999999099551MD1210081+9999UG1120152309REMSYN098AAXX  27094 68916 42368 41612 10143 20082 39955 40247 52008 81606 222// 323// 41203 333 555 91024;
0153689160999992000073103004-34340+018500FM-12+022699999V0201401N015412200019N0180001N1+01021+00771101591ADDGF102991011051002501001061MA1999999098681MD1810111+9999REMSYN086AAXX  31034 68916 42368 21430 10102 20077 39868 40159 58011 81506 222// 333 555 91015;
0245689160999992000081506004-34340+018500FM-12+022699999V0203601N011312200019N0220001N1+02021+00421101981ADDAA199000091GF102991001001999999001041KA1240M+02281KA2120N+01661MA1999999099071MD1710041+9999UG1110152309REMSYN110AAXX  15064 68916 32972 23622 10202 20042 39907 40198 57004 80004 222// 323// 41103 333 20166 555 10228 91019;EQDQ01  00002PRCP99
0224689160999992000081612004-34340+018500FM-12+022699999V0202101N006210012019N0100001N1+01491+01101102341ADDAY151061AY251061GF108991081071001501999999KA1120N+01401MA1999999099421MD1410001+9999MW1201UG1120202309REMSYN110AAXX  16124 68916 41260 82112 10149 20110 39942 40234 54000 72055 887// 222// 323// 41204 333 20140 555 91023;
0177689160999992000082309004-34340+018500FM-12+022699999V0201401N007712200019N0200001N1+01481+00851102261ADDGF106991011051002501001061MA1999999099341MD1210161+9999UG1120152309REMSYN098AAXX  23094 68916 42370 61415 10148 20085 39934 40226 52016 81506 222// 323// 41203 333 555 91022;
0177689160999992000090109004-34340+018500FM-12+022699999V0203601N010310060019N0160001N1+01381+00661101461ADDGF106991061081002501001001MA1999999098561MD1810061+9999UG1110252309REMSYN098AAXX  01094 68916 42366 63620 10138 20066 39856 40146 58006 86800 222// 323// 41105 333 555 91014;
0196689160999992000090612004-34340+018500FM-12+022699999V0202701N011310021019N0160001N1+01421+01351101851ADDGF105991051031002501001081KA1120N+01231MA1999999098941MD1210061+9999UG1120202309REMSYN104AAXX  06124 68916 42366 52722 10142 20135 39894 40185 52006 85308 222// 323// 41204 333 20123 555 91018;
0266689160999992000092406004-34340+018500FM-12+022699999V0203401N011310021019N0180001N1+01071+00991101301ADDAA124007391AY161061AY251061GF108991081051002501999999KA1240M+01891KA2120N+01081MA1999999098401MD1210181+9999MW1021UG1110202309REMSYN128AAXX  24064 68916 11368 83422 10107 20099 39840 40130 52018 60074 70265 885// 222// 323// 41104 333 20108 555 10189 20073 91012;
0196689160999992000100115004-34340+018500FM-12+022699999V0201401N012312200019N0200001N1+01691+01201102421ADDGF101991011021002501001001MA1999999099501MD1610051+9999UA1M020059999UG1100252309REMSYN104AAXX  01154 68916 42370 11424 10169 20120 39950 40242 56005 81200 222// 20201 323// 41005 333 555 91024;
0177689160999992000101309004-34340+018500FM-12+022699999V0203201N006210021019N0180001N1+01731+01131102011ADDGF108991081051002501999999MA1999999099101MD1310141+9999UG1120202309REMSYN098AAXX  13094 68916 42368 83212 10173 20113 39910 40201 53014 885// 222// 323// 41204 333 555 91020;
0196689160999992000110109004-34340+018500FM-12+022699999V0201401N018012200019N0180001N1+01541+01211101851ADDGF102991021051002501001001MA1999999098941MD1710021+9999UA1M020059999UG1100202309REMSYN104AAXX  01094 68916 42368 21435 10154 20121 39894 40185 57002 82500 222// 20201 323// 41004 333 555 91018;
0196689160999992000112918004-34340+018500FM-12+022699999V0201601N010312200019N0180001N1+01631+01141102001ADDGF102991021051002501001001KA1120M+02021MA1999999099091MD1310051+9999UG1120152309REMSYN104AAXX  29184 68916 42368 21620 10163 20114 39909 40200 53005 82500 222// 323// 41203 333 10202 555 91020;
0206689160999992000122215004-34340+018500FM-12+022699999V0201401N015412200019N0180001N1+02001+01571101291ADDGA1001+999999999GF100991001001999999001001MA1999999098401MD1710091+9999UA1M030059999UG1120202309REMSYN098AAXX  22154 68916 42968 01430 10200 20157 39840 40129 57009 222// 20301 323// 41204 333 555 91012;
0189689180999992000010812004-34430+019220FM-12+001499999V0201401N006719999999N9999999N1+01901+99999101081ADDAA106000091KA1120M+02201KA2120N+01391MA1999999100911MD1710221+9999REMSYN092AAXX  08124 68918 36/// /1413 10190 2//// 30091 40108 57022 333 10220 20139 91026 555 91010;EQDQ01  00002PRCP06
0189689180999992000030718004-34430+019220FM-12+001499999V0200801N006219999999N9999999N1+01671+99999101931ADDAA199000091KA1120M+02071KA2120N+01651MA1999999101761MD1210201+9999REMSYN092AAXX  07184 68918 36/// /0812 10167 2//// 30176 40193 52020 333 10207 20165 91014 555 91019;EQDQ01  00002PRCP99
0189689180999992000070500004-34420+019220FM-12+001499999V0209999C000019999999N9999999N1+01411+99999102741ADDAA199000091KA1120M+01901KA2120N+01371MA1999999102571MD1210051+9999REMSYN092AAXX  05004 68918 36/// /0000 10141 2//// 30257 40274 52005 333 10190 20137 91003 555 91027;EQDQ01  00002PRCP99
0189689180999992000080400004-34420+019220FM-12+001499999V0203101N006719999999N9999999N1+01361+99999102241ADDAA199000091KA1120M+01631KA2120N+01361MA1999999102071MD1210151+9999REMSYN092AAXX  04004 68918 36/// /3113 10136 2//// 30207 40224 52015 333 10163 20136 91025 555 91022;EQDQ01  00002PRCP99
0189689180999992000080418004-34420+019220FM-12+001499999V0202701N006219999999N9999999N1+01561+99999102641ADDAA199000091KA1120M+01891KA2120N+01501MA1999999102471MD1210181+9999REMSYN092AAXX  04184 68918 36/// /2712 10156 2//// 30247 40264 52018 333 10189 20150 91017 555 91026;EQDQ01  00002PRCP99
0189689180999992000100406004-34420+019220FM-12+001499999V0202701N005119999999N9999999N1+01641+99999101641ADDAA199000091KA1240M+01951KA2120N+01471MA1999999101471MD1210111+9999REMSYN092AAXX  04064 68918 36/// /2710 10164 2//// 30147 40164 52011 333 20147 91014 555 10195 91016;EQDQ01  00002PRCP99
0189689180999992000100918004-34420+019220FM-12+001499999V0203101N009819999999N9999999N1+01781+99999101181ADDAA199000091KA1120M+02151KA2120N+01751MA1999999101011MD1210291+9999REMSYN092AAXX  09184 68918 36/// /3119 10178 2//// 30101 40118 52029 333 10215 20175 91019 555 91011;EQDQ01  00002PRCP99
0189689180999992000102212004-34420+019220FM-12+001499999V0201201N003119999999N9999999N1+02061+99999101251ADDAA199000091KA1120M+02151KA2120N+01601MA1999999101081MD1710201+9999REMSYN092AAXX  22124 68918 36/// /1206 10206 2//// 30108 40125 57020 333 10215 20160 91007 555 91012;EQDQ01  00002PRCP99
0189689180999992000121518004-34420+019220FM-12+001499999V0203401N002119999999N9999999N1+01761+99999101581ADDAA199000091KA1120M+02241KA2120N+01761MA1999999101411MD1210111+9999REMSYN092AAXX  15184 68918 36/// /3404 10176 2//// 30141 40158 52011 333 10224 20176 91004 555 91015;EQDQ01  00002PRCP99
0196689200999992000020412004-34830+020020FM-12+000899999V0202301N005110021019N0200001N1+02511+02071101331ADDGF105991051051002501001001KA1120N+02061MA1999999101241MD1110031+9999UG1130152309REMSYN104AAXX  04124 68920 42370 52310 10251 20207 30124 40133 51003 85500 222// 323// 41303 333 20206 555 91013;
0196689200999992000021412004-34830+020020FM-12+000899999V0201801N007212200019N0200001N1+02581+01721101121ADDGF102991021031002501001001KA1120N+02191MA1999999101031MD1710111+9999UG1110252309REMSYN104AAXX  14124 68920 42370 21814 10258 20172 30103 40112 57011 82300 222// 323// 41105 333 20219 555 91011;
0245689200999992000031706004-34830+020020FM-12+000899999V0203601N002110021019N0200001N1+01731+01511101741ADDAA199000091GF105991051021002501001001KA1240M+02211KA2120N+01451MA1999999101641MD1310111+9999UG1130252309REMSYN110AAXX  17064 68920 32370 53604 10173 20151 30164 40174 53011 85200 222// 323// 41305 333 20145 555 10221 91017;EQDQ01  00002PRCP99
0166689200999992000041118004-34830+020020FM-12+000899999V0201601N008710021019N0200001N1+01851+01771101691ADDGF105991051061002501001001KA1120M+02201MA1999999101601MD1310051+9999REMSYN086AAXX  11184 68920 42370 51617 10185 20177 30160 40169 53005 85600 333 10220 555 91016;
0194689200999992000042218004-34830+020020FM-12+000899999V0202901N006710021019N0200001N1+01531+01331101501ADDAY121061AY251061GF108991081051002501999999KA1120M+02011MA1999999101401MD1310011+9999MW1021REMSYN092AAXX  22184 68920 41370 82913 10153 20133 30140 40150 53001 70225 885// 333 10201 555 91014;
0166689200999992000050218004-34830+020020FM-12+000899999V0202301N007210021019N0200001N1+01251+00611102491ADDGF105991051051002501001001KA1120M+01591MA1999999102391MD1210131+9999REMSYN086AAXX  02184 68920 42370 52314 10125 20061 30239 40249 52013 85500 333 10159 555 91024;
0182689200999992000090418004-34820+020010FM-12+000899999V0203101N008212200019N0200001N1+01301+00921101841ADDGA1001+999999999GF100991001001999999001001KA1120M+01751MA1999999101741MD1210121+9999REMSYN086AAXX  04184 68920 42970 03116 10130 20092 30174 40184 52012 222// 333 10175 555 91018;
0200689200999992000091718004-34820+020010FM-12+000899999V0202301N008210021019N0200001N1+01301+00681102731ADDAY161061AY221061GF105991051021002501001001KA1120M+01741MA1999999102631MD1210271+9999MW1211REMSYN098AAXX  17184 68920 41370 52316 10130 20068 30263 40273 52027 72162 85200 222// 333 10174 555 91027;
0172689200999992000092418004-34820+020010FM-12+000899999V0202701N011312200019N0200001N1+01431+01151101541ADDGF104991041041002501001001KA1120M+01891MA1999999101441MD1210231+9999REMSYN092AAXX  24184 68920 42370 42722 10143 20115 30144 40154 52023 84400 222// 333 10189 555 91015;
0243689200999992000092612004-34820+020010FM-12+000899999V0202901N011310021019N0200001N1+01841+01191102301ADDAY121061AY261061GF106991061051002501001001KA1120N+01341MA1999999102201MD1810071+9999MW1021UA1M030159999UG1110302309REMSYN116AAXX  26124 68920 41370 62922 10184 20119 30220 40230 58007 70226 86500 222// 20303 323// 41106 333 20134 555 91022;
0215689200999992000093012004-34820+020010FM-12+000899999V0202701N018012200019N0200001N1+01941+01441101341ADDGF103991031021002501001001KA1120N+01561MA1999999101241MD1010001+9999UA1M030159999UG1110252309REMSYN110AAXX  30124 68920 42370 32735 10194 20144 30124 40134 50000 83200 222// 20303 323// 41105 333 20156 555 91013;
0172689200999992000112118004-34820+020010FM-12+000899999V0201301N004112200019N0200001N1+01681+01061102401ADDGF103991031061002501001001KA1120M+02211MA1999999102301MD1819999+9999REMSYN092AAXX  21184 68920 42370 31308 10168 20106 30230 40240 58/// 83600 222// 333 10221 555 91023;
0193689210999992000011412004-34800+020070FM-12+000499999V0201001N007719999999N9999999N1+02121+99999101771ADDAA199000091KA1120M+02171KA2120N+01801MA1999999101731MD1710111+9999REMSYN096    AAXX  14124 68921 36/// /1015 10212 2//// 30173 40177 57011 333 10217 20180 91022 555 91017;EQDQ01  00002PRCP99
0189689210999992000012406004-34800+020070FM-12+000499999V0200901N004119999999N9999999N1+02031+99999101091ADDAA199000091KA1240M+02141KA2120N+01971MA1999999101051MD1210011+9999REMSYN092AAXX  24064 68921 36/// /0908 10203 2//// 30105 40109 52001 333 20197 91010 555 10214 91010;EQDQ01  00002PRCP99
0189689210999992000012600004-34800+020070FM-12+000499999V0209999C000019999999N9999999N1+01781+99999101431ADDAA199000091KA1120M+02461KA2120N+01781MA1999999101391MD1710081+9999REMSYN092AAXX  26004 68921 36/// /0000 10178 2//// 30139 40143 57008 333 10246 20178 91005 555 91014;EQDQ01  00002PRCP99
0189689210999992000020206004-34800+020070FM-12+000499999V0209999C000019999999N9999999N1+01871+99999101851ADDAA199000091KA1240M+02381KA2120N+01471MA1999999101811MD1210151+9999REMSYN092AAXX  02064 68921 36/// /0000 10187 2//// 30181 40185 52015 333 20147 91004 555 10238 91018;EQDQ01  00002PRCP99
0205689210999992000031500004-34800+020070FM-12+000499999V0209999C000019999999N9999999N1+01581+99999101421ADDAA101000191AA224005491KA1120M+01851KA2120N+01581MA1999999101381MD1710071+9999REMSYN116AAXX  15004 68921 1//// /0000 10158 2//// 30138 40142 57007 60051 7216/ 333 10185 20158 69925 91002 555 20054 91014;
0189689210999992000040812004-34800+020070FM-12+000499999V0202501N006719999999N9999999N1+02141+99999101571ADDAA199000091KA1120M+02141KA2120N+01361MA1999999101531MD1710021+9999REMSYN092AAXX  08124 68921 36/// /2513 10214 2//// 30153 40157 57002 333 10214 20136 91018 555 91015;EQDQ01  00002PRCP99
0189689210999992000050418004-34800+020070FM-12+000499999V0209999C000019999999N9999999N1+01041+99999102181ADDAA199000091KA1120M+01821KA2120N+01041MA1999999102141MD1210081+9999REMSYN092AAXX  04184 68921 36/// /0000 10104 2//// 30214 40218 52008 333 10182 20104 91000 555 91021;EQDQ01  00002PRCP99
0189689210999992000050912004-34800+020070FM-12+000499999V0201001N004119999999N9999999N1+01761+99999102291ADDAA199000091KA1120M+01781KA2120N+01211MA1999999102251MD1710201+9999REMSYN092AAXX  09124 68921 36/// /1008 10176 2//// 30225 40229 57020 333 10178 20121 91009 555 91022;EQDQ01  00002PRCP99
0189689210999992000061618004-34800+020700FM-12+000499999V0209999C000019999999N9999999N1+01011+99999102091ADDAA199000091KA1120M+01671KA2120N+00971MA1999999102051MD1210131+9999REMSYN092AAXX  16184 68921 36/// /0000 10101 2//// 30205 40209 52013 333 10167 20097 91004 555 91020;EQDQ01  00002PRCP99
0189689210999992000062118004-34800+020700FM-12+000499999V0203001N005119999999N9999999N1+01531+99999100691ADDAA199000091KA1120M+01881KA2120N+01451MA1999999100651MD1210071+9999REMSYN092AAXX  21184 68921 36/// /3010 10153 2//// 30065 40069 52007 333 10188 20145 91015 555 91006;EQDQ01  00002PRCP99
0189689210999992000100706004-34800+020060FM-12+000499999V0200901N005119999999N9999999N1+01561+99999101991ADDAA199000091KA1240M+01871KA2120N+01491MA1999999101951MD1210031+9999REMSYN092AAXX  07064 68921 36/// /0910 10156 2//// 30195 40199 52003 333 20149 91012 555 10187 91019;EQDQ01  00002PRCP99
0189689210999992000111112004-34800+020060FM-12+000499999V0201401N003119999999N9999999N1+02301+99999100721ADDAA199000091KA1120M+02321KA2120N+01721MA1999999100681MD1710121+9999REMSYN092AAXX  11124 68921 36/// /1406 10230 2//// 30068 40072 57012 333 10232 20172 91009 555 91007;EQDQ01  00002PRCP99
0189689210999992000112518004-34800+020060FM-12+000499999V0209999C000019999999N9999999N1+01691+99999101951ADDAA199000091KA1120M+01961KA2120N+01681MA1999999101911MD1210151+9999REMSYN092AAXX  25184 68921 36/// /0000 10169 2//// 30191 40195 52015 333 10196 20168 91010 555 91019;EQDQ01  00002PRCP99
0189689210999992000121900004-34800+020060FM-12+000499999V0202701N004119999999N9999999N1+01811+99999101131ADDAA199000091KA1120M+02321KA2120N+01641MA1999999101091MD1710031+9999REMSYN092AAXX  19004 68921 36/// /2708 10181 2//// 30109 40113 57003 333 10232 20164 91017 555 91011;EQDQ01  00002PRCP99
0189689250999992000022912004-34050+019150FM-12+031399999V0201101N003119999999N9999999N1+02701+99999101211ADDAA199000091KA1120M+02701KA2120N+01551MA1999999097681MD1710081+9999REMSYN092AAXX  29124 68925 36/// /1106 10270 2//// 39768 40121 57008 333 10270 20155 91012 555 91013;EQDQ01  00002PRCP99
0189689250999992000032106004-34050+019150FM-12+031399999V0209999C000019999999N9999999N1+01601+99999101001ADDAA199000091KA1240M+02671KA2120N+01351MA1999999097421MD1710021+9999REMSYN092AAXX  21064 68925 36/// /0000 10160 2//// 39742 40100 57002 333 20135 91001 555 10267 91011;EQDQ01  00002PRCP99
0205689250999992000052918004-34050+019150FM-12+031399999V0203001N005119999999N9999999N1+01501+99999101161ADDAA101000191AA224003091KA1120M+01671KA2120N+01451MA1999999097541MD1210061+9999REMSYN116AAXX  29184 68925 1//// /3010 10150 2//// 39754 40116 52006 60032 7606/ 333 10167 20145 69925 91020 555 20030 91012;
0189689250999992000062412004-34500+019150FM-12+031399999V0202801N007719999999N9999999N1+01521+99999101961ADDAA199000091KA1120M+01551KA2120N+01061MA1999999098241MD1710131+9999REMSYN092AAXX  24124 68925 36/// /2815 10152 2//// 39824 40196 57013 333 10155 20106 91023 555 91019;EQDQ01  00002PRCP99
0189689250999992000071400004-34500+019150FM-12+031399999V0202901N010819999999N9999999N1+01241+99999100111ADDAA199000091KA1120M+01821KA2120N+01231MA1999999096441MD1710211+9999REMSYN092AAXX  14004 68925 36/// /2921 10124 2//// 39644 40011 57021 333 10182 20123 91028 555 91001;EQDQ01  00002PRCP99
0189689250999992000080718004-34050+019150FM-12+031399999V0209999C000019999999N9999999N1+01151+99999101811ADDAA199000091KA1120M+01941KA2120N+01151MA1999999098091MD1210161+9999REMSYN092AAXX  07184 68925 36/// /0000 10115 2//// 39809 40181 52016 333 10194 20115 91002 555 91018;EQDQ01  00002PRCP99
0205689250999992000090400004-34050+019150FM-12+031399999V0203001N005119999999N9999999N1+00951+99999101701ADDAA101000191AA224001691KA1120M+01231KA2120N+00841MA1999999097981MD1710021+9999REMSYN116AAXX  04004 68925 1//// /3010 10095 2//// 39798 40170 57002 60021 7216/ 333 10123 20084 69925 91017 555 20016 91016;
0182689250999992000091506004-34050+019150FM-12+031399999V0201101N002119999999N9999999N1+00801+99999102651ADDAA124001491KA1240M+01231KA2120N+00601MA1999999098911MD1710141+9999REMSYN104AAXX  15064 68925 16/// /1104 10080 2//// 39891 40265 57014 60014 333 20060 91011 555 10123 20014 91026;
0189689250999992000092018004-34050+019150FM-12+031399999V0201301N002119999999N9999999N1+01481+99999102331ADDAA199000091KA1120M+02291KA2120N+01481MA1999999098601MD1210181+9999REMSYN092AAXX  20184 68925 36/// /1304 10148 2//// 39860 40233 52018 333 10229 20148 91006 555 91023;EQDQ01  00002PRCP99
0189689250999992000101306004-34050+019150FM-12+031399999V0201201N002119999999N9999999N1+01411+99999101781ADDAA199000091KA1240M+03221KA2120N+01061MA1999999098061MD1210091+9999REMSYN092AAXX  13064 68925 36/// /1204 10141 2//// 39806 40178 52009 333 20106 91006 555 10322 91017;EQDQ01  00002PRCP99
0189689250999992000102200004-34050+019150FM-12+031399999V0201301N002119999999N9999999N1+01601+99999101641ADDAA199000091KA1120M+02641KA2120N+01591MA1999999097931MD1710171+9999REMSYN092AAXX  22004 68925 36/// /1304 10160 2//// 39793 40164 57017 333 10264 20159 91008 555 91016;EQDQ01  00002PRCP99
0189689250999992000121212004-34050+019150FM-12+031399999V0201501N003119999999N9999999N1+02571+99999101901ADDAA199000091KA1120M+02581KA2120N+00981MA1999999098181MD1710191+9999REMSYN092AAXX  12124 68925 36/// /1506 10257 2//// 39818 40190 57019 333 10258 20098 91015 555 91019;EQDQ01  00002PRCP99
0219689260999992000011606004-34080+021250FM-12+013899999V0209999C000012200019N0300001N1+01901+01621102231ADDAA199000091GF102991021051017501001001KA1240M+02601KA2120N+01511MA1999999100841MD1210141+9999REMSYN096    AAXX  16064 68926 32780 20000 10190 20162 30084 40223 52014 82500 333 20151 555 10260 91022;EQDQ01  00002PRCP99
0215689260999992000020206004-34080+021250FM-12+013899999V0209999C000012200019N0300001N1+01731+01361101851ADDAA199000091GF103991021041022501041001KA1240M+02701KA2120N+01581MA1999999100471MD1210101+9999REMSYN092AAXX  02064 68926 32880 30000 10173 20136 30047 40185 52010 82440 333 20158 555 10270 91018;EQDQ01  00002PRCP99
0196689260999992000021812004-34080+021250FM-12+013899999V0202301N003112200019N0300001N1+03942+01401100591ADDAA199000091GF104991041001999999091001KA1120N+01801MA1999999099291MD1710211+9999REMSYN086AAXX  18124 68926 32980 42306 10394 20140 39929 40059 57021 84090 333 20180 555 91006;EQDQ01  00002PRCP99
0215689260999992000050106004-34080+021250FM-12+013899999V0203101N003110120019N0300001N1+01391+01151101871ADDAA199000091GF107991071051012501999999KA1240M+02171KA2120N+01241MA1999999100471MD1210091+9999REMSYN092AAXX  01064 68926 32680 73106 10139 20115 30047 40187 52009 875// 333 20124 555 10217 91018;EQDQ01  00002PRCP99
0208689260999992000061606004-34800+021250FM-12+013899999V0209999C000012200019N0300001N1+00671+00511102111ADDAA124000491GF101991011041012501001001KA1240M+01491KA2120N+00601MA1999999100691MD1210081+9999REMSYN104AAXX  16064 68926 12680 10000 10067 20051 30069 40211 52008 69944 81400 333 20060 555 10149 20004 91021;
0225689260999992000072606004-34070+021250FM-12+013899999V0209999C000012200019N0300001N1+00201+00091102951ADDAA199000091GA1001+999999999GF100991001001999999001001KA1240M+01831KA2120N+00151MA1999999101521MD1710051+9999REMSYN086AAXX  26064 68926 32980 00000 10020 20009 30152 40295 57005 333 20015 555 10183 91029;EQDQ01  00002PRCP99
0196689260999992000073012004-34070+021250FM-12+013899999V0209999C000010012019N0300001N1+01151+00931102131ADDAA199000091GF108991081061001501999999KA1120N+00451MA1999999100711MD1710091+9999REMSYN086AAXX  30124 68926 32280 80000 10115 20093 30071 40213 57009 886// 333 20045 555 91021;EQDQ01  00002PRCP99
0225689260999992000082306004-34070+021250FM-12+013899999V0209999C000012200019N0300001N1+00591+00471102341ADDAA199000091GA1001+999999999GF100991001001999999001001KA1240M+02171KA2120N+00521MA1999999100921MD1210081+9999REMSYN086AAXX  23064 68926 32980 00000 10059 20047 30092 40234 52008 333 20052 555 10217 91023;EQDQ01  00002PRCP99
0215689260999992000101806004-34070+021250FM-12+013899999V0202301N005110012019N0300001N1+01501+01171101771ADDAA199000091GF108991081071001501999999KA1240M+02671KA2120N+01101MA1999999100361MD1210241+9999REMSYN092AAXX  18064 68926 32280 82310 10150 20117 30036 40177 52024 887// 333 20110 555 10267 91017;EQDQ01  00002PRCP99
0228689260999992000101912004-34070+021250FM-12+013899999V0200401N003110012019N0300001N1+01541+01251102751ADDAA106002092AA224001592AY151061AY221061GF108991081071001501999999KA1120N+01341MA1999999101321MD1410001+9999MW1201REMSYN104AAXX  19124 68926 11280 80406 10154 20125 30132 40275 54000 60021 72052 887// 333 20134 555 20015 91027;
0228689260999992000102412004-34070+021250FM-12+013899999V0202301N007210021019N0100001N1+01231+00931101961ADDAA106008991AA224009191AY161061AY221061GF108991081051002501999999KA1120N+01101MA1999999100541MD1410001+9999MW1601REMSYN104AAXX  24124 68926 11360 82314 10123 20093 30054 40196 54000 60091 76062 885// 333 20110 555 20091 91019;
0196689260999992000110618004-34070+021250FM-12+013899999V0209999C000010120019N0300001N1+02311+01621101311ADDAA199000091GF108991081091012501999999KA1120M+02881MA1999999099901MD1210171+9999REMSYN086AAXX  06184 68926 32680 80000 10231 20162 39990 40131 52017 889// 333 10288 555 91013;EQDQ01  00002PRCP99
0196689260999992000112612004-34070+021250FM-12+013899999V0201301N007212200019N0300001N1+02341+00951102131ADDAA199000091GF104991031041022501041001KA1120N+01621MA1999999100711MD1710161+9999REMSYN086AAXX  26124 68926 32880 41314 10234 20095 30071 40213 57016 83440 333 20162 555 91021;EQDQ01  00002PRCP99
0196689260999992000112812004-34070+021250FM-12+013899999V0201301N003112200019N0300001N1+02451+01261101651ADDAA199000091GF104991041021022501001001KA1120N+01591MA1999999100241MD1710101+9999REMSYN086AAXX  28124 68926 32880 41306 10245 20126 30024 40165 57010 84200 333 20159 555 91016;EQDQ01  00002PRCP99
0215689260999992000121706004-34070+021250FM-12+013899999V0203101N007212200019N0300001N1+01961+00971101571ADDAA199000091GF101991001001999999001041KA1240M+02851KA2120N+01451MA1999999100161MD1210061+9999REMSYN092AAXX  17064 68926 32980 13114 10196 20097 30016 40157 52006 80004 333 20145 555 10285 91015;EQDQ01  00002PRCP99
0196689260999992000122318004-34070+021250FM-12+013899999V0202301N003112200019N0300001N1+02441+01511101111ADDAA199000091GF103991021041999999041001KA1120M+03411MA1999999099701MD1210341+9999REMSYN086AAXX  23184 68926 32980 32306 10244 20151 39970 40111 52034 82440 333 10341 555 91011;EQDQ01  00002PRCP99
0196689280999992000012718004-34180+022150FM-12+0059FAMO V0203601N002110060019N0220001N1+02091+01871101051ADDGF107991071081002501999999KA1120M+02601MA1999999100341MD1310101+9999UG1120152009REMSYN104AAXX  27184 68928 42372 73604 10209 20187 30034 40105 53010 878// 222// 320// 41203 333 10260 555 91010;
0245689280999992000020206004-34180+022150FM-12+0059FAMO V0209999C000010360019N0240001N1+02191+01631101821ADDAA199000091GF105991041051004501051001KA1240M+02381KA2120N+01881MA1999999101111MD1210111+9999UG1120152009REMSYN110AAXX  02064 68928 32474 50000 10219 20163 30111 40182 52011 84550 222// 320// 41203 333 20188 555 10238 91018;EQDQ01  00002PRCP99
0196689280999992000022912004-34180+022150FM-12+0059FAMO V0202301N006210360019N0220001N1+02271+01791101381ADDGF105991041051004501071001KA1120N+02051MA1999999100671MD1810021+9999UG1120201809REMSYN104AAXX  29124 68928 42472 52312 10227 20179 30067 40138 58002 84570 222// 318// 41204 333 20205 555 91014;
0166689280999992000040218004-34180+022150FM-12+0059FAMO V0202301N003612200019N0220001N1+01851+01471101571ADDGF101991011011012501001001KA1120M+02201MA1999999100861MD1210361+9999REMSYN086AAXX  02184 68928 42672 12307 10185 20147 30086 40157 52036 81100 333 10220 555 91015;
0166689280999992000052518004-34180+022150FM-12+0059FAMO V0203401N003112200019N0240001N1+01411+01191101401ADDGF102991021001999999061001KA1120M+01861MA1999999100671MD1210211+9999REMSYN086AAXX  25184 68928 42974 23406 10141 20119 30067 40140 52021 82060 333 10186 555 91014;
0255689280999992000052806004-34180+022150FM-12+0059FAMO V0203401N005112200019N0240001N1+01211+00831101421ADDAA199000091GA1001+999999999GF100991001001999999001001KA1240M+01761KA2120N+01101MA1999999100691MD1310031+9999UG1110152009REMSYN104AAXX  28064 68928 32974 03410 10121 20083 30069 40142 53003 222// 320// 41103 333 20110 555 10176 91014;EQDQ01  00002PRCP99
0238689280999992000060306004-34180+022150FM-12+0059FAMO V0202901N003112200019N0240001N1+01331+01181102551ADDAA124001491GF101991011001999999081001KA1240M+01841KA2120N+01311MA1999999101811MD1210151+9999UG1100151609REMSYN122AAXX  03064 68928 12974 12906 10133 20118 30181 40255 52015 60014 81080 222// 316// 41003 333 20131 555 10184 20014 91025;
0166689280999992000061718004-34170+022150FM-12+0059FAMO V0202501N007212200019N0240001N1+01621+00541102211ADDGF102991021001012501041001KA1120M+02021MA1999999101471MD1310081+9999REMSYN086AAXX  17184 68928 42674 22514 10162 20054 30147 40221 53008 82040 333 10202 555 91022;
0173689280999992000062009004-34170+022150FM-12+0059FAMO V0203401N002612200019N0240001N1+01951+00891101491ADDGF103991001001999999001011MA1999999100761MD1610061+9999UG1110252009REMSYN094AAXX  20094 68928 42974 33405 10195 20089 30076 40149 56006 80001 222// 320// 41105 555 91014;
0173689280999992000073109004-34170+022150FM-12+0059FAMO V0200501N003112200019N0160001N1+01541+01211102001ADDGF102991021061002501001001MA1999999101271MD1110011+9999UG1110202309REMSYN094AAXX  31094 68928 42366 20506 10154 20121 30127 40200 51001 82600 222// 323// 41104 555 91020;
0255689280999992000100306004-34170+022150FM-12+0059FAMO V0203401N004112200019N0240001N1+01701+01381100961ADDAA199000091GA1001+999999999GF100991001001999999001001KA1240M+01751KA2120N+01501MA1999999100231MD1610081+9999UG1120301609REMSYN104AAXX  03064 68928 32974 03408 10170 20138 30023 40096 56008 222// 316// 41206 333 20150 555 10175 91009;EQDQ01  00002PRCP99
0183689280999992000100309004-34170+022150FM-12+0059FAMO V0202001N005112200019N0240001N1+01931+01541100791ADDGA1001+999999999GF100991001001999999001001MA1999999100061MD1710171+9999UG1120301609REMSYN088AAXX  03094 68928 42974 02010 10193 20154 30006 40079 57017 222// 316// 41206 555 91007;
0192689280999992000100609004-34170+022150FM-12+0059FAMO V0201101N004612200019N0240001N1+02011+00941102091ADDGF101991001001999999001011MA1999999101351MD1810061+9999UG1120201809REMSYN094AAXX  06094 68928 42574 11109 10201 20094 30135 40209 58006 80001 222// 318// 41204 555 91020;EQDQ01+008002SCOLCB
0245689280999992000102706004-34170+022150FM-12+0059FAMO V0200701N007212200019N0200001N1+01621+01101102531ADDAA199000091GF101991011011004501001001KA1240M+01991KA2120N+01451MA1999999101791MD1310081+9999UG1100201609REMSYN110AAXX  27064 68928 32470 10714 10162 20110 30179 40253 53008 81100 222// 316// 41004 333 20145 555 10199 91025;EQDQ01  00002PRCP99
0196689280999992000120412004-34170+022150FM-12+0059FAMO V0201601N006212200019N0220001N1+02321+01381101771ADDGF104991021021008001001081KA1120N+01981MA1999999101041MD1710161+9999UG1110252009REMSYN104AAXX  04124 68928 42572 41612 10232 20138 30104 40177 57016 82208 222// 320// 41105 333 20198 555 91017;
0110689310999992000011213004-34080+023320FM-15+0137FAPG V0200401N002612200019N9999999N1+01701+01401999999ADDMA1102101999999MW1001REMMET058FAPG 121300Z AUTO 04005KT //// // ////// 17/14 Q1021 RERA;EQDQ01+000000PRSWM2
0105689310999992000011710004-34080+023320FM-15+0137FAPG V0201101N006712200019N9999999N1+02201+01601999999ADDMA1102301999999MW1001REMMET053FAPG 171000Z AUTO 11013KT //// // ////// 22/16 Q1023;EQDQ01+000000PRSWM2
0105689310999992000011805004-34080+023320FM-15+0137FAPG V0200401N002612200019N9999999N1+01601+01401999999ADDMA1101801999999MW1001REMMET053FAPG 180500Z AUTO 04005KT //// // ////// 16/14 Q1018;EQDQ01+000000PRSWM2
0105689310999992000012104004-34080+023320FM-15+0137FAPG V0203201N001012200019N9999999N1+01401+01201999999ADDMA1101391999999MW1001REMMET053FAPG 210400Z AUTO 32002KT //// // ////// 14/12 Q1014;EQDQ01+000000PRSWM2
0105689310999992000013113004-34080+023320FM-15+0137FAPG V0201901N002612200019N9999999N1+02101+01401999999ADDMA1101391999999MW1001REMMET053FAPG 311300Z AUTO 19005KT //// // ////// 21/14 Q1014;EQDQ01+000000PRSWM2
0105689310999992000020208004-34080+023320FM-15+0137FAPG V0202001N003112200019N9999999N1+02201+01501999999ADDMA1101901999999MW1001REMMET053FAPG 020800Z AUTO 20006KT //// // ////// 22/15 Q1019;EQDQ01+000000PRSWM2
0105689310999992000020513004-34080+023320FM-15+0137FAPG V0201901N004612200019N9999999N1+02201+01701999999ADDMA1101691999999MW1001REMMET053FAPG 051300Z AUTO 19009KT //// // ////// 22/17 Q1017;EQDQ01+000000PRSWM2
0116689310999992000022206004-34080+023320FM-15+0137FAPG V0202601N004112200019N9999999N1+02001+01901999999ADDMA1101391999999MW1001OC100981REMMET056FAPG 220600Z AUTO 26008G19KT //// // ////// 20/19 Q1014;EQDQ01+000000PRSWM2
0105689310999992000022611004-34080+023320FM-15+0137FAPG V0202401N005112200019N9999999N1+02201+02001999999ADDMA1101391999999MW1001REMMET053FAPG 261100Z AUTO 24010KT //// // ////// 22/20 Q1014;EQDQ01+000000PRSWM2
0105689310999992000030306004-34080+023320FM-15+0137FAPG V0202301N002612200019N9999999N1+01801+01601999999ADDMA1100711999999MW1001REMMET053FAPG 030600Z AUTO 23005KT //// // ////// 18/16 Q1007;EQDQ01+000000PRSWM2
0105689310999992000040110004-34080+023320FM-15+0137FAPG V0200801N002612200019N9999999N1+02301+01501999999ADDMA1101391999999MW1001REMMET053FAPG 011000Z AUTO 08005KT //// // ////// 23/15 Q1014;EQDQ01+000000PRSWM2
0105689310999992000050205004-34080+023320FM-15+0137FAPG V0202801N003612200019N9999999N1+01101+00901999999ADDMA1102001999999MW1001REMMET053FAPG 020500Z AUTO 28007KT //// // ////// 11/09 Q1020;EQDQ01+000000PRSWM2
0105689310999992000050513004-34080+023320FM-15+0137FAPG V0200601N002112200019N9999999N1+01801+00601999999ADDMA1101901999999MW1001REMMET053FAPG 051300Z AUTO 06004KT //// // ////// 18/06 Q1019;EQDQ01+000000PRSWM2
0105689310999992000061611004-34800+023310FM-15+0137FAPG V0202801N002612200019N9999999N1+01601+00701999999ADDMA1102001999999MW1001REMMET053FAPG 161100Z AUTO 28005KT //// // ////// 16/07 Q1020;EQDQ01+000000PRSWM2
0105689310999992000061708004-34800+023310FM-15+0137FAPG V0202901N003112200019N9999999N1+01501+00401999999ADDMA1102301999999MW1001REMMET053FAPG 170800Z AUTO 29006KT //// // ////// 15/04 Q1023;EQDQ01+000000PRSWM2
0105689310999992000061712004-34800+023310FM-15+0137FAPG V0202501N004612200019N9999999N1+01601+00401999999ADDMA1102201999999MW1001REMMET053FAPG 171200Z AUTO 25009KT //// // ////// 16/04 Q1022;EQDQ01+000000PRSWM2
0105689310999992000061808004-34800+023310FM-15+0137FAPG V0202601N004612200019N9999999N1+01701+00901999999ADDMA1102811999999MW1001REMMET053FAPG 180800Z AUTO 26009KT //// // ////// 17/09 Q1028;EQDQ01+000000PRSWM2
0105689310999992000071006004-34800+023310FM-15+0137FAPG V0203401N001512200019N9999999N1+01301+00601999999ADDMA1102101999999MW1001REMMET053FAPG 100600Z AUTO 34003KT //// // ////// 13/06 Q1021;EQDQ01+000000PRSWM2
0105689310999992000071010004-34800+023310FM-15+0137FAPG V0202601N002112200019N9999999N1+01801+00501999999ADDMA1102201999999MW1001REMMET053FAPG 101000Z AUTO 26004KT //// // ////// 18/05 Q1022;EQDQ01+000000PRSWM2
0116689310999992000071510004-34800+023310FM-15+0137FAPG V0203001N005712200019N9999999N1+01401+00301999999ADDMA1100811999999MW1001OC101131REMMET056FAPG 151000Z AUTO 30011G22KT //// // ////// 14/03 Q1008;EQDQ01+000000PRSWM2
0105689310999992000071705004-34800+023310FM-15+0137FAPG V0202801N002112200019N9999999N1+01101+00101999999ADDMA1102001999999MW1001REMMET053FAPG 170500Z AUTO 28004KT //// // ////// 11/01 Q1020;EQDQ01+000000PRSWM2
0105689310999992000080805004-34070+023310FM-15+0137FAPG V0203401N003612200019N9999999N1+01401+00601999999ADDMA1101591999999MW1001REMMET053FAPG 080500Z AUTO 34007KT //// // ////// 14/06 Q1016;EQDQ01+000000PRSWM2
0105689310999992000082910004-34070+023310FM-15+0137FAPG V0202701N005112200019N9999999N1+01801+01201999999ADDMA1101801999999MW1001REMMET053FAPG 291000Z AUTO 27010KT //// // ////// 18/12 Q1018;EQDQ01+000000PRSWM2
0116689310999992000090610004-34070+023310FM-15+0137FAPG V0202801N005712200019N9999999N1+02201+00901999999ADDMA1101391999999MW1001OC101391REMMET056FAPG 061000Z AUTO 28011G27KT //// // ////// 22/09 Q1014;EQDQ01+000000PRSWM2
0105689310999992000092406004-34070+023310FM-15+0137FAPG V0202701N001512200019N9999999N1+01501+01301999999ADDMA1101191999999MW1001REMMET053FAPG 240600Z AUTO 27003KT //// // ////// 15/13 Q1012;EQDQ01+000000PRSWM2
0105689310999992000092513004-34070+023310FM-15+0137FAPG V0202301N004112200019N9999999N1+01901+01001999999ADDMA1101491999999MW1001REMMET053FAPG 251300Z AUTO 23008KT //// // ////// 19/10 Q1015;EQDQ01+000000PRSWM2
0105689310999992000101606004-34070+023310FM-15+0137FAPG V0202601N004612200019N9999999N1+01701+01301999999ADDMA1101801999999MW1001REMMET053FAPG 160600Z AUTO 26009KT //// // ////// 17/13 Q1018;EQDQ01+000000PRSWM2
0105689310999992000102608004-34070+023310FM-15+0137FAPG V0202001N002112200019N9999999N1+01601+00901999999ADDMA1102611999999MW1001REMMET053FAPG 260800Z AUTO 20004KT //// // ////// 16/09 Q1026;EQDQ01+000000PRSWM2
0105689310999992000110406004-34070+023310FM-15+0137FAPG V0202901N003612200019N9999999N1+01801+01401999999ADDMA1101191999999MW1001REMMET053FAPG 040600Z AUTO 29007KT //// // ////// 18/14 Q1012;EQDQ01+000000PRSWM2
0105689310999992000111205004-34070+023310FM-15+0137FAPG V0202601N002612200019N9999999N1+01901+01801999999ADDMA1100711999999MW1001REMMET053FAPG 120500Z AUTO 26005KT //// // ////// 19/18 Q1007;EQDQ01+000000PRSWM2
0105689310999992000111313004-34070+023310FM-15+0137FAPG V0201301N002112200019N9999999N1+01801+01401999999ADDMA1102201999999MW1001REMMET053FAPG 131300Z AUTO 13004KT //// // ////// 18/14 Q1022;EQDQ01+000000PRSWM2
0105689310999992000111510004-34070+023310FM-15+0137FAPG V0200601N004612200019N9999999N1+02301+01801999999ADDMA1101291999999MW1001REMMET053FAPG 151000Z AUTO 06009KT //// // ////// 23/18 Q1013;EQDQ01+000000PRSWM2
0105689310999992000112205004-34070+023310FM-15+0137FAPG V0203601N002112200019N9999999N1+01601+01301999999ADDMA1102201999999MW1001REMMET053FAPG 220500Z AUTO 36004KT //// // ////// 16/13 Q1022;EQDQ01+000000PRSWM2
0105689310999992000122107004-34070+023310FM-15+0137FAPG V0200901N004612200019N9999999N1+02101+01701999999ADDMA1101901999999MW1001REMMET053FAPG 210700Z AUTO 09009KT //// // ////// 21/17 Q1019;EQDQ01+000000PRSWM2
0193689350999992000011806004-34050+023080FM-12+005499999V0209999C000019999999N9999999N1+01861+01591101741ADDAA199000091KA1240M+02571KA2120N+01491MA1999999101101MD1710061+9999REMSYN096    AAXX  18064 68935 36/// /0000 10186 20159 30110 40174 57006 333 20149 91003 555 10257 91017;EQDQ01  00002PRCP99
0189689350999992000012918004-34050+023080FM-12+005499999V0209999C000019999999N9999999N1+02011+01561101171ADDAA199000091KA1120M+02451KA2120N+02011MA1999999100541MD1210041+9999REMSYN092AAXX  29184 68935 36/// /0000 10201 20156 30054 40117 52004 333 10245 20201 91004 555 91011;EQDQ01  00002PRCP99
0189689350999992000013018004-34050+023080FM-12+005499999V0203101N004119999999N9999999N1+02181+01841101161ADDAA199000091KA1120M+02891KA2120N+02181MA1999999100531MD1210351+9999REMSYN092AAXX  30184 68935 36/// /3108 10218 20184 30053 40116 52035 333 10289 20218 91011 555 91011;EQDQ01  00002PRCP99
0189689350999992000020206004-34050+023080FM-12+005499999V0209999C000019999999N9999999N1+01921+01551101861ADDAA199000091KA1240M+02411KA2120N+01651MA1999999101221MD1210071+9999REMSYN092AAXX  02064 68935 36/// /0000 10192 20155 30122 40186 52007 333 20165 91003 555 10241 91018;EQDQ01  00002PRCP99
0205689350999992000030400004-34050+023080FM-12+005499999V0209999C000019999999N9999999N1+01821+01761101781ADDAA101000591AA224003491KA1120M+02471KA2120N+01821MA1999999101141MD1710041+9999REMSYN116AAXX  04004 68935 1//// /0000 10182 20176 30114 40178 57004 60031 7216/ 333 10247 20182 69965 91003 555 20034 91017;
0189689350999992000032200004-34050+023080FM-12+005499999V0202801N002119999999N9999999N1+01991+01811101291ADDAA199000091KA1120M+03381KA2120N+01991MA1999999100661MD1210161+9999REMSYN092AAXX  22004 68935 36/// /2804 10199 20181 30066 40129 52016 333 10338 20199 91006 555 91013;EQDQ01  00002PRCP99
0189689350999992000032218004-34050+023080FM-12+005499999V0209999C000019999999N9999999N1+02081+01841101691ADDAA199000091KA1120M+02621KA2120N+02081MA1999999101061MD1210081+9999REMSYN092AAXX  22184 68935 36/// /0000 10208 20184 30106 40169 52008 333 10262 20208 91003 555 91017;EQDQ01  00002PRCP99
0189689350999992000041012004-34050+023080FM-12+005499999V0202601N003119999999N9999999N1+02111+01751101561ADDAA199000091KA1120M+02121KA2120N+01301MA1999999100921MD1710141+9999REMSYN092AAXX  10124 68935 36/// /2606 10211 20175 30092 40156 57014 333 10212 20130 91008 555 91015;EQDQ01  00002PRCP99
0189689350999992000062312004-34500+023790FM-12+005499999V0202701N004119999999N9999999N1+01781+00811102251ADDAA199000091KA1120M+01841KA2120N+00761MA1999999101601MD1710161+9999REMSYN092AAXX  23124 68935 36/// /2708 10178 20081 30160 40225 57016 333 10184 20076 91012 555 91022;EQDQ01  00002PRCP99
0189689350999992000090712004-34050+023070FM-12+005499999V0202801N006219999999N9999999N1+01981+01081102371ADDAA199000091KA1120M+01991KA2120N+01261MA1999999101721MD1710081+9999REMSYN092AAXX  07124 68935 36/// /2812 10198 20108 30172 40237 57008 333 10199 20126 91019 555 91023;EQDQ01  00002PRCP99
0189689350999992000100912004-34050+023070FM-12+005499999V0209999C000019999999N9999999N1+02181+01541100821ADDAA199000091KA1120M+02251KA2120N+01391MA1999999100181MD1710171+9999REMSYN092AAXX  09124 68935 36/// /0000 10218 20154 30018 40082 57017 333 10225 20139 91008 555 91008;EQDQ01  00002PRCP99
0189689350999992000111106004-34050+023070FM-12+005499999V0209999C000019999999N9999999N1+02171+01931100921ADDAA199000091KA1240M+02541KA2120N+02011MA1999999100281MD1210051+9999REMSYN092AAXX  11064 68935 36/// /0000 10217 20193 30028 40092 52005 333 20201 91004 555 10254 91009;EQDQ01  00002PRCP99
0182689350999992000122306004-34050+023070FM-12+005499999V0200801N002119999999N9999999N1+02131+01771101351ADDAA124000291KA1240M+02411KA2120N+01881MA1999999100701MD1710041+9999REMSYN104AAXX  23064 68935 16/// /0804 10213 20177 30070 40135 57004 69924 333 20188 91006 555 10241 20002 91013;
0196689380999992000021112004-34200+024830FM-12+000799999V0202701N002110042019N0140001N1+02481+02211101111ADDGF107991071051004501999999KA1120N+02291MA1999999101031MD1610061+9999UG1120152309REMSYN104AAXX  11124 68938 42464 72704 10248 20221 30103 40111 56006 875// 222// 323// 41203 333 20229 555 91011;
0266689380999992000030906004-34200+024830FM-12+000799999V0200901N007210021019N0030001N1+01941+01891101411ADDAA124001391AY151061AY221061GF108991081071002501999999KA1240M+02181KA2120N+01841MA1999999101331MD1710341+9999MW1201UG1110251809REMSYN128AAXX  09064 68938 11330 80914 10194 20189 30133 40141 57034 60014 72052 887// 222// 318// 41105 333 20184 555 10218 20013 91014;
0173689380999992000032709004-34200+024830FM-12+000799999V0200901N007210042019N0160001N1+01971+01691101771ADDGF107991071051004501999999MA1999999101691MD1610051+9999UG1110201809REMSYN094AAXX  27094 68938 42466 70914 10197 20169 30169 40177 56005 875// 222// 318// 41104 555 91017;
0173689380999992000042809004-34200+024830FM-12+000799999V0200501N009312200019N0160001N1+01651+00941102671ADDGF101991011021004501001001MA1999999102581MD1810071+9999UG1110201809REMSYN094AAXX  28094 68938 42466 10518 10165 20094 30258 40267 58007 81200 222// 318// 41104 555 91026;
0245689380999992000042906004-34200+024830FM-12+000799999V0200901N006212200019N0160001N1+01481+01221101881ADDAA199000091GF102991011031004501061001KA1240M+01821KA2120N+01481MA1999999101801MD1810071+9999UG1110151809REMSYN110AAXX  29064 68938 32466 20912 10148 20122 30180 40188 58007 81360 222// 318// 41103 333 20148 555 10182 91018;EQDQ01  00002PRCP99
0245689380999992000050306004-34200+024830FM-12+000799999V0202701N003110042019N0160001N1+01191+00381102591ADDAA199000091GF107991071051004501999999KA1240M+01531KA2120N+01031MA1999999102501MD1310111+9999UG1110152309REMSYN110AAXX  03064 68938 32466 72706 10119 20038 30250 40259 53011 875// 222// 323// 41103 333 20103 555 10153 91025;EQDQ01  00002PRCP99
0200689380999992000052518004-34200+024830FM-12+000799999V0202701N002112200019N0160001N1+01331+00961101251ADDAY101061AY201061GF103991021091004501001081KA1120M+01641MA1999999101171MD1210191+9999MW1131REMSYN098AAXX  25184 68938 41466 32704 10133 20096 30117 40125 52019 71300 82908 222// 333 10164 555 91012;
0226689380999992000061212004-34200+024830FM-12+000799999V0209999C000012200019N0160001N1+01631+00941102381ADDAA199000091GF101991011021004501001001KA1120N+01021MA1999999102301MD1810261+9999UG1110302309REMSYN104AAXX  12124 68938 32466 10000 10163 20094 30230 40238 58026 81200 222// 323// 41106 333 20102 555 91023;EQDQ01  00002PRCP99
0245689380999992000070906004-34190+024820FM-12+000799999V0209999C000019999999N0160001N1+01601+01331102111ADDAA199000091GF105991001001999999001021KA1240M+02951KA2120N+01521MA1999999102031MD1110031+9999UG1120151809REMSYN110AAXX  09064 68938 32966 50000 10160 20133 30203 40211 51003 80002 222// 318// 41203 333 20152 555 10295 91021;EQDQ01  00002PRCP99
0245689380999992000092906004-34190+024820FM-12+000799999V0209999C000012200019N0160001N1+01601+01331101941ADDAA199000091GF101991011021004501001001KA1240M+01921KA2120N+01241MA1999999101861MD1110121+9999UG1120202309REMSYN110AAXX  29064 68938 32466 10000 10160 20133 30186 40194 51012 81200 222// 323// 41204 333 20124 555 10192 91019;EQDQ01  00002PRCP99
0224689380999992000111212004-34190+024820FM-12+000799999V0202701N010310042019N0160001N1+01871+01801100591ADDAY151061AY221061GF108991081071004501999999KA1120N+01861MA1999999100511MD1610081+9999MW1021UG1120152309REMSYN110AAXX  12124 68938 41466 82720 10187 20180 30051 40059 56008 70252 887// 222// 323// 41203 333 20186 555 91005;
0137689920999992000010818004-54400+003300FM-12+002899999V02099999999999999999N9999999N1+00161+99999098681ADDKA1120M+00281KA2999N+00071MA1999999098131MD1210491+9999REMSYN070AAXX  08184 68992 46/// ///// 10016 39813 49868 52049 333 10028 20007;
