037672511514711200005122150C+40200-076767FM-15+0092MDT  V0209999C000050609659N0128005N1+02905+02105100575ADDAA101000095GD12995+0390019GD23995+0600019GF106995999999999999999999MA1100581099465MW1001REMMET062KMDT 122150Z 00000KT 8SM SCT130 BKN200 29/21 A2970 RMK SLP057;EQDQ01+000000PRSWM2N01 00000JPWTH 0QNNE71D0 00299F71 0 00299E71D0 00499F71 0 00499G71 0 00200K71D0 00070J71 0 00210L71 0 00800M71 0 29370N71 0 00000Q71 0 10057S71D0 00084R71 0 00290V71D0 00899U71 0 00699X71 0 00000
043972511514711200005131550C+40200-076767FM-15+0092MDT  V0201805N004150396259N0064005N1+02305+01705100875ADDAA101000095GD12995+0150019GD23995+0390019GD34995+0600019GF108995999999999999999999MA1100881099765MW1055REMMET072KMDT 131550Z 18008KT 4SM HZ SCT055 BKN130 OVC200 23/17 A2979 RMK SLP087;EQDQ01+000003PRSWM1Q02    003PRSWM1N01 00081JPWTH 0QNNE71D0 00299F71 0 00299E71D0 00499F71 0 00499E71D0 00699F71 0 00699G71 0 00130K71D0 00063J71 0 00170L71 0 00400M71 0 29460N71 0 00081Q71 0 10087S71D0 00073R71 0 00230V71D0 01099U71 0 00899X71 0 18008
036372511514711200005180750C+40200-076767FM-15+0092MDT  V0209999C000050609659N0080005N1+01605+01505101795ADDAA101000095GD13995+0600019GF105995999999999999999999MA1101801100665MW1101MW2455REMMET064KMDT 180750Z 00000KT 5SM BR BKN200 16/15 A3006 RMK SLP179 98605;EQDQ01+000003PRSWM1Q02    003PRSWM1N01 00070JPWTH 0QNNE71D0 00499F71 0 00499G71 0 00200K71D0 00059J71 0 00150L71 0 00500M71 0 29725N71 0 00070Q71 0 10179S71D0 00061R71 0 00160V71D0 00699U71 0 00599X71 0 00000
0071725115147112000051822009+40200-076767NSRDB+009299999V020999999999999999999999999999+99999+99999999999ADDGP10060033002008015202015025302008GQ100600597927119GR100600671913359
036072511514711200005231050C+40200-076767FM-15+0092MDT  V0201405N005250021359N0024005N1+01505+01405101035ADDAA101000095GD14995+0021019GF108995999999999999999999MA1101021099905MW1101MW2455REMMET061KMDT 231050Z 14010KT 11/2SM BR OVC007 15/14 A2983 RMK SLP103;EQDQ01+000003PRSWM1Q02    003PRSWM1N01 00070JPWTH 0QNNE71D0 00699F71 0 00699G71 0 00007K71D0 00057J71 0 00140L71 0 00150M71 0 29500N71 0 00070Q71 0 10103S71D0 00059R71 0 00150V71D0 01099U71 0 00899X71 0 14010
042872511514711200005242250C+40200-076767FM-15+0092MDT  V0201905N003650243859N0192005N1+02505+01605099995ADDAA101000095GD12995+0180019GD24995+0240019GF108995999999999999999999MA1100001098885MW1171MW2955REMMET092KMDT 242250Z 19007KT 12SM TS SCT060 OVC080 25/16 A2953 RMK OCNL LTGCG TSB46 N MOV SE SLP999;EQDQ01+000003PRSWM1Q02    003PRSWM1N01 00010JPWTH 0QNNE71D0 00299F71 0 00299E71D0 00699F71 0 00699G71 0 00080K71D0 00061J71 0 00160L71 0 01200M71 0 29200N71 0 00010Q71 0 09999S71D0 00077R71 0 00250V71D0 01099U71 0 00899X71 0 19007
0071725115147112000052510009+40200-076767NSRDB+009299999V020999999999999999999999999999+99999+99999999999ADDGP10060000002008000002015000002008GQ100600889906269GR100600007903449
0071725115147112000052614009+40200-076767NSRDB+009299999V020999999999999999999999999999+99999+99999999999ADDGP10060061402008070002015015402008GQ100600489909639GR100600873913319
037772511514711200005310850C+40200-076767FM-15+0092MDT  V0200405N002152200059N0080005N1+00905+00805102405ADDAA101000095GD12995+0024019GF103995999999999999999999MA1102401101255MD1610071+9999MW1101MW2455REMMET064KMDT 310850Z 04004KT 5SM BR SCT008 09/08 A3024 RMK SLP240 56007;EQDQ01+000003PRSWM1Q02    003PRSWM1N01 00070JPWTH 0QNNE71D0 00299F71 0 00299G71U0 99999K71D0 00046J71 0 00080L71 0 00500M71 0 29900N71 0 00070Q71 0 10240S71D0 00048R71 0 00090V71D0 00499U71 0 00399X71 0 04004
0054725115147112000061008009+40200-076767NSRDB+009299999V020999999999999999999999999999+99999+99999999999ADDGP10060000002000000002000000002000GR100600000900009
0071725115147112000061301009+40200-076767NSRDB+009299999V020999999999999999999999999999+99999+99999999999ADDGP10060000102008000002015000102008GQ100600873929889GR100600037907849
037872511514711200006151450C+40200-076767FM-15+0092MDT  V0201305N004650015259N0040005N1+01905+01805101655ADDAA101000025GD14995+0015019GF108995999999999999999999MA1101661100525MD1610071+9999MW1455REMMET071KMDT 151450Z 13009KT 2 1/2SM OVC005 19/18 A3002 RMK DZE35 SLP165 56007;EQDQ01+000000PRSWM2Q02    003PRSWM1N01 00070JPWTH 0QNNE71D0 00699F71 0 00699G71 0 00005K71D0 00064J71 0 00180L71 0 00250M71 0 29685N71 0 00070Q71 0 10165S71D0 00066R71 0 00190V71D0 01099U71 0 00899X71 0 13009
036172511514711200006151950C+40200-076767FM-15+0092MDT  V0201305N002650070159N0040005N1+02505+02205101325ADDAA101000095GD14995+0069019GF108995999999999999999999MA1101321100205MW1101MW2455REMMET062KMDT 151950Z 13005KT 2 1/2SM BR OVC023 25/22 A2992 RMK SLP132;EQDQ01+000003PRSWM1Q02    003PRSWM1N01 00070JPWTH 0QNNE71D0 00699F71 0 00699G71 0 00023K71D0 00072J71 0 00220L71 0 00250M71 0 29590N71 0 00070Q71 0 10132S71D0 00077R71 0 00250V71D0 01099U71 0 00899X71 0 13005
037672511514711200006170150C+40200-076767FM-15+0092MDT  V0201605N003650335359N0128005N1+02605+02305101405ADDAA101000095GD13995+0330019GD24995+0450019GF108995999999999999999999MA1101421100295MW1001REMMET062KMDT 170150Z 16007KT 8SM BKN110 OVC150 26/23 A2995 RMK SLP140;EQDQ01+000000PRSWM2N01 00000JPWTH 0QNNE71D0 00499F71 0 00499E71D0 00699F71 0 00699G71 0 00110K71D0 00073J71 0 00230L71 0 00800M71 0 29615N71 0 00000Q71 0 10140S71D0 00079R71 0 00260V71D0 01099U71 0 00899X71 0 16007
0071725115147112000061717009+40200-076767NSRDB+009299999V020999999999999999999999999999+99999+99999999999ADDGP10060077102008042702015036602008GQ100600189915249GR100601251913239
045272511514711200006172350C+40200-076767FM-15+0092MDT  V0203005N004150396259N0192005N1+02705+02105101775ADDAA101000095AA206000021GD12995+0135019GD23995+0390019GF107995999999999999999999KA1999M+03141KA2999N+02601MA1101801100665MD1210071+9999MW1001REMMET087KMDT 172350Z 30008KT 12SM SCT045 BKN130 27/21 A3006 RMK SLP177 60000 10314 20260 52007;EQDQ01+000000PRSWM2N01 00000JPWTH 0QNNE71D0 00299F71 0 00299E71D0 00499F71 0 00499G71 0 00130K71D0 00070J71 0 00210L71 0 01200M71 0 29725N71 0 00000Q71 0 10177S71D0 00081R71 0 00270V71D0 00999U71 0 00799X71 0 30008
0071725115147112000061816009+40200-076767NSRDB+009299999V020999999999999999999999999999+99999+99999999999ADDGP10060041302008003002015038602008GQ100600267912229GR100601180913239
0054725115147112000062103009+40200-076767NSRDB+009299999V020999999999999999999999999999+99999+99999999999ADDGP10060000002000000002000000002000GR100600000900009
034972511514711200006222050C+40200-076767FM-15+0092MDT  V0202705N010350274359N0240005N1+02905+01705100865ADDAA101000095GD13995+0240019GF105995999999999999999999MA1100851099765MW1001OC199999REMMET048KMDT 222050Z 27010G15KT 10SM SCT080 30/16 A2978;EQDQ01+000000PRSWM2Q02  00772WGOSPDN01 00000JPWTH 0QNNE71D0 00499F71 0 00499G71 0 00090K71D0 00063J71 0 00170L71 0 01500M71 0 29460N71 0 00000Q71 0 10086S71D0 00084R71 0 00290V71D0 00699U71 0 00599X71 0 27020
033372511514711200006222150C+40200-076767FM-15+0092MDT  V0202805N010852200059N0240005N1+02905+01605100835ADDAA101000095GD12995+0270019GF104995999999999999999999MA1100851099735MW1001REMMET056KMDT 222150Z 28012KT 15SM SCT090 29/16 A2978 RMK SLP083;EQDQ01+000000PRSWM2N01 00000JPWTH 0QNNE71D0 00299F71 0 00299G71U0 99999K71D0 00061J71 0 00160L71 0 01500M71 0 29450N71 0 00000Q71 0 10083S71D0 00084R71 0 00290V71D0 00599U71 0 00499X71 0 28021
0071725115147112000062300009+40200-076767NSRDB+009299999V020999999999999999999999999999+99999+99999999999ADDGP10060011802008028002015006302008GQ100600788929149GR100600258913229
0071725115147112000062515009+40200-076767NSRDB+009299999V020999999999999999999999999999+99999+99999999999ADDGP10060072402008061102015023902008GQ100600375910469GR100601047913229
035072511514711200007030450C+40200-076767FM-15+0092MDT  V0201005N002152200059N0128005N1+02105+01705101785ADDAA101000095GF100995999999999999999999KA1999M+02991KA2999N+01471MA1101801100665MW1001REMMET062KMDT 030450Z 10004KT 8SM SKC 21/17 A3006 RMK SLP178 402990147;EQDQ01+000000PRSWM2N01 00000JPWTH 0QNNE71D0 00000F71 0 00000G71U0 99999K71D0 00063J71 0 00170L71 0 00800M71 0 29725N71 0 00000Q71 0 10178S71D0 00070R71 0 00210V71D0 00099U71 0 00099X71 0 10004
0054725115147112000070508009+40200-076767NSRDB+009299999V020999999999999999999999999999+99999+99999999999ADDGP10060000002000000002000000002000GR100600000900009
0054725115147112000070603009+40200-076767NSRDB+009299999V020999999999999999999999999999+99999+99999999999ADDGP10060000002000000002000000002000GR100600000900009
0071725115147112000070714009+40200-076767NSRDB+009299999V020999999999999999999999999999+99999+99999999999ADDGP10060057702008065202015015502008GQ100600497909359GR100600853913219
0071725115147112000070722009+40200-076767NSRDB+009299999V020999999999999999999999999999+99999+99999999999ADDGP10060044902008050602015017002008GQ100600565927249GR100600727913219
0170725115147112000071010504+40190-076770FM-15+0094KMDT V0209999C000010210019N0040231N1+02301+02301100901ADDGD13991+0210019GF107991999999999999999999MA1100911999999MW1101REMMET061KMDT 101050Z 00000KT 21/2SM BR BKN070 23/23 A2980 RMK SLP090;EQDQ01+000003PRSWM1Q02    003PRSWM1
0054725115147112000071303009+40200-076767NSRDB+009299999V020999999999999999999999999999+99999+99999999999ADDGP10060000002000000002000000002000GR100600000900009
0054725115147112000071707009+40200-076767NSRDB+009299999V020999999999999999999999999999+99999+99999999999ADDGP10060000002000000002000000002000GR100600000900009
0071725115147112000071813009+40200-076767NSRDB+009299999V020999999999999999999999999999+99999+99999999999ADDGP10060035702008040302015016902008GQ100600623908529GR100600614913239
039772511514711200007190250C+40200-076767FM-15+0092MDT  V0203105N002650762059N0240005N1+02205+01505101505ADDAA101000095GD11995+0360019GD23995+0750019GF106995999999999999999999MA1101521100395MD1210191+9999MW1001REMMET069KMDT 190250Z 31005KT 15SM FEW120 BKN250 22/15 A2998 RMK SLP150 52019;EQDQ01+000000PRSWM2N01 00000JPWTH 0QNNE71D0 00299F71 0 00199E71D0 00499F71 0 00499G71 0 00250K71D0 00059J71 0 00150L71 0 01500M71 0 29645N71 0 00000Q71 0 10150S71D0 00072R71 0 00220V71D0 00899U71 0 00699X71 0 31005
033372511514711200007190650C+40200-076767FM-15+0092MDT  V0209999C000050426759N0240005N1+02005+01405101565ADDAA101000095GD14995+0420019GF108995999999999999999999MA1101591100465MW1001REMMET056KMDT 190650Z 00000KT 15SM OVC140 20/14 A3000 RMK SLP156;EQDQ01+000000PRSWM2N01 00000JPWTH 0QNNE71D0 00699F71 0 00699G71 0 00140K71D0 00057J71 0 00140L71 0 01500M71 0 29665N71 0 00000Q71 0 10156S71D0 00068R71 0 00200V71D0 01099U71 0 00899X71 0 00000
041172511514711200007192250C+40200-076767FM-15+0092MDT  V0201105N003650036659N0064005N1+01805+01605101415ADDAA101000025GD13995+0036019GD24995+0090019GF108995999999999999999999MA1101421100295MW1101MW2455MW3615REMMET069KMDT 192250Z 11007KT 4SM -RA BR BKN012 OVC030 18/16 A2995 RMK SLP141;EQDQ01+000003PRSWM1Q02    003PRSWM1N01 02070JPWTH 0QNNE71D0 00499F71 0 00499E71D0 00699F71 0 00699G71 0 00012K71D0 00061J71 0 00160L71 0 00400M71 0 29615N71 0 02070Q71 0 10141S71D0 00064R71 0 00180V71D0 01099U71 0 00899X71 0 11007
037372511514711200007222350C+40200-076767FM-15+0092MDT  V0203305N002652200059N0240005N1+02505+01305101745ADDAA101000095GF100995999999999999999999KA1999M+02791KA2999N+02481MA1101761100635MD1310071+9999MW1001REMMET071KMDT 222350Z 33005KT 15SM SKC 25/13 A3005 RMK SLP174 10279 20248 53007;EQDQ01+000000PRSWM2N01 00000JPWTH 0QNNE71D0 00000F71 0 00000G71U0 99999K71D0 00055J71 0 00130L71 0 01500M71 0 29715N71 0 00000Q71 0 10174S71D0 00077R71 0 00250V71D0 00099U71 0 00099X71 0 33005
0054725115147112000072303009+40200-076767NSRDB+009299999V020999999999999999999999999999+99999+99999999999ADDGP10060000002000000002000000002000GR100600000900009
039872511514711200007290150C+40200-076767FM-15+0092MDT  V0202105N004150112859N0112005N1+02005+01905101745ADDAA101001095GD12995+0060019GD24995+0111019GF108995999999999999999999MA1101761100635MW1805REMMET068KMDT 290150Z 21008KT 7SM -SHRA SCT020 OVC037 20/19 A3005 RMK SLP174;EQDQ01+000003PRSWM1Q02    003PRSWM1N01 00023JPWTH 0QNNE71D0 00299F71 0 00299E71D0 00699F71 0 00699G71 0 00037K71D0 00066J71 0 00190L71 0 00700M71 0 29715N71 0 00023Q71 0 10174S71D0 00068R71 0 00200V71D0 01099U71 0 00899X71 0 21008
0156725115147112000072915304+40190-076770FM-15+0094KMDT V0209999C000010075019N0064371N1+02301+02001999999ADDGD14991+0075019GF108991999999999999999999MA1101901999999MW1101REMMET047KMDT 291530Z 00000KT 4SM BR OVC025 23/20 A3009;EQDQ01+000003PRSWM1Q02    003PRSWM1
0178725115147112000072916274+40190-076770FM-16+0094KMDT V0209999C000010090019N0080461N1+02501+02101999999ADDGD12991+0060019GD24991+0090019GF108991999999999999999999MA1101901999999MW1051REMMET054KMDT 291627Z 00000KT 5SM HZ SCT020 OVC030 25/21 A3009;EQDQ01+000003PRSWM1Q02    003PRSWM1
040172511514711200007311050C+40200-076767FM-15+0092MDT  V0200805N002650048859N0048005N1+02405+02305101925ADDAA101000095GD13995+0048019GD24995+0180019GF108995999999999999999999MA1101931100805MW1101MW2455REMMET065KMDT 311050Z 08005KT 3SM BR BKN016 OVC060 24/23 A3010 RMK SLP192;EQDQ01+000003PRSWM1Q02    003PRSWM1N01 00070JPWTH 0QNNE71D0 00499F71 0 00499E71D0 00699F71 0 00699G71 0 00016K71D0 00073J71 0 00230L71 0 00300M71 0 29765N71 0 00070Q71 0 10192S71D0 00075R71 0 00240V71D0 01099U71 0 00899X71 0 08005
034072511514711200008031950C+40200-076767FM-15+0092MDT  V0202105N007250091459N0080005N1+02905+02305101395ADDAA101000095GD13995+0090019GF106995999999999999999999MA1101421999999MW1055REMMET058KMDT 031950Z 21014KT 5SM HZ BKN030 29/23 A2995 RMK SLP139;EQDQ01+000003PRSWM1Q02    003PRSWM1N01 00081JPWTH 0QNNE71D0 00499F71 0 00499G71 0 00030K71D0 00073J71 0 00230L71 0 00500N71 0 00081Q71 0 10139S71D0 00084R71 0 00290V71D0 00899U71 0 00699X71 0 21014
0071725115147112000080614009+40200-076767NSRDB+009299999V020999999999999999999999999999+99999+99999999999ADDGP10060011802008000002015011802008GQ100600534909959GR100600790913289
0054725115147112000080807009+40200-076767NSRDB+009299999V020999999999999999999999999999+99999+99999999999ADDGP10060000002000000002000000002000GR100600000900009
033972511514711200008110450C+40200-076767FM-15+0092MDT  V0209999C000052200059N0112005N1+02305+02005101435ADDAA101000095GF100995999999999999999999KA1999M+03111KA2999N+02241MA1101461999999MW1001REMMET062KMDT 110450Z 00000KT 7SM SKC 23/20 A2996 RMK SLP143 403110224;EQDQ01+000000PRSWM2N01 00000JPWTH 0QNNE71D0 00000F71 0 00000G71U0 99999K71D0 00068J71 0 00200L71 0 00700N71 0 00000Q71 0 10143S71D0 00073R71 0 00230V71D0 00099U71 0 00099X71 0 00000
0612725115147112000081104596+40196-076772SOD  +0095KMDT V020999999999999999999999999999+99999+99999999999ADDAA124000096AJ100009599999999AL12400095AN1024000095GJ106305GK10755KA1240M+03115KA2240N+02225OE11249999999999997OE22240089430099995REMSOD45224 HR PRECIPITATION (IN): 0.00 SNOW DEPTH (IN):  0   24 HR SNOWFALL (IN): 0.0 TOTAL SUNSHINE (MINUTES): 630 PERCENT POSSIBLE SUNSHINE: 75 24 HR MAX TEMP (F): 8824 HR MIN TEMP (F): 72 FASTEST 2MIN SPEED (MPH): 20FASTEST 2MIN DIR (DEG):300 FASTEST 2MIN TIME (LST):     24 HR AVG TEMP (F): 80HOURLY INCREMENTAL PRECIPITATION VALUES (IN):.00  .00  .00  .00  .00  .00  .00  .00  .00  .00  .00  .00  .00  .00  .00  .00  .00  .00  .00  .00  .00  .00  .00  .00EQDR01  0.007AAP092
032272511514711200008111850C+40200-076767FM-15+0092MDT  V0203205N004152200059N0192005N1+03005+01805101245ADDAA101000095GD12995+0150019GF103995999999999999999999MA1101251999999MW1001REMMET056KMDT 111850Z 32008KT 12SM SCT055 30/18 A2990 RMK SLP124;EQDQ01+000000PRSWM2N01 00000JPWTH 0QNNE71D0 00299F71 0 00299G71U0 99999K71D0 00064J71 0 00180L71 0 01200N71 0 00000Q71 0 10124S71D0 00086R71 0 00300V71D0 00499U71 0 00399X71 0 32008
0271725115147112000081304003+40200-076767FM-15+0092MDT  V0209999C000050076259N019200599+01805+01605101545ADDAA101000095GD13995+9999999GF107995999999999999999999GP10060000002000000002000000002000GR100600000900009EQDN01 00000JPWTH 0QNNE71D0 00499F71 0 00499G71 0 00025K71D0 00061J71 0 00160L71 0 01200N71 0 00000Q71 0 10154S71D0 00064R71 0 00180V71D0 00999U71 0 00799X71 0 00000
034172511514711200008140250C+40200-076767FM-15+0092MDT  V0203205N003652200059N0128005N1+01905+01805101555ADDAA101000095GD11995+0180019GF101995999999999999999999MA1101561999999MD1310071+9999MW1001REMMET061KMDT 140250Z 32007KT 8SM FEW065 19/18 A2999 RMK SLP155 53007;EQDQ01+000000PRSWM2N01 00000JPWTH 0QNNE71D0 00299F71 0 00199G71U0 99999K71D0 00064J71 0 00180L71 0 00800N71 0 00000Q71 0 10155S71D0 00066R71 0 00190V71D0 00199U71 0 00199X71 0 32007
032872511514711200008150650C+40200-076767FM-15+0092MDT  V0209999C000052200059N0096005N1+01805+01805101855ADDAA101000095GF100995999999999999999999MA1101861999999MW1101MW2455REMMET055KMDT 150650Z 00000KT 6SM BR SKC 18/18 A3008 RMK SLP185;EQDQ01+000003PRSWM1Q02    003PRSWM1N01 00070JPWTH 0QNNE71D0 00000F71 0 00000G71U0 99999K71D0 00064J71 0 00180L71 0 00600N71 0 00070Q71 0 10185S71D0 00064R71 0 00180V71D0 00099U71 0 00099X71 0 00000
034072511514711200008161350C+40200-076767FM-15+0092MDT  V0203305N004650121959N0096005N1+02805+01805101435ADDAA101000095GD13995+0120019GF105995999999999999999999MA1101461999999MW1055REMMET058KMDT 161350Z 33009KT 6SM HZ BKN040 28/18 A2996 RMK SLP143;EQDQ01+000003PRSWM1Q02    003PRSWM1N01 00081JPWTH 0QNNE71D0 00499F71 0 00499G71 0 00040K71D0 00064J71 0 00180L71 0 00600N71 0 00081Q71 0 10143S71D0 00082R71 0 00280V71D0 00699U71 0 00599X71 0 33009
032272511514711200008171050C+40200-076767FM-15+0092MDT  V0203005N002652200059N0240005N1+01605+01105101885ADDAA101000095GD11995+0600019GF101995999999999999999999MA1101901999999MW1001REMMET056KMDT 171050Z 30005KT 15SM FEW200 16/11 A3009 RMK SLP188;EQDQ01+000000PRSWM2N01 00000JPWTH 0QNNE71D0 00299F71 0 00199G71U0 99999K71D0 00052J71 0 00110L71 0 01500N71 0 00000Q71 0 10188S71D0 00061R71 0 00160V71D0 00199U71 0 00199X71 0 30005
032272511514711200008180350C+40200-076767FM-15+0092MDT  V0209999C000050274359N0192005N1+01805+01305101795ADDAA101000095GD14995+0270019GF108995999999999999999999MA1101801999999MW1001REMMET056KMDT 180350Z 00000KT 12SM OVC090 18/13 A3006 RMK SLP179;EQDQ01+000000PRSWM2N01 00000JPWTH 0QNNE71D0 00699F71 0 00699G71 0 00090K71D0 00055J71 0 00130L71 0 01200N71 0 00000Q71 0 10179S71D0 00064R71 0 00180V71D0 01099U71 0 00899X71 0 00000
0207725115147112000081923454+40190-076770FM-15+0094KMDT V0202601N002612200019N0241401N1+02101+01401102001ADDGD12991+0210019GF104991999999999999999999KA1999M+02661KA2999N+02141MA1102001999999MD1210071+9999MW1001REMMET074KMDT 192345Z 26005KT 15SM SCT075 21/14 A3012 RMK SLP200 10266 20214 52007;EQDQ01+000000PRSWM2
030472511514711200008210050C+40200-076767FM-15+0092MDT  V0200305N002152200059N0240005N1+01705+01105102425ADDAA101000095GF100995999999999999999999MA1102441999999MW1001REMMET053KMDT 210050Z 03004KT 15SM SKC 17/11 A3025 RMK SLP242;EQDQ01+000000PRSWM2N01 00000JPWTH 0QNNE71D0 00000F71 0 00000G71U0 99999K71D0 00052J71 0 00110L71 0 01500N71 0 00000Q71 0 10242S71D0 00063R71 0 00170V71D0 00099U71 0 00099X71 0 03004
0054725115147112000082205009+40200-076767NSRDB+009299999V020999999999999999999999999999+99999+99999999999ADDGP10060000002000000002000000002000GR100600000900009
035672511514711200008231650C+40200-076767FM-15+0092MDT  V0201905N002650152459N0096005N1+02205+01805101955ADDAA101000025GD14995+0150019GF108995999999999999999999MA1101961999999MW1055MW2101MW3615REMMET062KMDT 231650Z 19005KT 6SM -RA BR OVC050 22/18 A3011 RMK SLP195;EQDQ01+000003PRSWM1Q02    003PRSWM1N01 02081JPWTH 0QNNE71D0 00699F71 0 00699G71 0 00050K71D0 00064J71 0 00180L71 0 00600N71 0 02081Q71 0 10195S71D0 00072R71 0 00220V71D0 01099U71 0 00899X71 0 19005
0071725115147112000082913009+40200-076767NSRDB+009299999V020999999999999999999999999999+99999+99999999999ADDGP10060011602008000002015011602008GQ100600684909649GR100600492913409
0054725115147112000083004009+40200-076767NSRDB+009299999V020999999999999999999999999999+99999+99999999999ADDGP10060000002000000002000000002000GR100600000900009
0054725115147112000090903009+40200-076767NSRDB+009299999V020999999999999999999999999999+99999+99999999999ADDGP10060000002000000002000000002000GR100600000900009
034672511514711200009091050C+40200-076767FM-15+0092MDT  V0209999C000052200059N0064005N1+01705+01705102105ADDAA101000095GD11995+0600019GF101995999999999999999999MA1102101999999MW1101MW2455REMMET058KMDT 091050Z 00000KT 4SM BR FEW200 17/17 A3015 RMK SLP210;EQDQ01+000003PRSWM1Q02    003PRSWM1N01 00070JPWTH 0QNNE71D0 00299F71 0 00199G71U0 99999K71D0 00063J71 0 00170L71 0 00400N71 0 00070Q71 0 10210S71D0 00063R71 0 00170V71D0 00199U71 0 00199X71 0 00000
0071725115147112000091120009+40200-076767NSRDB+009299999V020999999999999999999999999999+99999+99999999999ADDGP10060037002008010102015030402008GQ100600489923219GR100600887913499
037372511514711200009130150C+40200-076767FM-15+0092MDT  V0202205N005250182959N0128005N1+02405+02105101325ADDAA101000095GD13995+0180019GD24995+0270019GF108995999999999999999999MA1101321999999MW1001REMMET070KMDT 130150Z 22010KT 190V250 8SM BKN060 OVC090 24/21 A2992 RMK SLP132;EQDQ01+000000PRSWM2N01 00000JPWTH 0QNNE71D0 00499F71 0 00499E71D0 00699F71 0 00699G71 0 00060K71D0 00070J71 0 00210L71 0 00800N71 0 00000Q71 0 10132S71D0 00075R71 0 00240V71D0 01099U71 0 00899X71 0 22010
0071725115147112000091600009+40200-076767NSRDB+009299999V020999999999999999999999999999+99999+99999999999ADDGP10060000002008000002015000002008GQ100600888927289GR100600006903049
0054725115147112000091601009+40200-076767NSRDB+009299999V020999999999999999999999999999+99999+99999999999ADDGP10060000002000000002000000002000GR100600000900009
0071725115147112000091614009+40200-076767NSRDB+009299999V020999999999999999999999999999+99999+99999999999ADDGP10060043102008059802015013902008GQ100600609911429GR100600657913539
0054725115147112000091810009+40200-076767NSRDB+009299999V020999999999999999999999999999+99999+99999999999ADDGP10060000002000000002000000002000GR100600000900009
032272511514711200009181850C+40200-076767FM-15+0092MDT  V0201705N003650457259N0240005N1+02405+01405102065ADDAA101000095GD13995+0450019GF106995999999999999999999MA1102071999999MW1001REMMET056KMDT 181850Z 17007KT 15SM BKN150 24/14 A3014 RMK SLP206;EQDQ01+000000PRSWM2N01 00000JPWTH 0QNNE71D0 00499F71 0 00499G71 0 00150K71D0 00057J71 0 00140L71 0 01500N71 0 00000Q71 0 10206S71D0 00075R71 0 00240V71D0 00899U71 0 00699X71 0 17007
032272511514711200009190650C+40200-076767FM-15+0092MDT  V0201105N002150426759N0192005N1+01605+01405101865ADDAA101000095GD14995+0420019GF108995999999999999999999MA1101861999999MW1001REMMET056KMDT 190650Z 11004KT 12SM OVC140 16/14 A3008 RMK SLP186;EQDQ01+000000PRSWM2N01 00000JPWTH 0QNNE71D0 00699F71 0 00699G71 0 00140K71D0 00057J71 0 00140L71 0 01200N71 0 00000Q71 0 10186S71D0 00061R71 0 00160V71D0 01099U71 0 00899X71 0 11004
0054725115147112000092005009+40200-076767NSRDB+009299999V020999999999999999999999999999+99999+99999999999ADDGP10060000002000000002000000002000GR100600000900009
036672511514711200009200850C+40200-076767FM-15+0092MDT  V0209999C000052200059N0080005N1+01305+01305101495ADDAA101000095GD12995+0600019GF103995999999999999999999MA1101491999999MD1210071+9999MW1101MW2455REMMET064KMDT 200850Z 00000KT 5SM BR SCT200 13/13 A2997 RMK SLP149 52007;EQDQ01+000003PRSWM1Q02    003PRSWM1N01 00070JPWTH 0QNNE71D0 00299F71 0 00299G71U0 99999K71D0 00055J71 0 00130L71 0 00500N71 0 00070Q71 0 10149S71D0 00055R71 0 00130V71D0 00499U71 0 00399X71 0 00000
0054725115147112000092307009+40200-076767NSRDB+009299999V020999999999999999999999999999+99999+99999999999ADDGP10060000002000000002000000002000GR100600000900009
0054725115147112000092506009+40200-076767NSRDB+009299999V020999999999999999999999999999+99999+99999999999ADDGP10060000002000000002000000002000GR100600000900009
0071725115147112000092722009+40200-076767NSRDB+009299999V020999999999999999999999999999+99999+99999999999ADDGP10060018602008044202015006902008GQ100600747925389GR100600358913619
0054725115147112000092808009+40200-076767NSRDB+009299999V020999999999999999999999999999+99999+99999999999ADDGP10060000002000000002000000002000GR100600000900009
0054725115147112000100408009+40200-076767NSRDB+009299999V020999999999999999999999999999+99999+99999999999ADDGP10060000002000000002000000002000GR100600000900009
039472511514711200010041250C+40200-076767FM-15+0092MDT  V0209999C000050182959N0040005N1+01605+01405101795ADDAA101000095GD12995+0120019GD23995+0180019GF107995999999999999999999MA1101801999999MW1101MW2455REMMET069KMDT 041250Z 00000KT 2 1/2SM BR SCT040 BKN060 16/14 A3006 RMK SLP179;EQDQ01+000003PRSWM1Q02    003PRSWM1N01 00070JPWTH 0QNNE71D0 00299F71 0 00299E71D0 00499F71 0 00499G71 0 00060K71D0 00057J71 0 00140L71 0 00250N71 0 00070Q71 0 10179S71D0 00061R71 0 00160V71D0 00999U71 0 00799X71 0 00000
034172511514711200010050250C+40200-076767FM-15+0092MDT  V0200505N002650274359N0112005N1+01905+01605101655ADDAA101000095GD13995+0270019GF105995999999999999999999MA1101661999999MD1210201+9999MW1001REMMET061KMDT 050250Z 05005KT 7SM BKN090 19/16 A3002 RMK SLP165 52020;EQDQ01+000000PRSWM2N01 00000JPWTH 0QNNE71D0 00499F71 0 00499G71 0 00090K71D0 00061J71 0 00160L71 0 00700N71 0 00000Q71 0 10165S71D0 00066R71 0 00190V71D0 00699U71 0 00599X71 0 05005
0158725115147112000100610334+40190-076770FM-16+0094KMDT V0200201N002110006019N0008051N1+01501+01501999999ADDGD14991+0006019GF108991999999999999999999MA1101021999999MW1441REMMET049KMDT 061033Z 02004KT 1/2SM FG OVC002 15/15 A2983;EQDQ01+000003PRSWM1Q02    003PRSWM1
0054725115147112000101300009+40200-076767NSRDB+009299999V020999999999999999999999999999+99999+99999999999ADDGP10060000002000000002000000002000GR100600000900009
037972511514711200010141150C+40200-076767FM-15+0092MDT  V0209999C000052200059N0112005N1+00705+00705102265ADDAA101000095GD11995+0750019GF101995999999999999999999KA1999M+00931KA2999N+00661MA1102271999999MD1310031+9999MW1001REMMET073KMDT 141150Z 00000KT 7SM FEW250 07/07 A3020 RMK SLP226 10093 20066 53003;EQDQ01+000000PRSWM2N01 00000JPWTH 0QNNE71D0 00299F71 0 00199G71U0 99999K71D0 00045J71 0 00070L71 0 00700N71 0 00000Q71 0 10226S71D0 00045R71 0 00070V71D0 00199U71 0 00199X71 0 00000
0054725115147112000101508009+40200-076767NSRDB+009299999V020999999999999999999999999999+99999+99999999999ADDGP10060000002000000002000000002000GR100600000900009
0054725115147112000101701009+40200-076767NSRDB+009299999V020999999999999999999999999999+99999+99999999999ADDGP10060000002000000002000000002000GR100600000900009
0071725115147112000101820009+40200-076767NSRDB+009299999V020999999999999999999999999999+99999+99999999999ADDGP10060014902009000002021014902009GQ100600621922519GR100600645913789
0071725115147112000101821009+40200-076767NSRDB+009299999V020999999999999999999999999999+99999+99999999999ADDGP10060022002009024102021014202009GQ100600710923799GR100600448913789
0277725115147112000102109003+40200-076767FM-15+0092MDT  V0209999C000052200059N008000599+01005+00905102185ADDAA101000095GD10005+9999999GF100995999999999999999999GP10060000002000000002000000002000GR100600000900009MW1455EQDN01 00070JPWTH 0QNNE71D0 00000F71 0 00000G71U0 99999K71D0 00048J71 0 00090L71 0 00500N71 0 00070Q71 0 10218S71D0 00050R71 0 00100V71D0 00099U71 0 00099X71 0 00000
032872511514711200010211050C+40200-076767FM-15+0092MDT  V0209999C000052200059N0048005N1+00805+00805102215ADDAA101000095GF100995999999999999999999MA1102201999999MW1101MW2455REMMET055KMDT 211050Z 00000KT 3SM BR SKC 08/08 A3018 RMK SLP221;EQDQ01+000003PRSWM1Q02    003PRSWM1N01 00070JPWTH 0QNNE71D0 00000F71 0 00000G71U0 99999K71D0 00046J71 0 00080L71 0 00300N71 0 00070Q71 0 10221S71D0 00046R71 0 00080V71D0 00099U71 0 00099X71 0 00000
0054725115147112000102504009+40200-076767NSRDB+009299999V020999999999999999999999999999+99999+99999999999ADDGP10060000002000000002000000002000GR100600000900009
0054725115147112000110623009+40200-076767NSRDB+009299999V020999999999999999999999999999+99999+99999999999ADDGP10060000002000000002000000002000GR100600000900009
030772511514711200011081550C+40200-076767FM-15+0092MDT  V0209999C000050121959N0096005N1+01505+00405101941ADDAA101000095GD13995+0120019GF107991999999999999999999MA1101931999999MW1055REMMET058KMDT 081550Z 00000KT 6SM HZ BKN040 15/04 A3010 RMK SLP194;EQDQ01+000003PRSWM1Q02    003PRSWM1N01 00081JPWTH 0QNNE71D0 00499F71 0 00499G71 0 00040K71D0 00039J71 0 00040L71 0 00600N71 0 00081S71D0 00059R71 0 00150X71 0 00000
034572511514711200011100250C+40200-076767FM-15+0092MDT  V0201005N005750015259N0032005N1+01305+01205100485ADDAA101000395GD14995+0015019GF108991999999999999999999MA1100471999999MD1710301+9999MW1455MW2615REMMET065KMDT 100250Z 10011KT 2SM -RA OVC005 13/13 A2967 RMK SLP048 57030;EQDQ01+000003PRSWM1Q02    003PRSWM1N01 02070JPWTH 0QNNE71D0 00699F71 0 00699G71 0 00005K71D0 00054J71 0 00120L71 0 00200N71 0 02070Q71 0 10048S71D0 00055R71 0 00130X71 0 10011
0071725115147112000111021009+40200-076767NSRDB+009299999V020999999999999999999999999999+99999+99999999999ADDGP10060007202009000002021007202009GQ100600768923319GR100600318913959
0054725115147112000111305009+40200-076767NSRDB+009299999V020999999999999999999999999999+99999+99999999999ADDGP10060000002000000002000000002000GR100600000900009
030072511514711200011130950C+40200-076767FM-15+0092MDT  V0209999C000050048859N0160005N1+00605+00405101865ADDAA101000095GD14995+0048019GF108991999999999999999999MA1101831999999MW1001REMMET056KMDT 130950Z 00000KT 10SM OVC016 06/04 A3007 RMK SLP186;EQDQ01+000000PRSWM2N01 00000JPWTH 0QNNE71D0 00699F71 0 00699G71 0 00016K71D0 00039J71 0 00040L71 0 01000N71 0 00000Q71 0 10186S71D0 00043R71 0 00060X71 0 00000
0071725115147112000111913009+40200-076767NSRDB+009299999V020999999999999999999999999999+99999+99999999999ADDGP10060000002009000002021000002009GQ100600852912069GR100600116914019
0071725115147112000111921009+40200-076767NSRDB+009299999V020999999999999999999999999999+99999+99999999999ADDGP10060008402009003302021007702009GQ100600783923139GR100600283914019
0071725115147112000112016009+40200-076767NSRDB+009299999V020999999999999999999999999999+99999+99999999999ADDGP10060022802009006102021020002009GQ100600632915829GR100600633914029
0054725115147112000112201009+40200-076767NSRDB+009299999V020999999999999999999999999999+99999+99999999999ADDGP10060000002000000002000000002000GR100600000900009
025872511514711200011241050C+40200-076767FM-15+0092MDT  V0209999C000050304859N0240005N1-00701-00901103065ADDAA101000095GD13995+0300019GF107991999999999999999999MA1103011999999MW1001REMMET058KMDT 241050Z 00000KT 15SM BKN100 M07/M09 A3042 RMK SLP306;EQDQ01+000000PRSWM2N01 00000JPWTH 0QNNE71D0 00499F71 0 00499G71 0 00100L71 0 01500N71 0 00000Q71 0 10306X71 0 00000
0071725115147112000112520009+40200-076767NSRDB+009299999V020999999999999999999999999999+99999+99999999999ADDGP10060006902009000002021006902009GQ100600711921839GR100600455914049
034372511514711200011252050C+40200-076767FM-15+0092MDT  V0200805N007250070159N0160005N1+00305-00601102675ADDAA101000095GD13995+0069019GD24995+0105019GF108991999999999999999999MA1102641999999MD1710241+9999MW1001REMMET070KMDT 252050Z 08014KT 10SM BKN023 OVC035 03/M06 A3031 RMK SLP267 57024;EQDQ01+000000PRSWM2N01 00000JPWTH 0QNNE71D0 00499F71 0 00499E71D0 00699F71 0 00699G71 0 00023L71 0 01000N71 0 00000Q71 0 10267S71D0 00037R71 0 00030X71 0 08014
0054725115147112000112707009+40200-076767NSRDB+009299999V020999999999999999999999999999+99999+99999999999ADDGP10060000002000000002000000002000GR100600000900009
0054725115147112000112801009+40200-076767NSRDB+009299999V020999999999999999999999999999+99999+99999999999ADDGP10060000002000000002000000002000GR100600000900009
0071725115147112000112822009+40200-076767NSRDB+009299999V020999999999999999999999999999+99999+99999999999ADDGP10060000702009004102021000602009GQ100600869923859GR100600052909499
0071725115147112000112921009+40200-076767NSRDB+009299999V020999999999999999999999999999+99999+99999999999ADDGP10060003202009000002021003202009GQ100600794922959GR100600258914069
037572511514711200011301450C+40200-076767FM-15+0092MDT  V0203305N009850118959N0240005N1+00605+00005101755ADDAA101000095GD13995+0117019GD23995+0150019GF107991999999999999999999MA1101731999999MD1210421+9999MW1001OC101291REMMET072KMDT 301450Z 33019G25KT 15SM BKN039 BKN055 06/00 A3004 RMK SLP175 52042;EQDQ01+000000PRSWM2N01 00000JPWTH 0QNNE71D0 00499F71 0 00499E71D0 00499F71 0 00499G71 0 00039K71D0 00032J71 0 00000L71 0 01500N71 0 00000Q71 0 10175S71D0 00043R71 0 00060X71 0 33019
0449725115147112000121405003+40200-076767FM-15+0092MDT  V0201105N00415005795MN0160005N1-00225-00445102875ADDAA101000095GD14995+0057959GF108991999999999999999999GP10060000002000000002000000002000GR100600000900009KA1999M-00111KA2999N-00891MA1102815999999MW1001REMMET117KMDT 140456Z 11008KT 10SM OVC019 M02/M04 A3036 RMK AO2 UPB19E52FZRAE19B36E51 PRESFR SLP287 T10221044 410111089 PNO $;EQDQ01+000000PRSWM2N01 00000JPWTH 0QNNAA1D0 06019BA1 0 06019GA1 0 00019KA1D0 00024JA1 0-00044LA1 0 01000CA1 0 03036NA1 0 00000QA1 0 10287SA1D0 00028RA1 0-00022YA1 0 11008
0147725115147112000121607484+40190-076770FM-16+0094KMDT V0209999C000010069019N0128741N1-00201-00301999999ADDGD13991+0069019GF107991999999999999999999MA1103221999999MW1001REMMET054KMDT 160748Z 00000KT 8SM BKN023 M02/M03 A3048 RMK AO2;EQDQ01+000000PRSWM2
0250725115147112000121710484+40190-076770FM-15+0094KMDT V0200901N002110090019N0028161N1+00801+00801999999ADDAA101006991GD12991+0018019GD24991+0090019GF108991999999999999999999MA1099901999999MW1101MW2631REMMET109KMDT 171048Z AUTO 09004KT 1 3/4SM RA BR FEW006 OVC030 08/08 A2950 RMK AO2 LTG DSNT E-S TSB19E47 PRESFR P0027;EQDQ01+000003PRSWM1Q02    003PRSWM1
0378725115147112000122123003+40200-076767FM-15+0092MDT  V0201405N00215018295MN0160005N1-00335-00675102205ADDAA101000095GD13995+0182959GF107991999999999999999999GP10060000002000000002000000002000GR100600000900009MA1102135999999MW1001REMMET072KMDT 212256Z 14004KT 10SM BKN060 M03/M07 A3016 RMK AO2 SLP220 T10331067;EQDQ01+000000PRSWM2N01 00000JPWTH 0QNNAA1D0 04060BA1 0 04060GA1 0 00060KA1D0 00020JA1 0-00067LA1 0 01000CA1 0 03016NA1 0 00000QA1 0 10220SA1D0 00026RA1 0-00033YA1 0 14004
0133725116999992000010106174+40120-076300FM-16+0123KLNS V0200701N00151000151CN0004021N1+99999+99999999999ADDGD15991+0001519GF109991999999000251999999MA1102201999999MW1001MW2451REMMET053KLNS 010617Z 07003KT M1/4SM FG VV002 A3018 RMK AO2 $;
0138725116999992000010222534+40120-076300FM-16+0123KLNS V0201401N003612200019N0096561N1+99999+99999999999ADDGF100991999999999999999999MA1101591999999MW1001MW2051REMMET054KLNS 022153Z 14007KT 6SM HZ CLR A3000 RMK AO2 SLPNO $;EQDQ01+000003PRSWM1
0215725116999992000010403023+40120-076300FM-16+0123KLNS V0201301N002612200019N0048281N1+01801+01101999999ADDGD12991+0300019GF104991999999999999999999GP10060000002000000002000000002000GR100600000900009MA1101521999999MW1051REMMET055KLNS 040302Z 13005KT 3SM HZ SCT100 18/11 A2998 RMK AO2;EQDQ01+000003PRSWM1Q02    003PRSWM1
0209725116999992000010505534+40120-076300FM-16+0123KLNS V0203001N008710111019N0160931N1+99999+99999999999ADDGD14991+0111019GF108991999999999999999999MA1100951999999MD1310301+9999MW1001REMMET102KLNS 050553Z AUTO 30017KT 10SM OVC037 A2981 RMK AO2 PK WND 29027/0515 PRESRR SLPNO 60003 53030 TSNO $;EQDQ01+000000PRSWM2
0071725116999992000010521009+40117-076300NSRDB+012699999V020999999999999999999999999999+99999+99999999999ADDGP10060015802009049502021005502009GQ100600780922619GR100600293914159
0150725116999992000010606534+40120-076300FM-16+0123KLNS V0200901N002612200019N0160931N1+99999+99999999999ADDGF100991999999999999999999MA1103321999999MD1110171+9999MW1001REMMET058KLNS 060553Z 09005KT 10SM CLR A3051 RMK AO2 SLPNO 51017 $;EQDQ01+000000PRSWM2
0071725116999992000010617009+40117-076300NSRDB+012699999V020999999999999999999999999999+99999+99999999999ADDGP10060044502009081002021008102009GQ100600635916959GR100600632914159
0146725116999992000010701534+40120-076300FM-15+0123KLNS V0201001N002112200019N0160931N1-00101-00301999999ADDGF100991999999999999999999MA1102951999999MW1001REMMET068KLNS 070153Z 10004KT 10SM CLR M01/M03 A3040 RMK AO2 SLPNO T10061033;EQDQ01+000000PRSWM2
0204725116999992000010823534+40120-076300FM-15+0123KLNS V0201701N001512200019N0160931N1+00201-00601102451ADDGF100991999999999999999999KA1999M+00391KA2999N+00061MA1102401999999MD1510041+9999MW1001REMMET086KLNS 082353Z 17003KT 10SM CLR 02/M06 A3024 RMK AO2 SLP245 T00171056 10039 20006 55004;EQDQ01+000000PRSWM2
0054725116999992000010900009+40117-076300NSRDB+012699999V020999999999999999999999999999+99999+99999999999ADDGP10060000002000000002000000002000GR100600000900009
0221725116999992000010917534+40120-076300FM-15+0123KLNS V0201301N002110270019N0160931N1+00601+00001101701ADDGD13991+0270019GF107991999999999999999999KA1999M+00611KA2999N-00061MA1101661999999MD1610331+9999MW1001REMMET088KLNS 091753Z 13004KT 10SM BKN095 06/00 A3002 RMK AO2 SLP170 T00610000 10061 21006 56033;EQDQ01+000000PRSWM2
0183725116999992000011014354+40120-076300FM-16+0123KLNS V0200901N005110009019N0016091N1+00601+00601999999ADDGD14991+0009019GF108991999999999999999999MA1100811999999MW1101REMMET074KLNS 101435Z 09010KT 1SM BR OVC003 06/06 A2977 RMK AO2 RAE22 PRESFR P0001;EQDQ01+000003PRSWM1Q02    003PRSWM1
0071725116999992000011315009+40117-076300NSRDB+012699999V020999999999999999999999999999+99999+99999999999ADDGP10060004202009000002021004202009GQ100600725914039GR100600425914149
0071725116999992000011416009+40117-076300NSRDB+012699999V020999999999999999999999999999+99999+99999999999ADDGP10060039402009077102021008102009GQ100600661915359GR100600572914149
0187725116999992000011601534+40120-076300FM-15+0123KLNS V0201301N003610240019N0160931N1-00301-00901103251ADDGD13991+0240019GD24991+0330019GF108991999999999999999999MA1103181999999MW1001REMMET079KLNS 160153Z 13007KT 10SM BKN080 OVC110 M03/M09 A3047 RMK AO2 SLP325 T10281089;EQDQ01+000000PRSWM2
0071725116999992000011616009+40117-076300NSRDB+012699999V020999999999999999999999999999+99999+99999999999ADDGP10060041402009082002021007702009GQ100600659915329GR100600578914149
0158725116999992000011716534+40120-076300FM-15+0123KLNS V0203301N006712200019N0160931N1-01001-02501103161ADDGF100991999999999999999999MA1103081999999MW1001OC101081REMMET072KLNS 171653Z 33013G21KT 10SM CLR M10/M25 A3044 RMK AO2 SLP316 T11001250;EQDQ01+000000PRSWM2
0205725116999992000011811534+40120-076300FM-15+0123KLNS V0202601N002612200019N0160931N1-01501-02001102501ADDGF100991999999999999999999KA1999M-01331KA2999N-01561MA1102401999999MD1610121+9999MW1001REMMET087KLNS 181153Z 26005KT 10SM CLR M15/M20 A3024 RMK AO2 SLP250 T11501200 11133 21156 56012;EQDQ01+000000PRSWM2
0223725116999992000012104534+40120-076300FM-15+0123KLNS V0203201N008710144019N0160931N1-00601-01101100651ADDGD12991+0111019GD23991+0144019GF107991999999999999999999KA1999M-00111KA2999N-00561MA1100611999999MW1001REMMET089KLNS 210453Z 32017KT 10SM FEW037 BKN048 M06/M11 A2971 RMK AO2 SLP065 T10561111 410111056;EQDQ01+000000PRSWM2
0185725116999992000012107534+40120-076300FM-15+0123KLNS V0203001N011312200019N0112651N1-00901-01601100801ADDGF100991999999999999999999MA1100751999999MW1001OC101591REMMET099KLNS 210753Z AUTO 30022G31KT 7SM CLR M09/M16 A2975 RMK AO2 PK WND 29031/0748 SLP080 T10891161 TSNO;EQDQ01+000000PRSWM2
0236725116999992000012204274+40120-076300FM-16+0123KLNS V0202801N004110075019N0064371N1-01101-01301999999ADDGD12991+0051019GD23991+0075019GD34991+0102019GF108991999999999999999999MA1101591999999MW1711REMMET081KLNS 220427Z 28008KT 4SM -SN BR FEW017 BKN025 OVC034 M11/M13 A3000 RMK AO2 P0000;EQDQ01+000100PRSWM3Q02+000003PRSWM1Q03    003PRSWM1
0054725116999992000012207009+40117-076300NSRDB+012699999V020999999999999999999999999999+99999+99999999999ADDGP10060000002000000002000000002000GR100600000900009
0185725116999992000012302534+40120-076300FM-15+0123KLNS V0209999C000010180019N0160931N1-00701-01501102401ADDGD14991+0180019GF108991999999999999999999MA1102341999999MD1110071+9999MW1001REMMET078KLNS 230253Z 00000KT 10SM OVC065 M07/M15 A3022 RMK AO2 SLP240 T10721150 51007;EQDQ01+000000PRSWM2
0054725116999992000012400009+40117-076300NSRDB+012699999V020999999999999999999999999999+99999+99999999999ADDGP10060000002000000002000000002000GR100600000900009
0147725116999992000012821534+40120-076300FM-15+0123KLNS V0202901N004612200019N0160931N1-00601-02001103081ADDGF100991999999999999999999MA1103011999999MW1001REMMET069KLNS 282153Z 29009KT 10SM CLR M06/M20 A3042 RMK AO2 SLP308 T10561200;EQDQ01+000000PRSWM2
0282725116999992000013023013+40120-076300FM-16+0123KLNS V0200501N004110054019N0016091N1-00401-00401999999ADDGD12991+0012019GD24991+0054019GF108991999999999999999999GP10060000002009000002021000002009GQ100600885924569GR100600012904589MA1101931999999MW1711REMMET074KLNS 302301Z 05008KT 1SM -SN BR FEW004 OVC018 M04/M04 A3010 RMK AO2 P0000;EQDQ01+000100PRSWM3Q02+000003PRSWM1Q03    003PRSWM1
0164725116999992000020109534+40120-076300FM-15+0123KLNS V0202501N002612200019N0160931N1-00801-01201101261ADDGF100991999999999999999999MA1101221999999MW1001REMMET086KLNS 010953Z AUTO 25005KT 10SM CLR M08/M12 A2989 RMK AO2 SLP126 T10831122 FZRANO TSNO;EQDQ01+000000PRSWM2
0071725116999992000020216009+40117-076300NSRDB+012699999V020999999999999999999999999999+99999+99999999999ADDGP10060046902009061602021018302009GQ100600625915059GR100600651914089
0196725116999992000020319354+40120-076300FM-16+0123KLNS V0201001N004610039019N0020111N1-00301-00601999999ADDGD14991+0039019GF108991999999999999999999MA1101021999999MW1711REMMET071KLNS 031935Z 10009KT 1 1/4SM -SN BR OVC013 M03/M06 A2983 RMK AO2 P0000;EQDQ01+000100PRSWM3Q02+000003PRSWM1Q03    003PRSWM1
0214725116999992000020411124+40120-076300FM-16+0123KLNS V0200801N002110147019N0040231N1-00401-00601999999ADDGD12991+0063019GD22991+0081019GD34991+0147019GF108991999999999999999999MA1100911999999MW1101REMMET075KLNS 041112Z 08004KT 2 1/2SM BR FEW021 SCT027 OVC049 M04/M06 A2980 RMK AO2;EQDQ01+000003PRSWM1Q02    003PRSWM1
0263725116999992000020414003+40120-076300FM-15+0123KLNS V0200401N002110042019N0012071N1-00301-00401999999ADDAA101000021GD14991+0042019GF108991999999999999999999GP10060013302009014802021010002009GQ100600775912439GR100600304914089MA1101051999999MW1101MW2711REMMET069KLNS 041400Z 04004KT 3/4SM -SN BR OVC014 M03/M04 A2984 RMK AO2 P0000;EQDQ01+000003PRSWM1Q02    003PRSWM1
0054725116999992000020600009+40117-076300NSRDB+012699999V020999999999999999999999999999+99999+99999999999ADDGP10060000002000000002000000002000GR100600000900009
0054725116999992000020801009+40117-076300NSRDB+012699999V020999999999999999999999999999+99999+99999999999ADDGP10060000002000000002000000002000GR100600000900009
0241725116999992000021114534+40120-076300FM-15+0123KLNS V0209999C000010099019N0032181N1+00301+00101100651ADDAA101000021AA203000891GD13991+0099019GF107991999999999999999999MA1100641999999MD1510021+9999MW1101REMMET096KLNS 111453Z 00000KT 2SM BR BKN033 03/01 A2972 RMK AO2 RAE03 SLP065 P0000 60003 T00280011 55002;EQDQ01+000003PRSWM1Q02    003PRSWM1
0194725116999992000021402124+40120-076300FM-16+0123KLNS V0200901N00311000601CN0028161N1-00101-00101999999ADDGD14991+0012019GF108991999999999999999999MA1101521999999MW1101REMMET085KLNS 140212Z 09006KT 1 3/4SM BR OVC004 M01/M01 A2998 RMK AO2 UPE10 CIG 002V007 P0001;EQDQ01+000003PRSWM1Q02    003PRSWM1
0250725116999992000021511534+40120-076300FM-15+0123KLNS V0202901N005710108019N0160931N1-00101-00601101861ADDAA124000891GD14991+0108019GF108991999999999999999999KA1999M+00061KA2999N-00061MA1101831999999MD1310431+9999MW1001REMMET106KLNS 151153Z AUTO 29011KT 10SM OVC036 M01/M06 A3007 RMK AO2 SLP186 70003 T10061056 10006 21006 53043 TSNO;EQDQ01+000000PRSWM2
0054725116999992000021603009+40117-076300NSRDB+012699999V020999999999999999999999999999+99999+99999999999ADDGP10060000002000000002000000002000GR100600000900009
0146725116999992000021603534+40120-076300FM-15+0123KLNS V0200801N002112200019N0144841N1-00401-00701102231ADDGF100991999999999999999999MA1102201999999MW1001REMMET068KLNS 160353Z 08004KT 9SM CLR M04/M07 A3018 RMK AO2 SLP223 T10391067;EQDQ01+000000PRSWM2
0071725116999992000021614009+40117-076300NSRDB+012699999V020999999999999999999999999999+99999+99999999999ADDGP10060021702009043002021010302009GQ100600747912169GR100600370914019
0071725116999992000021621009+40117-076300NSRDB+012699999V020999999999999999999999999999+99999+99999999999ADDGP10060020702009012802021016002009GQ100600686923089GR100600511914019
0253725116999992000021902023+40120-076300FM-16+0123KLNS V0200401N003110003019N0016091N1-00101-00101999999ADDGD14991+0003019GF108991999999999999999999GP10060000002000000002000000002000GR100600000900009MA1101391999999MW1661REMMET077KLNS 190202Z 04006KT 1SM -FZRA BR OVC001 M01/M01 A2994 RMK AO2 FZRAB02 P0000;EQDQ01+000100PRSWM3Q02+000003PRSWM1Q03    003PRSWM1
0177725116999992000022108534+40120-076300FM-15+0123KLNS V0203001N005112200019N0160931N1-00201-00801102861ADDGF100991999999999999999999MA1102811999999MD1110111+9999MW1001REMMET085KLNS 210853Z AUTO 30010KT 10SM CLR M02/M08 A3036 RMK AO2 SLP286 T10221078 51011 TSNO;EQDQ01+000000PRSWM2
0145725116999992000022301534+40120-076300FM-15+0123KLNS V0200801N002112200019N0128741N1+00201-00301103341ADDGF100991999999999999999999MA1103321999999MW1001REMMET067KLNS 230153Z 08004KT 8SM CLR 02/M03 A3051 RMK AO2 SLP334 T00221028;EQDQ01+000000PRSWM2
0071725116999992000022421009+40117-076300NSRDB+012699999V020999999999999999999999999999+99999+99999999999ADDGP10060037502009073402021008102009GQ100600665923299GR100600557913969
0054725116999992000022508009+40117-076300NSRDB+012699999V020999999999999999999999999999+99999+99999999999ADDGP10060000002000000002000000002000GR100600000900009
0071725116999992000022913009+40117-076300NSRDB+012699999V020999999999999999999999999999+99999+99999999999ADDGP10060012202009035002021006902009GQ100600814910789GR100600209913939
0174725116999992000030207534+40120-076300FM-15+0123KLNS V0203101N004612200019N0160931N1+00601-00201100981ADDGD12991+0150019GF102991999999999999999999MA1100981999999MW1001REMMET081KLNS 020753Z AUTO 31009KT 10SM FEW055 06/M02 A2982 RMK AO2 SLP098 T00561017 TSNO;EQDQ01+000000PRSWM2
0174725116999992000030209534+40120-076300FM-15+0123KLNS V0202301N002110150019N0160931N1+00501-00101100941ADDGD14991+0150019GF108991999999999999999999MA1100951999999MW1001REMMET081KLNS 020953Z AUTO 23004KT 10SM OVC055 05/M01 A2981 RMK AO2 SLP094 T00501011 TSNO;EQDQ01+000000PRSWM2
0174725116999992000030310534+40120-076300FM-15+0123KLNS V0202901N005710117019N0160931N1+00101-00601101311ADDGD13991+0117019GF107991999999999999999999MA1101291999999MW1001REMMET081KLNS 031053Z AUTO 29011KT 10SM BKN039 01/M06 A2991 RMK AO2 SLP131 T00111056 TSNO;EQDQ01+000000PRSWM2
0054725116999992000030406009+40117-076300NSRDB+012699999V020999999999999999999999999999+99999+99999999999ADDGP10060000002000000002000000002000GR100600000900009
0054725116999992000030504009+40117-076300NSRDB+012699999V020999999999999999999999999999+99999+99999999999ADDGP10060000002000000002000000002000GR100600000900009
0071725116999992000030512009+40117-076300NSRDB+012699999V020999999999999999999999999999+99999+99999999999ADDGP10060000002009000002021000002009GQ100600877909939GR100600024906149
0071725116999992000030519009+40117-076300NSRDB+012699999V020999999999999999999999999999+99999+99999999999ADDGP10060067802009083602021012802009GQ100600490920459GR100600912913899
0071725116999992000031022009+40117-076300NSRDB+012699999V020999999999999999999999999999+99999+99999999999ADDGP10060025202009047602021011002009GQ100600727924949GR100600411913869
0245725116999992000031117374+40120-076300FM-16+0123KLNS V0200701N006710039019N0028161N1+00601+00601999999ADDGD12991+0015019GD23991+0039019GD34991+0054019GF108991999999999999999999MA1101291999999MW1651REMMET090KLNS 111737Z 07013KT 1 3/4SM +RA BR FEW005 BKN013 OVC018 06/06 A2991 RMK AO2 PRESFR P0022;EQDQ01+000100PRSWM3Q02+000003PRSWM1Q03    003PRSWM1
0071725116999992000031316009+40117-076300NSRDB+012699999V020999999999999999999999999999+99999+99999999999ADDGP10060067202009081702021013502009GQ100600491914459GR100600905913839
0145725116999992000031607534+40120-076300FM-15+0123KLNS V0200701N001512200019N0160931N1+00601+00201101851ADDGF100991999999999999999999MA1101861999999MW1001REMMET067KLNS 160753Z 07003KT 10SM CLR 06/02 A3008 RMK AO2 SLP185 T00560022;EQDQ01+000000PRSWM2
0241725116999992000031709534+40120-076300FM-15+0123KLNS V0203401N005710066019N0112651N1+00601+00501100641ADDAA101002091GD12991+0033019GD24991+0066019GF108991999999999999999999MA1100641999999MW1631OC100981REMMET098KLNS 170953Z AUTO 34011G19KT 7SM RA SCT011 OVC022 06/05 A2972 RMK AO2 SLP064 P0008 T00610050 TSNO;EQDQ01+000003PRSWM1Q02    003PRSWM1
0173725116999992000031813534+40120-076300FM-15+0123KLNS V0200601N004112200019N0160931N1-00301-01401103821ADDAA101000021GF100991999999999999999999MA1103761999999MW1001REMMET084KLNS 181353Z 06008KT 10SM CLR M03/M14 A3064 RMK AO2 UPB13E17 SLP382 P0000 T10281144;EQDQ01+000000PRSWM2
0054725116999992000032010009+40117-076300NSRDB+012699999V020999999999999999999999999999+99999+99999999999ADDGP10060000002000000002000000002000GR100600000900009
0071725116999992000032015009+40117-076300NSRDB+012699999V020999999999999999999999999999+99999+99999999999ADDGP10060032402008007902015027802008GQ100600545912699GR100600799913789
0317725116999992000032117534+40120-076300FM-15+0123KLNS V0200601N00261001501CN0032181N1+00301+00301102801ADDAA101005891AA206011991GD13991+0027019GD24991+0039019GF108991999999999999999999KA1999M+00391KA2999N+00331MA1102781999999MD1310061+9999MW1101MW2651REMMET125KLNS 211753Z 06005KT 2SM +RA BR BKN009 OVC013 03/03 A3035 RMK AO2 CIG 005V011 SLP280 P0023 60047 T00330028 10039 20033 53006;EQDQ01+000003PRSWM1Q02    003PRSWM1
0259725116999992000032214003+40120-076300FM-15+0123KLNS V0200301N005110015019N0032181N1+00301+00301999999ADDAA101000021GD14991+0015019GF108991999999999999999999GP10060015802008000002015015802008GQ100600637911339GR100600609913769MA1102881999999MW1101MW2611REMMET065KLNS 221400Z 03010KT 2SM -RA BR OVC005 03/03 A3038 RMK AO2 P0000;EQDQ01+000003PRSWM1Q02    003PRSWM1
0266725116999992000032605534+40120-076300FM-15+0123KLNS V0202901N002112200019N0096561N1+01201+01001100711ADDAA106000391GD12991+0210019GF102991999999999999999999KA1999M+01441KA2999N+01111MA1100711999999MD1310051+9999MW1101REMMET106KLNS 260553Z AUTO 29004KT 6SM BR FEW075 12/10 A2974 RMK AO2 SLP071 60001 T01220100 10144 20111 53005 TSNO;EQDQ01+000003PRSWM1Q02    003PRSWM1
0071725116999992000032919009+40117-076300NSRDB+012699999V020999999999999999999999999999+99999+99999999999ADDGP10060012902008000002015012902008GQ100600408921159GR100601037913719
0071725116999992000033012009+40117-076300NSRDB+012699999V020999999999999999999999999999+99999+99999999999ADDGP10060007502008009502015006402008GQ100600834909029GR100600158913709
0176725116999992000033108534+40120-076300FM-15+0123KLNS V0202901N003112200019N0160931N1+00001-00401101761ADDGF100991999999999999999999MA1101731999999MD1310051+9999MW1001REMMET084KLNS 310853Z AUTO 29006KT 10SM CLR 00/M04 A3004 RMK AO2 SLP176 T00001044 53005 TSNO;EQDQ01+000000PRSWM2
0192725116999992000040513534+40120-076300FM-15+0123KLNS V0202701N008212200019N0160931N1+00401-00601101041ADDGD12991+0150019GF104991999999999999999999MA1101021999999MW1001REMMET099KLNS 051353Z AUTO 27016KT 10SM SCT050 04/M06 A2983 RMK AO2 PK WND 29028/1330 SLP104 T00441061 TSNO;EQDQ01+000000PRSWM2
0071725116999992000040516009+40117-076300NSRDB+012699999V020999999999999999999999999999+99999+99999999999ADDGP10060031102008003002015028802008GQ100600404914079GR100601039913659
0202725116999992000040920534+40120-076300FM-15+0123KLNS V0202901N014412200019N0160931N1+00901-00501100771ADDGD12991+0210019GF104991999999999999999999MA1100751999999MD1310091+9999MW1001REMMET095KLNS 092053Z 29028KT 10SM SCT075 09/M05 A2975 RMK AO2 PK WND 27036/2003 SLP077 T00941050 53009;EQDQ01+000000PRSWM2
0146725116999992000041022534+40120-076300FM-15+0123KLNS V0202801N004112200019N0160931N1+01101-00301102251ADDGF100991999999999999999999MA1102241999999MW1001REMMET068KLNS 102253Z 28008KT 10SM CLR 11/M03 A3019 RMK AO2 SLP225 T01111028;EQDQ01+000000PRSWM2
0203725116999992000041206534+40120-076300FM-15+0123KLNS V0203201N002610018019N0064371N1+00701+00601101771ADDGD13991+0018019GD24991+0114019GF108991999999999999999999MA1101761999999MW1101REMMET079KLNS 120653Z 32005KT 4SM BR BKN006 OVC038 07/06 A3005 RMK AO2 SLP177 T00720061;EQDQ01+000003PRSWM1Q02    003PRSWM1
0193725116999992000041211214+40120-076300FM-16+0123KLNS V0202601N002610072019N0032181N1+00601+00601999999ADDGD13991+0072019GD23991+0102019GF107991999999999999999999MA1102171999999MW1101REMMET069KLNS 121121Z 26005KT 2SM BR BKN024 BKN034 06/06 A3017 RMK AO2 PRESRR;EQDQ01+000003PRSWM1Q02    003PRSWM1
0054725116999992000041401009+40117-076300NSRDB+012699999V020999999999999999999999999999+99999+99999999999ADDGP10060000002000000002000000002000GR100600000900009
0054725116999992000041506009+40117-076300NSRDB+012699999V020999999999999999999999999999+99999+99999999999ADDGP10060000002000000002000000002000GR100600000900009
0163725116999992000041616534+40120-076300FM-15+0123KLNS V02099999999992200019N0080461N1+02201+01601101411ADDGF100991999999999999999999MA1101421999999MW1051REMMET069KLNS 161653Z VRB04KT 5SM HZ CLR 22/16 A2995 RMK AO2 SLP141 T02170161;EQDQ01+000003PRSWM1Q02    003PRSWM1
0071725116999992000041711009+40117-076300NSRDB+012699999V020999999999999999999999999999+99999+99999999999ADDGP10060000102008000102015000102008GQ100600870907839GR100600041907799
0071725116999992000041722009+40117-076300NSRDB+012699999V020999999999999999999999999999+99999+99999999999ADDGP10060007902008000002015007902008GQ100600650926309GR100600572913559
0054725116999992000041802009+40117-076300NSRDB+012699999V020999999999999999999999999999+99999+99999999999ADDGP10060000002000000002000000002000GR100600000900009
0156725116999992000043022534+40120-076300FM-15+0123KLNS V0203601N004612200019N0160931N1+01701-00601101861ADDGF100991999999999999999999MA1101861999999MW1001REMMET078KLNS 302253Z AUTO 36009KT 10SM CLR 17/M06 A3008 RMK AO2 SLP186 T01721056 TSNO;EQDQ01+000000PRSWM2
0156725116999992000050103534+40120-076300FM-15+0123KLNS V0209999C000012200019N0160931N1+00701-00101102101ADDGF100991999999999999999999MA1102101999999MW1001REMMET078KLNS 010353Z AUTO 00000KT 10SM CLR 07/M01 A3015 RMK AO2 SLP210 T00671006 TSNO;EQDQ01+000000PRSWM2
0203725116999992000050317534+40120-076300FM-15+0123KLNS V0201401N003112200019N0160931N1+02001+00601102551ADDGF100991999999999999999999KA1999M+02001KA2999N+01001MA1102541999999MD1810151+9999MW1001REMMET085KLNS 031753Z 14006KT 10SM CLR 20/06 A3028 RMK AO2 SLP255 T02000056 10200 20100 58015;EQDQ01+000000PRSWM2
0071725116999992000050717009+40117-076300NSRDB+012699999V020999999999999999999999999999+99999+99999999999ADDGP10060091002008074502015022902008GQ100600243916159GR100601222913419
0054725116999992000050806009+40117-076300NSRDB+012699999V020999999999999999999999999999+99999+99999999999ADDGP10060000002000000002000000002000GR100600000900009
0203725116999992000050823534+40120-076300FM-15+0123KLNS V0202201N003112200019N0160931N1+02801+01601100781ADDGF100991999999999999999999KA1999M+03171KA2999N+02781MA1100811999999MD1610091+9999MW1001REMMET085KLNS 082353Z 22006KT 10SM CLR 28/16 A2977 RMK AO2 SLP078 T02780156 10317 20278 56009;EQDQ01+000000PRSWM2
0054725116999992000051208009+40117-076300NSRDB+012699999V020999999999999999999999999999+99999+99999999999ADDGP10060000002000000002000000002000GR100600000900009
0163725116999992000051219534+40120-076300FM-15+0123KLNS V0201101N003112200019N0096561N1+02701+01801100571ADDGF100991999999999999999999MA1100611999999MW1051REMMET069KLNS 121953Z 11006KT 6SM HZ CLR 27/18 A2971 RMK AO2 SLP057 T02720178;EQDQ01+000003PRSWM1Q02    003PRSWM1
0054725116999992000051407009+40117-076300NSRDB+012699999V020999999999999999999999999999+99999+99999999999ADDGP10060000002000000002000000002000GR100600000900009
0171725116999992000051413534+40120-076300FM-15+0123KLNS V0203101N003612200019N0160931N1+01601+00701101641ADDGD12991+0123019GF102991999999999999999999MA1101661999999MW1001REMMET078KLNS 141353Z 31007KT 270V330 10SM FEW041 16/07 A3002 RMK AO2 SLP164 T01610072;EQDQ01+000000PRSWM2
0225725116999992000052019093+40120-076300FM-16+0123KLNS V0200601N00411002101CN0144841N1+01101+00901999999ADDGD14991+0027019GF108991999999999999999999GP10060015902008000002015015902008GQ100600276922949GR100601181913349MA1101861999999MW1001REMMET064KLNS 201909Z 06008KT 9SM OVC009 11/09 A3008 RMK AO2 CIG 007V011;EQDQ01+000000PRSWM2
0268725116999992000052117534+40120-076300FM-15+0123KLNS V0209999C00001002401CN0096561N1+01401+01201101711ADDAA106003091GD14991+0027019GF108991999999999999999999KA1999M+01391KA2999N+01111MA1101731999999MD1610071+9999MW1101REMMET108KLNS 211753Z 00000KT 6SM BR OVC009 14/12 A3004 RMK AO2 CIG 008V013 SLP171 60012 T01390117 10139 20111 56007;EQDQ01+000003PRSWM1Q02    003PRSWM1
0071725116999992000052322009+40117-076300NSRDB+012699999V020999999999999999999999999999+99999+99999999999ADDGP10060007002008000002015007002008GQ100600595927239GR100600676913329
0183725116999992000052510534+40120-076300FM-15+0123KLNS V0202701N00211000151CN0004021N1+01301+01301100091ADDGD15991+0001519GF109991999999000251999999MA1100101999999MW1451REMMET074KLNS 251053Z 27004KT M1/4SM FG VV001 13/13 A2956 RMK AO2 SLP009 T01280128;EQDQ01+000003PRSWM1Q02    003PRSWM1
0145725116999992000052601534+40120-076300FM-15+0123KLNS V0202701N003112200019N0160931N1+01701+00701100791ADDGF100991999999999999999999MA1100811999999MW1001REMMET067KLNS 260153Z 27006KT 10SM CLR 17/07 A2977 RMK AO2 SLP079 T01670072;EQDQ01+000000PRSWM2
0071725116999992000052912009+40117-076300NSRDB+012699999V020999999999999999999999999999+99999+99999999999ADDGP10060018702008010902015015202008GQ100600711907719GR100600430913299
0171725116999992000060116534+40120-076300FM-15+0123KLNS V0203101N004112200019N0080461N1+02801+02101101771ADDGF100991999999999999999999MA1101801999999MW1051REMMET077KLNS 011653Z 31008KT 270V330 5SM HZ CLR 28/21 A3006 RMK AO2 SLP177 T02830206;EQDQ01+000003PRSWM1Q02    003PRSWM1
0071725116999992000060616009+40117-076300NSRDB+012699999V020999999999999999999999999999+99999+99999999999ADDGP10060017302008000002015017302008GQ100600265912479GR100601186913269
0202725116999992000060702534+40120-076300FM-15+0123KLNS V0203101N006210111019N0160931N1+01201+00901101321ADDAA103000021GD14991+0111019GF108991999999999999999999MA1101321999999MD1110151+9999MW1001REMMET084KLNS 070253Z 31012KT 10SM OVC037 12/09 A2992 RMK AO2 SLP132 60000 T01220094 51015 $;EQDQ01+000000PRSWM2
0145725116999992000060906534+40120-076300FM-15+0123KLNS V0209999C000012200019N0160931N1+01701+01401101701ADDGF100991999999999999999999MA1101731999999MW1001REMMET067KLNS 090653Z 00000KT 10SM CLR 17/14 A3004 RMK AO2 SLP170 T01720139;EQDQ01+000000PRSWM2
0163725116999992000061012534+40120-076300FM-15+0123KLNS V0209999C000012200019N0064371N1+02401+01901102031ADDGF100991999999999999999999MA1102071999999MW1051REMMET069KLNS 101253Z 00000KT 4SM HZ CLR 24/19 A3014 RMK AO2 SLP203 T02390189;EQDQ01+000003PRSWM1Q02    003PRSWM1
0250725116999992000061223194+40120-076300FM-16+0123KLNS V0202601N005110069019N0080461N1+02301+02201999999ADDGD13991+0069019GD23991+0111019GD34991+0180019GF108991999999999999999999MA1101801999999MW1811MW2951REMMET105KLNS 122319Z 26010KT 5SM TSRA BR BKN023 BKN037 OVC060 23/22 A3006 RMK AO2 LTG DSNT NW TSB15RAB2255 PNO $;EQDQ01+000100PRSWM4Q02+000003PRSWM1
0267725116999992000061404534+40110-076300FM-15+0123KLNS V0201301N004110015019N0048281N1+01601+01501102051ADDAA101000391GD13991+0015019GD24991+0036019GF108991999999999999999999KA1999M+01721KA2999N+01441MA1102071999999MW1101REMMET106KLNS 140453Z AUTO 13008KT 3SM BR BKN005 OVC012 16/15 A3014 RMK AO2 RAE27 SLP205 P0001 T01560150 401720144;EQDQ01+000003PRSWM1Q02    003PRSWM1
0209725116999992000061510534+40110-076300FM-15+0123KLNS V0201001N003110003019N0008051N1+01601+01601101691ADDAA101000021GD14991+0003019GF108991999999999999999999MA1101691999999MW1441REMMET089KLNS 151053Z 10006KT 1/2SM FG OVC001 16/16 A3003 RMK AO2 RAB35E52 SLP169 P0000 T01560156;EQDQ01+000003PRSWM1Q02    003PRSWM1
0054725116999992000061709009+40117-076300NSRDB+012699999V020999999999999999999999999999+99999+99999999999ADDGP10060000002000000002000000002000GR100600000900009
0071725116999992000061820009+40117-076300NSRDB+012699999V020999999999999999999999999999+99999+99999999999ADDGP10060027202008001802015025702008GQ100600345925179GR100601089913239
0185725116999992000061912534+40110-076300FM-15+0123KLNS V0203301N002610042019N0160931N1+01601+01301102191ADDGD13991+0042019GD24991+0270019GF108991999999999999999999MA1102201999999MW1001REMMET077KLNS 191253Z 33005KT 10SM BKN014 OVC095 16/13 A3018 RMK AO2 SLP219 T01560128;EQDQ01+000000PRSWM2
0232725116999992000062317534+40110-076300FM-15+0123KLNS V0203201N004612200019N0160931N1+02601+01401101581ADDGD12991+0150019GF104991999999999999999999KA1999M+02671KA2999N+02111MA1101631999999MD1310141+9999MW1001OC100821REMMET091KLNS 231753Z 32009G16KT 10SM SCT055 26/14 A3001 RMK AO2 SLP158 T02610144 10267 20211 53014;EQDQ01+000000PRSWM2
0071725116999992000062319009+40117-076300NSRDB+012699999V020999999999999999999999999999+99999+99999999999ADDGP10060085402008059802015030802008GQ100600242923179GR100601204913229
0054725116999992000062405009+40117-076300NSRDB+012699999V020999999999999999999999999999+99999+99999999999ADDGP10060000002000000002000000002000GR100600000900009
0186725116999992000062615444+40110-076300FM-16+0123KLNS V0209999C000012200019N0096561N1+02701+02201999999ADDGD12991+0069019GD22991+0081019GF104991999999999999999999MA1101521999999MW1051REMMET062KLNS 261544Z 00000KT 6SM HZ SCT023 SCT027 27/22 A2998 RMK AO2;EQDQ01+000003PRSWM1Q02    003PRSWM1
0054725116999992000062807009+40117-076300NSRDB+012699999V020999999999999999999999999999+99999+99999999999ADDGP10060000002000000002000000002000GR100600000900009
0071725116999992000062915009+40117-076300NSRDB+012699999V020999999999999999999999999999+99999+99999999999ADDGP10060023302008000602015022802008GQ100600374910509GR100601048913219
0071725116999992000063000009+40117-076300NSRDB+012699999V020999999999999999999999999999+99999+99999999999ADDGP10060011202008018202015007802008GQ100600790929129GR100600251913219
0203725116999992000063023534+40110-076300FM-15+0123KLNS V0202701N002112200019N0160931N1+02301+01201101491ADDGF100991999999999999999999KA1999M+02501KA2999N+02281MA1101521999999MD1310081+9999MW1001REMMET085KLNS 302353Z 27004KT 10SM CLR 23/12 A2998 RMK AO2 SLP149 T02280117 10250 20228 53008;EQDQ01+000000PRSWM2
0071725116999992000070216009+40117-076300NSRDB+012699999V020999999999999999999999999999+99999+99999999999ADDGP10060085802008075302015018702008GQ100600271912239GR100601174913219
0054725116999992000070306009+40117-076300NSRDB+012699999V020999999999999999999999999999+99999+99999999999ADDGP10060000002000000002000000002000GR100600000900009
0054725116999992000070404009+40117-076300NSRDB+012699999V020999999999999999999999999999+99999+99999999999ADDGP10060000002000000002000000002000GR100600000900009
0145725116999992000070513534+40110-076300FM-15+0123KLNS V0203401N004112200019N0160931N1+02401+01701101291ADDGF100991999999999999999999MA1101321999999MW1001REMMET067KLNS 051353Z 34008KT 10SM CLR 24/17 A2992 RMK AO2 SLP129 T02390167;EQDQ01+000000PRSWM2
0071725116999992000070616009+40117-076300NSRDB+012699999V020999999999999999999999999999+99999+99999999999ADDGP10060085202008072302015021002008GQ100600275912269GR100601170913219
0054725116999992000070705009+40117-076300NSRDB+012699999V020999999999999999999999999999+99999+99999999999ADDGP10060000002000000002000000002000GR100600000900009
0203725116999992000070817534+40110-076300FM-15+0123KLNS V02099999999992200019N0160931N1+02401+00901102131ADDGF100991999999999999999999KA1999M+02441KA2999N+01441MA1102131999999MD1610181+9999MW1001REMMET085KLNS 081753Z VRB05KT 10SM CLR 24/09 A3016 RMK AO2 SLP213 T02440089 10244 20144 56018;EQDQ01+000000PRSWM2
0071725116999992000071517009+40117-076300NSRDB+012699999V020999999999999999999999999999+99999+99999999999ADDGP10060022502008000602015021902008GQ100600209915259GR100601234913229
0197725116999992000071713534+40110-076300FM-15+0123KLNS V0203201N00151001201CN0020111N1+01901+01801101471ADDGD14991+0015019GF108991999999999999999999MA1101491999999MW1101REMMET088KLNS 171353Z 32003KT 1 1/4SM BR OVC005 19/18 A2997 RMK AO2 CIG 004V007 SLP147 T01890183;EQDQ01+000003PRSWM1Q02    003PRSWM1
0206725116999992000071802534+40110-076300FM-15+0123KLNS V0209999C000010210019N0080461N1+02101+01901101431ADDGD13991+0210019GF107991999999999999999999MA1101461999999MD1310111+9999MW1101REMMET083KLNS 180253Z AUTO 00000KT 5SM BR BKN070 21/19 A2996 RMK AO2 SLP143 T02110189 53011;EQDQ01+000003PRSWM1Q02    003PRSWM1
0163725116999992000072310534+40110-076300FM-15+0123KLNS V0209999C000012200019N0080461N1+01401+01301102081ADDGF100991999999999999999999MA1102101999999MW1101REMMET069KLNS 231053Z 00000KT 5SM BR CLR 14/13 A3015 RMK AO2 SLP208 T01390128;EQDQ01+000003PRSWM1Q02    003PRSWM1
0222725116999992000072608534+40110-076300FM-15+0123KLNS V0200501N002610027019N0096561N1+01801+01701102301ADDGD14991+0027019GF108991999999999999999999MA1102341999999MD1310011+9999MW1101REMMET083KLNS 260853Z AUTO 05005KT 6SM BR OVC009 18/17 A3022 RMK AO2 SLP230 T01780167 53000;EQDQ01+000002APC3  Q02+000003PRSWM1Q03    003PRSWM1
0231725116999992000073104534+40110-076300FM-15+0123KLNS V0201001N00151002101CN0064371N1+02301+02201101891ADDGD14991+0030019GF108991999999999999999999KA1999M+02941KA2999N+02171MA1101931999999MW1101REMMET096KLNS 310453Z 10003KT 4SM BR OVC010 23/22 A3010 RMK AO2 CIG 007V013 SLP189 T02280217 402940217 $;EQDQ01+000003PRSWM1Q02    003PRSWM1
0256725116999992000080411534+40110-076300FM-15+0123KLNS V0209999C000010051019N0032181N1+02101+01901101701ADDAA124004391GD13991+0051019GF107991999999999999999999KA1999M+02061KA2999N+01831MA1101731999999MD1110151+9999MW1101REMMET096KLNS 041153Z 00000KT 2SM BR BKN017 21/19 A3004 RMK AO2 SLP170 70017 T02060194 10206 20183 51015;EQDQ01+000003PRSWM1Q02    003PRSWM1
0144725116999992000080421534+40110-076300FM-15+0123KLNS V0200101N004112200019N0128741N1+02301+01801101531ADDGF100991999999999999999999MA1101561999999MW1001REMMET066KLNS 042153Z 01008KT 8SM CLR 23/18 A2999 RMK AO2 SLP153 T02330183;EQDQ01+000000PRSWM2
0054725116999992000080908009+40117-076300NSRDB+012699999V020999999999999999999999999999+99999+99999999999ADDGP10060000002000000002000000002000GR100600000900009
0071725116999992000080914009+40117-076300NSRDB+012699999V020999999999999999999999999999+99999+99999999999ADDGP10060048502008040402015024502008GQ100600535910079GR100600789913309
0071725116999992000082021009+40117-076300NSRDB+012699999V020999999999999999999999999999+99999+99999999999ADDGP10060054102008061502015016502008GQ100600523925219GR100600816913359
0054725116999992000082203009+40117-076300NSRDB+012699999V020999999999999999999999999999+99999+99999999999ADDGP10060000002000000002000000002000GR100600000900009
0207725116999992000082605534+40110-076300FM-15+0123KLNS V0209999C000012200019N0144841N1+01401+01301101651ADDGF100991999999999999999999KA1999M+02221KA2999N+01391MA1101691999999MD1810071+9999MW1001REMMET089KLNS 260553Z AUTO 00000KT 9SM CLR 14/13 A3003 RMK AO2 SLP165 T01390133 10222 20139 58007;EQDQ01+000000PRSWM2
0196725116999992000083119534+40110-076300FM-15+0123KLNS V0201201N007212200019N0160931N1+02801+02201101941ADDGD12991+0090019GD22991+0240019GF104991999999999999999999MA1101961999999MW1001OC100871REMMET080KLNS 311953Z 12014G17KT 10SM FEW030 SCT080 28/22 A3011 RMK AO2 SLP194 T02830217;EQDQ01+000000PRSWM2
0071725116999992000090312009+40117-076300NSRDB+012699999V020999999999999999999999999999+99999+99999999999ADDGP10060006302008000002015006302008GQ100600803908859GR100600226913449
0186725116999992000090401404+40110-076300FM-16+0123KLNS V0209999C000010111019N0064371N1+02301+02201999999ADDGD12991+0039019GD23991+0111019GF107991999999999999999999MA1101221999999MW1101REMMET062KLNS 040140Z 00000KT 4SM BR SCT013 BKN037 23/22 A2989 RMK AO2;EQDQ01+000003PRSWM1Q02    003PRSWM1
0054725116999992000090409009+40117-076300NSRDB+012699999V020999999999999999999999999999+99999+99999999999ADDGP10060000002000000002000000002000GR100600000900009
0215725116999992000090412094+40110-076300FM-16+0123KLNS V0202601N002610009019N0020111N1+02201+02201999999ADDGD13991+0009019GD24991+0021019GF108991999999999999999999MA1101081999999MW1101REMMET091KLNS 041209Z 26005KT 1 1/4SM BR BKN003 OVC007 22/22 A2985 RMK AO2 TSB1154E1155 CIG 003V006;EQDQ01+000003PRSWM1Q02    003PRSWM1
0054725116999992000090510009+40117-076300NSRDB+012699999V020999999999999999999999999999+99999+99999999999ADDGP10060000002000000002000000002000GR100600000900009
0071725116999992000090621009+40117-076300NSRDB+012699999V020999999999999999999999999999+99999+99999999999ADDGP10060046802008064202015012102008GQ100600573924789GR100600725913469
0071725116999992000090823009+40117-076300NSRDB+012699999V020999999999999999999999999999+99999+99999999999ADDGP10060005302008001002015005102008GQ100600803926889GR100600227913479
0150725116999992000090907404+40110-076300FM-16+0123KLNS V0209999C000012200019N0020111N1+01601+01601999999ADDGF100991999999999999999999MA1101961999999MW1101REMMET056KLNS 090740Z 00000KT 1 1/4SM BR CLR 16/16 A3011 RMK AO2;EQDQ01+000003PRSWM1Q02    003PRSWM1
0181725116999992000091016534+40110-076300FM-15+0123KLNS V0209999C000012200019N0064371N1+02801+02001102091ADDGD12991+0105019GF102991999999999999999999MA1102131999999MW1051REMMET072KLNS 101653Z 00000KT 4SM HZ FEW035 28/20 A3016 RMK AO2 SLP209 T02830200;EQDQ01+000003PRSWM1Q02    003PRSWM1
0307725116999992000091304534+40110-076300FM-15+0123KLNS V0202901N005110270019N0096561N1+02201+02101101311ADDAA101001391GD12991+0033019GD22991+0150019GD33991+0270019GF107991999999999999999999KA1999M+02781KA2999N+02001MA1101351999999MW1101REMMET131KLNS 130453Z AUTO 29010KT 6SM BR FEW011 SCT055 BKN095 22/21 A2993 RMK AO2 LTG DSNT ALQDS RAB08E49 SLP131 P0005 T02220211 402780200;EQDQ01+000003PRSWM1Q02    003PRSWM1
0257725116999992000091307534+40110-076300FM-15+0123KLNS V0203501N003110057019N0016091N1+02001+02001101211ADDAA101009491GD12991+0015019GD24991+0057019GF108991999999999999999999MA1101251999999MW1101MW2821MW3971REMMET126KLNS 130753Z AUTO 35006KT 1SM +TSRA BR SCT005 OVC019 20/20 A2990 RMK AO2 LTG DSNT E AND SW AND W TSB35 SLP121 P0037 T02000200;EQDQ01+000003PRSWM1
0210725116999992000091506534+40110-076300FM-15+0123KLNS V0202901N001510240019N0064371N1+01901+01801100511ADDGD13991+0240019GD24991+0360019GF108991999999999999999999MA1100541999999MW1101REMMET086KLNS 150653Z AUTO 29003KT 4SM BR BKN080 OVC120 19/18 A2969 RMK AO2 SLP051 T01890183 $;EQDQ01+000003PRSWM1Q02    003PRSWM1
0185725116999992000091622534+40110-076300FM-15+0123KLNS V0202601N001512200019N0160931N1+01401+00701101521ADDGD12991+0135019GD22991+0180019GF104991999999999999999999MA1101521999999MW1001REMMET077KLNS 162253Z 26003KT 10SM SCT045 SCT060 14/07 A2998 RMK AO2 SLP152 T01390072;EQDQ01+000000PRSWM2
0202725116999992000091911124+40110-076300FM-16+0123KLNS V0200401N002110099019N0040231N1+01501+01401999999ADDGD12991+0063019GD24991+0099019GF108991999999999999999999MA1101691999999MW1101REMMET078KLNS 191112Z 04004KT 2 1/2SM BR FEW021 OVC033 15/14 A3003 RMK AO2 RAE04 P0000;EQDQ01+000003PRSWM1Q02    003PRSWM1
0256725116999992000092317534+40110-076300FM-15+0123KLNS V0209999C000010021019N0048281N1+01801+01701101611ADDAA106001091GD14991+0021019GF108991999999999999999999KA1999M+01781KA2999N+01561MA1101631999999MD1610201+9999MW1101REMMET096KLNS 231753Z 00000KT 3SM BR OVC007 18/17 A3001 RMK AO2 SLP161 60004 T01780167 10178 20156 56020;EQDQ01+000003PRSWM1Q02    003PRSWM1
0255725116999992000092609534+40110-076300FM-15+0123KLNS V0200301N005110090019N0040231N1+00801+00801101211ADDAA101002391GD12991+0057019GD23991+0090019GD34991+0135019GF108991999999999999999999MA1101221999999MW1101MW2631REMMET099KLNS 260953Z 03010KT 2 1/2SM RA BR FEW019 BKN030 OVC045 08/08 A2989 RMK AO2 SLP121 P0009 T00830078;EQDQ01+000003PRSWM1Q02    003PRSWM1
0305725116999992000092617534+40110-076300FM-15+0123KLNS V0200101N006210057019N0160931N1+01101+00901101551ADDAA101000391AA206003091GD12991+0039019GD23991+0057019GD34991+0129019GF108991999999999999999999KA1999M+01061KA2999N+00941MA1101561999999MD1010121+9999MW1001REMMET120KLNS 261753Z 01012KT 10SM SCT013 BKN019 OVC043 11/09 A2999 RMK AO2 RAE49 SLP155 P0001 60012 T01060089 10106 20094 50012;EQDQ01+000000PRSWM2
0054725116999992000092701009+40117-076300NSRDB+012699999V020999999999999999999999999999+99999+99999999999ADDGP10060000002000000002000000002000GR100600000900009
0150725116999992000093009534+40110-076300FM-15+0123KLNS V0209999C000012200019N0160931N1+00301+00201102861ADDGF100991999999999999999999MA1102841999999MW1001REMMET072KLNS 300953Z AUTO 00000KT 10SM CLR 03/02 A3037 RMK AO2 SLP286 T00330022;EQDQ01+000000PRSWM2
0071725116999992000100114009+40117-076300NSRDB+012699999V020999999999999999999999999999+99999+99999999999ADDGP10060019802008001902015018902008GQ100600639912019GR100600599913659
0163725116999992000100122534+40110-076300FM-15+0123KLNS V0209999C000012200019N0096561N1+01701+01301101911ADDGF100991999999999999999999MA1101931999999MW1051REMMET069KLNS 012253Z 00000KT 6SM HZ CLR 17/13 A3010 RMK AO2 SLP191 T01670128;EQDQ01+000003PRSWM1Q02    003PRSWM1
0144725116999992000100316534+40110-076300FM-15+0123KLNS V0203001N006212200019N0128741N1+02601+01701101281ADDGF100991999999999999999999MA1101321999999MW1001REMMET066KLNS 031653Z 30012KT 8SM CLR 26/17 A2992 RMK AO2 SLP128 T02560172;EQDQ01+000000PRSWM2
0054725116999992000100405009+40117-076300NSRDB+012699999V020999999999999999999999999999+99999+99999999999ADDGP10060000002000000002000000002000GR100600000900009
0203725116999992000100911534+40110-076300FM-15+0123KLNS V0203101N003112200019N0160931N1+00201+00001102381ADDGF100991999999999999999999KA1999M+00171KA2999N+00001MA1102371999999MD1310011+9999MW1001REMMET085KLNS 091153Z 31006KT 10SM CLR 02/00 A3023 RMK AO2 SLP238 T00170000 10017 20000 53001;EQDQ01+000000PRSWM2
0184725116999992000100920534+40110-076300FM-15+0123KLNS V0203101N004610240019N0160931N1+00801-00401101991ADDGD13991+0240019GF107991999999999999999999MA1101961999999MD1610191+9999MW1001REMMET077KLNS 092053Z 31009KT 10SM BKN085 08/M04 A3011 RMK AO2 SLP199 T00781039 56019;EQDQ01+000000PRSWM2
0210725116999992000101008534+40110-076300FM-15+0123KLNS V0202601N003610210019N0160931N1+00401+00201101791ADDGD13991+0210019GD24991+0270019GF108991999999999999999999MA1101761999999MD1610131+9999MW1001REMMET088KLNS 100853Z AUTO 26007KT 10SM BKN070 OVC090 04/02 A3005 RMK AO2 SLP179 T00390017 56013;EQDQ01+000000PRSWM2
0054725116999992000101105009+40117-076300NSRDB+012699999V020999999999999999999999999999+99999+99999999999ADDGP10060000002000000002000000002000GR100600000900009
0071725116999992000101113009+40117-076300NSRDB+012699999V020999999999999999999999999999+99999+99999999999ADDGP10060018302008034202015010302008GQ100600764911199GR100600321913739
0071725116999992000101512009+40117-076300NSRDB+012699999V020999999999999999999999999999+99999+99999999999ADDGP10060000602008002402015000502008GQ100600864910449GR100600061909759
0071725116999992000101818009+40117-076300NSRDB+012699999V020999999999999999999999999999+99999+99999999999ADDGP10060018302009000002021018302009GQ100600510919269GR100600867913789
0169725116999992000101908534+40110-076300FM-15+0123KLNS V0202701N002612200019N0144841N1+00801+00601101791ADDGF100991999999999999999999MA1101801999999MD1310011+9999MW1001REMMET077KLNS 190853Z AUTO 27005KT 9SM CLR 08/06 A3006 RMK AO2 SLP179 T00830056 53001;EQDQ01+000000PRSWM2
0221725116999992000102511534+40110-076300FM-15+0123KLNS V0209999C000012200019N0048281N1+00801+00701102691ADDGF100991999999999999999999KA1999M+01001KA2999N+00781MA1102681999999MD1310141+9999MW1101REMMET087KLNS 251153Z 00000KT 3SM BR CLR 08/07 A3032 RMK AO2 SLP269 T00780072 10100 20078 53014;EQDQ01+000003PRSWM1Q02    003PRSWM1
0144725116999992000102519534+40110-076300FM-15+0123KLNS V0201001N002112200019N0128741N1+02101+01301102481ADDGF100991999999999999999999MA1102471999999MW1001REMMET066KLNS 251953Z 10004KT 8SM CLR 21/13 A3026 RMK AO2 SLP248 T02110128;EQDQ01+000000PRSWM2
0168725116999992000102809534+40110-076300FM-15+0123KLNS V0203201N003112200019N0064371N1+01601+01301101321ADDGF100991999999999999999999MA1101321999999MW1051REMMET074KLNS 280953Z AUTO 32006KT 4SM HZ CLR 16/13 A2992 RMK AO2 SLP132 T01560128;EQDQ01+000003PRSWM1Q02    003PRSWM1
0071725116999992000103018009+40117-076300NSRDB+012699999V020999999999999999999999999999+99999+99999999999ADDGP10060050202009053802021019302009GQ100600551919229GR100600793913889
0054725116999992000110310009+40117-076300NSRDB+012699999V020999999999999999999999999999+99999+99999999999ADDGP10060000002000000002000000002000GR100600000900009
0150725116999992000110400534+40110-076300FM-15+0123KLNS V0209999C000012200019N0160931N1+01301+00301101731ADDGF100991999999999999999999MA1101731999999MW1001REMMET072KLNS 040053Z AUTO 00000KT 10SM CLR 13/03 A3004 RMK AO2 SLP173 T01330028;EQDQ01+000000PRSWM2
0150725116999992000110509534+40110-076300FM-15+0123KLNS V0203001N002612200019N0160931N1+00501+00001101351ADDGF100991999999999999999999MA1101351999999MW1001REMMET072KLNS 050953Z AUTO 30005KT 10SM CLR 05/00 A2993 RMK AO2 SLP135 T00500000;EQDQ01+000000PRSWM2
0151725116999992000110622534+40110-076300FM-15+0123KLNS V0203001N003112200019N0160931N1+00701-00201101811ADDGF100991999999999999999999MA1101801999999MW1001REMMET073KLNS 062253Z AUTO 30006KT 10SM CLR 07/M02 A3006 RMK AO2 SLP181 T00671022;EQDQ01+000000PRSWM2
0151725116999992000110703534+40110-076300FM-15+0123KLNS V0209999C000012200019N0160931N1+00301-00301101871ADDGF100991999999999999999999MA1101861999999MW1001REMMET073KLNS 070353Z AUTO 00000KT 10SM CLR 03/M03 A3008 RMK AO2 SLP187 T00331033;EQDQ01+000000PRSWM2
0071725116999992000110712009+40117-076300NSRDB+012699999V020999999999999999999999999999+99999+99999999999ADDGP10060000002009000002021000002009GQ100600887911269GR100609999903839
0054725116999992000110810009+40117-076300NSRDB+012699999V020999999999999999999999999999+99999+99999999999ADDGP10060000002000000002000000002000GR100600000900009
0071725116999992000111120009+40117-076300NSRDB+012699999V020999999999999999999999999999+99999+99999999999ADDGP10060016202009002902021015102009GQ100600689922129GR100600503913969
0197725116999992000111302053+40110-076300FM-16+0123KLNS V0202501N002110072019N0160931N1+00501+00301999999ADDGD13991+0072019GF107991999999999999999999GP10060000002000000002000000002000GR100600000900009MA1101801999999MW1001REMMET053KLNS 130205Z 25004KT 10SM BKN024 05/03 A3006 RMK AO2;EQDQ01+000000PRSWM2
0054725116999992000111902009+40117-076300NSRDB+012699999V020999999999999999999999999999+99999+99999999999ADDGP10060000002000000002000000002000GR100600000900009
0071725116999992000112013009+40117-076300NSRDB+012699999V020999999999999999999999999999+99999+99999999999ADDGP10060000002009000002021000002009GQ100600851912119GR100600120914029
0164725116999992000112516534+40110-076300FM-15+0123KLNS V0200701N003610360019N0160931N1+00201-00601102951ADDGD14991+0360019GF108991999999999999999999MA1102911999999MW1001REMMET071KLNS 251653Z 07007KT 10SM OVC120 02/M06 A3039 RMK AO2 SLP295 T00221061;EQDQ01+000000PRSWM2
0071725116999992000112717009+40117-076300NSRDB+012699999V020999999999999999999999999999+99999+99999999999ADDGP10060028102009012702021022102009GQ100600617917399GR100600666914059
0256725116999992000113005534+40110-076300FM-15+0123KLNS V0202601N002110018019N0048281N1+00301+00201101121ADDAA106002091GD14991+0018019GF108991999999999999999999KA1999M+00391KA2999N+00281MA1101121999999MD1610181+9999MW1101REMMET096KLNS 300553Z 26004KT 3SM BR OVC006 03/02 A2986 RMK AO2 SLP112 60008 T00280022 10039 20028 56018;EQDQ01+000003PRSWM1Q02    003PRSWM1
0054725116999992000120300009+40117-076300NSRDB+012699999V020999999999999999999999999999+99999+99999999999ADDGP10060000002000000002000000002000GR100600000900009
0054725116999992000120308009+40117-076300NSRDB+012699999V020999999999999999999999999999+99999+99999999999ADDGP10060000002000000002000000002000GR100600000900009
0054725116999992000120511009+40117-076300NSRDB+012699999V020999999999999999999999999999+99999+99999999999ADDGP10060000002000000002000000002000GR100600000900009
0054725116999992000120611009+40117-076300NSRDB+012699999V020999999999999999999999999999+99999+99999999999ADDGP10060000002000000002000000002000GR100600000900009
0170725116999992000120618534+40110-076300FM-15+0123KLNS V0202601N005712200019N0160931N1-00201-01301101941ADDGF100991999999999999999999MA1101901999999MW1001OC100821REMMET084KLNS 061853Z AUTO 26011G16KT 10SM CLR M02/M13 A3009 RMK AO2 SLP194 T10171133 FZRANO;EQDQ01+000000PRSWM2
0071725116999992000120822009+40117-076300NSRDB+012699999V020999999999999999999999999999+99999+99999999999ADDGP10060000302009000002021000302009GQ100600872923709GR100600043908819
0189725116999992000120908534+40110-076300FM-15+0123KLNS V0202901N006710150019N0160931N1+00001-00901102481ADDGD13991+0150019GF107991999999999999999999MA1102441999999MD1110251+9999MW1001REMMET082KLNS 090853Z AUTO 29013KT 10SM BKN050 00/M09 A3025 RMK AO2 SLP248 T00001089 51025;EQDQ01+000000PRSWM2
0054725116999992000121403009+40117-076300NSRDB+012699999V020999999999999999999999999999+99999+99999999999ADDGP10060000002000000002000000002000GR100600000900009
0260725116999992000121616013+40110-076300FM-16+0123KLNS V0200501N00311001501CN0032181N1+00101+00001999999ADDGD14991+0024019GF108991999999999999999999GP10060009602009000002021009602009GQ100600670915739GR100600552914139MA1102571999999MW1101MW2611REMMET077KLNS 161601Z 05006KT 2SM -RA BR OVC008 01/00 A3029 RMK AO2 CIG 005V011 P0000;EQDQ01+000003PRSWM1Q02    003PRSWM1
0147725116999992000122016534+40110-076300FM-15+0123KLNS V0202701N006712200019N0160931N1-00601-01201101741ADDGF100991999999999999999999MA1101691999999MW1001REMMET069KLNS 201653Z 27013KT 10SM CLR M06/M12 A3003 RMK AO2 SLP174 T10561122;EQDQ01+000000PRSWM2
0249725116999992000122205534+40110-076300FM-15+0123KLNS V0209999C000010150019N0128741N1-00401-00601101991ADDGD13991+0150019GD24991+0240019GF108991999999999999999999KA1999M-00331KA2999N-00671MA1101931999999MD1810171+9999MW1001REMMET101KLNS 220553Z AUTO 00000KT 8SM BKN050 OVC080 M04/M06 A3010 RMK AO2 SLP199 T10391061 11033 21067 58017;EQDQ01+000000PRSWM2
0206725116999992000122404534+40110-076300FM-15+0123KLNS V0209999C000010300019N0160931N1-00701-01101103081ADDGD14991+0300019GF108991999999999999999999KA1999M-00501KA2999N-01501MA1103011999999MW1001REMMET087KLNS 240453Z AUTO 00000KT 10SM OVC100 M07/M11 A3042 RMK AO2 SLP308 T10721106 410501150;EQDQ01+000000PRSWM2
0054725116999992000122505009+40117-076300NSRDB+012699999V020999999999999999999999999999+99999+99999999999ADDGP10060000002000000002000000002000GR100600000900009
0054725116999992000122708009+40117-076300NSRDB+012699999V020999999999999999999999999999+99999+99999999999ADDGP10060000002000000002000000002000GR100600000900009
0054725116999992000122923009+40117-076300NSRDB+012699999V020999999999999999999999999999+99999+99999999999ADDGP10060000002000000002000000002000GR100600000900009
0232725117999992000010200003+40130-080280FM-15+0361KAFJ V0209999C000012200019N0160931N1+00401+00001999999ADDGF100991999999999999999999GP10060000002000000002000000002000GR100600000900009KA1999M+01401KA2999N+00401MA1101901999999MW1001REMMET077KAFJ 012355Z AUTO 00000KT 10SM CLR 04/00 A3009 RMK AO1 10140 20040 401401070;EQDQ01+000000PRSWM2
0221725117999992000010316003+40130-080280FM-15+0361KAFJ V0201901N002112200019N0160931N1+01301+01101999999ADDGF100991999999999999999999GP10060015102009001202021014702009GQ100600685915159GR100600517914159MA1101631999999MD1210031+9999MW1001REMMET061KAFJ 031555Z AUTO 19004KT 10SM CLR 13/11 A3001 RMK AO1 52003;EQDQ01+000000PRSWM2
0282725117999992000010404003+40130-080280FM-15+0361KAFJ V0200501N001510105019N0096561N1+01201+01101999999ADDAA101001591GD12991+0084019GD23991+0105019GD34991+0150019GF108991999999999999999999GP10060000002000000002000000002000GR100600000900009MA1100851999999MD1210101+9999MW1001REMMET083KAFJ 040355Z AUTO 05003KT 6SM SCT028 BKN035 OVC050 12/11 A2978 RMK AO1 P0006 52010;EQDQ01+000000PRSWM2
0262725117999992000010411003+40130-080280FM-15+0361KAFJ V0201901N003110093019N0112651N1+01201+01101999999ADDAA101000391GD12991+0075019GD23991+0093019GD34991+0123019GF108991999999999999999999GP10060000002000000002000000002000GR100600000900009MA1100141999999MW1001REMMET077KAFJ 041055Z AUTO 19006KT 7SM SCT025 BKN031 OVC041 12/11 A2957 RMK AO1 P0001;EQDQ01+000000PRSWM2
0246725117999992000011410003+40130-080280FM-15+0361KAFJ V0202901N003110096019N0160931N1-00801-01201999999ADDGD12991+0054019GD23991+0096019GF107991999999999999999999GP10060000002000000002000000002000GR100600000900009MA1103451999999MD1210171+9999MW1001REMMET073KAFJ 140955Z AUTO 29006KT 10SM FEW018 BKN032 M08/M12 A3055 RMK AO1 52017;EQDQ01+000000PRSWM2
0071725117999992000021513009+40133-080283NSRDB+036199999V020999999999999999999999999999+99999+99999999999ADDGP10060000702009002002021000602009GQ100600864910999GR100600064910169
0071725117999992000021722009+40133-080283NSRDB+036199999V020999999999999999999999999999+99999+99999999999ADDGP10060010602009004502021009502009GQ100600752923979GR100600357914019
0071725117999992000021819009+40133-080283NSRDB+036199999V020999999999999999999999999999+99999+99999999999ADDGP10060010602009000002021010602009GQ100600535919689GR100600833914009
0134725117999992000022113354+40130-080280FM-15+0361KAFJ V0202401N002612200019N0160931N1+00101-00501999999ADDGF100991999999999999999999MA1103121999999MW1001REMMET056KAFJ 211435Z AUTO 24005KT 10SM CLR 01/M05 A3045 RMK AO1;EQDQ01+000000PRSWM2
0219725117999992000022315003+40130-080280FM-15+0361KAFJ V0202001N001512200019N0160931N1+01101+00401999999ADDGD12991+0270019GF102991999999999999999999GP10060010202009000002021010202009GQ100600658912899GR100600572913979MA1102811999999MW1001REMMET058KAFJ 231455Z AUTO 20003KT 10SM FEW090 11/04 A3036 RMK AO1;EQDQ01+000000PRSWM2
0195725117999992000022709003+40130-080280FM-15+0361KAFJ V0201801N004612200019N0160931N1+01601+00601999999ADDGF100991999999999999999999GP10060000002000000002000000002000GR100600000900009MA1101521999999MW1001OC100721REMMET058KAFJ 270855Z AUTO 18009G14KT 10SM CLR 16/06 A2998 RMK AO1;EQDQ01+000000PRSWM2
0222725117999992000030516003+40130-080280FM-15+0361KAFJ V0202701N004612200019N0160931N1+01101-00201999999ADDGF100991999999999999999999GP10060059202009076602021014002009GQ100600539914129GR100600817913899MA1101391999999MD1210071+9999MW1001REMMET062KAFJ 051555Z AUTO 27009KT 10SM CLR 11/M02 A2994 RMK AO1 52007;EQDQ01+000000PRSWM2
0300725117999992000031200003+40130-080280FM-15+0361KAFJ V0203601N002110006019N0112651N1+00301+00201999999ADDAA101000591AA206001391GD14991+0006019GF108991999999999999999999GP10060000002009000002021000002009GQ100600880926439GR100600018905199KA1999M+00301KA2999N+00301MA1100411999999MW1001REMMET091KAFJ 112355Z AUTO 36004KT 7SM OVC002 03/02 A2965 RMK AO1 P0002 60005 10030 20030 400500000;EQDQ01+000000PRSWM2
0185725117999992000032708003+40130-080280FM-15+0361KAFJ V0209999C000012200019N0160931N1+00301-00401999999ADDGF100991999999999999999999GP10060000002000000002000000002000GR100600000900009MA1100171999999MW1001REMMET056KAFJ 270755Z AUTO 00000KT 10SM CLR 03/M04 A2958 RMK AO1;EQDQ01+000000PRSWM2
0239725117999992000040219003+40130-080280FM-15+0361KAFJ V0202101N006710048019N0160931N1+01401+01101999999ADDGD14991+0048019GF108991999999999999999999GP10060018302008000002015018302008GQ100600380920709GR100601077913679MA1101191999999MD1710141+9999MW1001REMMET064KAFJ 021855Z AUTO 21013KT 10SM OVC016 14/11 A2988 RMK AO1 57014;EQDQ01+000000PRSWM2
0173725117999992000040308003+40130-080280FM-15+0361KAFJ V0202101N003112200019N9999999N1+01501+01301999999ADDAA101000891GP10060000002000000002000000002000GR100600000900009MA1101051999999MW1001REMMET059KAFJ 030755Z AUTO 21006KT OVC012 15/13 A2984 RMK AO1 P0003;EQDQ01+000000PRSWM2
0233725117999992000041016003+40130-080280FM-15+0361KAFJ V0202501N007212200019N0160931N1+00801-00301999999ADDGF100991999999999999999999GP10060076802008074902015019902008GQ100600407913459GR100601032913619MA1102301999999MD1210101+9999MW1001OC100871REMMET065KAFJ 101555Z AUTO 25014G17KT 10SM CLR 08/M03 A3021 RMK AO1 52010;EQDQ01+000000PRSWM2
0239725117999992000041516003+40130-080280FM-15+0361KAFJ V0201401N001512200019N0160931N1+01901+01101999999ADDGD12991+0330019GF102991999999999999999999GP10060063002008032602015037602008GQ100600390913339GR100601054913579MA1101731999999MD1710141+9999MW1001REMMET064KAFJ 151555Z AUTO 14003KT 10SM FEW110 19/11 A3004 RMK AO1 57014;EQDQ01+000000PRSWM2
0267725117999992000042000003+40130-080280FM-15+0361KAFJ V0209999C000010087019N0160931N1+01301+00801999999ADDGD14991+0087019GF108991999999999999999999GP10060002802008000902015002702008GQ100600843928049GR100600135913549KA1999M+01401KA2999N+01301MA1101661999999MW1001REMMET080KAFJ 192355Z AUTO 00000KT 10SM OVC029 13/08 A3002 RMK AO1 10140 20130 401400080;EQDQ01+000000PRSWM2
0239725117999992000042016003+40130-080280FM-15+0361KAFJ V0201501N003112200019N0160931N1+01701+00901999999ADDGD12991+0240019GF102991999999999999999999GP10060042302008007202015036602008GQ100600374913219GR100601074913539MA1101051999999MD1710241+9999MW1001REMMET064KAFJ 201555Z AUTO 15006KT 10SM FEW080 17/09 A2984 RMK AO1 57024;EQDQ01+000000PRSWM2
0202725117999992000042405003+40130-080280FM-15+0361KAFJ V0209999C000012200019N0160931N1+00701+00401999999ADDGD12991+0180019GF104991999999999999999999GP10060000002000000002000000002000GR100600000900009MA1101251999999MW1001REMMET058KAFJ 240455Z AUTO 00000KT 10SM SCT060 07/04 A2990 RMK AO1;EQDQ01+000000PRSWM2
0202725117999992000042514003+40130-080280FM-15+0361KAFJ V0200401N003112200019N0160931N1+01301-00101999999ADDGF100991999999999999999999GP10060049802008055902015019002008GQ100600565910139GR100600743913499MA1101051999999MW1001REMMET056KAFJ 251355Z AUTO 04006KT 10SM CLR 13/M01 A2984 RMK AO1;EQDQ01+000000PRSWM2
0261725117999992000042600003+40130-080280FM-15+0361KAFJ V0203501N005712200019N0160931N1+01301-00301999999ADDGF100991999999999999999999GP10060006202008015502015004402008GQ100600832928229GR100600159913499KA1999M+01801KA2999N+01301MA1101081999999MW1001OC100981REMMET081KAFJ 252355Z AUTO 35011G19KT 10SM CLR 13/M03 A2985 RMK AO1 10180 20130 401800090;EQDQ01+000000PRSWM2
0221725117999992000042916003+40130-080280FM-15+0361KAFJ V0209999C000012200019N0160931N1+01801+00201999999ADDGF100991999999999999999999GP10060075802008056702015029202008GQ100600348912979GR100601104913479MA1101461999999MD1210071+9999MW1001REMMET061KAFJ 291555Z AUTO 00000KT 10SM CLR 18/02 A2996 RMK AO1 52007;EQDQ01+000000PRSWM2
0185725117999992000043005003+40130-080280FM-15+0361KAFJ V0203401N001512200019N0160931N1+01101-00201999999ADDGF100991999999999999999999GP10060000002000000002000000002000GR100600000900009MA1101861999999MW1001REMMET056KAFJ 300455Z AUTO 34003KT 10SM CLR 11/M02 A3008 RMK AO1;EQDQ01+000000PRSWM2
0239725117999992000050416003+40130-080280FM-15+0361KAFJ V0202401N003612200019N0160931N1+02101+01401999999ADDGD12991+0330019GF102991999999999999999999GP10060036602008002402015034602008GQ100600336912829GR100601118913439MA1102241999999MD1210071+9999MW1001REMMET064KAFJ 041555Z AUTO 24007KT 10SM FEW110 21/14 A3019 RMK AO1 52007;EQDQ01+000000PRSWM2
0222725117999992000051501003+40130-080280FM-15+0361KAFJ V0202601N001512200019N0160931N1+01201-00101999999ADDGF100991999999999999999999GP10060000002008000002015000002008GQ100600878929339GR100600023906139MA1101961999999MD1210141+9999MW1001REMMET062KAFJ 150055Z AUTO 26003KT 10SM CLR 12/M01 A3011 RMK AO1 52014;EQDQ01+000000PRSWM2
0192725117999992000051619003+40130-080280FM-15+0361KAFJ V0209999C000012200019N0160931N1+01901-00101999999ADDGP10060083102008059802015029402008GQ100600262922159GR100601198913369MA1101801999999MD1710241+9999MW1001REMMET058KAFJ 161855Z AUTO 00000KT 10SM 19/M01 A3006 RMK AO1 57024;EQDQ01+000000PRSWM2
0174725117999992000052503003+40130-080280FM-15+0361KAFJ V0202401N001512200019N0024141N1+01501+01401999999ADDAA103000391GP10060000002000000002000000002000GR100600000900009MA1100201999999MW1001REMMET060KAFJ 250255Z AUTO 24003KT 1 1/2SM 15/14 A2959 RMK AO1 60001;EQDQ01+000000PRSWM2
0263725117999992000052711003+40130-080280FM-15+0361KAFJ V0201701N001510210019N0160931N1+01301+00901999999ADDGD12991+0135019GD22991+0180019GD34991+0210019GF108991999999999999999999GP10060000002008000002015000002008GQ100600848906609GR100600120913309MA1101491999999MW1001REMMET072KAFJ 271055Z AUTO 17003KT 10SM FEW045 SCT060 OVC070 13/09 A2997 RMK AO1;EQDQ01+000000PRSWM2
0261725117999992000052719003+40130-080280FM-15+0361KAFJ V0200501N004610036019N0160931N1+01501+01301999999ADDGD13991+0036019GD24991+0099019GF108991999999999999999999GP10060027702008000602015027202008GQ100600243922399GR100601211913309MA1101251999999MD1710141+9999MW1001REMMET071KAFJ 271855Z AUTO 05009KT 10SM BKN012 OVC033 15/13 A2990 RMK AO1 57014;EQDQ01+000000PRSWM2
0183725117999992000053003003+40130-080280FM-15+0361KAFJ V0209999C000012200019N0128741N1+00901+00801999999ADDGF100991999999999999999999GP10060000002000000002000000002000GR100600000900009MA1101861999999MW1001REMMET054KAFJ 300255Z AUTO 00000KT 8SM CLR 09/08 A3008 RMK AO1;EQDQ01+000000PRSWM2
0201725117999992000053111003+40130-080280FM-15+0361KAFJ V0209999C000012200019N0160931N1+01101+00901999999ADDGF100991999999999999999999GP10060000002008000002015000002008GQ100600845906559GR100600126913289MA1102071999999MW1001REMMET055KAFJ 311055Z AUTO 00000KT 10SM CLR 11/09 A3014 RMK AO1;EQDQ01+000000PRSWM2
0279725117999992000060118003+40130-080280FM-15+0361KAFJ V0203001N003112200019N0160931N1+02801+01801999999ADDGD12991+0123019GD22991+0141019GF104991999999999999999999GP10060090502008064802015028902008GQ100600185918799GR100601259913289KA1999M+02801KA2999N+02101MA1101961999999MW1001REMMET077KAFJ 011755Z AUTO 30006KT 10SM SCT041 SCT047 28/18 A3011 RMK AO1 10280 20210;EQDQ01+000000PRSWM2
0271725117999992000061202003+40130-080280FM-15+0361KAFJ V0202001N003110141019N0096561N1+02101+01901999999ADDAA101001391GD12991+0039019GD22991+0093019GD33991+0141019GF107991999999999999999999GP10060000002000000002000000002000GR100600000900009MA1101931999999MW1001REMMET086KAFJ 120155Z AUTO 20006KT 6SM FEW013 SCT031 BKN047 21/19 A3010 RMK AO1 TSB26E41 P0005;EQDQ01+000000PRSWM2
0201725117999992000061921003+40130-080270FM-15+0361KAFJ V0200801N001512200019N0160931N1+02301+01101999999ADDGF100991999999999999999999GP10060066602008065402015018502008GQ100600426926139GR100600972913239MA1102171999999MW1001REMMET055KAFJ 192055Z AUTO 08003KT 10SM CLR 23/11 A3017 RMK AO1;EQDQ01+000000PRSWM2
0199725117999992000070208003+40130-080270FM-15+0361KAFJ V0209999C000012200019N0028161N1+01101+01001999999ADDGF100991999999999999999999GP10060000002000000002000000002000GR100600000900009MA1101861999999MW1001REMMET070KAFJ 020755Z AUTO 00000KT 1 3/4SM CLR 11/10 A3008 RMK AO1 VIS 1V5 1/2;EQDQ01+000000PRSWM2
0219725117999992000071017003+40130-080270FM-15+0361KAFJ V0202401N004612200019N0160931N1+02701+02101999999ADDGD12991+0084019GF102991999999999999999999GP10060068902008027102015043802008GQ100600218914299GR100601226913229MA1101151999999MW1001REMMET058KAFJ 101655Z AUTO 24009KT 10SM FEW028 27/21 A2987 RMK AO1;EQDQ01+000000PRSWM2
0259725117999992000071622003+40130-080270FM-15+0361KAFJ V0209999C000012200019N0160931N1+01801+01601999999ADDAA101000591GF100991999999999999999999GP10060028702008008802015023502008GQ100600544926879GR100600769913229MA1101021999999MD1210171+9999MW1001REMMET088KAFJ 162155Z AUTO 00000KT 10SM CLR 18/16 A2983 RMK AO1 LTG DSNT E - S TSE15 P0002 52017;EQDQ01+000000PRSWM2
0201725117999992000073005003+40130-080270FM-15+0361KAFJ V0209999C000010150019N0032181N1+01901+01801999999ADDGD14991+0150019GF108991999999999999999999GP10060000002000000002000000002000GR100600000900009MA1101591999999MW1001REMMET057KAFJ 300455Z AUTO 00000KT 2SM OVC050 19/18 A3000 RMK AO1;EQDQ01+000000PRSWM2
0239725117999992000073018003+40130-080270FM-15+0361KAFJ V0201601N002612200019N0160931N1+02701+02001999999ADDGF100991999999999999999999GP10060086502008058802015031902008GQ100600221918159GR100601228913269KA1999M+02701KA2999N+01901MA1101561999999MW1001REMMET067KAFJ 301755Z AUTO 16005KT 10SM CLR 27/20 A2999 RMK AO1 10270 20190;EQDQ01+000000PRSWM2
0241725117999992000080414003+40130-080270FM-15+0361KAFJ V0209999C000010051019N0160931N1+01801+01501999999ADDGD12991+0030019GD24991+0051019GF108991999999999999999999GP10060011302008000002015011302008GQ100600558909639GR100600746913279MA1101861999999MW1001REMMET065KAFJ 041355Z AUTO 00000KT 10SM FEW010 OVC017 18/15 A3008 RMK AO1;EQDQ01+000000PRSWM2
0239725117999992000081113003+40130-080270FM-15+0361KAFJ V0203301N002612200019N0160931N1+02001+01701999999ADDGD12991+0057019GF102991999999999999999999GP10060027502008037302015013602008GQ100600682908839GR100600493913309MA1101631999999MD1210071+9999MW1001REMMET064KAFJ 111255Z AUTO 33005KT 10SM FEW019 20/17 A3001 RMK AO1 52007;EQDQ01+000000PRSWM2
0202725117999992000082208003+40130-080270FM-15+0361KAFJ V0209999C00001000151CN0004021N1+01101+01101999999ADDGD15991+0001519GF109991999999000251999999GP10060000002000000002000000002000GR100600000900009MA1102371999999MW1001REMMET058KAFJ 220755Z AUTO 00000KT 1/4SM VV002 11/11 A3023 RMK AO1;EQDQ01+000000PRSWM2
0201725117999992000082221003+40130-080270FM-15+0361KAFJ V0202101N003112200019N0160931N1+02701+01701999999ADDGF100991999999999999999999GP10060054002008052102015020402008GQ100600500924829GR100600858913369MA1102241999999MW1001REMMET055KAFJ 222055Z AUTO 21006KT 10SM CLR 27/17 A3019 RMK AO1;EQDQ01+000000PRSWM2
0202725117999992000082503003+40130-080270FM-15+0361KAFJ V0209999C00001000151CN0004021N1+01801+01701999999ADDGD15991+0001519GF109991999999000251999999GP10060000002000000002000000002000GR100600000900009MA1101861999999MW1001REMMET058KAFJ 250255Z AUTO 00000KT 1/4SM VV002 18/17 A3008 RMK AO1;EQDQ01+000000PRSWM2
0238725117999992000082612003+40130-080270FM-15+0361KAFJ V0209999C000012200019N0144841N1+01201+01201999999ADDGF100991999999999999999999GP10060004802008000002015004802008GQ100600819908339GR100600187913389KA1999M+01201KA2999N+00901MA1101761999999MW1001REMMET066KAFJ 261155Z AUTO 00000KT 9SM CLR 12/12 A3005 RMK AO1 10120 20090;EQDQ01+000000PRSWM2
0273725117999992000082718003+40130-080270FM-15+0361KAFJ V0201901N002110072019N0128741N1+02101+01801999999ADDAA106002891GD14991+0072019GF108991999999999999999999GP10060027002008001202015026002008GQ100600306918369GR100601152913399KA1999M+02101KA2999N+01801MA1101321999999MW1001REMMET075KAFJ 271755Z AUTO 19004KT 8SM OVC024 21/18 A2992 RMK AO1 60011 10210 20180;EQDQ01+000000PRSWM2
0219725117999992000082720003+40130-080270FM-15+0361KAFJ V0201301N002112200019N0160931N1+02301+01701999999ADDGD12991+0093019GF104991999999999999999999GP10060062902008048302015026702008GQ100600416923159GR100601001913399MA1101251999999MW1001REMMET058KAFJ 271955Z AUTO 13004KT 10SM SCT031 23/17 A2990 RMK AO1;EQDQ01+000000PRSWM2
0279725117999992000082918003+40130-080270FM-15+0361KAFJ V0201101N003610117019N0160931N1+02501+01701999999ADDGD13991+0117019GD23991+0138019GF107991999999999999999999GP10060026402008000602015025902008GQ100600313918389GR100601145913409KA1999M+02601KA2999N+01601MA1101931999999MW1001REMMET077KAFJ 291755Z AUTO 11007KT 10SM BKN039 BKN046 25/17 A3010 RMK AO1 10260 20160;EQDQ01+000000PRSWM2
0150725117999992000083112354+40130-080270FM-15+0361KAFJ V0200501N002112200019N0144841N1+02101+01801999999ADDGD12991+0105019GF104991999999999999999999MA1101901999999MW1001REMMET057KAFJ 311235Z AUTO 05004KT 9SM SCT035 21/18 A3009 RMK AO1;EQDQ01+000000PRSWM2
0223725117999992000090310003+40130-080270FM-15+0361KAFJ V0209999C000010003019N0004021N1+01801+01701999999ADDGD14991+0003019GF108991999999999999999999GP10060000002000000002000000002000GR100600000900009MA1101351999999MD1410001+9999MW1001REMMET065KAFJ 030955Z AUTO 00000KT 1/4SM OVC001 18/17 A2993 RMK AO1 54000;EQDQ01+000000PRSWM2
0203725117999992000090401003+40130-080270FM-15+0361KAFJ V0209999C000012200019N0080461N1+02201+02001999999ADDGF100991999999999999999999GP10060000002000000002000000002000GR100600000900009MA1101121999999MD1410001+9999MW1001REMMET060KAFJ 040055Z AUTO 00000KT 5SM CLR 22/20 A2986 RMK AO1 54000;EQDQ01+000000PRSWM2
0241725117999992000090423003+40130-080270FM-15+0361KAFJ V0203601N005710051019N0160931N1+02001+01601999999ADDGD12991+0003019GD24991+0051019GF108991999999999999999999GP10060010102008005502015008802008GQ100600760926729GR100600324913449MA1101561999999MW1001REMMET065KAFJ 042255Z AUTO 36011KT 10SM FEW001 OVC017 20/16 A2999 RMK AO1;EQDQ01+000000PRSWM2
