0139085240999992000082919004+33070-016340FM-15+0082LPPS V0200101N005112200019N0112651N1+02101+01301999999ADDGA1021+005409999GF104991999999999999999999MA1102001999999MW1001REMMET045LPPS 291900Z 01010KT 9999 SCT018 21/13 Q1020;EQDQ01+000000PRSWM2
0162085240999992000083109004+33070-016340FM-15+0082LPPS V0200401N004612200019N0112651N1+02101+01501999999ADDGA1021+004809999GA2021+009009999GF104991999999999999999999MA1101691999999MW1001REMMET052LPPS 310900Z 04009KT 9999 SCT016 SCT030 21/15 Q1017;EQDQ01+000000PRSWM2
0147085240999992000090816004+33070-016340FM-15+0082LPPS V0200501N005112200019N0112651N1+02401+01701999999ADDGA1021+004809999GF104991999999999999999999MA1101591999999MW1001REMMET053LPPS 081600Z 05010KT 010V090 9999 SCT016 24/17 Q1016;EQDQ01+000000PRSWM2
0353085240999992000091018004+33070-016340SY-MT+0082LPPS V0203501N00501009001CN0200001N1+02231+01611101831ADDAA199000091GA1021+005409999GA2021+009909999GF107991071081004501001011KA1120M+02461MA1101801100871MD1410001+9999MW1001UA1M000009999REMSYN118AAXX  10181 08524 32470 73505 10223 20161 30087 40183 54000 87801 222// 20000 300// 40000 333 10246 82818 84633 91109;MET052LPPS 101800Z 36011KT 9999 SCT018 SCT033 23/16 Q1018;EQDQ01+000000PRSWM2Q02  00002PRCP99
0247085240999992000091515004+33070-016340SY-MT+0082LPPS V0202901N003012200019N0250001N1+02501+01781101711ADDGA1021+005409999GF105991051081004501001001MA1101691100761MD1710041+9999MW1001REMSYN088AAXX  15151 08524 42475 52903 10250 20178 30076 40171 57004 85800 333 84818 91006 91106;MET045LPPS 151500Z VRB01KT 9999 SCT018 24/17 Q1017;EQDQ01+000000PRSWM2
0147085240999992000091516004+33070-016340FM-15+0082LPPS V0202901N004112200019N0112651N1+02501+01801999999ADDGA1021+005409999GF104991999999999999999999MA1101691999999MW1001REMMET053LPPS 151600Z 29008KT 260V330 9999 SCT018 25/18 Q1017;EQDQ01+000000PRSWM2
0162085240999992000092619004+33070-016340FM-15+0082LPPS V0203601N005710720019N0112651N1+02201+01701999999ADDGA1021+005409999GA2071+072009999GF107991999999999999999999MA1102401999999MW1001REMMET052LPPS 261900Z 36011KT 9999 SCT018 BKN240 22/17 Q1024;EQDQ01+000000PRSWM2
0139085240999992000092707004+33070-016340FM-15+0082LPPS V0200301N004112200019N0112651N1+02001+01501999999ADDGA1021+005409999GF104991999999999999999999MA1102301999999MW1001REMMET045LPPS 270700Z 03008KT 9999 SCT018 20/15 Q1023;EQDQ01+000000PRSWM2
0235085240999992000092709004+33070-016340SY-MT+0082LPPS V0200201N005012200019N0250001N1+02141+01421102451ADDGA1021+005409999GF103991031021004501001011MA1102401101481MD1210081+9999MW1001REMSYN076AAXX  27091 08524 42475 30205 10214 20142 30148 40245 52008 83201 333 83818;MET045LPPS 270900Z 04009KT 9999 SCT018 22/14 Q1024;EQDQ01+000000PRSWM2
0305085240999992000100700004+33070-016340SY-MT+0082LPPS V0209999V00201090001CN0200001N1+02021+01531102101ADDAA199000091GA1021+004809999GA2021+072009999GF106991031021004501001021MA1102001101131MD1410001+9999MW1001REMSYN088AAXX  07001 08524 32470 69902 10202 20153 30113 40210 54000 83202 333 83816 84074 91109;MET060LPPS 070000Z 08010KT 040V100 9999 SCT016 SCT240 20/15 Q1020;EQDQ01+000000PRSWM2Q02  00002PRCP99
0268085240999992000101200004+33070-016340SY-MT+0082LPPS V0203101N007010048019N0200001N1+02081+01661101721ADDAA199000091GA1071+004809999GF106991061021004501001001MA1101691100761MD1710101+9999MW1001REMSYN082AAXX  12001 08524 32470 63107 10208 20166 30076 40172 57010 86200 333 86816 91111;MET045LPPS 120000Z 30016KT 9999 BKN016 21/16 Q1017;EQDQ01+000000PRSWM2Q02  00002PRCP99
0319085240999992000101412004+33070-016340SY-MT+0082LPPS V0200101N004010090019N0200001N1+02111+01121102441ADDAA199000091GA1021+004809999GA2071+009009999GF199999061081004501001001MA1102401101471MD1210041+9999MW1001REMSYN094AAXX  14121 08524 32470 60104 10211 20112 30147 40244 52004 86800 333 83816 85630 91007 91108;MET052LPPS 141200Z VRB01KT 9999 SCT016 BKN030 20/12 Q1024;EQDQ01+000062SCOTCVQ02+000000PRSWM2Q03  00002PRCP99
0255085240999992000101615004+33070-016340SY-MT+0082LPPS V0200301N005010048019N0250001N1+02191+01551102251ADDGA1071+004809999GF106991051021004501001011MA1102201101281MD1710021+9999MW1001REMSYN088AAXX  16151 08524 42475 60305 10219 20155 30128 40225 57002 85201 333 85816 91009 91109;MET053LPPS 161500Z 04008KT 010V070 9999 BKN016 22/15 Q1022;EQDQ01+000000PRSWM2
0139085240999992000102007004+33070-016340FM-15+0082LPPS V0203601N006712200019N0112651N1+02001+01701999999ADDGA1021+004809999GF104991999999999999999999MA1102001999999MW1001REMMET045LPPS 200700Z 36013KT 9999 SCT016 20/17 Q1020;EQDQ01+000000PRSWM2
0276085240999992000103103004+33070-016340SY-MT+0082LPPS V0203301N003010090019N0250001N1+01841+01091102291ADDGA1021+004809999GA2071+009009999GF107991071081004501999999MA1102201101311MD1710131+9999MW1001REMSYN094AAXX  31031 08524 42475 73303 10184 20109 30131 40229 57013 878// 333 83816 85630 91006 91106;MET052LPPS 310300Z 33004KT 9999 SCT016 BKN030 18/10 Q1022;EQDQ01+000000PRSWM2
0170085240999992000110723004+33070-016340FM-15+0082LPPS V0200401N002112200019N0112651N1+01701+01001999999ADDGA1021+004809999GA2021+010509999GF104991999999999999999999MA1101901999999MW1001REMMET060LPPS 072300Z 04004KT 360V060 9999 SCT016 SCT035 17/10 Q1019;EQDQ01+000000PRSWM2
0235085240999992000110903004+33070-016340SY-MT+0082LPPS V0202801N002012200019N0200001N1+01351+01001101671ADDGA1021+005409999GF102991021011004501001001MA1101591100681MD1710051+9999MW1001REMSYN076AAXX  09031 08524 42470 22802 10135 20100 30068 40167 57005 82100 333 82818;MET045LPPS 090300Z 31001KT 9999 FEW018 15/09 Q1016;EQDQ01+000000PRSWM2
0139085240999992000111902004+33070-016340FM-15+0082LPPS V02099999999992200019N0112651N1+01601+00801999999ADDGA1021+005409999GF104991999999999999999999MA1102511999999MW1001REMMET045LPPS 190200Z VRB01KT 9999 SCT018 16/08 Q1025;EQDQ01+000000PRSWM2
0191085240999992000112214004+33070-016340FM-15+0082LPPS V0203001N003612200019N0112651N1+02001+01401999999ADDGA1021+005409999GA2021+024009999GF104991999999999999999999MA1101691999999MW1161REMMET065LPPS 221400Z 30007KT 270V330 9999 VCSH SCT018 SCT080 20/14 Q1017;EQDQ01+000003PRSWM1Q02    003PRSWM1
0162085240999992000112223004+33070-016340FM-15+0082LPPS V0203001N005712200019N0112651N1+01901+01701999999ADDGA1021+004809999GA2021+072009999GF104991999999999999999999MA1102001999999MW1001REMMET052LPPS 222300Z 30011KT 9999 SCT016 SCT240 19/17 Q1020;EQDQ01+000000PRSWM2
0139085240999992000113011004+33070-016340FM-15+0082LPPS V02099999999992200019N0112651N1+02201+01501999999ADDGA1021+005409999GF102991999999999999999999MA1101491999999MW1001REMMET045LPPS 301100Z VRB01KT 9999 FEW018 22/15 Q1015;EQDQ01+000000PRSWM2
0162085240999992000120407004+33070-016340FM-15+0082LPPS V0202301N006710720019N0112651N1+01901+01601999999ADDGA1021+004809999GA2071+072009999GF107991999999999999999999MA1101901999999MW1001REMMET052LPPS 040700Z 23013KT 9999 FEW016 BKN240 19/16 Q1019;EQDQ01+000000PRSWM2
0139085240999992000120523004+33070-016340FM-15+0082LPPS V0202301N000512200019N0112651N1+01901+01701999999ADDGA1021+004509999GF102991999999999999999999MA1101591999999MW1001REMMET045LPPS 052300Z 23001KT 9999 FEW015 19/17 Q1016;EQDQ01+000000PRSWM2
0235085240999992000120903004+33070-016340SY-MT+0082LPPS V0203301N002012200019N0200001N1+01401+00981102521ADDGA1021+005409999GF103991021021004501031001MA1102401101531MD1210011+9999MW1001REMSYN076AAXX  09031 08524 42470 33302 10140 20098 30153 40252 52001 82230 333 82818;MET045LPPS 090300Z 33001KT 9999 FEW018 15/10 Q1024;EQDQ01+000000PRSWM2
0147085240999992000120917004+33070-016340FM-15+0082LPPS V0202601N002610048019N0112651N1+01901+01101999999ADDGA1071+004809999GF107991999999999999999999MA1102511999999MW1001REMMET053LPPS 091700Z 26005KT 230V290 9999 BKN016 19/11 Q1025;EQDQ01+000000PRSWM2
0091085240999992000121116004+33070-016340FM-15+0082LPPS V0201501N00461220001CN0099001N1+02001+01501999999ADDMA1102511999999MW1001REMMET039LPPS 111600Z 15009KT CAVOK 20/15 Q1025;EQDQ01+000000PRSWM2
0139085240999992000121716004+33070-016340FM-15+0082LPPS V0209999C000012200019N0112651N1+01701+00801999999ADDGA1021+006009999GF102991999999999999999999MA1102301999999MW1001REMMET045LPPS 171600Z 00000KT 9999 FEW020 17/08 Q1023;EQDQ01+000000PRSWM2
0297085240999992000121718004+33070-016340SY-MT+0082LPPS V0202201N002012200019N0200001N1+01491+00861102391ADDAA199000091GA1021+006009999GF199999011011008001001001KA1120M+01881MA1102301101401MD1210021+9999MW1001REMSYN082AAXX  17181 08524 32570 12202 10149 20086 30140 40239 52002 81100 333 10188 81820;MET045LPPS 171800Z VRB01KT 9999 FEW020 16/08 Q1023;EQDQ01+000012SCOTCVQ02+000000PRSWM2Q03  00002PRCP99
0235085240999992000122015004+33070-016340SY-MT+0082LPPS V0202901N007012200019N0250001N1+01701+01041101501ADDGA1021+005409999GF102991021021004501001001MA1101391100531MD1710251+9999MW1001REMSYN076AAXX  20151 08524 42475 22907 10170 20104 30053 40150 57025 82200 333 82818;MET045LPPS 201500Z 28012KT 9999 FEW018 17/09 Q1014;EQDQ01+000000PRSWM2
0178085240999992000122420004+33070-016340FM-15+0082LPPS V0202901N00771220001CN0112651N1+01701+01201999999ADDGA1071+004809999GA2021+005409029GA3021+009009999MA1100911999999MW1001REMMET062LPPS 242000Z 29015KT 9999 BKN016 FEW018TCU SCT030 17/12 Q1009;EQDQ01+000042SCOTCVQ02+000000PRSWM2
0162085240999992000122511004+33070-016340FM-15+0082LPPS V0202301N003112200019N0112651N1+01901+01401999999ADDGA1021+004809999GA2021+024009999GF104991999999999999999999MA1100911999999MW1001REMMET052LPPS 251100Z 23006KT 9999 FEW016 SCT080 19/14 Q1009;EQDQ01+000000PRSWM2
0229085240999992000123003004+33070-016340SY-MT+0082LPPS V0203401N006012200019N0112651N1+01781+01651102461ADDGA1021+003609999GF104991999999999999999999MA1102401101481MD1210021+9999MW1001REMSYN070AAXX  30031 08524 42/// /3406 10178 20165 30148 40246 52002 333 91109;MET045LPPS 300300Z 32011KT 9999 SCT012 18/18 Q1024;EQDQ01+000000PRSWM2
0226085300999992000010718004+39350-009400FM-12+003499999V0200401N001512200019N0200001N1+01261+00891102471ADDAA106000091GA1001+999999999GF100991001001999999001001KA1999M+01601MA1999999102101MD1610091+9999UG1120302709REMSYN088AAXX  07184 08530 32970 00403 10126 20089 30210 40247 56009 222// 327// 41206 333 10160;EQDQ01  00002PRCP06
0184085300999992000022618004+39350-009400FM-12+003499999V0200401N001510075019N0150001N1+01281+01071102601ADDAA199000091GF106991061051008001999999KA1999M+01481MA1999999102221REMSYN088AAXX  26184 08530 32565 60403 10128 20107 30222 40260 865// 222// 332// 41004 333 10148;EQDQ01  00002PRCP99
0216085300999992000032918004+39350-009400FM-12+003499999V0203201N001019999999N0200001N1+01221+00491101071ADDAA199000091GF108991999999008001999999KA1999M+01421MA1999999100711MD1710141+9999UG1100203209REMSYN094AAXX  29184 08530 32570 83202 10122 20049 30071 40107 57014 8//// 222// 332// 41004 333 10142;EQDQ01  00002PRCP99
0210085300999992000082218004+39340-009390FM-12+003499999V0201801N003119999999N0200001N1+01981+01701101391ADDAA199000091GF106991999999008001999999KA1999M+02151MA1999999101031MD1710231+9999UG1090202709REMSYN088AAXX  22184 08530 32570 61806 10198 20170 30103 40139 57023 222// 327// 40904 333 10215;EQDQ01  00002PRCP99
0207085300999992000091012004+39340-009390FM-12+003499999V02099999999990003019N0005001N1+01701+01601101701ADDAA199000091AY141061AY241061GA1091+999999999GF109991091999999999999999MA1999999101341MD1210011+9999MW1451REMSYN072AAXX  10124 08530 32/05 9//// 10170 20160 30134 40170 52001 74544 89///;EQDQ01  00002PRCP99
0193085300999992000110512004+39340-009390FM-12+003499999V0202201N002610075019N0200001N1+01741+01641101611ADDAA106015091GF105991051051008001999999MA1999999101251MD1410001+9999UA1I109999999UG1110203209REMSYN090AAXX  05124 08530 32570 52205 10174 20164 30125 40161 54000 60151 855// 222// 332// 41104;
0200085300999992000111712004+39340-009390FM-12+003499999V0200401N001012200019N0200001N1+01341+00921102711ADDAA199000091GF102991999999008001999999MA1999999102331MD1210231+9999UA1I009999999UG1100153209REMSYN078AAXX  17124 08530 32570 20402 10134 20092 30233 40271 52023 222// 332// 41003;EQDQ01  00002PRCP99
0204085300999992000111806004+39340-009390FM-12+003499999V0200901N000519999999N0200001N1+01021+00601102731ADDAA199000091GF106991999999008001999999IA1019KA1120N+00951MA1999999102351MD1710041+9999REMSYN088AAXX  18064 08530 32570 60901 10102 20060 30235 40273 57004 333 20095 30/// 50037 55060;EQDQ01  00002PRCP99
0204085300999992000111906004+39340-009390FM-12+003499999V0201801N002119999999N0150001N1+01281+01251101931ADDAA199000091GF108991999999999999999999IA1099KA1120N+01251MA1999999101551MD1710361+9999REMSYN088AAXX  19064 08530 32/65 81804 10128 20125 30155 40193 57036 333 20125 31/// 50164 55001;EQDQ01  00002PRCP99
0219085300999992000120506004+39340-009390FM-12+003499999V0202201N004619999999N0200001N1+01641+01581100911ADDAA100011991AY161061AY221061GF108991999999999999999999IA1119KA1120N+01301MA1999999100551MD1710471+9999MW1621REMSYN100AAXX  05064 08530 11/70 82209 10164 20158 30055 40091 57047 60120 76262 333 20130 32/// 50044 55000;
0244085300999992000120806004+39340-009390FM-12+003499999V0202201N003610075019N0150001N1+01421+01071101011ADDAA112005191AY161061AY221061GF108991081051008001999999IA1119KA1120N+01251MA1999999100651MD1210582+9999MW1601REMSYN106AAXX  08064 08530 11565 82207 10142 20107 30065 40101 52058 60052 76062 885// 333 20125 32/// 50274 55040;EQDQ01+000582APC3  
0216085300999992000120918004+39340-009390FM-12+003499999V0201801N002610075019N0200001N1+01581+01311102161ADDAA199000091GF107991071051008001999999KA1999M+01661MA1999999101791MD1410001+9999UG1100202709REMSYN094AAXX  09184 08530 32570 71805 10158 20131 30179 40216 54000 875// 222// 327// 41004 333 10166;EQDQ01  00002PRCP99
0099085320999992000010713004+38830-009330FM-15+0130LPST V0200801N00211220001CN0099001N1+01401+00601999999ADDMA1102611999999MW1001REMMET047LPST 071300Z 08004KT CAVOK 14/06 Q1026 BLU/BLU;EQDQ01+000000PRSWM2
0199085320999992000011407004+38830-009330FM-15+0130LPST V0203601N007212200019N0112651N1+00601+00301999999ADDGA1021+006009999GA2021+006609099GA3021+010509999GF104991999999999999999999MA1101191999999MW1001REMMET073LPST 140700Z 36014KT 270V040 9999 FEW020 FEW022CB SCT035 06/03 Q1012 BLU;EQDQ01+000000PRSWM2
0173085320999992000011615004+38830-009330FM-12+013099999V0200701N00311220001SN0150001N1+01241+00421100911ADDGA1011+009009089GF102991011021008001031001MA1999999100291MD1810061+9999REMSYN090    AAXX  16154 08532 42565 20706 10124 20042 30029 40091 58006 81230 333 81830 555 60007;
0143085320999992000012913004+38830-009330FM-15+0130LPST V0200201N004112200019N0112651N1+01301+00701999999ADDGA1021+007509999GF102991999999999999999999MA1103121999999MW1001REMMET049LPST 291300Z 02008KT 9999 FEW025 13/07 Q1031 BLU;EQDQ01+000000PRSWM2
0143085320999992000020808004+38830-009330FM-15+0130LPST V0203001N004110075019N0112651N1+01201+00801999999ADDGA1071+007509999GF107991999999999999999999MA1103491999999MW1001REMMET049LPST 080800Z 30008KT 9999 BKN025 12/08 Q1035 BLU;EQDQ01+000000PRSWM2
0147085320999992000022914004+38830-009330FM-15+0130LPST V0203201N005112200019N0112651N1+01501+00801999999ADDGA1021+009009999GF102991999999999999999999MA1102811999999MW1001REMMET053LPST 291400Z 32010KT 9999 FEW030 15/08 Q1028 BLU/BLU;EQDQ01+000000PRSWM2
0095085320999992000030614004+38830-009330FM-15+0130LPST V0201601N00261220001CN0099001N1+01801+01001999999ADDMA1102611999999MW1001REMMET043LPST 061400Z 16005KT CAVOK 18/10 Q1026 BLU;EQDQ01+000000PRSWM2
0273085320999992000031518004+38830-009330SY-MT+0130LPST V0203001N00211220001CN0150001N1+01981+00721102431ADDAA199000091GF101991001001999999001011KA1120M+02421MA1102401100841MD1610021+9999MW1001REMSYN092AAXX  15184 08532 32965 13004 10198 20072 30084 40243 56002 80001 333 10242 81070 555 60007;MET043LPST 151800Z 30007KT CAVOK 20/07 Q1024 BLU;EQDQ01+000000PRSWM2Q02  00002PRCP99
0095085320999992000040606004+38830-009330FM-15+0130LPST V0201101N00311220001CN0099001N1+00801+00701999999ADDMA1101591999999MW1001REMMET043LPST 060600Z 11006KT CAVOK 08/07 Q1016 BLU;EQDQ01+000000PRSWM2
0334085320999992000040909004+38830-009330SY-MT+0130LPST V0200301N002110018019N0100001N1+01301+01161100371ADDAY161031AY221031GA1071+001809999GA2081+003609999GF108991081021001501999999MA1100311098781MD1210151+9999MW1021REMSYN116AAXX  09094 08532 41260 80304 10130 20116 39878 40037 52015 70262 882// 333 85706 85612 555 30108 41/// 50154 69927;MET056LPST 090900Z 03008KT 9999 BKN006 OVC012 13/12 Q1003 YLO;EQDQ01+000000PRSWM2Q02    003PRSWM1
0166085320999992000043013004+38830-009330FM-15+0130LPST V0201901N001510066019N0112651N1+01601+01001999999ADDGA1071+006609999GA2071+060009999GF107991999999999999999999MA1101081999999MW1001REMMET056LPST 301300Z 19003KT 9999 BKN022 BKN200 16/10 Q1011 WHT;EQDQ01+000000PRSWM2
0350085320999992000050606004+38830-009330SY-MT+0130LPST V0201001N001010360019N0100001N1+01321+01181100791ADDAA102000091GA1021+003909999GA2021+007509999GF106991041081004501051011GJ105649KA1120N+01201MA1100811099201MD1610041+9999MW1001REMSYN116AAXX  06064 08532 12460 61002 10132 20118 39920 40079 56004 60006 84851 333 20120 50204 55094 83813 83625 555 60062;MET056LPST 060600Z 10003KT 9999 SCT013 SCT025 13/12 Q1008 BLU;EQDQ01+000000PRSWM2Q02  00002PRCP02
0199085320999992000051018004+38830-009330FM-12+0130LPST V0202701N002612200019N0150001N1+01641+01191101461ADDAA199000021GA1041+007509089GF104991041021008001001001KA1120M+01861MA1999999099881MD1210051+9999REMSYN092AAXX  10184 08532 32565 42705 10164 20119 39988 40146 52005 84200 333 10186 84825 555 60007;
0195085320999992000051116004+38830-009330FM-15+0130LPST V0202401N004110600019N0112651N1+01901+01201999999ADDGA1021+007509999GA2021+008109099GA3071+060009999GF107991999999999999999999MA1101591999999MW1001REMMET069LPST 111600Z 24008KT 9999 SCT025 FEW027CB BKN200 19/12 Q1016 BLU/BLU;EQDQ01+000000PRSWM2
0155085320999992000052414004+38830-009330FM-15+0130LPST V0203201N006212200019N0112651N1+01901+01201999999ADDGA1021+007509999GF102991999999999999999999MA1102301999999MW1001REMMET061LPST 241400Z 32012KT 290V360 9999 FEW025 19/12 Q1023 BLU/BLU;EQDQ01+000000PRSWM2
0166085320999992000060507004+38830-009330FM-15+0130LPST V0203301N006210600019N0112651N1+01401+01001999999ADDGA1021+006609999GA2071+060009999GF107991999999999999999999MA1102101999999MW1001REMMET056LPST 050700Z 33012KT 9999 SCT022 BKN200 14/10 Q1021 BLU;EQDQ01+000000PRSWM2
0233085320999992000060709004+38830-009330SY-MT+0130LPST V0200701N001012200019N0150001N1+02541+00821101861ADDGF100991001001999999001001MA1101901100301MD1210021+9999MW1001REMSYN088AAXX  07094 08532 42965 00702 10254 20082 30030 40186 52002 555 30110 40/// 50004 60007;MET047LPST 070900Z 07004KT CAVOK 25/08 Q1019 BLU/BLU;EQDQ01+000000PRSWM2
0143085320999992000070713004+38820-009330FM-15+0130LPST V0203301N006712200019N0112651N1+02201+01401999999ADDGA1021+008109999GF104991999999999999999999MA1102101999999MW1001REMMET049LPST 071300Z 33013KT 9999 SCT027 22/14 Q1021 BLU;EQDQ01+000000PRSWM2
0175085320999992000071707004+38820-009330FM-15+0130LPST V0203101N00361220001CN0050001N1+01701+01601999999ADDGA1071+001209999GA2021+003909999MA1101021999999MW1101REMMET059LPST 170700Z 31007KT 5000 BR BKN004 SCT013 17/16 Q1010 YLO;EQDQ01+000042SCOTCVQ02+000003PRSWM1Q03    003PRSWM1
0170085320999992000071814004+38820-009330FM-15+0130LPST V0202601N003610066019N0112651N1+02001+01401999999ADDGA1021+006009999GA2081+006609999GF108991999999999999999999MA1101801999999MW1001REMMET060LPST 181400Z 26007KT 9999 SCT020 OVC022 20/14 Q1018 WHT/WHT;EQDQ01+000000PRSWM2
0352085320999992000072415004+38820-009330SY-MT+0130LPST V0202401N003110018019N0040001N1+02041+02011101441ADDAY161031AY251031GA1071+001809999GA2021+003609999GA3081+021009999GF108991071021001501071999MA1101391099881MD1810081+9999MW1101MW2511REMSYN110AAXX  24154 08532 41240 82406 10204 20201 39988 40144 58008 75165 8727/ 333 85706 83812 88457 96010 555 60017;MET074LPST 241500Z 24011KT 4000 -DZ BR BKN006 SCT012 OVC070 20/20 Q1014 YLO/YLO;EQDQ01    003PRSWM1
0340085320999992000072506004+38820-009330SY-MT+0130LPST V0203001N002110141019N0120001N1+01741+01681101261ADDAA112003091GA1021+001509999GA2071+014109999GF107991071081001501001001GJ100009KA1120N+01741MA1101191099691MD1610021+9999MW1001REMSYN122AAXX  25064 08532 11262 73004 10174 20168 39969 40126 56002 60032 700// 87800 333 20174 50074 55000 81705 85647 555 60032;MET056LPST 250600Z 30007KT 9999 FEW005 BKN047 17/17 Q1012 BLU;EQDQ01+000000PRSWM2
0147085320999992000082414004+38820-009330FM-15+0130LPST V0201901N007712200019N0112651N1+02301+01301999999ADDGA1021+007509999GF104991999999999999999999MA1101691999999MW1001REMMET053LPST 241400Z 19015KT 9999 SCT025 23/13 Q1017 BLU/BLU;EQDQ01+000000PRSWM2
0099085320999992000091414004+38820-009330FM-15+0130LPST V0203001N00311220001CN0099001N1+02601+01501999999ADDMA1101491999999MW1001REMMET047LPST 141400Z 30006KT CAVOK 26/15 Q1015 BLU/BLU;EQDQ01+000000PRSWM2
0151085320999992000091810004+38820-009330FM-15+0130LPST V0203401N004612200019N0112651N1+02101+01401999999ADDGA1021+006009999GF102991999999999999999999MA1101391999999MW1001REMMET057LPST 181000Z 34009KT 330V030 9999 FEW020 21/14 Q1014 BLU;EQDQ01+000000PRSWM2
0169085320999992000093011004+38820-009330FM-15+0130LPST V0203401N006712200019N0112651N1+01901+01201999999ADDGA1021+006009999GA2021+006609029GF102991999999999999999999MA1101691999999MW1001REMMET059LPST 301100Z 34013KT 9999 SCT020 FEW022TCU 19/12 Q1017 BLU;EQDQ01+000000PRSWM2
0143085320999992000100507004+38820-009330FM-15+0130LPST V0203501N004110024019N0090001N1+01701+01601999999ADDGA1071+002409999GF107991999999999999999999MA1101801999999MW1001REMMET049LPST 050700Z 35008KT 9000 BKN008 17/16 Q1018 GRN;EQDQ01+000000PRSWM2
0143085320999992000103108004+38820-009330FM-15+0130LPST V0209999C000012200019N0112651N1+00901+00901999999ADDGA1021+006009999GF102991999999999999999999MA1101801999999MW1001REMMET049LPST 310800Z 00000KT 9999 FEW020 09/09 Q1018 BLU;EQDQ01+000000PRSWM2
0166085320999992000110107004+38820-009330FM-15+0130LPST V0209999C000012200019N0112651N1+00501+00401999999ADDGA1021+006609999GA2021+010509999GF104991999999999999999999MA1102001999999MW1001REMMET056LPST 010700Z 00000KT 9999 FEW022 SCT035 05/04 Q1020 BLU;EQDQ01+000000PRSWM2
0256085320999992000111206004+38820-009330FM-12+0130LPST V0202601N000510120019N0120001N1+00801+00681101641ADDAA199000091GA1041+012009069GF106991061081008001001001GJ104089KA1120N+00681MA1999999100001MD1710181+9999MW1001REMSYN116AAXX  12064 08532 31562 62601 10080 20068 30000 40164 57018 700// 86800 333 20068 50154 55068 52822 84640 555 60002;EQDQ01  00002PRCP99
0275085320999992000111906004+38820-009330FM-12+0130LPST V0201501N001510021019N0060001N1+01201+01131102041ADDAA112002091AY151061AY251061GA1061+002109079GA2051+002709079GF108991081071002501999999GJ103729KA1120N+00941MA1999999100421MD1710141+9999MW1511REMSYN122AAXX  19064 08532 11356 81503 10120 20113 30042 40204 57014 60022 75155 887// 333 20094 50134 55062 86707 85709 555 60022;
0093085320999992000111917004+38820-009330FM-15+0130LPST V02099999999992200019N0008001N1+99999+99999999999ADDMW1001REMMET056LPST 191700Z /////KT 8000 SCT008 SCT012 15/14 Q1018 BLU;EQDQ01+000000PRSWM2
0411085320999992000112215004+38820-009330SY-MT+0130LPST V0202201N005110042019N0060001N1+01541+01411101141ADDAY161031AY251031GA1011+002109069GA2031+003309029GA3051+004209059GA4081+021009079GF108991071081002501071999MA1999999099551MD1710131+9999MW1601OA149900931REMSYN128AAXX  22154 08532 41356 82210 10154 20141 39955 40114 57013 76065 8787/ 333 81707 83811 85614 88357 91016 91118 96010 555 60057;MET078LPST 221500Z /////KT 6000 -RA FEW007 SCT011 BKN014 OVC070 15/14 Q1011 GRN/GRN;EQDQ01+000000PRSWM2Q02    003PRSWM1
0090085320999992000112313004+38820-009330FM-15+0130LPST V02099999999992200019N0112651N1+99999+99999999999ADDMW1001REMMET053LPST 231300Z /////KT 9999 SCT022 15/10 Q1018 BLU/BLU;EQDQ01+000000PRSWM2
0104085320999992000112813004+38820-009330FM-15+0130LPST V02099999999992200019N0140001N1+99999+99999999999ADDMW1001REMMET067LPST 281300Z /////KT 9999 FEW015 BKN022 BKN090 18/15 Q1011 WHT/WHT;EQDQ01+000000PRSWM2
0237085320999992000121506004+38820-009330FM-12+0130LPST V0209999C000012200019N0120001N1+00801+00681102461ADDAA112000791GA1011+004509089GF101991011011004501001001GJ100669KA1120N+00741MA1999999100811MD1110021+9999MW1001REMSYN116AAXX  15064 08532 11462 10000 10080 20068 30081 40246 51002 69902 700// 81100 333 20074 50094 55011 81815 555 69902;
0117085320999992000121510004+38820-009330FM-15+0130LPST V02099999999992200019N0112651N1+99999+99999999999ADDMW1001REMMET080LPST 151000Z /////KT 9999 FEW022 11/07 Q1025 RMK ESTIMATED WIND 35004KT BLU/BLU;EQDQ01+000000PRSWM2
0129085320999992000122408004+38820-009330FM-15+0130LPST V02099999999992200019N0112651N1+99999+99999999999ADDMW1001REMMET092LPST 240800Z /////KT 9999 SCT015 FEW020CB BKN030 10/09 Q0994 RMK ESTIMATED WIND 22005KT BLU;EQDQ01+000000PRSWM2
0135085320999992000122411004+38820-009330FM-15+0130LPST V02099999999992200019N0112651N1+99999+99999999999ADDMW1001REMMET098LPST 241100Z /////KT 9999 -SHRA SCT016 FEW020CB BKN200 13/10 Q0997 RMK ESTIMATED WIND 27005KT BLU;EQDQ01+000000PRSWM2
0374085320999992000122415004+38820-009330SY-MT+0130LPST V0202601N002610600019N0150001N1+01301+00981099701ADDAY181031AY221031GA1031+006009029GA2011+007209099GA3051+060009019GF107991041091008001001031MA1999999098121MD1510001+9999MW1021REMSYN104AAXX  24154 08532 41565 72605 10130 20098 39812 49970 55000 70282 84903 333 83820 81924 85070 555 69957;MET092LPST 241500Z /////KT 9999 SCT020 FEW024CB BKN200 13/10 Q0997 RMK ESTIMATED WIND 26009KT BLU;EQDQ01+000000PRSWM2Q02    003PRSWM1
0095085340999992000011008004+38700-009030FM-15+0011LPMT V0200401N00461220001CN0099001N1+00601+00401999999ADDMA1102811999999MW1001REMMET043LPMT 100800Z 04009KT CAVOK 06/04 Q1028 BLU;EQDQ01+000000PRSWM2
0095085340999992000012317004+38700-009030FM-15+0011LPMT V0203601N00261220001CN0099001N1+01101+00601999999ADDMA1102001999999MW1001REMMET043LPMT 231700Z 36005KT CAVOK 11/06 Q1020 BLU;EQDQ01+000000PRSWM2
0369085340999992000012806004+38700-009030SY-MT+0011LPMT V0200501N001512200019N0080001N1+00721+00601102561ADDAA199000091AY101061AY201061GA1021+010509999GF199999011051012501001011GJ102949KA1120N+00701MA1102511102391MD1110021+9999MW1101REMSYN110AAXX  28064 08534 31658 10503 10072 20060 30239 40256 51002 71000 81501 333 20070 50164 55049 81635 555 60002;MET049LPMT 280600Z 05006KT 8000 FEW035 07/06 Q1025 BLU;EQDQ01+000012SCOTCVQ02+000000PRSWM2Q03  00002PRCP99Q04    003PRSWM1
0145085340999992000012908004+38700-009030FM-15+0011LPMT V0209999C000012200019N0009001N1+00601+00501999999ADDGF100991999999999999999999MA1102911999999MW1121REMMET051LPMT 290800Z 00000KT 0900 MIFG SKC 06/05 Q1029 AMB;EQDQ01+000003PRSWM1Q02    003PRSWM1
0226085340999992000013006004+38700-009030FM-12+0011LPMT V0200501N002112200019N0100001N1+00661+00531103221ADDAA199000091GA1001+999999999GF100991001001999999001001GJ105829KA1120N+00641MA1999999103051MD1610061+9999REMSYN092AAXX  30064 08534 32960 00504 10066 20053 30305 40322 56006 333 20064 50214 55097 555 60002;EQDQ01  00002PRCP99
0099085340999992000013114004+38700-009030FM-15+0011LPMT V0203601N00211220001CN0099001N1+01401+00801999999ADDMA1102711999999MW1001REMMET047LPMT 311400Z 36004KT CAVOK 14/08 Q1027 BLU/BLU;EQDQ01+000000PRSWM2
0192085340999992000013116004+38700-009030FM-15+0011LPMT V0201701N004110600019N0112651N1+01701+01001999999ADDGA1021+012009999GA2021+024009999GA3071+060009999GF107991999999999999999999MA1102611999999MW1001REMMET066LPMT 311600Z 17008KT 9999 FEW040 SCT080 BKN200 17/10 Q1026 BLU/BU;EQDQ01+000000PRSWM2
0161085340999992000020207004+38700-009030FM-15+0011LPMT V0209999C00001000151CN0005001N1+01101+01101999999ADDGA1091+000159999GF109991999999000251999999MA1103121999999MW1451REMMET051LPMT 020700Z 00000KT 0500 FG VV001 11/11 Q1031 RED;EQDQ01+000003PRSWM1Q02    003PRSWM1
0218085340999992000021518004+38700-009030FM-12+0011LPMT V0203601N002612200019N0100001N1+01421+01181102901ADDAA199000091GA1011+006009089GF103991011021008001001011KA1120M+01741MA1999999102731MD1310011+9999REMSYN092AAXX  15184 08534 32560 33605 10142 20118 30273 40290 53001 81201 333 10174 81820 555 60007;EQDQ01  00002PRCP99
0147085340999992000022317004+38700-009030FM-15+0011LPMT V0203601N004612200019N0112651N1+02001+01501999999ADDGA1021+007509999GF102991999999999999999999MA1102611999999MW1001REMMET053LPMT 231700Z 36009KT 9999 FEW025 20/15 Q1026 BLU/BLU;EQDQ01+000000PRSWM2
0162085340999992000022813004+38700-009030FM-15+0011LPMT V02099999999990600019N0050001N1+01701+01301999999ADDGA1071+060009999GF107991999999999999999999MA1102811999999MW1101REMMET052LPMT 281300Z VRB03KT 5000 BR BKN200 17/13 Q1028 WHT;EQDQ01+000003PRSWM1Q02    003PRSWM1
0099085340999992000022913004+38700-009030FM-15+0011LPMT V0200201N00261220001CN0099001N1+01601+01001999999ADDMA1102911999999MW1001REMMET047LPMT 291300Z 02005KT CAVOK 16/10 Q1029 BLU/BLU;EQDQ01+000000PRSWM2
0166085340999992000030611004+38700-009030FM-15+0011LPMT V0201301N002610600019N0080001N1+01401+01001999999ADDGA1021+030009999GA2071+060009999GF107991999999999999999999MA1102611999999MW1001REMMET056LPMT 061100Z 13005KT 8000 SCT100 BKN200 14/10 Q1026 BLU;EQDQ01+000000PRSWM2
0240085340999992000030618004+38700-009030FM-12+0011LPMT V0203301N000510600019N0100001N1+01641+01301102471ADDAA199000091GA1021+030009039GA2061+060009009GF107991021001999999031011KA1120M+01941MA1999999102301MD1610071+9999REMSYN098AAXX  06184 08534 32960 73301 10164 20130 30230 40247 56007 82031 333 10194 82360 86070 555 60007;EQDQ01  00002PRCP99
0170085340999992000030911004+38700-009030FM-15+0011LPMT V0200201N003110300019N0112651N1+01701+01201999999ADDGA1021+007509999GA2071+030009999GF107991999999999999999999MA1102811999999MW1001REMMET060LPMT 091100Z 02006KT 9999 SCT025 BKN100 17/12 Q1028 BLU/BLU;EQDQ01+000000PRSWM2
0300085340999992000031009004+38700-009030SY-MT+0011LPMT V0200401N00151090001CN0100001N1+01401+00851102381ADDGA1021+007509999GA2021+060009999GF105991011021008001031011MA1102301102211MD1310171+9999MW1001REMSYN110AAXX  10094 08534 42560 50403 10140 20085 30221 40238 53017 81231 333 81825 83070 555 30122 40/// 50004 60007;MET060LPMT 100900Z 04006KT 9999 FEW025 SCT200 14/09 Q1023 BLU/BLU;EQDQ01+000000PRSWM2
0095085340999992000031908004+38700-009030FM-15+0011LPMT V0200301N00261220001CN0099001N1+01301+01101999999ADDMA1101801999999MW1001REMMET043LPMT 190800Z 03005KT CAVOK 13/11 Q1018 BLU;EQDQ01+000000PRSWM2
0245085340999992000031909004+38700-009030SY-MT+0011LPMT V0200501N00101220001CN0100001N1+01381+01031101841ADDGF101991001001999999001041MA1101801101671MD1410001+9999MW1001REMSYN104AAXX  19094 08534 42960 10502 10138 20103 30167 40184 54000 80004 333 81070 555 30124 40/// 50004 60007;MET043LPMT 190900Z 05004KT CAVOK 14/10 Q1018 BLU;EQDQ01+000000PRSWM2
0173085340999992000032316004+38700-009030FM-15+0011LPMT V0203501N005112200019N0112651N1+01601+01101999999ADDGA1021+006009999GA2021+007509029GF102991999999999999999999MA1101391999999MW1001REMMET063LPMT 231600Z 35010KT 9999 SCT020 FEW025TCU 16/11 Q1014 BLU/BLU;EQDQ01+000000PRSWM2
0147085340999992000033014004+38700-009030FM-15+0011LPMT V0202701N004112200019N0112651N1+01601+01201999999ADDGA1021+006009999GF104991999999999999999999MA1101081999999MW1001REMMET053LPMT 301400Z 27008KT 9999 SCT020 16/12 Q1011 BLU/BLU;EQDQ01+000000PRSWM2
0155085340999992000033111004+38700-009030FM-15+0011LPMT V0200701N002112200019N0112651N1+01601+01001999999ADDGA1021+007509999GF102991999999999999999999MA1101591999999MW1001REMMET061LPMT 311100Z 07004KT 040V100 9999 FEW025 16/10 Q1016 BLU/BLU;EQDQ01+000000PRSWM2
0166085340999992000040107004+38700-009030FM-15+0011LPMT V0200801N001012200019N0080001N1+00601+00501999999ADDGA1021+024009999GA2021+060009999GF104991999999999999999999MA1100811999999MW1001REMMET056LPMT 010700Z 08002KT 8000 SCT080 SCT200 06/05 Q1008 BLU;EQDQ01+000000PRSWM2
0216085340999992000040311004+38700-009030FM-15+0011LPMT V0202901N006212200019N0112651N1+01201+01001999999ADDGA1021+006609999GA2021+008109099GA3021+060009999GF104991999999999999999999MA1099591999999MW1161REMMET074LPMT 031100Z 29012KT 9999 VCSH SCT022 FEW027CB SCT200 12/10 Q0996 BLU/BLU;EQDQ01+000003PRSWM1Q02    003PRSWM1
0184085340999992000041010004+38700-009030FM-15+0011LPMT V0203601N005712200019N0112651N1+01401+00901999999ADDGA1021+006009999GA2021+007509029GF102991999999999999999999MA1101081999999MW1001OC101081REMMET066LPMT 101000Z 36011G21KT 9999 SCT020 FEW025TCU 14/09 Q1011 BLU/BLU;EQDQ01+000000PRSWM2
0319085340999992000042706004+38700-009030FM-12+0011LPMT V0203101N003110240019N0100001N1+01021+00911101271ADDAA112007191AY181061AY221061GA1021+006009089GA2011+007509099GA3031+012009069GA4051+024009039GF107991041091008001071001GJ106489KA1120N+01001MA1999999101101MD1210061+9999MW1001REMSYN134AAXX  27064 08534 11560 73106 10102 20091 30110 40127 52006 60072 70082 84970 333 20100 50294 55108 82820 81925 83640 85358 555 60072;
0404085340999992000042906004+38700-009030SY-MT+0011LPMT V0202001N002610054019N0020001N1+01181+01111100961ADDAA112007191AY161061AY261061GA1021+002409999GA2071+005409999GA3081+021009999GF108991071051002501021999GJ101929KA1120N+01181MA1100911100791MD1710201+9999MW1101MW2611REMSYN134AAXX  29064 08534 11320 82005 10118 20111 30079 40096 57020 60072 76166 8752/ 333 20118 50304 55032 83708 85618 88457 96010 555 60072;MET070LPMT 290600Z 20010KT 2000 -RA BR SCT008 BKN018 OVC070 12/11 Q1009 YLO;EQDQ01    003PRSWM1
0316085340999992000050309004+38700-009030SY-MT+0011LPMT V0201301N002110600019N0100001N1+01721+01321100821ADDGA1021+006009999GA2071+060009999GF199999011081008001031041MA1100811100651MD1210051+9999MW1001REMSYN110AAXX  03094 08534 42560 61304 10172 20132 30065 40082 52005 81834 333 81820 85070 555 30124 40/// 50004 60007;MET060LPMT 030900Z 13008KT 9999 FEW020 BKN200 17/13 Q1008 BLU/BLU;EQDQ01+000062SCOTCVQ02+000000PRSWM2
0286085340999992000051212004+38700-009030SY-MT+0011LPMT V0203501N001012200019N0100001N1+02221+01381101741ADDAA199000091GA1021+006009999GF102991021021008001001011MA1101691101571MD1010021+9999MW1001REMSYN092AAXX  12124 08534 32560 23502 10222 20138 30157 40174 50002 82201 333 82820 555 59954 60007;MET053LPMT 121200Z 35003KT 9999 FEW020 22/14 Q1017 BLU/BLU;EQDQ01+000000PRSWM2Q02  00002PRCP99
0269085340999992000051515004+38700-009030SY-MT+0011LPMT V0203501N003110600019N0100001N1+02641+01731101471ADDGA1011+027009039GA2051+060009009GF105991011001999999051041MA1101391101301MD1710131+9999MW1001REMSYN092AAXX  15154 08534 42960 53506 10264 20173 30130 40147 57013 81054 333 81359 85070 555 60007;MET047LPMT 151500Z 35012KT CAVOK 26/17 Q1014 BLU/BLU;EQDQ01+000000PRSWM2
0099085340999992000051816004+38700-009030FM-15+0011LPMT V0203401N00571220001CN0099001N1+02401+01501999999ADDMA1101491999999MW1001REMMET047LPMT 181600Z 34011KT CAVOK 24/15 Q1015 BLU/BLU;EQDQ01+000000PRSWM2
0272085340999992000052106004+38700-009030FM-12+0011LPMT V0201401N001010120019N0050001N1+01541+01341100951ADDAA199000091GA1031+006009089GA2061+012009069GF108991071081008001031999GJ102649KA1120N+01481MA1999999100781MD1310031+9999MW1101REMSYN116AAXX  21064 08534 31550 81402 10154 20134 30078 40095 53003 710// 8783/ 333 20148 50254 55044 83820 86640 555 60002;EQDQ01  00002PRCP99
0171085340999992000052116004+38700-009030FM-15+0011LPMT V0202201N003110300019N0112651N1+02101+01501999999ADDGA1021+009009999GA2021+010509029GA3071+030009999GF107991999999999999999999MW1001REMMET060LPMT 211600Z 22006KT 9999 SCT030 FEW035TCU BKN100 21/15 BLU;EQDQ01+000000PRSWM2
0240085340999992000052418004+38700-009030FM-12+0011LPMT V0203501N004112200019N0100001N1+01901+01591102181ADDAA199000091GA1021+007509089GA2041+060009009GF104991021021008001001041KA1120M+02261MA1999999102011MD1210041+9999REMSYN098AAXX  24184 08534 32560 43508 10190 20159 30201 40218 52004 82204 333 10226 82825 84070 555 60007;EQDQ01  00002PRCP99
0170085340999992000052514004+38700-009030FM-15+0011LPMT V0202901N004110075019N0112651N1+02101+01601999999ADDGA1021+006009999GA2071+007509999GF107991999999999999999999MA1102201999999MW1001REMMET060LPMT 251400Z 29008KT 9999 FEW020 BKN025 21/16 Q1022 BLU/BLU;EQDQ01+000000PRSWM2
0095085340999992000052713004+38700-009030FM-15+0011LPMT V0200101N00311220001CN0099001N1+02101+01101999999ADDMA1102101999999MW1001REMMET043LPMT 271300Z 01006KT CAVOK 21/11 Q1021 BLU;EQDQ01+000000PRSWM2
0295085340999992000060415004+38700-009030SY-MT+0011LPMT V0203501N003612200019N0100001N1+02141+01481101881ADDGA1021+007509999GA2021+060009999GF103991011021008001001041MA1101801101711MD1210061+9999MW1001OA149900621REMSYN098AAXX  04154 08534 42560 33507 10214 20148 30171 40188 52006 81204 333 81825 83070 91112 555 60007;MET056LPMT 041500Z 35014KT 9999 FEW025 SCT200 21/15 Q1018 BLU;EQDQ01+000000PRSWM2
0169085340999992000060915004+38700-009030FM-12+0011LPMT V0203401N004112200019N0100001N1+01961+01041101951ADDGA1041+007509089GF105991041081008001001011MA1999999101781MD1310021+9999REMSYN086AAXX  09154 08534 42560 53408 10196 20104 30178 40195 53002 84801 333 84825 555 60007;
0272085340999992000061306004+38700-009030SY-MT+0011LPMT V0200401N001012200019N0100001N1+02181+01761101931ADDAA199000091GF100991001001999999001001KA1120N+02101MA1101901101761MD1310061+9999MW1001REMSYN091AAXX  13064 08534 32960 00402 10218 20176 30176 40193 53006 333 20210 50784 5513 555 60002;MET043LPMT 130600Z 02004KT CAVOK 22/18 Q1019 BLU;EQDQ01+000000PRSWM2Q02  00002PRCP99
0305085340999992000061706004+38690-009290SY-MT+0011LPMT V0209999C000012200019N0040001N1+01781+01591101391ADDAA112000091AY101061AY201061GF100991001001999999001001GJ107629KA1120N+01741MA1101291101221MD1410001+9999MW1101REMSYN094AAXX  17064 08534 31940 00000 10178 20159 30122 40139 54000 71000 333 20174 50754 55127 60002;MET049LPMT 170600Z 00000KT 4000 BR SKC 18/16 Q1013 GRN;EQDQ01  00002PRCP12Q02    003PRSWM1
0185085340999992000062808004+38690-009290FM-15+0011LPMT V0201401N002110060019N0050001N1+01801+01601999999ADDGA1021+003309999GA2071+006009999GF107991999999999999999999MA1102001999999MW1101REMMET059LPMT 280800Z 14004KT 5000 BR SCT011 BKN020 18/16 Q1020 WHT;EQDQ01+000003PRSWM1Q02    003PRSWM1
0168085340999992000070408004+38690-009290FM-15+0011LPMT V0203601N001012200019N0112651N1+01901+01601999999ADDGA1021+006609999GA2021+007509099GF102991999999999999999999MA1101691999999MW1001REMMET058LPMT 040800Z 36002KT 9999 FEW022 FEW025CB 19/16 Q1017 BLU;EQDQ01+000000PRSWM2
0166085340999992000070710004+38690-009290FM-15+0011LPMT V0203501N002610120019N0112651N1+02301+01601999999ADDGA1021+006009999GA2071+012009999GF107991999999999999999999MA1102001999999MW1001REMMET056LPMT 071000Z 35005KT 9999 FEW020 BKN040 23/16 Q1020 BLU;EQDQ01+000000PRSWM2
0103085340999992000070913004+38690-009290FM-15+0011LPMT V0200601N00211220001CN0099001N1+03101+01701999999ADDMA1101491999999MW1001REMMET051LPMT 091300Z 06004KT 010V120 CAVOK 31/17 Q1015 BLU;EQDQ01+000000PRSWM2
0099085340999992000071308004+38690-009290FM-15+0011LPMT V0200401N00211220001CN0099001N1+02001+01401999999ADDMA1101801999999MW1001REMMET047LPMT 130800Z 04004KT CAVOK 20/14 Q1018 BLU/BLU;EQDQ01+000000PRSWM2
0143085340999992000072605004+38690-009020FM-15+0011LPMT V02099999999992200019N0112651N1+01701+01701999999ADDGA1021+004509999GF104991999999999999999999MA1101391999999MW1001REMMET049LPMT 260500Z VRB01KT 9999 SCT015 17/17 Q1014 BLU;EQDQ01+000000PRSWM2
0099085340999992000080210004+38690-009020FM-15+0011LPMT V0200201N00411220001CN0099001N1+02201+01601999999ADDMA1102101999999MW1001REMMET047LPMT 021000Z 02008KT CAVOK 22/16 Q1021 BLU/BLU;EQDQ01+000000PRSWM2
0309085340999992000081906004+38690-009020SY-MT+0011LPMT V0209999C000012200019N0100001N1+01541+01411101271ADDAA199000091GA1011+027009079GF102991011001999999051041GJ107029KA1120N+01461MA1101191101101MD1510011+9999MW1001REMSYN104AAXX  19064 08534 32960 20000 10154 20141 30110 40127 55001 81054 333 20146 50564 55117 81359 555 60002;MET043LPMT 190600Z 00000KT CAVOK 15/14 Q1012 BLU;EQDQ01+000000PRSWM2Q02  00002PRCP99
0233085340999992000082809004+38690-009020SY-MT+0011LPMT V0200501N00051220001CN0100001N1+02121+01591101791ADDGF100991001001999999001001MA1101691101621MD1210061+9999MW1001REMSYN088AAXX  28094 08534 42960 00501 10212 20159 30162 40179 52006 555 30162 40/// 50004 60007;MET047LPMT 280900Z 05002KT CAVOK 21/16 Q1017 BLU/BLU;EQDQ01+000000PRSWM2
0218085340999992000082918004+38690-009020FM-12+0011LPMT V0203601N003612200019N0100001N1+02541+01501101561ADDAA199000091GA1031+060009009GF103991001001999999001011KA1120M+02841MA1999999101391MD1510041+9999REMSYN092AAXX  29184 08534 32960 33607 10254 20150 30139 40156 55004 80001 333 10284 83070 555 60007;EQDQ01  00002PRCP99
0128085340999992000083108004+38690-009020FM-15+0011LPMT V0203601N005112200019N0080001N1+01901+01501999999ADDGF100991999999999999999999MA1101291999999MW1001REMMET050LPMT 310800Z 36010KT 8000 SKC 19/15 Q1013 BLU/BLU;EQDQ01+000000PRSWM2
0192085340999992000091611004+38690-009020FM-15+0011LPMT V02099999999992200019N0112651N1+02401+01801999999ADDGA1021+004509999GA2021+006009999GA3021+006609029GF102991999999999999999999MA1101801999999MW1001REMMET066LPMT 161100Z VRB02KT 9999 FEW015 SCT020 FEW022TCU 24/18 Q1018 BLU;EQDQ01+000000PRSWM2
0191085340999992000091714004+38690-009020FM-15+0011LPMT V0202801N005712200019N0112651N1+02401+02001999999ADDGA1021+004509999GA2021+005409099GA3021+060009999GF104991999999999999999999MA1101391999999MW1001REMMET065LPMT 171400Z 28011KT 9999 SCT015 FEW018CB SCT200 24/20 Q1014 BLU;EQDQ01+000000PRSWM2
0309085340999992000091715004+38690-009020SY-MT+0011LPMT V0202801N003110600019N0100001N1+02401+02081101421ADDGA1021+004509999GA2021+005409099GA3021+060009999GF105991041031004501001041MA1101391101251MD1710121+9999MW1001REMSYN098AAXX  17154 08534 42460 52806 10240 20208 30125 40142 57012 84304 333 83815 81918 84070 555 60007;MET065LPMT 171500Z 28012KT 9999 SCT015 FEW018CB SCT200 24/21 Q1014 BLU;EQDQ01+000000PRSWM2
0143085340999992000091810004+38690-009020FM-15+0011LPMT V0200201N006212200019N0112651N1+02201+01601999999ADDGA1021+006009999GF104991999999999999999999MA1101291999999MW1001REMMET049LPMT 181000Z 02012KT 9999 SCT020 22/16 Q1013 BLU;EQDQ01+000000PRSWM2
0170085340999992000092710004+38690-009020FM-15+0011LPMT V0200101N003112200019N0112651N1+02101+01401999999ADDGA1021+004509999GA2021+060009999GF104991999999999999999999MA1102101999999MW1001REMMET060LPMT 271000Z 01006KT 9999 FEW015 SCT200 21/14 Q1021 BLU/BLU;EQDQ01+000000PRSWM2
0325085340999992000101606004+38690-009020SY-MT+0011LPMT V0203301N001012200019N0100001N1+01241+01061101711ADDAA199000091GA1011+024009079GF101991011999022501031001GJ102469KA1120N+01221MA1101691101541MD1210181+9999MW1001REMSYN104AAXX  16064 08534 32860 13302 10124 20106 30154 40171 52018 81030 333 20122 50144 55041 81358 555 60002;MET043LPMT 160600Z 33003KT CAVOK 12/11 Q1017 BLU;EQDQ01+000000PRSWM2Q02  00002PRCP99Q03    003SCOLCG
0166085340999992000110111004+38690-009020FM-15+0011LPMT V0202101N002110240019N0112651N1+01501+01301999999ADDGA1021+012009999GA2071+024009999GF107991999999999999999999MA1102101999999MW1001REMMET056LPMT 011100Z 21004KT 9999 FEW040 BKN080 15/13 Q1021 BLU;EQDQ01+000000PRSWM2
0143085340999992000111707004+38690-009020FM-15+0011LPMT V0203601N004112200019N0112651N1+01001+00801999999ADDGA1021+007509999GF102991999999999999999999MA1102511999999MW1001REMMET049LPMT 170700Z 36008KT 9999 FEW025 10/08 Q1025 BLU;EQDQ01+000000PRSWM2
0173085340999992000112316004+38690-009020FM-15+0011LPMT V0203401N005112200019N0112651N1+01601+01101999999ADDGA1021+007509999GA2021+007809029GF102991999999999999999999MA1101801999999MW1001REMMET063LPMT 231600Z 34010KT 9999 SCT025 FEW026TCU 16/11 Q1018 BLU/BLU;EQDQ01+000000PRSWM2
0189085340999992000120610004+38690-009020FM-15+0011LPMT V0201401N002110240019N0060001N1+01501+01301999999ADDGA1021+001809999GA2021+003609999GA3081+024009999GF108991999999999999999999MA1101391999999MW1001REMMET063LPMT 061000Z 14004KT 6000 FEW006 SCT012 OVC080 15/13 Q1014 WHT;EQDQ01+000000PRSWM2
0324085340999992000121618004+38690-009020SY-MT+0011LPMT V0209999C000010120019N0100001N1+01041+00601102351ADDAA199000091GA1021+011409999GA2071+012009999GF106991061081012501001001KA1120M+01161MA1102301102181MD1410001+9999MW1001REMSYN098AAXX  16184 08534 32660 60000 10104 20060 30218 40235 54000 86800 333 10116 81838 86640 555 60007;MET056LPMT 161800Z 00000KT 9999 FEW038 BKN040 10/06 Q1023 BLU;EQDQ01+000000PRSWM2Q02  00002PRCP99
0189085340999992000121814004+38690-009020FM-15+0011LPMT V0201801N007710075019N0112651N1+01501+01301999999ADDGA1021+004209999GA2071+007509999GA3071+024009999GF107991999999999999999999MA1101801999999MW1001REMMET063LPMT 181400Z 18015KT 9999 FEW014 BKN025 BKN080 15/13 Q1018 BLU;EQDQ01+000000PRSWM2
0228085340999992000122108004+38690-009020FM-15+0011LPMT V0201401N010810060019N0040001N1+01001+00901999999ADDGA1021+002109999GA2071+006009999GA3071+021009999GF107991999999999999999999MA1100101999999MW1511MW2611OC101591REMMET072LPMT 210800Z 14021G31KT 4000 -RADZ SCT007 BKN020 BKN070 10/09 Q1001 GRN;EQDQ01+000003PRSWM1Q02    003PRSWM1
0189085340999992000123110004+38690-009020FM-15+0011LPMT V0202101N005710090019N0112651N1+01501+01401999999ADDGA1021+003309999GA2071+009009999GA3071+024009999GF107991999999999999999999MA1101801999999MW1001REMMET063LPMT 311000Z 21011KT 9999 SCT011 BKN030 BKN080 15/14 Q1018 BLU;EQDQ01+000000PRSWM2
0153085360999992000010214004+38780-009130FM-15+0123LPPT V0200901N002112200019N0112651N1+01201+00801999999ADDGA1021+009009999GF102991999999999999999999MA1102711999999MW1001REMMET059LPPT 021400Z 09004KT 060V120 9999 FEW030 12/08 Q1027 NOSIG;EQDQ01+000000PRSWM2
0145085360999992000010420004+38780-009130FM-15+0123LPPT V02099999999992200019N0080001N1+00901+00801999999ADDGA1021+004809999GF102991999999999999999999MA1102811999999MW1001REMMET051LPPT 042000Z VRB02KT 8000 FEW016 09/08 Q1028 NOSIG;EQDQ01+000000PRSWM2
0192085360999992000011409004+38780-009130FM-15+0123LPPT V0203401N008712200019N0112651N1+00701+00601999999ADDGA1021+004509999GA2021+007509099GF102991999999999999999999MA1101081999999MW1801REMMET066LPPT 140900Z 34017KT 9999 -SHRA SCT015 FEW025CB 07/06 Q1011 NOSIG;EQDQ01+000003PRSWM1Q02    003PRSWM1
0194085360999992000011507304+38780-009130FM-15+0123LPPT V0200601N004110001519N0003001N1+00301+00301999999ADDED199U04009GA1091+000159999GF109991999999000251999999MA1101021999999MW1451REMMET073LPPT 150830Z 06008KT 0300 R03/0400N R21/0350N FG VV000 03/03 Q1010 NOSIG;EQDQ01+000003PRSWM1Q02    003PRSWM1
0153085360999992000011710004+38780-009130FM-15+0123LPPT V0200601N003610036019N0112651N1+00901+00701999999ADDGA1071+003609999GF107991999999999999999999MA1102511999999MW1001REMMET059LPPT 171000Z 06007KT 030V090 9999 BKN012 09/07 Q1025 NOSIG;EQDQ01+000000PRSWM2
0153085360999992000012717004+38780-009130FM-15+0123LPPT V0200301N003110120019N0112651N1+01301+01001999999ADDGA1071+012009999GF107991999999999999999999MA1102301999999MW1001REMMET059LPPT 271700Z 03006KT 010V070 9999 BKN040 13/10 Q1023 NOSIG;EQDQ01+000000PRSWM2
0097085360999992000020419004+38780-009130FM-15+0123LPPT V0209999999999220001CN0099001N1+01501+01201999999ADDMA1102911999999MW1001REMMET045LPPT 041900Z VRB03KT CAVOK 15/12 Q1029 NOSIG;EQDQ01+000000PRSWM2
0105085360999992000022513004+38780-009130FM-15+0123LPPT V0200601N00261220001CN0099001N1+01801+00801999999ADDMA1102711999999MW1001REMMET053LPPT 251300Z 06005KT 010V110 CAVOK 18/08 Q1027 NOSIG;EQDQ01+000000PRSWM2
0097085360999992000030402004+38780-009130FM-15+0123LPPT V0203401N00261220001CN0099001N1+01101+00701999999ADDMA1102401999999MW1001REMMET045LPPT 040200Z 34005KT CAVOK 11/07 Q1024 NOSIG;EQDQ01+000000PRSWM2
0105085360999992000031013004+38780-009130FM-15+0123LPPT V0200701N00361220001CN0099001N1+02301+00801999999ADDMA1102201999999MW1001REMMET053LPPT 101300Z 07007KT 040V100 CAVOK 23/08 Q1022 NOSIG;EQDQ01+000000PRSWM2
0173085360999992000031215004+38780-009130FM-15+0123LPPT V0202801N004612200019N0112651N1+01601+01001999999ADDGA1021+009009029GA2021+012009099GF102991999999999999999999MA1101801999999MW1001REMMET063LPPT 121500Z 28009KT 9999 SCT030TCU FEW040CB 16/10 Q1018 NOSIG;EQDQ01+000000PRSWM2
0097085360999992000031805004+38780-009130FM-15+0123LPPT V0203501N00101220001CN0099001N1+01401+00501999999ADDMA1102001999999MW1001REMMET045LPPT 180500Z 35002KT CAVOK 14/05 Q1020 NOSIG;EQDQ01+000000PRSWM2
0191085360999992000032109004+38780-009130FM-15+0123LPPT V0201201N003610750019N0060001N1+01401+01101999999ADDGA1021+006009999GA2021+030009999GA3071+075009999GF107991999999999999999999MA1100811999999MW1001REMMET065LPPT 210900Z 12007KT 6000 FEW020 SCT100 BKN250 14/11 Q1008 NOSIG;EQDQ01+000000PRSWM2
0153085360999992000041119004+38780-009130FM-15+0123LPPT V0203001N004612200019N0112651N1+01301+00801999999ADDGA1021+009009999GF104991999999999999999999MA1101591999999MW1001REMMET059LPPT 111900Z 30009KT 260V330 9999 SCT030 13/08 Q1016 NOSIG;EQDQ01+000000PRSWM2
0168085360999992000041223004+38780-009130FM-15+0123LPPT V0202201N003610135019N0112651N1+01401+00901999999ADDGA1021+006009999GA2071+013509999GF107991999999999999999999MA1100811999999MW1001REMMET058LPPT 122300Z 22007KT 9999 FEW020 BKN045 14/09 Q1008 NOSIG;EQDQ01+000000PRSWM2
0168085360999992000041420004+38780-009130FM-15+0123LPPT V0202601N002612200019N0112651N1+01101+00601999999ADDGA1021+007509999GA2021+075009999GF104991999999999999999999MA1100811999999MW1001REMMET058LPPT 142000Z 26005KT 9999 FEW025 SCT250 11/06 Q1008 NOSIG;EQDQ01+000000PRSWM2
0145085360999992000041620004+38780-009130FM-15+0123LPPT V0202501N004612200019N0112651N1+01301+00901999999ADDGA1021+009009999GF102991999999999999999999MA1101081999999MW1001REMMET051LPPT 162000Z 25009KT 9999 FEW030 13/09 Q1011 NOSIG;EQDQ01+000000PRSWM2
0176085360999992000042410004+38780-009130FM-15+0123LPPT V0202001N005110075019N0112651N1+01501+01101999999ADDGA1021+006009999GA2071+007509999GF107991999999999999999999MA1101901999999MW1001REMMET066LPPT 241000Z 20010KT 160V250 9999 FEW020 BKN025 15/11 Q1019 NOSIG;EQDQ01+000000PRSWM2
0156085360999992000042721004+38780-009130FM-15+0123LPPT V0202901N002612200019N0112651N1+01001+00801999999ADDGA1021+009009029GF102991999999999999999999MA1101801999999MW1001REMMET062LPPT 272100Z 29005KT 260V320 9999 FEW030TCU 10/08 Q1018 NOSIG;EQDQ01+000000PRSWM2
0097085360999992000051204004+38780-009130FM-15+0123LPPT V0202901N00051220001CN0099001N1+01301+01301999999ADDMA1101591999999MW1001REMMET045LPPT 120400Z 29001KT CAVOK 13/13 Q1016 NOSIG;EQDQ01+000000PRSWM2
0176085360999992000051315004+38780-009130FM-15+0123LPPT V0202301N002612200019N0112651N1+02401+01201999999ADDGA1021+007509999GA2021+075009999GF104991999999999999999999MA1101801999999MW1001REMMET066LPPT 131500Z 23005KT 190V270 9999 FEW025 SCT250 24/12 Q1018 NOSIG;EQDQ01+000000PRSWM2
0097085360999992000051516004+38780-009130FM-15+0123LPPT V0203201N00721220001CN0099001N1+02201+01701999999ADDMA1101491999999MW1001REMMET045LPPT 151600Z 32014KT CAVOK 22/17 Q1015 NOSIG;EQDQ01+000000PRSWM2
0145085360999992000051705004+38780-009130FM-15+0123LPPT V0203401N005712200019N0112651N1+01501+01201999999ADDGA1021+004509999GF102991999999999999999999MA1101691999999MW1001REMMET051LPPT 170500Z 34011KT 9999 FEW015 15/12 Q1017 NOSIG;EQDQ01+000000PRSWM2
0097085360999992000052301004+38780-009130FM-15+0123LPPT V0203301N00211220001CN0099001N1+01801+01201999999ADDMA1101801999999MW1001REMMET045LPPT 230100Z 33004KT CAVOK 18/12 Q1018 NOSIG;EQDQ01+000000PRSWM2
0097085360999992000060120004+38780-009130FM-15+0123LPPT V0202801N00361220001CN0099001N1+02201+01601999999ADDMA1101691999999MW1001REMMET045LPPT 012000Z 28007KT CAVOK 22/16 Q1017 NOSIG;EQDQ01+000000PRSWM2
0153085360999992000062215004+38780-009120FM-15+0123LPPT V0203001N006712200019N0112651N1+02301+01301999999ADDGA1021+009009999GF102991999999999999999999MA1102201999999MW1001REMMET059LPPT 221500Z 30013KT 270V330 9999 FEW030 23/13 Q1022 NOSIG;EQDQ01+000000PRSWM2
0168085360999992000062812004+38780-009120FM-15+0123LPPT V02099999999990105019N0112651N1+02101+01701999999ADDGA1021+006009999GA2071+010509999GF107991999999999999999999MA1102201999999MW1001REMMET058LPPT 281200Z VRB02KT 9999 SCT020 BKN035 21/17 Q1022 NOSIG;EQDQ01+000000PRSWM2
0153085360999992000062816004+38780-009120FM-15+0123LPPT V0203301N005112200019N0112651N1+02501+01501999999ADDGA1021+009009999GF102991999999999999999999MA1102001999999MW1001REMMET059LPPT 281600Z 33010KT 290V360 9999 FEW030 25/15 Q1020 NOSIG;EQDQ01+000000PRSWM2
0145085360999992000063020004+38780-009120FM-15+0123LPPT V0202701N005112200019N0112651N1+02101+01701999999ADDGA1021+003909999GF102991999999999999999999MA1101491999999MW1001REMMET051LPPT 302000Z 27010KT 9999 FEW013 21/17 Q1015 NOSIG;EQDQ01+000000PRSWM2
0145085360999992000070619004+38780-009120FM-15+0123LPPT V0202901N006712200019N0112651N1+02201+01601999999ADDGA1021+007509999GF104991999999999999999999MA1101691999999MW1001REMMET051LPPT 061900Z 29013KT 9999 SCT025 22/16 Q1017 NOSIG;EQDQ01+000000PRSWM2
0097085360999992000071319004+38780-009120FM-15+0123LPPT V0203101N00771220001CN0099001N1+02801+01101999999ADDMA1101801999999MW1001REMMET045LPPT 131900Z 31015KT CAVOK 28/11 Q1018 NOSIG;EQDQ01+000000PRSWM2
0097085360999992000072719004+38780-009120FM-15+0123LPPT V0203101N00571220001CN0099001N1+02301+01501999999ADDMA1101901999999MW1001REMMET045LPPT 271900Z 31011KT CAVOK 23/15 Q1019 NOSIG;EQDQ01+000000PRSWM2
0145085360999992000072817004+38780-009120FM-15+0123LPPT V0203301N007212200019N0112651N1+02801+01801999999ADDGA1021+006009999GF102991999999999999999999MA1101901999999MW1001REMMET051LPPT 281700Z 33014KT 9999 FEW020 28/18 Q1019 NOSIG;EQDQ01+000000PRSWM2
0097085360999992000080311004+38780-009120FM-15+0123LPPT V0203401N01231220001CN0099001N1+02501+00901999999ADDMA1102301999999MW1001REMMET045LPPT 031100Z 34024KT CAVOK 25/09 Q1023 NOSIG;EQDQ01+000000PRSWM2
0097085360999992000080417004+38780-009120FM-15+0123LPPT V0203201N00981220001CN0099001N1+02701+01001999999ADDMA1102001999999MW1001REMMET045LPPT 041700Z 32019KT CAVOK 27/10 Q1020 NOSIG;EQDQ01+000000PRSWM2
0105085360999992000080810004+38780-009120FM-15+0123LPPT V0200401N00211220001CN0099001N1+02801+01001999999ADDMA1101691999999MW1001REMMET053LPPT 081000Z 04004KT 350V080 CAVOK 28/10 Q1017 NOSIG;EQDQ01+000000PRSWM2
0176085360999992000081108004+38780-009120FM-15+0123LPPT V0203101N004612200019N0112651N1+01901+01701999999ADDGA1021+004509999GA2021+024009999GF104991999999999999999999MA1101801999999MW1001REMMET066LPPT 110800Z 31009KT 270V350 9999 SCT015 SCT080 19/17 Q1018 NOSIG;EQDQ01+000000PRSWM2
0168085360999992000081207004+38780-009120FM-15+0123LPPT V02099999999990045019N0112651N1+01801+01601999999ADDGA1021+002709999GA2071+004509999GF107991999999999999999999MA1101801999999MW1001REMMET058LPPT 120700Z VRB03KT 9999 FEW009 BKN015 18/16 Q1018 NOSIG;EQDQ01+000000PRSWM2
0097085360999992000081714004+38780-009120FM-15+0123LPPT V0203201N00821220001CN0099001N1+02801+01201999999ADDMA1101391999999MW1001REMMET045LPPT 171400Z 32016KT CAVOK 28/12 Q1014 NOSIG;EQDQ01+000000PRSWM2
0145085360999992000082615004+38780-009120FM-15+0123LPPT V0203301N007712200019N0112651N1+02601+01501999999ADDGA1021+009009999GF102991999999999999999999MA1101691999999MW1001REMMET051LPPT 261500Z 33015KT 9999 FEW030 26/15 Q1017 NOSIG;EQDQ01+000000PRSWM2
0145085360999992000082708004+38780-009120FM-15+0123LPPT V0203401N004612200019N0112651N1+02001+01501999999ADDGA1021+006009999GF102991999999999999999999MA1102001999999MW1001REMMET051LPPT 270800Z 34009KT 9999 FEW020 20/15 Q1020 NOSIG;EQDQ01+000000PRSWM2
0145085360999992000083021004+38780-009120FM-15+0123LPPT V0203301N007712200019N0112651N1+01901+01501999999ADDGA1021+007509999GF102991999999999999999999MA1101391999999MW1001REMMET051LPPT 302100Z 33015KT 9999 FEW025 19/15 Q1014 NOSIG;EQDQ01+000000PRSWM2
0108085360999992000090200004+38780-009120FM-15+0123LPPT V0203201N00721220001CN0099001N1+01901+01501999999ADDMA1101491999999MW1001REMMET056LPPT 020000Z 32014KT CAVOK 19/15 Q1015 WS ALL RWY NOSIG;EQDQ01+000000PRSWM2
0097085360999992000090214004+38780-009120FM-15+0123LPPT V0203301N00821220001CN0099001N1+03101+00901999999ADDMA1101591999999MW1001REMMET045LPPT 021400Z 33016KT CAVOK 31/09 Q1016 NOSIG;EQDQ01+000000PRSWM2
0097085360999992000090311004+38780-009120FM-15+0123LPPT V0203301N00771220001CN0099001N1+02601+01301999999ADDMA1101801999999MW1001REMMET045LPPT 031100Z 33015KT CAVOK 26/13 Q1018 NOSIG;EQDQ01+000000PRSWM2
0165085360999992000090902004+38780-009120FM-15+0123LPPT V0201201N000512200019N0030001N1+01901+01801999999ADDGA1021+075009999GF102991999999999999999999MA1101491999999MW1101REMMET055LPPT 090200Z 12001KT 3000E BR FEW250 19/18 Q1015 NOSIG;EQDQ01+000003PRSWM1Q02    003PRSWM1
0105085360999992000090914004+38780-009120FM-15+0123LPPT V0201201N00311220001CN0099001N1+03001+01601999999ADDMA1101691999999MW1001REMMET053LPPT 091400Z 12006KT 080V170 CAVOK 30/16 Q1017 NOSIG;EQDQ01+000000PRSWM2
0145085360999992000091523004+38780-009120FM-15+0123LPPT V0202301N002110030019N0112651N1+02001+01801999999ADDGA1071+003009999GF107991999999999999999999MA1101801999999MW1001REMMET051LPPT 152300Z 23004KT 9999 BKN010 20/18 Q1018 NOSIG;EQDQ01+000000PRSWM2
0194085360999992000091912004+38780-009120FM-15+0123LPPT V0202701N007210300019N0112651N1+02101+01301999999ADDGA1021+006009999GA2021+007509029GA3071+030009999GF107991999999999999999999MA1101021999999MW1001REMMET068LPPT 191200Z 27014KT 9999 SCT020 FEW025TCU BKN100 21/13 Q1010 NOSIG;EQDQ01+000000PRSWM2
0105085360999992000100714004+38780-009120FM-15+0123LPPT V0200401N00361220001CN0099001N1+02701+00401999999ADDMA1101901999999MW1001REMMET053LPPT 071400Z 04007KT 350V080 CAVOK 27/04 Q1019 NOSIG;EQDQ01+000000PRSWM2
0176085360999992000101912004+38780-009120FM-15+0123LPPT V0202101N003610066019N0112651N1+02101+01801999999ADDGA1021+003609999GA2071+006609999GF107991999999999999999999MA1102101999999MW1001REMMET066LPPT 191200Z 21007KT 180V250 9999 SCT012 BKN022 21/18 Q1021 NOSIG;EQDQ01+000000PRSWM2
0097085360999992000102210004+38780-009120FM-15+0123LPPT V0200301N00461220001CN0099001N1+01601+00901999999ADDMA1102101999999MW1001REMMET045LPPT 221000Z 03009KT CAVOK 16/09 Q1021 NOSIG;EQDQ01+000000PRSWM2
0097085360999992000102920004+38780-009120FM-15+0123LPPT V0203201N00771220001CN0099001N1+01401+01001999999ADDMA1102401999999MW1001REMMET045LPPT 292000Z 32015KT CAVOK 14/10 Q1024 NOSIG;EQDQ01+000000PRSWM2
0211085360999992000103021004+38780-009120FM-15+0123LPPT V0202301N006210066019N0112651N1+01701+01601999999ADDGA1021+002409999GA2021+003609999GA3071+006609999GF107991999999999999999999MA1101391999999MW1511REMMET069LPPT 302100Z 23012KT 9999 -DZ FEW008 SCT012 BKN022 17/16 Q1014 NOSIG;EQDQ01+000003PRSWM1Q02    003PRSWM1
0168085360999992000110307004+38780-009120FM-15+0123LPPT V0203301N005112200019N0112651N1+01201+01001999999ADDGA1021+005409999GA2021+024009999GF104991999999999999999999MA1101491999999MW1001REMMET058LPPT 030700Z 33010KT 9999 FEW018 SCT080 12/10 Q1015 NOSIG;EQDQ01+000000PRSWM2
0145085360999992000110720004+38780-009120FM-15+0123LPPT V0202601N003112200019N0112651N1+01201+00901999999ADDGA1021+009009999GF102991999999999999999999MA1101391999999MW1001REMMET051LPPT 072000Z 26006KT 9999 FEW030 12/09 Q1014 NOSIG;EQDQ01+000000PRSWM2
0176085360999992000111213004+38780-009120FM-15+0123LPPT V0202101N006210060019N0112651N1+01701+01401999999ADDGA1021+004509999GA2071+006009999GF107991999999999999999999MA1101291999999MW1001REMMET066LPPT 121300Z 21012KT 180V240 9999 SCT015 BKN020 17/14 Q1013 NOSIG;EQDQ01+000000PRSWM2
0145085360999992000111712004+38780-009120FM-15+0123LPPT V0203501N007212200019N0112651N1+01501+00701999999ADDGA1021+006009999GF102991999999999999999999MA1102611999999MW1001REMMET051LPPT 171200Z 35014KT 9999 FEW020 15/07 Q1026 NOSIG;EQDQ01+000000PRSWM2
0097085360999992000111719004+38780-009120FM-15+0123LPPT V0203201N00361220001CN0099001N1+01101+00801999999ADDMA1102711999999MW1001REMMET045LPPT 171900Z 32007KT CAVOK 11/08 Q1027 NOSIG;EQDQ01+000000PRSWM2
0228085360999992000112223004+38780-009120FM-15+0123LPPT V0202201N005710027019N0112651N1+01601+01601999999ADDGA1021+000909999GA2021+001509999GA3071+002709999GF107991999999999999999999MA1101021999999MW1101MW2511REMMET080LPPT 222300Z 22011KT 190V250 9999 -DZ BR SCT003 SCT005 BKN009 16/16 Q1010 NOSIG;EQDQ01+000003PRSWM1Q02    003PRSWM1
0153085360999992000112305004+38780-009120FM-15+0123LPPT V0202801N003112200019N0112651N1+01401+01301999999ADDGA1021+003909999GF104991999999999999999999MA1101081999999MW1001REMMET059LPPT 230500Z 28006KT 210V320 9999 SCT013 14/13 Q1011 NOSIG;EQDQ01+000000PRSWM2
0168085360999992000112804004+38780-009120FM-15+0123LPPT V0200901N004112200019N0112651N1+01401+01401999999ADDGA1021+001809999GA2021+007509999GF104991999999999999999999MA1101391999999MW1001REMMET058LPPT 280400Z 09008KT 9999 FEW006 SCT025 14/14 Q1014 NOSIG;EQDQ01+000000PRSWM2
0191085360999992000120201004+38780-009120FM-15+0123LPPT V0202301N004612200019N0112651N1+01401+01301999999ADDGA1021+004509999GA2021+007509099GF102991999999999999999999MA1101691999999MW1171REMMET065LPPT 020100Z 23009KT 9999 VCTS SCT015 FEW025CB 14/13 Q1017 NOSIG;EQDQ01+000003PRSWM1Q02    003PRSWM1
0230085360999992000120421004+38780-009120FM-15+0123LPPT V0201801N007210012019N0025001N1+01601+01601999999ADDGA1021+000609999GA2071+001209999GA3071+003009999GF107991999999999999999999MA1101491999999MW1101MW2631OC101231REMMET074LPPT 042100Z 18014G24KT 2500 RA BR SCT002 BKN004 BKN010 16/16 Q1015 NOSIG;EQDQ01+000003PRSWM1Q02    003PRSWM1
0176085360999992000120601004+38780-009120FM-15+0123LPPT V0202201N002112200019N0112651N1+01501+01401999999ADDGA1021+007509999GA2021+030009999GF104991999999999999999999MA1101291999999MW1001REMMET066LPPT 060100Z 22004KT 190V250 9999 SCT025 SCT100 15/14 Q1013 NOSIG;EQDQ01+000000PRSWM2
0145085360999992000120722004+38780-009120FM-15+0123LPPT V0202001N001512200019N0112651N1+01301+01101999999ADDGA1021+006009999GF102991999999999999999999MA1101021999999MW1001REMMET051LPPT 072200Z 20003KT 9999 FEW020 13/11 Q1010 NOSIG;EQDQ01+000000PRSWM2
0168085360999992000121103004+38780-009120FM-15+0123LPPT V02099999999992200019N0112651N1+01201+01201999999ADDGA1021+004509999GA2021+021009999GF104991999999999999999999MA1102911999999MW1001REMMET058LPPT 110300Z VRB01KT 9999 FEW015 SCT070 12/12 Q1029 NOSIG;EQDQ01+000000PRSWM2
0168085360999992000121508004+38780-009120FM-15+0123LPPT V0202801N002112200019N0112651N1+00901+00801999999ADDGA1021+006009999GA2021+009909999GF104991999999999999999999MA1102401999999MW1001REMMET058LPPT 150800Z 28004KT 9999 FEW020 SCT033 09/08 Q1024 NOSIG;EQDQ01+000000PRSWM2
0168085360999992000121801004+38780-009120FM-15+0123LPPT V0201801N005110090019N0112651N1+01501+01401999999ADDGA1021+003909999GA2071+009009999GF107991999999999999999999MA1102001999999MW1001REMMET058LPPT 180100Z 18010KT 9999 FEW013 BKN030 15/14 Q1020 NOSIG;EQDQ01+000000PRSWM2
0145085360999992000122019004+38780-009120FM-15+0123LPPT V0202401N000512200019N0112651N1+01101+00801999999ADDGA1021+007509999GF102991999999999999999999MA1100911999999MW1001REMMET051LPPT 201900Z 24001KT 9999 FEW025 11/08 Q1009 NOSIG;EQDQ01+000000PRSWM2
0253085360999992000122200004+38780-009120FM-15+0123LPPT V0201801N005110036019N0070001N1+01401+01301999999ADDGA1021+001509999GA2071+003609999GA3021+006009099GA4071+024009999GF107991999999999999999999MA1098921999999MW1611REMMET095LPPT 220000Z 18010KT 150V210 7000 -RA FEW005 BKN012 FEW020CB BKN080 14/13 Q0989 WS RWY35 NOSIG;EQDQ01+000003PRSWM1Q02    003PRSWM1
0168085360999992000122915004+38780-009120FM-15+0123LPPT V0202501N005110300019N0112651N1+01601+01301999999ADDGA1021+006009999GA2071+030009999GF107991999999999999999999MA1101691999999MW1001REMMET058LPPT 291500Z 25010KT 9999 SCT020 BKN100 16/13 Q1017 NOSIG;EQDQ01+000000PRSWM2
0133085380999992000020809004+37000-008950FM-12+002599999V0209999C000019999999N0200001N1+01261+01001103591ADDGF106991999999022501999999MA1999999103281MD1210121+9999REMSYN066AAXX  08094 08538 42870 60000 10126 20100 30328 40359 52012 8////;
0133085380999992000022121004+37000-008950FM-12+002599999V0203301N002119999999N0050001N1+01461+01291102611ADDGF107991999999022501999999MA1999999102311MD1210181+9999REMSYN066AAXX  21214 08538 42850 73304 10146 20129 30231 40261 52018 8////;
0196085380999992000022418004+37000-008950FM-12+002599999V0201001N001012200019N0200001N1+01641+01231102421ADDAA199000091GA1001+999999999GF100991001001999999001001KA1999M+01851MA1999999102121MD1710021+9999REMSYN070AAXX  24184 08538 32970 01002 10164 20123 30212 40242 57002 333 10185;EQDQ01  00002PRCP99
0143085380999992000030215004+37000-008950FM-12+002599999V0209999C000012200019N0200001N1+01701+01151102661ADDGA1001+999999999GF100991001001999999001001MA1999999102361MD1610011+9999REMSYN060AAXX  02154 08538 42970 00000 10170 20115 30236 40266 56001;
0133085380999992000030809004+37000-008950FM-12+002599999V0200801N003619999999N0200001N1+01601+01231102471ADDGF107991999999999999999999MA1999999102171MD1110061+9999REMSYN066AAXX  08094 08538 42970 70807 10160 20123 30217 40247 51006 8////;
0163085380999992000031200004+37000-008950FM-12+002599999V0209999C000019999999N0200001N1+01581+01481101881ADDAA199000091GF105991999999022501999999MA1999999101581MD1010121+9999REMSYN066AAXX  12004 08538 32870 50000 10158 20148 30158 40188 50012 8////;EQDQ01  00002PRCP99
0133085380999992000032115004+37000-008950FM-12+002599999V0209999C000019999999N0200001N1+01741+01161100911ADDGF107991999999017501999999MA1999999100621MD1710051+9999REMSYN066AAXX  21154 08538 42770 70000 10174 20116 30062 40091 57005 8////;
0163085380999992000032201004+37000-008950FM-12+002599999V0209999C000012200019N0200001N1+01461+01071101061ADDAA199000091GF102991999999999999999999MA1999999100761MD1210101+9999REMSYN066AAXX  22014 08538 32/70 20000 10146 20107 30076 40106 52010 8////;EQDQ01  00002PRCP99
0186085380999992000052818004+37000-008950FM-12+002599999V0203401N003119999999N0150001N1+01861+01701102361ADDAA199000091GF108991999999012501999999KA1999M+02051MA1999999102061MD1110041+9999REMSYN076AAXX  28184 08538 32665 83406 10186 20170 30206 40236 51004 8//// 333 10205;EQDQ01  00002PRCP99
0210085380999992000052906004+37000-008950FM-12+002599999V0203401N001519999999N0150001N1+01681+01681102211ADDAA199000091GF108991999999012501999999IA1019KA1120N+01651MA1999999101911MD1710151+9999REMSYN094AAXX  29064 08538 32665 83403 10168 20168 30191 40221 57015 8//// 333 20165 30/// 50104 55100;EQDQ01  00002PRCP99
0220085380999992000053106004+37000-008950FM-12+002599999V0203401N002612200019N0200001N1+01761+01501101831ADDAA199000091GA1001+999999999GF100991001001999999001001IA1019KA1120N+01701MA1999999101531MD1810021+9999REMSYN088AAXX  31064 08538 32970 03405 10176 20150 30153 40183 58002 333 20170 30/// 50184 55132;EQDQ01  00002PRCP99
0173085380999992000060112004+37000-008950FM-12+002599999V0209999C000012200019N0200001N1+02541+01751101781ADDAA199000091GA1001+999999999GF100991001001999999001001MA1999999101491MD1210021+9999REMSYN060AAXX  01124 08538 32970 00000 10254 20175 30149 40178 52002;EQDQ01  00002PRCP99
0210085380999992000062806004+37000-008950FM-12+002599999V0209999C000019999999N0200001N1+01741+01711102061ADDAA199000091GF106991999999012501999999IA1019KA1120N+01701MA1999999101761MD1210101+9999REMSYN094AAXX  28064 08538 32670 60000 10174 20171 30176 40206 52010 8//// 333 20170 30/// 50254 55013;EQDQ01  00002PRCP99
0133085380999992000072909004+37000-008950FM-12+002599999V0200101N002612200019N0200001N1+01981+01761101611ADDGF102991999999022501999999MA1999999101321MD1610011+9999REMSYN066AAXX  29094 08538 42870 20105 10198 20176 30132 40161 56001 8////;
0152085380999992000091015004+37000-008950FM-12+002599999V0202001N999992200019N0200001N1+02601+01861101651ADDGF104991999999022501999999MA1999999101361MD1710051+9999REMSYN066AAXX  10154 08538 42870 47005 10260 20186 30136 40165 57005 8////;EQDQ01+005403WOSPD 
0162085380999992000091509004+37000-008950FM-12+002599999V0209999C000012200019N0200001N1+02042+01861101721ADDGA1001+999999999GF100991001001999999001001MA1999999101431MD1210191+9999REMSYN060AAXX  15094 08538 42970 00000 10204 20186 30143 40172 52019;EQDQ01+002043ATOT  
0220085380999992000092706004+37000-008950FM-12+002599999V0203401N002612200019N0200001N1+01621+01391102041ADDAA199000091GA1001+999999999GF100991001001999999001001IA1019KA1120N+01601MA1999999101741MD1710061+9999REMSYN088AAXX  27064 08538 32970 03405 10162 20139 30174 40204 57006 333 20160 30/// 50754 55009;EQDQ01  00002PRCP99
0210085380999992000100106004+37000-008950FM-12+002599999V0209999C000012200019N0200001N1+01721+01531101851ADDAA199000091GF104991999999017501999999IA1019KA1120N+01501MA1999999101551MD1610031+9999REMSYN094AAXX  01064 08538 32770 40000 10172 20153 30155 40185 56003 8//// 333 20150 30/// 50244 55097;EQDQ01  00002PRCP99
0133085380999992000100415004+37000-008950FM-12+002599999V0203401N001512200019N0200001N1+02201+01401101701ADDGF101991999999999999999999MA1999999101411MD1710081+9999REMSYN066AAXX  04154 08538 42970 13403 10220 20140 30141 40170 57008 8////;
0220085380999992000100506004+37000-008950FM-12+002599999V0203401N002612200019N0200001N1+01681+01411101671ADDAA199000091GA1001+999999999GF100991001001999999001001IA1019KA1120N+01601MA1999999101371MD1610021+9999REMSYN088AAXX  05064 08538 32970 03405 10168 20141 30137 40167 56002 333 20160 30/// 50364 55110;EQDQ01  00002PRCP99
0183085380999992000103118004+37000-008950FM-12+002599999V0209999C000012200019N0200001N1+01561+01251102001ADDAA112007191GA1001+999999999GF100991001001999999001001KA1999M+01901MA1999999101701MD1810031+9999REMSYN076AAXX  31184 08538 32970 00000 10156 20125 30170 40200 58003 60072 333 10190;
0173085380999992000111512004+37000-008950FM-12+002599999V0203301N002612200019N0200001N1+01361+00911101621ADDAA199000091GA1001+999999999GF100991001001999999001001MA1999999101321MD1210081+9999REMSYN060AAXX  15124 08538 32970 03305 10136 20091 30132 40162 52008;EQDQ01  00002PRCP99
0133085380999992000120109004+37000-008950FM-12+002599999V0202701N002612200019N0200001N1+01721+01661101701ADDGF103991999999999999999999MA1999999101401MD1210201+9999REMSYN066AAXX  01094 08538 41970 32705 10172 20166 30140 40170 52020 8////;
0220085380999992000120306004+37000-008950FM-12+002599999V0209999C000012200019N0200001N1+01201+01171102401ADDAA199000091GA1001+999999999GF100991001001999999001001IA1099KA1120N+00951MA1999999102131MD1710181+9999REMSYN088AAXX  03064 08538 32970 00000 10120 20117 30213 40240 57018 333 20095 31/// 50154 55075;EQDQ01  00002PRCP99
0169085380999992000120818004+37000-008950FM-12+002599999V0202601N002112200019N0200001N1+01621+01061101741ADDAA112004191GF103991999999017501999999MA1999999101441MD1410001+9999REMSYN072AAXX  08184 08538 12770 32604 10162 20106 30144 40174 51000 60042 8////;EQDQ01+000012APCTEN
0206085400999992000010718004+39830-008880FM-12+0054LPMR V0203201N001012200019N0100001N1+01081+00891102551ADDAA106000091GA1001+999999999GF100991001001999999001001KA1120M+01721MA1999999101851MD1510001+9999REMSYN080AAXX  07184 08540 32960 03202 10108 20089 30185 40255 55000 333 10172 555 60007;EQDQ01  00002PRCP06
0206085400999992000011918004+39830-008880FM-12+0054LPMR V0203001N001012200019N0100001N1+01041+00691102081ADDAA199000091GA1001+999999999GF100991001001999999001001KA1120M+01361MA1999999101381MD1310061+9999REMSYN080AAXX  19184 08540 32960 03002 10104 20069 30138 40208 53006 333 10136 555 60007;EQDQ01  00002PRCP99
0099085400999992000012011004+39830-008880FM-15+0054LPMR V0209999C00001220001CN0099001N1+00901+00301999999ADDMA1102611999999MW1001REMMET047LPMR 201100Z 00000KT CAVOK 09/03 Q1026 BLU/BLU;EQDQ01+000000PRSWM2
0098085400999992000013116004+39830-008880FM-15+0054LPMR V0201501N00671220001CN0099001N1+01701+00801999999ADDMA1102511999999MW1001REMMET046LPMR 311600Z 15013KT CAVOK 17/08Q1025 BLU/BLU;EQDQ01+000000PRSWM2
0166085400999992000020208004+39830-008880FM-15+0054LPMR V0209999C000010075019N0060001N1+01301+01301999999ADDGA1021+006009999GA2071+007509999GF107991999999999999999999MA1103121999999MW1001REMMET056LPMR 020800Z 00000KT 6000 FEW020 BKN025 13/13 Q1031 WHT;EQDQ01+000000PRSWM2
0189085400999992000021010004+39830-008880FM-15+0054LPMR V0202701N002110012019N0040001N1+01401+01301999999ADDGA1071+001209999GA2071+005409999GF107991999999999999999999MA1103121999999MW1101REMMET063LPMR 101000Z 27004KT 4000 BR BKN004 BKN018 14/13 Q1031 YLO/YLO;EQDQ01+000003PRSWM1Q02    003PRSWM1
0240085400999992000021418004+39830-008880FM-12+0054LPMR V0203401N003610066019N0100001N1+01281+00911103081ADDAA199000091GA1051+006609089GA2041+060009009GF106991051021008001001041KA1120M+01441MA1999999102381MD1510011+9999REMSYN098AAXX  14184 08540 32560 63407 10128 20091 30238 40308 55001 85204 333 10144 85822 84070 555 60007;EQDQ01  00002PRCP99
0170085400999992000030414004+39830-008880FM-15+0054LPMR V0202901N003112200019N0112651N1+01601+00901999999ADDGA1021+010509999GA2021+060009999GF104991999999999999999999MA1102401999999MW1001REMMET060LPMR 041400Z 29006KT 9999 FEW035 SCT200 16/09 Q1024 BLU/BLU;EQDQ01+000000PRSWM2
0099085400999992000031010004+39830-008880FM-15+0054LPMR V0201201N00211220001CN0099001N1+01901+00901999999ADDMA1102611999999MW1001REMMET047LPMR 101000Z 12004KT CAVOK 19/09 Q1026 BLU/BLU;EQDQ01+000000PRSWM2
0266085400999992000032606004+39830-008880FM-12+0054LPMR V0209999C000012200019N0080001N1+00341+00251102421ADDAA199000091AY101061AY201061GA1021+024009039GF102991021001022501031001GJ105469KA1120N+00341MA1999999101701MD1210231+9999MW1101REMSYN110AAXX  26064 08540 31858 20000 10034 20025 30170 40242 52023 71000 82030 333 20034 50144 55091 82358 555 60002;EQDQ01  00002PRCP99
0170085400999992000043013004+39830-008880FM-15+0054LPMR V0201401N003110060019N0112651N1+01501+01201999999ADDGA1021+005109999GA2071+006009999GF107991999999999999999999MA1101081999999MW1001REMMET060LPMR 301300Z 14006KT 9999 FEW017 BKN020 15/12 Q1011 WHT/WHT;EQDQ01+000000PRSWM2
0180085400999992000060508004+39830-008880FM-15+0054LPMR V0203401N007210054019N0080001N1+01501+01001999999ADDGA1021+004209999GA2071+005409999GF107991999999999999999999MA1102101999999MW1001REMMET070LPMR 050800Z 34014KT 8000 FEW014 BKN018 15/10 Q1021 WHT/WHT BECMG BLU;EQDQ01+000000PRSWM2
0099085400999992000060710004+39830-008880FM-15+0054LPMR V0201101N00411220001CN0099001N1+02601+00801999999ADDMA1101901999999MW1001REMMET047LPMR 071000Z 11008KT CAVOK 26/08 Q1019 BLU/BLU;EQDQ01+000000PRSWM2
0099085400999992000061512004+39820-008870FM-15+0054LPMR V0201501N00411220001CN0099001N1+03201+01601999999ADDMA1102001999999MW1001REMMET047LPMR 151200Z 15008KT CAVOK 32/16 Q1020 BLU/BLU;EQDQ01+000000PRSWM2
0099085400999992000071213004+39820-008870FM-15+0054LPMR V0202901N00571220001CN0099001N1+02701+01201999999ADDMA1101901999999MW1001REMMET047LPMR 121300Z 29011KT CAVOK 27/12 Q1019 BLU/BLU;EQDQ01+000000PRSWM2
0346085400999992000072306004+39820-008870SY-MT+0054LPMR V0201701N00151003301CN0020001N1+01741+01681101201ADDAA112000591GA1021+002409999GA2071+003309999GF107991071081002501001001GJ103669KA1120N+01641MA1101191100531MD1610051+9999MW1801REMSYN122AAXX  23064 08540 11320 71703 10174 20168 30053 40120 56005 69952 780// 87800 333 20164 50314 55061 83708 86810 555 69952;MET062LPMR 230600Z 17005KT 2000 -SHRA SCT008 BKN011 17/17 Q1012 YLO;EQDQ01    003PRSWM1
0344085400999992000072406004+39820-008870SY-MT+0054LPMR V0201601N001510090019N0100001N1+01861+01701101371ADDAA199000091GA1021+002709999GA2071+009009999GF108991061081002501071011GJ105889KA1120N+01781MA1101291100711MD1710111+9999MW1001REMSYN110AAXX  24064 08540 32360 81603 10186 20170 30071 40137 57011 86871 333 20178 50334 55098 81709 85630 555 60002;MET056LPMR 240600Z 16006KT 9999 FEW009 BKN030 19/17 Q1013 BLU;EQDQ01+000000PRSWM2Q02  00002PRCP99
0353085400999992000081106004+39820-008870SY-MT+0054LPMR V0202701N001512200019N0080001N1+01741+01611101691ADDAA199000091AY111061AY211061GA1021+003609999GF103991031021004501001011GJ105889KA1120N+01721MA1101691101011MD1810021+9999MW1101REMSYN110AAXX  11064 08540 31458 32703 10174 20161 30101 40169 58002 71011 83201 333 20172 50294 55098 83812 555 60007;MET049LPMR 110600Z 27005KT 8000 SCT012 17/16 Q1017 BLU;EQDQ01+000000PRSWM2Q02  00002PRCP99Q03    003PRSWM1
0169085400999992000081315004+39820-008870FM-12+0054LPMR V0202901N002112200019N0150001N1+02441+01741102091ADDGA1041+006609089GF104991041021008001001011MA1999999101421MD1110011+9999REMSYN086AAXX  13154 08540 42565 42904 10244 20174 30142 40209 51001 84201 333 84822 555 60007;
0099085400999992000081613004+39820-008870FM-15+0054LPMR V0203301N00621220001CN0099001N1+02401+01601999999ADDMA1101801999999MW1001REMMET047LPMR 161300Z 33012KT CAVOK 24/16 Q1018 BLU/BLU;EQDQ01+000000PRSWM2
0147085400999992000081811004+39820-008870FM-15+0054LPMR V02099999999992200019N0112651N1+02301+01501999999ADDGA1021+009009999GF102991999999999999999999MA1101491999999MW1001REMMET053LPMR 181100Z VRB03KT 9999 FEW030 23/15 Q1015 BLU/BLU;EQDQ01+000000PRSWM2
0249085400999992000082015004+39820-008870SY-MT+0054LPMR V0202801N002612200019N0150001N1+02301+01521101801ADDGA1021+009009999GF102991021021008001001001MA1101801101131MD1710051+9999MW1001REMSYN086AAXX  20154 08540 42565 22805 10230 20152 30113 40180 57005 82200 333 82830 555 60007;MET049LPMR 201500Z 28010KT 9999 FEW030 23/15 Q1018 BLU;EQDQ01+000000PRSWM2
0348085400999992000082212004+39820-008870SY-MT+0054LPMR V0202301N003610135019N0150001N1+02301+01331101631ADDAA199000091GA1021+007509999GA2071+013509999GF199999051081008001031011MA1101591100961MD1810051+9999MW1001OA149900621REMSYN104AAXX  22124 08540 32565 62307 10230 20133 30096 40163 58005 85831 333 83825 85645 91112 555 50004 60007;MET060LPMR 221200Z 23013KT 9999 SCT025 BKN045 23/13 Q1016 BLU/BLU;EQDQ01+000062SCOTCVQ02+000000PRSWM2Q03  00002PRCP99
0162085400999992000082416004+39820-008870FM-15+0054LPMR V0202501N007212200019N0112651N1+02401+99999999999ADDGA1021+007809999GF104991999999999999999999MA1101491999999MW1001REMMET052LPMR 241600Z 25014KT 9999 SCT026 24/1 Q1015 BLU/BLU;EQDQ01+000103ATOD  Q02+000000PRSWM2
0099085400999992000082811004+39820-008870FM-15+0054LPMR V0203601N00211220001CN0099001N1+02201+01701999999ADDMA1101901999999MW1001REMMET047LPMR 281100Z 36004KT CAVOK 22/17 Q1019 BLU/BLU;EQDQ01+000000PRSWM2
0189085400999992000083108004+39820-008870FM-15+0054LPMR V0203501N001012200019N0050001N1+01601+01501999999ADDGA1021+001509999GA2021+003009999GF104991999999999999999999MA1101391999999MW1101REMMET063LPMR 310800Z 35002KT 5000 BR FEW005 SCT010 16/15 Q1014 WHT/BLU;EQDQ01+000003PRSWM1Q02    003PRSWM1
0206085400999992000090118004+39820-008870FM-12+0054LPMR V0203201N003112200019N0120001N1+02001+01531101491ADDAA199000091GA1001+999999999GF100991001001999999001001KA1120M+02321MA1999999100821MD1310011+9999REMSYN080AAXX  01184 08540 32962 03206 10200 20153 30082 40149 53001 333 10232 555 60007;EQDQ01  00002PRCP99
0143085400999992000093017004+39820-008870FM-15+0054LPMR V0203201N005112200019N0112651N1+01901+01201999999ADDGA1021+007509999GF102991999999999999999999MA1101691999999MW1001REMMET049LPMR 301700Z 32010KT 9999 FEW025 19/12 Q1017 BLU;EQDQ01+000000PRSWM2
0170085400999992000102010004+39820-008870FM-15+0054LPMR V0209999C000010045019N0112651N1+01601+01401999999ADDGA1021+000909999GA2071+004509999GF107991999999999999999999MA1101191999999MW1001REMMET060LPMR 201000Z 00000KT 9999 SCT003 BKN015 16/14 Q1012 WHT/BLU;EQDQ01+000000PRSWM2
0193085400999992000102613004+39820-008870FM-15+0054LPMR V0202801N002610180019N0112651N1+01901+01401999999ADDGA1021+005409999GA2021+009009999GA3071+018009999GF107991999999999999999999MA1102101999999MW1001REMMET067LPMR 261300Z 28005KT 9999 SCT018 SCT030 BKN060 19/14 Q1021 BLU/BLU;EQDQ01+000000PRSWM2
0189085400999992000103008004+39820-008870FM-15+0054LPMR V0201501N001510600019N0070001N1+00901+00801999999ADDGA1021+004509999GA2021+006009999GA3071+060009999GF107991999999999999999999MA1102001999999MW1001REMMET063LPMR 300800Z 15003KT 7000 FEW015 SCT020 BKN200 09/08 Q1020 WHT;EQDQ01+000000PRSWM2
0287085400999992000121406004+39820-008870FM-12+0054LPMR V0201801N002610015019N0050001N1+01541+01411101981ADDAA112000191GA1051+001509079GA2051+003609089GA3061+021009039GF108991071081001501071999GJ100009KA1120N+01401MA1999999101291MD1710201+9999MW1581REMSYN134AAXX  14064 08540 11250 81805 10154 20141 30129 40198 57020 69922 758// 8787/ 333 20140 50104 55000 85705 85812 86357 96010 555 69922;
0313085400999992000121415004+39820-008870SY-MT+0054LPMR V0202701N001010045019N0100001N1+01441+01201102201ADDGA1071+004509999GA2021+005409099GA3021+024009999GF107991051031004501031011MA1102201101511MD1810051+9999MW1001REMSYN098AAXX  14154 08540 42460 72702 10144 20120 30151 40220 58005 85331 333 85815 81918 83358 555 60007;MET069LPMR 141500Z 27004KT 9999 BKN015 FEW018CB SCT080 14/12 Q1022 WHT/WHT;EQDQ01+000000PRSWM2
0193085400999992000121813004+39820-008870FM-15+0054LPMR V0201501N007210105019N0112651N1+01401+01101999999ADDGA1021+003909999GA2071+010509999GA3071+024009999GF107991999999999999999999MA1101801999999MW1001REMMET067LPMR 181300Z 15014KT 9999 FEW013 BKN035 BKN080 14/11 Q1018 BLU/BLU;EQDQ01+000000PRSWM2
0249085400999992000122318004+39820-008870FM-12+0054LPMR V0201301N002110210019N0120001N1+01201+01021099591ADDAA112001091GA1011+005409089GA2011+006009099GA3061+021009039GF107991031091004501071031KA1120M+01401MA1999999098911MD1710061+9999REMSYN110AAXX  23184 08540 12462 71304 10120 20102 39891 49959 57006 69992 83973 333 10140 81818 81920 86357 555 60007;
0166085400999992000122707004+39820-008870FM-15+0054LPMR V0203001N005712200019N0112651N1+99999+99999999999ADDGA1021+004509999GA2021+021009999GF104991999999999999999999MA1100001999999MW1001REMMET056LPMR 270700Z 30011KT 9999 FEW015 SCT070 12/16 Q1000 BLU;EQDQ01+000000PRSWM2
0170085400999992000122916004+39820-008870FM-15+0054LPMR V0202101N003610066019N0112651N1+01501+01201999999ADDGA1021+005109999GA2071+006609999GF107991999999999999999999MA1101491999999MW1001REMMET060LPMR 291600Z 21007KT 9999 FEW017 BKN022 15/12 Q1015 WHT/WHT;EQDQ01+000000PRSWM2
0165085410999992000010816004+37950-008870FM-12+010399999V0203401N002612200019N0200001N1+01331+00811102571ADDGA1011+024009039GF102991011001022501041041MA1999999101371MD1810051+9999REMSYN082AAXX  08164 08541 42870 23405 10133 20081 30137 40257 58005 81044 333 81358 91007;
0200085410999992000011512004+37950-008870FM-12+010399999V0201301N004112200019N0300001N1+01071+00621101191ADDAA106000191GA1031+004809029GF103991031021004501001001MA1999999099991MD1210111+9999SA1+1419REMSYN098    AAXX  15124 08541 12480 31308 10107 20062 39999 40119 52011 69911 83200 222// 00141 333 83816;
0101085410999992000012122004+37950-008870FM-12+010399999V0200201N002619999999N9999999N1+00881+00381102651ADDMA1999999101431MD1210041+9999REMSYN060AAXX  21224 08541 42/// /0205 10088 20038 30143 40265 52004;
0171085410999992000020104004+37950-008870FM-12+010399999V0201801N005110090019N0200001N1+01551+01161102491ADDGA1071+009009069GF107991071051008001001001MA1999999101301MD1710131+9999REMSYN088AAXX  01044 08541 42570 71810 10155 20116 30130 40249 57013 87500 333 87630 91015 91116;
0187085410999992000020123004+37950-008870FM-12+010399999V0202601N001512200019N0030001N1+01421+01371103141ADDAY101999AY201999GA1021+002709069GF102991021061002501001001MA1999999101941MD1210121+9999MW1101REMSYN082AAXX  01234 08541 41330 22603 10142 20137 30194 40314 52012 71000 82600 333 82709;
0101085410999992000020705004+37950-008870FM-12+010399999V0200601N001019999999N9999999N1+01101+00961103491ADDMA1999999102271MD1710061+9999REMSYN060AAXX  07054 08541 42/// /0602 10110 20096 30227 40349 57006;
0165085410999992000020914004+37950-008870FM-12+010399999V0203401N001510072019N0200001N1+01421+01241103391ADDGA1081+007209069GF108991081051008001999999MA1999999102181MD1710171+9999REMSYN082AAXX  09144 08541 42570 83403 10142 20124 30218 40339 57017 885// 333 88624 91105;
0171085410999992000021713004+37950-008870FM-12+010399999V0203501N004112200019N0200001N1+01531+00991103061ADDGA1011+025009009GF101991001001999999001011MA1999999101861MD1710061+9999REMSYN088AAXX  17134 08541 42970 13508 10153 20099 30186 40306 57006 80001 333 81099 91013 91113;
0171085410999992000022017004+37950-008870FM-12+010399999V0203401N002112200019N0070001N1+01381+01171102151ADDGA1041+025009009GF104991001001999999001011MA1999999100961MD1710041+9999REMSYN088AAXX  20174 08541 42957 43404 10138 20117 30096 40215 57004 80001 333 84099 91006 91108;
0101085410999992000022119004+37950-008870FM-12+010399999V0203301N001019999999N9999999N1+01251+01131102571ADDMA1999999101371MD1210121+9999REMSYN060AAXX  21194 08541 42/// /3302 10125 20113 30137 40257 52012;
0153085410999992000022323004+37950-008870FM-12+010399999V0200201N002112200019N0200001N1+01261+01091102731ADDGA1001+999999999GF100991001001999999001001MA1999999101521MD1210041+9999REMSYN070AAXX  23234 08541 42970 00204 10126 20109 30152 40273 52004 333 91106;
0183085410999992000022400004+37950-008870FM-12+010399999V0200201N001512200019N0200001N1+01201+01031102701ADDAA199000091GA1001+999999999GF100991001001999999001001MA1999999101491MD1710021+9999REMSYN070AAXX  24004 08541 32970 00203 10120 20103 30149 40270 57002 333 91105;EQDQ01  00002PRCP99
0117085410999992000030119004+37950-008870FM-12+010399999V0203301N003119999999N9999999N1+01291+01111102741ADDMA1999999101541MD1210021+9999REMSYN076AAXX  01194 08541 42/// /3306 10129 20111 30154 40274 52002 333 91010 91111;
0111085410999992000030504004+37950-008870FM-12+010399999V0200301N001519999999N9999999N1+01111+00751102331ADDMA1999999101121MD1710111+9999REMSYN070AAXX  05044 08541 42/// /0303 10111 20075 30112 40233 57011 333 91106;
0117085410999992000030713004+37950-008870FM-12+010399999V0201101N002119999999N9999999N1+02161+00951102551ADDMA1999999101381MD1710131+9999REMSYN076AAXX  07134 08541 42/// /1104 10216 20095 30138 40255 57013 333 91007 91107;
0260085410999992000031406004+37950-008870FM-12+010399999V0203301N001012200019N0100001N1+01121+01051102461ADDAA199000091AY101061AY201061GA1001+999999999GF100991001001999999001001IA1019IA2999+00409KA1120N+01031MA1999999101251MD1210011+9999MW1101REMSYN094AAXX  14064 08541 31960 03302 10112 20105 30125 40246 52001 71000 333 20103 30004 50280 55103;EQDQ01  00002PRCP99
0153085410999992000031819004+37950-008870FM-12+010399999V0203601N001012200019N0200001N1+01461+01011101851ADDGA1001+999999999GF100991001001999999001001MA1999999100661MD1210051+9999REMSYN070AAXX  18194 08541 42970 03602 10146 20101 30066 40185 52005 333 91105;
0153085410999992000031922004+37950-008870FM-12+010399999V0202101N001512200019N0200001N1+01391+01281101491ADDGA1001+999999999GF100991001001999999001001MA1999999100301MD1710051+9999REMSYN070AAXX  19224 08541 42970 02103 10139 20128 30030 40149 57005 333 91105;
0165085410999992000032323004+37950-008870FM-12+010399999V0203501N001512200019N0200001N1+01221+00771101831ADDGA1041+007209069GF104991041051008001001001MA1999999100631MD1210071+9999REMSYN082AAXX  23234 08541 42570 43503 10122 20077 30063 40183 52007 84500 333 84624 91106;
0101085410999992000032920004+37950-008870FM-12+010399999V0202201N000519999999N9999999N1+01171+00491101301ADDMA1999999100111MD1210031+9999REMSYN060AAXX  29204 08541 42/// /2201 10117 20049 30011 40130 52003;
0201085410999992000041100004+37950-008870FM-12+010399999V0203401N003112200019N0250001N1+01211+00841101601ADDAA199000091GA1021+006009089GF102991021011004501001001MA1999999100411MD1210041+9999REMSYN088AAXX  11004 08541 32475 23406 10121 20084 30041 40160 52004 82100 333 82820 91011 91115;EQDQ01  00002PRCP99
0267085410999992000041706004+37950-008870FM-12+010399999V0202801N00311012001CN0200001N1+01251+00761101841ADDAA112000591GA1031+006009089GA2011+007209099GF105991051081008001001001GJ106549IA1099IA2999+01009KA1120N+01171MA1999999100641MD1210161+9999REMSYN118AAXX  17064 08541 12570 52806 10125 20076 30064 40184 52016 69952 85800 333 20117 31010 50480 55109 83820 81924 91112;
0252085410999992000050712004+37950-008870FM-12+010399999V0202301N002110060019N0200001N1+01791+01451101101ADDAA106000891AY181061AY221061GA1031+006009099GA2041+006009089GF106991051091008001001011MA1999999099941MD1210061+9999MW1021SA1+1529REMSYN112AAXX  07124 08541 11570 62304 10179 20145 39994 40110 52006 69981 70282 85901 222// 00152 333 83920 84820 91108;
0143085410999992000051905004+37950-008870FM-12+010399999V0200201N002612200019N0200001N1+01221+01041101401ADDGA1001+999999999GF100991001001999999001001MA1999999100211MD1710041+9999REMSYN060AAXX  19054 08541 42970 00205 10122 20104 30021 40140 57004;
0165085410999992000052722004+37950-008870FM-12+010399999V0203401N002612200019N0200001N1+01431+01121102251ADDGA1011+025009009GF101991001001999999001041MA1999999101061MD1210141+9999REMSYN082AAXX  27224 08541 42970 13405 10143 20112 30106 40225 52014 80004 333 81099 91111;
0187085410999992000060208004+37950-008870FM-12+010399999V0201701N001510006019N0002001N1+01581+01521101831ADDAY141999AY241999GA1091+000609999GF109991091999999999999999MA1999999100651MD1210111+9999MW1471REMSYN082AAXX  02084 08541 41/02 91703 10158 20152 30065 40183 52011 74744 333 89/02 91105;
0209085410999992000060812004+37950-008870FM-12+010399999V0202701N002112200019N0100001N1+02181+01411101341ADDAA199000091GA1001+999999999GF100991001001999999001001MA1999999100191MD1710011+9999SA1+1579REMSYN088AAXX  08124 08541 32960 02704 10218 20141 30019 40134 57001 222// 00157 333 91006 91106;EQDQ01  00002PRCP99
0246085410999992000061206004+37950-008870FM-12+010399999V0200101N002112200019N0200001N1+01411+01251102301ADDAA199000091GA1001+999999999GF100991001001999999001001GJ105529IA1019IA2999+01209KA1120N+01311MA1999999101111MD1710021+9999REMSYN094AAXX  12064 08541 32970 00104 10141 20125 30111 40230 57002 333 20131 30012 50470 55092 91106;EQDQ01  00002PRCP99
0159085410999992000061417004+37940-008870FM-12+010399999V0203501N003112200019N0200001N1+02621+01111101801ADDGA1001+999999999GF100991001001999999001001MA1999999100661MD1710121+9999REMSYN076AAXX  14174 08541 42970 03506 10262 20111 30066 40180 57012 333 91010 91110;
0153085410999992000061607004+37940-008870FM-12+010399999V0200701N002612200019N0300001N1+02511+01131101691ADDGA1001+999999999GF100991001001999999001001MA1999999100551MD1710021+9999REMSYN070AAXX  16074 08541 42980 00705 10251 20113 30055 40169 57002 333 91108;
0187085410999992000061911004+37940-008870FM-12+010399999V0202301N002110072019N0200001N1+02121+01581101931ADDGA1041+005109089GA2071+007209069GF107991071081004501001001MA1999999100771MD1210051+9999REMSYN088AAXX  19114 08541 42470 72304 10212 20158 30077 40193 52005 87800 333 84817 87624 91107;
0202085410999992000062218004+37940-008870FM-12+010399999V0203101N004112200019N0200001N1+01981+01391102141ADDAA199000091GA1001+999999999GF100991001001999999001001KA1120M+02271MA1999999100971MD1710071+9999REMSYN076AAXX  22184 08541 32970 03108 10198 20139 30097 40214 57007 333 10227 91113;EQDQ01  00002PRCP99
0153085410999992000062916004+37940-008870FM-12+010399999V0203201N004112200019N0200001N1+02241+01681101901ADDGA1001+999999999GF100991001001999999001001MA1999999100741MD1710091+9999REMSYN070AAXX  29164 08541 42970 03208 10224 20168 30074 40190 57009 333 91112;
0101085410999992000070314004+37940-008870FM-12+010399999V0203001N003119999999N9999999N1+02181+01631101681ADDMA1999999100521MD1210021+9999REMSYN060AAXX  03144 08541 42/// /3006 10218 20163 30052 40168 52002;
0171085410999992000071007004+37940-008870FM-12+010399999V0203301N004610090019N0200001N1+01771+01521101541ADDGA1071+009009069GF107991071051008001999999MA1999999100371MD1210031+9999REMSYN088AAXX  10074 08541 42570 73309 10177 20152 30037 40154 52003 875// 333 87630 91013 91114;
0101085410999992000072022004+37940-008870FM-12+010399999V0202401N001019999999N9999999N1+01661+01431101371ADDMA1999999100201MD1210071+9999REMSYN060AAXX  20224 08541 42/// /2402 10166 20143 30020 40137 52007;
0159085410999992000072216004+37940-008870FM-12+010399999V0202901N003112200019N0200001N1+02251+01541101511ADDGA1011+006009029GF102991011011008001001081MA1999999100361MD1710061+9999REMSYN076AAXX  22164 08541 42570 22906 10225 20154 30036 40151 57006 81108 333 81820;
0111085410999992000072220004+37940-008870FM-12+010399999V0203001N001519999999N9999999N1+01851+01531101461ADDMA1999999100291MD1710051+9999REMSYN070AAXX  22204 08541 42/// /3003 10185 20153 30029 40146 57005 333 91106;
0101085410999992000072302004+37940-008870FM-12+010399999V0202901N002119999999N9999999N1+01751+01621101411ADDMA1999999100241MD1710081+9999REMSYN060AAXX  23024 08541 42/// /2904 10175 20162 30024 40141 57008;
0101085410999992000072402004+37940-008870FM-12+010399999V0202401N001019999999N9999999N1+01771+01641101671ADDMA1999999100501MD1710071+9999REMSYN060AAXX  24024 08541 42/// /2402 10177 20164 30050 40167 57007;
0117085410999992000072623004+37940-008870FM-12+010399999V0203501N002119999999N9999999N1+01791+01581101661ADDMA1999999100491MD1210081+9999REMSYN076AAXX  26234 08541 42/// /3504 10179 20158 30049 40166 52008 333 91006 91109;
0117085410999992000072822004+37940-008870FM-12+010399999V0203401N002119999999N9999999N1+01881+01721101961ADDMA1999999100791MD1210061+9999REMSYN076AAXX  28224 08541 42/// /3404 10188 20172 30079 40196 52006 333 91007 91110;
0202085410999992000080718004+37940-008870FM-12+010399999V0203101N002612200019N0300001N1+02461+01221101511ADDAA199000091GA1001+999999999GF100991001001999999001001KA1120M+03161MA1999999100371MD1410001+9999REMSYN076AAXX  07184 08541 32980 03105 10246 20122 30037 40151 54000 333 10316 91112;EQDQ01  00002PRCP99
0111085410999992000081023004+37940-008870FM-12+010399999V0201901N002119999999N9999999N1+01781+01631101651ADDMA1999999100481MD1210091+9999REMSYN070AAXX  10234 08541 42/// /1904 10178 20163 30048 40165 52009 333 91107;
0232085410999992000081706004+37940-008870FM-12+010399999V0203401N001012200019N0200001N1+01611+01471101441ADDAA199000091GA1001+999999999GF100991001001999999001001IA1019IA2999+01209KA1120N+01581MA1999999100261MD1710031+9999REMSYN088AAXX  17064 08541 32970 03402 10161 20147 30026 40144 57003 333 20158 30012 50770 55124;EQDQ01  00002PRCP99
0143085410999992000081910004+37940-008870FM-12+010399999V0202401N001012200019N0300001N1+02301+01311101431ADDGA1001+999999999GF100991001001999999001001MA1999999100281MD1210091+9999REMSYN060AAXX  19104 08541 42980 02402 10230 20131 30028 40143 52009;
0111085410999992000090101004+37940-008870FM-12+010399999V0200101N002619999999N9999999N1+01681+01201101261ADDMA1999999100091MD1710021+9999REMSYN070AAXX  01014 08541 42/// /0105 10168 20120 30009 40126 57002 333 91108;
0111085410999992000090104004+37940-008870FM-12+010399999V0200201N002119999999N9999999N1+01511+01201101201ADDMA1999999100021MD1710071+9999REMSYN070AAXX  01044 08541 42/// /0204 10151 20120 30002 40120 57007 333 91107;
0227085410999992000090512004+37940-008870FM-12+010399999V0203101N001512200019N0200001N1+02481+01311101931ADDAA199000091GA1001+999999999GF100991001001999999001001MA1999999100781MD1210021+9999SA1+1649UG1090153209REMSYN094AAXX  05124 08541 32970 03103 10248 20131 30078 40193 52002 222// 00164 332// 40903 333 91105;EQDQ01  00002PRCP99
0143085410999992000090614004+37940-008870FM-12+010399999V0203101N002612200019N0200001N1+02641+01071101821ADDGA1001+999999999GF100991001001999999001001MA1999999100681MD1710071+9999REMSYN060AAXX  06144 08541 42970 03105 10264 20107 30068 40182 57007;
0101085410999992000090702004+37940-008870FM-12+010399999V0203601N002619999999N9999999N1+01791+01261101711ADDMA1999999100541MD1710091+9999REMSYN060AAXX  07024 08541 42/// /3605 10179 20126 30054 40171 57009;
0207085410999992000092612004+37940-008870FM-12+010399999V0203201N003112200019N0200001N1+02221+01581102171ADDAA199000091GA1011+006009029GF103991011011008001031021MA1999999101011MD1610051+9999REMSYN094AAXX  26124 08541 32570 33206 10222 20158 30101 40217 56005 81132 222// 332// 40802 333 81820;EQDQ01  00002PRCP99
0143085410999992000100308004+37940-008870FM-12+010399999V0203501N001012200019N0170001N1+01451+01311102261ADDGA1001+999999999GF100991001001999999001001MA1999999101071MD1210071+9999REMSYN060AAXX  03084 08541 42967 03502 10145 20131 30107 40226 52007;
0159085410999992000100814004+37940-008870FM-12+010399999V0203201N003112200019N0200001N1+02391+00771101981ADDGA1031+999999019GF103991001001999999001011MA1999999100831MD1710101+9999REMSYN076AAXX  08144 08541 42970 33206 10239 20077 30083 40198 57010 80001 333 83099;
0147085410999992000101300004+37940-008870FM-12+010399999V0203601N002619999999N9999999N1+01361+00951101411ADDAA199000091MA1999999100221MD1210091+9999REMSYN076AAXX  13004 08541 32/// /3605 10136 20095 30022 40141 52009 333 91008 91108;EQDQ01  00002PRCP99
0198085410999992000101406004+37940-008870FM-12+010399999V0200201N001519999999N9999999N1+01111+00921101981ADDAA199000091GJ106189IA1019IA2999+00909KA1120N+01111MA1999999100781MD1710021+9999REMSYN088AAXX  14064 08541 32/// /0203 10111 20092 30078 40198 57002 333 20111 30009 55103 91105;EQDQ01  00002PRCP99
0252085410999992000101906004+37940-008870FM-12+010399999V0201601N000510072019N0100001N1+01541+01491102291ADDAA199000091GA1071+007209059GF107991071051008001999999GJ105469IA1019IA2999+01209KA1120N+01471MA1999999101101MD1610031+9999REMSYN100AAXX  19064 08541 32560 71601 10154 20149 30110 40229 56003 875// 333 20147 30012 50260 55091 87624;EQDQ01  00002PRCP99
0111085410999992000102120004+37940-008870FM-12+010399999V0200101N002619999999N9999999N1+01301+00651101841ADDMA1999999100651MD1210131+9999REMSYN070AAXX  21204 08541 42/// /0105 10130 20065 30065 40184 52013 333 91108;
0101085410999992000102202004+37940-008870FM-12+010399999V0200101N002119999999N9999999N1+00921+00771101811ADDMA1999999100601MD1710051+9999REMSYN060AAXX  22024 08541 42/// /0104 10092 20077 30060 40181 57005;
0245085410999992000102912004+37940-008870FM-12+010399999V0203401N003112200019N0200001N1+01681+00861102591ADDAA199000091GA1011+006009089GF101991011011008001001001MA1999999101401MD1710081+9999SA1+1529UG1110253209REMSYN112AAXX  29124 08541 32570 13406 10168 20086 30140 40259 57008 81100 222// 00152 332// 41105 333 81820 91011 91112;EQDQ01  00002PRCP99
0101085410999992000103020004+37940-008870FM-12+010399999V0202501N003119999999N9999999N1+01651+01421101741ADDMA1999999100561MD1710101+9999REMSYN060AAXX  30204 08541 42/// /2506 10165 20142 30056 40174 57010;
0171085410999992000103111004+37940-008870FM-12+010399999V0203401N002612200019N0200001N1+01611+01051102091ADDGA1011+005109089GF101991011011004501001001MA1999999100911MD1110181+9999REMSYN088AAXX  31114 08541 42470 13405 10161 20105 30091 40209 51018 81100 333 81817 91009 91109;
0165085410999992000103119004+37940-008870FM-12+010399999V0203301N002612200019N0150001N1+01401+01151102061ADDGA1011+005109089GF101991011011004501001001MA1999999100871MD1210081+9999REMSYN082AAXX  31194 08541 42465 13305 10140 20115 30087 40206 52008 81100 333 81817 91109;
0184085410999992000110713004+37940-008870FM-12+010399999V0203001N002612200019N0300001N1+01421+00801101461ADDGA1031+005109089GF103991999021004501031011MA1999999100281MD1710121+9999REMSYN082AAXX  07134 08541 42480 33005 10142 20080 30028 40146 57012 85231 333 83817 91109;EQDQ01+000052SCOTLC
0101085410999992000110717004+37940-008870FM-12+010399999V0203201N002619999999N9999999N1+01351+00821101451ADDMA1999999100261MD1210021+9999REMSYN060AAXX  07174 08541 42/// /3205 10135 20082 30026 40145 52002;
0165085410999992000111713004+37940-008870FM-12+010399999V0203601N004612200019N0300001N1+01441+00611102581ADDGA1011+006009089GF101991011081008001001011MA1999999101381MD1710071+9999REMSYN082AAXX  17134 08541 42580 13609 10144 20061 30138 40258 57007 81801 333 81820 91013;
0261085410999992000112712004+37940-008870FM-12+010399999V0201601N002110072019N0300001N1+01891+01521102261ADDAA199000091GA1041+004809089GA2071+007209069GF107991071081004501001001MA1999999101091MD1710171+9999SA1+1489UG1120202709REMSYN112AAXX  27124 08541 32480 71604 10189 20152 30109 40226 57017 87800 222// 00148 327// 41204 333 84816 87624 91108;EQDQ01  00002PRCP99
0101085410999992000112920004+37940-008870FM-12+010399999V0201501N001519999999N9999999N1+01261+01201101871ADDMA1999999100671MD1210011+9999REMSYN060AAXX  29204 08541 42/// /1503 10126 20120 30067 40187 52001;
0111085410999992000120322004+37940-008870FM-12+010399999V0201801N002619999999N9999999N1+01451+01391102251ADDMA1999999101061MD1210021+9999REMSYN070AAXX  03224 08541 42/// /1805 10145 20139 30106 40225 52002 333 91108;
0187085410999992000120713004+37940-008870FM-12+010399999V0202501N005710090019N0170001N1+01561+99999100301ADDGA1021+006009089GA2061+009009069GF107991061081008001071999MA1999999099141MD1210221+9999REMSYN088AAXX  07134 08541 42567 72511 10156 2//// 39914 40030 52022 8687/ 333 82820 86630 91117;
0117085410999992000122513004+37940-008870FM-12+010399999V0202401N005119999999N9999999N1+01511+01471099761ADDMA1999999098601MD1710441+9999REMSYN076AAXX  25134 08541 42/// /2410 10151 20147 39860 49976 57044 333 91015 91115;
