0136722710999992000010104534+33230-107270FM-15+1481KTCS V0209999C000012200019N0160931N1+00501+00101101301ADDGF100991999999999999999999MA1101521999999MW1001REMMET077KTCS 010453Z AUTO 00000KT 10SM CLR 05/01 A2998 RMK AO2 SLP130 T00500006 TSNO;
0221722710999992000010417534+33230-107270FM-15+1481KTCS V0200401N003612200019N0160931N1+00101-01601103311ADDGF100991999999999999999999KA1999M+00111KA2999N-00891MA1103221999999MD1010001+9999MW1001REMMET103KTCS 041753Z AUTO 04007KT 10SM CLR 01/M16 A3048 RMK AO2 SLP331 T00111156 10011 21089 50000 FZRANO TSNO;EQDQ01+000000PRSWM2
0183722710999992000010702534+33230-107270FM-15+1481KTCS V0200201N004612200019N0160931N1+00101-00701102831ADDGF100991999999999999999999MA1102781999999MD1110241+9999MW1001REMMET091KTCS 070253Z AUTO 02009KT 10SM CLR 01/M07 A3035 RMK AO2 SLP283 T00111072 51024 FZRANO TSNO;EQDQ01+000000PRSWM2
0156722710999992000011415534+33230-107270FM-15+1481KTCS V0209999C000012200019N0160931N1+00401-00901103191ADDGF100991999999999999999999MA1103351999999MW1001REMMET078KTCS 141553Z AUTO 00000KT 10SM CLR 04/M09 A3052 RMK AO2 SLP319 T00391094 TSNO;EQDQ01+000000PRSWM2
0214722710999992000011905534+33230-107270FM-15+1481KTCS V0202801N003112200019N0160931N1+00801-00401101841ADDGF100991999999999999999999KA1999M+01831KA2999N+00831MA1102271999999MD1110031+9999MW1001REMMET096KTCS 190553Z AUTO 28006KT 10SM CLR 08/M04 A3020 RMK AO2 SLP184 T00831039 10183 20083 51003 TSNO;EQDQ01+000000PRSWM2
0156722710999992000012204534+33230-107270FM-15+1481KTCS V0202901N003612200019N0160931N1+01201-00101101011ADDGF100991999999999999999999MA1101461999999MW1001REMMET078KTCS 220453Z AUTO 29007KT 10SM CLR 12/M01 A2996 RMK AO2 SLP101 T01171011 TSNO;EQDQ01+000000PRSWM2
0156722710999992000012301534+33230-107270FM-15+1481KTCS V0203201N004112200019N0160931N1+01301-00501101171ADDGF100991999999999999999999MA1101561999999MW1001REMMET078KTCS 230153Z AUTO 32008KT 10SM CLR 13/M05 A2999 RMK AO2 SLP117 T01331050 TSNO;EQDQ01+000000PRSWM2
0176722710999992000012614534+33230-107270FM-15+1481KTCS V0209999C000012200019N0160931N1+00901-00201100821ADDGF100991999999999999999999MA1101291999999MD1310081+9999MW1001REMMET084KTCS 261453Z AUTO 00000KT 10SM CLR 09/M02 A2991 RMK AO2 SLP082 T00891022 53008 TSNO;EQDQ01+000000PRSWM2
0231722710999992000020806004+33230-107270FM-12+1481KTCS V0203001N003112200019N0160001N1+00501-01111102821ADDAA199000091GA1001+999999999GF100991001001999999001001KA1240M+01781KA2240N+00501MA1999999086301MD1110061+9999REMSYN092AAXX  08064 72271 35966 03006 10050 21111 38630 40282 51006 90553 333 10178 20050 555 90806;EQDQ01  00002PRCP99
0231722710999992000021012004+33230-107270FM-12+1481KTCS V0203401N001512200019N0160001N1+00941-01171101021ADDAA199000091GA1001+999999999GF100991001001999999001001KA1999M+02391KA2120N+00561MA1999999084981MD1510021+9999REMSYN092AAXX  10124 72271 35966 03403 10094 21117 38498 40102 55002 91153 333 10239 20056 555 91012;EQDQ01  00002PRCP99
0214722710999992000021017534+33230-107270FM-15+1481KTCS V0201801N004112200019N0160931N1+01601-00801101251ADDGF100991999999999999999999KA1999M+01611KA2999N+00501MA1101731999999MD1810021+9999MW1001REMMET096KTCS 101753Z AUTO 18008KT 10SM CLR 16/M08 A3004 RMK AO2 SLP125 T01611083 10161 20050 58002 TSNO;EQDQ01+000000PRSWM2
0214722710999992000021511534+33230-107270FM-15+1481KTCS V0202901N003112200019N0160931N1+01001-00601101331ADDGF100991999999999999999999KA1999M+01561KA2999N+01001MA1101901999999MD1310021+9999MW1001REMMET096KTCS 151153Z AUTO 29006KT 10SM CLR 10/M06 A3009 RMK AO2 SLP133 T01001061 10156 20100 53002 TSNO;EQDQ01+000000PRSWM2
0156722710999992000021516534+33230-107270FM-15+1481KTCS V0209999V001512200019N0160931N1+01501-00301101611ADDGF100991999999999999999999MA1102131999999MW1001REMMET078KTCS 151653Z AUTO VRB03KT 10SM CLR 15/M03 A3016 RMK AO2 SLP161 T01501028 TSNO;EQDQ01+000000PRSWM2
0231722710999992000022012004+33230-107270FM-12+1481KTCS V0203001N003612200019N0160001N1+00331-01111102021ADDAA199000091GA1001+999999999GF100991001001999999001001KA1999M+01891KA2120N+00331MA1999999085691MD1610091+9999REMSYN092AAXX  20124 72271 35966 03007 10033 21111 38569 40202 56009 91153 333 10189 20033 555 92012;EQDQ01  00002PRCP99
0214722710999992000022105534+33230-107270FM-15+1481KTCS V0200601N001512200019N0160931N1+01001-00601101691ADDGF100991999999999999999999KA1999M+01891KA2999N+00721MA1102131999999MD1010031+9999MW1001REMMET096KTCS 210553Z AUTO 06003KT 10SM CLR 10/M06 A3016 RMK AO2 SLP169 T01001061 10189 20072 50003 TSNO;EQDQ01+000000PRSWM2
0184722710999992000030201534+33230-107270FM-15+1481KTCS V0202601N008210330019N0112651N1+01601-00801101031ADDGD13991+0330099GF107991999999999999999999MA1101351999999MW1001OC101131REMMET083KTCS 020153Z AUTO 26016G22KT 7SM BKN110 16/M08 A2993 RMK AO2 SLP103 T01561083 TSNO;EQDQ01+000000PRSWM2
0302722710999992000030711534+33230-107270FM-15+1481KTCS V0202001N006210129019N0160931N1+00801+00401100211ADDAA101000021AA206000021GD14991+0129099GF108991999999999999999999KA1999M+01171KA2999N+00721MA1100711999999MD1310061+9999MW1611OC100871REMMET123KTCS 071153Z AUTO 20012G17KT 10SM -RA OVC043 08/04 A2974 RMK AO2 RAB27 SLP021 P0000 60000 T00780039 10117 20072 53006 TSNO;EQDQ01+000003PRSWM1Q02    003PRSWM1
0231722710999992000031300004+33230-107270FM-12+1481KTCS V0201601N004112200019N0160001N1+02171-01171101071ADDAA199000091GA1001+999999999GF100991001001999999001001KA1120M+02221KA2180N+00171MA1999999084921MD1610131+9999REMSYN092AAXX  13004 72271 35966 01608 10217 21117 38492 40107 56013 92353 333 10222 20017 555 91300;EQDQ01  00002PRCP99
0231722710999992000031318004+33230-107270FM-12+1481KTCS V0209999V002112200019N0160001N1+01561-00781101371ADDAA199000091GA1001+999999999GF100991001001999999001001KA1120M+01561KA2240N+00671MA1999999085251MD1810101+9999REMSYN092AAXX  13184 72271 35966 09904 10156 21078 38525 40137 58010 91753 333 10156 20067 555 91318;EQDQ01  00002PRCP99
0225722710999992000031923534+33230-107270FM-15+1481KTCS V0201601N011312200019N0160931N1+01801-01601100731ADDGF100991999999999999999999KA1999M+01831KA2999N+01111MA1101121999999MD1610381+9999MW1001OC101291REMMET099KTCS 192353Z AUTO 16022G25KT 10SM CLR 18/M16 A2986 RMK AO2 SLP073 T01781156 10183 20111 56038 TSNO;EQDQ01+000000PRSWM2
0176722710999992000032714534+33230-107270FM-15+1481KTCS V0203101N004112200019N0160931N1+01301-00601101321ADDGF100991999999999999999999MA1101861999999MD1310051+9999MW1001REMMET084KTCS 271453Z AUTO 31008KT 10SM CLR 13/M06 A3008 RMK AO2 SLP132 T01331056 53005 TSNO;EQDQ01+000000PRSWM2
0194722710999992000032908534+33230-107270FM-15+1481KTCS V0203101N002110180019N0160931N1+01201-00101100561ADDGD14991+0180099GF108991999999999999999999MA1101151999999MD1110111+9999MW1001REMMET087KTCS 290853Z AUTO 31004KT 10SM OVC065 12/M01 A2987 RMK AO2 SLP056 T01171006 51011 TSNO;EQDQ01+000000PRSWM2
0156722710999992000033009534+33230-107270FM-15+1481KTCS V0202701N003112200019N0160931N1+00701-00101100961ADDGF100991999999999999999999MA1101491999999MW1001REMMET078KTCS 300953Z AUTO 27006KT 10SM CLR 07/M01 A2997 RMK AO2 SLP096 T00721011 TSNO;EQDQ01+000000PRSWM2
0185722710999992000033121534+33230-107270FM-15+1481KTCS V0202101N008212200019N0160931N1+01701-00501100471ADDGF100991999999999999999999MA1100911999999MW1001OC101231REMMET099KTCS 312153Z AUTO 21016G24KT 10SM CLR 17/M05 A2980 RMK AO2 PK WND 20027/2124 SLP047 T01671050 TSNO;EQDQ01+000000PRSWM2
0237722710999992000040818004+33230-107270FM-12+1481KTCS V0202201N003612200019N0160001N1+01441-00611102491ADDAA199000091GA1001+999999999GF100991001001999999001001KA1120M+01561KA2240N+00781MA1999999086181MD1810021+9999REMSYN098AAXX  08184 72271 35966 02207 10144 21061 38618 40249 58002 91753 333 10156 20078 91016 555 90818;EQDQ01  00002PRCP99
0231722710999992000040900004+33230-107270FM-12+1481KTCS V0201701N005112200019N0160001N1+01891-00501101821ADDAA199000091GA1001+999999999GF100991001001999999001001KA1120M+02001KA2180N+00831MA1999999085601MD1610241+9999REMSYN092AAXX  09004 72271 35966 01710 10189 21050 38560 40182 56024 92353 333 10200 20083 555 90900;EQDQ01  00002PRCP99
0178722710999992000041008534+33230-107270FM-15+1481KTCS V0203401N002612200019N0160931N1+01401-00701100641ADDGF100991999999999999999999MA1101321999999MD1810031+9999MW1001REMMET086KTCS 100853Z AUTO 34005KT 10SM CLR 14/M07 A2992 RMK AO2 SLP064 T01441067 58003 TSNO $;EQDQ01+000000PRSWM2
0237722710999992000042206004+33230-107270FM-12+1481KTCS V0202101N006712200019N0160001N1+02331-00781100441ADDAA199000091GA1001+999999999GF100991001001999999001001KA1240M+02781KA2240N+00891MA1999999084721MD1810071+9999REMSYN098AAXX  22064 72271 35966 02113 10233 21078 38472 40044 58007 90553 333 10278 20089 91020 555 92206;EQDQ01  00002PRCP99
0214722710999992000042511534+33230-107270FM-15+1481KTCS V0203401N004112200019N0160931N1+01301-00801101311ADDGF100991999999999999999999KA1999M+02001KA2999N+01281MA1102031999999MD1110111+9999MW1001REMMET096KTCS 251153Z AUTO 34008KT 10SM CLR 13/M08 A3013 RMK AO2 SLP131 T01331083 10200 20128 51011 TSNO;EQDQ01+000000PRSWM2
0156722710999992000042518534+33230-107270FM-15+1481KTCS V0200401N004612200019N0160931N1+02601-00201101251ADDGF100991999999999999999999MA1102071999999MW1001REMMET078KTCS 251853Z AUTO 04009KT 10SM CLR 26/M02 A3014 RMK AO2 SLP125 T02611017 TSNO;EQDQ01+000000PRSWM2
0155722710999992000050909534+33230-107270FM-15+1481KTCS V0203101N005112200019N0160931N1+01801+00201100611ADDGF100991999999999999999999MA1101491999999MW1001REMMET077KTCS 090953Z AUTO 31010KT 10SM CLR 18/02 A2997 RMK AO2 SLP061 T01830022 TSNO;EQDQ01+000000PRSWM2
0192722710999992000051206534+33230-107270FM-15+1481KTCS V0202401N004112200019N0160931N1+02101-00201100311ADDGF100991999999999999999999KA1999M+03221KA2999N+01831MA1101251999999MW1001REMMET088KTCS 120653Z AUTO 24008KT 10SM CLR 21/M02 A2990 RMK AO2 SLP031 T02111022 403220183 TSNO;EQDQ01+000000PRSWM2
0185722710999992000051618534+33230-107270FM-15+1481KTCS V0202001N010812200019N0160931N1+03001-00601100261ADDGF100991999999999999999999MA1101221999999MW1001OC101391REMMET099KTCS 161853Z AUTO 20021G27KT 10SM CLR 30/M06 A2989 RMK AO2 PK WND 19031/1841 SLP026 T03001061 TSNO;EQDQ01+000000PRSWM2
0166722710999992000052421534+33230-107270FM-15+1481KTCS V0201801N006712200019N0160931N1+03601+00501099951ADDGF100991999999999999999999MA1101021999999MW1001OC100981REMMET080KTCS 242153Z AUTO 18013G19KT 10SM CLR 36/05 A2983 RMK AO2 SLP995 T03560050 TSNO;EQDQ01+000000PRSWM2
0231722710999992000052918004+33230-107270FM-12+1481KTCS V0201701N004612200019N0160001N1+03281+00391100801ADDAA199000091GA1001+999999999GF100991001001999999001001KA1120M+03281KA2240N+01671MA1999999085161MD1810111+9999REMSYN092AAXX  29184 72271 35966 01709 10328 20039 38516 40080 58011 91753 333 10328 20167 555 92918;EQDQ01  00002PRCP99
0212722710999992000060118004+33230-107270FM-12+1481KTCS V0209999V002612200019N0160001N1+02941+00671100731ADDAA199000091GA1001+999999999GF100991001001999999001001KA1120M+02941MA1999999085071MD1810061+9999REMSYN086AAXX  01184 72271 35966 09905 10294 20067 38507 40073 58006 91753 333 10294 555 90118;EQDQ01  00002PRCP99
0155722710999992000060303534+33230-107270FM-15+1481KTCS V0200301N001512200019N0160931N1+01701+01401101781ADDGF100991999999999999999999MA1102541999999MW1001REMMET077KTCS 030353Z AUTO 03003KT 10SM CLR 17/14 A3028 RMK AO2 SLP178 T01720139 TSNO;EQDQ01+000000PRSWM2
0191722710999992000061906534+33230-107270FM-15+1481KTCS V0201701N002612200019N0160931N1+02201+01301101091ADDGF100991999999999999999999KA1999M+02891KA2999N+01561MA1101901999999MW1001REMMET087KTCS 190653Z AUTO 17005KT 10SM CLR 22/13 A3009 RMK AO2 SLP109 T02170128 402890156 TSNO;EQDQ01+000000PRSWM2
0193722710999992000061908534+33230-107270FM-15+1481KTCS V0201801N002612200019N0160931N1+02101+01401101071ADDGD12991+0360099GF102991999999999999999999MA1101931999999MD1310031+9999MW1001REMMET086KTCS 190853Z AUTO 18005KT 10SM FEW120 21/14 A3010 RMK AO2 SLP107 T02110139 53003 TSNO;EQDQ01+000000PRSWM2
0155722710999992000061912534+33230-107270FM-15+1481KTCS V0200401N001512200019N0160931N1+01901+01601101161ADDGF100991999999999999999999MA1101961999999MW1001REMMET077KTCS 191253Z AUTO 04003KT 10SM CLR 19/16 A3011 RMK AO2 SLP116 T01940156 TSNO;EQDQ01+000000PRSWM2
0219722710999992000062222534+33230-107270FM-15+1481KTCS V0202701N004612200019N0160931N1+02901+00901100751ADDAA101000021GD12991+0330099GF104991999999999999999999MA1101631999999MW1001REMMET115KTCS 222253Z AUTO 27009KT 10SM SCT110 29/09 A3001 RMK AO2 PK WND 28026/2157 RAB2156E19 SLP075 P0000 T02890094 TSNO;EQDQ01+000000PRSWM2
0209722710999992000062919534+33230-107270FM-15+1481KTCS V0209999C000012200019N0128741N1+01801+01701101651ADDAA101001391GD12991+0054099GF102991999999999999999999MA1102301999999MW1611REMMET089KTCS 291953Z AUTO 00000KT 8SM -RA FEW018 18/17 A3021 RMK AO2 SLP165 P0005 T01780167 TSNO;EQDQ01+000003PRSWM1Q02    003PRSWM1
0239722710999992000070200004+33230-107270FM-12+1481KTCS V0202901N009812200019N0160001N1+02611+01221100891ADDAA199000091GF104991999999999999999999KA1120M+03061KA2180N+01891MA1999999085071REMSYN098AAXX  02004 72271 35966 42919 10261 20122 38507 40089 53000 92353 333 10306 20189 91027 555 90200;EQDQ01+000032APCTENQ02+000002APC3  Q03  00002PRCP99
0213722710999992000070423534+33230-107270FM-15+1481KTCS V0202001N005112200019N0160931N1+03401+00701100511ADDGF100991999999999999999999KA1999M+03391KA2999N+03111MA1101491999999MD1610151+9999MW1001REMMET095KTCS 042353Z AUTO 20010KT 10SM CLR 34/07 A2997 RMK AO2 SLP051 T03390072 10339 20311 56015 TSNO;EQDQ01+000000PRSWM2
0231722710999992000070518004+33230-107270FM-12+1481KTCS V0200601N003112200019N0160001N1+03171+00831100771ADDAA199000091GA1001+999999999GF100991001001999999001001KA1120M+03281KA2240N+02001MA1999999085131MD1810081+9999REMSYN092AAXX  05184 72271 35966 00606 10317 20083 38513 40077 58008 91753 333 10328 20200 555 90518;EQDQ01  00002PRCP99
0173722710999992000070700534+33230-107270FM-15+1481KTCS V0203201N003110240019N0160931N1+02801+01201100841ADDGD14991+0240099GF108991999999999999999999MA1101731999999MW1001REMMET080KTCS 070053Z AUTO 32006KT 10SM OVC085 28/12 A3004 RMK AO2 SLP084 T02780117 TSNO;EQDQ01+000000PRSWM2
0195722710999992000071320534+33230-107270FM-15+1481KTCS V0209999C000012200019N0160931N1+03001+01501101521ADDGD12991+0180099GF102991999999999999999999MA1102401999999MD1610191+9999MW1001REMMET088KTCS 132053Z AUTO 00000KT 10SM FEW065 30/15 A3024 RMK AO2 SLP152 T03000150 56019 TSNO $;EQDQ01+000000PRSWM2
0221722710999992000071700004+33230-107270FM-12+1481KTCS V0203101N009312200019N0160001N1+03171+01391100681ADDAA199000091GF102991999999999999999999KA1120M+03441KA2180N+02111MA1999999085011MD1510031+9999REMSYN098AAXX  17004 72271 35966 23118 10317 20139 38501 40068 55003 92353 333 10344 20211 91025 555 91700;EQDQ01  00002PRCP99
0155722710999992000071804534+33230-107270FM-15+1481KTCS V0203001N004112200019N0160931N1+02601+01201101151ADDGF100991999999999999999999MA1102131999999MW1001REMMET077KTCS 180453Z AUTO 30008KT 10SM CLR 26/12 A3016 RMK AO2 SLP115 T02610117 TSNO;EQDQ01+000000PRSWM2
0155722710999992000072301534+33230-107270FM-15+1481KTCS V0201701N002612200019N0160931N1+03301+00801101021ADDGF100991999999999999999999MA1102001999999MW1001REMMET077KTCS 230153Z AUTO 17005KT 10SM CLR 33/08 A3012 RMK AO2 SLP102 T03280083 TSNO;EQDQ01+000000PRSWM2
0175722710999992000072414534+33230-107270FM-15+1481KTCS V0209999C000012200019N0160931N1+02501+01301101551ADDGF100991999999999999999999MA1102471999999MD1110101+9999MW1001REMMET083KTCS 241453Z AUTO 00000KT 10SM CLR 25/13 A3026 RMK AO2 SLP155 T02500133 51010 TSNO;EQDQ01+000000PRSWM2
0155722710999992000072416534+33230-107270FM-15+1481KTCS V0201101N001512200019N0160931N1+02901+01201101421ADDGF100991999999999999999999MA1102401999999MW1001REMMET077KTCS 241653Z AUTO 11003KT 10SM CLR 29/12 A3024 RMK AO2 SLP142 T02890122 TSNO;EQDQ01+000000PRSWM2
0155722710999992000073112534+33230-107270FM-15+1481KTCS V0203201N003112200019N0160931N1+01701+01401101591ADDGF100991999999999999999999MA1102371999999MW1001REMMET077KTCS 311253Z AUTO 32006KT 10SM CLR 17/14 A3023 RMK AO2 SLP159 T01720139 TSNO;EQDQ01+000000PRSWM2
0213722710999992000080117534+33230-107270FM-15+1481KTCS V0202001N003612200019N0160931N1+02901+01201101491ADDGF100991999999999999999999KA1999M+02891KA2999N+01671MA1102401999999MD1810051+9999MW1001REMMET095KTCS 011753Z AUTO 20007KT 10SM CLR 29/12 A3024 RMK AO2 SLP149 T02890117 10289 20167 58005 TSNO;EQDQ01+000000PRSWM2
0231722710999992000080800004+33230-107270FM-12+1481KTCS V0202301N004112200019N0160001N1+03001+01171100781ADDAA199000091GA1001+999999999GF100991001001999999001001KA1120M+03061KA2180N+01831MA1999999085041MD1510201+9999REMSYN092AAXX  08004 72271 35966 02308 10300 20117 38504 40078 55020 92353 333 10306 20183 555 90800;EQDQ01  00002PRCP99
0155722710999992000081303534+33230-107270FM-15+1481KTCS V0203001N004112200019N0160931N1+02801+01201101041ADDGF100991999999999999999999MA1102031999999MW1001REMMET077KTCS 130353Z AUTO 30008KT 10SM CLR 28/12 A3013 RMK AO2 SLP104 T02830117 TSNO;EQDQ01+000000PRSWM2
0231722710999992000082411534+33230-107270FM-15+1481KTCS V0202901N002112200019N0160931N1+01801+01201101711ADDGD12991+0240099GF104991999999999999999999KA1999M+02561KA2999N+01831MA1102571999999MD1310021+9999MW1001REMMET098KTCS 241153Z AUTO 29004KT 10SM SCT085 18/12 A3029 RMK AO2 SLP171 T01830122 10256 20183 53002 TSNO;EQDQ01+000000PRSWM2
0224722710999992000090117534+33230-107270FM-15+1481KTCS V0201901N004612200019N0160931N1+02701+00901101261ADDGF100991999999999999999999KA1999M+02781KA2999N+01501MA1102101999999MD1810021+9999MW1001OC100721REMMET098KTCS 011753Z AUTO 19009G14KT 10SM CLR 27/09 A3015 RMK AO2 SLP126 T02720094 10278 20150 58002 TSNO;EQDQ01+000000PRSWM2
0155722710999992000090121534+33230-107270FM-15+1481KTCS V0202101N006712200019N0160931N1+03201+00601100971ADDGF100991999999999999999999MA1101801999999MW1001REMMET077KTCS 012153Z AUTO 21013KT 10SM CLR 32/06 A3006 RMK AO2 SLP097 T03170061 TSNO;EQDQ01+000000PRSWM2
0186722710999992000090420534+33230-107270FM-15+1481KTCS V0209999V002112200019N0160931N1+03401+00801101011ADDGF100991999999999999999999MA1101961999999MD1610161+9999MW1001OC100821REMMET086KTCS 042053Z AUTO VRB04G16KT 10SM CLR 34/08 A3011 RMK AO2 SLP101 T03390078 56016 TSNO;EQDQ01+000000PRSWM2
0155722710999992000091803534+33230-107270FM-15+1481KTCS V0202401N002612200019N0160931N1+02401+00501101141ADDGF100991999999999999999999MA1102031999999MW1001REMMET077KTCS 180353Z AUTO 24005KT 10SM CLR 24/05 A3013 RMK AO2 SLP114 T02390050 TSNO;EQDQ01+000000PRSWM2
0221722710999992000092217534+33230-107270FM-15+1481KTCS V0202501N004112200019N0160931N1+02801+01001100271ADDGF100991999999999999999999KA1999M+02781KA2999N+01671MA1101151999999MD1810061+9999MW1001REMMET103KTCS 221753Z AUTO 25008KT 220V310 10SM CLR 28/10 A2987 RMK AO2 SLP027 T02780100 10278 20167 58006 TSNO;EQDQ01+000000PRSWM2
0155722710999992000092410534+33230-107270FM-15+1481KTCS V0203401N003612200019N0160931N1+01701+00701101061ADDGF100991999999999999999999MA1101901999999MW1001REMMET077KTCS 241053Z AUTO 34007KT 10SM CLR 17/07 A3009 RMK AO2 SLP106 T01720072 TSNO;EQDQ01+000000PRSWM2
0231722710999992000092700004+33230-107270FM-12+1481KTCS V0201901N003612200019N0160001N1+02671+00281101461ADDAA199000091GA1001+999999999GF100991001001999999001001KA1120M+02781KA2180N+00941MA1999999085421MD1610101+9999REMSYN092AAXX  27004 72271 35966 01907 10267 20028 38542 40146 56010 92353 333 10278 20094 555 92700;EQDQ01  00002PRCP99
0231722710999992000100212004+33230-107270FM-12+1481KTCS V0203301N004612200019N0160001N1+02061+00331100861ADDAA199000091GA1001+999999999GF100991001001999999001001KA1999M+03281KA2120N+02001MA1999999085161MD1310091+9999REMSYN092AAXX  02124 72271 35966 03309 10206 20033 38516 40086 53009 91153 333 10328 20200 555 90212;EQDQ01  00002PRCP99
0155722710999992000100219534+33230-107270FM-15+1481KTCS V0201301N004112200019N0160931N1+03201+00601100751ADDGF100991999999999999999999MA1101691999999MW1001REMMET077KTCS 021953Z AUTO 13008KT 10SM CLR 32/06 A3003 RMK AO2 SLP075 T03220061 TSNO;EQDQ01+000000PRSWM2
0215722710999992000100406004+33230-107270FM-12+1481KTCS V0202901N004112200019N0160001N1+02171+00441100701ADDAA199000091GF102991999999999999999999KA1240M+03061KA2240N+01831MA1999999084981MD1010031+9999REMSYN092AAXX  04064 72271 35966 22908 10217 20044 38498 40070 50003 90553 333 10306 20183 555 90406;EQDQ01  00002PRCP99
0155722710999992000100519534+33230-107270FM-15+1481KTCS V0200601N004612200019N0160931N1+02701+00601101091ADDGF100991999999999999999999MA1101861999999MW1001REMMET077KTCS 051953Z AUTO 06009KT 10SM CLR 27/06 A3008 RMK AO2 SLP109 T02720056 TSNO;EQDQ01+000000PRSWM2
0242722710999992000100711534+33230-107270FM-15+1481KTCS V0200101N006712200019N0160931N1+01101+00801101841ADDGD12991+0300099GF102991999999999999999999KA1999M+01781KA2999N+01111MA1102471999999MD1110161+9999MW1001OC100871REMMET101KTCS 071153Z AUTO 01013G17KT 10SM FEW100 11/08 A3026 RMK AO2 SLP184 T01110078 10178 20111 51016 TSNO;EQDQ01+000000PRSWM2
0129722710999992000101113534+33230-107270FM-15+1481KTCS V0200501N001512200019N9999999N1+01101+01101101471ADDMA1101901999999MW1001REMMET077KTCS 111353Z AUTO 05003KT OVC012 11/11 A3009 RMK AO2 SLP147 T01060106 TSNO $;EQDQ01+000000PRSWM2
0191722710999992000101806534+33230-107270FM-15+1481KTCS V0200101N004612200019N0160931N1+01401+00401101931ADDGF100991999999999999999999KA1999M+02331KA2999N+00831MA1102571999999MW1001REMMET087KTCS 180653Z AUTO 01009KT 10SM CLR 14/04 A3029 RMK AO2 SLP193 T01440039 402330083 TSNO;EQDQ01+000000PRSWM2
0155722710999992000101910534+33230-107270FM-15+1481KTCS V0200201N001512200019N0160931N1+01101+00701101691ADDGF100991999999999999999999MA1102271999999MW1001REMMET077KTCS 191053Z AUTO 02003KT 10SM CLR 11/07 A3020 RMK AO2 SLP169 T01060072 TSNO;EQDQ01+000000PRSWM2
0155722710999992000101915534+33230-107270FM-15+1481KTCS V0209999C000012200019N0160931N1+01701+00901101681ADDGF100991999999999999999999MA1102241999999MW1001REMMET077KTCS 191553Z AUTO 00000KT 10SM CLR 17/09 A3019 RMK AO2 SLP168 T01670094 TSNO;EQDQ01+000000PRSWM2
0173722710999992000110319534+33230-107270FM-15+1481KTCS V0209999V003110270019N0160931N1+01401+00401101501ADDGD13991+0270099GF107991999999999999999999MA1101861999999MW1001REMMET080KTCS 031953Z AUTO VRB06KT 10SM BKN095 14/04 A3008 RMK AO2 SLP150 T01390044 TSNO;EQDQ01+000000PRSWM2
0217722710999992000110421534+33230-107270FM-15+1481KTCS V0201501N002110141019N0160931N1+01301+00801101141ADDGD12991+0105099GD23991+0141099GD34991+0180099GF108991999999999999999999MA1101561999999MW1001REMMET094KTCS 042153Z AUTO 15004KT 10SM FEW035 BKN047 OVC060 13/08 A2999 RMK AO2 SLP114 T01330083 TSNO;EQDQ01+000000PRSWM2
0167722710999992000111521534+33230-107270FM-15+1481KTCS V0202401N007712200019N0160931N1+01501-01301100461ADDGF100991999999999999999999MA1100851999999MW1001OC101031REMMET081KTCS 152153Z AUTO 24015G20KT 10SM CLR 15/M13 A2978 RMK AO2 SLP046 T01501133 TSNO;EQDQ01+000000PRSWM2
0163722710999992000111809534+33230-107270FM-15+1481KTCS V0203501N003612200019N0160931N1+00101-00901101621ADDGF100991999999999999999999MA1101831999999MW1001REMMET085KTCS 180953Z AUTO 35007KT 10SM CLR 01/M09 A3007 RMK AO2 SLP162 T00061094 FZRANO TSNO;EQDQ01+000000PRSWM2
0231722710999992000112018004+33230-107270FM-12+1481KTCS V0209999V002112200019N0160001N1+01001-01001102831ADDAA199000091GA1001+999999999GF100991001001999999001001KA1120M+01001KA2240N-00391MA1999999086181MD1010031+9999REMSYN092AAXX  20184 72271 35966 09904 10100 21100 38618 40283 50003 91753 333 10100 21039 555 92018;EQDQ01  00002PRCP99
0176722710999992000112820534+33230-107270FM-15+1481KTCS V0209999V001512200019N0160931N1+01701-00501101601ADDGF100991999999999999999999MA1101961999999MD1610131+9999MW1001REMMET084KTCS 282053Z AUTO VRB03KT 10SM CLR 17/M05 A3011 RMK AO2 SLP160 T01671050 56013 TSNO;EQDQ01+000000PRSWM2
0163722710999992000113009534+33230-107270FM-15+1481KTCS V0202801N002612200019N0160931N1+00101-00401101931ADDGF100991999999999999999999MA1102241999999MW1001REMMET085KTCS 300953Z AUTO 28005KT 10SM CLR 01/M04 A3019 RMK AO2 SLP193 T00111039 FZRANO TSNO;EQDQ01+000000PRSWM2
0214722710999992000120217534+33230-107270FM-15+1481KTCS V0209999V001512200019N0160931N1+00701-00501102551ADDGF100991999999999999999999KA1999M+00721KA2999N+00171MA1102741999999MD1810011+9999MW1001REMMET096KTCS 021753Z AUTO VRB03KT 10SM CLR 07/M05 A3034 RMK AO2 SLP255 T00671050 10072 20017 58001 TSNO;EQDQ01+000000PRSWM2
0164722710999992000120409534+33230-107270FM-15+1481KTCS V0202901N002112200019N0160931N1-00101-00401102451ADDGF100991999999999999999999MA1102611999999MW1001REMMET086KTCS 040953Z AUTO 29004KT 10SM CLR M01/M04 A3030 RMK AO2 SLP245 T10111044 FZRANO TSNO;EQDQ01+000000PRSWM2
0231722710999992000120512004+33230-107270FM-12+1481KTCS V0203101N003112200019N0160001N1+00001-00671102491ADDAA199000091GA1001+999999999GF100991001001999999001001KA1999M+01501KA2120N-00111MA1999999085951MD1810071+9999REMSYN092AAXX  05124 72271 35966 03106 10000 21067 38595 40249 58007 91153 333 10150 21011 555 90512;EQDQ01  00002PRCP99
0156722710999992000121209534+33230-107270FM-15+1481KTCS V0200101N003612200019N0160931N1+00401-00301101311ADDGF100991999999999999999999MA1101691999999MW1001REMMET078KTCS 120953Z AUTO 01007KT 10SM CLR 04/M03 A3003 RMK AO2 SLP131 T00441028 TSNO;EQDQ01+000000PRSWM2
0156722710999992000121313534+33230-107270FM-15+1481KTCS V0203001N004612200019N0160931N1+00401-00601101171ADDGF100991999999999999999999MA1101461999999MW1001REMMET078KTCS 131353Z AUTO 30009KT 10SM CLR 04/M06 A2996 RMK AO2 SLP117 T00391061 TSNO;EQDQ01+000000PRSWM2
0156722710999992000121921534+33230-107270FM-15+1481KTCS V0209999V002112200019N0160931N1+00801-01701102261ADDGF100991999999999999999999MA1102371999999MW1001REMMET078KTCS 192153Z AUTO VRB04KT 10SM CLR 08/M17 A3023 RMK AO2 SLP226 T00781172 TSNO;EQDQ01+000000PRSWM2
0156722710999992000122218534+33230-107270FM-15+1481KTCS V0201701N003612200019N0160931N1+01001-00701101851ADDGF100991999999999999999999MA1102001999999MW1001REMMET078KTCS 221853Z AUTO 17007KT 10SM CLR 10/M07 A3012 RMK AO2 SLP185 T01001072 TSNO;EQDQ01+000000PRSWM2
0183722710999992000122314534+33230-107270FM-15+1481KTCS V0209999C000012200019N0160931N1+00001-00701102101ADDGF100991999999999999999999MA1102201999999MD1110221+9999MW1001REMMET091KTCS 231453Z AUTO 00000KT 10SM CLR 00/M07 A3018 RMK AO2 SLP210 T00001067 51022 FZRANO TSNO;EQDQ01+000000PRSWM2
0176722710999992000122320534+33230-107270FM-15+1481KTCS V0209999V002612200019N0160931N1+01501-00801101731ADDGF100991999999999999999999MA1102071999999MD1610251+9999MW1001REMMET084KTCS 232053Z AUTO VRB05KT 10SM CLR 15/M08 A3014 RMK AO2 SLP173 T01501083 56025 TSNO;EQDQ01+000000PRSWM2
0214722710999992000122417534+33230-107270FM-15+1481KTCS V0209999C000012200019N0160931N1+00601-00801101991ADDGF100991999999999999999999KA1999M+00611KA2999N-00281MA1102131999999MD1810071+9999MW1001REMMET096KTCS 241753Z AUTO 00000KT 10SM CLR 06/M08 A3016 RMK AO2 SLP199 T00611083 10061 21028 58007 TSNO;EQDQ01+000000PRSWM2
0176722710999992000123020534+33230-107270FM-15+1481KTCS V0209999V002612200019N0160931N1+00901-00401101751ADDGF100991999999999999999999MA1101861999999MD1610301+9999MW1001REMMET084KTCS 302053Z AUTO VRB05KT 10SM CLR 09/M04 A3008 RMK AO2 SLP175 T00891044 56030 TSNO;EQDQ01+000000PRSWM2
0125722720999992000010116504+32630-108150FM-15+1659KSVC V0202701N008712200019N0160931N1+00901+00401999999ADDGF100991999999999999999999MA1101561999999MW1001OC101031REMMET058KSVC 011650Z AUTO 27017G20KT 10SM CLR 09/04 A2999 RMK AO2;
0071722720999992000010821009+32633-108167NSRDB+163999999V020999999999999999999999999999+99999+99999999999ADDGP10060059902009099902021006102009GQ100600575919949GR100600759914159
0054722720999992000010911009+32633-108167NSRDB+163999999V020999999999999999999999999999+99999+99999999999ADDGP10060000002000000002000000002000GR100600000900009
0054722720999992000011111009+32633-108167NSRDB+163999999V020999999999999999999999999999+99999+99999999999ADDGP10060000002000000002000000002000GR100600000900009
0134722720999992000011301494+32630-108150FM-15+1659KSVC V0202701N004112200019N0160931N1+00701-00601999999ADDGF100991999999999999999999MA1102441999999MW1001REMMET056KSVC 130149Z AUTO 27008KT 10SM CLR 07/M06 A3025 RMK AO1;EQDQ01+000000PRSWM2
0071722720999992000011616009+32633-108167NSRDB+163999999V020999999999999999999999999999+99999+99999999999ADDGP10060020402008079302015002602008GQ100600771912579GR100600315914149
0134722720999992000011623504+32630-108150FM-15+1659KSVC V0201301N002612200019N0160931N1+01901-00401999999ADDGF100991999999999999999999MA1102571999999MW1001REMMET056KSVC 162350Z AUTO 13005KT 10SM CLR 19/M04 A3029 RMK AO2;EQDQ01+000000PRSWM2
0135722720999992000012909514+32630-108150FM-15+1659KSVC V0209999C000012200019N0160931N1-00501-01101999999ADDGF100991999999999999999999MA1102031999999MW1001REMMET057KSVC 290951Z AUTO 00000KT 10SM CLR M05/M11 A3013 RMK AO1;EQDQ01+000000PRSWM2
0071722720999992000012915009+32633-108167NSRDB+163999999V020999999999999999999999999999+99999+99999999999ADDGP10060001702008008302015001202008GQ100600856911459GR100600088911639
0071722720999992000013022009+32633-108167NSRDB+163999999V020999999999999999999999999999+99999+99999999999ADDGP10060054102008078402015012902008GQ100600585921519GR100600737914109
0054722720999992000020106009+32633-108167NSRDB+163999999V020999999999999999999999999999+99999+99999999999ADDGP10060000002000000002000000002000GR100600000900009
0134722720999992000020320504+32630-108150FM-15+1659KSVC V0201501N003112200019N0160931N1+01701-00401999999ADDGF100991999999999999999999MA1102541999999MW1001REMMET056KSVC 032050Z AUTO 15006KT 10SM CLR 17/M04 A3028 RMK AO2;EQDQ01+000000PRSWM2
0071722720999992000020518009+32633-108167NSRDB+163999999V020999999999999999999999999999+99999+99999999999ADDGP10060060902008089302015010902008GQ100600561914579GR100600784914079
0134722720999992000021002504+32630-108150FM-15+1659KSVC V0203001N006212200019N0160931N1+01201-00701999999ADDGF100991999999999999999999MA1101801999999MW1001REMMET056KSVC 100250Z AUTO 30012KT 10SM CLR 12/M07 A3006 RMK AO2;EQDQ01+000000PRSWM2
0071722720999992000021015009+32633-108167NSRDB+163999999V020999999999999999999999999999+99999+99999999999ADDGP10060005202008047202015001002008GQ100600846911099GR100600127913469
0134722720999992000021607524+32630-108150FM-15+1659KSVC V0203301N003112200019N0160931N1+00301-01201999999ADDGF100991999999999999999999MA1102301999999MW1001REMMET056KSVC 160752Z AUTO 33006KT 10SM CLR 03/M12 A3021 RMK AO1;EQDQ01+000000PRSWM2
0145722720999992000021620524+32630-108150FM-15+1659KSVC V0202101N005112200019N0160931N1+02201-00301999999ADDGF100991999999999999999999MA1101961999999MW1001OC100871REMMET059KSVC 162052Z AUTO 21010G17KT 10SM CLR 22/M03 A3011 RMK AO1;EQDQ01+000000PRSWM2
0071722720999992000022216009+32633-108167NSRDB+163999999V020999999999999999999999999999+99999+99999999999ADDGP10060023802008029602015014002008GQ100600707911679GR100600460913989
0115722720999992000022516504+32630-108150FM-15+1659KSVC V0202801N009312200019N0160931N1+00401-00401999999ADDMA1101691999999MW1001OC101291REMMET055KSVC 251650Z AUTO 28018G25KT 10SM 04/M04 A3003 RMK AO2;EQDQ01+000000PRSWM2
0054722720999992000022810009+32633-108167NSRDB+163999999V020999999999999999999999999999+99999+99999999999ADDGP10060000002000000002000000002000GR100600000900009
0071722720999992000022916009+32633-108167NSRDB+163999999V020999999999999999999999999999+99999+99999999999ADDGP10060030702008048802015013102008GQ100600689911489GR100600501913939
0134722720999992000030205524+32630-108150FM-15+1659KSVC V0203001N005112200019N0160931N1+00601-00301999999ADDGF100991999999999999999999MA1101661999999MW1001REMMET056KSVC 020552Z AUTO 30010KT 10SM CLR 06/M03 A3002 RMK AO1;EQDQ01+000000PRSWM2
0054722720999992000030210009+32633-108167NSRDB+163999999V020999999999999999999999999999+99999+99999999999ADDGP10060000002000000002000000002000GR100600000900009
0135722720999992000030213534+32630-108150FM-15+1659KSVC V0203001N003612200019N0160931N1-00301-00301999999ADDGF100991999999999999999999MA1101831999999MW1001REMMET057KSVC 021353Z AUTO 30007KT 10SM CLR M03/M03 A3007 RMK AO1;EQDQ01+000000PRSWM2
0071722720999992000030219009+32633-108167NSRDB+163999999V020999999999999999999999999999+99999+99999999999ADDGP10060082602008100902015007202008GQ100600418915959GR100601038913929
0071722720999992000030500009+32633-108167NSRDB+163999999V020999999999999999999999999999+99999+99999999999ADDGP10060037102008057802015017202008GQ100600699924849GR100600477913909
0135722720999992000030907504+32630-108150FM-15+1659KSVC V0203401N003112200019N0160931N1-00301-00401999999ADDGF100991999999999999999999MA1102031999999MW1001REMMET057KSVC 090750Z AUTO 34006KT 10SM CLR M03/M04 A3013 RMK AO1;EQDQ01+000000PRSWM2
0071722720999992000031014009+32633-108167NSRDB+163999999V020999999999999999999999999999+99999+99999999999ADDGP10060000002008000002015000002008GQ100600871909639GR100600034906819
0134722720999992000031100494+32630-108150FM-15+1659KSVC V0202701N008212200019N0160931N1+01401-00401999999ADDGF100991999999999999999999MA1102031999999MW1001REMMET056KSVC 110049Z AUTO 27016KT 10SM CLR 14/M04 A3013 RMK AO1;EQDQ01+000000PRSWM2
0071722720999992000031418009+32633-108167NSRDB+163999999V020999999999999999999999999999+99999+99999999999ADDGP10060078002008098302015007002008GQ100600438913769GR100600997913839
0054722720999992000031604009+32633-108167NSRDB+163999999V020999999999999999999999999999+99999+99999999999ADDGP10060000002000000002000000002000GR100600000900009
0134722720999992000032001504+32630-108150FM-15+1659KSVC V0202601N003112200019N0160931N1+01201-01001999999ADDGF100991999999999999999999MA1101321999999MW1001REMMET056KSVC 200150Z AUTO 26006KT 10SM CLR 12/M10 A2992 RMK AO2;EQDQ01+000000PRSWM2
0071722720999992000032223009+32633-108167NSRDB+163999999V020999999999999999999999999999+99999+99999999999ADDGP10060063502008085502015014202008GQ100600548924479GR100600792913769
0054722720999992000032311009+32633-108167NSRDB+163999999V020999999999999999999999999999+99999+99999999999ADDGP10060000002000000002000000002000GR100600000900009
0134722720999992000032607504+32630-108150FM-15+1659KSVC V0203401N004112200019N0160931N1+00501-00801999999ADDGF100991999999999999999999MA1102201999999MW1001REMMET056KSVC 260750Z AUTO 34008KT 10SM CLR 05/M08 A3018 RMK AO1;EQDQ01+000000PRSWM2
0134722720999992000033108534+32630-108150FM-15+1659KSVC V0203401N003112200019N0160931N1+00201-00601999999ADDGF100991999999999999999999MA1101081999999MW1001REMMET056KSVC 310853Z AUTO 34006KT 10SM CLR 02/M06 A2985 RMK AO1;EQDQ01+000000PRSWM2
0071722720999992000040219009+32633-108167NSRDB+163999999V020999999999999999999999999999+99999+99999999999ADDGP10060041702008010802015032402008GQ100600296915659GR100601188913679
0054722720999992000040604009+32633-108167NSRDB+163999999V020999999999999999999999999999+99999+99999999999ADDGP10060000002000000002000000002000GR100600000900009
0071722720999992000040617009+32633-108167NSRDB+163999999V020999999999999999999999999999+99999+99999999999ADDGP10060073502008091702015010002008GQ100600462911519GR100600942913649
0134722720999992000040706514+32630-108150FM-15+1659KSVC V0203301N005712200019N0160931N1+01101-00201999999ADDGF100991999999999999999999MA1101931999999MW1001REMMET056KSVC 070651Z AUTO 33011KT 10SM CLR 11/M02 A3010 RMK AO1;EQDQ01+000000PRSWM2
0054722720999992000041309009+32633-108167NSRDB+163999999V020999999999999999999999999999+99999+99999999999ADDGP10060000002000000002000000002000GR100600000900009
0071722720999992000041323009+32633-108167NSRDB+163999999V020999999999999999999999999999+99999+99999999999ADDGP10060067302008088602015011402008GQ100600509925429GR100600855913599
0134722720999992000041404494+32630-108150FM-15+1659KSVC V0203401N003612200019N0160931N1+01201-00701999999ADDGF100991999999999999999999MA1101901999999MW1001REMMET056KSVC 140449Z AUTO 34007KT 10SM CLR 12/M07 A3009 RMK AO1;EQDQ01+000000PRSWM2
0145722720999992000041422494+32630-108150FM-15+1659KSVC V0202601N005112200019N0160931N1+02601-00301999999ADDGF100991999999999999999999MA1100981999999MW1001OC100931REMMET059KSVC 142249Z AUTO 26010G18KT 10SM CLR 26/M03 A2982 RMK AO1;EQDQ01+000000PRSWM2
0054722720999992000041507009+32633-108167NSRDB+163999999V020999999999999999999999999999+99999+99999999999ADDGP10060000002000000002000000002000GR100600000900009
0134722720999992000041610504+32630-108150FM-15+1659KSVC V0203201N003612200019N0160931N1+00401-00801999999ADDGF100991999999999999999999MA1101931999999MW1001REMMET056KSVC 161050Z AUTO 32007KT 10SM CLR 04/M08 A3010 RMK AO1;EQDQ01+000000PRSWM2
0071722720999992000041702009+32633-108167NSRDB+163999999V020999999999999999999999999999+99999+99999999999ADDGP10060001302008019202015000602008GQ100600860928019GR100600067909619
0134722720999992000041905504+32630-108150FM-15+1659KSVC V0203001N005112200019N0160931N1+01201-00101999999ADDGF100991999999999999999999MA1101691999999MW1001REMMET056KSVC 190550Z AUTO 30010KT 10SM CLR 12/M01 A3003 RMK AO1;EQDQ01+000000PRSWM2
0054722720999992000041911009+32633-108167NSRDB+163999999V020999999999999999999999999999+99999+99999999999ADDGP10060000002000000002000000002000GR100600000900009
0071722720999992000042017009+32633-108167NSRDB+163999999V020999999999999999999999999999+99999+99999999999ADDGP10060074302008079602015015502008GQ100600424911029GR100600997913539
0133722720999992000042313514+32630-108150FM-15+1659KSVC V0203201N004612200019N0160931N1+01101+00501999999ADDGF100991999999999999999999MA1101731999999MW1001REMMET055KSVC 231351Z AUTO 32009KT 10SM CLR 11/05 A3004 RMK AO1;EQDQ01+000000PRSWM2
0054722720999992000042508009+32633-108167NSRDB+163999999V020999999999999999999999999999+99999+99999999999ADDGP10060000002000000002000000002000GR100600000900009
0145722720999992000042918504+32630-108150FM-15+1659KSVC V0202301N007212200019N0160931N1+02601-00301999999ADDGF100991999999999999999999MA1101561999999MW1001OC101181REMMET059KSVC 291850Z AUTO 23014G23KT 10SM CLR 26/M03 A2999 RMK AO1;EQDQ01+000000PRSWM2
0134722720999992000050402504+32630-108150FM-15+1659KSVC V0202901N003112200019N0160931N1+01901-00401999999ADDGF100991999999999999999999MA1101691999999MW1001REMMET056KSVC 040250Z AUTO 29006KT 10SM CLR 19/M04 A3003 RMK AO1;EQDQ01+000000PRSWM2
0144722720999992000050419504+32630-108150FM-15+1659KSVC V0203301N004112200019N0160931N1+03101+00401999999ADDGF100991999999999999999999MA1101801999999MW1001OC100821REMMET058KSVC 041950Z AUTO 33008G16KT 10SM CLR 31/04 A3006 RMK AO1;EQDQ01+000000PRSWM2
0134722720999992000051316494+32630-108150FM-15+1659KSVC V0201301N007212200019N0160931N1+02201-00201999999ADDGF100991999999999999999999MA1102271999999MW1001REMMET056KSVC 131649Z AUTO 13014KT 10SM CLR 22/M02 A3020 RMK AO1;EQDQ01+000000PRSWM2
0134722720999992000051511524+32630-108150FM-15+1659KSVC V0203601N003112200019N0160931N1+01101-00401999999ADDGF100991999999999999999999MA1102001999999MW1001REMMET056KSVC 151152Z AUTO 36006KT 10SM CLR 11/M04 A3012 RMK AO1;EQDQ01+000000PRSWM2
0133722720999992000051602514+32630-108150FM-15+1659KSVC V0202501N003612200019N0160931N1+02701+00101999999ADDGF100991999999999999999999MA1101661999999MW1001REMMET055KSVC 160251Z AUTO 25007KT 10SM CLR 27/01 A3002 RMK AO1;EQDQ01+000000PRSWM2
0145722720999992000051701504+32630-108150FM-15+1659KSVC V0202701N006212200019N0160931N1+02301-00201999999ADDGF100991999999999999999999MA1101191999999MW1001OC100871REMMET059KSVC 170150Z AUTO 27012G17KT 10SM CLR 23/M02 A2988 RMK AO1;EQDQ01+000000PRSWM2
0054722720999992000051808009+32633-108167NSRDB+163999999V020999999999999999999999999999+99999+99999999999ADDGP10060000002000000002000000002000GR100600000900009
0054722720999992000051812009+32633-108167NSRDB+163999999V020999999999999999999999999999+99999+99999999999ADDGP10060000002000000002000000002000GR100600000900009
0071722720999992000051920009+32633-108167NSRDB+163999999V020999999999999999999999999999+99999+99999999999ADDGP10060104002008095102015011602008GQ100600140920019GR100601294913349
0133722720999992000052010504+32630-108150FM-15+1659KSVC V0203501N001512200019N0160931N1+01101+00101999999ADDGF100991999999999999999999MA1101961999999MW1001REMMET055KSVC 201050Z AUTO 35003KT 10SM CLR 11/01 A3011 RMK AO1;EQDQ01+000000PRSWM2
0144722720999992000052317514+32630-108150FM-15+1659KSVC V0202801N006712200019N0160931N1+03401+00601999999ADDGF100991999999999999999999MA1101801999999MW1001OC100821REMMET058KSVC 231751Z AUTO 28013G16KT 10SM CLR 34/06 A3006 RMK AO1;EQDQ01+000000PRSWM2
0071722720999992000052516009+32633-108167NSRDB+163999999V020999999999999999999999999999+99999+99999999999ADDGP10060064902008088702015007602008GQ100600498908909GR100600858913319
0133722720999992000052800494+32630-108150FM-15+1659KSVC V0201701N003112200019N0160931N1+03201+00701999999ADDGF100991999999999999999999MA1101931999999MW1001REMMET055KSVC 280049Z AUTO 17006KT 10SM CLR 32/07 A3010 RMK AO1;EQDQ01+000000PRSWM2
0054722720999992000052808009+32633-108167NSRDB+163999999V020999999999999999999999999999+99999+99999999999ADDGP10060000002000000002000000002000GR100600000900009
0133722720999992000052810504+32630-108150FM-15+1659KSVC V0200301N003112200019N0160931N1+01701+00401999999ADDGF100991999999999999999999MA1102241999999MW1001REMMET055KSVC 281050Z AUTO 03006KT 10SM CLR 17/04 A3019 RMK AO1;EQDQ01+000000PRSWM2
0054722720999992000053005009+32633-108167NSRDB+163999999V020999999999999999999999999999+99999+99999999999ADDGP10060000002000000002000000002000GR100600000900009
0054722720999992000060207009+32633-108167NSRDB+163999999V020999999999999999999999999999+99999+99999999999ADDGP10060000002000000002000000002000GR100600000900009
0071722720999992000060302009+32633-108167NSRDB+163999999V020999999999999999999999999999+99999+99999999999ADDGP10060000002008000002015000002008GQ100600818929159GR100600188913289
0184722720999992000060807504+32630-108150FM-15+1659KSVC V0200901N005710180019N0160931N1+02301+01101999999ADDGD12991+0150019GD23991+0180019GF107991999999999999999999MA1101831999999MW1001OC100771REMMET068KSVC 080750Z AUTO 09011G15KT 10SM SCT050 BKN060 23/11 A3007 RMK AO1;EQDQ01+000000PRSWM2
0144722720999992000061120504+32630-108150FM-15+1659KSVC V0202201N005712200019N0160931N1+03101+00901999999ADDGF100991999999999999999999MA1102031999999MW1001OC100871REMMET058KSVC 112050Z AUTO 22011G17KT 10SM CLR 31/09 A3013 RMK AO1;EQDQ01+000000PRSWM2
0133722720999992000061216504+32630-108150FM-15+1659KSVC V0201601N003112200019N0160931N1+02901+01601999999ADDGF100991999999999999999999MA1102241999999MW1001REMMET055KSVC 121650Z AUTO 16006KT 10SM CLR 29/16 A3019 RMK AO1;EQDQ01+000000PRSWM2
0071722720999992000061222009+32633-108167NSRDB+163999999V020999999999999999999999999999+99999+99999999999ADDGP10060086802008069502015027602008GQ100600316926139GR100601125913249
0133722720999992000061313504+32630-108150FM-15+1659KSVC V0209999C000012200019N0160931N1+02101+01501999999ADDGF100991999999999999999999MA1102071999999MW1001REMMET055KSVC 131350Z AUTO 00000KT 10SM CLR 21/15 A3014 RMK AO1;EQDQ01+000000PRSWM2
0144722720999992000061419504+32630-108140FM-15+1659KSVC V0201401N007212200019N0160931N1+03301+00801999999ADDGF100991999999999999999999MA1101961999999MW1001OC101031REMMET058KSVC 141950Z AUTO 14014G20KT 10SM CLR 33/08 A3011 RMK AO1;EQDQ01+000000PRSWM2
0054722720999992000062110009+32633-108167NSRDB+163999999V020999999999999999999999999999+99999+99999999999ADDGP10060000002000000002000000002000GR100600000900009
0133722720999992000062307504+32630-108140FM-15+1659KSVC V0202801N002612200019N0160931N1+01701+01601999999ADDGF100991999999999999999999MA1102031999999MW1001REMMET055KSVC 230750Z AUTO 28005KT 10SM CLR 17/16 A3013 RMK AO1;EQDQ01+000000PRSWM2
0162722720999992000062721514+32630-108140FM-15+1659KSVC V0201101N004612200019N0160931N1+02701+01901999999ADDGD12991+0138019GF104991999999999999999999MA1102171999999MW1001OC100821REMMET061KSVC 272151Z AUTO 11009G16KT 10SM SCT046 27/19 A3017 RMK AO1;EQDQ01+000000PRSWM2
0133722720999992000062802504+32630-108140FM-15+1659KSVC V0209999C000012200019N0160931N1+02301+01901999999ADDGF100991999999999999999999MA1102131999999MW1001REMMET055KSVC 280250Z AUTO 00000KT 10SM CLR 23/19 A3016 RMK AO1;EQDQ01+000000PRSWM2
0071722720999992000062913009+32633-108167NSRDB+163999999V020999999999999999999999999999+99999+99999999999ADDGP10060000402008000002015000402008GQ100600856906509GR100600086911129
0173722720999992000062920504+32630-108140FM-15+1659KSVC V0200501N003110210019N0160931N1+02001+02001999999ADDGD12991+0135019GD23991+0210019GF107991999999999999999999MA1102241999999MW1001REMMET065KSVC 292050Z AUTO 05006KT 10SM SCT045 BKN075 20/20 A3019 RMK AO1;EQDQ01+000000PRSWM2
0151722720999992000070807504+32630-108140FM-15+1659KSVC V0203301N001512200019N0160931N1+01901+01701999999ADDGD12991+0360019GF104991999999999999999999MA1102241999999MW1001REMMET058KSVC 080750Z AUTO 33003KT 10SM SCT120 19/17 A3019 RMK AO1;EQDQ01+000000PRSWM2
0071722720999992000070913009+32633-108167NSRDB+163999999V020999999999999999999999999999+99999+99999999999ADDGP10060001002008002302015000902008GQ100600859906599GR100600071910029
0144722720999992000072002494+32630-108140FM-15+1659KSVC V0203301N011812200019N0160931N1+02501+01401999999ADDGF100991999999999999999999MA1102371999999MW1001OC101541REMMET058KSVC 200249Z AUTO 33023G30KT 10SM CLR 25/14 A3023 RMK AO1;EQDQ01+000000PRSWM2
0151722720999992000072004494+32630-108140FM-15+1659KSVC V0203001N005712200019N0160931N1+02301+01401999999ADDGD12991+0330019GF104991999999999999999999MA1102441999999MW1001REMMET058KSVC 200449Z AUTO 30011KT 10SM SCT110 23/14 A3025 RMK AO1;EQDQ01+000000PRSWM2
0054722720999992000072110009+32633-108167NSRDB+163999999V020999999999999999999999999999+99999+99999999999ADDGP10060000002000000002000000002000GR100600000900009
0054722720999992000072207009+32633-108167NSRDB+163999999V020999999999999999999999999999+99999+99999999999ADDGP10060000002000000002000000002000GR100600000900009
0133722720999992000072300504+32630-108140FM-15+1659KSVC V0201001N003612200019N0160931N1+03101+01301999999ADDGF100991999999999999999999MA1102171999999MW1001REMMET055KSVC 230050Z AUTO 10007KT 10SM CLR 31/13 A3017 RMK AO1;EQDQ01+000000PRSWM2
0133722720999992000072812494+32630-108140FM-15+1659KSVC V0203501N004612200019N0160931N1+01801+01801999999ADDGF100991999999999999999999MA1102201999999MW1001REMMET055KSVC 281249Z AUTO 35009KT 10SM CLR 18/18 A3018 RMK AO1;EQDQ01+000000PRSWM2
0071722720999992000072817009+32633-108167NSRDB+163999999V020999999999999999999999999999+99999+99999999999ADDGP10060076102008088502015008502008GQ100600402909969GR100601010913259
0054722720999992000072907009+32633-108167NSRDB+163999999V020999999999999999999999999999+99999+99999999999ADDGP10060000002000000002000000002000GR100600000900009
0151722720999992000080618504+32630-108140FM-15+1659KSVC V0202701N003112200019N0160931N1+02901+01701999999ADDGD12991+0360019GF104991999999999999999999MA1101961999999MW1001REMMET058KSVC 061850Z AUTO 27006KT 10SM SCT120 29/17 A3011 RMK AO1;EQDQ01+000000PRSWM2
0054722720999992000080804009+32633-108167NSRDB+163999999V020999999999999999999999999999+99999+99999999999ADDGP10060000002000000002000000002000GR100600000900009
0071722720999992000080916009+32633-108167NSRDB+163999999V020999999999999999999999999999+99999+99999999999ADDGP10060053702008067802015013902008GQ100600541909409GR100600779913309
0054722720999992000081005009+32633-108167NSRDB+163999999V020999999999999999999999999999+99999+99999999999ADDGP10060000002000000002000000002000GR100600000900009
0133722720999992000081207504+32630-108140FM-15+1659KSVC V0202901N004112200019N0160931N1+01901+01901999999ADDGF100991999999999999999999MA1102371999999MW1001REMMET055KSVC 120750Z AUTO 29008KT 10SM CLR 19/19 A3023 RMK AO1;EQDQ01+000000PRSWM2
0133722720999992000081905504+32630-108140FM-15+1659KSVC V0203001N003112200019N0160931N1+01801+01801999999ADDGF100991999999999999999999MA1102511999999MW1001REMMET055KSVC 190550Z AUTO 30006KT 10SM CLR 18/18 A3027 RMK AO1;EQDQ01+000000PRSWM2
0071722720999992000082014009+32633-108167NSRDB+163999999V020999999999999999999999999999+99999+99999999999ADDGP10060010502008043702015003202008GQ100600804908159GR100600222913359
0151722720999992000082419504+32630-108140FM-15+1659KSVC V0209999C000012200019N0160931N1+02901+01601999999ADDGD12991+0180019GF104991999999999999999999MA1102681999999MW1001REMMET058KSVC 241950Z AUTO 00000KT 10SM SCT065 29/16 A3032 RMK AO1;EQDQ01+000000PRSWM2
0054722720999992000082505009+32633-108167NSRDB+163999999V020999999999999999999999999999+99999+99999999999ADDGP10060000002000000002000000002000GR100600000900009
0071722720999992000090201009+32633-108167NSRDB+163999999V020999999999999999999999999999+99999+99999999999ADDGP10060021202008067502015005802008GQ100600768927109GR100600306913429
0071722720999992000090320009+32633-108167NSRDB+163999999V020999999999999999999999999999+99999+99999999999ADDGP10060094402008096302015007602008GQ100600261919029GR100601207913449
0071722720999992000090501009+32633-108167NSRDB+163999999V020999999999999999999999999999+99999+99999999999ADDGP10060020002008062502015006502008GQ100600776927029GR100600289913449
0054722720999992000091107009+32633-108167NSRDB+163999999V020999999999999999999999999999+99999+99999999999ADDGP10060000002000000002000000002000GR100600000900009
0071722720999992000091220009+32633-108167NSRDB+163999999V020999999999999999999999999999+99999+99999999999ADDGP10060090302008092802015009402008GQ100600295919089GR100601175913509
0133722720999992000091313534+32630-108140FM-15+1659KSVC V0200301N002612200019N0160931N1+02001+00101999999ADDGF100991999999999999999999MA1102341999999MW1001REMMET055KSVC 131353Z AUTO 03005KT 10SM CLR 20/01 A3022 RMK AO1;EQDQ01+000000PRSWM2
0071722720999992000092221009+32633-108167NSRDB+163999999V020999999999999999999999999999+99999+99999999999ADDGP10060077602008077802015016502008GQ100600385921549GR100601062913579
0201722720999992000092619093+32630-108140FM-15+1659KSVC V0201101N004112200019N0160931N1+02601+00101999999ADDGF100991999999999999999999GP10060084102008088602015011602008GQ100600353916549GR100601110913619MA1102511999999MW1001REMMET055KSVC 261909Z AUTO 11008KT 10SM CLR 26/01 A3027 RMK AO1;EQDQ01+000000PRSWM2
0071722720999992000092621009+32633-108167NSRDB+163999999V020999999999999999999999999999+99999+99999999999ADDGP10060075802008077902015016002008GQ100600400921479GR100601042913619
0133722720999992000092623494+32630-108140FM-15+1659KSVC V0201401N002612200019N0160931N1+02701+00401999999ADDGF100991999999999999999999MA1102271999999MW1001REMMET055KSVC 262349Z AUTO 14005KT 10SM CLR 27/04 A3020 RMK AO1;EQDQ01+000000PRSWM2
0133722720999992000092704494+32630-108140FM-15+1659KSVC V0203601N003112200019N0160931N1+01601+00201999999ADDGF100991999999999999999999MA1102471999999MW1001REMMET055KSVC 270449Z AUTO 36006KT 10SM CLR 16/02 A3026 RMK AO1;EQDQ01+000000PRSWM2
0133722720999992000092716514+32630-108140FM-15+1659KSVC V0201101N002112200019N0160931N1+02801+00801999999ADDGF100991999999999999999999MA1102641999999MW1001REMMET055KSVC 271651Z AUTO 11004KT 10SM CLR 28/08 A3031 RMK AO1;EQDQ01+000000PRSWM2
0133722720999992000092813114+32630-108140FM-15+1659KSVC V0203601N002112200019N0160931N1+01301+00701999999ADDGF100991999999999999999999MA1102541999999MW1001REMMET055KSVC 281311Z AUTO 36004KT 10SM CLR 13/07 A3028 RMK AO1;EQDQ01+000000PRSWM2
0134722720999992000093004504+32630-108140FM-15+1659KSVC V0200301N002112200019N0160931N1+01801-00301999999ADDGF100991999999999999999999MA1102071999999MW1001REMMET056KSVC 300450Z AUTO 03004KT 10SM CLR 18/M03 A3014 RMK AO1;EQDQ01+000000PRSWM2
0134722720999992000100109504+32630-108140FM-15+1659KSVC V0203501N003612200019N0160931N1+01501-00101999999ADDGF100991999999999999999999MA1101901999999MW1001REMMET056KSVC 010950Z AUTO 35007KT 10SM CLR 15/M01 A3009 RMK AO1;EQDQ01+000000PRSWM2
0054722720999992000100409009+32633-108167NSRDB+163999999V020999999999999999999999999999+99999+99999999999ADDGP10060000002000000002000000002000GR100600000900009
0151722720999992000100520504+32630-108140FM-15+1659KSVC V0201301N001512200019N0160931N1+02801+00601999999ADDGD12991+0300019GF104991999999999999999999MA1101901999999MW1001REMMET058KSVC 052050Z AUTO 13003KT 10SM SCT100 28/06 A3009 RMK AO1;EQDQ01+000000PRSWM2
0054722720999992000100611009+32633-108167NSRDB+163999999V020999999999999999999999999999+99999+99999999999ADDGP10060000002000000002000000002000GR100600000900009
0071722720999992000100701009+32633-108167NSRDB+163999999V020999999999999999999999999999+99999+99999999999ADDGP10060002602008033302015000502008GQ100600852926049GR100600092911069
0102722720999992000100808504+32630-108140FM-15+1659KSVC V0201501N006212200019N0112651N1+00601+00601999999ADDMA1102841999999MW1001REMMET050KSVC 080850Z AUTO 15012KT 7SM 06/06 A3037 RMK AO1;EQDQ01+000000PRSWM2
0151722720999992000101004504+32630-108140FM-15+1659KSVC V0201301N003610057019N0160931N1+00501+00101999999ADDGD14991+0057019GF108991999999999999999999MA1102471999999MW1001REMMET058KSVC 100450Z AUTO 13007KT 10SM OVC019 05/01 A3026 RMK AO1;EQDQ01+000000PRSWM2
0054722720999992000101008009+32633-108167NSRDB+163999999V020999999999999999999999999999+99999+99999999999ADDGP10060000002000000002000000002000GR100600000900009
0071722720999992000101416009+32633-108167NSRDB+163999999V020999999999999999999999999999+99999+99999999999ADDGP10060013402008000002015013402008GQ100600644912019GR100600593913759
0071722720999992000101420009+32633-108167NSRDB+163999999V020999999999999999999999999999+99999+99999999999ADDGP10060068502008059202015024302008GQ100600420919169GR100601022913759
0054722720999992000101605009+32633-108167NSRDB+163999999V020999999999999999999999999999+99999+99999999999ADDGP10060000002000000002000000002000GR100600000900009
0071722720999992000101617009+32633-108167NSRDB+163999999V020999999999999999999999999999+99999+99999999999ADDGP10060060502008094202015006002008GQ100600548913349GR100600793913779
0054722720999992000102009009+32633-108167NSRDB+163999999V020999999999999999999999999999+99999+99999999999ADDGP10060000002000000002000000002000GR100600000900009
0054722720999992000102802009+32633-108167NSRDB+163999999V020999999999999999999999999999+99999+99999999999ADDGP10060000002000000002000000002000GR100600000900009
0133722720999992000103013504+32630-108140FM-15+1659KSVC V0203401N003112200019N0160931N1+00301+00201999999ADDGF100991999999999999999999MA1101931999999MW1001REMMET055KSVC 301350Z AUTO 34006KT 10SM CLR 03/02 A3010 RMK AO1;EQDQ01+000000PRSWM2
0151722720999992000103115314+32630-108140FM-15+1659KSVC V0203101N008210180019N0160931N1+00601+00101999999ADDGD13991+0180019GF107991999999999999999999MA1101691999999MW1001REMMET058KSVC 311531Z AUTO 31016KT 10SM BKN065 06/01 A3003 RMK AO1;EQDQ01+000000PRSWM2
0163722720999992000103122314+32630-108140FM-15+1659KSVC V0202601N007210240019N0160931N1+00901-00401999999ADDGD14991+0240019GF108991999999999999999999MA1101631999999MW1001OC100931REMMET062KSVC 312231Z AUTO 26014G18KT 10SM OVC080 09/M04 A3001 RMK AO1;EQDQ01+000000PRSWM2
0071722720999992000110218009+32633-108167NSRDB+163999999V020999999999999999999999999999+99999+99999999999ADDGP10060066402008099502015005002008GQ100600520915339GR100600855913909
0071722720999992000110518009+32633-108167NSRDB+163999999V020999999999999999999999999999+99999+99999999999ADDGP10060020802008002402015019402008GQ100600529915389GR100600840913929
0071722720999992000110601009+32633-108167NSRDB+163999999V020999999999999999999999999999+99999+99999999999ADDGP10060000002008000002015000002008GQ100600885925019GR100600010903839
0071722720999992000110917009+32633-108167NSRDB+163999999V020999999999999999999999999999+99999+99999999999ADDGP10060051502008096402015004402008GQ100600609913939GR100600678913959
0152722720999992000111207504+32630-108140FM-15+1659KSVC V0203101N004110180019N0160931N1+00201-00101999999ADDGD13991+0180019GF107991999999999999999999MA1101631999999MW1001REMMET059KSVC 120750Z AUTO 31008KT 10SM BKN060 02/M01 A3001 RMK AO1;EQDQ01+000000PRSWM2
0054722720999992000111210009+32633-108167NSRDB+163999999V020999999999999999999999999999+99999+99999999999ADDGP10060000002000000002000000002000GR100600000900009
0071722720999992000111901009+32633-108167NSRDB+163999999V020999999999999999999999999999+99999+99999999999ADDGP10060000002009000002021000002009GQ100600893924659GR100600002901989
0134722720999992000111901494+32630-108140FM-15+1659KSVC V0203601N004612200019N0160931N1+00101-01201999999ADDGF100991999999999999999999MA1102341999999MW1001REMMET056KSVC 190149Z AUTO 36009KT 10SM CLR 01/M12 A3022 RMK AO1;EQDQ01+000000PRSWM2
0134722720999992000111919314+32630-108140FM-15+1659KSVC V0209999C000012200019N0160931N1+01201-01001999999ADDGF100991999999999999999999MA1102541999999MW1001REMMET056KSVC 191931Z AUTO 00000KT 10SM CLR 12/M10 A3028 RMK AO1;EQDQ01+000000PRSWM2
0054722720999992000112409009+32633-108167NSRDB+163999999V020999999999999999999999999999+99999+99999999999ADDGP10060000002000000002000000002000GR100600000900009
0135722720999992000112411514+32630-108140FM-15+1659KSVC V0203201N003612200019N0160931N1-00201-00401999999ADDGF100991999999999999999999MA1102201999999MW1001REMMET057KSVC 241151Z AUTO 32007KT 10SM CLR M02/M04 A3018 RMK AO1;EQDQ01+000000PRSWM2
0054722720999992000112413009+32633-108167NSRDB+163999999V020999999999999999999999999999+99999+99999999999ADDGP10060000002000000002000000002000GR100600000900009
0135722720999992000112604504+32630-108140FM-15+1659KSVC V0203301N004112200019N0160931N1-00101-00701999999ADDGF100991999999999999999999MA1102341999999MW1001REMMET057KSVC 260450Z AUTO 33008KT 10SM CLR M01/M07 A3022 RMK AO1;EQDQ01+000000PRSWM2
0135722720999992000112710504+32630-108140FM-15+1659KSVC V0203601N002612200019N0160931N1-00201-00601999999ADDGF100991999999999999999999MA1102101999999MW1001REMMET057KSVC 271050Z AUTO 36005KT 10SM CLR M02/M06 A3015 RMK AO1;EQDQ01+000000PRSWM2
0135722720999992000112712504+32630-108140FM-15+1659KSVC V0203501N004112200019N0160931N1-00101-00601999999ADDGF100991999999999999999999MA1102101999999MW1001REMMET057KSVC 271250Z AUTO 35008KT 10SM CLR M01/M06 A3015 RMK AO1;EQDQ01+000000PRSWM2
0134722720999992000112907504+32630-108140FM-15+1659KSVC V0203501N004612200019N0160931N1+00301-00301999999ADDGF100991999999999999999999MA1102371999999MW1001REMMET056KSVC 290750Z AUTO 35009KT 10SM CLR 03/M03 A3023 RMK AO1;EQDQ01+000000PRSWM2
0133722720999992000120900324+32630-108140FM-15+1659KSVC V0209999C000012200019N0160931N1+01201+00101999999ADDGF100991999999999999999999MA1101731999999MW1001REMMET055KSVC 090032Z AUTO 00000KT 10SM CLR 12/01 A3004 RMK AO1;EQDQ01+000000PRSWM2
0071722720999992000121021009+32633-108167NSRDB+163999999V020999999999999999999999999999+99999+99999999999ADDGP10060036302009021602021025202009GQ100600592920269GR100600721914119
0134722720999992000121409494+32630-108140FM-15+1659KSVC V0203001N004612200019N0160931N1+00101-00101999999ADDGF100991999999999999999999MA1102271999999MW1001REMMET056KSVC 140949Z AUTO 30009KT 10SM CLR 01/M01 A3020 RMK AO1;EQDQ01+000000PRSWM2
0054722720999992000121504009+32633-108167NSRDB+163999999V020999999999999999999999999999+99999+99999999999ADDGP10060000002000000002000000002000GR100600000900009
0054722720999992000121803009+32633-108167NSRDB+163999999V020999999999999999999999999999+99999+99999999999ADDGP10060000002000000002000000002000GR100600000900009
0071722720999992000122818009+32633-108167NSRDB+163999999V020999999999999999999999999999+99999+99999999999ADDGP10060050002009090302021006402009GQ100600613915269GR100600680914159
0071722720999992000123100009+32633-108167NSRDB+163999999V020999999999999999999999999999+99999+99999999999ADDGP10060000002009000002021000002009GQ100600823923629GR100600190914159
0054722725999992000010514009+32250-107717NSRDB+134899999V020999999999999999999999999999+99999+99999999999ADDGP10060000002000000002000000002000GR100600000900009
0218722725999992000010516003+32270-107720FM-15+1313KDMN V02099999999992200019N0804671N1-00101-01101999999ADDGF100991999999999999999999GP10060018402009066102021003402009GQ100600770912799GR100600319914159MA1102031999999MW1001REMMET072KDMN 051556Z VRB03KT 50SM SKC M01/M11 A3013 RMK AC DSNT NNE-E T10121109;EQDQ01+000000PRSWM2
0135722725999992000010719544+32270-107720FM-15+1313KDMN V02099999999992200019N0804671N1+00901-00701999999ADDGF100991999999999999999999MA1102611999999MW1001REMMET057KDMN 071954Z VRB04KT 50SM SKC 09/M07 A3030 RMK T00941068;EQDQ01+000000PRSWM2
0071722725999992000010818009+32250-107717NSRDB+134899999V020999999999999999999999999999+99999+99999999999ADDGP10060051502009092702021005502009GQ100600603915139GR100600700914159
0160722725999992000011219544+32270-107720FM-15+1313KDMN V0202501N006212200019N0804671N1+02001-00801999999ADDGF100991999999999999999999MA1102101999999MW1001OC101031REMMET074KDMN 121954Z 25012G20KT 50SM SKC 20/M08 A3015 RMK CI DSNT NW-NE T01971083;EQDQ01+000000PRSWM2
0054722725999992000011404009+32250-107717NSRDB+134899999V020999999999999999999999999999+99999+99999999999ADDGP10060000002000000002000000002000GR100600000900009
0054722725999992000011514009+32250-107717NSRDB+134899999V020999999999999999999999999999+99999+99999999999ADDGP10060000002000000002000000002000GR100600000900009
0071722725999992000011719009+32250-107717NSRDB+134899999V020999999999999999999999999999+99999+99999999999ADDGP10060061402008089302015009402008GQ100600545916549GR100600820914149
0233722725999992000012117524+32270-107720FM-15+1313KDMN V0202601N006210750019N0643731N1+01901-00201999999ADDGD12991+0420019GD23991+0750019GF107991999999999999999999KA1999M+01851KA2999N+00351MA1101831999999MD1010051+9999MW1001REMMET085KDMN 211752Z 26012KT 40SM SCT140 BKN250 19/M02 A3007 RMK T01851022 10185 20035 50005;EQDQ01+000000PRSWM2
0054722725999992000012510009+32250-107717NSRDB+134899999V020999999999999999999999999999+99999+99999999999ADDGP10060000002000000002000000002000GR100600000900009
0054722725999992000020105009+32250-107717NSRDB+134899999V020999999999999999999999999999+99999+99999999999ADDGP10060000002000000002000000002000GR100600000900009
0071722725999992000020317009+32250-107717NSRDB+134899999V020999999999999999999999999999+99999+99999999999ADDGP10060043102008085402015006002008GQ100600643913289GR100600610914089
0054722725999992000020513009+32250-107717NSRDB+134899999V020999999999999999999999999999+99999+99999999999ADDGP10060000002000000002000000002000GR100600000900009
0054722725999992000020607009+32250-107717NSRDB+134899999V020999999999999999999999999999+99999+99999999999ADDGP10060000002000000002000000002000GR100600000900009
0054722725999992000020903009+32250-107717NSRDB+134899999V020999999999999999999999999999+99999+99999999999ADDGP10060000002000000002000000002000GR100600000900009
0054722725999992000021708009+32250-107717NSRDB+134899999V020999999999999999999999999999+99999+99999999999ADDGP10060000002000000002000000002000GR100600000900009
0221722725999992000021816003+32270-107720FM-15+1313KDMN V0203101N001512200019N0643731N1+00501-00901999999ADDGD12991+0750019GF102991999999999999999999GP10060030902008081002015004802008GQ100600712911809GR100600450914009MA1102241999999MW1001REMMET060KDMN 181555Z 31003KT 40SM FEW250 05/M09 A3019 RMK T00511089;EQDQ01+000000PRSWM2
0054722725999992000021913009+32250-107717NSRDB+134899999V020999999999999999999999999999+99999+99999999999ADDGP10060000002000000002000000002000GR100600000900009
0153722725999992000022618544+32270-107720FM-15+1313KDMN V02099999999992200019N0804671N1+01201-00701999999ADDGD12991+0750019GF102991999999999999999999MA1102571999999MW1001REMMET060KDMN 261854Z VRB06KT 50SM FEW250 12/M07 A3029 RMK T01201071;EQDQ01+000000PRSWM2
0054722725999992000022803009+32250-107717NSRDB+134899999V020999999999999999999999999999+99999+99999999999ADDGP10060000002000000002000000002000GR100600000900009
0071722725999992000022914009+32250-107717NSRDB+134899999V020999999999999999999999999999+99999+99999999999ADDGP10060000002008000002015000002008GQ100600881910019GR100600015904539
0054722725999992000030408009+32250-107717NSRDB+134899999V020999999999999999999999999999+99999+99999999999ADDGP10060000002000000002000000002000GR100600000900009
0071722725999992000030718009+32250-107717NSRDB+134899999V020999999999999999999999999999+99999+99999999999ADDGP10060064402008066302015018202008GQ100600458913959GR100600966913889
0153722725999992000030815534+32270-107720FM-15+1313KDMN V0202601N001510690019N0643731N1+00501-00301999999ADDGD13991+0690019GF107991999999999999999999MA1102301999999MW1001REMMET060KDMN 081553Z 26003KT 40SM BKN230 05/M03 A3021 RMK T00491033;EQDQ01+000000PRSWM2
0054722725999992000030908009+32250-107717NSRDB+134899999V020999999999999999999999999999+99999+99999999999ADDGP10060000002000000002000000002000GR100600000900009
0054722725999992000031205009+32250-107717NSRDB+134899999V020999999999999999999999999999+99999+99999999999ADDGP10060000002000000002000000002000GR100600000900009
0153722725999992000031616504+32270-107720FM-15+1313KDMN V0203201N005712200019N0643731N1+01801-00401999999ADDGD12991+0360019GF102991999999999999999999MA1101661999999MW1001REMMET060KDMN 161650Z 32011KT 40SM FEW120 18/M04 A3002 RMK T01831036;EQDQ01+000000PRSWM2
0164722725999992000032015524+32270-107720FM-15+1313KDMN V0202201N006212200019N0643731N1+01801-01001999999ADDGD12991+0360019GF102991999999999999999999MA1100371999999MW1001OC100871REMMET063KDMN 201552Z 22012G17KT 40SM FEW120 18/M10 A2964 RMK T01771101;EQDQ01+000000PRSWM2
0071722725999992000032319009+32250-107717NSRDB+134899999V020999999999999999999999999999+99999+99999999999ADDGP10060090402008095702015010002008GQ100600330915819GR100601153913759
0054722725999992000032810009+32250-107717NSRDB+134899999V020999999999999999999999999999+99999+99999999999ADDGP10060000002000000002000000002000GR100600000900009
0054722725999992000040109009+32250-107717NSRDB+134899999V020999999999999999999999999999+99999+99999999999ADDGP10060000002000000002000000002000GR100600000900009
0054722725999992000040507009+32250-107717NSRDB+134899999V020999999999999999999999999999+99999+99999999999ADDGP10060000002000000002000000002000GR100600000900009
0071722725999992000040516009+32250-107717NSRDB+134899999V020999999999999999999999999999+99999+99999999999ADDGP10060053502008084602015008502008GQ100600579910409GR100600723913659
0175722725999992000040918534+32270-107720FM-15+1313KDMN V02099999999990750019N0643731N1+02401-00201999999ADDGD12991+0450019GD23991+0750019GF107991999999999999999999MA1101731999999MW1001REMMET067KDMN 091853Z VRB05KT 40SM FEW150 BKN250 24/M02 A3004 RMK T02401023;EQDQ01+000000PRSWM2
0071722725999992000041514009+32250-107717NSRDB+134899999V020999999999999999999999999999+99999+99999999999ADDGP10060010302008041102015003602008GQ100600805908409GR100600222913579
0071722725999992000041516009+32250-107717NSRDB+134899999V020999999999999999999999999999+99999+99999999999ADDGP10060055902008079302015010802008GQ100600554910089GR100600770913579
0071722725999992000041622009+32250-107717NSRDB+134899999V020999999999999999999999999999+99999+99999999999ADDGP10060085802008092402015013802008GQ100600389924359GR100601054913569
0054722725999992000042110009+32250-107717NSRDB+134899999V020999999999999999999999999999+99999+99999999999ADDGP10060000002000000002000000002000GR100600000900009
0054722725999992000042712009+32250-107717NSRDB+134899999V020999999999999999999999999999+99999+99999999999ADDGP10060000002000000002000000002000GR100600000900009
0071722725999992000042818009+32250-107717NSRDB+134899999V020999999999999999999999999999+99999+99999999999ADDGP10060097002008095202015013402008GQ100600287912339GR100601180913479
0135722725999992000043016534+32270-107720FM-15+1313KDMN V0202701N003612200019N0643731N1+02201-00701999999ADDGF100991999999999999999999MA1101831999999MW1001REMMET057KDMN 301653Z 27007KT 40SM SKC 22/M07 A3007 RMK T02171071;EQDQ01+000000PRSWM2
0152722725999992000050116534+32270-107720FM-15+1313KDMN V0200901N006212200019N0643731N1+01801+00201999999ADDGD12991+0600019GF102991999999999999999999MA1102131999999MW1001REMMET059KDMN 011653Z 09012KT 40SM FEW200 18/02 A3016 RMK T01830023;EQDQ01+000000PRSWM2
0071722725999992000050117009+32250-107717NSRDB+134899999V020999999999999999999999999999+99999+99999999999ADDGP10060081902008092702015010502008GQ100600396910609GR100601034913459
0175722725999992000051215514+32270-107720FM-15+1313KDMN V0202801N004610750019N0482801N1+02201-01001999999ADDGD12991+0570019GD23991+0750019GF107991999999999999999999MA1101831999999MW1001REMMET067KDMN 121551Z 28009KT 30SM FEW190 BKN250 22/M10 A3007 RMK T02181099;EQDQ01+000000PRSWM2
0134722725999992000051415534+32270-107720FM-15+1313KDMN V0201101N005112200019N0482801N1+02301+00401999999ADDGF100991999999999999999999MA1102171999999MW1001REMMET056KDMN 141553Z 11010KT 30SM SKC 23/04 A3017 RMK T02320040;EQDQ01+000000PRSWM2
0054722725999992000051708009+32250-107717NSRDB+134899999V020999999999999999999999999999+99999+99999999999ADDGP10060000002000000002000000002000GR100600000900009
0054722725999992000052011009+32250-107717NSRDB+134899999V020999999999999999999999999999+99999+99999999999ADDGP10060000002000000002000000002000GR100600000900009
0197722725999992000052213524+32270-107720FM-15+1313KDMN V0200801N003112200019N0482801N1+02001+00301999999ADDGF100991999999999999999999KA1999M+02061KA2999N+01281MA1101931999999MW1001REMMET093KDMN 221352Z 08006KT 30SM SKC 20/03 A3010 RMK FIRST HZ ALQDS T02040032 10206 20128 403440128;EQDQ01+000000PRSWM2
0054722725999992000052307009+32250-107717NSRDB+134899999V020999999999999999999999999999+99999+99999999999ADDGP10060000002000000002000000002000GR100600000900009
0054722725999992000060504009+32250-107717NSRDB+134899999V020999999999999999999999999999+99999+99999999999ADDGP10060000002000000002000000002000GR100600000900009
0071722725999992000061403009+32250-107717NSRDB+134899999V020999999999999999999999999999+99999+99999999999ADDGP10060000002008000002015000002008GQ100600886929719GR100609999903869
0154722725999992000061415534+32260-107720FM-15+1313KDMN V0200601N007712200019N0643731N1+03001+00401999999ADDGD12991+0750019GF102991999999999999999999MA1101831999999MW1001REMMET061KDMN 141553Z 06015KT 40SM FEW250 30/04 A3007 RMK T02980036 N;EQDQ01+000000PRSWM2
0243722725999992000062321454+32260-107720FM-15+1313KDMN V0202701N009312200019N0804671N1+03401+00701999999ADDGD12991+0330019GD22991+0750019GF102991999999999999999999KA1999M+03511KA2999N+03061MA1101661999999MW1001OC101231REMMET101KDMN 232145Z 27018G24KT 50SM FEW110 FEW250 34/07 A3002 RMK LAST CB TCU DSNT SW T03360066 10351 20306;EQDQ01+000000PRSWM2
0071722725999992000062603009+32250-107717NSRDB+134899999V020999999999999999999999999999+99999+99999999999ADDGP10060000002008000002015000002008GQ100600883929709GR100600013904309
0241722725999992000062621504+32260-107720FM-15+1313KDMN V0200701N006210600019N0643731N1+03601+01201999999ADDGD12991+0300019GD23991+0600019GF107991999999999999999999KA1999M+03631KA2999N+03271MA1101561999999MW1001OC100931REMMET099KDMN 262150Z 07012G18KT 40SM SCT100 BKN200 36/12 A2999 RMK LAST SHRA DSNT SW T03630117 10363 20327;EQDQ01+000000PRSWM2
0054722725999992000062807009+32250-107717NSRDB+134899999V020999999999999999999999999999+99999+99999999999ADDGP10060000002000000002000000002000GR100600000900009
0230722725999992000062917344+32260-107720FM-16+1313KDMN V0200501N006210135019N0321861N1+02001+01601999999ADDGD12991+0075019GD23991+0135019GD34991+0240019GF108991999999999999999999MA1102241999999MW1001REMMET107KDMN 291734Z 05012KT 20SM SCT025 BKN045 OVC080 20/16 A3019 RMK SHRA DSNT S-W-N-NE HIER MTN TPS OBSCD ALQDS;EQDQ01+000000PRSWM2
0054722725999992000063007009+32250-107717NSRDB+134899999V020999999999999999999999999999+99999+99999999999ADDGP10060000002000000002000000002000GR100600000900009
0207722725999992000063016154+32260-107720FM-16+1313KDMN V0202301N003112200019N0241401N1+02201+01801999999ADDGD12991+0045019GD22991+0450019GF104991999999999999999999MA1102001999999MW1001REMMET099KDMN 301615Z 23006KT 15SM SCT015 SCT150 22/18 A3012 RMK FEW MDT CU DSNT AL QDS HIR TRN OBSCD ALQDS;EQDQ01+000000PRSWM2
0172722725999992000070314544+32260-107720FM-15+1313KDMN V0202601N006212200019N0804671N1+02701+01201999999ADDGD12991+0540019GF104991999999999999999999MA1101831999999MD1110121+9999MW1001REMMET065KDMN 031454Z 26012KT 50SM SCT180 27/12 A3007 RMK T02680124 51012;EQDQ01+000000PRSWM2
0054722725999992000070708009+32250-107717NSRDB+134899999V020999999999999999999999999999+99999+99999999999ADDGP10060000002000000002000000002000GR100600000900009
0071722725999992000070823009+32250-107717NSRDB+134899999V020999999999999999999999999999+99999+99999999999ADDGP10060043102008014202015032802008GQ100600438926959GR100600951913219
0054722725999992000071308009+32250-107717NSRDB+134899999V020999999999999999999999999999+99999+99999999999ADDGP10060000002000000002000000002000GR100600000900009
0071722725999992000071500009+32250-107717NSRDB+134899999V020999999999999999999999999999+99999+99999999999ADDGP10060033002008014602015025002008GQ100600567927609GR100600725913229
0071722725999992000072114009+32250-107717NSRDB+134899999V020999999999999999999999999999+99999+99999999999ADDGP10060013702008032002015006302008GQ100600766907419GR100600305913239
0071722725999992000072315009+32250-107717NSRDB+134899999V020999999999999999999999999999+99999+99999999999ADDGP10060035002008062502015008102008GQ100600645908169GR100600569913249
0192722725999992000080417524+32260-107720FM-15+1313KDMN V0201001N005112200019N0643731N1+03301+00801999999ADDGF100991999999999999999999KA1999M+03281KA2999N+02221MA1102131999999MD1010001+9999MW1001REMMET074KDMN 041752Z 10010KT 40SM SKC 33/08 A3016 RMK T03280084 10328 20222 50000;EQDQ01+000000PRSWM2
0071722725999992000080502009+32250-107717NSRDB+134899999V020999999999999999999999999999+99999+99999999999ADDGP10060000002008000002015000002008GQ100600836928619GR100600149913279
0054722725999992000080611009+32250-107717NSRDB+134899999V020999999999999999999999999999+99999+99999999999ADDGP10060000002000000002000000002000GR100600000900009
0054722725999992000080804009+32250-107717NSRDB+134899999V020999999999999999999999999999+99999+99999999999ADDGP10060000002000000002000000002000GR100600000900009
0071722725999992000081014009+32250-107717NSRDB+134899999V020999999999999999999999999999+99999+99999999999ADDGP10060005302008000002015005302008GQ100600789907869GR100600255913309
0071722725999992000082316009+32250-107717NSRDB+134899999V020999999999999999999999999999+99999+99999999999ADDGP10060038702008027802015022902008GQ100600553909929GR100600760913379
0054722725999992000082603009+32250-107717NSRDB+134899999V020999999999999999999999999999+99999+99999999999ADDGP10060000002000000002000000002000GR100600000900009
0242722725999992000082720524+32260-107720FM-15+1313KDMN V02099999999992200019N0643731N1+03301+01201999999ADDGA1999+024001021GD12991+0240019GD22991+0750019GF102991999999999999999999MA1101421999999MD1710201+9999MW1001REMMET104KDMN 272052Z 21012 40SM FEW080TCU FEW250 33/12 A2995 RMK TCU VC ISLTD CB TCU DSNT ALQDS T03290121 57020;EQDQ01+000000PRSWM2
0152722725999992000083016524+32260-107720FM-15+1313KDMN V0200501N002112200019N0643731N1+02601+01401999999ADDGF100991999999999999999999MA1102031999999MW1001REMMET074KDMN 301652Z 05004KT 40SM SKC 26/14 A3013 RMK CU FMG DSNT S-W-N T02560139;EQDQ01+000000PRSWM2
0071722725999992000083121009+32250-107717NSRDB+134899999V020999999999999999999999999999+99999+99999999999ADDGP10060083602008073402015020202008GQ100600303922139GR100601157913429
0150722725999992000090422534+32260-107720FM-15+1313KDMN V0209999V001512200019N0160931N1+03601+00701100821ADDGF100991999999999999999999MA1101731999999MW1001REMMET072KDMN 042253Z AUTO VRB03KT 10SM CLR 36/07 A3004 RMK AO2 SLP082 T03610072;EQDQ01+000000PRSWM2
0054722725999992000090509009+32250-107717NSRDB+134899999V020999999999999999999999999999+99999+99999999999ADDGP10060000002000000002000000002000GR100600000900009
0168722725999992000090512534+32260-107720FM-15+1313KDMN V0200601N003612200019N0160931N1+01901+00301101231ADDGD12991+0240019GF102991999999999999999999MA1102071999999MW1001REMMET075KDMN 051253Z AUTO 06007KT 10SM FEW085 19/03 A3014 RMK AO2 SLP123 T01940033;EQDQ01+000000PRSWM2
0226722725999992000090611534+32260-107720FM-15+1313KDMN V0209999C000012200019N0160931N1+01601+00101101161ADDGD12991+0240019GF102991999999999999999999KA1999M+02171KA2999N+01561MA1101961999999MD1110071+9999MW1001REMMET093KDMN 061153Z AUTO 00000KT 10SM FEW080 16/01 A3011 RMK AO2 SLP116 T01610011 10217 20156 51007;EQDQ01+000000PRSWM2
0168722725999992000090701534+32260-107720FM-15+1313KDMN V0201801N002612200019N0160931N1+03101+00301100951ADDGD12991+0240019GF102991999999999999999999MA1101731999999MW1001REMMET075KDMN 070153Z AUTO 18005KT 10SM FEW085 31/03 A3004 RMK AO2 SLP095 T03060028;EQDQ01+000000PRSWM2
0071722725999992000090822009+32250-107717NSRDB+134899999V020999999999999999999999999999+99999+99999999999ADDGP10060012202008000002015012202008GQ100600427923829GR100600988913479
0168722725999992000091212534+32260-107720FM-15+1313KDMN V0209999C000012200019N0160931N1+01301+00301101221ADDGD12991+0270019GF102991999999999999999999MA1101931999999MW1001REMMET075KDMN 121253Z AUTO 00000KT 10SM FEW095 13/03 A3010 RMK AO2 SLP122 T01330033;EQDQ01+000000PRSWM2
0071722725999992000091314009+32250-107717NSRDB+134899999V020999999999999999999999999999+99999+99999999999ADDGP10060006802008040302015001902008GQ100600830909019GR100600164913519
0208722725999992000091323534+32260-107720FM-15+1313KDMN V0200501N002612200019N0160931N1+03401+00101100971ADDGF100991999999999999999999KA1999M+03561KA2999N+03221MA1101761999999MD1610101+9999MW1001REMMET090KDMN 132353Z AUTO 05005KT 10SM CLR 34/01 A3005 RMK AO2 SLP097 T03440011 10356 20322 56010;EQDQ01+000000PRSWM2
0189722725999992000091620534+32260-107720FM-15+1313KDMN V0201101N003612200019N0160931N1+03301+00601101211ADDGF100991999999999999999999MA1102001999999MD1610231+9999MW1001OC100871REMMET089KDMN 162053Z AUTO 11007G17KT 080V150 10SM CLR 33/06 A3012 RMK AO2 SLP121 T03280056 56023;EQDQ01+000000PRSWM2
0071722725999992000091714009+32250-107717NSRDB+134899999V020999999999999999999999999999+99999+99999999999ADDGP10060006202008039602015001702008GQ100600835909169GR100600152913549
0168722725999992000092104534+32260-107720FM-15+1313KDMN V0200601N006212200019N0160931N1+02201+00701100651ADDGD12991+0240019GF102991999999999999999999MA1101461999999MW1001REMMET075KDMN 210453Z AUTO 06012KT 10SM FEW080 22/07 A2996 RMK AO2 SLP065 T02220072;EQDQ01+000000PRSWM2
0054722725999992000092506009+32250-107717NSRDB+134899999V020999999999999999999999999999+99999+99999999999ADDGP10060000002000000002000000002000GR100600000900009
0054722725999992000092613009+32250-107717NSRDB+134899999V020999999999999999999999999999+99999+99999999999ADDGP10060000002000000002000000002000GR100600000900009
0054722725999992000092906009+32250-107717NSRDB+134899999V020999999999999999999999999999+99999+99999999999ADDGP10060000002000000002000000002000GR100600000900009
0054722725999992000100302009+32250-107717NSRDB+134899999V020999999999999999999999999999+99999+99999999999ADDGP10060000002000000002000000002000GR100600000900009
0054722725999992000100705009+32250-107717NSRDB+134899999V020999999999999999999999999999+99999+99999999999ADDGP10060000002000000002000000002000GR100600000900009
0241722725999992000100907534+32260-107720FM-15+1313KDMN V0200801N005110078019N0096561N1+00301+00301102841ADDAA101000021GD13991+0078019GD24991+0240019GF108991999999999999999999MA1102981999999MW1101MW2611REMMET100KDMN 090753Z AUTO 08010KT 6SM -RA BR BKN026 OVC080 03/03 A3041 RMK AO2 RAB26 SLP284 P0000 T00330028;EQDQ01+000003PRSWM1Q02    003PRSWM1
0054722725999992000100909009+32250-107717NSRDB+134899999V020999999999999999999999999999+99999+99999999999ADDGP10060000002000000002000000002000GR100600000900009
0071722725999992000101101009+32250-107717NSRDB+134899999V020999999999999999999999999999+99999+99999999999ADDGP10060000502008000002015000502008GQ100600859925919GR100600069909729
0054722725999992000101206009+32250-107717NSRDB+134899999V020999999999999999999999999999+99999+99999999999ADDGP10060000002000000002000000002000GR100600000900009
0168722725999992000101300534+32260-107720FM-15+1313KDMN V0202801N004612200019N0160931N1+02001+01301101251ADDGD12991+0210019GF102991999999999999999999MA1101801999999MW1001REMMET075KDMN 130053Z AUTO 28009KT 10SM FEW070 20/13 A3006 RMK AO2 SLP125 T02000133;EQDQ01+000000PRSWM2
0071722725999992000101715009+32250-107717NSRDB+134899999V020999999999999999999999999999+99999+99999999999ADDGP10060020102008064302015004302008GQ100600758911129GR100600336913779
0150722725999992000102119534+32260-107720FM-15+1313KDMN V0202001N004112200019N0160931N1+01801+01001100631ADDGF100991999999999999999999MA1101151999999MW1001REMMET072KDMN 211953Z AUTO 20008KT 10SM CLR 18/10 A2987 RMK AO2 SLP063 T01830100;EQDQ01+000000PRSWM2
0168722725999992000102213534+32260-107720FM-15+1313KDMN V0200501N002110240019N0160931N1+01101+00901100861ADDGD13991+0240019GF107991999999999999999999MA1101291999999MW1001REMMET075KDMN 221353Z AUTO 05004KT 10SM BKN080 11/09 A2991 RMK AO2 SLP086 T01110094;EQDQ01+000000PRSWM2
0071722725999992000102423009+32250-107717NSRDB+134899999V020999999999999999999999999999+99999+99999999999ADDGP10060040702008081902015009802008GQ100600679923839GR100600520913839
0208722725999992000102623534+32260-107720FM-15+1313KDMN V0201501N002612200019N0160931N1+02101+00201100931ADDGF100991999999999999999999KA1999M+02281KA2999N+01891MA1101391999999MD1610031+9999MW1001REMMET090KDMN 262353Z AUTO 15005KT 10SM CLR 21/02 A2994 RMK AO2 SLP093 T02110022 10228 20189 56003;EQDQ01+000000PRSWM2
0071722725999992000110420009+32250-107717NSRDB+134899999V020999999999999999999999999999+99999+99999999999ADDGP10060074002008089602015014802008GQ100600488919149GR100600916913919
0071722725999992000110716009+32250-107717NSRDB+134899999V020999999999999999999999999999+99999+99999999999ADDGP10060011502008000002015011502008GQ100600691912709GR100600497913939
0169722725999992000110819534+32260-107720FM-15+1313KDMN V0201901N002612200019N0160931N1+00601-00401101551ADDGD12991+0117019GF104991999999999999999999MA1101661999999MW1001REMMET076KDMN 081953Z AUTO 19005KT 10SM SCT039 06/M04 A3002 RMK AO2 SLP155 T00561039;EQDQ01+000000PRSWM2
0054722725999992000111012009+32250-107717NSRDB+134899999V020999999999999999999999999999+99999+99999999999ADDGP10060000002000000002000000002000GR100600000900009
0071722725999992000111117009+32250-107717NSRDB+134899999V020999999999999999999999999999+99999+99999999999ADDGP10060052102008096402015004902008GQ100600608913999GR100600680913969
0054722725999992000111312009+32250-107717NSRDB+134899999V020999999999999999999999999999+99999+99999999999ADDGP10060000002000000002000000002000GR100600000900009
0186722725999992000111506534+32260-107720FM-15+1313KDMN V0203001N002612200019N0160931N1+00701+00301101021ADDGF100991999999999999999999KA1999M+01441KA2999N-00111MA1101351999999MW1001REMMET082KDMN 150653Z AUTO 30005KT 10SM CLR 07/03 A2993 RMK AO2 SLP102 T00720028 401441011;EQDQ01+000000PRSWM2
0071722725999992000111615009+32250-107717NSRDB+134899999V020999999999999999999999999999+99999+99999999999ADDGP10060010802009061702021001602009GQ100600815911889GR100600207913999
0071722725999992000111801009+32250-107717NSRDB+134899999V020999999999999999999999999999+99999+99999999999ADDGP10060000002009000002021000002009GQ100600894924699GR100600002901989
0071722725999992000111822009+32250-107717NSRDB+134899999V020999999999999999999999999999+99999+99999999999ADDGP10060045302009080902021009102009GQ100600635922089GR100600624914009
0054722725999992000112002009+32250-107717NSRDB+134899999V020999999999999999999999999999+99999+99999999999ADDGP10060000002000000002000000002000GR100600000900009
0054722725999992000120412009+32250-107717NSRDB+134899999V020999999999999999999999999999+99999+99999999999ADDGP10060000002000000002000000002000GR100600000900009
0071722725999992000120423009+32250-107717NSRDB+134899999V020999999999999999999999999999+99999+99999999999ADDGP10060030902009076802021009602009GQ100600739922949GR100600389914099
0171722725999992000120520534+32260-107720FM-15+1313KDMN V0209999V003112200019N0160931N1+01501-00101101941ADDGF100991999999999999999999MA1102131999999MD1610361+9999MW1001REMMET079KDMN 052053Z AUTO VRB06KT 10SM CLR 15/M01 A3016 RMK AO2 SLP194 T01501006 56036;EQDQ01+000000PRSWM2
0169722725999992000120900534+32260-107720FM-15+1313KDMN V0209999C000010300019N0160931N1+01301-00401101421ADDGD13991+0300019GF107991999999999999999999MA1101631999999MW1001REMMET076KDMN 090053Z AUTO 00000KT 10SM BKN100 13/M04 A3001 RMK AO2 SLP142 T01281044;EQDQ01+000000PRSWM2
0071722725999992000121015009+32250-107717NSRDB+134899999V020999999999999999999999999999+99999+99999999999ADDGP10060001402009000002021001402009GQ100600852912109GR100600114913529
0151722725999992000121212534+32260-107720FM-15+1313KDMN V0200701N004612200019N0160931N1+00501-00301101361ADDGF100991999999999999999999MA1101631999999MW1001REMMET073KDMN 121253Z AUTO 07009KT 10SM CLR 05/M03 A3001 RMK AO2 SLP136 T00501033;EQDQ01+000000PRSWM2
0219722725999992000121223534+32260-107720FM-15+1313KDMN V0202201N007712200019N0160931N1+01601+00001100421ADDGF100991999999999999999999KA1999M+01781KA2999N+00941MA1100781999999MD1610201+9999MW1001OC101181REMMET093KDMN 122353Z AUTO 22015G23KT 10SM CLR 16/00 A2976 RMK AO2 SLP042 T01610000 10178 20094 56020;EQDQ01+000000PRSWM2
0168722725999992000121401534+32260-107720FM-15+1313KDMN V0202801N004112200019N0160931N1+00601+00001101831ADDGD12991+0270019GF102991999999999999999999MA1102001999999MW1001REMMET075KDMN 140153Z AUTO 28008KT 10SM FEW090 06/00 A3012 RMK AO2 SLP183 T00610000;EQDQ01+000000PRSWM2
0194722725999992000121406534+32260-107720FM-15+1313KDMN V0202401N003612200019N0160931N1+00101-00201102081ADDGF100991999999999999999999KA1999M+01221KA2999N+00061MA1102241999999MW1001REMMET090KDMN 140653Z AUTO 24007KT 10SM CLR 01/M02 A3019 RMK AO2 SLP208 T00061022 401220006 FZRANO;EQDQ01+000000PRSWM2
0054722725999992000121505009+32250-107717NSRDB+134899999V020999999999999999999999999999+99999+99999999999ADDGP10060000002000000002000000002000GR100600000900009
0158722725999992000122315534+32260-107720FM-15+1313KDMN V0209999C000012200019N0160931N1+00201-00801102101ADDGF100991999999999999999999MA1102241999999MW1001REMMET080KDMN 231553Z AUTO 00000KT 10SM CLR 02/M08 A3019 RMK AO2 SLP210 T00221078 FZRANO;EQDQ01+000000PRSWM2
0071722725999992000122900009+32250-107717NSRDB+134899999V020999999999999999999999999999+99999+99999999999ADDGP10060000002009000002021000002009GQ100600826923659GR100600181914159
0054722725999992000122902009+32250-107717NSRDB+134899999V020999999999999999999999999999+99999+99999999999ADDGP10060000002000000002000000002000GR100600000900009
0054722725999992000123013009+32250-107717NSRDB+134899999V020999999999999999999999999999+99999+99999999999ADDGP10060000002000000002000000002000GR100600000900009
0071722730999992000010201009+31567-110333NSRDB+142299999V020999999999999999999999999999+99999+99999999999ADDGP10060000002009000002021000002009GQ100600877924139GR100600026906499
0071722730999992000010222009+31567-110333NSRDB+142299999V020999999999999999999999999999+99999+99999999999ADDGP10060039402009037002021022102009GQ100600622921259GR100600660914159
0071722730999992000011718009+31567-110333NSRDB+142299999V020999999999999999999999999999+99999+99999999999ADDGP10060047602008065502015014702008GQ100600600914709GR100600707914149
0230722730999992000011922003+31600-110350FM-15+1438KFHU V02099999999990750019N0643731N1+02301-00701101511ADDGD13991+0750019GF107991999999999999999999GP10060034302008011802015028202008GQ100600592921249GR100600723914139MA1102071999999MW1001REMMET069KFHU 192155Z VRB03KT 40SM BKN250 23/M07 A3014 RMK SLP151 8/008 9/007;EQDQ01+000000PRSWM2
0071722730999992000012401009+31567-110333NSRDB+142299999V020999999999999999999999999999+99999+99999999999ADDGP10060001902008031602015000302008GQ100600859924439GR100600078910949
0218722730999992000012904003+31600-110350FM-15+1438KFHU V0202701N005112200019N0160931N1+00901-01101101811ADDGD12991+0750019GF104991999999999999999999GP10060000002000000002000000002000GR100600000900009MA1102071999999MW1001REMMET074KFHU 290355Z 27010KT 10SM SCT250 09/M11 A3014 RMK SLP181 8/008 9/003 LAST;EQDQ01+000000PRSWM2
0054722730999992000013005009+31567-110333NSRDB+142299999V020999999999999999999999999999+99999+99999999999ADDGP10060000002000000002000000002000GR100600000900009
0054722730999992000020112009+31567-110333NSRDB+142299999V020999999999999999999999999999+99999+99999999999ADDGP10060000002000000002000000002000GR100600000900009
0252722730999992000020823003+31600-110350FM-15+1438KFHU V0201401N005110600019N0804671N1+02101-01301101811ADDGD12991+0420019GD24991+0600019GF108991999999999999999999GP10060022402008001902015021502008GQ100600626922859GR100600646914069MA1102341999999MW1001REMMET076KFHU 082255Z 14010KT 50SM FEW140 OVC200 21/M13 A3022 RMK SLP181 8/077 9/026;EQDQ01+000000PRSWM2
0054722730999992000022407009+31567-110333NSRDB+142299999V020999999999999999999999999999+99999+99999999999ADDGP10060000002000000002000000002000GR100600000900009
0071722730999992000022802009+31567-110333NSRDB+142299999V020999999999999999999999999999+99999+99999999999ADDGP10060000002008000002015000002008GQ100600885925969GR100600010903839
0054722730999992000030106009+31567-110333NSRDB+142299999V020999999999999999999999999999+99999+99999999999ADDGP10060000002000000002000000002000GR100600000900009
0054722730999992000030111009+31567-110333NSRDB+142299999V020999999999999999999999999999+99999+99999999999ADDGP10060000002000000002000000002000GR100600000900009
0230722730999992000030823003+31600-110350FM-15+1438KFHU V02099999999992200019N1287471N1+01601-00601101631ADDGD12991+0750019GF102991999999999999999999GP10060059602008088602015009602008GQ100600557923779GR100600781913879MA1101901999999MW1001REMMET069KFHU 082255Z VRB04KT 80SM FEW250 16/M06 A3009 RMK SLP163 8/008 9/002;EQDQ01+000000PRSWM2
0054722730999992000031109009+31567-110333NSRDB+142299999V020999999999999999999999999999+99999+99999999999ADDGP10060000002000000002000000002000GR100600000900009
0071722730999992000031118009+31567-110333NSRDB+142299999V020999999999999999999999999999+99999+99999999999ADDGP10060074502008094502015008002008GQ100600454913519GR100600971913859
0071722730999992000031120009+31567-110333NSRDB+142299999V020999999999999999999999999999+99999+99999999999ADDGP10060091502008100402015009202008GQ100600352917959GR100601132913859
0071722730999992000031917009+31567-110333NSRDB+142299999V020999999999999999999999999999+99999+99999999999ADDGP10060063402008090402015008902008GQ100600530911829GR100600829913799
0054722730999992000040505009+31567-110333NSRDB+142299999V020999999999999999999999999999+99999+99999999999ADDGP10060000002000000002000000002000GR100600000900009
0054722730999992000041105009+31567-110333NSRDB+142299999V020999999999999999999999999999+99999+99999999999ADDGP10060000002000000002000000002000GR100600000900009
0054722730999992000041208009+31567-110333NSRDB+142299999V020999999999999999999999999999+99999+99999999999ADDGP10060000002000000002000000002000GR100600000900009
0285722730999992000041418003+31600-110350FM-15+1438KFHU V0202301N005712200019N0804671N1+02501-00401100811ADDGD12991+0750019GF102991999999999999999999GP10060090102008090302015015202008GQ100600339912459GR100601125913589MA1101521999999MD1810081+9999MW1001OC100871REMMET102KFHU 141755Z 23011G17KT 200V270 50SM FEW250 25/M04 A2998 RMK PK WND 25031/24 SLP081 8/008 9/001 58008;EQDQ01+000000PRSWM2
0236722730999992000041913003+31600-110350FM-15+1438KFHU V0200501N001512200019N0804671N1+00901-00701101301ADDGD12991+0840019GF102991999999999999999999GP10060000002008000002015000002008GQ100600890907709GR100600004902379MA1101801999999MW1001REMMET075KFHU 191255Z 05003KT 50SM FEW280 09/M07 A3006 RMK SLP130 8/001 9/001 FIRST;EQDQ01+000000PRSWM2
0213722730999992000042004003+31600-110350FM-15+1438KFHU V0202501N004612200019N0160931N1+01501-00501101591ADDGD12991+0840019GF102991999999999999999999GP10060000002000000002000000002000GR100600000900009MA1102071999999MW1001REMMET069KFHU 200355Z 25009KT 10SM FEW280 15/M05 A3014 RMK SLP159 8/001 9/001;EQDQ01+000000PRSWM2
0312722730999992000042118003+31600-110350FM-15+1438KFHU V0201601N007710450019N0804671N1+02901-00801101071ADDGD13991+0450019GD23991+0840019GF107991999999999999999999GP10060066102008029702015040902008GQ100600320912189GR100601146913529MA1101801999999MD1810101+9999MW1001OC100981REMMET114KFHU 211755Z 16015G19KT 040V210 50SM BKN150 BKN280 29/M08 A3006 RMK WND 22014G27KT RWY08 SLP107 8/078 9/052 58010;EQDQ01+000000PRSWM2
0054722730999992000042207009+31567-110333NSRDB+142299999V020999999999999999999999999999+99999+99999999999ADDGP10060000002000000002000000002000GR100600000900009
0255722730999992000042900003+31600-110350FM-15+1438KFHU V0202601N007712200019N1287471N1+03001-01001100731ADDGF100991999999999999999999GP10060052702008083702015010202008GQ100600595926879GR100600683913479MA1101521999999MD1610151+9999MW1001OC101031REMMET087KFHU 282355Z 26015G20KT 210V290 80SM SKC 30/M10 A2998 RMK PK WND 26031/28 SLP073 56015;EQDQ01+000000PRSWM2
0054722730999992000051109009+31567-110333NSRDB+142299999V020999999999999999999999999999+99999+99999999999ADDGP10060000002000000002000000002000GR100600000900009
0054722730999992000051110009+31567-110333NSRDB+142299999V020999999999999999999999999999+99999+99999999999ADDGP10060000002000000002000000002000GR100600000900009
0248722730999992000052419003+31600-110350FM-15+1438KFHU V0202901N004112200019N0402331N1+03301+00001100801ADDGD12991+0420019GF102991999999999999999999GP10060107202008091002015019402008GQ100600154913369GR100601282913319MA1101691999999MW1001OC100771REMMET079KFHU 241855Z 29008G15KT 270V020 25SM FEW140 33/00 A3003 RMK SLP080 8/070 9/010;EQDQ01+000000PRSWM2
0237722730999992000053019003+31600-110350FM-15+1438KFHU V0203401N005112200019N0482801N1+03501+00501100771ADDGD12991+0840019GF102991999999999999999999GP10060107202008092702015017402008GQ100600148913069GR100601283913299MA1101691999999MW1001REMMET076KFHU 301855Z 34010KT 300V010 30SM FEW280 35/05 A3003 RMK SLP077 8/008 9/001;EQDQ01+000000PRSWM2
0054722730999992000060109009+31567-110333NSRDB+142299999V020999999999999999999999999999+99999+99999999999ADDGP10060000002000000002000000002000GR100600000900009
0071722730999992000060322009+31567-110333NSRDB+142299999V020999999999999999999999999999+99999+99999999999ADDGP10060089102008090102015011302008GQ100600303926039GR100601143913279
0054722730999992000060608009+31567-110333NSRDB+142299999V020999999999999999999999999999+99999+99999999999ADDGP10060000002000000002000000002000GR100600000900009
0054722730999992000060910009+31567-110333NSRDB+142299999V020999999999999999999999999999+99999+99999999999ADDGP10060000002000000002000000002000GR100600000900009
0197722730999992000060917003+31600-110350FM-15+1438KFHU V02099999999992200019N0160931N1+99999+99999100891ADDGP10060079102008089702015009002008GQ100600386909219GR100601033913259MW1001REMMET092KFHU 01656Z 21010G20KT 170V250 50SM FEW055 26/07 A3002 RMK SLP089 ROTOR CLD OHD 8/100 9/100;EQDQ01+000000PRSWM2
0071722730999992000061013009+31567-110333NSRDB+142299999V020999999999999999999999999999+99999+99999999999ADDGP10060001102008017102015000502008GQ100600862906509GR100600062909389
0071722730999992000061021009+31567-110333NSRDB+142299999V020999999999999999999999999999+99999+99999999999ADDGP10060098702008088202015014502008GQ100600176924419GR100601261913259
0054722730999992000061407009+31567-110333NSRDB+142299999V020999999999999999999999999999+99999+99999999999ADDGP10060000002000000002000000002000GR100600000900009
0270722730999992000061620003+31590-110350FM-15+1438KFHU V0202801N006212200019N0643731N1+03501+00201100401ADDGD12991+0180019GD22991+0750019GF102991999999999999999999GP10060106302008097402015009902008GQ100600092919069GR100601306913239MA1101321999999MW1001OC100871REMMET086KFHU 161956Z 28012G17KT 250V340 40SM FEW060 FEW250 35/02 A2992 RMK SLP040 8/108 9/101;EQDQ01+000000PRSWM2
0211722730999992000062113003+31590-110350FM-15+1438KFHU V0201701N004112200019N1287471N1+01901+01501101221ADDGF100991999999999999999999GP10060001002008017402015000402008GQ100600863906449GR100600058909159MA1101931999999MW1001REMMET065KFHU 211255Z 17008KT 80SM SKC 19/15 A3010 RMK SLP122 70057 FIRST;EQDQ01+000000PRSWM2
0255722730999992000062206003+31590-110350FM-15+1438KFHU V0201701N003112200019N0160931N1+02001+01501101121ADDAA106001891GD12991+0300019GF102991999999999999999999GP10060000002000000002000000002000GR100600000900009MA1101861999999MD1110121+9999MW1001REMMET086KFHU 220555Z 17006KT 10SM FEW100 20/15 A3008 RMK SLP112 60007 8/070 9/020 51012 RCRNR;EQDQ01+000000PRSWM2
0054722730999992000062306009+31567-110333NSRDB+142299999V020999999999999999999999999999+99999+99999999999ADDGP10060000002000000002000000002000GR100600000900009
0273722730999992000062619003+31590-110350FM-15+1438KFHU V02099999999992200019N0804671N1+03301+01101101081ADDGD12991+0150019GD22991+0360019GD32991+0750019GF102991999999999999999999GP10060105202008097502015010802008GQ100600147912309GR100601276913229MA1101931999999MW1001REMMET082KFHU 261855Z VRB04KT 50SM FEW055 FEW120 FEW250 33/11 A3010 RMK SLP108 8/172 9/111;EQDQ01+000000PRSWM2
0071722730999992000070420009+31567-110333NSRDB+142299999V020999999999999999999999999999+99999+99999999999ADDGP10060089702008060102015030302008GQ100600096918549GR100601303913219
0054722730999992000070812009+31567-110333NSRDB+142299999V020999999999999999999999999999+99999+99999999999ADDGP10060000002000000002000000002000GR100600000900009
0054722730999992000071008009+31567-110333NSRDB+142299999V020999999999999999999999999999+99999+99999999999ADDGP10060000002000000002000000002000GR100600000900009
0054722730999992000071009009+31567-110333NSRDB+142299999V020999999999999999999999999999+99999+99999999999ADDGP10060000002000000002000000002000GR100600000900009
0239722730999992000071804003+31590-110350FM-15+1438KFHU V0202301N002610360019N0160931N1+02701+01201101371ADDGD13991+0360019GD23991+0750019GF107991999999999999999999GP10060000002000000002000000002000GR100600000900009MA1102201999999MW1001REMMET080KFHU 180355Z 23005KT 10SM BKN120 BKN250 27/12 A3018 RMK SLP137 8/078 9/061 LAST;EQDQ01+000000PRSWM2
0054722730999992000072008009+31567-110333NSRDB+142299999V020999999999999999999999999999+99999+99999999999ADDGP10060000002000000002000000002000GR100600000900009
0267722730999992000072521424+31590-110350FM-16+1438KFHU V0200401N005110750019N0804671N1+03201+01001999999ADDGA1999+021001091GD12991+0210019GD22991+0360019GD33991+0750019GF107991999999999999999999MA1101961999999MW1801MW2951REMMET106KFHU 252142Z 04010KT 010V070 50SM -TSRA FEW070CB SCT120 BKN250 32/10 A3011 RMK OCNL LTGIC TS N AND E CB W;EQDQ01+000003PRSWM1Q02    003PRSWM1
0054722730999992000072808009+31567-110333NSRDB+142299999V020999999999999999999999999999+99999+99999999999ADDGP10060000002000000002000000002000GR100600000900009
0054722730999992000073011009+31567-110333NSRDB+142299999V020999999999999999999999999999+99999+99999999999ADDGP10060000002000000002000000002000GR100600000900009
0054722730999992000081005009+31567-110333NSRDB+142299999V020999999999999999999999999999+99999+99999999999ADDGP10060000002000000002000000002000GR100600000900009
0054722730999992000081006009+31567-110333NSRDB+142299999V020999999999999999999999999999+99999+99999999999ADDGP10060000002000000002000000002000GR100600000900009
0054722730999992000081108009+31567-110333NSRDB+142299999V020999999999999999999999999999+99999+99999999999ADDGP10060000002000000002000000002000GR100600000900009
0071722730999992000081221009+31567-110333NSRDB+142299999V020999999999999999999999999999+99999+99999999999ADDGP10060084302008056202015032302008GQ100600225922369GR100601228913319
0054722730999992000081805009+31567-110333NSRDB+142299999V020999999999999999999999999999+99999+99999999999ADDGP10060000002000000002000000002000GR100600000900009
0071722730999992000081919009+31567-110333NSRDB+142299999V020999999999999999999999999999+99999+99999999999ADDGP10060016402008001202015015302008GQ100600231914439GR100601227913349
0191722730999992000082504003+31590-110350FM-15+1438KFHU V02099999999992200019N0724201N1+99999+99999101711ADDGP10060000002000000002000000002000GR100600000900009MW1001REMMET103KFHU 25035Z 26004KT 10SM FEW060CB FEW120 24/16 A3025 RMK OCNL LTGIC SLP171 CB DSNT SE 8/970 9/110 LAST;EQDQ01+000000PRSWM2
0054722730999992000082506009+31567-110333NSRDB+142299999V020999999999999999999999999999+99999+99999999999ADDGP10060000002000000002000000002000GR100600000900009
0071722730999992000082623009+31567-110333NSRDB+142299999V020999999999999999999999999999+99999+99999999999ADDGP10060059802008057802015021302008GQ100600483925409GR100600889913389
