0099545273999992000031708004+39180+117350FM-15+0003ZBTJ V0202501N00401220001CN0099001N1+02001-02701999999ADDMA1100811999999MW1001REMMET047ZBTJ 170800Z 25004MPS CAVOK 20/M27 Q1008 NOSIG;EQDQ01+000000PRSWM2
0099545273999992000031715004+39180+117350FM-15+0003ZBTJ V0202301N00401220001CN0099001N1+01101-00701999999ADDMA1100911999999MW1001REMMET047ZBTJ 171500Z 23004MPS CAVOK 11/M07 Q1009 NOSIG;EQDQ01+000000PRSWM2
0099545273999992000032619004+39180+117350FM-15+0003ZBTJ V0202601N00401220001CN0099001N1+01401-00301999999ADDMA1099901999999MW1001REMMET047ZBTJ 261900Z 26004MPS CAVOK 14/M03 Q0999 NOSIG;EQDQ01+000000PRSWM2
0098545273999992000040209004+39180+117350FM-15+0003ZBTJ V0201401N00501220001CN0099001N1+01201+00501999999ADDMA1101901999999MW1001REMMET046ZBTJ 020900Z 14005MPS CAVOK 12/05 Q1019 NOSIG;EQDQ01+000000PRSWM2
0165545273999992000040606004+39180+117350FM-15+0003ZBTJ V0203501N009012200019N0030001N1+01701-01602999999ADDGF100991999999999999999999MA1100811999999MW1071REMMET055ZBTJ 060600Z 35009MPS 3000 BLDU SKC 17/M16 Q1008 NOSIG;EQDQ01-001603ATOD  Q02+000003PRSWM1Q03    003PRSWM1
0171545273999992000040608004+39180+117350FM-15+0003ZBTJ V0203501N011012200019N0012001N1+01601-02601999999ADDED199U09009GF100991999999999999999999MA1100911999999MW1071REMMET066ZBTJ 060800Z 35011MPS 1200 R34/0900N +BLDU SKC 16/M26 Q1009 NOSIG;EQDQ01+000003PRSWM1Q02    003PRSWM1
0144545273999992000040714004+39180+117350FM-15+0003ZBTJ V0201401N004012200019N9999999N1+01101-00301999999ADDGF100991999999999999999999MA1102001999999MW1001REMMET050ZBTJ 071400Z 14004MPS 6000 SKC 11/M03 Q1020 NOSIG;EQDQ01+060002VODIS Q02+000000PRSWM2
0147545273999992000040802004+39180+117350FM-15+0003ZBTJ V0202601N004012200019N0040001N1+01701-00101999999ADDGF100991999999999999999999MA1101801999999MW1061REMMET053ZBTJ 080200Z 26004MPS 4000 DU SKC 17/M01 Q1018 NOSIG;EQDQ01+000003PRSWM1Q02    003PRSWM1
0099545273999992000041106004+39180+117350FM-15+0003ZBTJ V0202701N00501220001CN0099001N1+02401-00601999999ADDMA1100611999999MW1001REMMET047ZBTJ 110600Z 27005MPS CAVOK 24/M06 Q1006 NOSIG;EQDQ01+000000PRSWM2
0099545273999992000041509004+39180+117350FM-15+0003ZBTJ V0203301N00301220001CN0099001N1+02201-00801999999ADDMA1101081999999MW1001REMMET047ZBTJ 150900Z 33003MPS CAVOK 22/M08 Q1011 NOSIG;EQDQ01+000000PRSWM2
0165545273999992000042502004+39180+117350FM-15+0003ZBTJ V0200101N003010600019N0020001N1+01801+01401999999ADDGA1071+060009999GF107991999999999999999999MA1100001999999MW1101REMMET055ZBTJ 250200Z 01003MPS 2000 BR BKN200 18/14 Q1000 NOSIG;EQDQ01+000003PRSWM1Q02    003PRSWM1
0166545273999992000050905004+39180+117350FM-15+0003ZBTJ V0200301N006010078019N0070001N1+01301+01301999999ADDGA1071+007809999GF107991999999999999999999MA1100911999999MW1611REMMET056ZBTJ 090500Z 03006MPS 7000 -RA BKN026 13/13 Q1009 NOSIG;EQDQ01+000003PRSWM1Q02    003PRSWM1
0098545273999992000051202004+39180+117350FM-15+0003ZBTJ V0201601N00201220001CN0099001N1+02001+01401999999ADDMA1100711999999MW1001REMMET046ZBTJ 120200Z 16002MPS CAVOK 20/14 Q1007 NOSIG;EQDQ01+000000PRSWM2
0146545273999992000051600004+39180+117350FM-15+0003ZBTJ V0202701N003012200019N0030001N1+01901+01401999999ADDGF100991999999999999999999MA1101291999999MW1041REMMET052ZBTJ 160000Z 27003MPS 3000 FU SKC 19/14 Q1013 NOSIG;EQDQ01+000003PRSWM1Q02    003PRSWM1
0143545273999992000052306004+39180+117350FM-15+0003ZBTJ V0201301N002012200019N9999999N1+02901+01501999999ADDGF100991999999999999999999MA1100611999999MW1001REMMET049ZBTJ 230600Z 13002MPS 7000 SKC 29/15 Q1006 NOSIG;EQDQ01+070002VODIS Q02+000000PRSWM2
0143545273999992000052309004+39180+117350FM-15+0003ZBTJ V0201601N004012200019N9999999N1+02701+01701999999ADDGF100991999999999999999999MA1100511999999MW1001REMMET049ZBTJ 230900Z 16004MPS 7000 SKC 27/17 Q1005 NOSIG;EQDQ01+070002VODIS Q02+000000PRSWM2
0127545273999992000052415004+39180+117350FM-15+0003ZBTJ V0202101N002012200019N0070001N1+02401+02101999999ADDGF100991999999999999999999MA1100411999999MW1001REMMET049ZBTJ 241500Z 21002MPS 7000 SKC 24/21 Q1004 NOSIG;EQDQ01+000000PRSWM2
0098545273999992000052509004+39180+117350FM-15+0003ZBTJ V0201601N00801220001CN0099001N1+03001+01901999999ADDMA1100311999999MW1001REMMET046ZBTJ 250900Z 16008MPS CAVOK 30/19 Q1003 NOSIG;EQDQ01+000000PRSWM2
0098545273999992000052710004+39180+117350FM-15+0003ZBTJ V0202301N00301220001CN0099001N1+02301+01101999999ADDMA1100611999999MW1001REMMET046ZBTJ 271000Z 23003MPS CAVOK 23/11 Q1006 NOSIG;EQDQ01+000000PRSWM2
0098545273999992000061214004+39180+117350FM-15+0003ZBTJ V0202201N00301220001CN0099001N1+02501+01301999999ADDMA1100811999999MW1001REMMET046ZBTJ 121400Z 22003MPS CAVOK 25/13 Q1008 NOSIG;EQDQ01+000000PRSWM2
0098545273999992000061611004+39170+117350FM-15+0003ZBTJ V0201601N00701220001CN0099001N1+02801+01701999999ADDMA1101021999999MW1001REMMET046ZBTJ 161100Z 16007MPS CAVOK 28/17 Q1010 NOSIG;EQDQ01+000000PRSWM2
0098545273999992000061617004+39170+117350FM-15+0003ZBTJ V0200601N00301220001CN0099001N1+02301+02001999999ADDMA1101291999999MW1001REMMET046ZBTJ 161700Z 06003MPS CAVOK 23/20 Q1013 NOSIG;EQDQ01+000000PRSWM2
0165545273999992000070519004+39170+117350FM-15+0003ZBTJ V0201101N002010300019N0020001N1+02401+02401999999ADDGA1071+030009999GF107991999999999999999999MA1101021999999MW1101REMMET055ZBTJ 051900Z 11002MPS 2000 BR BKN100 24/24 Q1010 NOSIG;EQDQ01+000003PRSWM1Q02    003PRSWM1
0098545273999992000070704004+39170+117350FM-15+0003ZBTJ V0209999C00001220001CN0099001N1+03501+01701999999ADDMA1100611999999MW1001REMMET046ZBTJ 070400Z 00000MPS CAVOK 35/17 Q1006 NOSIG;EQDQ01+000000PRSWM2
0188545273999992000071821004+39170+117350FM-15+0003ZBTJ V0200901N004010012019N0020001N1+02501+02501999999ADDGA1071+001209999GA2081+004809999GF108991999999999999999999MA1100201999999MW1101REMMET062ZBTJ 182100Z 09004MPS 2000 BR BKN004 OVC016 25/25 Q1002 NOSIG;EQDQ01+000003PRSWM1Q02    003PRSWM1
0098545273999992000071910004+39170+117350FM-15+0003ZBTJ V0201301N00301220001CN0099001N1+02901+02401999999ADDMA1100001999999MW1001REMMET046ZBTJ 191000Z 13003MPS CAVOK 29/24 Q1000 NOSIG;EQDQ01+000000PRSWM2
0165545273999992000072601004+39170+117350FM-15+0003ZBTJ V0202501N003010600019N0025001N1+03101+02601999999ADDGA1071+060009999GF107991999999999999999999MA1100001999999MW1041REMMET055ZBTJ 260100Z 25003MPS 2500 FU BKN200 31/26 Q1000 NOSIG;EQDQ01+000003PRSWM1Q02    003PRSWM1
0165545273999992000080122004+39170+117350FM-15+0003ZBTJ V0201401N001010300019N0025001N1+02601+02501999999ADDGA1071+030009999GF107991999999999999999999MA1100711999999MW1101REMMET055ZBTJ 012200Z 14001MPS 2500 BR BKN100 26/25 Q1007 NOSIG;EQDQ01+000003PRSWM1Q02    003PRSWM1
0149545273999992000082610004+39170+117350FM-15+0003ZBTJ V0201701N003012200019N0070001N1+02901+02401999999ADDGA1021+007809029GF102991999999999999999999MA1100611999999MW1001REMMET055ZBTJ 261000Z 17003MPS 7000 FEW026TCU 29/24 Q1006 NOSIG;EQDQ01+000000PRSWM2
0098545273999992000090404004+39170+117350FM-15+0003ZBTJ V0201901N00201220001CN0099001N1+03101+01901999999ADDMA1100911999999MW1001REMMET046ZBTJ 040400Z 19002MPS CAVOK 31/19 Q1009 NOSIG;EQDQ01+000000PRSWM2
0146545273999992000091021004+39170+117350FM-15+0003ZBTJ V0202701N003012200019N0040001N1+01801+01501999999ADDGF100991999999999999999999MA1101291999999MW1101REMMET052ZBTJ 102100Z 27003MPS 4000 BR SKC 18/15 Q1013 NOSIG;EQDQ01+000003PRSWM1Q02    003PRSWM1
0098545273999992000091114004+39170+117350FM-15+0003ZBTJ V0209999C00001220001CN0099001N1+02001+01601999999ADDMA1101391999999MW1001REMMET046ZBTJ 111400Z 00000MPS CAVOK 20/16 Q1014 NOSIG;EQDQ01+000000PRSWM2
0167545273999992000091200004+39170+117350FM-15+0003ZBTJ V0200101N002012200019N0012001N1+02001+02001999999ADDED199U08009GF100991999999999999999999MA1101591999999MW1101REMMET062ZBTJ 120000Z 01002MPS 1200 R34/0800N BR SKC 20/20 Q1016 NOSIG;EQDQ01+000003PRSWM1Q02    003PRSWM1
0127545273999992000091419004+39170+117350FM-15+0003ZBTJ V0200201N002012200019N0060001N1+01701+01701999999ADDGF100991999999999999999999MA1101191999999MW1001REMMET049ZBTJ 141900Z 02002MPS 6000 SKC 17/17 Q1012 NOSIG;EQDQ01+000000PRSWM2
0098545273999992000091519004+39170+117350FM-15+0003ZBTJ V0202801N00201220001CN0099001N1+02101+01101999999ADDMA1100611999999MW1001REMMET046ZBTJ 151900Z 28002MPS CAVOK 21/11 Q1006 NOSIG;EQDQ01+000000PRSWM2
0165545273999992000091915004+39170+117350FM-15+0003ZBTJ V0200901N001010390019N0025001N1+02301+02101999999ADDGA1071+039009999GF107991999999999999999999MA1101491999999MW1101REMMET055ZBTJ 191500Z 09001MPS 2500 BR BKN130 23/21 Q1015 NOSIG;EQDQ01+000003PRSWM1Q02    003PRSWM1
0162545273999992000092403004+39170+117350FM-15+0003ZBTJ V0200501N003010180019N9999999N1+02001+00801999999ADDGA1081+018009999GF108991999999999999999999MA1101691999999MW1001REMMET052ZBTJ 240300Z 05003MPS 7000 OVC066 20/08 Q1017 NOSIG;EQDQ01+070002VODIS Q02+000000PRSWM2
0146545273999992000092915004+39170+117350FM-15+0003ZBTJ V0209999C000010600019N0070001N1+01801+01801999999ADDGA1071+060009999GF107991999999999999999999MA1101691999999MW1001REMMET052ZBTJ 291500Z 00000MPS 7000 BKN200 18/18 Q1017 NOSIG;EQDQ01+000000PRSWM2
0188545273999992000100401004+39170+117350FM-15+0003ZBTJ V0200501N003010150019N0020001N1+01701+01601999999ADDGA1021+003009999GA2081+015009999GF108991999999999999999999MA1101591999999MW1101REMMET062ZBTJ 040100Z 05003MPS 2000 BR FEW010 OVC050 17/16 Q1016 NOSIG;EQDQ01+000003PRSWM1Q02    003PRSWM1
0098545273999992000100502004+39170+117350FM-15+0003ZBTJ V0201501N00601220001CN0099001N1+02301+01201999999ADDMA1102001999999MW1001REMMET046ZBTJ 050200Z 15006MPS CAVOK 23/12 Q1020 NOSIG;EQDQ01+000000PRSWM2
0127545273999992000100612004+39170+117350FM-15+0003ZBTJ V0202201N001012200019N0070001N1+02001+01701999999ADDGF100991999999999999999999MA1101391999999MW1001REMMET049ZBTJ 061200Z 22001MPS 7000 SKC 20/17 Q1014 NOSIG;EQDQ01+000000PRSWM2
0166545273999992000100715004+39170+117350FM-15+0003ZBTJ V0203601N007010120019N0112651N1+01401+01301999999ADDGA1081+012009999GF108991999999999999999999MA1101491999999MW1611REMMET056ZBTJ 071500Z 36007MPS 9999 -RA OVC040 14/13 Q1015 NOSIG;EQDQ01+000003PRSWM1Q02    003PRSWM1
0099545273999992000101208004+39170+117350FM-15+0003ZBTJ V0203401N00501220001CN0099001N1+01301-01401999999ADDMA1102711999999MW1001REMMET047ZBTJ 120800Z 34005MPS CAVOK 13/M14 Q1027 NOSIG;EQDQ01+000000PRSWM2
0147545273999992000101402004+39170+117350FM-15+0003ZBTJ V0202231N002012200019N0030001N1+01401+00601999999ADDGF100991999999999999999999MA1102301999999MW1041REMMET053ZBTJ 140200Z 223002MPS 3000 FU SKC 14/06 Q1023 NOSIG;EQDQ01+000003PRSWM1Q02    003PRSWM1
0098545273999992000101420004+39170+117350FM-15+0003ZBTJ V0203401N00301220001CN0099001N1+00901+00201999999ADDMA1102611999999MW1001REMMET046ZBTJ 142000Z 34003MPS CAVOK 09/02 Q1026 NOSIG;EQDQ01+000000PRSWM2
0098545273999992000101800004+39170+117350FM-15+0003ZBTJ V0201101N00501220001CN0099001N1+00801+00001999999ADDMA1102711999999MW1001REMMET046ZBTJ 180000Z 11005MPS CAVOK 08/00 Q1027 NOSIG;EQDQ01+000000PRSWM2
0128545273999992000102002004+39170+117350FM-15+0003ZBTJ V0201001N005012200019N0080001N1+01401-00101999999ADDGF100991999999999999999999MA1102301999999MW1001REMMET050ZBTJ 200200Z 10005MPS 8000 SKC 14/M01 Q1023 NOSIG;EQDQ01+000000PRSWM2
0098545273999992000102103004+39170+117350FM-15+0003ZBTJ V0200901N00501220001CN0099001N1+01701+00401999999ADDMA1102401999999MW1001REMMET046ZBTJ 210300Z 09005MPS CAVOK 17/04 Q1024 NOSIG;EQDQ01+000000PRSWM2
0165545273999992000102312004+39170+117350FM-15+0003ZBTJ V0200601N001010078019N0030001N1+01401+01301999999ADDGA1081+007809999GF108991999999999999999999MA1101691999999MW1101REMMET055ZBTJ 231200Z 06001MPS 3000 BR OVC026 14/13 Q1017 NOSIG;EQDQ01+000003PRSWM1Q02    003PRSWM1
0165545273999992000103019004+39170+117350FM-15+0003ZBTJ V0203501N003010600019N0030001N1+01001+00701999999ADDGA1071+060009999GF107991999999999999999999MA1102101999999MW1101REMMET055ZBTJ 301900Z 35003MPS 3000 BR BKN200 10/07 Q1021 NOSIG;EQDQ01+000003PRSWM1Q02    003PRSWM1
0148545273999992000103117004+39170+117350FM-15+0003ZBTJ V0202701N002012200019N0050001N1+00601-00101999999ADDGF100991999999999999999999MA1102401999999MW1041REMMET054ZBTJ 311700Z 27002MPS 5000 FU SKC 06/M01 Q1024 NOSIG ;EQDQ01+000003PRSWM1Q02    003PRSWM1
0144545273999992000110111004+39170+117350FM-15+0003ZBTJ V0202301N002012200019N9999999N1+01101-00201999999ADDGF100991999999999999999999MA1102001999999MW1001REMMET050ZBTJ 011100Z 23002MPS 7000 SKC 11/M02 Q1020 NOSIG;EQDQ01+070002VODIS Q02+000000PRSWM2
0146545273999992000110217004+39170+117350FM-15+0003ZBTJ V0202101N001012200019N0020001N1+00701+00701999999ADDGF100991999999999999999999MA1102101999999MW1101REMMET052ZBTJ 021700Z 21001MPS 2000 BR SKC 07/07 Q1021 NOSIG;EQDQ01+000003PRSWM1Q02    003PRSWM1
0127545273999992000110414004+39170+117350FM-15+0003ZBTJ V0201801N003012200019N0060001N1+00901+00701999999ADDGF100991999999999999999999MA1101801999999MW1001REMMET049ZBTJ 041400Z 18003MPS 6000 SKC 09/07 Q1018 NOSIG;EQDQ01+000000PRSWM2
0165545273999992000110509004+39170+117350FM-15+0003ZBTJ V0202201N001010600019N0020001N1+01501+00801999999ADDGA1071+060009999GF107991999999999999999999MA1100911999999MW1041REMMET055ZBTJ 050900Z 22001MPS 2000 FU BKN200 15/08 Q1009 NOSIG;EQDQ01+000003PRSWM1Q02    003PRSWM1
0099545273999992000111202004+39170+117350FM-15+0003ZBTJ V0200101N00401220001CN0099001N1+00601-01201999999ADDMA1102811999999MW1001REMMET047ZBTJ 120200Z 01004MPS CAVOK 06/M12 Q1028 NOSIG;EQDQ01+000000PRSWM2
0186545273999992000112502004+39170+117350FM-15+0003ZBTJ V0202601N001010078019N0012001N1+00601+00501999999ADDED199U13009GA1081+007809999GF108991999999999999999999MA1102001999999MW1101REMMET065ZBTJ 250200Z 26001MPS 1200 R34/1300N BR OVC026 06/05 Q1020 NOSIG;EQDQ01+000003PRSWM1Q02    003PRSWM1
0100545273999992000120919004+39170+117350FM-15+0003ZBTJ V0200301N00801220001CN0099001N1-00101-02401999999ADDMA1103121999999MW1001REMMET048ZBTJ 091900Z 03008MPS CAVOK M01/M24 Q1031 NOSIG;EQDQ01+000000PRSWM2
0100545273999992000121119004+39170+117350FM-15+0003ZBTJ V0202401N00301220001CN0099001N1-00401-01201999999ADDMA1103491999999MW1001REMMET048ZBTJ 111900Z 24003MPS CAVOK M04/M12 Q1035 NOSIG;EQDQ01+000000PRSWM2
0171545273999992000121420004+39170+117350FM-15+0003ZBTJ V0203101N003012200019N0006001N1-00201-00201999999ADDED199U10009GF100991999999999999999999MA1102001999999MW1481REMMET066ZBTJ 142000Z 31003MPS 0600 R34/1000U FZFG SKC M02/M02 Q1020 NOSIG;EQDQ01+000003PRSWM1Q02    003PRSWM1
0099545273999992000122201004+39170+117350FM-15+0003ZBTJ V0200101N00401220001CN0099001N1+00401-01001999999ADDMA1101691999999MW1001REMMET047ZBTJ 220100Z 01004MPS CAVOK 04/M10 Q1017 NOSIG;EQDQ01+000000PRSWM2
0171545273999992000122402004+39170+117350FM-15+0003ZBTJ V0200701N006010120019N0070001N1-00401-00401999999ADDGA1021+002409999GA2081+012009999GF108991999999999999999999MA1102201999999MW1001REMMET061ZBTJ 240200Z 07006MPS 7000 SCT008 OVC040 M04/M04 Q1022 NOSIG;EQDQ01+000000PRSWM2
0148545273999992000122412004+39170+117350FM-15+0003ZBTJ V0200401N001012200019N0050001N1-00801-00801999999ADDGF100991999999999999999999MA1102511999999MW1101REMMET054ZBTJ 241200Z 04001MPS 5000 BR SKC M08/M08 Q1025 NOSIG;EQDQ01+000003PRSWM1Q02    003PRSWM1
0148545273999992000122417004+39170+117350FM-15+0003ZBTJ V0200101N001012200019N0030001N1-00701-00701999999ADDGF100991999999999999999999MA1102711999999MW1101REMMET054ZBTJ 241700Z 01001MPS 3000 BR SKC M07/M07 Q1027 NOSIG;EQDQ01+000003PRSWM1Q02    003PRSWM1
0112545340999992000011103004+39670+118150FM-12+002999999V0200701N003019999999N0150001N1-00591-01241103341ADDGF108991081001999999011999MD1210071+9999REMSYN060AAXX  11031 54534 42965 80703 11059 21124 40334 52007 8801/;
0179545340999992000012200004+39670+118150FM-12+002999999V0201101N001019999999N0100001N1-00441-00531102971ADDAA106002091AY171061AY271061GF108991081001999999021999MD1710061-1101MW1711REMSYN094AAXX  22001 54534 11960 81101 11044 21053 40297 57006 60021 77177 8802/ 333 06106 70032 92505;
0175545340999992000012918004+39670+118150FM-12+002999999V0202701N002012200019N0100001N1-01071-02091104191ADDAA199000091GA1001+999999999GF100991001001999999001001KA1999M-00301MD1210071+9999REMSYN064AAXX  29181 54534 32960 02702 11107 21209 40419 52007 333 11030;EQDQ01  00002PRCP99
0162545340999992000013000004+39670+118150FM-12+002999999V0203201N002012200019N0200001N1-01121-02211104481ADDAA199000091GA1001+999999999GF100991001001999999001001MD1210221+0101REMSYN064AAXX  30001 54534 32970 03202 11112 21221 40448 52022 333 01000;EQDQ01  00002PRCP99
0122545340999992000030609004+39670+118150FM-12+002999999V0203601N002012200019N0300001N1+00461-02551102301ADDGA1001+999999999GF100991001001999999001001MD1710121+9999REMSYN054AAXX  06091 54534 42980 03602 10046 21255 40230 57012;
0112545340999992000040321004+39670+118150FM-12+002999999V0202201N001019999999N0150001N1+01051+00551101041ADDGF107991001001999999001021MD1410001+9999REMSYN060AAXX  03211 54534 42965 72201 10105 20055 40104 54000 80002;
0167545340999992000040912004+39670+118150FM-12+002999999V0201601N002012200019N0100001N1+00321-00011102271ADDAA106000891AY171061AY261061GA1001+999999999GF100991001001999999001001MD1210421+9999MW1001REMSYN066AAXX  09121 54534 11960 01602 10032 21001 40227 52042 69971 70076;
0122545340999992000060903004+39670+118150FM-12+002999999V0200401N004012200019N0300001N1+02311+00531101071ADDGA1001+999999999GF100991001001999999001001MD1410001+9999REMSYN054AAXX  09031 54534 42980 00404 10231 20053 40107 54000;
0112545340999992000062321004+39670+118140FM-12+002999999V0200901N003019999999N0100001N1+02321+01981100201ADDGF108991081001999999071999MD1710021+9999REMSYN060AAXX  23211 54534 42960 80903 10232 20198 40020 57002 8807/;
0112545340999992000062903004+39670+118140FM-12+002999999V0201601N002012200019N0250001N1+02821+01441100001ADDGF102991021011008001001001MD1710071+9999REMSYN060AAXX  29031 54534 42575 21602 10282 20144 40000 57007 82100;
0112545340999992000072103004+39670+118140FM-12+002999999V0202701N003010120019N0150001N1+03061+02591100031ADDGF108991081051012501999999MD1710011+9999REMSYN060AAXX  21031 54534 42665 82703 10306 20259 40003 57001 885//;
0112545340999992000072503004+39670+118140FM-12+002999999V0202001N004012200019N0250001N1+03171+01711100301ADDGF101991011001999999031001MD1710071+9999REMSYN060AAXX  25031 54534 42975 12004 10317 20171 40030 57007 81030;
0180545340999992000072706004+39670+118140FM-12+002999999V0201601N003010075019N0150001N1+02391+02361099751ADDAA106030091AY191061AY281061GF108991081091008001999999KA1999N+02351MD1210131+9999MW1911REMSYN082AAXX  27061 54534 11565 81603 10239 20236 49975 52013 60301 79198 889// 333 20235;
0123545340999992000080712004+39670+118140FM-12+002999999V0202201N001019999999N0150001N1+02671+02211101031ADDAA199000021GF108991081001999999031999MD1210021+9999REMSYN060AAXX  07121 54534 32965 82201 10267 20221 40103 52002 8803/;
0165545340999992000090306004+39670+118140FM-12+002999999V0202201N001012200019N0300001N1+03111+02221101161ADDAA199000091GF103991031011008001001001KA1999N+02261MD1710161+9999REMSYN070AAXX  03061 54534 32580 32201 10311 20222 40116 57016 83100 333 20226;EQDQ01  00002PRCP99
0122545340999992000090803004+39670+118140FM-12+002999999V0202701N002012200019N0300001N1+02551+01101101801ADDGA1001+999999999GF100991001001999999001001MD1410001+9999REMSYN054AAXX  08031 54534 42980 02702 10255 20110 40180 54000;
0152545340999992000100412004+39670+118140FM-12+002999999V0201401N002012200019N0100001N1+01861+01291101861ADDAA199000091GA1001+999999999GF100991001001999999001001MD1210221+9999REMSYN054AAXX  04121 54534 32960 01402 10186 20129 40186 52022;EQDQ01  00002PRCP99
0165545340999992000100618004+39670+118140FM-12+002999999V0201801N002019999999N0100001N1+01961+01721101511ADDAA199000091GF105991001001999999001021KA1999M+02431MD1710061+9999REMSYN070AAXX  06181 54534 32960 51802 10196 20172 40151 57006 80002 333 10243;EQDQ01  00002PRCP99
0112545340999992000101003004+39670+118140FM-12+002999999V0202701N002019999999N0200001N1+01581+01141101671ADDGF107991001001999999001021MD1710021+9999REMSYN060AAXX  10031 54534 42970 72702 10158 20114 40167 57002 80002;
0112545340999992000101803004+39670+118140FM-12+002999999V0200901N002019999999N0300001N1+00911-00821102771ADDGF107991001001999999001021MD1710151+9999REMSYN060AAXX  18031 54534 42980 70902 10091 21082 40277 57015 80002;
0195545340999992000101918004+39670+118140FM-12+002999999V0203201N001012200019N0030001N1+00661+00591102071ADDAA199000091AY141061GA1001+999999999GF100991001001999999001001KA1999M+01361MD1210151+9999MW1281REMSYN070AAXX  19181 54534 31930 03201 10066 20059 40207 52015 72840 333 10136;EQDQ01  00002PRCP99
0180545340999992000103000004+39670+118140FM-12+002999999V0209999C000012200019N0200001N1+00541+00051102031ADDAA199000091GA1001+999999999GF100991001001999999001001IA2999+00009MD1210081-0401REMSYN070AAXX  30001 54534 32970 00000 10054 20005 40203 52008 333 05454 31006;EQDQ01  00002PRCP99
0175545340999992000111006004+39670+118140FM-12+002999999V0202901N003012200019N0300001N1+00281-01201103551ADDAA199000091GA1001+999999999GF100991001001999999001001KA1999N-00421MD1710271+9999REMSYN064AAXX  10061 54534 32980 02903 10028 21120 40355 57027 333 21042;EQDQ01  00002PRCP99
0112545340999992000112103004+39670+118140FM-12+002999999V0202201N001019999999N0200001N1+00341-01261103101ADDGF106991001001999999001021MD1410001+9999REMSYN060AAXX  21031 54534 42970 62201 10034 21126 40310 54000 80002;
0152545340999992000121212004+39670+118140FM-12+002999999V0202201N001012200019N0100001N1-00151-01451102551ADDAA199000091GA1001+999999999GF100991001001999999001001MD1710051+9999REMSYN054AAXX  12121 54534 32960 02201 11015 21145 40255 57005;EQDQ01  00002PRCP99
0140545340999992000122403004+39670+118140FM-12+002999999V0200401N003019999999N0150001N1-00551-00701102391ADDAY171031AY271031GF108991081001999999021999MD1210111+9999MW1711REMSYN066AAXX  24031 54534 41965 80403 11055 21070 40239 52011 77177 8802/;
0122545390999992000010203004+39430+118900FM-12+001299999V0203401N004012200019N0300001N1-00041-01351102391ADDGA1001+999999999GF100991001001999999001001MD1210261+9999REMSYN054AAXX  02031 54539 42980 03404 11004 21135 40239 52026;
0196545390999992000010218004+39430+118900FM-12+001299999V0200701N003012200019N0150001N1-00671-00801102561ADDAA106000091GA1001+999999999GF100991001001999999001001KA1999M+00201MA1999999102401MD1210101+9999REMSYN070AAXX  02181 54539 32965 00703 11067 21080 30240 40256 52010 333 10020;EQDQ01  00002PRCP06
0116545390999992000011503004+39430+118900FM-12+001299999V0200701N003019999999N0150001N1-00731-01001103091ADDGF107991061001999999031021MD1210121+9999REMSYN064    AAXX  15031 54539 42965 70703 11073 21100 40309 52012 86032;
0190545390999992000011618004+39430+118900FM-12+001299999V0209999C000019999999N0100001N1-01111-01301103141ADDAA199000091GF107991061001999999031021KA1999M-00361MA1999999102981MD1710101+9999REMSYN080    AAXX  16181 54539 32960 70000 11111 21130 30298 40314 57010 86032 333 11036;EQDQ01  00002PRCP99
0126545390999992000011709004+39430+118900FM-12+001299999V0209999C000012200019N0120001N1-00361-00801102701ADDGA1001+999999999GF100991001001999999001001MD1710061+9999REMSYN058    AAXX  17091 54539 42962 00000 11036 21080 40270 57006;
0122545390999992000021315004+39430+118900FM-12+001299999V0203601N001012200019N0200001N1-00651-01001102471ADDGA1001+999999999GF100991001001999999001001MD1210181+9999REMSYN054AAXX  13151 54539 42970 03601 11065 21100 40247 52018;
0112545390999992000022503004+39430+118900FM-12+001299999V0202501N004010150019N0110001N1+00111-00601102401ADDGF108991051051017501001071MD1710201+9999REMSYN060AAXX  25031 54539 42761 82504 10011 21060 40240 57020 85507;
0196545390999992000022918004+39430+118900FM-12+001299999V0200201N001012200019N0200001N1-00101-00421102651ADDAA199000091GA1001+999999999GF100991001001999999001001KA1999M+00801MA1999999102501MD1710011+9999REMSYN070AAXX  29181 54539 32970 00201 11010 21042 30250 40265 57001 333 10080;EQDQ01  00002PRCP99
0186545390999992000051118004+39430+118900FM-12+001299999V0209999C000019999999N0200001N1+01491+01121100491ADDAA199000091GF107991001001999999001021KA1999M+02621MA1999999100351MD1710151+9999REMSYN076AAXX  11181 54539 32970 70000 10149 20112 30035 40049 57015 80002 333 10262;EQDQ01  00002PRCP99
0196545390999992000051518004+39430+118900FM-12+001299999V0209999C000012200019N0120001N1+01161+01041101401ADDAA199000091GA1001+999999999GF100991001001999999001001KA1999M+01751MA1999999101261MD1710191+9999REMSYN070AAXX  15181 54539 32962 00000 10116 20104 30126 40140 57019 333 10175;EQDQ01  00002PRCP99
0173545390999992000052100004+39430+118900FM-12+001299999V0200701N001019999999N0300001N1+01881+01361100561ADDAA199000091GF105991021001999999031021MA1999999100421MD1210151+0051REMSYN076AAXX  21001 54539 32980 50701 10188 20136 30042 40056 52015 82032 333 05502;EQDQ01  00002PRCP99
0122545390999992000060521004+39430+118900FM-12+001299999V0202701N002012200019N0200001N1+02251+01861100551ADDGA1001+999999999GF100991001001999999001001MD1710051+9999REMSYN054AAXX  05211 54539 42970 02702 10225 20186 40055 57005;
0112545390999992000060703004+39430+118900FM-12+001299999V0202701N002019999999N0200001N1+02641+01881100051ADDGF108991061001999999031071MD1710021+9999REMSYN060AAXX  07031 54539 42970 82702 10264 20188 40005 57002 86037;
0112545390999992000062321004+39420+118890FM-12+001299999V0200901N001010900019N0150001N1+02161+02011100211ADDGF107991021051017501001021MD1410001+9999REMSYN060AAXX  23211 54539 42765 70901 10216 20201 40021 54000 82502;
0163545390999992000063012004+39420+118890FM-12+001299999V0202001N001012200019N0250001N1+02981+01671100101ADDAA199000091GF102991021041012501001001MA1999999099961MD1210161+9999REMSYN066AAXX  30121 54539 32675 22001 10298 20167 39996 40010 52016 82400;EQDQ01  00002PRCP99
0112545390999992000070915004+39420+118890FM-12+001299999V0200901N002012200019N0150001N1+02521+02301100771ADDGF101991011001999999031001MD1210101+9999REMSYN060AAXX  09151 54539 42965 10902 10252 20230 40077 52010 81030;
0134545390999992000081515004+39420+118890FM-12+001299999V0209999C000012200019N0090001N1+02571+02481100201ADDGA1001+999999999GF100991001001999999001001MD1210131+9999MW1101REMSYN060AAXX  15151 54539 41959 00000 10257 20248 40020 52013 71000;
0163545390999992000082712004+39420+118890FM-12+001299999V0200901N001012200019N0250001N1+02521+02051101211ADDAA199000091GF102991001001999999001021MA1999999101071MD1210141+9999REMSYN066AAXX  27121 54539 32975 20901 10252 20205 30107 40121 52014 80002;EQDQ01  00002PRCP99
0122545390999992000082809004+39420+118890FM-12+001299999V0201101N003012200019N0300001N1+02691+01831101101ADDGA1001+999999999GF100991001001999999001001MD1710131+9999REMSYN054AAXX  28091 54539 42980 01103 10269 20183 40110 57013;
0186545390999992000090500004+39420+118890FM-12+001299999V0203601N001010150019N0150001N1+01621+01461101611ADDAA106003091AY161061GF108991071051017501021999MA1999999101471MD1210061+0501MW1601REMSYN094AAXX  05001 54539 11765 83601 10162 20146 30147 40161 52006 60031 76060 8752/ 333 00559 70061;
0186545390999992000091118004+39420+118890FM-12+001299999V0200901N001019999999N0150001N1+01841+01641101541ADDAA199000091GF107991061001999999031021KA1999M+02941MA1999999101401MD1710051+9999REMSYN076AAXX  11181 54539 32965 70901 10184 20164 30140 40154 57005 86032 333 10294;EQDQ01  00002PRCP99
0112545390999992000092809004+39420+118890FM-12+001299999V0200901N003010075019N0200001N1+02031+01601101651ADDGF105991051011008001001001MD1210051+9999REMSYN060AAXX  28091 54539 42570 50903 10203 20160 40165 52005 85100;
0112545390999992000092903004+39420+118890FM-12+001299999V0209999C000010075019N0300001N1+02351+01541101811ADDGF107991061011008001001021MD1710021+9999REMSYN060AAXX  29031 54539 42580 70000 10235 20154 40181 57002 86102;
0112545390999992000100309004+39420+118890FM-12+001299999V0201101N002010075019N0200001N1+01931+01351101471ADDGF108991081091008001999999MD1710091+9999REMSYN060AAXX  03091 54539 42570 81102 10193 20135 40147 57009 889//;
0163545390999992000100512004+39420+118890FM-12+001299999V0201401N002010120019N0300001N1+01911+01251101811ADDAA199000091GF107991071041012501999999MA1999999101671MD1710111+9999REMSYN066AAXX  05121 54539 32680 71402 10191 20125 30167 40181 57011 874//;EQDQ01  00002PRCP99
0161545390999992000100721004+39420+118890FM-12+001299999V0200401N002010075019N0100001N1+01361+01271101541ADDAA124045591AY181031AY281031GF108991081091008001999999MD1210091+9999MW1801REMSYN076AAXX  07211 54539 41560 80402 10136 20127 40154 52009 78088 889// 333 70455;
0112545390999992000100903004+39420+118890FM-12+001299999V0200401N003010120019N0250001N1+01701+00591101841ADDGF107991051051012501031999MD1710081+9999REMSYN060AAXX  09031 54539 42675 70403 10170 20059 40184 57008 8553/;
0122545390999992000101403004+39420+118890FM-12+001299999V0202701N003012200019N0300001N1+01461+00141102331ADDGA1001+999999999GF100991001001999999001001MD1710031+9999REMSYN054AAXX  14031 54539 42980 02703 10146 20014 40233 57003;
0112545390999992000101509004+39420+118890FM-12+001299999V0201401N003012200019N0300001N1+01161+00031103161ADDGF103991001001999999001021MD1710061+9999REMSYN060AAXX  15091 54539 42980 31403 10116 20003 40316 57006 80002;
0112545390999992000101803004+39420+118890FM-12+001299999V0200901N004019999999N0200001N1+01071+00101102741ADDGF107991001001999999001021MD1710121+9999REMSYN060AAXX  18031 54539 42970 70904 10107 20010 40274 57012 80002;
0112545390999992000101809004+39420+118890FM-12+001299999V0200701N001012200019N0200001N1+01081+00481102201ADDGF103991001001999999001021MD1710211+9999REMSYN060AAXX  18091 54539 42970 30701 10108 20048 40220 57021 80002;
0112545390999992000102003004+39420+118890FM-12+001299999V0200901N005012200019N0200001N1+01371+00511102351ADDGF104991001001999999001021MD1210031+9999REMSYN060AAXX  20031 54539 42970 40905 10137 20051 40235 52003 80002;
0122545390999992000111203004+39420+118890FM-12+001299999V0203601N003012200019N0300001N1+00441-01041102761ADDGA1001+999999999GF100991001001999999001001MD1210021+9999REMSYN054AAXX  12031 54539 42980 03603 10044 21104 40276 52002;
0186545390999992000120606004+39420+118890FM-12+001299999V0202701N003012200019N0110001N1+00571+00021102221ADDAA199000091GF102991001001999999001021KA1999N-00341MA1999999102071MD1710181+9999REMSYN076AAXX  06061 54539 32961 22703 10057 20002 30207 40222 57018 80002 333 21034;EQDQ01  00002PRCP99
0144545390999992000120912004+39420+118890FM-12+001299999V0200901N003019999999N0100001N1+00071-00171102521ADDAA199000021GF107991001001999999001021MA1999999102371MD1210261+9999REMSYN066AAXX  09121 54539 32960 70903 10007 21017 30237 40252 52026 80002;
0132545630999992000031509004+39630+121980FM-12+001799999V0200201N004010075019N0060001N1+00241+00191101161ADDAY161031GF107991071051008001999999MD1410001+9999MW1101REMSYN066AAXX  15091 54563 41556 70204 10024 20019 40116 54000 71060 875//;
0112545630999992000032921004+39630+121980FM-12+001799999V0201401N002019999999N0120001N1+00171-00821101331ADDGF107991071001999999031999MD1710021+9999REMSYN060AAXX  29211 54563 42962 71402 10017 21082 40133 57002 8703/;
0162545870999992000020900004+39050+123220FM-12+001099999V0203201N004012200019N0300001N1-00471-00751102161ADDAA199000091GA1001+999999999GF100991001001999999001001MD1210051+0011REMSYN064AAXX  09001 54587 32980 03204 11047 21075 40216 52005 333 00105;EQDQ01  00002PRCP99
0112545870999992000021409004+39050+123220FM-12+001099999V0203201N013012200019N0300001N1-00191-01181101511ADDGF102991021021008001001001MD1210021+9999REMSYN060AAXX  14091 54587 42580 23213 11019 21118 40151 52002 82200;
0139545870999992000022300004+39050+123220FM-12+001099999V0203601N004012200019N0280001N1-00021-00291102101ADDAA124000191GF101991011011008001001001MD1210161-0101REMSYN076AAXX  23001 54587 22578 13604 11002 21029 40210 52016 81100 333 05100 70001;
0152545870999992000031000004+39050+123220FM-12+001099999V0202201N003012200019N0200001N1+00261+00021102241ADDAA199000091GF101991001001999999001011MD1210071+0021REMSYN070AAXX  10001 54587 32970 12203 10026 20002 40224 52007 80001 333 05201;EQDQ01  00002PRCP99
0188545870999992000032706004+39050+123220FM-12+001099999V0202001N010019999999N0150001N1+00851+00511099501ADDAA199000091GF108991081001999999021999KA1240N+00281MD1710201+9999OA130602001REMSYN082AAXX  27061 54587 32965 82010 10085 20051 49950 57020 8802/ 333 20028 91120 91523;EQDQ01  00002PRCP99
0112545870999992000033009004+39050+123220FM-12+001099999V0201401N005019999999N0280001N1+00761+00461100611ADDGF107991001001999999001011MD1710091+9999REMSYN060AAXX  30091 54587 42978 71405 10076 20046 40061 57009 80001;
0175545870999992000033106004+39050+123220FM-12+001099999V0200201N004012200019N0300001N1+01171-00791101041ADDAA199000091GA1001+999999999GF100991001001999999001001KA1999N+00381MD1710031+9999REMSYN064AAXX  31061 54587 32980 00204 10117 21079 40104 57003 333 20038;EQDQ01  00002PRCP99
0182545870999992000052600004+39050+123220FM-12+001099999V0201401N001010003019N0005001N1+01521+01411100701ADDAA199000091AY141061GA1091+999999999GF109991091999999999999999MD1710071+0011MW1471REMSYN070AAXX  26001 54587 31/05 91401 10152 20141 40070 57007 74740 333 05154;EQDQ01  00002PRCP99
0112545870999992000052909004+39050+123220FM-12+001099999V0202201N005012200019N0220001N1+02591+01001100441ADDGF101991001001999999001021MD1710141+9999REMSYN060AAXX  29091 54587 42972 12205 10259 20100 40044 57014 80002;
0175545870999992000070518004+39500+123220FM-12+001099999V0209999C000012200019N0250001N1+02301+02191100731ADDAA199000091GA1001+999999999GF100991001001999999001001KA1999M+02771MD1710031+9999REMSYN064AAXX  05181 54587 32975 00000 10230 20219 40073 57003 333 10277;EQDQ01  00002PRCP99
0156545870999992000072406004+39050+123220FM-12+001099999V0202201N002012200019N0150001N1+02761+02381099661ADDAA199000091GA1001+999999999GF100991001001999999001001MD1710061+9999REMSYN058AAXX  24061 54587 32965 02202 10276 20238 49966 57006 333;EQDQ01  00002PRCP99
0112545870999992000072503004+39050+123220FM-12+001099999V0209999C000012200019N0120001N1+02661+02321099991ADDGF103991011011004501031001MD1210031+9999REMSYN060AAXX  25031 54587 42462 30000 10266 20232 49999 52003 81130;
0112545870999992000080503004+39050+123220FM-12+001099999V0200901N003010042019N0300001N1+02611+02411100901ADDGF107991061021004501031999MD1710021+9999REMSYN060AAXX  05031 54587 42480 70903 10261 20241 40090 57002 8623/;
0112545870999992000081721004+39050+123220FM-12+001099999V0200901N005019999999N0300001N1+02531+02421100431ADDGF107991061001999999031021MD1210051+9999REMSYN060AAXX  17211 54587 42980 70905 10253 20242 40043 52005 86032;
0122545870999992000091821004+39050+123220FM-12+001099999V0201401N002012200019N0300001N1+02061+01691101141ADDGA1001+999999999GF100991001001999999001001MD1210021+9999REMSYN054AAXX  18211 54587 42980 01402 10206 20169 40114 52002;
0154545870999992000100906004+39050+123220FM-12+001099999V0209999C000019999999N0300001N1+01631+01071101071ADDGF107991071001999999031999KA1999N+99999MD1710061+9999REMSYN070AAXX  09061 54587 42980 70000 10163 20107 40107 57006 8703/ 333 20192;EQDQ01 +01922ATMN  
0112545870999992000101821004+39050+123220FM-12+001099999V0202001N002012200019N0300001N1+01291+00991101661ADDGF102991021011008001001001MD1710031+9999REMSYN060AAXX  18211 54587 42580 22002 10129 20099 40166 57003 82100;
0165545870999992000110900004+39050+123220FM-12+001099999V0200401N006019999999N0280001N1+00291-00411102341ADDAA106000791AY171061GF108991081001999999021999MD1210151-0401MW1791REMSYN088AAXX  09001 54587 /1978 80406 10029 21041 40234 52015 69901 77970 8802/ 333 05403 79999;
0139545870999992000112600004+39050+123220FM-12+001099999V0203201N010012200019N0300001N1+00201-00681102171ADDAA124000791GF104991041001999999031021MD1210141+0501REMSYN076AAXX  26001 54587 32980 43210 10020 21068 40217 52014 84032 333 00559 79999;
0112545870999992000120503004+39050+123220FM-12+001099999V0203601N005012200019N0300001N1-00631-01171102271ADDGF102991021011008001001001MD1210071+9999REMSYN060AAXX  05031 54587 42580 23605 11063 21117 40227 52007 82100;
0168546020999992000011712004+38850+115570FM-12+001999999V0202001N001012200019N0030001N1-00681-00851102741ADDAA199000091GA1001+999999999GF100991001001999999001001MD1210031+9999MW1101REMSYN064    AAXX  17121 54602 31930 02001 11068 21085 40274 52003 71000;EQDQ01  00002PRCP99
0134546020999992000012821004+38850+115570FM-12+001999999V0200401N002012200019N0060001N1-00921-01191103381ADDGA1001+999999999GF100991001001999999001001MD1210111+9999MW1101REMSYN060AAXX  28211 54602 41956 00402 11092 21119 40338 52011 71000;
0145546020999992000041821004+38850+115570FM-12+001999999V0201601N003019999999N0080001N1+01141+01041101021ADDAA124000191GF108991001001999999001071MD1710121+9999MW1101REMSYN076AAXX  18211 54602 41958 81603 10114 20104 40102 57012 71000 80007 333 70001;
0165546020999992000042718004+38850+115570FM-12+001999999V0202201N001012200019N0150001N1+01601+00741100931ADDAA199000091GF102991001001999999001021KA1999M+02511MD1710081+9999REMSYN070AAXX  27181 54602 32965 22201 10160 20074 40093 57008 80002 333 10251;EQDQ01  00002PRCP99
0142546020999992000042812004+38850+115570FM-12+001999999V0201401N001019999999N0120001N1+02271+01371100571ADDAA199000091GF108991001001999999001071MD1210101+9999REMSYN060AAXX  28121 54602 32962 81401 10227 20137 40057 52010 80007;EQDQ01  00002PRCP99
0162546020999992000050200004+38850+115570FM-12+001999999V0202001N002012200019N0200001N1+01751+00421101631ADDAA199000091GA1001+999999999GF100991001001999999001001MD1210071+0061REMSYN064AAXX  02001 54602 32970 02002 10175 20042 40163 52007 333 00654;EQDQ01  00002PRCP99
0122546020999992000050321004+38850+115570FM-12+001999999V0201401N001012200019N0100001N1+01651+00991100831ADDGA1001+999999999GF100991001001999999001001MD1710041+9999REMSYN054AAXX  03211 54602 42960 01401 10165 20099 40083 57004;
0153546020999992000051321004+38850+115570FM-12+001999999V0201601N002010360019N0090001N1+01611+01251100781ADDAA124000391AY161031GF108991021071004501021999MD1410001+9999MW1601REMSYN076AAXX  13211 54602 41459 81602 10161 20125 40078 54000 76060 8272/ 333 70002;
0142546020999992000052703004+38850+115570FM-12+001999999V0202201N002012200019N0300001N1+02001+01281101151ADDAY161031GA1001+999999999GF100991001001999999001001MD1710021+9999MW1001REMSYN060AAXX  27031 54602 41980 02202 10200 20128 40115 57002 70060;
0142546020999992000061912004+38840+115560FM-12+001999999V0202201N001019999999N0120001N1+03231+01731100501ADDAA199000091GF108991001001999999001071MD1210061+9999REMSYN060AAXX  19121 54602 32962 82201 10323 20173 40050 52006 80007;EQDQ01  00002PRCP99
0112546020999992000062003004+38840+115560FM-12+001999999V0202501N003019999999N0180001N1+03591+01611100401ADDGF108991001001999999001071MD1710081+9999REMSYN060AAXX  20031 54602 42968 82503 10359 20161 40040 57008 80007;
0123546020999992000070712004+38840+115560FM-12+001999999V0201801N002012200019N0120001N1+03031+02231100451ADDAA199000021GF101991011011008001001001MD1210091+9999REMSYN060AAXX  07121 54602 32562 11802 10303 20223 40045 52009 81100;
0153546020999992000072821004+38840+115560FM-12+001999999V0203401N002010900019N0120001N1+02911+01621099881ADDAA124000791AY181031GF108991021011008001001071MD1710031+9999MW1001REMSYN076AAXX  28211 54602 41562 83402 10291 20162 49988 57003 70080 82107 333 79999;
0124546020999992000081703004+38840+115560FM-12+001999999V0200401N002019999999N0090001N1+03011+02531101001ADDGF108991001001999999001071MD1210121+9999MW1101REMSYN066AAXX  17031 54602 41959 80402 10301 20253 40100 52012 71000 80007;
0164546020999992000082500004+38840+115560FM-12+001999999V0209999C000012200019N0090001N1+02541+02121100931ADDAA199000091GF103991001001999999001011MD1210101+0011MW1101REMSYN076AAXX  25001 54602 31959 30000 10254 20212 40093 52010 71000 80001 333 05101;EQDQ01  00002PRCP99
0124546020999992000082609004+38840+115560FM-12+001999999V0209999C000010900019N0150001N1+03131+02081100581ADDGF106991021041017501001021MD1710061+9999MW1251REMSYN066AAXX  26091 54602 41765 60000 10313 20208 40058 57006 72500 82402;
0149546020999992000090412004+38840+115560FM-12+001999999V0203401N005010120019N0100001N1+02121+01831101261ADDAA106000591AY181061GF108991081091012501999999MD1210341+9999MW1801REMSYN072AAXX  04121 54602 11660 83405 10212 20183 40126 52034 69941 78080 889//;
0122546020999992000090803004+38840+115560FM-12+001999999V0202001N004012200019N0180001N1+02571+01031101771ADDGA1001+999999999GF100991001001999999001001MD1210021+9999REMSYN054AAXX  08031 54602 42968 02004 10257 20103 40177 52002;
0152546020999992000091712004+38840+115560FM-12+001999999V0202201N001012200019N0120001N1+02441+01461100831ADDAA199000091GA1001+999999999GF100991001001999999001001MD1210061+9999REMSYN054AAXX  17121 54602 32962 02201 10244 20146 40083 52006;EQDQ01  00002PRCP99
0190546020999992000100206004+38840+115560FM-12+001999999V0200401N002012200019N0100001N1+02011+01631101551ADDAA106000791AY151061AY241061GA1001+999999999GF100991001001999999001001KA1999N+01401MD1710111+9999MW1001REMSYN076AAXX  02061 54602 11960 00402 10201 20163 40155 57011 69901 70054 333 20140;
0164546020999992000100400004+38840+115560FM-12+001999999V0203601N002019999999N0090001N1+01541+01451101641ADDAA199000091GF108991001001999999001071MD1210161+0001MW1101REMSYN076AAXX  04001 54602 31959 83602 10154 20145 40164 52016 71000 80007 333 00000;EQDQ01  00002PRCP99
0180546020999992000102206004+38840+115560FM-12+001999999V0200201N004010360019N0090001N1+00991+00951101621ADDAA106018091AY161061AY261061GF108991031071008001021999KA1999N+00961MD1710291+9999MW1611REMSYN082AAXX  22061 54602 11559 80204 10099 20095 40162 57029 60181 76166 8372/ 333 20096;
0165546020999992000102506004+38840+115560FM-12+001999999V0201601N003012200019N0300001N1+01081-00481102821ADDAA199000091GF104991021001999999031021KA1999N+00331MD1710241+9999REMSYN070AAXX  25061 54602 32980 41603 10108 21048 40282 57024 82032 333 20033;EQDQ01  00002PRCP99
0154546020999992000110312004+38840+115560FM-12+001999999V0202901N001019999999N0080001N1+01131+00781102001ADDAA199000091GF108991081001999999021999MD1210061+9999MW1101REMSYN066AAXX  03121 54602 31958 82901 10113 20078 40200 52006 71000 8802/;EQDQ01  00002PRCP99
0124546020999992000113021004+38840+115560FM-12+001999999V0203601N003012200019N0060001N1-00121-00281102571ADDGF102991001001999999001021MD1710061+9999MW1101REMSYN066AAXX  30211 54602 41956 23603 11012 21028 40257 57006 71000 80002;
0211546180999992000011000004+38080+116550FM-12+001399999V0200901N001010003019N0002001N1-00911-01071103031ADDAA106000091AY141061AY241061GA1091+999999999GF109991091999999999999999MA1999999102841MD1210181+0091MW1491REMSYN076AAXX  10001 54618 31/02 90901 11091 21107 30284 40303 52018 74944 333 00956;EQDQ01  00002PRCP06
0122546180999992000022015004+38080+116550FM-12+001399999V0201401N002012200019N0110001N1-00041-01201102511ADDGA1001+999999999GF100991001001999999001001MD1210121+9999REMSYN054AAXX  20151 54618 42961 01402 11004 21120 40251 52012;
0186546180999992000041618004+38080+116550FM-12+001399999V0202001N004019999999N0110001N1+01531+00411100741ADDAA199000091GF105991001001999999001021KA1999M+02541MA1999999100571MD1710071+9999REMSYN076AAXX  16181 54618 32961 52004 10153 20041 30057 40074 57007 80002 333 10254;EQDQ01  00002PRCP99
0133546180999992000041821004+38080+116550FM-12+001399999V0201101N001019999999N0110001N1+00861+00731101121ADDAA124000791GF107991001001999999001021MD1710071+9999REMSYN070AAXX  18211 54618 42961 71101 10086 20073 40112 57007 80002 333 79999;
0112546180999992000042721004+38080+116550FM-12+001399999V0201401N003012200019N0120001N1+01371+00721100931ADDGF104991001001999999001021MD1710101+9999REMSYN060AAXX  27211 54618 42962 41403 10137 20072 40093 57010 80002;
0186546180999992000042918004+38080+116550FM-12+001399999V0202201N004012200019N0110001N1+01471+00971100961ADDAA199000091GF102991001001999999001021KA1999M+02001MA1999999100791MD1710131+9999REMSYN076AAXX  29181 54618 32961 22204 10147 20097 30079 40096 57013 80002 333 10200;EQDQ01  00002PRCP99
0122546180999992000050115004+38080+116550FM-12+001399999V0201601N003012200019N0110001N1+01451+00641101541ADDGA1001+999999999GF100991001001999999001001MD1210231+9999REMSYN054AAXX  01151 54618 42961 01603 10145 20064 40154 52023;
0122546180999992000050609004+38080+116550FM-12+001399999V0202001N002012200019N0120001N1+02561+00461101671ADDGA1001+999999999GF100991001001999999001001MD1710301+9999REMSYN054AAXX  06091 54618 42962 02002 10256 20046 40167 57030;
0170546180999992000051112004+38080+116550FM-12+001399999V0201801N004019999999N0110001N1+01821+00641100531ADDAA106000791AY161061GF108991081001999999071999MA1999999100361MD1210011+9999MW1001REMSYN078AAXX  11121 54618 11961 81804 10182 20064 30036 40053 52001 69901 70060 8807/;
0112546180999992000060909004+38080+116550FM-12+001399999V0200701N004012200019N0120001N1+02611+00651100871ADDGF101991011011008001001001MD1710031+9999REMSYN060AAXX  09091 54618 42562 10704 10261 20065 40087 57003 81100;
0112546180999992000061121004+38080+116550FM-12+001399999V0209999C000012200019N0110001N1+01651+01111101351ADDGF102991001001999999001021MD1210071+9999REMSYN060AAXX  11211 54618 42961 20000 10165 20111 40135 52007 80002;
0112546180999992000061803004+38800+116550FM-12+001399999V0200201N001012200019N0120001N1+03411+01111101241ADDGF102991001001999999001021MD1710091+9999REMSYN060AAXX  18031 54618 42962 20201 10341 20111 40124 57009 80002;
0112546180999992000062203004+38800+116550FM-12+001399999V0201401N002019999999N0110001N1+03081+01931100291ADDGF106991001001999999001021MD1710051+9999REMSYN060AAXX  22031 54618 42961 61402 10308 20193 40029 57005 80002;
0183546180999992000080100004+38070+116550FM-12+001399999V0201601N002012200019N0110001N1+02701+02231100481ADDAA199000091GA1001+999999999GF100991001001999999001001MA1999999100311MD1210141+0051REMSYN070AAXX  01001 54618 32961 01602 10270 20223 30031 40048 52014 333 00502;EQDQ01  00002PRCP99
0173546180999992000081900004+38070+116550FM-12+001399999V0203601N001012200019N0110001N1+02441+02111100811ADDAA199000091GF103991031001999999031001MA1999999100641MD1210101+0021REMSYN076AAXX  19001 54618 32961 33601 10244 20211 30064 40081 52010 83030 333 05251;EQDQ01  00002PRCP99
0186546180999992000082106004+38070+116550FM-12+001399999V0202501N002019999999N0120001N1+03011+01781100861ADDAA199000091GF107991001001999999001021KA1999N+01981MA1999999100691MD1710131+9999REMSYN076AAXX  21061 54618 32962 72502 10301 20178 30069 40086 57013 80002 333 20198;EQDQ01  00002PRCP99
0186546180999992000082506004+38070+116550FM-12+001399999V0200401N001012200019N0120001N1+03161+02201100671ADDAA199000091GF103991011011012501031001KA1999N+02231MA1999999100501MD1710191+9999REMSYN076AAXX  25061 54618 32662 30401 10316 20220 30050 40067 57019 81130 333 20223;EQDQ01  00002PRCP99
0196546180999992000090318004+38070+116550FM-12+001399999V0201401N001012200019N0110001N1+02431+02031101011ADDAA199000091GA1001+999999999GF100991001001999999001001KA1999M+03181MA1999999100841MD1710071+9999REMSYN070AAXX  03181 54618 32961 01401 10243 20203 30084 40101 57007 333 10318;EQDQ01  00002PRCP99
0122546180999992000090709004+38070+116550FM-12+001399999V0209999C000012200019N0120001N1+02741+01021101481ADDGA1001+999999999GF100991001001999999001001MD1710071+9999REMSYN054AAXX  07091 54618 42962 00000 10274 20102 40148 57007;
0186546180999992000091006004+38070+116550FM-12+001399999V0202201N003019999999N0110001N1+02611+01191101521ADDAA199000091GF107991001001999999001021KA1999N+01451MA1999999101351MD1710191+9999REMSYN076AAXX  10061 54618 32961 72203 10261 20119 30135 40152 57019 80002 333 20145;EQDQ01  00002PRCP99
0112546180999992000092009004+38070+116550FM-12+001399999V0200701N001019999999N0110001N1+02821+01691101571ADDGF107991071001999999031001MD1710071+9999REMSYN060AAXX  20091 54618 42961 70701 10282 20169 40157 57007 87030;
0173546180999992000092512004+38070+116550FM-12+001399999V0209999C000012200019N0110001N1+01891+01501101871ADDAA199000091GA1001+999999999GF100991001001999999001001MA1999999101691MD1210131+9999REMSYN060AAXX  25121 54618 32961 00000 10189 20150 30169 40187 52013;EQDQ01  00002PRCP99
0112546180999992000101309004+38070+116550FM-12+001399999V0202901N001019999999N0120001N1+01351+00001102391ADDGF106991001001999999001021MD1710121+9999REMSYN060AAXX  13091 54618 42962 62901 10135 20000 40239 57012 80002;
0112546180999992000101709004+38070+116550FM-12+001399999V0200401N001012200019N0110001N1+01991+01051101921ADDGF103991001001999999001021MD1210121+9999REMSYN060AAXX  17091 54618 42961 30401 10199 20105 40192 52012 80002;
0112546180999992000101809004+38070+116550FM-12+001399999V0200401N001019999999N0120001N1+01601+01011102011ADDGF107991071001999999031999MD1710151+9999REMSYN060AAXX  18091 54618 42962 70401 10160 20101 40201 57015 8703/;
0112546180999992000111003004+38070+116550FM-12+001399999V0203601N004012200019N0120001N1+00021-01241103931ADDGF102991001001999999001021MD1210041+9999REMSYN060AAXX  10031 54618 42962 23604 10002 21124 40393 52004 80002;
0112546180999992000111115004+38070+116550FM-12+001399999V0202201N002012200019N0110001N1+00091-00181102841ADDGF102991001001999999001021MD1210071+9999REMSYN060AAXX  11151 54618 42961 22202 10009 21018 40284 52007 80002;
0186546180999992000111518004+38070+116550FM-12+001399999V0203601N002019999999N0110001N1+00191-00361103681ADDAA199000091GF108991081001999999021999KA1999M+00651MA1999999103491MD1710081+9999REMSYN076AAXX  15181 54618 32961 83602 10019 21036 30349 40368 57008 8802/ 333 10065;EQDQ01  00002PRCP99
0122546180999992000112615004+38070+116550FM-12+001399999V0201401N002012200019N0110001N1+00161-00041102871ADDGA1001+999999999GF100991001001999999001001MD1210031+9999REMSYN054AAXX  26151 54618 42961 01402 10016 21004 40287 52003;
0112546180999992000112815004+38070+116550FM-12+001399999V0202501N001019999999N0110001N1+00301+00201102521ADDGF107991001001999999001021MD1410001+9999REMSYN060AAXX  28151 54618 42961 72501 10030 20020 40252 54000 80002;
0178546180999992000113000004+38070+116550FM-12+001399999V0203601N001019999999N0110001N1-00021-00141102841ADDAA124000791GF107991001001999999001021IA2999-00139MA1999999102651MD1210031+0301REMSYN088AAXX  30001 54618 32961 73601 11002 21014 30265 40284 52003 80002 333 00352 31013 79999;
0173546180999992000121512004+38070+116550FM-12+001399999V0200401N003012200019N0110001N1+00101-01691102971ADDAA199000091GA1001+999999999GF100991001001999999001001MA1999999102781MD1210261+9999REMSYN060AAXX  15121 54618 32961 00403 10010 21169 30278 40297 52026;EQDQ01  00002PRCP99
0122546230999992000012909004+39020+117600FM-12+000499999V0203201N009012200019N0180001N1-00341-01851103741ADDGA1001+999999999GF100991001001999999001001MD1210181+9999REMSYN054AAXX  29091 54623 42968 03209 11034 21185 40374 52018;
0165546460999992000032906004+38350+119680FM-12+000699999V0201401N005012200019N0250001N1+01051-00311101891ADDAA199000091GF102991001001999999001021KA1999N+00671MD1710311+9999REMSYN070AAXX  29061 54646 32975 21405 10105 21031 40189 57031 80002 333 20067;EQDQ01  00002PRCP99
0174546460999992000033000004+38350+119680FM-12+000699999V0201601N009012200019N0080001N1+00801+00301101081ADDAA199000091GA1001+999999999GF100991001001999999001001MD1710021+0121MW1101REMSYN070AAXX  30001 54646 31958 01609 10080 20030 40108 57002 710// 333 06251;EQDQ01  00002PRCP99
0262546620999992000010306004+38900+121630SY-MT+0097ZYTL V0200401N00501220001CN0200001N1-00431-01461999999ADDAA106000091GF107991001001999999001021KA1999N-00781MA1102511101221MD1710231+9999MW1001REMSYN076AAXX  03061 54662 32970 70405 11043 21146 30122 4/251 57023 80002 333 21078;MET048ZYTL 030600Z 01002MPS CAVOK M04/M13 Q1025 NOSIG;EQDQ01+000000PRSWM2Q02  00002PRCP06
0161546620999992000010616004+38900+121630FM-15+0097ZYTL V0203001N004010078019N0050001N1-01001-01301999999ADDGA1071+007809999GF107991999999999999999999MA1102611999999MW1101REMMET051ZYTL 061600Z 30004MPS 5000 BR BKN026 M10/M13 Q1026;EQDQ01+000003PRSWM1Q02    003PRSWM1
0264546620999992000011121004+38900+121630SY-MT+0097ZYTL V0203401N00401030001CN0100001N1-00641-01191102441ADDGA1021+006009999GA2071+030009999GF107991071001999999031999MA1102401999999MD1710071+9999MW1101REMSYN060AAXX  11211 54662 42960 73404 11064 21119 40244 57007 8703/;MET058ZYTL 112100Z 30002MPS 3000 BR SCT020 BKN100 M07/M10 Q1024;EQDQ01+000003PRSWM1Q02    003PRSWM1
0100546620999992000011602004+38900+121630FM-15+0097ZYTL V0203201N00601220001CN0099001N1-00801-01401999999ADDMA1103291999999MW1001REMMET048ZYTL 160200Z 32006MPS CAVOK M08/M14 Q1033 NOSIG;EQDQ01+000000PRSWM2
0238546620999992000012214004+38900+121630FM-15+0097ZYTL V0209999C000010300019N0005001N1-00201-00201999999ADDED199U11009GA1021+000609999GA2021+002109999GA3081+030009999GF108991999999999999999999MA1102511999999MW1441MW2711REMMET079ZYTL 221400Z 00000MPS 0500 R28/1100N -SN FG SCT002 SCT007 OVC100 M02/M02 Q1025;EQDQ01+000003PRSWM1Q02    003PRSWM1
0122546620999992000020215004+38900+121630FM-12+0097ZYTL V0202701N004012200019N0200001N1-00371-01061102931ADDGA1001+999999999GF100991001001999999001001MD1710021+9999REMSYN054AAXX  02151 54662 42970 02704 11037 21106 40293 57002;
0094546620999992000020914004+38900+121630FM-15+0097ZYTL V0203001N00101220001CN0099001N1-00601-00801999999ADDMA1102301999999MW1001REMMET042ZYTL 091400Z 30001MPS CAVOK M06/M08 Q1023;EQDQ01+000000PRSWM2
0094546620999992000022116004+38900+121630FM-15+0097ZYTL V0209999C00001220001CN0099001N1-00601-01001999999ADDMA1102611999999MW1001REMMET042ZYTL 211600Z 00000MPS CAVOK M06/M10 Q1026;EQDQ01+000000PRSWM2
0277546620999992000022515004+38900+121630SY-MT+0097ZYTL V0202701N00301009901CN0120001N1-00081-00351102051ADDAY171031AY271031GA1071+009909999GA2081+030009999GF108991081001999999021999MA1102001999999MD1710021+9999MW1701MW2711REMSYN066AAXX  25151 54662 41962 82703 11008 21035 40205 57002 77077 8802/;MET059ZYTL 251500Z 24002MPS 8000 -SN BKN033 OVC100 M01/M02 Q1020;EQDQ01    003PRSWM1
0100546620999992000022711004+38900+121630FM-15+0097ZYTL V0200101N00501220001CN0099001N1-00101-00801999999ADDMA1102711999999MW1001REMMET048ZYTL 271100Z 01005MPS CAVOK M01/M08 Q1027 NOSIG;EQDQ01+000000PRSWM2
0094546620999992000022716004+38900+121630FM-15+0097ZYTL V0200301N00501220001CN0099001N1-00301-01101999999ADDMA1103121999999MW1001REMMET042ZYTL 271600Z 03005MPS CAVOK M03/M11 Q1031;EQDQ01+000000PRSWM2
0099546620999992000030802004+38900+121630FM-15+0097ZYTL V0203301N00601220001CN0099001N1+00101-01301999999ADDMA1102511999999MW1001REMMET047ZYTL 080200Z 33006MPS CAVOK 01/M13 Q1025 NOSIG;EQDQ01+000000PRSWM2
0100546620999992000030923004+38900+121630FM-15+0097ZYTL V0202801N00101220001CN0099001N1-00401-00401999999ADDMA1102611999999MW1001REMMET048ZYTL 092300Z 28001MPS CAVOK M04/M04 Q1026 NOSIG;EQDQ01+000000PRSWM2
0238546620999992000032012004+38900+121630SY-MT+0097ZYTL V0201401N004019999999N0150001N1+00281-00411101811ADDAA199000091GF107991001001999999001021MA1101801100571MD1710011+9999MW1001REMSYN066AAXX  20121 54662 32965 71404 10028 21041 30057 40181 57001 80002;MET047ZYTL 201200Z 16002MPS CAVOK 04/M08 Q1018 NOSIG;EQDQ01+000000PRSWM2Q02  00002PRCP99
0183546620999992000032020004+38900+121630FM-15+0097ZYTL V0209999C000010099019N0060001N1+00101+00101999999ADDGA1021+001209999GA2081+009909999GF108991999999999999999999MA1101901999999MW1611REMMET057ZYTL 202000Z 00000MPS 6000 -RA SCT004 OVC033 01/01 Q1019;EQDQ01+000003PRSWM1Q02    003PRSWM1
0188546620999992000032711004+38900+121630FM-15+0097ZYTL V0200101N003010300019N0030001N1+00801+00501999999ADDGA1021+000909999GA2081+030009999GF108991999999999999999999MA1099901999999MW1101REMMET062ZYTL 271100Z 01003MPS 3000 BR SCT003 OVC100 08/05 Q0999 NOSIG;EQDQ01+000003PRSWM1Q02    003PRSWM1
0237546620999992000040212004+38900+121630SY-MT+0097ZYTL V0202001N004019999999N0180001N1+00791+00401102201ADDAA199000091GF107991071001999999031999MA1102201100971MD1210071+9999MW1001REMSYN066AAXX  02121 54662 32968 72004 10079 20040 30097 40220 52007 8703/;MET046ZYTL 021200Z 17002MPS CAVOK 09/05 Q1022 NOSIG;EQDQ01+000000PRSWM2Q02  00002PRCP99
0186546620999992000041418004+38900+121630FM-12+0097ZYTL V0203401N003019999999N0120001N1+00961-00461101631ADDAA199000091GF107991001001999999001021KA1999M+01591MA1999999100431MD1710141+9999REMSYN076AAXX  14181 54662 32962 73403 10096 21046 30043 40163 57014 80002 333 10159;EQDQ01  00002PRCP99
0261546620999992000041506004+38900+121630SY-MT+0097ZYTL V0200201N006012200019N0180001N1+01591-00851101361ADDAA199000091GF101991011011012501001001KA1999N+00831MA1101391100161MD1710171+9999MW1001REMSYN076AAXX  15061 54662 32668 10206 10159 21085 30016 40136 57017 81100 333 20083;MET047ZYTL 150600Z 32004MPS CAVOK 17/M11 Q1014 NOSIG;EQDQ01+000000PRSWM2Q02  00002PRCP99
0121546620999992000041616004+38900+121630FM-15+0097ZYTL V0201301N001012200019N0060001N1+00601+00401999999ADDGF100991999999999999999999MA1101081999999MW1001REMMET043ZYTL 161600Z 13001MPS 6000 SKC 06/04 Q1011;EQDQ01+000000PRSWM2
0247546620999992000042000004+38900+121630SY-MT+0097ZYTL V0202001N009010360019N0150001N1+01111+00651100821ADDAA199000091GF108991021011008001011999MA1100811099611MD1710051+0051MW1001REMSYN076AAXX  20001 54662 32565 82009 10111 20065 39961 40082 57005 8211/ 333 05505;MET046ZYTL 200000Z 17007MPS CAVOK 13/06 Q1008 NOSIG;EQDQ01+000000PRSWM2Q02  00002PRCP99
0305546620999992000042006004+38900+121630SY-MT+0097ZYTL V0201801N00401030001CN0100001N1+01151+00671100651ADDAA199000091GA1021+006009999GA2081+030009999GF108991081001999999071999KA1999N+00541MA1100611099451MD1710171+9999MW1001REMSYN076AAXX  20061 54662 32960 81804 10115 20067 39945 40065 57017 8807/ 333 20054;MET059ZYTL 200600Z 13002MPS 6000 SCT020 OVC100 15/08 Q1006 NOSIG;EQDQ01+000000PRSWM2Q02  00002PRCP99
0098546620999992000042623004+38900+121630FM-15+0097ZYTL V0203201N00401220001CN0099001N1+01101+00501999999ADDMA1101081999999MW1001REMMET046ZYTL 262300Z 32004MPS CAVOK 11/05 Q1011 NOSIG;EQDQ01+000000PRSWM2
0099546620999992000042711004+38900+121630FM-15+0097ZYTL V0202801N00201220001CN0099001N1+01401-00201999999ADDMA1101081999999MW1001REMMET047ZYTL 271100Z 28002MPS CAVOK 14/M02 Q1011 NOSIG;EQDQ01+000000PRSWM2
0213546620999992000051021004+38900+121630SY-MT+0097ZYTL V0202901N004012200019N0100001N1+01121+00751100501ADDAA124004191GF100991001001999999001001MA1100511999999MD1410001+9999MW1001REMSYN064AAXX  10211 54662 42960 02904 10112 20075 40050 54000 333 70040;MET040ZYTL 102100Z 28003MPS CAVOK 09/08 Q1005;EQDQ01+000000PRSWM2
0115546620999992000051108004+38900+121630FM-15+0097ZYTL V0203201N00301220001CN0099001N1+02101+99999999999ADDMA1100511999999MW1001REMMET047ZYTL 110800Z 32003MPS CAVOK 21/M07 Q1005 NOSIG;EQDQ01-000703ATOD  Q02+000000PRSWM2
0285546620999992000051912004+38900+121630SY-MT+0097ZYTL V0203401N004010900019N0100001N1+01371+01191100761ADDAA199000021GA1021+000909999GA2021+007809999GF105991011011012501001021MA1100711099571MD1210191+9999MW1101REMSYN066AAXX  19121 54662 32660 53404 10137 20119 39957 40076 52019 81102;MET062ZYTL 191200Z 27001MPS 3000 BR FEW003 SCT026 13/12 Q1007 NOSIG;EQDQ01+000003PRSWM1Q02    003PRSWM1
0165546620999992000051914004+38900+121630FM-15+0097ZYTL V0202901N002012200019N0040001N1+01201+01201999999ADDGA1021+000909999GF102991999999999999999999MA1100811999999MW1101REMMET055ZYTL 191400Z 29002MPS 4000 BR FEW003 12/12 Q1008 NOSIG;EQDQ01+000003PRSWM1Q02    003PRSWM1
0261546620999992000052303004+38900+121630SY-MT+0097ZYTL V0200901N005012200019N0150001N1+01681+01271100981ADDGA1071+030009999GF199999001001999999001021MA1101021999999MD1210071+9999MW1101REMSYN060AAXX  23031 54662 42965 10905 10168 20127 40098 52007 80002;MET055ZYTL 230300Z 12005MPS 3000 BR BKN100 18/13 Q1010 NOSIG;EQDQ01+000012SCOTCVQ02+000003PRSWM1Q03    003PRSWM1
0264546620999992000052621004+38900+121630SY-MT+0097ZYTL V0203601N00501030001CN0100001N1+01731+01231100301ADDAA124000791GA1021+009909999GA2081+030009999GF108991081001999999071999MA1100311999999MD1710071+9999MW1001REMSYN070AAXX  26211 54662 42960 83605 10173 20123 40030 57007 8807/ 333 79999;MET053ZYTL 262100Z 33004MPS 8000 SCT033 OVC100 17/13 Q1003;EQDQ01+000000PRSWM2
0099546620999992000052811004+38900+121630FM-15+0097ZYTL V0202801N00401220001CN0099001N1+02401-00401999999ADDMA1100911999999MW1001REMMET047ZYTL 281100Z 28004MPS CAVOK 24/M04 Q1009 NOSIG;EQDQ01+000000PRSWM2
0204546620999992000060303004+38900+121630SY-MT+0097ZYTL V0200901N003019999999N0180001N1+02621+01261101101ADDGF107991001001999999001021MA1101081999999MD1710051+9999MW1001REMSYN060AAXX  03031 54662 42968 70903 10262 20126 40110 57005 80002;MET046ZYTL 030300Z 13004MPS CAVOK 28/11 Q1011 NOSIG;EQDQ01+000000PRSWM2
0195546620999992000060521004+38900+121630SY-MT+0097ZYTL V0202001N007012200019N0100001N1+02101+01531100581ADDGF100991001001999999001001MA1100611999999MD1710061+9999MW1001REMSYN054AAXX  05211 54662 42960 02007 10210 20153 40058 57006;MET043ZYTL 052100Z 24002MPS 7000 SKC 23/17 Q1006;EQDQ01+000000PRSWM2
0310546620999992000060721004+38900+121630SY-MT+0097ZYTL V0201101N00201000901CN0080001N1+01751+01651100131ADDAA124018391ED199U14009GA1071+000909999GA2081+009009999GF199999071061001501999999MA1100101999999MD1710011+9999MW1101REMSYN076AAXX  07211 54662 41258 71102 10175 20165 40013 57001 71000 876// 333 70183;MET066ZYTL 072100Z 13002MPS 2000 R28/1400N BR BKN003 OVC030 18/18 Q1001;EQDQ01+000072SCOTCVQ02    003PRSWM1
0098546620999992000061214004+38900+121630FM-15+0097ZYTL V0202701N00201220001CN0099001N1+02201+00501999999ADDMA1100811999999MW1001REMMET046ZYTL 121400Z 27002MPS CAVOK 22/05 Q1008 NOSIG;EQDQ01+000000PRSWM2
0098546620999992000061314004+38900+121630FM-15+0097ZYTL V0202401N00201220001CN0099001N1+02701+00201999999ADDMA1100101999999MW1001REMMET046ZYTL 131400Z 24002MPS CAVOK 27/02 Q1001 NOSIG;EQDQ01+000000PRSWM2
0098546620999992000062014004+38900+121630FM-15+0097ZYTL V0201801N00301220001CN0099001N1+02401+01701999999ADDMA1100611999999MW1001REMMET046ZYTL 201400Z 18003MPS CAVOK 24/17 Q1006 NOSIG;EQDQ01+000000PRSWM2
0172546620999992000062907004+38900+121630FM-15+0097ZYTL V0201201N004010099019N0112651N1+02501+02001999999ADDGA1021+007809029GA2071+009909999GF107991999999999999999999MA1099701999999MW1001REMMET062ZYTL 290700Z 12004MPS 9999 FEW026TCU BKN033 25/20 Q0997 NOSIG;EQDQ01+000000PRSWM2
0165546620999992000063005004+38900+121630FM-15+0097ZYTL V0202301N003010090019N0040001N1+03001+02001999999ADDGA1071+009009999GF107991999999999999999999MA1100101999999MW1101REMMET055ZYTL 300500Z 23003MPS 4000 BR BKN030 30/20 Q1001 NOSIG;EQDQ01+000003PRSWM1Q02    003PRSWM1
0165546620999992000070802004+38900+121630FM-15+0097ZYTL V0201601N002012200019N0040001N1+02901+02301999999ADDGA1021+007809999GF104991999999999999999999MA1100511999999MW1101REMMET055ZYTL 080200Z 16002MPS 4000 BR SCT026 29/23 Q1005 NOSIG;EQDQ01+000003PRSWM1Q02    003PRSWM1
0305546620999992000071006004+38900+121630SY-MT+0097ZYTL V0201401N00401004801CN0100001N1+02721+02221100941ADDAA199000091GA1071+004809999GA2021+030009999GF108991051021012501001071KA1999N+02291MA1100911099801MD1710171+9999MW1001REMSYN076AAXX  10061 54662 32660 81404 10272 20222 39980 40094 57017 85207 333 20229;MET059ZYTL 100600Z 10004MPS 8000 BKN016 SCT100 28/21 Q1009 NOSIG;EQDQ01+000000PRSWM2Q02  00002PRCP99
0169546620999992000072718024+38900+121630FM-15+0097ZYTL V0201901N004010300019N0060001N1+02601+02401999999ADDGA1021+012009999GA2081+030009999GF108991999999999999999999MA1100001999999MW1001REMMET059ZYTL 271802Z 19004MPS 6000 SCT040 OVC100 26/24 Q1000 NOSIG;EQDQ01+000000PRSWM2
0173546620999992000080204004+38900+121630FM-15+0097ZYTL V0201001N003010600019N0040001N1+03001+02401999999ADDGA1071+060009999GF107991999999999999999999MA1101021999999MW1101REMMET063ZYTL 020400Z 10003MPS 4000 BR BKN200 30/24 Q1010 BECMG 5000 BR;EQDQ01+000003PRSWM1Q02    003PRSWM1
0098546620999992000080304004+38900+121630FM-15+0097ZYTL V0201201N00301220001CN0099001N1+03101+01401999999ADDMA1101081999999MW1001REMMET046ZYTL 030400Z 12003MPS CAVOK 31/14 Q1011 NOSIG;EQDQ01+000000PRSWM2
0188546620999992000080323004+38900+121630FM-15+0097ZYTL V0201201N001010300019N0030001N1+02501+02401999999ADDGA1021+000909999GA2071+030009999GF107991999999999999999999MA1101191999999MW1101REMMET062ZYTL 032300Z 12001MPS 3000 BR SCT003 BKN100 25/24 Q1012 NOSIG;EQDQ01+000003PRSWM1Q02    003PRSWM1
0146546620999992000081207004+38900+121630FM-15+0097ZYTL V0201801N003010078019N0112651N1+02901+02501999999ADDGA1081+007809999GF108991999999999999999999MA1100711999999MW1001REMMET052ZYTL 120700Z 18003MPS 9999 OVC026 29/25 Q1007 NOSIG;EQDQ01+000000PRSWM2
0226546620999992000081803004+38900+121630SY-MT+0097ZYTL V0200901N00401007801CN0120001N1+02761+02301100991ADDGA1071+007809999GF107991001001999999001021MA1100911999999MD1210021+9999MW1001REMSYN060AAXX  18031 54662 42962 70904 10276 20230 40099 52002 80002;MET052ZYTL 180300Z 12004MPS 8000 BKN026 29/23 Q1009 NOSIG;EQDQ01+000000PRSWM2
0165546620999992000082402004+38900+121630FM-15+0097ZYTL V0202301N001012200019N0050001N1+03101+02101999999ADDGA1021+006009999GF102991999999999999999999MA1101191999999MW1101REMMET055ZYTL 240200Z 23001MPS 5000 BR FEW020 31/21 Q1012 NOSIG;EQDQ01+000003PRSWM1Q02    003PRSWM1
0237546620999992000091012004+38900+121630SY-MT+0097ZYTL V0202201N003019999999N0280001N1+02181+01321101541ADDAA199000091GF107991001001999999001021MA1101491100381MD1210071+9999MW1001REMSYN066AAXX  10121 54662 32978 72203 10218 20132 30038 40154 52007 80002;MET046ZYTL 101200Z 28002MPS CAVOK 20/14 Q1015 NOSIG;EQDQ01+000000PRSWM2Q02  00002PRCP99
0220546620999992000091421004+38900+121630SY-MT+0097ZYTL V0203401N003012200019N0200001N1+01801+01551101031ADDGF101991001001999999001021MA1101021999999MD1710141+9999MW1101REMSYN060AAXX  14211 54662 42970 13403 10180 20155 40103 57014 80002;MET046ZYTL 142100Z 27001MPS 3000 BR SKC 16/16 Q1010;EQDQ01+000003PRSWM1Q02    003PRSWM1
0098546620999992000092610004+38900+121630FM-15+0097ZYTL V0201101N00101220001CN0099001N1+02001+00701999999ADDMA1102001999999MW1001REMMET046ZYTL 261000Z 11001MPS CAVOK 20/07 Q1020 NOSIG;EQDQ01+000000PRSWM2
0204546620999992000093015004+38900+121630SY-MT+0097ZYTL V0203201N001019999999N0150001N1+01861+01521101811ADDGF107991001001999999001021MA1101801999999MD1410001+9999MW1001REMSYN060AAXX  30151 54662 42965 73201 10186 20152 40181 54000 80002;MET046ZYTL 301500Z 28002MPS CAVOK 16/15 Q1018 NOSIG;EQDQ01+000000PRSWM2
0098546620999992000101413004+38900+121630FM-15+0097ZYTL V0209999C00001220001CN0099001N1+01101+00301999999ADDMA1102301999999MW1001REMMET046ZYTL 141300Z 00000MPS CAVOK 11/03 Q1023 NOSIG;EQDQ01+000000PRSWM2
0146546620999992000101902004+38900+121630FM-15+0097ZYTL V0202101N004010300019N0080001N1+01801+01301999999ADDGA1071+030009999GF107991999999999999999999MA1101801999999MW1001REMMET052ZYTL 190200Z 21004MPS 8000 BKN100 18/13 Q1018 NOSIG;EQDQ01+000000PRSWM2
0099546620999992000102002004+38900+121630FM-15+0097ZYTL V0203301N00301220001CN0099001N1+01301-00701999999ADDMA1102201999999MW1001REMMET047ZYTL 200200Z 33003MPS CAVOK 13/M07 Q1022 NOSIG;EQDQ01+000000PRSWM2
0092546620999992000102417004+38900+121630FM-15+0097ZYTL V0200201N007012200019N0090001N1+99999+99999999999ADDMA1102401999999MW1001REMMET040ZYTL 241700Z AUTO 02007MPS 09/M13 Q1024;EQDQ01+000000PRSWM2
0253546620999992000103018004+38900+121630SY-MT+0097ZYTL V0202201N002012200019N0200001N1+01171+00621102171ADDAA199000091GF103991031011012501001001KA1999M+01421MA1999999100961MD1710011+9999MW1001REMSYN076AAXX  30181 54662 32670 32202 10117 20062 30096 40217 57001 83100 333 10142;MET039ZYTL 301800Z AUTO 00000MPS 07/06 Q1021;EQDQ01+000000PRSWM2Q02  00002PRCP99
0098546620999992000110202004+38900+121630FM-15+0097ZYTL V0202801N00601220001CN0099001N1+01601+00401999999ADDMA1102101999999MW1001REMMET046ZYTL 020200Z 28006MPS CAVOK 16/04 Q1021 NOSIG;EQDQ01+000000PRSWM2
0098546620999992000110502004+38900+121630FM-15+0097ZYTL V0201901N00501220001CN0099001N1+01501+00201999999ADDMA1101801999999MW1001REMMET046ZYTL 050200Z 19005MPS CAVOK 15/02 Q1018 NOSIG;EQDQ01+000000PRSWM2
0100546620999992000110801004+38900+121630FM-15+0097ZYTL V0200601N00301220001CN0099001N1-00101-01401999999ADDMA1103391999999MW1001REMMET048ZYTL 080100Z 06003MPS CAVOK M01/M14 Q1034 NOSIG;EQDQ01+000000PRSWM2
0227546620999992000111303004+38900+121630SY-MT+0097ZYTL V0202501N004010120019N0200001N1+00911-00161102631ADDGA1021+009909999GF107991071021012501999999MA1102611999999MD1410001+9999MW1001REMSYN060AAXX  13031 54662 42670 72504 10091 21016 40263 54000 872//;MET053ZYTL 130300Z 23003MPS 8000 SCT033 11/M02 Q1026 NOSIG;EQDQ01+000000PRSWM2
0140546620999992000111620004+38900+121630FM-15+0097ZYTL V0203001N005010099019N0112651N1+00501+00001999999ADDGA1081+009909999GF108991999999999999999999MA1102611999999MW1001REMMET046ZYTL 162000Z 30005MPS 9999 OVC033 05/00 Q1026;EQDQ01+000000PRSWM2
0170546620999992000111702004+38900+121630FM-15+0097ZYTL V0203501N003010078019N0080001N1+00401+00001999999ADDGA1021+001809999GA2081+007809999GF108991999999999999999999MA1102711999999MW1001REMMET060ZYTL 170200Z 35003MPS 8000 FEW006 OVC026 04/M00 Q1027 NOSIG;EQDQ01+000000PRSWM2
0142546620999992000112620004+38900+121630FM-15+0097ZYTL V0202701N001012200019N0060001N1-00101-00101999999ADDGA1021+009909999GF104991999999999999999999MA1102711999999MW1001REMMET048ZYTL 262000Z 27001MPS 6000 SCT033 M01/M01 Q1027;EQDQ01+000000PRSWM2
0099546620999992000112804004+38900+121630FM-15+0097ZYTL V0200401N00101220001CN0099001N1+00601-02102999999ADDMA1103011999999MW1001REMMET047ZYTL 280400Z 04001MPS CAVOK 06/M21 Q1030 NOSIG;EQDQ01+000000PRSWM2
0199546620999992000112815004+38900+121630SY-MT+0097ZYTL V0202201N006012200019N0240001N1+00551-00341102661ADDGF101991011011012501001001MA1102611999999MD1710061+9999MW1001REMSYN060AAXX  28151 54662 42674 12206 10055 21034 40266 57006 81100;MET041ZYTL 281500Z 23002MPS CAVOK 02/M02 Q1026;EQDQ01+000000PRSWM2
0178546620999992000113000004+38900+121630FM-12+0097ZYTL V0203401N003019999999N0120001N1-00181-00961102961ADDAA124000791GF107991001001999999001021IA2999-00469MA1999999101681MD1210071+0501REMSYN088AAXX  30001 54662 32962 73403 11018 21096 30168 40296 52007 80002 333 00559 31046 79999;
0099546620999992000120210004+38900+121630FM-15+0097ZYTL V0200101N00301220001CN0099001N1+00401-01801999999ADDMA1102611999999MW1001REMMET047ZYTL 021000Z 01003MPS CAVOK 04/M18 Q1026 NOSIG;EQDQ01+000000PRSWM2
0163546620999992000120414004+38900+121630FM-15+0097ZYTL V0203601N007012200019N9999999N1+00101-00701999999ADDGA1021+012009999GF102991999999999999999999MA1101901999999MW1001REMMET053ZYTL 041400Z 36007MPS 6000 FEW040 01/M07 Q1019 NOSIG;EQDQ01+060002VODIS Q02+000000PRSWM2
0100546620999992000121901004+38900+121630FM-15+0097ZYTL V0200101N00501220001CN0099001N1-00501-00901999999ADDMA1103391999999MW1001REMMET048ZYTL 190100Z 01005MPS CAVOK M05/M09 Q1034 NOSIG;EQDQ01+000000PRSWM2
0167546620999992000122207004+38900+121630FM-15+0097ZYTL V0203501N005012200019N0050001N1-00301-00401999999ADDGA1021+003009999GF104991999999999999999999MA1101691999999MW1101REMMET057ZYTL 220700Z 35005MPS 5000 BR SCT010 M03/M04 Q1017 NOSIG;EQDQ01+000003PRSWM1Q02    003PRSWM1
0122547050999992000012009004+37370+115380FM-12+004299999V0200701N002012200019N0120001N1-00141-01011103841ADDGA1001+999999999GF100991001001999999001001MD1410001+9999REMSYN054AAXX  20091 54705 42962 00702 11014 21101 40384 54000;
0172547150999992000010106004+37330+116570FM-12+001999999V0203601N002019999999N0080001N1-00041-00071102281ADDAA106000191AY161061GF108991081001999999071999KA1999N-00061MD1710211+9999MW1101REMSYN082AAXX  01061 54715 11958 83602 11004 21007 40228 57021 69911 71060 8807/ 333 21006;
0194547150999992000011700004+37330+116570FM-12+001999999V0209999C000012200019N0050001N1-00881-00991999999ADDAA199000091GA1001+999999999GF100991001001999999001001MD1710011+0031MW1101REMSYN074    AAXX  17001 54715 31950 00000 11088 21099 40130 57001 71000 333 05355;EQDQ01+101303APOSLPQ02  00002PRCP99
0142547150999992000013112004+37330+116570FM-12+001999999V0200201N001012200019N0200001N1-00681-01921104511ADDAA199000091GF103991001001999999001021MD1210041+9999REMSYN060AAXX  31121 54715 32970 30201 11068 21192 40451 52004 80002;EQDQ01  00002PRCP99
0112547150999992000022409004+37330+116570FM-12+001999999V0201401N003019999999N0200001N1+00541-01261103101ADDGF106991001001999999001021MD1710171+9999REMSYN060AAXX  24091 54715 42970 61403 10054 21126 40310 57017 80002;
0152547150999992000041512004+37330+116570FM-12+001999999V0201801N003012200019N0200001N1+01361+00421101471ADDAA199000091GA1001+999999999GF100991001001999999001001MD1210061+9999REMSYN054AAXX  15121 54715 32970 01803 10136 20042 40147 52006;EQDQ01  00002PRCP99
0112547150999992000042009004+37330+116570FM-12+001999999V0202001N003012200019N0150001N1+02231+00921100471ADDGF102991001001999999001021MD1710201+9999REMSYN060AAXX  20091 54715 42965 22003 10223 20092 40047 57020 80002;
0165547150999992000060218004+37330+116570FM-12+001999999V0200401N004019999999N0200001N1+01941+01681101011ADDAA199000091GF108991081001999999071999KA1999M+02941MD1710131+9999REMSYN070AAXX  02181 54715 32970 80404 10194 20168 40101 57013 8807/ 333 10294;EQDQ01  00002PRCP99
0165547150999992000060706004+37330+116570FM-12+001999999V0203601N004010360019N0200001N1+03101+01551100051ADDAA199000091GF108991031011012501071999KA1999N+02221MD1710041+9999REMSYN070AAXX  07061 54715 32670 83604 10310 20155 40005 57004 8317/ 333 20222;EQDQ01  00002PRCP99
0180547150999992000070218004+37320+116560FM-12+001999999V0201401N002019999999N0160001N1+02601+02401100671ADDAA106013091AY191061AY281061GF106991061001999999031001KA1999M+03681MD1710131+9999MW1001REMSYN082AAXX  02181 54715 11966 61402 10260 20240 40067 57013 60131 70098 86030 333 10368;
0122547150999992000082709004+37320+116560FM-12+001999999V0200901N003012200019N0200001N1+03091+02231100901ADDGA1001+999999999GF100991001001999999001001MD1710091+9999REMSYN054AAXX  27091 54715 42970 00903 10309 20223 40090 57009;
0165547150999992000082918004+37320+116560FM-12+001999999V0201401N002019999999N0150001N1+02331+02211100881ADDAA199000091GF106991001001999999001021KA1999M+03081MD1710031+9999REMSYN070AAXX  29181 54715 32965 61402 10233 20221 40088 57003 80002 333 10308;EQDQ01  00002PRCP99
0175547150999992000090318004+37320+116560FM-12+001999999V0200901N002012200019N0150001N1+02281+02021101011ADDAA199000091GA1001+999999999GF100991001001999999001001KA1999M+03181MD1710081+9999REMSYN064AAXX  03181 54715 32965 00902 10228 20202 40101 57008 333 10318;EQDQ01  00002PRCP99
0122547150999992000091203004+37320+116560FM-12+001999999V0200701N004012200019N0150001N1+02571+01481101701ADDGA1001+999999999GF100991001001999999001001MD1210101+9999REMSYN054AAXX  12031 54715 42965 00704 10257 20148 40170 52010;
0122547150999992000092521004+37320+116560FM-12+001999999V0201101N002012200019N0150001N1+01521+01191101991ADDGA1001+999999999GF100991001001999999001001MD1210011+9999REMSYN054AAXX  25211 54715 42965 01102 10152 20119 40199 52001;
0149547150999992000100912004+37320+116560FM-12+001999999V0200401N003019999999N0150001N1+01391+01341101681ADDAA106006191AY161061GF108991081001999999071999MD1210091+9999MW1601REMSYN072AAXX  09121 54715 11965 80403 10139 20134 40168 52009 60061 76060 8807/;
0175547150999992000101218004+37320+116560FM-12+001999999V0209999C000012200019N0150001N1+00311+00261102971ADDAA199000091GA1001+999999999GF100991001001999999001001KA1999M+01351MD1710041+9999REMSYN064AAXX  12181 54715 32965 00000 10031 20026 40297 57004 333 10135;EQDQ01  00002PRCP99
0175547150999992000112106004+37320+116560FM-12+001999999V0201801N004012200019N0200001N1+00831-00151102601ADDAA199000091GA1001+999999999GF100991001001999999001001KA1999N-00151MD1710271+9999REMSYN064AAXX  21061 54715 32970 01804 10083 21015 40260 57027 333 21015;EQDQ01  00002PRCP99
0175547150999992000122206004+37320+116560FM-12+001999999V0200401N004012200019N0150001N1+00861-00911101621ADDAA199000091GA1001+999999999GF100991001001999999001001KA1999N-00201MD1710241+9999REMSYN064AAXX  22061 54715 32965 00404 10086 21091 40162 57024 333 21020;EQDQ01  00002PRCP99
0116547250999992000011509004+37500+117530FM-12+001299999V0200701N002019999999N0150001N1-00071-00491102821ADDGF108991001001999999001071MD1210051+9999REMSYN064    AAXX  15091 54725 42965 80702 11007 21049 40282 52005 80007;
0162547250999992000012100004+37500+117530FM-12+001299999V0201401N003012200019N0150001N1-00771-01111104051ADDAA199000091GA1001+999999999GF100991001001999999001001MD1210011+0041REMSYN064AAXX  21001 54725 32965 01403 11077 21111 40405 52001 333 00400;EQDQ01  00002PRCP99
0170547250999992000030300004+37500+117530FM-12+001299999V0201601N002019999999N0150001N1+00391-00271101811ADDAA199000091GF108991001001999999001071IA2999-00209MD1210101-0601REMSYN076AAXX  03001 54725 32965 81602 10039 21027 40181 52010 80007 333 05601 31021;EQDQ01  00002PRCP99
0122547250999992000031603004+37500+117530FM-12+001299999V0202701N005012200019N0150001N1+01411-00841101731ADDGA1001+999999999GF100991001001999999001001MD1410001+9999REMSYN054AAXX  16031 54725 42965 02705 10141 21084 40173 54000;
0165547250999992000041918004+37500+117530FM-12+001299999V0202201N006010120019N0150001N1+01641+01241100781ADDAA199000091GF107991071051012501999999KA1999M+02281MD1410001+9999REMSYN070AAXX  19181 54725 32665 72206 10164 20124 40078 54000 875// 333 10228;EQDQ01  00002PRCP99
0112547250999992000042409004+37500+117530FM-12+001299999V0201401N003019999999N0150001N1+01871+01101100271ADDGF108991001001999999001071MD1710181+9999REMSYN060AAXX  24091 54725 42965 81403 10187 20110 40027 57018 80007;
0165547250999992000042506004+37500+117530FM-12+001299999V0203201N004019999999N0120001N1+02321+00271100071ADDAA199000091GF108991001001999999001071KA1999N+01381MD1710071+9999REMSYN070AAXX  25061 54725 32962 83204 10232 20027 40007 57007 80007 333 20138;EQDQ01  00002PRCP99
0152547250999992000042612004+37500+117530FM-12+001299999V0200901N002012200019N0150001N1+01661+00461101051ADDAA199000091GA1001+999999999GF100991001001999999001001MD1210081+9999REMSYN054AAXX  26121 54725 32965 00902 10166 20046 40105 52008;EQDQ01  00002PRCP99
0122547250999992000042821004+37500+117530FM-12+001299999V0201801N004012200019N0150001N1+01721+00521100871ADDGA1001+999999999GF100991001001999999001001MD1210041+9999REMSYN054AAXX  28211 54725 42965 01804 10172 20052 40087 52004;
0139547250999992000051500004+37500+117530FM-12+001299999V0203401N002010120019N0120001N1+01661+01301101071ADDAA124000891GF108991081051012501999999MD1210151+0101REMSYN076AAXX  15001 54725 32662 83402 10166 20130 40107 52015 885// 333 00101 70007;
0133547250999992000052921004+37500+117530FM-12+001299999V0201601N001010120019N0150001N1+01941+01411100441ADDAA124000791GF108991081051012501999999MD1710161+9999REMSYN070AAXX  29211 54725 42665 81601 10194 20141 40044 57016 885// 333 79999;
0112547250999992000062603004+37500+117520FM-12+001299999V0200401N005019999999N0120001N1+02841+02111100311ADDGF108991081001999999031999MD1710031+9999REMSYN060AAXX  26031 54725 42962 80405 10284 20211 40031 57003 8803/;
0175547250999992000070106004+37500+117520FM-12+001299999V0201801N004012200019N0150001N1+03711+01591100471ADDAA199000091GA1001+999999999GF100991001001999999001001KA1999N+02351MD1710101+9999REMSYN064AAXX  01061 54725 32965 01804 10371 20159 40047 57010 333 20235;EQDQ01  00002PRCP99
0112547250999992000070821004+37500+117520FM-12+001299999V0203401N001012200019N0150001N1+02301+02021100351ADDGF101991001001999999001011MD1210031+9999REMSYN060AAXX  08211 54725 42965 13401 10230 20202 40035 52003 80001;
0112547250999992000072021004+37500+117520FM-12+001299999V0202201N004012200019N0120001N1+02791+02481100211ADDGF102991001001999999001021MD1710041+9999REMSYN060AAXX  20211 54725 42962 22204 10279 20248 40021 57004 80002;
0124547250999992000081021004+37500+117520FM-12+001299999V0201601N002019999999N0090001N1+02421+02291100441ADDGF108991001001999999001071MD1410001+9999MW1101REMSYN066AAXX  10211 54725 41959 81602 10242 20229 40044 54000 71000 80007;
0165547250999992000081206004+37500+117520FM-12+001299999V0201401N003012200019N0150001N1+03281+02501100561ADDAA199000091GF103991031011008001001021KA1999N+02441MD1710081+9999REMSYN070AAXX  12061 54725 32565 31403 10328 20250 40056 57008 83102 333 20244;EQDQ01  00002PRCP99
0182547250999992000082600004+37500+117520FM-12+001299999V0200201N001012200019N0018001N1+02441+02221100721ADDAA199000091AY141061GA1001+999999999GF100991001001999999001001MD1210081+0021MW1101REMSYN070AAXX  26001 54725 31918 00201 10244 20222 40072 52008 71040 333 05200;EQDQ01  00002PRCP99
0112547250999992000082609004+37500+117520FM-12+001299999V0200901N002012200019N0150001N1+03051+02031100591ADDGF101991001001999999001011MD1710071+9999REMSYN060AAXX  26091 54725 42965 10902 10305 20203 40059 57007 80001;
0152547250999992000091312004+37500+117520FM-12+001299999V0200401N002012200019N0150001N1+02091+01801101631ADDAA199000091GA1001+999999999GF100991001001999999001001MD1210071+9999REMSYN054AAXX  13121 54725 32965 00402 10209 20180 40163 52007;EQDQ01  00002PRCP99
0122547250999992000091821004+37500+117520FM-12+001299999V0201801N002012200019N0100001N1+01991+01681101221ADDGA1001+999999999GF100991001001999999001001MD1210091+9999REMSYN054AAXX  18211 54725 42960 01802 10199 20168 40122 52009;
0165547250999992000092106004+37500+117520FM-12+001299999V0200901N002019999999N0150001N1+02901+01371101761ADDAA199000091GF108991001001999999001071KA1999N+01741MD1710201+9999REMSYN070AAXX  21061 54725 32965 80902 10290 20137 40176 57020 80007 333 20174;EQDQ01  00002PRCP99
0112547250999992000101803004+37500+117520FM-12+001299999V0201401N004019999999N0150001N1+01461+00501102581ADDGF108991001001999999001071MD1710111+9999REMSYN060AAXX  18031 54725 42965 81404 10146 20050 40258 57011 80007;
0170547250999992000111400004+37500+117520FM-12+001299999V0201801N001019999999N0100001N1+00211-00131102751ADDAA199000091GF107991071001999999031999IA2999-00109MD1210141+0201REMSYN076AAXX  14001 54725 32960 71801 10021 21013 40275 52014 8703/ 333 00201 31014;EQDQ01  00002PRCP99
0165547250999992000111818004+37500+117520FM-12+001299999V0201401N002019999999N0150001N1+00211-00011102991ADDAA199000091GF108991001001999999001071KA1999M+00801MD1710131+9999REMSYN070AAXX  18181 54725 32965 81402 10021 21001 40299 57013 80007 333 10080;EQDQ01  00002PRCP99
0150547250999992000112721004+37500+117520FM-12+001299999V0203401N002010001519N0001001N1-00041-00041103051ADDAY141031AY241031GA1091+999999999GF109991091999999999999999MD1710041+9999MW1451REMSYN060AAXX  27211 54725 41/01 93402 11004 21004 40305 57004 74544;
0122547250999992000121103004+37500+117520FM-12+001299999V0200401N005012200019N0150001N1+00061-00931104071ADDGA1001+999999999GF100991001001999999001001MD1210141+9999REMSYN054AAXX  11031 54725 42965 00405 10006 21093 40407 52014;
0195547250999992000121506004+37500+117520FM-12+001299999V0203601N004012200019N0150001N1+00581-01092102511ADDAA199000091AY141061GA1001+999999999GF100991001001999999001001KA1999N-00361MD1210061+9999MW1001REMSYN070AAXX  15061 54725 31965 03604 10058 21109 40251 52006 70040 333 21036;EQDQ01  00002PRCP99
0122547360999992000020209004+37550+118730FM-12+000699999V0209999C000012200019N0120001N1-00071-01151103021ADDGA1001+999999999GF100991001001999999001001MD1710111+9999REMSYN054AAXX  02091 54736 42962 00000 11007 21115 40302 57011;
0122547360999992000022821004+37550+118730FM-12+000699999V0201801N003012200019N0200001N1-00331-01291103311ADDGA1001+999999999GF100991001001999999001001MD1710191+9999REMSYN054AAXX  28211 54736 42970 01803 11033 21129 40331 57019;
0172547510999992000012218004+37930+120720FM-12+004099999V0203601N006019999999N0060001N1-00051-00281102651ADDAA106000791AY171061GF108991081001999999071999KA1999M+00101MD1210081+9999MW1101REMSYN082AAXX  22181 54751 11956 83606 11005 21028 40265 52008 69901 71070 8807/ 333 10010;
0134547510999992000020609004+37930+120720FM-12+004099999V0200201N004012200019N0030001N1-00121-00441102301ADDGA1001+999999999GF100991001001999999001001MD1210051+9999MW1101REMSYN060AAXX  06091 54751 41930 00204 11012 21044 40230 52005 71000;
0134547510999992000021109004+37930+120720FM-12+004099999V0202701N006012200019N0060001N1+00041-00471102071ADDGA1001+999999999GF100991001001999999001001MD1710051+9999MW1101REMSYN060AAXX  11091 54751 41956 02706 10004 21047 40207 57005 71000;
0152547510999992000021200004+37930+120720FM-12+004099999V0201801N002012200019N0120001N1+00251-00811102101ADDAA199000091GF102991001001999999001011MD1210051+0011REMSYN070AAXX  12001 54751 32962 21802 10025 21081 40210 52005 80001 333 05103;EQDQ01  00002PRCP99
0175547510999992000022118004+37930+120720FM-12+004099999V0201101N003012200019N0120001N1-00131-00741102611ADDAA199000091GA1001+999999999GF100991001001999999001001KA1999M+00211MD1210041+9999REMSYN064AAXX  21181 54751 32962 01103 11013 21074 40261 52004 333 10021;EQDQ01  00002PRCP99
0175547510999992000022706004+37930+120720FM-12+004099999V0203201N004012200019N0120001N1+00381-00091102191ADDAA199000091GA1001+999999999GF100991001001999999001001KA1999N-00031MD1710051+9999REMSYN064AAXX  27061 54751 32962 03204 10038 21009 40219 57005 333 21003;EQDQ01  00002PRCP99
0112547510999992000030409004+37930+120720FM-12+004099999V0200201N006012200019N0150001N1+00501-00491102201ADDGF102991001001999999001021MD1210011+9999REMSYN060AAXX  04091 54751 42965 20206 10050 21049 40220 52001 80002;
0112547510999992000040209004+37930+120720FM-12+004099999V0201101N006012200019N0250001N1+00911+00381102101ADDGF104991011011008001001021MD1210041+9999REMSYN060AAXX  02091 54751 42575 41106 10091 20038 40210 52004 81102;
0175547510999992000040506004+37930+120720FM-12+004099999V0203201N009012200019N0300001N1+00891-00201102091ADDAA199000091GA1001+999999999GF100991001001999999001001KA1999N+00501MD1710101+9999REMSYN064AAXX  05061 54751 32980 03209 10089 21020 40209 57010 333 20050;EQDQ01  00002PRCP99
0170547510999992000041300004+37930+120720FM-12+004099999V0200401N009019999999N0120001N1+00911-00121101171ADDAA199000091GF107991001001999999001021IA2999+00509MD1210341+0801REMSYN076AAXX  13001 54751 32962 70409 10091 21012 40117 52034 80002 333 00855 30050;EQDQ01  00002PRCP99
0175547510999992000042318004+37930+120720FM-12+004099999V0202001N006012200019N0200001N1+01271-00121100931ADDAA199000091GA1001+999999999GF100991001001999999001001KA1999M+01521MD1710041+9999REMSYN064AAXX  23181 54751 32970 02006 10127 21012 40093 57004 333 10152;EQDQ01  00002PRCP99
0112547510999992000062703004+37920+120720FM-12+004099999V0200901N003012200019N0120001N1+02581+02101100451ADDGF102991001001999999001021MD1210071+9999REMSYN060AAXX  27031 54751 42962 20903 10258 20210 40045 52007 80002;
0112547510999992000070503004+37920+120720FM-12+004099999V0200901N005019999999N0150001N1+02561+02201101401ADDGF107991001001999999001021MD1410001+9999REMSYN060AAXX  05031 54751 42965 70905 10256 20220 40140 54000 80002;
0122547510999992000070721004+37920+120720FM-12+004099999V0209999C000012200019N0150001N1+02181+02031100461ADDGA1001+999999999GF100991001001999999001001MD1210011+9999REMSYN054AAXX  07211 54751 42965 00000 10218 20203 40046 52001;
0177547510999992000071506004+37920+120720FM-12+004099999V0202501N001019999999N0060001N1+03021+02421100601ADDAA199000091GF107991071001999999031999KA1999N+02411MD1410001+9999MW1101REMSYN076AAXX  15061 54751 31956 72501 10302 20242 40060 54000 71000 8703/ 333 20241;EQDQ01  00002PRCP99
0142547510999992000072012004+37920+120720FM-12+004099999V0201401N006012200019N0120001N1+02811+02481100281ADDAA199000091GF103991031051008001001001MD1210031+9999REMSYN060AAXX  20121 54751 32562 31406 10281 20248 40028 52003 83500;EQDQ01  00002PRCP99
0134547510999992000073021004+37920+120720FM-12+004099999V0209999C000012200019N0030001N1+02201+02171100031ADDGA1001+999999999GF100991001001999999001001MD1210061+9999MW1101REMSYN060AAXX  30211 54751 41930 00000 10220 20217 40003 52006 71000;
0165547510999992000080206004+37920+120720FM-12+004099999V0201101N006019999999N0250001N1+02971+01921100861ADDAA199000091GF107991001001999999001021KA1999N+02401MD1710151+9999REMSYN070AAXX  02061 54751 32975 71106 10297 20192 40086 57015 80002 333 20240;EQDQ01  00002PRCP99
0165547510999992000080706004+37920+120720FM-12+004099999V0200201N003019999999N0150001N1+02661+02371101071ADDAA199000091GF107991071001999999031999KA1999N+02291MD1710021+9999REMSYN070AAXX  07061 54751 32965 70203 10266 20237 40107 57002 8703/ 333 20229;EQDQ01  00002PRCP99
0124547510999992000082703004+37920+120720FM-12+004099999V0200201N005012200019N0050001N1+02661+02281101061ADDGF101991001001999999001021MD1210101+9999MW1101REMSYN066AAXX  27031 54751 41950 10205 10266 20228 40106 52010 71000 80002;
0142547510999992000091912004+37920+120720FM-12+004099999V0201601N005012200019N0100001N1+02741+01871101631ADDAA199000091GF103991001001999999001021MD1210171+9999REMSYN060AAXX  19121 54751 32960 31605 10274 20187 40163 52017 80002;EQDQ01  00002PRCP99
0112547510999992000092703004+37920+120720FM-12+004099999V0201101N004019999999N0200001N1+02331+01121101861ADDGF107991071001999999031999MD1710081+9999REMSYN060AAXX  27031 54751 42970 71104 10233 20112 40186 57008 8703/;
0192547510999992000120100004+37920+120720FM-12+004099999V0202201N007012200019N0070001N1+00601+00151102751ADDAA199000091GA1001+999999999GF100991001001999999001001IA2999-00109MD1210141-0101MW1101REMSYN076AAXX  01001 54751 31957 02207 10060 20015 40275 52014 71000 333 05100 31013;EQDQ01  00002PRCP99
0112547510999992000120921004+37920+120720FM-12+004099999V0200201N010019999999N0200001N1-00021-00721102801ADDGF107991001001999999001021MD1210081+9999REMSYN060AAXX  09211 54751 42970 70210 11002 21072 40280 52008 80002;
0142547510999992000121012004+37920+120720FM-12+004099999V0203201N009010075019N0300001N1-00071-00991103371ADDAA199000091GF107991071051008001999999MD1210151+9999REMSYN060AAXX  10121 54751 32580 73209 11007 21099 40337 52015 875//;EQDQ01  00002PRCP99
0132547510999992000121103004+37920+120720FM-12+004099999V0203401N008012200019N0300001N1-00081-01381103931ADDAY181031GF104991041041008001001001MD1210031+9999MW1001REMSYN066AAXX  11031 54751 41580 43408 11008 21138 40393 52003 70080 84400;
0112547510999992000122803004+37920+120720FM-12+004099999V0203601N003010075019N0200001N1-00141-00721103551ADDGF106991061051008001001001MD1210011+9999REMSYN060AAXX  28031 54751 42570 63603 11014 21072 40355 52001 86500;
0122547530999992000020915004+37620+120320FM-12+000599999V0201801N002012200019N0200001N1-00411-01301102291ADDGA1001+999999999GF100991001001999999001001MD1710021+9999REMSYN054AAXX  09151 54753 42970 01802 11041 21130 40229 57002;
0196547530999992000021518004+37620+120320FM-12+000599999V0202001N003012200019N0200001N1-00471-00911102481ADDAA199000091GA1001+999999999GF100991001001999999001001KA1999M-00051MA1999999102421MD1710071+9999REMSYN070AAXX  15181 54753 32970 02003 11047 21091 30242 40248 57007 333 11005;EQDQ01  00002PRCP99
0191547530999992000022300004+37620+120320FM-12+000599999V0203601N004019999999N0100001N1+00091-00171102531ADDAA199000091GF107991001001999999001021IA2999-00209MA1999999102471MD1210181+0001REMSYN082AAXX  23001 54753 32960 73604 10009 21017 30247 40253 52018 80002 333 00003 31026;EQDQ01  00002PRCP99
0201547530999992000030100004+37620+120320FM-12+000599999V0201801N004012200019N0100001N1+00311-00311102801ADDAA199000091GA1001+999999999GF100991001001999999001001IA2999-00209MA1999999102741MD1210081-0501REMSYN076AAXX  01001 54753 32960 01804 10031 21031 30274 40280 52008 333 05506 31022;EQDQ01  00002PRCP99
0196547530999992000030206004+37620+120320FM-12+000599999V0202201N004012200019N0200001N1+01361-00281102121ADDAA199000091GA1001+999999999GF100991001001999999001001KA1999N+00311MA1999999102061MD1710361+9999REMSYN070AAXX  02061 54753 32970 02204 10136 21028 30206 40212 57036 333 20031;EQDQ01  00002PRCP99
0186547530999992000031006004+37620+120320FM-12+000599999V0202901N003019999999N0120001N1+01211-00201102221ADDAA199000091GF107991001001999999001021KA1999N-00111MA1999999102161MD1710291+9999REMSYN076AAXX  10061 54753 32962 72903 10121 21020 30216 40222 57029 80002 333 21011;EQDQ01  00002PRCP99
0134547530999992000031603004+37620+120320FM-12+000599999V0202201N005012200019N0080001N1+00451+00201101691ADDGA1001+999999999GF100991001001999999001001MD1210051+9999MW1101REMSYN060AAXX  16031 54753 41958 02205 10045 20020 40169 52005 71000;
0196547530999992000031618004+37620+120320FM-12+000599999V0202001N004012200019N0150001N1+00801-00731101441ADDAA199000091GA1001+999999999GF100991001001999999001001KA1999M+01151MA1999999101381MD1710041+9999REMSYN070AAXX  16181 54753 32965 02004 10080 21073 30138 40144 57004 333 10115;EQDQ01  00002PRCP99
0122547530999992000032415004+37620+120320FM-12+000599999V0201801N003012200019N0150001N1+00671-01331102101ADDGA1001+999999999GF100991001001999999001001MD1210031+9999REMSYN054AAXX  24151 54753 42965 01803 10067 21133 40210 52003;
0122547530999992000042209004+37620+120320FM-12+000599999V0202901N009012200019N0200001N1+01511+00001100741ADDGA1001+999999999GF100991001001999999001001MD1710111+9999REMSYN054AAXX  22091 54753 42970 02909 10151 20000 40074 57011;
0196547530999992000050206004+37620+120320FM-12+000599999V0202901N003012200019N0200001N1+01951+00371101511ADDAA199000091GA1001+999999999GF100991001001999999001001KA1999N+00821MA1999999101451MD1710121+9999REMSYN070AAXX  02061 54753 32970 02903 10195 20037 30145 40151 57012 333 20082;EQDQ01  00002PRCP99
0112547530999992000051915004+37620+120320FM-12+000599999V0203601N002010075019N0100001N1+01201+01141100961ADDGF107991071041008001999999MD1210111+9999REMSYN060AAXX  19151 54753 42560 73602 10120 20114 40096 52011 874//;
0173547530999992000052312004+37620+120320FM-12+000599999V0200901N001012200019N0100001N1+02491+01761100741ADDAA199000091GA1001+999999999GF100991001001999999001001MA1999999100681MD1210171+9999REMSYN060AAXX  23121 54753 32960 00901 10249 20176 30068 40074 52017;EQDQ01  00002PRCP99
0122547530999992000052809004+37620+120320FM-12+000599999V0202701N002012200019N0150001N1+02251+01541101021ADDGA1001+999999999GF100991001001999999001001MD1710031+9999REMSYN054AAXX  28091 54753 42965 02702 10225 20154 40102 57003;
0122547530999992000052815004+37620+120320FM-12+000599999V0209999C000012200019N0150001N1+01811+00961101121ADDGA1001+999999999GF100991001001999999001001MD1210051+9999REMSYN054AAXX  28151 54753 42965 00000 10181 20096 40112 52005;
0186547530999992000061906004+37610+120310FM-12+000599999V0202901N004019999999N0100001N1+03181+01571100771ADDAA199000091GF106991001001999999001021KA1999N+02241MA1999999100721MD1710151+9999REMSYN076AAXX  19061 54753 32960 62904 10318 20157 30072 40077 57015 80002 333 20224;EQDQ01  00002PRCP99
0112547530999992000071421004+37610+120310FM-12+000599999V0201801N002012200019N0100001N1+02511+02201100351ADDGF102991001001999999001021MD1210021+9999REMSYN060AAXX  14211 54753 42960 21802 10251 20220 40035 52002 80002;
0112547530999992000071503004+37610+120310FM-12+000599999V0201801N004010150019N0120001N1+02951+02361100541ADDGF107991071051017501999999MD1210111+9999REMSYN060AAXX  15031 54753 42762 71804 10295 20236 40054 52011 875//;
0201547530999992000071906004+37610+120310FM-12+000599999V0201101N002010075019N0100001N1+02801+02411100181ADDAA106008991AY181061AY261061GF107991061041008001041999KA1999N+02451MA1999999100131MD1710061+9999MW1001REMSYN088AAXX  19061 54753 11560 71102 10280 20241 30013 40018 57006 60091 70086 8644/ 333 20245;
0173547530999992000072500004+37610+120310FM-12+000599999V0200701N003019999999N0200001N1+02511+01891100371ADDAA199000091GF107991071001999999031999MA1999999100311MD1210131+0041REMSYN076AAXX  25001 54753 32970 70703 10251 20189 30031 40037 52013 8703/ 333 00453;EQDQ01  00002PRCP99
0162547530999992000080212004+37610+120310FM-12+000599999V0201101N003010075019N0180001N1+02981+02071100891ADDAA106000791GF107991071041008001999999MA1999999100841MD1210141+9999MW1251REMSYN078AAXX  02121 54753 11568 71103 10298 20207 30084 40089 52014 69901 72500 874//;
0132547530999992000092809004+37610+120310FM-12+000599999V0200901N005019999999N0100001N1+01651+01461101521ADDAY161031GF108991081001999999071999MD1210021+9999MW1211REMSYN066AAXX  28091 54753 41960 80905 10165 20146 40152 52002 72160 8807/;
0186547530999992000101000004+37610+120310FM-12+000599999V0200901N002010360019N0080001N1+01241+01151101681ADDAA106009991AY161061GF108991021071004501071999MA1999999101621MD1210071-0101MW1601REMSYN094AAXX  10001 54753 11458 80902 10124 20115 30162 40168 52007 60101 76060 8277/ 333 05156 70103;
0122547530999992000101415004+37610+120310FM-12+000599999V0201601N002012200019N0150001N1+00981+00131102481ADDGA1001+999999999GF100991001001999999001001MD1210051+9999REMSYN054AAXX  14151 54753 42965 01602 10098 20013 40248 52005;
0132547530999992000102103004+37610+120310FM-12+000599999V0201101N003019999999N0040001N1+01501+01411102431ADDAY161031GF108991081001999999071999MD1710011+9999MW1601REMSYN066AAXX  21031 54753 41940 81103 10150 20141 40243 57001 76060 8807/;
0170547530999992000102412004+37610+120310FM-12+000599999V0203601N003010075019N0100001N1+01581+01211102071ADDAA106000791AY161061GF108991081051008001999999MA1999999102011MD1210251+9999MW1601REMSYN078AAXX  24121 54753 11560 83603 10158 20121 30201 40207 52025 69901 76060 885//;
0173547530999992000102800004+37610+120310FM-12+000599999V0209999C000019999999N0100001N1+01131+00711102571ADDAA199000091GF107991071001999999031999MA1999999102511MD1210011+0041REMSYN076AAXX  28001 54753 32960 70000 10113 20071 30251 40257 52001 8703/ 333 05402;EQDQ01  00002PRCP99
0144547530999992000112012004+37610+120310FM-12+000599999V0203401N004012200019N0150001N1+00361-00721102731ADDAA199000021GF102991021041008001001001MA1999999102671MD1210181+9999REMSYN066AAXX  20121 54753 32565 23404 10036 21072 30267 40273 52018 82400;
0191547530999992000120100004+37610+120310FM-12+000599999V0201801N001019999999N0100001N1+00201-00051102741ADDAA199000091GF107991001001999999001021IA2999-00209MA1999999102681MD1210111+0001REMSYN082AAXX  01001 54753 32960 71801 10020 21005 30268 40274 52011 80002 333 00001 31027;EQDQ01  00002PRCP99
0124547530999992000120109004+37610+120310FM-12+000599999V0202201N004010120019N0030001N1+00391+00321102671ADDGF108991081051012501999999MD1710051+9999MW1101REMSYN066AAXX  01091 54753 41630 82204 10039 20032 40267 57005 71000 885//;
0122547530999992000121115004+37610+120310FM-12+000599999V0203201N003012200019N0150001N1-00061-01341103701ADDGA1001+999999999GF100991001001999999001001MD1710081+9999REMSYN054AAXX  11151 54753 42965 03203 11006 21134 40370 57008;
0112547740999992000020409004+37450+122030FM-12+006199999V0201101N002019999999N0290001N1-00071-00391103021ADDGF107991021011999999011081MD1710051+9999REMSYN060AAXX  04091 54774 42979 71102 11007 21039 40302 57005 82118;
0153547760999992000010121004+37400+122680FM-12+004799999V0203201N014010075019N0080001N1+00341+00211101591ADDAA124003691AY181031GF108991081041008001999999MD1210061+9999MW1101REMSYN076AAXX  01211 54776 41558 83214 10034 20021 40159 52006 71080 884// 333 70035;
0112547760999992000010309004+37400+122680FM-12+004799999V0200401N003012200019N0300001N1-00041-00701102441ADDGF101991011041008001001001MD1410001+9999REMSYN060AAXX  03091 54776 42580 10403 11004 21070 40244 54000 81400;
0190547760999992000011518004+37400+122680FM-12+004799999V0203601N009019999999N0300001N1+00061-00781102761ADDAA199000091GF107991001001999999001021KA1999M+00211MA1999999102151MD1410001+9999REMSYN080    AAXX  15181 54776 32980 73609 10006 21078 30215 40276 54000 80002 333 10021;EQDQ01  00002PRCP99
0190547760999992000011618004+37400+122680FM-12+004799999V0203201N010010075019N0300001N1-00171-00671102551ADDAA199000091GF106991061041008001001001KA1999M+00071MA1999999101941MD1710161+9999REMSYN080    AAXX  16181 54776 32580 63210 11017 21067 30194 40255 57016 86400 333 10007;EQDQ01  00002PRCP99
0137547760999992000011821004+37400+122680FM-12+004799999V0203201N013010075019N0300001N1-00581-01221102481ADDAA124000391GF107991071041008001999999MD1210061+9999REMSYN074    AAXX  18211 54776 42580 73213 11058 21122 40248 52006 874// 333 70002;
0112547760999992000012503004+37400+122680FM-12+004799999V0203201N012012200019N0300001N1-00551-01491103831ADDGF102991021041008001001001MD1410001+9999REMSYN060AAXX  25031 54776 42580 23212 11055 21149 40383 54000 82400;
0227547760999992000012700004+37400+122680FM-12+004799999V0203201N011010075019N0300001N1-00371-01011103671ADDAA106000791AY181061GF106991061041008001001001IA2999-00509MA1999999103051MD1210071+0101MW1001OA130601801REMSYN112AAXX  27001 54776 11580 63211 11037 21101 30305 40367 52007 69901 70080 86400 333 00101 31050 79999 91118 91534;
0190547760999992000021418004+37400+122680FM-12+004799999V0203201N007012200019N0300001N1-00281-01251102261ADDAA199000021GF101991011041008001001001KA1240M-00051MA1999999101651MD1710111+9999OA130601901REMSYN088AAXX  14181 54776 32580 13207 11028 21125 30165 40226 57011 81400 333 11005 91119 91532;
