0255723910931112000022716054+34120-119120FM-16+0004KNTD V0201601N005110072019N0064371N1+01201+01001101661ADDGD12991+0036019GD23991+0072019GD33991+0102019GD44991+0300019GF108991999999999999999999MA1101661999999MW1801REMMET085KNTD 271605Z 16010KT 4SM -SHRA BR SCT012 BKN024 BKN034 OVC100 12/10 A3002 RMK SLP166;EQDQ01+000100PRSWM3Q02+000003PRSWM1Q03    003PRSWM1
0463723910931112000030412003+34117-119117FM-15+0003NTD  V0200205N00155220005MN0112005N1+00805+00705101295ADDAA106000591AA224008191GD12995+0457259GF104991999999999999999999GP10060000002000000002000000002000GR100600000900009KA1999M+01111KA2999N+00831MA1101295999999MW1001REMMET120KNTD 041155Z 02003KT 7SM SCT150 08/07 A2991 RMK SLP129 LAG PK 07/04/14007 60002 70032 8/070 T00830072 10111 20083 FIRST;EQDQ01+000000PRSWM2N01 00000JPWTH 0QNNAA1D0 02150BA1 0 02150GA1U0 99999KA1D0 00045JA1 0 00070LA1 0 00700CA1 0 02991NA1 0 00000QA1 0 10129SA1D0 00046RA1 0 00080YA1 0 02003
0445723910931112000031408003+34117-119117FM-15+0003NTD  V0201605N00365220005MN0032005N1+01205+01205101615ADDGD12995+0003059GF104991999999999999999999GP10060000002000000002000000002000GR100600000900009KA1999M+01561KA2999N+00891MA1101635999999MW1101MW2455REMMET102KNTD 140755Z 16007KT 2SM BR SCT001 12/12 A3001 RMK SLP161 LAG PK 18/00/09010 T01170117 401560089 LAST;EQDQ01+000003PRSWM1Q02    003PRSWM1N01 00070JPWTH 0QNNAA1D0 02001BA1 0 02001GA1U0 99999KA1D0 00054JA1 0 00120LA1 0 00200CA1 0 03001NA1 0 00070QA1 0 10161SA1D0 00054RA1 0 00120YA1 0 16007
0054723910931112000031410009+34117-119117NSRDB+000399999V020999999999999999999999999999+99999+99999999999ADDGP10060000002000000002000000002000GR100600000900009
0071723910931112000032419009+34117-119117NSRDB+000399999V020999999999999999999999999999+99999+99999999999ADDGP10060077802008075502015019102008GQ100600390914169GR100601067913759
0601723910931112000032618003+34117-119117FM-15+0003NTD  V0201705N004652200019N0080005N1+01405+01005102275ADDGF100991999999999999999999GP10060064202008068202015018002008GQ100600475912369GR100600927913739KA1999M+01391KA2999N+00671MA1102275999999MD1210101+9999MW1055REMMET108KNTD 261755Z 17009KT 5SM HZ SKC 14/10 A3020 RMK SLP227 LAG PK 10/08/14012 8/000 T01390100 10139 20067 52010;EQDQ01+000003PRSWM1Q02    003PRSWM1N01 00000JALM1 3N02 09000JALC2D3N03 09000JALM2 3N04 09000JALC3D3N05 09000JALM3 3N06 99999CCLHTU3N07 00081JPWTH 0QNNAA1D0 00000BA1 3 00000AA1D3 09000BA1 3 09000AA1D3 09000BA1 3 09000GA1U3 99999KA1D0 00050JA1 0 00100LA1 0 00500CA1 0 03020NA1 0 00081QA1 0 10227SA1D0 00057RA1 0 00140YA1 0 17009
0379723910931112000032705003+34117-119117FM-15+0003NTD  V0209999C00005220005MN0112005N1+01205+01105101955ADDGD12995+0609659GF104991999999999999999999GP10060000002000000002000000002000GR100600000900009MA1101965999999MW1001REMMET084KNTD 270455Z 00000KT 7SM SCT200 12/11 A3011 RMK SLP195 LAG PK 10/05/31013 T01220111;EQDQ01+000000PRSWM2N01 00000JPWTH 0QNNAA1D0 02200BA1 0 02200GA1U0 99999KA1D0 00052JA1 0 00110LA1 0 00700CA1 0 03011NA1 0 00000QA1 0 10195SA1D0 00054RA1 0 00120YA1 0 00000
0441723910931112000032802003+34117-119117FM-15+0003NTD  V0202705N00625220005MN0112005N1+01305+01105101315ADDGD12995+0045759GD22995+0365859GF104991999999999999999999GP10060005002008000002015005002008GQ100600816926819GR100600199913729MA1101325999999MW1001REMMET092KNTD 280155Z 27012KT 7SM SCT015 SCT120 13/11 A2992 RMK SLP131 LAG PK 09/09/28011 T01280111 ;EQDQ01+000000PRSWM2N01 00000JPWTH 0QNNAA1D0 02015BA1 0 02015AA1D0 02120BA1 0 02120GA1U0 99999KA1D0 00052JA1 0 00110LA1 0 00700CA1 0 02992NA1 0 00000QA1 0 10131SA1D0 00055RA1 0 00130YA1 0 27012
0054723910931112000032807009+34117-119117NSRDB+000399999V020999999999999999999999999999+99999+99999999999ADDGP10060000002000000002000000002000GR100600000900009
0526723910931112000040913003+34117-119117FM-15+0003NTD  V0200405N001552200019N0080005N1+00805+00705101505ADDGF100991999999999999999999GP10060000002000000002000000002000GR100600000900009MA1101495999999MW1101MW2455REMMET084KNTD 091255Z 04003KT 5SM BR SKC 08/07 A2997 RMK SLP150 LAG PK 14/03/32003 T00780072;EQDQ01+000003PRSWM1Q02    003PRSWM1N01 00000JALM1 3N02 09000JALC2D3N03 09000JALM2 3N04 09000JALC3D3N05 09000JALM3 3N06 99999CCLHTU3N07 00070JPWTH 0QNNAA1D0 00000BA1 3 00000AA1D3 09000BA1 3 09000AA1D3 09000BA1 3 09000GA1U3 99999KA1D0 00045JA1 0 00070LA1 0 00500CA1 0 02997NA1 0 00070QA1 0 10150SA1D0 00046RA1 0 00080YA1 0 04003
0454723910931112000041214003+34117-119117FM-15+0003NTD  V0201405N00315000151CN0001011N1+01105+01105101865ADDGD19999+0001519GF109991999999000251999999GP10060000002008001102015000002008GQ100600873908099GR100600033906919MA1101865999999MW1455REMMET089KNTD 121355Z VRB04KT 1/16SM FG VV001 11/11 A3008 RMK SLP186 LAG PK 16/03/08004 T01110111;EQDQ01+000003PRSWM1Q02    003PRSWM1N01 00999JALM1 3N02 00100DHZVS 3N03 00070JPWTH 0P01     03SCCGD1QNNAA1D0 00999BA1 3 00999KA1D0 00052JA1 0 00110LA1 3 00100CA1 0 03008NA1 0 00070QA1 0 10186SA1D0 00052RA1 0 00110YA1 0 14006
0054723910931112000041310009+34117-119117NSRDB+000399999V020999999999999999999999999999+99999+99999999999ADDGP10060000002000000002000000002000GR100600000900009
0427723910931112000041705003+34117-119117FM-15+0003NTD  V0201105N00525027435MN0112005N1+01505+01105101585ADDGD12995+0152459GD24995+0274359GF108991999999999999999999GP10060000002000000002000000002000GR100600000900009MA1101595999999MW1001REMMET095KNTD RTD 170455Z 11010KT 7SM SCT050 OVC090 15/11 A3000 RMK SLP158 LAG PK 09/09/15022 T01500106;EQDQ01+000000PRSWM2N01 00000JPWTH 0QNNAA1D0 02050BA1 0 02050AA1D0 06090BA1 0 06090GA1 0 00090KA1D0 00052JA1 0 00110LA1 0 00700CA1 0 03000NA1 0 00000QA1 0 10158SA1D0 00059RA1 0 00150YA1 0 11010
0379723910931112000042005003+34117-119117FM-15+0003NTD  V0209999C00005220005MN0112005N1+01305+01205101805ADDGD12995+0609659GF104991999999999999999999GP10060000002000000002000000002000GR100600000900009MA1101795999999MW1001REMMET084KNTD 200455Z 00000KT 7SM SCT200 13/12 A3006 RMK SLP180 LAG PK 13/07/27007 T01280122;EQDQ01+000000PRSWM2N01 00000JPWTH 0QNNAA1D0 02200BA1 0 02200GA1U0 99999KA1D0 00054JA1 0 00120LA1 0 00700CA1 0 03006NA1 0 00000QA1 0 10180SA1D0 00055RA1 0 00130YA1 0 00000
0396723910931112000042219003+34117-119117FM-15+0003NTD  V0202405N00365006105MN0112005N1+01605+01205101965ADDGD13995+0061059GF107991999999999999999999GP10060078802008058402015027702008GQ100600291913379GR100601180913529MA1101965999999MW1001REMMET084KNTD 221855Z 24007KT 7SM BKN020 16/12 A3011 RMK SLP196 LAG PK 09/09/24004 T01560122;EQDQ01+000000PRSWM2N01 00000JPWTH 0QNNAA1D0 04020BA1 0 04020GA1 0 00020KA1D0 00054JA1 0 00120LA1 0 00700CA1 0 03011NA1 0 00000QA1 0 10196SA1D0 00061RA1 0 00160YA1 0 24007
0557723910931112000042600003+34117-119117FM-15+0003NTD  V0202705N004152200019N0112005N1+01805+01405101315ADDGF100991999999999999999999GP10060058002008070802015015102008GQ100600527926079GR100600815913499KA1999M+02111KA2999N+01831MA1101325999999MD1810141+9999MW1001REMMET080KNTD 252355Z 27008KT 7SM SKC 18/14 A2992 RMK SLP131 T01830144 10211 20183 58014;EQDQ01+000000PRSWM2N01 00000JALM1 3N02 09000JALC2D3N03 09000JALM2 3N04 09000JALC3D3N05 09000JALM3 3N06 99999CCLHTU3N07 00000JPWTH 0QNNAA1D0 00000BA1 3 00000AA1D3 09000BA1 3 09000AA1D3 09000BA1 3 09000GA1U3 99999KA1D0 00057JA1 0 00140LA1 0 00700CA1 0 02992NA1 0 00000QA1 0 10131SA1D0 00064RA1 0 00180YA1 0 27008
0054723910931112000042608009+34117-119117NSRDB+000399999V020999999999999999999999999999+99999+99999999999ADDGP10060000002000000002000000002000GR100600000900009
0422723910931112000042817003+34117-119117FM-15+0003NTD  V0202805N00415004575MN0064005N1+01405+01205101565ADDGD14995+0045759GF108991999999999999999999GP10060037102008011102015029902008GQ100600499910049GR100600867913479MA1101565999999MW1101MW2455REMMET088KNTD 281655Z 28008KT 4SM BR OVC015 14/12 A2999 RMK SLP156 LAG PK 09/09/31005 T01440122 ;EQDQ01+000003PRSWM1Q02    003PRSWM1N01 00070JPWTH 0QNNAA1D0 06015BA1 0 06015GA1 0 00015KA1D0 00054JA1 0 00120LA1 0 00400CA1 0 02999NA1 0 00070QA1 0 10156SA1D0 00057RA1 0 00140YA1 0 28008
0440723910931112000050701003+34117-119117FM-15+0003NTD  V0202605N00415008535MN0112005N1+01605+01305101515ADDGD13995+0085359GD23995+0548659GF107991999999999999999999GP10060030402008019102015022002008GQ100600636927329GR100600594913429MA1101525999999MW1001REMMET091KNTD 070055Z 26008KT 7SM BKN028 BKN180 16/13 A2998 RMK SLP151 LAG PK 11/10/28010 T01560133;EQDQ01+000000PRSWM2N01 00000JPWTH 0QNNAA1D0 04028BA1 0 04028AA1D0 04180BA1 0 04180GA1 0 00028KA1D0 00055JA1 0 00130LA1 0 00700CA1 0 02998NA1 0 00000QA1 0 10151SA1D0 00061RA1 0 00160YA1 0 26008
0501723910931112000051105003+34117-119117FM-15+0003NTD  V0202805N005752200019N0112005N1+01305+01105101205ADDGF100991999999999999999999GP10060000002000000002000000002000GR100600000900009MA1101525999999MW1001REMMET081KNTD 110455Z 28011KT 7SM SKC 13/11 A2998 RMK SLP120 LAG PK 09/08/32012 T01330106;EQDQ01+000000PRSWM2N01 00000JALM1 3N02 09000JALC2D3N03 09000JALM2 3N04 09000JALC3D3N05 09000JALM3 3N06 99999CCLHTU3N07 00000JPWTH 0QNNAA1D0 00000BA1 3 00000AA1D3 09000BA1 3 09000AA1D3 09000BA1 3 09000GA1U3 99999KA1D0 00052JA1 0 00110LA1 0 00700CA1 0 02998NA1 0 00000QA1 0 10120SA1D0 00055RA1 0 00130YA1 0 28011
0513723910931112000051216003+34117-119117FM-15+0003NTD  V0200705N006252200019N0112005N1+02205+00205101735ADDGF100991999999999999999999GP10060044602008067002015011102008GQ100600600908739GR100600668913389MA1101735999999MW1001REMMET076KNTD 121555Z 07012KT 7SM SKC 22/02 A3004 RMK SLP173 RMK SLP173 T02220022 NN;EQDQ01+000000PRSWM2N01 00000JALM1 3N02 09000JALC2D3N03 09000JALM2 3N04 09000JALC3D3N05 09000JALM3 3N06 99999CCLHTU3N07 00000JPWTH 0QNNAA1D0 00000BA1 3 00000AA1D3 09000BA1 3 09000AA1D3 09000BA1 3 09000GA1U3 99999KA1D0 00036JA1 0 00020LA1 0 00700CA1 0 03004NA1 0 00000QA1 0 10173SA1D0 00072RA1 0 00220YA1 0 07012
0519723910931112000051222003+34117-119117FM-15+0003NTD  V0202405N004152200019N0112005N1+02005+00605101725ADDGF100991999999999999999999GP10060086602008068502015025402008GQ100600268923969GR100601192913389MA1101735999999MW1001REMMET082KNTD 122155Z 24008KT 7SM SKC 20/06 A3004 RMK SLP172 LAG PK 17/M02/22004 T02000056;EQDQ01+000000PRSWM2N01 00000JALM1 3N02 09000JALC2D3N03 09000JALM2 3N04 09000JALC3D3N05 09000JALM3 3N06 99999CCLHTU3N07 00000JPWTH 0QNNAA1D0 00000BA1 3 00000AA1D3 09000BA1 3 09000AA1D3 09000BA1 3 09000GA1U3 99999KA1D0 00043JA1 0 00060LA1 0 00700CA1 0 03004NA1 0 00000QA1 0 10172SA1D0 00068RA1 0 00200YA1 0 24008
0071723910931112000051319009+34117-119117NSRDB+000399999V020999999999999999999999999999+99999+99999999999ADDGP10060091302008075802015022102008GQ100600242912569GR100601218913379
0543723910931112000060404003+34117-119117FM-15+0003NTD  V0203305N002652200019N0080005N1+01505+01405101685ADDGF100991999999999999999999GP10060000002008000002015000002008GQ100600897929779GR100600000900559MA1101695999999MW1101MW2455REMMET084KNTD 040355Z 33005KT 5SM BR SKC 15/14 A3003 RMK SLP168 LAG PK 12/12/34007 T01500139;EQDQ01+000003PRSWM1Q02    003PRSWM1N01 00000JALM1 3N02 09000JALC2D3N03 09000JALM2 3N04 09000JALC3D3N05 09000JALM3 3N06 99999CCLHTU3N07 00070JPWTH 0QNNAA1D0 00000BA1 3 00000AA1D3 09000BA1 3 09000AA1D3 09000BA1 3 09000GA1U3 99999KA1D0 00057JA1 0 00140LA1 0 00500CA1 0 03003NA1 0 00070QA1 0 10168SA1D0 00059RA1 0 00150YA1 0 33005
0423723910931112000060412003+34117-119117FM-15+0003NTD  V0200505N00155220005MN0112005N1+01305+01305101555ADDGD12995+0030559GF102991999999999999999999GP10060000002000000002000000002000GR100600000900009KA1999M+01441KA2999N+00941MA1101565999999MW1001REMMET102KNTD 041155Z 05003KT 7SM FEW010 13/13 A2999 RMK SLP155 LAG PK 17/07/27003 8/600 T01280128 10144 20094;EQDQ01+000000PRSWM2N01 00000JPWTH 0QNNAA1D0 02010BA1 0 02010GA1U0 99999KA1D0 00055JA1 0 00130LA1 0 00700CA1 0 02999NA1 0 00000QA1 0 10155SA1D0 00055RA1 0 00130YA1 0 05003
0422723910931112000061215003+34117-119117FM-15+0003NTD  V0209999C00005220005MN0112005N1+01705+01405101405ADDGD12995+0762059GF104991999999999999999999GP10060026202008042602015012002008GQ100600705907469GR100600440913249MA1101395999999MD1210121+9999MW1001REMMET096KNTD 121455Z 00000KT 7SM SCT250 17/14 A2994 RMK SLP140 LAG PK 14/12/00000 8/001 T01720144 52012;EQDQ01+000000PRSWM2N01 00000JPWTH 0QNNAA1D0 02250BA1 0 02250GA1U0 99999KA1D0 00057JA1 0 00140LA1 0 00700CA1 0 02994NA1 0 00000QA1 0 10140SA1D0 00063RA1 0 00170YA1 0 00000
0420723910931112000061307003+34117-119117FM-15+0003NTD  V0209999C00005220005MN0112005N1+01605+01405101075ADDGD12995+0609659GF102991999999999999999999GP10060000002000000002000000002000GR100600000900009KA1999M+02221KA2999N+01001MA1101085999999MW1001REMMET099KNTD 130655Z 00000KT 7SM FEW200 16/14 A2985 RMK SLP107 LAG PK 22/01/02004 T01560139 402220100 LAST;EQDQ01+000000PRSWM2N01 00000JPWTH 0QNNAA1D0 02200BA1 0 02200GA1U0 99999KA1D0 00057JA1 0 00140LA1 0 00700CA1 0 02985NA1 0 00000QA1 0 10107SA1D0 00061RA1 0 00160YA1 0 00000
0415723910931112000061522003+34117-119117FM-15+0003NTD  V0202405N00365003665MN0064005N1+02105+01805101145ADDGD13995+0036659GF107991999999999999999999GP10060095502008076902015024702008GQ100600230924759GR100601216913249MA1101155999999MW1055REMMET087KNTD 152155Z 24007KT 4SM HZ BKN012 21/18 A2987 RMK SLP114 LAG PK 16/15/22007 T02110178;EQDQ01+000003PRSWM1Q02    003PRSWM1N01 00081JPWTH 0QNNAA1D0 04012BA1 0 04012GA1 0 00012KA1D0 00064JA1 0 00180LA1 0 00400CA1 0 02987NA1 0 00081QA1 0 10114SA1D0 00070RA1 0 00210YA1 0 24007
0071723910931112000061701009+34117-119117NSRDB+000399999V020999999999999999999999999999+99999+99999999999ADDGP10060022902008002602015021602008GQ100600596927919GR100600668913239
0421723910931112000062004003+34117-119117FM-15+0003NTD  V0202805N00155220005MN0096005N1+01705+01605101175ADDGD12995+0030559GF104991999999999999999999GP10060000002008000002015000002008GQ100600893929859GR100600003902099MA1101195999999MW1101MW2455REMMET087KNTD 020355Z 28003KT 6SM BR SCT010 17/16 A2988 RMK SLP117 LAG PK 13/13/31008 T01720161;EQDQ01+000003PRSWM1Q02    003PRSWM1N01 00070JPWTH 0QNNAA1D0 02010BA1 0 02010GA1U0 99999KA1D0 00061JA1 0 00160LA1 0 00600CA1 0 02988NA1 0 00070QA1 0 10117SA1D0 00063RA1 0 00170YA1 0 28003
0503723910931112000062517003+34117-119117FM-15+0003NTD  V0201705N00415220005MN0080005N1+02105+01805101675ADDGD12995+0030559GD22995+0365859GD32995+0609659GF104991999999999999999999GP10060058202008049802015023902008GQ100600466908909GR100600907913229MA1101665999999MW1055REMMET101KNTD 251655Z 17008KT 5SM HZ FEW010 FEW120 SCT200 21/18 A3002 RMK SLP167 LAG PK 17/14/15008 T02110178;EQDQ01+000003PRSWM1Q02    003PRSWM1N01 00081JPWTH 0QNNAA1D0 02010BA1 0 02010AA1D0 02120BA1 0 02120AA1D0 02200BA1 0 02200GA1U0 99999KA1D0 00064JA1 0 00180LA1 0 00500CA1 0 03002NA1 0 00081QA1 0 10167SA1D0 00070RA1 0 00210YA1 0 17008
0421723910931112000062713003+34117-119117FM-15+0003NTD  V0209999C00005001225MN0064005N1+01805+01805101145ADDGD14995+0012259GF108991999999999999999999GP10060000002008000002015000002008GQ100600891906189GR100600004902539MA1101155999999MW1101MW2455REMMET087KNTD 271255Z 00000KT 4SM BR OVC004 18/18 A2987 RMK SLP114 LAG PK 18/13/04003 T01780178;EQDQ01+000003PRSWM1Q02    003PRSWM1N01 00070JPWTH 0QNNAA1D0 06004BA1 0 06004GA1 0 00004KA1D0 00064JA1 0 00180LA1 0 00400CA1 0 02987NA1 0 00070QA1 0 10114SA1D0 00064RA1 0 00180YA1 0 00000
0415723910931112000070122003+34117-119117FM-15+0003NTD  V0202405N00415220005MN0064005N1+02205+01805101385ADDGD12995+0030559GF104991999999999999999999GP10060089002008067202015026902008GQ100600226924579GR100601218913219MA1101395999999MW1055REMMET087KNTD 012155Z 24008KT 4SM HZ SCT010 22/18 A2994 RMK SLP138 LAG PK 15/15/23005 T02220178;EQDQ01+000003PRSWM1Q02    003PRSWM1N01 00081JPWTH 0QNNAA1D0 02010BA1 0 02010GA1U0 99999KA1D0 00064JA1 0 00180LA1 0 00400CA1 0 02994NA1 0 00081QA1 0 10138SA1D0 00072RA1 0 00220YA1 0 24008
0071723910931112000070415009+34117-119117NSRDB+000399999V020999999999999999999999999999+99999+99999999999ADDGP10060013202008004902015011702008GQ100600716907449GR100600416913219
0440723910931112000071201003+34117-119117FM-15+0003NTD  V0202405N00365220005MN0112005N1+01905+01405101495ADDGD12995+0061059GD22995+0609659GF102991999999999999999999GP10060048802008067302015014402008GQ100600593927719GR100600673913229MA1101495999999MW1001REMMET091KNTD 110055Z 24007KT 7SM FEW020 FEW200 19/14 A2997 RMK SLP149 LAG PK 13/12/23007 T01940144;EQDQ01+000000PRSWM2N01 00000JPWTH 0QNNAA1D0 02020BA1 0 02020AA1D0 02200BA1 0 02200GA1U0 99999KA1D0 00057JA1 0 00140LA1 0 00700CA1 0 02997NA1 0 00000QA1 0 10149SA1D0 00066RA1 0 00190YA1 0 24007
0071723910931112000071614009+34117-119117NSRDB+000399999V020999999999999999999999999999+99999+99999999999ADDGP10060001902008000002015001902008GQ100600844906799GR100600129913229
0543723910931112000072004003+34117-119117FM-15+0003NTD  V0203005N003152200019N0096005N1+01605+01405101185ADDGF100991999999999999999999GP10060000002008000002015000002008GQ100600896929529GR100600001900999MA1101195999999MW1101MW2455REMMET084KNTD 200355Z 30006KT 6SM BR SKC 16/14 A2988 RMK SLP118 LAG PK 25/09/33008 T01610139;EQDQ01+000003PRSWM1Q02    003PRSWM1N01 00000JALM1 3N02 09000JALC2D3N03 09000JALM2 3N04 09000JALC3D3N05 09000JALM3 3N06 99999CCLHTU3N07 00070JPWTH 0QNNAA1D0 00000BA1 3 00000AA1D3 09000BA1 3 09000AA1D3 09000BA1 3 09000GA1U3 99999KA1D0 00057JA1 0 00140LA1 0 00600CA1 0 02988NA1 0 00070QA1 0 10118SA1D0 00061RA1 0 00160YA1 0 30006
0449723910931112000072215003+34117-119117FM-15+0003NTD  V0209999C00005000305MN0004005N1+01505+01505101455ADDGD14995+0003059GF108991999999999999999999GP10060018902008031902015009802008GQ100600734907659GR100600378913239MA1101465999999MD1210141+9999MW1441MW2455REMMET101KNTD 221455Z 00000KT 1/4SM FG OVC001 15/15 A2996 RMK SLP145 LAG PK 17/13/08004 8/6// T01500150 52014;EQDQ01+000003PRSWM1Q02    003PRSWM1N01 00070JPWTH 0QNNAA1D0 06001BA1 0 06001GA1 0 00001KA1D0 00059JA1 0 00150LA1 0 00025CA1 0 02996NA1 0 00070QA1 0 10145SA1D0 00059RA1 0 00150YA1 0 00000
0054723910931112000072711009+34117-119117NSRDB+000399999V020999999999999999999999999999+99999+99999999999ADDGP10060000002000000002000000002000GR100600000900009
0492723910931112000072802003+34117-119117FM-15+0003NTD  V0202605N003152200019N0080005N1+01905+01605101235ADDGF100991999999999999999999GP10060027002008045702015013502008GQ100600728928169GR100600391913259MA1101225999999MW1001REMMET082KNTD 280155Z 26006KT 5SM SKC 19/16 A2989 RMK SLP123 LAG PK 18/15/33008 T01940161 ;EQDQ01+000000PRSWM2N01 00000JALM1 3N02 09000JALC2D3N03 09000JALM2 3N04 09000JALC3D3N05 09000JALM3 3N06 99999CCLHTU3QNNAA1D0 00000BA1 3 00000AA1D3 09000BA1 3 09000AA1D3 09000BA1 3 09000GA1U3 99999KA1D0 00061JA1 0 00160LA1 0 00500CA1 0 02989QA1 0 10123SA1D0 00066RA1 0 00190YA1 0 26006
0415723910931112000073119003+34117-119117FM-15+0003NTD  V0201605N00575003665MN0064005N1+02305+01805101275ADDGD13995+0036659GF107991999999999999999999GP10060091302008081602015018002008GQ100600263912269GR100601187913269MA1101295999999MW1055REMMET087KNTD 311855Z 16011KT 4SM HZ BKN012 23/18 A2991 RMK SLP127 LAG PK 20/16/07006 T02280178;EQDQ01+000003PRSWM1Q02    003PRSWM1N01 00081JPWTH 0QNNAA1D0 04012BA1 0 04012GA1 0 00012KA1D0 00064JA1 0 00180LA1 0 00400CA1 0 02991NA1 0 00081QA1 0 10127SA1D0 00073RA1 0 00230YA1 0 16011
0553723910931112000080203003+34117-119117FM-15+0003NTD  V0202705N003650360019N0048005N1+01905+01805101115ADDGA1999+003001091GD12995+0030559GD23995+0365859GD33995+0609659GF107991999999999999999999GP10060003302008022102015001502008GQ100600849928829GR100600109912279MA1101125999999MD1710141+9999MW1101MW2455REMMET126KNTD 020255Z 27007KT 3SM BR SCT010CB BKN120 BKN200 19/18 A2986 RMK CB DSNT E SLP111 LAG PK 26/M07/29004 8/973 T01890178 57014;EQDQ01+000003PRSWM1Q02    003PRSWM1N01 00070JPWTH 0QNNAA1D0 02010BA1 0 02010AA1D0 04120BA1 0 04120AA1D0 04200BA1 0 04200KA1D0 00064JA1 0 00180LA1 0 00300CA1 0 02986NA1 0 00070QA1 0 10111SA1D0 00066RA1 0 00190YA1 0 27007
0449723910931112000080315003+34117-119117FM-15+0003NTD  V0209999C00005011585MN0016005N1+01705+01705101355ADDGD14995+0009159GF108991999999999999999999GP10060008702008001002015008402008GQ100600748907919GR100600348913279MA1101355999999MD1210101+9999MW1101MW2455REMMET101KNTD 031455Z 00000KT 1SM BR OVC003 17/17 A2993 RMK SLP135 LAG PK 19/12/00000 8/6// T01670167 52010 .;EQDQ01+000003PRSWM1Q02    003PRSWM1N01 00070JPWTH 0QNNAA1D0 06003BA1 0 06003GA1 0 00038KA1D0 00063JA1 0 00170LA1 0 00100CA1 0 02993NA1 0 00070QA1 0 10135SA1D0 00063RA1 0 00170YA1 0 00000
0532723910931112000080507003+34117-119117FM-15+0003NTD  V0203105N001552200019N0112005N1+01605+01605101385ADDGF100991999999999999999999GP10060000002000000002000000002000GR100600000900009KA1999M+02171KA2999N+01501MA1101395999999MW1001REMMET086KNTD 050655Z 31003KT 7SM SKC 16/16 A2994 RMK SLP138 LAG PK 21/13/33014 402170150 LAST;EQDQ01+000000PRSWM2N01 00000JALM1 3N02 09000JALC2D3N03 09000JALM2 3N04 09000JALC3D3N05 09000JALM3 3N06 99999CCLHTU3N07 00000JPWTH 0QNNAA1D0 00000BA1 3 00000AA1D3 09000BA1 3 09000AA1D3 09000BA1 3 09000GA1U3 99999KA1D0 00061JA1 0 00160LA1 0 00700CA1 0 02994NA1 0 00000QA1 0 10138SA1D0 00061RA1 0 00160YA1 0 31003
0441723910931112000080921003+34117-119117FM-15+0003NTD  V0202605N00465220005MN0080005N1+02105+01305101385ADDGD12995+0061059GF102991999999999999999999GP10060089202008060802015031902008GQ100600199919999GR100601250913309MA1101395999999MD1610071+9999MW1055REMMET099KNTD 092055Z 26009KT 5SM HZ FEW020 21/13 A2994 RMK SLP138 LAG PK 21/06/29009 8/100 T02060133 56007;EQDQ01+000003PRSWM1Q02    003PRSWM1N01 00081JPWTH 0QNNAA1D0 02020BA1 0 02020GA1U0 99999KA1D0 00055JA1 0 00130LA1 0 00500CA1 0 02994NA1 0 00081QA1 0 10138SA1D0 00070RA1 0 00210YA1 0 26009
0054723910931112000081008009+34117-119117NSRDB+000399999V020999999999999999999999999999+99999+99999999999ADDGP10060000002000000002000000002000GR100600000900009
0054723910931112000082210009+34117-119117NSRDB+000399999V020999999999999999999999999999+99999+99999999999ADDGP10060000002000000002000000002000GR100600000900009
0515723910931112000082605003+34117-119117FM-15+0003NTD  V02099999999992200019N0096005N1+01705+01605101425ADDGF100991999999999999999999GP10060000002000000002000000002000GR100600000900009MA1101425999999MW1101MW2455REMMET084KNTD 260455Z VRB03KT 6SM BR SKC 17/16 A2995 RMK SLP142 LAG PK 20/06/02005 T01670156;EQDQ01+000003PRSWM1Q02    003PRSWM1N01 00000JALM1 3N02 09000JALC2D3N03 09000JALM2 3N04 09000JALC3D3N05 09000JALM3 3N06 99999CCLHTU3N07 00070JPWTH 0QNNAA1D0 00000BA1 3 00000AA1D3 09000BA1 3 09000AA1D3 09000BA1 3 09000GA1U3 99999KA1D0 00061JA1 0 00160LA1 0 00600CA1 0 02995NA1 0 00070QA1 0 10142SA1D0 00063RA1 0 00170
0485723910931112000082818003+34117-119117FM-15+0003NTD  V0203205N00465032925MN0112005N1+01905+01205101415ADDGD13995+0030559GD23995+0609659GF107991999999999999999999GP10060049302008020102015034302008GQ100600419911779GR100600996913409KA1999M+01891KA2999N+01391MA1101465999999MD1210071+9999MW1001REMMET096KNTD 281755Z 32009KT 7SM BKN010 BKN200 19/12 A2996 RMK SLP141 8/501 T01890122 10189 20139 52007;EQDQ01+000000PRSWM2N01 00000JPWTH 0QNNAA1D0 04010BA1 0 04010AA1D0 04200BA1 0 04200GA1 0 00108KA1D0 00054JA1 0 00120LA1 0 00700CA1 0 02996NA1 0 00000QA1 0 10141SA1D0 00066RA1 0 00190YA1 0 32009
0071723910931112000090303009+34117-119117NSRDB+000399999V020999999999999999999999999999+99999+99999999999ADDGP10060000002008000002015000002008GQ100600882927819GR100600013904149
0054723910931112000090309009+34117-119117NSRDB+000399999V020999999999999999999999999999+99999+99999999999ADDGP10060000002000000002000000002000GR100600000900009
0518723910931112000091202003+34117-119117FM-15+0003NTD  V0203005N002652200019N0112005N1+01905+01405101195ADDGF100991999999999999999999GP10060000002008000002015000002008GQ100600828927029GR100600168913499MA1101195999999MW1001REMMET081KNTD 120155Z 30005KT 7SM SKC 19/14 A2988 RMK SLP119 LAG PK 23/03/32006 T01870139;EQDQ01+000000PRSWM2N01 00000JALM1 3N02 09000JALC2D3N03 09000JALM2 3N04 09000JALC3D3N05 09000JALM3 3N06 99999CCLHTU3N07 00000JPWTH 0QNNAA1D0 00000BA1 3 00000AA1D3 09000BA1 3 09000AA1D3 09000BA1 3 09000GA1U3 99999KA1D0 00057JA1 0 00140LA1 0 00700CA1 0 02988NA1 0 00000QA1 0 10119SA1D0 00066RA1 0 00190YA1 0 30005
0479723910931112000091221003+34117-119117FM-15+0003NTD  V0203205N00365070105MN0112005N1+02305+01405101085ADDGD12995+0548659GD23995+0701059GF107991999999999999999999GP10060059702008021702015041102008GQ100600318919799GR100601148913509MA1101085999999MD1710101+9999MW1001REMMET116KNTD 122055Z 32007KT 7SM SCT180 BKN230 23/14 A2985 RMK SLP108 LAG PK 31/M05/00000 8/008 T02330144 57010 RADAT 42162;EQDQ01+000000PRSWM2N01 00000JPWTH 0QNNAA1D0 02180BA1 0 02180AA1D0 04230BA1 0 04230GA1 0 00230KA1D0 00057JA1 0 00140LA1 0 00700CA1 0 02985NA1 0 00000QA1 0 10108SA1D0 00073RA1 0 00230YA1 0 32007
0054723910931112000091511009+34117-119117NSRDB+000399999V020999999999999999999999999999+99999+99999999999ADDGP10060000002000000002000000002000GR100600000900009
0171723910931112000092200394+34110-119110FM-16+0004KNTD V0202301N002110096019N0112651N1+01901+01501100601ADDGD12991+0045019GD23991+0096019GF107991999999999999999999MA1100611999999MW1001REMMET063KNTD 220039Z 23004KT 7SM SCT015 BKN032 19/15 A2971 RMK SLP060 ;EQDQ01+000000PRSWM2
0164723910931112000092313424+34110-119110FM-16+0004KNTD V0209999C000010090019N0112651N1+99999+99999101151ADDGD12991+0030019GD23991+0090019GF107991999999999999999999MA1101151999999MW1001REMMET056KNTD 231342Z 00000KT 7SM SCT010 BKN030 A2987 RMK SLP115;EQDQ01+000000PRSWM2
0460723910931112000092700003+34117-119117FM-15+0003NTD  V0202805N00625220005MN0112005N1+02105+01605101315ADDGD12995+0426759GF104991999999999999999999GP10060038502008057302015012702008GQ100600632924759GR100600613913619KA1999M+02391KA2999N+02061MA1101325999999MD1810081+9999MW1001REMMET108KNTD 262355Z 28012KT 7SM SCT140 21/16 A2992 RMK SLP131 LAG PK 17/14/30013 8/010 T02060161 10239 20206 58008;EQDQ01+000000PRSWM2N01 00000JPWTH 0QNNAA1D0 02140BA1 0 02140GA1U0 99999KA1D0 00061JA1 0 00160LA1 0 00700CA1 0 02992NA1 0 00000QA1 0 10131SA1D0 00070RA1 0 00210YA1 0 28012
0054723910931112000092710009+34117-119117NSRDB+000399999V020999999999999999999999999999+99999+99999999999ADDGP10060000002000000002000000002000GR100600000900009
0466723910931112000092717003+34117-119117FM-15+0003NTD  V0200405N00215005185MN0080005N1+02005+01605101775ADDGD13995+0051859GD24995+0067159GF108991999999999999999999GP10060025102008004602015022702008GQ100600587911769GR100600707913619MA1101765999999MW1101MW2455REMMET095KNTD 271655Z 04004KT 5SM BR BKN017 OVC022 20/16 A3005 RMK SLP177 LAG PK 15/15/00000 T020000156;EQDQ01+000003PRSWM1Q02    003PRSWM1N01 00070JPWTH 0QNNAA1D0 04017BA1 0 04017AA1D0 06022BA1 0 06022GA1 0 00017KA1D0 00061JA1 0 00160LA1 0 00500CA1 0 03005NA1 0 00070QA1 0 10177SA1D0 00068RA1 0 00200YA1 0 04004
0537723910931112000093002003+34117-119117FM-15+0003NTD  V0202805N002152200019N0064005N1+01705+01405100985ADDGF100991999999999999999999GP10060001002008011502015000602008GQ100600861926409GR100600065909439MA1100985999999MW1055REMMET084KNTD 300155Z 28004KT 4SM HZ SKC 17/14 A2982 RMK SLP098 LAG PK 14/13/29010 T01720144;EQDQ01+000003PRSWM1Q02    003PRSWM1N01 00000JALM1 3N02 09000JALC2D3N03 09000JALM2 3N04 09000JALC3D3N05 09000JALM3 3N06 99999CCLHTU3N07 00081JPWTH 0QNNAA1D0 00000BA1 3 00000AA1D3 09000BA1 3 09000AA1D3 09000BA1 3 09000GA1U3 99999KA1D0 00057JA1 0 00140LA1 0 00400CA1 0 02982NA1 0 00081QA1 0 10098SA1D0 00063RA1 0 00170YA1 0 28004
0301723910931112000100107003+34110-119110FM-15+0004KNTD V0209999C000010048019N0112651N1+01801+01601101131ADDGD14991+0048019GF108991999999999999999999GP10060000002000000002000000002000GR100600000900009KA1999M+99999KA2999N+99999MA1101121999999MW1001REMMET099KNTD 010655Z 00000KT 7SM OVC016 18/16 A2986 RMK SLP113 LAG PK 13/13/10004 T01830156 402110117 LAST;EQDQ01+000000PRSWM2Q02 +00043ATMM  Q03 +01173ATMM  
0421723910931112000100516003+34117-119117FM-15+0003NTD  V0203405N00215220005MN0096005N1+01805+01505101275ADDGD12995+0061059GF104991999999999999999999GP10060024802008049502015009102008GQ100600715910989GR100600433913689MA1101295999999MW1101MW2455REMMET087KNTD 051555Z 34004KT 6SM BR SCT020 18/15 A2991 RMK SLP127 LAG PK 12/12/30003 T01830150;EQDQ01+000003PRSWM1Q02    003PRSWM1N01 00070JPWTH 0QNNAA1D0 02020BA1 0 02020GA1U0 99999KA1D0 00059JA1 0 00150LA1 0 00600CA1 0 02991NA1 0 00070QA1 0 10127SA1D0 00064RA1 0 00180YA1 0 34004
0415723910931112000100519003+34117-119117FM-15+0003NTD  V0202805N00465220005MN0080005N1+02205+01405101255ADDGD12995+0094559GF102991999999999999999999GP10060069402008063102015023202008GQ100600431915239GR100600998913689MA1101255999999MW1055REMMET087KNTD 051855Z 28009KT 5SM HZ FEW030 22/14 A2990 RMK SLP125 LAG PK 15/14/28008 T02170144;EQDQ01+000003PRSWM1Q02    003PRSWM1N01 00081JPWTH 0QNNAA1D0 02031BA1 0 02031GA1U0 99999KA1D0 00057JA1 0 00140LA1 0 00500CA1 0 02990NA1 0 00081QA1 0 10125SA1D0 00072RA1 0 00220YA1 0 28009
0566723910931112000100618003+34117-119117FM-15+0003NTD  V0209999C00005003055MN0048005N1+01805+01605101335ADDAA101000021AA206000391GD13995+0030559GD24995+0057959GF108991999999999999999999GP10060012502008000002015012502008GQ100600508913489GR100600865913699KA1999M+01831KA2999N+01611MA1101325999999MD1210081+9999MW1101MW2515REMMET133KNTD 061755Z 00000KT 3SM -DZBR BKN010 OVC019 18/16 A2992 RMK SLP133 LAG PK 13/13/16004 P0000 60001 8/6// T01830161 10183 20161 52008;EQDQ01+000003PRSWM1Q02    003PRSWM1N01 00033JPWTH 0QNNAA1D0 04010BA1 0 04010AA1D0 06019BA1 0 06019GA1 0 00010KA1D0 00061JA1 0 00160LA1 0 00300CA1 0 02992NA1 0 00033QA1 0 10133SA1D0 00064RA1 0 00180YA1 0 00000
0471723910931112000100919003+34117-119117FM-15+0003NTD  V0202505N00215007015MN0064005N1+01905+01405101475ADDGD12995+0045759GD24995+0070159GF108991999999999999999999GP10060034402008003002015032302008GQ100600444915359GR100600979913719MA1101465999999MW1101MW2455REMMET100KNTD 091855Z 25004KT 4SM BR SCT015 OVC023 19/14 A2996 RMK SLP147 LAG PK 12/12/00000 T01890139 FIRST;EQDQ01+000003PRSWM1Q02    003PRSWM1N01 00070JPWTH 0QNNAA1D0 02015BA1 0 02015AA1D0 06023BA1 0 06023GA1 0 00023KA1D0 00057JA1 0 00140LA1 0 00400CA1 0 02996NA1 0 00070QA1 0 10147SA1D0 00066RA1 0 00190YA1 0 25004
0516723910931112000101119003+34117-119117FM-15+0003NTD  V0202305N00365010675MN0112005N1+01705+01105101525ADDGA1999+010501021GD12995+0054959GD23995+0106759GD33995+0548659GF107991999999999999999999GP10060037802008006502015033202008GQ100600451915419GR100600969913739MA1101525999999MW1001REMMET114KNTD 111858Z COR 23007KT 7SM SCT018 BKN035TCU BKN180 17/11 A2998 RMK TCU NE-E SLP152 LAG PK 11/10/25007 T01720111;EQDQ01+000000PRSWM2N01 00000JPWTH 0QNNAA1D0 02018BA1 0 02018AA1D0 04035BA1 0 04035AA1D0 04180BA1 0 04180GA1 0 00035KA1D0 00052JA1 0 00110LA1 0 00700CA1 0 02998NA1 0 00000QA1 0 10152SA1D0 00063RA1 0 00170YA1 0 23007
0484723910931112000101122003+34117-119117FM-15+0003NTD  V0202505N00575054865MN0112005N1+01805+01105101455ADDGD12995+0094559GD22995+0243859GD33995+0548659GF107991999999999999999999GP10060057502008049702015024602008GQ100600487921639GR100600905913739MA1101465999999MW1001REMMET098KNTD 112155Z 25011KT 7SM SCT030 SCT080 BKN180 18/11 A2996 RMK SLP145 LAG PK 14/09/27009 T01780106;EQDQ01+000000PRSWM2N01 00000JPWTH 0QNNAA1D0 02031BA1 0 02031AA1D0 02080BA1 0 02080AA1D0 04180BA1 0 04180GA1 0 00180KA1D0 00052JA1 0 00110LA1 0 00700CA1 0 02996NA1 0 00000QA1 0 10145SA1D0 00064RA1 0 00180YA1 0 25011
0243723910931112000102700054+34110-119110FM-16+0004KNTD V0201301N005710120019N0080461N1+01501+01301101001ADDGD12991+0042019GD22991+0075019GD33991+0120019GD43991+0270019GF107991999999999999999999MA1100981999999MW1101MW2611REMMET083KNTD 270005Z 13011KT 5SM -RABR FEW014 SCT025 BKN040 BKN090 15/13 A2982 RMK SLP100 ;EQDQ01+000003PRSWM1Q02    003PRSWM1
0423723910931112000102914003+34117-119117FM-15+0003NTD  V0200205N00155009455MN0112005N1+01305+01205101885ADDGD13995+0094559GD24995+0106759GF108991999999999999999999GP10060000002000000002000000002000GR100600000900009MA1101905999999MW1001REMMET091KNTD 291355Z 02003KT 7SM BKN030 OVC035 13/12 A3009 RMK SLP188 LAG PK 10/10/16008 T01280117;EQDQ01+000000PRSWM2N01 00000JPWTH 0QNNAA1D0 04031BA1 0 04031AA1D0 06035BA1 0 06035GA1 0 00031KA1D0 00054JA1 0 00120LA1 0 00700CA1 0 03009NA1 0 00000QA1 0 10188SA1D0 00055RA1 0 00130YA1 0 02003
0521723910931112000110903003+34117-119117FM-15+0003NTD  V0209999C000052200019N0112005N1+01205+01205101295ADDGF100991999999999999999999GP10060000002000000002000000002000GR100600000900009MA1101295999999MD1610031+9999MW1001REMMET087KNTD 090255Z 00000KT 7SM SKC 12/12 A2991 RMK SLP129 LAG PK 10/07/26005 T01220117 56003;EQDQ01+000000PRSWM2N01 00000JALM1 3N02 09000JALC2D3N03 09000JALM2 3N04 09000JALC3D3N05 09000JALM3 3N06 99999CCLHTU3N07 00000JPWTH 0QNNAA1D0 00000BA1 3 00000AA1D3 09000BA1 3 09000AA1D3 09000BA1 3 09000GA1U3 99999KA1D0 00054JA1 0 00120LA1 0 00700CA1 0 02991NA1 0 00000QA1 0 10129SA1D0 00054RA1 0 00120YA1 0 00000
0427723910931112000111917003+34117-119117FM-15+0003NTD  V0200205N00215060965MN0112005N1+01305-00205102275ADDGD13995+0609659GF107991999999999999999999GP10060026702008045802015011402008GQ100600706913229GR100600466914019KA1999M+99999MA1102275999999MW1001REMMET086KNTD 191655Z 02004KT 7SM BKN200 13/M02 A3020 RMK SLP227 LAG PK 16/M17/10004 T01281022;EQDQ01+000000PRSWM2Q02 +00042ATMX  N01 00000JPWTH 0QNNAA1D0 04200BA1 0 04200GA1 0 00200KA1D0 00028JA1 0-00020LA1 0 00700CA1 0 03020NA1 0 00000QA1 0 10227SA1D0 00055RA1 0 00130YA1 0 02004
0421723910931112000112108003+34117-119117FM-15+0003NTD  V0203605N00315054865MN0112005N1+01205+00605101685ADDGD13995+0548659GF107991999999999999999999GP10060000002000000002000000002000GR100600000900009KA1999M+01331KA2999N+01221MA1101695999999MW1001REMMET100KNTD 210755Z 36006KT 7SM BKN180 12/06 A3003 RMK SLP168 LAG PK 18/M15/06016 T01220056 401330122 LAST;EQDQ01+000000PRSWM2N01 00000JPWTH 0QNNAA1D0 04180BA1 0 04180GA1 0 00180KA1D0 00043JA1 0 00060LA1 0 00700CA1 0 03003NA1 0 00000QA1 0 10168SA1D0 00054RA1 0 00120YA1 0 36006
0397723910931112000112223003+34117-119117FM-15+0003NTD  V0202705N00725220005MN0112005N1+01605+01005101685ADDGD12995+0137259GF102991999999999999999999GP10060037702008074202015009202008GQ100600675922259GR100600537914039MA1101695999999MW1001REMMET085KNTD 222255Z 27014KT 7SM FEW045 16/10 A3003 RMK SLP168 LAG PK 11/08/29016 T01610100 ;EQDQ01+000000PRSWM2N01 00000JPWTH 0QNNAA1D0 02045BA1 0 02045GA1U0 99999KA1D0 00050JA1 0 00100LA1 0 00700CA1 0 03003NA1 0 00000QA1 0 10168SA1D0 00061RA1 0 00160YA1 0 27014
0071723910931112000112322009+34117-119117NSRDB+000399999V020999999999999999999999999999+99999+99999999999ADDGP10060046402008061502015015902008GQ100600604920899GR100600693914039
0071723910931112000112323009+34117-119117NSRDB+000399999V020999999999999999999999999999+99999+99999999999ADDGP10060034502008053402015014102008GQ100600676922239GR100600534914039
0548723910931112000112718003+34117-119117FM-15+0003NTD  V0201405N00215220005MN0112005N1+01405+01105101825ADDGD12995+0030559GD22995+0304859GD32995+0609659GF104991999999999999999999GP10060035402008050402015013202008GQ100600640914519GR100600616914059KA1999M+01441KA2999N+00331MA1101835999999MD1110021+9999MW1001REMMET122KNTD 271755Z 14004KT 7SM FEW010 SCT100 SCT200 14/11 A3007 RMK SLP182 LAG PK 18/00/06002 8/531 T01440106 10144 20033 51002;EQDQ01+000000PRSWM2N01 00000JPWTH 0QNNAA1D0 02010BA1 0 02010AA1D0 02100BA1 0 02100AA1D0 02200BA1 0 02200GA1U0 99999KA1D0 00052JA1 0 00110LA1 0 00700CA1 0 03007NA1 0 00000QA1 0 10182SA1D0 00057RA1 0 00140YA1 0 14004
0054723910931112000120209009+34117-119117NSRDB+000399999V020999999999999999999999999999+99999+99999999999ADDGP10060000002000000002000000002000GR100600000900009
0168723910931112000120217354+34110-119110FM-16+0004KNTD V0209999C00001000151CN0004021N1+01101+01101101821ADDGD15991+0001519GF109991999999000251999999MA1101831999999MW1451REMMET059KNTD 021735Z 00000KT 1/4SM FG VV001 11/11 A3007 RMK SLP182;EQDQ01+000003PRSWM1Q02    003PRSWM1
0167723910931112000120319154+34110-119110FM-16+0004KNTD V0201801N002612200019N0032181N1+01501+01101102041ADDGD12991+0036019GF104991999999999999999999MA1102031999999MW1101REMMET058KNTD 031915Z 18005KT 2SM BR SCT012 15/11 A3013 RMK SLP204;EQDQ01+000003PRSWM1Q02    003PRSWM1
0441723910931112000120821003+34117-119117FM-15+0003NTD  V0202205N00155007625MN0080005N1+01605+01205101615ADDGD14995+0076259GF108991999999999999999999GP10060008902008000002015008902008GQ100600579919129GR100600750914109MA1101635999999MD1710101+9999MW1055REMMET099KNTD 082055Z 22003KT 5SM HZ OVC025 16/12 A3001 RMK SLP161 LAG PK 11/11/19003 8/5// T01610130 57010;EQDQ01+000003PRSWM1Q02    003PRSWM1N01 00081JPWTH 0QNNAA1D0 06025BA1 0 06025GA1 0 00025KA1D0 00054JA1 0 00120LA1 0 00500CA1 0 03001NA1 0 00081QA1 0 10161SA1D0 00061RA1 0 00160YA1 0 22003
0408723910931112000121219003+34117-119117FM-15+0003NTD  V0202705N01135220005MN0112005N1+01605+00805101315ADDGD12995+0045759GF104991999999999999999999GP10060049702008078502015010902008GQ100600605915879GR100600696914129MA1101325999999MW1001OC101441REMMET088KNTD 121855Z 27022G28KT 7SM SCT015 16/08 A2992 RMK SLP131 LAG PK 06/05/28016 T01560083 ;EQDQ01+000000PRSWM2N01 00000JPWTH 0QNNAA1D0 02015BA1 0 02015GA1U0 99999KA1D0 00046JA1 0 00080LA1 0 00700CA1 0 02992NA1 0 00000QA1 0 10131SA1D0 00061RA1 0 00160YA1 0 27022
0440723910931112000121323003+34117-119117FM-15+0003NTD  V0202405N00365220005MN0112005N1+01405+00805101975ADDGD12995+0094559GD22995+0609659GF104991999999999999999999GP10060035302008070502015009602008GQ100600687921909GR100600513914129MA1101965999999MW1001REMMET091KNTD 132255Z 24007KT 7SM FEW030 SCT200 14/08 A3011 RMK SLP197 LAG PK 07/04/17005 T01440078;EQDQ01+000000PRSWM2N01 00000JPWTH 0QNNAA1D0 02031BA1 0 02031AA1D0 02200BA1 0 02200GA1U0 99999KA1D0 00046JA1 0 00080LA1 0 00700CA1 0 03011NA1 0 00000QA1 0 10197SA1D0 00057RA1 0 00140YA1 0 24007
0071723910931112000122323009+34117-119117NSRDB+000399999V020999999999999999999999999999+99999+99999999999ADDGP10060034802008064302015010902008GQ100600682921799GR100600524914149
0166723925231902000010115534+34430-119830FM-15+0003KSBA V0202901N006712200019N0160931N1+01201+00401101831ADDGD12991+0105019GD22991+0300019GF104991999999999999999999MA1101831999999MW1001REMMET077KSBA 011553Z 29013KT 10SM SCT035 SCT100 12/04 A3007 RMK AO2 SLP183 T01220039;
0208723925231902000010120534+34430-119830FM-15+0003KSBA V0201501N004110540019N0160931N1+01701+00701101861ADDGD12991+0144019GD22991+0180019GD33991+0540019GF107991999999999999999999MA1101861999999MD1810151+9999MW1001REMMET090KSBA 012053Z 15008KT 10SM SCT048 SCT060 BKN180 17/07 A3008 RMK AO2 SLP186 T01670072 58015;
0071723925231902000010721009+34433-119850NSRDB+000399999V020999999999999999999999999999+99999+99999999999ADDGP10060055002008075702015013902008GQ100600572918679GR100600766914159
0221723925231902000011017534+34430-119830FM-15+0003KSBA V0201401N002112200019N0160931N1+01701+01101102101ADDGD12991+0600019GF102991999999999999999999KA1999M+01721KA2999N+00721MA1102101999999MD1310181+9999MW1001REMMET088KSBA 101753Z 14004KT 10SM FEW200 17/11 A3015 RMK AO2 SLP210 T01720111 10172 20072 53018;EQDQ01+000000PRSWM2
0185723925231902000011504534+34430-119830FM-15+0003KSBA V0209999C000010600019N0160931N1+01301+01101101801ADDGD12991+0450019GD24991+0600019GF108991999999999999999999MA1101831999999MW1001REMMET077KSBA 150453Z 00000KT 10SM SCT150 OVC200 13/11 A3007 RMK AO2 SLP180 T01330106;EQDQ01+000000PRSWM2
0054723925231902000011805009+34433-119850NSRDB+000399999V020999999999999999999999999999+99999+99999999999ADDGP10060000002000000002000000002000GR100600000900009
0644723925231902000011907596+34426-119842SOD  +0006KSBA V020999999999999999999999999999+99999+99999999999ADDAA124000025KA1240M+02445KA2240N+01225MG1101769999994OE11240093927011315OE22240080526011105OE33240019299999995REMSOD52324 HR PRECIPITATION (IN):  T   24 HR MAX TEMP (F): 7624 HR MAX TEMP TIME (LST):1450 24 HR MIN TEMP (F): 5424 HR MIN TEMP TIME (LST):2346 AVERAGE STATION PRESSURE:30.05  PEAK WIND SPEED (MPH): 21 PEAK WIND DIR (DEG):270 PEAK WIND TIME (LST):1131  FASTEST 2MIN SPEED (MPH): 18FASTEST 2MIN DIR (DEG):260 FASTEST 2MIN TIME (LST):1110 AVERAGE WIND SPEED (MPH): 4.3 HOURLY INCREMENTAL PRECIPITATION VALUES (IN):.00  .00  .00  .00  .00  .00  .00   T    T   .00  .00  .00  .00  .00  .00  .00  .00  .00  .00  .00  .00  .00  .00  .00
0210723925231902000012503534+34430-119830FM-15+0003KSBA V0200501N002110270019N0112651N1+01701+01701101711ADDAA101000021GD12991+0210019GD24991+0270019GF108991999999999999999999MA1101731999999MW1001REMMET091KSBA 250353Z 05004KT 7SM FEW070 OVC090 17/17 A3004 RMK AO2 RAB04E49 SLP171 P0000 T01670167;EQDQ01+000000PRSWM2
0290723925231902000012600063+34430-119830FM-16+0003KSBA V0202401N003110015019N0032181N1+01601+01601999999ADDGD13991+0015019GD24991+0057019GF108991999999999999999999GP10060005502008000002015005502008GQ100600712922949GR100600454914119MA1101691999999MW1611REMMET082KSBA 260006Z 24006KT 2SM -RA BR BKN005 OVC019 16/16 A3003 RMK AO2 TWR VIS 6 P0001;EQDQ01+000100PRSWM3Q02+000003PRSWM1Q03    003PRSWM1
0071723925231902000012616009+34433-119850NSRDB+000399999V020999999999999999999999999999+99999+99999999999ADDGP10060004002008032302015001402008GQ100600851911679GR100600116913529
0054723925231902000012706009+34433-119850NSRDB+000399999V020999999999999999999999999999+99999+99999999999ADDGP10060000002000000002000000002000GR100600000900009
0243723925231902000013005534+34430-119830FM-15+0003KSBA V0200401N001510270019N0160931N1+01201+01201101931ADDGD12991+0063019GD24991+0270019GF108991999999999999999999KA1999M+01561KA2999N+01111MA1101931999999MD1110181+9999MW1001REMMET095KSBA 300553Z 04003KT 10SM SCT021 OVC090 12/12 A3010 RMK AO2 SLP193 T01170117 10156 20111 51018;EQDQ01+000000PRSWM2
0187723925231902000020722534+34430-119830FM-15+0003KSBA V0202501N003610600019N0160931N1+01601+01201102231ADDGD12991+0510019GD24991+0600019GF108991999999999999999999MA1102241999999MW1001REMMET079KSBA 072253Z 25007KT 10SM FEW170 OVC200 16/12 A3019 RMK AO2 SLP223 T01610117 $;EQDQ01+000000PRSWM2
0182723925231902000020908534+34430-119830FM-15+0003KSBA V0209999C000010270019N0128741N1+01401+01101101781ADDGD13991+0270019GF107991999999999999999999MA1101801999999MD1610171+9999MW1001REMMET075KSBA 090853Z 00000KT 8SM BKN090 14/11 A3006 RMK AO2 SLP178 T01390111 56017;EQDQ01+000000PRSWM2
0071723925231902000021119009+34433-119850NSRDB+000399999V020999999999999999999999999999+99999+99999999999ADDGP10060031502008008302015026702008GQ100600545914879GR100600815914049
0200723925231902000021205174+34430-119830FM-16+0003KSBA V0201201N006210075019N0096561N1+01401+01001999999ADDGD12991+0057019GD24991+0075019GF108991999999999999999999MA1101591999999MW1611REMMET076KSBA 120517Z 12012KT 6SM -RA SCT019 OVC025 14/10 A3000 RMK AO2 PRESFR P0004;EQDQ01+000003PRSWM1Q02    003PRSWM1
0203723925231902000021516184+34430-119830FM-16+0003KSBA V0209999C000010600019N0160931N1+01301+01001999999ADDGD12991+0015019GD22991+0030019GD33991+0600019GF107991999999999999999999MA1102171999999MW1001REMMET080KSBA 151618Z 00000KT 10SM FEW005 SCT010 BKN200 13/10 A3017 RMK AO2 FG BANK E-SW;EQDQ01+000000PRSWM2
0205723925231902000021720534+34430-119830FM-15+0003KSBA V0202701N005712200019N0160931N1+01901+00401101801ADDGD12991+0120019GD22991+0600019GF104991999999999999999999MA1101801999999MD1810181+9999MW1001REMMET083KSBA 172053Z 27011KT 10SM FEW040 SCT200 19/04 A3006 RMK AO2 SLP180 T01940039 58018;EQDQ01+000000PRSWM2
0185723925231902000022506534+34430-119830FM-15+0003KSBA V0200101N002110135019N0112651N1+01201+00401101981ADDAA101000021GD14991+0135019GF108991999999999999999999MA1102001999999MW1001REMMET081KSBA 250653Z 01004KT 7SM OVC045 12/04 A3012 RMK AO2 RAE00 SLP198 P0000 T01170044;EQDQ01+000000PRSWM2
0071723925231902000022822009+34433-119850NSRDB+000399999V020999999999999999999999999999+99999+99999999999ADDGP10060047302008020102015033402008GQ100600464920719GR100600961913949
0685723925231902000030207596+34426-119842SOD  +0006KSBA V020999999999999999999999999999+99999+99999999999ADDAA124000095KA1240M+01895KA2240N+00566MG1101739999994OE11240071513013035OE22240062612013095OE33240016199999995REMSOD54524 HR PRECIPITATION (IN): 0.00 24 HR MAX TEMP (F): 6624 HR MAX TEMP TIME (LST):1215 24 HR MIN TEMP (F): 4224 HR MIN TEMP TIME (LST):0653 AVERAGE STATION PRESSURE:30.04  PEAK WIND SPEED (MPH): 16 PEAK WIND DIR (DEG):130 PEAK WIND TIME (LST):1303  FASTEST 2MIN SPEED (MPH): 14FASTEST 2MIN DIR (DEG):120 FASTEST 2MIN TIME (LST):1309 AVERAGE WIND SPEED (MPH): 3.6 24 HR AVG TEMP (F):54 HOURLY INCREMENTAL PRECIPITATION VALUES (IN):.00  .00  .00  .00  .00  .00  .01  .00  .00  .00  .00  .00  .00  .00  .00  .00  .00  .00  .00  .00  .00  .00  .00  .00EQDR01    427KAN014
0282723925231902000030402534+34430-119830FM-15+0003KSBA V0209999C000010180019N0112651N1+01301+01001101381ADDAA101001591AA203002591GD12991+0126019GD22991+0150019GD34991+0180019GF108991999999999999999999MA1101391999999MD1310081+9999MW1611REMMET107KSBA 040253Z 00000KT 7SM -RA FEW042 SCT050 OVC060 13/10 A2994 RMK AO2 SLP138 P0006 60010 T01330100 53008 $;EQDQ01+000003PRSWM1Q02    003PRSWM1
0054723925231902000030806009+34433-119850NSRDB+000399999V020999999999999999999999999999+99999+99999999999ADDGP10060000002000000002000000002000GR100600000900009
0054723925231902000030912009+34433-119850NSRDB+000399999V020999999999999999999999999999+99999+99999999999ADDGP10060000002000000002000000002000GR100600000900009
0071723925231902000031117009+34433-119850NSRDB+000399999V020999999999999999999999999999+99999+99999999999ADDGP10060040102008068802015009802008GQ100600639911479GR100600609913859
0054723925231902000031208009+34433-119850NSRDB+000399999V020999999999999999999999999999+99999+99999999999ADDGP10060000002000000002000000002000GR100600000900009
0071723925231902000031320009+34433-119850NSRDB+000399999V020999999999999999999999999999+99999+99999999999ADDGP10060083802008086702015015502008GQ100600383916449GR100601086913839
0054723925231902000031407009+34433-119850NSRDB+000399999V020999999999999999999999999999+99999+99999999999ADDGP10060000002000000002000000002000GR100600000900009
0216723925231902000031412043+34430-119830FM-16+0003KSBA V0201401N00311000151CN0004021N1+01201+00901999999ADDGD15991+0001519GF109991999999000251999999GP10060000002000000002000000002000GR100600000900009MA1101521999999MW1051REMMET056KSBA 141204Z 14006KT 1/4SM HZ VV001 12/09 A2998 RMK AO2;EQDQ01+000003PRSWM1Q02    003PRSWM1
0071723925231902000031620009+34433-119850NSRDB+000399999V020999999999999999999999999999+99999+99999999999ADDGP10060033702008006602015028402008GQ100600371916439GR100601101913819
0054723925231902000031708009+34433-119850NSRDB+000399999V020999999999999999999999999999+99999+99999999999ADDGP10060000002000000002000000002000GR100600000900009
0163723925231902000031818534+34430-119830FM-15+0003KSBA V02099999999992200019N0160931N1+02301+00701102031ADDGD12991+0600019GF104991999999999999999999MA1102031999999MW1001REMMET070KSBA 181853Z VRB03KT 10SM SCT200 23/07 A3013 RMK AO2 SLP203 T02280072;EQDQ01+000000PRSWM2
0163723925231902000031916534+34430-119830FM-15+0003KSBA V0201401N002112200019N0160931N1+01801+01401101621ADDGD12991+0600019GF102991999999999999999999MA1101631999999MW1001REMMET070KSBA 191653Z 14004KT 10SM FEW200 18/14 A3001 RMK AO2 SLP162 T01780139;EQDQ01+000000PRSWM2
0199723925231902000032307534+34430-119830FM-15+0003KSBA V0200301N002110600019N0160931N1+01201+00601101921ADDGD13991+0600019GF107991999999999999999999KA1999M+02111KA2999N+00781MA1101931999999MW1001REMMET080KSBA 230753Z 03004KT 10SM BKN200 12/06 A3010 RMK AO2 SLP192 T01170061 402110078;EQDQ01+000000PRSWM2
0162723925231902000032412534+34430-119830FM-15+0003KSBA V0200301N002110048019N0112651N1+01301+01001101531ADDGD14991+0048019GF108991999999999999999999MA1101521999999MW1001REMMET069KSBA 241253Z 03004KT 7SM OVC016 13/10 A2998 RMK AO2 SLP153 T01330100;EQDQ01+000000PRSWM2
0054723925231902000032504009+34433-119850NSRDB+000399999V020999999999999999999999999999+99999+99999999999ADDGP10060000002000000002000000002000GR100600000900009
0071723925231902000033101009+34433-119850NSRDB+000399999V020999999999999999999999999999+99999+99999999999ADDGP10060035902008064402015012102008GQ100600684925989GR100600504913709
0144723925231902000033104534+34430-119830FM-15+0003KSBA V0209999C000012200019N0144841N1+01501+01101101541ADDGF100991999999999999999999MA1101561999999MW1001REMMET066KSBA 310453Z 00000KT 9SM CLR 15/11 A2999 RMK AO2 SLP154 T01500106;EQDQ01+000000PRSWM2
0054723925231902000040113009+34433-119850NSRDB+000399999V020999999999999999999999999999+99999+99999999999ADDGP10060000002000000002000000002000GR100600000900009
0185723925231902000040404534+34430-119830FM-15+0003KSBA V0209999C000012200019N0096561N1+01401+01201102171ADDGD12991+0018019GF102991999999999999999999MA1102171999999MW1101REMMET076KSBA 040453Z COR 00000KT 6SM BR FEW006 14/12 A3017 RMK AO2 SLP217 T01440122;EQDQ01+000003PRSWM1Q02    003PRSWM1
0071723925231902000040603009+34433-119850NSRDB+000399999V020999999999999999999999999999+99999+99999999999ADDGP10060000002008000002015000002008GQ100600879927679GR100600019905129
0144723925231902000040604534+34430-119830FM-15+0003KSBA V0200801N003112200019N0128741N1+01501+01201101651ADDGF100991999999999999999999MA1101661999999MW1001REMMET066KSBA 060453Z 08006KT 8SM CLR 15/12 A3002 RMK AO2 SLP165 T01500122;EQDQ01+000000PRSWM2
0185723925231902000040719534+34430-119830FM-15+0003KSBA V0202001N003610750019N0160931N1+01801+01401102001ADDGD12991+0048019GD23991+0750019GF107991999999999999999999MA1102001999999MW1001REMMET077KSBA 071953Z 20007KT 10SM FEW016 BKN250 18/14 A3012 RMK AO2 SLP200 T01830139;EQDQ01+000000PRSWM2
0241723925231902000041217534+34430-119830FM-15+0003KSBA V0201601N001510009019N0008051N1+01301+01301102041ADDGD14991+0009019GF108991999999999999999999KA1999M+01331KA2999N+01171MA1102031999999MD1310101+9999MW1441REMMET092KSBA 121753Z 16003KT 1/2SM FG OVC003 13/13 A3013 RMK AO2 SLP204 T01330128 10133 20117 53010;EQDQ01+000003PRSWM1Q02    003PRSWM1
0183723925231902000041514534+34430-119830FM-15+0003KSBA V0209999C000010090019N0160931N1+01301+01001101581ADDGD14991+0090019GF108991999999999999999999MA1101591999999MD1110171+9999MW1001REMMET076KSBA 151453Z 00000KT 10SM OVC030 13/10 A3000 RMK AO2 SLP158 T01280100 51017;EQDQ01+000000PRSWM2
0054723925231902000041711009+34433-119850NSRDB+000399999V020999999999999999999999999999+99999+99999999999ADDGP10060000002000000002000000002000GR100600000900009
0163723925231902000042110534+34430-119830FM-15+0003KSBA V0201201N002110600019N0160931N1+01401+01201101111ADDGD14991+0600019GF108991999999999999999999MA1101121999999MW1001REMMET070KSBA 211053Z 12004KT 10SM OVC200 14/12 A2986 RMK AO2 SLP111 T01390117;EQDQ01+000000PRSWM2
0165723925231902000042308534+34430-119830FM-15+0003KSBA V0202501N002112200019N0160931N1+01301+01101101701ADDGF100991999999999999999999MA1101691999999MD1810101+9999MW1001REMMET073KSBA 230853Z 25004KT 10SM CLR 13/11 A3003 RMK AO2 SLP170 T01280111 58010;EQDQ01+000000PRSWM2
0173723925231902000042318534+34430-119830FM-15+0003KSBA V0201501N004110054019N0160931N1+01601+01301101801ADDGD13991+0054019GF107991999999999999999999MA1101801999999MW1001REMMET080KSBA 231853Z 15008KT 10SM BKN018 16/13 A3006 RMK AO2 SLP180 BKN V SCT T01610128;EQDQ01+000000PRSWM2
0071723925231902000042400009+34433-119850NSRDB+000399999V020999999999999999999999999999+99999+99999999999ADDGP10060060802008078302015013102008GQ100600525925929GR100600821913519
0187723925231902000042502534+34430-119830FM-15+0003KSBA V0202501N003112200019N0160931N1+01801+01401101221ADDGD12991+0750019GF102991999999999999999999MA1101221999999MD1510041+9999MW1001REMMET080KSBA 250253Z COR 25006KT 10SM FEW250 18/14 A2989 RMK AO2 SLP122 T01780144 55004;EQDQ01+000000PRSWM2
0145723925231902000042522534+34430-119830FM-15+0003KSBA V0201501N003112200019N0160931N1+02101+01501101321ADDGF100991999999999999999999MA1101321999999MW1001REMMET067KSBA 252253Z 15006KT 10SM CLR 21/15 A2992 RMK AO2 SLP132 T02110150;EQDQ01+000000PRSWM2
0144723925231902000042709534+34430-119830FM-15+0003KSBA V0201101N003112200019N0112651N1+01401+01401101241ADDGF100991999999999999999999MA1101251999999MW1001REMMET066KSBA 270953Z 11006KT 7SM CLR 14/14 A2990 RMK AO2 SLP124 T01440139;EQDQ01+000000PRSWM2
0163723925231902000042803534+34430-119830FM-15+0003KSBA V0202001N002612200019N0160931N1+01601+01301101281ADDGD12991+0120019GF102991999999999999999999MA1101291999999MW1001REMMET070KSBA 280353Z 20005KT 10SM FEW040 16/13 A2991 RMK AO2 SLP128 T01610133;EQDQ01+000000PRSWM2
0054723925231902000042809009+34433-119850NSRDB+000399999V020999999999999999999999999999+99999+99999999999ADDGP10060000002000000002000000002000GR100600000900009
0165723925231902000042908534+34430-119830FM-15+0003KSBA V0202701N001512200019N0160931N1+01201+00401101511ADDGF100991999999999999999999MA1101521999999MD1510031+9999MW1001REMMET073KSBA 290853Z 27003KT 10SM CLR 12/04 A2998 RMK AO2 SLP151 T01220044 55003;EQDQ01+000000PRSWM2
0666723925231902000050407596+34426-119842SOD  +0006KSBA V020999999999999999999999999999+99999+99999999999ADDAA124000095KA1240M+02005KA2240N+01225MG1100919999994OE11240076014011035OE22240071514011035OE33240024199999995REMSOD54524 HR PRECIPITATION (IN): 0.00 24 HR MAX TEMP (F): 6824 HR MAX TEMP TIME (LST):1427 24 HR MIN TEMP (F): 5424 HR MIN TEMP TIME (LST):0526 AVERAGE STATION PRESSURE:29.80  PEAK WIND SPEED (MPH): 17 PEAK WIND DIR (DEG):140 PEAK WIND TIME (LST):1103  FASTEST 2MIN SPEED (MPH): 16FASTEST 2MIN DIR (DEG):140 FASTEST 2MIN TIME (LST):1103 AVERAGE WIND SPEED (MPH): 5.4 24 HR AVG TEMP (F):61 HOURLY INCREMENTAL PRECIPITATION VALUES (IN):.00  .00  .00  .00  .00  .00  .00  .00  .00  .00  .00  .00  .00  .00  .00  .00  .00  .00  .00  .00  .00  .00  .00  .00
0220723925231902000050423534+34430-119830FM-15+0003KSBA V0202601N005712200019N0112651N1+01801+01401101181ADDGD12991+0060019GF102991999999999999999999KA1999M+01941KA2999N+01671MA1101191999999MD1610121+9999MW1001REMMET087KSBA 042353Z 26011KT 7SM FEW020 18/14 A2988 RMK AO2 SLP118 T01780144 10194 20167 56012;EQDQ01+000000PRSWM2
0054723925231902000050513009+34433-119850NSRDB+000399999V020999999999999999999999999999+99999+99999999999ADDGP10060000002000000002000000002000GR100600000900009
0054723925231902000051311009+34433-119850NSRDB+000399999V020999999999999999999999999999+99999+99999999999ADDGP10060000002000000002000000002000GR100600000900009
0163723925231902000051322534+34430-119830FM-15+0003KSBA V0202201N003612200019N0160931N1+01801+01101101471ADDGD12991+0540019GF102991999999999999999999MA1101491999999MW1001REMMET070KSBA 132253Z 22007KT 10SM FEW180 18/11 A2997 RMK AO2 SLP147 T01830106;EQDQ01+000000PRSWM2
0163723925231902000051703534+34430-119830FM-15+0003KSBA V0203501N002612200019N0160931N1+01601+00901101471ADDGD12991+0105019GF102991999999999999999999MA1101491999999MW1001REMMET070KSBA 170353Z 35005KT 10SM FEW035 16/09 A2997 RMK AO2 SLP147 T01560094;EQDQ01+000000PRSWM2
0054723925231902000051812009+34433-119850NSRDB+000399999V020999999999999999999999999999+99999+99999999999ADDGP10060000002000000002000000002000GR100600000900009
0071723925231902000051919009+34433-119850NSRDB+000399999V020999999999999999999999999999+99999+99999999999ADDGP10060060002008021502015040402008GQ100600240912259GR100601217913349
0071723925231902000052202009+34433-119850NSRDB+000399999V020999999999999999999999999999+99999+99999999999ADDGP10060020702008024602015013602008GQ100600734928379GR100600381913339
0165723925231902000060208284+34430-119830FM-16+0003KSBA V0201701N00151000151CN0004021N1+01401+01401999999ADDGD15991+0001519GF109991999999000251999999MA1101491999999MW1451REMMET056KSBA 020828Z 17003KT 1/4SM FG VV001 14/14 A2997 RMK AO2;EQDQ01+000003PRSWM1Q02    003PRSWM1
0215723925231902000060209534+34430-119830FM-15+0003KSBA V0201701N00261000151CN0008051N1+01301+01301101481ADDAA101000021GD15991+0001519GF109991999999000251999999MA1101491999999MW1451MW2511REMMET089KSBA 020953Z 17005KT 1/2SM -DZ FG VV001 13/13 A2997 RMK AO2 DZB51 SLP148 P0000 T01330133;EQDQ01+000003PRSWM1Q02    003PRSWM1
0178723925231902000060416534+34430-119830FM-15+0003KSBA V0201301N003112200019N0160931N1+01701+01401101701ADDGD12991+0021019GF102991999999999999999999MA1101691999999MW1001REMMET085KSBA 041653Z 13006KT 10SM FEW007 17/14 A3003 RMK AO2 SLP170 VIS E-SE 1 1/2 T01720144;EQDQ01+000000PRSWM2
0201723925231902000060802534+34430-119830FM-15+0003KSBA V0201301N002612200019N0160931N1+01801+01301101171ADDGD12991+0069019GF102991999999999999999999MA1101191999999MD1510051+9999MW1001REMMET094KSBA 080253Z 13005KT 10SM FEW023 18/13 A2988 RMK AO2 SLP117 CLDS ALNG MTNS NW T01830128 55005;EQDQ01+000000PRSWM2
0054723925231902000060808009+34433-119850NSRDB+000399999V020999999999999999999999999999+99999+99999999999ADDGP10060000002000000002000000002000GR100600000900009
0163723925231902000061212534+34430-119830FM-15+0003KSBA V0200801N001510750019N0160931N1+01201+01101101311ADDGD13991+0750019GF107991999999999999999999MA1101321999999MW1001REMMET070KSBA 121253Z 08003KT 10SM BKN250 12/11 A2992 RMK AO2 SLP131 T01220106;EQDQ01+000000PRSWM2
0163723925231902000061310534+34430-119830FM-15+0003KSBA V0202701N001512200019N0160931N1+01601+01401100951ADDGD12991+0600019GF104991999999999999999999MA1100951999999MW1001REMMET070KSBA 131053Z 27003KT 10SM SCT200 16/14 A2981 RMK AO2 SLP095 T01560139;EQDQ01+000000PRSWM2
0162723925231902000061701534+34420-119820FM-15+0003KSBA V0202301N002110048019N0128741N1+01801+01501100551ADDGD14991+0048019GF108991999999999999999999MA1100581999999MW1001REMMET069KSBA 170153Z 23004KT 8SM OVC016 18/15 A2970 RMK AO2 SLP055 T01780150;EQDQ01+000000PRSWM2
0162723925231902000062103534+34420-119820FM-15+0003KSBA V0202601N003110039019N0128741N1+01601+01501101161ADDGD13991+0039019GF107991999999999999999999MA1101151999999MW1001REMMET069KSBA 210353Z 26006KT 8SM BKN013 16/15 A2987 RMK AO2 SLP116 T01610150;EQDQ01+000000PRSWM2
0181723925231902000062109534+34420-119820FM-15+0003KSBA V0209999C000010015019N0064371N1+01601+01501101241ADDGD14991+0015019GF108991999999999999999999MA1101251999999MW1101REMMET072KSBA 210953Z 00000KT 4SM BR OVC005 16/15 A2990 RMK AO2 SLP124 T01560150;EQDQ01+000003PRSWM1Q02    003PRSWM1
0239723925231902000062117534+34420-119820FM-15+0003KSBA V0202001N001510021019N0096561N1+01701+01501101301ADDGD14991+0021019GF108991999999999999999999KA1999M+01721KA2999N+01561MA1101321999999MD1110061+9999MW1101REMMET090KSBA 211753Z 20003KT 6SM BR OVC007 17/15 A2992 RMK AO2 SLP130 T01720150 10172 20156 51006;EQDQ01+000003PRSWM1Q02    003PRSWM1
0071723925231902000062120009+34433-119850NSRDB+000399999V020999999999999999999999999999+99999+99999999999ADDGP10060050002008007202015043002008GQ100600133914819GR100601286913229
0278723925231902000062408534+34420-119820FM-15+0003KSBA V0201901N00211001501CN0080461N1+01701+01701101601ADDAA101000021AA203000021GD13991+0024019GD24991+0039019GF108991999999999999999999MA1101591999999MD1310021+9999MW1101REMMET118KSBA 240853Z 19004KT 5SM BR BKN008 OVC013 17/17 A3000 RMK AO2 RAB18E27 CIG 005V010 SLP160 P0000 60000 T01720167 53002;EQDQ01+000003PRSWM1Q02    003PRSWM1
0071723925231902000062621009+34433-119850NSRDB+000399999V020999999999999999999999999999+99999+99999999999ADDGP10060101202008088502015014902008GQ100600131920839GR100601287913229
0071723925231902000063000009+34433-119850NSRDB+000399999V020999999999999999999999999999+99999+99999999999ADDGP10060069502008078602015015102008GQ100600462927019GR100600913913219
0148723925231902000070105424+34420-119820FM-16+0003KSBA V0200801N002612200019N0160931N1+01601+01401999999ADDGD12991+0024019GF104991999999999999999999MA1101291999999MW1001REMMET055KSBA 010542Z 08005KT 10SM SCT008 16/14 A2991 RMK AO2 $;EQDQ01+000000PRSWM2
0147723925231902000070201534+34420-119820FM-15+0003KSBA V02099999999992200019N0160931N1+01801+01401101291ADDGF100991999999999999999999MA1101291999999MW1001REMMET069KSBA 020153Z VRB05KT 10SM CLR 18/14 A2991 RMK AO2 SLP129 T01780144 $;EQDQ01+000000PRSWM2
0054723925231902000070205009+34433-119850NSRDB+000399999V020999999999999999999999999999+99999+99999999999ADDGP10060000002000000002000000002000GR100600000900009
0071723925231902000070219009+34433-119850NSRDB+000399999V020999999999999999999999999999+99999+99999999999ADDGP10060083402008058402015029802008GQ100600235911389GR100601210913219
0221723925231902000070617534+34420-119820FM-15+0003KSBA V0201301N005112200019N0160931N1+02101+01501101411ADDGD12991+0045019GF102991999999999999999999KA1999M+02061KA2999N+01331MA1101421999999MD1110081+9999MW1001REMMET088KSBA 061753Z 13010KT 10SM FEW015 21/15 A2995 RMK AO2 SLP141 T02060150 10206 20133 51008;EQDQ01+000000PRSWM2
0181723925231902000071013534+34420-119820FM-15+0003KSBA V0209999C000010036019N0080461N1+01601+01301101501ADDGD14991+0036019GF108991999999999999999999MA1101491999999MW1101REMMET072KSBA 101353Z 00000KT 5SM BR OVC012 16/13 A2997 RMK AO2 SLP150 T01560133;EQDQ01+000003PRSWM1Q02    003PRSWM1
0205723925231902000071120534+34420-119820FM-15+0003KSBA V0201701N005710750019N0160931N1+02101+01401101581ADDGD12991+0069019GD23991+0750019GF107991999999999999999999MA1101591999999MD1810091+9999MW1001REMMET083KSBA 112053Z 17011KT 10SM SCT023 BKN250 21/14 A3000 RMK AO2 SLP158 T02110144 58009;EQDQ01+000000PRSWM2
0145723925231902000071806534+34420-119820FM-15+0003KSBA V0209999C000012200019N0160931N1+01701+01401101491ADDGF100991999999999999999999MA1101491999999MW1001REMMET067KSBA 180653Z 00000KT 10SM CLR 17/14 A2997 RMK AO2 SLP149 T01670144;EQDQ01+000000PRSWM2
0205723925231902000071823534+34420-119820FM-15+0003KSBA V0201401N003612200019N0160931N1+02301+01601101381ADDGF100991999999999999999999KA1999M+02501KA2999N+02171MA1101391999999MD1710161+9999MW1001REMMET087KSBA 182353Z 14007KT 10SM CLR 23/16 A2994 RMK AO2 SLP138 T02280161 10250 20217 57016 $;EQDQ01+000000PRSWM2
0071723925231902000072504009+34433-119850NSRDB+000399999V020999999999999999999999999999+99999+99999999999ADDGP10060000002008000002015000002008GQ100600896929409GR100600001901219
0145723925231902000072600534+34420-119820FM-15+0003KSBA V0201901N002612200019N0160931N1+02201+01401100941ADDGF100991999999999999999999MA1100951999999MW1001REMMET067KSBA 260053Z 19005KT 10SM CLR 22/14 A2981 RMK AO2 SLP094 T02220144;EQDQ01+000000PRSWM2
0163723925231902000072818534+34420-119820FM-15+0003KSBA V0202101N003612200019N0160931N1+02101+01601101461ADDGD12991+0750019GF102991999999999999999999MA1101461999999MW1001REMMET070KSBA 281853Z 21007KT 10SM FEW250 21/16 A2996 RMK AO2 SLP146 T02110161;EQDQ01+000000PRSWM2
0071723925231902000080223009+34433-119850NSRDB+000399999V020999999999999999999999999999+99999+99999999999ADDGP10060076502008070902015019402008GQ100600364925139GR100601066913279
0071723925231902000080321009+34433-119850NSRDB+000399999V020999999999999999999999999999+99999+99999999999ADDGP10060092002008070402015025002008GQ100600184919859GR100601259913279
0145723925231902000080519534+34420-119820FM-15+0003KSBA V0202301N003112200019N0160931N1+02401+01701101381ADDGF100991999999999999999999MA1101391999999MW1001REMMET067KSBA 051953Z 23006KT 10SM CLR 24/17 A2994 RMK AO2 SLP138 T02390167;EQDQ01+000000PRSWM2
0145723925231902000080522534+34420-119820FM-15+0003KSBA V0201801N002112200019N0160931N1+02301+01601101181ADDGF100991999999999999999999MA1101191999999MW1001REMMET067KSBA 052253Z 18004KT 10SM CLR 23/16 A2988 RMK AO2 SLP118 T02280156;EQDQ01+000000PRSWM2
0071723925231902000080600009+34433-119850NSRDB+000399999V020999999999999999999999999999+99999+99999999999ADDGP10060061302008070202015015102008GQ100600489926209GR100600872913289
0071723925231902000080602009+34433-119850NSRDB+000399999V020999999999999999999999999999+99999+99999999999ADDGP10060023502008047302015010102008GQ100600735927929GR100600377913289
0144723925231902000081606534+34420-119820FM-15+0003KSBA V0201201N002112200019N0112651N1+01701+01501101461ADDGF100991999999999999999999MA1101461999999MW1001REMMET066KSBA 160653Z 12004KT 7SM CLR 17/15 A2996 RMK AO2 SLP146 T01670150;EQDQ01+000000PRSWM2
0071723925231902000081723009+34433-119850NSRDB+000399999V020999999999999999999999999999+99999+99999999999ADDGP10060074602008074102015017302008GQ100600395924619GR100601028913339
0182723925231902000081820534+34420-119820FM-15+0003KSBA V0202101N003112200019N0144841N1+02201+01701101561ADDGF100991999999999999999999MA1101561999999MD1510001+9999MW1001REMMET090KSBA 182053Z 21006KT 9SM CLR 22/17 A2999 RMK AO2 SLP156 FG BANK ONSHR E-W T02170172 55000;EQDQ01+000000PRSWM2
0054723925231902000081905009+34433-119850NSRDB+000399999V020999999999999999999999999999+99999+99999999999ADDGP10060000002000000002000000002000GR100600000900009
0145723925231902000081916534+34420-119820FM-15+0003KSBA V0201501N003112200019N0160931N1+02101+01701101611ADDGF100991999999999999999999MA1101631999999MW1001REMMET067KSBA 191653Z 15006KT 10SM CLR 21/17 A3001 RMK AO2 SLP161 T02060172;EQDQ01+000000PRSWM2
0202723925231902000082005534+34420-119820FM-15+0003KSBA V0201201N002612200019N0144841N1+01801+01601101381ADDGF100991999999999999999999KA1999M+02561KA2999N+01781MA1101391999999MD1110081+9999MW1001REMMET084KSBA 200553Z 12005KT 9SM CLR 18/16 A2994 RMK AO2 SLP138 T01830161 10256 20178 51008;EQDQ01+000000PRSWM2
0054723925231902000082211009+34433-119850NSRDB+000399999V020999999999999999999999999999+99999+99999999999ADDGP10060000002000000002000000002000GR100600000900009
0162723925231902000082213534+34420-119820FM-15+0003KSBA V0200301N003612200019N0128741N1+01501+01401101281ADDGF100991999999999999999999MA1101291999999MW1001REMMET084KSBA 221353Z 03007KT 8SM CLR 15/14 A2991 RMK AO2 SLP128 FG BANK OFSHR E-S T01500139;EQDQ01+000000PRSWM2
0221723925231902000082723534+34420-119820FM-15+0003KSBA V0202201N004112200019N0160931N1+02001+01601100941ADDGD12991+0600019GF104991999999999999999999KA1999M+02171KA2999N+01831MA1100951999999MD1810061+9999MW1001REMMET088KSBA 272353Z 22008KT 10SM SCT200 20/16 A2981 RMK AO2 SLP094 T02000156 10217 20183 58006;EQDQ01+000000PRSWM2
0198723925231902000082807534+34420-119820FM-15+0003KSBA V0201501N002110027019N0128741N1+01701+01501101181ADDGD14991+0027019GF108991999999999999999999KA1999M+02171KA2999N+01441MA1101191999999MW1001REMMET079KSBA 280753Z 15004KT 8SM OVC009 17/15 A2988 RMK AO2 SLP118 T01670150 402170144;EQDQ01+000000PRSWM2
0184723925231902000083004534+34420-119820FM-15+0003KSBA V0209999C000010054019N0144841N1+01801+01601101481ADDGD13991+0054019GD24991+0093019GF108991999999999999999999MA1101491999999MW1001REMMET076KSBA 300453Z 00000KT 9SM BKN018 OVC031 18/16 A2997 RMK AO2 SLP148 T01780156;EQDQ01+000000PRSWM2
0205723925231902000083014534+34420-119820FM-15+0003KSBA V0209999C000010150019N0160931N1+01801+01501101501ADDGD12991+0096019GD24991+0150019GF108991999999999999999999MA1101521999999MD1310071+9999MW1001REMMET083KSBA 301453Z 00000KT 10SM FEW032 OVC050 18/15 A2998 RMK AO2 SLP150 T01830150 53007;EQDQ01+000000PRSWM2
0221723925231902000090317534+34420-119820FM-15+0003KSBA V0201601N003612200019N0160931N1+02101+01601101531ADDGD12991+0075019GF102991999999999999999999KA1999M+02111KA2999N+01171MA1101521999999MD1110071+9999MW1001REMMET088KSBA 031753Z 16007KT 10SM FEW025 21/16 A2998 RMK AO2 SLP153 T02110161 10211 20117 51007;EQDQ01+000000PRSWM2
0071723925231902000090718009+34433-119850NSRDB+000399999V020999999999999999999999999999+99999+99999999999ADDGP10060067602008072502015015802008GQ100600445912199GR100600959913469
0071723925231902000090815009+34433-119850NSRDB+000399999V020999999999999999999999999999+99999+99999999999ADDGP10060005602008001402015005302008GQ100600800909029GR100600233913479
0162723925231902000090909534+34420-119820FM-15+0003KSBA V0200501N003110024019N0112651N1+01601+01501100741ADDGD14991+0024019GF108991999999999999999999MA1100751999999MW1001REMMET069KSBA 090953Z 05006KT 7SM OVC008 16/15 A2975 RMK AO2 SLP074 T01610150;EQDQ01+000000PRSWM2
0145723925231902000091003534+34420-119820FM-15+0003KSBA V0200801N002612200019N0160931N1+01701+01601100921ADDGF100991999999999999999999MA1100911999999MW1001REMMET067KSBA 100353Z 08005KT 10SM CLR 17/16 A2980 RMK AO2 SLP092 T01720161;EQDQ01+000000PRSWM2
0054723925231902000091012009+34433-119850NSRDB+000399999V020999999999999999999999999999+99999+99999999999ADDGP10060000002000000002000000002000GR100600000900009
0145723925231902000091106534+34420-119820FM-15+0003KSBA V0200201N002112200019N0160931N1+01501+01201101291ADDGF100991999999999999999999MA1101291999999MW1001REMMET067KSBA 110653Z 02004KT 10SM CLR 15/12 A2991 RMK AO2 SLP129 T01500122;EQDQ01+000000PRSWM2
0178723925231902000091812194+34420-119820FM-16+0003KSBA V0201301N001510009019N0048281N1+01801+01701999999ADDGD14991+0009019GF108991999999999999999999MA1101151999999MW1101REMMET069KSBA 181219Z 13003KT 3SM BR OVC003 18/17 A2987 RMK AO2 VIS E-S 1 1/4;EQDQ01+000003PRSWM1Q02    003PRSWM1
0265723925231902000092305534+34420-119820FM-15+0003KSBA V0201001N002610063019N0160931N1+01801+01701100841ADDGD12991+0027019GD22991+0045019GD34991+0063019GF108991999999999999999999KA1999M+02001KA2999N+01781MA1100851999999MD1110141+9999MW1001REMMET102KSBA 230553Z 10005KT 10SM FEW009 SCT015 OVC021 18/17 A2978 RMK AO2 SLP084 T01780167 10200 20178 51014;EQDQ01+000000PRSWM2
0071723925231902000100320009+34433-119850NSRDB+000399999V020999999999999999999999999999+99999+99999999999ADDGP10060079002008069602015024902008GQ100600392917289GR100601059913669
0071723925231902000100515009+34433-119850NSRDB+000399999V020999999999999999999999999999+99999+99999999999ADDGP10060005002008017902015003102008GQ100600840910029GR100600143913689
0071723925231902000100520009+34433-119850NSRDB+000399999V020999999999999999999999999999+99999+99999999999ADDGP10060081502008079202015020602008GQ100600399917329GR100601049913689
0221723925231902000100923534+34420-119820FM-15+0003KSBA V0201401N003112200019N0160931N1+01801+01501101081ADDGD12991+0045019GF102991999999999999999999KA1999M+01891KA2999N+01671MA1101081999999MD1810261+9999MW1001REMMET088KSBA 092353Z 14006KT 10SM FEW015 18/15 A2985 RMK AO2 SLP108 T01780150 10189 20167 58026;EQDQ01+000000PRSWM2
0296723925231902000101313533+34433-119850FM-15+0003SBA  V0209999C00005220005MN0160005N1+00835+00835102015ADDGF100991999999999999999999MA1102035999999MW1001REMMET067KSBA 131353Z 00000KT 10SM CLR 08/08 A3013 RMK AO2 SLP201 T00830083;EQDQ01+000000PRSWM2N01 00000JPWTH 0QNNAA1D0 00000BA1 0 00000GA1U0 99999KA1D0 00047JA1 0 00083LA1 0 01000CA1 0 03013NA1 0 00000QA1 0 10201SA1D0 00047RA1 0 00083YA1 0 00000
0071723925231902000101616009+34433-119850NSRDB+000399999V020999999999999999999999999999+99999+99999999999ADDGP10060010302008003202015009502008GQ100600743911329GR100600372913779
0335723925231902000101622533+34433-119850FM-15+0003SBA  V0202505N00675220005MN0160005N1+01615+01445101555ADDGD11995+0012259GF102991999999999999999999MA1101565999999MW1001REMMET091KSBA 162253Z 25013KT 10SM FEW004 16/14 A2999 RMK AO2 SLP155 VIS E-SW 3 FG BANK T01610144 $;EQDQ01+000000PRSWM2N01 00000JPWTH 0QNNAA1D0 02004BA1 0 01004GA1U0 99999KA1D0 00058JA1 0 00144LA1 0 01000CA1 0 02999NA1 0 00000QA1 0 10155SA1D0 00061RA1 0 00161YA1 0 25013
0371723925231902000101714533+34433-119850FM-15+0003SBA  V0200305N00215000305MN0002011N1+01225+01225101605ADDGD15995+0003059GF109991999999000251999999MA1101635999999MD1510001+9999MW1455REMMET081KSBA 171453Z 03004KT 1/8SM FG VV001 12/12 A3001 RMK AO2 SLP160 T01220122 55000 $;EQDQ01+000003PRSWM1Q02    003PRSWM1N01 00025DHZVS 3N02 00070JPWTH 0QNNAA1D0 07001BA1 0 07001GA1 0 00001KA1D0 00054JA1 0 00122LA1 3 00025CA1 0 03001NA1 0 00070QA1 0 10160SA1D0 00054RA1 0 00122YA1 0 03004
0334723925231902000102320533+34433-119850FM-15+0003SBA  V0202205N00365220005MN0160005N1+02565+01565101215ADDGD11995+0457259GF102991999999999999999999MA1101225999999MD1810091+9999MW1001REMMET076KSBA 232053Z 22007KT 10SM FEW150 26/16 A2989 RMK AO2 SLP121 T02560156 58009;EQDQ01+000000PRSWM2N01 00000JPWTH 0QNNAA1D0 02150BA1 0 01150GA1U0 99999KA1D0 00060JA1 0 00156LA1 0 01000CA1 0 02989NA1 0 00000QA1 0 10121SA1D0 00078RA1 0 00256YA1 0 22007
0054723925231902000102603009+34433-119850NSRDB+000399999V020999999999999999999999999999+99999+99999999999ADDGP10060000002000000002000000002000GR100600000900009
0054723925231902000103009009+34433-119850NSRDB+000399999V020999999999999999999999999999+99999+99999999999ADDGP10060000002000000002000000002000GR100600000900009
0054723925231902000110308009+34433-119850NSRDB+000399999V020999999999999999999999999999+99999+99999999999ADDGP10060000002000000002000000002000GR100600000900009
0054723925231902000110314009+34433-119850NSRDB+000399999V020999999999999999999999999999+99999+99999999999ADDGP10060000002000000002000000002000GR100600000900009
0071723925231902000110719009+34433-119850NSRDB+000399999V020999999999999999999999999999+99999+99999999999ADDGP10060059702008086002015008902008GQ100600540915829GR100600819913939
0071723925231902000110820009+34433-119850NSRDB+000399999V020999999999999999999999999999+99999+99999999999ADDGP10060064302008085802015010702008GQ100600515917609GR100600868913949
0054723925231902000110914009+34433-119850NSRDB+000399999V020999999999999999999999999999+99999+99999999999ADDGP10060000002000000002000000002000GR100600000900009
0071723925231902000110917009+34433-119850NSRDB+000399999V020999999999999999999999999999+99999+99999999999ADDGP10060032702008073602015006302008GQ100600690913029GR100600498913959
0054723925231902000111006009+34433-119850NSRDB+000399999V020999999999999999999999999999+99999+99999999999ADDGP10060000002000000002000000002000GR100600000900009
0054723925231902000111110009+34433-119850NSRDB+000399999V020999999999999999999999999999+99999+99999999999ADDGP10060000002000000002000000002000GR100600000900009
0373723925231902000111717533+34433-119850FM-15+0003SBA  V0202105N00315220005MN0160005N1+01615-00175102195ADDGD11995+0396259GF102991999999999999999999KA1999M+01611KA2999N+00001MA1102205999999MD1310141+9999MW1001REMMET089KSBA 171753Z 21006KT 10SM FEW130 16/M02 A3018 RMK AO2 SLP219 T01611017 10161 20000 53014;EQDQ01+000000PRSWM2N01 00000JPWTH 0QNNAA1D0 02130BA1 0 01130GA1U0 99999KA1D0 00029JA1 0-00017LA1 0 01000CA1 0 03018NA1 0 00000QA1 0 10219SA1D0 00061RA1 0 00161YA1 0 21006
0296723925231902000112003533+34433-119850FM-15+0003SBA  V0209999C00005220005MN0128005N1+00615-00115101995ADDGF100991999999999999999999MA1102005999999MW1001REMMET067KSBA 200353Z 00000KT 8SM CLR 06/M01 A3012 RMK AO2 SLP199 T00611011;EQDQ01+000000PRSWM2N01 00000JPWTH 0QNNAA1D0 00000BA1 0 00000GA1U0 99999KA1D0 00030JA1 0-00011LA1 0 00800CA1 0 03012NA1 0 00000QA1 0 10199SA1D0 00043RA1 0 00061YA1 0 00000
0071723925231902000112019009+34433-119850NSRDB+000399999V020999999999999999999999999999+99999+99999999999ADDGP10060025402008010702015019602008GQ100600573915909GR100600757914029
0296723925231902000112516533+34433-119850FM-15+0003SBA  V0209999C00005220005MN0160005N1+01445+00895101925ADDGF100991999999999999999999MA1101935999999MW1001REMMET067KSBA 251653Z 00000KT 10SM CLR 14/09 A3010 RMK AO2 SLP192 T01440089;EQDQ01+000000PRSWM2N01 00000JPWTH 0QNNAA1D0 00000BA1 0 00000GA1U0 99999KA1D0 00048JA1 0 00089LA1 0 01000CA1 0 03010NA1 0 00000QA1 0 10192SA1D0 00058RA1 0 00144YA1 0 00000
0314723925231902000112718533+34433-119850FM-15+0003SBA  V0201305N00265076205MN0160005N1+01615+01225101725ADDGD13995+0762059GF107991999999999999999999MA1101735999999MW1001REMMET070KSBA 271853Z 13005KT 10SM BKN250 16/12 A3004 RMK AO2 SLP172 T01610122;EQDQ01+000000PRSWM2N01 00000JPWTH 0QNNAA1D0 04250BA1 0 04250GA1 0 00250KA1D0 00054JA1 0 00122LA1 0 01000CA1 0 03004NA1 0 00000QA1 0 10172SA1D0 00061RA1 0 00161YA1 0 13005
0296723925231902000112803533+34433-119850FM-15+0003SBA  V0209999C00005220005MN0160005N1+01115+01005101555ADDGF100991999999999999999999MA1101565999999MW1001REMMET067KSBA 280353Z 00000KT 10SM CLR 11/10 A2999 RMK AO2 SLP155 T01110100;EQDQ01+000000PRSWM2N01 00000JPWTH 0QNNAA1D0 00000BA1 0 00000GA1U0 99999KA1D0 00050JA1 0 00100LA1 0 01000CA1 0 02999NA1 0 00000QA1 0 10155SA1D0 00052RA1 0 00111YA1 0 00000
0187723925231902000112903274+34420-119820FM-16+0003KSBA V0200401N001510009019N0076441N1+01101+01101999999ADDGD14991+0009019GF108991999999999999999999MA1101591999999MW1101REMMET078KSBA 290327Z 04003KT 3/4SM BR OVC003 11/11 A3000 RMK AO2 TWR VIS 4 VIS E1 1/4;EQDQ01+000003PRSWM1Q02    003PRSWM1
003972392523190200011300759O+34433-119850SOD  +000399999V020999999999999999999999999999+99999+99999999999ADDAT1MW01FG  5AT2MW13BR  1AT3MW08HZ  5
0054723925231902000120106009+34433-119850NSRDB+000399999V020999999999999999999999999999+99999+99999999999ADDGP10060000002000000002000000002000GR100600000900009
0313723925231902000120122533+34433-119850FM-15+0003SBA  V0201405N00155048775MN0112005N1+01505+01225101645ADDGD14995+0487759GF108991999999999999999999MA1101665999999MW1001REMMET069KSBA 012253Z 14003KT 7SM OVC160 15/12 A3002 RMK AO2 SLP164 T01500122;EQDQ01+000000PRSWM2N01 00000JPWTH 0QNNAA1D0 06160BA1 0 06160GA1 0 00160KA1D0 00054JA1 0 00122LA1 0 00700CA1 0 03002NA1 0 00000QA1 0 10164SA1D0 00059RA1 0 00150YA1 0 14003
0071723925231902000120516009+34433-119850NSRDB+000399999V020999999999999999999999999999+99999+99999999999ADDGP10060001902008000002015001902008GQ100600838912269GR100600151914099
0314723925231902000120612533+34433-119850FM-15+0003SBA  V0209999V00155060965MN0160005N1+00895+00505101995ADDGD13995+0609659GF107991999999999999999999MA1102005999999MW1001REMMET070KSBA 061253Z VRB03KT 10SM BKN200 09/05 A3012 RMK AO2 SLP199 T00890050;EQDQ01+000000PRSWM2N01 00000JPWTH 0QNNAA1D0 04200BA1 0 04200GA1 0 00200KA1D0 00041JA1 0 00050LA1 0 01000CA1 0 03012NA1 0 00000QA1 0 10199SA1D0 00048RA1 0 00089YA1 0 00003
0412723925231902000120705533+34433-119850FM-15+0003SBA  V0200305N00265024385MN0160005N1+01395+01335101905ADDAA101000021AA206000391GD13995+0243859GF107991999999999999999999KA1999M+01561KA2999N+01281MA1101905999999MD1610121+9999MW1001REMMET106KSBA 070553Z 03005KT 10SM BKN080 14/13 A3009 RMK AO2 RAE13 SLP190 P0000 60001 T01390133 10156 20128 56012;EQDQ01+000000PRSWM2N01 00000JPWTH 0QNNAA1D0 04080BA1 0 04080GA1 0 00080KA1D0 00056JA1 0 00133LA1 0 01000CA1 0 03009NA1 0 00000QA1 0 10190SA1D0 00057RA1 0 00139YA1 0 03005
0054723925231902000120706009+34433-119850NSRDB+000399999V020999999999999999999999999999+99999+99999999999ADDGP10060000002000000002000000002000GR100600000900009
0071723925231902000120815009+34433-119850NSRDB+000399999V020999999999999999999999999999+99999+99999999999ADDGP10060000002008000002015000002008GQ100600896911799GR100600001901069
0357723925231902000120900533+34433-119850FM-15+0003SBA  V0201105N00155008845MN0112005N1+01445+01285101675ADDGD12995+0073259GD24995+0088459GF108991999999999999999999MA1101665999999MW1001REMMET076KSBA 090053Z 11003KT 7SM SCT024 OVC029 14/13 A3002 RMK AO2 SLP167 T01440128;EQDQ01+000000PRSWM2N01 00000JPWTH 0QNNAA1D0 02024BA1 0 02024AA1D0 06029BA1 0 06029GA1 0 00029KA1D0 00055JA1 0 00128LA1 0 00700CA1 0 03002NA1 0 00000QA1 0 10167SA1D0 00058RA1 0 00144YA1 0 11003
0404723925231902000120921533+34433-119850FM-15+0003SBA  V0202405N00365011585MN0160005N1+01565+01225101645ADDGD11995+0036659GD23995+0115859GD34995+0548659GF108991999999999999999999MA1101665999999MW1001REMMET086KSBA 092153Z 24007KT 10SM FEW012 BKN038 OVC180 16/12 A3002 RMK AO2 SLP164 T01560122 $;EQDQ01+000000PRSWM2N01 00000JPWTH 0QNNAA1D0 02012BA1 0 01012AA1D0 04038BA1 0 04038AA1D0 06180BA1 0 06180GA1 0 00038KA1D0 00054JA1 0 00122LA1 0 01000CA1 0 03002NA1 0 00000QA1 0 10164SA1D0 00060RA1 0 00156YA1 0 24007
0334723925231902000121002533+34433-119850FM-15+0003SBA  V0209999C00005011585MN0160005N1+01395+01065101655ADDGD14995+0115859GF108991999999999999999999MA1101665999999MD1610021+9999MW1001REMMET076KSBA 100253Z 00000KT 10SM OVC038 14/11 A3002 RMK AO2 SLP165 T01390106 56002;EQDQ01+000000PRSWM2N01 00000JPWTH 0QNNAA1D0 06038BA1 0 06038GA1 0 00038KA1D0 00051JA1 0 00106LA1 0 01000CA1 0 03002NA1 0 00000QA1 0 10165SA1D0 00057RA1 0 00139YA1 0 00000
0372723925231902000121017533+34433-119850FM-15+0003SBA  V0201105N00265220005MN0160005N1+01565+01175101815ADDGD11995+0039659GF102991999999999999999999KA1999M+01561KA2999N+00671MA1101835999999MD1010111+9999MW1001REMMET088KSBA 101753Z 11005KT 10SM FEW013 16/12 A3007 RMK AO2 SLP181 T01560117 10156 20067 50011;EQDQ01+000000PRSWM2N01 00000JPWTH 0QNNAA1D0 02013BA1 0 01013GA1U0 99999KA1D0 00053JA1 0 00117LA1 0 01000CA1 0 03007NA1 0 00000QA1 0 10181SA1D0 00060RA1 0 00156YA1 0 11005
0316723925231902000121404533+34433-119850FM-15+0003SBA  V0200205N00155220005MN0160005N1+00895+00675102145ADDGD11995+0609659GF102991999999999999999999MA1102135999999MW1001REMMET072KSBA 140453Z 02003KT 10SM FEW200 09/07 A3016 RMK AO2 SLP214 T00890067 $;EQDQ01+000000PRSWM2N01 00000JPWTH 0QNNAA1D0 02200BA1 0 01200GA1U0 99999KA1D0 00044JA1 0 00067LA1 0 01000CA1 0 03016NA1 0 00000QA1 0 10214SA1D0 00048RA1 0 00089YA1 0 02003
0334723925231902000121908533+34433-119850FM-15+0003SBA  V0209999C00005076205MN0160005N1+00675+00065102375ADDGD13995+0762059GF107991999999999999999999MA1102375999999MD1810101+9999MW1001REMMET076KSBA 190853Z 00000KT 10SM BKN250 07/01 A3023 RMK AO2 SLP237 T00670006 58010;EQDQ01+000000PRSWM2N01 00000JPWTH 0QNNAA1D0 04250BA1 0 04250GA1 0 00250KA1D0 00033JA1 0 00006LA1 0 01000CA1 0 03023NA1 0 00000QA1 0 10237SA1D0 00044RA1 0 00067YA1 0 00000
0386723925231902000122205533+34433-119850FM-15+0003SBA  V0209999C00005220005MN0080005N1+00565+00565101835ADDGF100991999999999999999999KA1999M+01441KA2999N+00441MA1101835999999MD1110121+9999MW1101MW2455REMMET095KSBA 220553Z 00000KT 5SM BR CLR 06/06 A3007 RMK AO2 SLP183 MIFG SE T00560056 10144 20044 51012;EQDQ01+000003PRSWM1Q02    003PRSWM1N01 00070JPWTH 0QNNAA1D0 00000BA1 0 00000GA1U0 99999KA1D0 00042JA1 0 00056LA1 0 00500CA1 0 03007NA1 0 00070QA1 0 10183SA1D0 00042RA1 0 00056YA1 0 00000
0297723925231902000122704533+34433-119850FM-15+0003SBA  V0209999C00005220005MN0160005N1+00505-00065102265ADDGF100991999999999999999999MA1102275999999MW1001REMMET068KSBA 270453Z 00000KT 10SM CLR 05/M01 A3020 RMK AO2 SLP226 T00501006;EQDQ01+000000PRSWM2N01 00000JPWTH 0QNNAA1D0 00000BA1 0 00000GA1U0 99999KA1D0 00031JA1 0-00006LA1 0 01000CA1 0 03020NA1 0 00000QA1 0 10226SA1D0 00041RA1 0 00050YA1 0 00000
0054723925231902000122707009+34433-119850NSRDB+000399999V020999999999999999999999999999+99999+99999999999ADDGP10060000002000000002000000002000GR100600000900009
0255723926999992000010706003+34220-119080FM-15+0023KCMA V0203201N001512200019N0160931N1+01001-00101102721ADDGF100991999999999999999999GP10060000002000000002000000002000GR100600000900009KA1999M+01831KA2999N+00671MA1102641999999MD1310071+9999MW1001REMMET086KCMA 070555Z 32003KT 10SM CLR 10/M01 A3031 RMK AO2 SLP272 T01001006 10183 20067 53007;EQDQ01+000000PRSWM2
0251723926999992000010821003+34220-119080FM-15+0023KCMA V0202301N004112200019N0160931N1+01901+00001102131ADDGD12991+0600019GF102991999999999999999999GP10060055102008080002015011402008GQ100600570918749GR100600772914159MA1102031999999MD1610301+9999MW1001REMMET076KCMA 082055Z 23008KT 10SM FEW200 19/00 A3013 RMK AO2 SLP213 T01890000 56030;EQDQ01+000000PRSWM2
0054723926999992000010907009+34217-119083NSRDB+002399999V020999999999999999999999999999+99999+99999999999ADDGP10060000002000000002000000002000GR100600000900009
0272723926999992000011406003+34220-119080FM-15+0023KCMA V0202901N001512200019N0096561N1+00801+00501102271ADDGF100991999999999999999999GP10060000002000000002000000002000GR100600000900009KA1999M+01671KA2999N+00721MA1102171999999MD1510081+9999MW1051REMMET087KCMA 140555Z 29003KT 6SM HZ CLR 08/05 A3017 RMK AO2 SLP227 T00780050 10167 20072 55008;EQDQ01+000003PRSWM1Q02    003PRSWM1
0231723926999992000011519003+34220-119080FM-15+0023KCMA V0201101N001510450019N0160931N1+01801+00801101781ADDGD13991+0450019GF107991999999999999999999GP10060016502008000002015016502008GQ100600599915429GR100600708914149MA1101691999999MW1001REMMET070KCMA 151855Z 11003KT 10SM BKN150 18/08 A3003 RMK AO2 SLP178 T01830078;EQDQ01+000000PRSWM2
0273723926999992000011722003+34220-119080FM-15+0023KCMA V0209999C000010270019N0096561N1+01701+01401102001ADDAA101000021GD14991+0270019GF108991999999999999999999GP10060009402008000002015009402008GQ100600586920309GR100600737914149MA1101931999999MW1611REMMET085KCMA 172155Z 00000KT 6SM -RA OVC090 17/14 A3010 RMK AO2 RAB23 SLP200 P0000 T01670139;EQDQ01+000003PRSWM1Q02    003PRSWM1
0231723926999992000011808003+34220-119080FM-15+0023KCMA V0200401N003112200019N0112651N1+01401+01401102001ADDGF100991999999999999999999GP10060000002000000002000000002000GR100600000900009KA1999M+01671KA2999N+01221MA1101931999999MW1001REMMET076KCMA 180755Z 04006KT 7SM CLR 14/14 A3010 RMK AO2 SLP200 T01440139 401670122;EQDQ01+000000PRSWM2
0253723926999992000012301003+34220-119080FM-15+0023KCMA V0202301N002610360019N0160931N1+01401+01101101871ADDGD12991+0048019GD24991+0360019GF108991999999999999999999GP10060000002008000002015000002008GQ100600822923989GR100600190914129MA1101801999999MW1001REMMET077KCMA 230055Z 23005KT 10SM FEW016 OVC120 14/11 A3006 RMK AO2 SLP187 T01440106;EQDQ01+000000PRSWM2
0186723926999992000012405484+34220-119080FM-16+0023KCMA V0200501N004110300019N0064371N1+01301+01201999999ADDGD12991+0015019GD24991+0300019GF108991999999999999999999MA1102001999999MW1101REMMET062KCMA 240548Z 05008KT 4SM BR SCT005 OVC100 13/12 A3012 RMK AO2;EQDQ01+000003PRSWM1Q02    003PRSWM1
0249723926999992000012416003+34220-119080FM-15+0023KCMA V0209999C000010600019N0096561N1+01201+01201102081ADDGD13991+0600019GF107991999999999999999999GP10060001502008000002015001502008GQ100600848911759GR100600126914009MA1102001999999MW1101REMMET072KCMA 241555Z 00000KT 6SM BR BKN200 12/12 A3012 RMK AO2 SLP208 T01220117;EQDQ01+000003PRSWM1Q02    003PRSWM1
0327723926999992000012509003+34220-119080FM-15+0023KCMA V0209999C000010150019N0064371N1+01401+01301101871ADDAA101002091AA203003391GD12991+0081019GD24991+0150019GF108991999999999999999999GP10060000002000000002000000002000GR100600000900009MA1101801999999MD1010021+9999MW1101MW2631REMMET110KCMA 250855Z AUTO 00000KT 4SM RA BR FEW027 OVC050 14/13 A3006 RMK AO2 SLP187 P0008 60013 T01440133 50002 TSNO;EQDQ01+000003PRSWM1Q02    003PRSWM1
0214723926999992000012605003+34220-119080FM-15+0023KCMA V0201701N001512200019N0160931N1+01301+01201101801ADDGD12991+0027019GF102991999999999999999999GP10060000002000000002000000002000GR100600000900009MA1101731999999MW1001REMMET070KCMA 260455Z 17003KT 10SM FEW009 13/12 A3004 RMK AO2 SLP180 T01280122;EQDQ01+000000PRSWM2
0195723926999992000013016024+34220-119080FM-16+0023KCMA V0209999C000010078019N0040231N1+01101+00901999999ADDGD14991+0078019GF108991999999999999999999MA1102171999999MW1631REMMET070KCMA 301602Z 00000KT 2 1/2SM RA BR OVC026 11/09 A3017 RMK AO2 P0001 $;EQDQ01+000100PRSWM3Q02+000003PRSWM1Q03    003PRSWM1
0304723926999992000021023003+34220-119080FM-15+0023KCMA V0202401N006210066019N0032181N1+01401+01301101541ADDAA101002891GD12991+0030019GD24991+0066019GF108991999999999999999999GP10060019302008000002015019302008GQ100600589922029GR100600726914059MA1101461999999MW1101MW2651REMMET095KCMA 102255Z 24012KT 2SM +RA BR SCT010 OVC022 14/13 A2996 RMK AO2 RAB00 SLP154 P0011 T01390128;EQDQ01+000003PRSWM1Q02    003PRSWM1
0233723926999992000021208334+34220-119080FM-16+0023KCMA V0201801N005710045019N0064371N1+01201+01101999999ADDGD12991+0030019GD23991+0045019GD34991+0072019GF108991999999999999999999MA1101491999999MW1631REMMET078KCMA 120833Z 18011KT 4SM RA BR SCT010 BKN015 OVC024 12/11 A2997 RMK AO2 P0010;EQDQ01+000100PRSWM3Q02+000003PRSWM1Q03    003PRSWM1
0168723926999992000021305104+34220-119080FM-16+0023KCMA V0201501N001512200019N0160931N1+01201+01101999999ADDGD12991+0048019GD22991+0111019GF104991999999999999999999MA1101831999999MW1001REMMET060KCMA 130510Z 15003KT 10SM SCT016 SCT037 12/11 A3007 RMK AO2;EQDQ01+000000PRSWM2
0249723926999992000021608003+34220-119080FM-15+0023KCMA V0209999C000010330019N0112651N1+01201+01101101921ADDGD14991+0330019GF108991999999999999999999GP10060000002000000002000000002000GR100600000900009KA1999M+01721KA2999N+01001MA1101831999999MW1001REMMET079KCMA 160755Z 00000KT 7SM OVC110 12/11 A3007 RMK AO2 SLP192 T01220111 401720100;EQDQ01+000000PRSWM2
0231723926999992000021717003+34220-119080FM-15+0023KCMA V0200601N003112200019N0160931N1+01001+00701102061ADDGD12991+0450019GF102991999999999999999999GP10060030902008069402015006902008GQ100600698912149GR100600483914019MA1101961999999MW1001REMMET070KCMA 171655Z 06006KT 10SM FEW150 10/07 A3011 RMK AO2 SLP206 T01000067;EQDQ01+000000PRSWM2
0216723926999992000022223003+34220-119080FM-15+0023KCMA V0202101N001510072019N0160931N1+99999+99999999999ADDGD14991+0072019GF108991999999999999999999GP10060020402008000002015020402008GQ100600555922329GR100600790913989MA1102341999999MW1001REMMET055KCMA 222155Z 21003KT 10SM OVC024 A3022 RMK AO2 SLPNO $;EQDQ01+000000PRSWM2
0193723926999992000022714184+34220-119080FM-16+0023KCMA V0209999C000010081019N0064371N1+01101+00901999999ADDGD13991+0081019GD24991+0330019GF108991999999999999999999MA1101691999999MW1101REMMET069KCMA 271418Z 00000KT 4SM BR BKN027 OVC110 11/09 A3003 RMK AO2 PRESRR;EQDQ01+000003PRSWM1Q02    003PRSWM1
0259723926999992000030407003+34220-119080FM-15+0023KCMA V0200101N005110270019N0160931N1+01101+00901101621ADDAA101002391GD12991+0141019GD24991+0270019GF108991999999999999999999GP10060000002000000002000000002000GR100600000900009MA1101521999999MW1001REMMET089KCMA 040655Z 01010KT 10SM FEW047 OVC090 11/09 A2998 RMK AO2 RAE52 SLP162 P0009 T01060089;EQDQ01+000000PRSWM2
0276723926999992000030616003+34220-119080FM-15+0023KCMA V0200501N006710099019N0064371N1+00701+00501101071ADDAA101003091GD14991+0099019GF108991999999999999999999GP10060005802008000002015005802008GQ100600762910659GR100600330913899MA1100981999999MW1101MW2651REMMET082KCMA 061555Z 05013KT 4SM +RA BR OVC033 07/05 A2982 RMK AO2 SLP107 P0012 T00670050;EQDQ01+000003PRSWM1Q02    003PRSWM1
0196723926999992000031111003+34220-119080FM-15+0023KCMA V0209999C000012200019N0160931N1+00901+00401102351ADDGF100991999999999999999999GP10060000002000000002000000002000GR100600000900009MA1102271999999MW1001REMMET067KCMA 111055Z 00000KT 10SM CLR 09/04 A3020 RMK AO2 SLP235 T00890044;EQDQ01+000000PRSWM2
0213723926999992000031120003+34220-119080FM-15+0023KCMA V0202601N004112200019N0160931N1+02301+00701102171ADDGF100991999999999999999999GP10060082102008087402015013802008GQ100600387916559GR100601080913859MA1102101999999MW1001REMMET067KCMA 111955Z 26008KT 10SM CLR 23/07 A3015 RMK AO2 SLP217 T02280072;EQDQ01+000000PRSWM2
0213723926999992000031123003+34220-119080FM-15+0023KCMA V0202201N003112200019N0160931N1+02201+00701101961ADDGF100991999999999999999999GP10060065202008081002015013702008GQ100600506922929GR100600878913859MA1101901999999MW1001REMMET067KCMA 112255Z 22006KT 10SM CLR 22/07 A3009 RMK AO2 SLP196 T02170072;EQDQ01+000000PRSWM2
0213723926999992000031502003+34220-119080FM-15+0023KCMA V0201901N002112200019N0160931N1+01701+01301101291ADDGF100991999999999999999999GP10060000002008000002015000002008GQ100600837926339GR100600151913839MA1101221999999MW1001REMMET067KCMA 150155Z 19004KT 10SM CLR 17/13 A2989 RMK AO2 SLP129 T01720128;EQDQ01+000000PRSWM2
0164723926999992000031708174+34220-119080FM-16+0023KCMA V0209999C000010033019N0064371N1+01201+01101999999ADDGD14991+0033019GF108991999999999999999999MA1101691999999MW1101REMMET055KCMA 170817Z 00000KT 4SM BR OVC011 12/11 A3003 RMK AO2;EQDQ01+000003PRSWM1Q02    003PRSWM1
0231723926999992000031717003+34220-119080FM-15+0023KCMA V0202701N003112200019N0080461N1+01501+01101102051ADDGF100991999999999999999999GP10060045402008072702015010502008GQ100600613911359GR100600661913809MA1101961999999MW1051REMMET069KCMA 171655Z 27006KT 5SM HZ CLR 15/11 A3011 RMK AO2 SLP205 T01500111;EQDQ01+000003PRSWM1Q02    003PRSWM1
0054723926999992000032013009+34217-119083NSRDB+002399999V020999999999999999999999999999+99999+99999999999ADDGP10060000002000000002000000002000GR100600000900009
0232723926999992000032317003+34220-119080FM-15+0023KCMA V0202901N003110750019N0160931N1+01401-00101102181ADDGD13991+0750019GF107991999999999999999999GP10060027202008009202015022602008GQ100600595911179GR100600698913759MA1102101999999MW1001REMMET071KCMA 231655Z 29006KT 10SM BKN250 14/M01 A3015 RMK AO2 SLP218 T01441011;EQDQ01+000000PRSWM2
0213723926999992000032414003+34220-119080FM-15+0023KCMA V0209999C000012200019N0160931N1+00901+00701101641ADDGF100991999999999999999999GP10060000002008000002015000002008GQ100600895908799GR100600001901039MA1101561999999MW1001REMMET067KCMA 241355Z 00000KT 10SM CLR 09/07 A2999 RMK AO2 SLP164 T00890067;EQDQ01+000000PRSWM2
0249723926999992000032514003+34220-119080FM-15+0023KCMA V0203401N002110060019N0096561N1+01101+00901101801ADDGD14991+0060019GF108991999999999999999999GP10060000002008000002015000002008GQ100600895908759GR100600001901499MA1101731999999MW1101REMMET072KCMA 251355Z 34004KT 6SM BR OVC020 11/09 A3004 RMK AO2 SLP180 T01060089;EQDQ01+000003PRSWM1Q02    003PRSWM1
0146723926999992000032911374+34220-119080FM-16+0023KCMA V0200601N002110051019N0160931N1+00901+00701999999ADDGD13991+0051019GF107991999999999999999999MA1101491999999MW1001REMMET053KCMA 291137Z 06004KT 10SM BKN017 09/07 A2997 RMK AO2;EQDQ01+000000PRSWM2
0214723926999992000033004003+34220-119080FM-15+0023KCMA V0209999C000012200019N0160931N1+01301+00901101721ADDGD12991+0120019GF102991999999999999999999GP10060000002000000002000000002000GR100600000900009MA1101631999999MW1001REMMET070KCMA 300355Z 00000KT 10SM FEW040 13/09 A3001 RMK AO2 SLP172 T01280089;EQDQ01+000000PRSWM2
0235723926999992000040303003+34220-119080FM-15+0023KCMA V0202201N002112200019N0160931N1+01601+01401101771ADDGF100991999999999999999999GP10060000002008000002015000002008GQ100600885927579GR100600011903999MA1101691999999MD1310121+9999MW1001REMMET075KCMA 030255Z 22004KT 10SM CLR 16/14 A3003 RMK AO2 SLP177 T01610144 53012 $;EQDQ01+000000PRSWM2
0176723926999992000040615284+34220-119080FM-16+0023KCMA V0201001N00151001801CN0064371N1+01301+01201999999ADDGD14991+0024019GF108991999999999999999999MA1101901999999MW1101REMMET067KCMA 061528Z 10003KT 4SM BR OVC008 13/12 A3009 RMK AO2 CIG 006V011;EQDQ01+000003PRSWM1Q02    003PRSWM1
0196723926999992000040904003+34220-119080FM-15+0023KCMA V0201601N002112200019N0160931N1+01301+01001101661ADDGF100991999999999999999999GP10060000002000000002000000002000GR100600000900009MA1101561999999MW1001REMMET067KCMA 090355Z 16004KT 10SM CLR 13/10 A2999 RMK AO2 SLP166 T01330100;EQDQ01+000000PRSWM2
0235723926999992000041717304+34220-119080FM-15+0023KCMA V0201201N00621001801CN0048281N1+01301+01201999999ADDAA101002391GD13991+0024019GD24991+0048019GF108991999999999999999999MA1101221999999MW1101MW2631OC100821REMMET086KCMA 171730Z 12012G16KT 3SM RA BR BKN008 OVC016 13/12 A2989 RMK AO2 CIG 006V012 P0009;EQDQ01+000003PRSWM1Q02    003PRSWM1
0206723926999992000042905003+34220-119080FM-15+0023KCMA V0209999C000012200019N0160931N1+01301+00901101531ADDGF100991999999999999999999GP10060000002000000002000000002000GR100600000900009MA1101461999999MW1001REMMET077KCMA 290455Z AUTO 00000KT 10SM CLR 13/09 A2996 RMK AO2 SLP153 T01330089 TSNO;EQDQ01+000000PRSWM2
0231723926999992000050523003+34220-119080FM-15+0023KCMA V0202401N004612200019N0160931N1+01901+01301101391ADDGD12991+0075019GF104991999999999999999999GP10060072802008063102015024002008GQ100600393925319GR100601037913429MA1101321999999MW1001REMMET070KCMA 052255Z 24009KT 10SM SCT025 19/13 A2992 RMK AO2 SLP139 T01940128;EQDQ01+000000PRSWM2
0168723926999992000050810444+34220-119080FM-16+0023KCMA V0200801N003610027019N0160931N1+01601+01301999999ADDGD13991+0027019GD24991+0048019GF108991999999999999999999MA1101521999999MW1001REMMET060KCMA 081044Z 08007KT 10SM BKN009 OVC016 16/13 A2998 RMK AO2;EQDQ01+000000PRSWM2
0230723926999992000050917003+34220-119080FM-15+0023KCMA V0201801N003612200019N0128741N1+01701+01301101511ADDGD12991+0030019GF104991999999999999999999GP10060060502008052102015025602008GQ100600480909719GR100600895913409MA1101421999999MW1001REMMET069KCMA 091655Z 18007KT 8SM SCT010 17/13 A2995 RMK AO2 SLP151 T01720133;EQDQ01+000000PRSWM2
0168723926999992000052313444+34220-119080FM-16+0023KCMA V0202001N003110006019N0024141N1+01601+01501999999ADDGD14991+0006019GF108991999999999999999999MA1101251999999MW1101REMMET059KCMA 231344Z 20006KT 1 1/2SM BR OVC002 16/15 A2990 RMK AO2;EQDQ01+000003PRSWM1Q02    003PRSWM1
0212723926999992000053002003+34220-119080FM-15+0023KCMA V0201901N002612200019N0144841N1+02001+01401101121ADDGF100991999999999999999999GP10060023702008037002015013002008GQ100600732928539GR100600384913299MA1101051999999MW1001REMMET066KCMA 300155Z 19005KT 9SM CLR 20/14 A2984 RMK AO2 SLP112 T02000144;EQDQ01+000000PRSWM2
0290723926999992000060312003+34220-119080FM-15+0023KCMA V0202801N002110015019N0048281N1+01501+01401101781ADDGD14991+0015019GF108991999999999999999999GP10060000002000000002000000002000GR100600000900009KA1999M+01611KA2999N+01501MA1101691999999MD1510061+9999MW1101REMMET090KCMA 031155Z 28004KT 3SM BR OVC005 15/14 A3003 RMK AO2 SLP178 T01500139 10161 20150 55006;EQDQ01+000003PRSWM1Q02    003PRSWM1
0230723926999992000061619003+34210-119800FM-15+0023KCMA V0202401N004110066019N0144841N1+02201+01601100851ADDGD14991+0066019GF108991999999999999999999GP10060053102008010702015043202008GQ100600220911479GR100601225913239MA1100781999999MW1001REMMET069KCMA 161855Z 24008KT 9SM OVC022 22/16 A2976 RMK AO2 SLP085 T02170156;EQDQ01+000000PRSWM2
0145723926999992000062009454+34210-119800FM-15+0023KCMA V0200901N002110024019N0144841N1+01601+01401999999ADDGD13991+0024019GF107991999999999999999999MA1101221999999MW1001REMMET052KCMA 200945Z 09004KT 9SM BKN008 16/14 A2989 RMK AO2;EQDQ01+000000PRSWM2
0289723926999992000062400003+34210-119800FM-15+0023KCMA V0202101N004110045019N0160931N1+02101+01601101501ADDGD14991+0045019GF108991999999999999999999GP10060040902008011802015032902008GQ100600470927129GR100600900913229KA1999M+02501KA2999N+02111MA1101421999999MD1810051+9999MW1001REMMET088KCMA 232355Z 21008KT 10SM OVC015 21/16 A2995 RMK AO2 SLP150 T02110161 10250 20211 58005;EQDQ01+000000PRSWM2
0195723926999992000062607003+34210-119800FM-15+0023KCMA V0209999C000012200019N0128741N1+01801+01601101361ADDGF100991999999999999999999GP10060000002000000002000000002000GR100600000900009MA1101291999999MW1001REMMET066KCMA 260655Z 00000KT 8SM CLR 18/16 A2991 RMK AO2 SLP136 T01830161;EQDQ01+000000PRSWM2
0145723926999992000063006294+34210-119800FM-16+0023KCMA V0209999C000012200019N0144841N1+01801+01601999999ADDGD12991+0030019GF104991999999999999999999MA1101251999999MW1001REMMET052KCMA 300629Z 00000KT 9SM SCT010 18/16 A2990 RMK AO2;EQDQ01+000000PRSWM2
0145723926999992000063009044+34210-119800FM-16+0023KCMA V0202501N001510024019N0128741N1+01701+01501999999ADDGD13991+0024019GF107991999999999999999999MA1101251999999MW1001REMMET052KCMA 300904Z 25003KT 8SM BKN008 17/15 A2990 RMK AO2;EQDQ01+000000PRSWM2
0164723926999992000070117334+34210-119800FM-16+0023KCMA V0203401N001510045019N0064371N1+01901+01601999999ADDGD14991+0045019GF108991999999999999999999MA1101561999999MW1051REMMET055KCMA 011733Z 34003KT 4SM HZ OVC015 19/16 A2999 RMK AO2;EQDQ01+000003PRSWM1Q02    003PRSWM1
0251723926999992000070121003+34210-119800FM-15+0023KCMA V0202701N004112200019N0096561N1+02401+01601101481ADDGF100991999999999999999999GP10060098902008082502015018502008GQ100600133921019GR100601285913219MA1101391999999MD1810151+9999MW1051REMMET075KCMA 012055Z 27008KT 6SM HZ CLR 24/16 A2994 RMK AO2 SLP148 T02390161 58015;EQDQ01+000003PRSWM1Q02    003PRSWM1
0172723926999992000070217474+34210-119800FM-16+0023KCMA V0202601N003610048019N0080461N1+02101+01601999999ADDGD14991+0048019GF108991999999999999999999MA1101491999999MW1051REMMET063KCMA 021747Z 26007KT 220V290 5SM HZ OVC016 21/16 A2997 RMK AO2;EQDQ01+000003PRSWM1Q02    003PRSWM1
0233723926999992000070403003+34210-119800FM-15+0023KCMA V0202401N003612200019N0160931N1+01801+01301101441ADDGF100991999999999999999999GP10060000002008000002015000002008GQ100600829929309GR100600164913219MA1101351999999MD1510041+9999MW1001REMMET073KCMA 040255Z 24007KT 10SM CLR 18/13 A2993 RMK AO2 SLP144 T01830133 55004;EQDQ01+000000PRSWM2
0213723926999992000071623003+34210-119800FM-15+0023KCMA V0202501N004612200019N0160931N1+02201+01501101571ADDGF100991999999999999999999GP10060079702008074502015018602008GQ100600349925769GR100601082913229MA1101491999999MW1001REMMET067KCMA 162255Z 25009KT 10SM CLR 22/15 A2997 RMK AO2 SLP157 T02220150;EQDQ01+000000PRSWM2
0212723926999992000072014003+34210-119070FM-15+0023KCMA V0202801N002112200019N0112651N1+01301+01101101251ADDGF100991999999999999999999GP10060003902008022602015001902008GQ100600847906859GR100600121913129MA1101191999999MW1001REMMET066KCMA 201355Z 28004KT 7SM CLR 13/11 A2988 RMK AO2 SLP125 T01330111;EQDQ01+000000PRSWM2
