0182267020999992000112804004+54690+020610FM-15+0027UMKK V0202001N005010033019N0050001N1+00501+00501999999ADDGA1081+003309999GF108991999999999999999999MA1101691999999MW1101REMMET072UMKK 280400Z 20005MPS 5000 BR OVC011 05/05 Q1017 NOSIG RMK QFE 761 SC06;EQDQ01+000003PRSWM1Q02    003PRSWM1
0308267020999992000112806004+54690+020610SY-MT+0027UMKK V0202301N00101004201CN0040001N1+00591+00541101781ADDAA199000021AY151061AY221061GA1021+003909999GF107991071051004501001001KA1120N+00301MA1101801999999MD1210121+9999MW1101REMSYN082AAXX  28061 26702 31496 72301 10059 20054 40178 52012 71052 87500 333 20030 87618;MET072UMKK 280600Z 18005MPS 4000 BR SCT013 04/03 Q1018 NOSIG RMK QFE 762 SC06;EQDQ01    003PRSWM1
0196267020999992000112910004+54690+020610FM-15+0027UMKK V0201701N007010018019N0018001N1+00401+00401999999ADDGA1081+001809099GF108991999999999999999999MA1101391999999MW1101MW2811REMMET080UMKK 291000Z 17007MPS 1800 BR SHRA OVC006CB 04/04 Q1014 NOSIG RMK QFE 759 SC055;EQDQ01+000003PRSWM1Q02    003PRSWM1
0206267020999992000121110004+54690+020610FM-15+0027UMKK V0202101N005010009019N0013001N1+00601+00601999999ADDGA1081+000909999GF108991999999999999999999MA1101391999999MW1101MW2631REMMET090UMKK 111000Z 21005MPS 1300 R1500 BR RA OVC003 06/06 Q1014 NOSIG RMK QFE 759 QBB 110 SC065;EQDQ01+000003PRSWM1Q02    003PRSWM1
0310267020999992000121400004+54690+020610SY-MT+0027UMKK V0202001N00201009901CN0040001N1+00761+00411100341ADDAY121061AY221061GA1071+009909999GF108991081051004501999999MA1100311100081MD1710051+9999MW1101OC100901REMSYN082AAXX  14001 26702 41496 82002 10076 20041 30008 40034 57005 71022 885// 333 88615;MET074UMKK 140000Z 20004G09MPS P6000 BKN033 08/05 Q1003 NOSIG RMK QFE 751 SC065;EQDQ01+000000PRSWM2Q02    003PRSWM1
0322267020999992000121618004+54690+020610SY-MT+0027UMKK V0202201N00201002701CN0040001N1+00201-00111099481ADDAA112004191AY121061AY221061GA1081+002709099GF108991081051004501999999KA1120M+00281MA1099491999999MD1210081+9999MW1101REMSYN088AAXX  16181 26702 11496 82202 10020 21011 49948 52008 60042 71022 885// 333 10028 88615;MET080UMKK 161800Z 20003MPS 5000 BR SHRA OVC009CB 02/02 Q0995 NOSIG RMK QFE 745 SC065;EQDQ01    003PRSWM1
0285267020999992000121909004+54690+020610SY-MT+0027UMKK V0209999C000012200019N0040001N1-00121-00531102261ADDAY111031AY211031GA1021+030009999GF102991021001999999031001MA1102511999999MD1210251+9999MW1101REMSYN066AAXX  19091 26702 41996 20000 11012 21053 40226 52025 71011 82030;MET073UMKK 190900Z 21002MPS R6000 FEW100 M02/M05 Q1025 NOSIG RMK QFE 768 SC055;EQDQ01+000000PRSWM2Q02    003PRSWM1
0193267020999992000122114004+54690+020610FM-15+0027UMKK V0202101N003010018019N0025001N1+00001-00201999999ADDGA1081+001809999GF108991999999999999999999MA1103181999999MW1101MW2731REMMET077UMKK 211400Z 21003MPS 2500 BR SN OVC006 00/M02 Q1032 NOSIG RMK QFE 773 SC065;EQDQ01+000003PRSWM1Q02    003PRSWM1
0186267020999992000122418004+54690+020610FM-15+0027UMKK V0201801N003010024019N0025001N1+00001-00101999999ADDGA1081+002409099GF108991999999999999999999MA1100201999999MW1101REMMET076UMKK 241800Z 18003MPS 2500 BR OVC008CB M00/M01 Q1002 NOSIG RMK QFE 750 SC05;EQDQ01+000003PRSWM1Q02    003PRSWM1
0281267130999992000011812004+54630+022780FM-12+005999999V0203201N004010051019N0500001N1-00021-00171098651ADDAA112000591AJ100009199999999AY181061AY271061GA1071+005109099GF107991071051004501001021IA1239MA1999999097921MD1210061+9999MW1021OA140100801OA249901101REMSYN120    AAXX  18121 26713 11484 73204 11002 21017 39792 49865 52006 70287 87502 333 87917 91008 91111 555 1/100 47000 69972;
0189267130999992000012809004+54630+022780FM-12+005999999V0202701N007010048019N0400001N1+00171+00091100261ADDAY161031AY221031GA1081+004809079GF108991081051004501999999MD1310091+9999MW1611OA140101201REMSYN088AAXX  28091 26713 41482 82707 10017 20009 40026 53009 76162 885// 333 88716 91012 91114;
0262267130999992000020412004+54630+022780FM-12+005999999V0202301N009010042019N0500001N1+00081-00281102051ADDAA199000091AJ100009199999999GA1081+004209099GF108991081051004501999999IA1279MA1999999101301MD1710401+9999OA140101201OA249901401REMSYN104AAXX  04121 26713 32484 82309 10008 21028 30130 40205 57040 885// 333 88914 91012 91114 555 1/000 43000;EQDQ01  00002PRCP99
0233267130999992000022200004+54630+022780FM-12+005999999V0203201N002010060019N0500001N1-00191-00641102581ADDAA199000091GA1081+006009069GF108991081051008001999999MA1999999101821MD1110031+9999OA140100301OA249900501REMSYN098AAXX  22001 26713 32584 83202 11019 21064 30182 40258 51003 885// 333 88620 91003 91105 555 14101;EQDQ01  00002PRCP99
0248267130999992000022600004+54630+022780FM-12+005999999V0202701N006010057019N0240001N1+00111+00031101301ADDAA112000791AY181061AY221061GA1081+005709069GF108991081051004501999999MA1999999100571MD1310061+9999MW1021OA140100801OA249901001REMSYN110AAXX  26001 26713 11474 82706 10011 20003 30057 40130 53006 70282 885// 333 88619 91008 91110 555 11001 69902;
0231267130999992000022618004+54630+022780FM-12+005999999V0202901N004010060019N0500001N1+00181+00021102351ADDAA199000091GA1081+006009069GF108991081051008001999999KA1120M+00421MD1210161+9999OA140100701OA249901001REMSYN098AAXX  26181 26713 32584 82904 10018 20002 40235 52016 885// 333 10042 88620 91007 91110 555 53011;EQDQ01  00002PRCP99
0233267130999992000030212004+54630+022780FM-12+005999999V0202401N006010060019N0500001N1+00421-00191100611ADDAA199000091GA1071+006009069GF107991071051008001001001MA1999999099881MD1210111+9999OA140101201OA249901301REMSYN098AAXX  02121 26713 32584 72406 10042 21019 39988 40061 52011 87500 333 87620 91012 91113 555 11003;EQDQ01  00002PRCP99
0246267130999992000030818004+54630+022780FM-12+005999999V0201901N004010045019N0300001N1+00301+00091099761ADDAA112000791AY161061AY221061GA1081+004509079GF108991081051004501999999KA1120M+00621MD1710491+9999MW1611OA140100801OA249901001REMSYN110AAXX  08181 26713 11480 81904 10030 20009 49976 57049 69902 76162 885// 333 10062 88715 91008 91110 555 53011;
0246267130999992000031418004+54630+022780FM-12+005999999V0201901N007010048019N0180001N1+00511+00341100441ADDAA112001091AY161061AY221061GA1081+004809079GF108991081051004501999999KA1120M+00651MD1710301+9999MW1601OA140101001OA249901201REMSYN110AAXX  14181 26713 11468 81907 10051 20034 40044 57030 60012 76062 885// 333 10065 88716 91010 91112 555 53012;
0211267130999992000031612004+54630+022780FM-12+005999999V0203201N006012200019N0500001N1+00291-00511100951ADDAA199000091GF103991031081004501001001MA1999999100221MD1210071+9999OA140100801OA249901101REMSYN092AAXX  16121 26713 32484 33206 10029 21051 30022 40095 52007 83800 333 91008 91111 555 12004;EQDQ01  00002PRCP99
0161267130999992000031809004+54630+022780FM-12+005999999V0203301N003010045019N0500001N1-00061-00271102011ADDGA1061+004509099GF108991061051004501071999MD1210141+9999OA140100501REMSYN082AAXX  18091 26713 42484 83303 11006 21027 40201 52014 8657/ 333 86915 91005 91107;
0149267130999992000032021004+54630+022780FM-12+005999999V0201901N002012200019N0300001N1+00061-00171101971ADDGA1001+999999999GF100991001001999999001001MD1810021+9999OA140100301REMSYN070AAXX  20211 26713 42980 01902 10006 21017 40197 58002 333 91003 91105;
0248267130999992000033112004+54630+022780FM-12+005999999V0201801N002010048019N0080001N1+00701+00561100361ADDAA112000391AY161061AY251061GA1081+004809079GF108991081061004501999999MA1999999099651MD1810101+9999MW1101OA140100401OA249900501REMSYN110AAXX  31121 26713 11458 81802 10070 20056 39965 40036 58010 71065 886// 333 88716 91004 91105 555 11007 69932;
0227267130999992000040706004+54630+022780FM-12+005999999V0203201N004019999999N0500001N1+00041-00361102001ADDAA199000091GF107991001001999999001021IA1259KA1120N-00171MD1210031+9999OA140100701OA249900701REMSYN104AAXX  07061 26713 32984 73204 10004 21036 40200 52003 80002 333 21017 41/// 91007 91107 555 53012 7000/;EQDQ01  00002PRCP99
0231267130999992000040918004+54630+022780FM-12+005999999V0202601N002010060019N0500001N1+00381+00041101731ADDAA199000091GA1081+006009069GF108991081051008001999999KA1120M+00441MD1410001+9999OA140100301OA249900501REMSYN098AAXX  09181 26713 32584 82602 10038 20004 40173 54000 885// 333 10044 88620 91003 91105 555 53006;EQDQ01  00002PRCP99
0149267130999992000050221004+54630+022780FM-12+005999999V0209999C000012200019N0500001N1+00211-00161102831ADDGA1001+999999999GF100991001001999999001001MD1410001+9999OA140100001REMSYN070AAXX  02211 26713 42984 00000 10021 21016 40283 54000 333 91000 91103;
0139267130999992000051409004+54630+022780FM-12+005999999V0203101N005012200019N0500001N1+01721+00801102131ADDGF103991031051008001001001MD1810021+9999OA140100601REMSYN076AAXX  14091 26713 42584 33105 10172 20080 40213 58002 83500 333 91006 91111;
0139267130999992000061309004+54630+022780FM-12+005999999V0202401N004012200019N0500001N1+01781+01051102441ADDGF102991021051004501001001MD1210031+9999OA140100601REMSYN076AAXX  13091 26713 42484 22404 10178 20105 40244 52003 82500 333 91006 91108;
0161267130999992000061421004+54630+022770FM-12+005999999V0202801N003010048019N0500001N1+01321+00811101701ADDGA1071+004809099GF107991071051004501001001MD1810011+9999OA140100401REMSYN082AAXX  14211 26713 42484 72803 10132 20081 40170 58001 87500 333 87916 91004 91107;
0174267130999992000062603004+54630+022770FM-12+005999999V0202201N001010042019N0500001N1+01311+01201100881ADDGF108991081051004501999999GJ102409MD1710031+9999OA140100201OA249900301REMSYN092AAXX  26031 26713 42484 82201 10131 20120 40088 57003 885// 333 55040 91002 91103 555 20130;
0264267130999992000071106004+54630+022770FM-12+005999999V0202101N002010057019N0500001N1+01961+01491100161ADDAA112000591AY161061AY221061GA1051+005709069GF105991051051004501001001IA1259KA1120N+01401MD1210041+9999MW1021OA140100301OA249900401REMSYN122AAXX  11061 26713 11484 52102 10196 20149 40016 52004 69942 70262 85500 333 20140 41/// 85619 91003 91104 555 53007 7994/;
0209267130999992000072518004+54630+022770FM-12+005999999V0203101N003019999999N0260001N1+01921+01571100291ADDAA199000091GF105991001001999999001021KA1120M+02231MD1310011+9999OA140100701OA249901001REMSYN092AAXX  25181 26713 32976 53103 10192 20157 40029 53001 80002 333 10223 91007 91110 555 53011;EQDQ01  00002PRCP99
0248267130999992000080300004+54630+022770FM-12+005999999V0201801N004010048019N0180001N1+01651+01601101091ADDAA112000391AY181061AY221061GA1081+004809099GF108991081051004501999999MA1999999100391MD1710161+9999MW1801OA140100601OA249900801REMSYN110AAXX  03001 26713 11468 81804 10165 20160 30039 40109 57016 78082 885// 333 88916 91006 91108 555 11016 69952;
0196267130999992000082318004+54630+022770FM-12+005999999V0202601N004012200019N0500001N1+01421+00991101841ADDAA112000391GF103991031051008001001001KA1120M+01941MD1310061+9999OA140100501OA249900801REMSYN098AAXX  23181 26713 12584 32604 10142 20099 40184 53006 69932 83500 333 10194 91005 91108 555 53011;
0189267130999992000090221004+54630+022770FM-12+005999999V0201401N002010057019N0180001N1+01431+01321100321ADDAY161031AY221031GA1081+005709069GF108991081051004501999999MD1810161+9999MW1021OA140100301REMSYN088AAXX  02211 26713 41468 81402 10143 20132 40032 58016 70262 885// 333 88619 91003 91105;
0264267130999992000090506004+54630+022770FM-12+005999999V0202701N006010045019N0140001N1+01081+01001100991ADDAA112000791AY161061AY221061GA1081+004509079GF108991081051004501999999IA1259KA1120N+01061MD1210051+9999MW1611OA140100901OA249901101REMSYN122AAXX  05061 26713 11464 82706 10108 20100 40099 52005 69902 76162 885// 333 20106 41/// 88715 91009 91111 555 53011 7990/;
0161267130999992000091909004+54630+022770FM-12+005999999V0200701N002010057019N0500001N1+00951+00531101751ADDGA1071+005709069GF107991071051004501001001MD1810121+9999OA140100301REMSYN082AAXX  19091 26713 42484 70702 10095 20053 40175 58012 87500 333 87619 91003 91105;
0233267130999992000100400004+54630+022770FM-12+005999999V0209999C000010057019N0220001N1+01021+00921102521ADDAA199000091GA1081+005709069GF108991081051004501999999MA1999999101801MD1410001+9999OA140100001OA249900201REMSYN098AAXX  04001 26713 32472 80000 10102 20092 30180 40252 54000 885// 333 88619 91000 91102 555 10010;EQDQ01  00002PRCP99
0161267130999992000100509004+54630+022770FM-12+005999999V0201101N002010057019N0500001N1+01751+01231102151ADDGA1081+005709069GF108991081051999999999999MD1410001+9999OA140100301REMSYN082AAXX  05091 26713 42984 81102 10175 20123 40215 54000 885// 333 88619 91003 91105;
0139267130999992000101009004+54630+022770FM-12+005999999V0201201N006012200019N0140001N1+00831+00211101201ADDGF102991001001999999001011MD1810121+9999OA140100901REMSYN076AAXX  10091 26713 42964 21206 10083 20021 40120 58012 80001 333 91009 91111;
0219267130999992000102218004+54630+022770FM-12+005999999V0202401N001012200019N0200001N1+00971+00091102971ADDAA199000091GA1001+999999999GF100991001001999999001001KA1120M+01501MD1710041+9999OA140100401OA249900601REMSYN086AAXX  22181 26713 32998 02401 10097 20009 40297 57004 333 10150 91004 91106 555 53006;EQDQ01  00002PRCP99
0259267130999992000102318004+54630+022770FM-12+005999999V0202401N001010057019N0020001N1+01041+00921102561ADDAA199000091AY121061AY221061GA1081+005709069GF108991081051004501999999KA1120M+01201MD1710131+9999MW1101OA140100101OA249900201REMSYN104AAXX  23181 26713 31495 82401 10104 20092 40256 57013 71022 885// 333 10120 88619 91001 91102 555 53006;EQDQ01  00002PRCP99
0189267130999992000111621004+54630+022770FM-12+005999999V0202301N003010057019N0040001N1+00601+00461101911ADDAY121031AY221031GA1081+005709069GF108991081051004501999999MD1210271+9999MW1101OA140100401REMSYN088AAXX  16211 26713 41496 82303 10060 20046 40191 52027 71022 885// 333 88619 91004 91106;
0189267130999992000112221004+54630+022770FM-12+005999999V0201401N003010051019N0040001N1+00701+00641101991ADDAY121031AY221031GA1081+005109099GF108991081051004501999999MD1110041+9999MW1251OA140100501REMSYN088AAXX  22211 26713 41496 81403 10070 20064 40199 51004 72522 885// 333 88917 91005 91106;
0277267130999992000112906004+54630+022770FM-12+005999999V0201501N004010063019N0040001N1+00301+00121101891ADDAA199000091AY121061AY221061GA1081+006309069GF108991081051008001999999IA1259KA1120N+00231MD1610131+9999MW1101OA140100601OA249900801REMSYN116AAXX  29061 26713 31596 81504 10030 20012 40189 56013 71022 885// 333 20023 41/// 88621 91006 91108 555 53008 7000/;EQDQ01  00002PRCP99
0189267300999992000010112504+54630+025280FM-15+0156EYVI V0209999999999000151CN0001501N1-00701-00701999999ADDED199U03509GA1091+000159999GF109991999999000251999999MA1102401999999MW1491REMMET084EYVI 011250Z VRB04KT 0150 R20/0350 R02/0325 FZFG VV001 M07/M07 Q1024 NOSIG 20490535;EQDQ01    003PRSWM1
0193267300999992000011609004+54630+025280FM-12+015699999V0202401N002010012019N0020001N1-00291-00361102391ADDAY121031AY221031GA1081+001209079GF108991081061001501999999MD1410001+9999MW1101OA140100401REMSYN092    AAXX  16091 26730 41295 82402 11029 21036 40239 54000 71022 886// 333 88704 91004 91105;
0179267300999992000012004504+54630+025280FM-15+0156EYVI V0202801N004110300019N0112651N1-00801-00901999999ADDGA1021+003009999GA2071+030009999GF107991999999999999999999MA1100811999999MW1001REMMET069EYVI 200450Z 28008KT 9999 SCT010 BKN100 M08/M09 Q1008 NOSIG 024/0240;EQDQ01+000000PRSWM2
0255267300999992000012112004+54630+025280FM-12+0156EYVI V0203101N005019999999N0100001N1-00731-01071099791ADDAA106000791AJ100149199999999AY171061AY221061GF106991021051999999001031IA1249MA1999999097811MD1210211+9999MW1021OA140100601OA249900701REMSYN110AAXX  21121 26730 /1997 63105 11073 21107 39781 49979 52021 70272 82503 333 91006 91107 555 1/107 48014 69901;
0269267300999992000012206004+54630+025280FM-12+0156EYVI V0203201N005012200019N0100001N1-01141-01421100621ADDAA112000391AJ100169199999999AY171061AY211061GA1001+999999999GF100991001001999999001001IA1249KA1120N-01361MD1210071+9999MW1021OA140100801OA249900901REMSYN110AAXX  22061 26730 11997 03205 11114 21142 40062 52007 69932 70271 333 21136 48016 91008 91109 555 53010 7996/;
0189267300999992000020309004+54630+025280FM-12+0156EYVI V0203201N007010027019N0040001N1+00041-00021099661ADDAY171031AY261031GA1081+002709059GF108991081071002501999999MD1310151+9999MW1221OA140101101REMSYN088AAXX  03091 26730 41396 83207 10004 21002 49966 53015 72276 887// 333 88509 91011 91111;
0155267300999992000021016504+54630+025280FM-15+0156EYVI V0202501N004110063019N0112651N1+00101-00201999999ADDGA1071+006309999GF107991999999999999999999MA1101901999999MW1001REMMET061EYVI 101650Z 25008KT 9999 BKN021 01/M02 Q1019 NOSIG 201///50;EQDQ01+000000PRSWM2
0268267300999992000021300004+54630+025280FM-12+0156EYVI V0202101N004010120019N0040001N1+00111-00121101991ADDAA199000091AJ100009199999999AY121061AY221061GF108991081051012501999999IA1309MA1999999100041MD1710151+9999MW1101OA140100801OA249900801REMSYN104AAXX  13001 26730 31696 82104 10011 21012 30004 40199 57015 71022 885// 333 91008 91108 555 1/000 42997;EQDQ01  00002PRCP99
0186267300999992000021409504+54630+025280FM-15+0156EYVI V0202201N005110027019N0060001N1+00001-00201999999ADDGA1081+002709999GF108991999999999999999999MA1100611999999MW1731REMMET076EYVI 140950Z 22010KT 6000 SN OVC009 00/M02 Q1006 TEMPO 2000 SHSNRA 202///50;EQDQ01+000003PRSWM1Q02    003PRSWM1
0208267300999992000021918504+54630+025280FM-15+0156EYVI V0200101N006210024019N0040001N1-00301-00501999999ADDGA1071+002409999GA2081+030009999GF108991999999999999999999MA1101021999999MW1101MW2711REMMET076EYVI 191850Z 01012KT 4000 -SN BR BKN008 OVC100 M03/M05 Q1010 NOSIG 02420140;EQDQ01+000003PRSWM1Q02    003PRSWM1
0118267300999992000022115004+54630+025280FM-12+0156EYVI V0203501N004010075019N0100001N1-00351-00531102131ADDGF108991081051008001999999MD1210071+9999REMSYN066AAXX  21151 26730 42597 83504 11035 21053 40213 52007 885// 91007;
0156267300999992000022316204+54630+025280FM-15+0156EYVI V0209999C000012200019N0080001N1-00601-00901999999ADDGA1021+030009999GF102991999999999999999999MA1102611999999MW1001REMMET062EYVI 231620Z 00000KT 8000 FEW100 M06/M09 Q1026 NOSIG 028/0250;EQDQ01+000000PRSWM2
0185267300999992000022413504+54630+025280FM-15+0156EYVI V02099999999990039019N0040001N1-00301-00601999999ADDGA1081+003909999GF108991999999999999999999MA1102301999999MW1101MW2711REMMET069EYVI 241350Z VRB04KT 4000 -SN BR OVC013 M03/M06 Q1023 NOSIG 021///60;EQDQ01+000003PRSWM1Q02    003PRSWM1
0259267300999992000022800004+54630+025280FM-12+0156EYVI V0202101N005012200019N0040001N1+00121-00051102741ADDAA199000021AJ100069199999999AY121061AY211061GA1001+999999999GF100991001001999999001001IA1279MA1999999100771MD1710151+9999MW1101OA140100801OA249900901REMSYN098AAXX  28001 26730 31996 02105 10012 21005 30077 40274 57015 71021 333 91008 91109 555 1/102 43006;
0136267300999992000022801504+54630+025280FM-15+0156EYVI V0202001N007212200019N0060001N1+00101-00101999999ADDGF100991999999999999999999MA1102611999999MW1001REMMET058EYVI 280150Z 20014KT 6000 SKC 01/M01 Q1026 NOSIG 201///50;EQDQ01+000000PRSWM2
0155267300999992000030407504+54630+025280FM-15+0156EYVI V0202201N007210099019N0112651N1+00201-00201999999ADDGA1071+009909999GF107991999999999999999999MA1099591999999MW1001REMMET061EYVI 040750Z 22014KT 9999 BKN033 02/M02 Q0996 NOSIG 202///50;EQDQ01+000000PRSWM2
0203267300999992000031006504+54630+025280FM-15+0156EYVI V0203001N005110030019N0060001N1-00301-00501999999ADDGA1071+003009099GA2081+030009999GF108991999999999999999999MA1100311999999MW1851REMMET077EYVI 100650Z 30010KT 6000 -SHSN BKN010CB OVC100 M03/M05 Q1003 NOSIG 024/0245;EQDQ01+000003PRSWM1Q02    003PRSWM1
0108267300999992000031222504+54630+025280FM-15+0156EYVI V0209999999999220001CN0099001N1-00301-00701999999ADDMA1102301999999MW1001REMMET056EYVI 122250Z VRB04KT CAVOK M03/M07 Q1023 NOSIG 020///60;EQDQ01+000000PRSWM2
0206267300999992000031413504+54630+025280FM-15+0156EYVI V0201901N007210054019N0040001N1+00401+00201999999ADDGA1071+005409999GA2081+030009999GF108991999999999999999999MA1101021999999MW1101MW2611REMMET074EYVI 141350Z 19014KT 4000 -RA BR BKN018 OVC100 04/02 Q1010 NOSIG 201///60;EQDQ01+000003PRSWM1Q02    003PRSWM1
0108267300999992000032007504+54630+025280FM-15+0156EYVI V0203601N00311220001CN0099001N1+00001-00401999999ADDMA1102101999999MW1001REMMET056EYVI 200750Z 36006KT CAVOK M00/M04 Q1021 NOSIG 020///60;EQDQ01+000000PRSWM2
0108267300999992000032402504+54630+025280FM-15+0156EYVI V0202701N00511220001CN0099001N1-00201-00501999999ADDMA1101021999999MW1001REMMET056EYVI 240250Z 27010KT CAVOK M02/M05 Q1010 NOSIG 200///60;EQDQ01+000000PRSWM2
0107267300999992000032416504+54630+025280FM-15+0156EYVI V0203001N00511220001CN0099001N1+00401-00701999999ADDMA1101291999999MW1001REMMET055EYVI 241650Z 30010KT CAVOK 04/M07 Q1013 NOSIG 020///60;EQDQ01+000000PRSWM2
0156267300999992000032923504+54630+025280FM-15+0156EYVI V02099999999992200019N0040001N1-00101-00201999999ADDGF100991999999999999999999MA1102611999999MW1101REMMET062EYVI 292350Z VRB04KT 4000 BR SKC M01/M02 Q1026 NOSIG 020///60;EQDQ01+000003PRSWM1Q02    003PRSWM1
0177267300999992000033114504+54630+025280FM-15+0156EYVI V0201401N006210042019N0060001N1+00801+00601999999ADDGA1071+004209999GA2081+030009999GF108991999999999999999999MA1100311999999MW1001REMMET067EYVI 311450Z 14012KT 6000 BKN014 OVC100 08/06 Q1003 NOSIG 202///50;EQDQ01+000000PRSWM2
0170267300999992000040119504+54630+025280FM-15+0156EYVI V0202601N005110030019N0040001N1+00401+00301999999ADDGA1081+003009099GF108991999999999999999999MA1100711999999MW1801REMMET060EYVI 011950Z 26010KT 4000 -SHRA OVC010CB 04/03 Q1007 NOSIG ;EQDQ01+000003PRSWM1Q02    003PRSWM1
0145267300999992000040301504+54630+025280FM-15+0156EYVI V0203601N003110105019N0060001N1+00401+00101999999ADDGA1071+010509999GF107991999999999999999999MA1100811999999MW1001REMMET051EYVI 030150Z 36006KT 6000 BKN035 04/01 Q1008 NOSIG;EQDQ01+000000PRSWM2
0146267300999992000040311504+54630+025280FM-15+0156EYVI V0203501N003110120019N0112651N1+01001-00101999999ADDGA1071+012009999GF107991999999999999999999MA1100911999999MW1001REMMET052EYVI 011150Z 35006KT 9999 BKN040 10/M01 Q1009 NOSIG;EQDQ01+000000PRSWM2
0149267300999992000040721004+54630+025280FM-12+0156EYVI V0203401N003012200019N0100001N1+00211-00431101561ADDGA1001+999999999GF100991001001999999001001MD1210031+9999OA140100701REMSYN070AAXX  07211 26730 42997 03403 10021 21043 40156 52003 333 91007 91108;
0239267300999992000041206004+54630+025280FM-12+0156EYVI V0201401N004019999999N0100001N1+00601+00231100561ADDAA199000091GF107991071001999999071001IA1099IA2999-00109KA1120N+00291MD1710031+9999OA140100501OA249900601REMSYN104AAXX  12061 26730 32997 71404 10060 20023 40056 57003 87070 333 20029 91005 91106 555 31101 53006 7000/;EQDQ01  00002PRCP99
0097267300999992000041608504+54630+025280FM-15+0156EYVI V0201701N00511220001CN0099001N1+01701+00701999999ADDMA1100411999999MW1001REMMET045EYVI 160850Z 17010KT CAVOK 17/07 Q1004 NOSIG;EQDQ01+000000PRSWM2
0149267300999992000042109004+54630+025280FM-12+0156EYVI V0200601N002012200019N0100001N1+02021+00621101671ADDGA1001+999999999GF100991001001999999001001MD1410001+9999OA140100401REMSYN070AAXX  21091 26730 42997 00602 10202 20062 40167 54000 333 91004 91105;
0097267300999992000042407504+54630+025280FM-15+0156EYVI V0201401N00621220001CN0099001N1+02201+00801999999ADDMA1101491999999MW1001REMMET045EYVI 240750Z 14012KT CADOK 22/08 Q1015 NOSIG;EQDQ01+000000PRSWM2
0212267300999992000042503004+54630+025280FM-12+0156EYVI V0201601N003012200019N0040001N1+01141+01031101541ADDAY101031AY201031GA1001+999999999GF100991001001999999001001GJ107449MD1210021+9999MW1101OA140100501OA249900501REMSYN092AAXX  25031 26730 41996 01603 10114 20103 40154 52002 71000 333 55124 91005 91105 555 20114;
0098267300999992000050221504+54630+025280FM-15+0156EYVI V0209999C00001220001CN0099001N1+00401-00701999999ADDMA1102811999999MW1001REMMET046EYVI 022150Z 00000KT CAVOK 04/M07 Q1028 NOSIG;EQDQ01+000000PRSWM2
0091267300999992000050322504+54630+025280FM-15+0156EYVI V02099999999992200019N9999999N1+99999+99999999999ADDMW1001REMMET054EYVI 032250Z 033350Z VRB04KT UAVOK 08/M01 Q1022 NOSIG;EQDQ01+000000PRSWM2
0097267300999992000050405504+54630+025280FM-15+0156EYVI V0202701N00311220001CN0099001N1+01101+00201999999ADDMA1102101999999MW1001REMMET045EYVI 040550Z 27006KT CAVOK 11/02 Q1021 NOSIG;EQDQ01+000000PRSWM2
0097267300999992000051105204+54630+025280FM-15+0156EYVI V0209999C00001220001CN0099001N1+00901+00301999999ADDMA1101291999999MW1001REMMET045EYVI 110520Z 00000KT CAVOK 09/03 Q1013 NOSIG;EQDQ01+000000PRSWM2
0168267300999992000051322504+54630+025280FM-15+0156EYVI V0203101N006210120019N0112651N1+00901+00301999999ADDGA1071+012009999GA2071+030009999GF107991999999999999999999MA1101801999999MW1001REMMET058EYVI 142250Z 31012KT 9999 BKN040 BKN100 09/03 Q1018 NOSIG;EQDQ01+000000PRSWM2
0097267300999992000051511504+54630+025280FM-15+0156EYVI V0202801N00621220001CN0099001N1+02301+00501999999ADDMA1101591999999MW1001REMMET045EYVI 151150Z 28012KT CAVOK 23/05 Q1016 NOSIG;EQDQ01+000000PRSWM2
0168267300999992000051909204+54630+025280FM-15+0156EYVI V0201501N004110300019N0112651N1+02201+01101999999ADDGA1021+012009999GA2071+030009999GF107991999999999999999999MA1100511999999MW1001REMMET058EYVI 190920Z 15008KT 9999 SCT040 BKN100 22/11 Q1005 NOSIG;EQDQ01+000000PRSWM2
0196267300999992000052903504+54630+025280FM-15+0156EYVI V0201501N004110300019N0112651N1+01801+01401999999ADDGA1021+010809099GA2071+030009999GF107991999999999999999999MA1100711999999MW1171REMMET070EYVI 290350Z 15008KT 9999 VCTS SCT036CB BKN100 18/14 Q1007 TEMPO TSRA;EQDQ01+000003PRSWM1Q02    003PRSWM1
0097267300999992000060909504+54630+025280FM-15+0156EYVI V0202701N00821220001CN0099001N1+01801+00801999999ADDMA1102001999999MW1001REMMET045EYVI 090950Z 27016KT CAVOK 18/08 Q1020 NOSIG;EQDQ01+000000PRSWM2
0097267300999992000060921504+54630+025280FM-15+0156EYVI V0209999999999220001CN0099001N1+01301+00801999999ADDMA1102301999999MW1001REMMET045EYVI 092150Z VRB04KT CAVOK 13/08 Q1023 NOSIG;EQDQ01+000000PRSWM2
0097267300999992000061221504+54630+025280FM-15+0156EYVI V0202801N00511220001CN0099001N1+01201+00701999999ADDMA1102101999999MW1001REMMET045EYVI 122150Z 28010KT CAVOK 12/07 Q1021 NOSIG;EQDQ01+000000PRSWM2
0097267300999992000061517504+54630+025270FM-15+0156EYVI V0202801N00511220001CN0099001N1+01601+00801999999ADDMA1100911999999MW1001REMMET045EYVI 151750Z 28010KT CAVOK 16/08 Q1009 NOSIG;EQDQ01+000000PRSWM2
0097267300999992000061921504+54630+025270FM-15+0156EYVI V0209999C00001220001CN0099001N1+01001+00701999999ADDMA1102201999999MW1001REMMET045EYVI 192150Z 00000KT CAVOK 10/07 Q1022 NOSIG;EQDQ01+000000PRSWM2
0171267300999992000062506504+54630+025270FM-15+0156EYVI V02099999999990300019N0112651N1+02101+01701999999ADDGA1021+010509029GA2071+030009999GF107991999999999999999999MA1100611999999MW1001REMMET061EYVI 250650Z VRB04KT 9999 SCT035TCU BKN100 21/17 Q1006 NOSIG;EQDQ01+000000PRSWM2
0245267300999992000062606004+54630+025270FM-12+0156EYVI V0203501N001010300019N0100001N1+01481+01061100811ADDAA199000091GF108991031081008001021999IA1019IA2999+01109KA1120N+01241MD1410001+9999OA140100101OA249900401REMSYN110AAXX  26061 26730 32597 83501 10148 20106 40081 54000 8382/ 333 20124 40/// 91001 91104 555 30011 53006 7001/;EQDQ01  00002PRCP99
0170267300999992000062710504+54630+025270FM-15+0156EYVI V0202101N007210078019N0112651N1+01501+00701999999ADDGA1071+007809099GA2071+030009999GF107991999999999999999999MA1101021999999MW1001REMMET060EYVI 271050Z 21014KT 9999 BKN026CB BKN100 15/07 Q1010 NOSIG;EQDQ01+000000PRSWM2
0168267300999992000062900504+54630+025270FM-15+0156EYVI V0202701N005110078019N0060001N1+01001+01001999999ADDGA1071+007809999GA2081+030009999GF108991999999999999999999MA1101021999999MW1001REMMET058EYVI 280050Z 27010KT 6000 BKN026 OVC100 10/10 Q1010 NOSIG;EQDQ01+000000PRSWM2
0224267300999992000062918004+54630+025270FM-12+0156EYVI V0202901N002019999999N0040001N1+01261+01031100851ADDAA112000791AY161061AY221061GF108991081001999999071999KA1120M+01711MD1310011+9999MW1101OA140100601OA249900801REMSYN104AAXX  29181 26730 /1996 82902 10126 20103 40085 53001 69902 71062 8807/ 333 10171 91006 91108 555 53010;
0188267300999992000063002504+54630+025270FM-15+0156EYVI V0202001N004110300019N0060001N1+01001+00901999999ADDGA1021+006009999GA2081+030009999GF108991999999999999999999MA1100811999999MW1611REMMET062EYVI 300250Z 20008KT 6000 -RA SCT020 OVC100 10/09 Q1008 NOSIG;EQDQ01+000003PRSWM1Q02    003PRSWM1
0239267300999992000070400004+54630+025270FM-12+0156EYVI V0202701N002019999999N0040001N1+01301+01231100741ADDAA199000021AY121061AY211061GF108991999061001501001001MA1999999098901MD1210051+9999MW1101OA140100401OA249900401REMSYN098AAXX  04001 26730 31296 82702 10130 20123 39890 40074 52005 71021 83600 333 91004 91104 555 1/012;EQDQ01+000032SCOTLC
0097267300999992000070419504+54630+025270FM-15+0156EYVI V0209999C00001220001CN0099001N1+01701+01301999999ADDMA1100811999999MW1001REMMET045EYVI 041950Z 00000KT CAVOK 17/13 Q1008 NOSIG;EQDQ01+000000PRSWM2
0168267300999992000070510504+54630+025270FM-15+0156EYVI V02099999999990099019N0112651N1+02201+01401999999ADDGA1071+009909999GA2071+060009999GF107991999999999999999999MA1100711999999MW1001REMMET058EYVI 051050Z VRB04KT 9999 BKN033 BKN200 22/14 Q1007 NOSIG;EQDQ01+000000PRSWM2
0205267300999992000070512004+54630+025270FM-12+0156EYVI V0201901N003010120019N0100001N1+02201+01291999999ADDAA199000091GF108991051021012501021999MA1999999098911MD1710031+9999OA140100601OA249900601REMSYN086AAXX  05121 26730 32697 81903 10220 20129 39891 57003 8522/ 333 91006 91106 555 1/027;EQDQ01  00002PRCP99
0180267300999992000070515504+54630+025270FM-15+0156EYVI V02099999999990099019N0080001N1+02001+01501999999ADDGA1071+009909099GA2081+030009999GF108991999999999999999999MA1100611999999MW1001REMMET070EYVI 051550Z VRB04KT 8000 BKN033CB OVC100 20/15 Q1006 TEMPO 2000 TSRA;EQDQ01+000000PRSWM2
0168267300999992000071515504+54630+025270FM-15+0156EYVI V0202201N008210033019N0080001N1+01301+01201999999ADDGA1071+003309999GA2071+030009999GF107991999999999999999999MA1100101999999MW1001REMMET058EYVI 151550Z 22016KT 8000 BKN011 BKN100 13/12 Q1001 NOSIG;EQDQ01+000000PRSWM2
0167267300999992000071721004+54630+025270FM-12+0156EYVI V0203001N004010042019N0020001N1+01481+01441100071ADDAY161031AY221031GF108991061071004501071999MD1410001+9999MW1631OA140100601REMSYN082AAXX  17211 26730 41495 83004 10148 20144 40007 54000 76362 8677/ 333 91006 91109;
0170267300999992000072407504+54630+025270FM-15+0156EYVI V0203001N005110300019N0112651N1+02001+01501999999ADDGA1021+011409099GA2071+030009999GF107991999999999999999999MA1100711999999MW1001REMMET060EYVI 240750Z 30010KT 9999 SCT038CB BKN100 20/15 Q1007 NOSIG;EQDQ01+000000PRSWM2
0145267300999992000072604504+54630+025270FM-15+0156EYVI V0202601N005110048019N0112651N1+01501+01201999999ADDGA1071+004809999GF107991999999999999999999MA1100411999999MW1001REMMET051EYVI 260450Z 26010KT 9999 BKN016 15/12 Q1004 NOSIG;EQDQ01+000000PRSWM2
0097267300999992000073119504+54630+025270FM-15+0156EYVI V0202701N00411220001CN0099001N1+01601+01301999999ADDMA1101591999999MW1001REMMET045EYVI 311950Z 27008KT CAVOK 16/13 Q1016 NOSIG;EQDQ01+000000PRSWM2
0177267300999992000073121004+54630+025270FM-12+0156EYVI V0202301N001012200019N0040001N1+01421+01221101691ADDAY121031AY211031GA1001+999999999GF100991001001999999001001MD1210091+9999MW1101OA140100201REMSYN076AAXX  31211 26730 41496 02301 10142 20122 40169 52009 71021 333 91002 91105;
0169267300999992000080222504+54630+025270FM-15+0156EYVI V0201801N006210096019N0080001N1+01801+01401999999ADDGA1071+009609999GA2081+030009999GF108991999999999999999999MA1101291999999MW1001REMMET059EYVI 022250Z 18012KT 8000 BKN032 OVC1000 18/14 Q1013 NOSIG;EQDQ01+000000PRSWM2
0187267300999992000080504504+54630+025270FM-15+0156EYVI V0202801N004110024019N0035001N1+01501+01401999999ADDGA1071+002409999GA2071+030009999GF107991999999999999999999MA1101901999999MW1101REMMET061EYVI 050450Z 28008KT 3500 BR BKN008 BKN100 15/14 Q1019 NOSIG;EQDQ01+000003PRSWM1Q02    003PRSWM1
0097267300999992000080606504+54630+025270FM-15+0156EYVI V0209999999999220001CN0099001N1+01801+01401999999ADDMA1102001999999MW1001REMMET045EYVI 060650Z VRB04KT CAVOK 18/14 Q1020 NOSIG;EQDQ01+000000PRSWM2
0170267300999992000081210504+54630+025270FM-15+0156EYVI V0202401N005110048019N0112651N1+02001+01501999999ADDGA1071+004809099GA2071+030009999GF107991999999999999999999MA1101191999999MW1001REMMET060EYVI 121050Z 24010KT 9999 BKN016CB BKN100 20/15 Q1012 NOSIG;EQDQ01+000000PRSWM2
0097267300999992000081604504+54630+025270FM-15+0156EYVI V0201801N00411220001CN0099001N1+01501+01301999999ADDMA1101491999999MW1001REMMET045EYVI 160450Z 18008KT CAVOK 15/13 Q1015 NOSIG;EQDQ01+000000PRSWM2
0192267300999992000081802544+54630+025270FM-16+0156EYVI V0202401N00211000151CN0004001N1+01401+01401999999ADDED199U09009GA1091+000159999GF109991999999000251999999MA1101191999999MW1451REMMET071EYVI 180254Z 24004KT 0400 R20/0900 R02/1400 FG VV002 14/14 Q1012 NOSIG;EQDQ01+000003PRSWM1Q02    003PRSWM1
0097267300999992000081814504+54630+025270FM-15+0156EYVI V0202601N00511220001CN0099001N1+02301+01501999999ADDMA1101491999999MW1001REMMET045EYVI 181450Z 26010KT CAVOK 23/15 Q1015 NOSIG;EQDQ01+000000PRSWM2
0170267300999992000082204504+54630+025270FM-15+0156EYVI V0200301N003110300019N0060001N1+01801+01701999999ADDGA1021+005109099GA2071+030009999GF107991999999999999999999MA1101021999999MW1001REMMET060EYVI 220450Z 03006KT 6000 SCT017CB BKN100 18/17 Q1010 NOSIG;EQDQ01+000000PRSWM2
0145267300999992000082301504+54630+025270FM-15+0156EYVI V0202301N003112200019N0080001N1+01001+00901999999ADDGA1021+009909999GF102991999999999999999999MA1101801999999MW1001REMMET051EYVI 230150Z 23006KT 8000 FEW033 10/09 Q1018 NOSIG;EQDQ01+000000PRSWM2
0209267300999992000082409504+54630+025270FM-15+0156EYVI V0202501N006210051019N0040001N1+01601+01001999999ADDGA1071+005109099GA2081+030009999GF108991999999999999999999MA1101591999999MW1801REMMET083EYVI 240950Z 25012KT 4000 -SHRA BKN017CB OVC100 16/10 Q1016 TEMPO 2000 TSRA OVC006;EQDQ01+000003PRSWM1Q02    003PRSWM1
0165267300999992000082508504+54630+025270FM-15+0156EYVI V02099999999990078019N0112651N1+01201+00901999999ADDGA1071+007809999GF107991999999999999999999MA1100611999999MW1611REMMET055EYVI 250850Z VRB04KT 9999 -RA BKN026 12/09 Q1006 NOSIG;EQDQ01+000003PRSWM1Q02    003PRSWM1
0145267300999992000082608504+54630+025270FM-15+0156EYVI V0200301N006210090019N0112651N1+01701+01101999999ADDGA1071+009009999GF107991999999999999999999MA1101901999999MW1001REMMET051EYVI 260850Z 03012KT 9999 BKN030 17/11 Q1019 NOSIG;EQDQ01+000000PRSWM2
0154267300999992000083112504+54630+025270FM-15+0156EYVI V0202901N004110300019N0112651N1+99999+99999999999ADDGA1021+009909099GA2071+030009999GF107991999999999999999999MW1001REMMET059EYVI 311250Z 29008KT 9999 SCT033CB BKN10019,13 Q1011 NOSIG;EQDQ01+000000PRSWM2
0170267300999992000090419504+54630+025270FM-15+0156EYVI V0202601N004110300019N0080001N1+01301+01101999999ADDGA1021+009909099GA2071+030009999GF107991999999999999999999MA1100711999999MW1001REMMET060EYVI 041950Z 26008KT 8000 SCT033CB BKN100 13/11 Q1007 NOSIG;EQDQ01+000000PRSWM2
0226267300999992000090512004+54630+025270FM-12+0156EYVI V0202401N005010042019N0040001N1+01131+01031100991ADDAA106000591AY161061AY251061GF108991081001004501021999MA1999999099131MD1210111+9999MW1531OA140100701OA249900901REMSYN104AAXX  05121 26730 /1496 82405 10113 20103 39913 40099 52011 75365 8802/ 333 91007 91109 555 1/014 69971;
0174267300999992000090518504+54630+025270FM-15+0156EYVI V0202501N004110012019N0040001N1+01101+01101999999ADDGA1081+001209999GF108991999999999999999999MA1101081999999MW1101MW2611REMMET058EYVI 051850Z 25008KT 4000 -RA BR OVC004 11/11 Q1011 NOSIG;EQDQ01+000003PRSWM1Q02    003PRSWM1
0226267300999992000090600004+54630+025270FM-12+0156EYVI V0203101N004010042019N0040001N1+01121+01041101211ADDAA106002891AY161061AY221061GF106991061061004501001001MA1999999099341MD1210101+9999MW1101OA140100701OA249900701REMSYN104AAXX  06001 26730 /1496 63104 10112 20104 39934 40121 52010 71062 86600 333 91007 91107 555 1/011 60031;
0273267300999992000091306004+54630+025270FM-12+0156EYVI V0201501N002019999999N0040001N1+00601+00561101571ADDAA199000091AY111061AY211061GF107991071001999999071001IA1019IA2999+00509KA1120N+00321MD1810031+9999MW1101OA140100301OA249900301REMSYN116AAXX  13061 26730 31996 71502 10060 20056 40157 58003 71011 87070 333 20032 40/// 91003 91103 555 30005 53003 7000/;EQDQ01  00002PRCP99
0098267300999992000091602504+54630+025270FM-15+0156EYVI V0209999C00001220001CN0099001N1+00301+00301999999ADDMA1102301999999MW1001REMMET046EYVI 160250Z 00000KT CAVOK 03/03 Q1023 NOSIGV;EQDQ01+000000PRSWM2
0139267300999992000091615004+54630+025270FM-12+0156EYVI V0201201N002012200019N0100001N1+01251+00061101961ADDGF103991031021008001001001MD1710091+9999OA140100301REMSYN076AAXX  16151 26730 42597 31202 10125 20006 40196 57009 83200 333 91003 91106;
0164267300999992000092000504+54630+025270FM-15+0156EYVI V0200401N003110033019N0040001N1+00701+00601999999ADDGA1081+003309999GF108991999999999999999999MA1101801999999MW1101REMMET054EYVI 200050Z 04006KT 4000 BR OVC011 07/06 Q1018 NOSIG;EQDQ01+000003PRSWM1Q02    003PRSWM1
0145267300999992000092606504+54630+025270FM-15+0156EYVI V02099999999992200019N0080001N1+01001+00501999999ADDGA1021+030009999GF104991999999999999999999MA1102811999999MW1001REMMET051EYVI 260650Z VRB04KT 8000 SCT100 10/05 Q1028 NOSIG;EQDQ01+000000PRSWM2
0097267300999992000092918504+54630+025270FM-15+0156EYVI V0201201N00411220001CN0099001N1+00901+00501999999ADDMA1102401999999MW1001REMMET045EYVI 291850Z 12008KT CAVOK 09/05 Q1024 NOSIG;EQDQ01+000000PRSWM2
0097267300999992000100101504+54630+025270FM-15+0156EYVI V0201401N00721220001CN0099001N1+00901+00501999999ADDMA1102511999999MW1001REMMET045EYVI 010150Z 14014KT CAVOK 09/05 Q1025 NOSIG;EQDQ01+000000PRSWM2
0097267300999992000100119504+54630+025270FM-15+0156EYVI V0201501N00721220001CN0099001N1+01301+00401999999ADDMA1102201999999MW1001REMMET045EYVI 011950Z 15014KT CAVOK 13/04 Q1022 NOSIG;EQDQ01+000000PRSWM2
0097267300999992000100211504+54630+025270FM-15+0156EYVI V0201501N00981220001CN0099001N1+01801+00501999999ADDMA1101591999999MW1001REMMET045EYVI 021150Z 15019KT CAVOK 18/05 Q1016 NOSIG;EQDQ01+000000PRSWM2
0168267300999992000101006504+54630+025270FM-15+0156EYVI V0201301N006210069019N0080001N1+00401+00201999999ADDGA1071+006909999GA2071+030009999GF107991999999999999999999MA1101691999999MW1001REMMET058EYVI 100650Z 13012KT 8000 BKN023 BKN100 04/02 Q1017 NOSIG;EQDQ01+000000PRSWM2
0164267300999992000101314504+54630+025270FM-15+0156EYVI V0201601N007210030019N0040001N1+01301+01101999999ADDGA1081+003009999GF108991999999999999999999MA1101901999999MW1101REMMET054EYVI 131450Z 16014KT 4000 BR OVC010 13/11 Q1019 NOSIG;EQDQ01+000003PRSWM1Q02    003PRSWM1
0164267300999992000101402504+54630+025270FM-15+0156EYVI V0201601N007210033019N0040001N1+01301+01201999999ADDGA1081+003309999GF108991999999999999999999MA1101801999999MW1101REMMET054EYVI 140250Z 16014KT 4000 BR OVC011 13/12 Q1018 NOSIG;EQDQ01+000003PRSWM1Q02    003PRSWM1
0177267300999992000101609004+54630+025270FM-12+0156EYVI V0201201N004012200019N0040001N1+01051+00741102801ADDAY141031AY201031GA1001+999999999GF100991001001999999001001MD1310071+9999MW1101OA140100701REMSYN076AAXX  16091 26730 41996 01204 10105 20074 40280 53007 71040 333 91007 91107;
0249267300999992000101612004+54630+025270FM-12+0156EYVI V0201401N005012200019N0100001N1+01371+00591102731ADDAA199000091AY141061AY201061GA1001+999999999GF100991001001999999001001MA1999999100851MD1810051+9999MW1021OA140100801OA249900801REMSYN092AAXX  16121 26730 31997 01405 10137 20059 30085 40273 58005 70240 333 91008 91108 555 1/021;EQDQ01  00002PRCP99
0097267300999992000102113504+54630+025270FM-15+0156EYVI V0201801N00511220001CN0099001N1+01101+00101999999ADDMA1103691999999MW1001REMMET045EYVI 211350Z 18010KT CADOK 11/01 Q1037 NOSIG;EQDQ01+000000PRSWM2
0149267300999992000102215004+54630+025270FM-12+0156EYVI V0201801N005012200019N0100001N1+01031+00041103131ADDGA1001+999999999GF100991001001999999001001MD1710111+9999OA140100701REMSYN070AAXX  22151 26730 42997 01805 10103 20004 40313 57011 333 91007 91110;
0187267300999992000102601504+54630+025270FM-15+0156EYVI V0202101N006210069019N0040001N1+00801+00801999999ADDGA1071+006909999GA2081+030009999GF108991999999999999999999MA1100201999999MW1101REMMET061EYVI 260150Z 21012KT 4000 BR BKN023 OVC100 08/08 Q1002 NOSIG;EQDQ01+000003PRSWM1Q02    003PRSWM1
0168267300999992000102808504+54630+025270FM-15+0156EYVI V02099999999990036019N0080001N1+00601+00401999999ADDGA1071+003609999GA2071+030009999GF107991999999999999999999MA1101801999999MW1001REMMET058EYVI 280850Z VRB04KT 8000 BKN012 BKN100 06/04 Q1018 NOSIG;EQDQ01+000000PRSWM2
0173267300999992000110308504+54630+025270FM-15+0156EYVI V0201501N005110009019N0024001N1+00501+00501999999ADDGA1081+000909999GF108991999999999999999999MA1101691999999MW1101REMMET063EYVI 030850Z 15010KT 2400 BR OVC003 05/05 Q1017 NOSIG 200///60;EQDQ01+000003PRSWM1Q02    003PRSWM1
0177267300999992000110314504+54630+025270FM-15+0156EYVI V0201201N005110600019N0060001N1+00601+00501999999ADDGA1021+004809999GA2071+060009999GF107991999999999999999999MA1101591999999MW1001REMMET067EYVI 031450Z 12010KT 6000 SCT016 BKN200 06/05 Q1016 NOSIG 200///60;EQDQ01+000000PRSWM2
0154267300999992000110416504+54630+025270FM-15+0156EYVI V0201601N008210048019N0060001N1+01101+00801999999ADDGA1071+004809999GF107991999999999999999999MA1101291999999MW1001REMMET060EYVI 041650Z 16016KT 6000 BKN016 11/08 Q1013 NOSIG 200///60;EQDQ01+000000PRSWM2
0196267300999992000111220504+54630+025270FM-15+0156EYVI V0201601N006210300019N0040001N1+00301+00201999999ADDGA1021+009009999GA2071+030009999GF107991999999999999999999MA1101901999999MW1101REMMET070EYVI 122050Z 16012KT 4000 BR FEW030 BKN100 03/02 Q1019 NOSIG 200///60;EQDQ01+000003PRSWM1Q02    003PRSWM1
0206267300999992000113022504+54630+025270FM-15+0156EYVI V0201801N00411000151CN0007001N1+00401+00401999999ADDED199U18009GA1091+000159999GF109991999999000251999999MA1101801999999MW1451REMMET085EYVI 302250Z 18008KT 0700 R20/1800 R02/1900 FG VV002 04/04 Q1018 BECMG 0400 202///50;EQDQ01+000003PRSWM1Q02    003PRSWM1
0261267300999992000120200004+54630+025270FM-12+0156EYVI V0202501N002010021019N0040001N1+00241+00141102071ADDAA199000091AY121061AY221061GA1081+002109079GF108991081061002501999999MA1999999100131MD1210021+9999MW1101OA140100501OA249900601REMSYN104AAXX  02001 26730 31396 82502 10024 20014 30013 40207 52002 71022 886// 333 88707 91005 91106 555 1/003;EQDQ01  00002PRCP99
0173267300999992000120804504+54630+025270FM-15+0156EYVI V0201601N006210033019N0040001N1+00201+00101999999ADDGA1081+003309999GF108991999999999999999999MA1101901999999MW1101REMMET063EYVI 080450Z 16012KT 4000 BR OVC011 02/01 Q1019 NOSIG 201///60;EQDQ01+000003PRSWM1Q02    003PRSWM1
0176267300999992000122009504+54630+025270FM-15+0156EYVI V0200101N003110060019N0080001N1-00401-00901999999ADDGA1081+006009999GF108991999999999999999999MA1103121999999MW1711REMMET066EYVI 200950Z 01006KT 8000 -SN OVC020 M04/M09 Q1031 NOSIG 021///50;EQDQ01+000003PRSWM1Q02    003PRSWM1
0198267300999992000122600504+54630+025270FM-15+0156EYVI V0200401N004110015019N0030001N1-00401-00501999999ADDGA1071+001509999GA2071+030009999GF107991999999999999999999MA1100101999999MW1101REMMET072EYVI 260050Z 04008KT 3000 BR BKN005 BKN100 M04/M05 Q1001 NOSIG 20490330;EQDQ01+000003PRSWM1Q02    003PRSWM1
0167267300999992000123015004+54630+025270FM-12+0156EYVI V0200701N003010042019N0020001N1-00051-00111100381ADDAY171031AY221031GF108991081061004501999999MD1710141+9999MW1101OA140100501REMSYN082AAXX  30151 26730 41495 80703 11005 21011 40038 57014 71072 886// 333 91005 91106;
0189267370999992000020615004+54250+024550FM-12+011199999V0202401N003010075019N0040001N1+00521+00471101291ADDAY121031AY221031GA1071+007509069GF107991071051008001999999MD1710161+9999MW1101OA140100401REMSYN088AAXX  06151 26737 41596 72403 10052 20047 40129 57016 71022 875// 333 87625 91004 91106;
0260267370999992000021106004+54250+024550FM-12+011199999V0201801N002010300019N0100001N1+00071-00071101391ADDAA199000091AJ199992999999999GF108991021051012501031001IA1259KA1120N+00071MD1710201+9999OA140100301OA249900901REMSYN104AAXX  11061 26737 32697 81802 10007 21007 40139 57020 82530 333 20007 41998 91003 91109 555 53009 7995/;EQDQ01  00002PRCP99Q02  09972SNDP  
0214267370999992000030406004+54250+024550FM-12+011199999V0202101N004010120019N0100001N1+00191-00121099711ADDAA112003091GF106991061021012501001001IA1289KA1120N+00191MD1210091+9999OA140100501OA249900701REMSYN110AAXX  04061 26737 12697 62104 10019 21012 49971 52009 60032 86200 333 20019 44/// 91005 91107 555 53014 7003/;
0231267370999992000030506004+54250+024550FM-12+011199999V0202201N002010120019N0100001N1-00431-00521101031ADDAA112000591AJ100019199999999GF105991051021012501001001IA1279KA1120N-00451MD1210041+9999OA140100301OA249900401REMSYN110AAXX  05061 26737 32697 52202 11043 21052 40103 52004 69962 85200 333 21045 43001 91003 91104 555 53008 7999/;
0255267370999992000030612004+54250+024550FM-12+011199999V0202701N004010750019N0100001N1+00381-00851101851ADDAA106000791AJ100019199999999AY171061AY221061GF105991021011012501031021IA1239MA1999999100471MD1810201+9999MW1031OA140100601OA249901001REMSYN110AAXX  06121 26737 /1697 52704 10038 21085 30047 40185 58020 70372 82132 333 91006 91110 555 1/002 47001 69901;
0139267370999992000042015004+54250+024550FM-12+011199999V0201801N003012200019N0100001N1+02361+00591101501ADDGF102991001001999999001011MD1710071+9999OA140100401REMSYN076AAXX  20151 26737 42997 21803 10236 20059 40150 57007 80001 333 91004 91106;
0211267370999992000051012004+54250+024550FM-12+011199999V0209999C000019999999N0100001N1+02161+00001101791ADDAA199000091GF106991001001999999001031MA1999999100501MD1710081+9999OA140100001OA249900401REMSYN092AAXX  10121 26737 32997 60000 10216 20000 30050 40179 57008 80003 333 91000 91104 555 10041;EQDQ01  00002PRCP99
0211267370999992000052800004+54250+024550FM-12+011199999V0201801N004012200019N0100001N1+02011+01051101261ADDAA199000091GF102991021051012501001001MA1999999099971MD1810061+9999OA140100501OA249900701REMSYN092AAXX  28001 26737 32697 21804 10201 20105 39997 40126 58006 82500 333 91005 91107 555 10016;EQDQ01  00002PRCP99
0231267370999992000053118004+54250+024550FM-12+011199999V0209999C000010072019N0100001N1+01421+00411101781ADDAA199000091GA1081+007209099GF108991081031008001999999KA1120M+01761MD1310181+9999OA140100001OA249900201REMSYN098AAXX  31181 26737 32597 80000 10142 20041 40178 53018 883// 333 10176 88924 91000 91102 555 53005;EQDQ01  00002PRCP99
0249267370999992000061400004+54250+024540FM-12+011199999V0209999C000012200019N0040001N1+01201+01121101931ADDAA199000091AY101061AY201061GA1001+999999999GF100991001001999999001001MA1999999100601MD1710151+9999MW1101OA140100001OA249900101REMSYN092AAXX  14001 26737 32996 00000 10120 20112 30060 40193 57015 71000 333 91000 91101 555 1/014;EQDQ01  00002PRCP99
0139267370999992000062121004+54250+024540FM-12+011199999V0209999C000012200019N0100001N1+01671+01551101101ADDGF103991031051012501031001MD1710031+9999OA140100001REMSYN076AAXX  21211 26737 42697 30000 10167 20155 40110 57003 83530 333 91000 91100;
0158267370999992000062909004+54250+024540FM-12+011199999V0203101N003010120019N0100001N1+01471+00621100871ADDGF107991999031012501001001MD1410001+9999OA140100401REMSYN076AAXX  29091 26737 42697 73103 10147 20062 40087 54000 85300 333 91004 91108;EQDQ01+000052SCOTLC
0167267370999992000063009004+54250+024540FM-12+011199999V0202701N003010075019N0100001N1+01381+01071101051ADDAY161031AY221031GF108991061051008001031999MD1210051+9999MW1021OA149900401REMSYN082AAXX  30091 26737 41597 82703 10138 20107 40105 52005 70262 8653/ 333 91104 91106;
0227267370999992000070806004+54250+024540FM-12+011199999V0209999C000010300019N0100001N1+01441+00921100941ADDAA199000091GF106991021051012501031011IA1259KA1120N+00701MD1310021+9999OA140100001OA249900001REMSYN104AAXX  08061 26737 32697 60000 10144 20092 40094 53002 82531 333 20070 41/// 91000 91100 555 53004 7000/;EQDQ01  00002PRCP99
0226267370999992000071912004+54250+024540FM-12+011199999V0202301N002010120019N0100001N1+01601+01131100991ADDAA106000391AY161061AY221061GF107991071051012501999999MA1999999099681MD1810051+9999MW1021OA140100301OA249900601REMSYN104AAXX  19121 26737 31697 72302 10160 20113 39968 40099 58005 70262 875// 333 91003 91106 555 1/020 69931;
0189267370999992000073015004+54250+024540FM-12+011199999V0200101N003010057019N0040001N1+01681+01591100901ADDAY121031AY221031GA1081+005709069GF108991081081004501999999MD1210191+9999MW1251OA140100401REMSYN088AAXX  30151 26737 41496 80103 10168 20159 40090 52019 72522 888// 333 88619 91004 91107;
0202267370999992000080503004+54250+024540FM-12+011199999V0209999C000010300019N0020001N1+01221+01201101981ADDAY111031AY211031GF106991031081008001031091GJ104449MD1210061+9999MW1101OA140100001OA249900001REMSYN098AAXX  05031 26737 41595 60000 10122 20120 40198 52006 71011 83839 333 55074 91000 91100 555 20122;
0227267370999992000081712004+54250+024540FM-12+011199999V0202801N003019999999N0100001N1+02161+01561101731ADDAA199000091GF105991051001008001031001MA1999999100411MD1410001+9999OA140199999OA249900301REMSYN092AAXX  17121 26737 32597 52803 10216 20156 30041 40173 54000 85030 333 91002 91103 555 1/023;EQDQ01  00002PRCP99Q02  00202WGOSPD
0249267370999992000092400004+54250+024540FM-12+011199999V0209999C000012200019N0040001N1-00221-00261103491ADDAA199000091AY101061AY201061GA1001+999999999GF100991001001999999001001MA1999999102061MD1210011+9999MW1101OA140100001OA249900001REMSYN092AAXX  24001 26737 31996 00000 11022 21026 30206 40349 52001 71000 333 91000 91100 555 1/102;EQDQ01  00002PRCP99
0139267370999992000092609004+54250+024540FM-12+011199999V0201101N001010300019N0100001N1+01401+00361102871ADDGF106991041011012501031001MD1210011+9999OA140100201REMSYN076AAXX  26091 26737 42697 61101 10140 20036 40287 52001 84130 333 91002 91104;
0144267370999992000100103004+54250+024540FM-12+011199999V0201401N003012200019N0100001N1+00881+00431102501ADDGA1001+999999999GF100991001001999999001001MD1410001+9999REMSYN076AAXX  01031 26737 42997 01403 10088 20043 40250 54000 555 55100 91004 91107;
0249267370999992000100500004+54250+024540FM-12+011199999V0209999C000012200019N0040001N1+00701+00651102461ADDAA199000091AY101061AY201061GA1001+999999999GF100991001001999999001001MA1999999101091MD1410001+9999MW1101OA140100001OA249900101REMSYN092AAXX  05001 26737 31996 00000 10070 20065 30109 40246 54000 71000 333 91000 91101 555 1/006;EQDQ01  00002PRCP99
0139267370999992000102515004+54250+024540FM-12+011199999V0201901N002010300019N0100001N1+01061+00681100901ADDGF106991021051012501031001MD1710121+9999OA140100301REMSYN076AAXX  25151 26737 42697 61902 10106 20068 40090 57012 82530 333 91003 91107;
0300267370999992000122506004+54250+024540FM-12+011199999V0202001N001010030019N0040001N1-00321-00491100351ADDAA112000191AJ100049199999999AY171061AY221061GA1081+003009059GF108991999071004501021999IA1239KA1120N-00321MD1810051+9999MW1701OA140100201OA249900301REMSYN122AAXX  25061 26737 11496 82001 11032 21049 40035 58005 69922 77072 8872/ 333 21032 47004 88510 91002 91103 555 53004 7995/;EQDQ01+000082SCOTLC
0173267630999992000010103004+54520+030380FM-12+019299999V0202301N002012200019N0100001N1-00481-00541102191ADDAA112000591AY171031AY221031GF103991031001999999031011MD1210061+9999MW1011REMSYN088AAXX  01031 26763 /1960 32302 11048 21054 40219 52006 70172 83031 555 21049 69952 7001/;
0140267630999992000010215004+54520+030380FM-12+019299999V0209999C000019999999N0060001N1-00861-00891102601ADDAY121031AY221031GF108991081001999999021999MD1710021+9999MW1101REMSYN066AAXX  02151 26763 41956 80000 11086 21089 40260 57002 71022 8802/;
0188267630999992000011403004+54520+030380FM-12+019299999V0202601N005010042019N0100001N1-00591-00741102941ADDAA199000091GA1081+004209079GF108991081061004501999999MD1710011+9999REMSYN090    AAXX  14031 26763 32460 82605 11059 21074 40294 57001 886// 333 88714 555 21078 7000/;EQDQ01  00002PRCP99
0170267630999992000011615004+54520+030380FM-12+019299999V0202501N002010045019N0048001N1-00551-00621101981ADDAY171031AY271031GA1081+004509069GF108991081061004501999999MD1710161+9999MW1101REMSYN080    AAXX  16151 26763 41448 82502 11055 21062 40198 57016 71077 886// 333 88715;
0144267630999992000012715004+54520+030380FM-12+019299999V0203001N005010090019N0150001N1+00061-00371100471ADDGA1071+009009069GF107991071051008001999999MD1210201+9999REMSYN076AAXX  27151 26763 42565 73005 10006 21037 40047 52020 875// 333 87630 91110;
0162267630999992000022318004+54520+030380FM-12+019299999V0203201N004012200019N0150001N1-00861-01571102221ADDAA112000791GA1001+999999999GF100991001001999999001001KA1999M-00601MD1210111+9999REMSYN070AAXX  23181 26763 12965 03204 11086 21157 40222 52011 69902 333 11060;
0226267630999992000031106004+54520+030380FM-12+019299999V0202901N004010081019N0150001N1-00441-00711100871ADDAA199000091AJ100019199999999GA1071+008109069GF107991071051008001001001IA1239KA1120N-00561MD1210121+9999REMSYN092AAXX  11061 26763 32565 72904 11044 21071 40087 52012 87500 333 21056 47001 87627 555 90012;EQDQ01  00002PRCP99
0227267630999992000031518004+54520+030380FM-12+019299999V0202001N005010027019N0045001N1+00041+00011100111ADDAA112002091AY171061AY221061GA1081+002709079GF108991999071002501021999KA1120M+00361MD1410001+9999MW1711REMSYN094AAXX  15181 26763 11345 82005 10004 20001 40011 54000 60022 77172 8872/ 333 10036 88709 91113;EQDQ01+000082SCOTLC
0197267630999992000040100004+54520+030380FM-12+019299999V0201701N003010021019N0045001N1+00271+00241100521ADDAY121061AY221061GA1081+002109079GF108991081061002501999999MA1999999098251MD1710181+9999MW1101REMSYN092AAXX  01001 26763 41345 81703 10027 20024 39825 40052 57018 71022 886// 333 88707 555 12002;
0255267630999992000041006004+54520+030380FM-12+019299999V0202001N001010033019N0080001N1+00291+00161101941ADDAA199000091AY121061AY221061GA1081+003309079GF108991081061004501999999IA1119IA2999+00309KA1120N+00261MD1210141+9999MW1101REMSYN104AAXX  10061 26763 31458 82001 10029 20016 40194 52014 71022 886// 333 20026 88711 555 32003 52002 90012;EQDQ01  00002PRCP99
0214267630999992000041103004+54520+030380FM-12+019299999V0209999C000010066019N0100001N1+00241+00191101581ADDAA199000091GA1071+006609069GF107991071051008001999999IA1119IA2999+00109MD1810161+9999REMSYN098AAXX  11031 26763 32560 70000 10024 20019 40158 58016 875// 333 87622 555 20011 32001 52001 7000/;EQDQ01  00002PRCP99
0143267630999992000042112004+54520+030380FM-12+019299999V0201201N003012200019N0150001N1+02121+00701101641ADDGF105991021011008001001011MA1999999099491MD1810061+9999REMSYN076AAXX  21121 26763 42565 51203 10212 20070 39949 40164 58006 82101 555 11029;
0175267630999992000042418004+54520+030380FM-12+019299999V0201301N002012200019N0150001N1+01621+01121101781ADDAA199000091GA1001+999999999GF100991001001999999001001KA1999M+02271MD1710101+9999REMSYN064AAXX  24181 26763 32965 01302 10162 20112 40178 57010 333 10227;EQDQ01  00002PRCP99
0227267630999992000050406004+54520+030380FM-12+019299999V0202301N001010120019N0100001N1+00831+00061101971ADDAA199000091GA1071+012009069GF107991071051012501999999IA1019IA2999+00109KA1120N+00181MD1710061+9999REMSYN098AAXX  04061 26763 32660 72301 10083 20006 40197 57006 875// 333 20018 87640 555 30001 52001 90012;EQDQ01  00002PRCP99
0143267630999992000051112004+54520+030380FM-12+019299999V0202601N005010300019N0150001N1+02121+00251100631ADDGF107991021011008001071999MA1999999098501MD1710191+9999REMSYN076AAXX  11121 26763 42565 72605 10212 20025 39850 40063 57019 8217/ 555 10030;
0153267630999992000051900004+54520+030380FM-12+019299999V0201501N002012200019N0150001N1+00871+00411101101ADDGA1001+999999999GF100991001001999999001001MA1999999098871MD1810021+9999REMSYN070AAXX  19001 26763 42965 01502 10087 20041 39887 40110 58002 555 10006;
0112267630999992000053109004+54520+030380FM-12+019299999V0203301N004010300019N0100001N1+01371+00851101471ADDGF108991021091008001021999MD1210131+9999REMSYN060AAXX  31091 26763 42560 83304 10137 20085 40147 52013 8292/;
0122267630999992000061021004+54520+030380FM-12+019299999V0203401N002012200019N0150001N1+01071+00741102361ADDGA1001+999999999GF100991001001999999001001MD1210061+9999REMSYN054AAXX  10211 26763 42965 03402 10107 20074 40236 52006;
0169267630999992000071800004+54510+030380FM-12+019299999V0200401N001010042019N0100001N1+01551+01371100271ADDGA1051+004209099GF108991051091004501071999MA1999999098111MD1710101+9999REMSYN086AAXX  18001 26763 42460 80401 10155 20137 39811 40027 57010 8597/ 333 85914 555 12016;
0138267630999992000072809004+54510+030380FM-12+019299999V0202401N003010051019N0100001N1+01581+01311100691ADDGA1081+005109099GF108991081091004501999999MD1210101+9999REMSYN070AAXX  28091 26763 42460 82403 10158 20131 40069 52010 889// 333 88917;
0197267630999992000081700004+54510+030380FM-12+019299999V0202601N001010060019N0100001N1+01691+01411101221ADDAY181061AY221061GA1071+006009069GF107991071051008001999999MA1999999099061MD1810041+9999MW1021REMSYN092AAXX  17001 26763 41560 72601 10169 20141 39906 40122 58004 70282 875// 333 87620 555 11017;
0169267630999992000081812004+54510+030380FM-12+019299999V0202501N003010039019N0100001N1+02281+01531101251ADDGA1051+003909099GF107991051091004501031001MA1999999099131MD1210031+9999REMSYN086AAXX  18121 26763 42460 72503 10228 20153 39913 40125 52003 85930 333 85913 555 10038;
0197267630999992000082512004+54510+030380FM-12+019299999V0202001N003010090019N0100001N1+01221+01031100821ADDAY161061AY221061GA1061+009009099GF108991061091008001071999MA1999999098631MD1710031+9999MW1021REMSYN092AAXX  25121 26763 41560 82003 10122 20103 39863 40082 57003 70262 8697/ 333 86930 555 12015;
0242267630999992000090306004+54510+030380FM-12+019299999V0201101N002010048019N0040001N1+01401+01311100641ADDAA112003091AY181061AY221061GA1061+004809099GF108991061091004501021999IA1119IA2999+01209KA1120N+01321MD1710061+9999MW1101REMSYN110AAXX  03061 26763 11440 81102 10140 20131 40064 57006 60032 71082 8692/ 333 20132 86916 555 32012 52012 90012;
0211267630999992000091306004+54510+030380FM-12+019299999V0203001N001010300019N0100001N1+00771+00641101481ADDAA199000091GF105991031091008001031001IA1099IA2999+00109KA1120N+00341MD1210051+9999REMSYN098AAXX  13061 26763 32560 53001 10077 20064 40148 52005 83930 333 20034 555 31001 52000 90013 95300;EQDQ01  00002PRCP99
0138267630999992000091809004+54510+030380FM-12+019299999V0201001N006010069019N0150001N1+01081+00251102361ADDGA1061+006909099GF106991061091008001001001MD1810031+9999REMSYN070AAXX  18091 26763 42565 61006 10108 20025 40236 58003 86900 333 86923;
0138267630999992000101721004+54510+030380FM-12+019299999V0200901N003010069019N0100001N1+00581+00211103411ADDGA1071+006909059GF107991071051012501999999MD1210061+9999REMSYN070AAXX  17211 26763 42660 70903 10058 20021 40341 52006 875// 333 87623;
0166267630999992000110109004+54510+030380FM-12+019299999V0201701N005010030019N0080001N1+00931+00701101281ADDAY121031AY221031GA1081+003009069GF108991081061004501999999MD1210091+9999MW1101REMSYN076AAXX  01091 26763 42458 81705 10093 20070 40128 52009 71022 886// 333 88710;
0197267630999992000112606004+54510+030380FM-12+019299999V0201501N006010030019N0100001N1-00681-00801102921ADDAA199000091GA1081+003009079GF108991081061004501999999KA1120N-00711MD1710111+9999REMSYN086AAXX  26061 26763 32460 81506 11068 21080 40292 57011 886// 333 21071 88710 555 90012;EQDQ01  00002PRCP99
0168267630999992000112703004+54510+030380FM-12+019299999V0201301N007012200019N0150001N1-00751-01011102711ADDAA199000091GA1001+999999999GF100991001001999999001001MD1310011+9999REMSYN070AAXX  27031 26763 32965 01307 11075 21101 40271 53001 555 21075 7000/;EQDQ01  00002PRCP99
0138267630999992000122421004+54510+030380FM-12+019299999V0202301N002010054019N0100001N1-00271-00401100191ADDGA1081+005409069GF108991081061004501999999MD1310061+9999REMSYN070AAXX  24211 26763 42460 82302 11027 21040 40019 53006 886// 333 88718;
0138267630999992000122515004+54510+030380FM-12+019299999V0201201N001010048019N0100001N1-00371-00521100461ADDGA1081+004809069GF108991081061004501999999MD1810061+9999REMSYN070AAXX  25151 26763 42460 81201 11037 21052 40046 58006 886// 333 88716;
0138267810999992000011121004+54750+032070FM-12+024199999V0202901N003010060019N0100001N1-00111-00471103321ADDGA1081+006009059GF108991081051004501999999MD1210011+9999REMSYN070AAXX  11211 26781 42497 82903 11011 21047 40332 52001 885// 333 88620;
0166267810999992000012115004+54750+032070FM-12+024199999V0203101N004010042019N0040001N1-01291-01641099231ADDAY181031AY231031GA1071+004209099GF107991071091004501001001MD1210211+9999MW1851REMSYN076AAXX  21151 26781 41496 73104 11129 21164 49923 52021 78583 87900 333 87914;
0122267810999992000012509004+54750+032070FM-12+024199999V0203201N002012200019N0100001N1-01841-02101101441ADDGA1001+999999999GF100991001001999999001001MD1710011+9999REMSYN054AAXX  25091 26781 42997 03202 11184 21210 40144 57001;
0166267810999992000020221004+54750+032070FM-12+024199999V0202701N005010042019N0100001N1+00141+00061099491ADDAY161031AY221031GA1081+004209029GF108991081021004501999999MD1710011+9999MW1021REMSYN076AAXX  02211 26781 41497 82705 10014 20006 49949 57001 70262 882// 333 88514;
0166267810999992000021309004+54750+032070FM-12+024199999V0202201N003010039019N0100001N1+00021-00091101901ADDAY171031AY221031GA1051+003909069GF107991051051004501071999MD1710101+9999MW1021REMSYN076AAXX  13091 26781 41497 72203 10002 21009 40190 57010 70272 8557/ 333 85713;
0122267810999992000030821004+54750+032070FM-12+024199999V0202501N001012200019N0100001N1-00351-00531100011ADDGA1001+999999999GF100991001001999999001001MD1810061+9999REMSYN054AAXX  08211 26781 42997 02501 11035 21053 40001 58006;
0133267810999992000030900004+54750+032070FM-12+024199999V0202101N001019999999N0100001N1-00281-00411099701ADDGF107991071001999999031001MA1999999096771MD1710281+9999REMSYN066AAXX  09001 26781 42997 72101 11028 21041 39677 49970 57028 87030;
0112267810999992000031315004+54750+032070FM-12+024199999V0202801N001019999999N0100001N1-00021-00791102201ADDGF105991051001999999031001MD1210011+9999REMSYN060AAXX  13151 26781 42997 52801 11002 21079 40220 52001 85030;
0166267810999992000033109004+54750+032070FM-12+024199999V0201601N003010018019N0040001N1+00091+00061101601ADDAY121031AY221031GA1081+001809069GF108991081061001501999999MD1410001+9999MW1101REMSYN076AAXX  31091 26781 41296 81603 10009 20006 40160 54000 71022 886// 333 88706;
0133267810999992000041612004+54750+032070FM-12+024199999V0201401N003019999999N0100001N1+01661+01221101051ADDGF106991061001999999031001MA1999999098271MD1710111+9999REMSYN066AAXX  16121 26781 42997 61403 10166 20122 39827 40105 57011 86030;
0175267810999992000050218004+54750+032070FM-12+024199999V0203601N002012200019N0100001N1+00561-00871102311ADDAA199000091GA1001+999999999GF100991001001999999001001KA1999M+00911MD1710041+9999REMSYN064AAXX  02181 26781 32997 03602 10056 21087 40231 57004 333 10091;EQDQ01  00002PRCP99
0143267810999992000051000004+54750+032070FM-12+024199999V0203301N001012200019N0100001N1+00661+00301101921ADDGA1001+999999999GF100991001001999999001001MA1999999099021MD1810031+9999REMSYN060AAXX  10001 26781 42997 03301 10066 20030 39902 40192 58003;
0112267810999992000052815004+54750+032070FM-12+024199999V0202001N004012200019N0100001N1+02621+01331101471ADDGF101991001001999999001011MD1710161+9999REMSYN060AAXX  28151 26781 42997 12004 10262 20133 40147 57016 80001;
0116267810999992000060321004+54750+032070FM-12+024199999V0209999C000010042019N0100001N1+01541+01191101581ADDGF107991051091004501031999MD1410001+9999REMSYN064AAXX  03211 26781 42497 70000 10154 20119 40158 54000 8593/ 333;
0172267810999992000070403004+54750+032690FM-12+024199999V0209999C000010009019N0020001N1+01171+01151100051ADDAY181031AY221031GA1071+000909069GF108991081091000751999999MD1710161+9999MW1811REMSYN082AAXX  04031 26781 41195 80000 10117 20115 40005 57016 78182 889// 333 55/// 87703;
0165267810999992000070518004+54750+032690FM-12+024199999V0203001N001019999999N0100001N1+01961+01591100741ADDAA199000091GF107991041051999999031001KA1999M+02311MD1710051+9999REMSYN070AAXX  05181 26781 32997 73001 10196 20159 40074 57005 84530 333 10231;EQDQ01  00002PRCP99
0122267810999992000070603004+54750+032690FM-12+024199999V0201101N001019999999N0100001N1+01441+01381100701ADDGF107991051001999999031011MD1710011+9999REMSYN070AAXX  06031 26781 42997 71101 10144 20138 40070 57001 85031 333 55///;
0112267810999992000071709004+54750+032690FM-12+024199999V0201601N003010075019N0100001N1+02021+01511100421ADDGF107991051091008001031001MD1310021+9999REMSYN060AAXX  17091 26781 42597 71603 10202 20151 40042 53002 85930;
0112267810999992000091315004+54750+032070FM-12+024199999V0203201N002010300019N0100001N1+01201+00681101441ADDGF107991011091008001031011MD1210021+9999REMSYN060AAXX  13151 26781 42597 73202 10120 20068 40144 52002 81931;
0133267810999992000091912004+54750+032070FM-12+024199999V0201001N003019999999N0100001N1+01111+00361102231ADDGF107991071001999999071999MA1999999099361MD1710011+9999REMSYN066AAXX  19121 26781 42997 71003 10111 20036 39936 40223 57001 8707/;
0122267810999992000101921004+54750+032070FM-12+024199999V0209999C000012200019N0100001N1-00171-00341103921ADDGA1001+999999999GF100991001001999999001001MD1410001+9999REMSYN054AAXX  19211 26781 42997 00000 11017 21034 40392 54000;
0171267810999992000102312004+54750+032070FM-12+024199999V0202701N001010003019N0005001N1+00561+00471102621ADDAY181061AY241061GA1091+999999999GF109991091999999999999999MA1999999099691MD1710031+9999MW1471REMSYN066AAXX  23121 26781 41/93 92701 10056 20047 39969 40262 57003 74784;
0190267810999992000102318004+54750+032070FM-12+024199999V0203101N001010003019N0005001N1+00571+00571102531ADDAA112002091AY141061AY221061GA1091+999999999GF109991091999999999999999KA1999M+00581MD1710011+9999MW1451REMSYN076AAXX  23181 26781 11/93 93101 10057 20057 40253 57001 60022 74542 333 10058;
0138267810999992000110121004+54750+032070FM-12+024199999V0201901N002010033019N0100001N1+00821+00621101611ADDGA1081+003309069GF108991081061004501999999MD1210061+9999REMSYN070AAXX  01211 26781 42497 81902 10082 20062 40161 52006 886// 333 88711;
0171267810999992000110400004+54750+032070FM-12+024199999V0201601N001010003019N0005001N1+00781+00781102291ADDAY161061AY241061GA1091+999999999GF109991091999999999999999MA1999999099391MD1210101+9999MW1471REMSYN066AAXX  04001 26781 41/93 91601 10078 20078 39939 40229 52010 74764;
0150267810999992000111415004+54750+032070FM-12+024199999V0201501N003010003019N0005001N1+00381+00361101961ADDAY151031AY241031GA1091+999999999GF109991091999999999999999MD1710081+9999MW1511REMSYN060AAXX  14151 26781 41/93 91503 10038 20036 40196 57008 75154;
0231267810999992000122706004+54750+032070FM-12+024199999V0200701N003010042019N0040001N1-00921-01171100731ADDAA112000791AJ100179199999999AY181061AY221061GA1081+004209099GF108991081091004501999999IA1239KA1120N-01011MD1710121+9999MW1851REMSYN094AAXX  27061 26781 11496 80703 11092 21117 40073 57012 69902 78582 889// 333 21101 47017 88914;
0212268250999992000010903004+53680+023830FM-12+013599999V0202101N003010018019N0040001N1+00121-00021102201ADDAA106000091AY121031AY221031GA1081+001809079GF108991081061001501999999MD1410001+9999MW1101REMSYN092AAXX  09031 26825 31240 82103 10012 21002 40220 54000 71022 886// 333 88706 555 20010 7000/;EQDQ01  00002PRCP06
0165268250999992000022018004+53680+023830FM-12+013599999V0203201N004012200019N0100001N1-00351-00671101751ADDAA199000091GF102991001001999999001021KA1999M-00201MD1210171+9999REMSYN070AAXX  20181 26825 32960 23204 11035 21067 40175 52017 80002 333 11020;EQDQ01  00002PRCP99
0122268250999992000030315004+53680+023830FM-12+013599999V0201801N012019999999N0100001N1+00471-00301099951ADDGF107991071001999999071999MD1710391+9999REMSYN070AAXX  03151 26825 42960 71812 10047 21030 49995 57039 8707/ 333 91118;
0172268250999992000031421004+53680+023830FM-12+013599999V0201901N006010048019N0060001N1+00461+00181100561ADDAY181031AY221031GA1081+004809099GF108991081031004501999999MD1710311+9999MW1801REMSYN082AAXX  14211 26825 41456 81906 10046 20018 40056 57031 78082 883// 333 88916 91110;
0153268250999992000032500004+53680+023830FM-12+013599999V0203001N005012200019N0100001N1-00101-00461101901ADDGA1001+999999999GF100991001001999999001001MA1999999100211MD1210081+9999REMSYN070AAXX  25001 26825 42960 03005 11010 21046 30021 40190 52008 555 14103;
0190268250999992000033106004+53680+023830FM-12+013599999V0201301N003010003019N0005001N1+00481+00481100611ADDAA112000791AY151061AY241061GA1091+999999999GF109991091999999999999999KA1999N+00361MD1710111+9999MW1511REMSYN076AAXX  31061 26825 11/05 91303 10048 20048 40061 57011 69902 75154 333 20036;
0138268250999992000040315004+53680+023830FM-12+013599999V0209999C000010090019N0100001N1+00261+00041100801ADDGA1051+009009029GF105991051011008001001001MD1710051+9999REMSYN070AAXX  03151 26825 42560 50000 10026 20004 40080 57005 85100 333 85830;
0143268250999992000042312004+53680+023830FM-12+013599999V0209999C000012200019N0100001N1+02531+00921101591ADDGF103991031011008001001001MA1999999100041MD1810131+9999REMSYN076AAXX  23121 26825 42560 30000 10253 20092 30004 40159 58013 83100 555 11033;
0112268250999992000050509004+53680+023830FM-12+013599999V0200501N004019999999N0100001N1+01401+00301102141ADDGF106991001001999999001011MD1210061+9999REMSYN060AAXX  05091 26825 42960 60504 10140 20030 40214 52006 80001;
0138268250999992000052209004+53680+023830FM-12+013599999V0203001N004010090019N0100001N1+01841+00741100921ADDGA1061+009009029GF106991061011008001001001MD1210031+9999REMSYN070AAXX  22091 26825 42560 63004 10184 20074 40092 52003 86100 333 86830;
0165268250999992000052418004+53680+023830FM-12+013599999V0209999C000019999999N0100001N1+01711+00701101661ADDAA199000091GF106991001001999999001021KA1999M+02101MD1710031+9999REMSYN070AAXX  24181 26825 32960 60000 10171 20070 40166 57003 80002 333 10210;EQDQ01  00002PRCP99
0209268250999992000053106004+53680+023830FM-12+013599999V0209999C000012200019N0100001N1+01161+00881101531ADDAA199000091GA1001+999999999GF100991001001999999001001IA1099IA2999+00309KA1120N+00451MD1410001+9999REMSYN080AAXX  31061 26825 32960 00000 10116 20088 40153 54000 333 20045 555 31003 52001;EQDQ01  00002PRCP99
0143268250999992000060512004+53680+023830FM-12+013599999V0203301N003012200019N0100001N1+02321+01321101691ADDGF102991021011012501001001MA1999999100131MD1810021+9999REMSYN076AAXX  05121 26825 42660 23303 10232 20132 30013 40169 58002 82100 555 11032;
0122268250999992000061121004+53680+023830FM-12+013599999V0201301N002012200019N0100001N1+01831+01071101661ADDGA1001+999999999GF100991001001999999001001MD1710031+9999REMSYN054AAXX  11211 26825 42960 01302 10183 20107 40166 57003;
0175268250999992000062218004+53670+023820FM-12+013599999V0200901N002012200019N0100001N1+02601+01281101211ADDAA199000091GA1001+999999999GF100991001001999999001001KA1999M+02981MD1410001+9999REMSYN064AAXX  22181 26825 32960 00902 10260 20128 40121 54000 333 10298;EQDQ01  00002PRCP99
0236268250999992000062506004+53670+023820FM-12+013599999V0202801N005010048019N0100001N1+01591+01511100771ADDAA112000591AY181061AY221061GA1081+004809099GF108991081031004501999999IA1099IA2999+01609KA1120N+01591MD1410001+9999MW1801REMSYN104AAXX  25061 26825 11460 82805 10159 20151 40077 54000 69962 78082 883// 333 20159 88916 555 31016 52015;
0152268250999992000062518004+53670+023820FM-12+013599999V0202701N004019999999N0100001N1+01901+01031100851ADDAA112000791GF108991001001999999001021KA1999M+02201MD1310071+9999REMSYN076AAXX  25181 26825 12960 82704 10190 20103 40085 53007 69902 80002 333 10220;
0112268250999992000062921004+53670+023820FM-12+013599999V0202001N003019999999N0100001N1+01251+00741101021ADDGF107991071001999999031001MD1210041+9999REMSYN060AAXX  29211 26825 42960 72003 10125 20074 40102 52004 87030;
0216268250999992000080503004+53670+023820FM-12+013599999V0209999C000019999999N0100001N1+01201+01121101851ADDAA199000091AY121031AY221031GF105991051001999999031001IA1099IA2999+01009MD1410001+9999MW1101REMSYN094AAXX  05031 26825 31960 50000 10120 20112 40185 54000 71022 85030 555 20120 31010 52009 7000/;EQDQ01  00002PRCP99
0112268250999992000082015004+53670+023820FM-12+013599999V0202201N004019999999N0100001N1+02751+01681101371ADDGF106991001001999999001011MD1710051+9999REMSYN060AAXX  20151 26825 42960 62204 10275 20168 40137 57005 80001;
0201268250999992000090603004+53670+023820FM-12+013599999V0203301N005010060019N0100001N1+00961+00881101381ADDAA112999929GA1071+006009069GF107991071051008001999999IA1099IA2999+00909MD1310091+9999REMSYN104AAXX  06031 26825 /2560 73305 10096 20088 40138 53009 875// 333 87620 555 20096 31009 52009 69902 7990/;
0138268250999992000091915004+53670+023820FM-12+013599999V0200501N005010024019N0100001N1+00821+00781101701ADDGA1081+002409069GF108991081061002501999999MD1810031+9999REMSYN070AAXX  19151 26825 42360 80505 10082 20078 40170 58003 886// 333 88708;
0122268250999992000092921004+53670+023820FM-12+013599999V0201201N004012200019N0100001N1+00721+00511102241ADDGA1001+999999999GF100991001001999999001001MD1310031+9999REMSYN054AAXX  29211 26825 42960 01204 10072 20051 40224 53003;
0123268250999992000100800004+53670+023820FM-12+013599999V0201301N002019999999N0100001N1+00901+00581102611ADDGF106991001001999999001011MA1999999100961REMSYN070AAXX  08001 26825 42960 61302 10090 20058 30096 40261 80001 555 10200;
0122268250999992000101315004+53670+023820FM-12+013599999V0201401N007019999999N0100001N1+01701+01211101781ADDGF106991001001999999001011MD1710031+9999REMSYN070AAXX  13151 26825 42960 61407 10170 20121 40178 57003 80001 333 91110;
0112268250999992000101415004+53670+023820FM-12+013599999V0203301N005019999999N0100001N1+01461+01041101721ADDGF107991071001999999031999MD1310191+9999REMSYN060AAXX  14151 26825 42960 73305 10146 20104 40172 53019 8703/;
0132268250999992000102015004+53670+023820FM-12+013599999V0201501N004012200019N0100001N1+00841+00041103541ADDGA1001+999999999GF100991001001999999001001MD1710051+9999REMSYN064AAXX  20151 26825 42960 01504 10084 20004 40354 57005 333 91110;
0144268250999992000112721004+53670+023820FM-12+013599999V0201401N004010021019N0100001N1-00171-00281102041ADDGA1081+002109079GF108991081061002501999999MD1210181+9999REMSYN076AAXX  27211 26825 42360 81404 11017 21028 40204 52018 886// 333 88707 93401;
0218268320999992000012703004+53880+025320FM-12+015899999V0202701N004010021019N0036001N1+00071+00011100781ADDAA112000791AY171031AY261031GA1061+002109079GF108991999071002501021999MD1410001+9999MW1611REMSYN098AAXX  27031 26832 /1336 82704 10007 20001 40078 54000 76176 8872/ 333 86707 555 21001 69972 7002/;EQDQ01+000082SCOTLC
0219268320999992000020806004+53880+025320FM-12+015899999V0201901N003019999999N0090001N1+00231+00071100701ADDAA112000391AJ100019199999999AY161061AY221061GF106991051001999999031011IA1309KA1120N+00231MD1710041+9999MW1101REMSYN098AAXX  08061 26832 11959 61903 10023 20007 40070 57004 69932 71062 85031 333 20023 42001 555 90011;
0214268320999992000020812004+53880+025320FM-12+015899999V0201801N004010057019N0100001N1+00461+00211100081ADDAY181061AY221061GA1061+005709099GF108991061031004501071999MA1999999098181MD1710351+9999MW1851OA149901001REMSYN098AAXX  08121 26832 41460 81804 10046 20021 39818 40008 57035 78582 8637/ 333 86919 91110 555 1/000;
0202268320999992000021418004+53880+025320FM-12+015899999V0202601N003010021019N0050001N1+00021-00041100991ADDAA112001091AY181061AY221061GA1061+002109069GF108991061071002501071999KA1120M+00181MD1210191+9999MW1101REMSYN088AAXX  14181 26832 11350 82603 10002 21004 40099 52019 60012 71082 8677/ 333 10018 86707;
0233268320999992000022603004+53880+025320FM-12+015899999V0202601N006010021019N0023001N1+00061-00021101201ADDAA112000891AY181031AY271031GA1061+002109079GF108991081031002501999999MD1710031+9999MW1711OA140101001OA249901001REMSYN110AAXX  26031 26832 /1323 82606 10006 21002 40120 57003 77187 883// 333 86707 91010 91110 555 20003 69982 7998/;
0197268320999992000030900004+53880+025320FM-12+015899999V0202301N006010045019N0090001N1+00571+00501099221ADDAY171061AY261061GA1061+004509099GF108991061031004501071999MA1999999097331MD1710421+9999MW1101REMSYN092AAXX  09001 26832 41459 82306 10057 20050 39733 49922 57042 71076 8637/ 333 86915 555 12004;
0138268320999992000031209004+53880+025320FM-12+015899999V0203001N004010096019N0150001N1-00201-01051101931ADDGA1061+009609059GF106991061051008001001001MD1210301+9999REMSYN070AAXX  12091 26832 42565 63004 11020 21105 40193 52030 86500 333 86632;
0112268320999992000040509004+53880+025320FM-12+015899999V0201401N004012200019N0100001N1+01321+00861100021ADDGF106991031011012501001011MD1810031+9999REMSYN060AAXX  05091 26832 42660 61404 10132 20086 40002 58003 83101;
0143268320999992000041712004+53880+025320FM-12+015899999V0202601N003012200019N0150001N1+01551+00381101091ADDGF102991021011012501001001MA1999999099231MD1210101+9999REMSYN076AAXX  17121 26832 42665 22603 10155 20038 39923 40109 52010 82100 555 12025;
0143268320999992000042312004+53880+025320FM-12+015899999V0203501N003012200019N0200001N1+02541+00641101561ADDGF102991021011012501001001MA1999999099761MD1810081+9999REMSYN076AAXX  23121 26832 42670 23503 10254 20064 39976 40156 58008 82100 555 10044;
0122268320999992000050715004+53880+025320FM-12+015899999V0203301N003012200019N0200001N1+01601-00381102551ADDGA1001+999999999GF100991001001999999001001MD1810031+9999REMSYN054AAXX  07151 26832 42970 03303 10160 21038 40255 58003;
0211268320999992000051706004+53880+025320FM-12+015899999V0201501N002012200019N0150001N1+01511+00501101841ADDAA199000091GF101991001001999999001011IA1019IA2999+00609KA1120N+00661MD1210031+9999REMSYN098AAXX  17061 26832 32965 11502 10151 20050 40184 52003 80001 333 20066 555 30006 52004 90012 95300;EQDQ01  00002PRCP99
0180268320999992000051818004+53880+025320FM-12+015899999V0200901N001010300019N0150001N1+02141+01111100651ADDAA112000791AY181061AY221061GF107991041031008001031001KA1999M+02891MD1410001+9999MW1021REMSYN082AAXX  18181 26832 11565 70901 10214 20111 40065 54000 69902 70282 84330 333 10289;
0112268320999992000051821004+53880+025320FM-12+015899999V0200901N002012200019N0100001N1+01551+01021100671ADDGF103991031001999999031001MD1810021+9999REMSYN060AAXX  18211 26832 42960 30902 10155 20102 40067 58002 83030;
0166268320999992000060715004+53880+025320FM-12+015899999V0202401N002010069019N0080001N1+01351+01191101201ADDAY181031AY221031GA1051+006909099GF107991051031008001031001MD1210031+9999MW1801REMSYN076AAXX  07151 26832 41558 72402 10135 20119 40120 52003 78082 85330 333 85923;
0171268320999992000061700004+53880+025310FM-12+015899999V0202801N003019999999N0080001N1+00671+00531101281ADDAY111061AY211061GF106991061001999999031001MA1999999099371MD1210141+9999MW1101REMSYN082AAXX  17001 26832 41958 62803 10067 20053 39937 40128 52014 71011 86030 555 12008;
0112268320999992000062309004+53880+025310FM-12+015899999V0201701N002012200019N0150001N1+02731+01581101331ADDGF103991031001999999031001MD1310011+9999REMSYN060AAXX  23091 26832 42965 31702 10273 20158 40133 53001 83030;
0112268320999992000062921004+53880+025310FM-12+015899999V0202301N003010300019N0100001N1+01311+00711100991ADDGF107991031031008001031001MD1310021+9999REMSYN060AAXX  29211 26832 42560 72303 10131 20071 40099 53002 83330;
0171268320999992000073112004+53880+025310FM-12+015899999V0202601N003012200019N0150001N1+02061+01071101591ADDAY141061AY221061GF106991041021012501001011MA1999999099761MD1410001+9999MW1021REMSYN082AAXX  31121 26832 41665 62603 10206 20107 39976 40159 54000 70242 84201 555 11031;
0112268320999992000080215004+53880+025310FM-12+015899999V0201801N002010300019N0150001N1+02241+01461101661ADDGF106991031011012501031011MD1710111+9999REMSYN060AAXX  02151 26832 42665 61802 10224 20146 40166 57011 83131;
0165268320999992000090218004+53880+025310FM-12+015899999V0201401N002019999999N0100001N1+01541+01321100601ADDAA199000091GF106991061001999999031001KA1999M+02141MD1310041+9999REMSYN070AAXX  02181 26832 32960 61402 10154 20132 40060 53004 86030 333 10214;EQDQ01  00002PRCP99
0202268320999992000090918004+53880+025310FM-12+015899999V0202401N003010081019N0080001N1+01681+01541102101ADDAA112003091AY181061AY221061GA1061+008109099GF108991061031008001071999KA1120M+02001MD1310021+9999MW1101REMSYN088AAXX  09181 26832 11558 82403 10168 20154 40210 53002 60032 71082 8637/ 333 10200 86927;
0150268320999992000091521004+53880+025310FM-12+015899999V0203001N001012200019N0070001N1+00481+00381102321ADDAY111031AY211031GA1001+999999999GF100991001001999999001001MD1210081+9999MW1101REMSYN060AAXX  15211 26832 41957 03001 10048 20038 40232 52008 71011;
0162268320999992000102918004+53880+025310FM-12+015899999V0201601N002012200019N0100001N1+00781+00531101321ADDAA112001091GA1001+999999999GF100991001001999999001001KA1999M+01121MD1710071+9999REMSYN070AAXX  29181 26832 12960 01602 10078 20053 40132 57007 69992 333 10112;
0112268320999992000111315004+53880+025310FM-12+015899999V0201301N002019999999N0100001N1+00451+00201101341ADDGF107991071001999999031001MD1710071+9999REMSYN060AAXX  13151 26832 42960 71302 10045 20020 40134 57007 87030;
0171268320999992000111400004+53880+025310FM-12+015899999V0201201N003019999999N0060001N1+00331+00201101331ADDAY121061AY221061GF107991071001999999031001MA1999999099391MD1810031+9999MW1101REMSYN082AAXX  14001 26832 41956 71203 10033 20020 39939 40133 58003 71022 87030 555 12002;
0144268320999992000112609004+53880+025310FM-12+015899999V0201001N004010036019N0100001N1-00331-00651101951ADDGA1071+003609079GF108991071071004501071999MD1710061+9999REMSYN076AAXX  26091 26832 42460 81004 11033 21065 40195 57006 8777/ 333 87712 91111;
0166268320999992000112715004+53880+025310FM-12+015899999V0201201N003010045019N0050001N1-00271-00401101911ADDAY181031AY221031GA1061+004509099GF108991061031004501071999MD1210041+9999MW1261REMSYN076AAXX  27151 26832 41450 81203 11027 21040 40191 52004 72682 8637/ 333 86915;
0166268320999992000120915004+53880+025310FM-12+015899999V0201801N002010012019N0020001N1+00681+00601101561ADDAY181031AY221031GA1081+001209069GF108991081061001501999999MD1310051+9999MW1101REMSYN076AAXX  09151 26832 41220 81802 10068 20060 40156 53005 71082 886// 333 88704;
0185268320999992000121815004+53880+025310FM-12+015899999V0202901N003010030019N0022001N1-00011-00091101411ADDAY171031AY221031GA1061+003009069GF108991999071004501021999MD1310141+9999MW1711REMSYN076AAXX  18151 26832 41422 82903 11001 21009 40141 53014 77172 8872/ 333 86710;EQDQ01+000082SCOTLC
0218268320999992000122503004+53880+025310FM-12+015899999V0202001N002010021019N0022001N1-00331-00401100411ADDAA112000891AY171031AY221031GA1061+002109079GF108991999071002501021999MD1410001+9999MW1711REMSYN098AAXX  25031 26832 /1322 82002 11033 21040 40041 54000 77172 8872/ 333 86707 555 21034 69982 7001/;EQDQ01+000082SCOTLC
0168268500999992000010613004+53930+027630FM-15+0231UMMM V0209999C000010042019N0112651N1-00101-00301999999ADDGA1081+004209999GF108991999999999999999999MA1102301999999MW1001REMMET074UMMM 061300Z 00000MPS 9999 OVC014 M01/M03 Q1023 NOSIG RMK QFE748 30910040;EQDQ01+000000PRSWM2
0206268500999992000011518004+53930+027630FM-12+023199999V0202701N00101003001MN0060001N1-00581-00731102471ADDAA112000391AY171061AY221061GA1081+003009069GF108991081061004501999999KA1120M-00561MD1710051+9999MW1711REMSYN092    AAXX  15181 26850 11456 82701 11058 21073 40247 57005 69932 77172 886// 333 11056 88710;
0184268500999992000011905004+53930+027630FM-15+0231UMMM V0203401N006010039019N0112651N1-00401-00601999999ADDGA1081+003909999GF108991999999999999999999MA1099191999999MW1711OC101101REMMET066UMMM 190500Z 34006G11MPS 9999 -SN OVC013 M04/M06 Q0992 RMK QFE724;EQDQ01+000003PRSWM1Q02    003PRSWM1
0298268500999992000020715004+53930+027630SY-MT+0231UMMM V0201701N00301003001CN0060001N1+00341+00241101141ADDAY141031AY221031GA1081+003009999GF199999071001999999031999MA1101081999999MD1710191+9999MW1101REMSYN066AAXX  07151 26850 41956 71703 10034 20024 40114 57019 71042 8703/;MET086UMMM 071500Z 19003MPS 3000 BR OVC010 03/02 Q1011 TEMPO 2000 RMK QFE73 QFE738 12290050;EQDQ01+000072SCOTCVQ02    003PRSWM1
0199268500999992000021707004+53930+027630FM-15+0231UMMM V0201701N005010018019N0025001N1+00001-00101999999ADDGA1081+001809999GF108991999999999999999999MA1100311999999MW1101MW2731REMMET083UMMM 170700Z 17005MPS 2500 SN BR OVC006 00/M01 Q1003 TEMPO1000 RMK QFE732 12610230;EQDQ01+000003PRSWM1Q02    003PRSWM1
0202268500999992000021716004+53930+027630FM-15+0231UMMM V0201301N00501220001CN0030001N1-00101-00201999999ADDGA1071+003009999GA2021+030009999MA1100311999999MW1101OC100801REMMET078UMMM 171600Z 13005G08MPS 3000 BR BKN010 SCT100 M01/M02 Q1003 NOSIG RMK QFE732;EQDQ01+000042SCOTCVQ02+000003PRSWM1Q03    003PRSWM1
0183268500999992000030108004+53930+027630FM-15+0231UMMM V0201801N005010300019N9999999N1+00201-00501999999ADDGA1081+030009999GF108991999999999999999999MA1100511999999MW1001REMMET073UMMM 010800Z 18005MPS 6000 OVC100 02/M05 Q1005 NOSIG RMK QFE733 12CLRD60;EQDQ01+060002VODIS Q02+000000PRSWM2
0189268500999992000030321004+53930+027630FM-12+0231UMMM V0201801N006010300019N0050001N1+00151-00171099931ADDAY171031AY221031GA1031+006009079GF108991031071008001021999MD1710241+9999MW1711OA140101101REMSYN088AAXX  03211 26850 41550 81806 10015 21017 49993 57024 77172 8372/ 333 83720 91011 91114;
0112268500999992000031621004+53930+027630FM-12+0231UMMM V0202801N002019999999N0150001N1-00151-00521100601ADDGF107991001001999999001011MD1210011+9999REMSYN060AAXX  16211 26850 42965 72802 11015 21052 40060 52001 80001;
0180268500999992000031818004+53930+027630FM-12+0231UMMM V0209999C000019999999N0100001N1-00191-00431102011ADDAA112000791AY171061AY221061GF107991071001999999031999KA1999M+00061MD1210121+9999MW1021REMSYN082AAXX  18181 26850 11960 70000 11019 21043 40201 52012 69902 70272 8703/ 333 10006;
0205268500999992000033114004+53930+027630FM-15+0231UMMM V0201301N005010021019N0040001N1+00601+00501999999ADDGA1081+002109999GF108991999999999999999999MA1100611999999MW1101MW2631OC100801REMMET081UMMM 311400Z 13005G08MPS 4000 RA BR OVC007 06/05 Q1006 NOSIG RMK QFE734 12290055;EQDQ01+000003PRSWM1Q02    003PRSWM1
0224268500999992000041209004+53930+027630SY-MT+0231UMMM V0201201N00401220001CN0100001N1+01081+00191100721ADDGF108991041001999999031011MA1100611999999MD1810111+9999MW1001REMSYN060AAXX  12091 26850 42960 81204 10108 20019 40072 58011 84031;MET066UMMM 120900Z 13004MPS CAVOK 09/03 Q1006 NOSIG RMK QFE734 12CLRD60;EQDQ01+000000PRSWM2
0143268500999992000041300004+53930+027630FM-12+0231UMMM V0201501N002010075019N0100001N1+00721+00131100421ADDGF108991051051008001031999MA1999999097741MD1710031+9999REMSYN076AAXX  13001 26850 42560 81502 10072 20013 39774 40042 57003 8553/ 555 11005;
0143268500999992000041400004+53930+027630FM-12+0231UMMM V0201501N001012200019N0100001N1+00601+00491100511ADDGF102991001001999999001011MA1999999097821MD1810051+9999REMSYN076AAXX  14001 26850 42960 21501 10060 20049 39782 40051 58005 80001 555 11002;
0118268500999992000041907004+53930+027630FM-15+0231UMMM V0200901N00301220001CN0099001N1+01401+00801999999ADDMA1101391999999MW1001REMMET066UMMM 190700Z 09003MPS CAVOK 14/08 Q1014 NOSIG RMK QFE740 12CLRD60;EQDQ01+000000PRSWM2
0177268500999992000042111004+53930+027630FM-15+0231UMMM V0200601N005012200019N0112651N1+01901+00701999999ADDGA1021+009909999GF104991999999999999999999MA1101591999999MW1001OC100801REMMET075UMMM 211100Z 06005G08MPS 9999 SCT033 19/07 Q1016 NOSIG RMK QFE742 12CLRD60;EQDQ01+000000PRSWM2
0190268500999992000042718004+53930+027630FM-12+0231UMMM V0203001N002012200019N0150001N1+02091+00931102141ADDAA112000791AY181061AY211061GA1001+999999999GF100991001001999999001001KA1999M+02451MD1310051+9999MW1011REMSYN076AAXX  27181 26850 11965 03002 10209 20093 40214 53005 69902 70181 333 10245;
0110268500999992000050317004+53930+027630FM-15+0231UMMM V0203001N00601220001CN0099001N1+01401-00701999999ADDMA1102201999999MW1001REMMET058UMMM 031700Z 30006MPS CAVOK 14/M07 Q1022 NOSIG RMK QFE746;EQDQ01+000000PRSWM2
0293268500999992000050906004+53930+027630SY-MT+0231UMMM V0203201N001012200019N0200001N1+01501+00431102161ADDAA199000091GF101991001001999999001011IA1019IA2999+00309KA1120N+00641MA1102201999999MD1310011+9999MW1001REMSYN086AAXX  09061 26850 32970 13201 10150 20043 40216 53001 80001 333 20064 555 30003 90011;MET051UMMM 090600Z 33004MPS CAVOK 15/02 Q1022 RMK QFE746;EQDQ01+000000PRSWM2Q02  00002PRCP99
0114268500999992000050911004+53930+027630FM-15+0231UMMM V0203001N00501220001CN0099001N1+02001+00401999999ADDMA1102001999999MW1001OC100801REMMET054UMMM 091100Z 30005G08MPS CAVOK 20/04 Q1020 RMK QFE745;EQDQ01+000000PRSWM2
0112268500999992000051021004+53930+027630FM-12+0231UMMM V0209999C000012200019N0150001N1+01241+00651101571ADDGF102991001001999999001011MD1710021+9999REMSYN060AAXX  10211 26850 42965 20000 10124 20065 40157 57002 80001;
0103268500999992000051704004+53930+027630FM-15+0231UMMM V0201301N00201220001CN0099001N1+00801+00201999999ADDMA1101901999999MW1001REMMET051UMMM 170400Z 13002MPS CAVOK 08/02 Q1019 RMK QFE744;EQDQ01+000000PRSWM2
0114268500999992000052005004+53930+027630FM-15+0231UMMM V0201101N00501220001CN0099001N1+01001+00401999999ADDMA1100411999999MW1001OC100801REMMET054UMMM 200500Z 11005G08MPS CAVOK 10/04 Q1004 RMK QFE733;EQDQ01+000000PRSWM2
0196268500999992000052014004+53930+027630FM-15+0231UMMM V0201401N005010024019N0040001N1+01101+01001999999ADDGA1081+002409999GF108991999999999999999999MA1100511999999MW1631OC100801REMMET078UMMM 201400Z 14005G08MPS 4000 RA OVC008 11/10 Q1005 NOSIG RMK QFE734 12290050;EQDQ01+000003PRSWM1Q02    003PRSWM1
0197268500999992000052100004+53930+027630FM-12+0231UMMM V0200601N001010063019N0100001N1+01031+00951100381ADDAY161061AY221061GA1051+006309069GF108991051051008001021999MA1999999097741MD1710071+9999MW1021REMSYN092AAXX  21001 26850 41560 80601 10103 20095 39774 40038 57007 70262 8552/ 333 85621 555 11010;
0174268500999992000053104004+53930+027630FM-15+0231UMMM V0203101N004010300019N0060001N1+00901+00701999999ADDGA1021+002409999GA2071+030009999GF107991999999999999999999MA1101391999999MW1001REMMET064UMMM 310400Z 31004MPS 6000 SCT008 BKN100 09/07 Q1014 RMK QFE740;EQDQ01+000000PRSWM2
0122268500999992000061621004+53920+027630FM-12+0231UMMM V0203001N001012200019N0150001N1+00871+00611101041ADDGA1001+999999999GF100991001001999999001001MD1210111+9999REMSYN054AAXX  16211 26850 42965 03001 10087 20061 40104 52011;
0245268500999992000062115004+53920+027630SY-MT+0231UMMM V0200101N003019999999N0200001N1+02351+00531100971ADDGF106991001001999999001011MA1101081999999MD1710131+9999MW1001OC100901REMSYN070AAXX  21151 26850 42970 60103 10235 20053 40097 57013 80001 333 91110;MET069UMMM 211500Z 36006G09MPS CAVOK 24/04 Q1011 NOSIG RMK QFE738 30CLRD60;EQDQ01+000000PRSWM2
0200268500999992000063013004+53920+027630FM-15+0231UMMM V0201801N006010078019N0112651N1+01701+00901999999ADDGA1081+007809099GF108991999999999999999999MA1101191999999MW1801OC100901REMMET082UMMM 301300Z 18006G09MPS 9999 -SHRA OVC026CB 17/09 Q1012 TEMPO 2000 TSRA 12CLRD60;EQDQ01+000003PRSWM1Q02    003PRSWM1
0354268500999992000063015004+53920+027630SY-MT+0231UMMM V0201801N00201006001CN0150001N1+01581+00781101241ADDAY181031AY221031GA1071+006009999GA2021+030009999GF199999031021008001001011MA1101191999999MD1210051+9999MW1021OC100801REMSYN076AAXX  30151 26850 41565 61802 10158 20078 40124 52005 70282 83201 333 91111;MET092UMMM 301500Z 20005G08MPS 9999 BKN020 SCT100 17/07 Q1012 TEMPO 2000 TSRA RMK QFE739 12CLRD60;EQDQ01+000062SCOTCVQ02+000000PRSWM2Q03    003PRSWM1
0314268500999992000070506004+53920+027630SY-MT+0231UMMM V0201101N001019999999N0150001N1+01851+01281100881ADDAA199000091GF106991051001999999031011IA1099IA2999+00809KA1120N+01101MA1100911999999MD1210031+9999MW1001REMSYN092AAXX  05061 26850 32965 61101 10185 20128 40088 52003 85031 333 20110 555 31008 90012 95300;MET066UMMM 050600Z 12003MPS CAVOK 17/11 Q1009 NOSIG RMK QFE736 12CLRD60;EQDQ01+000000PRSWM2Q02  00002PRCP99
0184268500999992000070807004+53920+027630FM-15+0231UMMM V0203201N005012200019N0112651N1+01601+00901999999ADDGA1021+060009999GF104991999999999999999999MA1100811999999MW1001OC100801REMMET082UMMM 080700Z 32005G08MPS 9999 SCX033 SCT200 16/09 Q1008 NOSIG RMK QFE736 30CLRD60;EQDQ01+000000PRSWM2
0197268500999992000071000004+53920+027630FM-12+0231UMMM V0203301N003010039019N0100001N1+01291+01201099941ADDAY181061AY221061GA1081+003909079GF108991081041004501999999MA1999999097321MD1810041+9999MW1021REMSYN092AAXX  10001 26850 41460 83303 10129 20120 39732 49994 58004 70282 884// 333 88713 555 11013;
0296268500999992000071612004+53920+027630SY-MT+0231UMMM V0201301N00501009001CN0200001N1+02351+01071101081ADDGA1071+009009999GA2071+060009999GF107991041021012501001011MA1101081098531MD1210041+9999MW1001OC100901REMSYN076AAXX  16121 26850 42670 71305 10235 20107 39853 40108 52004 84201 555 11032;MET082UMMM 161200Z 14006G09MPS 9999 BKN030 BKN200 23/10 Q1011 NOSIG RMK QFE738 12CLRD60;EQDQ01+000000PRSWM2
0108268500999992000072108004+53920+027630FM-15+0231UMMM V0203601N00501220001CN0099001N1+01901+00801999999ADDMW1001REMMET071UMMM 210800Z 36005MPS CAVOK 19/08 1Q1015 NOQ NOSIG RMK QFE742 30CLRD60;EQDQ01+000000PRSWM2
0267268500999992000072509004+53920+027630SY-MT+0231UMMM V0202201N00301004801CN0150001N1+02041+01301100251ADDGA1071+004809999GF107991061081012501031001MA1100411999999MD1810011+9999MW1001OC101101REMSYN070AAXX  25091 26850 42665 72203 10204 20130 40025 58001 86830 333 86838;MET075UMMM 250900Z 24008G11MPS 9999 BKN016 20/13 Q1004 NOSIG RMK QFE733 30CLRD60;EQDQ01+000000PRSWM2
0283268500999992000082409004+53920+027630SY-MT+0231UMMM V0203001N00201003601CN0200001N1+01321+00931101791ADDGA1071+003609999GF199999061081008001001001MA1101801999999MD1410001+9999MW1001OC100801REMSYN070AAXX  24091 26850 42570 63002 10132 20093 40179 54000 86800 333 86826;MET075UMMM 240900Z 29005G08MPS 9999 BKN012 13/10 Q1018 NOSIG RMK QFE744 30CLRD60;EQDQ01+000062SCOTCVQ02+000000PRSWM2
0177268500999992000082608004+53920+027630FM-15+0231UMMM V0200301N005010036019N0060001N1+01301+01001999999ADDGA1081+003609999GF108991999999999999999999MA1101591999999MW1001OC100801REMMET075UMMM 260800Z 03005G08MPS 6000 OVC012 13/10 Q1016 NOSIG RMK QFE743 30190055;EQDQ01+000000PRSWM2
0286268500999992000082706004+53920+027630SY-MT+0231UMMM V0200401N003012200019N0200001N1+01271+00891102541ADDAA199000021GF100991001001999999001001IA1099IA2999+00709KA1120N+01001MA1102401999999MD1210121+9999MW1001REMSYN080AAXX  27061 26850 32970 00403 10127 20089 40254 52012 333 20100 555 31007 90010;MET066UMMM 270600Z 06005MPS CAVOK 13/08 Q1024 NOSIG RMK QFE748 12CLRD60;EQDQ01+000000PRSWM2
0165268500999992000090118004+53920+027630FM-12+0231UMMM V0202301N001010075019N0100001N1+01581+01251100851ADDAA199000091GF108991051051008001031999KA1999M+02111MD1310061+9999REMSYN070AAXX  01181 26850 32560 82301 10158 20125 40085 53006 8553/ 333 10211;EQDQ01  00002PRCP99
0129268500999992000090811004+53920+027630FM-15+0231UMMM V0200101N00501220001CN0099001N1+01801+00601999999ADDMA1101591999999MW1001OC100801REMMET069UMMM 081100Z 01005G08MPS CAVOK 18/06 Q1016 NOSIG RMK QFE743 30CLRD60;EQDQ01+000000PRSWM2
0312268500999992000091212004+53920+027630SY-MT+0231UMMM V0203101N00201006001CN0200001N1+01551+00671101311ADDGA1071+006009999GA2071+030009999GF199999051081008001031001MA1101291098691MD1810011+9999MW1001OC100801REMSYN076AAXX  12121 26850 42570 63102 10155 20067 39869 40131 58001 85830 555 10028;MET082UMMM 121200Z 32005G08MPS 9999 BKN020 BKN100 13/06 Q1013 NOSIG RMK QFE740 30CLRD60;EQDQ01+000062SCOTCVQ02+000000PRSWM2
0308268500999992000091306004+53920+027630SY-MT+0231UMMM V0203101N00101220001CN0200001N1+00911+00711101591ADDAA199000091GF107991001001999999001011IA1099IA2999+00209KA1120N+00511MA1101491999999MD1310031+9999MW1001REMSYN086AAXX  13061 26850 32970 73101 10091 20071 40159 53003 80001 333 20051 555 31002 90011;MET066UMMM 130600Z 31001MPS CAVOK 10/07 Q1015 NOSIG RMK QFE742 30CLRD60;EQDQ01+000000PRSWM2Q02  00002PRCP99
0129268500999992000100110004+53920+027630FM-15+0231UMMM V0201401N00501220001CN0099001N1+01601+00501999999ADDMA1102811999999MW1001OC100801REMMET069UMMM 011000Z 14005G08MPS CAVOK 16/05 Q1028 NOSIG RMK QFE750 12CLRD60;EQDQ01+000000PRSWM2
0169268500999992000101000004+53920+027630FM-12+0231UMMM V0201201N003010060019N0100001N1+00391+00191102031ADDGA1071+006009069GF107991071051008001001001MA1999999099281MD1710121+9999REMSYN086AAXX  10001 26850 42560 71203 10039 20019 39928 40203 57012 87500 333 87620 555 10004;
0175268500999992000102018004+53920+027630FM-12+0231UMMM V0201401N001012200019N0100001N1+00311+00021103821ADDAA199000091GA1001+999999999GF100991001001999999001001KA1999M+00991MD1310021+9999REMSYN064AAXX  20181 26850 32960 01401 10031 20002 40382 53002 333 10099;EQDQ01  00002PRCP99
0272268500999992000102312004+53920+027630SY-MT+0231UMMM V0202701N00101006001CN0100001N1+01231+00501102691ADDGA1081+006009999GF108991081051008001999999MA1102611099991MD1810261+9999MW1001REMSYN086AAXX  23121 26850 42560 82701 10123 20050 39999 40269 58026 885// 333 88626 555 10013;MET072UMMM 231200Z 32003MPS 9999 OVC020 13/04 Q1026 NOSIG RMK QFE750 30CLRD60;EQDQ01+000000PRSWM2
0327268500999992000102912004+53920+027630SY-MT+0231UMMM V0202001N00301009901CN0150001N1+00921+00461101591ADDAY161061AY221061GA1071+009909999GA2071+030009999GF107991071001999999031001MA1101491098901MD1710101+9999MW1021REMSYN082AAXX  29121 26850 41965 72003 10092 20046 39890 40159 57010 70262 87030 555 11010;MET083UMMM 291200Z 20004MPS 9999 BKN033 BKN100 09/05 Q1015 NOSIG RMK QFE QFE741 12190055;EQDQ01+000000PRSWM2Q02    003PRSWM1
0118268500999992000103113004+53920+027630FM-15+0231UMMM V0201501N00401220001CN0099001N1+01201+00501999999ADDMA1100911999999MW1001REMMET066UMMM 311300Z 15004MPS CAVOK 12/05 Q1009 NOSIG RMK QFE736 12CLRD60;EQDQ01+000000PRSWM2
0185268500999992000110603004+53920+027630FM-12+0231UMMM V0209999C000010030019N0100001N1+00391+00341101871ADDAA112999929GA1081+003009079GF108991081051004501999999GJ100009MD1210041+9999REMSYN098AAXX  06031 26850 /2460 80000 10039 20034 40187 52004 885// 333 55000 88710 555 20039 69902 7002/;
0284268500999992000111009004+53920+027630SY-MT+0231UMMM V0202301N002010024019N0060001N1+00691+00601101601ADDAY161031AY221031GA1081+002409999GF108991081051004501999999MA1101291999999MD1210281+9999MW1101REMSYN076AAXX  10091 26850 41456 82302 10069 20060 40160 52028 71062 885// 333 88712;MET078UMMM 100900Z 22006G09MPS 3000 BR OVC008 08/07 Q1013 NOSIG RMK QFE741 30290050;EQDQ01    003PRSWM1
0335268500999992000111106004+53920+027630SY-MT+0231UMMM V0209999C000010021019N0035001N1+00461+00411102021ADDAA199000091AY121061AY221061GA1081+002109069GF108991081061002501999999KA1120N+00441MA1101901999999MD1210061+9999MW1101REMSYN092AAXX  11061 26850 31335 80000 10046 20041 40202 52006 71022 886// 333 20044 88707 555 90013;MET073UMMM 110600Z 00000MPS 2500BR OYC007 04/03 Q1019 TEMPO 0500 FG RMK QFE744;EQDQ01  00002PRCP99Q02    003PRSWM1
0200268500999992000111315004+53920+027630FM-15+0231UMMM V0201301N005010036019N0030001N1+00401+00201999999ADDGA1071+003609999GA2071+030009999GF107991999999999999999999MA1101491999999MW1001OC100801REMMET082UMMM 131500Z 13005G08MPS 3000 BKN012 BKN100 04/02 Q1015 NOSIG RMK QFE740 12CLRD60;EQDQ01+000000PRSWM2
0196268500999992000111411004+53920+027630FM-15+0231UMMM V0201401N005010024019N0050001N1+00601+00401999999ADDGA1081+002409999GF108991999999999999999999MA1101391999999MW1101OC100801REMMET078UMMM 141100Z 14005G08MPS 5000 BR OVC008 06/04 Q1014 NOSIG RMK QFE740 12190060;EQDQ01+000003PRSWM1Q02    003PRSWM1
0197268500999992000112400004+53920+027630FM-12+0231UMMM V0201301N004010039019N0100001N1+00101-00131102621ADDAY171061AY221061GA1081+003909079GF108991081051004501999999MA1999999099821MD1710031+9999MW1711REMSYN092AAXX  24001 26850 41460 81304 10010 21013 39982 40262 57003 77172 885// 333 88713 555 11001;
0331268500999992000120906004+53920+027630SY-MT+0231UMMM V0201801N00301001801CN0070001N1+00201+00091101631ADDAA112000791AY161061AY221061GA1081+001809999GF108991081051004501999999KA1120N+00111MA1101391999999MD1710011+9999MW1101MW2611REMSYN098AAXX  09061 26850 11457 81803 10020 20009 40163 57001 69902 76162 885// 333 20011 88712 555 90014;MET073UMMM 090600Z 19005MPS 4000 BR OVC006 02/01 Q1014 NOSIG RMK QFE741 QBB180;EQDQ01    003PRSWM1
0192268500999992000120916004+53920+027630FM-15+0231UMMM V0202101N003010012019N0020001N1+00401+00301999999ADDGA1081+001209999GF108991999999999999999999MA1101491999999MW1101REMMET082UMMM 091600Z 21003MPS 2000 BR OVC004 04/03 Q1015 NOSIG RMK QFE741 QBB120 12290050;EQDQ01+000003PRSWM1Q02    003PRSWM1
