0374783670117062000052009553+19900-075150FM-15+0016MUGM V0200105N00465220005MN0112005N1+02305+01905101565ADDGD12995+0094559GD22995+0609659GF102991999999999999999999MA1101565999999MW1161REMMET077MUGM 200955Z 01009KT 7SM VCSH FEW030 FEW200 23/19 A2999 RMK SLP156 T02280189;EQDQ01+000003PRSWM1Q02    003PRSWM1N01 00000JPWTH 0QNNAA1D0 02031BA1 0 02031AA1D0 02200BA1 0 02200GA1U0 99999KA1D0 00066JA1 0 00190LA1 0 00700CA1 0 02999NA1 0 00000QA1 0 10156SA1D0 00073RA1 0 00230YA1 0 01009
0373783670117062000052017553+19900-075150FM-15+0016MUGM V0201405N00725220005MN0112005N1+02905+02105101565ADDGD12995+0094559GF102991999999999999999999KA1999M+02941KA2999N+02561MA1101565999999MD1710141+9999MW1001REMMET089MUGM 201755Z 14014KT 7SM FEW030 29/21 A2999 RMK SLP156 8/100 T02940206 10294 20256 57014;EQDQ01+000000PRSWM2N01 00000JPWTH 0QNNAA1D0 02031BA1 0 02031GA1U0 99999KA1D0 00070JA1 0 00210LA1 0 00700CA1 0 02999NA1 0 00000QA1 0 10156SA1D0 00084RA1 0 00290YA1 0 14014
0397783670117062000060901553+19900-075150FM-15+0016MUGM V0200105N00365076205MN0112005N1+02705+02005101595ADDGD12995+0094559GD22995+0304859GD33995+0762059GF107991999999999999999999MA1101595999999MW1001REMMET079MUGM 090155Z 01007KT 7SM FEW030 SCT100 BKN250 27/20 A3000 RMK SLP159 T02720200;EQDQ01+000000PRSWM2N01 00000JPWTH 0QNNAA1D0 02031BA1 0 02031AA1D0 02100BA1 0 02100AA1D0 04250BA1 0 04250GA1 0 00250KA1D0 00068JA1 0 00200LA1 0 00700CA1 0 03000NA1 0 00000QA1 0 10159SA1D0 00081RA1 0 00270YA1 0 01007
0397783670117062000061015553+19900-075150FM-15+0016MUGM V0201305N00525076205MN0112005N1+03005+02305101735ADDGD12995+0094559GD22995+0304859GD33995+0762059GF107991999999999999999999MA1101735999999MW1001REMMET079MUGM 101555Z 13010KT 7SM FEW030 SCT100 BKN250 30/23 A3004 RMK SLP173 T03000233;EQDQ01+000000PRSWM2N01 00000JPWTH 0QNNAA1D0 02031BA1 0 02031AA1D0 02100BA1 0 02100AA1D0 04250BA1 0 04250GA1 0 00250KA1D0 00073JA1 0 00230LA1 0 00700CA1 0 03004NA1 0 00000QA1 0 10173SA1D0 00086RA1 0 00300YA1 0 13010
0490783670117062000061611553+19900-075150FM-15+0016MUGM V0203605N00315009455MN0112005N1+02505+02205101565ADDGA1999+009009099GD12995+0061059GD23995+0094559GD33995+0762059GF107991999999999999999999KA1999M+02501KA2999N+02441MA1101565999999MD1210201+9999MW1001REMMET116MUGM 161155Z 36006KT 7SM SCT020 BKN030CB BKN250 25/22 A2999 RMK CB W MOV N SLP156 8/301 T02500217 10250 20244 52020;EQDQ01+000000PRSWM2N01 00000JPWTH 0QNNAA1D0 02020BA1 0 02020AA1D0 04031BA1 0 04031AA1D0 04250BA1 0 04250GA1 0 00031KA1D0 00072JA1 0 00220LA1 0 00700CA1 0 02999NA1 0 00000QA1 0 10156SA1D0 00077RA1 0 00250YA1 0 36006
0243783670117062000061722554+19900-075220FM-15+0017MUGM V0201101N007210750019N0112651N1+02901+99999101661ADDGD12991+0090099GD22991+0240099GD33991+0750099GF107991999999999999999999KA1999M+03281KA2999N+02441MA1101661999999MW1001REMMET094MUGM 172255Z 11014KT 7SM FEW030 SCT080 BKN250 29/ A3002 RMK SLP166 T2 SET T02890239 403280244;EQDQ01+000000PRSWM2
0397783670117062000062316003+19900-075150FM-15+0016MUGM V0201305N00775076205MN0112005N1+03105+02505101665ADDGD12995+0094559GD22995+0304859GD33995+0762059GF107991999999999999999999MA1101665999999MW1001REMMET079MUGM 231555Z 13015KT 7SM FEW030 FEW100 BKN250 31/25 A3002 RMK SLP166 T03110250;EQDQ01+000000PRSWM2N01 00000JPWTH 0QNNAA1D0 02031BA1 0 02031AA1D0 02100BA1 0 02100AA1D0 04250BA1 0 04250GA1 0 00250KA1D0 00077JA1 0 00250LA1 0 00700CA1 0 03002NA1 0 00000QA1 0 10166SA1D0 00088RA1 0 00310YA1 0 13015
0213783670117062000062404596+19900-075150SOD  +0017MUGM V020999999999999999999999999999+99999+99999999999ADDOE11249999999999997OE22249999999999997REMSOD163HOURLY INCREMENTAL PRECIPITATION VALUES (IN):.00  .00  .00  .00  .00  .00  .00  .00  .00  .00  .00  .00  .00  .00  .00  .00  .00  .00  .00  .00  .00  .00  .00  .00
0353783670117062000062405003+19900-075150FM-15+0016MUGM V0203505N00215220005MN0112005N1+02805+02305101735ADDGD12995+0094559GD22995+0762059GF102991999999999999999999MA1101735999999MW1001REMMET072MUGM 240455Z 35004KT 7SM FEW030 FEW250 28/23 A3004 RMK SLP173 T02780228;EQDQ01+000000PRSWM2N01 00000JPWTH 0QNNAA1D0 02031BA1 0 02031AA1D0 02250BA1 0 02250GA1U0 99999KA1D0 00073JA1 0 00230LA1 0 00700CA1 0 03004NA1 0 00000QA1 0 10173SA1D0 00082RA1 0 00280YA1 0 35004
0374783670117062000062604003+19900-075150FM-15+0016MUGM V0203505N00415220005MN0112005N1+02705+02105101525ADDGD12995+0094559GD22995+0762059GF102991999999999999999999MA1101525999999MW1001REMMET093MUGM 260355Z 35008KT 7SM FEW030 FEW250 27/21 A2998 RMK LTG DSNT S CB DSNT S SLP152 T02670211;EQDQ01+000000PRSWM2N01 00000JPWTH 0QNNAA1D0 02031BA1 0 02031AA1D0 02250BA1 0 02250GA1U0 99999KA1D0 00070JA1 0 00210LA1 0 00700CA1 0 02998NA1 0 00000QA1 0 10152SA1D0 00081RA1 0 00270YA1 0 35008
0379783670117062000070720553+19900-075150FM-15+0016MUGM V0202005N00365220005MN0112005N1+03005+02305101465ADDGD12995+0094559GD22995+0304859GF102991999999999999999999MA1101465999999MD1710101+9999MW1001REMMET084MUGM 072055Z 20007KT 7SM FEW030 FEW100 30/23 A2996 RMK SLP146 8/130 T03000233 57010;EQDQ01+000000PRSWM2N01 00000JPWTH 0QNNAA1D0 02031BA1 0 02031AA1D0 02100BA1 0 02100GA1U0 99999KA1D0 00073JA1 0 00230LA1 0 00700CA1 0 02996NA1 0 00000QA1 0 10146SA1D0 00086RA1 0 00300YA1 0 20007
0335783670117062000070808553+19900-075150FM-15+0016MUGM V0203505N00365220005MN0112005N1+02305+02005101565ADDGD12995+0094559GF102991999999999999999999MA1101565999999MD1510001+9999MW1001REMMET077MUGM 080855Z 35007KT 7SM FEW030 23/20 A2999 RMK SLP156 8/100 T02330200 55000;EQDQ01+000000PRSWM2N01 00000JPWTH 0QNNAA1D0 02031BA1 0 02031GA1U0 99999KA1D0 00068JA1 0 00200LA1 0 00700CA1 0 02999NA1 0 00000QA1 0 10156SA1D0 00073RA1 0 00230YA1 0 35007
0386783670117062000071104553+19900-075150FM-15+0016MUGM V0203405N003650750019N0112005N1+02705+02305101635ADDGD12995+0094559GD22995+0243859GD33995+0762059GF107991999999999999999999MA1101635999999MW1001REMMET079MUGM 110455Z 34007KT 7SM FEW030 SCT080 BKN250 27/23 A3001 RMK SLP163 T02670228;EQDQ01+000000PRSWM2N01 00000JPWTH 0QNNAA1D0 02031BA1 0 02031AA1D0 02080BA1 0 02080AA1D0 04250BA1 0 04250KA1D0 00073JA1 0 00230LA1 0 00700CA1 0 03001NA1 0 00000QA1 0 10163SA1D0 00081RA1 0 00270YA1 0 34007
0364783670117062000071407553+19900-075150FM-15+0016MUGM V0203405N00365220005MN0112005N1+02605+02305101595ADDGD12995+0094559GD22995+0304859GF102991999999999999999999MA1101595999999MW1001REMMET083MUGM 140755Z 34007KT 7SM FEW030 FEW100 26/23 A3000 RMK CB DSNT SW SLP159 T02610233;EQDQ01+000000PRSWM2N01 00000JPWTH 0QNNAA1D0 02031BA1 0 02031AA1D0 02100BA1 0 02100GA1U0 99999KA1D0 00073JA1 0 00230LA1 0 00700CA1 0 03000NA1 0 00000QA1 0 10159SA1D0 00079RA1 0 00260YA1 0 34007
0217783670117062000071522554+19900-075220FM-15+0017MUGM V0201801N003112200019N0112651N1+02901+99999101461ADDGD12991+0090099GD22991+0300099GD32991+0750099GF104991999999999999999999MA1101461999999MW1001REMMET094MUGM 152255Z 18006KT 7SM FEW030 FEW100 SCT250 29/ A2996 RMK CB DSNT N SLP146 T2 SET T02940239;EQDQ01+000000PRSWM2
0353783670117062000071821553+19900-075150FM-15+0016MUGM V0201305N00775220005MN0112005N1+03105+02405101525ADDGD12995+0094559GD22995+0304859GF102991999999999999999999MA1101525999999MW1001REMMET072MUGM 182155Z 13015KT 7SM FEW030 FEW100 31/24 A2998 RMK SLP152 T03110239;EQDQ01+000000PRSWM2N01 00000JPWTH 0QNNAA1D0 02031BA1 0 02031AA1D0 02100BA1 0 02100GA1U0 99999KA1D0 00075JA1 0 00240LA1 0 00700CA1 0 02998NA1 0 00000QA1 0 10152SA1D0 00088RA1 0 00310YA1 0 13015
0415783670117062000072311553+19900-075150FM-15+0016MUGM V0203505N003652200019N0112005N1+02605+02205101665ADDGD19999+0009099GD22991+0750099GF104991999999999999999999KA1999M+02721KA2999N+02561MA1101665999999MD1310071+9999MW1001REMMET095MUGM 231155Z 35007KT 7SM FEW03 SCT250 26/22 A3002 RMK SLP166 8/101 T02610217 10272 20256 53007;EQDQ01+000000PRSWM2N01 00999JALM1 3N02 00000JPWTH 0P01     03SCCGD1QNNAA1D0 00999BA1 3 00999KA1D0 00072JA1 0 00220LA1 0 00700CA1 0 03002NA1 0 00000QA1 0 10166SA1D0 00079RA1 0 00260YA1 0 35007
0440783670117062000073104553+19900-075150FM-15+0016MUGM V0203405N003650300019N0112005N1+02405+02305101695ADDGD12995+0094559GD22995+0182959GD33995+0304859GF107991999999999999999999KA1999M+03391KA2999N+02441MA1101695999999MW1001REMMET107MUGM 310455 34007KT 7SM FEW030 SCT060 BKN100 24/23 A3003 RMK LTG DSNT NW SLP169 T2 SET T02440228 403390244;EQDQ01+000000PRSWM2N01 00000JPWTH 0QNNAA1D0 02031BA1 0 02031AA1D0 02060BA1 0 02060AA1D0 04100BA1 0 04100KA1D0 00073JA1 0 00230LA1 0 00700CA1 0 03003NA1 0 00000QA1 0 10169SA1D0 00075RA1 0 00240YA1 0 34007
0141783670117062000080221004+19900-075220FM-12+0017MUGM V0201201N010311050019N0110001N1+03171+02281101291ADDAY121031AY221031GF106991021091008001061031MA1999999101081MW1151REMSYN066AAXX  02214 78367 41561 61220 10317 20228 30108 40129 71522 82963;
0352783670117062000081515553+19900-075150FM-15+0016MUGM V0200305N00465220005MN0112005N1+03305+02405101695ADDGD12995+0094559GD22995+0762059GF104991999999999999999999MA1101695999999MW1001REMMET071MUGM 151555Z 12017 9999 FEW030 SCT250 33/24 A3003 RMK SLP169 T03280239;EQDQ01+000000PRSWM2N01 00000JPWTH 0QNNAA1D0 02031BA1 0 02031AA1D0 02250BA1 0 02250GA1U0 99999KA1D0 00075JA1 0 00240LA1 0 00700CA1 0 03003NA1 0 00000QA1 0 10169SA1D0 00091RA1 0 00330YA1 0 03009
0484783670117062000082702553+19900-075150FM-15+0016MUGM V0203405N00155076205MN0112005N1+02705+02405101425ADDGD12995+0094559GD22995+0243859GD33995+0762059GF107991999999999999999999MA1101425999999MD1210101+9999MW1001REMMET152MUGM 270255Z 34005 9999 FEW030 SCT080 BKN250 27/24 A2995 RMK FRQ LTGCC S LTG DSNT N-NE TS OVHD MOV UNKN CB DSNT N-NE SLP142 T1SET 8/363 T02670239 52010;EQDQ01+000000PRSWM2N01 00000JPWTH 0QNNAA1D0 02031BA1 0 02031AA1D0 02080BA1 0 02080AA1D0 04250BA1 0 04250GA1 0 00250KA1D0 00075JA1 0 00240LA1 0 00700CA1 0 02995NA1 0 00000QA1 0 10142SA1D0 00081RA1 0 00270YA1 0 34003
0280783670117062000090510234+19900-075220FM-16+0017MUGM V02099999999990750019N0112651N1+02501+02401101291ADDGA1999+009009099GD12991+0090099GD22991+0300099GD33991+0750099GF107991999999999999999999MA1101291999999MW1171REMMET125MUGM 051023Z 36005 9999 TS FEW030CB SCT100 BKN250 25/24 A2991 RMK FRQ LTGIC S LTG DSNT NE TS S MOV N CB DSNT NE SLP129 T2SET;EQDQ01+000003PRSWM1Q02    003PRSWM1
0452783670117062000090802553+19900-075150FM-15+0016MUGM V0201305N00575220005MN0112005N1+02705+02605101255ADDGD12995+0094559GD22995+0213459GD32995+0762059GF104991999999999999999999MA1101255999999MD1110171+9999MW1001REMMET120MUGM 080255Z 35008 9999 FEW030 FEW070 SCT250 27/26 A2990 RMK LTG DSNT SW CB DSNT SW SLP125 T2 SET 8/933 T02670256 51017;EQDQ01+000000PRSWM2N01 00000JPWTH 0QNNAA1D0 02031BA1 0 02031AA1D0 02070BA1 0 02070AA1D0 02250BA1 0 02250GA1U0 99999KA1D0 00079JA1 0 00260LA1 0 00700CA1 0 02990NA1 0 00000QA1 0 10125SA1D0 00081RA1 0 00270YA1 0 13011
0396783670117062000092713553+19900-075150FM-15+0016MUGM V0203605N00265060965MN0112005N1+02705+02405101565ADDGD12995+0061059GD22995+0304859GD33995+0609659GF107991999999999999999999MA1101565999999MW1001REMMET078MUGM 271355Z 36001 9999 FEW020 SCT100 BKN200 27/24 A2999 RMK SLP156 T02670244;EQDQ01+000000PRSWM2N01 00000JPWTH 0QNNAA1D0 02020BA1 0 02020AA1D0 02100BA1 0 02100AA1D0 04200BA1 0 04200GA1 0 00200KA1D0 00075JA1 0 00240LA1 0 00700CA1 0 02999NA1 0 00000QA1 0 10156SA1D0 00081RA1 0 00270YA1 0 36005
0213783670117062000092904596+19900-075150SOD  +0017MUGM V020999999999999999999999999999+99999+99999999999ADDOE11249999999999997OE22249999999999997REMSOD163HOURLY INCREMENTAL PRECIPITATION VALUES (IN):.00  .00  .00  .00  .00  .00  .00  .00  .00  .00  .00  .00  .00  .00  .00  .00  .00  .00  .00  .00  .00  .00  .00  .00
0277783670117062000100400404+19900-075220FM-16+0017MUGM V02099999999990750019N0090001N1+02901+02501101421ADDGA1999+009009099GD12991+0090099GD22991+0240099GD33991+0750099GF107991999999999999999999MA1101591999999MW1811MW2951REMMET116MUGM 040040Z 11010 9000 TSRA SCT030CB SCT080 BKN250 29/25 A3000 RMK FRQ LTGIC OVHD TS OVHD MOVMT UNKN SLP142 T1 SET;EQDQ01+000003PRSWM1Q02    003PRSWM1
0402783670117062000100622553+19900-075150FM-15+0016MUGM V0201505N00465220005MN0112005N1+02905+02305101295ADDGD12995+0094559GD22995+0182959GD32995+0762059GF104991999999999999999999MA1101295999999MW1001REMMET084MUGM 062255Z 15007 9999 FEW030 SCT060 SCT250 29/23 A2991 RMK SLP129 T2SET T02940228;EQDQ01+000000PRSWM2N01 00000JPWTH 0QNNAA1D0 02031BA1 0 02031AA1D0 02060BA1 0 02060AA1D0 02250BA1 0 02250GA1U0 99999KA1D0 00073JA1 0 00230LA1 0 00700CA1 0 02991NA1 0 00000QA1 0 10129SA1D0 00084RA1 0 00290YA1 0 15009
0380783670117062000101212553+19900-075150FM-15+0016MUGM V0200205N00365220005MN0112005N1+02705+02205101495ADDGA1999+009009099GD12995+0094559GD22995+0609659GF104991999999999999999999MA1101495999999MW1001REMMET083MUGM 121255Z 02006 9999 FEW030CB SCT200 27/22 A2997 RMK CB DSNT S SLP149 T02670222;EQDQ01+000000PRSWM2N01 00000JPWTH 0QNNAA1D0 02031BA1 0 02031AA1D0 02200BA1 0 02200GA1U0 99999KA1D0 00072JA1 0 00220LA1 0 00700CA1 0 02997NA1 0 00000QA1 0 10149SA1D0 00081RA1 0 00270YA1 0 02007
0557783670117062000101300003+19900-075150FM-15+0016MUGM V0200105N00465030485MN0112005N1+02605+02305101325ADDGA1999+009009099GD12995+0094559GD23995+0304859GD33995+0609659GF107991999999999999999999KA1999M+03111KA2999N+02611MA1101325999999MD1210141+9999MW1805REMMET167MUGM 122355Z 01007 9999 -SHRA SCT030CB BKN100 BKN200 26/23 A2992 RMK LTG DSNT N CB OVHD MOV S CB DSNT N SLP132 T1SET P0000 8/963 T02610228 10311 20261 403110233 52014;EQDQ01+000003PRSWM1Q02    003PRSWM1N01 00023JPWTH 0QNNAA1D0 02031BA1 0 02031AA1D0 04100BA1 0 04100AA1D0 04200BA1 0 04200GA1 0 00100KA1D0 00073JA1 0 00230LA1 0 00700CA1 0 02992NA1 0 00023QA1 0 10132SA1D0 00079RA1 0 00260YA1 0 01009
0460783670117062000101623003+19900-075150FM-15+0016MUGM V0201605N00575018295MN0112005N1+02705+02305101325ADDGA1999+009009099GD12995+0094559GD23995+0182959GD33995+0304859GF107991999999999999999999MA1101325999999MW1171MW2955REMMET104MUGM 162255Z 01015 9999 TS SCT030CB BKN060 BKN100 27/23 A2992 RMK TS OVHD MOV S SLP132 T1 SET T02720233;EQDQ01+000003PRSWM1Q02    003PRSWM1N01 00010JPWTH 0QNNAA1D0 02031BA1 0 02031AA1D0 04060BA1 0 04060AA1D0 04100BA1 0 04100GA1 0 00060KA1D0 00073JA1 0 00230LA1 0 00700CA1 0 02992NA1 0 00010QA1 0 10132SA1D0 00081RA1 0 00270YA1 0 16011
0501783670117062000102100003+19900-075150FM-15+0016MUGM V0201505N00525076205MN0112005N1+02705+02205101465ADDGA1999+009009099GD12995+0094559GD22995+0304859GD33995+0762059GF107991999999999999999999KA1999M+03061KA2999N+02721MA1101465999999MD1210101+9999MW1001REMMET127MUGM 202355Z 04010 9999 SCT030CB SCT100 BKN250 27/22 A2996 RMK SLP146 T1 SET 60600 8/233 T02720222 10306 20272 403060233 52010;EQDQ01+000000PRSWM2N01 00000JPWTH 0QNNAA1D0 02031BA1 0 02031AA1D0 02100BA1 0 02100AA1D0 04250BA1 0 04250GA1 0 00250KA1D0 00072JA1 0 00220LA1 0 00700CA1 0 02996NA1 0 00000QA1 0 10146SA1D0 00081RA1 0 00270YA1 0 15010
0403783670117062000102101003+19900-075150FM-15+0016MUGM V0201405N00725220005MN0112005N1+02605+02205101465ADDGD12995+0094559GD22995+0243859GD32995+0762059GF104991999999999999999999MA1101525999999MW1001REMMET085MUGM 210055Z 35008 9999 FEW030 FEW080 SCT250 26/22 A2998 RMK SLP146 T2 SET T02610222;EQDQ01+000000PRSWM2N01 00000JPWTH 0QNNAA1D0 02031BA1 0 02031AA1D0 02080BA1 0 02080AA1D0 02250BA1 0 02250GA1U0 99999KA1D0 00072JA1 0 00220LA1 0 00700CA1 0 02998NA1 0 00000QA1 0 10146SA1D0 00079RA1 0 00260YA1 0 14014
0477783670117062000102318003+19900-075150FM-15+0016MUGM V0201405N00365220005MN0112005N1+03105+02205101225ADDGA1999+009009099GD12995+0094559GD22995+0762059GF102991999999999999999999KA1999M+03111KA2999N+02611MA1101225999999MD1710271+9999MW1161REMMET124MUGM 231755Z 19007 9999 VCSH FEW030CB FEW250 31/22 A2989 RMK CB NE-E MOV SE TCU NW SLP122 8/933 T03110222 10311 20261 57027;EQDQ01+000003PRSWM1Q02    003PRSWM1N01 00000JPWTH 0QNNAA1D0 02031BA1 0 02031AA1D0 02250BA1 0 02250GA1U0 99999KA1D0 00072JA1 0 00220LA1 0 00700CA1 0 02989NA1 0 00000QA1 0 10122SA1D0 00088RA1 0 00310YA1 0 14007
0372783670117062000110306003+19900-075150FM-15+0016MUGM V0203605N00465220005MN0112005N1+02205+01905101425ADDGD12995+0094559GF102991999999999999999999KA1999M+02441KA2999N+02221MA1101425999999MD1710141+9999MW1001REMMET088MUGM 030555Z 36007 9999 FEW030 22/19 A2995 RMK SLP142 8/100 T02220194 10244 20222 57014;EQDQ01+000000PRSWM2N01 00000JPWTH 0QNNAA1D0 02031BA1 0 02031GA1U0 99999KA1D0 00066JA1 0 00190LA1 0 00700CA1 0 02995NA1 0 00000QA1 0 10142SA1D0 00072RA1 0 00220YA1 0 36009
0308783670117062000111917003+19900-075150FM-15+0016MUGM V0201305N00985220005MN0112005N1+03105+02005101665ADDGD12995+0094559GF102991999999999999999999MA1101665999999MW1001REMMET064MUGM 191655Z 14016 9999 FEW030 31/20 A3002 RMK SLP166 T03060200;EQDQ01+000000PRSWM2N01 00000JPWTH 0QNNAA1D0 02031BA1 0 02031GA1U0 99999KA1D0 00068JA1 0 00200LA1 0 00700CA1 0 03002NA1 0 00000QA1 0 10166SA1D0 00088RA1 0 00310YA1 0 13019
0308783670117062000112904553+19900-075150FM-15+0016MUGM V0203605N00365220005MN0112005N1+02405+02105101635ADDGD12995+0094559GF102991999999999999999999MA1101635999999MW1001REMMET064MUGM 290455Z 36004 9999 FEW030 24/21 A3001 RMK SLP163 T02390211;EQDQ01+000000PRSWM2N01 00000JPWTH 0QNNAA1D0 02031BA1 0 02031GA1U0 99999KA1D0 00070JA1 0 00210LA1 0 00700CA1 0 03001NA1 0 00000QA1 0 10163SA1D0 00075RA1 0 00240YA1 0 36007
0406783670117062000120302553+19900-075150FM-15+0016MUGM V0203505N00415030485MN0112005N1+02405+02305101495ADDGD12995+0094559GD23995+0304859GF107991999999999999999999MA1101495999999MD1110141+9999MW1805REMMET095MUGM 030255Z 36004 9999 -SHRA SCT030 BKN100 24/23 A2997 RMK SLP149 P0000 8/460 T02440228 51014;EQDQ01+000003PRSWM1Q02    003PRSWM1N01 00023JPWTH 0QNNAA1D0 02031BA1 0 02031AA1D0 04100BA1 0 04100GA1 0 00100KA1D0 00073JA1 0 00230LA1 0 00700CA1 0 02997NA1 0 00023QA1 0 10149SA1D0 00075RA1 0 00240YA1 0 35008
0416783670117062000121217553+19900-075150FM-15+0016MUGM V0201305N00725220005MN0112005N1+03005+02105101695ADDGD12995+0094559GD22995+0182959GF102991999999999999999999KA1999M+03001KA2999N+02221MA1101695999999MD1810171+9999MW1001REMMET095MUGM 121755Z 13017 9999 FEW030 FEW060 30/21 A3003 RMK SLP169 8/130 T03000211 10300 20222 58017;EQDQ01+000000PRSWM2N01 00000JPWTH 0QNNAA1D0 02031BA1 0 02031AA1D0 02060BA1 0 02060GA1U0 99999KA1D0 00070JA1 0 00210LA1 0 00700CA1 0 03003NA1 0 00000QA1 0 10169SA1D0 00086RA1 0 00300YA1 0 13014
0308783670117062000121804553+19900-075150FM-15+0016MUGM V0203505N00265220005MN0112005N1+02305+01905101695ADDGD12995+0094559GF102991999999999999999999MA1101695999999MW1001REMMET064MUGM 180455Z 36006 9999 FEW030 23/19 A3003 RMK SLP169 T02330194;EQDQ01+000000PRSWM2N01 00000JPWTH 0QNNAA1D0 02031BA1 0 02031GA1U0 99999KA1D0 00066JA1 0 00190LA1 0 00700CA1 0 03003NA1 0 00000QA1 0 10169SA1D0 00073RA1 0 00230YA1 0 35005
0393783670117062000121908003+19900-075150FM-15+0016MUGM V0200405N00215220005MN0112005N1+02205+01905101425ADDGA1999+009009099GD12995+0094559GD22995+0609659GF102991999999999999999999MA1101425999999MW1001REMMET096MUGM 190755Z 04004 9999 FEW030CB FEW200 22/19 A2995 RMK LTG DSNT NE CB DSNT NE SLP142 T02220194;EQDQ01+000000PRSWM2N01 00000JPWTH 0QNNAA1D0 02031BA1 0 02031AA1D0 02200BA1 0 02200GA1U0 99999KA1D0 00066JA1 0 00190LA1 0 00700CA1 0 02995NA1 0 00000QA1 0 10142SA1D0 00072RA1 0 00220YA1 0 04004
001578367011706200012210459O+19900-075150SOD  +0016MUGM V020999999999999999999999999999+99999+99999999999ADDAT1MW03TS  1
0470783670117062000122208553+19900-075150FM-15+0016MUGM V0209995C00005220005MN0112005N1+02205+02005101495ADDGA1999+009009099GD12995+0094559GD22995+0243859GD32995+0762059GF104991999999999999999999MA1101495999999MD1510071+9999MW1001REMMET122MUGM 220855Z 00000 9999 FEW030CB SCT080 SCT250 22/20 A2997 RMK LTG DSNT SW CB DSNT SW SLP149 T2 SET 8/963 T02200200 55007;EQDQ01+000000PRSWM2N01 00000JPWTH 0QNNAA1D0 02031BA1 0 02031AA1D0 02080BA1 0 02080AA1D0 02250BA1 0 02250GA1U0 99999KA1D0 00068JA1 0 00200LA1 0 00700CA1 0 02997NA1 0 00000QA1 0 10149SA1D0 00072RA1 0 00220YA1 0 00000
0139783840999992000010219004+19280-081350FM-15+0003MWCR V0200601N008212200019N0112651N1+02801+02301999999ADDGA1021+006009999GF104991999999999999999999MA1101591999999MW1001REMMET045MWCR 021900Z 06016KT 9999 SCT020 28/23 Q1016;EQDQ01+000000PRSWM2
0139783840999992000010520004+19280-081350FM-15+0003MWCR V0200501N006712200019N0112651N1+02801+02301999999ADDGA1021+006009999GF104991999999999999999999MA1101591999999MW1001REMMET045MWCR 052000Z 05013KT 9999 SCT020 28/23 Q1016;EQDQ01+000000PRSWM2
0139783840999992000011013004+19280-081350FM-15+0003MWCR V0200701N002612200019N0112651N1+02401+02201999999ADDGA1021+006009999GF102991999999999999999999MA1101691999999MW1001REMMET045MWCR 101300Z 07005KT 9999 FEW020 24/22 Q1017;EQDQ01+000000PRSWM2
0120783840999992000011122004+19280-081350FM-15+0003MWCR V0200401N005112200019N0112651N1+02701+02001999999ADDGF100991999999999999999999MA1101591999999MW1001REMMET042MWCR 112200Z 04010KT 9999 SKC 27/20 Q1016;EQDQ01+000000PRSWM2
0139783840999992000011411004+19280-081350FM-15+0003MWCR V0200501N007712200019N0112651N1+02401+02101999999ADDGA1021+006609999GF102991999999999999999999MA1101901999999MW1001REMMET045MWCR 141100Z 05015KT 9999 FEW022 24/21 Q1019;EQDQ01+000000PRSWM2
0348783840999992000011612004+19280-081350SY-MT+000399999V0200601N01081220001CN0100001N1+02221+01561102301ADDAA112000891AY181061AY201061GA1021+006609999GF199999021011008001001001KA1999M+02471KA2120N+02031MA1102301999999MD1999999+0061MW1031REMSYN104    AAXX  16124 78384 11560 10621 10222 20156 40230 69982 70380 82100 333 10247 20203 58006 82822 90999;MET045MWCR 161200Z 06021KT 9999 FEW022 22/16 Q1023;EQDQ01+000012SCOTCVQ02+000000PRSWM2Q03    003PRSWM1
0162783840999992000012323004+19280-081350FM-15+0003MWCR V0201201N004110120019N0112651N1+02601+02301999999ADDGA1021+006009999GA2071+012009999GF107991999999999999999999MA1101391999999MW1001REMMET052MWCR 232300Z 12008KT 9999 SCT020 BKN040 26/23 Q1014;EQDQ01+000000PRSWM2
0139783840999992000020822004+19280-081350FM-15+0003MWCR V0200501N005112200019N0112651N1+02701+02201999999ADDGA1021+006009999GF102991999999999999999999MA1101901999999MW1001REMMET045MWCR 082200Z 05010KT 9999 FEW020 27/22 Q1019;EQDQ01+000000PRSWM2
0139783840999992000021722004+19280-081350FM-15+0003MWCR V0200401N006712200019N0112651N1+02701+02101999999ADDGA1021+006609999GF104991999999999999999999MA1101691999999MW1001REMMET045MWCR 172200Z 04013KT 9999 SCT022 27/21 Q1017;EQDQ01+000000PRSWM2
0162783840999992000021914004+19280-081350FM-15+0003MWCR V0200801N005110210019N0112651N1+02501+02101999999ADDGA1021+005409999GA2071+021009999GF107991999999999999999999MA1102001999999MW1001REMMET052MWCR 191400Z 08010KT 9999 FEW018 BKN070 25/21 Q1020;EQDQ01+000000PRSWM2
0139783840999992000022221004+19280-081350FM-15+0003MWCR V0200401N005712200019N0112651N1+02601+02001999999ADDGA1021+006009999GF104991999999999999999999MA1101691999999MW1001REMMET045MWCR 222100Z 04011KT 9999 SCT020 26/20 Q1017;EQDQ01+000000PRSWM2
0139783840999992000022517004+19280-081350FM-15+0003MWCR V0200501N006712200019N0112651N1+02701+02001999999ADDGA1021+008409999GF102991999999999999999999MA1101801999999MW1001REMMET045MWCR 251700Z 05013KT 9999 FEW028 27/20 Q1018;EQDQ01+000000PRSWM2
0139783840999992000022916004+19280-081350FM-15+0003MWCR V0200501N007212200019N0112651N1+02801+02101999999ADDGA1021+006009999GF104991999999999999999999MA1102001999999MW1001REMMET045MWCR 291600Z 05014KT 9999 SCT020 28/21 Q1020;EQDQ01+000000PRSWM2
0361783840999992000030818004+19280-081350SY-MT+0003MWCR V0201101N008212200019N0100001N1+02861+01851101681ADDAA199000091AY111061AY211061GA1021+007209999GA2021+075009999GF104991011011008001001021KA1120M+02901KA2240N+02271MA1101591999999MD1999999-0181MW1011REMSYN094AAXX  08184 78384 31560 41116 10286 20185 40168 70111 81102 333 10290 20227 59018 81824 84075;MET052MWCR 081800Z 11016KT 9999 FEW024 SCT250 29/19 Q1016;EQDQ01+000000PRSWM2Q02  00002PRCP99Q03    003PRSWM1
0139783840999992000031022004+19280-081350FM-15+0003MWCR V0201001N007712200019N0112651N1+02701+02201999999ADDGA1021+007509999GF102991999999999999999999MA1101491999999MW1001REMMET045MWCR 102200Z 10015KT 9999 FEW025 27/22 Q1015;EQDQ01+000000PRSWM2
0162783840999992000031402004+19280-081350FM-15+0003MWCR V0200501N004110720019N0112651N1+02501+02201999999ADDGA1021+007509999GA2071+072009999GF107991999999999999999999MA1101591999999MW1001REMMET052MWCR 140200Z 05008KT 9999 FEW025 BKN240 25/22 Q1016;EQDQ01+000000PRSWM2
0348783840999992000031512004+19280-081350SY-MT+0003MWCR V0200701N004112200019N0100001N1+02381+02151101541ADDAA199000091AY101061AY201061GA1021+006009999GF199999011021008001001001KA1999M+02901KA2120N+02261MA1101491999999MD1999999+0041MW1021REMSYN088AAXX  15124 78384 31560 10708 10238 20215 40154 70200 81200 333 10290 20226 58004 81820;MET045MWCR 151200Z 07008KT 9999 FEW020 24/22 Q1015;EQDQ01+000012SCOTCVQ02+000000PRSWM2Q03  00002PRCP99Q04    003PRSWM1
0354783840999992000032200004+19280-081350SY-MT+0003MWCR V0200401N005112200019N0100001N1+02601+02191101521ADDAA124999999AY101061AY201061GA1021+006909999GF199999011011008001001001KA1120M+02941KA2180N+02391MA1101491999999MD1999999-0121MW1021REMSYN094AAXX  22004 78384 31560 10410 10260 20219 40152 70200 81100 333 10294 20239 59012 79999 81823;MET045MWCR 220000Z 04010KT 9999 FEW023 26/22 Q1015;EQDQ01+000012SCOTCVQ02+000000PRSWM2Q03  99992PRCP24Q04    003PRSWM1
0332783840999992000032218004+19280-081350SY-MT+0003MWCR V0200401N008212200019N0100001N1+02881+02161101641ADDAA199000091AY101061AY201061GA1021+007509999GF102991021021008001001001KA1120M+02891KA2240N+02081MA1101591999999MD1999999+0051MW1021REMSYN088AAXX  22184 78384 31560 20416 10288 20216 40164 70200 82200 333 10289 20208 58005 82825;MET045MWCR 221800Z 04016KT 9999 FEW025 29/22 Q1016;EQDQ01+000000PRSWM2Q02  00002PRCP99Q03    003PRSWM1
0332783840999992000032412004+19280-081350SY-MT+0003MWCR V0200501N006712200019N0100001N1+02421+01921101341ADDAA199000091AY101061AY201061GA1021+005409999GF104991021081004501061001KA1999M+02851KA2120N+02321MA1101291999999MD1999999-0171MW1011REMSYN088AAXX  24124 78384 31460 40513 10242 20192 40134 70100 82860 333 10285 20232 59017 81818;MET045MWCR 241200Z 05013KT 9999 FEW018 24/19 Q1013;EQDQ01+000000PRSWM2Q02  00002PRCP99Q03    003PRSWM1
0139783840999992000040223004+19280-081350FM-15+0003MWCR V0200501N006712200019N0112651N1+02801+02301999999ADDGA1021+006609999GF102991999999999999999999MA1101491999999MW1001REMMET045MWCR 022300Z 05013KT 9999 FEW022 28/23 Q1015;EQDQ01+000000PRSWM2
0332783840999992000040418004+19280-081350SY-MT+0003MWCR V0201101N001512200019N0100001N1+02771+02251101691ADDAA199000091AY101061AY201061GA1021+006009999GF104991041081008001001001KA1120M+02851KA2240N+02111MA1101591999999MD1999999+0061MW1021REMSYN088AAXX  04184 78384 31560 41103 10277 20225 40169 70200 84800 333 10285 20211 58006 82820;MET045MWCR 041800Z 11003KT 9999 FEW020 28/23 Q1016;EQDQ01+000000PRSWM2Q02  00002PRCP99Q03    003PRSWM1
0139783840999992000040816004+19280-081350FM-15+0003MWCR V0200501N004612200019N0112651N1+02901+02301999999ADDGA1021+007509999GF102991999999999999999999MA1101691999999MW1001REMMET045MWCR 081600Z 05009KT 9999 FEW025 29/23 Q1017;EQDQ01+000000PRSWM2
0139783840999992000041102004+19280-081350FM-15+0003MWCR V0200501N005712200019N0112651N1+02601+02201999999ADDGA1021+006009999GF102991999999999999999999MA1101691999999MW1001REMMET045MWCR 110200Z 05011KT 9999 FEW020 26/22 Q1017;EQDQ01+000000PRSWM2
0139783840999992000041613004+19280-081350FM-15+0003MWCR V0200801N004112200019N0112651N1+02601+02401999999ADDGA1021+006009999GF102991999999999999999999MA1101691999999MW1001REMMET045MWCR 161300Z 08008KT 9999 FEW020 26/24 Q1017;EQDQ01+000000PRSWM2
0139783840999992000042523004+19280-081350FM-15+0003MWCR V0201501N004612200019N0112651N1+02901+02401999999ADDGA1021+006909999GF102991999999999999999999MA1101391999999MW1001REMMET045MWCR 252300Z 15009KT 9999 FEW023 29/24 Q1014;EQDQ01+000000PRSWM2
0139783840999992000050101004+19280-081350FM-15+0003MWCR V0200401N004112200019N0112651N1+02701+02301999999ADDGA1021+007509999GF102991999999999999999999MA1101491999999MW1001REMMET045MWCR 010100Z 04008KT 9999 FEW025 27/23 Q1015;EQDQ01+000000PRSWM2
0139783840999992000050102004+19280-081350FM-15+0003MWCR V0200101N004112200019N0112651N1+02701+02401999999ADDGA1021+006609999GF104991999999999999999999MA1101591999999MW1001REMMET045MWCR 010200Z 01008KT 9999 SCT022 27/24 Q1016;EQDQ01+000000PRSWM2
0297783840999992000050412004+19280-081350SY-MT+0003MWCR V0200801N005712200019N0100001N1+02701+02481101431ADDAA199000091GA1021+005409029GF102991011021004501061011KA1999M+03081KA2120N+02551MA1101391999999MD1999999+0031MW1001REMSYN082AAXX  04124 78384 32460 20811 10270 20248 40143 81261 333 10308 20255 58003 81818;MET048MWCR 041200Z 08011KT 9999 FEW018TCU 27/25 Q1014;EQDQ01+000000PRSWM2Q02  00002PRCP99
0162783840999992000051619004+19280-081350FM-15+0003MWCR V0200401N006710690019N0112651N1+03001+02501999999ADDGA1021+006609999GA2071+069009999GF107991999999999999999999MA1101391999999MW1001REMMET052MWCR 161900Z 04013KT 9999 FEW022 BKN230 30/25 Q1014;EQDQ01+000000PRSWM2
0162783840999992000052521004+19280-081350FM-15+0003MWCR V0201301N005110660019N0112651N1+03101+02401999999ADDGA1021+006609999GA2071+066009999GF107991999999999999999999MA1101391999999MW1001REMMET052MWCR 252100Z 13010KT 9999 FEW022 BKN220 31/24 Q1014;EQDQ01+000000PRSWM2
0139783840999992000052603004+19280-081350FM-15+0003MWCR V0200901N002612200019N0112651N1+02801+02401999999ADDGA1021+006009999GF102991999999999999999999MA1101391999999MW1001REMMET045MWCR 260300Z 09005KT 9999 FEW020 28/24 Q1014;EQDQ01+000000PRSWM2
0185783840999992000053119004+19280-081350FM-15+0003MWCR V0200701N004110480019N0112651N1+02701+02401999999ADDGA1021+005409999GA2021+024009999GA3071+048009999GF107991999999999999999999MA1101491999999MW1001REMMET059MWCR 311900Z 07008KT 9999 SCT018 SCT080 BKN160 27/24 Q1015;EQDQ01+000000PRSWM2
0162783840999992000060213004+19280-081350FM-15+0003MWCR V0200601N004610420019N0112651N1+02801+02401999999ADDGA1021+006009999GA2081+042009999GF108991999999999999999999MA1101591999999MW1001REMMET052MWCR 021300Z 06009KT 9999 FEW020 OVC140 28/24 Q1016;EQDQ01+000000PRSWM2
0367783840999992000060412004+19280-081350SY-MT+0003MWCR V0200901N002610300019N0100001N1+02721+02541101511ADDAA199000091AY101061AY201061GA1021+005409999GA2071+030009999GF107991011011004501031011KA1999M+03101KA2120N+02631MA1101491999999MD1999999-0101MW1031REMSYN100AAXX  04124 78384 31460 70905 10272 20254 40151 70300 81131 333 0/899 10310 20263 59010 81818 85360;MET052MWCR 041200Z 09005KT 9999 FEW018 BKN100 27/25 Q1015;EQDQ01+000000PRSWM2Q02  00002PRCP99Q03    003PRSWM1
0162783840999992000060813004+19280-081350FM-15+0003MWCR V0200801N003112200019N0112651N1+02801+02401999999ADDGA1021+006009999GA2021+024009999GF104991999999999999999999MA1101491999999MW1001REMMET052MWCR 081300Z 08006KT 9999 FEW020 SCT080 28/24 Q1015;EQDQ01+000000PRSWM2
0162783840999992000061323004+19270-081350FM-15+0003MWCR V0200801N004610690019N0112651N1+03001+02501999999ADDGA1021+006009999GA2071+069009999GF107991999999999999999999MA1101491999999MW1001REMMET052MWCR 132300Z 08009KT 9999 SCT020 BKN230 30/25 Q1015;EQDQ01+000000PRSWM2
0139783840999992000062102004+19270-081350FM-15+0003MWCR V0200501N004112200019N0112651N1+02801+02501999999ADDGA1021+006609999GF102991999999999999999999MA1101691999999MW1001REMMET045MWCR 210200Z 05008KT 9999 FEW022 28/25 Q1017;EQDQ01+000000PRSWM2
0164783840999992000062615004+19270-081350FM-15+0003MWCR V0201001N007212200019N0112651N1+03101+02401999999ADDGA1021+005409099GA2021+006909999GF104991999999999999999999MA1101491999999MW1001REMMET054MWCR 261500Z 10014KT 9999 FEW018CB SCT023 31/24 Q1015;EQDQ01+000000PRSWM2
0343783840999992000070300004+19270-081350SY-MT+0003MWCR V0209999C000010390019N0100001N1+02951+02431101451ADDAA199000091AY111061AY211061GA1071+039009999GF199999011021008001031001KA1120M+03221MA1101391999999MD1999999-0021MW1031REMSYN094AAXX  03004 78384 31560 50000 10295 20243 40145 70311 81230 333 0/204 10322 59002 81820 85363;MET047MWCR 030000Z 00000KT FEW020 BKN130 30/24 Q1014;EQDQ01+000052SCOTCVQ02+000000PRSWM2Q03  00002PRCP99Q04    003PRSWM1
0150783840999992000070619004+19270-081350FM-15+0003MWCR V0201201N004612200019N0112651N1+02901+02401999999ADDGA1021+005409029GF104991999999999999999999MA1101291999999MW1001REMMET056MWCR 061900Z 12009KT 040V150 9999 SCT018TCU 29/24 Q1013;EQDQ01+000000PRSWM2
0139783840999992000071414004+19270-081350FM-15+0003MWCR V0200301N002612200019N0112651N1+03001+02401999999ADDGA1021+007209999GF102991999999999999999999MA1101591999999MW1001REMMET045MWCR 141400Z 03005KT 9999 FEW024 30/24 Q1016;EQDQ01+000000PRSWM2
0162783840999992000072501004+19270-081350FM-15+0003MWCR V0201101N001512200019N0112651N1+02901+02601999999ADDGA1021+006609999GA2021+084009999GF104991999999999999999999MA1101391999999MW1001REMMET052MWCR 250100Z 11003KT 9999 FEW022 SCT280 29/26 Q1014;EQDQ01+000000PRSWM2
0162783840999992000081011004+19270-081350FM-15+0003MWCR V02099999999990660019N0112651N1+02601+02401999999ADDGA1021+005409999GA2071+066009999GF107991999999999999999999MA1101391999999MW1001REMMET052MWCR 101100Z VRB01KT 9999 FEW018 BKN220 26/24 Q1014;EQDQ01+000000PRSWM2
0139783840999992000081801004+19270-081350FM-15+0003MWCR V0200801N002612200019N0112651N1+02901+02601999999ADDGA1021+006609999GF102991999999999999999999MA1101391999999MW1001REMMET045MWCR 180100Z 08005KT 9999 FEW022 29/26 Q1014;EQDQ01+000000PRSWM2
0338783840999992000082212004+19270-081350SY-MT+0003MWCR V0200601N002612200019N0100001N1+02841+02581101461ADDAA199000091AY101061AY201061GA1021+006009999GF103991031011008001001001KA1999M+03351KA2120N+02711MA1101391999999MD1999999-0051MW1021REMSYN094AAXX  22124 78384 31560 30605 10284 20258 40146 70200 83100 333 00200 10335 20271 59005 53820;MET045MWCR 221200Z 06005KT 9999 SCT020 28/26 Q1014;EQDQ01+000000PRSWM2Q02  00002PRCP99Q03    003PRSWM1
0139783840999992000090302004+19270-081350FM-15+0003MWCR V0209999C000012200019N0112651N1+02801+02601999999ADDGA1021+006909999GF102991999999999999999999MA1101191999999MW1001REMMET045MWCR 030200Z 00000KT 9999 FEW023 28/26 Q1012;EQDQ01+000000PRSWM2
0146783840999992000090503004+19270-081350FM-15+0003MWCR V0209999C000012200019N0112651N1+02801+02501999999ADDGA1021+005409099GF102991999999999999999999MA1101291999999MW1001REMMET052MWCR 050300Z 00000KT 9999 LTGN FEW018CB 28/25 Q1013;EQDQ01+000000PRSWM2
0185783840999992000091421004+19270-081350FM-15+0003MWCR V0200901N001510540019N0112651N1+02801+02501999999ADDGA1021+005409999GA2021+030009999GA3071+054009999GF107991999999999999999999MA1101191999999MW1001REMMET059MWCR 142100Z 09003KT 9999 FEW018 SCT100 BKN180 28/25 Q1012;EQDQ01+000000PRSWM2
0162783840999992000091713004+19270-081350FM-15+0003MWCR V0201201N004110750019N0112651N1+03001+02501999999ADDGA1021+006009999GA2071+075009999GF107991999999999999999999MA1101191999999MW1001REMMET052MWCR 171300Z 12008KT 9999 FEW020 BKN250 30/25 Q1012;EQDQ01+000000PRSWM2
0338783840999992000100800004+19270-081350SY-MT+0003MWCR V0200201N003112200019N0100001N1+02911+02531101391ADDAA199000091AY121061AY221061GA1021+005409999GF104991031021008001061031KA1120M+03181KA2180N+02711MA1101291999999MD1999999+0041MW1021REMSYN094AAXX  08004 78384 31560 40206 10291 20253 40139 70222 83263 333 00339 10318 20271 58004 83820;MET045MWCR 080000Z 02006KT 9999 SCT018 29/25 Q1013;EQDQ01+000000PRSWM2Q02  00002PRCP99Q03    003PRSWM1
0164783840999992000101114004+19270-081350FM-15+0003MWCR V0200901N005710660019N0112651N1+03001+02601999999ADDGA1021+006009099GA2071+066009999GF107991999999999999999999MA1101391999999MW1001REMMET054MWCR 111400Z 09011KT 9999 FEW020CB BKN220 30/26 Q1014;EQDQ01+000000PRSWM2
0164783840999992000101122004+19270-081350FM-15+0003MWCR V0200401N002612200019N0112651N1+02701+02601999999ADDGA1021+004809099GA2021+060009999GF104991999999999999999999MA1101191999999MW1001REMMET054MWCR 112200Z 04005KT 9999 SCT016CB SCT200 27/26 Q1012;EQDQ01+000000PRSWM2
0162783840999992000102111004+19270-081350FM-15+0003MWCR V0200301N003110600019N0112651N1+02701+02201999999ADDGA1021+006009999GA2071+060009999GF107991999999999999999999MA1101391999999MW1001REMMET052MWCR 211100Z 03006KT 9999 FEW020 BKN200 27/22 Q1014;EQDQ01+000000PRSWM2
0183783840999992000102313004+19270-081350FM-15+0003MWCR V0200401N008210114019N0090001N1+02701+02301999999ADDGA1021+006009999GA2071+011409999GF107991999999999999999999MA1101591999999MW1811REMMET057MWCR 231300Z 04016KT 9000 SHRA SCT020 BKN038 27/23 Q1016;EQDQ01+000003PRSWM1Q02    003PRSWM1
0183783840999992000102322004+19270-081350FM-15+0003MWCR V0200401N005112200019N0112651N1+02701+02401999999ADDGA1021+004809999GA2021+030009999GF104991999999999999999999MA1101291999999MW1161REMMET057MWCR 232200Z 04010KT 9999 VCSH SCT016 SCT100 27/24 Q1013;EQDQ01+000003PRSWM1Q02    003PRSWM1
0180783840999992000103123004+19270-081350FM-15+0003MWCR V0200501N006710750019N0112651N1+02701+02101999999ADDGA1021+006009999GA2071+075009999GF107991999999999999999999MA1101291999999MW1001REMMET070MWCR 312300Z 05013KT 9999 FEW020 BKN250 27/21 Q1013/CB TOP W EXT OVHD;EQDQ01+000000PRSWM2
0139783840999992000110314004+19270-081350FM-15+0003MWCR V0200601N007712200019N0112651N1+02801+02101999999ADDGA1021+007509999GF102991999999999999999999MA1101491999999MW1001REMMET045MWCR 031400Z 06015KT 9999 FEW025 28/21 Q1015;EQDQ01+000000PRSWM2
0162783840999992000110623004+19270-081350FM-15+0003MWCR V0200901N004110180019N0112651N1+02801+02301999999ADDGA1021+006609999GA2071+018009999GF107991999999999999999999MA1101081999999MW1001REMMET052MWCR 062300Z 09008KT 9999 FEW022 BKN060 28/23 Q1011;EQDQ01+000000PRSWM2
0139783840999992000111115004+19270-081350FM-15+0003MWCR V0200401N004610054019N0112651N1+02801+02301999999ADDGA1071+005409999GF107991999999999999999999MA1101391999999MW1001REMMET045MWCR 111500Z 04009KT 9999 BKN018 28/23 Q1014;EQDQ01+000000PRSWM2
0147783840999992000111523004+19270-081350FM-15+0003MWCR V0200301N004612200019N0112651N1+02601+02101999999ADDGA1021+005409999GF102991999999999999999999MA1101391999999MW1001REMMET053MWCR 152300Z 03009KT 350V070 9999 FEW018 26/21 Q1014;EQDQ01+000000PRSWM2
0139783840999992000111822004+19270-081350FM-15+0003MWCR V0200501N005712200019N0112651N1+02901+02401999999ADDGA1021+006009999GF102991999999999999999999MA1101291999999MW1001REMMET045MWCR 182200Z 05011KT 9999 FEW020 29/24 Q1013;EQDQ01+000000PRSWM2
0139783840999992000123014004+19270-081350FM-15+0003MWCR V0200301N002112200019N0112651N1+02601+02101999999ADDGA1021+006609999GF102991999999999999999999MA1101591999999MW1001REMMET045MWCR 301400Z 03004KT 9999 FEW022 26/21 Q1016;EQDQ01+000000PRSWM2
0139783840999992000123022004+19270-081350FM-15+0003MWCR V0200401N004112200019N0112651N1+02501+02001999999ADDGA1021+006609999GF102991999999999999999999MA1101491999999MW1001REMMET045MWCR 302200Z 04008KT 9999 FEW022 25/20 Q1015;EQDQ01+000000PRSWM2
0152783840999992000123111004+19270-081350FM-15+0003MWCR V0200101N004610054019N0112651N1+02501+01901999999ADDGA1071+005409999GF107991999999999999999999MA1101691999999MW1001REMMET058MWCR 311100Z 01009KT 330V050 9999 BKN018 25/19 Q1017 RERA;EQDQ01+000000PRSWM2
0169783840999992000123117004+19270-081350FM-15+0003MWCR V0200301N004610030019N0080001N1+02101+02101999999ADDGA1081+003009999GF108991999999999999999999MA1101901999999MW1801REMMET059MWCR 311700Z 03009KT 320V090 8000 -SHRA OVC010 21/21 Q1019;EQDQ01+000003PRSWM1Q02    003PRSWM1
0139783880999992000010417004+18500-077920FM-15+0003MKJS V0200901N006712200019N0112651N1+02901+02101999999ADDGA1021+006009999GF102991999999999999999999MA1101691999999MW1001REMMET045MKJS 041700Z 09013KT 9999 FEW020 29/21 Q1017;EQDQ01+000000PRSWM2
0123783880999992000010714004+18500-077920FM-15+0003MKJS V0200701N013412200019N0112651N1+02701+02201999999ADDGA1021+006609999GF102991999999999999999999MW1001REMMET044MKJS 071400Z 07026KT 9999 FEW022 27/22 1019;EQDQ01+000000PRSWM2
0139783880999992000010722004+18500-077920FM-15+0003MKJS V0200701N007212200019N0112651N1+02701+02201999999ADDGA1021+006009999GF102991999999999999999999MA1101591999999MW1001REMMET045MKJS 072200Z 07014KT 9999 FEW020 27/22 Q1016;EQDQ01+000000PRSWM2
0139783880999992000010811004+18500-077920FM-15+0003MKJS V0200901N003612200019N0112651N1+02501+02101999999ADDGA1021+006609999GF102991999999999999999999MA1101591999999MW1001REMMET045MKJS 081100Z 09007KT 9999 FEW022 25/21 Q1016;EQDQ01+000000PRSWM2
0300783880999992000010818004+18500-077920SY-MT+0003MKJS V0200501N008212200019N0280001N1+02851+02171101741ADDAA106000091GA1021+006609999GF102991021081008001001011KA1120M+02941KA2240N+02281MA1101691999999MD1999999+0021MW1001REMSYN088AAXX  08184 78388 32578 20516 10285 20217 40174 82801 333 01000 10294 20228 58002 82822;MET045MKJS 081800Z 05016KT 9999 FEW022 29/22 Q1017;EQDQ01+000000PRSWM2Q02  00002PRCP06
0123783880999992000011702004+18500-077920FM-15+0003MKJS V0200801N005712200019N0112651N1+02501+01901999999ADDGA1021+006609999GF102991999999999999999999MW1001REMMET044MKJS 170200Z 08011KT 9999 FEW022 25/19 1019;EQDQ01+000000PRSWM2
0139783880999992000012211004+18500-077920FM-15+0003MKJS V0201301N002112200019N0112651N1+02201+01701999999ADDGA1021+007209999GF102991999999999999999999MA1101591999999MW1001REMMET045MKJS 221100Z 13004KT 9999 FEW024 22/17 Q1016;EQDQ01+000000PRSWM2
0345783880999992000020300004+18500-077920SY-MT+0003MKJS V0201301N002110660019N0200001N1+02531+02091101791ADDAA199000091GA1021+006609999GA2071+066009999GF199999011081008001001021KA1120M+02911KA2180N+02111MA1101691999999MD1999999+0031MW1001REMSYN094AAXX  03004 78388 32570 51304 10253 20209 40179 81802 333 01000 10291 20211 58003 81822 85072;MET052MKJS 030000Z 13004KT 9999 FEW022 BKN220 25/21 Q1017;EQDQ01+000052SCOTCVQ02+000000PRSWM2Q03  00002PRCP99
0162783880999992000020423004+18500-077920FM-15+0003MKJS V0200501N002610066019N0112651N1+02601+02201999999ADDGA1071+006609999GA2071+066009999GF107991999999999999999999MA1101591999999MW1001REMMET052MKJS 042300Z 05005KT 9999 BKN022 BKN220 26/22 Q1016;EQDQ01+000000PRSWM2
0139783880999992000020504004+18500-077920FM-15+0003MKJS V0201401N002112200019N0112651N1+02501+02201999999ADDGA1021+006609999GF102991999999999999999999MA1101901999999MW1001REMMET045MKJS 050400Z 14004KT 9999 FEW022 25/22 Q1019;EQDQ01+000000PRSWM2
0329783880999992000020718004+18500-077920SY-MT+0003MKJS V0200801N006710090019N0290001N1+02721+02211101981ADDAA199000091GA1021+006009999GA2071+009009999GF107991071081008001001001KA1120M+02791KA2240N+02341MA1101901999999MD1999999-0091MW1001REMSYN094AAXX  07184 78388 32579 70813 10272 20221 40198 87800 333 01200 10279 20234 59009 81820 87630;MET052MKJS 071800Z 08013KT 9999 FEW020 BKN030 27/22 Q1019;EQDQ01+000000PRSWM2Q02  00002PRCP99
0162783880999992000020819004+18500-077920FM-15+0003MKJS V0200301N004610090019N0112651N1+02701+02201999999ADDGA1021+006009999GA2071+009009999GF107991999999999999999999MA1101801999999MW1001REMMET052MKJS 081900Z 03009KT 9999 SCT020 BKN030 27/22 Q1018;EQDQ01+000000PRSWM2
0139783880999992000021208004+18500-077920FM-15+0003MKJS V0201001N002612200019N0112651N1+02501+02101999999ADDGA1021+006009999GF102991999999999999999999MA1101691999999MW1001REMMET045MKJS 120800Z 10005KT 9999 FEW020 25/21 Q1017;EQDQ01+000000PRSWM2
0139783880999992000021214004+18500-077920FM-15+0003MKJS V0200701N012312200019N0112651N1+02701+02201999999ADDGA1021+006609999GF104991999999999999999999MA1101901999999MW1001REMMET045MKJS 121400Z 07024KT 9999 SCT022 27/22 Q1019;EQDQ01+000000PRSWM2
0139783880999992000021302004+18500-077920FM-15+0003MKJS V0201001N002612200019N0112651N1+02501+02201999999ADDGA1021+007209999GF102991999999999999999999MA1101801999999MW1001REMMET045MKJS 130200Z 10005KT 9999 FEW024 25/22 Q1018;EQDQ01+000000PRSWM2
0300783880999992000021418004+18500-077920SY-MT+0003MKJS V0200701N007212200019N0280001N1+02891+02031101751ADDAA199000091GA1021+007209999GF102991021021008001001001KA1120M+03091KA2240N+01911MA1101691999999MD1999999+0051MW1001REMSYN088AAXX  14184 78388 32578 20714 10289 20203 40175 82200 333 01000 10309 20191 58005 82824;MET045MKJS 141800Z 07014KT 9999 FEW024 29/20 Q1017;EQDQ01+000000PRSWM2Q02  00002PRCP99
0139783880999992000021807004+18500-077920FM-15+0003MKJS V0201301N002612200019N0112651N1+02301+02001999999ADDGA1021+006609999GF102991999999999999999999MA1101691999999MW1001REMMET045MKJS 180700Z 13005KT 9999 FEW022 23/20 Q1017;EQDQ01+000000PRSWM2
0316783880999992000021918004+18500-077920SY-MT+0003MKJS V0200301N007212200019N0280001N1+02891+02191101881ADDAA199000091GA1021+007209999GF199999011081008001001001KA1120M+03001KA2240N+02231MA1101801999999MD1999999+0021MW1001REMSYN088AAXX  19184 78388 32578 10314 10289 20219 40188 81800 333 01200 10300 20223 58002 81824;MET045MKJS 191800Z 03014KT 9999 FEW024 29/22 Q1018;EQDQ01+000012SCOTCVQ02+000000PRSWM2Q03  00002PRCP99
0139783880999992000022808004+18500-077920FM-15+0003MKJS V0209999C000012200019N0112651N1+02301+01701999999ADDGA1021+007209999GF102991999999999999999999MA1101591999999MW1001REMMET045MKJS 280800Z 00000KT 9999 FEW024 23/17 Q1016;EQDQ01+000000PRSWM2
0139783880999992000022919004+18500-077920FM-15+0003MKJS V0200401N009312200019N0112651N1+02801+02001999999ADDGA1021+006009999GF102991999999999999999999MA1101691999999MW1001REMMET045MKJS 291900Z 04018KT 9999 FEW020 28/20 Q1017;EQDQ01+000000PRSWM2
0306783880999992000031415004+18500-077920SY-MT+0003MKJS V0200201N999992200019N9999999N1+02801+02101101651ADDGA1021+007209999GA2071+072009999GF199999011081017501001021MA1101591999999MD1999999-0141MW1001REMSYN076AAXX  14154 78388 //713 10277 20209 40165 81802 333 01009 59014 81824 86074;MET052MKJS 141500Z 07013KT 9999 FEW024 BKN240 28/21 Q1016;EQDQ01+003963WOSPD Q02+000012SCOTCVQ03+013002VODIS Q04+000000PRSWM2
0235783880999992000031709004+18500-077920SY-MT+0003MKJS V0201001N001512200019N0200001N1+02261+01841101561ADDGA1021+007209999GF102991021081008001001001MA1101491999999MD1999999+0041MW1001REMSYN076AAXX  17094 78388 42570 21003 10226 20184 40156 82800 333 00000 58004 81824;MET045MKJS 170900Z 10003KT 9999 FEW024 23/18 Q1015;EQDQ01+000000PRSWM2
0316783880999992000032912004+18500-077920SY-MT+0003MKJS V0209999C000012200019N0280001N1+02481+02011101521ADDAA199000091GA1021+007209999GF199999011081008001001001KA1999M+02981KA2120N+02121MA1101491999999MD1999999+0221MW1001REMSYN088AAXX  29124 78388 32578 10000 10248 20201 40152 81800 333 00000 10298 20212 58022 81824;MET045MKJS 291200Z 00000KT 9999 FEW024 25/20 Q1015;EQDQ01+000012SCOTCVQ02+000000PRSWM2Q03  00002PRCP99
0316783880999992000032918004+18500-077920SY-MT+0003MKJS V0200401N007712200019N0280001N1+02981+02331101331ADDAA199000091GA1021+007209999GF199999011081008001001001KA1120M+03101KA2240N+02121MA1101291999999MD1999999+0101MW1001REMSYN088AAXX  29184 78388 32578 10415 10298 20233 40133 81800 333 02200 10310 20212 58010 81824;MET045MKJS 291800Z 04015KT 9999 FEW024 30/23 Q1013;EQDQ01+000012SCOTCVQ02+000000PRSWM2Q03  00002PRCP99
0139783880999992000040720004+18500-077920FM-15+0003MKJS V0200501N008212200019N0112651N1+02901+02301999999ADDGA1021+006609999GF104991999999999999999999MA1101291999999MW1001REMMET045MKJS 072000Z 05016KT 9999 SCT022 29/23 Q1013;EQDQ01+000000PRSWM2
0162783880999992000042005004+18500-077920FM-15+0003MKJS V0209999C000012200019N0112651N1+02601+02201999999ADDGA1021+006609999GA2021+066009999GF104991999999999999999999MA1101491999999MW1001REMMET052MKJS 200500Z 00000KT 9999 FEW022 SCT220 26/22 Q1015;EQDQ01+000000PRSWM2
0139783880999992000042905004+18500-077920FM-15+0003MKJS V0209999C000012200019N0112651N1+02701+02201999999ADDGA1021+006609999GF102991999999999999999999MA1101591999999MW1001REMMET045MKJS 290500Z 00000KT 9999 FEW022 27/22 Q1016;EQDQ01+000000PRSWM2
0139783880999992000050213004+18500-077920FM-15+0003MKJS V0201101N003112200019N0112651N1+02901+02101999999ADDGA1021+007209999GF102991999999999999999999MA1101391999999MW1001REMMET045MKJS 021300Z 11006KT 9999 FEW024 29/21 Q1014;EQDQ01+000000PRSWM2
0369783880999992000050218004+18500-077920SY-MT+0003MKJS V0200401N008212200019N0250001N1+03041+02371101371ADDAA199000091AY111061AY211061GA1021+006009999GA2021+006609099GF103991031091008001001031KA1120M+03171KA2240N+02441MA1101291999999MD1999999-0131MW1151REMSYN100AAXX  02184 78388 31575 30416 10304 20237 40137 71511 83903 333 06200 10317 20244 59013 81820 81922;MET054MKJS 021800Z 04016KT 9999 FEW020 FEW022CB 30/24 Q1013;EQDQ01+000000PRSWM2Q02  00002PRCP99Q03    003PRSWM1
0141783880999992000050514004+18500-077920FM-15+0003MKJS V0200601N009812200019N0112651N1+03001+02201999999ADDGA1021+006609099GF102991999999999999999999MA1101491999999MW1001REMMET047MKJS 051400Z 06019KT 9999 FEW022CB 30/22 Q1015;EQDQ01+000000PRSWM2
0300783880999992000050612004+18500-077920SY-MT+0003MKJS V0200901N002612200019N0280001N1+02771+02271101531ADDAA199000091GA1021+006609999GF102991011081008001001011KA1999M+03171KA2120N+02201MA1101491999999MD1999999-0011MW1001REMSYN088AAXX  06124 78388 32578 20905 10277 20227 40153 81801 333 02000 10317 20220 59001 81822;MET045MKJS 061200Z 09005KT 9999 FEW022 28/23 Q1015;EQDQ01+000000PRSWM2Q02  00002PRCP99
0144783880999992000050709004+18500-077920FM-12+0003MKJS V0209999C000012200019N0200001N1+02551+02171101321ADDGA1011+007209029GF101991011011008001001001MD1999999-0071REMSYN076AAXX  07094 78388 42570 10000 10255 20217 40132 81100 333 00000 59007 81824;
0162783880999992000051001004+18500-077920FM-15+0003MKJS V0209999C000010090019N0112651N1+02801+02301999999ADDGA1021+006609999GA2071+009009999GF107991999999999999999999MA1101391999999MW1001REMMET052MKJS 100100Z 00000KT 9999 FEW022 BKN030 28/23 Q1014;EQDQ01+000000PRSWM2
0139783880999992000051011004+18500-077920FM-15+0003MKJS V0209999C000012200019N0112651N1+02601+02301999999ADDGA1021+006609999GF104991999999999999999999MA1101491999999MW1001REMMET045MKJS 101100Z 00000KT 9999 SCT022 26/23 Q1015;EQDQ01+000000PRSWM2
0161783880999992000051323394+18500-077920FM-16+0003MKJS V0201701N003110048019N0010001N1+02601+02401999999ADDGA1071+004809999GF107991999999999999999999MA1101291999999MW1821REMMET051MKJS 132339Z 17006KT 1000 +SHRA BKN016 26/24 Q1013;EQDQ01+000003PRSWM1Q02    003PRSWM1
0162783880999992000051507004+18500-077920FM-15+0003MKJS V0209999C000010102019N0112651N1+02601+02101999999ADDGA1021+006609999GA2071+010209999GF107991999999999999999999MA1101291999999MW1001REMMET052MKJS 150700Z 00000KT 9999 FEW022 BKN034 26/21 Q1013;EQDQ01+000000PRSWM2
0296783880999992000051703004+18500-077920SY-MT+0003MKJS V0201701N001010240019N0200001N1+02621+02181101531ADDAY161031AY221031GA1021+006009999GA2081+024009999GF108991021081008001021999MA1101491999999MD1999999-0051MW1601MW2611REMSYN088AAXX  17034 78388 41570 81702 10262 20218 40153 76062 8282/ 333 02099 59005 82820 88458;MET056MKJS 170300Z 17002KT 9999 -RA FEW020 OVC080 26/22 Q1015;EQDQ01    003PRSWM1
0162783880999992000051723004+18500-077920FM-15+0003MKJS V0200701N005110096019N0112651N1+02901+02301999999ADDGA1021+006009999GA2071+009609999GF107991999999999999999999MA1101391999999MW1001REMMET052MKJS 172300Z 07010KT 9999 FEW020 BKN032 29/23 Q1014;EQDQ01+000000PRSWM2
0139783880999992000052214004+18500-077920FM-15+0003MKJS V0200401N008212200019N0112651N1+02901+02401999999ADDGA1021+006609999GF102991999999999999999999MA1101591999999MW1001REMMET045MKJS 221400Z 04016KT 9999 FEW022 29/24 Q1016;EQDQ01+000000PRSWM2
0162783880999992000060402004+18500-077920FM-15+0003MKJS V0201401N001510600019N0112651N1+02801+02401999999ADDGA1021+006009999GA2071+060009999GF107991999999999999999999MA1101591999999MW1001REMMET052MKJS 040200Z 14003KT 9999 FEW020 BKN200 28/24 Q1016;EQDQ01+000000PRSWM2
0141783880999992000060514004+18500-077920FM-15+0003MKJS V0200301N006712200019N0112651N1+03001+02401999999ADDGA1021+006009099GF102991999999999999999999MA1101491999999MW1001REMMET047MKJS 051400Z 03013KT 9999 FEW020CB 30/24 Q1015;EQDQ01+000000PRSWM2
0302783880999992000060621004+18500-077920SY-MT+0003MKJS V0200601N007712200019N0150001N1+03091+02451101461ADDAY121031AY221031GA1021+006609999GA2021+060009999GF104991021081008001001021MA1101391999999MD1999999+0161MW1051REMSYN088AAXX  06214 78388 41565 40615 10309 20245 40146 70522 82802 333 02200 58016 82822 84070;MET052MKJS 062100Z 06015KT 9999 FEW022 SCT200 31/25 Q1014;EQDQ01+000000PRSWM2Q02    003PRSWM1
0187783880999992000061004004+18500-077920FM-15+0003MKJS V0201601N000510096019N0112651N1+02601+02401999999ADDGA1021+006009999GA2021+006609099GA3071+009609999GF107991999999999999999999MA1101591999999MW1001REMMET061MKJS 100400Z 16001KT 9999 FEW020 SCT022CB BKN032 26/24 Q1016;EQDQ01+000000PRSWM2
0142783880999992000061720004+18500-077920FM-15+0003MKJS V0200601N008212200019N0112651N1+03101+02501999999ADDGA1021+006009029GF102991999999999999999999MA1101491999999MW1001REMMET048MKJS 172000Z 06016KT 9999 FEW020TCU 31/25 Q1015;EQDQ01+000000PRSWM2
0264783880999992000061809004+18500-077920SY-MT+0003MKJS V0201501N002110102019N0200001N1+02631+02221101621ADDGA1021+006009999GA2071+010209999GF107991071081008001001001MA1101591999999MD1999999+0201MW1001REMSYN082AAXX  18094 78388 42570 71504 10263 20222 40162 87800 333 01000 58020 81822 86634;MET052MKJS 180900Z 15004KT 9999 FEW020 BKM034 26/22 Q1016;EQDQ01+000000PRSWM2
0187783880999992000061814004+18500-077920FM-15+0003MKJS V0200301N005112200019N0112651N1+02901+02401999999ADDGA1021+006009999GA2021+006609099GA3021+009609999GF104991999999999999999999MA1101801999999MW1001REMMET061MKJS 181400Z 03010KT 9999 FEW020 FEW022CB SCT032 29/24 Q1018;EQDQ01+000000PRSWM2
0139783880999992000062007004+18500-077920FM-15+0003MKJS V0209999C000012200019N0112651N1+02601+02101999999ADDGA1021+006609999GF102991999999999999999999MA1101591999999MW1001REMMET045MKJS 200700Z 00000KT 9999 FEW022 26/21 Q1016;EQDQ01+000000PRSWM2
0139783880999992000062213004+18500-077920FM-15+0003MKJS V0201401N002112200019N0112651N1+03001+02301999999ADDGA1021+006609999GF102991999999999999999999MA1101591999999MW1001REMMET045MKJS 221300Z 14004KT 9999 FEW022 30/23 Q1016;EQDQ01+000000PRSWM2
0162783880999992000062716004+18500-077920FM-15+0003MKJS V0200401N007210660019N0112651N1+03001+02401999999ADDGA1021+006609999GA2071+066009999GF107991999999999999999999MA1101491999999MW1001REMMET052MKJS 271600Z 04014KT 9999 FEW022 BKN220 30/24 Q1015;EQDQ01+000000PRSWM2
0139783880999992000062822004+18500-077920FM-15+0003MKJS V0200401N005712200019N0112651N1+03101+02501999999ADDGA1021+007209999GF102991999999999999999999MA1101391999999MW1001REMMET045MKJS 282200Z 04011KT 9999 FEW024 31/25 Q1014;EQDQ01+000000PRSWM2
0139783880999992000070104004+18500-077920FM-15+0003MKJS V0209999C000012200019N0112651N1+02801+02301999999ADDGA1021+007209999GF102991999999999999999999MA1101591999999MW1001REMMET045MKJS 010400Z 00000KT 9999 FEW024 28/23 Q1016;EQDQ01+000000PRSWM2
0162783880999992000070218004+18500-077920FM-15+0003MKJS V0200301N007212200019N0112651N1+03101+02401999999ADDGA1021+006609999GA2021+010209999GF104991999999999999999999MA1101391999999MW1001REMMET052MKJS 021800Z 03014KT 9999 FEW022 SCT034 31/24 Q1014;EQDQ01+000000PRSWM2
0264783880999992000070715004+18500-077920SY-MT+0003MKJS V0201101N002110660019N0280001N1+03101+02201101451ADDGA1021+006609999GA2071+066009999GF107991011081008001001021MA1101391999999MD1999999+0111MW1001REMSYN082AAXX  07154 78388 42578 71104 10310 20220 40145 81802 333 01209 58011 81822 86072;MET052MKJS 071500Z 11004KT 9999 FEW022 BKN220 31/22 Q1014;EQDQ01+000000PRSWM2
0162783880999992000070716004+18500-077920FM-15+0003MKJS V0200401N004110660019N0112651N1+03001+02301999999ADDGA1021+006609999GA2071+066009999GF107991999999999999999999MA1101391999999MW1001REMMET052MKJS 071600Z 04008KT 9999 FEW022 BKN220 30/23 Q1014;EQDQ01+000000PRSWM2
0139783880999992000070811004+18500-077920FM-15+0003MKJS V0209999C000012200019N0112651N1+02501+02001999999ADDGA1021+006609999GF102991999999999999999999MA1101491999999MW1001REMMET045MKJS 081100Z 00000KT 9999 FEW022 25/20 Q1015;EQDQ01+000000PRSWM2
0141783880999992000070820004+18500-077920FM-15+0003MKJS V0200601N009812200019N0112651N1+03101+02501999999ADDGA1021+007209099GF102991999999999999999999MA1101391999999MW1001REMMET047MKJS 082000Z 06019KT 9999 FEW024CB 31/25 Q1014;EQDQ01+000000PRSWM2
0139783880999992000071416004+18500-077920FM-15+0003MKJS V0200301N004112200019N0112651N1+03101+02501999999ADDGA1021+007209999GF102991999999999999999999MA1101591999999MW1001REMMET045MKJS 141600Z 03008KT 9999 FEW024 31/25 Q1016;EQDQ01+000000PRSWM2
0162783880999992000072117004+18500-077920FM-15+0003MKJS V0200401N006712200019N0112651N1+03101+02501999999ADDGA1021+006609999GA2021+066009999GF104991999999999999999999MA1101391999999MW1001REMMET052MKJS 211700Z 04013KT 9999 FEW022 SCT220 31/25 Q1014;EQDQ01+000000PRSWM2
0162783880999992000072713004+18500-077920FM-15+0003MKJS V0200801N003610720019N0112651N1+03001+02501999999ADDGA1021+007209999GA2071+072009999GF107991999999999999999999MA1101491999999MW1001REMMET052MKJS 271300Z 08007KT 9999 FEW024 BKN240 30/25 Q1015;EQDQ01+000000PRSWM2
0142783880999992000072720004+18500-077920FM-15+0003MKJS V0200501N008712200019N0112651N1+03201+02501999999ADDGA1021+006609029GF102991999999999999999999MA1101191999999MW1001REMMET048MKJS 272000Z 05017KT 9999 FEW022TCU 32/25 Q1012;EQDQ01+000000PRSWM2
0065783880999992000080214304+18500-077920FM-16+0003MKJS V0200701N005112200019N0112651N1+99999+99999999999ADDMW1001REMMET028MKJS 021430Z 07010KT 9999 T;EQDQ01+000000PRSWM2
0139783880999992000080911004+18500-077920FM-15+0003MKJS V0201701N001012200019N0112651N1+02701+02201999999ADDGA1021+006609999GF102991999999999999999999MA1101291999999MW1001REMMET045MKJS 091100Z 17002KT 9999 FEW022 27/22 Q1013;EQDQ01+000000PRSWM2
0162783880999992000081002004+18500-077920FM-15+0003MKJS V0201201N001010600019N0112651N1+02601+02401999999ADDGA1021+006009999GA2071+060009999GF107991999999999999999999MA1101491999999MW1001REMMET052MKJS 100200Z 12002KT 9999 FEW020 BKN200 26/24 Q1015;EQDQ01+000000PRSWM2
0139783880999992000090505004+18500-077920FM-15+0003MKJS V0209999C000012200019N0112651N1+02701+02301999999ADDGA1021+006609999GF102991999999999999999999MA1101291999999MW1001REMMET045MKJS 050500Z 00000KT 9999 FEW022 27/23 Q1013;EQDQ01+000000PRSWM2
0139783880999992000092213004+18500-077920FM-15+0003MKJS V0209999C000012200019N0112651N1+02901+02401999999ADDGA1021+006609999GF102991999999999999999999MA1101291999999MW1001REMMET045MKJS 221300Z 00000KT 9999 FEW022 29/24 Q1013;EQDQ01+000000PRSWM2
0162783880999992000092813004+18500-077920FM-15+0003MKJS V0201501N001510096019N0112651N1+02801+02401999999ADDGA1021+006609999GA2071+009609999GF107991999999999999999999MA1101191999999MW1001REMMET052MKJS 281300Z 15003KT 9999 FEW022 BKN032 28/24 Q1012;EQDQ01+000000PRSWM2
0185783880999992000100215004+18500-077920FM-15+0003MKJS V0201701N001510600019N0112651N1+03101+02401999999ADDGA1021+006609999GA2021+009609999GA3071+060009999GF107991999999999999999999MA1101291999999MW1001REMMET059MKJS 021500Z 17003KT 9999 FEW022 SCT032 BKN200 31/24 Q1013;EQDQ01+000000PRSWM2
0185783880999992000100216004+18500-077920FM-15+0003MKJS V0201601N002610096019N0112651N1+03401+02301999999ADDGA1021+006609999GA2071+009609999GA3071+060009999GF107991999999999999999999MA1101291999999MW1001REMMET059MKJS 021600Z 16005KT 9999 FEW022 BKN032 BKN200 34/23 Q1013;EQDQ01+000000PRSWM2
0139783880999992000100410004+18500-077920FM-15+0003MKJS V0209999C000012200019N0112651N1+02701+02301999999ADDGA1021+006609999GF102991999999999999999999MA1101191999999MW1001REMMET045MKJS 041000Z 00000KT 9999 FEW022 27/23 Q1012;EQDQ01+000000PRSWM2
0139783880999992000100808004+18500-077920FM-15+0003MKJS V0209999C000012200019N0112651N1+02601+02401999999ADDGA1021+006609999GF102991999999999999999999MA1101081999999MW1001REMMET045MKJS 080800Z 00000KT 9999 FEW022 26/24 Q1011;EQDQ01+000000PRSWM2
0164783880999992000101522004+18500-077920FM-15+0003MKJS V0201701N003612200019N0112651N1+02801+02301999999ADDGA1021+005409999GA2021+006009099GF104991999999999999999999MA1101081999999MW1001REMMET054MKJS 152200Z 17007KT 9999 FEW018 SCT020CB 28/23 Q1011;EQDQ01+000000PRSWM2
0139783880999992000101614004+18500-077920FM-15+0003MKJS V0200701N009812200019N0112651N1+02901+02501999999ADDGA1021+006609999GF102991999999999999999999MA1101391999999MW1001REMMET045MKJS 161400Z 07019KT 9999 FEW022 29/25 Q1014;EQDQ01+000000PRSWM2
0186783880999992000101722004+18500-077920FM-15+0003MKJS V0202101N003112200019N0090001N1+02501+02301999999ADDGA1021+006009999GA2021+006609099GF102991999999999999999999MA1101191999999MW1801REMMET060MKJS 172200Z 21006KT 9000 -SHRA SCT020 FEW022CB 25/23 Q1012;EQDQ01+000003PRSWM1Q02    003PRSWM1
0139783880999992000102111004+18500-077920FM-15+0003MKJS V0201301N001012200019N0112651N1+02601+02401999999ADDGA1021+006609999GF102991999999999999999999MA1101291999999MW1001REMMET045MKJS 211100Z 13002KT 9999 FEW022 26/24 Q1013;EQDQ01+000000PRSWM2
0162783880999992000102807004+18500-077920FM-15+0003MKJS V0209999C000012200019N0112651N1+02501+02401999999ADDGA1021+006009999GA2021+010209999GF104991999999999999999999MA1101391999999MW1001REMMET052MKJS 280700Z 00000KT 9999 FEW020 SCT034 25/24 Q1014;EQDQ01+000000PRSWM2
0162783880999992000103019004+18500-077920FM-15+0003MKJS V0200701N006710600019N0112651N1+03001+02401999999ADDGA1021+006009999GA2071+060009999GF107991999999999999999999MA1101191999999MW1001REMMET052MKJS 301900Z 07013KT 9999 SCT020 BKN200 30/24 Q1012;EQDQ01+000000PRSWM2
0363783880999992000110118004+18500-077920SY-MT+0003MKJS V0200601N006211050019N0280001N1+02951+02401101191ADDAA106000891AY181061AY221061GA1021+006609999GA2021+009609999GF106991031081008001001021KA1120M+03041KA2240N+02331MA1101081999999MD1999999-0131MW1011REMSYN112AAXX  01184 78388 11578 60612 10295 20240 40119 69971 70182 83802 333 01200 10304 20233 59013 81822 83632 90934;MET052MKJS 011800Z 06012KT 9999 FEW022 SCT032 30/24 Q1011;EQDQ01+000000PRSWM2Q02    003PRSWM1
0280783880999992000110521004+18500-077920SY-MT+0003MKJS V0200601N005110090019N0250001N1+02831+02021100951ADDGA1021+006609999GA2071+009009999GF199999061081008001001001MA1100911999999MD1999999-0091MW1001REMSYN082AAXX  05214 78388 42575 60610 10283 20202 40095 86800 333 01200 59009 81822 85630;MET052MKJS 052100Z 06010KT 9999 FEW022 BKN030 28/20 Q1009;EQDQ01+000062SCOTCVQ02+000000PRSWM2
0139783880999992000111713004+18500-077920FM-15+0003MKJS V0209999C000012200019N0112651N1+02801+02401999999ADDGA1021+007209999GF102991999999999999999999MA1101491999999MW1001REMMET045MKJS 171300Z 00000KT 9999 FEW024 28/24 Q1015;EQDQ01+000000PRSWM2
0300783880999992000112218004+18500-077920SY-MT+0003MKJS V0200601N007710066019N0280001N1+02991+02301101611ADDAA199000021GA1071+006609999GF199999061081008001001001KA1120M+03091KA2240N+02191MA1101591999999MD1999999-0041MW1001REMSYN088AAXX  22184 78388 32578 60615 10299 20230 40161 86800 333 02200 10309 20219 59004 86822;MET045MKJS 221800Z 06015KT 9999 BKN022 30/23 Q1016;EQDQ01+000062SCOTCVQ02+000000PRSWM2
0139783880999992000112305004+18500-077920FM-15+0003MKJS V0200601N008710060019N0112651N1+02601+02301999999ADDGA1071+006009999GF107991999999999999999999MA1101491999999MW1001REMMET045MKJS 230500Z 06017KT 9999 BKN020 26/23 Q1015;EQDQ01+000000PRSWM2
0139783880999992000112907004+18500-077920FM-15+0003MKJS V0201101N001512200019N0112651N1+02601+02301999999ADDGA1021+006609999GF102991999999999999999999MA1101391999999MW1001REMMET045MKJS 290700Z 11003KT 9999 FEW022 26/23 Q1014;EQDQ01+000000PRSWM2
0139783880999992000120910004+18500-077920FM-15+0003MKJS V0201401N001012200019N0112651N1+02401+01901999999ADDGA1021+006609999GF102991999999999999999999MA1101491999999MW1001REMMET045MKJS 091000Z 14002KT 9999 FEW022 24/19 Q1015;EQDQ01+000000PRSWM2
0207783880999992000121922004+18500-077920FM-15+0003MKJS V0201701N001510600019N0112651N1+02501+02201999999ADDGA1021+005409999GA2021+006609099GA3081+060009999GF108991999999999999999999MA1101491999999MW1611REMMET065MKJS 192200Z 17003KT 9999 -RA SCT018 SCT022CB OVC200 25/22 Q1015;EQDQ01+000003PRSWM1Q02    003PRSWM1
0162783880999992000122510004+18500-077920FM-15+0003MKJS V0200701N000510750019N0112651N1+02501+02301999999ADDGA1021+007209999GA2071+075009999GF107991999999999999999999MA1101191999999MW1001REMMET052MKJS 251000Z 07001KT 9999 FEW024 BKN250 25/23 Q1012;EQDQ01+000000PRSWM2
0139783880999992000122911004+18500-077920FM-15+0003MKJS V0209999C000012200019N0112651N1+02401+02201999999ADDGA1021+006609999GF102991999999999999999999MA1101191999999MW1001REMMET045MKJS 291100Z 00000KT 9999 FEW022 24/22 Q1012;EQDQ01+000000PRSWM2
0306783970999992000010200004+17930-076780SY-MT+0009MKJP V0203301N003612200019N0200001N1+02711+02421101581ADDAA106000091GA1021+006009999GF103991031081008001001001KA1120M+03161KA2180N+02221MA1101491101421MD1999999+0051MW1001REMSYN094AAXX  02004 78397 32570 33307 10271 20242 30142 40158 83800 333 02000 10316 20222 58005 83820;MET045MKJP 020000Z 33007KT 9999 SCT020 27/24 Q1015;EQDQ01+000000PRSWM2Q02  00002PRCP06
0279783970999992000010421004+17930-076780SY-MT+0009MKJP V0201401N005112200019N0200001N1+02981+01751101431ADDAY101031AY201031GA1021+006009999GF102991021041008001001001MA1101391101271MD1999999+0071MW1151REMSYN088AAXX  04214 78397 41570 21410 10298 20175 30127 40143 71500 82400 333 02900 58007 81820;MET045MKJP 042100Z 14010KT 9999 FEW020 30/18 Q1014;EQDQ01+000000PRSWM2Q02    003PRSWM1
0139783970999992000010522004+17930-076780FM-15+0009MKJP V0200901N002112200019N0112651N1+02801+02201999999ADDGA1021+006009999GF102991999999999999999999MA1101291999999MW1001REMMET045MKJP 052200Z 09004KT 9999 FEW020 28/22 Q1013;EQDQ01+000000PRSWM2
0139783970999992000010801004+17930-076780FM-15+0009MKJP V0203201N002612200019N0112651N1+02601+02301999999ADDGA1021+006009999GF102991999999999999999999MA1101691999999MW1001REMMET045MKJP 080100Z 32005KT 9999 FEW020 26/23 Q1017;EQDQ01+000000PRSWM2
0139783970999992000011504004+17930-076780FM-15+0009MKJP V0200701N002110060019N0112651N1+02601+02101999999ADDGA1071+006009999GF107991999999999999999999MA1101801999999MW1001REMMET045MKJP 150400Z 07004KT 9999 BKN020 26/21 Q1018;EQDQ01+000000PRSWM2
0139783970999992000012407004+17930-076780FM-15+0009MKJP V0201101N006712200019N0112651N1+02601+02101999999ADDGA1021+006609999GF102991999999999999999999MA1101391999999MW1001REMMET045MKJP 240700Z 11013KT 9999 FEW022 26/21 Q1014;EQDQ01+000000PRSWM2
0270783970999992000012809004+17930-076780SY-MT+0009MKJP V0200101N002610096019N0200001N1+02461+02321101571ADDGA1021+006609999GA2071+009609999GF107991071081008001001001MA1101491101411MD1999999-0031MW1001REMSYN088AAXX  28094 78397 42570 70105 10246 20232 30141 40157 87800 333 01000 59003 81822 87632;MET052MKJP 280900Z 01005KT 9999 FEW022 BKN032 25/23 Q1015;EQDQ01+000000PRSWM2
0139783970999992000020204004+17930-076780FM-15+0009MKJP V0203301N002612200019N0112651N1+02501+02301999999ADDGA1021+006609999GF102991999999999999999999MA1101801999999MW1001REMMET045MKJP 020400Z 33005KT 9999 FEW022 25/23 Q1018;EQDQ01+000000PRSWM2
0351783970999992000020312004+17930-076780SY-MT+0009MKJP V0202901N001510750019N0250001N1+02361+01911101731ADDAA199000091GA1021+007209999GA2071+075009999GF199999011081008001001021KA1999M+03181KA2120N+02161MA1101691101571MD1999999-0141MW1001REMSYN100AAXX  03124 78397 32575 62903 10236 20191 30157 40173 81802 333 00000 10318 20216 59014 81824 86075;MET052MKJP 031200Z 29003KT 9999 FEW024 BKN250 24/19 Q1017;EQDQ01+000062SCOTCVQ02+000000PRSWM2Q03  00002PRCP99
0162783970999992000020805004+17930-076780FM-15+0009MKJP V0200101N003112200019N0112651N1+02501+02401999999ADDGA1021+006009999GA2021+009609999GF104991999999999999999999MA1101901999999MW1001REMMET052MKJP 080500Z 01006KT 9999 FEW020 SCT032 25/24 Q1019;EQDQ01+000000PRSWM2
0162783970999992000020823004+17930-076780FM-15+0009MKJP V0201101N001510090019N0112651N1+02601+02101999999ADDGA1021+005409999GA2071+009009999GF107991999999999999999999MA1101801999999MW1001REMMET052MKJP 090000Z 11003KT 9999 FEW018 BKN030 26/21 Q1018;EQDQ01+000000PRSWM2
0139783970999992000021210004+17930-076780FM-15+0009MKJP V0203401N002612200019N0112651N1+02401+02001999999ADDGA1021+006609999GF102991999999999999999999MA1101591999999MW1001REMMET045MKJP 121000Z 34005KT 9999 FEW022 24/20 Q1016;EQDQ01+000000PRSWM2
0233783970999992000021506004+17930-076780FM-12+0009MKJP V0209999C000012200019N0200001N1+02471+02131101891ADDAA199000091GA1011+006609029GF101991011081008001001001KA1240M+03061KA2240N+02361MA1999999101731MD1999999+0121REMSYN094AAXX  15064 78397 32570 10000 10247 20213 30173 40189 81800 333 01000 10306 20236 58012 81822;EQDQ01  00002PRCP99
0139783970999992000022719004+17930-076780FM-15+0009MKJP V0201301N003612200019N0112651N1+02801+01901999999ADDGA1021+006609999GF102991999999999999999999MA1101591999999MW1001REMMET045MKJP 271900Z 13007KT 9999 FEW022 28/19 Q1016;EQDQ01+000000PRSWM2
0322783970999992000022912004+17930-076780SY-MT+0009MKJP V0209999C000012200019N0260001N1+02371+02051101781ADDAA199000091GA1021+006609999GF199999011081008001001001KA1999M+03081KA2120N+02111MA1101691101621MD1999999+0071MW1001REMSYN094AAXX  29124 78397 32576 10000 10237 20205 30162 40178 81800 333 01000 10308 20211 58007 81822;MET045MKJP 291200Z 00000KT 9999 FEW022 24/21 Q1017;EQDQ01+000012SCOTCVQ02+000000PRSWM2Q03  00002PRCP99
0257783970999992000030509004+17930-076780SY-MT+0009MKJP V0209999C000012200019N0200001N1+02401+02231101461ADDGA1021+006609999GF199999011081008001001001MA1101391101301MD1999999+0031MW1001REMSYN082AAXX  05094 78397 42570 10000 10240 20223 30130 40146 81800 333 00000 58003 81822;MET045MKJP 050900Z 00000KT 9999 FEW022 24/22 Q1014;EQDQ01+000012SCOTCVQ02+000000PRSWM2
0162783970999992000030703004+17930-076780FM-15+0009MKJP V0201201N002610600019N0112651N1+02601+02001999999ADDGA1021+006009999GA2071+060009999GF107991999999999999999999MA1101591999999MW1001REMMET052MKJP 070300Z 12005KT 9999 FEW020 BKN200 26/20 Q1016;EQDQ01+000000PRSWM2
0139783970999992000031117004+17930-076780FM-15+0009MKJP V0200701N008212200019N0112651N1+02901+02201999999ADDGA1021+006609999GF102991999999999999999999MA1101691999999MW1001REMMET045MKJP 111700Z 07016KT 9999 FEW022 29/22 Q1017;EQDQ01+000000PRSWM2
0139783970999992000031205004+17930-076780FM-15+0009MKJP V0203101N001512200019N0112651N1+02401+02201999999ADDGA1021+006609999GF102991999999999999999999MA1101691999999MW1001REMMET045MKJP 120500Z 31003KT 9999 FEW022 24/22 Q1017;EQDQ01+000000PRSWM2
0162783970999992000031408004+17930-076780FM-15+0009MKJP V0203301N002612200019N0112651N1+02401+02101999999ADDGA1021+006609999GA2021+009609999GF104991999999999999999999MA1101291999999MW1001REMMET052MKJP 140800Z 33005KT 9999 FEW022 SCT032 24/21 Q1013;EQDQ01+000000PRSWM2
0306783970999992000031600004+17930-076780SY-MT+0009MKJP V0201101N007712200019N0200001N1+02661+02251101471ADDAA199000091GA1021+006009999GF103991031081008001001001KA1120M+03071KA2180N+02271MA1101391101311MD1999999+0061MW1001REMSYN094AAXX  16004 78397 32570 31115 10266 20225 30131 40147 83800 333 01200 10307 20227 58006 83820;MET045MKJP 160000Z 11015KT 9999 SCT020 27/23 Q1014;EQDQ01+000000PRSWM2Q02  00002PRCP99
0139783970999992000031613004+17930-076780FM-15+0009MKJP V0201001N008712200019N0112651N1+02601+02101999999ADDGA1021+006009999GF102991999999999999999999MA1101691999999MW1001REMMET045MKJP 161300Z 10017KT 9999 FEW020 26/21 Q1017;EQDQ01+000000PRSWM2
0335783970999992000032112004+17930-076780SY-MT+0009MKJP V0209999C00001012001CN0180001N1+02451+02421101441ADDAA199000091GA1021+006009999GA2021+009609999GF105991051081008001001001KA1999M+03051KA2120N+02291MA1101391101281MD1999999-0011MW1001REMSYN100AAXX  21124 78397 32568 50000 10245 20242 30128 40144 85800 333 01200 10305 20229 59001 82820 83632;MET052MKJP 211200Z 00000KT 9999 FEW020 SCT032 25/24 Q1014;EQDQ01+000000PRSWM2Q02  00002PRCP99
0139783970999992000032603004+17930-076780FM-15+0009MKJP V0203401N004112200019N0112651N1+02701+01601999999ADDGA1021+006609999GF102991999999999999999999MA1101491999999MW1001REMMET045MKJP 260300Z 34008KT 9999 FEW022 27/16 Q1015;EQDQ01+000000PRSWM2
0139783970999992000032609004+17930-076780FM-15+0009MKJP V0209999C000012200019N0112651N1+02401+01901999999ADDGA1021+006609999GF102991999999999999999999MA1101391999999MW1001REMMET045MKJP 260900Z 00000KT 9999 FEW022 24/19 Q1014;EQDQ01+000000PRSWM2
0162783970999992000032810004+17930-076780FM-15+0009MKJP V0201101N003610096019N0112651N1+02501+02301999999ADDGA1021+006609999GA2071+009609999GF107991999999999999999999MA1101081999999MW1001REMMET052MKJP 281000Z 11007KT 9999 FEW022 BKN032 25/23 Q1011;EQDQ01+000000PRSWM2
0139783970999992000033008004+17930-076780FM-15+0009MKJP V0203601N002112200019N0112651N1+02601+02401999999ADDGA1021+007209999GF102991999999999999999999MA1101291999999MW1001REMMET045MKJP 300800Z 36004KT 9999 FEW024 26/24 Q1013;EQDQ01+000000PRSWM2
0092783970999992000040207004+17930-076780FM-15+0009MKJP V0202901N001512200019N0100001N1+02501+02401999999ADDMA1101391999999MW1001REMMET040MKJP 020700Z 29003KT FEW022 25/24 Q1014;EQDQ01+000000PRSWM2
0139783970999992000040813004+17930-076780FM-15+0009MKJP V0200101N001512200019N0112651N1+02701+02201999999ADDGA1021+006609999GF102991999999999999999999MA1101491999999MW1001REMMET045MKJP 081300Z 01003KT 9999 FEW022 27/22 Q1015;EQDQ01+000000PRSWM2
0139783970999992000040917004+17930-076780FM-15+0009MKJP V0201001N004612200019N0112651N1+03001+02401999999ADDGA1021+006609999GF102991999999999999999999MA1101491999999MW1001REMMET045MKJP 091700Z 10009KT 9999 FEW022 30/24 Q1015;EQDQ01+000000PRSWM2
0139783970999992000041001004+17930-076780FM-15+0009MKJP V0201401N002112200019N0112651N1+02801+02501999999ADDGA1021+007209999GF102991999999999999999999MA1101391999999MW1001REMMET045MKJP 100100Z 14004KT 9999 FEW024 28/25 Q1014;EQDQ01+000000PRSWM2
0139783970999992000041020004+17930-076780FM-15+0009MKJP V0201101N004612200019N0112651N1+03201+02001999999ADDGA1021+006609999GF102991999999999999999999MA1101291999999MW1001REMMET045MKJP 102000Z 11009KT 9999 FEW022 32/20 Q1013;EQDQ01+000000PRSWM2
0139783970999992000041223004+17930-076780FM-15+0009MKJP V0201201N009812200019N0112651N1+02801+02201999999ADDGA1021+006609999GF102991999999999999999999MA1101591999999MW1001REMMET045MKJP 122300Z 12019KT 9999 FEW022 28/22 Q1016;EQDQ01+000000PRSWM2
0162783970999992000041322004+17930-076780FM-15+0009MKJP V0200901N004110090019N0112651N1+02701+02201999999ADDGA1021+006009999GA2071+009009999GF107991999999999999999999MA1101391999999MW1001REMMET052MKJP 132200Z 09008KT 9999 FEW020 BKN030 27/22 Q1014;EQDQ01+000000PRSWM2
0241783970999992000042203004+17930-076780SY-MT+0009MKJP V0203401N001012200019N0220001N1+02601+02601101461ADDGA1021+007209999GF102991021081008001001021MA1101391101301MD1999999-0091MW1001REMSYN082AAXX  22034 78397 42572 23402 10260 20260 30130 40146 82802 333 01000 59009 81824;MET045MKJP 220300Z 34002KT 9999 FEW024 26/26 Q1014;EQDQ01+000000PRSWM2
0360783970999992000042800004+17930-076780SY-MT+0009MKJP V0201301N010812200019N0200001N1+02831+02221101411ADDAA199000091AY101061AY201061GA1021+007209999GF199999011081008001001001KA1120M+03111KA2180N+02421MA1101391101251MD1999999-0111MW1051REMSYN100AAXX  28004 78397 31570 11321 10283 20222 30125 40141 70500 81800 333 00000 10311 20242 59011 81824;MET045MKJP 280000Z 13021KT 9999 FEW024 28/22 Q1014;EQDQ01+000012SCOTCVQ02+000000PRSWM2Q03  00002PRCP99Q04    003PRSWM1
0335783970999992000051412004+17930-076780SY-MT+0009MKJP V0200201N001010600019N0250001N1+02711+02421101421ADDAA199000091GA1021+006609999GA2071+060009999GF107991011081008001001021KA1999M+03221KA2120N+02591MA1101391101261MD1999999+0011MW1001REMSYN100AAXX  14124 78397 32575 70202 10271 20242 30126 40142 81802 333 00200 10322 20259 58001 81822 87070;MET052MKJP 141200Z 02002KT 9999 FEW022 BKN200 27/24 Q1014;EQDQ01+000000PRSWM2Q02  00002PRCP99
0139783970999992000051904004+17930-076780FM-15+0009MKJP V0200101N004112200019N0112651N1+02701+02601999999ADDGA1021+006609999GF102991999999999999999999MA1101591999999MW1001REMMET045MKJP 190400Z 01008KT 9999 FEW022 27/26 Q1016;EQDQ01+000000PRSWM2
0139783970999992000052205004+17930-076780FM-15+0009MKJP V0200301N001512200019N0112651N1+02701+02401999999ADDGA1021+006609999GF102991999999999999999999MA1101491999999MW1001REMMET045MKJP 220500Z 03003KT 9999 FEW022 27/24 Q1015;EQDQ01+000000PRSWM2
0154783970999992000052723004+17930-076780FM-15+0009MKJP V0200801N00671220001CN0112651N1+03001+02501999999ADDGA1071+006009099GA2021+060009999MA1101291999999MW1001REMMET054MKJP 272300Z 08013KT 9999 BKN020CB SCT200 30/25 Q1013;EQDQ01+000042SCOTCVQ02+000000PRSWM2
0337783970999992000052800004+17930-076780SY-MT+0009MKJP V0200901N007212200019N0200001N1+02931+02231101321ADDAA199000091GA1021+006009099GA2021+060009999GF104991031091008001001021KA1120M+03301KA2180N+02601MA1101291101161MD1999999-0061MW1001REMSYN100AAXX  28004 78397 32570 40914 10293 20223 30116 40132 83902 333 06209 10330 20260 59006 83920 84070;MET054MKJP 280000Z 09014KT 9999 SCT020CB SCT200 29/22 Q1013;EQDQ01+000000PRSWM2Q02  00002PRCP99
0302783970999992000052921004+17930-076780SY-MT+0009MKJP V0200101N00261012001CN0200001N1+02701+02501101141ADDAY111031AY211031GA1021+006609999GA2021+009609999GF105991051081008001001021MA1101081100981MD1999999+0041MW1151REMSYN088AAXX  29214 78397 41570 50105 1267/ 20254 30098 40114 71511 85802 333 0200/ 58004 84632;MET052MKJP 292100Z 01005KT 9999 FEW022 SCT032 27/25 Q1011;EQDQ01+000000PRSWM2Q02    003PRSWM1
0187783970999992000053017004+17930-076780FM-15+0009MKJP V0201301N010810660019N0112651N1+03101+02501999999ADDGA1021+005409999GA2021+006009099GA3071+066009999GF107991999999999999999999MA1101191999999MW1001REMMET061MKJP 301800Z 13021KT 9999 FEW018 FEW020CB BKN220 31/25 Q1012;EQDQ01+000000PRSWM2
0167783970999992000053120004+17930-076780FM-15+0009MKJP V0201301N009312200019N0112651N1+03101+02601999999ADDGA1021+006009029GA2021+006609099GF102991999999999999999999MA1101291999999MW1001REMMET057MKJP 312000Z 13018KT 9999 FEW020TCU FEW022CB 31/26 Q1013;EQDQ01+000000PRSWM2
0139783970999992000061416004+17930-076770FM-15+0009MKJP V0201301N007212200019N0112651N1+03101+02701999999ADDGA1021+006609999GF104991999999999999999999MA1101591999999MW1001REMMET045MKJP 141600Z 13014KT 9999 SCT022 31/27 Q1016;EQDQ01+000000PRSWM2
0146783970999992000061613004+17930-076770FM-15+0009MKJP V0201001N004112200019N0112651N1+02801+02401999999ADDGA1021+006609999GA2021+009609999GF104991999999999999999999MW1001REMMET051MKJP 161300Z 10008KT 9999 FEW022 SCT032 28/24 1014;EQDQ01+000000PRSWM2
0375783970999992000061700004+17930-076770SY-MT+0009MKJP V0201001N008711050019N0200001N1+02931+02301101341ADDAA199000091AY101061AY201061GA1021+006009999GA2021+006609099GF105991031091008001001031KA1120M+03331KA2180N+02461MA1101291101181MD1999999+0011MW1051REMSYN106AAXX  17004 78397 31570 51017 10293 20230 30118 40134 70500 83903 333 06200 10333 20246 58001 81820 82922;MET054MKJP 170000Z 10017KT 9999 FEW020 FEW022CB 29/23 Q1013;EQDQ01+000000PRSWM2Q02  00002PRCP99Q03    003PRSWM1
0162783970999992000061710004+17930-076770FM-15+0009MKJP V0200501N002110102019N0112651N1+02701+02401999999ADDGA1021+006609999GA2071+010209999GF107991999999999999999999MA1101391999999MW1001REMMET052MKJP 171000Z 05004KT 9999 FEW022 BKN034 27/24 Q1014;EQDQ01+000000PRSWM2
0139783970999992000062108004+17930-076770FM-15+0009MKJP V0209999C000012200019N0112651N1+02701+02501999999ADDGA1021+006009999GF102991999999999999999999MA1101491999999MW1001REMMET045MKJP 210800Z 00000KT 9999 FEW020 27/25 Q1015;EQDQ01+000000PRSWM2
0162783970999992000062323004+17930-076770FM-15+0009MKJP V0201001N005112200019N0112651N1+03101+02301999999ADDGA1021+006609999GA2021+066009999GF104991999999999999999999MA1101391999999MW1001REMMET052MKJP 232300Z 10010KT 9999 FEW022 SCT220 31/23 Q1014;EQDQ01+000000PRSWM2
0164783970999992000070423004+17930-076770FM-15+0009MKJP V0200301N002112200019N0112651N1+02801+02501999999ADDGA1021+006009999GA2021+006609099GF104991999999999999999999MA1101391999999MW1001REMMET054MKJP 042300Z 03004KT 9999 SCT020 SCT022CB 28/25 Q1014;EQDQ01+000000PRSWM2
0279783970999992000071121004+17930-076770SY-MT+0009MKJP V0201001N011312200019N0180001N1+03151+02441101261ADDAY101031AY201031GA1021+006609999GF102991021081008001001001MA1101191101101MD1999999-0061MW1051REMSYN088AAXX  11214 78397 41568 21022 10315 20244 30110 40126 70500 82800 333 00200 59006 81822;MET045MKJP 112100Z 10022KT 9999 FEW022 32/24 Q1012;EQDQ01+000000PRSWM2Q02    003PRSWM1
0257783970999992000071203004+17930-076770SY-MT+0009MKJP V0200601N005712200019N0200001N1+02881+02311101641ADDGA1021+007209999GF199999011081008001001001MA1101591101481MD1999999+0041MW1001REMSYN082AAXX  12034 78397 42570 10611 10288 20231 30148 40164 81800 333 00000 58004 81824;MET045MKJP 120300Z 06011KT 9999 FEW024 29/23 Q1016;EQDQ01+000012SCOTCVQ02+000000PRSWM2
0139783970999992000071507004+17930-076770FM-15+0009MKJP V0200101N003112200019N0112651N1+02701+02601999999ADDGA1021+007209999GF102991999999999999999999MA1101391999999MW1001REMMET045MKJP 150700Z 01006KT 9999 FEW024 27/26 Q1014;EQDQ01+000000PRSWM2
0162783970999992000071701004+17930-076770FM-15+0009MKJP V0200601N007210660019N0112651N1+02901+02501999999ADDGA1021+007209999GA2071+066009999GF107991999999999999999999MA1101491999999MW1001REMMET052MKJP 170100Z 06014KT 9999 FEW024 BKN220 29/25 Q1015;EQDQ01+000000PRSWM2
0162783970999992000071704004+17930-076770FM-15+0009MKJP V0200501N001510660019N0112651N1+02801+02401999999ADDGA1021+007209999GA2071+066009999GF107991999999999999999999MA1101691999999MW1001REMMET052MKJP 170400Z 05003KT 9999 FEW024 BKN220 28/24 Q1017;EQDQ01+000000PRSWM2
0241783970999992000071721004+17930-076770SY-MT+0009MKJP V0200601N005112200019N0180001N1+03071+02801101401ADDGA1021+006609999GF102991011081008001001021MA1101391101241MD1999999+0001MW1001REMSYN082AAXX  17214 78397 42568 20610 10307 20280 30124 40140 81802 333 00200 58000 81822;MET045MKJP 172100Z 06010KT 9999 FEW022 31/28 Q1014;EQDQ01+000000PRSWM2
0335783970999992000072706004+17930-076770SY-MT+0009MKJP V0209999C000012200019N0200001N1+02791+02371101411ADDAY101061AY201061GA1021+006009099GF199999011091008001001001KA1240M+03351KA2240N+02671MA1101391101251MD1999999+0011MW1131REMSYN100AAXX  27064 78397 41570 10000 10279 20237 30125 40141 71300 81900 333 06000 10335 20267 58001 81920;MET047MKJP 270600Z 00000KT 9999 FEW020CB 28/24 Q1014;EQDQ01+000012SCOTCVQ02+000000PRSWM2Q03    003PRSWM1
0162783970999992000072902004+17930-076770FM-15+0009MKJP V0201101N006212200019N0112651N1+03001+02501999999ADDGA1021+007209999GA2021+066009999GF104991999999999999999999MA1101291999999MW1001REMMET052MKJP 290200Z 11012KT 9999 FEW024 SCT220 30/25 Q1013;EQDQ01+000000PRSWM2
0164783970999992000073022004+17930-076770FM-15+0009MKJP V0201101N004610060019N0112651N1+02601+02601999999ADDGA1021+005409999GA2071+006009099GF107991999999999999999999MA1101291999999MW1001REMMET054MKJP 302200Z 11009KT 9999 FEW018 BKN020CB 26/26 Q1013;EQDQ01+000000PRSWM2
0162783970999992000080213004+17930-076770FM-15+0009MKJP V0203301N002110600019N0112651N1+02701+02701999999ADDGA1021+006009999GA2071+060009999GF107991999999999999999999MA1101491999999MW1001REMMET052MKJP 021300Z 33004KT 9999 FEW020 BKN200 27/27 Q1015;EQDQ01+000000PRSWM2
0162783970999992000080718004+17930-076770FM-15+0009MKJP V0201001N007212200019N0112651N1+03101+02701999999ADDGA1021+007209999GA2021+066009999GF104991999999999999999999MA1101391999999MW1001REMMET052MKJP 071800Z 10014KT 9999 FEW024 SCT220 31/27 Q1014;EQDQ01+000000PRSWM2
0337783970999992000082406004+17930-076770SY-MT+0009MKJP V0201301N002112200019N0200001N1+02851+02771101201ADDAA199000091GA1021+006609999GA2021+007209099GF102991021091008001001021KA1240M+03331KA2240N+02711MA1101191101041MD1999999+0031MW1001REMSYN100AAXX  24064 78397 32570 21304 10285 20277 30104 40120 82902 333 06000 10333 20271 58003 81822 81924;MET054MKJP 240600Z 13004KT 9999 FEW022 FEW024CB 29/28 Q1012;EQDQ01+000000PRSWM2Q02  00002PRCP99
0139783970999992000083010004+17930-076770FM-15+0009MKJP V0201201N005112200019N0112651N1+02801+02601999999ADDGA1021+007209999GF102991999999999999999999MA1101191999999MW1001REMMET045MKJP 301000Z 12010KT 9999 FEW024 28/26 Q1012;EQDQ01+000000PRSWM2
0162783970999992000090203004+17930-076770FM-15+0009MKJP V0201801N000512200019N0112651N1+02901+02601999999ADDGA1021+007209999GA2021+066009999GF104991999999999999999999MA1101291999999MW1001REMMET052MKJP 020300Z 18001KT 9999 FEW024 SCT220 29/26 Q1013;EQDQ01+000000PRSWM2
0164783970999992000090222004+17930-076770FM-15+0009MKJP V0200501N001512200019N0112651N1+02701+02701999999ADDGA1021+006009999GA2021+006609099GF102991999999999999999999MA1101021999999MW1001REMMET054MKJP 022200Z 05003KT 9999 SCT020 FEW022CB 27/27 Q1010;EQDQ01+000000PRSWM2
0162783970999992000091323004+17930-076770FM-15+0009MKJP V0201301N006210210019N0080001N1+03001+02701999999ADDGA1021+007209999GA2071+021009999GF107991999999999999999999MA1101191999999MW1001REMMET052MKJP 132300Z 13012KT 8000 FEW024 BKN070 30/27 Q1012;EQDQ01+000000PRSWM2
0142783970999992000091718004+17930-076770FM-15+0009MKJP V0201401N006712200019N0112651N1+03201+02701999999ADDGA1021+006609029GF102991999999999999999999MA1101191999999MW1001REMMET048MKJP 171800Z 14013KT 9999 FEW022TCU 32/27 Q1012;EQDQ01+000000PRSWM2
0142783970999992000092315004+17930-076770FM-15+0009MKJP V0201301N003612200019N0112651N1+03101+02701999999ADDGA1021+006009029GF102991999999999999999999MA1101291999999MW1001REMMET048MKJP 231500Z 13007KT 9999 FEW020TCU 31/27 Q1013;EQDQ01+000000PRSWM2
0165783970999992000092508004+17930-076770FM-15+0009MKJP V0200101N001510066019N0112651N1+02801+02501999999ADDGA1071+006609099GF107991999999999999999999MA1101021999999MW1171REMMET055MKJP 250800Z 01003KT 9999 TS BKN022CB 28/25 Q1010 RETS;EQDQ01+000003PRSWM1Q02    003PRSWM1
0139783970999992000100413004+17930-076770FM-15+0009MKJP V0201301N006712200019N0112651N1+03001+02701999999ADDGA1021+006609999GF102991999999999999999999MA1101491999999MW1001REMMET045MKJP 041300Z 13013KT 9999 FEW022 30/27 Q1015;EQDQ01+000000PRSWM2
0187783970999992000100419004+17930-076770FM-15+0009MKJP V0201501N008212200019N0112651N1+03201+02701999999ADDGA1021+006009999GA2021+006609099GA3021+066009999GF104991999999999999999999MA1101191999999MW1001REMMET061MKJP 041900Z 15016KT 9999 FEW020 FEW022CB SCT220 32/27 Q1012;EQDQ01+000000PRSWM2
0164783970999992000101704004+17930-076770FM-15+0009MKJP V0209999C000012200019N0112651N1+02801+02601999999ADDGA1021+007209099GA2021+010209999GF104991999999999999999999MA1101291999999MW1001REMMET054MKJP 170400Z 00000KT 9999 FEW024CB SCT034 28/26 Q1013;EQDQ01+000000PRSWM2
0306783970999992000101912004+17930-076770SY-MT+0009MKJP V0203601N003112200019N0220001N1+02791+02431101441ADDAA199000091GA1021+006609999GF101991011011008001001021KA1999M+03371KA2120N+02511MA1101391101281MD1999999+0051MW1001REMSYN094AAXX  19124 78397 32572 13606 10279 20243 30128 40144 81102 333 01000 10337 20251 58005 81822;MET045MKJP 191200Z 36006KT 9999 FEW022 28/24 Q1014;EQDQ01+000000PRSWM2Q02  00002PRCP99
0164783970999992000102116004+17930-076770FM-15+0009MKJP V0202201N002112200019N0112651N1+03201+02401999999ADDGA1021+006609099GA2021+066009999GF104991999999999999999999MA1101491999999MW1001REMMET054MKJP 211600Z 22004KT 9999 FEW022CB SCT220 32/24 Q1015;EQDQ01+000000PRSWM2
0334783970999992000102500004+17930-076770SY-MT+0009MKJP V0209999C000012200019N0200001N1+02601+99999100981ADDAA106000791AY161061AY211061GA1021+006609999GF102991021081008001001011KA1120M+03151KA2180N+02521MA1100911100821MD1999999-0121MW1011REMSYN106AAXX  25004 78397 11570 20000 10264 20/// 30082 40098 69901 70161 82801 333 00000 10315 20252 59012 81822;MET045MKJP 250000Z 00000KT 9999 FEW022 26/// Q1009;EQDQ01+000000PRSWM2Q02    003PRSWM1
0321783970999992000103109004+17930-076770SY-MT+0009MKJP V0200201N00261012001CN0250001N1+02721+02601101331ADDAA199000091GA1021+006609999GA2021+009609999GF107991051081008001001021KA1999M+03241KA2999N+02581MA1101191101171MW1001REMSYN100AAXX  31094 78397 32575 70205 10272 20260 30117 40133 85802 333 01909 10324 20258 81822 85632 87075;MET052MKJP 310900Z 01008KT 9999 FEW022 SCT032 27/XX Q1012;EQDQ01+000000PRSWM2Q02  00002PRCP99
0257783970999992000110321004+17930-076770SY-MT+0009MKJP V0203601N007212200019N0280001N1+02981+02331100971ADDGA1021+006609999GF199999011081008001001001MA1100911100811MD1999999-0131MW1001REMSYN082AAXX  03214 78397 42578 13614 10298 20233 30081 40097 81800 333 00000 59013 81822;MET045MKJP 032100Z 36014KT 9999 FEW022 30/23 Q1009;EQDQ01+000012SCOTCVQ02+000000PRSWM2
0322783970999992000110806004+17930-076770SY-MT+0009MKJP V0200201N003112200019N0200001N1+02701+01871101211ADDAA199000091GA1021+007209999GF199999011011008001001001KA1240M+03261KA2240N+02411MA1101191101051MD1999999-0091MW1001REMSYN094AAXX  08064 78397 32570 10206 10270 20187 30105 40121 81100 333 00000 10326 20241 59009 81824;MET045MKJP 080600Z 02006KT 9999 FEW024 27/19 Q1012;EQDQ01+000012SCOTCVQ02+000000PRSWM2Q03  00002PRCP99
0139783970999992000111614004+17930-076770FM-15+0009MKJP V0203401N002112200019N0112651N1+02901+02401999999ADDGA1021+007209999GF102991999999999999999999MA1101491999999MW1001REMMET045MKJP 161400Z 34004KT 9999 FEW024 29/24 Q1015;EQDQ01+000000PRSWM2
0162783970999992000111814004+17930-076770FM-15+0009MKJP V0200101N002110090019N0112651N1+02801+02701999999ADDGA1021+006009999GA2071+009009999GF107991999999999999999999MA1101591999999MW1001REMMET052MKJP 181400Z 01004KT 9999 FEW020 BKN030 28/27 Q1016;EQDQ01+000000PRSWM2
0322783970999992000112300004+17930-076770SY-MT+0009MKJP V0200201N002612200019N0200001N1+02861+02861101421ADDAA199000091GA1021+006609999GF199999011081008001001001KA1120M+03441KA2180N+02491MA1101391101261MD1999999-0171MW1001REMSYN094AAXX  23004 78397 32570 10205 10286 20286 30126 40142 81800 333 01000 10344 20249 59017 81822;MET045MKJP 230000Z 02005KT 9999 FEW022 29/23 Q1014;EQDQ01+000012SCOTCVQ02+000000PRSWM2Q03  00002PRCP99
0167783970999992000112516004+17930-076770FM-15+0009MKJP V0201301N007212200019N0112651N1+03201+02601999999ADDGA1021+006009029GA2021+006609099GF102991999999999999999999MA1101391999999MW1001REMMET057MKJP 251600Z 13014KT 9999 FEW020TCU FEW022CB 32/26 Q1014;EQDQ01+000000PRSWM2
0385783970999992000120112004+17930-076770SY-MT+0009MKJP V0203501N001510240019N0150001N1+02471+02471101271ADDAA106004191AY161061AY221061GA1021+006609999GA2021+009609999GA3081+024009999GF108991031081008001021999KA1999M+03021KA2120N+02301MA1101191101111MD1999999-0061MW1631REMSYN124AAXX  01124 78397 11565 83503 10247 20247 30111 40127 60041 76362 8382/ 333 01000 10302 20230 59006 81822 83632 88458 90947;MET062MKJP 011200Z 35003KT 9999 RA FEW022 SCT032 OVC080 25/25 Q1012;EQDQ01    003PRSWM1
0185783970999992000120408004+17930-076770FM-15+0009MKJP V0201201N002110096019N0112651N1+02601+02601999999ADDGA1021+007209999GA2071+009609999GA3071+060009999GF107991999999999999999999MA1101081999999MW1001REMMET059MKJP 040800Z 12004KT 9999 FEW024 BKN032 BKN200 26/26 Q1011;EQDQ01+000000PRSWM2
0183783970999992000120420004+17930-076770FM-15+0009MKJP V0200901N003110045019N0040001N1+02401+02401999999ADDGA1071+004509999GA2081+018009999GF108991999999999999999999MA1101081999999MW1811REMMET057MKJP 042000Z 09006KT 4000 SHRA BKN015 OVC060 24/24 Q1011;EQDQ01+000003PRSWM1Q02    003PRSWM1
0165783970999992000120722004+17930-076770FM-15+0009MKJP V0201201N005110090019N0112651N1+02801+02501999999ADDGA1021+006009029GA2071+009009999GF107991999999999999999999MA1101291999999MW1001REMMET055MKJP 072200Z 12010KT 9999 SCT020TCU BKN030 28/25 Q1013;EQDQ01+000000PRSWM2
0139783970999992000121723004+17930-076770FM-15+0009MKJP V0200701N002112200019N0112651N1+02801+02401999999ADDGA1021+007509999GF102991999999999999999999MA1101491999999MW1001REMMET045MKJP 172300Z 07004KT 9999 FEW025 28/24 Q1015;EQDQ01+000000PRSWM2
0259783970999992000122115004+17930-076770SY-MT+0009MKJP V0203201N002112200019N0280001N1+02861+02461101651ADDGA1021+007209099GF199999011091008001001011MA1101591101491MD1999999+0001MW1001REMSYN082AAXX  21154 78397 42578 13204 10286 20246 30149 40165 81901 333 06200 58000 81924;MET047MKJP 211500Z 32004KT 9999 FEW024CB 29/25 Q1016;EQDQ01+000012SCOTCVQ02+000000PRSWM2
0146783970999992000122322004+17930-076770FM-15+0009MKJP V0201301N005110600019N0112651N1+02801+02701999999ADDGA1021+006009999GA2071+060009999GF107991999999999999999999MW1001REMMET051MKJP 232200Z 13010KT 9999 FEW020 BKN200 28/27 Q104;EQDQ01+000000PRSWM2
0306783970999992000122418004+17930-076770SY-MT+0009MKJP V0201501N006712200019N0250001N1+02971+02741101301ADDAA199000091GA1021+006009999GF103991021081008001001021KA1120M+03051KA2240N+02431MA1101291101141MD1999999-0111MW1001REMSYN094AAXX  24184 78397 32575 31513 10297 20274 30114 40130 82802 333 01900 10305 20243 59011 82820;MET045MKJP 241800Z 15013KT 9999 FEW020 30/27 Q1013;EQDQ01+000000PRSWM2Q02  00002PRCP99
0162783970999992000122604004+17930-076770FM-15+0009MKJP V0202901N001510600019N0112651N1+02501+02501999999ADDGA1021+006609999GA2071+060009999GF107991999999999999999999MA1101391999999MW1001REMMET052MKJP 260400Z 29003KT 9999 FEW022 BKN200 25/25 Q1014;EQDQ01+000000PRSWM2
0139783970999992000122805004+17930-076770FM-15+0009MKJP V0200501N001012200019N0112651N1+02601+02501999999ADDGA1021+006009999GF102991999999999999999999MA1101291999999MW1001REMMET045MKJP 280500Z 05002KT 9999 FEW020 26/25 Q1013;EQDQ01+000000PRSWM2
0130784390999992000011220004+18570-072300FM-15+0029MTPP V0202701N005112200019N0112651N1+03101+01901999999ADDGA1021+021009999GF104991999999999999999999MW1001REMMET051MTPP 2000Z 27010KT 9999 DCT033 SCT078 31/19 1015.8;EQDQ01+000000PRSWM2
0146784390999992000011413004+18570-072300FM-15+0029MTPP V0200901N002112200019N0112651N1+02301+01701999999ADDGA1021+007209999GA2021+021009999GF102991999999999999999999MW1001REMMET051MTPP 1300Z 09004KT 9999 SCT024 FEW075 23/17 1018.5;EQDQ01+000000PRSWM2
0169784390999992000021219004+18570-072300FM-15+0029MTPP V0202801N005712200019N0112651N1+03101+02101999999ADDGA1021+009309999GA2021+024009999GA3021+072009999GF102991999999999999999999MW1001REMMET058MTPP 1900Z 28011KT 9999 SCT031 SCT080 FEW240 31/21 1017.4;EQDQ01+000000PRSWM2
0123784390999992000021312004+18570-072300FM-15+0029MTPP V0200901N001512200019N0112651N1+02001+01801999999ADDGA1021+007209999GF102991999999999999999999MW1001REMMET044MTPP 1200Z 09003KT 9999 FEW024 20/18 1019.4;EQDQ01+000000PRSWM2
0194784390999992000032616004+18570-072300FM-15+0029MTPP V0202701N00311220001CN0090001N1+02701+01801999999ADDGA1021+008409999GA2071+024009999GA3021+066009999MA1101591999999MW1051REMMET062MTPP 1600Z 27006KT 9000 HZ SCT028 BKN080 FEW220 27/18 Q1016.2;EQDQ01+000022SCOTCVQ02+000003PRSWM1Q03    003PRSWM1
0123784390999992000040219004+18570-072300FM-15+0029MTPP V0202801N007212200019N0112651N1+03001+02001999999ADDGA1021+009609999GF102991999999999999999999MW1001REMMET044MTPP 1900Z 28014KT 9999 FEW032 30/20 1014.9;EQDQ01+000000PRSWM2
0212784390999992000040821004+18570-072300FM-15+0029MTPP V0203201N007212200019N0112651N1+02901+02101999999ADDGA1021+008109999GA2021+009909029GA3021+024009999GA4021+075009999GF102991999999999999999999MW1001REMMET085MTPP 2100Z 32014KT 9999 SCT027 FEW033TCU SCT085 FEW250 29/21 1013.7 RMK:HZ/ ALL QDS.;EQDQ01+000000PRSWM2
0186784390999992000041421004+18570-072300FM-15+0029MTPP V0200601N00931220001CN0112651N1+03201+01701999999ADDGA1021+007809999GA2021+008709999GA3071+027009999MA1101391999999MW1001OC101031REMMET062MTPP 2100Z 06018G20KT 9999 SCT029 BKN090 FEW026 32/17 Q1014.6;EQDQ01+000022SCOTCVQ02+000000PRSWM2
0123784390999992000051215004+18570-072300FM-15+0029MTPP V0201101N002112200019N0112651N1+03001+02101999999ADDGA1021+008709999GF102991999999999999999999MW1001REMMET044MTPP 1500Z 11004KT 9999 FEW029 30/21 1015.5;EQDQ01+000000PRSWM2
0181784390999992000091420004+18560-072300FM-15+0029MTPP V0202701N005110840019N0070001N1+03201+02401999999ADDGA1021+009309999GA2081+084009999GF108991999999999999999999MA1101081999999MW1051REMMET055MTPP 2000Z 27010KT 7000 HZ FEW031 OVC280 32/24 Q1011.8;EQDQ01+000003PRSWM1Q02    003PRSWM1
0188784390999992000092022154+18560-072300FM-15+0029MTPP V0200901N002110210019N0090001N1+02901+02501999999ADDGA1021+008409999GA2071+021009999GA3071+078009999GF107991999999999999999999MW1531REMMET061MTPP 2215Z 09004KT 9000 DZ SCT028 BKN076 BKN260 29/25 1012.3;EQDQ01+000003PRSWM1Q02    003PRSWM1
0250784390999992000092918004+18560-072300SY-MT+0029MTPP V0200901N00411069001CN0180001N1+03121+02341101071ADDAA199000091GA1021+009009999GA2021+024009999GA3021+069009999GF106991999999008001999999MW1001REMSYN048AAXX  29184 78439 32568 60908 10312 20234 40107;MET058MTPP 1800Z 09008KT 9999 SCT030 SCT080 SCT230 31/23 1010.7;EQDQ01+000000PRSWM2Q02  00002PRCP99
0162784390999992000122517004+18560-072300FM-15+0029MTPP V0200901N007212200019N0112651N1+03101+02101999999ADDGA1021+009309999GA2021+081009999GF102991999999999999999999MA1101391999999MW1001REMMET052MTPP 1700Z 09014KT 9999 FEW031 FEW270 31/21 Q1014.3;EQDQ01+000000PRSWM2
0139784570999992000010900004+19750-070550FM-15+0015MDPP V0209999C000012200019N0112651N1+02301+02101999999ADDGA1021+005409999GF102991999999999999999999MA1101691999999MW1001REMMET045MDPP 090000Z 00000KT 9999 FEW018 23/21 Q1017;EQDQ01+000000PRSWM2
0165784570999992000011620004+19750-070550FM-15+0015MDPP V0200901N004110210019N0112651N1+02201+99999999999ADDGA1021+005409999GA2071+021009999GF107991999999999999999999MW1001REMMET054MDPP 162000Z 09008KT 9999 SCT018 BKN070 22/118 Q11020;EQDQ01+110191APOA  Q02+000000PRSWM2
0152784570999992000012200004+19750-070550FM-15+0015MDPP V0209999C00001220001CN0112651N1+02401+02001999999ADDGA1071+005409999GA2021+021009999MA1101491999999MW1001REMMET052MDPP 210000Z 00000KT 9999 BKN018 SCT070 24/20 Q1015;EQDQ01+000042SCOTCVQ02+000000PRSWM2
0139784570999992000021917004+19750-070550FM-15+0015MDPP V0201301N005112200019N0112651N1+02701+02101999999ADDGA1021+005409999GF104991999999999999999999MA1102001999999MW1001REMMET045MDPP 191700Z 13010KT 9999 SCT018 27/21 Q1020;EQDQ01+000000PRSWM2
0139784570999992000022421004+19750-070550FM-15+0015MDPP V0200701N003112200019N0112651N1+02601+02001999999ADDGA1021+006009999GF104991999999999999999999MA1101391999999MW1001REMMET045MDPP 242100Z 07006KT 9999 SCT020 26/20 Q1014;EQDQ01+000000PRSWM2
0139784570999992000022516004+19750-070550FM-15+0015MDPP V0201101N003112200019N0112651N1+02501+02201999999ADDGA1021+004509999GF104991999999999999999999MA1101691999999MW1001REMMET045MDPP 251600Z 11006KT 9999 SCT015 25/22 Q1017;EQDQ01+000000PRSWM2
0142784570999992000031213004+19750-070550FM-15+0015MDPP V0209999C000012200019N0112651N1+02101+01701999999ADDGA1021+005409999GF102991999999999999999999MA1101901999999MW1001REMMET048MDPP 121300Z 00000KT 9999 FEW018 21/17 Q1019 82;EQDQ01+000000PRSWM2
0139784570999992000040100004+19750-070550FM-15+0015MDPP V0209999C000012200019N0112651N1+02501+02301999999ADDGA1021+006009999GF102991999999999999999999MA1101291999999MW1001REMMET045MDPP 010000Z 00000KT 9999 FEW020 25/23 Q1013;EQDQ01+000000PRSWM2
0139784570999992000040418504+19750-070550FM-15+0015MDPP V0200201N005112200019N0112651N1+02701+02101999999ADDGA1021+007509999GF104991999999999999999999MA1101291999999MW1001REMMET045MDPP 041850Z 02010KT 9999 SCT025 27/21 Q1013;EQDQ01+000000PRSWM2
0139784570999992000042616004+19750-070550FM-15+0015MDPP V0201301N005112200019N0112651N1+03001+02501999999ADDGA1021+000609999GF102991999999999999999999MA1101491999999MW1001REMMET045MDPP 261600Z 13010KT 9999 FEW002 30/25 Q1015;EQDQ01+000000PRSWM2
0139784570999992000050919004+19750-070550FM-15+0015MDPP V0200901N005112200019N0112651N1+02901+02401999999ADDGA1021+006009999GF104991999999999999999999MA1101391999999MW1001REMMET045MDPP 091900Z 09010KT 9999 SCT020 29/24 Q1014;EQDQ01+000000PRSWM2
0171784570999992000051019004+19750-070550FM-15+0015MDPP V0200901N005112200019N0112651N1+02801+02401999999ADDGA1021+005409099GA2021+005409999GA3021+090009999GF104991999999999999999999MW1001REMMET060MDPP 101900Z 09010KT 9999 FEW018CB SCT018 SCT300 28/24 Q103;EQDQ01+000000PRSWM2
0139784570999992000051814534+19750-070550FM-15+0015MDPP V0203601N003112200019N0112651N1+02801+02301999999ADDGA1021+005409999GF102991999999999999999999MA1101691999999MW1001REMMET045MDPP 181453Z 36006KT 9999 FEW018 28/23 Q1017;EQDQ01+000000PRSWM2
0162784570999992000053121504+19750-070550FM-15+0015MDPP V0209999C000010900019N0112651N1+02801+02501999999ADDGA1021+006009999GA2081+090009999GF108991999999999999999999MA1101391999999MW1001REMMET052MDPP 312150Z 00000KT 9999 FEW020 OVC300 28/25 Q1014;EQDQ01+000000PRSWM2
0162784570999992000060615544+19750-070550FM-15+0015MDPP V0201601N006210900019N0112651N1+03101+02501999999ADDGA1021+007509999GA2071+090009999GF107991999999999999999999MA1101591999999MW1001REMMET052MDPP 061554Z 16012KT 9999 FEW025 BKN300 31/25 Q1016;EQDQ01+000000PRSWM2
0139784570999992000060816004+19750-070550FM-15+0015MDPP V0201101N004112200019N0112651N1+03201+02301999999ADDGA1021+007509999GF104991999999999999999999MA1101391999999MW1001REMMET045MDPP 081600Z 11008KT 9999 SCT025 32/23 Q1014;EQDQ01+000000PRSWM2
0139784570999992000061613004+19750-070550FM-15+0015MDPP V0201301N003112200019N0112651N1+02601+02201999999ADDGA1021+005409999GF102991999999999999999999MA1101591999999MW1001REMMET045MDPP 161300Z 13006KT 9999 FEW018 26/22 Q1016;EQDQ01+000000PRSWM2
