0071726959999992000090917009+45250-122767NSRDB+006099999V020999999999999999999999999999+99999+99999999999ADDGP10060040002008062702015010502008GQ100600620911339GR100600631913489
0054726959999992000091309009+45250-122767NSRDB+006099999V020999999999999999999999999999+99999+99999999999ADDGP10060000002000000002000000002000GR100600000900009
0071726959999992000092000009+45250-122767NSRDB+006099999V020999999999999999999999999999+99999+99999999999ADDGP10060042902008071602015010502008GQ100600631924119GR100600612913559
0158726959999992000092103534+45250-122770FM-15+0060KUAO V0203301N005112200019N0160931N1+01801+01401101081ADDGF100991999999999999999999MA1101081999999MW1001REMMET080KUAO 210353Z AUTO 33010KT 310V010 10SM CLR 18/14 A2985 RMK AO2 SLP108 T01780139;EQDQ01+000000PRSWM2
0071726959999992000092721009+45250-122767NSRDB+006099999V020999999999999999999999999999+99999+99999999999ADDGP10060063202008070602015015602008GQ100600478918959GR100600914913619
0054726959999992000092812009+45250-122767NSRDB+006099999V020999999999999999999999999999+99999+99999999999ADDGP10060000002000000002000000002000GR100600000900009
0150726959999992000093003534+45250-122770FM-15+0060KUAO V0202001N001512200019N0160931N1+01901+01601101701ADDGF100991999999999999999999MA1101691999999MW1001REMMET072KUAO 300353Z AUTO 20003KT 10SM CLR 19/16 A3003 RMK AO2 SLP170 T01890156;EQDQ01+000000PRSWM2
0054726959999992000100611009+45250-122767NSRDB+006099999V020999999999999999999999999999+99999+99999999999ADDGP10060000002000000002000000002000GR100600000900009
0071726959999992000101100009+45250-122767NSRDB+006099999V020999999999999999999999999999+99999+99999999999ADDGP10060006102008000002015006102008GQ100600706923729GR100600456913729
0071726959999992000101201009+45250-122767NSRDB+006099999V020999999999999999999999999999+99999+99999999999ADDGP10060009402008001902015009102008GQ100600802924899GR100600232913739
0071726959999992000101720009+45250-122767NSRDB+006099999V020999999999999999999999999999+99999+99999999999ADDGP10060054102008070702015013702008GQ100600553917219GR100600785913779
0054726959999992000101903009+45250-122767NSRDB+006099999V020999999999999999999999999999+99999+99999999999ADDGP10060000002000000002000000002000GR100600000900009
0242726959999992000102111534+45250-122770FM-15+0060KUAO V0201901N001512200019N0160931N1+00701+00701102071ADDAA106000391AA224021691GF100991999999999999999999KA1999M+01001KA2999N+00721MA1102071999999MD1310211+9999MW1001REMMET102KUAO 211153Z AUTO 19003KT 10SM CLR 07/07 A3014 RMK AO2 SLP207 60001 70085 T00720072 10100 20072 53021;EQDQ01+000000PRSWM2
0071726959999992000102301009+45250-122767NSRDB+006099999V020999999999999999999999999999+99999+99999999999ADDGP10060000002008000002015000002008GQ100600835924679GR100600155913819
0054726959999992000102306009+45250-122767NSRDB+006099999V020999999999999999999999999999+99999+99999999999ADDGP10060000002000000002000000002000GR100600000900009
0054726959999992000102313009+45250-122767NSRDB+006099999V020999999999999999999999999999+99999+99999999999ADDGP10060000002000000002000000002000GR100600000900009
0071726959999992000102323009+45250-122767NSRDB+006099999V020999999999999999999999999999+99999+99999999999ADDGP10060037802008071002015009802008GQ100600669922169GR100600542913829
0186726959999992000102607534+45250-122770FM-15+0060KUAO V0200101N002612200019N0160931N1+01201+00101100961ADDGF100991999999999999999999KA1999M+01721KA2999N+01111MA1100981999999MW1001REMMET082KUAO 260753Z AUTO 01005KT 10SM CLR 12/01 A2982 RMK AO2 SLP096 T01170006 401720111;EQDQ01+000000PRSWM2
0179726959999992000102816534+45250-122770FM-15+0060KUAO V0201801N007212200019N0160931N1+01001+00601100251ADDGD12991+0150019GF102991999999999999999999MA1100241999999MW1001OC100871REMMET078KUAO 281653Z AUTO 18014G17KT 10SM FEW050 10/06 A2960 RMK AO2 SLP025 T01000061;EQDQ01+000000PRSWM2
0216726959999992000102912534+45250-122770FM-15+0060KUAO V0209999C000010126019N0160931N1+01101+00701100661ADDAA101000021GD13991+0126019GD24991+0150019GF108991999999999999999999MA1100681999999MW1001REMMET097KUAO 291253Z AUTO 00000KT 10SM BKN042 OVC055 11/07 A2973 RMK AO2 RAB29E40 SLP066 P0000 T01060072;EQDQ01+000000PRSWM2
0054726959999992000110307009+45250-122767NSRDB+006099999V020999999999999999999999999999+99999+99999999999ADDGP10060000002000000002000000002000GR100600000900009
0054726959999992000110706009+45250-122767NSRDB+006099999V020999999999999999999999999999+99999+99999999999ADDGP10060000002000000002000000002000GR100600000900009
0247726959999992000110720534+45250-122770FM-15+0060KUAO V0209999C000010180019N0128741N1+00801+00701102441ADDAA101000021AA203000021GD14991+0180019GF108991999999999999999999MA1102441999999MD1610071+9999MW1611REMMET102KUAO 072053Z AUTO 00000KT 8SM -RA OVC065 08/07 A3025 RMK AO2 RAB08 SLP244 P0000 60000 T00780067 56007;EQDQ01+000003PRSWM1Q02    003PRSWM1
0071726959999992000111117009+45250-122767NSRDB+006099999V020999999999999999999999999999+99999+99999999999ADDGP10060015202008051902015004502008GQ100600782913069GR100600286913969
0149726959999992000112018534+45250-122770FM-15+0060KUAO V0209999V001512200019N0128741N1+00701+00001102251ADDGF100991999999999999999999MA1102241999999MW1001REMMET071KUAO 201853Z AUTO VRB03KT 8SM CLR 07/00 A3019 RMK AO2 SLP225 T00720000;EQDQ01+000000PRSWM2
0171726959999992000112020534+45250-122770FM-15+0060KUAO V0200101N003612200019N0160931N1+01001-00101102081ADDGF100991999999999999999999MA1102071999999MD1810221+9999MW1001REMMET079KUAO 202053Z AUTO 01007KT 10SM CLR 10/M01 A3014 RMK AO2 SLP208 T01001006 58022;EQDQ01+000000PRSWM2
0171726959999992000112120534+45250-122770FM-15+0060KUAO V0209999C000012200019N0160931N1+00901-00101102141ADDGF100991999999999999999999MA1102131999999MD1810041+9999MW1001REMMET079KUAO 212053Z AUTO 00000KT 10SM CLR 09/M01 A3016 RMK AO2 SLP214 T00941006 58004;EQDQ01+000000PRSWM2
0170726959999992000112209534+45250-122770FM-15+0060KUAO V0209999C000012200019N0080461N1-00201-00201102401ADDGF100991999999999999999999MA1102371999999MW1101REMMET076KUAO 220953Z AUTO 00000KT 5SM BR CLR M02/M02 A3023 RMK AO2 SLP240 T10171022;EQDQ01+000003PRSWM1Q02    003PRSWM1
0241726959999992000112811534+45250-122770FM-15+0060KUAO V0203501N002112200019N0128741N1+00201+00201102201ADDAA106000391AA224000591GF100991999999999999999999KA1999M+00281KA2999N+00111MA1102201999999MD1610131+9999MW1001REMMET101KUAO 281153Z AUTO 35004KT 8SM CLR 02/02 A3018 RMK AO2 SLP220 60001 70002 T00170017 10028 20011 56013;EQDQ01+000000PRSWM2
0071726959999992000112921009+45250-122767NSRDB+006099999V020999999999999999999999999999+99999+99999999999ADDGP10060007702008000002015007702008GQ100600673918769GR100600542914069
0150726959999992000120321534+45250-122770FM-15+0060KUAO V0209999C000012200019N0160931N1+00701+00601102241ADDGF100991999999999999999999MA1102241999999MW1001REMMET072KUAO 032153Z AUTO 00000KT 10SM CLR 07/06 A3019 RMK AO2 SLP224 T00720061;EQDQ01+000000PRSWM2
0054726959999992000120409009+45250-122767NSRDB+006099999V020999999999999999999999999999+99999+99999999999ADDGP10060000002000000002000000002000GR100600000900009
0054726959999992000120414009+45250-122767NSRDB+006099999V020999999999999999999999999999+99999+99999999999ADDGP10060000002000000002000000002000GR100600000900009
0054726959999992000120909009+45250-122767NSRDB+006099999V020999999999999999999999999999+99999+99999999999ADDGP10060000002000000002000000002000GR100600000900009
0208726959999992000121001534+45250-122770FM-15+0060KUAO V0209999C000010117019N0096561N1+00501+00501101991ADDGD13991+0117019GD24991+0138019GF108991999999999999999999MA1101961999999MW1101REMMET084KUAO 100153Z AUTO 00000KT 6SM BR BKN039 OVC046 05/05 A3011 RMK AO2 SLP199 T00500050;EQDQ01+000003PRSWM1Q02    003PRSWM1
0214726959999992000121201534+45250-122770FM-15+0060KUAO V0200401N005710117019N0096561N1+00101-00101101381ADDAA101000021GD14991+0117019GF108991999999999999999999MA1101351999999MW1101MW2711REMMET088KUAO 120153Z AUTO 04011KT 6SM -SN BR OVC039 01/M01 A2993 RMK AO2 SLP138 P0000 T00111006;EQDQ01+000003PRSWM1Q02    003PRSWM1
0054726959999992000121208009+45250-122767NSRDB+006099999V020999999999999999999999999999+99999+99999999999ADDGP10060000002000000002000000002000GR100600000900009
0054726959999992000121611009+45250-122767NSRDB+006099999V020999999999999999999999999999+99999+99999999999ADDGP10060000002000000002000000002000GR100600000900009
0150726959999992000121718534+45250-122770FM-15+0060KUAO V0202201N004112200019N0160931N1+00701+00501103701ADDGF100991999999999999999999MA1103691999999MW1001REMMET072KUAO 171853Z AUTO 22008KT 10SM CLR 07/05 A3062 RMK AO2 SLP370 T00670050;EQDQ01+000000PRSWM2
0149726959999992000121904534+45250-122770FM-15+0060KUAO V0209999C000012200019N0128741N1+00301+00201102541ADDGF100991999999999999999999MA1102541999999MW1001REMMET071KUAO 190453Z AUTO 00000KT 8SM CLR 03/02 A3028 RMK AO2 SLP254 T00280022;EQDQ01+000000PRSWM2
0054726959999992000121911009+45250-122767NSRDB+006099999V020999999999999999999999999999+99999+99999999999ADDGP10060000002000000002000000002000GR100600000900009
0247726959999992000121911534+45250-122770FM-15+0060KUAO V0209999C000010300019N0128741N1+00301+00301102511ADDGD13991+0300019GD24991+0330019GF108991999999999999999999KA1999M+00281KA2999N+00221MA1102511999999MD1610031+9999MW1001REMMET099KUAO 191153Z AUTO 00000KT 8SM BKN100 OVC110 03/03 A3027 RMK AO2 SLP251 T00280028 10028 20022 56003;EQDQ01+000000PRSWM2
0249726959999992000122212534+45250-122770FM-15+0060KUAO V0201701N006210111019N0160931N1+00801+00601100781ADDAA101000021GD13991+0111019GD24991+0135019GF108991999999999999999999MA1100781999999MW1611OC101181REMMET106KUAO 221253Z AUTO 17012G23KT 10SM -RA BKN037 OVC045 08/06 A2976 RMK AO2 RAE1159B26 SLP078 P0000 T00780061;EQDQ01+000003PRSWM1Q02    003PRSWM1
0188726959999992000122814534+45250-122770FM-15+0060KUAO V0209999C000012200019N0160931N1+00301+00301102881ADDGF100991999999999999999999MA1102881999999MW1001REMMET078KUAO 281453Z AUTO 00000KT 10SM CLR 03/03 A3038 RMK AO2 SLP288 T00330033 53000;EQDQ01+000032APCTENQ02+000002APC3  Q03+000000PRSWM2
0149726959999992000122822534+45250-122770FM-15+0060KUAO V0209999V001512200019N0112651N1+00801+00601102631ADDGF100991999999999999999999MA1102641999999MW1001REMMET071KUAO 282253Z AUTO VRB03KT 7SM CLR 08/06 A3031 RMK AO2 SLP263 T00780061;EQDQ01+000000PRSWM2
0151726959999992000123102444+45250-122770FM-15+0060KUAO V0203501N002110042019N0160931N1+00601+00301999999ADDGD13991+0042019GF107991999999999999999999MA1102031999999MW1001REMMET058KUAO 310244Z AUTO 35004KT 10SM BKN014 06/03 A3013 RMK AO2;EQDQ01+000000PRSWM2
0225726980242292000010610364+45600-122600FM-16+0012KPDX V0202601N003110009019N0020111N1+00001+00001999999ADDGD13991+0009019GD24991+0027019GF108991999999999999999999MA1103181999999MW1441REMMET101KPDX 061036Z 26006KT 1/4SM R10R/1400V1800FT FG BKN003 OVC009 00/00 A3047 RMK AO2 TWR VIS 1 FG BKN003;EQDQ01+000003PRSWM1Q02    003PRSWM1
0496726980242292000010820003+45600-122617FM-15+0006PDX  V0202505N00315011895MN0160005N1+00835+00395102315ADDAA101000395GD11995+0094559GD23995+0118959GD33995+0167659GF107991999999999999999999GP10060005702008000002015005702008GQ100600688916839GR100600513914159MA1102345999999MW1001REMMET099KPDX 081955Z 25006KT 10SM FEW031 BKN039 BKN055 08/04 A3022 RMK AO2 RAB06E38 SLP231 P0001 T00830039;EQDQ01+000000PRSWM2N01 00000JPWTH 0QNNAA1D0 02031BA1 0 01031AA1D0 04039BA1 0 04039AA1D0 04055BA1 0 04055GA1 0 00039KA1D0 00039JA1 0 00039LA1 0 01000CA1 0 03022NA1 0 00000QA1 0 10231SA1D0 00047RA1 0 00083YA1 0 25006
0168726980242292000011103354+45600-122600FM-16+0012KPDX V0201201N002610111019N0160931N1+00301+00201999999ADDGD12991+0021019GD24991+0111019GF108991999999999999999999MA1100341999999MW1001REMMET060KPDX 110335Z 12005KT 10SM SCT007 OVC037 03/02 A2963 RMK AO2;EQDQ01+000000PRSWM2
0419726980242292000011114003+45600-122617FM-15+0006PDX  V0201005N00315003965MN0112005N1+00285+00285100535ADDAA101000095GD13995+0039659GD24995+0335359GF108991999999999999999999GP10060000002000000002000000002000GR100600000900009MA1100545999999MW1001REMMET076KPDX 111355Z 10006KT 7SM BKN013 OVC110 03/03 A2969 RMK AO2 SLP053 T00280028;EQDQ01+000000PRSWM2N01 00000JPWTH 0QNNAA1D0 04013BA1 0 04013AA1D0 06110BA1 0 06110GA1 0 00013KA1D0 00037JA1 0 00028LA1 0 00700CA1 0 02969NA1 0 00000QA1 0 10053SA1D0 00037RA1 0 00028YA1 0 10006
0565726980242292000011218003+45600-122617SY-MT+0006PDX  V0201805N00465003965MN0160005N1+00335+00175101735ADDAA101000095AA206000591GD14995+0039659GF108991999999004501999999GP10060008302008002202015007802008GQ100600774914039GR100600308914149KA1999M+00331KA2999N+00171MA1101735999999MD1310181+9999MW1001REMSYN091AAXX  12184 72698 12466 81809 10033 2017 30164 40173 53018 69951 91755 333 10033 555 91218;MET094KPDX 121755Z 18009KT 10SM OVC013 03/02 A3004 RMK AO2 SLP173 60002 T00330017 10033 20017 53018;EQDQ01+000000PRSWM2N01 00000JPWTH 0QNNAA1D0 06013BA1 0 06013GA1 0 00013KA1D0 00035JA1 0 00017LA1 0 01000CA1 0 03004NA1 0 00000QA1 0 10173SA1D0 00038RA1 0 00033YA1 0 18009
0396726980242292000012803003+45600-122617FM-15+0006PDX  V0209999C00005220005MN0160005N1+00285+00175103075ADDAA101000095GD11995+0762059GF102991999999999999999999GP10060000002000000002000000002000GR100600000900009MA1103085999999MD1510011+9999MW1001REMMET076KPDX 280255Z 00000KT 10SM FEW250 03/02 A3044 RMK AO2 SLP307 T00280017 55001;EQDQ01+000000PRSWM2N01 00000JPWTH 0QNNAA1D0 02250BA1 0 01250GA1U0 99999KA1D0 00035JA1 0 00017LA1 0 01000CA1 0 03044NA1 0 00000QA1 0 10307SA1D0 00037RA1 0 00028YA1 0 00000
0225726980242292000012811554+45600-122600FM-15+0012KPDX V0202801N002112200019N0128741N1-00101-00101102721ADDGF100991999999999999999999KA1999M+00221KA2999N-00171MA1102741999999MD1710161+9999MW1411REMMET091KPDX 281155Z 28004KT 8SM BCFG CLR M01/M01 A3034 RMK AO2 SLP272 T10111011 10022 21017 57016;EQDQ01+000003PRSWM1Q02    003PRSWM1
0394726980242292000013117003+45600-122617FM-15+0006PDX  V0201305N00625220005MN0160005N1+00225-00065101975ADDAA101000095GD11995+0182959GF102991999999999999999999GP10060008702008042002015003002008GQ100600822912499GR100600192914099MA1102005999999MW1001REMMET071KPDX 311655Z 13012KT 10SM FEW060 02/M01 A3012 RMK AO2 SLP197 T00221006;EQDQ01+000000PRSWM2N01 00000JPWTH 0QNNAA1D0 02060BA1 0 01060GA1U0 99999KA1D0 00031JA1 0-00006LA1 0 01000CA1 0 03012NA1 0 00000QA1 0 10197SA1D0 00036RA1 0 00022YA1 0 13012
0674726980242292000020606003+45600-122617SY-MT+0006PDX  V0201205N00885018295MN0144005N1+00565+00395101965ADDAA101000395AA206004391GD11995+0109759GD23995+0182959GD34995+0259159GF108991999999012501999999GP10060000002000000002000000002000GR100600000900009KA1240M+00721KA2240N+00391MA1101965101871MD1310251+9999MW1615REMSYN104AAXX  06064 72698 11664 81217 10056 20039 30187 40196 53025 60041 761// 90555 333 10072 20039 555 90606;MET117KPDX 060555Z 12017KT 9SM -RA FEW036 BKN060 OVC085 06/04 A3011 RMK AO2 SLP196 P0001 60017 T00560039 10072 20050 53025;EQDQ01  00418PRCP06Q02    003PRSWM1N01 00020JPWTH 0QNNAA1D0 02036BA1 0 01036AA1D0 04060BA1 0 04060AA1D0 06085BA1 0 06085GA1 0 00060KA1D0 00039JA1 0 00039LA1 0 00900CA1 0 03011NA1 0 00020QA1 0 10196SA1D0 00042RA1 0 00056YA1 0 12017
0490726980242292000021211003+45600-122617FM-15+0006PDX  V0201405N00265008845MN0160005N1+00505+00395100335ADDAA101000395GD11995+0024459GD22995+0054959GD34995+0088459GF108991999999999999999999GP10060000002000000002000000002000GR100600000900009MA1100345999999MW1615REMMET094KPDX 121055Z 14005KT 10SM -RA FEW008 SCT018 OVC029 05/04 A2963 RMK AO2 SLP033 P0001 T00500039;EQDQ01+000003PRSWM1Q02    003PRSWM1N01 00020JPWTH 0QNNAA1D0 02008BA1 0 01008AA1D0 02018BA1 0 02018AA1D0 06029BA1 0 06029GA1 0 00029KA1D0 00039JA1 0 00039LA1 0 01000CA1 0 02963NA1 0 00020QA1 0 10033SA1D0 00041RA1 0 00050YA1 0 14005
0456726980242292000021508003+45600-122617FM-15+0006PDX  V0201905N00525021345MN0160005N1+00615+00395101675ADDAA101000095GD12995+0112859GD23995+0213459GF107991999999999999999999GP10060000002000000002000000002000GR100600000900009KA1999M+00891KA2999N+00391MA1101695999999MW1001REMMET087KPDX 150755Z 19010KT 10SM SCT037 BKN070 06/04 A3003 RMK AO2 SLP167 T00610039 400890039;EQDQ01+000000PRSWM2N01 00000JPWTH 0QNNAA1D0 02037BA1 0 02037AA1D0 04070BA1 0 04070GA1 0 00070KA1D0 00039JA1 0 00039LA1 0 01000CA1 0 03003NA1 0 00000QA1 0 10167SA1D0 00043RA1 0 00061YA1 0 19010
0375726980242292000021719003+45600-122617FM-15+0006PDX  V0209999C00005220005MN0160005N1+00615+00115102315ADDAA101000095GF100991999999999999999999GP10060043202008076102015008802008GQ100600632914849GR100600631914019MA1102305999999MW1001REMMET067KPDX 171855Z 00000KT 10SM CLR 06/01 A3021 RMK AO2 SLP231 T00610011;EQDQ01+000000PRSWM2N01 00000JPWTH 0QNNAA1D0 00000BA1 0 00000GA1U0 99999KA1D0 00034JA1 0 00011LA1 0 01000CA1 0 03021NA1 0 00000QA1 0 10231SA1D0 00043RA1 0 00061YA1 0 00000
0484726980242292000022203003+45600-122617FM-15+0006PDX  V0200805N00265013725MN0160005N1+00615+00565100675ADDAA101000095GD11995+0045759GD23995+0137259GD34995+0274359GF108991999999999999999999GP10060000002000000002000000002000GR100600000900009MA1100685999999MD1510081+9999MW1001REMMET090KPDX 220255Z 08005KT 10SM FEW015 BKN045 OVC090 06/06 A2973 RMK AO2 SLP067 T00610056 55008;EQDQ01+000000PRSWM2N01 00000JPWTH 0QNNAA1D0 02015BA1 0 01015AA1D0 04045BA1 0 04045AA1D0 06090BA1 0 06090GA1 0 00045KA1D0 00042JA1 0 00056LA1 0 01000CA1 0 02973NA1 0 00000QA1 0 10067SA1D0 00043RA1 0 00061YA1 0 08005
0414726980242292000022508003+45600-122617FM-15+0006PDX  V0201105N00415220005MN0160005N1+00225+00115101575ADDAA101000095GD12995+0548659GF104991999999999999999999GP10060000002000000002000000002000GR100600000900009KA1999M+01061KA2999N+00171MA1101595999999MW1001REMMET082KPDX 250755Z 11008KT 10SM SCT180 02/01 A3000 RMK AO2 SLP157 T00220011 401060017 $;EQDQ01+000000PRSWM2N01 00000JPWTH 0QNNAA1D0 02180BA1 0 02180GA1U0 99999KA1D0 00034JA1 0 00011LA1 0 01000CA1 0 03000NA1 0 00000QA1 0 10157SA1D0 00036RA1 0 00022YA1 0 11008
0282726980242292000022817554+45600-122600FM-15+0012KPDX V0202001N007210090019N0160931N1+00801+00501101511ADDAA106000021GD12991+0060019GD23991+0090019GD33991+0180019GF107991999999999999999999KA1999M+00831KA2999N+00671MA1101521999999MD1110101+9999MW1001REMMET108KPDX 281755Z 20014KT 10SM FEW020 BKN030 BKN060 08/05 A2998 RMK AO2 SLP151 60000 T00830050 10083 20067 51010;EQDQ01+000000PRSWM2
0588726980242292000022900003+45600-122617SY-MT+0006PDX  V0201905N00465011585MN0160005N1+00945+00395101285ADDAA101000095AA206000391GD14995+0115859GF108991999999012501999999GP10060005602008000002015005602008GQ100600679923109GR100600523913949KA1120M+00941KA2180N+00671MA1101295101201MD1610211+9999MW1001REMSYN098AAXX  29004 72698 12666 81909 10094 20039 30120 40128 56021 69931 92355 333 10094 20067 555 92900;MET094KPDX 282355Z 19009KT 10SM OVC038 09/04 A2991 RMK AO2 SLP128 60001 T00940039 10094 20083 56021;EQDQ01+000000PRSWM2Q02  00038PRCP06N01 00000JPWTH 0QNNAA1D0 06038BA1 0 06038GA1 0 00038KA1D0 00039JA1 0 00039LA1 0 01000CA1 0 02991NA1 0 00000QA1 0 10128SA1D0 00049RA1 0 00094YA1 0 19009
0497726980242292000030409003+45600-122617FM-15+0006PDX  V0209999C00005015245MN0064005N1+00725+00725101195ADDAA101001595AA203001591GD12995+0115859GD24995+0152459GF108991999999999999999999GP10060000002000000002000000002000GR100600000900009MA1101225999999MD1810151+9999MW1101MW2455MW3615REMMET101KPDX 040855Z 00000KT 4SM -RA BR SCT038 OVC050 07/07 A2989 RMK AO2 SLP119 P0006 60006 T00720072 58015;EQDQ01+000003PRSWM1Q02    003PRSWM1N01 02070JPWTH 0QNNAA1D0 02038BA1 0 02038AA1D0 06050BA1 0 06050GA1 0 00050KA1D0 00045JA1 0 00072LA1 0 00400CA1 0 02989NA1 0 02070QA1 0 10119SA1D0 00045RA1 0 00072YA1 0 00000
0501726980242292000030521003+45600-122617FM-15+0006PDX  V0200505N00265008235MN0160005N1+00725+00225100855ADDAA101000095GD13995+0082359GD23995+0106759GD33995+0457259GF107991999999999999999999GP10060023802008001802015022702008GQ100600514918269GR100600866913899MA1100855999999MD1810151+9999MW1001REMMET090KPDX 052055Z 05005KT 10SM BKN027 BKN035 BKN150 07/02 A2978 RMK AO2 SLP085 T00720022 58015;EQDQ01+000000PRSWM2N01 00000JPWTH 0QNNAA1D0 04027BA1 0 04027AA1D0 04035BA1 0 04035AA1D0 04150BA1 0 04150GA1 0 00027KA1D0 00036JA1 0 00022LA1 0 01000CA1 0 02978NA1 0 00000QA1 0 10085SA1D0 00045RA1 0 00072YA1 0 05005
0502726980242292000031300003+45600-122617SY-MT+0006PDX  V0200605N00155028965MN0160005N1+01225+00175102295ADDAA101000095GD13995+0289659GD23995+0457259GF106991999999999999999999GP10060026002008012102015020702008GQ100600642923489GR100600602913849KA1120M+01221KA2180N+00001MA1102305102211MD1610161+9999REMSYN092AAXX  13004 72698 32966 60603 10122 20017 30221 40229 56016 92355 333 10122 20000 555 91300;EQDQ01  00002PRCP99Q02  00003PRCP99N01 00000JPWTH 0QNNAA1D0 04095BA1 0 04095AA1D0 04150BA1 0 04150GA1 0 00095KA1D0 00035JA1 0 00017LA1 0 01000CA1 0 03021NA1 0 00000QA1 0 10229SA1D0 00054RA1 0 00122YA1 0 06003
0233726980242292000031620464+45600-122600FM-16+0012KPDX V0202801N005110126019N0160931N1+01001+00301999999ADDGD12991+0090019GD23991+0126019GD34991+0150019GF108991999999999999999999MA1102171999999MW1611REMMET094KPDX 162046Z 28010KT 10SM -RA FEW030 BKN042 OVC050 10/03 A3017 RMK AO2 WSHFT 2025 RAB23 P0000;EQDQ01+000003PRSWM1Q02    003PRSWM1
0457726980242292000032021003+45600-122617FM-15+0006PDX  V0203605N00215027435MN0160005N1+01005+00175102915ADDAA101000095GD12995+0106759GD23995+0274359GF107991999999999999999999GP10060056902008032502015034102008GQ100600456918439GR100600964913789MA1102915999999MD1110021+9999MW1001REMMET083KPDX 202055Z 36004KT 10SM SCT035 BKN090 10/02 A3039 RMK AO2 SLP291 T01000017 51002;EQDQ01+000000PRSWM2N01 00000JPWTH 0QNNAA1D0 02035BA1 0 02035AA1D0 04090BA1 0 04090GA1 0 00090KA1D0 00035JA1 0 00017LA1 0 01000CA1 0 03039NA1 0 00000QA1 0 10291SA1D0 00050RA1 0 00100YA1 0 36004
0262726980242292000032222554+45600-122600FM-15+0012KPDX V0200701N001510150019N0032181N1+01101+01001101431ADDAA101000391GD12991+0114019GD23991+0150019GD34991+0180019GF108991999999999999999999MA1101421999999MW1101MW2611REMMET106KPDX 222255Z 07003KT 2SM -RA BR SCT038 BKN050 OVC065 11/10 A2995 RMK AO2 SFC VIS 4 SLP143 P0001 T01060100;EQDQ01+000003PRSWM1Q02    003PRSWM1
0440726980242292000032509003+45600-122617FM-15+0006PDX  V0202805N00215033535MN0160005N1+00615+00395101725ADDAA101000095GD13995+0335359GD23995+0762059GF107991999999999999999999GP10060000002000000002000000002000GR100600000900009MA1101735999999MD1310171+9999MW1001REMMET083KPDX 250855Z 28004KT 10SM BKN110 BKN250 06/04 A3004 RMK AO2 SLP172 T00610039 53017;EQDQ01+000000PRSWM2N01 00000JPWTH 0QNNAA1D0 04110BA1 0 04110AA1D0 04250BA1 0 04250GA1 0 00110KA1D0 00039JA1 0 00039LA1 0 01000CA1 0 03004NA1 0 00000QA1 0 10172SA1D0 00043RA1 0 00061YA1 0 28004
0413726980242292000033015003+45600-122617FM-15+0006PDX  V0203205N00155076205MN0160005N1+00395+00175103215ADDAA101000095GD13995+0762059GF107991999999999999999999GP10060004902008025802015002302008GQ100600843908999GR100600136913709MA1103225999999MD1310091+9999MW1001REMMET076KPDX 301455Z 32003KT 10SM BKN250 04/02 A3048 RMK AO2 SLP321 T00390017 53009;EQDQ01+000000PRSWM2N01 00000JPWTH 0QNNAA1D0 04250BA1 0 04250GA1 0 00250KA1D0 00035JA1 0 00017LA1 0 01000CA1 0 03048NA1 0 00000QA1 0 10321SA1D0 00039RA1 0 00039YA1 0 32003
0358726980242292000040204003+45600-122617FM-15+0006PDX  V0203305N00525220005MN0160005N1+01395+00675102485ADDAA101000095GF100991999999999999999999GP10060000002000000002000000002000GR100600000900009MA1102475999999MW1001REMMET067KPDX 020355Z 33010KT 10SM CLR 14/07 A3026 RMK AO2 SLP248 T01390067;EQDQ01+000000PRSWM2N01 00000JPWTH 0QNNAA1D0 00000BA1 0 00000GA1U0 99999KA1D0 00044JA1 0 00067LA1 0 01000CA1 0 03026NA1 0 00000QA1 0 10248SA1D0 00057RA1 0 00139YA1 0 33010
0168726980242292000040913244+45600-122600FM-16+0012KPDX V0209999C000010078019N0160931N1+00901+00701999999ADDGD13991+0078019GD24991+0114019GF108991999999999999999999MA1102131999999MW1001REMMET060KPDX 091324Z 00000KT 10SM BKN026 OVC038 09/07 A3016 RMK AO2;EQDQ01+000000PRSWM2
0376726980242292000041104003+45600-122617FM-15+0006PDX  V0209999C00005220005MN0160005N1+01675+00945101955ADDAA101000095GD12995+0731559GF104991999999999999999999GP10060000002000000002000000002000GR100600000900009MA1101965999999MW1001REMMET070KPDX 110355Z 00000KT 10SM SCT240 17/09 A3011 RMK AO2 SLP195 T01670094;EQDQ01+000000PRSWM2N01 00000JPWTH 0QNNAA1D0 02240BA1 0 02240GA1U0 99999KA1D0 00049JA1 0 00094LA1 0 01000CA1 0 03011NA1 0 00000QA1 0 10195SA1D0 00062RA1 0 00167YA1 0 00000
0483726980242292000041509003+45600-122617FM-15+0006PDX  V0201905N00155151185MN0160005N1+01005+00945101025ADDAA101001395AA203002091GD12995+0131159GD24995+0149459GF108991999999999999999999GP10060000002000000002000000002000GR100600000900009MA1101025999999MD1010011+9999MW1615REMMET099KPDX 150855Z 19003KT 10SM -RA SCT043 OVC049 10/09 A2983 RMK AO2 SLP102 P0005 60008 T01000094 50001;EQDQ01+000003PRSWM1Q02    003PRSWM1N01 00020JPWTH 0QNNAA1D0 02043BA1 0 02043AA1D0 06049BA1 0 06049GA1 0 00496KA1D0 00049JA1 0 00094LA1 0 01000CA1 0 02983NA1 0 00020QA1 0 10102SA1D0 00050RA1 0 00100YA1 0 19003
0203726980242292000042105554+45600-122600FM-15+0012KPDX V0209999C000012200019N0160931N1+01401+00701101881ADDGF100991999999999999999999KA1999M+02111KA2999N+01441MA1101901999999MD1010061+9999MW1001REMMET085KPDX 210555Z 00000KT 10SM CLR 14/07 A3009 RMK AO2 SLP188 T01440072 10211 20144 50006;EQDQ01+000000PRSWM2
0464726980242292000042313003+45600-122617FM-15+0006PDX  V0202005N00575184715MN0160005N1+00725+00565102205ADDAA101000095GD13995+0182959GD23995+0304859GD33995+0762059GF107991999999999999999999GP10060000002000000002000000002000GR100600000900009MA1102205999999MW1001REMMET084KPDX 231255Z 20011KT 10SM BKN060 BKN100 BKN250 07/06 A3018 RMK AO2 SLP220 T00720056;EQDQ01+000000PRSWM2N01 00000JPWTH 0QNNAA1D0 04060BA1 0 04060AA1D0 04100BA1 0 04100AA1D0 04250BA1 0 04250GA1 0 00606KA1D0 00042JA1 0 00056LA1 0 01000CA1 0 03018NA1 0 00000QA1 0 10220SA1D0 00045RA1 0 00072YA1 0 20011
0437726980242292000042601003+45600-122617FM-15+0006PDX  V0202905N00575169475MN0160005N1+01395+00565102365ADDAA101000095GD12995+0131159GD23995+0167659GF107991999999999999999999GP10060041102008049602015018702008GQ100600632926199GR100600607913499MA1102375999999MW1001REMMET077KPDX 260055Z 29011KT 10SM SCT043 BKN055 14/06 A3023 RMK AO2 SLP236 T01390056;EQDQ01+000000PRSWM2N01 00000JPWTH 0QNNAA1D0 02043BA1 0 02043AA1D0 04055BA1 0 04055GA1 0 00556KA1D0 00042JA1 0 00056LA1 0 01000CA1 0 03023NA1 0 00000QA1 0 10236SA1D0 00057RA1 0 00139YA1 0 29011
0481726980242292000042916003+45600-122617FM-15+0006PDX  V0201005N00215220005MN0160005N1+00835+00675102765ADDAA101000095GD11995+0015259GD22995+0076259GD32995+0609659GF104991999999999999999999GP10060036602008064102015009702008GQ100600652909429GR100600564913479MA1102785999999MW1001REMMET084KPDX 291555Z 10004KT 10SM FEW005 SCT025 SCT200 08/07 A3035 RMK AO2 SLP276 T00830067;EQDQ01+000000PRSWM2N01 00000JPWTH 0QNNAA1D0 02005BA1 0 01005AA1D0 02025BA1 0 02025AA1D0 02200BA1 0 02200GA1U0 99999KA1D0 00044JA1 0 00067LA1 0 01000CA1 0 03035NA1 0 00000QA1 0 10276SA1D0 00047RA1 0 00083YA1 0 10004
0202726980242292000050316174+45600-122600FM-16+0012KPDX V0202601N005110150019N0160931N1+01101+00901999999ADDGD12991+0069019GD22991+0108019GD34991+0150019GF108991999999999999999999MA1101291999999MW1001REMMET079KPDX 031617Z 26010KT 10SM FEW023 SCT036 OVC050 11/09 A2991 RMK AO2 RAE07 P0000;EQDQ01+000000PRSWM2
0524726980242292000050500003+45600-122617SY-MT+0006PDX  V0203305N00315015245MN0160005N1+01175+00895101535ADDAA101000395AA206004191GD12995+0121959GD23995+0152459GD33995+0274359GF106991999999012501999999GP10060032902008006802015028602008GQ100600513925219GR100600839913439KA1120M+01501KA2180N+00831MA1101565101471MD1510131+9999REMSYN098AAXX  05004 72698 12666 63306 10117 20089 30147 40153 55013 60041 92355 333 10150 20083 555 90500;EQDN01 00000JPWTH 0QNNAA1D0 02040BA1 0 02040AA1D0 04050BA1 0 04050AA1D0 04090BA1 0 04090GA1 0 00050KA1D0 00048JA1 0 00089LA1 0 01000CA1 0 02999NA1 0 00000QA1 0 10153SA1D0 00053RA1 0 00117YA1 0 33006
0278726980242292000050811554+45600-122600FM-15+0012KPDX V0209999C000010180019N0160931N1+01201+01201101181ADDAA101000391AA206000591AA324001391GD14991+0180019GF108991999999999999999999KA1999M+01281KA2999N+01171MA1101191999999MD1510011+9999MW1001REMMET112KPDX 081155Z 00000KT 10SM OVC060 12/12 A2988 RMK AO2 RAE22 SLP118 P0001 60002 70005 T01220117 10128 20117 55001;EQDQ01+000000PRSWM2
0678726980242292000051207596+45596-122609SOD  +0033KPDX V020999999999999999999999999999+99999+99999999999ADDAA124003395AT1MW16RA  5KA1240M+01335KA2240N+00675MG1101799999994OE11240116226015405OE22240107326015405OE33240041699999995REMSOD54524 HR PRECIPITATION (IN): 0.13 24 HR MAX TEMP (F): 5624 HR MAX TEMP TIME (LST):1636 24 HR MIN TEMP (F): 4424 HR MIN TEMP TIME (LST):0644 AVERAGE STATION PRESSURE:30.06  PEAK WIND SPEED (MPH): 26 PEAK WIND DIR (DEG):260 PEAK WIND TIME (LST):1540  FASTEST 2MIN SPEED (MPH): 24FASTEST 2MIN DIR (DEG):260 FASTEST 2MIN TIME (LST):1540 AVERAGE WIND SPEED (MPH): 9.3 24 HR AVG TEMP (F):50 HOURLY INCREMENTAL PRECIPITATION VALUES (IN): T    T    T   .00  .01  .01  .02   T   .00  .00  .00  .01  .01  .04  .02  .01  .00  .00  .00  .00  .00  .00  .00  .00
0502726980242292000051300003+45600-122617SY-MT+0006PDX  V0202605N00215076205MN0160005N1+01675+00445102015ADDAA101000095GD11995+0152459GD23995+0762059GF106991999999017501999999GP10060059002008053202015024702008GQ100600498925419GR100600862913389KA1120M+01671KA2180N+00441MA1102035101941MD1610181+9999REMSYN092AAXX  13004 72698 32766 62604 10167 20044 30194 40201 56018 92355 333 10167 20044 555 91300;EQDQ01  00002PRCP99Q02  00003PRCP99N01 00000JPWTH 0QNNAA1D0 02050BA1 0 01050AA1D0 04250BA1 0 04250GA1 0 00250KA1D0 00040JA1 0 00044LA1 0 01000CA1 0 03013NA1 0 00000QA1 0 10201SA1D0 00062RA1 0 00167YA1 0 26004
0265726980242292000051317554+45600-122600FM-15+0012KPDX V0202801N002610600019N0160931N1+01501+00801101531ADDGD12991+0270019GD22991+0330019GD34991+0600019GF108991999999999999999999KA1999M+01501KA2999N+01001MA1101561999999MD1810121+9999MW1001REMMET102KPDX 131755Z 28005KT 10SM FEW090 SCT110 OVC200 15/08 A2999 RMK AO2 SLP153 T01500083 10150 20100 58012;EQDQ01+000000PRSWM2
0437726980242292000052520003+45600-122617FM-15+0006PDX  V0200305N00155060965MN0160005N1+01505+00675101425ADDAA101000095GD11995+0304859GD24995+0609659GF108991999999999999999999GP10060049902008009002015041802008GQ100600259915989GR100601197913319MA1101425999999MW1001REMMET077KPDX 251955Z 03003KT 10SM FEW100 OVC200 15/07 A2995 RMK AO2 SLP142 T01500067;EQDQ01+000000PRSWM2N01 00000JPWTH 0QNNAA1D0 02100BA1 0 01100AA1D0 06200BA1 0 06200GA1 0 00200KA1D0 00044JA1 0 00067LA1 0 01000CA1 0 02995NA1 0 00000QA1 0 10142SA1D0 00059RA1 0 00150YA1 0 03003
0462726980242292000052603003+45600-122617FM-15+0006PDX  V0202205N00265021345MN0160005N1+01675+00725101185ADDAA101000025AA203000021GD14995+0213459GF108991999999999999999999GP10060011702008007502015010202008GQ100600787928899GR100600260913319MA1101195999999MD1610061+9999MW1615REMMET098KPDX 260255Z 22005KT 10SM -RA OVC070 17/07 A2988 RMK AO2 RAB49 SLP118 P0000 60000 T01670072 56006;EQDQ01+000003PRSWM1Q02    003PRSWM1N01 00020JPWTH 0QNNAA1D0 06070BA1 0 06070GA1 0 00070KA1D0 00045JA1 0 00072LA1 0 01000CA1 0 02988NA1 0 00020QA1 0 10118SA1D0 00062RA1 0 00167YA1 0 22005
0492726980242292000052617003+45600-122617FM-15+0006PDX  V0202105N00575007625MN0160005N1+01675+01335101035ADDAA101000095GD12995+0061059GD23995+0076259GD33995+0259159GF107991999999999999999999GP10060021802008001802015020702008GQ100600503910019GR100600849913319MA1101055999999MW1001OC100931REMMET087KPDX 261655Z 21011G18KT 10SM SCT020 BKN025 BKN085 17/13 A2984 RMK AO2 SLP103 T01670133;EQDQ01+000000PRSWM2N01 00000JPWTH 0QNNAA1D0 02020BA1 0 02020AA1D0 04025BA1 0 04025AA1D0 04085BA1 0 04085GA1 0 00025KA1D0 00056JA1 0 00133LA1 0 01000CA1 0 02984NA1 0 00000QA1 0 10103SA1D0 00062RA1 0 00167YA1 0 21011
0413726980242292000060103003+45600-122617FM-15+0006PDX  V0200105N00365012505MN0160005N1+01335+00945102535ADDAA101000095GD14995+0125059GF108991999999999999999999GP10060017402008016902015013902008GQ100600779928959GR100600277913289MA1102545999999MD1810131+9999MW1001REMMET076KPDX 010255Z 01007KT 10SM OVC041 13/09 A3028 RMK AO2 SLP253 T01330094 58013;EQDQ01+000000PRSWM2N01 00000JPWTH 0QNNAA1D0 06041BA1 0 06041GA1 0 00041KA1D0 00049JA1 0 00094LA1 0 01000CA1 0 03028NA1 0 00000QA1 0 10253SA1D0 00056RA1 0 00133YA1 0 01007
0522726980242292000060721003+45600-122617FM-15+0006PDX  V0203005N002650600019N0160005N1+01725+01335101305ADDAA101000025AA203000021GD11995+0091459GD22995+0213459GD34995+0609659GF108991999999999999999999GP10060040902008003602015037602008GQ100600234919199GR100601217913269MA1101325999999MD1710031+9999MW1001REMMET111KPDX 072055Z 30005KT 10SM FEW030 SCT070 OVC200 17/13 A2992 RMK AO2 RAB35E48 SLP130 P0000 60000 T01720133 57003;EQDQ01+000000PRSWM2N01 00000JPWTH 0QNNAA1D0 02030BA1 0 01030AA1D0 02070BA1 0 02070AA1D0 06200BA1 0 06200KA1D0 00056JA1 0 00133LA1 0 01000CA1 0 02992NA1 0 00000QA1 0 10130SA1D0 00063RA1 0 00172YA1 0 30005
0584726980242292000061215003+45600-122617FM-15+0006PDX  V0202005N00465084735MN0096005N1+01445+01445100975ADDAA101001095AA203001891GD12995+0061059GD23995+0082359GD34995+0100659GF108991999999999999999999GP10060008902008000002015008902008GQ100600703907659GR100600446913249MA1100985999999MD1310091+9999MW1101MW2455MW3615REMMET134KPDX 121455Z 20009KT 6SM R10R/5000VP6000FT -RA BR SCT020 BKN027 OVC033 14/14 A2982 RMK AO2 SLP097 VIS S 2 P0004 60007 T01440144 53009;EQDQ01+000003PRSWM1Q02    003PRSWM1N01 02070JPWTH 0QNNAA1D0 02020BA1 0 02020AA1D0 04027BA1 0 04027AA1D0 06033BA1 0 06033GA1 0 00278KA1D0 00058JA1 0 00144LA1 0 00600CA1 0 02982NA1 0 02070QA1 0 10097SA1D0 00058RA1 0 00144YA1 0 20009
0393726980242292000061614003+45600-122617FM-15+0006PDX  V0209999C00005220005MN0160005N1+01175+01005102395ADDAA101000095GD11995+0045759GF102991999999999999999999GP10060010102008030202015005002008GQ100600802906649GR100600226913239MA1102405999999MW1001REMMET070KPDX 161355Z 00000KT 10SM FEW015 12/10 A3024 RMK AO2 SLP239 T01170100;EQDQ01+000000PRSWM2N01 00000JPWTH 0QNNAA1D0 02015BA1 0 01015GA1U0 99999KA1D0 00050JA1 0 00100LA1 0 01000CA1 0 03024NA1 0 00000QA1 0 10239SA1D0 00053RA1 0 00117YA1 0 00000
0393726980242292000061805003+45600-122617FM-15+0006PDX  V0203405N00575220005MN0160005N1+02225+01445101025ADDAA101000095GD11995+0731559GF102991999999999999999999GP10060000002000000002000000002000GQ100600899930529GR100600000900119MA1101055999999MW1001REMMET070KPDX 180455Z 34011KT 10SM FEW240 22/14 A2984 RMK AO2 SLP102 T02220144;EQDQ01+000000PRSWM2N01 00000JPWTH 0QNNAA1D0 02240BA1 0 01240GA1U0 99999KA1D0 00058JA1 0 00144LA1 0 01000CA1 0 02984NA1 0 00000QA1 0 10102SA1D0 00072RA1 0 00222YA1 0 34011
0358726980242292000062210003+45600-122617FM-15+0006PDX  V0203305N00365220005MN0160005N1+01175+00945101895ADDAA101000095GF100991999999999999999999GP10060000002000000002000000002000GR100600000900009MA1101905999999MW1001REMMET067KPDX 220955Z 33007KT 10SM CLR 12/09 A3009 RMK AO2 SLP189 T01170094;EQDQ01+000000PRSWM2N01 00000JPWTH 0QNNAA1D0 00000BA1 0 00000GA1U0 99999KA1D0 00049JA1 0 00094LA1 0 01000CA1 0 03009NA1 0 00000QA1 0 10189SA1D0 00053RA1 0 00117YA1 0 33007
0393726980242292000062217003+45600-122617FM-15+0006PDX  V0203205N00365078645MN0160005N1+01395+00835102025ADDAA101000095GD13995+0076259GF107991999999999999999999GP10060045202008024002015029702008GQ100600497909709GR100600854913229MA1102035999999MW1001REMMET070KPDX 221655Z 32007KT 10SM BKN025 14/08 A3013 RMK AO2 SLP202 T01390083;EQDQ01+000000PRSWM2N01 00000JPWTH 0QNNAA1D0 04025BA1 0 04025GA1 0 00258KA1D0 00047JA1 0 00083LA1 0 01000CA1 0 03013NA1 0 00000QA1 0 10202SA1D0 00057RA1 0 00139YA1 0 32007
0205726980242292000062811554+45590-122600FM-15+0012KPDX V0209999C000012200019N0160931N1+01801+01601101401ADDGF100991999999999999999999KA1999M+02781KA2999N+01831MA1101421999999MD1110091+9999MW1001REMMET087KPDX 281155Z 00000KT 10SM CLR 18/16 A2995 RMK AO2 SLP140 T01830156 10278 20183 51009 $;EQDQ01+000000PRSWM2
0481726980242292000062900003+45600-122617SY-MT+0006PDX  V0203505N00465220005MN0160005N1+03335+01115101425ADDAA101000095GA1001+999999999GD10995+9999999GF100991001001999999001001GP10060066602008071302015016402008GQ100600453925739GR100600928913229KA1120M+03391KA2180N+01831MA1101425101331MD1610081+9999REMSYN092AAXX  29004 72698 32966 03509 10333 20111 30133 40142 56008 92355 333 10339 20183 555 92900;EQDQ01  00002PRCP99Q02  00003PRCP99N01 00000JPWTH 0QNNAA1D0 00000BA1 0 00000GA1U0 99999KA1D0 00052JA1 0 00111LA1 0 01000CA1 0 02995NA1 0 00000QA1 0 10142SA1D0 00092RA1 0 00333YA1 0 35009
0439726980242292000062914003+45600-122617FM-15+0006PDX  V0203305N00315220005MN0160005N1+01395+01285101785ADDAA101000095GD11995+0045759GD22995+0762059GF104991999999999999999999GP10060009502008033102015004202008GQ100600807906609GR100600212913219MA1101795999999MW1001REMMET079KPDX 291355Z 33006KT 10SM FEW015 SCT250 14/13 A3006 RMK AO2 SLP178 T01390128 $;EQDQ01+000000PRSWM2N01 00000JPWTH 0QNNAA1D0 02015BA1 0 01015AA1D0 02250BA1 0 02250GA1U0 99999KA1D0 00055JA1 0 00128LA1 0 01000CA1 0 03006NA1 0 00000QA1 0 10178SA1D0 00057RA1 0 00139YA1 0 33006
0465726980242292000063000003+45600-122617SY-MT+0006PDX  V0203405N00415220005MN0160005N1+02895+01065101295ADDAA101000095GD12995+0762059GF104991999999999999999999GP10060067202008073802015015402008GQ100600453925729GR100600928913219KA1120M+02941KA2180N+01391MA1101325101231MD1710221+9999REMSYN092AAXX  30004 72698 32966 43408 10289 20106 30123 40129 57022 92355 333 10294 20139 555 93000;EQDQ01  00002PRCP99Q02  00003PRCP99N01 00000JPWTH 0QNNAA1D0 02250BA1 0 02250GA1U0 99999KA1D0 00051JA1 0 00106LA1 0 01000CA1 0 02992NA1 0 00000QA1 0 10129SA1D0 00084RA1 0 00289YA1 0 34008
0439726980242292000070702003+45600-122617FM-15+0006PDX  V0203205N00265220005MN0160005N1+02445+00945101505ADDAA101000095GD11995+0137259GD22995+0762059GF104991999999999999999999GP10060034002008050502015013702008GQ100600663927879GR100600530913219MA1101525999999MW1001REMMET079KPDX 070155Z 32005KT 10SM FEW045 SCT250 24/09 A2998 RMK AO2 SLP150 T02440094 $;EQDQ01+000000PRSWM2N01 00000JPWTH 0QNNAA1D0 02045BA1 0 01045AA1D0 02250BA1 0 02250GA1U0 99999KA1D0 00049JA1 0 00094LA1 0 01000CA1 0 02998NA1 0 00000QA1 0 10150SA1D0 00076RA1 0 00244YA1 0 32005
0437726980242292000071314003+45600-122617FM-15+0006PDX  V0200905N00265060965MN0160005N1+01395+01175101945ADDAA101000095GD12995+0134159GD23995+0609659GF107991999999999999999999GP10060006802008015102015004702008GQ100600821906679GR100600181913229MA1101965999999MW1001REMMET077KPDX 131355Z 09005KT 10SM SCT044 BKN200 14/12 A3011 RMK AO2 SLP194 T01390117;EQDQ01+000000PRSWM2N01 00000JPWTH 0QNNAA1D0 02044BA1 0 02044AA1D0 04200BA1 0 04200GA1 0 00200KA1D0 00053JA1 0 00117LA1 0 01000CA1 0 03011NA1 0 00000QA1 0 10194SA1D0 00057RA1 0 00139YA1 0 09005
0468726980242292000071403003+45600-122617FM-15+0006PDX  V0203405N00675067065MN0160005N1+02065+01395102075ADDAA101000095GD12995+0182959GD23995+0670659GF107991999999999999999999GP10060016102008019402015011702008GQ100600769928789GR100600299913229MA1102075999999MD1510001+9999MW1001REMMET094KPDX 140255Z 34013KT 10SM SCT060 BKN220 21/14 A3014 RMK AO2 WSHFT 0213 SLP207 T02060139 55000;EQDQ01+000000PRSWM2N01 00000JPWTH 0QNNAA1D0 02060BA1 0 02060AA1D0 04220BA1 0 04220GA1 0 00220KA1D0 00057JA1 0 00139LA1 0 01000CA1 0 03014NA1 0 00000QA1 0 10207SA1D0 00069RA1 0 00206YA1 0 34013
0221726980242292000071623554+45590-122600FM-15+0012KPDX V0203201N003610750019N0160931N1+03201+01101101041ADDGD13991+0750019GF107991999999999999999999KA1999M+03331KA2999N+02331MA1101051999999MD1610131+9999MW1001REMMET088KPDX 162355Z 32007KT 10SM BKN250 32/11 A2984 RMK AO2 SLP104 T03220111 10333 20233 56013;EQDQ01+000000PRSWM2
0247726980242292000072117554+45590-122600FM-15+0012KPDX V0203001N004610750019N0160931N1+02201+01601101291ADDGD12991+0270019GD23991+0750019GF107991999999999999999999KA1999M+02171KA2999N+01561MA1101321999999MD1810151+9999MW1001REMMET099KPDX 211755Z COR 30009KT 10SM FEW090 BKN250 22/16 A2992 RMK AO2 SLP129 T02170161 10217 20156 58015;EQDQ01+000000PRSWM2
0203726980242292000080723554+45590-122600FM-15+0012KPDX V0203001N004612200019N0160931N1+02601+01601101251ADDGF100991999999999999999999KA1999M+02561KA2999N+01781MA1101291999999MD1710211+9999MW1001REMMET085KPDX 072355Z 30009KT 10SM CLR 26/16 A2991 RMK AO2 SLP125 T02560156 10256 20178 57021;EQDQ01+000000PRSWM2
0221726980242292000081711554+45590-122600FM-15+0012KPDX V0203401N002112200019N0160931N1+01301+00801102171ADDGD12991+0120019GF102991999999999999999999KA1999M+01721KA2999N+01281MA1102201999999MD1010031+9999MW1001REMMET088KPDX 171155Z 34004KT 10SM FEW040 13/08 A3018 RMK AO2 SLP217 T01280078 10172 20128 50003;EQDQ01+000000PRSWM2
0481726980242292000081904003+45600-122617FM-15+0006PDX  V0202705N00215021345MN0160005N1+01785+01505101845ADDAA101000095GD11995+0091459GD22995+0152459GD33995+0213459GF107991999999999999999999GP10060000002008000002015000002008GQ100600892928799GR100600003902339MA1101865999999MW1001REMMET084KPDX 190355Z 27004KT 10SM FEW030 SCT050 BKN070 18/15 A3008 RMK AO2 SLP184 T01780150;EQDQ01+000000PRSWM2N01 00000JPWTH 0QNNAA1D0 02030BA1 0 01030AA1D0 02050BA1 0 02050AA1D0 04070BA1 0 04070GA1 0 00070KA1D0 00059JA1 0 00150LA1 0 01000CA1 0 03008NA1 0 00000QA1 0 10184SA1D0 00064RA1 0 00178YA1 0 27004
0376726980242292000081911003+45600-122617FM-15+0006PDX  V0201505N00155021345MN0160005N1+01335+01175101915ADDAA101000095GD14995+0213459GF108991999999999999999999GP10060000002000000002000000002000GR100600000900009MA1101935999999MW1001REMMET070KPDX 191055Z 15003KT 10SM OVC070 13/12 A3010 RMK AO2 SLP191 T01330117;EQDQ01+000000PRSWM2N01 00000JPWTH 0QNNAA1D0 06070BA1 0 06070GA1 0 00070KA1D0 00053JA1 0 00117LA1 0 01000CA1 0 03010NA1 0 00000QA1 0 10191SA1D0 00056RA1 0 00133YA1 0 15003
0483726980242292000090117003+45600-122617FM-15+0006PDX  V0201405N00365021345MN0160005N1+01505+00945101045ADDAA101000095GD11995+0076259GD22995+0137259GD33995+0213459GF107991999999999999999999GP10060018702008001702015017802008GQ100600603911089GR100600665913429MA1101055999999MW1001REMMET086KPDX 011655Z 14007KT 10SM FEW025 SCT045 BKN070 15/09 A2984 RMK AO2 SLP104 T01500094 $;EQDQ01+000000PRSWM2N01 00000JPWTH 0QNNAA1D0 02025BA1 0 01025AA1D0 02045BA1 0 02045AA1D0 04070BA1 0 04070GA1 0 00070KA1D0 00049JA1 0 00094LA1 0 01000CA1 0 02984NA1 0 00000QA1 0 10104SA1D0 00059RA1 0 00150YA1 0 14007
0507726980242292000090206003+45600-122617SY-MT+0006PDX  V0201505N00265015245MN0160005N1+01395+01115101115ADDAA101000025AA206000791GD12995+0106759GD23995+0152459GD34995+0198159GF108991999999012501999999GP10060000002000000002000000002000GR100600000900009KA1240M+01941KA2240N+01221MA1101125101031MD1110141+9999REMSYN098AAXX  02064 72698 12666 81505 10139 20111 30103 40111 51014 69901 90555 333 10194 20122 555 90206;EQDN01 00000JPWTH 0QNNAA1D0 02035BA1 0 02035AA1D0 04050BA1 0 04050AA1D0 06065BA1 0 06065GA1 0 00050KA1D0 00052JA1 0 00111LA1 0 01000CA1 0 02986NA1 0 00000QA1 0 10111SA1D0 00057RA1 0 00139YA1 0 15005
0554726980242292000090222003+45600-122617FM-15+0006PDX  V0201305N00415018295MN0160005N1+01615+01115101385ADDAA101001895GA1999+009001091GD12995+0091459GD23995+0182959GD33995+0365859GF107991999999999999999999GP10060023602008000602015023202008GQ100600419921059GR100600999913439MA1101395999999MW1001REMMET141KPDX 022155Z 13008KT 100V160 10SM SCT030CB BKN060 BKN120 16/11 A2994 RMK AO2 RAB2058E17 SLP138 CB NE AND SW MOV N VIRGA SW P0007 T01610111 $;EQDQ01+000000PRSWM2N01 00000JPWTH 0QNNAA1D0 02030BA1 0 02030AA1D0 04060BA1 0 04060AA1D0 04120BA1 0 04120GA1 0 00060KA1D0 00052JA1 0 00111LA1 0 01000CA1 0 02994NA1 0 00000QA1 0 10138SA1D0 00061RA1 0 00161YA1 0 13008
0439726980242292000090514003+45600-122617FM-15+0006PDX  V0202405N00155010675MN0160005N1+01005+00895102435ADDAA101000095GD13995+0106759GD23995+0609659GF107991999999999999999999GP10060000002008000002015000002008GQ100600884908199GR100600014904829MA1102445999999MW1001REMMET079KPDX 051355Z 24003KT 10SM BKN035 BKN200 10/09 A3025 RMK AO2 SLP243 T01000089 $;EQDQ01+000000PRSWM2N01 00000JPWTH 0QNNAA1D0 04035BA1 0 04035AA1D0 04200BA1 0 04200GA1 0 00035KA1D0 00048JA1 0 00089LA1 0 01000CA1 0 03025NA1 0 00000QA1 0 10243SA1D0 00050RA1 0 00100YA1 0 24003
037172698024229200009051555C+45600-122617FM-15+0006PDX  V0202805N00215220005MN0160005N1+01335+01065102465ADDAA101000095GD12995+0106759GD22995+0762059GF104991999999999999999999MA1102475999999MW1001REMMET079KPDX 051555Z 28004KT 10SM SCT035 SCT250 13/11 A3026 RMK AO2 SLP246 T01330106 $;EQDQ01+000000PRSWM2N01 00000JPWTH 0QNNAA1D0 02035BA1 0 02035AA1D0 02250BA1 0 02250GA1U0 99999KA1D0 00051JA1 0 00106LA1 0 01000CA1 0 03026NA1 0 00000QA1 0 10246SA1D0 00056RA1 0 00133YA1 0 28004
0376726980242292000090907003+45600-122617FM-15+0006PDX  V0201705N00215220005MN0160005N1+01225+00895101485ADDAA101000095GD11995+0182959GF102991999999999999999999GP10060000002000000002000000002000GR100600000900009MA1101495999999MW1001REMMET070KPDX 090655Z 17004KT 10SM FEW060 12/09 A2997 RMK AO2 SLP148 T01220089;EQDQ01+000000PRSWM2N01 00000JPWTH 0QNNAA1D0 02060BA1 0 01060GA1U0 99999KA1D0 00048JA1 0 00089LA1 0 01000CA1 0 02997NA1 0 00000QA1 0 10148SA1D0 00054RA1 0 00122YA1 0 17004
0420726980242292000091213003+45600-122617FM-15+0006PDX  V0203405N00155220005MN0160005N1+01395+01225101535ADDAA101000095GD11995+0018359GD22995+0076259GF104991999999999999999999GP10060000002000000002000000002000GR100600000900009MA1101565999999MW1001REMMET077KPDX 121255Z 34003KT 10SM FEW006 SCT025 14/12 A2999 RMK AO2 SLP153 T01390122;EQDQ01+000000PRSWM2N01 00000JPWTH 0QNNAA1D0 02006BA1 0 01006AA1D0 02025BA1 0 02025GA1U0 99999KA1D0 00054JA1 0 00122LA1 0 01000CA1 0 02999NA1 0 00000QA1 0 10153SA1D0 00057RA1 0 00139YA1 0 34003
0456726980242292000091508003+45600-122617FM-15+0006PDX  V0209999C00005022865MN0160005N1+02225+01445101655ADDAA101000095GD12995+0146359GD24995+0228659GF108991999999999999999999GP10060000002000000002000000002000GR100600000900009KA1999M+03171KA2999N+01781MA1101665999999MW1001REMMET087KPDX 150755Z 00000KT 10SM SCT048 OVC075 22/14 A3002 RMK AO2 SLP165 T02220144 403170178;EQDQ01+000000PRSWM2N01 00000JPWTH 0QNNAA1D0 02048BA1 0 02048AA1D0 06075BA1 0 06075GA1 0 00075KA1D0 00058JA1 0 00144LA1 0 01000CA1 0 03002NA1 0 00000QA1 0 10165SA1D0 00072RA1 0 00222YA1 0 00000
0376726980242292000091605003+45600-122617FM-15+0006PDX  V0203105N00315220005MN0160005N1+01835+01395101975ADDAA101000095GD12995+0143359GF104991999999999999999999GP10060000002000000002000000002000GR100600000900009MA1101965999999MW1001REMMET070KPDX 160455Z 31006KT 10SM SCT047 18/14 A3011 RMK AO2 SLP197 T01830139;EQDQ01+000000PRSWM2N01 00000JPWTH 0QNNAA1D0 02047BA1 0 02047GA1U0 99999KA1D0 00057JA1 0 00139LA1 0 01000CA1 0 03011NA1 0 00000QA1 0 10197SA1D0 00065RA1 0 00183YA1 0 31006
0465726980242292000091718003+45600-122617SY-MT+0006PDX  V0203405N00365005185MN0160005N1+01675+01285102435ADDAA101000095GD14995+0051859GF108991999999004501999999GP10060020902008001802015019902008GQ100600553913069GR100600770913549KA1120M+01671KA2240N+01171MA1102445102351MD1310051+9999REMSYN092AAXX  17184 72698 32466 83407 10167 20128 30235 40243 53005 91755 333 10167 20117 555 91718;EQDQ01  00002PRCP99Q02  00003PRCP99N01 00000JPWTH 0QNNAA1D0 06017BA1 0 06017GA1 0 00017KA1D0 00055JA1 0 00128LA1 0 01000CA1 0 03025NA1 0 00000QA1 0 10243SA1D0 00062RA1 0 00167YA1 0 34007
0485726980242292000091906003+45600-122617SY-MT+0006PDX  V0203405N00155019815MN0160005N1+02115+01785102215ADDAA101000095GD12995+0152459GD24995+0198159GF108991999999017501999999GP10060000002000000002000000002000GR100600000900009KA1240M+02781KA2240N+01611MA1102245102151MD1110071+9999REMSYN092AAXX  19064 72698 32766 83403 10211 20178 30215 40221 51007 90555 333 10278 20161 555 91906;EQDQ01  00002PRCP99Q02  00003PRCP99N01 00000JPWTH 0QNNAA1D0 02050BA1 0 02050AA1D0 06065BA1 0 06065GA1 0 00065KA1D0 00064JA1 0 00178LA1 0 01000CA1 0 03019NA1 0 00000QA1 0 10221SA1D0 00070RA1 0 00211YA1 0 34003
0393726980242292000091922003+45600-122617FM-15+0006PDX  V0203305N00415220005MN0160005N1+02445+01565102035ADDAA101000095GD12995+0121959GF104991999999999999999999GP10060057602008052402015022802008GQ100600485920929GR100600898913559MA1102075999999MW1001REMMET070KPDX 192155Z 33008KT 10SM SCT040 24/16 A3014 RMK AO2 SLP203 T02440156;EQDQ01+000000PRSWM2N01 00000JPWTH 0QNNAA1D0 02040BA1 0 02040GA1U0 99999KA1D0 00060JA1 0 00156LA1 0 01000CA1 0 03014NA1 0 00000QA1 0 10203SA1D0 00076RA1 0 00244YA1 0 33008
0389726980242292000092017003+45600-122617FM-15+0006PDX  V0200905N00215220005MN0160005N1+01675+01285101595ADDAA101000095GD11995+0045759GF102991999999999999999999GP10060037902008058902015012702008GQ100600648911759GR100600578913569MA1101595999999MW1001REMMET066KPDX 201655Z 09004KT 10SM FEW015 17/13 A3000 RMK SLP159 T01670128;EQDQ01+000000PRSWM2N01 00000JPWTH 0QNNAA1D0 02015BA1 0 01015GA1U0 99999KA1D0 00055JA1 0 00128LA1 0 01000CA1 0 03000NA1 0 00000QA1 0 10159SA1D0 00062RA1 0 00167YA1 0 09004
0437726980242292000092117003+45600-122617FM-15+0006PDX  V0203305N00315006405MN0160005N1+01675+01335100815ADDAA101000095GD13995+0064059GD24995+0167659GF108991999999999999999999GP10060018202008001702015017402008GQ100600650911789GR100600573913579MA1100815999999MW1001REMMET077KPDX 211655Z 33006KT 10SM BKN021 OVC055 17/13 A2977 RMK AO2 SLP081 T01670133;EQDQ01+000000PRSWM2N01 00000JPWTH 0QNNAA1D0 04021BA1 0 04021AA1D0 06055BA1 0 06055GA1 0 00021KA1D0 00056JA1 0 00133LA1 0 01000CA1 0 02977NA1 0 00000QA1 0 10081SA1D0 00062RA1 0 00167YA1 0 33006
0405726980242292000092217003+45600-122617FM-15+0006PDX  V0201005N00985220005MN0160005N1+01335-00335101545ADDAA101000095GF100991999999999999999999GP10060037202008068502015008502008GQ100600653911829GR100600568913579MA1101565999999MW1001OC101181REMMET089KPDX 221655Z 10019G23KT 10SM CLR 13/M03 A2999 RMK AO2 PK WND 10028/1620 SLP154 T01331033;EQDQ01+000000PRSWM2N01 00000JPWTH 0QNNAA1D0 00000BA1 0 00000GA1U0 99999KA1D0 00026JA1 0-00033LA1 0 01000CA1 0 02999NA1 0 00000QA1 0 10154SA1D0 00056RA1 0 00133YA1 0 10019
0464726980242292000092306003+45600-122617SY-MT+0006PDX  V0200305N00465220005MN0160005N1+01335-00285101705ADDAA101000095GA1001+999999999GD10995+9999999GF100991001001999999001001GP10060000002000000002000000002000GR100600000900009KA1240M+01781KA2240N+01111MA1101735101641MD1110111+9999REMSYN092AAXX  23064 72698 32966 00309 10133 21028 30164 40170 51011 90555 333 10178 20111 555 92306;EQDQ01  00002PRCP99Q02  00003PRCP99N01 00000JPWTH 0QNNAA1D0 00000BA1 0 00000GA1U0 99999KA1D0 00027JA1 0-00028LA1 0 01000CA1 0 03004NA1 0 00000QA1 0 10170SA1D0 00056RA1 0 00133YA1 0 03009
0394726980242292000092420003+45600-122617FM-15+0006PDX  V0201105N00675220005MN0160005N1+02285-00065101965ADDAA101000095GD12995+0762059GF104991999999999999999999GP10060067002008076002015015102008GQ100600471916909GR100600925913599MA1101965999999MW1001REMMET071KPDX 241955Z 11013KT 10SM SCT250 23/M01 A3011 RMK AO2 SLP196 T02281006;EQDQ01+000000PRSWM2N01 00000JPWTH 0QNNAA1D0 02250BA1 0 02250GA1U0 99999KA1D0 00031JA1 0-00006LA1 0 01000CA1 0 03011NA1 0 00000QA1 0 10196SA1D0 00073RA1 0 00228YA1 0 11013
0413726980242292000092503003+45600-122617FM-15+0006PDX  V0201005N00265220005MN0160005N1+01725+00285101835ADDAA101000095GD12995+0731559GF104991999999999999999999GP10060000002008000002015000002008GQ100600899926919GR100600000900349MA1101835999999MD1310031+9999MW1001REMMET076KPDX 250255Z 10005KT 10SM SCT240 17/03 A3007 RMK AO2 SLP183 T01720028 53003;EQDQ01+000000PRSWM2N01 00000JPWTH 0QNNAA1D0 02240BA1 0 02240GA1U0 99999KA1D0 00037JA1 0 00028LA1 0 01000CA1 0 03007NA1 0 00000QA1 0 10183SA1D0 00063RA1 0 00172YA1 0 10005
0428726980242292000093009003+45600-122617FM-15+0006PDX  V0201805N00155009755MN0160005N1+01835+01505101545ADDAA101000025AA203000021GD14995+0097559GF108991999999999999999999GP10060000002000000002000000002000GR100600000900009MA1101565999999MD1610101+9999MW1001REMMET097KPDX 300855Z 18003KT 10SM OVC032 18/15 A2999 RMK AO2 RAB07E29 SLP154 P0000 60000 T01830150 56010;EQDQ01+000000PRSWM2N01 00000JPWTH 0QNNAA1D0 06032BA1 0 06032GA1 0 00032KA1D0 00059JA1 0 00150LA1 0 01000CA1 0 02999NA1 0 00000QA1 0 10154SA1D0 00065RA1 0 00183YA1 0 18003
0234726980242292000100105574+45590-122600FM-16+0012KPDX V0202401N003110042019N0048281N1+01801+01701999999ADDGD13991+0042019GD23991+0099019GD34991+0147019GF108991999999999999999999MA1101081999999MW1611REMMET079KPDX 010557Z 24006KT 3SM -RA BR BKN014 BKN033 OVC049 18/17 A2985 RMK AO2 P0001;EQDQ01+000100PRSWM3Q02+000003PRSWM1Q03    003PRSWM1
0147726980242292000100415264+45590-122600FM-16+0012KPDX V0209999C000012200019N0160931N1+00801-00101999999ADDGD12991+0021019GF102991999999999999999999MA1102131999999MW1001REMMET054KPDX 041526Z 00000KT 10SM FEW007 08/M01 A3016 RMK AO2;EQDQ01+000000PRSWM2
0203726980242292000100511554+45590-122600FM-15+0012KPDX V0203101N002112200019N0160931N1+00901+00701101981ADDGF100991999999999999999999KA1999M+01221KA2999N+00941MA1102001999999MD1610031+9999MW1001REMMET085KPDX 051155Z 31004KT 10SM CLR 09/07 A3012 RMK AO2 SLP198 T00940067 10122 20094 56003;EQDQ01+000000PRSWM2
0251726980242292000100517554+45590-122600FM-15+0012KPDX V0200901N010812200019N0160931N1+01901-00101102011ADDGD12991+0750019GF102991999999999999999999KA1999M+01891KA2999N+00781MA1102031999999MD1810031+9999MW1001OC101491REMMET110KPDX 051755Z 09021G29KT 10SM FEW250 19/M01 A3013 RMK AO2 PK WND 09032/1735 SLP201 T01891006 10189 20078 58003;EQDQ01+000000PRSWM2
0442726980242292000101016003+45600-122617FM-15+0006PDX  V0202405N00155007625MN0080005N1+01115+01005100915ADDAA101000595GD14995+0076259GF108991999999999999999999GP10060003502008000002015003502008GQ100600792911189GR100600258913729MA1100915999999MW1101MW2455MW3615REMMET091KPDX 101555Z 24003KT 5SM -RA BR OVC025 11/10 A2980 RMK AO2 RAE23B44 SLP091 P0002 T01110100;EQDQ01+000003PRSWM1Q02    003PRSWM1N01 02070JPWTH 0QNNAA1D0 06025BA1 0 06025GA1 0 00025KA1D0 00050JA1 0 00100LA1 0 00500CA1 0 02980NA1 0 02070QA1 0 10091SA1D0 00052RA1 0 00111YA1 0 24003
0481726980242292000101401003+45600-122617FM-15+0006PDX  V0202305N00365010675MN0160005N1+01565+01285102265ADDAA101000095GD11995+0061059GD22995+0082359GD34995+0106759GF108991999999999999999999GP10060006602008000002015006602008GQ100600811924869GR100600212913749MA1102275999999MW1001REMMET084KPDX 140055Z 23007KT 10SM FEW020 SCT027 OVC035 16/13 A3020 RMK AO2 SLP226 T01560128;EQDQ01+000000PRSWM2N01 00000JPWTH 0QNNAA1D0 02020BA1 0 01020AA1D0 02027BA1 0 02027AA1D0 06035BA1 0 06035GA1 0 00035KA1D0 00055JA1 0 00128LA1 0 01000CA1 0 03020NA1 0 00000QA1 0 10226SA1D0 00060RA1 0 00156YA1 0 23007
0437726980242292000101719003+45600-122617FM-15+0006PDX  V0209999C00005060965MN0160005N1+01725+01005101555ADDAA101000095GD11995+0365859GD23995+0609659GF107991999999999999999999GP10060046702008065102015012602008GQ100600585915519GR100600719913779MA1101565999999MW1001REMMET077KPDX 171855Z 00000KT 10SM FEW120 BKN200 17/10 A2999 RMK AO2 SLP155 T01720100;EQDQ01+000000PRSWM2N01 00000JPWTH 0QNNAA1D0 02120BA1 0 01120AA1D0 04200BA1 0 04200GA1 0 00200KA1D0 00050JA1 0 00100LA1 0 01000CA1 0 02999NA1 0 00000QA1 0 10155SA1D0 00063RA1 0 00172YA1 0 00000
0466726980242292000101912003+45600-122617SY-MT+0006PDX  V0209999C00005000615MN0016005N1+01005+01005102155ADDAA101000095GD14995+0006159GF108991999999000751999999GP10060000002000000002000000002000GR100600000900009KA1999M+01891KA2120N+00831MA1102175102081MD1010041+9999MW1101MW2455REMSYN098AAXX  19124 72698 31116 80000 10100 20100 30208 40215 50004 710// 91155 333 10189 20083 555 91912;EQDQ01  00002PRCP99Q02  00003PRCP99N01 00070JPWTH 0QNNAA1D0 06002BA1 0 06002GA1 0 00002KA1D0 00050JA1 0 00100LA1 0 00100CA1 0 03017NA1 0 00070QA1 0 10215SA1D0 00050RA1 0 00100YA1 0 00000
0221726980242292000102305554+45590-122600FM-15+0012KPDX V0209999C000012200019N0160931N1+00901+00601102361ADDGD12991+0750019GF102991999999999999999999KA1999M+01671KA2999N+00831MA1102371999999MD1810061+9999MW1001REMMET088KPDX 230555Z 00000KT 10SM FEW250 09/06 A3023 RMK AO2 SLP236 T00890061 10167 20083 58006;EQDQ01+000000PRSWM2
0404726980242292000102322003+45600-122617FM-15+0006PDX  V0201005N00775220005MN0160005N1+01895+00225101625ADDAA101000095GF100991999999999999999999GP10060045302008066702015013202008GQ100600613920679GR100600663913829MA1101635999999MW1001OC101181REMMET088KPDX 232155Z 10015G23KT 10SM CLR 19/02 A3001 RMK AO2 PK WND 09027/2110 SLP162 T01890022;EQDQ01+000000PRSWM2N01 00000JPWTH 0QNNAA1D0 00000BA1 0 00000GA1U0 99999KA1D0 00036JA1 0 00022LA1 0 01000CA1 0 03001NA1 0 00000QA1 0 10162SA1D0 00066RA1 0 00189YA1 0 10015
0511726980242292000102708003+45600-122617FM-15+0006PDX  V0209999C00005006105MN0128005N1+01175+01065101115ADDAA101000395GD11995+0030559GD23995+0061059GD34995+0082359GF108991999999999999999999GP10060000002000000002000000002000GR100600000900009KA1999M+01221KA2999N+00941MA1101125999999MW1001REMMET105KPDX 270755Z 00000KT 8SM FEW010 BKN020 OVC027 12/11 A2986 RMK AO2 RAE42 SLP111 P0001 T01170106 401220094;EQDQ01+000000PRSWM2N01 00000JPWTH 0QNNAA1D0 02010BA1 0 01010AA1D0 04020BA1 0 04020AA1D0 06027BA1 0 06027GA1 0 00020KA1D0 00051JA1 0 00106LA1 0 00800CA1 0 02986NA1 0 00000QA1 0 10111SA1D0 00053RA1 0 00117YA1 0 00000
0501726980242292000102721003+45600-122617FM-15+0006PDX  V0202005N00465014025MN0160005N1+01505+01005100625ADDAA101000095GD11995+0067159GD23995+0140259GD34995+0182959GF108991999999999999999999GP10060022702008001802015021802008GQ100600594919019GR100600706913859MA1100645999999MD1810311+9999MW1001REMMET090KPDX 272055Z 20009KT 10SM FEW022 BKN046 OVC060 15/10 A2972 RMK AO2 SLP062 T01500100 58031;EQDQ01+000000PRSWM2N01 00000JPWTH 0QNNAA1D0 02022BA1 0 01022AA1D0 04046BA1 0 04046AA1D0 06060BA1 0 06060GA1 0 00046KA1D0 00050JA1 0 00100LA1 0 01000CA1 0 02972NA1 0 00000QA1 0 10062SA1D0 00059RA1 0 00150YA1 0 20009
0445726980242292000102807003+45600-122617FM-15+0006PDX  V0201205N00465015245MN0112005N1+01225+01065099715ADDAA101000895GD13995+0152459GD24995+0198159GF108991999999999999999999GP10060000002000000002000000002000GR100600000900009MA1099735999999MW1615REMMET086KPDX 280655Z 12009KT 7SM -RA BKN050 OVC065 12/11 A2945 RMK AO2 SLP971 P0003 T01220106;EQDQ01+000003PRSWM1Q02    003PRSWM1N01 00020JPWTH 0QNNAA1D0 04050BA1 0 04050AA1D0 06065BA1 0 06065GA1 0 00050KA1D0 00051JA1 0 00106LA1 0 00700CA1 0 02945NA1 0 00020QA1 0 09971SA1D0 00054RA1 0 00122YA1 0 12009
0176726980242292000103107334+45590-122600FM-16+0012KPDX V0203601N001510009019N0064371N1+00701+00701999999ADDGD14991+0009019GF108991999999999999999999MA1102371999999MW1101REMMET067KPDX 310733Z 36003KT 4SM BR OVC003 07/07 A3023 RMK AO2 VIS E 1 1/2;EQDQ01+000003PRSWM1Q02    003PRSWM1
0376726980242292000110214003+45600-122617FM-15+0006PDX  V0209999C00005008235MN0160005N1+01065+00895102215ADDAA101000095GD14995+0082359GF108991999999999999999999GP10060000002000000002000000002000GR100600000900009MA1102245999999MW1001REMMET070KPDX 021355Z 00000KT 10SM OVC027 11/09 A3019 RMK AO2 SLP221 T01060089;EQDQ01+000000PRSWM2N01 00000JPWTH 0QNNAA1D0 06027BA1 0 06027GA1 0 00027KA1D0 00048JA1 0 00089LA1 0 01000CA1 0 03019NA1 0 00000QA1 0 10221SA1D0 00051RA1 0 00106YA1 0 00000
0190726980242292000110307124+45590-122600FM-16+0012KPDX V0202601N001510111019N0160931N1+01101+01101999999ADDGD12991+0021019GD22991+0060019GD34991+0111019GF108991999999999999999999MA1102571999999MW1001REMMET067KPDX 030712Z 26003KT 10SM FEW007 SCT020 OVC037 11/11 A3029 RMK AO2;EQDQ01+000000PRSWM2
0357726980242292000110405003+45600-122617FM-15+0006PDX  V0209999C00005220005MN0144005N1+01065+00835101845ADDAA101000095GF100991999999999999999999GP10060000002000000002000000002000GR100600000900009MA1101865999999MW1001REMMET066KPDX 040455Z 00000KT 9SM CLR 11/08 A3008 RMK AO2 SLP184 T01060083;EQDQ01+000000PRSWM2N01 00000JPWTH 0QNNAA1D0 00000BA1 0 00000GA1U0 99999KA1D0 00047JA1 0 00083LA1 0 00900CA1 0 03008NA1 0 00000QA1 0 10184SA1D0 00051RA1 0 00106YA1 0 00000
0071726980242292000110415009+45600-122617NSRDB+000699999V020999999999999999999999999999+99999+99999999999ADDGP10060000002008000002015000002008GQ100600898911229GR100600000900819
0375726980242292000112011003+45600-122617FM-15+0006PDX  V0203205N00155022865MN0112005N1+00175+00005102605ADDAA101000095GD13995+0228659GF107991999999999999999999GP10060000002000000002000000002000GR100600000900009MA1102615999999MW1001REMMET069KPDX 201055Z 32003KT 7SM BKN075 02/00 A3030 RMK AO2 SLP260 T00170000;EQDQ01+000000PRSWM2N01 00000JPWTH 0QNNAA1D0 04075BA1 0 04075GA1 0 00075KA1D0 00032JA1 0 00000LA1 0 00700CA1 0 03030NA1 0 00000QA1 0 10260SA1D0 00035RA1 0 00017YA1 0 32003
0244726980242292000112017554+45590-122600FM-15+0012KPDX V02099999999990750019N0160931N1+00701-00201102371ADDGD12991+0300019GD23991+0750019GF107991999999999999999999KA1999M+00671KA2999N+00061MA1102371999999MD1610091+9999MW1001REMMET096KPDX 201755Z VRB03KT 10SM FEW100 BKN250 07/M02 A3023 RMK AO2 SLP237 T00671017 10067 20006 56009;EQDQ01+000000PRSWM2
0377726980242292000112110003+45600-122617FM-15+0006PDX  V0201105N00775220005MN0160005N1+00505-00285102005ADDAA101000095GD11995+0762059GF102991999999999999999999GP10060000002000000002000000002000GR100600000900009MA1102035999999MW1001REMMET071KPDX 210955Z 11015KT 10SM FEW250 05/M03 A3013 RMK AO2 SLP200 T00501028;EQDQ01+000000PRSWM2N01 00000JPWTH 0QNNAA1D0 02250BA1 0 01250GA1U0 99999KA1D0 00027JA1 0-00028LA1 0 01000CA1 0 03013NA1 0 00000QA1 0 10200SA1D0 00041RA1 0 00050YA1 0 11015
0377726980242292000112307003+45600-122617FM-15+0006PDX  V0201205N00265220005MN0160005N1+00225-00115102385ADDAA101000095GD12995+0609659GF104991999999999999999999GP10060000002000000002000000002000GR100600000900009MA1102405999999MW1001REMMET071KPDX 230655Z 12005KT 10SM SCT200 02/M01 A3024 RMK AO2 SLP238 T00221011;EQDQ01+000000PRSWM2N01 00000JPWTH 0QNNAA1D0 02200BA1 0 02200GA1U0 99999KA1D0 00030JA1 0-00011LA1 0 01000CA1 0 03024NA1 0 00000QA1 0 10238SA1D0 00036RA1 0 00022YA1 0 12005
003972698024229200011240759O+45600-122617SOD  +0006PDX  V020999999999999999999999999999+99999+99999999999ADDAT1MW16RA  1AT2MW01FG  5AT3MW13BR  1
0190726980242292000112420014+45590-122600FM-16+0012KPDX V0201001N002110150019N0160931N1+00801+00601999999ADDGD12991+0030019GD22991+0048019GD33991+0150019GF107991999999999999999999MA1103121999999MW1001REMMET067KPDX 242001Z 10004KT 10SM FEW010 SCT016 BKN050 08/06 A3045 RMK AO2;EQDQ01+000000PRSWM2
0383726980242292000112513003+45600-122617FM-15+0006PDX  V0201305N00725030485MN0160005N1+00395+00065102245ADDAA101000095GD13995+0304859GF107991999999999999999999GP10060000002000000002000000002000GR100600000900009MA1102245999999MW1001REMMET077KPDX 251255Z 13014KT 10SM BKN100 04/01 A3019 RMK AO2 PRESFR SLP224 T00390006;EQDQ01+000000PRSWM2N01 00000JPWTH 0QNNAA1D0 04100BA1 0 04100GA1 0 00100KA1D0 00033JA1 0 00006LA1 0 01000CA1 0 03019NA1 0 00000QA1 0 10224SA1D0 00039RA1 0 00039YA1 0 13014
0482726980242292000112806003+45600-122617SY-MT+0006PDX  V0209999C00005220005MN0040005N1+00225+00225102595ADDAA101000095GA1001+999999999GD10995+9999999GF100991001001999999001001GP10060000002000000002000000002000GR100600000900009KA1240M+00941KA2240N+00221MA1102615102521MD1510021+9999MW1101MW2455REMSYN098AAXX  28064 72698 31940 00000 10022 20022 30252 40259 55002 710// 90555 333 10094 20022 555 92806;EQDQ01  00002PRCP99Q02  00003PRCP99N01 00070JPWTH 0QNNAA1D0 00000BA1 0 00000GA1U0 99999KA1D0 00036JA1 0 00022LA1 0 00250CA1 0 03030NA1 0 00070QA1 0 10259SA1D0 00036RA1 0 00022YA1 0 00000
0467726980242292000112901003+45600-122617FM-15+0006PDX  V0201105N00935030485MN0160005N1+00835-00065101255ADDAA101000095GD13995+0304859GD24995+0762059GF108991999999999999999999GP10060000002008000002015000002008GQ100600882923669GR100600021906449MA1101255999999MW1001OC101491REMMET099KPDX 290055Z 11018G29KT 10SM BKN100 OVC250 08/M01 A2990 RMK AO2 PK WND 11029/0047 SLP125 T00831006;EQDQ01+000000PRSWM2N01 00000JPWTH 0QNNAA1D0 04100BA1 0 04100AA1D0 06250BA1 0 06250GA1 0 00100KA1D0 00031JA1 0-00006LA1 0 01000CA1 0 02990NA1 0 00000QA1 0 10125SA1D0 00047RA1 0 00083YA1 0 11018
0489726980242292000120416003+45600-122617FM-15+0006PDX  V0209999C00005076205MN0160005N1+00225+00115102825ADDAA101000095GD11995+0274359GD22995+0457259GD33995+0762059GF107991999999999999999999GP10060000002008000002015000002008GQ100600885912449GR100600015905529MA1102845999999MW1001REMMET092KPDX 041555Z 00000KT 10SM FEW090 SCT150 BKN250 02/01 A3037 RMK AO2 SLP282 VIRGA W T00220011;EQDQ01+000000PRSWM2N01 00000JPWTH 0QNNAA1D0 02090BA1 0 01090AA1D0 02150BA1 0 02150AA1D0 04250BA1 0 04250GA1 0 00250KA1D0 00034JA1 0 00011LA1 0 01000CA1 0 03037NA1 0 00000QA1 0 10282SA1D0 00036RA1 0 00022YA1 0 00000
0464726980242292000120606003+45600-122617SY-MT+0006PDX  V0209999C00005220005MN0160005N1+00395+00065102715ADDAA101000095GA1001+999999999GD10995+9999999GF100991001001999999001001GP10060000002000000002000000002000GR100600000900009KA1240M+00721KA2240N-00051MA1102715102621MD1610041+9999REMSYN092AAXX  06064 72698 32966 00000 10039 20006 30262 40271 56004 90555 333 10072 21005 555 90606;EQDQ01  00002PRCP99Q02  00003PRCP99N01 00000JPWTH 0QNNAA1D0 00000BA1 0 00000GA1U0 99999KA1D0 00033JA1 0 00006LA1 0 01000CA1 0 03033NA1 0 00000QA1 0 10271SA1D0 00039RA1 0 00039YA1 0 00000
0413726980242292000120621003+45600-122617FM-15+0006PDX  V0201405N00725220005MN0160005N1+00725+00005102355ADDAA101000095GD11995+0762059GF102991999999999999999999GP10060034402008068302015009302008GQ100600686918709GR100600515914099MA1102375999999MD1810221+9999MW1001REMMET076KPDX 062055Z 14014KT 10SM FEW250 07/00 A3023 RMK AO2 SLP235 T00720000 58022;EQDQ01+000000PRSWM2N01 00000JPWTH 0QNNAA1D0 02250BA1 0 01250GA1U0 99999KA1D0 00032JA1 0 00000LA1 0 01000CA1 0 03023NA1 0 00000QA1 0 10235SA1D0 00045RA1 0 00072YA1 0 14014
0359726980242292000120707003+45600-122617FM-15+0006PDX  V0209999C00005220005MN0160005N1+00115-00065102275ADDAA101000095GF100991999999999999999999GP10060000002000000002000000002000GR100600000900009MA1102275999999MW1001REMMET068KPDX 070655Z 00000KT 10SM CLR 01/M01 A3020 RMK AO2 SLP227 T00111006;EQDQ01+000000PRSWM2N01 00000JPWTH 0QNNAA1D0 00000BA1 0 00000GA1U0 99999KA1D0 00031JA1 0-00006LA1 0 01000CA1 0 03020NA1 0 00000QA1 0 10227SA1D0 00034RA1 0 00011YA1 0 00000
0359726980242292000120814003+45600-122617FM-15+0006PDX  V0209999C00005220005MN0160005N1+00175-00175101825ADDAA101000095GF100991999999999999999999GP10060000002000000002000000002000GR100600000900009MA1101835999999MW1001REMMET068KPDX 081355Z 00000KT 10SM CLR 02/M02 A3007 RMK AO2 SLP182 T00171017;EQDQ01+000000PRSWM2N01 00000JPWTH 0QNNAA1D0 00000BA1 0 00000GA1U0 99999KA1D0 00029JA1 0-00017LA1 0 01000CA1 0 03007NA1 0 00000QA1 0 10182SA1D0 00035RA1 0 00017YA1 0 00000
0218726980242292000120920334+45590-122600FM-16+0012KPDX V0209999C000010078019N0048281N1+00601+00401999999ADDGD12991+0027019GD24991+0078019GF108991999999999999999999MA1101931999999MW1101MW2611REMMET088KPDX 092033Z 00000KT 3SM -RA BR FEW009 OVC026 06/04 A3010 RMK AO2 SFC VIS 3 RAB00 P0002;EQDQ01+000003PRSWM1Q02    003PRSWM1
0456726980242292000121201003+45600-122617FM-15+0006PDX  V0200905N01185015245MN0160005N1+00225-00835101525ADDAA101000095GD13995+0152459GD24995+0228659GF108991999999999999999999GP10060000002008000002015000002008GQ100600884923449GR100600016905769MA1101525999999MW1001REMMET096KPDX 120055Z 09023KT 10SM BKN050 OVC075 02/M08 A2998 RMK AO2 PK WND 09035/0033 SLP152 T00221083;EQDQ01+000000PRSWM2N01 00000JPWTH 0QNNAA1D0 04050BA1 0 04050AA1D0 06075BA1 0 06075GA1 0 00050KA1D0 00017JA1 0-00083LA1 0 01000CA1 0 02998NA1 0 00000QA1 0 10152SA1D0 00036RA1 0 00022YA1 0 09023
0410726980242292000121913003+45600-122617FM-15+0006PDX  V0209999C00005016765MN0160005N1+00335+00225102545ADDAA101001095GD14995+0167659GF108991999999999999999999GP10060000002000000002000000002000GR100600000900009MA1102545999999MW1615REMMET088KPDX 191255Z 00000KT 10SM -RA OVC055 03/02 A3028 RMK AO2 RAB1156 SLP254 P0004 T00330022;EQDQ01+000003PRSWM1Q02    003PRSWM1N01 00020JPWTH 0QNNAA1D0 06055BA1 0 06055GA1 0 00055KA1D0 00036JA1 0 00022LA1 0 01000CA1 0 03028NA1 0 00020QA1 0 10254SA1D0 00038RA1 0 00033YA1 0 00000
0376726980242292000122514003+45600-122617FM-15+0006PDX  V0209999C00005036585MN0160005N1+00285+00225103015ADDAA101000095GD13995+0365859GF107991999999999999999999GP10060000002000000002000000002000GR100600000900009MA1103015999999MW1001REMMET070KPDX 251355Z 00000KT 10SM BKN120 03/02 A3042 RMK AO2 SLP301 T00280022;EQDQ01+000000PRSWM2N01 00000JPWTH 0QNNAA1D0 04120BA1 0 04120GA1 0 00120KA1D0 00036JA1 0 00022LA1 0 01000CA1 0 03042NA1 0 00000QA1 0 10301SA1D0 00037RA1 0 00028YA1 0 00000
0426726980242292000123017003+45600-122617FM-15+0006PDX  V0200605N00155004575MN0128005N1+00445+00335102385ADDAA101000025GD14995+0045759GF108991999999999999999999GP10060002302008001202015002202008GQ100600852913039GR100600118914159MA1102405999999MW1515REMMET087KPDX 301655Z 06003KT 8SM -DZ OVC015 04/03 A3024 RMK AO2 DZB48 SLP238 P0000 T00440033 $;EQDQ01+000003PRSWM1Q02    003PRSWM1N01 00033JPWTH 0QNNAA1D0 06015BA1 0 06015GA1 0 00015KA1D0 00038JA1 0 00033LA1 0 00800CA1 0 03024NA1 0 00033QA1 0 10238SA1D0 00040RA1 0 00044YA1 0 06003
0190726985999992000010303434+45550-122400FM-16+0011KTTD V0202201N003610108019N0160931N1+00601+00301999999ADDGD12991+0063019GD23991+0108019GD34991+0132019GF108991999999999999999999MA1102541999999MW1001REMMET067KTTD 030343Z 22007KT 10SM FEW021 BKN036 OVC044 06/03 A3028 RMK AO2;EQDQ01+000000PRSWM2
0324726985999992000010917063+45550-122400FM-16+0011KTTD V0202201N010310081019N0048281N1+00801+00601999999ADDGD12991+0066019GD23991+0081019GD34991+0102019GF108991999999999999999999GP10060002202008000002015002202008GQ100600848912919GR100600127914159MA1101081999999MW1101OC101491REMMET109KTTD 091706Z 22020G29KT 3SM BR FEW022 BKN027 OVC034 08/06 A2985 RMK AO2 PK WND 21029/1655 RAE06 PRESRR P0000;EQDQ01+000003PRSWM1Q02    003PRSWM1
0225726985999992000011116534+45550-122400FM-15+0011KTTD V0201801N003110045019N0064371N1+00301+00201100361ADDAA101002091GD14991+0045019GF108991999999999999999999MA1100371999999MW1611REMMET105KTTD 111653Z 18006KT 4SM -RA OVC015 03/02 A2964 RMK AO2 SNE01 SLP036 VIS AND CIG LWR N-E P0008 T00330022;EQDQ01+000003PRSWM1Q02    003PRSWM1
0054726985999992000011214009+45550-122400NSRDB+001199999V020999999999999999999999999999+99999+99999999999ADDGP10060000002000000002000000002000GR100600000900009
0054726985999992000011506009+45550-122400NSRDB+001199999V020999999999999999999999999999+99999+99999999999ADDGP10060000002000000002000000002000GR100600000900009
0180726985999992000011515534+45550-122400FM-15+0011KTTD V0200901N005710540019N0160931N1+00201+00001102041ADDGD13991+0540019GF107991999999999999999999MA1102031999999MW1001REMMET087KTTD 151553Z 09011KT 10SM BKN180 02/00 A3013 RMK AO2 SLP204 MIFG E OVR RIVER T00170000;EQDQ01+000000PRSWM2
0319726985999992000012023534+45550-122400FM-15+0011KTTD V0200901N011810240019N0160931N1+00301+00001101551ADDAA101000391AA206000391GD12991+0180019GD23991+0240019GF107991999999999999999999KA1999M+00501KA2999N+00281MA1101561999999MD1310051+9999MW1001OC101541REMMET141KTTD 202353Z 09023G30KT 10SM SCT065 BKN080 03/00 A2999 RMK AO2 PK WND 08030/2350 RAE28 PRESFR SLP155 P0001 60001 T00330000 10050 20028 53005;EQDQ01+000000PRSWM2
0256726985999992000012102534+45550-122400FM-15+0011KTTD V0200801N012910147019N0160931N1+00301-00101101431ADDAA101000021AA203000391GD14991+0147019GF108991999999999999999999MA1101461999999MD1810101+9999MW1001OC101701REMMET119KTTD 210253Z 08025G33KT 10SM OVC049 03/M01 A2996 RMK AO2 PK WND 08033/0253 RAB09E29 SLP143 P0000 60001 T00281006 58010;EQDQ01+000000PRSWM2
0054726985999992000012314009+45550-122400NSRDB+001199999V020999999999999999999999999999+99999+99999999999ADDGP10060000002000000002000000002000GR100600000900009
0164726985999992000012315534+45550-122400FM-15+0011KTTD V0200801N008210600019N0160931N1+00301-00301101851ADDGD13991+0600019GF107991999999999999999999MA1101861999999MW1001REMMET071KTTD 231553Z 08016KT 10SM BKN200 03/M03 A3008 RMK AO2 SLP185 T00281028;EQDQ01+000000PRSWM2
0298726985999992000012513534+45550-122400FM-15+0011KTTD V0200801N009810090019N0080461N1+00301+00201101271ADDAA101001891GD13991+0090019GD23991+0129019GD34991+0150019GF108991999999999999999999MA1101291999999MW1101MW2631OC101181REMMET134KTTD 251353Z AUTO 08019G23KT 5SM RA BR BKN030 BKN043 OVC050 03/02 A2991 RMK AO2 PK WND 09031/1254 RAB1257 SLP127 P0007 T00330017 TSNO;EQDQ01+000003PRSWM1Q02    003PRSWM1
0054726985999992000012609009+45550-122400NSRDB+001199999V020999999999999999999999999999+99999+99999999999ADDGP10060000002000000002000000002000GR100600000900009
0071726985999992000012721009+45550-122400NSRDB+001199999V020999999999999999999999999999+99999+99999999999ADDGP10060043702008080902015008302008GQ100600641918209GR100600616914119
0146726985999992000012803534+45550-122400FM-15+0011KTTD V0200801N006712200019N0160931N1+00601-00101103031ADDGF100991999999999999999999MA1103051999999MW1001REMMET068KTTD 280353Z 08013KT 10SM CLR 06/M01 A3043 RMK AO2 SLP303 T00561011;EQDQ01+000000PRSWM2
0054726985999992000012806009+45550-122400NSRDB+001199999V020999999999999999999999999999+99999+99999999999ADDGP10060000002000000002000000002000GR100600000900009
0164726985999992000012900534+45550-122400FM-15+0011KTTD V0200901N012912200019N0160931N1+00401-00201102241ADDGF100991999999999999999999MA1102241999999MW1001REMMET086KTTD 290053Z 09025KT 10SM CLR 04/M02 A3019 RMK AO2 PK WND 09036/0004 SLP224 T00391022;EQDQ01+000000PRSWM2
0054726985999992000013109009+45550-122400NSRDB+001199999V020999999999999999999999999999+99999+99999999999ADDGP10060000002000000002000000002000GR100600000900009
0207726985999992000020218534+45550-122400FM-15+0011KTTD V0209999C000010072019N0160931N1+00701+00601102811ADDGD12991+0009019GD23991+0072019GD34991+0450019GF108991999999999999999999MA1102811999999MW1001REMMET084KTTD 021853Z 00000KT 10SM SCT003 BKN024 OVC150 07/06 A3036 RMK AO2 SLP281 T00720056;EQDQ01+000000PRSWM2
0194726985999992000020320534+45550-122400FM-15+0011KTTD V0200901N010812200019N0160931N1+01201+00101101711ADDGF100991999999999999999999MA1101731999999MD1810191+9999MW1001OC101491REMMET094KTTD 032053Z 09021G29KT 10SM CLR 12/01 A3004 RMK AO2 PK WND 10031/2012 SLP171 T01170011 58019;EQDQ01+000000PRSWM2
0311726985999992000020517534+45550-122400FM-15+0011KTTD V0200901N010310600019N0160931N1+00601+00101101441ADDAA106000391GD12991+0030019GD22991+0300019GD33991+0600019GF107991999999999999999999KA1999M+00671KA2999N+00501MA1101461999999MD1310021+9999MW1001OC101441REMMET129KTTD 051753Z 09020G28KT 10SM FEW010 SCT100 BKN200 06/01 A2996 RMK AO2 PK WND 10028/1751 SLP144 60001 T00610006 10067 20050 53002;EQDQ01+000000PRSWM2
0173726985999992000020716534+45550-122400FM-15+0011KTTD V0200901N009312200019N0128741N1+00801+00301102361ADDGF100991999999999999999999MA1102371999999MW1001OC101231REMMET087KTTD 071653Z 09018G24KT 8SM CLR 08/03 A3023 RMK AO2 PK WND 09029/1557 SLP236 T00780033;EQDQ01+000000PRSWM2
0174726985999992000020722534+45550-122400FM-15+0011KTTD V0200801N009310600019N0160931N1+00901+00301102251ADDGD14991+0600019GF108991999999999999999999MA1102271999999MW1001OC101131REMMET073KTTD 072253Z 08018G22KT 10SM OVC200 09/03 A3020 RMK AO2 SLP225 T00890033;EQDQ01+000000PRSWM2
0054726985999992000021004009+45550-122400NSRDB+001199999V020999999999999999999999999999+99999+99999999999ADDGP10060000002000000002000000002000GR100600000900009
0071726985999992000021119009+45550-122400NSRDB+001199999V020999999999999999999999999999+99999+99999999999ADDGP10060021502008006402015018702008GQ100600650914949GR100600593914049
0163726985999992000021121534+45550-122400FM-15+0011KTTD V0200701N004110150019N0160931N1+00801+00401100901ADDGD14991+0150019GF108991999999999999999999MA1100911999999MW1001REMMET070KTTD 112153Z 07008KT 10SM OVC050 08/04 A2980 RMK AO2 SLP090 T00780039;EQDQ01+000000PRSWM2
0322726985999992000021411534+45550-122400FM-15+0011KTTD V0200901N009310147019N0160931N1+00401+00201099481ADDAA101000391AA206001891AA324006691GD12991+0114019GD24991+0147019GF108991999999999999999999KA1999M+00441KA2999N+00391MA1099491999999MD1610321+9999MW1001REMMET141KTTD 141153Z AUTO 09018KT 10SM FEW038 OVC049 04/02 A2938 RMK AO2 PK WND 09027/1131 SLP948 P0001 60007 70026 T00390022 10044 20039 56032 TSNO;EQDQ01+000000PRSWM2
0071726985999992000021718009+45550-122400NSRDB+001199999V020999999999999999999999999999+99999+99999999999ADDGP10060030702008065802015007702008GQ100600696913439GR100600487914019
0071726985999992000021901009+45550-122400NSRDB+001199999V020999999999999999999999999999+99999+99999999999ADDGP10060016702008035902015010102008GQ100600794924129GR100600257914009
0175726985999992000021908534+45550-122400FM-15+0011KTTD V0200801N008212200019N0160931N1+00501+00001102321ADDGF100991999999999999999999MA1102341999999MD1610091+9999MW1001REMMET083KTTD 190853Z AUTO 08016KT 10SM CLR 05/00 A3022 RMK AO2 SLP232 T00500000 56009 TSNO;EQDQ01+000000PRSWM2
0251726985999992000022011534+45550-122400FM-15+0011KTTD V0200801N008712200019N0160931N1+00601-00101101031ADDGF100991999999999999999999KA1999M+00671KA2999N+00501MA1101051999999MD1810151+9999MW1001OC101231REMMET125KTTD 201153Z AUTO 08017G24KT 10SM CLR 06/M01 A2984 RMK AO2 PK WND 09027/1116 SLP103 7//// T00561011 10067 20050 58015 TSNO $;EQDQ01+000000PRSWM2
0071726985999992000022019009+45550-122400NSRDB+001199999V020999999999999999999999999999+99999+99999999999ADDGP10060033102008022902015022402008GQ100600621914829GR100600655913999
0071726985999992000022221009+45550-122400NSRDB+001199999V020999999999999999999999999999+99999+99999999999ADDGP10060012802008000002015012802008GQ100600559918209GR100600784913989
0071726985999992000022501009+45550-122400NSRDB+001199999V020999999999999999999999999999+99999+99999999999ADDGP10060010402008001602015010002008GQ100600779924279GR100600293913969
0256726985999992000022520534+45550-122400FM-15+0011KTTD V0200801N008210075019N0064371N1+00401+00201101551ADDAA101000591AA203002591GD14991+0075019GF108991999999999999999999MA1101561999999MD1810051+9999MW1101MW2611OC101031REMMET097KTTD 252053Z 08016G20KT 4SM -RA BR OVC025 04/02 A2999 RMK AO2 SLP155 P0002 60010 T00390022 58005;EQDQ01+000003PRSWM1Q02    003PRSWM1
0221726985999992000022910534+45550-122400FM-15+0011KTTD V0200801N007710129019N0160931N1+00701+00501100831ADDAA101000891GD14991+0129019GF108991999999999999999999MA1100851999999MW1611OC101081REMMET093KTTD 291053Z AUTO 08015G21KT 10SM -RA OVC043 07/05 A2978 RMK AO2 SLP083 P0003 T00670050 TSNO;EQDQ01+000003PRSWM1Q02    003PRSWM1
0054726985999992000030103009+45550-122400NSRDB+001199999V020999999999999999999999999999+99999+99999999999ADDGP10060000002000000002000000002000GR100600000900009
0222726985999992000030321003+45550-122400FM-15+0011KTTD V0209999C000010030019N0160931N1+99999+99999999999ADDGD13991+0030019GD24991+0210019GF108991999999999999999999GP10060011602008000002015011602008GQ100600522918279GR100600853913919MA1102131999999MW1001REMMET046KTTD 031959Z 00000KT 10SM BKN010 OVC070 A3016;EQDQ01+000000PRSWM2
0132726985999992000030622514+45550-122400FM-16+0011KTTD V0209999C000010150019N0160931N1+99999+99999999999ADDGD13991+0150019GF107991999999999999999999MA1100981999999MW1001REMMET039KTTD 062151Z 00000KT 10SM BKN050 A2982;EQDQ01+000000PRSWM2
0071726985999992000030820009+45550-122400NSRDB+001199999V020999999999999999999999999999+99999+99999999999ADDGP10060030902008004202015028302008GQ100600514916399GR100600865913879
0205726985999992000031202534+45550-122400FM-15+0011KTTD V0200901N002112200019N0160931N1+00601+00401103001ADDAA101000021AA203000391GF100991999999999999999999MA1103011999999MD1810031+9999MW1001REMMET091KTTD 120253Z 09004KT 10SM CLR 06/04 A3042 RMK AO2 RAE20 SLP300 P0000 60001 T00560044 58003;EQDQ01+000000PRSWM2
0054726985999992000031210009+45550-122400NSRDB+001199999V020999999999999999999999999999+99999+99999999999ADDGP10060000002000000002000000002000GR100600000900009
0214726985999992000031216003+45550-122400FM-15+0011KTTD V0200901N004610027019N0160931N1+00401+00201999999ADDGD14991+0027019GF108991999999999999999999GP10060007602008008802015006102008GQ100600799910509GR100600243913849MA1102741999999MW1001REMMET053KTTD 121600Z 09009KT 10SM OVC009 04/02 A3034 RMK AO2;EQDQ01+000000PRSWM2
0163726985999992000031701534+45550-122400FM-15+0011KTTD V0209999C000012200019N0160931N1+00901+00201102571ADDGD12991+0180019GF102991999999999999999999MA1102571999999MW1001REMMET070KTTD 170153Z 00000KT 10SM FEW060 09/02 A3029 RMK AO2 SLP257 T00890022;EQDQ01+000000PRSWM2
0071726985999992000031822009+45550-122400NSRDB+001199999V020999999999999999999999999999+99999+99999999999ADDGP10060010902008000002015010902008GQ100600489920439GR100600906913799
0054726985999992000032007009+45550-122400NSRDB+001199999V020999999999999999999999999999+99999+99999999999ADDGP10060000002000000002000000002000GR100600000900009
0054726985999992000032012009+45550-122400NSRDB+001199999V020999999999999999999999999999+99999+99999999999ADDGP10060000002000000002000000002000GR100600000900009
0071726985999992000032117009+45550-122400NSRDB+001199999V020999999999999999999999999999+99999+99999999999ADDGP10060020502008009602015016802008GQ100600669911499GR100600539913779
0071726985999992000032217009+45550-122400NSRDB+001199999V020999999999999999999999999999+99999+99999999999ADDGP10060005702008000002015005702008GQ100600666911469GR100600546913769
0238726985999992000032219094+45550-122400FM-16+0011KTTD V0209999C000010042019N0040231N1+00901+00801999999ADDGD12991+0018019GD23991+0042019GD34991+0078019GF108991999999999999999999MA1101461999999MW1611REMMET083KTTD 221909Z 00000KT 2 1/2SM -RA BR SCT006 BKN014 OVC026 09/08 A2996 RMK AO2 P0003;EQDQ01+000100PRSWM3Q02+000003PRSWM1Q03    003PRSWM1
0296726985999992000032308534+45550-122400FM-15+0011KTTD V0202701N001510087019N0048281N1+00601+00301102271ADDAA101000891AA203000891GD12991+0051019GD23991+0087019GD34991+0108019GF108991999999999999999999MA1102271999999MD1310171+9999MW1611REMMET121KTTD 230853Z AUTO 27003KT 3SM -RA FEW017 BKN029 OVC036 06/03 A3020 RMK AO2 RAB29 SLP227 P0003 60003 T00610028 53017 TSNO;EQDQ01+000003PRSWM1Q02    003PRSWM1
0071726985999992000032714009+45550-122400NSRDB+001199999V020999999999999999999999999999+99999+99999999999ADDGP10060000002000000002000000002000GQ100600900908539GR100600000900119
0185726985999992000032903534+45550-122400FM-15+0011KTTD V0202801N001510114019N0160931N1+00801+00101102081ADDGD13991+0114019GD24991+0147019GF108991999999999999999999MA1102101999999MW1001REMMET077KTTD 290353Z 28003KT 10SM BKN038 OVC049 08/01 A3015 RMK AO2 SLP208 T00830011;EQDQ01+000000PRSWM2
0054726985999992000032913009+45550-122400NSRDB+001199999V020999999999999999999999999999+99999+99999999999ADDGP10060000002000000002000000002000GR100600000900009
0071726985999992000033114009+45550-122400NSRDB+001199999V020999999999999999999999999999+99999+99999999999ADDGP10060000002008000002015000002008GQ100600894908389GR100600002901719
0071726985999992000040216009+45550-122400NSRDB+001199999V020999999999999999999999999999+99999+99999999999ADDGP10060006302008000002015006302008GQ100600728910039GR100600403913679
0173726985999992000040310534+45550-122400FM-15+0011KTTD V0209999C000012200019N0096561N1+00701+00601101871ADDGF100991999999999999999999MA1101861999999MW1101REMMET079KTTD 031053Z AUTO 00000KT 6SM BR CLR 07/06 A3008 RMK AO2 SLP187 T00720061 TSNO;EQDQ01+000003PRSWM1Q02    003PRSWM1
0217726985999992000040410534+45550-122400FM-15+0011KTTD V0202101N004610180019N0160931N1+01101+00801101791ADDGD12991+0069019GD22991+0150019GD33991+0180019GF107991999999999999999999MA1101801999999MW1001REMMET094KTTD 041053Z AUTO 21009KT 10SM FEW023 SCT050 BKN065 11/08 A3006 RMK AO2 SLP179 T01060078 TSNO;EQDQ01+000000PRSWM2
0194726985999992000040419134+45550-122400FM-16+0011KTTD V0203201N002110102019N0160931N1+01001+00901999999ADDGD12991+0039019GD24991+0102019GF108991999999999999999999MA1102101999999MW1611REMMET070KTTD 041913Z 32004KT 10SM -RA SCT013 OVC034 10/09 A3015 RMK AO2 P0001;EQDQ01+000003PRSWM1Q02    003PRSWM1
0185726985999992000040500534+45550-122400FM-15+0011KTTD V0202901N005110144019N0160931N1+01201+00301102281ADDGD12991+0123019GD23991+0144019GF107991999999999999999999MA1102301999999MW1001REMMET077KTTD 050053Z 29010KT 10SM SCT041 BKN048 12/03 A3021 RMK AO2 SLP228 T01170033;EQDQ01+000000PRSWM2
0202726985999992000040701134+45550-122400FM-16+0011KTTD V0209999C000010105019N0160931N1+01101+00801999999ADDGD12991+0048019GD23991+0105019GD34991+0129019GF108991999999999999999999MA1102401999999MW1001REMMET079KTTD 070113Z 00000KT 10SM SCT016 BKN035 OVC043 11/08 A3024 RMK AO2 RAE05 P0000;EQDQ01+000000PRSWM2
0071726985999992000040818009+45550-122400NSRDB+001199999V020999999999999999999999999999+99999+99999999999ADDGP10060058402008062302015019602008GQ100600515912519GR100600847913629
0167726985999992000041015534+45550-122400FM-15+0011KTTD V0200701N001510093019N0128741N1+01101+00701102371ADDGD13991+0093019GF107991999999999999999999MA1102371999999MW1001REMMET074KTTD 101553Z 07003KT 8SM BKN031 11/07 A3023 RMK AO2 SLP237 HAZY T01060072;EQDQ01+000000PRSWM2
0155726985999992000041104534+45550-122400FM-15+0011KTTD V0200901N002612200019N0160931N1+01301+00801101931ADDGF100991999999999999999999MA1101931999999MW1001REMMET077KTTD 110453Z AUTO 09005KT 10SM CLR 13/08 A3010 RMK AO2 SLP193 T01280078 TSNO;EQDQ01+000000PRSWM2
0071726985999992000041203009+45550-122400NSRDB+001199999V020999999999999999999999999999+99999+99999999999ADDGP10060001402008006302015001102008GQ100600860927879GR100600078911229
0233726985999992000042218534+45550-122400FM-15+0011KTTD V0209999C000010150019N0160931N1+01101+00401101861ADDAA101000021GD12991+0102019GD23991+0150019GD34991+0180019GF108991999999999999999999MA1101861999999MW1001REMMET099KTTD 221853Z 00000KT 10SM FEW034 BKN050 OVC065 11/04 A3008 RMK AO2 RAB24E45 SLP186 P0000 T01110044;EQDQ01+000000PRSWM2
0214726985999992000042719534+45550-122400FM-15+0011KTTD V0202601N007210147019N0160931N1+01601+00801101011ADDGD13991+0147019GD23991+0150019GD34991+0270019GF108991999999999999999999MA1101021999999MW1001REMMET091KTTD 271953Z 26014KT 10SM BKN049 BKN055 OVC090 16/08 A2983 RMK AO2 PRESRR SLP101 T01560078;EQDQ01+000000PRSWM2
0054726985999992000042908009+45550-122400NSRDB+001199999V020999999999999999999999999999+99999+99999999999ADDGP10060000002000000002000000002000GR100600000900009
0054726985999992000050209009+45550-122400NSRDB+001199999V020999999999999999999999999999+99999+99999999999ADDGP10060000002000000002000000002000GR100600000900009
0299726985999992000050307534+45550-122400FM-15+0011KTTD V0202101N002110210019N0160931N1+01301+00901101251ADDAA101000391GD12991+0150019GD23991+0210019GD34991+0240019GF108991999999999999999999KA1999M+02061KA2999N+01111MA1101251999999MW1611REMMET123KTTD 030753Z AUTO 21004KT 10SM -RA FEW050 BKN070 OVC085 13/09 A2990 RMK AO2 RAE21B50 SLP125 P0001 T01280094 402060111 TSNO;EQDQ01+000003PRSWM1Q02    003PRSWM1
0071726985999992000050522009+45550-122400NSRDB+001199999V020999999999999999999999999999+99999+99999999999ADDGP10060027902008001802015026402008GQ100600340921769GR100601112913429
0173726985999992000051212534+45550-122400FM-15+0011KTTD V0209999C000012200019N0160931N1+00401+00301102471ADDGD12991+0018019GF104991999999999999999999MA1102471999999MW1001REMMET080KTTD 121253Z AUTO 00000KT 10SM SCT006 04/03 A3026 RMK AO2 SLP247 T00440033 TSNO;EQDQ01+000000PRSWM2
0071726985999992000051218009+45550-122400NSRDB+001199999V020999999999999999999999999999+99999+99999999999ADDGP10060063702008050302015026402008GQ100600422911749GR100600990913389
0191726985999992000051407534+45550-122400FM-15+0011KTTD V0201201N001512200019N0160931N1+01201+01001101231ADDGF100991999999999999999999KA1999M+02001KA2999N+01061MA1101251999999MW1001REMMET087KTTD 140753Z AUTO 12003KT 10SM CLR 12/10 A2990 RMK AO2 SLP123 T01170100 402000106 TSNO;EQDQ01+000000PRSWM2
0163726985999992000051719534+45550-122400FM-15+0011KTTD V0202401N002610093019N0160931N1+01401+00701102591ADDGD14991+0093019GF108991999999999999999999MA1102611999999MW1001REMMET070KTTD 171953Z 24005KT 10SM OVC031 14/07 A3030 RMK AO2 SLP259 T01440072;EQDQ01+000000PRSWM2
0209726985999992000052007534+45550-122400FM-15+0011KTTD V0202601N002612200019N0160931N1+01301+01101102371ADDGD12991+0102019GF104991999999999999999999KA1999M+02171KA2999N+01281MA1102371999999MW1001REMMET090KTTD 200753Z AUTO 26005KT 10SM SCT034 13/11 A3023 RMK AO2 SLP237 T01280106 402170128 TSNO;EQDQ01+000000PRSWM2
0187726985999992000052201534+45550-122400FM-15+0011KTTD V0202601N003110270019N0160931N1+02101+01101101841ADDGD13991+0270019GD24991+0600019GF108991999999999999999999MA1101861999999MW1001REMMET079KTTD 220153Z 26006KT 10SM BKN095 OVC200 21/11 A3008 RMK AO2 SLP184 T02060106 $;EQDQ01+000000PRSWM2
0071726985999992000052219009+45550-122400NSRDB+001199999V020999999999999999999999999999+99999+99999999999ADDGP10060076602008053602015031002008GQ100600320913409GR100601130913329
0163726985999992000052522534+45550-122400FM-15+0011KTTD V02099999999990210019N0160931N1+01701+00301101291ADDGD14991+0210019GF108991999999999999999999MA1101291999999MW1001REMMET070KTTD 252253Z VRB03KT 10SM OVC075 17/03 A2991 RMK AO2 SLP129 T01670028;EQDQ01+000000PRSWM2
0054726985999992000052812009+45550-122400NSRDB+001199999V020999999999999999999999999999+99999+99999999999ADDGP10060000002000000002000000002000GR100600000900009
0221726985999992000052906534+45550-122400FM-15+0011KTTD V0202501N002110210019N0160931N1+01101+00901102051ADDAA101000021GD12991+0138019GD24991+0210019GF108991999999999999999999MA1102071999999MW1001REMMET102KTTD 290653Z AUTO 25004KT 10SM SCT046 OVC075 11/09 A3014 RMK AO2 RAB23E51 SLP205 P0000 T01110094 TSNO;EQDQ01+000000PRSWM2
0071726985999992000053100009+45550-122400NSRDB+001199999V020999999999999999999999999999+99999+99999999999ADDGP10060020602008000602015020202008GQ100600473925759GR100600900913299
0185726985999992000053121534+45550-122400FM-15+0011KTTD V0200801N003610114019N0160931N1+01301+00801102661ADDGD12991+0081019GD24991+0114019GF108991999999999999999999MA1102681999999MW1001REMMET077KTTD 312153Z 08007KT 10SM FEW027 OVC038 13/08 A3032 RMK AO2 SLP266 T01330083;EQDQ01+000000PRSWM2
0071726985999992000060500009+45550-122400NSRDB+001199999V020999999999999999999999999999+99999+99999999999ADDGP10060060202008051102015025202008GQ100600467925799GR100600908913279
0054726985999992000060711009+45550-122400NSRDB+001199999V020999999999999999999999999999+99999+99999999999ADDGP10060000002000000002000000002000GR100600000900009
0211726985999992000060915534+45550-122400FM-15+0011KTTD V02099999999990180019N0160931N1+01301+01001101261ADDGD12991+0060019GD23991+0180019GD34991+0360019GF108991999999999999999999MA1101251999999MW1001REMMET088KTTD 091553Z VRB03KT 10SM FEW020 BKN060 OVC120 13/10 A2990 RMK AO2 SLP126 T01330100 PNO;EQDQ01+000000PRSWM2
0195726985999992000061012534+45550-122400FM-15+0011KTTD V0201601N002610141019N0160931N1+01001+00601101661ADDGD13991+0141019GD24991+0150019GF108991999999999999999999MA1101661999999MW1001REMMET087KTTD 101253Z AUTO 16005KT 10SM BKN047 OVC055 10/06 A3002 RMK AO2 SLP166 T01000061 TSNO;EQDQ01+000000PRSWM2
0247726985999992000061208534+45550-122400FM-15+0011KTTD V0209999V002110087019N0160931N1+01301+01201100951ADDAA101000591AA203001391GD14991+0087019GF108991999999999999999999MA1100951999999MD1610231+9999MW1611REMMET102KTTD 120853Z AUTO VRB04KT 10SM -RA OVC029 13/12 A2981 RMK AO2 SLP095 P0002 60005 T01330122 56023 TSNO;EQDQ01+000003PRSWM1Q02    003PRSWM1
0071726985999992000061314009+45550-122400NSRDB+001199999V020999999999999999999999999999+99999+99999999999ADDGP10060010202008029802015005102008GQ100600800906679GR100600229913249
0071726985999992000061422009+45550-122400NSRDB+001199999V020999999999999999999999999999+99999+99999999999ADDGP10060020702008001802015019102008GQ100600277922249GR100601172913249
0071726985999992000061502009+45550-122400NSRDB+001199999V020999999999999999999999999999+99999+99999999999ADDGP10060034202008046102015016002008GQ100600667928029GR100600522913249
0054726985999992000061606009+45550-122400NSRDB+001199999V020999999999999999999999999999+99999+99999999999ADDGP10060000002000000002000000002000GR100600000900009
0071726985999992000062002009+45550-122400NSRDB+001199999V020999999999999999999999999999+99999+99999999999ADDGP10060034802008053202015013602008GQ100600665928019GR100600528913239
0175726985999992000062008534+45550-122390FM-15+0011KTTD V0202901N002612200019N0160931N1+01301+00801102401ADDGF100991999999999999999999MA1102401999999MD1210041+9999MW1001REMMET083KTTD 200853Z AUTO 29005KT 10SM CLR 13/08 A3024 RMK AO2 SLP240 T01280083 52004 TSNO;EQDQ01+000000PRSWM2
0071726985999992000062301009+45550-122400NSRDB+001199999V020999999999999999999999999999+99999+99999999999ADDGP10060039302008023202015026302008GQ100600559926979GR100600740913229
0155726985999992000062810534+45550-122390FM-15+0011KTTD V0200901N002612200019N0160931N1+01601+01201101361ADDGF100991999999999999999999MA1101351999999MW1001REMMET077KTTD 281053Z AUTO 09005KT 10SM CLR 16/12 A2993 RMK AO2 SLP136 T01560117 TSNO;EQDQ01+000000PRSWM2
0071726985999992000070201009+45550-122400NSRDB+001199999V020999999999999999999999999999+99999+99999999999ADDGP10060048802008057002015016802008GQ100600559926909GR100600740913219
0163726985999992000070304534+45550-122390FM-15+0011KTTD V0203001N002610210019N0160931N1+01601+00901101771ADDGD14991+0210019GF108991999999999999999999MA1101761999999MW1001REMMET070KTTD 030453Z 30005KT 10SM OVC075 16/09 A3005 RMK AO2 SLP177 T01560089;EQDQ01+000000PRSWM2
0054726985999992000070306009+45550-122400NSRDB+001199999V020999999999999999999999999999+99999+99999999999ADDGP10060000002000000002000000002000GR100600000900009
0071726985999992000070413009+45550-122400NSRDB+001199999V020999999999999999999999999999+99999+99999999999ADDGP10060000002008000002015000002008GQ100600879905849GR100600025906949
0194726985999992000070418174+45550-122390FM-16+0011KTTD V0209999C000010102019N0160931N1+01601+01001999999ADDGD12991+0087019GD24991+0102019GF108991999999999999999999MA1101761999999MW1611REMMET070KTTD 041817Z 00000KT 10SM -RA FEW029 OVC034 16/10 A3005 RMK AO2 P0000;EQDQ01+000003PRSWM1Q02    003PRSWM1
0191726985999992000070512534+45550-122390FM-15+0011KTTD V0209999V001510015019N0048281N1+01301+01201101581ADDGD14991+0015019GF108991999999999999999999MA1101591999999MW1101REMMET082KTTD 051253Z AUTO VRB03KT 3SM BR OVC005 13/12 A3000 RMK AO2 SLP158 T01280117 TSNO;EQDQ01+000003PRSWM1Q02    003PRSWM1
0071726985999992000070817009+45550-122400NSRDB+001199999V020999999999999999999999999999+99999+99999999999ADDGP10060014802008000002015014802008GQ100600508909769GR100600834913219
0071726985999992000070922009+45550-122400NSRDB+001199999V020999999999999999999999999999+99999+99999999999ADDGP10060080902008055602015031802008GQ100600280921919GR100601166913229
0054726985999992000071112009+45550-122400NSRDB+001199999V020999999999999999999999999999+99999+99999999999ADDGP10060000002000000002000000002000GR100600000900009
0163726985999992000071319534+45550-122390FM-15+0011KTTD V02099999999992200019N0160931N1+02201+01201102051ADDGD12991+0111019GF104991999999999999999999MA1102071999999MW1001REMMET070KTTD 131953Z VRB04KT 10SM SCT037 22/12 A3014 RMK AO2 SLP205 T02220117;EQDQ01+000000PRSWM2
0163726985999992000071322534+45550-122390FM-15+0011KTTD V0203001N003112200019N0160931N1+02401+01001102041ADDGD12991+0180019GF104991999999999999999999MA1102031999999MW1001REMMET070KTTD 132253Z 30006KT 10SM SCT060 24/10 A3013 RMK AO2 SLP204 T02390100;EQDQ01+000000PRSWM2
0071726985999992000071918009+45550-122400NSRDB+001199999V020999999999999999999999999999+99999+99999999999ADDGP10060068502008063902015021002008GQ100600420911249GR100600981913239
0071726985999992000072200009+45550-122400NSRDB+001199999V020999999999999999999999999999+99999+99999999999ADDGP10060060902008061602015018802008GQ100600470925399GR100600902913239
0071726985999992000072601009+45550-122400NSRDB+001199999V020999999999999999999999999999+99999+99999999999ADDGP10060028202008008202015023802008GQ100600578926539GR100600704913249
0155726985999992000072710534+45550-122390FM-15+0011KTTD V0209999C000012200019N0160931N1+01401+01101101671ADDGF100991999999999999999999MA1101691999999MW1001REMMET077KTTD 271053Z AUTO 00000KT 10SM CLR 14/11 A3003 RMK AO2 SLP167 T01390106 TSNO;EQDQ01+000000PRSWM2
0214726985999992000072914063+45550-122390FM-16+0011KTTD V0200801N001510024019N0160931N1+01701+01401999999ADDGD13991+0024019GF107991999999999999999999GP10060002802008003702015002502008GQ100600843906899GR100600131913259MA1101861999999MW1001REMMET053KTTD 291406Z 08003KT 10SM BKN008 17/14 A3008 RMK AO2;EQDQ01+000000PRSWM2
0145726985999992000073001534+45550-122390FM-15+0011KTTD V0202801N002612200019N0160931N1+03201+01501101301ADDGF100991999999999999999999MA1101321999999MW1001REMMET067KTTD 300153Z 28005KT 10SM CLR 32/15 A2992 RMK AO2 SLP130 T03170150;EQDQ01+000000PRSWM2
0145726985999992000080401534+45550-122390FM-15+0011KTTD V0203201N003112200019N0160931N1+02901+01201100901ADDGF100991999999999999999999MA1100911999999MW1001REMMET067KTTD 040153Z 32006KT 10SM CLR 29/12 A2980 RMK AO2 SLP090 T02940117;EQDQ01+000000PRSWM2
0071726985999992000080715009+45550-122400NSRDB+001199999V020999999999999999999999999999+99999+99999999999ADDGP10060004602008000002015004602008GQ100600759908109GR100600324913299
0054726985999992000080813009+45550-122400NSRDB+001199999V020999999999999999999999999999+99999+99999999999ADDGP10060000002000000002000000002000GR100600000900009
0054726985999992000081012009+45550-122400NSRDB+001199999V020999999999999999999999999999+99999+99999999999ADDGP10060000002000000002000000002000GR100600000900009
0168726985999992000081413534+45550-122390FM-15+0011KTTD V0200801N002110108019N0160931N1+01101+00901102171ADDGD13991+0108019GF107991999999999999999999MA1102171999999MW1001REMMET075KTTD 141353Z AUTO 08004KT 10SM BKN036 11/09 A3017 RMK AO2 SLP217 T01110089;EQDQ01+000000PRSWM2
0054726985999992000081513009+45550-122400NSRDB+001199999V020999999999999999999999999999+99999+99999999999ADDGP10060000002000000002000000002000GR100600000900009
0071726985999992000081602009+45550-122400NSRDB+001199999V020999999999999999999999999999+99999+99999999999ADDGP10060025102008043202015012202008GQ100600726927209GR100600398913329
0145726985999992000081618534+45550-122390FM-15+0011KTTD V02099999999992200019N0160931N1+02001+01101102411ADDGF100991999999999999999999MA1102441999999MW1001REMMET067KTTD 161853Z VRB05KT 10SM CLR 20/11 A3025 RMK AO2 SLP241 T02000106;EQDQ01+000000PRSWM2
0163726985999992000082113534+45550-122390FM-15+0011KTTD V0201201N002612200019N0160931N1+01001+00901102151ADDGD12991+0039019GF102991999999999999999999MA1102171999999MW1001REMMET070KTTD 211353Z 12005KT 10SM FEW013 10/09 A3017 RMK AO2 SLP215 T01000089;EQDQ01+000000PRSWM2
0054726985999992000082406009+45550-122400NSRDB+001199999V020999999999999999999999999999+99999+99999999999ADDGP10060000002000000002000000002000GR100600000900009
0054726985999992000082411009+45550-122400NSRDB+001199999V020999999999999999999999999999+99999+99999999999ADDGP10060000002000000002000000002000GR100600000900009
0185726985999992000083015534+45550-122390FM-15+0011KTTD V0202801N002610045019N0160931N1+01701+01301101601ADDGD13991+0045019GD24991+0105019GF108991999999999999999999MA1101631999999MW1001REMMET077KTTD 301553Z 28005KT 10SM BKN015 OVC035 17/13 A3001 RMK AO2 SLP160 T01670128;EQDQ01+000000PRSWM2
0168726985999992000083016414+45550-122390FM-16+0011KTTD V02099999999990045019N0160931N1+01701+01301999999ADDGD13991+0045019GD24991+0114019GF108991999999999999999999MA1101631999999MW1001REMMET060KTTD 301641Z VRB04KT 10SM BKN015 OVC038 17/13 A3001 RMK AO2;EQDQ01+000000PRSWM2
0071726985999992000090221009+45550-122400NSRDB+001199999V020999999999999999999999999999+99999+99999999999ADDGP10060030702008002402015028802008GQ100600384918839GR100601052913439
0054726985999992000091204009+45550-122400NSRDB+001199999V020999999999999999999999999999+99999+99999999999ADDGP10060000002000000002000000002000GR100600000900009
0071726985999992000091221009+45550-122400NSRDB+001199999V020999999999999999999999999999+99999+99999999999ADDGP10060074502008082002015013702008GQ100600422918909GR100601000913509
0168726985999992000091515384+45550-122390FM-16+0011KTTD V0202201N002110087019N0160931N1+02001+01601999999ADDGD13991+0087019GD24991+0108019GF108991999999999999999999MA1101761999999MW1001REMMET060KTTD 151538Z 22004KT 10SM BKN029 OVC036 20/16 A3005 RMK AO2;EQDQ01+000000PRSWM2
0071726985999992000092822009+45550-122400NSRDB+001199999V020999999999999999999999999999+99999+99999999999ADDGP10060038602008015302015029202008GQ100600520920899GR100600838913629
0071726985999992000092902009+45550-122400NSRDB+001199999V020999999999999999999999999999+99999+99999999999ADDGP10060001602008002402015001402008GQ100600858926239GR100600090912159
