0193103140999992000062508004+52320+007550FM-12+0043ETNP V0202901N00211012001CN0200001N1+01291+01081101531ADDAY101999AY201999GA1011+006009089GF107991071081008001001001MA1999999101021MD1310081+9999MW1251REMSYN088AAXX  25084 10314 41570 72904 10129 20108 30102 40153 53008 72500 87800 333 81820 87645;
0171103140999992000062619204+52320+007550FM-15+0043ETNP V0203201N004110150019N0112651N1+01201+00601999999ADDGA1021+008409999GA2071+015009999GF107991999999999999999999MA1102301999999MW1001REMMET061ETNP 261920Z 32008KT 9999 FEW028 BKN050 12/06 Q1023 BLACKBLU;EQDQ01+000000PRSWM2
0149103140999992000062701204+52320+007550FM-15+0043ETNP V0202701N003112200019N0112651N1+00701+00501999999ADDGA1021+015009999GF102991999999999999999999MA1102301999999MW1001REMMET055ETNP 270120Z 27006KT 9999 FEW050 07/05 Q1023 BLACKBLU+;EQDQ01+000000PRSWM2
0194103140999992000070515204+52320+007550FM-15+0043ETNP V0202901N003110270019N0112651N1+01801+01501999999ADDGA1021+003009999GA2021+015009999GA3071+027009999GF107991999999999999999999MA1101291999999MW1001REMMET068ETNP 051520Z 29006KT 9999 FEW010 SCT050 BKN090 18/15 Q1013 BLACKBLU;EQDQ01+000000PRSWM2
0165103140999992000070801004+52320+007550FM-12+0043ETNP V0203301N00101220001CN0200001N1+00781+00581101531ADDGA1041+011409069GF107991041051012501001011MA1999999100901MD1810031+9999REMSYN082AAXX  08014 10314 42670 73302 10078 20058 30090 40153 58003 84501 333 84638 87075;
0409103140999992000071114004+52320+007550SY-MT+0043ETNP V0203201N003110135019N0080001N1+01701+01311099801ADDAY121999AY221999GA1021+003609999GA2021+005409099GA3071+013509999GF107991071091004501999999MA1099801099201MD1210281+9999MW1801OA149900671REMSYN148AAXX  11144 10314 41458 73206 10170 20131 39920 49980 52028 78022 879// 333 81812 82918 86645 91113 555 BOT 00200 10190 20177 30167 40165 999 31///;MET088ETNP 111400Z 32011KT 9999 -SHRA FEW012 SCT018CB BKN045 15/12 Q0998 BLACKBLU FCST CANCEL;EQDQ01    003PRSWM1
0165103140999992000071420004+52320+007550FM-12+0043ETNP V0203001N00101012001CN0300001N1+01211+00981100671ADDGA1021+006009089GF107991071081008001999999MA1999999100051MD1210111+9999REMSYN082AAXX  14204 10314 42580 73002 10121 20098 30005 40067 52011 878// 333 82820 87656;
0159103140999992000071602004+52320+007550FM-12+0043ETNP V0202501N001010126019N0200001N1+01111+01011101101ADDGA1071+012609059GF108991071051012501999999MA1999999100481MD1810011+9999REMSYN076AAXX  16024 10314 42670 82502 10111 20101 30048 40110 58001 875// 333 87642;
0205103140999992000071805204+52320+007550FM-15+0043ETNP V0202801N002110072019N0112651N1+01101+01001999999ADDGA1021+001809999GA2071+007209999GF107991999999999999999999MA1101801999999MW1511REMMET079ETNP 180520Z 28004KT 9999 -DZ SCT006 BKN024 11/10 Q1018 BLACKWHT WHT TEMPO YLO;EQDQ01+000003PRSWM1Q02    003PRSWM1
0166103140999992000072300434+52320+007550FM-16+0043ETNP V0200301N001010001519N0005001N1+01201+01001999999ADDGA1091+000159999GF109991999999000251999999MA1101801999999MW1451REMMET056ETNP 230043Z 03002KT 0500 FG VV000 12/10 Q1018 BLACKRED;EQDQ01+000003PRSWM1Q02    003PRSWM1
0187103140999992000072310004+52320+007550FM-12+0043ETNP V0200601N001010012019N0070001N1+01491+01311101751ADDAY121999AY221999GA1081+001209069GF108991081061001501999999MA1999999101131MD1810011+9999MW1101REMSYN082AAXX  23104 10314 41257 80602 10149 20131 30113 40175 58001 71022 886// 333 88704;
0187103140999992000072712004+52320+007550FM-12+0043ETNP V0201801N00151013501CN0080001N1+02251+01451101491ADDGA1021+010509089GA2031+013509069GF107991041081012501001011MA1999999100891MD1710071+9999REMSYN088AAXX  27124 10314 42658 71803 10225 20145 30089 40149 57007 84801 333 82835 83645 85075;
0176103140999992000073112204+52320+007550FM-15+0043ETNP V0203101N001512200019N0112651N1+02101+01301999999ADDGA1021+010809999GA2021+014409999GF104991999999999999999999MA1102401999999MW1001REMMET066ETNP 311220Z 31003KT 9999 FEW036 SCT048 21/13 Q1024 BLACKBLU+BLU+;EQDQ01+000000PRSWM2
0153103140999992000080110204+52320+007550FM-15+0043ETNP V0202101N003112200019N0112651N1+02601+01601999999ADDGA1021+012009999GF102991999999999999999999MA1101801999999MW1001REMMET059ETNP 011020Z 21006KT 9999 FEW040 26/16 Q1018 BLACKBLU+BLU+;EQDQ01+000000PRSWM2
0187103140999992000080502004+52320+007550FM-12+0043ETNP V0200301N000512200019N0040001N1+01241+01141102331ADDAY111999AY211999GA1041+006309059GF104991041051008001001001MA1999999101701MD1310011+9999MW1111REMSYN082AAXX  05024 10314 41540 40301 10124 20114 30170 40233 53001 71111 84500 333 84621;
0165103140999992000080705004+52320+007550FM-12+0043ETNP V0203001N00101006001CN0080001N1+01461+01311102251ADDGA1011+002409089GF107991071081002501999999MA1999999101631MD1210071+9999REMSYN082AAXX  07054 10314 42358 73002 10146 20131 30163 40225 52007 878// 333 81808 87656;
0165103140999992000080711004+52320+007550FM-12+0043ETNP V0203101N00211012001CN0400001N1+02071+01271102211ADDGA1031+009309089GF107991051081008001031011MA1999999101601MD1810031+9999REMSYN082AAXX  07114 10314 42582 73104 10207 20127 30160 40221 58003 85831 333 83831 83650;
0159103140999992000081100004+52320+007550FM-12+0043ETNP V0202501N001510150019N0120001N1+01711+01411101541ADDGA1071+015009059GF107991071051017501999999MA1999999100921MD1710031+9999REMSYN076AAXX  11004 10314 42762 72503 10171 20141 30092 40154 57003 875// 333 87650;
0285103140999992000081112004+52320+007550SY-MT+0043ETNP V0203201N001010180019N0150001N1+02121+01511101631ADDGA1021+007509999GA2071+018009999GF107991071081008001999999MA1101591101031MD1010041+9999MW1001REMSYN082AAXX  11124 10314 42565 73202 10212 20151 30103 40163 50004 878// 333 83825 87656;MET073ETNP 111200Z 30005KT 9999 SCT025 BKN060 20/14 Q1016 BLACKBLU FCST CANCEL;EQDQ01+000000PRSWM2
0159103140999992000081308004+52320+007550FM-12+0043ETNP V0201401N000512200019N0080001N1+02161+01511101871ADDGA1011+075009019GF101991001001999999001011MA1999999101271MD1210101+9999REMSYN076AAXX  13084 10314 42958 11401 10216 20151 30127 40187 52010 80001 333 81075;
0165103140999992000081403004+52320+007550FM-12+0043ETNP V0201101N000512200019N0150001N1+01461+01201101811ADDGA1011+030009039GF103991011001999999031011MA1999999101191MD1710071+9999REMSYN082AAXX  14034 10314 42965 31101 10146 20120 30119 40181 57007 81031 333 81360 83075;
0254103140999992000082118004+52320+007550FM-12+0043ETNP V0201201N00101015001CN0200001N1+01731+01191101561ADDAA112000791GA1011+009009089GA2041+015009069GF107991041081008001071999IA1099KA1120M+02121KA2120N+01231MA1999999100941MD1510041+9999REMSYN112AAXX  21184 10314 12570 71202 10173 20119 30094 40156 55004 69902 8487/ 333 10212 20123 31/// 81830 84650 87358;
0165103140999992000082510004+52320+007550FM-12+0043ETNP V0200101N00101009001CN0200001N1+01871+01191102381ADDGA1031+007209089GF107991061081004501001011MA1999999101761MD1110041+9999REMSYN082AAXX  25104 10314 42470 70102 10187 20119 30176 40238 51004 86801 333 83824 86632;
0152103140999992000082817204+52320+007550FM-15+0043ETNP V0202901N002612200019N0112651N1+01901+01101999999ADDGA1021+010509029GF102991999999999999999999MA1101801999999MW1001REMMET058ETNP 281720Z 29005KT 9999 FEW035TCU 19/11 Q1018 BLACKBLU+;EQDQ01+000000PRSWM2
0170103140999992000083005204+52320+007550FM-15+0043ETNP V0202001N001010001519N0000501N1+00901+00901999999ADDGA1091+000159999GF109991999999000251999999MA1101901999999MW1451REMMET060ETNP 300520Z 20002KT 0050 FG VV000 09/09 Q1019 BLACKRED RED;EQDQ01+000003PRSWM1Q02    003PRSWM1
0193103140999992000090103004+52320+007550FM-12+0043ETNP V0201301N000510720019N0150001N1+00961+00801100781ADDAY121031AY221031GA1071+072009009GF107991001001999999001011MA1999999100151MD1710191+9999MW1111REMSYN088AAXX  01034 10314 41965 71301 10096 20080 30015 40078 57019 71122 80001 333 87074 00902;
0196103140999992000090116204+52320+007550FM-15+0043ETNP V0202001N003110150019N0112651N1+01601+01301999999ADDGA1021+007509029GA2071+015009999GF107991999999999999999999MA1100311999999MW1801REMMET070ETNP 011620Z 20006KT 9999 -SHRA SCT025TCU BKN050 16/13 Q1003 BLACKBLU;EQDQ01+000003PRSWM1Q02    003PRSWM1
0165103140999992000090320004+52320+007550FM-12+0043ETNP V0203201N001010750019N0200001N1+01101+00771101521ADDGA1011+009009069GF105991011051008001031011MA1999999100891MD1210221+9999REMSYN082AAXX  03204 10314 42570 53202 10110 20077 30089 40152 52022 81531 333 81630 83360;
0280103140999992000090621004+52320+007550FM-12+0043ETNP V0202301N001510180019N0150001N1+01251+01061100491ADDAY191031AY281031GA1011+003609099GA2051+018009069GF105991051091004501001001MA1999999099871MD1010031+9999MW1131OA149900671REMSYN148AAXX  06214 10314 41465 52303 10125 20106 39987 40049 50003 71398 85900 333 81912 85656 91113 555 BOT 00140 10144 20150 30157 40164 999 02913 31///;
0165103140999992000091016004+52320+007550FM-12+0043ETNP V0202901N00101012001CN0180001N1+02231+01481102251ADDGA1011+009609089GF107991071081008001999999MA1999999101641MD1710111+9999REMSYN082AAXX  10164 10314 42568 72902 10223 20148 30164 40225 57011 878// 333 81832 87656;
0181103140999992000091305204+52320+007550FM-15+0043ETNP V0202601N003110012019N0018001N1+01501+01301999999ADDGA1071+001209999GF107991999999999999999999MA1101081999999MW1101REMMET071ETNP 130520Z 26006KT 1800 BR BKN004 15/13 Q1011 BLACKYLO YLO TEMPO RED;EQDQ01+000003PRSWM1Q02    003PRSWM1
0193103140999992000091409004+52320+007550FM-12+0043ETNP V0202101N00101030001CN0070001N1+01761+01441101601ADDAY121031AY221031GA1021+015009069GF106991021051017501031001MA1999999100991MD1210101+9999MW1101REMSYN088AAXX  14094 10314 41757 62102 10176 20144 30099 40160 52010 71022 82530 333 82650 86365;
0215103140999992000091504004+52320+007550FM-12+0043ETNP V0202101N000510450019N0045001N1+01351+01161101531ADDAY121999AY221999GA1021+018009069GA2031+045009039GF106991021051017501031011MA1999999100911MD1710091+9999MW1101REMSYN094AAXX  15044 10314 41745 62101 10135 20116 30091 40153 57009 71022 82531 333 82656 83365 86075;
0174103140999992000091607204+52320+007550FM-15+0043ETNP V0202001N004110099019N0112651N1+01401+01201999999ADDGA1021+004809029GA2071+009909999GF107991999999999999999999MA1100411999999MW1001REMMET064ETNP 160720Z 20008KT 9999 FEW016TCU BKN033 14/12 Q1004 BLACKBLU;EQDQ01+000000PRSWM2
0190103140999992000091706204+52320+007550FM-15+0043ETNP V0201901N002110006019N0023001N1+01101+01001999999ADDGA1021+000309999GA2071+000609999GF107991999999999999999999MA1100911999999MW1101REMMET064ETNP 170620Z 19004KT 2300 BR FEW001 BKN002 11/10 Q1009 BLACKAMB;EQDQ01+000003PRSWM1Q02    003PRSWM1
0245103140999992000091918004+52320+007550FM-12+0043ETNP V0200901N002612200019N0120001N1+01661+01311100441ADDAA199000091GA1031+075009009GF103991001001999999001011IA1099KA1120M+02101KA2120N+01031MA1999999099841MD1610041+9999REMSYN100AAXX  19184 10314 32962 30905 10166 20131 39984 40044 56004 80001 333 10210 20103 31/// 83075 00909;EQDQ01  00002PRCP99
0213103140999992000092221004+52320+007550FM-12+0043ETNP V0201201N001012200019N0150001N1+01131+00901102561ADDGA1021+075009009GF102991001001999999001011MA1999999101931MD1110101+9999REMSYN130AAXX  22214 10314 42965 21202 10113 20090 30193 40256 51010 80001 333 82075 555 BOT 00134 10140 20145 30155 40151 999 01202 31///;
0239103140999992000092418004+52320+007550FM-12+0043ETNP V0201001N001512200019N0170001N1+01501+00911101911ADDAA199000091GA1031+075009019GF103991001001999999001011IA1019KA1120M+01991KA2120N+00701MA1999999101291MD1310021+9999REMSYN094AAXX  24184 10314 32967 31003 10150 20091 30129 40191 53002 80001 333 10199 20070 30/// 83075;EQDQ01  00002PRCP99
0316103140999992000092806004+52320+007550FM-12+0043ETNP V0201601N002110240019N0150001N1+01451+01311100821ADDAA124000491GA1011+008109069GA2041+014109069GA3071+024009039GF108991041051008001051999GJ100079IA1099IA2999+01209KA1120M+01461KA2120N+01281MA1999999100201MD1710141+9999REMSYN138AAXX  28064 10314 32565 81604 10145 20131 30020 40082 57014 8455/ 333 10146 20128 31012 70004 81627 84647 87358 555 20148 999 01407 20117;
0189103140999992000092814204+52320+007550FM-15+0043ETNP V0202201N002610111019N0112651N1+01801+01501999999ADDGA1021+004509999GA2071+011109999GA3071+015009999GF107991999999999999999999MA1100611999999MW1001REMMET063ETNP 281420Z 22005KT 9999 FEW015 BKN037 BKN050 18/15 Q1006 BLU;EQDQ01+000000PRSWM2
0186103140999992000092818204+52320+007550FM-15+0043ETNP V0202101N002110081019N0112651N1+01701+01501999999ADDGA1021+001209999GA2071+008109999GF107991999999999999999999MA1100611999999MW1611REMMET060ETNP 281820Z 21004KT 9999 -RA FEW004 BKN027 17/15 Q1006 BLU;EQDQ01+000003PRSWM1Q02    003PRSWM1
0170103140999992000092908204+52320+007550FM-15+0043ETNP V0201601N004110300019N0112651N1+02001+01501999999ADDGA1021+015009999GA2071+030009999GF107991999999999999999999MA1100511999999MW1001REMMET060ETNP 290820Z 16008KT 9999 FEW050 BKN100 20/15 Q1005 BLU BLU;EQDQ01+000000PRSWM2
0094103140999992000093008204+52320+007550FM-15+0043ETNP V0201801N002612200019N0060001N1+01701+01401999999ADDMA1100411999999MW1001REMMET042ETNP 300820Z 18005KT 6000 17/14 Q1004 WHT;EQDQ01+000000PRSWM2
0162103140999992000100107204+52320+007550FM-15+0043ETNP V0203401N002110015019N0018001N1+01601+01501999999ADDGA1081+001509999GF108991999999999999999999MA1100511999999MW1101REMMET052ETNP 010720Z 34004KT 1800 BR OVC005 16/15 Q1005 YLO;EQDQ01+000003PRSWM1Q02    003PRSWM1
0213103140999992000100807004+52320+007550FM-12+0043ETNP V0201701N002112200019N0200001N1+00541+00451101991ADDGA1011+036009039GF102991011001999999031011MA1999999101351MD1710121+9999REMSYN130AAXX  08074 10314 42970 21704 10054 20045 30135 40199 57012 81031 333 81362 555 BOT 00051 10070 20082 30097 40133 50149 999 31///;
0197103140999992000100901354+52320+007550FM-16+0043ETNP V0202701N004610045019N0060001N1+01001+00901999999ADDGA1021+001509999GA2071+004509999GF107991999999999999999999MA1101021999999MW1611OC101081REMMET063ETNP 090135Z 27009G21KT 6000 -RA SCT005 BKN015 10/09 Q1010 WHT;EQDQ01+000003PRSWM1Q02    003PRSWM1
0202103140999992000101011204+52320+007550FM-15+0043ETNP V0202201N009810069019N0112651N1+01101+00701999999ADDGA1021+004509999GA2071+006909999GF107991999999999999999999MA1098921999999MW1801REMMET076ETNP 101120Z 22019KT 9999 -SHRA FEW015 BKN023 11/07 Q0989 WHT BLU TEMPO WHT;EQDQ01+000003PRSWM1Q02    003PRSWM1
0187103140999992000101102004+52320+007550FM-12+0043ETNP V0201401N004110360019N0300001N1+00791+00411098461ADDGA1011+015009069GA2061+036009039GF108991011051017501051011MA1999999097841MD1810451+9999REMSYN088AAXX  11024 10314 42780 81408 10079 20041 39784 49846 58045 81551 333 81650 86362 87072;
0144103140999992000101122204+52320+007550FM-15+0043ETNP V0201701N004112200019N0112651N1+00801+00601999999ADDGA1021+015009999GF102991999999999999999999MA1098981999999MW1001REMMET050ETNP 112220Z 17008KT 9999 FEW050 08/06 Q0990 BLU+;EQDQ01+000000PRSWM2
0148103140999992000101203204+52320+007550FM-15+0043ETNP V0201701N005112200019N0112651N1+00801+00701999999ADDGA1021+015009999GF102991999999999999999999MA1099291999999MW1001REMMET054ETNP 120320Z 17010KT 9999 FEW050 08/07 Q0993 BLU+BLU+;EQDQ01+000000PRSWM2
0144103140999992000101320204+52320+007550FM-15+0043ETNP V0201901N002112200019N0112651N1+00801+00801999999ADDGA1021+030009999GF102991999999999999999999MA1101491999999MW1001REMMET050ETNP 132020Z 19004KT 9999 FEW100 08/08 Q1015 BLU+;EQDQ01+000000PRSWM2
0187103140999992000101412004+52320+007550FM-12+0043ETNP V0201801N001510009019N0018001N1+00961+00891101921ADDAY141061AY241061GA1081+000909069GF108991081061001501999999MA1999999101291MD1210061+9999MW1281REMSYN082AAXX  14124 10314 41218 81803 10096 20089 30129 40192 52006 72844 886// 333 88703;
0194103140999992000101814204+52320+007550FM-15+0043ETNP V0201801N004610750019N0112651N1+01401+00501999999ADDGA1021+011409999GA2021+030009999GA3071+075009999GF107991999999999999999999MA1102201999999MW1001REMMET068ETNP 181420Z 18009KT 9999 FEW038 SCT100 BKN250 14/05 Q1022 BLU+BLU+;EQDQ01+000000PRSWM2
0189103140999992000102402204+52320+007550FM-15+0043ETNP V0202401N005710240019N0112651N1+01201+01001999999ADDGA1021+008109999GA2021+015009999GA3071+024009999GF107991999999999999999999MA1101491999999MW1001REMMET063ETNP 240220Z 24011KT 9999 FEW027 SCT050 BKN080 12/10 Q1015 BLU;EQDQ01+000000PRSWM2
0221103140999992000102511004+52320+007550FM-12+0043ETNP V0202201N004110057019N0150001N1+01231+00891100581ADDAY121999AY221999GA1011+002709079GA2071+005709069GF108991071051002501999999MA1999999099971MD1710171+9999MW1581REMSYN100AAXX  25114 10314 41365 82208 10123 20089 39997 40058 57017 75822 875// 333 81709 87619 91013 91113;
0172103140999992000102801204+52320+007550FM-15+0043ETNP V0202301N005110015019N0030001N1+01201+01101999999ADDGA1071+001509999GF107991999999999999999999MA1101391999999MW1101MW2511REMMET056ETNP 280120Z 23010KT 3000 -DZ BR BKN005 12/11 Q1014 YLO;EQDQ01+000003PRSWM1Q02    003PRSWM1
0166103140999992000102817204+52320+007550FM-15+0043ETNP V0201801N004610060019N0112651N1+01301+01101999999ADDGA1021+005109999GA2071+006009999GF107991999999999999999999MA1100911999999MW1001REMMET056ETNP 281720Z 18009KT 9999 SCT017 BKN020 13/11 Q1009 WHT;EQDQ01+000000PRSWM2
0159103140999992000103105004+52320+007550FM-12+0043ETNP V0202101N004110084019N0300001N1+00871+00401099191ADDGA1071+008409059GF107991071051008001999999MA1999999098581MD1110041+9999REMSYN076AAXX  31054 10314 42580 72108 10087 20040 39858 49919 51004 875// 333 87628;
0095103140999992000110202204+52320+007550FM-15+0043ETNP V0202101N005112200019N0112651N1+00601+00401999999ADDMA1100101999999MW1001REMMET043ETNP 020220Z 21010KT 9999 06/04 Q1001 BLU+;EQDQ01+000000PRSWM2
0206103140999992000110300004+52320+007550FM-12+0043ETNP V0201801N002112200019N0300001N1+00701+00281099681ADDAY161061AY211061GA1011+015009059GF101991011051017501999001MA1999999099061MD1110191+9999MW1031REMSYN082AAXX  03004 10314 41780 11804 10070 20028 39906 49968 51019 70361 81500 333 81650;EQDQ01    003SCOMCG
0193103140999992000110310204+52320+007550FM-15+0043ETNP V0201801N004110390019N0112651N1+00901+00601999999ADDGA1021+006009999GA2071+039009999GA3071+060009999GF107991999999999999999999MA1099801999999MW1001REMMET067ETNP 031020Z 18008KT 9999 FEW020 BKN130 BKN200 09/06 Q0998 BLU+BLU;EQDQ01+000000PRSWM2
0144103140999992000110516204+52320+007550FM-15+0043ETNP V0201501N003612200019N0112651N1+00701+00301999999ADDGA1021+075009999GF102991999999999999999999MA1100711999999MW1001REMMET050ETNP 051620Z 15007KT 9999 FEW250 07/03 Q1007 BLU+;EQDQ01+000000PRSWM2
0180103140999992000110719204+52320+007550FM-15+0043ETNP V0201701N005110141019N0112651N1+00901+00501999999ADDGA1021+011709999GA2071+014109999GF107991999999999999999999MA1098411999999MW1001REMMET070ETNP 071920Z 17010KT 9999 SCT039 BKN047 09/05 Q0984 BLU BLU TEMPO GRN;EQDQ01+000000PRSWM2
0203103140999992000110909204+52320+007550FM-15+0043ETNP V0202201N006210063019N0112651N1+00901+00601999999ADDGA1021+005109999GA2071+006309999GA3071+015009999GF107991999999999999999999MA1100201999999MW1001REMMET077ETNP 090920Z 22012KT 9999 SCT017 BKN021 BKN050 09/06 Q1002 WHT BLU TEMPO WHT;EQDQ01+000000PRSWM2
0167103140999992000111003204+52320+007550FM-15+0043ETNP V0202301N006210057019N0112651N1+00701+00501999999ADDGA1071+005709999GF107991999999999999999999MA1101021999999MW1611REMMET057ETNP 100320Z 23012KT 9999 -RA BKN019 07/05 Q1010 WHT WHT;EQDQ01+000003PRSWM1Q02    003PRSWM1
0276103140999992000111007004+52320+007550FM-12+0043ETNP V0202301N003110150019N0300001N1+00661+00351101201ADDGA1011+005409089GA2061+015009069GA3071+060009009GF107991061081004501001999MA1999999100571MD1310161+9999REMSYN142AAXX  10074 10314 42480 72306 10066 20035 30057 40120 53016 86800 333 81818 86650 87070 555 BOT 00064 10066 20071 30075 40090 50107 999 31///;EQDQ01+000002SCOHCG
0143103140999992000111103204+52320+007550FM-15+0043ETNP V0202101N005110150019N0112651N1+00701+00401999999ADDGA1071+015009999GF107991999999999999999999MA1101691999999MW1001REMMET049ETNP 110320Z 21010KT 9999 BKN050 07/04 Q1017 BLU;EQDQ01+000000PRSWM2
0167103140999992000111120204+52320+007550FM-15+0043ETNP V0201801N006710600019N0112651N1+00701+00501999999ADDGA1021+030009999GA2071+060009999GF107991999999999999999999MA1101391999999MW1001REMMET057ETNP 112020Z 18013KT 9999 FEW100 BKN200 07/05 Q1014 BLU+;EQDQ01+000000PRSWM2
0187103140999992000111613004+52320+007550FM-12+0043ETNP V0201801N003610360019N0300001N1+00921+00471100881ADDGA1011+006009089GA2051+036009039GF107991011011008001031021MA1999999100251MD1810161+9999REMSYN088AAXX  16134 10314 42580 71807 10092 20047 30025 40088 58016 81132 333 81820 85362 87072;
0159103140999992000112522004+52320+007550FM-12+0043ETNP V0201501N004112200019N0300001N1+00471+00201099901ADDGA1031+069009019GF103991001001999999001011MA1999999099271MD1610351+9999REMSYN076AAXX  25224 10314 42980 31508 10047 20020 39927 49990 56035 80001 333 83073;
0165103140999992000112617004+52320+007550FM-12+0043ETNP V0202201N00311012001CN0150001N1+00831+00561100261ADDGA1021+006909089GF107991071081008001999999MA1999999099641MD1210291+9999REMSYN082AAXX  26174 10314 42565 72206 10083 20056 39964 40026 52029 878// 333 82823 87650;
0157103140999992000112710204+52320+007550FM-15+0043ETNP V0202301N005110030019N0070001N1+00701+00501999999ADDGA1071+003009999GF107991999999999999999999MA1101491999999MW1001REMMET063ETNP 271020Z 23010KT 7000 BKN010 07/05 Q1015 GRN GRN BECMG WHT;EQDQ01+000000PRSWM2
0166103140999992000120113204+52320+007550FM-15+0043ETNP V0201601N005110600019N0112651N1+01401+00801999999ADDGA1021+039009999GA2071+060009999GF107991999999999999999999MA1101021999999MW1001REMMET056ETNP 011320Z 16010KT 9999 SCT130 BKN200 14/08 Q1010 BLU;EQDQ01+000000PRSWM2
0159103140999992000120505004+52320+007550FM-12+0043ETNP V0201601N002112200019N0250001N1+00601+00441101561ADDGA1011+075009019GF101991001001999999001011MA1999999100931MD1010011+9999REMSYN076AAXX  05054 10314 42975 11604 10060 20044 30093 40156 50001 80001 333 81075;
0165103140999992000120515004+52320+007550FM-12+0043ETNP V0201301N002619999999N0300001N1+01111+00681101331ADDGA1011+042009039GF107991011001999999031011MA1999999100711MD1710181+9999REMSYN082AAXX  05154 10314 42980 71305 10111 20068 30071 40133 57018 81031 333 81364 87070;
0225103140999992000121511204+52320+007550FM-15+0043ETNP V0202601N006710048019N0112651N1+00701+00501999999ADDGA1021+003909999GA2071+004809999GA3071+007509999GF107991999999999999999999MA1099801999999MW1801REMMET083ETNP 151120Z 26013KT 9999 -SHRA FEW013 BKN016 BKN025 07/05 Q0998 WHT BLU TEMPO GRN;EQDQ01+000003PRSWM1Q02    003PRSWM1
0159103140999992000122012004+52320+007550FM-12+0043ETNP V0201101N003110750019N0200001N1+00291-00211102541ADDGA1051+075009019GF105991001001999999001011MA1999999101891MD1810091+9999REMSYN076AAXX  20124 10314 42970 51106 10029 21021 30189 40254 58009 80001 333 85075;
0149103140999992000122017204+52320+007550FM-15+0043ETNP V0200901N004112200019N0112651N1+00101-00301999999ADDGA1021+075009999GF102991999999999999999999MA1102401999999MW1001REMMET055ETNP 201720Z 09008KT 9999 FEW250 01/M03 Q1024 BLU+BLU+;EQDQ01+000000PRSWM2
0097103140999992000122102204+52320+007550FM-15+0043ETNP V0201001N005712200019N0112651N1+99999+99999999999ADDMA1102401999999MW1001REMMET045ETNP 210220Z 10011KT 9999 M00/M06 Q1024 BLU+;EQDQ01+000000PRSWM2
0172103140999992000122111204+52320+007550FM-15+0043ETNP V0200901N003110690019N0112651N1+00201-00501999999ADDGA1021+030009999GA2071+069009999GF107991999999999999999999MA1102511999999MW1001REMMET062ETNP 211120Z 09006KT 9999 FEW100 BKN230 02/M05 Q1025 BLU+BLU+;EQDQ01+000000PRSWM2
0159103140999992000122313004+52320+007550FM-12+0043ETNP V0202101N001012200019N0120001N1+00231-00351101141ADDGA1011+066009019GF101991001001999999001011MA1999999100501MD1710211+9999REMSYN076AAXX  23134 10314 42962 12102 10023 21035 30050 40114 57021 80001 333 81072;
0193103140999992000122405004+52320+007550FM-12+0043ETNP V0201301N00101001201CN0012001N1-00031-00091100631ADDAY161999AY261999GA1021+000909079GF108991071051001501999999MA1999999099981MD1810171+9999MW1661REMSYN088AAXX  24054 10314 41212 81302 11003 21009 39998 40063 58017 76666 875// 333 82703 87650;
0164103140999992000122407204+52320+007550FM-15+0043ETNP V0203601N002110006019N0007001N1+00001-00101999999ADDGA1071+000609999GF107991999999999999999999MA1100611999999MW1441REMMET054ETNP 240720Z 36004KT 0700 FG BKN002 M00/M01 Q1006 RED;EQDQ01+000003PRSWM1Q02    003PRSWM1
0187103140999992000122811004+52320+007550FM-12+0043ETNP V0202101N001510012019N0012001N1+00001-00071099461ADDAY171999AY271999GA1081+001209069GF108991081061001501999999MA1999999098831MD1110091+9999MW1731REMSYN082AAXX  28114 10314 41212 82103 10000 21007 39883 49946 51009 77377 886// 333 88704;
0235103140999992000123014004+52320+007550FM-12+0043ETNP V0202501N002110015019N0060001N1+00161+00061099901ADDAY121999AY221999GA1081+001509079GF108991081061001501999999MA1999999099261MD1210231+9999MW1101REMSYN130AAXX  30144 10314 41256 82504 10016 20006 39926 49990 52023 71022 886// 333 88705 555 BOT 01001 10000 20002 30004 40027 999 47///;
0171103140999992000123016204+52320+007550FM-15+0043ETNP V0202601N004110150019N0112651N1+00101+00001999999ADDGA1021+001509999GA2071+015009999GF107991999999999999999999MA1100201999999MW1001REMMET061ETNP 301620Z 26008KT 9999 SCT005 BKN050 01/00 Q1002 BLACKBLU;EQDQ01+000000PRSWM2
0205103200999992000011007504+51920+008300FM-15+0072ETUO V0209999C000010006019N0025001N1+00201+00101999999ADDGA1071+000609999GA2081+002409999GF108991999999999999999999MA1103491999999MW1101REMMET079ETUO 100750Z 00000KT 2500 BR BKN002 OVC008 02/01 Q1035 SPECI AMB AMB TEMPO YLO;EQDQ01+000003PRSWM1Q02    003PRSWM1
0172103200999992000011022004+51920+008300FM-12+0072ETUO V0209999C00001220001CN0040001N1+00011-00101103801ADDAY121011AY221011GA1021+007809069GF106991021051008001001011MD1110051+9999MW1051REMSYN082AAXX  10224 10320 41540 60000 10001 21010 40380 51005 70522 82501 333 82626 86070;
0178103200999992000011101004+51920+008300FM-12+0072ETUO V0209999C000010006019N0012001N1-00151-00231103801ADDAY141011AY221011GA1081+000609079GF108991081061000751999999MD1510001+9999MW1281REMSYN088AAXX  11014 10320 41112 80000 11015 21023 40380 55000 72842 886// 333 88702 92611 96010;
0182103200999992000011719004+51920+008300FM-12+007299999V0203001N008710021019N0120001N1+00671+00511102401ADDAY161011AY251011GA1081+002109079GF108991081061002501999999MD1610031+9999MW1211REMSYN092    AAXX  17194 10320 41362 83017 10067 20051 40240 56003 72165 886// 333 88707 90710 91127;
0199103200999992000012005504+51920+008300FM-15+0072ETUO V0202701N004110012019N0045001N1+00301+00201999999ADDGA1071+001209999GA2081+002709999GF108991999999999999999999MA1102811999999MW1101REMMET073ETUO 200550Z 27008KT 4500 BR BKN004 OVC009 03/02 Q1028 YLO YLO BECMG GRN;EQDQ01+000003PRSWM1Q02    003PRSWM1
0184103200999992000012114504+51920+008300FM-15+0072ETUO V0203101N005710150019N0112651N1+00501-00101999999ADDGA1021+008409029GA2071+015009999GF107991999999999999999999MA1102201999999MW1001REMMET074ETUO 211450Z 31011KT 9999 FEW028TCU BKN050 05/M01 Q1022 BLU BLU TEMPO WHT;EQDQ01+000000PRSWM2
0172103200999992000012115004+51920+008300FM-12+0072ETUO V0203101N00571012001CN0150001N1+00461-00071102281ADDAY181031AY221031GA1021+008409089GF107991071081008001999999MD1310071+9999MW1251REMSYN082AAXX  21154 10320 41565 73111 10046 21007 40228 53007 72582 878// 333 82828 87650;
0096103200999992000012121004+51920+008300FM-12+0072ETUO V0202701N003119999999N0140001N1+00231-00071102281ADDMD1810141+9999REMSYN070AAXX  21214 10320 46/64 /2706 10023 21007 40228 58014 555 7/098 88/50;
0214103200999992000012517004+51920+008300FM-12+0072ETUO V0201801N001512200019N0070001N1-00321-00671102931ADDAJ199992999999999AY101999AY201999GA1011+007509059GF101991011051008001001001IA1229MD1110021+9999MW1051REMSYN082AAXX  25174 10320 41557 11803 11032 21067 40293 51002 70500 81500 333 46998 81625;EQDQ01  09972SNDP  
0149103200999992000012519504+51920+008300FM-15+0072ETUO V0202301N001512200019N0090001N1-00301-00701999999ADDGF100991999999999999999999MA1102911999999MW1051REMMET055ETUO 251950Z 23003KT 9000 HZ SKC M03/M07 Q1029 BLU BLU;EQDQ01+000003PRSWM1Q02    003PRSWM1
0166103200999992000020208004+51920+008300FM-12+0072ETUO V0202501N005710021019N0035001N1+00731+00611101221ADDAY161999AY251999GA1081+002109069GF108991081071002501999999MD1310011+9999MW1581REMSYN076AAXX  02084 10320 41335 82511 10073 20061 40122 53001 75865 887// 333 88707;
0185103200999992000020321504+51920+008300FM-15+0072ETUO V0202501N004110096019N0070001N1+00601+00401999999ADDGA1021+003909999GA2071+009609999GF107991999999999999999999MA1103391999999MW1051REMMET059ETUO 032150Z 25008KT 7000 HZ SCT013 BKN032 06/04 Q1034 GRN;EQDQ01+000003PRSWM1Q02    003PRSWM1
0158103200999992000020807504+51920+008300FM-15+0072ETUO V0202501N008210105019N0112651N1+00901+00101999999ADDGA1071+010509999GF107991999999999999999999MA1100611999999MW1001OC101341REMMET056ETUO 080750Z 25016G26KT 9999 BKN035 09/01 Q1006 BLU BLU;EQDQ01+000000PRSWM2
0141103200999992000021102554+51920+008300FM-15+0072ETUO V0202701N004110120019N0112651N1+00301+00101999999ADDGA1071+012009999GF107991999999999999999999MA1102201999999MW1001REMMET047ETUO 0255Z 27008KT 9999 BKN040 03/01 Q1022 BLU;EQDQ01+000000PRSWM2
0138103200999992000021105004+51920+008300FM-12+0072ETUO V0202601N003110099019N0120001N1+00341+00171102441ADDGA1061+009909059GF106991061051012501999999MD1210291+9999REMSYN070AAXX  11054 10320 42662 62606 10034 20017 40244 52029 865// 333 86633;
0194103200999992000021601004+51920+008300FM-12+0072ETUO V0201901N003110075019N0080001N1+00461+00251100221ADDAY161011AY221011GA1051+007509069GA2071+018009069GF107991071051008001999999MD1810461+9999MW1211REMSYN088AAXX  16014 10320 41558 71906 10046 20025 40022 58046 72162 875// 333 85625 87656 96005;
0217103200999992000021609004+51920+008300FM-12+0072ETUO V0202701N010810054019N0250001N1+00391+00001099831ADDAY171031AY261031GA1051+005409089GA2071+015009069GF107991071081004501999999MD1310421+9999MW1231OA140101651REMSYN100AAXX  16094 10320 41475 72721 10039 20000 49983 53042 72376 878// 333 85818 87650 90710 91132 96268;
0200103200999992000022105004+51920+008300FM-12+0072ETUO V0209999C000010180019N0030001N1-00331-00371102971ADDAY141999AY211999GA1031+008109069GA2031+018009069GF105991051051008001001001MD1710031+9999MW1281REMSYN094AAXX  21054 10320 41530 50000 11033 21037 40297 57003 72841 85500 333 83627 83656 92611 96011;
0194103200999992000022213004+51920+008300FM-12+0072ETUO V0202601N006210087019N0100001N1+00541+00161102411ADDAY151011AY221011GA1021+005109089GA2041+008709069GF107991071081004501999999MD1810011+9999MW1201REMSYN088AAXX  22134 10320 41460 72612 10054 20016 40241 58001 72052 878// 333 82817 84629 87650;
0212103200999992000022401554+51920+008300FM-15+0072ETUO V0201901N003610150019N0080001N1+00601+00301999999ADDGA1021+006609999GA2021+009309999GA3071+015009999GF107991999999999999999999MA1102101999999MW1051REMMET070ETUO 0155Z 19007KT 8000 HZ FEW022 SCT031 BKN050 06/03 Q1021 SPECI BLU;EQDQ01+000003PRSWM1Q02    003PRSWM1
0096103200999992000022609004+51920+008300FM-12+0072ETUO V0202501N002619999999N0090001N1+00431+00021103241ADDMD1310101+9999REMSYN070AAXX  26094 10320 46/59 /2505 10043 20002 40324 53010 555 7/098 88/44;
0096103200999992000022702004+51920+008300FM-12+0072ETUO V02099999999999999999N0060001N1-00161-00281102991ADDMD1710131+9999REMSYN070AAXX  27024 10320 46/56 ///// 11016 21028 40299 57013 555 7/090 80/99;
0172103200999992000030110004+51920+008300FM-12+0072ETUO V0202801N006710750019N0120001N1+00651+00271100041ADDAY181011AY221011GA1031+005409089GF107991041081004501001021MD1210131+9999MW1251REMSYN082AAXX  01104 10320 41462 72813 10065 20027 40004 52013 72582 84802 333 83818 87075;
0180103200999992000030111504+51920+008300FM-15+0072ETUO V0202501N005110750019N0112651N1+00601+00201999999ADDGA1021+006609999GA2071+075009999GF107991999999999999999999MA1100001999999MW1001REMMET070ETUO 011150Z 25010KT 9999 FEW022 BKN250 06/02 Q1000 BLU BLU TEMPO WHT;EQDQ01+000000PRSWM2
0148103200999992000030318004+51920+008300FM-12+0072ETUO V0202501N005719999999N0130001N1+00581+00261100471ADDAA112007991KA1120M+00901MD1210161+9999REMSYN098AAXX  03184 10320 16/63 /2511 10058 20026 40047 52016 60082 333 10090 555 7/097 81/29 83/35 86/50;
0096103200999992000030419004+51920+008300FM-12+0072ETUO V0202801N007219999999N0500001N1+00041-00181102281ADDMD1210321+9999REMSYN070AAXX  04194 10320 46/84 /2814 10004 21018 40228 52032 555 7/091 81/58;
0096103200999992000031123004+51920+008300FM-12+0072ETUO V0203401N004619999999N0250001N1+00581+00261102241ADDMD1310301+9999REMSYN070AAXX  11234 10320 46/75 /3409 10058 20026 40224 53030 555 7/097 87/17;
0144103200999992000031222004+51920+008300FM-12+0072ETUO V0201901N001010300019N0200001N1+00481+00311102611ADDGA1011+015009069GF107991011051017501031999MD1710021+9999REMSYN076AAXX  12224 10320 42770 71902 10048 20031 40261 57002 8153/ 333 81650 87360;
0172103200999992000031316004+51920+008300FM-12+0072ETUO V0202501N004110105019N0080001N1+01151+00491102261ADDAY121011AY221011GA1051+010509069GF108991081051012501999999MD1810091+9999MW1051REMSYN082AAXX  13164 10320 41658 82508 10115 20049 40226 58009 70522 885// 333 85635 88656;
0199103200999992000031413504+51920+008300FM-15+0072ETUO V0202601N008210021019N0030001N1+01001+00901999999ADDGA1071+002109999GA2081+003609999GF108991999999999999999999MA1101191999999MW1631REMMET073ETUO 141350Z 26016KT 3000 RA BKN007 OVC012 10/09 Q1012 YLO YLO BECMG GRN;EQDQ01+000003PRSWM1Q02    003PRSWM1
0174103200999992000031519504+51920+008300FM-15+0072ETUO V0202701N008710030019N0070001N1+00401+00301999999ADDGA1081+003009999GF108991999999999999999999MA1102401999999MW1631REMMET064ETUO 151950Z 27017KT 7000 RA OVC010 04/03 Q1024 GRN FCST CANCEL;EQDQ01+000003PRSWM1Q02    003PRSWM1
0096103200999992000031908004+51920+008300FM-12+0072ETUO V0203601N003119999999N0060001N1+00401+00061103361ADDMD1210201+9999REMSYN070AAXX  19084 10320 46/56 /3606 10040 20006 40336 52020 555 7/090 80/99;
0166103200999992000032914504+51920+008300FM-15+0072ETUO V0200601N005110024019N0050001N1+00601+00401999999ADDGA1081+002409999GF108991999999999999999999MA1101291999999MW1051REMMET056ETUO 291450Z 06010KT 5000 HZ OVC008 06/04 Q1013 GRN GRN;EQDQ01+000003PRSWM1Q02    003PRSWM1
0138103200999992000040508004+51920+008300FM-12+0072ETUO V0200201N005110051019N0250001N1+00431-00021100631ADDGA1071+005109059GF107991071051004501999999MD1110311+9999REMSYN070AAXX  05084 10320 42475 70210 10043 21002 40063 51031 875// 333 87617;
0102103200999992000040823004+51920+008300FM-12+0072ETUO V0200901N001519999999N0070001N1+00781+00321101871ADDMD1710151+9999REMSYN076AAXX  08234 10320 46/57 /0903 10078 20032 40187 57015 555 7/094 81/50 84/59;
0138103200999992000042516004+51920+008300FM-12+0072ETUO V0201201N003610750019N0350001N1+01881+00481101231ADDGA1071+075009019GF107991001001999999001011MD1610151+9999REMSYN070AAXX  25164 10320 42981 71207 10188 20048 40123 56015 80001 333 87075;
0162103200999992000042622554+51920+008300FM-15+0072ETUO V0200401N000512200019N0050001N1+01401+01201999999ADDGA1021+075009999GF104991999999999999999999MA1101191999999MW1051REMMET052ETUO 262255Z 04001KT 5000 HZ SCT250 14/12 Q1012 WHT;EQDQ01+000003PRSWM1Q02    003PRSWM1
0144103200999992000042708004+51920+008300FM-12+0072ETUO V0200801N004119999999N0100001N1+01461+01191101281ADDGA1021+024009039GF107991021001999999081021MD1810121+9999REMSYN076AAXX  27084 10320 42960 70808 10146 20119 40128 58012 82082 333 82358 87070;
0099103200999992000050509554+51920+008300FM-15+0072ETUO V0200501N00261220001CN0099001N1+02201+00501999999ADDMA1101691999999MW1001REMMET047ETUO 050955Z 05005KT CAVOK 22/05 Q1017 BLU BLU;EQDQ01+000000PRSWM2
0096103200999992000050622004+51920+008300FM-12+0072ETUO V0200701N003119999999N0160001N1+01871+00751101551ADDMD1210101+9999REMSYN070AAXX  06224 10320 46/66 /0706 10187 20075 40155 52010 555 7/090 80/99;
0096103200999992000050714004+51920+008300FM-12+0072ETUO V0201301N003119999999N0220001N1+02501+01031101501ADDMD1710051+9999REMSYN070AAXX  07144 10320 46/72 /1306 10250 20103 40150 57005 555 7/090 80/99;
0211103200999992000051106004+51920+008300FM-12+0072ETUO V0200401N002110750019N0120001N1+01621+01031101891ADDAA199000091GA1061+075009019GF106991001001999999001021IA1099IA2999+01009KA1120N+01341MD1210091+9999REMSYN082AAXX  11064 10320 32962 60404 10162 20103 40189 52009 80002 333 20134 31010 86075;EQDQ01  00002PRCP99
0144103200999992000051204004+51920+008300FM-12+0072ETUO V0200601N002619999999N0300001N1+01411+00421102001ADDGA1011+054009039GF106991011001999999061031MD1310101+9999REMSYN076AAXX  12044 10320 42980 60605 10141 20042 40200 53010 81063 333 81368 86075;
0099103200999992000051212504+51920+008300FM-15+0072ETUO V0200801N00571220001CN0099001N1+02201+01001999999ADDMA1102101999999MW1001REMMET047ETUO 121250Z 08011KT CAVOK 22/10 Q1021 BLU BLU;EQDQ01+000000PRSWM2
0096103200999992000051216004+51920+008300FM-12+0072ETUO V0200901N005119999999N0230001N1+02201+00671102091ADDMD1710031+9999REMSYN070AAXX  12164 10320 46/73 /0910 10220 20067 40209 57003 555 7/090 80/99;
0138103200999992000051820004+51920+008300FM-12+0072ETUO V0201901N002112200019N0400001N1+01071+00651100711ADDGA1011+036009079GF102991011001999999071021MD1210051+9999REMSYN070AAXX  18204 10320 42982 21904 10107 20065 40071 52005 81072 333 81362;
0200103200999992000051914004+51920+008300FM-12+0072ETUO V0202901N004610180019N0120001N1+01031+00931100741ADDAY191999AY281999GA1021+007509099GA2041+018009069GF107991061091008001001031MD1510041+9999MW1911REMSYN094AAXX  19144 10320 41562 72909 10103 20093 40074 55004 79198 86903 333 82925 84656 90710 91127;
0125103200999992000052000004+51920+008300FM-12+0072ETUO V0202501N004119999999N0060001N1+00861+00741100731ADDAA106001091MD1210031+9999REMSYN088AAXX  20004 10320 16/56 /2508 10086 20074 40073 52003 60011 555 7/098 83/09 83/21 84/33;
0170103200999992000052308504+51920+008300FM-15+0072ETUO V0202101N004110750019N0112651N1+01601+00901999999ADDGA1021+008409999GA2071+075009999GF107991999999999999999999MA1102001999999MW1001REMMET060ETUO 230850Z 21008KT 9999 SCT028 BKN250 16/09 Q1020 BLU BLU;EQDQ01+000000PRSWM2
0166103200999992000052321004+51920+008300FM-12+0072ETUO V0201801N00311030001CN0250001N1+01521+00901101621ADDGA1011+018009069GA2031+045009039GF107991011051017501071021MD1610041+9999REMSYN082AAXX  23214 10320 42775 71806 10152 20090 40162 56004 81572 333 81656 83365 87075;
0138103200999992000060501004+51920+008300FM-12+0072ETUO V0209999C000010105019N0150001N1+01431+01181101901ADDGA1071+010509059GF107991071051012501999999MD1510001+9999REMSYN070AAXX  05014 10320 42665 70000 10143 20118 40190 55000 875// 333 87635;
0203103200999992000060614504+51920+008300FM-15+0072ETUO V0202801N004610210019N0112651N1+01501+01001999999ADDGA1021+005409999GA2021+008409999GA3071+021009999GF107991999999999999999999MA1101801999999MW1001REMMET077ETUO 061450Z 28009KT 9999 SCT018 SCT028 BKN070 15/10 Q1018 WHT WHT BECMG BLU;EQDQ01+000000PRSWM2
0209103200999992000060703504+51920+008300FM-15+0072ETUO V0202501N005110060019N0045001N1+01101+01001999999ADDGA1021+003609999GA2071+006009999GA3071+015009999GF107991999999999999999999MA1101691999999MW1611REMMET067ETUO 070350Z 25010KT 4500 -RA FEW012 BKN020 BKN050 11/10 Q1017 GRN;EQDQ01+000003PRSWM1Q02    003PRSWM1
0096103200999992000061216004+51920+008300FM-12+0072ETUO V0202701N004619999999N0210001N1+02231+01181102541ADDMD1710031+9999REMSYN070AAXX  12164 10320 46/71 /2709 10223 20118 40254 57003 555 7/090 80/99;
0138103200999992000061305004+51920+008300FM-12+0072ETUO V0201801N003112200019N0120001N1+01561+01291102551ADDGA1011+075009019GF101991001001999999001011MD1510061+9999REMSYN070AAXX  13054 10320 42962 11806 10156 20129 40255 55006 80001 333 81075;
0211103200999992000061306004+51920+008300FM-12+0072ETUO V0201901N002112200019N0150001N1+01751+01381102501ADDAA199000091GA1011+075009019GF101991001001999999001011IA1099IA2999+01109KA1120N+01261MD1810051+9999REMSYN082AAXX  13064 10320 32965 11904 10175 20138 40250 58005 80001 333 20126 31011 81075;EQDQ01  00002PRCP99
0166103200999992000061419504+51920+008290FM-15+0072ETUO V0202401N003110090019N0112651N1+02001+01501999999ADDGA1071+009009999GA2071+015009999GF107991999999999999999999MA1102001999999MW1001REMMET056ETUO 141950Z 24006KT 9999 BKN030 BKN050 20/15 Q1020 BLU;EQDQ01+000000PRSWM2
0099103200999992000061909504+51920+008290FM-15+0072ETUO V0202101N00361220001CN0099001N1+03001+01001999999ADDMA1102001999999MW1001REMMET047ETUO 190950Z 21007KT CAVOK 30/10 Q1020 BLU BLU;EQDQ01+000000PRSWM2
0095103200999992000062002504+51920+008290FM-15+0072ETUO V0209999C00001220001CN0099001N1+01901+01101999999ADDMA1101591999999MW1001REMMET043ETUO 200250Z 00000KT CAVOK 19/11 Q1016 BLU;EQDQ01+000000PRSWM2
0232103200999992000062306004+51920+008290FM-12+0072ETUO V0202201N003610180019N0300001N1+01551+01201101581ADDAA112000191AY181061AY221061GA1051+018009069GF107991051051017501031999IA1099IA2999+01309KA1120N+01411MD1410001+9999MW1021REMSYN100AAXX  23064 10320 11780 72207 10155 20120 40158 54000 69922 70282 8553/ 333 20141 31013 85656 87360;
0170103200999992000062607114+51920+008290FM-16+0072ETUO V0202801N005710060019N0112651N1+01201+00701999999ADDGA1071+006009999GA2071+018009999GF107991999999999999999999MA1102001999999MW1001REMMET060ETUO 260711Z 28011KT 9999 BKN020 BKN060 12/07 Q1020 WHT WHT;EQDQ01+000000PRSWM2
0211103200999992000062706004+51920+008290FM-12+0072ETUO V0202901N003610150019N0400001N1+00951+00631102391ADDAA199000091GA1071+015009059GF107991071051017501999999IA1099IA2999+00209KA1120N+00621MD1210041+9999REMSYN082AAXX  27064 10320 32782 72907 10095 20063 40239 52004 875// 333 20062 31002 87650;EQDQ01  00002PRCP99
0099103200999992000062820504+51920+008290FM-15+0072ETUO V0203101N00261220001CN0099001N1+01201+00601999999ADDMA1101901999999MW1001REMMET047ETUO 282050Z 31005KT CAVOK 12/06 Q1019 BLU BLU;EQDQ01+000000PRSWM2
0170103200999992000070315504+51920+008290FM-15+0072ETUO V0203201N002610600019N0112651N1+02101+01601999999ADDGA1021+007809999GA2081+060009999GF108991999999999999999999MA1100711999999MW1001REMMET060ETUO 031550Z 32005KT 9999 SCT026 OVC200 21/16 Q1007 BLU BLU;EQDQ01+000000PRSWM2
0170103200999992000070320504+51920+008290FM-15+0072ETUO V0203401N000512200019N0035001N1+01601+01501999999ADDGA1021+039009999GF102991999999999999999999MA1100811999999MW1121REMMET060ETUO 032050Z 34001KT 3500 MIFG FEW130 16/15 Q1008 SPECI YLO;EQDQ01+000003PRSWM1Q02    003PRSWM1
0096103200999992000070805004+51920+008290FM-12+0072ETUO V0202801N001519999999N0210001N1+00911+00821101461ADDMD1310011+9999REMSYN070AAXX  08054 10320 46/71 /2803 10091 20082 40146 53001 555 7/095 85/34;
0254103200999992000071206004+51920+008290FM-12+0072ETUO V0202801N007210075019N0250001N1+01151+00921100951ADDAA112000791AY181061AY221061GA1021+003909079GA2031+007509089GF107991071081004501999999IA1099IA2999+01109KA1120N+01151MD1210171+9999MW1251REMSYN106AAXX  12064 10320 11475 72814 10115 20092 40095 52017 69902 72582 878// 333 20115 31011 82713 83825 87640;
0203103200999992000071305504+51920+008290FM-15+0072ETUO V0202101N002110150019N0112651N1+01101+00901999999ADDGA1021+009909999GA2071+015009999GA3081+036009999GF108991999999999999999999MA1101191999999MW1001REMMET077ETUO 130550Z 21004KT 9999 FEW033 BKN050 OVC120 11/09 Q1012 BLU BLU TEMPO GRN;EQDQ01+000000PRSWM2
0172103200999992000071704004+51920+008290FM-12+0072ETUO V0202501N00051007501CN0070001N1+01171+01101101681ADDAY121999AY221999GA1011+006009069GF107991071051008001999999MD1310031+9999MW1051REMSYN082AAXX  17044 10320 41557 72501 10117 20110 40168 53003 70522 875// 333 81620 87641;
0186103200999992000071712504+51920+008290FM-15+0072ETUO V0202501N003610093019N0112651N1+01401+01101999999ADDGA1021+007509999GA2081+009309999GF108991999999999999999999MA1101801999999MW1001REMMET076ETUO 171250Z 25007KT 9999 SCT025 OVC031 14/11 Q1018 SPECI BLU BLU TEMPO WHT;EQDQ01+000000PRSWM2
0193103200999992000071915504+51920+008290FM-15+0072ETUO V0202801N005710120019N0112651N1+01601+01201999999ADDGA1021+007509999GA2021+010509999GA3081+012009999GF108991999999999999999999MA1101801999999MW1001REMMET067ETUO 191550Z 28011KT 9999 SCT025 SCT035 OVC040 16/12 Q1018 BLU BLU;EQDQ01+000000PRSWM2
0147103200999992000072109504+51920+008290FM-15+0072ETUO V0203101N010012200019N0112651N1+01701+00901999999ADDGA1021+007809999GF104991999999999999999999MA1102201999999MW1001REMMET053ETUO 210950Z 31010KT 9999 SCT026 17/09 Q1022 BLU BLU;EQDQ01+000000PRSWM2
0095103200999992000072322504+51920+008290FM-15+0072ETUO V0200601N00101220001CN0099001N1+01701+01301999999ADDMA1101191999999MW1001REMMET043ETUO 232250Z 06002KT CAVOK 17/13 Q1012 BLU;EQDQ01+000000PRSWM2
0099103200999992000072405504+51920+008290FM-15+0072ETUO V0209999C00001220001CN0099001N1+01701+01301999999ADDMA1100911999999MW1001REMMET047ETUO 240550Z 00000KT CAVOK 17/13 Q1009 BLU BLU;EQDQ01+000000PRSWM2
0189103200999992000072500004+51920+008290FM-12+0072ETUO V0201201N001010270019N0035001N1+01601+01551100291ADDAA106005191AY191061AY261061GA1071+027009039GF107991071001999999071999MD1810061+9999MW1291REMSYN088AAXX  25004 10320 11935 71202 10160 20155 40029 58006 60051 72996 8707/ 333 87359 96010;
0172103200999992000072619004+51920+008290FM-12+0072ETUO V0202801N00151012001CN0080001N1+01751+01491101181ADDAY121011AY221011GA1011+010809069GF107991071051012501071999MD1210141+9999MW1051REMSYN082AAXX  26194 10320 41658 72803 10175 20149 40118 52014 70522 8757/ 333 81636 86650;
0166103200999992000080101004+51920+008290FM-12+0072ETUO V0209999C000012200019N0050001N1+01461+01321102241ADDAY101011AY201011GA1021+066009019GF102991001001999999001021MD1710031+9999MW1051REMSYN076AAXX  01014 10320 41950 20000 10146 20132 40224 57003 70500 80002 333 82072;
0144103200999992000080205004+51920+008290FM-12+0072ETUO V0201701N00101021001CN0200001N1+01711+01471101361ADDGA1011+021009039GF107991071001022501081999MD1610161+9999REMSYN076AAXX  02054 10320 42870 71702 10171 20147 40136 56016 8708/ 333 81357 87368;
0144103200999992000080623004+51920+008290FM-12+0072ETUO V0202901N00211009001CN0200001N1+01801+01551102091ADDGA1011+004809089GF107991071081004501999999MD1210041+9999REMSYN076AAXX  06234 10320 42470 72904 10180 20155 40209 52004 878// 333 81816 87645;
0164103200999992000081501504+51920+008290FM-15+0072ETUO V0209999C000012200019N0018001N1+01801+01701999999ADDGA1021+063009999GF104991999999999999999999MA1101801999999MW1121REMMET054ETUO 150150Z 00000KT 1800 MIFG SCT210 18/17 Q1018 YLO;EQDQ01+000003PRSWM1Q02    003PRSWM1
0202103200999992000081718004+51920+008290FM-12+0072ETUO V0202501N002612200019N0300001N1+02171+01531101261ADDAA112000591AY181061AY211061GA1011+010509029GF102991011021012501031011KA1120M+02351MD1310021+9999MW1011REMSYN088AAXX  17184 10320 11680 22505 10217 20153 40126 53002 69942 70181 81231 333 10235 81835;
0144103200999992000081805004+51920+008290FM-12+0072ETUO V0209999C000019999999N0150001N1+01371+01181101551ADDGA1021+042009039GF107991071001999999071999MD1210031+9999REMSYN076AAXX  18054 10320 42965 70000 10137 20118 40155 52003 8707/ 333 82364 87366;
0193103200999992000082110504+51920+008290FM-15+0072ETUO V0202701N002110096019N0112651N1+01501+01201999999ADDGA1021+004809999GA2021+007509999GA3071+009609999GF107991999999999999999999MA1101491999999MW1001REMMET067ETUO 211050Z 27004KT 9999 FEW016 SCT025 BKN032 15/12 Q1015 BLU BLU;EQDQ01+000000PRSWM2
0166103200999992000082222504+51920+008290FM-15+0072ETUO V0209999C000010750019N0112651N1+01301+01001999999ADDGA1021+009009999GA2071+075009999GF107991999999999999999999MA1102201999999MW1001REMMET056ETUO 222250Z 00000KT 9999 FEW030 BKN250 13/10 Q1022 BLU;EQDQ01+000000PRSWM2
0138103200999992000082423004+51920+008290FM-12+0072ETUO V0202801N001512200019N0200001N1+01391+00941102281ADDGA1011+036009079GF102991011001999999031021MD1210041+9999REMSYN070AAXX  24234 10320 42970 22803 10139 20094 40228 52004 81032 333 81362;
0170103200999992000082512504+51920+008290FM-15+0072ETUO V0209999C000010108019N0112651N1+02001+01101999999ADDGA1021+009909999GA2071+010809999GF107991999999999999999999MA1102301999999MW1001REMMET060ETUO 251250Z 00000KT 9999 FEW033 BKN036 20/11 Q1023 BLU BLU;EQDQ01+000000PRSWM2
0166103200999992000082804004+51920+008290FM-12+0072ETUO V0202501N003110009019N0018001N1+01481+01391101781ADDAY121011AY221011GA1071+000909069GF107991071061001501999999MD1010011+9999MW1101REMSYN076AAXX  28044 10320 41218 72506 10148 20139 40178 50001 71022 876// 333 87703;
0147103200999992000082908504+51920+008290FM-15+0072ETUO V0201801N001012200019N0112651N1+01701+01301999999ADDGA1021+006009999GF102991999999999999999999MA1102001999999MW1001REMMET053ETUO 290850Z 18002KT 9999 FEW020 17/13 Q1020 BLU BLU;EQDQ01+000000PRSWM2
0138103200999992000082920004+51920+008290FM-12+0072ETUO V0209999C000012200019N0150001N1+01421+01071102021ADDGA1021+075009019GF102991001001999999001021MD1210091+9999REMSYN070AAXX  29204 10320 42965 20000 10142 20107 40202 52009 80002 333 82075;
0178103200999992000083005504+51920+008290FM-15+0072ETUO V0209999C000012200019N0008001N1+00901+00801999999ADDGA1021+000309999GF104991999999999999999999MA1101801999999MW1411REMMET068ETUO 300550Z 00000KT 0800 BCFG SCT001 09/08 Q1018 RED RED BECMG GRN;EQDQ01+000003PRSWM1Q02    003PRSWM1
0184103200999992000090100004+51920+008290FM-12+0072ETUO V0209999C000012200019N0100001N1+01251+01031100901ADDAA199000091GA1031+015009059GF103991031051017501999021MD1810061+9999REMSYN070AAXX  01004 10320 32760 30000 10125 20103 40090 58006 83502 333 83650;EQDQ01  00002PRCP99Q02    003SCOMCG
0102103200999992000090210004+51920+008290FM-12+0072ETUO V0202401N002619999999N0130001N1+01451+01311100191ADDMD1710041+9999REMSYN076AAXX  02104 10320 46/63 /2405 10145 20131 40019 57004 555 7/096 81/16 85/19;
0194103200999992000090709004+51920+008290FM-12+0072ETUO V0203001N005110039019N0200001N1+01471+01301101011ADDAY161031AY221031GA1011+002709079GA2051+003909089GF107991071081002501999999MD1110271+9999MW1021REMSYN088AAXX  07094 10320 41370 73010 10147 20130 40101 51027 70262 878// 333 81709 85813 87650;
0186103200999992000090721504+51920+008290FM-15+0072ETUO V0202501N002610180019N0112651N1+01401+01101999999ADDGA1071+018009999GA2081+030009999GF108991999999999999999999MA1101801999999MW1611REMMET060ETUO 072150Z 25005KT 9999 -RA BKN060 OVC100 14/11 Q1018 BLU;EQDQ01+000003PRSWM1Q02    003PRSWM1
0136103200999992000090818004+51920+008290FM-12+0072ETUO V02099999999999999999N0130001N1+01941+01611102021ADDAA112000791KA1120M+02031MD1210041+9999REMSYN086AAXX  08184 10320 16/63 ///// 10194 20161 40202 52004 69902 333 10203 555 7/098 88/25;
0169103200999992000091021004+51920+008290FM-12+0072ETUO V0209999C000010150019N0050001N1+01631+01511102161ADDGA1051+015009059GF105991051051017501999001MD1710011+9999MW1111REMSYN076AAXX  10214 10320 41750 50000 10163 20151 40216 57001 711// 85500 333 85650;EQDQ01    003SCOMCG
0162103200999992000091720504+51920+008290FM-15+0072ETUO V0209999C000010051019N0020001N1+01401+01401999999ADDGA1071+005109999GF107991999999999999999999MA1101021999999MW1101REMMET052ETUO 172050Z 00000KT 2000 BR BKN017 14/14 Q1010 YLO;EQDQ01+000003PRSWM1Q02    003PRSWM1
0172103200999992000091808004+51920+008290FM-12+0072ETUO V0201401N00211001201CN0030001N1+01431+01321101021ADDAY121999AY221999GA1011+001509079GF108991081051001501999999MD1110011+9999MW1051REMSYN082AAXX  18084 10320 41230 81404 10143 20132 40102 51001 70522 885// 333 81705 88619;
0166103200999992000092502004+51920+008290FM-12+0072ETUO V0201001N002112200019N0080001N1+01101+00841101901ADDAY101999AY201999GA1031+013509059GF103991031051012501001001MD1710041+9999MW1051REMSYN076AAXX  25024 10320 41658 31004 10110 20084 40190 57004 70500 83500 333 83645;
0138103200999992000092516004+51920+008290FM-12+0072ETUO V0202701N002112200019N0300001N1+01821+01041102151ADDGA1011+012009029GF101991011011012501001021MD1710021+9999REMSYN070AAXX  25164 10320 42680 12704 10182 20104 40215 57002 81102 333 81840;
0202103200999992000092618004+51920+008290FM-12+0072ETUO V0201301N003612200019N0120001N1+01651+01381101841ADDAA112000191AY181061AY211061GA1031+042009079GF103991031001999999071001KA1120M+02151MD1310011+9999MW1251REMSYN088AAXX  26184 10320 11962 31307 10165 20138 40184 53001 69922 72581 83070 333 10215 83364;
0138103200999992000092908004+51920+008290FM-12+0072ETUO V0201501N002110390019N0150001N1+01821+01501100561ADDGA1051+039009079GF105991051001999999031001MD1210051+9999REMSYN070AAXX  29084 10320 42965 51504 10182 20150 40056 52005 85030 333 85363;
0096103200999992000092917004+51920+008290FM-12+0072ETUO V0200801N002619999999N0160001N1+02251+01821100271ADDMD1510071+9999REMSYN070AAXX  29174 10320 46/66 /0805 10225 20182 40027 55007 555 7/090 80/99;
0150103200999992000100404004+51920+008290FM-12+0072ETUO V0209999C000012200019N0035001N1+00751+00691102181ADDAY101011AY201011GA1001+999999999GF100991001001999999001001MD1410001+9999MW1111REMSYN060AAXX  04044 10320 41935 00000 10075 20069 40218 54000 71100;
0166103200999992000100505004+51920+008290FM-12+0072ETUO V0201201N001010180019N0080001N1+01041+00971101801ADDAY121999AY221999GA1081+018009059GF108991081051017501999999MD1710151+9999MW1051REMSYN076AAXX  05054 10320 41758 81202 10104 20097 40180 57015 70522 885// 333 88656;
0166103200999992000100613504+51920+008290FM-15+0072ETUO V0202601N004610180019N0112651N1+01301+00801999999ADDGA1021+007509999GA2071+018009999GF107991999999999999999999MA1102101999999MW1001REMMET056ETUO 061350Z 26009KT 9999 FEW025 BKN060 13/08 Q1021 BLU;EQDQ01+000000PRSWM2
0232103200999992000101306004+51920+008290FM-12+0072ETUO V0201601N00211007501CN0060001N1+01091+01031100951ADDAA112002091AY161061AY221061GA1031+006609069GF108991081051008001999999IA1099IA2999+00709KA1120N+00981MD1210271+9999MW1611REMSYN100AAXX  13064 10320 11556 81604 10109 20103 40095 52027 60022 76162 885// 333 20098 31007 83622 87650;
0144103200999992000101703004+51920+008290FM-12+0072ETUO V0202101N00211007501CN0250001N1+01111+00871101741ADDGA1041+006009069GF107991071051008001999999MD1210191+9999REMSYN076AAXX  17034 10320 42575 72104 10111 20087 40174 52019 875// 333 84620 87650;
0101103200999992000101813504+51920+008290FM-15+0072ETUO V0201801N00361220001CN0099001N1+01501+00301999999ADDMA1102301999999MW1001REMMET049ETUO 181350Z 18007KT CAVOK 15/03 Q1023 BLU NOSIG;EQDQ01+000000PRSWM2
0196103200999992000102300004+51920+008290FM-12+0072ETUO V0209999C000012200019N0120001N1+00971+00871102611ADDAA199000091AY101061AY201061GA1011+075009019GF101991001001999999001011MD1810071+9999MW1111REMSYN076AAXX  23004 10320 31962 10000 10097 20087 40261 58007 71100 80001 333 81075;EQDQ01  00002PRCP99
0144103200999992000102523004+51920+008290FM-12+0072ETUO V0202401N00511004201CN0120001N1+01291+01001100821ADDGA1031+005409069GF108991081051004501999999MD1310031+9999REMSYN076AAXX  25234 10320 42462 82410 10129 20100 40082 53003 885// 333 83618 88650;
0162103200999992000102701504+51920+008290FM-15+0072ETUO V0202401N005112200019N0080001N1+00801+00601999999ADDGA1021+024009999GF102991999999999999999999MA1101391999999MW1051REMMET052ETUO 270150Z 24010KT 8000 HZ FEW080 08/06 Q1014 BLU;EQDQ01+000003PRSWM1Q02    003PRSWM1
0163103200999992000103002504+51920+008290FM-15+0072ETUO V0202101N008710105019N0112651N1+01301+00501999999ADDGA1081+010509999GF108991999999999999999999MA1100001999999MW1611REMMET053ETUO 300250Z 21017KT 9999 -RA OVC035 13/05 Q1000 BLU;EQDQ01+000003PRSWM1Q02    003PRSWM1
0122103200999992000110122004+51920+008290FM-12+0072ETUO V0202101N004112200019N0300001N1+00641+00421100181ADDGA1001+999999999GF100991001001999999001001MD1210141+9999REMSYN054AAXX  01224 10320 42980 02108 10064 20042 40018 52014;
0188103200999992000110218504+51920+008290FM-15+0072ETUO V0201701N005110150019N0112651N1+01101+00701999999ADDGA1081+015009999GF108991999999999999999999MA1099391999999MW1611REMMET078ETUO 021850Z 17010KT 9999 -RA OVC050 11/07 Q0994 BLU TEMPO 7000 RA SCT022 WHT;EQDQ01+000003PRSWM1Q02    003PRSWM1
0101103200999992000110311504+51920+008290FM-15+0072ETUO V0201701N00261220001CN0099001N1+01001+00601999999ADDMA1099801999999MW1001REMMET049ETUO 031150Z 17005KT CAVOK 10/06 Q0998 BLU NOSIG;EQDQ01+000000PRSWM2
0144103200999992000110902004+51920+008290FM-12+0072ETUO V0201901N00461012001CN0300001N1+00801+00501099851ADDGA1031+010509069GF107991071051012501999999MD1210151+9999REMSYN076AAXX  09024 10320 42680 71909 10080 20050 49985 52015 875// 333 83635 87645;
0189103200999992000111000504+51920+008290FM-15+0072ETUO V0202201N006210150019N0112651N1+00801+00301999999ADDGA1021+009609999GA2071+015009999GA3071+045009999GF107991999999999999999999MA1101021999999MW1001REMMET063ETUO 100050Z 22012KT 9999 SCT032 BKN050 BKN150 08/03 Q1010 BLU;EQDQ01+000000PRSWM2
0172103200999992000111013504+51920+008290FM-15+0072ETUO V0202401N006210660019N0112651N1+01001+00201999999ADDGA1021+010509999GA2071+066009999GF107991999999999999999999MA1101491999999MW1001REMMET062ETUO 101350Z 24012KT 9999 SCT035 BKN220 10/02 Q1015 BLU NOSIG;EQDQ01+000000PRSWM2
0096103200999992000111204004+51920+008290FM-12+0072ETUO V0201401N005119999999N0130001N1+00461+00101101061ADDMD1710231+9999REMSYN070AAXX  12044 10320 46/63 /1410 10046 20010 40106 57023 555 7/090 80/99;
0194103200999992000111301004+51920+008290FM-12+0072ETUO V0201601N004610084019N0120001N1+00961+00881099821ADDAY161011AY261011GA1031+006609069GA2031+008409069GF108991081051008001999999MD1810071+9999MW1611REMSYN088AAXX  13014 10320 41562 81609 10096 20088 49982 58007 76166 885// 333 83622 83628 88650;
0172103200999992000112011004+51920+008290FM-12+0072ETUO V0202101N00571009001CN0400001N1+00731+00211100141ADDAY181999AY221999GA1021+005409089GF107991071081004501999999MD1210191+9999MW1251REMSYN082AAXX  20114 10320 41482 72111 10073 20021 40014 52019 72582 878// 333 82818 87627;
0172103200999992000112011504+51920+008290FM-15+0072ETUO V0202101N006212200019N0112651N1+00901+00201999999ADDGA1021+006009999GA2021+013509999GF104991999999999999999999MA1100101999999MW1001REMMET062ETUO 201150Z 21012KT 9999 FEW020 SCT045 09/02 Q1001 BLU NOSIG;EQDQ01+000000PRSWM2
0226103200999992000112206004+51920+008290FM-12+0072ETUO V0202001N002112200019N0250001N1+00611+00431100501ADDAA112002091AY161061AY211061GA1011+009009029GF101991011081012501001011IA1099IA2999-00109KA1120N+00281MD1210251+9999MW1021REMSYN094AAXX  22064 10320 11675 12004 10061 20043 40050 52025 60022 70261 81801 333 20028 31101 81830;
0200103200999992000112311504+51920+008290FM-15+0072ETUO V0201201N005710150019N0080001N1+00901+00801999999ADDGA1021+006009999GA2071+015009999GF107991999999999999999999MA1100411999999MW1631REMMET074ETUO 231150Z 12011KT 8000 RA FEW020 BKN050 09/08 Q1004 BLU TEMPO 7000 WHT;EQDQ01+000003PRSWM1Q02    003PRSWM1
0172103200999992000112803004+51920+008290FM-12+0072ETUO V0201201N00361012001CN0150001N1+00631+00391101421ADDAY161031AY221031GA1021+012009069GF108991081051012501999999MD1810221+9999MW1211REMSYN082AAXX  28034 10320 41665 81207 10063 20039 40142 58022 72162 885// 333 82640 88650;
0202103200999992000112811504+51920+008290FM-15+0072ETUO V0202301N003610030019N0070001N1+01201+01101999999ADDGA1021+002109999GA2081+003009999GF108991999999999999999999MA1101191999999MW1051REMMET076ETUO 281150Z 23007KT 7000 HZ SCT007 OVC010 12/11 Q1012 GRN BECMG BKN015 WHT;EQDQ01+000003PRSWM1Q02    003PRSWM1
0095103200999992000120604504+51920+008290FM-15+0072ETUO V0201301N00411220001CN0099001N1+00801+00601999999ADDMA1101291999999MW1001REMMET043ETUO 060450Z 13008KT CAVOK 08/06 Q1013 BLU;EQDQ01+000000PRSWM2
0172103200999992000120723004+51920+008290FM-12+0072ETUO V0201301N004610144019N0150001N1+00921+00751100201ADDAY161999AY261999GA1051+014409069GF108991051051012501071999MD1610221+9999MW1611REMSYN082AAXX  07234 10320 41665 81309 10092 20075 40020 56022 76166 8557/ 333 85648 88357;
0101103200999992000121114504+51920+008290FM-15+0072ETUO V0202201N00461220001CN0099001N1+01301+00701999999ADDMA1101801999999MW1001REMMET049ETUO 111450Z 22009KT CAVOK 13/07 Q1018 BLU NOSIG;EQDQ01+000000PRSWM2
0199103200999992000121201504+51920+008290FM-15+0072ETUO V0202301N006210021019N0030001N1+01201+01201999999ADDGA1021+001509999GA2081+002109999GF108991999999999999999999MA1101491999999MW1531MW2631REMMET067ETUO 120150Z 23012KT 3000 RADZ FEW005 OVC007 12/12 Q1015 SPECI YLO;EQDQ01+000003PRSWM1Q02    003PRSWM1
0183103200999992000121305504+51920+008290FM-15+0072ETUO V0202401N012912200019N0112651N1+01301+00701999999ADDGA1021+010509999GA2021+060009999GF104991999999999999999999MA1100611999999MW1001OC102261REMMET065ETUO 130550Z 24025G44KT 9999 FEW035 SCT200 13/07 Q1006 BLU NOSIG;EQDQ01+000000PRSWM2
0160103200999992000121319504+51920+008290FM-15+0072ETUO V0202301N008712200019N0112651N1+01001+00601999999ADDGA1021+009009999GF102991999999999999999999MA1100711999999MW1001OC101391REMMET058ETUO 131950Z 23017G27KT 9999 FEW030 10/06 Q1007 SPECI BLU;EQDQ01+000000PRSWM2
0154103200999992000121321504+51920+008290FM-15+0072ETUO V0202401N010312200019N0112651N1+01001+00501999999ADDGA1021+009009999GF104991999999999999999999MA1100611999999MW1001OC101751REMMET052ETUO 132150Z 24020G34KT 9999 SCT030 10/05 Q1006 BLU;EQDQ01+000000PRSWM2
0230103200999992000121418004+51920+008290FM-12+0072ETUO V0202201N004110144019N0300001N1+00711+00521100131ADDAA112002091AY181061AY261061GA1021+008409069GA2051+014409069GF107991051051008001021999KA1120M+00921MD1610111+9999MW1211REMSYN100AAXX  14184 10320 11580 72208 10071 20052 40013 56011 60022 72186 8552/ 333 10092 82628 85648 87460;
0168103200999992000121509504+51920+008290FM-15+0072ETUO V0202601N009810030019N0070001N1+00501+00401999999ADDGA1071+003009999GF107991999999999999999999MA1099701999999MW1631REMMET058ETUO 150950Z 26019KT 7000 RA BKN010 05/04 Q0997 GRN NOSIG;EQDQ01+000003PRSWM1Q02    003PRSWM1
0200103200999992000121514004+51920+008290FM-12+0072ETUO V0202701N008210054019N0200001N1+00631+00421100001ADDAY181999AY221999GA1011+004509079GA2071+005409089GF108991081081004501999999MD1310161+9999MW1801REMSYN094AAXX  15144 10320 41470 82716 10063 20042 40000 53016 78082 888// 333 81715 87818 90710 91128;
0096103200999992000121621004+51920+008290FM-12+0072ETUO V0202601N007219999999N0090001N1+00331+00151101041ADDMD1210091+9999REMSYN070AAXX  16214 10320 46/59 /2614 10033 20015 40104 52009 555 7/097 87/11;
0096103200999992000122209004+51920+008290FM-12+0072ETUO V02099999999999999999N0100001N1-00211-00881102191ADDMD1710081+9999REMSYN070AAXX  22094 10320 46/60 ///04 11021 21088 40219 57008 555 7/090 80/99;
0096103200999992000122407004+51920+008290FM-12+0072ETUO V02099999999999999999N0022001N1-00381-00461100521ADDMD1710191+9999REMSYN070AAXX  24074 10320 46/22 ///// 11038 21046 40052 57019 555 7/092 82/66;
0096103200999992000122507004+51920+008290FM-12+0072ETUO V02099999999999999999N0020001N1-00081-00141099881ADDMD1710011+9999REMSYN070AAXX  25074 10320 46/20 ///// 11008 21014 49988 57001 555 7/098 88/06;
0096103200999992000122721004+51920+008290FM-12+0072ETUO V0209999C000019999999N0060001N1+00201+00151099021ADDMD1210031+9999REMSYN070AAXX  27214 10320 46/56 /0000 10020 20015 49902 52003 555 7/098 88/12;
0096103200999992000123004004+51920+008290FM-12+0072ETUO V0202201N006219999999N0060001N1+00101+00071099541ADDMD1710101+9999REMSYN070AAXX  30044 10320 46/56 /2212 10010 20007 49954 57010 555 7/097 87/14;
0108103200999992000123117004+51920+008290FM-12+0072ETUO V0201601N002119999999N0050001N1+00111+00101101651ADDMD1710051+9999REMSYN082AAXX  31174 10320 46/50 /1604 10011 20010 40165 57005 555 7/098 81/09 85/13 87/21;
0171103210999992000010513204+52580+008350FM-15+0043ETND V0202201N004610750019N0112651N1+00601+00201999999ADDGA1021+004509999GA2071+075009999GF107991999999999999999999MA1102001999999MW1001REMMET061ETND 051320Z 22009KT 9999 FEW015 BKN250 06/02 Q1020 BLU+BLU+;EQDQ01+000000PRSWM2
0171103210999992000010607204+52580+008350FM-15+0043ETND V0201801N004112200019N0112651N1+00201+00101999999ADDGA1021+009009999GA2021+075009999GF104991999999999999999999MA1101491999999MW1001REMMET061ETND 060720Z 18008KT 9999 FEW030 SCT250 02/01 Q1015 BLU+BLU+;EQDQ01+000000PRSWM2
0171103210999992000010810004+52580+008350FM-12+0043ETND V0202301N00361002101CN0350001N1+00661+00291101661ADDGA1031+002409079GF107991071051002501999999MA1999999101131MD1210041+9999REMSYN088AAXX  08104 10321 42381 72307 10066 20029 30113 40166 52004 875// 333 55300 83708 87628;
0193103210999992000010814004+52580+008350FM-12+0043ETND V0202201N003110021019N0090001N1+00641+00481101681ADDAY151999AY221999GA1071+002109069GF108991071071002501999999MA1999999101151MD1310031+9999MW1511REMSYN088AAXX  08144 10321 41359 82206 10064 20048 30115 40168 53003 75152 877// 333 55300 87707;
0187103210999992000010922004+52580+008350FM-12+0043ETND V0202101N000510001519N0001001N1-00051-00071103031ADDAY141999AY241999GA1091+000159999GF109991091999999999999999MA1999999102481MD1110211+9999MW1451REMSYN082AAXX  09224 10321 41/01 92101 11005 21007 30248 40303 51021 74544 333 55300 89/00;
0148103210999992000011408204+52580+008350FM-15+0043ETND V0201501N002110057019N0060001N1+00101-00101999999ADDGA1071+005709999GF107991999999999999999999MA1101901999999MW1001REMMET054ETND 140820Z 15004KT 6000 BKN019 01/M01 Q1019 WHT WHT;EQDQ01+000000PRSWM2
0203103210999992000011704004+52580+008350FM-12+004399999V0203001N003110015019N0060001N1+00681+00561102571ADDAY151999AY221999GA1071+001509079GF108991071071001501999999MA1999999102041MD1610201+9999MW1511REMSYN098    AAXX  17044 10321 41256 83006 10068 20056 30204 40257 56020 75152 877// 333 55300 87705 91113;
0203103210999992000011708004+52580+008350FM-12+004399999V0203101N003110015019N0060001N1+00651+00551102511ADDAY151999AY251999GA1071+001509079GF108991071071001501999999MA1999999101981MD1610071+9999MW1511REMSYN098    AAXX  17084 10321 41256 83106 10065 20055 30198 40251 56007 75155 877// 333 55300 87705 96010;
0172103210999992000011909204+52580+008350FM-15+0043ETND V0203101N002612200019N0112651N1+00101-00101999999ADDGA1021+009009999GA2021+012009999GF104991999999999999999999MA1102711999999MW1001REMMET062ETND 190920Z 31005KT 9999 FEW030 SCT040 01/M01 Q1027 BLU+BLU+;EQDQ01+000000PRSWM2
0199103210999992000012010004+52580+008350FM-12+0043ETND V0202701N003110021019N0150001N1+00441+00321102571ADDAY161999AY221999GA1061+002109079GF108991071051002501999999MA1999999102031MD1610131+9999MW1581REMSYN094AAXX  20104 10321 41365 82706 10044 20032 30203 40257 56013 75862 875// 333 55300 86707 87614;
0221103210999992000012104004+52580+008350FM-12+0043ETND V0203001N004110066019N0200001N1+00611+00301101761ADDAY161999AY261999GA1021+004509069GA2071+006609069GF108991071051004501999999MA1999999101231MD1810131+9999MW1611REMSYN100AAXX  21044 10321 41470 83008 10061 20030 30123 40176 58013 76166 875// 333 55300 82615 87622 91117;
0221103210999992000012105004+52580+008350FM-12+0043ETND V0203101N004110015019N0080001N1+00611+00321101741ADDAY161999AY261999GA1051+001509079GA2071+004509069GF108991071051001501999999MA1999999101211MD1610131+9999MW1581REMSYN100AAXX  21054 10321 41258 83108 10061 20032 30121 40174 56013 75866 875// 333 55300 85705 87615 91117;
0171103210999992000012423004+52580+008350FM-12+0043ETND V0201801N000519999999N0150001N1-00471-00591102661ADDGA1021+030009039GF106991021001999999031011MA1999999102101MD1710011+9999REMSYN088AAXX  24234 10321 42965 61801 11047 21059 30210 40266 57001 82031 333 55300 82360 86073;
0165103210999992000012513004+52580+008350FM-12+0043ETND V0202201N002112200019N0120001N1+00091-00481102801ADDGA1011+075009019GF101991001001999999001011MA1999999102251MD1810031+9999REMSYN082AAXX  25134 10321 42962 12204 10009 21048 30225 40280 58003 80001 333 55310 81075;
0186103210999992000012615204+52580+008350FM-15+0043ETND V0202601N004610006019N0015001N1+00301+00301999999ADDGA1081+000609999GF108991999999999999999999MA1102811999999MW1101MW2511REMMET070ETND 261520Z 26009KT 1500 -DZ BR OVC002 03/03 Q1028 AMB YLO TEMPO AMB;EQDQ01+000003PRSWM1Q02    003PRSWM1
0195103210999992000020612004+52580+008350FM-12+0043ETND V0202201N002610660019N0150001N1+00871+00481101971ADDAA199000091GA1071+066009019GF107991001001999999001021MA1999999101441MD1810051+9999REMSYN082AAXX  06124 10321 32965 72205 10087 20048 30144 40197 58005 80002 333 55302 87072;EQDQ01  00002PRCP99
0171103210999992000020614004+52580+008350FM-12+0043ETND V0202301N00261030001CN0120001N1+00971+00581101891ADDGA1041+011409069GF107991041051012501031021MA1999999101371MD1610121+9999REMSYN088AAXX  06144 10321 42662 72305 10097 20058 30137 40189 56012 84532 333 55306 84638 87072;
0309103210999992000021106004+52580+008350FM-12+0043ETND V0202701N002612200019N0250001N1+00441+00171102371ADDAA112003091AA224003991AY161061AY211061GA1031+010209069GF103991031051012501001001GJ100789IA1099IA2999+00209KA1120M+00691KA2120N+00351MA1999999101831MD1310301+9999MW1011REMSYN130AAXX  11064 10321 11675 32705 10044 20017 30183 40237 53030 60032 70161 83500 333 10069 20035 31002 55013 55300 70039 83634 96460;
0165103210999992000021211004+52580+008350FM-12+0043ETND V0202101N003612200019N0300001N1+00521+00121101951ADDGA1011+007509029GF101991011081008001031011MA1999999101421MD1810281+9999REMSYN082AAXX  12114 10321 42580 12107 10052 20012 30142 40195 58028 81831 333 55305 81825;
0171103210999992000022219004+52580+008350FM-12+0043ETND V0202601N00151009001CN0400001N1+00421+00271102391ADDGA1011+005409089GF107991071081004501999999MA1999999101851MD1210071+9999REMSYN088AAXX  22194 10321 42482 72603 10042 20027 30185 40239 52007 878// 333 55300 81818 87629;
0193103210999992000022304004+52580+008350FM-12+0043ETND V0201401N000510150019N0010001N1+00071+00071102461ADDAY121999AY221999GA1071+015009059GF107991071051017501999999MA1999999101911MD1810011+9999MW1101REMSYN088AAXX  23044 10321 41710 71401 10007 20007 30191 40246 58001 71022 875// 333 55300 87650;
0153103210999992000022523004+52580+008350FM-12+0043ETND V0202701N002612200019N0250001N1+00311+00121102891ADDGA1001+999999999GF100991001001999999001001MA1999999102351MD1310081+9999REMSYN070AAXX  25234 10321 42975 02705 10031 20012 30235 40289 53008 333 55300;
0255103210999992000030809004+52580+008350FM-12+0043ETND V0202501N005710027019N0045001N1+01071+00941101301ADDAY161031AY261031GA1031+002109079GA2071+002709079GF108991071071002501999999MA1999999100781MD1610091+9999MW1601OA149900821OA259900571REMSYN112AAXX  08094 10321 41345 82511 10107 20094 30078 40130 56009 76066 877// 333 55300 83707 87709 91116 91211 96463;
0165103210999992000031203004+52580+008350FM-12+0043ETND V0203001N000510075019N0250001N1+00441+00011102431ADDGA1071+007509059GF108991071051008001999999MA1999999101891MD1110191+9999REMSYN082AAXX  12034 10321 42575 83001 10044 20001 30189 40243 51019 875// 333 55300 87625;
0178103210999992000031405204+52580+008350FM-15+0043ETND V0202501N006710018019N0020001N1+00901+00801999999ADDGA1071+001809999GF107991999999999999999999MA1101591999999MW1101MW2511MW3611REMMET072ETND 140520Z 25013KT 2000 -RADZ BR BKN006 09/08 Q1016 YLO YLO TEMPO AMB;EQDQ01+000003PRSWM1
0199103210999992000031803004+52580+008350FM-12+0043ETND V0203201N002110012019N0070001N1+00661+00591102541ADDAY151031AY251031GA1051+001209079GF108991071071001501999999MA1999999102011MD1810051+9999MW1501REMSYN094AAXX  18034 10321 41257 83204 10066 20059 30201 40254 58005 75055 877// 333 55300 85704 87707;
0199103210999992000031810004+52580+008350FM-12+0043ETND V0203101N001510009019N0040001N1+00671+00671102521ADDAY151999AY221999GA1071+000909079GF108991081071001501999999MA1999999101991MD1810011+9999MW1201REMSYN094AAXX  18104 10321 41240 83103 10067 20067 30199 40252 58001 72052 887// 333 55300 87703 96010;
0167103210999992000032305424+52580+008350FM-16+0043ETND V0203501N000512200019N0006001N1+00101+00001999999ADDGA1021+075009999GF102991999999999999999999MA1101491999999MW1441REMMET057ETND 230542Z 35001KT 0600 FG FEW250 01/M00 Q1015 RED RED;EQDQ01+000003PRSWM1Q02    003PRSWM1
0226103210999992000032618004+52580+008350FM-12+0043ETND V0200301N00101007501CN0350001N1+00731+00171100791ADDAA112001091GA1031+009009099GF107991071031008001999999KA1120M+01121KA2120N+00631MA1999999100271MD1610011+9999REMSYN106AAXX  26184 10321 12581 70302 10073 20017 30027 40079 56001 60012 873// 333 10112 20063 55300 83930 85650;
0178103210999992000032807204+52580+008350FM-15+0043ETND V0200101N002110030019N0050001N1+00201+00101999999ADDGA1071+003009999GF107991999999999999999999MA1101491999999MW1101MW2511MW3611REMMET072ETND 280720Z 01004KT 5000 -RADZ BR BKN010 02/01 Q1015 GRN GRN TEMPO YLO;EQDQ01+000003PRSWM1
0222103210999992000033108204+52580+008350FM-15+0043ETND V0203101N001510054019N0050001N1+00501+00301999999ADDGA1021+003609999GA2071+005409999GA3071+008409999GF107991999999999999999999MA1100611999999MW1101REMMET080ETND 310820Z 31003KT 5000 BR SCT012 BKN018 BKN028 05/03 Q1006 WHT WHT TEMPO YLO;EQDQ01+000003PRSWM1Q02    003PRSWM1
0193103210999992000040504004+52580+008350FM-12+0043ETND V0203601N002610045019N0300001N1+00391+00161100171ADDGA1021+003609079GA2051+004509069GF107991071051004501999999MA1999999099641MD1310261+9999REMSYN094AAXX  05044 10321 42480 73605 10039 20016 39964 40017 53026 875// 333 55300 82712 85615 87623;
0171103210999992000040822004+52580+008350FM-12+0043ETND V0200801N001510300019N0200001N1+00701+00281102001ADDGA1051+030009039GF107991051001999999031021MA1999999101471MD1810091+9999REMSYN088AAXX  08224 10321 42970 70803 10070 20028 30147 40200 58009 85032 333 55300 85360 87075;
0204103210999992000041315304+52580+008350FM-15+0043ETND V0202801N002110036019N0050001N1+00501+00401999999ADDGA1021+002409099GA2071+003609999GF107991999999999999999999MA1099391999999MW1801REMMET078ETND 131530Z 28004KT 5000 -SHRA FEW008CB BKN012 05/04 Q0994 GRN BLU+TEMPO AMB;EQDQ01+000003PRSWM1Q02    003PRSWM1
0193103210999992000041402004+52580+008350FM-12+0043ETND V0202301N00261220001CN0150001N1+00501+00331099671ADDGA1011+004509089GA2031+008409069GF106991031081004501001011MA1999999099151MD1310151+9999REMSYN094AAXX  14024 10321 42465 62305 10050 20033 39915 49967 53015 83801 333 55300 81815 83628 85075;
0238103210999992000041612004+52580+008350FM-12+0043ETND V0202301N004110138019N0300001N1+00921+00201100131ADDAA106000791AY161061AY221061GA1021+009609089GA2051+013809069GF106991061081012501001001MA1999999099611MD1110041+9999MW1021REMSYN106AAXX  16124 10321 11680 62308 10092 20020 39961 40013 51004 69901 70262 86800 333 55300 82832 85646 96460;
0153103210999992000041921004+52580+008350FM-12+0043ETND V0201101N001512200019N0120001N1+00971+00771101321ADDGA1001+999999999GF100991001001999999001001MA1999999100801MD1110131+9999REMSYN070AAXX  19214 10321 42962 01103 10097 20077 30080 40132 51013 333 55300;
0165103210999992000042001004+52580+008350FM-12+0043ETND V0202001N000512200019N0130001N1+00761+00761101461ADDGA1041+014109059GF104991041051012501001001MA1999999100931MD1310091+9999REMSYN082AAXX  20014 10321 42663 42001 10076 20076 30093 40146 53009 84500 333 55300 84647;
0193103210999992000042209004+52580+008350FM-12+0043ETND V0201001N003610690019N0100001N1+01481+01071101351ADDGA1011+014109069GA2071+069009029GF107991011051012501081061MA1999999100841MD1810251+9999REMSYN094AAXX  22094 10321 42660 71007 10148 20107 30084 40135 58025 81586 333 55301 81647 87273 99020;
0254103210999992000042218004+52580+008350FM-12+0043ETND V0203001N001510150019N0350001N1+02011+01101100871ADDAA112000791AY161061AY221061GA1061+015009069GF107991061051017501071999KA1120M+02311KA2120N+00981MA1999999100371MD1210031+9999MW1601REMSYN112AAXX  22184 10321 11781 73003 10201 20110 30037 40087 52003 69902 76062 8657/ 333 10231 20098 55300 86650 87360;
0171103210999992000042712204+52580+008350FM-15+0043ETND V0201001N004612200019N0112651N1+02201+01501999999ADDGA1021+036009999GA2021+075009999GF104991999999999999999999MA1101081999999MW1001REMMET061ETND 271220Z 10009KT 9999 FEW120 SCT250 22/15 Q1011 BLU+BLU+;EQDQ01+000000PRSWM2
0165103210999992000050205204+52580+008350FM-15+0043ETND V0203601N00211000151CN0008001N1+01101+01101999999ADDGA1091+000159999GF109991999999000251999999MA1102101999999MW1451REMMET055ETND 020520Z 36004KT 0800 FG VV001 11/11 Q1021 RED RED;EQDQ01+000003PRSWM1Q02    003PRSWM1
0148103210999992000050804204+52580+008350FM-15+0043ETND V0200701N002112200019N0112651N1+01401+00901999999ADDGA1021+004509999GF102991999999999999999999MA1101691999999MW1001REMMET054ETND 080420Z 07004KT 9999 FEW015 14/09 Q1017 BLU+BLU+;EQDQ01+000000PRSWM2
0167103210999992000050819204+52580+008350FM-15+0043ETND V0200501N001512200019N0112651N1+02001+01201999999ADDGA1021+012009999GA2021+075009999GF104991999999999999999999MA1101801999999MW1001REMMET057ETND 081920Z 05003KT 9999 FEW040 SCT250 20/12 Q1018 BLU+;EQDQ01+000000PRSWM2
0165103210999992000051108004+52580+008350FM-12+0043ETND V0200801N002110750019N0200001N1+01811+00821101981ADDGA1061+075009019GF106991001001999999001011MA1999999101471MD1010041+9999REMSYN082AAXX  11084 10321 42970 60804 10181 20082 30147 40198 50004 80001 333 55310 86075;
0153103210999992000051301004+52580+008350FM-12+0043ETND V0200901N002612200019N0400001N1+01051+00391102451ADDGA1001+999999999GF100991001001999999001001MA1999999101921MD1010021+9999REMSYN070AAXX  13014 10321 42982 00905 10105 20039 30192 40245 50002 333 55300;
0148103210999992000051604204+52580+008350FM-15+0043ETND V0201201N001010840019N0112651N1+01301+01001999999ADDGA1071+084009999GF107991999999999999999999MA1101491999999MW1001REMMET054ETND 160420Z 12002KT 9999 BKN280 13/10 Q1015 BLU+BLU+;EQDQ01+000000PRSWM2
0194103210999992000051805204+52580+008350FM-15+0043ETND V0202101N003610690019N0112651N1+01101+00601999999ADDGA1021+006009999GA2021+030009999GA3071+069009999GF107991999999999999999999MA1100711999999MW1001REMMET068ETND 180520Z 21007KT 9999 FEW020 SCT100 BKN230 11/06 Q1007 BLU+BLU+;EQDQ01+000000PRSWM2
0193103210999992000052321004+52580+008350FM-12+0043ETND V0201801N00151030001CN0350001N1+01541+01061101501ADDGA1011+013509069GA2031+030009039GF108991011051012501031071MA1999999100991MD1610061+9999REMSYN094AAXX  23214 10321 42681 81803 10154 20106 30099 40150 56006 81537 333 55300 81645 83360 88270;
0210103210999992000052708004+52580+008350FM-12+0043ETND V0202401N005110300019N0450001N1+01301+00621100781ADDGA1031+009909089GA2061+030009049GF106991031011012501011999MA1999999100271MD1110421+9999OA149900771REMSYN100AAXX  27084 10321 42683 62410 10130 20062 30027 40078 51042 8311/ 333 55300 83833 86460 91115 91212;
0171103210999992000052907204+52580+008350FM-15+0043ETND V0202501N008212200019N0112651N1+01101+00601999999ADDGA1021+006609999GA2021+075009999GF104991999999999999999999MA1100711999999MW1001REMMET061ETND 290720Z 25016KT 9999 SCT022 SCT250 11/06 Q1007 BLU+BLU+;EQDQ01+000000PRSWM2
0225103210999992000052910594+52580+008350FM-16+0043ETND V0202801N007210096019N0050001N1+00901+00501999999ADDGA1021+007509099GA2071+009609029GF107991999999999999999999MA1100911999999MW1801MW2881OC101491REMMET085ETND 291059Z 28014G29KT 5000 SHGSRA FEW025CB BKN032TCU 09/05 Q1009 WHT BLU+TEMPO YLO;EQDQ01+000003PRSWM1Q02    003PRSWM1
0221103210999992000052911004+52580+008350FM-12+0043ETND V0202401N004110096019N0400001N1+01331+00611100861ADDAY121999AY221999GA1011+007509099GA2051+009609089GF106991061031008001001011MA1999999100351MD1310121+9999MW1251REMSYN100AAXX  29114 10321 41582 62408 10133 20061 30035 40086 53012 72522 86301 333 55307 81925 85832 91115;
0165103210999992000053107004+52580+008350FM-12+0043ETND V0200701N000510132019N0200001N1+01031+00741101711ADDGA1061+013209059GF106991061051012501031011MA1999999101191MD1310241+9999REMSYN082AAXX  31074 10321 42670 60701 10103 20074 30119 40171 53024 86531 333 55300 86644;
0171103210999992000060121004+52580+008350FM-12+0043ETND V0201901N00051030001CN0200001N1+01691+01441101861ADDGA1021+018009069GF107991021051017501031999MA1999999101351MD1310071+9999REMSYN088AAXX  01214 10321 42770 71901 10169 20144 30135 40186 53007 8253/ 333 55300 82656 87359;
0171103210999992000060223004+52580+008350FM-12+0043ETND V0200501N001012200019N0080001N1+01421+01261101981ADDGA1011+036009039GF103991011001999999031011MA1999999101461MD1110141+9999REMSYN088AAXX  02234 10321 42958 30502 10142 20126 30146 40198 51014 81031 333 55300 81362 83075;
0147103210999992000060511204+52580+008350FM-15+0043ETND V0200901N003110060019N0112651N1+01801+01301999999ADDGA1071+006009999GF107991999999999999999999MA1101591999999MW1001REMMET053ETND 051120Z 09006KT 9999 BKN020 18/13 Q1016 WHT WHT;EQDQ01+000000PRSWM2
0204103210999992000060512004+52580+008350FM-12+0043ETND V0200801N001510066019N0120001N1+01721+01271101631ADDAA199000021AY121061AY221061GA1071+006609059GF108991071051008001999999MA1999999101121MD1710111+9999MW1611REMSYN088AAXX  05124 10321 31562 80803 10172 20127 30112 40163 57011 76122 875// 333 55300 87622;
0166103210999992000060515204+52580+008350FM-15+0043ETND V0200801N003610045019N0090001N1+01801+01401999999ADDGA1021+003609999GA2071+004509999GF107991999999999999999999MA1101291999999MW1001REMMET056ETND 051520Z 08007KT 9000 SCT012 BKN015 18/14 Q1013 WHT;EQDQ01+000000PRSWM2
0143103210999992000060516204+52580+008350FM-15+0043ETND V0200901N003110039019N0090001N1+01801+01501999999ADDGA1071+003909999GF107991999999999999999999MA1101191999999MW1001REMMET049ETND 051620Z 09006KT 9000 BKN013 18/15 Q1012 GRN;EQDQ01+000000PRSWM2
0165103210999992000060809004+52580+008350FM-12+0043ETND V0201801N001012200019N0200001N1+01471+00901102321ADDGA1031+006009029GF104991031021008001001011MA1999999101801MD1810051+9999REMSYN082AAXX  08094 10321 42570 41802 10147 20090 30180 40232 58005 83201 333 55305 83820;
0165103210999992000061217004+52580+008350FM-12+0043ETND V0202701N002610750019N0200001N1+02111+01121102501ADDGA1061+075009019GF106991001001999999001011MA1999999101991MD1810011+9999REMSYN082AAXX  12174 10321 42970 62705 10211 20112 30199 40250 58001 80001 333 55310 86075;
0221103210999992000061505004+52570+008350FM-12+0043ETND V0203501N001510012019N0030001N1+01361+01361101951ADDAY161999AY261999GA1051+001209079GA2071+002109079GF108991071071001501999999MA1999999101431MD1310061+9999MW1581REMSYN100AAXX  15054 10321 41230 83503 10136 20136 30143 40195 53006 75866 877// 333 55300 85704 87707 96010;
0181103210999992000061903004+52570+008350FM-12+0043ETND V0209999C000012200019N0007001N1+01521+01371102241ADDAY141031AY201031GA1001+999999999GF100991001001999999001001MA1999999101721MD1810111+9999MW1461REMSYN076AAXX  19034 10321 41907 00000 10152 20137 30172 40224 58011 74640 333 55300;
0165103210999992000062008004+52570+008350FM-12+0043ETND V0201901N001012200019N0250001N1+02611+01791101521ADDGA1011+084009019GF101991001001999999001011MA1999999101031MD1210011+9999REMSYN082AAXX  20084 10321 42975 11902 10261 20179 30103 40152 52001 80001 333 55310 81078;
0171103210999992000062911004+52570+008350FM-12+0043ETND V0202801N00361015001CN0500001N1+01391+00591101771ADDGA1041+010509089GF107991071081012501999999MA1999999101251MD1810041+9999REMSYN088AAXX  29114 10321 42684 72807 10139 20059 30125 40177 58004 878// 333 55301 84835 86647;
0153103210999992000063023004+52570+008350FM-12+0043ETND V0203201N001012200019N0450001N1+01081+00751101291ADDGA1001+999999999GF100991001001999999001001MA1999999100771MD1010011+9999REMSYN070AAXX  30234 10321 42983 03202 10108 20075 30077 40129 50001 333 55300;
0201103210999992000070300004+52570+008350FM-12+0043ETND V0200501N001519999999N0200001N1+01811+01371100851ADDAA199000091GA1041+030009039GF108991041001999999031021MA1999999100351MD1810131+9999REMSYN088AAXX  03004 10321 32970 80503 10181 20137 30035 40085 58013 84032 333 55300 84360 87075;EQDQ01  00002PRCP99
0204103210999992000070312004+52570+008350FM-12+0043ETND V0200901N002110300019N0200001N1+02311+01631100871ADDAA199000021GA1021+008409089GA2031+030009039GF107991031081008001031999MA1999999100381MD1610021+9999REMSYN094AAXX  03124 10321 32570 70904 10231 20163 30038 40087 56002 8383/ 333 55307 82828 83360 85075;
0193103210999992000070320004+52570+008350FM-12+0043ETND V0203001N000510300019N0100001N1+01781+01641100821ADDGA1031+010509069GA2031+030009039GF107991031051012501031021MA1999999100321MD1310061+9999REMSYN094AAXX  03204 10321 42660 73001 10178 20164 30032 40082 53006 83532 333 55300 83635 83360 87070;
0180103210999992000071212204+52570+008350FM-15+0043ETND V0202801N007210150019N0112651N1+01501+00901999999ADDGA1021+007209999GA2071+015009999GF107991999999999999999999MA1101081999999MW1001REMMET070ETND 121220Z 28014KT 9999 SCT024 BKN050 15/09 Q1011 BLU BLU TEMPO GRN;EQDQ01+000000PRSWM2
0221103210999992000071322004+52570+008350FM-12+0043ETND V0202501N001510021019N0030001N1+01411+01371100561ADDAY161999AY261999GA1061+002109079GA2071+004209069GF108991071051002501999999MA1999999100051MD1810121+9999MW1581REMSYN100AAXX  13224 10321 41330 82503 10141 20137 30005 40056 58012 75866 875// 333 55300 86707 87614 96263;
0193103210999992000072414004+52570+008350FM-12+0043ETND V0200901N002610300019N0200001N1+02441+01341100541ADDGA1021+012009089GA2031+030009039GF107991021021012501031021MA1999999100051MD1810171+9999REMSYN094AAXX  24144 10321 42670 70905 10244 20134 30005 40054 58017 82232 333 55309 82840 83360 87075;
0165103210999992000081211004+52570+008350FM-12+0043ETND V0202901N001012200019N0120001N1+02141+01401101471ADDGA1031+010809029GF103991031021012501001011MA1999999100971MD1210011+9999REMSYN082AAXX  12114 10321 42662 32902 10214 20140 30097 40147 52001 83201 333 55304 83836;
0199103210999992000081706204+52570+008350FM-15+0043ETND V0201901N003110039019N0045001N1+01801+01701999999ADDGA1021+002109999GA2071+003909999GF107991999999999999999999MA1101021999999MW1101REMMET073ETND 170620Z 19006KT 4500 BR FEW007 BKN013 18/17 Q1010 GRN WHT TEMPO YLO;EQDQ01+000003PRSWM1Q02    003PRSWM1
0171103210999992000082015004+52570+008350FM-12+0043ETND V0202101N00051030001CN0350001N1+02161+01201101341ADDGA1011+014109089GF107991021081012501031021MA1999999100841MD1710041+9999REMSYN088AAXX  20154 10321 42681 72101 10216 20120 30084 40134 57004 82832 333 55300 81847 87075;
0171103210999992000082107004+52570+008350FM-12+0043ETND V0203301N00151009001CN0200001N1+01281+01141101261ADDGA1011+003009089GF108991071081004501999999MA1999999100741MD1110201+9999REMSYN088AAXX  21074 10321 42470 83303 10128 20114 30074 40126 51020 878// 333 55300 81810 87628;
0254103210999992000082218004+52570+008350FM-12+0043ETND V0200601N00101007501CN0080001N1+01521+01201102141ADDAA112000791AY191061AY281061GA1021+009009099GF107991051091008001031021KA1120M+01951KA2120N+01191MA1999999101621MD1310041+9999MW1171REMSYN112AAXX  22184 10321 11558 70602 10152 20120 30162 40214 53004 69902 71798 85932 333 10195 20119 55300 82930 84640;
0165103210999992000082520004+52570+008350FM-12+0043ETND V0200601N000512200019N0300001N1+01601+01081102261ADDGA1021+081009019GF102991001001999999001011MA1999999101711MD1310011+9999REMSYN082AAXX  25204 10321 42980 20601 10160 20108 30171 40226 53001 80001 333 55300 82077;
0144103210999992000082813204+52570+008350FM-15+0043ETND V0202601N004612200019N0112651N1+02001+01301999999ADDGA1021+010509999GF104991999999999999999999MA1101801999999MW1001REMMET050ETND 281320Z 26009KT 9999 SCT035 20/13 Q1018 BLU+;EQDQ01+000000PRSWM2
0144103210999992000083016204+52570+008350FM-15+0043ETND V0203301N002612200019N0112651N1+01901+01101999999ADDGA1021+012909999GF104991999999999999999999MA1101591999999MW1001REMMET050ETND 301620Z 33005KT 9999 SCT043 19/11 Q1016 BLU+;EQDQ01+000000PRSWM2
0181103210999992000091111204+52570+008350FM-15+0043ETND V0200301N002110045019N0090001N1+01701+01401999999ADDGA1021+003909999GA2071+004509999GF107991999999999999999999MA1102001999999MW1001REMMET071ETND 111120Z 03004KT 9000 FEW013 BKN015 17/14 Q1020 WHT WHT BECMG BLU+;EQDQ01+000000PRSWM2
0165103210999992000091123004+52570+008350FM-12+0043ETND V0201101N001510750019N0200001N1+01451+01381101561ADDGA1051+075009019GF105991001001999999001011MA1999999101051MD1810101+9999REMSYN082AAXX  11234 10321 42970 51103 10145 20138 30105 40156 58010 80001 333 55300 85075;
0303103210999992000091306004+52570+008350FM-12+0043ETND V0202401N001510018019N0025001N1+01401+01401100991ADDAA112000791AA224999929AY111061AY211061GA1071+001809069GF107991071061002501999999GJ103429IA1099IA2999+01209KA1120M+02311KA2120N+01281MA1999999100481MD1510011+9999MW1101REMSYN124AAXX  13064 10321 11325 72403 10140 20140 30048 40099 55001 69902 71011 876// 333 10231 20128 31012 55057 55300 79999 87706;
0167103210999992000091418204+52570+008350FM-15+0043ETND V0201301N001010750019N0112651N1+01701+01401999999ADDGA1021+018009999GA2071+075009999GF107991999999999999999999MA1101591999999MW1001REMMET057ETND 141820Z 13002KT 9999 SCT060 BKN250 17/14 Q1016 BLU+;EQDQ01+000000PRSWM2
0221103210999992000091603004+52570+008350FM-12+0043ETND V0201001N003110300019N0070001N1+01461+01381100281ADDAY191031AY221031GA1011+009009099GA2041+030009039GF107991011091008001031081MA1999999099771MD1610371+9999MW1171REMSYN100AAXX  16034 10321 41557 71006 10146 20138 39977 40028 56037 71792 81938 333 55300 81930 84360 87275;
0171103210999992000092020004+52570+008350FM-12+0043ETND V0201001N003610300019N0150001N1+01031+00691101131ADDGA1051+030009039GF107991051001999999071021MA1999999100611MD1010041+9999REMSYN088AAXX  20204 10321 42965 71007 10103 20069 30061 40113 50004 85072 333 55300 85360 87075;
0227103210999992000092612524+52570+008350FM-16+0043ETND V0201401N003110045019N0045001N1+01601+01501999999ADDGA1021+001509999GA2071+004509999GA3071+018009999GF107991999999999999999999MA1101901999999MW1101REMMET085ETND 261252Z 14006KT 4500 BR FEW005 BKN015 BKN060 16/15 Q1019 RERA GRN GRN BECMG WHT;EQDQ01+000003PRSWM1Q02    003PRSWM1
0147103210999992000092618204+52570+008350FM-15+0043ETND V0201201N002610150019N0090001N1+01601+01601999999ADDGA1071+015009999GF107991999999999999999999MA1101801999999MW1001REMMET053ETND 261820Z 12005KT 9000 BKN050 16/16 Q1018 BLU BLU;EQDQ01+000000PRSWM2
0243103210999992000092715004+52570+008350FM-12+0043ETND V0202201N002110300019N0350001N1+01731+01361101501ADDAY161031AY221031GA1011+005409089GA2031+015009069GA3061+030009039GF106991031081004501031011MA1999999100991MD1710071+9999MW1021REMSYN106AAXX  27154 10321 41481 62204 10173 20136 30099 40150 57007 70262 83831 333 55301 81818 83650 86360 96463;
0187103210999992000100104004+52570+008350FM-12+0043ETND V0203301N001010006019N0008001N1+01441+01411100531ADDAY141999AY241999GA1091+999999999GF109991091999999999999999MA1999999100021MD1810051+9999MW1451REMSYN082AAXX  01044 10321 41/08 93302 10144 20141 30002 40053 58005 74544 333 55300 89///;
0199103210999992000100205004+52570+008350FM-12+0043ETND V0201901N001010015019N0020001N1+01191+01111100321ADDAY121999AY221999GA1051+001509079GF107991051061001501001011MA1999999099811MD1610051+9999MW1101REMSYN094AAXX  02054 10321 41220 71902 10119 20111 39981 40032 56005 71022 85601 333 55300 85705 87075;
0179103210999992000100406204+52570+008350FM-15+0043ETND V0201201N001512200019N0050001N1+00601+00601999999ADDGA1021+075009999GF102991999999999999999999MA1102001999999MW1411REMMET069ETND 040620Z 12003KT 5000 BCFG FEW250 06/06 Q1020 WHT WHT BECMG BLU+;EQDQ01+000003PRSWM1Q02    003PRSWM1
0199103210999992000100409004+52570+008350FM-12+0043ETND V0201901N001519999999N0150001N1+01321+01061102121ADDAY141031AY211031GA1011+036009039GF105991011001999999031021MA1999999101601MD1310041+9999MW1021REMSYN094AAXX  04094 10321 41965 51903 10132 20106 30160 40212 53004 70241 81032 333 55310 81362 85075;
0167103210999992000101015204+52570+008350FM-15+0043ETND V0202001N007712200019N0112651N1+01101+00401999999ADDGA1021+009009999GA2021+015009999GF104991999999999999999999MA1098981999999MW1001REMMET057ETND 101520Z 20015KT 9999 SCT030 SCT050 11/04 Q0990 BLU+;EQDQ01+000000PRSWM2
0146103210999992000101017204+52570+008350FM-15+0043ETND V0202001N005112200019N0112651N1+00801+00401999999ADDGA1021+009009099GF102991999999999999999999MA1099091999999MW1001REMMET052ETND 101720Z 20010KT 9999 FEW030CB 08/04 Q0991 BLU+;EQDQ01+000000PRSWM2
0171103210999992000101214004+52570+008350FM-12+0043ETND V0201901N00261220001CN0450001N1+01551+00591099921ADDGA1031+013209089GF105991031011012501001011MA1999999099421MD1110151+9999REMSYN088AAXX  12144 10321 42683 51905 10155 20059 39942 49992 51015 83101 333 55309 83844 83075;
0193103210999992000101514004+52570+008350FM-12+0043ETND V0200801N002610015019N0060001N1+01271+01051101061ADDAY151999AY221999GA1081+001509069GF108991081061001501999999MA1999999100551MD1610271+9999MW1501REMSYN088AAXX  15144 10321 41256 80805 10127 20105 30055 40106 56027 75052 886// 333 55300 88705;
0148103210999992000101811204+52570+008350FM-15+0043ETND V0201801N004612200019N0112651N1+01301+00401999999ADDGA1021+010509999GF102991999999999999999999MA1102401999999MW1001REMMET054ETND 181120Z 18009KT 9999 FEW035 13/04 Q1024 BLU+BLU+;EQDQ01+000000PRSWM2
0199103210999992000102205004+52570+008350FM-12+0043ETND V0201701N000510036019N0050001N1+01001+00751102701ADDAY121999AY221999GA1051+003609079GF107991051061004501001011MA1999999102171MD1310071+9999MW1101REMSYN094AAXX  22054 10321 41450 71701 10100 20075 30217 40270 53007 71022 85601 333 55300 85712 83075;
0195103210999992000102212004+52570+008350FM-12+0043ETND V0201401N001510750019N0130001N1+01761+00801102721ADDAA199000091GA1061+075009019GF106991001001999999001011MA1999999102211MD1810101+9999REMSYN082AAXX  22124 10321 32963 61403 10176 20080 30221 40272 58010 80001 333 55310 86075;EQDQ01  00002PRCP99
0157103210999992000102505204+52570+008350FM-15+0043ETND V0202101N005710150019N0112651N1+01101+00801999999ADDGA1071+015009999GF107991999999999999999999MA1100911999999MW1001REMMET063ETND 250520Z 21011KT 9999 BKN050 11/08 Q1009 BLU BLU TEMPO WHT;EQDQ01+000000PRSWM2
0238103210999992000103114004+52570+008350FM-12+0043ETND V0202101N005110096019N0500001N1+01131+00571099181ADDAY181999AY221999GA1011+006009089GA2071+009609069GF107991071081008001999999MA1999999098671MD1510041+9999MW1251OA149900821REMSYN106AAXX  31144 10321 41584 72110 10113 20057 39867 49918 55004 72582 878// 333 55301 81820 87632 91116 91211;
0195103210999992000110600004+52570+008350FM-12+0043ETND V0201101N003110750019N0400001N1+00401+00181099961ADDAA199000091GA1071+075009019GF107991001001999999001021MA1999999099431MD1610491+9999REMSYN082AAXX  06004 10321 32982 71106 10040 20018 39943 49996 56049 80002 333 55300 87075;EQDQ01  00002PRCP99
0178103210999992000110814204+52570+008350FM-15+0043ETND V0201901N006210150019N0112651N1+01001+00601999999ADDGA1021+009009999GA2071+015009999GF107991999999999999999999MA1098981999999MW1001REMMET068ETND 081420Z 19012KT 9999 SCT030 BKN050 10/06 Q0990 BLU FCST CANCEL;EQDQ01+000000PRSWM2
0221103210999992000111023004+52570+008350FM-12+0043ETND V0202401N003110093019N0200001N1+00751+00441101741ADDAY161999AY261999GA1021+006309069GA2041+009309069GF108991071051008001999999MA1999999101211MD1110121+9999MW1211REMSYN100AAXX  10234 10321 41570 82406 10075 20044 30121 40174 51012 72166 875// 333 55300 82621 84631 87648;
0171103210999992000111622004+52570+008350FM-12+0043ETND V0201801N00261012001CN0500001N1+00791+00341100831ADDGA1031+009909069GF107991071051012501999999MA1999999100311MD1210021+9999REMSYN088AAXX  16224 10321 42684 71805 10079 20034 30031 40083 52002 875// 333 55300 83633 86656;
0171103210999992000112123004+52570+008350FM-12+0043ETND V0201201N002619999999N0300001N1+00441+00221100221ADDGA1031+024009039GF106991031001999999031011MA1999999099691MD1810201+9999REMSYN088AAXX  21234 10321 42980 61205 10044 20022 39969 40022 58020 83031 333 55300 83358 86073;
0243103210999992000112311004+52570+008350FM-12+0043ETND V0201101N002110090019N0045001N1+00671+00601100531ADDAY161999AY261999GA1021+004509069GA2031+009009069GA3071+015009069GF108991071051004501999999MA1999999100011MD1810091+9999MW1631REMSYN106AAXX  23114 10321 41445 81104 10067 20060 30001 40053 58009 76366 875// 333 55300 82615 83630 87650 96010;
0181103210999992000120322004+52570+008350FM-12+0043ETND V0201901N001512200019N0050001N1+00161+00101101931ADDAY101999AY201999GA1001+999999999GF100991001001999999001001MA1999999101391MD1110051+9999MW1101REMSYN076AAXX  03224 10321 41950 01903 10016 20010 30139 40193 51005 71000 333 55300;
0148103210999992000120507204+52570+008350FM-15+0043ETND V0201801N003112200019N0112651N1+00501+00401999999ADDGA1021+066009999GF104991999999999999999999MA1101491999999MW1001REMMET054ETND 050720Z 18006KT 9999 SCT220 05/04 Q1015 BLU+BLU+;EQDQ01+000000PRSWM2
0193103210999992000121013004+52570+008350FM-12+0043ETND V0202101N002610045019N0150001N1+00871+00721100631ADDAY121999AY221999GA1071+004509059GF107991071051004501999999MA1999999100111MD1610181+9999MW1211REMSYN088AAXX  10134 10321 41465 72105 10087 20072 30011 40063 56018 72122 875// 333 55300 87615;
0203103210999992000121106204+52570+008350FM-15+0043ETND V0202301N005710054019N0090001N1+01001+00901999999ADDGA1021+002109999GA2071+005409999GA3071+010209999GF107991999999999999999999MA1101391999999MW1001REMMET077ETND 110620Z 23011KT 9000 SCT007 BKN018 BKN034 10/09 Q1014 WHT BLU TEMPO GRN;EQDQ01+000000PRSWM2
0214103210999992000121808204+52570+008350FM-15+0043ETND V0201601N000510660019N0040001N1+00001-00101999999ADDGA1021+012009999GA2021+018009999GA3071+066009999GF107991999999999999999999MA1101801999999MW1101REMMET072ETND 180820Z 16001KT 4000 BR FEW040 SCT060 BKN220 M00/M01 Q1018 GRN GRN;EQDQ01+000003PRSWM1Q02    003PRSWM1
0181103210999992000121904004+52570+008350FM-12+0043ETND V0209999C000012200019N0008001N1-00381-00431102111ADDAY141999AY201999GA1001+999999999GF100991001001999999001001MA1999999101561MD1110081+9999MW1481REMSYN076AAXX  19044 10321 41908 00000 11038 21043 30156 40211 51008 74840 333 55300;
0153103210999992000122023004+52570+008350FM-12+0043ETND V0201001N003112200019N0080001N1-00191-00331102601ADDGA1001+999999999GF100991001001999999001001MA1999999102051MD1010011+9999REMSYN070AAXX  20234 10321 42858 01006 11019 21033 30205 40260 50001 333 55300;
0153103210999992000122120004+52570+008350FM-12+0043ETND V0201101N002612200019N0080001N1-00381-00561102641ADDGA1001+999999999GF100991001001999999001001MA1999999102081MD1510021+9999REMSYN070AAXX  21204 10321 42958 01105 11038 21056 30208 40264 55002 333 55300;
0193103210999992000122423004+52570+008350FM-12+0043ETND V0200601N001510015019N0020001N1-00011-00011100151ADDAY171999AY271999GA1081+001509069GF108991081071001501999999MA1999999099611MD1710061+9999MW1711REMSYN088AAXX  24234 10321 41220 80603 11001 21001 39961 40015 57006 77177 887// 333 55300 88705;
0254103210999992000122518004+52570+008350FM-12+0043ETND V0200301N00151007501CN0350001N1-00221-00501100141ADDAA112000791AY171061AY221061GA1031+009009069GF106991061051008001001001KA1120M+00001KA2120N-00221MA1999999099601MD1110061+9999MW1011REMSYN112AAXX  25184 10321 11581 60303 11022 21050 39960 40014 51006 69902 70172 86500 333 10000 21022 55300 83630 85644;
0205103210999992000122805004+52570+008350FM-12+0043ETND V0202501N001510006019N0013001N1-00021-00021099151ADDAY151999AY221999GA1071+000609079GF108991081071000751999999MA1999999098621MD1310021+9999MW1711REMSYN100AAXX  28054 10321 41113 82503 11002 21002 39862 49915 53002 77152 887// 333 55300 87702 96010 96256;
0163103210999992000122815204+52570+008350FM-15+0043ETND V0202201N004610030019N0035001N1+00101+00001999999ADDGA1071+003009999GF107991999999999999999999MA1099291999999MW1101REMMET053ETND 281520Z 22009KT 3500 BR BKN010 01/M00 Q0993 YLO;EQDQ01+000003PRSWM1Q02    003PRSWM1
0216103210999992000122900004+52570+008350FM-12+0043ETND V0202301N004112200019N0250001N1+00051-00261099221ADDAA106000791AY171061AY211061GA1021+012309069GF102991021051012501001001MA1999999098691MD1310011+9999MW1031REMSYN100AAXX  29004 10321 11675 22308 10005 21026 39869 49922 53001 69901 70371 82500 333 55300 82641 91115;
0184103210999992000122905004+52570+008350FM-12+0043ETND V0202201N003112200019N0250001N1-00061-00241099301ADDGA1011+015009059GF101991011051017501999001MA1999999098771MD1110031+9999REMSYN082AAXX  29054 10321 42775 12206 11006 21024 39877 49930 51003 81500 333 55300 81650;EQDQ01    003SCOMCG
0193103340999992000010823004+52450+009430FM-12+0070ETNW V0202401N002112200019N0050001N1+00631+00531101951ADDAY121999AY221999GA1031+001509079GF104991041051001501001001MA1999999101091MD1210051+9999MW1101REMSYN088AAXX  08234 10334 41250 42404 10063 20053 30109 40195 52005 71022 84500 333 83705 83615;
0187103340999992000010901004+52450+009430FM-12+0070ETNW V0202201N001510051019N0045001N1+00411+00411101971ADDAY111999AY211999GA1051+005109059GF105991051051004501001001MA1999999101101MD1110021+9999MW1101REMSYN082AAXX  09014 10334 41445 52203 10041 20041 30110 40197 51002 71011 85500 333 85617;
0161103340999992000010922204+52450+009430FM-15+0070ETNW V0202401N002610001519N0009001N1+00201+00201999999ADDGA1091+000159999GF109991999999000251999999MA1103011999999MW1451REMMET051ETNW 092220Z 24005KT 0900 FG VV000 02/02 Q1030 RED;EQDQ01+000003PRSWM1Q02    003PRSWM1
0159103340999992000011013004+52450+009430FM-12+0070ETNW V0202601N001510018019N0090001N1+00321+00191103631ADDGA1071+001809069GF108991071061002501999999MA1999999102741MD1110031+9999REMSYN076AAXX  10134 10334 42359 82603 10032 20019 30274 40363 51003 876// 333 87706;
