0250722500129192000032023564+25900-097430FM-15+0006KBRO V0201501N009810084019N0160931N1+02301+01801100811ADDGD13991+0084019GF107991999999999999999999KA1999M+02671KA2999N+02331MA1100811999999MD1510001+9999MW1001OC101291REMMET109KBRO 202356Z 15019G25KT 10SM BKN028 23/18 A2977 RMK AO2 PK WND 16031/2302 SLP081 T02330178 10267 20233 55000;EQDQ01+000000PRSWM2
0455722500129192000032118003+25900-097433SY-MT+0006BRO  V0201605N00985005795MN0144005N1+02835+02285101155ADDAA101000095AA206000791GD13995+0057959GD24995+0088459GF108991999999004501999999GP10060040702008003002015038002008GQ100600302914559GR100601189913779MA1101195101111MD1010091+9999REMSYN092AAXX  21184 72250 12464 81619 10283 20228 30111 40115 50009 69901 91756 333 91032 555 92118;EQDN01 00000JPWTH 0QNNAA1D0 04019BA1 0 04019AA1D0 06029BA1 0 06029GA1 0 00019KA1D0 00073JA1 0 00228LA1 0 00900CA1 0 02988NA1 0 00000QA1 0 10115SA1D0 00083RA1 0 00283YA1 0 16019
0411722500129192000032417003+25900-097433FM-15+0006BRO  V0201405N00985220005MN0096005N1+02895+02005101575ADDAA101000095GD11995+0091459GF102991999999999999999999GP10060078302008083002015013602008GQ100600388912389GR100601069913759MA1101595999999MW1055REMMET072KBRO 241656Z 14019KT 6SM HZ FEW030 29/20 A3000 RMK AO2 SLP157 T02890200;EQDQ01+000003PRSWM1Q02    003PRSWM1N01 00081JPWTH 0QNNAA1D0 02030BA1 0 01030GA1U0 99999KA1D0 00068JA1 0 00200LA1 0 00600CA1 0 03000NA1 0 00081QA1 0 10157SA1D0 00084RA1 0 00289YA1 0 14019
0167722500129192000033015034+25900-097430FM-16+0006KBRO V0200401N004110054019N0128741N1+02401+02101999999ADDGD12991+0021019GD23991+0054019GF107991999999999999999999MA1101251999999MW1001REMMET059KBRO 301503Z 04008KT 8SM FEW007 BKN018 24/21 A2990 RMK AO2;EQDQ01+000000PRSWM2
0464722500129192000040712003+25900-097433SY-MT+0006BRO  V0201705N00525220005MN0160005N1+02065+01785101025ADDAA101000095GA1001+999999999GD10995+9999999GF100991001001999999001001GP10060000002000000002000000002000GR100600000900009KA1999M+02831KA2120N+02061MA1101055100971MD1310011+9999REMSYN092AAXX  07124 72250 32966 01710 10206 20178 30097 40102 53001 91156 333 10283 20206 555 90712;EQDQ01  00002PRCP99Q02  00003PRCP99N01 00000JPWTH 0QNNAA1D0 00000BA1 0 00000GA1U0 99999KA1D0 00064JA1 0 00178LA1 0 01000CA1 0 02984NA1 0 00000QA1 0 10102SA1D0 00069RA1 0 00206YA1 0 17010
0195722500129192000040911564+25900-097430FM-15+0006KBRO V0200201N001512200019N0160931N1+01201+00901102431ADDAA124000891GF100991999999999999999999MA1102441999999MW1001REMMET106KBRO 091156Z 02003KT 10SM CLR 12/09 A3025 RMK AO2 SLP243 TIDE DEP 00/// 70003 T01220094 10139 20117 55006;EQDQ01+000000PRSWM2
0481722500129192000041201003+25900-097433FM-15+0006BRO  V0201305N00575068285MN0160005N1+02445+02175101465ADDAA101000095GD12995+0051859GD23995+0067159GD34995+0097559GF108991999999999999999999GP10060002702008009802015002002008GQ100600848927739GR100600103911459MA1101495999999MW1001REMMET084KBRO 120056Z 13011KT 10SM SCT017 BKN022 OVC032 24/22 A2997 RMK AO2 SLP146 T02440217;EQDQ01+000000PRSWM2N01 00000JPWTH 0QNNAA1D0 02017BA1 0 02017AA1D0 04022BA1 0 04022AA1D0 06032BA1 0 06032GA1 0 00224KA1D0 00071JA1 0 00217LA1 0 01000CA1 0 02997NA1 0 00000QA1 0 10146SA1D0 00076RA1 0 00244YA1 0 13011
0760722500129192000041205596+25914-097423SOD  +0007KBRO V020999999999999999999999999999+99999+99999999999ADDAA124000096GJ102345GK10315KA1240M+02945KA2240N+02335MG1101229999994OE11240138614011265OE22240125217010455OE33240076999999995REMSOD60524 HR PRECIPITATION (IN): 0.00 TOTAL SUNSHINE (MINUTES): 234 PERCENT POSSIBLE SUNSHINE: 31 24 HR MAX TEMP (F): 8524 HR MAX TEMP TIME (LST):1257 24 HR MIN TEMP (F): 7424 HR MIN TEMP TIME (LST):2359 AVERAGE STATION PRESSURE:29.89  PEAK WIND SPEED (MPH): 31 PEAK WIND DIR (DEG):140 PEAK WIND TIME (LST):1126  FASTEST 2MIN SPEED (MPH): 28FASTEST 2MIN DIR (DEG):170 FASTEST 2MIN TIME (LST):1045 AVERAGE WIND SPEED (MPH):17.2 24 HR AVG TEMP (F):80 HOURLY INCREMENTAL PRECIPITATION VALUES (IN):.00  .00  .00  .00  .00  .00  .00  .00  .00  .00  .00  .00  .00  .00  .00  .00  .00  .00  .00  .00  .00  .00  .00  .00EQDR01  0.007AAP092
0419722500129192000041207003+25900-097433FM-15+0006BRO  V0201605N00315220005MN0144005N1+02335+02175101505ADDAA101000095GD12995+0039659GD22995+0064059GF104991999999999999999999GP10060000002000000002000000002000GR100600000900009MA1101525999999MW1001REMMET076KBRO 120656Z 16006KT 9SM SCT013 SCT021 23/22 A2998 RMK AO2 SLP150 T02330217;EQDQ01+000000PRSWM2N01 00000JPWTH 0QNNAA1D0 02013BA1 0 02013AA1D0 02021BA1 0 02021GA1U0 99999KA1D0 00071JA1 0 00217LA1 0 00900CA1 0 02998NA1 0 00000QA1 0 10150SA1D0 00074RA1 0 00233YA1 0 16006
0532722500129192000041222003+25900-097433FM-15+0006BRO  V0200105N00365123145MN0160005N1+01945+01835102125ADDAA101004895GD13995+0121959GD23995+0182959GD34995+0335359GF108991999999999999999999GP10060010702008000002015010702008GQ100600458925669GR100600946913599MA1102135999999MW1615MW2801MW3955REMMET107KBRO 122156Z 01007KT 10SM -TSRA BKN040 BKN060 OVC110 19/18 A3016 RMK AO2 WSHFT 2043 SLP212 P0019 T01940183;EQDQ01+000003PRSWM1Q02    003PRSWM1N01 01020JPWTH 0QNNAA1D0 04040BA1 0 04040AA1D0 04060BA1 0 04060AA1D0 06110BA1 0 06110GA1 0 00404KA1D0 00065JA1 0 00183LA1 0 01000CA1 0 03016NA1 0 01020QA1 0 10212SA1D0 00067RA1 0 00194YA1 0 01007
0376722500129192000041702003+25900-097433FM-15+0006BRO  V0201005N00415184105MN0160005N1+02395+02175101675ADDAA101000095GD13995+0182959GF107991999999999999999999GP10060000002000000002000000002000GR100600000900009MA1101695999999MW1001REMMET070KBRO 170156Z 10008KT 10SM BKN060 24/22 A3003 RMK AO2 SLP167 T02390217;EQDQ01+000000PRSWM2N01 00000JPWTH 0QNNAA1D0 04060BA1 0 04060GA1 0 00604KA1D0 00071JA1 0 00217LA1 0 01000CA1 0 03003NA1 0 00000QA1 0 10167SA1D0 00075RA1 0 00239YA1 0 10008
0221722500129192000041811564+25900-097430FM-15+0006KBRO V0201501N004110060019N0160931N1+02401+02201101501ADDGD14991+0060019GF108991999999999999999999KA1999M+02391KA2999N+02221MA1101521999999MD1310021+9999MW1001REMMET088KBRO 181156Z 15008KT 10SM OVC020 24/22 A2998 RMK AO2 SLP150 T02390217 10239 20222 53002;EQDQ01+000000PRSWM2
0146722500129192000041900134+25900-097430FM-16+0006KBRO V0201501N008210060019N0160931N1+02601+02201999999ADDGD13991+0060019GF107991999999999999999999MA1101221999999MW1001REMMET053KBRO 190013Z 15016KT 10SM BKN020 26/22 A2989 RMK AO2;EQDQ01+000000PRSWM2
0404722500129192000042222003+25900-097433FM-15+0006BRO  V0201405N01085083525MN0160005N1+02785+02065100715ADDAA101000095GD14995+0082359GF108991999999999999999999GP10060059002008047402015025302008GQ100600447926149GR100600958913529MA1100715999999MW1001OC101291REMMET073KBRO 222156Z 14021G25KT 10SM OVC027 28/21 A2974 RMK AO2 SLP071 T02780206;EQDQ01+000000PRSWM2N01 00000JPWTH 0QNNAA1D0 06027BA1 0 06027GA1 0 00274KA1D0 00069JA1 0 00206LA1 0 01000CA1 0 02974NA1 0 00000QA1 0 10071SA1D0 00082RA1 0 00278YA1 0 14021
0420722500129192000042302003+25900-097433FM-15+0006BRO  V0201505N00625068285MN0160005N1+02445+02065100675ADDAA101000095GD13995+0067159GD24995+0088459GF108991999999999999999999GP10060000002000000002000000002000GR100600000900009MA1100685999999MW1001REMMET077KBRO 230156Z 15012KT 10SM BKN022 OVC029 24/21 A2973 RMK AO2 SLP067 T02440206;EQDQ01+000000PRSWM2N01 00000JPWTH 0QNNAA1D0 04022BA1 0 04022AA1D0 06029BA1 0 06029GA1 0 00224KA1D0 00069JA1 0 00206LA1 0 01000CA1 0 02973NA1 0 00000QA1 0 10067SA1D0 00076RA1 0 00244YA1 0 15012
0168722500129192000042916204+25900-097430FM-15+0006KBRO V0201501N005110075019N0160931N1+02901+02201999999ADDGD13991+0075019GD23991+0108019GF107991999999999999999999MA1101561999999MW1001REMMET060KBRO 291620Z 15010KT 10SM BKN025 BKN036 29/22 A2999 RMK AO2;EQDQ01+000000PRSWM2
0502722500129192000050120003+25900-097433FM-15+0006BRO  V0201205N00675010975MN0160005N1+03005+02225101285ADDAA101000095GD12995+0088459GD23995+0109759GD33995+0140259GF107991999999999999999999GP10060073702008035302015040202008GQ100600183923629GR100601275913459MA1101295999999MW1001OC101081REMMET097KBRO 011956Z AUTO 12013G21KT 10SM SCT029 BKN036 BKN046 30/22 A2991 RMK AO2 SLP128 T03000222 TSNO;EQDQ01+000000PRSWM2N01 00000JPWTH 0QNNAA1D0 02029BA1 0 02029AA1D0 04036BA1 0 04036AA1D0 04046BA1 0 04046GA1 0 00036KA1D0 00072JA1 0 00222LA1 0 01000CA1 0 02991NA1 0 00000QA1 0 10128SA1D0 00086RA1 0 00300YA1 0 12013
0167722500129192000050516144+25900-097430FM-16+0006KBRO V0201601N009310090019N0144841N1+02901+02301999999ADDGD12991+0069019GD23991+0090019GF107991999999999999999999MA1101421999999MW1001REMMET059KBRO 051614Z 16018KT 9SM SCT023 BKN030 29/23 A2995 RMK AO2;EQDQ01+000000PRSWM2
0200722500129192000050614124+25900-097430FM-16+0006KBRO V0201501N008710060019N0112651N1+02701+02301999999ADDGD12991+0042019GD23991+0060019GD34991+0105019GF108991999999999999999999MA1101421999999MW1001OC101031REMMET069KBRO 061412Z 15017G20KT 7SM SCT014 BKN020 OVC035 27/23 A2995 RMK AO2;EQDQ01+000000PRSWM2
0882722500129192000050705596+25914-097423SOD  +0007KBRO V020999999999999999999999999999+99999+99999999999ADDAA124000096AJ100009599999999AL12400095AN1024000095AT1MW01FG  5AT2MW13BR  1AT3MW08HZ  5GJ106025GK10765KA1240M+03225KA2240N+02445MG1101129999994OE11240143116014445OE22240129616014455OE33240076999999995REMSOD65224 HR PRECIPITATION (IN): 0.00 SNOW DEPTH (IN):0     24 HR SNOWFALL (IN):  .0 TOTAL SUNSHINE (MINUTES): 602 PERCENT POSSIBLE SUNSHINE: 76 24 HR MAX TEMP (F): 9024 HR MAX TEMP TIME (LST):1504 24 HR MIN TEMP (F): 7624 HR MIN TEMP TIME (LST):0633 AVERAGE STATION PRESSURE:29.86  PEAK WIND SPEED (MPH): 32 PEAK WIND DIR (DEG):160 PEAK WIND TIME (LST):1444  FASTEST 2MIN SPEED (MPH): 29FASTEST 2MIN DIR (DEG):160 FASTEST 2MIN TIME (LST):1445 AVERAGE WIND SPEED (MPH):17.2 24 HR AVG TEMP (F):83 HOURLY INCREMENTAL PRECIPITATION VALUES (IN):.00  .00  .00  .00  .00  .00  .00  .00  .00  .00  .00  .00  .00  .00  .00  .00  .00  .00  .00  .00  .00  .00  .00  .00EQDR01  0.007AAP092
0200722500129192000050806374+25900-097430FM-16+0006KBRO V0201501N005710060019N0144841N1+02601+02401999999ADDGD12991+0039019GD23991+0060019GD34991+0075019GF108991999999999999999999MA1101291999999MW1001OC100871REMMET069KBRO 080637Z 15011G17KT 9SM SCT013 BKN020 OVC025 26/24 A2991 RMK AO2;EQDQ01+000000PRSWM2
0376722500129192000050904003+25900-097433FM-15+0006BRO  V0201405N00465220005MN0160005N1+02505+02335101065ADDAA101000095GD11995+0054959GF102991999999999999999999GP10060000002000000002000000002000GR100600000900009MA1101085999999MW1001REMMET070KBRO 090356Z 14009KT 10SM FEW018 25/23 A2985 RMK AO2 SLP106 T02500233;EQDQ01+000000PRSWM2N01 00000JPWTH 0QNNAA1D0 02018BA1 0 01018GA1U0 99999KA1D0 00074JA1 0 00233LA1 0 01000CA1 0 02985NA1 0 00000QA1 0 10106SA1D0 00077RA1 0 00250YA1 0 14009
0243722500129192000050923564+25900-097430FM-15+0006KBRO V0201101N006210066019N0160931N1+02701+02301100821ADDGD13991+0066019GD24991+0087019GF108991999999999999999999KA1999M+03111KA2999N+02721MA1100851999999MD1310041+9999MW1001REMMET095KBRO 092356Z 11012KT 10SM BKN022 OVC029 27/23 A2978 RMK AO2 SLP082 T02720228 10311 20272 53004;EQDQ01+000000PRSWM2
0530722500129192000051312003+25900-097433SY-MT+0006BRO  V0200405N01085015245MN0144005N1+02285+02005101325ADDAA101000025AA206000791GD12995+0125059GD23995+0152459GD34995+0228659GF108991999999012501999999GP10060000002008000002015000002008GQ100600887906989GR100600007903239KA1999M+03281KA2120N+02221MA1101355101281MD1110431+9999REMSYN104AAXX  13124 72250 12664 80421 10228 20200 30128 40132 51043 69901 91156 333 10328 20222 91026 555 91312;EQDN01 00000JPWTH 0QNNAA1D0 02041BA1 0 02041AA1D0 04050BA1 0 04050AA1D0 06075BA1 0 06075GA1 0 00050KA1D0 00068JA1 0 00200LA1 0 00900CA1 0 02993NA1 0 00000QA1 0 10132SA1D0 00073RA1 0 00228YA1 0 04021
0358722500129192000051505003+25900-097433FM-15+0006BRO  V0200905N00265220005MN0160005N1+02335+02225101975ADDAA101000095GF100991999999999999999999GP10060000002000000002000000002000GR100600000900009MA1102005999999MW1001REMMET067KBRO 150456Z 09005KT 10SM CLR 23/22 A3012 RMK AO2 SLP197 T02330222;EQDQ01+000000PRSWM2N01 00000JPWTH 0QNNAA1D0 00000BA1 0 00000GA1U0 99999KA1D0 00072JA1 0 00222LA1 0 01000CA1 0 03012NA1 0 00000QA1 0 10197SA1D0 00074RA1 0 00233YA1 0 09005
0224722500129192000051717564+25900-097430FM-15+0006KBRO V0201601N014412200019N0144841N1+03101+02101101061ADDGD12991+0102019GF104991999999999999999999MA1101081999999MW1001OC101851REMMET123KBRO 171756Z 16028G36KT 9SM SCT034 31/21 A2985 RMK AO2 PK WND 18037/1739 SLP106 TIDE DEP 00/// T03110211 10311 20244 58009;EQDQ01+000000PRSWM2
0228722500129192000051917564+25900-097430FM-15+0006KBRO V0201101N007210072019N0144841N1+03101+02401101381ADDGD13991+0072019GD23991+0114019GF107991999999999999999999KA1999M+03171KA2999N+02501MA1101391999999MW1001REMMET094KBRO 191756Z 11014KT 9SM BKN024 BKN038 31/24 A2994 RMK AO2 SLP138 6//// T03110239 10317 20250;EQDQ01+000000PRSWM2
0231722500129192000052005564+25900-097430FM-15+0006KBRO V0201601N006210045019N0160931N1+02701+02401101361ADDGD13991+0045019GF107991999999999999999999KA1999M+02891KA2999N+02671MA1101391999999MD1010161+9999MW1001REMMET098KBRO 200556Z 16012KT 10SM BKN015 27/24 A2994 RMK AO2 SLP136 T02670244 10289 20267 403280250 50016;EQDQ01+000000PRSWM2
0413722500129192000052115003+25900-097433FM-15+0006BRO  V0200705N00315007925MN0160005N1+02725+02005101605ADDAA101000095GD13995+0079259GF107991999999999999999999GP10060050902008051002015021002008GQ100600542908289GR100600779913339MA1101635999999MD1110191+9999MW1001REMMET076KBRO 211456Z 07006KT 10SM BKN026 27/20 A3001 RMK AO2 SLP160 T02720200 51019;EQDQ01+000000PRSWM2N01 00000JPWTH 0QNNAA1D0 04026BA1 0 04026GA1 0 00026KA1D0 00068JA1 0 00200LA1 0 01000CA1 0 03001NA1 0 00000QA1 0 10160SA1D0 00081RA1 0 00272YA1 0 07006
0374722500129192000052713003+25900-097433FM-15+0006BRO  V0201505N00675220005MN0144005N1+02725+02505100855ADDAA101000095GF100991999999999999999999GP10060008802008003802015008202008GQ100600801907099GR100600229913309MA1100885999999MW1001REMMET066KBRO 271256Z 15013KT 9SM CLR 27/25 A2979 RMK AO2 SLP085 T02720250;EQDQ01+000000PRSWM2N01 00000JPWTH 0QNNAA1D0 00000BA1 0 00000GA1U0 99999KA1D0 00077JA1 0 00250LA1 0 00900CA1 0 02979NA1 0 00000QA1 0 10085SA1D0 00081RA1 0 00272YA1 0 15013
0358722500129192000052904003+25900-097433FM-15+0006BRO  V0201605N00315220005MN0160005N1+02675+02505101425ADDAA101000095GF100991999999999999999999GP10060000002000000002000000002000GR100600000900009MA1101425999999MW1001REMMET067KBRO 290356Z 16006KT 10SM CLR 27/25 A2995 RMK AO2 SLP142 T02670250;EQDQ01+000000PRSWM2N01 00000JPWTH 0QNNAA1D0 00000BA1 0 00000GA1U0 99999KA1D0 00077JA1 0 00250LA1 0 01000CA1 0 02995NA1 0 00000QA1 0 10142SA1D0 00080RA1 0 00267YA1 0 16006
0203722500129192000060111564+25900-097430FM-15+0006KBRO V0201301N003612200019N0160931N1+02501+02301101451ADDGF100991999999999999999999KA1999M+02611KA2999N+02501MA1101461999999MD1310061+9999MW1001REMMET085KBRO 011156Z 13007KT 10SM CLR 25/23 A2996 RMK AO2 SLP145 T02500233 10261 20250 53006;EQDQ01+000000PRSWM2
0358722500129192000060404003+25900-097433FM-15+0006BRO  V0201505N00575220005MN0160005N1+02615+02335101575ADDAA101000095GF100991999999999999999999GP10060000002000000002000000002000GR100600000900009MA1101595999999MW1001REMMET067KBRO 040356Z 15011KT 10SM CLR 26/23 A3000 RMK AO2 SLP157 T02610233;EQDQ01+000000PRSWM2N01 00000JPWTH 0QNNAA1D0 00000BA1 0 00000GA1U0 99999KA1D0 00074JA1 0 00233LA1 0 01000CA1 0 03000NA1 0 00000QA1 0 10157SA1D0 00079RA1 0 00261YA1 0 15011
0457722500129192000060415003+25900-097433FM-15+0006BRO  V0202005N00825220005MN0160005N1+02945+02175101455ADDAA101000095GD12995+0085359GD22995+0131159GF104991999999999999999999GP10060046802008046702015019302008GQ100600539908009GR100600780913279MA1101465999999MD1110061+9999MW1001REMMET083KBRO 041456Z 20016KT 10SM SCT028 SCT043 29/22 A2996 RMK AO2 SLP145 T02940217 51006;EQDQ01+000000PRSWM2N01 00000JPWTH 0QNNAA1D0 02028BA1 0 02028AA1D0 02043BA1 0 02043GA1U0 99999KA1D0 00071JA1 0 00217LA1 0 01000CA1 0 02996NA1 0 00000QA1 0 10145SA1D0 00085RA1 0 00294YA1 0 20016
0226722500129192000061016484+25900-097430FM-16+0006KBRO V0201501N006710057019N0128741N1+02501+02401999999ADDGD12991+0018019GD22991+0030019GD33991+0057019GF107991999999999999999999MA1101321999999MW1611OC101081REMMET079KBRO 101648Z 15013G21KT 8SM -RA FEW006 SCT010 BKN019 25/24 A2992 RMK AO2 P0007;EQDQ01+000003PRSWM1Q02    003PRSWM1
0464722500129192000061404003+25900-097433FM-15+0006BRO  V0201505N00575010365MN0160005N1+02675+02395101405ADDAA101000095GD11995+0057959GD22995+0073259GD33995+0103659GF107991999999999999999999GP10060000002000000002000000002000GR100600000900009MA1101425999999MW1001REMMET084KBRO 140356Z 15011KT 10SM FEW019 SCT024 BKN034 27/24 A2995 RMK AO2 SLP140 T02670239;EQDQ01+000000PRSWM2N01 00000JPWTH 0QNNAA1D0 02019BA1 0 01019AA1D0 02024BA1 0 02024AA1D0 04034BA1 0 04034GA1 0 00034KA1D0 00075JA1 0 00239LA1 0 01000CA1 0 02995NA1 0 00000QA1 0 10140SA1D0 00080RA1 0 00267YA1 0 15011
0221722500129192000061517564+25900-097430FM-15+0006KBRO V0201401N008712200019N0160931N1+03301+02301101021ADDGD12991+0096019GF102991999999999999999999KA1999M+03331KA2999N+02561MA1101051999999MD1810121+9999MW1001REMMET088KBRO 151756Z 14017KT 10SM FEW032 33/23 A2984 RMK AO2 SLP102 T03280228 10333 20256 58012;EQDQ01+000000PRSWM2
0508722500129192000061618003+25900-097433SY-MT+0006BRO  V0201605N00985010675MN0160005N1+03225+02395100695ADDAA101000095GD12995+0079259GD23995+0106759GF106991999999008001999999GP10060061202008018702015043102008GQ100600140909819GR100601281913239KA1120M+03281KA2240N+02611MA1100715100631MD1810011+9999REMSYN098AAXX  16184 72250 32566 61619 10322 20239 30063 40069 58001 91756 333 10328 20261 91027 555 91618;EQDQ01  00002PRCP99Q02  00003PRCP99N01 00000JPWTH 0QNNAA1D0 02026BA1 0 02026AA1D0 04035BA1 0 04035GA1 0 00035KA1D0 00075JA1 0 00239LA1 0 01000CA1 0 02974NA1 0 00000QA1 0 10069SA1D0 00090RA1 0 00322YA1 0 16019
0179722500129192000061623344+25900-097430FM-16+0006KBRO V0201401N008210075019N0160931N1+03101+02401999999ADDGD13991+0075019GD23991+0096019GF107991999999999999999999MA1100541999999MW1001OC101131REMMET063KBRO 162334Z 14016G22KT 10SM BKN025 BKN032 31/24 A2969 RMK AO2;EQDQ01+000000PRSWM2
0358722500129192000061905003+25900-097433FM-15+0006BRO  V0201305N00365220005MN0160005N1+02675+02505101735ADDAA101000095GF100991999999999999999999GP10060000002000000002000000002000GR100600000900009MA1101765999999MW1001REMMET067KBRO 190456Z 13007KT 10SM CLR 27/25 A3005 RMK AO2 SLP173 T02670250;EQDQ01+000000PRSWM2N01 00000JPWTH 0QNNAA1D0 00000BA1 0 00000GA1U0 99999KA1D0 00077JA1 0 00250LA1 0 01000CA1 0 03005NA1 0 00000QA1 0 10173SA1D0 00080RA1 0 00267YA1 0 13007
0481722500129192000070500003+25900-097433SY-MT+0006BRO  V0201305N00625220005MN0144005N1+03005+02175101315ADDAA101000095GA1001+999999999GD10995+9999999GF100991001001999999001001GP10060028002008039702015012202008GQ100600665928509GR100600527913219KA1120M+03501KA2180N+02391MA1101325101241MD1610081+9999REMSYN092AAXX  05004 72250 32964 01312 10300 20217 30124 40131 56008 92356 333 10350 20239 555 90500;EQDQ01  00002PRCP99Q02  00003PRCP99N01 00000JPWTH 0QNNAA1D0 00000BA1 0 00000GA1U0 99999KA1D0 00071JA1 0 00217LA1 0 00900CA1 0 02992NA1 0 00000QA1 0 10131SA1D0 00086RA1 0 00300YA1 0 13012
0386722500129192000070520003+25900-097433FM-15+0006BRO  V0201305N00675220005MN0160005N1+03395+01785101425ADDAA101000095GF100991999999999999999999GP10060092302008070102015024102008GQ100600131925739GR100601284913219MA1101425999999MW1001OC100931REMMET070KBRO 051956Z 13013G18KT 10SM CLR 34/18 A2995 RMK AO2 SLP142 T03390178;EQDQ01+000000PRSWM2N01 00000JPWTH 0QNNAA1D0 00000BA1 0 00000GA1U0 99999KA1D0 00064JA1 0 00178LA1 0 01000CA1 0 02995NA1 0 00000QA1 0 10142SA1D0 00093RA1 0 00339YA1 0 13013
0464722500129192000070806003+25900-097433SY-MT+0006BRO  V0201505N00265220005MN0160005N1+02565+02395101565ADDAA101000095GA1001+999999999GD10995+9999999GF100991001001999999001001GP10060000002000000002000000002000GR100600000900009KA1240M+03111KA2240N+02441MA1101595101511MD1010061+9999REMSYN092AAXX  08064 72250 32966 01505 10256 20239 30151 40156 50006 90556 333 10311 20244 555 90806;EQDQ01  00002PRCP99Q02  00003PRCP99N01 00000JPWTH 0QNNAA1D0 00000BA1 0 00000GA1U0 99999KA1D0 00075JA1 0 00239LA1 0 01000CA1 0 03000NA1 0 00000QA1 0 10156SA1D0 00078RA1 0 00256YA1 0 15005
0375722500129192000071116003+25900-097433FM-15+0006BRO  V0201605N00825220005MN0160005N1+03225+02175101645ADDAA101000095GF100991999999999999999999GP10060052702008027302015032502008GQ100600423908519GR100600976913229MA1101665999999MW1001REMMET067KBRO 111556Z 16016KT 10SM CLR 32/22 A3002 RMK AO2 SLP164 T03220217;EQDQ01+000000PRSWM2N01 00000JPWTH 0QNNAA1D0 00000BA1 0 00000GA1U0 99999KA1D0 00071JA1 0 00217LA1 0 01000CA1 0 03002NA1 0 00000QA1 0 10164SA1D0 00090RA1 0 00322YA1 0 16016
0395722500129192000071321003+25900-097433FM-15+0006BRO  V0201605N00775220005MN0160005N1+03505+01945101585ADDAA101000095GF100991999999999999999999GP10060082502008069202015020502008GQ100600265926679GR100601181913229MA1101595999999MD1610081+9999MW1001REMMET073KBRO 132056Z 16015KT 10SM CLR 35/19 A3000 RMK AO2 SLP158 T03500194 56008;EQDQ01+000000PRSWM2N01 00000JPWTH 0QNNAA1D0 00000BA1 0 00000GA1U0 99999KA1D0 00067JA1 0 00194LA1 0 01000CA1 0 03000NA1 0 00000QA1 0 10158SA1D0 00095RA1 0 00350YA1 0 16015
0203722500129192000071723564+25900-097430FM-15+0006KBRO V0201501N007712200019N0160931N1+03101+02201101401ADDGF100991999999999999999999KA1999M+03501KA2999N+03111MA1101421999999MD1610061+9999MW1001REMMET085KBRO 172356Z 15015KT 10SM CLR 31/22 A2995 RMK AO2 SLP140 T03110217 10350 20311 56006;EQDQ01+000000PRSWM2
0358722500129192000071810003+25900-097433FM-15+0006BRO  V0201605N00265220005MN0160005N1+02445+02335101565ADDAA101000095GF100991999999999999999999GP10060000002000000002000000002000GR100600000900009MA1101595999999MW1001REMMET067KBRO 180956Z 16005KT 10SM CLR 24/23 A3000 RMK AO2 SLP156 T02440233;EQDQ01+000000PRSWM2N01 00000JPWTH 0QNNAA1D0 00000BA1 0 00000GA1U0 99999KA1D0 00074JA1 0 00233LA1 0 01000CA1 0 03000NA1 0 00000QA1 0 10156SA1D0 00076RA1 0 00244YA1 0 16005
0465722500129192000072500003+25900-097433SY-MT+0006BRO  V0201105N00675220005MN0160005N1+03175+02175101365ADDAA101000095GA1001+999999999GD10995+9999999GF100991001001999999001001GP10060028302008047702015009802008GQ100600671928169GR100600514913249KA1120M+03611KA2180N+02391MA1101395101311MD1510081+9999REMSYN092AAXX  25004 72250 32966 01113 10317 20217 30131 40136 55008 92356 333 10361 20239 555 92500;EQDQ01  00003PRCP99N01 00000JPWTH 0QNNAA1D0 00000BA1 0 00000GA1U0 99999KA1D0 00071JA1 0 00217LA1 0 01000CA1 0 02994NA1 0 00000QA1 0 10136SA1D0 00089RA1 0 00317YA1 0 11013
0360722500129192000072504003+25900-097433FM-15+0006BRO  V0201505N00215220005MN0160005N1+02615+02335101495ADDAA101000095GF100991999999999999999999GP10060000002000000002000000002000GR100600000900009MA1101525999999MW1001REMMET069KBRO 250356Z 15004KT 10SM CLR 26/23 A2998 RMK AO2 SLP149 T02610233 $;EQDQ01+000000PRSWM2N01 00000JPWTH 0QNNAA1D0 00000BA1 0 00000GA1U0 99999KA1D0 00074JA1 0 00233LA1 0 01000CA1 0 02998NA1 0 00000QA1 0 10149SA1D0 00079RA1 0 00261YA1 0 15004
0378722500129192000080103003+25900-097433FM-15+0006BRO  V0201205N00265220005MN0160005N1+02725+02395101555ADDAA101000095GF100991999999999999999999GP10060000002000000002000000002000GR100600000900009MA1101565999999MD1310191+9999MW1001REMMET073KBRO 010256Z 12005KT 10SM CLR 27/24 A2999 RMK AO2 SLP155 T02720239 53019;EQDQ01+000000PRSWM2N01 00000JPWTH 0QNNAA1D0 00000BA1 0 00000GA1U0 99999KA1D0 00075JA1 0 00239LA1 0 01000CA1 0 02999NA1 0 00000QA1 0 10155SA1D0 00081RA1 0 00272YA1 0 12005
0377722500129192000080202003+25900-097433FM-15+0006BRO  V0201405N00365220005MN0160005N1+02785+02285101415ADDAA101000095GF100991999999999999999999GP10060000002008000002015000002008GQ100600887928939GR100600007903219MA1101425999999MW1001REMMET069KBRO 020156Z 14007KT 10SM CLR 28/23 A2995 RMK AO2 SLP141 T02780228 $;EQDQ01+000000PRSWM2N01 00000JPWTH 0QNNAA1D0 00000BA1 0 00000GA1U0 99999KA1D0 00073JA1 0 00228LA1 0 01000CA1 0 02995NA1 0 00000QA1 0 10141SA1D0 00082RA1 0 00278YA1 0 14007
0403722500129192000080217003+25900-097433FM-15+0006BRO  V0201605N00365220005MN0160005N1+03335+02115101505ADDAA101000095GD11995+0146359GF102991999999999999999999GP10060070202008044702015031602008GQ100600303909989GR100601143913279MA1101525999999MW1001REMMET080KBRO 021656Z 16007KT 120V180 10SM FEW048 33/21 A2998 RMK AO2 SLP150 T03330211 $;EQDQ01+000000PRSWM2N01 00000JPWTH 0QNNAA1D0 02048BA1 0 01048GA1U0 99999KA1D0 00070JA1 0 00211LA1 0 01000CA1 0 02998NA1 0 00000QA1 0 10150SA1D0 00092RA1 0 00333YA1 0 16007
0375722500129192000080713003+25900-097433FM-15+0006BRO  V0201105N00215220005MN0160005N1+02615+02505101455ADDAA101000095GF100991999999999999999999GP10060000002008000002015000002008GQ100600839907489GR100600140913189MA1101465999999MW1001REMMET067KBRO 071256Z 11004KT 10SM CLR 26/25 A2996 RMK AO2 SLP145 T02610250;EQDQ01+000000PRSWM2N01 00000JPWTH 0QNNAA1D0 00000BA1 0 00000GA1U0 99999KA1D0 00077JA1 0 00250LA1 0 01000CA1 0 02996NA1 0 00000QA1 0 10145SA1D0 00079RA1 0 00261YA1 0 11004
0221722500129192000080717564+25900-097430FM-15+0006KBRO V0201101N006212200019N0160931N1+03401+02301101491ADDGD12991+0120019GF102991999999999999999999KA1999M+03391KA2999N+02501MA1101521999999MD1810011+9999MW1001REMMET088KBRO 071756Z 11012KT 10SM FEW040 34/23 A2998 RMK AO2 SLP149 T03390228 10339 20250 58001;EQDQ01+000000PRSWM2
0393722500129192000081601003+25900-097433FM-15+0006BRO  V0200805N00265220005MN0160005N1+02615+02505101865ADDAA101000095GD11995+0079259GF102991999999999999999999GP10060001602008000002015001602008GQ100600830928209GR100600162913329MA1101865999999MW1001REMMET070KBRO 160056Z 08005KT 10SM FEW026 26/25 A3008 RMK AO2 SLP186 T02610250;EQDQ01+000000PRSWM2N01 00000JPWTH 0QNNAA1D0 02026BA1 0 01026GA1U0 99999KA1D0 00077JA1 0 00250LA1 0 01000CA1 0 03008NA1 0 00000QA1 0 10186SA1D0 00079RA1 0 00261YA1 0 08005
0378722500129192000082303003+25900-097433FM-15+0006BRO  V0201005N00315220005MN0160005N1+02565+02335101805ADDAA101000095GF100991999999999999999999GP10060000002000000002000000002000GR100600000900009MA1101835999999MD1110201+9999MW1001REMMET073KBRO 230256Z 10006KT 10SM CLR 26/23 A3007 RMK AO2 SLP180 T02560233 51020;EQDQ01+000000PRSWM2N01 00000JPWTH 0QNNAA1D0 00000BA1 0 00000GA1U0 99999KA1D0 00074JA1 0 00233LA1 0 01000CA1 0 03007NA1 0 00000QA1 0 10180SA1D0 00078RA1 0 00256YA1 0 10006
0188722500129192000082305564+25900-097430FM-15+0006KBRO V0201301N002112200019N0160931N1+02501+02301101881ADDGF100991999999999999999999MA1101901999999MW1001REMMET110KBRO 230556Z 13004KT 10SM CLR 25/23 A3009 RMK AO2 SLP188 TIDE DEP 00/// T02500228 10294 20250 403330228 51008;EQDQ01+000000PRSWM2
0443722500129192000082423003+25900-097433FM-15+0006BRO  V0201205N00415014635MN0160005N1+03005+02335101735ADDAA101000095GD12995+0109759GD24995+0146359GF108991999999999999999999GP10060043402008056802015013302008GQ100600580926669GR100600707913379MA1101765999999MW1001REMMET083KBRO 242256Z 12008KT 10SM SCT036 OVC048 30/23 A3005 RMK AO2 TSE42 SLP173 T03000233;EQDQ01+000000PRSWM2N01 00000JPWTH 0QNNAA1D0 02036BA1 0 02036AA1D0 06048BA1 0 06048GA1 0 00048KA1D0 00074JA1 0 00233LA1 0 01000CA1 0 03005NA1 0 00000QA1 0 10173SA1D0 00086RA1 0 00300YA1 0 12008
0378722500129192000082703003+25900-097433FM-15+0006BRO  V0201305N00365220005MN0160005N1+02785+02445101285ADDAA101000095GF100991999999999999999999GP10060000002000000002000000002000GR100600000900009MA1101295999999MD1310081+9999MW1001REMMET073KBRO 270256Z 13007KT 10SM CLR 28/24 A2991 RMK AO2 SLP128 T02780244 53008;EQDQ01+000000PRSWM2N01 00000JPWTH 0QNNAA1D0 00000BA1 0 00000GA1U0 99999KA1D0 00076JA1 0 00244LA1 0 01000CA1 0 02991NA1 0 00000QA1 0 10128SA1D0 00082RA1 0 00278YA1 0 13007
0203722500129192000082723564+25900-097430FM-15+0006KBRO V0201201N005112200019N0160931N1+03101+02301101061ADDGF100991999999999999999999KA1999M+03441KA2999N+03061MA1101081999999MD1610081+9999MW1001REMMET085KBRO 272356Z 12010KT 10SM CLR 31/23 A2985 RMK AO2 SLP106 T03060228 10344 20306 56008;EQDQ01+000000PRSWM2
0213722500129192000083105564+25900-097430FM-15+0006KBRO V0201701N002612200019N0160931N1+02501+02401101291ADDGF100991999999999999999999KA1999M+03061KA2999N+02501MA1101321999999MD1010011+9999MW1001REMMET095KBRO 310556Z 17005KT 10SM CLR 25/24 A2992 RMK AO2 SLP129 T02500239 10306 20250 403560239 50001;EQDQ01+000000PRSWM2
0358722500129192000090207003+25900-097433FM-15+0006BRO  V0201805N00315220005MN0160005N1+02615+02445101355ADDAA101000095GF100991999999999999999999GP10060000002000000002000000002000GR100600000900009MA1101355999999MW1001REMMET067KBRO 020656Z 18006KT 10SM CLR 26/24 A2993 RMK AO2 SLP135 T02610244;EQDQ01+000000PRSWM2N01 00000JPWTH 0QNNAA1D0 00000BA1 0 00000GA1U0 99999KA1D0 00076JA1 0 00244LA1 0 01000CA1 0 02993NA1 0 00000QA1 0 10135SA1D0 00079RA1 0 00261YA1 0 18006
0393722500129192000090217003+25900-097433FM-15+0006BRO  V0201805N00465220005MN0160005N1+03395+02285101395ADDAA101000095GD11995+0125059GF102991999999999999999999GP10060075302008070702015016502008GQ100600338911799GR100601114913439MA1101425999999MW1001REMMET070KBRO 021656Z 18009KT 10SM FEW041 34/23 A2995 RMK AO2 SLP139 T03390228;EQDQ01+000000PRSWM2N01 00000JPWTH 0QNNAA1D0 02041BA1 0 01041GA1U0 99999KA1D0 00073JA1 0 00228LA1 0 01000CA1 0 02995NA1 0 00000QA1 0 10139SA1D0 00093RA1 0 00339YA1 0 18009
0375722500129192000090220003+25900-097433FM-15+0006BRO  V0201505N00675220005MN0160005N1+03505+02175101235ADDAA101000095GF100991999999999999999999GP10060085502008073602015017902008GQ100600236922019GR100601230913439MA1101255999999MW1001REMMET067KBRO 021956Z 15013KT 10SM CLR 35/22 A2990 RMK AO2 SLP123 T03500217;EQDQ01+000000PRSWM2N01 00000JPWTH 0QNNAA1D0 00000BA1 0 00000GA1U0 99999KA1D0 00071JA1 0 00217LA1 0 01000CA1 0 02990NA1 0 00000QA1 0 10123SA1D0 00095RA1 0 00350YA1 0 15013
0375722500129192000090516003+25900-097433FM-15+0006BRO  V0209999V00315220005MN0160005N1+03505+02115101265ADDAA101000095GF100991999999999999999999GP10060060402008065802015015202008GQ100600467910679GR100600921913459MA1101295999999MW1001REMMET067KBRO 051556Z VRB06KT 10SM CLR 35/21 A2991 RMK AO2 SLP126 T03500211;EQDQ01+000000PRSWM2N01 00000JPWTH 0QNNAA1D0 00000BA1 0 00000GA1U0 99999KA1D0 00070JA1 0 00211LA1 0 01000CA1 0 02991NA1 0 00000QA1 0 10126SA1D0 00095RA1 0 00350YA1 0 00006
0164722500129192000090712114+25900-097430FM-16+0006KBRO V0203401N003110081019N0080461N1+02401+02401999999ADDGD13991+0081019GF107991999999999999999999MA1100911999999MW1101REMMET055KBRO 071211Z 34006KT 5SM BR BKN027 24/24 A2980 RMK AO2;EQDQ01+000003PRSWM1Q02    003PRSWM1
0461722500129192000090713003+25900-097433FM-15+0006BRO  V0203505N00265220005MN0064005N1+02565+02445100925ADDAA101000095GD12995+0082359GD22995+0112859GF104991999999999999999999GP10060000002008000002015000002008GQ100600852908579GR100600087910439MA1100955999999MW1101MW2455REMMET079KBRO 071256Z 35005KT 4SM BR SCT027 SCT037 26/24 A2981 RMK AO2 SLP092 T02560244;EQDQ01+000003PRSWM1Q02    003PRSWM1N01 00070JPWTH 0QNNAA1D0 02027BA1 0 02027AA1D0 02037BA1 0 02037GA1U0 99999KA1D0 00076JA1 0 00244LA1 0 00400CA1 0 02981NA1 0 00070QA1 0 10092SA1D0 00078RA1 0 00256YA1 0 35005
0482722500129192000091012003+25900-097433SY-MT+0006BRO  V0201305N00215220005MN0096005N1+02505+02445101145ADDAA101000095GA1001+999999999GD10995+9999999GF100991001001999999001001GP10060000002000000002000000002000GR100600000900009KA1999M+03501KA2120N+02501MA1101155101071MD1310101+9999MW1101MW2455REMSYN098AAXX  10124 72250 31959 01304 10250 20244 30107 40114 53010 710// 91156 333 10350 20250 555 91012;EQDQ01  00002PRCP99Q02  00003PRCP99N01 00070JPWTH 0QNNAA1D0 00000BA1 0 00000GA1U0 99999KA1D0 00076JA1 0 00244LA1 0 00600CA1 0 02987NA1 0 00070QA1 0 10114SA1D0 00077RA1 0 00250YA1 0 13004
0376722500129192000092911003+25900-097433FM-15+0006BRO  V0203305N00315220005MN0160005N1+01675+01335101695ADDAA101000095GD11995+0182959GF102991999999999999999999GP10060000002000000002000000002000GR100600000900009MA1101735999999MW1001REMMET070KBRO 291056Z 33006KT 10SM FEW060 17/13 A3004 RMK AO2 SLP169 T01670133;EQDQ01+000000PRSWM2N01 00000JPWTH 0QNNAA1D0 02060BA1 0 01060GA1U0 99999KA1D0 00056JA1 0 00133LA1 0 01000CA1 0 03004NA1 0 00000QA1 0 10169SA1D0 00062RA1 0 00167YA1 0 33006
0395722500129192000100215003+25900-097433FM-15+0006BRO  V0202005N00465220005MN0160005N1+02835+02285101295ADDAA101000095GF100991999999999999999999GP10060037202008049902015014302008GQ100600628910959GR100600622913659MA1101325999999MD1110081+9999MW1001REMMET073KBRO 021456Z 20009KT 10SM CLR 28/23 A2992 RMK AO2 SLP129 T02830228 51008;EQDQ01+000000PRSWM2N01 00000JPWTH 0QNNAA1D0 00000BA1 0 00000GA1U0 99999KA1D0 00073JA1 0 00228LA1 0 01000CA1 0 02992NA1 0 00000QA1 0 10129SA1D0 00083RA1 0 00283YA1 0 20009
0413722500129192000100521003+25900-097433FM-15+0006BRO  V0201605N00885220005MN0160005N1+03225+02175101005ADDAA101000095GD11995+0115859GF102991999999999999999999GP10060062102008058302015020602008GQ100600446923049GR100600972913689MA1101025999999MD1510091+9999MW1001REMMET076KBRO 052056Z 16017KT 10SM FEW038 32/22 A2983 RMK AO2 SLP100 T03220217 55009;EQDQ01+000000PRSWM2N01 00000JPWTH 0QNNAA1D0 02038BA1 0 01038GA1U0 99999KA1D0 00071JA1 0 00217LA1 0 01000CA1 0 02983NA1 0 00000QA1 0 10100SA1D0 00090RA1 0 00322YA1 0 16017
0375722500129192000100619003+25900-097433FM-15+0006BRO  V0201105N00525220005MN0160005N1+03115+02505101385ADDAA101000095GF100991999999999999999999GP10060073102008051602015029102008GQ100600318918589GR100601164913699MA1101395999999MW1001REMMET067KBRO 061856Z 11010KT 10SM CLR 31/25 A2994 RMK AO2 SLP138 T03110250;EQDQ01+000000PRSWM2N01 00000JPWTH 0QNNAA1D0 00000BA1 0 00000GA1U0 99999KA1D0 00077JA1 0 00250LA1 0 01000CA1 0 02994NA1 0 00000QA1 0 10138SA1D0 00088RA1 0 00311YA1 0 11010
0307722500129192000100811564+25900-097430FM-15+0006KBRO V0203401N01081001801CN0112651N1+01101+00901102631ADDAA101000021AA206000591AA324037891GD14991+0024019GF108991999999999999999999MA1102641999999MW1611OC101441REMMET157KBRO 081156Z 34021G28KT 7SM -RA OVC008 11/09 A3031 RMK AO2 PK WND 34032/1119 CIG 006V010 SLP263 TIDE DEP 00/// P0000 60002 70149 T01060094 10128 20106 53019;EQDQ01+000003PRSWM1Q02    003PRSWM1
0387722500129192000100902003+25900-097433FM-15+0006BRO  V0203405N00885006105MN0160005N1+00945+00675103165ADDAA101000095GD14995+0061059GF108991999999999999999999GP10060000002000000002000000002000GR100600000900009MA1103185999999MW1001OC101231REMMET073KBRO 090156Z 34017G24KT 10SM OVC020 09/07 A3047 RMK AO2 SLP316 T00940067;EQDQ01+000000PRSWM2N01 00000JPWTH 0QNNAA1D0 06020BA1 0 06020GA1 0 00020KA1D0 00044JA1 0 00067LA1 0 01000CA1 0 03047NA1 0 00000QA1 0 10316SA1D0 00049RA1 0 00094YA1 0 34017
0430722500129192000101421003+25900-097433FM-15+0006BRO  V0201305N00825220005MN0160005N1+02615+02225101585ADDAA101000095AA203001391GD11995+0079259GF102991999999999999999999GP10060042602008014802015032602008GQ100600475922789GR100600928913759MA1101595999999MD1610171+9999MW1001REMMET082KBRO 142056Z 13016KT 10SM FEW026 26/22 A3000 RMK AO2 SLP158 60005 T02610222 56017;EQDQ01+000000PRSWM2N01 00000JPWTH 0QNNAA1D0 02026BA1 0 01026GA1U0 99999KA1D0 00072JA1 0 00222LA1 0 01000CA1 0 03000NA1 0 00000QA1 0 10158SA1D0 00079RA1 0 00261YA1 0 13016
0466722500129192000102207003+25900-097433FM-15+0006BRO  V0201605N00365024385MN0160005N1+02425+02275101395ADDAA101000095GD11995+0097559GD22995+0149459GD33995+0243859GF107991999999999999999999GP10060000002000000002000000002000GR100600000900009MA1101425999999MW1001REMMET086KBRO 220656Z 16007KT 10SM FEW032 SCT049 BKN080 24/23 A2995 RMK AO2 SLP139 T02420227 $;EQDQ01+000000PRSWM2N01 00000JPWTH 0QNNAA1D0 02032BA1 0 01032AA1D0 02049BA1 0 02049AA1D0 04080BA1 0 04080GA1 0 00080KA1D0 00073JA1 0 00227LA1 0 01000CA1 0 02995NA1 0 00000QA1 0 10139SA1D0 00076RA1 0 00242YA1 0 16007
0395722500129192000102303003+25900-097433FM-15+0006BRO  V0201405N00525220005MN0144005N1+02615+02395101825ADDAA101000095GD11995+0054959GF102991999999999999999999GP10060000002000000002000000002000GR100600000900009MA1101835999999MD1110221+9999MW1001REMMET075KBRO 230256Z 14010KT 9SM FEW018 26/24 A3007 RMK AO2 SLP182 T02610239 51022;EQDQ01+000000PRSWM2N01 00000JPWTH 0QNNAA1D0 02018BA1 0 01018GA1U0 99999KA1D0 00075JA1 0 00239LA1 0 00900CA1 0 03007NA1 0 00000QA1 0 10182SA1D0 00079RA1 0 00261YA1 0 14010
0449722500129192000102312003+25900-097433SY-MT+0006BRO  V0201405N00315220005MN0144005N1+02395+02285102015ADDAA101000095AA206000791GA1001+999999999GD10995+9999999GF100991001001999999001001GP10060000002000000002000000002000GR100600000900009KA1999M+03001KA2120N+02391MA1102035101951MD1310091+9999REMSYN098AAXX  23124 72250 12964 01406 10239 20228 30195 40201 53009 69901 91156 333 10300 20239 555 92312;EQDN01 00000JPWTH 0QNNAA1D0 00000BA1 0 00000GA1U0 99999KA1D0 00073JA1 0 00228LA1 0 00900CA1 0 03013NA1 0 00000QA1 0 10201SA1D0 00075RA1 0 00239YA1 0 14006
0481722500129192000102322003+25900-097433FM-15+0006BRO  V0201105N00725009145MN0160005N1+02785+02225101985ADDAA101000095GD12995+0070159GD23995+0091459GD34995+0167659GF108991999999999999999999GP10060012902008000002015012902008GQ100600608923789GR100600674913829MA1102005999999MW1001REMMET084KBRO 232156Z 11014KT 10SM SCT023 BKN030 OVC055 28/22 A3012 RMK AO2 SLP198 T02780222;EQDQ01+000000PRSWM2N01 00000JPWTH 0QNNAA1D0 02023BA1 0 02023AA1D0 04030BA1 0 04030AA1D0 06055BA1 0 06055GA1 0 00030KA1D0 00072JA1 0 00222LA1 0 01000CA1 0 03012NA1 0 00000QA1 0 10198SA1D0 00082RA1 0 00278YA1 0 11014
0358722500129192000103011003+25900-097433FM-15+0006BRO  V0201305N00265220005MN0160005N1+02175+02005101615ADDAA101000095GF100991999999999999999999GP10060000002000000002000000002000GR100600000900009MA1101635999999MW1001REMMET067KBRO 301056Z 13005KT 10SM CLR 22/20 A3001 RMK AO2 SLP161 T02170200;EQDQ01+000000PRSWM2N01 00000JPWTH 0QNNAA1D0 00000BA1 0 00000GA1U0 99999KA1D0 00068JA1 0 00200LA1 0 01000CA1 0 03001NA1 0 00000QA1 0 10161SA1D0 00071RA1 0 00217YA1 0 13005
0375722500129192000110407003+25900-097433FM-15+0006BRO  V0201505N00215220005MN0144005N1+02285+02225101435ADDAA101000095GD11995+0048859GF102991999999999999999999GP10060000002000000002000000002000GR100600000900009MA1101465999999MW1001REMMET069KBRO 040656Z 15004KT 9SM FEW016 23/22 A2996 RMK AO2 SLP143 T02280222;EQDQ01+000000PRSWM2N01 00000JPWTH 0QNNAA1D0 02016BA1 0 01016GA1U0 99999KA1D0 00072JA1 0 00222LA1 0 00900CA1 0 02996NA1 0 00000QA1 0 10143SA1D0 00073RA1 0 00228YA1 0 15004
0449722500129192000110612003+25900-097433SY-MT+0006BRO  V0202805N00215220005MN0160005N1+02175+02065100375ADDAA101000095AA206000791GA1001+999999999GD10995+9999999GF100991001001999999001001GP10060000002000000002000000002000GR100600000900009KA1999M+03001KA2120N+02111MA1100375100301MD1310211+9999REMSYN098AAXX  06124 72250 12966 02804 10217 20206 30030 40037 53021 69901 91156 333 10300 20211 555 90612;EQDN01 00000JPWTH 0QNNAA1D0 00000BA1 0 00000GA1U0 99999KA1D0 00069JA1 0 00206LA1 0 01000CA1 0 02964NA1 0 00000QA1 0 10037SA1D0 00071RA1 0 00217YA1 0 28004
0375722500129192000110623003+25900-097433FM-15+0006BRO  V0200605N00575220005MN0160005N1+02505+01225100435ADDAA101000095GF100991999999999999999999GP10060019502008055902015005202008GQ100600753924329GR100600354913939MA1100445999999MW1001REMMET067KBRO 062256Z 06011KT 10SM CLR 25/12 A2966 RMK AO2 SLP043 T02500122;EQDQ01+000000PRSWM2N01 00000JPWTH 0QNNAA1D0 00000BA1 0 00000GA1U0 99999KA1D0 00054JA1 0 00122LA1 0 01000CA1 0 02966NA1 0 00000QA1 0 10043SA1D0 00077RA1 0 00250YA1 0 06011
0275722500129192000110805564+25900-097430FM-15+0006KBRO V0201801N005710084019N0160931N1+02601+02401100311ADDGD12991+0057019GD23991+0084019GD34991+0111019GF108991999999999999999999KA1999M+02671KA2999N+02561MA1100341999999MD1110081+9999MW1001REMMET112KBRO 080556Z 18011KT 10SM FEW019 BKN028 OVC037 26/24 A2963 RMK AO2 SLP031 T02610239 10267 20256 403110178 51008;EQDQ01+000000PRSWM2
0448722500129192000111212003+25900-097433SY-MT+0006BRO  V0201305N00575220005MN0160005N1+02395+02335101125ADDAA101000095GD11995+0094559GF102991999999008001999999GP10060000002000000002000000002000GR100600000900009KA1999M+02781KA2120N+02331MA1101155101071MD1810051+9999REMSYN092AAXX  12124 72250 32566 21311 10239 20233 30107 40112 58005 91156 333 10278 20233 555 91212;EQDQ01  00002PRCP99Q02  00003PRCP99N01 00000JPWTH 0QNNAA1D0 02031BA1 0 01031GA1U0 99999KA1D0 00074JA1 0 00233LA1 0 01000CA1 0 02987NA1 0 00000QA1 0 10112SA1D0 00075RA1 0 00239YA1 0 13011
0168722500129192000111521424+25900-097430FM-16+0006KBRO V0201701N009310078019N0160931N1+02401+01901999999ADDGD13991+0078019GD24991+0099019GF108991999999999999999999MA1101191999999MW1001REMMET060KBRO 152142Z 17018KT 10SM BKN026 OVC033 24/19 A2988 RMK AO2;EQDQ01+000000PRSWM2
0168722500129192000111709334+25900-097430FM-16+0006KBRO V0203401N004110180019N0160931N1+02101+02101999999ADDGD12991+0075019GD23991+0180019GF107991999999999999999999MA1101221999999MW1001REMMET060KBRO 170933Z 34008KT 10SM SCT025 BKN065 21/21 A2989 RMK AO2;EQDQ01+000000PRSWM2
0412722500129192000111811003+25900-097433FM-15+0006BRO  V0203105N00625000915MN0080005N1+01005+01005101525ADDAA101000025GD14995+0009159GF108991999999999999999999GP10060000002000000002000000002000GR100600000900009MA1101525999999MW1101MW2455REMMET084KBRO 181056Z 31012KT 5SM BR OVC003 10/10 A2998 RMK AO2 DZE31 SLP152 P0000 T01000100;EQDQ01+000003PRSWM1Q02    003PRSWM1N01 00070JPWTH 0QNNAA1D0 06003BA1 0 06003GA1 0 00003KA1D0 00050JA1 0 00100LA1 0 00500CA1 0 02998NA1 0 00070QA1 0 10152SA1D0 00050RA1 0 00100YA1 0 31012
0375722500129192000111923003+25900-097433FM-15+0006BRO  V0200205N00525220005MN0160005N1+01335+00895102455ADDAA101000095GF100991999999999999999999GP10060017202008034002015009402008GQ100600768924009GR100600320914019MA1102475999999MW1001REMMET067KBRO 192256Z 02010KT 10SM CLR 13/09 A3026 RMK AO2 SLP245 T01330089;EQDQ01+000000PRSWM2N01 00000JPWTH 0QNNAA1D0 00000BA1 0 00000GA1U0 99999KA1D0 00048JA1 0 00089LA1 0 01000CA1 0 03026NA1 0 00000QA1 0 10245SA1D0 00056RA1 0 00133YA1 0 02010
0508722500129192000120300003+25900-097433SY-MT+0006BRO  V0203605N00575009455MN0160005N1+01225+00725102825ADDAA101000095GD13995+0094559GD24995+0198159GF108991999999008001999999GP10060000402008003502015000402008GQ100600866924359GR100600051908569KA1120M+01721KA2180N+01171MA1102845102771MD1310041+9999REMSYN098AAXX  03004 72250 32566 83611 10122 20072 30277 40282 53004 92356 333 10172 20117 91016 555 90300;EQDQ01  00002PRCP99Q02  00003PRCP99N01 00000JPWTH 0QNNAA1D0 04031BA1 0 04031AA1D0 06065BA1 0 06065GA1 0 00031KA1D0 00045JA1 0 00072LA1 0 01000CA1 0 03037NA1 0 00000QA1 0 10282SA1D0 00054RA1 0 00122YA1 0 36011
0186722500129192000120913424+25900-097430FM-16+0006KBRO V0209999C000012200019N0096561N1+01201+01201999999ADDGD12991+0003019GD22991+0084019GF104991999999999999999999MA1101861999999MW1101REMMET062KBRO 091342Z 00000KT 6SM BR FEW001 SCT028 12/12 A3008 RMK AO2;EQDQ01+000003PRSWM1Q02    003PRSWM1
0387722500129192000121302003+25900-097433FM-15+0006BRO  V0203405N00625004275MN0160005N1+00505-00115102215ADDAA101000095GD14995+0042759GF108991999999999999999999GP10060000002000000002000000002000GR100600000900009MA1102245999999MW1001REMMET081KBRO 130156Z AUTO 34012KT 10SM OVC014 05/M01 A3019 RMK AO2 SLP221 T00501011 TSNO;EQDQ01+000000PRSWM2N01 00000JPWTH 0QNNAA1D0 06014BA1 0 06014GA1 0 00014KA1D0 00030JA1 0-00011LA1 0 01000CA1 0 03019NA1 0 00000QA1 0 10221SA1D0 00041RA1 0 00050YA1 0 34012
0376722500129192000121404003+25900-097433FM-15+0006BRO  V0203305N00365002445MN0160005N1+00895+00725102205ADDAA101000095GD14995+0024459GF108991999999999999999999GP10060000002000000002000000002000GR100600000900009MA1102205999999MW1001REMMET070KBRO 140356Z 33007KT 10SM OVC008 09/07 A3018 RMK AO2 SLP220 T00890072;EQDQ01+000000PRSWM2N01 00000JPWTH 0QNNAA1D0 06008BA1 0 06008GA1 0 00008KA1D0 00045JA1 0 00072LA1 0 01000CA1 0 03018NA1 0 00000QA1 0 10220SA1D0 00048RA1 0 00089YA1 0 33007
0422722500129192000121411003+25900-097433FM-15+0006BRO  V0203305N00415001225MN0080005N1+00785+00785102375ADDAA101000025GD14995+0012259GF108991999999999999999999GP10060000002000000002000000002000GR100600000900009MA1102405999999MW1101MW2455MW3515REMMET088KBRO 141056Z 33008KT 5SM -DZ BR OVC004 08/08 A3024 RMK AO2 DZB08 SLP237 P0000 T00780078;EQDQ01+000003PRSWM1Q02    003PRSWM1N01 03370JPWTH 0QNNAA1D0 06004BA1 0 06004GA1 0 00004KA1D0 00046JA1 0 00078LA1 0 00500CA1 0 03024NA1 0 03370QA1 0 10237SA1D0 00046RA1 0 00078YA1 0 33008
0404722500129192000121623003+25900-097433FM-15+0006BRO  V0200205N00675220005MN0160005N1+02065+00785102255ADDAA101000095GF100991999999999999999999GP10060016402008048302015005402008GQ100600769923559GR100600320914139MA1102275999999MW1001OC101031REMMET088KBRO 162256Z 02013G20KT 10SM CLR 21/08 A3020 RMK AO2 PK WND 02027/2206 SLP225 T02060078;EQDQ01+000000PRSWM2N01 00000JPWTH 0QNNAA1D0 00000BA1 0 00000GA1U0 99999KA1D0 00046JA1 0 00078LA1 0 01000CA1 0 03020NA1 0 00000QA1 0 10225SA1D0 00069RA1 0 00206YA1 0 02013
0358722500129192000122105003+25900-097433FM-15+0006BRO  V0201905N00575220005MN0160005N1+01675+01445101395ADDAA101000095GF100991999999999999999999GP10060000002000000002000000002000GR100600000900009MA1101425999999MW1001REMMET067KBRO 210456Z 19011KT 10SM CLR 17/14 A2995 RMK AO2 SLP139 T01670144;EQDQ01+000000PRSWM2N01 00000JPWTH 0QNNAA1D0 00000BA1 0 00000GA1U0 99999KA1D0 00058JA1 0 00144LA1 0 01000CA1 0 02995NA1 0 00000QA1 0 10139SA1D0 00062RA1 0 00167YA1 0 19011
0190722500129192000122302454+25900-097430FM-15+0006KBRO V0203101N003110105019N0160931N1+01201+00801999999ADDGD12991+0045019GD23991+0105019GD34991+0132019GF108991999999999999999999MA1102371999999MW1001REMMET067KBRO 230245Z 31006KT 10SM FEW015 BKN035 OVC044 12/08 A3023 RMK AO2;EQDQ01+000000PRSWM2
0395722500129192000122416003+25900-097433FM-15+0006BRO  V0200405N00215002135MN0160005N1+01725+01445102335ADDAA101000095GD14995+0021359GF108991999999999999999999GP10060010302008000002015010302008GQ100600657913489GR100600580914149MA1102375999999MW1001REMMET072KBRO 241556Z 04004KT 10SM OVC007 17/14 A3023 RMK AO2 SLP233 T01720144 $;EQDQ01+000000PRSWM2N01 00000JPWTH 0QNNAA1D0 06007BA1 0 06007GA1 0 00007KA1D0 00058JA1 0 00144LA1 0 01000CA1 0 03023NA1 0 00000QA1 0 10233SA1D0 00063RA1 0 00172YA1 0 04004
0360722500129192000122613003+25900-097433FM-15+0006BRO  V0201605N00575220005MN0160005N1+01945+01835101515ADDAA101000095GF100991999999999999999999GP10060000002000000002000000002000GR100600000900009MA1101525999999MW1001REMMET069KBRO 261256Z 16011KT 10SM CLR 19/18 A2998 RMK AO2 SLP151 T01940183 $;EQDQ01+000000PRSWM2N01 00000JPWTH 0QNNAA1D0 00000BA1 0 00000GA1U0 99999KA1D0 00065JA1 0 00183LA1 0 01000CA1 0 02998NA1 0 00000QA1 0 10151SA1D0 00067RA1 0 00194YA1 0 16011
0481722500129192000122620003+25900-097433FM-15+0006BRO  V0201705N00725010065MN0160005N1+02395+01945101475ADDAA101000095GD12995+0076259GD23995+0100659GD34995+0134159GF108991999999999999999999GP10060018202008000002015018202008GQ100600514919749GR100600882914159MA1101495999999MW1001REMMET084KBRO 261956Z 17014KT 10SM SCT025 BKN033 OVC044 24/19 A2997 RMK AO2 SLP147 T02390194;EQDQ01+000000PRSWM2N01 00000JPWTH 0QNNAA1D0 02025BA1 0 02025AA1D0 04033BA1 0 04033AA1D0 06044BA1 0 06044GA1 0 00033KA1D0 00067JA1 0 00194LA1 0 01000CA1 0 02997NA1 0 00000QA1 0 10147SA1D0 00075RA1 0 00239YA1 0 17014
0522722500129192000123106003+25900-097433SY-MT+0006BRO  V0200905N00315014945MN0160005N1+01225+00895102405ADDAA101000095GD13995+0149459GD23995+0182959GD34995+0243859GF108991999999012501999999GP10060000002000000002000000002000GR100600000900009KA1240M+01331KA2240N+00561MA1102445102361MD1810091+9999REMSYN092AAXX  31064 72250 32666 80906 10122 20089 30236 40240 58009 90556 333 10133 20056 555 93106;EQDQ01  00002PRCP99Q02  00003PRCP99N01 00000JPWTH 0QNNAA1D0 04049BA1 0 04049AA1D0 04060BA1 0 04060AA1D0 06080BA1 0 06080GA1 0 00049KA1D0 00048JA1 0 00089LA1 0 01000CA1 0 03025NA1 0 00000QA1 0 10240SA1D0 00054RA1 0 00122YA1 0 09006
0666722505129042000011505596+26228-097654SOD  +0011KHRL V020999999999999999999999999999+99999+99999999999ADDAA124000025KA1240M+02175KA2240N+01725MG1102789999994OE11240107307008395OE22240098307008395OE33240046599999995REMSOD54524 HR PRECIPITATION (IN):  T   24 HR MAX TEMP (F): 7124 HR MAX TEMP TIME (LST):1550 24 HR MIN TEMP (F): 6324 HR MIN TEMP TIME (LST):2359 AVERAGE STATION PRESSURE:30.35  PEAK WIND SPEED (MPH): 24 PEAK WIND DIR (DEG):070 PEAK WIND TIME (LST):0839  FASTEST 2MIN SPEED (MPH): 22FASTEST 2MIN DIR (DEG):070 FASTEST 2MIN TIME (LST):0839 AVERAGE WIND SPEED (MPH):10.4 24 HR AVG TEMP (F):67 HOURLY INCREMENTAL PRECIPITATION VALUES (IN):.00  .00  .00  .00  .00  .00  .00  .00  .00  .00  .00  .00  .00  .00  .00  .00  .00  .00  .00  .00  .00  .00  .00  .00
0666722505129042000060805596+26228-097654SOD  +0011KHRL V020999999999999999999999999999+99999+99999999999ADDAA124003395KA1240M+03175KA2240N+02175MG1101359999994OE11240102809017245OE22240093908016055OE33240043899999995REMSOD54524 HR PRECIPITATION (IN): 0.13 24 HR MAX TEMP (F): 8924 HR MAX TEMP TIME (LST):1414 24 HR MIN TEMP (F): 7124 HR MIN TEMP TIME (LST):0436 AVERAGE STATION PRESSURE:29.93  PEAK WIND SPEED (MPH): 23 PEAK WIND DIR (DEG):090 PEAK WIND TIME (LST):1724  FASTEST 2MIN SPEED (MPH): 21FASTEST 2MIN DIR (DEG):080 FASTEST 2MIN TIME (LST):1605 AVERAGE WIND SPEED (MPH): 9.8 24 HR AVG TEMP (F):80 HOURLY INCREMENTAL PRECIPITATION VALUES (IN):.00  .00  .00  .00  .00  .06   T   .03   T   .00  .04   T   .00  .00  .00  .00  .00  .00  .00  .00  .00  .00  .00  .00
0685722505129042000103005596+26228-097654SOD  +0011KHRL V020999999999999999999999999999+99999+99999999999ADDAA124000096KA1240M+03175KA2240N+02065MG1101259999994OE11240125219014185OE22240107317013065OE33240055999999995REMSOD54524 HR PRECIPITATION (IN): 0.00 24 HR MAX TEMP (F): 8924 HR MAX TEMP TIME (LST):1430 24 HR MIN TEMP (F): 6924 HR MIN TEMP TIME (LST):0640 AVERAGE STATION PRESSURE:29.90  PEAK WIND SPEED (MPH): 28 PEAK WIND DIR (DEG):190 PEAK WIND TIME (LST):1418  FASTEST 2MIN SPEED (MPH): 24FASTEST 2MIN DIR (DEG):170 FASTEST 2MIN TIME (LST):1306 AVERAGE WIND SPEED (MPH):12.5 24 HR AVG TEMP (F):79 HOURLY INCREMENTAL PRECIPITATION VALUES (IN):.00  .00  .00  .00  .00  .00  .00  .00  .00  .00  .00  .00  .00  .00  .00  .00  .00  .00  .00  .00  .00  .00  .00  .00EQDR01  0.007AAP092
0151722505999992000010104534+26230-097650FM-15+0011KHRL V0201401N002612200019N0020111N1+01301+01301101761ADDGF100991999999999999999999MA1101761999999MW1101REMMET073KHRL 010453Z 14005KT 1 1/4SM BR CLR 13/13 A3005 RMK AO2 SLP176 T01330133;EQDQ01    003PRSWM1
0166722505999992000010307534+26230-097650FM-15+0011KHRL V0201801N009812200019N0160931N1+02101+01901100861ADDGF100991999999999999999999MA1100881999999MW1001OC101231REMMET080KHRL 030753Z AUTO 18019G24KT 10SM CLR 21/19 A2979 RMK AO2 SLP086 T02110194 TSNO;EQDQ01+000000PRSWM2
0216722505999992000010910534+26230-097650FM-15+0011KHRL V0201201N001510099019N0144841N1+01601+01401101411ADDGD13991+0099099GD23991+0123099GD34991+0180099GF108991999999999999999999MA1101421999999MW1001REMMET093KHRL 091053Z AUTO 12003KT 9SM BKN033 BKN041 OVC060 16/14 A2995 RMK AO2 SLP141 T01610144 TSNO;EQDQ01+000000PRSWM2
0195722505999992000011007534+26230-097650FM-15+0011KHRL V0202001N00151000151CN0004021N1+01701+01701101481ADDGD15991+0001599GF109991999999000251999999MA1101491999999MW1451REMMET086KHRL 100753Z AUTO 20003KT M1/4SM FG VV001 17/17 A2997 RMK AO2 SLP148 T01670167 TSNO $;EQDQ01+000003PRSWM1Q02    003PRSWM1
0173722505999992000011207534+26230-097650FM-15+0011KHRL V0201601N005112200019N0160931N1+02101+02001101651ADDGD12991+0039099GF102991999999999999999999MA1101661999999MW1001REMMET080KHRL 120753Z AUTO 16010KT 10SM FEW013 21/20 A3002 RMK AO2 SLP165 T02060200 TSNO;EQDQ01+000000PRSWM2
0221722505999992000012523534+26230-097650FM-15+0011KHRL V0201001N005112200019N0160931N1+01901+01401101801ADDGD12991+0150099GF102991999999999999999999KA1999M+02281KA2999N+01941MA1101801999999MD1310151+9999MW1001REMMET088KHRL 252353Z 10010KT 10SM FEW055 19/14 A3006 RMK AO2 SLP180 T01940139 10228 20194 53015;EQDQ01+000000PRSWM2
0155722505999992000021210534+26230-097650FM-15+0011KHRL V0201401N002112200019N0160931N1+01701+01701101161ADDGF100991999999999999999999MA1101191999999MW1001REMMET077KHRL 121053Z AUTO 14004KT 10SM CLR 17/17 A2988 RMK AO2 SLP116 T01720167 TSNO;EQDQ01+000000PRSWM2
0194722505999992000021709534+26230-097650FM-15+0011KHRL V0201601N005710090019N0144841N1+02201+02101101501ADDGD12991+0021099GD23991+0090099GF107991999999999999999999MA1101521999999MW1001REMMET086KHRL 170953Z AUTO 16011KT 9SM SCT007 BKN030 22/21 A2998 RMK AO2 SLP150 T02170211 TSNO;EQDQ01+000000PRSWM2
0195722505999992000022100534+26230-097650FM-15+0011KHRL V0200801N006210105019N0160931N1+02201+01801102571ADDGD12991+0066099GD24991+0105099GF108991999999999999999999MA1102571999999MW1001REMMET087KHRL 210053Z AUTO 08012KT 10SM FEW022 OVC035 22/18 A3029 RMK AO2 SLP257 T02170178 TSNO;EQDQ01+000000PRSWM2
0188722505999992000022820534+26230-097650FM-15+0011KHRL V0201601N008212200019N0160931N1+02801+01601101651ADDGD12991+0138099GF104991999999999999999999MA1101661999999MD1610381+9999MW1001REMMET081KHRL 282053Z AUTO 16016KT 10SM SCT046 28/16 A3002 RMK AO2 SLP165 T02830156 56038;EQDQ01+000000PRSWM2
0222722505999992000030120534+26230-097650FM-15+0011KHRL V0201401N008712200019N0160931N1+02801+01701101601ADDGD12991+0141099GF104991999999999999999999MA1101631999999MD1610271+9999MW1001OC101031REMMET107KHRL 012053Z AUTO 14017G20KT 10SM SCT047 28/17 A3001 RMK AO2 PK WND 15027/2003 SLP160 T02830167 56027 TSNO;EQDQ01+000000PRSWM2
0215722505999992000030408534+26230-097650FM-15+0011KHRL V0200601N006710069019N0160931N1+02001+01301101631ADDGD13991+0069099GD24991+0210099GF108991999999999999999999MA1101631999999MD1510041+9999MW1001REMMET093KHRL 040853Z AUTO 06013KT 10SM BKN023 OVC075 20/13 A3001 RMK AO2 SLP163 T02000133 55004 TSNO;EQDQ01+000000PRSWM2
0145722505999992000030513534+26230-097650FM-15+0011KHRL V0201601N003112200019N0160931N1+01701+01401101361ADDGF100991999999999999999999MA1101391999999MW1001REMMET067KHRL 051353Z 16006KT 10SM CLR 17/14 A2994 RMK AO2 SLP136 T01720144;EQDQ01+000000PRSWM2
0165722505999992000030702534+26230-097650FM-15+0011KHRL V0201401N007212200019N0160931N1+02301+02101101501ADDGF100991999999999999999999MA1101491999999MD1310181+9999MW1001REMMET073KHRL 070253Z 14014KT 10SM CLR 23/21 A2997 RMK AO2 SLP150 T02280206 53018;EQDQ01+000000PRSWM2
0154722505999992000031109534+26230-097650FM-15+0011KHRL V0209999C000012200019N0128741N1+01901+01901101231ADDGF100991999999999999999999MA1101251999999MW1001REMMET076KHRL 110953Z AUTO 00000KT 8SM CLR 19/19 A2990 RMK AO2 SLP123 T01940189 TSNO;EQDQ01+000000PRSWM2
0176722505999992000031816004+26230-097650FM-15+0011KHRL V0203001N004610009019N0064371N1+01401+01301999999ADDGD14991+0009099GF108991999999999999999999MA1101461999999MW1101REMMET067KHRL 181600Z 30009KT 4SM BR OVC003 14/13 A2996 RMK AO2 CIG 003V007;EQDQ01+000003PRSWM1Q02    003PRSWM1
0217722505999992000032103534+26230-097650FM-15+0011KHRL V0201501N007210087019N0160931N1+02301+01901100971ADDGD12991+0069099GD23991+0087099GD34991+0105099GF108991999999999999999999MA1100981999999MW1001REMMET094KHRL 210353Z AUTO 15014KT 10SM FEW023 BKN029 OVC035 23/19 A2982 RMK AO2 SLP097 T02280194 TSNO;EQDQ01+000000PRSWM2
0195722505999992000032409534+26230-097650FM-15+0011KHRL V0201501N005710045019N0160931N1+02301+02201101231ADDGD13991+0045099GD24991+0063099GF108991999999999999999999MA1101221999999MW1001REMMET087KHRL 240953Z AUTO 15011KT 10SM BKN015 OVC021 23/22 A2989 RMK AO2 SLP123 T02280222 TSNO;EQDQ01+000000PRSWM2
0167722505999992000032511194+26230-097650FM-16+0011KHRL V0201101N002610042019N0128741N1+02201+02101999999ADDGD13991+0042099GD24991+0123099GF108991999999999999999999MA1101521999999MW1001REMMET059KHRL 251119Z 11005KT 8SM BKN014 OVC041 22/21 A2998 RMK AO2;EQDQ01+000000PRSWM2
0186722505999992000032513254+26230-097650FM-15+0011KHRL V0201101N002612200019N0080461N1+02201+02101999999ADDGD12991+0030099GD22991+0054099GF104991999999999999999999MA1101661999999MW1101REMMET062KHRL 251325Z 11005KT 5SM BR SCT010 SCT018 22/21 A3002 RMK AO2;EQDQ01+000003PRSWM1Q02    003PRSWM1
0221722505999992000032611534+26230-097650FM-15+0011KHRL V0201401N003112200019N0080461N1+02001+01901101451ADDGF100991999999999999999999KA1999M+02171KA2999N+02001MA1101461999999MD1610101+9999MW1101REMMET087KHRL 261153Z 14006KT 5SM BR CLR 20/19 A2996 RMK AO2 SLP145 T02000194 10217 20200 56010;EQDQ01+000003PRSWM1Q02    003PRSWM1
0162722505999992000032903534+26230-097650FM-15+0011KHRL V0201601N006710060019N0144841N1+02501+02201100261ADDGD14991+0060099GF108991999999999999999999MA1100271999999MW1001REMMET069KHRL 290353Z 16013KT 9SM OVC020 25/22 A2961 RMK AO2 SLP026 T02500222;EQDQ01+000000PRSWM2
0162722505999992000040122534+26230-097650FM-15+0011KHRL V0201501N006212200019N0144841N1+02901+02201100571ADDGD12991+0144099GF102991999999999999999999MA1100581999999MW1001REMMET069KHRL 012253Z 15012KT 9SM FEW048 29/22 A2970 RMK AO2 SLP057 T02890217;EQDQ01+000000PRSWM2
0145722505999992000040203384+26230-097650FM-16+0011KHRL V0201301N004110039019N0144841N1+02501+02301999999ADDGD13991+0039099GF107991999999999999999999MA1100881999999MW1001REMMET052KHRL 020338Z 13008KT 9SM BKN013 25/23 A2979 RMK AO2;EQDQ01+000000PRSWM2
0150722505999992000040606534+26230-097650FM-15+0011KHRL V0201501N004112200019N0160931N1+01701+01401101631ADDGF100991999999999999999999MA1101631999999MW1001REMMET072KHRL 060653Z AUTO 15008KT 10SM CLR 17/14 A3001 RMK AO2 SLP163 T01720144;EQDQ01+000000PRSWM2
0170722505999992000040908534+26230-097650FM-15+0011KHRL V0209999C000012200019N0160931N1+01301+00701102491ADDGF100991999999999999999999MA1102511999999MD1810171+9999MW1001REMMET078KHRL 090853Z AUTO 00000KT 10SM CLR 13/07 A3027 RMK AO2 SLP249 T01280072 58017;EQDQ01+000000PRSWM2
0165722505999992000041102534+26230-097650FM-15+0011KHRL V0201401N007712200019N0160931N1+02301+02001101401ADDGF100991999999999999999999MA1101421999999MD1110161+9999MW1001REMMET073KHRL 110253Z 14015KT 10SM CLR 23/20 A2995 RMK AO2 SLP140 T02330200 51016;EQDQ01+000000PRSWM2
0237722505999992000041213534+26230-097650FM-15+0011KHRL V0200501N00411002101CN0080461N1+02301+02201101931ADDGD13991+0027099GD23991+0039099GD34991+0060099GF108991999999999999999999MA1101931999999MW1101REMMET098KHRL 121353Z 05008KT 5SM BR BKN009 BKN013 OVC020 23/22 A3010 RMK AO2 CIG 007V011 SLP193 T02280222;EQDQ01+000003PRSWM1Q02    003PRSWM1
0180722505999992000041218534+26230-097650FM-15+0011KHRL V0200601N007210270019N0160931N1+02401+01701101961ADDGD13991+0270099GF107991999999999999999999MA1101961999999MW1001REMMET087KHRL 121853Z 06014KT 10SM BKN090 24/17 A3011 RMK AO2 LTG DSNT S AND W SLP196 T02440172;EQDQ01+000000PRSWM2
0161722505999992000041819534+26230-097650FM-15+0011KHRL V0201701N007712200019N0160931N1+03301+02001101331ADDGF100991999999999999999999MA1101321999999MW1001OC101081REMMET075KHRL 181953Z AUTO 17015G21KT 10SM CLR 33/20 A2992 RMK AO2 SLP133 T03280200;EQDQ01+000000PRSWM2
0170722505999992000042008534+26230-097650FM-15+0011KHRL V0201601N007212200019N0160931N1+02301+02201100971ADDGF100991999999999999999999MA1100981999999MD1610071+9999MW1001REMMET078KHRL 200853Z AUTO 16014KT 10SM CLR 23/22 A2982 RMK AO2 SLP097 T02330217 56007;EQDQ01+000000PRSWM2
0162722505999992000042110534+26230-097650FM-15+0011KHRL V0200401N001510180019N0128741N1+02201+02201101721ADDGD13991+0180099GF107991999999999999999999MA1101731999999MW1001REMMET069KHRL 211053Z 04003KT 8SM BKN060 22/22 A3004 RMK AO2 SLP172 T02220217;EQDQ01+000000PRSWM2
0145722505999992000042613534+26230-097650FM-15+0011KHRL V0201001N005712200019N0160931N1+02401+01901101821ADDGF100991999999999999999999MA1101831999999MW1001REMMET067KHRL 261353Z 10011KT 10SM CLR 24/19 A3007 RMK AO2 SLP182 T02440194;EQDQ01+000000PRSWM2
0145722505999992000042701534+26230-097650FM-15+0011KHRL V0201501N004112200019N0160931N1+02301+01801101751ADDGF100991999999999999999999MA1101761999999MW1001REMMET067KHRL 270153Z 15008KT 10SM CLR 23/18 A3005 RMK AO2 SLP175 T02280178;EQDQ01+000000PRSWM2
0183722505999992000050102534+26230-097650FM-15+0011KHRL V0201601N007712200019N0160931N1+02601+02301101191ADDGD12991+0057099GF104991999999999999999999MA1101191999999MD1310191+9999MW1001REMMET076KHRL 010253Z 16015KT 10SM SCT019 26/23 A2988 RMK AO2 SLP119 T02610228 53019;EQDQ01+000000PRSWM2
0164722505999992000050411434+26230-097650FM-16+0011KHRL V0201601N005112200019N0080461N1+02401+02301999999ADDGD12991+0027099GF104991999999999999999999MA1101051999999MW1101REMMET055KHRL 041143Z 16010KT 5SM BR SCT009 24/23 A2984 RMK AO2;EQDQ01+000003PRSWM1Q02    003PRSWM1
0204722505999992000050514534+26230-097650FM-15+0011KHRL V0201601N008710060019N0128741N1+02801+02301101341ADDGD13991+0060099GD24991+0078099GF108991999999999999999999MA1101351999999MD1110191+9999MW1001REMMET082KHRL 051453Z 16017KT 8SM BKN020 OVC026 28/23 A2993 RMK AO2 SLP134 T02780228 51019;EQDQ01+000000PRSWM2
0168722505999992000051107534+26230-097650FM-15+0011KHRL V0201601N006210060019N0160931N1+02601+02301100901ADDGD13991+0060099GF107991999999999999999999MA1100911999999MW1001REMMET075KHRL 110753Z AUTO 16012KT 10SM BKN020 26/23 A2980 RMK AO2 SLP090 T02560233;EQDQ01+000000PRSWM2
0164722505999992000051411104+26230-097650FM-16+0011KHRL V0203001N002110003019N0080461N1+02001+02001999999ADDGD14991+0003099GF108991999999999999999999MA1101691999999MW1101REMMET055KHRL 141110Z 30004KT 5SM BR OVC001 20/20 A3003 RMK AO2;EQDQ01+000003PRSWM1Q02    003PRSWM1
0185722505999992000052116534+26230-097650FM-15+0011KHRL V0200501N004110117019N0160931N1+02901+02101101611ADDGD12991+0084099GD24991+0117099GF108991999999999999999999MA1101631999999MW1001REMMET077KHRL 211653Z 05008KT 10SM FEW028 OVC039 29/21 A3001 RMK AO2 SLP161 T02890211;EQDQ01+000000PRSWM2
0187722505999992000052208534+26230-097650FM-15+0011KHRL V0209999C000012200019N0160931N1+02201+02201101341ADDAA103000391GF100991999999999999999999MA1101351999999MD1510121+9999MW1001REMMET084KHRL 220853Z AUTO 00000KT 10SM CLR 22/22 A2993 RMK AO2 SLP134 60001 T02170217 55012;EQDQ01+000000PRSWM2
0183722505999992000060814534+26230-097650FM-15+0011KHRL V0200101N002612200019N0160931N1+02901+02301101411ADDGD12991+0036099GF102991999999999999999999MA1101421999999MD1010031+9999MW1001REMMET076KHRL 081453Z 01005KT 10SM FEW012 29/23 A2995 RMK AO2 SLP141 T02890233 50003;EQDQ01+000000PRSWM2
0216722505999992000060914204+26230-097650FM-15+0011KHRL V0201601N007210135019N0160931N1+02801+02401999999ADDAA101000021GD12991+0054099GD22991+0108099GD33991+0135099GF107991999999999999999999MA1101251999999MW1001REMMET082KHRL 091420Z 16014KT 10SM FEW018 SCT036 BKN045 28/24 A2990 RMK AO2 RAB08E20 P0000;EQDQ01+000000PRSWM2
0157722505999992000061514044+26230-097640FM-16+0011KHRL V0201801N006710066019N0160931N1+02901+02401999999ADDGD13991+0066099GF107991999999999999999999MA1101151999999MW1001OC101031REMMET056KHRL 151404Z 18013G20KT 10SM BKN022 29/24 A2987 RMK AO2;EQDQ01+000000PRSWM2
0150722505999992000061607534+26230-097640FM-15+0011KHRL V0201701N006212200019N0160931N1+02601+02401100691ADDGF100991999999999999999999MA1100711999999MW1001REMMET072KHRL 160753Z AUTO 17012KT 10SM CLR 26/24 A2974 RMK AO2 SLP069 T02560239;EQDQ01+000000PRSWM2
0203722505999992000062317534+26230-097640FM-15+0011KHRL V0202101N007712200019N0160931N1+03501+02001101551ADDGF100991999999999999999999KA1999M+03501KA2999N+02501MA1101561999999MD1610091+9999MW1001REMMET085KHRL 231753Z 21015KT 10SM CLR 35/20 A2999 RMK AO2 SLP155 T03500200 10350 20250 56009;EQDQ01+000000PRSWM2
0145722505999992000062815534+26230-097640FM-15+0011KHRL V0201901N005712200019N0160931N1+03101+02201101601ADDGF100991999999999999999999MA1101631999999MW1001REMMET067KHRL 281553Z 19011KT 10SM CLR 31/22 A3001 RMK AO2 SLP160 T03110217;EQDQ01+000000PRSWM2
0221722505999992000070223534+26230-097640FM-15+0011KHRL V0201501N010312200019N0160931N1+03201+02301101081ADDGF100991999999999999999999KA1999M+03611KA2999N+03171MA1101081999999MD1510091+9999MW1001REMMET103KHRL 022353Z 15020KT 10SM CLR 32/23 A2985 RMK AO2 PK WND 16028/2300 SLP108 T03170228 10361 20317 55009;EQDQ01+000000PRSWM2
0150722505999992000070704534+26230-097640FM-15+0011KHRL V0201601N004112200019N0160931N1+02701+02401101461ADDGF100991999999999999999999MA1101461999999MW1001REMMET072KHRL 070453Z AUTO 16008KT 10SM CLR 27/24 A2996 RMK AO2 SLP146 T02670239;EQDQ01+000000PRSWM2
0147722505999992000070713534+26230-097640FM-15+0011KHRL V0201601N006712200019N0160931N1+02901+02501101491ADDGF100991999999999999999999MA1101491999999MW1001REMMET069KHRL 071353Z 16013KT 10SM CLR 29/25 A2997 RMK AO2 SLP149 T02940250 $;EQDQ01+000000PRSWM2
0165722505999992000070716534+26230-097640FM-15+0011KHRL V0201601N006712200019N0160931N1+03401+02301101461ADDGD12991+0132099GF104991999999999999999999MA1101461999999MW1001REMMET072KHRL 071653Z 16013KT 10SM SCT044 34/23 A2996 RMK AO2 SLP146 T03440228 $;EQDQ01+000000PRSWM2
0204722505999992000070811534+26230-097640FM-15+0011KHRL V0209999C000012200019N0144841N1+02301+02201101561ADDGF100991999999999999999999KA1999M+02561KA2999N+02281MA1101561999999MD1310101+9999MW1001REMMET086KHRL 081153Z 00000KT 9SM CLR 23/22 A2999 RMK AO2 SLP156 T02280222 10256 20228 53010 $;EQDQ01+000000PRSWM2
0174722505999992000071218534+26230-097640FM-15+0011KHRL V0201801N006212200019N0160931N1+03701+02201101531ADDGD12991+0150099GF102991999999999999999999MA1101521999999MW1001OC101031REMMET073KHRL 121853Z 18012G20KT 10SM FEW050 37/22 A2998 RMK AO2 SLP153 T03670222;EQDQ01+000000PRSWM2
0203722505999992000071417534+26230-097640FM-15+0011KHRL V0202101N005712200019N0160931N1+03701+01901101581ADDGF100991999999999999999999KA1999M+03721KA2999N+02331MA1101591999999MD1810071+9999MW1001REMMET085KHRL 141753Z 21011KT 10SM CLR 37/19 A3000 RMK AO2 SLP158 T03670189 10372 20233 58007;EQDQ01+000000PRSWM2
0203722505999992000071623534+26230-097640FM-15+0011KHRL V0201501N007712200019N0160931N1+03301+02101101051ADDGF100991999999999999999999KA1999M+03831KA2999N+03281MA1101051999999MD1510001+9999MW1001REMMET085KHRL 162353Z 15015KT 10SM CLR 33/21 A2984 RMK AO2 SLP105 T03280211 10383 20328 55000;EQDQ01+000000PRSWM2
0144722505999992000072112534+26230-097640FM-15+0011KHRL V0201401N004012200019N0128741N1+02401+02301101371ADDGF100991999999999999999999MA1101391999999MW1001REMMET066KHRL 211253Z 14004KT 8SM CLR 24/23 A2994 RMK AO2 SLP137 T02440233;EQDQ01+000000PRSWM2
0145722505999992000072401534+26230-097640FM-15+0011KHRL V0201401N005712200019N0160931N1+03101+02201101491ADDGF100991999999999999999999MA1101491999999MW1001REMMET067KHRL 240153Z 14011KT 10SM CLR 31/22 A2997 RMK AO2 SLP149 T03060222;EQDQ01+000000PRSWM2
0150722505999992000072510534+26230-097640FM-15+0011KHRL V0201801N003612200019N0160931N1+02401+02401101281ADDGF100991999999999999999999MA1101291999999MW1001REMMET072KHRL 251053Z AUTO 18007KT 10SM CLR 24/24 A2991 RMK AO2 SLP128 T02440239;EQDQ01+000000PRSWM2
0174722505999992000072816534+26230-097640FM-15+0011KHRL V0201601N005712200019N0160931N1+03301+02201101511ADDGD12991+0144099GF102991999999999999999999MA1101521999999MW1001OC100931REMMET073KHRL 281653Z 16011G18KT 10SM FEW048 33/22 A2998 RMK AO2 SLP151 T03280217;EQDQ01+000000PRSWM2
0186722505999992000072820054+26230-097640FM-16+0011KHRL V0201701N008712200019N0160931N1+03601+02001999999ADDGD12991+0180099GF102991999999999999999999MA1101391999999MW1171OC101291REMMET069KHRL 282005Z 17017G25KT 10SM VCTS FEW060 36/20 A2994 RMK AO2 TSB1959;EQDQ01+000003PRSWM1Q02    003PRSWM1
0147722505999992000080212534+26230-097640FM-15+0011KHRL V0200901N002112200019N0160931N1+02901+02201101471ADDGF100991999999999999999999MA1101491999999MW1001REMMET069KHRL 021253Z 09004KT 10SM CLR 29/22 A2997 RMK AO2 SLP147 T02900220 $;EQDQ01+000000PRSWM2
0116722505999992000080219534+26230-097640FM-16+0011KHRL V02099999999992200019N9999999N1+99999+99999999999ADDMW1171MW2311MW3671REMMET067KHRL 021953Z AUTO RMK AO2 LTG DSNT N TSB05E37 SLPNO PWINO FZRANO $;EQDQ01+000003PRSWM1
0077722505999992000080408534+26230-097640FM-16+0011KHRL V02099999999992200019N9999999N1+00601+99999999999ADDMW1001REMMET040KHRL 040853Z AUTO RMK AO2 SLPNO 6//// $;EQDQ01+000000PRSWM2
0172722505999992000080421534+26230-097640FM-15+0011KHRL V0201201N005110300019N0160931N1+03101+02201101621ADDGD14991+0300099GF108991999999999999999999MA1101631999999MW1001REMMET079KHRL 042153Z 12010KT 10SM OVC100 31/22 A3001 RMK AO2 PRESFR SLP162 T03060220 $;EQDQ01+000000PRSWM2
0161722505999992000080610534+26230-097640FM-15+0011KHRL V0201601N003112200019N0160931N1+02501+02401101421ADDGF100991999999999999999999MA1101421999999MW1001REMMET083KHRL 061053Z AUTO 16006KT 10SM CLR 25/24 A2995 RMK AO2 TSB48E49 SLP142 T02500244 $;EQDQ01+000000PRSWM2
0147722505999992000080710534+26230-097640FM-15+0011KHRL V0201101N003112200019N0160931N1+02401+02401101421ADDGF100991999999999999999999MA1101421999999MW1001REMMET069KHRL 071053Z 11006KT 10SM CLR 24/24 A2995 RMK AO2 SLP142 T02440239 $;EQDQ01+000000PRSWM2
0144722505999992000081312534+26230-097640FM-15+0011KHRL V0200501N001512200019N0112651N1+02301+02201101271ADDGF100991999999999999999999MA1101291999999MW1001REMMET066KHRL 131253Z 05003KT 7SM CLR 23/22 A2991 RMK AO2 SLP127 T02330222;EQDQ01+000000PRSWM2
0185722505999992000081320534+26230-097640FM-15+0011KHRL V0200301N007712200019N0160931N1+03401+02201101091ADDGF100991999999999999999999MA1101081999999MD1610151+9999MW1001REMMET093KHRL 132053Z 03015KT 10SM CLR 34/22 A2985 RMK AO2 WSHFT 2035 TSB49E50 SLP109 T03440217 56015;EQDQ01+000000PRSWM2
0199722505999992000081521004+26230-097640FM-15+0011KHRL V0200801N008210075019N0160931N1+02701+02501999999ADDAA101000021GD13991+0075099GF107991999999999999999999MA1101861999999MW1801MW2951REMMET073KHRL 152056Z 08016KT 10SM -TSRA BKN025 27/25 A3008 RMK AO2 TSB56 P0000 $;EQDQ01+000003PRSWM1Q02    003PRSWM1
0147722505999992000081801534+26230-097640FM-15+0011KHRL V0201501N005112200019N0160931N1+02801+02401101561ADDGF100991999999999999999999MA1101561999999MW1001REMMET069KHRL 180153Z 15010KT 10SM CLR 28/24 A2999 RMK AO2 SLP156 T02830239 $;EQDQ01+000000PRSWM2
0165722505999992000082415534+26230-097640FM-15+0011KHRL V02099999999992200019N0160931N1+03101+02401101981ADDGD12991+0120099GF104991999999999999999999MA1102001999999MW1001REMMET072KHRL 241553Z VRB04KT 10SM SCT040 31/24 A3012 RMK AO2 SLP198 T03060239 $;EQDQ01+000000PRSWM2
0194722505999992000082421534+26230-097640FM-15+0011KHRL V0209999V002612200019N0160931N1+03401+02301101631ADDGD12991+0120099GF104991999999999999999999MA1101631999999MW1001REMMET101KHRL 242153Z AUTO VRB05KT 10SM SCT040 34/23 A3001 RMK AO2 LTG DSNT N AND S AND NW SLP163 T03390228 $;EQDQ01+000000PRSWM2
0147722505999992000083004534+26230-097640FM-15+0011KHRL V0201501N002112200019N0160931N1+02601+02401101461ADDGF100991999999999999999999MA1101461999999MW1001REMMET069KHRL 300453Z 15004KT 10SM CLR 26/24 A2996 RMK AO2 SLP146 T02560239 $;EQDQ01+000000PRSWM2
0159722505999992000092102534+26230-097640FM-16+0011KHRL V0201401N003612200019N0160931N1+02901+99999100741ADDGF100991999999999999999999MA1100751999999MD1310191+9999MW1001REMMET067KHRL 210253Z 14007KT 10SM CLR 29/ A2975 RMK AO2 SLP074 T0287 53019;EQDQ01+000000PRSWM2
0150722505999992000092109534+26230-097640FM-15+0011KHRL V0202101N001512200019N0160931N1+02601+02201100711ADDGF100991999999999999999999MA1100711999999MW1001REMMET072KHRL 210953Z AUTO 21003KT 10SM CLR 26/22 A2974 RMK AO2 SLP071 T02610222;EQDQ01+000000PRSWM2
0150722505999992000092600534+26230-097640FM-15+0011KHRL V0203401N004112200019N0160931N1+02201+00901101911ADDGF100991999999999999999999MA1101931999999MW1001REMMET072KHRL 260053Z AUTO 34008KT 10SM CLR 22/09 A3010 RMK AO2 SLP191 T02220089;EQDQ01+000000PRSWM2
0165722505999992000093014534+26230-097640FM-15+0011KHRL V0203601N003112200019N0160931N1+02501+01701101641ADDGF100991999999999999999999MA1101661999999MD1110141+9999MW1001REMMET073KHRL 301453Z 36006KT 10SM CLR 25/17 A3002 RMK AO2 SLP164 T02500167 51014;EQDQ01+000000PRSWM2
0149722505999992000100209534+26230-097640FM-15+0011KHRL V0201701N002112200019N0112651N1+01901+01801101131ADDGF100991999999999999999999MA1101151999999MW1001REMMET071KHRL 020953Z AUTO 17004KT 7SM CLR 19/18 A2987 RMK AO2 SLP113 T01890183;EQDQ01+000000PRSWM2
0170722505999992000100308534+26230-097640FM-15+0011KHRL V0201601N003112200019N0160931N1+02201+02201101171ADDGF100991999999999999999999MA1101191999999MD1810071+9999MW1001REMMET078KHRL 030853Z AUTO 16006KT 10SM CLR 22/22 A2988 RMK AO2 SLP117 T02220217 58007;EQDQ01+000000PRSWM2
0163722505999992000100522534+26230-097640FM-15+0011KHRL V0201501N007712200019N0160931N1+03201+02201100961ADDGD12991+0129099GF104991999999999999999999MA1100981999999MW1001REMMET070KHRL 052253Z 15015KT 10SM SCT043 32/22 A2982 RMK AO2 SLP096 T03220217;EQDQ01+000000PRSWM2
0168722505999992000101119084+26230-097640FM-16+0011KHRL V0203301N004610240019N0160931N1+02001+01601999999ADDGD12991+0036099GD23991+0240099GF107991999999999999999999MA1102201999999MW1001REMMET060KHRL 111908Z 33009KT 10SM SCT012 BKN080 20/16 A3018 RMK AO2;EQDQ01+000000PRSWM2
0147722505999992000101703534+26230-097640FM-15+0011KHRL V0201601N003612200019N0160931N1+02301+02201101701ADDGF100991999999999999999999MA1101731999999MW1001REMMET069KHRL 170353Z 16007KT 10SM CLR 23/22 A3004 RMK AO2 SLP170 T02280222 $;EQDQ01+000000PRSWM2
0218722505999992000102005534+26230-097640FM-15+0011KHRL V0202001N002112200019N0160931N1+02101+02001101821ADDGF100991999999999999999999KA1999M+02561KA2999N+02061MA1101831999999MD1110051+9999MW1001REMMET100KHRL 200553Z AUTO 20004KT 10SM CLR 21/20 A3007 RMK AO2 SLP182 T02060200 10256 20206 403060178 51005;EQDQ01+000000PRSWM2
0163722505999992000102212534+26230-097640FM-15+0011KHRL V0201501N004112200019N0080461N1+02301+02301101371ADDGF100991999999999999999999MA1101391999999MW1101REMMET069KHRL 221253Z 15008KT 5SM BR CLR 23/23 A2994 RMK AO2 SLP137 T02280228;EQDQ01+000003PRSWM1Q02    003PRSWM1
0168722505999992000102407534+26230-097640FM-15+0011KHRL V0201001N002112200019N0080461N1+02101+02101102141ADDGF100991999999999999999999MA1102131999999MW1101REMMET074KHRL 240753Z AUTO 10004KT 5SM BR CLR 21/21 A3016 RMK AO2 SLP214 T02110211;EQDQ01+000003PRSWM1Q02    003PRSWM1
0145722505999992000103101534+26230-097640FM-15+0011KHRL V0201401N003612200019N0160931N1+02401+02101101681ADDGF100991999999999999999999MA1101691999999MW1001REMMET067KHRL 310153Z 14007KT 10SM CLR 24/21 A3003 RMK AO2 SLP168 T02390206;EQDQ01+000000PRSWM2
0168722505999992000111504534+26230-097640FM-15+0011KHRL V0200101N003110150019N0160931N1+01301+00601102231ADDGD14991+0150099GF108991999999999999999999MA1102241999999MW1001REMMET075KHRL 150453Z AUTO 01006KT 10SM OVC050 13/06 A3019 RMK AO2 SLP223 T01330056;EQDQ01+000000PRSWM2
0162722505999992000111704534+26230-097640FM-15+0011KHRL V0203201N002610150019N0144841N1+02201+02101101231ADDGD14991+0150099GF108991999999999999999999MA1101251999999MW1001REMMET069KHRL 170453Z 32005KT 9SM OVC055 22/21 A2990 RMK AO2 SLP123 T02220206;EQDQ01+000000PRSWM2
0208722505999992000112406534+26230-097640FM-15+0011KHRL V0201801N009810069019N0160931N1+02301+02001100691ADDGD13991+0069099GD24991+0096099GF108991999999999999999999MA1100711999999MW1001REMMET100KHRL 240653Z AUTO 18019KT 10SM BKN023 OVC032 23/20 A2974 RMK AO2 PK WND 18027/0603 SLP069 T02280200;EQDQ01+000000PRSWM2
0163722505999992000112416534+26230-097640FM-15+0011KHRL V0203301N009812200019N0160931N1+01901+00501101551ADDGF100991999999999999999999MA1101561999999MW1001REMMET085KHRL 241653Z 33019KT 10SM CLR 19/05 A2999 RMK AO2 PK WND 34033/1621 SLP155 T01940050;EQDQ01+000000PRSWM2
0227722505999992000112920534+26230-097640FM-15+0011KHRL V0200901N005110135019N0160931N1+02701+01901102001ADDAA103000021GD12991+0096099GD23991+0135099GF107991999999999999999999MA1102001999999MD1610141+9999MW1001REMMET094KHRL 292053Z AUTO 09010KT 10SM FEW032 BKN045 27/19 A3012 RMK AO2 SLP200 60000 T02720194 56014;EQDQ01+000000PRSWM2
0162722505999992000120318534+26230-097640FM-15+0011KHRL V0203401N006710051019N0128741N1+00901+00501102871ADDGD14991+0051099GF108991999999999999999999MA1102881999999MW1001REMMET069KHRL 031853Z 34013KT 8SM OVC017 09/05 A3038 RMK AO2 SLP287 T00890050;EQDQ01+000000PRSWM2
0168722505999992000120620144+26230-097640FM-16+0011KHRL V0203201N009310072019N0160931N1+01601+01201999999ADDGD13991+0072099GD24991+0090099GF108991999999999999999999MA1102101999999MW1001REMMET060KHRL 062014Z 32018KT 10SM BKN024 OVC030 16/12 A3015 RMK AO2;EQDQ01+000000PRSWM2
0163722505999992000120621534+26230-097640FM-15+0011KHRL V0203401N009810090019N0160931N1+01601+00901102191ADDGD14991+0090099GF108991999999999999999999MA1102201999999MW1001REMMET070KHRL 062153Z 34019KT 10SM OVC030 16/09 A3018 RMK AO2 SLP219 T01560094;EQDQ01+000000PRSWM2
0146722505999992000121919534+26230-097640FM-15+0011KHRL V02099999999992200019N0160931N1+01801-00601102981ADDGF100991999999999999999999MA1102981999999MW1001REMMET068KHRL 191953Z VRB05KT 10SM CLR 18/M06 A3041 RMK AO2 SLP298 T01831056;EQDQ01+000000PRSWM2
0211722505999992000122208534+26230-097640FM-15+0011KHRL V0203601N007210126019N0160931N1+01001-00101102631ADDGD13991+0126099GD24991+0150099GF108991999999999999999999MA1102641999999MD1810031+9999MW1001REMMET089KHRL 220853Z AUTO 36014KT 10SM BKN042 OVC050 10/M01 A3031 RMK AO2 SLP263 T01001011 58003;EQDQ01+000000PRSWM2
0205722505999992000122617284+26230-097640FM-16+0011KHRL V0201701N008210180019N0160931N1+02401+02001999999ADDGD12991+0060099GD22991+0150099GD33991+0180099GF107991999999999999999999MA1101631999999MW1001REMMET082KHRL 261728Z 17016KT 10SM SCT020 SCT050 BKN060 24/20 A3001 RMK AO2 RAB00E04 P0000;EQDQ01+000000PRSWM2
0271722506129592000010406003+26183-098233FM-15+0030MFE  V0203605N00825220005MN016000599+01785-00505102315ADDGD10995+9999999GM1006000000190000019000001999999GP10060000002000000002000000002000GR100600000900009MA1102345999999EQDN01 00000JPWTH 0QNNAA1D0 00000BA1 0 00000GA1U0 99999KA1D0 00023JA1 0-00050LA1 0 01000CA1 0 03022NA1 0 00000QA1 0 10231SA1D0 00064RA1 0 00178YA1 0 36016
0087722506129592000010408009+26183-098233NSRDB+003099999V020999999999999999999999999999+99999+99999999999ADDGM1006000000190000019000001999999GP10060000002000000002000000002000GR100600000900009
0338722506129592000010408533+26183-098233FM-15+0030MFE  V0203605N00725220005MN0160005N1+01445-00945102635ADDGF100991999999999999999999MA1102645999999MD1210331+9999MW1001OC101081REMMET087KMFE 040853Z AUTO 36014G21KT 10SM CLR 14/M09 A3031 RMK AO2 SLP263 T01441094 52033 TSNO;EQDQ01+000000PRSWM2N01 00000JPWTH 0QNNAA1D0 00000BA1 0 00000GA1U0 99999KA1D0 00015JA1 0-00094LA1 0 01000CA1 0 03031NA1 0 00000QA1 0 10263SA1D0 00058RA1 0 00144YA1 0 36014
0087722506129592000010412009+26183-098233NSRDB+003099999V020999999999999999999999999999+99999+99999999999ADDGM1006000000190000019000001999999GP10060000002000000002000000002000GR100600000900009
0297722506129592000010416533+26183-098233FM-15+0030MFE  V0203505N00985220005MN0160005N1+01505-00785103391ADDGF100991999999999999999999MA1103425999999MW1001OC101181REMMET071KMFE 041653Z 35019G23KT 10SM CLR 15/M08 A3054 RMK AO2 SLP339 T01501078;EQDQ01+000000PRSWM2N01 00000JPWTH 0QNNAA1D0 00000BA1 0 00000GA1U0 99999KA1D0 00018JA1 0-00078LA1 0 01000CA1 0 03054NA1 0 00000SA1D0 00059RA1 0 00150YA1 0 35019
0408722506129592000010811533+26183-098233FM-15+0030MFE  V0203205N00465007015MN0160005N1+01335+01065102015ADDAA106000021AA224003091GD14995+0070159GF108991999999999999999999KA1999M+01831KA2999N+01331MA1102035999999MD1610011+9999MW1001REMMET102KMFE 081153Z 32009KT 10SM OVC023 13/11 A3013 RMK AO2 SLP201 60000 70012 T01330106 10183 20133 56001 $;EQDQ01+000000PRSWM2N01 00000JPWTH 0QNNAA1D0 06023BA1 0 06023GA1 0 00023KA1D0 00051JA1 0 00106LA1 0 01000CA1 0 03013NA1 0 00000QA1 0 10201SA1D0 00056RA1 0 00133YA1 0 32009
0286722506129592000010819533+26183-098233FM-15+0030MFE  V0209999V00315220005MN0160005N1+02205+01205999999ADDGF100991999999999999999999MA1101765999999MW1001REMMET068KMFE 081953Z VRB06KT 10SM CLR 22/12 A3005 RMK AO2 SLP12 T02220117 $;EQDQ01+000000PRSWM2N01 00000JPWTH 0QNNAA1D0 00000BA1 0 00000GA1U0 99999KA1D0 00054JA1 0 00120LA1 0 01000CA1 0 03005NA1 0 00000SA1D0 00072RA1 0 00220YA1 0 00006
0087722506129592000010903009+26183-098233NSRDB+003099999V020999999999999999999999999999+99999+99999999999ADDGM1006000000190000019000001999999GP10060000002000000002000000002000GR100600000900009
0369722506129592000010910533+26183-098233FM-15+0030MFE  V0201305N00215220005MN0112005N1+01615+01505101405ADDGD11995+0012259GD22995+0103659GF104991999999999999999999MA1101425999999MW1001REMMET088KMFE 091053Z AUTO 13004KT 7SM FEW004 SCT034 16/15 A2995 RMK AO2 SLP140 T01610150 TSNO $;EQDQ01+000000PRSWM2N01 00000JPWTH 0QNNAA1D0 02004BA1 0 01004AA1D0 02034BA1 0 02034GA1U0 99999KA1D0 00059JA1 0 00150LA1 0 00700CA1 0 02995NA1 0 00000QA1 0 10140SA1D0 00061RA1 0 00161YA1 0 13004
0087722506129592000010911009+26183-098233NSRDB+003099999V020999999999999999999999999999+99999+99999999999ADDGM1006000000190000019000001999999GP10060000002000000002000000002000GR100600000900009
0115722506129592000011117534+26180-098230FM-16+0033KMFE V02099999999992200019N9999999N1+99999+99999999999ADDMW1001REMMET062KMFE 111753Z AUTO RMK AO2 SLPNO 6//// PWINO FZRANO TSNO PNO $;EQDQ01+000603ATOT  Q02+000000PRSWM2
0165722506129592000011314174+26180-098230FM-16+0033KMFE V0209999C00001000151CN0004021N1+01801+01801999999ADDGD15991+0001519GF109991999999000251999999MA1102241999999MW1451REMMET056KMFE 131417Z 00000KT 1/4SM FG VV001 18/18 A3019 RMK AO2;EQDQ01+000003PRSWM1Q02    003PRSWM1
0165722506129592000011315154+26180-098230FM-16+0033KMFE V0209999C00001000151CN0008051N1+01901+01901999999ADDGD15991+0001519GF109991999999000251999999MA1102341999999MW1451REMMET056KMFE 131515Z 00000KT 1/2SM FG VV001 19/19 A3022 RMK AO2;EQDQ01+000003PRSWM1Q02    003PRSWM1
0354722506129592000011323533+26183-098233FM-15+0030MFE  V0200205N00625220005MN0160005N1+02445+01895102415ADDGF100991999999999999999999KA1999M+02891KA2999N+02441MA1102445999999MD1310181+9999MW1001REMMET085KMFE 132353Z 02012KT 10SM CLR 24/19 A3025 RMK AO2 SLP241 T02440189 10289 20244 53018;EQDQ01+000000PRSWM2N01 00000JPWTH 0QNNAA1D0 00000BA1 0 00000GA1U0 99999KA1D0 00066JA1 0 00189LA1 0 01000CA1 0 03025NA1 0 00000QA1 0 10241SA1D0 00076RA1 0 00244YA1 0 02012
0478722506129592000011423533+26183-098233FM-15+0030MFE  V0202705N00415005795MN0144005N1+01615+01565103085ADDAA101000391AA206004691GD11995+0027459GD24995+0057959GF108991999999999999999999KA1999M+02001KA2999N+01611MA1103085999999MD1310051+9999MW1615REMMET119KMFE 142353Z 27008KT 9SM -RA FEW009 OVC019 16/16 A3044 RMK AO2 RAE15B35 SLP308 P0001 60018 T01610156 10200 20161 53005;EQDQ01+000003PRSWM1Q02    003PRSWM1N01 00020JPWTH 0QNNAA1D0 02009BA1 0 01009AA1D0 06019BA1 0 06019GA1 0 00019KA1D0 00060JA1 0 00156LA1 0 00900CA1 0 03044NA1 0 00020QA1 0 10308SA1D0 00061RA1 0 00161YA1 0 27008
0296722506129592000011803533+26183-098233FM-15+0030MFE  V0201505N00365220005MN0160005N1+01895+01725102365ADDGF100991999999999999999999MA1102375999999MW1001REMMET067KMFE 180353Z 15007KT 10SM CLR 19/17 A3023 RMK AO2 SLP236 T01890172;EQDQ01+000000PRSWM2N01 00000JPWTH 0QNNAA1D0 00000BA1 0 00000GA1U0 99999KA1D0 00063JA1 0 00172LA1 0 01000CA1 0 03023NA1 0 00000QA1 0 10236SA1D0 00066RA1 0 00189YA1 0 15007
0414722506129592000012020003+26183-098233FM-15+0030MFE  V0200705N00365220005MN0160005N1+02615+01565101755ADDGD19999+0090019GF104991999999999999999999GM1006006270390826039009203999999GP10060064902008071202015017102008GQ100600479919479GR100600946914139MA1101765999999MW1001REMMET053KMFE 201955Z 04007KT 10SM SCT030 26/16 A3005 RMK AO2;EQDQ01+000000PRSWM2N01 00000JPWTH 0P01     03SCCGD1QNNAA1D0 00000BA1 0 00000GA1U0 99999KA1D0 00060JA1 0 00156LA1 0 01000CA1 0 03005NA1 0 00000QA1 0 10175SA1D0 00079RA1 0 00261YA1 0 07007
0296722506129592000012303533+26183-098233FM-15+0030MFE  V0201605N00365220005MN0160005N1+02005+01785101125ADDGF100991999999999999999999MA1101155999999MW1001REMMET067KMFE 230353Z 16007KT 10SM CLR 20/18 A2987 RMK AO2 SLP112 T02000178;EQDQ01+000000PRSWM2N01 00000JPWTH 0QNNAA1D0 00000BA1 0 00000GA1U0 99999KA1D0 00064JA1 0 00178LA1 0 01000CA1 0 02987NA1 0 00000QA1 0 10112SA1D0 00068RA1 0 00200YA1 0 16007
0165722506129592000012312424+26180-098230FM-16+0033KMFE V0201801N00211000151CN0004021N1+01701+01701999999ADDGD15991+0001519GF109991999999000251999999MA1101191999999MW1451REMMET056KMFE 231242Z 18004KT 1/4SM FG VV001 17/17 A2988 RMK AO2;EQDQ01+000003PRSWM1Q02    003PRSWM1
0104722506129592000012919009+26183-098233NSRDB+003099999V020999999999999999999999999999+99999+99999999999ADDGM1006001120390001039012103999999GP10060012102008000002015012102008GQ100600446917479GR100601004914109
0087722506129592000013002009+26183-098233NSRDB+003099999V020999999999999999999999999999+99999+99999999999ADDGM1006000000190000019000001999999GP10060000002000000002000000002000GR100600000900009
0324722506129592000013109533+26183-098233FM-15+0030MFE  V0203405N00365004885MN0160005N1+00895+00225102325ADDGD14995+0048859GF108991999999999999999999MA1102345999999MW1001REMMET080KMFE 310953Z AUTO 34007KT 10SM OVC016 09/02 A3022 RMK AO2 SLP232 T00890022 TSNO;EQDQ01+000000PRSWM2N01 00000JPWTH 0QNNAA1D0 06016BA1 0 06016GA1 0 00016KA1D0 00036JA1 0 00022LA1 0 01000CA1 0 03022NA1 0 00000QA1 0 10232SA1D0 00048RA1 0 00089YA1 0 34007
0402722506129592000013114533+26183-098233FM-15+0030MFE  V0203005N00415004885MN0048005N1+00835+00675102365ADDGD11995+0015259GD24995+0048859GF108991999999999999999999MA1102375999999MD1310061+9999MW1101MW2455REMMET085KMFE 311453Z 30008KT 3SM BR FEW005 OVC016 08/07 A3023 RMK AO2 SLP236 T00830067 53006;EQDQ01+000003PRSWM1Q02    003PRSWM1N01 00070JPWTH 0QNNAA1D0 02005BA1 0 01005AA1D0 06016BA1 0 06016GA1 0 00016KA1D0 00044JA1 0 00067LA1 0 00300CA1 0 03023NA1 0 00070QA1 0 10236SA1D0 00047RA1 0 00083YA1 0 30008
0157722506129592000020202184+26180-098230FM-16+0033KMFE V0200601N007710045019N0160931N1+01801+01601999999ADDGD14991+0045019GF108991999999999999999999MA1101901999999MW1001OC101081REMMET056KMFE 020218Z 06015G21KT 10SM OVC015 18/16 A3009 RMK AO2;EQDQ01+000000PRSWM2
0104722506129592000020219009+26183-098233NSRDB+003099999V020999999999999999999999999999+99999+99999999999ADDGM1006000480790000459005145999999GP10060012102008000002015012102008GQ100600435917439GR100601021914089
0087722506129592000020413009+26183-098233NSRDB+003099999V020999999999999999999999999999+99999+99999999999ADDGM1006000000190000019000001999999GP10060000002000000002000000002000GR100600000900009
0087722506129592000020513009+26183-098233NSRDB+003099999V020999999999999999999999999999+99999+99999999999ADDGM1006000000190000019000001999999GP10060000002000000002000000002000GR100600000900009
0087722506129592000020703009+26183-098233NSRDB+003099999V020999999999999999999999999999+99999+99999999999ADDGM1006000000190000019000001999999GP10060000002000000002000000002000GR100600000900009
0326722506129592000020902533+26183-098233FM-15+0030MFE  V0201305N00465220005MN0160005N1+01895+01335102605ADDGF100991999999999999999999MA1102615999999MD1210111+9999MW1001REMMET083KMFE 090253Z AUTO 13009KT 10SM CLR 19/13 A3030 RMK AO2 SLP260 T01890133 52011 TSNO;EQDQ01+000000PRSWM2N01 00000JPWTH 0QNNAA1D0 00000BA1 0 00000GA1U0 99999KA1D0 00056JA1 0 00133LA1 0 01000CA1 0 03030NA1 0 00000QA1 0 10260SA1D0 00066RA1 0 00189YA1 0 13009
0104722506129592000021114009+26183-098233NSRDB+003099999V020999999999999999999999999999+99999+99999999999ADDGM1006000110190002019001101999999GP10060000002008000002015000002008GQ100600854910829GR100600090911129
0104722506129592000021120009+26183-098233NSRDB+003099999V020999999999999999999999999999+99999+99999999999ADDGM1006006561090579119025811999999GP10060072202008065802015023002008GQ100600419919579GR100601045914049
0314722506129592000021504533+26183-098233FM-15+0030MFE  V0201405N00625003965MN0160005N1+02175+01895101615ADDGD14995+0039659GF108991999999999999999999MA1101635999999MW1001REMMET070KMFE 150453Z 14012KT 10SM OVC013 22/19 A3001 RMK AO2 SLP161 T02170189;EQDQ01+000000PRSWM2N01 00000JPWTH 0QNNAA1D0 06013BA1 0 06013GA1 0 00013KA1D0 00066JA1 0 00189LA1 0 01000CA1 0 03001NA1 0 00000QA1 0 10161SA1D0 00071RA1 0 00217YA1 0 14012
0104722506129592000021822009+26183-098233NSRDB+003099999V020999999999999999999999999999+99999+99999999999ADDGM1006003971490363159021715999999GP10060040602008025402015026002008GQ100600550923149GR100600803914009
0087722506129592000021902009+26183-098233NSRDB+003099999V020999999999999999999999999999+99999+99999999999ADDGM1006000000190000019000001999999GP10060000002000000002000000002000GR100600000900009
0358722506129592000022019533+26183-098233FM-15+0030MFE  V0200805N00625009455MN0160005N1+02335+01615102575ADDGD13995+0094559GD24995+0143359GF108991999999999999999999MA1102615999999MW1001REMMET077KMFE 201953Z 08012KT 10SM BKN031 OVC047 23/16 A3030 RMK AO2 SLP257 T02330161;EQDQ01+000000PRSWM2N01 00000JPWTH 0QNNAA1D0 04031BA1 0 04031AA1D0 06047BA1 0 06047GA1 0 00031KA1D0 00061JA1 0 00161LA1 0 01000CA1 0 03030NA1 0 00000QA1 0 10257SA1D0 00074RA1 0 00233YA1 0 08012
0104722506129592000022200009+26183-098233NSRDB+003099999V020999999999999999999999999999+99999+99999999999ADDGM1006001421890343199008319999999GP10060010202008012302015007702008GQ100600780925179GR100600290913989
0365722506129592000022823533+26183-098233FM-15+0030MFE  V0201405N00885220005MN0160005N1+02565+01725101455ADDGF100991999999999999999999KA1999M+03001KA2999N+02561MA1101465999999MD1610101+9999MW1001OC101291REMMET088KMFE 282353Z 14017G25KT 10SM CLR 26/17 A2996 RMK AO2 SLP145 T02560172 10300 20256 56010;EQDQ01+000000PRSWM2N01 00000JPWTH 0QNNAA1D0 00000BA1 0 00000GA1U0 99999KA1D0 00063JA1 0 00172LA1 0 01000CA1 0 02996NA1 0 00000QA1 0 10145SA1D0 00078RA1 0 00256YA1 0 14017
0372722506129592000022911533+26183-098233FM-15+0030MFE  V0201605N00725004885MN0160005N1+02065+01835101315ADDGD13995+0048859GF107991999999999999999999KA1999M+02221KA2999N+02061MA1101325999999MD1810111+9999MW1001REMMET088KMFE 291153Z 16014KT 10SM BKN016 21/18 A2992 RMK AO2 SLP131 T02060183 10222 20206 58011;EQDQ01+000000PRSWM2N01 00000JPWTH 0QNNAA1D0 04016BA1 0 04016GA1 0 00016KA1D0 00065JA1 0 00183LA1 0 01000CA1 0 02992NA1 0 00000QA1 0 10131SA1D0 00069RA1 0 00206YA1 0 16014
0104722506129592000022916009+26183-098233NSRDB+003099999V020999999999999999999999999999+99999+99999999999ADDGM1006003851490429159018715999999GP10060047202008056702015017302008GQ100600583911899GR100600731913939
0307722506129592000030122533+26183-098233FM-15+0030MFE  V0201505N00885220005MN0160005N1+02835+01615101465ADDGF100991999999999999999999MA1101495999999MW1001OC101291REMMET070KMFE 012253Z 15017G25KT 10SM CLR 28/16 A2997 RMK AO2 SLP146 T02830161;EQDQ01+000000PRSWM2N01 00000JPWTH 0QNNAA1D0 00000BA1 0 00000GA1U0 99999KA1D0 00061JA1 0 00161LA1 0 01000CA1 0 02997NA1 0 00000QA1 0 10146SA1D0 00083RA1 0 00283YA1 0 15017
0325722506129592000030215533+26183-098233FM-15+0030MFE  V0201705N01085220005MN0160005N1+02615+01895101405ADDGF100991999999999999999999MA1101425999999MW1001OC101341REMMET088KMFE 021553Z 17021G26KT 10SM CLR 26/19 A2995 RMK AO2 PK WND 18029/1531 SLP140 T02610189;EQDQ01+000000PRSWM2N01 00000JPWTH 0QNNAA1D0 00000BA1 0 00000GA1U0 99999KA1D0 00066JA1 0 00189LA1 0 01000CA1 0 02995NA1 0 00000QA1 0 10140SA1D0 00079RA1 0 00261YA1 0 17021
0314722506129592000030301533+26183-098233FM-15+0030MFE  V0201505N00885220005MN0160005N1+02335+01835101005ADDGF100991999999999999999999MA1101025999999MW1001REMMET085KMFE 030153Z 15017KT 10SM CLR 23/18 A2983 RMK AO2 PK WND 15028/0054 SLP100 T02330183;EQDQ01+000000PRSWM2N01 00000JPWTH 0QNNAA1D0 00000BA1 0 00000GA1U0 99999KA1D0 00065JA1 0 00183LA1 0 01000CA1 0 02983NA1 0 00000QA1 0 10100SA1D0 00074RA1 0 00233YA1 0 15017
0087722506129592000030308009+26183-098233NSRDB+003099999V020999999999999999999999999999+99999+99999999999ADDGM1006000000190000019000001999999GP10060000002000000002000000002000GR100600000900009
0378722506129592000030420533+26183-098233FM-15+0030MFE  V0200505N00365014635MN0160005N1+02175+00615101695ADDGD12995+0121959GD24995+0146359GF108991999999999999999999MA1101735999999MD1610331+9999MW1001REMMET083KMFE 042053Z 05007KT 10SM SCT040 OVC048 22/06 A3004 RMK AO2 SLP169 T02170061 56033;EQDQ01+000000PRSWM2N01 00000JPWTH 0QNNAA1D0 02040BA1 0 02040AA1D0 06048BA1 0 06048GA1 0 00048KA1D0 00043JA1 0 00061LA1 0 01000CA1 0 03004NA1 0 00000QA1 0 10169SA1D0 00071RA1 0 00217YA1 0 05007
0104722506129592000030817009+26183-098233NSRDB+003099999V020999999999999999999999999999+99999+99999999999ADDGM1006004341090165119034311999999GP10060052202008027302015032802008GQ100600448912919GR100600984913879
0252722506129592000031003073+26180-098230FM-16+0033KMFE V0201501N006210090019N0160931N1+02401+01901999999ADDGD12991+0063019GD24991+0090019GF108991999999999999999999GM1006000000190000019000001999999GP10060000002000000002000000002000GR100600000900009MA1101461999999MW1001REMMET060KMFE 100307Z 15012KT 10SM FEW021 OVC030 24/19 A2996 RMK AO2;EQDQ01+000000PRSWM2
0314722506129592000031300533+26183-098233FM-15+0030MFE  V0201205N00575018295MN0160005N1+02175+01065101905ADDGD14995+0182959GF108991999999999999999999MA1101905999999MW1001REMMET070KMFE 130053Z 12011KT 10SM OVC060 22/11 A3009 RMK AO2 SLP190 T02170106;EQDQ01+000000PRSWM2N01 00000JPWTH 0QNNAA1D0 06060BA1 0 06060GA1 0 00060KA1D0 00051JA1 0 00106LA1 0 01000CA1 0 03009NA1 0 00000QA1 0 10190SA1D0 00071RA1 0 00217YA1 0 12011
0104722506129592000031416009+26183-098233NSRDB+003099999V020999999999999999999999999999+99999+99999999999ADDGM1006002340390014039024403999999GP10060035202008012302015028102008GQ100600544911429GR100600804913839
0087722506129592000031612009+26183-098233NSRDB+003099999V020999999999999999999999999999+99999+99999999999ADDGM1006000000190000019000001999999GP10060000002000000002000000002000GR100600000900009
0314722506129592000031721533+26183-098233FM-15+0030MFE  V0203405N00525006405MN0160005N1+01615+01005101735ADDGD14995+0064059GF108991999999999999999999MA1101765999999MW1001REMMET070KMFE 172153Z 34010KT 10SM OVC021 16/10 A3005 RMK AO2 SLP173 T01610100;EQDQ01+000000PRSWM2N01 00000JPWTH 0QNNAA1D0 06021BA1 0 06021GA1 0 00021KA1D0 00050JA1 0 00100LA1 0 01000CA1 0 03005NA1 0 00000QA1 0 10173SA1D0 00061RA1 0 00161YA1 0 34010
0104722506129592000032020009+26183-098233NSRDB+003099999V020999999999999999999999999999+99999+99999999999ADDGM1006007520390535039030603999999GP10060069202008031702015041402008GQ100600290920639GR100601205913789
0104722506129592000032123009+26183-098233NSRDB+003099999V020999999999999999999999999999+99999+99999999999ADDGM1006003881490565159013715999999GP10060045102008074702015008802008GQ100600610925489GR100600667913779
0087722506129592000032309009+26183-098233NSRDB+003099999V020999999999999999999999999999+99999+99999999999ADDGM1006000000190000019000001999999GP10060000002000000002000000002000GR100600000900009
0296722506129592000032501533+26183-098233FM-15+0030MFE  V0201405N00465220005MN0160005N1+02395+01835101465ADDGF100991999999999999999999MA1101495999999MW1001REMMET067KMFE 250153Z 14009KT 10SM CLR 24/18 A2997 RMK AO2 SLP146 T02390183;EQDQ01+000000PRSWM2N01 00000JPWTH 0QNNAA1D0 00000BA1 0 00000GA1U0 99999KA1D0 00065JA1 0 00183LA1 0 01000CA1 0 02997NA1 0 00000QA1 0 10146SA1D0 00075RA1 0 00239YA1 0 14009
0146722506129592000032505184+26180-098230FM-16+0033KMFE V0201401N004610075019N0160931N1+02101+01901999999ADDGD13991+0075019GF107991999999999999999999MA1101591999999MW1001REMMET053KMFE 250518Z 14009KT 10SM BKN025 21/19 A3000 RMK AO2;EQDQ01+000000PRSWM2
0320722506129592000032610533+26183-098233FM-15+0030MFE  V0201405N00315002445MN0112005N1+02115+02005101445ADDGD13995+0024459GF107991999999999999999999MA1101465999999MW1001REMMET076KMFE 261053Z AUTO 14006KT 7SM BKN008 21/20 A2996 RMK AO2 SLP144 T02110200 $;EQDQ01+000000PRSWM2N01 00000JPWTH 0QNNAA1D0 04008BA1 0 04008GA1 0 00008KA1D0 00068JA1 0 00200LA1 0 00700CA1 0 02996NA1 0 00000QA1 0 10144SA1D0 00070RA1 0 00211YA1 0 14006
0104722506129592000032623009+26183-098233NSRDB+003099999V020999999999999999999999999999+99999+99999999999ADDGM1006003221090386119015011999999GP10060044102008067702015010602008GQ100600603925709GR100600679913739
0340722506129592000032712533+26183-098233FM-15+0030MFE  V0201505N00525002745MN0096005N1+02225+02065100675ADDGD14995+0027459GF108991999999999999999999MA1100715999999MW1101MW2455REMMET074KMFE 271253Z 15010KT 6SM BR OVC009 22/21 A2974 RMK AO2 SLP067 T02220206 $;EQDQ01+000003PRSWM1Q02    003PRSWM1N01 00070JPWTH 0QNNAA1D0 06009BA1 0 06009GA1 0 00009KA1D0 00069JA1 0 00206LA1 0 00600CA1 0 02974NA1 0 00070QA1 0 10067SA1D0 00072RA1 0 00222YA1 0 15010
0104722506129592000032713009+26183-098233NSRDB+003099999V020999999999999999999999999999+99999+99999999999ADDGM1006000010190000019000201999999GP10060000002008007102015000002008GQ100600869908829GR100600037906989
0104722506129592000032723009+26183-098233NSRDB+003099999V020999999999999999999999999999+99999+99999999999ADDGM1006001420390000039015203999999GP10060031402008016902015023002008GQ100600602925749GR100600681913729
0354722506129592000040417533+26183-098233FM-15+0030MFE  V0200105N00465220005MN0160005N1+02225+00065103015ADDGF100991999999999999999999KA1999M+02221KA2999N+01171MA1103055999999MD1810101+9999MW1001REMMET085KMFE 041753Z 01009KT 10SM CLR 22/01 A3043 RMK AO2 SLP301 T02220006 10222 20117 58010;EQDQ01+000000PRSWM2N01 00000JPWTH 0QNNAA1D0 00000BA1 0 00000GA1U0 99999KA1D0 00033JA1 0 00006LA1 0 01000CA1 0 03043NA1 0 00000QA1 0 10301SA1D0 00072RA1 0 00222YA1 0 01009
0345722506129592000040808533+26183-098233FM-15+0030MFE  V0209999C00005220005MN0064005N1+01945+01945101315ADDGF100991999999999999999999MA1101325999999MD1110081+9999MW1101MW2455REMMET080KMFE 080853Z AUTO 00000KT 4SM BR CLR 19/19 A2992 RMK AO2 SLP131 T01940194 51008;EQDQ01+000003PRSWM1Q02    003PRSWM1N01 00070JPWTH 0QNNAA1D0 00000BA1 0 00000GA1U0 99999KA1D0 00067JA1 0 00194LA1 0 00400CA1 0 02992NA1 0 00070QA1 0 10131SA1D0 00067RA1 0 00194YA1 0 00000
0104722506129592000040917009+26183-098233NSRDB+003099999V020999999999999999999999999999+99999+99999999999ADDGM1006006860390510039026003999999GP10060063502008030802015038202008GQ100600348911689GR100601116913629
0274722506129592000041204043+26180-098230FM-16+0033KMFE V0201401N005110099019N0160931N1+02401+02101999999ADDGD12991+0057019GD23991+0099019GD34991+0123019GF108991999999999999999999GM1006000000190000019000001999999GP10060000002000000002000000002000GR100600000900009MA1101561999999MW1001REMMET067KMFE 120404Z 14010KT 10SM FEW019 BKN033 OVC041 24/21 A2999 RMK AO2;EQDQ01+000000PRSWM2
0426722506129592000041212533+26183-098233FM-15+0030MFE  V0200705N00365001525MN0080005N1+02225+02175101725ADDGD13995+0015259GD23995+0039659GD34995+0061059GF108991999999999999999999MA1101735999999MW1101MW2455REMMET086KMFE 121253Z 07007KT 5SM BR BKN005 BKN013 OVC020 22/22 A3004 RMK AO2 SLP172 T02220217;EQDQ01+000003PRSWM1Q02    003PRSWM1N01 00070JPWTH 0QNNAA1D0 04005BA1 0 04005AA1D0 04013BA1 0 04013AA1D0 06020BA1 0 06020GA1 0 00005KA1D0 00071JA1 0 00217LA1 0 00500CA1 0 03004NA1 0 00070QA1 0 10172SA1D0 00072RA1 0 00222YA1 0 07007
0389722506129592000041514533+26183-098233FM-15+0030MFE  V0201605N00985007325MN0160005N1+02445+02005100985ADDGD12995+0057959GD23995+0073259GF107991999999999999999999MA1101025999999MD1010081+9999MW1001OC101231REMMET086KMFE 151453Z 16019G24KT 10SM SCT019 BKN024 24/20 A2983 RMK AO2 SLP098 T02440200 50008;EQDQ01+000000PRSWM2N01 00000JPWTH 0QNNAA1D0 02019BA1 0 02019AA1D0 04024BA1 0 04024GA1 0 00024KA1D0 00068JA1 0 00200LA1 0 01000CA1 0 02983NA1 0 00000QA1 0 10098SA1D0 00076RA1 0 00244YA1 0 16019
0313722506129592000041810533+26183-098233FM-15+0030MFE  V0201405N00415005795MN0144005N1+02395+02225101395ADDGD14995+0057959GF108991999999999999999999MA1101425999999MW1001REMMET069KMFE 181053Z 14008KT 9SM OVC019 24/22 A2995 RMK AO2 SLP139 T02390222;EQDQ01+000000PRSWM2N01 00000JPWTH 0QNNAA1D0 06019BA1 0 06019GA1 0 00019KA1D0 00072JA1 0 00222LA1 0 00900CA1 0 02995NA1 0 00000QA1 0 10139SA1D0 00075RA1 0 00239YA1 0 14008
0398722506129592000042005533+26183-098233FM-15+0030MFE  V0201705N00825220005MN0160005N1+02395+02175100925ADDGF100991999999999999999999KA1999M+02831KA2999N+02391MA1100955999999MD1810051+9999MW1001OC101291REMMET121KMFE 200553Z AUTO 17016G25KT 10SM CLR 24/22 A2981 RMK AO2 PK WND 16028/0459 SLP092 T02390217 10283 20239 403330211 58005;EQDQ01+000000PRSWM2N01 00000JPWTH 0QNNAA1D0 00000BA1 0 00000GA1U0 99999KA1D0 00071JA1 0 00217LA1 0 01000CA1 0 02981NA1 0 00000QA1 0 10092SA1D0 00075RA1 0 00239YA1 0 17016
0304722506129592000042420533+26183-098233FM-15+0030MFE  V0200905N00465220005MN0160005N1+03675+01565999999ADDGF100991999999999999999999MA1100785999999MD1810181+9999MW1001REMMET072KMFE 242053Z 09009KT 10SM CLR 37/16 A2976 RMK AO2 SLPNO T03670156 58018;EQDQ01+000000PRSWM2N01 00000JPWTH 0QNNAA1D0 00000BA1 0 00000GA1U0 99999KA1D0 00060JA1 0 00156LA1 0 01000CA1 0 02976NA1 0 00000SA1D0 00098RA1 0 00367YA1 0 09009
