0150949960999992000050106304-29030+167930FM-15+0109YSNF V0200901N009312200019N0112651N1+01901+01501999999ADDGA1021+004509999GF102991999999999999999999MA1102301999999MW1001OC101491REMMET048YSNF 010630Z 09018G29KT 9999 FEW015 19/15 Q1023;EQDQ01+000000PRSWM2
0162949960999992000050311004-29030+167930FM-15+0109YSNF V0201001N006710150019N0112651N1+01801+01201999999ADDGA1021+006009999GA2071+015009999GF107991999999999999999999MA1102201999999MW1001REMMET052YSNF 031100Z 10013KT 9999 FEW020 BKN050 18/12 Q1022;EQDQ01+000000PRSWM2
0090949960999992000051019004-29030+167930FM-15+0109YSNF V0200701N002112200019N0112651N1+02001+01901999999ADDMA1101191999999MW1001REMMET038YSNF 101900Z 07004KT //// 20/19 Q1012;EQDQ01+000000PRSWM2
0306949960999992000051603004-29030+167930SY-MT+0109YSNF V0201601N004612200019N0400001N1+02031+01391102131ADDAA199000091AY101031AY201031GA1021+009009999GF199999011011008001001011MA1102101100831MD1610161+9999MW1021REMSYN072AAXX  16034 94996 31582 11609 10203 20139 30083 40213 56016 70200 81101;MET045YSNF 160300Z 16009KT 9999 FEW030 20/14 Q1021;EQDQ01+000012SCOTCVQ02+000000PRSWM2Q03  00002PRCP99Q04    003PRSWM1
0090949960999992000051616004-29030+167930FM-15+0109YSNF V0201001N003112200019N0099001N1+01801+01501999999ADDMA1102301999999MW1001REMMET038YSNF 161600Z 10006KT //// 18/15 Q1023;EQDQ01+000000PRSWM2
0197949960999992000051715004-29030+167930SY-MT+0109YSNF V0200801N002119999999N0099001N1+01671+01451102271ADDAA199000091MA1102301100971MD1710111+9999MW1001REMSYN060AAXX  17154 94996 35/// /0804 10167 20145 30097 40227 57011;MET038YSNF 171500Z 08004KT //// 17/15 Q1023;EQDQ01+000000PRSWM2Q02  00002PRCP99
0162949960999992000052323004-29030+167930FM-15+0109YSNF V0201101N005110135019N0112651N1+01801+01101999999ADDGA1021+006009999GA2071+013509999GF107991999999999999999999MA1102301999999MW1001REMMET052YSNF 232300Z 11010KT 9999 FEW020 BKN045 18/11 Q1023;EQDQ01+000000PRSWM2
0159949960999992000052809504-29030+167930FM-15+0109YSNF V0200201N005710024019N0090001N1+01901+01801999999ADDGA1071+002409999GF107991999999999999999999MA1101491999999MW1511REMMET049YSNF 280950Z 02011KT 9000 -DZ BKN008 19/18 Q1015;EQDQ01+000003PRSWM1Q02    003PRSWM1
0162949960999992000053002004-29030+167930FM-15+0109YSNF V0202301N002610840019N0112651N1+01901+01001999999ADDGA1021+007509999GA2071+084009999GF107991999999999999999999MA1101291999999MW1001REMMET052YSNF 300200Z 23005KT 9999 FEW025 BKN280 19/10 Q1013;EQDQ01+000000PRSWM2
0117949960999992000060301094-29030+167930FM-16+0109YSNF V0202701N010312200019N9999999N1+01701+01101999999ADDMA1100511999999MW1001OC101591REMMET041YSNF 030109Z 27020G31KT //// 17/11 Q1005;EQDQ01+030002VODIS Q02+000000PRSWM2
0090949960999992000060417004-29030+167930FM-15+0109YSNF V0202301N003112200019N0099001N1+01701+00701999999ADDMA1101801999999MW1001REMMET038YSNF 041700Z 23006KT //// 17/07 Q1018;EQDQ01+000000PRSWM2
0170949960999992000060418004-29030+167930SY-MT+0109YSNF V0202201N004619999999N0450001N1+01711+00891101871ADDMA1101801100561MD1210011+9999MW1001REMSYN060AAXX  04184 94996 45/// /2209 10171 20089 30056 40187 52001;MET038YSNF 041800Z 22009KT //// 17/09 Q1018;EQDQ01+000000PRSWM2
0090949960999992000060613004-29030+167930FM-15+0109YSNF V0202701N007712200019N0099001N1+01801+01201999999ADDMA1101291999999MW1001REMMET038YSNF 061300Z 27015KT //// 18/12 Q1013;EQDQ01+000000PRSWM2
0139949960999992000060808004-29030+167930FM-15+0109YSNF V0201701N004112200019N0112651N1+01701+00901999999ADDGA1021+007509999GF102991999999999999999999MA1102101999999MW1001REMMET045YSNF 080800Z 17008KT 9999 FEW025 17/09 Q1021;EQDQ01+000000PRSWM2
0090949960999992000061019004-29030+167930FM-15+0109YSNF V0200701N004112200019N0112651N1+01401+01201999999ADDMA1101801999999MW1001REMMET038YSNF 101900Z 07008KT //// 14/12 Q1018;EQDQ01+000000PRSWM2
0161949960999992000061704004-29290+167930FM-15+0109YSNF V0200801N003110060019N0112651N1+01601+01301999999ADDGA1071+006009999GF107991999999999999999999MA1102711999999MW1801REMMET051YSNF 170400Z 08006KT 9999 -SHRA BKN020 16/13 Q1027;EQDQ01+000003PRSWM1Q02    003PRSWM1
0162949960999992000061901004-29290+167930FM-15+0109YSNF V0201201N004610120019N0112651N1+01801+01101999999ADDGA1021+010509999GA2071+012009999GF107991999999999999999999MA1102811999999MW1001REMMET052YSNF 190100Z 12009KT 9999 FEW035 BKN040 18/11 Q1028;EQDQ01+000000PRSWM2
0090949960999992000062013004-29290+167930FM-15+0109YSNF V0200801N002112200019N0112651N1+01401+01301999999ADDMA1102301999999MW1001REMMET038YSNF 201300Z 08004KT //// 14/13 Q1023;EQDQ01+000000PRSWM2
0139949960999992000062119004-29290+167930FM-15+0109YSNF V0209999C000012200019N0112651N1+01501+01301999999ADDGA1021+003009999GF102991999999999999999999MA1102001999999MW1001REMMET045YSNF 211900Z 00000KT 9999 FEW010 15/13 Q1020;EQDQ01+000000PRSWM2
0139949960999992000062223004-29290+167930FM-15+0109YSNF V0201501N002112200019N0112651N1+01701+01301999999ADDGA1021+006009999GF102991999999999999999999MA1102101999999MW1001REMMET045YSNF 222300Z 15004KT 9999 FEW020 17/13 Q1021;EQDQ01+000000PRSWM2
0139949960999992000062302004-29290+167930FM-15+0109YSNF V0201301N001512200019N0112651N1+01801+01201999999ADDGA1021+006009999GF102991999999999999999999MA1101901999999MW1001REMMET045YSNF 230200Z 13003KT 9999 FEW020 18/12 Q1019;EQDQ01+000000PRSWM2
0139949960999992000062910004-29290+167930FM-15+0109YSNF V0209999C000012200019N0112651N1+01401+01001999999ADDGA1021+007509999GF102991999999999999999999MA1101801999999MW1001REMMET045YSNF 291000Z 00000KT 9999 FEW025 14/10 Q1018;EQDQ01+000000PRSWM2
0139949960999992000063022004-29290+167930FM-15+0109YSNF V0202701N007212200019N0112651N1+01801+01201999999ADDGA1021+006009999GF102991999999999999999999MA1100811999999MW1001REMMET045YSNF 302200Z 27014KT 9999 FEW020 18/12 Q1008;EQDQ01+000000PRSWM2
0162949960999992000070207004-29290+167930FM-15+0109YSNF V0202301N008712200019N0112651N1+01701+01501999999ADDGA1021+002409999GA2021+004509999GF104991999999999999999999MA1100101999999MW1001REMMET052YSNF 020700Z 23017KT 9999 FEW008 SCT015 17/15 Q1001;EQDQ01+000000PRSWM2
0139949960999992000070210004-29290+167930FM-15+0109YSNF V0202101N008212200019N0112651N1+01701+01301999999ADDGA1021+004509999GF102991999999999999999999MA1100311999999MW1001REMMET045YSNF 021000Z 21016KT 9999 FEW015 17/13 Q1003;EQDQ01+000000PRSWM2
0160949960999992000070804004-29290+167930FM-15+0109YSNF V0201401N005112200019N0112651N1+01801+01501999999ADDGA1021+005409999GF104991999999999999999999MA1101191999999MW1161REMMET050YSNF 080400Z 14010KT 9999 VCSH SCT018 18/15 Q1012;EQDQ01+000003PRSWM1Q02    003PRSWM1
0183949960999992000071005004-29290+167930FM-15+0109YSNF V0200801N004112200019N0112651N1+01701+01501999999ADDGA1021+002409999GA2021+004509999GF104991999999999999999999MA1102001999999MW1161REMMET057YSNF 100500Z 08008KT 9999 VCSH FEW008 SCT015 17/15 Q1020;EQDQ01+000003PRSWM1Q02    003PRSWM1
0162949960999992000071010004-29290+167930FM-15+0109YSNF V0200701N006212200019N0112651N1+01701+01501999999ADDGA1021+004509999GA2021+030009999GF104991999999999999999999MA1102101999999MW1001REMMET052YSNF 101000Z 07012KT 9999 SCT015 SCT100 17/15 Q1021;EQDQ01+000000PRSWM2
0216949960999992000071117004-29290+167930FM-15+0109YSNF V0200601N011310060019N0090001N1+01801+01501999999ADDGA1021+003009999GA2071+006009999GA3081+030009999GF108991999999999999999999MA1101081999999MW1611OC101651REMMET066YSNF 111700Z 06022G32KT 9000 -RA FEW010 BKN020 OVC100 18/15 Q1011;EQDQ01+000003PRSWM1Q02    003PRSWM1
0101949960999992000071407024-29290+167930FM-16+0109YSNF V0202801N009812200019N0024001N1+01701+01201999999ADDMA1100411999999MW1001OC101491REMMET041YSNF 140702Z 28019G29KT //// 17/12 Q1004;EQDQ01+000000PRSWM2
0150949960999992000071423534-29290+167930FM-15+0109YSNF V0202701N008712200019N0112651N1+01801+01101999999ADDGA1021+006009999GF102991999999999999999999MA1100511999999MW1001OC101491REMMET048YSNF 142353Z 27017G29KT 9999 FEW020 18/11 Q1005;EQDQ01+000000PRSWM2
0090949960999992000072514004-29020+167930FM-15+0109YSNF V0200401N002612200019N0099001N1+01401+00701999999ADDMA1102301999999MW1001REMMET038YSNF 251400Z 04005KT //// 14/07 Q1023;EQDQ01+000000PRSWM2
0162949960999992000080201004-29020+167930FM-15+0109YSNF V0201601N003112200019N0112651N1+01601+00701999999ADDGA1021+009009999GA2021+015009999GF104991999999999999999999MA1102301999999MW1001REMMET052YSNF 020100Z 16006KT 9999 SCT030 SCT050 16/07 Q1023;EQDQ01+000000PRSWM2
0286949960999992000080206004-29020+167930SY-MT+0109YSNF V0201201N003112200019N0400001N1+01441+01021102241ADDAY111061AY211061GA1021+009009999GA2021+015009999GF103991031081008001001001MA1102201100921MD1410001+9999MW1151REMSYN072AAXX  02064 94996 41582 31206 10144 20102 30092 40224 54000 71511 83800;MET052YSNF 020600Z 12006KT 9999 FEW030 SCT050 14/10 Q1022;EQDQ01+000000PRSWM2Q02    003PRSWM1
0150949960999992000081915004-29020+167930SY-MT+0109YSNF V0202401N003119999999N9999999N1+01331+01181100661ADDMA1100611099371MW1001REMSYN054AAXX  19154 94996 46/// /2406 10133 20118 39937 40066;MET038YSNF 191500Z 24006KT //// 13/12 Q1006;EQDQ01+000000PRSWM2
0309949960999992000082000004-29020+167930SY-MT+0109YSNF V0202801N00771004501CN0300001N1+01611+01301100801ADDAY121061AY221061GA1021+003009999GA2071+004509999GF107991071021004501999999KA1999N+01281MA1100811099501MD1110051+9999MW1151REMSYN082AAXX  20004 94996 41480 72815 10161 20130 39950 40080 51005 71522 872// 333 20128;MET052YSNF 200000Z 28015KT 9999 FEW010 BKN015 16/13 Q1008;EQDQ01+000000PRSWM2Q02    003PRSWM1
0162949960999992000082317004-29020+167930FM-15+0109YSNF V0200501N004610180019N0112651N1+01601+01001999999ADDGA1021+006009999GA2071+018009999GF107991999999999999999999MA1101691999999MW1001REMMET052YSNF 231700Z 05009KT 9999 FEW020 BKN060 16/10 Q1017;EQDQ01+000000PRSWM2
0139949960999992000082911004-29020+167930FM-15+0109YSNF V0202801N008212200019N0112651N1+01701+01301999999ADDGA1021+006009999GF102991999999999999999999MA1100411999999MW1001REMMET045YSNF 291100Z 28016KT 9999 FEW020 17/13 Q1004;EQDQ01+000000PRSWM2
0139949960999992000090323004-29020+167930FM-15+0109YSNF V0202201N004112200019N0112651N1+01801+00901999999ADDGA1021+006609999GF102991999999999999999999MA1101591999999MW1001REMMET045YSNF 032300Z 22008KT 9999 FEW022 18/09 Q1016;EQDQ01+000000PRSWM2
0302949960999992000090700004-29020+167930SY-MT+0109YSNF V0203501N003112200019N0400001N1+01971+01331101911ADDAY181061AY201061GA1021+006009999GF199999011081008001001001KA1999N+01461MA1101901100601MD1710091+9999MW1021REMSYN082AAXX  07004 94996 41582 13506 10197 20133 30060 40191 57009 70280 81800 333 20146;MET045YSNF 070000Z 35006KT 9999 FEW020 20/13 Q1019;EQDQ01+000012SCOTCVQ02+000000PRSWM2Q03    003PRSWM1
0139949960999992000091110004-29020+167930FM-15+0109YSNF V0209999C000012200019N0112651N1+01401+01101999999ADDGA1021+006009999GF102991999999999999999999MA1101391999999MW1001REMMET045YSNF 111000Z 00000KT 9999 FEW020 14/11 Q1014;EQDQ01+000000PRSWM2
0195949960999992000091320574-29020+167930FM-15+0109YSNF V0202301N007710120019N0080001N1+01601+01001999999ADDGA1021+006609999GA2071+012009999GF107991999999999999999999MA1101691999999MW1801OC101291REMMET061YSNF 132057Z 23015G25KT 8000 -SHRA SCT022 BKN040 16/10 Q1017;EQDQ01+000003PRSWM1Q02    003PRSWM1
0090949960999992000091414004-29020+167930FM-15+0109YSNF V0201501N003612200019N0099001N1+01501+01101999999ADDMA1101901999999MW1001REMMET038YSNF 141400Z 15007KT //// 15/11 Q1019;EQDQ01+000000PRSWM2
0090949960999992000091716004-29020+167930FM-15+0109YSNF V0202101N001512200019N0099001N1+01401+01101999999ADDMA1101801999999MW1001REMMET038YSNF 171600Z 21003KT //// 14/11 Q1018;EQDQ01+000000PRSWM2
0090949960999992000092419004-29020+167930FM-15+0109YSNF V0202801N006712200019N0112651N1+01801+01501999999ADDMA1101591999999MW1001REMMET038YSNF 241900Z 28013KT //// 18/15 Q1016;EQDQ01+000000PRSWM2
0173949960999992000092423134-29020+167930FM-16+0109YSNF V0202301N008212200019N0112651N1+01901+01501999999ADDGA1021+003009999GA2021+004509999GF104991999999999999999999MA1101691999999MW1001OC101341REMMET055YSNF 242313Z 23016G26KT 9999 FEW010 SCT015 19/15 Q1017;EQDQ01+000000PRSWM2
0090949960999992000092519004-29020+167930FM-15+0109YSNF V0201801N002112200019N0060001N1+01301+00801999999ADDMA1102101999999MW1001REMMET038YSNF 251900Z 18004KT //// 13/08 Q1021;EQDQ01+000000PRSWM2
0139949960999992000100308004-29020+167930FM-15+0109YSNF V0201701N003612200019N0112651N1+01601+00901999999ADDGA1021+007509999GF102991999999999999999999MA1102101999999MW1001REMMET045YSNF 030800Z 17007KT 9999 FEW025 16/09 Q1021;EQDQ01+000000PRSWM2
0309949960999992000100512004-29020+167930SY-MT+0109YSNF V0200701N00411015001CN0400001N1+01661+01121102841ADDAY121061AY201061GA1021+007509999GA2071+015009999GF107991071081008001999999KA1999M+02041MA1102811101521MD1810031+9999MW1031REMSYN082AAXX  05124 94996 41582 70708 10166 20112 30152 40284 58003 70320 878// 333 10204;MET052YSNF 051200Z 07008KT 9999 SCT025 BKN050 17/11 Q1028;EQDQ01+000000PRSWM2Q02    003PRSWM1
0162949960999992000101308004-29020+167930FM-15+0109YSNF V0200901N002110135019N0112651N1+01501+00701999999ADDGA1021+009009999GA2071+013509999GF107991999999999999999999MA1101591999999MW1001REMMET052YSNF 130800Z 09004KT 9999 SCT030 BKN045 15/07 Q1016;EQDQ01+000000PRSWM2
0162949960999992000101322004-29020+167930FM-15+0109YSNF V0200501N005110120019N0112651N1+01801+00701999999ADDGA1021+010509999GA2071+012009999GF107991999999999999999999MA1101591999999MW1001REMMET052YSNF 132200Z 05010KT 9999 FEW035 BKN040 18/07 Q1016;EQDQ01+000000PRSWM2
0182949960999992000101701304-29020+167930FM-15+0109YSNF V0201001N005110030019N0015001N1+01801+01701999999ADDGA1021+001509999GA2071+003009999GF107991999999999999999999MA1101491999999MW1551REMMET056YSNF 170130Z 10010KT 1500 +DZ SCT005 BKN010 18/17 Q1015;EQDQ01+000003PRSWM1Q02    003PRSWM1
0188949960999992000101802004-29020+167930FM-15+0109YSNF V0201201N006212200019N0112651N1+01901+01501999999ADDGA1021+003609999GA2021+005409999GA3021+006009029GF102991999999999999999999MA1101291999999MW1001REMMET062YSNF 180200Z 12012KT 9999 FEW012 SCT018 FEW020TCU 19/15 Q1013;EQDQ01+000000PRSWM2
0162949960999992000101922004-29020+167930FM-15+0109YSNF V0201101N007212200019N0112651N1+01801+00901999999ADDGA1021+009009999GA2021+012009999GF104991999999999999999999MA1102101999999MW1001REMMET052YSNF 192200Z 11014KT 9999 SCT030 SCT040 18/09 Q1021;EQDQ01+000000PRSWM2
0279949960999992000102406004-29020+167930SY-MT+0109YSNF V0201301N003612200019N0300001N1+01691+01041101951ADDAY101061AY201061GA1021+007509999GF199999011011008001001001MA1101901100641MD1610051+9999MW1021REMSYN072AAXX  24064 94996 41580 11307 10169 20104 30064 40195 56005 70200 81100;MET045YSNF 240600Z 13007KT 9999 FEW025 17/10 Q1019;EQDQ01+000012SCOTCVQ02+000000PRSWM2Q03    003PRSWM1
0090949960999992000102416004-29020+167930FM-15+0109YSNF V0200901N001512200019N9999999N1+01401+01101999999ADDMA1101901999999MW1001REMMET038YSNF 241600Z 09003KT //// 14/11 Q1019;EQDQ01+000000PRSWM2
0306949960999992000102609004-29020+167930SY-MT+0109YSNF V0200801N003612200019N0400001N1+01541+01051102131ADDAA199000091AY101031AY201031GA1021+009009999GF199999011051008001001001MA1102101100821MD1210161+9999MW1021REMSYN072AAXX  26094 94996 31582 10807 10154 20105 30082 40213 52016 70200 81500;MET045YSNF 260900Z 08007KT 9999 FEW030 15/11 Q1021;EQDQ01+000012SCOTCVQ02+000000PRSWM2Q03  00002PRCP99Q04    003PRSWM1
0139949960999992000102710004-29020+167930FM-15+0109YSNF V0200601N004112200019N0112651N1+01701+01501999999ADDGA1021+006009999GF102991999999999999999999MA1101591999999MW1001REMMET045YSNF 271000Z 06008KT 9999 FEW020 17/15 Q1016;EQDQ01+000000PRSWM2
0265949960999992000110212004-29020+167930SY-MT+0109YSNF V0203401N005110105019N0080001N1+01901+01851099991ADDGA1021+001809999GA2021+004509999GA3071+010509999GF107991999999999999999999MA1100001098711MW1511REMSYN054AAXX  02124 94996 46/// /3410 10190 20185 39871 49999;MET063YSNF 021200Z 34010KT 8000 -DZ SCT006 SCT015 BKN035 19/19 Q1000;EQDQ01+000003PRSWM1Q02    003PRSWM1
0209949960999992000110707004-29020+167930FM-15+0109YSNF V0203001N004610300019N0112651N1+02001+01801999999ADDGA1021+002409999GA2021+004509029GA3071+030009999GF107991999999999999999999MA1101021999999MW1161REMMET067YSNF 070700Z 30009KT 9999 VCSH FEW008 SCT015TCU BKN100 20/18 Q1010;EQDQ01+000003PRSWM1Q02    003PRSWM1
0162949960999992000110710004-29020+167930FM-15+0109YSNF V0202801N003110300019N0112651N1+01801+01701999999ADDGA1021+004509999GA2071+030009999GF107991999999999999999999MA1101081999999MW1001REMMET052YSNF 071000Z 28006KT 9999 FEW015 BKN100 18/17 Q1011;EQDQ01+000000PRSWM2
0209949960999992000110801004-29020+167930FM-15+0109YSNF V0201301N005110300019N0112651N1+01701+01401999999ADDGA1021+002409999GA2021+004509029GA3071+030009999GF107991999999999999999999MA1101021999999MW1161REMMET067YSNF 080100Z 13010KT 9999 VCSH FEW008 FEW015TCU BKN100 17/14 Q1010;EQDQ01+000003PRSWM1Q02    003PRSWM1
0150949960999992000110918004-29020+167930SY-MT+0109YSNF V0201801N005119999999N0112651N1+01661+01241101091ADDMA1101081099801MW1001REMSYN054AAXX  09184 94996 46/// /1810 10166 20124 39980 40109;MET038YSNF 091800Z 18010KT //// 17/12 Q1011;EQDQ01+000000PRSWM2
0139949960999992000111220004-29020+167930FM-15+0109YSNF V0201301N004112200019N0112651N1+01701+01101999999ADDGA1021+006009999GF104991999999999999999999MA1101901999999MW1001REMMET045YSNF 122000Z 13008KT 9999 SCT020 17/11 Q1019;EQDQ01+000000PRSWM2
0139949960999992000111800014-29020+167930FM-15+0109YSNF V0201401N004612200019N0112651N1+02001+01201999999ADDGA1021+007509999GF104991999999999999999999MA1102001999999MW1001REMMET045YSNF 180001Z 14009KT 9999 SCT025 20/12 Q1020;EQDQ01+000000PRSWM2
0090949960999992000112319004-29020+167930FM-15+0109YSNF V0201401N006712200019N0112651N1+01801+01701999999ADDMA1100711999999MW1001REMMET038YSNF 231900Z 14013KT //// 18/17 Q1007;EQDQ01+000000PRSWM2
0162949960999992000112402204-29020+167930FM-15+0109YSNF V0201501N006710018019N0080001N1+01901+01701999999ADDGA1071+001809999GA2071+003609999GF107991999999999999999999MA1100811999999MW1001REMMET052YSNF 240220Z 15013KT 8000 BKN006 BKN012 19/17 Q1008;EQDQ01+000000PRSWM2
0090949960999992000112713004-29020+167930FM-15+0109YSNF V0209999C000012200019N0080001N1+01501+01101999999ADDMA1101291999999MW1001REMMET038YSNF 271300Z 00000KT //// 15/11 Q1013;EQDQ01+000000PRSWM2
0090949960999992000112817004-29020+167930FM-15+0109YSNF V0202401N005712200019N0112651N1+01701+00901999999ADDMA1100811999999MW1001REMMET038YSNF 281700Z 24011KT //// 17/09 Q1008;EQDQ01+000000PRSWM2
0336949960999992000120203004-29020+167930SY-MT+0109YSNF V0200601N00571075001CN0300001N1+02121+01591101641ADDAA199000091AY111031AY211031GA1021+007509999GA2021+030009999GA3071+075009999GF107991021081008001031041MA1101591100351MD1510051+9999MW1031REMSYN072AAXX  02034 94996 31580 70611 10212 20159 30035 40164 55005 70311 82834;MET059YSNF 020300Z 06011KT 9999 FEW025 SCT100 BKN250 21/16 Q1016;EQDQ01+000000PRSWM2Q02  00002PRCP99Q03    003PRSWM1
0139949960999992000120302004-29020+167930FM-15+0109YSNF V0201401N002112200019N0112651N1+02101+01601999999ADDGA1021+006009999GF102991999999999999999999MA1101591999999MW1001REMMET045YSNF 030200Z 14004KT 9999 FEW020 21/16 Q1016;EQDQ01+000000PRSWM2
0090949960999992000120413004-29020+167930FM-15+0109YSNF V0201201N006712200019N9999999N1+01801+01601999999ADDMA1101591999999MW1001REMMET038YSNF 041300Z 12013KT //// 18/16 Q1016;EQDQ01+000000PRSWM2
0286949960999992000121312004-29020+167930SY-MT+0109YSNF V0201101N004612200019N0400001N1+01811+01351101641ADDAY101061AY201061GA1021+005409999GF102991021011004501001001KA1999M+02301MA1101591100351MD1010031+9999MW1021REMSYN082AAXX  13124 94996 41482 21109 10181 20135 30035 40164 50003 70200 82100 333 10230;MET045YSNF 131200Z 11009KT 9999 FEW018 18/13 Q1016;EQDQ01+000000PRSWM2Q02    003PRSWM1
0090949960999992000121617004-29020+167930FM-15+0109YSNF V0201101N006212200019N0099001N1+01901+01801999999ADDMA1101191999999MW1001REMMET038YSNF 161700Z 11012KT //// 19/18 Q1012;EQDQ01+000000PRSWM2
0290949960999992000122421004-29020+167930SY-MT+0109YSNF V0200101N00311010801CN0300001N1+02131+01331101411ADDAA199000091AY121031AY221031GA1071+010809999GF107991071051012501999999MA1101391100131MD1210111+9999MW1021REMSYN072AAXX  24214 94996 31680 70106 10213 20133 30013 40141 52011 70222 875//;MET045YSNF 242100Z 01006KT 9999 BKN036 21/13 Q1014;EQDQ01+000000PRSWM2Q02  00002PRCP99Q03    003PRSWM1
0090949960999992000123013004-29020+167930FM-15+0109YSNF V0201901N003612200019N0099001N1+02101+01901999999ADDMA1101081999999MW1001REMMET038YSNF 301300Z 19007KT //// 21/19 Q1011;EQDQ01+000000PRSWM2
0162949960999992000123022004-29020+167930FM-15+0109YSNF V0201901N006210420019N0112651N1+02101+01701999999ADDGA1021+005109999GA2071+042009999GF107991999999999999999999MA1101391999999MW1001REMMET052YSNF 302200Z 19012KT 9999 SCT017 BKN140 21/17 Q1014;EQDQ01+000000PRSWM2
0162949960999992000123121004-29020+167930FM-15+0109YSNF V0201601N005110120019N0112651N1+02001+01101999999ADDGA1021+006009999GA2071+012009999GF107991999999999999999999MA1101901999999MW1001REMMET052YSNF 312100Z 16010KT 9999 SCT020 BKN040 20/11 Q1019;EQDQ01+000000PRSWM2
0095949970999992000012023004-53100+073720FM-12+001399999V02099999999999999999N9999999N1+00241+99999098591ADDMA1999999098431MD1410001+9999REMSYN054AAXX  20234 94997 46/// ///// 10024 39843 49859 54///;
0095949970999992000020100004-53100+073720FM-12+001399999V02099999999999999999N9999999N1+00241+99999100571ADDMA1999999100411MD1710051+9999REMSYN054AAXX  01004 94997 46/// ///// 10024 30041 40057 57005;
0095949970999992000020213004-53100+073720FM-12+001399999V02099999999999999999N9999999N1+00641+99999100361ADDMA1999999100201MD1710071+9999REMSYN054AAXX  02134 94997 46/// ///// 10064 30020 40036 57007;
0114949970999992000021012004-53100+073720FM-12+001399999V02099999999999999999N9999999N1+00221+99999098531ADDMA1999999098371MD1210622+9999REMSYN054AAXX  10124 94997 46/// ///// 10022 39837 49853 52062;EQDQ01+000622APC3  
0095949970999992000021100004-53100+073720FM-12+001399999V02099999999999999999N9999999N1+00221+99999100171ADDMA1999999100011MD1210171+9999REMSYN054AAXX  11004 94997 46/// ///// 10022 30001 40017 52017;
0095949970999992000030422004-53100+073720FM-12+001399999V02099999999999999999N9999999N1+00341+99999098641ADDMA1999999098481MD1710011+9999REMSYN054AAXX  04224 94997 46/// ///// 10034 39848 49864 57001;
0095949970999992000030815004-53100+073720FM-12+001399999V02099999999999999999N9999999N1+00441+99999100471ADDMA1999999100311MD1210121+9999REMSYN054AAXX  08154 94997 46/// ///// 10044 30031 40047 52012;
0095949970999992000031214004-53100+073720FM-12+001399999V02099999999999999999N9999999N1+00341+99999098321ADDMA1999999098161MD1210371+9999REMSYN054AAXX  12144 94997 46/// ///// 10034 39816 49832 52037;
0095949970999992000040714004-53100+073720FM-12+001399999V02099999999999999999N9999999N1+00581+99999099341ADDMA1999999099181MD1710041+9999REMSYN054AAXX  07144 94997 46/// ///// 10058 39918 49934 57004;
0095949970999992000041212004-53100+073720FM-12+001399999V02099999999999999999N9999999N1+00641+99999100171ADDMA1999999100011MD1710161+9999REMSYN054AAXX  12124 94997 46/// ///// 10064 30001 40017 57016;
0095949970999992000051923004-53100+073720FM-12+001399999V02099999999999999999N9999999N1+00401+99999100101ADDMA1999999099951MD1710281+9999REMSYN054AAXX  19234 94997 46/// ///// 10040 39995 40010 57028;
0095949970999992000052011004-53100+073720FM-12+001399999V02099999999999999999N9999999N1+00781+99999099801ADDMA1999999099651MD1210011+9999REMSYN054AAXX  20114 94997 46/// ///// 10078 39965 49980 52001;
0095949970999992000061820004-53090+073720FM-12+001399999V02099999999999999999N9999999N1+00161+99999100251ADDMA1999999100101MD1710191+9999REMSYN054AAXX  18204 94997 46/// ///// 10016 30010 40025 57019;
0095949970999992000062221004-53090+073720FM-12+001399999V02099999999999999999N9999999N1-00261+99999098591ADDMA1999999098431MD1210321+9999REMSYN054AAXX  22214 94997 46/// ///// 11026 39843 49859 52032;
0095949970999992000070217004-53090+073720FM-12+001399999V02099999999999999999N9999999N1+00741+99999100501ADDMA1999999100341MD1710091+9999REMSYN054AAXX  02174 94997 46/// ///// 10074 30034 40050 57009;
0095949970999992000081101004-53090+073720FM-12+001399999V02099999999999999999N9999999N1-00301+99999100021ADDMA1999999099861MD1210221+9999REMSYN054AAXX  11014 94997 46/// ///// 11030 39986 40002 52022;
0095949970999992000081500004-53090+073720FM-12+001399999V02099999999999999999N9999999N1-00061+99999097871ADDMA1999999097711MD1710241+9999REMSYN054AAXX  15004 94997 46/// ///// 11006 39771 49787 57024;
0095949970999992000082000004-53090+073720FM-12+001399999V02099999999999999999N9999999N1+00081+99999095591ADDMA1999999095431MD1210121+9999REMSYN054AAXX  20004 94997 46/// ///// 10008 39543 49559 52012;
0095949970999992000082113004-53090+073720FM-12+001399999V02099999999999999999N9999999N1-00341+99999098101ADDMA1999999097941MD1410001+9999REMSYN054AAXX  21134 94997 46/// ///// 11034 39794 49810 54///;
0095949970999992000082823004-53090+073720FM-12+001399999V02099999999999999999N9999999N1+00221+99999100051ADDMA1999999099891MD1210091+9999REMSYN054AAXX  28234 94997 46/// ///// 10022 39989 40005 52009;
0095949970999992000092503004-53090+073720FM-12+001399999V02099999999999999999N9999999N1-00341+99999099271ADDMA1999999099111MD1710231+9999REMSYN054AAXX  25034 94997 46/// ///// 11034 39911 49927 57023;
0068949970999992000092721004-53090+073720FM-12+001399999V02099999999999999999N9999999N1+99999+99999999999ADDMD1219999+9999REMSYN042AAXX  27214 94997 46/// ///// 4//// 52///;
0068949970999992000101700004-53090+073720FM-12+001399999V02099999999999999999N9999999N1+99999+99999999999ADDMD1219999+9999REMSYN042AAXX  17004 94997 46/// ///// 4//// 52///;
0095949970999992000102121004-53090+073720FM-12+001399999V02099999999999999999N9999999N1+00101+99999098621ADDMA1999999098461MD1710431+9999REMSYN054AAXX  21214 94997 46/// ///// 10010 39846 49862 57043;
0095949970999992000110723004-53090+073720FM-12+001399999V02099999999999999999N9999999N1+00101+99999098871ADDMA1999999098721MD1210011+9999REMSYN054AAXX  07234 94997 46/// ///// 10010 39872 49887 52001;
0101949970999992000120600004-53090+073720FM-12+001399999V02099999999999999999N9999999N1+00121+99999098221ADDMA1999999098061MD1710401+9999REMSYN060AAXX  06004 94997 46/// ///// 10012 39806 49822 57040 90034;
0101949970999992000120921004-53090+073720FM-12+001399999V02099999999999999999N9999999N1+00081+99999099351ADDMA1999999099201MD1210131+9999REMSYN060AAXX  09214 94997 46/// ///// 10008 39920 49935 52013 92146;
0101949970999992000121019004-53090+073720FM-12+001399999V02099999999999999999N9999999N1+00181+99999098751ADDMA1999999098601MD1710301+9999REMSYN060AAXX  10194 94997 46/// ///// 10018 39860 49875 57030 91945;
0101949970999992000121715004-53090+073720FM-12+001399999V02099999999999999999N9999999N1+00221+99999100701ADDMA1999999100551MD1210161+9999REMSYN060AAXX  17154 94997 46/// ///// 10022 30055 40070 52016 91513;
0161949980999992000010407004-54480+158930FM-12+0006YMMQ V0203201N011810120019N0300001N1+00651+00291100311ADDAY151999AY221999GF108991081081008001999999MA1999999100211MD1710101+9999MW1501REMSYN072AAXX  04074 94998 41580 83223 10065 20029 30021 40031 57010 75052 888//;
0107949980999992000011319004-54480+158930FM-12+0006YMMQ V0203101N008219999999N9999999N1+00781+00721101061ADDMA1999999100961MD1710021+9999REMSYN066AAXX  13194 94998 4//// /3116 10078 20072 30096 40106 57002 7//44;
0161949980999992000012307004-54480+158930FM-12+0006YMMQ V0201801N006710120019N0300001N1+00341+00051100051ADDAY181999AY221999GF108991081081008001999999MA1999999099951MD1210341+9999MW1801REMSYN072AAXX  23074 94998 41580 81813 10034 20005 39995 40005 52034 78082 888//;
0184949980999992000012801004-54480+158930FM-12+0006YMMQ V0203301N014410012019N0004001N1+00771+00661098801ADDAY161999AY221999GF108991081051001501999999KA1999N+00631MA1999999098701MD1710331+9999MW1601REMSYN082AAXX  28014 94998 41204 83328 10077 20066 39870 49880 57033 76062 885// 333 20063;
0161949980999992000020307004-54480+158930FM-12+0006YMMQ V0202901N009310012019N0100001N1+00811+00701099471ADDAY151999AY221999GF108991081051001501999999MA1999999099371MD1710111+9999MW1501REMSYN072AAXX  03074 94998 41260 82918 10081 20070 39937 49947 57011 75052 885//;
0112949980999992000021416004-54480+158930FM-12+0006YMMQ V0203201N010319999999N9999999N1+00731+00551101431ADDAA199000021MA1999999101331MD1710071+9999REMSYN060AAXX  14164 94998 35/// /3220 10073 20055 30133 40143 57007;
0184949980999992000032602004-54480+158930FM-12+0006YMMQ V0201501N004110006019N0030001N1+00611+00521100611ADDAY151999AY221999GF108991081071000751999999KA1999N+00561MA1999999100511MD1710141+9999MW1501REMSYN082AAXX  26024 94998 41130 81508 10061 20052 30051 40061 57014 75052 887// 333 20056;
0101949980999992000040620004-54480+158930FM-12+0006YMMQ V0202701N010319999999N9999999N1+00471+00001099821ADDMA1999999099721MD1210401+9999REMSYN060AAXX  06204 94998 45/// /2720 10047 20000 39972 49982 52040;
0124949980999992000041217004-54480+158930FM-12+0006YMMQ V0202901N014419999999N9999999N1+00491+00301099681ADDAA106000591MA1999999099581MD1710081+9999REMSYN072AAXX  12174 94998 1//// /2928 10049 20030 39958 49968 57008 69941 72144;
0107949980999992000042220004-54480+158930FM-12+0006YMMQ V0203501N012919999999N9999999N1+00511+00391099141ADDMA1999999099041MD1710321+9999REMSYN066AAXX  22204 94998 4//// /3525 10051 20039 39904 49914 57032 74144;
0162949980999992000050423004-54480+158930FM-12+0006YMMQ V0203101N017510042019N0050001N1+00551+00361100131ADDAA124001091GF108991051071004501071999MA1999999100031MD1710131+9999MW1601REMSYN078AAXX  04234 94998 11450 83134 10055 20036 30003 40013 57013 60014 760// 8577/;
0178949980999992000050711004-54480+158930FM-12+0006YMMQ V0203001N006710021019N0100001N1+00481+00411100201ADDAA106002091AY121999AY221999GF108991081051002501999999MA1999999100101MD1210161+9999MW1021REMSYN078AAXX  07114 94998 11360 83013 10048 20041 30010 40020 52016 60021 70222 885//;
0178949980999992000052105004-54480+158930FM-12+0006YMMQ V0202801N006710300019N0300001N1+00331+00021097941ADDAA106000591AY121999AY221999GF108991031051002501011999MA1999999097841MD1210121+9999MW1501REMSYN078AAXX  21054 94998 11380 82813 10033 20002 39784 49794 52012 69961 75022 8351/;
0184949980999992000060502004-54480+158930FM-12+0006YMMQ V0203101N007710012019N0030001N1+00471+00351100591ADDAY121999AY221999GF108991081051001501999999KA1999N+00381MA1999999100491MD1810051+9999MW1101REMSYN082AAXX  05024 94998 41230 83115 10047 20035 30049 40059 58005 71022 885// 333 20038;
0161949980999992000061108004-54480+158930FM-12+0006YMMQ V0202501N003110075019N0250001N1-00151+99999102121ADDAY121999AY221999GF108991081051008001999999MA1999999102021MD1210171+9999MW1021REMSYN072AAXX  11084 94998 41575 82506 11015 2//// 30202 40212 52017 70222 885//;
0178949980999992000062405004-54480+158930FM-12+0006YMMQ V0203401N010810012019N0040001N1+00521+00451100441ADDAA106000791AY141999AY221999GF108991081051001501999999MA1999999100341MD1710061+9999MW1501REMSYN078AAXX  24054 94998 11240 83421 10052 20045 30034 40044 57006 69901 75042 885//;
0124949980999992000062617004-54480+158930FM-12+0006YMMQ V0203301N014419999999N9999999N1+00601+00531100841ADDAA106001091MA1999999100741MD1210171+9999REMSYN072AAXX  26174 94998 1//// /3328 10060 20053 30074 40084 52017 60011 74144;
0162949980999992000070223004-54480+158930FM-12+0006YMMQ V0203001N014910021019N0150001N1+00421+00301101941ADDAA124002091GF108991081061002501999999MA1999999101841MD1210061+9999MW1021REMSYN078AAXX  02234 94998 11365 83029 10042 20030 30184 40194 52006 60024 702// 886//;
0184949980999992000070414004-54480+158930FM-12+0006YMMQ V0203101N012310075019N0150001N1+00511+00411102261ADDAY121999AY221999GF108991081051008001999999KA1999M+00551MA1999999102161MD1210011+9999MW1021REMSYN082AAXX  04144 94998 41565 83124 10051 20041 30216 40226 52001 70222 885// 333 10055;
0107949980999992000072120004-54480+158930FM-12+0006YMMQ V0200101N013419999999N9999999N1+00681+00611098671ADDMA1999999098571MD1710081+9999REMSYN066AAXX  21204 94998 4//// /0126 10068 20061 39857 49867 57008 7//44;
0162949980999992000080323004-54480+158930FM-12+0006YMMQ V0202601N006710300019N0300001N1+00141-00521100431ADDAA124000591GF107991041051008001041999MA1999999100331MD1210191+9999MW1021REMSYN078AAXX  03234 94998 11580 72613 10014 21052 30033 40043 52019 69944 702// 8454/;
0107949980999992000080820004-54480+158930FM-12+0006YMMQ V0201501N008719999999N9999999N1+00321+00251099091ADDMA1999999098991MD1710321+9999REMSYN066AAXX  08204 94998 4//// /1517 10032 20025 39899 49909 57032 74144;
0178949980999992000081011004-54480+158930FM-12+0006YMMQ V0201601N021610012019N0005001N1+00001+00001096851ADDAA106004191AY171999AY221999GF108991081071001501999999MA1999999096751MD1710031+9999MW1681REMSYN078AAXX  10114 94998 11205 81642 10000 20000 39675 49685 57003 60041 76872 887//;
0178949980999992000101204004-54480+158930FM-12+0006YMMQ V0203301N016410012019N0020001N1+00671+00611099301ADDAA106000191AY151999AY221999GF108991081071001501999999MA1999999099201MD1710241+9999MW1501REMSYN078AAXX  12044 94998 11220 83332 10067 20061 39920 49930 57024 69921 75052 887//;
0161949980999992000101810004-54480+158930FM-12+0006YMMQ V0202901N012312200019N0400001N1+00471+00171101021ADDAY111999AY211999GF102991021011008001001001MA1999999100921MD1210311+9999MW1021REMSYN072AAXX  18104 94998 11582 22924 10047 20017 30092 40102 52031 70211 82100;
0184949980999992000101813004-54480+158930FM-12+0006YMMQ V0203101N011312200019N0400001N1+00501+00251101131ADDAY101999AY201999GF101991011011008001001001KA1999M+00701MA1999999101031MD1210111+9999MW1021REMSYN082AAXX  18134 94998 41582 13122 10050 20025 30103 40113 52011 70200 81100 333 10070;
0178949980999992000102710004-54480+158930FM-12+0006YMMQ V0202601N011310012019N0050001N1+00421+00291099251ADDAA106000791AY151999AY221999GF108991081071001501999999MA1999999099151MD1210611+9999MW1501REMSYN078AAXX  27104 94998 11250 82622 10042 20029 39915 49925 52061 69901 75052 887//;
0184949980999992000110901004-54480+158930FM-12+0006YMMQ V0203301N011310003019N0030001N1+00671+00601101721ADDAY141999AY221999GF108991081061000251999999KA1999N+00351MA1999999101621MD1710021+9999MW1101REMSYN082AAXX  09014 94998 41030 83322 10067 20060 30162 40172 57002 71042 886// 333 20035;
0191949980999992000111010004-54480+158930FM-12+0006YMMQ V0203201N006710021019N0150001N1+00651+00611102091ADDAA199000091AY121999AY221999GF107991071061002501999999MA1999999101991MD1210051+9999MW1021REMSYN072AAXX  10104 94998 31365 73213 10065 20061 30199 40209 52005 70222 876//;EQDQ01  00002PRCP99
0191949980999992000112810004-54480+158930FM-12+0006YMMQ V0202901N007710075019N0200001N1+00421+00191100581ADDAA199000091AY121999AY221999GF108991081051008001999999MA1999999100481MD1710051+9999MW1021REMSYN072AAXX  28104 94998 31570 82915 10042 20019 30048 40058 57005 70222 885//;EQDQ01  00002PRCP99
0101952040999992000012101004-17850+122270FM-12+004299999V0200101N003619999999N9999999N1+03051+99999999999ADDAA199000091KA1999N+02531REMSYN046AAXX  21014 95204 35/// /0107 10305 333 20253;EQDQ01  00002PRCP99
0094952040999992000012213004-17850+122270FM-12+004299999V0200501N002119999999N9999999N1+02611+99999999999ADDAA106000591KA1999M+03331REMSYN058AAXX  22134 95204 1//// /0504 10261 69941 7//44 333 10333;
0045952040999992000012716004-17850+122270FM-12+004299999V0209999C000019999999N9999999N1+02641+99999999999REMSYN036AAXX  27164 95204 45/// /0000 10264;
0078952040999992000021607004-17850+122270FM-12+004299999V0202701N004119999999N9999999N1+03111+99999999999ADDAA199000091REMSYN036AAXX  16074 95204 35/// /2708 10311;EQDQ01  00002PRCP99
0045952040999992000022004004-17850+122270FM-12+004299999V0203101N005719999999N9999999N1+02941+99999999999REMSYN036AAXX  20044 95204 45/// /3111 10294;
0045952040999992000022410004-17850+122270FM-12+004299999V0202801N004119999999N9999999N1+02931+99999999999REMSYN036AAXX  24104 95204 45/// /2808 10293;
0088952040999992000030101004-17850+122270FM-12+004299999V0200401N003619999999N9999999N1+02981+99999999999ADDAA124004191KA1999N+02441REMSYN052AAXX  01014 95204 15/// /0407 10298 60044 333 20244;
0045952040999992000030210004-17850+122270FM-12+004299999V0203301N003619999999N9999999N1+02841+99999999999REMSYN036AAXX  02104 95204 45/// /3307 10284;
0051952040999992000030504004-17850+122270FM-12+004299999V0203601N007719999999N9999999N1+02611+99999999999REMSYN042AAXX  05044 95204 4//// /3615 10261 74244;
0051952040999992000031822004-17850+122270FM-12+004299999V0201001N001519999999N9999999N1+02431+99999999999REMSYN042AAXX  18224 95204 4//// /1003 10243 72144;
0101952040999992000032513004-17850+122270FM-12+004299999V0202601N000519999999N9999999N1+02581+99999999999ADDAA199000091KA1999M+03311REMSYN046AAXX  25134 95204 35/// /2601 10258 333 10331;EQDQ01  00002PRCP99
0078952040999992000033019004-17850+122270FM-12+004299999V0201101N002119999999N9999999N1+02601+99999999999ADDAA199000091REMSYN036AAXX  30194 95204 35/// /1104 10260;EQDQ01  00002PRCP99
0101952040999992000040101004-17850+122270FM-12+004299999V0201201N002119999999N9999999N1+02941+99999999999ADDAA199000091KA1999N+02361REMSYN046AAXX  01014 95204 35/// /1204 10294 333 20236;EQDQ01  00002PRCP99
0094952040999992000042001004-17850+122270FM-12+004299999V0202501N004619999999N9999999N1+02731+99999999999ADDAA124142091KA1999N+02261REMSYN058AAXX  20014 95204 1//// /2509 10273 61424 7//44 333 20226;
0078952040999992000042107004-17850+122270FM-12+004299999V0202601N003619999999N9999999N1+03131+99999999999ADDAA199000091REMSYN036AAXX  21074 95204 35/// /2607 10313;EQDQ01  00002PRCP99
0101952040999992000042113004-17850+122270FM-12+004299999V0201201N002119999999N9999999N1+02571+99999999999ADDAA199000091KA1999M+03161REMSYN046AAXX  21134 95204 35/// /1204 10257 333 10316;EQDQ01  00002PRCP99
0101952040999992000043001004-17850+122270FM-12+004299999V0201101N005719999999N9999999N1+02581+99999999999ADDAA199000091KA1999N+01941REMSYN046AAXX  30014 95204 35/// /1111 10258 333 20194;EQDQ01  00002PRCP99
0045952040999992000060116004-17850+122270FM-12+004299999V0201101N003619999999N9999999N1+01291+99999999999REMSYN036AAXX  01164 95204 45/// /1107 10129;
0045952040999992000060404004-17850+122270FM-12+004299999V0201101N005719999999N9999999N1+02421+99999999999REMSYN036AAXX  04044 95204 45/// /1111 10242;
0045952040999992000061216004-17850+122270FM-12+004299999V0201301N003619999999N9999999N1+01141+99999999999REMSYN036AAXX  12164 95204 45/// /1307 10114;
0045952040999992000072410004-17840+122270FM-12+004299999V0202901N001519999999N9999999N1+02391+99999999999REMSYN036AAXX  24104 95204 45/// /2903 10239;
0078952040999992000081019004-17840+122270FM-12+004299999V0201101N003619999999N9999999N1+01371+99999999999ADDAA199000091REMSYN036AAXX  10194 95204 35/// /1107 10137;EQDQ01  00002PRCP99
0045952040999992000081304004-17840+122270FM-12+004299999V0202001N004119999999N9999999N1+03301+99999999999REMSYN036AAXX  13044 95204 45/// /2008 10330;
0078952040999992000081307004-17840+122270FM-12+004299999V0202501N005719999999N9999999N1+03051+99999999999ADDAA199000091REMSYN036AAXX  13074 95204 35/// /2511 10305;EQDQ01  00002PRCP99
0051952040999992000081622004-17840+122270FM-12+004299999V0203401N002619999999N9999999N1+02041+99999999999REMSYN042AAXX  16224 95204 4//// /3405 10204 72144;
0045952040999992000083104004-17840+122270FM-12+004299999V0202601N004619999999N9999999N1+02681+99999999999REMSYN036AAXX  31044 95204 45/// /2609 10268;
0045952040999992000090216004-17840+122270FM-12+004299999V0203301N002619999999N9999999N1+01791+99999999999REMSYN036AAXX  02164 95204 45/// /3305 10179;
0101952040999992000091001004-17840+122270FM-12+004299999V0201001N006219999999N9999999N1+02831+99999999999ADDAA199000091KA1999N+01711REMSYN046AAXX  10014 95204 35/// /1012 10283 333 20171;EQDQ01  00002PRCP99
0045952040999992000102922004-17840+122270FM-12+004299999V0202501N002619999999N9999999N1+02391+99999999999REMSYN036AAXX  29224 95204 45/// /2505 10239;
0045952040999992000103116004-17840+122270FM-12+004299999V0202901N003619999999N9999999N1+02561+99999999999REMSYN036AAXX  31164 95204 45/// /2907 10256;
0045952040999992000111910004-17840+122270FM-12+004299999V0203001N005119999999N9999999N1+02731+99999999999REMSYN036AAXX  19104 95204 45/// /3010 10273;
0045952040999992000112910004-17840+122270FM-12+004299999V0202901N004619999999N9999999N1+02851+99999999999REMSYN036AAXX  29104 95204 45/// /2909 10285;
0051952040999992000120604004-17840+122270FM-12+004299999V0201101N007219999999N9999999N1+03121+99999999999REMSYN042AAXX  06044 95204 4//// /1114 10312 7//44;
0071952040999992000120819004-17840+122270FM-12+004299999V0203201N010819999999N9999999N1+02481+99999999999ADDAA106016091REMSYN048AAXX  08194 95204 1//// /3221 10248 60161 74144;
0045952040999992000121716004-17840+122270FM-12+004299999V0202601N004119999999N9999999N1+02701+99999999999REMSYN036AAXX  17164 95204 45/// /2608 10270;
0107952050999992000011222004-17370+123670FM-12+000799999V0201101N004119999999N9999999N1+02401+02321100251ADDMA1999999100181MD1210091+9999REMSYN066AAXX  12224 95205 4//// /1108 10240 20232 30018 40025 52009 72144;
0085952050999992000011700004-17370+123670FM-12+000799999V0201901N003119999999N9999999N1+02871+02261100871ADDMA1999999100801REMSYN058    AAXX  17004 95205 46/// /1906 10287 20226 30080 40087;
0107952050999992000012222004-17370+123670FM-12+000799999V0200701N003619999999N9999999N1+02531+02441100311ADDMA1999999100241MD1210021+9999REMSYN066AAXX  22224 95205 4//// /0707 10253 20244 30024 40031 52002 7//44;
0101952050999992000020422004-17370+123670FM-12+000799999V0201601N006219999999N9999999N1+02631+02101100831ADDMA1999999100761MD1210211+9999REMSYN060AAXX  04224 95205 45/// /1612 10263 20210 30076 40083 52021;
0081952050999992000020803004-17370+123670FM-12+000799999V0203001N005119999999N9999999N1+03121+02591100431ADDMA1999999100351REMSYN054AAXX  08034 95205 46/// /3010 10312 20259 30035 40043;
0101952050999992000021016004-17370+123670FM-12+000799999V0203101N006219999999N9999999N1+02851+02421100401ADDMA1999999100331MD1710071+9999REMSYN060AAXX  10164 95205 45/// /3112 10285 20242 30033 40040 57007;
0141952050999992000031501004-17370+123670FM-12+000799999V0201101N005719999999N9999999N1+02841+02401100431ADDAA124023191KA1999N+02421MA1999999100361MD1210061+9999REMSYN076AAXX  15014 95205 15/// /1111 10284 20240 30036 40043 52006 60234 333 20242;
0131952050999992000031719004-17370+123670FM-12+000799999V0200501N001519999999N9999999N1+02561+02491100671ADDAA199000091MA1999999100601MD1710031+9999REMSYN060AAXX  17194 95205 35/// /0503 10256 20249 30060 40067 57003;EQDQ01  00002PRCP99
0101952050999992000032022004-17370+123670FM-12+000799999V0202501N001019999999N9999999N1+02661+02501100871ADDMA1999999100801MD1210011+9999REMSYN060AAXX  20224 95205 45/// /2502 10266 20250 30080 40087 52001;
0131952050999992000032919004-17370+123670FM-12+000799999V0201701N003619999999N9999999N1+02631+02311100861ADDAA199000091MA1999999100791MD1710041+9999REMSYN060AAXX  29194 95205 35/// /1707 10263 20231 30079 40086 57004;EQDQ01  00002PRCP99
0131952050999992000033019004-17370+123670FM-12+000799999V0209999C000019999999N9999999N1+02491+02331100761ADDAA199000091MA1999999100691MD1710131+9999REMSYN060AAXX  30194 95205 35/// /0000 10249 20233 30069 40076 57013;EQDQ01  00002PRCP99
0081952050999992000041303004-17370+123670FM-12+000799999V0201801N003119999999N9999999N1+03281+02311100891ADDMA1999999100811REMSYN054AAXX  13034 95205 46/// /1806 10328 20231 30081 40089;
0107952050999992000041904004-17370+123670FM-12+000799999V0200401N006719999999N9999999N1+02951+02421100591ADDMA1999999100511MD1710231+9999REMSYN066AAXX  19044 95205 4//// /0413 10295 20242 30051 40059 57023 7//44;
0081952050999992000042112004-17370+123670FM-12+000799999V0203601N001519999999N9999999N1+02871+02561100941ADDMA1999999100861REMSYN054AAXX  21124 95205 46/// /3603 10287 20256 30086 40094;
0081952050999992000042721004-17370+123670FM-12+000799999V0201801N000519999999N9999999N1+02091+01871100981ADDMA1999999100901REMSYN054AAXX  27214 95205 46/// /1801 10209 20187 30090 40098;
0081952050999992000050718004-17370+123670FM-12+000799999V0201601N002619999999N9999999N1+01591+01151101451ADDMA1999999101371REMSYN054AAXX  07184 95205 46/// /1605 10159 20115 30137 40145;
0081952050999992000050900004-17370+123670FM-12+000799999V0201201N001019999999N9999999N1+02311+01431101391ADDMA1999999101311REMSYN054AAXX  09004 95205 46/// /1202 10231 20143 30131 40139;
0081952050999992000051309004-17370+123670FM-12+000799999V0201401N004619999999N9999999N1+02981+01151101171ADDMA1999999101091REMSYN054AAXX  13094 95205 46/// /1409 10298 20115 30109 40117;
0081952050999992000051609004-17370+123670FM-12+000799999V0201401N006719999999N9999999N1+02681+00481101441ADDMA1999999101361REMSYN054AAXX  16094 95205 46/// /1413 10268 20048 30136 40144;
0081952050999992000052012004-17370+123670FM-12+000799999V0201501N003119999999N9999999N1+02481+01151101651ADDMA1999999101571REMSYN054AAXX  20124 95205 46/// /1506 10248 20115 30157 40165;
0081952050999992000052206004-17370+123670FM-12+000799999V0201301N005719999999N9999999N1+02891+01361101341ADDMA1999999101261REMSYN054AAXX  22064 95205 46/// /1311 10289 20136 30126 40134;
0131952050999992000060119004-17370+123670FM-12+000799999V0201201N004619999999N9999999N1+01311-00211101581ADDAA199000091MA1999999101501MD1710031+9999REMSYN060AAXX  01194 95205 35/// /1209 10131 21021 30150 40158 57003;EQDQ01  00002PRCP99
0081952050999992000060400004-17370+123670FM-12+000799999V0201301N003119999999N9999999N1+01591+00381101701ADDMA1999999101621REMSYN054AAXX  04004 95205 46/// /1306 10159 20038 30162 40170;
0081952050999992000061209004-17370+123670FM-12+000799999V0201301N006219999999N9999999N1+02281-00251101731ADDMA1999999101651REMSYN054AAXX  12094 95205 46/// /1312 10228 21025 30165 40173;
0101952050999992000061510004-17360+123670FM-12+000799999V0201401N003619999999N9999999N1+02381+00971101641ADDMA1999999101561MD1210121+9999REMSYN060AAXX  15104 95205 45/// /1407 10238 20097 30156 40164 52012;
0154952050999992000071313004-17360+123670FM-12+000799999V0203301N002619999999N9999999N1+02261+01871101501ADDAA199000091KA1999M+03121MA1999999101421MD1210211+9999REMSYN070AAXX  13134 95205 35/// /3305 10226 20187 30142 40150 52021 333 10312;EQDQ01  00002PRCP99
0154952050999992000071713004-17360+123670FM-12+000799999V0203001N001519999999N9999999N1+02161+01561101721ADDAA199000091KA1999M+03191MA1999999101641MD1210111+9999REMSYN070AAXX  17134 95205 35/// /3003 10216 20156 30164 40172 52011 333 10319;EQDQ01  00002PRCP99
0081952050999992000080103004-17360+123670FM-12+000799999V0201301N003119999999N9999999N1+02921+00201101491ADDMA1999999101411REMSYN054AAXX  01034 95205 46/// /1306 10292 20020 30141 40149;
0081952050999992000080215004-17360+123670FM-12+000799999V0202301N003619999999N9999999N1+02071+01111101511ADDMA1999999101431REMSYN054AAXX  02154 95205 46/// /2307 10207 20111 30143 40151;
0081952050999992000080915004-17360+123670FM-12+000799999V0201401N003119999999N9999999N1+01891+00201101371ADDMA1999999101291REMSYN054AAXX  09154 95205 46/// /1406 10189 20020 30129 40137;
0131952050999992000083107004-17360+123670FM-12+000799999V0202801N003619999999N9999999N1+03321+01191100991ADDAA199000091MA1999999100911MD1710201+9999REMSYN060AAXX  31074 95205 35/// /2807 10332 20119 30091 40099 57020;EQDQ01  00002PRCP99
0081952050999992000090621004-17360+123670FM-12+000799999V0209999C000019999999N9999999N1+01931+01751101231ADDMA1999999101151REMSYN054AAXX  06214 95205 46/// /0000 10193 20175 30115 40123;
0101952050999992000100210004-17360+123670FM-12+000799999V0203201N005119999999N9999999N1+02881+02231100871ADDMA1999999100801MD1210071+9999REMSYN060AAXX  02104 95205 45/// /3210 10288 20223 30080 40087 52007;
0154952050999992000102213004-17360+123670FM-12+000799999V0202501N004619999999N9999999N1+02691+01231100791ADDAA199000091KA1999M+03561MA1999999100721MD1210271+9999REMSYN070AAXX  22134 95205 35/// /2509 10269 20123 30072 40079 52027 333 10356;EQDQ01  00002PRCP99
0101952050999992000102404004-17360+123670FM-12+000799999V0203301N004619999999N9999999N1+03301+00871100911ADDMA1999999100841MD1710241+9999REMSYN060AAXX  24044 95205 45/// /3309 10330 20087 30084 40091 57024;
0131952050999992000110207004-17360+123670FM-12+000799999V0203301N008219999999N9999999N1+03401+01841100641ADDAA199000091MA1999999100571MD1710151+9999REMSYN060AAXX  02074 95205 35/// /3316 10340 20184 30057 40064 57015;EQDQ01  00002PRCP99
0081952050999992000111500004-17360+123670FM-12+000799999V0202701N004119999999N9999999N1+02811+01851100851ADDMA1999999100781REMSYN054AAXX  15004 95205 46/// /2708 10281 20185 30078 40085;
0081952050999992000112409004-17360+123670FM-12+000799999V0203301N006719999999N9999999N1+03301+01961100371ADDMA1999999100301REMSYN054AAXX  24094 95205 46/// /3313 10330 20196 30030 40037;
0081952050999992000112900004-17360+123670FM-12+000799999V0202901N005719999999N9999999N1+02951+02311100441ADDMA1999999100371REMSYN054AAXX  29004 95205 46/// /2911 10295 20231 30037 40044;
0154952050999992000120313004-17360+123670FM-12+000799999V0203101N004619999999N9999999N1+03271+02131100221ADDAA199000091KA1999M+04351MA1999999100151MD1210221+9999REMSYN070AAXX  03134 95205 35/// /3109 10327 20213 30015 40022 52022 333 10435;EQDQ01  00002PRCP99
0131952050999992000120407004-17360+123670FM-12+000799999V0201101N010319999999N9999999N1+03971+01211099821ADDAA199000091MA1999999099751MD1710211+9999REMSYN060AAXX  04074 95205 35/// /1120 10397 20121 39975 49982 57021;EQDQ01  00002PRCP99
0081952050999992000120706004-17360+123670FM-12+000799999V0200701N006219999999N9999999N1+02551+02511099581ADDMA1999999099511REMSYN054AAXX  07064 95205 46/// /0712 10255 20251 39951 49958;
0101952050999992000121122004-17360+123670FM-12+000799999V0202901N004119999999N9999999N1+02611+02241100451ADDMA1999999100381MD1210101+9999REMSYN060AAXX  11224 95205 45/// /2908 10261 20224 30038 40045 52010;
0081952050999992000121209004-17360+123670FM-12+000799999V0202701N007719999999N9999999N1+02841+02211100211ADDMA1999999100141REMSYN054AAXX  12094 95205 46/// /2715 10284 20221 30014 40021;
0131952050999992000121519004-17360+123670FM-12+000799999V0202501N004119999999N9999999N1+02621+02251100661ADDAA199000091MA1999999100591MD1210091+9999REMSYN060AAXX  15194 95205 35/// /2508 10262 20225 30059 40066 52009;EQDQ01  00002PRCP99
0126952870999992000050806004-16430+145980FM-12+000299999V0201401N010312200019N0200001N1+02661+02351999999ADDAY111061AY211061GF104991041031999999001001MW1051REMSYN066AAXX  08064 95287 41/98 41420 10266 20235 3//// 4//// 70511 84300;
0126952870999992000072321004-16430+145970FM-12+000299999V0201301N007719999999N0200001N1+01951+01741999999ADDAY101031AY201031GF107991051081999999041001MW1021REMSYN066AAXX  23214 95287 41/98 71315 10195 20174 3//// 4//// 70200 85840;
0126952870999992000081906004-16430+145970FM-12+000299999V0201301N004112200019N0200001N1+02371+01821999999ADDAY101061AY201061GF101991011011999999001001MW1051REMSYN066AAXX  19064 95287 41/98 11308 10237 20182 3//// 4//// 70500 81100;
0126952870999992000112121004-16430+145970FM-12+000299999V0203301N005719999999N0200001N1+02801+02661999999ADDAY121031AY221031GF105991011001999999081061MW1051REMSYN066AAXX  21214 95287 41/98 53311 10280 20266 3//// 4//// 70522 81086;
0126952870999992000121606004-16430+145970FM-12+000299999V0200101N006712200019N0200001N1+02821+02521999999ADDAY111061AY211061GF104991041021999999001061MW1051REMSYN066AAXX  16064 95287 41/98 40113 10282 20252 3//// 4//// 70511 84206;
0125952880999992000020812004-15500+147120FM-12+000099999V0201001N013919999999N9999999N1+02761+99999100981ADDAA199000091MA1999999100831MD1210101+9999REMSYN054AAXX  08124 95288 35/// /1027 10276 30083 40098 52010;EQDQ01  00002PRCP99
0125952880999992000021100004-15500+147120FM-12+000099999V0200601N003619999999N9999999N1+02821+99999100971ADDAA199000091MA1999999100821MD1210091+9999REMSYN054AAXX  11004 95288 35/// /0607 10282 30082 40097 52009;EQDQ01  00002PRCP99
0125952880999992000021818004-15500+147120FM-12+000099999V0200901N005719999999N9999999N1+02841+99999100901ADDAA199000091MA1999999100751MD1710191+9999REMSYN054AAXX  18184 95288 35/// /0911 10284 30075 40090 57019;EQDQ01  00002PRCP99
0125952880999992000022815004-15500+147120FM-12+000099999V0200201N004119999999N9999999N1+02541+99999100861ADDAA199000091MA1999999100711MD1710131+9999REMSYN054AAXX  28154 95288 35/// /0208 10254 30071 40086 57013;EQDQ01  00002PRCP99
0125952880999992000031109004-15500+147120FM-12+000099999V0201301N007719999999N9999999N1+02791+99999100831ADDAA199000091MA1999999100681MD1210211+9999REMSYN054AAXX  11094 95288 35/// /1315 10279 30068 40083 52021;EQDQ01  00002PRCP99
0125952880999992000032321004-15500+147120FM-12+000099999V0201701N003119999999N9999999N1+02711+99999100951ADDAA199000091MA1999999100801MD1210061+9999REMSYN054AAXX  23214 95288 35/// /1706 10271 30080 40095 52006;EQDQ01  00002PRCP99
0125952880999992000041618004-15500+147120FM-12+000099999V0201501N006719999999N9999999N1+02681+99999100991ADDAA199000091MA1999999100841MD1710191+9999REMSYN054AAXX  16184 95288 35/// /1513 10268 30084 40099 57019;EQDQ01  00002PRCP99
0125952880999992000041812004-15500+147120FM-12+000099999V0201101N004619999999N9999999N1+02751+99999101321ADDAA199000091MA1999999101171MD1210161+9999REMSYN054AAXX  18124 95288 35/// /1109 10275 30117 40132 52016;EQDQ01  00002PRCP99
0125952880999992000051021004-15500+147120FM-12+000099999V0201601N010819999999N9999999N1+02591+99999101341ADDAA199000091MA1999999101191MD1210101+9999REMSYN054AAXX  10214 95288 35/// /1621 10259 30119 40134 52010;EQDQ01  00002PRCP99
0125952880999992000051103004-15500+147120FM-12+000099999V0201601N008719999999N9999999N1+02621+99999101311ADDAA199000091MA1999999101161MD1710141+9999REMSYN054AAXX  11034 95288 35/// /1617 10262 30116 40131 57014;EQDQ01  00002PRCP99
0125952880999992000052121004-15500+147120FM-12+000099999V0201601N010819999999N9999999N1+02601+99999101411ADDAA199000091MA1999999101261MD1210081+9999REMSYN054AAXX  21214 95288 35/// /1621 10260 30126 40141 52008;EQDQ01  00002PRCP99
0125952880999992000052509004-15500+147120FM-12+000099999V0201701N006219999999N9999999N1+02611+99999101151ADDAA199000091MA1999999101001MD1210091+9999REMSYN054AAXX  25094 95288 35/// /1712 10261 30100 40115 52009;EQDQ01  00002PRCP99
0125952880999992000052912004-15500+147120FM-12+000099999V0201601N009819999999N9999999N1+02351+99999101511ADDAA199000091MA1999999101361MD1210191+9999REMSYN054AAXX  29124 95288 35/// /1619 10235 30136 40151 52019;EQDQ01  00002PRCP99
0125952880999992000060206004-15500+147120FM-12+000099999V0201701N009819999999N9999999N1+02171+99999101261ADDAA199000091MA1999999101111MD1710101+9999REMSYN054AAXX  02064 95288 35/// /1719 10217 30111 40126 57010;EQDQ01  00002PRCP99
0125952880999992000060821004-15500+147120FM-12+000099999V0201601N012319999999N9999999N1+02301+99999101431ADDAA199000091MA1999999101281MD1410001+9999REMSYN054AAXX  08214 95288 35/// /1624 10230 30128 40143 54000;EQDQ01  00002PRCP99
0125952880999992000062306004-15500+147120FM-12+000099999V0201301N010819999999N9999999N1+02481+99999101291ADDAA199000091MA1999999101141MD1710081+9999REMSYN054AAXX  23064 95288 35/// /1321 10248 30114 40129 57008;EQDQ01  00002PRCP99
0125952880999992000071315004-15500+147120FM-12+000099999V0201301N005119999999N9999999N1+02241+99999101471ADDAA199000091MA1999999101321MD1710061+9999REMSYN054AAXX  13154 95288 35/// /1310 10224 30132 40147 57006;EQDQ01  00002PRCP99
0125952880999992000072400004-15500+147120FM-12+000099999V0201301N009319999999N9999999N1+02351+99999101771ADDAA199000091MA1999999101621MD1210061+9999REMSYN054AAXX  24004 95288 35/// /1318 10235 30162 40177 52006;EQDQ01  00002PRCP99
0125952880999992000081815004-15500+147120FM-12+000099999V0201301N010319999999N9999999N1+02301+99999101371ADDAA199000091MA1999999101221MD1710051+9999REMSYN054AAXX  18154 95288 35/// /1320 10230 30122 40137 57005;EQDQ01  00002PRCP99
0125952880999992000090206004-15500+147120FM-12+000099999V0201101N002119999999N9999999N1+02471+99999101171ADDAA199000091MA1999999101021MD1710081+9999REMSYN054AAXX  02064 95288 35/// /1104 10247 30102 40117 57008;EQDQ01  00002PRCP99
0125952880999992000092218004-15500+147120FM-12+000099999V0201401N010819999999N9999999N1+02381+99999101431ADDAA199000091MA1999999101281MD1710081+9999REMSYN054AAXX  22184 95288 35/// /1421 10238 30128 40143 57008;EQDQ01  00002PRCP99
0125952880999992000100412004-15500+147120FM-12+000099999V0201201N013419999999N9999999N1+02561+99999101431ADDAA199000091MA1999999101281MD1210111+9999REMSYN054AAXX  04124 95288 35/// /1226 10256 30128 40143 52011;EQDQ01  00002PRCP99
0125952880999992000100506004-15500+147120FM-12+000099999V0201301N011319999999N9999999N1+02571+99999101261ADDAA199000091MA1999999101111MD1710091+9999REMSYN054AAXX  05064 95288 35/// /1322 10257 30111 40126 57009;EQDQ01  00002PRCP99
0125952880999992000102718004-15500+147120FM-12+000099999V0200501N003619999999N9999999N1+02491+99999100941ADDAA199000091MA1999999100791MD1410001+9999REMSYN054AAXX  27184 95288 35/// /0507 10249 30079 40094 54000;EQDQ01  00002PRCP99
0125952880999992000103106004-15500+147120FM-12+000099999V0203501N004619999999N9999999N1+02681+99999100631ADDAA199000091MA1999999100481MD1710151+9999REMSYN054AAXX  31064 95288 35/// /3509 10268 30048 40063 57015;EQDQ01  00002PRCP99
0125952880999992000110500004-15500+147120FM-12+000099999V0200701N003619999999N9999999N1+02711+99999101121ADDAA199000091MA1999999100971MD1210051+9999REMSYN054AAXX  05004 95288 35/// /0707 10271 30097 40112 52005;EQDQ01  00002PRCP99
0125952880999992000110515004-15500+147120FM-12+000099999V0201301N002119999999N9999999N1+02671+99999100921ADDAA199000091MA1999999100771MD1710141+9999REMSYN054AAXX  05154 95288 35/// /1304 10267 30077 40092 57014;EQDQ01  00002PRCP99
0125952880999992000111509004-15500+147120FM-12+000099999V0201001N005719999999N9999999N1+02661+99999100751ADDAA199000091MA1999999100601MD1210131+9999REMSYN054AAXX  15094 95288 35/// /1011 10266 30060 40075 52013;EQDQ01  00002PRCP99
0125952880999992000111515004-15500+147120FM-12+000099999V0200901N008719999999N9999999N1+02691+99999100741ADDAA199000091MA1999999100591MD1710121+9999REMSYN054AAXX  15154 95288 35/// /0917 10269 30059 40074 57012;EQDQ01  00002PRCP99
0125952880999992000111709004-15500+147120FM-12+000099999V0201301N008219999999N9999999N1+02741+99999100681ADDAA199000091MA1999999100531MD1210101+9999REMSYN054AAXX  17094 95288 35/// /1316 10274 30053 40068 52010;EQDQ01  00002PRCP99
0125952880999992000122009004-15500+147120FM-12+000099999V0201001N010319999999N9999999N1+02551+99999100751ADDAA199000091MA1999999100601MD1210141+9999REMSYN054AAXX  20094 95288 35/// /1020 10255 30060 40075 52014;EQDQ01  00002PRCP99
0099952890999992000011708004-16770+145970FM-12+000399999V0201301N009819999999N9999999N1+02591+99999100911ADDMA1999999100881MD1210081+9999REMSYN058    AAXX  17084 95289 45/// /1319 10259 30088 40091 52008;
0118952890999992000030814004-16770+145970FM-12+000399999V0201101N009319999999N9999999N1+02721+99999100961ADDKA1999M+03061MA1999999100931MD1710031+9999REMSYN064AAXX  08144 95289 45/// /1118 10272 30093 40096 57003 333 10306;
0095952890999992000031720004-16770+145970FM-12+000399999V0201301N010319999999N9999999N1+02511+99999101131ADDMA1999999101101MD1210021+9999REMSYN054AAXX  17204 95289 45/// /1320 10251 30110 40113 52002;
0125952890999992000033005004-16770+145970FM-12+000399999V0201501N012919999999N9999999N1+02961+99999100811ADDAA199000091MA1999999100781MD1710211+9999REMSYN054AAXX  30054 95289 35/// /1525 10296 30078 40081 57021;EQDQ01  00002PRCP99
0125952890999992000052111004-16770+145970FM-12+000399999V0201601N013419999999N9999999N1+02271+99999101701ADDAA199000091MA1999999101671MD1210151+9999REMSYN054AAXX  21114 95289 35/// /1626 10227 30167 40170 52015;EQDQ01  00002PRCP99
0125952890999992000052911004-16770+145970FM-12+000399999V0201501N014919999999N9999999N1+02111+99999101661ADDAA199000091MA1999999101631MD1210141+9999REMSYN054AAXX  29114 95289 35/// /1529 10211 30163 40166 52014;EQDQ01  00002PRCP99
0095952890999992000060620004-16770+145970FM-12+000399999V0201601N017019999999N9999999N1+02121+99999101701ADDMA1999999101671MD1210021+9999REMSYN054AAXX  06204 95289 45/// /1633 10212 30167 40170 52002;
0095952890999992000062620004-16760+145960FM-12+000399999V0201601N008719999999N9999999N1+02111+99999101351ADDMA1999999101321MD1210051+9999REMSYN054AAXX  26204 95289 45/// /1617 10211 30132 40135 52005;
0095952890999992000071008004-16760+145960FM-12+000399999V0201301N005119999999N9999999N1+02171+99999101371ADDMA1999999101341MD1210061+9999REMSYN054AAXX  10084 95289 45/// /1310 10217 30134 40137 52006;
0118952890999992000071402004-16760+145960FM-12+000399999V0202001N002119999999N9999999N1+02171+99999101701ADDKA1999N+01561MA1999999101671MD1710061+9999REMSYN064AAXX  14024 95289 45/// /2004 10217 30167 40170 57006 333 20156;
0125952890999992000072723004-16760+145960FM-12+000399999V0201601N016419999999N9999999N1+01971+99999101901ADDAA199000091MA1999999101871MD1210231+9999REMSYN054AAXX  27234 95289 35/// /1632 10197 30187 40190 52023;EQDQ01  00002PRCP99
0118952890999992000080702004-16760+145960FM-12+000399999V0201301N008719999999N9999999N1+02281+99999101701ADDKA1999N+02061MA1999999101671MD1710111+9999REMSYN064AAXX  07024 95289 45/// /1317 10228 30167 40170 57011 333 20206;
0125952890999992000090423004-16760+145960FM-12+000399999V0201601N005119999999N9999999N1+02321+99999101601ADDAA199000091MA1999999101571MD1210141+9999REMSYN054AAXX  04234 95289 35/// /1610 10232 30157 40160 52014;EQDQ01  00002PRCP99
0095952890999992000090620004-16760+145960FM-12+000399999V0200301N001019999999N9999999N1+02171+99999101421ADDMA1999999101391MD1210161+9999REMSYN054AAXX  06204 95289 45/// /0302 10217 30139 40142 52016;
0118952890999992000092314004-16760+145960FM-12+000399999V0201401N011819999999N9999999N1+02311+99999101691ADDKA1999M+02961MA1999999101661MD1710071+9999REMSYN064AAXX  23144 95289 45/// /1423 10231 30166 40169 57007 333 10296;
0118952890999992000092814004-16760+145960FM-12+000399999V0201401N006719999999N9999999N1+02301+99999101631ADDKA1999M+02961MA1999999101601MD1710011+9999REMSYN064AAXX  28144 95289 45/// /1413 10230 30160 40163 57001 333 10296;
0118952890999992000101602004-16760+145960FM-12+000399999V0201501N008719999999N9999999N1+03021+99999101281ADDKA1999N+02501MA1999999101251MD1710111+9999REMSYN064AAXX  16024 95289 45/// /1517 10302 30125 40128 57011 333 20250;
0125952890999992000102111004-16760+145960FM-12+000399999V0201201N007719999999N9999999N1+02501+99999101171ADDAA199000091MA1999999101141MD1210181+9999REMSYN054AAXX  21114 95289 35/// /1215 10250 30114 40117 52018;EQDQ01  00002PRCP99
0125952890999992000102817004-16760+145960FM-12+000399999V0203101N003619999999N9999999N1+02471+99999101001ADDAA199000091MA1999999100971MD1710041+9999REMSYN054AAXX  28174 95289 35/// /3107 10247 30097 40100 57004;EQDQ01  00002PRCP99
0125952890999992000103017004-16760+145960FM-12+000399999V0203401N002619999999N9999999N1+02431+99999100741ADDAA199000091MA1999999100711MD1710091+9999REMSYN054AAXX  30174 95289 35/// /3405 10243 30071 40074 57009;EQDQ01  00002PRCP99
0125952890999992000112217004-16760+145960FM-12+000399999V0202901N005719999999N9999999N1+02561+99999100471ADDAA199000091MA1999999100441MD1710101+9999REMSYN054AAXX  22174 95289 35/// /2911 10256 30044 40047 57010;EQDQ01  00002PRCP99
0125952890999992000120623004-16760+145960FM-12+000399999V0201201N008719999999N9999999N1+02561+99999101091ADDAA199000091MA1999999101061MD1210221+9999REMSYN054AAXX  06234 95289 35/// /1217 10256 30106 40109 52022;EQDQ01  00002PRCP99
0095952890999992000123108004-16760+145960FM-12+000399999V0201301N007219999999N9999999N1+02731+99999100911ADDMA1999999100881MD1210031+9999REMSYN054AAXX  31084 95289 45/// /1314 10273 30088 40091 52003;
0126952900999992000012906004-16850+146230FM-12+000299999V0200301N002610120019N0200001N1+02941+02391999999ADDAY111061AY211061GF106991051081008001031001MW1021REMSYN066AAXX  29064 95290 41598 60305 10294 20239 3//// 4//// 70211 85830;
0126952900999992000021121004-16850+146230FM-12+000299999V0201301N003119999999N0200001N1+02701+02351999999ADDAY181031AY281031GF108991051081999999091081MW1251REMSYN066AAXX  11214 95290 41/98 81306 10270 20235 3//// 4//// 72588 85898;
0126952900999992000022121004-16850+146230FM-12+000299999V0202101N001519999999N0500001N1+02901+02241999999ADDAY121031AY221031GF108991011011999999041999MW1021REMSYN066AAXX  21214 95290 41/99 82103 10290 20224 3//// 4//// 70222 8114/;
0126952900999992000030706004-16850+146230FM-12+000299999V0200901N003112200019N0500001N1+02951+02371999999ADDAY101061AY201061GF101991011021999999001041MW1021REMSYN066AAXX  07064 95290 41/99 10906 10295 20237 3//// 4//// 70200 81204;
0126952900999992000060806004-16850+146230FM-12+000299999V0201701N015419999999N0200001N1+02151+01991999999ADDAY161061AY261061GF108991031071999999021999MW1601REMSYN066AAXX  08064 95290 41/98 81730 10215 20199 3//// 4//// 76066 8372/;
0126952900999992000100206004-16840+146220FM-12+000299999V0200901N003612200019N0200001N1+02501+02201999999ADDAY101061AY201061GF101991011021999999001001MW1051REMSYN066AAXX  02064 95290 41/98 10907 10250 20220 3//// 4//// 70500 81200;
0161952910999992000033120004-18630+146170FM-12+001699999V0202001N000512200019N0500001N1+02201+02081101121ADDAY181999AY211999GF102991021021008001001001MA1999999100981MD1310021+9999MW1031REMSYN072AAXX  31204 95291 41584 22001 10220 20208 30098 40112 53002 70381 82200;
0178952910999992000040523004-18630+146170FM-12+001699999V0202301N000510450019N0400001N1+02581+02291101241ADDAA124000791AY121999AY221999GF106991041021008001041091MA1999999101101MD1710211+9999MW1031REMSYN078AAXX  05234 95291 11582 62301 10258 20229 30110 40124 57021 69904 70322 84249;
0161952910999992000041220004-18630+146170FM-12+001699999V0209999C000010120019N0350001N1+02181+02151101381ADDAY181999AY281999GF108991061081008001011999MA1999999101241MD1310011+9999MW1031REMSYN072AAXX  12204 95291 41581 80000 10218 20215 30124 40138 53001 70388 8681/;
0191952910999992000060411004-18630+146170FM-12+001699999V0203101N000512200019N0500001N1+01571+01451101951ADDAA199000091AY111999AY211999GF103991031081008001001001MA1999999101811MD1210151+9999MW1031REMSYN072AAXX  04114 95291 31584 33101 10157 20145 30181 40195 52015 70311 83800;EQDQ01  00002PRCP99
0191952910999992000061123004-18630+146170FM-12+001699999V0202701N003112200019N0500001N1+01601+01141102211ADDAA199000091AY101999AY201999GF102991011011008001031081MA1999999102071MD1210161+9999MW1031REMSYN072AAXX  11234 95291 31584 22706 10160 20114 30207 40221 52016 70300 81138;EQDQ01  00002PRCP99
0178952910999992000070823004-18630+146170FM-12+001699999V0202701N002612200019N0100001N1+01841+01771101581ADDAA124000791AY141999AY241999GF101991011001999999041001MA1999999101441MD1210171+9999MW1401REMSYN078AAXX  08234 95291 11/60 12705 10184 20177 30144 40158 52017 69904 74044 81040;
0161952910999992000082120004-18630+146170FM-12+001699999V0202301N001512200019N0500001N1+01101+00901101241ADDAY101999AY201999GF101991011051012501001001MA1999999101101MD1210081+9999MW1031REMSYN072AAXX  21204 95291 41684 12303 10110 20090 30110 40124 52008 70300 81500;
0201952910999992000082411004-18630+146170FM-12+001699999V0203101N000512200019N0500001N1+01481+01151101301ADDAA199000091AY101999AY201999GA1001+999999999GF100991001001999999001001MA1999999101161MD1210291+9999MW1021REMSYN066AAXX  24114 95291 31984 03101 10148 20115 30116 40130 52029 70200;EQDQ01  00002PRCP99
0161952910999992000092120004-18630+146170FM-12+001699999V0201101N001012200019N0400001N1+02001+01841101881ADDAY181999AY211999GF103991021021008001031001MA1999999101741MD1310051+9999MW1011REMSYN072AAXX  21204 95291 41582 31102 10200 20184 30174 40188 53005 70181 82230;
0191952910999992000101423004-18630+146170FM-12+001699999V0202901N002619999999N0400001N1+02521+01311101411ADDAA199000091AY121999AY221999GF106991041001999999071081MA1999999101271MD1210181+9999MW1031REMSYN072AAXX  14234 95291 31/82 62905 10252 20131 30127 40141 52018 70322 84078;EQDQ01  00002PRCP99
0178952910999992000110905004-18630+146170FM-12+001699999V0200201N004610075019N0350001N1+02881+02181100931ADDAA106023191AY181999AY201999GF107991051031008001071091MA1999999100791MD1710201+9999MW1151REMSYN078AAXX  09054 95291 11581 70209 10288 20218 30079 40093 57020 60231 71580 85379;
0178952910999992000111823004-18630+146170FM-12+001699999V0200901N000510075019N0200001N1+02661+02581101051ADDAA124009991AY191999AY221999GF107991051091008001031091MA1999999100911MD1210141+9999MW1171REMSYN078AAXX  18234 95291 11570 70901 10266 20258 30091 40105 52014 60104 71792 85939;
0051952950999992000010820004-19620+147380FM-12+001299999V0209999C000019999999N9999999N1+02251+02171999999REMSYN042AAXX  08204 95295 45/// /0000 10225 20217;
0077952950999992000011314004-19620+147380FM-12+001299999V0209999C000019999999N9999999N1+02111+01981999999ADDKA1999M+02931REMSYN052AAXX  13144 95295 45/// /0000 10211 20198 333 10293;
0081952950999992000011814004-19620+147380FM-12+001299999V0209999C000019999999N9999999N1+02321+02181999999ADDKA1999M+03071REMSYN056    AAXX  18144 95295 45/// /0000 10232 20218 333 10307;
0084952950999992000012205004-19620+147380FM-12+001299999V0200101N003119999999N9999999N1+03341+02511999999ADDAA199000091REMSYN042AAXX  22054 95295 35/// /0106 10334 20251;EQDQ01  00002PRCP99
0051952950999992000013020004-19620+147380FM-12+001299999V0201801N001519999999N9999999N1+02191+02091999999REMSYN042AAXX  30204 95295 45/// /1803 10219 20209;
0077952950999992000020405004-19620+147380FM-12+001299999V0200901N006219999999N9999999N1+03041+02391999999ADDAA106000591REMSYN054AAXX  04054 95295 1//// /0912 10304 20239 69961 7//44;
0083952950999992000020414004-19620+147380FM-12+001299999V0201401N003619999999N9999999N1+02411+02381999999ADDKA1999M+03161REMSYN058AAXX  04144 95295 4//// /1407 10241 20238 74144 333 10316;
0077952950999992000030202004-19620+147380FM-12+001299999V0200901N005119999999N9999999N1+02901+02021999999ADDKA1999N+02011REMSYN052AAXX  02024 95295 45/// /0910 10290 20202 333 20201;
0077952950999992000031314004-19620+147380FM-12+001299999V0201301N002619999999N9999999N1+02321+02151999999ADDKA1999M+02971REMSYN052AAXX  13144 95295 45/// /1305 10232 20215 333 10297;
0071952950999992000032023004-19620+147380FM-12+001299999V0201401N003619999999N9999999N1+02591+02161999999ADDAA124000191REMSYN048AAXX  20234 95295 15/// /1407 10259 20216 69924;
0077952950999992000050114004-19620+147380FM-12+001299999V0209999C000019999999N9999999N1+02261+02161999999ADDKA1999M+02841REMSYN052AAXX  01144 95295 45/// /0000 10226 20216 333 10284;
0077952950999992000051502004-19620+147380FM-12+001299999V0201301N001519999999N9999999N1+02591+01411999999ADDKA1999N+01311REMSYN052AAXX  15024 95295 45/// /1303 10259 20141 333 20131;
0051952950999992000051508004-19620+147380FM-12+001299999V0200701N002119999999N9999999N1+02341+01851999999REMSYN042AAXX  15084 95295 45/// /0704 10234 20185;
0077952950999992000061005004-19620+147380FM-12+001299999V0201901N004619999999N9999999N1+01771+01661999999ADDAA106002091REMSYN054AAXX  10054 95295 1//// /1909 10177 20166 60021 72144;
0084952950999992000062005004-19610+147370FM-12+001299999V0200601N004119999999N9999999N1+02531+01881999999ADDAA199000091REMSYN042AAXX  20054 95295 35/// /0608 10253 20188;EQDQ01  00002PRCP99
0084952950999992000072011004-19610+147370FM-12+001299999V0209999C000019999999N9999999N1+01261+01191999999ADDAA199000091REMSYN042AAXX  20114 95295 35/// /0000 10126 20119;EQDQ01  00002PRCP99
0078952950999992000072123004-19610+147370FM-12+001299999V0202001N001019999999N9999999N1+01691+99999999999ADDAA199000091REMSYN036AAXX  21234 95295 35/// /2002 10169;EQDQ01  00002PRCP99
0084952950999992000080123004-19610+147370FM-12+001299999V0201801N004119999999N9999999N1+01931+01411999999ADDAA199000091REMSYN042AAXX  01234 95295 35/// /1808 10193 20141;EQDQ01  00002PRCP99
0051952950999992000081020004-19610+147370FM-12+001299999V0209999C000019999999N9999999N1+01351+01351999999REMSYN042AAXX  10204 95295 45/// /0000 10135 20135;
0077952950999992000082514004-19610+147370FM-12+001299999V0209999C000019999999N9999999N1+01071+00901999999ADDKA1999M+02891REMSYN052AAXX  25144 95295 45/// /0000 10107 20090 333 10289;
0078952950999992000083117004-19610+147370FM-12+001299999V0209999C000019999999N9999999N1+01961+99999999999ADDAA199000091REMSYN036AAXX  31174 95295 35/// /0000 10196;EQDQ01  00002PRCP99
0077952950999992000091214004-19610+147370FM-12+001299999V0209999C000019999999N9999999N1+01561+01531999999ADDKA1999M+02931REMSYN052AAXX  12144 95295 45/// /0000 10156 20153 333 10293;
0084952950999992000091511004-19610+147370FM-12+001299999V0200901N002119999999N9999999N1+02081+01121999999ADDAA199000091REMSYN042AAXX  15114 95295 35/// /0904 10208 20112;EQDQ01  00002PRCP99
0051952950999992000101308004-19610+147370FM-12+001299999V0200401N002619999999N9999999N1+02441+02091999999REMSYN042AAXX  13084 95295 45/// /0405 10244 20209;
0077952950999992000102514004-19610+147370FM-12+001299999V0209999C000019999999N9999999N1+02071+02001999999ADDKA1999M+02791REMSYN052AAXX  25144 95295 45/// /0000 10207 20200 333 10279;
0077952950999992000103014004-19610+147370FM-12+001299999V0209999C000019999999N9999999N1+01971+01921999999ADDKA1999M+02941REMSYN052AAXX  30144 95295 45/// /0000 10197 20192 333 10294;
0084952950999992000110111004-19610+147370FM-12+001299999V0203601N002619999999N9999999N1+02541+02401999999ADDAA199000091REMSYN042AAXX  01114 95295 35/// /3605 10254 20240;EQDQ01  00002PRCP99
0077952950999992000110602004-19610+147370FM-12+001299999V0200301N005119999999N9999999N1+02941+02141999999ADDKA1999N+02261REMSYN052AAXX  06024 95295 45/// /0310 10294 20214 333 20226;
0071952950999992000111023004-19610+147370FM-12+001299999V0201101N004619999999N9999999N1+02291+02211999999ADDAA124001091REMSYN048AAXX  10234 95295 15/// /1109 10229 20221 60014;
0077952950999992000111617004-19610+147370FM-12+001299999V0209999C000019999999N9999999N1+02441+02431999999ADDAA106007191REMSYN054AAXX  16174 95295 1//// /0000 10244 20243 60071 74144;
0077952950999992000111802004-19610+147370FM-12+001299999V0200901N006219999999N9999999N1+02881+02371999999ADDKA1999N+02191REMSYN052AAXX  18024 95295 45/// /0912 10288 20237 333 20219;
0084952950999992000120311004-19610+147370FM-12+001299999V0200901N003119999999N9999999N1+02571+01941999999ADDAA199000091REMSYN042AAXX  03114 95295 35/// /0906 10257 20194;EQDQ01  00002PRCP99
0077952950999992000122011004-19610+147370FM-12+001299999V0200701N003619999999N9999999N1+02451+02141999999ADDAA106000191REMSYN054AAXX  20114 95295 1//// /0707 10245 20214 69921 7//44;
0124952960999992000010802004-19450+147480FM-12+000899999V0201101N006719999999N9999999N1+03031+02271101021ADDKA1999N+02521MA1999999100931MD1710061+9999REMSYN070AAXX  08024 95296 45/// /1113 10303 20227 30093 40102 57006 333 20252;
0131952960999992000012305004-19450+147480FM-12+000899999V0200301N005119999999N9999999N1+02991+02591100381ADDAA199000091MA1999999100291MD1710191+9999REMSYN060AAXX  23054 95296 35/// /0310 10299 20259 30029 40038 57019;EQDQ01  00002PRCP99
0131952960999992000021005004-19450+147480FM-12+000899999V0201201N009819999999N9999999N1+02881+02501101101ADDAA199000091MA1999999101011MD1710161+9999REMSYN060AAXX  10054 95296 35/// /1219 10288 20250 30101 40110 57016;EQDQ01  00002PRCP99
0131952960999992000021117004-19450+147480FM-12+000899999V0201001N007719999999N9999999N1+02671+02581100911ADDAA199000091MA1999999100821MD1710151+9999REMSYN060AAXX  11174 95296 35/// /1015 10267 20258 30082 40091 57015;EQDQ01  00002PRCP99
0124952960999992000040502004-19450+147480FM-12+000899999V0201101N006719999999N9999999N1+03001+02531101141ADDKA1999N+02061MA1999999101051MD1710081+9999REMSYN070AAXX  05024 95296 45/// /1113 10300 20253 30105 40114 57008 333 20206;
0131952960999992000041111004-19450+147480FM-12+000899999V0201201N009819999999N9999999N1+02501+02291101761ADDAA199000091MA1999999101671MD1210091+9999REMSYN060AAXX  11114 95296 35/// /1219 10250 20229 30167 40176 52009;EQDQ01  00002PRCP99
0131952960999992000043017004-19450+147480FM-12+000899999V0201901N004619999999N9999999N1+02061+02011100851ADDAA199000091MA1999999100761MD1710181+9999REMSYN060AAXX  30174 95296 35/// /1909 10206 20201 30076 40085 57018;EQDQ01  00002PRCP99
0101952960999992000050208004-19450+147480FM-12+000899999V0201801N002119999999N9999999N1+02711+02251100811ADDMA1999999100721MD1210151+9999REMSYN060AAXX  02084 95296 45/// /1804 10271 20225 30072 40081 52015;
0124952960999992000050317004-19450+147480FM-12+000899999V0200601N002619999999N9999999N1+02501+02471100921ADDAA106000591MA1999999100831MD1710061+9999REMSYN072AAXX  03174 95296 1//// /0605 10250 20247 30083 40092 57006 69941 7//44;
0131952960999992000050411004-19450+147480FM-12+000899999V0200601N003619999999N9999999N1+02551+02501101201ADDAA199000091MA1999999101111MD1210211+9999REMSYN060AAXX  04114 95296 35/// /0607 10255 20250 30111 40120 52021;EQDQ01  00002PRCP99
0124952960999992000051114004-19450+147480FM-12+000899999V0201401N004619999999N9999999N1+02251+01811101731ADDKA1999M+02751MA1999999101641MD1710051+9999REMSYN070AAXX  11144 95296 45/// /1409 10225 20181 30164 40173 57005 333 10275;
0124952960999992000051223004-19450+147480FM-12+000899999V0201301N006719999999N9999999N1+02351+02231101751ADDAA124006191MA1999999101661MD1210131+9999REMSYN072AAXX  12234 95296 1//// /1313 10235 20223 30166 40175 52013 60064 7//44;
0131952960999992000051311004-19450+147480FM-12+000899999V0201001N006719999999N9999999N1+02341+02061101761ADDAA199000091MA1999999101671MD1210231+9999REMSYN060AAXX  13114 95296 35/// /1013 10234 20206 30167 40176 52023;EQDQ01  00002PRCP99
0101952960999992000053008004-19450+147480FM-12+000899999V0201101N002119999999N9999999N1+01851+01011101541ADDMA1999999101451MD1210091+9999REMSYN060AAXX  30084 95296 45/// /1104 10185 20101 30145 40154 52009;
0131952960999992000061917004-19450+147470FM-12+000899999V0201201N004619999999N9999999N1+01991+01941101821ADDAA199000091MA1999999101731MD1710081+9999REMSYN060AAXX  19174 95296 35/// /1209 10199 20194 30173 40182 57008;EQDQ01  00002PRCP99
0101952960999992000063008004-19450+147470FM-12+000899999V0202001N003119999999N9999999N1+01571+00381101771ADDMA1999999101681MD1210131+9999REMSYN060AAXX  30084 95296 45/// /2006 10157 20038 30168 40177 52013;
0131952960999992000080417004-19450+147470FM-12+000899999V0201301N005719999999N9999999N1+01931+01851101921ADDAA199000091MA1999999101831MD1710151+9999REMSYN060AAXX  04174 95296 35/// /1311 10193 20185 30183 40192 57015;EQDQ01  00002PRCP99
0124952960999992000080514004-19450+147470FM-12+000899999V0201001N005119999999N9999999N1+01971+01921101761ADDKA1999M+02531MA1999999101671MD1710091+9999REMSYN070AAXX  05144 95296 45/// /1010 10197 20192 30167 40176 57009 333 10253;
0124952960999992000080714004-19450+147470FM-12+000899999V0201201N006219999999N9999999N1+02011+01961101971ADDKA1999M+02461MA1999999101881MD1210011+9999REMSYN070AAXX  07144 95296 45/// /1212 10201 20196 30188 40197 52001 333 10246;
0101952960999992000081008004-19450+147470FM-12+000899999V0200701N006219999999N9999999N1+02071+01971101661ADDMA1999999101571MD1210041+9999REMSYN060AAXX  10084 95296 45/// /0712 10207 20197 30157 40166 52004;
0101952960999992000083108004-19450+147470FM-12+000899999V0203501N004619999999N9999999N1+02331+02281101251ADDMA1999999101161MD1210041+9999REMSYN060AAXX  31084 95296 45/// /3509 10233 20228 30116 40125 52004;
0101952960999992000090420004-19450+147470FM-12+000899999V0200601N003619999999N9999999N1+02061+01861101561ADDMA1999999101471MD1210041+9999REMSYN060AAXX  04204 95296 45/// /0607 10206 20186 30147 40156 52004;
0124952960999992000090702004-19450+147470FM-12+000899999V0203601N007719999999N9999999N1+02631+02131101431ADDKA1999N+02121MA1999999101341MD1710201+9999REMSYN070AAXX  07024 95296 45/// /3615 10263 20213 30134 40143 57020 333 20212;
0131952960999992000090705004-19450+147470FM-12+000899999V0203601N007719999999N9999999N1+02531+02141101111ADDAA199000091MA1999999101021MD1710321+9999REMSYN060AAXX  07054 95296 35/// /3615 10253 20214 30102 40111 57032;EQDQ01  00002PRCP99
0131952960999992000091511004-19450+147470FM-12+000899999V0201001N009819999999N9999999N1+02241+01671101931ADDAA199000091MA1999999101841MD1210181+9999REMSYN060AAXX  15114 95296 35/// /1019 10224 20167 30184 40193 52018;EQDQ01  00002PRCP99
0101952960999992000101308004-19450+147470FM-12+000899999V0200101N004619999999N9999999N1+02451+02301100841ADDMA1999999100751MD1710041+9999REMSYN060AAXX  13084 95296 45/// /0109 10245 20230 30075 40084 57004;
0124952960999992000102405004-19450+147470FM-12+000899999V0200901N007219999999N9999999N1+02771+02151101271ADDAA106000191MA1999999101181MD1710151+9999REMSYN072AAXX  24054 95296 1//// /0914 10277 20215 30118 40127 57015 69921 7//44;
0131952960999992000110211004-19450+147470FM-12+000899999V0203101N004119999999N9999999N1+02631+02581100691ADDAA199000091MA1999999100601MD1210241+9999REMSYN060AAXX  02114 95296 35/// /3108 10263 20258 30060 40069 52024;EQDQ01  00002PRCP99
0131952960999992000120405004-19450+147470FM-12+000899999V0201001N012919999999N9999999N1+02851+02301101041ADDAA199000091MA1999999100951MD1710201+9999REMSYN060AAXX  04054 95296 35/// /1025 10285 20230 30095 40104 57020;EQDQ01  00002PRCP99
0101952960999992000120408004-19450+147470FM-12+000899999V0201001N012919999999N9999999N1+02661+02331101151ADDMA1999999101061MD1210111+9999REMSYN060AAXX  04084 95296 45/// /1025 10266 20233 30106 40115 52011;
0131952960999992000120511004-19450+147470FM-12+000899999V0201101N011319999999N9999999N1+02541+02331101311ADDAA199000091MA1999999101221MD1210141+9999REMSYN060AAXX  05114 95296 35/// /1122 10254 20233 30122 40131 52014;EQDQ01  00002PRCP99
0131953070999992000010107004-20720+116770FM-12+000999999V0200201N006719999999N9999999N1+03401+02491100301ADDAA106000091MA1999999100231MD1710181+9999REMSYN060AAXX  01074 95307 35/// /0213 10340 20249 30023 40030 57018;EQDQ01  00002PRCP06
0154953070999992000012601004-20720+116770FM-12+000999999V0203101N003119999999N9999999N1+02871+02341100611ADDAA199000091KA1999N+02471MA1999999100541MD1210161+9999REMSYN070AAXX  26014 95307 35/// /3106 10287 20234 30054 40061 52016 333 20247;EQDQ01  00002PRCP99
0101953070999992000020922004-20720+116770FM-12+000999999V0202601N006219999999N9999999N1+03091+02531100061ADDMA1999999099991MD1210021+9999REMSYN060AAXX  09224 95307 45/// /2612 10309 20253 39999 40006 52002;
0154953070999992000021901004-20720+116770FM-12+000999999V0202801N008719999999N9999999N1+03111+02791100121ADDAA199000091KA1999N+03001MA1999999100051MD1210171+9999REMSYN070AAXX  19014 95307 35/// /2817 10311 20279 30005 40012 52017 333 20300;EQDQ01  00002PRCP99
0101953070999992000030822004-20720+116770FM-12+000999999V0203601N005719999999N9999999N1+02781+02531100291ADDMA1999999100221MD1210041+9999REMSYN060AAXX  08224 95307 45/// /3611 10278 20253 30022 40029 52004;
0131953070999992000030907004-20720+116770FM-12+000999999V0203501N008219999999N9999999N1+03061+02611100201ADDAA199000091MA1999999100131MD1710121+9999REMSYN060AAXX  09074 95307 35/// /3516 10306 20261 30013 40020 57012;EQDQ01  00002PRCP99
0101953070999992000031222004-20720+116770FM-12+000999999V0202101N002119999999N9999999N1+02391+02361100661ADDMA1999999100591MD1210051+9999REMSYN060AAXX  12224 95307 45/// /2104 10239 20236 30059 40066 52005;
0107953070999992000031604004-20720+116770FM-12+000999999V0200901N010819999999N9999999N1+02601+02581100101ADDMA1999999100031MD1710071+9999REMSYN066AAXX  16044 95307 4//// /0921 10260 20258 30003 40010 57007 74144;
0154953070999992000041213004-20720+116770FM-12+000999999V0202401N003119999999N9999999N1+02971+02501101121ADDAA199000091KA1999M+03691MA1999999101051MD1210201+9999REMSYN070AAXX  12134 95307 35/// /2406 10297 20250 30105 40112 52020 333 10369;EQDQ01  00002PRCP99
0101953070999992000042322004-20720+116770FM-12+000999999V0201001N006719999999N9999999N1+01971+01411101431ADDMA1999999101361MD1210071+9999REMSYN060AAXX  23224 95307 45/// /1013 10197 20141 30136 40143 52007;
0101953070999992000052822004-20720+116770FM-12+000999999V0201101N007719999999N9999999N1+01761+00681101701ADDMA1999999101631MD1210041+9999REMSYN060AAXX  28224 95307 45/// /1115 10176 20068 30163 40170 52004;
0154953070999992000061601004-20720+116770FM-12+000999999V0200901N003119999999N9999999N1+02131+00921102081ADDAA199000091KA1999N+01141MA1999999102011MD1210181+9999REMSYN070AAXX  16014 95307 35/// /0906 10213 20092 30201 40208 52018 333 20114;EQDQ01  00002PRCP99
0154953070999992000062001004-20720+116770FM-12+000999999V0201601N003119999999N9999999N1+02231+01311101651ADDAA199000091KA1999N+01391MA1999999101581MD1210151+9999REMSYN070AAXX  20014 95307 35/// /1606 10223 20131 30158 40165 52015 333 20139;EQDQ01  00002PRCP99
0154953070999992000062813004-20720+116770FM-12+000999999V0201401N003619999999N9999999N1+01751+00481101681ADDAA199000091KA1999M+02271MA1999999101611MD1210141+9999REMSYN070AAXX  28134 95307 35/// /1407 10175 20048 30161 40168 52014 333 10227;EQDQ01  00002PRCP99
0101953070999992000070322004-20720+116770FM-12+000999999V0201901N002119999999N9999999N1+01401+01081101191ADDMA1999999101121MD1710021+9999REMSYN060AAXX  03224 95307 45/// /1904 10140 20108 30112 40119 57002;
0131953070999992000071407004-20720+116770FM-12+000999999V0203101N007219999999N9999999N1+02651+01811101331ADDAA199000091MA1999999101261MD1710211+9999REMSYN060AAXX  14074 95307 35/// /3114 10265 20181 30126 40133 57021;EQDQ01  00002PRCP99
0131953070999992000071919004-20720+116770FM-12+000999999V0202501N003619999999N9999999N1+01891+01291101531ADDAA199000091MA1999999101461MD1710051+9999REMSYN060AAXX  19194 95307 35/// /2507 10189 20129 30146 40153 57005;EQDQ01  00002PRCP99
0101953070999992000072716004-20720+116770FM-12+000999999V0201001N004619999999N9999999N1+01481+00031101791ADDMA1999999101721MD1710031+9999REMSYN060AAXX  27164 95307 45/// /1009 10148 20003 30172 40179 57003;
0154953070999992000080801004-20720+116770FM-12+000999999V0201101N010319999999N9999999N1+02131+00351102061ADDAA199000091KA1999N+01181MA1999999101991MD1210161+9999REMSYN070AAXX  08014 95307 35/// /1120 10213 20035 30199 40206 52016 333 20118;EQDQ01  00002PRCP99
0101953070999992000081416004-20720+116770FM-12+000999999V0202701N004119999999N9999999N1+01871+01291101551ADDMA1999999101481MD1710031+9999REMSYN060AAXX  14164 95307 45/// /2708 10187 20129 30148 40155 57003;
0101953070999992000082810004-20720+116770FM-12+000999999V0202801N006719999999N9999999N1+02731+01571101061ADDMA1999999100991MD1410001+9999REMSYN060AAXX  28104 95307 45/// /2813 10273 20157 30099 40106 54000;
0101953070999992000090916004-20720+116770FM-12+000999999V0201901N004119999999N9999999N1+01821+00981101781ADDMA1999999101711MD1710011+9999REMSYN060AAXX  09164 95307 45/// /1908 10182 20098 30171 40178 57001;
0131953070999992000091807004-20720+116770FM-12+000999999V0200301N006219999999N9999999N1+03401+00791101141ADDAA199000091MA1999999101071MD1710271+9999REMSYN060AAXX  18074 95307 35/// /0312 10340 20079 30107 40114 57027;EQDQ01  00002PRCP99
0131953070999992000092219004-20720+116770FM-12+000999999V0202501N004619999999N9999999N1+02251+01931101331ADDAA199000091MA1999999101261MD1710141+9999REMSYN060AAXX  22194 95307 35/// /2509 10225 20193 30126 40133 57014;EQDQ01  00002PRCP99
0101953070999992000101416004-20720+116770FM-12+000999999V0203301N004619999999N9999999N1+02481+02291100891ADDMA1999999100821MD1410001+9999REMSYN060AAXX  14164 95307 45/// /3309 10248 20229 30082 40089 54000;
0101953070999992000103116004-20720+116770FM-12+000999999V0202801N007719999999N9999999N1+02421+02021100791ADDMA1999999100721MD1210011+9999REMSYN060AAXX  31164 95307 45/// /2815 10242 20202 30072 40079 52001;
0101953070999992000111210004-20720+116770FM-12+000999999V0203001N007719999999N9999999N1+02531+01921100411ADDMA1999999100341MD1210041+9999REMSYN060AAXX  12104 95307 45/// /3015 10253 20192 30034 40041 52004;
0131953070999992000112719004-20720+116770FM-12+000999999V0202501N004119999999N9999999N1+02391+01511100491ADDAA199000091MA1999999100421MD1710031+9999REMSYN060AAXX  27194 95307 35/// /2508 10239 20151 30042 40049 57003;EQDQ01  00002PRCP99
0101953070999992000120122004-20720+116770FM-12+000999999V0200601N006719999999N9999999N1+02811+02391100601ADDMA1999999100531MD1210041+9999REMSYN060AAXX  01224 95307 45/// /0613 10281 20239 30053 40060 52004;
0101953070999992000122116004-20720+116770FM-12+000999999V0201301N003619999999N9999999N1+02821+02381100231ADDMA1999999100161MD1710011+9999REMSYN060AAXX  21164 95307 45/// /1307 10282 20238 30016 40023 57001;
0101953070999992000122710004-20720+116770FM-12+000999999V0202601N012319999999N9999999N1+03111+02451100391ADDMA1999999100321MD1210031+9999REMSYN060AAXX  27104 95307 45/// /2624 10311 20245 30032 40039 52003;
0161953080999992000011204004-20620+116750FM-12+001699999V0202701N006212200019N0500001N1+03201+01991100421ADDAY111999AY211999GF104991001001999999001091MA1999999099811MD1710141+9999MW1021REMSYN072AAXX  12044 95308 41/84 42712 10320 20199 39981 40042 57014 70211 80009;
0161953080999992000040404004-20620+116750FM-12+001699999V0201101N010312200019N0500001N1+03151+02111101081ADDAY101999AY201999GF102991001001999999001011MA1999999100461MD1710111+9999MW1021REMSYN072AAXX  04044 95308 41/84 21120 10315 20211 30046 40108 57011 70200 80001;
0161953080999992000042604004-20620+116750FM-12+001699999V0200701N009312200019N0500001N1+02951+01781101091ADDAY101999AY201999GF102991021031008001001001MA1999999100471MD1710161+9999MW1031REMSYN072AAXX  26044 95308 41584 20718 10295 20178 30047 40109 57016 70300 82300;
0161953080999992000042910004-20620+116750FM-12+001699999V0203401N005112200019N0500001N1+02861+01921101261ADDAY101999AY201999GF101991001001999999001061MA1999999100641MD1210071+9999MW1021REMSYN072AAXX  29104 95308 41/84 13410 10286 20192 30064 40126 52007 70200 80006;
0191953080999992000051101004-20620+116750FM-12+001699999V0202001N005719999999N0500001N1+02771+01381101421ADDAA199000091AY121999AY221999GF105991051001999999081001MA1999999100791MD1210241+9999MW1021REMSYN072AAXX  11014 95308 31/84 52011 10277 20138 30079 40142 52024 70222 85080;EQDQ01  00002PRCP99
0201953080999992000060607004-20620+116750FM-12+001699999V0200501N009812200019N0500001N1+02281+00531101731ADDAA199000091AY101999AY201999GA1001+999999999GF100991001001999999001001MA1999999101091MD1710211+9999MW1021REMSYN066AAXX  06074 95308 31984 00519 10228 20053 30109 40173 57021 70200;EQDQ01  00002PRCP99
0161953080999992000061110004-20620+116750FM-12+001699999V0200501N005112200019N0500001N1+02051+01151101911ADDAY101999AY201999GF101991011001999999031001MA1999999101271MD1210181+9999MW1021REMSYN072AAXX  11104 95308 41/84 10510 10205 20115 30127 40191 52018 70200 81030;
0151953080999992000061516004-20610+116750FM-12+001699999V0202001N003612200019N0500001N1+01851+01031102031ADDAY101999AY201999GA1001+999999999GF100991001001999999001001MA1999999101391MW1021REMSYN060AAXX  15164 95308 41984 02007 10185 20103 30139 40203 70200;
0201953080999992000061819004-20610+116750FM-12+001699999V0202001N003112200019N0500001N1+02051+01891101461ADDAA199000091AY101999AY201999GA1001+999999999GF100991001001999999001001MA1999999100831MD1710071+9999MW1021REMSYN066AAXX  18194 95308 31984 02006 10205 20189 30083 40146 57007 70200;EQDQ01  00002PRCP99
0191953080999992000070113004-20610+116750FM-12+001699999V0200701N002619999999N0500001N1+02101+01731101371ADDAA199000091AY101999AY201999GF107991001001999999001011MA1999999100731MD1210021+9999MW1021REMSYN072AAXX  01134 95308 31/84 70705 10210 20173 30073 40137 52002 70200 80001;EQDQ01  00002PRCP99
0161953080999992000070704004-20610+116750FM-12+001699999V0200901N004612200019N0500001N1+02481+01501101341ADDAY101999AY201999GF102991001001999999001011MA1999999100701MD1710301+9999MW1021REMSYN072AAXX  07044 95308 41/84 20909 10248 20150 30070 40134 57030 70200 80001;
0191953080999992000071801004-20610+116750FM-12+001699999V0200901N008712200019N0500001N1+02501+01281101851ADDAA199000091AY101999AY201999GF102991001001999999001011MA1999999101211MD1210151+9999MW1031REMSYN072AAXX  18014 95308 31/84 20917 10250 20128 30121 40185 52015 70300 80001;EQDQ01  00002PRCP99
0201953080999992000072813004-20610+116750FM-12+001699999V0200201N004612200019N0400001N1+01981+01411101741ADDAA199000091AY101999AY201999GA1001+999999999GF100991001001999999001001MA1999999101101MD1710051+9999MW1021REMSYN066AAXX  28134 95308 31982 00209 10198 20141 30110 40174 57005 70200;EQDQ01  00002PRCP99
0201953080999992000082507004-20610+116750FM-12+001699999V0203401N006212200019N0500001N1+02721+01681101241ADDAA199000091AY101999AY201999GA1001+999999999GF100991001001999999001001MA1999999100611MD1710181+9999MW1021REMSYN066AAXX  25074 95308 31984 03412 10272 20168 30061 40124 57018 70200;EQDQ01  00002PRCP99
0171953080999992000091104004-20610+116750FM-12+001699999V0200901N012912200019N0500001N1+03051+02411101561ADDAY101999AY201999GA1001+999999999GF100991001001999999001001MA1999999100931MD1210141+9999MW1021REMSYN066AAXX  11044 95308 41984 00925 10305 20241 30093 40156 52014 70200;
0201953080999992000091419004-20610+116750FM-12+001699999V0202301N004112200019N0400001N1+02201+01531101171ADDAA199000091AY101999AY201999GA1001+999999999GF100991001001999999001001MA1999999100541MD1710211+9999MW1021REMSYN066AAXX  14194 95308 31982 02308 10220 20153 30054 40117 57021 70200;EQDQ01  00002PRCP99
0141953080999992000092116004-20610+116750FM-12+001699999V0203401N001012200019N0500001N1+02351+02151101381ADDAY101999AY201999GF103991031031004501001001MA1999999100751MW1021REMSYN066AAXX  21164 95308 41484 33402 10235 20215 30075 40138 70200 83300;
0171953080999992000092704004-20610+116750FM-12+001699999V0202501N005112200019N0500001N1+02551+02031101071ADDAY101999AY201999GA1001+999999999GF100991001001999999001001MA1999999100441MD1710171+9999MW1021REMSYN066AAXX  27044 95308 41984 02510 10255 20203 30044 40107 57017 70200;
0201953080999992000092813004-20610+116750FM-12+001699999V0202501N010312200019N0500001N1+02531+02071101131ADDAA199000091AY101999AY201999GA1001+999999999GF100991001001999999001001MA1999999100501MD1210081+9999MW1021REMSYN066AAXX  28134 95308 31984 02520 10253 20207 30050 40113 52008 70200;EQDQ01  00002PRCP99
0191953080999992000101113004-20610+116750FM-12+001699999V0202501N010812200019N0250001N1+02581+02241101111ADDAA199000091AY101999AY201999GF103991031001999999081001MA1999999100491MD1210101+9999MW1051REMSYN072AAXX  11134 95308 31/75 32521 10258 20224 30049 40111 52010 70500 83080;EQDQ01  00002PRCP99
0191953080999992000101607004-20610+116750FM-12+001699999V0202501N009812200019N0300001N1+02641+02181100861ADDAA199000091AY101999AY201999GF102991021011004501001001MA1999999100241MD1710161+9999MW1011REMSYN072AAXX  16074 95308 31480 22519 10264 20218 30024 40086 57016 70100 82100;EQDQ01  00002PRCP99
0171953080999992000110304004-20610+116750FM-12+001699999V0202501N008712200019N0500001N1+02651+02121100981ADDAY101999AY201999GA1001+999999999GF100991001001999999001001MA1999999100361MD1710121+9999MW1021REMSYN066AAXX  03044 95308 41984 02517 10265 20212 30036 40098 57012 70200;
0161953080999992000111222004-20610+116750FM-12+001699999V0202901N005710042019N0250001N1+02331+02271100481ADDAY111999AY211999GF106991061051004501001001MA1999999099861MD1110071+9999MW1031REMSYN072AAXX  12224 95308 41475 62911 10233 20227 39986 40048 51007 70311 86500;
0161953080999992000111322004-20610+116750FM-12+001699999V0202701N004612200019N0300001N1+02311+02281100611ADDAY101999AY201999GF101991011051004501081001MA1999999099991MD1310111+9999MW1051REMSYN072AAXX  13224 95308 41480 12709 10231 20228 39999 40061 53011 70500 81580;
0161953080999992000122722004-20610+116750FM-12+001699999V0202301N007712200019N0500001N1+02601+02381100641ADDAY101999AY201999GF102991021001999999071001MA1999999100031MD1210121+9999MW1031REMSYN072AAXX  27224 95308 41/84 22315 10260 20238 30003 40064 52012 70300 82070;
0201953080999992000123013004-20610+116750FM-12+001699999V0202701N007712200019N0400001N1+02891+02611100601ADDAA199000091AY101999AY201999GA1001+999999999GF100991001001999999001001MA1999999099991MD1210151+9999MW1021REMSYN066AAXX  30134 95308 31982 02715 10289 20261 39999 40060 52015 70200;EQDQ01  00002PRCP99
0148953150999992000011901004-24400+116300FM-12+030099999V0209999C000012200019N0200001N1+03501+01371999999ADDAA199000091AY101999AY201999GF101991001001999999001051MW1021REMSYN058    AAXX  19014 95315 31/70 10000 10350 20137 70200 80005;EQDQ01  00002PRCP99
0144953620999992000010605004-24120+148080FM-12+032699999V0209999C000010360019N0500001N1+03361+01321999999ADDAA106000091AY121999AY221999GF108991041031012501031081MW1031REMSYN054AAXX  06054 95362 31684 80000 10336 20132 70322 84338;EQDQ01  00002PRCP06
0144953620999992000020305004-24120+148080FM-12+032699999V0209999C000010360019N0550001N1+03001+01381999999ADDAA199000091AY121999AY221999GF108991031021017501031011MW1021REMSYN054AAXX  03054 95362 31785 80000 10300 20138 70222 83231;EQDQ01  00002PRCP99
0144953620999992000020505004-24120+148080FM-12+032699999V0209999C000010360019N0500001N1+03311+01681999999ADDAA199000091AY121999AY221999GF108991041021017501081091MW1031REMSYN054AAXX  05054 95362 31784 80000 10331 20168 70322 84289;EQDQ01  00002PRCP99
0144953620999992000042823004-24120+148080FM-12+032699999V0201301N002610360019N0500001N1+02051+01441999999ADDAA199000091AY121999AY221999GF108991031051008001041011MW1031REMSYN054AAXX  28234 95362 31584 81305 10205 20144 70322 83541;EQDQ01  00002PRCP99
0144953620999992000042905004-24120+148080FM-12+032699999V0209999C000010360019N0500001N1+02481+01411999999ADDAA199000091AY121999AY221999GF108991011011008001071011MW1021REMSYN054AAXX  29054 95362 31584 80000 10248 20141 70222 81171;EQDQ01  00002PRCP99
0144953620999992000043005004-24120+148080FM-12+032699999V0201601N002612200019N0500001N1+02571+01411999999ADDAA199000091AY121999AY221999GF108991031081008001001011MW1031REMSYN054AAXX  30054 95362 31584 81605 10257 20141 70322 83801;EQDQ01  00002PRCP99
0154953620999992000071705004-24110+148790FM-12+032699999V0201801N004612200019N0500001N1+02091-00471999999ADDAA199000091AY101999AY201999GA1001+999999999GF100991001001999999001001MW1001REMSYN048AAXX  17054 95362 31984 01809 10209 21047 70000;EQDQ01  00002PRCP99
0144953620999992000101805004-24110+148070FM-12+032699999V0200701N005710075019N0500001N1+02521+01101999999ADDAA199000091AY121999AY221999GF108991071051008001071001MW1021REMSYN054AAXX  18054 95362 31584 80711 10252 20110 70222 87570;EQDQ01  00002PRCP99
0144953620999992000112923004-24110+148070FM-12+032699999V0203601N002112200019N0500001N1+02301+01561999999ADDAA199000091AY101999AY201999GF101991011011008001001001MW1031REMSYN054AAXX  29234 95362 31584 13604 10230 20156 70300 81100;EQDQ01  00002PRCP99
0144953620999992000122005004-24110+148070FM-12+032699999V0200901N001510150019N0500001N1+03081+01611999999ADDAA199000091AY121999AY221999GF107991051021017501081081MW1031REMSYN054AAXX  20054 95362 31784 70903 10308 20161 70322 85288;EQDQ01  00002PRCP99
0131953670999992000010923004-21170+149170FM-12+000699999V0200801N004619999999N9999999N1+02761+02041100971ADDAA106000091MA1999999100901MD1210091+9999REMSYN060AAXX  09234 95367 35/// /0809 10276 20204 30090 40097 52009;EQDQ01  00002PRCP06
0107953670999992000011020004-21170+149170FM-12+000699999V0200801N006719999999N9999999N1+02301+02111100801ADDMA1999999100731MD1210101+9999REMSYN066AAXX  10204 95367 4//// /0813 10230 20211 30073 40080 52010 74144;
0131953670999992000020305004-21170+149170FM-12+000699999V0201301N010319999999N9999999N1+02831+02061101421ADDAA199000091MA1999999101351MD1710181+9999REMSYN060AAXX  03054 95367 35/// /1320 10283 20206 30135 40142 57018;EQDQ01  00002PRCP99
0124953670999992000021302004-21170+149170FM-12+000699999V0201001N004119999999N9999999N1+02931+01931100881ADDKA1999N+02071MA1999999100811MD1710111+9999REMSYN070AAXX  13024 95367 45/// /1008 10293 20193 30081 40088 57011 333 20207;
0124953670999992000030902004-21170+149170FM-12+000699999V0201101N007219999999N9999999N1+02961+02491101281ADDKA1999N+02301MA1999999101211MD1710011+9999REMSYN070AAXX  09024 95367 45/// /1114 10296 20249 30121 40128 57001 333 20230;
0131953670999992000041417004-21170+149170FM-12+000699999V0202501N002619999999N9999999N1+02031+01921101371ADDAA199000091MA1999999101301MD1710121+9999REMSYN060AAXX  14174 95367 35/// /2505 10203 20192 30130 40137 57012;EQDQ01  00002PRCP99
0124953670999992000041802004-21170+149170FM-12+000699999V0201101N003619999999N9999999N1+02751+01991101451ADDKA1999N+01831MA1999999101381MD1710171+9999REMSYN070AAXX  18024 95367 45/// /1107 10275 20199 30138 40145 57017 333 20183;
