0114916440999992000022712004-08520+179230FM-12+000099999V0200401N002619999999N9999999N1+02661+99999100931ADDAA199000091MD1210031+9999REMSYN058AAXX  27124 91644 36/// /0405 10266 40093 52003 333 91211;EQDQ01  00002PRCP99
0114916440999992000030309004-08520+179230FM-12+000099999V0201001N002619999999N9999999N1+02761+99999101161ADDAA199000091MD1210191+9999REMSYN058AAXX  03094 91644 36/// /1005 10276 40116 52019 333 91210;EQDQ01  00002PRCP99
0114916440999992000030909004-08520+179230FM-12+000099999V0200301N002119999999N9999999N1+02781+99999100981ADDAA199000091MD1210181+9999REMSYN058AAXX  09094 91644 36/// /0304 10278 40098 52018 333 91211;EQDQ01  00002PRCP99
0114916440999992000031015004-08520+179230FM-12+000099999V0200301N003619999999N9999999N1+02731+99999100671ADDAA199000091MD1710181+9999REMSYN058AAXX  10154 91644 36/// /0307 10273 40067 57018 333 91212;EQDQ01  00002PRCP99
0114916440999992000031323004-08520+179230FM-12+000099999V0200601N002619999999N9999999N1+03131+99999100961ADDAA199000091MD1410001+9999REMSYN058AAXX  13234 91644 36/// /0605 10313 40096 54000 333 91211;EQDQ01  00002PRCP99
0114916440999992000040103004-08520+179230FM-12+000099999V0200601N002119999999N9999999N1+03131+99999100741ADDAA199000091MD1710191+9999REMSYN058AAXX  01034 91644 36/// /0604 10313 40074 57019 333 91210;EQDQ01  00002PRCP99
0114916440999992000040207004-08520+179230FM-12+000099999V0201201N003619999999N9999999N1+02801+99999100841ADDAA199000091MD1210191+9999REMSYN058AAXX  02074 91644 36/// /1207 10280 40084 52019 333 91211;EQDQ01  00002PRCP99
0114916440999992000040618004-08520+179230FM-12+000099999V0200101N001519999999N9999999N1+02701+99999100891ADDAA199000091MD1210041+9999REMSYN058AAXX  06184 91644 36/// /0103 10270 40089 52004 333 91208;EQDQ01  00002PRCP99
0114916440999992000041502004-08520+179230FM-12+000099999V0200801N002119999999N9999999N1+03051+99999100731ADDAA199000091MD1710311+9999REMSYN058AAXX  15024 91644 36/// /0804 10305 40073 57031 333 91213;EQDQ01  00002PRCP99
0114916440999992000041522004-08520+179230FM-12+000099999V0201101N003119999999N9999999N1+03151+99999100991ADDAA199000091MD1210071+9999REMSYN058AAXX  15224 91644 36/// /1106 10315 40099 52007 333 91217;EQDQ01  00002PRCP99
0114916440999992000041706004-08520+179230FM-12+000099999V0201101N003119999999N9999999N1+02931+99999100791ADDAA199000091MD1210101+9999REMSYN058AAXX  17064 91644 36/// /1106 10293 40079 52010 333 91209;EQDQ01  00002PRCP99
0114916440999992000041820004-08520+179230FM-12+000099999V0200801N002619999999N9999999N1+02911+99999100991ADDAA199000091MD1210201+9999REMSYN058AAXX  18204 91644 36/// /0805 10291 40099 52020 333 91211;EQDQ01  00002PRCP99
0114916440999992000042115004-08520+179230FM-12+000099999V0201201N004119999999N9999999N1+02841+99999100931ADDAA199000091MD1710101+9999REMSYN058AAXX  21154 91644 36/// /1208 10284 40093 57010 333 91212;EQDQ01  00002PRCP99
0114916440999992000042603004-08520+179230FM-12+000099999V0201301N001019999999N9999999N1+03371+99999100691ADDAA199000091MD1710161+9999REMSYN058AAXX  26034 91644 36/// /1302 10337 40069 57016 333 91205;EQDQ01  00002PRCP99
0101916440999992000050318004-08520+179230FM-12+000099999V0200801N002119999999N9999999N1+02601+99999100931ADDAA101000891MD1210051+9999REMSYN064AAXX  03184 91644 16/// /0804 10260 40093 52005 333 69985 91209;
0114916440999992000050818004-08520+179230FM-12+000099999V0201101N004119999999N9999999N1+02731+99999101011ADDAA199000091MD1210101+9999REMSYN058AAXX  08184 91644 36/// /1108 10273 40101 52010 333 91212;EQDQ01  00002PRCP99
0114916440999992000051112004-08520+179230FM-12+000099999V0201001N005119999999N9999999N1+02871+99999100891ADDAA199000091MD1710081+9999REMSYN058AAXX  11124 91644 36/// /1010 10287 40089 57008 333 91215;EQDQ01  00002PRCP99
0114916440999992000051515004-08520+179230FM-12+000099999V0200401N002119999999N9999999N1+02771+99999100921ADDAA199000091MD1710201+9999REMSYN058AAXX  15154 91644 36/// /0404 10277 40092 57020 333 91208;EQDQ01  00002PRCP99
0114916440999992000051802004-08520+179230FM-12+000099999V0200901N003119999999N9999999N1+03091+99999100921ADDAA199000091MD1710251+9999REMSYN058AAXX  18024 91644 36/// /0906 10309 40092 57025 333 91214;EQDQ01  00002PRCP99
0114916440999992000052310004-08520+179230FM-12+000099999V0200801N003119999999N9999999N1+02851+99999100961ADDAA199000091MD1210051+9999REMSYN058AAXX  23104 91644 36/// /0806 10285 40096 52005 333 91212;EQDQ01  00002PRCP99
0101916440999992000060423004-08520+179230FM-12+000099999V0200901N002619999999N9999999N1+02951+99999100991ADDAA101000591MD1710051+9999REMSYN064AAXX  04234 91644 16/// /0905 10295 40099 57005 333 69965 91215;
0114916440999992000061516004-08510+179220FM-12+000099999V0209999C000019999999N9999999N1+02521+99999100971ADDAA199000091MD1710171+9999REMSYN058AAXX  15164 91644 36/// /1800 10252 40097 57017 333 91204;EQDQ01  00002PRCP99
0114916440999992000061919004-08510+179220FM-12+000099999V0201201N003119999999N9999999N1+02671+99999101191ADDAA199000091MD1210091+9999REMSYN058AAXX  19194 91644 36/// /1206 10267 40119 52009 333 91210;EQDQ01  00002PRCP99
0114916440999992000062015004-08510+179220FM-12+000099999V0201101N007219999999N9999999N1+02791+99999100981ADDAA199000091MD1710151+9999REMSYN058AAXX  20154 91644 36/// /1114 10279 40098 57015 333 91219;EQDQ01  00002PRCP99
0114916440999992000062423004-08510+179220FM-12+000099999V0201001N005719999999N9999999N1+03121+99999100791ADDAA199000091MD1710091+9999REMSYN058AAXX  24234 91644 36/// /1011 10312 40079 57009 333 91214;EQDQ01  00002PRCP99
0114916440999992000062501004-08510+179220FM-12+000099999V0201001N004619999999N9999999N1+03181+99999100651ADDAA199000091MD1710211+9999REMSYN058AAXX  25014 91644 36/// /1009 10318 40065 57021 333 91214;EQDQ01  00002PRCP99
0114916440999992000062903004-08510+179220FM-12+000099999V0200701N002619999999N9999999N1+03121+99999100571ADDAA199000091MD1710221+9999REMSYN058AAXX  29034 91644 36/// /0705 10312 40057 57022 333 91208;EQDQ01  00002PRCP99
0114916440999992000070205004-08510+179220FM-12+000099999V0200501N002119999999N9999999N1+02911+99999100661ADDAA199000091MD1710011+9999REMSYN058AAXX  02054 91644 36/// /0504 10291 40066 57001 333 91213;EQDQ01  00002PRCP99
0114916440999992000070415004-08510+179220FM-12+000099999V0201001N006719999999N9999999N1+02811+99999100671ADDAA199000091MD1710111+9999REMSYN058AAXX  04154 91644 36/// /1013 10281 40067 57011 333 91218;EQDQ01  00002PRCP99
0114916440999992000070802004-08510+179220FM-12+000099999V0200701N002619999999N9999999N1+03051+99999100511ADDAA199000091MD1710261+9999REMSYN058AAXX  08024 91644 36/// /0705 10305 40051 57026 333 91209;EQDQ01  00002PRCP99
0114916440999992000070922004-08510+179220FM-12+000099999V0200601N003619999999N9999999N1+03061+99999100971ADDAA199000091MD1210091+9999REMSYN058AAXX  09224 91644 36/// /0607 10306 40097 52009 333 91211;EQDQ01  00002PRCP99
0114916440999992000071400004-08510+179220FM-12+000099999V0201001N003619999999N9999999N1+03161+99999101201ADDAA199000091MD1710111+9999REMSYN058AAXX  14004 91644 36/// /1007 10316 40120 57011 333 91209;EQDQ01  00002PRCP99
0114916440999992000071719004-08510+179220FM-12+000099999V0201001N005719999999N9999999N1+02731+99999101051ADDAA199000091MD1210101+9999REMSYN058AAXX  17194 91644 36/// /1011 10273 40105 52010 333 91215;EQDQ01  00002PRCP99
0101916440999992000072321004-08510+179220FM-12+000099999V0200301N002119999999N9999999N1+03101+99999101131ADDAA101000591MD1210101+9999REMSYN064AAXX  23214 91644 16/// /0304 10310 40113 52010 333 69965 91208;
0101916440999992000080300004-08510+179220FM-12+000099999V0201101N003119999999N9999999N1+02451+99999101161ADDAA101000591MD1210021+9999REMSYN064AAXX  03004 91644 16/// /1106 10245 40116 52002 333 69945 91218;
0114916440999992000080400004-08510+179220FM-12+000099999V0200901N002119999999N9999999N1+03081+99999100921ADDAA199000091MD1710191+9999REMSYN058AAXX  04004 91644 36/// /0904 10308 40092 57019 333 91207;EQDQ01  00002PRCP99
0114916440999992000080421004-08510+179220FM-12+000099999V0201101N000519999999N9999999N1+03131+99999101051ADDAA199000091MD1210161+9999REMSYN058AAXX  04214 91644 36/// /1101 10313 40105 52016 333 91202;EQDQ01  00002PRCP99
0114916440999992000080503004-08510+179220FM-12+000099999V0201101N003119999999N9999999N1+03131+99999100661ADDAA199000091MD1710221+9999REMSYN058AAXX  05034 91644 36/// /1106 10313 40066 57022 333 91209;EQDQ01  00002PRCP99
0114916440999992000080716004-08510+179220FM-12+000099999V0201001N003119999999N9999999N1+02671+99999101021ADDAA199000091MD1710041+9999REMSYN058AAXX  07164 91644 36/// /1006 10267 40102 57004 333 91211;EQDQ01  00002PRCP99
0114916440999992000080912004-08510+179220FM-12+000099999V0200901N004619999999N9999999N1+02801+99999100931ADDAA199000091MD1710021+9999REMSYN058AAXX  09124 91644 36/// /0909 10280 40093 57002 333 91216;EQDQ01  00002PRCP99
0114916440999992000081023004-08510+179220FM-12+000099999V0201101N006219999999N9999999N1+03141+99999100951ADDAA199000091MD1210011+9999REMSYN058AAXX  10234 91644 36/// /1112 10314 40095 52001 333 91215;EQDQ01  00002PRCP99
0114916440999992000081404004-08510+179220FM-12+000099999V0201001N006219999999N9999999N1+03111+99999100651ADDAA199000091MD1710131+9999REMSYN058AAXX  14044 91644 36/// /1012 10311 40065 57013 333 91214;EQDQ01  00002PRCP99
0114916440999992000081803004-08510+179220FM-12+000099999V0200901N003119999999N9999999N1+03051+99999100651ADDAA199000091MD1710181+9999REMSYN058AAXX  18034 91644 36/// /0906 10305 40065 57018 333 91212;EQDQ01  00002PRCP99
0114916440999992000082210004-08510+179220FM-12+000099999V0201001N006219999999N9999999N1+02771+99999100911ADDAA199000091MD1210121+9999REMSYN058AAXX  22104 91644 36/// /1012 10277 40091 52012 333 91220;EQDQ01  00002PRCP99
0101916440999992000082322004-08510+179220FM-12+000099999V0200901N003119999999N9999999N1+03011+99999101091ADDAA101000191MD1210071+9999REMSYN064AAXX  23224 91644 16/// /0906 10301 40109 52007 333 69925 91214;
0114916440999992000090405004-08510+179220FM-12+000099999V0201001N004119999999N9999999N1+02991+99999100921ADDAA199000091MD1710121+9999REMSYN058AAXX  04054 91644 36/// /1008 10299 40092 57012 333 91211;EQDQ01  00002PRCP99
0114916440999992000091419004-08510+179220FM-12+000099999V0200501N003619999999N9999999N1+02891+99999100921ADDAA199000091MD1210141+9999REMSYN058AAXX  14194 91644 36/// /0507 10289 40092 52014 333 91214;EQDQ01  00002PRCP99
0114916440999992000091711004-08510+179220FM-12+000099999V0200801N002619999999N9999999N1+02801+99999101141ADDAA199000091MD1210111+9999REMSYN058AAXX  17114 91644 36/// /0805 10280 40114 52011 333 91211;EQDQ01  00002PRCP99
0114916440999992000091816004-08510+179220FM-12+000099999V0200901N004119999999N9999999N1+02781+99999100801ADDAA199000091MD1710061+9999REMSYN058AAXX  18164 91644 36/// /0908 10278 40080 57006 333 91217;EQDQ01  00002PRCP99
0114916440999992000092204004-08510+179220FM-12+000099999V0201101N005719999999N9999999N1+03031+99999100841ADDAA199000091MD1710111+9999REMSYN058AAXX  22044 91644 36/// /1111 10303 40084 57011 333 91216;EQDQ01  00002PRCP99
0114916440999992000092310004-08510+179220FM-12+000099999V0200601N002619999999N9999999N1+02801+99999101091ADDAA199000091MD1210151+9999REMSYN058AAXX  23104 91644 36/// /0605 10280 40109 52015 333 91211;EQDQ01  00002PRCP99
0114916440999992000092902004-08510+179220FM-12+000099999V0201101N005119999999N9999999N1+03361+99999101201ADDAA199000091MD1710221+9999REMSYN058AAXX  29024 91644 36/// /1110 10336 40120 57022 333 91213;EQDQ01  00002PRCP99
0114916440999992000093012004-08510+179220FM-12+000099999V0201001N006219999999N9999999N1+02821+99999101181ADDAA199000091MD1710031+9999REMSYN058AAXX  30124 91644 36/// /1012 10282 40118 57003 333 91217;EQDQ01  00002PRCP99
0114916440999992000100214004-08510+179220FM-12+000099999V0200901N003619999999N9999999N1+02721+99999100801ADDAA199000091MD1710151+9999REMSYN058AAXX  02144 91644 36/// /0907 10272 40080 57015 333 91222;EQDQ01  00002PRCP99
0114916440999992000101204004-08510+179220FM-12+000099999V0200601N002619999999N9999999N1+03151+99999100601ADDAA199000091MD1710151+9999REMSYN058AAXX  12044 91644 36/// /0605 10315 40060 57015 333 91208;EQDQ01  00002PRCP99
0114916440999992000101704004-08510+179220FM-12+000099999V0201001N004619999999N9999999N1+03131+99999100621ADDAA199000091MD1710121+9999REMSYN058AAXX  17044 91644 36/// /1009 10313 40062 57012 333 91213;EQDQ01  00002PRCP99
0114916440999992000102515004-08510+179220FM-12+000099999V0200301N002119999999N9999999N1+02741+99999100791ADDAA199000091MD1710161+9999REMSYN058AAXX  25154 91644 36/// /0304 10274 40079 57016 333 91207;EQDQ01  00002PRCP99
0114916440999992000102522004-08510+179220FM-12+000099999V0200501N002619999999N9999999N1+03181+99999101091ADDAA199000091MD1210081+9999REMSYN058AAXX  25224 91644 36/// /0505 10318 40109 52008 333 91209;EQDQ01  00002PRCP99
0101916440999992000102620004-08510+179220FM-12+000099999V0200501N003119999999N9999999N1+03161+99999101041ADDAA101000591MD1210161+9999REMSYN064AAXX  26204 91644 16/// /0506 10316 40104 52016 333 69945 91208;
0114916440999992000110105004-08510+179220FM-12+000099999V0200501N002119999999N9999999N1+02801+99999100801ADDAA199000091MD1210021+9999REMSYN058AAXX  01054 91644 36/// /0504 10280 40080 52002 333 91211;EQDQ01  00002PRCP99
0114916440999992000110400004-08510+179220FM-12+000099999V0200701N002119999999N9999999N1+02811+99999100991ADDAA199000091MD1710161+9999REMSYN058AAXX  04004 91644 36/// /0704 10281 40099 57016 333 91208;EQDQ01  00002PRCP99
0114916440999992000110519004-08510+179220FM-12+000099999V0200801N001519999999N9999999N1+02931+99999101091ADDAA199000091MD1210191+9999REMSYN058AAXX  05194 91644 36/// /0803 10293 40109 52019 333 91207;EQDQ01  00002PRCP99
0114916440999992000110614004-08510+179220FM-12+000099999V0201101N004619999999N9999999N1+02741+99999100771ADDAA199000091MD1710231+9999REMSYN058AAXX  06144 91644 36/// /1109 10274 40077 57023 333 91212;EQDQ01  00002PRCP99
0114916440999992000110901004-08510+179220FM-12+000099999V0202901N002119999999N9999999N1+02911+99999100791ADDAA199000091MD1710181+9999REMSYN058AAXX  09014 91644 36/// /2904 10291 40079 57018 333 91209;EQDQ01  00002PRCP99
0114916440999992000111309004-08510+179220FM-12+000099999V0200501N003119999999N9999999N1+02871+99999100751ADDAA199000091MD1210211+9999REMSYN058AAXX  13094 91644 36/// /0506 10287 40075 52021 333 91215;EQDQ01  00002PRCP99
0184916480999992000011606004-10750+179500FM-12+000399999V0203501N002112200019N0500001N1+02911+02571100811ADDAA199000091AY111061AY201061GF102991021021008001001001MD1310091+9999MW1021REMSYN080    AAXX  16064 91648 31599 23504 10291 20257 40081 53009 70210 82200 333 568//;EQDQ01  00002PRCP99
0180916480999992000051112004-10750+179500FM-12+000399999V0201401N003112200019N0500001N1+02821+02511101081ADDAA199000091AY101061AY201061GF103991031021004501001011MD1810091+9999MW1021REMSYN076AAXX  11124 91648 31499 31406 10282 20251 40108 58009 70200 83201 333 563/9;EQDQ01  00002PRCP99
0180916480999992000052706004-10750+179500FM-12+000399999V0209999C000012200019N0000001N1+02811+02471100921ADDAA199000091AY101061AY201061GF101991011011008001001001MD1310061+9999MW1021REMSYN076AAXX  27064 91648 31500 10000 10281 20247 40092 53006 70200 81100 333 562//;EQDQ01  00002PRCP99
0199916480999992000060612004-10750+179500FM-12+000399999V0200801N003111050019N0500001N1+02721+02451101121ADDAA199000091AY121061AY221061GF106991021021008001001081KA1240M+03021MD1810071+9999MW1021REMSYN082AAXX  06124 91648 31599 60806 10272 20245 40112 58007 70222 82208 333 10302 562/9;EQDQ01  00002PRCP99
0167916480999992000062206004-10750+179500FM-12+000399999V0209999C000010450019N0200001N1+02561+02471101001ADDAA106001091AY181061AY221061GF108991031031004501071999MD1810071+9999MW1151REMSYN082AAXX  22064 91648 11498 80000 10256 20247 40100 58007 60011 71582 8337/ 333 5629/;
0179916480999992000101300004-10750+179500FM-12+000399999V0200801N001012200019N0500001N1+03151+02401100981ADDAA199000091AY101061AY201061GF101991011011008001001001KA1240N+02461MW1021REMSYN076AAXX  13004 91648 31599 10802 10315 20240 40098 70200 81100 333 20246 562//;EQDQ01  00002PRCP99
0217916500999992000011318004-12500+177050FM-12+0026NFNR V0200801N001510060019N0500001N1+02551+02501100811ADDAA106009991AY181061AY291061GA1021+005409099GA2031+006009089GF106991061091008001999999MD1310061+9999MW1011REMSYN100AAXX  13184 91650 11599 60803 10255 2025/ 40081 53006 60101 70189 869// 333 562// 82918 83820 85080;
0202916500999992000020218004-12500+177050FM-12+0026NFNR V0209999C000012200019N0500001N1+02491+02301101281ADDAA199000091AY101061AY201061GA1011+007509029GF102991011011008001001011MD1310011+9999MW1021REMSYN082AAXX  02184 91650 31599 20000 10249 2023/ 40128 53001 70200 81101 333 569/9 81825;EQDQ01  00002PRCP99
0208916500999992000030600004-12500+177050FM-12+0026NFNR V0200301N003112200019N0500001N1+02991+02501100971ADDAA199000021AY121061AY211061GA1021+006609089GF104991041081008001001011KA1240N+02541MD1610041+9999MW1011REMSYN094AAXX  06004 91650 31599 40306 10299 2025/ 40097 56004 70121 84801 333 20254 561/9 82822 83650;
0178916500999992000031203004-12500+177050FM-12+0026NFNR V0200801N00621105001CN0500001N1+03001+02501100851ADDAY111031AY211031GA1021+007509089GF105991031081008001001021MD1710081+9999MW1031REMSYN088AAXX  12034 91650 41599 50812 10300 2025/ 40085 57008 70311 83802 333 562/9 82825 85080;
0202916500999992000040718004-12500+177050FM-12+0026NFNR V0200801N003112200019N0500001N1+02741+02301100941ADDAA199000091AY101061AY201061GA1011+007509029GF102991011011008001001011MD1310051+9999MW1011REMSYN082AAXX  07184 91650 31599 20806 10274 2023/ 40094 53005 70100 81101 333 569/9 81825;EQDQ01  00002PRCP99
0200916500999992000041309004-12500+177050FM-12+0026NFNR V0202801N00261015001CN0200001N1+02761+02501101011ADDAY181031AY221031GA1021+006609089GA2031+015009069GF107991041081008001031021MD1210101+9999MW1021REMSYN094AAXX  13094 91650 41598 72805 10276 2025/ 40101 52010 70282 84832 333 56999 82822 83650 85080;
0202916500999992000042718004-12500+177050FM-12+0026NFNR V0200801N001512200019N0500001N1+02771+02501100971ADDAA199000091AY101061AY201061GA1021+006609029GF103991021081008001001011MD1310051+9999MW1031REMSYN082AAXX  27184 91650 31599 30803 10277 2025/ 40097 53005 70300 82801 333 569/9 82822;EQDQ01  00002PRCP99
0178916500999992000051103004-12500+177050FM-12+0026NFNR V0200801N00151105001CN0500001N1+03171+02501100981ADDAY121031AY221031GA1031+006609089GF105991031081008001001021MD1710141+9999MW1031REMSYN088AAXX  11034 91650 41599 50803 10317 2025/ 40098 57014 70322 83802 333 562/9 83822 84080;
0230916500999992000052500004-12500+177050FM-12+0026NFNR V0209999C000010150019N0500001N1+02881+02501101061ADDAA199000021AY121061AY221061GA1031+006609089GA2031+015009069GF107991051081008001031999KA1240N+02381MD1810031+9999MW1031REMSYN100AAXX  25004 91650 31599 70000 10288 2025/ 40106 58003 70322 8583/ 333 20238 5699/ 83822 83650 85362;
0208916500999992000061706004-12500+177500FM-12+0026NFNR V0201201N00151105001CN0200001N1+02771+02401101201ADDAA199000091AY111061AY211061GA1021+007509089GF105991031081008001001021MD1310051+9999MW1021REMSYN088AAXX  17064 91650 31598 51203 10277 2024/ 40120 53005 70211 83802 333 562/9 82825 83080;EQDQ01  00002PRCP99
0236916500999992000062300004-12500+177500FM-12+0026NFNR V0201201N003610150019N0200001N1+02411+02201101111ADDAA106007191AY121061AY281061GA1041+006609089GA2051+015009069GF107991061081008001071999KA1240N+02401MD1810011+9999MW1801REMSYN106AAXX  23004 91650 11598 71207 10241 2022/ 40111 58001 60071 78028 8687/ 333 20240 5629/ 84822 85650 85462;
0208916500999992000062518004-12500+177500FM-12+0026NFNR V0209999C000012200019N0500001N1+02611+02301100921ADDAA199000091AY101061AY201061GA1021+006009089GF104991021081008001001011MD1610021+9999MW1031REMSYN088AAXX  25184 91650 31599 40000 10261 2023/ 40092 56002 70300 82801 333 562/9 82820 83080;EQDQ01  00002PRCP99
0172916500999992000062521004-12500+177500FM-12+0026NFNR V0200801N001512200019N0500001N1+02981+02501100981ADDAY101031AY201031GA1031+006609029GF104991041081008001001001MD1210061+9999MW1021REMSYN082AAXX  25214 91650 41599 40803 10298 2025/ 40098 52006 70200 84800 333 569// 83822;
0208916500999992000070112004-12500+177500FM-12+0026NFNR V0209999C000012200019N0200001N1+02501+02301100951ADDAA106003091AY181061AY281061GA1021+006609029GF102991021081008001001001KA1240M+02751MD1810051+9999MW1011REMSYN094AAXX  01124 91650 11598 20000 10250 2023/ 40095 58005 60031 70188 82800 333 10275 569// 82822;
0172916500999992000070703004-12500+177500FM-12+0026NFNR V0201101N001512200019N0500001N1+03091+02801100821ADDAY101031AY201031GA1021+007509029GF104991031081008001031001MD1710151+9999MW1151REMSYN082AAXX  07034 91650 41599 41103 10309 2028/ 40082 57015 71500 83830 333 5629/ 82825;
0172916500999992000071409004-12500+177500FM-12+0026NFNR V0209999C000012200019N0200001N1+02681+02401101261ADDAY101031AY201031GA1021+006609029GF102991021011008001001001MD1210141+9999MW1021REMSYN082AAXX  14094 91650 41598 20000 10268 2024/ 40126 52014 70200 82100 333 569// 82822;
0214916500999992000072300004-12500+177040FM-12+0026NFNR V0201201N00261220001CN0500001N1+02891+02501101201ADDAA106003091AY181061AY281061GA1041+006609089GF106991041081008001001011KA1240N+02471MD1810021+9999MW1151REMSYN100AAXX  23004 91650 11599 61205 10289 2025/ 40120 58002 60031 71588 84801 333 20247 562/9 84822 83080;
0178916500999992000072409004-12500+177040FM-12+0026NFNR V0200901N00151105001CN0200001N1+02601+02301101261ADDAY121031AY221031GA1021+006609089GF105991021081008001001021MD1210081+9999MW1011REMSYN088AAXX  24094 91650 41598 50903 10260 2023/ 40126 52008 70122 82802 333 569/9 82822 84080;
0172916500999992000092015004-12500+177040FM-12+0026NFNR V0209999C000012200019N0200001N1+02501+02401101251ADDAY181031AY211031GA1021+006609029GF104991041081008001001001MD1810051+9999MW1011REMSYN082AAXX  20154 91650 41598 40000 10250 2024/ 40125 58005 70181 84800 333 569// 82822;
0172916500999992000092209004-12500+177040FM-12+0026NFNR V0201001N002612200019N0200001N1+02721+02301101181ADDAY111031AY201031GA1011+007509029GF102991021081008001001001MD1210071+9999MW1011REMSYN082AAXX  22094 91650 41598 21005 10272 2023/ 40118 52007 70110 82800 333 569// 81825;
0172916500999992000101803004-12500+177040FM-12+0026NFNR V0201101N002612200019N0500001N1+02921+02201100971ADDAY111031AY211031GA1031+006609029GF104991031011008001001021MD1710121+9999MW1011REMSYN082AAXX  18034 91650 41599 41105 10292 2022/ 40097 57012 70111 83102 333 562/9 83822;
0172916500999992000102009004-12500+177040FM-12+0026NFNR V0209999C000012200019N0200001N1+02721+02401100921ADDAY101031AY201031GA1011+007509029GF102991011011008001001011MD1210101+9999MW1011REMSYN082AAXX  20094 91650 41598 20000 10272 2024/ 40092 52010 70100 81101 333 569/9 81825;
0172916500999992000103109004-12500+177040FM-12+0026NFNR V0209999C000012200019N0200001N1+02701+02301101111ADDAY101031AY201031GA1011+007509029GF101991011011008001001001MD1210131+9999MW1011REMSYN082AAXX  31094 91650 41598 10000 10270 2023/ 40111 52013 70100 81100 333 569// 81825;
0227916500999992000110100004-12500+177040FM-12+0026NFNR V0201101N00261105001CN0500001N1+03071+02301101021ADDAA199000091AY111061AY221061GA1041+006609089GF106991041081008001001021KA1240N+02551MD1810031+9999MW1011REMSYN094AAXX  01004 91650 31599 61105 10307 2023/ 40102 58003 70112 84802 333 20255 569/9 84822 83080;EQDQ01  00002PRCP99
0200916500999992000110121004-12500+177040FM-12+0026NFNR V0200801N002610150019N0500001N1+02821+02501101151ADDAY121031AY221031GA1021+006609089GA2041+015009069GF107991051081008001031021MD1210141+9999MW1011REMSYN094AAXX  01214 91650 41599 70805 10282 2025/ 40115 52014 70122 85832 333 5629/ 82822 84650 85462;
0208916500999992000110618004-12500+177040FM-12+0026NFNR V0209999C00001220001CN0500001N1+02501+02401101121ADDAA199000091AY101061AY211061GA1021+006609089GF106991021081008001001011MD1310081+9999MW1031REMSYN088AAXX  06184 91650 31599 60000 10250 2024/ 40112 53008 70301 82801 333 569/9 82822 85080;EQDQ01  00002PRCP99
0189916500999992000111706004-12500+177040FM-12+0026NFNR V0201101N00261105001CN0500001N1+02781+02301100861ADDAA199000021AY111061AY211061GA1021+006609089GF105991031081008001001021MD1310021+9999MW1011REMSYN088AAXX  17064 91650 31599 51105 10278 2023/ 40086 53002 70111 83802 333 562/9 82822 84080;
0172916500999992000111803004-12500+177040FM-12+0026NFNR V0200801N002612200019N0500001N1+02941+02501100731ADDAY111031AY211031GA1031+006609029GF104991041081008001001001MD1710131+9999MW1011REMSYN082AAXX  18034 91650 41599 40805 10294 2025/ 40073 57013 70111 84800 333 562// 83822;
0208916500999992000113018004-12500+177040FM-12+0026NFNR V0209999C000012200019N0500001N1+02671+02501100861ADDAA199000091AY111061AY211061GA1021+006609089GF104991021081008001031001MD1310051+9999MW1021REMSYN088AAXX  30184 91650 31599 40000 10267 2025/ 40086 53005 70211 82830 333 5699/ 82822 83362;EQDQ01  00002PRCP99
0200916500999992000120615004-12500+177040FM-12+0026NFNR V0200801N002610150019N0200001N1+02501+02301100701ADDAY181031AY221031GA1031+006609089GA2031+015009069GF108991051081008001071999MD1710081+9999MW1021REMSYN094AAXX  06154 91650 41598 80805 10250 2023/ 40070 57008 70282 8587/ 333 5699/ 83822 83650 88460;
0200916500999992000121109004-12500+177040FM-12+0026NFNR V0200801N00261015001CN0200001N1+02801+02501100791ADDAY121031AY221031GA1021+006009089GA2031+015009069GF107991041081008001071999MD1110051+9999MW1011REMSYN094AAXX  11094 91650 41598 70805 10280 2025/ 40079 51005 70122 8487/ 333 5699/ 82820 83650 86461;
0172916500999992000122815004-12500+177040FM-12+0026NFNR V0200801N002612200019N0200001N1+02761+02601100701ADDAY101031AY201031GA1021+006609029GF102991021011008001001001MD1710061+9999MW1031REMSYN082AAXX  28154 91650 41598 20805 10276 2026/ 40070 57006 70300 82100 333 569// 82822;
0090916520999992000012212004-16130-179980FM-12+006399999V0202301N002119999999N9999999N1+02531+02411100461ADDAA199000091REMSYN048AAXX  22124 91652 36/// /2304 10253 20241 40046;EQDQ01  00002PRCP99
0090916520999992000012706004-16130-179980FM-12+006399999V0203301N003619999999N9999999N1+02741+02481100921ADDAA199000091REMSYN048AAXX  27064 91652 36/// /3307 10274 20248 40092;EQDQ01  00002PRCP99
0090916520999992000020409004-16130-179980FM-12+006399999V0200901N002619999999N9999999N1+02721+02321101121ADDAA199000091REMSYN048AAXX  04094 91652 36/// /0905 10272 20232 40112;EQDQ01  00002PRCP99
0077916520999992000020912004-16130-179980FM-12+006399999V0209999C002119999999N9999999N1+02561+02411101281ADDAA101007191REMSYN054AAXX  09124 91652 16/// /0004 10256 20241 40128 60075;
0090916520999992000022909004-16130-179980FM-12+006399999V0201001N002619999999N9999999N1+02721+02361100971ADDAA199000091REMSYN048AAXX  29094 91652 36/// /1005 10272 20236 40097;EQDQ01  00002PRCP99
0090916520999992000030100004-16130-179980FM-12+006399999V0203401N004619999999N9999999N1+02801+02461100931ADDAA199000091REMSYN048AAXX  01004 91652 36/// /3409 10280 20246 40093;EQDQ01  00002PRCP99
0090916520999992000030115004-16130-179980FM-12+006399999V0202501N005119999999N9999999N1+02571+02371100971ADDAA199000091REMSYN048AAXX  01154 91652 36/// /2510 10257 20237 40097;EQDQ01  00002PRCP99
0090916520999992000032106004-16130-179980FM-12+006399999V0200901N002619999999N9999999N1+02721+02371100901ADDAA199000091REMSYN048AAXX  21064 91652 36/// /0905 10272 20237 40090;EQDQ01  00002PRCP99
0090916520999992000033006004-16130-179980FM-12+006399999V0201401N003119999999N9999999N1+02721+02311100951ADDAA199000091REMSYN048AAXX  30064 91652 36/// /1406 10272 20231 40095;EQDQ01  00002PRCP99
0077916520999992000040500004-16130-179980FM-12+006399999V0200701N001519999999N9999999N1+02731+02351100571ADDAA101000591REMSYN054AAXX  05004 91652 16/// /0703 10273 20235 40057 69965;
0077916520999992000040615004-16130-179980FM-12+006399999V0203001N007219999999N9999999N1+02531+02371100671ADDAA101001091REMSYN054AAXX  06154 91652 16/// /3014 10253 20237 40067 60015;
0090916520999992000042415004-16130-179980FM-12+006399999V0200801N002619999999N9999999N1+02651+02311101001ADDAA199000091REMSYN048AAXX  24154 91652 36/// /0805 10265 20231 40100;EQDQ01  00002PRCP99
0090916520999992000070500004-16130-179970FM-12+006399999V0201401N003119999999N9999999N1+02681+02371101111ADDAA199000091REMSYN048AAXX  05004 91652 36/// /1406 10268 20237 40111;EQDQ01  00002PRCP99
0090916520999992000080303004-16130-179970FM-12+006399999V0201601N004619999999N9999999N1+02611+02181101131ADDAA199000091REMSYN048AAXX  03034 91652 36/// /1609 10261 20218 40113;EQDQ01  00002PRCP99
0090916520999992000081012004-16130-179970FM-12+006399999V0201201N004619999999N9999999N1+02461+02131101381ADDAA199000091REMSYN048AAXX  10124 91652 36/// /1209 10246 20213 40138;EQDQ01  00002PRCP99
0090916520999992000081812004-16130-179970FM-12+006399999V0201001N003119999999N9999999N1+02451+02201101181ADDAA199000091REMSYN048AAXX  18124 91652 36/// /1006 10245 20220 40118;EQDQ01  00002PRCP99
0090916520999992000090203004-16130-179970FM-12+006399999V0201701N006719999999N9999999N1+02751+02161101231ADDAA199000091REMSYN048AAXX  02034 91652 36/// /1713 10275 20216 40123;EQDQ01  00002PRCP99
0090916520999992000090321004-16130-179970FM-12+006399999V0201301N001519999999N9999999N1+02841+02371101431ADDAA199000091REMSYN048AAXX  03214 91652 36/// /1303 10284 20237 40143;EQDQ01  00002PRCP99
0090916520999992000100715004-16130-179970FM-12+006399999V0201601N008219999999N9999999N1+02471+02171101001ADDAA199000091REMSYN048AAXX  07154 91652 36/// /1616 10247 20217 40100;EQDQ01  00002PRCP99
0090916520999992000101121004-16130-179970FM-12+006399999V0200401N002619999999N9999999N1+02721+02371101041ADDAA199000091REMSYN048AAXX  11214 91652 36/// /0405 10272 20237 40104;EQDQ01  00002PRCP99
0090916520999992000111621004-16130-179970FM-12+006399999V0201501N005119999999N9999999N1+02731+02361101271ADDAA199000091REMSYN048AAXX  16214 91652 36/// /1510 10273 20236 40127;EQDQ01  00002PRCP99
0090916520999992000112009004-16130-179970FM-12+006399999V0201401N004119999999N9999999N1+02491+02121100821ADDAA199000091REMSYN048AAXX  20094 91652 36/// /1408 10249 20212 40082;EQDQ01  00002PRCP99
0090916520999992000112100004-16130-179970FM-12+006399999V0201501N005719999999N9999999N1+02901+02321100771ADDAA199000091REMSYN048AAXX  21004 91652 36/// /1511 10290 20232 40077;EQDQ01  00002PRCP99
0090916520999992000112412004-16130-179970FM-12+006399999V0201001N003119999999N9999999N1+02611+02421101041ADDAA199000091REMSYN048AAXX  24124 91652 36/// /1006 10261 20242 40104;EQDQ01  00002PRCP99
0090916520999992000120318004-16130-179970FM-12+006399999V0201201N003119999999N9999999N1+02491+02371100991ADDAA199000091REMSYN048AAXX  03184 91652 36/// /1206 10249 20237 40099;EQDQ01  00002PRCP99
0224916590999992000012106004-17000+178700FM-12+003699999V0201401N00261220001CN0500001N1+02871+02401999999ADDAA199000091AY121061AY221061GA1031+007509089GF106991041081008001001011MD1310041+9999MW1021REMSYN088AAXX  21064 91659 31599 61405 10287 2024/ 40119 53004 70222 84801 333 563/9 83825 86080;EQDQ01+101193APOSLPQ02  00002PRCP99
0227916590999992000012800004-17000+178700FM-12+003699999V0209999C00001004201CN0500001N1+03001+02501101031ADDAA199000091AY101061AY211061GA1011+004509099GF105991051091004501001001KA1240N+02411MD1810081+9999MW1031REMSYN094AAXX  28004 91659 31499 50000 10300 2025/ 40103 58008 70301 85900 333 20241 569// 81915 84820;EQDQ01  00002PRCP99
0178916590999992000021909004-17000+178700FM-12+003699999V0209999C000010450019N0200001N1+02581+02401100921ADDAY121031AY221031GA1011+004509099GF106991031091004501071031MD1210181+9999MW1011REMSYN088AAXX  19094 91659 41498 60000 10258 2024/ 40092 52018 70122 83973 333 56999 81915 83825;
0208916590999992000022212004-17000+178700FM-12+003699999V0203601N002112200019N0200001N1+02671+02501101171ADDAA199000021AY121061AY211061GA1021+007509089GF104991021011008001001011KA1240M+03131MD1810021+9999MW1011REMSYN094AAXX  22124 91659 31598 43604 10267 2025/ 40117 58002 70121 82101 333 10313 569/9 82825 84080;
0236916590999992000022400004-17000+178700FM-12+003699999V0201401N005710420019N0500001N1+03021+02401101041ADDAA106002091AY181061AY221061GA1031+007209089GA2031+042009039GF107991031021008001031011KA1240N+02631MD1810111+9999MW1021REMSYN106AAXX  24004 91659 11599 71411 10302 2024/ 40104 58011 60021 70282 83231 333 20263 56399 83824 83364 86080;
0178916590999992000030121004-17000+178700FM-12+003699999V0203401N00411012001CN0500001N1+02851+02601101021ADDAY121031AY281031GA1041+006009089GF107991071081008001999999MD1210101+9999MW1011REMSYN088AAXX  01214 91659 41599 73408 10285 2026/ 40102 52010 70128 878// 333 568// 84820 85650;
0214916590999992000030912004-17000+178700FM-12+003699999V0203401N00571007501CN0200001N1+02721+02201100721ADDAA106000191AY121061AY281061GA1011+006009099GF106991061091008001999999KA1240M+03271MD1710051+9999MW1131REMSYN100AAXX  09124 91659 11598 63411 10272 2022/ 40072 57005 69911 71328 869// 333 10327 569// 81920 85650;
0178916590999992000031315004-17000+178700FM-12+003699999V0209999C00001220001CN0200001N1+02681+02401101071ADDAY121031AY221031GA1021+007209089GF105991021011008001001011MD1710181+9999MW1021REMSYN088AAXX  13154 91659 41598 50000 10268 2024/ 40107 57018 70222 82101 333 569/9 82824 85080;
0214916590999992000031800004-17000+178700FM-12+003699999V0203301N00511012001CN0500001N1+02661+02401100781ADDAA106006191AY181061AY281061GA1041+007509089GF107991071081008001999999KA1240N+02411MD1810051+9999MW1021REMSYN100AAXX  18004 91659 11599 73310 10266 2024/ 40078 58005 60061 70288 878// 333 20241 569// 84825 86650;
0236916590999992000031912004-17000+178700FM-12+003699999V0209999C000010150019N0200001N1+02571+02501101091ADDAA106002091AY181061AY221061GA1031+007209089GA2031+015009069GF107991051081008001001011KA1240M+03191MD1410001+9999MW1021REMSYN106AAXX  19124 91659 11598 70000 10257 2025/ 40109 54000 60021 70282 85801 333 10319 569/9 83824 83650 85082;
0178916590999992000032821004-17000+178700FM-12+003699999V0209999C00001220001CN0500001N1+02771+02501101241ADDAY121031AY221031GA1031+007509089GF107991041081008001001011MD1210161+9999MW1031REMSYN088AAXX  28214 91659 41599 70000 10277 2025/ 40124 52016 70322 84801 333 569/9 83825 86082;
0200916590999992000041115004-17000+178700FM-12+003699999V0201401N006210075019N0200001N1+02601+02501100861ADDAY121031AY281031GA1011+004509099GA2041+007509089GF108991081091004501999999MD1710121+9999MW1251REMSYN094AAXX  11154 91659 41498 81412 10260 2025/ 40086 57012 72528 889// 333 569// 81915 84825 86650;
0230916590999992000042606004-17000+178700FM-12+003699999V0201501N003610150019N0500001N1+02731+02401101041ADDAA199000091AY121061AY221061GA1031+007209089GA2031+015009069GF107991051081008001001081MD1310101+9999MW1021REMSYN094AAXX  26064 91659 31599 71507 10273 2024/ 40104 53010 70222 85808 333 563/9 83824 83650 87280;EQDQ01  00002PRCP99
0200916590999992000042721004-17000+178700FM-12+003699999V0201401N007710144019N0100001N1+02341+02201101151ADDAY161031AY261031GA1021+004509099GA2051+014409069GF108991061091004501071999MD1210201+9999MW1951REMSYN094AAXX  27214 91659 41497 81415 10234 2022/ 40115 52020 79566 8697/ 333 5639/ 82915 85648 88461;
0178916590999992000042821004-17000+178700FM-12+003699999V0209999C00001012001CN0200001N1+02591+02401101091ADDAY121031AY221031GA1041+007509089GF107991071081008001999999MD1210241+9999MW1011REMSYN088AAXX  28214 91659 41598 70000 10259 2024/ 40109 52024 70122 878// 333 569// 84825 86650;
0202916590999992000051006004-17000+178700FM-12+003699999V0201401N001012200019N0200001N1+02621+02301101071ADDAA199000091AY101061AY201061GA1021+008409029GF102991021011008001001001MD1310091+9999MW1021REMSYN082AAXX  10064 91659 31598 21402 10262 2023/ 40107 53009 70200 82100 333 563// 82828;EQDQ01  00002PRCP99
0227916590999992000053100004-17000+178700FM-12+003699999V0201401N00511012001CN0500001N1+02681+01801101131ADDAA199000091AY121061AY221061GA1031+007509089GF105991051081008001001001KA1240N+02201MD1810141+9999MW1011REMSYN094AAXX  31004 91659 31599 51410 10268 2018/ 40113 58014 70122 85800 333 20220 569// 83825 83650;EQDQ01  00002PRCP99
0172916590999992000060221004-17000+178700FM-12+003699999V0201301N004112200019N0500001N1+02641+02101101121ADDAY101031AY201031GA1011+009009029GF101991011011012501001001MD1210061+9999MW1021REMSYN082AAXX  02214 91659 41699 11308 10264 2021/ 40112 52006 70200 81100 333 563// 81830;
0178916590999992000061403004-17000+178700FM-12+003699999V0201501N00771012001CN0200001N1+02441+02101101241ADDAY121031AY281031GA1041+007509089GF107991071081008001999999MD1710181+9999MW1151REMSYN088AAXX  14034 91659 41598 71515 10244 2021/ 40124 57018 71528 878// 333 563// 84825 85650;
0178916590999992000062421004-17000+178700FM-12+003699999V0201401N00771045001CN0500001N1+02571+02101101211ADDAY121031AY221031GA1031+007509089GF107991041081008001031999MD1210091+9999MW1021REMSYN088AAXX  24214 91659 41599 71415 10257 2021/ 40121 52009 70222 8483/ 333 5639/ 83825 87364;
0200916590999992000072503004-17000+178700FM-12+003699999V0201501N009310135019N0040001N1+02201+02201101131ADDAY121031AY261031GA1041+004509089GA2041+013509069GF108991061081004501071999MD1710101+9999MW1601REMSYN094AAXX  25034 91659 41496 81518 10220 2022/ 40113 57010 76026 8687/ 333 5699/ 84815 84645 88461;
0202916590999992000072806004-17000+178700FM-12+003699999V0201401N005112200019N0500001N1+02431+01601101331ADDAA199000091AY101061AY201061GA1011+009009029GF101991011011012501001001MD1310061+9999MW1011REMSYN082AAXX  28064 91659 31699 11410 10243 2016/ 40133 53006 70100 81100 333 569// 81830;EQDQ01  00002PRCP99
0172916590999992000081221004-17000+178700FM-12+003699999V0201501N003112200019N0500001N1+02491+02001101531ADDAY101031AY201031GA1041+007509029GF104991041021008001001001MD1210181+9999MW1021REMSYN082AAXX  12214 91659 41599 41506 10249 2020/ 40153 52018 70200 84200 333 569// 84825;
0172916590999992000090621004-17000+178700FM-12+003699999V0201501N005112200019N0500001N1+02721+02201101541ADDAY101031AY201031GA1011+009009029GF101991011011012501001001MD1210121+9999MW1021REMSYN082AAXX  06214 91659 41699 11510 10272 2022/ 40154 52012 70200 81100 333 569// 81830;
0221916590999992000091000004-17000+178700FM-12+003699999V0201501N003112200019N0500001N1+02881+02301101181ADDAA199000091AY101061AY201061GA1011+009009029GF101991011011012501001001KA1240N+02251MD1810171+9999MW1021REMSYN088AAXX  10004 91659 31699 11506 10288 2023/ 40118 58017 70200 81100 333 20225 569// 81830;EQDQ01  00002PRCP99
0208916590999992000100612004-17000+178700FM-12+003699999V0201401N01031012001CN0200001N1+02461+02001101321ADDAA199000021AY121061AY221061GA1041+007509089GF107991071081008001999999KA1240M+02731MD1810031+9999MW1021REMSYN094AAXX  06124 91659 31598 71420 10246 2020/ 40132 58003 70222 878// 333 10273 569// 84825 84650;
0178916590999992000102909004-17000+178700FM-12+003699999V0209999C000012200019N0200001N1+02351+02301101461ADDAY121031AY281031GA1011+005409099GF103991031091004501001001MD1410001+9999MW1011REMSYN088AAXX  29094 91659 41498 30000 10235 2023/ 40146 54000 70128 83900 333 569// 81918 83820;
0208916590999992000110706004-17000+178700FM-12+003699999V0209999C00001220001CN0500001N1+02571+02201100721ADDAA199000091AY101061AY211061GA1021+007509089GF105991031081008001001011MD1310021+9999MW1021REMSYN088AAXX  07064 91659 31599 50000 10257 2022/ 40072 53002 70201 83801 333 569/9 82825 84080;EQDQ01  00002PRCP99
0172916590999992000111021004-17000+178700FM-12+003699999V0201501N00311012001CN0500001N1+02741+02401100851ADDAY121031AY221031GA1041+007509029GF106991061081008001001001MD1210111+9999MW1031REMSYN082AAXX  10214 91659 41599 61506 10274 2024/ 40085 52011 70322 86800 333 563// 84825;
0200916590999992000120303004-17000+178700FM-12+003699999V0201401N001510075019N0500001N1+02691+02501100811ADDAY121031AY291031GA1011+004509099GA2041+007509089GF107991071091004501999999MD1710091+9999MW1291REMSYN094AAXX  03034 91659 41499 71403 10269 2025/ 40081 57009 72929 879// 333 569// 81915 84825 85080;
0076916600999992000011003004-16700+177580FM-12+005099999V0202801N006719999999N9999999N1+02731+02671100271REMSYN048AAXX  10034 91660 36/// /2813 10273 20267 40027;EQDQ01  00002PRCP06
0090916600999992000012318004-16700+177580FM-12+005099999V0200401N006719999999N9999999N1+02541+02531100311ADDAA199000091REMSYN048AAXX  23184 91660 36/// /0413 10254 20253 40031;EQDQ01  00002PRCP99
0077916600999992000012321004-16700+177580FM-12+005099999V0203401N004619999999N9999999N1+02401+02401100471ADDAA101006191REMSYN054AAXX  23214 91660 16/// /3409 10240 20240 40047 60065;
0084916600999992000020300004-16700+177580FM-12+005099999V0201201N001019999999N9999999N1+03051+02731999999ADDAA199000091REMSYN042AAXX  03004 91660 36/// /1202 10305 20273;EQDQ01  00002PRCP99
0090916600999992000020618004-16700+177580FM-12+005099999V0201101N005719999999N9999999N1+02651+02611101051ADDAA199000091REMSYN048AAXX  06184 91660 36/// /1111 10265 20261 40105;EQDQ01  00002PRCP99
0090916600999992000021009004-16700+177580FM-12+005099999V0201801N002619999999N9999999N1+02741+02621101141ADDAA199000091REMSYN048AAXX  10094 91660 36/// /1805 10274 20262 40114;EQDQ01  00002PRCP99
0090916600999992000021503004-16700+177580FM-12+005099999V0203601N005719999999N9999999N1+02831+02671100871ADDAA199000091REMSYN048AAXX  15034 91660 36/// /3611 10283 20267 40087;EQDQ01  00002PRCP99
0090916600999992000030821004-16700+177580FM-12+005099999V0200701N004119999999N9999999N1+02951+02811100821ADDAA199000091REMSYN048AAXX  08214 91660 36/// /0708 10295 20281 40082;EQDQ01  00002PRCP99
0077916600999992000031203004-16700+177580FM-12+005099999V0200101N009319999999N9999999N1+02801+02671100751ADDAA101001091REMSYN054AAXX  12034 91660 16/// /0118 10280 20267 40075 60015;
0090916600999992000040112004-16700+177580FM-12+005099999V0201501N003119999999N9999999N1+02721+02661101071ADDAA199000091REMSYN048AAXX  01124 91660 36/// /1506 10272 20266 40107;EQDQ01  00002PRCP99
0090916600999992000040612004-16700+177580FM-12+005099999V0202701N004619999999N9999999N1+02711+02671100711ADDAA199000091REMSYN048AAXX  06124 91660 36/// /2709 10271 20267 40071;EQDQ01  00002PRCP99
0090916600999992000041618004-16700+177580FM-12+005099999V0202801N009319999999N9999999N1+02551+02531100931ADDAA199000091REMSYN048AAXX  16184 91660 36/// /2818 10255 20253 40093;EQDQ01  00002PRCP99
0090916600999992000042509004-16700+177580FM-12+005099999V0201001N003119999999N9999999N1+02691+02661101051ADDAA199000091REMSYN048AAXX  25094 91660 36/// /1006 10269 20266 40105;EQDQ01  00002PRCP99
0090916600999992000101712004-16700+177570FM-12+005099999V0201201N006719999999N9999999N1+02401+02401101121ADDAA199000091REMSYN048AAXX  17124 91660 36/// /1213 10240 20240 40112;EQDQ01  00002PRCP99
0077916600999992000103103004-16700+177570FM-12+005099999V0201101N008219999999N9999999N1+02681+02671101011ADDAA101000591REMSYN054AAXX  31034 91660 16/// /1116 10268 20267 40101 69945;
0090916600999992000103109004-16700+177570FM-12+005099999V0201201N010319999999N9999999N1+02531+02521101231ADDAA199000091REMSYN048AAXX  31094 91660 36/// /1220 10253 20252 40123;EQDQ01  00002PRCP99
0077916600999992000110115004-16700+177570FM-12+005099999V0200501N004619999999N9999999N1+02271+02271101151ADDAA101004191REMSYN054AAXX  01154 91660 16/// /0509 10227 20227 40115 60045;
0090916600999992000110821004-16700+177570FM-12+005099999V0200501N007719999999N9999999N1+02791+02631100951ADDAA199000091REMSYN048AAXX  08214 91660 36/// /0515 10279 20263 40095;EQDQ01  00002PRCP99
0077916600999992000110909004-16700+177570FM-12+005099999V0200301N004619999999N9999999N1+02601+02581100921ADDAA101000191REMSYN054AAXX  09094 91660 16/// /0309 10260 20258 40092 69925;
0090916600999992000121521004-16700+177570FM-12+005099999V0202201N006219999999N9999999N1+02541+02521100671ADDAA199000091REMSYN048AAXX  15214 91660 36/// /2212 10254 20252 40067;EQDQ01  00002PRCP99
0090916600999992000122703004-16700+177570FM-12+005099999V0201101N010319999999N9999999N1+02881+02801100821ADDAA199000091REMSYN048AAXX  27034 91660 36/// /1120 10288 20280 40082;EQDQ01  00002PRCP99
0090916700999992000010712004-17150+176920FM-12+000599999V0203201N002619999999N9999999N1+02841+02531100881ADDAA106000091REMSYN048AAXX  07124 91670 36/// /3205 10284 20253 40088;EQDQ01  00002PRCP06
0076916700999992000011109004-17150+176920FM-12+000599999V0203401N006219999999N9999999N1+02781+02561100511REMSYN048AAXX  11094 91670 36/// /3412 10278 20256 40051;EQDQ01  00002PRCP06
0094916700999992000011506004-17150+176920FM-12+000599999V0203501N002619999999N9999999N1+03021+02621100791ADDAA199000091REMSYN052    AAXX  15064 91670 36/// /3505 10302 20262 40079;EQDQ01  00002PRCP99
0090916700999992000012903004-17150+176920FM-12+000599999V0200101N003119999999N9999999N1+03041+02671101021ADDAA199000091REMSYN048AAXX  29034 91670 36/// /0106 10304 20267 40102;EQDQ01  00002PRCP99
0090916700999992000020718004-17150+176920FM-12+000599999V0200701N002119999999N9999999N1+02631+02521101001ADDAA199000091REMSYN048AAXX  07184 91670 36/// /0704 10263 20252 40100;EQDQ01  00002PRCP99
0090916700999992000022115004-17150+176920FM-12+000599999V0203401N004619999999N9999999N1+02791+02601101011ADDAA199000091REMSYN048AAXX  21154 91670 36/// /3409 10279 20260 40101;EQDQ01  00002PRCP99
0090916700999992000022221004-17150+176920FM-12+000599999V0201401N003119999999N9999999N1+03021+02701101171ADDAA199000091REMSYN048AAXX  22214 91670 36/// /1406 10302 20270 40117;EQDQ01  00002PRCP99
0090916700999992000030500004-17150+176920FM-12+000599999V0200501N004619999999N9999999N1+03071+02721100911ADDAA199000091REMSYN048AAXX  05004 91670 36/// /0509 10307 20272 40091;EQDQ01  00002PRCP99
0077916700999992000032503004-17150+176920FM-12+000599999V0200901N002119999999N9999999N1+03051+02721100821ADDAA101000191REMSYN054AAXX  25034 91670 16/// /0904 10305 20272 40082 69925;
0077916700999992000032718004-17150+176920FM-12+000599999V0200101N004119999999N9999999N1+02501+02471101111ADDAA101008991REMSYN054AAXX  27184 91670 16/// /0108 10250 20247 40111 60095;
0090916700999992000042309004-17150+176920FM-12+000599999V0200701N002619999999N9999999N1+02671+02481101271ADDAA199000091REMSYN048AAXX  23094 91670 36/// /0705 10267 20248 40127;EQDQ01  00002PRCP99
0090916700999992000043012004-17150+176920FM-12+000599999V0200801N002119999999N9999999N1+02481+02431100961ADDAA199000091REMSYN048AAXX  30124 91670 36/// /0804 10248 20243 40096;EQDQ01  00002PRCP99
0090916700999992000051218004-17150+176920FM-12+000599999V0200801N004619999999N9999999N1+02671+02551101071ADDAA199000091REMSYN048AAXX  12184 91670 36/// /0809 10267 20255 40107;EQDQ01  00002PRCP99
0090916700999992000060212004-17150+176920FM-12+000599999V0200901N006719999999N9999999N1+02641+02461101191ADDAA199000091REMSYN048AAXX  02124 91670 36/// /0913 10264 20246 40119;EQDQ01  00002PRCP99
0090916700999992000070521004-17150+176920FM-12+000599999V0200401N003119999999N9999999N1+02641+02531100901ADDAA199000091REMSYN048AAXX  05214 91670 36/// /0406 10264 20253 40090;EQDQ01  00002PRCP99
0090916700999992000070700004-17150+176920FM-12+000599999V0201701N003619999999N9999999N1+02831+02471100971ADDAA199000091REMSYN048AAXX  07004 91670 36/// /1707 10283 20247 40097;EQDQ01  00002PRCP99
0090916700999992000071421004-17150+176920FM-12+000599999V0200201N006219999999N9999999N1+02731+02451101131ADDAA199000091REMSYN048AAXX  14214 91670 36/// /0212 10273 20245 40113;EQDQ01  00002PRCP99
0090916700999992000081418004-17150+176920FM-12+000599999V0201401N005719999999N9999999N1+02391+02101101211ADDAA199000091REMSYN048AAXX  14184 91670 36/// /1411 10239 20210 40121;EQDQ01  00002PRCP99
0090916700999992000082012004-17150+176920FM-12+000599999V0200101N003619999999N9999999N1+02441+02381100801ADDAA199000091REMSYN048AAXX  20124 91670 36/// /0107 10244 20238 40080;EQDQ01  00002PRCP99
0090916700999992000091206004-17150+176920FM-12+000599999V0201501N003619999999N9999999N1+02711+02401101251ADDAA199000091REMSYN048AAXX  12064 91670 36/// /1507 10271 20240 40125;EQDQ01  00002PRCP99
0090916700999992000091721004-17150+176920FM-12+000599999V0201301N003119999999N9999999N1+02471+02471101291ADDAA199000091REMSYN048AAXX  17214 91670 36/// /1306 10247 20247 40129;EQDQ01  00002PRCP99
0090916700999992000092406004-17150+176920FM-12+000599999V0201301N001519999999N9999999N1+02501+02131101301ADDAA199000091REMSYN048AAXX  24064 91670 36/// /1303 10250 20213 40130;EQDQ01  00002PRCP99
0090916700999992000101300004-17150+176920FM-12+000599999V0203001N005119999999N9999999N1+02921+02671100631ADDAA199000091REMSYN048AAXX  13004 91670 36/// /3010 10292 20267 40063;EQDQ01  00002PRCP99
0090916700999992000101818004-17150+176920FM-12+000599999V0200701N002619999999N9999999N1+02371+02261101051ADDAA199000091REMSYN048AAXX  18184 91670 36/// /0705 10237 20226 40105;EQDQ01  00002PRCP99
0090916700999992000102700004-17150+176920FM-12+000599999V0200901N006219999999N9999999N1+02811+02361101111ADDAA199000091REMSYN048AAXX  27004 91670 36/// /0912 10281 20236 40111;EQDQ01  00002PRCP99
0090916700999992000112709004-17150+176920FM-12+000599999V0200101N002119999999N9999999N1+02691+02501100731ADDAA199000091REMSYN048AAXX  27094 91670 36/// /0104 10269 20250 40073;EQDQ01  00002PRCP99
0090916700999992000120506004-17150+176920FM-12+000599999V0200101N004619999999N9999999N1+02741+02531100711ADDAA199000091REMSYN048AAXX  05064 91670 36/// /0109 10274 20253 40071;EQDQ01  00002PRCP99
0090916700999992000121915004-17150+176920FM-12+000599999V0201901N003119999999N9999999N1+02661+02571100481ADDAA199000091REMSYN048AAXX  19154 91670 36/// /1906 10266 20257 40048;EQDQ01  00002PRCP99
0090916700999992000122312004-17150+176920FM-12+000599999V0201701N004119999999N9999999N1+02631+02311100751ADDAA199000091REMSYN048AAXX  23124 91670 36/// /1708 10263 20231 40075;EQDQ01  00002PRCP99
0090916700999992000122800004-17150+176920FM-12+000599999V0201201N004119999999N9999999N1+02951+02501100921ADDAA199000091REMSYN048AAXX  28004 91670 36/// /1208 10295 20250 40092;EQDQ01  00002PRCP99
0076916760999992000010909004-17250-178920FM-12+000599999V0202801N002619999999N9999999N1+02561+02551100701REMSYN048AAXX  09094 91676 36/// /2805 10256 20255 40070;EQDQ01  00002PRCP06
0090916760999992000012815004-17250-178920FM-12+000599999V0200301N002119999999N9999999N1+02691+02681101111ADDAA199000091REMSYN048AAXX  28154 91676 36/// /0304 10269 20268 40111;EQDQ01  00002PRCP99
0090916760999992000020106004-17250-178920FM-12+000599999V0200801N005119999999N9999999N1+02901+02871101281ADDAA199000091REMSYN048AAXX  01064 91676 36/// /0810 10290 20287 40128;EQDQ01  00002PRCP99
0090916760999992000020321004-17250-178920FM-12+000599999V0203201N002619999999N9999999N1+02811+02801101241ADDAA199000091REMSYN048AAXX  03214 91676 36/// /3205 10281 20280 40124;EQDQ01  00002PRCP99
0090916760999992000021000004-17250-178920FM-12+000599999V0200801N004619999999N9999999N1+02921+02901101141ADDAA199000091REMSYN048AAXX  10004 91676 36/// /0809 10292 20290 40114;EQDQ01  00002PRCP99
0090916760999992000022421004-17250-178920FM-12+000599999V0200801N001519999999N9999999N1+02721+02711101221ADDAA199000091REMSYN048AAXX  24214 91676 36/// /0803 10272 20271 40122;EQDQ01  00002PRCP99
0090916760999992000031018004-17250-178920FM-12+000599999V0203201N007219999999N9999999N1+02541+02531100581ADDAA199000091REMSYN048AAXX  10184 91676 36/// /3214 10254 20253 40058;EQDQ01  00002PRCP99
0090916760999992000031615004-17250-178920FM-12+000599999V0200201N002619999999N9999999N1+02671+02671100851ADDAA199000091REMSYN048AAXX  16154 91676 36/// /0205 10267 20267 40085;EQDQ01  00002PRCP99
0090916760999992000031809004-17250-178920FM-12+000599999V0203501N004119999999N9999999N1+02651+02631100941ADDAA199000091REMSYN048AAXX  18094 91676 36/// /3508 10265 20263 40094;EQDQ01  00002PRCP99
0090916760999992000040521004-17250-178920FM-12+000599999V0203101N004119999999N9999999N1+02751+02751100671ADDAA199000091REMSYN048AAXX  05214 91676 36/// /3108 10275 20275 40067;EQDQ01  00002PRCP99
0090916760999992000041000004-17250-178920FM-12+000599999V0201801N004119999999N9999999N1+03011+02671101121ADDAA199000091REMSYN048AAXX  10004 91676 36/// /1808 10301 20267 40112;EQDQ01  00002PRCP99
0090916760999992000041215004-17250-178920FM-12+000599999V0200501N002619999999N9999999N1+02621+02611100671ADDAA199000091REMSYN048AAXX  12154 91676 36/// /0505 10262 20261 40067;EQDQ01  00002PRCP99
0090916760999992000041812004-17250-178920FM-12+000599999V0200901N002119999999N9999999N1+02621+02621101121ADDAA199000091REMSYN048AAXX  18124 91676 36/// /0904 10262 20262 40112;EQDQ01  00002PRCP99
0090916760999992000042515004-17250-178920FM-12+000599999V0200601N002119999999N9999999N1+02651+02651101011ADDAA199000091REMSYN048AAXX  25154 91676 36/// /0604 10265 20265 40101;EQDQ01  00002PRCP99
0077916760999992000051306004-17250-178920FM-12+000599999V0201001N000519999999N9999999N1+02241+02221101221ADDAA101004191REMSYN054AAXX  13064 91676 16/// /1001 10224 20222 40122 60045;
0090916760999992000122106004-17250-178920FM-12+000599999V0203101N002619999999N9999999N1+02721+02331100491ADDAA199000091REMSYN048AAXX  21064 91676 36/// /3105 10272 20233 40049;EQDQ01  00002PRCP99
0063916790999992000010402004-17600+177450FM-12+000099999V0209999V000519999999N9999999N1+02651+99999100751REMSYN054AAXX  04024 91679 46/// /9901 10265 40075 22200 00305;
0063916790999992000010422004-17600+177450FM-12+000099999V0200301N002619999999N9999999N1+02961+99999100741REMSYN054AAXX  04224 91679 46/// /0305 10296 40074 22200 00301;
0063916790999992000010608004-17600+177450FM-12+000099999V0202401N002119999999N9999999N1+02841+99999100601REMSYN054AAXX  06084 91679 46/// /2404 10284 40060 22200 00301;
0063916790999992000011300004-17600+177450FM-12+000099999V0203401N005719999999N9999999N1+02931+99999100661REMSYN054AAXX  13004 91679 46/// /3411 10293 40066 22200 00293;
0067916790999992000011600004-17600+177450FM-12+000099999V0202201N004119999999N9999999N1+02931+99999100921REMSYN058    AAXX  16004 91679 46/// /2208 10293 40092 22200 00302;
0063916790999992000012802004-17600+177450FM-12+000099999V0203001N005119999999N9999999N1+02741+99999100941REMSYN054AAXX  28024 91679 46/// /3010 10274 40094 22200 00294;
0063916790999992000021021004-17600+177450FM-12+000099999V0200301N001519999999N9999999N1+02931+99999100971REMSYN054AAXX  10214 91679 46/// /0303 10293 40097 22200 00303;
0063916790999992000021422004-17600+177450FM-12+000099999V0203601N002619999999N9999999N1+02861+99999100861REMSYN054AAXX  14224 91679 46/// /3605 10286 40086 22200 00288;
0063916790999992000021707004-17600+177450FM-12+000099999V0201301N001519999999N9999999N1+02741+99999100961REMSYN054AAXX  17074 91679 46/// /1303 10274 40096 22200 00301;
0063916790999992000022215004-17600+177450FM-12+000099999V0209999C000019999999N9999999N1+02661+99999100991REMSYN054AAXX  22154 91679 46/// /0000 10266 40099 22200 00297;
0063916790999992000022601004-17600+177450FM-12+000099999V0203101N003619999999N9999999N1+02871+99999100931REMSYN054AAXX  26014 91679 46/// /3107 10287 40093 22200 00300;
0063916790999992000030718004-17600+177450FM-12+000099999V0209999C000019999999N9999999N1+02581+99999100511REMSYN054AAXX  07184 91679 46/// /0000 10258 40051 22200 00309;
0063916790999992000031102004-17600+177450FM-12+000099999V0200101N003619999999N9999999N1+02831+99999100371REMSYN054AAXX  11024 91679 46/// /0107 10283 40037 22200 00303;
0063916790999992000031611004-17600+177450FM-12+000099999V0209999C000019999999N9999999N1+02531+99999100921REMSYN054AAXX  16114 91679 46/// /0000 10253 40092 22200 00306;
0063916790999992000031803004-17600+177450FM-12+000099999V0203601N004619999999N9999999N1+02721+99999100541REMSYN054AAXX  18034 91679 46/// /3609 10272 40054 22200 00303;
0063916790999992000032422004-17600+177450FM-12+000099999V0203301N001019999999N9999999N1+02991+99999101021REMSYN054AAXX  24224 91679 46/// /3302 10299 40102 22200 00305;
0063916790999992000032621004-17600+177450FM-12+000099999V0200401N003619999999N9999999N1+02911+99999100821REMSYN054AAXX  26214 91679 46/// /0407 10291 40082 22200 00304;
0063916790999992000032717004-17600+177450FM-12+000099999V0200601N003119999999N9999999N1+02611+99999100971REMSYN054AAXX  27174 91679 46/// /0606 10261 40097 22200 00298;
0063916790999992000032917004-17600+177450FM-12+000099999V0200501N001019999999N9999999N1+02421+99999100901REMSYN054AAXX  29174 91679 46/// /0502 10242 40090 22200 00302;
0063916790999992000040116004-17600+177450FM-12+000099999V0200601N001519999999N9999999N1+02571+99999100761REMSYN054AAXX  01164 91679 46/// /0603 10257 40076 22200 00308;
0063916790999992000040221004-17600+177450FM-12+000099999V0201901N003119999999N9999999N1+02601+99999100911REMSYN054AAXX  02214 91679 46/// /1906 10260 40091 22200 00305;
0063916790999992000040300004-17600+177450FM-12+000099999V0200101N001519999999N9999999N1+02861+99999100721REMSYN054AAXX  03004 91679 46/// /0103 10286 40072 22200 00302;
0063916790999992000040511004-17600+177450FM-12+000099999V0200501N001519999999N9999999N1+02501+99999100631REMSYN054AAXX  05114 91679 46/// /0503 10250 40063 22200 00299;
0063916790999992000040817004-17600+177450FM-12+000099999V0200901N001019999999N9999999N1+02651+99999100871REMSYN054AAXX  08174 91679 46/// /0902 10265 40087 22200 00300;
0063916790999992000041012004-17600+177450FM-12+000099999V0201001N001019999999N9999999N1+02661+99999101011REMSYN054AAXX  10124 91679 46/// /1002 10266 40101 22200 00299;
0063916790999992000041414004-17600+177450FM-12+000099999V0201601N002619999999N9999999N1+02641+99999100491REMSYN054AAXX  14144 91679 46/// /1605 10264 40049 22200 00299;
0063916790999992000050910004-17600+177450FM-12+000099999V0200601N001519999999N9999999N1+02541+99999101111REMSYN054AAXX  09104 91679 46/// /0603 10254 40111 22200 00290;
0063916790999992000051412004-17600+177450FM-12+000099999V0200901N001019999999N9999999N1+02561+99999101141REMSYN054AAXX  14124 91679 46/// /0902 10256 40114 22200 00288;
0063916790999992000051821004-17600+177450FM-12+000099999V0209999V000519999999N9999999N1+02801+99999101331REMSYN054AAXX  18214 91679 46/// /9901 10280 40133 22200 00288;
0063916790999992000051916004-17600+177450FM-12+000099999V0209999V000519999999N9999999N1+02421+99999101161REMSYN054AAXX  19164 91679 46/// /9901 10242 40116 22200 00289;
0063916790999992000052022004-17600+177450FM-12+000099999V0201501N001019999999N9999999N1+02711+99999101491REMSYN054AAXX  20224 91679 46/// /1502 10271 40149 22200 00288;
0063916790999992000053005004-17600+177450FM-12+000099999V0202401N002619999999N9999999N1+02671+99999100901REMSYN054AAXX  30054 91679 46/// /2405 10267 40090 22200 00289;
0063916790999992000060111004-17600+177450FM-12+000099999V0200401N001019999999N9999999N1+02361+99999101171REMSYN054AAXX  01114 91679 46/// /0402 10236 40117 22200 00285;
0063916790999992000060302004-17600+177450FM-12+000099999V0200301N007219999999N9999999N1+02831+99999100961REMSYN054AAXX  03024 91679 46/// /0314 10283 40096 22200 00286;
0063916790999992000060920004-17600+177450FM-12+000099999V0200301N001019999999N9999999N1+02401+99999101441REMSYN054AAXX  09204 91679 46/// /0302 10240 40144 22200 00282;
0063916790999992000061107004-17600+177450FM-12+000099999V0201301N003119999999N9999999N1+02581+99999101231REMSYN054AAXX  11074 91679 46/// /1306 10258 40123 22200 00284;
0063916790999992000061108004-17600+177450FM-12+000099999V0201201N001519999999N9999999N1+02501+99999101311REMSYN054AAXX  11084 91679 46/// /1203 10250 40131 22200 00285;
0063916790999992000061506004-17590+177450FM-12+000099999V0201401N003619999999N9999999N1+02471+99999101251REMSYN054AAXX  15064 91679 46/// /1407 10247 40125 22200 00283;
0063916790999992000061903004-17590+177450FM-12+000099999V0202301N003619999999N9999999N1+02801+99999101211REMSYN054AAXX  19034 91679 46/// /2307 10280 40121 22200 00283;
0063916790999992000062408004-17590+177450FM-12+000099999V0203201N001019999999N9999999N1+02561+99999101121REMSYN054AAXX  24084 91679 46/// /3202 10256 40112 22200 00280;
0063916790999992000062409004-17590+177450FM-12+000099999V0209999C000019999999N9999999N1+02501+99999101141REMSYN054AAXX  24094 91679 46/// /0000 10250 40114 22200 00280;
0063916790999992000062818004-17590+177450FM-12+000099999V0201401N002619999999N9999999N1+02441+99999100841REMSYN054AAXX  28184 91679 46/// /1405 10244 40084 22200 00274;
0063916790999992000070812004-17590+177450FM-12+000099999V0209999C000019999999N9999999N1+02471+99999100931REMSYN054AAXX  08124 91679 46/// /0000 10247 40093 22200 00274;
0063916790999992000071016004-17590+177450FM-12+000099999V0209999C000019999999N9999999N1+02101+99999101181REMSYN054AAXX  10164 91679 46/// /0000 10210 40118 22200 00273;
0063916790999992000071100004-17590+177450FM-12+000099999V0202801N003119999999N9999999N1+02521+99999101321REMSYN054AAXX  11004 91679 46/// /2806 10252 40132 22200 00272;
0063916790999992000071109004-17590+177450FM-12+000099999V0200701N002119999999N9999999N1+02311+99999101401REMSYN054AAXX  11094 91679 46/// /0704 10231 40140 22200 00273;
0063916790999992000071509004-17590+177450FM-12+000099999V0202801N006219999999N9999999N1+02631+99999100871REMSYN054AAXX  15094 91679 46/// /2812 10263 40087 22200 00267;
0063916790999992000071518004-17590+177450FM-12+000099999V0201801N004119999999N9999999N1+02381+99999100751REMSYN054AAXX  15184 91679 46/// /1808 10238 40075 22200 00267;
0063916790999992000071802004-17590+177450FM-12+000099999V0202801N001519999999N9999999N1+02671+99999101091REMSYN054AAXX  18024 91679 46/// /2803 10267 40109 22200 00271;
0063916790999992000071915004-17590+177450FM-12+000099999V0200601N003119999999N9999999N1+02371+99999101111REMSYN054AAXX  19154 91679 46/// /0606 10237 40111 22200 00268;
0063916790999992000072010004-17590+177450FM-12+000099999V0201401N001519999999N9999999N1+02361+99999101221REMSYN054AAXX  20104 91679 46/// /1403 10236 40122 22200 00267;
0063916790999992000072516004-17590+177450FM-12+000099999V0200601N001019999999N9999999N1+02201+99999101081REMSYN054AAXX  25164 91679 46/// /0602 10220 40108 22200 00267;
0063916790999992000072614004-17590+177450FM-12+000099999V0209999C000019999999N9999999N1+02211+99999101231REMSYN054AAXX  26144 91679 46/// /0000 10221 40123 22200 00267;
0063916790999992000072715004-17590+177450FM-12+000099999V0200601N001519999999N9999999N1+02161+99999101301REMSYN054AAXX  27154 91679 46/// /0603 10216 40130 22200 00267;
0063916790999992000072721004-17590+177450FM-12+000099999V0209999C000019999999N9999999N1+02441+99999101571REMSYN054AAXX  27214 91679 46/// /0000 10244 40157 22200 00267;
0063916790999992000081602004-17590+177450FM-12+000099999V0202701N003119999999N9999999N1+02551+99999101051REMSYN054AAXX  16024 91679 46/// /2706 10255 40105 22200 00271;
0063916790999992000081604004-17590+177450FM-12+000099999V0202401N003119999999N9999999N1+02611+99999101001REMSYN054AAXX  16044 91679 46/// /2406 10261 40100 22200 00272;
0063916790999992000081620004-17590+177450FM-12+000099999V0209999V000519999999N9999999N1+02491+99999101331REMSYN054AAXX  16204 91679 46/// /9901 10249 40133 22200 00264;
0063916790999992000081818004-17590+177450FM-12+000099999V0201101N001019999999N9999999N1+02441+99999100831REMSYN054AAXX  18184 91679 46/// /1102 10244 40083 22200 00267;
0063916790999992000082321004-17590+177450FM-12+000099999V0209999C000019999999N9999999N1+02661+99999101411REMSYN054AAXX  23214 91679 46/// /0000 10266 40141 22200 00264;
0063916790999992000083005004-17590+177450FM-12+000099999V0200101N006719999999N9999999N1+02701+99999100921REMSYN054AAXX  30054 91679 46/// /0113 10270 40092 22200 00273;
0063916790999992000090207004-17590+177450FM-12+000099999V0203601N003119999999N9999999N1+02621+99999101201REMSYN054AAXX  02074 91679 46/// /3606 10262 40120 22200 00275;
0063916790999992000090509004-17590+177450FM-12+000099999V0209999V000519999999N9999999N1+02581+99999101221REMSYN054AAXX  05094 91679 46/// /9901 10258 40122 22200 00277;
0063916790999992000090605004-17590+177450FM-12+000099999V0201301N003119999999N9999999N1+02421+99999101261REMSYN054AAXX  06054 91679 46/// /1306 10242 40126 22200 00277;
0063916790999992000090704004-17590+177450FM-12+000099999V0200101N008719999999N9999999N1+02791+99999101161REMSYN054AAXX  07044 91679 46/// /0117 10279 40116 22200 00280;
0063916790999992000091300004-17590+177450FM-12+000099999V0202601N002619999999N9999999N1+02751+99999101241REMSYN054AAXX  13004 91679 46/// /2605 10275 40124 22200 00278;
0063916790999992000091422004-17590+177450FM-12+000099999V0202901N002119999999N9999999N1+02691+99999101271REMSYN054AAXX  14224 91679 46/// /2904 10269 40127 22200 00276;
0063916790999992000091512004-17590+177450FM-12+000099999V0201901N001019999999N9999999N1+02431+99999101281REMSYN054AAXX  15124 91679 46/// /1902 10243 40128 22200 00280;
0063916790999992000092512004-17590+177450FM-12+000099999V0202201N001019999999N9999999N1+02481+99999101261REMSYN054AAXX  25124 91679 46/// /2202 10248 40126 22200 00275;
0063916790999992000100109004-17590+177450FM-12+000099999V0209999C000019999999N9999999N1+02521+99999101471REMSYN054AAXX  01094 91679 46/// /0000 10252 40147 22200 00273;
0063916790999992000100316004-17590+177450FM-12+000099999V0209999C000019999999N9999999N1+02371+99999101191REMSYN054AAXX  03164 91679 46/// /0000 10237 40119 22200 00276;
0063916790999992000100417004-17590+177450FM-12+000099999V0209999C000019999999N9999999N1+02441+99999101331REMSYN054AAXX  04174 91679 46/// /0000 10244 40133 22200 00279;
0063916790999992000101115004-17590+177450FM-12+000099999V0209999C000019999999N9999999N1+02391+99999100661REMSYN054AAXX  11154 91679 46/// /0000 10239 40066 22200 00273;
0063916790999992000101210004-17590+177450FM-12+000099999V0200401N001519999999N9999999N1+02541+99999100721REMSYN054AAXX  12104 91679 46/// /0403 10254 40072 22200 00275;
0063916790999992000101815004-17590+177450FM-12+000099999V0209999C000019999999N9999999N1+02361+99999100831REMSYN054AAXX  18154 91679 46/// /0000 10236 40083 22200 00288;
0062916790999992000101922004-17590+177450FM-12+000099999V0209999V000519999999N9999999N1+02951+99999100761REMSYN053AAXX  19224 91679 46/// /9901 10295 40076 22200 0285;
0063916790999992000102709004-17590+177450FM-12+000099999V0200801N002619999999N9999999N1+02341+99999101091REMSYN054AAXX  27094 91679 46/// /0805 10234 40109 22200 00280;
0063916790999992000110809004-17590+177450FM-12+000099999V0200401N002619999999N9999999N1+02591+99999100921REMSYN054AAXX  08094 91679 46/// /0405 10259 40092 22200 00297;
0063916790999992000111501004-17590+177450FM-12+000099999V0202901N004119999999N9999999N1+02731+99999100841REMSYN054AAXX  15014 91679 46/// /2908 10273 40084 22200 00288;
0063916790999992000111503004-17590+177450FM-12+000099999V0202001N003119999999N9999999N1+02591+99999100841REMSYN054AAXX  15034 91679 46/// /2006 10259 40084 22200 00291;
0063916790999992000111607004-17590+177450FM-12+000099999V0209999C000019999999N9999999N1+02581+99999101071REMSYN054AAXX  16074 91679 46/// /0000 10258 40107 22200 00286;
0063916790999992000111609004-17590+177450FM-12+000099999V0209999V000519999999N9999999N1+02571+99999101171REMSYN054AAXX  16094 91679 46/// /9901 10257 40117 22200 00285;
0063916790999992000111806004-17590+177450FM-12+000099999V0203101N003119999999N9999999N1+02721+99999100791REMSYN054AAXX  18064 91679 46/// /3106 10272 40079 22200 00291;
0063916790999992000112622004-17590+177450FM-12+000099999V0203501N006219999999N9999999N1+02861+99999100701REMSYN054AAXX  26224 91679 46/// /3512 10286 40070 22200 00288;
0063916790999992000120205004-17590+177450FM-12+000099999V0203601N002619999999N9999999N1+02831+99999100791REMSYN054AAXX  02054 91679 46/// /3605 10283 40079 22200 00293;
0063916790999992000120610004-17590+177450FM-12+000099999V0203401N006219999999N9999999N1+02671+99999100631REMSYN054AAXX  06104 91679 46/// /3412 10267 40063 22200 00287;
0063916790999992000121100004-17590+177450FM-12+000099999V0200401N002119999999N9999999N1+02491+99999100621REMSYN054AAXX  11004 91679 46/// /0404 10249 40062 22200 00280;
0063916790999992000121317004-17590+177450FM-12+000099999V0201301N003119999999N9999999N1+02381+99999100471REMSYN054AAXX  13174 91679 46/// /1306 10238 40047 22200 00278;
0063916790999992000121816004-17590+177450FM-12+000099999V0201201N001519999999N9999999N1+02531+99999100331REMSYN054AAXX  18164 91679 46/// /1203 10253 40033 22200 00288;
0063916790999992000122400004-17590+177450FM-12+000099999V0202701N003119999999N9999999N1+02811+99999100671REMSYN054AAXX  24004 91679 46/// /2706 10281 40067 22200 00290;
0063916790999992000122407004-17590+177450FM-12+000099999V0203301N002619999999N9999999N1+02791+99999100691REMSYN054AAXX  24074 91679 46/// /3305 10279 40069 22200 00291;
0209916800999992000011419004-17750+177450FM-15+0018NFFN V0200701N002110900019N0500001N1+02501+02301999999ADDGA1021+006009099GA2021+015009999GA3071+090009999GF107991999999999999999999MA1101021999999MW1001REMMET083NFFN 141900Z 07004KT 50KM FEW020CB SCT050 BKN300 25/23 Q1010 NOSIG RMK CB TO NORTH;EQDQ01+000000PRSWM2
0220916800999992000012007004-17750+177450FM-15+0018NFFN V0200801N001510900019N0300001N1+02501+02301999999ADDGA1021+006009099GA2021+008409999GA3071+090009999GF107991999999999999999999MA1100511999999MW1811MW2951REMMET072NFFN 200700Z 08003KT 30KM TSRA FEW020CB SCT028 BKN300 25/23 Q1005 NOSIG;EQDQ01+000003PRSWM1Q02    003PRSWM1
0174916800999992000013114004-17750+177450FM-15+0018NFFN V0200901N003612200019N0400001N1+02501+02401999999ADDGA1021+007509099GF102991999999999999999999MA1101081999999MW1001REMMET080NFFN 311400Z 09007KT 40KM FEW025CB 25/24 Q1011 NOSIG RMK LIGHTNING TO W AND DEW;EQDQ01+000000PRSWM2
0201916800999992000020605004-17750+177450FM-15+0018NFFN V0201001N003110135019N0300001N1+02501+02401999999ADDGA1021+006009099GA2021+007509999GA3081+013509999GF108991999999999999999999MA1101021999999MW1001REMMET075NFFN 060500Z 10006KT 30KM FEW020CB SCT025 OVC045 25/24 Q1010 NOSIG RMK RET;EQDQ01+000000PRSWM2
0145916800999992000020617004-17750+177450FM-15+0018NFFN V0209999C000012200019N0400001N1+02301+02201999999ADDGA1021+008409999GF102991999999999999999999MA1101021999999MW1001REMMET051NFFN 061700Z 00000KT 40KM FEW028 23/22 Q1010 NOSIG;EQDQ01+000000PRSWM2
0219916800999992000021109004-17750+177450FM-12+0018NFFN V0201301N002610084019N0200001N1+02461+02401100921ADDAY181031AY281031GA1011+006009099GA2041+008409089GF108991999091008001001011MD1310151+9999MW1251REMSYN094AAXX  11094 91680 41598 81305 10246 20240 40092 53015 72588 88901 333 569/9 81920 84828 87645;EQDQ01+000082SCOTLC
0247916800999992000021420004-17750+177450FM-15+0018NFFN V0203201N003110075019N0400001N1+02601+02501999999ADDGA1021+002409999GA2021+005409099GA3071+007509999GA4081+030009999GF108991999999999999999999MA1100811999999MW1161REMMET089NFFN 142000Z 32006KT 40KM VCSH FEW008 FEW018CB BKN025 OVC100 26/25 Q1008 TEMPO 8000 TSRA;EQDQ01+000003PRSWM1Q02    003PRSWM1
0319916800999992000021818004-17750+177450SY-MT+0018NFFN V0209999C000012200019N0200001N1+02331+02231100881ADDAA199000021AY111061AY201061GA1021+009009999GA2021+090009999GF103991021081012501001021MA1100811999999MD1310051+9999MW1021REMSYN088AAXX  18184 91680 31698 30000 10233 20223 40088 53005 70210 82802 333 569/9 81830 83080;MET058NFFN 181800Z 00000KT 45KM FEW030 SCT300 23/22 Q1008 NOSIG;EQDQ01+000000PRSWM2Q02    003PRSWM1
0168916800999992000022211004-17750+177450FM-15+0018NFFN V0200901N002110900019N0400001N1+02401+02301999999ADDGA1021+008409999GA2071+090009999GF107991999999999999999999MA1101191999999MW1001REMMET058NFFN 221100Z 09004KT 40KM FEW028 BKN300 24/23 Q1012 NOSIG;EQDQ01+000000PRSWM2
0145916800999992000022911004-17750+177450FM-15+0018NFFN V0200901N002112200019N0400001N1+02501+02501999999ADDGA1021+008409999GF102991999999999999999999MA1101021999999MW1001REMMET051NFFN 291100Z 09004KT 40KM FEW028 25/25 Q1010 NOSIG;EQDQ01+000000PRSWM2
0370916800999992000031221004-17750+177450SY-MT+0018NFFN V0203601N002610144019N0200001N1+02471+02411101351ADDAY181031AY221031GA1021+007509999GA2071+014409999GA3081+033009999GF108991061081008001071999MA1101291999999MD1210181+9999MW1251REMSYN094AAXX  12214 91680 41598 83605 10247 20241 40135 52018 72582 8687/ 333 5699/ 84820 85648 88461;MET098NFFN 122100Z 36005KT 45KM SCT025 BKN048 OVC110 25/24 Q1013 TEMPO 7000 SHRA RMK SPECI CONDX CEASED;EQDQ01+000000PRSWM2Q02    003PRSWM1
0145916800999992000033116004-17750+177450FM-15+0018NFFN V0200601N001012200019N0400001N1+02301+02201999999ADDGA1021+008409999GF102991999999999999999999MA1100911999999MW1001REMMET051NFFN 311600Z 06002KT 40KM FEW028 23/22 Q1009 NOSIG;EQDQ01+000000PRSWM2
0376916800999992000040400004-17750+177450SY-MT+0018NFFN V0202301N00101084001CN0500001N1+02951+02441100651ADDAA124001091AY161061AY221061GA1021+008409029GA2021+015009999GA3071+084009999GF107991051081008001031061KA1240N+02361MA1100611999999MD1610061+9999MW1011REMSYN106AAXX  04004 91680 11599 72302 10295 20244 40065 56006 60014 70162 85836 333 20236 56999 83828 84650 87278;MET068NFFN 040000Z 23002KT 50KM SCT028TCU SCT050 BKN280 30/24 Q1006 NOSIG;EQDQ01+000000PRSWM2Q02    003PRSWM1
0224916800999992000040404004-17750+177450FM-15+0018NFFN V0200601N007210900019N0030001N1+02301+02301999999ADDGA1021+006009099GA2021+007509999GA3071+090009999GF107991999999999999999999MA1100611999999MW1811REMMET082NFFN 040400Z 06014KT 3000 SHRA FEW020CB SCT025 BKN300 23/23 Q1006 TEMPO 2000 TSRA;EQDQ01+000003PRSWM1Q02    003PRSWM1
0360916800999992000040500004-17750+177450SY-MT+0018NFFN V0201201N003110900019N0500001N1+03041+02301100591ADDAA124039191AY121061AY221061GA1021+008409999GA2071+090009999GF199999031011008001001021KA1240N+02111MA1100511999999MD1810141+9999MW1031REMSYN100AAXX  05004 91680 11599 61206 10304 20230 40059 58014 60394 70322 83102 333 20211 569/9 83828 85080;MET058NFFN 050000Z 12006KT 50KM SCT028 BKN300 30/23 Q1005 NOSIG;EQDQ01+000062SCOTCVQ02+000000PRSWM2Q03    003PRSWM1
0182916800999992000040623004-17750+177450FM-15+0018NFFN V0201901N00261220001CN0500001N1+02901+02401999999ADDGA1071+007509029GA2021+015009999MA1100811999999MW1161REMMET066NFFN 062300Z 19005KT 50KM VCSH BKN025TCU SCT050 29/24 Q1008 NOSIG;EQDQ01+000042SCOTCVQ02+000003PRSWM1Q03    003PRSWM1
0145916800999992000042008004-17750+177450FM-15+0018NFFN V0209999C000012200019N0400001N1+02701+02401999999ADDGA1021+008409999GF104991999999999999999999MA1101291999999MW1001REMMET051NFFN 200800Z 00000KT 40KM SCT028 27/24 Q1013 NOSIG;EQDQ01+000000PRSWM2
0168916800999992000042017004-17750+177450FM-15+0018NFFN V0201201N002610900019N0400001N1+02301+02201999999ADDGA1021+009009999GA2071+090009999GF107991999999999999999999MA1101191999999MW1001REMMET058NFFN 201700Z 12005KT 40KM FEW030 BKN300 23/22 Q1012 NOSIG;EQDQ01+000000PRSWM2
0168916800999992000042217004-17750+177450FM-15+0018NFFN V0201101N003112200019N0400001N1+02201+02201999999ADDGA1021+008409999GA2021+084009999GF104991999999999999999999MA1101081999999MW1001REMMET058NFFN 221700Z 11006KT 40KM FEW028 SCT280 22/22 Q1011 NOSIG;EQDQ01+000000PRSWM2
0376916800999992000050712004-17750+177450SY-MT+0018NFFN V0209999C00001084001CN0200001N1+02421+02271101181ADDAA199000091AY191061AY221061GA1021+006009099GA2071+084009999GF199999041091008001001021KA1240M+03131MA1101081999999MD1810091+9999MW1171REMSYN094AAXX  07124 91680 31598 60000 10242 20227 40118 58009 71792 84902 333 10313 569/9 82920 85080;MET064NFFN 071200Z 00000KT 40KM -TS FEW020CB BKN280 24/22 Q1011 NOSIG;EQDQ01+000062SCOTCVQ02+000000PRSWM2Q03  00002PRCP99Q04    003PRSWM1
0145916800999992000050919004-17750+177450FM-15+0018NFFN V0200801N003612200019N0500001N1+02001+01801999999ADDGA1021+008409999GF102991999999999999999999MA1101191999999MW1001REMMET051NFFN 091900Z 08007KT 50KM FEW028 20/18 Q1012 NOSIG;EQDQ01+000000PRSWM2
0168916800999992000051011004-17750+177450FM-15+0018NFFN V0201101N002112200019N0400001N1+02301+02101999999ADDGA1021+008409999GA2021+036009999GF104991999999999999999999MA1101291999999MW1001REMMET058NFFN 101100Z 11004KT 40KM FEW028 SCT120 23/21 Q1013 NOSIG;EQDQ01+000000PRSWM2
0145916800999992000051115004-17750+177450FM-15+0018NFFN V0209999C000012200019N0400001N1+02301+02201999999ADDGA1021+008409999GF102991999999999999999999MA1101191999999MW1001REMMET051NFFN 111500Z 00000KT 40KM FEW028 23/22 Q1012 NOSIG;EQDQ01+000000PRSWM2
0194916800999992000051302004-17750+177450FM-15+0018NFFN V0202401N003610900019N0450001N1+02901+02301999999ADDGA1021+008409029GA2021+015009999GA3071+090009999GF107991999999999999999999MA1101021999999MW1001REMMET068NFFN 130200Z 24007KT 45KM SCT028TCU SCT050 BKN300 29/23 Q1010 NOSIG;EQDQ01+000000PRSWM2
0191916800999992000051411004-17750+177450FM-15+0018NFFN V0200901N002610870019N0400001N1+02401+02301999999ADDGA1021+008409999GA2021+045009999GA3081+087009999GF108991999999999999999999MA1101291999999MW1001REMMET065NFFN 141100Z 09005KT 40KM FEW028 SCT150 OVC290 24/23 Q1013 NOSIG;EQDQ01+000000PRSWM2
0306916800999992000051518004-17750+177450SY-MT+0018NFFN V0209999C000012200019N0200001N1+02291+02221101241ADDAA199000091AY101061AY201061GA1021+008409999GF102991021081008001001001MA1101191999999MD1310071+9999MW1011REMSYN082AAXX  15184 91680 31598 20000 10229 20222 40124 53007 70100 82800 333 569// 81828;MET051NFFN 151800Z 00000KT 40KM FEW028 23/22 Q1012 NOSIG;EQDQ01+000000PRSWM2Q02  00002PRCP99Q03    003PRSWM1
0282916800999992000051603004-17750+177450SY-MT+0018NFFN V0203101N006212200019N0500001N1+03051+02251101101ADDAY111031AY211031GA1021+008409029GF103991031081008001001001MA1101081999999MD1710191+9999MW1011REMSYN082AAXX  16034 91680 41599 33112 10305 20225 40110 57019 70111 83800 333 569// 83828;MET054NFFN 160300Z 31012KT 50KM SCT028TCU 31/23 Q1011 NOSIG;EQDQ01+000000PRSWM2Q02    003PRSWM1
0168916800999992000052917004-17750+177450FM-15+0018NFFN V0200701N001512200019N0400001N1+02001+01801999999ADDGA1021+008409999GA2021+090009999GF104991999999999999999999MA1101081999999MW1001REMMET058NFFN 291700Z 07003KT 40KM SCT028 SCT300 20/18 Q1011 NOSIG;EQDQ01+000000PRSWM2
0168916800999992000052920004-17750+177450FM-15+0018NFFN V0200501N002612200019N0500001N1+02201+01701999999ADDGA1021+008409999GA2021+015009999GF104991999999999999999999MA1101191999999MW1001REMMET058NFFN 292000Z 05005KT 50KM FEW028 SCT050 22/17 Q1012 NOSIG;EQDQ01+000000PRSWM2
0145916800999992000060108004-17750+177450FM-15+0018NFFN V0201101N002112200019N0400001N1+02301+02001999999ADDGA1021+009009999GF104991999999999999999999MA1101191999999MW1001REMMET051NFFN 010800Z 11004KT 40KM SCT030 23/20 Q1012 NOSIG;EQDQ01+000000PRSWM2
0168916800999992000060714004-17750+177450FM-15+0018NFFN V0200901N002610150019N0400001N1+02301+02201999999ADDGA1021+008409999GA2071+015009999GF107991999999999999999999MA1101291999999MW1001REMMET058NFFN 071400Z 09005KT 40KM SCT028 BKN050 23/22 Q1013 NOSIG;EQDQ01+000000PRSWM2
0324916800999992000060821004-17750+177450SY-MT+0018NFFN V0201201N003110900019N0500001N1+02541+02091101681ADDAY121031AY221031GA1021+009009999GA2071+090009999GF199999021081012501001021MA1101591999999MD1310181+9999MW1011REMSYN088AAXX  08214 91680 41699 51206 10254 20209 40168 53018 70122 82802 333 569/9 81830 85080;MET058NFFN 082100Z 12006KT 50KM FEW030 BKN300 25/21 Q1016 NOSIG;EQDQ01+000052SCOTCVQ02+000000PRSWM2Q03    003PRSWM1
0175916800999992000061917004-17750+177450FM-15+0018NFFN V0200601N001510840019N0400001N1+02301+02301999999ADDGA1021+009009999GA2021+015009999GA3071+084009999GF107991999999999999999999MW1001REMMET064NFFN 191700Z 06003KT 40KM SCT030 SCT050 BKN280 23/23 Q101 NOSIG;EQDQ01+000000PRSWM2
0145916800999992000062201004-17750+177450FM-15+0018NFFN V0202001N003612200019N0500001N1+03001+02301999999ADDGA1021+009009999GF102991999999999999999999MA1101191999999MW1001REMMET051NFFN 220100Z 20007KT 50KM FEW030 30/23 Q1012 NOSIG;EQDQ01+000000PRSWM2
0168916800999992000062211004-17750+177450FM-15+0018NFFN V0209999C000010150019N0400001N1+02401+02301999999ADDGA1021+008409999GA2071+015009999GF107991999999999999999999MA1101291999999MW1001REMMET058NFFN 221100Z 00000KT 40KM SCT028 BKN050 24/23 Q1013 NOSIG;EQDQ01+000000PRSWM2
0344916800999992000062212004-17750+177450SY-MT+0018NFFN V0200701N00101012001CN0200001N1+02361+02271101301ADDAA106002091AY181061AY221061GA1021+008409999GA2021+015009999GF106991061081008001999999KA1240M+02951MA1101291999999MD1810021+9999MW1011REMSYN100AAXX  22124 91680 11598 60702 10236 20227 40130 58002 60021 70182 868// 333 10295 569// 83828 83650;MET058NFFN 221200Z 07002KT 40KM SCT028 SCT050 24/23 Q1013 NOSIG;EQDQ01+000000PRSWM2Q02    003PRSWM1
0145916800999992000063011004-17750+177450FM-15+0018NFFN V0201001N003612200019N0400001N1+02001+01701999999ADDGA1021+009009999GF102991999999999999999999MA1101081999999MW1001REMMET051NFFN 301100Z 10007KT 40KM FEW030 20/17 Q1011 NOSIG;EQDQ01+000000PRSWM2
0307916800999992000070103004-17750+177450SY-MT+0018NFFN V0202601N004112200019N0500001N1+02701+01681100831ADDAY101031AY201031GA1021+009009999GF199999011011012501001001MA1100811999999MD1710151+9999MW1021REMSYN082AAXX  01034 91680 41699 12608 10270 20168 40083 57015 70200 81100 333 569// 81830;MET063NFFN 010300Z 26008KT 50KM FEW030 27/17 Q1008 NOSIG RMK DRY AIR;EQDQ01+000012SCOTCVQ02+000000PRSWM2Q03    003PRSWM1
0168916800999992000071116004-17750+177450FM-15+0018NFFN V0201001N003112200019N0400001N1+01901+01701999999ADDGA1021+008409999GA2021+090009999GF104991999999999999999999MA1101391999999MW1001REMMET058NFFN 111600Z 10006KT 40KM FEW028 SCT300 19/17 Q1014 NOSIG;EQDQ01+000000PRSWM2
0212916800999992000071523004-17750+177450FM-15+0018NFFN V0201901N002610150019N0500001N1+02701+02101999999ADDGA1021+008409999GA2071+015009999GA3071+033009999GF107991999999999999999999MA1101081999999MW1161REMMET070NFFN 152300Z 19005KT 50KM VCSH SCT028 BKN050 BKN110 27/21 Q1011 NOSIG;EQDQ01+000003PRSWM1Q02    003PRSWM1
0326916800999992000071615004-17750+177450SY-MT+0018NFFN V0209999C000012200019N0200001N1+02081+02021101031ADDAY101031AY201031GA1021+008409999GA2021+015009999GF103991031081008001001001MA1101021999999MD1810161+9999MW1011REMSYN088AAXX  16154 91680 41598 30000 10208 20202 40103 58016 70100 83800 333 569// 81828 83650;MET076NFFN 161500Z 00000KT 40KM FEW028 SCT050 21/20 Q1010 NOSIG RMK LUNAR ECLIPSE;EQDQ01+000000PRSWM2Q02    003PRSWM1
0354916800999992000080912004-17750+177450SY-MT+0018NFFN V0200801N001510150019N0200001N1+02351+01961101331ADDAA199000091AY121061AY221061GA1021+009009999GA2021+015009999GF106991061081012501999999KA1240M+02961MA1101291999999MD1810031+9999MW1021REMSYN094AAXX  09124 91680 31698 60803 10235 20196 40133 58003 70222 868// 333 10296 569// 83830 84650;MET058NFFN 091200Z 08003KT 40KM SCT030 SCT050 24/20 Q1013 NOSIG;EQDQ01+000000PRSWM2Q02  00002PRCP99Q03    003PRSWM1
0145916800999992000081002004-17750+177450FM-15+0018NFFN V0202701N005112200019N0500001N1+02801+02201999999ADDGA1021+008409999GF104991999999999999999999MA1101081999999MW1001REMMET051NFFN 100200Z 27010KT 50KM SCT028 28/22 Q1011 NOSIG;EQDQ01+000000PRSWM2
0279916800999992000081721004-17750+177450SY-MT+0018NFFN V0201201N002612200019N0500001N1+02491+01781101281ADDAY121031AY211031GA1021+009009999GF102991021081012501001001MA1101191999999MD1310211+9999MW1011REMSYN082AAXX  17214 91680 41699 21205 10249 20178 40128 53021 70121 82800 333 569// 81830;MET051NFFN 172100Z 12005KT 50KM FEW030 25/18 Q1012 NOSIG;EQDQ01+000000PRSWM2Q02    003PRSWM1
0353916800999992000081821004-17750+177450SY-MT+0018NFFN V0200401N002610150019N0200001N1+02201+02141101101ADDAY181031AY221031GA1021+007509999GA2071+015009999GA3081+039009999GF108991061081008001071999MA1101081999999MD1210141+9999MW1801REMSYN094AAXX  18214 91680 41598 80405 10220 20214 40110 52014 78082 8687/ 333 5699/ 83825 85650 88463;MET081NFFN 182100Z 04005KT 20KM -SHRA SCT025 BKN050 OVC130 22/21 Q1011 TEMPO 5000 SHRA;EQDQ01+000000PRSWM2Q02    003PRSWM1
0145916800999992000083116004-17750+177450FM-15+0018NFFN V0209999C000012200019N0400001N1+02201+02101999999ADDGA1021+009009999GF102991999999999999999999MA1101191999999MW1001REMMET051NFFN 311600Z 00000KT 40KM FEW030 22/21 Q1012 NOSIG;EQDQ01+000000PRSWM2
0183916800999992000090201004-17750+177450FM-15+0018NFFN V0201501N003110900019N0500001N1+03101+01401999999ADDGA1021+009009999GA2071+090009999GF107991999999999999999999MA1101191999999MW1001REMMET073NFFN 020100Z 15006KT 50KM FEW030 BKN300 31/14 Q1012 NOSIG RMK DRY AIR 37;EQDQ01+000000PRSWM2
0374916800999992000090606004-17750+177450SY-MT+0018NFFN V0201001N002610840019N0500001N1+02451+02171101411ADDAA199000021AY191061AY221061GA1021+007509099GA2021+015009999GA3071+084009999GF199999031091008001061031MA1101391999999MD1310121+9999MW1151MW2161REMSYN094AAXX  06064 91680 31599 61005 10245 20217 40141 53012 71592 83963 333 56999 81925 83650 86078;MET085NFFN 060600Z 10005KT 50KM VCSH FEW025CB SCT050 BKN280 25/22 Q1014 NOSIG RMK CB TO NW;EQDQ01+000062SCOTCVQ02    003PRSWM1
0145916800999992000091201004-17750+177450FM-15+0018NFFN V0202301N005112200019N0500001N1+02901+02301999999ADDGA1021+008409999GF104991999999999999999999MA1101191999999MW1001REMMET051NFFN 120100Z 23010KT 50KM SCT028 29/23 Q1012 NOSIG;EQDQ01+000000PRSWM2
0337916800999992000091403004-17750+177450SY-MT+0018NFFN V0201101N003110390019N0500001N1+02881+02161101111ADDAY121031AY221031GA1021+008409999GA2021+015009999GA3071+039009999GF107991041081008001031999MA1101081999999MD1710131+9999MW1021REMSYN094AAXX  14034 91680 41599 71106 10288 20216 40111 57013 70222 8483/ 333 5699/ 83828 83650 87363;MET065NFFN 140300Z 11006KT 50KM SCT028 SCT050 BKN130 29/22 Q1011 NOSIG;EQDQ01+000000PRSWM2Q02    003PRSWM1
0191916800999992000091919004-17750+177450FM-15+0018NFFN V0201201N002610084019N0500001N1+02201+01801999999ADDGA1071+008409999GA2021+015009999GA3071+090009999GF107991999999999999999999MA1101291999999MW1001REMMET065NFFN 191900Z 12005KT 50KM BKN028 SCT050 BKN300 22/18 Q1013 NOSIG;EQDQ01+000000PRSWM2
0100916800999992000092223004-17750+177450FM-15+0018NFFN V0209999C00001220001CN0099001N1+99999+99999999999ADDMW1001REMMET063NFFN 222300Z 00000KT VCSH 40KM SCT028 BKN050 24/21 Q1014 NOSIG;EQDQ01+000000PRSWM2
0348916800999992000092318004-17750+177450SY-MT+0018NFFN V0201201N003110390019N0200001N1+02001+01841101341ADDAA199000021AY121061AY221061GA1021+008409999GA2021+015009999GA3071+039009999GF107991041081008001011999MA1101291999999MD1310041+9999MW1021REMSYN094AAXX  23184 91680 31598 71206 10200 20184 40134 53004 70222 8481/ 333 5699/ 82828 83650 86463;MET065NFFN 231800Z 12006KT 45KM FEW028 SCT050 BKN130 20/18 Q1013 NOSIG;EQDQ01+000000PRSWM2Q02    003PRSWM1
0370916800999992000092612004-17750+177450SY-MT+0018NFFN V0200901N003110150019N0200001N1+02351+01931101411ADDAA199000091AY121061AY221061GA1021+009009999GA2071+015009999GF199999061081012501999999KA1240M+02751MA1101391999999MD1810021+9999MW1021REMSYN094AAXX  26124 91680 31698 60906 10235 20193 40141 58002 70222 868// 333 10275 569// 84830 86650;MET058NFFN 261200Z 09006KT 40KM SCT030 BKN050 24/19 Q1014 NOSIG;EQDQ01+000062SCOTCVQ02+000000PRSWM2Q03  00002PRCP99Q04    003PRSWM1
0296916800999992000100318004-17750+177450SY-MT+0018NFFN V0201101N003112200019N0500001N1+02311+02181101441ADDAA106000191AY181061AY211061GA1021+008409999GF104991041081008001001001MA1101391999999MD1310071+9999MW1021REMSYN088AAXX  03184 91680 11599 41106 10231 20218 40144 53007 69911 70281 84800 333 569// 84828;MET051NFFN 031800Z 11006KT 50KM SCT028 23/22 Q1014 NOSIG;EQDQ01+000000PRSWM2Q02    003PRSWM1
0145916800999992000100319004-17750+177450FM-15+0018NFFN V0201001N001512200019N0500001N1+02401+02201999999ADDGA1021+008409999GF102991999999999999999999MA1101391999999MW1001REMMET051NFFN 031900Z 10003KT 50KM FEW028 24/22 Q1014 NOSIG;EQDQ01+000000PRSWM2
0145916800999992000100322004-17750+177450FM-15+0018NFFN V0202701N005112200019N0500001N1+02801+02301999999ADDGA1021+008409999GF104991999999999999999999MA1101391999999MW1001REMMET051NFFN 032200Z 27010KT 50KM SCT028 28/23 Q1014 NOSIG;EQDQ01+000000PRSWM2
0191916800999992000100808004-17750+177450FM-15+0018NFFN V0200901N005110390019N0400001N1+02401+01901999999ADDGA1021+009009999GA2021+015009999GA3071+039009999GF107991999999999999999999MA1101191999999MW1001REMMET065NFFN 080800Z 09010KT 40KM FEW030 SCT050 BKN130 24/19 Q1012 NOSIG;EQDQ01+000000PRSWM2
0168916800999992000101123004-17750+177450FM-15+0018NFFN V0203501N004110150019N0500001N1+03001+02401999999ADDGA1021+008409999GA2071+015009999GF107991999999999999999999MA1100811999999MW1001REMMET058NFFN 112300Z 35008KT 50KM SCT028 BKN050 30/24 Q1008 NOSIG;EQDQ01+000000PRSWM2
0145916800999992000101401004-17750+177450FM-15+0018NFFN V0202701N006212200019N0500001N1+02901+02201999999ADDGA1021+009009999GF104991999999999999999999MA1100911999999MW1001REMMET051NFFN 140100Z 27012KT 50KM SCT030 29/22 Q1009 NOSIG;EQDQ01+000000PRSWM2
0145916800999992000101707004-17750+177450FM-15+0018NFFN V0202701N003112200019N0400001N1+02601+02101999999ADDGA1021+009009999GF104991999999999999999999MA1101021999999MW1001REMMET051NFFN 170700Z 27006KT 40KM SCT030 26/21 Q1010 NOSIG;EQDQ01+000000PRSWM2
0358916800999992000102318004-17750+177450SY-MT+0018NFFN V0209999C000010135019N0100001N1+02061+01981100771ADDAA106005191AY121061AY281061GA1021+008409999GA2071+013509999GA3081+039009999GF108991061081008001071999MA1100711999999MD1310091+9999MW1601REMSYN100AAXX  23184 91680 11597 80000 10206 20198 40077 53009 60051 76028 8687/ 333 5699/ 82828 85645 88463;MET069NFFN 231800Z 00000KT 17KM -RA FEW028 BKN045 OVC130 21/20 Q1007 NOSIG;EQDQ01+000000PRSWM2Q02    003PRSWM1
0279916800999992000110309004-17750+177450SY-MT+0018NFFN V0201701N001512200019N0200001N1+02641+02371101381ADDAY121031AY221031GA1021+009009999GF104991041081012501001001MA1101291999999MD1110201+9999MW1011REMSYN082AAXX  03094 91680 41698 41703 10264 20237 40138 51020 70122 84800 333 569// 84830;MET051NFFN 030900Z 17003KT 40KM SCT030 26/24 Q1013 NOSIG;EQDQ01+000000PRSWM2Q02    003PRSWM1
0168916800999992000110804004-17750+177450FM-15+0018NFFN V0202901N005110900019N0500001N1+03001+02201999999ADDGA1021+008409999GA2071+090009999GF107991999999999999999999MA1100711999999MW1001REMMET058NFFN 080400Z 29010KT 50KM FEW028 BKN300 30/22 Q1007 NOSIG;EQDQ01+000000PRSWM2
0308916800999992000110809004-17750+177450SY-MT+0018NFFN V0209999C000010840019N0200001N1+02701+02321101011ADDAY121031AY221031GA1021+009009999GA2071+084009999GF107991041081012501001071MA1101021999999MD1210211+9999MW1021REMSYN088AAXX  08094 91680 41698 70000 10270 20232 40101 52021 70222 84807 333 569/9 83830 86278;MET058NFFN 080900Z 00000KT 40KM SCT030 BKN280 27/23 Q1010 NOSIG;EQDQ01+000000PRSWM2Q02    003PRSWM1
0335916800999992000112006004-17750+177450SY-MT+0018NFFN V0202701N004110084019N0500001N1+02681+02051100611ADDAA199000091AY121061AY221061GA1071+008409999GA2071+015009999GF108991081081012501999999MA1100611999999MD1310081+9999MW1031REMSYN088AAXX  20064 91680 31699 82708 10268 20205 40061 53008 70322 888// 333 569// 85828 85650;MET058NFFN 200600Z 27008KT 50KM BKN028 BKN050 27/21 Q1006 NOSIG;EQDQ01+000000PRSWM2Q02  00002PRCP99Q03    003PRSWM1
0364916800999992000112118004-17750+177450SY-MT+0018NFFN V0200701N001510150019N0200001N1+02351+02111100851ADDAA199000091AY121061AY221061GA1021+009009999GA2071+015009999GA3071+090009999GF107991071081012501999021MA1100811999999MD1310091+9999MW1031REMSYN094AAXX  21184 91680 31698 70703 10235 20211 40085 53009 70322 878/2 333 569/9 84830 86650 87080;MET065NFFN 211800Z 07003KT 40KM SCT030 BKN050 BKN300 24/21 Q1008 NOSIG;EQDQ01+000000PRSWM2Q02  00002PRCP99Q03    003PRSWM1
0185916800999992000112602004-17750+177450FM-15+0018NFFN V0203001N007212200019N0500001N1+03201+02301999999ADDGA1021+007509099GA2021+008409999GF104991999999999999999999MA1100811999999MW1001REMMET075NFFN 260200Z 30014KT 50KM FEW025CB SCT028 32/23 Q1008 NOSIG RMK DRY AIR 59;EQDQ01+000000PRSWM2
0145916800999992000120217004-17750+177450FM-15+0018NFFN V0200501N001512200019N0500001N1+02301+02301999999ADDGA1021+009009999GF102991999999999999999999MA1100811999999MW1001REMMET051NFFN 021700Z 05003KT 50KM FEW030 23/23 Q1008 NOSIG;EQDQ01+000000PRSWM2
0388916800999992000120606004-17750+177450SY-MT+0018NFFN V0202701N007210075019N0040001N1+02551+02441100561ADDAA106013091AY121061AY261061GA1021+006009099GA2071+007509999GA3071+013509999GA4081+030009999GF108991071091008001071999MA1100511999999MD1310101+9999MW1601MW2611REMSYN106AAXX  06064 91680 11596 82714 10255 20244 40056 53010 60131 76026 8797/ 333 5699/ 82920 85825 86645 88460;MET087NFFN 060600Z 27014KT 6000 -RA FEW020CB BKN025 BKN045 OVC100 26/24 Q1005 TEMPO 1000 +RA;EQDQ01    003PRSWM1
0168916800999992000121302004-17750+177450FM-15+0018NFFN V0201101N005112200019N0500001N1+03001+02201999999ADDGA1021+008409999GA2021+015009999GF104991999999999999999999MA1100411999999MW1001REMMET058NFFN 130200Z 11010KT 50KM SCT028 SCT050 30/22 Q1004 NOSIG;EQDQ01+000000PRSWM2
0279916800999992000121521004-17750+177450SY-MT+0018NFFN V0201201N003612200019N0500001N1+02631+01891100721ADDAY111031AY201031GA1021+009009999GF103991031081012501001001MA1100711999999MD1210041+9999MW1011REMSYN082AAXX  15214 91680 41699 31207 10263 20189 40072 52004 70110 83800 333 569// 82830;MET051NFFN 152100Z 12007KT 50KM FEW030 26/19 Q1007 NOSIG;EQDQ01+000000PRSWM2Q02    003PRSWM1
0354916800999992000122206004-17750+177450SY-MT+0018NFFN V0201501N003110084019N0500001N1+02661+02151100551ADDAA106000191AY181061AY221061GA1071+008409999GA2021+015009999GA3071+036009999GF107991061081008001071999MA1100511999999MD1310141+9999MW1011REMSYN100AAXX  22064 91680 11599 71506 10266 20215 40055 53014 69911 70182 8687/ 333 5699/ 85828 84650 87462;MET065NFFN 220600Z 15006KT 50KM BKN028 SCT050 BKN120 27/22 Q1005 NOSIG;EQDQ01+000000PRSWM2Q02    003PRSWM1
0160916800999992000122402004-17750+177450FM-15+0018NFFN V0202301N005112200019N0500001N1+03001+02001999999ADDGA1021+009009999GF102991999999999999999999MA1100611999999MW1001REMMET066NFFN 240200Z 23010KT 50KM FEW030 30/20 Q1006 NOSIG RMK DRY AIR 58;EQDQ01+000000PRSWM2
0308916800999992000122509004-17750+177450SY-MT+0018NFFN V0200601N002110150019N0500001N1+02701+02351101011ADDAY121031AY221031GA1021+009009999GA2021+015009999GF106991061081012501999999MA1101021999999MD1210241+9999MW1021REMSYN088AAXX  25094 91680 41699 60604 10270 20235 40101 52024 70222 868// 333 569// 83830 83650;MET058NFFN 250900Z 06004KT 50KM SCT030 SCT050 27/24 Q1010 NOSIG;EQDQ01+000000PRSWM2Q02    003PRSWM1
0172916830999992000010103004-18050+178570FM-12+0007NFNA V0201501N003610066019N0500001N1+02941+02341100731ADDAY121031AY221031GA1051+006609029GF106991061081008001999999MD1710131+9999MW1021REMSYN082AAXX  01034 91683 41599 61507 10294 20234 40073 57013 70222 868// 333 569// 85822;
0345916830999992000010509004-18050+178570SY-MT+0007NFNA V0209999C000010144019N0200001N1+02521+02431100731ADDAY181031AY281031GA1021+006909999GA2071+014409999GA3081+036009999GF108991071081008001071999MA1100711999999MD1010021+9999MW1801REMSYN094AAXX  05094 91683 41598 80000 10252 20243 40073 50002 78088 8787/ 333 5699/ 84823 86648 88462;MET073NFNA 050900Z 00000KT 40KM -SHRA SCT023 BKN048 OVC120 25/24 Q1007 RMK 0.3;EQDQ01+000000PRSWM2Q02    003PRSWM1
0208916830999992000011012004-18050+178570FM-12+0007NFNA V0209999C00001012001CN0200001N1+02351+02281100501ADDAA106000021AY121061AY221061GA1031+006609089GF106991061081008001001001KA1240M+02701MD1810021+9999MW1021REMSYN094AAXX  10124 91683 31598 60000 10235 20228 40050 58002 70222 86800 333 10270 569// 83822 85645;
0208916830999992000012706004-18050+178570FM-12+0007NFNA V0209999C000010069019N0500001N1+02871+02411100851ADDAA199000091AY121061AY221061GA1051+006909089GF107991071081008001999999MD1310091+9999MW1021REMSYN088AAXX  27064 91683 31599 70000 10287 20241 40085 53009 70222 878// 333 569// 85823 84650;EQDQ01  00002PRCP99
0147916830999992000021515004-18050+178570FM-15+0007NFNA V0209999C000012200019N0400001N1+02501+02401999999ADDGA1021+006009999GF104991999999999999999999MA1101081999999MW1001REMMET053NFNA 151500Z 00000KT 40KM SCT020 25/24 Q1011 RMK NIL;EQDQ01+000000PRSWM2
0172916830999992000021715004-18050+178570FM-12+0007NFNA V0209999C000012200019N0200001N1+02351+02281101051ADDAY101031AY201031GA1011+009009029GF101991011011012501001001MD1710231+9999MW1021REMSYN082AAXX  17154 91683 41698 10000 10235 20228 40105 57023 70200 81100 333 569// 81830;
0162916830999992000021823004-18050+178570FM-15+0007NFNA V0200401N002610900019N0500001N1+03101+02501999999ADDGA1021+007209999GA2071+090009999GF107991999999999999999999MA1100911999999MW1001REMMET052NFNA 182300Z 04005KT 50KM SCT024 BKN300 31/25 Q1009;EQDQ01+000000PRSWM2
0165916830999992000030219004-18050+178570FM-15+0007NFNA V0209999C000012200019N0500001N1+02501+02501999999ADDGA1021+006909029GA2021+090009999GF104991999999999999999999MA1101191999999MW1001REMMET055NFNA 021900Z 00000KT 50KM FEW023TCU SCT300 25/25 Q1012;EQDQ01+000000PRSWM2
0170916830999992000030320004-18050+178570FM-15+0007NFNA V0209999C000012200019N0500001N1+02501+02301999999ADDGA1021+007209999GA2021+090009999GF104991999999999999999999MA1101081999999MW1001REMMET060NFNA 032000Z 00000KT 50KM SCT024 SCT300 25/23 Q1011 RMK NIL;EQDQ01+000000PRSWM2
0159916830999992000030819004-18050+178570FM-15+0007NFNA V0209999C000010069019N0500001N1+02501+02401999999ADDGA1071+006909029GF107991999999999999999999MA1100811999999MW1001REMMET065NFNA 081900Z 00000KT 50KM BKN023TCU 25/24 Q1008 RMK 0.9 RE -SHRA;EQDQ01+000000PRSWM2
0193916830999992000031211004-18050+178570FM-15+0007NFNA V0209999C000010900019N0400001N1+02401+02301999999ADDGA1021+006609999GA2021+015009999GA3071+090009999GF107991999999999999999999MA1101191999999MW1001REMMET067NFNA 121100Z 00000KT 40KM SCT022 SCT050 BKN300 24/23 Q1012 RMK NIL;EQDQ01+000000PRSWM2
0372916830999992000032200004-18050+178570SY-MT+0007NFNA V0202001N002610135019N0500001N1+03101+02471100981ADDAA199000091AY121061AY221061GA1021+006009999GA2071+013509999GF199999061081008001999999KA1240N+02271MA1100911999999MD1810141+9999MW1021REMSYN094AAXX  22004 91683 31599 62005 10310 20247 40098 58014 70222 868// 333 20227 569// 83820 86645;MET060NFNA 220000Z 20005KT 50KM SCT020 BKN045 31/25 Q1009 RMK NIL;EQDQ01+000062SCOTCVQ02+000000PRSWM2Q03  00002PRCP99Q04    003PRSWM1
0147916830999992000032214004-18050+178570FM-15+0007NFNA V0209999C000012200019N0400001N1+02401+02401999999ADDGA1021+006909999GF102991999999999999999999MA1100911999999MW1001REMMET053NFNA 221400Z 00000KT 40KM FEW023 24/24 Q1009 RMK NIL;EQDQ01+000000PRSWM2
0170916830999992000032508004-18050+178570FM-15+0007NFNA V0209999C000012200019N0500001N1+02701+02501999999ADDGA1021+006909999GA2021+015009999GF104991999999999999999999MA1101021999999MW1001REMMET060NFNA 250800Z 00000KT 50KM SCT023 SCT050 27/25 Q1010 RMK NIL;EQDQ01+000000PRSWM2
0193916830999992000032805004-18050+178570FM-15+0007NFNA V0209999C000010135019N0500001N1+02901+02301999999ADDGA1021+006609999GA2071+013509999GA3071+090009999GF107991999999999999999999MA1100911999999MW1001REMMET067NFNA 280500Z 00000KT 50KM SCT022 BKN045 BKN300 29/23 Q1009 RMK NIL;EQDQ01+000000PRSWM2
0366916830999992000032806004-18050+178570SY-MT+0007NFNA V0209999C00001013501CN0500001N1+02801+02371101011ADDAA199000091AY121061AY221061GA1021+006609999GA2071+013509999GA3071+090009999GF107991041081008001001011MA1101021999999MD1310031+9999MW1021REMSYN094AAXX  28064 91683 31599 70000 10280 20237 40101 53003 70222 84801 333 569/9 83822 83645 87080;MET067NFNA 280600Z 00000KT 50KM SCT022 BKN045 BKN300 28/24 Q1010 RMK NIL;EQDQ01+000000PRSWM2Q02  00002PRCP99Q03    003PRSWM1
0346916830999992000040600004-18050+178570SY-MT+0007NFNA V0202401N00361012001CN0500001N1+02901+02481100671ADDAA106002091AY181061AY221061GA1021+006609999GA2021+013509999GF106991061081008001001001KA1240N+02221MA1100611999999MD1810141+9999MW1021REMSYN100AAXX  06004 91683 11599 62407 10290 20248 40067 58014 60021 70282 86800 333 20222 565// 84822 83645;MET060NFNA 060000Z 24007KT 50KM SCT022 SCT045 29/25 Q1006 RMK NIL;EQDQ01+000000PRSWM2Q02    003PRSWM1
0189916830999992000040704004-18050+178570FM-15+0007NFNA V0209999C000010900019N0500001N1+03001+02401999999ADDGA1021+006909999GA2021+015009999GA3071+090009999GF107991999999999999999999MA1100511999999MW1001REMMET063NFNA 070400Z 00000KT 50KM SCT023 SCT050 BKN300 30/24 Q1005 RMK;EQDQ01+000000PRSWM2
0184916830999992000041307004-18050+178570FM-15+0007NFNA V0209999C000010060019N0200001N1+02601+02301999999ADDGA1071+006009999GA2071+013509999GF107991999999999999999999MA1100711999999MW1001REMMET074NFNA 130700Z 00000KT 20KM -SHRA BKN020 BKN045 26/23 Q1007 RMK 0.1 RE-SHRA;EQDQ01+000000PRSWM2
0178916830999992000041916004-18050+178570FM-15+0007NFNA V0209999C000010135019N0200001N1+02401+02401999999ADDGA1021+006009999GA2071+013509999GF107991999999999999999999MA1101191999999MW1001REMMET068NFNA 191600Z 00000KT 20KM SCT020 BKN045 24/24 Q1012 RMK 1.8 RE-SHRA;EQDQ01+000000PRSWM2
0205916830999992000042922024-18050+178570FM-16+0007NFNA V0209999C000010135019N0020001N1+02501+02401999999ADDGA1021+006009999GA2071+013509999GA3081+033009999GF108991999999999999999999MA1101191999999MW1651REMMET063NFNA 292202Z 00000KT 2000 +RA SCT020 BKN045 OVC110 25/24 Q1012;EQDQ01+000003PRSWM1Q02    003PRSWM1
