0071722588999992000061120009+33067-096067NSRDB+016399999V020999999999999999999999999999+99999+99999999999ADDGP10060023602008000602015023102008GQ100600177923869GR100601260913259
0228722588999992000061320003+33690-096690FM-15+0163KGVT V0201901N006210750019N0160931N1+03101+02101999999ADDGD12991+0105019GD23991+0750019GF107991999999999999999999GP10060078602008049702015031202008GQ100600176923869GR100601260913249MA1101461999999MW1001REMMET052KGVT 131955Z 19012KT 10SM SCT035 BKN250 31/21 A2996;EQDQ01+000000PRSWM2
0054722588999992000061407009+33067-096067NSRDB+016399999V020999999999999999999999999999+99999+99999999999ADDGP10060000002000000002000000002000GR100600000900009
0071722588999992000061723009+33067-096067NSRDB+016399999V020999999999999999999999999999+99999+99999999999ADDGP10060014302008000002015014302008GQ100600540927659GR100600776913239
0071722588999992000061921009+33067-096067NSRDB+016399999V020999999999999999999999999999+99999+99999999999ADDGP10060052802008016102015038702008GQ100600289925839GR100601156913239
0071722588999992000062123009+33067-096067NSRDB+016399999V020999999999999999999999999999+99999+99999999999ADDGP10060007702008000002015007702008GQ100600538927649GR100600780913229
0054722588999992000070111009+33067-096067NSRDB+016399999V020999999999999999999999999999+99999+99999999999ADDGP10060000002000000002000000002000GR100600000900009
0071722588999992000070222009+33067-096067NSRDB+016399999V020999999999999999999999999999+99999+99999999999ADDGP10060061402008048702015024602008GQ100600410926769GR100600995913219
0054722588999992000070306009+33067-096067NSRDB+016399999V020999999999999999999999999999+99999+99999999999ADDGP10060000002000000002000000002000GR100600000900009
0071722588999992000070322009+33067-096067NSRDB+016399999V020999999999999999999999999999+99999+99999999999ADDGP10060064802008062402015017702008GQ100600410926759GR100600995913219
0071722588999992000070602009+33067-096067NSRDB+016399999V020999999999999999999999999999+99999+99999999999ADDGP10060000302008002202015000202008GQ100600870929559GR100600041907829
0071722588999992000070612009+33067-096067NSRDB+016399999V020999999999999999999999999999+99999+99999999999ADDGP10060000302008007702015000202008GQ100600868906489GR100600045908049
0071722588999992000071200009+33067-096067NSRDB+016399999V020999999999999999999999999999+99999+99999999999ADDGP10060030402008051402015009602008GQ100600661928159GR100600535913229
0206722588999992000071414003+33690-096690FM-15+0163KGVT V0200601N002110360019N0241401N1+02901+02501999999ADDGD13991+0360019GF107991999999999999999999GP10060030202008043502015012702008GQ100600663907889GR100600531913229MA1101661999999MW1001REMMET045KGVT 141357Z 06004KT 15SM BKN120 29/25 A3002;EQDQ01+000000PRSWM2
0071722588999992000071919009+33067-096067NSRDB+016399999V020999999999999999999999999999+99999+99999999999ADDGP10060095002008079802015017002008GQ100600130917949GR100601289913239
0071722588999992000072521009+33067-096067NSRDB+016399999V020999999999999999999999999999+99999+99999999999ADDGP10060064502008031602015037002008GQ100600299925009GR100601146913249
0054722588999992000073009009+33067-096067NSRDB+016399999V020999999999999999999999999999+99999+99999999999ADDGP10060000002000000002000000002000GR100600000900009
0138722588999992000080118474+33070-096060FM-15+0163KGVT V0203101N001510180019N0241401N1+03401+01701999999ADDGD13991+0180019GF107991999999999999999999MA1101691999999MW1001REMMET045KGVT 011847Z 31003KT 15SM BKN060 34/17 A3003;EQDQ01+000000PRSWM2
0054722588999992000080206009+33067-096067NSRDB+016399999V020999999999999999999999999999+99999+99999999999ADDGP10060000002000000002000000002000GR100600000900009
0054722588999992000080506009+33067-096067NSRDB+016399999V020999999999999999999999999999+99999+99999999999ADDGP10060000002000000002000000002000GR100600000900009
0188722588999992000081017003+33070-096060FM-15+0163KGVT V0202901N004112200019N0241401N1+03501+01701999999ADDGF100991999999999999999999GP10060080602008079702015013202008GQ100600324911649GR100601121913309MA1102031999999MW1001REMMET042KGVT 101655Z 29008KT 15SM SKC 35/17 A3013;EQDQ01+000000PRSWM2
0071722588999992000081102009+33067-096067NSRDB+016399999V020999999999999999999999999999+99999+99999999999ADDGP10060000002008000002015000002008GQ100600889928789GR100600006902999
0206722588999992000081117003+33070-096060FM-15+0163KGVT V0203301N003612200019N0241401N1+03801+01601999999ADDGD12991+0360019GF104991999999999999999999GP10060076202008071902015015602008GQ100600325911699GR100601120913309MA1101801999999MW1001REMMET045KGVT 111655Z 33007KT 15SM SCT120 38/16 A3006;EQDQ01+000000PRSWM2
0054722588999992000081603009+33067-096067NSRDB+016399999V020999999999999999999999999999+99999+99999999999ADDGP10060000002000000002000000002000GR100600000900009
0071722588999992000081821009+33067-096067NSRDB+016399999V020999999999999999999999999999+99999+99999999999ADDGP10060075802008069202015018702008GQ100600345924089GR100601098913349
0071722588999992000082021009+33067-096067NSRDB+016399999V020999999999999999999999999999+99999+99999999999ADDGP10060077502008079902015012002008GQ100600350924019GR100601092913359
0071722588999992000082523009+33067-096067NSRDB+016399999V020999999999999999999999999999+99999+99999999999ADDGP10060041202008060802015010902008GQ100600601926279GR100600666913389
0054722588999992000082805009+33067-096067NSRDB+016399999V020999999999999999999999999999+99999+99999999999ADDGP10060000002000000002000000002000GR100600000900009
0054722588999992000082905009+33067-096067NSRDB+016399999V020999999999999999999999999999+99999+99999999999ADDGP10060000002000000002000000002000GR100600000900009
0071722588999992000090222009+33067-096067NSRDB+016399999V020999999999999999999999999999+99999+99999999999ADDGP10060055302008063902015014202008GQ100600500924999GR100600861913439
0071722588999992000090520009+33067-096067NSRDB+016399999V020999999999999999999999999999+99999+99999999999ADDGP10060079402008065802015022902008GQ100600310921379GR100601152913459
0054722588999992000090904009+33067-096067NSRDB+016399999V020999999999999999999999999999+99999+99999999999ADDGP10060000002000000002000000002000GR100600000900009
0054722588999992000091405009+33067-096067NSRDB+016399999V020999999999999999999999999999+99999+99999999999ADDGP10060000002000000002000000002000GR100600000900009
0054722588999992000091912009+33067-096067NSRDB+016399999V020999999999999999999999999999+99999+99999999999ADDGP10060000002000000002000000002000GR100600000900009
0054722588999992000092107009+33067-096067NSRDB+016399999V020999999999999999999999999999+99999+99999999999ADDGP10060000002000000002000000002000GR100600000900009
0054722588999992000092108009+33067-096067NSRDB+016399999V020999999999999999999999999999+99999+99999999999ADDGP10060000002000000002000000002000GR100600000900009
0071722588999992000092822009+33067-096067NSRDB+016399999V020999999999999999999999999999+99999+99999999999ADDGP10060045402008061102015013002008GQ100600581924229GR100600718913629
0071722588999992000100118009+33067-096067NSRDB+016399999V020999999999999999999999999999+99999+99999999999ADDGP10060079502008084302015013102008GQ100600382916239GR100601072913659
0071722588999992000100200009+33067-096067NSRDB+016399999V020999999999999999999999999999+99999+99999999999ADDGP10060007202008034102015002902008GQ100600827926099GR100600172913659
0054722588999992000100410009+33067-096067NSRDB+016399999V020999999999999999999999999999+99999+99999999999ADDGP10060000002000000002000000002000GR100600000900009
0071722588999992000100423009+33067-096067NSRDB+016399999V020999999999999999999999999999+99999+99999999999ADDGP10060026102008061302015006602008GQ100600715925129GR100600433913679
0071722588999992000100514009+33067-096067NSRDB+016399999V020999999999999999999999999999+99999+99999999999ADDGP10060017702008042602015007902008GQ100600767910519GR100600314913689
0071722588999992000101118009+33067-096067NSRDB+016399999V020999999999999999999999999999+99999+99999999999ADDGP10060048302008016902015035702008GQ100600417916479GR100601024913739
0054722588999992000101502009+33067-096067NSRDB+016399999V020999999999999999999999999999+99999+99999999999ADDGP10060000002000000002000000002000GR100600000900009
0216722588999992000102613003+33070-096060FM-15+0163KGVT V0201201N003110024019N0160931N1+01901+01701999999ADDGD14991+0024019GF108991999999999999999999GP10060000002008000002015000002008GQ100600881910629GR100600016904739MA1101761999999MW1001REMMET055KGVT 261257Z 12006KT 10SM OVC008 19/17 A3005 RMK FIRST;EQDQ01+000000PRSWM2
0071722588999992000102915009+33067-096067NSRDB+016399999V020999999999999999999999999999+99999+99999999999ADDGP10060005802008000002015005802008GQ100600699912279GR100600476913879
0054722588999992000110205009+33067-096067NSRDB+016399999V020999999999999999999999999999+99999+99999999999ADDGP10060000002000000002000000002000GR100600000900009
0071722588999992000110500009+33067-096067NSRDB+016399999V020999999999999999999999999999+99999+99999999999ADDGP10060000002008000002015000002008GQ100600875924969GR100600029906619
0071722588999992000110523009+33067-096067NSRDB+016399999V020999999999999999999999999999+99999+99999999999ADDGP10060005502008000002015005502008GQ100600794924289GR100600256913929
0054722588999992000110612009+33067-096067NSRDB+016399999V020999999999999999999999999999+99999+99999999999ADDGP10060000002000000002000000002000GR100600000900009
0071722588999992000110823009+33067-096067NSRDB+016399999V020999999999999999999999999999+99999+99999999999ADDGP10060013402008038602015006602008GQ100600799924219GR100600244913949
0054722588999992000111005009+33067-096067NSRDB+016399999V020999999999999999999999999999+99999+99999999999ADDGP10060000002000000002000000002000GR100600000900009
0054722588999992000111108009+33067-096067NSRDB+016399999V020999999999999999999999999999+99999+99999999999ADDGP10060000002000000002000000002000GR100600000900009
0054722588999992000111312009+33067-096067NSRDB+016399999V020999999999999999999999999999+99999+99999999999ADDGP10060000002000000002000000002000GR100600000900009
0054722588999992000111505009+33067-096067NSRDB+016399999V020999999999999999999999999999+99999+99999999999ADDGP10060000002000000002000000002000GR100600000900009
0054722588999992000111604009+33067-096067NSRDB+016399999V020999999999999999999999999999+99999+99999999999ADDGP10060000002000000002000000002000GR100600000900009
0054722588999992000111702009+33067-096067NSRDB+016399999V020999999999999999999999999999+99999+99999999999ADDGP10060000002000000002000000002000GR100600000900009
0054722588999992000111710009+33067-096067NSRDB+016399999V020999999999999999999999999999+99999+99999999999ADDGP10060000002000000002000000002000GR100600000900009
0071722588999992000111820009+33067-096067NSRDB+016399999V020999999999999999999999999999+99999+99999999999ADDGP10060011002008000002015011002008GQ100600560920299GR100600783914009
0054722588999992000112810009+33067-096067NSRDB+016399999V020999999999999999999999999999+99999+99999999999ADDGP10060000002000000002000000002000GR100600000900009
0054722588999992000120403009+33067-096067NSRDB+016399999V020999999999999999999999999999+99999+99999999999ADDGP10060000002000000002000000002000GR100600000900009
0054722588999992000120705009+33067-096067NSRDB+016399999V020999999999999999999999999999+99999+99999999999ADDGP10060000002000000002000000002000GR100600000900009
0054722588999992000120810009+33067-096067NSRDB+016399999V020999999999999999999999999999+99999+99999999999ADDGP10060000002000000002000000002000GR100600000900009
0054722588999992000121005009+33067-096067NSRDB+016399999V020999999999999999999999999999+99999+99999999999ADDGP10060000002000000002000000002000GR100600000900009
0071722588999992000121019009+33067-096067NSRDB+016399999V020999999999999999999999999999+99999+99999999999ADDGP10060028702008006602015025002008GQ100600563918359GR100600784914119
0224722588999992000121116003+33070-096060FM-15+0163KGVT V0203201N007210018019N0096561N1+00501+00301999999ADDGD14991+0018019GF108991999999999999999999GP10060005502008000002015005502008GQ100600689913899GR100600507914119MA1101691999999MW1101REMMET047KGVT 111600Z 32014KT 6SM BR OVC006 05/03 A3003;EQDQ01+000003PRSWM1Q02    003PRSWM1
0208722588999992000121221003+33070-096060FM-15+0163KGVT V0200301N004110240019N0241401N1-00201-00901999999ADDGD14991+0240019GF108991999999999999999999GP10060013302008000002015013302008GQ100600644921369GR100600609914129MA1102781999999MW1001REMMET047KGVT 122055Z 03008KT 15SM OVC080 M02/M09 A3035;EQDQ01+000000PRSWM2
0054722588999992000121711009+33067-096067NSRDB+016399999V020999999999999999999999999999+99999+99999999999ADDGP10060000002000000002000000002000GR100600000900009
0054722588999992000121806009+33067-096067NSRDB+016399999V020999999999999999999999999999+99999+99999999999ADDGP10060000002000000002000000002000GR100600000900009
0054722588999992000121809009+33067-096067NSRDB+016399999V020999999999999999999999999999+99999+99999999999ADDGP10060000002000000002000000002000GR100600000900009
0054722588999992000122002009+33067-096067NSRDB+016399999V020999999999999999999999999999+99999+99999999999ADDGP10060000002000000002000000002000GR100600000900009
0217722588999992000122022003+33070-096060FM-15+0163KGVT V0202101N010310750019N0241401N1+01701+00501999999ADDGD13991+0750019GF107991999999999999999999GP10060027302008059702015008902008GQ100600721922479GR100600434914149MA1100881999999MW1001OC101541REMMET048KGVT 202155Z 21020G30KT 15SM BKN250 17/05 A2979;EQDQ01+000000PRSWM2
0071722588999992000122214009+33067-096067NSRDB+016399999V020999999999999999999999999999+99999+99999999999ADDGP10060000202008008402015000102008GQ100600872912039GR100600040908139
0071722588999992000122300009+33067-096067NSRDB+016399999V020999999999999999999999999999+99999+99999999999ADDGP10060000002008000002015000002008GQ100600883924069GR100600014904839
0054722588999992000122612009+33067-096067NSRDB+016399999V020999999999999999999999999999+99999+99999999999ADDGP10060000002000000002000000002000GR100600000900009
0194722589999992000010123534+33200-097180FM-15+0197KDTO V0201501N004612200019N0160931N1+01901+01401100921ADDGF100991999999999999999999KA1999M+02331KA2999N+01891MA1100951999999MD1610101+9999MW1001REMMET095KDTO 012353Z AUTO 15009KT 10SM CLR 19/14 A2981 RMK AO2 SLP092 T01890139 10233 20189 56010 TSNO;
0071722589999992000010600009+33200-097183NSRDB+019799999V020999999999999999999999999999+99999+99999999999ADDGP10060000202008003502015000202008GQ100600871924079GR100600039907909
0262722589999992000010814534+33200-097180FM-15+0197KDTO V0201501N00361001201CN0096561N1+00801+00801102101ADDAA103000391GD13991+0021019GD24991+0033019GF108991999999999999999999MA1102131999999MD1610051+9999MW1101REMMET113KDTO 081453Z AUTO 15007KT 6SM BR BKN007 OVC011 08/08 A3016 RMK AO2 CIG 004V009 SLP210 60001 T00830078 56005 TSNO;EQDQ01+000003PRSWM1Q02    003PRSWM1
0054722589999992000011107009+33200-097183NSRDB+019799999V020999999999999999999999999999+99999+99999999999ADDGP10060000002000000002000000002000GR100600000900009
0155722589999992000011122534+33200-097180FM-15+0197KDTO V0201201N002112200019N0160931N1+01901+00501101421ADDGF100991999999999999999999MA1101461999999MW1001REMMET077KDTO 112253Z AUTO 12004KT 10SM CLR 19/05 A2996 RMK AO2 SLP142 T01890050 TSNO;EQDQ01+000000PRSWM2
0175722589999992000011714534+33200-097180FM-15+0197KDTO V0201601N004112200019N0160931N1+01401+01301102431ADDGF100991999999999999999999MA1102471999999MD1310051+9999MW1001REMMET083KDTO 171453Z AUTO 16008KT 10SM CLR 14/13 A3026 RMK AO2 SLP243 T01440133 53005 TSNO;EQDQ01+000000PRSWM2
0054722589999992000011812009+33200-097183NSRDB+019799999V020999999999999999999999999999+99999+99999999999ADDGP10060000002000000002000000002000GR100600000900009
0156722589999992000012509534+33200-097180FM-15+0197KDTO V0203501N002612200019N0160931N1+00101-00401102091ADDGF100991999999999999999999MA1102101999999MW1001REMMET078KDTO 250953Z AUTO 35005KT 10SM CLR 01/M04 A3015 RMK AO2 SLP209 T00111039 TSNO;EQDQ01+000000PRSWM2
0071722589999992000012900009+33200-097183NSRDB+019799999V020999999999999999999999999999+99999+99999999999ADDGP10060002102009002602021001902009GQ100600851924469GR100600110912819
0175722589999992000013013534+33200-097180FM-15+0197KDTO V0203201N002112200019N0096561N1-00701-00801103171ADDGF100991999999999999999999MA1103121999999MW1101REMMET081KDTO 301353Z AUTO 32004KT 6SM BR CLR M07/M08 A3045 RMK AO2 SLP317 T10671078 TSNO;EQDQ01+000003PRSWM1Q02    003PRSWM1
0071722589999992000013116009+33200-097183NSRDB+019799999V020999999999999999999999999999+99999+99999999999ADDGP10060037302009082202021006802009GQ100600683913039GR100600520914099
0071722589999992000013118009+33200-097183NSRDB+019799999V020999999999999999999999999999+99999+99999999999ADDGP10060064202009095002021007702009GQ100600536915859GR100600836914099
0156722589999992000020413534+33200-097180FM-15+0197KDTO V0203401N005112200019N0160931N1+00301-00101103071ADDGF100991999999999999999999MA1103081999999MW1001REMMET078KDTO 041353Z AUTO 34010KT 10SM CLR 03/M01 A3044 RMK AO2 SLP307 T00281011 TSNO;EQDQ01+000000PRSWM2
0224722589999992000020605534+33200-097180FM-15+0197KDTO V0201401N003612200019N0160931N1+00201-00301102781ADDGF100991999999999999999999KA1999M+00831KA2999N+00171MA1102781999999MD1810021+9999MW1001REMMET106KDTO 060553Z AUTO 14007KT 10SM CLR 02/M03 A3035 RMK AO2 SLP278 T00171028 10083 20017 401001061 58002 TSNO;EQDQ01+000000PRSWM2
0156722589999992000020612534+33200-097180FM-15+0197KDTO V0201301N003112200019N0160931N1+00001-00201102691ADDGF100991999999999999999999MA1102681999999MW1001REMMET078KDTO 061253Z AUTO 13006KT 10SM CLR 00/M02 A3032 RMK AO2 SLP269 T00001022 TSNO;EQDQ01+000000PRSWM2
0054722589999992000020909009+33200-097183NSRDB+019799999V020999999999999999999999999999+99999+99999999999ADDGP10060000002000000002000000002000GR100600000900009
0071722589999992000021016009+33200-097183NSRDB+019799999V020999999999999999999999999999+99999+99999999999ADDGP10060038802009072402021009602009GQ100600662912809GR100600565914059
0213722589999992000021017534+33200-097180FM-15+0197KDTO V0202201N005112200019N0160931N1+02201+01301100901ADDGF100991999999999999999999KA1999M+02171KA2999N+01111MA1100951999999MD1810071+9999MW1001REMMET095KDTO 101753Z AUTO 22010KT 10SM CLR 22/13 A2981 RMK AO2 SLP090 T02170128 10217 20111 58007 TSNO;EQDQ01+000000PRSWM2
0054722589999992000021409009+33200-097183NSRDB+019799999V020999999999999999999999999999+99999+99999999999ADDGP10060000002000000002000000002000GR100600000900009
0155722589999992000021506534+33200-097180FM-15+0197KDTO V0209999C000012200019N0160931N1+00601+00201101721ADDGF100991999999999999999999MA1101731999999MW1001REMMET077KDTO 150653Z AUTO 00000KT 10SM CLR 06/02 A3004 RMK AO2 SLP172 T00560017 TSNO;EQDQ01+000000PRSWM2
0155722589999992000021604534+33200-097180FM-15+0197KDTO V0201401N004112200019N0160931N1+01901+01501101391ADDGF100991999999999999999999MA1101461999999MW1001REMMET077KDTO 160453Z AUTO 14008KT 10SM CLR 19/15 A2996 RMK AO2 SLP139 T01890150 TSNO;EQDQ01+000000PRSWM2
0071722589999992000021920009+33200-097183NSRDB+019799999V020999999999999999999999999999+99999+99999999999ADDGP10060072002008079602015016702008GQ100600461919629GR100600971914009
0176722589999992000022008534+33200-097180FM-15+0197KDTO V0203301N001512200019N0160931N1+00201-00101103171ADDGF100991999999999999999999MA1103181999999MD1010001+9999MW1001REMMET084KDTO 200853Z AUTO 33003KT 10SM CLR 02/M01 A3047 RMK AO2 SLP317 T00221006 50000 TSNO;EQDQ01+000000PRSWM2
0071722589999992000022221009+33200-097183NSRDB+019799999V020999999999999999999999999999+99999+99999999999ADDGP10060010302008000002015010302008GQ100600505921529GR100600888913989
0071722589999992000022416009+33200-097183NSRDB+019799999V020999999999999999999999999999+99999+99999999999ADDGP10060027202008009902015022602008GQ100600626912449GR100600642913969
0054722589999992000022507009+33200-097183NSRDB+019799999V020999999999999999999999999999+99999+99999999999ADDGP10060000002000000002000000002000GR100600000900009
0217722589999992000022608534+33200-097180FM-15+0197KDTO V0203001N004610330019N0160931N1+01401+00301101031ADDAA103000021GD13991+0330019GF107991999999999999999999MA1101081999999MD1310031+9999MW1001REMMET099KDTO 260853Z AUTO 30009KT 10SM BKN110 14/03 A2985 RMK AO2 PRESFR SLP103 60000 T01390028 53003 TSNO;EQDQ01+000000PRSWM2
0054722589999992000030304009+33200-097183NSRDB+019799999V020999999999999999999999999999+99999+99999999999ADDGP10060000002000000002000000002000GR100600000900009
0054722589999992000030405009+33200-097183NSRDB+019799999V020999999999999999999999999999+99999+99999999999ADDGP10060000002000000002000000002000GR100600000900009
0071722589999992000030513009+33200-097183NSRDB+019799999V020999999999999999999999999999+99999+99999999999ADDGP10060000002008000002015000002008GQ100600894909719GR100600002901749
0265722589999992000030802534+33200-097180FM-15+0197KDTO V0201501N011812200019N0160931N1+02301+01601101041ADDAA101000021AA203000021GD12991+0330019GF102991999999999999999999MA1101121999999MD1010061+9999MW1001OC101491REMMET128KDTO 080253Z AUTO 15023G29KT 10SM FEW110 23/16 A2986 RMK AO2 PK WND 15029/0253 RAB38E47 SLP104 P0000 60000 T02330156 50006 TSNO;EQDQ01+000000PRSWM2
0054722589999992000030807009+33200-097183NSRDB+019799999V020999999999999999999999999999+99999+99999999999ADDGP10060000002000000002000000002000GR100600000900009
0155722589999992000031101534+33200-097180FM-15+0197KDTO V0203401N007212200019N0160931N1+00801+00601101751ADDGF100991999999999999999999MA1101761999999MW1001REMMET077KDTO 110153Z AUTO 34014KT 10SM CLR 08/06 A3005 RMK AO2 SLP175 T00830056 TSNO;EQDQ01+000000PRSWM2
0054722589999992000031211009+33200-097183NSRDB+019799999V020999999999999999999999999999+99999+99999999999ADDGP10060000002000000002000000002000GR100600000900009
0157722589999992000031212534+33200-097180FM-15+0197KDTO V0209999C000012200019N0160931N1-00101-00101102611ADDGF100991999999999999999999MA1102611999999MW1001REMMET079KDTO 121253Z AUTO 00000KT 10SM CLR M01/M01 A3030 RMK AO2 SLP261 T10061011 TSNO;EQDQ01+000000PRSWM2
0173722589999992000031503534+33200-097180FM-15+0197KDTO V0201801N002612200019N0160931N1+01201+01101101561ADDGD12991+0072019GF102991999999999999999999MA1101591999999MW1001REMMET080KDTO 150353Z AUTO 18005KT 10SM FEW024 12/11 A3000 RMK AO2 SLP156 T01220111 TSNO;EQDQ01+000000PRSWM2
0071722589999992000031614009+33200-097183NSRDB+019799999V020999999999999999999999999999+99999+99999999999ADDGP10060007402008000002015007402008GQ100600797909869GR100600245913819
0173722589999992000031719534+33200-097180FM-15+0197KDTO V0202501N002610045019N0160931N1+00701+00401102121ADDGD14991+0045019GF108991999999999999999999MA1102131999999MW1001REMMET080KDTO 171953Z AUTO 25005KT 10SM OVC015 07/04 A3016 RMK AO2 SLP212 T00670039 TSNO;EQDQ01+000000PRSWM2
0186722589999992000031916534+33200-097180FM-15+0197KDTO V0203101N005712200019N0160931N1+01101+00401101831ADDGD12991+0090019GF102991999999999999999999MA1101831999999MW1001OC100981REMMET085KDTO 191653Z AUTO 31011G19KT 10SM FEW030 11/04 A3007 RMK AO2 SLP183 T01060044 TSNO $;EQDQ01+000000PRSWM2
0054722589999992000032011009+33200-097183NSRDB+019799999V020999999999999999999999999999+99999+99999999999ADDGP10060000002000000002000000002000GR100600000900009
0175722589999992000032014534+33200-097180FM-15+0197KDTO V0201801N007712200019N0160931N1+01401+00301101131ADDGF100991999999999999999999MA1101151999999MD1110081+9999MW1001REMMET083KDTO 201453Z AUTO 18015KT 10SM CLR 14/03 A2987 RMK AO2 SLP113 T01390033 51008 TSNO;EQDQ01+000000PRSWM2
0201722589999992000032216534+33200-097180FM-15+0197KDTO V0201001N005110018019N0160931N1+01501+01401102181ADDAA101000021GD14991+0018019GF108991999999999999999999MA1102241999999MW1001REMMET097KDTO 221653Z AUTO 10010KT 10SM OVC006 15/14 A3019 RMK AO2 RAB1559E19 SLP218 P0000 T01500139 TSNO;EQDQ01+000000PRSWM2
0260722589999992000032312534+33200-097180FM-15+0197KDTO V0201101N007710144019N0160931N1+01701+01101101491ADDAA101000021GD12991+0114019GD23991+0144019GD34991+0240019GF108991999999999999999999MA1101561999999MW1611REMMET110KDTO 231253Z AUTO 11015KT 10SM -RA FEW038 BKN048 OVC080 17/11 A2999 RMK AO2 RAB27 SLP149 P0000 T01670111 TSNO;EQDQ01+000003PRSWM1Q02    003PRSWM1
0071722589999992000032521009+33200-097183NSRDB+019799999V020999999999999999999999999999+99999+99999999999ADDGP10060069802008062602015022702008GQ100600412922699GR100601032913749
0152722589999992000032803534+33200-097180FM-15+0197KDTO V0209999C000012200019N0160931N1+01301+00801100721ADDGF100991999999999999999999MA1100781999999MW1001REMMET074KDTO 280353Z AUTO 00000KT 10SM CLR 13/08 A2976 RMK AO2 SLP072 T01330078 $;EQDQ01+000000PRSWM2
0054722589999992000040311009+33200-097183NSRDB+019799999V020999999999999999999999999999+99999+99999999999ADDGP10060000002000000002000000002000GR100600000900009
0054722589999992000040404009+33200-097183NSRDB+019799999V020999999999999999999999999999+99999+99999999999ADDGP10060000002000000002000000002000GR100600000900009
0054722589999992000040410009+33200-097183NSRDB+019799999V020999999999999999999999999999+99999+99999999999ADDGP10060000002000000002000000002000GR100600000900009
0150722589999992000040616534+33200-097180FM-15+0197KDTO V0201901N008712200019N0160931N1+02101+01401101001ADDGF100991999999999999999999MA1101081999999MW1001REMMET072KDTO 061653Z AUTO 19017KT 10SM CLR 21/14 A2985 RMK AO2 SLP100 T02110139;EQDQ01+000000PRSWM2
0071722589999992000040722009+33200-097183NSRDB+019799999V020999999999999999999999999999+99999+99999999999ADDGP10060062802008073402015014502008GQ100600489924809GR100600894913639
0150722589999992000041401534+33200-097180FM-15+0197KDTO V0201001N002112200019N0160931N1+01301+01101101801ADDGF100991999999999999999999MA1101831999999MW1001REMMET072KDTO 140153Z AUTO 10004KT 10SM CLR 13/11 A3007 RMK AO2 SLP180 T01280111;EQDQ01+000000PRSWM2
0168722589999992000041413534+33200-097180FM-15+0197KDTO V0201601N004612200019N0160931N1+01201+01201101671ADDGD12991+0021019GF104991999999999999999999MA1101691999999MW1001REMMET075KDTO 141353Z AUTO 16009KT 10SM SCT007 12/12 A3003 RMK AO2 SLP167 T01220117;EQDQ01+000000PRSWM2
0071722589999992000041812009+33200-097183NSRDB+019799999V020999999999999999999999999999+99999+99999999999ADDGP10060000002008000002015000002008GQ100600897907679GR100600001901029
0071722589999992000041915009+33200-097183NSRDB+019799999V020999999999999999999999999999+99999+99999999999ADDGP10060044702008042002015022702008GQ100600583909739GR100600710913549
0218722589999992000042105534+33200-097180FM-15+0197KDTO V0203001N003112200019N0160931N1+01101+00901102041ADDGF100991999999999999999999KA1999M+02221KA2999N+01001MA1102101999999MD1110081+9999MW1001REMMET100KDTO 210553Z AUTO 30006KT 10SM CLR 11/09 A3015 RMK AO2 SLP204 T01060094 10222 20100 402390100 51008;EQDQ01+000000PRSWM2
0170722589999992000042302534+33200-097180FM-15+0197KDTO V0201301N005712200019N0160931N1+02001+01201100371ADDGF100991999999999999999999MA1100441999999MD1510121+9999MW1001REMMET078KDTO 230253Z AUTO 13011KT 10SM CLR 20/12 A2966 RMK AO2 SLP037 T02000122 55012;EQDQ01+000000PRSWM2
0071722589999992000042401009+33200-097183NSRDB+019799999V020999999999999999999999999999+99999+99999999999ADDGP10060005802008023202015003202008GQ100600834928139GR100600154913519
0071722589999992000042616009+33200-097183NSRDB+019799999V020999999999999999999999999999+99999+99999999999ADDGP10060060402008044402015028702008GQ100600445910539GR100600961913499
0071722589999992000042715009+33200-097183NSRDB+019799999V020999999999999999999999999999+99999+99999999999ADDGP10060016102008000002015016102008GQ100600566909499GR100600740913489
0150722589999992000042803534+33200-097180FM-15+0197KDTO V0202701N002612200019N0160931N1+01401+01401101751ADDGF100991999999999999999999MA1101801999999MW1001REMMET072KDTO 280353Z AUTO 27005KT 10SM CLR 14/14 A3006 RMK AO2 SLP175 T01440139;EQDQ01+000000PRSWM2
0150722589999992000043003534+33200-097180FM-15+0197KDTO V0201101N005112200019N0160931N1+02101+01601101411ADDGF100991999999999999999999MA1101491999999MW1001REMMET072KDTO 300353Z AUTO 11010KT 10SM CLR 21/16 A2997 RMK AO2 SLP141 T02060161;EQDQ01+000000PRSWM2
0168722589999992000050301534+33200-097180FM-15+0197KDTO V0203601N003610270019N0160931N1+01701+01301101381ADDGD14991+0270019GF108991999999999999999999MA1101421999999MW1001REMMET075KDTO 030153Z AUTO 36007KT 10SM OVC095 17/13 A2995 RMK AO2 SLP138 T01670133;EQDQ01+000000PRSWM2
0253722589999992000050305534+33200-097180FM-15+0197KDTO V0209999C000012200019N0160931N1+01501+01401101441ADDAA106000891GD12991+0330019GF102991999999999999999999KA1999M+02001KA2999N+01441MA1101491999999MD1810041+9999MW1001REMMET109KDTO 030553Z AUTO 00000KT 10SM FEW110 15/14 A2997 RMK AO2 SLP144 60003 T01500144 10200 20144 402220094 58004;EQDQ01+000000PRSWM2
0071722589999992000050401009+33200-097183NSRDB+019799999V020999999999999999999999999999+99999+99999999999ADDGP10060007602008026802015003902008GQ100600821928419GR100600185913449
0071722589999992000050415009+33200-097183NSRDB+019799999V020999999999999999999999999999+99999+99999999999ADDGP10060034102008014702015025702008GQ100600554909289GR100600762913439
0230722589999992000050514534+33200-097180FM-15+0197KDTO V0201501N003610024019N0144841N1+02001+01901101501ADDGD14991+0024019GF108991999999999999999999MA1101561999999MD1310121+9999MW1171REMMET107KDTO 051453Z AUTO 15007KT 9SM VCTS OVC008 20/19 A2999 RMK AO2 LTG DSNT S-NW TSB1356 SLP150 T02000189 53012;EQDQ01+000003PRSWM1Q02    003PRSWM1
0161722589999992000051110534+33200-097180FM-15+0197KDTO V0201701N007212200019N0160931N1+02301+02001100571ADDGF100991999999999999999999MA1100681999999MW1001OC100981REMMET075KDTO 111053Z AUTO 17014G19KT 10SM CLR 23/20 A2973 RMK AO2 SLP057 T02330200;EQDQ01+000000PRSWM2
0168722589999992000051112534+33200-097180FM-15+0197KDTO V0201701N006710084019N0160931N1+02401+02101100651ADDGD14991+0084019GF108991999999999999999999MA1100751999999MW1001REMMET075KDTO 111253Z AUTO 17013KT 10SM OVC028 24/21 A2975 RMK AO2 SLP065 T02390206;EQDQ01+000000PRSWM2
0071722589999992000051201009+33200-097183NSRDB+019799999V020999999999999999999999999999+99999+99999999999ADDGP10060008102008020402015004902008GQ100600810928609GR100600208913399
0054722589999992000051504009+33200-097183NSRDB+019799999V020999999999999999999999999999+99999+99999999999ADDGP10060000002000000002000000002000GR100600000900009
0150722589999992000052201534+33200-097180FM-15+0197KDTO V0201601N003612200019N0160931N1+02401+01901101251ADDGF100991999999999999999999MA1101321999999MW1001REMMET072KDTO 220153Z AUTO 16007KT 10SM CLR 24/19 A2992 RMK AO2 SLP125 T02390189;EQDQ01+000000PRSWM2
0150722589999992000052216534+33200-097180FM-15+0197KDTO V0202301N004612200019N0160931N1+03201+02001101251ADDGF100991999999999999999999MA1101351999999MW1001REMMET072KDTO 221653Z AUTO 23009KT 10SM CLR 32/20 A2993 RMK AO2 SLP125 T03170200;EQDQ01+000000PRSWM2
0054722589999992000052305009+33200-097183NSRDB+019799999V020999999999999999999999999999+99999+99999999999ADDGP10060000002000000002000000002000GR100600000900009
0208722589999992000052411534+33200-097180FM-15+0197KDTO V0201801N004612200019N0160931N1+02301+02301100271ADDGF100991999999999999999999KA1999M+02671KA2999N+02331MA1100371999999MD1310061+9999MW1001REMMET090KDTO 241153Z AUTO 18009KT 10SM CLR 23/23 A2964 RMK AO2 SLP027 T02330228 10267 20233 53006;EQDQ01+000000PRSWM2
0171722589999992000052608534+33200-097180FM-15+0197KDTO V0201501N004612200019N0160931N1+02601+02301100501ADDGF100991999999999999999999MA1100611999999MD1010051+9999MW1001REMMET079KDTO 260853Z AUTO 15009KT 10SM CLR 26/23 A2971 RMK AO2 SLP050 T02560228 50005 ;EQDQ01+000000PRSWM2
0071722589999992000052612009+33200-097183NSRDB+019799999V020999999999999999999999999999+99999+99999999999ADDGP10060000002008000002015000002008GQ100600869906649GR100600044908099
0071722589999992000052800009+33200-097183NSRDB+019799999V020999999999999999999999999999+99999+99999999999ADDGP10060005102008000002015005102008GQ100600671928159GR100600517913309
0150722589999992000052901534+33200-097180FM-15+0197KDTO V0200801N002612200019N0160931N1+02601+01401101351ADDGF100991999999999999999999MA1101461999999MW1001REMMET072KDTO 290153Z AUTO 08005KT 10SM CLR 26/14 A2996 RMK AO2 SLP135 T02610144;EQDQ01+000000PRSWM2
0071722589999992000060101009+33200-097183NSRDB+019799999V020999999999999999999999999999+99999+99999999999ADDGP10060008902008013902015006202008GQ100600787928929GR100600260913289
0054722589999992000060203009+33200-097183NSRDB+019799999V020999999999999999999999999999+99999+99999999999ADDGP10060000002000000002000000002000GR100600000900009
0054722589999992000060406009+33200-097183NSRDB+019799999V020999999999999999999999999999+99999+99999999999ADDGP10060000002000000002000000002000GR100600000900009
0054722589999992000060510009+33200-097183NSRDB+019799999V020999999999999999999999999999+99999+99999999999ADDGP10060000002000000002000000002000GR100600000900009
0071722589999992000060616009+33200-097183NSRDB+019799999V020999999999999999999999999999+99999+99999999999ADDGP10060072002008076402015013602008GQ100600402909359GR100601010913269
0208722589999992000061223534+33200-097180FM-15+0197KDTO V0201501N005112200019N0160931N1+03101+02201101571ADDGF100991999999999999999999KA1999M+03281KA2999N+02941MA1101661999999MD1610151+9999MW1001REMMET090KDTO 122353Z AUTO 15010KT 10SM CLR 31/22 A3002 RMK AO2 SLP157 T03060217 10328 20294 56015;EQDQ01+000000PRSWM2
0071722589999992000061602009+33200-097183NSRDB+019799999V020999999999999999999999999999+99999+99999999999ADDGP10060000502008004302015000402008GQ100600868929629GR100600048908499
0054722589999992000061608009+33200-097183NSRDB+019799999V020999999999999999999999999999+99999+99999999999ADDGP10060000002000000002000000002000GR100600000900009
0190722589999992000061803534+33190-097180FM-15+0197KDTO V0203401N002110330019N0160931N1+02201+02101101741ADDGD12991+0117019GD23991+0330019GF107991999999999999999999MA1101831999999MW1001REMMET082KDTO 180353Z AUTO 34004KT 10SM FEW039 BKN110 22/21 A3007 RMK AO2 SLP174 T02220206;EQDQ01+000000PRSWM2
0071722589999992000062014009+33200-097183NSRDB+019799999V020999999999999999999999999999+99999+99999999999ADDGP10060029902008033302015016002008GQ100600654907719GR100600549913229
0071722589999992000062217009+33200-097183NSRDB+019799999V020999999999999999999999999999+99999+99999999999ADDGP10060067802008033202015038602008GQ100600282910279GR100601163913229
0237722589999992000062317534+33190-097180FM-15+0197KDTO V0201901N007710129019N0160931N1+03201+02201101501ADDGD13991+0129019GF107991999999999999999999KA1999M+03221KA2999N+02441MA1101591999999MD1810101+9999MW1001OC101231REMMET096KDTO 231753Z AUTO 19015G24KT 10SM BKN043 32/22 A3000 RMK AO2 SLP150 T03170217 10322 20244 58010;EQDQ01+000000PRSWM2
0190722589999992000062706534+33190-097180FM-15+0197KDTO V0203601N001510240019N0160931N1+02401+02201101681ADDGD13991+0240019GD24991+0300019GF108991999999999999999999MA1101801999999MW1001REMMET082KDTO 270653Z AUTO 36003KT 10SM BKN085 OVC100 24/22 A3006 RMK AO2 SLP168 T02440222;EQDQ01+000000PRSWM2
0230722589999992000062721534+33190-097180FM-15+0197KDTO V0209999C000012200019N0160931N1+02401+02301101571ADDAA101000021GD12991+0045019GF102991999999999999999999MA1101661999999MW1611REMMET110KDTO 272153Z AUTO 00000KT 10SM -RA FEW015 24/23 A3002 RMK AO2 LTG DSNT E-SW TSE08RAB15 SLP157 P0000 T02440228;EQDQ01+000003PRSWM1Q02    003PRSWM1
0071722589999992000062912009+33200-097183NSRDB+019799999V020999999999999999999999999999+99999+99999999999ADDGP10060000302008007002015000102008GQ100600869906399GR100600042907829
0071722589999992000070312009+33200-097183NSRDB+019799999V020999999999999999999999999999+99999+99999999999ADDGP10060000002008000002015000002008GQ100600871906419GR100600038907609
0054722589999992000070403009+33200-097183NSRDB+019799999V020999999999999999999999999999+99999+99999999999ADDGP10060000002000000002000000002000GR100600000900009
0071722589999992000070413009+33200-097183NSRDB+019799999V020999999999999999999999999999+99999+99999999999ADDGP10060014002008033102015007302008GQ100600783907029GR100600268913219
0150722589999992000070709534+33190-097180FM-15+0197KDTO V0209999C000012200019N0160931N1+02101+01901101491ADDGF100991999999999999999999MA1101591999999MW1001REMMET072KDTO 070953Z AUTO 00000KT 10SM CLR 21/19 A3000 RMK AO2 SLP149 T02110194;EQDQ01+000000PRSWM2
0216722589999992000070811534+33190-097180FM-15+0197KDTO V0209999C000012200019N0160931N1+02201+02101101681ADDGF100991999999999999999999KA1999M+02561KA2999N+02171MA1101801999999MD1310091+9999MW1001REMMET098KDTO 081153Z AUTO 00000KT 10SM CLR 22/21 A3006 RMK AO2 SLP168 7//// T02220211 10256 20217 53009 $;EQDQ01+000000PRSWM2
0150722589999992000070907534+33190-097180FM-15+0197KDTO V0209999C000012200019N0160931N1+02501+02201101501ADDGF100991999999999999999999MA1101631999999MW1001REMMET072KDTO 090753Z AUTO 00000KT 10SM CLR 25/22 A3001 RMK AO2 SLP150 T02500217;EQDQ01+000000PRSWM2
0226722589999992000071017534+33190-097180FM-15+0197KDTO V0201801N006212200019N0160931N1+03301+02201101461ADDGD12991+0150019GF104991999999999999999999KA1999M+03501KA2999N+02501MA1101561999999MD1810081+9999MW1001REMMET093KDTO 101753Z AUTO 18012KT 10SM SCT050 33/22 A2999 RMK AO2 SLP146 T03330217 10350 20250 58008;EQDQ01+000000PRSWM2
0150722589999992000071721534+33190-097180FM-15+0197KDTO V0201701N005712200019N0160931N1+03801+01501101371ADDGF100991999999999999999999MA1101491999999MW1001REMMET072KDTO 172153Z AUTO 17011KT 10SM CLR 38/15 A2997 RMK AO2 SLP137 T03830150;EQDQ01+000000PRSWM2
0071722589999992000071723009+33200-097183NSRDB+019799999V020999999999999999999999999999+99999+99999999999ADDGP10060052302008064902015013302008GQ100600530927259GR100600794913229
0054722589999992000071805009+33200-097183NSRDB+019799999V020999999999999999999999999999+99999+99999999999ADDGP10060000002000000002000000002000GR100600000900009
0150722589999992000072012534+33190-097180FM-15+0197KDTO V0209999V001512200019N0160931N1+02701+01701101351ADDGF100991999999999999999999MA1101461999999MW1001REMMET072KDTO 201253Z AUTO VRB03KT 10SM CLR 27/17 A2996 RMK AO2 SLP135 T02720172;EQDQ01+000000PRSWM2
0071722589999992000072312009+33200-097183NSRDB+019799999V020999999999999999999999999999+99999+99999999999ADDGP10060000002008000002015000002008GQ100600880906719GR100600017904969
0054722589999992000072807009+33200-097183NSRDB+019799999V020999999999999999999999999999+99999+99999999999ADDGP10060000002000000002000000002000GR100600000900009
0054722589999992000072903009+33200-097183NSRDB+019799999V020999999999999999999999999999+99999+99999999999ADDGP10060000002000000002000000002000GR100600000900009
0225722589999992000072917534+33190-097180FM-15+0197KDTO V0202501N003612200019N0160931N1+03101+01901101241ADDAA106000391GF100991999999999999999999KA1999M+03111KA2999N+02281MA1101351999999MD1610011+9999MW1001REMMET096KDTO 291753Z AUTO 25007KT 10SM CLR 31/19 A2993 RMK AO2 SLP124 60001 T03110194 10311 20228 56001;EQDQ01+000000PRSWM2
0150722589999992000080107534+33190-097180FM-15+0197KDTO V0203301N002112200019N0160931N1+02101+01701101571ADDGF100991999999999999999999MA1101661999999MW1001REMMET072KDTO 010753Z AUTO 33004KT 10SM CLR 21/17 A3002 RMK AO2 SLP157 T02110172;EQDQ01+000000PRSWM2
0071722589999992000080202009+33200-097183NSRDB+019799999V020999999999999999999999999999+99999+99999999999ADDGP10060000002008000002015000002008GQ100600877929009GR100600023905869
0071722589999992000080222009+33200-097183NSRDB+019799999V020999999999999999999999999999+99999+99999999999ADDGP10060064102008060602015019202008GQ100600422925919GR100600981913279
0054722589999992000080906009+33200-097183NSRDB+019799999V020999999999999999999999999999+99999+99999999999ADDGP10060000002000000002000000002000GR100600000900009
0218722589999992000081105534+33190-097180FM-15+0197KDTO V0209999C000012200019N0160931N1+02701+01601101571ADDGF100991999999999999999999KA1999M+03721KA2999N+02671MA1101691999999MD1110081+9999MW1001REMMET100KDTO 110553Z AUTO 00000KT 10SM CLR 27/16 A3003 RMK AO2 SLP157 T02670156 10372 20267 403940244 51008;EQDQ01+000000PRSWM2
0054722589999992000081403009+33200-097183NSRDB+019799999V020999999999999999999999999999+99999+99999999999ADDGP10060000002000000002000000002000GR100600000900009
0179722589999992000081522534+33190-097180FM-15+0197KDTO V0201301N005112200019N0160931N1+03701+01701101801ADDGD12991+0240019GF102991999999999999999999MA1101901999999MW1001OC100981REMMET078KDTO 152253Z AUTO 13010G19KT 10SM FEW085 37/17 A3009 RMK AO2 SLP180 T03670172;EQDQ01+000000PRSWM2
0071722589999992000082202009+33200-097183NSRDB+019799999V020999999999999999999999999999+99999+99999999999ADDGP10060000002008000002015000002008GQ100600895928409GR100600001901229
0071722589999992000082619009+33200-097183NSRDB+019799999V020999999999999999999999999999+99999+99999999999ADDGP10060084802008076202015014702008GQ100600234917989GR100601228913389
0071722589999992000090415009+33200-097183NSRDB+019799999V020999999999999999999999999999+99999+99999999999ADDGP10060041202008060102015011802008GQ100600607910179GR100600656913449
0158722589999992000090718534+33190-097180FM-15+0197KDTO V0200601N003612200019N0160931N1+03301+01801101361ADDGF100991999999999999999999MA1101461999999MW1001REMMET080KDTO 071853Z AUTO 06007KT 010V110 10SM CLR 33/18 A2996 RMK AO2 SLP136 T03330178;EQDQ01+000000PRSWM2
0054722589999992000090806009+33200-097183NSRDB+019799999V020999999999999999999999999999+99999+99999999999ADDGP10060000002000000002000000002000GR100600000900009
0054722589999992000091005009+33200-097183NSRDB+019799999V020999999999999999999999999999+99999+99999999999ADDGP10060000002000000002000000002000GR100600000900009
0054722589999992000091110009+33200-097183NSRDB+019799999V020999999999999999999999999999+99999+99999999999ADDGP10060000002000000002000000002000GR100600000900009
0208722589999992000091617534+33190-097180FM-15+0197KDTO V0209999V003112200019N0160931N1+02801+00801101921ADDGF100991999999999999999999KA1999M+02831KA2999N+01671MA1102001999999MD1810071+9999MW1001REMMET090KDTO 161753Z AUTO VRB06KT 10SM CLR 28/08 A3012 RMK AO2 SLP192 T02780078 10283 20167 58007;EQDQ01+000000PRSWM2
0071722589999992000091621009+33200-097183NSRDB+019799999V020999999999999999999999999999+99999+99999999999ADDGP10060068902008078002015011702008GQ100600429923039GR100600990913539
0054722589999992000091711009+33200-097183NSRDB+019799999V020999999999999999999999999999+99999+99999999999ADDGP10060000002000000002000000002000GR100600000900009
0179722589999992000092319534+33190-097180FM-15+0197KDTO V0201801N008212200019N0160931N1+03601+02101100781ADDGD12991+0180019GF104991999999999999999999MA1100911999999MW1001OC101131REMMET078KDTO 231953Z AUTO 18016G22KT 10SM SCT060 36/21 A2980 RMK AO2 SLP078 T03610211;EQDQ01+000000PRSWM2
0071722589999992000092815009+33200-097183NSRDB+019799999V020999999999999999999999999999+99999+99999999999ADDGP10060037902008068102015008602008GQ100600646911159GR100600584913629
0219722589999992000092917534+33190-097180FM-15+0197KDTO V0201201N004112200019N0160931N1+02701+00801102171ADDGF100991999999999999999999KA1999M+02671KA2999N+01001MA1102241999999MD1810101+9999MW1001OC100771REMMET093KDTO 291753Z AUTO 12008G15KT 10SM CLR 27/08 A3019 RMK AO2 SLP217 T02670083 10267 20100 58010;EQDQ01+000000PRSWM2
0054722589999992000100112009+33200-097183NSRDB+019799999V020999999999999999999999999999+99999+99999999999ADDGP10060000002000000002000000002000GR100600000900009
0071722589999992000100615009+33200-097183NSRDB+019799999V020999999999999999999999999999+99999+99999999999ADDGP10060010602008000002015010602008GQ100600660911459GR100600555913699
0054722589999992000100703009+33200-097183NSRDB+019799999V020999999999999999999999999999+99999+99999999999ADDGP10060000002000000002000000002000GR100600000900009
0054722589999992000100804009+33200-097183NSRDB+019799999V020999999999999999999999999999+99999+99999999999ADDGP10060000002000000002000000002000GR100600000900009
0071722589999992000100813009+33200-097183NSRDB+019799999V020999999999999999999999999999+99999+99999999999ADDGP10060000002008000002015000002008GQ100600871909909GR100600035906979
0150722589999992000101701534+33190-097180FM-15+0197KDTO V0200101N002112200019N0160931N1+02001+01801101811ADDGF100991999999999999999999MA1101861999999MW1001REMMET072KDTO 170153Z AUTO 01004KT 10SM CLR 20/18 A3008 RMK AO2 SLP181 T02000178;EQDQ01+000000PRSWM2
0071722589999992000101815009+33200-097183NSRDB+019799999V020999999999999999999999999999+99999+99999999999ADDGP10060010802008000002015010802008GQ100600684911879GR100600506913789
0054722589999992000102110009+33200-097183NSRDB+019799999V020999999999999999999999999999+99999+99999999999ADDGP10060000002000000002000000002000GR100600000900009
0054722589999992000102210009+33200-097183NSRDB+019799999V020999999999999999999999999999+99999+99999999999ADDGP10060000002000000002000000002000GR100600000900009
0054722589999992000102402009+33200-097183NSRDB+019799999V020999999999999999999999999999+99999+99999999999ADDGP10060000002000000002000000002000GR100600000900009
0071722589999992000102817009+33200-097183NSRDB+019799999V020999999999999999999999999999+99999+99999999999ADDGP10060027202008001802015026102008GQ100600527914829GR100600839913869
0150722589999992000110103534+33190-097180FM-15+0197KDTO V0201501N007712200019N0160931N1+02201+01601101281ADDGF100991999999999999999999MA1101351999999MW1001REMMET072KDTO 010353Z AUTO 15015KT 10SM CLR 22/16 A2993 RMK AO2 SLP128 T02220161;EQDQ01+000000PRSWM2
0168722589999992000110200534+33190-097180FM-15+0197KDTO V0202101N001510270019N0160931N1+01801+01401101251ADDGD13991+0270019GF107991999999999999999999MA1101321999999MW1001REMMET075KDTO 020053Z AUTO 21003KT 10SM BKN090 18/14 A2992 RMK AO2 SLP125 T01780139;EQDQ01+000000PRSWM2
0210722589999992000110217534+33190-097180FM-15+0197KDTO V0201501N003112200019N0160931N1+02301+00601101771ADDGF100991999999999999999999KA1999M+02331KA2999N+00721MA1101831999999MD1010031+9999MW1001REMMET092KDTO 021753Z AUTO 15006KT 10SM CLR 23/06 A3007 RMK AO2 SLP177 T02330061 10233 20072 50003 $;EQDQ01+000000PRSWM2
0168722589999992000110418534+33190-097180FM-15+0197KDTO V0203501N003110009019N0160931N1+01701+01601101711ADDGD14991+0009019GF108991999999999999999999MA1101761999999MW1001REMMET075KDTO 041853Z AUTO 35006KT 10SM OVC003 17/16 A3005 RMK AO2 SLP171 T01670156;EQDQ01+000000PRSWM2
0054722589999992000110510009+33200-097183NSRDB+019799999V020999999999999999999999999999+99999+99999999999ADDGP10060000002000000002000000002000GR100600000900009
0194722589999992000110519534+33190-097180FM-15+0197KDTO V0201201N006710024019N0160931N1+01701+01601100351ADDAA101000021GD14991+0024019GF108991999999999999999999MA1100411999999MW1001REMMET090KDTO 051953Z AUTO 12013KT 10SM OVC008 17/16 A2965 RMK AO2 RAB09E19 SLP035 P0000 T01720161;EQDQ01+000000PRSWM2
0170722589999992000110708534+33190-097180FM-15+0197KDTO V0200401N002612200019N0160931N1+00801+00601101111ADDGF100991999999999999999999MA1101121999999MD1810011+9999MW1001REMMET078KDTO 070853Z AUTO 04005KT 10SM CLR 08/06 A2986 RMK AO2 SLP111 T00780056 58001;EQDQ01+000000PRSWM2
0210722589999992000110816534+33190-097180FM-15+0197KDTO V0203501N004610039019N0112651N1+00401+00401101251ADDAA101000021GD14991+0039019GF108991999999999999999999MA1101251999999MW1611REMMET090KDTO 081653Z AUTO 35009KT 7SM -RA OVC013 04/04 A2990 RMK AO2 RAB29 SLP125 P0000 T00440039;EQDQ01+000003PRSWM1Q02    003PRSWM1
0054722589999992000111112009+33200-097183NSRDB+019799999V020999999999999999999999999999+99999+99999999999ADDGP10060000002000000002000000002000GR100600000900009
0152722589999992000111313534+33190-097180FM-15+0197KDTO V0203201N003612200019N0160931N1-00101-00301102581ADDGF100991999999999999999999MA1102541999999MW1001REMMET074KDTO 131353Z AUTO 32007KT 10SM CLR M01/M03 A3028 RMK AO2 SLP258 T10061033;EQDQ01+000000PRSWM2
0054722589999992000111706009+33200-097183NSRDB+019799999V020999999999999999999999999999+99999+99999999999ADDGP10060000002000000002000000002000GR100600000900009
0054722589999992000111811009+33200-097183NSRDB+019799999V020999999999999999999999999999+99999+99999999999ADDGP10060000002000000002000000002000GR100600000900009
0151722589999992000112104534+33190-097180FM-15+0197KDTO V0209999C000012200019N0160931N1+00101-00201103611ADDGF100991999999999999999999MA1103591999999MW1001REMMET073KDTO 210453Z AUTO 00000KT 10SM CLR 01/M02 A3059 RMK AO2 SLP361 T00061022;EQDQ01+000000PRSWM2
0150722589999992000112510534+33190-097180FM-15+0197KDTO V0203001N003612200019N0160931N1+00601+00601101491ADDGF100991999999999999999999MA1101491999999MW1001REMMET072KDTO 251053Z AUTO 30007KT 10SM CLR 06/06 A2997 RMK AO2 SLP149 T00610056;EQDQ01+000000PRSWM2
0150722589999992000112606534+33190-097180FM-15+0197KDTO V0202901N003112200019N0160931N1+00501+00401101841ADDGF100991999999999999999999MA1101861999999MW1001REMMET072KDTO 260653Z AUTO 29006KT 10SM CLR 05/04 A3008 RMK AO2 SLP184 T00500039;EQDQ01+000000PRSWM2
0071722589999992000112815009+33200-097183NSRDB+019799999V020999999999999999999999999999+99999+99999999999ADDGP10060020702008036202015012402008GQ100600768912709GR100600320914069
0199722589999992000113020534+33190-097180FM-15+0197KDTO V0201601N008212200019N0160931N1+01701+00301101951ADDGD12991+0138019GF102991999999999999999999MA1101961999999MD1610441+9999MW1001OC100981REMMET084KDTO 302053Z AUTO 16016G19KT 10SM FEW046 17/03 A3011 RMK AO2 SLP195 T01670033 56044;EQDQ01+000000PRSWM2
0190722589999992000120401534+33190-097180FM-15+0197KDTO V0209999C000010300019N0160931N1+00401+00101103171ADDGD13991+0300019GD24991+0360019GF108991999999999999999999MA1103151999999MW1001REMMET082KDTO 040153Z AUTO 00000KT 10SM BKN100 OVC120 04/01 A3046 RMK AO2 SLP317 T00390011;EQDQ01+000000PRSWM2
0169722589999992000120403534+33190-097180FM-15+0197KDTO V0201301N002112200019N0160931N1+00301-00101103141ADDGD12991+0330019GF104991999999999999999999MA1103121999999MW1001REMMET076KDTO 040353Z AUTO 13004KT 10SM SCT110 03/M01 A3045 RMK AO2 SLP314 T00331006;EQDQ01+000000PRSWM2
0071722589999992000120920009+33200-097183NSRDB+019799999V020999999999999999999999999999+99999+99999999999ADDGP10060038302008023202015026202008GQ100600585919859GR100600736914119
0054722589999992000121110009+33200-097183NSRDB+019799999V020999999999999999999999999999+99999+99999999999ADDGP10060000002000000002000000002000GR100600000900009
0169722589999992000121110354+33190-097180FM-15+0197KDTO V0203101N003610012019N0096561N1+00801+00701999999ADDGD14991+0012019GF108991999999999999999999MA1101191999999MW1101REMMET060KDTO 111035Z AUTO 31007KT 6SM BR OVC004 08/07 A2988 RMK AO2;EQDQ01+000003PRSWM1Q02    003PRSWM1
0054722589999992000121203009+33200-097183NSRDB+019799999V020999999999999999999999999999+99999+99999999999ADDGP10060000002000000002000000002000GR100600000900009
0221722589999992000121302444+33190-097180FM-15+0197KDTO V0200601N003610132019N0096561N1-00401-00601999999ADDGD12991+0054019GD24991+0132019GF108991999999999999999999MA1102541999999MW1101REMMET097KDTO 130244Z AUTO 06007KT 6SM UP BR FEW018 OVC044 M04/M06 A3028 RMK AO2 UPE02B38FZRAB02E38 PNO $;EQDQ01+000003PRSWM1Q02    003PRSWM1
0213722589999992000121307534+33190-097180FM-15+0197KDTO V0201401N002610051019N0128741N1-00301-00401102201ADDGD14991+0051019GF108991999999999999999999MA1102171999999MW1661REMMET104KDTO 130753Z AUTO 14005KT 8SM -FZRA OVC017 M03/M04 A3017 RMK AO2 UPB44E52FZRAB52 SLP220 T10281039 PNO $;EQDQ01+000003PRSWM1Q02    003PRSWM1
0120722589999992000121407534+33190-097180FM-16+0197KDTO V02099999999992200019N9999999N1+99999+99999102681ADDMA1102641999999MW1001REMMET068KDTO 140753Z AUTO 10SM CLR M04/M06 A3031 RMK AO2 SLP268 T10441061 $;EQDQ01+000000PRSWM2
0190722589999992000121604534+33190-097180FM-15+0197KDTO V0201801N005110006019N0040231N1+01001+01001100881ADDGD14991+0006019GF108991999999999999999999MA1100881999999MW1101REMMET081KDTO 160453Z AUTO 18010KT 2 1/2SM BR OVC002 10/10 A2979 RMK AO2 SLP088 T01000100;EQDQ01+000003PRSWM1Q02    003PRSWM1
0152722589999992000121912534+33190-097180FM-15+0197KDTO V0203201N004112200019N0160931N1-00301-00701103241ADDGF100991999999999999999999MA1103221999999MW1001REMMET074KDTO 191253Z AUTO 32008KT 10SM CLR M03/M07 A3048 RMK AO2 SLP324 T10281067;EQDQ01+000000PRSWM2
0245722589999992000122017534+33190-097180FM-15+0197KDTO V0201901N013412200019N0160931N1+01201-00201100911ADDGF100991999999999999999999KA1999M+01171KA2999N+00171MA1100911999999MD1810361+9999MW1001OC101651REMMET119KDTO 201753Z AUTO 19026G32KT 10SM CLR 12/M02 A2980 RMK AO2 PK WND 18037/1713 PRESFR SLP091 T01171022 10117 20017 58036;EQDQ01+000000PRSWM2
0151722589999992000122412534+33190-097180FM-15+0197KDTO V0203501N003112200019N0144841N1-00201-00301103021ADDGF100991999999999999999999MA1102981999999MW1001REMMET073KDTO 241253Z AUTO 35006KT 9SM CLR M02/M03 A3041 RMK AO2 SLP302 T10221033;EQDQ01+000000PRSWM2
0071722589999992000122719009+33200-097183NSRDB+019799999V020999999999999999999999999999+99999+99999999999ADDGP10060010802008000002015010802008GQ100600566918009GR100600778914159
0054722589999992000122903009+33200-097183NSRDB+019799999V020999999999999999999999999999+99999+99999999999ADDGP10060000002000000002000000002000GR100600000900009
0152722589999992000123009534+33190-097180FM-15+0197KDTO V0203501N001512200019N0160931N1-00401-00501102901ADDGF100991999999999999999999MA1102881999999MW1001REMMET074KDTO 300953Z AUTO 35003KT 10SM CLR M04/M05 A3038 RMK AO2 SLP290 T10391050;EQDQ01+000000PRSWM2
0054722590039272000010213009+32900-097017NSRDB+017199999V020999999999999999999999999999+99999+99999999999ADDGP10060000002000000002000000002000GR100600000900009
0497722590039272000010718003+32900-097017SY-MT+0171DFW  V0200405N00215007925MN0144005N1+01225+00615102965ADDAA101000095AA206000091GD13995+0079259GD24995+0094559GF108991999999008001999999GP10060010602008000002015010602008GQ100600575916249GR100600760914159KA1120M+01171KA2240N+00941MA1102985100881MD1810071+9999REMSYN092AAXX  07184 72259 32564 80404 10122 20061 30088 40296 58007 91753 333 10117 20094 555 90718;EQDQ01  00002PRCP06N01 00000JPWTH 0QNNAA1D0 04026BA1 0 04026AA1D0 06031BA1 0 06031GA1 0 00026KA1D0 00043JA1 0 00061LA1 0 00900CA1 0 03041NA1 0 00000QA1 0 10296SA1D0 00054RA1 0 00122YA1 0 04004
0171722590039272000010813344+32900-097030FM-16+0182KDFW V0201401N002610039019N0112651N1+00901+00801999999ADDGD14991+0039019GF108991999999999999999999MA1102131999999MW1611REMMET062KDFW 081334Z 14005KT 7SM -RA OVC013 09/08 A3016 RMK AO2 P0000;EQDQ01+000003PRSWM1Q02    003PRSWM1
036972259003927200001082153C+32900-097017FM-15+0171DFW  V0201905N00315008235MN0160005N1+01225+00895101485ADDAA101000095GD11995+0039659GD24995+0082359GF108991999999999999999999MA1101525999999MW1001REMMET077KDFW 082153Z 19006KT 10SM FEW013 OVC027 12/09 A2998 RMK AO2 SLP148 T01220089;EQDQ01+000000PRSWM2N01 00000JPWTH 0QNNAA1D0 02013BA1 0 01013AA1D0 06027BA1 0 06027GA1 0 00027KA1D0 00048JA1 0 00089LA1 0 01000CA1 0 02998NA1 0 00000QA1 0 10148SA1D0 00054RA1 0 00122YA1 0 19006
0255722590039272000010907003+32900-097017FM-15+0171DFW  V0201805N00465220005MN008000599+00835+00675101185ADDAA101000095GD10995+9999999GP10060000002000000002000000002000GR100600000900009MA1101195999999MW1455EQDN01 00070JPWTH 0QNNAA1D0 00000BA1 0 00000GA1U0 99999KA1D0 00044JA1 0 00067LA1 0 00500CA1 0 02988NA1 0 00070QA1 0 10118SA1D0 00047RA1 0 00083YA1 0 18009
0071722590039272000010914009+32900-097017NSRDB+017199999V020999999999999999999999999999+99999+99999999999ADDGP10060000002008000002015000002008GQ100600877911829GR100600025906259
030872259003927200001100053C+32900-097017FM-15+0171DFW  V0202605N00625220005MN0160005N1+01725-00395100825ADDAA101000095GF100991999999999999999999MA1100855999999MW1001REMMET068KDFW 100053Z 26012KT 10SM CLR 17/M04 A2978 RMK AO2 SLP082 T01721039;EQDQ01+000000PRSWM2N01 00000JPWTH 0QNNAA1D0 00000BA1 0 00000GA1U0 99999KA1D0 00025JA1 0-00039LA1 0 01000CA1 0 02978NA1 0 00000QA1 0 10082SA1D0 00063RA1 0 00172YA1 0 26012
030872259003927200001110353C+32900-097017FM-15+0171DFW  V0202205N00365220005MN0160005N1+01225-00225101235ADDAA101000095GF100991999999999999999999MA1101295999999MW1001REMMET068KDFW 110353Z 22007KT 10SM CLR 12/M02 A2991 RMK AO2 SLP123 T01221022;EQDQ01+000000PRSWM2N01 00000JPWTH 0QNNAA1D0 00000BA1 0 00000GA1U0 99999KA1D0 00028JA1 0-00022LA1 0 01000CA1 0 02991NA1 0 00000QA1 0 10123SA1D0 00054RA1 0 00122YA1 0 22007
0071722590039272000011220009+32900-097017NSRDB+017199999V020999999999999999999999999999+99999+99999999999ADDGP10060056302008083002015009902008GQ100600562919509GR100600787914149
0071722590039272000011315009+32900-097017NSRDB+017199999V020999999999999999999999999999+99999+99999999999ADDGP10060014602008049002015006102008GQ100600801912399GR100600244914149
0469722590039272000011418003+32900-097017SY-MT+0171DFW  V0201205N00525220005MN0160005N1+01175-00615103935ADDAA101000095GD11995+0914459GF102991999999999999999999GP10060055502008082302015010102008GQ100600567916139GR100600777914149KA1120M+01171KA2240N+00281MA1103935101811MD1810031+9999REMSYN096    AAXX  14184 72259 32966 21210 10117 21061 30181 40393 58003 91753 333 10117 20028 555 91418;EQDQ01  00002PRCP99Q02  00003PRCP99N01 00000JPWTH 0QNNAA1D0 02300BA1 0 01300GA1U0 99999KA1D0 00021JA1 0-00061LA1 0 01000CA1 0 03069NA1 0 00000QA1 0 10393SA1D0 00053RA1 0 00117YA1 0 12010
0071722590039272000011421009+32900-097017NSRDB+017199999V020999999999999999999999999999+99999+99999999999ADDGP10060050402008083502015009302008GQ100600606921039GR100600693914149
032572259003927200001170153C+32900-097017FM-15+0171DFW  V0201705N00525220005MN0160005N1+02005+01285102335ADDAA101000095GD12995+0152459GF104991999999999999999999MA1102375999999MW1001REMMET070KDFW 170153Z 17010KT 10SM SCT050 20/13 A3023 RMK AO2 SLP233 T02000128;EQDQ01+000000PRSWM2N01 00000JPWTH 0QNNAA1D0 02050BA1 0 02050GA1U0 99999KA1D0 00055JA1 0 00128LA1 0 01000CA1 0 03023NA1 0 00000QA1 0 10233SA1D0 00068RA1 0 00200YA1 0 17010
032572259003927200001180153C+32900-097017FM-15+0171DFW  V0201805N00625220005MN0160005N1+02065+01335101915ADDAA101000095GD11995+0914459GF102991999999999999999999MA1101965999999MW1001REMMET070KDFW 180153Z 18012KT 10SM FEW300 21/13 A3011 RMK AO2 SLP191 T02060133;EQDQ01+000000PRSWM2N01 00000JPWTH 0QNNAA1D0 02300BA1 0 01300GA1U0 99999KA1D0 00056JA1 0 00133LA1 0 01000CA1 0 03011NA1 0 00000QA1 0 10191SA1D0 00069RA1 0 00206YA1 0 18012
036872259003927200001181353C+32900-097017FM-15+0171DFW  V0203405N00265220005MN0128005N1+01005+00835101935ADDAA101000095GD11995+0609659GD22995+0914459GF104991999999999999999999MA1102005999999MW1001REMMET076KDFW 181353Z 34005KT 8SM FEW200 SCT300 10/08 A3012 RMK AO2 SLP193 T01000083;EQDQ01+000000PRSWM2N01 00000JPWTH 0QNNAA1D0 02200BA1 0 01200AA1D0 02300BA1 0 02300GA1U0 99999KA1D0 00047JA1 0 00083LA1 0 00800CA1 0 03012NA1 0 00000QA1 0 10193SA1D0 00050RA1 0 00100YA1 0 34005
037072259003927200001220053C+32900-097017FM-15+0171DFW  V0201605N00935008845MN0160005N1+01335-00065101305ADDAA101000095GD13995+0088459GD24995+0146359GF108991999999999999999999MA1101325999999MW1001REMMET078KDFW 220053Z 16018KT 10SM BKN029 OVC048 13/M01 A2992 RMK AO2 SLP130 T01331006;EQDQ01+000000PRSWM2N01 00000JPWTH 0QNNAA1D0 04029BA1 0 04029AA1D0 06048BA1 0 06048GA1 0 00029KA1D0 00031JA1 0-00006LA1 0 01000CA1 0 02992NA1 0 00000QA1 0 10130SA1D0 00056RA1 0 00133YA1 0 16018
032772259003927200001241253C+32900-097017FM-15+0171DFW  V0203605N00315220005MN0160005N1-00055-00335102585ADDAA101000095GD11995+0914459GF102991999999999999999999MA1102575999999MW1001REMMET072KDFW 241253Z 36006KT 10SM FEW300 M00/M03 A3029 RMK AO2 SLP258 T10051033;EQDQ01+000000PRSWM2N01 00000JPWTH 0QNNAA1D0 02300BA1 0 01300GA1U0 99999KA1D0 00026JA1 0-00033LA1 0 01000CA1 0 03029NA1 0 00000QA1 0 10258SA1D0 00031RA1 0-00005YA1 0 36006
032672259003927200001250653C+32900-097017FM-15+0171DFW  V0209999C00005220005MN0160005N1+00505-00835101865ADDAA101000095GD11995+0914459GF102991999999999999999999MA1101865999999MW1001REMMET071KDFW 250653Z 00000KT 10SM FEW300 05/M08 A3008 RMK AO2 SLP186 T00501083;EQDQ01+000000PRSWM2N01 00000JPWTH 0QNNAA1D0 02300BA1 0 01300GA1U0 99999KA1D0 00017JA1 0-00083LA1 0 01000CA1 0 03008NA1 0 00000QA1 0 10186SA1D0 00041RA1 0 00050YA1 0 00000
0071722590039272000012922009+32900-097017NSRDB+017199999V020999999999999999999999999999+99999+99999999999ADDGP10060013502009000002021013502009GQ100600649922489GR100600597914109
0071722590039272000013114009+32900-097017NSRDB+017199999V020999999999999999999999999999+99999+99999999999ADDGP10060000202009012902021000102009GQ100600870911299GR100600043908109
036972259003927200002071653C+32900-097017FM-15+0171DFW  V0203305N00315003665MN0160005N1+01445+00945102785ADDAA101000095GD13995+0036659GD23995+0487759GF107991999999999999999999MA1102815999999MW1001REMMET077KDFW 071653Z 33006KT 10SM BKN012 BKN160 14/09 A3036 RMK AO2 SLP278 T01440094;EQDQ01+000000PRSWM2N01 00000JPWTH 0QNNAA1D0 04012BA1 0 04012AA1D0 04160BA1 0 04160GA1 0 00012KA1D0 00049JA1 0 00094LA1 0 01000CA1 0 03036NA1 0 00000QA1 0 10278SA1D0 00058RA1 0 00144YA1 0 33006
032772259003927200002080253C+32900-097017FM-15+0171DFW  V0203305N00625220005MN0160005N1+01615+00505102785ADDAA101000095GF100991999999999999999999MA1102815999999MD1310161+9999MW1001REMMET073KDFW 080253Z 33012KT 10SM CLR 16/05 A3036 RMK AO2 SLP278 T01610050 53016;EQDQ01+000000PRSWM2N01 00000JPWTH 0QNNAA1D0 00000BA1 0 00000GA1U0 99999KA1D0 00041JA1 0 00050LA1 0 01000CA1 0 03036NA1 0 00000QA1 0 10278SA1D0 00061RA1 0 00161YA1 0 33012
030672259003927200002101053C+32900-097017FM-15+0171DFW  V0201905N00465220005MN0144005N1+01395+01225100885ADDAA101000095GF100991999999999999999999MA1100955999999MW1001REMMET066KDFW 101053Z 19009KT 9SM CLR 14/12 A2981 RMK AO2 SLP088 T01390122;EQDQ01+000000PRSWM2N01 00000JPWTH 0QNNAA1D0 00000BA1 0 00000GA1U0 99999KA1D0 00054JA1 0 00122LA1 0 00900CA1 0 02981NA1 0 00000QA1 0 10088SA1D0 00057RA1 0 00139YA1 0 19009
0054722590039272000021304009+32900-097017NSRDB+017199999V020999999999999999999999999999+99999+99999999999ADDGP10060000002000000002000000002000GR100600000900009
0232722590039272000021305534+32900-097030FM-15+0182KDFW V0201801N004112200019N0144841N1+01501+00801100851ADDGD12991+0132019GF102991999999999999999999KA1999M+01561KA2999N+01441MA1100881999999MD1610201+9999MW1001REMMET099KDFW 130553Z 18008KT 9SM FEW044 15/08 A2979 RMK AO2 SLP085 T01500083 10156 20144 401670039 56020 $;EQDQ01+000000PRSWM2
0054722590039272000021513009+32900-097017NSRDB+017199999V020999999999999999999999999999+99999+99999999999ADDGP10060000002000000002000000002000GR100600000900009
0054722590039272000021807009+32900-097017NSRDB+017199999V020999999999999999999999999999+99999+99999999999ADDGP10060000002000000002000000002000GR100600000900009
0054722590039272000022405009+32900-097017NSRDB+017199999V020999999999999999999999999999+99999+99999999999ADDGP10060000002000000002000000002000GR100600000900009
0183722590039272000022408534+32900-097030FM-15+0182KDFW V0201801N006212200019N0160931N1+01801+01601101481ADDGD12991+0075019GF102991999999999999999999MA1101561999999MD1810021+9999MW1001REMMET076KDFW 240853Z 18012KT 10SM FEW025 18/16 A2999 RMK AO2 SLP148 T01780156 58002;EQDQ01+000000PRSWM2
048372259003927200002251453C+32900-097017FM-15+0171DFW  V0201805N01085028965MN0160005N1+02115+01675100985ADDAA101000095AA203000021GD11995+0064059GD23995+0289659GD33995+0914459GF107991999999999999999999MA1101055999999MD1010081+9999MW1001OC101341REMMET121KDFW 251453Z COR 18021G26KT 10SM FEW021 BKN095 BKN300 21/17 A2984 RMK AO2 PK WND 18026/1449 SLP098 60000 T02110167 50008;EQDQ01+000000PRSWM2N01 00000JPWTH 0QNNAA1D0 02021BA1 0 01021AA1D0 04095BA1 0 04095AA1D0 04300BA1 0 04300GA1 0 00095KA1D0 00062JA1 0 00167LA1 0 01000CA1 0 02984NA1 0 00000QA1 0 10098SA1D0 00070RA1 0 00211YA1 0 18021
0071722590039272000022701009+32900-097017NSRDB+017199999V020999999999999999999999999999+99999+99999999999ADDGP10060000002008000002015000002008GQ100600881925869GR100600017905009
0054722590039272000030304009+32900-097017NSRDB+017199999V020999999999999999999999999999+99999+99999999999ADDGP10060000002000000002000000002000GR100600000900009
0433722590039272000030306003+32900-097017SY-MT+0171DFW  V0209999C00005220005MN0160005N1+01445+01285100995ADDAA101000095AA206004191GD12995+0914459GF104991999999999999999999GP10060000002000000002000000002000GR100600000900009KA1240M+02391KA2240N+01281MA1101055098981MD1310161+9999REMSYN098AAXX  03064 72259 12966 40000 10144 20128 39898 40099 53016 60041 90553 333 10239 20128 555 90306;EQDN01 00000JPWTH 0QNNAA1D0 02300BA1 0 02300GA1U0 99999KA1D0 00055JA1 0 00128LA1 0 01000CA1 0 02984NA1 0 00000QA1 0 10099SA1D0 00058RA1 0 00144YA1 0 00000
0406722590039272000030406003+32900-097017SY-MT+0171DFW  V0203405N00625009455MN0160005N1+00895+00225102065ADDAA101000095GD14995+0094559GF108991999999008001999999GP10060000002000000002000000002000GR100600000900009MA1102075099981MD1610011+9999REMSYN076AAXX  04064 72259 32566 83412 10089 20022 39998 40206 56001 90553 555 90406;EQDQ01  00002PRCP99Q02  00003PRCP99N01 00000JPWTH 0QNNAA1D0 06031BA1 0 06031GA1 0 00031KA1D0 00036JA1 0 00022LA1 0 01000CA1 0 03014NA1 0 00000QA1 0 10206SA1D0 00048RA1 0 00089YA1 0 34012
032572259003927200003040653C+32900-097017FM-15+0171DFW  V0203405N00575008845MN0160005N1+00895+00225102045ADDAA101000095GD14995+0088459GF108991999999999999999999MA1102075999999MW1001REMMET070KDFW 040653Z 34011KT 10SM OVC029 09/02 A3014 RMK AO2 SLP204 T00890022;EQDQ01+000000PRSWM2N01 00000JPWTH 0QNNAA1D0 06029BA1 0 06029GA1 0 00029KA1D0 00036JA1 0 00022LA1 0 01000CA1 0 03014NA1 0 00000QA1 0 10204SA1D0 00048RA1 0 00089YA1 0 34011
033772259003927200003080653C+32900-097017FM-15+0171DFW  V0201805N00215012505MN0160005N1+01505+01005101425ADDAA101000025GD14995+0125059GF108991999999999999999999MA1101495999999MW1001REMMET082KDFW 080653Z 18004KT 10SM OVC041 15/10 A2997 RMK AO2 RAE15 SLP142 P0000 T01500100;EQDQ01+000000PRSWM2N01 00000JPWTH 0QNNAA1D0 06041BA1 0 06041GA1 0 00041KA1D0 00050JA1 0 00100LA1 0 01000CA1 0 02997NA1 0 00000QA1 0 10142SA1D0 00059RA1 0 00150YA1 0 18004
0071722590039272000030816009+32900-097017NSRDB+017199999V020999999999999999999999999999+99999+99999999999ADDGP10060032702008012902015025902008GQ100600583912099GR100600727913879
0071722590039272000031114009+32900-097017NSRDB+017199999V020999999999999999999999999999+99999+99999999999ADDGP10060012902008040402015006502008GQ100600809910019GR100600218913859
0071722590039272000031117009+32900-097017NSRDB+017199999V020999999999999999999999999999+99999+99999999999ADDGP10060068002008078302015014902008GQ100600474913429GR100600937913859
039072259003927200003171453C+32900-097017FM-15+0171DFW  V0203005N00575002745MN0112005N1+00505+00285102195ADDAA101000025AA203000021GD14995+0027459GF108991999999999999999999MA1102205999999MD1310071+9999MW1001REMMET110KDFW 171453Z 30011KT 7SM OVC009 05/03 A3018 RMK AO2 RAB1354E07 CIG 006V010 SLP219 P0000 60000 T00500028 53007;EQDQ01+000000PRSWM2N01 00000JPWTH 0QNNAA1D0 06009BA1 0 06009GA1 0 00009KA1D0 00037JA1 0 00028LA1 0 00700CA1 0 03018NA1 0 00000QA1 0 10219SA1D0 00041RA1 0 00050YA1 0 30011
0054722590039272000031805009+32900-097017NSRDB+017199999V020999999999999999999999999999+99999+99999999999ADDGP10060000002000000002000000002000GR100600000900009
0054722590039272000032005009+32900-097017NSRDB+017199999V020999999999999999999999999999+99999+99999999999ADDGP10060000002000000002000000002000GR100600000900009
0071722590039272000032323009+32900-097017NSRDB+017199999V020999999999999999999999999999+99999+99999999999ADDGP10060007402008000002015007402008GQ100600634925309GR100600614913759
0243722590039272000032417534+32900-097030FM-15+0182KDFW V0201801N004112200019N0160931N1+02501+01601101511ADDGD12991+0600019GD22991+0900019GF104991999999999999999999KA1999M+02501KA2999N+01111MA1101591999999MD1010001+9999MW1001REMMET095KDFW 241753Z 18008KT 10SM FEW200 SCT300 25/16 A3000 RMK AO2 SLP151 T02500161 10250 20111 50000;EQDQ01+000000PRSWM2
0071722590039272000032514009+32900-097017NSRDB+017199999V020999999999999999999999999999+99999+99999999999ADDGP10060019202008031302015012202008GQ100600771909609GR100600307913749
0071722590039272000032517009+32900-097017NSRDB+017199999V020999999999999999999999999999+99999+99999999999ADDGP10060012002008000002015012002008GQ100600424913049GR100601013913749
0502722590039272000032518003+32900-097017SY-MT+0171DFW  V0202005N00465091445MN0160005N1+02565+01725101735ADDAA101000095GD11995+0137259GD24995+0914459GF108991999999012501999999GP10060019702008000602015019202008GQ100600344915109GR100601133913749KA1120M+02611KA2240N+02001MA1101795099711MD1010031+9999REMSYN092AAXX  25184 72259 32666 82009 10256 20172 39971 40173 50003 91753 333 10261 20200 555 92518;EQDQ01  00002PRCP99Q02  00003PRCP99N01 00000JPWTH 0QNNAA1D0 02045BA1 0 01045AA1D0 06300BA1 0 06300GA1 0 00300KA1D0 00063JA1 0 00172LA1 0 01000CA1 0 03006NA1 0 00000QA1 0 10173SA1D0 00078RA1 0 00256YA1 0 20009
0071722590039272000032519009+32900-097017NSRDB+017199999V020999999999999999999999999999+99999+99999999999ADDGP10060081902008051602015037502008GQ100600310917819GR100601177913749
0323722590039272000032900534+32900-097030FM-15+0182KDFW V0201301N003110045019N0040231N1+02301+02001999999ADDAA101008191GA1999+015001091GD13991+0045019GD23991+0102019GD34991+0150019GF108991999999999999999999MA1100071999999MW1821MW2971REMMET151KDFW 290053Z 13006KT 2 1/2SM +TSRA BKN015 BKN034 OVC050CB 23/20 A2955 RMK AO2 TSB21RAB07 PRESRR SLPNO TS SW-OHD-NE FRQ LTGICCC MOV ENE P0032 T02280200;EQDQ01+000003PRSWM1Q02    003PRSWM1
0054722590039272000032903009+32900-097017NSRDB+017199999V020999999999999999999999999999+99999+99999999999ADDGP10060000002000000002000000002000GR100600000900009
036972259003927200003311553C+32900-097017FM-15+0171DFW  V0200905N00525091445MN0160005N1+01565+00895101875ADDAA101000095GD11995+0335359GD24995+0914459GF108991999999999999999999MA1101905999999MW1001REMMET077KDFW 311553Z 09010KT 10SM FEW110 OVC300 16/09 A3009 RMK AO2 SLP187 T01560089;EQDQ01+000000PRSWM2N01 00000JPWTH 0QNNAA1D0 02110BA1 0 01110AA1D0 06300BA1 0 06300GA1 0 00300KA1D0 00048JA1 0 00089LA1 0 01000CA1 0 03009NA1 0 00000QA1 0 10187SA1D0 00060RA1 0 00156YA1 0 09010
042772259003927200004021353C+32900-097017FM-15+0171DFW  V0200105N00315014635MN0112005N1+01225+01005101445ADDAA101000025GD12995+0030559GD23995+0146359GD34995+0243859GF108991999999999999999999MA1101465999999MW1001REMMET098KDFW 021353Z 01006KT 7SM SCT010 BKN048 OVC080 12/10 A2996 RMK AO2 RAB20E31 SLP144 P0000 T01220100;EQDQ01+000000PRSWM2N01 00000JPWTH 0QNNAA1D0 02010BA1 0 02010AA1D0 04048BA1 0 04048AA1D0 06080BA1 0 06080GA1 0 00048KA1D0 00050JA1 0 00100LA1 0 00700CA1 0 02996NA1 0 00000QA1 0 10144SA1D0 00054RA1 0 00122YA1 0 01006
0054722590039272000040411009+32900-097017NSRDB+017199999V020999999999999999999999999999+99999+99999999999ADDGP10060000002000000002000000002000GR100600000900009
0508722590039272000041000003+32900-097017SY-MT+0171DFW  V0201705N00885091445MN0160005N1+02065-00065101685ADDAA101000095GD11995+0396259GD23995+0914459GF106991999999999999999999GP10060019002008027402015011102008GQ100600732926879GR100600393913629KA1120M+02221KA2180N+00501MA1101735099641MD1610241+9999REMSYN098AAXX  10004 72259 32966 61717 10206 21006 39964 40168 56024 92353 333 10222 20050 91022 555 91000;EQDQ01  00002PRCP99Q02  00003PRCP99N01 00000JPWTH 0QNNAA1D0 02130BA1 0 01130AA1D0 04300BA1 0 04300GA1 0 00300KA1D0 00031JA1 0-00006LA1 0 01000CA1 0 03004NA1 0 00000QA1 0 10168SA1D0 00069RA1 0 00206YA1 0 17017
0054722590039272000041003009+32900-097017NSRDB+017199999V020999999999999999999999999999+99999+99999999999ADDGP10060000002000000002000000002000GR100600000900009
0071722590039272000041013009+32900-097017NSRDB+017199999V020999999999999999999999999999+99999+99999999999ADDGP10060000002008000002015000002008GQ100600846908369GR100600115912369
0279722590039272000041201434+32900-097030FM-16+0182KDFW V0203401N003110030019N0048281N1+01601+01401999999ADDGA1999+006901091GD12991+0018019GD23991+0030019GD34991+0069019GF108991999999999999999999MA1102171999999MW1971REMMET108KDFW 120143Z 34006KT 3SM +TSRA BR SCT006 BKN010 OVC023CB 16/14 A3017 RMK AO2 FRQ LTGICCG TS OHD STNRY P0022;EQDQ01+000820PRSWM3Q02+000100PRSWM4Q03+000003PRSWM1
0054722590039272000041811009+32900-097017NSRDB+017199999V020999999999999999999999999999+99999+99999999999ADDGP10060000002000000002000000002000GR100600000900009
0071722590039272000042002009+32900-097017NSRDB+017199999V020999999999999999999999999999+99999+99999999999ADDGP10060000002000000002000000002000GQ100600900928429GR100600000900119
030772259003927200004211253C+32900-097017FM-15+0171DFW  V0203605N00365220005MN0160005N1+01335+00895102285ADDAA101000095GF100991999999999999999999MA1102345999999MW1001REMMET067KDFW 211253Z 36007KT 10SM CLR 13/09 A3022 RMK AO2 SLP228 T01330089;EQDQ01+000000PRSWM2N01 00000JPWTH 0QNNAA1D0 00000BA1 0 00000GA1U0 99999KA1D0 00048JA1 0 00089LA1 0 01000CA1 0 03022NA1 0 00000QA1 0 10228SA1D0 00056RA1 0 00133YA1 0 36007
050372259003927200004230053C+32900-097017FM-15+0171DFW  V0201105N00775027431MN0160005N1+02065+01225100236ADDAA101001395GD12995+0054959GD22995+0152459GD33995+0274359GF107991999999999999999999MA1100275999999MW1001OC101031REMMET134KDFW 230053Z 11015G20KT 10SM SCT018 SCT050 BKN090 21/12 A2961 RMK AO2 WSHFT 2356 TSE22RAB02E20 PRESFR SLP023 TS MOV E P0005 T02060122;EQDQ01+100233APOSLPQ02+000000PRSWM2Q03 999993SCOCIGN01 00000JPWTH 0QNNAA1D0 02018BA1 0 02018AA1D0 02050BA1 0 02050AA1D0 04090BA1 0 04090GA1 0 00900KA1D0 00054JA1 0 00122LA1 0 01000CA1 0 02961NA1 0 00000QA1 0 10023SA1D0 00069RA1 0 00206YA1 0 11015
0465722590039272000042600003+32900-097017SY-MT+0171DFW  V0200505N00215220005MN0160005N1+02565+01445101715ADDAA101000095GD11995+0152459GF102991999999017501999999GP10060024002008041902015010402008GQ100600710927429GR100600438913499KA1120M+02781KA2180N+01391MA1101765099681MD1610081+9999REMSYN092AAXX  26004 72259 32766 20504 10256 20144 39968 40171 56008 92353 333 10278 20139 555 92600;EQDQ01  00002PRCP99Q02  00003PRCP99N01 00000JPWTH 0QNNAA1D0 02050BA1 0 01050GA1U0 99999KA1D0 00058JA1 0 00144LA1 0 01000CA1 0 03005NA1 0 00000QA1 0 10171SA1D0 00078RA1 0 00256YA1 0 05004
0071722590039272000042601009+32900-097017NSRDB+017199999V020999999999999999999999999999+99999+99999999999ADDGP10060006202008022802015003602008GQ100600834928209GR100600156913499
0502722590039272000042700003+32900-097017SY-MT+0171DFW  V0201305N00415091445MN0160005N1+02785+01335101655ADDAA101000095GD11995+0609659GD24995+0914459GF108991999999999999999999GP10060024002008040802015010702008GQ100600709927459GR100600440913499KA1120M+02941KA2180N+01501MA1101735099641MD1610111+9999REMSYN092AAXX  27004 72259 32966 81308 10278 20133 39964 40165 56011 92353 333 10294 20150 555 92700;EQDQ01  00002PRCP99Q02  00003PRCP99N01 00000JPWTH 0QNNAA1D0 02200BA1 0 01200AA1D0 06300BA1 0 06300GA1 0 00300KA1D0 00056JA1 0 00133LA1 0 01000CA1 0 03004NA1 0 00000QA1 0 10165SA1D0 00082RA1 0 00278YA1 0 13008
0685722590039272000042705596+32898-097019SOD  +0182KDFW V020999999999999999999999999999+99999+99999999999ADDAA124000096KA1240M+02945KA2240N+01505MG1099669999994OE11240062613022015OE22240058114022005OE33240025999999995REMSOD54524 HR PRECIPITATION (IN): 0.00 24 HR MAX TEMP (F): 8524 HR MAX TEMP TIME (LST):1627 24 HR MIN TEMP (F): 5924 HR MIN TEMP TIME (LST):0603 AVERAGE STATION PRESSURE:29.43  PEAK WIND SPEED (MPH): 14 PEAK WIND DIR (DEG):130 PEAK WIND TIME (LST):2201  FASTEST 2MIN SPEED (MPH): 13FASTEST 2MIN DIR (DEG):140 FASTEST 2MIN TIME (LST):2200 AVERAGE WIND SPEED (MPH): 5.8 24 HR AVG TEMP (F):72 HOURLY INCREMENTAL PRECIPITATION VALUES (IN):.00  .00  .00  .00  .00  .00  .00  .00  .00  .00  .00  .00  .00  .00  .00  .00  .00  .00  .00  .00  .00  .00  .00  .00EQDR01  0.007AAP092
0546722590039272000043012003+32900-097017SY-MT+0171DFW  V0201305N006250365819N0112005N1+02065+01785101425ADDAA101000095AA206000791AA324001391GD11995+0182959GD23995+0365859GD34995+0914459GF108991999999017501999999GP10060000002008000002015000002008GQ100600885907299GR100600010903939KA1999M+02891KA2120N+02061MA1101495099411MD1010021+9999REMSYN104AAXX  30124 72259 12761 81312 10206 20178 39941 40142 50002 69901 91153 333 10289 20206 70013 555 93012;EQDQ01 999993SCOCIGN01 00000JPWTH 0QNNAA1D0 02060BA1 0 01060AA1D0 04120BA1 0 04120AA1D0 06300BA1 0 06300KA1D0 00064JA1 0 00178LA1 0 00700CA1 0 02997NA1 0 00000QA1 0 10142SA1D0 00069RA1 0 00206YA1 0 13012
0054722590039272000050404009+32900-097017NSRDB+017199999V020999999999999999999999999999+99999+99999999999ADDGP10060000002000000002000000002000GR100600000900009
041372259003927200005081553C+32900-097017FM-15+0171DFW  V0201805N00885220005MN0160005N1+02725+02005100935ADDAA101000095GD11995+0061059GD22995+0365859GD32995+0914459GF104991999999999999999999MA1101025999999MW1001REMMET084KDFW 081553Z 18017KT 10SM FEW020 SCT120 SCT300 27/20 A2983 RMK AO2 SLP093 T02720200;EQDQ01+000000PRSWM2N01 00000JPWTH 0QNNAA1D0 02020BA1 0 01020AA1D0 02120BA1 0 02120AA1D0 02300BA1 0 02300GA1U0 99999KA1D0 00068JA1 0 00200LA1 0 01000CA1 0 02983NA1 0 00000QA1 0 10093SA1D0 00081RA1 0 00272YA1 0 18017
0071722590039272000050902009+32900-097017NSRDB+017199999V020999999999999999999999999999+99999+99999999999ADDGP10060000002008000002015000002008GQ100600888929039GR100600007903249
0071722590039272000051019009+32900-097017NSRDB+017199999V020999999999999999999999999999+99999+99999999999ADDGP10060069002008027002015043002008GQ100600156918489GR100601290913399
0071722590039272000051519009+32900-097017NSRDB+017199999V020999999999999999999999999999+99999+99999999999ADDGP10060086402008054602015033402008GQ100600144918529GR100601294913369
0454722590039272000051806003+32900-097017SY-MT+0171DFW  V0201805N00985220005MN0160005N1+02505+01945100695ADDAA101000095GD11995+0091459GF102991999999008001999999GP10060000002000000002000000002000GR100600000900009KA1240M+02941KA2240N+02221MA1100785098711MD1110231+9999REMSYN098AAXX  18064 72259 32566 21819 10250 20194 39871 40069 51023 90553 333 10294 20222 91027 555 91806;EQDQ01  00002PRCP99Q02  00003PRCP99N01 00000JPWTH 0QNNAA1D0 02030BA1 0 01030GA1U0 99999KA1D0 00067JA1 0 00194LA1 0 01000CA1 0 02976NA1 0 00000QA1 0 10069SA1D0 00077RA1 0 00250YA1 0 18019
0071722590039272000052116009+32900-097017NSRDB+017199999V020999999999999999999999999999+99999+99999999999ADDGP10060070802008064302015022002008GQ100600407909699GR100601009913339
0203722590039272000052223534+32900-097030FM-15+0182KDFW V0201801N006712200019N0160931N1+03301+01801100811ADDGF100991999999999999999999KA1999M+03441KA2999N+03281MA1100911999999MD1610141+9999MW1001REMMET085KDFW 222353Z 18013KT 10SM CLR 33/18 A2980 RMK AO2 SLP081 T03280178 10344 20328 56014;EQDQ01+000000PRSWM2
0071722590039272000052416009+32900-097017NSRDB+017199999V020999999999999999999999999999+99999+99999999999ADDGP10060071402008073402015015502008GQ100600405909619GR100601011913319
0663722590039272000053105596+32898-097019SOD  +0182KDFW V020999999999999999999999999999+99999+99999999999ADDAA124000096KA1240M+03505KA2240N+02395MG1099059999994OE11240111818012055OE22240089416016235OE33240054599999995REMSOD52324 HR PRECIPITATION (IN): 0.00 24 HR MAX TEMP (F): 9524 HR MAX TEMP TIME (LST):1549 24 HR MIN TEMP (F): 7524 HR MIN TEMP TIME (LST):0519 AVERAGE STATION PRESSURE:29.25  PEAK WIND SPEED (MPH): 25 PEAK WIND DIR (DEG):180 PEAK WIND TIME (LST):1205  FASTEST 2MIN SPEED (MPH): 20FASTEST 2MIN DIR (DEG):160 FASTEST 2MIN TIME (LST):1623 AVERAGE WIND SPEED (MPH):12.2 HOURLY INCREMENTAL PRECIPITATION VALUES (IN):.00  .00  .00  .00  .00  .00  .00  .00  .00  .00  .00  .00  .00  .00  .00  .00  .00  .00  .00  .00  .00  .00  .00  .00EQDR01  0.007AAP092
0054722590039272000061007009+32900-097017NSRDB+017199999V020999999999999999999999999999+99999+99999999999ADDGP10060000002000000002000000002000GR100600000900009
0190722590039272000061019164+32900-097030FM-16+0182KDFW V0201701N004610240019N0160931N1+02901+02401999999ADDGD12991+0075019GD23991+0240019GD34991+0330019GF108991999999999999999999MA1101421999999MW1001REMMET067KDFW 101916Z 17009KT 10SM SCT025 BKN080 OVC110 29/24 A2995 RMK AO2;EQDQ01+000000PRSWM2
0254722590039272000061020164+32900-097030FM-16+0182KDFW V0201701N012910099019N0020111N1+02701+02201999999ADDGD13991+0099019GD24991+0420019GF108991999999999999999999MA1101391999999MW1001OC101851REMMET138KDFW 102016Z 17025G36KT 1 1/4SM R17C/4000VP6000FT +TSRA BKN033 OVC140 27/22 A2994 RMK AO2 PK WND 17036/2016 TSB16RAB13 TS OHD MOV N P0012;EQDQ01+000000PRSWM2
0184722590039272000061503404+32900-097300FM-16+0182KDFW V0200401N002110300019N0160931N1+02101+01901999999ADDGD13991+0300019GF107991999999999999999999MA1101351999999MW1001REMMET091KDFW 150340Z 04004KT 10SM BKN100 21/19 A2993 RMK AO2 TSE34RAE35 LTG DSNT S TS MOV SE P0002;EQDQ01+000000PRSWM2
043172259003927200006201653C+32900-097017FM-15+0171DFW  V0201805N01085010975MN0160005N1+03115+02175101335ADDAA101000095GD13995+0109759GD23995+0457259GD33995+0914459GF107991999999999999999999MA1101425999999MW1001REMMET102KDFW 201653Z 18021KT 10SM BKN036 BKN150 BKN300 31/22 A2995 RMK AO2 PK WND 20027/1633 SLP133 T03110217;EQDQ01+000000PRSWM2N01 00000JPWTH 0QNNAA1D0 04036BA1 0 04036AA1D0 04150BA1 0 04150AA1D0 04300BA1 0 04300GA1 0 00036KA1D0 00071JA1 0 00217LA1 0 01000CA1 0 02995NA1 0 00000QA1 0 10133SA1D0 00088RA1 0 00311YA1 0 18021
034572259003927200006230853C+32900-097017FM-15+0171DFW  V0201905N00415220005MN0160005N1+02675+02285101365ADDAA101000095GD12995+0914459GF104991999999999999999999MA1101465999999MD1510031+9999MW1001REMMET076KDFW 230853Z 19008KT 10SM SCT300 27/23 A2996 RMK AO2 SLP136 T02670228 55003;EQDQ01+000000PRSWM2N01 00000JPWTH 0QNNAA1D0 02300BA1 0 02300GA1U0 99999KA1D0 00073JA1 0 00228LA1 0 01000CA1 0 02996NA1 0 00000QA1 0 10136SA1D0 00080RA1 0 00267YA1 0 19008
0071722590039272000062313009+32900-097017NSRDB+017199999V020999999999999999999999999999+99999+99999999999ADDGP10060014402008031202015007702008GQ100600775907009GR100600286913229
032572259003927200006260453C+32900-097017FM-15+0171DFW  V0201605N00575220005MN0160005N1+02835+02115101235ADDAA101000095GD11995+0914459GF102991999999999999999999MA1101325999999MW1001REMMET070KDFW 260453Z 16011KT 10SM FEW300 28/21 A2992 RMK AO2 SLP123 T02830211;EQDQ01+000000PRSWM2N01 00000JPWTH 0QNNAA1D0 02300BA1 0 01300GA1U0 99999KA1D0 00070JA1 0 00211LA1 0 01000CA1 0 02992NA1 0 00000QA1 0 10123SA1D0 00083RA1 0 00283YA1 0 16011
041372259003927200006271653C+32900-097017FM-15+0171DFW  V0209999V00155091445MN0160005N1+03005+02285101735ADDAA101000095GD11995+0057959GD22995+0304859GD33995+0914459GF107991999999999999999999MA1101835999999MW1001REMMET084KDFW 271653Z VRB03KT 10SM FEW019 SCT100 BKN300 30/23 A3007 RMK AO2 SLP173 T03000228;EQDQ01+000000PRSWM2N01 00000JPWTH 0QNNAA1D0 02019BA1 0 01019AA1D0 02100BA1 0 02100AA1D0 04300BA1 0 04300GA1 0 00300KA1D0 00073JA1 0 00228LA1 0 01000CA1 0 03007NA1 0 00000QA1 0 10173SA1D0 00086RA1 0 00300YA1 0 00003
0276722590039272000062823534+32900-097300FM-15+0182KDFW V0200101N007212200019N0160931N1+03101+02101101361ADDGD12991+0150019GD22991+0300019GD32991+0900019GF104991999999999999999999KA1999M+03501KA2999N+03061MA1101461999999MD1510051+9999MW1001OC100931REMMET105KDFW 282353Z 01014G18KT 10SM FEW050 SCT100 SCT300 31/21 A2996 RMK AO2 SLP136 T03060206 10350 20306 55005;EQDQ01+000000PRSWM2
036972259003927200006291653C+32900-097017FM-15+0171DFW  V0200305N00465220005MN0160005N1+03005+01445101755ADDAA101000095GD11995+0457259GD22995+0914459GF104991999999999999999999MA1101865999999MW1001REMMET077KDFW 291653Z 03009KT 10SM FEW150 SCT300 30/14 A3008 RMK AO2 SLP175 T03000144;EQDQ01+000000PRSWM2N01 00000JPWTH 0QNNAA1D0 02150BA1 0 01150AA1D0 02300BA1 0 02300GA1U0 99999KA1D0 00058JA1 0 00144LA1 0 01000CA1 0 03008NA1 0 00000QA1 0 10175SA1D0 00086RA1 0 00300YA1 0 03009
0253722590039272000063005534+32900-097300FM-15+0182KDFW V0201201N002110450019N0160931N1+02601+02101101451ADDGD12991+0330019GD23991+0450019GF107991999999999999999999KA1999M+02941KA2999N+02561MA1101561999999MD1110081+9999MW1001REMMET105KDFW 300553Z 12004KT 10SM FEW110 BKN150 26/21 A2999 RMK AO2 SLP145 T02610206 10294 20256 403170228 51008;EQDQ01+000000PRSWM2
0071722590039272000070221009+32900-097017NSRDB+017199999V020999999999999999999999999999+99999+99999999999ADDGP10060080302008071602015016802008GQ100600278925629GR100601167913219
0054722590039272000070410009+32900-097017NSRDB+017199999V020999999999999999999999999999+99999+99999999999ADDGP10060000002000000002000000002000GR100600000900009
0220722590039272000070411534+32900-097300FM-15+0182KDFW V0201701N005712200019N0144841N1+02401+02101101411ADDGD12991+0900019GF102991999999999999999999KA1999M+02831KA2999N+02391MA1101521999999MD1310111+9999MW1001REMMET087KDFW 041153Z 17011KT 9SM FEW300 24/21 A2998 RMK AO2 SLP141 T02390206 10283 20239 53011;EQDQ01+000000PRSWM2
030772259003927200007091553C+32900-097017FM-15+0171DFW  V0209999V00315220005MN0160005N1+03285+01945101545ADDAA101000095GF100991999999999999999999MA1101665999999MW1001REMMET067KDFW 091553Z VRB06KT 10SM CLR 33/19 A3002 RMK AO2 SLP154 T03280194;EQDQ01+000000PRSWM2N01 00000JPWTH 0QNNAA1D0 00000BA1 0 00000GA1U0 99999KA1D0 00067JA1 0 00194LA1 0 01000CA1 0 03002NA1 0 00000QA1 0 10154SA1D0 00091RA1 0 00328YA1 0 00006
0071722590039272000071020009+32900-097017NSRDB+017199999V020999999999999999999999999999+99999+99999999999ADDGP10060070502008041302015030802008GQ100600167923129GR100601264913229
032572259003927200007102153C+32900-097017FM-15+0171DFW  V0201905N00825220005MN0160005N1+03565+02065101255ADDAA101000095GD12995+0182959GF104991999999999999999999MA1101355999999MW1001REMMET070KDFW 102153Z 19016KT 10SM SCT060 36/21 A2993 RMK AO2 SLP125 T03560206;EQDQ01+000000PRSWM2N01 00000JPWTH 0QNNAA1D0 02060BA1 0 02060GA1U0 99999KA1D0 00069JA1 0 00206LA1 0 01000CA1 0 02993NA1 0 00000QA1 0 10125SA1D0 00096RA1 0 00356YA1 0 19016
0071722590039272000071401009+32900-097017NSRDB+017199999V020999999999999999999999999999+99999+99999999999ADDGP10060012702008028102015006602008GQ100600776928809GR100600284913229
0502722590039272000071812003+32900-097017SY-MT+0171DFW  V0201805N00365220005MN0160005N1+02565+01895101585ADDAA101000095GD11995+0457259GD22995+0914459GF104991999999999999999999GP10060000002008000002015000002008GQ100600877906629GR100600022905629KA1999M+03891KA2120N+02501MA1101695099611MD1110071+9999REMSYN092AAXX  18124 72259 32966 41807 10256 20189 39961 40158 51007 91153 333 10389 20250 555 91812;EQDQ01  00002PRCP99Q02  00003PRCP99N01 00000JPWTH 0QNNAA1D0 02150BA1 0 01150AA1D0 02300BA1 0 02300GA1U0 99999KA1D0 00066JA1 0 00189LA1 0 01000CA1 0 03003NA1 0 00000QA1 0 10158SA1D0 00078RA1 0 00256YA1 0 18007
0448722590039272000072006003+32900-097017SY-MT+0171DFW  V0201805N00315220005MN0160005N1+03005+01945101415ADDAA101000095GD11995+0914459GF102991999999999999999999GP10060000002000000002000000002000GR100600000900009KA1240M+03781KA2240N+02671MA1101525099441MD1010011+9999REMSYN092AAXX  20064 72259 32966 21806 10300 20194 39944 40141 50001 90553 333 10378 20267 555 92006;EQDQ01  00002PRCP99Q02  00003PRCP99N01 00000JPWTH 0QNNAA1D0 02300BA1 0 01300GA1U0 99999KA1D0 00067JA1 0 00194LA1 0 01000CA1 0 02998NA1 0 00000QA1 0 10141SA1D0 00086RA1 0 00300YA1 0 18006
0071722590039272000072213009+32900-097017NSRDB+017199999V020999999999999999999999999999+99999+99999999999ADDGP10060011502008026702015006902008GQ100600800907239GR100600229913239
042472259003927200007221653C+32900-097017FM-15+0171DFW  V0200405N00675220005MN0160005N1+02945+01785101845ADDAA101000095GD11995+0304859GD22995+0457259GD32995+0914459GF104991999999999999999999MA1101965999999MW1001OC101231REMMET087KDFW 221653Z 04013G24KT 10SM FEW100 SCT150 SCT300 29/18 A3011 RMK AO2 SLP184 T02940178;EQDQ01+000000PRSWM2N01 00000JPWTH 0QNNAA1D0 02100BA1 0 01100AA1D0 02150BA1 0 02150AA1D0 02300BA1 0 02300GA1U0 99999KA1D0 00064JA1 0 00178LA1 0 01000CA1 0 03011NA1 0 00000QA1 0 10184SA1D0 00085RA1 0 00294YA1 0 04013
030772259003927200007230353C+32900-097017FM-15+0171DFW  V0200405N00525220005MN0160005N1+02895+01895101655ADDAA101000095GF100991999999999999999999MA1101765999999MW1001REMMET067KDFW 230353Z 04010KT 10SM CLR 29/19 A3005 RMK AO2 SLP165 T02890189;EQDQ01+000000PRSWM2N01 00000JPWTH 0QNNAA1D0 00000BA1 0 00000GA1U0 99999KA1D0 00066JA1 0 00189LA1 0 01000CA1 0 03005NA1 0 00000QA1 0 10165SA1D0 00084RA1 0 00289YA1 0 04010
0071722590039272000072520009+32900-097017NSRDB+017199999V020999999999999999999999999999+99999+99999999999ADDGP10060088802008070702015021702008GQ100600185922489GR100601255913249
032772259003927200007310253C+32900-097017FM-15+0171DFW  V0200305N00365220005MN0160005N1+02945+01725101305ADDAA101000095GF100991999999999999999999MA1101395999999MD1110201+9999MW1001REMMET073KDFW 310253Z 03007KT 10SM CLR 29/17 A2994 RMK AO2 SLP130 T02940172 51020;EQDQ01+000000PRSWM2N01 00000JPWTH 0QNNAA1D0 00000BA1 0 00000GA1U0 99999KA1D0 00063JA1 0 00172LA1 0 01000CA1 0 02994NA1 0 00000QA1 0 10130SA1D0 00085RA1 0 00294YA1 0 03007
0054722590039272000080311009+32900-097017NSRDB+017199999V020999999999999999999999999999+99999+99999999999ADDGP10060000002000000002000000002000GR100600000900009
032572259003927200008031953C+32900-097017FM-15+0171DFW  V0201705N00415220005MN0160005N1+03835+01725101255ADDAA101000095GD11995+0259159GF102991999999999999999999MA1101355999999MW1001REMMET070KDFW 031953Z 17008KT 10SM FEW085 38/17 A2993 RMK AO2 SLP125 T03830172;EQDQ01+000000PRSWM2N01 00000JPWTH 0QNNAA1D0 02085BA1 0 01085GA1U0 99999KA1D0 00063JA1 0 00172LA1 0 01000CA1 0 02993NA1 0 00000QA1 0 10125SA1D0 00101RA1 0 00383YA1 0 17008
0071722590039272000080514009+32900-097017NSRDB+017199999V020999999999999999999999999999+99999+99999999999ADDGP10060026202008041602015011602008GQ100600694908289GR100600467913289
0471722590039272000080818003+32900-097017SY-MT+0171DFW  V0201905N00675220005MN0160005N1+03505+02005101535ADDAA101000095GD11995+0198159GF102991999999017501999999GP10060090102008083702015012602008GQ100600225913689GR100601227913299KA1120M+03501KA2240N+02721MA1101635099541MD1810031+9999REMSYN098AAXX  08184 72259 32766 21913 10350 20200 39954 40153 58003 91753 333 10350 20272 91017 555 90818;EQDQ01  00002PRCP99Q02  00003PRCP99N01 00000JPWTH 0QNNAA1D0 02065BA1 0 01065GA1U0 99999KA1D0 00068JA1 0 00200LA1 0 01000CA1 0 03001NA1 0 00000QA1 0 10153SA1D0 00095RA1 0 00350YA1 0 19013
041372259003927200008092153C+32900-097017FM-15+0171DFW  V0201905N00775045725MN0160005N1+03565+01675101555ADDAA101000095GD11995+0213459GD23995+0457259GD33995+0914459GF107991999999999999999999MA1101665999999MW1001REMMET084KDFW 092153Z 19015KT 10SM FEW070 BKN150 BKN300 36/17 A3002 RMK AO2 SLP155 T03560167;EQDQ01+000000PRSWM2N01 00000JPWTH 0QNNAA1D0 02070BA1 0 01070AA1D0 04150BA1 0 04150AA1D0 04300BA1 0 04300GA1 0 00150KA1D0 00062JA1 0 00167LA1 0 01000CA1 0 03002NA1 0 00000QA1 0 10155SA1D0 00096RA1 0 00356YA1 0 19015
030972259003927200008161053C+32900-097017FM-15+0171DFW  V0201905N00415220005MN0160005N1+02675+02005102005ADDAA101000095GF100991999999999999999999MA1102105999999MW1001REMMET069KDFW 161053Z 19008KT 10SM CLR 27/20 A3015 RMK AO2 SLP200 T02670200 $;EQDQ01+000000PRSWM2N01 00000JPWTH 0QNNAA1D0 00000BA1 0 00000GA1U0 99999KA1D0 00068JA1 0 00200LA1 0 01000CA1 0 03015NA1 0 00000QA1 0 10200SA1D0 00080RA1 0 00267YA1 0 19008
036972259003927200008161953C+32900-097017FM-15+0171DFW  V0201605N00315220005MN0160005N1+03725+01725101875ADDAA101000095GD11995+0243859GD22995+0914459GF104991999999999999999999MA1101965999999MW1001REMMET077KDFW 161953Z 16006KT 10SM FEW080 SCT300 37/17 A3011 RMK AO2 SLP187 T03720172;EQDQ01+000000PRSWM2N01 00000JPWTH 0QNNAA1D0 02080BA1 0 01080AA1D0 02300BA1 0 02300GA1U0 99999KA1D0 00063JA1 0 00172LA1 0 01000CA1 0 03011NA1 0 00000QA1 0 10187SA1D0 00099RA1 0 00372YA1 0 16006
0464722590039272000081806003+32900-097017SY-MT+0171DFW  V0201905N00415220005MN0160005N1+03115+01615101365ADDAA101000095GA1001+999999999GD10995+9999999GF100991001001999999001001GP10060000002000000002000000002000GR100600000900009KA1240M+03831KA2240N+02611MA1101495099411MD1110051+9999REMSYN092AAXX  18064 72259 32966 01908 10311 20161 39941 40136 51005 90553 333 10383 20261 555 91806;EQDQ01  00002PRCP99Q02  00003PRCP99N01 00000JPWTH 0QNNAA1D0 00000BA1 0 00000GA1U0 99999KA1D0 00061JA1 0 00161LA1 0 01000CA1 0 02997NA1 0 00000QA1 0 10136SA1D0 00088RA1 0 00311YA1 0 19008
0071722590039272000081816009+32900-097017NSRDB+017199999V020999999999999999999999999999+99999+99999999999ADDGP10060058002008049302015023802008GQ100600460910509GR100600925913349
0071722590039272000081921009+32900-097017NSRDB+017199999V020999999999999999999999999999+99999+99999999999ADDGP10060074702008067402015018802008GQ100600340923959GR100601105913349
032772259003927200008201253C+32900-097017FM-15+0171DFW  V0201705N00315220005MN0160005N1+02505+01675101645ADDAA101000095GD11995+0914459GF102991999999999999999999MA1101765999999MW1001REMMET072KDFW 201253Z 17006KT 10SM FEW300 25/17 A3005 RMK AO2 SLP164 T02500167 $;EQDQ01+000000PRSWM2N01 00000JPWTH 0QNNAA1D0 02300BA1 0 01300GA1U0 99999KA1D0 00062JA1 0 00167LA1 0 01000CA1 0 03005NA1 0 00000QA1 0 10164SA1D0 00077RA1 0 00250YA1 0 17006
0071722590039272000082220009+32900-097017NSRDB+017199999V020999999999999999999999999999+99999+99999999999ADDGP10060082102008070602015018302008GQ100600256921529GR100601204913369
0071722590039272000082821009+32900-097017NSRDB+017199999V020999999999999999999999999999+99999+99999999999ADDGP10060073402008074502015013402008GQ100600365923649GR100601075913409
034572259003927200008290253C+32900-097017FM-15+0171DFW  V0201505N00415220005MN0160005N1+03285+01565101215ADDAA101000095GD11995+0914459GF102991999999999999999999MA1101325999999MD1310131+9999MW1001REMMET076KDFW 290253Z 15008KT 10SM FEW300 33/16 A2992 RMK AO2 SLP121 T03280156 53013;EQDQ01+000000PRSWM2N01 00000JPWTH 0QNNAA1D0 02300BA1 0 01300GA1U0 99999KA1D0 00060JA1 0 00156LA1 0 01000CA1 0 02992NA1 0 00000QA1 0 10121SA1D0 00091RA1 0 00328YA1 0 15008
0054722590039272000090210009+32900-097017NSRDB+017199999V020999999999999999999999999999+99999+99999999999ADDGP10060000002000000002000000002000GR100600000900009
030972259003927200009040953C+32900-097017FM-15+0171DFW  V0209999C00005220005MN0160005N1+02835+01615101005ADDAA101000095GF100991999999999999999999MA1101125999999MW1001REMMET069KDFW 040953Z 00000KT 10SM CLR 28/16 A2986 RMK AO2 SLP100 T02830161 $;EQDQ01+000000PRSWM2N01 00000JPWTH 0QNNAA1D0 00000BA1 0 00000GA1U0 99999KA1D0 00061JA1 0 00161LA1 0 01000CA1 0 02986NA1 0 00000QA1 0 10100SA1D0 00083RA1 0 00283YA1 0 00000
0054722590039272000090609009+32900-097017NSRDB+017199999V020999999999999999999999999999+99999+99999999999ADDGP10060000002000000002000000002000GR100600000900009
032572259003927200009072253C+32900-097017FM-15+0171DFW  V0200905N00465220005MN0160005N1+03445+01445101035ADDAA101000095GD11995+0213459GF102991999999999999999999MA1101155999999MW1001REMMET070KDFW 072253Z 09009KT 10SM FEW070 34/14 A2987 RMK AO2 SLP103 T03440144;EQDQ01+000000PRSWM2N01 00000JPWTH 0QNNAA1D0 02070BA1 0 01070GA1U0 99999KA1D0 00058JA1 0 00144LA1 0 01000CA1 0 02987NA1 0 00000QA1 0 10103SA1D0 00094RA1 0 00344YA1 0 09009
0071722590039272000091020009+32900-097017NSRDB+017199999V020999999999999999999999999999+99999+99999999999ADDGP10060081202008071202015021002008GQ100600323921149GR100601139913489
037172259003927200009120953C+32900-097017FM-15+0171DFW  V0201605N00465091445MN0160005N1+02835+01945100785ADDAA101000095GD11995+0426759GD23995+0914459GF107991999999999999999999MA1100885999999MW1001REMMET079KDFW 120953Z 16009KT 10SM FEW140 BKN300 28/19 A2979 RMK AO2 SLP078 T02830194 $;EQDQ01+000000PRSWM2N01 00000JPWTH 0QNNAA1D0 02140BA1 0 01140AA1D0 04300BA1 0 04300GA1 0 00300KA1D0 00067JA1 0 00194LA1 0 01000CA1 0 02979NA1 0 00000QA1 0 10078SA1D0 00083RA1 0 00283YA1 0 16009
039672259003927200009121453C+32900-097017FM-15+0171DFW  V0201305N00365220005MN0160005N1+02895+02235101195ADDAA101000095GD11995+0457259GD22995+0914459GF104991999999999999999999MA1101295999999MD1310261+9999MW1001REMMET090KDFW 121453Z 13007KT 10SM FEW150 SCT300 29/22 A2991 RMK AO2 PRESRR SLP119 T02890223 53026;EQDQ01+000000PRSWM2N01 00000JPWTH 0QNNAA1D0 02150BA1 0 01150AA1D0 02300BA1 0 02300GA1U0 99999KA1D0 00072JA1 0 00223LA1 0 01000CA1 0 02991NA1 0 00000QA1 0 10119SA1D0 00084RA1 0 00289YA1 0 13007
0071722590039272000091215009+32900-097017NSRDB+017199999V020999999999999999999999999999+99999+99999999999ADDGP10060041402008065202015010502008GQ100600617910499GR100600639913509
0054722590039272000091402009+32900-097017NSRDB+017199999V020999999999999999999999999999+99999+99999999999ADDGP10060000002000000002000000002000GR100600000900009
0071722590039272000091514009+32900-097017NSRDB+017199999V020999999999999999999999999999+99999+99999999999ADDGP10060020802008049402015007502008GQ100600744909699GR100600362913529
0071722590039272000091723009+32900-097017NSRDB+017199999V020999999999999999999999999999+99999+99999999999ADDGP10060034802008067702015006802008GQ100600656925549GR100600558913549
030772259003927200009191053C+32900-097017FM-15+0171DFW  V0201805N00465220005MN0160005N1+01945+01175101095ADDAA101000095GF100991999999999999999999MA1101195999999MW1001REMMET067KDFW 191053Z 18009KT 10SM CLR 19/12 A2988 RMK AO2 SLP109 T01940117;EQDQ01+000000PRSWM2N01 00000JPWTH 0QNNAA1D0 00000BA1 0 00000GA1U0 99999KA1D0 00053JA1 0 00117LA1 0 01000CA1 0 02988NA1 0 00000QA1 0 10109SA1D0 00067RA1 0 00194YA1 0 18009
0071722590039272000092019009+32900-097017NSRDB+017199999V020999999999999999999999999999+99999+99999999999ADDGP10060078602008073802015016102008GQ100600325918409GR100601144913569
034572259003927200009221453C+32900-097017FM-15+0171DFW  V0201705N00465003965MN0160005N1+02505+02285100865ADDAA101000095GD14995+0039659GF108991999999999999999999MA1100955999999MD1110071+9999MW1001REMMET076KDFW 221453Z 17009KT 10SM OVC013 25/23 A2981 RMK AO2 SLP086 T02500228 51007;EQDQ01+000000PRSWM2N01 00000JPWTH 0QNNAA1D0 06013BA1 0 06013GA1 0 00013KA1D0 00073JA1 0 00228LA1 0 01000CA1 0 02981NA1 0 00000QA1 0 10086SA1D0 00077RA1 0 00250YA1 0 17009
036972259003927200009231253C+32900-097017FM-15+0171DFW  V0201905N00775220005MN0160005N1+02725+02395100775ADDAA101000095GD11995+0365859GD22995+0914459GF104991999999999999999999MA1100885999999MW1001REMMET077KDFW 231253Z 19015KT 10SM FEW120 SCT300 27/24 A2979 RMK AO2 SLP077 T02720239;EQDQ01+000000PRSWM2N01 00000JPWTH 0QNNAA1D0 02120BA1 0 01120AA1D0 02300BA1 0 02300GA1U0 99999KA1D0 00075JA1 0 00239LA1 0 01000CA1 0 02979NA1 0 00000QA1 0 10077SA1D0 00081RA1 0 00272YA1 0 19015
034972259003927200009241353C+32900-097017FM-15+0171DFW  V0203405N00625002135MN0160005N1+01835+01725101185ADDAA101000025GD14995+0021359GF108991999999999999999999MA1101255999999MW1001REMMET094KDFW 241353Z 34012KT 10SM OVC007 18/17 A2990 RMK AO2 RAE04 CIG 005V010 SLP118 P0000 T01830172;EQDQ01+000000PRSWM2N01 00000JPWTH 0QNNAA1D0 06007BA1 0 06007GA1 0 00007KA1D0 00063JA1 0 00172LA1 0 01000CA1 0 02990NA1 0 00000QA1 0 10118SA1D0 00065RA1 0 00183YA1 0 34012
0476722590039272000092512003+32900-097017SY-MT+0171DFW  V0203305N01085220005MN0160005N1+00945+00285102335ADDAA101000095AA224000591GD11995+0091459GD22995+0914459GF104991999999008001999999GP10060000002000000002000000002000GR100600000900009KA1999M+02331KA2120N+00941MA1102375100281MD1310151+9999REMSYN104AAXX  25124 72259 32566 43321 10094 20028 30028 40233 53015 91153 333 10233 20094 70005 91027 555 92512;EQDN01 00000JPWTH 0QNNAA1D0 02030BA1 0 01030AA1D0 02300BA1 0 02300GA1U0 99999KA1D0 00037JA1 0 00028LA1 0 01000CA1 0 03023NA1 0 00000QA1 0 10233SA1D0 00049RA1 0 00094YA1 0 33021
030772259003927200009260353C+32900-097017FM-15+0171DFW  V0200105N00215220005MN0160005N1+01335+00675102365ADDAA101000095GF100991999999999999999999MA1102375999999MW1001REMMET067KDFW 260353Z 01004KT 10SM CLR 13/07 A3023 RMK AO2 SLP236 T01330067;EQDQ01+000000PRSWM2N01 00000JPWTH 0QNNAA1D0 00000BA1 0 00000GA1U0 99999KA1D0 00044JA1 0 00067LA1 0 01000CA1 0 03023NA1 0 00000QA1 0 10236SA1D0 00056RA1 0 00133YA1 0 01004
0054722590039272000092707009+32900-097017NSRDB+017199999V020999999999999999999999999999+99999+99999999999ADDGP10060000002000000002000000002000GR100600000900009
032972259003927200010011453C+32900-097017FM-15+0171DFW  V0201905N00625220005MN0160005N1+02335+01065101405ADDAA101000095GF100991999999999999999999MA1101495999999MD1310101+9999MW1001REMMET075KDFW 011453Z 19012KT 10SM CLR 23/11 A2997 RMK AO2 SLP140 T02330106 53010 $;EQDQ01+000000PRSWM2N01 00000JPWTH 0QNNAA1D0 00000BA1 0 00000GA1U0 99999KA1D0 00051JA1 0 00106LA1 0 01000CA1 0 02997NA1 0 00000QA1 0 10140SA1D0 00074RA1 0 00233YA1 0 19012
030772259003927200010030153C+32900-097017FM-15+0171DFW  V0201605N00625220005MN0160005N1+02835+01445100845ADDAA101000095GF100991999999999999999999MA1100915999999MW1001REMMET067KDFW 030153Z 16012KT 10SM CLR 28/14 A2980 RMK AO2 SLP084 T02830144;EQDQ01+000000PRSWM2N01 00000JPWTH 0QNNAA1D0 00000BA1 0 00000GA1U0 99999KA1D0 00058JA1 0 00144LA1 0 01000CA1 0 02980NA1 0 00000QA1 0 10084SA1D0 00083RA1 0 00283YA1 0 16012
