0071703160256242000022121009+55200-162717NSRDB+002999999V020999999999999999999999999999+99999+99999999999ADDGP10060010201024004301027009001024GQ100600733914029GR100600402913989
0071703160256242000022201009+55200-162717NSRDB+002999999V020999999999999999999999999999+99999+99999999999ADDGP10060010101024000001027010101024GQ100600682920279GR100600520913989
0201703160256242000022405094+55200-162730FM-16+0031PACD V0201401N007210063019N0144841N1+00101+00101999999ADDGD12991+0033019GD23991+0063019GF107991999999999999999999MA1097461999999MW1611MW2711REMMET071PACD 240509Z 14014KT 9SM -RASN SCT011 BKN021 01/01 A2878 RMK AO2 P0000;EQDQ01+000003PRSWM1Q02    003PRSWM1
0227703160256242000022418254+55200-162730FM-15+0031PACD V0201101N010310048019N0048281N1+00101+00001999999ADDAA101000021GD12991+0033019GD23991+0048019GD34991+0066019GF108991999999999999999999MA1097091999999MW1101MW2611MW3711REMMET081PACD 241825Z 11020KT 3SM -RASN BR SCT011 BKN016 OVC022 01/00 A2867 RMK AO2 P0000;EQDQ01+000003PRSWM1
0467703160256242000022514003+55200-162717FM-15+0029CDB  V0202505N01295004275MN0032005N1-00065-00065098415ADDAA101000025GD12995+0021359GD24995+0042759GF108991999999999999999999GP10060000001000000001000000001000GR100600000900009MA1098415999999MW1101MW2455MW3715REMMET096PACD 251359Z 25027KT 1 3/4SM -SN BR BKN007 OVC014 M01/M01 A2907 RMK AO2 PK WND 24031/1356 P0000;EQDQ01+000003PRSWM1Q02    003PRSWM1N01 04070JPWTH 0QNNAA1D0 02007BA1 0 02007AA1D0 06014BA1 0 06014GA1 0 00014KA1D0 00031JA1 0-00006LA1 0 00200CA1 0 02906NA1 0 04070QA1 0 09841SA1D0 00031RA1 0-00006YA1 0 25025
0232703160256242000022518114+55200-162730FM-16+0031PACD V0202701N011310072019N0064371N1-00101-00301999999ADDGD13991+0072019GD24991+0096019GF108991999999999999999999MA1099021999999MW1711REMMET092PACD 251811Z 27022KT 4SM -SN BR BKN024 OVC032 M01/M03 A2924 RMK AO2 PK WND 27028/1804 P0000;EQDQ01+000100PRSWM3Q02+000003PRSWM1Q03    003PRSWM1
0234703160256242000022623264+55200-162730FM-16+0031PACD V0201201N017010039019N0040231N1+00101+00001999999ADDGD14991+0039019GF108991999999999999999999MA1098511999999MW1611MW2711OC102061REMMET111PACD 262326Z 12033G40KT 2 1/2SM -RASN BR OVC013 01/00 A2909 RMK AO2 PK WND 12042/2258 VIS 1 1/2V4 PRESFR P0001;EQDQ01+000100PRSWM4Q02+000003PRSWM1
0470703160256242000022722003+55200-162717FM-15+0029CDB  V0201205N00675007325MN0112005N1+00115+00065096895ADDAA101001395GD11995+0018359GD23995+0073259GD33995+0243859GF107991999999999999999999GP10060019401024006001027017001024GQ100600665915479GR100600555913949MA1096885999999MW1001REMMET073PACD 272200Z 11013KT 10SM FEW004 SCT023 BKN032 01/01 A2861 RMK AO2 P0001;EQDQ01+000000PRSWM2N01 00000JPWTH 0QNNAA1D0 02006BA1 0 01006AA1D0 04024BA1 0 04024AA1D0 04080BA1 0 04080GA1 0 00024KA1D0 00033JA1 0 00006LA1 0 00700CA1 0 02861NA1 0 00000QA1 0 09689SA1D0 00034RA1 0 00011YA1 0 12013
0530703160256242000030306003+55200-162717SY-MT+0029CDB  V0201805N00525033535MN0160005N1+00115+00005096815ADDAA101000025AA206001091AJ100159199999999GD11995+0018359GD22995+0061059GD33995+0335359GF108991999999001501999999GP10060000001000000001000000001000GR100600000900009KA1240M+00221KA2240N+00061MA1096825096451MD1310041+9999REMSYN104AAXX  03064 70316 12266 81810 10011 20000 39645 49681 53004 60011 90553 333 10022 20006 4/015 555 90306;EQDN01 00000JPWTH 0QNNAA1D0 02006BA1 0 01006AA1D0 02020BA1 0 02020AA1D0 04110BA1 0 04110GA1 0 00110KA1D0 00032JA1 0 00000LA1 0 01000CA1 0 02859NA1 0 00000QA1 0 09681SA1D0 00034RA1 0 00011YA1 0 18010
0312703160256242000030317534+55200-162730FM-15+0031PACD V0201301N005110300019N0160931N1+00101+00001097241ADDAA101000021AA206000021GD12991+0135019GD23991+0300019GF107991999999999999999999KA1999M+00281KA2999N+00001MA1097221999999MD1310131+9999MW1001REMMET142PACD 031753Z 13010KT 10SM SCT045 BKN100 01/00 A2871 RMK AO2 PK WND 15026/1722 RAB44E50SNB44E50 SLP724 P0000 60000 T00110000 10028 20000 53013;EQDQ01+000000PRSWM2
0359703160256242000030511534+55200-162730FM-15+0031PACD V0201401N010810240019N0160931N1+00101-00101098511ADDAA101000021AA206022691AA324037691GD12991+0069019GD22991+0108019GD34991+0240019GF108991999999999999999999KA1999M+00331KA2999N+00061MA1098511999999MD1010031+9999MW1001OC101441REMMET155PACD 051153Z 14021G28KT 10SM FEW023 SCT036 OVC085 01/M01 A2909 RMK AO2 PK WND 13034/1122 SLP851 RAE00SNE00 P0000 60089 70148 T00111006 10033 20006 50003 $;EQDQ01+000000PRSWM2
039270316025624200003061453C+55200-162717FM-15+0029CDB  V0202405N00825220005MN0160005N1+00065-00115099505ADDAA101000095GD11995+0039659GD22995+0213459GF104991999999999999999999MA1099495999999MD1310371+9999MW1001REMMET086PACD 061453Z 24016KT 10SM FEW013 SCT070 01/M01 A2938 RMK AO2 SLP950 T00061011 53037 $;EQDQ01+000000PRSWM2N01 00000JPWTH 0QNNAA1D0 02013BA1 0 01013AA1D0 02070BA1 0 02070GA1U0 99999KA1D0 00030JA1 0-00011LA1 0 01000CA1 0 02938NA1 0 00000QA1 0 09950SA1D0 00033RA1 0 00006YA1 0 24016
0054703160256242000030913009+55200-162717NSRDB+002999999V020999999999999999999999999999+99999+99999999999ADDGP10060000001000000001000000001000GR100600000900009
0346703160256242000031417534+55200-162730FM-15+0031PACD V0201201N009810108019N0048281N1+00101-00101097861ADDAA101000021AA206004191GD13991+0108019GD23991+0141019GD34991+0150019GF108991999999999999999999KA1999M+00221KA2999N+00061MA1097871999999MD1110061+9999MW1101MW2711REMMET139PACD 141753Z 12019KT 3SM -SN BR BKN036 BKN047 OVC055 01/M01 A2890 RMK AO2 PK WND 11026/1730 SLP786 P0000 60016 T00111011 10022 20006 51006;EQDQ01+000003PRSWM1Q02    003PRSWM1
0071703160256242000031421009+55200-162717NSRDB+002999999V020999999999999999999999999999+99999+99999999999ADDGP10060011901024000001027011901024GQ100600651913809GR100600582913839
0054703160256242000031614009+55200-162717NSRDB+002999999V020999999999999999999999999999+99999+99999999999ADDGP10060000001000000001000000001000GR100600000900009
041470316025624200003171653C+55200-162717FM-15+0029CDB  V0201405N00625030485MN0160005N1+00065-00225099135ADDAA101000095GD11995+0061059GD23995+0304859GD34995+0609659GF108991999999999999999999MA1099125999999MW1001REMMET085PACD 171653Z 14012KT 10SM FEW020 BKN100 OVC200 01/M02 A2927 RMK AO2 SLP913 T00061022;EQDQ01+000000PRSWM2N01 00000JPWTH 0QNNAA1D0 02020BA1 0 01020AA1D0 04100BA1 0 04100AA1D0 06200BA1 0 06200GA1 0 00100KA1D0 00028JA1 0-00022LA1 0 01000CA1 0 02927NA1 0 00000QA1 0 09913SA1D0 00033RA1 0 00006YA1 0 14012
0054703160256242000031717009+55200-162717NSRDB+002999999V020999999999999999999999999999+99999+99999999999ADDGP10060000001000000001000000001000GR100600000900009
048870316025624200003171753C+55200-162717FM-15+0029CDB  V0201205N00365024385MN0160005N1+00175-00175099155ADDAA101000095GD12995+0091459GD23995+0243859GD34995+0304859GF108991999999999999999999KA1999M+00171KA2999N-00221MA1099155999999MD1410001+9999MW1001REMMET103PACD 171753Z 12007KT 10SM SCT030 BKN080 OVC100 02/M02 A2928 RMK AO2 SLP915 T00171017 10017 21022 53000;EQDQ01+000032APCTENQ02+000000PRSWM2N01 00000JPWTH 0QNNAA1D0 02030BA1 0 02030AA1D0 04080BA1 0 04080AA1D0 06100BA1 0 06100GA1 0 00080KA1D0 00029JA1 0-00017LA1 0 01000CA1 0 02928NA1 0 00000QA1 0 09915SA1D0 00035RA1 0 00017YA1 0 12007
039070316025624200003180253C+55200-162717FM-15+0029CDB  V0203305N00365030485MN0160005N1+00395-00065099485ADDAA101000095GD11995+0091459GD24995+0304859GF108991999999999999999999MA1099465999999MD1310121+9999MW1001REMMET084PACD 180253Z 33007KT 10SM FEW030 OVC100 04/M01 A2937 RMK AO2 SLP948 T00391006 53012;EQDQ01+000000PRSWM2N01 00000JPWTH 0QNNAA1D0 02030BA1 0 01030AA1D0 06100BA1 0 06100GA1 0 00100KA1D0 00031JA1 0-00006LA1 0 01000CA1 0 02937NA1 0 00000QA1 0 09948SA1D0 00039RA1 0 00039YA1 0 33007
0054703160256242000032010009+55200-162717NSRDB+002999999V020999999999999999999999999999+99999+99999999999ADDGP10060000001000000001000000001000GR100600000900009
0054703160256242000032210009+55200-162717NSRDB+002999999V020999999999999999999999999999+99999+99999999999ADDGP10060000001000000001000000001000GR100600000900009
0071703160256242000032222009+55200-162717NSRDB+002999999V020999999999999999999999999999+99999+99999999999ADDGP10060015501024000001027015501024GQ100600571915379GR100600747913769
0246703160256242000032411394+55200-162730FM-16+0031PACD V0203101N007710069019N0144841N1-00101-00301999999ADDGD12991+0042019GD23991+0069019GD34991+0102019GF108991999999999999999999MA1100581999999MW1711OC101231REMMET099PACD 241139Z 31015G24KT 9SM -SN FEW014 BKN023 OVC034 M01/M03 A2970 RMK AO2 PK WND 30029/1122 P0000;EQDQ01+000003PRSWM1Q02    003PRSWM1
035270316025624200003241253C+55200-162717FM-15+0029CDB  V0203105N00985007325MN0144005N1-00175-00565100675ADDAA101000025GD14995+0073259GF108991999999999999999999MA1100685999999MW1715REMMET081PACD 241253Z 31019KT 9SM -SN OVC024 M02/M06 A2973 RMK AO2 SLP067 P0000 T10171056;EQDQ01+000003PRSWM1Q02    003PRSWM1N01 00040JPWTH 0QNNAA1D0 06024BA1 0 06024GA1 0 00024KA1D0 00022JA1 0-00056LA1 0 00900CA1 0 02973NA1 0 00040QA1 0 10067SA1D0 00029RA1 0-00017YA1 0 31019
0054703160256242000032609009+55200-162717NSRDB+002999999V020999999999999999999999999999+99999+99999999999ADDGP10060000001000000001000000001000GR100600000900009
0246703160256242000033105204+55200-162730FM-15+0031PACD V0202601N004110033019N0008051N1-00501-00601999999ADDAA101000021GD12991+0012019GD23991+0033019GD34991+0150019GF108991999999999999999999MA1101731999999MW1481MW2731REMMET090PACD 310520Z 26008KT 1/2SM SN FZFG SCT004 BKN011 OVC055 M05/M06 A3004 RMK AO2 SNB03 P0000;EQDQ01+000003PRSWM1Q02    003PRSWM1
0054703160256242000033107009+55200-162717NSRDB+002999999V020999999999999999999999999999+99999+99999999999ADDGP10060000001000000001000000001000GR100600000900009
0054703160256242000040411009+55200-162717NSRDB+002999999V020999999999999999999999999999+99999+99999999999ADDGP10060000001000000001000000001000GR100600000900009
0071703160256242000040603009+55200-162717NSRDB+002999999V020999999999999999999999999999+99999+99999999999ADDGP10060011501024000001027011501024GQ100600648924289GR100600580913659
038570316025624200004062253C+55200-162717FM-15+0029CDB  V0203105N00625004885MN0160005N1+00115-00175101225ADDAA101000025GD13995+0048859GD23995+0067159GF107991999999999999999999MA1101225999999MW1001REMMET093PACD 062253Z 31012KT 10SM BKN016 BKN022 01/M02 A2989 RMK AO2 SNB09E18 SLP122 P0000 T00111017;EQDQ01+000000PRSWM2N01 00000JPWTH 0QNNAA1D0 04016BA1 0 04016AA1D0 04022BA1 0 04022GA1 0 00016KA1D0 00029JA1 0-00017LA1 0 01000CA1 0 02989NA1 0 00000QA1 0 10122SA1D0 00034RA1 0 00011YA1 0 31012
0054703160256242000041210009+55200-162717NSRDB+002999999V020999999999999999999999999999+99999+99999999999ADDGP10060000001000000001000000001000GR100600000900009
0252703160256242000041406184+55200-162730FM-16+0031PACD V0201501N010810039019N0160931N1+00201+00101999999ADDGD12991+0027019GD23991+0039019GD34991+0057019GF108991999999999999999999MA1100811999999MW1611OC101491REMMET105PACD 140618Z 15021G29KT 10SM -RA FEW009 BKN013 OVC019 02/01 A2977 RMK AO2 PK WND 15029/0603 PRESRR P0000;EQDQ01+000003PRSWM1Q02    003PRSWM1
037070316025624200004152253C+55200-162717FM-15+0029CDB  V0201105N01035045725MN0160005N1+00285-00065101605ADDAA101000095GD11995+0061059GD24995+0457259GF108991999999999999999999MA1101595999999MW1001REMMET078PACD 152253Z 11020KT 10SM FEW020 OVC150 03/M01 A3000 RMK AO2 SLP160 T00281006;EQDQ01+000000PRSWM2N01 00000JPWTH 0QNNAA1D0 02020BA1 0 01020AA1D0 06150BA1 0 06150GA1 0 00150KA1D0 00031JA1 0-00006LA1 0 01000CA1 0 03000NA1 0 00000QA1 0 10160SA1D0 00037RA1 0 00028YA1 0 11020
0071703160256242000041817009+55200-162717NSRDB+002999999V020999999999999999999999999999+99999+99999999999ADDGP10060002501024000001027002501024GQ100600836907959GR100600151913559
0205703160256242000041911254+55200-162730FM-15+0031PACD V0209999C000010039019N0112651N1+00101-00101999999ADDAA101000021GD13991+0039019GD24991+0099019GF108991999999999999999999MA1098651999999MW1711REMMET070PACD 191125Z 00000KT 7SM -SN BKN013 OVC033 01/M01 A2913 RMK AO2 P0000;EQDQ01+000003PRSWM1Q02    003PRSWM1
0247703160256242000041917324+55200-162730FM-16+0031PACD V0209999C000010066019N0024141N1+00001-00101999999ADDGD12991+0051019GD23991+0066019GD34991+0093019GF108991999999999999999999MA1098371999999MW1711REMMET092PACD 191732Z 00000KT 1 1/2SM -SN BR SCT017 BKN022 OVC031 00/M01 A2905 RMK AO2 SNB1658 P0000;EQDQ01+000100PRSWM3Q02+000003PRSWM1Q03    003PRSWM1
0234703160256242000042123414+55200-162730FM-16+0031PACD V0202701N010810018019N0020111N1+00101+00101999999ADDGD13991+0018019GD24991+0039019GF108991999999999999999999MA1099591999999MW1711REMMET094PACD 212341Z 27021KT 1 1/4SM -SN BR BKN006 OVC013 01/01 A2941 RMK AO2 PK WND 27027/2308 P0000;EQDQ01+000100PRSWM3Q02+000003PRSWM1Q03    003PRSWM1
038370316025624200004230853C+55200-162717FM-15+0029CDB  V0203005N00935009145MN0160005N1-00285-00725101285ADDAA101000095GD14995+0091459GF108991999999999999999999KA1999M-00061KA2999N-00281MA1101295999999MD1110091+9999MW1001REMMET088PACD 230853Z 30018KT 10SM OVC030 M03/M07 A2991 RMK AO2 SLP128 T10281072 410061028 51009;EQDQ01+000000PRSWM2N01 00000JPWTH 0QNNAA1D0 06030BA1 0 06030GA1 0 00030KA1D0 00019JA1 0-00072LA1 0 01000CA1 0 02991NA1 0 00000QA1 0 10128SA1D0 00027RA1 0-00028YA1 0 30018
0173703160256242000042312044+55200-162730FM-16+0031PACD V0203101N006210084019N0144841N1-00301-00801999999ADDGD14991+0084019GF108991999999999999999999MA1101291999999MW1711REMMET064PACD 231204Z 31012KT 9SM -SN OVC028 M03/M08 A2991 RMK AO2 P0000;EQDQ01+000003PRSWM1Q02    003PRSWM1
0148703160256242000042313134+55200-162730FM-16+0031PACD V0203301N006710084019N0160931N1-00301-00701999999ADDGD14991+0084019GF108991999999999999999999MA1101321999999MW1001REMMET055PACD 231313Z 33013KT 10SM OVC028 M03/M07 A2992 RMK AO2;EQDQ01+000000PRSWM2
0244703160256242000042705534+55200-162730FM-15+0031PACD V0201401N010310078019N0160931N1+00101-00301101801ADDGD13991+0078019GD24991+0300019GF108991999999999999999999KA1999M+00331KA2999N+00111MA1101801999999MD1810181+9999MW1001REMMET096PACD 270553Z 14020KT 10SM BKN026 OVC100 01/M03 A3006 RMK AO2 SLP180 T00111028 10033 20011 58018;EQDQ01+000000PRSWM2
0071703160256242000042716009+55200-162717NSRDB+002999999V020999999999999999999999999999+99999+99999999999ADDGP10060000401024000001027000401024GQ100600876906809GR100600038909109
0241703160256242000042721284+55200-162730FM-16+0031PACD V0201301N012910042019N0080461N1+00401+00301999999ADDGD12991+0021019GD24991+0042019GF108991999999999999999999MA1100371999999MW1611OC101651REMMET093PACD 272128Z 13025G32KT 5SM -RA BR FEW007 OVC014 04/03 A2964 RMK AO2 PK WND 14032/2057 P0001;EQDQ01+000100PRSWM3Q02+000003PRSWM1Q03    003PRSWM1
0071703160256242000042904009+55200-162717NSRDB+002999999V020999999999999999999999999999+99999+99999999999ADDGP10060018201024015601027012101024GQ100600670926239GR100600527913479
0465703160256242000042918003+55200-162717SY-MT+0029CDB  V0200705N00265004275MN0160005N1+00065-00175100225ADDAA101000095GD13995+0042759GF106991999999004501999999GP10060021301024030401027011901024GQ100600720909009GR100600417913479KA1120M+00111KA2240N-00331MA1100205099831MD1510011+9999REMSYN092AAXX  29184 70316 32466 60705 10006 21017 39983 40022 55001 91753 333 10011 21033 555 92918;EQDQ01  00002PRCP99Q02  00003PRCP99N01 00000JPWTH 0QNNAA1D0 04014BA1 0 04014GA1 0 00014KA1D0 00029JA1 0-00017LA1 0 01000CA1 0 02959NA1 0 00000QA1 0 10022SA1D0 00033RA1 0 00006YA1 0 07005
0071703160256242000050407009+55200-162717NSRDB+002999999V020999999999999999999999999999+99999+99999999999ADDGP10060000301024000201027000301024GQ100600883929699GR100600020906839
0261703160256242000050423534+55200-162730FM-15+0031PACD V0203201N006710054019N0160931N1+00401-00101101681ADDAA106000021GD13991+0054019GD23991+0075019GF107991999999999999999999KA1999M+00501KA2999N+00171MA1101661999999MD1810071+9999MW1001REMMET102PACD 042353Z 32013KT 10SM BKN018 BKN025 04/M01 A3002 RMK AO2 SLP168 60000 T00391011 10050 20017 58007;EQDQ01+000000PRSWM2
038370316025624200005051053C+55200-162717FM-15+0029CDB  V0203305N00465005185MN0160005N1-00065-00225101675ADDAA101000025GD11995+0030559GD24995+0051859GF108991999999999999999999MA1101665999999MW1001REMMET091PACD 051053Z 33009KT 10SM FEW010 OVC017 M01/M02 A3002 RMK AO2 SNE30 SLP167 P0000 T10061022;EQDQ01+000000PRSWM2N01 00000JPWTH 0QNNAA1D0 02010BA1 0 01010AA1D0 06017BA1 0 06017GA1 0 00017KA1D0 00028JA1 0-00022LA1 0 01000CA1 0 03002NA1 0 00000QA1 0 10167SA1D0 00031RA1 0-00006YA1 0 33009
032970316025624200005061453C+55200-162717FM-15+0029CDB  V0203105N00215220005MN0160005N1-00395-00445101355ADDAA101000095GF100991999999999999999999MA1101355999999MD1810041+9999MW1001REMMET075PACD 061453Z 31004KT 10SM CLR M04/M04 A2993 RMK AO2 SLP135 T10391044 58004;EQDQ01+000000PRSWM2N01 00000JPWTH 0QNNAA1D0 00000BA1 0 00000GA1U0 99999KA1D0 00024JA1 0-00044LA1 0 01000CA1 0 02993NA1 0 00000QA1 0 10135SA1D0 00025RA1 0-00039YA1 0 31004
0222703160256242000050711534+55200-162730FM-15+0031PACD V0203001N004610009019N0160931N1+00001-00101101571ADDGD14991+0009019GF108991999999999999999999KA1999M+00171KA2999N+00001MA1101561999999MD1010021+9999MW1001REMMET089PACD 071153Z 30009KT 10SM OVC003 00/M01 A2999 RMK AO2 SLP157 T00001011 10017 20000 50002;EQDQ01+000000PRSWM2
0468703160256242000050800003+55200-162717SY-MT+0029CDB  V0203405N00525005495MN0112005N1+00285-00285101685ADDAA101000025AA206000791GD14995+0054959GF108991999999004501999999GP10060021801024000001027021801024GQ100600391919639GR100601041913419KA1120M+00331KA2180N+00001MA1101665101281MD1210031+9999MW1715REMSYN110AAXX  08004 70316 11461 83410 10028 21028 30128 40168 52003 69901 771// 92353 333 10033 20000 91016 555 90800;EQDN01 00040JPWTH 0QNNAA1D0 06018BA1 0 06018GA1 0 00018KA1D0 00027JA1 0-00028LA1 0 00700CA1 0 03002NA1 0 00040QA1 0 10168SA1D0 00037RA1 0 00028YA1 0 34010
0217703160256242000050816154+55200-162730FM-16+0031PACD V0203501N004110027019N0020111N1+00001-00101999999ADDGD13991+0027019GD24991+0042019GF108991999999999999999999MA1102071999999MW1711REMMET077PACD 081615Z 35008KT 1 1/4SM -SN BR BKN009 OVC014 00/M01 A3014 RMK AO2 P0000;EQDQ01+000100PRSWM3Q02+000003PRSWM1Q03    003PRSWM1
0054703160256242000051010009+55200-162717NSRDB+002999999V020999999999999999999999999999+99999+99999999999ADDGP10060000001000000001000000001000GR100600000900009
042870316025624200005172153C+55200-162717FM-15+0029CDB  V0200505N00265010675MN0160005N1+00565+00285099875ADDAA101000025GD12995+0073259GD23995+0106759GD34995+0134159GF108991999999999999999999MA1099865999999MW1001REMMET099PACD 172153Z 05005KT 10SM SCT024 BKN035 OVC044 06/03 A2949 RMK AO2 RAB25E41 SLP987 P0000 T00560028;EQDQ01+000000PRSWM2N01 00000JPWTH 0QNNAA1D0 02024BA1 0 02024AA1D0 04035BA1 0 04035AA1D0 06044BA1 0 06044GA1 0 00035KA1D0 00037JA1 0 00028LA1 0 01000CA1 0 02949NA1 0 00000QA1 0 09987SA1D0 00042RA1 0 00056YA1 0 05005
0071703160256242000051903009+55200-162717NSRDB+002999999V020999999999999999999999999999+99999+99999999999ADDGP10060015701024000001027015701024GQ100600545925269GR100600775913359
041870316025624200005191453C+55200-162717FM-15+0029CDB  V0202405N00365002745MN0160005N1+00335+00225100575ADDAA101000095AA203000391GD13995+0027459GD24995+0042759GF108991999999999999999999MA1100585999999MD1310021+9999MW1001REMMET101PACD 191453Z 24007KT 10SM BKN009 OVC014 03/02 A2970 RMK AO2 CIG 007V011 SLP057 60001 T00330022 53002;EQDQ01+000000PRSWM2N01 00000JPWTH 0QNNAA1D0 04009BA1 0 04009AA1D0 06014BA1 0 06014GA1 0 00009KA1D0 00036JA1 0 00022LA1 0 01000CA1 0 02970NA1 0 00000QA1 0 10057SA1D0 00038RA1 0 00033YA1 0 24007
0071703160256242000052001009+55200-162717NSRDB+002999999V020999999999999999999999999999+99999+99999999999ADDGP10060018101024000001027018101024GQ100600402921909GR100601018913349
0226703160256242000052109164+55200-162730FM-16+0031PACD V0203001N002610084019N0160931N1+00201+00101999999ADDGD12991+0057019GD23991+0084019GD34991+0105019GF108991999999999999999999MA1100751999999MW1611REMMET087PACD 210916Z 30005KT 10SM -RA SCT019 BKN028 OVC035 02/01 A2975 RMK AO2 RAB0854 P0001 $;EQDQ01+000003PRSWM1Q02    003PRSWM1
0193703160256242000052123274+55200-162730FM-16+0031PACD V0202701N007210099019N0160931N1+00601-00101999999ADDGD12991+0072019GD23991+0099019GD34991+0123019GF108991999999999999999999MA1100781999999MW1001REMMET070PACD 212327Z 27014KT 10SM SCT024 BKN033 OVC041 06/M01 A2976 RMK AO2 $;EQDQ01+000000PRSWM2
0351703160256242000052311534+55200-162730FM-15+0031PACD V0203101N004610090019N0096561N1+00101-00201101751ADDAA101000021AA206000021AA324000891GD12991+0072019GD23991+0090019GD34991+0138019GF108991999999999999999999KA1999M+00221KA2999N+00001MA1101731999999MD1110171+9999MW1101MW2711REMMET133PACD 231153Z 31009KT 6SM -SN BR SCT024 BKN030 OVC046 01/M02 A3004 RMK AO2 SNB18 SLP175 P0000 60000 70003 T00061017 10022 20000 51017;EQDQ01+000003PRSWM1Q02    003PRSWM1
0290703160256242000052505534+55200-162730FM-15+0031PACD V0201401N004110129019N0160931N1+00501+00001999999ADDGD12991+0075019GD23991+0129019GD33991+0180019GD44991+0600019GF108991999999999999999999KA1999M+00721KA2999N+00001MA1102401999999MD1310011+9999MW1001REMMET112PACD 250553Z COR 14008KT 10SM FEW025 BKN043 BKN060 OVC200 05/00 A3024 RMK AO2 SLPNO T00500000 10072 20000 53001;EQDQ01+000000PRSWM2
0071703160256242000052515009+55200-162717NSRDB+002999999V020999999999999999999999999999+99999+99999999999ADDGP10060000301024000201027000301024GQ100600884905329GR100600020906999
0071703160256242000052701009+55200-162717NSRDB+002999999V020999999999999999999999999999+99999+99999999999ADDGP10060047201024012701027037401024GQ100600390921959GR100601034913319
0216703160256242000053006114+55200-162730FM-16+0031PACD V0201301N009310036019N0040231N1+00701+00601999999ADDGD13991+0036019GD24991+0060019GF108991999999999999999999MA1101521999999MW1611REMMET076PACD 300611Z 13018KT 2 1/2SM -RA BR BKN012 OVC020 07/06 A2998 RMK AO2 P0001;EQDQ01+000100PRSWM3Q02+000003PRSWM1Q03    003PRSWM1
0190703160256242000061215264+55200-162730FM-16+0031PACD V0209999C000010111019N0160931N1+00601+00401999999ADDGD12991+0072019GD23991+0111019GD33991+0141019GF107991999999999999999999MA1098711999999MW1001REMMET067PACD 121526Z 00000KT 10SM SCT024 BKN037 BKN047 06/04 A2915 RMK AO2;EQDQ01+000000PRSWM2
0186703160256242000061216534+55200-162730FM-15+0031PACD V0201501N003610057019N0160931N1+00701+00601098791ADDAA101000021GD14991+0057019GF108991999999999999999999MA1098781999999MW1001REMMET082PACD 121653Z 15007KT 10SM OVC019 07/06 A2917 RMK AO2 RAE26 SLP879 P0000 T00670056;EQDQ01+000000PRSWM2
043370316025624200006121853C+55200-162717FM-15+0029CDB  V0201305N00625003355MN0160005N1+00725+00675098885ADDAA101000025GD12995+0021359GD23995+0033559GD34995+0064059GF108991999999999999999999MA1098885999999MW1001REMMET104PACD 121853Z 13012KT 10SM SCT007 BKN011 OVC021 07/07 A2920 RMK AO2 RAE1758B29E49 SLP888 P0000 T00720067;EQDQ01+000000PRSWM2N01 00000JPWTH 0QNNAA1D0 02007BA1 0 02007AA1D0 04011BA1 0 04011AA1D0 06021BA1 0 06021GA1 0 00011KA1D0 00044JA1 0 00067LA1 0 01000CA1 0 02920NA1 0 00000QA1 0 09888SA1D0 00045RA1 0 00072YA1 0 13012
0238703160256242000061302454+55200-162730FM-15+0031PACD V0201101N007210069019N0160931N1+00701+00401999999ADDAA101000021GD12991+0051019GD23991+0069019GD33991+0210019GF107991999999999999999999MA1099261999999MW1611REMMET088PACD 130245Z 11014KT 10SM -RA SCT017 BKN023 BKN070 07/04 A2931 RMK AO2 RAE0157B29 P0000;EQDQ01+000003PRSWM1Q02    003PRSWM1
0054703160256242000061313009+55200-162717NSRDB+002999999V020999999999999999999999999999+99999+99999999999ADDGP10060000001000000001000000001000GR100600000900009
045370316025624200006131553C+55200-162717FM-15+0029CDB  V0203205N00215028965MN0096005N1+00615+00505099445ADDAA101000025GD11995+0057959GD22995+0228659GD34995+0289659GF108991999999999999999999MA1099465999999MW1101MW2455MW3615REMMET096PACD 131553Z 32004KT 6SM -RA BR FEW019 SCT075 OVC095 06/05 A2937 RMK AO2 SLP944 P0000 T00610050;EQDQ01+000003PRSWM1Q02    003PRSWM1N01 02070JPWTH 0QNNAA1D0 02019BA1 0 01019AA1D0 02075BA1 0 02075AA1D0 06095BA1 0 06095GA1 0 00095KA1D0 00041JA1 0 00050LA1 0 00600CA1 0 02937NA1 0 02070QA1 0 09944SA1D0 00043RA1 0 00061YA1 0 32004
042870316025624200006160653C+55200-162717FM-15+0029CDB  V0201205N00625014025MN0160005N1+00675+00615101805ADDAA101000025GD11995+0015259GD22995+0085359GD33995+0140259GF107991999999999999999999MA1101795999999MW1001REMMET099PACD 160653Z 12012KT 10SM FEW005 SCT028 BKN046 07/06 A3006 RMK AO2 RAB03E50 SLP180 P0000 T00670061;EQDQ01+000000PRSWM2N01 00000JPWTH 0QNNAA1D0 02005BA1 0 01005AA1D0 02028BA1 0 02028AA1D0 04046BA1 0 04046GA1 0 00046KA1D0 00043JA1 0 00061LA1 0 01000CA1 0 03006NA1 0 00000QA1 0 10180SA1D0 00044RA1 0 00067YA1 0 12012
0206703160256242000061618534+55190-162720FM-15+0031PACD V0201301N006710045019N0112651N1+00801+00701101681ADDGD12991+0024019GD23991+0045019GD34991+0072019GF108991999999999999999999MA1101691999999MW1001REMMET083PACD 161853Z 13013KT 7SM SCT008 BKN015 OVC024 08/07 A3003 RMK AO2 SLP168 T00780067;EQDQ01+000000PRSWM2
0071703160256242000061717009+55200-162717NSRDB+002999999V020999999999999999999999999999+99999+99999999999ADDGP10060005801024000001027005801024GQ100600739907199GR100600367913239
035470316025624200006200753C+55200-162717FM-15+0029CDB  V0202705N01345005185MN0160005N1+00505+00285101285ADDAA101000095GD14995+0051859GF108991999999999999999999MA1101295999999MW1001OC101491REMMET091PACD 200753Z 27026G29KT 10SM OVC017 05/03 A2991 RMK AO2 PK WND 28029/0753 SLP128 T00500028;EQDQ01+000000PRSWM2N01 00000JPWTH 0QNNAA1D0 06017BA1 0 06017GA1 0 00017KA1D0 00037JA1 0 00028LA1 0 01000CA1 0 02991NA1 0 00000QA1 0 10128SA1D0 00041RA1 0 00050YA1 0 27026
0638703160256242000062118003+55200-162717SY-MT+0029CDB  V0202605N00525001225MN0040005N1+00565+00505101215ADDAA101000395AA206000391GD13995+0012259GD24995+0033559GD34991+0045019GF108991999999001501999999GP10060006601024000001027006601024GQ100600657908349GR100600544913229KA1120M+00721KA2240N+00561MA1101225100841MD1310021+9999MW1455MW2535REMSYN110AAXX  21184 70316 11240 82610 10056 20050 30084 40121 53002 69931 753// 91753 333 10072 20056 96010 555 92118;MET090PACD 211800Z 26012KT 2SM DZ BR SCT006 BKN010 OVC015 06/05 A2989 RMK AO2 CIG 008V012 P0000;EQDQ01    003PRSWM1N01 03470JPWTH 0QNNAA1D0 04004BA1 0 04004AA1D0 06011BA1 0 06011GA1 0 00004KA1D0 00041JA1 0 00050LA1 0 00250CA1 0 02989NA1 0 03470QA1 0 10121SA1D0 00042RA1 0 00056YA1 0 26010
0283703160256242000062208534+55190-162720FM-15+0031PACD V0209999C000010033019N0160931N1+00701+00601101361ADDAA101000021AA203000021GD13991+0033019GD24991+0048019GF108991999999999999999999KA1999M+00891KA2999N+00561MA1101351999999MD1310071+9999MW1001REMMET113PACD 220853Z 00000KT 10SM BKN011 OVC016 07/06 A2993 RMK AO2 DZE0758 SLP136 P0000 60000 T00670056 400890056 53007;EQDQ01+000000PRSWM2
0442703160256242000062322003+55200-162717FM-15+0029CDB  V0203405N00675006105MN0160005N1+01175+00785101735ADDAA101000095GD12995+0024459GD23995+0061059GD33991+0690019GF107991999999999999999999GP10060065401024018401027050501024GQ100600354914599GR100601077913229MA1101735999999MW1001REMMET067PACD 232200Z 34014KT 10SM FEW008 SCT025 BKN230 12/08 A3004 RMK AO2;EQDQ01+000000PRSWM2N01 00000JPWTH 0QNNAA1D0 02008BA1 0 02008AA1D0 04020BA1 0 04020GA1 0 00020KA1D0 00046JA1 0 00078LA1 0 01000CA1 0 03004NA1 0 00000QA1 0 10173SA1D0 00053RA1 0 00117YA1 0 34013
0071703160256242000062401009+55200-162717NSRDB+002999999V020999999999999999999999999999+99999+99999999999ADDGP10060040701024005701027036101024GQ100600366921909GR100601061913229
0340703160256242000062501003+55200-162717FM-15+0029CDB  V0203305N00935019815MN016000599+01175+00675101565ADDAA101000095GD11995+0091459GD23995+0198159GD33995+0304859GP10060071001024061301027021801024GQ100600366921899GR100601061913229MA1101565999999EQDN01 00000JPWTH 0QNNAA1D0 02030BA1 0 01030AA1D0 04065BA1 0 04065AA1D0 04100BA1 0 04100GA1 0 00065KA1D0 00044JA1 0 00067LA1 0 01000CA1 0 02999NA1 0 00000QA1 0 10156SA1D0 00053RA1 0 00117YA1 0 33018
042370316025624200006272053C+55200-162717FM-15+0029CDB  V0201405N00575005185MN0160005N1+01225+00835102155ADDAA101000025AA203000021GD13995+0051859GD24995+0143359GF108991999999999999999999MA1102135999999MD1310021+9999MW1001REMMET106PACD 272053Z 14011KT 10SM BKN017 OVC047 12/08 A3016 RMK AO2 RAB1956E05 SLP215 P0000 60000 T01220083 53002;EQDQ01+000000PRSWM2N01 00000JPWTH 0QNNAA1D0 04017BA1 0 04017AA1D0 06047BA1 0 06047GA1 0 00017KA1D0 00047JA1 0 00083LA1 0 01000CA1 0 03016NA1 0 00000QA1 0 10215SA1D0 00054RA1 0 00122YA1 0 14011
036970316025624200006272253C+55200-162717FM-15+0029CDB  V0201305N00575010065MN0160005N1+01225+00785102135ADDAA101000095GD11995+0061059GD24995+0100659GF108991999999999999999999MA1102135999999MW1001REMMET077PACD 272253Z 13011KT 10SM FEW020 OVC033 12/08 A3016 RMK AO2 SLP213 T01220078;EQDQ01+000000PRSWM2N01 00000JPWTH 0QNNAA1D0 02020BA1 0 01020AA1D0 06033BA1 0 06033GA1 0 00033KA1D0 00046JA1 0 00078LA1 0 01000CA1 0 03016NA1 0 00000QA1 0 10213SA1D0 00054RA1 0 00122YA1 0 13011
038470316025624200006280053C+55200-162717FM-15+0029CDB  V0201405N00725010065MN0160005N1+01225+00785102065ADDAA101000025GD11995+0088459GD24995+0100659GF108991999999999999999999MA1102075999999MW1001REMMET092PACD 280053Z 14014KT 10SM FEW029 OVC033 12/08 A3014 RMK AO2 RAB18E53 SLP206 P0000 T01220078;EQDQ01+000000PRSWM2N01 00000JPWTH 0QNNAA1D0 02029BA1 0 01029AA1D0 06033BA1 0 06033GA1 0 00033KA1D0 00046JA1 0 00078LA1 0 01000CA1 0 03014NA1 0 00000QA1 0 10206SA1D0 00054RA1 0 00122YA1 0 14014
0071703160256242000062822009+55200-162717NSRDB+002999999V020999999999999999999999999999+99999+99999999999ADDGP10060058601024041701027024701024GQ100600357914569GR100601073913229
036970316025624200006290353C+55200-162717FM-15+0029CDB  V0203005N00525076205MN0160005N1+01505+00615102215ADDAA101000095GD11995+0365859GD24995+0762059GF108991999999999999999999MA1102205999999MW1001REMMET077PACD 290353Z 30010KT 10SM FEW120 OVC250 15/06 A3018 RMK AO2 SLP221 T01500061;EQDQ01+000000PRSWM2N01 00000JPWTH 0QNNAA1D0 02120BA1 0 01120AA1D0 06250BA1 0 06250GA1 0 00250KA1D0 00043JA1 0 00061LA1 0 01000CA1 0 03018NA1 0 00000QA1 0 10221SA1D0 00059RA1 0 00150YA1 0 30010
043370316025624200006291453C+55200-162717FM-15+0029CDB  V0202505N00415060965MN0160005N1+00895+00565102115ADDAA101000095GD11995+0167659GD22995+0243859GD34995+0609659GF108991999999999999999999MA1102105999999MD1610071+9999MW1001REMMET090PACD 291453Z 25008KT 10SM FEW055 SCT080 OVC200 09/06 A3015 RMK AO2 SLP211 T00890056 56007;EQDQ01+000000PRSWM2N01 00000JPWTH 0QNNAA1D0 02055BA1 0 01055AA1D0 02080BA1 0 02080AA1D0 06200BA1 0 06200GA1 0 00200KA1D0 00042JA1 0 00056LA1 0 01000CA1 0 03015NA1 0 00000QA1 0 10211SA1D0 00048RA1 0 00089YA1 0 25008
0054703160256242000063009009+55200-162717NSRDB+002999999V020999999999999999999999999999+99999+99999999999ADDGP10060000001000000001000000001000GR100600000900009
041370316025624200007031953C+55200-162717FM-15+0029CDB  V0201405N00825015245MN0160005N1+01175+00835101855ADDAA101000095GD11995+0030559GD22995+0048859GD33995+0152459GF107991999999999999999999MA1101865999999MW1001REMMET084PACD 031953Z 14016KT 10SM FEW010 SCT016 BKN050 12/08 A3008 RMK AO2 SLP185 T01170083;EQDQ01+000000PRSWM2N01 00000JPWTH 0QNNAA1D0 02010BA1 0 01010AA1D0 02016BA1 0 02016AA1D0 04050BA1 0 04050GA1 0 00050KA1D0 00047JA1 0 00083LA1 0 01000CA1 0 03008NA1 0 00000QA1 0 10185SA1D0 00053RA1 0 00117YA1 0 14016
0539703160256242000070406003+55200-162717SY-MT+0029CDB  V0201505N00885076205MN0160005N1+00835+00615101785ADDAA101000095GD11995+0045759GD22995+0182959GD34995+0762059GF108991999999004501999999GP10060006101024000001027006101024GQ100600761929029GR100600318913219KA1240M+01391KA2240N+00781MA1101795101421MD1610111+9999REMSYN092AAXX  04064 70316 32466 81517 10083 20061 30142 40178 56011 90553 333 10139 20078 555 90406;EQDQ01  00002PRCP99Q02  00003PRCP99N01 00000JPWTH 0QNNAA1D0 02015BA1 0 01015AA1D0 02060BA1 0 02060AA1D0 06250BA1 0 06250GA1 0 00250KA1D0 00043JA1 0 00061LA1 0 01000CA1 0 03006NA1 0 00000QA1 0 10178SA1D0 00047RA1 0 00083YA1 0 15017
0194703160256242000070509414+55190-162720FM-16+0031PACD V0201301N00931000901CN0144841N1+00901+00901999999ADDGD14991+0015019GF108991999999999999999999MA1100911999999MW1611OC101291REMMET077PACD 050941Z 13018G25KT 9SM -RA OVC005 09/09 A2980 RMK AO2 CIG 003V009 P0000;EQDQ01+000003PRSWM1Q02    003PRSWM1
0216703160256242000070613364+55190-162720FM-16+0031PACD V0201401N007710048019N0160931N1+00801+00701999999ADDGD12991+0030019GD23991+0048019GD34991+0087019GF108991999999999999999999MA1101421999999MW1611REMMET077PACD 061336Z 14015KT 10SM -RA SCT010 BKN016 OVC029 08/07 A2995 RMK AO2 P0000;EQDQ01+000003PRSWM1Q02    003PRSWM1
0314703160256242000070705023+55190-162720FM-16+0031PACD V0201401N00821001201CN0048281N1+00801+00701999999ADDGD13991+0021019GD23991+0039019GD34991+0060019GF108991999999999999999999GP10060006501024000001027006501024GQ100600680927839GR100600495913219MA1101321999999MW1611REMMET091PACD 070502Z 14016KT 3SM -RA BR BKN007 BKN013 OVC020 08/07 A2992 RMK AO2 CIG 004V010 P0000;EQDQ01+000100PRSWM3Q02+000003PRSWM1Q03    003PRSWM1
042970316025624200007071553C+55200-162717FM-15+0029CDB  V0201305N00935002135MN0064005N1+00835+00785101085ADDAA101000395GD13995+0021359GD24995+0036659GF108991999999999999999999MA1101085999999MW1615OC101231REMMET113PACD 071553Z COR 13018G24KT 4SM -RA BKN007 OVC012 08/08 A2985 RMK AO2 PK WND 14026/1501 SLP108 P0001 T00830078 $;EQDQ01+000003PRSWM1Q02    003PRSWM1N01 00020JPWTH 0QNNAA1D0 04007BA1 0 04007AA1D0 06012BA1 0 06012GA1 0 00007KA1D0 00046JA1 0 00078LA1 0 00400CA1 0 02985NA1 0 00020QA1 0 10108SA1D0 00047RA1 0 00083YA1 0 13018
042370316025624200007072253C+55200-162717FM-15+0029CDB  V0201305N00885002745MN0128005N1+00945+00895101105ADDAA101000095GD12995+0015259GD23995+0027459GD34995+0143359GF108991999999999999999999MA1101125999999MW1001OC101181REMMET086PACD 072253Z 13017G23KT 8SM SCT005 BKN009 OVC047 09/09 A2986 RMK AO2 SLP110 T00940089;EQDQ01+000000PRSWM2N01 00000JPWTH 0QNNAA1D0 02005BA1 0 02005AA1D0 04009BA1 0 04009AA1D0 06047BA1 0 06047GA1 0 00009KA1D0 00048JA1 0 00089LA1 0 00800CA1 0 02986NA1 0 00000QA1 0 10110SA1D0 00049RA1 0 00094YA1 0 13017
053470316025624200007080853C+55200-162717FM-15+0029CDB  V0201505N00365009755MN0096005N1+00835+00785101285ADDAA101000025AA203000021GD12995+0006159GD23995+0097559GD34995+0121959GF108991999999999999999999KA1999M+01001KA2999N+00781MA1101295999999MD1310141+9999MW1101MW2455MW3615REMMET126PACD 080853Z 15007KT 6SM -RA BR SCT002 BKN032 OVC040 08/08 A2991 RMK AO2 RAB0758 SLP128 P0000 60000 T00830078 401000078 53014;EQDQ01+000003PRSWM1Q02    003PRSWM1N01 02070JPWTH 0QNNAA1D0 02002BA1 0 02002AA1D0 04032BA1 0 04032AA1D0 06040BA1 0 06040GA1 0 00032KA1D0 00046JA1 0 00078LA1 0 00600CA1 0 02991NA1 0 02070QA1 0 10128SA1D0 00047RA1 0 00083YA1 0 15007
043970316025624200007101853C+55200-162717FM-15+0029CDB  V0201305N00625002745MN0160005N1+00945+00895102205ADDAA101000025GD12995+0018359GD23995+0027459GD34995+0115859GF108991999999999999999999MA1102205999999MW1615REMMET094PACD 101853Z 13012KT 10SM -RA SCT006 BKN009 OVC038 09/09 A3018 RMK AO2 SLP220 P0000 T00940089;EQDQ01+000003PRSWM1Q02    003PRSWM1N01 00020JPWTH 0QNNAA1D0 02006BA1 0 02006AA1D0 04009BA1 0 04009AA1D0 06038BA1 0 06038GA1 0 00009KA1D0 00048JA1 0 00089LA1 0 01000CA1 0 03018NA1 0 00020QA1 0 10220SA1D0 00049RA1 0 00094YA1 0 13012
0071703160256242000071108009+55200-162717NSRDB+002999999V020999999999999999999999999999+99999+99999999999ADDGP10060000101024000001027000101024GQ100600889930989GR100600011905409
036770316025624200007151053C+55200-162717FM-15+0029CDB  V0201305N00675000615MN0064005N1+00945+00895100725ADDAA101000095GD14995+0006159GF108991999999999999999999MA1100715999999MW1101MW2455REMMET090PACD 151053Z 13013KT 4SM BR OVC002 09/09 A2974 RMK AO2 PK WND 15031/0955 SLP072 T00940089;EQDQ01+000003PRSWM1Q02    003PRSWM1N01 00070JPWTH 0QNNAA1D0 06002BA1 0 06002GA1 0 00002KA1D0 00048JA1 0 00089LA1 0 00400CA1 0 02974NA1 0 00070QA1 0 10072SA1D0 00049RA1 0 00094YA1 0 13013
0492703160256242000071518003+55200-162717SY-MT+0029CDB  V0201505N00825220005MN0160005N1+01065+00725100985ADDAA101000095GD11995+0018359GD22995+0076259GF104991999999001501999999GP10060021401024017901027014601024GQ100600679908409GR100600498913229KA1120M+01061KA2240N+00611MA1100985100611MD1010071+9999REMSYN098AAXX  15184 70316 32266 41516 10106 20072 30061 40098 50007 91753 333 10106 20061 91020 555 91518;EQDQ01  00003PRCP99N01 00000JPWTH 0QNNAA1D0 02006BA1 0 01006AA1D0 02025BA1 0 02025GA1U0 99999KA1D0 00045JA1 0 00072LA1 0 01000CA1 0 02982NA1 0 00000QA1 0 10098SA1D0 00051RA1 0 00106YA1 0 15016
0266703160256242000071521003+55200-162717FM-15+0029CDB  V0201605N00985009755MN016000599+01225+00675100945ADDAA101000095GD13995+0097559GP10060022701025004001028019801025GQ100600436912629GR100600957913229MA1100955999999EQDN01 00000JPWTH 0QNNAA1D0 04032BA1 0 04032GA1 0 00032KA1D0 00044JA1 0 00067LA1 0 01000CA1 0 02981NA1 0 00000QA1 0 10094SA1D0 00054RA1 0 00122YA1 0 16019
0146703160256242000071802134+55190-162720FM-16+0031PACD V0202601N005110024019N0160931N1+01101+00701999999ADDGD13991+0024019GF107991999999999999999999MA1101761999999MW1001REMMET053PACD 180213Z 26010KT 10SM BKN008 11/07 A3005 RMK AO2;EQDQ01+000000PRSWM2
0071703160256242000071923009+55200-162717NSRDB+002999999V020999999999999999999999999999+99999+99999999999ADDGP10060015901024000001027015901024GQ100600351916899GR100601083913239
0305703160256242000072105534+55190-162720FM-15+0031PACD V0202401N014010015019N0080461N1+00801+00701100861ADDAA101000021AA206000591GD13991+0015019GD24991+0027019GF108991999999999999999999KA1999M+00941KA2999N+00781MA1100851999999MD1610111+9999MW1101MW2611REMMET113PACD 210553Z 24014KT 5SM -RA BR BKN005 OVC009 08/07 A2978 RMK AO2 SLP086 P0000 60002 T00780072 10094 20078 56011;EQDQ01+000003PRSWM1Q02    003PRSWM1
043070316025624200007230053C+55200-162717FM-15+0029CDB  V0201405N00465028965MN0160005N1+01225+00895101025ADDAA101000025GD11995+0036659GD22995+0057959GD34995+0289659GF108991999999999999999999MA1101025999999MW1001REMMET101PACD 230053Z 14009KT 10SM FEW012 SCT019 OVC095 12/09 A2983 RMK AO2 RAB2355E14 SLP102 P0000 T01220089;EQDQ01+000000PRSWM2N01 00000JPWTH 0QNNAA1D0 02012BA1 0 01012AA1D0 02019BA1 0 02019AA1D0 06095BA1 0 06095GA1 0 00095KA1D0 00048JA1 0 00089LA1 0 01000CA1 0 02983NA1 0 00000QA1 0 10102SA1D0 00054RA1 0 00122YA1 0 14009
0260703160256242000072605534+55190-162720FM-15+0031PACD V0203101N008710036019N0160931N1+00901+00701101881ADDAA106000021GD13991+0036019GD23991+0150019GF107991999999999999999999KA1999M+01171KA2999N+00941MA1101901999999MD1110121+9999MW1001REMMET101PACD 260553Z 31017KT 10SM BKN012 BKN050 09/07 A3009 RMK AO2 SLP188 60000 T00940072 10117 20094 51012;EQDQ01+000000PRSWM2
0487703160256242000072606003+55200-162717SY-MT+0029CDB  V0203105N00885003665MN0160005N1+00945+00725101885ADDAA101000095AA206000791GD13995+0036659GD23995+0152459GF106991999999004501999999GP10060010201024005001027009201024GQ100600786928789GR100600261913249KA1240M+01171KA2240N+00781MA1101905101521MD1110121+9999REMSYN098AAXX  26064 70316 12466 63117 10094 20072 30152 40188 51012 69901 90553 333 10117 20078 555 92606;EQDN01 00000JPWTH 0QNNAA1D0 04012BA1 0 04012AA1D0 04050BA1 0 04050GA1 0 00012KA1D0 00045JA1 0 00072LA1 0 01000CA1 0 03009NA1 0 00000QA1 0 10188SA1D0 00049RA1 0 00094YA1 0 31017
041570316025624200007261653C+55200-162717FM-15+0029CDB  V0203105N00525002135MN0096005N1+00835+00725102185ADDAA101000025GD13995+0021359GD24995+0036659GF108991999999999999999999MA1102175999999MW1101MW2455MW3515REMMET095PACD 261653Z 31010KT 6SM -DZ BR BKN007 OVC012 08/07 A3017 RMK AO2 DZB48 SLP218 P0000 T00830072;EQDQ01+000003PRSWM1Q02    003PRSWM1N01 03370JPWTH 0QNNAA1D0 04007BA1 0 04007AA1D0 06012BA1 0 06012GA1 0 00007KA1D0 00045JA1 0 00072LA1 0 00600CA1 0 03017NA1 0 03370QA1 0 10218SA1D0 00047RA1 0 00083YA1 0 31010
0228703160256242000072721124+55190-162720FM-16+0031PACD V0202701N00931001201CN0040231N1+00901+00801999999ADDGD13991+0021019GD24991+0039019GF108991999999999999999999MA1101491999999MW1611REMMET088PACD 272112Z 27018KT 2 1/2SM -RA BR BKN007 OVC013 09/08 A2997 RMK AO2 CIG 004V011 P0000;EQDQ01+000100PRSWM3Q02+000003PRSWM1Q03    003PRSWM1
0222703160256242000072809404+55190-162720FM-16+0031PACD V0202701N008210057019N0160931N1+00801+00701999999ADDGD12991+0021019GD22991+0039019GD34991+0057019GF108991999999999999999999MA1101191999999MW1611REMMET083PACD 280940Z 27016KT 10SM -RA SCT007 SCT013 OVC019 08/07 A2988 RMK AO2 RAB32 P0000;EQDQ01+000003PRSWM1Q02    003PRSWM1
0218703160256242000072907344+55190-162720FM-16+0031PACD V0202601N006210012019N0032181N1+00801+00701999999ADDGD12991+0006019GD24991+0012019GF108991999999999999999999MA1101051999999MW1611REMMET078PACD 290734Z 26012KT 2SM -RA BR SCT002 OVC004 08/07 A2984 RMK AO2 RAB13 P0001;EQDQ01+000100PRSWM3Q02+000003PRSWM1Q03    003PRSWM1
037970316025624200007310953C+55200-162717FM-15+0029CDB  V0202405N00625001835MN0080005N1+00895+00835099915ADDAA101000395GD14995+0018359GF108991999999999999999999MA1099935999999MW1101MW2455MW3515REMMET096PACD 310953Z 24012KT 5SM -DZ BR OVC006 09/08 A2951 RMK AO2 CIG 003V010 SLP991 P0001 T00890083 $;EQDQ01+000003PRSWM1Q02    003PRSWM1N01 03370JPWTH 0QNNAA1D0 06006BA1 0 06006GA1 0 00006KA1D0 00047JA1 0 00083LA1 0 00500CA1 0 02951NA1 0 03370QA1 0 09991SA1D0 00048RA1 0 00089YA1 0 24012
0234703160256242000073118044+55190-162720FM-16+0031PACD V0203601N006710036019N0064371N1+00901+00801999999ADDGD12991+0015019GD23991+0036019GD34991+0051019GF108991999999999999999999MA1100471999999MW1611REMMET079PACD 311804Z 36013KT 4SM -RA BR SCT005 BKN012 OVC017 09/08 A2967 RMK AO2 P0000;EQDQ01+000100PRSWM3Q02+000003PRSWM1Q03    003PRSWM1
0071703160256242000080101009+55200-162717NSRDB+002999999V020999999999999999999999999999+99999+99999999999ADDGP10060049601024012301027040401024GQ100600413921459GR100600996913269
037170316025624200008010353C+55200-162717FM-15+0029CDB  V0201605N00525008235MN0160005N1+01225+00835100655ADDAA101000095GD11995+0054959GD24995+0082359GF108991999999999999999999MA1100645999999MW1001REMMET079PACD 010353Z 16010KT 10SM FEW018 OVC027 12/08 A2972 RMK AO2 SLP065 T01220083 $;EQDQ01+000000PRSWM2N01 00000JPWTH 0QNNAA1D0 02018BA1 0 01018AA1D0 06027BA1 0 06027GA1 0 00027KA1D0 00047JA1 0 00083LA1 0 01000CA1 0 02972NA1 0 00000QA1 0 10065SA1D0 00054RA1 0 00122YA1 0 16010
043770316025624200008021453C+55200-162717FM-15+0029CDB  V0201705N01395220005MN0160005N1+01065+00895099185ADDAA101000095AA203000391GD12995+0042759GD22995+0304859GF104991999999999999999999MA1099195999999MD1110501+9999MW1001OC101851REMMET112PACD 021453Z 17027G36KT 10SM SCT014 SCT100 11/09 A2929 RMK AO2 PK WND 17042/1410 SLP918 60001 T01060089 51050 $;EQDQ01+000000PRSWM2N01 00000JPWTH 0QNNAA1D0 02014BA1 0 02014AA1D0 02100BA1 0 02100GA1U0 99999KA1D0 00048JA1 0 00089LA1 0 01000CA1 0 02929NA1 0 00000QA1 0 09918SA1D0 00051RA1 0 00106YA1 0 17027
0054703160256242000080509009+55200-162717NSRDB+002999999V020999999999999999999999999999+99999+99999999999ADDGP10060000001000000001000000001000GR100600000900009
041370316025624200008061053C+55200-162717FM-15+0029CDB  V0202705N00155036585MN0160005N1+00835+00615102605ADDAA101000095GD12995+0106759GD23995+0365859GD33995+0609659GF107991999999999999999999MA1102615999999MW1001REMMET084PACD 061053Z 27003KT 10SM SCT035 BKN120 BKN200 08/06 A3030 RMK AO2 SLP260 T00830061;EQDQ01+000000PRSWM2N01 00000JPWTH 0QNNAA1D0 02035BA1 0 02035AA1D0 04120BA1 0 04120AA1D0 04200BA1 0 04200GA1 0 00120KA1D0 00043JA1 0 00061LA1 0 01000CA1 0 03030NA1 0 00000QA1 0 10260SA1D0 00047RA1 0 00083YA1 0 27003
021170316025624200008111253D+55190-162720FM-15+0031PACD V0202801N004610009019N0012071N1+01101+01101103351ADDAA101000095GD14991+0009019GF108991999999999999999999MA1103351999999MW1101REMMET091PACD 111253Z 28009KT 3/4SM BR OVC003 11/11 A3052 RMK AO2 RAB1154E38 SLP335 P0000 T01110111;EQDQ01+000003PRSWM1Q02    003PRSWM1
036970316025624200008121553C+55200-162717FM-15+0029CDB  V0202905N00265013415MN0160005N1+01175+01175103495ADDAA101000095GD11995+0018359GD23995+0134159GF107991999999999999999999MA1103495999999MW1001REMMET077PACD 121553Z 29005KT 10SM FEW006 BKN044 12/12 A3056 RMK AO2 SLP349 T01170117;EQDQ01+000000PRSWM2N01 00000JPWTH 0QNNAA1D0 02006BA1 0 01006AA1D0 04044BA1 0 04044GA1 0 00044KA1D0 00053JA1 0 00117LA1 0 01000CA1 0 03056NA1 0 00000QA1 0 10349SA1D0 00053RA1 0 00117YA1 0 29005
0465703160256242000081306003+55200-162717SY-MT+0029CDB  V0202705N00415002135MN0160005N1+01395+01225103485ADDAA101000095GD14995+0021359GF108991999999002501999999GP10060002101024000001027002101024GQ100600827928539GR100600169913319KA1240M+01781KA2240N+01171MA1103495103101MD1810061+9999REMSYN092AAXX  13064 70316 32366 82708 10139 20122 30310 40348 58006 90553 333 10178 20117 555 91306;EQDQ01  00002PRCP99Q02  00003PRCP99N01 00000JPWTH 0QNNAA1D0 06007BA1 0 06007GA1 0 00007KA1D0 00054JA1 0 00122LA1 0 01000CA1 0 03056NA1 0 00000QA1 0 10348SA1D0 00057RA1 0 00139YA1 0 27008
038370316025624200008140553C+55200-162717FM-15+0029CDB  V0202905N00675001225MN0160005N1+01175+01065103315ADDAA101000095GD14995+0012259GF108991999999999999999999KA1999M+01611KA2999N+01171MA1103325999999MD1810031+9999MW1001REMMET088PACD 140553Z 29013KT 10SM OVC004 12/11 A3051 RMK AO2 SLP331 T01170106 10161 20117 58003;EQDQ01+000000PRSWM2N01 00000JPWTH 0QNNAA1D0 06004BA1 0 06004GA1 0 00004KA1D0 00051JA1 0 00106LA1 0 01000CA1 0 03051NA1 0 00000QA1 0 10331SA1D0 00053RA1 0 00117YA1 0 29013
041070316025624200008141953C+55200-162717FM-15+0029CDB  V0202805N00725005185MN9999999N1+01175+01065103095ADDAA101000095GD11995+0024459GD24995+0051859GF108991999999999999999999MA1103085999999MW1101MW2455REMMET080PACD 141953Z 28014KT 10SM BR FEW008 OVC017 12/11 A3044 RMK AO2 SLP309 T01170106;EQDQ01+000003PRSWM1Q02    003PRSWM1N01 00070JPWTH 0P010160002VODIS QNNAA1D0 02008BA1 0 01008AA1D0 06017BA1 0 06017GA1 0 00017KA1D0 00051JA1 0 00106LA1 0 01000CA1 0 03044NA1 0 00070QA1 0 10309SA1D0 00053RA1 0 00117YA1 0 28014
0192703160256242000081503084+55190-162720FM-16+0031PACD V0202801N007710003019N0012071N1+01101+01001999999ADDGD14991+0003019GF108991999999999999999999MA1102911999999MW1511REMMET067PACD 150308Z 28015KT 3/4SM -DZ BR OVC001 11/10 A3039 RMK AO2 P0000;EQDQ01+000100PRSWM3Q02+000003PRSWM1Q03    003PRSWM1
0194703160256242000081512444+55190-162720FM-16+0031PACD V0202801N008710003019N0040231N1+00901+00901999999ADDGD14991+0003019GF108991999999999999999999MA1102711999999MW1511REMMET069PACD 151244Z 28017KT 2 1/2SM -DZ BR OVC001 09/09 A3033 RMK AO2 P0000;EQDQ01+000100PRSWM3Q02+000003PRSWM1Q03    003PRSWM1
0164703160256242000081712434+55190-162720FM-16+0031PACD V0202801N006210003019N0048281N1+01101+01001999999ADDGD14991+0003019GF108991999999999999999999MA1102951999999MW1101REMMET055PACD 171243Z 28012KT 3SM BR OVC001 11/10 A3040 RMK AO2;EQDQ01+000003PRSWM1Q02    003PRSWM1
0209703160256242000081713103+55190-162720FM-16+0031PACD V0202801N00671000301CN0160931N1+01101+01001999999ADDGD14991+0009019GF108991999999999999999999GP10060000001000000001000000001000GR100600000900009MA1102951999999MW1001REMMET065PACD 171310Z 28013KT 10SM OVC003 11/10 A3040 RMK AO2 CIG 001V006;EQDQ01+000000PRSWM2
036970316025624200008231353C+55200-162717FM-15+0029CDB  V0201805N00215025915MN0160005N1+00725+00615101335ADDAA101000095GD12995+0079259GD24995+0259159GF108991999999999999999999MA1101325999999MW1001REMMET077PACD 231353Z 18004KT 10SM SCT026 OVC085 07/06 A2992 RMK AO2 SLP133 T00720061;EQDQ01+000000PRSWM2N01 00000JPWTH 0QNNAA1D0 02026BA1 0 02026AA1D0 06085BA1 0 06085GA1 0 00085KA1D0 00043JA1 0 00061LA1 0 01000CA1 0 02992NA1 0 00000QA1 0 10133SA1D0 00045RA1 0 00072YA1 0 18004
0212703160256242000082717324+55190-162720FM-16+0031PACD V0202501N006710018019N0096561N1+01001+00901999999ADDGD13991+0018019GD24991+0033019GF108991999999999999999999MA1101351999999MW1511REMMET072PACD 271732Z 25013KT 6SM -DZ BR BKN006 OVC011 10/09 A2993 RMK AO2 P0000;EQDQ01+000100PRSWM3Q02+000003PRSWM1Q03    003PRSWM1
040670316025624200008280653C+55200-162717FM-15+0029CDB  V0201305N01295000915MN0048005N1+01115+01065100985ADDAA101000025GD14995+0009159GF108991999999999999999999MA1100985999999MW1101MW2455MW3615OC101541REMMET115PACD 280653Z 13025G30KT 3SM -RA BR OVC003 11/11 A2982 RMK AO2 PK WND 13030/0651 CIG 001V006 SLP098 P0000 T01110106;EQDQ01+000003PRSWM1Q02    003PRSWM1N01 02070JPWTH 0QNNAA1D0 06003BA1 0 06003GA1 0 00003KA1D0 00051JA1 0 00106LA1 0 00300CA1 0 02982NA1 0 02070QA1 0 10098SA1D0 00052RA1 0 00111YA1 0 13025
0054703160256242000082810009+55200-162717NSRDB+002999999V020999999999999999999999999999+99999+99999999999ADDGP10060000001000000001000000001000GR100600000900009
0071703160256242000090104009+55200-162717NSRDB+002999999V020999999999999999999999999999+99999+99999999999ADDGP10060008301024000001027008301024GQ100600718925789GR100600419913429
0416703160256242000090402003+55200-162717FM-15+0029CDB  V0203205N00625007805MN0160005N1+01005+00505101565ADDAA101000095GD12995+0079259GD23991+0078019GF107991999999999999999999GP10060020001024004901027017401024GQ100600577922909GR100600718913449MA1101565999999MW1001REMMET062PACD 040200Z 30011KT 10SM SCT020 BKN026 10/04 A2999 RMK AO2 $;EQDQ01+000000PRSWM2N01 00000JPWTH 0P01 220003SCOCIGQNNAA1D0 02026BA1 0 02026GA1U0 99999KA1D0 00041JA1 0 00050LA1 0 01000CA1 0 02999NA1 0 00000QA1 0 10156SA1D0 00050RA1 0 00100YA1 0 32012
0054703160256242000090509009+55200-162717NSRDB+002999999V020999999999999999999999999999+99999+99999999999ADDGP10060000001000000001000000001000GR100600000900009
0054703160256242000090514009+55200-162717NSRDB+002999999V020999999999999999999999999999+99999+99999999999ADDGP10060000001000000001000000001000GR100600000900009
045370316025624200009051953C+55200-162717FM-15+0029CDB  V0202705N01085005495MN0144005N1+00895+00615101015ADDAA101000025GD13995+0054959GD23995+0070159GD34995+0085359GF108991999999999999999999MA1101025999999MW1001OC101391REMMET116PACD 051953Z 27021G27KT 9SM BKN018 BKN023 OVC028 09/06 A2983 RMK AO2 PK WND 26027/1949 RAE31 SLP101 P0000 T00890061;EQDQ01+000000PRSWM2N01 00000JPWTH 0QNNAA1D0 04018BA1 0 04018AA1D0 04023BA1 0 04023AA1D0 06028BA1 0 06028GA1 0 00018KA1D0 00043JA1 0 00061LA1 0 00900CA1 0 02983NA1 0 00000QA1 0 10101SA1D0 00048RA1 0 00089YA1 0 27021
034970316025624200009081253C+55200-162717FM-15+0029CDB  V0202605N00525000915MN0048005N1+00785+00725101335ADDAA101000095GD14995+0009159GF108991999999999999999999MA1101325999999MW1101MW2455REMMET072PACD 081253Z 26010KT 3SM BR OVC003 08/07 A2992 RMK AO2 SLP133 T00780072;EQDQ01+000003PRSWM1Q02    003PRSWM1N01 00070JPWTH 0QNNAA1D0 06003BA1 0 06003GA1 0 00003KA1D0 00045JA1 0 00072LA1 0 00300CA1 0 02992NA1 0 00070QA1 0 10133SA1D0 00046RA1 0 00078YA1 0 26010
042170316025624200009081653C+55200-162717FM-15+0029CDB  V0202705N00315000915MN0040005N1+00785+00725101185ADDAA101000025GD13995+0009159GD24995+0024459GF108991999999999999999999MA1101195999999MW1101MW2455REMMET107PACD 081653Z 27006KT 2 1/2SM BR BKN003 OVC008 08/07 A2988 RMK AO2 DZE27 CIG 002V006 SLP118 P0000 T00780072;EQDQ01+000003PRSWM1Q02    003PRSWM1N01 00070JPWTH 0QNNAA1D0 04003BA1 0 04003AA1D0 06008BA1 0 06008GA1 0 00003KA1D0 00045JA1 0 00072LA1 0 00250CA1 0 02988NA1 0 00070QA1 0 10118SA1D0 00046RA1 0 00078YA1 0 27006
0219703160256242000091010013+55190-162720FM-16+0031PACD V0202501N006210036019N0160931N1+01101+00901999999ADDGD13991+0036019GD24991+0051019GF108991999999999999999999GP10060000001000000001000000001000GR100600000900009MA1099861999999MW1001REMMET060PACD 101001Z 25012KT 10SM BKN012 OVC017 11/09 A2949 RMK AO2;EQDQ01+000000PRSWM2
0450703160256242000091118003+55200-162717SY-MT+0029CDB  V0202605N00575014335MN0160005N1+00835-00065101135ADDAA101000025AA206000791GD13995+0143359GF106991999999012501999999GP10060005301024004001027004601024GQ100600803909649GR100600226913499KA1120M+00831KA2240N+00561MA1101125100741MD1510071+9999REMSYN098AAXX  11184 70316 12666 62611 10083 21006 30074 40113 55007 69901 91753 333 10083 20056 555 91118;EQDN01 00000JPWTH 0QNNAA1D0 04047BA1 0 04047GA1 0 00047KA1D0 00031JA1 0-00006LA1 0 01000CA1 0 02986NA1 0 00000QA1 0 10113SA1D0 00047RA1 0 00083YA1 0 26011
0524703160256242000091206003+55200-162717SY-MT+0029CDB  V0202405N00415060965MN0160005N1+00835+00565100965ADDAA101000095AA206000791GD11995+0100659GD22995+0182959GD33995+0609659GF106991999999008001999999GP10060000001024000001027000001024GQ100600891927649GR100600005903269KA1240M+01221KA2240N+00561MA1100955100571MD1310021+9999REMSYN098AAXX  12064 70316 12566 62408 10083 20056 30057 40096 53002 69901 90553 333 10122 20056 555 91206;EQDN01 00000JPWTH 0QNNAA1D0 02033BA1 0 01033AA1D0 02060BA1 0 02060AA1D0 04200BA1 0 04200GA1 0 00200KA1D0 00042JA1 0 00056LA1 0 01000CA1 0 02981NA1 0 00000QA1 0 10096SA1D0 00047RA1 0 00083YA1 0 24008
0054703160256242000091410009+55200-162717NSRDB+002999999V020999999999999999999999999999+99999+99999999999ADDGP10060000001000000001000000001000GR100600000900009
0054703160256242000091507009+55200-162717NSRDB+002999999V020999999999999999999999999999+99999+99999999999ADDGP10060000001000000001000000001000GR100600000900009
032570316025624200009221053C+55200-162717FM-15+0029CDB  V0202605N00315007925MN0160005N1+00725+00565101835ADDAA101000095GD14995+0079259GF108991999999999999999999MA1101835999999MW1001REMMET070PACD 221053Z 26006KT 10SM OVC026 07/06 A3007 RMK A02 SLP183 T00720056;EQDQ01+000000PRSWM2N01 00000JPWTH 0QNNAA1D0 06026BA1 0 06026GA1 0 00026KA1D0 00042JA1 0 00056LA1 0 01000CA1 0 03007NA1 0 00000QA1 0 10183SA1D0 00045RA1 0 00072YA1 0 26006
0054703160256242000092213009+55200-162717NSRDB+002999999V020999999999999999999999999999+99999+99999999999ADDGP10060000001000000001000000001000GR100600000900009
032170316025624200009241653C+55200-162717FM-15+0029CDB  V0203405N00725006105MN0160005N1+00675+00335101755ADDAA101000095GD14995+0061059GF108991999999999999999999MA1101765999999MW1001REMMET066PACD 241653Z 34014KT 10SM OVC020 07/03 A3005 RMK SLP175 T00670033;EQDQ01+000000PRSWM2N01 00000JPWTH 0QNNAA1D0 06020BA1 0 06020GA1 0 00020KA1D0 00038JA1 0 00033LA1 0 01000CA1 0 03005NA1 0 00000QA1 0 10175SA1D0 00044RA1 0 00067YA1 0 34014
030770316025624200009250653C+55200-162717FM-15+0029CDB  V0203305N00525220005MN0160005N1+00505+00335101735ADDAA101000095GF100991999999999999999999MA1101735999999MW1001REMMET067PACD 250653Z 33010KT 10SM CLR 05/03 A3004 RMK AO2 SLP173 T00500033;EQDQ01+000000PRSWM2N01 00000JPWTH 0QNNAA1D0 00000BA1 0 00000GA1U0 99999KA1D0 00038JA1 0 00033LA1 0 01000CA1 0 03004NA1 0 00000QA1 0 10173SA1D0 00041RA1 0 00050YA1 0 33010
0054703160256242000092616009+55200-162717NSRDB+002999999V020999999999999999999999999999+99999+99999999999ADDGP10060000001000000001000000001000GR100600000900009
0071703160256242000092805009+55200-162717NSRDB+002999999V020999999999999999999999999999+99999+99999999999ADDGP10060000601024005101027000501024GQ100600879926379GR100600028907609
0263703160256242000092914033+55190-162720FM-16+0031PACD V0203001N007710084019N0096561N1+00601+00401999999ADDGD13991+0084019GD24991+0102019GF108991999999999999999999GP10060000001000000001000000001000GR100600000900009MA1102171999999MW1611REMMET072PACD 291403Z 30015KT 6SM -RA BR BKN028 OVC034 06/04 A3017 RMK AO2 P0000;EQDQ01+000100PRSWM3Q02+000003PRSWM1Q03    003PRSWM1
045770316025624200010010853C+55200-162717FM-15+0029CDB  V0201505N00365007325MN0160005N1+00675+00445101965ADDAA101000025AA203000021GD13995+0073259GD24995+0118959GF108991999999999999999999KA1999M+00781KA2999N+00501MA1101965999999MD1710061+9999MW1001REMMET114PACD 010853Z 15007KT 10SM BKN024 OVC039 07/04 A3011 RMK AO2 RAB11E52 SLP196 P0000 60000 T00670044 400780050 57006;EQDQ01+000000PRSWM2N01 00000JPWTH 0QNNAA1D0 04024BA1 0 04024AA1D0 06039BA1 0 06039GA1 0 00024KA1D0 00040JA1 0 00044LA1 0 01000CA1 0 03011NA1 0 00000QA1 0 10196SA1D0 00044RA1 0 00067YA1 0 15007
039470316025624200010012153C+55200-162717FM-15+0029CDB  V0209999C00005007325MN0144005N1+01005+00945101535ADDAA101001595GD13995+0073259GD24995+0097559GF108991999999999999999999MA1101525999999MW1615REMMET086PACD 012153Z 00000KT 9SM -RA BKN024 OVC032 10/09 A2998 RMK AO2 SLP153 P0006 T01000094;EQDQ01+000003PRSWM1Q02    003PRSWM1N01 00020JPWTH 0QNNAA1D0 04024BA1 0 04024AA1D0 06032BA1 0 06032GA1 0 00024KA1D0 00049JA1 0 00094LA1 0 00900CA1 0 02998NA1 0 00020QA1 0 10153SA1D0 00050RA1 0 00100YA1 0 00000
0268703160256242000100411534+55190-162720FM-15+0031PACD V0203301N004110120019N0160931N1+00701-00101101211ADDGD12991+0075019GD23991+0120019GD33991+0180019GF107991999999999999999999KA1999M+00671KA2999N+00391MA1101221999999MD1810161+9999MW1001REMMET105PACD 041153Z 33008KT 10SM FEW025 BKN040 BKN065 07/M01 A2989 RMK AO2 SLP121 T00671006 10067 20039 58016 $;EQDQ01+000000PRSWM2
041570316025624200010042153C+55200-162717FM-15+0029CDB  V0203605N00625010675MN0160005N1+00835+00715100655ADDAA101000095GD11995+0045759GD22995+0076259GD34995+0106759GF108991999999999999999999MA1100645999999MW1001REMMET086PACD 042153Z 36012KT 10SM FEW015 SCT025 OVC035 08/07 A2972 RMK AO2 SLP065 T00830071 $;EQDQ01+000000PRSWM2N01 00000JPWTH 0QNNAA1D0 02015BA1 0 01015AA1D0 02025BA1 0 02025AA1D0 06035BA1 0 06035GA1 0 00035KA1D0 00045JA1 0 00071LA1 0 01000CA1 0 02972NA1 0 00000QA1 0 10065SA1D0 00047RA1 0 00083YA1 0 36012
055770316025624200010050853C+55200-162717FM-15+0029CDB  V0203405N01085014945MN0096005N1+00725+00565099625ADDAA101000895AA203003891GD11995+0057959GD23995+0149459GD34995+0167659GF108991999999999999999999KA1999M+01061KA2999N+00441MA1099635999999MD1810231+9999MW1101MW2455MW3615OC101341REMMET141PACD 050853Z 34021G26KT 6SM -RA BR FEW019 BKN049 OVC055 07/06 A2942 RMK AO2 PK WND 33029/0810 SLP962 P0003 60015 T00720056 401060044 58023 $;EQDQ01+000003PRSWM1Q02    003PRSWM1N01 02070JPWTH 0QNNAA1D0 02019BA1 0 01019AA1D0 04049BA1 0 04049AA1D0 06055BA1 0 06055GA1 0 00049KA1D0 00042JA1 0 00056LA1 0 00600CA1 0 02942NA1 0 02070QA1 0 09962SA1D0 00045RA1 0 00072YA1 0 34021
051570316025624200010080253C+55200-162717FM-15+0029CDB  V0203205N01555009455MN0112005N1+00395-00225100935ADDAA101000025AA203000391GD11995+0061059GD23995+0094559GD34995+0152459GF108991999999999999999999MA1100915999999MD1310231+9999MW1715OC101901REMMET137PACD 080253Z 32030G37KT 7SM -SN FEW020 BKN031 OVC050 04/M02 A2980 RMK AO2 PK WND 32038/0230 RAE0158 SLP093 P0000 60001 T00391022 53023 $;EQDQ01+000003PRSWM1Q02    003PRSWM1N01 00040JPWTH 0QNNAA1D0 02020BA1 0 01020AA1D0 04031BA1 0 04031AA1D0 06050BA1 0 06050GA1 0 00031KA1D0 00028JA1 0-00022LA1 0 00700CA1 0 02980NA1 0 00040QA1 0 10093SA1D0 00039RA1 0 00039YA1 0 32030
0054703160256242000100908009+55200-162717NSRDB+002999999V020999999999999999999999999999+99999+99999999999ADDGP10060000001000000001000000001000GR100600000900009
0169703160256242000101221154+55190-162720FM-16+0031PACD V02099999999990078019N0160931N1+01001+00701999999ADDGD13991+0078019GD23991+0150019GF107991999999999999999999MA1100511999999MW1001REMMET061PACD 122115Z 10SM FEW020 BKN026 BKN050 10/07 A2968 RMK AO2 $;EQDQ01+000000PRSWM2
042570316025624200010160753C+55200-162717FM-15+0029CDB  V0202805N00625009455MN0160005N1+00445+00335099045ADDAA101000595GD11995+0070159GD23995+0094559GD34995+0213459GF108991999999999999999999MA1099025999999MW1001REMMET096PACD 160753Z 28012KT 10SM FEW023 BKN031 OVC070 04/03 A2924 RMK AO2 RAE45 SLP904 P0002 T00440033;EQDQ01+000000PRSWM2N01 00000JPWTH 0QNNAA1D0 02023BA1 0 01023AA1D0 04031BA1 0 04031AA1D0 06070BA1 0 06070GA1 0 00031KA1D0 00038JA1 0 00033LA1 0 01000CA1 0 02924NA1 0 00000QA1 0 09904SA1D0 00040RA1 0 00044YA1 0 28012
025070316025624200010160953D+55190-162720FM-15+0031PACD V0202701N004610270019N0160931N1+00401+00201099031ADDAA101000095GD12991+0108019GD22991+0129019GD34991+0270019GF108991999999999999999999MA1099021999999MW1611REMMET100PACD 160953Z 27009KT 10SM -RA FEW036 SCT043 OVC090 04/02 A2924 RMK AO2 RAB02 SLP903 P0004 T00390022;EQDQ01+000003PRSWM1Q02    003PRSWM1
041470316025624200010182253C+55200-162717FM-15+0029CDB  V0201905N00465016765MN0160005N1+00565-00065100455ADDAA101000095GD12995+0091459GD23995+0167659GD33995+0609659GF107991999999999999999999MA1100445999999MW1001REMMET085PACD 182253Z 19009KT 10SM SCT030 BKN055 BKN200 06/M01 A2966 RMK AO2 SLP045 T00561006;EQDQ01+000000PRSWM2N01 00000JPWTH 0QNNAA1D0 02030BA1 0 02030AA1D0 04055BA1 0 04055AA1D0 04200BA1 0 04200GA1 0 00055KA1D0 00031JA1 0-00006LA1 0 01000CA1 0 02966NA1 0 00000QA1 0 10045SA1D0 00042RA1 0 00056YA1 0 19009
0054703160256242000101907009+55200-162717NSRDB+002999999V020999999999999999999999999999+99999+99999999999ADDGP10060000001000000001000000001000GR100600000900009
0071703160256242000101923009+55200-162717NSRDB+002999999V020999999999999999999999999999+99999+99999999999ADDGP10060021601024005901027019201024GQ100600656917859GR100600569913799
0054703160256242000102210009+55200-162717NSRDB+002999999V020999999999999999999999999999+99999+99999999999ADDGP10060000001000000001000000001000GR100600000900009
0529703160256242000102712003+55200-162717SY-MT+0029CDB  V0202905N00625009145MN0096005N1+00395+00285101965ADDAA101000395AA206000391AA324006691GD12995+0070159GD23995+0091459GD34995+0112859GF108991999999008001999999GP10060000001000000001000000001000GR100600000900009KA1999M+00561MA1101965101591MD1310241+9999MW1455MW2615REMSYN110AAXX  27124 70316 11559 82912 10039 20028 30159 40196 53024 69931 761// 91153 333 10056 70066 96010 555 92712;EQDN01 02070JPWTH 0QNNAA1D0 02023BA1 0 02023AA1D0 04030BA1 0 04030AA1D0 06037BA1 0 06037GA1 0 00030KA1D0 00037JA1 0 00028LA1 0 00600CA1 0 03011NA1 0 02070QA1 0 10196SA1D0 00039RA1 0 00039YA1 0 29012
0054703160256242000102713009+55200-162717NSRDB+002999999V020999999999999999999999999999+99999+99999999999ADDGP10060000001000000001000000001000GR100600000900009
041370316025624200010281553C+55200-162717FM-15+0029CDB  V0201005N00315012195MN0160005N1+00675+00285101195ADDAA101000095GD11995+0045759GD23995+0121959GD34995+0259159GF108991999999999999999999MA1101195999999MW1001REMMET084PACD 281553Z 10006KT 10SM FEW015 BKN040 OVC085 07/03 A2988 RMK AO2 SLP119 T00670028;EQDQ01+000000PRSWM2N01 00000JPWTH 0QNNAA1D0 02015BA1 0 01015AA1D0 04040BA1 0 04040AA1D0 06085BA1 0 06085GA1 0 00040KA1D0 00037JA1 0 00028LA1 0 01000CA1 0 02988NA1 0 00000QA1 0 10119SA1D0 00044RA1 0 00067YA1 0 10006
0054703160256242000103011009+55200-162717NSRDB+002999999V020999999999999999999999999999+99999+99999999999ADDGP10060000001000000001000000001000GR100600000900009
0071703160256242000103022009+55200-162717NSRDB+002999999V020999999999999999999999999999+99999+99999999999ADDGP10060027501024063301027006601024GQ100600707916349GR100600459913889
005170316025624200011020859O+55200-162717SOD  +002999999V020999999999999999999999999999+99999+99999999999ADDAT1MW16RA  5AT2MW18SN  1AT3MW01FG  5AT4MW13BR  1
048470316025624200011040153C+55200-162717FM-15+0029CDB  V0201205N02735036585MN0064005N1+00615+00175098885ADDAA101000095GD11995+0070159GD22995+0112859GD34995+0365859GF108991999999999999999999MA1098885999999MW1075MW2101MW3455OC103341REMMET119PACD 040153Z 12053G65KT 4SM BR BLSA FEW023 SCT037 OVC120 06/02 A2920 RMK AO2 PK WND 12070/0143 PRESFR SLP888 T00610017;EQDQ01+000003PRSWM1Q02    003PRSWM1N01 07074JPWTH 0QNNAA1D0 02023BA1 0 01023AA1D0 02037BA1 0 02037AA1D0 06120BA1 0 06120GA1 0 00120KA1D0 00035JA1 0 00017LA1 0 00400CA1 0 02920NA1 0 07074QA1 0 09888SA1D0 00043RA1 0 00061YA1 0 12053
047070316025624200011040253C+55200-162717FM-15+0029CDB  V0201205N02165027435MN0096005N1+00675+00225098935ADDAA101000095AA203000021GD11995+0134159GD24995+0274359GF108991999999999999999999MA1098925999999MD1510591+9999MW1075MW2101MW3455OC103041REMMET117PACD 040253Z 12042G59KT 6SM BR BLSA FEW044 OVC090 07/02 A2921 RMK AO2 PK WND 12068/0154 SLP893 60000 T00670022 55059;EQDQ01+000003PRSWM1Q02    003PRSWM1N01 07074JPWTH 0QNNAA1D0 02044BA1 0 01044AA1D0 06090BA1 0 06090GA1 0 00090KA1D0 00036JA1 0 00022LA1 0 00600CA1 0 02921NA1 0 07074QA1 0 09893SA1D0 00044RA1 0 00067YA1 0 12042
048270316025624200011040753C+55200-162717FM-15+0029CDB  V0201105N02425006715MN0064005N1+00505+00395098085ADDAA101002095GD13995+0067159GD23995+0085359GD34995+0100659GF108991999999999999999999MA1098075999999MW1101MW2455MW3615OC102881REMMET117PACD 040753Z 11047G56KT 4SM -RA BR BKN022 BKN028 OVC033 05/04 A2896 RMK AO2 PK WND 11057/0706 SLP808 P0008 T00500039;EQDQ01+000003PRSWM1Q02    003PRSWM1N01 02070JPWTH 0QNNAA1D0 04022BA1 0 04022AA1D0 04028BA1 0 04028AA1D0 06033BA1 0 06033GA1 0 00022KA1D0 00039JA1 0 00039LA1 0 00400CA1 0 02896NA1 0 02070QA1 0 09808SA1D0 00041RA1 0 00050YA1 0 11047
044370316025624200011060153C+55200-162717FM-15+0029CDB  V0201205N01185039625MN0160005N1+00725-00065099645ADDAA101000095GD11995+0109759GD22995+0304859GD34995+0396259GF108991999999999999999999MA1099635999999MW1001OC101591REMMET106PACD 060153Z 12023G31KT 10SM FEW036 SCT100 OVC130 07/M01 A2942 RMK AO2 PK WND 12034/0132 SLP964 T00721006;EQDQ01+000000PRSWM2N01 00000JPWTH 0QNNAA1D0 02036BA1 0 01036AA1D0 02100BA1 0 02100AA1D0 06130BA1 0 06130GA1 0 00130KA1D0 00031JA1 0-00006LA1 0 01000CA1 0 02942NA1 0 00000QA1 0 09964SA1D0 00045RA1 0 00072YA1 0 12023
0054703160256242000110714009+55200-162717NSRDB+002999999V020999999999999999999999999999+99999+99999999999ADDGP10060000001000000001000000001000GR100600000900009
0255703160256242000111302244+55190-162720FM-16+0031PACD V0201601N018010069019N0048281N1+00701+00701999999ADDGD12991+0027019GD23991+0069019GD34991+0084019GF108991999999999999999999MA1098311999999MW1101MW2651OC102571REMMET102PACD 130224Z 16035G50KT 3SM +RA BR FEW009 BKN023 OVC028 07/07 A2903 RMK AO2 PK WND 15053/0209 P0011 $;EQDQ01+000003PRSWM1Q02    003PRSWM1
049370316025624200011130253C+55200-162717FM-15+0029CDB  V0201605N01495021345MN0160005N1+00725+00335098365ADDAA101003095AA203022991GD12995+0131159GD23995+0213459GD33995+0335359GF107991999999999999999999MA1098345999999MD1510431+9999MW1001OC101851REMMET131PACD 130253Z 16029G36KT 10SM SCT043 BKN070 BKN110 07/03 A2904 RMK AO2 PK WND 15053/0209 RAE52 SLP836 P0012 60090 T00720033 55043 $;EQDQ01+000000PRSWM2N01 00000JPWTH 0QNNAA1D0 02043BA1 0 02043AA1D0 04070BA1 0 04070AA1D0 04110BA1 0 04110GA1 0 00070KA1D0 00038JA1 0 00033LA1 0 01000CA1 0 02904NA1 0 00000QA1 0 09836SA1D0 00045RA1 0 00072YA1 0 16029
047770316025624200011150353C+55200-162717FM-15+0029CDB  V0201405N01495008235MN0160005N1+00615+00445099485ADDAA101000025GD11995+0042759GD23995+0082359GD34995+0109759GF108991999999999999999999MA1099495999999MW1615OC101851REMMET124PACD 150353Z 14029G36KT 10SM -RA FEW014 BKN027 OVC036 06/04 A2938 RMK AO2 PK WND 13036/0352 RAE22B45 SLP948 P0000 T00610044;EQDQ01+000003PRSWM1Q02    003PRSWM1N01 00020JPWTH 0QNNAA1D0 02014BA1 0 01014AA1D0 04027BA1 0 04027AA1D0 06036BA1 0 06036GA1 0 00027KA1D0 00040JA1 0 00044LA1 0 01000CA1 0 02938NA1 0 00020QA1 0 09948SA1D0 00043RA1 0 00061YA1 0 14029
045570316025624200011180053C+55200-162717FM-15+0029CDB  V0202005N01185022865MN0160005N1+00565-00225098345ADDAA101000025GD11995+0149459GD22995+0182959GD33995+0228659GF107991999999999999999999MA1098345999999MW1001OC101541REMMET118PACD 180053Z 20023G30KT 10SM FEW049 SCT060 BKN075 06/M02 A2904 RMK AO2 PK WND 19040/0025 RAE09 SLP834 P0000 T00561022;EQDQ01+000000PRSWM2N01 00000JPWTH 0QNNAA1D0 02049BA1 0 01049AA1D0 02060BA1 0 02060AA1D0 04075BA1 0 04075GA1 0 00075KA1D0 00028JA1 0-00022LA1 0 01000CA1 0 02904NA1 0 00000QA1 0 09834SA1D0 00042RA1 0 00056YA1 0 20023
0288703160256242000111905534+55190-162720FM-15+0031PACD V0201601N003610270019N0160931N1+00101+00001099991ADDAA101000021AA206000021GD12991+0102019GD23991+0270019GF107991999999999999999999KA1999M+00441KA2999N+00111MA1099971999999MD1110131+9999MW1001REMMET118PACD 190553Z 16007KT 10SM FEW034 BKN090 01/00 A2952 RMK AO2 SLP999 RAB20SNB20 P0000 60000 T00110000 10044 20011 51013;EQDQ01+000000PRSWM2
043370316025624200011192053C+55200-162717FM-15+0029CDB  V0201405N00675220005MN0160005N1+00285+00065100175ADDAA101000095GD11995+0106759GD22995+0152459GD32995+0274359GF104991999999999999999999MA1100175999999MD1810031+9999MW1001REMMET090PACD 192053Z 14013KT 10SM FEW035 SCT050 SCT090 03/01 A2958 RMK AO2 SLP017 T00280006 58003;EQDQ01+000000PRSWM2N01 00000JPWTH 0QNNAA1D0 02035BA1 0 01035AA1D0 02050BA1 0 02050AA1D0 02090BA1 0 02090GA1U0 99999KA1D0 00033JA1 0 00006LA1 0 01000CA1 0 02958NA1 0 00000QA1 0 10017SA1D0 00037RA1 0 00028YA1 0 14013
0071703160256242000112120009+55200-162717NSRDB+002999999V020999999999999999999999999999+99999+99999999999ADDGP10060005401024032501027002501024GQ100600850913679GR100600122914029
0054703160256242000112217009+55200-162717NSRDB+002999999V020999999999999999999999999999+99999+99999999999ADDGP10060000001000000001000000001000GR100600000900009
0255703160256242000112515003+55200-162717FM-15+0029CDB  V0203205N01135011285MN009600599+00175-00065099245ADDAA101000025GD14995+0112859GP10060000001000000001000000001000GR100600000900009MA1099225999999MW1455EQDN01 00070JPWTH 0QNNAA1D0 06037BA1 0 06037GA1 0 00037KA1D0 00031JA1 0-00006LA1 0 00600CA1 0 02930NA1 0 00070QA1 0 09924SA1D0 00035RA1 0 00017YA1 0 32022
0487703160256242000112608003+55200-162717FM-15+0029CDB  V0202305N00825002745MN0020005N1+00005+00005100155ADDAA101000395GD13995+0027459GD23995+0045759GD34995+0125059GF108991999999999999999999GP10060000001000000001000000001000GR100600000900009MA1100145999999MW1101MW2455MW3715REMMET079PACD 260800Z 23012KT 2SM -SN BR SCT011 BKN028 OVC045 00/00 A2957 RMK AO2 P0000;EQDQ01+000003PRSWM1Q02    003PRSWM1N01 04070JPWTH 0QNNAA1D0 04009BA1 0 04009AA1D0 04015BA1 0 04015AA1D0 06041BA1 0 06041GA1 0 00009KA1D0 00032JA1 0 00000LA1 0 00125CA1 0 02957NA1 0 04070QA1 0 10015SA1D0 00032RA1 0 00000YA1 0 23016
036070316025624200011261053C+55200-162717FM-15+0029CDB  V0202205N00525220005MN0160005N1-00065-00285100091ADDAA101000095GD11995+0106759GD22995+0121959GF104991999999999999999999MA1100075999999MW1001REMMET079PACD 261053Z 22010KT 10SM FEW035 SCT040 M01/M03 A2955 RMK AO2 SLP009 T10061028;EQDQ01+000000PRSWM2N01 00000JPWTH 0QNNAA1D0 02035BA1 0 01035AA1D0 02040BA1 0 02040GA1U0 99999KA1D0 00027JA1 0-00028LA1 0 01000CA1 0 02955NA1 0 00000SA1D0 00031RA1 0-00006YA1 0 22010
0054703160256242000112709009+55200-162717NSRDB+002999999V020999999999999999999999999999+99999+99999999999ADDGP10060000001000000001000000001000GR100600000900009
037170316025624200011271353C+55200-162717FM-15+0029CDB  V0209999C00005015245MN0160005N1-00505-00615099635ADDAA101000095GD11995+0070159GD23995+0152459GF107991999999999999999999MA1099635999999MW1001REMMET079PACD 271353Z 00000KT 10SM FEW023 BKN050 M05/M06 A2942 RMK AO2 SLP963 T10501061;EQDQ01+000000PRSWM2N01 00000JPWTH 0QNNAA1D0 02023BA1 0 01023AA1D0 04050BA1 0 04050GA1 0 00050KA1D0 00021JA1 0-00061LA1 0 01000CA1 0 02942NA1 0 00000QA1 0 09963SA1D0 00023RA1 0-00050YA1 0 00000
037170316025624200012020053C+55200-162717FM-15+0029CDB  V0201505N00465220005MN0160005N1-00115-00285100425ADDAA101000095GD11995+0091459GD22995+0304859GF104991999999999999999999MA1100415999999MW1001REMMET079PACD 020053Z 15009KT 10SM FEW030 SCT100 M01/M03 A2965 RMK AO2 SLP042 T10111028;EQDQ01+000000PRSWM2N01 00000JPWTH 0QNNAA1D0 02030BA1 0 01030AA1D0 02100BA1 0 02100GA1U0 99999KA1D0 00027JA1 0-00028LA1 0 01000CA1 0 02965NA1 0 00000QA1 0 10042SA1D0 00030RA1 0-00011YA1 0 15009
0054703160256242000120204009+55200-162717NSRDB+002999999V020999999999999999999999999999+99999+99999999999ADDGP10060000001000000001000000001000GR100600000900009
0213703160256242000120312204+55190-162720FM-15+0031PACD V0202501N005710039019N0080461N1+00101+00001999999ADDAA101000391GD13991+0039019GD24991+0081019GF108991999999999999999999MA1098881999999MW1101MW2711REMMET072PACD 031220Z 25011KT 5SM -SN BR BKN013 OVC027 01/00 A2920 RMK AO2 P0001;EQDQ01+000003PRSWM1Q02    003PRSWM1
0054703160256242000120811009+55200-162717NSRDB+002999999V020999999999999999999999999999+99999+99999999999ADDGP10060000001000000001000000001000GR100600000900009
0054703160256242000120813009+55200-162717NSRDB+002999999V020999999999999999999999999999+99999+99999999999ADDGP10060000001000000001000000001000GR100600000900009
0071703160256242000120901009+55200-162717NSRDB+002999999V020999999999999999999999999999+99999+99999999999ADDGP10060004801024000001027004801024GQ100600813920489GR100600214914109
040070316025624200012090353C+55200-162717FM-15+0029CDB  V0201205N02015057915MN0080005N1+00675+00505099855ADDAA101000025GD14995+0057959GF108991999999999999999999MA1099835999999MW1101MW2455MW3615OC102621REMMET109PACD 090353Z 12039G51KT 5SM -RA BR OVC019 07/05 A2948 RMK AO2 PK WND 12051/0350 RAB50 SLP985 P0000 T00670050;EQDQ01+000003PRSWM1Q02    003PRSWM1N01 02070JPWTH 0QNNAA1D0 06019BA1 0 06019GA1 0 00190KA1D0 00041JA1 0 00050LA1 0 00500CA1 0 02948NA1 0 02070QA1 0 09985SA1D0 00044RA1 0 00067YA1 0 12039
0054703160256242000121011009+55200-162717NSRDB+002999999V020999999999999999999999999999+99999+99999999999ADDGP10060000001000000001000000001000GR100600000900009
0200703160256242000121100464+55190-162720FM-16+0031PACD V0201401N011810084019N0144841N1+00301+00201999999ADDGD14991+0084019GF108991999999999999999999MA1099221999999MW1611OC101591REMMET083PACD 110046Z 14023G31KT 9SM -RA OVC028 03/02 A2930 RMK AO2 PK WND 13034/0015 P0001;EQDQ01+000003PRSWM1Q02    003PRSWM1
044670316025624200012132053C+55200-162717FM-15+0029CDB  V0200105N00575002445MN0032005N1+00065+00005097925ADDAA101000595AA203002091GD13995+0024459GD24995+0048859GF108991999999999999999999MA1097905999999MD1610391+9999MW1101MW2455MW3715REMMET101PACD 132053Z 01011KT 2SM -SN BR BKN008 OVC016 01/00 A2891 RMK AO2 SLP792 P0002 60008 T00060000 56039;EQDQ01+000003PRSWM1Q02    003PRSWM1N01 04070JPWTH 0QNNAA1D0 04008BA1 0 04008AA1D0 06016BA1 0 06016GA1 0 00008KA1D0 00032JA1 0 00000LA1 0 00200CA1 0 02891NA1 0 04070QA1 0 09792SA1D0 00033RA1 0 00006YA1 0 01011
0222703160256242000121403324+55190-162720FM-16+0031PACD V0202501N007710033019N0096561N1+00101+00101999999ADDGD12991+0018019GD23991+0033019GD34991+0060019GF108991999999999999999999MA1098101999999MW1101MW2611MW3711REMMET087PACD 140332Z 25015KT 6SM -RASN BR SCT006 BKN011 OVC020 01/01 A2897 RMK AO2 RAB07 P0000;EQDQ01+000003PRSWM1
0071703160256242000121621009+55200-162717NSRDB+002999999V020999999999999999999999999999+99999+99999999999ADDGP10060007501024005301027006901024GQ100600837914879GR100600154914139
0191703160256242000121707304+55190-162720FM-15+0031PACD V0202301N002610069019N0160931N1+00001-00201999999ADDGD12991+0030019GD23991+0069019GD34991+0120019GF108991999999999999999999MA1097221999999MW1001REMMET068PACD 170730Z 23005KT 10SM FEW010 BKN023 OVC040 00/M02 A2871 RMK AO2;EQDQ01+000000PRSWM2
0303703160256242000121711534+55190-162720FM-15+0031PACD V0202501N007210069019N0144841N1+00001-00101097021ADDAA101000021AA206000021AA324001391GD12991+0042019GD23991+0069019GF107991999999999999999999KA1999M+00061KA2999N-00111MA1097021999999MD1610101+9999MW1001REMMET122PACD 171153Z 25014KT 9SM FEW014 BKN023 00/M01 A2865 RMK AO2 SNB37E49 SLP702 P0000 60000 70005 T00001006 10006 21011 56010;EQDQ01+000000PRSWM2
0299703160256242000121721023+55190-162720FM-16+0031PACD V0202401N015910144019N0144841N1+00101-00101999999ADDGD12991+0060019GD22991+0105019GD33991+0144019GF107991999999999999999999GP10060006101024007301027005301024GQ100600838914879GR100600152914139MA1097601999999MW1001OC102311REMMET100PACD 172102Z 24031G45KT 9SM FEW020 SCT035 BKN048 01/M01 A2882 RMK AO2 PK WND 24045/2056 SNE01 P0000;EQDQ01+000000PRSWM2
032670316025624200012201553C+55200-162717FM-15+0029CDB  V0201505N00215220005MN0160005N1+00005-00285098925ADDAA101000095GD12995+0182959GF104991999999999999999999MA1098925999999MW1001REMMET071PACD 201553Z 15004KT 10SM SCT060 00/M03 A2921 RMK AO2 SLP892 T00001028;EQDQ01+000000PRSWM2N01 00000JPWTH 0QNNAA1D0 02060BA1 0 02060GA1U0 99999KA1D0 00027JA1 0-00028LA1 0 01000CA1 0 02921NA1 0 00000QA1 0 09892SA1D0 00032RA1 0 00000YA1 0 15004
0071703160256242000122102009+55200-162717NSRDB+002999999V020999999999999999999999999999+99999+99999999999ADDGP10060004701024029901027002501024GQ100600857921659GR100600106914149
0071703160256242000122203009+55200-162717NSRDB+002999999V020999999999999999999999999999+99999+99999999999ADDGP10060000101024000001027000101024GQ100600891922489GR100600008904839
0296703160256242000122215073+55190-162720FM-16+0031PACD V0200601N009310108019N0160931N1+00401+00101999999ADDGD12991+0057019GD23991+0108019GD34991+0135019GF108991999999999999999999GP10060000001000000001000000001000GR100600000900009MA1099051999999MW1611OC101341REMMET098PACD 221507Z 06018G26KT 10SM -RA FEW019 BKN036 OVC045 04/01 A2925 RMK AO2 PK WND 06026/1507 P0000;EQDQ01+000003PRSWM1Q02    003PRSWM1
0071703160256242000122220009+55200-162717NSRDB+002999999V020999999999999999999999999999+99999+99999999999ADDGP10060001501024004801027001301024GQ100600882913739GR100600031909789
0447703160256242000122313003+55200-162717FM-15+0029CDB  V0200605N00315008535MN0160005N1+00285+00115098185ADDAA101000095GD12995+0064059GD23995+0085359GD34995+0109759GF107991999999999999999999GP10060000001000000001000000001000GR100600000900009MA1098175999999MW1001REMMET067PACD 231300Z 04006KT 10SM FEW021 SCT026 BKN036 03/01 A2899 RMK AO2;EQDQ01+000000PRSWM2N01 00000JPWTH 0QNNAA1D0 02021BA1 0 02021AA1D0 04028BA1 0 04028AA1D0 06036BA1 0 06036GA1 0 00028KA1D0 00034JA1 0 00011LA1 0 01000CA1 0 02899NA1 0 00000QA1 0 09818SA1D0 00037RA1 0 00028YA1 0 06006
050170316025624200012240853C+55200-162717FM-15+0029CDB  V0200805N01035025915MN0160005N1+00395+00005098315ADDAA101000095AA203000591GD11995+0137259GD22995+0152459GD33995+0259159GF107991999999999999999999KA1999M+00441KA2999N+00171MA1098315999999MD1810011+9999MW1001OC101291REMMET113PACD 240853Z COR 08020G25KT 10SM FEW045 SCT050 BKN085 04/00 A2903 RMK AO2 SLP831 60002 T00390000 400440017 58001;EQDQ01+000000PRSWM2N01 00000JPWTH 0QNNAA1D0 02045BA1 0 01045AA1D0 02050BA1 0 02050AA1D0 04085BA1 0 04085GA1 0 00085KA1D0 00032JA1 0 00000LA1 0 01000CA1 0 02903NA1 0 00000QA1 0 09831SA1D0 00039RA1 0 00039YA1 0 08020
0231703160256242000122806354+55190-162720FM-16+0031PACD V0201401N011310114019N0160931N1+00401+00301999999ADDGD12991+0054019GD23991+0114019GD34991+0150019GF108991999999999999999999MA1097431999999MW1001OC101341REMMET100PACD 280635Z 14022G26KT 10SM SCT018 BKN038 OVC055 04/03 A2877 RMK AO2 PK WND 13026/0635 RAE24 P0001;EQDQ01+000000PRSWM2
0216703160256242000122818084+55190-162720FM-16+0031PACD V0200301N006210093019N0160931N1+00201+00101999999ADDGD12991+0063019GD23991+0093019GD34991+0180019GF108991999999999999999999MA1097531999999MW1611REMMET077PACD 281808Z 03012KT 10SM -RA FEW021 BKN031 OVC065 02/01 A2880 RMK AO2 P0000;EQDQ01+000003PRSWM1Q02    003PRSWM1
0206703165999992000011723154+55320-160520FM-15+0007PASD V0202001N008210030019N0032181N1+00301+00201999999ADDGD12991+0015019GD23991+0030019GD34991+0048019GF108991999999999999999999MA1102031999999MW1001REMMET083PASD 172315Z 20016KT 2SM SCT005 BKN010 OVC016 03/02 A3013 RMK AO1 WEA: -RA BR TSNO;EQDQ01+000000PRSWM2
0211703165999992000012815003+55320-160520FM-15+0007PASD V0203601N008212200019N0160931N1-00901-01301999999ADDGF100991999999999999999999GP10060000001000000001000000001000GR100600000900009MA1099731999999MD1210301+9999MW1001REMMET068PASD 281455Z AUTO 36016KT 10SM CLR M09/M13 A2945 RMK AO1 52030 TSNO;EQDQ01+000000PRSWM2
0243703165999992000020211003+55320-160520FM-15+0007PASD V0201701N017510054019N0040231N1+00401+00201999999ADDGD12991+0003019GD24991+0054019GF108991999999999999999999GP10060000001000000001000000001000GR100600000900009MA1096681999999MW1001OC102311REMMET076PASD 021055Z AUTO 17034G45KT 2 1/2SM SCT001 OVC018 04/02 A2855 RMK AO1 TSNO;EQDQ01+000000PRSWM2
0229703165999992000021317003+55320-160520FM-15+0007PASD V0201001N001510027019N0160931N1+00201+00001999999ADDGD13991+0027019GD24991+0045019GF108991999999999999999999GP10060000001000000001000000001000GR100600000900009MA1100881999999MW1001REMMET070PASD 131655Z AUTO 10003KT 10SM BKN009 OVC015 02/00 A2979 RMK AO1 TSNO;EQDQ01+000000PRSWM2
0208703165999992000021413003+55320-160520FM-15+0007PASD V0209999C000010141019N0160931N1+00101-00201999999ADDGD14991+0141019GF108991999999999999999999GP10060000001000000001000000001000GR100600000900009MA1100471999999MW1001REMMET064PASD 141255Z AUTO 00000KT 10SM OVC047 01/M02 A2967 RMK AO1 TSNO;EQDQ01+000000PRSWM2
0251703165999992000021919003+55320-160520FM-15+0007PASD V0209999C000010180019N0160931N1+00201+00001999999ADDGD12991+0144019GD24991+0180019GF108991999999999999999999GP10060001401025000001028001401025GQ100600863911589GR100600091914009MA1098041999999MW1001REMMET075PASD 191855Z 00000KT 10SM FEW048 OVC060 02/00 A2895 RMK AO1 WEA: NONE TSNO;EQDQ01+000000PRSWM2
0229703165999992000021922003+55320-160520FM-15+0007PASD V0202001N002112200019N0160931N1+00201+00001999999ADDGD12991+0057019GF104991999999999999999999GP10060017901025015401028012401025GQ100600690915749GR100600501914009MA1098311999999MW1001REMMET068PASD 192155Z 20004KT 10SM SCT019 02/00 A2903 RMK AO1 WEA: NONE TSNO;EQDQ01+000000PRSWM2
0247703165999992000022014003+55320-160520FM-15+0007PASD V0209999C000010078019N0160931N1+00101-00201999999ADDAA101000391GD13991+0078019GD24991+0096019GF108991999999999999999999GP10060000001000000001000000001000GR100600000900009MA1098681999999MW1001REMMET077PASD 201355Z AUTO 00000KT 10SM BKN026 OVC032 01/M02 A2914 RMK AO1 P0001 TSNO;EQDQ01+000000PRSWM2
0209703165999992000022611003+55320-160520FM-15+0007PASD V0201601N003612200019N0160931N1-00101-00601999999ADDGD12991+0099019GF102991999999999999999999GP10060000001000000001000000001000GR100600000900009MA1100071999999MW1001REMMET065PASD 261055Z AUTO 16007KT 10SM FEW033 M01/M06 A2955 RMK AO1 TSNO;EQDQ01+000000PRSWM2
0217703165999992000022922354+55320-160520FM-15+0007PASD V0200301N006710072019N0096561N1+00101-00301999999ADDGD12991+0048019GD23991+0072019GD34991+0138019GF108991999999999999999999MA1098241999999MW1001OC101081REMMET086PASD 292335Z 03013G21KT 6SM FEW016 BKN024 OVC046 01/M03 A2901 RMK AO1 WEA: -SHSN TSNO;EQDQ01+000000PRSWM2
0291703165999992000030303003+55320-160520FM-15+0007PASD V0201801N006210051019N0096561N1+00201+00101999999ADDGD12991+0027019GD23991+0051019GD34991+0120019GF108991999999999999999999GP10060006301025000001028006301025GQ100600764923579GR100600328913929MA1097021999999MD1210071+9999MW1001REMMET086PASD 030255Z 18012KT 6SM FEW009 BKN017 OVC040 02/01 A2865 RMK AO1 WEA: -RA 52007 TSNO;EQDQ01+000000PRSWM2
0251703165999992000031008003+55320-160520FM-15+0007PASD V0201101N001510057019N0160931N1+00301+00101999999ADDGD12991+0036019GD23991+0057019GD34991+0099019GF108991999999999999999999GP10060000001000000001000000001000GR100600000900009MA1100541999999MW1001REMMET077PASD 100755Z AUTO 11003KT 10SM SCT012 BKN019 OVC033 03/01 A2969 RMK AO1 TSNO;EQDQ01+000000PRSWM2
0252703165999992000031208003+55320-160520FM-15+0007PASD V0201601N002610054019N0160931N1+00201-00101999999ADDGD13991+0054019GD23991+0069019GD34991+0102019GF108991999999999999999999GP10060000001000000001000000001000GR100600000900009MA1100201999999MW1001REMMET078PASD 120755Z AUTO 16005KT 10SM BKN018 BKN023 OVC034 02/M01 A2959 RMK AO1 TSNO;EQDQ01+000000PRSWM2
0250703165999992000031615003+55320-160520FM-15+0007PASD V0202801N002110150019N0160931N1+00201-00101999999ADDGD12991+0081019GD24991+0150019GF108991999999999999999999GP10060000001000000001000000001000GR100600000900009MA1098411999999MD1210031+9999MW1001REMMET077PASD 161455Z AUTO 28004KT 10SM SCT027 OVC050 02/M01 A2906 RMK AO1 52003 TSNO;EQDQ01+000000PRSWM2
0208703165999992000032713003+55320-160520FM-15+0007PASD V0209999C000012200019N0160931N1-00401-00901999999ADDAA101001891GF100991999999999999999999GP10060000001000000001000000001000GR100600000900009MA1100271999999MW1001REMMET068PASD 271255Z AUTO 00000KT 10SM CLR M04/M09 A2961 RMK AO1 P0007 TSNO;EQDQ01+000000PRSWM2
0242703165999992000032723554+55320-160520FM-15+0007PASD V0200101N007210102019N0160931N1-00401-01101999999ADDGD14991+0102019GF108991999999999999999999KA1999M-00301KA2999N-00401MA1100201999999MD1210101+9999MW1001OC100931REMMET101PASD 272355Z 01014G18KT 10SM OVC034 M04/M11 A2959 RMK AO1 WEA: NONE 11030 21040 410201060 52010 TSNO;EQDQ01+000000PRSWM2
0250703165999992000040615003+55320-160520FM-15+0007PASD V0203401N003612200019N0160931N1+00001-00201999999ADDGD12991+0048019GD22991+0138019GF104991999999999999999999GP10060000001000000001000000001000GR100600000900009MA1101021999999MD1710071+9999MW1001REMMET077PASD 061455Z AUTO 34007KT 10SM FEW016 SCT046 00/M02 A2983 RMK AO1 57007 TSNO;EQDQ01+000000PRSWM2
0263703165999992000040910003+55320-160520FM-15+0007PASD V0201601N005110135019N0160931N1+00201-00101999999ADDGD12991+0045019GD22991+0078019GD34991+0135019GF108991999999999999999999GP10060000001000000001000000001000GR100600000900009MA1101521999999MW1001OC100771REMMET081PASD 090955Z AUTO 16010G15KT 10SM FEW015 SCT026 OVC045 02/M01 A2998 RMK AO1 TSNO;EQDQ01+000000PRSWM2
0279703165999992000041411003+55320-160520FM-15+0007PASD V0201601N004610042019N0160931N1+00201+00101999999ADDAA101000391GD13991+0042019GD23991+0075019GD34991+0105019GF108991999999999999999999GP10060000001000000001000000001000GR100600000900009MA1101731999999MW1001OC100771REMMET086PASD 141055Z AUTO 16009G15KT 10SM BKN014 BKN025 OVC035 02/01 A3004 RMK AO1 P0001 TSNO;EQDQ01+000000PRSWM2
0276703165999992000041920003+55320-160520FM-15+0007PASD V0200301N002610024019N0144841N1+00201+00101999999ADDGD12991+0006019GD23991+0024019GD34991+0045019GF108991999999999999999999GP10060012801025000001028012801025GQ100600574912069GR100600728913549MA1098271999999MW1001REMMET085PASD 191955Z 03005KT 9SM FEW002 BKN008 OVC015 02/01 A2902 RMK AO1 WEA: -SHRA BR TSNO;EQDQ01+000000PRSWM2
0071703165999992000042306009+55317-160517NSRDB+000799999V020999999999999999999999999999+99999+99999999999ADDGP10060002301025004101028002001025GQ100600863928739GR100600088913529
0071703165999992000042606009+55317-160517NSRDB+000799999V020999999999999999999999999999+99999+99999999999ADDGP10060003501025005501028003101025GQ100600856928809GR100600105913499
0207703165999992000050110003+55320-160520FM-15+0007PASD V0200101N004110180019N0160931N1+00401+00001999999ADDGD13991+0180019GF107991999999999999999999GP10060000001000000001000000001000GR100600000900009MA1099861999999MW1001REMMET063PASD 010955Z AUTO 01008KT 10SM BKN060 04/00 A2949 RMK AO1 TSNO;EQDQ01+000000PRSWM2
0210703165999992000050409003+55320-160520FM-15+0007PASD V0200101N005712200019N0160931N1+00101-00401999999ADDGF100991999999999999999999GP10060000001000000001000000001000GR100600000900009MA1101731999999MD1210071+9999MW1001REMMET067PASD 040855Z AUTO 01011KT 10SM CLR 01/M04 A3004 RMK AO1 52007 TSNO;EQDQ01+000000PRSWM2
0207703165999992000050716003+55320-160520FM-15+0007PASD V0203201N003112200019N0160931N1+00201-00101999999ADDGF100991999999999999999999GP10060004201025022601028002301025GQ100600852906649GR100600113913419MA1101351999999MW1001REMMET061PASD 071555Z AUTO 32006KT 10SM CLR 02/M01 A2993 RMK AO1 TSNO;EQDQ01+000000PRSWM2
0071703165999992000050918009+55317-160517NSRDB+000799999V020999999999999999999999999999+99999+99999999999ADDGP10060031001025064701028007101025GQ100600683909029GR100600495913409
0173703165999992000051021154+55320-160520FM-15+0007PASD V0203301N008710069019N0160931N1+00501-00201999999ADDGD13991+0069019GF107991999999999999999999MA1103121999999MW1001OC101231REMMET072PASD 102115Z 33017G24KT 10SM BKN023 05/M02 A3045 RMK AO1 WEA: NONE TSNO;EQDQ01+000000PRSWM2
0248703165999992000051609003+55320-160520FM-15+0007PASD V0201501N002110045019N0080461N1+00301+00101999999ADDGD12991+0003019GD24991+0045019GF108991999999999999999999GP10060000001000000001000000001000GR100600000900009MA1100141999999MD1410001+9999MW1001REMMET075PASD 160855Z AUTO 15004KT 5SM FEW001 OVC015 03/01 A2957 RMK AO1 54000 TSNO;EQDQ01+000000PRSWM2
0204703165999992000051621154+55320-160520FM-15+0007PASD V0201101N002110048019N0112651N1+00601+00301999999ADDGD13991+0048019GD23991+0063019GD34991+0078019GF108991999999999999999999MA1100001999999MW1001REMMET081PASD 162115Z 11004KT 7SM BKN016 BKN021 OVC026 06/03 A2953 RMK AO1 WEA: NONE TSNO;EQDQ01+000000PRSWM2
0224703165999992000052507003+55320-160520FM-15+0007PASD V0201601N001510132019N0160931N1+00501+00001999999ADDGD14991+0132019GF108991999999999999999999GP10060001101025000001028001101025GQ100600869930429GR100600071913209MA1102541999999MW1001REMMET063PASD 250655Z AUTO 16003KT 10SM OVC044 05/00 A3028 RMK AO1 TSNO;EQDQ01+000000PRSWM2
0232703165999992000052621003+55320-160520FM-15+0007PASD V0200101N005712200019N0160931N1+00701-00201999999ADDGF100991999999999999999999GP10060075801025087901028010201025GQ100600418913179GR100600992913319MA1102401999999MD1410001+9999MW1001REMMET072PASD 262055Z 01011KT 10SM CLR 07/M02 A3024 RMK AO1 WEA: NONE 54000 TSNO;EQDQ01+000000PRSWM2
0232703165999992000052821003+55320-160520FM-15+0007PASD V0200301N004612200019N0160931N1+00601-00101999999ADDGF100991999999999999999999GP10060073401025075501028016901025GQ100600415913149GR100600995913309MA1102511999999MD1710031+9999MW1001REMMET072PASD 282055Z 03009KT 10SM CLR 06/M01 A3027 RMK AO1 WEA: NONE 57003 TSNO;EQDQ01+000000PRSWM2
0250703165999992000060313003+55320-160520FM-15+0007PASD V0200901N001510090019N0112651N1+00601+00401999999ADDGD12991+0039019GD23991+0090019GD34991+0114019GF108991999999999999999999GP10060000001000000001000000001000GR100600000900009MA1101661999999MW1001REMMET076PASD 031255Z AUTO 09003KT 7SM SCT013 BKN030 OVC038 06/04 A3002 RMK AO1 TSNO;EQDQ01+000000PRSWM2
0336703165999992000060712003+55320-160520FM-15+0007PASD V0201901N008210060019N0080461N1+00601+00401999999ADDAA106000891GD12991+0045019GD23991+0060019GD34991+0084019GF108991999999999999999999GP10060000001000000001000000001000GR100600000900009KA1999M+00701KA2999N+00601MA1098711999999MD1710101+9999MW1001OC101031REMMET103PASD 071155Z AUTO 19016G20KT 5SM SCT015 BKN020 OVC028 06/04 A2915 RMK AO1 60003 10070 20060 57010 TSNO;EQDQ01+000000PRSWM2
0284703165999992000061321003+55320-160520FM-15+0007PASD V0200301N004610048019N0080461N1+00701+00501999999ADDGD12991+0036019GD23991+0048019GD34991+0066019GF108991999999999999999999GP10060021701025000001028021701025GQ100600403912939GR100601009913249MA1099661999999MW1001OC100721REMMET085PASD 132055Z 03009G14KT 5SM SCT012 BKN016 OVC022 07/05 A2943 RMK AO1 WEA: -SHRA TSNO;EQDQ01+000000PRSWM2
0286703165999992000062212003+55320-160520FM-15+0007PASD V0200501N001510024019N0128741N1+00701+00601999999ADDGD13991+0024019GD24991+0039019GF108991999999999999999999GP10060000001000000001000000001000GR100600000900009KA1999M+00801KA2999N+00701MA1101461999999MD1210031+9999MW1001REMMET087PASD 221155Z AUTO 05003KT 8SM BKN008 OVC013 07/06 A2996 RMK AO1 10080 20070 52003 TSNO;EQDQ01+000000PRSWM2
0246703165999992000062505003+55320-160520FM-15+0007PASD V0209999C000010360019N0160931N1+00901+00601999999ADDGD12991+0240019GD23991+0360019GF107991999999999999999999GP10060010601025003101028009501025GQ100600689928099GR100600476913229MA1101461999999MW1001REMMET070PASD 250455Z AUTO 00000KT 10SM FEW080 BKN120 09/06 A2996 RMK AO1 TSNO;EQDQ01+000000PRSWM2
0309703165999992000062518003+55320-160520FM-15+0007PASD V0200501N002610123019N0160931N1+01101+00401999999ADDGD12991+0093019GD23991+0123019GF107991999999999999999999GP10060015901025000001028015901025GQ100600646908519GR100600567913229KA1999M+01101KA2999N+00801MA1102071999999MD1210171+9999MW1001REMMET093PASD 251755Z 05005KT 10SM SCT031 BKN041 11/04 A3014 RMK AO1 WEA: NONE 10110 20080 52017 TSNO;EQDQ01+000000PRSWM2
0071703165999992000062702009+55317-160517NSRDB+000799999V020999999999999999999999999999+99999+99999999999ADDGP10060020501025000001028020501025GQ100600441924039GR100600948913229
0229703165999992000062719003+55320-160520FM-15+0007PASD V0201701N003610039019N0160931N1+00801+00601999999ADDGD14991+0039019GF108991999999999999999999GP10060012601025000001028012601025GQ100600562909769GR100600734913229MA1102201999999MW1001REMMET068PASD 271855Z 17007KT 10SM OVC013 08/06 A3018 RMK AO1 WEA: NONE TSNO;EQDQ01+000000PRSWM2
0297703165999992000062900003+55320-160520FM-15+0007PASD V0203601N005112200019N0160931N1+01701+00401999999ADDGD12991+0300019GF102991999999999999999999GP10060073501025064401028019601025GQ100600333919889GR100601105913229KA1999M+01701KA2999N+01201MA1101931999999MD1410001+9999MW1001REMMET096PASD 282355Z 36010KT 10SM FEW100 17/04 A3010 RMK AO1 WEA: NONE 10170 20120 401700090 54000 TSNO;EQDQ01+000000PRSWM2
0251703165999992000063001003+55320-160520FM-15+0007PASD V0202001N001510270019N0160931N1+01401+00301999999ADDGD12991+0180019GD23991+0270019GF107991999999999999999999GP10060027601025005701028023101025GQ100600376922149GR100601047913219MA1101931999999MW1001REMMET075PASD 300055Z 20003KT 10SM FEW065 BKN090 14/03 A3010 RMK AO1 WEA: NONE TSNO;EQDQ01+000000PRSWM2
0271703165999992000070422003+55320-160520FM-15+0007PASD V0200601N002110057019N0048281N1+00901+00801999999ADDAA101002891GD12991+0024019GD24991+0057019GF108991999999999999999999GP10060022801025000001028022801025GQ100600356914889GR100601074913219MA1101421999999MW1001REMMET084PASD 042155Z 06004KT 3SM FEW008 OVC019 09/08 A2995 RMK AO1 WEA: -SHRA BR P0011 TSNO;EQDQ01+000000PRSWM2
0268703165999992000070907003+55320-160520FM-15+0007PASD V0202901N003610132019N0160931N1+01001+00701999999ADDGD12991+0087019GD22991+0108019GD33991+0132019GF107991999999999999999999GP10060002401025000901028002401025GQ100600850930329GR100600116913219MA1101861999999MW1001REMMET077PASD 090655Z AUTO 29007KT 10SM FEW029 SCT036 BKN044 10/07 A3008 RMK AO1 TSNO;EQDQ01+000000PRSWM2
0277703165999992000071505003+55320-160520FM-15+0007PASD V0201501N004110033019N0024141N1+01001+00801999999ADDAA101002891GD13991+0033019GD24991+0054019GF108991999999999999999999GP10060006401025000001028006401025GQ100600699927919GR100600454913229MA1101051999999MW1001OC100721REMMET082PASD 150455Z AUTO 15008G14KT 1 1/2SM BKN011 OVC018 10/08 A2984 RMK AO1 P0011 TSNO;EQDQ01+000000PRSWM2
0224703165999992000071817003+55320-160520FM-15+0007PASD V0203001N001510030019N0160931N1+00801+00601999999ADDGD14991+0030019GF108991999999999999999999GP10060005101025000001028005101025GQ100600754907429GR100600333913239MA1101591999999MW1001REMMET063PASD 181655Z AUTO 30003KT 10SM OVC010 08/06 A3000 RMK AO1 TSNO;EQDQ01+000000PRSWM2
0246703165999992000072123003+55320-160520FM-15+0007PASD V0203301N003110123019N0160931N1+01301+00701999999ADDGD13991+0123019GD24991+0147019GF108991999999999999999999GP10060023701025000001028023701025GQ100600354917259GR100601079913239MA1100781999999MW1001REMMET070PASD 212255Z AUTO 33006KT 10SM BKN041 OVC049 13/07 A2976 RMK AO1 TSNO;EQDQ01+000000PRSWM2
0251703165999992000072508003+55320-160520FM-15+0007PASD V0200301N002610150019N0160931N1+01001+00801999999ADDGD12991+0090019GD22991+0126019GD33991+0150019GF107991999999999999999999GP10060000001000000001000000001000GR100600000900009MA1101761999999MW1001REMMET077PASD 250755Z AUTO 03005KT 10SM FEW030 SCT042 BKN050 10/08 A3005 RMK AO1 TSNO;EQDQ01+000000PRSWM2
0211703165999992000072619003+55320-160520FM-15+0007PASD V0203201N007712200019N0160931N1+01201+00501999999ADDGF100991999999999999999999GP10060045401025073501028008601025GQ100600599909979GR100600663913249MA1101861999999MW1001REMMET065PASD 261855Z 32015KT 10SM CLR 12/05 A3008 RMK AO1 WEA: NONE TSNO;EQDQ01+000000PRSWM2
0229703165999992000080108003+55320-160520FM-15+0007PASD V0201701N003110042019N0160931N1+01201+00901999999ADDGD12991+0021019GD24991+0042019GF108991999999999999999999GP10060000001000000001000000001000GR100600000900009MA1100851999999MW1001REMMET070PASD 010755Z AUTO 17006KT 10SM FEW007 OVC014 12/09 A2978 RMK AO1 TSNO;EQDQ01+000000PRSWM2
0143703165999992000080918154+55320-160520FM-15+0007PASD V0203201N004112200019N0160931N1+01101+00601999999ADDGF100991999999999999999999MA1103121999999MW1001REMMET065PASD 091815Z 32008KT 10SM CLR 11/06 A3045 RMK AO1 WEA: NONE TSNO;EQDQ01+000000PRSWM2
0262703165999992000082605003+55320-160520FM-15+0007PASD V0201601N006210006019N0048281N1+01101+01001999999ADDAA101001391GD13991+0006019GD24991+0030019GF108991999999999999999999GP10060003201025000001028003201025GQ100600795927319GR100600244913389MA1101831999999MW1001REMMET075PASD 260455Z AUTO 16012KT 3SM BKN002 OVC010 11/10 A3007 RMK AO1 P0005 TSNO;EQDQ01+000000PRSWM2
0282703165999992000082806003+55320-160520FM-15+0007PASD V0201801N004610036019N0160931N1+01201+01001999999ADDGD14991+0036019GF108991999999999999999999GP10060000501025000001028000501025GQ100600872928339GR100600047909719KA1999M+01401KA2999N+01201MA1101421999999MD1410001+9999MW1001REMMET081PASD 280555Z AUTO 18009KT 10SM OVC012 12/10 A2995 RMK AO1 10140 20120 54000 TSNO;EQDQ01+000000PRSWM2
0291703165999992000083022003+55320-160520FM-15+0007PASD V0201501N002610210019N0160931N1+01101+00901999999ADDAA101000591GD12991+0132019GD22991+0150019GD33991+0210019GF107991999999999999999999GP10060038601025006701028034201025GQ100600489915609GR100600881913419MA1102951999999MW1001REMMET089PASD 302155Z 15005KT 10SM FEW044 FEW050 BKN070 11/09 A3040 RMK AO1 WEA: -SHRA P0002 TSNO;EQDQ01+000000PRSWM2
0284703165999992000083105003+55320-160520FM-15+0007PASD V0209999C000010054019N0048281N1+01001+00801999999ADDAA101004191GD12991+0030019GD23991+0054019GD34991+0072019GF108991999999999999999999GP10060002901025000001028002901025GQ100600811927239GR100600207913419MA1102401999999MW1001REMMET082PASD 310455Z AUTO 00000KT 3SM FEW010 BKN018 OVC024 10/08 A3024 RMK AO1 P0016 TSNO;EQDQ01+000000PRSWM2
0211703165999992000090319003+55320-160520FM-15+0007PASD V0203601N003612200019N0160931N1+01001+00401999999ADDGF100991999999999999999999GP10060031801025074701028004801025GQ100600688910899GR100600486913449MA1101421999999MW1001REMMET065PASD 031855Z 36007KT 10SM CLR 10/04 A2995 RMK AO1 WEA: NONE TSNO;EQDQ01+000000PRSWM2
0071703165999992000090400009+55317-160517NSRDB+000799999V020999999999999999999999999999+99999+99999999999ADDGP10060054301025068901028009301025GQ100600492919619GR100600877913449
0293703165999992000090506003+55320-160520FM-15+0007PASD V0202001N007210066019N0160931N1+01001+00601999999ADDGD14991+0066019GF108991999999999999999999GP10060000101025000001028000101025GQ100600885928029GR100600014905279KA1999M+01101KA2999N+01001MA1101151999999MD1710141+9999MW1001OC101181REMMET084PASD 050555Z AUTO 20014G23KT 10SM OVC022 10/06 A2987 RMK AO1 10110 20100 57014 TSNO;EQDQ01+000000PRSWM2
0304703165999992000090621003+55320-160520FM-15+0007PASD V0203201N010310090019N0160931N1+01201+00601999999ADDGD12991+0069019GD23991+0090019GD34991+0150019GF108991999999999999999999GP10060016401025000001028016401025GQ100600557913979GR100600758913469MA1101321999999MD1210141+9999MW1001OC101341REMMET091PASD 062055Z 32020G26KT 10SM SCT023 BKN030 OVC050 12/06 A2992 RMK AO1 WEA: NONE 52014 TSNO;EQDQ01+000000PRSWM2
0224703165999992000091917003+55320-160520FM-15+0007PASD V0200601N002610042019N0160931N1+00901+00601999999ADDGD14991+0042019GF108991999999999999999999GP10060000401025000001028000401025GQ100600878909079GR100600031908029MA1101631999999MW1001REMMET063PASD 191655Z AUTO 06005KT 10SM OVC014 09/06 A3001 RMK AO1 TSNO;EQDQ01+000000PRSWM2
0272703165999992000092120003+55320-160520FM-15+0007PASD V0202901N003110102019N0144841N1+01101+00701999999ADDGD12991+0042019GD23991+0102019GD34991+0129019GF108991999999999999999999GP10060010301025000001028010301025GQ100600665912819GR100600540913579MA1101291999999MW1001REMMET081PASD 211955Z 29006KT 9SM FEW014 BKN034 OVC043 11/07 A2991 RMK AO1 WEA: NONE TSNO;EQDQ01+000000PRSWM2
0229703165999992000092222003+55320-160520FM-15+0007PASD V0200301N004110063019N0112651N1+00901+00601999999ADDGD14991+0063019GF108991999999999999999999GP10060015401025000001028015401025GQ100600570916079GR100600739913579MA1101561999999MW1001REMMET068PASD 222155Z 03008KT 7SM OVC021 09/06 A2999 RMK AO1 WEA: -SHRA TSNO;EQDQ01+000000PRSWM2
0229703165999992000092523003+55320-160520FM-15+0007PASD V0200601N002110087019N0160931N1+01301+00801999999ADDGD14991+0087019GF108991999999999999999999GP10060016301025000001028016301025GQ100600567917909GR100600747913609MA1101491999999MW1001REMMET068PASD 252255Z 06004KT 10SM OVC029 13/08 A2997 RMK AO1 WEA: NONE TSNO;EQDQ01+000000PRSWM2
0189703165999992000092807003+55320-160520FM-15+0007PASD V0203601N012312200019N0160931N1+00701+00001999999ADDGF100991999999999999999999GP10060000001000000001000000001000GR100600000900009MA1101321999999MW1001REMMET060PASD 280655Z AUTO 36024KT 10SM CLR 07/00 A2992 RMK AO1 TSNO;EQDQ01+000000PRSWM2
0229703165999992000093001003+55320-160520FM-15+0007PASD V0200101N007712200019N0160931N1+00901+00301999999ADDGD12991+0084019GF102991999999999999999999GP10060040101025070901028008001025GQ100600631921349GR100600618913639MA1101931999999MW1001REMMET068PASD 300055Z 01015KT 10SM FEW028 09/03 A3010 RMK AO1 WEA: NONE TSNO;EQDQ01+000000PRSWM2
0262703165999992000100711003+55320-160520FM-15+0007PASD V0203301N015410072019N0080461N1+00101-00301999999ADDGD12991+0018019GD22991+0045019GD33991+0072019GF107991999999999999999999GP10060000001000000001000000001000GR100600000900009MA1099361999999MW1001OC101851REMMET080PASD 071055Z AUTO 33030G36KT 5SM FEW006 SCT015 BKN024 01/M03 A2934 RMK AO1 TSNO;EQDQ01+000000PRSWM2
