0186475420999992000020400004+40730+140700FM-15+0201RJSA V0202301N004612200019N0112651N1-00101-00301999999ADDGA1021+004509999GA2021+010509999GF104991999999999999999999MA1101591999999MW1001REMMET076RJSA 0000Z 23009KT 9999 FEW015 SCT035 M01/M03 Q1016 RMK 1ST015 3CU035 A3003;EQDQ01+000000PRSWM2
0216475420999992000021104004+40730+140700FM-15+0201RJSA V0202801N008210120019N0112651N1+00201-00601999999ADDGA1021+007509999GA2071+012009999GA3071+999999999GF107991999999999999999999MA1100611999999MW1001REMMET090RJSA 0400Z 28016KT 250V310 9999 FEW025 BKN040 BKN/// 02/M06 Q1006 RMK 1CU025 5CU040 A2973;EQDQ01+000000PRSWM2
0243475420999992000021701004+40730+140700FM-15+0201RJSA V0202301N007710060019N0090001N1-00401-00601999999ADDGA1021+000909999GA2021+003009999GA3071+006009999GF107991999999999999999999MA1100911999999MW1851REMMET101RJSA 0100Z 23015KT 9000 -SHSN FEW003 SCT010 BKN020 M04/M06 Q1009 RESN RMK 1ST003 3ST010 6CU020 A2981;EQDQ01+000003PRSWM1Q02    003PRSWM1
0238475420999992000021706004+40730+140700FM-15+0201RJSA V0202401N005110060019N0112651N1-00401-00601999999ADDGA1021+001509999GA2021+003009999GA3071+006009999GF107991999999999999999999MA1100911999999MW1851REMMET096RJSA 0600Z 24010KT 9999 -SHSN FEW005 SCT010 BKN020 M04/M06 Q1009 RMK 1ST005 3ST010 6CU020 A2980;EQDQ01+000003PRSWM1Q02    003PRSWM1
0186475420999992000021902004+40730+140700FM-15+0201RJSA V0202501N004110060019N0112651N1-00101-00501999999ADDGA1021+002409999GA2071+006009999GF107991999999999999999999MA1101491999999MW1001REMMET076RJSA 0200Z 25008KT 9999 FEW008 BKN020 M01/M05 Q1015 RMK 1ST008 5CU020 A3000;EQDQ01+000000PRSWM2
0245475420999992000022223074+40730+140700FM-16+0201RJSA V0202601N006210030019N0018001N1-00501-00701999999ADDGA1021+001509999GA2071+003009999GA3071+006009999GF107991999999999999999999MA1101391999999MW1851REMMET103RJSA 222307Z 26012KT 1800 -SHSN FEW005 BKN010 BKN020 M05/M07 Q1014 RESN RMK 1ST005 5ST010 7CU020 A2996;EQDQ01+000003PRSWM1Q02    003PRSWM1
0274475420999992000022406394+40730+140700FM-16+0201RJSA V0202501N009810045019N0010001N1-00501-00801999999ADDED199U18009GA1021+001509999GA2021+003009999GA3071+004509999GF107991999999999999999999MA1100711999999MW1381MW2851REMMET115RJSA 240639Z 25019KT 1000 R24/P1800N -SHSN -BLSN FEW005 SCT010 BKN015 M05/M08 Q1007 RMK 1ST005 3ST010 6ST015 A2974;EQDQ01+000003PRSWM1Q02    003PRSWM1
0198475420999992000022506184+40730+140700FM-16+0201RJSA V0202601N00721000151CN0005001N1-00601-00801999999ADDGA1091+000159999GF109991999999000251999999MA1101291999999MW1381MW2861REMMET082RJSA 250618Z 26014KT 0500 R24/1100VP1800D BLSN SHSN VV004 M06/M08 Q1013 RMK A2994;EQDQ01+000003PRSWM1Q02    003PRSWM1
0240475420999992000022600264+40730+140700FM-16+0201RJSA V0202301N004110090019N0030001N1-00401-00601999999ADDGA1021+003009999GA2021+006009999GA3071+009009999GF107991999999999999999999MA1101491999999MW1851REMMET098RJSA 260026Z 23008KT 3000 -SHSN FEW010 SCT020 BKN030 M04/M06 Q1015 RMK 1ST010 3CU020 6CU030 A3000;EQDQ01+000003PRSWM1Q02    003PRSWM1
0238475420999992000022905004+40730+140700FM-15+0201RJSA V0202401N007210135019N0112651N1-00201-00501999999ADDGA1021+004509999GA2021+010509999GA3071+013509999GF107991999999999999999999MA1101391999999MW1851REMMET096RJSA 0500Z 24014KT 9999 -SHSN FEW015 SCT035 BKN045 M02/M05 Q1014 RMK 1ST015 4CU035 6CU045 A2995;EQDQ01+000003PRSWM1Q02    003PRSWM1
0187475420999992000022909144+40730+140700FM-16+0201RJSA V0202001N00261000151CN0004001N1-00401-00501999999ADDGA1091+000159999GF109991999999000251999999MA1101591999999MW1861REMMET077RJSA 290914Z 20005KT 0400 R24/0800VP1800D SHSN VV002 M04/M05 Q1016 RMK A3000;EQDQ01+000003PRSWM1Q02    003PRSWM1
0186475420999992000030106004+40730+140700FM-15+0201RJSA V0202601N007212200019N0112651N1-00101-00701999999ADDGA1021+006009999GA2021+012009999GF104991999999999999999999MA1102001999999MW1001REMMET076RJSA 0600Z 26014KT 9999 FEW020 SCT040 M01/M07 Q1020 RMK 1CU020 3CU040 A3014;EQDQ01+000000PRSWM2
0246475420999992000030701004+40730+140700FM-15+0201RJSA V0202601N005110060019N0060001N1+00001-00301999999ADDGA1021+001509999GA2021+003009999GA3071+006009999GF107991999999999999999999MA1100311999999MW1851REMMET104RJSA 0100Z 26010KT 240V300 6000 -SHSN FEW005 SCT010 BKN020 M00/M03 Q1003 RMK 1ST005 3ST010 6CU020 A2963;EQDQ01+000003PRSWM1Q02    003PRSWM1
0238475420999992000030711004+40730+140700FM-15+0201RJSA V0202401N007210045019N0025001N1-00401-00601999999ADDGA1021+001209999GA2021+002109999GA3071+004509999GF107991999999999999999999MA1100311999999MW1851REMMET096RJSA 1100Z 24014KT 2500 -SHSN FEW004 SCT007 BKN015 M04/M06 Q1003 RMK 1ST004 4ST007 7ST015 A2963;EQDQ01+000003PRSWM1Q02    003PRSWM1
0261475420999992000030723004+40730+140700FM-15+0201RJSA V0202501N010310060019N0070001N1-00401-00601999999ADDGA1021+001509999GA2021+003009999GA3071+006009999GF107991999999999999999999MA1100201999999MW1851OC101541REMMET111RJSA 2300Z 25020G30KT 7000 -SHSN FEW005 SCT010 BKN020 M04/M06 Q1002 RESN REBLSN RMK 1ST005 3ST010 7CU020 A2961;EQDQ01+000003PRSWM1Q02    003PRSWM1
0240475420999992000030820204+40730+140700FM-15+0201RJSA V0202601N005710060019N0050001N1-00601-00701999999ADDGA1021+001509999GA2021+003009999GA3071+006009999GF107991999999999999999999MA1100611999999MW1851REMMET098RJSA 082020Z 26011KT 5000 -SHSN FEW005 SCT010 BKN020 M06/M07 Q1006 RMK 1ST005 3ST010 7CU020 A2973;EQDQ01+000003PRSWM1Q02    003PRSWM1
0240475420999992000031308334+40730+140700FM-16+0201RJSA V0202501N007210060019N0020001N1-00501-00801999999ADDGA1021+001509999GA2021+002409999GA3071+006009999GF107991999999999999999999MA1101081999999MW1851REMMET098RJSA 130833Z 25014KT 2000 -SHSN FEW005 SCT008 BKN020 M05/M08 Q1011 RMK 1ST005 4ST008 7CU020 A2986;EQDQ01+000003PRSWM1Q02    003PRSWM1
0249475420999992000031920004+40730+140700FM-15+0201RJSA V0200301N004110021019N0025001N1+00001-00101999999ADDGA1021+000609999GA2021+000909999GA3071+002109999GF107991999999999999999999MA1100611999999MW1411MW2851REMMET101RJSA 2000Z 03008KT 2500 -SHSN BCFG FEW002 SCT003 BKN007 M00/M01 Q1006 RMK 1ST002 4ST003 7ST007 A2973;EQDQ01+000003PRSWM1Q02    003PRSWM1
0185475420999992000032005004+40730+140700FM-15+0201RJSA V0203001N006212200019N0112651N1+00301-00501999999ADDGA1021+001509999GA2021+007509999GF104991999999999999999999MA1100911999999MW1001REMMET075RJSA 0500Z 30012KT 9999 FEW005 SCT025 03/M05 Q1009 RMK 1ST005 4CU025 A2981;EQDQ01+000000PRSWM2
0240475420999992000032509274+40730+140700FM-16+0201RJSA V0202501N010310075019N0070001N1-00201-00601999999ADDGA1021+001509999GA2021+004509999GA3071+007509999GF107991999999999999999999MA1099901999999MW1851REMMET098RJSA 250927Z 25020KT 7000 -SHSN FEW005 SCT015 BKN025 M02/M06 Q0999 RMK 1ST005 3ST015 6CU025 A2951;EQDQ01+000003PRSWM1Q02    003PRSWM1
0155475420999992000040221004+40730+140700FM-15+0201RJSA V0202201N005712200019N0112651N1+00201-00501999999ADDGA1021+012009999GF102991999999999999999999MA1102101999999MW1001REMMET061RJSA 2100Z 22011KT 9999 FEW040 02/M05 Q1021 RMK 2CU040 A3017;EQDQ01+000000PRSWM2
0260475420999992000040510264+40730+140700FM-16+0201RJSA V0209999C000010036019N0020001N1+00201+00101999999ADDGA1021+000609999GA2021+001809999GA3071+003609999GF107991999999999999999999MA1100101999999MW1611REMMET102RJSA 051026Z 00000KT 2000 -RA MIFG BR FEW002 SCT006 BKN012 02/01 Q1001 RMK 1ST002 3ST006 6ST012 A2957;EQDQ01+000120PRSWM3Q02+000100PRSWM4Q03+000003PRSWM1
0236475420999992000040520004+40730+140700FM-15+0201RJSA V0202601N009310045019N0070001N1+00201+00001999999ADDGA1021+000909999GA2021+002409999GA3071+004509999GF107991999999999999999999MA1100201999999MW1801REMMET094RJSA 2000Z 26018KT 7000 -SHRA FEW003 SCT008 BKN015 02/00 Q1002 RMK 1ST003 4ST008 7CU015 A2961;EQDQ01+000003PRSWM1Q02    003PRSWM1
0155475420999992000041107004+40730+140700FM-15+0201RJSA V0202601N006212200019N0112651N1+00201-00301999999ADDGA1021+006009999GF102991999999999999999999MA1099701999999MW1001REMMET061RJSA 0700Z 26012KT 9999 FEW020 02/M03 Q0997 RMK 2CU020 A2946;EQDQ01+000000PRSWM2
0184475420999992000041400004+40730+140700FM-15+0201RJSA V02099999999990105019N0080001N1+00501+00301999999ADDGA1021+004509999GA2071+010509999GF107991999999999999999999MA1100311999999MW1001REMMET074RJSA 0000Z VRB03KT 8000 FEW015 BKN035 05/03 Q1003 RMK 1ST015 7SC035 A2964;EQDQ01+000000PRSWM2
0208475420999992000041808004+40730+140700FM-15+0201RJSA V0202401N005119999999N0112651N1+00801-00201999999ADDGA1021+012009999GA2021+030009999GA3071+999999999GF107991999999999999999999MA1101291999999MW1001REMMET082RJSA 0800Z 24010KT 9999 FEW040 SCT100 BKN/// 08/M02 Q1013 RMK 1CU040 3AC100 A2994;EQDQ01+000000PRSWM2
0251475420999992000042221434+40730+140700FM-16+0201RJSA V0200601N001510090019N0020001N1+00701+00601999999ADDGA1021+000609999GA2021+001509999GA3071+009009999GF107991999999999999999999MA1099491999999MW1411REMMET109RJSA 222143Z 06003KT 2000 BCFG FEW002 SCT005 BKN030 07/06 Q0995 RMK 2ST002 3ST005 6CU030 A2941 9999E-SE P/FR;EQDQ01+000003PRSWM1Q02    003PRSWM1
0259475420999992000043021214+40730+140700FM-16+0201RJSA V0203601N002110006019N0015001N1+00701+00601999999ADDED199U18009GA1021+000309999GA2071+000609999GA3081+001209999GF108991999999999999999999MA1101081999999MW1411REMMET106RJSA 302121Z 36004KT 1500 R24/P1800N BCFG FEW001 BKN002 OVC004 07/06 Q1011 RMK 1ST001 7ST002 8ST004 A2988;EQDQ01+000003PRSWM1Q02    003PRSWM1
0179475420999992000051023004+40730+140700FM-15+0201RJSA V02099999999999999999N0112651N1+01101+00901999999ADDGA1021+003009999GA2081+999999999GF108991999999999999999999MA1101191999999MW1001REMMET069RJSA 102300Z VRB02KT 9999 FEW010 OVC/// 11/09 Q1012 RMK 1ST010 A2989;EQDQ01+000000PRSWM2
0241475420999992000051305004+40730+140700FM-15+0201RJSA V0200201N001010006019N0012001N1+01401+01401999999ADDED199U18009GA1021+000309999GA2071+000609999GF107991999999999999999999MA1101081999999MW1411MW2801REMMET098RJSA 130500Z 02002KT 1200 R24/P1800N BCFG -SHRA SCT001 BKN002 14/14 Q1011 RMK 4ST001 7ST002 A2988;EQDQ01+000003PRSWM1Q02    003PRSWM1
0200475420999992000051410224+40730+140700FM-16+0201RJSA V0209999C00001000151CN0005001N1+01201+01101999999ADDED199U08009GA1091+000159999GF109991999999000251999999MA1100911999999MW1451MW2801REMMET073RJSA 141022Z 00000KT 0500 R24/0800N FG -SHRA VV002 12/11 Q1009 RMK A2980;EQDQ01+000003PRSWM1Q02    003PRSWM1
0193475420999992000051420304+40730+140700FM-15+0201RJSA V0202401N00571000151CN0004001N1+00901+00901999999ADDGA1091+000159999GF109991999999000251999999MA1101021999999MW1451MW2511REMMET077RJSA 142030Z 24011KT 0400 R24/1200VP1800D FG -DZ VV002 09/09 Q1010 RMK A2985;EQDQ01+000003PRSWM1Q02    003PRSWM1
0265475420999992000051422004+40730+140700FM-15+0201RJSA V0202601N005710015019N0040001N1+01001+00901999999ADDGA1021+000609999GA2021+000909999GA3071+001509999GF107991999999999999999999MA1101021999999MW1101MW2401REMMET117RJSA 142200Z 26011KT 4000 VCFG BR FEW002 SCT003 BKN005 10/09 Q1010 RMK 1ST002 4ST003 7ST005 A2985 9999N FG BANK E-SW;EQDQ01+000003PRSWM1Q02    003PRSWM1
0239475420999992000052103004+40730+140700FM-15+0201RJSA V0200201N002610009019N0020001N1+01201+01101999999ADDGA1021+000309999GA2021+000609999GA3071+000909999GF107991999999999999999999MA1101081999999MW1101MW2411MW3511REMMET101RJSA 210300Z 02005KT 2000 -DZ BCFG BR FEW001 SCT002 BKN003 12/11 Q1011 RMK 2ST001 4ST0027ST003 A2988;EQDQ01+000003PRSWM1
0263475420999992000052123004+40730+140700FM-15+0201RJSA V0202701N002610015019N0025001N1+01201+01201999999ADDGA1021+000609999GA2071+001509999GA3071+002409999GF107991999999999999999999MA1101491999999MW1101MW2401MW3801REMMET125RJSA 212300Z 27005KT 240V310 2500 VCFG -SHRA BR SCT002 BKN005 BKN008 12/12 Q1015 RMK 3ST002 5ST005 7ST008 A2997 FG BANK NE-E;EQDQ01+000003PRSWM1
0229475420999992000052400004+40730+140700FM-15+0201RJSA V0200101N00211220001CN0025001N1+01201+01101999999ADDGA1021+000609999GA2021+001209999GA3071+001809999GA4021+009009099MA1100811999999MW1101MW2801MW3951REMMET085RJSA 240000Z 01004KT 340V070 2500 -TSRA BR FEW002 SCT004 BKN006 FEW030CB 12/11 Q1008;EQDQ01+000022SCOTCVQ02+000003PRSWM1
0156475420999992000053002004+40730+140700FM-15+0201RJSA V0202301N010812200019N0112651N1+02501+01101999999ADDGA1021+012009999GF102991999999999999999999MA1100611999999MW1001REMMET062RJSA 300200Z 23021KT 9999 FEW040 25/11 Q1006 RMK 1CU040 A2971;EQDQ01+000000PRSWM2
0101475420999992000053010004+40730+140700FM-15+0201RJSA V0202101N00511220001CN0099001N1+02001+01001999999ADDMA1100811999999MW1001REMMET049RJSA 301000Z 21010KT CAVOK 20/10 Q1008 RMK A2977;EQDQ01+000000PRSWM2
0187475420999992000062505004+40730+140700FM-15+0201RJSA V0200201N006219999999N0112651N1+02301+01401999999ADDGA1021+004509999GA2071+999999999GF107991999999999999999999MA1101081999999MW1001REMMET077RJSA 250500Z 02012KT 330V050 9999 FEW015 BKN/// 23/14 Q1011 RMK 1ST015 A2986;EQDQ01+000000PRSWM2
0213475420999992000070511004+40730+140700FM-15+0201RJSA V0203501N002119999999N0070001N1+01801+01701999999ADDGA1021+000909999GA2071+999999999GF107991999999999999999999MA1101081999999MW1401REMMET087RJSA 051100Z 35004KT 7000 VCFG FEW003 BKN/// 18/17 Q1011 RMK 2ST003 A2987 FG BANK N-NE;EQDQ01+000003PRSWM1Q02    003PRSWM1
0194475420999992000071507004+40730+140700FM-15+0201RJSA V0202901N004612200019N0112651N1+02801+02101999999ADDGA1021+007509999GA2021+030009999GF104991999999999999999999MA1100911999999MW1001REMMET084RJSA 150700Z 29009KT 240V310 9999 FEW025 SCT100 28/21 Q1009 RMK 1CU025 3AC100 A2982;EQDQ01+000000PRSWM2
0224475420999992000071707004+40730+140700FM-15+0201RJSA V0200301N002610090019N0112651N1+02401+02101999999ADDGA1021+003009999GA2021+006009999GA3071+009009999GF107991999999999999999999MA1100711999999MW1001REMMET098RJSA 170700Z 03005KT 350V070 9999 FEW010 SCT020 BKN030 24/21 Q1007 RMK 1ST010 3CU020 7CU030 A2975;EQDQ01+000000PRSWM2
0268475420999992000071909204+40730+140700FM-15+0201RJSA V0203201N001010006019N0012001N1+01901+01801999999ADDED199U18009GA1021+000309999GA2071+000609999GA3081+001209999GF108991999999999999999999MA1101081999999MW1101MW2411REMMET109RJSA 190920Z 32002KT 1200 R24/P1800N BCFG BR SCT001 BKN002 OVC004 19/18 Q1011 RMK 4ST001 7ST002 8ST004 A2987;EQDQ01+000003PRSWM1Q02    003PRSWM1
0186475420999992000072210004+40730+140700FM-15+0201RJSA V0202001N006712200019N0112651N1+02601+02201999999ADDGA1021+006009999GA2021+015009999GF104991999999999999999999MA1099701999999MW1001REMMET076RJSA 221000Z 20013KT 9999 FEW020 SCT050 26/22 Q0997 RMK 2CU020 4SC050 A2946;EQDQ01+000000PRSWM2
0238475420999992000072304314+40730+140700FM-16+0201RJSA V0202301N007210075019N0030001N1+02501+02301999999ADDGA1021+002409999GA2021+004509999GA3071+007509999GF107991999999999999999999MA1099901999999MW1821REMMET096RJSA 230431Z 23014KT 3000 +SHRA FEW008 SCT015 BKN025 25/23 Q0999 RMK 1ST008 4ST015 7CU025 A2953;EQDQ01+000003PRSWM1Q02    003PRSWM1
0187475420999992000073009004+40730+140700FM-15+0201RJSA V0200801N002119999999N0112651N1+02801+02201999999ADDGA1021+006009999GA2071+999999999GF107991999999999999999999MA1100611999999MW1001REMMET077RJSA 300900Z 08004KT 040V120 9999 FEW020 BKN/// 28/22 Q1006 RMK 1ST020 A2972;EQDQ01+000000PRSWM2
0156475420999992000080120004+40730+140700FM-15+0201RJSA V0202201N002612200019N0112651N1+02301+02201999999ADDGA1021+012009999GF102991999999999999999999MA1101191999999MW1001REMMET062RJSA 012000Z 22005KT 9999 FEW040 23/22 Q1012 RMK 2SC040 A2990;EQDQ01+000000PRSWM2
0156475420999992000080811004+40730+140700FM-15+0201RJSA V0202101N003612200019N0112651N1+02201+02001999999ADDGA1021+006009999GF102991999999999999999999MA1101491999999MW1001REMMET062RJSA 081100Z 21007KT 9999 FEW020 22/20 Q1015 RMK 1CU020 A2998;EQDQ01+000000PRSWM2
0262475420999992000081104374+40730+140700FM-16+0201RJSA V0202601N007710024019N0030001N1+02201+02101999999ADDGA1021+000909999GA2021+001509999GA3071+002409999GF107991999999999999999999MA1100201999999MW1801REMMET104RJSA 110437Z 26015KT 3000 -SHRA BR FEW003 SCT005 BKN008 22/21 Q1002 RERA RMK 1ST003 3ST005 7ST008 A2961;EQDQ01+000100PRSWM3Q02+000003PRSWM1Q03    003PRSWM1
0216475420999992000081523004+40730+140700FM-15+0201RJSA V02099999999990030019N0080001N1+02301+02101999999ADDGA1021+000909999GA2021+001809999GA3071+003009999GF107991999999999999999999MA1100911999999MW1001REMMET090RJSA 152300Z VRB02KT 8000 FEW003 SCT006 BKN010 23/21 Q1009 RMK 1ST003 4ST006 7ST010 A2982;EQDQ01+000000PRSWM2
0187475420999992000082005004+40730+140700FM-15+0201RJSA V0203401N004619999999N0112651N1+02601+02001999999ADDGA1021+012009999GA2071+999999999GF107991999999999999999999MA1100711999999MW1001REMMET077RJSA 200500Z 34009KT 310V020 9999 FEW040 BKN/// 26/20 Q1007 RMK 1CU040 A2976;EQDQ01+000000PRSWM2
0224475420999992000082904004+40730+140700FM-15+0201RJSA V0203501N003110090019N0112651N1+02501+02001999999ADDGA1021+004509999GA2021+006009999GA3071+009009999GF107991999999999999999999MA1101491999999MW1001REMMET098RJSA 290400Z 35006KT 320V030 9999 FEW015 SCT020 BKN030 25/20 Q1015 RMK 1ST015 4ST020 6CU030 A2998;EQDQ01+000000PRSWM2
0235475420999992000083110174+40730+140700FM-16+0201RJSA V02099999999990009019N0035001N1+02301+02101999999ADDGA1021+000309999GA2071+000909999GA3071+001509999GF107991999999999999999999MA1101191999999MW1101REMMET093RJSA 311017Z VRB02KT 3500 BR FEW001 BKN003 BKN005 23/21 Q1012 RMK 2ST001 5ST003 7ST005 A2991;EQDQ01+000003PRSWM1Q02    003PRSWM1
0186475420999992000090403004+40730+140700FM-15+0201RJSA V0200701N005712200019N0112651N1+02101+01401999999ADDGA1021+006009999GA2021+012009999GF104991999999999999999999MA1101021999999MW1001REMMET076RJSA 040300Z 07011KT 9999 FEW020 SCT040 21/14 Q1010 RMK 2CU020 4CU040 A2985;EQDQ01+000000PRSWM2
0156475420999992000090722004+40730+140700FM-15+0201RJSA V0202301N001512200019N0112651N1+01901+01501999999ADDGA1021+006009999GF102991999999999999999999MA1101801999999MW1001REMMET062RJSA 072200Z 23003KT 9999 FEW020 19/15 Q1018 RMK 1SC020 A3008;EQDQ01+000000PRSWM2
0224475420999992000090823004+40730+140700FM-15+0201RJSA V0200201N002110240019N0112651N1+02001+01701999999ADDGA1021+004509999GA2021+012009999GA3071+024009999GF107991999999999999999999MA1101801999999MW1001REMMET098RJSA 082300Z 02004KT 350V070 9999 FEW015 SCT040 BKN080 20/17 Q1018 RMK 1ST015 3SC040 7AC080 A3007;EQDQ01+000000PRSWM2
0291475420999992000090911294+40730+140700FM-16+0201RJSA V02099999999990090019N0040001N1+01801+01701999999ADDED199U18009GA1021+000309999GA2021+001509999GA3071+009009999GF107991999999999999999999MA1101291999999MW1611REMMET122RJSA 091129Z VRB02KT 4000 R24/P1800N -RA BCFG FEW001 SCT005 BKN030 18/17 Q1013 RMK 1ST001 4ST005 7SC030 A2992 FG 0800W-NE;EQDQ01+000410PRSWM3Q02+000003PRSWM1Q03    003PRSWM1
0249475420999992000091001004+40730+140700FM-15+0201RJSA V0200701N003110150019N0112651N1+02001+01801999999ADDGA1021+001509999GA2021+009009999GA3071+015009999GF107991999999999999999999MA1101021999999MW1611REMMET107RJSA 100100Z 07006KT 020V170 9999 -RA FEW005 SCT030 BKN050 20/18 Q1010 RMK 1ST005 4SC030 6SC050 A2985 P/FR;EQDQ01+000003PRSWM1Q02    003PRSWM1
0253475420999992000091422004+40730+140700FM-15+0201RJSA V0200501N002610006019N0012001N1+02001+01901999999ADDED199U18009GA1021+000309999GA2071+000609999GF107991999999999999999999MA1101081999999MW1101MW2411REMMET110RJSA 142200Z 05005KT 010V070 1200 R24/P1800N BCFG BR SCT001 BKN002 20/19 Q1011 RMK 4ST001 7ST002 A2988 5000NE;EQDQ01+000003PRSWM1Q02    003PRSWM1
0223475420999992000092421004+40730+140700FM-15+0201RJSA V02099999999990090019N0015001N1+01601+01501999999ADDGA1021+000609999GA2071+009009999GF107991999999999999999999MA1100411999999MW1411REMMET097RJSA 242100Z VRB02KT 1500 R24/1000VP1800N BCFG FEW002 BKN030 16/15 Q1004 RMK 2ST002 5CU030 A2966;EQDQ01+000003PRSWM1Q02    003PRSWM1
0251475420999992000092708004+40730+140700FM-15+0201RJSA V0202601N004610210019N0112651N1+01301+01201999999ADDGA1021+001509999GA2021+006009999GA3071+021009999GF107991999999999999999999MA1100911999999MW1801REMMET109RJSA 270800Z 26009KT 230V310 9999 -SHRA FEW005 SCT020 BKN070 13/12 Q1009 RERA RMK 1ST005 4CU020 7AC070 A2981;EQDQ01+000003PRSWM1Q02    003PRSWM1
0162475420999992000100407004+40730+140700FM-15+0201RJSA V0202801N004112200019N0112651N1+01701+00901999999ADDGA1021+006009999GA2021+009009999GF104991999999999999999999MA1101391999999MW1001REMMET052RJSA 040700Z 28008KT 9999 FEW020 SCT030 17/09 Q1014;EQDQ01+000000PRSWM2
0179475420999992000100907004+40730+140700FM-15+0201RJSA V02099999999999999999N0112651N1+01901+01401999999ADDGA1021+013509999GA2071+999999999GF107991999999999999999999MA1101021999999MW1001REMMET069RJSA 090700Z VRB03KT 9999 FEW045 BKN/// 19/14 Q1010 RMK 1SC045 A2983;EQDQ01+000000PRSWM2
0179475420999992000101100004+40730+140700FM-15+0201RJSA V02099999999992200019N0112651N1+01601+00901999999ADDGA1021+009009999GA2021+999999999GF104991999999999999999999MA1101491999999MW1001REMMET069RJSA 110000Z VRB03KT 9999 FEW030 SCT/// 16/09 Q1015 RMK 1CU030 A2999;EQDQ01+000000PRSWM2
0164475420999992000101902004+40730+140700FM-15+0201RJSA V0202501N003612200019N0112651N1+01201+00301999999ADDGA1021+010509999GF102991999999999999999999MA1102301999999MW1001REMMET070RJSA 190200Z 25007KT 200V290 9999 FEW035 12/03 Q1023 RMK 1SC035 A3023;EQDQ01+000000PRSWM2
0179475420999992000102210004+40730+140700FM-15+0201RJSA V0202101N003119999999N0112651N1+00801+00001999999ADDGA1021+009009999GA2071+999999999GF107991999999999999999999MA1102401999999MW1001REMMET069RJSA 221000Z 21006KT 9999 FEW030 BKN/// 08/00 Q1024 RMK 1CU030 A3025;EQDQ01+000000PRSWM2
0216475420999992000102304004+40730+140700FM-15+0201RJSA V02099999999990180019N0112651N1+01301+00601999999ADDGA1021+006009999GA2071+018009999GA3071+030009999GF107991999999999999999999MA1101901999999MW1001REMMET090RJSA 230400Z VRB02KT 9999 FEW020 BKN060 BKN100 13/06 Q1019 RMK 1SC020 5SC060 7AC100 A3012;EQDQ01+000000PRSWM2
0236475420999992000110201004+40730+140700FM-15+0201RJSA V0202301N003110240019N0070001N1+00801+00701999999ADDGA1021+001509999GA2021+010509999GA3071+024009999GF107991999999999999999999MA1101801999999MW1611REMMET094RJSA 020100Z 23006KT 7000 -RA FEW005 SCT035 BKN080 08/07 Q1018 RMK 1ST005 3SC035 7AC080 A3006;EQDQ01+000003PRSWM1Q02    003PRSWM1
0255475420999992000111822284+40730+140700FM-16+0201RJSA V0202501N005710030019N0009001N1-00201-00401999999ADDGA1021+000909999GA2021+001509999GA3071+003009999GF107991999999999999999999MA1102911999999MW1861REMMET113RJSA 182228Z 25011KT 0900 R24/1400VP1800N SHSN FEW003 SCT005 BKN010 M02/M04 Q1029 RMK 1ST003 4ST005 7ST010 A3039;EQDQ01+000003PRSWM1Q02    003PRSWM1
0245475420999992000111822404+40730+140700FM-16+0201RJSA V0202401N004610030019N0060001N1-00201-00401999999ADDGA1021+001209999GA2021+001509999GA3071+003009999GF107991999999999999999999MA1102811999999MW1851REMMET103RJSA 182240Z 24009KT 6000 -SHSN FEW004 SCT005 BKN010 M02/M04 Q1028 RESN RMK 1ST004 3ST005 6ST010 A3038;EQDQ01+000003PRSWM1Q02    003PRSWM1
0262475420999992000112823094+40730+140700FM-16+0201RJSA V0202301N004110018019N0016001N1-00201-00401999999ADDED199U18009GA1021+000909999GA2071+001809999GA3071+003009999GF107991999999999999999999MA1102201999999MW1851REMMET109RJSA 282309Z 23008KT 1600 R24/P1800N -SHSN FEW003 BKN006 BKN010 M02/M04 Q1022 RMK 1ST003 5ST006 7ST010 A3020;EQDQ01+000003PRSWM1Q02    003PRSWM1
0248475420999992000120711004+40730+140700FM-15+0201RJSA V0202101N003610060019N0080001N1-00101-00401999999ADDGA1021+001509999GA2021+003009999GA3071+006009999GF107991999999999999999999MA1102201999999MW1851REMMET106RJSA 071100Z 21007KT 180V250 8000 -SHSN FEW005 SCT010 BKN020 M01/M04 Q1022 RMK 1ST005 3ST010 7CU020 A3019;EQDQ01+000003PRSWM1Q02    003PRSWM1
0225475420999992000120900004+40730+140700FM-15+0201RJSA V0202901N003610105019N0112651N1+00301-00201999999ADDGA1021+001509999GA2021+007509999GA3071+010509999GF107991999999999999999999MA1101901999999MW1001REMMET099RJSA 090000Z 29007KT 260V320 9999 FEW005 SCT025 BKN035 03/M02 Q1019 RMK 1ST005 3CU025 6CU035 A3010;EQDQ01+000000PRSWM2
0275475420999992000121104474+40730+140700FM-16+0201RJSA V0202501N010310018019N0020001N1-00601-00801999999ADDGA1021+000609999GA2071+001809999GA3071+004509999GF107991999999999999999999MA1100411999999MW1381MW2851OC101541REMMET119RJSA 110447Z 25020G30KT 2000 -BLSN -SHSN FEW002 BKN006 BKN015 M06/M08 Q1004 REBLSN RESN RMK 2ST002 5ST006 7ST015 A2967;EQDQ01+000003PRSWM1Q02    003PRSWM1
0203475420999992000121408004+40730+140700FM-15+0201RJSA V0202201N003110018019N0016001N1+99999+99999999999ADDED199U18009GA1021+000609999GA2021+001209999GA3071+001809999GF107991999999999999999999MW1001MW2101MW3851REMMET069RJSA 140800Z 22006KT 1600 R24/P1800N -SHSN BR FEW002 SCT004 BKN006 C;EQDQ01+000003PRSWM1
0240475420999992000122204004+40730+140700FM-15+0201RJSA V0202401N004610060019N0070001N1-00101-00501999999ADDGA1021+001809999GA2021+003009999GA3071+006009999GF107991999999999999999999MA1101801999999MW1851REMMET098RJSA 220400Z 24009KT 7000 -SHSN FEW006 SCT010 BKN020 M01/M05 Q1018 RMK 1ST006 3ST010 7CU020 A3009;EQDQ01+000003PRSWM1Q02    003PRSWM1
0158475420999992000122209004+40730+140700FM-15+0201RJSA V0201801N003112200019N0112651N1-00601-00901999999ADDGA1021+006009999GF102991999999999999999999MA1101691999999MW1001REMMET064RJSA 220900Z 18006KT 9999 FEW020 M06/M09 Q1017 RMK 1CU020 A3006;EQDQ01+000000PRSWM2
0240475420999992000122421354+40730+140700FM-16+0201RJSA V0202401N004110045019N0020001N1-00401-00501999999ADDGA1021+001209999GA2021+001809999GA3071+004509999GF107991999999999999999999MA1101021999999MW1851REMMET098RJSA 242135Z 24008KT 2000 -SHSN FEW004 SCT006 BKN015 M04/M05 Q1010 RMK 1ST004 3ST006 7ST015 A2984;EQDQ01+000003PRSWM1Q02    003PRSWM1
0240475420999992000122810494+40730+140700FM-16+0201RJSA V0202301N003610045019N0018001N1-00401-00601999999ADDGA1021+001209999GA2021+002409999GA3071+004509999GF107991999999999999999999MA1101801999999MW1851REMMET098RJSA 281049Z 23007KT 1800 -SHSN FEW004 SCT008 BKN015 M04/M06 Q1018 RMK 1ST004 4ST008 7ST015 A3008;EQDQ01+000003PRSWM1Q02    003PRSWM1
0253475420999992000122819454+40730+140700FM-15+0201RJSA V0202501N005710024019N0020001N1-00501-00701999999ADDGA1021+000609999GA2021+001209999GA3071+002409999GF107991999999999999999999MA1102001999999MW1851REMMET111RJSA 281945Z 25011KT 230V290 2000 -SHSN FEW002 SCT004 BKN008 M05/M07 Q1020 RESN RMK 1ST002 3ST004 7ST008 A3013;EQDQ01+000003PRSWM1Q02    003PRSWM1
0267475420999992000122823154+40730+140700FM-16+0201RJSA V0202601N004610024019N0014001N1-00501-00701999999ADDED199U18009GA1021+000909999GA2021+001509999GA3071+002409999GF107991999999999999999999MA1102201999999MW1851REMMET114RJSA 282315Z 26009KT 1400 R24/P1800N -SHSN FEW003 SCT005 BKN008 M05/M07 Q1022 RESN RMK 1ST003 4ST005 6ST008 A3019;EQDQ01+000003PRSWM1Q02    003PRSWM1
0248475420999992000122901104+40730+140700FM-16+0201RJSA V0202701N005710045019N0040001N1-00501-00701999999ADDGA1021+001509999GA2021+003009999GA3071+004509999GF107991999999999999999999MA1102201999999MW1851REMMET106RJSA 290110Z 27011KT 230V290 4000 -SHSN FEW005 SCT010 BKN015 M05/M07 Q1022 RMK 1ST005 3ST010 6CU015 A3021;EQDQ01+000003PRSWM1Q02    003PRSWM1
0204475450999992000010104004+39620+140220FM-15+0096RJSK V0203001N002110060019N0112651N1+00101-00201999999ADDGA1021+003009999GA2071+006009999GA3071+012009999GF107991999999999999999999MA1102101999999MW1001REMMET097RJSK 0400Z 30004KT 260V360 9999 FEW010 BKN020 BKN040 01/M02 Q1021 RMK 1ST010 5CU020 6CU040 A3017;
0247475450999992000010708074+39620+140220FM-16+0096RJSK V0203301N003110030019N0040001N1+00101-00101999999ADDGA1021+000609999GA2021+001509999GA3071+003009999GF107991999999999999999999MA1101191999999MW1851REMMET105RJSK 070807Z 33006KT 300V020 4000 -SHSN FEW002 SCT005 BKN010 01/M01 Q1012 RMK 1ST002 4ST005 7ST010 A2989;EQDQ01+000003PRSWM1Q02    003PRSWM1
0257475450999992000010807004+39620+140220FM-15+0096RJSK V0209999C000010015019N0008001N1+00001-00101999999ADDED199U14009GA1021+000909999GA2071+001509999GA3071+002409999GF107991999999999999999999MA1101391999999MW1861REMMET104RJSK 0700Z 00000KT 0800 R28/1400N SHSN FEW003 BKN005 BKN008 00/M01 Q1014 RMK 1ST003 5ST005 7ST008 A2997;EQDQ01+000003PRSWM1Q02    003PRSWM1
0296475450999992000011004134+39620+140220FM-16+0096RJSK V0201401N002610015019N0035001N1+00401+00301999999ADDGA1021+000309999GA2071+001509999GA3071+006009999GF107991999999999999999999MA1100511999999MW1101REMMET138RJSK 100413Z 14005KT 110V170 3500 R28/1400VP2000D -SHRA BR PRFG FEW001 BKN005 BKN020 04/03 Q1005 RMK 1ST001 5ST005 7CU020 A2969 1000NE-SE;EQDQ01+000410PRSWM3Q02+000003PRSWM1Q03    003PRSWM1
0185475450999992000011508004+39620+140220FM-15+0096RJSK V0203101N003110180019N0112651N1+00301-00201999999ADDGA1021+009009999GA2071+018009999GF107991999999999999999999MA1102101999999MW1001REMMET075RJSK 0800Z 31006KT 9999 FEW030 BKN060 03/M02 Q1021 RMK 1CU030 7SC060 A3017;EQDQ01+000000PRSWM2
0215475450999992000011603004+39620+140220FM-15+0096RJSK V0201301N002610150019N0112651N1+00301-00101999999ADDGA1021+009009999GA2021+012009999GA3071+015009999GF107991999999999999999999MA1102001999999MW1001REMMET089RJSK 0300Z 13005KT 9999 FEW030 SCT040 BKN050 03/M01 Q1020 RMK 1CU030 4SC040 7SC050 A3012;EQDQ01+000000PRSWM2
0235475450999992000011606004+39620+140220FM-15+0096RJSK V02099999999990075019N0060001N1+00201+00001999999ADDGA1021+001509999GA2021+003009999GA3071+007509999GF107991999999999999999999MA1101801999999MW1611REMMET093RJSK 0600Z VRB03KT 6000 -RA FEW005 SCT010 BKN025 02/M00 Q1018 RMK 1ST005 3ST010 7SC025 A3008;EQDQ01+000003PRSWM1Q02    003PRSWM1
0273475450999992000012100254+39620+140220FM-15+0096RJSK V0203201N007710015019N0007001N1-00201-00301999999ADDGA1021+000909999GA2071+001509999GA3071+002409999GF107991999999999999999999MA1101391999999MW1381MW2861REMMET125RJSK 210025Z 32015KT 0700 R28/0900V1600D SHSN -BLSN FEW003 BKN005 BKN008 M02/M03 Q1014 REBLSN RMK 2ST003 6ST005 7ST008 A2997;EQDQ01+000003PRSWM1Q02    003PRSWM1
0246475450999992000012200004+39620+140220FM-15+0096RJSK V0203501N002110090019N0060001N1-00301-00301999999ADDGA1021+003009999GA2021+006009999GA3071+009009999GF107991999999999999999999MA1103011999999MW1851REMMET104RJSK 0000Z 35004KT 320V020 6000 -SHSN FEW010 SCT020 BKN030 M03/M03 Q1030 RMK 1ST010 3CU020 7CU030 A3044;EQDQ01+000003PRSWM1Q02    003PRSWM1
0238475450999992000012203004+39620+140220FM-15+0096RJSK V0203001N005710060019N0112651N1-00101-00501999999ADDGA1021+003009999GA2071+006009999GA3071+012009999GF107991999999999999999999MA1102911999999MW1851REMMET096RJSK 0300Z 30011KT 9999 -SHSN FEW010 BKN020 BKN040 M01/M05 Q1029 RMK 1ST010 5CU020 7CU040 A3041;EQDQ01+000003PRSWM1Q02    003PRSWM1
0259475450999992000012303144+39620+140220FM-16+0096RJSK V02099999999990015019N0020001N1+00101-00101999999ADDGA1021+000909999GA2071+001509999GA3071+002409999GF107991999999999999999999MA1101901999999MW1851REMMET117RJSK 230314Z VRB03KT 2000 R28/1000V1800U -SHSN FEW003 BKN005 BKN008 01/M01 Q1019 RESN RMK 1ST003 5ST005 7ST008 A3010;EQDQ01+000003PRSWM1Q02    003PRSWM1
0246475450999992000012501004+39620+140220FM-15+0096RJSK V0203301N004610075019N0070001N1-00501-01101999999ADDGA1021+002409999GA2021+004509999GA3071+007509999GF107991999999999999999999MA1101801999999MW1851REMMET104RJSK 0100Z 33009KT 310V020 7000 -SHSN FEW008 SCT015 BKN025 M05/M11 Q1018 RMK 1ST008 3ST015 7CU025 A3006;EQDQ01+000003PRSWM1Q02    003PRSWM1
0240475450999992000012501224+39620+140220FM-16+0096RJSK V0203101N005710045019N0020001N1-00601-00801999999ADDGA1021+002409999GA2021+003009999GA3071+004509999GF107991999999999999999999MA1101801999999MW1001REMMET114RJSK 250122Z 31011KT 2000 R28/0900VP2000U -SHSN FEW008 SCT010 BKN015 M06/M08 Q1018 RMK 1ST008 3ST010 7ST015 A3006;EQDQ01+000000PRSWM2
0186475450999992000012708004+39620+140220FM-15+0096RJSK V02099999999990120019N0112651N1-00301-00701999999ADDGA1021+006009999GA2071+012009999GF107991999999999999999999MA1102101999999MW1001REMMET076RJSK 0800Z VRB01KT 9999 FEW020 BKN040 M03/M07 Q1021 RMK 2CU020 6CU040 A3015;EQDQ01+000000PRSWM2
0247475450999992000013006004+39620+140220FM-15+0096RJSK V0202401N003610060019N0112651N1+00301+00101999999ADDGA1021+001509999GA2021+003009999GA3071+006009999GF107991999999999999999999MA1101491999999MW1801OC101181REMMET097RJSK 0600Z 24007G23KT 9999 -SHRA FEW005 SCT010 BKN020 03/01 Q1015 RMK 1ST005 3ST010 7CU020 A2998;EQDQ01+000003PRSWM1Q02    003PRSWM1
0263475450999992000020400064+39620+140220FM-16+0096RJSK V0201501N002110030019N0020001N1-00101-00201999999ADDGA1021+000309999GA2021+001209999GA3071+003009999GF107991999999999999999999MA1101801999999MW1411REMMET121RJSK 040006Z 15004KT 120V200 2000 R28/1800VP2000U BCFG FEW001 SCT004 BKN010 M01/M02 Q1018 RMK 1ST001 3ST004 5ST010 A3007;EQDQ01+000003PRSWM1Q02    003PRSWM1
0186475450999992000020521004+39620+140220FM-15+0096RJSK V0201401N002110120019N0112651N1+00001-00401999999ADDGA1021+003009999GA2071+012009999GF107991999999999999999999MA1101901999999MW1001REMMET076RJSK 2100Z 14004KT 9999 FEW010 BKN040 M00/M04 Q1019 RMK 1ST010 7CU040 A3011;EQDQ01+000000PRSWM2
0100475450999992000020607004+39620+140220FM-15+0096RJSK V0201101N00211220001CN0099001N1+00401-00501999999ADDMA1101081999999MW1001REMMET048RJSK 0700Z 11004KT CAVOK 04/M05 Q1011 RMK A2988;EQDQ01+000000PRSWM2
0252475450999992000020701004+39620+140220FM-15+0096RJSK V0201101N003110090019N0050001N1+00201+00001999999ADDGA1021+001509999GA2021+004509999GA3071+009009999GF107991999999999999999999MA1100201999999MW1801MW2851REMMET104RJSK 0100Z 11006KT 090V150 5000 -SHRASN FEW005 SCT015 BKN030 02/00 Q1002 RMK 1ST005 4ST015 7CU030 A2961;EQDQ01+000003PRSWM1Q02    003PRSWM1
0240475450999992000021006114+39620+140220FM-16+0096RJSK V0202801N008710045019N0035001N1+00001-00301999999ADDGA1021+002109999GA2071+004509999GA3071+009009999GF107991999999999999999999MA1101191999999MW1851REMMET098RJSK 100611Z 28017KT 3500 -SHSN FEW007 BKN015 BKN030 M00/M03 Q1012 RMK 1ST007 5ST015 7CU030 A2990;EQDQ01+000003PRSWM1Q02    003PRSWM1
0238475450999992000021408424+39620+140220FM-16+0096RJSK V0201001N003610018019N0030001N1+00001-00201999999ADDGA1021+000909999GA2071+001809999GA3071+003009999GF107991999999999999999999MA1100001999999MW1711REMMET096RJSK 140842Z 10007KT 3000 -SN FEW003 BKN006 BKN010 M00/M02 Q1000 RMK 1ST003 5ST006 7ST010 A2953;EQDQ01+000003PRSWM1Q02    003PRSWM1
0246475450999992000022222004+39620+140220FM-15+0096RJSK V0203101N004110105019N0112651N1-00301-00801999999ADDGA1021+003009999GA2021+007509999GA3071+010509999GF107991999999999999999999MA1101591999999MW1851REMMET104RJSK 2200Z 31008KT 290V350 9999 -SHSN FEW010 SCT025 BKN035 M03/M08 Q1016 RMK 1ST010 3CU025 7CU035 A3002;EQDQ01+000003PRSWM1Q02    003PRSWM1
0208475450999992000022311004+39620+140220FM-15+0096RJSK V0201301N002610075019N0112651N1-00401-00601999999ADDGA1021+001509999GA2071+007509999GF107991999999999999999999MA1101391999999MW1851REMMET082RJSK 1100Z 13005KT 9999 -SHSN SCT005 BKN025 M04/M06 Q1014 RMK 3ST005 7CU025 A2995;EQDQ01+000003PRSWM1Q02    003PRSWM1
0225475450999992000022909264+39620+140220FM-16+0096RJSK V0203101N005110015019N0004001N1-00201-00401999999ADDGA1071+001509999GA2071+003009999GF107991999999999999999999MA1101801999999MW1861REMMET099RJSK 290926Z 31010KT 0400 R28/0900VP2000D SHSN BKN005 BKN010 M02/M04 Q1018 RMK 5ST005 7ST010 A3007;EQDQ01+000003PRSWM1Q02    003PRSWM1
0268475450999992000030906004+39620+140220FM-15+0096RJSK V0203001N011810060019N0112651N1-00301-00501999999ADDGA1021+002109999GA2071+006009999GA3071+009009999GF107991999999999999999999MA1101081999999MW1381MW2851OC101701REMMET112RJSK 0600Z 30023G33KT 9999 -BLSN -SHSN FEW007 BKN020 BKN030 M03/M05 Q1011 REBLSN RMK 1ST007 5CU020 6CU030 A2987;EQDQ01+000003PRSWM1Q02    003PRSWM1
0248475450999992000032504004+39620+140220FM-15+0096RJSK V0202801N013410075019N0112651N1+00201-00401999999ADDGA1021+001509999GA2021+003009999GA3071+007509999GF107991999999999999999999MA1100201999999MW1851OC101851REMMET098RJSK 0400Z 28026G36KT 9999 -SHSN FEW005 SCT010 BKN025 02/M04 Q1002 RMK 1ST005 3ST010 7CU025 A2961;EQDQ01+000003PRSWM1Q02    003PRSWM1
0221475450999992000041104004+39620+140220FM-15+0096RJSK V0203001N006710060019N0112651N1+00401+00201999999ADDGA1021+003009999GA2071+006009999GA3071+009009999GF107991999999999999999999MA1100101999999MW1001REMMET095RJSK 0400Z 30013KT 9999 FEW010 BKN020 BKN030 04/02 Q1001 RESHSN RMK 2ST010 5CU020 7CU030 A2957;EQDQ01+000000PRSWM2
0267475450999992000041106104+39620+140220FM-16+0096RJSK V0202801N012910045019N0112651N1+00301-00101999999ADDGA1021+003009999GA2071+004509999GA3071+006009999GF107991999999999999999999MA1100101999999MW1181MW2851OC101951REMMET111RJSK 110610Z 28025G38KT 240V300 9999 SQ -SHSN FEW010 BKN015 BKN020 03/M01 Q1001 RMK 1ST010 5ST015 7CU020 A2957;EQDQ01+000003PRSWM1Q02    003PRSWM1
0252475450999992000041111004+39620+140220FM-15+0096RJSK V0201901N002110090019N0050001N1+00201+00001999999ADDGA1021+001509999GA2021+004509999GA3071+009009999GF107991999999999999999999MA1100001999999MW1801MW2851REMMET104RJSK 1100Z 19004KT 130V250 5000 -SHSNRA FEW005 SCT015 BKN030 02/00 Q1000 RMK 1ST005 4ST015 7CU030 A2955;EQDQ01+000003PRSWM1Q02    003PRSWM1
0214475450999992000041621004+39620+140220FM-15+0096RJSK V0202901N005710120019N0112651N1+00401+00001999999ADDGA1021+003009999GA2021+007509999GA3071+012009999GF107991999999999999999999MA1101191999999MW1001REMMET088RJSK 2100Z 29011KT 9999 FEW010 SCT025 BKN040 04/00 Q1012 RMK 1ST010 3CU025 7CU040 A2989;EQDQ01+000000PRSWM2
0184475450999992000041701004+39620+140220FM-15+0096RJSK V0203001N005710090019N0112651N1+00601+00101999999ADDGA1021+006009999GA2071+009009999GF107991999999999999999999MA1101291999999MW1001REMMET074RJSK 0100Z 30011KT 9999 SCT020 BKN030 06/01 Q1013 RMK 3CU020 7CU030 A2994;EQDQ01+000000PRSWM2
0244475450999992000042001004+39620+140220FM-15+0096RJSK V0201301N006210150019N0112651N1+00801+00401999999ADDGA1021+010509999GA2071+015009999GA3081+021009999GF108991999999999999999999MA1101691999999MW1611REMMET102RJSK 200100Z 13012KT 100V160 9999 -RA FEW035 BKN050 OVC070 08/04 Q1017 RMK 2SC035 5SC050 8AS070 A3005;EQDQ01+000003PRSWM1Q02    003PRSWM1
0216475450999992000042423004+39620+140220FM-15+0096RJSK V0202601N007210045019N0112651N1+01001+00701999999ADDGA1021+003009999GA2071+004509999GA3071+007509999GF107991999999999999999999MA1100711999999MW1001REMMET090RJSK 242300Z 26014KT 9999 FEW010 BKN015 BKN025 10/07 Q1007 RMK 1ST010 5ST015 7CU025 A2976;EQDQ01+000000PRSWM2
0186475450999992000042505004+39620+140220FM-15+0096RJSK V0202601N008710075019N0112651N1+01301+00301999999ADDGA1021+006009999GA2071+007509999GF107991999999999999999999MA1100811999999MW1001REMMET076RJSK 250500Z 26017KT 9999 FEW020 BKN025 13/03 Q1008 RMK 1CU020 6CU025 A2978;EQDQ01+000000PRSWM2
0269475450999992000050211004+39620+140220FM-15+0096RJSK V0202601N00461220001CN0060001N1+01301+01001999999ADDGA1021+003009999GA2021+009009099GA3071+009009999MA1101081999999MW1811MW2951REMMET131RJSK 021100Z 26009KT 220V280 6000 TSRA FEW010 BKN030 FEW030CB 13/10 Q1011 RMK 1ST010 5CU030 1CB030 A2986 MOD TS 10KM NW MOV N P/RR;EQDQ01+000022SCOTCVQ02+000003PRSWM1Q03    003PRSWM1
0194475450999992000051123004+39620+140220FM-15+0096RJSK V0201301N004110150019N0112651N1+01801+01201999999ADDGA1021+006009999GA2071+015009999GF107991999999999999999999MA1100711999999MW1001REMMET084RJSK 112300Z 13008KT 100V160 9999 FEW020 BKN050 18/12 Q1007 RMK 2CU020 5SC050 A2975;EQDQ01+000000PRSWM2
0208475450999992000051210004+39620+140220FM-15+0096RJSK V02099999999990135019N0112651N1+01601+01301999999ADDGA1021+002409999GA2071+013509999GF107991999999999999999999MA1100911999999MW1801REMMET082RJSK 121000Z VRB03KT 9999 -SHRA FEW008 BKN045 16/13 Q1009 RMK 1ST008 7CU045 A2982;EQDQ01+000003PRSWM1Q02    003PRSWM1
0262475450999992000051222294+39620+140220FM-16+0096RJSK V0202801N002110015019N0030001N1+01401+01301999999ADDGA1021+000309999GA2071+001509999GA3071+003009999GF107991999999999999999999MA1101191999999MW1801REMMET104RJSK 122229Z 28004KT 3000 -SHRA BR FEW001 BKN005 BKN010 14/13 Q1012 RERA RMK 1ST001 6ST005 7ST010 A2989;EQDQ01+000100PRSWM3Q02+000003PRSWM1Q03    003PRSWM1
0216475450999992000051511004+39620+140220FM-15+0096RJSK V0203201N002610045019N0112651N1+01001+00901999999ADDGA1021+003009999GA2071+004509999GA3071+006009999GF107991999999999999999999MA1101021999999MW1001REMMET090RJSK 151100Z 32005KT 9999 FEW010 BKN015 BKN020 10/09 Q1010 RMK 1ST010 5CU015 7CU020 A2985;EQDQ01+000000PRSWM2
0186475450999992000051704004+39620+140220FM-15+0096RJSK V0203301N002110105019N0112651N1+01701+01001999999ADDGA1021+009009999GA2071+010509999GF107991999999999999999999MA1101021999999MW1001REMMET076RJSK 170400Z 33004KT 9999 FEW030 BKN035 17/10 Q1010 RMK 1CU030 5SC035 A2983;EQDQ01+000000PRSWM2
0156475450999992000051810004+39620+140220FM-15+0096RJSK V02099999999992200019N0112651N1+01701+01001999999ADDGA1021+012009999GF102991999999999999999999MA1101021999999MW1001REMMET062RJSK 181000Z VRB03KT 9999 FEW040 17/10 Q1010 RMK 1SC040 A2985;EQDQ01+000000PRSWM2
0216475450999992000052122004+39620+140220FM-15+0096RJSK V02099999999990060019N0112651N1+01401+01201999999ADDGA1021+001509999GA2021+003009999GA3071+006009999GF107991999999999999999999MA1101591999999MW1001REMMET090RJSK 212200Z VRB02KT 9999 FEW005 SCT010 BKN020 14/12 Q1016 RMK 1ST005 3ST010 6CU020 A3001;EQDQ01+000000PRSWM2
0101475450999992000052510004+39620+140220FM-15+0096RJSK V0209999999999220001CN0099001N1+01701+01201999999ADDMA1101291999999MW1001REMMET049RJSK 251000Z VRB03KT CAVOK 17/12 Q1013 RMK A2994;EQDQ01+000000PRSWM2
0235475450999992000061623104+39610+140210FM-16+0096RJSK V02099999999990015019N0030001N1+01801+01701999999ADDED199U20009GA1021+000309999GA2071+001509999GF107991999999999999999999MA1101391999999MW1411REMMET098RJSK 162310Z VRB03KT 3000 R28/P2000N PRFG FEW001 BKN005 18/17 Q1014 RMK 1ST001 7ST005 A2995 1400E;EQDQ01+000003PRSWM1Q02    003PRSWM1
0220475450999992000070200244+39610+140210FM-16+0096RJSK V0202801N003110012019N0004001N1+02201+02101999999ADDGA1021+000309999GA2071+001209999GF107991999999999999999999MA1101291999999MW1441REMMET094RJSK 020024Z 28006KT 0400 R28/0450V0750U FG SCT001 BKN004 22/21 Q1013 RMK 3ST001 7ST004 A2992;EQDQ01+000003PRSWM1Q02    003PRSWM1
0243475450999992000071807304+39610+140210FM-15+0096RJSK V0202601N006210018019N0050001N1+02301+02101999999ADDGA1021+000909999GA2071+001809999GA3071+003009999GF107991999999999999999999MA1100411999999MW1801REMMET101RJSK 180730Z 26012KT 5000 -SHRA FEW003 BKN006 BKN010 23/21 Q1004 RERA RMK 1ST003 5ST006 7ST010 A2966;EQDQ01+000003PRSWM1Q02    003PRSWM1
0224475450999992000072904004+39610+140210FM-15+0096RJSK V0201101N002110270019N0112651N1+02801+02101999999ADDGA1021+004509999GA2021+009009999GA3071+027009999GF107991999999999999999999MA1100711999999MW1001REMMET098RJSK 290400Z 11004KT 040V160 9999 FEW015 SCT030 BKN090 28/21 Q1007 RMK 1ST015 3CU030 7AC090 A2976;EQDQ01+000000PRSWM2
0224475450999992000072906004+39610+140210FM-15+0096RJSK V0201201N002110210019N0112651N1+02801+02101999999ADDGA1021+006009999GA2021+015009999GA3071+021009999GF107991999999999999999999MA1100711999999MW1001REMMET098RJSK 290600Z 12004KT 050V160 9999 FEW020 SCT050 BKN070 28/21 Q1007 RMK 2CU020 4SC050 7AC070 A2974;EQDQ01+000000PRSWM2
0179475450999992000072923004+39610+140210FM-15+0096RJSK V0201501N003619999999N0112651N1+02701+02101999999ADDGA1021+012009999GA2071+999999999GF107991999999999999999999MA1100611999999MW1001REMMET069RJSK 292300Z 15007KT 9999 FEW040 BKN/// 27/21 Q1006 RMK 1CU040 A2974;EQDQ01+000000PRSWM2
0156475450999992000082109004+39610+140210FM-15+0096RJSK V0203001N003112200019N0112651N1+02901+02001999999ADDGA1021+015009999GF102991999999999999999999MA1101021999999MW1001REMMET062RJSK 210900Z 30006KT 9999 FEW050 29/20 Q1010 RMK 1SC050 A2983;EQDQ01+000000PRSWM2
0186475450999992000082200004+39610+140210FM-15+0096RJSK V02099999999990300019N0112651N1+02901+02301999999ADDGA1021+012009999GA2071+030009999GF107991999999999999999999MA1101291999999MW1001REMMET076RJSK 220000Z VRB03KT 9999 FEW040 BKN100 29/23 Q1013 RMK 1CU040 5AC100 A2993;EQDQ01+000000PRSWM2
0217475450999992000090105004+39610+140210FM-15+0096RJSK V0202501N004610300019N0112651N1+03201+02101999999ADDGA1021+012009999GA2071+030009999GA3071+999999999GF107991999999999999999999MA1100611999999MW1001REMMET091RJSK 010500Z 25009KT 160V320 9999 FEW040 BKN100 BKN/// 32/21 Q1006 RMK 1CU040 6AC100 A2973;EQDQ01+000000PRSWM2
0241475450999992000091204004+39610+140210FM-15+0096RJSK V0201101N004110090019N0030001N1+02101+02001999999ADDGA1021+000309999GA2021+003009999GA3071+009009999GF107991999999999999999999MA1101081999999MW1611REMMET099RJSK 120400Z 11008KT 3000 -RA FEW001 SCT010 BKN030 21/20 Q1011 RERA RMK 1ST003 4ST010 6SC030 A2986;EQDQ01+000003PRSWM1Q02    003PRSWM1
0164475450999992000091605004+39610+140210FM-15+0096RJSK V0201401N007712200019N0112651N1+03101+02101999999ADDGA1021+012009999GF102991999999999999999999MA1100311999999MW1001REMMET070RJSK 160500Z 14015KT 100V180 9999 FEW040 31/21 Q1003 RMK 1CU040 A2964;EQDQ01+000000PRSWM2
0186475450999992000091909004+39610+140210FM-15+0096RJSK V02099999999992200019N0112651N1+02001+01601999999ADDGA1021+009009999GA2021+018009999GF104991999999999999999999MA1101901999999MW1001REMMET076RJSK 190900Z VRB01KT 9999 FEW030 SCT060 20/16 Q1019 RMK 1CU030 4SC060 A3009;EQDQ01+000000PRSWM2
0108475450999992000092201004+39610+140210FM-15+0096RJSK V0201701N00261220001CN0099001N1+99999+99999999999ADDMA1101901999999MW1001REMMET056RJSK 220100Z 17005KT 110V230 CAVOK 2/16 Q1019 RMK A3011;EQDQ01+000000PRSWM2
0156475450999992000100106004+39610+140210FM-15+0096RJSK V0202801N004612200019N0112651N1+02301+01601999999ADDGA1021+007509999GF102991999999999999999999MA1101291999999MW1001REMMET062RJSK 010600Z 28009KT 9999 FEW025 23/16 Q1013 RMK 1CU025 A2993;EQDQ01+000000PRSWM2
0217475450999992000100201004+39610+140210FM-15+0096RJSK V0201301N004619999999N0112651N1+01901+01601999999ADDGA1021+018009999GA2021+030009999GA3071+999999999GF107991999999999999999999MA1101191999999MW1001REMMET091RJSK 020100Z 13009KT 090V150 9999 FEW060 SCT100 BKN/// 19/16 Q1012 RMK 1SC060 3AC100 A2991;EQDQ01+000000PRSWM2
0156475450999992000100312004+39610+140210FM-15+0096RJSK V0203201N001012200019N0112651N1+01701+01401999999ADDGA1021+007509999GF102991999999999999999999MA1100811999999MW1001REMMET062RJSK 031200Z 32002KT 9999 FEW025 17/14 Q1008 RMK 2CU025 A2979;EQDQ01+000000PRSWM2
0170475450999992000101104004+39610+140210FM-15+0096RJSK V0201401N002610240019N0112651N1+01901+01201999999ADDGA1021+015009999GA2071+024009999GF107991999999999999999999MA1101191999999MW1001REMMET060RJSK 110400Z 14005KT 110V170 9999 SCT050 BKN080 19/12 Q1012;EQDQ01+000000PRSWM2
0186475450999992000101302004+39610+140210FM-15+0096RJSK V0202901N005710240019N0112651N1+01601+00401999999ADDGA1021+012009999GA2071+024009999GF107991999999999999999999MA1101491999999MW1001REMMET076RJSK 130200Z 29011KT 9999 SCT040 BKN080 16/04 Q1015 RMK 3CU040 6AC080 A2999;EQDQ01+000000PRSWM2
0101475450999992000110604004+39610+140210FM-15+0096RJSK V0209999999999220001CN0099001N1+01601+00101999999ADDMA1101901999999MW1001REMMET049RJSK 060400Z VRB03KT CAVOK 16/01 Q1019 RMK A3010;EQDQ01+000000PRSWM2
0101475450999992000110609004+39610+140210FM-15+0096RJSK V0201301N00211220001CN0099001N1+01001+00301999999ADDMA1101901999999MW1001REMMET049RJSK 060900Z 13004KT CAVOK 10/03 Q1019 RMK A3011;EQDQ01+000000PRSWM2
0287475450999992000111002104+39610+140210FM-16+0096RJSK V0201401N002110009019N0070001N1+00501+00501999999ADDED199U20009GA1021+000309999GA2071+000909999GA3071+003009999GF107991999999999999999999MA1102001999999MW1411MW2611REMMET128RJSK 100210Z 14004KT 110V190 7000 R28/P2000N -RA PRFG FEW001 BKN003 BKN010 05/05 Q1020 RMK 2ST001 5ST003 7ST010 A3014 0800NE-SE;EQDQ01+000003PRSWM1Q02    003PRSWM1
0187475450999992000111906004+39610+140210FM-15+0096RJSK V0203101N004610105019N0112651N1+00401-00301999999ADDGA1021+004509999GA2071+010509999GF107991999999999999999999MA1102911999999MW1001REMMET077RJSK 190600Z 31009KT 9999 FEW015 BKN035 04/M03 Q1029 RMK 1ST015 7CU035 A3042;EQDQ01+000000PRSWM2
0242475450999992000112002004+39610+140210FM-15+0096RJSK V0201401N004610150019N0112651N1+00101+00001999999ADDGA1021+002109999GA2021+003009999GA3071+015009999GF107991999999999999999999MA1102001999999MW1611REMMET100RJSK 200200Z 14009KT 9999 -RA FEW007 SCT010 BKN050 01/M00 Q1020 RMK 1ST007 3ST010 7SC050 A3013 P/FR;EQDQ01+000003PRSWM1Q02    003PRSWM1
0236475450999992000112011004+39610+140210FM-15+0096RJSK V0201201N004610180019N0112651N1+01001+00901999999ADDGA1021+003009999GA2021+004509999GA3071+018009999GF107991999999999999999999MA1100511999999MW1611REMMET094RJSK 201100Z 12009KT 9999 -RA FEW010 SCT015 BKN060 10/09 Q1005 RMK 1ST010 4ST015 7SC060 A2969;EQDQ01+000003PRSWM1Q02    003PRSWM1
0248475450999992000120623004+39610+140210FM-15+0096RJSK V0201401N002110105019N0112651N1-00501-00701999999ADDGA1021+001509999GA2021+003609999GA3071+010509999GF107991999999999999999999MA1102511999999MW1851REMMET106RJSK 062300Z 14004KT 080V200 9999 -SHSN FEW005 SCT012 BKN035 M05/M07 Q1025 RMK 1ST005 3ST012 7CU035 A3029;EQDQ01+000003PRSWM1Q02    003PRSWM1
0275475450999992000121001294+39610+140210FM-16+0096RJSK V0202601N00621220001CN0050001N1+01001+00801999999ADDGA1021+001509999GA2021+006009099GA3071+006009999MA1100811999999MW1181MW2811OC101651REMMET129RJSK 100129Z 26012G32KT 180V320 5000 SQ SHRA FEW005 BKN020 FEW020CB 10/08 Q1008 RMK 1ST005 7CU020 1CB020 A2977 CB ALL QUAD MOV E;EQDQ01+000022SCOTCVQ02+000003PRSWM1Q03    003PRSWM1
0239475450999992000121012004+39610+140210FM-15+0096RJSK V0203101N005110030019N0025001N1+00001-00101999999ADDGA1021+000909999GA2021+001509999GA3071+003009999GF107991999999999999999999MA1100811999999MW1851REMMET097RJSK 101200Z 31010KT 2500 -SHSN FEW003 SCT005 BKN010 00/M01 Q1008 RMK 1ST003 3ST005 7ST010 A2979;EQDQ01+000003PRSWM1Q02    003PRSWM1
0233475450999992000121421244+39610+140210FM-16+0096RJSK V0200901N001012200019N0112651N1-00201-00301999999ADDGA1021+000309999GA2021+012009999GF104991999999999999999999MA1102201999999MW1411REMMET107RJSK 142124Z 09002KT 9999 R28/0400VP2000D BCFG FEW001 SCT040 M02/M03 Q1022 RMK 1ST001 3CU040 A3018 0300N-E;EQDQ01+000003PRSWM1Q02    003PRSWM1
0233475450999992000122521224+39610+140210FM-16+0096RJSK V0203001N012310060019N0050001N1-00501-01001999999ADDGA1021+003009999GA2071+006009999GF107991999999999999999999MA1101021999999MW1381MW2851OC101901REMMET093RJSK 252122Z 30024G37KT 5000 -SHSN -BLSN FEW010 BKN020 M05/M10 Q1010 RMK 1ST010 7CU020 A2984;EQDQ01+000003PRSWM1Q02    003PRSWM1
0256475450999992000122623034+39610+140210FM-16+0096RJSK V0203001N007210045019N0060001N1-00301-00401999999ADDGA1021+001509999GA2071+004509999GA3071+006009999GF107991999999999999999999MA1102101999999MW1851OC101291REMMET106RJSK 262303Z 30014G25KT 6000 -SHSN FEW005 BKN015 BKN020 M03/M04 Q1021 RESN RMK 1ST005 5ST015 7CU020 A3016;EQDQ01+000003PRSWM1Q02    003PRSWM1
0064475450999992000123122004+39610+140210FM-15+0096RJSK V0202801N008712200019N0112651N1+99999+99999999999ADDMW1001REMMET027RJSK 312200Z 28017KT 9999 ;EQDQ01+000000PRSWM2
0185475490999992000012006004+39430+141130FM-15+0093RJSI V02099999999990090019N0112651N1+00501-00101999999ADDGA1021+006009999GA2071+009009999GF107991999999999999999999MA1100411999999MW1001REMMET075RJSI 0600Z VRB03KT 9999 FEW020 BKN030 05/M01 Q1004 RMK 1CU020 5CU030 A2966;EQDQ01+000000PRSWM2
0244475490999992000020700004+39430+141130FM-15+0093RJSI V0203301N002110030019N0025001N1+00001+00001999999ADDGA1021+001509999GA2071+003009999GA3071+006009999GF107991999999999999999999MA1100411999999MW1711REMMET102RJSI 0000Z 33004KT 280V360 2500 -SN SCT005 BKN010 BKN020 M00/M00 Q1004 RMK 4ST005 6ST010 7SC020 A2966;EQDQ01+000003PRSWM1Q02    003PRSWM1
0223475490999992000021905004+39430+141130FM-15+0093RJSI V0202701N003110105019N0112651N1+00401-00701999999ADDGA1021+009009999GA2071+010509999GA3071+045009999GF107991999999999999999999MA1101491999999MW1001REMMET097RJSI 0500Z 27006KT 220V310 9999 FEW030 BKN035 BKN150 04/M07 Q1015 RMK 1CU030 5CU035 5AC150 A2999;EQDQ01+000000PRSWM2
0245475490999992000022203424+39430+141130FM-16+0093RJSI V0201901N004610027019N0014001N1-00201-00301999999ADDGA1021+000609999GA2021+001209999GA3071+002709999GF107991999999999999999999MA1100811999999MW1001REMMET119RJSI 220342Z 19009KT 1400 R20/1400VP1800U -SHSN FEW002 SCT004 BKN009 M02/M03 Q1008 RESN RMK 2ST002 4ST004 7ST009 A2977;EQDQ01+000000PRSWM2
0179475490999992000022609004+39430+141130FM-15+0093RJSI V0201701N001512200019N0112651N1-00301-00701999999ADDGA1021+009009999GA2021+999999999GF104991999999999999999999MA1101391999999MW1001REMMET069RJSI 0900Z 17003KT 9999 FEW030 SCT/// M03/M07 Q1014 RMK 1CU030 A2995;EQDQ01+000000PRSWM2
0232475490999992000030401114+39430+141130FM-16+0093RJSI V02099999999999999999N0018001N1+00001-00101999999ADDGA1021+000609999GA2021+000909999GA3071+999999999GF107991999999999999999999MA1101691999999MW1411REMMET090RJSI 040111Z VRB02KT 1800 BCFG FEW002 SCT003 BKN/// M00/M01 Q1017 RMK 1ST002 4ST003 A3004;EQDQ01+000003PRSWM1Q02    003PRSWM1
0236475490999992000031810004+39430+141130FM-15+0093RJSI V02099999999990090019N0070001N1+00301+00101999999ADDGA1021+002409999GA2021+006009999GA3071+009009999GF107991999999999999999999MA1101391999999MW1801REMMET094RJSI 1000Z VRB02KT 7000 -SHRA FEW008 SCT020 BKN030 03/01 Q1014 RMK 1ST008 3CU020 7CU030 A2995;EQDQ01+000003PRSWM1Q02    003PRSWM1
0192475490999992000032903004+39430+141130FM-15+0093RJSI V0200601N002110120019N0112651N1+01101+00701999999ADDGA1021+010509999GA2071+012009999GF107991999999999999999999MA1099591999999MW1001REMMET082RJSI 0300Z 06004KT 010V080 9999 FEW035 BKN040 11/07 Q0996 RMK 2CU035 7CU040 A2942;EQDQ01+000000PRSWM2
0226475490999992000033006004+39430+141130FM-15+0093RJSI V0202701N005110090019N0112651N1+00601+00001999999ADDGA1071+009009999GA2071+010509999GF107991999999999999999999MA1100311999999MW1801OC101031REMMET092RJSI 0600Z 27010G20KT 200V340 9999 -SHRA BKN030 BKN035 06/M00 Q1003 RMK 5CU030 7CU035 A2962;EQDQ01+000003PRSWM1Q02    003PRSWM1
0246475490999992000040508434+39430+141130FM-16+0093RJSI V0209999C000010030019N0012001N1+01001+00901999999ADDED199U18009GA1021+001509999GA2071+003009999GF107991999999999999999999MA1100411999999MW1631REMMET093RJSI 050843Z 00000KT 1200 R20/P1800N RA BR SCT005 BKN010 10/09 Q1004 RMK 3ST005 7ST010 A2966;EQDQ01+000100PRSWM3Q02+000003PRSWM1Q03    003PRSWM1
0234475490999992000040509004+39430+141130FM-15+0093RJSI V0202801N000510030019N0010001N1+01001+00901999999ADDED199U18009GA1021+001509999GA2071+003009999GF107991999999999999999999MA1100411999999MW1101MW2631REMMET091RJSI 0900Z 28001KT 1000 R20/P1800N RA BR SCT005 BKN010 10/09 Q1004 RMK 3ST005 7ST010 A2965;EQDQ01+000003PRSWM1Q02    003PRSWM1
0242475490999992000041405004+39430+141130FM-15+0093RJSI V0202201N00211009001CN0035001N1+01001+00901999999ADDGA1021+001509999GA2021+006009099GA3071+006009999GA4071+009009999GF107991999999999999999999MA1100411999999MW1101MW2801MW3951REMMET088RJSI 0500Z 22004KT 170V280 3500 -TSRA BR FEW005 BKN020 FEW020CB BKN030 10/09 Q1004 RERA;EQDQ01+000003PRSWM1
0225475490999992000041706004+39430+141130FM-15+0093RJSI V0202601N006210090019N0112651N1+00801+00101999999ADDGA1021+007509999GA2071+009009999GF107991999999999999999999MA1101191999999MW1801OC101181REMMET091RJSI 0600Z 26012G23KT 230V300 9999 -SHRA FEW025 BKN030 08/01 Q1012 RMK 2CU025 6CU030 A2991;EQDQ01+000003PRSWM1Q02    003PRSWM1
0109475490999992000042523004+39430+141130FM-15+0093RJSI V0200201N00261220001CN0099001N1+00901+00401999999ADDMA1101191999999MW1001REMMET057RJSI 252300Z 02005KT 340V050 CAVOK 09/04 Q1012 RMK A2989;EQDQ01+000000PRSWM2
0216475490999992000042806004+39430+141130FM-15+0093RJSI V0202201N003110090019N0112651N1+01201+00501999999ADDGA1021+006009999GA2071+009009999GF107991999999999999999999MA1099801999999MW1801REMMET090RJSI 280600Z 22006KT 180V260 9999 -SHRA FEW020 BKN030 12/05 Q0998 RMK 1CU020 6CU030 A2950;EQDQ01+000003PRSWM1Q02    003PRSWM1
0277475490999992000052406004+39430+141130FM-15+0093RJSI V0203201N00211021001CN0112651N1+01701+01201999999ADDGA1021+004509999GA2021+009009099GA3071+009009999GA4071+021009999GF107991999999999999999999MA1100711999999MW1001REMMET135RJSI 240600Z 32004KT 260V010 9999 FEW015 BKN030 FEW030CB BKN070 17/12 Q1007 RETS RMK 1CU015 5CU030 1CB030 7AC070 A2974 CB S-W MOV UNKN;EQDQ01+000000PRSWM2
0194475490999992000060202004+39430+141130FM-15+0093RJSI V0202901N006712200019N0112651N1+02001+01201999999ADDGA1021+007509999GA2021+009009999GF104991999999999999999999MA1101291999999MW1001REMMET084RJSI 020200Z 29013KT 260V330 9999 FEW025 SCT030 20/12 Q1013 RMK 1CU025 3CU030 A2994;EQDQ01+000000PRSWM2
0194475490999992000061300004+39430+141130FM-15+0093RJSI V0201801N002110210019N0112651N1+01901+01401999999ADDGA1021+006009999GA2071+021009999GF107991999999999999999999MA1100711999999MW1001REMMET084RJSI 130000Z 18004KT 120V220 9999 FEW020 BKN070 19/14 Q1007 RMK 1SC020 7AC070 A2974;EQDQ01+000000PRSWM2
0217475490999992000062402004+39420+141120FM-15+0093RJSI V0201901N004610120019N0112651N1+02401+01601999999ADDGA1021+006009999GA2071+012009999GA3081+999999999GF108991999999999999999999MA1100811999999MW1001REMMET091RJSI 240200Z 19009KT 150V220 9999 FEW020 BKN040 OVC/// 24/16 Q1008 RMK 1CU020 5SC040 A2979;EQDQ01+000000PRSWM2
0224475490999992000062601004+39420+141120FM-15+0093RJSI V0201801N003110075019N0112651N1+02001+01301999999ADDGA1021+006009999GA2071+007509999GA3071+009009999GF107991999999999999999999MA1101491999999MW1001REMMET098RJSI 260100Z 18006KT 140V230 9999 FEW020 BKN025 BKN030 20/13 Q1015 RMK 1SC020 5SC025 7SC030 A2998;EQDQ01+000000PRSWM2
0236475490999992000062807004+39420+141120FM-15+0093RJSI V02099999999990039019N0080001N1+02301+02101999999ADDGA1021+001509999GA2021+003009999GA3071+003909999GF107991999999999999999999MA1099901999999MW1611REMMET094RJSI 280700Z VRB03KT 8000 -RA FEW005 SCT010 BKN013 23/21 Q0999 RMK 1ST005 3SC010 7SC013 A2950;EQDQ01+000003PRSWM1Q02    003PRSWM1
0231475490999992000070406044+39420+141120FM-16+0093RJSI V02099999999992200019N0112651N1+02701+01801999999ADDGA1021+010509999GA2021+012009099GF102991999999999999999999MA1101081999999MW1171REMMET105RJSI 040604Z VRB07G17KT 9999 TS SCT035 FEW040CB 27/18 Q1011 RMK 3CU035 2CB040 A2987 FBL TS 15KM NW MOV S;EQDQ01+000003PRSWM1Q02    003PRSWM1
0164475490999992000071005004+39420+141120FM-15+0093RJSI V0202101N004112200019N0112651N1+02801+01601999999ADDGA1021+012009999GF102991999999999999999999MA1101191999999MW1001REMMET070RJSI 100500Z 21008KT 180V260 9999 FEW040 28/16 Q1012 RMK 2CU040 A2989;EQDQ01+000000PRSWM2
0186475490999992000072102004+39420+141120FM-15+0093RJSI V02099999999990045019N0112651N1+02501+02201999999ADDGA1021+003009999GA2071+004509999GF107991999999999999999999MA1100911999999MW1001REMMET076RJSI 210200Z VRB01KT 9999 FEW010 BKN015 25/22 Q1009 RMK 2ST010 7SC015 A2980;EQDQ01+000000PRSWM2
0186475490999992000081108004+39420+141120FM-15+0093RJSI V0201801N003610120019N0112651N1+02601+02201999999ADDGA1021+007509999GA2071+012009999GF107991999999999999999999MA1100311999999MW1001REMMET076RJSI 110800Z 18007KT 9999 SCT025 BKN040 26/22 Q1003 RMK 3CU025 6CU040 A2965;EQDQ01+000000PRSWM2
0255475490999992000090523124+39420+141120FM-16+0093RJSI V0209999C000010021019N0045001N1+01901+01801999999ADDGA1021+001209999GA2071+002109999GA3071+004509999GF107991999999999999999999MA1100711999999MW1611REMMET097RJSI 052312Z 00000KT 4500 -RA BR FEW004 BKN007 BKN015 19/18 Q1007 RMK 2ST004 6ST007 7ST015 A2976;EQDQ01+000100PRSWM3Q02+000003PRSWM1Q03    003PRSWM1
0225475490999992000091023004+39420+141120FM-15+0093RJSI V0203601N002110009019N0035001N1+02001+01901999999ADDGA1071+000909999GA2071+001209999GF107991999999999999999999MA1101391999999MW1101MW2801REMMET093RJSI 102300Z 36004KT 320V030 3500 -SHRA BR BKN003 BKN004 20/19 Q1014 RMK 5ST003 7ST004 A2996;EQDQ01+000003PRSWM1Q02    003PRSWM1
0237475490999992000091709044+39420+141120FM-16+0093RJSI V0201701N005710045019N0112651N1+02501+02401999999ADDGA1021+001509999GA2021+003009999GA3071+004509999GF107991999999999999999999MA1100311999999MW1811REMMET095RJSI 170904Z 17011KT 9999 SHRA FEW005 SCT010 BKN015 25/24 Q1003 RMK 1ST005 4CU010 7CU015 A2964;EQDQ01+000003PRSWM1Q02    003PRSWM1
0156475490999992000092008004+39420+141120FM-15+0093RJSI V02099999999992200019N0112651N1+02301+01401999999ADDGA1021+018009999GF102991999999999999999999MA1102301999999MW1001REMMET062RJSI 200800Z VRB03KT 9999 FEW060 23/14 Q1023 RMK 1SC060 A3021;EQDQ01+000000PRSWM2
0179475490999992000102208004+39420+141120FM-15+0093RJSI V02099999999999999999N0112651N1+01301+00301999999ADDGA1021+010509999GA2071+999999999GF107991999999999999999999MA1102301999999MW1001REMMET069RJSI 220800Z VRB03KT 9999 FEW035 BKN/// 13/03 Q1023 RMK 1CU035 A3022;EQDQ01+000000PRSWM2
0159475490999992000102604004+39420+141120FM-15+0093RJSI V02099999999992200019N0112651N1+01401+00301999999ADDGA1021+010509999GF104991999999999999999999MA1101291999999MW1001REMMET065RJSI 260400Z VRB14G24KT 9999 SCT035 14/03 Q1013 RMK 4CU035 A2992;EQDQ01+000000PRSWM2
0194475490999992000111602004+39420+141120FM-15+0093RJSI V0200101N003119999999N0112651N1+00501-00501999999ADDGA1021+010509999GA2021+036009999GA3071+999999999GF107991999999999999999999MA1102911999999MW1001REMMET068RJSI 160200Z 01006KT 330V040 9999 FEW035 SCT120 BKN/// 05/M05 Q1029;EQDQ01+000000PRSWM2
0251475490999992000121004004+39420+141120FM-15+0093RJSI V0201301N002110060019N0080001N1+00801+00701999999ADDGA1021+000909999GA2071+006009999GA3071+024009999GF107991999999999999999999MA1100711999999MW1801REMMET109RJSI 100400Z 13004KT 100V160 8000 -SHRA FEW003 BKN020 BKN080 08/07 Q1007 RERA RMK 1ST003 6CU020 7AC080 A2974;EQDQ01+000003PRSWM1Q02    003PRSWM1
0235475490999992000121202004+39420+141120FM-15+0093RJSI V0202801N007710060019N0112651N1+99999+99999999999ADDGA1021+001509999GA2021+004509999GA3071+006009999GF107991999999999999999999MW1001MW2851OC101441REMMET110RJSI 120200Z 28015G28KT 240V310 9999 -SHSN FEW005 SCT015 BKN020 M01/M0 9 Q1008 RMK 1ST005 3CU015 5CU020 A2979;EQDQ01+000003PRSWM1
0217475490999992000121402004+39420+141120FM-15+0093RJSI V0203301N002110180019N0112651N1+00101-00501999999ADDGA1021+012009999GA2071+018009999GA3071+024009999GF107991999999999999999999MA1102001999999MW1001REMMET091RJSI 140200Z 33004KT 9999 FEW040 BKN060 BKN080 01/M05 Q1020 RMK 1SC040 5SC060 7AC080 A3015;EQDQ01+000000PRSWM2
0195475490999992000122101004+39420+141120FM-15+0093RJSI V0203001N004112200019N0112651N1+00601-00301999999ADDGA1021+009009999GA2021+012009999GF104991999999999999999999MA1100711999999MW1001REMMET085RJSI 210100Z 30008KT 260V340 9999 FEW030 SCT040 06/M03 Q1007 RMK 1CU030 3CU040 A2975;EQDQ01+000000PRSWM2
0261475530999992000011600004+38420+140370FM-15+0108RJSC V02099999999990045019N0018001N1+00001-00101999999ADDGA1021+000609999GA2021+001809999GA3071+004509999GF107991999999999999999999MA1102301999999MW1101MW2411REMMET113RJSC 0000Z VRB03KT 1800 BCFG BR FEW002 SCT006 BKN015 M00/M01 Q1023 RMK 1ST002 4ST006 5ST015 A3023 FG N AND SE-SW;EQDQ01+000003PRSWM1Q02    003PRSWM1
0196475530999992000011602004+38420+140370FM-15+0108RJSC V02099999999999999999N0035001N1+00201+00101999999ADDGA1021+003009999GA2071+999999999GF107991999999999999999999MA1102201999999MW1101REMMET070RJSC 0200Z VRB01KT 3500 BR FEW010 BKN/// 02/01 Q1022 RMK 1ST010 A3018;EQDQ01+000003PRSWM1Q02    003PRSWM1
0261475530999992000012110204+38420+140370FM-15+0108RJSC V02099999999990030019N0010001N1-00201-00301999999ADDED199U18009GA1021+000909999GA2071+003009999GA3071+006009999GF107991999999999999999999MA1102301999999MW1861REMMET108RJSC 211020Z VRB03KT 1000 R01/P1800N SHSN FEW003 BKN010 BKN020 M02/M03 Q1023 RMK 1ST003 5ST010 7CU020 A3022;EQDQ01+000003PRSWM1Q02    003PRSWM1
0239475530999992000012808434+38420+140370FM-16+0108RJSC V02099999999990120019N0112651N1+00101+00001999999ADDGA1021+001509999GA2021+003009999GA3071+012009999GF107991999999999999999999MA1102711999999MW1851REMMET097RJSC 280843Z VRB01KT 9999 -SHSN FEW005 SCT010 BKN040 01/M00 Q1027 RMK 1ST005 3CU010 7CU040 A3033;EQDQ01+000003PRSWM1Q02    003PRSWM1
0186475530999992000012810004+38420+140370FM-15+0108RJSC V0201301N001510150019N0112651N1+00001-00101999999ADDGA1021+001509999GA2071+015009999GF107991999999999999999999MA1102711999999MW1001REMMET076RJSC 1000Z 13003KT 9999 FEW005 BKN050 M00/M01 Q1027 RMK 1ST005 5CU050 A3034;EQDQ01+000000PRSWM2
0241475530999992000012823374+38420+140370FM-16+0108RJSC V02099999999992200019N0048001N1-00401-00501999999ADDGA1021+003009999GA2021+013509999GF104991999999999999999999MA1103121999999MW1401REMMET099RJSC 282337Z VRB01KT 4800 VCFG BR FEW010 SCT045 M04/M05 Q1031 RMK 1ST010 3CU045 A3047 FG S-W AND N;EQDQ01+000100PRSWM3Q02+000003PRSWM1Q03    003PRSWM1
0238475530999992000013122004+38420+140370FM-15+0108RJSC V02099999999990150019N0080001N1-00301-00301999999ADDGA1021+001509999GA2021+006009999GA3071+015009999GF107991999999999999999999MA1102301999999MW1851REMMET096RJSC 2200Z VRB02KT 8000 -SHSN FEW005 SCT020 BKN050 M03/M03 Q1023 RMK 1ST005 3CU020 7CU050 A3023;EQDQ01+000003PRSWM1Q02    003PRSWM1
0185475530999992000020110004+38420+140370FM-15+0108RJSC V02099999999992200019N0112651N1+00001-00101999999ADDGA1021+005409999GA2021+009009999GF104991999999999999999999MA1102201999999MW1001REMMET075RJSC 1000Z VRB03KT 9999 FEW018 SCT030 00/M01 Q1022 RMK 1CU018 3CU030 A3018;EQDQ01+000000PRSWM2
0185475530999992000020200004+38420+140370FM-15+0108RJSC V02099999999990135019N0112651N1+00101-00201999999ADDGA1021+007509999GA2071+013509999GF107991999999999999999999MA1102001999999MW1001REMMET075RJSC 0000Z VRB03KT 9999 FEW025 BKN045 01/M02 Q1020 RMK 1CU025 7SC045 A3012;EQDQ01+000000PRSWM2
0206475530999992000021110004+38420+140370FM-15+0108RJSC V02099999999990090019N0112651N1+00101-00101999999ADDGA1021+004509999GA2071+009009999GF107991999999999999999999MA1101021999999MW1851REMMET080RJSC 1000Z VRB02KT 9999 -SHSN FEW015 BKN030 01/M01 Q1010 RMK 1ST015 6CU030 A285;EQDQ01+000003PRSWM1Q02    003PRSWM1
0185475530999992000021302004+38420+140370FM-15+0108RJSC V0200101N004610105019N0112651N1+00101-00301999999ADDGA1021+006009999GA2071+010509999GF107991999999999999999999MA1101491999999MW1001REMMET075RJSC 0200Z 01009KT 9999 FEW020 BKN035 01/M03 Q1015 RMK 1CU020 6CU035 A2997;EQDQ01+000000PRSWM2
0179475530999992000021909004+38420+140370FM-15+0108RJSC V0200301N001519999999N0112651N1-00101-00201999999ADDGA1021+005409999GA2071+999999999GF107991999999999999999999MA1101591999999MW1001REMMET069RJSC 0900Z 03003KT 9999 FEW018 BKN/// M01/M02 Q1016 RMK 1CU018 A3001;EQDQ01+000000PRSWM2
0246475530999992000022023004+38420+140370FM-15+0108RJSC V0203501N002110105019N0112651N1-00201-00301999999ADDGA1021+000909999GA2021+005409999GA3071+010509999GF107991999999999999999999MA1100411999999MW1851REMMET104RJSC 2300Z 35004KT 300V010 9999 -SHSN FEW003 SCT018 BKN035 M02/M03 Q1004 RMK 1ST003 3ST018 6CU035 A2966;EQDQ01+000003PRSWM1Q02    003PRSWM1
0250475530999992000022402004+38420+140370FM-15+0108RJSC V02099999999990039019N0025001N1-00201-00301999999ADDGA1021+001209999GA2071+003909999GA3071+006009999GF107991999999999999999999MA1101191999999MW1851REMMET108RJSC 0200Z VRB02KT 2500 -SHSN FEW004 BKN013 BKN020 M02/M03 Q1012 RESN RMK 1ST004 5ST013 7CU020 A2990 6000SW;EQDQ01+000003PRSWM1Q02    003PRSWM1
0216475530999992000022809004+38420+140370FM-15+0108RJSC V0200201N002610150019N0112651N1-00101-00401999999ADDGA1021+002409999GA2021+012009999GA3071+015009999GF107991999999999999999999MA1101081999999MW1001REMMET090RJSC 0900Z 02005KT 9999 FEW008 SCT040 BKN050 M01/M04 Q1011 RMK 1ST008 4CU040 7CU050 A2987;EQDQ01+000000PRSWM2
0204475530999992000030401004+38420+140370FM-15+0108RJSC V02099999999990420019N0050001N1+00201-00201999999ADDGA1021+030009999GA2071+042009999GF107991999999999999999999MA1101691999999MW1101REMMET078RJSC 0100Z VRB03KT 5000 BR FEW100 BKN140 02/M02 Q1017 RMK 1AC100 7AC140 A3004;EQDQ01+000003PRSWM1Q02    003PRSWM1
0248475530999992000031308454+38420+140370FM-15+0108RJSC V0203401N002610090019N0022001N1-00101-00201999999ADDGA1021+000909999GA2021+004509999GA3071+009009999GF107991999999999999999999MA1101391999999MW1851REMMET106RJSC 130845Z 34005KT 290V020 2200 -SHSN FEW003 SCT015 BKN030 M01/M02 Q1014 RMK 1ST003 4ST015 7CU030 A2995;EQDQ01+000003PRSWM1Q02    003PRSWM1
0178475530999992000031510004+38420+140370FM-15+0108RJSC V02099999999999999999N0112651N1+00201-00501999999ADDGA1021+009009999GA2071+999999999GF107991999999999999999999MA1101901999999MW1001REMMET068RJSC 1000Z VRB03KT 9999 FEW030 BKN/// 02/M05 Q1019 RMK 1CU030 A3011;EQDQ01+000000PRSWM2
0208475530999992000032103004+38420+140370FM-15+0108RJSC V02099999999990120019N0112651N1+00601-00201999999ADDGA1021+006009999GA2071+012009999GA3071+999999999GF107991999999999999999999MA1101691999999MW1001REMMET082RJSC 0300Z VRB03KT 9999 FEW020 BKN040 BKN/// 06/M02 Q1017 RMK 1CU020 5CU040 A3005;EQDQ01+000000PRSWM2
0215475530999992000032110004+38420+140370FM-15+0108RJSC V0200201N004110180019N0112651N1+00401-00301999999ADDGA1021+006009999GA2071+018009999GA3081+024009999GF108991999999999999999999MA1101591999999MW1001REMMET089RJSC 1000Z 02008KT 9999 FEW020 BKN060 OVC080 04/M03 Q1016 RMK 1CU020 5SC060 8AS080 A3002;EQDQ01+000000PRSWM2
0216475530999992000040205004+38420+140370FM-15+0108RJSC V0202801N006219999999N0112651N1+00901-00701999999ADDGA1021+006009999GA2021+012009999GA3071+999999999GF107991999999999999999999MA1102001999999MW1001REMMET090RJSC 0500Z 28012KT 250V340 9999 FEW020 SCT040 BKN/// 09/M07 Q1020 RMK 1CU020 3CU040 A3015;EQDQ01+000000PRSWM2
0178475530999992000040210004+38420+140370FM-15+0108RJSC V0202801N004119999999N0112651N1+00501-00601999999ADDGA1021+006009999GA2071+999999999GF107991999999999999999999MA1102301999999MW1001REMMET068RJSC 1000Z 28008KT 9999 FEW020 BKN/// 05/M06 Q1023 RMK 1CU020 A3022;EQDQ01+000000PRSWM2
0186475530999992000043009004+38420+140370FM-15+0108RJSC V0200701N004610300019N0112651N1+01601+00201999999ADDGA1021+021009999GA2081+030009999GF108991999999999999999999MA1101081999999MW1001REMMET076RJSC 300900Z 07009KT 9999 SCT070 OVC100 16/02 Q1011 RMK 4AC070 8AC100 A2987;EQDQ01+000000PRSWM2
0185475530999992000050302004+38420+140370FM-15+0108RJSC V02099999999990180019N0112651N1+01301+01001999999ADDGA1021+004509999GA2021+009009999GA3071+018009999GF107991999999999999999999MA1101021999999MW1001REMMET059RJSC 030200Z VRB02KT 9999 FEW015 SCT030 BKN060 13/10 Q1010;EQDQ01+000000PRSWM2
0101475530999992000050908004+38420+140370FM-15+0108RJSC V0203601N00621220001CN0099001N1+01901+01001999999ADDMA1101391999999MW1001REMMET049RJSC 090800Z 36012KT CAVOK 19/10 Q1014 RMK A2995;EQDQ01+000000PRSWM2
0186475530999992000051622004+38420+140370FM-15+0108RJSC V02099999999992200019N0080001N1+01201+01001999999ADDGA1021+004509999GA2021+030009999GF104991999999999999999999MA1101081999999MW1001REMMET076RJSC 162200Z VRB03KT 8000 FEW015 SCT100 12/10 Q1011 RMK 1ST015 4AC100 A2987;EQDQ01+000000PRSWM2
0236475530999992000052005004+38420+140370FM-15+0108RJSC V0200801N003110180019N0112651N1+01601+01201999999ADDGA1021+003609999GA2021+013509999GA3071+018009999GF107991999999999999999999MA1101191999999MW1611REMMET094RJSC 200500Z 08006KT 9999 -RA FEW012 SCT045 BKN060 16/12 Q1012 RMK 1ST012 3SC045 7SC060 A2990;EQDQ01+000003PRSWM1Q02    003PRSWM1
0251475530999992000052121444+38420+140370FM-16+0108RJSC V02099999999990036019N0016001N1+01101+01101999999ADDGA1021+000609999GA2021+001209999GA3071+003609999GF107991999999999999999999MA1101691999999MW1101REMMET109RJSC 212144Z VRB03KT 1600 R01/0800VP1800U BR FEW002 SCT004 BKN012 11/11 Q1017 RMK 1ST002 4ST004 7ST012 A3003;EQDQ01+000003PRSWM1Q02    003PRSWM1
0156475530999992000060205004+38420+140370FM-15+0108RJSC V0203601N008712200019N0112651N1+02101+01401999999ADDGA1021+010809999GF102991999999999999999999MA1101291999999MW1001REMMET062RJSC 020500Z 36017KT 9999 FEW036 21/14 Q1013 RMK 1CU036 A2993;EQDQ01+000000PRSWM2
0216475530999992000061209004+38420+140370FM-15+0108RJSC V0200701N003110270019N0112651N1+01901+01401999999ADDGA1021+006009999GA2071+027009999GA3081+036009999GF108991999999999999999999MA1100711999999MW1001REMMET090RJSC 120900Z 07006KT 9999 FEW020 BKN090 OVC120 19/14 Q1007 RMK 1ST020 6AC090 8AS120 A2976;EQDQ01+000000PRSWM2
0100475530999992000062108004+38420+140370FM-15+0108RJSC V0203601N00571220001CN0099001N1+02601+01801999999ADDMA1100611999999MW1001REMMET048RJSC 210800Z 36011KT CAVOK 26/18 Q1006 MK A2971;EQDQ01+000000PRSWM2
0179475530999992000062110004+38420+140370FM-15+0108RJSC V0203601N007219999999N0080001N1+02301+01901999999ADDGA1021+045009999GA2071+999999999GF107991999999999999999999MA1100711999999MW1001REMMET069RJSC 211000Z 36014KT 8000 SCT150 BKN/// 23/19 Q1007 RMK 3AC150 A2974;EQDQ01+000000PRSWM2
0198475530999992000062201004+38420+140370FM-15+0108RJSC V02099999999999999999N0060001N1+02501+01801999999ADDGA1021+009009999GA2071+999999999GF107991999999999999999999MA1100911999999MW1101REMMET072RJSC 220100Z VRB03KT 6000 BR FEW030 BKN/// 25/18 Q1009 RMK 1CU030 A2982;EQDQ01+000003PRSWM1Q02    003PRSWM1
0216475530999992000062623004+38420+140370FM-15+0108RJSC V02099999999990150019N0080001N1+02001+01701999999ADDGA1021+005409999GA2021+007809999GA3071+015009999GF107991999999999999999999MA1101081999999MW1001REMMET090RJSC 262300Z VRB02KT 8000 FEW018 SCT026 BKN050 20/17 Q1011 RMK 1ST018 3SC026 5SC050 A2986;EQDQ01+000000PRSWM2
0216475530999992000062809004+38420+140370FM-15+0108RJSC V0203501N006210120019N0112651N1+02201+01901999999ADDGA1021+004509999GA2071+012009999GA3071+030009999GF107991999999999999999999MA1100001999999MW1001REMMET090RJSC 280900Z 35012KT 9999 FEW015 BKN040 BKN100 22/19 Q1000 RMK 1ST015 6SC040 7AC100 A2954;EQDQ01+000000PRSWM2
0237475530999992000070206004+38420+140370FM-15+0108RJSC V0203601N004610150019N0112651N1+02901+02301999999ADDGA1021+009609999GA2021+010509099GA3071+015009999GF107991999999999999999999MA1101081999999MW1001REMMET111RJSC 020600Z 36009KT 9999 FEW032 FEW035CB BKN050 29/23 Q1011 RMK 1CU032 1CB035 5CU050 A2985 CB 20KM NE-SE OV E;EQDQ01+000000PRSWM2
0276475530999992000070406004+38420+140370FM-15+0108RJSC V0203601N002610105019N0080001N1+02401+02001999999ADDGA1021+007509999GA2071+010509099GA3071+015009999GF107991999999999999999999MA1101191999999MW1801MW2951REMMET128RJSC 040600Z 36005KT 320V040 8000 -TSRA FEW025 BKN035CB BKN050 24/20 Q1012 RMK 1CU025 5CB035 7CU050 A2989 MOD TS ALL QUAD MOV E;EQDQ01+000003PRSWM1Q02    003PRSWM1
0216475530999992000071302004+38420+140370FM-15+0108RJSC V02099999999990150019N0070001N1+02401+02301999999ADDGA1021+003009999GA2021+010509999GA3071+015009999GF107991999999999999999999MA1100411999999MW1001REMMET090RJSC 130200Z VRB03KT 7000 FEW010 SCT035 BKN050 24/23 Q1004 RMK 1ST010 4CU035 6CU050 A2967;EQDQ01+000000PRSWM2
0156475530999992000073100004+38420+140370FM-15+0108RJSC V02099999999992200019N0060001N1+02901+02501999999ADDGA1021+009009999GF102991999999999999999999MA1100711999999MW1001REMMET062RJSC 310000Z VRB02KT 6000 FEW030 29/25 Q1007 RMK 1CU030 A2975;EQDQ01+000000PRSWM2
0156475530999992000073110004+38420+140370FM-15+0108RJSC V0203601N004112200019N0112651N1+02801+02501999999ADDGA1021+004809999GF102991999999999999999999MA1100611999999MW1001REMMET062RJSC 311000Z 36008KT 9999 FEW016 28/25 Q1006 RMK 1ST016 A2972;EQDQ01+000000PRSWM2
0186475530999992000080201004+38420+140370FM-15+0108RJSC V02099999999990180019N0112651N1+02901+02301999999ADDGA1021+004809999GA2071+018009999GF107991999999999999999999MA1101291999999MW1001REMMET076RJSC 020100Z VRB01KT 9999 FEW016 BKN060 29/23 Q1013 RMK 1CU016 7SC060 A2992;EQDQ01+000000PRSWM2
0298475530999992000080806004+38420+140370FM-15+0108RJSC V0202501N00461027001CN0112651N1+02601+02101999999ADDGA1021+002409999GA2021+007509099GA3021+027009999GA4071+033009999GF107991999999999999999999MA1101291999999MW1801REMMET140RJSC 080600Z 25009KT 9999 -SHRA FEW008 FEW025CB SCT090 BKN110 26/21 Q1013 RETS RMK 1ST008 1CB025 4AC090 6AC110 A2992 CB 20KM SW MOV UNKNOWN;EQDQ01+000003PRSWM1Q02    003PRSWM1
0226475530999992000080910004+38420+140370FM-15+0108RJSC V02099999999990360019N0080001N1+02301+02201999999ADDGA1021+000609999GA2021+009009999GA3071+036009999GF107991999999999999999999MA1101191999999MW1001REMMET100RJSC 091000Z VRB02KT 8000 FEW002 SCT030 BKN120 23/22 Q1012 RETS RERA RMK 1ST002 3CU030 7AC120 A2990;EQDQ01+000000PRSWM2
0193475530999992000081204004+38420+140370FM-15+0108RJSC V0203501N003110150019N0112651N1+03201+02301999999ADDGA1021+007509999GA2071+015009999GF107991999999999999999999MA1100611999999MW1001REMMET083RJSC 120400Z 35006KT 320V030 9999 FEW025 BKN050 32/23Q1006 RMK 1CU025 6CU050 A2971;EQDQ01+000000PRSWM2
0214475530999992000081608004+38420+140370FM-15+0108RJSC V0200901N004119999999N0112651N1+02701+02001999999ADDGA1021+004809999GA2021+013509999GA3071+999999999GF107991999999999999999999MA1100711999999MW1001REMMET088RJSC 160800Z 09008KT 9999 FEW016 SCT045 BKN/// 27/20 Q1007 RETS RMK 1ST016 3CU045 A2976;EQDQ01+000000PRSWM2
0164475530999992000090210004+38420+140370FM-15+0108RJSC V0202401N002112200019N0112651N1+02701+01801999999ADDGA1021+012009999GF102991999999999999999999MA1100001999999MW1001REMMET070RJSC 021000Z 24004KT 210V270 9999 FEW040 27/18 Q1000 RMK 1CU040 A2955;EQDQ01+000000PRSWM2
0186475530999992000091909004+38420+140370FM-15+0108RJSC V0200601N005710150019N0112651N1+02401+01701999999ADDGA1021+009009999GA2071+015009999GF107991999999999999999999MA1101901999999MW1001REMMET076RJSC 190900Z 06011KT 9999 FEW030 BKN050 24/17 Q1019 RMK 1SC030 6CU050 A3009;EQDQ01+000000PRSWM2
0235475530999992000100201004+38420+140370FM-15+0108RJSC V02099999999990300019N0050001N1+01701+01501999999ADDGA1021+002409999GA2021+021009999GA3071+030009999GF107991999999999999999999MA1101391999999MW1101REMMET093RJSC 020100Z VRB01KT 5000 BR FEW008 SCT070 BKN100 17/15 Q1014 RMK 1ST008 3AC070 6AC100 A2995;EQDQ01+000003PRSWM1Q02    003PRSWM1
0156475530999992000100608004+38420+140370FM-15+0108RJSC V0200201N004112200019N0112651N1+01701+00901999999ADDGA1021+006009999GF102991999999999999999999MA1102001999999MW1001REMMET062RJSC 060800Z 02008KT 9999 FEW020 17/09 Q1020 RMK 1CU020 A3014;EQDQ01+000000PRSWM2
0209475530999992000101008004+38420+140370FM-15+0108RJSC V0200201N004619999999N0080001N1+02001+01501999999ADDGA1021+007509999GA2021+039009999GA3071+999999999GF107991999999999999999999MA1101391999999MW1001REMMET083RJSC 100800Z 02009KT 8000 FEW025 SCT130 BKN/// 20/15 Q1014 RMK 1CU025 3AC130 A2994;EQDQ01+000000PRSWM2
0254475530999992000110222004+38420+140370FM-15+0108RJSC V0201301N000510135019N0032001N1+01101+01101999999ADDGA1021+000309999GA2021+003009999GA3071+013509999GF107991999999999999999999MA1102001999999MW1101MW2401REMMET106RJSC 022200Z 13001KT 3200 VCFG BR FEW001 SCT010 BKN045 11/11 Q1020 RMK 1ST001 4ST010 7SC045 A3013 FG E-SE;EQDQ01+000003PRSWM1Q02    003PRSWM1
0209475530999992000111205004+38420+140370FM-15+0108RJSC V02099999999999999999N0112651N1+01101+00301999999ADDGA1021+013509999GA2021+036009999GA3071+999999999GF107991999999999999999999MA1101691999999MW1001REMMET083RJSC 120500Z VRB02KT 9999 FEW045 SCT120 BKN/// 11/03 Q1017 RMK 1CU045 3AC120 A3004;EQDQ01+000000PRSWM2
0157475530999992000112210004+38420+140370FM-15+0108RJSC V0200201N004610135019N0112651N1+00401-00201999999ADDGA1071+013509999GF107991999999999999999999MA1102911999999MW1001REMMET063RJSC 221000Z 02009KT 9999 BKN045 04/M02 Q1029 RMK 6CU045 A3039;EQDQ01+000000PRSWM2
0187475530999992000120408004+38420+140370FM-15+0108RJSC V0200101N004110150019N0112651N1+00101-00101999999ADDGA1021+006009999GA2071+015009999GF107991999999999999999999MA1101691999999MW1001REMMET077RJSC 040800Z 01008KT 9999 FEW020 BKN050 01/M01 Q1017 RMK 1CU020 6CU050 A3004;EQDQ01+000000PRSWM2
0186475530999992000120808004+38420+140370FM-15+0108RJSC V0200201N000512200019N0070001N1+00101+00001999999ADDGA1021+006009999GA2021+015009999GF104991999999999999999999MA1101901999999MW1001REMMET076RJSC 080800Z 02001KT 7000 FEW020 SCT050 01/00 Q1019 RMK 1CU020 3CU050 A3010;EQDQ01+000000PRSWM2
0228475530999992000121004004+38420+140370FM-15+0108RJSC V0202401N008219999999N0112651N1+01601+00101999999ADDGA1021+012009999GA2021+036009999GA3071+999999999GF107991999999999999999999MA1100611999999MW1001OC101441REMMET094RJSC 100400Z 24016G28KT 200V270 9999 FEW040 SCT120 BKN/// 16/01 Q1006 RMK 1CU040 3AC120 A2972;EQDQ01+000000PRSWM2
0209475530999992000121307004+38420+140370FM-15+0108RJSC V0203401N002110120019N0112651N1+00101-00101999999ADDGA1021+001509999GA2071+012009999GF107991999999999999999999MA1101801999999MW1851REMMET083RJSC 130700Z 34004KT 9999 -SHSN FEW005 BKN040 01/M01 Q1018 RMK 1ST005 5CU040 A3007;EQDQ01+000003PRSWM1Q02    003PRSWM1
0247475530999992000122804004+38420+140370FM-15+0108RJSC V0200201N001010048019N0016001N1+00001+00001999999ADDED199U18009GA1021+000909999GA2071+004809999GA3071+007509999GF107991999999999999999999MW1851REMMET109RJSC 280400Z 02002KT 1600 R01/1800U -SHSN FEW003 BKN016 BKN025 M00/M0 1 Q1019 RMK 2ST003 5CU016 7CU025 A3011;EQDQ01+000003PRSWM1Q02    003PRSWM1
0155475570999992000010308004+37230+140430FM-15+0375RJSF V0203301N006712200019N0112651N1+00401+00001999999ADDGA1021+006009999GF102991999999999999999999MA1100811999999MW1001REMMET061RJSF 0800Z 33013KT 9999 FEW020 04/M00 Q1008 RMK 1CU020 A2979;EQDQ01+000000PRSWM2
0185475570999992000011022304+37230+140430FM-15+0375RJSF V0203001N005110075019N0112651N1+00101-00601999999ADDGA1071+007509999GF107991999999999999999999MA1101801999999MW1851REMMET075RJSF 2330Z 30010KT 230V050 9999 -SHSN BKN025 01/M06 Q1018 RMK 5CU025 A3009;EQDQ01+000003PRSWM1Q02    003PRSWM1
0169475570999992000020205004+37230+140430FM-15+0375RJSF V0203101N006210180019N0112651N1+00501-00701999999ADDGA1021+009009999GA2071+018009999GF107991999999999999999999MA1101691999999MW1001REMMET059RJSF 0500Z 31012KT 260V340 9999 FEW030 BKN060 05/M07 Q1017;EQDQ01+000000PRSWM2
0155475570999992000020300004+37230+140430FM-15+0375RJSF V0200101N004112200019N0112651N1+00401-00101999999ADDGA1021+006009999GF102991999999999999999999MA1102101999999MW1001REMMET061RJSF 0000Z 01008KT 9999 FEW020 04/M01 Q1021 RMK 1CU020 A3016;EQDQ01+000000PRSWM2
0178475570999992000020404004+37230+140430FM-15+0375RJSF V0203301N005719999999N0112651N1+00501-00501999999ADDGA1021+009009999GA2071+999999999GF107991999999999999999999MA1101591999999MW1001REMMET068RJSF 0400Z 33011KT 9999 FEW030 BKN/// 05/M05 Q1016 RMK 2CU030 A3002;EQDQ01+000000PRSWM2
0162475570999992000020509004+37230+140430FM-15+0375RJSF V0203401N003612200019N0112651N1+00201-00501999999ADDGA1021+009009999GF102991999999999999999999MA1102201999999MW1001REMMET068RJSF 0900Z 34007KT 280V020 9999 FEW030 2/M05 Q1022 RMK 1CU030 A3020;EQDQ01+000000PRSWM2
0215475570999992000020606004+37230+140430FM-15+0375RJSF V0202101N002110150019N0080001N1+00601-00101999999ADDGA1021+006009999GA2071+015009999GA3071+024009999GF107991999999999999999999MA1101021999999MW1001REMMET089RJSF 0600Z 21004KT 8000 FEW020 BKN050 BKN080 06/M01 Q1010 RMK 1SC020 6SC050 7AC080 A2985;EQDQ01+000000PRSWM2
0207475570999992000020903004+37230+140430FM-15+0375RJSF V0203301N010810090019N0112651N1+00201-00401999999ADDGA1021+006009999GA2071+009009999GF107991999999999999999999MA1100001999999MW1851REMMET081RJSF 0300Z 33021KT 9999 -SHSN FEW020 BKN030 02/M04 Q1000 RMK 1CU020 6CU030 A2954;EQDQ01+000003PRSWM1Q02    003PRSWM1
0155475570999992000021309004+37230+140430FM-15+0375RJSF V0203401N004610105019N0112651N1+00101-00601999999ADDGA1071+010509999GF107991999999999999999999MA1101291999999MW1001REMMET061RJSF 0900Z 34009KT 9999 BKN035 01/M06 Q1013 RMK 6CU035 A2994;EQDQ01+000000PRSWM2
0205475570999992000022908004+37230+140430FM-15+0375RJSF V0203201N006712200019N0112651N1-00201-00801999999ADDGA1021+006009999GA2021+009009999GF104991999999999999999999MA1101691999999MW1001OC101181REMMET087RJSF 0800Z 32013G23KT 270V350 9999 FEW020 SCT030 M02/M08 Q1017 RMK 1CU020 3CU030 A3004;EQDQ01+000000PRSWM2
0156475570999992000031410004+37230+140430FM-15+0375RJSF V0203301N003612200019N0112651N1+00001-00501999999ADDGA1021+007509999GF102991999999999999999999MA1101491999999MW1001REMMET062RJSF 1000Z 33007KT 9999 FEW025 M00/M05 Q1015 RMK 1CU025 A3000;EQDQ01+000000PRSWM2
0178475570999992000032300004+37230+140430FM-15+0375RJSF V0201901N005719999999N0112651N1+00401-00401999999ADDGA1021+009009999GA2071+999999999GF107991999999999999999999MA1102201999999MW1001REMMET068RJSF 0000Z 19011KT 9999 FEW030 BKN/// 04/M04 Q1022 RMK 1CU030 A3020;EQDQ01+000000PRSWM2
0195475570999992000032402004+37230+140430FM-15+0375RJSF V0203401N010812200019N0070001N1+00701+00001999999ADDGA1021+006009999GA2021+010509999GF104991999999999999999999MA1099391999999MW1001OC101701REMMET077RJSF 0200Z 34021G33KT 7000 FEW020 SCT035 07/00 Q0994 RMK 1CU020 3CU035 A2938;EQDQ01+000000PRSWM2
0185475570999992000033107004+37230+140430FM-15+0375RJSF V0201801N005110120019N0090001N1+01301+00301999999ADDGA1071+012009999GA2071+999999999GF107991999999999999999999MA1100411999999MW1001REMMET075RJSF 0700Z 18010KT 150V210 9000 BKN040 BKN/// 13/03 Q1004 RMK 5CU040 A2966;EQDQ01+000000PRSWM2
0190475570999992000040508004+37230+140430FM-15+0375RJSF V0200101N00411000151CN0007001N1+01001+00901999999ADDGA1091+000159999GF109991999999000251999999MA1100201999999MW1451MW2511REMMET074RJSF 0800Z 01008KT 0700 R01/1300V1800U FG -DZ VV001 10/09 Q1002 RMK A2961;EQDQ01+000003PRSWM1Q02    003PRSWM1
0162475570999992000041203004+37230+140430FM-15+0375RJSF V0202401N005112200019N0112651N1+01501+00001999999ADDGA1021+012009999GF102991999999999999999999MA1100001999999MW1001REMMET068RJSF 0300Z 24010KT 190V270 9999 FEW040 15/00 Q1000 RMK 1CU040 A2955;EQDQ01+000000PRSWM2
0119475570999992000041701004+37230+140430FM-15+0375RJSF V02099999999992200019N0032011N1+99999+99999999999ADDMW1001REMMET082RJSF0100Z 32010KT 260V360 9999 FEW030 BKN040 08/M03 Q1013 RMK 1CU030 7CU040 A2994;EQDQ01+000000PRSWM2
0197475570999992000042104004+37230+140430FM-15+0375RJSF V0200101N00311000151CN0004001N1+00901+00901999999ADDGA1091+000159999GF109991999999000251999999MA1101191999999MW1451MW2511REMMET081RJSF 210400Z 01006KT 0400 R01/0650V1400U FG -DZ VV001 09/09 Q1012 RMK A2991 P/FR;EQDQ01+000003PRSWM1Q02    003PRSWM1
0181475570999992000042722304+37230+140430FM-15+0375RJSF V0202701N008210090019N0112651N1+01001+00301999999ADDGA1021+004509999GA2071+009009999GF107991999999999999999999MA1100101999999MW1001OC101391REMMET063RJSF 272330Z 27016G27KT 240V300 9999 FEW015 BKN030 10/03 Q1001;EQDQ01+000000PRSWM2
0156475570999992000050101004+37230+140430FM-15+0375RJSF V02099999999992200019N0112651N1+01801+00801999999ADDGA1021+009009999GF102991999999999999999999MA1101081999999MW1001REMMET062RJSF 010100Z VRB04KT 9999 FEW030 18/08 Q1011 RMK 1CU030 A2986;EQDQ01+000000PRSWM2
0101475570999992000053009004+37230+140430FM-15+0375RJSF V0202201N00311220001CN0099001N1+02601+01001999999ADDMA1100911999999MW1001REMMET049RJSF 300900Z 22006KT CAVOK 26/10 Q1009 RMK A2981;EQDQ01+000000PRSWM2
0262475570999992000060904484+37230+140430FM-16+0375RJSF V0200201N006210030019N0040001N1+01601+01601999999ADDGA1021+000309999GA2021+000909999GA3071+003009999GF107991999999999999999999MA1100101999999MW1801REMMET104RJSF 090448Z 02012KT 4000 -SHRA BR FEW001 SCT003 BKN010 16/16 Q1001 RERA RMK 1ST001 3ST003 7ST010 A2958;EQDQ01+000100PRSWM3Q02+000003PRSWM1Q03    003PRSWM1
0216475570999992000061210004+37230+140430FM-15+0375RJSF V0201401N001510180019N0112651N1+01701+01401999999ADDGA1021+006009999GA2021+012009999GA3071+018009999GF107991999999999999999999MA1100811999999MW1001REMMET090RJSF 121000Z 14003KT 9999 FEW020 SCT040 BKN060 17/14 Q1008 RMK 1CU020 3SC040 6SC060 A2979;EQDQ01+000000PRSWM2
0198475570999992000061703004+37230+140430FM-15+0375RJSF V02099999999990300019N0050001N1+02601+01901999999ADDGA1071+030009999GA2081+999999999GF108991999999999999999999MA1101291999999MW1051REMMET072RJSF 170300Z VRB02KT 5000 HZ BKN100 OVC/// 26/19 Q1013 RMK 6AC100 A2993;EQDQ01+000003PRSWM1Q02    003PRSWM1
0164475570999992000062003004+37230+140430FM-15+0375RJSF V0202501N002112200019N0090001N1+02801+01601999999ADDGA1021+009009999GF102991999999999999999999MA1101021999999MW1001REMMET070RJSF 200300Z 25004KT 180V330 9000 FEW030 28/16 Q1010 RMK 1CU030 A2984;EQDQ01+000000PRSWM2
0235475570999992000062605004+37230+140430FM-15+0375RJSF V02099999999990021019N0040001N1+01901+01701999999ADDGA1021+001509999GA2071+002109999GA3071+003009999GF107991999999999999999999MA1101391999999MW1101REMMET093RJSF 260500Z VRB02KT 4000 BR FEW005 BKN007 BKN010 19/17 Q1014 RMK 1ST005 5ST007 7ST010 A2996;EQDQ01+000003PRSWM1Q02    003PRSWM1
0262475570999992000062809334+37230+140430FM-16+0375RJSF V0201601N001010009019N0030001N1+02101+02101999999ADDGA1021+000609999GA2071+000909999GA3071+001509999GF107991999999999999999999MA1100311999999MW1801REMMET104RJSF 280933Z 16002KT 3000 -SHRA BR SCT002 BKN003 BKN005 21/21 Q1003 RERA RMK 3ST002 5ST003 7ST005 A2962;EQDQ01+000100PRSWM3Q02+000003PRSWM1Q03    003PRSWM1
0194475570999992000070605004+37230+140430FM-15+0375RJSF V0202101N003612200019N0112651N1+02601+01801999999ADDGA1021+006009999GA2021+009009999GF104991999999999999999999MA1101021999999MW1001REMMET084RJSF 060500Z 21007KT 180V250 9999 FEW020 SCT030 26/18 Q1010 RMK 1CU020 3CU030 A2984;EQDQ01+000000PRSWM2
0235475570999992000071221344+37230+140430FM-16+0375RJSF V0203501N001010240019N0040001N1+02501+02301999999ADDGA1021+000909999GA2021+003009999GA3071+024009999GF107991999999999999999999MA1100511999999MW1101REMMET093RJSF 122134Z 35002KT 4000 BR FEW003 SCT010 BKN080 25/23 Q1005 RMK 1ST003 3ST010 6AC080 A2970;EQDQ01+000003PRSWM1Q02    003PRSWM1
0216475570999992000071809004+37230+140430FM-15+0375RJSF V0201401N002110150019N0112651N1+02601+02201999999ADDGA1021+006009999GA2021+010509999GA3071+015009999GF107991999999999999999999MA1100811999999MW1001REMMET090RJSF 180900Z 14004KT 9999 FEW020 SCT035 BKN050 26/22 Q1008 RMK 1CU020 3CU035 6SC050 A2978;EQDQ01+000000PRSWM2
0269475570999992000071908304+37230+140430FM-15+0375RJSF V0200901N002110135019N0112651N1+02301+02301999999ADDGA1021+003009999GA2021+009009099GA3071+013509999GF107991999999999999999999MA1101081999999MW1801REMMET127RJSF 190830Z 09004KT 9999 -SHRA FEW010 SCT030CB BKN045 23/23 Q1011 RMK 1ST010 4CB030 7CU045 A2986 CB NE 10KM AND SW BOTH MOV E;EQDQ01+000003PRSWM1Q02    003PRSWM1
0243475570999992000071921354+37230+140430FM-16+0375RJSF V0201701N002610045019N0025001N1+02301+02201999999ADDGA1021+000909999GA2021+001509999GA3071+004509999GF107991999999999999999999MA1101191999999MW1101REMMET101RJSF 192135Z 17005KT 130V200 2500 BR FEW003 SCT005 BKN015 23/22 Q1012 RMK 2ST003 4ST005 7CU015 A2990;EQDQ01+000003PRSWM1Q02    003PRSWM1
0182475570999992000072620184+37230+140430FM-16+0375RJSF V0200301N00101000151CN0003001N1+02001+01901999999ADDGA1091+000159999GF109991999999000251999999MA1100911999999MW1451REMMET072RJSF 262018Z 03002KT 0300 R01/0550V1300U FG VV001 20/19 Q1009 RMK A2983;EQDQ01+000003PRSWM1Q02    003PRSWM1
0226475570999992000072620384+37230+140430FM-16+0375RJSF V0209999C000010003019N0004001N1+02001+01901999999ADDED199U06509GA1071+000309999GA2071+000609999GF107991999999999999999999MA1101021999999MW1441REMMET089RJSF 262038Z 00000KT 0400 R01/0650N FG BKN001 BKN002 20/19 Q1010 RMK 5ST001 7ST002 A2983;EQDQ01+000003PRSWM1Q02    003PRSWM1
0226475570999992000080721004+37230+140430FM-15+0375RJSF V0201101N001510006019N0006001N1+02101+02001999999ADDED199U03509GA1021+000309999GA2071+000609999GF107991999999999999999999MA1101491999999MW1441REMMET089RJSF 072100Z 11003KT 0600 R01/0350N FG SCT001 BKN002 21/20 Q1015 RMK 3ST001 5ST002 A2999;EQDQ01+000003PRSWM1Q02    003PRSWM1
0257475570999992000081420264+37230+140430FM-16+0375RJSF V0201401N001012200019N0040001N1+02101+02001999999ADDGA1021+000609999GA2021+999999999GF104991999999999999999999MA1100711999999MW1401REMMET115RJSF 142026Z 14002KT 4000 R01/0550VP2000U VCFG BR FEW002 SCT/// 21/20 Q1007 RMK 1ST002 A2975 2000S-SW FG BANK S-SW;EQDQ01+000100PRSWM3Q02+000003PRSWM1Q03    003PRSWM1
0182475570999992000082120174+37230+140430FM-16+0375RJSF V0200101N00101000151CN0004001N1+02201+02201999999ADDGA1091+000159999GF109991999999000251999999MA1101491999999MW1451REMMET072RJSF 212017Z 01002KT 0400 R01/0900V1100N FG VV001 22/22 Q1015 RMK A2999;EQDQ01+000003PRSWM1Q02    003PRSWM1
0186475570999992000082310004+37230+140430FM-15+0375RJSF V0203401N005712200019N0080001N1+02601+01801999999ADDGA1021+009009999GA2021+013509999GF104991999999999999999999MA1101491999999MW1001REMMET076RJSF 231000Z 34011KT 8000 FEW030 SCT045 26/18 Q1015 RMK 1CU030 3CU045 A3000;EQDQ01+000000PRSWM2
0205475570999992000082720004+37230+140430FM-15+0375RJSF V0201201N001510060019N0020001N1+02201+02101999999ADDGA1021+002409999GA2071+006009999GF107991999999999999999999MA1101901999999MW1101REMMET079RJSF 272000Z 12003KT 2000 BR FEW008 BKN020 22/21 Q1019 RMK 1ST008 7SC020 A3012;EQDQ01+000003PRSWM1Q02    003PRSWM1
0245475570999992000090508304+37230+140430FM-15+0375RJSF V0203601N004610009019N0030001N1+01701+01701999999ADDGA1021+000609999GA2071+000909999GA3071+003009999GF107991999999999999999999MA1100711999999MW1101MW2611REMMET097RJSF 050830Z 36009KT 3000 -RA BR SCT002 BKN003 BKN010 17/17 Q1007 RMK 3ST002 5ST003 7ST010 A2974;EQDQ01+000003PRSWM1Q02    003PRSWM1
0216475570999992000090703004+37230+140430FM-15+0375RJSF V0200101N002610180019N0060001N1+02301+02201999999ADDGA1021+001509999GA2021+010509999GA3071+018009999GF107991999999999999999999MA1101291999999MW1001REMMET090RJSF 070300Z 01005KT 6000 FEW005 SCT035 BKN060 23/22 Q1013 RMK 1ST005 3CU035 7SC060 A2992;EQDQ01+000000PRSWM2
0182475570999992000090721354+37230+140430FM-16+0375RJSF V0200101N00211000151CN0004001N1+02101+02001999999ADDGA1091+000159999GF109991999999000251999999MA1101691999999MW1451REMMET072RJSF 072135Z 01004KT 0400 R01/1000V2000U FG VV001 21/20 Q1017 RMK A3005;EQDQ01+000003PRSWM1Q02    003PRSWM1
0235475570999992000090809004+37230+140430FM-15+0375RJSF V02099999999990045019N0050001N1+02301+02101999999ADDGA1021+003009999GA2071+004509999GA3071+007509999GF107991999999999999999999MA1101801999999MW1101REMMET093RJSF 080900Z VRB01KT 5000 BR FEW010 BKN015 BKN025 23/21 Q1018 RMK 1ST010 6CU015 7CU025 A3008;EQDQ01+000003PRSWM1Q02    003PRSWM1
0272475570999992000091619484+37230+140430FM-16+0375RJSF V0201701N004610045019N0040001N1+02301+02301999999ADDGA1021+000909999GA2071+004509099GA3071+007509999GF107991999999999999999999MA1100711999999MW1811MW2951REMMET124RJSF 161948Z 17009KT 4000 TSRA BR FEW003 BKN015CB BKN025 23/23 Q1007 RERA RMK 1ST003 5CB015 7CU025 A2976 FBL TS 5KM N MOV N;EQDQ01+000100PRSWM4Q02+000003PRSWM1
0221475570999992000092923004+37230+140430FM-15+0375RJSF V02099999999999999999N0012001N1+01301+01201999999ADDGA1021+000309999GA2071+999999999GF107991999999999999999999MA1102001999999MW1441REMMET095RJSF 292300Z VRB01KT 1200 R01/M0300V0500U FG FEW001 BKN/// 13/12 Q1020 RMK 1ST001 A3014 0500SW;EQDQ01+000003PRSWM1Q02    003PRSWM1
0156475570999992000111601004+37230+140430FM-15+0375RJSF V0203501N007212200019N0112651N1+00901+00201999999ADDGA1021+006009999GF102991999999999999999999MA1102611999999MW1001REMMET062RJSF 160100Z 35014KT 9999 FEW020 09/02 Q1026 RMK 1CU020 A3032;EQDQ01+000000PRSWM2
0187475570999992000113022004+37230+140430FM-15+0375RJSF V02099999999990360019N0112651N1+00101-00401999999ADDGA1021+009009999GA2071+036009999GF107991999999999999999999MA1102201999999MW1001REMMET077RJSF 302200Z VRB02KT 9999 FEW030 BKN120 01/M04 Q1022 RMK 1SC030 7AC120 A3019;EQDQ01+000000PRSWM2
0210475570999992000120222004+37230+140430FM-15+0375RJSF V0201301N002610360019N0112651N1+00301+00001999999ADDGA1021+015009999GA2071+036009999GA3071+999999999GF107991999999999999999999MA1101491999999MW1001REMMET084RJSF 022200Z 13005KT 9999 FEW050 BKN120 BKN/// 03/M00 Q1015 RMK 1SC050 5AC120 A2998;EQDQ01+000000PRSWM2
0157475570999992000120500004+37230+140430FM-15+0375RJSF V0201601N003612200019N0112651N1+00301-00201999999ADDGA1021+012009999GF102991999999999999999999MA1101021999999MW1001REMMET063RJSF 050000Z 16007KT 9999 FEW040 03/M02 Q1010 RMK 1SC040 A2984;EQDQ01+000000PRSWM2
0175475570999992000120706004+37230+140430FM-15+0375RJSF V0200101N004110120019N0112651N1+00301-00501999999ADDGA1021+009009999GA2071+012009999GA3071+999999999GF107991999999999999999999MW1001REMMET064RJSF 070600Z 01008KT 310V040 9999 FEW030 BKN040 BKN/// 03/M05 P;EQDQ01+000000PRSWM2
0240475570999992000121206004+37230+140430FM-15+0375RJSF V0203201N004110090019N0060001N1-00101-00401999999ADDGA1021+003009999GA2021+004509999GA3071+009009999GF107991999999999999999999MA1101081999999MW1851REMMET098RJSF 120600Z 32008KT 6000 -SHSN FEW010 SCT015 BKN030 M01/M04 Q1011 RMK 1ST010 3CU015 6CU030 A2988;EQDQ01+000003PRSWM1Q02    003PRSWM1
0158475570999992000122908004+37230+140430FM-15+0375RJSF V0203401N004112200019N0112651N1+00001-00801999999ADDGA1021+007509999GF102991999999999999999999MA1102301999999MW1001REMMET064RJSF 290800Z 34008KT 9999 FEW025 M00/M08 Q1023 RMK 1CU025 A3023;EQDQ01+000000PRSWM2
0255475670999992000011306144+38230+140920FM-16+0010RJSU V0203501N003110075019N0050001N1+00601+00501999999ADDGA1021+001509999GA2021+003009999GA3081+007509999GF108991999999999999999999MA1100711999999MW1511REMMET097RJSU 130614Z 35006KT 5000 -DZ BR FEW005 SCT010 OVC025 06/05 Q1007 RMK 1ST005 4ST010 8SC025 A2975;EQDQ01+000100PRSWM3Q02+000003PRSWM1Q03    003PRSWM1
0210475670999992000012600374+38230+140920FM-16+0010RJSU V02099999999992200019N0112651N1-00101-00801999999ADDGA1021+009009999GA2021+021009999GF104991999999999999999999MA1101801999999MW1851REMMET084RJSU 260037Z VRB03KT 9999 -SHSN FEW030 SCT070 M01/M08 Q1018 RMK 2CU030 3AC070 A3007;EQDQ01+000003PRSWM1Q02    003PRSWM1
0256475670999992000020203004+38230+140920FM-15+0010RJSU V0202901N007210600019N0112651N1+00901-00301999999ADDGA1021+006009999GA2021+010509999GA3071+060009999GF107991999999999999999999MA1101801999999MW1001REMMET130RJSU 0300Z 29014KT 9999 FEW020 SCT035 BKN200 09/M03 Q1018 RMK 1CU020 4SC035 6CI200 A3006 FCST 0312 TEMPO 0306 30015G25KT BKN035SC;EQDQ01+000000PRSWM2
0228475670999992000020203054+38230+140920FM-16+0010RJSU V0202901N007210600019N0112651N1+00901-00301999999ADDGA1021+006009999GA2021+010509999GA3071+060009999GF107991999999999999999999MA1101801999999MW1001OC101231REMMET094RJSU 020305Z 29014G24KT 9999 FEW020 SCT035 BKN200 09/M03 Q1018 RMK 1CU020 4SC035 6CI200 A3006;EQDQ01+000000PRSWM2
0184475670999992000020701004+38230+140920FM-15+0010RJSU V02099999999992200019N0112651N1+00601+00301999999ADDGA1021+006009999GA2021+009009999GF104991999999999999999999MA1100411999999MW1001REMMET074RJSU 0100Z VRB03KT 9999 FEW020 SCT030 06/03 Q1004 RMK 1CU020 3CU030 A2966;EQDQ01+000000PRSWM2
0196475670999992000021001004+38230+140920FM-15+0010RJSU V0203001N009312200019N0112651N1+00401-00601999999ADDGA1021+007509999GA2021+009009999GF104991999999999999999999MA1101081999999MW1001OC101441REMMET078RJSU 0100Z 30018G28KT 9999 FEW025 SCT030 04/M06 Q1011 RMK 1CU025 3CU030 A2987;EQDQ01+000000PRSWM2
0207475670999992000030801004+38230+140920FM-15+0010RJSU V0203001N003612200019N0112651N1+00301-00401999999ADDGA1021+004509999GA2021+009009999GF104991999999999999999999MA1100711999999MW1851REMMET081RJSU 0100Z 30007KT 9999 -SHSN FEW015 SCT030 03/M04 Q1007 RMK 1CU015 4CU030 A2976;EQDQ01+000003PRSWM1Q02    003PRSWM1
0215475670999992000030901004+38230+140920FM-15+0010RJSU V0202401N002110120019N0112651N1+00101-00701999999ADDGA1021+006009999GA2021+007509999GA3071+012009999GF107991999999999999999999MA1101191999999MW1001REMMET089RJSU 0100Z 24004KT 9999 FEW020 SCT025 BKN040 01/M07 Q1012 RMK 1CU020 3CU025 6CU040 A2990;EQDQ01+000000PRSWM2
0155475670999992000031504004+38230+140920FM-15+0010RJSU V0203301N002612200019N0112651N1+00701-00701999999ADDGA1021+006009999GF102991999999999999999999MA1101901999999MW1001REMMET061RJSU 0400Z 33005KT 9999 FEW020 07/M07 Q1019 RMK 1CU020 A3011;EQDQ01+000000PRSWM2
0228475670999992000031706194+38230+140920FM-16+0010RJSU V0203501N006710105019N0112651N1+00601-00301999999ADDGA1021+006009999GA2021+009009999GA3071+010509999GF107991999999999999999999MA1100811999999MW1001OC101231REMMET094RJSU 170619Z 35013G24KT 9999 FEW020 SCT030 BKN035 06/M03 Q1008 RMK 1CU020 3CU030 5CU035 A2977;EQDQ01+000000PRSWM2
0224475670999992000032406004+38230+140920FM-15+0010RJSU V0202901N013412200019N0112651N1+01201+00001999999ADDGA1021+009009999GA2021+012009999GF104991999999999999999999MA1099291999999MW1001OC102011REMMET106RJSU 0600Z 29026G39KT 9999 FEW030 SCT040 12/00 Q0993 RMK 1CU030 3CU040 A2933 FCST 0615 BECMG 0708 30012KT;EQDQ01+000000PRSWM2
0198475670999992000032705144+38230+140920FM-16+0010RJSU V0203101N005712200019N0112651N1+00901-00701999999ADDGA1021+007509999GA2021+010509999GF104991999999999999999999MA1101591999999MW1001OC101081REMMET080RJSU 270514Z 31011G21KT 9999 FEW025 SCT035 09/M07 Q1016 RMK 1CU025 3CU035 A3002;EQDQ01+000000PRSWM2
0223475670999992000032906004+38230+140920FM-15+0010RJSU V0202401N005112200019N0112651N1+01701+00901999999ADDGA1021+007509999GA2021+010509999GF104991999999999999999999MA1099391999999MW1001REMMET113RJSU 0600Z 24010KT 9999 FEW025 SCT035 17/09 Q0994 RMK 1CU025 3CU035 A2935 FCST 0615 TEMPO 0915 FEW025CU BKN030CU;EQDQ01+000000PRSWM2
0168475670999992000033005344+38230+140920FM-16+0010RJSU V0202901N008712200019N0112651N1+01301-00401999999ADDGA1021+007509999GF102991999999999999999999MA1100201999999MW1001OC101651REMMET066RJSU 300534Z 29017G32KT 9999 FEW025 13/M04 Q1002 RMK 1CU025 A2960;EQDQ01+000000PRSWM2
