0170063440999992000061607004+51940+004440FM-12-0004EHRD V0200601N003010750019N0280001N1+01381+00931102911ADDGA1011+007509089GA2071+075009009GF107991011081008001031011MD1210091+9999REMSYN086AAXX  16071 06344 42578 70603 10138 20093 40291 52009 81831 333 81825 87075 555 53115;
0188063440999992000062222004+51940+004440FM-12-0004EHRD V0202201N009010270019N0300001N1+01611+00991101421ADDGA1011+010509069GA2041+014709069GA3061+027009039GF107991041051012501071001MD1010011+9999REMSYN088AAXX  22221 06344 42680 72209 10161 20099 40142 50001 84570 333 81635 84649 86359 91114;
0242063440999992000062304004+51940+004440FM-12-0004EHRD V0202201N006010060019N0150001N1+01391+01241101351ADDAY181011AY261011GA1011+003609089GA2021+004509099GA3041+006009089GA4071+018009069GF107991071091004501031001MD1510011+9999MW1251REMSYN104AAXX  23041 06344 41465 72206 10139 20124 40135 55001 72586 87930 333 81812 82915 84820 87656 555 53001;
0222063440999992000062308384+51940+004440FM-16-0004EHRD V0202401N006210108019N0080001N1+01501+01301999999ADDGA1021+003009999GA2021+004509099GA3071+010809999GF107991999999999999999999MA1101391999999MW1161REMMET080EHRD 230838Z 24012KT 220V280 8000 VCSH FEW010 SCT015CB BKN036 15/13 Q1014 NOSIG;EQDQ01+000003PRSWM1Q02    003PRSWM1
0170063440999992000062517004+51940+004440FM-12-0004EHRD V0203301N006010150019N0300001N1+01311+00881102091ADDGA1041+007509089GA2071+015009069GF107991071081008001031001MD1110081+9999REMSYN086AAXX  25171 06344 42580 73306 10131 20088 40209 51008 87830 333 84825 87650 555 53053;
0176063440999992000062522554+51940+004440FM-15-0004EHRD V0203401N003110150019N0112651N1+01201+00901999999ADDGA1021+007509999GA2071+015009999GF107991999999999999999999MA1102201999999MW1001REMMET066EHRD 252255Z 34006KT 280V030 9999 SCT025 BKN050 12/09 Q1022 NOSIG;EQDQ01+000000PRSWM2
0168063440999992000062900004+51940+004440FM-12-0004EHRD V0202701N002012200019N0250001N1+00871+00721102121ADDAA199000091GA1031+011409059GF103991031051012501001001MD1810031+9999REMSYN070AAXX  29001 06344 32675 32702 10087 20072 40212 58003 83500 333 83638;EQDQ01  00002PRCP99
0170063440999992000062911004+51940+004440FM-12-0004EHRD V0202901N004010096019N0300001N1+01421+00831102091ADDGA1011+007509089GA2061+009609069GF107991071081008001031011MD1310011+9999REMSYN086AAXX  29111 06344 42580 72904 10142 20083 40209 53001 87831 333 81825 86632 555 53109;
0321063440999992000070220004+51940+004440SY-MT-0004EHRD V0209999V001010450019N0120001N1+01781+01471100941ADDGA1021+012609999GA2021+030009999GA3071+045009999GF107991021081012501071021MA1100911999999MD1810011+9999MW1001REMSYN092AAXX  02201 06344 42662 79901 10178 20147 40094 58001 82872 333 81842 83360 87365 555 53004;MET083EHRD 022000Z VRB0KT 9999 FEW042 SCT100 BKN150 18/15 Q1009 TEMPO 5000 SHRA SCT035CB;EQDQ01+000000PRSWM2
0153063440999992000070306554+51940+004440FM-15-0004EHRD V0202901N002610330019N0080001N1+01901+01701999999ADDGA1071+033009999GF107991999999999999999999MA1101021999999MW1001REMMET059EHRD 030655Z 29005KT 240V330 8000 BKN110 19/17 Q1010 NOSIG;EQDQ01+000000PRSWM2
0170063440999992000070415004+51940+004440FM-12-0004EHRD V0203501N005010660019N0060001N1+02011+01691100471ADDGA1041+012009089GA2071+066009009GF107991031081012501031021MD1810071+9999REMSYN086AAXX  04151 06344 42656 73505 10201 20169 40047 58007 83832 333 84840 87072 555 53158;
0220063440999992000070507004+51940+004440FM-12-0004EHRD V0202501N003010045019N0038001N1+01521+01451101021ADDAY161011AY261011GA1021+001509079GA2051+004509069GA3081+015009069GF108991081051001501999999MD1310151+9999MW1611REMSYN098AAXX  05071 06344 41238 82503 10152 20145 40102 53015 76166 885// 333 82705 85615 88650 555 53018;
0138063440999992000070802004+51940+004440FM-12-0004EHRD V0209999V001012200019N0200001N1+00751+00671101711ADDGA1011+009009059GF102991011051008001001011MD1610051+9999REMSYN070AAXX  08021 06344 42570 29901 10075 20067 40171 56005 81501 333 81630;
0222063440999992000070815554+51940+004440FM-15-0004EHRD V0202801N003610114019N0112651N1+01501+01201999999ADDGA1021+005409099GA2071+011409999GA3071+024009999GF107991999999999999999999MA1101391999999MW1161REMMET080EHRD 081555Z 28007KT 250V320 9999 VCSH FEW018CB BKN038 BKN080 15/12 Q1014 NOSIG;EQDQ01+000003PRSWM1Q02    003PRSWM1
0213063440999992000070905554+51940+004440FM-15-0004EHRD V0202101N006210042019N0033001N1+01301+01201999999ADDGA1021+001809999GA2021+003609999GA3071+004209999GF107991999999999999999999MA1100411999999MW1001REMMET087EHRD 090555Z 21012KT 180V240 3300 FEW006 SCT012 BKN014 13/12 Q1004 TEMPO BKN006 BKN015;EQDQ01+000000PRSWM2
0176063440999992000071120554+51940+004440FM-15-0004EHRD V0203101N005110150019N0112651N1+01201+00901999999ADDGA1021+007509999GA2071+015009999GF107991999999999999999999MA1100811999999MW1001REMMET066EHRD 112055Z 31010KT 260V350 9999 SCT025 BKN050 12/09 Q1008 NOSIG;EQDQ01+000000PRSWM2
0243063440999992000071321434+51940+004440FM-16-0004EHRD V0202501N003610150019N0070001N1+01501+01401999999ADDGA1021+003009999GA2021+004209999GA3071+015009999GF107991999999999999999999MA1100711999999MW1611REMMET101EHRD 132143Z 25007KT 7000 -RA FEW010 SCT014 BKN050 15/14 Q1007 TEMPO 28015KT 4000 RADZ FEW008 BKN012;EQDQ01+000003PRSWM1Q02    003PRSWM1
0199063440999992000071403554+51940+004440FM-15-0004EHRD V0202801N00461220001CN0112651N1+01401+01201999999ADDGA1021+006009999GA2021+018009999GA3081+018009999GF108991999999999999999999MA1100511999999MW1001REMMET073EHRD 140355Z 28009KT 260V320 9999 FEW020 SCT062 OVC060 14/12 Q1005 NOSIG;EQDQ01+000000PRSWM2
0215063440999992000071503424+51940+004440FM-16-0004EHRD V0203001N005110180019N0080001N1+01201+01001999999ADDGA1021+004509099GA2071+018009999GF107991999999999999999999MA1100811999999MW1801REMMET089EHRD 150342Z 30010KT 250V360 8000 -SHRA FEW015CB BKN060 12/10 Q1008 RERA TEMPO 5000 SHRA;EQDQ01+000003PRSWM1Q02    003PRSWM1
0187063440999992000071601554+51940+004440FM-15-0004EHRD V0203301N003110180019N0112651N1+01201+01101999999ADDGA1021+009909999GA2071+018009999GF107991999999999999999999MA1101191999999MW1001REMMET077EHRD 160155Z 33006KT 290V360 9999 SCT033 BKN062 12/11 Q1012 TEMPO 7000 -SHRA;EQDQ01+000000PRSWM2
0176063440999992000071810554+51940+004440FM-15-0004EHRD V0203401N004612200019N0112651N1+01601+01001999999ADDGA1021+008409999GA2021+009909999GF104991999999999999999999MA1101901999999MW1001REMMET066EHRD 181055Z 34009KT 290V050 9999 FEW028 SCT033 16/10 Q1019 NOSIG;EQDQ01+000000PRSWM2
0176063440999992000071816554+51940+004440FM-15-0004EHRD V0203001N004110081019N0112651N1+01401+01201999999ADDGA1021+004809999GA2071+008109999GF107991999999999999999999MA1102001999999MW1001REMMET066EHRD 181655Z 30008KT 250V330 9999 SCT016 BKN027 14/12 Q1020 NOSIG;EQDQ01+000000PRSWM2
0199063440999992000072113554+51940+004440FM-15-0004EHRD V0203601N009010045019N0112651N1+01501+01301999999ADDGA1021+003309999GA2021+003909999GA3071+004509999GF107991999999999999999999MA1102511999999MW1001REMMET073EHRD 211355Z 36009KT 310V050 9999 FEW011 SCT013 BKN015 15/13 Q1025 NOSIG;EQDQ01+000000PRSWM2
0230063440999992000072405554+51940+004440FM-15-0004EHRD V0200401N004610021019N0042001N1+01501+01401999999ADDGA1021+001509999GA2071+002109999GA3071+060009999GF107991999999999999999999MA1100811999999MW1101REMMET088EHRD 240555Z 04009KT 010V070 4200 BR FEW005 BKN007 BKN200 15/14 Q1008 BECMG 7000 SCT012;EQDQ01+000003PRSWM1Q02    003PRSWM1
0105063440999992000072414554+51940+004440FM-15-0004EHRD V0200401N00671220001CN0099001N1+02201+01701999999ADDMA1100311999999MW1001REMMET053EHRD 241455Z 04013KT 350V080 CAVOK 22/17 Q1003 NOSIG;EQDQ01+000000PRSWM2
0168063440999992000072622554+51940+004440FM-15-0004EHRD V0200901N001010105019N0112651N1+01501+01301999999ADDGA1021+008409999GA2071+010509999GF107991999999999999999999MA1101391999999MW1001REMMET058EHRD 262255Z 09002KT 9999 SCT028 BKN035 15/13 Q1014 NOSIG;EQDQ01+000000PRSWM2
0202063440999992000073104554+51940+004440FM-15-0004EHRD V0201601N000512200019N0003001N1+01201+01201999999ADDGA1021+002109999GF102991999999999999999999MA1102301999999MW1411REMMET092EHRD 310455Z 16001KT 0300 R24/1300VP1500U R06/0375V1000U BCFG FEW007 12/12 Q1023 TEMPO 1200;EQDQ01+000003PRSWM1Q02    003PRSWM1
0105063440999992000080108554+51940+004440FM-15-0004EHRD V0202001N00411220001CN0099001N1+02301+01801999999ADDMA1101801999999MW1001REMMET053EHRD 010855Z 20008KT 160V240 CAVOK 23/18 Q1018 NOSIG;EQDQ01+000000PRSWM2
0244063440999992000080119554+51940+004440FM-15-0004EHRD V0202401N003110420019N0112651N1+01901+01601999999ADDGA1021+010509099GA2021+018009999GA3071+042009999GF107991999999999999999999MA1101491999999MW1161MW2171REMMET096EHRD 011955Z 24006KT 9999 TS VCSH FEW035CB SCT060 BKN140 19/16 Q1015 TEMPO 28015G25KT 5000 TSRA;EQDQ01+000003PRSWM1Q02    003PRSWM1
0097063440999992000080200554+51940+004440FM-15-0004EHRD V0202301N00361220001CN0099001N1+01701+01601999999ADDMA1101391999999MW1001REMMET045EHRD 020055Z 23007KT CAVOK 17/16 Q1014 NOSIG;EQDQ01+000000PRSWM2
0153063440999992000080515554+51940+004440FM-15-0004EHRD V0202901N003612200019N0112651N1+02001+01401999999ADDGA1021+009909999GF102991999999999999999999MA1102401999999MW1001REMMET059EHRD 051555Z 29007KT 260V350 9999 FEW033 20/14 Q1024 NOSIG;EQDQ01+000000PRSWM2
0144063440999992000081022004+51940+004440FM-12-0004EHRD V0202601N00201012001CN0200001N1+01791+01631101601ADDGA1011+010509069GF107991071051012501001001MD1010011+9999REMSYN076AAXX  10221 06344 42670 72602 10179 20163 40160 50001 87500 333 81635 87656;
0157063440999992000081101004+51940+004440FM-12-0004EHRD V0202701N002010180019N0150001N1+01741+01631101581ADDGA1071+018009059GF107991071051017501999001MD1810021+9999REMSYN070AAXX  11011 06344 42765 72702 10174 20163 40158 58002 87500 333 87656;EQDQ01+000002SCOMCG
0170063440999992000081314004+51940+004440FM-12-0004EHRD V0201601N007010300019N0250001N1+02881+01761101611ADDGA1031+013509089GA2041+030009039GF106991031021012501031021MD1810031+9999REMSYN086AAXX  13141 06344 42675 61607 10288 20176 40161 58003 83232 333 83845 84360 555 53205;
0097063440999992000081602554+51940+004440FM-15-0004EHRD V0202001N00411220001CN0099001N1+01601+01301999999ADDMA1101591999999MW1001REMMET045EHRD 160255Z 20008KT CAVOK 16/13 Q1016 NOSIG;EQDQ01+000000PRSWM2
0181063440999992000082012004+51940+004440FM-12-0004EHRD V0200601N003010114019N0250001N1+02041+01481101341ADDAA199000021GA1021+008409089GA2041+011409069GF107991051081008001001011MD1510011+9999REMSYN086AAXX  20121 06344 32575 70603 10204 20148 40134 55001 85801 333 82828 84638 555 53132;
0192063440999992000082119004+51940+004440FM-12-0004EHRD V0201101N00301030001CN0120001N1+01591+01401101541ADDGA1011+007509089GA2041+021009069GA3061+030009039GF106991031081008001031011MD1310061+9999REMSYN092AAXX  21191 06344 42562 61103 10159 20140 40154 53006 83831 333 81825 84657 86360 555 53003;
0227063440999992000082506414+51940+004440FM-16-0004EHRD V02099999999992200019N0049001N1+01501+01501999999ADDED199U15009GA1021+006009999GA2021+069009999GF104991999999999999999999MA1102301999999MW1121REMMET090EHRD 250641Z VRB03KT 4900 R24/P1500N R06/P1500N MIFG FEW020 SCT230 15/15 Q1023 BECMG 8000;EQDQ01+000003PRSWM1Q02    003PRSWM1
0148063440999992000082605004+51940+004440FM-12-0004EHRD V0201101N004012200019N0090001N1+01421+01251101391ADDGA1011+075009009GF101991001001999999001011MD1810171+9999REMSYN080AAXX  26051 06344 42959 11104 10142 20125 40139 58017 80001 333 81075 555 53000;
0090063440999992000082707004+51940+004440FM-12-0004EHRD V0201901N004019999999N0030001N1+01761+01661101301ADDMD1210101+9999REMSYN064AAXX  27071 06344 43/30 /1904 10176 20166 40130 52010 555 53015;
0232063440999992000082810554+51940+004440FM-15-0004EHRD V0202401N005110240019N0112651N1+01801+01301999999ADDGA1021+006009099GA2021+007209999GA3071+024009999GF107991999999999999999999MA1101801999999MW1161REMMET090EHRD 281055Z 24010KT 210V280 9999 VCSH FEW020CB SCT024 BKN080 18/13 Q1018 TEMPO 6000 SHRA;EQDQ01+000003PRSWM1Q02    003PRSWM1
0198063440999992000082910004+51940+004440FM-12-0004EHRD V0202101N003010300019N0150001N1+01881+01571101951ADDAY121011AY221011GA1031+006609089GA2041+030009039GF105991031081008001031011MD1010051+9999MW1251REMSYN092AAXX  29101 06344 41565 52103 10188 20157 40195 50005 72522 83831 333 83822 84360 555 53144;
0282063440999992000083119004+51940+004440SY-MT-0004EHRD V0201201N003010690019N0250001N1+01701+01151100891ADDGA1021+013509999GA2071+069009999GF107991011011012501001021MA1100811999999MD1610131+9999MW1001REMSYN086AAXX  31191 06344 42675 71203 10170 20115 40089 56013 81102 333 81845 87073 555 53003;MET066EHRD 311855Z 12006KT 080V140 9999 FEW045 BKN230 17/12 Q1008 NOSIG;EQDQ01+000000PRSWM2
0170063440999992000090305004+51940+004440FM-12-0004EHRD V0203301N005010132019N0220001N1+01411+00931101141ADDGA1021+011409069GA2081+013209069GF108991081051012501999999MD1310061+9999REMSYN086AAXX  03051 06344 42672 83305 10141 20093 40114 53006 885// 333 82638 88644 555 53000;
0170063440999992000090308004+51940+004440FM-12-0004EHRD V0203101N005010180019N0200001N1+01471+01061101311ADDGA1011+009009089GA2071+018009069GF107991071081008001001011MD1210171+9999REMSYN086AAXX  03081 06344 42570 73105 10147 20106 40131 52017 87801 333 81830 87656 555 53047;
0153063440999992000090508554+51940+004440FM-15-0004EHRD V0202301N005112200019N0080001N1+01701+01401999999ADDGA1021+004509999GF102991999999999999999999MA1102201999999MW1001REMMET059EHRD 050855Z 23010KT 200V260 8000 FEW015 17/14 Q1022 NOSIG;EQDQ01+000000PRSWM2
0243063440999992000090810044+51940+004440FM-16-0004EHRD V0202301N006210015019N0025001N1+01801+01701999999ADDGA1021+001209999GA2071+001509999GA3081+002109999GF108991999999999999999999MA1101801999999MW1511REMMET085EHRD 081004Z 23012KT 200V260 2500 -DZ BR FEW004 BKN005 OVC007 18/17 Q1018 BECMG 3500;EQDQ01+000100PRSWM3Q02+000003PRSWM1Q03    003PRSWM1
0307063440999992000091007004+51940+004440SY-MT-0004EHRD V0201901N002010150019N0030001N1+01701+01671102341ADDAY141999AY211999GA1021+001209999GA2071+015009999GF107991071051001501001001MA1102301999999MD1410001+9999MW1101REMSYN092AAXX  10071 06344 41230 71902 10170 20167 40234 54000 71041 87500 333 81704 87650 555 53015;MET069EHRD 100655Z 19004KT 150V250 3000 BR FEW004 BKN055 17/17 Q1023 NOSIG;EQDQ01    003PRSWM1
0148063440999992000091111004+51940+004440FM-12-0004EHRD V0201301N005012200019N0140001N1+02331+01811101801ADDGA1011+060009009GF101991001001999999001011MD1810141+9999REMSYN080AAXX  11111 06344 42964 11305 10233 20181 40180 58014 80001 333 81070 555 53216;
0199063440999992000091514554+51940+004440FM-15-0004EHRD V0201701N005110660019N0090001N1+02101+01601999999ADDGA1021+012609999GA2021+015009999GA3071+066009999GF107991999999999999999999MA1100811999999MW1001REMMET073EHRD 151455Z 17010KT 120V200 9000 FEW042 SCT050 BKN220 21/16 Q1008 NOSIG;EQDQ01+000000PRSWM2
0256063440999992000091706004+51940+004440FM-12-0004EHRD V0209999V001010027019N0030001N1+01531+01491100941ADDAA112004191AY161061AY261061GA1021+002109079GA2051+002709079GA3071+006009069GF108991081051002501999999KA1120N+01441MD1310011+9999MW1211REMSYN110AAXX  17061 06344 11330 89901 10153 20149 40094 53001 60042 72166 885// 333 20144 82707 85709 87620 555 53000;
0245063440999992000092114004+51940+004440SY-MT-0004EHRD V0209999V001012200019N0300001N1+01991+01221101641ADDGA1021+011409999GF102991021081012501001001MA1101591999999MD1110041+9999MW1001REMSYN080AAXX  21141 06344 42680 29901 10199 20122 40164 51004 82800 333 82838 555 53181;MET051EHRD 211355Z VRB03KT 9999 FEW038 20/12 Q1016 NOSIG;EQDQ01+000000PRSWM2
0173063440999992000092300554+51940+004440FM-15-0004EHRD V0201301N002110180019N0090001N1+01701+01601999999ADDGA1021+012009999GA2081+018009999GF108991999999999999999999MA1102301999999MW1001REMMET063EHRD 230055Z 13004KT 9000 SCT040 OVC060 17/16 Q1023 BECMG 6000;EQDQ01+000000PRSWM2
0105063440999992000092415554+51940+004440FM-15-0004EHRD V0201401N00461220001CN0099001N1+01901+01401999999ADDMA1101491999999MW1001REMMET053EHRD 241555Z 14009KT 110V190 CAVOK 19/14 Q1015 NOSIG;EQDQ01+000000PRSWM2
0188063440999992000093017554+51940+004440FM-15-0004EHRD V0202501N001510240019N0038001N1+01501+01401999999ADDGA1021+001809999GA2071+024009999GF107991999999999999999999MA1100711999999MW1611REMMET062EHRD 301755Z 25003KT 3800 -RA FEW006 BKN080 15/14 Q1007 NOSIG;EQDQ01+000003PRSWM1Q02    003PRSWM1
0204063440999992000100108554+51940+004440FM-15-0004EHRD V02099999999990150019N0070001N1+01601+01601999999ADDGA1021+004509999GA2021+006609999GA3071+015009999GF107991999999999999999999MA1100611999999MW1001REMMET078EHRD 010855Z VRB03KT 240V330 7000 FEW015 SCT022 BKN050 16/16 Q1006 BECMG 8000;EQDQ01+000000PRSWM2
0196063440999992000100112554+51940+004440FM-15-0004EHRD V0202601N003610270019N0112651N1+01501+01401999999ADDGA1021+002409999GA2071+027009999GF107991999999999999999999MA1100511999999MW1611REMMET070EHRD 011255Z 26007KT 230V290 9999 -RA FEW008 BKN090 15/14 Q1005 NOSIG;EQDQ01+000003PRSWM1Q02    003PRSWM1
0188063440999992000100622554+51940+004440FM-15-0004EHRD V0202301N003112200019N0112651N1+00701+00601999999ADDGA1021+012009999GA2021+030009999GF104991999999999999999999MA1102301999999MW1001REMMET078EHRD 062255Z 23006KT 9999 SCT040 SCT100 07/06 Q1023 TEMPO 5000 -SHRA FEW030CB;EQDQ01+000000PRSWM2
0170063440999992000101219004+51940+004440FM-12-0004EHRD V0201601N004010180019N0250001N1+01241+01001099871ADDGA1021+010209069GA2051+018009069GF106991061051012501031011MD1310231+9999REMSYN086AAXX  12191 06344 42675 61604 10124 20100 49987 53023 86531 333 82634 85656 555 53000;
0148063440999992000101317004+51940+004440FM-12-0004EHRD V0202301N004012200019N0120001N1+01221+00951101221ADDGA1041+006609089GF104991041011008001001001MD1310171+9999REMSYN080AAXX  13171 06344 42562 42304 10122 20095 40122 53017 84100 333 84822 555 53007;
0220063440999992000101411004+51940+004440FM-12-0004EHRD V0201701N003010009019N0014001N1+01011+00981101781ADDAY141999AY241999GA1031+000309079GA2051+000909079GA3081+001509079GF108991081061000251999999MD1310091+9999MW1281REMSYN098AAXX  14111 06344 41014 81703 10101 20098 40178 53009 72844 886// 333 83701 85703 88705 555 53073;
0211063440999992000101809554+51940+004440FM-15-0004EHRD V0201701N006710180019N0112651N1+01001+00901999999ADDGA1021+006609999GA2021+013809999GA3071+018009999GF107991999999999999999999MA1102001999999MW1611REMMET069EHRD 180955Z 17013KT 9999 -RA FEW022 SCT046 BKN060 10/09 Q1020 NOSIG;EQDQ01+000003PRSWM1Q02    003PRSWM1
0237063440999992000101812004+51940+004440FM-12-0004EHRD V0201701N008010150019N0150001N1+01181+01001101941ADDAA106001091AY161061AY221061GA1011+004209069GA2031+014409069GA3071+015009069GF108991081051004501999999MD1810181+9999MW1021REMSYN104AAXX  18121 06344 11465 81708 10118 20100 40194 58018 60011 70262 885// 333 81614 83648 87650 555 53076;
0105063440999992000102308554+51940+004440FM-15-0004EHRD V0201701N00671220001CN0099001N1+01501+01301999999ADDMA1101901999999MW1001REMMET053EHRD 230855Z 17013KT 150V210 CAVOK 15/13 Q1019 NOSIG;EQDQ01+000000PRSWM2
0272063440999992000102513004+51940+004440FM-12-0004EHRD V0202601N012010141019N0230001N1+01491+01101100531ADDGA1011+004509069GA2071+014109069GF107991071051004501031001MD1310061+9999OA140199999OA249999999OA359999999REMSYN104AAXX  25131 06344 42473 72612 10149 20110 40053 53006 87530 333 81615 87647 91018 91118 91213 555 53103;EQDQ01  00932WGOSPDQ02  00932WGOSPDQ03  00672WGOSPD
0189063440999992000102618084+51940+004440FM-16-0004EHRD V0202701N004112200019N0112651N1+00901+00701999999ADDGA1021+008409099GA2021+013509999GF104991999999999999999999MA1101291999999MW1001REMMET079EHRD 261808Z 27008KT 250V310 9999 FEW028CB SCT045 09/07 Q1013 TEMPO 7000 -SHRA;EQDQ01+000000PRSWM2
0168063440999992000110101554+51940+004440FM-15-0004EHRD V0202001N007212200019N0112651N1+00901+00701999999ADDGA1021+004509999GA2021+030009999GF104991999999999999999999MA1099701999999MW1001REMMET058EHRD 010155Z 20014KT 9999 FEW015 SCT100 09/07 Q0997 NOSIG;EQDQ01+000000PRSWM2
0191063440999992000110207474+51940+004440FM-16-0004EHRD V0201601N005110045019N0112651N1+00701+00601999999ADDGA1021+002709999GA2021+003609999GA3071+004509999GF107991999999999999999999MA1099701999999MW1001REMMET065EHRD 020747Z 16010KT 9999 FEW009 SCT012 BKN015 07/06 Q0997 NOSIG;EQDQ01+000000PRSWM2
0148063440999992000110416004+51940+004440FM-12-0004EHRD V0201901N006012200019N0180001N1+00871+00691100801ADDGA1011+006009089GF102991021081008001061031MD1110111+9999REMSYN080AAXX  04161 06344 42568 21906 10087 20069 40080 51011 82863 333 81820 555 53012;
0166063440999992000110702004+51940+004440FM-12-0004EHRD V0201401N00501030001CN0300001N1+00901+00701097801ADDGA1011+009009089GA2031+012009069GF107991031081008001051021MD1110041+9999REMSYN082AAXX  07021 06344 42580 71405 10090 20070 49780 51004 83852 333 81830 83640 86362;
0194063440999992000111002004+51940+004440FM-12-0004EHRD V0202201N008010063019N0180001N1+00781+00641100971ADDAY161999AY221999GA1011+004509089GA2041+006309069GF108991071081004501031999MD1110151+9999MW1601REMSYN088AAXX  10021 06344 41468 82208 10078 20064 40097 51015 76062 8783/ 333 81815 84621 86648;
0216063440999992000111205554+51940+004440FM-15-0004EHRD V0201901N009310144019N0112651N1+00801+00701999999ADDGA1021+004509999GA2071+014409999GF107991999999999999999999MA1100101999999MW1611REMMET090EHRD 120555Z 19018KT 160V220 9999 -RA FEW015 BKN048 08/07 Q1001 WS RWY24 TEMPO 19020G30KT;EQDQ01+000003PRSWM1Q02    003PRSWM1
0176063440999992000111603554+51940+004440FM-15-0004EHRD V0201901N007712200019N0112651N1+00601+00501999999ADDGA1021+003609999GA2021+033009999GF104991999999999999999999MA1100711999999MW1001REMMET066EHRD 160355Z 19015KT 160V220 9999 FEW012 SCT110 06/05 Q1007 NOSIG;EQDQ01+000000PRSWM2
0202063440999992000111806004+51940+004440FM-12-0004EHRD V0202401N003012200019N0200001N1+00551+00371100991ADDAA112005191AY181061AY211061GA1021+007509029GF102991021021008001001011KA1120N+00451MD1310021+9999MW1021REMSYN088AAXX  18061 06344 11570 22403 10055 20037 40099 53002 60052 70281 82201 333 20045 82825;
0221063440999992000111823554+51940+004440FM-15-0004EHRD V0202001N010810024019N0112651N1+00901+00801999999ADDGA1021+001809999GA2071+002409999GA3081+003009999GF108991999999999999999999MA1100001999999MW1001OC101591REMMET087EHRD 182355Z 20021G31KT 170V230 9999 FEW006 BKN008 OVC010 09/08 Q1000 TEMPO 6000 -RADZ;EQDQ01+000000PRSWM2
0196063440999992000112412554+51940+004440FM-15-0004EHRD V0202301N006712200019N0112651N1+00901+00701999999ADDGA1021+006009999GA2021+018009999GF104991999999999999999999MA1100611999999MW1001REMMET086EHRD 241255Z 23013KT 200V260 9999 FEW020 SCT060 09/07 Q1006 TEMPO 6000 -SHRA SCT015CB;EQDQ01+000000PRSWM2
0175063440999992000112510554+51940+004440FM-15-0004EHRD V0201701N007712200019N0112651N1+00801+00701999999ADDGA1021+002709999GA2021+003609999GF104991999999999999999999MA1100311999999MW1001REMMET065EHRD 251055Z 17015KT 9999 FEW009 SCT012 08/07 Q1003 BECMG BKN012;EQDQ01+000000PRSWM2
0368063440999992000112617004+51940+004440SY-MT-0004EHRD V0202201N006010180019N0200001N1+00931+00621100141ADDAY121999AY221999GA1021+007509099GA2021+009009999GA3071+018009999GF107991071081008001001001MA1100101999999MD1110301+9999MW1161MW2251OA149900771REMSYN098AAXX  26171 06344 41570 72206 10093 20062 40014 51030 72522 87800 333 82830 87656 91115 555 53000;MET091EHRD 261700Z 23012KT 210V270 9999 VCSH FEW025CB SCT030 BKN060 10/06 Q1001 TEMPO 7000 -SHRA;EQDQ01    003PRSWM1
0168063440999992000112703554+51940+004440FM-15-0004EHRD V0202201N006712200019N0112651N1+00701+00601999999ADDGA1021+006609999GA2021+012009999GF104991999999999999999999MA1100911999999MW1001REMMET058EHRD 270355Z 22013KT 9999 FEW022 SCT040 07/06 Q1009 NOSIG;EQDQ01+000000PRSWM2
0148063440999992000120505004+51940+004440FM-12-0004EHRD V0201701N006012200019N0150001N1+00771+00671101201ADDGA1011+045009039GF101991011001999999031011MD1810041+9999REMSYN080AAXX  05051 06344 42965 11706 10077 20067 40120 58004 81031 333 81365 555 53000;
0220063440999992000120716004+51940+004440FM-12-0004EHRD V0201101N007010510019N0110001N1+01091+00951100041ADDAY121011AY221011GA1011+012609069GA2031+033009039GA3071+051009049GF108991011051012501071999MD1610331+9999MW1211REMSYN098AAXX  07161 06344 41661 81107 10109 20095 40004 56033 72122 8157/ 333 81642 83361 87467 555 53001;
0228063440999992000121010004+51940+004440FM-12-0004EHRD V0202101N009010048019N0250001N1+01071+00921100451ADDGA1011+003609069GA2051+004809069GA3071+012009069GF108991081051004501999999MD1310031+9999OA149999999REMSYN098AAXX  10101 06344 42475 82109 10107 20092 40045 53003 885// 333 81612 85616 87640 91113 555 53014;EQDQ01  00672WGOSPD
0320063440999992000121106004+51940+004440FM-12-0004EHRD V0202301N012010480019N0120001N1+01141+00811101441ADDAA112004191GA1021+030009039GA2061+048009039GF107991071001999999071011KA1120N+01011MD1310051+9999OA140199999OA249999999OA359999999REMSYN128AAXX  11061 06344 12962 72312 10114 20081 40144 53005 60042 87071 333 20101 82360 86366 91019 91118 91214 555 51118 51213 53000;EQDQ01  00982WGOSPDQ02  00932WGOSPDQ03  00722WGOSPD
0187063440999992000121403554+51940+004440FM-15-0004EHRD V0202501N008210150019N0112651N1+00901+00601999999ADDGA1021+009009999GA2071+015009999GF107991999999999999999999MA1100611999999MW1001OC101391REMMET069EHRD 140355Z 25016G27KT 220V290 9999 SCT030 BKN050 09/06 Q1006 NOSIG;EQDQ01+000000PRSWM2
0170063440999992000121417004+51940+004440FM-12-0004EHRD V0202301N007012200019N0200001N1+00761+00571100051ADDGA1011+004809089GA2031+008409069GF104991041081004501031011MD1610101+9999REMSYN086AAXX  14171 06344 42470 42307 10076 20057 40005 56010 84831 333 81816 83628 555 53000;
0220063440999992000121817004+51940+004440FM-12-0004EHRD V0201201N003010060019N0070001N1+00451+00321101741ADDAY121999AY221999GA1021+003609069GA2061+006009069GA3081+009009069GF108991081051004501999999MD1310061+9999MW1101REMSYN098AAXX  18171 06344 41457 81203 10045 20032 40174 53006 71022 885// 333 82612 86620 88630 555 53000;
0198063440999992000121916004+51940+004440FM-12-0004EHRD V0200901N004012200019N0080001N1+00431+00281102181ADDAY111011AY211011GA1011+003909069GA2041+066009009GF104991021051004501001021MD1310051+9999MW1101REMSYN092AAXX  19161 06344 41458 40904 10043 20028 40218 53005 71011 82502 333 81613 84072 555 53001;
0106063440999992000122020554+51940+004440FM-15-0004EHRD V0201201N00621220001CN0099001N1+00201-00101999999ADDMA1101901999999MW1001REMMET054EHRD 202055Z 12012KT 100V170 CAVOK 02/M01 Q1019 NOSIG;EQDQ01+000000PRSWM2
0098063440999992000122108554+51940+004440FM-15-0004EHRD V0201201N00671220001CN0099001N1+00001-00301999999ADDMA1102101999999MW1001REMMET046EHRD 210855Z 12013KT CAVOK 00/M03 Q1021 NOSIG;EQDQ01+000000PRSWM2
0256063440999992000122505004+51940+004440FM-12-0004EHRD V0200501N008010027019N0050001N1+00081+00011099941ADDAY171999AY261999GA1021+002109079GA2051+002709079GA3081+003609069GF108991081051002501999999MD1310031+9999MW1681OA149999999REMSYN104AAXX  25051 06344 41350 80508 10008 20001 49994 53003 76876 885// 333 82707 85709 88612 91113 555 53000;EQDQ01  00672WGOSPD
0172063440999992000122715004+51940+004440FM-12-0004EHRD V0200301N00401001201CN0018001N1-00051-00081099081ADDAY171031AY271031GA1041+001509079GF108991081071001501999999MD1310041+9999MW1711REMSYN082AAXX  27151 06344 41218 80304 11005 21008 49908 53004 77177 887// 333 84705 88708;
0172063440999992000122823004+51940+004440FM-12-0004EHRD V0202301N007010120019N0400001N1+00181-00011099391ADDAY121999AY221999GA1021+007509089GF105991051081008001001001MD1310071+9999MW1221REMSYN082AAXX  28231 06344 41582 52307 10018 21001 49939 53007 72222 85800 333 82825 84640;
0145063440999992000123109554+51940+004440FM-15-0004EHRD V0202201N003612200019N0112651N1+00301+00201999999ADDGA1021+005709999GF102991999999999999999999MA1101591999999MW1001REMMET051EHRD 310955Z 22007KT 9999 FEW019 03/02 Q1016 NOSIG;EQDQ01+000000PRSWM2
0196063480999992000011113004+51970+004930FM-12+000299999V0202001N005019999999N9999999N1+00371+00161103541ADDMD1710101+9999OA140199999OA249999999OA359999999REMSYN086AAXX  11131 06348 46/// /2005 10037 20016 40354 57010 333 91007 91108 91206 555 53043;EQDQ01  00362WGOSPDQ02  00412WGOSPDQ03  00312WGOSPD
0186063480999992000011504004+51970+004930FM-12+000299999V0200201N003019999999N9999999N1+00321+00301999999ADDOA140199999OA249999999OA359999999REMSYN090    AAXX  15041 06348 46/// /0203 10032 20030 4//// 5//// 333 91004 91105 91203 555 53000;EQDQ01  00212WGOSPDQ02  00262WGOSPDQ03  00152WGOSPD
0176063480999992000012406004+51970+004930FM-12+000299999V0201601N001019999999N9999999N1-00531-00721102411ADDKA1120N-00541MD1310031+9999OA140100101OA249900211OA359900101REMSYN104AAXX  24061 06348 46/// /1601 11053 21072 40241 53003 333 21054 91002 91104 91202 555 51103 51202 53000;
0159063480999992000020701004+51970+004930FM-12+000299999V0202001N009019999999N9999999N1+00911+00811101071ADDMD1810241+9999OA140199999OA249999999REMSYN076AAXX  07011 06348 46/// /2009 10091 20081 40107 58024 333 91012 91113 91209;EQDQ01  00622WGOSPDQ02  00672WGOSPD
0196063480999992000021017004+51970+004930FM-12+000299999V0203001N007019999999N9999999N1+00511+00331101361ADDMD1310331+9999OA140199999OA249999999OA359999999REMSYN086AAXX  10171 06348 46/// /3007 10051 20033 40136 53033 333 91011 91112 91209 555 53001;EQDQ01  00572WGOSPDQ02  00622WGOSPDQ03  00462WGOSPD
0196063480999992000021407004+51970+004930FM-12+000299999V0202001N003019999999N9999999N1+99999+99999102341ADDMD1810081+9999OA140199999OA249999999OA359999999REMSYN086AAXX  14071 06348 46/// /2003 1//// 2//// 40234 58008 333 91004 91104 91203 555 53000;EQDQ01  00212WGOSPDQ02  00212WGOSPDQ03  00152WGOSPD
0225063480999992000021612004+51970+004930FM-12+000299999V0202801N011019999999N9999999N1+00391-00091100161ADDAA106000791MD1110061+9999OA140199999OA249999999OA359999999REMSYN104AAXX  16121 06348 16/// /2811 10039 21009 40016 51006 69901 333 91016 91116 91211 555 51116 51211 53125;EQDQ01  00822WGOSPDQ02  00822WGOSPDQ03  00572WGOSPD
0196063480999992000030214004+51970+004930FM-12+000299999V0202201N011019999999N9999999N1+00611+00311101631ADDMD1810351+9999OA140199999OA249999999OA359999999REMSYN086AAXX  02141 06348 46/// /2211 10061 20031 40163 58035 333 91015 91116 91211 555 53057;EQDQ01  00772WGOSPDQ02  00822WGOSPDQ03  00572WGOSPD
0203063480999992000030900004+51970+004930FM-12+000299999V0202501N008019999999N9999999N1+01111+01021101901ADDAA106001091MD1310071+9999OA140199999OA249900881OA359999999REMSYN098AAXX  09001 06348 16/// /2508 10111 20102 40190 53007 69991 333 91011 91117 91211 555 51114 51210;EQDQ01  00572WGOSPDQ02  00572WGOSPD
0196063480999992000030910004+51970+004930FM-12+000299999V0202801N010019999999N9999999N1+01241+00981101981ADDMD1210201+9999OA140199999OA249999999OA359999999REMSYN086AAXX  09101 06348 46/// /2810 10124 20098 40198 52020 333 91013 91114 91211 555 53048;EQDQ01  00672WGOSPDQ02  00722WGOSPDQ03  00572WGOSPD
0180063480999992000031607004+51970+004930FM-12+000299999V0203101N004019999999N9999999N1+00731+00631102991ADDMD1210071+9999OA140199999OA249900411OA359999999REMSYN086AAXX  16071 06348 46/// /3104 10073 20063 40299 52007 333 91006 91108 91206 555 53004;EQDQ01  00312WGOSPDQ02  00312WGOSPD
0159063480999992000031801004+51970+004930FM-12+000299999V0203101N003019999999N9999999N1+00631+00531103061ADDMD1710031+9999OA140199999OA249999999REMSYN076AAXX  18011 06348 46/// /3103 10063 20053 40306 57003 333 91005 91105 91204;EQDQ01  00262WGOSPDQ02  00262WGOSPD
0124063480999992000032101004+51970+004930FM-12+000299999V0203401N001019999999N9999999N1+00181+00161102621ADDMD1810101+9999OA140100101OA249900101REMSYN076AAXX  21011 06348 46/// /3401 10018 20016 40262 58010 333 91002 91102 91201;
0196063480999992000032120004+51970+004930FM-12+000299999V0201001N002019999999N9999999N1+00541+00411102101ADDMD1810021+9999OA140199999OA249999999OA359999999REMSYN086AAXX  21201 06348 46/// /1002 10054 20041 40210 58002 333 91002 91102 91202 555 53000;EQDQ01  00102WGOSPDQ02  00102WGOSPDQ03  00102WGOSPD
0213063480999992000032500004+51970+004930FM-12+000299999V0201601N002019999999N9999999N1+00701+00651101061ADDAA199000091MD1010011+9999OA140199999OA249900261OA359999999REMSYN092AAXX  25001 06348 36/// /1602 10070 20065 40106 50001 333 91003 91105 91203 555 51104 51203;EQDQ01  00002PRCP99Q02  00152WGOSPDQ03  00152WGOSPD
0196063480999992000032907004+51970+004930FM-12+000299999V0200501N006019999999N9999999N1+00471+00351101621ADDMD1510031+9999OA140199999OA249999999OA359999999REMSYN086AAXX  29071 06348 46/// /0506 10047 20035 40162 55003 333 91008 91111 91207 555 53009;EQDQ01  00412WGOSPDQ02  00572WGOSPDQ03  00362WGOSPD
0196063480999992000041805004+51970+004930FM-12+000299999V0201801N006019999999N9999999N1+00641+00531100601ADDMD1110101+9999OA140199999OA249999999OA359999999REMSYN086AAXX  18051 06348 46/// /1806 10064 20053 40060 51010 333 91007 91108 91206 555 53000;EQDQ01  00362WGOSPDQ02  00412WGOSPDQ03  00312WGOSPD
0196063480999992000042404004+51970+004930FM-12+000299999V0202301N002019999999N9999999N1+00631+00621101221ADDMD1310071+9999OA140199999OA249999999OA359999999REMSYN086AAXX  24041 06348 46/// /2302 10063 20062 40122 53007 333 91003 91103 91202 555 53000;EQDQ01  00152WGOSPDQ02  00152WGOSPDQ03  00102WGOSPD
0196063480999992000050217004+51970+004930FM-12+000299999V0200101N005019999999N9999999N1+01131+00981102251ADDMD1710071+9999OA140199999OA249999999OA359999999REMSYN086AAXX  02171 06348 46/// /0105 10113 20098 40225 57007 333 91009 91109 91206 555 53025;EQDQ01  00462WGOSPDQ02  00462WGOSPDQ03  00312WGOSPD
0169063480999992000050408004+51970+004930FM-12+000299999V02099999999999999999N9999999N1+01071+00981102041ADDMD1510001+9999OA140199999OA249999999REMSYN086AAXX  04081 06348 46/// /02// 10107 20098 40204 55000 333 91008 91108 912// 555 53035;EQDQ01  00412WGOSPDQ02  00412WGOSPD
0095063480999992000051013004+51970+004930FM-12+000299999V02099999999999999999N9999999N1+99999+99999999999REMSYN086AAXX  10131 06348 46/// ///// 1//// 2//// 4//// 5//// 333 910// 911// 912// 555 53///;
0159063480999992000051022004+51970+004930FM-12+000299999V0200301N003019999999N9999999N1+01761+01521101721ADDMD1010011+9999OA140199999OA249999999REMSYN076AAXX  10221 06348 46/// /0303 10176 20152 40172 50001 333 91005 91105 91203;EQDQ01  00262WGOSPDQ02  00262WGOSPD
0197063480999992000051600004+51970+004930FM-12+000299999V0201901N001019999999N9999999N1+01501+01471101571ADDAA199000091MD1810071+9999OA140199999OA249900211OA359900101REMSYN092AAXX  16001 06348 36/// /1901 10150 20147 40157 58007 333 91001 91104 91202 555 51102 51202;EQDQ01  00002PRCP99Q02  00052WGOSPD
0196063480999992000060416004+51970+004930FM-12+000299999V0202901N006019999999N9999999N1+01841+01251101791ADDMD1110051+9999OA140199999OA249999999OA359999999REMSYN086AAXX  04161 06348 46/// /2906 10184 20125 40179 51005 333 91008 91109 91206 555 53217;EQDQ01  00412WGOSPDQ02  00462WGOSPDQ03  00312WGOSPD
0196063480999992000060419004+51970+004930FM-12+000299999V0202901N004019999999N9999999N1+01471+01061101861ADDMD1310071+9999OA140199999OA249999999OA359999999REMSYN086AAXX  04191 06348 46/// /2904 10147 20106 40186 53007 333 91005 91106 91205 555 53036;EQDQ01  00262WGOSPDQ02  00312WGOSPDQ03  00262WGOSPD
0164063480999992000060805004+51970+004930FM-12+000299999V0201301N002019999999N9999999N1+00981+00821102231ADDMD1710061+9999OA140100211OA249900211OA359999999REMSYN086AAXX  08051 06348 46/// /1302 10098 20082 40223 57006 333 91004 91104 91203 555 53025;EQDQ01  00152WGOSPD
0145063480999992000061008004+51970+004930FM-12+000299999V0203101N002019999999N9999999N1+01681+01441101541ADDMD1310141+9999OA140100211OA249900261OA359900211REMSYN086AAXX  10081 06348 46/// /3102 10168 20144 40154 53014 333 91004 91105 91204 555 53110;
0196063480999992000061408004+51960+004930FM-12+000299999V0202401N006019999999N9999999N1+01821+01421102381ADDMD1510031+9999OA140199999OA249999999OA359999999REMSYN086AAXX  14081 06348 46/// /2406 10182 20142 40238 55003 333 91007 91108 91206 555 53176;EQDQ01  00362WGOSPDQ02  00412WGOSPDQ03  00312WGOSPD
0180063480999992000061520004+51960+004930FM-12+000299999V0203101N002019999999N9999999N1+01261+00891102711ADDMD1310081+9999OA140199999OA249900311OA359999999REMSYN086AAXX  15201 06348 46/// /3102 10126 20089 40271 53008 333 91003 91106 91203 555 53009;EQDQ01  00152WGOSPDQ02  00152WGOSPD
0196063480999992000062219004+51960+004930FM-12+000299999V0202401N006019999999N9999999N1+01711+01171101431ADDMD1310021+9999OA140199999OA249999999OA359999999REMSYN086AAXX  22191 06348 46/// /2406 10171 20117 40143 53002 333 91010 91110 91206 555 53045;EQDQ01  00512WGOSPDQ02  00512WGOSPDQ03  00312WGOSPD
0169063480999992000062810004+51960+004930FM-12+000299999V02099999999999999999N9999999N1+01511+00901102051ADDMD1110031+9999OA140199999OA249999999REMSYN086AAXX  28101 06348 46/// /35// 10151 20090 40205 51003 333 91008 91108 912// 555 53145;EQDQ01  00412WGOSPDQ02  00412WGOSPD
0196063480999992000062911004+51960+004930FM-12+000299999V0203001N005019999999N9999999N1+01581+00781102031ADDMD1810031+9999OA140199999OA249999999OA359999999REMSYN086AAXX  29111 06348 46/// /3005 10158 20078 40203 58003 333 91008 91108 91205 555 53292;EQDQ01  00412WGOSPDQ02  00412WGOSPDQ03  00262WGOSPD
0159063480999992000071122004+51960+004930FM-12+000299999V0203101N005019999999N9999999N1+01251+00911100801ADDMD1310201+9999OA140199999OA249999999REMSYN076AAXX  11221 06348 46/// /3105 10125 20091 40080 53020 333 91007 91108 91205;EQDQ01  00362WGOSPDQ02  00412WGOSPD
0181063480999992000073000004+51960+004930FM-12+000299999V0209999C000019999999N9999999N1+01291+01271101871ADDAA199000091MD1010031+9999OA140100051OA249900261OA359900211REMSYN092AAXX  30001 06348 36/// /0000 10129 20127 40187 50003 333 91001 91105 91204 555 51102 51201;EQDQ01  00002PRCP99
0143063480999992000080201004+51960+004930FM-12+000299999V0201801N002019999999N9999999N1+01511+01431101451ADDMD1810061+9999OA140199999OA249900211REMSYN076AAXX  02011 06348 46/// /1802 10151 20143 40145 58006 333 91003 91104 91202;EQDQ01  00152WGOSPD
0222063480999992000081518004+51960+004930FM-12+000299999V0202701N002019999999N9999999N1+01831+01431101871ADDAA199000091KA1120M+02171MD1810021+9999OA140199999OA249900461OA359900311REMSYN104AAXX  15181 06348 36/// /2702 10183 20143 40187 58002 333 10217 91003 91109 91206 555 51105 51204 53046;EQDQ01  00002PRCP99Q02  00152WGOSPD
0235063480999992000081612004+51960+004930FM-12+000299999V0202501N007019999999N9999999N1+02101+01481101551ADDAA199000091MD1710011+9999OA140199999OA249999999OA359999999REMSYN098AAXX  16121 06348 36/// /2507 10210 20148 40155 57001 333 91011 91112 91208 555 51111 51207 53201;EQDQ01  00002PRCP99Q02  00572WGOSPDQ03  00622WGOSPDQ04  00412WGOSPD
0180063480999992000082510004+51960+004930FM-12+000299999V0200401N002019999999N9999999N1+01891+01491102371ADDMD1810011+9999OA140199999OA249900211OA359999999REMSYN086AAXX  25101 06348 46/// /0402 10189 20149 40237 58001 333 91003 91104 91203 555 53120;EQDQ01  00152WGOSPDQ02  00152WGOSPD
0180063480999992000090516004+51960+004930FM-12+000299999V0202801N003019999999N9999999N1+01801+01361102071ADDMD1610051+9999OA140199999OA249900361OA359999999REMSYN086AAXX  05161 06348 46/// /2803 10180 20136 40207 56005 333 91005 91107 91205 555 53032;EQDQ01  00262WGOSPDQ02  00262WGOSPD
0196063480999992000091205004+51960+004930FM-12+000299999V0201601N003019999999N9999999N1+01691+01621101011ADDMD1810141+9999OA140199999OA249999999OA359999999REMSYN086AAXX  12051 06348 46/// /1603 10169 20162 40101 58014 333 91004 91105 91203 555 53000;EQDQ01  00212WGOSPDQ02  00262WGOSPDQ03  00152WGOSPD
0222063480999992000091306004+51960+004930FM-12+000299999V0202701N002019999999N9999999N1+01501+01501101161ADDAA199000091KA1120N+01361MD1310061+9999OA140199999OA249900311OA359900211REMSYN104AAXX  13061 06348 36/// /2702 10150 20150 40116 53006 333 20136 91002 91106 91204 555 51105 51203 53004;EQDQ01  00002PRCP99Q02  00102WGOSPD
0159063480999992000091801004+51960+004930FM-12+000299999V0201801N004019999999N9999999N1+01381+01361100931ADDMD1710121+9999OA140199999OA249999999REMSYN076AAXX  18011 06348 46/// /1804 10138 20136 40093 57012 333 91005 91105 91204;EQDQ01  00262WGOSPDQ02  00262WGOSPD
0159063480999992000092002004+51960+004930FM-12+000299999V0201301N005019999999N9999999N1+01531+01291100141ADDMD1110191+9999OA140199999OA249999999REMSYN076AAXX  20021 06348 46/// /1305 10153 20129 40014 51019 333 91008 91109 91206;EQDQ01  00412WGOSPDQ02  00462WGOSPD
0164063480999992000092113004+51960+004930FM-12+000299999V0203201N002019999999N9999999N1+01841+00951101671ADDMD1210081+9999OA140100211OA249900211OA359999999REMSYN086AAXX  21131 06348 46/// /3202 10184 20095 40167 52008 333 91004 91104 91202 555 53203;EQDQ01  00102WGOSPD
0196063480999992000092508004+51960+004930FM-12+000299999V0202101N004019999999N9999999N1+01441+01301102111ADDMD1110121+9999OA140199999OA249999999OA359999999REMSYN086AAXX  25081 06348 46/// /2104 10144 20130 40211 51012 333 91006 91106 91204 555 53080;EQDQ01  00312WGOSPDQ02  00312WGOSPDQ03  00212WGOSPD
0196063480999992000092514004+51960+004930FM-12+000299999V0202501N004019999999N9999999N1+01861+01181102161ADDMD1310011+9999OA140199999OA249999999OA359999999REMSYN086AAXX  25141 06348 46/// /2504 10186 20118 40216 53001 333 91007 91107 91205 555 53136;EQDQ01  00362WGOSPDQ02  00362WGOSPDQ03  00262WGOSPD
0209063480999992000092612004+51960+004930FM-12+000299999V0202201N003019999999N9999999N1+02061+01531101731ADDAA106000791MD1810041+9999OA140199999OA249900361OA359999999REMSYN104AAXX  26121 06348 16/// /2203 10206 20153 40173 58004 69901 333 91005 91107 91205 555 51106 51204 53148;EQDQ01  00262WGOSPDQ02  00262WGOSPD
0180063480999992000092717004+51960+004930FM-12+000299999V0201901N003019999999N9999999N1+01561+01101101261ADDMD1810131+9999OA140199999OA249900361OA359999999REMSYN086AAXX  27171 06348 46/// /1903 10156 20110 40126 58013 333 91005 91107 91205 555 53022;EQDQ01  00262WGOSPDQ02  00262WGOSPD
0196063480999992000092719004+51960+004930FM-12+000299999V0201601N004019999999N9999999N1+01471+01101101191ADDMD1710111+9999OA140199999OA249999999OA359999999REMSYN086AAXX  27191 06348 46/// /1604 10147 20110 40119 57011 333 91005 91105 91204 555 53000;EQDQ01  00262WGOSPDQ02  00262WGOSPDQ03  00212WGOSPD
0196063480999992000100605004+51960+004930FM-12+000299999V0202301N004019999999N9999999N1+00861+00741101901ADDMD1310021+9999OA140199999OA249999999OA359999999REMSYN086AAXX  06051 06348 46/// /2304 10086 20074 40190 53002 333 91006 91107 91205 555 53000;EQDQ01  00312WGOSPDQ02  00362WGOSPDQ03  00262WGOSPD
0196063480999992000101107004+51960+004930FM-12+000299999V0201601N008019999999N9999999N1+01031+00871097241ADDMD1510041+9999OA140199999OA249999999OA359999999REMSYN086AAXX  11071 06348 46/// /1608 10103 20087 49724 55004 333 91011 91111 91208 555 53006;EQDQ01  00572WGOSPDQ02  00572WGOSPDQ03  00412WGOSPD
0196063480999992000102307004+51960+004930FM-12+000299999V0201701N004019999999N9999999N1+01191+01081102041ADDMD1510031+9999OA140199999OA249999999OA359999999REMSYN086AAXX  23071 06348 46/// /1704 10119 20108 40204 55003 333 91005 91106 91204 555 53002;EQDQ01  00262WGOSPDQ02  00312WGOSPDQ03  00212WGOSPD
0202063480999992000102308004+51960+004930FM-12+000299999V0201701N005019999999N9999999N1+01331+01161102041ADDMD1610011+9999OA140199999OA249999999OA359999999REMSYN092AAXX  23081 06348 46/// /1705 10133 20116 40204 56001 333 91007 91107 91205 555 20118 53032;EQDQ01  00362WGOSPDQ02  00362WGOSPDQ03  00262WGOSPD
0219063480999992000102800004+51960+004930FM-12+000299999V0202201N007019999999N9999999N1+01291+01241101371ADDAA106001091MD1110031+9999OA140199999OA249999999OA359999999REMSYN098AAXX  28001 06348 16/// /2207 10129 20124 40137 51003 69991 333 91010 91113 91209 555 51110 51208;EQDQ01  00512WGOSPDQ02  00672WGOSPDQ03  00462WGOSPD
0196063480999992000102804004+51960+004930FM-12+000299999V0202101N006019999999N9999999N1+01321+01251101311ADDMD1610061+9999OA140199999OA249999999OA359999999REMSYN086AAXX  28041 06348 46/// /2106 10132 20125 40131 56006 333 91008 91109 91206 555 53000;EQDQ01  00412WGOSPDQ02  00462WGOSPDQ03  00312WGOSPD
0208063480999992000102821004+51960+004930FM-12+000299999V0201801N009019999999N9999999N1+01311+00991100291ADDMD1610241+9999OA140199999OA249999999OA359999999REMSYN098AAXX  28211 06348 46/// /1809 10131 20099 40029 56024 333 91012 91113 91209 555 51112 51209 53000;EQDQ01  00622WGOSPDQ02  00672WGOSPDQ03  00462WGOSPD
0196063480999992000103010004+51960+004930FM-12+000299999V0201901N015019999999N9999999N1+01221+00981098251ADDMD1810561+9999OA140199999OA249999999OA359999999REMSYN086AAXX  30101 06348 46/// /1915 10122 20098 49825 58056 333 91020 91124 91217 555 53008;EQDQ01  01032WGOSPDQ02  01242WGOSPDQ03  00882WGOSPD
0192063480999992000110615004+51960+004930FM-12+000299999V0201201N006019999999N9999999N1+01081+00751097861ADDMD1610151+9999OA140199999OA249900721OA359999999REMSYN098AAXX  06151 06348 46/// /1206 10108 20075 49786 56015 333 91009 91114 91209 555 51110 51207 53012;EQDQ01  00462WGOSPDQ02  00462WGOSPD
0196063480999992000111511004+51960+004930FM-12+000299999V0202101N005019999999N9999999N1+00661+00521100971ADDMD1010021+9999OA140199999OA249999999OA359999999REMSYN086AAXX  15111 06348 46/// /2105 10066 20052 40097 50002 333 91007 91109 91206 555 53026;EQDQ01  00362WGOSPDQ02  00462WGOSPDQ03  00312WGOSPD
0202063480999992000111908004+51960+004930FM-12+000299999V0201901N009019999999N9999999N1+00871+00811099571ADDMD1610161+9999OA140199999OA249999999OA359999999REMSYN092AAXX  19081 06348 46/// /1909 10087 20081 49957 56016 333 91012 91114 91210 555 20076 53000;EQDQ01  00622WGOSPDQ02  00722WGOSPDQ03  00512WGOSPD
0196063480999992000112419004+51960+004930FM-12+000299999V0201701N004019999999N9999999N1+00501+00401100821ADDMD1310051+9999OA140199999OA249999999OA359999999REMSYN086AAXX  24191 06348 46/// /1704 10050 20040 40082 53005 333 91005 91105 91204 555 53000;EQDQ01  00262WGOSPDQ02  00262WGOSPDQ03  00212WGOSPD
0159063480999992000112502004+51960+004930FM-12+000299999V0201701N005019999999N9999999N1+00491+00391100751ADDMD1610061+9999OA140199999OA249999999REMSYN076AAXX  25021 06348 46/// /1705 10049 20039 40075 56006 333 91007 91108 91206;EQDQ01  00362WGOSPDQ02  00412WGOSPD
0196063480999992000112711004+51960+004930FM-12+000299999V0202001N005019999999N9999999N1+00731+00561101391ADDMD1110151+9999OA140199999OA249999999OA359999999REMSYN086AAXX  27111 06348 46/// /2005 10073 20056 40139 51015 333 91007 91109 91207 555 53080;EQDQ01  00362WGOSPDQ02  00462WGOSPDQ03  00362WGOSPD
0159063480999992000112801004+51960+004930FM-12+000299999V0201601N006019999999N9999999N1+00801+00661101071ADDMD1710231+9999OA140199999OA249999999REMSYN076AAXX  28011 06348 46/// /1606 10080 20066 40107 57023 333 91009 91110 91207;EQDQ01  00462WGOSPDQ02  00512WGOSPD
0196063480999992000121010004+51960+004930FM-12+000299999V0202101N008019999999N9999999N1+00991+00841100501ADDMD1510021+9999OA140199999OA249999999OA359999999REMSYN086AAXX  10101 06348 46/// /2108 10099 20084 40050 55002 333 91012 91113 91209 555 53021;EQDQ01  00622WGOSPDQ02  00672WGOSPDQ03  00462WGOSPD
0196063480999992000121013004+51960+004930FM-12+000299999V0202101N008019999999N9999999N1+01141+00921100501ADDMD1010001+9999OA140199999OA249999999OA359999999REMSYN086AAXX  10131 06348 46/// /2108 10114 20092 40050 50000 333 91012 91112 91209 555 53020;EQDQ01  00622WGOSPDQ02  00622WGOSPDQ03  00462WGOSPD
0143063480999992000121101004+51960+004930FM-12+000299999V0202301N005019999999N9999999N1+00981+00821101481ADDMD1110131+9999OA140199999OA249900571REMSYN076AAXX  11011 06348 46/// /2305 10098 20082 40148 51013 333 91007 91111 91207;EQDQ01  00362WGOSPD
0208063480999992000121209004+51960+004930FM-12+000299999V0202101N008019999999N9999999N1+01331+01211101431ADDMD1810011+9999OA140199999OA249999999OA359999999REMSYN098AAXX  12091 06348 46/// /2108 10133 20121 40143 58001 333 91010 91115 91209 555 51113 51209 53002;EQDQ01  00512WGOSPDQ02  00772WGOSPDQ03  00462WGOSPD
0183063500999992000010217294+51570+004930FM-15+0013EHGR V0202101N002610012019N0022001N1+00901+00801999999ADDGA1071+001209999GA2081+002709999GF108991999999999999999999MA1102711999999MW1101REMMET057EHGR 1729Z 21005KT 2200 BR BKN004 OVC009 09/08 Q1027 YLO;EQDQ01+000003PRSWM1Q02    003PRSWM1
0160063500999992000010316294+51570+004930FM-15+0013EHGR V0202101N005710045019N0070001N1+00801+00701999999ADDGA1081+004509999GF108991999999999999999999MA1102001999999MW1101REMMET050EHGR 1629Z 21011KT 7000 BR OVC015 08/07 Q1020 WHT;EQDQ01+000003PRSWM1Q02    003PRSWM1
0192063500999992000010318294+51570+004930FM-15+0013EHGR V0202101N006210054019N0090001N1+00901+00701999999ADDGA1021+004209999GA2071+005409999GF107991999999999999999999MA1101901999999MW1511MW2611REMMET060EHGR 1829Z 21012KT 9000 -RADZ FEW014 BKN018 09/07 Q1019 WHT;EQDQ01+000003PRSWM1Q02    003PRSWM1
0176063500999992000010611004+51570+004930FM-12+0013EHGR V0202101N005010210019N0200001N1+00861+00601101491ADDGA1051+021009069GA2061+027009039GF107991051051022501051021MD1110031+9999REMSYN092AAXX  06111 06350 42870 72105 10086 20060 40149 51003 85552 333 85657 86359 97070 555 53034;
0194063500999992000010617004+51570+004930FM-12+0013EHGR V0202201N004010027019N0070001N1+00801+00731101621ADDAY161999AY261999GA1011+001809079GA2061+002709079GF108991081051001501999999MD1310181+9999MW1611REMSYN088AAXX  06171 06350 41257 82204 10080 20073 40162 53018 76166 885// 333 81706 86709 88640;
0206063500999992000010912004+51570+004930FM-12+0013EHGR V0202801N003012200019N0200001N1+00591+00481102551ADDAA106000091AY141061AY211061GA1031+066009009GF103991001001999999001011MD1110121+9999MW1021REMSYN086AAXX  09121 06350 31970 32803 10059 20048 40255 51012 70241 80001 333 83072 555 53091;EQDQ01  00002PRCP06
0185063500999992000011016294+51570+004930FM-15+0013EHGR V0201801N002110660019N0001001N1-00101-00101999999ADDGA1021+001209999GA2071+066009999GF107991999999999999999999MA1103591999999MW1441REMMET059EHGR 1629Z 18004KT 0100 FG FEW004 BKN220 M01/M01 Q1036 RED;EQDQ01+000003PRSWM1Q02    003PRSWM1
0129063500999992000011210004+51570+004930FM-12+0013EHGR V0202001N006019999999N0080001N1+00041+99999999999ADDGF107991999999999999999999REMSYN091AAXX  12101 06350 41958 72006 10004 2101 40303 56004 71022 81032 333 81362 87072 555 53042;
0143063500999992000011220294+51570+004930FM-15+0013EHGR V0201901N006210660019N0112651N1+00001-00201999999ADDGA1071+066009999GF107991999999999999999999MA1102401999999MW1001REMMET049EHGR 2029Z 19012KT 9999 BKN220 M00/M02 Q1024 BLU;EQDQ01+000000PRSWM2
0191063500999992000011817004+51570+004930FM-12+001399999V0203501N006010123019N0250001N1+00621+00181102751ADDGA1011+007209089GA2061+012309069GF107991071081008001001001MD1310121+9999OA149900771REMSYN096    AAXX  18171 06350 42575 73506 10062 20018 40275 53012 87800 333 81824 86641 91115 555 53000;
0176063500999992000011823004+51570+004930FM-12+001399999V0203601N00401007501CN0090001N1+00431+00181103011ADDAY121999AY221999GA1021+006609099GF107991071091008001001001MD1110091+9999MW1801REMSYN086    AAXX  18231 06350 41559 73604 10043 20018 40301 51009 78022 87900 333 82922 85650;
0164063500999992000011903294+51570+004930FM-15+0013EHGR V0203001N002610150019N0112651N1+00301+00201999999ADDGA1021+008109999GA2071+015009999GF107991999999999999999999MA1103011999999MW1001REMMET054EHGR 0329Z 30005KT 9999 FEW027 BKN050 03/02 Q1030 BLU;EQDQ01+000000PRSWM2
0144063500999992000011920004+51570+004930FM-12+0013EHGR V0203001N00301012001CN0250001N1+00331+00181103481ADDGA1031+010809069GF108991081051012501999999MD1110121+9999REMSYN076AAXX  19201 06350 42675 83003 10033 20018 40348 51012 885// 333 83636 88645;
0164063500999992000012021294+51570+004930FM-15+0013EHGR V0202701N003110150019N0112651N1+00501+00401999999ADDGA1021+005109999GA2071+015009999GF107991999999999999999999MA1102711999999MW1001REMMET054EHGR 2129Z 27006KT 9999 FEW017 BKN050 05/04 Q1027 BLU;EQDQ01+000000PRSWM2
0144063500999992000012601004+51570+004930FM-12+0013EHGR V0202201N00201007501CN0150001N1+00101-00181103081ADDGA1011+006909069GF107991071051008001001001MD1010021+9999REMSYN076AAXX  26011 06350 42565 72202 10010 21018 40308 50002 87500 333 81623 87630;
0175063500999992000013104294+51570+004930FM-15+0013EHGR V0202501N009310180019N0112651N1+01001+00601999999ADDGA1021+006009999GA2071+018009999GF107991999999999999999999MA1101491999999MW1001OC101441REMMET057EHGR 0429Z 25018G28KT 9999 FEW020 BKN060 10/06 Q1015 BLU;EQDQ01+000000PRSWM2
0230063500999992000020206004+51570+004930FM-12+0013EHGR V0202301N004010021019N0025001N1+00691+00641101261ADDAA112005191AY161061AY261061GA1011+001509079GA2061+002109079GF108991081051001501999999KA1120N+00691MD1810031+9999MW1581REMSYN100AAXX  02061 06350 11225 82304 10069 20064 40126 58003 60052 75866 885// 333 20069 81705 86707 88614;
0210063500999992000020211164+51570+004930FM-16+0013EHGR V0203001N004610690019N0090001N1+00801+00701999999ADDGA1021+002109999GA2021+015009999GA3071+069009999GF107991999999999999999999MA1101691999999MW1101REMMET068EHGR 1116Z 30009KT 9000 BR FEW007 SCT050 BKN230 08/07 Q1017 BLU BLU;EQDQ01+000003PRSWM1Q02    003PRSWM1
0138063500999992000020601004+51570+004930FM-12+0013EHGR V0202101N003010660019N0300001N1+00791+00221102281ADDGA1071+066009019GF107991001001999999001011MD1810131+9999REMSYN070AAXX  06011 06350 42980 72103 10079 20022 40228 58013 80001 333 87072;
0244063500999992000020914004+51570+004930FM-12+0013EHGR V0202801N009010390019N0140001N1+00751+00271102291ADDGA1021+012009069GA2051+039009039GA3071+066009009GF107991021051012501071999MD1110271+9999OA149999999REMSYN098AAXX  09141 06350 42664 72809 10075 20027 40229 51027 82570 333 82640 85363 87072 91114 555 53042;EQDQ01+000002SCOHCGQ02  00722WGOSPD
0138063500999992000021123004+51570+004930FM-12+0013EHGR V0202101N003012200019N0200001N1+00251+00041102751ADDGA1011+066009019GF101991001001999999001011MD1810101+9999REMSYN070AAXX  11231 06350 42970 12103 10025 20004 40275 58010 80001 333 81072;
0154063500999992000021415294+51570+004930FM-15+0013EHGR V0201801N004610096019N0112651N1+00801+00001999999ADDGA1071+009609999GF107991999999999999999999MA1101801999999MW1001REMMET060EHGR 1529Z 18009KT 9999 BKN032 08/M00 Q1018 BLU FCST CANCEL;EQDQ01+000000PRSWM2
0172063500999992000021522004+51570+004930FM-12+0013EHGR V0201801N003010120019N0150001N1+00491+00271100481ADDAY161999AY221999GA1051+012009069GF107991051051012501071021MD1810431+9999MW1601REMSYN082AAXX  15221 06350 41665 71803 10049 20027 40048 58043 76062 85572 333 85640 87358;
0182063500999992000021614294+51570+004930FM-15+0013EHGR V0202901N008212200019N0112651N1+00501-00101999999ADDGA1021+009009029GA2021+015009999GF104991999999999999999999MA1100201999999MW1001REMMET072EHGR 1429Z 29016KT 9999 FEW030TCU SCT050 05/M01 Q1002 BLU BLU TEMPO GRN;EQDQ01+000000PRSWM2
0178063500999992000021808294+51570+004930FM-15+0013EHGR V0202001N005110015019N0070001N1+00401+00301999999ADDGA1071+001509999GA2081+003009999GF108991999999999999999999MA1100001999999MW1001REMMET068EHGR 0829Z 20010KT 7000 BKN005 OVC010 04/03 Q1000 YLO GRN BECMG WHT;EQDQ01+000000PRSWM2
0141063500999992000021909294+51570+004930FM-15+0013EHGR V0203201N005112200019N0112651N1+00701+00301999999ADDGA1021+006909999GF102991999999999999999999MA1100611999999MW1001REMMET047EHGR 0929Z 32010KT 9999 FEW023 07/03 Q1006 BLU;EQDQ01+000000PRSWM2
0164063500999992000022318294+51570+004930FM-15+0013EHGR V0202001N004110111019N0112651N1+00801+00501999999ADDGA1021+009009999GA2071+011109999GF107991999999999999999999MA1102201999999MW1001REMMET054EHGR 1829Z 20008KT 9999 SCT030 BKN037 08/05 Q1022 BLU;EQDQ01+000000PRSWM2
0148063500999992000022511004+51570+004930FM-12+0013EHGR V0203001N007012200019N0250001N1+00801+00281102641ADDGA1041+007809089GF104991041021008001001001MD1110351+9999REMSYN080AAXX  25111 06350 42575 43007 10080 20028 40264 51035 84200 333 84826 555 53126;
0122063500999992000022701004+51570+004930FM-12+0013EHGR V0201801N003012200019N0150001N1+00021-00171102841ADDGA1001+999999999GF100991001001999999001001MD1710141+9999REMSYN054AAXX  27011 06350 42965 01803 10002 21017 40284 57014;
0157063500999992000030604004+51570+004930FM-12+0013EHGR V0202201N004012200019N0150001N1+00261+00141102911ADDGA1011+018009059GF101991011051017501999001MD1810131+9999REMSYN070AAXX  06041 06350 42765 12204 10026 20014 40291 58013 81500 333 81656;EQDQ01+000002SCOMCG
0206063500999992000030911004+51570+004930FM-12+0013EHGR V0202801N007010120019N0200001N1+01291+00961102161ADDGA1021+006009089GA2071+012009069GF108991081081004501999999MD1210161+9999OA149999999REMSYN092AAXX  09111 06350 42470 82807 10129 20096 40216 52016 888// 333 82820 87640 91113 555 53054;EQDQ01  00672WGOSPD
0144063500999992000031120004+51570+004930FM-12+0013EHGR V0202901N003012200019N0300001N1+00631+00411102321ADDGA1021+006009069GF104991041051008001001001MD1110231+9999REMSYN076AAXX  11201 06350 42580 42903 10063 20041 40232 51023 84500 333 82620 83630;
0180063500999992000031420294+51570+004930FM-15+0013EHGR V0203201N003110270019N0112651N1+00401+00201999999ADDGA1021+006009099GA2071+027009999GF107991999999999999999999MA1102201999999MW1001REMMET070EHGR 2029Z 32006KT 9999 FEW020CB BKN090 04/02 Q1022 BLU BLU TEMPO WHT;EQDQ01+000000PRSWM2
0216063500999992000031822294+51570+004930FM-15+0013EHGR V0200201N004610018019N0045001N1+00601+00601999999ADDGA1021+001209999GA2071+001809999GA3081+003609999GF108991999999999999999999MA1103011999999MW1101MW2511REMMET068EHGR 2229Z 02009KT 4500 -DZ BR SCT004 BKN006 OVC012 06/06 Q1030 YLO;EQDQ01+000003PRSWM1Q02    003PRSWM1
0166063500999992000032001004+51570+004930FM-12+0013EHGR V0200401N002010015019N0045001N1+00291+00261103271ADDAY121999AY221999GA1071+001509069GF107991071061001501001011MD1810061+9999MW1101REMSYN076AAXX  20011 06350 41245 70402 10029 20026 40327 58006 71022 87601 333 87705;
0144063500999992000032222004+51570+004930FM-12+0013EHGR V0202701N001019999999N0040001N1+00441+00341101651ADDGA1011+042009039GF107991011001999999031021MD1310041+9999REMSYN076AAXX  22221 06350 41940 72701 10044 20034 40165 53004 81032 333 81364 87072;
0206063500999992000032510214+51570+004930FM-16+0013EHGR V0202701N003110360019N0050001N1+01001+00901999999ADDGA1021+003309999GA2021+004509999GA3071+036009999GF107991999999999999999999MA1101191999999MW1101REMMET064EHGR 1021Z 27006KT 5000 BR FEW011 SCT015 BKN120 10/09 Q1012 WHT;EQDQ01+000003PRSWM1Q02    003PRSWM1
0148063500999992000032608004+51570+004930FM-12+0013EHGR V0202101N004012200019N0140001N1+00681+00551100981ADDGA1011+003609089GF102991021081004501001001MD1310011+9999REMSYN080AAXX  26081 06350 42464 22104 10068 20055 40098 53001 82800 333 81812 555 53092;
0166063500999992000033002004+51570+004930FM-12+0013EHGR V0200201N006010036019N0060001N1+00611+00491101111ADDAY121999AY221999GA1071+003609059GF108991081051004501999999MD1810101+9999MW1101REMSYN076AAXX  30021 06350 41456 80206 10061 20049 40111 58010 71022 885// 333 87612;
0192063500999992000040310004+51570+004930FM-12+0013EHGR V0201401N004010240019N0250001N1+01411+00511099031ADDGA1011+018009069GA2051+024009039GA3071+066009009GF107991011051017501071041MD1810121+9999REMSYN092AAXX  03101 06350 42775 71404 10141 20051 49903 58012 81574 333 81656 85358 87072 555 53135;
0148063500999992000040413004+51570+004930FM-12+0013EHGR V0202301N005012200019N0300001N1+01551+00651099061ADDGA1031+012609089GF104991041081012501001001MD1310031+9999REMSYN080AAXX  04131 06350 42680 42305 10155 20065 49906 53003 84800 333 83842 555 53151;
0184063500999992000040503294+51570+004930FM-15+0013EHGR V0200201N007710048019N0070001N1+00401+00201999999ADDGA1021+003309999GA2081+004809999GF108991999999999999999999MA1100311999999MW1511REMMET058EHGR 0329Z 02015KT 7000 -DZ SCT011 OVC016 04/02 Q1003 GRN;EQDQ01+000003PRSWM1Q02    003PRSWM1
0177063500999992000040514294+51570+004930FM-15+0013EHGR V0200201N008710129019N0112651N1+00701-00201999999ADDGA1021+007809999GA2071+012909999GF107991999999999999999999MA1101291999999MW1001REMMET067EHGR 1429Z 02017KT 9999 FEW026 BKN043 07/M02 Q1013 BLU FCST CANCEL;EQDQ01+000000PRSWM2
0170063500999992000040609004+51570+004930FM-12+0013EHGR V0200301N003010135019N0250001N1+00651+00131103001ADDGA1011+007509089GA2071+013509069GF107991071081008001001001MD1110251+9999REMSYN086AAXX  06091 06350 42575 70303 10065 20013 40300 51025 87800 333 81825 87645 555 53122;
0166063500999992000040704004+51570+004930FM-12+0013EHGR V0209999V001012200019N0050001N1-00061-00101103431ADDAY101999AY201999GA1021+060009019GF102991001001999999001021MD1010031+9999MW1111REMSYN076AAXX  07041 06350 41950 29901 11006 21010 40343 50003 71100 80002 333 82070;
0164063500999992000040817294+51570+004930FM-15+0013EHGR V0200401N002610720019N0112651N1+01001+00201999999ADDGA1021+045009999GA2071+072009999GF107991999999999999999999MA1101901999999MW1001REMMET054EHGR 1729Z 04005KT 9999 FEW150 BKN240 10/02 Q1019 BLU;EQDQ01+000000PRSWM2
0164063500999992000040900294+51570+004930FM-15+0013EHGR V0200501N002610420019N0112651N1+00701+00201999999ADDGA1071+042009999GA2081+072009999GF108991999999999999999999MA1101491999999MW1001REMMET054EHGR 0029Z 05005KT 9999 BKN140 OVC240 07/02 Q1015 BLU;EQDQ01+000000PRSWM2
0206063500999992000040914004+51570+004930FM-12+0013EHGR V0200701N008010720019N0300001N1+01501+00221101221ADDGA1031+015009089GA2031+072009009GF105991031011017501001011MD1810131+9999OA149999999REMSYN092AAXX  09141 06350 42780 50708 10150 20022 40122 58013 83101 333 83850 83074 91113 555 53215;EQDQ01  00672WGOSPD
0192063500999992000041119294+51570+004930FM-15+0013EHGR V02099999999990270019N0112651N1+00801+00001999999ADDGA1021+013509999GA2021+018009999GA3081+027009999GF108991999999999999999999MA1098981999999MW1001REMMET066EHGR 1929Z VRB02KT 9999 FEW045 SCT060 OVC090 08/M00 Q0990 BLU BLU;EQDQ01+000000PRSWM2
0216063500999992000041221294+51570+004930FM-15+0013EHGR V0201801N003110135019N0112651N1+00401+00301999999ADDGA1021+006309099GA2021+007209999GA3071+013509999GF107991999999999999999999MA1099091999999MW1801REMMET074EHGR 2129Z 18006KT 9999 -SHRA FEW021CB SCT024 BKN045 04/03 Q0991 RERA WHT;EQDQ01+000003PRSWM1Q02    003PRSWM1
0183063500999992000041405464+51570+004930FM-16+0013EHGR V0202101N002612200019N0050001N1+00501+00401999999ADDGA1021+004509999GA2021+014109999GF104991999999999999999999MA1099801999999MW1101REMMET057EHGR 0546Z 21005KT 5000 BR FEW015 SCT047 05/04 Q0998 WHT;EQDQ01+000003PRSWM1Q02    003PRSWM1
0164063500999992000041422294+51570+004930FM-15+0013EHGR V0200201N003610600019N0112651N1+00601+00401999999ADDGA1021+021009999GA2081+060009999GF108991999999999999999999MA1099801999999MW1001REMMET054EHGR 2229Z 02007KT 9999 FEW070 OVC200 06/04 Q0998 BLU;EQDQ01+000000PRSWM2
0260063500999992000041600004+51570+004930FM-12+0013EHGR V0202201N007010060019N0090001N1+00711+00481099671ADDAA106001091AY181061AY261061GA1011+004509069GA2051+006009069GA3081+007509069GF108991081051004501999999MD1310231+9999MW1601OA149900821REMSYN116AAXX  16001 06350 11459 82207 10071 20048 49967 53023 60011 76086 885// 333 81615 85620 88625 91116 555 51113 51860;
0220063500999992000042308004+51570+004930FM-12+0013EHGR V0202901N003010024019N0032001N1+01121+01101100951ADDAY161999AY221999GA1031+001209079GA2061+002409079GA3081+008409069GF108991081051001501999999MD1110061+9999MW1211REMSYN098AAXX  23081 06350 41232 82903 10112 20110 40095 51006 72162 885// 333 83704 86708 88628 555 53041;
0198063500999992000042608004+51570+004930FM-12+0013EHGR V0201601N00301075001CN0200001N1+01661+01101100591ADDAY121999AY221999GA1011+010509099GA2031+036009039GF105991011091012501031011MD1510021+9999MW1801REMSYN092AAXX  26081 06350 41670 51603 10166 20110 40059 55002 78022 81931 333 81935 83362 555 53093;
0147063500999992000042613294+51570+004930FM-15+0013EHGR V0202201N004110144019N0112651N1+02201+01301999999ADDGA1071+014409999GF107991999999999999999999MA1100611999999MW1001REMMET053EHGR 261329Z 22008KT 9999 BKN048 22/13 Q1006 BLU BLU;EQDQ01+000000PRSWM2
0170063500999992000042711004+51570+004930FM-12+0013EHGR V0200301N002010390019N0200001N1+01821+01181101131ADDGA1011+007509089GA2061+039009029GF107991021081008001071021MD1810101+9999REMSYN086AAXX  27111 06350 42570 70302 10182 20118 40113 58010 82872 333 81825 86263 555 53172;
0208063500999992000042910294+51570+004930FM-15+0013EHGR V0202601N003110021019N0025001N1+01201+01101999999ADDGA1021+001809999GA2071+002109999GA3081+002409999GF108991999999999999999999MA1101491999999MW1101REMMET066EHGR 291029Z 26006KT 2500 BR SCT006 BKN007 OVC008 12/11 Q1015 YLO;EQDQ01+000003PRSWM1Q02    003PRSWM1
0162063500999992000043005294+51570+004930FM-15+0013EHGR V0200301N001510126019N0028001N1+01101+01001999999ADDGA1081+012609999GF108991999999999999999999MA1102101999999MW1101REMMET052EHGR 300529Z 03003KT 2800 BR OVC042 11/10 Q1021 YLO;EQDQ01+000003PRSWM1Q02    003PRSWM1
0198063500999992000050313004+51570+004930FM-12+0013EHGR V0203401N004010021019N0040001N1+01251+01121102041ADDAY121999AY221999GA1061+002109079GA2081+002709079GF108991081061002501999999MD1610051+9999MW1101REMSYN092AAXX  03131 06350 41340 83404 10125 20112 40204 56005 71022 886// 333 86707 88709 555 53057;
0198063500999992000050315004+51570+004930FM-12+0013EHGR V0203401N004010027019N0050001N1+01391+01201101971ADDAY151031AY221031GA1051+002709079GA2071+003609069GF108991081051004501999999MD1810081+9999MW1101REMSYN092AAXX  03151 06350 41450 83404 10139 20120 40197 58008 71052 885// 333 85709 87612 555 53062;
0189063500999992000050411294+51570+004930FM-15+0013EHGR V0200201N004610270019N0112651N1+01501+01301999999ADDGA1021+003909999GA2071+027009999GA3071+066009999GF107991999999999999999999MA1102001999999MW1001REMMET063EHGR 041129Z 02009KT 9999 FEW013 BKN090 BKN220 15/13 Q1020 BLU;EQDQ01+000000PRSWM2
0143063500999992000050511294+51570+004930FM-15+0013EHGR V0200601N005112200019N0112651N1+02401+01101999999ADDGA1021+012009999GF102991999999999999999999MA1101391999999MW1001REMMET049EHGR 051129Z 06010KT 9999 FEW040 24/11 Q1014 BLU;EQDQ01+000000PRSWM2
0143063500999992000050522294+51570+004930FM-15+0013EHGR V0200601N002112200019N0112651N1+01501+00901999999ADDGA1021+045009999GF102991999999999999999999MA1101291999999MW1001REMMET049EHGR 052229Z 06004KT 9999 FEW150 15/09 Q1013 BLU;EQDQ01+000000PRSWM2
0198063500999992000050905004+51570+004930FM-12+0013EHGR V0203301N001012200019N0060001N1+01221+01191101771ADDAY111999AY211999GA1031+033009039GA2031+075009009GF104991031001999999031021MD1510011+9999MW1111REMSYN092AAXX  09051 06350 41956 43301 10122 20119 40177 55001 71111 83032 333 83361 83075 555 53007;
0176063500999992000050920004+51570+004930FM-12+0013EHGR V0200201N001012200019N0080001N1+01831+01441101681ADDAY101999AY201999GA1011+045009039GF102991011001999999031011MD1310071+9999MW1051REMSYN086AAXX  09201 06350 41958 20201 10183 20144 40168 53007 70500 81031 333 81365 555 53000;
0170063500999992000051117004+51570+004930FM-12+0013EHGR V0200301N003019999999N0300001N1+02261+01181101611ADDGA1021+039009009GA2031+075009009GF105991021001999999031021MD1810131+9999REMSYN086AAXX  11171 06350 42980 50303 10226 20118 40161 58013 82032 333 82063 83075 555 53041;
0176063500999992000051221004+51570+004930FM-12+0013EHGR V0201901N001012200019N0035001N1+01641+01391102061ADDAY111031AY211031GA1041+090009009GF104991001001999999001011MD1310161+9999MW1101REMSYN086AAXX  12211 06350 41935 41901 10164 20139 40206 53016 71011 80001 333 84080 555 53000;
0170063500999992000051613004+51570+004930FM-12+0013EHGR V0201801N004010780019N0250001N1+02901+01321101191ADDGA1011+015009089GA2061+078009009GF106991011021017501001021MD1610171+9999REMSYN086AAXX  16131 06350 42775 61804 10290 20132 40119 56017 81202 333 81850 86076 555 53275;
0194063500999992000052201004+51570+004930FM-12+0013EHGR V0202601N002010033019N0032001N1+01031+00971100801ADDAY161999AY221999GA1021+001509079GA2051+003309069GF108991081051001501999999MD1210161+9999MW1601REMSYN088AAXX  22011 06350 41232 82602 10103 20097 40080 52016 76062 885// 333 82705 85611 87628;
0189063500999992000052318254+51570+004930FM-15+0013EHGR V0202001N003610180019N0112651N1+01801+01201999999ADDGA1021+010809999GA2021+014409999GA3071+018009999GF107991999999999999999999MA1101391999999MW1001REMMET063EHGR 231825Z 20007KT 9999 FEW036 SCT048 BKN060 18/12 Q1014 BLU;EQDQ01+000000PRSWM2
0228063500999992000052500514+51570+004930FM-16+0013EHGR V0202001N006210063019N0050001N1+01401+01301999999ADDGA1021+001209999GA2071+006309999GA3081+018009999GF108991999999999999999999MA1100711999999MW1611REMMET070EHGR 250051Z 20012KT 5000 -RA BR FEW004 BKN021 OVC060 14/13 Q1007 WHT;EQDQ01+000100PRSWM3Q02+000003PRSWM1Q03    003PRSWM1
0170063500999992000053011004+51570+004930FM-12+0013EHGR V0202101N002010630019N0300001N1+01421+00741101451ADDGA1011+008409089GA2071+063009009GF107991021081008001071021MD1710101+9999REMSYN086AAXX  30111 06350 42580 72102 10142 20074 40145 57010 82872 333 81828 87071 555 53180;
0189063500999992000060104254+51570+004930FM-15+0013EHGR V0201901N002610300019N0112651N1+01201+01001999999ADDGA1021+015009999GA2021+021009999GA3071+030009999GF107991999999999999999999MA1101901999999MW1001REMMET063EHGR 010425Z 19005KT 9999 FEW050 SCT070 BKN100 12/10 Q1019 BLU;EQDQ01+000000PRSWM2
0166063500999992000060301004+51570+004930FM-12+0013EHGR V0209999C000012200019N0045001N1+01141+01061101941ADDAY101999AY201999GA1021+039009079GF102991021001999999031001MD1010001+9999MW1101REMSYN076AAXX  03011 06350 41945 20000 10114 20106 40194 50000 71000 82030 333 82363;
0195063500999992000060404554+51570+004930FM-15+0013EHGR V0202701N005110012019N0012001N1+01701+01601999999ADDGA1071+001209999GA2081+001809999GF108991999999999999999999MA1101391999999MW1101MW2511REMMET063EHGR 040455Z 27010KT 1200 -DZ BR BKN004 OVC006 17/16 Q1014 AMB;EQDQ01+000003PRSWM1Q02    003PRSWM1
0231063500999992000060408004+51570+004930FM-12+0013EHGR V0202401N003010120019N0032001N1+01661+01471101641ADDAA199000021AY121999AY221999GA1011+003309079GA2031+004509069GA3071+012009069GF107991071051004501001001MD1310231+9999MW1101REMSYN098AAXX  04081 06350 31432 72403 10166 20147 40164 53023 71022 87500 333 81711 83615 87640 555 53056;
0143063500999992000060421254+51570+004930FM-15+0013EHGR V0203101N002612200019N0112651N1+01001+00801999999ADDGA1021+012909999GF102991999999999999999999MA1101901999999MW1001REMMET049EHGR 042125Z 31005KT 9999 FEW043 10/08 Q1019 BLU;EQDQ01+000000PRSWM2
0147063500999992000060912254+51570+004930FM-15+0013EHGR V0201801N005712200019N0112651N1+02801+01901999999ADDGA1021+012909999GF102991999999999999999999MA1101021999999MW1001REMMET053EHGR 091225Z 18011KT 9999 FEW043 28/19 Q1010 BLU BLU;EQDQ01+000000PRSWM2
0176063500999992000061308254+51570+004930FM-15+0013EHGR V0202401N004112200019N0050001N1+01701+01401999999ADDGA1021+004509999GF104991999999999999999999MA1102511999999MW1051REMMET066EHGR 130825Z 24008KT 5000 HZ SCT015 17/14 Q1025 WHT WHT BECMG BLU;EQDQ01+000003PRSWM1Q02    003PRSWM1
0166063500999992000061420254+51570+004930FM-15+0013EHGR V0202701N005110108019N0112651N1+01901+01401999999ADDGA1021+007809999GA2071+010809999GF107991999999999999999999MA1102101999999MW1001REMMET056EHGR 142025Z 27010KT 9999 FEW026 BKN036 19/14 Q1021 BLU;EQDQ01+000000PRSWM2
0143063500999992000061704254+51570+004930FM-15+0013EHGR V0201201N001012200019N0112651N1+00801+00601999999ADDGA1021+072009999GF102991999999999999999999MA1103011999999MW1001REMMET049EHGR 170425Z 12002KT 9999 FEW240 08/06 Q1030 BLU;EQDQ01+000000PRSWM2
0148063500999992000061708004+51570+004930FM-12+0013EHGR V0201501N003012200019N0300001N1+01521+00771103141ADDGA1011+090009009GF101991001001999999001011MD1110071+9999REMSYN080AAXX  17081 06350 42980 11503 10152 20077 40314 51007 80001 333 81080 555 53191;
0148063500999992000061809004+51570+004930FM-12+0013EHGR V0202101N003010900019N0250001N1+02341+01091102651ADDGA1051+090009009GF105991001001999999001011MD1810011+9999REMSYN080AAXX  18091 06350 42975 52103 10234 20109 40265 58001 80001 333 85080 555 53225;
0234063500999992000062218004+51570+004930FM-12+0013EHGR V0202301N00401030001CN0250001N1+01821+00981101441ADDAA112001091AY181061AY221061GA1011+011409089GA2031+015009069GF105991031081012501031011KA1120M+02371MD1510051+9999MW1021REMSYN104AAXX  22181 06350 11675 52304 10182 20098 40144 55005 69992 70282 83831 333 10237 81838 83650 555 53060;
0138063500999992000062303004+51570+004930FM-12+0013EHGR V0202001N004010114019N0300001N1+01431+01061101431ADDGA1061+011409059GF107991071051012501031001MD1810041+9999REMSYN070AAXX  23031 06350 42680 72004 10143 20106 40143 58004 87530 333 86638;
0215063500999992000062312004+51570+004930FM-12+0013EHGR V0202301N00701012001CN0150001N1+01881+01271101591ADDAA106000791AY121061AY221061GA1011+006009099GA2031+015009069GF106991051081008001031011MD1110051+9999MW1151REMSYN098AAXX  23121 06350 11565 62307 10188 20127 40159 51005 69901 71522 85831 333 81920 83650 555 53233;
0185063500999992000062421254+51570+004930FM-15+0013EHGR V0202501N001010150019N0080001N1+01201+01101999999ADDGA1021+005409999GA2071+015009999GF107991999999999999999999MA1101591999999MW1101REMMET059EHGR 242125Z 25002KT 8000 BR FEW018 BKN050 12/11 Q1016 BLU;EQDQ01+000003PRSWM1Q02    003PRSWM1
0170063500999992000062521004+51570+004930FM-12+0013EHGR V0203001N003010150019N0300001N1+01091+00801102221ADDGA1011+008409089GA2071+015009069GF107991071081008001001001MD1310151+9999REMSYN086AAXX  25211 06350 42580 73003 10109 20080 40222 53015 87800 333 81828 87650 555 53000;
0170063500999992000062812254+51570+004930FM-15+0013EHGR V0203501N004612200019N0112651N1+01601+00801999999ADDGA1021+011709999GA2021+015009999GF104991999999999999999999MA1102001999999MW1001REMMET060EHGR 281225Z 35009KT 9999 SCT039 SCT050 16/08 Q1020 BLU BLU;EQDQ01+000000PRSWM2
0170063500999992000062816004+51570+004930FM-12+0013EHGR V0203301N004010150019N0300001N1+01601+00751102001ADDGA1021+012609089GA2051+015009069GF106991061081012501001001MD1510001+9999REMSYN086AAXX  28161 06350 42680 63304 10160 20075 40200 55000 86800 333 82842 85650 555 53156;
0234063500999992000062918004+51570+004930FM-12+0013EHGR V0203201N002010060019N0150001N1+01331+01051101961ADDAA112000791AY161061AY221061GA1011+004509089GA2081+006009069GF108991081081004501999999KA1120M+01651MD1710091+9999MW1021REMSYN104AAXX  29181 06350 11465 83202 10133 20105 40196 57009 69902 70262 888// 333 10165 81815 88620 555 53011;
0198063500999992000070117004+51570+004930FM-12+0013EHGR V0200601N00201075001CN0060001N1+01841+01521101001ADDAY121999AY221999GA1011+003909089GA2031+039009039GF105991021081004501031011MD1810031+9999MW1101REMSYN092AAXX  01171 06350 41456 50602 10184 20152 40100 58003 71022 82831 333 81813 83363 555 53141;
0189063500999992000070815254+51570+004930FM-15+0013EHGR V0202401N002610180019N0112651N1+01401+01101999999ADDGA1021+006609999GA2021+009009999GA3071+018009999GF107991999999999999999999MA1101491999999MW1001REMMET063EHGR 081525Z 24005KT 9999 FEW022 SCT030 BKN060 14/11 Q1015 BLU;EQDQ01+000000PRSWM2
0143063500999992000071123254+51570+004930FM-15+0013EHGR V0202701N002612200019N0112651N1+01001+00801999999ADDGA1021+015009999GF104991999999999999999999MA1100911999999MW1001REMMET049EHGR 112325Z 27005KT 9999 SCT050 10/08 Q1009 BLU;EQDQ01+000000PRSWM2
0220063500999992000071309004+51570+004930FM-12+0013EHGR V0202101N00401004201CN0070001N1+01391+01301101081ADDAY161031AY221031GA1011+002709079GA2041+003309069GA3071+004209069GF108991081051002501999999MD1810091+9999MW1611REMSYN098AAXX  13091 06350 41357 82104 10139 20130 40108 58009 76162 885// 333 81709 84611 87614 555 53035;
0228063500999992000071322474+51570+004930FM-16+0013EHGR V0202501N003110036019N0070001N1+01501+01401999999ADDGA1021+002109999GA2071+003609999GA3071+018009999GF107991999999999999999999MA1100711999999MW1611REMMET070EHGR 132247Z 25006KT 7000 -RA BR FEW007 BKN012 BKN060 15/14 Q1007 GRN;EQDQ01+000100PRSWM3Q02+000003PRSWM1Q03    003PRSWM1
0166063500999992000071610254+51570+004930FM-15+0013EHGR V0203001N004110105019N0112651N1+01501+01301999999ADDGA1021+004509999GA2071+010509999GF107991999999999999999999MA1101391999999MW1001REMMET056EHGR 161025Z 30008KT 9999 FEW015 BKN035 15/13 Q1014 BLU;EQDQ01+000000PRSWM2
0170063500999992000071811004+51570+004930FM-12+0013EHGR V0203101N005010900019N0250001N1+01761+00971101931ADDGA1021+009609069GA2041+090009009GF105991021041008001001011MD1610041+9999REMSYN086AAXX  18111 06350 42575 53105 10176 20097 40193 56004 82401 333 82632 84080 555 53293;
0166063500999992000071823254+51570+004930FM-15+0013EHGR V0202701N002610105019N0112651N1+01401+01201999999ADDGA1021+005109999GA2071+010509999GF107991999999999999999999MA1101901999999MW1001REMMET056EHGR 182325Z 27005KT 9999 FEW017 BKN035 14/12 Q1019 BLU;EQDQ01+000000PRSWM2
0143063500999992000072016254+51570+004930FM-15+0013EHGR V0203301N011012200019N0112651N1+02101+01001999999ADDGA1021+013509999GF102991999999999999999999MA1102201999999MW1001REMMET049EHGR 201625Z 33011KT 9999 FEW045 21/10 Q1022 BLU;EQDQ01+000000PRSWM2
0175063500999992000072201254+51570+004930FM-15+0013EHGR V0203201N002112200019N0013001N1+00901+00901999999ADDGA1021+006909999GF102991999999999999999999MA1102201999999MW1121MW2411REMMET059EHGR 220125Z 32004KT 1300 BCFG MIFG FEW023 09/09 Q1022 AMB;EQDQ01+000003PRSWM1Q02    003PRSWM1
0225063500999992000072206004+51570+004930FM-12+0013EHGR V0203101N002010045019N0060001N1+01221+01121102211ADDAA199000091AY111061AY211061GA1081+004509069GF108991081051004501999999KA1120N+00741MD1510021+9999MW1101REMSYN092AAXX  22061 06350 31456 83102 10122 20112 40221 55002 71011 885// 333 20074 88615 555 53010;EQDQ01  00002PRCP99
0185063500999992000072406044+51570+004930FM-16+0013EHGR V0200301N004610390019N0050001N1+01801+01701999999ADDGA1071+039009999GA2071+069009999GF107991999999999999999999MA1100711999999MW1101REMMET059EHGR 240604Z 03009KT 5000 BR BKN130 BKN230 18/17 Q1007 WHT;EQDQ01+000003PRSWM1Q02    003PRSWM1
0198063500999992000072510004+51570+004930FM-12+0013EHGR V0203001N005010018019N0045001N1+01611+01521100521ADDAY121999AY221999GA1051+001809079GA2081+002709079GF108991081061001501999999MD1210181+9999MW1101REMSYN092AAXX  25101 06350 41245 83005 10161 20152 40052 52018 71022 886// 333 85706 88709 555 53043;
0204063500999992000072604004+51570+004930FM-12+0013EHGR V0200401N002010030019N0035001N1+01371+01311100801ADDAY121999AY221999GA1031+002409079GA2081+003009079GF108991081071002501999999MD1610021+9999MW1501REMSYN098AAXX  26041 06350 41335 80402 10137 20131 40080 56002 75022 887// 333 83708 88710 555 51850 53000;
0164063500999992000072800254+51570+004930FM-15+0013EHGR V0202601N001510069019N0009001N1+01501+01401999999ADDGA1071+006909999GF107991999999999999999999MA1101191999999MW1411REMMET054EHGR 280025Z 26003KT 0900 BCFG BKN023 15/14 Q1012 AMB;EQDQ01+000003PRSWM1Q02    003PRSWM1
0185063500999992000072803454+51570+004930FM-15+0013EHGR V02099999999990006019N0006001N1+01501+01401999999ADDGA1071+000609999GA2071+003009999GF107991999999999999999999MA1101191999999MW1441REMMET059EHGR 280345Z VRB02KT 0600 FG BKN002 BKN010 15/14 Q1012 RED;EQDQ01+000003PRSWM1Q02    003PRSWM1
0147063500999992000080210504+51570+004930FM-15+0013EHGR V0202601N005110075019N0112651N1+02001+01401999999ADDGA1071+007509999GF107991999999999999999999MA1101491999999MW1001REMMET053EHGR 021050Z 26010KT 9999 BKN025 20/14 Q1015 BLU BLU;EQDQ01+000000PRSWM2
0176063500999992000080408254+51570+004930FM-15+0013EHGR V0202901N002112200019N0050001N1+01701+01501999999ADDGA1021+003309999GF104991999999999999999999MA1102001999999MW1101REMMET066EHGR 040825Z 29004KT 5000 BR SCT011 17/15 Q1020 GRN GRN BECMG WHT;EQDQ01+000003PRSWM1Q02    003PRSWM1
0173063500999992000080601254+51570+004930FM-15+0013EHGR V02099999999992200019N0060001N1+01101+01101999999ADDGA1021+075009999GF102991999999999999999999MA1102301999999MW1101MW2121REMMET057EHGR 060125Z VRB02KT 6000 MIFG BR FEW250 11/11 Q1023 WHT;EQDQ01+000003PRSWM1Q02    003PRSWM1
0220063500999992000080720004+51570+004930FM-12+0013EHGR V0203001N003010420019N0080001N1+01691+01481102191ADDAY121999AY221999GA1021+027009039GA2051+042009039GA3081+066009029GF108991061001999999051071MD1310061+9999MW1101REMSYN098AAXX  07201 06350 41958 83003 10169 20148 40219 53006 71022 86057 333 82359 85364 88272 555 53000;
0170063500999992000080915004+51570+004930FM-12+0013EHGR V0202101N002010840019N0200001N1+02411+01481101921ADDGA1021+012009089GA2051+084009009GF106991021021012501031011MD1810141+9999REMSYN086AAXX  09151 06350 42670 62102 10241 20148 40192 58014 82231 333 82840 85078 555 53171;
0166063500999992000081622504+51570+004930FM-15+0013EHGR V0201701N001010072019N0112651N1+01701+01701999999ADDGA1021+006309999GA2071+007209999GF107991999999999999999999MA1101191999999MW1001REMMET056EHGR 162250Z 17002KT 9999 SCT021 BKN024 17/17 Q1012 WHT;EQDQ01+000000PRSWM2
0189063500999992000081919254+51570+004930FM-15+0013EHGR V02099999999990270019N0112651N1+01801+01701999999ADDGA1021+010809999GA2021+015009999GA3071+027009999GF107991999999999999999999MA1101191999999MW1001REMMET063EHGR 191925Z VRB02KT 9999 FEW036 SCT050 BKN090 18/17 Q1012 BLU;EQDQ01+000000PRSWM2
0166063500999992000082102254+51570+004930FM-15+0013EHGR V0203001N001510150019N0112651N1+01301+01201999999ADDGA1021+003309999GA2081+015009999GF108991999999999999999999MA1101291999999MW1001REMMET056EHGR 210225Z 30003KT 9999 FEW011 OVC050 13/12 Q1013 BLU;EQDQ01+000000PRSWM2
0176063500999992000082504004+51570+004930FM-12+0013EHGR V0202901N001012200019N0050001N1+00941+00871102321ADDAY101999AY201999GA1011+042009039GF102991011001999999031011MD1710051+9999MW1111REMSYN086AAXX  25041 06350 41950 22901 10094 20087 40232 57005 71100 81031 333 81364 555 53000;
0166063500999992000082619254+51570+004930FM-15+0013EHGR V0202801N004610150019N0112651N1+02001+01601999999ADDGA1071+015009999GA2071+075009999GF107991999999999999999999MA1101021999999MW1001REMMET056EHGR 261925Z 28009KT 9999 BKN050 BKN250 20/16 Q1010 BLU;EQDQ01+000000PRSWM2
0170063500999992000083114004+51570+004930FM-12+0013EHGR V0209999V001010750019N0300001N1+02081+01041101101ADDGA1021+012609089GA2061+075009009GF107991021081012501001011MD1810161+9999REMSYN086AAXX  31141 06350 42680 79901 10208 20104 40110 58016 82801 333 82842 86075 555 53203;
0185063500999992000090104254+51570+004930FM-15+0013EHGR V0201701N003110300019N0070001N1+01401+01001999999ADDGA1021+021009999GA2071+030009999GF107991999999999999999999MA1100411999999MW1101REMMET059EHGR 010425Z 17006KT 7000 BR SCT070 BKN100 14/10 Q1004 WHT;EQDQ01+000003PRSWM1Q02    003PRSWM1
0143063500999992000090601254+51570+004930FM-15+0013EHGR V0201901N003110135019N0112651N1+01301+01101999999ADDGA1071+013509999GF107991999999999999999999MA1101591999999MW1001REMMET049EHGR 060125Z 19006KT 9999 BKN045 13/11 Q1016 BLU;EQDQ01+000000PRSWM2
0143063500999992000090701254+51570+004930FM-15+0013EHGR V0203001N005112200019N0112651N1+01401+01001999999ADDGA1021+010809999GF102991999999999999999999MA1100911999999MW1001REMMET049EHGR 070125Z 30010KT 9999 FEW036 14/10 Q1009 BLU;EQDQ01+000000PRSWM2
0232063500999992000090811254+51570+004930FM-15+0013EHGR V0202201N004610024019N0048001N1+01801+01701999999ADDGA1021+001809999GA2071+002409999GA3081+003609999GF108991999999999999999999MA1101901999999MW1101MW2511REMMET084EHGR 081125Z 22009KT 4800 -DZ BR FEW006 BKN008 OVC012 18/17 Q1019 GRN GRN TEMPO YLO;EQDQ01+000003PRSWM1Q02    003PRSWM1
0138063500999992000091122004+51570+004930FM-12+0013EHGR V0209999V001010720019N0100001N1+01621+01491101321ADDGA1071+072009019GF107991001001999999001021MD1810041+9999REMSYN070AAXX  11221 06350 42960 79901 10162 20149 40132 58004 80002 333 87074;
0204063500999992000091309004+51570+004930FM-12+0013EHGR V0209999V00101006001CN0044001N1+01701+01671101271ADDAY141031AY221031GA1011+001209079GA2031+001809089GF105991051081001501001001MD1310081+9999MW1101REMSYN098AAXX  13091 06350 41244 59901 10170 20167 40127 53008 71042 85800 333 81704 83806 555 53062 62400;
0196063500999992000091322254+51570+004930FM-15+0013EHGR V02099999999990180019N0060001N1+01401+01301999999ADDGA1021+015009999GA2071+018009999GF107991999999999999999999MA1101391999999MW1101MW2121REMMET064EHGR 132225Z VRB01KT 6000 MIFG BR SCT050 BKN060 14/13 Q1014 WHT;EQDQ01+000003PRSWM1Q02    003PRSWM1
0220063500999992000091510004+51570+004930FM-12+0013EHGR V0201501N00301069001CN0060001N1+01731+01511101281ADDAY121999AY221999GA1011+027009039GA2041+039009039GA3071+069009009GF107991041001999999071021MD1810101+9999MW1101REMSYN098AAXX  15101 06350 41956 71503 10173 20151 40128 58010 71022 84072 333 81359 84363 87073 555 53097;
0185063500999992000091700254+51570+004930FM-15+0013EHGR V02099999999990210019N0032001N1+01401+01401999999ADDGA1021+010809999GA2071+021009999GF107991999999999999999999MA1100811999999MW1101REMMET059EHGR 170025Z VRB02KT 3200 BR FEW036 BKN070 14/14 Q1008 YLO;EQDQ01+000003PRSWM1Q02    003PRSWM1
0220063500999992000091713004+51570+004930FM-12+0013EHGR V0202801N003010075019N0090001N1+01631+01461101061ADDAY121999AY221999GA1021+004509089GA2061+007509069GA3081+010509069GF108991081081004501999999MD1110051+9999MW1211REMSYN098AAXX  17131 06350 41459 82803 10163 20146 40106 51005 72122 888// 333 82815 86625 88635 555 53023;
0144063500999992000091905004+51570+004930FM-12+0013EHGR V0201301N004012200019N0100001N1+01221+01081100341ADDGA1021+018009069GF104991021051017501031021MD1710071+9999REMSYN076AAXX  19051 06350 42760 41304 10122 20108 40034 57007 82532 333 82656 83073;
0170063500999992000091907004+51570+004930FM-12+0013EHGR V0201301N005010660019N0100001N1+01361+01161100341ADDGA1011+018009069GA2051+066009009GF105991011051017501031021MD1610021+9999REMSYN086AAXX  19071 06350 42760 51305 10136 20116 40034 56002 81532 333 81656 85072 555 53035;
0182063500999992000092108004+51570+004930FM-12+0013EHGR V0209999V001010003019N0001001N1+01161+01141101491ADDAY141999AY241999GA1051+000309079GF107991051061000251001011MD1310181+9999MW1441REMSYN092AAXX  21081 06350 41001 79901 10116 20114 40149 53018 74444 85601 333 85701 555 53024 60200;
0185063500999992000092205194+51570+004930FM-16+0013EHGR V0201501N001510750019N0070001N1+01201+01101999999ADDGA1021+009009999GA2071+075009999GF107991999999999999999999MA1102001999999MW1101REMMET059EHGR 220519Z 15003KT 7000 BR SCT030 BKN250 12/11 Q1020 WHT;EQDQ01+000003PRSWM1Q02    003PRSWM1
0143063500999992000092322254+51570+004930FM-15+0013EHGR V0201101N003612200019N0112651N1+01301+01001999999ADDGA1021+075009999GF104991999999999999999999MA1101901999999MW1001REMMET049EHGR 232225Z 11007KT 9999 SCT250 13/10 Q1019 BLU;EQDQ01+000000PRSWM2
0185063500999992000092703254+51570+004930FM-15+0013EHGR V0202101N002110180019N0034001N1+01501+01501999999ADDGA1071+018009999GA2071+036009999GF107991999999999999999999MA1101491999999MW1101REMMET059EHGR 270325Z 21004KT 3400 BR BKN060 BKN120 15/15 Q1015 YLO;EQDQ01+000003PRSWM1Q02    003PRSWM1
0174063500999992000093000004+51570+004930FM-12+0013EHGR V0209999V001010150019N0150001N1+01551+01471100281ADDAA199000091GA1071+015009069GF107991071051017501031021MD1810041+9999REMSYN076AAXX  30001 06350 32765 79901 10155 20147 40028 58004 87532 333 87650 87359;EQDQ01  00002PRCP99
0166063500999992000093002254+51570+004930FM-15+0013EHGR V0202601N002610690019N0112651N1+01601+01401999999ADDGA1021+015009999GA2071+069009999GF107991999999999999999999MA1100201999999MW1001REMMET056EHGR 300225Z 26005KT 9999 SCT050 BKN230 16/14 Q1002 BLU;EQDQ01+000000PRSWM2
0180063500999992000100212254+51570+004930FM-15+0013EHGR V0202101N004112200019N0112651N1+01601+01201999999ADDGA1021+006009999GA2021+018009999GF104991999999999999999999MA1100511999999MW1001REMMET070EHGR 021225Z 21008KT 9999 SCT020 SCT060 16/12 Q1005 WHT WHT BECMG BLU;EQDQ01+000000PRSWM2
0123063500999992000100311004+51570+004930FM-12+0013EHGR V0202001N003019999999N0250001N1+99999+99999999999ADDGF107991999999008001999999REMSYN085AAXX  03111 06350 42575 72003 1146 20092 40218 51008 86830 333 81828 84645 555 53103;
0202063500999992000100614184+51570+004930FM-16+0013EHGR V0202201N003612200019N0030001N1+01101+00801999999ADDGA1021+006609099GA2021+008409999GF104991999999999999999999MA1102301999999MW1631MW2881MW3961REMMET080EHGR 061418Z 22007KT 3000 TSGS RA SCT022CB SCT028 11/08 Q1023 YLO BLU TEMPO GRN;EQDQ01+000003PRSWM1
0138063500999992000101204004+51570+004930FM-12+0013EHGR V0201801N007012200019N0300001N1+00851+00641099041ADDGA1011+008409059GF101991011051008001001001MD1310171+9999REMSYN070AAXX  12041 06350 42580 11807 10085 20064 49904 53017 81500 333 81628;
0172063500999992000101405004+51570+004930FM-12+0013EHGR V0202001N00301001201CN0030001N1+00841+00811101641ADDAY121999AY221999GA1021+001209079GF108991081061001501999999MD1110111+9999MW1101REMSYN082AAXX  14051 06350 41230 82003 10084 20081 40164 51011 71022 886// 333 82704 88706;
0141063500999992000101616004+51570+004930FM-12+0013EHGR V0202001N008019999999N0070001N1+01121+99999999999ADDGF108991999999002501999999REMSYN103AAXX  16161 06350 41357 82008 10112 2002 40056 53039 76166 885// 333 81709 83614 87617 91116 555 53004;
0196063500999992000101718454+51570+004930FM-15+0013EHGR V0201801N001012200019N0002501N1+00501+00501999999ADDED199U27009GA1021+018009999GF102991999999999999999999MA1102511999999MW1411REMMET075EHGR 171845Z 18002KT 0250 R28/2700 BCFG FEW060 05/05 Q1025 RED FCST CANCEL;EQDQ01+000003PRSWM1Q02    003PRSWM1
0143063500999992000101817254+51570+004930FM-15+0013EHGR V0201601N005110063019N0112651N1+01201+00901999999ADDGA1081+006309999GF108991999999999999999999MA1101801999999MW1001REMMET049EHGR 181725Z 16010KT 9999 OVC021 12/09 Q1018 WHT;EQDQ01+000000PRSWM2
0182063500999992000102610254+51570+004930FM-15+0013EHGR V0202601N004112200019N0112651N1+01101+00801999999ADDGA1021+006009099GA2021+007809999GF104991999999999999999999MA1101191999999MW1001REMMET072EHGR 261025Z 26008KT 9999 FEW020CB SCT026 11/08 Q1012 BLU BLU TEMPO WHT;EQDQ01+000000PRSWM2
0163063500999992000102721254+51570+004930FM-15+0013EHGR V0202201N005710018019N0035001N1+01201+01101999999ADDGA1071+001809999GF107991999999999999999999MA1101391999999MW1511REMMET053EHGR 272125Z 22011KT 3500 -DZ BKN006 12/11 Q1014 YLO;EQDQ01+000003PRSWM1Q02    003PRSWM1
0267063500999992000102911004+51570+004930FM-12+0013EHGR V0202201N008010660019N0300001N1+01041+00681100761ADDAY121999AY221999GA1041+008109089GA2051+066009009GF106991051081008001031041MD1610031+9999MW1251OA140199999OA249999999REMSYN104AAXX  29111 06350 41580 62208 10104 20068 40076 56003 72522 85834 333 84827 85072 91012 91113 555 53103;EQDQ01  00622WGOSPDQ02  00672WGOSPD
0263063500999992000103004004+51570+004930FM-12+0013EHGR V0202001N014010075019N0300001N1+01211+00931099391ADDAY161999AY261999GA1051+007509069GA2081+009009069GF108991081051008001999999MD1810361+9999MW1611OA140199999OA249999999REMSYN100AAXX  30041 06350 41580 82014 10121 20093 49939 58036 76166 885// 333 85625 88630 91020 91120 91214;EQDQ01  01032WGOSPDQ02  01032WGOSPD
0148063500999992000103119004+51570+004930FM-12+0013EHGR V0202101N005012200019N0300001N1+00931+00731099731ADDGA1011+018009069GF101991011051017501031001MD1110241+9999REMSYN080AAXX  31191 06350 42780 12105 10093 20073 49973 51024 81530 333 81656 555 53000;
0247063500999992000110112114+51570+004930FM-16+0013EHGR V0202701N005110069019N0035001N1+00801+00501999999ADDED199U30009GA1021+003909999GA2021+004509099GA3071+006909999GF107991999999999999999999MA1099591999999MW1811REMMET094EHGR 011211Z 27010KT 3500 R28/P3000 SHRA FEW013 SCT015CB BKN023 08/05 Q0996 YLO WHT TEMPO YLO;EQDQ01+000003PRSWM1Q02    003PRSWM1
0193063500999992000110208254+51570+004930FM-15+0013EHGR V0201601N005110240019N0112651N1+00801+00701999999ADDGA1021+015009999GA2071+024009999GA3071+075009999GF107991999999999999999999MA1099701999999MW1001REMMET067EHGR 020825Z 16010KT 9999 FEW050 BKN080 BKN250 08/07 Q0997 BLU BLU;EQDQ01+000000PRSWM2
0209063500999992000110214254+51570+004930FM-15+0013EHGR V0201701N010310120019N0060001N1+01101+00801999999ADDGA1021+006009999GA2071+012009999GF107991999999999999999999MA1098921999999MW1101MW2611REMMET077EHGR 021425Z 17020KT 6000 -RA BR SCT020 BKN040 11/08 Q0989 WHT WHT TEMPO GRN;EQDQ01+000003PRSWM1Q02    003PRSWM1
0143063500999992000110222254+51570+004930FM-15+0013EHGR V0201801N007212200019N0112651N1+00701+00401999999ADDGA1021+036009999GF102991999999999999999999MA1099291999999MW1001REMMET049EHGR 022225Z 18014KT 9999 FEW120 07/04 Q0993 BLU;EQDQ01+000000PRSWM2
0143063500999992000110319254+51570+004930FM-15+0013EHGR V0201601N003110600019N0112651N1+00501+00401999999ADDGA1071+060009999GF107991999999999999999999MA1099801999999MW1001REMMET049EHGR 031925Z 16006KT 9999 BKN200 05/04 Q0998 BLU;EQDQ01+000000PRSWM2
0166063500999992000110511254+51570+004930FM-15+0013EHGR V0201701N005112200019N0112651N1+00901+00601999999ADDGA1021+006009999GA2021+069009999GF104991999999999999999999MA1100911999999MW1001REMMET056EHGR 051125Z 17010KT 9999 FEW020 SCT230 09/06 Q1009 BLU;EQDQ01+000000PRSWM2
0180063500999992000110618254+51570+004930FM-15+0013EHGR V0201101N006710150019N0112651N1+01001+00701999999ADDGA1021+011409999GA2071+015009999GF107991999999999999999999MA1097601999999MW1001REMMET070EHGR 061825Z 11013KT 9999 SCT038 BKN050 10/07 Q0976 BLU BLU TEMPO WHT;EQDQ01+000000PRSWM2
0232063500999992000110810474+51570+004930FM-16+0013EHGR V0202101N006210045019N0060001N1+00801+00701999999ADDGA1021+003009999GA2071+004509999GA3071+006009999GF107991999999999999999999MA1098711999999MW1101MW2611REMMET084EHGR 081047Z 21012KT 6000 -RA BR FEW010 BKN015 BKN020 08/07 Q0987 WHT WHT TEMPO GRN;EQDQ01+000003PRSWM1Q02    003PRSWM1
0148063500999992000111110004+51570+004930FM-12+0013EHGR V0202001N007010180019N0250001N1+00921+00591101611ADDGA1071+018009069GF107991071051017501031021MD1110041+9999REMSYN080AAXX  11101 06350 42775 72007 10092 20059 40161 51004 87532 333 87656 555 53032;
0239063500999992000111114004+51570+004930FM-12+0013EHGR V0202101N007010180019N0250001N1+01091+00621101431ADDGA1011+006009089GA2071+018009069GF107991071081008001031021MD1610121+9999OA140199999OA249999999REMSYN098AAXX  11141 06350 42575 72107 10109 20062 40143 56012 87832 333 81820 87656 91012 91113 555 53044;EQDQ01  00622WGOSPDQ02  00672WGOSPD
0144063500999992000111119004+51570+004930FM-12+0013EHGR V0201801N008010180019N0250001N1+00911+00481101221ADDGA1051+018009069GF107991051051017501031021MD1810091+9999REMSYN076AAXX  11191 06350 42775 71808 10091 20048 40122 58009 85532 333 85656 87070;
0252063500999992000111218004+51570+004930FM-12+0013EHGR V0202001N007010150019N0150001N1+00911+00811099681ADDAA112006191AY161061AY261061GA1011+003009079GA2031+004509069GA3081+015009069GF108991081051004501999999KA1120M+01001MD1610161+9999MW1611REMSYN106AAXX  12181 06350 11465 82007 10091 20081 49968 56016 60062 76166 885// 333 10100 81710 83615 88650 91115;
0162063500999992000111305504+51570+004930FM-15+0013EHGR V0202001N004110021019N0040001N1+00801+00701999999ADDGA1071+002109999GF107991999999999999999999MA1099801999999MW1101REMMET052EHGR 130550Z 20008KT 4000 BR BKN007 08/07 Q0998 GRN;EQDQ01+000003PRSWM1Q02    003PRSWM1
0173063500999992000111402424+51570+004930FM-16+0013EHGR V0202001N001512200019N0070001N1+00301+00201999999ADDGA1021+033009999GF102991999999999999999999MA1100101999999MW1101MW2121REMMET057EHGR 140242Z 20003KT 7000 MIFG BR FEW110 03/02 Q1001 WHT;EQDQ01+000003PRSWM1Q02    003PRSWM1
0209063500999992000112007254+51570+004930FM-15+0013EHGR V0202101N005710054019N0080001N1+00501+00401999999ADDGA1021+002409999GA2071+005409999GA3071+013509999GF107991999999999999999999MA1099591999999MW1611REMMET067EHGR 200725Z 21011KT 8000 -RA SCT008 BKN018 BKN045 05/04 Q0996 GRN;EQDQ01+000003PRSWM1Q02    003PRSWM1
0143063500999992000112100254+51570+004930FM-15+0013EHGR V0201601N004612200019N0112651N1+00401+00301999999ADDGA1021+012009999GF102991999999999999999999MA1100101999999MW1001REMMET049EHGR 210025Z 16009KT 9999 FEW040 04/03 Q1001 BLU;EQDQ01+000000PRSWM2
0148063500999992000112416004+51570+004930FM-12+0013EHGR V0201901N003012200019N0200001N1+00521+00311100791ADDGA1011+007509089GF102991011081008001031021MD1210011+9999REMSYN080AAXX  24161 06350 42570 21903 10052 20031 40079 52001 81832 333 81825 555 53002;
0170063500999992000112716254+51570+004930FM-15+0013EHGR V0201601N003610390019N0112651N1+00701+00501999999ADDGA1071+039009999GA2071+066009999GF107991999999999999999999MA1101391999999MW1001REMMET060EHGR 271625Z 16007KT 9999 BKN130 BKN220 07/05 Q1014 BLU BLU;EQDQ01+000000PRSWM2
0172063500999992000112723004+51570+004930FM-12+0013EHGR V0201501N00401007501CN0200001N1+00851+00611101231ADDAY161999AY221999GA1041+007509069GF108991081051008001999999MD1610181+9999MW1211REMSYN082AAXX  27231 06350 41570 81504 10085 20061 40123 56018 72162 885// 333 84625 88630;
0170063500999992000112911004+51570+004930FM-12+0013EHGR V0201801N006010600019N0300001N1+01341+00921100671ADDGA1011+039009039GA2071+060009009GF107991011001999999031021MD1810011+9999REMSYN086AAXX  29111 06350 42980 71806 10134 20092 40067 58001 81032 333 81363 87070 555 53042;
0186063500999992000120213254+51570+004930FM-15+0013EHGR V0201601N002110300019N0112651N1+01201+01001999999ADDGA1021+015009999GA2071+030009999GF107991999999999999999999MA1101291999999MW1611REMMET060EHGR 021325Z 16004KT 9999 -RA SCT050 BKN100 12/10 Q1013 BLU;EQDQ01+000003PRSWM1Q02    003PRSWM1
0202063500999992000120418004+51570+004930FM-12+0013EHGR V0201901N006012200019N0200001N1+00861+00621101191ADDAA112000591AY161061AY211061GA1011+006609059GF101991011051008001001001KA1120M+00911MD1110151+9999MW1011REMSYN088AAXX  04181 06350 11570 11906 10086 20062 40119 51015 69952 70161 81500 333 10091 81622;
0138063500999992000120504004+51570+004930FM-12+0013EHGR V0201701N005012200019N0250001N1+00751+00571101301ADDGA1011+042009079GF101991011001999999031011MD1810061+9999REMSYN070AAXX  05041 06350 42975 11705 10075 20057 40130 58006 81031 333 81364;
0170063500999992000120509004+51570+004930FM-12+0013EHGR V0201601N007010660019N0250001N1+00981+00691101231ADDGA1011+045009039GA2071+066009009GF107991011001999999031021MD1810081+9999REMSYN086AAXX  05091 06350 42975 71607 10098 20069 40123 58008 81032 333 81365 87072 555 53022;
0166063500999992000120605004+51570+004930FM-12+0013EHGR V0201901N004010330019N0250001N1+01131+00861100961ADDGA1011+027009039GA2051+033009039GF107991051001999999071021MD1310081+9999REMSYN082AAXX  06051 06350 42975 71904 10113 20086 40096 53008 85072 333 81359 85361 87072;
0166063500999992000120914254+51570+004930FM-15+0013EHGR V0202101N006210120019N0112651N1+01101+00601999999ADDGA1021+009009999GA2071+012009999GF107991999999999999999999MA1100911999999MW1001REMMET056EHGR 091425Z 21012KT 9999 FEW030 BKN040 11/06 Q1009 BLU;EQDQ01+000000PRSWM2
0170063500999992000120915004+51570+004930FM-12+0013EHGR V0202101N006010126019N0300001N1+01071+00611100991ADDGA1011+009009089GA2051+012609069GF106991061081008001031011MD1210011+9999REMSYN086AAXX  09151 06350 42580 62106 10107 20061 40099 52001 86831 333 81830 85642 555 53006;
0201063500999992000121221414+51570+004930FM-16+0013EHGR V0201901N010310660019N0112651N1+01201+00801999999ADDGA1021+018009999GA2021+021009999GA3071+066009999GF107991999999999999999999MA1100611999999MW1001REMMET075EHGR 122141Z 19020KT 9999 FEW060 SCT070 BKN220 12/08 Q1006 BLU FCST CANCEL;EQDQ01+000000PRSWM2
0166063500999992000121400254+51570+004930FM-15+0013EHGR V0202401N006712200019N0112651N1+01001+00501999999ADDGA1021+007509999GA2021+012009999GF104991999999999999999999MA1100711999999MW1001REMMET056EHGR 140025Z 24013KT 9999 FEW025 SCT040 10/05 Q1007 BLU;EQDQ01+000000PRSWM2
0138063500999992000121521004+51570+004930FM-12+0013EHGR V0202701N005012200019N0250001N1+00401-00051100811ADDGA1011+010509059GF101991011051012501001001MD1110081+9999REMSYN070AAXX  15211 06350 42675 12705 10040 21005 40081 51008 81500 333 81635;
0185063500999992000121801004+51570+004930FM-12+0013EHGR V0201701N003012200019N0070001N1-00011-00151101651ADDAY111999AY211999GA1021+018009059GF102991021051017501999001MD1310011+9999MW1101REMSYN076AAXX  18011 06350 41757 21703 11001 21015 40165 53001 71011 82500 333 82656;EQDQ01+000002SCOMCG
0176063500999992000121916004+51570+004930FM-12+0013EHGR V0201101N004010027019N0040001N1+00601+00421102161ADDAY121999AY221999GA1081+002709079GF108991081061002501999999MD1310071+9999MW1101REMSYN086AAXX  19161 06350 41340 81104 10060 20042 40216 53007 71022 886// 333 88709 555 53000;
0138063500999992000122104004+51570+004930FM-12+0013EHGR V0201201N004012200019N0250001N1+00001-00451101971ADDGA1011+066009019GF101991001001999999001011MD1110021+9999REMSYN070AAXX  21041 06350 42975 11204 10000 21045 40197 51002 80001 333 81072;
0242063500999992000122606004+51570+004930FM-12+0013EHGR V0200501N006010027019N0150001N1-00281-00511099541ADDAA199000091AJ199992999999999GA1081+002709079GF108991081061002501999999IA1309KA1120N-00361MD1610171+9999REMSYN092AAXX  26061 06350 32365 80506 11028 21051 49954 56017 886// 333 21036 42998 88709 555 51415;EQDQ01  00002PRCP99Q02  09972SNDP  
0197063500999992000123006354+51570+004930FM-16+0013EHGR V0202501N003610123019N0112651N1+00101+00001999999ADDGA1021+001509999GA2021+003609099GA3071+012309999GF107991999999999999999999MA1099591999999MW1001REMMET071EHGR 300635Z 25007KT 9999 FEW005 FEW012CB BKN041 01/M00 Q0996 BLACKBLU;EQDQ01+000000PRSWM2
