0140296360999992000041009004+55230+084400FM-12+017199999V0203001N005010075019N0500001N1-00201-00951101971ADDAY181031AY221031GF106991061031008001001001MD1210421+9999MW1021REMSYN066AAXX  10091 29636 41599 63005 11020 21095 40197 52042 70282 86300;
0215296360999992000041400004+55230+084400FM-12+017199999V0201501N003019999999N0200001N1-00021-00361101301ADDAA199000091AJ100029199999999GF106991061001999999031001IA1259KA1120N-00021MA1999999099141MD1810011+9999REMSYN082AAXX  14001 29636 32998 61503 11002 21036 39914 40130 58001 86030 333 21002 41002;EQDQ01  00002PRCP99
0097296360999992000041921004+55230+084400FM-12+017199999V0202601N002019999999N0200001N1+00411-00761999999ADDGF105991999999999999999999REMSYN059AAXX  19211 29636 42998 52602 10041 21076 4026 57012 80002;
0140296360999992000051803004+55230+084400FM-12+017199999V0203401N003012200019N0500001N1+01601+00971100261ADDAY181031AY211031GF103991031031008001001001MD1710101+9999MW1021REMSYN066AAXX  18031 29636 41599 33403 10160 20097 40026 57010 70281 83300;
0201296360999992000052300004+55230+084400FM-12+017199999V0202601N003010075019N0100001N1+01001+00391101381ADDAA112000791AY181061AY211061GF108991051031008001051999KA1999N+01001MA1999999099291MD1210121+9999MW1801REMSYN088AAXX  23001 29636 11597 82603 10100 20039 39929 40138 52012 69902 78081 8535/ 333 20100;
0112296360999992000052721004+55230+084400FM-12+017199999V0201501N003012200019N0200001N1+01151+00761100701ADDGF102991021051008001001001MD1810071+9999REMSYN060AAXX  27211 29636 42598 21503 10115 20076 40070 58007 82500;
0112296360999992000061103004+55230+084400FM-12+017199999V0201401N001010300019N0500001N1+01711+01281101761ADDGF106991021031008001031001MD1210021+9999REMSYN060AAXX  11031 29636 42599 61401 10171 20128 40176 52002 82330;
0180296360999992000061812004+55230+084390FM-12+017199999V0200201N002010075019N0500001N1+02301+01421101641ADDAA112000791AY181061AY221061GF106991061031008001001001KA1999M+02371MD1210021+9999MW1021REMSYN082AAXX  18121 29636 11599 60202 10230 20142 40164 52002 69902 70282 86300 333 10237;
0165296360999992000061912004+55230+084390FM-12+017199999V0203601N004019999999N0500001N1+02521+01201101681ADDAA199000091GF107991001001999999001021KA1999M+02621MD1710131+9999REMSYN070AAXX  19121 29636 32999 73604 10252 20120 40168 57013 80002 333 10262;EQDQ01  00002PRCP99
0122296360999992000062018004+55230+084390FM-12+017199999V0203601N002012200019N0200001N1+02031+01271101581ADDGA1001+999999999GF100991001001999999001001MD1210141+9999REMSYN054AAXX  20181 29636 42998 03602 10203 20127 40158 52014;
0122296360999992000070118004+55230+084390FM-12+017199999V0202501N001012200019N0200001N1+01021+00771101251ADDGA1001+999999999GF100991001001999999001001MD1210051+9999REMSYN054AAXX  01181 29636 42998 02501 10102 20077 40125 52005;
0122296360999992000070303004+55230+084390FM-12+017199999V0203401N001012200019N0500001N1+02201+01361101061ADDGA1001+999999999GF100991001001999999001001MD1310051+9999REMSYN054AAXX  03031 29636 42999 03401 10220 20136 40106 53005;
0140296360999992000072418004+55230+084390FM-12+017199999V0202701N001010075019N0200001N1+01121+01081100511ADDAY181061AY221061GF105991051051008001001001MD1810061+9999MW1021REMSYN066AAXX  24181 29636 41598 52701 10112 20108 40051 58006 70282 85500;
0112296360999992000072915004+55230+084390FM-12+017199999V0203201N001012200019N0200001N1+02081+01791101421ADDGF103991021031008001001021MD1310061+9999REMSYN060AAXX  29151 29636 42598 33201 10208 20179 40142 53006 82302;
0150296360999992000080318004+55230+084390FM-12+017199999V0209999C000012200019N0200001N1+01301+01261100691ADDAY191061AY211061GA1001+999999999GF100991001001999999001001MD1210041+9999MW1021REMSYN060AAXX  03181 29636 41998 00000 10130 20126 40069 52004 70291;
0122296360999992000080718004+55230+084390FM-12+017199999V0209999C000012200019N0200001N1+01741+01591100661ADDGA1001+999999999GF100991001001999999001001MD1210031+9999REMSYN054AAXX  07181 29636 42998 00000 10174 20159 40066 52003;
0112296360999992000081309004+55230+084390FM-12+017199999V0201901N003010075019N0500001N1+02651+01261101311ADDGF106991061021008001001001MD1710111+9999REMSYN060AAXX  13091 29636 42599 61903 10265 20126 40131 57011 86200;
0165296360999992000090312004+55230+084390FM-12+017199999V0201401N001012200019N0500001N1+01871+00841102811ADDAA199000091GF102991021021008001001001KA1999M+01931MD1810011+9999REMSYN070AAXX  03121 29636 32599 21401 10187 20084 40281 58001 82200 333 10193;EQDQ01  00002PRCP99
0140296360999992000091306004+55230+084390FM-12+017199999V0202401N005010075019N0200001N1+01181+00661101171ADDAY181061AY221061GF107991071031008001001001MD1210191+9999MW1021REMSYN066AAXX  13061 29636 41598 72405 10118 20066 40117 52019 70282 87300;
0138296360999992000092106004+55230+084390FM-12+017199999V0202401N003010108019N0500001N1+00811+00151101541ADDGA1081+010809059GF108991081051012501999999MD1710011+9999REMSYN070AAXX  21061 29636 42699 82403 10081 20015 40154 57001 885// 333 88636;
0180296360999992000100712004+55230+084390FM-12+017199999V0202401N001010075019N0100001N1-00201-00291102581ADDAA112001091AY181061AY221061GF108991061031008001051999KA1999M-00071MD1210171+9999MW1261REMSYN082AAXX  07121 29636 11597 82401 11020 21029 40258 52017 60012 72682 8635/ 333 11007;
0180296360999992000101712004+55230+084390FM-12+017199999V0202401N003010075019N0200001N1-00041-00351102151ADDAA112000891AY181061AY221061GF106991061031008001001001KA1999M+00141MD1210051+9999MW1021REMSYN082AAXX  17121 29636 11598 62403 11004 21035 40215 52005 69972 70282 86300 333 10014;
0122296360999992000122115004+55230+084390FM-12+017199999V0209999C000012200019N0200001N1-02451-02701103511ADDGA1001+999999999GF100991001001999999001001MD1810111+9999REMSYN054AAXX  21151 29636 42998 00000 11245 21270 40351 58011;
0182296420999992000011405004+55380+086070FM-15+0262UNEE V0202101N007010180019N0112651N1-01001-01201999999ADDGA1081+018009999GF108991999999999999999999MA1101901999999MW1711REMMET072UNEE 140500Z 21007MPS 9999 -SN OVC066 M10/M12 Q1019 NOSIG RMK QFE742 04;EQDQ01+000003PRSWM1Q02    003PRSWM1
0313296420999992000011506004+55380+086070SY-MT+026299999V0201901N01301001201EN0010001N1-00921-01031101251ADDAY171061AY231061GA1081+001209999GF108991999071001501021999MA1100911999999MD1710141+9999MW1381MW2751REMSYN086    AAXX  15061 29642 41294 81913 11092 21103 40125 57014 77573 8872/ 333 86704 92981;MET075UNEE 150600Z 19013MPS 1000 -BLSN OVC004 M09/M10 Q1009 NOSIG RMK QFE734 045;EQDQ01+000082SCOTLCQ02    003PRSWM1
0115296420999992000011620004+55380+086070FM-15+0262UNEE V0201701N00401220001CN0099001N1-03101-03301999999ADDMA1103591999999MW1001REMMET063UNEE 162000Z 17004MPS CAVOK M31/M33 Q1036 NOSIG RMK QFE753 045;EQDQ01+000000PRSWM2
0173296420999992000012208004+55380+086070FM-15+0262UNEE V0200101N003012200019N0030001N1-01601-01801999999ADDGF100991999999999999999999MA1103291999999MW1041MW2101REMMET073UNEE 220800Z 01003MPS 3000 -BR FU SKC M16/M18 Q1033 NOSIG RMK QFE751 045;EQDQ01+000003PRSWM1Q02    003PRSWM1
0214296420999992000013116004+55380+086070FM-15+0262UNEE V0202301N007010180019N0033001N1-01001-01101999999ADDGA1021+006909099GA2071+018009999GF107991999999999999999999MA1102301999999MW1851REMMET088UNEE 311600Z 23007MPS 3300 -SHSN -DR SCT023CB BKN066 M10/M11 Q1023 NOSIG RMK QFE744 045;EQDQ01+000003PRSWM1Q02    003PRSWM1
0289296420999992000020803004+55380+086070SY-MT+0262UNEE V0203401N00201060001CN0019001N1-01621-01751102491ADDAY111031AY201031GA1071+060009999GF199999001001999999001011MA1102101999999MD1710041+9999MW1101REMSYN066AAXX  08031 29642 41919 63402 11162 21175 40249 57004 71010 80001;MET077UNEE 080300Z 34002MPS 1900 BR BKN200 M16/M18 Q1021 TEMPO 1000 RMK QFE742 045;EQDQ01+000062SCOTCVQ02    003PRSWM1
0114296420999992000021114004+55380+086070FM-15+0262UNEE V0201401N00201220001CN0099001N1-01701-01801999999ADDMA1103011999999MW1001REMMET062UNEE 111400Z 14002MPS CAVOK M17/M18 Q1030 NOSIG RMK QFE751 04;EQDQ01+000000PRSWM2
0191296420999992000021411004+55380+086070FM-15+0262UNEE V0201801N004010180019N0050001N1-00401-00501999999ADDGA1081+018009999GF108991999999999999999999MA1101901999999MW1711REMMET081UNEE 141100Z 18004MPS 5000 -SN OVC066 M04/M05 Q1019 TEMPO 2000 SN RMK QFE741 032;EQDQ01+000003PRSWM1Q02    003PRSWM1
0208296420999992000022311004+55380+086070FM-15+0262UNEE V0202501N010010600019N0112651N1-00501-01301999999ADDGA1021+018009999GA2081+060009999GF108991999999999999999999MA1103011999999MW1361REMMET082UNEE 231100Z 25010MPS 9999 -DRSN SCT066 OVC200 M05/M13 Q1030 NOSIG RMK QFE749 045;EQDQ01+000003PRSWM1Q02    003PRSWM1
0115296420999992000022417004+55380+086070FM-15+0262UNEE V0201801N00501220001CN0099001N1-01101-01601999999ADDMA1103181999999MW1001REMMET063UNEE 241700Z 18005MPS CAVOK M11/M16 Q1032 NOSIG RMK QFE751 045;EQDQ01+000000PRSWM2
0115296420999992000022523004+55380+086070FM-15+0262UNEE V0201601N00601220001CN0099001N1-01301-01601999999ADDMA1102001999999MW1001REMMET063UNEE 252300Z 16006MPS CAVOK M13/M16 Q1020 NOSIG RMK QFE742 045;EQDQ01+000000PRSWM2
0225296420999992000030113004+55380+086070FM-15+0262UNEE V0201801N00901000151CN0002001N1-01001-01101999999ADDED199U05509GA1091+000159999GF109991999999000251999999MA1100511999999MW1391MW2751OC101401REMMET090UNEE 011300Z 18009G14MPS 0200 R23/0550 +SN +BLSN VV002 M10/M11 Q1005 NOSIG RMK QFE731 045;EQDQ01+000003PRSWM1Q02    003PRSWM1
0222296420999992000030316004+55380+086070FM-15+0262UNEE V0202001N007010051019N0070001N1-00801-01001999999ADDGA1071+005109099GA2081+018009999GF108991999999999999999999MA1102201999999MW1361MW2851REMMET090UNEE 031600Z 20007MPS 7000 -SHSN -DRSN BKN017CB OVC066 M08/M10 Q1022 NOSIG RMK QFE744 045;EQDQ01+000003PRSWM1Q02    003PRSWM1
0187296420999992000030907004+55380+086070FM-15+0262UNEE V0202801N002010600019N0025001N1-00301-00801999999ADDGA1071+060009999GF107991999999999999999999MA1102511999999MW1101REMMET077UNEE 090700Z 28002MPS 2500 BR BKN200 M03/M08 Q1025 TEMPO 1500 RMK QFE745 045;EQDQ01+000003PRSWM1Q02    003PRSWM1
0114296420999992000031113004+55380+086070FM-15+0262UNEE V0202401N00201220001CN0099001N1+00001-00601999999ADDMA1102401999999MW1001REMMET062UNEE 111300Z 24002MPS CAVOK M00/M06 Q1024 NOSIG RMK QFE745 05;EQDQ01+000000PRSWM2
0115296420999992000040219004+55380+086070FM-15+0262UNEE V0200901N00301220001CN0099001N1-00701-01401999999ADDMA1103181999999MW1001REMMET063UNEE 021900Z 09003MPS CAVOK M07/M14 Q1032 NOSIG RMK QFE751 045;EQDQ01+000000PRSWM2
0219296420999992000040921004+55380+086070SY-MT+0262UNEE V0203501N002019999999N0100001N1+00691-00041100171ADDGF108991081001999999021999MA1100001999999MD1710261+9999MW1001REMSYN060AAXX  09211 29642 42960 83502 10069 21004 40017 57026 8802/;MET061UNEE 092100Z 35002MPS CAVOK 07/M00 Q1000 NOSIG RMK QFE728 06;EQDQ01+000000PRSWM2
0216296420999992000041015004+55380+086070SY-MT+0262UNEE V0203101N004012200019N0100001N1-00501-00861102421ADDGF104991041001999999031001MA1102101999999MD1210271+9999MW1001REMSYN060AAXX  10151 29642 42960 43104 11050 21086 40242 52027 84030;MET058UNEE 101500Z 31004MPS CAVOK M05/M09 Q1021 NOSIG QFE743 06;EQDQ01+000000PRSWM2
0112296420999992000041520004+55380+086070FM-15+0262UNEE V0202001N00401220001CN0099001N1+00701+00301999999ADDMA1101191999999MW1001REMMET060UNEE 152000Z 20004MPS CAVOK 07/03 Q1012 NOSIG RMK QFE736 06;EQDQ01+000000PRSWM2
0112296420999992000041613004+55380+086070FM-15+0262UNEE V0202501N00301220001CN0099001N1+00701+00201999999ADDMA1101391999999MW1001REMMET060UNEE 161300Z 25003MPS CAVOK 07/02 Q1014 NOSIG RMK QFE738 06;EQDQ01+000000PRSWM2
0304296420999992000042606004+55380+086070SY-MT+0262UNEE V0201601N004010054019N0070001N1+00701+00401100221ADDAY181061AY221061GA1071+005409099GA2081+018009999GF108991061031004501071999MA1100101999999MD1710121+9999MW1801REMSYN076AAXX  26061 29642 41457 81604 10070 20040 40022 57012 78082 8637/ 333 86918;MET082UNEE 260600Z 16004MPS 7000 -SHRA BKN018CB OVC066 07/04 Q1001 NOSIG RMK QFE728 055;EQDQ01    003PRSWM1
0184296420999992000042917004+55380+086070FM-15+0262UNEE V0200201N003010138019N0112651N1+00101-00401999999ADDGA1071+013809999GA2081+018009999GF108991999999999999999999MA1101021999999MW1001REMMET074UNEE 291700Z 02003MPS 9999 BKN046 OVC066 01/M04 Q1010 NOSIG RMK QFE735 06;EQDQ01+000000PRSWM2
0182296420999992000050223004+55380+086070FM-15+0262UNEE V0202901N001010180019N0070001N1-00201-00201999999ADDGA1071+018009999GF107991999999999999999999MA1101391999999MW1101REMMET072UNEE 022300Z 29001MPS 7000 -BR BKN066 M02/M02 Q1014 NOSIG RMK QFE737 03;EQDQ01+000003PRSWM1Q02    003PRSWM1
0303296420999992000050321004+55380+086070SY-MT+0262UNEE V0202401N008010084019N0100001N1+00661+00501100671ADDAY181031AY221031GA1071+008409099GA2081+018009999GF108991061031008001071999MA1100411999999MD1210181+9999MW1801REMSYN076AAXX  03211 29642 41560 82408 10066 20050 40067 52018 78082 8637/ 333 86928;MET081UNEE 032100Z 24008MPS 9999 -SHRA BKN028CB OVC066 07/05 Q1004 NOSIG RMK QFE731 05;EQDQ01    003PRSWM1
0241296420999992000050615004+55380+086070SY-MT+0262UNEE V0202001N01001018001CN0100001N1+00781-00221102241ADDGA1081+018009999GF108991081001999999021999MA1102101999999MD1710091+9999MW1001REMSYN060AAXX  06151 29642 42960 82010 10078 21022 40224 57009 8802/;MET067UNEE 061500Z 20010MPS 9999 OVC066 08/M02 Q1021 NOSIG RMK QFE743 06;EQDQ01+000000PRSWM2
0291296420999992000050906004+55380+086070SY-MT+0262UNEE V0202501N010010090019N0100001N1+01181+00851099761ADDAY181061AY221061GA1081+009009099GF108991081031008001999999MA1099701999999MD1310131+9999MW1251REMSYN076AAXX  09061 29642 41560 82510 10118 20085 49976 53013 72582 883// 333 85930;MET069UNEE 090600Z 25010MPS 9999 OVC030CB 12/09 Q0997 NOSIG RMK QFE725 055;EQDQ01+000000PRSWM2Q02    003PRSWM1
0186296420999992000051204004+55380+086070FM-15+0262UNEE V0202001N008010120019N0112651N1+01101+00601999999ADDGA1071+012009099GA2081+018009999GF108991999999999999999999MA1100101999999MW1001REMMET076UNEE 120400Z 20008MPS 9999 BKN040CB OVC066 11/06 Q1001 NOSIG RMK QFE727 055;EQDQ01+000000PRSWM2
0240296420999992000051615004+55380+086070SY-MT+0262UNEE V0201401N002010180019N0100001N1+01581+00301101621ADDGA1081+018009999GF108991081001999999071999MA1101591999999MD1710111+9999MW1001REMSYN060AAXX  16151 29642 42960 81402 10158 20030 40162 57011 8807/;MET066UNEE 161500Z 14002MPS 9999 OVC066 16/03 Q1016 NOSIG RMK QFE739 06;EQDQ01+000000PRSWM2
0160296420999992000052016004+55380+086070FM-15+0262UNEE V0200601N004010600019N0112651N1+01201+00801999999ADDGA1081+060009999GF108991999999999999999999MA1100411999999MW1001REMMET066UNEE 201600Z 06004MPS 9999 OVC200 12/08 Q1004 NOSIG RMK QFE730 06;EQDQ01+000000PRSWM2
0160296420999992000052810004+55380+086070FM-15+0262UNEE V0201901N006012200019N0112651N1+02501+00601999999ADDGA1021+015009999GF104991999999999999999999MA1100411999999MW1001REMMET066UNEE 281000Z 19006MPS 9999 SCT050 25/06 Q1004 NOSIG RMK QFE730 06;EQDQ01+000000PRSWM2
0340296420999992000052900004+55380+086070SY-MT+0262UNEE V0201601N00501018001CN0100001N1+01431+01341100171ADDAA112003091AY181061AY221061GA1021+007809099GA2081+018009999GF108991031031008001071999KA1999N+01431MA1100101097111MD1610031+9999MW1801REMSYN088AAXX  29001 29642 11560 81605 10143 20134 39711 40017 56003 60032 78082 8337/ 333 20143;MET082UNEE 290000Z 16005MPS 9999 -SHRA SCT026CB OVC066 14/13 Q1001 NOSIG RMK QFE728 055;EQDQ01    003PRSWM1
0312296420999992000060600004+55380+086070SY-MT+0262UNEE V0201601N003010063019N0100001N1+01311+01201100601ADDAA199000021GA1071+006309099GA2081+018009999GF108991061031008001071999KA1120N+01231MA1100511097511MD1610071+9999MW1001REMSYN082AAXX  06001 29642 32560 81603 10131 20120 39751 40060 56007 8637/ 333 20123 86921;MET076UNEE 060000Z 16003MPS 9999 BKN021CB OVC066 13/12 Q1005 NOSIG RMK QFE731 055;EQDQ01+000000PRSWM2
0186296420999992000060714004+55380+086070FM-15+0262UNEE V0202201N005010600019N0112651N1+01701+01401999999ADDGA1021+009009099GA2081+060009999GF108991999999999999999999MA1099701999999MW1001REMMET076UNEE 071400Z 22005MPS 9999 FEW030CB OVC200 17/14 Q0997 NOSIG RMK QFE725 055;EQDQ01+000000PRSWM2
0263296420999992000061309004+55380+086070SY-MT+0262UNEE V0203601N00601018001CN0100001N1+02421+00761101011ADDGA1021+012909999GA2081+018009999GF108991031011012501031011MA1101021999999MD1710101+9999MW1001REMSYN060AAXX  13091 29642 42660 83606 10242 20076 40101 57010 83131;MET073UNEE 130900Z 36006MPS 9999 SCT043 OVC066 24/08 Q1010 NOSIG RMK QFE735 06;EQDQ01+000000PRSWM2
0141296420999992000062007004+55380+086690FM-15+0262UNEE V0203501N002012200019N0112651N1+02701+00901999999ADDGF100991999999999999999999MA1101491999999MW1001REMMET063UNEE 200700Z 35002MPS 9999 SKC 27/09 Q1015 NOSIG RMK QFE738 06;EQDQ01+000000PRSWM2
0290296420999992000062612004+55380+086690SY-MT+0262UNEE V0200701N002012200019N0100001N1+02301+00671101251ADDAA199000091GA1021+069009999GF104991001001999999001011KA1999M+02361MA1101291999999MD1710131+9999MW1001REMSYN070AAXX  26121 29642 32960 40702 10230 20067 40125 57013 80001 333 10236;MET066UNEE 261200Z 07002MPS 9999 FEW233 23/07 Q1013 NOSIG RMK QFE737 06;EQDQ01+000000PRSWM2Q02  00002PRCP99
0160296420999992000062813004+55380+086690FM-15+0262UNEE V0200201N005012200019N0112651N1+02301+01301999999ADDGA1021+018009999GF102991999999999999999999MA1100611999999MW1001REMMET066UNEE 281300Z 02005MPS 9999 FEW066 23/13 Q1006 NOSIG RMK QFE732 06;EQDQ01+000000PRSWM2
0240296420999992000070109004+55380+086690SY-MT+0262UNEE V0203201N003012200019N0100001N1+02091+00761100931ADDGA1021+012909999GF102991021011012501001001MA1101021999999MD1810011+9999MW1001REMSYN060AAXX  01091 29642 42660 23203 10209 20076 40093 58001 82100;MET066UNEE 010900Z 32003MPS 9999 FEW043 21/08 Q1010 NOSIG RMK QFE734 06;EQDQ01+000000PRSWM2
0183296420999992000070311004+55380+086690FM-15+0262UNEE V0200401N004012200019N0112651N1+02501+01201999999ADDGA1021+009909999GA2021+060009999GF104991999999999999999999MA1100911999999MW1001REMMET073UNEE 031100Z 04004MPS 9999 FEW033 SCT200 25/12 Q1009 NOSIG RMK QFE734 06;EQDQ01+000000PRSWM2
0113296420999992000070522004+55380+086690FM-15+0262UNEE V0201501N00401220001CN0099001N1+01501+01401999999ADDMA1101191999999MW1001REMMET061UNEE 052200Z 15004MPS CAVOK 15/14 Q1012 NOSIG RMK QFE736 055;EQDQ01+000000PRSWM2
0185296420999992000070722004+55380+086690FM-15+0262UNEE V0202901N003010180019N0112651N1+01901+01501999999ADDGA1021+009009099GA2081+018009999GF108991999999999999999999MA1100101999999MW1001REMMET075UNEE 072200Z 29003MPS 9999 FEW030CB OVC066 19/15 Q1001 NOSIG RMK QFE729 06;EQDQ01+000000PRSWM2
0112296420999992000070913004+55380+086690FM-15+0262UNEE V0203501N00401220001CN0099001N1+01801+00701999999ADDMA1101191999999MW1001REMMET060UNEE 091300Z 35004MPS CAVOK 18/07 Q1012 NOSIG RMK QFE736 06;EQDQ01+000000PRSWM2
0256296420999992000071003004+55380+086690SY-MT+0262UNEE V0200201N00201060001CN0100001N1+01831+00891101301ADDGA1071+060009999GF199999001001999999001011MA1101291999999MD1210021+9999MW1001REMSYN060AAXX  10031 29642 42960 60202 10183 20089 40130 52002 80001;MET066UNEE 100300Z 02002MPS 9999 BKN200 18/09 Q1013 NOSIG RMK QFE737 06;EQDQ01+000062SCOTCVQ02+000000PRSWM2
0218296420999992000071615004+55380+086690SY-MT+0262UNEE V0203601N003019999999N0100001N1+01361+01051101011ADDGF108991031001999999031011MA1100911999999MD1210051+9999MW1001REMSYN060AAXX  16151 29642 42960 83603 10136 20105 40101 52005 83031;MET060UNEE 161500Z 36003MPS CAVOK 14/10 Q1009 NOSIG RMK QFE734 06;EQDQ01+000000PRSWM2
0346296420999992000071800004+55380+086690SY-MT+0262UNEE V0203001N002012200019N0020001N1+01241+01121101131ADDAA199000091AY141061AY201061GA1021+018009999GF199999011001999999031001KA1999N+01101MA1101021098051MD1310021+9999MW1101REMSYN082AAXX  18001 29642 31920 13002 10124 20112 39805 40113 53002 71040 81030 333 20110;MET078UNEE 180000Z 30002MPS 2000 BR FEW066 12/11 Q1010 TEMPO FG 0300 RMK QFE735 055;EQDQ01+000012SCOTCVQ02  00002PRCP99Q03    003PRSWM1
0185296420999992000073005004+55380+086690FM-15+0262UNEE V0203601N004010180019N0112651N1+02101+01301999999ADDGA1021+009909099GA2081+018009999GF108991999999999999999999MA1101391999999MW1001REMMET075UNEE 300500Z 36004MPS 9999 SCT033CB OVC066 21/13 Q1014 NOSIG RMK QFE738 06;EQDQ01+000000PRSWM2
0303296420999992000080406004+55380+086690SY-MT+0262UNEE V0201901N00401018001CN0100001N1+01781+01511100901ADDAY121061AY221061GA1021+006909099GA2071+018009999GF107991031031008001031001MA1100911999999MD1110051+9999MW1801REMSYN066AAXX  04061 29642 41560 71904 10178 20151 40090 51005 78022 83330;MET075UNEE 040600Z 19004MPS 9999 SCT023CB BKN066 18/15 Q1009 NOSIG RMK QFE734 06;EQDQ01+000000PRSWM2Q02    003PRSWM1
0185296420999992000080502004+55380+086690FM-15+0262UNEE V0201701N005010180019N0112651N1+01701+01301999999ADDGA1021+009909099GA2081+018009999GF108991999999999999999999MA1100811999999MW1001REMMET075UNEE 050200Z 17005MPS 9999 SCT033CB OVC066 17/13 Q1008 NOSIG RMK QFE733 06;EQDQ01+000000PRSWM2
0206296420999992000082007004+55380+086690FM-15+0262UNEE V0201901N005010180019N0112651N1+02101+01201999999ADDGA1021+006009099GA2071+018009999GF107991999999999999999999MA1101021999999MW1171REMMET080UNEE 200700Z 19005MPS 9999 -TS SCT020CB BKN066 21/12 Q1010 NOSIG RMK QFE734 055;EQDQ01+000003PRSWM1Q02    003PRSWM1
0296296420999992000082100004+55380+086690SY-MT+0262UNEE V0201301N00301018001CN0100001N1+01141+01111100851ADDAA199000091GA1081+018009999GF108991031001999999031011KA1999N+01141MA1100811097761MD1710071+9999MW1001REMSYN076AAXX  21001 29642 32997 81303 10114 20111 39776 40085 57007 83031 333 20114;MET066UNEE 210000Z 13003MPS 9999 OVC066 11/11 Q1008 NOSIG RMK QFE733 06;EQDQ01+000000PRSWM2Q02  00002PRCP99
0276296420999992000082109004+55380+086690SY-MT+0262UNEE V0201601N00801018001CN0100001N1+02521+01101100201ADDGA1021+009909099GA2071+018009999GF108991031031012501081021MA1100311999999MD1710171+9999MW1001OC101301REMSYN060AAXX  21091 29642 42697 81608 10252 20110 40020 57017 83382;MET078UNEE 210900Z 16008G13MPS 9999 FEW033CB BKN066 25/11 Q1003 NOSIG RMK QFE729 06;EQDQ01+000000PRSWM2
0112296420999992000082514004+55380+086690FM-15+0262UNEE V0201601N00201220001CN0099001N1+01501+01101999999ADDMA1101801999999MW1001REMMET060UNEE 251400Z 16002MPS CAVOK 15/11 Q1018 NOSIG RMK QFE740 06;EQDQ01+000000PRSWM2
0251296420999992000082703004+55380+086690SY-MT+0262UNEE V0202801N002010030019N0100001N1+01681+01581101131ADDGA1081+003009999GF108991081061004501999999MA1101021999999MD1110061+9999MW1001REMSYN070AAXX  27031 29642 42497 82802 10168 20158 40113 51006 886// 333 88710;MET067UNEE 270300Z 28002MPS 9999 OVC010 17/16 Q1010 NOSIG RMK QFE735 055;EQDQ01+000000PRSWM2
0218296420999992000082921004+55380+086690SY-MT+0262UNEE V0201501N00301220001CN0100001N1+00801+00611100251ADDGF108991031001999999031011MA1100101999999MD1710131+9999MW1001REMSYN060AAXX  29211 29642 42997 81503 10080 20061 40025 57013 83031;MET060UNEE 292100Z 15003MPS CAVOK 08/06 Q1001 NOSIG RMK QFE728 06;EQDQ01+000000PRSWM2
0162296420999992000083008004+55380+086690FM-15+0262UNEE V0202101N004012200019N0112651N1+01301+00601999999ADDGA1021+012009099GF104991999999999999999999MA1100001999999MW1001REMMET068UNEE 300800Z 21004MPS 9999 SCT040CB 13/06 Q1000 NOSIG RMK QFE727 06;EQDQ01+000000PRSWM2
0184296420999992000090122004+55380+086690FM-15+0262UNEE V0202801N002010180019N0112651N1+00801+00701999999ADDGA1021+012009999GA2081+018009999GF108991999999999999999999MA1102301999999MW1001REMMET074UNEE 012200Z 28002MPS 9999 SCT040 OVC066 08/07 Q1023 NOSIG RMK QFE744 055;EQDQ01+000000PRSWM2
0324296420999992000090900004+55380+086690SY-MT+0262UNEE V0201901N00601018001CN0100001N1+01441+01001101821ADDAA112000791AY181061AY221061GA1081+018009999GF108991081001999999071999KA1999N+01271MA1101801098741MD1510001+9999MW1021REMSYN088AAXX  09001 29642 11997 81906 10144 20100 39874 40182 55000 69902 70282 8807/ 333 20127;MET066UNEE 090000Z 19006MPS 9999 OVC066 14/10 Q1018 NOSIG RMK QFE740 06;EQDQ01+000000PRSWM2Q02    003PRSWM1
0268296420999992000090912004+55380+086690SY-MT+0262UNEE V0201801N004012200019N0100001N1+02211+01131101451ADDAA199000091GF103991001001999999001011KA1999M+02501MA1101491999999MD1710081+9999MW1001REMSYN070AAXX  09121 29642 32997 31804 10221 20113 40145 57008 80001 333 10250;MET060UNEE 091200Z 18004MPS CAVOK 22/11 Q1015 NOSIG RMK QFE738 06;EQDQ01+000000PRSWM2Q02  00002PRCP99
0291296420999992000100306004+55380+086690SY-MT+0262UNEE V0202901N007010060019N0100001N1+00201-00341102731ADDAY181061AY221061GA1071+006009099GF108991061031008001001001MA1102511999999MD1210071+9999MW1851REMSYN076AAXX  03061 29642 41560 82907 10020 21034 40273 52007 78582 86300 333 86920;MET069UNEE 030600Z 29007MPS 9999 BKN020CB 02/M03 Q1025 NOSIG RMK QFE746 06;EQDQ01+000000PRSWM2Q02    003PRSWM1
0169296420999992000100405004+55380+086690FM-15+0262UNEE V0203301N003010600019N0112651N1+99999+99999999999ADDGA1021+007809999GA2071+060009999GF107991999999999999999999MW1001REMMET074UNEE 040500Z 33003MPS 9999 FEW026 BKN200 O0/M06 Q1026 NOSIG RMK QFE746 06;EQDQ01+000000PRSWM2
0185296420999992000100610004+55380+086690FM-15+0262UNEE V0202101N002010084019N0112651N1+00001-00501999999ADDGA1071+008409999GA2081+018009999GF108991999999999999999999MA1102401999999MW1001REMMET075UNEE 061000Z 21002MPS 9999 BKN028 OVC066 M00/M05 Q1024 NOSIG RMK QFE744 06;EQDQ01+000000PRSWM2
0114296420999992000101123004+55380+086690FM-15+0262UNEE V0203601N00301220001CN0099001N1-00401-00601999999ADDMA1103291999999MW1001REMMET062UNEE 112300Z 36003MPS CAVOK M04/M06 Q1033 NOSIG RMK QFE751 06;EQDQ01+000000PRSWM2
0214296420999992000101318004+55380+086690SY-MT+0262UNEE V0200501N004012200019N0100001N1-00241-00511102611ADDGF100991001001999999001001MA1102401999999MD1710181+9999MW1001REMSYN054AAXX  13181 29642 42960 00504 11024 21051 40261 57018;MET062UNEE 131800Z 05004MPS CAVOK M02/M05 Q1024 NOSIG RMK QFE744 06;EQDQ01+000000PRSWM2
0282296420999992000101721004+55380+086690SY-MT+0262UNEE V0202401N006010048019N0100001N1-00131-00271102011ADDAY181031AY221031GA1081+004809099GF108991081031004501999999MA1101691999999MD1710081+9999MW1851REMSYN076AAXX  17211 29642 41460 82406 11013 21027 40201 57008 78582 883// 333 86916;MET076UNEE 172100Z 24006MPS 9999 -SHSN OVC016CB M01/M03 Q1017 NOSIG RMK QFE740 05;EQDQ01    003PRSWM1
0199296420999992000102114004+55380+086690FM-15+0262UNEE V0203301N008010066019N0112651N1-01401-01801999999ADDGA1081+006609099GF108991999999999999999999MA1101021999999MW1361MW2851REMMET083UNEE 211400Z 33008MPS 9999 -SHSN -DRSN OVC022CB M14/M18 Q1010 NOSIG RMK QFE735 035;EQDQ01+000003PRSWM1Q02    003PRSWM1
0217296420999992000102305004+55380+086690FM-15+0262UNEE V0201601N007010180019N0055001N1-01101-01401999999ADDGA1021+009009099GA2081+018009999GF108991999999999999999999MA1103011999999MW1851REMMET091UNEE 230500Z 16007MPS 5500 -SHSN FEW030CB OVC066 M11/M14 Q1030 TEMPO 2000 SN RMK QFE749 04;EQDQ01+000003PRSWM1Q02    003PRSWM1
0115296420999992000102517004+55380+086690FM-15+0262UNEE V0201401N00401220001CN0099001N1-00701-01101999999ADDMA1101801999999MW1001REMMET063UNEE 251700Z 14004MPS CAVOK M07/M11 Q1018 NOSIG RMK QFE741 037;EQDQ01+000000PRSWM2
0186296420999992000102807004+55380+086690FM-15+0262UNEE V0201801N006010024019N0010001N1-00101-00201999999ADDGA1081+002409099GF108991999999999999999999MA1102001999999MW1861REMMET076UNEE 280700Z 18006MPS 1000 SHSN OVC008CB M01/M02 Q1020 NOSIG RMK QFE742 035;EQDQ01+000003PRSWM1Q02    003PRSWM1
0114296420999992000103010004+55380+086690FM-15+0262UNEE V0201401N00401220001CN0099001N1+00301-00201999999ADDMA1100911999999MW1001REMMET062UNEE 301000Z 14004MPS CAVOK 03/M02 Q1009 NOSIG RMK QFE734 045;EQDQ01+000000PRSWM2
0183296420999992000103020004+55380+086690FM-15+0262UNEE V0201501N007010075019N0112651N1+00201+00101999999ADDGA1071+007509999GA2081+018009999GF108991999999999999999999MA1099701999999MW1001REMMET073UNEE 302000Z 15007MPS 9999 BKN025 OVC066 02/01 Q0997 NOSIG RMK QFE725 05;EQDQ01+000000PRSWM2
0287296420999992000103106004+55380+086690SY-MT+0262UNEE V0202301N009010027019N0020001N1+00021+00021100151ADDAY181061AY221061GA1081+002709099GF108991081031002501999999MA1100001999999MD1210391+9999MW1841MW2861REMSYN076AAXX  31061 29642 41320 82309 10002 20002 40015 52039 78482 883// 333 86709;MET075UNEE 310600Z 23009MPS 2000 SHSNRA OVC009CB 00/00 Q1000 NOSIG RMK QFE727 05;EQDQ01    003PRSWM1
0206296420999992000110515004+55380+086690SY-MT+0262UNEE V0201301N003019999999N0100001N1-01961-02291104791ADDGF108991999999999999999999MA1104401999999MW1001REMSYN059AAXX  05151 29642 42960 81303 11196 21229 40479 5011 80001;MET063UNEE 051500Z 13003MPS CAVOK M20/M23 Q1044 NOSIG RMK QFE759 055;EQDQ01+000000PRSWM2
0115296420999992000110519004+55380+086690FM-15+0262UNEE V0201001N00101220001CN0099001N1-02001-02301999999ADDMA1104101999999MW1001REMMET063UNEE 051900Z 10001MPS CAVOK M20/M23 Q1041 NOSIG RMK QFE757 055;EQDQ01+000000PRSWM2
0210296420999992000111107004+55380+086690FM-15+0262UNEE V0202201N006010180019N0070001N1-00701-01101999999ADDGA1021+006909099GA2081+018009999GF108991999999999999999999MA1102511999999MW1851REMMET084UNEE 110700Z 22006MPS 7000 -SHSN SCT023CB OVC066 M07/M11 Q1025 NOSIG RMK QFE745 045;EQDQ01+000003PRSWM1Q02    003PRSWM1
0275296420999992000111309004+55380+086690SY-MT+0262UNEE V0201301N003010084019N0100001N1-01021-01301103621ADDGA1071+008409999GA2081+018009999GF108991061051008001071999MA1103291999999MD1610031+9999MW1001REMSYN070AAXX  13091 29642 42560 81303 11102 21130 40362 56003 8657/ 333 86628;MET075UNEE 130900Z 13003MPS 9999 BKN028 OVC066 M10/M13 Q1033 NOSIG RMK QFE751 05;EQDQ01+000000PRSWM2
0207296420999992000111310004+55380+086690FM-15+0262UNEE V0201301N002010099019N0112651N1-01001-01301999999ADDGA1071+009909999GA2081+018009999GF108991999999999999999999MA1103291999999MW1851REMMET081UNEE 131000Z 13002MPS 9999 -SHSN BKN033 OVC066 M10/M13 Q1033 NOSIG RMK QFE751 05;EQDQ01+000003PRSWM1Q02    003PRSWM1
0186296420999992000112102004+55380+086690FM-15+0262UNEE V0202301N006010015019N0010001N1-01201-01601999999ADDGA1081+001509099GF108991999999999999999999MA1102101999999MW1861REMMET076UNEE 210200Z 23006MPS 1000 +SHSN OVC005CB M12/M16 Q1021 NOSIG RMK QFE742 04;EQDQ01+000003PRSWM1Q02    003PRSWM1
0213296420999992000112216004+55380+086690FM-15+0262UNEE V0203001N002010039019N0020001N1-01801-02001999999ADDGA1071+003909999GA2081+060009999GF108991999999999999999999MA1101901999999MW1041REMMET087UNEE 221600Z 30002MPS 2000 FU -SH BKN013 OVC200 M18/M20 Q1019 TEMPO 1000 RMK QFE742 04;EQDQ01+000003PRSWM1Q02    003PRSWM1
0127296420999992000112408004+55380+086690FM-15+0262UNEE V0201901N005012200019N0070001N1+99999+99999999999ADDMW1001MW2851REMMET084UNEE 240800Z 19005MPS 7000 -SHSN SCTO30CB OVC066 M17/M21 Q1022 NOSIG RMK QFE744 045;EQDQ01+000003PRSWM1
0221296420999992000112916004+55380+086690FM-15+0262UNEE V0203201N00401000151CN0010001N1-01301-01601999999ADDED199U18009GA1091+000159999GF109991999999000251999999MA1100311999999MW1861REMMET100UNEE 291600Z 32004MPS P1500 R23/1800 SHSN VV006 M13/M16 Q1003 TEMPO 1000 SHSN BKN003 RMK QFE729 045;EQDQ01+000003PRSWM1Q02    003PRSWM1
0140296420999992000120106004+55380+086690FM-12+0262UNEE V0201401N004019999999N0020001N1-01781-02041103351ADDAY171061AY221061GF108991081001999999021999MD1710081+9999MW1711REMSYN066AAXX  01061 29642 41995 81404 11178 21204 40335 57008 77172 8802/;
0210296420999992000120320004+55380+086690FM-15+0262UNEE V0201501N007010180019N0070001N1-01001-01001999999ADDGA1021+007809099GA2081+018009999GF108991999999999999999999MA1100811999999MW1851REMMET084UNEE 032000Z 15007MPS 7000 -SHSN SCT026CB OVC066 M10/M10 Q1008 NOSIG RMK QFE733 045;EQDQ01+000003PRSWM1Q02    003PRSWM1
0190296420999992000120514004+55380+086690FM-15+0262UNEE V0201701N005010180019N0055001N1-02801-03301999999ADDGA1081+018009999GF108991999999999999999999MA1102511999999MW1711REMMET080UNEE 051400Z 17005MPS 5500 -SN OVC066 M28/M33 Q1025 TEMPO 2000 SN RMK QFE746 04;EQDQ01+000003PRSWM1Q02    003PRSWM1
0181296420999992000120610004+55380+086690FM-15+0262UNEE V0202901N004010600019N0030001N1-02601-03001999999ADDGA1081+060009999GF108991999999999999999999MA1101801999999MW1041REMMET071UNEE 061000Z 29004MPS 3000 FU OVC200 M26/M30 Q1018 NOSIG RMK QFE740 04;EQDQ01+000003PRSWM1Q02    003PRSWM1
0258296420999992000121309004+55380+086690SY-MT+0262UNEE V0203001N003019999999N0100001N1-01381-01731102371ADDAY181031AY211031GF106991041001999999031011MA1102001999999MD1210141+9999MW1011REMSYN066AAXX  13091 29642 41960 63003 11138 21173 40237 52014 70181 84031;MET062UNEE 130900Z 30003MPS CAVOK M14/M17 Q1020 NOSIG RMK QFE742 04;EQDQ01+000000PRSWM2Q02    003PRSWM1
0272296420999992000121709004+55380+086690SY-MT+0262UNEE V0201301N00301018001CN0020001N1-01131-01261102231ADDAY171031AY221031GA1081+018009999GF108991081001999999021999MA1101901999999MD1710071+9999MW1711REMSYN066AAXX  17091 29642 41995 81303 11113 21126 40223 57007 77172 8802/;MET076UNEE 170900Z 13003MPS 3000 -SN BR OVC066 M11/M13 Q1019 NOSIG RMK QFE741 034;EQDQ01    003PRSWM1
0114296420999992000122517004+55380+086690FM-15+0262UNEE V0201501N00301220001CN0099001N1-01901-02101999999ADDMA1103011999999MW1001REMMET062UNEE 251700Z 15003MPS CAVOK M19/M21 Q1030 NOSIG RMK QFE749 04;EQDQ01+000000PRSWM2
0112296530999992000010606004+55300+089820FM-12+038399999V0201801N003012200019N0100001N1-03211-03431103311ADDGF102991001001999999001011MD1710321+9999REMSYN060AAXX  06061 29653 42997 21803 11321 21343 40331 57032 80001;
0112296530999992000032106004+55300+089820FM-12+038399999V0201801N004012200019N0100001N1-01041-02011103271ADDGF102991001001999999001011MD1710141+9999REMSYN060AAXX  21061 29653 42997 21804 11104 21201 40327 57014 80001;
0140296530999992000032518004+55300+089820FM-12+038399999V0203201N001010075019N0100001N1+00041-00231102121ADDAY181061AY251061GF108991081031008001999999MD1210181+9999MW1821REMSYN066AAXX  25181 29653 41597 83201 10004 21023 40212 52018 78285 883//;
0186296530999992000032612004+55300+089820FM-12+038399999V0201401N005019999999N0200001N1+00241-00501102031ADDAA199000091GF108991081001999999021999KA1999M+00541MA1999999097271MD1710261+9999REMSYN076AAXX  26121 29653 32998 81405 10024 21050 39727 40203 57026 8802/ 333 10054;EQDQ01  00002PRCP99
0112296530999992000051706004+55300+089820FM-12+038399999V0201401N002010075019N0500001N1+01781+00381101221ADDGF108991061031008001011999MD1710221+9999REMSYN060AAXX  17061 29653 42599 81402 10178 20038 40122 57022 8631/;
0140296530999992000061318004+55300+089820FM-12+038399999V0202701N001010075019N0100001N1+01431+01301101121ADDAY181061AY221061GF108991081031008001999999MD1810031+9999MW1251REMSYN066AAXX  13181 29653 41597 82701 10143 20130 40112 58003 72582 883//;
0112296530999992000062906004+55300+089810FM-12+038399999V0203201N002010075019N0500001N1+01581+00941100551ADDGF107991071021008001001001MD1310061+9999REMSYN060AAXX  29061 29653 42599 73202 10158 20094 40055 53006 87200;
0186296530999992000070200004+55300+089810FM-12+038399999V0201601N001012200019N0500001N1+00731+00581101301ADDAA199000091GF103991001001999999001011KA1999N+00281MA1999999096661MD1210051+9999REMSYN076AAXX  02001 29653 32999 31601 10073 20058 39666 40130 52005 80001 333 20028;EQDQ01  00002PRCP99
0122296530999992000070706004+55300+089810FM-12+038399999V0201401N002012200019N0200001N1+02901+01111100331ADDGA1001+999999999GF100991001001999999001001MD1710191+9999REMSYN054AAXX  07061 29653 42998 01402 10290 20111 40033 57019;
0201296530999992000071500004+55300+089810FM-12+038399999V0201801N001010075019N0100001N1+01271+01141100591ADDAA112000591AY181061AY221061GF107991071031008001001001KA1999N+01171MA1999999096081MD1310061+9999MW1021REMSYN088AAXX  15001 29653 32597 71801 10127 20114 39608 40059 53006 69942 70282 87300 333 20117;
0112296530999992000071706004+55300+089810FM-12+038399999V0203201N003010075019N0500001N1+01641+01141100881ADDGF107991071031008001001001MD1810011+9999REMSYN060AAXX  17061 29653 42599 73203 10164 20114 40088 58001 87300;
0140296530999992000071806004+55300+089810FM-12+038399999V0203201N002010075019N0200001N1+02021+00931100781ADDAY141061AY211061GF106991061021008001001001MD1710061+9999MW1031REMSYN066AAXX  18061 29653 41598 63202 10202 20093 40078 57006 70341 86200;
0201296530999992000102112004+55300+089810FM-12+038399999V0203201N003010075019N0040001N1-00661-00781100461ADDAA112002091AY181061AY221061GF108991081031008001999999KA1999M+00421MA1999999095621MD1310241+9999MW1861REMSYN088AAXX  21121 29653 11596 83203 11066 21078 39562 40046 53024 60022 78682 883// 333 10042;
0140296530999992000102406004+55300+089810FM-12+038399999V0201401N001010075019N0100001N1-00321-00561102601ADDAY181061AY221061GF108991081031008001999999MD1810031+9999MW1851REMSYN066AAXX  24061 29653 41597 81401 11032 21056 40260 58003 78582 883//;
0186296530999992000110112004+55300+089810FM-12+038399999V0201801N001012200019N0100001N1-00721-01201101601ADDAA199000091GF102991021021008001001001KA1999M-00081MA1999999096691MD1710141+9999REMSYN076AAXX  01121 29653 32597 21801 11072 21120 39669 40160 57014 82200 333 11008;EQDQ01  00002PRCP99
0256296540999992000011400004+55220+087650FM-12+049599999V0201901N004010021019N0010001N1-01251-01451102361ADDAA112003091AJ101409199999999AY181061AY231061GA1051+002109069GF108991081091001501999999IA1249KA1120N-01421MA1999999095961MD1410001+9999MW1861REMSYN104    AAXX  14001 29654 11294 81904 11125 21145 39596 40236 54000 60032 78683 889// 333 21142 48140 85707;
0170296540999992000011609004+55220+087650FM-12+049599999V0202201N003010021019N0040001N1-02431-02761102861ADDAY181031AY231031GA1041+002109069GF108991081091002501999999MD1210391+9999MW1851REMSYN080    AAXX  16091 29654 41396 82203 11243 21276 40286 52039 78583 889// 333 84707;
0180296540999992000012512004+55220+087650FM-12+049599999V0201701N004010075019N0500001N1-00451-01061103501ADDAA112000791AY131061AY221061GF108991051091008001051999KA1999M-00331MD1410001+9999MW1021REMSYN082AAXX  25121 29654 11599 81704 11045 21106 40350 54000 69902 70232 8595/ 333 11033;
0122296540999992000012818004+55220+087650FM-12+049599999V0200701N002012200019N0500001N1-00501-01591103751ADDGA1001+999999999GF100991001001999999001001MD1710071+9999REMSYN054AAXX  28181 29654 42999 00702 11050 21159 40375 57007;
0230296540999992000020100004+55220+087650FM-12+049599999V0202201N002010075019N0200001N1-01331-01431103121ADDAA112000591AJ101409199999999AY181061AY231061GF108991051091008001071061IA1299KA1120N-01341MA1999999096581MD1210181+9999MW1851REMSYN094AAXX  01001 29654 11598 82202 11133 21143 39658 40312 52018 69952 78583 85976 333 21134 49140;
0166296540999992000020621004+55220+087650FM-12+049599999V0202101N00301002101CN0020001N1-00601-00781102061ADDAY181031AY231031GA1041+001209069GF108991081091002501999999MD1210221+9999MW1851REMSYN076AAXX  06211 29654 41395 82103 11060 21078 40206 52022 78583 889// 333 84704;
0166296540999992000021718004+55220+087650FM-12+049599999V0201901N003010018019N0010001N1-00981-01101103041ADDAY181061AY221061GA1051+001809099GF108991081091001501999999MD1710041+9999MW1851REMSYN076AAXX  17181 29654 41294 81903 11098 21110 40304 57004 78582 889// 333 85906;
0140296540999992000021915004+55220+087650FM-12+049599999V0209999C000010300019N0200001N1-01251-01311102721ADDAY181031AY221031GF108991031091008001041011MD1210021+9999MW1851REMSYN066AAXX  19151 29654 41598 80000 11125 21131 40272 52002 78582 83941;
0140296540999992000022209004+55220+087650FM-12+049599999V0202001N004010075019N0040001N1-01351-01551103821ADDAY181031AY231031GF108991051071008001071011MD1210011+9999MW1851REMSYN066AAXX  22091 29654 41596 82004 11135 21155 40382 52001 78583 85771;
0140296540999992000022421004+55220+087650FM-12+049599999V0201901N004012200019N0500001N1-01211-01561103611ADDAY131031AY201031GF102991001001999999001011MD1710051+9999MW1021REMSYN066AAXX  24211 29654 41999 21904 11121 21156 40361 57005 70230 80001;
0252296540999992000030100004+55220+087650FM-12+049599999V0202201N009010018019N0020001N1-01311-01511102041ADDAA112002091AJ101579199999999AY181061AY231061GA1051+001809069GF108991081091001501999999IA1299KA1120N-01321MA1999999095651MD1210131+9999MW1851REMSYN100AAXX  01001 29654 11295 82209 11131 21151 39565 40204 52013 60022 78583 889// 333 21132 49157 85706;
0165296540999992000031212004+55220+087650FM-12+049599999V0200101N003012200019N0500001N1+00221-01091102501ADDAA199000091GF101991001001999999001011KA1999M+00871MD1310011+9999REMSYN070AAXX  12121 29654 32999 10103 10022 21109 40250 53001 80001 333 10087;EQDQ01  00002PRCP99
0166296540999992000032809004+55220+087650FM-12+049599999V0202301N007010051019N0500001N1-00171-01001102451ADDAY181031AY231031GA1051+005109099GF107991051091004501071011MD1210101+9999MW1361REMSYN076AAXX  28091 29654 41499 72307 11017 21100 40245 52010 73683 85971 333 85917;
0140296540999992000040106004+55220+087650FM-12+049599999V0202201N002010075019N0100001N1-00041-00581101091ADDAY181061AY231061GF107991051091008001001999MD1710141+9999MW1021REMSYN066AAXX  01061 29654 41597 72202 11004 21058 40109 57014 70283 8590/;
0159296540999992000040109004+55220+087650FM-12+049599999V0202201N007010300019N0100001N1+00171-00971101852ADDAY131031AY221031GF108991041091008001051999MD1710101+9999MW1361REMSYN066AAXX  01091 29654 41597 82207 10017 21097 40185 57010 73632 8495/;EQDQ01+101853APOSLP
0215296540999992000040400004+55220+087650FM-12+049599999V0209999C000010750019N0500001N1-00511-01101102301ADDAA199000091AJ101519199999999GF105991021041012501071011IA1299KA1120N-00621MA1999999096071MD1310031+9999REMSYN082AAXX  04001 29654 32699 50000 11051 21110 39607 40230 53003 82471 333 21062 49151;EQDQ01  00002PRCP99
0166296540999992000041006004+55220+087650FM-12+049599999V0203501N006010018019N0020001N1-00091-00121100861ADDAY181061AY231061GA1051+001809069GF108991081091002501999999MD1310441+9999MW1851REMSYN076AAXX  10061 29654 41395 83506 11009 21012 40086 53044 78583 889// 333 85706;
0165296540999992000042012004+55220+087650FM-12+049599999V0202501N002019999999N0500001N1+00831-00501102261ADDAA199000091GF108991051001999999031071KA1999M+00941MD1710051+9999REMSYN070AAXX  20121 29654 32999 82502 10083 21050 40226 57005 85037 333 10094;EQDQ01  00002PRCP99
0252296540999992000042300004+55220+087650FM-12+049599999V0202901N002010057019N0100001N1-00281-00551101651ADDAA112007191AJ100809199999999AY181061AY221061GA1081+005709099GF108991081091004501999999IA1249KA1120N-00301MA1999999095521MD1210271+9999MW1851REMSYN100AAXX  23001 29654 11497 82902 11028 21055 39552 40165 52027 60072 78582 889// 333 21030 48080 88919;
0223296540999992000060700004+55220+087650FM-12+049599999V0201801N003010018019N0020001N1+01361+01321100331ADDAA112005191AY181061AY221061GA1051+001809069GF108991081091001501999999KA1120N+01271MA1999999096451MD1710041+9999MW1801REMSYN094AAXX  07001 29654 11295 81803 10136 20132 39645 40033 57004 60052 78082 889// 333 20127 85706;
0140296540999992000061118004+55220+087650FM-12+049599999V0201401N002012200019N0500001N1+01251+00711101781ADDAY191061AY211061GF103991011091008001041081MD1210061+9999MW1021REMSYN066AAXX  11181 29654 41599 31402 10125 20071 40178 52006 70291 81948;
0166296540999992000062415004+55210+087640FM-12+049599999V0203601N00301002101CN0200001N1+01701+01521100711ADDAY191031AY281031GA1031+001809069GF108991071091002501051999MD1210041+9999MW1911REMSYN076AAXX  24151 29654 41398 83603 10170 20152 40071 52004 79198 8795/ 333 83706;
0112296540999992000062903004+55210+087640FM-12+049599999V0200501N003010300019N0500001N1+01571+00731100431ADDGF108991031091008001051999MD1710061+9999REMSYN060AAXX  29031 29654 42599 80503 10157 20073 40043 57006 8395/;
0112296540999992000070321004+55210+087640FM-12+049599999V0202801N001010300019N0500001N1+01641+01101100881ADDGF108991021051008001071071MD1810041+9999REMSYN060AAXX  03211 29654 42599 82801 10164 20110 40088 58004 82577;
0140296540999992000071321004+55210+087640FM-12+049599999V0203601N001019999999N0500001N1+01141+01091100581ADDAY121031AY221031GF107991051001999999071011MD1810031+9999MW1401REMSYN066AAXX  13211 29654 41999 73601 10114 20109 40058 58003 74022 85071;
0180296540999992000082012004+55210+087640FM-12+049599999V0202101N002010300019N0500001N1+02011+00821100931ADDAA112000591AY191061AY281061GF106991021091008001041081KA1999M+02181MD1710021+9999MW1021REMSYN082AAXX  20121 29654 11599 62102 10201 20082 40093 57002 69942 70298 82948 333 10218;
0166296540999992000082309004+55210+087640FM-12+049599999V0202701N003010051019N0200001N1+01361+00941100661ADDAY181031AY221031GA1061+005109099GF108991061091004501051999MD1210241+9999MW1801REMSYN076AAXX  23091 29654 41498 82703 10136 20094 40066 52024 78082 8695/ 333 86917;
0165296540999992000082812004+55210+087640FM-12+049599999V0200201N001010300019N0500001N1+01091+00671101131ADDAA199000091GF108991041091008001051999KA1999M+01881MD1310041+9999REMSYN070AAXX  28121 29654 32599 80201 10109 20067 40113 53004 8495/ 333 10188;EQDQ01  00002PRCP99
0140296540999992000092721004+55210+087640FM-12+049599999V0200701N003010075019N0500001N1+00001+00001102761ADDAY181031AY221031GF106991061071008001001001MD1710071+9999MW1021REMSYN066AAXX  27211 29654 41599 60703 10000 20000 40276 57007 70282 86700;
0166296540999992000100109004+55210+087640FM-12+049599999V0201801N004010018019N0200001N1+00301+00171101991ADDAY181031AY221031GA1061+001809069GF108991081091001501999999MD1710041+9999MW1801REMSYN076AAXX  01091 29654 41298 81804 10030 20017 40199 57004 78082 889// 333 86706;
0165296540999992000101312004+55210+087640FM-12+049599999V0200801N002012200019N0500001N1+00181-00591102811ADDAA199000091GF101991001001999999001011KA1999M+00631MD1710021+9999REMSYN070AAXX  13121 29654 32999 10802 10018 21059 40281 57002 80001 333 10063;EQDQ01  00002PRCP99
0166296540999992000102921004+55210+087640FM-12+049599999V0202001N005010033019N0500001N1+00071-00041101801ADDAY131031AY221031GA1081+003309069GF108991081061004501999999MD1710171+9999MW1021REMSYN076AAXX  29211 29654 41499 82005 10007 21004 40180 57017 70232 886// 333 88711;
0166296540999992000111109004+55210+087640FM-12+049599999V0202101N004010012019N0020001N1-00751-00881102791ADDAY181031AY231031GA1061+001209069GF108991081091001501999999MD1710011+9999MW1851REMSYN076AAXX  11091 29654 41295 82104 11075 21088 40279 57001 78583 889// 333 86704;
0166296540999992000112721004+55210+087640FM-12+049599999V0201801N004010021019N0100001N1-01221-01421102521ADDAY181031AY221031GA1041+002109069GF107991061091002501001011MD1710161+9999MW1851REMSYN076AAXX  27211 29654 41397 71804 11122 21142 40252 57016 78582 86901 333 84707;
0140296540999992000120609004+55210+087640FM-12+049599999V0209999C000019999999N0200001N1-02081-02231102121ADDAY171031AY221031GF108991051001999999071071MD1710021+9999MW1711REMSYN066AAXX  06091 29654 41998 80000 11208 21223 40212 57002 77172 85077;
0140296540999992000120818004+55210+087640FM-12+049599999V0201901N006010300019N0500001N1-01991-02401103501ADDAY131061AY221061GF107991021091008001031001MD1710101+9999MW1361REMSYN066AAXX  08181 29654 41599 71906 11199 21240 40350 57010 73632 82930;
0165296540999992000122612004+55210+087640FM-12+049599999V0201701N003019999999N0500001N1-01171-01371102721ADDAA199000091GF106991031001999999071011KA1999M-01121MD1710231+9999REMSYN070AAXX  26121 29654 32999 61703 11117 21137 40272 57023 83071 333 11112;EQDQ01  00002PRCP99
0140296540999992000123006004+55210+087640FM-12+049599999V0203501N004010075019N0100001N1-01341-01611101431ADDAY181061AY221061GF108991051091008001051999MD1310121+9999MW1851REMSYN066AAXX  30061 29654 41597 83504 11134 21161 40143 53012 78582 8595/;
0140296540999992000123009004+55210+087640FM-12+049599999V0203401N003010021019N0100001N1-01541-01901102021ADDAY181031AY221031GF108991051091002501051999MD1210481+9999MW1851REMSYN066AAXX  30091 29654 41397 83403 11154 21190 40202 52048 78582 8595/;
0240296750999992000020100004+55120+093330FM-12+047799999V0209999C000012200019N0200001N1-01021-01151102861ADDAA112000591AJ100379199999999AY181061AY211061GA1001+999999999GF100991001001999999001001IA1239KA1120N-01021MA1999999096621MD1210071+9999MW1011REMSYN088AAXX  01001 29675 11998 00000 11102 21115 39662 40286 52007 69952 70181 333 21102 47037;
0206296750999992000022000004+55120+093330FM-12+047799999V0209999C000012200019N0200001N1-02011-02271103001ADDAA199000021AJ100489199999999GA1001+999999999GF100991001001999999001001IA1239KA1120N-02011MA1999999096631MD1310131+9999REMSYN076AAXX  20001 29675 32998 00000 11201 21227 39663 40300 53013 333 21201 47048;
0122296750999992000030706004+55120+093330FM-12+047799999V0209999C000012200019N0200001N1-00302-01221102951ADDGA1001+999999999GF100991001001999999001001MD1810181+9999REMSYN054AAXX  07061 29675 42998 00000 11030 21122 40295 58018;
0225296750999992000031200004+55120+093330FM-12+047799999V0209999C000012200019N0200001N1-01661-01921103201ADDAA199000091AJ100459199999999GA1001+999999999GF100991001001999999001001IA1239KA1120N-01661MA1999999096891MD1810011+9999REMSYN076AAXX  12001 29675 32998 00000 11166 21192 39689 40320 58001 333 21166 47045;EQDQ01  00002PRCP99
0112296750999992000042506004+55120+093330FM-12+047799999V0203601N004010075019N0200001N1+01101+00481100881ADDGF108991081091008001999999MD1210201+9999REMSYN060AAXX  25061 29675 42598 83604 10110 20048 40088 52020 889//;
0173296750999992000051600004+55120+093330FM-12+047799999V0209999C000010120019N0200001N1+00441+00191102531ADDAA112001091GF107991071081008001001001KA1999N+00201MA1999999096731MD1310041+9999REMSYN082AAXX  16001 29675 12598 70000 10044 20019 39673 40253 53004 60012 87800 333 20020;
0112296750999992000052006004+55120+093330FM-12+047799999V0202701N002010075019N0200001N1+02141+00771100631ADDGF106991051021008001001011MD1710221+9999REMSYN060AAXX  20061 29675 42598 62702 10214 20077 40063 57022 85201;
0122296750999992000052118004+55120+093330FM-12+047799999V0209999C000012200019N0200001N1+00911+00891100601ADDGA1001+999999999GF100991001001999999001001MD1710041+9999REMSYN054AAXX  21181 29675 42998 00000 10091 20089 40060 57004;
0201296750999992000060300004+55120+093330FM-12+047799999V0209999C000010075019N0200001N1+01491+01421100311ADDAA112002091AY191061AY281061GF108991081091008001999999KA1999N+01101MA1999999094861MD1210061+9999MW1021REMSYN088AAXX  03001 29675 11598 80000 10149 20142 39486 40031 52006 60022 70298 889// 333 20110;
0201296750999992000072312004+55110+093320FM-12+047799999V0209999C000010075019N0200001N1+01501+01471100811ADDAA112018091AY181061AY221061GF108991081091008001999999KA1999M+02031MA1999999095331MD1210101+9999MW1251REMSYN088AAXX  23121 29675 11598 80000 10150 20147 39533 40081 52010 60182 72582 889// 333 10203;
0140296750999992000082318004+55110+093320FM-12+047799999V0209999C000010042019N0200001N1+01161+01121101031ADDAY161061AY221061GF108991061091004501001011MD1210081+9999MW1021REMSYN066AAXX  23181 29675 41498 80000 10116 20112 40103 52008 70262 86901;
0196296750999992000092900004+55110+093320FM-12+047799999V0209999C000012200019N0200001N1-00251-00251101891ADDAA199000091GA1001+999999999GF100991001001999999001001KA1999N-00361MA1999999095971MD1710051+9999REMSYN070AAXX  29001 29675 32998 00000 11025 21025 39597 40189 57005 333 21036;EQDQ01  00002PRCP99
0122296750999992000122118004+55110+093320FM-12+047799999V0209999C000012200019N0200001N1-02231-02281103761ADDGA1001+999999999GF100991001001999999001001MD1410001+9999REMSYN054AAXX  21181 29675 42998 00000 11223 21228 40376 54000;
0116296760999992000011818004+55250+094880FM-12+033699999V0209999C000010750019N0200001N1-02281-02531102511ADDGF107991041001022501071021MD1710051+9999REMSYN064    AAXX  18181 29676 42898 70000 11228 21253 40251 57005 84072;
0122296760999992000020406004+55250+094880FM-12+033699999V0201501N001012200019N0200001N1-02111-02361103021ADDGA1001+999999999GF100991001001999999001001MD1310011+9999REMSYN054AAXX  04061 29676 42998 01501 11211 21236 40302 53001;
0201296760999992000021112004+55250+094880FM-12+033699999V0203201N001019999999N0040001N1-01371-01501103481ADDAA112000891AY171061AY221061GF108991001001999999001071KA1999M-01061MA1999999098991MD1210081+9999MW1711REMSYN088AAXX  11121 29676 11996 83201 11137 21150 39899 40348 52008 69982 77172 80007 333 11106;
0140296760999992000022006004+55250+094880FM-12+033699999V0203301N001019999999N0200001N1-01111-01391102701ADDAY171061AY221061GF105991021001999999041011MD1410001+9999MW1021REMSYN066AAXX  20061 29676 41998 53301 11111 21139 40270 54000 70272 82041;
0169296760999992000030218004+55250+094880FM-12+033699999V0202501N004012200019N0200001N1-01361-01791103112ADDAY131061AY211061GA1001+999999999GF100991001001999999001001MD1210401+9999MW1361REMSYN060AAXX  02181 29676 41998 02504 11136 21179 40311 52040 73631;EQDQ01+103113APOSLP
0175296760999992000043018004+55250+094880FM-12+033699999V0202901N004010075019N0040001N1-00101-00231101462ADDAY171061AY261061GF108991081001008001021999MD1210652+9999MW1731REMSYN066AAXX  30181 29676 41596 82904 11010 21023 40146 52065 77376 8802/;EQDQ01+101463APOSLPQ02+000652APC3  
0195296760999992000051600004+55250+094880FM-12+033699999V0209999C000010120019N0040001N1+00191+00191102611ADDAA199000021AY111061AY211061GF105991051051012501001001KA1999N-00131MA1999999098431MD1210071+9999MW1101REMSYN082AAXX  16001 29676 31696 50000 10019 20019 39843 40261 52007 71011 85500 333 21013;
0196296760999992000052600004+55250+094880FM-12+033699999V0203301N001012200019N0200001N1+00541+00541101681ADDAA199000091GA1001+999999999GF100991001001999999001001KA1999N+00081MA1999999097571MD1210071+9999REMSYN070AAXX  26001 29676 32998 03301 10054 20054 39757 40168 52007 333 20008;EQDQ01  00002PRCP99
0112296760999992000081806004+55250+094880FM-12+033699999V0200801N001010300019N0500001N1+02121+01301100611ADDGF107991021021012501041011MD1710061+9999REMSYN060AAXX  18061 29676 42699 70801 10212 20130 40061 57006 82241;
0140296760999992000082318004+55250+094880FM-12+033699999V0201301N001010120019N0200001N1+01451+01391100911ADDAY181061AY221061GF108991081051012501999999MD1810011+9999MW1021REMSYN066AAXX  23181 29676 41698 81301 10145 20139 40091 58001 70282 885//;
0131296760999992000090506004+55250+094880FM-12+033699999V0209999C000019999999N0500001N1+01891+00821102061ADDGF106991001001999999001061MD1710151+9999REMSYN060AAXX  05061 29676 42999 60000 10189 20082 40206 57015 86006;EQDQ01+000062SCOTLC
0186296760999992000093012004+55250+094880FM-12+033699999V0202101N003010120019N0200001N1+00701-00051102211ADDAA199000091GF108991081051012501999999KA1999M+01111MA1999999098121MD1210181+9999REMSYN076AAXX  30121 29676 32698 82103 10070 21005 39812 40221 52018 885// 333 10111;EQDQ01  00002PRCP99
0201296760999992000112712004+55250+094880FM-12+033699999V0203001N004010120019N0040001N1-00781-01051102051ADDAA112001091AY171061AY231061GF108991081051012501999999KA1999M-00351MA1999999097731MD1210121+9999MW1711REMSYN088AAXX  27121 29676 11696 83004 11078 21105 39773 40205 52012 69992 77173 885// 333 11035;
0122296760999992000113018004+55250+094880FM-12+033699999V0203201N001012200019N0200001N1-02481-02871103601ADDGA1001+999999999GF100991001001999999001001MD1210211+9999REMSYN054AAXX  30181 29676 42998 03201 11248 21287 40360 52021;
0140296980999992000010609004+54880+099030FM-12+0410UINN V0202001N003012200019N0100001N1-03271-03571104201ADDAY101031AY201031GF102991001001999999001021MD1710161+9999MW1041REMSYN066AAXX  06091 29698 41997 22003 11327 21357 40420 57016 70400 80002;
0112296980999992000030109004+54880+099030FM-12+0410UINN V0203201N001019999999N0200001N1-00301-00881101711ADDGF108991081001999999021999MD1810061+9999REMSYN060AAXX  01091 29698 42998 83201 11030 21088 40171 58006 8802/;
0140296980999992000052303004+54880+099030FM-12+0410UINN V0202701N005010075019N0100001N1+01091+00341100601ADDAY121031AY221031GF108991081091008001999999MD1210181+9999MW1801REMSYN066AAXX  23031 29698 41597 82705 10109 20034 40060 52018 78022 889//;
0186296980999992000080412004+54880+099020FM-12+0410UINN V0203001N003010075019N0200001N1+01921+01441100811ADDAA199000091GF106991051091008001041021KA1999M+02421MA1999999096131MD1310091+9999REMSYN076AAXX  04121 29698 32598 63003 10192 20144 39613 40081 53009 85942 333 10242;EQDQ01  00002PRCP99
0140296980999992000100106004+54880+099020FM-12+0410UINN V0202901N001010075019N0100001N1+00271+00271102331ADDAY181061AY221061GF108991081091008001999999MD1810111+9999MW1801REMSYN066AAXX  01061 29698 41597 82901 10027 20027 40233 58011 78082 889//;
0166297060999992000011318004+54370+077280FM-12+011699999V0202501N005010021019N0500001N1-00821-00921102151ADDAY181061AY221061GA1071+002109069GF108991081071002501999999MD1210061+9999MW1021REMSYN076AAXX  13181 29706 41399 82505 11082 21092 40215 52006 70282 887// 333 87707;
0112297060999992000012018004+54370+077280FM-12+011699999V0201401N006019999999N0500001N1-01611-01761102811ADDGF106991001001999999001021MD1710141+9999REMSYN060AAXX  20181 29706 42999 61406 11161 21176 40281 57014 80002;
0186297060999992000012312004+54370+077280FM-12+011699999V0201201N006012200019N0500001N1-01361-01901102651ADDAA199000091GF103991011001999999031011KA1999M-01261MA1999999101101MD1810051+9999REMSYN076AAXX  23121 29706 32999 31206 11136 21190 30110 40265 58005 81031 333 11126;EQDQ01  00002PRCP99
0112297060999992000012921004+54370+077280FM-12+011699999V0201601N005019999999N0500001N1-00681-01011102211ADDGF108991081001999999021999MD1710211+9999REMSYN060AAXX  29211 29706 42999 81605 11068 21101 40221 57021 8802/;
0140297060999992000021203004+54370+077280FM-12+011699999V0201501N006019999999N0200001N1-01021-01151102651ADDAY171031AY231031GF108991081001999999021999MD1710101+9999MW1711REMSYN066AAXX  12031 29706 41998 81506 11102 21115 40265 57010 77173 8802/;
0177297060999992000032718004+54370+077280FM-12+011699999V0202501N014012200019N0100001N1-00091-00481101331ADDAY181061AY231061GA1001+999999999GF100991001001999999001001MD1210321+9999MW1371OA140102101REMSYN076AAXX  27181 29706 41997 02514 11009 21048 40133 52032 73783 333 91021 91121;
0131297060999992000042003004+54370+077280FM-12+011699999V0202801N003012200019N0500001N1+01062-00381102841ADDGF103991001001999999001011MD1410001+9999REMSYN060AAXX  20031 29706 42999 32803 10106 21038 40284 54000 80001;EQDQ01+001063ATOT  
0112297060999992000062309004+54360+077270FM-12+011699999V0209999V004012200019N0500001N1+02781+01741101151ADDGF101991011011017501001001MD1710111+9999REMSYN060AAXX  23091 29706 42799 19904 10278 20174 40115 57011 81100;
0112297060999992000072721004+54360+077270FM-12+011699999V0201801N004012200019N0200001N1+01511+01011101381ADDGF103991001001999999001011MD1810081+9999REMSYN060AAXX  27211 29706 42998 31804 10151 20101 40138 58008 80001;
0186297060999992000100912004+54360+077270FM-12+011699999V0202201N005019999999N0500001N1+00401-00531103371ADDAA199000091GF108991051001999999041011KA1999M+00641MA1999999101911MD1210071+9999REMSYN076AAXX  09121 29706 32999 82205 10040 21053 30191 40337 52007 85041 333 10064;EQDQ01  00002PRCP99
0140297060999992000101403004+54360+077270FM-12+011699999V0200701N004010075019N0500001N1+00021-00091101381ADDAY181031AY221031GF107991071031008001001001MD1710101+9999MW1251REMSYN066AAXX  14031 29706 41599 70704 10002 21009 40138 57010 72582 87300;
0201297060999992000110112004+54360+077270FM-12+011699999V0203401N006012200019N0500001N1-00491-00851101591ADDAA112003091AY181061AY231061GF102991021051012501001001KA1999M-00171MA1999999100111MD1210351+9999MW1021REMSYN088AAXX  01121 29706 11699 23406 11049 21085 30011 40159 52035 60032 70283 82500 333 11017;
0112297060999992000111109004+54360+077270FM-12+011699999V0202501N004012200019N0500001N1-00421-01271103201ADDGF101991011001999999031001MD1810081+9999REMSYN060AAXX  11091 29706 42999 12504 11042 21127 40320 58008 81030;
0186297060999992000111112004+54360+077270FM-12+011699999V0202401N002012200019N0500001N1-01021-01461103261ADDAA199000091GF103991001001999999001011KA1999M-00341MA1999999101721MD1310021+9999REMSYN076AAXX  11121 29706 32999 32402 11102 21146 30172 40326 53002 80001 333 11034;EQDQ01  00002PRCP99
0112297060999992000120209004+54360+077270FM-12+011699999V0202101N003019999999N0500001N1-00971-01431100081ADDGF108991081001999999051999MD1710231+9999REMSYN060AAXX  02091 29706 42999 82103 11097 21143 40008 57023 8805/;
0140297060999992000121809004+54360+077270FM-12+011699999V0202101N004019999999N0040001N1-00241-00241101901ADDAY171031AY221031GF108991081001999999021999MD1810141+9999MW1711REMSYN066AAXX  18091 29706 41996 82104 11024 21024 40190 58014 77172 8802/;
0159297060999992000121815004+54360+077270FM-12+011699999V0202401N006010042019N0040001N1-00111-00131101911ADDAY171031AY231031GF108991999071004501021999MD1310031+9999MW1711REMSYN066AAXX  18151 29706 41496 82406 11011 21013 40191 53003 77173 8872/;EQDQ01+000082SCOTLC
0150297120999992000010121004+54700+078670FM-12+011299999V0200401N007012200019N0200001N1-02701-03011102251ADDAY131031AY201031GA1001+999999999GF100991001001999999001001MD1710131+9999MW1361REMSYN060AAXX  01211 29712 41998 00407 11270 21301 40225 57013 73630;
0193297120999992000021712004+54700+078670FM-12+011299999V0201701N006012200019N0200001N1-01081-01211102881ADDAA199000091AY131061AY211061GF103991001001999999001021KA1999M-00991MD1710051+9999MW1021REMSYN076AAXX  17121 29712 31998 31706 11108 21121 40288 57005 70231 80002 333 11099;EQDQ01  00002PRCP99
0122297120999992000032315004+54700+078670FM-12+011299999V0201601N005012200019N0200001N1-00501-01041102221ADDGA1001+999999999GF100991001001999999001001MD1710151+9999REMSYN054AAXX  23151 29712 42998 01605 11050 21104 40222 57015;
0189297120999992000032718004+54700+078670FM-12+011299999V0202201N015010039019N0010001N1-00141-00141101181ADDAY181061AY231061GA1081+003909099GF108991081091004501999999MD1310141+9999MW1861OA140101801REMSYN088AAXX  27181 29712 41494 82215 11014 21014 40118 53014 78683 889// 333 88913 91018 91121;
0215297120999992000040100004+54700+078670FM-12+011299999V0201801N005019999999N0200001N1-00891-01041101171ADDAA199000091AJ100599199999999GF105991031001999999071021IA1279KA1120N-00901MA1999999099701MD1710151+9999REMSYN082AAXX  01001 29712 32998 51805 11089 21104 39970 40117 57015 83072 333 21090 43059;EQDQ01  00002PRCP99
0150297120999992000040406004+54700+078670FM-12+011299999V0202701N002012200019N0200001N1+00231-00111102801ADDAY141061AY201061GA1001+999999999GF100991001001999999001001MD1210301+9999MW1021REMSYN060AAXX  04061 29712 41998 02702 10023 21011 40280 52030 70240;
0165297120999992000041212004+54700+078670FM-12+011299999V0200801N004019999999N0200001N1+00531-00431102571ADDAA199000091GF108991001001999999001021KA1999M+00601MD1710211+9999REMSYN070AAXX  12121 29712 32998 80804 10053 21043 40257 57021 80002 333 10060;EQDQ01  00002PRCP99
0112297120999992000042115004+54700+078670FM-12+011299999V0202701N002012200019N0200001N1+01281+00701101741ADDGF102991001001999999001011MD1710091+9999REMSYN060AAXX  21151 29712 42998 22702 10128 20070 40174 57009 80001;
0140297120999992000050315004+54700+078670FM-12+011299999V0202701N011019999999N0200001N1+00811+00371100521ADDAY181031AY221031GF107991071001999999071001MD1410001+9999MW1021REMSYN066AAXX  03151 29712 41998 72711 10081 20037 40052 54000 70282 87070;
0112297120999992000051309004+54700+078670FM-12+011299999V0203401N003010042019N0200001N1+01161-00201101671ADDGF105991051011004501001001MD1210211+9999REMSYN060AAXX  13091 29712 42498 53403 10116 21020 40167 52021 85100;
0180297120999992000051612004+54700+078670FM-12+011299999V0201801N007010075019N0200001N1+01721+01351101161ADDAA112000891AY181061AY221061GF108991051091008001071999KA1999M+02041MD1610011+9999MW1251REMSYN082AAXX  16121 29712 11598 81807 10172 20135 40116 56001 69972 72582 8597/ 333 10204;
0112297120999992000052109004+54700+078670FM-12+011299999V0201601N001019999999N0200001N1+01821+00161100751ADDGF105991001001999999001011MD1810091+9999REMSYN060AAXX  21091 29712 42998 51601 10182 20016 40075 58009 80001;
0112297120999992000052706004+54700+078670FM-12+011299999V0202001N001012200019N0200001N1+02531+01281100861ADDGF105991031021008001001011MD1810031+9999REMSYN060AAXX  27061 29712 42598 52001 10253 20128 40086 58003 83201;
0112297120999992000061606004+54690+078670FM-12+011299999V0201801N007012200019N0200001N1+02481+01561101121ADDGF104991001001999999001011MD1410001+9999REMSYN060AAXX  16061 29712 42998 41807 10248 20156 40112 54000 80001;
0165297120999992000062512004+54690+078670FM-12+011299999V0200601N006012200019N0200001N1+02201+00961101611ADDAA199000091GF102991001001999999001011KA1999M+02251MD1410001+9999REMSYN070AAXX  25121 29712 32998 20606 10220 20096 40161 54000 80001 333 10225;EQDQ01  00002PRCP99
0165297120999992000071112004+54690+078670FM-12+011299999V0200401N008019999999N0200001N1+02421+01371100371ADDAA199000091GF105991051001999999071001KA1999M+02451MD1410001+9999REMSYN070AAXX  11121 29712 32998 50408 10242 20137 40037 54000 85070 333 10245;EQDQ01  00002PRCP99
0112297120999992000071803004+54690+078670FM-12+011299999V0200401N002019999999N0200001N1+01951+01181101151ADDGF106991061001999999071001MD1410001+9999REMSYN060AAXX  18031 29712 42998 60402 10195 20118 40115 54000 86070;
0166297120999992000080518004+54690+078670FM-12+011299999V0201401N003010096019N0200001N1+02411+01811100291ADDAY121061AY221061GA1061+009609099GF108991061091008001071999MD1710111+9999MW1131REMSYN076AAXX  05181 29712 41598 81403 10241 20181 40029 57011 71322 8697/ 333 86932;
0112297120999992000080621004+54690+078670FM-12+011299999V0202401N002019999999N0200001N1+01731+01381100631ADDGF106991061001999999071001MD1210121+9999REMSYN060AAXX  06211 29712 42998 62402 10173 20138 40063 52012 86070;
0180297120999992000083012004+54690+078670FM-12+011299999V0203201N006010300019N0200001N1+01121+00851100451ADDAA112002091AY181061AY221061GF106991041091008001071001KA1999M+01221MD1210131+9999MW1021REMSYN082AAXX  30121 29712 11598 63206 10112 20085 40045 52013 60022 70282 84970 333 10122;
0122297120999992000092221004+54690+078670FM-12+011299999V0202701N001012200019N0200001N1-00191-00611102171ADDGA1001+999999999GF100991001001999999001001MD1210151+9999REMSYN054AAXX  22211 29712 42998 02701 11019 21061 40217 52015;
0140297120999992000093015004+54690+078670FM-12+011299999V0201801N006019999999N0200001N1+00361+00291101711ADDAY181031AY221031GF107991031091999999071001MD1710011+9999MW1021REMSYN066AAXX  30151 29712 41998 71806 10036 20029 40171 57001 70282 83970;
0112297120999992000100518004+54690+078670FM-12+011299999V0200301N002012200019N0200001N1-00551-00811103061ADDGF102991021001999999071001MD1110021+9999REMSYN060AAXX  05181 29712 42998 20302 11055 21081 40306 51002 82070;
0166297120999992000102221004+54690+078670FM-12+011299999V0201901N005010054019N0200001N1-00451-00611102751ADDAY181031AY221031GA1081+005409099GF108991081091004501999999MD1810201+9999MW1851REMSYN076AAXX  22211 29712 41498 81905 11045 21061 40275 58020 78582 889// 333 88918;
0122297120999992000102418004+54690+078670FM-12+011299999V0201201N003012200019N0200001N1-00871-01361102001ADDGA1001+999999999GF100991001001999999001001MD1810071+9999REMSYN054AAXX  24181 29712 42998 01203 11087 21136 40200 58007;
0215297120999992000102700004+54690+078670FM-12+011299999V0201801N006012200019N0200001N1-00061-00241103251ADDAA199000091AJ100099199999999GF103991031051012501001001IA1279KA1120N-00101MA1999999101801MD1810031+9999REMSYN082AAXX  27001 29712 32698 31806 11006 21024 30180 40325 58003 83500 333 21010 43009;EQDQ01  00002PRCP99
0237297120999992000102900004+54690+078670FM-12+011299999V0202001N008010099019N0200001N1-00031-00031102231ADDAA199000091AJ100079199999999GA1081+009909059GF108991081051012501999999IA1279KA1120N-00061MA1999999100801MD1310061+9999REMSYN088AAXX  29001 29712 32698 82008 11003 21003 30080 40223 53006 885// 333 21006 43007 88633;EQDQ01  00002PRCP99
0140297120999992000103106004+54690+078670FM-12+011299999V0203101N009012200019N0200001N1-00181-00931101401ADDAY181061AY211061GF104991041001999999071001MD1210611+9999MW1021REMSYN066AAXX  31061 29712 41998 43109 11018 21093 40140 52061 70281 84070;
0140297120999992000110306004+54690+078670FM-12+011299999V0203601N003010300019N0200001N1-00611-00841102191ADDAY181061AY221061GF105991021091008001071001MD1210371+9999MW1021REMSYN066AAXX  03061 29712 41598 53603 11061 21084 40219 52037 70282 82970;
0225297120999992000111200004+54690+078670FM-12+011299999V0202701N002012200019N0200001N1-01041-01241103241ADDAA199000091AJ100089199999999GA1001+999999999GF100991001001999999001001IA1239KA1120N-01151MA1999999101731MD1310041+9999REMSYN076AAXX  12001 29712 32998 02702 11104 21124 30173 40324 53004 333 21115 47008;EQDQ01  00002PRCP99
0138297120999992000111521004+54690+078670FM-12+011299999V0201001N002010012019N0100001N1-00911-00911103281ADDGA1081+001209069GF108991081061001501999999MD1710171+9999REMSYN070AAXX  15211 29712 42297 81002 11091 21091 40328 57017 886// 333 88704;
0166297120999992000111615004+54690+078670FM-12+011299999V0200701N005010018019N0200001N1-00891-00891102701ADDAY181031AY221031GA1051+001809099GF108991081091001501999999MD1610041+9999MW1851REMSYN076AAXX  16151 29712 41298 80705 11089 21089 40270 56004 78582 889// 333 85906;
0140297120999992000111709004+54690+078670FM-12+011299999V0200901N001010300019N0100001N1-00761-00861102601ADDAY181031AY221031GF107991031091012501071001MD1210041+9999MW1851REMSYN066AAXX  17091 29712 41697 70901 11076 21086 40260 52004 78582 83970;
0138297120999992000112703004+54690+078670FM-12+011299999V0202101N005010039019N0200001N1-01311-01511102571ADDGA1051+003909099GF108991051091004501051999MD1310041+9999REMSYN070AAXX  27031 29712 42498 82105 11131 21151 40257 53004 8595/ 333 85913;
0166297120999992000112909004+54690+078670FM-12+011299999V0203201N004010750019N0100001N1-01151-01371100781ADDAY181031AY221031GA1031+004809099GF108991031091004501001021MD1210101+9999MW1851REMSYN076AAXX  29091 29712 41497 83204 11115 21137 40078 52010 78582 83902 333 83916;
0166297120999992000121215004+54690+078670FM-12+011299999V0202001N005010018019N0200001N1-00691-00781102371ADDAY181031AY221031GA1061+001809069GF108991081091001501999999MD1710191+9999MW1851REMSYN076AAXX  12151 29712 41298 82005 11069 21078 40237 57019 78582 889// 333 86706;
0112297120999992000122403004+54690+078670FM-12+011299999V0201801N003019999999N0200001N1-02001-02081102601ADDGF106991001001999999001021MD1210121+9999REMSYN060AAXX  24031 29712 42998 61803 11200 21208 40260 52012 80002;
0112297240999992000010409004+54300+080500FM-12+016699999V0202001N001019999999N0200001N1-03411-03731105181ADDGF108991001001999999001011MD1810031+9999REMSYN060AAXX  04091 29724 42998 82001 11341 21373 40518 58003 80001;
0165297240999992000012312004+54300+080500FM-12+016699999V0201001N005012200019N0100001N1-01671-02091103051ADDAA199000091GF101991011001999999051001KA1999M-01301MD1310021+9999REMSYN070AAXX  23121 29724 32997 11005 11167 21209 40305 53002 81050 333 11130;EQDQ01  00002PRCP99
0122297240999992000022018004+54300+080500FM-12+016699999V0202401N001012200019N0100001N1-02731-02941103901ADDGA1001+999999999GF100991001001999999001001MD1210061+9999REMSYN054AAXX  20181 29724 42997 02401 11273 21294 40390 52006;
0150297240999992000030418004+54300+080500FM-12+016699999V0202201N002012200019N0040001N1-01441-01541103411ADDAY101061AY201061GA1001+999999999GF100991001001999999001001MD1210041+9999MW1101REMSYN060AAXX  04181 29724 41996 02202 11144 21154 40341 52004 71000;
0122297240999992000030621004+54300+080500FM-12+016699999V0200701N002012200019N0100001N1-01051-01411102841ADDGA1001+999999999GF100991001001999999001001MD1710101+9999REMSYN054AAXX  06211 29724 42997 00702 11105 21141 40284 57010;
0112297240999992000040609004+54300+080500FM-12+016699999V0202501N002010120019N0500001N1+00301-00151101911ADDGF108991061051012501051999MD1710111+9999REMSYN060AAXX  06091 29724 42699 82502 10030 21015 40191 57011 8655/;
0112297240999992000041309004+54300+080500FM-12+016699999V0209999V004010300019N0500001N1+01231+00091101301ADDGF108991021031008001031011MD1710141+9999REMSYN060AAXX  13091 29724 42599 89904 10123 20009 40130 57014 82331;
0112297240999992000050415004+54300+080500FM-12+016699999V0201901N003010075019N0100001N1+00741-00061100991ADDGF108991061031008001051999MD1710161+9999REMSYN060AAXX  04151 29724 42597 81903 10074 21006 40099 57016 8635/;
0112297240999992000050815004+54300+080500FM-12+016699999V0201401N003010075019N0100001N1+01511+00281100151ADDGF108991061031008001051999MD1710381+9999REMSYN060AAXX  08151 29724 42597 81403 10151 20028 40015 57038 8635/;
0202297240999992000051112004+54300+080500FM-12+016699999V0202101N002010063019N0200001N1+01121+00821100231ADDAA112002091AY191061AY281061GA1051+006309099GF108991081031008001999999KA1120M+01801MD1210271+9999MW1801REMSYN088AAXX  11121 29724 11598 82102 10112 20082 40023 52027 60022 78098 883// 333 10180 85921;
0138297240999992000052903004+54300+080500FM-12+016699999V0202101N007010063019N0500001N1+01451+01121099711ADDGA1081+006309099GF108991081031008001999999MD1410001+9999REMSYN070AAXX  29031 29724 42599 82107 10145 20112 49971 54000 883// 333 88921;
0223297240999992000060200004+54300+080500FM-12+016699999V0200201N00401004201CN0500001N1+00921+00641100581ADDAA112000791AY181061AY221061GA1041+003609069GF108991081031004501999999KA1120N+00921MA1999999098611MD1710051+9999MW1021REMSYN094AAXX  02001 29724 11499 80204 10092 20064 39861 40058 57005 69902 70282 883// 333 20092 84712;
0173297240999992000071700004+54300+080500FM-12+016699999V0202301N001010120019N0200001N1+00931+00851101311ADDAA112000591GF106991051051012501031001KA1999N+00851MA1999999099331MD1410001+9999REMSYN082AAXX  17001 29724 12698 62301 10093 20085 39933 40131 54000 69962 85530 333 20085;
0112297240999992000072218004+54300+080500FM-12+016699999V0209999C000012200019N0100001N1+01141+00881101391ADDGF101991011051008001001001MD1710021+9999REMSYN060AAXX  22181 29724 42597 10000 10114 20088 40139 57002 81500;
0180297240999992000081012004+54300+080500FM-12+016699999V0200401N002010075019N0500001N1+01721+01441101101ADDAA112004191AY191061AY281061GF106991051031008001051021KA1999M+02391MD1310101+9999MW1021REMSYN082AAXX  10121 29724 11599 60402 10172 20144 40110 53010 60042 70298 85352 333 10239;
0186297240999992000081700004+54300+080500FM-12+016699999V0200501N003012200019N0500001N1+01141+00961100731ADDAA199000091GF108991031051012501001011KA1999N+01141MA1999999098771MD1710051+9999REMSYN076AAXX  17001 29724 32699 80503 10114 20096 39877 40073 57005 83501 333 20114;EQDQ01  00002PRCP99
0112297240999992000081803004+54300+080500FM-12+016699999V0202501N003012200019N0500001N1+01811+01381099901ADDGF102991001001999999001021MD1310071+9999REMSYN060AAXX  18031 29724 42999 22503 10181 20138 49990 53007 80002;
0165297240999992000091412004+54300+080500FM-12+016699999V0201301N003019999999N0500001N1+01651+00441101381ADDAA199000091GF108991001001999999001021KA1999M+01811MD1710271+9999REMSYN070AAXX  14121 29724 32999 81303 10165 20044 40138 57027 80002 333 10181;EQDQ01  00002PRCP99
0112297240999992000091603004+54300+080500FM-12+016699999V0202201N006019999999N0500001N1+01061+00961100701ADDGF105991001001999999001021MD1210031+9999REMSYN060AAXX  16031 29724 42999 52206 10106 20096 40070 52003 80002;
0112297240999992000110209004+54300+080500FM-12+016699999V0202101N005019999999N0500001N1-00701-01231102891ADDGF106991061001999999031001MD1810011+9999REMSYN060AAXX  02091 29724 42999 62105 11070 21123 40289 58001 86030;
0252297240999992000111600004+54300+080500FM-12+016699999V0200801N003010027019N0040001N1-00981-01061103251ADDAA112000791AJ100099199999999AY171061AY221061GA1081+002709029GF108991081001002501021999IA1239KA1120N-00981MA1999999101081MD1810151+9999MW1711REMSYN100AAXX  16001 29724 11396 80803 11098 21106 30108 40325 58015 69902 77172 8802/ 333 21098 47009 88509;
0140297240999992000120706004+54300+080500FM-12+016699999V0202001N005012200019N0200001N1-02911-03311103701ADDAY181061AY231061GF102991011031008001001021MD1410001+9999MW1851REMSYN066AAXX  07061 29724 41598 22005 11291 21331 40370 54000 78583 81302;
0202297240999992000121812004+54300+080500FM-12+016699999V0202301N006010030019N0040001N1-00311-00381102161ADDAA112002091AY181061AY231061GA1061+003009069GF108991081031004501999999KA1120M-00311MD1710011+9999MW1851REMSYN088AAXX  18121 29724 11496 82306 11031 21038 40216 57001 60022 78583 883// 333 11031 86710;
0122297260999992000010215004+54370+081950FM-12+013599999V0202801N001012200019N0200001N1-03451-03791102921ADDGA1001+999999999GF100991001001999999001001MD1210251+9999REMSYN054AAXX  02151 29726 42998 02801 11345 21379 40292 52025;
0112297260999992000010503004+54370+081950FM-12+013599999V0209999C000019999999N0200001N1-03381-03631104641ADDGF108991041001999999071011MD1710201+9999REMSYN060AAXX  05031 29726 42998 80000 11338 21363 40464 57020 84071;
0166297260999992000010915004+54370+081950FM-12+013599999V0202301N004010084019N0040001N1-02401-02701103601ADDAY171031AY221031GA1061+008409059GF106991061051008001001001MD1210171+9999MW1711REMSYN076AAXX  09151 29726 41596 62304 11240 21270 40360 52017 77172 86500 333 86628;
0140297260999992000011306004+54370+081950FM-12+013599999V0202301N004010750019N0040001N1-01161-01361101841ADDAY171061AY221061GF105991021051012501071011MD1210121+9999MW1711REMSYN066AAXX  13061 29726 41696 52304 11116 21136 40184 52012 77172 82571;
0244297260999992000011600004+54370+081950FM-12+013599999V0202601N004012200019N0200001N1-02731-03111102281ADDAA112002091AJ100269199999999AY181061AY231061GA1001+999999999GF100991001001999999001001IA1249KA1120N-02731MA1999999100391MD1210541+9999MW1361REMSYN092    AAXX  16001 29726 11998 02604 11273 21311 30039 40228 52054 60022 73683 333 21273 48026;
0144297260999992000011803004+54370+081950FM-12+013599999V0209999C000019999999N0040001N1-01871-02011102521ADDAY111031AY211031GF108991051001999999071011MD1710121+9999MW1101REMSYN070    AAXX  18031 29726 41996 80000 11187 21201 40252 57012 71011 85071;
0152297260999992000012012004+54370+081950FM-12+013599999V0209999C000012200019N0200001N1-02001-02201103421ADDAA112000791GF102991021001999999071001KA1999M-01351MD1310091+9999REMSYN076AAXX  20121 29726 12998 20000 11200 21220 40342 53009 69902 82070 333 11135;
0112297260999992000012209004+54370+081950FM-12+013599999V0200801N003012200019N0200001N1-01371-01631103461ADDGF103991001001999999001011MD1710021+9999REMSYN060AAXX  22091 29726 42998 30803 11137 21163 40346 57002 80001;
0122297260999992000012821004+54370+081950FM-12+013599999V0209999C000012200019N0200001N1-02361-02551103501ADDGA1001+999999999GF100991001001999999001001MD1710081+9999REMSYN054AAXX  28211 29726 42998 00000 11236 21255 40350 57008;
0140297260999992000020121004+54370+081950FM-12+013599999V0209999C000019999999N0040001N1-02041-02271103351ADDAY171031AY211031GF108991081001999999021999MD1710111+9999MW1711REMSYN066AAXX  01211 29726 41996 80000 11204 21227 40335 57011 77171 8802/;
0166297260999992000020621004+54370+081950FM-12+013599999V0202901N003010063019N0200001N1-00361-00681102391ADDAY131031AY221031GA1081+006309099GF108991081031008001999999MD1210291+9999MW1021REMSYN076AAXX  06211 29726 41598 82903 11036 21068 40239 52029 70232 883// 333 88921;
0122297260999992000020715004+54370+081950FM-12+013599999V0209999C000012200019N0200001N1-01441-01551102821ADDGA1001+999999999GF100991001001999999001001MD1710071+9999REMSYN054AAXX  07151 29726 42998 00000 11144 21155 40282 57007;
0166297260999992000021321004+54370+081950FM-12+013599999V0202101N00301007501CN0200001N1-00311-00351102091ADDAY171031AY221031GA1041+006309099GF108991081031008001999999MD1410001+9999MW1021REMSYN076AAXX  13211 29726 41598 82103 11031 21035 40209 54000 70272 883// 333 84921;
0140297260999992000022115004+54370+081950FM-12+013599999V0202301N003019999999N0040001N1-01461-01671103771ADDAY171031AY221031GF108991081001999999021999MD1810111+9999MW1711REMSYN066AAXX  21151 29726 41996 82303 11146 21167 40377 58011 77172 8802/;
0122297260999992000030221004+54370+081950FM-12+013599999V0209999C000012200019N0200001N1-02631-02771103521ADDGA1001+999999999GF100991001001999999001001MD1710111+9999REMSYN054AAXX  02211 29726 42998 00000 11263 21277 40352 57011;
0122297260999992000030609004+54370+081950FM-12+013599999V0200401N004012200019N0200001N1-00211-00931103071ADDGA1001+999999999GF100991001001999999001001MD1710221+9999REMSYN054AAXX  06091 29726 42998 00404 11021 21093 40307 57022;
0225297260999992000030900004+54370+081950FM-12+013599999V0209999C000012200019N0200001N1-01281-01361102681ADDAA199000091AJ100339199999999GA1001+999999999GF100991001001999999001001IA1289KA1120N-01301MA1999999100891MD1210031+9999REMSYN076AAXX  09001 29726 32998 00000 11128 21136 30089 40268 52003 333 21130 44033;EQDQ01  00002PRCP99
0140297260999992000032106004+54370+081950FM-12+013599999V0202101N005019999999N0040001N1-01091-01261102781ADDAY171061AY231061GF108991081001999999021999MD1710241+9999MW1711REMSYN066AAXX  21061 29726 41996 82105 11109 21126 40278 57024 77173 8802/;
0187297260999992000032512004+54370+081950FM-12+013599999V0202701N002010078019N0200001N1+00181-00071102191ADDAA199000091GA1081+007809099GF108991081031008001999999KA1120M+00231MD1210171+9999REMSYN076AAXX  25121 29726 32598 82702 10018 21007 40219 52017 883// 333 10023 88926;EQDQ01  00002PRCP99
0112297260999992000032909004+54370+081950FM-12+013599999V0202601N005012200019N0200001N1+00021-00871102821ADDGF103991031031008001001001MD1210021+9999REMSYN060AAXX  29091 29726 42598 32605 10002 21087 40282 52002 83300;
0180297260999992000033012004+54370+081950FM-12+013599999V0202501N004012200019N0200001N1-00161-00811101911ADDAA112002091AY181061AY211061GF102991021001999999081001KA1999M+00031MD1210111+9999MW1011REMSYN082AAXX  30121 29726 11998 22504 11016 21081 40191 52011 60022 70181 82080 333 10003;
0112297260999992000041803004+54370+081950FM-12+013599999V0202801N001019999999N0200001N1+00961+00471102101ADDGF106991021001999999071091MD1210141+9999REMSYN060AAXX  18031 29726 42998 62801 10096 20047 40210 52014 82079;
0166297260999992000042506004+54370+081950FM-12+013599999V0200801N002010300019N0200001N1+00901+00501101381ADDAY181061AY221061GA1041+007809099GF107991041031008001031001MD1210011+9999MW1021REMSYN076AAXX  25061 29726 41598 70802 10090 20050 40138 52001 70282 84330 333 84926;
0202297260999992000042712004+54370+081950FM-12+013599999V0202101N005010027019N0040001N1+00111+00061102091ADDAA112003091AY181061AY221061GA1061+002709069GF108991081031002501999999KA1120M+00751MD1710061+9999MW1831REMSYN088AAXX  27121 29726 11396 82105 10011 20006 40209 57006 60032 78382 883// 333 10075 86709;
0174297260999992000050312004+54370+081950FM-12+013599999V0209999C00001004201CN0200001N1+01301+01011100781ADDAA112000591GA1031+012309059GF108991061031004501071011KA1120M+01331MD1710331+9999REMSYN082AAXX  03121 29726 12498 80000 10130 20101 40078 57033 69952 86371 333 10133 83641;
0186297260999992000050800004+54370+081950FM-12+013599999V0202501N001010300019N0200001N1+01061+00461101581ADDAA199000091GF108991041031008001071021KA1999N+00761MA1999999099961MD1710091+9999REMSYN076AAXX  08001 29726 32598 82501 10106 20046 39996 40158 57009 84372 333 20076;EQDQ01  00002PRCP99
0186297260999992000052100004+54370+081950FM-12+013599999V0202301N002012200019N0200001N1+01051+00871100791ADDAA199000091GF102991011001999999071011KA1999N+00561MA1999999099181MD1210171+9999REMSYN076AAXX  21001 29726 32998 22302 10105 20087 39918 40079 52017 81071 333 20056;EQDQ01  00002PRCP99
0138297260999992000052118004+54370+081950FM-12+013599999V0200301N002010063019N0200001N1+01481-00111100401ADDGA1061+006309099GF108991081031008001999999MD1710111+9999REMSYN070AAXX  21181 29726 42598 80302 10148 21011 40040 57011 883// 333 86921;
0138297260999992000052903004+54370+081950FM-12+013599999V0202201N004010063019N0200001N1+01621+01161099811ADDGA1081+006309099GF108991081031008001999999MD1710031+9999REMSYN070AAXX  29031 29726 42598 82204 10162 20116 49981 57003 883// 333 88921;
0138297260999992000060118004+54370+081950FM-12+013599999V0200201N004010042019N0200001N1+01041+00881100601ADDGA1081+004209099GF108991081031004501999999MD1210041+9999REMSYN070AAXX  01181 29726 42498 80204 10104 20088 40060 52004 883// 333 88914;
0112297260999992000060309004+54370+081950FM-12+013599999V0202501N003012200019N0200001N1+01691+00071100931ADDGF103991021031008001001011MD1210081+9999REMSYN060AAXX  03091 29726 42598 32503 10169 20007 40093 52008 82301;
0140297260999992000060706004+54370+081950FM-12+013599999V0202301N005010300019N0200001N1+02181+01401099681ADDAY181061AY211061GF107991031031008001031011MD1710031+9999MW1021REMSYN066AAXX  07061 29726 41598 72305 10218 20140 49968 57003 70281 83331;
0112297260999992000061106004+54370+081950FM-12+013599999V0200801N003010300019N0200001N1+01931+01061101821ADDGF106991021031008001031011MD1210011+9999REMSYN060AAXX  11061 29726 42598 60803 10193 20106 40182 52001 82331;
0165297260999992000061412004+54360+081940FM-12+013599999V0200601N003010300019N0200001N1+02581+01191101141ADDAA199000091GF107991021031008001051021KA1999M+02821MD1410001+9999REMSYN070AAXX  14121 29726 32598 70603 10258 20119 40114 54000 82352 333 10282;EQDQ01  00002PRCP99
0112297260999992000062503004+54360+081940FM-12+013599999V0200601N004012200019N0200001N1+01761+01281101501ADDGF106991021031008001001041MD1210121+9999REMSYN060AAXX  25031 29726 42598 60604 10176 20128 40150 52012 82304;
0138297260999992000071609004+54360+081940FM-12+013599999V0200101N002010069019N0200001N1+01701+00961101161ADDGA1061+006909099GF108991061031008001071999MD1710011+9999REMSYN070AAXX  16091 29726 42598 80102 10170 20096 40116 57001 8637/ 333 86923;
0112297260999992000072015004+54360+081940FM-12+013599999V0203201N001012200019N0200001N1+01791+01151101641ADDGF102991021041017501001001MD1210131+9999REMSYN060AAXX  20151 29726 42798 23201 10179 20115 40164 52013 82400;
0122297260999992000080718004+54360+081940FM-12+013599999V0200601N001012200019N0200001N1+02151+01611100531ADDGA1001+999999999GF100991001001999999001001MD1310011+9999REMSYN054AAXX  07181 29726 42998 00601 10215 20161 40053 53001;
0138297260999992000082006004+54360+081940FM-12+013599999V0202201N004010129019N0200001N1+02191+00441100991ADDGA1061+012909059GF106991061051012501001001MD1810021+9999REMSYN070AAXX  20061 29726 42698 62204 10219 20044 40099 58002 86500 333 86643;
0112297260999992000082203004+54360+081940FM-12+013599999V0202001N004012200019N0200001N1+01631+01251100441ADDGF108991021051012501001011MD1210201+9999REMSYN060AAXX  22031 29726 42698 82004 10163 20125 40044 52020 82501;
0140297260999992000082409004+54360+081940FM-12+013599999V0202101N002012200019N0200001N1+01841+01061101201ADDAY181031AY221031GF106991031031008001001011MD1410001+9999MW1021REMSYN066AAXX  24091 29726 41598 62102 10184 20106 40120 54000 70282 83301;
0122297260999992000083118004+54360+081940FM-12+013599999V0203301N002012200019N0200001N1+00861+00691101621ADDGA1001+999999999GF100991001001999999001001MD1210161+9999REMSYN054AAXX  31181 29726 42998 03302 10086 20069 40162 52016;
0202297260999992000091812004+54360+081940FM-12+013599999V0201301N003010063019N0200001N1+01421+00531100541ADDAA112000791AY181061AY221061GA1081+006309099GF108991081031008001999999KA1120M+01521MD1710411+9999MW1021REMSYN088AAXX  18121 29726 11598 81303 10142 20053 40054 57041 69902 70282 883// 333 10152 88921;
0138297260999992000100603004+54360+081940FM-12+013599999V0200301N002010063019N0200001N1-00101-00361102981ADDGA1081+006309099GF108991081031008001999999MD1210011+9999REMSYN070AAXX  06031 29726 42598 80302 11010 21036 40298 52001 883// 333 88921;
0122297260999992000110709004+54360+081940FM-12+013599999V0200301N004012200019N0200001N1-01601-02021104561ADDGA1001+999999999GF100991001001999999001001MD1210051+9999REMSYN054AAXX  07091 29726 42998 00304 11160 21202 40456 52005;
0140297260999992000112203004+54360+081940FM-12+013599999V0200401N001010750019N0040001N1-01781-01961102341ADDAY171031AY221031GF108991041051008001001091MD1310031+9999MW1711REMSYN066AAXX  22031 29726 41596 80401 11178 21196 40234 53003 77172 84509;
0138297260999992000120206004+54360+081940FM-12+013599999V0201601N003010117019N0200001N1-00661-01371100921ADDGA1081+011709059GF108991081051012501999999MD1710381+9999REMSYN070AAXX  02061 29726 42698 81603 11066 21137 40092 57038 885// 333 88639;
0140297260999992000120503004+54360+081940FM-12+013599999V0202301N005012200019N0200001N1-03051-03421102781ADDAY131031AY201031GF102991021001999999071001MD1210331+9999MW1361REMSYN066AAXX  05031 29726 41998 22305 11305 21342 40278 52033 73630 82070;
0150297260999992000123106004+54360+081940FM-12+013599999V0209999C000012200019N0005001N1-03461-03741104051ADDAY141061AY201061GA1001+999999999GF100991001001999999001001MD1710091+9999MW1481REMSYN060AAXX  31061 29726 41993 00000 11346 21374 40405 57009 74840;
0112297360999992000010806004+54330+084220FM-12+019899999V0209999C000019999999N0200001N1-03001-03291102471ADDGF108991001001999999001071MD1710321+9999REMSYN060AAXX  08061 29736 42998 80000 11300 21329 40247 57032 80007;
0140297360999992000010918004+54330+084220FM-12+019899999V0202001N002019999999N0100001N1-02271-02591103731ADDAY171061AY221061GF108991081001999999021001MD1210061+9999MW1711REMSYN066AAXX  09181 29736 41997 82002 11227 21259 40373 52006 77172 88020;
0140297360999992000011306004+54330+084220FM-12+019899999V0202101N002019999999N0200001N1-01221-01461101931ADDAY171061AY221061GF108991081001999999021001MD1310161+9999MW1711REMSYN066AAXX  13061 29736 41998 82102 11122 21146 40193 53016 77172 88020;
0122297360999992000012318004+54330+084220FM-12+019899999V0209999C000012200019N0200001N1-01681-01971102951ADDGA1001+999999999GF100991001001999999001001MD1710181+9999REMSYN054AAXX  23181 29736 42998 00000 11168 21197 40295 57018;
0112297360999992000022409004+54330+084220FM-12+019899999V0201601N003019999999N0200001N1-00801-01431103851ADDGF108991001001999999001011MD1710061+9999REMSYN060AAXX  24091 29736 42998 81603 11080 21143 40385 57006 80001;
0112297360999992000022709004+54330+084220FM-12+019899999V0201201N001019999999N0200001N1-00191-00641101551ADDGF108991081001999999071999MD1810141+9999REMSYN060AAXX  27091 29736 42998 81201 11019 21064 40155 58014 8807/;
0122297360999992000030421004+54330+084220FM-12+019899999V0202501N001012200019N0200001N1-01941-02101103451ADDGA1001+999999999GF100991001001999999001001MD1810031+9999REMSYN054AAXX  04211 29736 42998 02501 11194 21210 40345 58003;
0122297360999992000031415004+54330+084220FM-12+019899999V0209999C000012200019N0200001N1-00501-00821102261ADDGA1001+999999999GF100991001001999999001001MD1410001+9999REMSYN054AAXX  14151 29736 42998 00000 11050 21082 40226 54000;
0201297360999992000032112004+54330+084220FM-12+019899999V0201901N005010042019N0040001N1-00851-01131102711ADDAA112000591AY181061AY271061GF108991081031004501999999KA1999M-00851MA1999999100111MD1710141+9999MW1851REMSYN088AAXX  21121 29736 11496 81905 11085 21113 30011 40271 57014 69952 78587 883// 333 11085;
0186297360999992000032712004+54330+084220FM-12+019899999V0201901N004010075019N0200001N1+00311-00301101421ADDAA199000091GF108991081041008001999999KA1999M+00341MA1999999098981MD1710091+9999REMSYN076AAXX  27121 29736 32598 81904 10031 21030 39898 40142 57009 884// 333 10034;EQDQ01  00002PRCP99
0112297360999992000051203004+54330+084220FM-12+019899999V0202301N006010075019N0200001N1+01161+00571100111ADDGF107991071041008001001001MD1710071+9999REMSYN060AAXX  12031 29736 42598 72306 10116 20057 40011 57007 87400;
0196297360999992000051900004+54330+084220FM-12+019899999V0209999C000012200019N0200001N1+01011+00831100631ADDAA199000091GA1001+999999999GF100991001001999999001001KA1999N+00841MA1999999098251MD1210221+9999REMSYN070AAXX  19001 29736 32998 00000 10101 20083 39825 40063 52022 333 20084;EQDQ01  00002PRCP99
0112297360999992000052006004+54330+084220FM-12+019899999V0203101N001010075019N0200001N1+01481+00511100821ADDGF108991081051008001999999MD1710081+9999REMSYN060AAXX  20061 29736 42598 83101 10148 20051 40082 57008 885//;
0112297360999992000061106004+54330+084220FM-12+019899999V0201801N002010075019N0200001N1+02101+01041101721ADDGF105991051011008001001001MD1810021+9999REMSYN060AAXX  11061 29736 42598 51802 10210 20104 40172 58002 85100;
0140297360999992000062418004+54320+084220FM-12+019899999V0203401N003010300019N0200001N1+01691+01671100851ADDAY191061AY281061GF106991021041008001051001MD1810101+9999MW1021REMSYN066AAXX  24181 29736 41598 63403 10169 20167 40085 58010 70298 82450;
0186297360999992000072812004+54320+084220FM-12+019899999V0202201N001012200019N0200001N1+02611+01281101461ADDAA199000091GF101991001001999999001011KA1999M+02661MA1999999099191MD1710081+9999REMSYN076AAXX  28121 29736 32998 12201 10261 20128 39919 40146 57008 80001 333 10266;EQDQ01  00002PRCP99
0112297360999992000081309004+54320+084220FM-12+019899999V0201801N001012200019N0200001N1+02431+01251101411ADDGF104991041011008001001001MD1710081+9999REMSYN060AAXX  13091 29736 42598 41801 10243 20125 40141 57008 84100;
0173297360999992000082200004+54320+084220FM-12+019899999V0202001N006010075019N0200001N1+01391+01191100371ADDAA112007191GF108991071051008001001011KA1999N+01381MA1999999098031MD1310211+9999REMSYN082AAXX  22001 29736 12598 82006 10139 20119 39803 40037 53021 60072 87501 333 20138;
0112297360999992000082403004+54320+084220FM-12+019899999V0201701N001010075019N0200001N1+01321+01171101241ADDGF108991061051008001001011MD1210041+9999REMSYN060AAXX  24031 29736 42598 81701 10132 20117 40124 52004 86501;
0122297360999992000082721004+54320+084220FM-12+019899999V0203201N001012200019N0100001N1+00981+00791101361ADDGA1001+999999999GF100991001001999999001001MD1810041+9999REMSYN054AAXX  27211 29736 42997 03201 10098 20079 40136 58004;
0122297360999992000090218004+54320+084220FM-12+019899999V0209999C000012200019N0200001N1+00601+00551102791ADDGA1001+999999999GF100991001001999999001001MD1210071+9999REMSYN054AAXX  02181 29736 42998 00000 10060 20055 40279 52007;
0112297360999992000092518004+54320+084220FM-12+019899999V0201001N002010042019N0200001N1+00401+00381100671ADDGF108991081051004501999999MD1210071+9999REMSYN060AAXX  25181 29736 42498 81002 10040 20038 40067 52007 885//;
0112297360999992000100218004+54320+084220FM-12+019899999V0202401N002010075019N0200001N1+00191+00001102451ADDGF108991081051008001999999MD1210101+9999REMSYN060AAXX  02181 29736 42598 82402 10019 21000 40245 52010 885//;
0112297360999992000101518004+54320+084220FM-12+019899999V0200101N001019999999N0200001N1+00121+00011102391ADDGF108991081001999999051001MD1810061+9999REMSYN060AAXX  15181 29736 42998 80101 10012 20001 40239 58006 88050;
0122297360999992000110521004+54320+084220FM-12+019899999V0209999C000012200019N0200001N1-03001-03221104431ADDGA1001+999999999GF100991001001999999001001MD1710211+9999REMSYN054AAXX  05211 29736 42998 00000 11300 21322 40443 57021;
0201297360999992000111512004+54320+084220FM-12+019899999V0209999C000010075019N0100001N1-00851-01041103801ADDAA112000791AY181061AY221061GF108991081031008001999999KA1999M-00811MA1999999101171MD1310031+9999MW1851REMSYN088AAXX  15121 29736 11597 80000 11085 21104 30117 40380 53003 69902 78582 883// 333 11081;
0112297360999992000111603004+54320+084220FM-12+019899999V0209999C000012200019N0200001N1-01731-01831103391ADDGF103991001001999999001011MD1710061+9999REMSYN060AAXX  16031 29736 42998 30000 11173 21183 40339 57006 80001;
0230297360999992000112100004+54320+084220FM-12+019899999V0202201N004010075019N0200001N1-01481-01721102571ADDAA112000891AJ100289199999999AY181061AY231061GF108991081051008001999999IA1239KA1120N-01481MA1999999099911MD1210251+9999MW1361REMSYN094AAXX  21001 29736 11598 82204 11148 21172 39991 40257 52025 69982 73683 885// 333 21148 47028;
0140297360999992000112706004+54320+084220FM-12+019899999V0202301N002010042019N0010001N1-00971-01231102661ADDAY181061AY221061GF108991081031004501999999MD1310041+9999MW1861REMSYN066AAXX  27061 29736 41494 82302 11097 21123 40266 53004 78682 883//;
0180297560999992000010212004+54500+089930FM-12+046899999V0202901N001010210019N0180001N1-02701-03011102351ADDAA112002091AY171061AY221061GF108991081001022501021999KA1999M-02701MD1710051+9999MW1711REMSYN082AAXX  02121 29756 11868 82901 11270 21301 40235 57005 60022 77172 8802/ 333 11270;
0112297560999992000010715004+54500+089930FM-12+046899999V0201901N001010210019N0500001N1-02581-02881102701ADDGF108991071001022501071999MD1810011+9999REMSYN060AAXX  07151 29756 42884 81901 11258 21288 40270 58001 8707/;
0116297560999992000011603004+54500+089930FM-12+046899999V0202201N005010210019N0500001N1-00811-01761101811ADDGF107991051001022501031021MD1310061+9999REMSYN064    AAXX  16031 29756 42899 72205 11081 21176 40181 53006 85032;
0122297560999992000031015004+54500+089930FM-12+046899999V0201101N002012200019N0500001N1-00531-00941103021ADDGA1001+999999999GF100991001001999999001001MD1210121+9999REMSYN054AAXX  10151 29756 42984 01102 11053 21094 40302 52012;
0122297560999992000031706004+54500+089930FM-12+046899999V0200901N005012200019N0500001N1-00331-00881102241ADDGA1001+999999999GF100991001001999999001001MD1710191+9999REMSYN054AAXX  17061 29756 42999 00905 11033 21088 40224 57019;
0165297560999992000032412004+54500+089930FM-12+046899999V0202401N007019999999N0500001N1+01121-01441101761ADDAA199000091GF107991071001999999031001KA1999M+01401MD1710101+9999REMSYN070AAXX  24121 29756 32999 72407 10112 21144 40176 57010 87030 333 10140;EQDQ01  00002PRCP99
0165297560999992000040612004+54500+089930FM-12+046899999V0200501N003010210019N0500001N1+00611-01111101321ADDAA199000091GF107991061001022501031021KA1999M+00941MD1710171+9999REMSYN070AAXX  06121 29756 32899 70503 10061 21111 40132 57017 86032 333 10094;EQDQ01  00002PRCP99
0112297560999992000041409004+54500+089930FM-12+046899999V0201201N002010210019N0500001N1+01841-01031101491ADDGF107991051001022501031021MD1310011+9999REMSYN060AAXX  14091 29756 42899 71202 10184 21103 40149 53001 85032;
0140297560999992000050721004+54500+089930FM-12+046899999V0200901N002010075019N0500001N1+00501+00171102211ADDAY181031AY221031GF107991071091008001001001MD1810011+9999MW1021REMSYN066AAXX  07211 29756 41584 70902 10050 20017 40221 58001 70282 87900;
0112297560999992000051418004+54500+089930FM-12+046899999V0209999C000010120019N0500001N1+00401+00031102521ADDGF107991071051012501001001MD1210021+9999REMSYN060AAXX  14181 29756 42684 70000 10040 20003 40252 52002 87500;
0122297560999992000052621004+54500+089930FM-12+046899999V0201001N002012200019N0500001N1+00821+00581101431ADDGA1001+999999999GF100991001001999999001001MD1810021+9999REMSYN054AAXX  26211 29756 42984 01002 10082 20058 40143 58002;
0171297560999992000073000004+54500+089930FM-12+046899999V0203501N002010210019N0500001N1+01491+01311101561ADDAA199000091GF107991061001022501031021KA1120N+01351MD1710021+9999REMSYN076AAXX  30001 29756 32899 73502 10149 20131 40156 57002 86032 333 20135 55060;EQDQ01  00002PRCP99
0112297560999992000080906004+54500+089930FM-12+046899999V0203301N005010075019N0500001N1+02781+01441100501ADDGF107991051091008001001021MD1210101+9999REMSYN060AAXX  09061 29756 42599 73305 10278 20144 40050 52010 85902;
0112297560999992000082018004+54500+089930FM-12+046899999V0201101N001019999999N0500001N1+01101+00851101371ADDGF105991001001999999001021MD1810051+9999REMSYN060AAXX  20181 29756 42984 51101 10110 20085 40137 58005 80002;
0112297560999992000092718004+54500+089930FM-12+046899999V0200901N001012200019N0500001N1+00151-00171103071ADDGF102991001001999999001021MD1210011+9999REMSYN060AAXX  27181 29756 42984 20901 10015 21017 40307 52001 80002;
0112297560999992000100318004+54500+089930FM-12+046899999V0203501N001019999999N0500001N1-00191-00541102991ADDGF105991001001999999001021MD1810011+9999REMSYN060AAXX  03181 29756 42984 53501 11019 21054 40299 58001 80002;
0152297560999992000100412004+54500+089930FM-12+046899999V0209999C000010750019N0500001N1-00211-00641102711ADDAA112000791GF106991041001022501031021KA1999M+00341MD1710041+9999REMSYN076AAXX  04121 29756 12899 60000 11021 21064 40271 57004 69902 84032 333 10034;
0131297560999992000101018004+54500+089930FM-12+046899999V0201701N001010210019N0500001N1-00301-00841104401ADDGF107991999001022501031001MD1810031+9999REMSYN060AAXX  10181 29756 42884 71701 11030 21084 40440 58003 86030;EQDQ01+000062SCOTLC
0171297560999992000101600004+54500+089930FM-12+046899999V0201301N003010210019N0500001N1+00001-00241102721ADDAA199000091GF107991071001022501071999KA1120N-00101MD1210041+9999REMSYN076AAXX  16001 29756 32884 71303 10000 21024 40272 52004 8707/ 333 21010 55031;EQDQ01  00002PRCP99
0122297560999992000102503004+54500+089930FM-12+046899999V0201301N001012200019N0500001N1-00721-01361102761ADDGA1001+999999999GF100991001001999999001001MD1710101+9999REMSYN054AAXX  25031 29756 42999 01301 11072 21136 40276 57010;
0175297560999992000102512004+54500+089930FM-12+046899999V0200901N006012200019N0500001N1-00381-01051102441ADDAA199000091GA1001+999999999GF100991001001999999001001KA1999M+00031MD1710021+9999REMSYN064AAXX  25121 29756 32984 00906 11038 21105 40244 57002 333 10003;EQDQ01  00002PRCP99
