0283975300999992000022600004-00880+134050FM-12+0003WASR V0201501N002112200019N0270001N1+02841+02391100831ADDAA124002091AY141061AY241061GA1021+004509089GA2031+036009039GF104991021021004501041021GJ102049KA1240N+02241MA1999999100801MD1210071+9999MW1051REMSYN130AAXX  26004 97530 11477 41504 10284 20239 30080 40083 52007 60024 70544 82242 333 20224 55034 56000 57802 79999 82815 83362 80840;
0244975300999992000030709004-00880+134050FM-12+0003WASR V0209999C000010270019N0150001N1+02881+02451100821ADDAA124000791AY141031AY221031GA1031+004509089GA2051+027009039GF107991041081004501071061MA1999999100791MD1310021+9999MW1051REMSYN112AAXX  07094 97530 32465 70000 10288 20245 30079 40082 53002 70542 84876 333 56000 57802 79999 83815 85359 80858;
0257975300999992000031918004-00880+134050FM-12+0003WASR V0209999C000010300019N0100001N1+02481+02421100761ADDAA199000091AY141061AY241061GA1021+004209099GA2051+030009039GF108991031091004501071031MA1999999100731MD1710111+9999MW1051REMSYN106AAXX  19184 97530 31460 80000 10248 20242 30073 40076 57011 70544 83973 333 56000 57903 82914 85360 80950;EQDQ01  00002PRCP99
0305975300999992000050300004-00880+134050FM-12+0003WASR V0209999C00001030001CN0180001N1+02701+02471100881ADDAA124016091AY141061AY241061GA1021+004209089GA2041+005109069GA3061+030009049GF108991041081004501071061GJ100309KA1240N+02401MA1999999100851MD1210141+9999MW1051REMSYN136AAXX  03004 97530 11468 80000 10270 20247 30085 40088 52014 60164 70544 84876 333 20240 55005 56000 57804 79999 82814 84617 86460 80840;
0290975300999992000051000004-00880+134050FM-12+0003WASR V0201501N004112200019N0250001N1+03061+02461100771ADDAA199000091AY141061AY241061GA1011+004809089GA2031+030009039GF103991011011004501031011GJ104089KA1240N+02441MA1999999100741MD1210101+9999MW1051REMSYN118AAXX  10004 97530 31475 31508 10306 20246 30074 40077 52010 70544 81131 333 20244 55068 56300 57803 81816 83360 80830;EQDQ01  00002PRCP99
0282975300999992000051812004-00880+134050FM-12+0003WASR V0209999C00001030001CN0120001N1+02561+02351101031ADDAA199000091AY141061AY241061GA1021+004509099GA2041+030009039GF105991031091004501031021KA1240M+03241MA1999999101001MD1210211+0041MW1051REMSYN118AAXX  18124 97530 31462 50000 10256 20235 30100 40103 52021 70544 83932 333 10324 56000 57903 58004 82915 84360 80959;EQDQ01  00002PRCP99
0235975300999992000052318004-00880+134050FM-12+0003WASR V0209999C000012200019N0130001N1+02581+02311100761ADDAA199000091AY141061AY241061GA1011+004809089GF101991011011004501041011MA1999999100731MD1710081+9999MW1051REMSYN100AAXX  23184 97530 31463 10000 10258 20231 30073 40076 57008 70544 81141 333 56000 57808 81816 80830;EQDQ01  00002PRCP99
0279975300999992000071921004-00880+134040FM-12+0003WASR V0209999C000010300019N0150001N1+02421+02331100851ADDAA199000091AY141031AY221031GA1011+004509099GA2031+005109069GA3051+030009039GF107991041091004501051061MA1999999100821MD1210111+9999MW1051REMSYN112AAXX  19214 97530 31465 70000 10242 20233 30082 40085 52011 70542 84956 333 56000 57902 81915 83617 85360 80959;EQDQ01  00002PRCP99
0222975300999992000110303004-00880+134040FM-12+0003WASR V0200901N003112200019N0100001N1+03201+02581100921ADDAA124000791AY141031AY241031GA1031+004509089GF104991031081004501041021MA1999999100891MD1810091+9999MW1151REMSYN106AAXX  03034 97530 31460 40906 10320 20258 30089 40092 58009 71544 83842 333 56000 57802 79999 83815 80860;
0251975600999992000010209004-01180+136120FM-12+0011WABB V0200501N003110300019N0120001N1+02901+02401100581ADDAA106000091GA1021+005409089GA2041+030009039GA3051+090009029GF107991021081004501041081MA1999999100431MD1510041+9999REMSYN106AAXX  02094 97560 32462 70506 10290 20240 30043 40058 55004 82848 333 56000 57825 82818 84360 85280 80860;EQDQ01  00002PRCP06
0251975600999992000010506004-01180+136120FM-12+0011WABB V0201701N004110870019N0150001N1+03061+02471100541ADDAA106000091GA1011+005109099GA2031+005409089GA3051+087009029GF107991041091004501041091MA1999999100391MD1310291+9999REMSYN106AAXX  05064 97560 32465 71708 10306 20247 30039 40054 53029 84949 333 56000 57901 81917 83818 85279 80980;EQDQ01  00002PRCP06
0266975600999992000012721004-01180+136120FM-12+0011WABB V0209999C000010300019N0100001N1+02441+02381100851ADDAA103010091AY161031AY221031GA1011+005109099GA2041+006009069GA3081+030009049GF108991041091004501021999MA1999999100701MD1810091+9999MW1601REMSYN118AAXX  27214 97560 21460 80000 10244 20238 30070 40085 58009 76062 8492/ 333 56009 57903 60107 81917 84620 88460 80980;
0179975600999992000020209004-01180+136120FM-12+0011WABB V0209999C000010300019N0120001N1+02641+02431100891ADDGA1021+005409089GA2051+030009029GF107991031081004501071081MA1999999100751REMSYN094AAXX  02094 97560 42462 70000 10264 20243 30075 40089 83878 333 56000 57805 82818 85260 80858;
0227975600999992000022703004-01180+136120FM-12+0011WABB V0201501N004110300019N0140001N1+02981+02461100771ADDAY161031AY221031GA1031+005409089GA2051+030009039GF107991031081004501031061MA1999999100631MD1010191+9999MW1021REMSYN106AAXX  27034 97560 21464 71508 10298 20246 30063 40077 50019 70262 83836 333 56000 57804 83818 85360 80860;
0257975600999992000030712004-01180+136120FM-12+0011WABB V0209999C00001030001CN0100001N1+02631+02421101051ADDAA199000021GA1021+005409089GA2041+030009039GA3061+090009029GF107991031081004501041061KA1240M+03121MA1999999100911MD1810131-0051REMSYN118AAXX  07124 97560 32460 70000 10263 20242 30091 40105 58013 83846 333 10312 56000 57804 59005 82818 84360 86280 80850;
0285975600999992000031621004-01180+136120FM-12+0011WABB V0202701N002610300019N0100001N1+02421+02311100671ADDAA103004091AY161031AY221031GA1011+005109099GA2031+006009069GA3051+030009049GF108991041091004501071061MA1999999100531MD1410001+9999MW1021REMSYN118AAXX  16214 97560 21460 82705 10242 20231 30053 40067 58000 70262 84976 333 56000 57903 60047 81917 83620 85460 87280;EQDQ01+000082APCTEN
0188975600999992000041209004-01180+136120FM-12+0011WABB V0209999C000010450019N0120001N1+02921+02461100591ADDAA199000021GA1021+005409089GF105991031081004501041061MA1999999100441MD1010071+9999REMSYN094AAXX  12094 97560 32462 50000 10292 20246 30044 40059 50007 83846 333 56000 57804 82818 80850;
0277975600999992000041900004-01180+136120FM-12+0011WABB V0201801N004110450019N0140001N1+02921+02491101091ADDAA124001091AY161061AY221061GA1021+005109099GA2041+005409069GF107991041091004501071061GJ102649KA1240N+02361MA1999999100941MD1010141+9999MW1021REMSYN124AAXX  19004 97560 21464 71808 10292 20249 30094 40109 50014 60014 70262 84976 333 20236 50004 55044 56000 82917 84618 80957;
0308975600999992000050312004-01180+136120FM-12+0011WABB V0202701N00311005401CN0120001N1+02581+02401100931ADDAA103000191AA206000191AY161061AY221061GA1031+005109099GA2041+005409069GA3061+033009049GF108991061091004501071999KA1240M+03001MA1999999100791MD1210231+0001MW1151REMSYN136AAXX  03124 97560 /1462 82706 10258 20240 30079 40093 52023 69911 71562 8697/ 333 10300 56609 57901 58000 69917 83917 84618 86461 80980;
0229975600999992000070203004-01180+136120FM-12+0011WABB V0200801N005110450019N0140001N1+02861+02521100841ADDAA199000091GA1011+005109099GA2041+005409069GF107991041091004501071081MA1999999100691MD1110061+9999REMSYN100AAXX  02034 97560 32464 70810 10286 20252 30069 40084 51006 84978 333 56000 57904 81917 84618 80950;EQDQ01  00002PRCP99
0266975600999992000070321004-01180+136120FM-12+0011WABB V0202601N007710300019N0120001N1+02361+02311100701ADDAA103020091AY161031AY261031GA1011+005109099GA2031+006009069GA3061+030009049GF108991041091004501071061MA1999999100651MD1010001+9999MW1211REMSYN118AAXX  03214 97560 21462 82615 10236 20231 30065 40070 50000 72166 84976 333 56000 57903 60207 81917 83620 86460 80970;
0254975600999992000112400004-01180+136120FM-12+0011WABB V0203501N00311090001CN0170001N1+03001+02421100791ADDAA199000091GA1011+005409089GA2071+090009009GF107991021081004501041061KA1240N+02471MA1999999100641MD1110181+9999REMSYN112AAXX  24004 97560 32467 73506 10300 20242 30064 40079 51018 82846 333 20247 50/// 55/// 56000 81818 87080 80857;EQDQ01  00002PRCP99
0327975600999992000121500004-01180+136120FM-12+0011WABB V0203001N00261030001CN0140001N1+02781+02521100921ADDAA103999999AA224000791AY181061AY261061GA1021+005409089GA2041+030009039GA3081+087009029GF108991021081004501071071KA1240N+02471MA1999999100771MD1810071+9999MW1031REMSYN136AAXX  15004 97560 /1464 83005 10278 20252 30077 40092 58007 69904 70386 82877 333 20247 50230 55/// 56000 69907 82818 84360 88279 80850;EQDQ01  99992PRCP03
0214975700999992000011903004-01870+136230FM-12+000399999V0201801N00311039001BN0100001N1+03091+02621100701ADDAA199000021GA1021+004209089GA2051+039009049GF107991021021004501031021MA1999999100641MD1610101+9999REMSYN104    AAXX  19034 97570 32460 71806 10309 20262 30064 40070 56010 82232 333 56600 57802 82814 85463 80860;
0215975700999992000020606004-01870+136230FM-12+0003WABO V0202501N00311045001CN0120001N1+03141+02251100361ADDAA199000091AY121061AY221061GA1021+004509089GF107991021011004501031021MA1999999100291MW1051REMSYN094AAXX  06064 97570 31462 72506 10314 20225 30029 40036 5//// 70522 82132 333 56600 82815 86080;EQDQ01  00002PRCP99
0257975700999992000020806004-01870+136230FM-12+0003WABO V0202701N005110900019N0100001N1+03021+02411100451ADDAA199000091AY121061AY211061GA1041+004509089GA2061+090009009GF107991041021004501041021MA1999999100381MD1710251+9999MW1051REMSYN106AAXX  08064 97570 31460 72710 10302 20241 30038 40045 57025 70521 84242 333 56600 57802 84815 86080 80867;EQDQ01  00002PRCP99
0195975700999992000021403004-01870+136230FM-12+0003WABO V0201801N003612200019N0150001N1+03201+02461100711ADDAA199000091GA1031+004509029GF104991031021004501001021MA1999999100641MD1710121+9999REMSYN082AAXX  14034 97570 32465 41807 10320 20246 30064 40071 57012 83202 333 56000 83815;EQDQ01  00002PRCP99
0195975800999992000013006004-01830+138720FM-12+0003WAJI V0203101N005112200019N0120001N1+03101+02551100601ADDAA199000091GA1031+004509029GF104991031011004501001021MA1999999100521MD1810491+9999REMSYN082AAXX  30064 97580 32462 43110 10310 20255 30052 40060 58049 83102 333 56600 83815;EQDQ01  00002PRCP99
0229975800999992000032609004-01830+138720FM-12+0003WAJI V0209999C000010450019N0120001N1+02841+02491100841ADDAA199000091GA1021+004209089GA2021+004809099GF107991031091004501061021MA1999999100761MD1310091+9999REMSYN100AAXX  26094 97580 32462 70000 10284 20249 30076 40084 53009 83962 333 56800 57901 82916 82814 80980;EQDQ01  00002PRCP99
0201975800999992000032706004-01830+138720FM-12+0003WAJI V0200901N002110450019N0120001N1+03061+02511100771ADDAA199000091GA1021+004209089GF106991021021004501031081MA1999999100691MD1710111+9999REMSYN088AAXX  27064 97580 32462 60904 10306 20251 30069 40077 57011 82238 333 56000 82814 80860;EQDQ01  00002PRCP99
0260975800999992000040212004-01830+138720FM-12+0003WAJI V0203601N002611050019N0080001N1+02581+02401100951ADDAA199000091AY121061AY221061GA1031+004209089GF106991041091004501001081KA1240M+03041MA1999999100871MD1210201+0181MW1151REMSYN112AAXX  02124 97580 31458 63605 10258 20240 30087 40095 52020 71522 84908 333 10304 56800 57902 58018 83814 80970;EQDQ01  00002PRCP99
0226975800999992000042312004-01830+138720FM-12+0003WAJI V0209999C000011050019N0080001N1+02561+02471101241ADDAA199000091GA1041+004509089GF107991041011004501001071KA1240M+03201MA1999999101161MD1110141+0191REMSYN100AAXX  23124 97580 32458 70000 10256 20247 30116 40124 51014 84107 333 10320 56009 58019 84815 80878;EQDQ01  00002PRCP99
0249975800999992000042900004-01830+138720FM-12+0003WAJI V0202701N00411081001CN0100001N1+02801+02391101091ADDAA124022191GA1041+004209089GA2051+081009009GF106991041021004501031021GJ104629KA1240N+02361MA1999999101011MD1210161+9999REMSYN118AAXX  29004 97580 12460 62708 10280 20239 30101 40109 52016 60224 84232 333 20236 55077 56800 57800 84814 85077 80860;
0207975800999992000062912004-01820+138710FM-12+0003WAJI V0209999C00001105001CN0090001N1+02661+02411100951ADDAA199000021GA1031+004209089GF106991031011004501001081KA1240M+02891MA1999999100471MD1210261+0121REMSYN100AAXX  29124 97580 32459 60000 10266 20241 30047 40095 52026 83108 333 10289 56000 58012 83814 86276;
0201975800999992000071706004-01820+138710FM-12+0003WAJI V0203501N002611050019N0150001N1+03101+02521101001ADDAA199000091GA1021+004209089GF105991021021004501031021MA1999999100921MD1710051+9999REMSYN088AAXX  17064 97580 32465 53505 10310 20252 30092 40100 57005 82232 333 56000 82814 80860;EQDQ01  00002PRCP99
0232975800999992000071712004-01820+138710FM-12+0003WAJI V0209999C00001009001CN0100001N1+02601+02481101251ADDAA199000091GA1021+004509089GF107991051081004501001081KA1240M+03121MA1999999101071MD1110191+0011REMSYN106AAXX  17124 97580 32460 70000 10260 20248 30107 40125 51019 85808 333 10312 56000 58001 82815 80865 85620;EQDQ01  00002PRCP99
0195975800999992000072806004-01820+138710FM-12+0003WAJI V0201101N003612200019N0140001N1+02981+02571100861ADDAA199000091GA1021+004509029GF103991021021004501001021MA1999999100781MD1710401+9999REMSYN082AAXX  28064 97580 32464 31107 10298 20257 30078 40086 57040 82202 333 56000 82815;EQDQ01  00002PRCP99
0235975800999992000081506004-01820+138710FM-12+0003WAJI V0203101N002611050019N0100001N1+02861+02491100761ADDAA199000091GA1021+004209089GA2011+004509099GF108991021091004501001071MA1999999100681MD1710191+9999REMSYN106AAXX  15064 97580 32460 83105 10286 20249 30068 40076 57019 82907 333 56000 57901 81915 80965 82814 80860;EQDQ01  00002PRCP99
0254975800999992000082200004-01820+138710FM-12+0003WAJI V0209999C000010450019N0120001N1+02701+02531101051ADDAA199000091GA1011+004209089GA2031+005709069GF108991031081004501071081KA1240N+02341MA1999999100971MD1310181-0131REMSYN112AAXX  22004 97580 32462 80000 10270 20253 30097 40105 53018 83878 333 20234 55/// 56000 59013 81814 83619 86360;EQDQ01  00002PRCP99
0201975800999992000120103004-01820+138710FM-12+0003WAJI V0209999C000011050019N0100001N1+02901+02561100841ADDAA199000091GA1011+004209099GF108991011091004501001071MA1999999100761MD1710011+9999REMSYN088AAXX  01034 97580 32460 80000 10290 20256 30076 40084 57001 81907 333 56000 81914 80960;EQDQ01  00002PRCP99
0245976000999992000010803004-02080+126000FM-12+0002WAPN V0200901N001510900019N0130001N1+03061+02361100981ADDAA106000091GA1021+005709089GA2061+090009009GF107991021021004501031011MA1999999100921MD1410001+9999REMSYN100AAXX  08034 97600 32463 70903 10306 20236 30092 40098 51000 82231 333 56200 57823 82819 86080 80859;EQDQ01+000012APCTENQ02  00002PRCP06
0280976000999992000011712004-02080+126000FM-12+000299999V0209999C00001027001CN0100001N1+02711+02481100971ADDAA199000091GA1011+005409089GA2051+027009049GA3081+060009029GF108991011021004501071071KA1240M+03241MA1999999100921MD1310221+0061REMSYN122    AAXX  17124 97600 32460 80000 10271 20248 30092 40097 53022 81277 333 10324 56000 57804 58006 81818 85459 88270 80858;EQDQ01  00002PRCP99
0242976000999992000012900004-02080+126000FM-12+0002WAPN V0209999C00001090001CN0120001N1+02771+02481101101ADDAA199000091GA1021+005709089GA2041+090009009GF107991021021004501071011GJ102529KA1240N+02101MA1999999101051REMSYN106AAXX  29004 97600 32462 70000 10277 20248 30105 40110 82271 333 20210 50/// 55042 56600 82819 84080 80859;EQDQ01  00002PRCP99
0210976000999992000022115004-02080+126000FM-12+0002WAPN V0209999C000010300019N0080001N1+02501+02381101141ADDAA199000021GA1011+005409089GA2061+030009049GF107991011021004501071021MA1999999101091MD1310161+9999REMSYN100AAXX  21154 97600 32458 70000 10250 20238 30109 40114 53016 81272 333 56000 57805 81818 86460 80858;
0256976000999992000032706004-02080+126000FM-12+0002WAPN V0201201N00211005401CN0130001N1+03041+02461100901ADDAA106000791AY161061AY221061GA1011+005109099GA2041+005409089GF107991051091004501071011MA1999999100841MD1810191+9999MW1031REMSYN124AAXX  27064 97600 11463 71204 10304 20246 30084 40090 58019 69901 70362 85971 333 56600 57961 57862 81917 84818 80980 80860;
0263976000999992000040103004-02080+126000FM-12+0002WAPN V0202701N001510240019N0060001N1+02521+02421101071ADDAA103009091AY161031AY221031GA1021+005109089GA2061+024009049GF107991021081004501071011MA1999999100102MD1110071+9999MW1601REMSYN112AAXX  01034 97600 21456 72703 10252 20242 30010 40107 51007 76062 82871 333 56000 57801 60097 82817 86458 80857;EQDQ01+100103APOSP 
0223976000999992000070500004-02800+126000FM-12+0002WAPN V0202701N001010051019N0080001N1+02591+02491100981ADDAA124002091GA1051+005109089GA2071+027009049GF107991051021004501071011GJ103249KA1240N+02321MA1999999100931REMSYN106AAXX  05004 97600 12458 72702 10259 20249 30093 40098 60024 85271 333 20232 55054 56200 85817 87459 80857;
0207976000999992000080603004-02080+126000FM-12+0002WAPN V0200901N001511050019N0160001N1+02871+02401101211ADDAA199000091GA1021+005409089GF105991021021004501031011MA1999999101161MD1610031+9999REMSYN094AAXX  06034 97600 32466 50903 10287 20240 30116 40121 56003 82231 333 56000 57803 82818 80857;EQDQ01  00002PRCP99
0260976000999992000083112004-02080+126000FM-12+0002WAPN V0209999C000012200019N0070001N1+02581+02341101241ADDAA199000091AY121061AY211061GA1011+005409089GF102991011021004501001011KA1240M+03121MA1999999101191MD1310101+0071MW1051REMSYN112AAXX  31124 97600 31457 20000 10258 20234 30119 40124 53010 70521 81201 333 10312 56000 57809 58007 81818 80857;EQDQ01  00002PRCP99
0229976000999992000121503004-02080+126000FM-12+0002WAPN V0202701N004110300019N0130001N1+03261+02401101071ADDAA199000091GA1031+005709089GA2051+030009049GF107991031021004501071011MA1999999101021MD1610131+9999REMSYN100AAXX  15034 97600 32463 72708 10326 20240 30102 40107 56013 83271 333 56600 57863 83819 85460 80859;EQDQ01  00002PRCP99
0255976300999992000011821004-02880+132250FM-12+013099999V0209999C00001004501SN0100001N1+02301+02181999999ADDAA199000091AY121031AY221031GA1011+003909099GA2051+004509089GF107991061091004501041031MA1999999099721MD1110081+9999MW1151REMSYN104    AAXX  18214 97630 31460 70000 10230 20218 39972 51008 71522 86943 333 56600 57961 81913 85815 80980;EQDQ01  00002PRCP99
0266976300999992000012209004-02880+132250FM-12+0130WASF V0209999C000010060019N0150001N1+02621+02441999999ADDAA103001091AY121031AY221031GA1011+003909099GA2021+004509089GA3051+006009069GF107991071091004501041031MA1999999099211MD1110061+9999MW1151REMSYN118AAXX  22094 97630 21465 70000 10262 20244 39921 4//// 51006 71522 87943 333 56000 57901 60017 81913 82815 85620 80980;
0257976300999992000020903004-02880+132250FM-12+0130WASF V0201701N003610450019N0200001N1+03001+02421999999ADDAA199000091AY121031AY221031GA1011+004209099GA2031+004509089GF106991041091004501041031MA1999999099571MD1610091+9999MW1151REMSYN106AAXX  09034 97630 31470 61707 10300 20242 39957 4//// 56009 71522 84943 333 56800 57981 81914 83815 80980;EQDQ01  00002PRCP99
0254976300999992000030112004-02880+132250FM-12+0130WASF V0209999C00001087001CN0080001N1+02361+02321999999ADDAA199000091GA1011+005409089GA2041+087009009GF105991011081004501041021KA1240M+03561MA1999999099391MD1110081+0061REMSYN112AAXX  01124 97630 32458 50000 10236 20232 39939 4//// 51008 81842 333 10356 56000 57807 58006 81818 84079 80870;EQDQ01  00002PRCP99
0285976300999992000040100004-02880+132250FM-12+0130WASF V0201501N004610042019N0050001N1+02481+02391999999ADDAA103999999AA224020191GA1021+003909099GA2031+004209089GF108991081091004501999999GJ104989KA1240N+02101MA1999999099461MD1110261+9999REMSYN124AAXX  01004 97630 /1450 81509 10248 20239 39946 4//// 51026 60204 889// 333 20210 50430 55083 56099 69907 82913 83814 80980;EQDQ01  99992PRCP03
0263976300999992000041812004-02880+132250FM-12+0130WASF V0203601N002110075019N0100001N1+02501+02301999999ADDAA199000021AY121061AY221061GA1011+006009099GA2041+045009039GF107991061091008001061031KA1240M+03081MA1999999099461MD1610141+0051MW1131REMSYN118AAXX  18124 97630 31560 73604 10250 20230 39946 4//// 56014 71322 86963 333 10308 56000 57905 58005 81920 84365 80980;
0251976300999992000042521004-02880+132250FM-12+0130WASF V0200101N002610870019N0120001N1+02261+02171999999ADDAA199000091GA1011+003909099GA2021+004509089GA3051+087009009GF107991031091004501041031MA1999999099311MD1610011+9999REMSYN106AAXX  25214 97630 32462 70105 10226 20217 39931 4//// 56001 83943 333 56000 57902 81913 82815 85079 80980;EQDQ01  00002PRCP99
0254976300999992000071012004-02870+132250FM-12+0130WASF V0209999C00001004501CN0070001N1+02521+02311999999ADDAA199000091GA1031+003909099GA2041+004509089GF106991061091004501041031KA1240M+02861MA1999999099601MD1110231+0091REMSYN112AAXX  10124 97630 32457 60000 10252 20231 39960 4//// 51023 86943 333 10286 56400 57941 58009 83913 84815 80980;EQDQ01  00002PRCP99
0305976300999992000090612004-02870+132250FM-12+0130WASF V0203601N001510042019N0070001N1+02301+02211999999ADDAA103999999AA206000791AY191061AY291061GA1021+003909099GA2041+004209089GF105991051091004501041031KA1240M+02941MA1999999099661MD1110261+0171MW1171REMSYN130AAXX  06124 97630 /1457 53603 10230 20221 39966 4//// 51026 69901 71799 85943 333 10294 56000 57901 58017 69907 82913 84814 80980;EQDQ01  99992PRCP03
0235976300999992000090809004-02870+132250FM-12+0130WASF V0202001N001010036019N0050001N1+02701+02411999999ADDAA199000091AY121031AY221031GA1061+003609089GF107991071081004501041021MA1999999099281MD1610011+9999MW1151REMSYN100AAXX  08094 97630 31450 72002 10270 20241 39928 4//// 56001 71522 87842 333 56400 57841 86812 80863;EQDQ01  00002PRCP99
0210976300999992000091115004-02870+132250FM-12+0130WASF V0209999C000010060019N0070001N1+02501+02441999999ADDAA199000021GA1021+004509089GA2031+006009069GF105991051081004501041021MA1999999099431MD1110081+9999REMSYN100AAXX  11154 97630 32457 50000 10250 20244 39943 4//// 51008 85842 333 56000 57801 82815 83620 80865;
0210976300999992000102721004-02870+132250FM-12+0130WASF V0200101N004110045019N0130001N1+02241+02211999999ADDAA199000021AY121031AY221031GA1051+004509089GF107991061081004501071021MA1999999099501MD1210151+9999MW1151REMSYN094AAXX  27214 97630 31463 70108 10224 20221 39950 52015 71522 86872 333 56000 57801 85815 80865;
0233976820999992000013012004-03330+135500FM-12+0003WABI V0201801N002112200019N0090001N1+02661+02411100671ADDAA199000091GA1021+005109089GA2041+090009009GF104991021081004501041021KA1240M+03231MD1210131-0181REMSYN106AAXX  30124 97682 32459 41804 10266 20241 40067 52013 82842 333 10323 56000 57805 59018 82817 84080 80850;EQDQ01  00002PRCP99
0167976820999992000041903004-03330+135500FM-12+0003WABI V0203001N00261045001CN0200001N1+02961+02381100781ADDAA199000021GA1031+005109089GF105991031021004501041011MD1610161+9999REMSYN088AAXX  19034 97682 32470 53005 10296 20238 40078 56016 83241 333 56000 57802 83817 85362;
0186976820999992000042609004-03330+135500FM-12+0003WABI V0209999C00001045001CN0200001N1+03041+02521100581ADDAA199000091GA1031+005109099GF106991041091004501071031MD1310031+9999REMSYN088AAXX  26094 97682 32470 60000 10304 20252 40058 53003 84973 333 56000 57902 83917 85361;EQDQ01  00002PRCP99
0189976820999992000062315004-03330+135500FM-12+0003WABI V0201801N002110330019N0060001N1+02481+02331100891ADDAA199000021GA1031+004809089GA2061+033009039GF107991031081004501071021MD1210101+9999REMSYN094AAXX  23154 97682 32456 71804 10248 20233 40089 52010 83872 333 56000 57802 83816 86361 80860;
0186976820999992000081506004-03330+135500FM-12+0003WABI V0203601N00261045001CN0200001N1+02921+02521100521ADDAA199000091GA1031+005109089GF105991031081004501041021MD1710201+9999REMSYN088AAXX  15064 97682 32470 53605 10292 20252 40052 57020 83842 333 56000 57803 83817 85362;EQDQ01  00002PRCP99
0209976820999992000100521004-03330+135500FM-12+0003WABI V0202701N002110330019N0120001N1+02371+02331100851ADDAA103003091AY161031AY261031GA1041+005109089GA2071+033009049GF107991041081004501071021MW1011REMSYN106AAXX  05214 97682 21462 72704 10237 20233 40085 5//// 70166 84872 333 56000 57803 60037 84817 87461 80859;
0208976820999992000102909004-03330+135500FM-12+0003WABI V0203601N002110450019N0250001N1+03001+02571100591ADDAA199000091GA1011+004809099GA2031+005109089GF105991041091004501041031MD1110051+9999REMSYN094AAXX  29094 97682 32475 53604 10300 20257 40059 51005 84943 333 56000 57901 81916 83817 80980;EQDQ01  00002PRCP99
0186976820999992000110809004-03330+135500FM-12+0003WABI V0209999C00001045001CN0150001N1+02861+02551100601ADDAA199000091GA1031+005109099GF106991041091004501071031MD1610111+9999REMSYN088AAXX  08094 97682 32465 60000 10286 20255 40060 56011 84973 333 56000 57901 83917 85361;EQDQ01  00002PRCP99
0224976820999992000111209004-03330+135500FM-12+0003WABI V0200901N002110330019N0120001N1+02841+02491100451ADDAA199000091GA1031+004809089GA2071+033009039GF107991041081004501071021MD1410001+9999REMSYN094AAXX  12094 97682 32462 70904 10284 20249 40045 51000 84872 333 56000 57802 83816 87361 80868;EQDQ01+000012APCTENQ02  00002PRCP99
0220976820999992000112612004-03330+135500FM-12+0003WABI V0201801N002110060019N0020001N1+02441+02411999999ADDAA103030091AY161061AY261061GA1051+006009069GF108991051051008001021999KA1240M+03251MD1210271+0141MW1021REMSYN106AAXX  26124 97682 /1520 81804 10244 20241 52027 60301 70266 8552/ 333 10325 56009 58014 60307 85620 88459;
0195976820999992000122309004-03330+135500FM-12+0003WABI V0201801N004110060019N0040001N1+02321+02321100541ADDAA103010091AY161031AY221031GA1061+006009069GF108991061051008001021999MD1210241+9999MW1611REMSYN094AAXX  23094 97682 21540 81808 10232 20232 40054 52024 76162 8652/ 333 56009 60107 86620 88459;
0235976860999992000010518004-04070+138950FM-12+1660WAJW V0209999C000010450019N0080001N1+01681+01511100771ADDAA106000091AY161061AY221061GA1031+003309089GF106991041081004501061051MA1999999083451MD1610161+9999MW1151REMSYN100AAXX  05184 97686 31458 60000 10168 20151 38345 40077 56016 71562 84865 333 56000 57800 83811 80860;EQDQ01  00002PRCP06
0254976860999992000010712004-04070+138950FM-12+1660WAJW V0201501N001510036019N0080001N1+01921+01691100821ADDAA106000091AY121061AY221061GA1051+003609069GF107991051061004501031031KA1240M+02841MA1999999083611MD1210301+0041MW1151REMSYN106AAXX  07124 97686 31458 71503 10192 20169 38361 40082 52030 71522 85633 333 10284 56000 58004 85612 87360;EQDQ01  00002PRCP06
0240976860999992000010800004-04070+138950FM-12+1660WAJW V0209999C000010450019N0100001N1+01921+01231101071ADDAA106000091GA1031+003609089GF106991031081004501041021GJ105289KA1240N+01341MA1999999083421MD1210201+9999REMSYN106AAXX  08004 97686 32460 60000 10192 20123 38342 40107 52020 83842 333 20134 50540 55088 56000 83812 85362;EQDQ01  00002PRCP06
0273976860999992000031503004-04070+138950FM-12+1660WAJW V0201501N001510360019N0120001N1+02501+01501100621ADDAA199000091AY121031AY221031GA1041+003909089GA2061+036009039GF199999041081004501041021MA1999999083311MD1710331+9999MW1011REMSYN106AAXX  15034 97686 32462 51503 10250 20150 38331 40062 57033 70122 84842 333 56000 57803 84813 86362 80860;EQDQ01+000052SCOTCVQ02  00002PRCP99
0238976860999992000033018004-04070+138950FM-12+1660WAJW V0209999C000010330019N0070001N1+01661+01591100671ADDAA199000021AY121061AY221061GA1041+003309089GA2061+033009039GF107991051081004501061061MA1999999083361MD1610151+9999MW1151REMSYN106AAXX  30184 97686 31457 70000 10166 20159 38336 40067 56015 71522 85866 333 56000 57800 84811 86361 80858;
0227976860999992000040200004-04070+138950FM-12+1660WAJW V0209999C000010090019N0110001N1+01961+01601100901ADDAA124006191GA1031+003009089GF107991051081004501041021GJ102109KA1240N+01521MA1999999083591MD1210071+9999REMSYN112AAXX  02004 97686 12461 70000 10196 20160 38359 40090 52007 60064 85842 333 20152 50110 55035 56000 83810 80860;
0257976860999992000051709004-04070+138950FM-12+1660WAJW V0201501N007710360019N0120001N1+02041+01541100801ADDAA199000091AY121031AY221031GA1031+003909089GA2051+036009039GF107991041081004501051061MA1999999083491MD1310161+9999MW1151REMSYN106AAXX  17094 97686 31462 71515 10204 20154 38349 40080 53016 71522 84856 333 56000 57803 83813 85362 80860;EQDQ01  00002PRCP99
0257976860999992000062118004-04690+138950FM-12+1660WAJW V0209999C000010039019N0060001N1+01541+01501101001ADDAA199000091AY121061AY221061GA1041+002709089GA2021+003909009GF107991051071002501041061MA1999999083691MD1610091+9999MW1051REMSYN106AAXX  21184 97686 31356 70000 10154 20150 38369 40100 56009 70522 85746 333 56000 57700 84809 82013 85360;EQDQ01  00002PRCP99
0277976860999992000062300004-04690+138950FM-12+1660WAJW V0209999C00001003601CN0080001N1+01741+01541101151ADDAA124002091AY121061AY221061GA1041+002709089GA2021+003609069GF108991061081002501061051GJ104929KA1240N+01541MA1999999083831MD1210151+9999MW1051REMSYN124AAXX  23004 97686 11358 80000 10174 20154 38383 40115 52015 60024 70522 86865 333 20154 50270 55082 56000 84809 82612 87361;
0290976860999992000062400004-04690+138950FM-12+1660WAJW V0209999C00001033001CN0090001N1+01941+01611101111ADDAA199000091AY121061AY221061GA1041+002709089GA2061+033009039GF107991051081002501051021GJ102169KA1240N+01521MA1999999083801MD1210241+9999MW1051REMSYN118AAXX  24004 97686 31359 70000 10194 20161 38380 40111 52024 70522 85852 333 20152 50320 55036 56000 84809 86361 80859;EQDQ01  00002PRCP99
0249976860999992000070100004-04690+138950FM-12+1660WAJW V0203301N00101003901CN0090001N1+01741+01501100891ADDAA124003091GA1031+003009089GA2021+003909069GF106991041081004501051061GJ101209KA1240N+01501MA1999999083571MD1310011+9999REMSYN118AAXX  01004 97686 12459 63302 10174 20150 38357 40089 53001 60034 84856 333 20150 50280 55020 56000 83810 82613 85361;
0277976860999992000070700004-04690+138950FM-12+1660WAJW V0209999C00001003901CN0090001N1+01821+01611100991ADDAA124003091AY121061AY221061GA1041+002709089GA2021+003909069GF108991051081002501061051GJ100009KA1240N+01641MA1999999083681MD1210121+9999MW1051REMSYN124AAXX  07004 97686 11359 80000 10182 20161 38368 40099 52012 60034 70522 85865 333 20164 50040 55000 56000 84809 82613 87360;
0238976860999992000071318004-04690+138950FM-12+1660WAJW V0209999C000010036019N9999999N1+01561+01521101011ADDAA199000021AY121061AY221061GA1031+002409089GA2031+003609069GF107991051071004501061071MA1999999083691MD1310071+9999MW1051REMSYN106AAXX  13184 97686 31455 70000 10156 20152 38369 40101 53007 70522 85767 333 56000 57800 83808 83612 85358;
0238976860999992000073009004-04060+138950FM-12+1660WAJW V0201501N002110042019N0070001N1+01841+01641100811ADDAA103000591AY161031AY261031GA1031+003609069GA2021+004209099GF108991051091004501021061MA1999999083501MD1210131+9999MW1611REMSYN106AAXX  30094 97686 21457 81504 10184 20164 38350 40081 52013 76166 85926 333 56000 69957 82914 83612 87459;
0250976860999992000073018004-04060+138950FM-12+1660WAJW V0209999C000010036019N0040001N1+01541+01501101101ADDAA103002091AY121061AY221061GA1031+002409079GA2031+003609069GF108991051071004501031061MA1999999083791MD1410001+9999MW1051REMSYN118AAXX  30184 97686 /1440 80000 10154 20150 38379 40110 54001 60111 70522 85736 333 56000 57803 60027 83708 83612 87358;
0207976860999992000080503004-04060+138950FM-12+1660WAJW V0203301N002612200019N0100001N1+02381+01371100881ADDAA199000091GA1031+003609089GF104991031081004501041021MA1999999083571MD1610221+9999REMSYN094AAXX  05034 97686 32460 43305 10238 20137 38357 40088 56022 83842 333 56000 57802 83812 80860;EQDQ01  00002PRCP99
0286976860999992000082112004-04060+138950FM-12+1660WAJW V0209999C00001030001CN0070001N1+01661+01591100921ADDAA103004091AA206005191AY161061AY261061GA1041+003009089GA2071+030009039GF108991061081004501071071KA1240M+02141MA1999999083611MD1210181+0061MW1211REMSYN130AAXX  21124 97686 /1457 80000 10166 20159 38361 40092 52018 60051 72166 86877 333 10214 56000 57800 58006 60047 84810 87360 80858;
0175976860999992000091403004-04060+138950FM-12+1660WAJW V0203301N002612200019N0130001N1+02581+01751100871ADDAA199000091GA1031+004209029GF104991031081004501041021MA1999999083561REMSYN076AAXX  14034 97686 32463 43305 10258 20175 38356 40087 83842 333 56000 83814;EQDQ01  00002PRCP99
0210976860999992000092703004-04060+138950FM-12+1660WAJW V0201501N002610036019N0100001N1+02481+01751100881ADDAA199000021GA1031+003009089GA2031+003609069GF106991051081004501041021MA1999999083571MD1710271+9999REMSYN100AAXX  27034 97686 32460 61505 10248 20175 38357 40088 57027 85842 333 56000 57802 83810 83612 80860;
0229976860999992000092918004-04060+138950FM-12+1660WAJW V0209999C000010033019N0050001N1+01641+01571101101ADDAA199000091AY121061AY221061GA1051+003309069GF108991051081004501071061MA1999999083781MD1210041+9999MW1051REMSYN094AAXX  29184 97686 31450 80000 10164 20157 38378 40110 52004 70522 85876 333 56000 85611 87360;EQDQ01  00002PRCP99
0284976860999992000112100004-04060+138950FM-12+1660WAJW V0209999C00001003601CN0100001N1+02141+01811100951ADDAA199000091GA1031+003009089GA2021+003609069GA3061+033009039GF107991051081004501061051GJ102529KA1240N+01641MA1999999083631MD1210161+9999REMSYN118AAXX  21004 97686 32460 70000 10214 20181 38363 40095 52016 85865 333 20164 50920 55042 56000 83810 82612 86361 80860;EQDQ01  00002PRCP99
0262976860999992000112400004-04060+138950FM-12+1660WAJW V0209999C00001033001CN0090001N1+02121+01861100951ADDAA199000091GA1031+003009089GA2051+033009039GF106991041081004501051021GJ103489KA1240N+01681MA1999999083641MD1210181+9999REMSYN112AAXX  24004 97686 32459 60000 10212 20186 38364 40095 52018 84852 333 20168 50360 55058 56000 83810 85361 80860;EQDQ01  00002PRCP99
0229976860999992000120306004-04060+138950FM-12+1660WAJW V0201501N012310360019N0120001N1+02461+02161100291ADDAA199000091GA1031+003609089GA2051+036009039GF106991041081004501041021MA1999999082981MD1610151+9999REMSYN100AAXX  03064 97686 32462 61524 10246 20216 38298 40029 56015 84842 333 56000 57804 83812 85362 80859;EQDQ01  00002PRCP99
0257976860999992000120706004-04060+138950FM-12+1660WAJW V0203301N001510360019N0110001N1+02681+02141100401ADDAA199000091AY121061AY221061GA1031+003309089GA2061+036009039GF107991061081004501041061MA1999999083081MD1710301+9999MW1151REMSYN106AAXX  07064 97686 31461 73303 10268 20214 38308 40040 57030 71522 86846 333 56000 57802 83811 86362 80859;EQDQ01  00002PRCP99
0215976900999992000010109004-02570+140480FM-12+0099WAJJ V0201201N001512200019N0150001N1+03001+02481100431ADDAA106000091AY111031AY211031GA1011+005109089GF103991011021004501001011MA1999999099411MW1051REMSYN094AAXX  01094 97690 31465 31203 10300 20248 39941 40043 70511 81201 333 56000 57803 81817 80857;EQDQ01  00002PRCP06
0276976900999992000012312004-02570+140480FM-12+0099WAJJ V0209999C00001090001CN0060001N1+02621+02321100731ADDAA199000091GA1021+004809089GA2081+090009009GA3041+999999069GF108991041081004501061021KA1240M+03161MA1999999099711MD1210301+9999REMSYN118AAXX  23124 97690 32456 80000 10262 20232 39971 40073 52030 84862 333 10316 56000 57802 56900 82816 8462/ 88080 80857;EQDQ01  00002PRCP99
0266976900999992000012703004-02570+140480FM-12+0099WAJJ V0202801N003610057019N0100001N1+02721+02401100711ADDAA103001091AY161031AY261031GA1021+004509089GA2041+005709069GA3081+087009029GF108991051081004501061071MA1999999099691MD1610121+9999MW1211REMSYN118AAXX  27034 97690 21460 82807 10272 20240 39969 40071 56012 72166 85867 333 56600 57801 60017 82815 84619 88279 80857;
0188976900999992000021515004-02570+140480FM-12+0099WAJJ V0209999C000012200019N0050001N1+02401+02321100821ADDAA199000021GA1021+004509089GF103991021021004501001011MA1999999099811MD1110081+9999REMSYN094AAXX  15154 97690 32450 30000 10240 20232 39981 40082 51008 82201 333 56000 57802 82815 80856;
0229976900999992000030618004-02570+140480FM-12+0099WAJJ V0209999C00001045001CN0050001N1+02441+02351100871ADDAA199000091GA1011+004509089GA2031+005709069GF106991041081004501041021MA1999999099851MD1710101+9999REMSYN100AAXX  06184 97690 32450 60000 10244 20235 39985 40087 57010 84842 333 56000 57802 81815 83619 85080;EQDQ01  00002PRCP99
0279976900999992000040109004-02570+140480FM-12+0099WAJJ V0209999C000010060019N0100001N1+02861+02401100471ADDAA199000091AY121031AY221031GA1031+004509089GA2031+006009069GA3081+084009029GF108991051081004501061071MA1999999099451MD1310091+9999MW1051REMSYN112AAXX  01094 97690 31460 80000 10286 20240 39945 40047 53009 70522 85867 333 56000 57802 83815 83620 88278 80858;EQDQ01  00002PRCP99
0308976900999992000041712004-02570+140480FM-12+0099WAJJ V0209999C00001084001CN0050001N1+02461+02401101101ADDAA103001091AA206001091AY161061AY221061GA1011+004509099GA2031+006009069GA3081+084009029GF108991041091004501061071KA1240M+03201MA1999999100081MD1210331-0241MW1611REMSYN136AAXX  17124 97690 /1450 80000 10246 20240 30008 40110 52033 60011 76162 84967 333 10320 56000 57900 59024 60017 81915 83620 88278 80980;
0229976900999992000050706004-02570+140480FM-12+0099WAJJ V0201101N003610900019N0150001N1+03081+02451100611ADDAA199000091GA1031+005109089GA2061+090009009GF106991041081004501061021MA1999999099591MD1710251+9999REMSYN100AAXX  07064 97690 32465 61107 10308 20245 39959 40061 57025 84862 333 56000 57802 83817 86080 80860;EQDQ01  00002PRCP99
0285976900999992000051106004-02570+140480FM-12+0099WAJJ V0201201N00261090001CN0150001N1+03121+02421100621ADDAA199000091AY121061AY221061GA1011+004809099GA2031+005109089GA3061+090009009GF106991031091004501041021MA1999999099601MD1710181+9999MW1051REMSYN118AAXX  11064 97690 31465 61205 10312 20242 39960 40062 57018 70522 83942 333 56000 57901 57802 81916 83817 86080 80970;EQDQ01  00002PRCP99
0210976900999992000051221004-02570+140480FM-12+0099WAJJ V0209999C000010057019N0100001N1+02401+02341100911ADDAA199000021AY121031AY221031GA1051+005709069GF108991051051004501041021MA1999999099891MD1210121+9999MW1051REMSYN094AAXX  12214 97690 31460 80000 10240 20234 39989 40091 52012 70522 85542 333 56000 85619 88080;
0254976900999992000051412004-02570+140480FM-12+0099WAJJ V0209999C00001090001CN0060001N1+02641+02431101051ADDAA199000091GA1021+004809089GA2051+090009009GF105991031081004501041021KA1240M+03301MA1999999100031MD1210311+0041REMSYN112AAXX  14124 97690 32456 50000 10264 20243 30003 40105 52031 83842 333 10330 56000 57801 58004 82816 85080 80857;EQDQ01  00002PRCP99
0285976900999992000051903004-02570+140480FM-12+0099WAJJ V0201201N00311004801CN0100001N1+02941+02331101021ADDAA199000091AY121031AY221031GA1021+004509099GA2031+004809089GA3071+087009029GF107991051091004501061081MA1999999100001MD1710151+9999MW1151REMSYN118AAXX  19034 97690 31460 71206 10294 20233 30000 40102 57015 71522 85968 333 56000 57902 57801 82915 83816 87279 80962;EQDQ01  00002PRCP99
0260976900999992000062606004-02560+140470FM-12+0099WAJJ V0209999C000010057019N0120001N1+02861+02521100561ADDAA199000021AY121061AY221061GA1021+004509089GA2031+005709069GA3071+090009009GF107991051081004501061021MA1999999099551MD1710211+9999MW1151REMSYN112AAXX  26064 97690 31462 70000 10286 20252 39955 40056 57021 71522 85862 333 56000 57801 82815 83619 87080 80860;
0242976900999992000062609004-02560+140470FM-12+0099WAJJ V0209999C000010900019N0120001N1+02641+02491100631ADDAA199000021AY121031AY221031GA1031+004509089GA2071+090009009GF107991041081004501041021MD1110071+9999MW1051REMSYN106AAXX  26094 97690 31462 70000 10264 20249 30062 40063 51007 70522 84842 333 56000 57802 83815 87080 80860;EQDQ01+100623APOSP 
0257976900999992000062912004-02560+140470FM-12+0099WAJJ V0209999C00001090001CN0050001N1+02551+02401100781ADDAA199000021GA1041+004509089GA2031+006009069GA3061+090009009GF107991041081004501061021KA1240M+03061MA1999999099771MD1210251+0031REMSYN118AAXX  29124 97690 32450 70000 10255 20240 39977 40078 52025 84862 333 10306 56000 57802 58003 84815 83620 86080 80858;
0207976900999992000072803004-02560+140470FM-12+0099WAJJ V0201201N003112200019N0150001N1+03161+02481100941ADDAA199000091GA1031+005109089GF104991031081004501001011MA1999999099921MD1710201+9999REMSYN094AAXX  28034 97690 32465 41206 10316 20248 39992 40094 57020 83801 333 56000 57802 83817 80860;EQDQ01  00002PRCP99
0232976900999992000081112004-02560+140470FM-12+0099WAJJ V0209999C000010450019N0060001N1+02601+02451100871ADDAA199000091GA1021+005109089GF105991031081004501041021KA1240M+03341MA1999999099851MD1210311+0101REMSYN106AAXX  11124 97690 32456 50000 10260 20245 39985 40087 52031 83842 333 10334 56000 57803 58010 82817 85080;EQDQ01  00002PRCP99
0229976900999992000092303004-02560+140470FM-12+0099WAJJ V0201201N004112200019N0150001N1+03321+02431100851ADDAA199000091GA1031+005109089GA2041+090009009GF104991031021004501001011MA1999999099831MD1710231+9999REMSYN100AAXX  23034 97690 32465 41208 10332 20243 39983 40085 57023 83201 333 56000 57802 83817 84080 80860;EQDQ01  00002PRCP99
0207976900999992000092406004-02560+140470FM-12+0099WAJJ V0201201N006210450019N0150001N1+03301+02541100501ADDAA199000091GA1031+005409089GF105991031021004501041021MA1999999099491MD1610251+9999REMSYN094AAXX  24064 97690 32465 51212 10330 20254 39949 40050 56025 83242 333 56000 57803 83818 80859;EQDQ01  00002PRCP99
0251976900999992000101118004-02560+140470FM-12+0099WAJJ V0209999C000010900019N0050001N1+02401+02321100851ADDAA199000091GA1011+004509089GA2031+005709069GA3051+090009009GF106991041081004501041021MA1999999099831MD1710051+9999REMSYN106AAXX  11184 97690 32450 60000 10240 20232 39983 40085 57005 84842 333 56000 57802 81815 83619 85080 80856;EQDQ01  00002PRCP99
0229976900999992000101721004-02560+140470FM-12+0099WAJJ V0209999C000010900019N0080001N1+02301+02241100721ADDAA199000091GA1031+004209089GA2061+090009009GF107991041081004501041021MA1999999099711MD1210091+9999REMSYN100AAXX  17214 97690 32458 70000 10230 20224 39971 40072 52009 84842 333 56000 57803 83814 86080 80857;EQDQ01  00002PRCP99
0241976900999992000103112004-02560+140470FM-12+0099WAJJ V0209999C000012200019N0050001N1+02561+02441100901ADDAA199000021AY111061AY211061GA1011+004509099GF104991021091004501041011KA1240M+03351MA1999999099881MD1210241+0101MW1131REMSYN112AAXX  31124 97690 31450 40000 10256 20244 39988 40090 52024 71311 82941 333 10335 56000 57902 58010 81915 80978;
0229976900999992000111421004-02560+140470FM-12+0099WAJJ V0209999C000010870019N0100001N1+02381+02331100471ADDAA199000091GA1021+004509089GA2071+087009029GF107991041081004501041081MA1999999099461MD1210051+9999REMSYN100AAXX  14214 97690 32460 70000 10238 20233 39946 40047 52005 84848 333 56000 57803 82815 87279 80857;EQDQ01  00002PRCP99
0222976900999992000112006004-02560+140470FM-12+0099WAJJ V0200801N003110450019N0150001N1+03321+02661100251ADDAA199000021GA1011+004509099GA2031+004809089GF105991041091004501041021MA1999999099231MD1710201+9999REMSYN112AAXX  20064 97690 32465 50806 10332 20266 39923 40025 57020 84942 333 56000 57902 57801 81915 83816 80980 80860;
0248976900999992000120112004-02560+140470FM-12+0099WAJJ V0209999C00001045001CN0050001N1+02661+02481100571ADDAA199000091GA1011+004809089GA2031+006009069GF107991041081004501061021KA1240M+03161MA1999999099561MD1210231+9999REMSYN106AAXX  01124 97690 32450 70000 10266 20248 39956 40057 52023 84862 333 10316 56000 57802 81816 83620 86362;EQDQ01  00002PRCP99
0207976980999992000021403004-02370+140720FM-12+000399999V0201001N003612200019N0130001N1+03101+02521100921ADDAA199000091GA1031+005109089GF104991031021004501001011MA1999999100781MD1210171+9999REMSYN094AAXX  14034 97698 32463 41007 10310 20252 30078 40092 52017 83201 333 56000 57802 83817 80870;EQDQ01  00002PRCP99
0232976980999992000030903004-02370+140720FM-12+000399999V0200701N003110360019N0120001N1+02821+02381101171ADDAA199000021GA1021+004809089GA2021+005409069GA3051+036009039GF107991041081004501041011MA1999999101031MD1710191+9999REMSYN106AAXX  09034 97698 32462 70706 10282 20238 30103 40117 57019 84841 333 56000 57802 82816 82618 85362 80864;
0279976980999992000040509004-02370+140720FM-12+000399999V0203401N001510840019N0090001N1+02901+02561100781ADDAA199000091AY111031AY211031GA1011+004809089GA2021+005709069GA3051+084009009GF105991031081004501041021MA1999999100631MD1310011+9999MW1051REMSYN112AAXX  05094 97698 31459 53403 10290 20256 30063 40078 53001 70511 83842 333 56000 57803 81816 82619 85078 80862;EQDQ01  00002PRCP99
0210976980999992000051700004-02370+140720FM-12+000399999V0201801N003612200019N0120001N1+02861+02581101271ADDAA199000091GF104991031051004501031011KA1240N+02541MA1999999101121MD1210141+9999REMSYN100AAXX  17004 97698 32462 41807 10286 20258 30112 40127 52014 83531 333 20254 55/// 56000 57004 83617;EQDQ01  00002PRCP99
0263976980999992000071103004-02370+140710FM-12+000399999V0209999C000010054019N0090001N1+02741+02451101221ADDAA103999999AY181031AY221031GA1031+004809089GA2021+005409069GF107991051081004501071021MA1999999101071MD1710171+9999MW1161REMSYN112AAXX  11034 97698 21459 70000 10274 20245 30107 40122 57017 71682 85872 333 56000 57800 69907 83816 82618 87463;EQDQ01  99992PRCP03
0257976980999992000081209004-02370+140710FM-12+000399999V0203201N005110054019N0080001N1+02801+02421101141ADDAA199000091AY141031AY221031GA1041+005109089GA2021+005409069GF107991061081004501041021MA1999999101001MD1210121+9999MW1051REMSYN106AAXX  12094 97698 31458 73210 10280 20242 30100 40114 52012 70542 86842 333 56000 57802 84817 82618 80868;EQDQ01  00002PRCP99
0195976980999992000102403004-02370+140710FM-12+000399999V0200601N003112200019N0120001N1+03061+02421101061ADDAA199000091GA1031+005109059GF104991031051004501031011MA1999999100911MD1710161+9999REMSYN082AAXX  24034 97698 32462 40606 10306 20242 30091 40106 57016 83531 333 56000 83617;EQDQ01  00002PRCP99
0236977000999992000020100004-03250+127080FM-12+0020WAPR V0202301N003610450019N0130001N1+02681+02291999999ADDAA124006191AY161061AY221061GA1011+005409089GA2031+030009009GF106991011021004501031011GJ103309KA1240N+02381MW1021REMSYN112AAXX  01004 97700 11463 62307 10268 20229 4//// 60064 70262 81231 333 20238 55055 56700 57271 81818 83060 80840;
0221977000999992000022600004-03250+127080FM-12+0020WAPR V0202201N00261030001CN0150001N1+02701+02391999999ADDAA199000091GA1011+006009089GA2051+030009009GF105991011021008001071021GJ104269KA1240N+02381REMSYN100AAXX  26004 97700 32565 52205 10270 20239 40/// 81272 333 20238 50600 55071 56000 81820 85060 80858;EQDQ01  00002PRCP99
0215977000999992000051300004-03250+127080FM-12+0020WAPR V0202601N004111050019N0150001N1+02681+02321999999ADDAA199000091GA1011+006009089GA2031+030009009GF105991011021008001071041GJ105289KA1240N+02411REMSYN094AAXX  13004 97700 32565 52608 10268 20232 4//// 81274 333 20241 55088 56300 81820 83060 80857;EQDQ01  00002PRCP99
0240977220999992000010100004-03350+128880FM-12+0010WAPA V0209999C000012200019N0120001N1+02871+02431100961ADDAA106000091GA1031+005409089GF104991041081004501001021GJ105109KA1240N+02331MA1999999100811MD1019999+9999REMSYN106AAXX  01004 97722 32462 40000 10287 20243 30081 40096 50/// 84802 333 20233 50560 55085 56200 83818 80859;EQDQ01  00002PRCP06
0223977220999992000040209004-03350+128880FM-12+0010WAPA V0201901N003110210019N0060001N1+02701+02381100751ADDAA103000391AY161031AY221031GA1021+005109099GA2061+021009049GF107991061091004501071001MD1710041+9999MW1021REMSYN106AAXX  02094 97722 21456 71906 10270 20238 40075 57004 70262 86970 333 56400 57940 69937 82917 86457 80982;
0209977220999992000050503004-03350+128880FM-12+0010WAPA V0201501N001510720019N0120001N1+02981+02371101261ADDAA199000091GA1021+006009089GA2041+072009029GF107991031081008001001061MA1999999101111REMSYN094AAXX  05034 97722 32562 71503 10298 20237 30111 40126 83806 333 56000 57802 82820 84274 80860;EQDQ01  00002PRCP99
0236977220999992000050909004-03350+128880FM-12+0010WAPA V0209999C000010240019N0090001N1+02781+02551101011ADDAA199000091AY121031AY221031GA1011+005409099GA2051+024009049GF107991051091004501071001MD1110011+9999MW1151REMSYN100AAXX  09094 97722 31459 70000 10278 20255 40101 51001 71522 85970 333 56400 57941 81918 85458 80981;EQDQ01  00002PRCP99
0229977220999992000052906004-03350+128880FM-12+0010WAPA V0201101N001510210019N0070001N1+02511+02391100981ADDAA103006091AY161061AY221061GA1021+005109099GA2081+021009049GF108991061091004501021999MD1210221+9999MW1211REMSYN112AAXX  29064 97722 /1457 81103 10251 20239 40098 52022 60071 72162 8692/ 333 56209 57920 60067 82917 88457 80982;
0229977220999992000060306004-03350+128880FM-12+0010WAPA V0200801N003110210019N0060001N1+02641+02461100871ADDAA103002091AY191061AY261061GA1021+004809099GA2061+021009049GF107991061091004501071001MD1710161+9999MW1601REMSYN112AAXX  03064 97722 /1456 70806 10264 20246 40087 57016 60131 76096 86970 333 56200 57921 60027 82916 86457 80982;
0235977220999992000060706004-03350+128880FM-12+0010WAPA V0201601N00361004201CN0120001N1+02881+02511101111ADDAA199000091GA1011+005409099GA2031+005709089GF107991051091004501071021MA1999999100961MD1710121+9999REMSYN106AAXX  07064 97722 32462 71607 10288 20251 30096 40111 57012 85972 333 56200 57923 81918 83819 80981 80857;EQDQ01  00002PRCP99
0250977220999992000073106004-03340+128870FM-12+0010WAPA V0200901N002610450019N0130001N1+02701+02411101101ADDAA106000791AY161061AY221061GA1011+005409099GA2031+005709089GF105991041091004501031021MA1999999100951MD1710241+9999MW1021REMSYN118AAXX  31064 97722 11463 50905 10270 20241 30095 40110 57024 69901 70262 84932 333 56200 57822 81918 83819 80980 80858;
0207977220999992000081906004-03340+128870FM-12+0010WAPA V0201101N001510450019N0120001N1+02821+02321101181ADDAA199000091GA1031+005709089GF107991041081004501071021MA1999999101031MD1710091+9999REMSYN094AAXX  19064 97722 32462 71103 10282 20232 30103 40118 57009 84872 333 56200 57822 83819 80857;EQDQ01  00002PRCP99
0241977220999992000082403004-03340+128870FM-12+0010WAPA V0202501N001510042019N0130001N1+02851+02351101421ADDAA199000091GA1011+005709099GA2031+006009089GF107991051091004501031021MA1999999101271MD1810011+9999REMSYN112AAXX  24034 97722 32463 72503 10285 20235 30127 40142 58001 85932 333 56200 57922 57823 81919 83820 80980 80858;EQDQ01  00002PRCP99
0207977220999992000082809004-03340+128870FM-12+0010WAPA V0200901N002110450019N0120001N1+02831+02421101171ADDAA199000091GA1031+006009089GF106991041081008001041021MA1999999101021MD1510071+9999REMSYN094AAXX  28094 97722 32562 60904 10283 20242 30102 40117 55007 84842 333 56200 57822 83820 80857;EQDQ01  00002PRCP99
0241977220999992000102809004-03340+128870FM-12+0010WAPA V0209999C000010042019N0110001N1+02671+02461101121ADDAA199000091GA1011+005409099GA2031+005709089GF107991051091004501071021MA1999999100981MD1510051+9999REMSYN112AAXX  28094 97722 32461 70000 10267 20246 30098 40112 55005 85972 333 56200 57922 57823 81918 83819 80980 80858;EQDQ01  00002PRCP99
0207977220999992000110209004-03340+128870FM-12+0010WAPA V0209999C000010450019N0120001N1+02981+02521100931ADDAA199000091GA1031+005709089GF106991041081004501031021MA1999999100791MD1510041+9999REMSYN094AAXX  02094 97722 32462 60000 10298 20252 30079 40093 55004 84832 333 56200 57822 83819 80858;EQDQ01  00002PRCP99
0229977220999992000110306004-03340+128870FM-12+0010WAPA V0201201N003610720019N0140001N1+03141+02571101031ADDAA199000091GA1011+005709099GA2041+072009009GF105991031091004501001021MA1999999100881MD1710161+9999REMSYN100AAXX  03064 97722 32464 51207 10314 20257 30088 40103 57016 83902 333 56200 57921 81919 84074 80980;EQDQ01  00002PRCP99
0257977220999992000110806004-03340+128870FM-12+0010WAPA V0201901N002610720019N0130001N1+03191+02441100901ADDAA199000091AY191061AY221061GA1011+005109099GA2041+072009009GF107991041091004501001061MA1999999100751MD1710271+9999MW1171REMSYN106AAXX  08064 97722 31463 71905 10319 20244 30075 40090 57027 71792 84906 333 56200 57921 81917 84074 80981;EQDQ01  00002PRCP99
0235977240999992000010603004-03700+128080FM-12+0012WAPP V0202001N00261009001CN0080001N1+03141+02521100721ADDAA106000091AY121031AY221031GA1031+005709089GF106991051081004501031021MA1999999100571MD1610031+9999MW1151REMSYN100AAXX  06034 97724 31458 62005 10314 20252 30057 40072 56003 71522 85832 333 56999 57992 83819 80840;EQDQ01  00002PRCP06
0244977240999992000012006004-03700+128080FM-12+0012WAPP V0203401N001510270019N0100001N1+03141+02291100631ADDAA106000791AY161061AY221061GA1021+005709089GA2041+027009039GF107991021021004501071021MA1999999100481MD1610201+9999MW1021REMSYN112AAXX  20064 97724 11460 73403 10314 20229 30048 40063 56020 69901 70262 82272 333 56700 57873 82819 84359 80840;
0207977240999992000013006004-03700+128080FM-12+0012WAPP V0203001N003610450019N0100001N1+03171+02471100601ADDAA199000091GA1031+005709089GF107991041081004501031021MA1999999100451MD1810201+9999REMSYN094AAXX  30064 97724 32460 73007 10317 20247 30045 40060 58020 84832 333 56500 57851 83819 80842;EQDQ01  00002PRCP99
0235977240999992000032003004-03700+128080FM-12+0012WAPP V0202001N002110450019N0100001N1+02071+99999100801ADDAA199000091AY121031AY211031GA1031+005709089GF106991041081004501031011MA1999999100651MD1610081+9999MW1051REMSYN100AAXX  20034 97724 31460 62004 10207 20251 30065 40080 56008 70521 84831 333 56800 57882 83819 80840;EQDQ01  00002PRCP99
0235977240999992000041600004-03700+128080FM-12+0012WAPP V0209999C000011050019N0090001N1+02961+02561100751ADDAA124007191AY121061AY211061GA1021+005709089GF105991021021004501031021GJ103789KA1240N+02461MA1999999100601MW1051REMSYN112AAXX  16004 97724 11459 50000 10296 20256 30060 40075 60074 70521 82232 333 20246 50830 55063 56000 82819 80840;
0235977240999992000091103004-03690+128070FM-12+0012WAPP V0201501N003110450019N0090001N1+03001+02381100931ADDAA199000091AY121031AY221031GA1031+005409089GF106991041081004501031021MA1999999100781MD1810091+9999MW1051REMSYN100AAXX  11034 97724 31459 61506 10300 20238 30078 40093 58009 70522 84832 333 56300 57832 83818 80840;EQDQ01  00002PRCP99
0254977240999992000101200004-03690+128070FM-12+0012WAPP V0201701N003110450019N0090001N1+02921+02491100931ADDAA199000091AY121061AY221061GA1031+005709089GF106991041081004501021011GJ102529KA1240N+02451MA1999999100781MW1051REMSYN112AAXX  12004 97724 31459 61706 10292 20249 30078 40093 5//// 70522 84821 333 20245 50600 55042 56700 83819 80840;EQDQ01  00002PRCP99
0306977240999992000110800004-03690+128070FM-12+0012WAPP V0209999C000010450019N0080001N1+02981+02481100961ADDAA199000091AY121061AY211061GA1011+005709089GA2041+075009009GF106991011021004501031021GJ106609KA1240M+99999MA1999999101811MD1019999+9999MW1051REMSYN118AAXX  08004 97724 31458 60000 10298 20248 30181 40096 50/// 70521 81232 333 10240 50680 55110 56600 81819 84075 80840;EQDQ01  00002PRCP99Q02 +02402ATMX  
0277977240999992000120200004-03690+128070FM-12+0012WAPP V0203401N00261027001CN0090001N1+02871+02461100541ADDAA124000591AY121061AY221061GA1021+005709089GA2041+027009049GF107991031081004501071021GJ102229KA1240N+02461MA1999999100391MD1019999+9999MW1051REMSYN124AAXX  02004 97724 11459 73405 10287 20246 30039 40054 50/// 69954 70522 83872 333 20246 50530 55037 56700 82819 84459 80840;
0201977480999992000012303004-03800+130830FM-12+000399999V0203601N00621045001CN0200001N1+02911+02461100941ADDAA199000091GA1011+006009089GF107991011011008001031021MA1999999100871MD1610071+9999REMSYN088AAXX  23034 97748 32570 73612 10291 20246 30087 40094 56007 81132 333 56000 81820 85075;EQDQ01  00002PRCP99
0279977480999992000030703004-03800+130830FM-12+000399999V0203601N001512200019N0150001N1+03161+02571101101ADDAA199000091AY121031AY221031GA1011+005409099GA2021+006009089GA3031+081009009GF104991031091004501031021MA1999999101051MD1610021+9999MW1051REMSYN112AAXX  07034 97748 31465 43603 10316 20257 30105 40110 56002 70522 83932 333 56800 57900 81918 82820 83077 80860;EQDQ01  00002PRCP99
0263977480999992000062100004-03800+130820FM-12+000399999V0201701N00211027001CN0120001N1+02771+02541101201ADDAA124004191AY121061AY221061GA1031+005709089GA2061+027009039GF108991031021004501031021GJ102229KA1240N+02001MA1999999101131MW1051REMSYN124AAXX  21004 97748 11462 81704 10277 20254 30113 40120 5//// 60044 70522 83232 333 20200 50030 55037 56300 83819 86359 80856;
0235977480999992000071106004-03800+130820FM-12+000399999V0201601N003610450019N0100001N1+03101+02521101091ADDAA199000091AY111061AY211061GA1031+004509089GF105991031021004501031011MA1999999101031MD1610111+9999MW1051REMSYN100AAXX  11064 97748 31460 51607 10310 20252 30103 40109 56011 70511 83231 333 56400 57842 83815 80850;EQDQ01  00002PRCP99
0257977480999992000071309004-03800+130820FM-12+000399999V0201601N005112200019N0090001N1+02751+02281101151ADDAA199000091AY111031AY211031GA1011+006009089GA2031+081009009GF104991011011008001001021MA1999999101081MD1510041+9999MW1051REMSYN106AAXX  13094 97748 31559 41610 10275 20228 30108 40115 55004 70511 81102 333 56000 57802 81820 83077 80860;EQDQ01  00002PRCP99
0270977480999992000080700004-03800+130820FM-12+000399999V0201501N00511027001CN0100001N1+02781+02391101151ADDAA199000091AY121061AY221061GA1021+005409089GA2051+027009039GF107991031021004501031021GJ102109KA1240N+01981MA1999999101081MW1051REMSYN112AAXX  07004 97748 31460 71510 10278 20239 30108 40115 70522 83232 333 20198 50560 55035 56300 82818 85359 80851;EQDQ01  00002PRCP99
0235977480999992000092203004-03800+130820FM-12+000399999V0201801N003612200019N0120001N1+03201+02601101051ADDAA199000091AY111031AY211031GA1021+006009089GF104991021021008001001001MA1999999100891MD1710101+9999MW1051REMSYN100AAXX  22034 97748 31562 41807 10320 20260 30089 40105 57010 70511 82200 333 56400 57843 82820 80856;EQDQ01  00002PRCP99
0263977480999992000100200004-03800+130820FM-12+000399999V0202001N00261030001CN0120001N1+02881+02561101211ADDAA124001091AY121061AY211061GA1021+005709089GA2041+030009039GF105991021021008001031021GJ102529KA1240N+02081MA1999999101141MW1051REMSYN124AAXX  02004 97748 11562 52005 10288 20256 30114 40121 5//// 60014 70521 82232 333 20208 50030 55042 56400 82819 84360 80856;
0251977480999992000101803004-03800+130820FM-12+000399999V0200201N003110054019N0170001N1+03031+02571100931ADDAA199000091GA1011+005109099GA2071+005409099GA3051+027009039GF108991041091004501071021MA1999999100871MD1710011+9999REMSYN106AAXX  18034 97748 32467 80206 10303 20257 30087 40093 57001 84972 333 56800 57980 81917 87918 85359 80956;EQDQ01  00002PRCP99
0257977480999992000111206004-03800+130820FM-12+000399999V0202001N004110270019N0150001N1+03271+02711100641ADDAA199000091AY121061AY211061GA1021+005109089GA2051+027009039GF107991021021004501031021MA1999999100571MD1610011+9999MW1151REMSYN106AAXX  12064 97748 31465 72008 10327 20271 30057 40064 56001 71521 82232 333 56000 57860 82817 85359 80856;EQDQ01  00002PRCP99
0279977480999992000122709004-03800+130820FM-12+000399999V0200201N002110750019N0100001N1+02781+02461100691ADDAA199000091AY191031AY221031GA1011+005109099GA2021+005409089GA3051+075009009GF108991031091004501031061MA1999999100631MD1110051+9999MW1051REMSYN112AAXX  27094 97748 31460 80204 10278 20246 30063 40069 51005 70592 83936 333 56800 57891 81917 82818 85075 80956;EQDQ01  00002PRCP99
0207977600999992000020103004-03670+133750FM-12+0003WASK V0203401N00411009001CN0160001N1+02991+02521101001ADDAA199000091GA1031+004809089GF107991061081004501001021MA1999999100581MD1710021+9999REMSYN094AAXX  01034 97760 32466 73408 10299 20252 30058 40100 57002 86802 333 56000 57801 83816 84080;EQDQ01  00002PRCP99
0241977600999992000041400004-03670+133750FM-12+0003WASK V0203401N00151030001CN0150001N1+02691+02471100861ADDAA124089991GA1031+004809089GA2051+030009039GF107991031081004501031021KA1240N+02361MA1999999100761MD1210121+9999REMSYN118AAXX  14004 97760 12465 73403 10269 20247 30076 40086 52012 60904 83832 333 20236 55/// 56000 57801 83816 85360 86080;
0201977600999992000042506004-03670+133750FM-12+0003WASK V0200901N001512200019N0150001N1+03001+02421100761ADDAA199000091GA1021+004809029GF103991021021004501041001MA1999999100661MD1210101+9999REMSYN088AAXX  25064 97760 32465 30903 10300 20242 30066 40076 52010 82240 333 56000 57802 82816;EQDQ01  00002PRCP99
0207977600999992000042806004-03670+133750FM-12+0003WASK V0201801N003112200019N0150001N1+03041+02371100811ADDAA199000091GA1011+004509099GF103991031091004501001031MA1999999100711MD1710091+9999REMSYN094AAXX  28064 97760 32465 31806 10304 20237 30071 40081 57009 83903 333 56000 57902 81915 82816;EQDQ01  00002PRCP99
0263977600999992000050512004-03670+133750FM-12+0003WASK V0209999C000011050019N0060001N1+02661+02391101041ADDAA199000021AY191061AY221061GA1011+004509099GA2021+004809089GF107991031091004501001021KA1240M+02981MA1999999100941MD1210151+0051MW1021REMSYN118AAXX  05124 97760 32456 70000 10266 20239 30094 40104 52015 70292 83902 333 10298 56000 57901 58005 81915 82816 85080;
0210977600999992000072012004-03660+133750FM-12+0003WASK V0201701N005110090019N0100001N1+02561+02291101151ADDAA199000091GF107991061081004501001021KA1240M+02921MA1999999101051MD1210151+0071REMSYN100AAXX  20124 97760 32460 71710 10256 20229 30105 40115 52015 86802 333 10292 56400 57841 58007 81815;EQDQ01  00002PRCP99
0188977600999992000072515004-03660+133750FM-12+0003WASK V0209999C000011050019N0080001N1+02411+02331101001ADDAA199000021GA1011+004509099GF106991041091004501001021MA1999999100901MD1710081+9999REMSYN094AAXX  25154 97760 31458 60000 10241 20233 30090 40100 57008 84902 333 56000 57901 81915 83617;
0257977600999992000081103004-03660+133750FM-12+0003WASK V0201701N003110051019N0100001N1+02741+02311101001ADDAA199000091AY121031AY221031GA1021+004809089GA2041+005109069GF107991051081004501061001MA1999999100911MD1710071+9999MW1151REMSYN106AAXX  11034 97760 31460 71706 10274 20231 30091 40100 57007 71522 85860 333 56000 57800 82816 84617 86460;EQDQ01  00002PRCP99
0210977600999992000082400004-03660+133750FM-12+0003WASK V0201701N003110450019N0150001N1+02821+02441101111ADDAA199000091GF106991021021004501051021KA1240N+02441MA1999999101021MD1210181+9999REMSYN100AAXX  24004 97760 32465 61706 10282 20244 30102 40111 52018 82252 333 20244 55/// 56000 57801 82816;EQDQ01  00002PRCP99
0207977600999992000082503004-03660+133750FM-12+0003WASK V0201801N004119999999N0140001N1+02841+02401101071ADDAA199000091GA1041+004809089GF106991041021004501001001MA1999999100971MD1410001+9999REMSYN094AAXX  25034 97760 32464 61808 10284 20240 30097 40107 54000 84200 333 56400 57841 84816 85360;EQDQ01  00002PRCP99
0235977600999992000091106004-03660+133750FM-12+0003WASK V0201701N00621105001CN0100001N1+02941+02501100711ADDAA199000091AY121061AY221061GA1041+004809089GF107991041081004501001021MA1999999100621MD1710151+9999MW1051REMSYN100AAXX  11064 97760 31460 71712 10294 20250 30062 40071 57015 70522 84802 333 56000 57801 84816 86080;EQDQ01  00002PRCP99
0207977600999992000091506004-03660+133750FM-12+0003WASK V0201801N002112200019N0080001N1+02901+02501100821ADDAA199000091GA1031+004809089GF104991031021004501001021MA1999999100721MD1710201+9999REMSYN094AAXX  15064 97760 32458 41804 10290 20250 30072 40082 57020 83202 333 56400 57841 83816 84080;EQDQ01  00002PRCP99
0201977600999992000101909004-03660+133750FM-12+0003WASK V0201801N001512200019N0200001N1+02901+02381100851ADDAA199000091GA1011+005409029GF101991011021004501041021MA1999999100751MD1210081+9999REMSYN088AAXX  19094 97760 32470 11803 10290 20238 30075 40085 52008 81242 333 56000 57842 81818;EQDQ01  00002PRCP99
0202977800999992000010900004-03920+136370FM-12+1770WABT V0209999C00001004201CN0100001N1+01861+01641999999ADDAA124001091AY151061AY241061GA1021+004509099GF107991051091004501021091GJ104029KA1240N+01481MW1151REMSYN094AAXX  09004 97780 12460 70000 10186 20164 4//// 60014 71554 85929 333 20148 55067 82915 85616;
0181977800999992000020609004-03920+136370FM-12+1770WABT V0209999C00001004201CN0120001N1+01861+01661999999ADDAA103033091AY181031AY241031GA1031+005109099GF108991061091004501999999MW1501REMSYN094AAXX  06094 97780 21462 80000 10186 20166 4//// 75084 869// 333 56400 57942 60337 83917 86820;
0228977800999992000022412004-03920+136370FM-12+1770WABT V0209999C000010060019N0080001N1+01721+01581999999ADDAA103004091AY191061AY261061GA1021+004509099GA2051+006009089GF108991051091004501061031KA1240M+02301MW1131REMSYN112AAXX  24124 97780 /1458 80000 10172 20158 4//// 60011 71396 85963 333 10230 56000 57900 60047 82915 85820 87358;
0147977800999992000022421004-03920+136370FM-12+1770WABT V0209999C000010450019N0100001N1+01451+01401999999ADDAA124000791GA1011+004509099GF106991041091004501041021REMSYN082AAXX  24214 97780 32460 60000 10145 20140 4//// 84942 333 56000 79999 81915 84616;
0203977800999992000030909004-03920+136370FM-12+1770WABT V0202701N002110060019N0070001N1+01731+01601999999ADDAA103001091AY151031AY241031GA1031+004809099GA2031+006009069GF107991051091004501061031MW1911REMSYN100AAXX  09094 97780 21457 72704 10173 20160 4//// 79154 85963 333 56700 60017 79999 83916 83620 85459;
0203977800999992000032009004-03920+136370FM-12+1770WABT V0209999C000010060019N0070001N1+01731+01631999999ADDAA103005091AY151031AY241031GA1031+004809099GA2031+006009069GF108991061091004501061001MW1501REMSYN100AAXX  20094 97780 21457 80000 10173 20163 4//// 75054 86960 333 56000 60057 79999 83916 83620 86458;
0147977800999992000032806004-03920+136370FM-12+1770WABT V0202801N003110450019N0150001N1+02281+01641999999ADDAA124000791GA1021+004209089GF106991041091004501021021REMSYN082AAXX  28064 97780 32465 62806 10228 20164 4//// 84922 333 56700 79999 82814 84615;
0208977800999992000033000004-03920+136370FM-12+1770WABT V0209999C000010450019N0150001N1+01721+01501999999ADDAA124003091AY141061AY221061GA1021+004209099GF106991041091004501021091GJ101929KA1240N+01491MW1011REMSYN100AAXX  30004 97780 12465 60000 10172 20150 4//// 60034 70142 84929 333 20149 55032 56000 82914 84615;
0197977800999992000040509004-03920+136370FM-12+1770WABT V0209999C00001004201CN0070001N1+01841+01771999999ADDAA103999929AY151031AY241031GA1021+004809099GA2021+006009069GF108991061091004501061001MW1911REMSYN094AAXX  05094 97780 21457 80000 10184 20177 4//// 79154 86960 333 56000 69907 82916 82620 85457;
0222977800999992000042112004-03920+136370FM-12+1770WABT V0209999C000010063019N0070001N1+01651+01611999999ADDAA103002091AY191061AY261061GA1031+004809099GA2031+006309079GF108991061091004501061001KA1240M+02251MW1501REMSYN106AAXX  21124 97780 11457 80000 10165 20161 4//// 60151 75096 86960 333 10225 56000 60027 83916 83721 86457;
0154977800999992000091903004-03910+136370FM-12+1770WABT V0202701N004110450019N0150001N1+02151+01661999999ADDAA199000091GA1041+004209029GF105991031081004501041021REMSYN070AAXX  19034 97780 32465 52708 10215 20166 4//// 83842 333 56700 84814;EQDQ01  00002PRCP99
0202977800999992000101100004-03910+136370FM-12+1770WABT V0209999C00001004801CN0100001N1+01801+01571999999ADDAA124002091GA1021+004509099GA2031+004809069GF107991041091004501021081GJ101329KA1240N+01491REMSYN100AAXX  11004 97780 11460 70000 10180 20157 4//// 60024 84928 333 20149 55022 56000 82915 83616 85360;
0202977800999992000101300004-03910+136370FM-12+1770WABT V0209999C00001004501CN0130001N1+01861+01621999999ADDAA124014091GA1021+004209099GA2031+004509069GF106991041091004501021091GJ100789KA1240N+01481REMSYN100AAXX  13004 97780 12463 60000 10186 20162 4//// 60144 84929 333 20148 55013 56000 82914 83615 85361;
0197977800999992000102409004-03910+136370FM-12+1770WABT V0209999C000010048019N0080001N1+01741+01641999999ADDAA103015091GA1041+004209099GA2051+004809069GA3081+030009049GF108991051091004501071999REMSYN100AAXX  24094 97780 12458 80000 10174 20164 4//// 60157 8597/ 333 56000 57900 84914 85616 88460 80900;
0182977800999992000110506004-03910+136370FM-12+1770WABT V0200801N002610051019N0130001N1+02161+01651999999ADDAA199000091GA1021+004809099GA2031+005109069GF107991051091004501071031REMSYN082AAXX  05064 97780 32463 70805 10216 20165 4//// 85973 333 56200 82916 83617 85359;EQDQ01  00002PRCP99
0160977800999992000111603004-03910+136370FM-12+1770WABT V0202901N00511045001CN0160001N1+02381+01511999999ADDAA199000091GA1021+003909089GF105991031081004501041021REMSYN076AAXX  16034 97780 32466 52910 10238 20151 4//// 83842 333 56700 82813 85362;EQDQ01  00002PRCP99
0272977900999992000031106004-04530+129900FM-12+000499999V0203101N001010240019N0080001N1+02701+02251100601ADDAA103007091AY161061AY221061GA1011+005409089GA2031+005709069GA3061+024009049GF108991041081004501071999MA1999999100391MD1710181+9999MW1601REMSYN124AAXX  11064 97790 11458 83102 10270 20225 30039 40060 57018 60071 76062 8487/ 333 56609 57862 60077 81818 83619 86458 80858;
0258977900999992000052100004-04530+129900FM-12+000499999V0200601N001510450019N0090001N1+02841+02551100991ADDAA103001091AA224002091AY161061AY221061GA1031+006009089GF105991031021008001031021GJ103069KA1240N+02301MA1999999100791MW1051REMSYN124AAXX  21004 97790 /1559 50603 10284 20255 30079 40099 5//// 60024 70562 83232 333 20230 50070 55051 56200 60017 83820 80858;
0272977900999992000060506004-04530+129900FM-12+000499999V0201801N003610240019N0090001N1+02651+02351100741ADDAA103000691AY161061AY221061GA1011+005109089GA2031+005409069GA3051+024009049GF107991041081004501071001MA1999999100541MD1710151+9999MW1051REMSYN124AAXX  05064 97790 /1459 71807 10265 20235 30054 40074 57015 60011 70562 84870 333 56300 57833 69967 81817 83618 85458 80858;
0263977900999992000060600004-04530+129900FM-12+000499999V0201201N00261024001CN0070001N1+02681+02381100981ADDAA124010991AY121061AY221061GA1031+005409089GA2061+024009049GF107991051081004501071001GJ100009KA1240N+02321MA1999999100781MW1051REMSYN124AAXX  06004 97790 11457 71205 10268 20238 30078 40098 5//// 60114 70522 85870 333 20232 50010 55000 56300 83818 86458 80860;
0248977900999992000071100004-04520+129890FM-12+000499999V0201501N003112200019N0090001N1+02771+02341101061ADDAA199000091AY111061AY211061GA1021+005709089GF103991021011004501001021GJ106009KA1240N+02271MA1999999100851MW1051REMSYN106AAXX  11004 97790 31459 31506 10277 20234 30085 40106 70511 82102 333 20227 50510 55100 56300 82819 80858;EQDQ01  00002PRCP99
0235977900999992000071503004-04520+129890FM-12+000499999V0201701N002611050019N0090001N1+02791+02111101181ADDAA199000091AY121031AY211031GA1031+005709089GF105991041081004501001021MA1999999100971MD1810021+9999MW1051REMSYN100AAXX  15034 97790 31459 51705 10279 20211 30097 40118 58002 70521 84802 333 56300 57832 83819 80858;EQDQ01  00002PRCP99
0268977900999992000090200004-04520+129890FM-12+000499999V0201501N003612200019N0080001N1+02761+02321101121ADDAA199000091AY111061AY211061GA1021+005709089GF103991021011004501031001GJ105049KA1240N+02181MA1999999100911MD1019999+9999MW1051REMSYN112AAXX  02004 97790 31458 31507 10276 20232 30091 40112 50/// 70511 82130 333 20218 50680 55084 56300 82819 80858;EQDQ01  00002PRCP99
0207977900999992000092309004-04520+129890FM-12+000499999V0209999C000010450019N0120001N1+02841+02371100821ADDAA199000091GA1021+006009089GF105991031021008001031021MA1999999100621MD1510001+9999REMSYN094AAXX  23094 97790 32562 50000 10284 20237 30062 40082 55000 83232 333 56300 57833 82820 80858;EQDQ01  00002PRCP99
0257977900999992000101100004-04520+129890FM-12+000499999V0200801N00721024001CN0100001N1+02801+02481100941ADDAA124000891AY121061AY221061GA1021+005709089GA2041+024009039GF107991041081004501071021GJ104209KA1240N+02241MA1999999100731MW1051REMSYN118AAXX  11004 97790 11460 70814 10280 20248 30073 40094 69984 70522 84872 333 20224 50460 55070 56300 82819 84358 80858;
0222977900999992000111203004-04520+129890FM-12+000499999V0209999C000010450019N0120001N1+02991+02601100571ADDAA103011091AY161031AY221031GA1021+005409089GF106991041081004501031021MA1999999100361MD1810071+9999MW1051REMSYN106AAXX  12034 97790 21462 60000 10299 20260 30036 40057 58007 70562 84832 333 56000 57802 60117 82818 80858;
0229977900999992000112909004-04520+129890FM-12+000499999V0202801N00311045001CN0120001N1+02811+02411100341ADDAA199000091GA1011+005709089GA2031+024009039GF107991021081004501071021MA1999999100131MD1210091+9999REMSYN100AAXX  29094 97790 32462 72806 10281 20241 30013 40034 52009 82872 333 56600 57862 81819 83358 80858;EQDQ01  00002PRCP99
0281977960999992000010812004-04720+136430FM-12+0003WABN V0209999C00001005101CN0050001N1+02721+02521100781ADDAA106000091GA1021+004809099GA2041+005109069GA3061+033009049GF108991999999004501999999KA1240M+03321MA1999999100341MD1210211-0041REMSYN123AAXX  08124 97796 31450 80000 10272 20252 30034 40078 52021 1502 8697/ 333 10332 56009 57901 59004 82916 84617 86461 80980;EQDQ01  00002PRCP06
0271977960999992000011100004-04720+136430FM-12+0003WABN V0201001N00261036001CN0120001N1+02561+02321100801ADDAA124074991GA1011+004809099GA2021+005109069GA3061+036009039GF107991021091004501061081GJ100429KA1240N+02221MA1999999100411MD1210141+9999REMSYN124AAXX  11004 97796 12462 71005 10256 20232 30041 40080 52014 60754 82968 333 20222 55007 56000 57902 81916 82617 86362 80980;
0264977960999992000011603004-04720+136430FM-12+000399999V0202601N00101005101CN0100001N1+03001+02331100941ADDAA199000021AY121031AY221031GA1021+004809099GA2031+005109089GA3061+036009039GF107991041091004501061021MA1999999100551MD1710201+9999MW1051REMSYN116    AAXX  16034 97796 31460 72602 10300 20233 30055 40094 57020 70522 84962 333 56000 57901 82916 83817 86362 80980;
0279977960999992000012006004-04720+136430FM-12+0003WABN V0202001N001510360019N0100001N1+03191+02301100851ADDAA199000091AY121061AY221061GA1011+004809099GA2031+005109089GA3061+036009039GF106991041091004501031021MA1999999100471MD1710251+9999MW1051REMSYN112AAXX  20064 97796 31460 62003 10319 20230 30047 40085 57025 70522 84932 333 56000 57901 81916 83817 86362 80980;EQDQ01  00002PRCP99
0257977960999992000020203004-04720+136430FM-12+0003WABN V0202201N004110048019N0100001N1+02991+02561100961ADDAA199000091AY121031AY221031GA1021+004509099GA2041+004809089GF107991051091004501061021MA1999999100571MD1710141+9999MW1151REMSYN106AAXX  02034 97796 31460 72208 10299 20256 30057 40096 57014 71522 85962 333 56500 57901 82915 84816 80980;EQDQ01  00002PRCP99
0286977960999992000022812004-04720+136430FM-12+0003WABN V0203301N00211005101CN0070001N1+02451+02361100951ADDAA103005091AA206006191AY191061AY261061GA1021+004809099GA2041+005109069GF108991061091004501071999KA1240M+03251MA1999999100561MD1210291+0081MW1211REMSYN130AAXX  28124 97796 31457 83304 10245 20236 30056 40095 52029 60061 72196 8697/ 333 10325 56009 57900 58008 60057 82916 84617 86461;
0279977960999992000030503004-04720+136430FM-12+0003WABN V0201201N003110360019N0100001N1+02871+02301101031ADDAA199000091AY121031AY221031GA1011+004809099GA2021+005109069GA3051+036009039GF107991031091004501031021MA1999999100651MD1810181+9999MW1051REMSYN112AAXX  05034 97796 31460 71206 10287 20230 30065 40103 58018 70522 83932 333 56000 57902 81916 82617 85362 80975;EQDQ01  00002PRCP99
0257977960999992000032815004-04720+136430FM-12+0003WABN V0209999C000010450019N0070001N1+02501+02381101101ADDAA199000091AY121031AY211031GA1011+004809099GA2031+005109069GF106991041091004501031021MA1999999100711MD1010001+9999MW1131REMSYN106AAXX  28154 97796 31457 60000 10250 20238 30071 40110 50000 71321 84932 333 56000 57902 81916 83617 80980;EQDQ01  00002PRCP99
0286977960999992000040212004-04720+136430FM-12+0003WABN V0203501N00361004801CN0050001N1+02501+02411100931ADDAA103003091AA206003091AY191061AY261061GA1021+004509099GA2051+004809069GF108991051091004501071999KA1240M+03341MA1999999100551MD1210341+0131MW1611REMSYN130AAXX  02124 97796 /1450 83507 10250 20241 30055 40093 52034 60031 76196 8597/ 333 10334 56009 57900 58013 60037 82915 85616 80980;
0244977960999992000050609004-04720+136430FM-12+0003WABN V0203501N002610048019N0070001N1+02501+02411100921ADDAA103002091AY161031AY261031GA1021+004509099GA2061+004809069GF108991061091004501071999MA1999999100541MD1210171+9999MW1611REMSYN112AAXX  06094 97796 21457 83505 10250 20241 30054 40092 52017 76166 8697/ 333 56009 57901 60027 82915 86616 80980;
0279977960999992000051503004-04720+136430FM-12+0003WABN V0201701N00411036001CN0100001N1+03081+02421101121ADDAA199000091AY121031AY221031GA1011+004509099GA2041+004809089GA3061+036009039GF107991051091004501061021MA1999999100741MD1810081+9999MW1051REMSYN112AAXX  15034 97796 31460 71708 10308 20242 30074 40112 58008 70522 85962 333 56000 57902 81915 84816 86362 80980;EQDQ01  00002PRCP99
0295977960999992000072315004-04720+136430FM-12+0003WABN V0209999C000010330019N0080001N1+02361+02311101281ADDAA199000091AY121031AY211031GA1011+004809099GA2021+005109069GA3051+033009039GF105991031091004501031021MA1999999100092MD1210031+9999MW1051REMSYN112AAXX  23154 97796 31458 50000 10236 20231 30009 40128 52003 70521 83932 333 56000 57902 81916 82617 85361 81916;EQDQ01+100093APOSP Q02  00002PRCP99
0285977960999992000073109004-04720+136430FM-12+0003WABN V0200401N00211003901CN0050001N1+02461+02261100981ADDAA103001091AY161031AY221031GA1051+003909079GA2021+004509099GA3071+033009039GF108991061091004501071999MA1999999100591MD1210021+9999MW1211REMSYN118AAXX  31094 97796 21450 80404 10246 20226 30059 40098 52062 72162 8697/ 333 56009 57901 60017 82915 85713 87361 80980;EQDQ01+000622APC3  
0304977960999992000081112004-04720+136430FM-12+0003WABN V0201201N00151036001CN0080001N1+02431+02311101191ADDAA199000091AY121061AY221061GA1011+004809099GA2031+005109069GA3061+036009039GF107991041091004501061021KA1240M+02981MA1999999100801MD1210241+0121MW1051REMSYN124AAXX  11124 97796 31458 71203 10243 20231 30080 40119 52024 70522 84962 333 10298 56000 57902 58012 81916 83617 86362 80980;EQDQ01  00002PRCP99
0233977960999992000082100004-04720+136430FM-12+0003WABN V0201701N001010042019N0080001N1+02441+02321101191ADDAA124000791AY161061AY221061GF107991051051004501061021GJ100009KA1240N+02281MA1999999100801MD1210221+0011MW1051REMSYN112AAXX  21004 97796 11458 71702 10244 20232 30080 40119 52022 69904 70562 85562 333 20228 55000 56000 58001 85816;
0257977960999992000082906004-04720+136430FM-12+0003WABN V0201701N002610051019N0090001N1+03021+02321100821ADDAA199000091AY121061AY221061GA1021+004809099GA2051+005109089GF107991051091004501031021MA1999999100431MD1710241+9999MW1051REMSYN106AAXX  29064 97796 31459 71705 10302 20232 30043 40082 57024 70522 85932 333 56000 57901 82916 85817 80980;EQDQ01  00002PRCP99
0299977960999992000090100004-04720+136430FM-12+0003WABN V0209999C00001036001CN0120001N1+02621+02231101401ADDAA124004191AY121061AY221061GA1011+004809099GA2031+005109089GA3051+036009039GF106991031091004501031021GJ100909KA1240N+02281MA1999999101011MD1310191+9999MW1051REMSYN130AAXX  01004 97796 11462 60000 10262 20223 30101 40140 53019 60044 70522 83932 333 20228 55015 56000 57902 81916 83817 85362 80980;
0279977960999992000092903004-04720+136430FM-12+0003WABN V0201501N002610900019N0110001N1+03041+02341101191ADDAA199000091AY121031AY221031GA1011+004809099GA2041+005109089GA3061+090009009GF107991041091004501031021MA1999999100801MD1710171+9999MW1051REMSYN112AAXX  29034 97796 31461 71505 10304 20234 30080 40119 57017 70522 84932 333 56000 57901 81916 84817 86080 80980;EQDQ01  00002PRCP99
0299977960999992000100700004-04720+136430FM-12+0003WABN V0200201N00151036001CN0080001N1+02721+02401101111ADDAA124002091AY121061AY221061GA1011+004509099GA2041+004809089GA3061+036009039GF107991051091004501061021GJ103609KA1240N+02331MA1999999100731MD1210221+9999MW1051REMSYN130AAXX  07004 97796 11458 70203 10272 20240 30073 40111 52022 60024 70522 85962 333 20233 55060 56000 57902 81915 84816 86362 80980;
0277977960999992000101200004-04720+136430FM-12+0003WABN V0209999C000010450019N0100001N1+02781+02461101201ADDAA124002091AY121061AY221061GA1011+004809099GA2031+005109089GF106991031091004501031021GJ102349KA1240N+02451MA1999999100821MD1210161+9999MW1051REMSYN124AAXX  12004 97796 11460 60000 10278 20246 30082 40120 52016 60024 70522 83932 333 20245 55039 56000 57901 81916 83817 80980;
0216978760999992000012106004-06100+140300FM-12+0016WAKT V0209999C000010450019N0100001N1+02621+02381100811ADDAA103003091AY121061AY221061GA1041+002709059GF106991041051004501031011MA1999999100481MD1610251+9999MW1211REMSYN100AAXX  21064 97876 /1460 60000 10262 20238 30048 40081 56025 69941 72122 84531 333 56000 60037 84609;
0222978760999992000021200004-06100+140300FM-12+0016WAKT V0209999C000012200019N0100001N1+02721+02341101071ADDAA103017091AA224039991GF103991021051002501031011GJ102349KA1240N+02341MA1999999100741MD1210051-0091REMSYN112AAXX  12004 97876 /2360 30000 10272 20234 30074 40107 52005 60404 82531 333 20234 55039 56000 59009 60177 82612;
0207978760999992000031706004-06100+140300FM-12+0016WAKT V0203201N001512200019N0120001N1+03241+02311100461ADDAA199000091GA1031+003009089GF104991031021002501031011MA1999999100141MD1610261+9999REMSYN094AAXX  17064 97876 32362 43203 10324 20231 30014 40046 56026 83231 333 56000 57809 83810 80850;EQDQ01  00002PRCP99
0226978760999992000032912004-06100+140300FM-12+0016WAKT V0209999C00001004201CN0040001N1+02501+02381101111ADDAA199000091GA1021+002409099GF107991061091004501031001KA1240M+03241MA1999999100791MD1110381-0041REMSYN100AAXX  29124 97876 32440 70000 10250 20238 30079 40111 51038 86930 333 10324 56000 59004 82908 84610;EQDQ01  00002PRCP99
0207978760999992000040506004-06100+140300FM-12+0016WAKT V0209999C000012200019N0100001N1+03201+02391100451ADDAA199000091GA1041+003009099GF104991041091004501001011MA1999999100131MD1610321+9999REMSYN094AAXX  05064 97876 32460 40000 10320 20239 30013 40045 56032 84901 333 56000 57904 84910 80960;EQDQ01  00002PRCP99
0195978760999992000042206004-06100+140300FM-12+0016WAKT V0209999C000010036019N0120001N1+03121+02431100731ADDAA199000091GA1051+003609059GF106991051051004501031011MA1999999100411MD1610211+9999REMSYN082AAXX  22064 97876 32462 60000 10312 20243 30041 40073 56021 85531 333 56000 85612;EQDQ01  00002PRCP99
0218978760999992000061900004-06100+140290FM-12+0016WAKT V0201001N002110042019N0090001N1+02661+02361101191ADDAA199000091GF106991051051004501031011GJ100969KA1240N+02401MA1999999100871MD1110111-0091REMSYN100AAXX  19004 97876 32459 61004 10266 20236 30087 40119 51011 85531 333 20240 55016 56000 59009 85609;EQDQ01  00002PRCP99
0215978760999992000062500004-06100+140290FM-12+0016WAKT V0201101N002610027019N0080001N1+02601+02241101121ADDAA124004191GA1051+002709059GF107991051051002501031011GJ100009KA1240N+02361MA1999999100801MD1210111-0071REMSYN100AAXX  25004 97876 12358 71105 10260 20224 30080 40112 52011 60044 85531 333 20236 55000 59007 85609;
0195978760999992000103009004-06100+140290FM-12+0016WAKT V0209999C000010030019N0120001N1+03001+02391100651ADDAA199000091GA1051+003009059GF106991051051004501031011MA1999999100321MD1510031+9999REMSYN082AAXX  30094 97876 32462 60000 10300 20239 30032 40065 55003 85531 333 56000 85610;EQDQ01  00002PRCP99
0220978760999992000110912004-06100+140290FM-12+0016WAKT V0209999C000012200019N0070001N1+02481+02391101031ADDAA199000091GA1021+003909059GF103991021051004501031011KA1240M+02981MA1999999100711MD1210131-0041REMSYN094AAXX  09124 97876 32457 30000 10248 20239 30071 40103 52013 82531 333 10298 56000 59004 82613;EQDQ01  00002PRCP99
0282978760999992000111912004-06100+140290FM-12+0016WAKT V0203501N001510450019N0040001N1+02721+02491100751ADDAA199000091AY121061AY221061GA1011+003009099GA2031+003609069GF105991041091004501031011KA1240M+03341MA1999999100431MD1210201-0061MW1131REMSYN118AAXX  19124 97876 31440 53503 10272 20249 30043 40075 52020 71322 84931 333 10334 56000 57901 59006 81910 83612 80963;EQDQ01  00002PRCP99
0263978760999992000112109004-06100+140290FM-12+0016WAKT V0202901N002110036019N0080001N1+02601+02391100611ADDAA103999999AY191031AY221031GA1021+003009099GA2031+003609069GF106991051091004501031011MA1999999100281MD1210151+9999MW1171REMSYN112AAXX  21094 97876 21458 62904 10260 20239 30028 40061 52015 71792 85931 333 56000 57901 69907 82910 83612 80960;EQDQ01  99992PRCP03
0244978760999992000112903004-06100+140290FM-12+0016WAKT V0201601N002610033019N0060001N1+02541+02501100531ADDAA103008091AY121031AY221031GA1021+002409099GA2051+003309069GF108991071091002501031999MA1999999100201MD1710201+9999MW1211REMSYN112AAXX  29034 97876 21356 81605 10254 20250 30020 40053 57020 72122 8793/ 333 56009 57902 60087 82908 85611 80958;
0195978760999992000122509004-06100+140290FM-12+0016WAKT V0201701N001510039019N0100001N1+03001+02511100731ADDAA199000091GA1051+003909059GF106991051051004501031011MA1999999100411MD1110161+9999REMSYN082AAXX  25094 97876 32460 61703 10300 20251 30041 40073 51016 85531 333 56000 85613;EQDQ01  00002PRCP99
0205978760999992000122900004-06100+140290FM-12+0016WAKT V0203001N001510042019N0100001N1+02641+02371100801ADDAA124007191GF106991051051004501031021GJ103009KA1240N+02341MA1999999100481MD1210121-0041REMSYN106AAXX  29004 97876 12460 63003 10264 20237 30048 40080 52012 60074 85532 333 20234 55050 56000 59004 85615;
0241979000999992000010815004-07980+131300FM-12+0024WAPI V0209999C00001105001CN0100001N1+02681+02521100941ADDAA106000091AY111031AY211031GA1021+005109099GF105991031091004501001051MA1999999100631MD1210081+9999MW1131REMSYN106AAXX  08154 97900 31460 50000 10268 20252 30063 40094 52008 71311 83905 333 56000 57903 82917 80980 85275;EQDQ01  00002PRCP06
0257979000999992000010906004-07980+131300FM-12+0024WAPI V0202101N005110300019N0200001N1+03041+02541100911ADDAA106000091AY121061AY221061GA1021+005109099GA2071+030009049GF107991031091004501021001MA1999999100601MD1710051+9999MW1171REMSYN106AAXX  09064 97900 31470 72110 10304 20254 30060 40091 57005 71722 83920 333 56500 57952 82917 87460 80980;EQDQ01  00002PRCP06
0244979000999992000012603004-07980+131300FM-12+0024WAPI V0202401N004610300019N0180001N1+03041+02681100921ADDAA103003091AY161031AY221031GA1021+005109099GA2051+030009039GF106991031091004501071051MA1999999100611MD1610071+9999MW1211REMSYN112AAXX  26034 97900 21468 62409 10304 20268 30061 40092 56007 72162 83975 333 56600 57963 60037 82917 85360 80980;
0229979000999992000021118004-07980+131300FM-12+0024WAPI V0202701N002610750019N0120001N1+02681+02511100971ADDAA199000091GA1021+005109099GA2061+075009029GF106991031091004501001061MA1999999100671MD1610021+9999REMSYN100AAXX  11184 97900 32462 62705 10268 20251 30067 40097 56002 83906 333 56600 57963 82917 86275 80980;EQDQ01  00002PRCP99
0257979000999992000022406004-07980+131300FM-12+0024WAPI V0203301N004110300019N0100001N1+02931+02551100811ADDAA199000091AY191061AY221061GA1041+004509099GA2081+030009049GF108991051091004501021999MA1999999100501MD1610051+9999MW1291REMSYN106AAXX  24064 97900 31460 83308 10293 20255 30050 40081 56005 72992 8592/ 333 56709 57971 84915 88460 80980;EQDQ01  00002PRCP99
0240979000999992000022700004-07980+131300FM-12+0024WAPI V0209999C000010450019N0170001N1+02771+02541100891ADDAA199000091GA1021+006009089GF107991021011008001011011GJ105829KA1240N+02551MA1999999100581MD1710111+9999REMSYN106AAXX  27004 97900 32567 70000 10277 20254 30058 40089 57011 82111 333 20255 50520 55097 56600 82820 87460;EQDQ01  00002PRCP99
0222979000999992000022809004-07980+131300FM-12+0024WAPI V0202701N00411004201CN0100001N1+02811+02591100731ADDAA103002091AY121031AY221031GA1021+004509099GF107991051091004501071051MA1999999100421MD1010001+9999MW1211REMSYN106AAXX  28094 97900 21460 72708 10281 20259 30042 40073 50000 72122 85975 333 56600 57962 60027 82915 86458;
0210979000999992000031521004-07980+131300FM-12+0024WAPI V0203001N003610300019N0150001N1+02501+02361100731ADDAA199000021GA1021+006009089GA2041+030009049GF105991021021008001021051MA1999999100421MD1610031+9999REMSYN100AAXX  15214 97900 32565 53007 10250 20236 30042 40073 56003 82225 333 56700 57874 82820 84460 80873;
0213979000999992000041821004-07980+131300FM-12+0024WAPI V0209999C00001220001CN0150001N1+02501+02471101121ADDAA199000091GA1011+006009089GF106991011011008001001061MA1999999100811MD1610021+9999REMSYN100AAXX  18214 97900 32565 60000 10250 20247 30081 40112 56002 81106 333 56000 57805 81820 80873 86275;EQDQ01  00002PRCP99
0257979000999992000050509004-07980+131300FM-12+0024WAPI V0201301N004110060019N0120001N1+02851+02281101181ADDAA199000091AY121031AY221031GA1021+005109099GA2051+006009089GF107991051091004501071051MA1999999100871MD1510001+9999MW1151REMSYN106AAXX  05094 97900 31462 71308 10285 20228 30087 40118 55000 71522 85975 333 56200 57921 82917 85820 80980;EQDQ01  00002PRCP99
0223979000999992000052821004-07980+131300FM-12+0024WAPI V0201301N006710051019N0130001N1+99999+99999101161ADDAA199000091GA1051+005109069GA2081+030009049GF108991051081004501021999MA1999999100851MD1110021+9999REMSYN094AAXX  28214 97900 32463 81313 20213 30085 40116 51002 8582/ 333 56309 57831 85617 88460 80873;EQDQ01  00002PRCP99
0229979000999992000061618004-07980+131290FM-12+0024WAPI V0201201N004110300019N0130001N1+02601+02181101371ADDAA199000091GA1031+006009089GA2041+030009049GF107991021021008001071001MA1999999101061MD1610031+9999REMSYN100AAXX  16184 97900 32563 71208 10260 20218 30106 40137 56003 82270 333 56200 57822 83820 84460 80873;EQDQ01  00002PRCP99
0207979000999992000071809004-07980+131290FM-12+0024WAPI V0201201N004612200019N0160001N1+02521+01811101271ADDAA199000091GA1031+006009089GF103991031021008001001001MA1999999100961MD1710091+9999REMSYN094AAXX  18094 97900 32566 31209 10252 20181 30096 40127 57009 83200 333 56200 57825 83820 80857;EQDQ01  00002PRCP99
0207979000999992000071909004-07980+131290FM-12+0024WAPI V0201301N00311009001CN0180001N1+02541+01951101171ADDAA199000091GA1041+005109069GF106991051081004501031051MA1999999100861MD1610101+9999REMSYN094AAXX  19094 97900 32468 61306 10254 20195 30086 40117 56010 85835 333 56200 57822 84617 80873;EQDQ01  00002PRCP99
0207979000999992000090603004-07980+131290FM-12+0024WAPI V0201401N002610060019N0180001N1+02961+02371101371ADDAA199000091GA1051+006009089GF105991051021008001001001MA1999999101061MD1010101+9999REMSYN094AAXX  06034 97900 32568 51405 10296 20237 30106 40137 50010 85200 333 56300 57832 85820 80857;EQDQ01  00002PRCP99
0232979000999992000092112004-07980+131290FM-12+0024WAPI V0201201N00361006001CN0130001N1+02661+02361101331ADDAA199000091GA1061+006009089GF106991061021008001001001KA1240M+03061MA1999999101031MD1110061+0091REMSYN106AAXX  21124 97900 32563 61207 10266 20236 30103 40133 51006 86200 333 10306 56200 57821 58009 86820 80856;EQDQ01  00002PRCP99
0207979000999992000092615004-07980+131290FM-12+0024WAPI V0200901N002612200019N0100001N1+02601+02301101391ADDAA199000091GA1041+006009089GF104991041021008001001001MA1999999101081MD1210011+9999REMSYN094AAXX  26154 97900 32560 40905 10260 20230 30108 40139 52001 84200 333 56200 57822 84820 80850;EQDQ01  00002PRCP99
0213979000999992000092909004-07980+131290FM-12+0024WAPI V0200901N00311009001CN0160001N1+02701+02391101331ADDAA199000091GA1041+005109069GF107991051081004501021001MA1999999101031MD1310011+9999REMSYN100AAXX  29094 97900 32466 70906 10270 20239 30103 40133 53001 85820 333 56200 57821 84617 80859 87460;EQDQ01  00002PRCP99
0235979000999992000110206004-07980+131290FM-12+0024WAPI V0201401N004111050019N0100001N1+03181+02541101071ADDAA199000091AY121061AY211061GA1041+004509089GF107991041021004501001071MA1999999100761MD1310031+9999MW1151REMSYN100AAXX  02064 97900 31460 71408 10318 20254 30076 40107 53003 71521 84207 333 56400 57841 84815 80859;EQDQ01  00002PRCP99
0257979000999992000110609004-07980+131290FM-12+0024WAPI V0203301N004110060019N0120001N1+03121+02501100951ADDAA199000091AY121031AY221031GA1041+004509069GA2061+006009089GF107991061081004501001051MA1999999100641MD1610011+9999MW1151REMSYN106AAXX  06094 97900 31462 73308 10312 20250 30064 40095 56001 71522 86805 333 56800 57881 84615 86820 80859;EQDQ01  00002PRCP99
0240979000999992000111700004-07980+131290FM-12+0024WAPI V0201501N00361006001CN0200001N1+03131+02531100831ADDAA199000091GA1051+006009089GF105991051021008001001001GJ106909KA1240N+02501MA1999999100521MD1110081+9999REMSYN106AAXX  17004 97900 32570 51507 10313 20253 30052 40083 51008 85200 333 20250 50900 55115 56200 85820 80850;EQDQ01  00002PRCP99
0216979000999992000112715004-07980+131290FM-12+0024WAPI V0202401N00211045001CN0060001N1+02361+02311100931ADDAA103000391AY161031AY221031GA1031+005709069GF108991041091004501021999MA1999999100621MD1210081+9999MW1021REMSYN100AAXX  27154 97900 21456 82404 10236 20231 30062 40093 52008 70262 8492/ 333 56000 69937 83619 86460;
0228979000999992000121715004-07980+131290FM-12+0024WAPI V0203401N00151045001CN0080001N1+02701+02561100931ADDAA103002091AY121031AY221031GA1031+004509099GF106991041091004501021001MA1999999100611MD1010001+9999MW1211REMSYN112AAXX  17154 97900 21458 63403 10270 20256 30061 40093 50000 72122 84920 333 56600 57962 60027 83915 80957 86460;
0203979800999992000010200004-08470+140380FM-12+0003WAKK V0203401N002612200019N0150001N1+02981+02491100751ADDAA124006191GF104991021011004501041021KA1240N+02421MA1999999100721MD1210191+9999REMSYN112AAXX  02004 97980 12465 43405 10298 20249 30072 40075 52019 60064 82142 333 20242 50020 55690 56000 79999 82818;
0227979800999992000022300004-08470+140380FM-12+0003WAKK V0203601N005110450019N0150001N1+02761+02501100801ADDAA124004191GA1031+005109089GF105991031021004501041021GJ101029KA1240N+02421MA1999999100771MD1410001+0041REMSYN112AAXX  23004 97980 12465 53610 10276 20250 30077 40080 54006 60044 83242 333 20242 55017 56000 58004 83817 85080;
0201979800999992000030706004-08470+140380FM-12+0003WAKK V0202101N00461045001CN0140001N1+03001+02481100681ADDAA199000091GA1031+005409089GF106991031011004501041081MA1999999100651MD1710211+9999REMSYN088AAXX  07064 97980 32464 62109 10300 20248 30065 40068 57021 83148 333 56500 83818 86276;EQDQ01  00002PRCP99
0216979800999992000031421004-08470+140380FM-12+0003WAKK V0203601N001510036019N0050001N1+02481+02451100611ADDAA103000891AY161031AY261031GA1061+003609029GF107991061081004501041021MA1999999100581MD1110061+9999MW1601REMSYN100AAXX  14214 97980 21450 73603 10248 20245 30058 40061 51006 76066 86842 333 56800 69987 79999 86812;
0207979800999992000041603004-08470+140380FM-12+0003WAKK V0203101N001510450019N0120001N1+03121+02551100651ADDAA199000091GA1041+005109089GF107991041081004501041021MA1999999100621MD1710221+9999REMSYN094AAXX  16034 97980 32462 73103 10312 20255 30062 40065 57022 84842 333 56000 57801 84817 80860;EQDQ01  00002PRCP99
0201979800999992000050615004-08470+140380FM-12+0003WAKK V0209999C00001045001CN0100001N1+02471+02391100991ADDAA199000091GA1031+005409089GF105991031011004501041021MA1999999100961MD1710021+9999REMSYN088AAXX  06154 97980 32460 50000 10247 20239 30096 40099 57002 83142 333 56000 83818 85080;EQDQ01  00002PRCP99
0182979800999992000050918004-08470+140380FM-12+0003WAKK V0209999C00001009001CN0100001N1+02501+02441100701ADDAA199000021GA1031+005109089GF107991061081004501041021MA1999999100671MD1710091+9999REMSYN088AAXX  09184 97980 32460 70000 10250 20244 30067 40070 57009 86842 333 56000 83817 84620;
0240979800999992000092000004-08470+140370FM-12+0003WAKK V0201401N006210090019N0120001N1+02481+02121101121ADDAA199000091GA1021+005109089GF106991051081004501041021GJ102709KA1240N+02161MA1999999101091MD1210151+9999REMSYN106AAXX  20004 97980 32462 61412 10248 20212 30109 40112 52015 85842 333 20216 50260 55045 53600 82817 83620;EQDQ01  00002PRCP99
0216979800999992000100706004-08470+140370FM-12+0003WAKK V0201201N00211009001CN0120001N1+02941+02421100511ADDAA106001091AY161061AY221061GA1031+005109089GF107991051081004501041021MA1999999100481MD1610201+9999MW1211REMSYN100AAXX  07064 97980 11462 71204 10294 20242 30048 40051 56020 60011 72162 85842 333 56000 83817 83620;
0272979800999992000101206004-08470+140370FM-12+0003WAKK V0201801N002610051019N0080001N1+02411+02321100611ADDAA103033091AY191061AY221061GA1021+004809099GA2041+005109089GA3071+075009029GF107991061091004501041071MA1999999100581MD1710161+9999MW1951REMSYN124AAXX  12064 97980 /1458 71805 10241 20232 30058 40061 57016 60331 79592 86947 333 56000 57901 60337 82916 84817 87275 80980;
0201979800999992000101418004-08470+140370FM-12+0003WAKK V0209999C00001105001CN0100001N1+02521+02401100831ADDAA199000091GA1021+005409089GF105991021021004501041021MA1999999100801MD1110021+9999REMSYN088AAXX  14184 97980 32460 50000 10252 20240 30080 40083 51002 82242 333 56000 82818 85080;EQDQ01  00002PRCP99
0201979800999992000111521004-08470+140370FM-12+0003WAKK V0209999C000012200019N0130001N1+02441+02391100541ADDAA199000091GA1021+005409089GF104991021021004501041021MA1999999100511MD1210091+9999REMSYN088AAXX  15214 97980 32463 40000 10244 20239 30051 40054 52009 82242 333 56000 82818 83080;EQDQ01  00002PRCP99
0226979800999992000120912004-08470+140370FM-12+0003WAKK V0200601N001012200019N0100001N1+02601+02421100681ADDAA199000091GA1011+005409089GF104991031081004501041021KA1240M+03361MA1999999100651MD1210181+0081REMSYN100AAXX  09124 97980 32460 40602 10260 20242 30065 40068 52018 83842 333 10336 56000 58008 81818 82620;EQDQ01  00002PRCP99
0262979800999992000121000004-08470+140370FM-12+0003WAKK V0202901N003610450019N0150001N1+03001+02601100891ADDAA199000091GA1011+005409089GA2031+006009069GF105991041081004501041021GJ101029KA1240N+02461MA1999999100861MD1210091+9999REMSYN112AAXX  10004 97980 32465 52907 10300 20260 30086 40089 52009 84842 333 20246 50460 55017 56000 81818 83620 85080;EQDQ01  00002PRCP99
0201979800999992000121121004-08470+140370FM-12+0003WAKK V0203601N00261105001CN0120001N1+02501+02381100661ADDAA199000091GA1011+005409089GF105991011011004501041021MA1999999100631MD1210161+9999REMSYN088AAXX  11214 97980 32462 53605 10250 20238 30063 40066 52016 81142 333 56000 81818 84080;EQDQ01  00002PRCP99
0182979800999992000122818004-08470+140370FM-12+0003WAKK V0203401N00411009001CN0080001N1+02441+02351100401ADDAA199000021GA1031+004809089GF107991061081004501041021MA1999999100371MD1710111+9999REMSYN088AAXX  28184 97980 32458 73408 10244 20235 30037 40040 57011 86842 333 56800 83816 84620;
0208981320999992000031915004+20800+121850FM-12+012499999V0200401N00701036001CN0180001N1+02331+02001101631ADDAA199000091AY141031AY241031GA1041+005109089GF108991041081004501071999MD1110231+9999MW1051REMSYN088AAXX  19151 98132 31468 80407 10233 20200 40163 51023 70544 8487/ 333 56199 84817 88357;EQDQ01  00002PRCP99
0220981320999992000040100004+20800+121850FM-12+012499999V0201801N00501036001CN0150001N1+02641+02481101271ADDAA199000091AY141061AY241061GA1041+004809089GF108991041081004501071999MD1310201-0131MW1051REMSYN100AAXX  01001 98132 31465 81805 10264 20248 40127 53020 70544 8487/ 333 20/// 56499 59013 84816 88357;EQDQ01  00002PRCP99
0157981320999992000051406004+20800+121850FM-12+012499999V0200901N005010360019N0080001N1+02481+02391101161ADDAA106021191AY141061AY241061GF108991041081004501021999MD1810101+9999MW1051REMSYN072AAXX  14061 98132 11458 80905 10248 20239 40116 58010 60211 70544 8482/;
0195981320999992000052106004+20800+121850FM-12+012499999V0200901N001010048019N0100001N1+02461+02411100881ADDAA106045091AY161061AY241061GA1051+004809089GF108991051081004501021999MD1810071+9999MW1151REMSYN094AAXX  21061 98132 11460 80901 10246 20241 40088 58007 60451 71564 8582/ 333 56999 85816 84457;
0208981320999992000052603004+20800+121850FM-12+012499999V0201801N00401090001CN0150001N1+02911+02481101031ADDAA199000091AY141031AY241031GA1031+005109089GF106991031021004501001021MD1810051+9999MW1051REMSYN088AAXX  26031 98132 31465 61804 10291 20248 40103 58005 70544 83202 333 56499 83817 85274;EQDQ01  00002PRCP99
0202981320999992000063015004+20790+121850FM-12+012499999V0200901N001012200019N0200001N1+02771+02551101111ADDAA199000091AY141031AY241031GA1011+005109029GF102991021021004501001001MD1110171+9999MW1051REMSYN082AAXX  30151 98132 31470 20901 10277 20255 40111 51017 70544 82200 333 56999 81817;EQDQ01  00002PRCP99
0170981320999992000071406004+20790+121850FM-12+012499999V0200901N006010042019N0180001N1+02931+02591100641ADDAA199000091AY141061AY241061GF107991051031004501061071MD1810071+9999MW1051REMSYN066AAXX  14061 98132 31468 70906 10293 20259 40064 58007 70544 85367;EQDQ01  00002PRCP99
0157981320999992000071412004+20790+121850FM-12+012499999V0200901N005010360019N0150001N1+02731+02591100711ADDAA106001091AY181061AY241061GF106991021081004501071001MD1310151+9999MW1051REMSYN072AAXX  14121 98132 11465 60905 10273 20259 40071 53015 60011 70584 82870;
0233981320999992000082109004+20790+121850FM-12+012499999V0203601N00501090001CN0200001N1+02941+02591100521ADDAA199000091AY141031AY241031GA1041+005409089GF106991031081004501001081MD1610111+9999MW1051UA1M020109999REMSYN100AAXX  21091 98132 31470 63605 10294 20259 40052 56011 70544 83808 222// 20202 333 56199 84818 86175;EQDQ01  00002PRCP99
0195981320999992000082215004+20790+121850FM-12+012499999V0202001N010010045019N0050001N1+02651+02601099901ADDAA103008991AY161031AY261031GA1051+004509069GF108991051051004501021999MD1210391+9999MW1611REMSYN094AAXX  22151 98132 21450 82010 10265 20260 49990 52039 76166 8552/ 333 56499 60097 85615 88456;
0207981320999992000090212004+20790+121850FM-12+012499999V0209999C000010048019N0200001N1+02641+02561100661ADDAA106007191AY181061AY241061GA1051+004809089GF108991051081004501001071MD1310051-0211MW1151REMSYN106AAXX  02121 98132 11470 80000 10264 20256 40066 53005 60071 71584 85807 333 10/// 56999 59021 85816 88357;
0170981320999992000091912004+20790+121850FM-12+012499999V0200701N004012200019N0150001N1+02641+02341101501ADDAA199000091AY141061AY241061GF102991021021004501001001MD1310141+9999MW1051REMSYN066AAXX  19121 98132 31465 20704 10264 20234 40150 53014 70544 82200;EQDQ01  00002PRCP99
0157981320999992000092106004+20790+121850FM-12+012499999V0200901N005010042019N0150001N1+02731+02561101591ADDAA106001091AY191061AY261061GF108991051091004501071999MD1810061+9999MW1151REMSYN072AAXX  21061 98132 11465 80905 10273 20256 40159 58006 60011 71596 8597/;
