0158014703999992000121207504+59570+009220FM-15+0019ENNO V0209999C000010006019N0015001N1+00201+99999999999ADDGA1081+000609999GF108991999999999999999999MA1100711999999MW1101REMMET048ENNO 120750Z 00000KT 1500 BR OVC002 02/// Q1007;EQDQ01+000003PRSWM1Q02    003PRSWM1
0140014703999992000122007504+59570+009220FM-15+0019ENNO V0209999C000010120019N0112651N1-00101+99999999999ADDGA1071+012009999GF107991999999999999999999MA1103291999999MW1001REMMET046ENNO 200750Z 00000KT 9999 BKN040 M01/// Q1033;EQDQ01+000000PRSWM2
0161014740999992000022715004+59900+009530FM-12+029499999V0200901N003110075019N0250001N1+00501+00351099891ADDAY151031AY221031GF108991071071008001021999MA1999999096371MD1710581+9999MW1501REMSYN072AAXX  27154 01474 41575 80906 10050 20035 39637 49989 57058 75052 8772/;
0249014740999992000031906004+59900+009530FM-12+029499999V0203001N000510075019N0750001N1-00301-00371102781ADDAA199000091AJ100049199999999AY121061AY201061GF108991061051008001021999IA1259KA1120N-00481MA1999999099051MD1710201+9999MW1021REMSYN094AAXX  19064 01474 31589 83001 11030 21037 39905 40278 57020 70220 8652/ 333 21048 41004 911//;EQDQ01  00002PRCP99
0171014740999992000041012004+59900+009530FM-12+029499999V0202001N002112200019N0650001N1+01081-00291101051ADDAY111061AY201061GF103991011001017501031081MA1999999097561MD1710521+9999MW1021REMSYN082AAXX  10124 01474 41787 32004 10108 21029 39756 40105 57052 70210 81038 333 911//;
0161014740999992000041915004+59900+009530FM-12+029499999V0202001N002110300019N0700001N1+00921+00441101511ADDAY121031AY221031GF108991041081008001011999MA1999999097991MD1710071+9999MW1021REMSYN072AAXX  19154 01474 41588 82004 10092 20044 39799 40151 57007 70222 8481/;
0207014740999992000042606004+59900+009530FM-12+029499999V0203601N001010075019N0750001N1+00421+00321101761ADDAA112000791AY181061AY221061GF108991081051008001999999KA1120N+00351MA1999999098171MD1210101+9999MW1021REMSYN094AAXX  26064 01474 11589 83602 10042 20032 39817 40176 52010 69902 70282 885// 333 20035 911//;
0207014740999992000071506004+59900+009520FM-12+029499999V0203601N001010750019N0750001N1+01291+01131100401ADDAA112000391AY181061AY221061GF105991011081008001031021KA1120N+01071MA1999999096961MD1110091+9999MW1011REMSYN094AAXX  15064 01474 11589 53602 10129 20113 39696 40040 51009 69932 70182 81832 333 20107 911//;
0181014740999992000111012004+59900+009520FM-12+029499999V0203601N000510024019N0030001N1+00521+00511100501ADDAY161061AY251061GA1091+999999999GF109991091999999999999999MA1999999096971MD1110021+9999MW1591REMSYN076AAXX  10124 01474 41/30 93601 10052 20051 39697 40050 51002 75965 333 911//;
0171014740999992000120612004+59900+009520FM-12+029499999V0201801N001010042019N0040001N1+00701+00691100781ADDAY161061AY261061GF108991081061004501999999MA1999999097261MD1210111+9999MW1601REMSYN082AAXX  06124 01474 41440 81802 10070 20069 39726 40078 52011 76066 886// 333 911//;
0091014750999992000011110504+59180+009570FM-15+0141ENSN V0202801N00311220001CN0099001N1+00501+00201999999ADDMA1102101999999MW1001REMMET039ENSN 111050Z 28006KT CAVOK 05/02 Q1021;EQDQ01+000000PRSWM2
0093014750999992000012409504+59180+009570FM-15+0141ENSN V0209999999999220001CN0099001N1-00801-00801999999ADDMA1101801999999MW1001REMMET041ENSN 240950Z VRB03KT CAVOK M08/M08 Q1018;EQDQ01+000000PRSWM2
0093014750999992000012410504+59180+009570FM-15+0141ENSN V0209999999999220001CN0099001N1-00801-00801999999ADDMA1101801999999MW1001REMMET041ENSN 241050Z VRB03KT CAVOK M08/M08 Q1018;EQDQ01+000000PRSWM2
0140014750999992000012807504+59180+009570FM-15+0141ENSN V0202401N002112200019N0112651N1+00001-00501999999ADDGA1021+015009999GF102991999999999999999999MA1099801999999MW1001REMMET046ENSN 280750Z 24004KT 9999 FEW050 00/M05 Q0998;EQDQ01+000000PRSWM2
0112014750999992000013013504+59180+009570FM-15+0141ENSN V0203001N00821220001CN0099001N1+00001-01301999999ADDMA1099491999999MW1001OC101751REMMET052ENSN 301350Z 30016G34KT 250V010 CAVOK M00/M13 Q0995;EQDQ01+000000PRSWM2
0162014750999992000020709504+59180+009570FM-15+0141ENSN V0202201N008712200019N0112651N1+00601+00301999999ADDGA1021+003009999GA2021+007509999GF104991999999999999999999MA1098611999999MW1001REMMET052ENSN 070950Z 22017KT 9999 FEW010 SCT025 06/03 Q0986;EQDQ01+000000PRSWM2
0091014750999992000020811504+59180+009570FM-15+0141ENSN V0202601N00151220001CN0099001N1+00201+00201999999ADDMA1098611999999MW1001REMMET039ENSN 081150Z 26003KT CAVOK 02/02 Q0986;EQDQ01+000000PRSWM2
0092014750999992000020910504+59180+009570FM-15+0141ENSN V0202901N00261220001CN0099001N1+00201-00101999999ADDMA1099391999999MW1001REMMET040ENSN 091050Z 29005KT CAVOK 02/M01 Q0994;EQDQ01+000000PRSWM2
0099014750999992000022413504+59180+009570FM-15+0141ENSN V0202801N00361220001CN0099001N1+00401+00201999999ADDMA1100311999999MW1001REMMET047ENSN 241350Z 28007KT 190V330 CAVOK 04/02 Q1003;EQDQ01+000000PRSWM2
0093014750999992000030205504+59180+009570FM-15+0141ENSN V0202901N00361220001CN0099001N1-00101-00701999999ADDMA1099901999999MW1001REMMET041ENSN 020550Z 29007KT CAVOK M01/M07 Q0999;EQDQ01+000000PRSWM2
0100014750999992000032207504+59180+009570FM-15+0141ENSN V0202901N00311220001CN0099001N1+00101-00301999999ADDMA1101191999999MW1001REMMET048ENSN 220750Z 29006KT 240V360 CAVOK 01/M03 Q1012;EQDQ01+000000PRSWM2
0160014750999992000032706504+59180+009570FM-15+0141ENSN V0200401N004612200019N0112651N1+00001-00401999999ADDGA1021+010509999GF102991999999999999999999MA1102101999999MW1001OC100981REMMET058ENSN 270650Z 04009G19KT 320V120 9999 FEW035 M00/M04 Q1021;EQDQ01+000000PRSWM2
0091014750999992000041011504+59180+009570FM-15+0141ENSN V0201901N00411220001CN0099001N1+01001+00201999999ADDMA1101291999999MW1001REMMET039ENSN 101150Z 19008KT CAVOK 10/02 Q1013;EQDQ01+000000PRSWM2
0182014750999992000041915504+59180+009570FM-15+0141ENSN V0201101N002110120019N0090001N1+00801+00801999999ADDGA1021+004509999GA2071+012009999GF107991999999999999999999MA1101491999999MW1611REMMET056ENSN 191550Z 11004KT 9000 -RA SCT015 BKN040 08/08 Q1015;EQDQ01+000003PRSWM1Q02    003PRSWM1
0139014750999992000051013504+59180+009570FM-15+0141ENSN V0202401N002612200019N0112651N1+02201+01001999999ADDGA1021+012009999GF104991999999999999999999MA1101691999999MW1001REMMET045ENSN 101350Z 24005KT 9999 SCT040 22/10 Q1017;EQDQ01+000000PRSWM2
0099014750999992000051514504+59180+009570FM-15+0141ENSN V0201301N00311220001CN0099001N1+02201+01101999999ADDMA1101591999999MW1001REMMET047ENSN 151450Z 13006KT 090V180 CAVOK 22/11 Q1016;EQDQ01+000000PRSWM2
0139014750999992000052015504+59180+009570FM-15+0141ENSN V0201801N003112200019N0112651N1+01501+00801999999ADDGA1021+006009999GF102991999999999999999999MA1100611999999MW1001REMMET045ENSN 201550Z 18006KT 9999 FEW020 15/08 Q1006;EQDQ01+000000PRSWM2
0160014750999992000052203504+59180+009570FM-15+0141ENSN V02099999999992200019N0090001N1+00501+00501999999ADDGA1021+010509999GF102991999999999999999999MA1100611999999MW1411REMMET050ENSN 220350Z VRB03KT 9000 BCFG FEW035 05/05 Q1006;EQDQ01+000003PRSWM1Q02    003PRSWM1
0139014750999992000052208504+59180+009570FM-15+0141ENSN V0202601N002610135019N0112651N1+01001+00901999999ADDGA1071+013509999GF107991999999999999999999MA1100711999999MW1001REMMET045ENSN 220850Z 26005KT 9999 BKN045 10/09 Q1007;EQDQ01+000000PRSWM2
0139014750999992000060511504+59180+009570FM-15+0141ENSN V0201201N003112200019N0112651N1+01501+00101999999ADDGA1021+012009999GF102991999999999999999999MA1102101999999MW1001REMMET045ENSN 051150Z 12006KT 9999 FEW040 15/01 Q1021;EQDQ01+000000PRSWM2
0147014750999992000062012504+59170+009570FM-15+0141ENSN V0201401N003612200019N0112651N1+02201+01601999999ADDGA1021+009009999GF102991999999999999999999MA1101081999999MW1001REMMET053ENSN 201250Z 14007KT 090V210 9999 FEW030 22/16 Q1011;EQDQ01+000000PRSWM2
0162014750999992000062612504+59170+009570FM-15+0141ENSN V0203401N006210180019N0112651N1+01501+01201999999ADDGA1021+007509999GA2071+018009999GF107991999999999999999999MA1100811999999MW1001REMMET052ENSN 261250Z 34012KT 9999 FEW025 BKN060 15/12 Q1008;EQDQ01+000000PRSWM2
0139014750999992000063018504+59170+009570FM-15+0141ENSN V02099999999990120019N0112651N1+01901+01801999999ADDGA1071+012009999GF107991999999999999999999MA1100611999999MW1001REMMET045ENSN 301850Z VRB03KT 9999 BKN040 19/18 Q1006;EQDQ01+000000PRSWM2
0185014750999992000072415504+59170+009570FM-15+0141ENSN V02099999999990060019N0112651N1+01601+01601999999ADDGA1021+000609999GA2021+004509999GA3071+006009999GF107991999999999999999999MA1101021999999MW1001REMMET059ENSN 241550Z VRB03KT 9999 FEW002 SCT015 BKN020 16/16 Q1010;EQDQ01+000000PRSWM2
0182014750999992000072611504+59170+009570FM-15+0141ENSN V0200301N002610075019N0112651N1+01301+01301999999ADDGA1021+004509999GA2071+007509999GF107991999999999999999999MA1101021999999MW1611REMMET056ENSN 261150Z 03005KT 9999 -RA SCT015 BKN025 13/13 Q1010;EQDQ01+000003PRSWM1Q02    003PRSWM1
0147014750999992000080811504+59170+009570FM-15+0141ENSN V0202901N004112200019N0112651N1+01901+00701999999ADDGA1021+012009999GF102991999999999999999999MA1100911999999MW1001REMMET053ENSN 081150Z 29008KT 200V340 9999 FEW040 19/07 Q1009;EQDQ01+000000PRSWM2
0181014750999992000081111504+59170+009570FM-15+0141ENSN V0201301N002610030019N0035001N1+01701+01701999999ADDGA1021+001509999GA2071+003009999GF107991999999999999999999MA1100711999999MW1101REMMET055ENSN 111150Z 13005KT 3500 BR FEW005 BKN010 17/17 Q1007;EQDQ01+000003PRSWM1Q02    003PRSWM1
0139014750999992000081319504+59170+009570FM-15+0141ENSN V02099999999992200019N0112651N1+01501+01501999999ADDGA1021+010509999GF104991999999999999999999MA1102001999999MW1001REMMET045ENSN 131950Z VRB02KT 9999 SCT035 15/15 Q1020;EQDQ01+000000PRSWM2
0139014750999992000090210504+59170+009570FM-15+0141ENSN V02099999999992200019N0112651N1+01401+01201999999ADDGA1021+010509999GF104991999999999999999999MA1100311999999MW1001REMMET045ENSN 021050Z VRB02KT 9999 SCT035 14/12 Q1003;EQDQ01+000000PRSWM2
0139014750999992000091609504+59170+009570FM-15+0141ENSN V02099999999990030019N0112651N1+01101+01101999999ADDGA1081+003009999GF108991999999999999999999MA1101591999999MW1001REMMET045ENSN 160950Z VRB03KT 9999 OVC010 11/11 Q1016;EQDQ01+000000PRSWM2
0162014750999992000100303504+59170+009570FM-15+0141ENSN V02099999999990060019N0112651N1+01001+01001999999ADDGA1021+000609999GA2071+006009999GF107991999999999999999999MA1100811999999MW1001REMMET052ENSN 030350Z VRB03KT 9999 SCT002 BKN020 10/10 Q1008;EQDQ01+000000PRSWM2
0166014750999992000100416504+59170+009570FM-15+0141ENSN V0201401N004110024019N0035001N1+01101+01101999999ADDGA1071+002409999GF107991999999999999999999MA1101491999999MW1101REMMET056ENSN 041650Z 14008KT 030V270 3500 BR BKN008 11/11 Q1015;EQDQ01+000003PRSWM1Q02    003PRSWM1
0139014750999992000101203504+59170+009570FM-15+0141ENSN V0201201N003112200019N0090001N1+01001+01001999999ADDGA1021+004509999GF104991999999999999999999MA1099591999999MW1001REMMET045ENSN 120350Z 12006KT 9000 SCT015 10/10 Q0996;EQDQ01+000000PRSWM2
0159014750999992000102617504+59170+009570FM-15+0141ENSN V0200501N002610045019N0112651N1+00601+00501999999ADDGA1071+004509999GF107991999999999999999999MA1099801999999MW1611REMMET049ENSN 261750Z 05005KT 9999 -RA BKN015 06/05 Q0998;EQDQ01+000003PRSWM1Q02    003PRSWM1
0139014750999992000110219504+59170+009570FM-15+0141ENSN V02099999999992200019N0112651N1+00301+00301999999ADDGA1021+009009999GF102991999999999999999999MA1099901999999MW1001REMMET045ENSN 021950Z VRB02KT 9999 FEW030 03/03 Q0999;EQDQ01+000000PRSWM2
0182014750999992000111316504+59170+009570FM-15+0141ENSN V02099999999990045019N0050001N1+00501+00501999999ADDGA1021+000909999GA2071+004509999GF107991999999999999999999MA1099491999999MW1651REMMET056ENSN 131650Z VRB02KT 5000 +RA FEW003 BKN015 05/05 Q0995;EQDQ01+000003PRSWM1Q02    003PRSWM1
0158014750999992000111611504+59170+009570FM-15+0141ENSN V0200201N002610024019N0080001N1+00301+00301999999ADDGA1071+002409999GF107991999999999999999999MA1100811999999MW1101REMMET048ENSN 161150Z 02005KT 8000 BR BKN008 03/03 Q1008;EQDQ01+000003PRSWM1Q02    003PRSWM1
0162014750999992000112211504+59170+009570FM-15+0141ENSN V02099999999990060019N0112651N1+00301+00301999999ADDGA1021+000909999GA2071+006009999GF107991999999999999999999MA1100411999999MW1001REMMET052ENSN 221150Z VRB02KT 9999 FEW003 BKN020 03/03 Q1004;EQDQ01+000000PRSWM2
0205014750999992000112318504+59170+009570FM-15+0141ENSN V0201501N003110090019N0060001N1+00601+00601999999ADDGA1021+000309999GA2021+002409999GA3071+009009999GF107991999999999999999999MA1100911999999MW1611REMMET063ENSN 231850Z 15006KT 6000 -RA FEW001 SCT008 BKN030 06/06 Q1009;EQDQ01+000003PRSWM1Q02    003PRSWM1
0185014750999992000112910504+59170+009570FM-15+0141ENSN V0202701N002110030019N0090001N1+00301+00301999999ADDGA1021+000609999GA2021+000909999GA3081+003009999GF108991999999999999999999MA1100811999999MW1001REMMET059ENSN 291050Z 27004KT 9000 FEW002 SCT003 OVC010 03/03 Q1008;EQDQ01+000000PRSWM2
0157014750999992000120806504+59170+009570FM-15+0141ENSN V0202701N00151000151CN0008001N1+00201+00201999999ADDGA1091+000159999GF109991999999000251999999MA1100511999999MW1451REMMET047ENSN 080650Z 27003KT 0800 FG VV001 02/02 Q1005;EQDQ01+000003PRSWM1Q02    003PRSWM1
0166014750999992000121218504+59170+009570FM-15+0141ENSN V0202601N00211000151CN0006001N1+00201+00201999999ADDGA1091+000159999GF109991999999000251999999MA1100201999999MW1451MW2531REMMET050ENSN 121850Z 26004KT 0600 FG DZ VV001 02/02 Q1002;EQDQ01+000003PRSWM1Q02    003PRSWM1
0140014750999992000121711504+59170+009570FM-15+0141ENSN V0202601N002612200019N0112651N1+00201-00101999999ADDGA1021+009009999GF102991999999999999999999MA1101021999999MW1001REMMET046ENSN 171150Z 26005KT 9999 FEW030 02/M01 Q1010;EQDQ01+000000PRSWM2
0140014750999992000121915504+59170+009570FM-15+0141ENSN V02099999999990120019N0112651N1+00101-00501999999ADDGA1071+012009999GF107991999999999999999999MA1103121999999MW1001REMMET046ENSN 191550Z VRB03KT 9999 BKN040 01/M05 Q1031;EQDQ01+000000PRSWM2
0242014770999992000011606004+59670+009650FM-12+016999999V0209999C000010075019N0200001N1-00341-00411102261ADDAJ199992999999999AY121061AY221061GF107991071051008001001001IA1259KA1120N-00381MA1999999100131MD1810141+9999MW1021REMSYN098    AAXX  16064 01477 41570 70000 11034 21041 30013 40226 58014 70222 87500 333 21038 41998 911//;EQDQ01  09972SNDP  
0161014770999992000030109004+59670+009650FM-12+016999999V0203301N000512200019N0300001N1-00161-00201098161ADDAY101031AY201031GF102991021011012501001001MA1999999096121MD1610071+9999MW1011REMSYN072AAXX  01094 01477 41680 23301 11016 21020 39612 49816 56007 70100 82100;
0161014770999992000030409004+59670+009650FM-12+016999999V0203301N003112200019N0750001N1-00061-01441099961ADDAY111031AY201031GF105991031021008001001041MA1999999097891MD1210551+9999MW1021REMSYN072AAXX  04094 01477 41589 53306 11006 21144 39789 49996 52055 70210 83204;
0265014770999992000031906004+59670+009650FM-12+016999999V0209999C000010150019N0550001N1-00201-00511102741ADDAA199000091AJ199992999999999AY121061AY211061GF108991051001017501071041IA1259KA1120N-00341MA1999999100601MD1710151+9999MW1021REMSYN094AAXX  19064 01477 31785 80000 11020 21051 30060 40274 57015 70221 85074 333 21034 41998 911//;EQDQ01  00002PRCP99Q02  09972SNDP  
0171014770999992000040512004+59670+009650FM-12+016999999V0203401N003112200019N0750001N1+00421-01701100881ADDAY101061AY201061GA1001+999999999GF100991001001999999001001MA1999999098811MD1210271+9999MW1021REMSYN066AAXX  05124 01477 42989 03406 10042 21170 39881 40088 52027 70200;
0161014770999992000040909004+59670+009650FM-12+016999999V0203301N000510120019N0300001N1+00311-00141102491ADDAY121031AY201031GF108991081001012501021999MA1999999100381MD1710031+9999MW1031REMSYN072AAXX  09094 01477 41680 83301 10031 21014 30038 40249 57003 70320 8802/;
0161014770999992000042200004+59670+009650FM-12+016999999V0209999C000012200019N0250001N1+00421+00221101191ADDAY101061AY201061GF101991011041008001001001MA1999999099111MD1210091+9999MW1001REMSYN072AAXX  22004 01477 41575 10000 10042 20022 39911 40119 52009 70000 81400;
0171014770999992000042312004+59670+009650FM-12+016999999V0209999C000010300019N0300001N1+00961+00631100741ADDAY121061AY221061GF108991041071008001021999MA1999999098721MD1710061+9999MW1021REMSYN082AAXX  23124 01477 41580 80000 10096 20063 39872 40074 57006 70222 8472/ 333 911//;
0171014770999992000042712004+59670+009650FM-12+016999999V0203601N000510300019N0200001N1+00651+00531101911ADDAY151061AY221061GF108991041071004501021999MA1999999099841MD1210101+9999MW1501REMSYN082AAXX  27124 01477 41470 83601 10065 20053 39984 40191 52010 75052 8472/ 333 911//;
0181014770999992000051412004+59670+009650FM-12+016999999V0209999C000012200019N0650001N1+02601+00391102041ADDAY101061AY201061GA1001+999999999GF100991001001999999001001MA1999999100101MD1710131+9999MW1011REMSYN076AAXX  14124 01477 41987 00000 10260 20039 30010 40204 57013 70100 333 911//;
0161014770999992000051921004+59670+009650FM-12+016999999V0202201N000512200019N0300001N1+00731+00431100451ADDAY111031AY201031GF103991021011008001021001MA1999999098411MD1210021+9999MW1011REMSYN072AAXX  19214 01477 41580 32201 10073 20043 39841 40045 52002 70110 82120;
0171014770999992000060321004+59670+009650FM-12+016999999V0203501N001512200019N0750001N1+00941-00961101901ADDAY101031AY201031GA1001+999999999GF100991001001999999001001MA1999999099851MD1210161+9999MW1011REMSYN066AAXX  03214 01477 41989 03503 10094 21096 39985 40190 52016 70100;
0180014770999992000060615004+59670+009650FM-12+016999999V0201701N001010075019N0300001N1+01531+00001101531ADDAY121031AY221031GF108991051041008001011001MA1999999099531MD1710051+9999MW1031REMSYN072AAXX  06154 01477 41580 81702 10153 21000 39953 40153 57050 70322 85410;EQDQ01+000502APC3  
0171014770999992000060912004+59670+009650FM-12+016999999V0201801N001012200019N0650001N1+02131+00351101861ADDAY101061AY201061GF103991011001022501031081MA1999999099901MD1610061+9999MW1021REMSYN082AAXX  09124 01477 41887 31802 10213 20035 39990 40186 56006 70200 81038 333 911//;
0161014770999992000070615004+59670+009640FM-12+016999999V0201501N000510075019N0300001N1+01831+00711100871ADDAY121031AY221031GF106991061051008001001001MA1999999098901MD1810071+9999MW1021REMSYN072AAXX  06154 01477 41580 61501 10183 20071 39890 40087 58007 70222 86500;
0220014770999992000072906004+59670+009640FM-12+016999999V0200201N000512200019N0750001N1+00941+00611101351ADDAA199000091AY101061AY201061GF101991001001999999001011KA1120N+00761MA1999999099311MD1210011+9999MW1021REMSYN088AAXX  29064 01477 31989 10201 10094 20061 39931 40135 52001 70200 80001 333 20076 911//;EQDQ01  00002PRCP99
0161014770999992000073115004+59670+009640FM-12+016999999V0200101N002110075019N0300001N1+01851+00731101431ADDAY191031AY281031GF106991061091008001001001MA1999999099451MD1810071+9999MW1801REMSYN072AAXX  31154 01477 41580 60104 10185 20073 39945 40143 58007 78098 86900;
0171014770999992000081612004+59670+009640FM-12+016999999V0201501N000512200019N0650001N1+02011+00421100631ADDAY101061AY201061GF103991031011008001001001MA1999999098681MD1710041+9999MW1031REMSYN082AAXX  16124 01477 41587 31501 10201 20042 39868 40063 57004 70300 83100 333 911//;
0161014770999992000090909004+59670+009640FM-12+016999999V0201901N003112200019N0300001N1+01431+00061100871ADDAY101031AY201031GF103991031011008001001011MA1999999098871MD1210031+9999MW1031REMSYN072AAXX  09094 01477 41580 31906 10143 20006 39887 40087 52003 70300 83101;
0220014770999992000092418004+59670+009640FM-12+016999999V0209999C000012200019N0550001N1+01001+00651102971ADDAA199000091AY101061AY201061GF101991011041008001001001KA1120M+01551MA1999999100901MD1710081+9999MW1011REMSYN088AAXX  24184 01477 31585 10000 10100 20065 30090 40297 57008 70100 81400 333 10155 911//;EQDQ01  00002PRCP99
0161014770999992000092715004+59670+009640FM-12+016999999V0203501N001010021019N0015001N1+00801+00731101461ADDAY161031AY261031GF108991061071002501021999MA1999999099401MD1710411+9999MW1631REMSYN072AAXX  27154 01477 41315 83502 10080 20073 39940 40146 57041 76366 8672/;
0190014770999992000092718004+59670+009640FM-12+016999999V0200301N001010021019N0015001N1+00791+00721101251ADDAY161061AY251061GF108991061071002501021999KA1120M+00821MA1999999099201MD1710191+9999MW1611REMSYN088AAXX  27184 01477 41315 80302 10079 20072 39920 40125 57019 76165 8672/ 333 10082 911//;
0171014770999992000092900004+59670+009640FM-12+016999999V0209999C000010300019N0040001N1+01231+01141100521ADDAY181061AY261061GF108991041071004501021999MA1999999098521MD1610021+9999MW1101REMSYN082AAXX  29004 01477 41440 80000 10123 20114 39852 40052 56002 71086 8472/ 333 911//;
0171014770999992000100800004+59670+009640FM-12+016999999V0209999C000012200019N0250001N1+00671+00551102071ADDAY101061AY201061GF102991021041008001001001MA1999999100001MD1710201+9999MW1021REMSYN082AAXX  08004 01477 41575 20000 10067 20055 30000 40207 57020 70200 82400 333 911//;
0171014770999992000102221004+59670+009640FM-12+016999999V0200301N000512200019N0200001N1+00251+00091102451ADDAY101031AY201031GA1001+999999999GF100991001001999999001001MA1999999100341MD1210061+9999MW1011REMSYN066AAXX  22214 01477 41970 00301 10025 20009 30034 40245 52006 70100;
0207014770999992000111206004+59670+009640FM-12+016999999V0209999C000010300019N0050001N1+00601+00511100161ADDAA112006191AY161061AY261061GF108991041071004501021999KA1120N+00501MA1999999098121MD1710201+9999MW1631REMSYN094AAXX  12064 01477 11450 80000 10060 20051 39812 40016 57020 60062 76366 8472/ 333 20050 911//;
0161014770999992000120115004+59670+009640FM-12+016999999V0209999C000010042019N0040001N1+00171+00071101241ADDAY151031AY221031GF108991061071004501021999MA1999999099151MD1710111+9999MW1511REMSYN072AAXX  01154 01477 41440 80000 10017 20007 39915 40124 57011 75152 8672/;
0190014770999992000120518004+59670+009640FM-12+016999999V0201901N002610300019N0100001N1+00911+00551100861ADDAY151061AY221061GF108991031071008001021999KA1120M+00971MA1999999098831MD1210131+9999MW1501REMSYN088AAXX  05184 01477 41560 81905 10091 20055 39883 40086 52013 75052 8372/ 333 10097 911//;
0161014770999992000122109004+59670+009640FM-12+016999999V0209999C000010300019N0300001N1-00491-00781103181ADDAY121031AY221031GF108991011071008001011999MA1999999101031MD1310011+9999MW1021REMSYN072AAXX  21094 01477 41580 80000 11049 21078 30103 40318 53001 70222 8171/;
0173014820999992000010400004+59030+010530FM-12+000899999V0202501N006212200019N0240001N1+00541+00241099721ADDAA106000091GF101991011041012501001001MA1999999099631MD1810121+9999REMSYN076AAXX  04004 01482 32674 12512 10054 20024 39963 49972 58012 81400 333 91118;EQDQ01  00002PRCP06
0192014820999992000010418004+59030+010530FM-12+000899999V0202501N005112200019N0300001N1+00451+00081100361ADDAA106000091GF101991011041012501001001KA1120M+00571MA1999999100261MD1110061+9999REMSYN082AAXX  04184 01482 32680 12510 10045 20008 30026 40036 51006 81400 333 10057 91115;EQDQ01  00002PRCP06
0208014820999992000010612004+59030+010530FM-12+000899999V0202101N008210300019N0100001N1+00681+00561099691ADDAA106003091AY161061AY261061GF108991031071002501021999MA1999999099591MD1810191+9999MW1021SA1+1239REMSYN100AAXX  06124 01482 11360 82116 10068 20056 39959 49969 58019 60031 70266 8372/ 222// 00123 333 91122;
0188014820999992000010800004+59030+010530FM-12+000899999V0202101N008710300019N0070001N1+00601+00481099661ADDAA106000791AY181061AY221061GF108991041091002501021999MA1999999099571MD1810241+9999MW1801REMSYN088AAXX  08004 01482 11357 82117 10060 20048 39957 49966 58024 69901 78082 8492/ 333 91123;
0133014820999992000011303004+59030+010530FM-12+000899999V0202201N003110300019N0160001N1+00511+00451101041ADDGF108991031051008001071999MA1999999100941MD1810091+9999REMSYN066AAXX  13034 01482 42566 82206 10051 20045 30094 40104 58009 8357/;
0133014820999992000012321004+59030+010530FM-12+000899999V0203001N001012200019N0400001N1-00331-00611102141ADDGF101991011041012501001001MA1999999102041MD1410001+9999REMSYN066AAXX  23214 01482 42682 13002 11033 21061 30204 40214 54000 81400;
0161014820999992000020809004+59030+010530FM-12+000899999V0203601N001510300019N0240001N1+00311+00221098671ADDAY181031AY261031GF107991031091004501071999MA1999999098581MD1310071+9999MW1801REMSYN072AAXX  08094 01482 41474 73603 10031 20022 39858 49867 53007 78086 8397/;
0173014820999992000020921004+59030+010530FM-12+000899999V0202101N001512200019N0400001N1+00291+00101100741ADDAA199000091GA1001+999999999GF100991001001999999001001MA1999999100641MD1110161+9999REMSYN060AAXX  09214 01482 32982 02103 10029 20010 30064 40074 51016;EQDQ01  00002PRCP99
0133014820999992000022009004+59030+010530FM-12+000899999V0203601N002612200019N0400001N1-00211-00571102441ADDGF101991011021012501001001MA1999999102341MD1110201+9999REMSYN066AAXX  20094 01482 42682 13605 11021 21057 30234 40244 51020 81200;
0133014820999992000022609004+59030+010530FM-12+000899999V0202401N004110300019N0220001N1+00361+00211101721ADDGF107991041051008001071999MA1999999101621MD1310061+9999REMSYN066AAXX  26094 01482 42572 72408 10036 20021 30162 40172 53006 8457/;
0192014820999992000030118004+59030+010530FM-12+000899999V0203001N004112200019N0450001N1+00461-00161098511ADDAA199000091GF103991011041008001071011KA1120M+00481MA1999999098421MD1310281+9999REMSYN082AAXX  01184 01482 32583 33008 10046 21016 39842 49851 53028 81471 333 10048 91110;EQDQ01  00002PRCP99
0133014820999992000030209004+59030+010530FM-12+000899999V0202901N003612200019N0500001N1+00221-00631100131ADDGF101991001001999999001011MA1999999100041MD1110161+9999REMSYN066AAXX  02094 01482 42984 12907 10022 21063 30004 40013 51016 80001;
0220014820999992000030606004+59030+010530FM-12+000899999V0202201N008210021019N0080001N1+00411+00311099751ADDAA199000091AY121061AY221061GF108991051061002501071999KA1120N+00221MA1999999099661MD1810461+9999MW1101REMSYN088AAXX  06064 01482 31358 82216 10041 20031 39966 49975 58046 71022 8567/ 333 20022 91121;EQDQ01  00002PRCP99
0173014820999992000030700004+59030+010530FM-12+000899999V0202801N007212200019N0400001N1+00531-00401099231ADDAA199000091GF101991011041012501001011MA1999999099131MD1110241+9999REMSYN076AAXX  07004 01482 32682 12814 10053 21040 39913 49923 51024 81401 333 91120;EQDQ01  00002PRCP99
0207014820999992000031218004+59030+010530FM-12+000899999V0202201N002612200019N0250001N1+00291+00171101671ADDAA112000791AY171061AY211061GF104991031091004501041001KA1120M+00311MA1999999101571MD1810061+9999MW1011REMSYN094AAXX  12184 01482 11475 42205 10029 20017 30157 40167 58006 69902 70171 83940 333 10031 91106;
0133014820999992000031815004+59030+010530FM-12+000899999V0203601N002612200019N0400001N1+00581-00111102901ADDGF101991011011012501041001MA1999999102811MD1110061+9999REMSYN066AAXX  18154 01482 42682 13605 10058 21011 30281 40290 51006 81140;
0133014820999992000032809004+59030+010530FM-12+000899999V0200201N003112200019N0400001N1+00041-00581102951ADDGF102991011041012501041021MA1999999102851MD1110061+9999REMSYN066AAXX  28094 01482 42682 20206 10004 21058 30285 40295 51006 81442;
0193014820999992000041012004+59030+010530FM-12+000899999V0201901N001512200019N0220001N1+00641+00321101351ADDAA199000091GF103991021061002501041011MA1999999101261MD1710211+9999SA1+0339REMSYN088AAXX  10124 01482 32372 31903 10064 20032 30126 40135 57021 82641 222// 00033 333 91103;EQDQ01  00002PRCP99
0133014820999992000050809004+59030+010530FM-12+000899999V0203601N001512200019N0220001N1+01431+00951102531ADDGF102991021061002501001001MA1999999102431MD1010031+9999REMSYN066AAXX  08094 01482 42372 23603 10143 20095 30243 40253 50003 82600;
0133014820999992000051321004+59030+010530FM-12+000899999V0201901N002112200019N0250001N1+01291+01111102371ADDGF102991011061008001071081MA1999999102271MD1310031+9999REMSYN066AAXX  13214 01482 42575 21904 10129 20111 30227 40237 53003 81678;
0208014820999992000052912004+59030+010530FM-12+000899999V0200801N003110300019N0160001N1+01051+00811099301ADDAA106000891AY161061AY261061GF108991031071004501021999MA1999999099211MD1310021+9999MW1611SA1+1079REMSYN100AAXX  29124 01482 11466 80806 10105 20081 39921 49930 53002 69971 76166 8372/ 222// 00107 333 91110;
0188014820999992000053000004+59030+010530FM-12+000899999V0202701N002110300019N0300001N1+01081+00801099691ADDAA106000791AY181061AY221061GF107991021051004501071999MA1999999099601MD1110061+9999MW1011REMSYN088AAXX  30004 01482 11480 72704 10108 20080 39960 49969 51006 69901 70182 8257/ 333 91110;
0171014820999992000062015004+59300+010520FM-12+000899999V0201801N002610003019N0003001N1+01421+01261101151ADDAY141031AY221031GA1091+999999999GF109991091999999999999999MA1999999101051MD1810031+9999MW1471REMSYN066AAXX  20154 01482 41/03 91805 10142 20126 30105 40115 58003 74742;
0188014820999992000071100004+59300+010520FM-12+000899999V0200901N007210300019N0100001N1+01351+01161099181ADDAA106009991AY161061AY261061GF108991041071004501021999MA1999999099081MD1810191+9999MW1631REMSYN088AAXX  11004 01482 11460 80914 10135 20116 39908 49918 58019 60101 76366 8472/ 333 91116;
0173014820999992000072100004+59030+010520FM-12+000899999V0200101N004610300019N0400001N1+01731+01161101621ADDAA199000091GF106991031041008001051021MA1999999101531MD1110151+9999REMSYN076AAXX  21004 01482 32582 60109 10173 20116 30153 40162 51015 83452 333 91112;EQDQ01  00002PRCP99
0185014820999992000072912004+59030+010520FM-12+000899999V0202601N001012200019N0400001N1+01781+01271101231ADDAA199000091GF103991011011008001041091MA1999999101141MD1810041+9999REMSYN088AAXX  29124 01482 32582 32602 10178 20127 30114 40123 58004 81149 222// 01275 333 91106;EQDQ01  00002PRCP99
0192014820999992000073006004+59030+010520FM-12+000899999V0203401N000512200019N0220001N1+01541+01391101181ADDAA199000091GF103991011061008001051091KA1120N+01501MA1999999101081MD1310031+9999REMSYN082AAXX  30064 01482 32572 33401 10154 20139 30108 40118 53003 81659 333 20150 91104;EQDQ01  00002PRCP99
0192014820999992000080106004+59030+010520FM-12+000899999V0200701N003110300019N0170001N1+01571+01391101401ADDAA199000091GF107991021061004501051091KA1120N+01541MA1999999101301MD1610051+9999REMSYN082AAXX  01064 01482 32467 70706 10157 20139 30130 40140 56005 82659 333 20154 91108;EQDQ01  00002PRCP99
0133014820999992000081809004+59030+010520FM-12+000899999V0202501N004112200019N0400001N1+01521+01061100781ADDGF103991011021008001041001MA1999999100691MD1110131+9999REMSYN066AAXX  18094 01482 42582 32508 10152 20106 30069 40078 51013 81240;
0161014820999992000082415004+59030+010520FM-12+000899999V0203101N002612200019N0400001N1+01371+00971100921ADDAY161031AY211031GF103991021041008001071041MA1999999100831MD1310011+9999MW1011REMSYN072AAXX  24154 01482 41582 33105 10137 20097 30083 40092 53001 70161 82474;
0192014820999992000082818004+59030+010520FM-12+000899999V0200601N002110300019N0140001N1+01741+01411101731ADDAA199000091GF107991021091004501071011KA1120M+01981MA1999999101641MD1610081+9999REMSYN082AAXX  28184 01482 32464 70604 10174 20141 30164 40173 56008 82971 333 10198 91109;EQDQ01  00002PRCP99
0161014820999992000083015004+59030+010520FM-12+000899999V0202001N002610750019N0450001N1+01551+01261101131ADDAY181031AY221031GF105991011091004501071041MA1999999101041MD1710091+9999MW1811REMSYN072AAXX  30154 01482 41483 52005 10155 20126 30104 40113 57009 78182 81974;
0192014820999992000090306004+59030+010520FM-12+000899999V0200201N007212200019N0500001N1+01101+00581100951ADDAA199000091GF102991011041008001071041KA1120N+01081MA1999999100861MD1310181+9999REMSYN082AAXX  03064 01482 32584 20214 10110 20058 30086 40095 53018 81474 333 20108 91120;EQDQ01  00002PRCP99
0207014820999992000090606004+59030+010520FM-12+000899999V0201801N004610300019N0080001N1+01311+01131101021ADDAA112000191AY161061AY221061GF108991041071002501021999KA1120N+01301MA1999999100931MD1810131+9999MW1611REMSYN094AAXX  06064 01482 11358 81809 10131 20113 30093 40102 58013 69922 76162 8472/ 333 20130 91110;
0133014820999992000092703004+59030+010520FM-12+000899999V0200801N003610300019N0400001N1+01041+00781102111ADDGF107991031051008001071999MA1999999102021MD1610171+9999REMSYN066AAXX  27034 01482 42582 70807 10104 20078 30202 40211 56017 8357/;
0192014820999992000101218004+59030+010520FM-12+000899999V0201701N001512200019N0280001N1+01211+01021100271ADDAA199000091GF103991011091004501041011KA1120M+01321MA1999999100171MD1110151+9999REMSYN082AAXX  12184 01482 32478 31703 10121 20102 30017 40027 51015 81941 333 10132 91106;EQDQ01  00002PRCP99
0133014820999992000101715004+59030+010520FM-12+000899999V0202001N003610300019N0250001N1+01271+01091101851ADDGF107991021091004501071999MA1999999101751MD1110201+9999REMSYN066AAXX  17154 01482 42475 72007 10127 20109 30175 40185 51020 8297/;
0188014820999992000111600004+59030+010520FM-12+000899999V0201601N005110300019N0230001N1+00701+00411100841ADDAA106001091AY181061AY221061GF108991031091004501071999MA1999999100751MD1810021+9999MW1801REMSYN088AAXX  16004 01482 11473 81610 10070 20041 30075 40084 58002 69991 78082 8397/ 333 91113;
0154014820999992000112112004+59030+010520FM-12+000899999V0201201N002610300019N0170001N1+00761+00571101241ADDAA199000021GF107991041051004501071999MA1999999101151MD1110051+9999REMSYN076AAXX  21124 01482 32467 71205 10076 20057 30115 40124 51005 8457/ 333 91110;
0143014820999992000122321004+59030+010520FM-12+000899999V0203501N003612200019N0500001N1+00021-00401100821ADDGA1001+999999999GF100991001001999999001001MA1999999100721MD1010001+9999REMSYN060AAXX  23214 01482 42984 03507 10002 21040 30072 40082 50000;
0163014830999992000010114504+59200+010270FM-15+0088ENTO V0200201N002610001519N0001001N1+00001+00001999999ADDED199U03509GA1091+000159999GF109991999999000251999999MA1101291999999MW1451REMMET058ENTO 011450Z 02005KT 0100 R18/0350 FG VV000 M00/M00 Q1013;EQDQ01    003PRSWM1
0091014830999992000010314504+59200+010270FM-15+0088ENTO V0202301N00461220001CN0099001N1+00501+00201999999ADDMA1099901999999MW1001REMMET039ENTO 031450Z 23009KT CAVOK 05/02 Q0999;EQDQ01+000000PRSWM2
0159014830999992000010808504+59200+010270FM-15+0088ENTO V0202401N008212200019N0112651N1+00601+00001999999ADDGA1021+004509999GF102991999999999999999999MA1099491999999MW1001OC101541REMMET057ENTO 080850Z 24016G30KT 160V280 9999 FEW015 06/M00 Q0995;EQDQ01+000000PRSWM2
0171014830999992000012012504+59200+010270FM-15+0088ENTO V0203201N005112200019N0112651N1+00801-00501999999ADDGA1021+012009999GA2021+024009999GF104991999999999999999999MA1100711999999MW1001REMMET061ENTO 201250Z 32010KT 290V360 9999 FEW040 SCT080 08/M05 Q1007;EQDQ01+000000PRSWM2
0098014830999992000012905504+59200+010270FM-15+0088ENTO V0201901N008212200019N0003001N1+99999+99999999999ADDMW1001REMMET061ENTO 290550Z 19016KT 0300 RVR0450 -DZRA FG VV001 04/04 Q0972;EQDQ01+000000PRSWM2
0091014830999992000020809504+59200+010270FM-15+0088ENTO V0200201N00261220001CN0099001N1+00301+00001999999ADDMA1098711999999MW1001REMMET039ENTO 080950Z 02005KT CAVOK 03/00 Q0987;EQDQ01+000000PRSWM2
0092014830999992000021108504+59200+010270FM-15+0088ENTO V0202201N00671220001CN0099001N1+00401+00001999999ADDMA1100201999999MW1001REMMET040ENTO 110850Z 22013KT CAVOK 04/M00 Q1002;EQDQ01+000000PRSWM2
0139014830999992000021206504+59200+010270FM-15+0088ENTO V0202101N009310021019N0080001N1+00501+00401999999ADDGA1071+002109999GF107991999999999999999999MA1100511999999MW1001REMMET045ENTO 120650Z 21018KT 8000 BKN007 05/04 Q1005;EQDQ01+000000PRSWM2
0141014830999992000021914504+59200+010270FM-15+0088ENTO V0200401N001512200019N0112651N1-00301-00601999999ADDGA1021+001809999GF102991999999999999999999MA1101291999999MW1001REMMET047ENTO 191450Z 04003KT 9999 FEW006 M03/M06 Q1013;EQDQ01+000000PRSWM2
0186014830999992000022215504+59200+010270FM-15+0088ENTO V0202401N002110120019N0112651N1+00201-00201999999ADDGA1021+003009999GA2021+007509999GA3071+012009999GF107991999999999999999999MA1102001999999MW1001REMMET060ENTO 221550Z 24004KT 9999 FEW010 SCT025 BKN040 02/M02 Q1020;EQDQ01+000000PRSWM2
0141014830999992000022320504+59200+010270FM-15+0088ENTO V0201801N006210045019N0112651N1+00001-00201999999ADDGA1071+004509999GF107991999999999999999999MA1101801999999MW1001REMMET047ENTO 232050Z 18012KT 9999 BKN015 M00/M02 Q1018;EQDQ01+000000PRSWM2
0171014830999992000030118504+59200+010270FM-15+0088ENTO V0203201N003112200019N0112651N1+00301-00501999999ADDGA1021+007509999GA2021+030009999GF104991999999999999999999MA1098611999999MW1001REMMET061ENTO 011850Z 32006KT 280V360 9999 FEW025 SCT100 03/M05 Q0986;EQDQ01+000000PRSWM2
0100014830999992000030119504+59200+010270FM-15+0088ENTO V0203201N00511220001CN0099001N1+00301-00501999999ADDMA1098821999999MW1001REMMET048ENTO 011950Z 32010KT 290V360 CAVOK 03/M05 Q0988;EQDQ01+000000PRSWM2
0176014830999992000030313504+59200+010270FM-15+0088ENTO V0203401N004610030019N0020001N1+00301-00101999999ADDGA1021+001509999GA2071+003009999GF107991999999999999999999MA1097091999999MW1001REMMET066ENTO 031350Z 34009KT 240V050 2000 SHSG FEW005 BKN010 03/M01 Q0971;EQDQ01+000000PRSWM2
0083014830999992000030905204+59200+010270FM-15+0088ENTO V0203601N005712200019N0112651N1+99999+99999999999ADDMW1001REMMET046ENTO 090520Z 36011KT 9999 CAVOK M02/M05 Q1001;EQDQ01+000000PRSWM2
0093014830999992000030919504+59200+010270FM-15+0088ENTO V0202801N00211220001CN0099001N1-00101-00901999999ADDMA1101391999999MW1001REMMET041ENTO 091950Z 28004KT CAVOK M01/M09 Q1014;EQDQ01+000000PRSWM2
0181014830999992000032115504+59200+010270FM-15+0088ENTO V0202501N006212200019N0112651N1+01201+00301999999ADDGA1021+006009999GA2021+018009999GF104991999999999999999999MA1100911999999MW1001OC101131REMMET063ENTO 211550Z 25012G22KT 210V300 9999 FEW020 SCT060 12/03 Q1009;EQDQ01+000000PRSWM2
0092014830999992000032407504+59200+010270FM-15+0088ENTO V0200201N00101220001CN0099001N1+00101-00901999999ADDMA1101901999999MW1001REMMET040ENTO 240750Z 02002KT CAVOK 01/M09 Q1019;EQDQ01+000000PRSWM2
0093014830999992000032904504+59200+010270FM-15+0088ENTO V0202301N00151220001CN0099001N1+00001-01001999999ADDMA1102611999999MW1001REMMET041ENTO 290450Z 23003KT CAVOK M00/M10 Q1026;EQDQ01+000000PRSWM2
0204014830999992000040414504+59200+010270FM-15+0088ENTO V0200101N007710021019N0020001N1-00201-00201999999ADDGA1021+001509999GA2071+002109999GF107991999999999999999999MA1099391999999MW1101MW2711OC101291REMMET064ENTO 041450Z 01015G25KT 2000 -SN BR FEW005 BKN007 M02/M02 Q0994;EQDQ01+000003PRSWM1Q02    003PRSWM1
0148014830999992000040511504+59200+010270FM-15+0088ENTO V0203401N003112200019N0112651N1+00301-00801999999ADDGA1021+006009999GF102991999999999999999999MA1100711999999MW1001REMMET054ENTO 051150Z 34006KT 300V030 9999 FEW020 03/M08 Q1007;EQDQ01+000000PRSWM2
0198014830999992000041505504+59200+010270FM-15+0088ENTO V0201801N005110030019N0050001N1+00401+00301999999ADDGA1021+000909999GA2021+001809999GA3071+003009999GF107991999999999999999999MW1101MW2611REMMET065ENTO 150550Z 18010KT 5000 -RA BR FEW003 SCT006 BKN010 04/03 0994;EQDQ01+000003PRSWM1Q02    003PRSWM1
0146014830999992000041512504+59200+010270FM-15+0088ENTO V0201901N005112200019N0112651N1+00701+00301999999ADDGA1021+004509999GA2021+009009999GF104991999999999999999999MW1001REMMET051ENTO 151250Z 19010KT 9999 FEW015 SCT030 07/03 0995;EQDQ01+000000PRSWM2
0182014830999992000041917504+59200+010270FM-15+0088ENTO V0201401N002110075019N0070001N1+00801+00701999999ADDGA1021+003609999GA2071+007509999GF107991999999999999999999MA1101391999999MW1611REMMET056ENTO 191750Z 14004KT 7000 -RA SCT012 BKN025 08/07 Q1014;EQDQ01+000003PRSWM1Q02    003PRSWM1
0170014830999992000050113504+59200+010270FM-15+0088ENTO V0200201N005112200019N0112651N1+01501+00801999999ADDGA1021+009009999GA2021+021009999GF104991999999999999999999MA1102611999999MW1001REMMET060ENTO 011350Z 02010KT 340V080 9999 FEW030 SCT070 15/08 Q1026;EQDQ01+000000PRSWM2
0173014830999992000052010504+59200+010270FM-15+0088ENTO V0201801N004612200019N0112651N1+01401+00501999999ADDGA1021+006009029GA2021+007509999GF102991999999999999999999MA1100711999999MW1001REMMET063ENTO 201050Z 18009KT 150V210 9999 FEW020TCU FEW025 14/05 Q1007;EQDQ01+000000PRSWM2
0162014830999992000052604204+59200+010270FM-15+0088ENTO V0202601N003610075019N0112651N1+00801+00601999999ADDGA1021+004509999GA2071+007509999GF107991999999999999999999MA1100201999999MW1001REMMET052ENTO 260420Z 26007KT 9999 FEW015 BKN025 08/06 Q1002;EQDQ01+000000PRSWM2
0172014830999992000053112204+59200+010270FM-15+0088ENTO V0202001N008210600019N0112651N1+01301+00601999999ADDGA1021+006009099GA2071+060009999GF107991999999999999999999MA1101081999999MW1001REMMET062ENTO 311220Z 20016KT 170V230 9999 FEW020CB BKN200 13/06 Q1011;EQDQ01+000000PRSWM2
0173014830999992000060107504+59200+010270FM-15+0088ENTO V0202201N004110600019N0112651N1+01101+00201999999ADDGA1021+006009029GA2071+060009999GF107991999999999999999999MA1101591999999MW1001REMMET063ENTO 010750Z 22008KT 170V260 9999 FEW020TCU BKN200 11/02 Q1016;EQDQ01+000000PRSWM2
0185014830999992000060715504+59200+010270FM-15+0088ENTO V0202401N002610600019N0112651N1+01401+00701999999ADDGA1021+009009099GA2071+060009999GF107991999999999999999999MA1101021999999MW1161REMMET059ENTO 071550Z 24005KT 9999 VCSH FEW030CB BKN200 14/07 Q1010;EQDQ01+000003PRSWM1Q02    003PRSWM1
0099014830999992000060719504+59200+010270FM-15+0088ENTO V0203201N00211220001CN0099001N1+01301+00701999999ADDMA1101021999999MW1001REMMET047ENTO 071950Z 32004KT 260V360 CAVOK 13/07 Q1010;EQDQ01+000000PRSWM2
0139014830999992000061107204+59200+010270FM-15+0088ENTO V0202201N003612200019N0112651N1+01501+01001999999ADDGA1021+003009999GF102991999999999999999999MA1100811999999MW1001REMMET045ENTO 110720Z 22007KT 9999 FEW010 15/10 Q1008;EQDQ01+000000PRSWM2
0139014830999992000061708504+59190+010260FM-15+0088ENTO V02099999999992200019N0112651N1+01301+00201999999ADDGA1021+012009999GF102991999999999999999999MA1102711999999MW1001REMMET045ENTO 170850Z VRB03KT 9999 FEW040 13/02 Q1027;EQDQ01+000000PRSWM2
0185014830999992000062211504+59190+010260FM-15+0088ENTO V0201801N006210210019N0112651N1+01601+01301999999ADDGA1021+003009999GA2021+004509999GA3071+021009999GF107991999999999999999999MA1100711999999MW1001REMMET059ENTO 221150Z 18012KT 9999 FEW010 SCT015 BKN070 16/13 Q1007;EQDQ01+000000PRSWM2
0186014830999992000070811504+59190+010260FM-15+0088ENTO V0202401N002610150019N0112651N1+01501+00301999999ADDGA1021+009009029GA2071+015009999GF107991999999999999999999MA1100411999999MW1161REMMET060ENTO 081150Z 24005KT 9999 VCSH FEW030TCU BKN050 15/03 Q1004;EQDQ01+000003PRSWM1Q02    003PRSWM1
0182014830999992000071010204+59190+010260FM-15+0088ENTO V0200501N003110030019N0070001N1+01201+01101999999ADDGA1021+001809999GA2071+003009999GF107991999999999999999999MA1099491999999MW1611REMMET056ENTO 101020Z 05006KT 7000 -RA SCT006 BKN010 12/11 Q0995;EQDQ01+000003PRSWM1Q02    003PRSWM1
0162014830999992000071308504+59190+010260FM-15+0088ENTO V0200101N005112200019N0112651N1+01801+01101999999ADDGA1021+012009999GA2021+030009999GF104991999999999999999999MA1099701999999MW1001REMMET052ENTO 130850Z 01010KT 9999 FEW040 SCT100 18/11 Q0997;EQDQ01+000000PRSWM2
0139014830999992000073109504+59190+010260FM-15+0088ENTO V0201401N001512200019N0112651N1+01801+01301999999ADDGA1021+006009999GF102991999999999999999999MA1101491999999MW1001REMMET045ENTO 310950Z 14003KT 9999 FEW020 18/13 Q1015;EQDQ01+000000PRSWM2
0165014830999992000080205504+59190+010260FM-15+0088ENTO V0200101N00211000151CN0012001N1+01401+01301999999ADDGA1091+000159999GF109991999999000251999999MA1101081999999MW1451REMMET055ENTO 020550Z 01004KT 1200 R181300 FG VV002 14/13 Q1011;EQDQ01+000003PRSWM1Q02    003PRSWM1
0162014830999992000080817504+59190+010260FM-15+0088ENTO V02099999999992200019N0112651N1+01601+00501999999ADDGA1021+012009999GA2021+024009999GF104991999999999999999999MA1100911999999MW1001REMMET052ENTO 081750Z VRB05KT 9999 FEW040 SCT080 16/05 Q1009;EQDQ01+000000PRSWM2
0165014830999992000081615504+59190+010260FM-15+0088ENTO V0202101N006712200019N0112651N1+01701+01201999999ADDGA1021+012009029GA2021+027009999GF104991999999999999999999MA1100611999999MW1001REMMET055ENTO 161550Z 21013KT 9999 FEW040TCU SCT090 17/12 Q1006;EQDQ01+000000PRSWM2
0187014830999992000082113504+59190+010260FM-15+0088ENTO V02099999999992200019N0112651N1+01801+01201999999ADDGA1021+007509029GA2021+009009099GF104991999999999999999999MA1100811999999MW1161REMMET061ENTO 211350Z 16007K 9999 VCSH SCT025TCU SCT030CB 18/12 Q1008;EQDQ01+000003PRSWM1Q02    003PRSWM1
0193014830999992000082711504+59190+010260FM-15+0088ENTO V0201601N004610240019N0112651N1+01701+01201999999ADDGA1021+005709999GA2021+015009999GA3071+024009999GF107991999999999999999999MA1102101999999MW1001REMMET067ENTO 271150Z 16009KT 120V190 9999 FEW019 SCT050 BKN081 17/12 Q1021;EQDQ01+000000PRSWM2
0102014830999992000091011504+59190+010260FM-15+0088ENTO V0202501N00511220001CN0099001N1+01601+00501999999ADDMA1101391999999MW1001OC101031REMMET042ENTO 101150Z 25010G20KT CAVOK 16/05 Q1014;EQDQ01+000000PRSWM2
0091014830999992000091119504+59190+010260FM-15+0088ENTO V0202701N00261220001CN0099001N1+00901+00501999999ADDMA1101691999999MW1001REMMET039ENTO 111950Z 27005KT CAVOK 09/05 Q1017;EQDQ01+000000PRSWM2
0147014830999992000091411504+59190+010260FM-15+0088ENTO V0200401N002112200019N0112651N1+01201+00701999999ADDGA1021+006009999GF104991999999999999999999MA1102201999999MW1001REMMET053ENTO 141150Z 04004KT 360V120 9999 SCT020 12/07 Q1022;EQDQ01+000000PRSWM2
0170014830999992000091510504+59190+010260FM-15+0088ENTO V0201501N003612200019N0112651N1+01301+00601999999ADDGA1021+006009999GA2021+015009999GF104991999999999999999999MA1102201999999MW1001REMMET060ENTO 151050Z 15007KT 110V190 9999 FEW020 SCT050 13/06 Q1022;EQDQ01+000000PRSWM2
0139014830999992000092204204+59190+010260FM-15+0088ENTO V0200501N002112200019N0112651N1+00901+00801999999ADDGA1021+009009999GF104991999999999999999999MA1103011999999MW1001REMMET045ENTO 220420Z 05004KT 9999 SCT030 09/08 Q1030;EQDQ01+000000PRSWM2
0162014830999992000092215504+59190+010260FM-15+0088ENTO V0201401N002110150019N0112651N1+01301+00701999999ADDGA1021+012009999GA2071+015009999GF107991999999999999999999MA1102911999999MW1001REMMET052ENTO 221550Z 14004KT 9999 SCT040 BKN050 13/07 Q1029;EQDQ01+000000PRSWM2
0091014830999992000092504504+59190+010260FM-15+0088ENTO V0203501N00261220001CN0099001N1+00401+00201999999ADDMA1102911999999MW1001REMMET039ENTO 250450Z 35005KT CAVOK 04/02 Q1029;EQDQ01+000000PRSWM2
0177014830999992000092904504+59190+010260FM-15+0088ENTO V0201701N00311000151CN0002001N1+01301+01301999999ADDED199U07009GA1091+000159999GF109991999999000251999999MA1100711999999MW1451REMMET056ENTO 290450Z 17006KT 0200 R18/0700 FG VV001 13/13 Q1007;EQDQ01+000003PRSWM1Q02    003PRSWM1
0181014830999992000100109504+59190+010260FM-15+0088ENTO V0200901N001510036019N0080001N1+01201+01001999999ADDGA1021+002109999GA2071+003609999GF107991999999999999999999MA1101191999999MW1101REMMET055ENTO 010950Z 09003KT 8000 BR FEW007 BKN012 12/10 Q1012;EQDQ01+000003PRSWM1Q02    003PRSWM1
0091014830999992000100307504+59190+010260FM-15+0088ENTO V0202501N00311220001CN0099001N1+01201+01001999999ADDMA1101081999999MW1001REMMET039ENTO 030750Z 25006KT CAVOK 12/10 Q1011;EQDQ01+000000PRSWM2
0185014830999992000100404204+59190+010260FM-15+0088ENTO V0201901N002610210019N0112651N1+01201+01001999999ADDGA1021+001509999GA2021+010509999GA3071+021009999GF107991999999999999999999MA1101801999999MW1001REMMET059ENTO 040420Z 19005KT 9999 FEW005 SCT035 BKN070 12/10 Q1018;EQDQ01+000000PRSWM2
0186014830999992000101216504+59190+010260FM-15+0088ENTO V0200701N000510150019N0112651N1+01001+00901999999ADDGA1021+004509029GA2071+015009999GF107991999999999999999999MA1100201999999MW1161REMMET060ENTO 121650Z 07001KT 9999 VCSH SCT015TCU BKN050 10/09 Q1002;EQDQ01+000003PRSWM1Q02    003PRSWM1
0206014830999992000101320504+59190+010260FM-15+0088ENTO V02099999999990060019N0112651N1+01001+00901999999ADDGA1021+001509999GA2021+004509999GA3071+006009999GF107991999999999999999999MA1101191999999MW1811REMMET064ENTO 132050Z VRB02KT 9999 SHRA FEW005 SCT015 BKN020 10/09 Q1012;EQDQ01+000003PRSWM1Q02    003PRSWM1
0162014830999992000101814504+59190+010260FM-15+0088ENTO V0201801N005710090019N0112651N1+01101+00801999999ADDGA1021+005109999GA2071+009009999GF107991999999999999999999MA1102001999999MW1001REMMET052ENTO 181450Z 18011KT 9999 SCT017 BKN030 11/08 Q1020;EQDQ01+000000PRSWM2
0158014830999992000102019504+59190+010260FM-15+0088ENTO V0203601N002110009019N0030001N1+00801+00701999999ADDGA1071+000909999GF107991999999999999999999MA1102711999999MW1101REMMET048ENTO 201950Z 36004KT 3000 BR BKN003 08/07 Q1027;EQDQ01+000003PRSWM1Q02    003PRSWM1
0213014830999992000102110504+59190+010260FM-15+0088ENTO V0201701N007210033019N0050001N1+01101+01001999999ADDGA1021+002109999GA2021+002709999GA3071+003309999GF107991999999999999999999MA1102101999999MW1101MW2531REMMET065ENTO 211050Z 17014KT 5000 DZ BR FEW007 SCT009 BKN011 11/10 Q1021;EQDQ01+000003PRSWM1Q02    003PRSWM1
0139014830999992000102705504+59190+010260FM-15+0088ENTO V0200201N003610060019N0112651N1+00301+00101999999ADDGA1071+006009999GF107991999999999999999999MA1100711999999MW1001REMMET045ENTO 270550Z 02007KT 9999 BKN020 03/01 Q1007;EQDQ01+000000PRSWM2
0150014830999992000103107504+59190+010260FM-15+0088ENTO V0202001N011312200019N0112651N1+01001+00301999999ADDGA1021+010509999GF104991999999999999999999MA1097391999999MW1001OC101651REMMET048ENTO 310750Z 20022G32KT 9999 SCT035 10/03 Q0974;EQDQ01+000000PRSWM2
0139014830999992000110214504+59190+010260FM-15+0088ENTO V0202401N001012200019N0112651N1+00601+00501999999ADDGA1021+006009999GF102991999999999999999999MA1099801999999MW1001REMMET045ENTO 021450Z 24002KT 9999 FEW020 06/05 Q0998;EQDQ01+000000PRSWM2
0091014830999992000110519504+59190+010260FM-15+0088ENTO V0202301N00151220001CN0099001N1+00501+00301999999ADDMA1100411999999MW1001REMMET039ENTO 051950Z 23003KT CAVOK 05/03 Q1004;EQDQ01+000000PRSWM2
0162014830999992000111408504+59190+010260FM-15+0088ENTO V0203501N001012200019N0112651N1+00501+00401999999ADDGA1021+006009999GA2021+012009999GF104991999999999999999999MA1100201999999MW1001REMMET052ENTO 140850Z 35002KT 9999 FEW020 SCT040 05/04 Q1002;EQDQ01+000000PRSWM2
0182014830999992000111807504+59190+010260FM-15+0088ENTO V0201301N003110024019N0070001N1+00401+00401999999ADDGA1021+001809999GA2071+002409999GF107991999999999999999999MA1100201999999MW1611REMMET056ENTO 180750Z 13006KT 7000 -RA SCT006 BKN008 04/04 Q1002;EQDQ01+000003PRSWM1Q02    003PRSWM1
0182014830999992000112418504+59190+010260FM-15+0088ENTO V0201801N005710021019N0050001N1+00801+00701999999ADDGA1021+000909999GA2071+002109999GF107991999999999999999999MA1100101999999MW1611REMMET056ENTO 241850Z 18011KT 5000 -RA SCT003 BKN007 08/07 Q1001;EQDQ01+000003PRSWM1Q02    003PRSWM1
0183014830999992000112609504+59190+010260FM-15+0088ENTO V0200701N004110018019N0080001N1+00501+00401999999ADDGA1021+001209999GA2071+001809999GF107991999999999999999999MA1100201999999MW1811REMMET057ENTO 260950Z 07008KT 8000 SHRA SCT004 BKN006 05/04 Q1002;EQDQ01+000003PRSWM1Q02    003PRSWM1
0157014830999992000120813504+59190+010260FM-15+0088ENTO V0200201N00571000151CN0055001N1+00301+00301999999ADDGA1091+000159999GF109991999999000251999999MA1100101999999MW1101REMMET047ENTO 081350Z 02011KT 5500 BR VV002 03/03 Q1001;EQDQ01+000003PRSWM1Q02    003PRSWM1
0166014830999992000121217504+59190+010260FM-15+0088ENTO V0203401N00361000151CN0020001N1+00301+00301999999ADDGA1091+000159999GF109991999999000251999999MA1100201999999MW1101MW2531REMMET050ENTO 121750Z 34007KT 2000 DZ BR VV002 03/03 Q1002;EQDQ01+000003PRSWM1Q02    003PRSWM1
0141014830999992000121915504+59190+010260FM-15+0088ENTO V0200101N001512200019N0112651N1-00201-00301999999ADDGA1021+009009999GF104991999999999999999999MA1103121999999MW1001REMMET047ENTO 191550Z 01003KT 9999 SCT030 M02/M03 Q1031;EQDQ01+000000PRSWM2
0164014830999992000122011504+59190+010260FM-15+0088ENTO V0203501N002110090019N0112651N1-00201-00301999999ADDGA1021+007509999GA2071+009009999GF107991999999999999999999MA1103181999999MW1001REMMET054ENTO 201150Z 35004KT 9999 FEW025 BKN030 M02/M03 Q1032;EQDQ01+000000PRSWM2
0140014830999992000122205504+59190+010260FM-15+0088ENTO V0202001N001512200019N0112651N1+00001-00301999999ADDGA1021+007509999GF104991999999999999999999MA1102301999999MW1001REMMET046ENTO 220550Z 20003KT 9999 SCT025 00/M03 Q1023;EQDQ01+000000PRSWM2
0182014843999992000010203504+59320+010450FM-15+0015ENOA V0202201N019510060019N0080001N1+00701+00701999999ADDGA1021+003009999GA2071+006009999GF107991999999999999999999MA1099901999999MW1611REMMET056ENOA 020350Z 22038KT 8000 -RA SCT010 BKN020 07/07 Q0999;EQDQ01+000003PRSWM1Q02    003PRSWM1
0173014843999992000010805504+59320+010450FM-15+0015ENOA V0202201N025710090019N0112651N1+00601+00101999999ADDGA1021+004509999GA2071+009009999GF107991999999999999999999MA1098001999999MW1001OC103091REMMET055ENOA 080550Z 22050G60KT 9999 FEW015 BKN030 06/01 Q0980;EQDQ01+000000PRSWM2
0162014843999992000011902504+59320+010450FM-15+0015ENOA V0203501N011810105019N0112651N1+00501+00001999999ADDGA1021+006009999GA2071+010509999GF107991999999999999999999MA1103011999999MW1001REMMET052ENOA 190250Z 35023KT 9999 SCT020 BKN035 05/00 Q1030;EQDQ01+000000PRSWM2
0162014843999992000012415504+59320+010450FM-15+0015ENOA V0200101N007712200019N0112651N1+00701+00101999999ADDGA1021+004509999GA2021+007509999GF104991999999999999999999MA1102101999999MW1001REMMET052ENOA 241550Z 01015KT 9999 FEW015 SCT025 07/01 Q1021;EQDQ01+000000PRSWM2
0159014843999992000012514504+59320+010450FM-15+0015ENOA V0203101N006210012019N0020001N1+00701+00601999999ADDGA1081+001209999GF108991999999999999999999MA1102201999999MW1101REMMET049ENOA 251450Z 31012KT 2000E BR OVC004 07/06 Q1022;EQDQ01+000003PRSWM1Q02    003PRSWM1
0182014843999992000020207504+59320+010450FM-15+0015ENOA V0202401N011810024019N0112651N1+00201+00101999999ADDGA1021+001509999GA2071+002409999GF107991999999999999999999MA1098821999999MW1511REMMET056ENOA 020750Z 24023KT 9999 -DZ SCT005 BKN008 02/01 Q0988;EQDQ01+000003PRSWM1Q02    003PRSWM1
0163014843999992000021304504+59320+010450FM-15+0015ENOA V0203201N017010090019N0112651N1+00401-00201999999ADDGA1021+003609999GA2071+009009999GF107991999999999999999999MA1098921999999MW1001REMMET053ENOA 130450Z 32033KT 9999 FEW012 BKN030 04/M02 Q0989;EQDQ01+000000PRSWM2
0140014843999992000030303204+59320+010450FM-15+0015ENOA V0200101N018510036019N0112651N1+00201+00001999999ADDGA1071+003609999GF107991999999999999999999MA1097191999999MW1001REMMET046ENOA 030320Z 01036KT 9999 BKN012 02/M00 Q0972;EQDQ01+000000PRSWM2
0162014843999992000030707204+59320+010450FM-15+0015ENOA V0203601N010810075019N0112651N1+00601+00101999999ADDGA1021+003609999GA2071+007509999GF107991999999999999999999MA1100001999999MW1001REMMET052ENOA 070720Z 36021KT 9999 FEW012 BKN025 06/01 Q1000;EQDQ01+000000PRSWM2
0140014843999992000031601204+59320+010450FM-15+0015ENOA V0202801N002610090019N0112651N1+00401-00401999999ADDGA1071+009009999GF107991999999999999999999MA1102201999999MW1001REMMET046ENOA 160120Z 28005KT 9999 BKN030 04/M04 Q1022;EQDQ01+000000PRSWM2
0139014843999992000040615204+59320+010450FM-15+0015ENOA V0202901N010310075019N0112651N1+00701+00601999999ADDGA1071+007509999GF107991999999999999999999MA1102301999999MW1001REMMET045ENOA 061520Z 29020KT 9999 BKN025 07/06 Q1023;EQDQ01+000000PRSWM2
0158014843999992000042710504+59320+010450FM-15+0015ENOA V0201801N00871000151CN0020001N1+00801+00801999999ADDGA1091+000159999GF109991999999000251999999MA1101191999999MW1101REMMET048ENOA 271050Z 18017KT 2000 BR VV002 08/08 Q1012 ;EQDQ01+000003PRSWM1Q02    003PRSWM1
0091014843999992000050404504+59320+010450FM-15+0015ENOA V0203601N00511220001CN0099001N1+00801+00401999999ADDMA1102611999999MW1001REMMET039ENOA 040450Z 36010KT CAVOK 08/04 Q1026;EQDQ01+000000PRSWM2
0182014843999992000052206504+59320+010450FM-15+0015ENOA V0201701N008210060019N0112651N1+00901+00601999999ADDGA1021+003009999GA2071+006009999GF107991999999999999999999MA1100711999999MW1611REMMET056ENOA 220650Z 17016KT 9999 -RA FEW010 BKN020 09/06 Q1007;EQDQ01+000003PRSWM1Q02    003PRSWM1
0162014843999992000072103504+59320+010450FM-15+0015ENOA V0203601N007010036019N0112651N1+01201+01101999999ADDGA1021+002109999GA2071+003609999GF107991999999999999999999MA1102301999999MW1001REMMET052ENOA 210350Z 36007KT 9999 SCT007 BKN012 12/11 Q1023;EQDQ01+000000PRSWM2
0139014843999992000072115504+59320+010450FM-15+0015ENOA V0203401N015010024019N0112651N1+01201+01101999999ADDGA1071+002409999GF107991999999999999999999MA1102511999999MW1001REMMET045ENOA 211550Z 34015KT 9999 BKN008 12/11 Q1025;EQDQ01+000000PRSWM2
0091014843999992000072511504+59320+010450FM-15+0015ENOA V0201001N00571220001CN0099001N1+01501+01201999999ADDMA1100911999999MW1001REMMET039ENOA 251150Z 10011KT CAVOK 15/12 Q1009;EQDQ01+000000PRSWM2
0157014843999992000081309504+59320+010450FM-15+0015ENOA V0201801N01541000151CN0030001N1+01401+01401999999ADDGA1091+000159999GF109991999999000251999999MA1101391999999MW1101REMMET047ENOA 130950Z 18030KT 3000 BR VV003 14/14 Q1014;EQDQ01+000003PRSWM1Q02    003PRSWM1
0139014843999992000082712504+59320+010450FM-15+0015ENOA V0201701N022110030019N0060001N1+01401+01401999999ADDGA1071+003009999GF107991999999999999999999MA1100911999999MW1001REMMET045ENOA 271250Z 17043KT 6000 BKN010 14/14 Q1009;EQDQ01+000000PRSWM2
0157014843999992000082914504+59320+010450FM-15+0015ENOA V0200201N01391000151CN0008001N1+01201+01201999999ADDGA1091+000159999GF109991999999000251999999MA1101591999999MW1451REMMET047ENOA 291450Z 02027KT 0800 FG VV002 12/12 Q1016;EQDQ01+000003PRSWM1Q02    003PRSWM1
0139014843999992000083010504+59320+010450FM-15+0015ENOA V0203601N011810075019N0112651N1+01101+00701999999ADDGA1071+007509999GF107991999999999999999999MA1101591999999MW1001REMMET045ENOA 301050Z 36023KT 9999 BKN025 11/07 Q1016;EQDQ01+000000PRSWM2
0159014843999992000090512504+59320+010450FM-15+0015ENOA V0201701N014410045019N0090001N1+01201+01001999999ADDGA1071+004509999GF107991999999999999999999MA1101291999999MW1611REMMET049ENOA 051250Z 17028KT 9000 -RA BKN015 12/10 Q1013;EQDQ01+000003PRSWM1Q02    003PRSWM1
0194014843999992000092804504+59320+010450FM-15+0015ENOA V0201501N021610060019N0112651N1+01201+01201999999ADDGA1021+003009999GA2071+006009999GF107991999999999999999999MA1099291999999MW1811OC102681REMMET060ENOA 280450Z 15042G52KT 9999 SHRA SCT010 BKN020 12/12 Q0993;EQDQ01+000003PRSWM1Q02    003PRSWM1
0162014843999992000101014504+59320+010450FM-15+0015ENOA V0200801N014412200019N0112651N1+01201+00701999999ADDGA1021+010509999GA2021+021009999GF104991999999999999999999MA1098711999999MW1001REMMET052ENOA 101450Z 08028KT 9999 FEW035 SCT070 12/07 Q0987;EQDQ01+000000PRSWM2
0162014843999992000101405504+59320+010450FM-15+0015ENOA V0201801N014412200019N0112651N1+01101+00901999999ADDGA1021+002709999GA2021+009009999GF104991999999999999999999MA1100311999999MW1001REMMET052ENOA 140550Z 18028KT 9999 FEW009 SCT030 11/09 Q1003;EQDQ01+000000PRSWM2
0162014843999992000101910504+59320+010450FM-15+0015ENOA V0201801N010310150019N0112651N1+01201+00901999999ADDGA1021+006009999GA2071+015009999GF107991999999999999999999MA1100811999999MW1001REMMET052ENOA 191050Z 18020KT 9999 SCT020 BKN050 12/09 Q1008;EQDQ01+000000PRSWM2
0139014843999992000102009504+59320+010450FM-15+0015ENOA V0201901N014912200019N0112651N1+01101+00601999999ADDGA1021+006009999GF104991999999999999999999MA1102001999999MW1001REMMET045ENOA 200950Z 19029KT 9999 SCT020 11/06 Q1020;EQDQ01+000000PRSWM2
0183014843999992000111611504+59320+010450FM-15+0015ENOA V0201601N019012200019N0112651N1+00801+00301999999ADDGA1021+004509999GA2021+009009999GF104991999999999999999999MA1099801999999MW1161REMMET057ENOA 161150Z 16037KT 9999 VCSH FEW015 SCT030 08/03 Q0998;EQDQ01+000003PRSWM1Q02    003PRSWM1
0162014843999992000112706504+59320+010450FM-15+0015ENOA V0202301N015410105019N0112651N1+00801+00601999999ADDGA1021+006009999GA2071+010509999GF107991999999999999999999MA1099091999999MW1001REMMET052ENOA 270650Z 23030KT 9999 SCT020 BKN035 08/06 Q0991;EQDQ01+000000PRSWM2
0182014843999992000113008504+59320+010450FM-15+0015ENOA V0202401N020110045019N0060001N1+00901+00801999999ADDGA1021+002409999GA2071+004509999GF107991999999999999999999MA1099191999999MW1611REMMET056ENOA 300850Z 24039KT 6000 -RA SCT008 BKN015 09/08 Q0992;EQDQ01+000003PRSWM1Q02    003PRSWM1
0139014843999992000120506504+59320+010450FM-15+0015ENOA V0202001N017512200019N0112651N1+01001+00801999999ADDGA1021+003009999GF104991999999999999999999MA1099391999999MW1001REMMET045ENOA 050650Z 20034KT 9999 SCT010 10/08 Q0994;EQDQ01+000000PRSWM2
0182014843999992000120604504+59320+010450FM-15+0015ENOA V0202001N012910150019N0112651N1+00901+00901999999ADDGA1021+006009999GA2071+015009999GF107991999999999999999999MA1099591999999MW1611REMMET056ENOA 060450Z 20025KT 9999 -RA SCT020 BKN050 09/09 Q0996;EQDQ01+000003PRSWM1Q02    003PRSWM1
0163014843999992000121508504+59320+010450FM-15+0015ENOA V0203601N021110150019N0112651N1+00301-00601999999ADDGA1021+009009999GA2071+015009999GF107991999999999999999999MA1099491999999MW1001REMMET053ENOA 150850Z 36041KT 9999 SCT030 BKN050 03/M06 Q0995;EQDQ01+000000PRSWM2
0186014843999992000121515504+59320+010450FM-15+0015ENOA V0200101N023710090019N0080001N1+00301+00001999999ADDGA1021+003609029GA2071+009009999GF107991999999999999999999MA1099591999999MW1161REMMET060ENOA 151550Z 01046KT 8000 VCSH SCT012TCU BKN030 03/00 Q0996;EQDQ01+000003PRSWM1Q02    003PRSWM1
0133014920999992000010815004+59950+010830FM-12+009699999V0202101N001512200019N0750001N1+00511-00021099511ADDGF102991021051008001001001MA1999999098351MD1310081+9999REMSYN066AAXX  08154 01492 42589 22103 10051 21002 39835 49951 53008 82500;
0133014920999992000020821004+59950+010830FM-12+009699999V0200501N002610075019N0300001N1-00051-00391098471ADDGF107991061051008001071999MA1999999097301MD1810131+9999REMSYN066AAXX  08214 01492 42580 70505 11005 21039 39730 49847 58013 8657/;
0143014920999992000021703004+59950+010830FM-12+009699999V0200901N000512200019N0700001N1-00841-00931099941ADDGA1001+999999999GF100991001001999999001001MA1999999098721MD1110091+9999REMSYN060AAXX  17034 01492 42988 00901 11084 21093 39872 49994 51009;
0171014920999992000030815004+59950+010830FM-12+009699999V0200401N001010012019N0020001N1-00021-00101099161ADDAY171031AY221031GA1091+999999999GF109991091999999999999999MA1999999097981MD1810341+9999MW1731REMSYN066AAXX  08154 01492 41/20 90402 11002 21010 39798 49916 58034 77372;
0133014920999992000031015004+59950+010830FM-12+009699999V0202201N001019999999N0750001N1+00271-01241101731ADDGF108991081001999999071999MA1999999100541MD1810171+9999REMSYN066AAXX  10154 01492 42989 82202 10027 21124 30054 40173 58017 8807/;
0143014920999992000032403004+59950+010830FM-12+009699999V0200501N000512200019N0750001N1-00261-00771101781ADDGA1001+999999999GF100991001001999999001001MA1999999100561MD1310041+9999REMSYN060AAXX  24034 01492 42989 00501 11026 21077 30056 40178 53004;
0143014920999992000040509004+59950+010830FM-12+009699999V0203501N003612200019N0750001N1+00151-00961100441ADDGA1001+999999999GF100991001001999999001001MA1999999099261MD1110251+9999REMSYN060AAXX  05094 01492 42989 03507 10015 21096 39926 40044 51025;
0147014920999992000041503004+59950+010830FM-12+009699999V0201801N001510012019N0150001N1+00371+00371099431ADDAY161031AY221031GF108991061071001501021999MA1999999098271MW1601REMSYN072AAXX  15034 01492 41265 81803 10037 20037 39827 49943 5//// 76062 8672/;
0192014920999992000061218004+59950+010830FM-12+009699999V0202101N001512200019N0750001N1+01701+00411101031ADDAA199000091GF104991021011012501031081KA1120M+01781MA1999999099901MD1310151+9999REMSYN082AAXX  12184 01492 32689 42103 10170 20041 39990 40103 53015 82138 333 10178 91112;EQDQ01  00002PRCP99
0133014920999992000061221004+59950+010830FM-12+009699999V0202101N001510300019N0750001N1+01471+00671101161ADDGF107991011051008001071041MA1999999100021MD1310121+9999REMSYN066AAXX  12214 01492 42589 72103 10147 20067 30002 40116 53012 81574;
0133014920999992000061718004+59940+010830FM-12+009699999V0201801N002110300019N0700001N1+01341+00191999999ADDGF107991011021012501051081KA1120M+01691REMSYN082AAXX  17184 01492 42688 71804 10134 20019 3//// 4//// 5//// 81258 333 10169 91111;
0192014920999992000071006004+59940+010830FM-12+009699999V0200301N001510300019N0700001N1+01181+00821099801ADDAA199000091GF107991041081008001071999KA1120N+00841MA1999999098661MD1810021+9999REMSYN082AAXX  10064 01492 32588 70303 10118 20082 39866 49980 58002 8487/ 333 20084 91107;EQDQ01  00002PRCP99
0133014920999992000072803004+59940+010830FM-12+009699999V0200201N001510075019N0600001N1+01331+01061101271ADDGF106991051051008001071999MA1999999100131MD1810031+9999REMSYN066AAXX  28034 01492 42586 60203 10133 20106 30013 40127 58003 8557/;
0133014920999992000080221004+59940+010830FM-12+009699999V0201801N001010150019N0170001N1+01711+01331100971ADDGF107991061081012501071999MA1999999099841MD1110031+9999REMSYN066AAXX  02214 01492 42667 71802 10171 20133 39984 40097 51003 8687/;
0143014920999992000083100004+59940+010830FM-12+009699999V0209999C000010012019N0600001N1+01221+01121101121ADDGF107991061061001501071999MA1999999099971MD1810051+9999REMSYN076AAXX  31004 01492 42286 70000 10122 20112 39997 40112 58005 8667/ 333 91102;
0161014920999992000083115004+59940+010830FM-12+009699999V0209999C000010300019N0650001N1+01611+01091100921ADDAY181031AY221031GF106991041091008001061011MA1999999099791MD1810071+9999MW1021REMSYN072AAXX  31154 01492 41587 60000 10161 20109 39979 40092 58007 70282 84961;
0133014920999992000090221004+59940+010830FM-12+009699999V0200101N002112200019N0700001N1+01081+00351100791ADDGF104991011051012501071011MA1999999099641MD1210111+9999REMSYN066AAXX  02214 01492 42688 40104 10108 20035 39964 40079 52011 81571;
0192014920999992000091106004+59940+010830FM-12+009699999V0200901N000512200019N0750001N1+00581+00211101741ADDAA199000091GF101991011001999999031011KA1120N+00491MA1999999100551MD1310071+9999REMSYN082AAXX  11064 01492 32989 10901 10058 20021 30055 40174 53007 81031 333 20049 91105;EQDQ01  00002PRCP99
0207014920999992000101006004+59940+010830FM-12+009699999V0200501N000510012019N0100001N1+00901+00811100131ADDAA112027991AY161061AY261061GF108991071071001501021999KA1120N+00811MA1999999098981MD1710091+9999MW1611REMSYN094AAXX  10064 01492 11260 80501 10090 20081 39898 40013 57009 60282 76166 8772/ 333 20081 91107;
0143014920999992000102112004+59940+010830FM-12+009699999V0201701N002110006019N0080001N1+01131+00881102071ADDGF108991081061000751999999MA1999999100911MD1610181+9999REMSYN076AAXX  21124 01492 42158 81704 10113 20088 30091 40207 56018 886// 333 91111;
0133014920999992000102209004+59940+010830FM-12+009699999V0200801N000512200019N0750001N1+00921+00391102061ADDGF101991011001017501041081MA1999999100881MD1110271+9999REMSYN066AAXX  22094 01492 42789 10801 10092 20039 30088 40206 51027 81048;
0206014920999992000102618004+59940+010830FM-12+009699999V0200201N003619999999N0250001N1+00381+00171099941ADDAA112005191AY161061AY251061GF108991999999002501999999KA1120M+00691MA1999999098771MD1210301+9999MW1611REMSYN093AAXX  26184 01492 11375 80207 10038 20017 39877 49994 52030 60052 76165 877/ 333 10069 91112;
0171014920999992000110512004+59940+010830FM-12+009699999V0201701N001010012019N0600001N1+00661+00451100501ADDAY181061AY221061GF108991061061001501071999MA1999999099331MD1110011+9999MW1151REMSYN082AAXX  05124 01492 41286 81702 10066 20045 39933 40050 51001 71582 8667/ 333 91105;
0171014920999992000110912004+59940+010830FM-12+009699999V0201401N001010012019N0130001N1+00811+00601100011ADDAY161061AY251061GF108991071071001501071999MA1999999098861MD1110071+9999MW1021REMSYN082AAXX  09124 01492 41263 81402 10081 20060 39886 40001 51007 70265 8777/ 333 91105;
0207014920999992000120706004+59940+010830FM-12+009699999V0200601N000510012019N0120001N1+00771+00711100711ADDAA112000591AY161061AY251061GF108991071071001501999999KA1120N+00761MA1999999099541MD1610181+9999MW1581REMSYN094AAXX  07064 01492 11262 80601 10077 20071 39954 40071 56018 69952 75865 877// 333 20076 91106;
0161014920999992000122709004+59940+010830FM-12+009699999V0201001N001010012019N0250001N1-00271-00511100101ADDAY171031AY221031GF108991061071001501021999MA1999999098891MD1310171+9999MW1021REMSYN072AAXX  27094 01492 41275 81002 11027 21051 39889 40010 53017 70272 8672/;
0171014920999992000122821004+59940+010830FM-12+009699999V0200201N005710024019N0030001N1-00381-00611099551ADDAY171031AY271031GA1091+999999999GF109991091999999999999999MA1999999098351MD1810181+9999MW1711REMSYN066AAXX  28214 01492 41/30 90211 11038 21061 39835 49955 58018 77177;
0192014940999992000010610504+59380+010780FM-15+0053ENRY V0202001N009810018019N0070001N1+00601+00601999999ADDGA1021+001209999GA2071+001809999GF107991999999999999999999MA1099591999999MW1001OC101491REMMET074ENRY 061050Z 20019G29KT 160V230 7000 FEW004 BKN006 06/06 Q0996 TEMPO 3000;EQDQ01+000000PRSWM2
0229014940999992000010718004+59380+010780FM-12+0053ENRY V0202101N005710024019N0060001N1+00601+00551100021ADDAA112000191AY161061AY251061GA1071+002409079GF108991081071001501999999KA1120M+00601MA1999999099381MD1610191+9999MW1501REMSYN100AAXX  07184 01494 11256 82111 10060 20055 39938 40002 56019 69912 75065 887// 333 10060 87708 91117;
0206014940999992000011116504+59380+010780FM-15+0053ENRY V0201701N003110600019N0070001N1+00401+00401999999ADDGA1021+000909999GA2021+002109999GA3071+060009999GF107991999999999999999999MA1102001999999MW1001REMMET080ENRY 111650Z 17006KT 7000 FEW003 SCT007 BKN200 04/04 Q1020 TEMPO 4000 BR BKN003;EQDQ01+000000PRSWM2
0147014940999992000011215504+59380+010780FM-15+0053ENRY V0209999C000010270019N0112651N1+00301+00301999999ADDGA1071+027009999GF107991999999999999999999MA1101081999999MW1001REMMET053ENRY 121550Z 00000KT 9999 FFEW007 BKN090 03/03 Q1011;EQDQ01+000000PRSWM2
0171014940999992000011402504+59380+010780FM-15+0053ENRY V0200301N004110270019N0112651N1+00001-00301999999ADDGA1021+004509999GA2071+027009999GF107991999999999999999999MA1102201999999MW1001REMMET061ENRY 140250Z 03008KT 010V070 9999 FEW015 BKN090 00/M03 Q1022;EQDQ01+000000PRSWM2
0101014940999992000011415204+59380+010780FM-15+0053ENRY V0203601N00361220001CN0099001N1-00201-00601999999ADDMA1102711999999MW1001REMMET049ENRY 141520Z 36007KT 330V030 CAVOK M02/M06 Q1027;EQDQ01+000000PRSWM2
0100014940999992000011802504+59380+010780FM-15+0053ENRY V0200401N00361220001CN0099001N1+00001-00601999999ADDMA1100711999999MW1001REMMET048ENRY 180250Z 04007KT 360V060 CAVOK 00/M06 Q1007;EQDQ01+000000PRSWM2
0200014940999992000012709504+59380+010780FM-15+0053ENRY V0201801N002610360019N0112651N1+00101-00101999999ADDGA1021+009009999GA2071+036009999GA3071+060009999GF107991999999999999999999MA1100411999999MW1001REMMET074ENRY 270950Z 18005KT 150V210 9999 FEW030 BKN120 BKN200 01/M01 Q1004 NOSIG;EQDQ01+000000PRSWM2
0187014940999992000012809004+59380+010780FM-12+0053ENRY V0201101N000510330019N0750001N1-00111-00631099761ADDAY121031AY221031GA1061+033009079GF107991061001999999051061MA1999999099091MD1010001+9999MW1021REMSYN082AAXX  28094 01494 41989 71101 11011 21063 39909 49976 50000 70222 86056 333 86361;
0192014940999992000012812504+59380+010780FM-15+0053ENRY V0202001N002110210019N0112651N1+00201-00401999999ADDGA1021+007509999GA2021+015009999GA3071+021009999GF107991999999999999999999MA1099391999999MW1001REMMET066ENRY 281250Z 20004KT 9999 FEW025 SCT050 BKN070 02/M04 Q0994 NOSIG;EQDQ01+000000PRSWM2
0187014940999992000012815004+59380+010780FM-12+0053ENRY V0201601N000519999999N0600001N1+00091-00291099361ADDAY121031AY221031GA1041+030009079GF106991041001999999041081MA1999999098701MD1710251+9999MW1021REMSYN082AAXX  28154 01494 41986 61601 10009 21029 39870 49936 57025 70222 84048 333 84360;
0116014940999992000013002504+59380+010780FM-15+0053ENRY V0203001N00571220001CN0099001N1+00401-00501999999ADDMA1095802999999MW1001REMMET048ENRY 300250Z 30011KT 260V340 CAVOK 04/M05 Q0958;EQDQ01+095803APOA  Q02+000000PRSWM2
0149014940999992000013016504+59380+010780FM-15+0053ENRY V0203001N005712200019N0112651N1-00101-01501999999ADDGA1021+007509999GF102991999999999999999999MA1099701999999MW1001REMMET055ENRY 301650Z 30011KT 280V010 9999 FEW025 M01/M15 Q0997;EQDQ01+000000PRSWM2
0101014940999992000020303504+59380+010780FM-15+0053ENRY V0200101N00211220001CN0099001N1-00401-00801999999ADDMA1100611999999MW1001REMMET049ENRY 030350Z 01004KT 340V040 CAVOK M04/M08 Q1006;EQDQ01+000000PRSWM2
0093014940999992000020316504+59380+010780FM-15+0053ENRY V0202101N00261220001CN0099001N1-00101-00801999999ADDMA1102001999999MW1001REMMET041ENRY 031650Z 21005KT CAVOK M01/M08 Q1020;EQDQ01+000000PRSWM2
0187014940999992000020609004+59380+010780FM-12+0053ENRY V0202001N002612200019N0100001N1+00491+00461100211ADDAY121031AY211031GA1011+003009069GF102991011061004501041011MA1999999099571MD1310111+9999MW1021REMSYN082AAXX  06094 01494 41460 22005 10049 20046 39957 40021 53011 70221 81641 333 81710;
0175014940999992000020622504+59380+010780FM-15+0053ENRY V0202001N00511000151CN0008001N1+00401+00401999999ADDGA1091+000159999GF109991999999000251999999MA1100201999999MW1451MW2511REMMET059ENRY 062250Z 20010KT 160V240 0800 -DZ FG VV003 04/04 Q1002;EQDQ01+000003PRSWM1Q02    003PRSWM1
0250014940999992000020708504+59380+010780FM-15+0053ENRY V0202001N010310039019N0060001N1+00501+00401999999ADDGA1021+001209999GA2021+002109999GA3071+003909999GF107991999999999999999999MA1098611999999MW1511MW2611OC101541REMMET094ENRY 070850Z 20020G30KT 160V230 6000 -RADZ FEW004 SCT007 BKN013 05/04 Q0986 TEMPO 2500 BKN005;EQDQ01+000003PRSWM1Q02    003PRSWM1
0187014940999992000021121004+59380+010780FM-12+0053ENRY V0202101N002112200019N0400001N1+00451+00301100981ADDAY111031AY201031GA1041+060009019GF104991011051004501041081MA1999999100321MD1210091+9999MW1031REMSYN082AAXX  11214 01494 41482 42104 10045 20030 30032 40098 52009 70310 81548 333 84070;
0172014940999992000021623504+59380+010780FM-15+0053ENRY V0200601N002610012019N0112651N1-00401-00401999999ADDGA1021+000609999GA2071+001209999GF107991999999999999999999MA1099701999999MW1001REMMET062ENRY 162350Z 06005KT 030V080 9999 FEW002 BKN004 M04/M04 Q0997;EQDQ01+000000PRSWM2
0093014940999992000022104504+59380+010780FM-15+0053ENRY V0209999C00001220001CN0099001N1-00901-01001999999ADDMA1102611999999MW1001REMMET041ENRY 210450Z 00000KT CAVOK M09/M10 Q1026;EQDQ01+000000PRSWM2
0206014940999992000022109004+59380+010780FM-12+0053ENRY V0209999C000012200019N0750001N1-00661-00861102651ADDAY101031AY201031GA1999+000159999GF101991001001999999001011MA1999999102001MD1210031+9999MW1021REMSYN082AAXX  21094 01494 41989 10000 11066 21086 30200 40265 52003 70200 80001 333 80001;EQDQ01    003SCCGA1
0099014940999992000022616504+59380+010780FM-15+0053ENRY V0202001N00311220001CN0099001N1+00401+00201999999ADDMA1101691999999MW1001REMMET047ENRY 261650Z 20006KT 180V230 CAVOK 04/02 Q1017;EQDQ01+000000PRSWM2
0101014940999992000031004504+59380+010780FM-15+0053ENRY V0203001N00311220001CN0099001N1-00301-01201999999ADDMA1101801999999MW1001REMMET049ENRY 100450Z 30006KT 200V330 CAVOK M03/M12 Q1018;EQDQ01+000000PRSWM2
0192014940999992000031107504+59380+010780FM-15+0053ENRY V0200401N004110210019N0060001N1-00201-00201999999ADDGA1021+003009999GA2071+021009999GF107991999999999999999999MA1100711999999MW1711REMMET066ENRY 110750Z 04008KT 020V070 6000 -SN FEW010 BKN070 M02/M02 Q1007;EQDQ01+000003PRSWM1Q02    003PRSWM1
0100014940999992000031418504+59380+010780FM-15+0053ENRY V0203201N00461220001CN0099001N1+00201-00901999999ADDMA1099701999999MW1001REMMET048ENRY 141850Z 32009KT 280V350 CAVOK 02/M09 Q0997;EQDQ01+000000PRSWM2
0106014940999992000031507504+59380+010780FM-15+0053ENRY V0203101N00361220001CN0099001N1+00201-01001999999ADDMA1101191999999MW1001REMMET054ENRY 150750Z 31007KT 260V360 CAVOK 02/M10 Q1012 NOSIG;EQDQ01+000000PRSWM2
0199014940999992000031612504+59380+010780FM-15+0053ENRY V0202001N004110600019N0112651N1+99999+99999999999ADDGA1021+009009999GA2021+027009999GA3071+060009999GF107991999999999999999999MA1101901999999MW1001REMMET073ENRY 161250Z 20008KT 170V230 9999 FEW030 SCT090 BKN200 04/09 Q1019 NOSIG;EQDQ01+000000PRSWM2
0229014940999992000031718004+59380+010780FM-12+0053ENRY V0209999C00001030001CN0700001N1+00221-00371102361ADDAA112000191AY121061AY221061GA1041+018009069GF107991041051017501071999KA1120M+00371MA1999999101691MD1510011+9999MW1021REMSYN100AAXX  17184 01494 11788 70000 10022 21037 30169 40236 55001 69912 70222 8457/ 333 10037 84656 91103;
0177014940999992000032310504+59380+010780FM-15+0053ENRY V0202901N006712200019N0112651N1+00301-00801999999ADDGA1021+012009999GA2021+027009999GF104991999999999999999999MA1101291999999MW1001REMMET067ENRY 231050Z 29013KT 260V320 9999 FEW040 SCT090 03/M08 Q1013 NOSIG;EQDQ01+000000PRSWM2
0093014940999992000032903504+59380+010780FM-15+0053ENRY V0201601N00261220001CN0099001N1-00101-00501999999ADDMA1102611999999MW1001REMMET041ENRY 290350Z 16005KT CAVOK M01/M05 Q1026;EQDQ01+000000PRSWM2
0099014940999992000032905504+59380+010780FM-15+0053ENRY V0201501N00151220001CN0099001N1-00101-00401999999ADDMA1102611999999MW1001REMMET047ENRY 290550Z 15003KT CAVOK M01/M04 Q1026 NOSIG;EQDQ01+000000PRSWM2
0209014940999992000033112504+59380+010780FM-15+0053ENRY V0202101N003610030019N0060001N1+00401+00301999999ADDGA1021+000909999GA2071+003009999GF107991999999999999999999MA1100101999999MW1401REMMET083ENRY 311250Z 21007KT 170V230 6000 VCFG SCT003 BKN010 04/03 Q1001 TEMPO 2000 BKN005;EQDQ01+000003PRSWM1Q02    003PRSWM1
0201014940999992000040417504+59380+010780FM-15+0053ENRY V0203501N006210045019N0028001N1-00101-00201999999ADDGA1021+001509999GA2071+004509999GF107991999999999999999999MA1099491999999MW1101MW2711REMMET069ENRY 041750Z 35012KT 300V020 2800 -SN BR FEW005 BKN015 M01/M02 Q0995;EQDQ01+000003PRSWM1Q02    003PRSWM1
0147014940999992000040615504+59380+010780FM-15+0053ENRY V0202101N002112200019N0112651N1+01101+00101999999ADDGA1021+009009999GF102991999999999999999999MA1101691999999MW1001REMMET053ENRY 061550Z 21004KT 190V240 9999 FEW030 11/01 Q1017;EQDQ01+000000PRSWM2
0169014940999992000040707504+59380+010780FM-15+0053ENRY V0209999C000012200019N0112651N1+00501-00501999999ADDGA1021+012009999GA2021+021009999GF104991999999999999999999MA1102911999999MW1001REMMET059ENRY 070750Z 00000KT 9999 FEW040 SCT070 05/M05 Q1029 NOSIG;EQDQ01+000000PRSWM2
0187014940999992000041903004+59380+010780FM-12+0053ENRY V0202201N001010006019N0014001N1+00531+00531101391ADDAY121031AY201031GA1071+000609069GF108991081061000251999999MA1999999100731MD1210141+9999MW1101REMSYN082AAXX  19034 01494 41014 82202 10053 20053 30073 40139 52014 71020 886// 333 87702;
0223014940999992000042618004+59380+010780FM-12+0053ENRY V0200101N001510360019N0400001N1+01211+00611101661ADDAA199000021AY121061AY221061GA1061+036009039GF107991011051008001071021KA1120M+01411MA1999999101021MD1610051+9999MW1021REMSYN094AAXX  26184 01494 31582 70103 10121 20061 30102 40166 56005 70222 81572 333 10141 86362 91106;
0176014940999992000042804504+59380+010780FM-15+0053ENRY V0200101N004610120019N0112651N1+01001+00801999999ADDGA1021+006009999GA2071+012009999GF107991999999999999999999MA1102101999999MW1001REMMET066ENRY 280450Z 01009KT 340V050 9999 FEW020 BKN040 10/08 Q1021 NOSIG;EQDQ01+000000PRSWM2
0206014940999992000042809004+59380+010780FM-12+0053ENRY V0200201N00261030001CN0300001N1+01231+00831102142ADDAY121031AY221031GA1041+024009079GF107991021081008001041081MA1999999101491MD1510031+9999MW1021REMSYN082AAXX  28094 01494 41580 70205 10123 20083 30149 40214 55003 70222 82848 333 84358;EQDQ01+102143APOSLP
0242014940999992000050606004+59380+010780FM-12+0053ENRY V0200201N001512200019N0750001N1+00981+00151102361ADDAA199000091AY101061AY201061GA1011+030009039GF101991011001999999041011KA1120N+00581MA1999999101691MD1110151+9999MW1011REMSYN094AAXX  06064 01494 31989 10203 10098 20015 30169 40236 51015 70100 81041 333 20058 81360 91105;EQDQ01  00002PRCP99
0139014940999992000050619504+59380+010780FM-15+0053ENRY V0202001N001512200019N0112651N1+01401+00301999999ADDGA1021+013509999GF102991999999999999999999MA1102101999999MW1001REMMET045ENRY 061950Z 20003KT 9999 FEW045 14/03 Q1021;EQDQ01+000000PRSWM2
0171014940999992000050909004+59380+010780FM-12+0053ENRY V0201501N000512200019N0450001N1+01971+00481102301ADDAY101031AY201031GA1001+999999999GF100991001001999999001001MA1999999101661MD1810021+9999MW1021REMSYN066AAXX  09094 01494 41983 01501 10197 20048 30166 40230 58002 70200;
0217014940999992000051014504+59380+010780FM-15+0053ENRY V0202101N005110600019N0112651N1+01801+00901999999ADDGA1021+010509029GA2021+027009999GA3071+060009999GF107991999999999999999999MA1101591999999MW1161REMMET075ENRY 101450Z 21010KT 190V240 9999 VCSH FEW035TCU SCT090 BKN200 18/09 Q1016;EQDQ01+000003PRSWM1Q02    003PRSWM1
0170014940999992000051015504+59380+010780FM-15+0053ENRY V0202101N004110600019N0112651N1+01801+00801999999ADDGA1021+010509999GA2071+060009999GF107991999999999999999999MA1101591999999MW1001REMMET060ENRY 101550Z 21008KT 170V240 9999 FEW035 BKN200 18/08 Q1016;EQDQ01+000000PRSWM2
0193014940999992000052112004+59380+010780FM-12+0053ENRY V0202101N002112200019N0700001N1+01691+00441100461ADDAY111061AY201061GA1021+012009089GF102991021021012501001011MA1999999099831MD1710061+9999MW1021REMSYN088AAXX  21124 01494 41688 22104 10169 20044 39983 40046 57006 70210 82201 333 82840 91108;
0194014940999992000052216504+59380+010780FM-15+0053ENRY V0201801N004112200019N0112651N1+01401+00701999999ADDGA1021+007509029GA2021+010509999GF104991999999999999999999MA1100811999999MW1161REMMET068ENRY 221650Z 18008KT 120V230 9999 VCSH FEW025TCU SCT035 14/07 Q1008;EQDQ01+000003PRSWM1Q02    003PRSWM1
0139014940999992000052220504+59380+010780FM-15+0053ENRY V0201401N003112200019N0112651N1+01001+00901999999ADDGA1021+010509999GF102991999999999999999999MA1100911999999MW1001REMMET045ENRY 222050Z 14006KT 9999 FEW035 10/09 Q1009;EQDQ01+000000PRSWM2
0190014940999992000052518504+59380+010780FM-15+0053ENRY V0200601N003610105019N0112651N1+00901+00801999999ADDGA1021+007509999GA2071+010509999GF107991999999999999999999MA1100001999999MW1611REMMET064ENRY 251850Z 06007KT 030V110 9999 -RA SCT025 BKN035 09/08 Q1000;EQDQ01+000003PRSWM1Q02    003PRSWM1
0099014940999992000052622504+59380+010780FM-15+0053ENRY V0202501N00261220001CN0099001N1+01001+00601999999ADDMA1101021999999MW1001REMMET047ENRY 262250Z 25005KT 210V290 CAVOK 10/06 Q1010;EQDQ01+000000PRSWM2
0185014940999992000060620504+59380+010780FM-15+0053ENRY V0202901N001010300019N0112651N1+01301+00601999999ADDGA1021+012009999GA2021+018009999GA3071+030009999GF107991999999999999999999MA1101191999999MW1001REMMET059ENRY 062050Z 29002KT 9999 FEW040 SCT060 BKN100 13/06 Q1012;EQDQ01+000000PRSWM2
0187014940999992000060621004+59380+010780FM-12+0053ENRY V0202901N000510300019N0600001N1+01321+00641101271ADDAY121031AY221031GA1061+030009079GF107991021041012501071999MA1999999100641MD1710091+9999MW1021REMSYN082AAXX  06214 01494 41686 72901 10132 20064 30064 40127 57009 70222 8247/ 333 86360;
0187014940999992000061209004+59380+010780FM-12+0053ENRY V0202301N002110150019N0700001N1+01321+00751100841ADDAY161031AY221031GA1061+015009059GF107991061081004501071999MA1999999100201MD1210061+9999MW1601REMSYN082AAXX  12094 01494 41488 72304 10132 20075 30020 40084 52006 76062 8687/ 333 86650;
0170014940999992000061214504+59380+010780FM-15+0053ENRY V0202201N007712200019N0112651N1+01701+01001999999ADDGA1021+009009999GA2021+030009999GF104991999999999999999999MA1101021999999MW1001REMMET060ENRY 121450Z 22015KT 180V250 9999 FEW030 SCT100 17/10 Q1010;EQDQ01+000000PRSWM2
0153014940999992000061406504+59380+010770FM-15+0053ENRY V0202101N006712200019N0112651N1+01301+00701999999ADDGA1021+010509999GF102991999999999999999999MA1101021999999MW1001REMMET059ENRY 140650Z 21013KT 170V230 9999 FEW035 13/07 Q1010 NOSIG;EQDQ01+000000PRSWM2
0205014940999992000061803504+59380+010770FM-15+0053ENRY V0201801N001510180019N0090001N1+01101+01101999999ADDGA1021+001209999GA2021+002409999GA3071+018009999GF107991999999999999999999MA1102201999999MW1611REMMET063ENRY 180350Z 18003KT 9000 -RA FEW004 SCT008 BKN060 11/11 Q1022;EQDQ01+000003PRSWM1Q02    003PRSWM1
0187014940999992000061921004+59380+010770FM-12+0053ENRY V0201601N001010300019N0060001N1+01421+01361101011ADDAY121031AY221031GA1041+003009069GF107991041061004501071999MA1999999100381MD1710101+9999MW1101REMSYN082AAXX  19214 01494 41456 71602 10142 20136 30038 40101 57010 71022 8467/ 333 84710;
0187014940999992000062115004+59380+010770FM-12+0053ENRY V0200901N001010360019N0200001N1+01861+01701100691ADDAY191031AY281031GA1061+036009079GF107991041051004501071999MA1999999100071MD1710241+9999MW1011REMSYN082AAXX  21154 01494 41470 70902 10186 20170 30007 40069 57024 70198 8457/ 333 86362;
0194014940999992000062213504+59380+010770FM-15+0053ENRY V0201901N005110240019N0112651N1+01801+01201999999ADDGA1021+003009999GA2021+004509999GA3071+024009999GF107991999999999999999999MA1100611999999MW1001REMMET068ENRY 221350Z 19010KT 120V240 9999 FEW010 SCT015 BKN080 18/12 Q1006 ;EQDQ01+000000PRSWM2
0190014940999992000062519504+59380+010770FM-15+0053ENRY V0200201N002610150019N0112651N1+01401+01301999999ADDGA1021+004509999GA2071+015009999GF107991999999999999999999MA1100711999999MW1611REMMET064ENRY 251950Z 02005KT 340V040 9999 -RA FEW015 BKN050 14/13 Q1007;EQDQ01+000003PRSWM1Q02    003PRSWM1
0187014940999992000062721004+59380+010770FM-12+0053ENRY V0203501N00151009001CN0550001N1+00881+00631100811ADDAY161031AY221031GA1041+013509059GF108991051081004501021999MA1999999100171MD1010011+9999MW1601REMSYN082AAXX  27214 01494 41485 83503 10088 20063 30017 40081 50001 76062 8582/ 333 84645;
0179014940999992000062910504+59380+010770FM-15+0053ENRY V0203301N003610135019N0112651N1+01701+00801999999ADDGA1021+009009029GA2071+013509999GF107991999999999999999999MA1101291999999MW1001REMMET069ENRY 291050Z 33007KT 300V020 9999 FEW030TCU BKN045 17/08 Q1013 NOSIG;EQDQ01+000000PRSWM2
0150014940999992000070516504+59380+010770FM-15+0053ENRY V0202001N004612200019N0112651N1+02101+01201999999ADDGA1021+009009029GF102991999999999999999999MA1100711999999MW1001REMMET056ENRY 051650Z 20009KT 180V240 9999 FEW030TCU 21/12 Q1007;EQDQ01+000000PRSWM2
0187014940999992000070915004+59380+010770FM-12+0053ENRY V0202901N00151007501CN0280001N1+01611+00811099851ADDAY191031AY281031GA1021+006009099GF106991061091008001061031MA1999999099221MD1510011+9999MW1171REMSYN082AAXX  09154 01494 41578 62903 10161 20081 39922 49985 55001 71798 86963 333 82920;
0156014940999992000071212504+59380+010770FM-15+0053ENRY V0202101N004612200019N0112651N1+01801+01201999999ADDGA1021+009009029GF102991999999999999999999MA1099901999999MW1001REMMET062ENRY 121250Z 21009KT 170V240 9999 FEW030TCU 18/12 Q0999 NOSIG;EQDQ01+000000PRSWM2
0213014940999992000071608504+59380+010770FM-15+0053ENRY V0203601N005110150019N0112651N1+01601+01101999999ADDGA1021+004509999GA2021+007509999GA3071+015009999GF107991999999999999999999MA1100811999999MW1611REMMET071ENRY 160850Z 36010KT 330V030 9999 -RA FEW015 SCT025 BKN050 16/11 Q1008;EQDQ01+000003PRSWM1Q02    003PRSWM1
0190014940999992000071610504+59380+010770FM-15+0053ENRY V0203201N002610135019N0112651N1+01601+01401999999ADDGA1021+004509999GA2071+013509999GF107991999999999999999999MA1100811999999MW1611REMMET064ENRY 161050Z 32005KT 280V020 9999 -RA FEW015 BKN045 16/14 Q1008;EQDQ01+000003PRSWM1Q02    003PRSWM1
0176014940999992000072012504+59380+010770FM-15+0053ENRY V0200101N005712200019N0112651N1+01901+01001999999ADDGA1021+010509999GA2021+018009999GF104991999999999999999999MA1101021999999MW1001REMMET066ENRY 201250Z 01011KT 330V050 9999 FEW035 SCT060 19/10 Q1010 NOSIG;EQDQ01+000000PRSWM2
0170014940999992000072614204+59380+010770FM-15+0053ENRY V0200301N004610060019N0112651N1+01401+01301999999ADDGA1021+003609999GA2071+006009999GF107991999999999999999999MA1100911999999MW1001REMMET060ENRY 261420Z 03009KT 360V060 9999 SCT012 BKN020 14/13 Q1009;EQDQ01+000000PRSWM2
0162014940999992000073008504+59380+010770FM-15+0053ENRY V0202301N001512200019N0112651N1+02001+01301999999ADDGA1021+009009999GA2021+024009999GF104991999999999999999999MA1101081999999MW1001REMMET052ENRY 300850Z 23003KT 9999 FEW030 SCT080 20/13 Q1011;EQDQ01+000000PRSWM2
0194014940999992000080305504+59380+010770FM-15+0053ENRY V0200401N000512200019N0070001N1+01401+01401999999ADDGA1021+000309999GA2021+009009029GA3021+060009999GF104991999999999999999999MA1100911999999MW1001REMMET068ENRY 030550Z 04001KT 7000 FEW001 FEW030TCU SCT200 14/14 Q1009 NOSIG;EQDQ01+000000PRSWM2
0206014940999992000080504504+59380+010770FM-15+0053ENRY V0209999C000010600019N0070001N1+01301+01301999999ADDGA1021+002409999GA2021+036009999GA3071+060009999GF107991999999999999999999MA1101291999999MW1121REMMET064ENRY 050450Z 00000KT 7000 MIFG FEW008 SCT120 BKN200 13/13 Q1013;EQDQ01+000003PRSWM1Q02    003PRSWM1
0187014940999992000080921004+59380+010770FM-12+0053ENRY V0202201N001012200019N0750001N1+01321+01061101291ADDAY101031AY201031GA1011+027009079GF102991011001999999041011MA1999999100651MD1710021+9999MW1021REMSYN082AAXX  09214 01494 41989 22202 10132 20106 30065 40129 57002 70200 81041 333 81359;
0173014940999992000081718504+59380+010770FM-15+0053ENRY V0201701N003610270019N0112651N1+01501+01301999999ADDGA1021+004509029GA2071+027009999GF107991999999999999999999MA1100611999999MW1001REMMET063ENRY 171850Z 17007KT 160V230 9999 SCT015TCU BKN090 15/13 Q1006;EQDQ01+000000PRSWM2
0178014940999992000082213504+59380+010770FM-15+0053ENRY V0203201N004112200019N0112651N1+01901+00601999999ADDGA1021+009009099GA2021+010509999GF104991999999999999999999MA1101391999999MW1001REMMET068ENRY 221350Z 32008KT 280V350 9999 FEW030CB SCT035 19/06 Q1014 NOSIG;EQDQ01+000000PRSWM2
0168014940999992000082305504+59380+010770FM-15+0053ENRY V0203601N001012200019N0112651N1+00901+00801999999ADDGA1021+010509999GA2021+024009999GF104991999999999999999999MA1101801999999MW1001REMMET058ENRY 230550Z 36002KT 9999 FEW035 SCT080 09/08 Q1018 NOSIG;EQDQ01+000000PRSWM2
0170014940999992000082609504+59380+010770FM-15+0053ENRY V0202001N003612200019N0112651N1+01801+01301999999ADDGA1021+004509999GA2021+060009999GF104991999999999999999999MA1102301999999MW1001REMMET060ENRY 260950Z 20007KT 170V230 9999 FEW015 SCT200 18/13 Q1023;EQDQ01+000000PRSWM2
0091014940999992000090418504+59380+010770FM-15+0053ENRY V0209999C00001220001CN0099001N1+01001+00501999999ADDMA1101591999999MW1001REMMET039ENRY 041850Z 00000KT CAVOK 10/05 Q1016;EQDQ01+000000PRSWM2
0242014940999992000091118004+59380+010770FM-12+0053ENRY V0202701N000512200019N0750001N1+01161+00461101641ADDAA199000091AY101061AY201061GA1011+015009089GF101991011011017501001011KA1120M+01631MA1999999101011MD1710041+9999MW1021REMSYN094AAXX  11184 01494 31789 12701 10116 20046 30101 40164 57004 70200 81101 333 10163 81850 91106;EQDQ01  00002PRCP99
0176014940999992000091610504+59380+010770FM-15+0053ENRY V0201101N002110360019N0112651N1+01401+00901999999ADDGA1021+007509999GA2071+036009999GF107991999999999999999999MA1101491999999MW1001REMMET066ENRY 161050Z 11004KT 040V220 9999 SCT025 BKN120 14/09 Q1015 NOSIG;EQDQ01+000000PRSWM2
0187014940999992000091915004+59380+010770FM-12+0053ENRY V0201201N001010180019N0400001N1+01411+00471102121ADDAY121031AY221031GA1061+018009059GF107991061051012501071999MA1999999101481MD1210061+9999MW1021REMSYN082AAXX  19154 01494 41682 71202 10141 20047 30148 40212 52006 70222 8657/ 333 86656;
0187014940999992000092303004+59380+010770FM-12+0053ENRY V0201501N001510150019N0300001N1+01141+00981103071ADDAY121031AY221031GA1071+015009059GF107991071081012501999999MA1999999102421MD1210041+9999MW1021REMSYN082AAXX  23034 01494 41680 71503 10114 20098 30242 40307 52004 70222 878// 333 87650;
0147014940999992000092615504+59380+010770FM-15+0053ENRY V0200801N001512200019N0112651N1+01301+00401999999ADDGA1021+010509999GF104991999999999999999999MA1102401999999MW1001REMMET053ENRY 261550Z 08003KT 050V120 9999 SCT035 13/04 Q1024;EQDQ01+000000PRSWM2
0213014940999992000092805504+59380+010770FM-15+0053ENRY V0201401N003610012019N0030001N1+01201+01201999999ADDGA1021+000609999GA2071+001209999GF107991999999999999999999MA1100811999999MW1101REMMET087ENRY 280550Z 14007KT 080V170 3000 BR FEW002 BKN004 12/12 Q1008 TEMPO 2000 DZ BR BKN003;EQDQ01+000003PRSWM1Q02    003PRSWM1
0223014940999992000092906004+59380+010770FM-12+0053ENRY V0201501N001510006019N0006001N1+01361+01341100781ADDAA112007191AY161061AY251061GA1091+000609999GF109991091999999999999999KA1120N+01311MA1999999100141MD1210111+9999MW1471REMSYN094AAXX  29064 01494 11/06 91503 10136 20134 30014 40078 52011 60072 74765 333 20131 89/02 91106;
0191014940999992000100407204+59380+010770FM-15+0053ENRY V0201901N004110024019N0060001N1+01301+01301999999ADDGA1021+001509999GA2071+002409999GF107991999999999999999999MA1101691999999MW1001REMMET081ENRY 040720Z 19008KT 160V230 6000 SCT005 BKN008 13/13 Q1017 TEMPO 4000 BR BKN005;EQDQ01+000000PRSWM2
0148014940999992000100709004+59380+010770FM-12+0053ENRY V0202001N001019999999N0030001N1+01261+01241102351ADDGF108991999999000751999999MA1999999101701MD1210131+9999REMSYN081AAXX  07094 01494 41130 82002 10126 20124 30170 40235 52013 7104 8667/ 333 86703;
0147014940999992000100712504+59380+010770FM-15+0053ENRY V0202001N002612200019N0112651N1+01401+01001999999ADDGA1021+004509999GF102991999999999999999999MA1102301999999MW1001REMMET053ENRY 071250Z 20005KT 160V240 9999 FEW015 14/10 Q1023;EQDQ01+000000PRSWM2
0197014940999992000101323504+59380+010770FM-15+0053ENRY V0201401N002610045019N0060001N1+01001+01001999999ADDGA1021+002109999GA2071+004509999GF107991999999999999999999MA1101081999999MW1531MW2631REMMET065ENRY 132350Z 14005KT 120V170 6000 RADZ SCT007 BKN015 10/10 Q1011;EQDQ01+000003PRSWM1Q02    003PRSWM1
0184014940999992000101407504+59380+010770FM-15+0053ENRY V0201401N003110012019N0050001N1+01001+01001999999ADDGA1071+001209999GF107991999999999999999999MA1101081999999MW1101REMMET074ENRY 140750Z 14006KT 120V180 5000 BR BKN004 10/10 Q1011 TEMPO 7000 SCT004;EQDQ01+000003PRSWM1Q02    003PRSWM1
0176014940999992000101607504+59380+010770FM-15+0053ENRY V0200701N004110120019N0090001N1+01001+00801999999ADDGA1021+003609999GA2071+012009999GF107991999999999999999999MA1101591999999MW1001REMMET066ENRY 160750Z 07008KT 020V070 9000 FEW012 BKN040 10/08 Q1016 NOSIG;EQDQ01+000000PRSWM2
0168014940999992000101611504+59380+010770FM-15+0053ENRY V0200901N005110069019N0112651N1+01301+00901999999ADDGA1021+005409999GA2071+006909999GF107991999999999999999999MA1101391999999MW1001REMMET058ENRY 161150Z 09010KT 9999 FEW018 BKN023 13/09 Q1014 NOSIG;EQDQ01+000000PRSWM2
0091014940999992000102218504+59380+010770FM-15+0053ENRY V0201801N00151220001CN0099001N1+00901+00701999999ADDMA1102301999999MW1001REMMET039ENRY 221850Z 18003KT CAVOK 09/07 Q1023;EQDQ01+000000PRSWM2
0170014940999992000102702504+59380+010770FM-15+0053ENRY V0200201N003610120019N0112651N1+00301+00201999999ADDGA1021+003009999GA2071+012009999GF107991999999999999999999MA1100511999999MW1001REMMET060ENRY 270250Z 02007KT 360V060 9999 FEW010 BKN040 03/02 Q1005;EQDQ01+000000PRSWM2
0190014940999992000102907504+59380+010770FM-15+0053ENRY V0201201N010310054019N0090001N1+00801+00701999999ADDGA1021+002409999GA2071+005409999GF107991999999999999999999MA1099391999999MW1611REMMET064ENRY 290750Z 12020KT 090V150 9000 -RA FEW008 BKN018 08/07 Q0994;EQDQ01+000003PRSWM1Q02    003PRSWM1
0224014940999992000110205504+59380+010770FM-15+0053ENRY V0201101N002110090019N0112651N1+00601+00601999999ADDGA1021+002109999GA2021+004509029GA3071+009009999GF107991999999999999999999MA1099291999999MW1801REMMET082ENRY 020550Z 11004KT 070V160 9999 -SHRA FEW007 SCT015TCU BKN030 06/06 Q0993 NOSIG;EQDQ01+000003PRSWM1Q02    003PRSWM1
0222014940999992000110211204+59380+010770FM-15+0053ENRY V0203601N001010066019N0112651N1+00701+00701999999ADDGA1021+003009999GA2021+004509029GA3071+006609999GF107991999999999999999999MA1099491999999MW1161REMMET080ENRY 021120Z 36002KT 9999 VCSH SCT010 SCT015TCU BKN022 07/07 Q0995 TEMPO BKN008;EQDQ01+000003PRSWM1Q02    003PRSWM1
0170014940999992000110319504+59380+010770FM-15+0053ENRY V0201301N007210180019N0112651N1+00801+00601999999ADDGA1021+004509999GA2071+018009999GF107991999999999999999999MA1099801999999MW1001REMMET060ENRY 031950Z 13014KT 110V160 9999 FEW015 BKN060 08/06 Q0998;EQDQ01+000000PRSWM2
0214014940999992000110905504+59380+010770FM-15+0053ENRY V0201101N003610135019N0112651N1+00701+00701999999ADDGA1021+003009999GA2071+013509999GF107991999999999999999999MA1099701999999MW1801REMMET088ENRY 090550Z 11007KT 9999 -SHRA FEW010 BKN045 07/07 Q0997 TEMPO 3000 TS SCT008 BKN015CB;EQDQ01+000003PRSWM1Q02    003PRSWM1
0243014940999992000111009504+59380+010770FM-15+0053ENRY V0201301N004610075019N0112651N1+00801+00801999999ADDGA1021+002409999GA2021+005409029GA3071+007509999GF107991999999999999999999MA1100311999999MW1801REMMET101ENRY 100950Z 13009KT 110V160 9999 -SHRA FEW008 SCT018TCU BKN025 08/08 Q1003 TEMPO 5000 SHRA BKN015CB;EQDQ01+000003PRSWM1Q02    003PRSWM1
0213014940999992000111118504+59380+010770FM-15+0053ENRY V0201201N003110120019N0080001N1+00601+00601999999ADDGA1021+003009999GA2021+007509999GA3071+012009999GF107991999999999999999999MA1100811999999MW1511REMMET071ENRY 111850Z 12006KT 100V150 8000 -DZ FEW010 SCT025 BKN040 06/06 Q1008;EQDQ01+000003PRSWM1Q02    003PRSWM1
0199014940999992000111609504+59380+010770FM-15+0053ENRY V0200901N003610180019N0080001N1+00501+00401999999ADDGA1021+002409999GA2021+004509999GA3071+018009999GF107991999999999999999999MA1100811999999MW1001REMMET073ENRY 160950Z 09007KT 060V120 8000 FEW008 SCT015 BKN060 05/04 Q1008 NOSIG;EQDQ01+000000PRSWM2
0187014940999992000111715004+59380+010770FM-12+0053ENRY V0201301N003610036019N0070001N1+00571+00541100861ADDAY161031AY261031GA1061+003609069GF107991071071000751999999MA1999999100201MD1610031+9999MW1611REMSYN082AAXX  17154 01494 41157 71307 10057 20054 30020 40086 56003 76166 877// 333 86712;
0213014940999992000111718504+59380+010770FM-15+0053ENRY V0201301N003110090019N0112651N1+00601+00501999999ADDGA1021+001509999GA2021+006009999GA3071+009009999GF107991999999999999999999MA1100811999999MW1611REMMET071ENRY 171850Z 13006KT 100V160 9999 -RA FEW005 SCT020 BKN030 06/05 Q1008;EQDQ01+000003PRSWM1Q02    003PRSWM1
0170014940999992000112014504+59380+010770FM-15+0053ENRY V0200401N003610045019N0112651N1+00501+00401999999ADDGA1021+003009999GA2071+004509999GF107991999999999999999999MA1100811999999MW1001REMMET060ENRY 201450Z 04007KT 020V070 9999 FEW010 BKN015 05/04 Q1008;EQDQ01+000000PRSWM2
0190014940999992000112121504+59380+010770FM-15+0053ENRY V0200501N006710036019N0112651N1+00401+00301999999ADDGA1021+002409999GA2071+003609999GF107991999999999999999999MA1101021999999MW1611REMMET064ENRY 212150Z 05013KT 010V080 9999 -RA FEW008 BKN012 04/03 Q1010;EQDQ01+000003PRSWM1Q02    003PRSWM1
0162014940999992000112703504+59380+010770FM-15+0053ENRY V0201201N004610060019N0112651N1+00501+00501999999ADDGA1021+003009999GA2071+006009999GF107991999999999999999999MA1100311999999MW1001REMMET052ENRY 270350Z 12009KT 9999 FEW010 BKN020 05/05 Q1003;EQDQ01+000000PRSWM2
0188014940999992000120207504+59380+010770FM-15+0053ENRY V0202001N005710003019N0010001N1+00901+00901999999ADDGA1071+000309999GF107991999999999999999999MA1100411999999MW1101MW2511MW3611REMMET082ENRY 020750Z 20011KT 170V230 1000 -DZRA BR BKN001 09/09 Q1004 TEMPO 0800 FG VV001;EQDQ01+000003PRSWM1
0177014940999992000121222504+59380+010770FM-15+0053ENRY V0209999C00001000151CN0003001N1+00501+00501999999ADDED199U05009GA1091+000159999GF109991999999000251999999MA1100001999999MW1451REMMET056ENRY 122250Z 00000KT 0300 R30/0500 FG VV001 05/05 Q1000;EQDQ01+000003PRSWM1Q02    003PRSWM1
0170014940999992000121602504+59380+010770FM-15+0053ENRY V0200101N006210090019N0112651N1+00401+00001999999ADDGA1021+003009999GA2071+009009999GF107991999999999999999999MA1099091999999MW1001REMMET060ENRY 160250Z 01012KT 340V050 9999 FEW010 BKN030 04/00 Q0991;EQDQ01+000000PRSWM2
0141014940999992000121921504+59380+010770FM-15+0053ENRY V0200501N001512200019N0112651N1-00401-00401999999ADDGA1021+004509999GF102991999999999999999999MA1103181999999MW1001REMMET047ENRY 192150Z 05003KT 9999 FEW015 M04/M04 Q1032;EQDQ01+000000PRSWM2
0141014940999992000121922504+59380+010770FM-15+0053ENRY V0203601N000512200019N0112651N1-00401-00501999999ADDGA1021+004509999GF102991999999999999999999MA1103181999999MW1001REMMET047ENRY 192250Z 36001KT 9999 FEW015 M04/M05 Q1032;EQDQ01+000000PRSWM2
0154014940999992000122205504+59380+010770FM-15+0053ENRY V0202301N003610081019N0112651N1+00201-00301999999ADDGA1071+008109999GF107991999999999999999999MA1102201999999MW1001REMMET060ENRY 220550Z 23007KT 190V270 9999 BKN027 02/M03 Q1022 NOSIG;EQDQ01+000000PRSWM2
0187014940999992000122309004+59380+010770FM-12+0053ENRY V0209999C000010240019N0200001N1-00351-00391100911ADDAY121031AY221031GA1071+024009079GF107991021051012501071999MA1999999100241MD1610021+9999MW1021REMSYN082AAXX  23094 01494 41670 70000 11035 21039 30024 40091 56002 70222 8257/ 333 87358;
0141014940999992000122509504+59380+010770FM-15+0053ENRY V0209999C000012200019N0112651N1-00501-00701999999ADDGA1021+012009999GF102991999999999999999999MA1100511999999MW1001REMMET047ENRY 250950Z 00000KT 9999 FEW040 M05/M07 Q1005;EQDQ01+000000PRSWM2
