0181030910999992000042620504+57200-002220FM-15+0065EGPD V0200301N006210012019N0045001N1+00701+00701999999ADDGA1021+000909999GA2071+001209999GF107991999999999999999999MA1100411999999MW1631REMMET055EGPD 262050Z 03012KT 4500 RA FEW003 BKN004 07/07 Q1004;EQDQ01+000003PRSWM1Q02    003PRSWM1
0166030910999992000042814004+57200-002220FM-12+0065EGPD V0200301N003110015019N0080001N1+00931+00851101081ADDAY151021AY221021GA1071+001509069GF108991081071001501999999MD1610051+9999MW1501REMSYN076AAXX  28144 03091 41258 80306 10093 20085 40108 56005 75052 887// 333 87705;
0097030910999992000050209504+57200-002220FM-15+0065EGPD V0203201N00721220001CN0099001N1+01201+00601999999ADDMA1102811999999MW1001REMMET045EGPD 020950Z 32014KT CAVOK 12/06 Q1028 NOSIG;EQDQ01+000000PRSWM2
0211030910999992000050309504+57200-002220FM-15+0065EGPD V0203601N004110105019N0112651N1+00801+00701999999ADDGA1021+002409999GA2021+006009999GA3071+010509999GF107991999999999999999999MA1103011999999MW1511REMMET069EGPD 030950Z 36008KT 9999 -DZ FEW008 SCT020 BKN035 08/07 Q1030 NOSIG;EQDQ01+000003PRSWM1Q02    003PRSWM1
0138030910999992000050414004+57200-002220FM-12+0065EGPD V0201101N003112200019N0250001N1+01121+00531102731ADDGA1011+007509029GF101991011011008001001011MD1710071+9999REMSYN070AAXX  04144 03091 42575 11106 10112 20053 40273 57007 81101 333 81825;
0138030910999992000050520004+57200-002220FM-12+0065EGPD V0201201N003110045019N0220001N1+00591+00311102231ADDGA1061+004509059GF106991061051004501999999MD1610031+9999REMSYN070AAXX  05204 03091 42472 61206 10059 20031 40223 56003 865// 333 86615;
0222030910999992000050707504+57200-002220FM-15+0065EGPD V0209999C000010006019N0033001N1+00901+00901999999ADDGA1021+000309999GA2071+000609999GA3071+030009999GF107991999999999999999999MA1102201999999MW1101REMMET080EGPD 070750Z 00000KT 3300 BR FEW001 BKN002 BKN100 09/09 Q1022 BECMG 6000 SCT002;EQDQ01+000003PRSWM1Q02    003PRSWM1
0138030910999992000050715004+57200-002220FM-12+0065EGPD V0201101N004612200019N0120001N1+01711+00921102291ADDGA1011+027009079GF101991011001999999081011MD1410001+9999REMSYN070AAXX  07154 03091 42962 11109 10171 20092 40229 54000 81081 333 81359;
0139030910999992000050900504+57200-002220FM-15+0065EGPD V0201501N002112200019N0112651N1+01101+00601999999ADDGA1021+003609999GF102991999999999999999999MA1102001999999MW1001REMMET045EGPD 090050Z 15004KT 9999 FEW012 11/06 Q1020;EQDQ01+000000PRSWM2
0144030910999992000050913004+57200-002220FM-12+0065EGPD V0200901N003119999999N0300001N1+01891-00501102031ADDGA1011+024009039GF106991061001999999081999MD1210011+9999REMSYN076AAXX  09134 03091 42980 60906 10189 21050 40203 52001 8608/ 333 81358 86361;
0166030910999992000050920004+57200-002220FM-12+0065EGPD V0203301N007710009019N0050001N1+00891+00781102251ADDAY111999AY211999GA1071+000909069GF107991071061001501999999MD1310191+9999MW1401REMSYN076AAXX  09204 03091 41250 73315 10089 20078 40225 53019 74011 876// 333 87703;
0138030910999992000051008004+57200-002220FM-12+0065EGPD V0203401N004610030019N0200001N1+00981+00711102551ADDGA1071+003009069GF107991071061004501999999MD1210101+9999REMSYN070AAXX  10084 03091 42470 73409 10098 20071 40255 52010 876// 333 87710;
0144030910999992000052005004+57200-002220FM-12+0065EGPD V0209999C00001012001CN0300001N1+00481+00411101061ADDGA1011+006009089GF107991071081008001999999MD1510011+9999REMSYN076AAXX  20054 03091 42580 70000 10048 20041 40106 55001 878// 333 81820 87650;
0229030910999992000052517504+57200-002220FM-15+0065EGPD V0203601N004110075019N0112651N1+00901+00601999999ADDGA1021+003609999GA2071+007509099GA3071+015009999GF107991999999999999999999MA1100311999999MW1801REMMET087EGPD 251750Z 36008KT 9999 -SHRA FEW012 BKN025CB BKN050 09/06 Q1003 TEMPO 8000 BKN015CB;EQDQ01+000003PRSWM1Q02    003PRSWM1
0166030910999992000052615004+57200-002220FM-12+0065EGPD V0201701N008712200019N0250001N1+01161+00461100581ADDAY181031AY211031GA1021+006609099GF102991021091008001001011MD1710031+9999MW1151REMSYN076AAXX  26154 03091 41575 21717 10116 20046 40058 57003 71581 82901 333 82922;
0228030910999992000052713504+57200-002220FM-15+0065EGPD V0203201N007210030019N0112651N1+00901+00801999999ADDGA1021+001509999GA2071+003009999GA3071+012009999GF107991999999999999999999MA1099191999999MW1611REMMET086EGPD 271350Z 32014KT 9999 -RA FEW005 BKN010 BKN040 09/08 Q0992 RERA TEMPO 6000 BKN007;EQDQ01+000003PRSWM1Q02    003PRSWM1
0189030910999992000052812004+57200-002220FM-12+0065EGPD V0202901N00211012001CN0350001N1+01071+00531099991ADDAA106000191AY181061AY221061GA1031+007509089GF107991071081008001999999MD1110081+9999MW1251REMSYN088AAXX  28124 03091 11581 72904 10107 20053 49999 51008 69921 72582 878// 333 83825 86650;
0172030910999992000052921004+57200-002220FM-12+0065EGPD V0202901N00211030001CN0300001N1+00721+00401101191ADDAY181031AY221031GA1011+006009089GF106991011081008001031011MD1210071+9999MW1151REMSYN082AAXX  29214 03091 41580 62904 10072 20040 40119 52007 71582 81831 333 81820 85075;
0144030910999992000053022004+57200-002220FM-12+0065EGPD V0202601N002110120019N0260001N1+00791+00531101231ADDGA1031+006009089GF106991061081008001999999MD1110101+9999REMSYN076AAXX  30224 03091 42576 62604 10079 20053 40123 51010 868// 333 83820 84640;
0168030910999992000060208504+57200-002220FM-15+0065EGPD V0203401N007710090019N0112651N1+00901+00301999999ADDGA1021+005409999GA2071+009009999GF107991999999999999999999MA1101291999999MW1001REMMET058EGPD 020850Z 34015KT 9999 FEW018 BKN030 09/03 Q1013 NOSIG;EQDQ01+000000PRSWM2
0157030910999992000060301004+57200-002220FM-12+0065EGPD V0203601N000512200019N0150001N1+00331+00241102301ADDGA1011+015009059GF101991011051017501999011MD1210031+9999REMSYN070AAXX  03014 03091 42765 13601 10033 20024 40230 52003 81501 333 81650;EQDQ01    003SCOMCG
0211030910999992000060506504+57200-002220FM-15+0065EGPD V0203601N003110150019N0112651N1+00801+00601999999ADDGA1021+003609999GA2021+006009999GA3071+015009999GF107991999999999999999999MA1102301999999MW1611REMMET069EGPD 050650Z 36006KT 9999 -RA FEW012 SCT020 BKN050 08/06 Q1023 NOSIG;EQDQ01+000003PRSWM1Q02    003PRSWM1
0138030910999992000060713004+57200-002220FM-12+0065EGPD V0203101N003112200019N0300001N1+01621+00041101731ADDGA1031+014409029GF103991031081012501031001MD1710011+9999REMSYN070AAXX  07134 03091 42680 33106 10162 20004 40173 57001 83830 333 83848;
0166030910999992000060822004+57200-002220FM-12+0065EGPD V0201601N002110300019N0180001N1+01031+00841100951ADDGA1011+005409089GA2041+030009039GF107991021081004501071999MD1110061+9999REMSYN082AAXX  08224 03091 42468 71604 10103 20084 40095 51006 8287/ 333 81818 84360 87362;
0211030910999992000061000004+57200-002220FM-12+0065EGPD V0201701N001010090019N0250001N1+01001+00851100681ADDAA106002091AY161061AY221061GA1021+003009079GA2031+009009069GF107991071051004501999999MD1410001+9999MW1021REMSYN094AAXX  10004 03091 11475 71702 10100 20085 40068 54000 60021 70262 875// 333 82710 83630 87650;
0166030910999992000061017004+57200-002220FM-12+0065EGPD V0201701N00771030001CN0300001N1+01371+00401100751ADDGA1011+010509089GA2031+045009039GF107991021081012501031021MD1710161+9999REMSYN082AAXX  10174 03091 42680 71715 10137 20040 40075 57016 82832 333 81835 83365 87075;
0159030910999992000062004504+57190-002210FM-15+0065EGPD V0201101N002610003019N0018001N1+01101+01101999999ADDGA1081+000309999GF108991999999999999999999MA1100911999999MW1511REMMET049EGPD 200450Z 11005KT 1800 -DZ OVC001 11/11 Q1009;EQDQ01+000003PRSWM1Q02    003PRSWM1
0214030910999992000062118004+57190-002210FM-12+0065EGPD V0202101N007712200019N0400001N1+01751+00761099671ADDAA112001091AY161061AY211061GA1021+012609089GF102991021081012501031001KA1120M+01851MD1210131+9999MW1011REMSYN100AAXX  21184 03091 11682 22115 10175 20076 49967 52013 60012 70161 82830 333 10185 82842 90710 91125;
0186030910999992000062309504+57190-002210FM-15+0065EGPD V0203101N009310054019N0112651N1+01201+00901999999ADDGA1021+004509999GA2071+005409999GF107991999999999999999999MA1100411999999MW1001REMMET076EGPD 230950Z 31018KT 9999 SCT015 BKN018 12/09 Q1004 TEMPO 5000 RADZ BKN015 ;EQDQ01+000000PRSWM2
0172030910999992000062417004+57190-002210FM-12+0065EGPD V0203401N006710060019N0250001N1+01051+00621101831ADDAY181999AY221999GA1051+006009089GF107991071081008001999999MD1110101+9999MW1251REMSYN082AAXX  24174 03091 41575 73413 10105 20062 40183 51010 72582 878// 333 85820 87635;
0194030910999992000062502004+57190-002210FM-12+0065EGPD V0203101N00571009001CN0050001N1+00691+00621102121ADDAY181999AY221999GA1011+004509089GA2031+006009089GF107991071081004501999999MD1210041+9999MW1801REMSYN088AAXX  25024 03091 41450 73111 10069 20062 40212 52004 78082 878// 333 81815 83820 87635;
0144030910999992000062519004+57190-002210FM-12+0065EGPD V0203501N004112200019N0350001N1+01001+00571102381ADDGA1011+006009089GF104991041081008001001011MD1310061+9999REMSYN076AAXX  25194 03091 42581 43508 10100 20057 40238 53006 84801 333 81820 83640;
0166030910999992000062522004+57190-002210FM-12+0065EGPD V0203201N00311009001CN0300001N1+00891+00611102471ADDGA1011+003609089GA2031+004509089GF107991071081004501999999MD1310091+9999REMSYN082AAXX  25224 03091 42480 73206 10089 20061 40247 53009 878// 333 81812 83815 87626;
0144030910999992000070119004+57190-002210FM-12+0065EGPD V0203101N00511002101CN0200001N1+01231+01041101041ADDGA1041+002409079GF107991071061002501999999MD1310051+9999REMSYN076AAXX  01194 03091 42370 73110 10123 20104 40104 53005 876// 333 84708 87712;
0144030910999992000070213004+57190-002210FM-12+0065EGPD V0201101N00411009001CN0280001N1+01391+01071101441ADDGA1031+004209089GF107991071081004501999999MD1310041+9999REMSYN076AAXX  02134 03091 42478 71108 10139 20107 40144 53004 878// 333 83814 85620;
0172030910999992000071110004+57190-002210FM-12+0065EGPD V0203501N00821009001CN0350001N1+01091+00421100551ADDAY121011AY221011GA1021+005409089GF107991071081004501999999MD1110101+9999MW1251REMSYN082AAXX  11104 03091 41481 73516 10109 20042 40055 51010 72522 878// 333 82818 87642;
0168030910999992000071218504+57190-002210FM-15+0065EGPD V0201801N006210150019N0112651N1+01301+00901999999ADDGA1021+010809999GA2071+015009999GF107991999999999999999999MA1100911999999MW1001REMMET058EGPD 121850Z 18012KT 9999 FEW036 BKN050 13/09 Q1009 NOSIG;EQDQ01+000000PRSWM2
0168030910999992000071312504+57190-002210FM-15+0065EGPD V0203101N005710180019N0112651N1+01701+00701999999ADDGA1021+010509999GA2071+018009999GF107991999999999999999999MA1100311999999MW1001REMMET058EGPD 131250Z 31011KT 9999 FEW035 BKN060 17/07 Q1003 NOSIG;EQDQ01+000000PRSWM2
0144030910999992000071701004+57190-002210FM-12+0065EGPD V0203401N00411004201CN0250001N1+00841+00531102071ADDGA1021+004509069GF107991071051004501999999MD1210011+9999REMSYN076AAXX  17014 03091 42475 73408 10084 20053 40207 52001 875// 333 82615 86618;
0138030910999992000071705004+57190-002210FM-12+0065EGPD V0203301N003110054019N0250001N1+00811+00541102051ADDGA1071+005409059GF107991071051004501999999MD1710011+9999REMSYN070AAXX  17054 03091 42475 73306 10081 20054 40205 57001 875// 333 87618;
0168030910999992000071710504+57190-002210FM-15+0065EGPD V0200101N005712200019N0112651N1+01401+00601999999ADDGA1021+008409999GA2021+039009999GF104991999999999999999999MA1102001999999MW1001REMMET058EGPD 171050Z 01011KT 9999 FEW028 SCT130 14/06 Q1020 NOSIG;EQDQ01+000000PRSWM2
0144030910999992000071908004+57190-002210FM-12+0065EGPD V0203001N00511012001CN0350001N1+01691+00901101851ADDGA1011+007509089GF107991071081008001999999MD1210011+9999REMSYN076AAXX  19084 03091 42581 73010 10169 20090 40185 52001 878// 333 81825 87656;
0176030910999992000072011504+57190-002210FM-15+0065EGPD V0201301N004112200019N0112651N1+01701+01201999999ADDGA1021+006009999GA2021+008409999GF104991999999999999999999MA1102201999999MW1001REMMET066EGPD 201150Z 13008KT 090V150 9999 SCT020 SCT028 17/12 Q1022 NOSIG;EQDQ01+000000PRSWM2
0217030910999992000072206004+57190-002210FM-12+0065EGPD V0200201N00151030001CN0100001N1+00961+00921102821ADDAA199000091GA1011+012009069GF107991011051012501071999IA1019IA2999+00609KA1120N+00781MD1710051+9999REMSYN088AAXX  22064 03091 32660 70203 10096 20092 40282 57005 8157/ 333 20078 30006 81640 87365;EQDQ01  00002PRCP99
0204030910999992000072601504+57190-002210FM-15+0065EGPD V0209999C000010006019N0045001N1+01101+01101999999ADDGA1021+000309999GA2071+000609999GA3071+001209999GF107991999999999999999999MA1100911999999MW1101REMMET062EGPD 260150Z 00000KT 4500 BR FEW001 BKN002 BKN004 11/11 Q1009;EQDQ01+000003PRSWM1Q02    003PRSWM1
0189030910999992000073012004+57190-002210FM-12+0065EGPD V0201001N00411009001CN0200001N1+01761+01261102011ADDAA106000791AY181061AY221061GA1031+005709089GF105991051081004501031011MD1410001+9999MW1011REMSYN088AAXX  30124 03091 11470 51008 10176 20126 40201 54000 69901 70182 85831 333 83819 83628;
0226030910999992000073115504+57190-002210FM-15+0065EGPD V0201701N004610009019N0038001N1+01401+01301999999ADDGA1021+000609999GA2071+000909999GA3081+001209999GF108991999999999999999999MA1101591999999MW1611REMMET084EGPD 311550Z 17009KT 3800 -RA SCT002 BKN003 OVC004 14/13 Q1016 TEMPO 1500 BR BKN002;EQDQ01+000003PRSWM1Q02    003PRSWM1
0198030910999992000080110504+57190-002210FM-15+0065EGPD V0201901N003610042019N0112651N1+01801+01501999999ADDGA1021+002709999GA2071+004209999GA3071+018009999GF107991999999999999999999MA1100911999999MW1001REMMET072EGPD 011050Z 19007KT 9999 FEW009 BKN014 BKN060 18/15 Q1009 BECMG SCT014;EQDQ01+000000PRSWM2
0208030910999992000080318004+57190-002210FM-12+0065EGPD V0200101N00361009001CN0300001N1+01481+00981101841ADDAA112000791AY151061AY221061GA1011+005409089GF107991071081004501999999KA1120M+01551MD1210031+9999MW1021REMSYN094AAXX  03184 03091 11480 70107 10148 20098 40184 52003 69902 70252 878// 333 10155 81818 87635;
0191030910999992000080417504+57190-002210FM-15+0065EGPD V0203201N003110750019N0112651N1+01901+01201999999ADDGA1021+007809999GA2021+030009999GA3071+075009999GF107991999999999999999999MA1101901999999MW1001REMMET065EGPD 041750Z 32006KT 9999 FEW026 SCT100 BKN250 19/12 Q1019 NOSIG;EQDQ01+000000PRSWM2
0205030910999992000080803504+57190-002210FM-15+0065EGPD V0200901N001010015019N0015001N1+01101+01101999999ADDGA1021+000609999GA2071+001509999GA3081+002409999GF108991999999999999999999MA1101901999999MW1511REMMET063EGPD 080350Z 09002KT 1500 -DZ SCT002 BKN005 OVC008 11/11 Q1019;EQDQ01+000003PRSWM1Q02    003PRSWM1
0191030910999992000081019504+57190-002210FM-15+0065EGPD V0202901N005110750019N0112651N1+01601+01101999999ADDGA1021+012009999GA2021+030009999GA3071+075009999GF107991999999999999999999MA1101291999999MW1001REMMET065EGPD 101950Z 29010KT 9999 SCT040 SCT100 BKN250 16/11 Q1013 NOSIG;EQDQ01+000000PRSWM2
0168030910999992000081508504+57190-002210FM-15+0065EGPD V0202601N003112200019N0112651N1+01601+00701999999ADDGA1021+007509999GA2021+015009999GF104991999999999999999999MA1101191999999MW1001REMMET058EGPD 150850Z 26006KT 9999 FEW025 SCT050 16/07 Q1012 NOSIG;EQDQ01+000000PRSWM2
0191030910999992000081619504+57190-002210FM-15+0065EGPD V0202001N001510180019N0112651N1+01201+00901999999ADDGA1021+007509999GA2021+013509999GA3071+018009999GF107991999999999999999999MA1100411999999MW1001REMMET065EGPD 161950Z 20003KT 9999 FEW025 SCT045 BKN060 12/09 Q1004 NOSIG;EQDQ01+000000PRSWM2
0168030910999992000082014504+57190-002210FM-15+0065EGPD V0201001N004110750019N0112651N1+01501+00701999999ADDGA1021+006009999GA2071+075009999GF107991999999999999999999MA1101391999999MW1001REMMET058EGPD 201450Z 10008KT 9999 FEW020 BKN250 15/07 Q1014 NOSIG;EQDQ01+000000PRSWM2
0138030910999992000082219004+57190-002210FM-12+0065EGPD V0201101N002112200019N0350001N1+01241+00881102451ADDGA1011+006009029GF101991011081008001031011MD1210071+9999REMSYN070AAXX  22194 03091 42581 11104 10124 20088 40245 52007 81831 333 81820;
0192030910999992000082306504+57190-002210FM-15+0065EGPD V0200201N002112200019N0030001N1+00801+00801999999ADDGA1021+000159999GA2021+075009999GF104991999999999999999999MA1102511999999MW1101REMMET066EGPD 230650Z 02004KT 3000 BR FEW000 SCT250 08/08 Q1025 BECMG 7000;EQDQ01+000003PRSWM1Q02    003PRSWM1
0166030910999992000082904004+57190-002210FM-12+0065EGPD V0203201N004110045019N0250001N1+01101+00911101931ADDGA1021+003009079GA2041+004509069GF107991071051004501999999MD1210011+9999REMSYN082AAXX  29044 03091 42475 73208 10110 20091 40193 52001 875// 333 82710 84615 87618;
0188030910999992000083111204+57190-002210FM-15+0065EGPD V0201801N006210030019N0050001N1+01301+01201999999ADDGA1021+001809999GA2071+003009999GF107991999999999999999999MA1100311999999MW1611REMMET062EGPD 311120Z 18012KT 5000 -RA SCT006 BKN010 13/12 Q1003 NOSIG;EQDQ01+000003PRSWM1Q02    003PRSWM1
0193030910999992000083116504+57190-002210FM-15+0065EGPD V0201701N010810030019N0040001N1+01301+01201999999ADDGA1021+001809999GA2071+003009999GF107991999999999999999999MA1100001999999MW1611REMMET067EGPD 311650Z 17021KT 4000 -RA SCT006 BKN010 13/12 Q1000 TEMPO 3000;EQDQ01+000003PRSWM1Q02    003PRSWM1
0172030910999992000083117004+57190-002210FM-12+0065EGPD V0201701N01081002101CN0040001N1+01331+01191100031ADDAY161999AY261999GA1031+001809079GF108991081071002501999999MD1810131+9999MW1611REMSYN082AAXX  31174 03091 41340 81721 10133 20119 40003 58013 76166 887// 333 83706 87710;
0172030910999992000083121004+57190-002210FM-12+0065EGPD V0201801N00671001201CN0040001N1+01361+01261100021ADDAY161031AY221031GA1021+001509079GF107991071061001501999999MD1210021+9999MW1211REMSYN082AAXX  31214 03091 41240 71813 10136 20126 40002 52002 72162 876// 333 82705 87707;
0172030910999992000083122004+57190-002210FM-12+0065EGPD V0201701N00571001201CN0045001N1+01361+01251100031ADDAY161999AY221999GA1011+001209079GF107991071071001501999999MD1110031+9999MW1601REMSYN082AAXX  31224 03091 41245 71711 10136 20125 40003 51003 76062 877// 333 81704 86706;
0172030910999992000090101004+57190-002210FM-12+0065EGPD V0201401N00411000601CN0035001N1+01311+01271099941ADDAY161011AY261011GA1021+000609079GF108991081071000751999999MD1710091+9999MW1611REMSYN082AAXX  01014 03091 41135 81408 10131 20127 49994 57009 76166 887// 333 82702 87703;
0208030910999992000090118004+57190-002210FM-12+0065EGPD V0200701N00511000601CN0040001N1+01361+01311100231ADDAA112005191AY161061AY251061GA1021+000609079GF107991071071000751999999KA1120M+01511MD1310161+9999MW1611REMSYN094AAXX  01184 03091 11140 70710 10136 20131 40023 53016 60052 76165 877// 333 10151 82702 87703;
0166030910999992000090217004+57190-002210FM-12+0065EGPD V0203601N006710132019N0400001N1+01241+00481101621ADDGA1021+010509089GA2041+013209069GF105991051041012501001011MD1210141+9999REMSYN082AAXX  02174 03091 42682 53613 10124 20048 40162 52014 85401 333 82835 84644 85075;
0168030910999992000090412504+57190-002210FM-15+0065EGPD V0201501N003612200019N0112651N1+01701+01101999999ADDGA1021+010509999GA2021+075009999GF104991999999999999999999MA1101901999999MW1001REMMET058EGPD 041250Z 15007KT 9999 FEW035 SCT250 17/11 Q1019 NOSIG;EQDQ01+000000PRSWM2
0168030910999992000090415504+57190-002210FM-15+0065EGPD V0201801N005110750019N0112651N1+01801+01201999999ADDGA1021+009009999GA2071+075009999GF107991999999999999999999MA1101691999999MW1001REMMET058EGPD 041550Z 18010KT 9999 FEW030 BKN250 18/12 Q1017 NOSIG;EQDQ01+000000PRSWM2
0145030910999992000090718504+57190-002210FM-15+0065EGPD V0202501N004612200019N0112651N1+01501+00501999999ADDGA1021+007509999GF102991999999999999999999MA1100101999999MW1001REMMET051EGPD 071850Z 25009KT 9999 FEW025 15/05 Q1001 NOSIG;EQDQ01+000000PRSWM2
0144030910999992000091019004+57190-002210FM-12+0065EGPD V0201201N00261012001CN0260001N1+01221+01021102291ADDGA1031+009009069GF107991071051012501999999MD1210041+9999REMSYN076AAXX  10194 03091 42676 71205 10122 20102 40229 52004 875// 333 83630 86656;
0222030910999992000091116504+57190-002210FM-15+0065EGPD V0200901N006210012019N0050001N1+01101+01101999999ADDGA1021+000609999GA2071+001209999GA3081+005409999GF108991999999999999999999MA1101391999999MW1631REMMET080EGPD 111650Z 09012KT 5000 RA FEW002 BKN004 OVC018 11/11 Q1014 RERA TEMPO BKN008;EQDQ01+000003PRSWM1Q02    003PRSWM1
0211030910999992000091318504+57190-002210FM-15+0065EGPD V0201701N004110240019N0112651N1+01201+01001999999ADDGA1021+004509999GA2071+024009999GA3081+036009999GF108991999999999999999999MA1100911999999MW1611REMMET069EGPD 131850Z 17008KT 9999 -RA FEW015 BKN080 OVC120 12/10 Q1009 NOSIG;EQDQ01+000003PRSWM1Q02    003PRSWM1
0138030910999992000091701004+57190-002210FM-12+0065EGPD V0201801N003110120019N0300001N1+01441+01001100721ADDGA1071+012009059GF107991071051012501999999MD1710131+9999REMSYN070AAXX  17014 03091 42680 71806 10144 20100 40072 57013 875// 333 87640;
0162030910999992000091704504+57190-002210FM-15+0065EGPD V02099999999992200019N0112651N1+01301+00901999999ADDGA1021+012009999GA2021+018009999GF104991999999999999999999MA1100611999999MW1001REMMET052EGPD 170450Z 280//KT 9999 SCT040 SCT060 13/09 Q1006;EQDQ01+000000PRSWM2
0138030910999992000091819004+57190-002210FM-12+0065EGPD V0201801N003612200019N0350001N1+01051+00811099571ADDGA1011+009009029GF101991011041012501001001MD1210201+9999REMSYN070AAXX  18194 03091 42681 11807 10105 20081 49957 52020 81400 333 81830;
0166030910999992000092203004+57190-002210FM-12+0065EGPD V0201701N007710015019N0100001N1+01301+01201100721ADDAY161031AY221031GA1071+001509069GF107991071061001501999999MD1710081+9999MW1021REMSYN076AAXX  22034 03091 41260 71715 10130 20120 40072 57008 70262 876// 333 87705;
0145030910999992000092216504+57190-002210FM-15+0065EGPD V0202201N006212200019N0112651N1+01601+00901999999ADDGA1021+012009999GF102991999999999999999999MA1101291999999MW1001REMMET051EGPD 221650Z 22012KT 9999 FEW040 16/09 Q1013 NOSIG;EQDQ01+000000PRSWM2
0191030910999992000092305504+57190-002210FM-15+0065EGPD V0201301N001510420019N0112651N1+01101+01101999999ADDGA1021+003009999GA2071+042009999GA3071+075009999GF107991999999999999999999MA1101901999999MW1001REMMET065EGPD 230550Z 13003KT 9999 FEW010 BKN140 BKN250 11/11 Q1019 NOSIG;EQDQ01+000000PRSWM2
0194030910999992000092617004+57190-002210FM-12+0065EGPD V0201201N004610012019N0080001N1+01261+01191101271ADDAY121999AY221999GA1031+000909079GA2061+001209079GF107991071061001501999999MD1710221+9999MW1101REMSYN088AAXX  26174 03091 41258 71209 10126 20119 40127 57022 71022 876// 333 83703 86704 87707;
0166030910999992000100623004+57190-002210FM-12+0065EGPD V0203401N001012200019N0009001N1+00221+00141102261ADDAY141999AY201999GA1011+036009079GF101991011001999999031011MD1710081+9999MW1411REMSYN076AAXX  06234 03091 41909 13402 10022 20014 40226 57008 74140 81031 333 81362;
0187030910999992000100818004+57190-002210FM-12+0065EGPD V0202401N004112200019N0200001N1+00821+00501100821ADDAA199000091GA1011+010509029GF102991011011012501031011KA1120M+01281MD1310021+9999REMSYN076AAXX  08184 03091 32670 22408 10082 20050 40082 53002 81131 333 10128 81835;EQDQ01  00002PRCP99
0174030910999992000100912004+57190-002210FM-12+0065EGPD V0201801N00511009001CN0200001N1+01001+00521099761ADDAA199000091GA1021+005409089GF107991061081004501031021MD1710321+9999REMSYN076AAXX  09124 03091 32470 71810 10100 20052 49976 57032 86832 333 82818 85635;EQDQ01  00002PRCP99
0172030910999992000101203004+57190-002210FM-12+0065EGPD V0200201N00261006001CN0120001N1+00941+00841097751ADDAY161031AY221031GA1011+002409079GF106991061081002501999999MD1210221+9999MW1021REMSYN082AAXX  12034 03091 41362 60205 10094 20084 49775 52022 70262 868// 333 81708 86650;
0144030910999992000101309004+57190-002210FM-12+0065EGPD V0203401N001510300019N0120001N1+01061+00841100411ADDGA1021+003009079GF105991041081004501031021MD1210171+9999REMSYN076AAXX  13094 03091 42462 53403 10106 20084 40041 52017 84832 333 82710 83820;
0144030910999992000101513004+57190-002210FM-12+0065EGPD V0201901N00621030001CN0300001N1+01331+00831100851ADDGA1011+006009089GF106991011081008001031011MD1710181+9999REMSYN076AAXX  15134 03091 42580 61912 10133 20083 40085 57018 81831 333 81820 86075;
0138030910999992000101811004+57190-002210FM-12+0065EGPD V0202201N005712200019N0180001N1+01201+00681100371ADDGA1011+006009029GF101991011081008001031011MD1110121+9999REMSYN070AAXX  18114 03091 42568 12211 10120 20068 40037 51012 81831 333 81820;
0191030910999992000102609504+57190-002210FM-15+0065EGPD V0202001N002610450019N0112651N1+00901+00401999999ADDGA1021+013509999GA2021+024009999GA3071+045009999GF107991999999999999999999MA1099801999999MW1001REMMET065EGPD 260950Z 20005KT 9999 SCT045 SCT080 BKN150 09/04 Q0998 NOSIG;EQDQ01+000000PRSWM2
0144030910999992000102622004+57190-002210FM-12+0065EGPD V0209999C00001012001CN0200001N1+00721+00581100491ADDGA1011+006009089GF107991071081008001999999MD1810031+9999REMSYN076AAXX  26224 03091 42570 70000 10072 20058 40049 58003 878// 333 81820 87638;
0139030910999992000102803504+57190-002210FM-15+0065EGPD V0201801N005112200019N0112651N1+00601+00501999999ADDGA1021+010509999GF102991999999999999999999MA1100311999999MW1001REMMET045EGPD 280350Z 18010KT 9999 FEW035 06/05 Q1003;EQDQ01+000000PRSWM2
0168030910999992000103013504+57190-002210FM-15+0065EGPD V0203001N006210120019N0112651N1+00601+00201999999ADDGA1021+006009999GA2071+012009999GF107991999999999999999999MA1096411999999MW1001REMMET058EGPD 301350Z 30012KT 9999 SCT020 BKN040 06/02 Q0964 NOSIG;EQDQ01+000000PRSWM2
0138030910999992000103108004+57190-002210FM-12+0065EGPD V0202801N005712200019N0300001N1+00671+00221097581ADDGA1011+006609029GF101991011081008001031011MD1310221+9999REMSYN070AAXX  31084 03091 42580 12811 10067 20022 49758 53022 81831 333 81822;
0208030910999992000110118004+57190-002210FM-12+0065EGPD V0202501N004110750019N0300001N1+00431+00161098381ADDAA112001091AY181061AY211061GA1011+006009099GF105991011091008001031021KA1120M+00841MD1210201+9999MW1011REMSYN094AAXX  01184 03091 11580 52508 10043 20016 49838 52020 60012 70181 81932 333 10084 81920 84075;
0254030910999992000110706004+57190-002210FM-12+0065EGPD V0200401N009810051019N0050001N1+00661+00481099271ADDAA112020191AY161061AY261061GA1011+003609079GA2061+005109069GF108991081051004501999999IA1119IA2999+00509KA1120N+00631MD1210051+9999MW1631REMSYN106AAXX  07064 03091 11450 80419 10066 20048 49927 52005 60202 76366 885// 333 20063 32005 81712 86617 88623;
0194030910999992000110915004+57190-002210FM-12+0065EGPD V0202801N004110090019N0140001N1+00811+00641099971ADDAY181031AY221031GA1031+005409089GA2031+009009069GF107991071081004501999999MD1210151+9999MW1021REMSYN088AAXX  09154 03091 41464 72808 10081 20064 49997 52015 70282 878// 333 83818 83630 87645;
0145030910999992000111614504+57190-002210FM-15+0065EGPD V0202501N002612200019N0112651N1+00701+00201999999ADDGA1021+006009999GF102991999999999999999999MA1099391999999MW1001REMMET051EGPD 161450Z 25005KT 9999 FEW020 07/02 Q0994 NOSIG;EQDQ01+000000PRSWM2
0138030910999992000111708004+57190-002210FM-12+0065EGPD V0202801N002612200019N0300001N1+00261-00091099991ADDGA1011+005409029GF101991011081004501031011MD1210171+9999REMSYN070AAXX  17084 03091 42480 12805 10026 21009 49999 52017 81831 333 81818;
0208030910999992000111723504+57190-002210FM-15+0065EGPD V0202601N003610240019N0112651N1+00301-00101999999ADDGA1021+006309999GA2021+015009999GA3071+024009999GF107991999999999999999999MA1100311999999MW1801REMMET066EGPD 172350Z 26007KT 9999 -SHRA SCT021 SCT050 BKN080 03/M01 Q1003;EQDQ01+000003PRSWM1Q02    003PRSWM1
0186030910999992000112007504+57190-002210FM-15+0065EGPD V0201801N001012200019N0112651N1+00201+00101999999ADDGA1021+004509999GA2021+009009999GF104991999999999999999999MA1098921999999MW1001REMMET076EGPD 200750Z 18002KT 9999 FEW015 SCT030 02/01 Q0989 TEMPO 7000 -SHRA BKN015;EQDQ01+000000PRSWM2
0145030910999992000112307504+57190-002210FM-15+0065EGPD V0202401N004112200019N0112651N1+00401+00101999999ADDGA1021+007509999GF102991999999999999999999MA1099091999999MW1001REMMET051EGPD 230750Z 24008KT 9999 FEW025 04/01 Q0991 NOSIG;EQDQ01+000000PRSWM2
0183030910999992000112512004+57190-002210FM-12+0065EGPD V0202001N006212200019N0180001N1+00771+00531098611ADDAA106000791AY181061AY211061GA1011+003009069GF102991021061004501031011MD1810071+9999MW1021REMSYN082AAXX  25124 03091 11468 22012 10077 20053 49861 58007 69901 70281 82631 333 81710;
0163030910999992000112922004+57190-002210FM-12+0065EGPD V0202101N01131007501CN0350001N1+00991+00521999999ADDGA1031+006009069GF107991071051008001999999MD1110261+9999REMSYN076AAXX  29224 03091 42581 72122 10099 20052 49847 51026 875// 333 83620 87630;EQDQ01+098473APOSLP
0168030910999992000120118504+57190-002210FM-15+0065EGPD V0202001N011812200019N0112651N1+01101+00901999999ADDGA1021+001509999GA2021+002109999GF104991999999999999999999MA1098821999999MW1001REMMET058EGPD 011850Z 20023KT 9999 FEW005 SCT007 11/09 Q0988 NOSIG;EQDQ01+000000PRSWM2
0208030910999992000120206504+57190-002210FM-15+0065EGPD V0201801N011810048019N0112651N1+00801+00601999999ADDGA1071+004809999GA2071+009009999GF107991999999999999999999MA1098921999999MW1511MW2611REMMET076EGPD 020650Z 18023KT 9999 -RADZ BKN016 BKN030 08/06 Q0989 TEMPO 7000 BKN015;EQDQ01+000003PRSWM1Q02    003PRSWM1
0168030910999992000120217504+57190-002210FM-15+0065EGPD V0202101N009310114019N0112651N1+00901+00401999999ADDGA1021+007509999GA2071+011409999GF107991999999999999999999MA1099391999999MW1001REMMET058EGPD 021750Z 21018KT 9999 SCT025 BKN038 09/04 Q0994 NOSIG;EQDQ01+000000PRSWM2
0168030910999992000120520504+57190-002210FM-15+0065EGPD V0201801N008710750019N0112651N1+01001+00801999999ADDGA1021+007509999GA2071+075009999GF107991999999999999999999MA1098981999999MW1001REMMET058EGPD 052050Z 18017KT 9999 FEW025 BKN250 10/08 Q0990 NOSIG;EQDQ01+000000PRSWM2
0172030910999992000120801004+57190-002210FM-12+0065EGPD V0201101N00361004201CN0160001N1+00761+00581099521ADDAY161999AY221999GA1031+003009079GF107991071051004501999999MD1710251+9999MW1211REMSYN082AAXX  08014 03091 41466 71107 10076 20058 49952 57025 72162 875// 333 83710 87615;
0162030910999992000121004504+57190-002210FM-15+0065EGPD V0202001N005112200019N0112651N1+00601+00301999999ADDGA1021+012009999GA2021+075009999GF104991999999999999999999MA1098821999999MW1001REMMET052EGPD 100450Z 20010KT 9999 FEW040 SCT250 06/03 Q0988;EQDQ01+000000PRSWM2
0105030910999992000121116504+57190-002210FM-15+0065EGPD V0202001N00261220001CN0099001N1+00501+00201999999ADDMA1100201999999MW1001REMMET053EGPD 111650Z 20005KT 180V260 CAVOK 05/02 Q1002 NOSIG;EQDQ01+000000PRSWM2
0207030910999992000121405504+57190-002210FM-15+0065EGPD V0202901N010810069019N0112651N1+00701+00301999999ADDGA1021+003309999GA2071+006909999GA3071+009309999GF107991999999999999999999MA1098611999999MW1801REMMET065EGPD 140550Z 29021KT 9999 -SHRA FEW011 BKN023 BKN031 07/03 Q0986;EQDQ01+000003PRSWM1Q02    003PRSWM1
0210030910999992000121422504+57190-002210FM-15+0065EGPD V0203401N009310054019N0060001N1+00401+00101999999ADDGA1021+003009999GA2071+005409029GA3071+007509999GF107991999999999999999999MA1100001999999MW1801REMMET068EGPD 142250Z 34018KT 6000 -SHRA FEW010 BKN018TCU BKN025 04/01 Q1000;EQDQ01+000003PRSWM1Q02    003PRSWM1
0204030910999992000121514504+57190-002210FM-15+0065EGPD V0203401N006210120019N0112651N1+00101+00001999999ADDGA1021+003609999GA2021+006009999GA3071+012009999GF107991999999999999999999MA1100711999999MW1001REMMET078EGPD 151450Z 34012KT 9999 FEW012 SCT020 BKN040 01/M00 Q1007 TEMPO 5000 BKN012;EQDQ01+000000PRSWM2
0093030910999992000121702504+57190-002210FM-15+0065EGPD V0209999C00001220001CN0099001N1-00301-00501999999ADDMA1101191999999MW1001REMMET041EGPD 170250Z 00000KT CAVOK M03/M05 Q1012;EQDQ01+000000PRSWM2
0172030910999992000122007004+57190-002210FM-12+0065EGPD V0201701N013410015019N0045001N1+00811+00731101031ADDAY161011AY261011GA1061+001509079GF108991081071001501999999MD1610121+9999MW1611REMSYN082AAXX  20074 03091 41245 81726 10081 20073 40103 56012 76166 887// 333 86705 88708;
0211030910999992000122300004+57190-002210FM-12+0065EGPD V0200901N002610027019N0030001N1+00651+00611101571ADDAA106000191AY151061AY221061GA1021+000909079GA2061+002709079GF108991081051001501999999MD1710091+9999MW1501REMSYN094AAXX  23004 03091 11230 80905 10065 20061 40157 57009 69921 75052 885// 333 82703 86709 88615;
0166030910999992000122403004+57190-002210FM-12+0065EGPD V0203301N002612200019N0300001N1+00211-00011101261ADDAY181031AY211031GA1011+004509029GF102991011081004501031011MD1810021+9999MW1251REMSYN076AAXX  24034 03091 41480 23305 10021 21001 40126 58002 72581 81831 333 81815;
0195030910999992000122608504+57190-002210FM-15+0065EGPD V0203001N002110750019N0112651N1+00001-00301999999ADDGA1021+004509099GA2021+030009999GA3071+075009999GF107991999999999999999999MA1099901999999MW1001REMMET069EGPD 260850Z 30004KT 9999 FEW015CB SCT100 BKN250 M00/M03 Q0999 NOSIG;EQDQ01+000000PRSWM2
0255030910999992000122706004+57190-002210FM-12+0065EGPD V0200301N002112200019N0150001N1-00751-00881099401ADDAA112000791AJ100019199999999AY181061AY211061GA1011+006009089GF104991021081008001071001IA1229IA2999-00709KA1120N-00761MD1510031+9999MW1261REMSYN106AAXX  27064 03091 11565 40304 11075 21088 49940 55003 69902 72681 82870 333 21076 3/107 46001 81820 83360;
0167030910999992000122707004+57190-002210FM-12+0065EGPD V0203301N002112200019N0250001N1-00681-00801099381ADDAJ100019199999999GA1011+006009029GF103991011081008001031001IA1229MD1410001+9999REMSYN076AAXX  27074 03091 42575 33304 11068 21080 49938 54000 81830 333 46001 81820;
0172030920999992000010315004+57500-001770FM-12+000599999V0202301N00571075001CN0350001N1+00701+00571100301ADDGA1011+009009069GA2041+030009039GF105991011051012501071081MD1110101+9999REMSYN088AAXX  03154 03092 42681 52311 10070 20057 40030 51010 81578 333 81630 84360 90710 91125;
0150030920999992000012921004+57500-001770FM-12+000599999V0202701N009812200019N0300001N1+00431+00011098651ADDGA1031+006009089GF103991031021008001001001MD1210791+9999REMSYN082AAXX  29214 03092 42580 32719 10043 20001 49865 52079 83200 333 83820 90710 91134;
0144030920999992000021700004+57500-001770FM-12+000599999V0202501N005719999999N0400001N1+00271-00091099841ADDGA1021+030009039GF105991021001999999071081MD1210101+9999REMSYN076AAXX  17004 03092 42982 52511 10027 21009 49984 52010 82078 333 82360 85270;
0138030920999992000022403004+57500-001770FM-12+000599999V0202201N005112200019N0250001N1+00471+00081100641ADDGA1031+030009079GF103991031001999999071001MD1210141+9999REMSYN070AAXX  24034 03092 42975 32210 10047 20008 40064 52014 83070 333 83360;
0150030920999992000022812004+57500-001770FM-12+000599999V0202601N010812200019N0350001N1+00681-00151099001ADDGA1011+006009089GF104991011021008001071081MD1210171+9999REMSYN082AAXX  28124 03092 42581 42621 10068 21015 49900 52017 81278 333 81820 90710 91136;
0138030920999992000031703004+57500-001770FM-12+000599999V0202401N003110120019N0300001N1+00981+00821103001ADDGA1061+012009059GF108991061051012501071001MD1710021+9999REMSYN070AAXX  17034 03092 42680 82406 10098 20082 40300 57002 86570 333 86640;
0138030920999992000031712004+57500-001770FM-12+000599999V0202301N005110120019N0300001N1+01191+01001103031ADDGA1071+012009059GF107991071051012501999999MD1010031+9999REMSYN070AAXX  17124 03092 42680 72310 10119 20100 40303 50003 875// 333 87640;
0138030920999992000032518004+57500-001770FM-12+000599999V0201901N005112200019N0400001N1+00731+00431100471ADDGA1011+006009029GF104991021081008001071081MD1210041+9999REMSYN070AAXX  25184 03092 42582 41910 10073 20043 40047 52004 82878 333 81820;
0172030920999992000032906004+57500-001770FM-12+000599999V0209999C000019999999N0250001N1+00611+00371102831ADDAY161061AY221061GA1031+030009039GF108991031001999999071071MD1710071+9999MW1021REMSYN082AAXX  29064 03092 41975 80000 10061 20037 40283 57007 70262 83077 333 83360 88270;
0144030920999992000032915004+57500-001770FM-12+000599999V0201701N002110300019N0300001N1+00711+00461102671ADDGA1031+012009069GF108991031051012501071999MD1710141+9999REMSYN076AAXX  29154 03092 42680 81704 10071 20046 40267 57014 8357/ 333 83640 88360;
0144030920999992000033012004+57500-001770FM-12+000599999V0203501N00261012001CN0400001N1+00981+00661101931ADDGA1011+006009089GF107991061081008001071001MD1710131+9999REMSYN076AAXX  30124 03092 42582 73505 10098 20066 40193 57013 86870 333 81820 85630;
0200030920999992000040203004+57500-001770FM-12+000599999V0200201N011310090019N0080001N1+00501+00361100241ADDAY161031AY221031GA1041+003009079GA2081+009009059GF108991041071004501021999MD1210051+9999MW1211REMSYN094AAXX  02034 03092 41458 80222 10050 20036 40024 52005 72162 8472/ 333 84710 88530 90710 91132;
0157030920999992000050418004+57500-001770FM-12+000599999V0201601N001512200019N0400001N1+00921+00691102691ADDGA1011+060009089GF101991999001999999001081MD1710051+9999REMSYN070AAXX  04184 03092 42982 11603 10092 20069 40269 57005 80008 333 81270;EQDQ01+000002SCOTLC
0138030920999992000050503004+57500-001770FM-12+000599999V0201801N001510090019N0250001N1+00791+00551102561ADDGA1051+009009059GF106991051051012501071001MD1710081+9999REMSYN070AAXX  05034 03092 42675 61803 10079 20055 40256 57008 85570 333 85630;
0138030920999992000051018004+57500-001770FM-12+000599999V0203601N003610090019N0300001N1+01101+00811102881ADDGA1081+009009059GF108991081051012501999999MD1110021+9999REMSYN070AAXX  10184 03092 42680 83607 10110 20081 40288 51002 885// 333 88630;
0172030920999992000051915004+57500-001770FM-12+000599999V0203301N00361012001CN0300001N1+01091+00691100651ADDAY181031AY221031GA1031+006009089GF107991061081008001071081MD1210151+9999MW1021REMSYN082AAXX  19154 03092 41580 73307 10109 20069 40065 52015 70282 86878 333 83820 83630;
0194030920999992000061206004+57500-001770FM-12+000599999V0202001N005110090019N0250001N1+01071+00951100801ADDAY161061AY221061GA1031+003009079GA2041+009009069GF108991051051004501071081MD1710051+9999MW1031REMSYN088AAXX  12064 03092 41475 82010 10107 20095 40080 57005 70362 85578 333 83710 84630 86360;
0144030920999992000062209004+57500-001760FM-12+000599999V0202001N005110300019N0350001N1+01221+01051099881ADDGA1041+009009069GF107991041051012501071999MD1210061+9999REMSYN076AAXX  22094 03092 42681 72010 10122 20105 49988 52006 8457/ 333 84630 87360;
0172030920999992000070418004+57500-001760FM-12+000599999V0200101N004110300019N0180001N1+01261+00991101211ADDAY141061AY221061GA1011+003009079GF108991021051004501071999MD1810011+9999MW1021REMSYN082AAXX  04184 03092 41468 80108 10126 20099 40121 58001 70242 8257/ 333 81710 88360;
0166030920999992000070609004+57500-001760FM-12+000599999V0200101N005710300019N0250001N1+01131+00641102191ADDAY181031AY221031GA1041+004509099GF106991041031004501071001MD1210141+9999MW1031REMSYN076AAXX  06094 03092 41475 60111 10113 20064 40219 52014 70382 84370 333 84915;
0144030920999992000070712004+57500-001760FM-12+000599999V0202901N005710075019N0250001N1+01451+00791101871ADDGA1051+007509069GF108991051051008001021999MD1710071+9999REMSYN076AAXX  07124 03092 42575 82911 10145 20079 40187 57007 8552/ 333 85625 88460;
0172030920999992000071003004+57500-001760FM-12+000599999V0200101N008210030019N0100001N1+01211+01131099361ADDAY161031AY221031GA1061+003009079GF108991061071004501021999MD1310021+9999MW1621REMSYN082AAXX  10034 03092 41460 80116 10121 20113 49936 53002 76262 8672/ 333 86710 88458;
0138030920999992000071921004+57500-001760FM-12+000599999V0203201N002610300019N0400001N1+01611+01231101901ADDGA1051+030009079GF105991051001999999071001MD1210061+9999REMSYN070AAXX  19214 03092 42982 53205 10161 20123 40190 52006 85070 333 85360;
0166030920999992000082818004+57500-001760FM-12+000599999V0200101N003610018019N0100001N1+01411+01231101841ADDAY161061AY221061GA1061+001809069GF107991061071002501071081MD1310011+9999MW1601REMSYN076AAXX  28184 03092 41360 70107 10141 20123 40184 53001 76062 86778 333 86706;
0172030920999992000091203004+57500-001760FM-12+000599999V0200601N008710045019N0120001N1+01101+00981101131ADDAY161031AY221031GA1081+004509079GF108991081071004501999999MD1710181+9999MW1601REMSYN082AAXX  12034 03092 41462 80617 10110 20098 40113 57018 76062 887// 333 88715 91131;
0138030920999992000091512004+57500-001760FM-12+000599999V0209999C000010090019N0300001N1+01291+00981101011ADDGA1061+009009059GF106991061051012501999999MD1810041+9999REMSYN070AAXX  15124 03092 42680 60000 10129 20098 40101 58004 865// 333 86630;
0172030920999992000092509004+57500-001760FM-12+000599999V0201101N008210018019N0050001N1+01301+01191101791ADDAY121031AY221031GA1081+001809079GF108991081061002501999999MD1210131+9999MW1101REMSYN082AAXX  25094 03092 41350 81116 10130 20119 40179 52013 71022 886// 333 88706 91129;
0138030920999992000092609004+57500-001760FM-12+000599999V0201101N004112200019N0150001N1+01361+01121101791ADDGA1031+007509099GF103991031031008001061001MD1810041+9999REMSYN070AAXX  26094 03092 42565 31108 10136 20112 40179 58004 83360 333 83925;
0216030920999992000110612004+57500-001760FM-12+000599999V0200501N008210300019N0250001N1+01011+00531099381ADDAY181061AY221061GA1041+009009069GA2031+030009039GA3081+060009029GF108991041051012501071071MD1710101+9999MW1021REMSYN094AAXX  06124 03092 41675 80516 10101 20053 49938 57010 70282 84577 333 84630 83360 88270 91126;
0194030920999992000110712004+57500-001760FM-12+000599999V0200301N011810075019N0100001N1+00881+00571099241ADDAY161061AY221061GA1061+007509069GA2081+030009049GF108991061051008001021999MD1810101+9999MW1251REMSYN088AAXX  07124 03092 41560 80323 10088 20057 49924 58010 72562 8652/ 333 86625 88460 91136;
0172030920999992000111200004+57500-001760FM-12+000599999V0201701N009310240019N0200001N1+01021+00591098881ADDAY161061AY221061GA1071+024009039GF107991071001999999071999MD1710251+9999MW1601REMSYN082AAXX  12004 03092 41970 71718 10102 20059 49888 57025 76062 8707/ 333 87358 91130;
0172030920999992000113021004+57500-001760FM-12+000599999V0201701N011310090019N0150001N1+01001+00791099931ADDAY121031AY221031GA1071+009009069GF108991071051012501071001MD1710171+9999MW1051REMSYN082AAXX  30214 03092 41665 81722 10100 20079 49993 57017 70522 87570 333 87630 91138;
0138030920999992000120315004+57500-001760FM-12+000599999V0202001N006712200019N0400001N1+00881+00371100221ADDGA1011+006009029GF103991011021008001071081MD1110021+9999REMSYN070AAXX  03154 03092 42582 32013 10088 20037 40022 51002 81278 333 81820;
0138030920999992000121812004+57500-001760FM-12+000599999V0201801N005712200019N0400001N1+00771+00351101431ADDGA1031+009009029GF103991031021012501001081MD1210111+9999REMSYN070AAXX  18124 03092 42682 31811 10077 20035 40143 52011 83208 333 83830;
0135030940999992000010608004+57700-002120FM-12+000499999V0202901N016419999999N0130001N1+00621+00581099101ADDMD1310791+9999OA140102211REMSYN098AAXX  06084 03094 46/63 /2932 10062 20058 49910 53079 333 90710 91143 555 7/097 81/20 85/24 83/31;
0123030940999992000010716004+57700-002120FM-12+000499999V0202001N012319999999N0500001N1+01041+01041098471ADDMD1710271+9999OA140102161REMSYN086AAXX  07164 03094 46/84 /2024 10104 20104 49847 57027 333 90710 91142 555 7/090 80/99;
0127030940999992000011401004+57700-002120FM-12+000499999V0203601N006719999999N0170001N1+00571+00061102621ADDMD1210201+9999OA140101291REMSYN090    AAXX  14014 03094 46/67 /3613 10057 20006 40262 52020 333 90710 91125 555 7/091 81/31;
0176030940999992000011710004+57700-002120FM-12+000499999V0202801N014410066019N0100001N1+00741+00511103401ADDGA1031+004809079GA2051+006609069GF105991051051004501001001MD1610041+9999REMSYN092    AAXX  17104 03094 42460 52828 10074 20051 40340 56004 85500 333 83716 85622 90710 91141;
0136030940999992000011918004+57700-002120FM-12+000499999V0202701N007719999999N0130001N1+00631+00441103421ADDAA112000791KA1120M+00651MD1610061+9999REMSYN086AAXX  19184 03094 16/63 /2715 10063 20044 40342 56006 69902 333 10065 555 7/098 88/39;
0096030940999992000012722004+57700-002120FM-12+000499999V0202601N008219999999N0200001N1+00461+00291101101ADDMD1710201+9999REMSYN070AAXX  27224 03094 46/70 /2616 10046 20029 40110 57020 555 7/096 86/50;
0123030940999992000020210004+57700-002120FM-12+000499999V0202601N015919999999N0070001N1+00481+00121100461ADDMD1210231+9999OA140102261REMSYN086AAXX  02104 03094 46/57 /2631 10048 20012 40046 52023 333 90710 91144 555 7/090 80/99;
0096030940999992000021821004+57700-002120FM-12+000499999V0200401N006219999999N0300001N1+00481+00231100261ADDMD1110371+9999REMSYN070AAXX  18214 03094 46/80 /0412 10048 20023 40026 51037 555 7/090 80/99;
0096030940999992000022007004+57700-002120FM-12+000499999V0201601N004119999999N0350001N1-00041-00201102671ADDMD1710031+9999REMSYN070AAXX  20074 03094 46/81 /1608 11004 21020 40267 57003 555 7/090 80/99;
0096030940999992000022120004+57700-002120FM-12+000499999V0202501N004619999999N0200001N1+00411+00181102211ADDMD1210161+9999REMSYN070AAXX  21204 03094 46/70 /2509 10041 20018 40221 52016 555 7/090 80/99;
0096030940999992000022207004+57700-002120FM-12+000499999V0201701N005119999999N0400001N1+00011-00301102061ADDMD1710011+9999REMSYN070AAXX  22074 03094 46/82 /1710 10001 21030 40206 57001 555 7/090 80/99;
0149030940999992000022618004+57700-002120FM-12+000499999V0201601N005719999999N0350001N1+00621+00381101101ADDAA199000091KA1120M+00871MD1710291+9999REMSYN080AAXX  26184 03094 36/81 /1611 10062 20038 40110 57029 333 10087 555 7/090 80/99;EQDQ01  00002PRCP99
0123030940999992000030207004+57700-002120FM-12+000499999V0201701N009319999999N0090001N1+00111+00041099921ADDMD1710731+9999OA140101391REMSYN086AAXX  02074 03094 46/59 /1718 10011 20004 49992 57073 333 90710 91127 555 7/090 80/99;
0123030940999992000031113004+57700-002120FM-12+000499999V0203001N012319999999N0090001N1+00721+00591101701ADDMD1110281+9999OA140101541REMSYN086AAXX  11134 03094 46/59 /3024 10072 20059 40170 51028 333 90710 91130 555 7/098 88/29;
0166030940999992000031313004+57700-002120FM-12+000499999V0202501N00151030001CN0300001N1+00891+00741101651ADDGA1011+006009069GA2031+012009069GF106991031051008001031999MD1810081+9999REMSYN082AAXX  13134 03094 42580 62503 10089 20074 40165 58008 8353/ 333 81620 83640 86358;
0135030940999992000031507004+57700-002120FM-12+000499999V0202701N013919999999N0100001N1+00711+00641102181ADDMD1610131+9999OA140101751REMSYN098AAXX  15074 03094 46/60 /2727 10071 20064 40218 56013 333 90710 91134 555 7/098 82/28 86/40 83/50;
0149030940999992000031818004+57700-002120FM-12+000499999V0201601N006719999999N0180001N1+00701+00451103441ADDAA199000091KA1120M+00941MD1610191+9999REMSYN080AAXX  18184 03094 36/68 /1613 10070 20045 40344 56019 333 10094 555 7/090 80/99;EQDQ01  00002PRCP99
0096030940999992000031904004+57700-002120FM-12+000499999V0202501N006719999999N0350001N1+00741+00701103181ADDMD1710101+9999REMSYN070AAXX  19044 03094 46/81 /2513 10074 20070 40318 57010 555 7/090 80/99;
0179030940999992000032412004+57700-002120FM-12+000499999V0201301N009810018019N0035001N1+00641+00641100271ADDAA106001091GA1081+001809079GF108991081071002501999999MD1710111+9999MW1501REMSYN094AAXX  24124 03094 11335 81319 10064 20064 40027 57011 60011 750// 887// 333 88706 90710 91129;
0102030940999992000033015004+57700-002120FM-12+000499999V0203201N002619999999N0250001N1+00751+00691101721ADDMD1710171+9999REMSYN076AAXX  30154 03094 46/75 /3205 10075 20069 40172 57017 555 7/098 86/24 87/57;
0144030940999992000033115004+57700-002120FM-12+000499999V0201301N00311030001CN0200001N1+00831+00771100261ADDGA1041+005709069GF108991041051004501011999MD1710171+9999REMSYN076AAXX  31154 03094 42470 81306 10083 20077 40026 57017 8451/ 333 84619 87456;
0096030940999992000040707004+57700-002120FM-12+000499999V0201701N007219999999N0190001N1+00471+00081102911ADDMD1710111+9999REMSYN070AAXX  07074 03094 46/69 /1714 10047 20008 40291 57011 555 7/090 80/99;
0096030940999992000050407004+57700-002120FM-12+000499999V0209999C000019999999N0300001N1+00731+00531102801ADDMD1710021+9999REMSYN070AAXX  04074 03094 46/80 /0000 10073 20053 40280 57002 555 7/090 80/99;
0096030940999992000050708004+57700-002120FM-12+000499999V0201501N005719999999N0100001N1+01001+00941102191ADDMD1310101+9999REMSYN070AAXX  07084 03094 46/60 /1511 10100 20094 40219 53010 555 7/096 86/56;
0096030940999992000050717004+57700-002120FM-12+000499999V0201401N007219999999N0130001N1+01681+00981102201ADDMD1010011+9999REMSYN070AAXX  07174 03094 46/63 /1414 10168 20098 40220 50001 555 7/090 80/99;
0096030940999992000051123004+57700-002120FM-12+000499999V0200601N002119999999N0100001N1+00801+99999103061ADDMD1210011+9999REMSYN070AAXX  11234 03094 46/60 /0604 10080 2//// 40306 52001 555 7/090 80/99;
0166030940999992000051715004+57700-002120FM-12+000499999V0202801N003610300019N0300001N1+01151+00911099411ADDAY111031AY211031GA1021+008409059GF105991041081008001031001MD1710011+9999MW1161REMSYN076AAXX  17154 03094 41580 52807 10115 20091 49941 57001 71611 84830 333 82628;
0102030940999992000051720004+57700-002120FM-12+000499999V0202701N008719999999N0260001N1+00971+00851099521ADDMD1210121+9999REMSYN076AAXX  17204 03094 46/76 /2717 10097 20085 49952 52012 555 7/098 81/30 87/35;
0135030940999992000060204004+57700-002120FM-12+000499999V0203101N013419999999N0180001N1+00851+00611100691ADDMD1310441+9999OA140101751REMSYN098AAXX  02044 03094 46/68 /3126 10085 20061 40069 53044 333 90710 91134 555 7/098 84/10 82/18 87/22;
0096030940999992000060602004+57700-002120FM-12+000499999V0209999C000019999999N0300001N1+00491+00191101851ADDMD1710201+9999REMSYN070AAXX  06024 03094 46/80 /0000 10049 20019 40185 57020 555 7/090 80/99;
0138030940999992000060611004+57700-002120FM-12+000499999V0201601N002610063019N0220001N1+01071+00521101591ADDGA1081+006309059GF108991081051008001999999MD1710071+9999REMSYN070AAXX  06114 03094 42572 81605 10107 20052 40159 57007 885// 333 88621;
0136030940999992000062218004+57690-002120FM-12+000499999V0209999C000019999999N0150001N1+01281+01111100011ADDAA112003091KA1120M+01511MD1110071+9999REMSYN086AAXX  22184 03094 16/65 /0000 10128 20111 40001 51007 60032 333 10151 555 7/097 87/50;
0123030940999992000062403004+57690-002120FM-12+000499999V0202901N012919999999N0080001N1+00961+00881101231ADDMD1210011+9999OA140101601REMSYN086AAXX  24034 03094 46/58 /2925 10096 20088 40123 52001 333 90710 91131 555 7/097 87/05;
0160030940999992000062506004+57690-002120FM-12+000499999V0203201N008719999999N0100001N1+00891+00631102131ADDAA112000191IA2999+00709KA1120N+00801MD1310051+9999REMSYN098AAXX  25064 03094 16/60 /3217 10089 20063 40213 53005 69922 333 20080 3/007 555 7/098 87/30 83/37;
0096030940999992000062701004+57690-002120FM-12+000499999V0209999C000019999999N0230001N1+00791+00681102591ADDMD1710031+9999REMSYN070AAXX  27014 03094 46/73 /0000 10079 20068 40259 57003 555 7/098 88/48;
0102030940999992000070102004+57690-002120FM-12+000499999V0203001N007719999999N0150001N1+01031+00951101001ADDMD1610131+9999REMSYN076AAXX  01024 03094 46/65 /3015 10103 20095 40100 56013 555 7/098 87/05 86/14;
0144030940999992000070515004+57690-002120FM-12+000499999V0203401N00461009001CN0200001N1+01101+00661101631ADDGA1021+005409089GF107991071081004501999999MD1110061+9999REMSYN076AAXX  05154 03094 42470 73409 10110 20066 40163 51006 878// 333 82818 86642;
0129030940999992000071023004+57690-002120FM-12+000499999V0203301N011819999999N0160001N1+01061+00751100351ADDMD1110071+9999OA140101601REMSYN092AAXX  10234 03094 46/66 /3323 10106 20075 40035 51007 333 90710 91131 555 7/098 81/22 87/44;
0135030940999992000071105004+57690-002120FM-12+000499999V0203301N010819999999N0170001N1+01031+00741100351ADDMD1210011+9999OA140101491REMSYN098AAXX  11054 03094 46/67 /3321 10103 20074 40035 52001 333 90710 91129 555 7/097 81/19 81/23 86/42;
0096030940999992000072120004+57690-002120FM-12+000499999V0209999C000019999999N0260001N1+01391+01241102891ADDMD1210051+9999REMSYN070AAXX  21204 03094 46/76 /0000 10139 20124 40289 52005 555 7/090 80/99;
0102030940999992000073022004+57690-002120FM-12+000499999V0201101N002119999999N0044001N1+01301+01301102171ADDMD1210041+9999REMSYN076AAXX  30224 03094 46/44 /1104 10130 20130 40217 52004 555 7/098 87/02 87/07;
0096030940999992000080217004+57690-002120FM-12+000499999V0200701N004119999999N0100001N1+01301+01301100911ADDMD1210031+9999REMSYN070AAXX  02174 03094 46/60 /0708 10130 20130 40091 52003 555 7/091 81/01;
0119030940999992000080418004+57690-002120FM-12+000499999V0203001N004119999999N0160001N1+01561+01381101891ADDKA1120M+01701MD1210051+9999REMSYN080AAXX  04184 03094 46/66 /3008 10156 20138 40189 52005 333 10170 555 7/097 87/23;
0108030940999992000081104004+57690-002120FM-12+000499999V0203201N005119999999N0230001N1+01301+01241101361ADDMD1210011+9999REMSYN082AAXX  11044 03094 46/73 /3210 10130 20124 40136 52001 555 7/098 85/11 83/20 85/27;
0125030940999992000081300004+57690-002120FM-12+000499999V0202701N001519999999N0140001N1+01551+01471101041ADDAA106000191MD1110141+9999REMSYN088AAXX  13004 03094 16/64 /2703 10155 20147 40104 51014 69921 555 7/097 82/31 84/41 85/49;
0138030940999992000081416004+57690-002120FM-12+000499999V0209999C000010108019N0280001N1+01631+01471100681ADDGA1051+010809059GF106991051051012501031999MD1610021+9999REMSYN070AAXX  14164 03094 42678 60000 10163 20147 40068 56002 8553/ 333 85636;
0108030940999992000082003004+57690-002120FM-12+000499999V0200201N005719999999N0190001N1+01241+01171101171ADDMD1210061+9999REMSYN082AAXX  20034 03094 46/69 /0211 10124 20117 40117 52006 555 7/096 83/12 81/21 84/56;
0174030940999992000082312004+57690-002120FM-12+000499999V0202901N00621220001CN0400001N1+01411+01071102431ADDAA199000091GA1011+009009089GF106991011011012501001011MD1510031+9999REMSYN076AAXX  23124 03094 32682 62912 10141 20107 40243 55003 81101 333 81830 86070;EQDQ01  00002PRCP99
0123030940999992000082403004+57690-002120FM-12+000499999V0202601N010319999999N0250001N1+01471+00911101751ADDMD1710181+9999OA140101341REMSYN086AAXX  24034 03094 46/75 /2620 10147 20091 40175 57018 333 90710 91126 555 7/097 87/47;
0144030940999992000082513004+57690-002120FM-12+000499999V0202501N002612200019N0250001N1+01871+01741101841ADDGA1021+007509089GF104991021021008001001011MD1510141+9999REMSYN076AAXX  25134 03094 42575 42505 10187 20174 40184 55014 82201 333 82825 83072;
0096030940999992000082616004+57690-002120FM-12+000499999V0201501N006219999999N0037001N1+01581+01581100561ADDMD1510071+9999REMSYN070AAXX  26164 03094 46/37 /1512 10158 20158 40056 55007 555 7/098 88/04;
0096030940999992000082703004+57690-002120FM-12+000499999V0202801N003619999999N0050001N1+01471+01471100341ADDMD1810041+9999REMSYN070AAXX  27034 03094 46/50 /2807 10147 20147 40034 58004 555 7/091 81/50;
0102030940999992000082710004+57690-002120FM-12+000499999V0202801N007719999999N0160001N1+01381+01331100851ADDMD1210241+9999REMSYN076AAXX  27104 03094 46/66 /2815 10138 20133 40085 52024 555 7/098 85/08 88/16;
0096030940999992000083019004+57690-002120FM-12+000499999V0201501N006219999999N0140001N1+01271+01181101451ADDMD1610211+9999REMSYN070AAXX  30194 03094 46/64 /1512 10127 20118 40145 56021 555 7/097 87/49;
0096030940999992000090305004+57690-002120FM-12+000499999V0200101N003619999999N0180001N1+01141+00561101951ADDMD1310071+9999REMSYN070AAXX  03054 03094 46/68 /0107 10114 20056 40195 53007 555 7/097 87/43;
0096030940999992000090319004+57690-002120FM-12+000499999V0209999C000019999999N0150001N1+01091+00601102191ADDMD1810011+9999REMSYN070AAXX  03194 03094 46/65 /0000 10109 20060 40219 58001 555 7/090 80/99;
0096030940999992000090403004+57690-002120FM-12+000499999V0201501N002119999999N0400001N1+00541+00401102121ADDMD1810071+9999REMSYN070AAXX  04034 03094 46/82 /1504 10054 20040 40212 58007 555 7/090 80/99;
0096030940999992000090420004+57690-002120FM-12+000499999V0201701N005119999999N0110001N1+01361+01291101621ADDMD1710041+9999REMSYN070AAXX  04204 03094 46/61 /1710 10136 20129 40162 57004 555 7/090 80/99;
0144030940999992000090515004+57690-002120FM-12+000499999V0209999C000010135019N0300001N1+01591+01431101261ADDGA1051+013509069GF105991051051012501031001MD1810081+9999REMSYN076AAXX  05154 03094 42680 50000 10159 20143 40126 58008 85530 333 85645 83358;
0159030940999992000090718004+57690-002120FM-12+000499999V0202501N012319999999N0140001N1+01531+00931099851ADDAA112002091KA1120M+01821MD1310211+9999OA140101801REMSYN098AAXX  07184 03094 16/64 /2524 10153 20093 49985 53021 60022 333 10182 90710 91135 555 7/091 81/50;
0155030940999992000091218004+57690-002120FM-12+000499999V0200301N003119999999N0100001N1+01191+01121101021ADDAA199000091KA1120M+01241MD1010011+9999REMSYN086AAXX  12184 03094 36/60 /0306 10119 20112 40102 50001 333 10124 555 7/094 84/02 81/26;EQDQ01  00002PRCP99
0108030940999992000091517004+57690-002120FM-12+000499999V0203101N003619999999N0230001N1+01311+01311100951ADDMD1510001+9999REMSYN082AAXX  15174 03094 46/73 /3107 10131 20131 40095 55000 555 7/098 83/08 87/18 84/46;
0113030940999992000091800004+57690-002120FM-12+000499999V0201601N004619999999N0300001N1+01221+01221099471ADDAA106000591MD1710131+9999REMSYN076AAXX  18004 03094 16/80 /1609 10122 20122 49947 57013 69941 555 7/091 81/23;
0123030940999992000092409004+57690-002120FM-12+000499999V0201301N011819999999N0070001N1+01471+01351101611ADDMD1210121+9999OA140101701REMSYN086AAXX  24094 03094 46/57 /1323 10147 20135 40161 52012 333 90710 91133 555 7/096 86/10;
0102030940999992000092421004+57690-002120FM-12+000499999V0201101N006719999999N0060001N1+01281+01281101701ADDMD1110051+9999REMSYN076AAXX  24214 03094 46/56 /1113 10128 20128 40170 51005 555 7/098 81/10 87/32;
0154030940999992000092806004+57690-002120FM-12+000499999V0201801N006219999999N9999999N1+00711+00691099011ADDAA112001091IA2999+00909KA1120N+00711MD1210091+9999REMSYN092AAXX  28064 03094 16/// /1812 10071 20069 49901 52009 60012 333 20071 3/009 555 7/090 80/99;
0170031000999992000011423004+56500-006880FM-12+001299999V0202901N001510093019N0750001N1+00321+00221104011ADDGA1031+006609069GA2031+009309069GF106991061051008001999999MD1210111+9999REMSYN086    AAXX  14234 03100 42589 62903 10032 20022 40401 52011 865// 333 83622 83631 86639;
0176031000999992000011622004+56500-006880FM-12+001299999V0203101N00571001201CN0040001N1+00791+00751104251ADDAY151999AY221999GA1041+001509079GF108991081051001501999999MD1810021+9999MW1501REMSYN086    AAXX  16224 03100 41240 83111 10079 20075 40425 58002 75052 885// 333 84705 88616;
0138031000999992000012419004+56500-006880FM-12+0012EGPU V0200101N002612200019N0200001N1+00431+00351102881ADDGA1011+005409059GF101991011041004501031011MD1210121+9999REMSYN070AAXX  24194 03100 42470 10105 10043 20035 40288 52012 81431 333 81618;
0172031000999992000012610004+56500-006880FM-12+0012EGPU V0202801N00361002101CN0200001N1+00591+00541102991ADDAY121999AY221999GA1011+002409079GF107991071051002501999999MD1210101+9999MW1201REMSYN082AAXX  26104 03100 41370 72807 10059 20054 40299 52010 72022 875// 333 81708 85615;
0222031000999992000013020004+56500-006880FM-12+0012EGPU V0202801N015910750019N0100001N1+00951+00501099511ADDAY121999AY221999GA1011+005109069GA2031+015009069GA3051+075009009GF105991031051004501001021MD1310131+9999MW1211REMSYN100AAXX  30204 03100 41460 52831 10095 20050 49951 53013 72122 83502 333 81617 83650 85075 90710 91142;
0200031000999992000020216004+56500-006880FM-12+0012EGPU V0203001N01181004201CN0130001N1+00721+00341101801ADDAY121999AY221999GA1011+004509099GA2031+012009069GF107991051091004501061021MD1210261+9999MW1251REMSYN094AAXX  02164 03100 41463 73023 10072 20034 40180 52026 72522 85962 333 81915 83640 90710 91133;
0178031000999992000020916004+56500-006880FM-12+0012EGPU V0202101N014910063019N0090001N1+00961+00561100201ADDAY161999AY221999GA1081+006309069GF108991081051008001999999MD1810291+9999MW1601REMSYN088AAXX  09164 03100 41559 82129 10096 20056 40020 58029 76062 885// 333 88621 90710 91141;
0200031000999992000021513004+56500-006880FM-12+0012EGPU V0202401N010810048019N0046001N1+00411+00241099761ADDAY161011AY221011GA1031+003309079GA2081+004809069GF108991081051004501999999MD1610491+9999MW1621REMSYN094AAXX  15134 03100 41446 82421 10041 20024 49976 56049 76262 885// 333 83711 88616 90710 91132;
0200031000999992000021708004+56500-006880FM-12+0012EGPU V0203101N00621030001CN0300001N1+00451+00101100581ADDAY121999AY221999GA1011+004809099GA2031+015009069GF106991041091004501061021MD1210121+9999MW1251REMSYN094AAXX  17084 03100 41480 63112 10045 20010 40058 52012 72522 84962 333 81916 83650 90710 91131;
0167031000999992000022913504+56500-006880FM-15+0012EGPU V0202901N008712200019N0112651N1+00501+00201999999ADDGA1021+004809099GA2021+006609029GF104991999999999999999999MA1099191999999MW1001REMMET057EGPU 291350Z 29017KT 9999 FEW016CB SCT022TCU 05/02 Q0992;EQDQ01+000000PRSWM2
0200031000999992000030222004+56500-006880FM-12+0012EGPU V0203001N015410102019N0210001N1+00511-00141099131ADDAY181999AY221999GA1011+004809099GA2041+010209089GF107991071091004501031999MD1310011+9999MW1251REMSYN094AAXX  02224 03100 41471 73030 10051 21014 49913 53001 72582 8793/ 333 81916 84834 90710 91146;
0178031000999992000030613004+56500-006880FM-12+0012EGPU V0202601N011310006019N0031001N1+00991+00971101091ADDAY151011AY251011GA1081+000609079GF108991081071000751999999MD1310021+9999MW1511REMSYN088AAXX  06134 03100 41131 82622 10099 20097 40109 53002 75155 887// 333 88702 90710 91132;
0182031000999992000030712504+56500-006880FM-15+0012EGPU V0202501N007210051019N0045001N1+01001+00901999999ADDGA1021+000609999GA2081+005109999GF108991999999999999999999MA1101191999999MW1511REMMET056EGPU 071250Z 25014KT 4500 -DZ SCT002 OVC017 10/09 Q1012;EQDQ01+000003PRSWM1Q02    003PRSWM1
0181031000999992000030719014+56500-006880FM-16+0012EGPU V02099999999990003019N0012001N1+01001+01001999999ADDGA1071+000309999GA2081+001209999GF108991999999999999999999MA1100711999999MW1631REMMET055EGPU 071901Z 230//KT 1200 RA BKN001 OVC004 10/10 Q1007;EQDQ01+000003PRSWM1Q02    003PRSWM1
0194031000999992000030915004+56500-006880FM-12+0012EGPU V0202901N008210045019N0130001N1+00921+00821102301ADDAY151031AY221031GA1021+001509079GA2041+004509069GF108991081051001501999999MD1210131+9999MW1501REMSYN088AAXX  09154 03100 41263 82916 10092 20082 40230 52013 75052 885// 333 82705 84615 88626;
0158031000999992000031010384+56500-006880FM-16+0012EGPU V0202501N012910015019N0015001N1+01001+00901999999ADDGA1081+001509999GF108991999999999999999999MA1101591999999MW1631REMMET048EGPU 101038Z 25025KT 1500 RA OVC005 10/09 Q1016;EQDQ01+000003PRSWM1Q02    003PRSWM1
0162031000999992000031109504+56500-006880FM-15+0012EGPU V0203301N009810084019N0112651N1+00801+00401999999ADDGA1021+005409999GA2071+008409999GF107991999999999999999999MA1102101999999MW1001REMMET052EGPU 110950Z 33019KT 9999 FEW018 BKN028 08/04 Q1021;EQDQ01+000000PRSWM2
0144031000999992000031517004+56500-006880FM-12+0012EGPU V0202801N006710018019N0140001N1+00891+00821103171ADDGA1051+001809079GF108991081061002501999999MD1510011+9999REMSYN076AAXX  15174 03100 42364 82813 10089 20082 40317 55001 886// 333 85706 84639;
0138031000999992000031604004+56500-006880FM-12+0012EGPU V0202801N006210138019N0110001N1+00871+00771103211ADDGA1071+013809059GF107991071051012501999999MD1710051+9999REMSYN070AAXX  16044 03100 42661 72812 10087 20077 40321 57005 875// 333 87646;
0138031000999992000031722004+56500-006880FM-12+0012EGPU V0200301N007212200019N0160001N1+00631+00261103781ADDGA1011+006609029GF101991011011008001001001MD1210151+9999REMSYN070AAXX  17224 03100 42566 10314 10063 20026 40378 52015 81100 333 81822;
0144031000999992000031809004+56500-006880FM-12+0012EGPU V0201601N00621004201CN0500001N1+00751+00501103761ADDGA1011+003009079GF106991051051004501031011MD1810031+9999REMSYN076AAXX  18094 03100 42484 61612 10075 20050 40376 58003 85531 333 81710 83615;
0187031000999992000031818004+56500-006880FM-12+0012EGPU V0202001N005110036019N0180001N1+00741+00511103681ADDAA199000091GA1071+003609069GF107991071061004501999999KA1120M+00941MD1710061+9999REMSYN076AAXX  18184 03100 32468 72010 10074 20051 40368 57006 876// 333 10094 87712;EQDQ01  00002PRCP99
0166031000999992000031820004+56500-006880FM-12+0012EGPU V0201901N005110006019N0040001N1+00761+00731103661ADDAY161999AY221999GA1081+000609069GF108991081061000751999999MD1510051+9999MW1211REMSYN076AAXX  18204 03100 41140 81910 10076 20073 40366 55005 72162 886// 333 88702;
0172031000999992000032108004+56500-006880FM-12+0012EGPU V0203601N007710009019N0045001N1+00551+00491101971ADDAY161999AY251999GA1061+000909079GF108991061071001501021999MD1310051+9999MW1581REMSYN082AAXX  21084 03100 41245 83615 10055 20049 40197 53005 75865 8672/ 333 86703 88465;
0144031000999992000032209004+56500-006880FM-12+0012EGPU V0209999C000010750019N0700001N1+00611+00181101781ADDGA1031+007809089GF107991031021008001001021MD1510001+9999REMSYN076AAXX  22094 03100 42588 70000 10061 20018 40178 55000 83202 333 83826 87075;
0172031000999992000032603004+56500-006880FM-12+0012EGPU V0201301N00931004201CN0190001N1+00641+00331100181ADDAY121031AY221031GA1041+004809099GF106991061091004501999999MD1310111+9999MW1151REMSYN082AAXX  26034 03100 41469 61318 10064 20033 40018 53011 71522 869// 333 84916 83822;
0138031000999992000032720004+56500-006880FM-12+0012EGPU V0200401N003112200019N0500001N1+00451+00121102731ADDGA1011+036009079GF101991011001999999031021MD1210141+9999REMSYN070AAXX  27204 03100 42984 10406 10045 20012 40273 52014 81032 333 81362;
0138031000999992000033005004+56500-006880FM-12+0012EGPU V0200101N003610150019N0220001N1+00761+00661102231ADDGA1071+015009059GF107991071051017501999999MD1810131+9999REMSYN070AAXX  30054 03100 42772 70107 10076 20066 40223 58013 875// 333 87650;
0178031000999992000040322004+56500-006880FM-12+0012EGPU V0200301N011312200019N0080001N1+00271-00171100961ADDAY181011AY201011GA1031+006309089GF103991031021008001001001MD1010031+9999MW1801REMSYN088AAXX  03224 03100 41558 30322 10027 21017 40096 50003 78080 83200 333 83821 90710 91130;
0168031000999992000040418004+56500-006880FM-12+0012EGPU V0200201N004612200019N0750001N1+00511-00171101491ADDAA199000021GA1021+009009059GF102991021041012501001001KA1120M+00651MD1210101+9999REMSYN076AAXX  04184 03100 32689 20209 10051 21017 40149 52010 82400 333 10065 82630;
0138031000999992000040502004+56500-006880FM-12+0012EGPU V0200901N001012200019N0600001N1+00241+00001101731ADDGA1021+008109029GF102991021021008001001001MD1210051+9999REMSYN070AAXX  05024 03100 42586 20902 10024 20000 40173 52005 82200 333 82827;
0217031000999992000041006004+56500-006880FM-12+0012EGPU V0202901N00211030001CN0200001N1+00561+00511102081ADDAA199000091GA1011+003609079GF107991031051004501071011IA1099IA2999+00309KA1120N+00561MD1710141+9999REMSYN088AAXX  10064 03100 32470 72904 10056 20051 40208 57014 83571 333 20056 31003 81712 83656;EQDQ01  00002PRCP99
0194031000999992000041011004+56500-006880FM-12+0012EGPU V0203101N00411006001CN0200001N1+00881+00681101871ADDAY161021AY221021GA1011+001809079GA2031+005709069GF108991081081002501999999MD1710151+9999MW1211REMSYN088AAXX  10114 03100 41370 83108 10088 20068 40187 57015 72162 888// 333 81706 83619 87633;
0172031000999992000041021004+56500-006880FM-12+0012EGPU V0202801N00621004201CN0300001N1+00631+00231100631ADDAY181031AY261031GA1031+005409099GF107991051091004501071999MD1610431+9999MW1251REMSYN082AAXX  10214 03100 41480 72812 10063 20023 40063 56043 72586 8597/ 333 83918 87359;
0150031000999992000041401004+56500-006880FM-12+0012EGPU V0200301N010812200019N0300001N1+00381+00031100521ADDGA1021+005409089GF103991031081004501001001MD1310031+9999REMSYN082AAXX  14014 03100 42480 30321 10038 20003 40052 53003 83800 333 82818 90710 91127;
0172031000999992000041601004+56500-006880FM-12+0012EGPU V0201201N011310270019N0500001N1+00511+00021099521ADDGA1011+006909089GA2051+027009039GF105991011081008001031001MD1210091+9999REMSYN088AAXX  16014 03100 42584 51222 10051 20002 49952 52009 81830 333 81823 85359 90710 91128;
0166031000999992000041701004+56500-006880FM-12+0012EGPU V0200701N002610900019N0700001N1+00191-00031099551ADDGA1021+024009039GA2061+090009029GF106991021001999999031061MD1710061+9999REMSYN082AAXX  17014 03100 42988 60705 10019 21003 49955 57006 82036 333 82358 86280 99021;
0200031000999992000042707004+56500-006880FM-12+0012EGPU V0200301N010310048019N0080001N1+00611+00421100501ADDAY161999AY221999GA1021+003309079GA2081+004809069GF108991081051004501999999MD1610021+9999MW1601REMSYN094AAXX  27074 03100 41458 80320 10061 20042 40050 56002 76062 885// 333 82711 88616 90710 91130;
0144031000999992000042802004+56500-006880FM-12+0012EGPU V0201501N00511004201CN0150001N1+00831+00701100841ADDGA1031+005109069GF107991061051004501071999MD1810031+9999REMSYN076AAXX  28024 03100 42465 71510 10083 20070 40084 58003 8657/ 333 83617 85634;
0181031000999992000050213504+56500-006880FM-15+0012EGPU V0203501N006210003019N0045001N1+01001+00901999999ADDGA1071+000309999GA2081+001509999GF108991999999999999999999MA1103011999999MW1101REMMET055EGPU 021350Z 35012KT 4500 BR BKN001 OVC005 10/09 Q1030;EQDQ01+000003PRSWM1Q02    003PRSWM1
0144031000999992000050704004+56500-006880FM-12+0012EGPU V0200201N00461220001CN0100001N1+00971+00871101841ADDGA1031+021009039GF106991031001022501071011MD1310051+9999REMSYN076AAXX  07044 03100 42860 60209 10097 20087 40184 53005 83071 333 83357 85075;
0144031000999992000050804004+56500-006880FM-12+0012EGPU V0201701N000519999999N0130001N1+00951+00761102051ADDGA1011+033009039GF105991011001999999031011MD1010001+9999REMSYN076AAXX  08044 03100 42963 51701 10095 20076 40205 50000 81031 333 81361 85075;
0139031000999992000050915354+56500-006880FM-16+0012EGPU V0203601N007212200019N0112651N1+01201+01001999999ADDGA1021+001209999GF104991999999999999999999MA1102101999999MW1001REMMET045EGPU 091535Z 36014KT 9999 SCT004 12/10 Q1021;EQDQ01+000000PRSWM2
0144031000999992000051113004+56500-006880FM-12+0012EGPU V0200501N003112200019N0700001N1+01641+00931102661ADDGA1011+048009039GF104991011001999999041021MD1710081+9999REMSYN076AAXX  11134 03100 42988 40506 10164 20093 40266 57008 81042 333 81366 84080;
0211031000999992000051206004+56500-006880FM-12+0012EGPU V0201001N007712200019N0750001N1+01031+00091102331ADDAA199000091GA1011+045009079GF102991011001999999031021IA1099IA2999+00609KA1120N+00841MD1810141+9999REMSYN082AAXX  12064 03100 32989 21015 10103 20009 40233 58014 81032 333 20084 31006 81365;EQDQ01  00002PRCP99
0138031000999992000051311004+56500-006880FM-12+0012EGPU V0201401N006212200019N0280001N1+01511+01001102151ADDGA1041+030009079GF104991041001999999031001MD1710091+9999REMSYN070AAXX  13114 03100 42978 41412 10151 20100 40215 57009 84030 333 84360;
0172031000999992000051320004+56500-006880FM-12+0012EGPU V0201601N002612200019N0120001N1+01261+01021101981ADDAY111999AY211999GA1011+042009039GF104991011001999999031021MD1610041+9999MW1051REMSYN082AAXX  13204 03100 41962 41605 10126 20102 40198 56004 70511 81032 333 81364 84080;
0138031000999992000051619004+56500-006880FM-12+0012EGPU V0202701N004612200019N0450001N1+01081+00471100481ADDGA1021+008109029GF104991021011008001001021MD1610041+9999REMSYN070AAXX  16194 03100 42583 42709 10108 20047 40048 56004 82102 333 82827;
0141031000999992000051711504+56500-006880FM-15+0012EGPU V0203001N008212200019N0112651N1+01101+00701999999ADDGA1021+005109099GF102991999999999999999999MA1099801999999MW1001REMMET047EGPU 171150Z 30016KT 9999 FEW017CB 11/07 Q0998;EQDQ01+000000PRSWM2
0138031000999992000051916004+56500-006880FM-12+0012EGPU V0203101N004612200019N0750001N1+01081+00491100961ADDGA1011+006609029GF102991021081008001001001MD1110051+9999REMSYN070AAXX  19164 03100 42589 23109 10108 20049 40096 51005 82800 333 81822;
0175031000999992000052208504+56500-006880FM-15+0012EGPU V0202401N003612200019N0112651N1+01001+00401999999ADDGA1021+005409099GA2021+006309029GF102991999999999999999999MA1101191999999MW1001REMMET065EGPU 220850Z 24007KT 210V280 9999 FEW018CB FEW021TCU 10/04 Q1012;EQDQ01+000000PRSWM2
0185031000999992000052309504+56500-006880FM-15+0012EGPU V0202901N010310210019N0112651N1+01101+00901999999ADDGA1021+000609999GA2021+004809999GA3071+021009999GF107991999999999999999999MA1099701999999MW1001REMMET059EGPU 230950Z 29020KT 9999 FEW002 SCT016 BKN070 11/09 Q0997;EQDQ01+000000PRSWM2
0172031000999992000052510004+56500-006880FM-12+0012EGPU V0202001N00621004201CN0150001N1+00781+00511100311ADDAY181011AY211011GA1011+005409099GF106991061091004501999999MD1310051+9999MW1801REMSYN082AAXX  25104 03100 41465 62012 10078 20051 40031 53005 78081 869// 333 81918 84824;
0144031000999992000052707004+56500-006880FM-12+0012EGPU V0209999C00001220001CN0750001N1+00921+00471100121ADDGA1011+005409099GF105991011091004501001011MD1610061+9999REMSYN076AAXX  27074 03100 42489 50000 10092 20047 40012 56006 81901 333 81918 85075;
0211031000999992000060700004+56500-006880FM-12+0012EGPU V0202701N007210150019N0190001N1+01031+00621101771ADDAA106000791AY161061AY211061GA1011+006009069GA2061+015009069GF107991061051008001031999MD1710071+9999MW1021REMSYN094AAXX  07004 03100 11569 72714 10103 20062 40177 57007 69901 70261 8653/ 333 81620 86650 86361;
0200031000999992000060903004+56500-006880FM-12+0012EGPU V0201901N008710102019N0150001N1+01021+00901100571ADDAY181031AY221031GA1031+002109079GA2061+010209069GF107991071081002501999999MD1010041+9999MW1251REMSYN094AAXX  09034 03100 41365 71917 10102 20090 40057 50004 72582 878// 333 83707 86634 90710 91127;
0172031000999992000060915004+56500-006880FM-12+0012EGPU V0202301N00671004201CN0230001N1+01301+00991100741ADDAY161031AY251031GA1031+003009079GF105991051061004501001011MD1810011+9999MW1011REMSYN082AAXX  09154 03100 41473 52313 10130 20099 40074 58001 70165 85601 333 83710 83656;
0189031000999992000061200004+56500-006880FM-12+0012EGPU V0201901N005110003019N0035001N1+01031+01011100851ADDAA106000891AY161061AY251061GA1061+000309079GF108991081071000251999999MD1710131+9999MW1591REMSYN088AAXX  12004 03100 11035 81910 10103 20101 40085 57013 69981 75965 887// 333 86701 88702;
0138031000999992000061403004+56500-006870FM-12+0012EGPU V0202401N005112200019N0130001N1+00951+00751101771ADDGA1011+003009069GF103991021081004501001011MD1610091+9999REMSYN070AAXX  14034 03100 42463 32410 10095 20075 40177 56009 82801 333 81710;
0182031000999992000062313504+56500-006870FM-15+0012EGPU V0203301N011310018019N0112651N1+01101+01001999999ADDGA1071+001809999GA2081+027009999GF108991999999999999999999MA1101291999999MW1611REMMET056EGPU 231350Z 33022KT 9999 -RA BKN006 OVC090 11/10 Q1013;EQDQ01+000003PRSWM1Q02    003PRSWM1
0162031000999992000062714504+56500-006870FM-15+0012EGPU V0209999C000010180019N0112651N1+01601+01101999999ADDGA1021+007209999GA2071+018009999GF107991999999999999999999MA1102301999999MW1001REMMET052EGPU 271450Z 00000KT 9999 FEW024 BKN060 16/11 Q1023;EQDQ01+000000PRSWM2
0138031000999992000070305004+56500-006870FM-12+0012EGPU V0201501N002110123019N0400001N1+01311+01111101161ADDGA1061+012309059GF106991061051012501999999MD1810041+9999REMSYN070AAXX  03054 03100 42682 61504 10131 20111 40116 58004 865// 333 86641;
0193031000999992000070618004+56500-006870FM-12+0012EGPU V0200101N007212200019N0750001N1+01261+00581102401ADDAA199000091GA1011+005709089GF103991011081004501001011KA1120M+01351MD1510001+9999REMSYN082AAXX  06184 03100 32489 30114 10126 20058 40240 55000 81801 333 10135 81819 83075;EQDQ01  00002PRCP99
0206031000999992000070710504+56500-006870FM-15+0012EGPU V0203001N006710120019N0112651N1+01301+00901999999ADDGA1021+004209999GA2021+006009999GA3071+012009999GF107991999999999999999999MA1102201999999MW1161REMMET064EGPU 071050Z 30013KT 9999 VCSH FEW014 SCT020 BKN040 13/09 Q1022;EQDQ01+000003PRSWM1Q02    003PRSWM1
0185031000999992000070711504+56500-006870FM-15+0012EGPU V0202901N006710075019N0112651N1+01301+00901999999ADDGA1021+004509999GA2071+007509999GA3071+012009999GF107991999999999999999999MA1102101999999MW1001REMMET059EGPU 071150Z 29013KT 9999 FEW015 BKN025 BKN040 13/09 Q1021;EQDQ01+000000PRSWM2
0189031000999992000070812504+56500-006870FM-15+0012EGPU V0202201N005110012019N0050001N1+01301+01201999999ADDGA1021+000909999GA2081+001209999GF108991999999999999999999MA1101021999999MW1511MW2631REMMET057EGPU 081250Z 22010KT 5000 RADZ FEW003 OVC004 13/12 Q1010;EQDQ01+000003PRSWM1Q02    003PRSWM1
0166031000999992000070908004+56500-006870FM-12+0012EGPU V0209999C000010006019N0050001N1+01161+01121099381ADDAY151999AY251999GA1081+000609069GF108991081071000751999999MD1610141+9999MW1511REMSYN076AAXX  09084 03100 41150 80000 10116 20112 49938 56014 75155 887// 333 88702;
0200031000999992000071323004+56500-006870FM-12+0012EGPU V0203201N008210135019N0230001N1+01141+00941100981ADDAY181999AY221999GA1021+004509089GA2051+013509069GF107991071041004501999999MD1210101+9999MW1251REMSYN094AAXX  13234 03100 41473 73216 10114 20094 40098 52010 72582 874// 333 82815 85645 90710 91125;
0260031000999992000071406004+56500-006870FM-12+0012EGPU V0203301N009310126019N0200001N1+01191+00921101191ADDAA112002091AY181061AY221061GA1021+004809089GA2071+012609069GF107991071081004501999999IA1099IA2999+01009KA1120N+01061MD1310141+9999MW1151REMSYN112AAXX  14064 03100 11470 73318 10119 20092 40119 53014 60022 71582 878// 333 20106 31010 82816 87642 90710 91129;
0144031000999992000072207004+56500-006870FM-12+0012EGPU V0209999C000019999999N0200001N1+01621+01421102581ADDGA1011+036009039GF105991011001999999031011MD1110021+9999REMSYN076AAXX  22074 03100 42970 50000 10162 20142 40258 51002 81031 333 81362 85078;
0144031000999992000072516004+56500-006870FM-12+0012EGPU V0200701N00101012001CN0450001N1+01741+01101100761ADDGA1011+006309089GF107991061081008001999011MD1810051+9999REMSYN076AAXX  25164 03100 42583 70702 10174 20110 40076 58005 868/1 333 81821 86642;
0138031000999992000072803004+56500-006870FM-12+0012EGPU V0201701N003112200019N0100001N1+01371+01301101011ADDGA1011+002409069GF101991011061002501001021MD1210021+9999REMSYN070AAXX  28034 03100 42360 11706 10137 20130 40101 52002 81602 333 81708;
0144031000999992000072819004+56500-006870FM-12+0012EGPU V0203501N00411220001CN0100001N1+01581+01411101291ADDGA1011+007509089GF107991011011008001001011MD1210071+9999REMSYN076AAXX  28194 03100 42560 73508 10158 20141 40129 52007 81101 333 81825 87075;
0138031000999992000073016004+56500-006870FM-12+0012EGPU V0201601N001512200019N0750001N1+01751+01361102051ADDGA1011+002709069GF103991021081002501031021MD1810011+9999REMSYN070AAXX  30164 03100 42389 31603 10175 20136 40205 58001 82832 333 81709;
0200031000999992000073108004+56500-006870FM-12+0012EGPU V0201101N007710114019N0120001N1+01471+01351101431ADDAY161999AY251999GA1011+003009079GA2051+011409069GF106991051051004501031999MD1810181+9999MW1581REMSYN094AAXX  31084 03100 41462 61115 10147 20135 40143 58018 75865 8553/ 333 81710 85638 90710 91125;
0144031000999992000080313004+56500-006870FM-12+0012EGPU V0200201N005710090019N0600001N1+01511+01041101951ADDGA1011+005409089GF106991051081004501001011MD1110121+9999REMSYN076AAXX  03134 03100 42486 60211 10151 20104 40195 51012 85801 333 81818 85630;
0172031000999992000081020004+56500-006870FM-12+0012EGPU V0202901N00261009001CN0200001N1+01341+01121101621ADDAY121999AY221999GA1011+004509089GF107991071081004501999999MD1610011+9999MW1151REMSYN082AAXX  10204 03100 41470 72905 10134 20112 40162 56001 71522 878// 333 81815 87622;
0183031000999992000081200004+56500-006870FM-12+0012EGPU V0201701N006710003019N0042001N1+01441+01431100861ADDAA106005191AY161061AY251061GA1081+000309069GF108991081071000251999999MD1810121+9999MW1611REMSYN082AAXX  12004 03100 11042 81713 10144 20143 40086 58012 60051 76165 887// 333 88701;
0138031000999992000082121004+56500-006870FM-12+0012EGPU V0200501N003112200019N0750001N1+01171+00991101671ADDGA1011+005409029GF103991011021004501031021MD1310121+9999REMSYN070AAXX  21214 03100 42489 30506 10117 20099 40167 53012 81232 333 81818;
0200031000999992000083108004+56500-006870FM-12+0012EGPU V0201901N003610090019N0100001N1+01381+01331099771ADDAY161999AY221999GA1011+001509079GA2051+009009069GF107991051081001501031021MD1510121+9999MW1211REMSYN094AAXX  31084 03100 41260 71907 10138 20133 49977 55012 72162 85832 333 81705 85630 90710 91130;
0144031000999992000090101004+56500-006870FM-12+0012EGPU V0201201N00621030001CN0230001N1+01351+01201099631ADDGA1021+004809089GF105991021011004501031001MD1210061+9999REMSYN076AAXX  01014 03100 42473 51212 10135 20120 49963 52006 82130 333 82816 84361;
0162031000999992000090906204+56500-006870FM-15+0012EGPU V0202601N005710150019N0112651N1+01301+00901999999ADDGA1021+006909999GA2071+015009999GF107991999999999999999999MA1101491999999MW1001REMMET052EGPU 090620Z 26011KT 9999 FEW023 BKN050 13/09 Q1015;EQDQ01+000000PRSWM2
0166031000999992000091211004+56500-006870FM-12+0012EGPU V0209999C000010060019N0450001N1+01501+01281101041ADDGA1031+002709079GA2041+006009089GF107991071081002501031999MD1210071+9999REMSYN082AAXX  12114 03100 42383 70000 10150 20128 40104 52007 8783/ 333 83709 84820 86625;
0166031000999992000091305004+56500-006870FM-12+0012EGPU V0202101N00211030001CN0500001N1+01111+00851100971ADDGA1011+003609079GA2031+015009069GF107991031051004501031011MD1710151+9999REMSYN082AAXX  13054 03100 42484 72104 10111 20085 40097 57015 83531 333 81712 83650 85359;
0194031000999992000091313004+56500-006870FM-12+0012EGPU V0201701N008210072019N0150001N1+01281+01141100811ADDAY161011AY261011GA1021+005409079GA2061+007209069GF108991061051004501021999MD1610061+9999MW1611REMSYN088AAXX  13134 03100 41465 81716 10128 20114 40081 56006 76166 8652/ 333 82718 86624 88462;
0217031000999992000091715004+56500-006870FM-12+0012EGPU V0202301N006210090019N0270001N1+01321+01171099881ADDAY181031AY221031GA1041+005109089GA2051+009009069GF107991071081004501031999MD1710301+9999MW1251OA140101441REMSYN100AAXX  17154 03100 41477 72312 10132 20117 49988 57030 72582 8783/ 333 84817 85630 90710 91128 96015;
0144031000999992000092103004+56500-006870FM-12+0012EGPU V0201601N009312200019N0240001N1+01221+00771100321ADDGA1011+006609089GF104991011011008001001021MD1010021+9999REMSYN076AAXX  21034 03100 42574 41618 10122 20077 40032 50002 81102 333 81822 83075;
0200031000999992000092408004+56500-006870FM-12+0012EGPU V0201201N010810078019N0080001N1+01621+01281100651ADDAY121021AY221021GA1011+003609099GA2071+007809069GF107991071091004501999999MD1210011+9999MW1161REMSYN094AAXX  24084 03100 41458 71221 10162 20128 40065 52001 71622 879// 333 81912 87626 90710 91128;
0138031000999992000092721004+56500-006870FM-12+0012EGPU V0202401N004612200019N0250001N1+01091+00681098901ADDGA1021+007809029GF102991021021008001001001MD1010081+9999REMSYN070AAXX  27214 03100 42575 22409 10109 20068 49890 50008 82200 333 82826;
0185031000999992000093009004+56500-006870FM-12+0012EGPU V0209999C000012200019N0090001N1+01351+01261100581ADDAY101031AY201031GA1011+015009059GF101991011051017501999001MD1110141+9999MW1051REMSYN076AAXX  30094 03100 41759 10000 10135 20126 40058 51014 70500 81500 333 81650;EQDQ01    003SCOMCG
0233031000999992000100812004+56500-006870FM-12+0012EGPU V0202401N006210081019N0150001N1+01021+00661100781ADDAA106001091AY181061AY211061GA1021+005709099GA2031+008109089GA3051+012309069GF107991051091004501031031MD1810051+9999MW1251REMSYN100AAXX  08124 03100 11465 72412 10102 20066 40078 58005 60011 72581 85933 333 82919 83827 85641 96015;
0200031000999992000100921004+56500-006870FM-12+0012EGPU V0200301N009810111019N0300001N1+00991+00421098641ADDAY161031AY221031GA1051+011109069GA2071+015009069GF108991081051012501999999MD1810161+9999MW1211REMSYN094AAXX  09214 03100 41680 80319 10099 20042 49864 58016 72162 885// 333 85637 87650 90710 91126;
0195031000999992000101212004+56500-006870FM-12+0012EGPU V0200101N014410750019N0250001N1+01261+00791099171ADDAA106000791AY181061AY211061GA1031+006609089GF105991041081008001001021MD1310281+9999MW1031REMSYN094AAXX  12124 03100 11575 50128 10126 20079 49917 53028 69901 70381 84802 333 83822 90710 91139;
0139031000999992000101305504+56500-006870FM-15+0012EGPU V0203501N006210144019N0112651N1+01001+00701999999ADDGA1071+014409999GF107991999999999999999999MA1100611999999MW1001REMMET045EGPU 130550Z 35012KT 9999 BKN048 10/07 Q1006;EQDQ01+000000PRSWM2
0138031000999992000101705004+56500-006870FM-12+0012EGPU V0202201N004112200019N0350001N1+00921+00741100971ADDGA1011+006009099GF103991031091008001001001MD1010041+9999REMSYN070AAXX  17054 03100 42581 32208 10092 20074 40097 50004 83900 333 81920;
0200031000999992000110622004+56500-006870FM-12+0012EGPU V0200301N013910180019N0300001N1+00921+00211099371ADDAY161999AY221999GA1021+010809069GA2071+018009069GF107991071051012501999999MD1310021+9999MW1211REMSYN094AAXX  06224 03100 41680 70327 10092 20021 49937 53002 72162 875// 333 82636 87656 90710 91136;
0172031000999992000110709004+56500-006870FM-12+0012EGPU V0200301N014410270019N0600001N1+00941+00351099551ADDGA1011+006309089GA2071+027009039GF107991021081008001031999MD1110091+9999REMSYN088AAXX  07094 03100 42586 70328 10094 20035 49955 51009 8283/ 333 81821 87359 90710 91136;
0204031000999992000111513504+56500-006870FM-15+0012EGPU V0201801N017010018019N0036001N1+00801+00701999999ADDGA1021+000609999GA2071+001809999GA3081+003009999GF108991999999999999999999MA1099091999999MW1631REMMET062EGPU 151350Z 18033KT 3600 RA FEW002 BKN006 OVC010 08/07 Q0991;EQDQ01+000003PRSWM1Q02    003PRSWM1
0194031000999992000112409004+56500-006870FM-12+0012EGPU V0202701N004610063019N0180001N1+00581+00321099531ADDAY181031AY211031GA1021+004509099GA2031+006309089GF105991051091004501031001MD1610021+9999MW1271REMSYN088AAXX  24094 03100 41468 52709 10058 20032 49953 56002 72781 85930 333 82915 83821 96015;
0222031000999992000120209004+56500-006870FM-12+0012EGPU V0202201N013910030019N0060001N1+00951+00841098291ADDAY161031AY261031GA1021+001809079GA2061+003009079GA3081+015009059GF108991071071002501021999MD1210261+9999MW1631REMSYN100AAXX  02094 03100 41356 82227 10095 20084 49829 52026 76366 8772/ 333 82706 86710 88550 90710 91141;
0172031000999992000121022004+56500-006870FM-12+0012EGPU V0202101N008710150019N0120001N1+00831+00441099361ADDGA1011+003609079GA2041+015009069GF106991051081004501001011MD1110061+9999REMSYN088AAXX  10224 03100 42462 62117 10083 20044 49936 51006 85801 333 81712 84650 90710 91125;
0164031000999992000121306504+56500-006870FM-15+0012EGPU V0202901N012310750019N0112651N1+00701+00401999999ADDGA1021+005409099GA2071+075009999GF107991999999999999999999MA1098711999999MW1001REMMET054EGPU 130650Z 29024KT 9999 FEW018CB BKN250 07/04 Q0987;EQDQ01+000000PRSWM2
0138031000999992000121602004+56500-006870FM-12+0012EGPU V0201701N004110075019N0400001N1+00471-00011100921ADDGA1071+007509059GF107991071051008001999999MD1710061+9999REMSYN070AAXX  16024 03100 42582 71708 10047 21001 40092 57006 875// 333 87625;
0139031000999992000121907504+56500-006870FM-15+0012EGPU V0201401N015410054019N0112651N1+00701+00301999999ADDGA1071+005409999GF107991999999999999999999MA1101021999999MW1001REMMET045EGPU 190750Z 14030KT 9999 BKN018 07/03 Q1010;EQDQ01+000000PRSWM2
0144031000999992000122314004+56500-006870FM-12+0012EGPU V0200601N00261004201CN0350001N1+00641+00451101091ADDGA1011+003309079GF107991071051004501999999MD1810111+9999REMSYN076AAXX  23144 03100 42481 70605 10064 20045 40109 58011 875// 333 81711 87633;
0189031000999992000122400004+56500-006870FM-12+0012EGPU V0200701N00721012001CN0400001N1+00521+00071101131ADDAA106000791AY161061AY221061GA1031+012009069GF107991071051012501999999MD1310081+9999MW1211REMSYN088AAXX  24004 03100 11682 70714 10052 20007 40113 53008 69901 72162 875// 333 83640 87650;
0144031000999992000122514004+56500-006870FM-12+0012EGPU V0200601N004112200019N0700001N1+00371-00021101031ADDGA1011+004809089GF104991011081004501001021MD1710131+9999REMSYN076AAXX  25144 03100 42488 40608 10037 21002 40103 57013 81802 333 81816 84075;
0207031000999992000123114004+56500-006870FM-12+0012EGPU V0201301N019010015019N0024001N1+00241+00191098471ADDAJ100049199999999AY171999AY271999GA1081+001509079GF108991081071001501999999IA1309MD1810811+9999MW1691REMSYN094AAXX  31144 03100 41224 81337 10024 20019 49847 58081 76977 887// 333 42004 88705 90710 91154;
0135031110999992000010203004+55430-005700FM-12+0013EGQJ V0202201N009819999999N0160001N1+00901+00711101611ADDMD1310091+9999OA140101341REMSYN098AAXX  02034 03111 46/66 /2219 10090 20071 40161 53009 333 90710 91126 555 7/097 83/13 84/26 84/50;
0166031110999992000011110004+55430-005700FM-12+0013EGQJ V0202001N00311015001CN0200001N1+00611+00471102141ADDGA1021+003309079GA2031+015009069GF108991041051004501071999MD1610111+9999REMSYN082AAXX  11104 03111 42470 82006 10061 20047 40214 56011 8457/ 333 82711 83650 87360;
0108031110999992000011123004+55430-005700FM-12+0013EGQJ V0202401N005719999999N0080001N1+00641+00531101591ADDMD1310131+9999REMSYN082AAXX  11234 03111 46/58 /2411 10064 20053 40159 53013 555 7/096 81/14 84/35 82/61;
0096031110999992000011221004+55430-005700FM-12+0013EGQJ V0202201N003119999999N0140001N1+00121-00051101291ADDMD1510031+9999REMSYN070AAXX  12214 03111 46/64 /2206 10012 21005 40129 55003 555 7/090 80/99;
0100031110999992000011408004+55430-005700FM-12+001399999V0200101N004119999999N0220001N1+00191-00221103221ADDMD1210181+9999REMSYN074    AAXX  14084 03111 46/72 /0108 10019 21022 40322 52018 555 7/090 80/99;
0142031110999992000011413004+55430-005700FM-12+001399999V0200101N004112200019N0600001N1+00411-00351103391ADDGA1011+007509029GF101991011081008001001001MD1210071+9999REMSYN074    AAXX  14134 03111 42586 10108 10041 21035 40339 52007 81800 333 81825;
0108031110999992000012402004+55430-005700FM-12+0013EGQJ V0203301N005719999999N0120001N1+00731+00481102621ADDMD1710131+9999REMSYN082AAXX  24024 03111 46/62 /3311 10073 20048 40262 57013 555 7/098 81/30 85/39 86/57;
0172031110999992000020413004+55430-005700FM-12+0013EGQJ V0202301N00771002101CN0060001N1+01231+01121101931ADDAY161999AY251999GA1031+002709079GF108991081071002501999999MD1110061+9999MW1581REMSYN082AAXX  04134 03111 41356 82315 10123 20112 40193 51006 75865 887// 333 83709 86715;
0123031110999992000020704004+55430-005700FM-12+0013EGQJ V0202301N008219999999N0110001N1+00551+00281100311ADDMD1010001+9999OA140101491REMSYN086AAXX  07044 03111 46/61 /2316 10055 20028 40031 50000 333 90710 91129 555 7/094 84/50;
0178031110999992000020715004+55430-005700FM-12+0013EGQJ V0202501N015410060019N0060001N1+00871+00651098871ADDAY161031AY221031GA1061+006009069GF108991081051008001999999MD1710111+9999MW1601REMSYN088AAXX  07154 03111 41556 82530 10087 20065 49887 57011 76062 885// 333 86620 90710 91143;
0096031110999992000021316004+55430-005700FM-12+0013EGQJ V0202901N005119999999N0140001N1+00711+00251102021ADDMD1210181+9999REMSYN070AAXX  13164 03111 46/64 /2910 10071 20025 40202 52018 555 7/092 82/30;
0239031110999992000022412004+55430-005700FM-12+0013EGQJ V0202301N010310360019N0150001N1+00571+00201101361ADDAA106000191AY181061AY221061GA1031+005409089GA2031+036009039GA3071+075009029GF107991041081004501031081MD1810021+9999MW1151REMSYN106AAXX  24124 03111 11465 72320 10057 20020 40136 58002 69921 71582 84838 333 83818 83362 87275 90710 91129;
0135031110999992000022822004+55430-005700FM-12+0013EGQJ V0202201N009819999999N0160001N1+00481+00181099891ADDMD1710141+9999OA140101491REMSYN098AAXX  28224 03111 46/66 /2219 10048 20018 49989 57014 333 90710 91129 555 7/098 82/18 87/22 83/57;
0194031110999992000031319004+55430-005700FM-12+0013EGQJ V0203301N004610024019N0120001N1+00761+00721102141ADDAY161999AY261999GA1021+001209079GA2031+002409079GF108991081071001501999999MD1310091+9999MW1611REMSYN088AAXX  13194 03111 41262 83309 10076 20072 40214 53009 76166 887// 333 82704 83708 85712;
0096031110999992000031421004+55430-005700FM-12+0013EGQJ V0203101N006719999999N0090001N1+00611+00161103031ADDMD1110241+9999REMSYN070AAXX  14214 03111 46/59 /3113 10061 20016 40303 51024 555 7/094 84/50;
0096031110999992000031522004+55430-005700FM-12+0013EGQJ V0202701N006719999999N0080001N1+00811+00791103351ADDMD1210021+9999REMSYN070AAXX  15224 03111 46/58 /2713 10081 20079 40335 52002 555 7/097 87/02;
0144031110999992000032008004+55430-005700FM-12+0013EGQJ V0202501N00511009001CN0250001N1+00851+00561103021ADDGA1011+005109089GF108991081081004501999999MD1610041+9999REMSYN076AAXX  20084 03111 42475 82510 10085 20056 40302 56004 888// 333 81817 87640;
0144031110999992000032213004+55430-005700FM-12+0013EGQJ V0203201N00361030001CN0450001N1+00711+00021101731ADDGA1011+007509089GF107991041041008001051081MD1810031+9999REMSYN076AAXX  22134 03111 42583 73207 10071 20002 40173 58003 84458 333 81825 85358;
0096031110999992000032717004+55430-005700FM-12+0013EGQJ V0200901N000519999999N0290001N1+00881-00201102501ADDMD1210091+9999REMSYN070AAXX  27174 03111 46/79 /0901 10088 21020 40250 52009 555 7/094 84/40;
0102031110999992000033019004+55430-005700FM-12+0013EGQJ V0202301N002619999999N0120001N1+00741+00611101521ADDMD1710171+9999REMSYN076AAXX  30194 03111 46/62 /2305 10074 20061 40152 57017 555 7/098 85/57 88/59;
0102031110999992000040108004+55430-005700FM-12+0013EGQJ V0201101N002619999999N0050001N1+00541+00401099871ADDMD1210011+9999REMSYN076AAXX  01084 03111 46/50 /1105 10054 20040 49987 52001 555 7/097 85/25 84/29;
0150031110999992000040311004+55430-005700FM-12+0013EGQJ V0200201N009312200019N0600001N1+00421-00651100661ADDGA1031+008109089GF104991031011008001001081MD1710041+9999REMSYN082AAXX  03114 03111 42586 40218 10042 21065 40066 57004 83108 333 83827 90710 91128;
0096031110999992000040923004+55430-005700FM-12+0013EGQJ V0200901N004119999999N0080001N1+00691+00231102281ADDMD1110011+9999REMSYN070AAXX  09234 03111 46/58 /0908 10069 20023 40228 51001 555 7/098 88/41;
0108031110999992000041204004+55430-005700FM-12+0013EGQJ V0200501N004619999999N0160001N1+00451+00231099021ADDMD1210101+9999REMSYN082AAXX  12044 03111 46/66 /0509 10045 20023 49902 52010 555 7/097 86/26 81/57 82/60;
0172031110999992000041213004+55430-005700FM-12+0013EGQJ V0200401N009310084019N0120001N1+00681+00321099401ADDGA1021+004809069GA2071+008409069GF107991071051004501999999MD1110061+9999REMSYN088AAXX  12134 03111 42462 70418 10068 20032 49940 51006 875// 333 82616 87628 90710 91126;
0096031110999992000041616004+55430-005700FM-12+0013EGQJ V0201101N006719999999N0200001N1+01051-00231099481ADDMD1710031+9999REMSYN070AAXX  16164 03111 46/70 /1113 10105 21023 49948 57003 555 7/090 80/99;
0123031110999992000042023004+55430-005700FM-12+0013EGQJ V0201601N010319999999N0080001N1+00841+00711099471ADDMD1110121+9999OA140101491REMSYN086AAXX  20234 03111 46/58 /1620 10084 20071 49947 51012 333 90710 91129 555 7/093 83/09;
0108031110999992000042309004+55430-005700FM-12+0013EGQJ V0201401N006219999999N0100001N1+00971+00831100651ADDMD1210051+9999REMSYN082AAXX  23094 03111 46/60 /1412 10097 20083 40065 52005 555 7/098 82/07 81/11 87/22;
0102031110999992000042523004+55430-005700FM-12+0013EGQJ V0203501N003119999999N0190001N1+00531+00411100871ADDMD1110031+9999REMSYN076AAXX  25234 03111 46/69 /3506 10053 20041 40087 51003 555 7/098 82/28 87/32;
0102031110999992000042704004+55430-005700FM-12+0013EGQJ V0209999C000019999999N0210001N1+00351+00301100371ADDMD1610061+9999REMSYN076AAXX  27044 03111 46/71 /0000 10035 20030 40037 56006 555 7/094 83/24 81/41;
0096031110999992000050223004+55430-005700FM-12+0013EGQJ V0202501N004619999999N0013001N1+00721+00721102921ADDMD1010011+9999REMSYN070AAXX  02234 03111 46/13 /2509 10072 20072 40292 50001 555 7/093 83/00;
0108031110999992000050321004+55430-005700FM-12+0013EGQJ V0209999C000019999999N0007001N1+00631+00611102861ADDMD1410001+9999REMSYN082AAXX  03214 03111 46/07 /0000 10063 20061 40286 54000 555 7/095 82/00 81/35 82/43;
0096031110999992000052203004+55430-005700FM-12+0013EGQJ V0203001N006219999999N0170001N1+00851+00391101121ADDMD1210071+9999REMSYN070AAXX  22034 03111 46/67 /3012 10085 20039 40112 52007 555 7/095 85/50;
0096031110999992000052921004+55430-005700FM-12+0013EGQJ V0202801N003119999999N0190001N1+00851+00611101381ADDMD1210041+9999REMSYN070AAXX  29214 03111 46/69 /2806 10085 20061 40138 52004 555 7/090 80/99;
0129031110999992000060321004+55430-005700FM-12+0013EGQJ V0200801N009819999999N0150001N1+01041+00541101791ADDMD1810051+9999OA140101541REMSYN092AAXX  03214 03111 46/65 /0819 10104 20054 40179 58005 333 90710 91130 555 7/098 84/32 87/38;
0174031110999992000060512004+55430-005700FM-12+0013EGQJ V0201001N00411012001CN0300001N1+01331+00641102101ADDAA199000091GA1021+006609089GF105991051081008001031001MD1610021+9999REMSYN076AAXX  05124 03111 32580 51008 10133 20064 40210 56002 85830 333 82822 84628;EQDQ01  00002PRCP99
0194031110999992000060610004+55430-005700FM-12+0013EGQJ V0202501N004610090019N0040001N1+01101+00981101531ADDAY151999AY221999GA1031+003609079GA2031+009009069GF107991071051004501999999MD1310051+9999MW1531REMSYN088AAXX  06104 03111 41440 72509 10110 20098 40153 53005 75352 875// 333 83712 83630 86638;
0096031110999992000061102004+55430-005700FM-12+0013EGQJ V0202401N008219999999N0150001N1+00901+00711100751ADDMD1210121+9999REMSYN070AAXX  11024 03111 46/65 /2416 10090 20071 40075 52012 555 7/092 82/50;
0090031110999992000062022004+55420-005690FM-12+0013EGQJ V0201501N008219999999N9999999N1+01281+01191100131ADDMD1710081+9999REMSYN064AAXX  20224 03111 46/// /1516 10128 20119 40013 57008 555 79/0/;
0172031110999992000062109004+55420-005690FM-12+0013EGQJ V0202901N00211004201CN0250001N1+01241+01151099701ADDAY161031AY221031GA1011+003609079GF106991061051004501999081MD1310131+9999MW1011REMSYN082AAXX  21094 03111 41475 62904 10124 20115 49970 53013 70162 865/8 333 81712 84635;
0096031110999992000062721004+55420-005690FM-12+0013EGQJ V0209999C000019999999N0100001N1+01401+01081102211ADDMD1710031+9999REMSYN070AAXX  27214 03111 46/60 /0000 10140 20108 40221 57003 555 7/090 80/99;
0133031110999992000070118004+55420-005690FM-12+0013EGQJ V0202801N001519999999N0080001N1+01531+01081100851ADDAA199000091KA1999M+01801MD1710011+9999REMSYN064AAXX  01184 03111 36/58 /2803 10153 20108 40085 57001 333 10180;EQDQ01  00002PRCP99
0096031110999992000070420004+55420-005690FM-12+0013EGQJ V0209999C000019999999N0090001N1+01421+01261101031ADDMD1210051+9999REMSYN070AAXX  04204 03111 46/59 /0000 10142 20126 40103 52005 555 7/097 87/56;
0126031110999992000070600004+55420-005690FM-12+0013EGQJ V0202401N001519999999N0180001N1+01291+01201101721ADDAA199000091MD1210081+9999REMSYN070AAXX  06004 03111 36/68 /2403 10129 20120 40172 52008 555 7/097 87/42;EQDQ01  00002PRCP99
0129031110999992000071001004+55420-005690FM-12+0013EGQJ V0203501N008219999999N0100001N1+01131+01031099521ADDMD1210121+9999OA140101291REMSYN092AAXX  10014 03111 46/60 /3516 10113 20103 49952 52012 333 90710 91125 555 7/097 81/14 86/20;
0096031110999992000071607004+55420-005690FM-12+0013EGQJ V0203201N003119999999N0150001N1+01091+01011102101ADDMD1210021+9999REMSYN070AAXX  16074 03111 46/65 /3206 10109 20101 40210 52002 555 7/090 80/99;
0096031110999992000071819004+55420-005690FM-12+0013EGQJ V0203001N004619999999N0350001N1+01591+01251102171ADDMD1510041+9999REMSYN070AAXX  18194 03111 46/81 /3009 10159 20125 40217 55004 555 7/096 86/50;
0110031110999992000072800004+55420-005690FM-12+0013EGQJ V0201201N003619999999N0070001N1+01331+01221101001ADDAA199000091MD1410001+9999REMSYN054AAXX  28004 03111 36/57 /1207 10133 20122 40100 54000;EQDQ01  00002PRCP99
0150031110999992000080615004+55420-005690FM-12+0013EGQJ V0202801N005710003019N0003001N1+01451+01451102521ADDAY141031AY221031GA1091+999999999GF109991091999999999999999MD1110041+9999MW1471REMSYN060AAXX  06154 03111 41/03 92811 10145 20145 40252 51004 74742;
0096031110999992000081214004+55420-005690FM-12+0013EGQJ V0209999C000019999999N0160001N1+01611+01441100911ADDMD1310111+9999REMSYN070AAXX  12144 03111 46/66 /0000 10161 20144 40091 53011 555 7/097 87/31;
0108031110999992000081313004+55420-005690FM-12+0013EGQJ V0203201N001519999999N0130001N1+01751+01491101131ADDMD1110051+9999REMSYN082AAXX  13134 03111 46/63 /3203 10175 20149 40113 51005 555 7/094 81/12 81/16 83/57;
0102031110999992000081503004+55420-005690FM-12+0013EGQJ V0201101N002119999999N0170001N1+01111+00991101371ADDMD1710051+9999REMSYN076AAXX  15034 03111 46/67 /1104 10111 20099 40137 57005 555 7/095 83/57 83/63;
0120031110999992000081518004+55420-005690FM-12+0013EGQJ V0203301N003119999999N0150001N1+01241+01111101111ADDAA112004191KA1999M+01741MD1710101+9999REMSYN070AAXX  15184 03111 16/65 /3306 10124 20111 40111 57010 60042 333 10174;
0096031110999992000082105004+55420-005690FM-12+0013EGQJ V0200801N002619999999N0100001N1+00931+00811101201ADDMD1710041+9999REMSYN070AAXX  21054 03111 46/60 /0805 10093 20081 40120 57004 555 7/091 81/60;
0144031110999992000082308004+55420-005690FM-12+0013EGQJ V0201201N00211220001CN0200001N1+01441+01241102591ADDGA1041+003609069GF106991041051004501001011MD1210101+9999REMSYN076AAXX  23084 03111 42470 61204 10144 20124 40259 52010 84501 333 84612 83080;
0120031110999992000090618004+55420-005690FM-12+0013EGQJ V0202901N007719999999N0100001N1+01391+00901100961ADDAA112000791KA1999M+01621MD1210061+9999REMSYN070AAXX  06184 03111 16/60 /2915 10139 20090 40096 52006 69902 333 10162;
0080031110999992000090807004+55420-005690FM-12+0013EGQJ V0202301N006719999999N0130001N1+01321+00951101061ADDMD1210091+9999REMSYN054AAXX  08074 03111 46/63 /2313 10132 20095 40106 52009;
