0175428670999992000011012004+21100+079050FM-12+0310VANP V0209999C000012200019N0040001N1+02721+01421100951ADDAA106000091GA1001+999999999GF100991001001999999001001KA1120M+03061MD1999999-0041REMSYN064AAXX  10124 42867 32996 00000 10272 20142 40095 333 10306 59004;EQDQ01  00002PRCP06
0156428670999992000012518004+21100+079050FM-12+0310VANP V0209999C000012200019N0040001N1+01761+01051101641ADDAA199000091GA1001+999999999GF100991001001999999001001MD1999999-0051REMSYN058AAXX  25184 42867 32996 00000 10176 20105 40164 333 59005;EQDQ01  00002PRCP99
0203428670999992000012603004+21100+079050FM-12+0310VANP V0209999C000012200019N0020001N1+01761+01181101881ADDAA199000091AY101031AY201031GA1001+999999999GF100991001001999999001001KA1120N+01361MD1999999+0011MW1051REMSYN070AAXX  26034 42867 31995 00000 10176 20118 40188 70500 333 20136 58001;EQDQ01  00002PRCP99
0184428670999992000012703004+21100+079050FM-12+0310VANP V0209999C000012200019N0020001N1+01961+01211101661ADDAA199000091AY101031AY201031GA1001+999999999GF100991001001999999001001MD1999999-0181MW1051REMSYN064AAXX  27034 42867 31995 00000 10196 20121 40166 70500 333 59018;EQDQ01  00002PRCP99
0156428670999992000020221004+21100+079050FM-12+0310VANP V0203201N002612200019N0040001N1+01981+00971100981ADDAA199000091GA1001+999999999GF100991001001999999001001MD1999999-0121REMSYN058AAXX  02214 42867 32996 03205 10198 20097 40098 333 59012;EQDQ01  00002PRCP99
0221428670999992000021103004+21100+079050FM-12+0310VANP V0209999C000012200019N0040001N1+02041+01341101041ADDAA199000091AY121031AY221031GA1021+007509069GF104991021051008001031001KA1120N+01881MD1999999-0311MW1051REMSYN088AAXX  11034 42867 32596 40000 10204 20134 40104 70522 82530 333 20188 59031 82625 83360;EQDQ01  00002PRCP99
0168428670999992000022618004+21100+079050FM-12+0310VANP V0209999C000012200019N0040001N1+01961+01521101141ADDAA199000091GA1031+030009079GF103991031001999999031001MD1999999-0061REMSYN070AAXX  26184 42867 32996 30000 10196 20152 40114 83030 333 59006 83360;EQDQ01  00002PRCP99
0156428670999992000030806004+21100+079050FM-12+0310VANP V0209999C000012200019N0040001N1+03061+00511101041ADDAA199000091GA1001+999999999GF100991001001999999001001MD1999999+0121REMSYN058AAXX  08064 42867 32996 00000 10306 20051 40104 333 58012;EQDQ01  00002PRCP99
0193428670999992000032212004+21100+079050FM-12+0310VANP V0201801N005112200019N0040001N1+03601+01201100391ADDAA199000091GA1021+009009089GF103991031091008001001001KA1120M+03761MD1999999-0091REMSYN082AAXX  22124 42867 32596 31810 10360 20120 40039 83900 333 10376 59009 82830 81930;EQDQ01  00002PRCP99
0175428670999992000041212004+21100+079050FM-12+0310VANP V0200201N003112200019N0100001N1+04001+00871100021ADDAA199000091GA1001+999999999GF100991001001999999001001KA1120M+04261MD1999999-0041REMSYN064AAXX  12124 42867 32997 00206 10400 20087 40002 333 10426 59004;EQDQ01  00002PRCP99
0174428670999992000042309004+21100+079050FM-12+0310VANP V0203401N005112200019N0100001N1+04041+00891100101ADDAA199000091GA1021+006009069GF104991041081008001001001MD1999999-0061REMSYN076AAXX  23094 42867 32597 43410 10404 20089 40010 84800 333 59006 82620 83825;EQDQ01  00002PRCP99
0175428670999992000042703004+21100+079050FM-12+0310VANP V0203201N010812200019N0040001N1+03521+01321100231ADDAA199000091GA1001+999999999GF100991001001999999001001KA1120N+03041MD1999999+0051REMSYN064AAXX  27034 42867 32996 03221 10352 20132 40023 333 20304 58005;EQDQ01  00002PRCP99
0156428670999992000051421004+21100+079050FM-12+0310VANP V0203201N002612200019N0040001N1+03161+01471100251ADDAA199000091GA1001+999999999GF100991001001999999001001MD1999999-0101REMSYN058AAXX  14214 42867 32996 03205 10316 20147 40025 333 59010;EQDQ01  00002PRCP99
0193428670999992000062412004+21090+079500FM-12+0310VANP V0202001N003112200019N0040001N1+03461+02141099831ADDAA199000091GA1031+006009069GF104991041041008001001001KA1120M+03561MD1999999-0261REMSYN082AAXX  24124 42867 32596 42006 10346 20214 49983 84400 333 10356 59026 83620 83830;EQDQ01  00002PRCP99
0174428670999992000062600004+21090+079500FM-12+0310VANP V0202701N005112200019N0040001N1+02641+01961100081ADDAA199000091GA1011+007509069GF103991011051008001001011MD1999999-0021REMSYN076AAXX  26004 42867 32596 32710 10264 20196 40008 81501 333 59002 81625 83075;EQDQ01  00002PRCP99
0263428670999992000071203004+21090+079500FM-12+0310VANP V0202001N002610030019N0010001N1+02461+02431099581ADDAA100070192AA224070092AY161031AY261031GA1041+001509079GA2051+003009079GA3011+009009099GF108991061091001501021999KA1120N+02381MD1999999-0211MW1621REMSYN106AAXX  12034 42867 21294 82005 10246 20243 49958 76266 8692/ 333 20238 59021 6070/ 84705 85710 81930 88458;
0174428670999992000072215004+21090+079500FM-12+0310VANP V0209999C00001036001CN0040001N1+02641+02321100541ADDAA199000091GA1031+006009069GF105991031051008001031001MD1999999+0041REMSYN076AAXX  22154 42867 32596 50000 10264 20232 40054 83530 333 58004 83620 83360;EQDQ01  00002PRCP99
0244428670999992000080815004+21090+079500FM-12+0310VANP V0202001N002610060019N0020001N1+02521+02431100351ADDAA100004192AA212004092AY191031AY261031GA1031+004509069GA2031+006009069GA3011+009009099GF108991061091004501021999MD1999999-0011MW1601REMSYN100AAXX  08154 42867 21495 82005 10252 20243 40035 76096 8692/ 333 59001 6004/ 83615 83620 81930 86458;
0174428670999992000081321004+21090+079500FM-12+0310VANP V0209999C00001036001CN0040001N1+02601+02461100661ADDAA199000091GA1031+006009069GF106991031051008001031001MD1999999+0291REMSYN076AAXX  13214 42867 32596 60000 10260 20246 40066 83530 333 58029 83620 85360;EQDQ01  00002PRCP99
0174428670999992000091309004+21090+079500FM-12+0310VANP V0203201N001512200019N0040001N1+03301+02191100431ADDAA199000091GA1011+007509069GF103991031081008001001001MD1999999+0041REMSYN076AAXX  13094 42867 32596 33203 10330 20219 40043 83800 333 58004 81625 83830;EQDQ01  00002PRCP99
0174428670999992000092600004+21090+079500FM-12+0310VANP V0202901N00101036001CN0040001N1+02221+02101100871ADDAA199000091GA1021+006009069GF105991021051008001031001MD1999999-0061REMSYN076AAXX  26004 42867 32596 52902 10222 20210 40087 82530 333 59006 82620 84360;EQDQ01  00002PRCP99
0244428670999992000101215004+21090+079500FM-12+0310VANP V0202701N002610045019N0020001N1+02361+02241100821ADDAA100005192AA212005092AY191031AY261031GA1031+003009079GA2041+004509069GA3011+009009099GF108991061091004501021999MD1999999+0041MW1601REMSYN100AAXX  12154 42867 21495 82705 10236 20224 40082 76096 8692/ 333 58004 6005/ 83710 84615 81930 88458;
0202428670999992000102418004+21090+079500FM-12+0310VANP V0209999C000012200019N0040001N1+02281+01841101011ADDAA199000091AY121061AY211061GA1021+007509069GF104991021051008001031001MD1999999+0191MW1051REMSYN082AAXX  24184 42867 31596 40000 10228 20184 40101 70521 82530 333 58019 82625 83360;EQDQ01  00002PRCP99
0156428670999992000102700004+21090+079500FM-12+0310VANP V0209999C000012200019N0040001N1+01621+01341101051ADDAA199000091GA1001+999999999GF100991001001999999001001MD1999999-0071REMSYN058AAXX  27004 42867 32996 00000 10162 20134 40105 333 59007;EQDQ01  00002PRCP99
0168428670999992000110800004+21090+079500FM-12+0310VANP V0209999C000012200019N0040001N1+01481+01341101421ADDAA199000091GA1021+075009019GF102991001001999999001011MD1999999+0191REMSYN070AAXX  08004 42867 32996 20000 10148 20134 40142 80001 333 58019 82075;EQDQ01  00002PRCP99
0197428670999992000110812004+21090+079500FM-12+0310VANP V0209999C000012200019N0040001N1+02641+01561999999ADDAA199000091GA1021+030009079GF103991999999999999999999KA1120M+03321MD1999999+0111REMSYN070AAXX  08124 42867 32996 30000 10264 20156 40014 333 10332 58011 82360;EQDQ01+100143APOSLPQ02  00002PRCP99
0156428670999992000112809004+21090+079500FM-12+0310VANP V0201101N001012200019N0040001N1+03081+01351100921ADDAA199000091GA1001+999999999GF100991001001999999001001MD1999999-0061REMSYN058AAXX  28094 42867 32996 01102 10308 20135 40092 333 59006;EQDQ01  00002PRCP99
0202428670999992000113003004+21090+079500FM-12+0310VANP V0203601N001012200019N0020001N1+02101+01291101561ADDAA199000091AY101031AY201031GA1031+075009019GF103991001001999999001011MD1999999+0191MW1051REMSYN082AAXX  30034 42867 31995 33602 10210 20129 40156 70500 80001 333 52016 58019 83075;EQDQ01  00002PRCP99
0196428670999992000113006004+21090+079500FM-12+0310VANP V0200201N002112200019N0020001N1+02841+01451101391ADDAA199000091AY101061AY201061GA1011+075009019GF101991001001999999001011MD1999999+0131MW1051REMSYN076AAXX  30064 42867 31995 10204 10284 20145 40139 70500 80001 333 58013 81075;EQDQ01  00002PRCP99
0187428670999992000120612004+21090+079500FM-12+0310VANP V0200801N002612200019N0040001N1+02581+01001101241ADDAA199000091GA1021+075009019GF102991001001999999001011KA1120M+03221MD1999999+0061REMSYN076AAXX  06124 42867 32996 20805 10258 20100 40124 80001 333 10322 58006 82075;EQDQ01  00002PRCP99
0187428670999992000121912004+21090+079500FM-12+0310VANP V0201101N001512200019N0040001N1+02701+00981101101ADDAA199000091GA1011+075009019GF101991001001999999001011KA1120M+03211MD1999999-0141REMSYN076AAXX  19124 42867 32996 11103 10270 20098 40110 80001 333 10321 59014 81075;EQDQ01  00002PRCP99
0156428670999992000122818004+21090+079500FM-12+0310VANP V0209999C000012200019N0040001N1+01681+00911101541ADDAA199000091GA1001+999999999GF100991001001999999001001MD1999999+0001REMSYN058AAXX  28184 42867 32996 00000 10168 20091 40154 333 58000;EQDQ01  00002PRCP99
0215428670999992000123103004+21090+079500FM-12+0310VANP V0200201N001012200019N0040001N1+02101+00531101431ADDAA199000091AY101031AY201031GA1021+030009079GF102991021001999999031001KA1120N+01681MD1999999-0151MW1051REMSYN082AAXX  31034 42867 31996 20202 10210 20053 40143 70500 82030 333 20168 59015 82360;EQDQ01  00002PRCP99
0156428740999992000021600004+21220+081670FM-12+029899999V0209999C000012200019N0040001N1+01801+01301101161ADDAA199000091GA1001+999999999GF100991001001999999001001MD1999999-0171REMSYN058AAXX  16004 42874 32996 00000 10180 20130 40116 333 59017;EQDQ01  00002PRCP99
0156428740999992000030200004+21220+081670FM-12+029899999V0201801N000512200019N0040001N1+01881+01511100731ADDAA199000091GA1001+999999999GF100991001001999999001001MD1999999-0211REMSYN058AAXX  02004 42874 32996 01801 10188 20151 40073 333 59021;EQDQ01  00002PRCP99
0156428740999992000032509004+21220+081670FM-12+029899999V0200901N001012200019N0040001N1+03351+01511100921ADDAA199000091GA1001+999999999GF100991001001999999001001MD1999999-0021REMSYN058AAXX  25094 42874 32996 00902 10335 20151 40092 333 59002;EQDQ01  00002PRCP99
0175428740999992000032903004+21220+081670FM-12+029899999V0200501N001512200019N0040001N1+02641+01361101201ADDAA199000091GA1001+999999999GF100991001001999999001001KA1120N+02271MD1999999-0011REMSYN064AAXX  29034 42874 32996 00503 10264 20136 40120 333 20227 59001;EQDQ01  00002PRCP99
0156428740999992000040418004+21220+081670FM-12+029899999V0201801N000512200019N0040001N1+02901+01951100391ADDAA199000091GA1001+999999999GF100991001001999999001001MD1999999-0031REMSYN058AAXX  04184 42874 32996 01801 10290 20195 40039 333 59003;EQDQ01  00002PRCP99
0168428740999992000051309004+21220+081670FM-12+029899999V0202901N002112200019N0040001N1+04101+01721099961ADDAA199000091GA1031+009009029GF103991031011008001001001MD1999999-0031REMSYN070AAXX  13094 42874 32596 32904 10410 20172 49996 83100 333 59003 83830;EQDQ01  00002PRCP99
0174428740999992000060309004+21220+081670FM-12+029899999V0202701N00211220001CN0040001N1+03881+02091099601ADDAA199000091GA1011+009009089GF106991011041008001001011MD1999999+0011REMSYN076AAXX  03094 42874 32596 62704 10388 20209 49960 81401 333 58001 81830 86075;EQDQ01  00002PRCP99
0168428740999992000061009004+21220+081670FM-12+029899999V0202701N002112200019N0040001N1+03681+02271099791ADDAA199000091GA1031+009009029GF104991031021008001001011MD1999999-0131REMSYN070AAXX  10094 42874 32596 42704 10368 20227 49979 83201 333 59013 83830;EQDQ01  00002PRCP99
0222428740999992000062200004+21220+081670FM-12+029899999V0202301N00101036001CN0040001N1+02501+02351100001ADDAA100005192AA221005092AY151061AY221061GA1031+007509069GA2041+009009089GF107991041041008001031021MD1999999+0141MW1021REMSYN094AAXX  22004 42874 21596 72302 10250 20235 40000 70252 84432 333 58014 6005/ 83625 84830 86360;
0219428740999992000062303004+21220+081670FM-12+029899999V0202301N00151036001CN0040001N1+02661+02281100281ADDAA100000791AA224999929AY151031AY221031GA1041+006009069GF108991041051008001011999KA1120N+02551MD1999999+0191MW1501REMSYN094AAXX  23034 42874 21596 82303 10266 20228 40028 75052 8451/ 333 20255 58019 6990/ 84620 88458;
0215428740999992000081412004+21220+081670FM-12+029899999V0202701N00151036001CN0040001N1+02981+02471100151ADDAA199000091GA1021+007509069GA2041+009009089GF107991041041008001031011KA1120M+03171MD1999999-0151REMSYN088AAXX  14124 42874 32596 72703 10298 20247 40015 84431 333 10317 59015 82625 84830 86075;EQDQ01  00002PRCP99
0191428740999992000091603004+21220+081670FM-12+029899999V0202301N00261090001CN0040001N1+02641+02441100471ADDAA100023192AA224023092GA1021+007509069GF105991021051008001031011KA1120N+02391MD1999999+0081REMSYN088AAXX  16034 42874 22596 52305 10264 20244 40047 82531 333 20239 58008 6023/ 82625 83360;
0156428740999992000110218004+21220+081670FM-12+029899999V0200901N001012200019N0040001N1+02201+01531101321ADDAA199000091GA1001+999999999GF100991001001999999001001MD1999999+0141REMSYN058AAXX  02184 42874 32996 00902 10220 20153 40132 333 58014;EQDQ01  00002PRCP99
0175428740999992000111712004+21220+081670FM-12+029899999V0200501N001012200019N0040001N1+02821+01511100991ADDAA199000091GA1001+999999999GF100991001001999999001001KA1120M+03101MD1999999-0091REMSYN064AAXX  17124 42874 32996 00502 10282 20151 40099 333 10310 59009;EQDQ01  00002PRCP99
0156428740999992000112100004+21220+081670FM-12+029899999V0209999C000012200019N0040001N1+01701+01381101121ADDAA199000091GA1001+999999999GF100991001001999999001001MD1999999+0041REMSYN058AAXX  21004 42874 32996 00000 10170 20138 40112 333 58004;EQDQ01  00002PRCP99
0215428740999992000120103004+21220+081670FM-12+029899999V0200501N002112200019N0040001N1+02041+01091101571ADDAA199000091AY101031AY201031GA1011+075009019GF101991001001999999001011KA1120N+01761MD1999999+0121MW1051REMSYN082AAXX  01034 42874 31996 10504 10204 20109 40157 70500 80001 333 20176 58012 81075;EQDQ01  00002PRCP99
0213428740999992000121003004+21220+081670FM-12+029899999V0201801N001012200019N0040001N1+01721+00771101611ADDAA199000091AY101031AY201031GA1001+999999999GF100991001001999999001001KA1120N+01081MD1999999-0021MW1051REMSYN080AAXX  10034 42874 31996 01802 10172 20077 40161 70500 333 20108 59002 555 10000;EQDQ01  00002PRCP99
0156428740999992000121115004+21220+081670FM-12+029899999V0202301N001012200019N0040001N1+02121+00781101381ADDAA199000091GA1001+999999999GF100991001001999999001001MD1999999+0011REMSYN058AAXX  11154 42874 32996 02302 10212 20078 40138 333 58001;EQDQ01  00002PRCP99
0156428740999992000122418004+21220+081670FM-12+029899999V0209999C000012200019N0040001N1+01641+00511101431ADDAA199000091GA1001+999999999GF100991001001999999001001MD1999999-0051REMSYN058AAXX  24184 42874 32996 00000 10164 20051 40143 333 59005;EQDQ01  00002PRCP99
0160428860999992000011906004+21920+084080FM-12+023099999V0202301N001012200019N0040001N1+02481+00681101511ADDAA199000091GA1001+999999999GF100991001001999999001001MD1999999-0301REMSYN062    AAXX  19064 42886 32996 02302 10248 20068 40151 333 59030;EQDQ01  00002PRCP99
0156428860999992000020221004+21920+084080FM-12+0230VEJH V0209999C000012200019N0040001N1+02001+01641101391ADDAA199000091GA1001+999999999GF100991001001999999001001MD1999999+0201REMSYN058AAXX  02214 42886 32996 00000 10200 20164 40139 333 58020;EQDQ01  00002PRCP99
0184428860999992000031206004+21920+084080FM-12+0230VEJH V0202301N002612200019N0040001N1+03241+00731100641ADDAA199000091AY101061AY201061GA1001+999999999GF100991001001999999001001MD1999999-0271MW1051REMSYN064AAXX  12064 42886 31996 02305 10324 20073 40064 70500 333 59027;EQDQ01  00002PRCP99
0168428860999992000042821004+21920+084080FM-12+0230VEJH V0200901N000512200019N0040001N1+03021+02291100081ADDAA199000091GA1011+006009059GF101991011051008001001001MD1999999-0011REMSYN070AAXX  28214 42886 32596 10901 10302 20229 40008 81500 333 59001 81620;EQDQ01  00002PRCP99
0156428860999992000051215004+21920+084080FM-12+0230VEJH V0209999C000012200019N0040001N1+03541+02091100131ADDAA199000091GA1001+999999999GF100991001001999999001001MD1999999-0101REMSYN058AAXX  12154 42886 32996 00000 10354 20209 40013 333 59010;EQDQ01  00002PRCP99
0191428860999992000061403004+21920+084800FM-12+0230VEJH V0201801N00101090001CN0040001N1+02801+02431100241ADDAA100000591AA224000591GA1011+006009069GF105991011051008001031011KA1120N+02641MD1999999+0081REMSYN088AAXX  14034 42886 22596 51802 10280 20243 40024 81531 333 20264 58008 6995/ 81620 85360;
0264428860999992000062812004+21920+084800FM-12+0230VEJH V0200901N00101004501CN0040001N1+02661+02491099931ADDAA109015091AY191061AY261061GA1011+003009079GA2051+004509069GA3011+009009099GF108991061091004501021999KA1120M+03421MD1999999+0081MW1951REMSYN118AAXX  28124 42886 21496 80902 10266 20249 49993 79596 8692/ 333 10342 5629/ 57990 58008 6015/ 81710 85615 81930 87458;
0172428860999992000070821004+21920+084800FM-12+0230VEJH V0202301N001512200019N0040001N1+02661+02461099841ADDAA100000591AA218000691GA1021+005409069GF104991021051004501031001MD1999999-0141REMSYN082AAXX  08214 42886 22496 42303 10266 20246 49984 82530 333 59014 6996/ 82618 83360;
0247428860999992000082715004+21920+084070FM-12+0230VEJH V0209999C000012200019N0040001N1+02741+02541999999ADDAA100000892AA212000792AY111031AY211031GA1021+006009069GA2011+009009099GF104991031999008001031001MD1999999-0211MW1131REMSYN100AAXX  27154 42886 21596 40000 10274 20254 4//// 71311 83030 333 57942 59021 6997/ 82620 81930 83360;EQDQ01+000002SCOLCG
0211428860999992000091515004+21920+084070FM-12+0230VEJH V0201401N001010090019N0040001N1+02801+02521100341ADDAA199000021AY191031AY221031GA1041+004509069GA2011+009009099GF108991051091004501021999MD1999999-0041MW1171REMSYN094AAXX  15154 42886 31496 81402 10280 20252 40034 71792 8592/ 333 57972 59004 84615 81930 87458;
0230428860999992000092109004+21920+084070FM-12+0230VEJH V0201801N002110075019N0040001N1+03161+02511100521ADDAA199000091AY121031AY221031GA1021+006009069GA2031+007509089GF106991051091008001001011MD1999999+0131MW1171REMSYN094AAXX  21094 42886 31596 61804 10316 20251 40052 71722 85901 333 57952 58013 82620 83825 81930;EQDQ01  00002PRCP99
0168428860999992000092809004+21920+084070FM-12+0230VEJH V0202701N001012200019N0040001N1+03361+02451100551ADDAA199000091GA1021+006009059GF102991021051008001001001MD1999999-0121REMSYN070AAXX  28094 42886 32596 22702 10336 20245 40055 82500 333 59012 82620;EQDQ01  00002PRCP99
0184428860999992000100500004+21920+084070FM-12+0230VEJH V0209999C000012200019N0040001N1+02501+02351100961ADDAA199000091GA1031+006009059GF199999021001999999031001MD1999999+0081REMSYN070AAXX  05004 42886 32996 20000 10250 20235 40096 82030 333 58008 83620;EQDQ01+000022SCOTCVQ02  00002PRCP99
0175428860999992000102312004+21920+084070FM-12+0230VEJH V0209999C000012200019N0040001N1+03021+02021100521ADDAA199000091GA1001+999999999GF100991001001999999001001KA1120M+03541MD1999999+0061REMSYN064AAXX  23124 42886 32996 00000 10302 20202 40052 333 10354 58006;EQDQ01  00002PRCP99
0156428860999992000111615004+21920+084070FM-12+0230VEJH V0209999C000012200019N0040001N1+02161+01031101391ADDAA199000091GA1001+999999999GF100991001001999999001001MD1999999-0051REMSYN058AAXX  16154 42886 32996 00000 10216 20103 40139 333 59005;EQDQ01  00002PRCP99
0238428950999992000012312004+21520+086930FM-12+002099999V0200201N00311036001CN0040001N1+02341+02131101061ADDAA100002091AA209002091AY161061AY221061GA1041+006009069GF106991041051008001031001KA1120M+02831MD1999999-0011MW1221REMSYN094AAXX  23124 42895 21596 60206 10234 20213 40106 72262 84530 333 10283 59001 6002/ 84620 84360;EQDQ01+000002PRSWM1
0156428950999992000030715004+21520+086930FM-12+002099999V0201801N002112200019N0040001N1+02641+02351100811ADDAA199000091GA1001+999999999GF100991001001999999001001MD1999999-0121REMSYN058AAXX  07154 42895 32996 01804 10264 20235 40081 333 59012;EQDQ01  00002PRCP99
0156428950999992000040118004+21520+086930FM-12+002099999V0202301N005112200019N0040001N1+02681+02301100581ADDAA199000091GA1001+999999999GF100991001001999999001001MD1999999-0191REMSYN058AAXX  01184 42895 32996 02310 10268 20230 40058 333 59019;EQDQ01  00002PRCP99
0202428950999992000042109004+21520+086930FM-12+002099999V0201401N003110060019N0040001N1+03201+02641100361ADDAA199000091GA1051+006009069GA2011+009009099GF107991061031008001031001MD1999999+0171REMSYN088AAXX  21094 42895 32596 71406 10320 20264 40036 86330 333 57960 58017 85620 81930 85360;EQDQ01  00002PRCP99
0180428950999992000042506004+21520+086930FM-12+002099999V0201401N00261007501CN0040001N1+03321+02601100221ADDAA199000091GA1041+005409069GF106991051041008001031001MD1999999-0151REMSYN082AAXX  25064 42895 32596 61405 10332 20260 40022 85430 333 56590 59015 84618 86360;EQDQ01  00002PRCP99
0180428950999992000050200004+21520+086930FM-12+002099999V0202001N002610054019N0040001N1+02881+02541100341ADDAA199000091GA1061+005409069GF107991061051008001031001MD1999999+0021REMSYN082AAXX  02004 42895 32596 72005 10288 20254 40034 86530 333 56590 58002 86618 87360;EQDQ01  00002PRCP99
0191428950999992000062703004+21510+086930FM-12+002099999V0200901N00101036001CN0040001N1+02901+02411100201ADDAA100014091AA224014091GA1021+006009069GF107991021051008001031001KA1120N+02351MD1999999+0051REMSYN088AAXX  27034 42895 22596 70902 10290 20241 40020 82530 333 20235 58005 6014/ 82620 87360;
0180428950999992000070803004+21510+086930FM-12+002099999V0203601N002110060019N0040001N1+02961+02541099931ADDAA199000091GA1051+006009069GF107991051051008001031001MD1999999-0181REMSYN082AAXX  08034 42895 32596 73604 10296 20254 49993 85530 333 2076/ 59018 85620 87360;EQDQ01  00002PRCP99
0228428950999992000071121004+21510+086930FM-12+002099999V0203601N003110054019N0040001N1+02741+02601099241ADDAA100021192AA218021092AY161031AY261031GA1061+005409069GA2011+009009099GF108991061031004501021999MD1999999-0191MW1601REMSYN100AAXX  11214 42895 21496 83606 10274 20260 49924 76066 8632/ 333 57990 59019 6021/ 86618 81930 88458;
0155428950999992000071409004+21510+086930FM-12+002099999V0202301N002110060019N0040001N1+03061+02551099951ADDAA199000021GA1051+006009069GF107991051051008001031001MD1999999+0291REMSYN076AAXX  14094 42895 32596 72304 10306 20255 49995 85530 333 58029 85620 86360;
0219428950999992000071703004+21510+086930FM-12+002099999V0202301N000510054019N0040001N1+02781+02581099541ADDAA100050091AA224050091AY161031AY221031GA1051+005409069GF107991051051008001031001KA1120N+02561MD1999999-0161MW1211REMSYN094AAXX  17034 42895 21596 72301 10278 20258 49954 72162 85530 333 20256 59016 6050/ 85618 87360;
0206428950999992000080909004+21510+086930FM-12+002099999V0201401N003110054019N0040001N1+02861+02691099861ADDAA100007991AA206008091AY161031AY221031GA1051+005409069GF107991061021004501031001MD1999999-0041MW1211REMSYN094AAXX  09094 42895 21496 71406 10286 20269 49986 72162 86230 333 57932 59004 6008/ 85618 87360;
0149428950999992000082309004+21510+086930FM-12+002099999V0201801N002110060019N0040001N1+03181+02471100121ADDAA199000021GA1051+006009059GF106991061021008001001001MD1999999+0121REMSYN070AAXX  23094 42895 32596 61804 10318 20247 40012 86200 333 58012 85620;
0222428950999992000091515004+21510+086930FM-12+002099999V0201401N001510060019N0040001N1+02741+02451100461ADDAA100000591AA212000591AY161031AY221031GA1051+006009069GA2011+009009099GF107991051031008001031001MD1999999+0121MW1021REMSYN094AAXX  15154 42895 21596 71403 10274 20245 40046 70262 85330 333 58012 6995/ 85620 81930 87360;
0194428950999992000092115004+21510+086930FM-12+002099999V0201401N001512200019N0040001N1+02681+02571100961ADDAA100003091AA212003091AY121031AY211031GA1011+006009059GF102991011051008001001011MD1999999+0161MW1051REMSYN082AAXX  21154 42895 21596 21403 10268 20257 40096 70521 81501 333 58016 6003/ 81620;
0172428950999992000092618004+21510+086930FM-12+002099999V0202301N00211036001CN0040001N1+02601+02341100891ADDAA100001092AA215000992GA1021+006009069GF106991021051008001031001MD1999999+0091REMSYN082AAXX  26184 42895 22596 62304 10260 20234 40089 82530 333 58009 6999/ 82620 85360;
0166428950999992000092700004+21510+086930FM-12+002099999V0209999C000012200019N0040001N1+02541+02331100801ADDAA100001092AA221000992GA1031+030009079GF103991031001999999031001MD1999999+0011REMSYN076AAXX  27004 42895 22996 30000 10254 20233 40080 83030 333 58001 6999/ 83360;
0187428950999992000092712004+21510+086930FM-12+002099999V0201401N000510750019N0040001N1+03021+02571100591ADDAA199000091GA1051+075009019GF105991001001999999001011KA1120M+03351MD1999999-0151REMSYN076AAXX  27124 42895 32996 51401 10302 20257 40059 80001 333 10335 59015 85075;EQDQ01  00002PRCP99
0168428950999992000092809004+21510+086930FM-12+002099999V0209999C000012200019N0040001N1+03401+02371100521ADDAA199000091GA1021+006009059GF103991031021008001001001MD1999999-0131REMSYN070AAXX  28094 42895 32596 30000 10340 20237 40052 83200 333 59013 82620;EQDQ01  00002PRCP99
0156428950999992000093021004+21510+086930FM-12+002099999V0203201N002112200019N0040001N1+02681+02421100601ADDAA199000091GA1001+999999999GF100991001001999999001001MD1999999-0031REMSYN058AAXX  30214 42895 32996 03204 10268 20242 40060 333 59003;EQDQ01  00002PRCP99
0156428950999992000100121004+21510+086930FM-12+002099999V0203201N001512200019N0040001N1+02681+02421100671ADDAA199000091GA1001+999999999GF100991001001999999001001MD1999999+0071REMSYN058AAXX  01214 42895 32996 03203 10268 20242 40067 333 58007;EQDQ01  00002PRCP99
0202428950999992000100209004+21510+086930FM-12+002099999V0209999C000010060019N0040001N1+03081+02511100611ADDAA199000091GA1051+006009069GA2011+009009099GF107991051031008001031001MD1999999+0171REMSYN088AAXX  02094 42895 32596 70000 10308 20251 40061 85330 333 57960 58017 85620 81930 86360;EQDQ01  00002PRCP99
0143428950999992000100218004+21510+086930FM-12+002099999V0209999C000012200019N0040001N1+02661+02461100821ADDAA100006191GA1001+999999999GF100991001001999999001001MD1999999+0061REMSYN064AAXX  02184 42895 22996 00000 10266 20246 40082 333 58006 6006/;
0185428950999992000100303004+21510+086930FM-12+002099999V0203201N001512200019N0040001N1+02961+02451100981ADDAA100006192AA224006092GA1011+075009019GF101991001001999999001011KA1120N+02501MD1999999+0061REMSYN082AAXX  03034 42895 22996 13203 10296 20245 40098 80001 333 20250 58006 6006/ 81075;
0219428950999992000102712004+21510+086930FM-12+002099999V0200501N00511036001CN0040001N1+02401+01931100481ADDAA100009991AA209010091AY161061AY221061GA1031+006009069GF107991031051008001031001KA1120M+02611MD1999999-0231MW1021REMSYN094AAXX  27124 42895 21596 70510 10240 20193 40048 70262 83530 333 10261 59023 6010/ 83620 87360;
0156428950999992000112409004+21510+086930FM-12+002099999V0203201N002112200019N0040001N1+03081+01611101051ADDAA199000091GA1001+999999999GF100991001001999999001001MD1999999-0271REMSYN058AAXX  24094 42895 32996 03204 10308 20161 40105 333 59027;EQDQ01  00002PRCP99
0175428950999992000112603004+21510+086930FM-12+002099999V0203201N002612200019N0040001N1+02241+01501101531ADDAA199000091GA1001+999999999GF100991001001999999001001KA1120N+01801MD1999999+0041REMSYN064AAXX  26034 42895 32996 03205 10224 20150 40153 333 20180 58004;EQDQ01  00002PRCP99
0156428950999992000121218004+21510+086930FM-12+002099999V0203201N001512200019N0040001N1+01921+01651101511ADDAA199000091GA1001+999999999GF100991001001999999001001MD1999999+0151REMSYN058AAXX  12184 42895 32996 03203 10192 20165 40151 333 58015;EQDQ01  00002PRCP99
0156429090999992000010200004+20900+070370FM-12+000899999V0200201N001512200019N0040001N1+01901+00961101171ADDAA106000091GA1001+999999999GF100991001001999999001001MD1999999+0011REMSYN058AAXX  02004 42909 32996 00203 10190 20096 40117 333 58001;EQDQ01  00002PRCP06
0156429090999992000032715004+20900+070370FM-12+000899999V0203201N003112200019N0040001N1+02781+02221101001ADDAA199000091GA1001+999999999GF100991001001999999001001MD1999999-0071REMSYN058AAXX  27154 42909 32996 03206 10278 20222 40100 333 59007;EQDQ01  00002PRCP99
0181429090999992000032906004+20900+070370FM-12+000899999V0202901N003112200019N0100001N1+03261+02431101081ADDAA199000091GA1001+999999999GF100991001001999999001001MD1999999-0021UA1M000009999REMSYN070AAXX  29064 42909 32997 02906 10326 20243 40108 222// 20000 333 59002;EQDQ01  00002PRCP99
0156429090999992000041100004+20900+070370FM-12+000899999V0203601N002112200019N0040001N1+02361+02271100681ADDAA199000091GA1001+999999999GF100991001001999999001001MD1999999-0061REMSYN058AAXX  11004 42909 32996 03604 10236 20227 40068 333 59006;EQDQ01  00002PRCP99
0174429090999992000050600004+20900+070370FM-12+000899999V0203201N002612200019N0040001N1+02641+02471100641ADDAA199000091GA1011+006009059GF101991011051008001001001MD1999999-0061REMSYN076AAXX  06004 42909 32596 13205 10264 20247 40064 81500 333 56600 59006 81620;EQDQ01  00002PRCP99
0199429090999992000050809004+20900+070370FM-12+000899999V0202301N005712200019N0100001N1+03081+02511100801ADDAA199000091GA1031+007509029GF103991031011008001001001MD1999999+0021UA1M000009999REMSYN088AAXX  08094 42909 32597 32311 10308 20251 40080 83100 222// 20000 333 56500 58002 83825;EQDQ01  00002PRCP99
0174429090999992000050915004+20900+070370FM-12+000899999V0202901N005112200019N0040001N1+02881+02451100731ADDAA199000091GA1011+006009059GF101991011051008001001001MD1999999-0011REMSYN076AAXX  09154 42909 32596 12910 10288 20245 40073 81500 333 56600 59001 81620;EQDQ01  00002PRCP99
0174429090999992000053115004+20900+070370FM-12+000899999V0202701N006212200019N0040001N1+03021+02571100401ADDAA199000091GA1041+006009059GF104991041051008001001001MD1999999-0131REMSYN076AAXX  31154 42909 32596 42712 10302 20257 40040 84500 333 56600 59013 84620;EQDQ01  00002PRCP99
0199429090999992000062406004+20900+070360FM-12+000899999V0202501N007210360019N0100001N1+03161+02571100571ADDAA199000091GA1031+006009059GF105991041081008001031001MD1999999+0011UA1M000009999REMSYN088AAXX  24064 42909 32597 52514 10316 20257 40057 84830 222// 20000 333 56600 58001 83620;EQDQ01  00002PRCP99
0136429090999992000072315004+20900+070360FM-12+000899999V02099999999999999999N0040001N1+02761+02441100621ADDAA199000091GA1021+006009059MD1999999-0051REMSYN064AAXX  23154 42909 32596 /3714 10276 20244 40062 333 59005 82620;EQDQ01  00002PRCP99
0199429090999992000072409004+20900+070360FM-12+000899999V0202501N005710060019N0040001N1+03081+02451100611ADDAA199000091GA1051+006009059GF105991051051008001001001MD1999999-0051UA1M000009999REMSYN088AAXX  24094 42909 32596 52511 10308 20245 40061 85500 222// 20000 333 56600 59005 85620;EQDQ01  00002PRCP99
0193429090999992000091309004+20900+070360FM-12+000899999V0202701N003112200019N0100001N1+03121+02501100891ADDAA199000091GA1011+007509029GF101991011011008001001001MD1999999+0101UA1M000009999REMSYN082AAXX  13094 42909 32597 12706 10312 20250 40089 81100 222// 20000 333 58010 81825;EQDQ01  00002PRCP99
0168429090999992000092115004+20900+070360FM-12+000899999V0203201N002612200019N0040001N1+02801+02491100841ADDAA199000091GA1021+006009059GF102991021051008001001001MD1999999+0031REMSYN070AAXX  21154 42909 32596 23205 10280 20249 40084 82500 333 58003 82620;EQDQ01  00002PRCP99
0156429090999992000101200004+20900+070360FM-12+000899999V0209999C000012200019N0040001N1+02801+02601100971ADDAA199000091GA1001+999999999GF100991001001999999001001MD1999999+0141REMSYN058AAXX  12004 42909 32996 00000 10280 20260 40097 333 58014;EQDQ01  00002PRCP99
0156429090999992000101900004+20900+070360FM-12+000899999V0200201N003112200019N0040001N1+02441+01131100631ADDAA199000091GA1001+999999999GF100991001001999999001001MD1999999-0081REMSYN058AAXX  19004 42909 32996 00206 10244 20113 40063 333 59008;EQDQ01  00002PRCP99
0200429090999992000102312004+20900+070360FM-12+000899999V0202501N002612200019N0100001N1+03081+02481100691ADDAA199000091GA1001+999999999GF100991001001999999001001KA1120M+03281MD1999999+0001UA1M000009999REMSYN076AAXX  23124 42909 32997 02505 10308 20248 40069 222// 20000 333 10328 58000;EQDQ01  00002PRCP99
0218429090999992000102712004+20900+070360FM-12+000899999V0202901N003112200019N0040001N1+03041+02441100911ADDAA199000091GA1011+030009079GF101991011001999999031001KA1120M+03241MD1999999+0001UA1M000009999REMSYN094AAXX  27124 42909 32996 12906 10304 20244 40091 81030 222// 20000 333 10324 56060 58000 81360;EQDQ01  00002PRCP99
0181429090999992000110106004+20900+070360FM-12+000899999V0203601N004612200019N0100001N1+03281+01081101211ADDAA199000091GA1001+999999999GF100991001001999999001001MD1999999+0011UA1M000009999REMSYN070AAXX  01064 42909 32997 03609 10328 20108 40121 222// 20000 333 58001;EQDQ01  00002PRCP99
0156429090999992000110818004+20900+070360FM-12+000899999V0209999C000012200019N0040001N1+02621+02071101231ADDAA199000091GA1001+999999999GF100991001001999999001001MD1999999+0061REMSYN058AAXX  08184 42909 32996 00000 10262 20207 40123 333 58006;EQDQ01  00002PRCP99
0193429090999992000111209004+20900+070360FM-12+000899999V0201801N005112200019N0100001N1+03181+02252100931ADDAA199000091GA1031+060009019GF103991001001999999001011MD1999999-0231UA1M000009999REMSYN082AAXX  12094 42909 32997 31810 10318 20225 40093 80001 222// 20000 333 59023 83070;EQDQ01  00002PRCP99
0156429090999992000120418004+20900+070360FM-12+000899999V0200501N002112200019N0040001N1+02061+01481101471ADDAA199000091GA1001+999999999GF100991001001999999001001MD1999999-0131REMSYN058AAXX  04184 42909 32996 00504 10206 20148 40147 333 59013;EQDQ01  00002PRCP99
0156429090999992000120915004+20900+070360FM-12+000899999V0209999C000012200019N0040001N1+02521+01931101311ADDAA199000091GA1001+999999999GF100991001001999999001001MD1999999-0081REMSYN058AAXX  09154 42909 32996 00000 10252 20193 40131 333 59008;EQDQ01  00002PRCP99
0200429090999992000121212004+20900+070360FM-12+000899999V0202001N001012200019N0100001N1+02821+01931101351ADDAA199000091GA1001+999999999GF100991001001999999001001KA1120M+03081MD1999999+0071UA1M000009999REMSYN076AAXX  12124 42909 32997 02002 10282 20193 40135 222// 20000 333 10308 58007;EQDQ01  00002PRCP99
0156429090999992000122021004+20900+070360FM-12+000899999V0200501N002612200019N0040001N1+02081+00501101341ADDAA199000091GA1001+999999999GF100991001001999999001001MD1999999+0061REMSYN058AAXX  20214 42909 32996 00505 10208 20050 40134 333 58006;EQDQ01  00002PRCP99
0156429090999992000123100004+20900+070360FM-12+000899999V0200201N004112200019N0040001N1+02041+00811101091ADDAA199000091GA1001+999999999GF100991001001999999001001MD1999999+0141REMSYN058AAXX  31004 42909 32996 00208 10204 20081 40109 333 58014;EQDQ01  00002PRCP99
0175429340999992000010712004+20700+077070FM-12+0309VAAK V0200501N000512200019N0100001N1+02601+00411101131ADDAA106000091GA1001+999999999GF100991001001999999001001KA1120M+02721MD1999999-0061REMSYN064AAXX  07124 42934 32997 00501 10260 20041 40113 333 10272 59006;EQDQ01  00002PRCP06
0156429340999992000010918004+20700+077070FM-12+0309VAAK V0201401N001012200019N0040001N1+01981+00621101161ADDAA106000091GA1001+999999999GF100991001001999999001001MD1999999-0131REMSYN058AAXX  09184 42934 32996 01402 10198 20062 40116 333 59013;EQDQ01  00002PRCP06
0156429340999992000021018004+20700+077070FM-12+0309VAAK V0202301N001012200019N0040001N1+02301+01651100901ADDAA199000091GA1001+999999999GF100991001001999999001001MD1999999-0301REMSYN058AAXX  10184 42934 32996 02302 10230 20165 40090 333 59030;EQDQ01  00002PRCP99
0174429340999992000021401004+20700+077070FM-12+0309VAAK V0200501N00151036001CN0100001N1+02401+01651101481ADDAA199000091GA1021+009009069GF105991021051008001031001MD1999999+0191REMSYN076AAXX  14014 42934 32597 50503 10240 20165 40148 82530 333 58019 82630 85360;EQDQ01  00002PRCP99
0178429340999992000022506004+20700+077070FM-12+0309VAAK V0200201N010312200019N0001001N1+99999+99999101461ADDAA199000091GA1031+030009079GF199999031001008001031001MD1999999-0201REMSYN064AAXX  25064 42934 3/501 10220 20157 40146 83030 333 59020 83360;EQDQ01+000012SCOTCVQ02  00002PRCP99
0187429340999992000040612004+20700+077070FM-12+0309VAAK V0203201N001012200019N0100001N1+04121+00201100121ADDAA199000091GA1011+030009079GF101991011001999999031001KA1120M+04201MD1999999+0071REMSYN076AAXX  06124 42934 32997 13202 10412 20020 40012 81030 333 10420 58007 81360;EQDQ01  00002PRCP99
0168429340999992000061215004+20700+077070FM-12+0309VAAK V0200301N002112200019N0040001N1+03201+01961100141ADDAA199000091GA1011+030009079GF101991011011999999001001MD1999999+0031REMSYN070AAXX  12154 42934 32996 10304 10320 20196 40014 81100 333 58003 81360;EQDQ01  00002PRCP99
0174429340999992000081406004+20700+077060FM-12+0309VAAK V0203201N00151036001CN0100001N1+02901+02161100771ADDAA199000091GA1041+009009069GF107991041051008001031001MD1999999+0011REMSYN076AAXX  14064 42934 32597 73203 10290 20216 40077 84530 333 58001 84630 83360;EQDQ01  00002PRCP99
0172429340999992000082900004+20700+077060FM-12+0309VAAK V0203201N00101036001CN0040001N1+02441+02231100221ADDAA100023192AA221023092GA1041+007509069GF107991041051008001031001MD1999999+0011REMSYN082AAXX  29004 42934 22596 73202 10244 20223 40022 84530 333 58001 6023/ 84625 87360;
0174429340999992000090600004+20700+077060FM-12+0309VAAK V0202301N00101036001CN0040001N1+02341+02191100421ADDAA199000091GA1041+009009069GF107991041051008001031001MD1999999-0121REMSYN076AAXX  06004 42934 32596 72302 10234 20219 40042 84530 333 59012 84630 87360;EQDQ01  00002PRCP99
0156429340999992000102109004+20700+077060FM-12+0309VAAK V0209999C000012200019N0100001N1+03741+00431100521ADDAA199000091GA1001+999999999GF100991001001999999001001MD1999999-0031REMSYN058AAXX  21094 42934 32997 00000 10374 20043 40052 333 59003;EQDQ01  00002PRCP99
0175429340999992000102303004+20700+077060FM-12+0309VAAK V0202301N001012200019N0100001N1+02701+01351100891ADDAA199000091GA1001+999999999GF100991001001999999001001KA1120N+02031MD1999999-0051REMSYN064AAXX  23034 42934 32997 02302 10270 20135 40089 333 20203 59005;EQDQ01  00002PRCP99
0175429340999992000112212004+20700+077060FM-12+0309VAAK V0200901N000512200019N0100001N1+03161+01141100981ADDAA199000091GA1001+999999999GF100991001001999999001001KA1120M+03361MD1999999+0191REMSYN064AAXX  22124 42934 32997 00901 10316 20114 40098 333 10336 58019;EQDQ01  00002PRCP99
0156429340999992000112615004+20700+077060FM-12+0309VAAK V0209999C000012200019N0040001N1+02701+01031101091ADDAA199000091GA1001+999999999GF100991001001999999001001MD1999999-0011REMSYN058AAXX  26154 42934 32996 00000 10270 20103 40109 333 59001;EQDQ01  00002PRCP99
0175429340999992000120612004+20700+077060FM-12+0309VAAK V0200901N000512200019N0100001N1+03041+00951101131ADDAA199000091GA1001+999999999GF100991001001999999001001KA1120M+03291MD1999999+0011REMSYN064AAXX  06124 42934 32997 00901 10304 20095 40113 333 10329 58001;EQDQ01  00002PRCP99
0156429340999992000121209004+20700+077060FM-12+0309VAAK V0203201N000512200019N0100001N1+03041+00091101231ADDAA199000091GA1001+999999999GF100991001001999999001001MD1999999+0001REMSYN058AAXX  12094 42934 32997 03201 10304 20009 40123 333 58000;EQDQ01  00002PRCP99
0175429340999992000122212004+20700+077060FM-12+0309VAAK V0201401N000512200019N0100001N1+03001+00711101161ADDAA199000091GA1001+999999999GF100991001001999999001001KA1120M+03221MD1999999+0031REMSYN064AAXX  22124 42934 32997 01401 10300 20071 40116 333 10322 58003;EQDQ01  00002PRCP99
0156429340999992000122321004+20700+077060FM-12+0309VAAK V0200501N000512200019N0040001N1+01381+00061101421ADDAA199000091GA1001+999999999GF100991001001999999001001MD1999999-0011REMSYN058AAXX  23214 42934 32996 00501 10138 20006 40142 333 59001;EQDQ01  00002PRCP99
0175429340999992000122703004+20700+077060FM-12+0309VAAK V0201401N000512200019N0100001N1+01501+00191101661ADDAA199000091GA1001+999999999GF100991001001999999001001KA1120N+01061MD1999999+0011REMSYN064AAXX  27034 42934 32997 01401 10150 20019 40166 333 20106 58001;EQDQ01  00002PRCP99
0174429340999992000123021004+20700+077060FM-12+0309VAAK V0209999C00001036001CN0040001N1+02241+00851101091ADDAA199000091GA1011+009009069GF105991011051008001031001MD1999999-0141REMSYN076AAXX  30214 42934 32596 50000 10224 20085 40109 81530 333 59014 81630 85360;EQDQ01  00002PRCP99
0184429710999992000010318004+20250+085830FM-12+0046VEBS V0209999C000012200019N0040001N1+01541+01211101391ADDAA106000091AY101061AY201061GA1001+999999999GF100991001001999999001001MD1999999-0081MW1051REMSYN064AAXX  03184 42971 31996 00000 10154 20121 40139 70500 333 59008;EQDQ01  00002PRCP06
0184429710999992000010915004+20250+085830FM-12+0046VEBS V0200501N003112200019N0020001N1+02081+01431101341ADDAA106000091AY101031AY201031GA1001+999999999GF100991001001999999001001MD1999999-0061MW1051REMSYN064AAXX  09154 42971 31995 00506 10208 20143 40134 70500 333 59006;EQDQ01  00002PRCP06
0160429710999992000011321004+20250+085830FM-12+004699999V0202701N00211220001BN0040001N1+01821+01721101051ADDAA199000091GA1001+999999999GF100991001001999999001001MD1999999-0181REMSYN062    AAXX  13214 42971 31996 02704 10182 20172 40105 333 59018;EQDQ01  00002PRCP99
0184429710999992000021618004+20250+085830FM-12+0046VEBS V0202001N002112200019N0020001N1+02181+01901101121ADDAA199000091AY101061AY201061GA1001+999999999GF100991001001999999001001MD1999999-0271MW1051REMSYN064AAXX  16184 42971 31995 02004 10218 20190 40112 70500 333 59027;EQDQ01  00002PRCP99
0196429710999992000032900004+20250+085830FM-12+0046VEBS V0203401N001512200019N0020001N1+02221+02131101101ADDAA199000091AY101061AY201061GA1021+075009019GF102991001001999999001011MD1999999-0021MW1051REMSYN076AAXX  29004 42971 31995 23403 10222 20213 40110 70500 80001 333 59002 82075;EQDQ01  00002PRCP99
0168429710999992000040206004+20250+085830FM-12+0046VEBS V0202001N006212200019N0040001N1+03601+02071100681ADDAA199000091GA1011+006009059GF101991011051008001001001MD1999999-0171REMSYN070AAXX  02064 42971 32596 12012 10360 20207 40068 81500 333 59017 81620;EQDQ01  00002PRCP99
0156429710999992000040809004+20250+085830FM-12+0046VEBS V0201601N005712200019N0040001N1+03541+02661100521ADDAA199000091GA1001+999999999GF100991001001999999001001MD1999999-0141REMSYN058AAXX  08094 42971 32996 01611 10354 20266 40052 333 59014;EQDQ01  00002PRCP99
0196429710999992000042118004+20250+085830FM-12+0046VEBS V0201401N004112200019N0040001N1+02781+02581100491ADDAA199000091AY121061AY221061GA1031+075009019GF103991001001999999001011MD1999999+0091MW1051REMSYN076AAXX  21184 42971 31996 31408 10278 20258 40049 70522 80001 333 58009 83075;EQDQ01  00002PRCP99
0191429710999992000042703004+20250+085830FM-12+0046VEBS V0202001N00511004201CN0040001N1+03041+02681100381ADDAY121031AY221031GA1031+004509069GF107991071061004501001001KA1120N+02751MD1999999+0041MW1051REMSYN088AAXX  27034 42971 21496 72010 10304 20268 40038 70522 87600 333 20275 58004 83615 83360;
0208429710999992000050118004+20250+085830FM-12+0046VEBS V0202001N00821007501CN0040001N1+02941+02721100431ADDAA199000091AY121061AY221061GA1041+003609079GF106991061061008001001001MD1999999-0081MW1051REMSYN088AAXX  01184 42971 31596 62016 10294 20272 40043 70522 86600 333 56500 59008 84712 83615;EQDQ01  00002PRCP99
0191429710999992000050403004+20250+085830FM-12+0046VEBS V0209999C000012200019N0040001N1+02741+02211100851ADDAA100027991AA224028091GA1011+006009069GF104991011051008001031011KA1120N+02011MD1999999+0031REMSYN088AAXX  04034 42971 22596 40000 10274 20221 40085 81531 333 20201 58003 6028/ 81620 83075;
0209429710999992000050503004+20250+085830FM-12+0046VEBS V0201801N003119999999N0040001N1+03041+02681100901ADDAA199000091AY121031AY221031GA1041+005409059GF106991999999004501999999KA1120N+02571MD1999999+0161MW1051REMSYN076AAXX  05034 42971 31496 61806 10304 20268 40090 70522 333 20257 58016 84618;EQDQ01  00002PRCP99
0247429710999992000051115004+20250+085830FM-12+0046VEBS V0201601N00511090001CN0040001N1+02681+02301100321ADDAA100000791AA212999999AY191031AY261031GA1031+005409069GA2011+009009099GF107991041091004501001021MD1999999-0171MW1131REMSYN100AAXX  11154 42971 21496 71610 10268 20230 40032 71396 84902 333 57960 59017 6990/ 83618 81930 86075;EQDQ01  99992PRCP12
0247429710999992000052115004+20250+085830FM-12+0046VEBS V0202001N00511009001CN0040001N1+03001+02551100201ADDAA100000791AA212999999AY191031AY261031GA1041+006009069GA2011+009009099GF107991041031008001031011MD1999999-0081MW1291REMSYN100AAXX  21154 42971 21596 72010 10300 20255 40020 72996 84331 333 5794/ 59008 6990/ 84620 81930 83360;EQDQ01  99992PRCP12
0196429710999992000052718004+20250+085830FM-12+0046VEBS V0202001N007212200019N0040001N1+02961+02741100141ADDAA199000091AY121061AY221061GA1031+003609069GF104991031061004501031001MD1999999+0131MW1051REMSYN076AAXX  27184 42971 31496 42014 10296 20274 40014 70522 83630 333 58013 83712;EQDQ01  00002PRCP99
0168429710999992000053109004+20250+085830FM-12+0046VEBS V0201401N005112200019N0040001N1+03701+02651099921ADDAA199000091GA1021+006009059GF104991031081008001031001MD1999999-0211REMSYN070AAXX  31094 42971 32596 41410 10370 20265 49992 83830 333 59021 82620;EQDQ01  00002PRCP99
0200429710999992000053121004+20250+085830FM-12+0046VEBS V0209999C00001007501CN0040001N1+02501+02471100021ADDAA100030091AA218030091AY121031AY221031GA1031+003609079GF105991051061008001001001MD1999999-0161MW1051REMSYN088AAXX  31214 42971 22596 50000 10250 20247 40002 70522 85600 333 59016 6030/ 83712 82618;
0222429710999992000061400004+20250+085820FM-12+0046VEBS V0202301N001510054019N0040001N1+02521+02491100091ADDAA100032091AA221032091AY161061AY261061GA1021+003009079GA2041+005409069GF108991051071004501021999MD1999999+0061MW1601REMSYN094AAXX  14004 42971 21496 82303 10252 20249 40009 76066 8572/ 333 58006 6032/ 82710 84618 84589;
0202429710999992000061912004+20250+085820FM-12+0046VEBS V0202001N00511036001CN0040001N1+03001+02551099701ADDAA199000021AY121061AY221061GA1021+006009069GF106991031041008001031021KA1120M+03241MD1999999+0191MW1051REMSYN088AAXX  19124 42971 31596 62010 10300 20255 49970 70522 83432 333 10324 58019 82620 85075;
0202429710999992000080415004+20250+085820FM-12+0046VEBS V0202301N00151090001CN0040001N1+02741+02541100471ADDAA199000091AY121031AY221031GA1011+006009069GF105991011051008001031011MD1999999+0051MW1051REMSYN082AAXX  04154 42971 31596 52303 10274 20254 40047 70522 81531 333 58005 81620 83075;EQDQ01  00002PRCP99
0215429710999992000081303004+20250+085820FM-12+0046VEBS V0202001N00311005401CN0040001N1+02921+02701100831ADDAA199000091GA1021+003609079GA2031+005409069GF106991031061004501031011KA1120N+02671MD1999999+0301REMSYN088AAXX  13034 42971 32496 62006 10292 20270 40083 83631 333 20267 58030 82712 83618 85360;EQDQ01  00002PRCP99
0222429710999992000081421004+20250+085820FM-12+0046VEBS V0202701N004110300019N0040001N1+02481+02451100581ADDAA100014091AA218014091AY151031AY251031GA1041+005409069GA2031+030009039GF108991041051004501031011MD1999999-0091MW1501REMSYN094AAXX  14214 42971 21496 82708 10248 20245 40058 75055 84531 333 59009 6014/ 84618 83360 86075;
0247429710999992000082203004+20250+085820FM-12+0046VEBS V0200501N005110054019N0040001N1+02861+02641100071ADDAA100003091AA224003091AY121031AY221031GA1031+003609079GA2041+005409069GF107991061031004501031001KA1120N+02631MD1999999+0101MW1051REMSYN106AAXX  22034 42971 21496 70510 10286 20264 40007 70522 86330 333 20263 57932 58010 6003/ 83712 84618 81930;
0193429710999992000090603004+20250+085820FM-12+0046VEBS V0202701N00151090001CN0040001N1+02881+02541100331ADDAA199000091GA1011+006009069GF105991011051008001031011KA1120N+02511MD1999999-0171REMSYN082AAXX  06034 42971 31596 52703 10288 20254 40033 81531 333 20251 59017 81620 85360;EQDQ01  00002PRCP99
0196429710999992000102618004+20250+085820FM-12+0046VEBS V0203601N004112200019N0020001N1+02481+02181100741ADDAA199000091AY101061AY201061GA1041+075009019GF104991001001999999001011MD1999999-0351MW1051REMSYN076AAXX  26184 42971 31995 43608 10248 20218 40074 70500 80001 333 59035 84075;EQDQ01  00002PRCP99
0174429710999992000102806004+20250+085820FM-12+0046VEBS V0203201N001512200019N0040001N1+02981+02181100881ADDAA199000091GA1021+005409069GF106991031041004501001011MD1999999+0301REMSYN076AAXX  28064 42971 32496 63203 10298 20218 40088 83401 333 58030 82618 83820;EQDQ01  00002PRCP99
0156429710999992000110315004+20250+085820FM-12+0046VEBS V0201801N002612200019N0040001N1+02581+02351101521ADDAA199000091GA1001+999999999GF100991001001999999001001MD1999999+0181REMSYN058AAXX  03154 42971 32996 01805 10258 20235 40152 333 58018;EQDQ01  00002PRCP99
0202429710999992000110518004+20250+085820FM-12+0046VEBS V0201601N00211036001CN0040001N1+02381+02201101091ADDAA199000091AY121061AY211061GA1031+006009069GF106991031051008001031001MD1999999-0231MW1051REMSYN082AAXX  05184 42971 31596 61604 10238 20220 40109 70521 83530 333 59023 83620 83360;EQDQ01  00002PRCP99
0179429770999992000011703004+20850+088250FM-12+001099999V0203601N002612200019N0100001N1+01941+01271101701ADDAA199000091GA1001+999999999GF100991001001999999001001KA1120N+01811MD1999999+0221REMSYN068    AAXX  17034 42977 32997 03605 10194 20127 40170 333 20181 58022;EQDQ01  00002PRCP99
0156429770999992000040721004+20850+088250FM-12+001099999V0202301N007710024019N0040001N1+02821+02651100741ADDAA199000091GA1091+999999999GF109991091999999999999999MD1999999+0141REMSYN058AAXX  07214 42977 32/96 92315 10282 20265 40074 333 58014;EQDQ01  00002PRCP99
0165429770999992000041703004+20850+088250FM-12+001099999V0202301N002612200019N0200001N1+03101+02661100801ADDAA199000091GF102991021001017501041001KA1120N+02861MD1999999-0061REMSYN070AAXX  17034 42977 32798 22305 10310 20266 40080 82040 333 20286 59006;EQDQ01  00002PRCP99
0127430030999992000010109404+19120+072850FM-15+0014VABB V0202701N003112200019N0050001N1+03001+01401999999ADDGF100991999999999999999999MA1100911999999MW1041REMMET049VABB 1040Z 27006KT 5000 FU SKC 30/14 Q1009 NOSIG;EQDQ01    003PRSWM1
0127430030999992000010117404+19120+072850FM-15+0014VABB V0209999C000012200019N0025001N1+02401+01501999999ADDGF100991999999999999999999MA1101191999999MW1041REMMET049VABB 1840Z 00000KT 2500 FU SKC 24/15 Q1012 NOSIG;EQDQ01    003PRSWM1
0159430030999992000010222404+19120+072850FM-15+0014VABB V0209999C000012200019N0020001N1+02101+99999999999ADDGF100991999999999999999999MA1101021999999MW1041REMMET049VABB 2340Z 00000KT 2000 FU SKC 21/21 Q1010 NOSIG;EQDQ01+002103ATOD  Q02+000003PRSWM1Q03    003PRSWM1
0143430030999992000010612404+19120+072850FM-15+0014VABB V0203001N003112200019N0030001N1+02601+00901999999ADDGF100991999999999999999999MA1101021999999MW1041REMMET049VABB 1340Z 30006KT 3000 FU SKC 26/09 Q1010 NOSIG;EQDQ01+000003PRSWM1Q02    003PRSWM1
0143430030999992000011009404+19120+072850FM-15+0014VABB V0202801N004112200019N0040001N1+03001+01601999999ADDGF100991999999999999999999MA1100711999999MW1041REMMET049VABB 1040Z 28008KT 4000 FU SKC 30/16 Q1007 NOSIG;EQDQ01+000003PRSWM1Q02    003PRSWM1
0143430030999992000011108404+19120+072850FM-15+0014VABB V0203001N003112200019N0030001N1+03101+01401999999ADDGF100991999999999999999999MA1100811999999MW1041REMMET049VABB 0940Z 30006KT 3000 FU SKC 31/14 Q1008 NOSIG;EQDQ01+000003PRSWM1Q02    003PRSWM1
0162430030999992000011809404+19120+072850FM-15+0014VABB V0202901N003112200019N0050001N1+03301+01601999999ADDGA1021+006009999GF102991999999999999999999MA1101081999999MW1041REMMET052VABB 1040Z 29006KT 5000 FU FEW020 33/16 Q1011 NOSIG;EQDQ01+000003PRSWM1Q02    003PRSWM1
0143430030999992000012020404+19120+072850FM-15+0014VABB V0209999C000012200019N0020001N1+02201+01801999999ADDGF100991999999999999999999MA1101021999999MW1041REMMET049VABB 2140Z 00000KT 2000 FU SKC 22/18 Q1010 NOSIG;EQDQ01+000003PRSWM1Q02    003PRSWM1
0175430030999992000012112004+19120+072850FM-12+0014VABB V0203201N002112200019N0040001N1+02581+02001101131ADDAA199000091GA1001+999999999GF100991001001999999001001KA1120M+02851MD1999999+0201REMSYN064AAXX  21124 43003 32996 03204 10258 20200 40113 333 10285 58020;EQDQ01  00002PRCP99
0143430030999992000012123404+19120+072850FM-15+0014VABB V0200701N001512200019N0020001N1+02201+01701999999ADDGF100991999999999999999999MA1101191999999MW1041REMMET049VABB 0040Z 07003KT 2000 FU SKC 22/17 Q1012 NOSIG;EQDQ01+000003PRSWM1Q02    003PRSWM1
0143430030999992000012619404+19120+072850FM-15+0014VABB V0203201N002112200019N0020001N1+02301+01201999999ADDGF100991999999999999999999MA1101291999999MW1041REMMET049VABB 2040Z 32004KT 2000 FU SKC 23/12 Q1013 NOSIG;EQDQ01+000003PRSWM1Q02    003PRSWM1
0143430030999992000012905404+19120+072850FM-15+0014VABB V02099999999992200019N0050001N1+03301+01201999999ADDGF100991999999999999999999MA1101491999999MW1041REMMET049VABB 0640Z VRB03KT 5000 FU SKC 33/12 Q1015 NOSIG;EQDQ01+000003PRSWM1Q02    003PRSWM1
0172430030999992000012919404+19120+072850FM-15+0014VABB V0209999C000012200019N0012001N1+02301+02101999999ADDED199U15009GF100991999999999999999999MA1101391999999MW1041REMMET067VABB 2040Z 00000KT 1200 R27/P1500 FU SKC 23/21 Q1014 TEMPO 0800 FU;EQDQ01+000003PRSWM1Q02    003PRSWM1
0143430030999992000012923404+19120+072850FM-15+0014VABB V0200901N001512200019N0025001N1+02101+00901999999ADDGF100991999999999999999999MA1101291999999MW1041REMMET049VABB 0040Z 09003KT 2500 FU SKC 21/09 Q1013 NOSIG;EQDQ01+000003PRSWM1Q02    003PRSWM1
0143430030999992000013017404+19120+072850FM-15+0014VABB V0209999C000012200019N0030001N1+02501+00801999999ADDGF100991999999999999999999MA1101391999999MW1041REMMET049VABB 1840Z 00000KT 3000 FU SKC 25/08 Q1014 NOSIG;EQDQ01+000003PRSWM1Q02    003PRSWM1
0162430030999992000020607404+19120+072850FM-15+0014VABB V0202701N004112200019N0050001N1+02701+02001999999ADDGA1021+006009999GF104991999999999999999999MA1101081999999MW1041REMMET052VABB 0840Z 27008KT 5000 FU SCT020 27/20 Q1011 NOSIG;EQDQ01+000003PRSWM1Q02    003PRSWM1
0140430030999992000020808404+19120+072850FM-15+0014VABB V0203001N005112200019N9999999N1+02701+01401999999ADDGF100991999999999999999999MA1100911999999MW1001REMMET046VABB 0940Z 30010KT 6000 SKC 27/14 Q1009 NOSIG;EQDQ01+060002VODIS Q02+000000PRSWM2
0143430030999992000021002404+19120+072850FM-15+0014VABB V0200601N001512200019N0020001N1+02301+01801999999ADDGF100991999999999999999999MA1101191999999MW1041REMMET049VABB 0340Z 06003KT 2000 FU SKC 23/18 Q1012 NOSIG;EQDQ01+000003PRSWM1Q02    003PRSWM1
0140430030999992000021109404+19120+072850FM-15+0014VABB V0202901N004112200019N9999999N1+02601+01001999999ADDGF100991999999999999999999MA1101021999999MW1001REMMET046VABB 1040Z 29008KT 6000 SKC 26/10 Q1010 NOSIG;EQDQ01+060002VODIS Q02+000000PRSWM2
0196430030999992000021318004+19120+072850FM-12+0014VABB V0209999C000012200019N0020001N1+01981+01471101111ADDAA199000091AY101061AY201061GA1031+030009079GF103991031001999999031001MD1999999+0161MW1041REMSYN076AAXX  13184 43003 31995 30000 10198 20147 40111 70400 83030 333 58016 83360;EQDQ01  00002PRCP99
0162430030999992000022520404+19120+072850FM-15+0014VABB V0209999C000012200019N0020001N1+02201+01601999999ADDGA1021+030009999GF102991999999999999999999MA1100811999999MW1041REMMET052VABB 2140Z 00000KT 2000 FU FEW100 22/16 Q1008 NOSIG;EQDQ01+000003PRSWM1Q02    003PRSWM1
0143430030999992000022715404+19120+072850FM-15+0014VABB V0203601N002112200019N0040001N1+02701+01701999999ADDGF100991999999999999999999MA1101021999999MW1041REMMET049VABB 1640Z 36004KT 4000 FU SKC 27/17 Q1010 NOSIG;EQDQ01+000003PRSWM1Q02    003PRSWM1
0143430030999992000022819404+19120+072850FM-15+0014VABB V0209999C000012200019N0030001N1+02401+01601999999ADDGF100991999999999999999999MA1101081999999MW1041REMMET049VABB 2040Z 00000KT 3000 FU SKC 24/16 Q1011 NOSIG;EQDQ01+000003PRSWM1Q02    003PRSWM1
0143430030999992000022904404+19120+072850FM-15+0014VABB V0200801N003112200019N0035001N1+03501+01101999999ADDGF100991999999999999999999MA1101291999999MW1041REMMET049VABB 0540Z 08006KT 3500 FU SKC 35/11 Q1013 NOSIG;EQDQ01+000003PRSWM1Q02    003PRSWM1
0203430030999992000030203004+19120+072850FM-12+0014VABB V0209999C000012200019N0010001N1+02141+01571101191ADDAA199000091AY101031AY201031GA1001+999999999GF100991001001999999001001KA1120N+01731MD1999999+0011MW1041REMSYN070AAXX  02034 43003 31994 00000 10214 20157 40119 70400 333 20173 58001;EQDQ01  00002PRCP99
0140430030999992000030207404+19120+072850FM-15+0014VABB V0202801N004112200019N9999999N1+03001+01601999999ADDGF100991999999999999999999MA1101021999999MW1001REMMET046VABB 0840Z 28008KT 6000 SKC 30/16 Q1010 NOSIG;EQDQ01+060002VODIS Q02+000000PRSWM2
0140430030999992000030706404+19120+072850FM-15+0014VABB V0202901N006212200019N9999999N1+02701+00901999999ADDGF100991999999999999999999MA1101081999999MW1001REMMET046VABB 0740Z 29012KT 6000 SKC 27/09 Q1011 NOSIG;EQDQ01+060002VODIS Q02+000000PRSWM2
0143430030999992000030801404+19120+072850FM-15+0014VABB V0200601N002612200019N0015001N1+02101+01001999999ADDGF100991999999999999999999MA1101291999999MW1041REMMET049VABB 0240Z 06005KT 1500 FU SKC 21/10 Q1013 NOSIG;EQDQ01+000003PRSWM1Q02    003PRSWM1
0184430030999992000030818004+19120+072850FM-12+0014VABB V0209999C000012200019N0020001N1+02101+01211101031ADDAA199000091AY101061AY201061GA1001+999999999GF100991001001999999001001MD1999999-0281MW1041REMSYN064AAXX  08184 43003 31995 00000 10210 20121 40103 70400 333 59028;EQDQ01  00002PRCP99
0140430030999992000030911404+19120+072850FM-15+0014VABB V0203201N004112200019N9999999N1+02901+01301999999ADDGF100991999999999999999999MA1100811999999MW1001REMMET046VABB 1240Z 32008KT 6000 SKC 29/13 Q1008 NOSIG;EQDQ01+060002VODIS Q02+000000PRSWM2
0184430030999992000031015004+19120+072850FM-12+0014VABB V0209999C000012200019N0020001N1+02401+01721101051ADDAA199000091AY101031AY201031GA1001+999999999GF100991001001999999001001MD1999999+0061MW1041REMSYN064AAXX  10154 43003 31995 00000 10240 20172 40105 70400 333 58006;EQDQ01  00002PRCP99
0159430030999992000031308404+19120+072850FM-15+0014VABB V0202201N002612200019N9999999N1+03001+01501999999ADDGA1021+006009999GF104991999999999999999999MA1100811999999MW1001REMMET049VABB 0940Z 22005KT 7000 SCT020 30/15 Q1008 NOSIG;EQDQ01+070002VODIS Q02+000000PRSWM2
0162430030999992000031414404+19120+072850FM-15+0014VABB V0202601N002612200019N0030001N1+02501+01401999999ADDGA1021+006009999GF102991999999999999999999MA1101191999999MW1041REMMET052VABB 1540Z 26005KT 3000 FU FEW020 25/14 Q1012 NOSIG;EQDQ01+000003PRSWM1Q02    003PRSWM1
0151430030999992000031502404+19120+072850FM-15+0014VABB V0200601N001512200019N0025001N1+02601+01401999999ADDGF100991999999999999999999MA1101291999999MW1041REMMET057VABB 0340Z 06003KT 2500 FU SKC 26/14 Q1013 BECMG 3000 FU;EQDQ01+000003PRSWM1Q02    003PRSWM1
0143430030999992000032006404+19120+072850FM-15+0014VABB V0202901N003612200019N0050001N1+03501+01001999999ADDGF100991999999999999999999MA1100811999999MW1041REMMET049VABB 0740Z 29007KT 5000 FU SKC 35/10 Q1008 NOSIG;EQDQ01+000003PRSWM1Q02    003PRSWM1
0117430030999992000032107404+19120+072850FM-15+0014VABB V0202801N004612200019N0050001N1+03301+00801999999ADDMA1100711999999MW1041REMMET049VABB 0840Z 28009KT 5000 FU SCK 33/08 Q1007 NOSIG;EQDQ01+000003PRSWM1Q02    003PRSWM1
0184430030999992000032121004+19120+072850FM-12+0014VABB V0209999C000012200019N0020001N1+02101+01811100881ADDAA199000091AY101031AY201031GA1001+999999999GF100991001001999999001001MD1999999+0081MW1051REMSYN064AAXX  21214 43003 31995 00000 10210 20181 40088 70500 333 58008;EQDQ01  00002PRCP99
0162430030999992000032712404+19120+072850FM-15+0014VABB V0203101N003612200019N0030001N1+03301+01101999999ADDGA1021+030009999GF102991999999999999999999MA1100711999999MW1041REMMET052VABB 1340Z 31007KT 3000 FU FEW100 33/11 Q1007 NOSIG;EQDQ01+000003PRSWM1Q02    003PRSWM1
0184430030999992000033115004+19120+072850FM-12+0014VABB V0203601N001512200019N0020001N1+02941+02141100621ADDAA199000091AY101031AY201031GA1001+999999999GF100991001001999999001001MD1999999-0161MW1041REMSYN064AAXX  31154 43003 31995 03603 10294 20214 40062 70400 333 59016;EQDQ01  00002PRCP99
0143430030999992000040917404+19120+072850FM-15+0014VABB V0202801N001512200019N0040001N1+02801+02001999999ADDGF100991999999999999999999MA1100811999999MW1041REMMET049VABB 1840Z 28003KT 4000 FU SKC 28/20 Q1008 NOSIG;EQDQ01+000003PRSWM1Q02    003PRSWM1
0143430030999992000041217404+19120+072850FM-15+0014VABB V0209999C000012200019N0040001N1+02701+02301999999ADDGF100991999999999999999999MA1100711999999MW1041REMMET049VABB 1840Z 00000KT 4000 FU SKC 27/23 Q1007 NOSIG;EQDQ01+000003PRSWM1Q02    003PRSWM1
0143430030999992000041309404+19120+072850FM-15+0014VABB V0202301N003612200019N0080001N1+03001+02201999999ADDGA1021+006009999GF102991999999999999999999MA1100411999999MW1001REMMET049VABB 1040Z 23007KT 8000 FEW020 30/22 Q1004 NOSIG;EQDQ01+000000PRSWM2
0169430030999992000041911404+19120+072850FM-15+0014VABB V0202901N004112200019N9999999N1+03001+02301999999ADDGA1021+006009999GF102991999999999999999999MA1100611999999MW1001REMMET059VABB 191240Z 29008KT 6000 FEW020 30/23 Q1006 BECMG 5000 FU;EQDQ01+060002VODIS Q02+000000PRSWM2
0213430030999992000042003004+19120+072850FM-12+0014VABB V0209999C000012200019N0020001N1+02901+02351100931ADDAA199000091AY101031AY201031GA1001+999999999GF100991001001999999001001KA1120N+02431MD1999999-0111MW1041REMSYN080AAXX  20034 43003 31995 00000 10290 20235 40093 70400 333 20243 59011 555 10000;EQDQ01  00002PRCP99
0145430030999992000042309404+19120+072850FM-15+0014VABB V0202701N005112200019N0080001N1+03101+02101999999ADDGA1021+006009999GF102991999999999999999999MA1100611999999MW1001REMMET051VABB 231040Z 27010KT 8000 FEW020 31/21 Q1006 NOSIG;EQDQ01+000000PRSWM2
0164430030999992000042720404+19120+072850FM-15+0014VABB V0203201N001512200019N0035001N1+02701+02101999999ADDGA1021+006009999GF102991999999999999999999MA1100611999999MW1041REMMET054VABB 272140Z 32003KT 3500 FU FEW020 27/21 Q1006 NOSIG;EQDQ01+000003PRSWM1Q02    003PRSWM1
0164430030999992000042817404+19120+072850FM-15+0014VABB V0202701N001512200019N0040001N1+02701+02201999999ADDGA1021+006009999GF104991999999999999999999MA1100811999999MW1041REMMET054VABB 281840Z 27003KT 4000 FU SCT020 27/22 Q1008 NOSIG;EQDQ01+000003PRSWM1Q02    003PRSWM1
0164430030999992000050300404+19120+072850FM-15+0014VABB V0209999C000010060019N0030001N1+02801+02101999999ADDGA1071+006009999GF107991999999999999999999MA1100911999999MW1041REMMET054VABB 030140Z 00000KT 3000 FU BKN020 28/21 Q1009 NOSIG;EQDQ01+000003PRSWM1Q02    003PRSWM1
0164430030999992000050321404+19120+072850FM-15+0014VABB V0203501N001512200019N0040001N1+02801+02101999999ADDGA1021+006009999GF104991999999999999999999MA1100711999999MW1041REMMET054VABB 032240Z 35003KT 4000 FU SCT020 28/21 Q1007 NOSIG;EQDQ01+000003PRSWM1Q02    003PRSWM1
0168430030999992000050918004+19120+072850FM-12+0014VABB V0202701N002612200019N0040001N1+02861+02341100931ADDAA199000091GA1021+006009059GF102991021051008001001001MD1999999-0061REMSYN070AAXX  09184 43003 32596 22705 10286 20234 40093 82500 333 59006 82620;EQDQ01  00002PRCP99
0174430030999992000051106004+19120+072850FM-12+0014VABB V0202301N00311012001CN0040001N1+03241+02381100921ADDAA199000091GA1031+006009069GF105991051081008001001001MD1999999+0001REMSYN076AAXX  11064 43003 32596 52306 10324 20238 40092 85800 333 58000 83620 84825;EQDQ01  00002PRCP99
0190430030999992000052919404+19120+072850FM-15+0014VABB V0201401N001512200019N0040001N1+02801+02601999999ADDGA1021+006009999GA2021+007509029GF102991999999999999999999MA1100611999999MW1051REMMET064VABB 292040Z 14003KT 4000 HZ SCT020 FEW025TCU 28/26 Q1006 NOSIG;EQDQ01+000003PRSWM1Q02    003PRSWM1
0168430030999992000053011404+19120+072850FM-15+0014VABB V0202401N003612200019N0060001N1+03101+02601999999ADDGA1021+006009999GA2021+007509999GF104991999999999999999999MA1100611999999MW1001REMMET058VABB 301240Z 24007KT 6000 SCT020 SCT025 31/26 Q1006 NOSIG;EQDQ01+000000PRSWM2
0206430030999992000053120404+19120+072850FM-15+0014VABB V0202501N002612200019N0040001N1+02901+02801999999ADDGA1021+007509999GA2021+007509029GF102991999999999999999999MA1100411999999MW1051REMMET080VABB 312140Z 25005KT 4000 HZ FW020 SCT025 FEW025TCU 29/28 Q1004 TEMPO 1500 SHRA;EQDQ01+000003PRSWM1Q02    003PRSWM1
0181430030999992000060100404+19120+072850FM-16+0014VABB V0209999C000012200019N0030001N1+99999+99999999999ADDGA1021+006009999GA2021+009009099GF102991999999999999999999MW1001MW2051REMMET080VABB 010140Z 00000KT 3000 HZ SCT020 FEW030CB BKB100 28/27 Q1004 TEMPO 1500 TSRA;EQDQ01+000003PRSWM1
0191430030999992000060612004+19120+072850FM-12+0014VABB V0209999C00001045001CN0040001N1+03001+02491099451ADDAA100000592AA209000492GA1021+006009069GF107991031081008001031011KA1120M+03041MD1999999-0211REMSYN088AAXX  06124 43003 22596 70000 10300 20249 49945 83831 333 10304 59021 6994/ 82620 85360;
0178430030999992000060800404+19120+072850FM-16+0014VABB V0209999C000012200019N0020001N1+99999+99999999999ADDGA1021+004509999GA2021+999999099GF102991999999999999999999MW1001REMMET083VABB 080140Z 00000KT 2000 FBLRA SCT015 FEWCB030 OVC080 28/27 Q1000 TEMPO 1500 SHRA;EQDQ01+000000PRSWM2
0227430030999992000060805404+19120+072850FM-16+0014VABB V0200501N005112200019N0006001N1+99999+99999999999ADDED199U09009GA1021+002409999GA2021+004509999GA3021+009009999GF102991999999999999999999MW1001MW2651REMMET099VABB 080640Z 05010KT 0600 R27/0900 +RA SCT008 SCT015 FEW030 CB OVC080 27/23 Q1002 TEMPO 0400 +SHRA;EQDQ01+000003PRSWM1
0244430030999992000060806004+19120+072850FM-12+0014VABB V0200501N001510054019N0020001N1+02521+02461100171ADDAA100007192AA203007092AY161061AY251061GA1021+003609079GA2031+005409069GA3011+007509099GF108991061091004501021999MD1999999+0341MW1641REMSYN100AAXX  08064 43003 21495 80503 10252 20246 40017 76465 8692/ 333 58034 6007/ 82712 83618 81925 88458;
0187430030999992000060916404+19120+072850FM-15+0014VABB V0209999C000010300019N0040001N1+02901+02701999999ADDGA1021+005409999GA2071+030009999GF107991999999999999999999MA1100411999999MW1051REMMET061VABB 091740Z 00000KT 4000 HZ SCT018 BKN100 29/27 Q1004 NOSIG;EQDQ01+000003PRSWM1Q02    003PRSWM1
0223430030999992000060918404+19120+072850FM-15+0014VABB V0202801N002110300019N0030001N1+02901+02701999999ADDGA1021+004509999GA2021+009009099GA3071+030009999GF107991999999999999999999MA1100311999999MW1511REMMET081VABB 091940Z 28004KT 3000 -DZ SCT015 FEW030CB BKN100 29/27 Q1003 TEMPO 1500 SHRA;EQDQ01+000003PRSWM1Q02    003PRSWM1
0219430030999992000061800004+19110+072850FM-12+0014VABB V0202301N001510450019N0020001N1+02801+02431100331ADDAA100000791AA221999999AY121061AY211061GA1011+006009069GF105991041081008001031001MD1999999+0181MW1051REMSYN088AAXX  18004 43003 21595 52303 10280 20243 40033 70521 84830 333 58018 6990/ 81620 83825;EQDQ01  99992PRCP21
0174430030999992000061909004+19110+072850FM-12+0014VABB V0203201N00311012001CN0040001N1+03201+02461100341ADDAA199000091GA1031+006009069GF107991061081008001031001MD1999999-0051REMSYN076AAXX  19094 43003 32596 73206 10320 20246 40034 86830 333 59005 83620 83825;EQDQ01  00002PRCP99
0213430030999992000062218404+19110+072850FM-15+0014VABB V0202101N002610300019N0040001N1+02901+02701999999ADDGA1021+006009999GA2021+007509029GA3071+030009999GF107991999999999999999999MA1100511999999MW1051REMMET071VABB 221940Z 21005KT 4000 HZ SCT020 FEW025TCU BKN100 29/27 Q1005 NOSIG;EQDQ01+000003PRSWM1Q02    003PRSWM1
0222430030999992000062618404+19110+072850FM-15+0014VABB V0202401N002612200019N0030001N1+02901+02701999999ADDGA1021+006009999GA2021+009009099GA3021+030009999GF104991999999999999999999MA1100511999999MW1051REMMET080VABB 261940Z 24005KT 3000 HZ SCT020 FEW030CB SCT100 29/27 Q1005 TEMPO 1500 SHRA;EQDQ01+000003PRSWM1Q02    003PRSWM1
0185430030999992000070600404+19110+072850FM-16+0014VABB V0202201N004612200019N0030001N1+99999+99999999999ADDGA1021+005409999GA2021+009009099GF102991999999999999999999MW1001MW2051REMMET084VABB 060140Z 22009KT 3000 HZ SCT018 FEW030CB (E) BKN100 29/24 Q1003 TEMPO 1500 SHRA;EQDQ01+000003PRSWM1
0252430030999992000070915404+19110+072850FM-15+0014VABB V0202201N00311009001CN0025001N1+02701+02401999999ADDGA1021+003009999GA2021+004509999GA3021+009009099GA4081+024009999GF108991999999999999999999MA1100101999999MW1051REMMET094VABB 091640Z 22006KT 2500 HZ SCT010 SCT015 FEW030CB OVC080 27/24 Q1001 TEMPO 1500 IN MOD SHRA;EQDQ01+000003PRSWM1Q02    003PRSWM1
0244430030999992000071306004+19110+072850FM-12+0014VABB V0202501N004110054019N0020001N1+02681+02541100101ADDAA100007192AA203007092AY161061AY251061GA1021+004209079GA2041+005409069GA3011+008409099GF108991051091004501021999MD1999999+0121MW1611REMSYN100AAXX  13064 43003 21495 82508 10268 20254 40010 76165 8592/ 333 58012 6007/ 82714 84618 81928 88458;
0210430030999992000071518404+19110+072850FM-15+0014VABB V0202201N005110300019N0040001N1+02701+02301999999ADDGA1021+004509999GA2021+006009999GA3071+030009999GF107991999999999999999999MA1100311999999MW1051REMMET068VABB 151940Z 22010KT 4000 HZ SCT015 SCT020 BKN100 27/23 Q1003 NOSIG;EQDQ01+000003PRSWM1Q02    003PRSWM1
0190430030999992000072421404+19110+072850FM-15+0014VABB V0202301N002612200019N0040001N1+02601+02401999999ADDGA1021+006009999GA2021+007509029GF102991999999999999999999MA1100611999999MW1051REMMET064VABB 242240Z 23005KT 4000 HZ SCT020 FEW025TCU 26/24 Q1006 NOSIG;EQDQ01+000003PRSWM1Q02    003PRSWM1
0188430030999992000080502404+19110+072850FM-15+0014VABB V0202901N002612200019N0030001N1+02901+02501999999ADDGA1021+006009999GA2021+007509999GF104991999999999999999999MA1100811999999MW1051REMMET062VABB 050340Z 29005KT 3000 HZ SCT020 SCT0250 29/25 Q1008 NOSIG;EQDQ01+000003PRSWM1Q02    003PRSWM1
0223430030999992000080901404+19110+072850FM-15+0014VABB V0202501N003110300019N0040001N1+03001+02401999999ADDGA1021+005409999GA2021+007509029GA3071+030009999GF107991999999999999999999MA1100511999999MW1051REMMET081VABB 090240Z 25006KT 4000 HZ SCT018 FEW025TCU BKN100 30/24 Q1005 TEMPO 1500 SHRA;EQDQ01+000003PRSWM1Q02    003PRSWM1
0222430030999992000081004404+19110+072850FM-15+0014VABB V0202301N005110240019N0020001N1+03001+02501999999ADDGA1021+004509999GA2021+009009099GA3081+024009999GF108991999999999999999999MA1100201999999MW1051REMMET080VABB 100540Z 23010KT 2000 HZ SCT015 FEW030CB OVC080 30/25 Q1002 TEMPO 1500 SHRA;EQDQ01+000003PRSWM1Q02    003PRSWM1
0200430030999992000081218004+19110+072850FM-12+0014VABB V0202301N003110450019N0020001N1+02721+02461100701ADDAA112024991AA215025091AY161061AY251061GA1031+005409069GF106991041081004501031001MD1999999+0511MW1051REMSYN088AAXX  12184 43003 21495 62306 10272 20246 40070 70565 84830 333 58051 60252 83618 83825;
0213430030999992000081316404+19110+072850FM-15+0014VABB V0202301N002110300019N0040001N1+03001+02501999999ADDGA1021+006009999GA2021+007509029GA3071+030009999GF107991999999999999999999MA1101021999999MW1051REMMET071VABB 131740Z 23004KT 4000 HZ SCT020 FEW025TCU BKN100 30/25 Q1010 NOSIG;EQDQ01+000003PRSWM1Q02    003PRSWM1
0222430030999992000081806004+19110+072850FM-12+0014VABB V0202701N004110075019N0040001N1+02901+02441100671ADDAA100002091AA203002091AY161061AY251061GA1031+006009069GA2031+007509089GF106991051081008001031001MD1999999-0161MW1021REMSYN094AAXX  18064 43003 21596 62708 10290 20244 40067 70265 85830 333 59016 6002/ 83620 83825 85360;
0246430030999992000082112404+19110+072850FM-15+0014VABB V0202501N00211009001CN0025001N1+02701+02501999999ADDGA1021+004509999GA2021+007509999GA3021+009009099GA4071+024009999GF107991999999999999999999MA1100201999999MW1511REMMET088VABB 211340Z 25004KT 2500 -DZ SCT015 SCT025 FEW030CB BKN080 27/25 Q1002 TEMPO 1500 SHRA;EQDQ01+000003PRSWM1Q02    003PRSWM1
0234430030999992000083123404+19110+072850FM-15+0014VABB V0202301N003610240019N0025001N1+02701+02501999999ADDGA1021+006009999GA2021+007509029GA3071+024009999GF107991999999999999999999MA1100311999999MW1051REMMET092VABB 312340Z 23007KT 2500 HZ FEW020 FEW025TCU BKN080 27/25 Q1003 W.S.RWY 27 TEMPO 1500 SHRA;EQDQ01+000003PRSWM1Q02    003PRSWM1
0203430030999992000090100404+19110+072850FM-15+0014VABB V0202301N006210240019N0020001N1+02501+02401999999ADDGA1021+005409999GA2021+007509029GA3071+024009999GF107991999999999999999999MW1611REMMET076VABB 010040Z 23012KT 2000 -RA SCT018 FEW025TCU BKN080 25/24 TEMPO 1500 SHRA;EQDQ01+000003PRSWM1Q02    003PRSWM1
0184430030999992000090823404+19110+072850FM-15+0014VABB V0202101N001512200019N0040001N1+02701+02401999999ADDGA1021+006009999GA2021+030009999GF104991999999999999999999MA1100811999999MW1051REMMET058VABB 082340Z 21003KT 4000 HZ SCT020 SCT100 27/24 Q1008 NS;EQDQ01+000003PRSWM1Q02    003PRSWM1
0184430030999992000091106404+19110+072850FM-15+0014VABB V0202401N005110075019N9999999N1+03001+02301999999ADDGA1021+006009999GA2071+007509999GF107991999999999999999999MA1100911999999MW1001REMMET058VABB 110640Z 24010KT 7000 SCT020 BKN025 30/23 Q1009 NOSIG;EQDQ01+070002VODIS Q02+000000PRSWM2
0254430030999992000092115404+19110+072850FM-15+0014VABB V0200501N00151009001CN0025001N1+02701+02401999999ADDGA1021+004509999GA2021+007509999GA3021+009009099GA4071+024009999GF107991999999999999999999MA1100811999999MW1801MW2951REMMET090VABB 211540Z 05003KT 2500 -TSRA SCT015 SCT025 FEW030CB BKN080 27/24 Q1008 TEMPO 1500 TSRA;EQDQ01+000003PRSWM1Q02    003PRSWM1
0219430030999992000092203004+19110+072850FM-12+0014VABB V0209999C000019999999N0020001N1+02721+02461100981ADDAA100004192AA224004092AY111031AY201031GA1031+030009039GF107991031001999999031011KA1120N+02501MD1999999+0081MW1051REMSYN094AAXX  22034 43003 21995 70000 10272 20246 40098 70510 83031 333 20250 58008 6004/ 83360 85075;
0193430030999992000092812004+19110+072850FM-12+0014VABB V0202701N00151045001CN0040001N1+03021+02511100561ADDAA199000091GA1021+006009069GF106991031081008001031001KA1120M+03301MD1999999+0011REMSYN082AAXX  28124 43003 32596 62703 10302 20251 40056 83830 333 10330 58001 82620 85360;EQDQ01  00002PRCP99
0174430030999992000092906004+19110+072850FM-12+0014VABB V0201801N00151012001CN0040001N1+03201+02431101031ADDAA199000091GA1031+006009069GF105991051081008001001001MD1999999+0141REMSYN076AAXX  29064 43003 32596 51803 10320 20243 40103 85800 333 58014 83620 83825;EQDQ01  00002PRCP99
0200430030999992000100118004+19110+072850FM-12+0014VABB V0200901N00151012001CN0020001N1+02541+02391100881ADDAA100013091AA215013091AY191061AY261061GA1031+006009069GF105991051081008001001001MD1999999+0031MW1051REMSYN088AAXX  01184 43003 21595 50903 10254 20239 40088 70596 85800 333 58003 6013/ 83620 83825;
0184430030999992000100306004+19110+072850FM-12+0014VABB V0209999C000012200019N0020001N1+03301+02381100911ADDAA199000091AY101061AY201061GA1001+999999999GF100991001001999999001001MD1999999-0111MW1041REMSYN064AAXX  03064 43003 31995 00000 10330 20238 40091 70400 333 59011;EQDQ01  00002PRCP99
0196430030999992000100315004+19110+072850FM-12+0014VABB V0202701N001512200019N0020001N1+02881+02511100841ADDAA199000091AY101031AY201031GA1011+006009059GF103991011051008001001011MD1999999+0241MW1051REMSYN076AAXX  03154 43003 31595 32703 10288 20251 40084 70500 81501 333 58024 81620;EQDQ01  00002PRCP99
0195430030999992000100801404+19110+072850FM-15+0014VABB V0209999C000012200019N0025001N1+02701+02201999999ADDGA1021+006009999GA2021+030009999GF104991999999999999999999MA1100911999999MW1051REMMET069VABB 080140Z 00000KT 2500 HZ FEW020 SCT100 27/22 Q1009 TEMPO 1500 BR;EQDQ01+000003PRSWM1Q02    003PRSWM1
0244430030999992000101121004+19110+072850FM-12+0014VABB V0209999C000010075019N0020001N1+02441+02351101031ADDAA100039192AA218039092AY191031AY261031GA1031+006009069GA2031+007509089GA3011+009009099GF107991061031008001031001MD1999999+0041MW1511REMSYN100AAXX  11214 43003 21595 70000 10244 20235 40103 75196 86330 333 58004 6039/ 83620 83825 81930 86360;
0215430030999992000101503004+19110+072850FM-12+0014VABB V0209999C000012200019N0020001N1+02881+02541101111ADDAA199000091AY111031AY201031GA1031+075009019GF103991001001999999001011KA1120N+02661MD1999999+0151MW1051REMSYN082AAXX  15034 43003 31995 30000 10288 20254 40111 70510 80001 333 20266 58015 83075;EQDQ01  00002PRCP99
0168430030999992000102309004+19110+072850FM-12+0014VABB V0202501N002612200019N0040001N1+03241+02541100711ADDAA199000091GA1011+006009059GF102991021081008001001001MD1999999+0021REMSYN070AAXX  23094 43003 32596 22505 10324 20254 40071 82800 333 58002 81620;EQDQ01  00002PRCP99
0145430030999992000102411404+19110+072850FM-15+0014VABB V0202701N004112200019N0050001N1+03001+02201999999ADDGF100991999999999999999999MA1100911999999MW1041REMMET051VABB 241140Z 27008KT 5000 FU SKC 30/22 Q1009 NOSIG;EQDQ01+000003PRSWM1Q02    003PRSWM1
0145430030999992000110119404+19110+072850FM-15+0014VABB V0209999C000012200019N0030001N1+02601+01501999999ADDGF100991999999999999999999MA1100811999999MW1041REMMET051VABB 011940Z 00000KT 3000 FU SKC 26/15 Q1008 NOSIG;EQDQ01+000003PRSWM1Q02    003PRSWM1
0168430030999992000110309004+19110+072850FM-12+0014VABB V0201401N001512200019N0040001N1+03521+01761101031ADDAA199000091GA1021+006009059GF104991021081008001031001MD1999999+0201REMSYN070AAXX  03094 43003 32596 41403 10352 20176 40103 82830 333 58020 82620;EQDQ01  00002PRCP99
0164430030999992000110504404+19110+072850FM-15+0014VABB V0202401N001512200019N0030001N1+03001+02201999999ADDGA1021+030009999GF104991999999999999999999MA1101391999999MW1041REMMET054VABB 050440Z 24003KT 3000 FU SCT100 30/22 Q1014 NOSIG;EQDQ01+000003PRSWM1Q02    003PRSWM1
0145430030999992000111014404+19110+072850FM-15+0014VABB V0202901N001512200019N0040001N1+02801+02101999999ADDGF100991999999999999999999MA1101081999999MW1041REMMET051VABB 101440Z 29003KT 4000 FU SKC 28/21 Q1011 NOSIG;EQDQ01+000003PRSWM1Q02    003PRSWM1
0164430030999992000112014404+19110+072850FM-15+0014VABB V0203001N001512200019N0040001N1+02701+02001999999ADDGA1021+075009999GF102991999999999999999999MA1101021999999MW1041REMMET054VABB 201440Z 30003KT 4000 FU FEW250 27/20 Q1010 NOSIG;EQDQ01+000003PRSWM1Q02    003PRSWM1
0145430030999992000112319404+19110+072850FM-15+0014VABB V0209999C000012200019N0025001N1+02501+01801999999ADDGF100991999999999999999999MA1101291999999MW1041REMMET051VABB 231940Z 00000KT 2500 FU SKC 25/18 Q1013 NOSIG;EQDQ01+000003PRSWM1Q02    003PRSWM1
0203430030999992000112412004+19110+072850FM-12+0014VABB V0203201N001512200019N0040001N1+03701+01471101151ADDAA199000091GA1041+075009019GF104991001001999999001011KA1120M+99999MD1999999+0001REMSYN076AAXX  24124 43003 32996 43203 10370 20147 40115 80001 333 10361 58000 84075;EQDQ01  00002PRCP99Q02 +03612ATMX  
0184430030999992000120318004+19110+072850FM-12+0014VABB V0209999C000012200019N0020001N1+02401+01651101401ADDAA199000091AY101061AY201061GA1001+999999999GF100991001001999999001001MD1999999+0051MW1041REMSYN064AAXX  03184 43003 31995 00000 10240 20165 40140 70400 333 58005;EQDQ01  00002PRCP99
0172430030999992000120901404+19110+072850FM-15+0014VABB V0209999C000012200019N0020001N1+02101+01401999999ADDGA1021+075009999GF102991999999999999999999MA1101191999999MW1041REMMET062VABB 090140Z 00000KT 2000 FU FEW250 21/14 Q1012 TEMPO 1500 FU;EQDQ01+000003PRSWM1Q02    003PRSWM1
0164430030999992000121202404+19110+072850FM-15+0014VABB V0209999C000012200019N0015001N1+02201+01601999999ADDGA1021+075009999GF102991999999999999999999MA1101391999999MW1041REMMET054VABB 120240Z 00000KT 1500 FU FEW250 22/16 Q1014 NOSIG;EQDQ01+000003PRSWM1Q02    003PRSWM1
0145430030999992000121313404+19110+072850FM-15+0014VABB V0203201N002112200019N0040001N1+02701+01701999999ADDGF100991999999999999999999MA1101081999999MW1041REMMET051VABB 131340Z 32004KT 4000 FU SKC 27/17 Q1011 NOSIG;EQDQ01+000003PRSWM1Q02    003PRSWM1
0145430030999992000121314404+19110+072850FM-15+0014VABB V0209999C000012200019N0040001N1+02601+01801999999ADDGF100991999999999999999999MA1101191999999MW1041REMMET051VABB 131440Z 00000KT 4000 FU SKC 26/18 Q1012 NOSIG;EQDQ01+000003PRSWM1Q02    003PRSWM1
0150430030999992000122106404+19110+072850FM-15+0014VABB V0200901N003612200019N0040001N1+03301+01201999999ADDGF100991999999999999999999MA1101291999999MW1041REMMET056VABB 210640Z 09007KT 4000 FU SKC 33/12 Q1013 BECMG 5000;EQDQ01+000003PRSWM1Q02    003PRSWM1
0164430030999992000122812404+19110+072850FM-15+0014VABB V0203101N002612200019N0030001N1+02701+01801999999ADDGA1021+030009999GF102991999999999999999999MA1100911999999MW1041REMMET054VABB 281240Z 31005KT 3000 FU FEW100 27/18 Q1009 NOSIG;EQDQ01+000003PRSWM1Q02    003PRSWM1
0222430030999992000123018004+19110+072850FM-12+0014VABB V0209999C00001007501CN0020001N1+02641+01481101151ADDAA100000791AA215999929AY151061AY221061GA1021+005409069GA2031+007509089GF107991041081004501031001MD1999999+0131MW1501REMSYN094AAXX  30184 43003 21495 70000 10264 20148 40115 75052 84830 333 58013 6990/ 82618 83825 85360;
0164430030999992000123123404+19110+072850FM-15+0014VABB V0209999C000012200019N0030001N1+01901+01701999999ADDGA1021+030009999GF102991999999999999999999MA1101021999999MW1051REMMET054VABB 312340Z 00000KT 3000 HZ FEW100 19/17 Q1010 NOSIG;EQDQ01+000003PRSWM1Q02    003PRSWM1
0189430140999992000011200004+19850+075400FM-12+0579VAAU V0209999C000012200019N0040001N1+01381+01091101241ADDAA106000091GA1021+006009059GF102991021051008001001001MA1999999094561MD1999999-0061REMSYN076AAXX  12004 43014 32596 20000 10138 20109 39456 40124 82500 333 59006 82620;EQDQ01  00002PRCP06
0230430140999992000020503004+19850+075400FM-12+0579VAAU V0202701N002612200019N0020001N1+01601+01251101351ADDAA199000091AY141031AY201031GA1031+060009019GF103991999999999999999999KA1120N+01391MA1999999094711MD1999999-0181MW1051REMSYN082AAXX  05034 43014 31995 32705 10160 20125 39471 40135 70540 333 20139 59018 83070;EQDQ01  00002PRCP99
0224430140999992000020603004+19850+075400FM-12+0579VAAU V0209999C000012200019N0005001N1+01701+01221101411ADDAA199000091AY141031AY241031GA1001+999999999GF100991001001999999001001KA1120N+01181MA1999999094791MD1999999+0081MW1051REMSYN076AAXX  06034 43014 31993 00000 10170 20122 39479 40141 70544 333 20118 58008;EQDQ01  00002PRCP99
0177430140999992000030900004+19850+075400FM-12+0579VAAU V0209999C000012200019N0040001N1+01641+00321101081ADDAA199000091GA1001+999999999GF100991001001999999001001MA1999999094491MD1999999-0081REMSYN064AAXX  09004 43014 32996 00000 10164 20032 39449 40108 333 59008;EQDQ01  00002PRCP99
0180430140999992000031112004+19850+075400FM-12+0579VAAU V0202701N005119999999N0040001N1+03421+00511100521ADDAA199000091GF106991999999999999999999KA1120M+03651MA1999999094341MD1999999+0001REMSYN070AAXX  11124 43014 32996 62710 10342 20051 39434 40052 333 10365 58000;EQDQ01  00002PRCP99
0177430140999992000031421004+19850+075400FM-12+0579VAAU V0209999C000012200019N0040001N1+01841+00711101131ADDAA199000091GA1001+999999999GF100991001001999999001001MA1999999094571MD1999999+0151REMSYN064AAXX  14214 43014 32996 00000 10184 20071 39457 40113 333 58015;EQDQ01  00002PRCP99
0176430140999992000031606004+19850+075400FM-12+0579VAAU V0209999C000012200019N0040001N1+02981+01211101071ADDAA199000091GA1001+999999999GF100991001001999999001001MA1999999094741MD1999999-0101REMSYN063AAXX  16064 43014 32996 00000 10298 20121 39474 40107333 59010;EQDQ01  00002PRCP99
0196430140999992000032803004+19850+075400FM-12+0579VAAU V0200901N002612200019N0040001N1+02741+00991101191ADDAA199000091GA1001+999999999GF100991001001999999001001KA1120N+01951MA1999999094821MD1999999-0031REMSYN070AAXX  28034 43014 32996 00905 10274 20099 39482 40119 333 20195 59003;EQDQ01  00002PRCP99
0177430140999992000041418004+19850+075400FM-12+0579VAAU V0202701N003112200019N0040001N1+03001+01721100421ADDAA199000091GA1001+999999999GF100991001001999999001001MA1999999094151MD1999999+0101REMSYN064AAXX  14184 43014 32996 02706 10300 20172 39415 40042 333 58010;EQDQ01  00002PRCP99
0196430140999992000041512004+19850+075400FM-12+0579VAAU V0203201N004112200019N0040001N1+03741+01581100031ADDAA199000091GA1001+999999999GF100991001001999999001001KA1120M+03871MA1999999093941MD1999999+0151REMSYN070AAXX  15124 43014 32996 03208 10374 20158 39394 40003 333 10387 58015;EQDQ01  00002PRCP99
0227430140999992000050515004+19850+075400FM-12+0579VAAU V0203601N003112200019N0040001N1+03281+01671100401ADDAA100000191AA212000291AY191031AY261031GA1041+007509089GF104991041031008001001001MA1999999094191MD1999999+0061MW1021REMSYN100AAXX  05154 43014 21596 43606 10328 20167 39419 40040 70296 84300 333 57942 58006 6992/ 84825 82930;
0177430140999992000051415004+19850+075400FM-12+0579VAAU V0202701N003112200019N0040001N1+03031+01621100401ADDAA199000091GA1001+999999999GF100991001001999999001001MA1999999094191MD1999999-0081REMSYN064AAXX  14154 43014 32996 02706 10303 20162 39419 40040 333 59008;EQDQ01  00002PRCP99
0208430140999992000052303004+19850+075400FM-12+0579VAAU V0202701N006212200019N0040001N1+02601+02101100581ADDAA199000091GA1041+030009079GF104991041001999999031001KA1120N+02361MA1999999094221MD1999999-0031REMSYN082AAXX  23034 43014 32996 42712 10260 20210 39422 40058 84030 333 20236 59003 84360;EQDQ01  00002PRCP99
0189430140999992000052318004+19850+075400FM-12+0579VAAU V0202701N004112200019N0040001N1+03001+02231100401ADDAA199000091GA1021+006009059GF102991021051008001001001MA1999999094131MD1999999-0011REMSYN076AAXX  23184 43014 32596 22708 10300 20223 39413 40040 82500 333 59001 82620;EQDQ01  00002PRCP99
0236430140999992000052912004+19850+075400FM-12+0579VAAU V0202501N004110075019N0040001N1+03521+02121100091ADDAA199000091GA1031+006009069GA2031+007509089GF106991051081008001001011KA1120M+03541MA1999999093951MD1999999+0081REMSYN094AAXX  29124 43014 32596 62508 10352 20212 39395 40009 85801 333 10354 58008 83620 83825 85075;EQDQ01  00002PRCP99
0195430140999992000053106004+19850+075400FM-12+0579VAAU V0209999C000010075019N0040001N1+03061+02111100581ADDAA199000091GA1031+006009069GF105991051041008001001001MA1999999094321MD1999999-0121REMSYN082AAXX  31064 43014 32596 50000 10306 20211 39432 40058 85400 333 59012 83620 83825;EQDQ01  00002PRCP99
0195430140999992000053109004+19850+075400FM-12+0579VAAU V0202901N006212200019N0040001N1+03441+01991100141ADDAA199000091GA1021+006009069GF104991041081008001001001MA1999999093991MD1999999-0211REMSYN082AAXX  31094 43014 32596 42912 10344 20199 39399 40014 84800 333 59021 82620 83825;EQDQ01  00002PRCP99
0236430140999992000060312004+19850+075400FM-12+0579VAAU V0209999C00001045001CN0040001N1+03441+02021099661ADDAA199000091GA1031+006009069GA2031+007509089GF106991041041008001031001KA1120M+03551MA1999999093531MD1999999-0021REMSYN094AAXX  03124 43014 32596 60000 10344 20202 39353 49966 84430 333 10355 59002 83620 83825 85360;EQDQ01  00002PRCP99
0243430140999992000063018004+19840+075390FM-12+0579VAAU V0209999C000010060019N0040001N1+02461+02351100051ADDAA100001091AA215001091AY151061AY221061GA1031+003009079GA2041+006009069GF108991061071004501021999MA1999999093701MD1999999-0121MW1521REMSYN100AAXX  30184 43014 21496 80000 10246 20235 39370 40005 75252 8672/ 333 59012 6001/ 83710 84620 88458;
0243430140999992000070106004+19840+075390FM-12+0579VAAU V0202501N005110054019N0040001N1+02441+02241100221ADDAA100000191AA203000191AY121061AY221061GA1041+002409079GA2041+005409069GF108991061071002501021999MA1999999093871MD1999999+0141MW1501REMSYN100AAXX  01064 43014 21396 82510 10244 20224 39387 40022 75022 8672/ 333 58014 6991/ 84708 84618 88458;
0262430140999992000081312004+19840+075390FM-12+0579VAAU V0202701N00511045001CN0040001N1+02801+02231100551ADDAA100000791AA209999929AY121061AY221061GA1031+004509069GA2031+007509069GF107991041081004501071001KA1120M+02921MA1999999094231MD1999999+0331MW1501REMSYN106AAXX  13124 43014 21496 72710 10280 20223 39423 40055 75022 84870 333 10292 58033 6990/ 83615 83625 85459;
0187430140999992000090121004+19840+075390FM-12+0579VAAU V0202501N003112200019N0040001N1+02161+02071100441ADDAA100000591AA218000591GA1041+006009059GF104991041051008001001001MA1999999094001MD1999999+0071REMSYN082AAXX  01214 43014 22596 42506 10216 20207 39400 40044 84500 333 58007 6995/ 84620;
0189430140999992000090806004+19840+075390FM-12+0579VAAU V0202701N002612200019N0040001N1+02781+02081100841ADDAA199000091GA1031+007509029GF103991031011008001001001MA1999999094491MD1999999+0161REMSYN076AAXX  08064 43014 32596 32705 10278 20208 39449 40084 83100 333 58016 83825;EQDQ01  00002PRCP99
0189430140999992000091300004+19840+075390FM-12+0579VAAU V0209999C000012200019N0040001N1+02001+01911100911ADDAA199000091GA1011+006009059GF101991011051008001001001MA1999999094401MD1999999+0121REMSYN076AAXX  13004 43014 32596 10000 10200 20191 39440 40091 81500 333 58012 81620;EQDQ01  00002PRCP99
0177430140999992000102315004+19840+075390FM-12+0579VAAU V0209999C000012200019N0040001N1+02381+01441100891ADDAA199000091GA1001+999999999GF100991001001999999001001MA1999999094471MD1999999+0031REMSYN064AAXX  23154 43014 32996 00000 10238 20144 39447 40089 333 58003;EQDQ01  00002PRCP99
0177430140999992000112715004+19840+075390FM-12+0579VAAU V0203201N003112200019N0040001N1+02041+01221101241ADDAA199000091GA1001+999999999GF100991001001999999001001MA1999999094711MD1999999-0131REMSYN064AAXX  27154 43014 32996 03206 10204 20122 39471 40124 333 59013;EQDQ01  00002PRCP99
0177430140999992000112718004+19840+075390FM-12+0579VAAU V0209999C000012200019N0040001N1+01961+01081101231ADDAA199000091GA1001+999999999GF100991001001999999001001MA1999999094691MD1999999-0161REMSYN064AAXX  27184 43014 32996 00000 10196 20108 39469 40123 333 59016;EQDQ01  00002PRCP99
0177430140999992000120215004+19840+075390FM-12+0579VAAU V0209999C000012200019N0040001N1+01801+00751101751ADDAA199000091GA1001+999999999GF100991001001999999001001MA1999999095121MD1999999+0211REMSYN064AAXX  02154 43014 32996 00000 10180 20075 39512 40175 333 58021;EQDQ01  00002PRCP99
0236430140999992000123012004+19840+075390FM-12+0579VAAU V0201401N002610300019N0040001N1+02661+01101100861ADDAA199000091AY121061AY221061GA1051+030009079GF105991051001999999031001KA1120M+02781MA1999999094501MD1999999-0131MW1051REMSYN088AAXX  30124 43014 31996 51405 10266 20110 39450 40086 70522 85030 333 10278 59013 85360;EQDQ01  00002PRCP99
0193430410999992000013118004+19080+082030FM-12+055399999V0209999C000012200019N0040001N1+01541+01031101681ADDAA199000091GA1001+999999999GF100991001001999999001001MA1999999094352MD1999999-0111REMSYN064AAXX  31184 43041 32996 00000 10154 20103 39435 40168 333 59011;EQDQ01+094353APOSP Q02  00002PRCP99
0177430410999992000020206004+19080+082030FM-12+055399999V0202301N001512200019N0100001N1+02641+01491101321ADDAA199000091GA1001+999999999GF100991001001999999001001MA1999999095231MD1999999-0081REMSYN064AAXX  02064 43041 32997 02303 10264 20149 39523 40132 333 59008;EQDQ01  00002PRCP99
0223430410999992000021206004+19080+082030FM-12+055399999V0202701N00101045001CN0040001N1+02521+01921101241ADDAA199000091AY121061AY221061GA1041+007509069GF108991041051004501021999MA1999999095131MD1999999+0201MW1031REMSYN088AAXX  12064 43041 31496 82702 10252 20192 39513 40124 70322 8452/ 333 58020 84625 88458;EQDQ01  00002PRCP99
0195430410999992000022318004+19080+082030FM-12+055399999V0209999C00001045001CN0040001N1+02201+01901101261ADDAA199000091GA1041+007509069GF106991041051008001031001MA1999999095081MD1999999+0011REMSYN082AAXX  23184 43041 32596 60000 10220 20190 39508 40126 84530 333 58001 84625 84360;EQDQ01  00002PRCP99
0177430410999992000030918004+19080+082030FM-12+055399999V02099999999992200019N0040001N1+01961+01081101031ADDAA199000091GA1001+999999999GF100991001001999999001001MA1999999094821MD1999999+0091REMSYN064AAXX  09184 43041 32996 000/0 10196 20108 39482 40103 333 58009;EQDQ01  00002PRCP99
0228430410999992000040703004+19080+082030FM-12+055399999V0202301N001512200019N0100001N1+02881+01831101021ADDAA199000091GA1001+999999999GF100991001001999999001001KA1120N+02381MA1999999999999MD1999999+0241REMSYN070AAXX  07034 43041 32997 02303 10288 20183 3999/ 40102 333 20238 58024;EQDQ01+099903APOSP Q02  00002PRCP99Q03 099903APOSP 
0196430410999992000040903004+19080+082030FM-12+055399999V0209999V001012200019N0040001N1+03021+02131100711ADDAA199000091GA1001+999999999GF100991001001999999001001KA1120N+02301MA1999999094731MD1999999-0331REMSYN070AAXX  09034 43041 32996 09902 10302 20213 39473 40071 333 20230 59033;EQDQ01  00002PRCP99
0177430410999992000042806004+19080+082030FM-12+055399999V0203601N001512200019N0100001N1+03861+01461100131ADDAA199000091GA1001+999999999GF100991001001999999001001MA1999999094331MD1999999+0061REMSYN064AAXX  28064 43041 32997 03603 10386 20146 39433 40013 333 58006;EQDQ01  00002PRCP99
0245430410999992000052815004+19080+082030FM-12+055399999V0202901N002110075019N0040001N1+02841+02111100461ADDAA199000091AY191031AY291031GA1051+007509069GA2011+009009099GF108991051091008001031999MA1999999094461MD1999999+0161MW1131REMSYN094AAXX  28154 43041 31596 82904 10284 20211 39446 40046 71399 8593/ 333 58016 85625 81930 87360;EQDQ01  00002PRCP99
0208430410999992000061003004+19080+082030FM-12+055399999V0202301N002112200019N0100001N1+02861+02261100411ADDAA199000091GA1011+009009029GF101991011011008001001001KA1120N+02451MA1999999094411MD1999999-0051REMSYN082AAXX  10034 43041 32597 12304 10286 20226 39441 40041 81100 333 20245 59005 81830;EQDQ01  00002PRCP99
0248430410999992000071103004+19790+082300FM-12+055399999V0209999C000010075019N0040001N1+02401+02341099811ADDAA100001091AA224001091AY151031AY221031GA1031+004509079GA2051+007509069GF108991061071004501021999KA1120N+02341MA1999999093751MW1501REMSYN106AAXX  11034 43041 21496 80000 10240 20234 39375 49981 75052 8672/ 333 20234 5629/ 6001/ 83715 85625 88458;
0249430410999992000071606004+19790+082300FM-12+055399999V0202701N002110075019N0040001N1+02541+02191100191ADDAA100000791AA203999929AY161061AY251061GA1041+004509079GA2061+007509069GF108991061071004501021999MA1999999094151MD1999999-0081MW1601REMSYN106AAXX  16064 43041 21496 82704 10254 20219 39415 40019 76065 8672/ 333 5669/ 59008 6990/ 84715 86625 88458;
0214430410999992000072512004+19070+082020FM-12+055399999V0209999C00001045001CN0040001N1+02751+02171100321ADDAA199000091GA1031+007509069GF108991031051008001011999KA1120M+02891MA1999999094311MD1999999+0011REMSYN088AAXX  25124 43041 32596 80000 10275 20217 39431 40032 8351/ 333 10289 58001 83625 87458;EQDQ01  00002PRCP99
0243430410999992000072918004+19070+082020FM-12+055399999V0209999C000010060019N0040001N1+02501+02271100561ADDAA100002091AA215002091AY191061AY261061GA1031+004509079GA2051+006009069GF108991051061004501021999MA1999999094481MD1999999+0151MW1021REMSYN100AAXX  29184 43041 21496 80000 10250 20227 39448 40056 70296 8562/ 333 58015 6002/ 83715 85620 88458;
0193430410999992000073100004+19070+082020FM-12+055399999V0209999C000010060019N0040001N1+02401+02311100561ADDAA100002091AA221002091GA1051+006009069GF107991031051008001031001MA1999999094421MD1999999+0011REMSYN088AAXX  31004 43041 22596 70000 10240 20231 39442 40056 83530 333 58001 6002/ 85620 87360;
0195430410999992000080606004+19070+082020FM-12+055399999V0209999C00001045001CN0040001N1+02701+02361100531ADDAA199000091GA1041+007509069GF108991041051008001011999MA1999999094491MD1999999-0031REMSYN082AAXX  06064 43041 32596 80000 10270 20236 39449 40053 8451/ 333 59003 84625 87458;EQDQ01  00002PRCP99
0243430410999992000082121004+19070+082020FM-12+055399999V0202701N001010045019N0020001N1+02421+02361099861ADDAA100049091AA218049091AY191031AY261031GA1051+004509079GA2011+010509099GF108991051091004501021999MA1999999093821MD1999999-0141MW1961REMSYN100AAXX  21214 43041 21495 82702 10242 20236 39382 49986 79696 8592/ 333 59014 6049/ 85715 81935 88458;
0236430410999992000090412004+19070+082020FM-12+055399999V0202301N00101045001CN0040001N1+99999+99999100281ADDAA199000091GA1031+007509069GA2011+010509099GF107991041091008001011999KA1120M+03041MA1999999094281MD1999999+0151REMSYN094AAXX  04124 43041 32596 72302 10/// 20213 39428 40028 8491/ 333 10304 58015 83625 81935 85458;EQDQ01  00002PRCP99
0195430410999992000091309004+19070+082020FM-12+055399999V0203601N001012200019N0100001N1+03121+02111100311ADDAA199000091GA1021+007509069GF104991041041008001001001MA1999999094381MD1999999+0021REMSYN082AAXX  13094 43041 32597 43602 10312 20211 39438 40031 84400 333 58002 82625 84830;EQDQ01  00002PRCP99
0195430410999992000091321004+19070+082020FM-12+055399999V0209999C00001045001CN0040001N1+02501+02211100571ADDAA199000091GA1031+007509069GF106991031051008001031001MA1999999094491MD1999999+0041REMSYN082AAXX  13214 43041 32596 60000 10250 20221 39449 40057 83530 333 58004 83625 85360;EQDQ01  00002PRCP99
0195430410999992000092021004+19070+082020FM-12+055399999V0209999C00001045001CN0040001N1+02361+02191100671ADDAA199000091GA1031+006009069GF107991031051008001011001MA1999999094561MD1999999-0061REMSYN082AAXX  20214 43041 32596 70000 10236 20219 39456 40067 83510 333 59006 83620 87458;EQDQ01  00002PRCP99
0177430410999992000100600004+19070+082020FM-12+055399999V0209999C000012200019N0040001N1+02281+02161101021ADDAA199000091GA1001+999999999GF100991001001999999001001MA1999999094871MD1999999+0081REMSYN064AAXX  06004 43041 32996 00000 10228 20216 39487 40102 333 58008;EQDQ01  00002PRCP99
0236430410999992000102903004+19070+082020FM-12+055399999V0201401N001012200019N0040001N1+02201+01601101231ADDAA199000091AY141031AY201031GA1021+030009079GF102991021001999999031001KA1120N+01601MA1999999095051MD1999999+0021MW1051REMSYN088AAXX  29034 43041 31996 21402 10220 20160 39505 40123 70540 82030 333 20160 58002 82360;EQDQ01  00002PRCP99
0244430410999992000102921004+19070+082020FM-12+055399999V0209999C000012200019N0040001N1+01981+01761999999ADDAA199000091GA1011+007509069GF103991999999008001001011MD1999999+0071REMSYN082AAXX  29214 43041 32596 30000 10198 20176 39416 40018 80001 333 58007 81625 83075;EQDQ01+000002SCOTLCQ02+000002SCOLCGQ03+094163APOSP Q04+100183APOSLPQ05  00002PRCP99
0205430410999992000110106004+19070+082020FM-12+055399999V0200901N000512200019N0100001N1+02921+01661101081ADDAA199000091GA1011+009009029GF199999001001999999001001MA1999999095071MD1999999+0111REMSYN076AAXX  01064 43041 32597 00901 10292 20166 39507 40108 81100 333 58011 81830;EQDQ01+000002SCOTCVQ02  00002PRCP99
0189430410999992000112021004+19070+082020FM-12+055399999V0209999C000012200019N0040001N1+01541+01371101221ADDAA199000091GA1031+075009019GF103991001001999999001011MA1999999094911MD1999999-0121REMSYN076AAXX  20214 43041 32996 30000 10154 20137 39491 40122 80001 333 59012 83075;EQDQ01  00002PRCP99
0177430410999992000120415004+19070+082020FM-12+055399999V0209999C000012200019N0040001N1+01641+01031101641ADDAA199000091GA1001+999999999GF100991001001999999001001MA1999999095321MD1999999+0081REMSYN064AAXX  04154 43041 32996 00000 10164 20103 39532 40164 333 58008;EQDQ01  00002PRCP99
0205430410999992000121406004+19070+082020FM-12+055399999V0200501N002112200019N0100001N1+02481+00691101401ADDAA199000091AY141061AY201061GA1001+999999999GF100991001001999999001001MA1999999095271MD1999999+0041MW1001REMSYN070AAXX  14064 43041 31997 00504 10248 20069 39527 40140 70040 333 58004;EQDQ01  00002PRCP99
0177430630999992000010218004+18530+073850FM-12+055999999V0209999C000012200019N0040001N1+01561+01211101491ADDAA106000091GA1001+999999999GF100991001001999999001001MA1999999095091MD1999999+0011REMSYN064AAXX  02184 43063 32996 00000 10156 20121 39509 40149 333 58001;EQDQ01  00002PRCP06
0236430630999992000020303004+18530+073850FM-12+055999999V0209999C000010600019N0040001N1+01621+01491101671ADDAA199000091AY141031AY221031GA1061+060009019GF106991001001999999001011KA1120N+01221MA1999999095281MD1999999+0221MW1051REMSYN088AAXX  03034 43063 31996 60000 10162 20149 39528 40167 70542 80001 333 20122 58022 86070;EQDQ01  00002PRCP99
0205430630999992000020406004+18530+073850FM-12+055999999V0201801N000512200019N0100001N1+02881+01151101241ADDAA199000091AY141061AY201061GA1001+999999999GF100991001001999999001001MA1999999095111MD1999999-0221MW1001REMSYN070AAXX  04064 43063 31997 01801 10288 20115 39511 40124 70040 333 59022;EQDQ01  00002PRCP99
0224430630999992000022803004+18530+073850FM-12+055999999V0209999C000012200019N0040001N1+02061+01251101471ADDAA199000091AY141031AY201031GA1001+999999999GF100991001001999999001001KA1120N+01331MA1999999095171MD1999999+0181MW1051REMSYN076AAXX  28034 43063 31996 00000 10206 20125 39517 40147 70540 333 20133 58018;EQDQ01  00002PRCP99
0205430630999992000032406004+18530+073850FM-12+055999999V0200901N000512200019N0100001N1+03141+00411101191ADDAA199000091AY141061AY201061GA1001+999999999GF100991001001999999001001MA1999999095121MD1999999+0021MW1001REMSYN070AAXX  24064 43063 31997 00901 10314 20041 39512 40119 70040 333 58002;EQDQ01  00002PRCP99
0177430630999992000041006004+18530+073850FM-12+055999999V0203201N002112200019N0100001N1+03721+00271100601ADDAA199000091GA1001+999999999GF100991001001999999001001MA1999999094691MD1999999-0101REMSYN064AAXX  10064 43063 32997 03204 10372 20027 39469 40060 333 59010;EQDQ01  00002PRCP99
0214430630999992000042112004+18530+073850FM-12+055999999V0203201N00411045001CN0100001N1+03341+01971100331ADDAA199000091GA1021+008409069GF106991021051008001031001KA1120M+03861MA1999999094351MD1999999+0121REMSYN088AAXX  21124 43063 32597 63208 10334 20197 39435 40033 82530 333 10386 58012 82628 84356;EQDQ01  00002PRCP99
