0137872570999992000081622004-29880-061940FM-15+0088SANW V0200501N004112200019N0060001N1+01801+00701999999ADDGF100991999999999999999999MA1101191999999MW1051REMMET043SANW 2200Z 05008KT 6000 HZ SKC 18/07 Q1012;EQDQ01+000003PRSWM1Q02    003PRSWM1
0104872570999992000090708004-29880-061940FM-15+0088SANW V0200201N006712200019N0112651N1+01601+01001999999ADDGF100991999999999999999999MW1001REMMET041SANW 070800Z 02013KT 9999 SKC 16/10 1006;EQDQ01+000000PRSWM2
0129872570999992000090921004-29880-061940FM-12+0088SANW V0200701N006712200019N0150001N1+02341+01941100071ADDGA1001+999999999GF100991001001999999001001MA1999999099061REMSYN060AAXX  09214 87257 42965 00713 10234 20194 39906 40007 5////;
0156872570999992000100722004-29880-061940FM-15+0088SANW V02099999999992200019N0080001N1+02601+01001999999ADDGA1021+060009999GF102991999999999999999999MA1101191999999MW1041REMMET046SANW 072200Z 05005 8000 FU FEW200 26/10 Q1012;EQDQ01+000003PRSWM1Q02    003PRSWM1
0293872570999992000100912004-29880-061940FM-12+0088SANW V0201801N009310090019N0150001N1+01661+01141101211ADDAA124003091AY191061AY261061GA1061+009009069GA2031+012009059GF107991061091008001021001KA1120M+02401KA2120N+01621MA1999999100191MW1221REMSYN130AAXX  09124 87257 /1565 71818 10166 20114 30019 40121 5//// 60034 72296 86920 333 10240 20162 56440 57990 60034 86630 83540 81950;EQDQ01+000002PRSWM1
0215872570999992000101312004-29880-061940FM-12+0088SANW V0201401N006712200019N0150001N1+01801+01051101331ADDAA199000091GA1001+999999999GF100991001001999999001001KA1120M+02321KA2999N+01301MA1999999100301MD1210211+9999REMSYN076AAXX  13124 87257 32965 01413 10180 20105 30030 40133 52021 333 10232 20130;EQDQ01  00002PRCP99
0165872570999992000101403004-29880-061940FM-12+0088SANW V0201401N009310090019N0150001N1+02021+01631101661ADDGA1061+009009059GF107991061051008001071001MA1999999100631MD1210271+9999REMSYN082AAXX  14034 87257 42565 71418 10202 20163 30063 40166 52027 86570 333 56230 86630;
0174872570999992000102300004-29880-061940FM-15+0088SANW V0201401N001010021019N0050001N1+99999+99999999999ADDGA1071+002109999GA2081+009009999GF108991999999999999999999MW1001MW2811MW3951REMMET067SANW 230000Z 14002KT 5000 TSRA BKN007 OVC030 SCT CB050 18/17 Q1014;EQDQ01+000003PRSWM1
0158872570999992000102601004-29880-061940FM-15+0088SANW V0201801N004110075019N0080001N1+02001+01901999999ADDGA1071+007509999GF107991999999999999999999MA1101191999999MW1101REMMET048SANW 260100Z 18008KT 8000 BR BKN025 20/19 Q1012;EQDQ01+000003PRSWM1Q02    003PRSWM1
0165872570999992000110903004-29880-061940FM-12+0088SANW V0201401N004110120019N0150001N1+02041+02001101031ADDGA1051+012009059GF107991051051999999071061MA1999999100021MD1210151+9999REMSYN082AAXX  09034 87257 42965 71408 10204 20200 30002 40103 52015 85576 333 56677 85640;
0143872570999992000111703004-29880-061940FM-12+0088SANW V0203601N002612200019N0150001N1+01621+01221101871ADDGA1001+999999999GF100991001001999999001001MA1999999100851MD1210171+9999REMSYN060AAXX  17034 87257 42965 03605 10162 20122 30085 40187 52017;
0171872570999992000111909004-29880-061940FM-12+0088SANW V0203601N004112200019N0030001N1+01801+01601100531ADDAY101031AY201031GA1001+999999999GF100991001001999999001001MA1999999099531MD1210071+9999MW1101REMSYN066AAXX  19094 87257 41930 03608 10180 20160 39953 40053 52007 71000;
0173872570999992000122006004-29880-061940FM-12+0088SANW V0201101N001012200019N0150001N1+02021+01761101101ADDAA199000091GF104991031001999999071061MA1999999100101MD1710131+9999REMSYN076AAXX  20064 87257 32965 41102 10202 20176 30010 40110 57013 83076 333 56066;EQDQ01  00002PRCP99
0210872700999992000013106004-29180-059670FM-12+005399999V0201401N005710024019N0030001N1+02041+01981100941ADDAA106003091AY151061AY251061GA1081+002409069GF108991081061002501999999MA1999999100331MD1810051+9999MW1511REMSYN094AAXX  31064 87270 11330 81411 10204 20198 30033 40094 58005 60031 75155 886// 333 56399 88708;
0143872700999992000020415004-29180-059670FM-12+005399999V0201601N002612200019N0150001N1+02941+01941100811ADDGA1001+999999999GF100991001001999999001001MA1999999100211MD1810011+9999REMSYN060AAXX  04154 87270 42965 01605 10294 20194 30021 40081 58001;
0239872700999992000020512004-29180-059670FM-12+005399999V0209999C000012200019N0150001N1+02521+01871100991ADDAA199000091GA1001+999999999GF100991001001999999001001IA1019IA2999+01409KA1120M+02701KA2120N+01981MA1999999100381MD1110171+9999REMSYN082AAXX  05124 87270 32965 00000 10252 20187 30038 40099 51017 333 10270 20198 30014;EQDQ01  00002PRCP99
0227872700999992000022515004-29180-059670FM-12+005399999V0200501N003110105019N0080001N1+02301+02231100971ADDAY161031AY221031GA1021+002409079GA2081+010509059GF108991031091002501021999MA1999999100361MD1310011+9999MW1601REMSYN106AAXX  25154 87270 41358 80506 10230 20223 30036 40097 53001 76062 8392/ 333 56179 57970 82708 88535 81950;
0165872700999992000022821004-29180-059670FM-12+005399999V0201401N005119999999N0150001N1+02521+01031101461ADDGA1041+030009079GF105991041001999999071021MA1999999100851MD1610171+9999REMSYN082AAXX  28214 87270 42965 51410 10252 20103 30085 40146 56017 84072 333 56077 84360;
0195872700999992000030418004-29180-059670FM-12+005399999V0201101N003110060019N0150001N1+02681+02111101121ADDAA199000091GA1071+006009059GF107991071051008001001001MA1999999100501MD1710121+9999REMSYN082AAXX  04184 87270 32565 71106 10268 20211 30050 40112 57012 87500 333 56300 87620;EQDQ01  00002PRCP99
0204872700999992000040206004-29180-059670FM-12+005399999V0201401N001510300019N0100001N1+01901+01701102201ADDAA199000021AY161061AY221061GA1071+030009079GF107991071001999999071001MA1999999101581MD1810011+9999MW1101REMSYN088AAXX  02064 87270 31960 71403 10190 20170 30158 40220 58001 71062 87070 333 56070 87360;
0165872700999992000040815004-29180-059670FM-12+005399999V0203601N005112200019N0150001N1+03001+02341101091ADDGA1021+010509059GF103991021041012501081001MA1999999100491MD1810031+9999REMSYN082AAXX  08154 87270 42665 33610 10300 20234 30049 40109 58003 82480 333 56550 82635;
0215872700999992000041300004-29180-059670FM-12+005399999V0201801N001512200019N0150001N1+01581+01441101461ADDAA199000091GA1001+999999999GF100991001001999999001001KA1120M+02181KA2999N+01581MA1999999100821MD1210031+9999REMSYN076AAXX  13004 87270 32565 01803 10158 20144 30082 40146 52003 333 10218 20158;EQDQ01  00002PRCP99
0216872700999992000041618004-29180-059670FM-12+005399999V0201101N005110021019N0080001N1+01991+01911101291ADDAA106004191AY161061AY251061GA1071+002109079GF108991071071002501021999MA1999999100661MD1810241+9999MW1511REMSYN100AAXX  16184 87270 11358 81110 10199 20191 30066 40129 58024 60041 75165 8772/ 333 56279 87707 88535;
0143872700999992000042315004-29180-059670FM-12+005399999V0200201N002612200019N0150001N1+02301+01491101671ADDGA1001+999999999GF100991001001999999001001MA1999999101051MD1010001+9999REMSYN060AAXX  23154 87270 42965 00205 10230 20149 30105 40167 50000;
0205872700999992000050103004-29180-059670FM-12+005399999V0200201N002612200019N0150001N1+02361+02121100921ADDAY101031AY201031GA1011+015009099GF103991011091017501071001MA1999999100321MD1210051+9999MW1131REMSYN100AAXX  01034 87270 41765 30205 10236 20212 30032 40092 52005 71300 81970 333 56080 57948 81950 83360;
0143872700999992000050903004-29180-059670FM-12+005399999V0209999C000012200019N0150001N1+01211+01001101951ADDGA1001+999999999GF100991001001999999001001MA1999999101321MD1110011+9999REMSYN060AAXX  09034 87270 42965 00000 10121 20100 30132 40195 51001;
0195872700999992000051218004-29180-059670FM-12+005399999V0200201N001010300019N0150001N1+02261+01171101541ADDAA199000091GA1081+030009079GF108991081001999999071999MA1999999100921MD1710241+9999REMSYN082AAXX  12184 87270 32965 80202 10226 20117 30092 40154 57024 8807/ 333 56089 88360;EQDQ01  00002PRCP99
0284872700999992000051812004-29180-059670FM-12+005399999V0201601N00311002101CN0100001N1+01491+01401102251ADDAA106003091AY151061AY221061GA1021+002109069GF108991081051002501999999IA1119IA2120+01409KA1120M+01491KA2120N+01401MA1999999101621MD1210161+9999MW1101REMSYN124AAXX  18124 87270 /1360 81606 10149 20140 30162 40225 52016 60034 71052 885// 333 10149 20140 32014 56399 60031 82607 88625;
0165872700999992000052109004-29180-059670FM-12+005399999V0209999C000012200019N0150001N1+00941+00861102121ADDGA1011+060009019GF101991001001999999001011MA1999999101481MD1510091+9999REMSYN082AAXX  21094 87270 42965 10000 10094 20086 30148 40212 55009 80001 333 56007 81070;
0215872700999992000052900004-29180-059670FM-12+005399999V0200501N002612200019N0150001N1+01471+00991101571ADDAA199000091GA1001+999999999GF100991001001999999001001KA1120M+02161KA2999N+01281MA1999999100941MD1310051+9999REMSYN076AAXX  29004 87270 32965 00505 10147 20099 30094 40157 53005 333 10216 20128;EQDQ01  00002PRCP99
0227872700999992000072206004-29180-059670FM-12+005399999V0202001N006212200019N0150001N1+00931+00581101261ADDAA199000091GA1031+030009079GF199999999001999999001001MA1999999100621MD1210041+9999REMSYN082AAXX  22064 87270 32965 02012 10093 20058 30062 40126 52004 83070 333 56070 83360;EQDQ01+000002SCOTCVQ02+000002SCOTLCQ03  00002PRCP99
0171872700999992000072621004-29180-059670FM-12+005399999V0200701N004612200019N0080001N1+01801+00541101901ADDAY101031AY201031GA1001+999999999GF100991001001999999001001MA1999999101261MD1610121+9999MW1041REMSYN066AAXX  26214 87270 41958 00709 10180 20054 30126 40190 56012 70400;
0267872700999992000072812004-29180-059670FM-12+005399999V0201601N002112200019N0050001N1+00811+00751102181ADDAA199000091AY101061AY201061GA1001+999999999GF100991001001999999001001IA1019IA2999+00009KA1120M+01281KA2120N+00471MA1999999101541MD1210111+9999MW1101REMSYN088AAXX  28124 87270 31950 01604 10081 20075 30154 40218 52011 71000 333 10128 20047 30000;EQDQ01  00002PRCP99
0285872700999992000082112004-29180-059670FM-12+005399999V0200201N007210300019N0060001N1+02101+01461101051ADDAA199000091AY111061AY211061GA1081+030009079GF108991081001999999071999IA1019IA2120+01609KA1120M+02281KA2120N+01871MA1999999100441MD1210131+9999MW1051REMSYN106AAXX  21124 87270 31956 80214 10210 20146 30044 40105 52013 70511 8807/ 333 10228 20187 30016 56079 88360;EQDQ01  00002PRCP99
0257872700999992000083112004-29180-059670FM-12+005399999V0202001N009312200019N0150001N1+00801+00111102251ADDAA199000091GA1011+060009019GF101991001001999999001021IA1019IA2120+00609KA1120M+02231KA2120N+00781MA1999999101621MD1210251+9999REMSYN100AAXX  31124 87270 32965 12018 10080 20011 30162 40225 52025 80002 333 10223 20078 30006 56006 81070;EQDQ01  00002PRCP99
0184872700999992000083121004-29180-059670FM-12+005399999V0201801N004612200019N0150001N1+01481-00031102021ADDGA1011+060009089GF101991999001999999001051MA1999999101401MD1610031+9999REMSYN082AAXX  31214 87270 42965 11809 10148 21003 30140 40202 56003 80005 333 56007 81270;EQDQ01+000002SCOTLC
0143872700999992000090615004-29180-059670FM-12+005399999V0200201N005112200019N0040001N1+02521+00931101521ADDGA1001+999999999GF100991001001999999001001MA1999999100901MD1710091+9999REMSYN060AAXX  06154 87270 44296 00210 10252 20093 30090 40152 57009;
0201872700999992000090918004-29180-059670FM-12+005399999V0201101N00511036001CN0150001N1+02161+01601100341ADDAA199000091GA1021+009009069GF108991021051008001071999MA1999999099731MD1710131+9999REMSYN088AAXX  09184 87270 32565 81110 10216 20160 39973 40034 57013 8257/ 333 56459 82630 88360;EQDQ01  00002PRCP99
0210872700999992000091506004-29180-059670FM-12+005399999V0201801N005110012019N0100001N1+00981+00901102311ADDAA106000191AY151061AY251061GA1081+001209069GF108991081071001501999999MA1999999101681MD1710171+9999MW1511REMSYN094AAXX  15064 87270 11260 81810 10098 20090 30168 40231 57017 69921 75155 887// 333 56499 88704;
0171872700999992000091715004-29180-059670FM-12+005399999V0200701N00621036001CN0150001N1+02201+01321101751ADDGA1021+009009069GF107991021051008001071001MA1999999101131MD1510151+9999REMSYN088AAXX  17154 87270 42565 70712 10220 20132 30113 40175 55015 82570 333 56180 82630 87360;
0171872700999992000101503004-29180-059670FM-12+005399999V0200901N00621036001CN0150001N1+02121+01771101911ADDGA1041+006009069GF107991041051008001071001MA1999999101291MD1010111+9999REMSYN088AAXX  15034 87270 42565 70912 10212 20177 30129 40191 50011 84570 333 56330 84620 83360;
0171872700999992000102409004-29180-059670FM-12+005399999V0201601N006210030019N0150001N1+01741+01661101531ADDGA1051+003009079GF108991081051004501999999MA1999999100901MD1610051+9999REMSYN088AAXX  24094 87270 42465 81612 10174 20166 30090 40153 56005 885// 333 56399 85710 88620;
0173872700999992000103106004-29180-059670FM-12+005399999V0200501N003112200019N0150001N1+01981+01551101051ADDAA199000091GA1001+999999999GF100991001001999999001001MA1999999100451MD1810051+9999REMSYN060AAXX  31064 87270 32965 00506 10198 20155 30045 40105 58005;EQDQ01  00002PRCP99
0143872700999992000112703004-29180-059670FM-12+005399999V0209999C000012200019N0150001N1+02421+01991100761ADDGA1001+999999999GF100991001001999999001001MA1999999100161MD1110081+9999REMSYN060AAXX  27034 87270 42965 00000 10242 20199 30016 40076 51008;
0235872700999992000112806004-29180-059670FM-12+005399999V0200501N00411036001CN0150001N1+02161+01971100721ADDAA199000091AY111061AY211061GA1011+015009099GF107991011091017501071061MA1999999100101MD1610041+9999MW1131REMSYN100AAXX  28064 87270 31765 70508 10216 20197 30010 40072 56004 71311 81976 333 56444 57945 81950 85360;EQDQ01  00002PRCP99
0210872700999992000121406004-29180-059670FM-12+005399999V0209999C000012200019N0150001N1+02341+02131100261ADDAA199000021AY191061AY221061GA1011+009009069GF103991011051008001071001MA1999999099661MD1710051+9999MW1011REMSYN094AAXX  14064 87270 31565 30000 10234 20213 39966 40026 57005 70192 81570 333 56660 81630 83360;
0227872700999992000122021004-29180-059670FM-12+005399999V0201801N003610120019N0120001N1+02641+01971100811ADDAY191031AY221031GA1021+010509069GA2071+012009059GF108991021091012501021999MA1999999100201MD1610211+9999MW1951REMSYN106AAXX  20214 87270 41662 81807 10264 20197 30020 40081 56021 79592 8292/ 333 56559 57900 82635 87540 81950;
0306872890999992000010512004-29680-057150SY-MT+0070SARL V0200201N004110240019N0200001N1+02681+01621100831ADDAA106000091GA1071+024009999GF107991001001999999001061KA1120M+02701KA2120N+01981MA1100811100041MD1210231+9999MW1001REMSYN094AAXX  05124 87289 32970 70208 10268 20162 30004 40083 52023 80006 333 10270 20198 56000 87289;MET045SARL 051200Z 02008KT 9999 BKN089 27/16 Q1008;EQDQ01+000000PRSWM2Q02  00002PRCP06
0121872890999992000010711004-29680-057150FM-15+0070SARL V0200901N009812200019N0112651N1+02601+02001999999ADDGF100991999999999999999999MA1101191999999MW1001REMMET043SARL 071100Z 090019KT 9999 SKC 26/20 Q1012;EQDQ01+000000PRSWM2
0154872890999992000011019004-29680-057150FM-15+0070SARL V0201801N01701220001CN0112651N1+02402+02001999999ADDGA1071+006009999GA2021+012009099MA1100811999999MW1001REMMET054SARL 101900Z 18033KT 9999 BKN020 FEW040CB 24/20 Q1008;EQDQ01+000022SCOTCVQ02+000000PRSWM2
0139872890999992000011402004-29680-057150FM-15+0070SARL V0209999C000010210019N0112651N1+02701+02401999999ADDGA1071+021009999GF107991999999999999999999MA1100511999999MW1001REMMET045SARL 140200Z 00000KT 9999 BKN070 27/24 Q1005;EQDQ01+000000PRSWM2
0162872890999992000011411004-29680-057150FM-15+0070SARL V0209999C000010300019N0112651N1+02401+02201999999ADDGA1021+006009999GA2081+030009999GF108991999999999999999999MA1100811999999MW1001REMMET052SARL 141100Z 00000KT 9999 FEW020 OVC100 24/22 Q1008;EQDQ01+000000PRSWM2
0200872890999992000012609004-29680-057150SY-MT+0070SARL V0209999C000012200019N0200001N1+01901+01571101491ADDGF100991001001999999001001MA1101491100691MD1210111+9999MW1001REMSYN060AAXX  26094 87289 42970 00000 10190 20157 30069 40149 52011;MET042SARL 260900Z 00000KT 9999 SKC 19/16 Q1015;EQDQ01+000000PRSWM2
0155872890999992000020202004-29680-057150FM-15+0070SARL V0200901N002112200019N0112651N1+02501+01901999999ADDGA1021+024009999GF102991999999999999999999MA1100812999999MW1001REMMET045SARL 020200Z 09004KT 9999 FEW080 25/19 Q1008;EQDQ01+100813APOA  Q02+000000PRSWM2
0120872890999992000020205004-29680-057150FM-15+0070SARL V0209999C000012200019N0112651N1+02201+02001999999ADDGF100991999999999999999999MA1100711999999MW1001REMMET042SARL 020500Z 00000KT 9999 SKC 22/20 Q1007;EQDQ01+000000PRSWM2
0222872890999992000020303004-29680-057150SY-MT+0070SARL V0209999C000019999999N0200001N1+02641+02041100661ADDGF108991081001999999031999MA1100711099861MD1210051+9999MW1001REMSYN082AAXX  03034 87289 42970 80000 10264 20204 39986 40066 52005 8803/ 333 56099 88364;MET042SARL 030300Z 00000KT 9999 SKC 26/20 Q1007;EQDQ01+000000PRSWM2
0139872890999992000020517004-29680-057150FM-15+0070SARL V0201401N003110060019N0112651N1+03401+01601999999ADDGA1071+006009999GF107991999999999999999999MA1101021999999MW1001REMMET045SARL 051700Z 14006KT 9999 BKN020 34/16 Q1010;EQDQ01+000000PRSWM2
0120872890999992000020602004-29680-057150FM-15+0070SARL V0209999C000012200019N0112651N1+02501+01701999999ADDGF100991999999999999999999MA1101081999999MW1001REMMET042SARL 060200Z 00000KT 9999 SKC 25/17 Q1011;EQDQ01+000000PRSWM2
0249872890999992000021006004-29680-057150SY-MT+0070SARL V0209999C000012200019N0100001N1+01941+01911100731ADDAA199000021AY101061AY201061GF100991001001999999001001MA1100711099941MD1710161+9999MW1101REMSYN066AAXX  10064 87289 31960 00000 10194 20191 39994 40073 57016 71000;MET042SARL 100600Z 00000KT 9999 SKC 19/19 Q1007;EQDQ01+000000PRSWM2Q02    003PRSWM1
0227872890999992000021206004-29680-057150SY-MT+0070SARL V0209999C000012200019N0200001N1+02301+01991100451ADDAA199000091GF100991001001999999001001MA1100511099661MD1210031+9999MW1001REMSYN060AAXX  12064 87289 32970 00000 10230 20199 39966 40045 52003;MET042SARL 120600Z 00000KT 9999 SKC 23/20 Q1005;EQDQ01+000000PRSWM2Q02  00002PRCP99
0141872890999992000022310004-29680-057150FM-15+0070SARL V0200901N005112200019N0112651N1+01801+01801999999ADDGA1021+030009999GF102991999999999999999999MW1001REMMET046SARL 231000Z 090010KT 9999 FEW100 18/18 Q1018;EQDQ01+101803APOA  Q02+000000PRSWM2
0241872890999992000030821004-29680-057150SY-MT+0070SARL V0200901N005710600019N0200001N1+02521+01691101451ADDGA1071+060009999GF107991001001999999001061MA1101391100651MD1710081+9999MW1001REMSYN082AAXX  08214 87289 42970 70911 10252 20169 30065 40145 57008 80006 333 56800 87270;MET045SARL 082100Z 09011KT 9999 BKN200 25/17 Q1014;EQDQ01+000000PRSWM2
0284872890999992000031206004-29680-057150SY-MT+0070SARL V0201101N005112200019N0200001N1+02081+01621101071ADDAA199000091GA1021+009009999GF199999011051008001001001MA1101081100271MD1710121+9999MW1001REMSYN082AAXX  12064 87289 32570 11110 10208 20162 30027 40107 57012 81500 333 56000 81630;MET045SARL 120600Z 11010KT 9999 FEW030 21/16 Q1011;EQDQ01+000012SCOTCVQ02+000000PRSWM2Q03  00002PRCP99
0139872890999992000031423004-29680-057150FM-15+0070SARL V0209999C000012200019N0112651N1+02601+01901999999ADDGA1021+009009999GF104991999999999999999999MA1100911999999MW1001REMMET045SARL 142300Z 00000KT 9999 SCT030 26/19 Q1009;EQDQ01+000000PRSWM2
0211872890999992000032806004-29680-057150SY-MT+0070SARL V0209999C000012200019N0150001N1+01261+01111101871ADDAA199000021GF100991001001999999001001MA1101801101031MD1010071+9999MW1001REMSYN060AAXX  28064 87289 32965 00000 10126 20111 30103 40187 50007;MET042SARL 280600Z 00000KT 9999 SKC 13/11 Q1018;EQDQ01+000000PRSWM2
0120872890999992000032913004-29680-057150FM-15+0070SARL V0201401N003112200019N0112651N1+01701+00901999999ADDGF100991999999999999999999MA1102301999999MW1001REMMET042SARL 291300Z 14006KT 9999 SKC 17/09 Q1023;EQDQ01+000000PRSWM2
0227872890999992000033006004-29680-057150SY-MT+0070SARL V0200901N005112200019N0200001N1+01301+01181101641ADDAA199000091GF100991001001999999001001MA1101591100821MD1710131+9999MW1001REMSYN060AAXX  30064 87289 32970 00910 10130 20118 30082 40164 57013;MET042SARL 300600Z 09010KT 9999 SKC 13/12 Q1016;EQDQ01+000000PRSWM2Q02  00002PRCP99
0322872890999992000040200004-29680-057150SY-MT+0070SARL V0201401N005110300019N0200001N1+02101+01521102121ADDAA199000091GA1071+030009999GF199999061001999999071001KA1120M+02401KA2120N+01981MA1102101101311MD1010071+9999MW1001REMSYN094AAXX  02004 87289 32970 61410 10210 20152 30131 40212 50007 86070 333 10240 20198 56030 86360;MET045SARL 020000Z 14010KT 9999 BKN100 21/15 Q1021;EQDQ01+000062SCOTCVQ02+000000PRSWM2Q03  00002PRCP99
0351872890999992000040412004-29680-057150SY-MT+0070SARL V0200701N005110015019N0060001N1+01881+01831101711ADDAA106003091AY191061AY261061GA1071+001509999GA2081+006009999GF108991071061001501021999KA1120M+01991KA2120N+01861MA1101391100901MD1210271+9999MW1611REMSYN112AAXX  04124 87289 /1256 80710 10188 20183 30090 40171 52027 60304 76196 8762/ 333 10199 20186 60031 87705 88520;MET056SARL 041200Z 07010KT 6000 -RA BKN005 OVC020 19/18 Q1014;EQDQ01    003PRSWM1
0163872890999992000040701004-29680-057150FM-15+0070SARL V0200501N005710240019N0112651N1+02501+02201999999ADDGA1021+018009999GA2071+024009999GF107991999999999999999999MA1101191999999MW1001REMMET053SARL 070100Z 050011KT 9999 SCT060 BKN089 25/22 Q1012;EQDQ01+000000PRSWM2
0297872890999992000040818004-29680-057150SY-MT+0070SARL V0203601N00311036001CN0200001N1+03361+02271101151ADDAA199000091GA1021+006009999GA2021+030009999GF105991021011008001071001MA1101191100371MD1310111+9999MW1001REMSYN088AAXX  08184 87289 32570 53606 10336 20227 30037 40115 53011 82170 333 56850 82820 84360;MET052SARL 081800Z 36006KT 9999 FEW020 SCT100 34/23 Q1012;EQDQ01+000000PRSWM2Q02  00002PRCP99
0268872890999992000041318004-29680-057150SY-MT+0070SARL V0209999C000012200019N0200001N1+02361+01421101301ADDAA199000091GA1021+006009999GF104991041041008001001001MA1101291100491MD1710161+9999MW1001REMSYN082AAXX  13184 87289 32570 40000 10236 20142 30049 40130 57016 84400 333 56300 84620;MET045SARL 131800Z 00000KT 9999 SCT020 24/14 Q1013;EQDQ01+000000PRSWM2Q02  00002PRCP99
0120872890999992000041507004-29680-057150FM-15+0070SARL V0200901N007712200019N0112651N1+01801+01501999999ADDGF100991999999999999999999MA1101391999999MW1001REMMET042SARL 150700Z 09015KT 9999 SKC 18/15 Q1014;EQDQ01+000000PRSWM2
0159872890999992000041908004-29680-057150FM-15+0070SARL V0202501N010810021019N0050001N1+01401+01301999999ADDGA1071+002109999GF107991999999999999999999MA1101081999999MW1531REMMET049SARL 190800Z 250021KT 5000 DZ BKN007 14/13 Q1011;EQDQ01+000003PRSWM1Q02    003PRSWM1
0139872890999992000042217004-29680-057150FM-15+0070SARL V0209999C000012200019N0112651N1+02301+01301999999ADDGA1021+060009999GF102991999999999999999999MA1101801999999MW1001REMMET045SARL 221700Z 00000KT 9999 FEW200 23/13 Q1018;EQDQ01+000000PRSWM2
0120872890999992000042307004-29680-057150FM-15+0070SARL V0209999C000012200019N0112651N1+01301+01201999999ADDGF100991999999999999999999MA1101591999999MW1001REMMET042SARL 230700Z 00000KT 9999 SKC 13/12 Q1016;EQDQ01+000000PRSWM2
0120872890999992000051207004-29680-057150FM-15+0070SARL V0209999C000012200019N0112651N1+01301+01201999999ADDGF100991999999999999999999MA1101691999999MW1001REMMET042SARL 120700Z 00000KT 9999 SKC 13/12 Q1017;EQDQ01+000000PRSWM2
0139872890999992000051211004-29680-057150FM-15+0070SARL V0209999C000012200019N0112651N1+01101+01101999999ADDGA1021+030009999GF102991999999999999999999MA1101801999999MW1001REMMET045SARL 121100Z 00000KT 9999 FEW100 11/11 Q1018;EQDQ01+000000PRSWM2
0139872890999992000051405004-29680-057150FM-15+0070SARL V0200501N008212200019N0112651N1+01801+01501999999ADDGA1021+060009999GF104991999999999999999999MA1101691999999MW1001REMMET045SARL 140500Z 05016KT 9999 SCT200 18/15 Q1017;EQDQ01+000000PRSWM2
0157872890999992000051601004-29680-057150FM-15+0070SARL V0209999C000010090019N0112651N1+99999+99999999999ADDGA1021+002109999GA2081+009009999GF108991999999999999999999MW1001MW2611REMMET056SARL 160100Z 00000KT 9999 -RA SCT007 OVC030 21/25 Q1999;EQDQ01+000003PRSWM1
0120872890999992000052116004-29680-057150FM-15+0070SARL V0209999C000012200019N0112651N1+01901+01201999999ADDGF100991999999999999999999MA1102301999999MW1001REMMET042SARL 211600Z 00000KT 9999 SKC 19/12 Q1023;EQDQ01+000000PRSWM2
0139872890999992000052420004-29680-057150FM-15+0070SARL V0200501N003110300019N0112651N1+02201+01601999999ADDGA1081+030009999GF108991999999999999999999MA1101391999999MW1001REMMET045SARL 242000Z 05006KT 9999 OVC100 22/16 Q1014;EQDQ01+000000PRSWM2
0214872890999992000061016004-29680-057150FM-15+0070SARL V0209999C000010150019N0050001N1+01901+01901999999ADDGA1021+009009999GA2021+012009099GA3081+015009999GF108991999999999999999999MA1101191999999MW1811MW2951REMMET066SARL 101600Z 00000KT 5000 TSRA SCT030 FEW040CB OVC050 19/19 Q1012;EQDQ01+000003PRSWM1Q02    003PRSWM1
0254872890999992000061612004-29680-057150FM-12+0070SARL V0202001N013910015019N0080001N1+01121+00961101781ADDAA106999929AY151061AY221061GA1081+001509069GF108991081061001501999999KA1120M+02361KA2120N+01101MA1999999100851MD1210491+9999MW1501REMSYN112AAXX  16124 87289 /1258 82027 10112 20096 30085 40178 52049 60034 75052 886// 333 10236 20110 56599 69901 88705;
0069872890999992000070322004-29680-057150FM-15+0070SARL V0209999C00001220001CN0099001N1+01101+00701999999ADDMW1001REMMET032SARL 032200 00000KT CAVOK 11/07;EQDQ01+000000PRSWM2
0139872890999992000070719004-29680-057150FM-15+0070SARL V0200501N005112200019N0112651N1+02701+01801999999ADDGA1021+006009999GF104991999999999999999999MA1100911999999MW1001REMMET045SARL 071900Z 05010KT 9999 SCT020 27/18 Q1009;EQDQ01+000000PRSWM2
0266872890999992000071015004-29680-057150SY-MT+0070SARL V0202301N008210012019N0050001N1+01101+01011101021ADDAY151031AY221031GA1081+001209999GF108991081061001501999999MA1101021100181MD1210071+9999MW1531REMSYN088AAXX  10154 87289 41250 82316 10110 20101 30018 40102 52007 75352 886// 333 56499 88704;MET048SARL 101500Z 23016KT 5000 DZ OVC004 11/10 Q1010;EQDQ01    003PRSWM1
0158872890999992000071116004-29680-057150FM-15+0070SARL V0202301N010310021019N0050001N1+00601+00501999999ADDGA1081+002109999GF108991999999999999999999MA1102201999999MW1531REMMET048SARL 111600Z 23020KT 5000 DZ OVC007 06/05 Q1022;EQDQ01+000003PRSWM1Q02    003PRSWM1
0139872890999992000071219004-29680-057150FM-15+0070SARL V0202701N007710036019N0112651N1+00801+00301999999ADDGA1071+003609999GF107991999999999999999999MA1102811999999MW1001REMMET045SARL 121900Z 27015KT 9999 BKN012 08/03 Q1028;EQDQ01+000000PRSWM2
0229872890999992000071309004-29680-057150SY-MT+0070SARL V0209999C000012200019N0200001N1+00121+00061103121ADDGF100991001001999999001001KA1999M+99999MA1999999102261MD1510031+9999MW1001REMSYN060AAXX  13094 87289 42970 00000 10012 20006 30226 40312 55003;MET042SARL 130900Z 00000KT 9999 SKC 01/01 11031;EQDQ01+000000PRSWM2Q02 -00312ATMX  
0092872890999992000071419004-29680-057150FM-15+0070SARL V0200201N00721220001CN0099001N1+01101-00101999999ADDMA1102101999999MW1001REMMET040SARL 141900Z 02014KT CAVOK 11/M01 Q1021;EQDQ01+000000PRSWM2
0234872890999992000071522004-29680-057150FM-15+0070SARL V0203601N00511220001CN0112651N1+99999+99999999999ADDGA1071+006009999GA2021+009009099GA3081+030009999MA1999999999999MW1001MW2171REMMET064SARL 152200Z 36010KT 9999 TS BKN020 OVC100 FEW030CB 24/20 Q1006;EQDQ01+000022SCOTCVQ02+000003PRSWM1Q03 +02403ATOT  Q04 +02003ATOD  Q05 100613APOA  
0187872890999992000071523004-29680-057150FM-15+0070SARL V0202301N008212200019N0112651N1+00702+00202999999ADDGA1021+006009999GF102991999999999999999999MA1102202999999MW1001REMMET045SARL 152300Z 23016KT 9999 FEW020 07/02 Q1022;EQDQ01+000703ATOT  Q02+000203ATOD  Q03+102203APOA  Q04+000000PRSWM2
0267872890999992000072000004-29680-057150SY-MT+0070SARL V0209999C000012200019N0200001N1+00501-00021102381ADDAA199000091GF100991001001999999001001KA1120M+01301KA2999N+00101MA1102301101501MD1410001+9999MW1001REMSYN076AAXX  20004 87289 32970 00000 10050 21002 30150 40238 54000 333 10130 20010;MET040SARL 200000Z 00000KT CAVOK 05/M00 Q1023;EQDQ01+000000PRSWM2Q02  00002PRCP99
0201872890999992000080818004-29680-057150FM-12+0070SARL V0200501N004110300019N0150001N1+02701+01651101171ADDAA199000091GA1051+030009039GF107991051001999999071061MA1999999100371MD1710161+9999REMSYN088AAXX  08184 87289 31965 70508 10270 20165 30037 40117 57016 85076 333 56023 85360 87270;EQDQ01  00002PRCP99
0091872890999992000080914004-29680-057150FM-15+0070SARL V0201801N01391220001CN0099001N1+01501+00901999999ADDMA1102101999999MW1001REMMET039SARL 091400Z 18027KT CAVOK 15/09 Q1021;EQDQ01+000000PRSWM2
0197872890999992000081809004-29680-057150SY-MT+0070SARL V0200901N00411220001CN0200001N1+01051+00741101991ADDGF100991001001999999001001MA1101901101151MD1710121+9999MW1001REMSYN060AAXX  18094 87289 42970 00908 10105 20074 30115 40199 57012;MET039SARL 180900Z 09008KT CAVOK 10/07 Q1019;EQDQ01+000000PRSWM2
0091872890999992000082001004-29680-057150FM-15+0070SARL V0209999C00001220001CN0099001N1+01901+01601999999ADDMA1101391999999MW1001REMMET039SARL 200100Z 00000KT CAVOK 19/16 Q1014;EQDQ01+000000PRSWM2
0091872890999992000082013004-29680-057150FM-15+0070SARL V0200501N00511220001CN0099001N1+02101+01401999999ADDMA1101491999999MW1001REMMET039SARL 201300Z 05010KT CAVOK 21/14 Q1015;EQDQ01+000000PRSWM2
0139872890999992000082514004-29680-057150FM-15+0070SARL V0202301N005710024019N0112651N1+01501+01501999999ADDGA1081+002409999GF108991999999999999999999MA1100911999999MW1001REMMET045SARL 251400Z 23011KT 9999 OVC008 15/15 Q1009;EQDQ01+000000PRSWM2
0162872890999992000082913004-29680-057150FM-15+0070SARL V0209999C000010090019N0112651N1+01101+00401999999ADDGA1071+009009999GA2081+030009999GF108991999999999999999999MA1101591999999MW1001REMMET052SARL 291300Z 00000KT 9999 BKN030 OVC100 11/04 Q1016;EQDQ01+000000PRSWM2
0091872890999992000090410004-29680-057150FM-15+0070SARL V0200901N00771220001CN0099001N1+00701+00601999999ADDMA1102101999999MW1001REMMET039SARL 041000Z 09015KT CAVOK 07/06 Q1021;EQDQ01+000000PRSWM2
0090872890999992000090513004-29680-057150FM-15+0070SARL V0209999C00001220001CN0099001N1+01701+01101999999ADDMA1102001999999MW1001REMMET038SARL 051300Z 00000KTCAVOK 17/11 Q1020;EQDQ01+000000PRSWM2
0162872890999992000090913004-29680-057150FM-15+0070SARL V0200501N010310600019N0112651N1+02001+01501999999ADDGA1021+003009999GA2071+060009999GF107991999999999999999999MA1100711999999MW1001REMMET052SARL 091300Z 05020KT 9999 SCT010 BKN200 20/15 Q1007;EQDQ01+000000PRSWM2
0076872890999992000091102004-29680-057150FM-15+0070SARL V0200501N00511220001CN0099001N1+02201+01601999999ADDMW1001REMMET039SARL 110200Z 05010KT CAVOK 22/16 Q1998;EQDQ01+000000PRSWM2
0091872890999992000091702004-29680-057150FM-15+0070SARL V0200901N00311220001CN0099001N1+01601+01201999999ADDMA1102001999999MW1001REMMET039SARL 170200Z 09006KT CAVOK 16/12 Q1020;EQDQ01+000000PRSWM2
0139872890999992000091805004-29680-057150FM-15+0070SARL V0209999C000010060019N0112651N1+01901+01801999999ADDGA1081+006009999GF108991999999999999999999MA1101291999999MW1001REMMET045SARL 180500Z 00000KT 9999 OVC020 19/18 Q1013;EQDQ01+000000PRSWM2
0091872890999992000092820004-29680-057150FM-15+0070SARL V0200501N00311220001CN0099001N1+02701+01301999999ADDMA1101491999999MW1001REMMET039SARL 282000Z 05006KT CAVOK 27/13 Q1015;EQDQ01+000000PRSWM2
0139872890999992000101422004-29680-057150FM-15+0070SARL V0200901N012910060019N0112651N1+02101+01701999999ADDGA1081+006009999GF108991999999999999999999MA1101901999999MW1001REMMET045SARL 142200Z 09025KT 9999 OVC020 21/17 Q1019;EQDQ01+000000PRSWM2
0139872890999992000102013004-29680-057150FM-15+0070SARL V0202301N004110024019N0112651N1+02001+01901999999ADDGA1081+002409999GF108991999999999999999999MA1101491999999MW1001REMMET045SARL 201300Z 23008KT 9999 OVC008 20/19 Q1015;EQDQ01+000000PRSWM2
0339872890999992000102618004-29680-057150SY-MT+0070SARL V0202301N005110045019N0150001N1+02601+02151100841ADDAA106004191AY181061AY261061GA1071+004509029GA2081+030009999GF108991051021004501071999MA1100811100041MD1710091+9999MW1211REMSYN106AAXX  26184 87289 11465 82310 10260 20215 30004 40084 57009 60041 72186 8527/ 333 56820 57845 85815 88360;MET060SARL 261800Z 23010KT 9999 BKN015TCU OVC100 26/22 Q1008 RERA;EQDQ01+000000PRSWM2Q02    003PRSWM1
0143872890999992000112621004-29680-057150FM-12+0070SARL V0203601N004112200019N0200001N1+03041+01531100721ADDGA1001+999999999GF100991001001999999001001MA1999999099921MD1610151+9999REMSYN060AAXX  26214 87289 42970 03608 10304 20153 39992 40072 56015;
0215872890999992000121812004-29680-057150FM-12+0070SARL V0209999C000012200019N0200001N1+02401+01351101491ADDAA199000091GA1001+999999999GF100991001001999999001001KA1120M+02401KA2999N+01561MA1999999100681MD1210211+9999REMSYN076AAXX  18124 87289 32970 00000 10240 20135 30068 40149 52021 333 10240 20156;EQDQ01  00002PRCP99
0173872890999992000121818004-29680-057150FM-12+0070SARL V0209999C000012200019N0200001N1+03141+01091101351ADDAA199000091GA1001+999999999GF100991001001999999001001MA1999999100541MD1710071+9999REMSYN060AAXX  18184 87289 32970 00000 10314 20109 30054 40135 57007;EQDQ01  00002PRCP99
0195872890999992000122418004-29680-057150FM-12+0070SARL V0200901N008210060019N0200001N1+02721+01931101071ADDAA199000091GA1061+006009059GF106991061051008001001001MA1999999100261MD1710201+9999REMSYN082AAXX  24184 87289 32570 60916 10272 20193 30026 40107 57020 86500 333 56600 86620;EQDQ01  00002PRCP99
0227872890999992000122915004-29680-057150FM-12+0070SARL V0202301N004110090019N0080001N1+02161+01911100781ADDAY191031AY261031GA1041+006009069GA2051+009009059GF108991061091008001021999MA1999999099971MD1210041+9999MW1951REMSYN106AAXX  29154 87289 41558 82308 10216 20191 39997 40078 52004 79596 8692/ 333 56559 57901 84620 85530 82940;
0207872890999992000123118004-29680-057150FM-12+0070SARL V0209999C000012200019N0200001N1+02981+01851101151ADDAA199000091GA1021+006009089GF104991041021008001001001MA1999999100361MD1710211+9999REMSYN094AAXX  31184 87289 32570 40000 10298 20185 30036 40115 57021 84200 333 56000 57813 82820 83823;EQDQ01  00002PRCP99
0186873110999992000010623004-31570-068420FM-15+0598SANU V0201601N009312200019N0112651N1+03201+01001999999ADDGA1021+013509029GA2021+015009099GF104991999999999999999999MA1100711999999MW1061REMMET060SANU 062300Z 16018KT 9999 DU FEW045TCU SCT050CB 32/10 Q1007;EQDQ01+000003PRSWM1Q02    003PRSWM1
0173873110999992000011106004-31570-068420FM-12+0598SANU V0202001N002612200019N0150001N1+02501+01591100311ADDAA106000091GA1001+999999999GF100991001001999999001001MA1999999093821MD1710081+9999REMSYN060AAXX  11064 87311 32965 02005 10250 20159 39382 40031 57008;EQDQ01  00002PRCP06
0126873110999992000011219004-31570-068420FM-15+0598SANU V0201601N008212200019N0112651N1+99999+99999999999ADDGA1021+999999999GF104991999999999999999999MW1001REMMET047SANU 121900Z 16016KT 9999 SCTCU050 36/14 Q1003;EQDQ01+000000PRSWM2
0139873110999992000011402004-31570-068420FM-15+0598SANU V0202001N001010180019N0112651N1+02401+01301999999ADDGA1071+018009999GF107991999999999999999999MA1101081999999MW1001REMMET045SANU 140200Z 20002KT 9999 BKN060 24/13 Q1011;EQDQ01+000000PRSWM2
0081873110999992000011910004-31570-068420FM-15+0598SANU V0202001N001512200019N0112651N1+99999+99999999999ADDMW1001REMMET044SANU 191000Z 20003KT 9999 CAVOK 20/13 Q1013;EQDQ01+000000PRSWM2
0139873110999992000012001004-31570-068420FM-15+0598SANU V0201701N003112200019N0112651N1+03201+01401999999ADDGA1021+021009999GF102991999999999999999999MA1100611999999MW1001REMMET045SANU 200100Z 17006KT 9999 FEW070 32/14 Q1006;EQDQ01+000000PRSWM2
0162873110999992000012611004-31570-068420FM-15+0598SANU V0203601N001512200019N0112651N1+02401+01301999999ADDGA1021+015009999GA2021+018009999GF104991999999999999999999MA1101491999999MW1001REMMET052SANU 261100Z 36003KT 9999 SCT050 SCT060 24/13 Q1015;EQDQ01+000000PRSWM2
0241873110999992000020203004-31570-068420SY-MT+0598SANU V0201401N003112200019N0150001N1+02911+01571100051ADDGA1021+015009999GF102991011011017501001051MA1100511093581MD1210171+9999MW1001REMSYN082AAXX  02034 87311 42765 21406 10291 20157 39358 40005 52017 81105 333 56000 81850;MET045SANU 020300Z 14006KT 9999 FEW050 29/15 Q1005;EQDQ01+000000PRSWM2
0198873110999992000020303004-31570-068420SY-MT+0598SANU V0201601N004112200019N0150001N1+02361+00731101101ADDGF100991001001999999001001MA1101491094501MD1210321+9999MW1001REMSYN060AAXX  03034 87311 42965 01608 10236 20073 39450 40110 52032;MET040SANU 030300Z 16008 9999 SKC 23/07 Q1015;EQDQ01+000000PRSWM2
0139873110999992000020922004-31570-068420FM-15+0598SANU V0201801N006212200019N0112651N1+03201+01401999999ADDGA1021+012009999GF102991999999999999999999MA1100411999999MW1001REMMET045SANU 092200Z 18012KT 9999 FEW040 32/14 Q1004;EQDQ01+000000PRSWM2
0081873110999992000021108004-31570-068420FM-15+0598SANU V0201801N001012200019N0112651N1+99999+99999999999ADDMW1001REMMET044SANU 110800Z 18002KT 9999 CAVOK 22/17 Q1001;EQDQ01+000000PRSWM2
0269873110999992000021712004-31570-068420SY-MT+0598SANU V0203601N003612200019N0150001N1+02361+01401101071ADDAA199000091GF100991001001999999001001KA1120M+02801KA2999N+02121MA1101391094481MD1110081+9999MW1001REMSYN076AAXX  17124 87311 32965 03607 10236 20140 39448 40107 51008 333 10280 20212;MET042SANU 171200Z 36007KT 9999 SKC 23/14 Q1014;EQDQ01+000000PRSWM2Q02  00002PRCP99
0152873110999992000021911004-31570-068420FM-15+0598SANU V0201401N00261220001CN0112651N1+01701+01001999999ADDGA1071+013509999GA2021+018009999MA1102101999999MW1001REMMET052SANU 191100Z 14005KT 9999 BKN045 FEW060 17/10 Q1021;EQDQ01+000022SCOTCVQ02+000000PRSWM2
0139873110999992000022122004-31570-068420FM-15+0598SANU V0202001N003612200019N0112651N1+03201+00501999999ADDGA1021+015009999GF102991999999999999999999MA1101191999999MW1001REMMET045SANU 212200Z 20007KT 9999 FEW050 32/05 Q1012;EQDQ01+000000PRSWM2
0139873110999992000022317004-31570-068420FM-15+0598SANU V0201601N005112200019N0112651N1+03401+01101999999ADDGA1021+015009999GF102991999999999999999999MA1101191999999MW1001REMMET045SANU 231700Z 16010KT 9999 FEW050 34/11 Q1012;EQDQ01+000000PRSWM2
0139873110999992000022808004-31570-068420FM-15+0598SANU V0209999C000010180019N0112651N1+01601+00601999999ADDGA1071+018009999GF107991999999999999999999MA1101591999999MW1001REMMET045SANU 280800Z 00000KT 9999 BKN060 16/06 Q1016;EQDQ01+000000PRSWM2
0120873110999992000030111004-31570-068420FM-15+0598SANU V0209999C000012200019N0112651N1+01801+00601999999ADDGF100991999999999999999999MA1101391999999MW1001REMMET042SANU 011100Z 00000KT 9999 SKC 18/06 Q1014;EQDQ01+000000PRSWM2
0139873110999992000030523004-31570-068420FM-15+0598SANU V0202001N003112200019N0112651N1+02901+01201999999ADDGA1021+013509999GF102991999999999999999999MA1101391999999MW1001REMMET045SANU 052300Z 20006KT 9999 FEW045 29/12 Q1014;EQDQ01+000000PRSWM2
0270873110999992000031018004-31570-068420SY-MT+0598SANU V0201601N004112200019N0150001N1+02861+01491100891ADDAA199000091GA1021+013509999GF102991999001012501021031MA1101191094281MW1001REMSYN082AAXX  10184 87311 32665 21608 10286 20149 39428 40089 83023 82100 333 56000 82845;MET045SANU 101800Z 16008KT 9999 FEW045 28/14 Q1012;EQDQ01+000000PRSWM2Q02+000032SCOTLCQ03  00002PRCP99
0322873110999992000031112004-31570-068420SY-MT+0598SANU V0203101N000512200019N0150001N1+02061+01681101151ADDAA199000091GA1021+015009999GF199999011011017501001001KA1120M+02691KA2120N+01891MA1101391094501MD1210081+9999MW1001REMSYN094AAXX  11124 87311 32765 13101 10206 20168 39450 40115 52008 81100 333 10269 20189 56600 81850;MET045SANU 111200Z 31001KT 9999 FEW050 21/17 Q1014;EQDQ01+000012SCOTCVQ02+000000PRSWM2Q03  00002PRCP99
0139873110999992000031614004-31570-068420FM-15+0598SANU V0201801N011812200019N0112651N1+02101+00801999999ADDGA1021+010509999GF104991999999999999999999MA1101391999999MW1001REMMET045SANU 161400Z 18023KT 9999 SCT035 21/08 Q1014;EQDQ01+000000PRSWM2
0081873110999992000031908004-31570-068420FM-15+0598SANU V0203501N000512200019N0112651N1+99999+99999999999ADDMW1001REMMET044SANU 190800Z 35001KT 9999 CAVOK 17/13 Q1009;EQDQ01+000000PRSWM2
0081873110999992000032610004-31570-068420FM-15+0598SANU V0202901N001512200019N0112651N1+99999+99999999999ADDMW1001REMMET044SANU 261000Z 29003KT 9999 CAVOK 15/12 Q1008;EQDQ01+000000PRSWM2
0120873110999992000033019004-31570-068420FM-15+0598SANU V0201801N005112200019N0112651N1+02601+00401999999ADDGF100991999999999999999999MA1101191999999MW1001REMMET042SANU 301900Z 18010KT 9999 SKC 26/04 Q1012;EQDQ01+000000PRSWM2
0120873110999992000033023004-31570-068420FM-15+0598SANU V0201601N002612200019N0112651N1+02201+00701999999ADDGF100991999999999999999999MA1101191999999MW1001REMMET042SANU 302300Z 16005KT 9999 SKC 22/07 Q1012;EQDQ01+000000PRSWM2
0139873110999992000040104004-31570-068420FM-15+0598SANU V0201101N003110180019N0112651N1+01801+00901999999ADDGA1071+018009999GF107991999999999999999999MA1102201999999MW1001REMMET045SANU 010400Z 11006KT 9999 BKN060 18/09 Q1022;EQDQ01+000000PRSWM2
0139873110999992000040413004-31570-068420FM-15+0598SANU V0202001N000512200019N0080001N1+01601+01401999999ADDGF100991999999999999999999MA1101591999999MW1101REMMET045SANU 041300Z 20001KT 8000 BR SKC 16/14 Q1016;EQDQ01+000003PRSWM1Q02    003PRSWM1
0090873110999992000040717004-31570-068420FM-15+0598SANU V0203601N002112200019N0112651N1+99999+99999999999ADDMW1001MW2051REMMET047SANU 071700Z 36004KT 9999 HZ CAVOK 25/12 Q1010;EQDQ01+000003PRSWM1
0081873110999992000042008004-31570-068420FM-15+0598SANU V0202701N001012200019N0112651N1+99999+99999999999ADDMW1001REMMET044SANU 200800Z 27002KT 9999 CAVOK 10/07 Q1016;EQDQ01+000000PRSWM2
0081873110999992000042405004-31570-068420FM-15+0598SANU V0203401N001512200019N0112651N1+99999+99999999999ADDMW1001REMMET044SANU 240500Z 34003KT 9999 CAVOK 16/11 Q1011;EQDQ01+000000PRSWM2
0153873110999992000042604004-31570-068420FM-15+0598SANU V0201801N00771220001CN0112651N1+99999+99999999999ADDGA1071+012009999GA2021+018009999MA1101801999999MW1001REMMET053SANU 260400Z 18015KT 9999 BKN040 FEW060 19/085 Q1018;EQDQ01+000022SCOTCVQ02+000000PRSWM2
0081873110999992000043001004-31570-068420FM-15+0598SANU V0202001N003112200019N0112651N1+99999+99999999999ADDMW1001REMMET044SANU 300100Z 20006KT 9999 CAVOK 18/11 Q1009;EQDQ01+000000PRSWM2
0185873110999992000051517004-31570-068420FM-15+0598SANU V0202901N001010180019N0112651N1+01201+00801999999ADDGA1021+003009999GA2021+013509999GA3071+018009999GF107991999999999999999999MA1101691999999MW1001REMMET059SANU 151700Z 29002KT 9999 FEW010 SCT045 BKN060 12/08 Q1017;EQDQ01+000000PRSWM2
0118873110999992000052008004-31570-068420FM-15+0598SANU V0209999C000012200019N0112651N1+00301+00101999999ADDGF100991999999999999999999MA1101801999999MW1001REMMET040SANU 0800Z 00000KT 9999 SKC 03/01 Q1018;EQDQ01+000000PRSWM2
0270873110999992000052315004-31570-068420SY-MT+0598SANU V0203201N00211018001CN0150001N1+01551+00821101961ADDGA1021+013509999GA2071+018009999GF107991031051012501071001MA1102001095021MD1710071+9999MW1001REMSYN088AAXX  23154 87311 42665 73204 10155 20082 39502 40196 57007 83570 333 56000 83645 85360;MET052SANU 231500Z 32004KT 9999 SCT045 BKN060 15/08 Q1020;EQDQ01+000000PRSWM2
0225873110999992000052606004-31570-068420SY-MT+0598SANU V0209999C000012200019N0150001N1+00681+00391101751ADDAA199000091GF100991001001999999001001MA1101801094811MD1110071+9999MW1001REMSYN060AAXX  26064 87311 32965 00000 10068 20039 39481 40175 51007;MET040SANU 260600Z 00000 9999 SKC 06/03 Q1018;EQDQ01+000000PRSWM2Q02  00002PRCP99
0227873110999992000060318004-31570-068420SY-MT+0598SANU V0201601N002612200019N0150001N1+01711+00601100911ADDAA199000091GF100991001001999999001001MA1100911094021MD1710271+9999MW1001REMSYN060AAXX  03184 87311 32965 01605 10171 20060 39402 40091 57027;MET042SANU 031800Z 16005KT 9999 SKC 17/06 Q1009;EQDQ01+000000PRSWM2Q02  00002PRCP99
0239873110999992000060506004-31570-068420SY-MT+0598SANU V0200501N001512200019N0150001N1+00381+00281100901ADDAA199000091GF100991001001999999001001MA1100951093991MD1110031+9999MW1001REMSYN070AAXX  05064 87311 32965 00503 10038 20028 39399 40090 51003 555 10094;MET044SANU 050600Z 05003KT 9999 CAVOK 04/03 Q1009;EQDQ01+000000PRSWM2Q02  00002PRCP99
0139873110999992000060701004-31570-068420FM-15+0598SANU V0202001N002610180019N0112651N1+01101+00301999999ADDGA1071+018009999GF107991999999999999999999MA1102401999999MW1001REMMET045SANU 070100Z 20005KT 9999 BKN060 11/03 Q1024;EQDQ01+000000PRSWM2
0298873110999992000061303004-31570-068420SY-MT+0598SANU V0203201N009819999999N0030001N1+02581-00941100231ADDAY121031AY221031GA1021+018009999GA2021+024009999GF105991021001999999071051MA1100511093541MD1310151+9999MW1071REMSYN094AAXX  13034 87311 41930 53219 10258 21094 39354 40023 53015 70722 82075 333 56000 82360 83280;MET058SANU 130300Z 32019KT 3000 DRSA FEW060 SCT080 26/M09 Q1005;EQDQ01    003PRSWM1
0140873110999992000062602004-31560-068420FM-15+0598SANU V0202001N001012200019N0112651N1+00601+00001999999ADDGA1021+021009999GF104991999999999999999999MA1101391999999MW1001REMMET046SANU 260200Z 20002KT 9999 SCT070 06/M00 Q1014;EQDQ01+000000PRSWM2
0081873110999992000062616004-31560-068420FM-15+0598SANU V0209999C000012200019N0112651N1+99999+99999999999ADDMW1001REMMET044SANU 261600Z 00000KT 9999 CAVOK 13/01 Q1016;EQDQ01+000000PRSWM2
0270873110999992000070815004-31560-068420SY-MT+0598SANU V0201601N005710120019N0150001N1+00701+00101102141ADDGA1021+010509999GA2071+012009999GF108991081061012501999999MA1102001095041MD1110041+9999MW1001REMSYN088AAXX  08154 87311 42665 81611 10070 20010 39504 40214 51004 886// 333 56499 83735 86640;MET052SANU 081500Z 16011KT 9999 SCT035 BKN040 07/01 Q1020;EQDQ01+000000PRSWM2
0121873110999992000071619004-31560-068420FM-15+0598SANU V0201101N001012200019N0112651N1+01301-00101999999ADDGF100991999999999999999999MA1101901999999MW1001REMMET043SANU 161900Z 11002KT 9999 SKC 13/M01 Q1019;EQDQ01+000000PRSWM2
0082873110999992000072002004-31560-068420FM-15+0598SANU V0203401N001512200019N0112651N1+99999+99999999999ADDMW1001REMMET045SANU 200200Z 34003KT 9999 CAVOK 05/M03 Q1018;EQDQ01+000000PRSWM2
0185873110999992000072117004-31560-068420FM-15+0598SANU V0201801N012910030019N0112651N1+00401+00201999999ADDGA1021+002109999GA2071+003009999GA3071+012009999GF107991999999999999999999MA1101801999999MW1001REMMET059SANU 211700Z 18025KT 9999 FEW007 BKN010 BKN040 04/02 Q1018;EQDQ01+000000PRSWM2
0082873110999992000072810004-31560-068420FM-15+0598SANU V0201401N002612200019N0112651N1+99999+99999999999ADDMW1001REMMET045SANU 281000Z 14005KT 9999 CAVOK 05/M01 Q1025;EQDQ01+000000PRSWM2
0090873110999992000080422004-31560-068420FM-15+0598SANU V0201801N003112200019N0112651N1+01501+00001999999ADDMA1101191999999MW1001REMMET038SANU 042200Z 18006KT 9999 15/00 Q1012;EQDQ01+000000PRSWM2
0082873110999992000080607004-31560-068420FM-15+0598SANU V0200501N001012200019N0112651N1+99999+99999999999ADDMW1001REMMET045SANU 060700Z 05002KT 9999 CAVOK 03/M02 Q1013;EQDQ01+000000PRSWM2
0227873110999992000081821004-31560-068420SY-MT+0598SANU V0201601N003112200019N0120001N1+02391+00281100741ADDAY101031AY201031GF100991001001999999001001MA1999999093931MD1710191+9999MW1041REMSYN066AAXX  18214 87311 41962 01606 10239 20028 39393 40074 57019 70400;MET047SANU 182100Z 16006KT 9999 FU CAVOK 24/03 Q1009;EQDQ01    003PRSWM1
0181873110999992000081917004-31560-068420FM-15+0598SANU V0201601N004112200019N0080001N1+02201+00101999999ADDGA1021+018009999GA2021+021009999GF104991999999999999999999MA1101191999999MW1041REMMET055SANU 191700Z 16008KT 8000 FU SCT060 SCT070 22/01 Q1012;EQDQ01+000003PRSWM1Q02    003PRSWM1
0182873110999992000081920004-31560-068420FM-15+0598SANU V0201601N006712200019N0112651N1+02601+00001999999ADDGA1021+018009999GA2021+021009999GF104991999999999999999999MA1101081999999MW1041REMMET056SANU 192000Z 16013KT 9999 FU FEW060 SCT070 26/M00 Q1011;EQDQ01+000003PRSWM1Q02    003PRSWM1
0193873110999992000082115004-31560-068420FM-12+0598SANU V0201601N002110054019N0120001N1+01061+00461101371ADDAY121031AY221031GA1081+005409059GF108991081051004501999999MA1999999094421MD1810051+9999MW1051REMSYN088AAXX  21154 87311 41462 81604 10106 20046 39442 40137 58005 70522 885// 333 56099 88618;
0120873110999992000092222004-31560-068420FM-15+0598SANU V0201101N003612200019N0112651N1+02601+00001999999ADDGF100991999999999999999999MA1100511999999MW1001REMMET042SANU 222200Z 11007KT 9999 SKC 26/00 Q1005;EQDQ01+000000PRSWM2
0082873110999992000092517004-31560-068420FM-15+0598SANU V0201501N002112200019N0112651N1+99999+99999999999ADDMW1001REMMET045SANU 251700Z 15004KT 9999 CAVOK 20/M07 Q1023;EQDQ01+000000PRSWM2
0139873110999992000100523004-31560-068420FM-15+0598SANU V0201601N002612200019N0112651N1+02001+00201999999ADDGA1021+021009999GF102991999999999999999999MA1101191999999MW1001REMMET045SANU 052300Z 16005KT 9999 FEW070 20/02 Q1012;EQDQ01+000000PRSWM2
0140873110999992000100616004-31560-068420FM-15+0598SANU V0201601N007712200019N0112651N1+02501+00001999999ADDGA1021+021009999GF104991999999999999999999MA1101391999999MW1001REMMET046SANU 061600Z 16015KT 9999 SCT070 25/M00 Q1014;EQDQ01+000000PRSWM2
0137873110999992000100904004-31560-068420FM-15+0598SANU V0202901N005112200019N0112651N1+02401+99999999999ADDGF100991999999999999999999MA1100911999999MW1001REMMET043SANU 090400Z 29010KT 9999 SKC 24/M26 Q1009;EQDQ01-002603ATOD  Q02+000000PRSWM2
0139873110999992000102304004-31560-068420FM-15+0598SANU V0201801N007710180019N0112651N1+02001+00101999999ADDGA1071+018009999GF107991999999999999999999MA1101801999999MW1001REMMET045SANU 230400Z 18015KT 9999 BKN060 20/01 Q1018;EQDQ01+000000PRSWM2
0200873110999992000102621004-31560-068420SY-MT+0598SANU V0201601N006212200019N0150001N1+02501+00191101371ADDGF100991001001999999001001MA1101491094561MD1510051+9999MW1001REMSYN060AAXX  26214 87311 42965 01612 10250 20019 39456 40137 55005;MET042SANU 262100Z 16012KT 9999 SKC 25/01 Q1015;EQDQ01+000000PRSWM2
0190873110999992000103122004-31560-068420FM-15+0598SANU V0201801N006710180019N0112651N1+02601+01101999999ADDGA1021+015009099GA2021+015009029GA3071+018009999GF107991999999999999999999MA1100611999999MW1001REMMET064SANU 312200Z 18013KT 9999 FEW050TCU FEW056CB BKN060 26/11 Q1006;EQDQ01+000000PRSWM2
0133873110999992000110221004-31560-068420FM-12+0598SANU V0200201N002112200019N0150001N1+02971+00421100641ADDGF103991011011017501001021MA1999999093921MD1710411+9999REMSYN066AAXX  02214 87311 42765 30204 10297 20042 39392 40064 57041 81102;
0165873110999992000111103004-31560-068420FM-12+0598SANU V0202001N004612200019N0150001N1+02101+00751100381ADDGA1041+030009079GF104991041001999999071001MA1999999093771MD1210121+9999REMSYN082AAXX  11034 87311 42965 42009 10210 20075 39377 40038 52012 84070 333 56000 84360;
0103873110999992000111119004-31560-068420FM-15+0598SANU V0202901N014412200019N0112651N1+99999+99999999999ADDMW1001OC101801REMMET058SANU 111900Z 29028G35KT 9999SA FEW050 FEW060 32/M34 Q1003;EQDQ01+000000PRSWM2
0165873110999992000120203004-31560-068420FM-12+0598SANU V0202201N001012200019N0150001N1+02251+01291100571ADDGA1011+030009079GF101991011001999999071001MA1999999093981MD1210111+9999REMSYN082AAXX  02034 87311 42965 12202 10225 20129 39398 40057 52011 81070 333 56000 81360;
0165873110999992000120421004-31560-068420FM-12+0598SANU V0201601N002612200019N0150001N1+03121+00141100601ADDGA1011+015009029GF101991011011017501001001MA1999999094001MD1710191+9999REMSYN082AAXX  04214 87311 42765 11605 10312 20014 39400 40060 57019 81100 333 56000 81850;
0201873110999992000120618004-31560-068420FM-12+0598SANU V0203201N002112200019N0150001N1+03791+00221099801ADDAA199000091GA1011+015009089GF103991011011017501001051MA1999999093411MD1710411+9999REMSYN088AAXX  06184 87311 32765 33204 10379 20022 39341 49980 57041 81105 333 56700 81850 83270;EQDQ01  00002PRCP99
0177873110999992000121221004-31560-068420FM-12+0598SANU V0202501N004612200019N0150001N1+03621+01471099521ADDGA1011+015009089GF103991011021017501001051MA1999999093091MD1710291+9999REMSYN094AAXX  12214 87311 42765 32509 10362 20147 39309 49952 57029 81205 333 56000 57821 81850 83270;
0171873110999992000121315004-31560-068420FM-12+0598SANU V0201601N008712200019N0150001N1+02841+01381100281ADDGA1021+013509029GF103991021021012501071001MA1999999093801MD1810051+9999REMSYN088AAXX  13154 87311 42665 31617 10284 20138 39380 40028 58005 82270 333 56000 57872 82845;
0195873110999992000121506004-31560-068420FM-12+0598SANU V0201801N011312200019N0150001N1+02001+01081100771ADDAA199000091GA1021+030009079GF102991021001999999071001MA1999999094181MD1210241+9999REMSYN082AAXX  15064 87311 32965 21822 10200 20108 39418 40077 52024 82070 333 56000 82360;EQDQ01  00002PRCP99
0195873110999992000122806004-31560-068420FM-12+0598SANU V0201801N002612200019N0150001N1+02041+00471100651ADDAA199000091GA1021+030009079GF102991021001999999071001MA1999999094061MD1710121+9999REMSYN082AAXX  28064 87311 32965 21805 10204 20047 39406 40065 57012 82070 333 56000 82360;EQDQ01  00002PRCP99
0267873110999992000122900004-31560-068420FM-12+0598SANU V0202001N005712200019N0150001N1+02951+00751100191ADDAA199000091GA1011+015009099GA2021+030009039GF103991011031017501071001KA1120M+03361KA2120N+02011MA1999999093641MD1210211+9999REMSYN112AAXX  29004 87311 32765 32011 10295 20075 39364 40019 52021 81370 333 10336 20201 56300 57937 81950 82360 90105;EQDQ01  00002PRCP99
0215873200999992000011300004-30370-066280FM-12+046199999V0209999C000012200019N0150001N1+02621+01991100391ADDAA106000091GA1001+999999999GF100991001001999999001001KA1120M+03151KA2999N+02091MA1999999095311MD1210201+9999REMSYN076AAXX  13004 87320 32965 00000 10262 20199 39531 40039 52020 333 10315 20209;EQDQ01  00002PRCP06
0233873200999992000020600004-30370-066280FM-12+046199999V0200501N005112200019N0200001N1+03091+01901100421ADDAA199000091GA1011+012009029GF101991011061012501001001KA1120M+03551KA2120N+02331MA1999999095341MD1310311+9999REMSYN094AAXX  06004 87320 32670 10510 10309 20190 39534 40042 53031 81600 333 10355 20233 56000 81840;EQDQ01  00002PRCP99
0248873200999992000030800004-30370-066280FM-12+046199999V0209999C000010060019N0060001N1+02021+01901101341ADDAA106006191AY161061AY261061GA1081+006009029GF108991081051008001999999KA1120M+02241KA2120N+01901MA1999999096121MD1110041+9999MW1211REMSYN106AAXX  08004 87320 11556 80000 10202 20190 39612 40134 51004 60061 72166 885// 333 10224 20190 56999 88520;
0173873200999992000031906004-30370-066280FM-12+046199999V0201401N005112200019N0200001N1+01921+01571100991ADDAA199000091GA1001+999999999GF100991001001999999001001MA1999999095831MD1710081+9999REMSYN060AAXX  19064 87320 32970 01410 10192 20157 39583 40099 57008;EQDQ01  00002PRCP99
0251873200999992000032712004-30370-066280FM-12+046199999V0209999C00001036001CN0150001N1+01471+00741101561ADDAA106000891GA1031+012009069GF108991031051012501071999KA1120M+02201KA2120N+01181MA1999999096301MD1210652+9999REMSYN112AAXX  27124 87320 /2665 80000 10147 20074 39630 40156 52065 69984 8357/ 333 10220 20118 56339 69981 83640 85460;EQDQ01+000652APC3  
0195873200999992000051006004-30370-066280FM-12+046199999V0209999C000012200019N0200001N1+01461+01021102321ADDAA199000091GA1021+030009079GF102991021001999999071001MA1999999096991MD1410001+9999REMSYN082AAXX  10064 87320 32970 20000 10146 20102 39699 40232 54000 82070 333 56090 82360;EQDQ01  00002PRCP99
0249873200999992000052800004-30370-066280FM-12+046199999V0201801N006212200019N0200001N1+01521+01041101681ADDAA199000091GA1031+030009079GF199999021001999999041001KA1120M+02081KA2120N+00871MA1999999096271MD1210191+9999REMSYN094AAXX  28004 87320 32970 21812 10152 20104 39627 40168 52019 82040 333 10208 20087 56020 83360;EQDQ01+000022SCOTCVQ02  00002PRCP99
0220873200999992000060500004-30370-066280FM-12+046199999V0201401N002112200019N0100001N1+01201+01031100961ADDAA106000791GA1011+012009059GF101991011051012501001001KA1120M+01211KA2120N+00861MA1999999095591MD1310031+9999REMSYN100AAXX  05004 87320 12660 11404 10120 20103 39559 40096 53003 69901 81500 333 10121 20086 56900 81640;
0195873200999992000060906004-30370-066280FM-12+046199999V0201601N002612200019N0200001N1+01091+00791101641ADDAA199000091GA1011+010209059GF101991011051012501001001MA1999999096311MD1810031+9999REMSYN082AAXX  09064 87320 32670 11605 10109 20079 39631 40164 58003 81500 333 56600 81634;EQDQ01  00002PRCP99
0173873200999992000063006004-30360-066270FM-12+046199999V0209999C000012200019N0200001N1+00861+00311100941ADDAA199000091GA1001+999999999GF100991001001999999001001MA1999999095641MD1710131+9999REMSYN060AAXX  30064 87320 32970 00000 10086 20031 39564 40094 57013;EQDQ01  00002PRCP99
0195873200999992000071218004-30360-066270FM-12+046199999V0209999C000012200019N0200001N1+00861-00501103201ADDAA199000091GA1021+009009029GF102991021011012501001001MA1999999097551MD1710361+9999REMSYN082AAXX  12184 87320 32670 20000 10086 21050 39755 40320 57036 82100 333 56300 82830;EQDQ01  00002PRCP99
0233873200999992000111200004-30360-066270FM-12+046199999V0209999C000012200019N0200001N1+02441+01791099991ADDAA199000091GA1011+012009029GF101991011011012501001001KA1120M+03401KA2120N+02141MA1999999094871MD1210311+9999REMSYN094AAXX  12004 87320 32670 10000 10244 20179 39487 49999 52031 81100 333 10340 20214 56600 81840;EQDQ01  00002PRCP99
0261873200999992000121300004-30360-066270FM-12+046199999V0200501N005110900019N0200001N1+03271+02131099831ADDAA199000091AY121061AY221061GA1011+009009099GF105991011031008001001021KA1120M+03671KA2120N+02601MA1999999094821MD1310191+9999MW1131REMSYN100AAXX  13004 87320 31570 50510 10327 20213 39482 49983 53019 71322 81302 333 10367 20260 56407 81930;EQDQ01  00002PRCP99
0141873205999992000010109004-30370-066300FM-15+0457SACT V02099999999992200019N0112651N1+02201+01301999999ADDGA1021+012009999GA2021+030009999GF104991999999999999999999MA1101291999999MW1001REMMET050SACT 010900Z 00000 9999 FEW040 SCT100 22/13 Q1013;
0137873205999992000010318004-30370-066300FM-15+0457SACT V02099999999992200019N0112651N1+02801+01401999999ADDGA1021+018009999GF104991999999999999999999MA1100811999999MW1001REMMET043SACT 031800Z 11019 9999 SCT060 28/14 Q1008;EQDQ01+000000PRSWM2
0105873205999992000010613004-30370-066300FM-15+0457SACT V0200701N002112200019N9999999N1+02801+01601999999ADDMA1101191999999MW1001REMMET037SACT 061300Z 07004KT SKC 28/16 Q1012;EQDQ01+070002VODIS Q02+000000PRSWM2
0139873205999992000010918004-30370-066300FM-15+0457SACT V02099999999990120019N0112651N1+03101+01901999999ADDGA1071+012009999GF107991999999999999999999MA1101021999999MW1001REMMET045SACT 091800Z 05004 9999 BKN040SC 31/19 Q1010;EQDQ01+000000PRSWM2
0118873205999992000011901004-30370-066300FM-15+0457SACT V02099999999992200019N0112651N1+02501+01901999999ADDGF100991999999999999999999MA1101391999999MW1001REMMET040SACT 190100Z 00000 9999 SKC 25/19 Q1014;EQDQ01+000000PRSWM2
0160873205999992000012623004-30370-066300FM-15+0457SACT V02099999999992200019N0112651N1+03101+01501999999ADDGA1021+012009999GA2021+030009999GF102991999999999999999999MA1101081999999MW1001REMMET050SACT 262300Z 05010 9999 FEW040 FEW100 31/15 Q1011;EQDQ01+000000PRSWM2
0141873205999992000020911004-30370-066300FM-16+0457SACT V02099999999992200019N0112651N1+99999+99999999999ADDGA1021+012009999GA2021+013509999GF104991999999999999999999MW1001REMMET046SACT 1100 00000 9999 FEW040 SCT045 22-19 1011;EQDQ01+000000PRSWM2
0165873205999992000022009004-30370-066300FM-15+0457SACT V0203201N005110090019N0112651N1+01801+01601999999ADDGA1021+007509999GA2071+009009999GF107991999999999999999999MW1631REMMET054SACT 100900Z 32010KT 9999 RA SCT025 BKN030 18/16 1019;EQDQ01+000003PRSWM1Q02    003PRSWM1
0160873205999992000030603004-30370-066300FM-15+0457SACT V02099999999992200019N0112651N1+02001+01901999999ADDGA1021+006009999GA2021+030009999GF102991999999999999999999MA1101801999999MW1001REMMET050SACT 060300Z 00000 9999 FEW020 FEW100 20/19 Q1018;EQDQ01+000000PRSWM2
0139873205999992000031009004-30370-066300FM-15+0457SACT V0209999C000012200019N0112651N1+01801+01701999999ADDGA1021+009009999GF102991999999999999999999MA1101291999999MW1001REMMET045SACT 100900Z 00000KT 9999 FEW030 18/17 Q1013;EQDQ01+000000PRSWM2
0096873205999992000031101004-30370-066300FM-16+0457SACT V02099999999992200019N0112651N1+99999+99999999999ADDMW1001REMMET059SACT 110100Z 00000 9999 REL. A LA VISTA FEW040 20/19 Q1013;EQDQ01+000000PRSWM2
0185873205999992000031303004-30370-066300FM-15+0457SACT V0200901N007212200019N0112651N1+02401+02001999999ADDGA1021+010509999GA2021+012009999GA3021+030009999GF104991999999999999999999MA1100811999999MW1001REMMET059SACT 130300Z 09014KT 9999 FEW035 SCT040 SCT100 24/20 Q1008;EQDQ01+000000PRSWM2
0134873205999992000032214004-30370-066300FM-15+0457SACT V0209999999999220001CN0112651N1+02101+01601999999ADDGA1071+009009999GA2021+030009999MW1001REMMET049SACT 221400Z 00000 9999 BKN030 FEW100 21/16 1014;EQDQ01+000022SCOTCVQ02+000000PRSWM2
0087873205999992000032422004-30370-066300FM-16+0457SACT V02099999999992200019N0112651N1+99999+99999999999ADDMW1001REMMET050SACT 242200Z 00000 9999 FEW 100 FEW150 25/16 1014;EQDQ01+000000PRSWM2
0137873205999992000032708004-30370-066300FM-15+0457SACT V02099999999990090019N0112651N1+01501+01001999999ADDGA1081+009009999GF108991999999999999999999MA1100811999999MW1001REMMET043SACT 270800Z 14029 9999 OVC030 15/10 Q1008;EQDQ01+000000PRSWM2
0137873205999992000040600004-30370-066300FM-15+0457SACT V02099999999990060019N0112651N1+01901+01801999999ADDGA1081+006009999GF108991999999999999999999MA1101291999999MW1001REMMET043SACT 060000Z 00000 9999 OVC020 19/18 Q1013;EQDQ01+000000PRSWM2
0137873205999992000041109004-30370-066300FM-15+0457SACT V02099999999990060019N0112651N1+01901+01601999999ADDGA1081+006009999GF108991999999999999999999MA1101691999999MW1001REMMET043SACT 110900Z 00000 9999 OVC020 19/16 Q1017;EQDQ01+000000PRSWM2
0160873205999992000041811004-30370-066300FM-15+0457SACT V02099999999992200019N0112651N1+01201+01201999999ADDGA1021+004209999GA2021+010509999GF104991999999999999999999MA1101901999999MW1001REMMET050SACT 181100Z 00000 9999 FEW014 SCT035 12/12 Q1019;EQDQ01+000000PRSWM2
0156873205999992000050407004-30370-066300FM-15+0457SACT V0209999C000010024019N0020001N1+00901+00901999999ADDGA1081+002409999GF108991999999999999999999MA1102001999999MW1531REMMET046SACT 040700Z 00000KT 2000 DZ OVC008 9/9 Q1020;EQDQ01+000003PRSWM1Q02    003PRSWM1
0160873205999992000060516004-30370-066300FM-15+0457SACT V02099999999990075019N0112651N1+01701+01401999999ADDGA1021+005409999GA2081+007509999GF108991999999999999999999MA1101081999999MW1001REMMET050SACT 051600Z 00000 9999 SCT018 OVC025 17/14 Q1011;EQDQ01+000000PRSWM2
0118873205999992000060816004-30370-066300FM-15+0457SACT V02099999999992200019N0112651N1+01901+01201999999ADDGF100991999999999999999999MA1102001999999MW1001REMMET040SACT 081600Z 05004 9999 SKC 19/12 Q1020;EQDQ01+000000PRSWM2
0137873205999992000061422004-30360-066300FM-15+0457SACT V0209999C000010090019N0112651N1+01901+01601999999ADDGA1081+009009999GF108991999999999999999999MA1100101999999MW1001REMMET043SACT 2200Z 00000KT 9999 OVC030 19/16 Q1001;EQDQ01+000000PRSWM2
0179873205999992000061705004-30360-066300FM-15+0457SACT V02099999999990054019N0112651N1+00601+00401999999ADDGA1071+005409999GA2071+006009999GF107991999999999999999999MA1102711999999MW1631REMMET053SACT 170500Z 14008 9999 RA BKN018 BKN020 06/04 Q1027;EQDQ01+000003PRSWM1Q02    003PRSWM1
0121873205999992000061723004-30360-066300FM-15+0457SACT V02099999999990072019N0112651N1+00701+00401999999ADDGA1081+007209999GF108991999999999999999999MW1001REMMET042SACT 172300Z 00000 9999 OVC024 07/04 1026;EQDQ01+000000PRSWM2
0118873205999992000070223004-30360-066300FM-15+0457SACT V02099999999992200019N0112651N1+01001+00501999999ADDGF100991999999999999999999MA1101801999999MW1001REMMET040SACT 022300Z 00000 9999 SKC 10/05 Q1018;EQDQ01+000000PRSWM2
0118873205999992000070301004-30360-066300FM-15+0457SACT V02099999999992200019N0112651N1+00801+00501999999ADDGF100991999999999999999999MA1102001999999MW1001REMMET040SACT 030100Z 14010 9999 SKC 08/05 Q1020;EQDQ01+000000PRSWM2
0119873205999992000071900004-30360-066300FM-15+0457SACT V02099999999992200019N0112651N1+00701-00101999999ADDGF100991999999999999999999MA1102201999999MW1001REMMET041SACT 190000Z 00000 9999 SKC 07/M01 Q1022;EQDQ01+000000PRSWM2
0120873205999992000080709004-30360-066300FM-15+0457SACT V0201601N006212200019N0112651N1+01301+01001999999ADDGF100991999999999999999999MA1101021999999MW1001REMMET042SACT 070900Z 16012KT 9999 SKC 13/10 Q1010;EQDQ01+000000PRSWM2
0137873205999992000081122004-30360-066300FM-15+0457SACT V0200501N003112200019N0112651N1+01001+00001999999ADDGA1021+012009999GF104991999999999999999999MA1102911999999MW1001REMMET043SACT 2200Z 05006KT 9999 SCT040 10/00 Q1029;EQDQ01+000000PRSWM2
0119873205999992000090315004-30360-066300FM-15+0457SACT V0200501N008212200019N0112651N1+01801+00301999999ADDGF100991999999999999999999MA1102201999999MW1001REMMET041SACT 031500 05016KT 9999 SKC 18/03 Q1022;EQDQ01+000000PRSWM2
0137873205999992000091501004-30360-066300FM-15+0457SACT V02099999999992200019N0112651N1+00601+00201999999ADDGA1021+030009999GF104991999999999999999999MA1102711999999MW1001REMMET043SACT 150100Z 00000 9999 SCT100 06/02 Q1027;EQDQ01+000000PRSWM2
0138873205999992000091703004-30360-066300FM-15+0457SACT V0201401N004112200019N0112651N1+01101+00301999999ADDGA1021+012009999GF104991999999999999999999MA1101691999999MW1001REMMET044SACT 170300 14008KT 9999 SCT040 11/03 Q1017;EQDQ01+000000PRSWM2
0118873205999992000092102004-30360-066300FM-15+0457SACT V0209999C000012200019N0112651N1+01701+00701999999ADDGF100991999999999999999999MA1101491999999MW1001REMMET040SACT 0200Z 00000KT 9999 SKC 17/07 Q1015;EQDQ01+000000PRSWM2
0137873205999992000102605004-30360-066300FM-15+0457SACT V02099999999990060019N0112651N1+01401+01401999999ADDGA1071+006009999GF107991999999999999999999MA1101491999999MW1001REMMET043SACT 260500Z 00000 9999 BKN020 14/14 Q1015;EQDQ01+000000PRSWM2
0150873205999992000103023004-30360-066300FM-15+0457SACT V0200901N00511220001CN0112651N1+02701+01801999999ADDGA1071+012009999GA2021+030009999MA1100611999999MW1001REMMET050SACT 2300Z 09010KT 9999 BKN040 SCT100 27/18 Q1006;EQDQ01+000042SCOTCVQ02+000000PRSWM2
0239873280999992000010412004-31950-065130FM-12+0569SAOD V0209999C000012200019N0300001N1+02101+01521100831ADDAA106000091GA1021+012009069GF104991021051012501071001KA1120M+02101KA2120N+01501MA1999999094471MD1210051+9999REMSYN100AAXX  04124 87328 32680 40000 10210 20152 39447 40083 52005 82570 333 10210 20150 56550 82640 95000;EQDQ01  00002PRCP06
0221873280999992000022300004-31950-065130FM-12+0569SAOD V0203201N001012200019N0300001N1+02421+01731100721ADDAA199000091GA1001+999999999GF100991001001999999001001KA1120M+03081KA2120N+02281MA1999999094421MD1310081+9999REMSYN082AAXX  23004 87328 32980 03202 10242 20173 39442 40072 53008 333 10308 20228 95000;EQDQ01  00002PRCP99
0233873280999992000041000004-31950-065130FM-12+0569SAOD V0209999C000010150019N0300001N1+02761+02151100671ADDAA199000091GA1051+015009069GF107991051051017501071001KA1120M+03151KA2120N+02201MA1999999094411MD1210231+9999REMSYN094AAXX  10004 87328 32780 70000 10276 20215 39441 40067 52023 85570 333 10315 20220 85650 95060;EQDQ01  00002PRCP99
0223873280999992000060718004-31950-065130FM-12+0569SAOD V0203201N001512200019N0300001N1+01801+00991101981ADDAA199000091GA1011+012009089GA2021+013509069GF103991031081012501001001MA1999999095351MD1710191+9999REMSYN094AAXX  07184 87328 32680 33203 10180 20099 39535 40198 57019 83800 333 56700 81840 82645 95063;EQDQ01  00002PRCP99
0221873280999992000062500004-31950-065130FM-12+0569SAOD V0209999C000012200019N0300001N1+01141+00061101121ADDAA199000091GA1001+999999999GF100991001001999999001001KA1120M+02101KA2120N+00921MA1999999094511MD1210251+9999REMSYN082AAXX  25004 87328 32980 00000 10114 20006 39451 40112 52025 333 10210 20092 95000;EQDQ01  00002PRCP99
0217873280999992000071106004-31950-065130FM-12+0569SAOD V0209999C000010150019N0300001N1-00241-00381103551ADDAA199000091GA1021+003009079GA2051+015009069GF105991051051001501001001MA1999999096311MD1010121+9999REMSYN088AAXX  11064 87328 32280 50000 11024 21038 39631 40355 50012 85500 333 82710 85650 95040;EQDQ01  00002PRCP99
0195873280999992000080506004-31950-065130FM-12+0569SAOD V0200901N001010150019N0300001N1+01521+00821101591ADDAA199000091GA1081+015009069GF108991081051017501999999MA1999999095061MD1810081+9999REMSYN082AAXX  05064 87328 32780 80902 10152 20082 39506 40159 58008 885// 333 88650 95000;EQDQ01  00002PRCP99
0239873280999992000082512004-31950-065130FM-12+0569SAOD V0201801N002610030019N0100001N1+00421+00371101481ADDAA199000091GA1071+003009079GF107991071061004501001001KA1120M+01101KA2120N+00381MA1999999094811MD1110111+9999REMSYN100AAXX  25124 87328 32460 71805 10042 20037 39481 40148 51011 87600 333 10110 20038 56400 87710 95080;EQDQ01  00002PRCP99
0183873280999992000082806004-31950-065130FM-12+0569SAOD V0201401N001512200019N0300001N1+00301-00331101811ADDAA199000091GA1001+999999999GF100991001001999999001001MA1999999095751MD1810051+9999REMSYN070AAXX  28064 87328 32980 01403 10030 21033 39575 40181 58005 333 95000;EQDQ01  00002PRCP99
0175873280999992000090906004-31950-065130FM-12+0569SAOD V0201801N006710360019N0300001N1+01161+00671100661ADDAA199000091GF108991021051012501071061MA1999999094301MD1210121+9999REMSYN078AAXX  09064 87328 32680 81813 10116 20067 39430 40066 52012 82576 82240 95020;EQDQ01  00002PRCP99
0195873280999992000091606004-31950-065130FM-12+0569SAOD V0200901N001012200019N0300001N1+00621+00121102431ADDAA199000091GA1011+015009089GF101991011011017501001001MA1999999095711MD1710111+9999REMSYN082AAXX  16064 87328 32780 10902 10062 20012 39571 40243 57011 81100 333 81850 95010;EQDQ01  00002PRCP99
0223873280999992000093018004-31950-065130FM-12+0569SAOD V0202701N002112200019N0300001N1+03161+01311101141ADDAA199000091AY101061AY201061GA1011+012009089GF101991011011012501001001MA1999999094871MD1710271+9999MW1051REMSYN088AAXX  30184 87328 32680 12704 10316 20131 39487 40114 57027 70500 81100 333 81840 95000;EQDQ01  00002PRCP99
0183873280999992000100806004-31950-065130FM-12+0569SAOD V0203601N002612200019N0300001N1+02081+01051100901ADDAA199000091GA1001+999999999GF100991001001999999001001MA1999999094631MD1410001+9999REMSYN070AAXX  08064 87328 32980 03605 10208 20105 39463 40090 54000 333 95000;EQDQ01  00002PRCP99
0238873280999992000101418004-31950-065130FM-12+0569SAOD V0209999C000010090019N0200001N1+01721+01411101661ADDAA106000591AY161061AY261061GA1031+006009079GA2081+009009059GF108991031071008001021999MA1999999095171MD1810271+9999MW1611REMSYN106AAXX  14184 87328 11570 80000 10172 20141 39517 40166 58027 69941 76166 8372/ 333 56880 83720 88530 95080;
0255873280999992000110500004-31950-065130FM-12+0569SAOD V0203601N002612200019N0300001N1+02001+01321100681ADDAA199000091GA1011+012009069GA2011+012009089GF104991021081012501071001KA1120M+02451KA2120N+01701MA1999999094291MD1310131+9999REMSYN100AAXX  05004 87328 32680 43605 10200 20132 39429 40068 53013 82870 333 10245 20170 81640 81840 95060;EQDQ01  00002PRCP99
0211873280999992000111000004-31950-065130FM-12+0569SAOD V0203601N010312200019N0300001N1+02001+01571101071ADDAA199000091GF102991021021012501001001KA1120M+02501KA2120N+01521MA1999999094631MD1310351+9999REMSYN088AAXX  10004 87328 32680 23620 10200 20157 39463 40107 53035 82200 333 10250 20152 95060;EQDQ01  00002PRCP99
0221873280999992000123112004-31950-065130FM-12+0569SAOD V0200501N001012200019N0300001N1+02541+01471101121ADDAA199000091GA1001+999999999GF100991001001999999001001KA1120M+02561KA2120N+01721MA1999999094821MD1310161+9999REMSYN082AAXX  31124 87328 32980 00502 10254 20147 39482 40112 53016 333 10256 20172 95000;EQDQ01  00002PRCP99
0236873440999992000010121004-31320-064220SY-MT+0474SACO V0200501N007712200019N0150001N1+02761+01631100911ADDGA1011+015009099GF102991011031017501001021MA1999999095601MD1710191+9999MW1001REMSYN088AAXX  01214 87344 42765 20515 10276 20163 39560 40091 57019 81302 333 56505 57952 81950;MET053SACO 012100Z 05015KT 9999 CAVOK FEW050CB 28/16 Q1013;
0335873440999992000010900004-31320-064220SY-MT+0474SACO V0203401N001512200019N0150001N1+02121+01731101091ADDAA106000091GA1021+004509999GA2021+030009999GF104991011051004501071001KA1120M+02501KA2120N+01951MA1101491095781MD1410001+9999MW1001REMSYN100AAXX  09004 87344 32465 43403 10212 20173 39578 40109 54000 81570 333 10250 20195 56550 81615 83360;MET052SACO 090000Z 34003KT 9999 FEW015 SCT100 21/17 Q1015;EQDQ01+000000PRSWM2Q02  00002PRCP06
0162873440999992000011110004-31320-064220FM-15+0474SACO V0209999C000012200019N0112651N1+01901+01701999999ADDGA1021+009009999GA2021+030009999GF102991999999999999999999MA1101291999999MW1001REMMET052SACO 111000Z 00000KT 9999 SCT030 FEW100 19/17 Q1013;EQDQ01+000000PRSWM2
0332873440999992000011121004-31320-064220SY-MT+0474SACO V0201801N00101012001CN0030001N1+02161+02101100541ADDAY191031AY291031GA1021+002109999GA2021+006009999GA3021+012009999GF108991051091002501021999MA1100911095211MD1310051+9999MW1951REMSYN106AAXX  11214 87344 41330 81802 10216 20210 39521 40054 53005 79599 8592/ 333 56269 57980 83707 83520 82940;MET064SACO 112100Z 18002KT 3000 TSRA SCT007 SCT020 FEW040 22/21 Q1009;EQDQ01    003PRSWM1
0162873440999992000011505004-31320-064220FM-15+0474SACO V0200901N001010081019N0112651N1+02101+02001999999ADDGA1021+006009999GA2071+008109999GF107991999999999999999999MA1101081999999MW1001REMMET052SACO 150500Z 09002KT 9999 FEW020 BKN027 21/20 Q1011;EQDQ01+000000PRSWM2
0233873440999992000011918004-31320-064220SY-MT+0474SACO V0200501N006712200019N0150001N1+03141+02041100951ADDAA199000091GF100991001001999999001001MA1999999095701MD1710211+9999MW1001REMSYN060AAXX  19184 87344 32965 00513 10314 20204 39570 40095 57021;MET048SACO 191800Z 05013KT 9999 CAVOK SKC 31/20 Q1014;EQDQ01+000000PRSWM2Q02  00002PRCP99
0264873440999992000012021004-31320-064220SY-MT+0474SACO V0200501N007712200019N0150001N1+03221+02141099981ADDGA1021+009009999GA2021+060009999GF103991011041008001001021MA1100511094801MD1810271+9999MW1001REMSYN082AAXX  20214 87344 42565 30515 10322 20214 39480 49998 58027 81402 333 56506 81630;MET052SACO 202100Z 05015KT 9999 FEW030 FEW200 32/21 Q1005;EQDQ01+000000PRSWM2
0120873440999992000012813004-31320-064220FM-15+0474SACO V0200201N008712200019N0112651N1+02601+01201999999ADDGF100991999999999999999999MA1101591999999MW1001REMMET042SACO 281300Z 02017KT 9999 SKC 26/12 Q1016;EQDQ01+000000PRSWM2
0120873440999992000020114004-31320-064220FM-15+0474SACO V0200201N007212200019N0112651N1+02701+01601999999ADDGF100991999999999999999999MA1101591999999MW1001REMMET042SACO 011400Z 02014KT 9999 SKC 27/16 Q1016;EQDQ01+000000PRSWM2
0259873440999992000020312004-31320-064220SY-MT+0474SACO V0202701N002112200019N0150001N1+02021+01441101301ADDAA124013091GF100991001001999999001001KA1120M+02021KA2999N+01281MA1101591095921MD1210171+9999MW1001REMSYN082AAXX  03124 87344 12965 02704 10202 20144 39592 40130 52017 60134 333 10202 20128;MET042SACO 031200Z 27004KT 9999 SKC 20/14 Q1016;EQDQ01+000000PRSWM2
0120873440999992000020422004-31320-064220FM-15+0474SACO V0200201N005112200019N0112651N1+02701+01201999999ADDGF100991999999999999999999MA1100711999999MW1001REMMET042SACO 042200Z 02010KT 9999 SKC 27/12 Q1007;EQDQ01+000000PRSWM2
0139873440999992000021501004-31320-064220FM-15+0474SACO V0209999C000012200019N0112651N1+01501+01201999999ADDGA1021+030009999GF104991999999999999999999MA1102911999999MW1001REMMET045SACO 150100Z 00000KT 9999 SCT100 15/12 Q1029;EQDQ01+000000PRSWM2
0162873440999992000021508004-31320-064220FM-15+0474SACO V0209999C000010300019N0112651N1+01401+01301999999ADDGA1021+008109999GA2071+030009999GF107991999999999999999999MA1102711999999MW1001REMMET052SACO 150800Z 00000KT 9999 SCT027 BKN100 14/13 Q1027;EQDQ01+000000PRSWM2
0120873440999992000021806004-31320-064220FM-15+0474SACO V0203201N002112200019N0112651N1+01701+01401999999ADDGF100991999999999999999999MA1101691999999MW1001REMMET042SACO 180600Z 32004KT 9999 SKC 17/14 Q1017;EQDQ01+000000PRSWM2
0173873440999992000022023154-31320-064220FM-16+0474SACO V0201401N00261220001CN0112651N1+02201+01901999999ADDGA1071+009009999GA2021+012009099MA1102001999999MW1171REMMET057SACO 202315Z 14005KT 9999 TS BKN030 FEW040CB 22/19 Q1020;EQDQ01+000022SCOTCVQ02+000003PRSWM1Q03    003PRSWM1
0120873440999992000022311004-31320-064220FM-15+0474SACO V0209999C000012200019N0112651N1+01901+01701999999ADDGF100991999999999999999999MA1101491999999MW1001REMMET042SACO 231100Z 00000KT 9999 SKC 19/17 Q1015;EQDQ01+000000PRSWM2
0139873440999992000022314004-31320-064220FM-15+0474SACO V0200501N005112200019N0112651N1+02801+02101999999ADDGA1021+007509999GF102991999999999999999999MA1101591999999MW1001REMMET045SACO 231400Z 05010KT 9999 FEW025 28/21 Q1016;EQDQ01+000000PRSWM2
0252873440999992000022506004-31320-064220SY-MT+0474SACO V0200701N003110009019N0150001N1+01821+01761101031ADDAA199000021GA1081+000909999GF108991081071000751999999MA1101391095661MD1510051+9999MW1001REMSYN082AAXX  25064 87344 32165 80706 10182 20176 39566 40103 55005 887// 333 56299 88703;MET045SACO 250600Z 07006KT 9999 OVC003 18/18 Q1014;EQDQ01+000000PRSWM2
0162873440999992000022605004-31320-064220FM-15+0474SACO V0200201N002112200019N0112651N1+02001+02001999999ADDGA1021+007509999GA2021+030009999GF104991999999999999999999MA1101081999999MW1001REMMET052SACO 260500Z 02004KT 9999 SCT025 SCT100 20/20 Q1011;EQDQ01+000000PRSWM2
0120873440999992000022804004-31320-064220FM-15+0474SACO V0203201N002612200019N0112651N1+01401+01301999999ADDGF100991999999999999999999MA1101901999999MW1001REMMET042SACO 280400Z 32005KT 9999 SKC 14/13 Q1019;EQDQ01+000000PRSWM2
0139873440999992000022922004-31320-064220FM-15+0474SACO V0200501N005112200019N0112651N1+02301+01401999999ADDGA1021+030009999GF102991999999999999999999MA1102001999999MW1001REMMET045SACO 292200Z 05010KT 9999 FEW100 23/14 Q1020;EQDQ01+000000PRSWM2
0165873440999992000030222004-31320-064220FM-15+0474SACO V0200201N005712200019N0112651N1+02401+02001999999ADDGA1021+009009999GA2021+012009029GF102991999999999999999999MA1101291999999MW1001REMMET055SACO 022200Z 02011KT 9999 FEW030 FEW040TCU 24/20 Q1013;EQDQ01+000000PRSWM2
0173873440999992000030316304-31320-064220FM-15+0474SACO V0203401N00261220001CN0112651N1+02401+02201999999ADDGA1071+008109999GA2021+030009999MA1101391999999MW1811REMMET057SACO 031630Z 34005KT 9999 SHRA BKN027 FEW100 24/22 Q1014;EQDQ01+000022SCOTCVQ02+000003PRSWM1Q03    003PRSWM1
0139873440999992000030408004-31320-064220FM-15+0474SACO V0202901N001512200019N0112651N1+02001+01901999999ADDGA1021+009009999GF102991999999999999999999MA1101391999999MW1001REMMET045SACO 040800Z 29003KT 9999 FEW030 20/19 Q1014;EQDQ01+000000PRSWM2
0308873440999992000030509004-31320-064220SY-MT+0474SACO V0202701N00261036001CN0150001N1+01661+01631101541ADDAY121031AY221031GA1021+012009999GA2021+030009999GF107991031051012501071001MA1101901096131MD1510051+9999MW1101REMSYN094AAXX  05094 87344 41665 72705 10166 20163 39613 40154 55005 71022 83570 333 56660 83640 84360;MET052SACO 050900Z 27005KT 9999 SCT040 SCT100 16/16 Q1019;EQDQ01+000000PRSWM2Q02    003PRSWM1
0264873440999992000030903004-31320-064220SY-MT+0474SACO V0209999C000012200019N0120001N1+01631+01581101751ADDGA1021+012009999GA2021+030009999GF103991021051012501061001MA1102101096301MD1010041+9999MW1001REMSYN082AAXX  09034 87344 42662 30000 10163 20158 39630 40175 50004 82560 333 56990 82640;MET052SACO 090300Z 00000KT 9999 FEW040 FEW100 16/16 Q1021;EQDQ01+000000PRSWM2
0375873440999992000031200004-31320-064220SY-MT+0474SACO V0203201N001012200019N0150001N1+02181+01981101071ADDAA199000091AY191061AY221061GA1021+010209099GA2021+030009999GF103991021091012501061001KA1120M+02781KA2120N+02041MA1101491095731MD1310081+9999MW1131REMSYN106AAXX  12004 87344 31665 33202 10218 20198 39573 40107 53008 71392 82960 333 10278 20204 56690 57932 82934;MET054SACO 120000Z 32002KT 9999 FEW034CB FEW100 22/21 Q1015;EQDQ01+000000PRSWM2Q02  00002PRCP99Q03    003PRSWM1
0139873440999992000031408004-31320-064220FM-15+0474SACO V0203201N002110300019N0112651N1+01701+01701999999ADDGA1071+030009999GF107991999999999999999999MA1101291999999MW1001REMMET045SACO 140800Z 32004KT 9999 BKN100 17/17 Q1013;EQDQ01+000000PRSWM2
0120873440999992000031905004-31320-064220FM-15+0474SACO V0203401N003112200019N0112651N1+01701+01501999999ADDGF100991999999999999999999MA1101591999999MW1001REMMET042SACO 190500Z 34006KT 9999 SKC 17/15 Q1016;EQDQ01+000000PRSWM2
0162873440999992000032108004-31320-064220FM-15+0474SACO V0202701N001012200019N0112651N1+01801+01701999999ADDGA1021+014709999GA2021+030009999GF104991999999999999999999MA1101591999999MW1001REMMET052SACO 210800Z 27002KT 9999 SCT049 SCT100 18/17 Q1016;EQDQ01+000000PRSWM2
0139873440999992000032208004-31320-064220FM-15+0474SACO V0203401N001512200019N0112651N1+01401+01301999999ADDGA1021+060009999GF102991999999999999999999MA1102101999999MW1001REMMET045SACO 220800Z 34003KT 9999 FEW200 14/13 Q1021;EQDQ01+000000PRSWM2
0182873440999992000040605004-31320-064220FM-15+0474SACO V0209999C000012200019N0020001N1+01801+01801999999ADDGA1021+000909999GA2021+001209999GF104991999999999999999999MA1101801999999MW1511REMMET056SACO 060500Z 00000KT 2000 -DZ SCT003 SCT004 18/18 Q1018;EQDQ01+000003PRSWM1Q02    003PRSWM1
0207873440999992000040704004-31320-064220FM-15+0474SACO V0209999C000010051019N0112651N1+01801+01701999999ADDGA1021+001509999GA2071+005109999GA3021+012009099GF107991999999999999999999MA1101291999999MW1611REMMET065SACO 070400Z 00000KT 9999 -RA FEW005 FEW040CB BKN017 18/17 Q1013;EQDQ01+000003PRSWM1Q02    003PRSWM1
0162873440999992000040823004-31320-064220FM-15+0474SACO V0200501N002610024019N0112651N1+01901+01901999999ADDGA1021+001509999GA2071+002409999GF107991999999999999999999MA1101291999999MW1001REMMET052SACO 082300Z 05005KT 9999 SCT005 BKN008 19/19 Q1013;EQDQ01+000000PRSWM2
0344873440999992000040900004-31320-064220SY-MT+0474SACO V0200501N00261000601CN0030001N1+01921+01891101081ADDAA199000021AY121061AY221061GA1021+000909999GA2021+001209999GF108991081061000751999999KA1120M+02201KA2120N+01791MA1101391095691MD1210151+9999MW1101REMSYN106AAXX  09004 87344 31130 80505 10192 20189 39569 40108 52015 71022 886// 333 10220 20179 56899 84703 84704;MET055SACO 090000Z 05005KT 3000 BR SCT003 SCT004 19/19 Q1014;EQDQ01    003PRSWM1
0139873440999992000041007154-31320-064220FM-16+0474SACO V0201801N005110012019N0112651N1+02201+02001999999ADDGA1081+001209999GF108991999999999999999999MA1101391999999MW1001REMMET045SACO 100715Z 18010KT 9999 OVC004 22/20 Q1014;EQDQ01+000000PRSWM2
0162873440999992000041202004-31320-064220FM-15+0474SACO V0209999C000010102019N0112651N1+01701+01401999999ADDGA1021+006009999GA2071+010209999GF107991999999999999999999MA1102401999999MW1001REMMET052SACO 120200Z 00000KT 9999 SCT020 BKN034 17/14 Q1024;EQDQ01+000000PRSWM2
0139873440999992000041223004-31320-064220FM-15+0474SACO V0200501N003612200019N0112651N1+01501+01101999999ADDGA1021+007509999GF102991999999999999999999MA1101591999999MW1001REMMET045SACO 122300Z 05007KT 9999 FEW025 15/11 Q1016;EQDQ01+000000PRSWM2
0283873440999992000041618004-31320-064220SY-MT+0474SACO V0201801N004610009019N0015001N1+01601+01531101801ADDAA106004191AY161061AY251061GA1081+000909999GF108991081071000751999999MA1102101096331MD1710171+9999MW1531REMSYN094AAXX  16184 87344 11115 81809 10160 20153 39633 40180 57017 60041 75365 887// 333 56499 88703;MET048SACO 161800Z 18009KT 1500 DZ OVC003 16/15 Q1021;EQDQ01    003PRSWM1
0120873440999992000042001004-31320-064220FM-15+0474SACO V0203201N002612200019N0112651N1+01401+01001999999ADDGF100991999999999999999999MA1102101999999MW1001REMMET042SACO 200100Z 32005KT 9999 SKC 14/10 Q1021;EQDQ01+000000PRSWM2
0162873440999992000042701004-31320-064220FM-15+0474SACO V0202701N001510300019N0112651N1+01901+01601999999ADDGA1021+012009999GA2071+030009999GF107991999999999999999999MA1101691999999MW1001REMMET052SACO 270100Z 27003KT 9999 FEW040 BKN100 19/16 Q1017;EQDQ01+000000PRSWM2
0313873440999992000050321004-31320-064220SY-MT+0474SACO V0202001N004110015019N0040001N1+00871+00731102071ADDAY161031AY261031GA1071+001509999GA2081+006009999GF108991061071001501021999MA1102201096451MD1310031+9999MW1611MW2631REMSYN106AAXX  03214 87344 41240 82008 10087 20073 39645 40207 53003 76166 8672/ 333 56449 86705 88520 94070 94470;MET055SACO 032100Z 20008KT 4000 RA BKN005 OVC020 09/07 Q1022;EQDQ01    003PRSWM1
0162873440999992000050810004-31320-064220FM-15+0474SACO V0200501N002612200019N0112651N1+01001+00901999999ADDGA1021+000609999GA2021+003609999GF104991999999999999999999MA1102301999999MW1001REMMET052SACO 081000Z 05005KT 9999 SCT002 SCT012 10/09 Q1023;EQDQ01+000000PRSWM2
0307873440999992000051909004-31320-064220SY-MT+0474SACO V0209999C00001001201CN0050001N1+01061+00981102321ADDAY121031AY221031GA1021+001509999GA2021+003609999GF108991081071001501999999MA1102511096741MD1710111+9999MW1101REMSYN106AAXX  19094 87344 41250 80000 10106 20098 39674 40232 57011 71022 887// 333 56899 84705 84612 94070 94478;MET055SACO 190900Z 00000KT 5000 BR SCT005 SCT012 11/10 Q1025;EQDQ01    003PRSWM1
0241873440999992000052209004-31320-064220SY-MT+0474SACO V0203401N001012200019N0150001N1+00791+00691101691ADDGA1021+060009999GF102991001001999999001021MA1101901096161MD1710111+9999MW1001REMSYN082AAXX  22094 87344 42965 23402 10079 20069 39616 40169 57011 80002 333 56006 82070;MET045SACO 220900Z 34002KT 9999 FEW200 08/07 Q1019;EQDQ01+000000PRSWM2
0139873440999992000052505004-31320-064220FM-15+0474SACO V0202701N001512200019N0112651N1+01301+01201999999ADDGA1021+030009999GF102991999999999999999999MA1101021999999MW1001REMMET045SACO 250500Z 27003KT 9999 FEW100 13/12 Q1010;EQDQ01+000000PRSWM2
0139873440999992000052519004-31320-064220FM-15+0474SACO V0201601N004612200019N0112651N1+01901+00801999999ADDGA1021+030009999GF104991999999999999999999MA1101391999999MW1001REMMET045SACO 251900Z 16009KT 9999 SCT100 19/08 Q1014;EQDQ01+000000PRSWM2
0263873440999992000052909004-31320-064220SY-MT+0474SACO V0203401N003112200019N0150001N1+00981+00311101121ADDGA1021+030009999GF199999011001999999071001MA1101291095651MD1810091+9999MW1001REMSYN088AAXX  29094 87344 42965 13406 10098 20031 39565 40112 58009 81070 333 56040 81360 94234;MET045SACO 290900Z 34006KT 9999 FEW100 10/03 Q1013;EQDQ01+000012SCOTCVQ02+000000PRSWM2
0192873440999992000061518304-31310-064220FM-15+0474SACO V0202001N009812200019N0080001N1+01001+00601999999ADDGA1021+003609999GA2021+006009999GF104991999999999999999999MA1101801999999MW1531OC101181REMMET058SACO 151830Z 20019G23KT 8000 DZ SCT012 SCT020 10/06 Q1018;EQDQ01+000003PRSWM1Q02    003PRSWM1
0163873440999992000061722004-31310-064220FM-15+0474SACO V0201401N002610300019N0112651N1+00601-00201999999ADDGA1021+009009999GA2071+030009999GF107991999999999999999999MA1102911999999MW1001REMMET053SACO 172200Z 14005KT 9999 FEW030 BKN100 06/M02 Q1029;EQDQ01+000000PRSWM2
0139873440999992000061905004-31310-064220FM-15+0474SACO V0202901N001510090019N0112651N1+00301+00101999999ADDGA1071+009009999GF107991999999999999999999MA1102911999999MW1001REMMET045SACO 190500Z 29003KT 9999 BKN030 03/01 Q1029;EQDQ01+000000PRSWM2
0247873440999992000061915004-31310-064220SY-MT+0474SACO V0209999C000012200019N0150001N1+00771+00011102791ADDGA1021+012009999GF103991031051012501001001MA1102811097041MD1810031+9999MW1001REMSYN088AAXX  19154 87344 42665 30000 10077 20001 39704 40279 58003 83500 333 56800 83640 94464;MET045SACO 191500Z 00000KT 9999 SCT040 08/00 Q1028;EQDQ01+000000PRSWM2
0120873440999992000062117004-31310-064220FM-15+0474SACO V0201801N002112200019N0112651N1+01901+00401999999ADDGF100991999999999999999999MA1101491999999MW1001REMMET042SACO 211700Z 18004KT 9999 SKC 19/04 Q1015;EQDQ01+000000PRSWM2
0181873440999992000062805484-31310-064220FM-16+0474SACO V0202701N002610006019N0006001N1+01001+01001999999ADDGA1021+000309999GA2071+000609999GF107991999999999999999999MA1100811999999MW1441REMMET055SACO 280548Z 27005KT 0600 FG SCT001 BKN002 10/10 Q1008;EQDQ01+000003PRSWM1Q02    003PRSWM1
0120873440999992000070214004-31310-064220FM-15+0474SACO V0201801N002112200019N0112651N1+01101+00201999999ADDGF100991999999999999999999MA1102511999999MW1001REMMET042SACO 021400Z 18004KT 9999 SKC 11/02 Q1025;EQDQ01+000000PRSWM2
0140873440999992000071716004-31310-064220FM-15+0474SACO V0200501N002612200019N0112651N1+01601-00101999999ADDGA1021+060009999GF102991999999999999999999MA1101291999999MW1001REMMET046SACO 171600Z 05005KT 9999 FEW200 16/M01 Q1013;EQDQ01+000000PRSWM2
0281873440999992000071800004-31310-064220SY-MT+0474SACO V0201801N002612200019N0150001N1+01001-00111101951ADDAA199000091GF100991001001999999001001KA1120M+01971KA2999N-00121MA1102001096251MD1210571+9999MW1001OC100621REMSYN076AAXX  18004 87344 32965 01805 10100 21011 39625 40195 52057 333 10197 21012;MET046SACO 180000Z 18008G12KT 9999 SKC 10/M01 Q1020;EQDQ01+000000PRSWM2Q02  00002PRCP99
0121873440999992000072014004-31310-064220FM-15+0474SACO V0202901N002112200019N0112651N1+02001-00601999999ADDGF100991999999999999999999MA1101081999999MW1001REMMET043SACO 201400Z 29004KT 9999 SKC 20/M06 Q1011;EQDQ01+000000PRSWM2
0120873440999992000072704004-31310-064220FM-15+0474SACO V0203601N004112200019N0112651N1+01101+00201999999ADDGF100991999999999999999999MA1101901999999MW1001REMMET042SACO 270400Z 36008KT 9999 SKC 11/02 Q1019;EQDQ01+000000PRSWM2
0120873440999992000073102004-31310-064220FM-15+0474SACO V0203401N001512200019N0112651N1+00701+00401999999ADDGF100991999999999999999999MA1102001999999MW1001REMMET042SACO 310200Z 34003KT 9999 SKC 07/04 Q1020;EQDQ01+000000PRSWM2
0139873440999992000080613004-31310-064220FM-15+0474SACO V0200501N001512200019N0112651N1+01501+00901999999ADDGA1021+060009999GF102991999999999999999999MA1101491999999MW1001REMMET045SACO 061300Z 05003KT 9999 FEW200 15/09 Q1015;EQDQ01+000000PRSWM2
0121873440999992000081308004-31310-064220FM-15+0474SACO V0203601N005712200019N0112651N1+00401-00101999999ADDGF100991999999999999999999MA1101901999999MW1001REMMET043SACO 130800Z 36011KT 9999 SKC 04/M01 Q1019;EQDQ01+000000PRSWM2
0120873440999992000081707004-31310-064220FM-15+0474SACO V0209999C000012200019N0112651N1+00901+00201999999ADDGF100991999999999999999999MA1101691999999MW1001REMMET042SACO 170700Z 00000KT 9999 SKC 09/02 Q1017;EQDQ01+000000PRSWM2
0139873440999992000081802004-31310-064220FM-15+0474SACO V0203601N003610600019N0112651N1+01401+00401999999ADDGA1071+060009999GF107991999999999999999999MA1102101999999MW1001REMMET045SACO 180200Z 36007KT 9999 BKN200 14/04 Q1021;EQDQ01+000000PRSWM2
0121873440999992000082807004-31310-064220FM-15+0474SACO V0203201N002112200019N0112651N1+00101-00101999999ADDGF100991999999999999999999MA1102001999999MW1001REMMET043SACO 280700Z 32004KT 9999 SKC 01/M01 Q1020;EQDQ01+000000PRSWM2
0275873440999992000082821004-31310-064220SY-MT+0474SACO V0200701N006210600019N0150001N1+01571-00551100971ADDGA1071+060009999GF199999001001999999001061MA1101081095411MD1510071+9999MW1001OC101181REMSYN088AAXX  28214 87344 42965 50712 10157 21055 39541 40097 55007 80006 333 56005 85270 91123;MET049SACO 282100Z 07012G23KT 9999 BKN200 16/M06 Q1011;EQDQ01+000052SCOTCVQ02+000000PRSWM2
0162873440999992000091108004-31310-064220FM-15+0474SACO V0201801N007712200019N0112651N1+01101+00601999999ADDGA1021+030009999GA2021+060009999GF102991999999999999999999MA1101291999999MW1001REMMET052SACO 110800Z 18015KT 9999 SCT100 FEW200 11/06 Q1013;EQDQ01+000000PRSWM2
0241873440999992000091521004-31310-064220SY-MT+0474SACO V0200701N003112200019N0150001N1+01201+00301102471ADDGA1021+030009999GF102991021001999999071001MA1102611096811MD1510081+9999MW1001REMSYN082AAXX  15214 87344 42965 20706 10120 20030 39681 40247 55008 82070 333 56050 82360;MET045SACO 152100Z 07006KT 9999 FEW100 12/03 Q1026;EQDQ01+000000PRSWM2
0173873440999992000091719004-31310-064220FM-15+0474SACO V0203601N007212200019N0112651N1+02001+00701999999ADDGA1021+009009999GA2021+060009999GF102991999999999999999999MA1101191999999MW1001OC101341REMMET055SACO 171900Z 36014G26KT 9999 FEW030 FEW200 20/07 Q1012;EQDQ01+000000PRSWM2
0227873440999992000091818004-31310-064220SY-MT+0474SACO V0201801N002112200019N0150001N1+02371+00871101101ADDAA199000091GF100991001001999999001001MA1101391095701MD1710161+9999MW1001REMSYN060AAXX  18184 87344 32965 01804 10237 20087 39570 40110 57016;MET042SACO 181800Z 18004KT 9999 SKC 24/09 Q1014;EQDQ01+000000PRSWM2Q02  00002PRCP99
0158873440999992000092020004-31310-064220FM-15+0474SACO V0201801N009312200019N0112651N1+02201+00301999999ADDGA1021+060009999GF102991999999999999999999MA1101081999999MW1051REMMET048SACO 202000Z 18018KT 9999 HZ FEW200 22/03 Q1011;EQDQ01+000003PRSWM1Q02    003PRSWM1
0139873440999992000092116004-31310-064220FM-15+0474SACO V0201101N002112200019N0112651N1+01901+00401999999ADDGA1021+060009999GF102991999999999999999999MA1102401999999MW1001REMMET045SACO 211600Z 11004KT 9999 FEW200 19/04 Q1024;EQDQ01+000000PRSWM2
0242873440999992000092403004-31310-064220SY-MT+0474SACO V0202701N001510300019N0150001N1+01161-00161102291ADDGA1081+030009999GF108991081001999999061999MA1102511096771MD1210231+9999MW1001REMSYN082AAXX  24034 87344 42965 82703 10116 21016 39677 40229 52023 8806/ 333 56099 88360;MET046SACO 240300Z 27003KT 9999 OVC100 11/M02 Q1025;EQDQ01+000000PRSWM2
0139873440999992000100310004-31310-064220FM-15+0474SACO V0201801N003110090019N0112651N1+01301+00601999999ADDGA1071+009009999GF107991999999999999999999MA1101591999999MW1001REMMET045SACO 031000Z 18006KT 9999 BKN030 13/06 Q1016;EQDQ01+000000PRSWM2
0139873440999992000100804004-31310-064220FM-15+0474SACO V0203601N001012200019N0112651N1+01601+01101999999ADDGA1021+030009999GF102991999999999999999999MA1101691999999MW1001REMMET045SACO 080400Z 36002KT 9999 FEW100 16/11 Q1017;EQDQ01+000000PRSWM2
0264873440999992000101721004-31310-064220SY-MT+0474SACO V0200901N005112200019N0150001N1+02441+01131101421ADDGA1021+030009999GA2021+060009999GF102991011001999999061011MA1101691096011MD1410001+9999MW1001REMSYN082AAXX  17214 87344 42965 20910 10244 20113 39601 40142 54000 81061 333 56088 81360;MET052SACO 172100Z 09010KT 9999 FEW100 FEW200 24/11 Q1017;EQDQ01+000000PRSWM2
0120873440999992000101802004-31310-064220FM-15+0474SACO V0203401N003612200019N0112651N1+01701+01301999999ADDGF100991999999999999999999MA1102101999999MW1001REMMET042SACO 180200Z 34007KT 9999 SKC 17/13 Q1021;EQDQ01+000000PRSWM2
0181873440999992000101914004-31310-064220FM-15+0474SACO V0200901N001012200019N0060001N1+02501+01801999999ADDGA1021+007509999GA2021+009009999GF102991999999999999999999MA1101591999999MW1051REMMET055SACO 191400Z 09002KT 6000 HZ FEW025 FEW030 25/18 Q1016;EQDQ01+000003PRSWM1Q02    003PRSWM1
0120873440999992000102710004-31310-064220FM-15+0474SACO V0202901N002612200019N0112651N1+01501+00801999999ADDGF100991999999999999999999MA1102001999999MW1001REMMET042SACO 271000Z 29005KT 9999 SKC 15/08 Q1020;EQDQ01+000000PRSWM2
0179873440999992000110102004-31310-064220FM-15+0474SACO V0200501N00411220001CN0112651N1+02101+01901999999ADDGA1071+012009999GA2021+015009099MA1100711999999MW1001REMMET079SACO 010200Z 05008KT 9999 BKN040 FEW050CB 21/19 Q1007 RELAMGOS A LA VISTA - SE;EQDQ01+000022SCOTCVQ02+000000PRSWM2
0120873440999992000112002004-31310-064220FM-15+0474SACO V0201401N001512200019N0112651N1+01501+00701999999ADDGF100991999999999999999999MA1102101999999MW1001REMMET042SACO 200200Z 14003KT 9999 SKC 15/07 Q1021;EQDQ01+000000PRSWM2
0164873440999992000112316004-31310-064220FM-15+0474SACO V0203401N006212200019N0112651N1+03001+02101999999ADDGA1021+007509999GA2021+012009099GF102991999999999999999999MA1100611999999MW1001REMMET054SACO 231600Z 34012KT 9999 FEW025 FEW040CB 30/21 Q1006;EQDQ01+000000PRSWM2
0139873440999992000112422004-31310-064220FM-15+0474SACO V0200901N001512200019N0112651N1+02101+01301999999ADDGA1021+007509999GF102991999999999999999999MA1102001999999MW1001REMMET045SACO 242200Z 09003KT 9999 FEW025 21/13 Q1020;EQDQ01+000000PRSWM2
0139873440999992000120805004-31310-064220FM-15+0474SACO V0202701N001512200019N0112651N1+01901+01401999999ADDGA1021+030009999GF104991999999999999999999MA1101591999999MW1001REMMET045SACO 080500Z 27003KT 9999 SCT100 19/14 Q1016;EQDQ01+000000PRSWM2
0182873440999992000120814004-31310-064220FM-15+0474SACO V0209999C000012200019N0080001N1+02601+01601999999ADDGA1021+010209999GA2021+060009999GF104991999999999999999999MA1101691999999MW1051REMMET056SACO 081400Z 00000KT 8000 -HZ SCT034 SCT200 26/16 Q1017;EQDQ01+000003PRSWM1Q02    003PRSWM1
0172873440999992000120816004-31310-064220FM-15+0474SACO V0200201N00511220001CN0080001N1+02801+01701999999ADDGA1071+010209999GA2021+030009999MA1101591999999MW1051REMMET056SACO 081600Z 02010KT 8000 -HZ BKN034 FEW100 28/17 Q1016;EQDQ01+000022SCOTCVQ02+000003PRSWM1Q03    003PRSWM1
0180873440999992000121502004-31310-064220FM-15+0474SACO V0201401N00361220001CN0112651N1+02301+01901999999ADDGA1071+009009999GA2021+010209099GA3021+030009999MA1101021999999MW1001REMMET064SACO 150200Z 14007KT 9999 LT BKN030 FEW034CB FEW100 23/19 Q1010;EQDQ01+000022SCOTCVQ02+000000PRSWM2
0120873440999992000121714004-31310-064220FM-15+0474SACO V0209999C000012200019N0112651N1+02901+01601999999ADDGF100991999999999999999999MA1101801999999MW1001REMMET042SACO 171400Z 00000KT 9999 SKC 29/16 Q1018;EQDQ01+000000PRSWM2
0227873440999992000121806004-31310-064220SY-MT+0474SACO V0203201N002112200019N0150001N1+02101+01321100931ADDAA199000091GF100991001001999999001001MA1101391095681MD1710131+9999MW1001REMSYN060AAXX  18064 87344 32965 03204 10210 20132 39568 40093 57013;MET042SACO 180600Z 32004KT 9999 SKC 21/13 Q1014;EQDQ01+000000PRSWM2Q02  00002PRCP99
0152873440999992000122011004-31310-064220FM-15+0474SACO V0202701N00261220001CN0112651N1+02001+01601999999ADDGA1071+009009999GA2021+030009999MA1101591999999MW1001REMMET052SACO 201100Z 27005KT 9999 BKN030 FEW100 20/16 Q1016;EQDQ01+000022SCOTCVQ02+000000PRSWM2
0172873440999992000122013004-31310-064220FM-15+0474SACO V0203201N00261220001CN0112651N1+02101+01601999999ADDGA1071+007509999GA2021+010509999MA1101691999999MW1511REMMET056SACO 201300Z 32005KT 9999 -DZ BKN025 SCT035 21/16 Q1017;EQDQ01+000042SCOTCVQ02+000003PRSWM1Q03    003PRSWM1
0139873440999992000122401004-31310-064220FM-15+0474SACO V0203401N002612200019N0112651N1+01901+01401999999ADDGA1021+030009999GF102991999999999999999999MA1101801999999MW1001REMMET045SACO 240100Z 34005KT 9999 FEW100 19/14 Q1018;EQDQ01+000000PRSWM2
0207873490999992000010706004-31670-063880FM-12+0338SACI V0209999C000012200019N0200001N1+02001+01731100891ADDAA106000091GA1001+999999999GF100991001001999999001001MA1999999097102REMSYN060AAXX  07064 87349 32970 00000 10200 20173 39710 40089 58000;EQDQ01+097103APOSP Q02+000082APCTENQ03+000002APC3  Q04  00002PRCP06
0260873490999992000013000004-31670-063880FM-12+0338SACI V0201801N00151036001CN0200001N1+01791+01641100801ADDAA106007191AY191061AY221061GA1021+006009099GF108991021091008001021021KA1120M+02701KA2120N+01721MA1999999096941MD1610111+9999MW1131REMSYN118AAXX  30004 87349 11570 81803 10179 20164 39694 40080 56011 60071 71392 82922 333 10270 20172 56185 57916 82920 85545;
0239873490999992000020512004-31670-063880FM-12+0338SACI V0203601N004612200019N0200001N1+02141+01451100811ADDAA199000091GA1001+999999999GF100991001001999999001001IA1019IA2999+01409KA1120M+02301KA2120N+01631MA1999999096981MD1210171+9999REMSYN082AAXX  05124 87349 32970 03609 10214 20145 39698 40081 52017 333 10230 20163 30014;EQDQ01  00002PRCP99
0215873490999992000032500004-31670-063880FM-12+0338SACI V0209999C000012200019N0200001N1+01781+01291101641ADDAA199000091GA1001+999999999GF100991001001999999001001KA1120M+02481KA2999N+01701MA1999999097731MD1110041+9999REMSYN076AAXX  25004 87349 32970 00000 10178 20129 39773 40164 51004 333 10248 20170;EQDQ01  00002PRCP99
0254873490999992000032700004-31670-063880FM-12+0338SACI V0209999C00001036001CN0030001N1+02011+02011100421ADDAA106000591AY151061AY221061GA1031+001509079GF108991031061001501021999KA1120M+02151KA2120N+01821MA1999999096581MD1310011+9999MW1531REMSYN112AAXX  27004 87349 11230 80000 10201 20201 39658 40042 53001 69951 75352 8362/ 333 10215 20182 56009 83705 88510;
0285873490999992000040812004-31670-063880FM-12+0338SACI V0200201N001010006019N0008001N1+01761+01761101141ADDAA199000091AY141061AY221061GA1081+000609069GF108991081061000751999999IA1099IA2120+01509KA1120M+01901KA2120N+01521MA1999999097251MD1810011+9999MW1421REMSYN106AAXX  08124 87349 31108 80202 10176 20176 39725 40114 58001 74242 886// 333 10190 20152 31015 56099 88702;EQDQ01  00002PRCP99
0195873490999992000042418004-31670-063880FM-12+0338SACI V0203601N006212200019N0200001N1+02761+01471100801ADDAA199000091GA1021+165009019GF102991001001999999001041MA1999999096971MD1610361+9999REMSYN082AAXX  24184 87349 32970 23612 10276 20147 39697 40080 56036 80004 333 56007 82085;EQDQ01  00002PRCP99
0182873490999992000051518004-31670-063880FM-12+0338SACI V0201801N006210045019N0200001N1+01441+00961100781ADDAA199000021GA1051+004509069GF108991051051004501011999MA1999999096861MD1710111+9999REMSYN088AAXX  15184 87349 32470 81812 10144 20096 39686 40078 57011 8551/ 333 56459 85615 83460;
0173873490999992000080718004-31670-063880FM-12+0338SACI V0201601N002612200019N0200001N1+02552+01271101191ADDAA199000091GA1001+999999999GF100991001001999999001001MA1999999097301MD1810161+9999REMSYN060AAXX  07184 87349 32970 01605 10255 20127 39730 40119 58016;EQDQ01  00002PRCP99
