0260714560999992000032912004+52820-104600SY-SA+0490CWFF V0201401N001519999999N9999999N1+00121-00131100891ADDAA124000091KA1999M+00941KA2120N+00101MA1999999095101MD1310121+9999MW1001REMSYN082AAXX  29124 71456 36/// /1403 10012 21013 39510 40089 53012 333 10094 20010 70000;AWY053WFF SA 1200 AUTO8 M M M 089/01/-01/1303/M/ 3012 23MM;EQDQ01+000990PRSWM4Q02  00002PRCP24
0122714560999992000040202004+52820-104600SAO  +0490CWFF V0201001N005119999999N9999999N1+00101+00101999999ADDMW1001OC100821REMAWY096WFF SA 0200 AUTO8 M M M 021/01/01/1010+16/M/0010 PK WND 1117 0130Z PCPN 0.4MM PAST HR 3001 33MM;
0299714560999992000040606004+52820-104600SY-SA+0490CWFF V0200201N002619999999N9999999N1-00631-01241101451ADDAA124002091AA299999999KA1240M+00441KA2240N-00651MA1999999095531MD1110071+9999MW1001OA132401651REMSYN098AAXX  06064 71456 36/// /0205 11063 21124 39553 40145 51007 333 10044 21065 70020 555 33332 40211;AWY054WFF SA 0600 AUTO8 M M M 145/-06/-12/0304/M/ 1007 34MM;EQDQ01+000990PRSWM4Q02  99992PRCP99
0072714560999992000040611004+52820-104600SAO  +0490CWFF V0200901N003019999999N9999999N1-01001-01301999999ADDMW1001REMAWY054WFF SA 1100 AUTO8 M M M 147/-10/-13/0906/M/ 6004 38MM;
0071714560999992000041023004+52820-104600SAO  +0490CWFF V0202901N004619999999N9999999N1+00101-00801999999ADDMW1001REMAWY053WFF SA 2300 AUTO8 M M M 264/01/-08/2909/M/ 6005 61MM;
0089714560999992000041122004+52820-104600SAO  +0490CWFF V0202701N003619999999N9999999N1+00401-01201999999ADDMW1001REMAWY071WFF SA 2200 AUTO8 M M M 262/04/-12/2707/M/ PK WND 3217 2103Z 8011 14MM;
0072714560999992000041205004+52820-104600SAO  +0490CWFF V0202301N003019999999N9999999N1-00401-00601999999ADDMW1001REMAWY054WFF SA 0500 AUTO8 M M M 239/-04/-06/2306/M/ 8007 62MM;
0260714560999992000041900004+52820-104600SY-SA+0490CWFF V0202001N002619999999N9999999N1+00841-00801101721ADDAA124000091KA1120M+00851KA2180N-00651MA1999999095841MD1510051+9999MW1001REMSYN082AAXX  19004 71456 36/// /2005 10084 21080 39584 40172 55005 333 10085 21065 70000;AWY053WFF SA 0000 AUTO8 M M M 172/08/-08/2006/M/ 5005 40MM;EQDQ01+000990PRSWM4Q02  00002PRCP24
0072714560999992000041905004+52820-104600SAO  +0490CWFF V0201501N003619999999N9999999N1-00101-00501999999ADDMW1001REMAWY054WFF SA 0500 AUTO8 M M M 173/-01/-05/1507/M/ 0000 80MM;
0070714560999992000042619004+52820-104600SAO  +0490CWFF V0200601N002519999999N9999999N1+01301+00301999999ADDMW1001REMAWY052WFF SA 1900 AUTO8 M M M 183/13/03/0605/M/ 8002 01MM;
0070714560999992000050404004+52820-104600SAO  +0490CWFF V0201401N004119999999N9999999N1+01201+00501999999ADDMW1001REMAWY052WFF SA 0400 AUTO8 M M M 067/12/05/1408/M/ 0000 57MM;
0071714560999992000050608004+52820-104600SAO  +0490CWFF V0200401N002519999999N9999999N1+00701-00501999999ADDMW1001REMAWY053WFF SA 0800 AUTO8 M M M 066/07/-05/0405/M/ 0003 43MM;
0074714560999992000050805004+52820-104600SAO  +0490CWFF V0202701N003619999999N9999999N1+00401+00401999999ADDMW1001REMAWY056WFF SA 0500 AUTO8 M M M 114/04/04/2707/M/0006 0003 18MM;
0070714560999992000050821004+52820-104600SAO  +0490CWFF V0203101N007219999999N9999999N1+01001+00101999999ADDMW1001REMAWY052WFF SA 2100 AUTO8 M M M 119/10/01/3114/M/ 5001 04MM;
0099714560999992000052117004+52820-104600SAO  +0490CWFF V0202901N006619999999N9999999N1+01701+00201999999ADDMW1001OC100971REMAWY073WFF SA 1700 AUTO8 M M M 061/17/02/2913+19/M/ PK WND 2819 1652Z 8007 72MM;
0070714560999992000052620004+52820-104600SAO  +0490CWFF V0201501N005619999999N9999999N1+02101+01001999999ADDMW1001REMAWY052WFF SA 2000 AUTO8 M M M 055/21/10/1511/M/ 4000 64MM;
0070714560999992000052914004+52820-104600SAO  +0490CWFF V0203101N004619999999N9999999N1+00801+00501999999ADDMW1001REMAWY052WFF SA 1400 AUTO8 M M M 126/08/05/3109/M/ 1018 83MM;
0088714560999992000052917004+52820-104600SAO  +0490CWFF V0202801N006119999999N9999999N1+01001+00501999999ADDMW1001REMAWY070WFF SA 1700 AUTO8 M M M 128/10/05/2812/M/ PK WND 2919 1635Z 3003 98MM;
0071714560999992000060201004+52820-104600SAO  +0490CWFF V0202901N002519999999N9999999N1+01701-00701999999ADDMW1001REMAWY053WFF SA 0100 AUTO8 M M M 215/17/-07/2905/M/ 6006 18MM;
0070714560999992000060305004+52820-104600SAO  +0490CWFF V0201301N002519999999N9999999N1+01201+00501999999ADDMW1001REMAWY052WFF SA 0500 AUTO8 M M M 218/12/05/1305/M/ 0006 68MM;
0070714560999992000061310004+52820-104600SAO  +0490CWFF V0200501N002519999999N9999999N1+00801+00801999999ADDMW1001REMAWY052WFF SA 1000 AUTO8 M M M 093/08/08/0505/M/ 3006 77MM;
0093714560999992000062719004+52820-104600SAO  +0490CWFF V0202601N001019999999N9999999N1+01601+01101999999ADDMW1001REMAWY075WFF SA 1900 AUTO8 M M M 186/16/11/2602/M/0008 PCPN 0.8MM PAST HR 6012 68MM;
0088714560999992000070522004+52820-104600SAO  +0490CWFF V0202201N007219999999N9999999N1+02401+00801999999ADDMW1001REMAWY070WFF SA 2200 AUTO8 M M M 125/24/08/2214/M/ PK WND 2220 2105Z 5001 84MM;
0099714560999992000070723004+52820-104600SAO  +0490CWFF V0202301N005619999999N9999999N1+02201+01701999999ADDMW1001OC100971REMAWY073WFF SA 2300 AUTO8 M M M 060/22/17/2311+19/M/ PK WND 2421 2241Z 8005 41MM;
0093714560999992000071114004+52820-104600SAO  +0490CWFF V0201001N000519999999N9999999N1+01901+01901999999ADDMW1001REMAWY075WFF SA 1400 AUTO8 M M M 074/19/19/1001/M/0022 PCPN 2.2MM PAST HR 8004 66MM;
0070714560999992000071209004+52820-104600SAO  +0490CWFF V0202301N002519999999N9999999N1+01301+01301999999ADDMW1001REMAWY052WFF SA 0900 AUTO8 M M M 091/13/13/2305/M/ 0002 66MM;
0088714560999992000071222004+52820-104600SAO  +0490CWFF V0202801N004619999999N9999999N1+02401+01701999999ADDMW1001REMAWY070WFF SA 2200 AUTO8 M M M 117/24/17/2809/M/ PK WND 3017 2114Z 8001 19MM;
0088714560999992000071420004+52820-104600SAO  +0490CWFF V0201801N006619999999N9999999N1+02701+02201999999ADDMW1001REMAWY070WFF SA 2000 AUTO8 M M M 100/27/22/1813/M/ PK WND 2021 1910Z 8008 17MM;
0259714560999992000071512004+52820-104600SY-SA+0490CWFF V0201601N001519999999N9999999N1+01581+01511100421ADDAA124000091KA1999M+02971KA2120N+01551MA1999999094831MD1810111+9999MW1001REMSYN082AAXX  15124 71456 36/// /1603 10158 20151 39483 40042 58011 333 10297 20155 70000;AWY052WFF SA 1200 AUTO8 M M M 042/16/15/1504/M/ 8011 81MM;EQDQ01+000990PRSWM4Q02  00002PRCP24
0103714560999992000071603004+52820-104600SAO  +0490CWFF V0202601N007219999999N9999999N1+01401+01301999999ADDMW1001OC101081REMAWY077WFF SA 0300 AUTO8 M M M 062/14/13/2614+21/M/0016 PK WND 2622 0225Z 3001 25MM;
0070714560999992000072516004+52820-104600SAO  +0490CWFF V0202601N001519999999N9999999N1+02101+01901999999ADDMW1001REMAWY052WFF SA 1600 AUTO8 M M M 120/21/19/2603/M/ 1010 17MM;
0297714560999992000072706004+52820-104600SY-SA+0490CWFF V0202301N002119999999N9999999N1+02091+01811101041ADDAA124000091AA299999999KA1240M+02761KA2240N+01411MA1999999095431MD1310171+9999MW1001OA132401081REMSYN098AAXX  27064 71456 36/// /2304 10209 20181 39543 40104 53017 333 10276 20141 70000 555 31521 40211;AWY052WFF SA 0600 AUTO8 M M M 104/21/18/2303/M/ 3017 91MM;EQDQ01+000990PRSWM4Q02  99992PRCP99
0070714560999992000072721004+52820-104600SAO  +0490CWFF V0201901N006619999999N9999999N1+02601+02001999999ADDMW1001REMAWY052WFF SA 2100 AUTO8 M M M 112/26/20/1913/M/ 3003 14MM;
0259714560999992000082618004+52820-104600SY-SA+0490CWFF V0201701N006719999999N9999999N1+02881+01321100101ADDAA124000091KA1120M+02911KA2240N+01561MA1999999094541MD1810221+9999MW1001REMSYN082AAXX  26184 71456 36/// /1713 10288 20132 39454 40010 58022 333 10291 20156 70000;AWY052WFF SA 1800 AUTO8 M M M 010/29/13/1715/M/ 8022 82MM;EQDQ01+000990PRSWM4Q02  00002PRCP24
0070714560999992000090519004+52820-104600SAO  +0490CWFF V0201601N002519999999N9999999N1+01701+01401999999ADDMW1001REMAWY052WFF SA 1900 AUTO8 M M M 133/17/14/1605/M/ 8008 12MM;
0099714560999992000090623004+52820-104600SAO  +0490CWFF V0203101N006119999999N9999999N1+01601+01001999999ADDMW1001OC100971REMAWY073WFF SA 2300 AUTO8 M M M 081/16/10/3112+19/M/ PK WND 3020 2202Z 7006 49MM;
0070714560999992000090905004+52820-104600SAO  +0490CWFF V0201801N004119999999N9999999N1+01301+00701999999ADDMW1001REMAWY052WFF SA 0500 AUTO8 M M M 917/13/07/1808/M/ 5000 60MM;
0070714560999992000091011004+52820-104600SAO  +0490CWFF V0202601N005119999999N9999999N1+00701+00501999999ADDMW1001REMAWY052WFF SA 1100 AUTO8 M M M 945/07/05/2610/M/ 3011 75MM;
0070714560999992000091209004+52820-104600SAO  +0490CWFF V0202301N004119999999N9999999N1+00901+00301999999ADDMW1001REMAWY052WFF SA 0900 AUTO8 M M M 049/09/03/2308/M/ 8005 63MM;
0070714560999992000091613004+52820-104600SAO  +0490CWFF V0202701N003019999999N9999999N1+00701+00601999999ADDMW1001REMAWY052WFF SA 1300 AUTO8 M M M 173/07/06/2706/M/ 3016 37MM;
0070714560999992000092811004+52820-104600SAO  +0490CWFF V0201701N003019999999N9999999N1+00401+00401999999ADDMW1001REMAWY052WFF SA 1100 AUTO8 M M M 123/04/04/1706/M/ 8016 22MM;
0070714560999992000100108004+52820-104600SAO  +0490CWFF V0202601N004119999999N9999999N1+00301+00201999999ADDMW1001REMAWY052WFF SA 0800 AUTO8 M M M 995/03/02/2608/M/ 1012 45MM;
0072714560999992000100502004+52820-104600SAO  +0490CWFF V0203201N005119999999N9999999N1-00101-00701999999ADDMW1001REMAWY054WFF SA 0200 AUTO8 M M M 235/-01/-07/3210/M/ 3015 37MM;
0072714560999992000100702004+52820-104600SAO  +0490CWFF V0202501N002019999999N9999999N1-00401-01001999999ADDMW1001REMAWY054WFF SA 0200 AUTO8 M M M 368/-04/-10/2504/M/ 3003 47MM;
0100714560999992000100815004+52820-104600SAO  +0490CWFF V0201901N008719999999N9999999N1+00401-00901999999ADDMW1001OC101181REMAWY074WFF SA 1500 AUTO8 M M M 219/04/-09/1917+23/M/ PK WND 1923 1441Z 8019 55MM;
0070714560999992000101204004+52820-104600SAO  +0490CWFF V0200301N003619999999N9999999N1+00601+00201999999ADDMW1001REMAWY052WFF SA 0400 AUTO8 M M M 165/06/02/0307/M/ 3020 76MM;
0071714560999992000101714004+52820-104600SAO  +0490CWFF V0202301N004119999999N9999999N1+00001-00101999999ADDMW1001REMAWY053WFF SA 1400 AUTO8 M M M 148/00/-01/2308/M/ 3015 16MM;
0070714560999992000101716004+52820-104600SAO  +0490CWFF V0202701N002519999999N9999999N1+00801+00301999999ADDMW1001REMAWY052WFF SA 1600 AUTO8 M M M 150/08/03/2705/M/ 1014 89MM;
0070714560999992000101910004+52820-104600SAO  +0490CWFF V0202301N004119999999N9999999N1+00401+00101999999ADDMW1001REMAWY052WFF SA 1000 AUTO8 M M M 067/04/01/2308/M/ 1014 28MM;
0071714560999992000102307004+52820-104600SAO  +0490CWFF V0202201N006619999999N9999999N1+00601-00201999999ADDMW1001REMAWY053WFF SA 0700 AUTO8 M M M 176/06/-02/2213/M/ 6006 82MM;
0072714560999992000102615004+52820-104600SAO  +0490CWFF V0200401N003019999999N9999999N1-00201-00201999999ADDMW1001REMAWY054WFF SA 1500 AUTO8 M M M 224/-02/-02/0406/M/ 1022 55MM;
0070714560999992000102914004+52820-104600SAO  +0490CWFF V0201101N002019999999N9999999N1+00701+00701999999ADDMW1001REMAWY052WFF SA 1400 AUTO8 M M M 086/07/07/1104/M/ 5002 44MM;
0070714560999992000103013004+52820-104600SAO  +0490CWFF V0202101N000519999999N9999999N1+00601+00601999999ADDMW1001REMAWY052WFF SA 1300 AUTO8 M M M 119/06/06/2101/M/ 3006 00MM;
0072714560999992000110314004+52820-104600SAO  +0490CWFF V0202401N002519999999N9999999N1-00201-00301999999ADDMW1001REMAWY054WFF SA 1400 AUTO8 M M M 160/-02/-03/2405/M/ 4000 85MM;
0271714560999992000110318004+52820-104600SY-SA+0490CWFF V0202801N004619999999N9999999N1+00411-00101101561ADDAA124000591AA299999999KA1120M+00411KA2240N-00721MA1999999095671MD1810051+9999MW1001REMSYN082AAXX  03184 71456 36/// /2809 10041 21010 39567 40156 58005 333 10041 21072 70006;AWY053WFF SA 1800 AUTO8 M M M 156/04/-01/2710/M/ 8005 10MM;EQDQ01+000990PRSWM4Q02  99992PRCP99
0072714560999992000110623004+52820-104600SAO  +0490CWFF V0200101N004619999999N9999999N1-01001-01201999999ADDMW1001REMAWY054WFF SA 2300 AUTO8 M M M 287/-10/-12/0109/M/ 1016 17MM;
0072714560999992000110713004+52820-104600SAO  +0490CWFF V0203601N004619999999N9999999N1-01301-01301999999ADDMW1001REMAWY054WFF SA 1300 AUTO8 M M M 313/-13/-13/3609/M/ 3002 94MM;
0072714560999992000111210004+52820-104600SAO  +0490CWFF V0201801N003619999999N9999999N1-01601-01701999999ADDMW1001REMAWY054WFF SA 1000 AUTO8 M M M 232/-16/-17/1807/M/ 1003 77MM;
0072714560999992000111601004+52820-104600SAO  +0490CWFF V0203301N002519999999N9999999N1-01001-01201999999ADDMW1001REMAWY054WFF SA 0100 AUTO8 M M M 210/-10/-12/3305/M/ 3017 26MM;
0072714560999992000111801004+52820-104600SAO  +0490CWFF V0202901N002519999999N9999999N1-00601-00801999999ADDMW1001REMAWY054WFF SA 0100 AUTO8 M M M 177/-06/-08/2905/M/ 8009 84MM;
0090714560999992000112416004+52820-104600SAO  +0490CWFF V0202701N005119999999N9999999N1-00501-00601999999ADDMW1001REMAWY072WFF SA 1600 AUTO8 M M M 080/-05/-06/2710/M/ PK WND 2816 1511Z 3024 52MM;
0072714560999992000120301004+52820-104600SAO  +0490CWFF V0202001N005619999999N9999999N1-00501-00701999999ADDMW1001REMAWY054WFF SA 0100 AUTO8 M M M 066/-05/-07/2011/M/ 6024 35MM;
0277714560999992000120312004+52820-104600SY-SA+0490CWFF V0202601N004119999999N9999999N1-00221-00221100721ADDAA124000091KA1999M+99999KA2120N-00671MA1999999094841MD1110081+9999MW1001REMSYN082AAXX  03124 71456 36/// /2608 11022 21022 39484 40072 51008 333 11040 21067 70000;AWY054WFF SA 1200 AUTO8 M M M 072/-02/-02/2608/M/ 1008 22MM;EQDQ01+000990PRSWM4Q02  00002PRCP24Q03 -00402ATMX  
0090714560999992000122008004+52820-104600SAO  +0490CWFF V0200201N009219999999N9999999N1-02101-02301999999ADDMW1001REMAWY072WFF SA 0800 AUTO8 M M M 196/-21/-23/0218/M/ PK WND 0324 0705Z 1037 98MM;
0072714560999992000122102004+52820-104600SAO  +0490CWFF V0202701N004119999999N9999999N1-03001-03201999999ADDMW1001REMAWY054WFF SA 0200 AUTO8 M M M 339/-30/-32/2708/M/ 5001 04MM;
0272714560999992000122918004+52820-104600SY-SA+0490CWFF V0202701N001019999999N9999999N1-02161-02291103531ADDAA124000891AA299999999KA1120M-01691KA2240N-02261MA1999999097291MD1010041+9999MW1001REMSYN082AAXX  29184 71456 36/// /2702 11216 21229 39729 40353 50004 333 11169 21226 70007;AWY054WFF SA 1800 AUTO8 M M M 353/-22/-23/2602/M/ 0004 69MM;EQDQ01+000990PRSWM4Q02  99992PRCP99
0072714570999992000010409004+50550-111850SAO  +0747CWBO V0201601N003019999999N9999999N1-01201-01201999999ADDMW1001REMAWY054WBO SA 0900 AUTO8 M M M 154/-12/-12/1606/M/ 8036 52MM;
0087714570999992000010416004+50550-111850SAO  +0747CWBO V0201701N003019999999N9999999N1-00501-00601999999ADDMW1001REMAWY069WBO SA 1600 AUTO8 M M M 053/-05/-06/1706/M/0007 RF1SUNSH 0 6031 20MM;
0113714570999992000010518004+50550-111850SAO  +0747CWBO V0202501N003619999999N9999999N1-00201-00401999999ADDAA199000091MW1001REMAWY065WBO SA 1800 AUTO8 M M M 163/-02/-04/2507/M/ RF1SUNSH 4 1009 71MM;EQDQ01  00002PRCP99
0072714570999992000012509004+50550-111850SAO  +0747CWBO V0201601N005119999999N9999999N1-01401-01501999999ADDMW1001REMAWY054WBO SA 0900 AUTO8 M M M 229/-14/-15/1610/M/ 8017 74MM;
0100714570999992000020809004+50550-111850SAO  +0747CWBO V0202401N006619999999N9999999N1+00701-00101999999ADDMW1001OC100971REMAWY074WBO SA 0900 AUTO8 M M M 090/07/-01/2413+19/M/ PK WND 2321 0846Z 6016 64MM;
0124714570999992000020913004+50550-111850SAO  +0747CWBO V0200301N006619999999N9999999N1-00801-00801999999ADDMW1001OC101231REMAWY098WBO SA 1300 AUTO8 M M M 156/-08/-08/0313+24/M/0008 PK WND 0524 1204Z PCPN 0.8MM PAST HR 3013 57MM;
0083714570999992000021015004+50550-111850SAO  +0747CWBO V0200101N002019999999N9999999N1-01901-02001999999ADDMW1001REMAWY065WBO SA 1500 AUTO8 M M M 320/-19/-20/0104/M/ RF1SUNSH 0 3019 70MM;
0261714570999992000021212004+50550-111850SY-SA+0747CWBO V0203601N001519999999N9999999N1-02491-02711102251ADDAA124000091KA1999M-01091KA2120N-02671MA1999999092851MD1010011+9999MW1001REMSYN082AAXX  12124 71457 36/// /3603 11249 21271 39285 40225 50001 333 11109 21267 70000;AWY054WBO SA 1200 AUTO8 M M M 225/-25/-27/0103/M/ 0001 91MM;EQDQ01+000990PRSWM4Q02  00002PRCP24
0084714570999992000021519004+50550-111850SAO  +0747CWBO V0203601N001519999999N9999999N1-00901-01301999999ADDMW1001REMAWY066WBO SA 1900 AUTO8 M M M 224/-09/-13/3603/M/ RF1SUNSH 10 1019 96MM;
0072714570999992000022005004+50550-111850SAO  +0747CWBO V0201701N003619999999N9999999N1-00701-00701999999ADDMW1001REMAWY054WBO SA 0500 AUTO8 M M M 175/-07/-07/1707/M/ 8015 63MM;
0273714570999992000022118004+50550-111850SY-SA+0747CWBO V0201601N004619999999N9999999N1-00051-00391100461ADDAA124000091KA1120M-00051KA2240N-01091MA1999999091581MD1610111+9999MW1001REMSYN082AAXX  21184 71457 36/// /1609 11005 21039 39158 40046 56011 333 11005 21109 70000;AWY066WBO SA 1800 AUTO8 M M M 046/-01/-04/1708/M/ RF1SUNSH 10 6011 59MM;EQDQ01+000990PRSWM4Q02  00002PRCP24
0083714570999992000022214004+50550-111850SAO  +0747CWBO V0209999C000019999999N9999999N1-00701-00701999999ADDMW1001REMAWY065WBO SA 1400 AUTO8 M M M 094/-07/-07/0000/M/ RF1SUNSH 0 1013 99MM;
0083714570999992000022616004+50550-111850SAO  +0747CWBO V0203301N000519999999N9999999N1-01001-01001999999ADDMW1001REMAWY065WBO SA 1600 AUTO8 M M M 122/-10/-10/3301/M/ RF1SUNSH 9 6005 13MM;
0072714570999992000022713004+50550-111850SAO  +0747CWBO V0203501N001019999999N9999999N1-01601-01701999999ADDMW1001REMAWY054WBO SA 1300 AUTO8 M M M 155/-16/-17/3502/M/ 3001 18MM;
0082714570999992000030517004+50550-111850SAO  +0747CWBO V0200101N004119999999N9999999N1+00101-00401999999ADDMW1001REMAWY064WBO SA 1700 AUTO8 M M M 139/01/-04/0108/M/ RF1SUNSH 1 1017 09MM;
0261714570999992000031212004+50550-111850SY-SA+0747CWBO V0203301N001519999999N9999999N1-00601-00641102511ADDAA124000091KA1999M-00151KA2120N-00601MA1999999093401MD1310021+9999MW1001REMSYN082AAXX  12124 71457 36/// /3303 11060 21064 39340 40251 53002 333 11015 21060 70000;AWY054WBO SA 1200 AUTO8 M M M 251/-06/-06/3102/M/ 3002 04MM;EQDQ01+000990PRSWM4Q02  00002PRCP24
0083714570999992000031315004+50550-111850SAO  +0747CWBO V0200101N003019999999N9999999N1-00601-00601999999ADDMW1001REMAWY065WBO SA 1500 AUTO8 M M M 219/-06/-06/0106/M/ RF1SUNSH 7 3007 34MM;
0083714570999992000031713004+50550-111850SAO  +0747CWBO V0202501N002019999999N9999999N1-00401-00601999999ADDMW1001REMAWY065WBO SA 1300 AUTO8 M M M 102/-04/-06/2504/M/ RF1SUNSH 0 1014 40MM;
0278714570999992000031912004+50550-111850SY-SA+0747CWBO V0202401N006719999999N9999999N1+00341-00061099371ADDAA124000091KA1999M+00891KA2120N+00191MA1999999090691MD1710101+9999MW1001REMSYN082AAXX  19124 71457 36/// /2413 10034 21006 39069 49937 57010 333 10089 20019 70000;AWY071WBO SA 1200 AUTO8 M M M 937/03/-01/2414/M/ PK WND 2321 1115Z 7010 46MM;EQDQ01+000990PRSWM4Q02  00002PRCP24
0083714570999992000032101004+50550-111850SAO  +0747CWBO V0201801N002019999999N9999999N1+00601-00601999999ADDMW1001REMAWY065WBO SA 0100 AUTO8 M M M 188/06/-06/1804/M/ RF1SUNSH 10 8005 59MM;
0082714570999992000032113004+50550-111850SAO  +0747CWBO V0202001N005119999999N9999999N1+00001-00301999999ADDMW1001REMAWY064WBO SA 1300 AUTO8 M M M 114/00/-03/2010/M/ RF1SUNSH 0 8026 24MM;
0083714570999992000032619004+50550-111850SAO  +0747CWBO V0202401N003019999999N9999999N1+01101-00701999999ADDMW1001REMAWY065WBO SA 1900 AUTO8 M M M 178/11/-07/2406/M/ RF1SUNSH 10 8013 66MM;
0083714570999992000032620004+50550-111850SAO  +0747CWBO V0202601N003019999999N9999999N1+01101-00601999999ADDMW1001REMAWY065WBO SA 2000 AUTO8 M M M 172/11/-06/2606/M/ RF1SUNSH 10 8017 21MM;
0083714570999992000032623004+50550-111850SAO  +0747CWBO V0202401N003619999999N9999999N1+01301-00801999999ADDMW1001REMAWY065WBO SA 2300 AUTO8 M M M 144/13/-08/2407/M/ RF1SUNSH 10 7021 46MM;
0298714570999992000032806004+50550-111850SY-SA+0747CWBO V0202601N004119999999N9999999N1+00681-00241100001ADDAA124000091AA299999999KA1240M+01881KA2240N-00331MA1999999091321MD1610051+9999MW1001OA132400981REMSYN098AAXX  28064 71457 36/// /2608 10068 21024 39132 40000 56005 333 10188 21033 70000 555 32419 40050;AWY053WBO SA 0600 AUTO8 M M M 000/07/-02/2610/M/ 6005 84MM;EQDQ01+000990PRSWM4Q02  99992PRCP99
0110714570999992000040121004+50550-111850SAO  +0747CWBO V0203601N010819999999N9999999N1+01201+00301999999ADDMW1001OC101851REMAWY084WBO SA 2100 AUTO8 M M M 103/12/03/3621+36/M/ PK WND 3340 2045Z RF1SUNSH 0 3004 52MM;
0083714570999992000040813004+50550-111850SAO  +0747CWBO V0203601N002019999999N9999999N1-00201-00501999999ADDMW1001REMAWY065WBO SA 1300 AUTO8 M M M 204/-02/-05/3604/M/ RF1SUNSH 0 1009 10MM;
0083714570999992000041014004+50550-111850SAO  +0747CWBO V0201101N003019999999N9999999N1-00101-00101999999ADDMW1001REMAWY065WBO SA 1400 AUTO8 M M M 289/-01/-01/1106/M/ RF1SUNSH 0 1013 89MM;
0283714570999992000041600004+50550-111850SY-SA+0747CWBO V0200901N003619999999N9999999N1-00061-00241101771ADDAA124002591AA299999999KA1120M-00031KA2180N-01121MA1999999092741MD1610011+9999MW1001REMSYN082AAXX  16004 71457 36/// /0907 11006 21024 39274 40177 56001 333 11003 21112 70025;AWY065WBO SA 0000 AUTO8 M M M 177/-01/-02/0907/M/ RF1SUNSH 3 6001 64MM;EQDQ01+000990PRSWM4Q02  99992PRCP99
0070714570999992000041707004+50550-111850SAO  +0747CWBO V0201501N003019999999N9999999N1+00401+00401999999ADDMW1001REMAWY052WBO SA 0700 AUTO8 M M M 087/04/04/1506/M/ 7015 55MM;
0070714570999992000041909004+50550-111850SAO  +0747CWBO V0201401N003619999999N9999999N1+00201+00001999999ADDMW1001REMAWY052WBO SA 0900 AUTO8 M M M 107/02/00/1407/M/ 1004 94MM;
0083714570999992000041922004+50550-111850SAO  +0747CWBO V0203301N003619999999N9999999N1+02101-00301999999ADDMW1001REMAWY065WBO SA 2200 AUTO8 M M M 131/21/-03/3307/M/ RF1SUNSH 10 2002 53MM;
0289714570999992000042812004+50550-111850SY-SA+0747CWBO V0201301N005719999999N9999999N1+00711-00021100661ADDAA124000091KA1999M+02071KA2120N+00701MA1999999092001MD1810291+9999MW1001REMSYN082AAXX  28124 71457 36/// /1311 10071 21002 39200 40066 58029 333 10207 20070 70000;AWY082WBO SA 1200 AUTO8 M M M 066/07/00/1311/M/ PK WND 1020 1131Z RF1SUNSH 0 8029 1-2MM;EQDQ01+000990PRSWM4Q02  00002PRCP24
0081714570999992000043016004+50550-111850SAO  +0747CWBO V0201901N004619999999N9999999N1+00901+00001999999ADDMW1001REMAWY063WBO SA 1600 AUTO8 M M M 213/09/00/1909/M/ RF1SUNSH 0 8006 81MM;
0083714570999992000050201004+50550-111850SAO  +0747CWBO V0203201N006619999999N9999999N1+02201-00101999999ADDMW1001REMAWY065WBO SA 0100 AUTO8 M M M 099/22/-01/3213/M/ RF1SUNSH 10 1013 23MM;
0081714570999992000050204004+50550-111850SAO  +0747CWBO V0200301N003619999999N9999999N1+01201+00201999999ADDMW1001REMAWY063WBO SA 0400 AUTO8 M M M 105/12/02/0307/M/ RF1SUNSH 0 3006 15MM;
0082714570999992000050717004+50550-111850SAO  +0747CWBO V0203201N005619999999N9999999N1+01001+00101999999ADDMW1001REMAWY064WBO SA 1700 AUTO8 M M M 156/10/01/3211/M/ RF1SUNSH 10 0003 91MM;
0085714570999992000050722004+50550-111850SAO  +0747CWBO V0200201N000519999999N9999999N1+01201+00001999999ADDMW1001REMAWY067WBO SA 2200 AUTO8 M M M 155/12/00/0201/M/0014 RF1SUNSH 3 0001 61MM;
0293714570999992000050800004+50550-111850SY-SA+0747CWBO V0203601N003119999999N9999999N1+01271-00051101561ADDAA106001091AA299999999KA1120M+01331KA2180N-00161MA1999999092711MD1510001+9999MW1001REMSYN088AAXX  08004 71457 16/// /3606 10127 21005 39271 40156 55000 60011 333 10133 21016 70014;AWY069WBO SA 0000 AUTO8 M M M 156/13/-01/0106/M/0014 RF1SUNSH 10 5000 75MM;EQDQ01+000990PRSWM4Q02  99992PRCP99
0082714570999992000051221004+50550-111850SAO  +0747CWBO V0202701N003619999999N9999999N1+01201-00301999999ADDMW1001REMAWY064WBO SA 2100 AUTO8 M M M 204/12/-03/2707/M/ RF1SUNSH 8 8006 17MM;
0270714570999992000051818004+50550-111850SY-SA+0747CWBO V0202701N000519999999N9999999N1+01311+00861101861ADDAA124000091KA1120M+01471KA2240N+00881MA1999999093101MD1810031+9999MW1001REMSYN082AAXX  18184 71457 36/// /2701 10131 20086 39310 40186 58003 333 10147 20088 70000;AWY063WBO SA 1800 AUTO8 M M M 186/13/09/0000/M/ RF1SUNSH 2 8003 16MM;EQDQ01+000990PRSWM4Q02  00002PRCP24
0281714570999992000051918004+50550-111850SY-SA+0747CWBO V0200701N001019999999N9999999N1+01681+00721101581ADDAA124001591AA299999999KA1120M+01681KA2240N+00541MA1999999092851MD1810091+9999MW1001REMSYN082AAXX  19184 71457 36/// /0702 10168 20072 39285 40158 58009 333 10168 20054 70014;AWY063WBO SA 1800 AUTO8 M M M 158/17/07/0803/M/ RF1SUNSH 6 8009 82MM;EQDQ01+000990PRSWM4Q02  99992PRCP99
0082714570999992000051921004+50550-111850SAO  +0747CWBO V0201701N002019999999N9999999N1+02001+00101999999ADDMW1001REMAWY064WBO SA 2100 AUTO8 M M M 139/20/01/1704/M/ RF1SUNSH 10 8017 85MM;
0100714570999992000052301004+50550-111850SAO  +0747CWBO V0203301N004619999999N9999999N1+02101-00501999999ADDMW1001REMAWY082WBO SA 0100 AUTO8 M M M 032/21/-05/3309/M/ PK WND 3020 0012Z RF1SUNSH 3 6007 48MM;
0082714570999992000060114004+50550-111850SAO  +0747CWBO V0200101N001519999999N9999999N1+00901+00501999999ADDMW1001REMAWY064WBO SA 1400 AUTO8 M M M 267/09/05/0103/M/ RF1SUNSH 10 2006 99MM;
0083714570999992000060123004+50550-111850SAO  +0747CWBO V0201301N003019999999N9999999N1+01701-00201999999ADDMW1001REMAWY065WBO SA 2300 AUTO8 M M M 246/17/-02/1306/M/ RF1SUNSH 10 8013 16MM;
0070714570999992000060207004+50550-111850SAO  +0747CWBO V0201501N003619999999N9999999N1+00601+00101999999ADDMW1001REMAWY052WBO SA 0700 AUTO8 M M M 246/06/01/1507/M/ 1003 80MM;
0104714570999992000060305004+50550-111850SAO  +0747CWBO V0202101N002019999999N9999999N1+01101+01101999999ADDMW1001REMAWY086WBO SA 0500 AUTO8 M M M 212/11/11/2104/M/0024 PCPN 1.8MM PAST HR RF1SUNSH 0 1020 55MM;
0081714570999992000060602004+50550-111850SAO  +0747CWBO V0201201N003619999999N9999999N1+02501+00301999999ADDMW1001REMAWY063WBO SA 0200 AUTO8 M M M 078/25/03/1207/M/ RF1SUNSH 6 8011 79MM;
0088714570999992000060609004+50550-111850SAO  +0747CWBO V0201701N006619999999N9999999N1+01601+01001999999ADDMW1001REMAWY070WBO SA 0900 AUTO8 M M M 074/16/10/1713/M/ PK WND 1619 0803Z 1010 72MM;
0081714570999992000060611004+50550-111850SAO  +0747CWBO V0202301N003019999999N9999999N1+01401+00801999999ADDMW1001REMAWY063WBO SA 1100 AUTO8 M M M 088/14/08/2306/M/ RF1SUNSH 0 3013 71MM;
0070714570999992000060910004+50550-111850SAO  +0747CWBO V0201401N003619999999N9999999N1+01401+01401999999ADDMW1001REMAWY052WBO SA 1000 AUTO8 M M M 987/14/14/1407/M/ 6007 11MM;
0081714570999992000061414004+50550-111850SAO  +0747CWBO V0202101N002519999999N9999999N1+01401+01001999999ADDMW1001REMAWY063WBO SA 1400 AUTO8 M M M 131/14/10/2105/M/ RF1SUNSH 5 8005 63MM;
0081714570999992000061415004+50550-111850SAO  +0747CWBO V0202001N003019999999N9999999N1+01601+01101999999ADDMW1001REMAWY063WBO SA 1500 AUTO8 M M M 123/16/11/2006/M/ RF1SUNSH 8 8012 56MM;
0271714570999992000061418004+50550-111850SY-SA+0747CWBO V0200201N003119999999N9999999N1+02001+00821101021ADDAA124000091KA1120M+02061KA2240N+00851MA1999999092401MD1810181+9999MW1001REMSYN082AAXX  14184 71457 36/// /0206 10200 20082 39240 40102 58018 333 10206 20085 70000;AWY064WBO SA 1800 AUTO8 M M M 102/20/08/0206/M/ RF1SUNSH 10 8018 02MM;EQDQ01+000990PRSWM4Q02  00002PRCP24
0085714570999992000062311004+50550-111850SAO  +0747CWBO V0203001N003019999999N9999999N1+00801+00801999999ADDMW1001REMAWY067WBO SA 1100 AUTO8 M M M 151/08/08/3006/M/0002 RF1SUNSH 0 1016 22MM;
0281714570999992000062400004+50550-111850SY-SA+0747CWBO V0201401N001519999999N9999999N1+02101+00481101361ADDAA124005891AA299999999KA1120M+02171KA2180N+00731MA1999999092661MD1610101+9999MW1001REMSYN082AAXX  24004 71457 36/// /1403 10210 20048 39266 40136 56010 333 10217 20073 70058;AWY063WBO SA 0000 AUTO8 M M M 136/21/05/1504/M/ RF1SUNSH 9 6010 08MM;EQDQ01+000990PRSWM4Q02  99992PRCP99
0104714570999992000062421004+50550-111850SAO  +0747CWBO V0203501N006619999999N9999999N1+01101+01101999999ADDMW1001REMAWY086WBO SA 2100 AUTO8 M M M 184/11/11/3513/M/0026 PCPN 0.8MM PAST HR RF1SUNSH 0 1027 48MM;
0081714570999992000070214004+50550-111850SAO  +0747CWBO V0202201N004119999999N9999999N1+01601+01201999999ADDMW1001REMAWY063WBO SA 1400 AUTO8 M M M 078/16/12/2208/M/ RF1SUNSH 9 1011 48MM;
0082714570999992000071302004+50550-111850SAO  +0747CWBO V0200601N001519999999N9999999N1+03001+01001999999ADDMW1001REMAWY064WBO SA 0200 AUTO8 M M M 110/30/10/0603/M/ RF1SUNSH 10 6009 25MM;
0088714570999992000071409004+50550-111850SAO  +0747CWBO V0202301N006119999999N9999999N1+02301+00301999999ADDMW1001REMAWY070WBO SA 0900 AUTO8 M M M 101/23/03/2312/M/ PK WND 2520 0815Z 2012 14MM;
0326714570999992000071706004+50550-111850SY-SA+0747CWBO V0200901N006719999999N9999999N1+01691+00791101681ADDAA124000091AA299999999KA1240M+02621KA2240N+00951MA1999999093021MD1010011+9999MW1001OA132401081OC100971REMSYN098AAXX  17064 71457 36/// /0913 10169 20079 39302 40168 50001 333 10262 20095 70000 555 30921 40051;AWY073WBO SA 0600 AUTO8 M M M 168/17/08/0913+19/M/ PK WND 0819 0509Z 0001 99MM;EQDQ01+000990PRSWM4Q02  99992PRCP99
0081714570999992000071715004+50550-111850SAO  +0747CWBO V0201201N003019999999N9999999N1+01901+01101999999ADDMW1001REMAWY063WBO SA 1500 AUTO8 M M M 158/19/11/1206/M/ RF1SUNSH 8 0000 65MM;
0081714570999992000071716004+50550-111850SAO  +0747CWBO V0201701N003019999999N9999999N1+02001+01101999999ADDMW1001REMAWY063WBO SA 1600 AUTO8 M M M 158/20/11/1706/M/ RF1SUNSH 9 8002 96MM;
0081714570999992000072302004+50550-111850SAO  +0747CWBO V0200501N003019999999N9999999N1+02801+01201999999ADDMW1001REMAWY063WBO SA 0200 AUTO8 M M M 102/28/12/0506/M/ RF1SUNSH 1 7021 40MM;
0082714570999992000072614004+50550-111850SAO  +0747CWBO V0202901N001519999999N9999999N1+01701+01301999999ADDMW1001REMAWY064WBO SA 1400 AUTO8 M M M 106/17/13/2903/M/ RF1SUNSH 10 2013 05MM;
0082714570999992000072917004+50550-111850SAO  +0747CWBO V0200201N002019999999N9999999N1+02301+01401999999ADDMW1001REMAWY064WBO SA 1700 AUTO8 M M M 172/23/14/0204/M/ RF1SUNSH 10 0007 83MM;
0070714570999992000080509004+50550-111850SAO  +0747CWBO V0203401N000519999999N9999999N1+01201+01201999999ADDMW1001REMAWY052WBO SA 0900 AUTO8 M M M 132/12/12/3401/M/ 6008 33MM;
0314714570999992000081112004+50550-111850SY-SA+0747CWBO V0203501N007219999999N9999999N1+01341+01341101271ADDAA106005191AA299999999KA1999M+02711KA2120N+01311MA1999999092661MW1001REMSYN088AAXX  11124 71457 16/// /3514 10134 20134 39266 40127 5//// 60051 333 10271 20131 70048;AWY104WBO SA 1200 AUTO8 M M M 127/13/13/3516/M/0048 PK WND 2932 1135Z PCPN 4.8MM PAST HR RF1SUNSH 0 1013 44MM;EQDQ01+000990PRSWM4Q02  99992PRCP99
0082714570999992000081321004+50550-111850SAO  +0747CWBO V0203501N003619999999N9999999N1+02501+01301999999ADDMW1001REMAWY064WBO SA 2100 AUTO8 M M M 085/25/13/3507/M/ RF1SUNSH 10 6014 76MM;
0082714570999992000081415004+50550-111850SAO  +0747CWBO V0202901N002019999999N9999999N1+01201+01001999999ADDMW1001REMAWY064WBO SA 1500 AUTO8 M M M 196/12/10/2904/M/ RF1SUNSH 10 1011 05MM;
0081714570999992000081521004+50550-111850SAO  +0747CWBO V0202801N002019999999N9999999N1+02701+00901999999ADDMW1001REMAWY063WBO SA 2100 AUTO8 M M M 156/27/09/2804/M/ RF1SUNSH 9 6024 37MM;
0110714570999992000081601004+50550-111850SAO  +0747CWBO V0203601N005119999999N9999999N1+02101+01201999999ADDMW1001OC100821REMAWY084WBO SA 0100 AUTO8 M M M 155/21/12/3610+16/M/ PK WND 0219 0041Z RF1SUNSH 0 5002 66MM;
0270714570999992000081812004+50550-111850SY-SA+0747CWBO V0201701N001519999999N9999999N1+00911+00641101181ADDAA124000091KA1999M+02761KA2120N+00861MA1999999092551MD1810061+9999MW1001REMSYN082AAXX  18124 71457 36/// /1703 10091 20064 39255 40118 58006 333 10276 20086 70000;AWY063WBO SA 1200 AUTO8 M M M 118/09/06/1803/M/ RF1SUNSH 0 8006 14MM;EQDQ01+000990PRSWM4Q02  00002PRCP24
0070714570999992000082104004+50550-111850SAO  +0747CWBO V0201801N001019999999N9999999N1+01201+00401999999ADDMW1001REMAWY052WBO SA 0400 AUTO8 M M M 166/12/04/1802/M/ 2004 08MM;
0259714570999992000082612004+50550-111850SY-SA+0747CWBO V0202201N002119999999N9999999N1+01531+00401100461ADDAA124000091KA1999M+03191KA2120N+01451MA1999999091971MD1610081+9999MW1001REMSYN082AAXX  26124 71457 36/// /2204 10153 20040 39197 40046 56008 333 10319 20145 70000;AWY052WBO SA 1200 AUTO8 M M M 046/15/04/2304/M/ 6008 30MM;EQDQ01+000990PRSWM4Q02  00002PRCP24
0081714570999992000090323004+50550-111850SAO  +0747CWBO V0203301N003619999999N9999999N1+01501+00801999999ADDMW1001REMAWY063WBO SA 2300 AUTO8 M M M 169/15/08/3307/M/ RF1SUNSH 7 1005 77MM;
0289714570999992000091000004+50550-111850SY-SA+0747CWBO V0202801N007219999999N9999999N1+01701-00221099971ADDAA124000091KA1120M+01831KA2180N+00421MA1999999091331MD1610071+9999MW1001REMSYN082AAXX  10004 71457 36/// /2814 10170 21022 39133 49997 56007 333 10183 20042 70000;AWY082WBO SA 0000 AUTO8 M M M 997/17/-02/2913/M/ PK WND 2720 2330Z RF1SUNSH 8 6007 02MM;EQDQ01+000990PRSWM4Q02  00002PRCP24
0081714570999992000091601004+50550-111850SAO  +0747CWBO V0203401N003019999999N9999999N1+02301+01201999999ADDMW1001REMAWY063WBO SA 0100 AUTO8 M M M 148/23/12/3406/M/ RF1SUNSH 0 3012 49MM;
0083714570999992000092321004+50550-111850SAO  +0747CWBO V0202101N004119999999N9999999N1+01301-00401999999ADDMW1001REMAWY065WBO SA 2100 AUTO8 M M M 202/13/-04/2108/M/ RF1SUNSH 10 7011 08MM;
0082714570999992000092420004+50550-111850SAO  +0747CWBO V0202001N003019999999N9999999N1+02001+00201999999ADDMW1001REMAWY064WBO SA 2000 AUTO8 M M M 216/20/02/2006/M/ RF1SUNSH 10 8008 73MM;
0071714570999992000100409004+50550-111850SAO  +0747CWBO V0200901N004119999999N9999999N1+00001-00101999999ADDMW1001REMAWY053WBO SA 0900 AUTO8 M M M 189/00/-01/0908/M/ 6010 39MM;
0082714570999992000101017004+50550-111850SAO  +0747CWBO V0203401N004119999999N9999999N1+00901+00101999999ADDMW1001REMAWY064WBO SA 1700 AUTO8 M M M 077/09/01/3408/M/ RF1SUNSH 10 1004 24MM;
0082714570999992000102202004+50550-111850SAO  +0747CWBO V0202601N002519999999N9999999N1+00201-00101999999ADDMW1001REMAWY064WBO SA 0200 AUTO8 M M M 169/02/-01/2605/M/ RF1SUNSH 0 2036 48MM;
0070714570999992000102607004+50550-111850SAO  +0747CWBO V0203401N001019999999N9999999N1+00401+00301999999ADDMW1001REMAWY052WBO SA 0700 AUTO8 M M M 189/04/03/3402/M/ 1001 16MM;
0070714570999992000110402004+50550-111850SAO  +0747CWBO V0202001N004619999999N9999999N1+00801+00101999999ADDMW1001REMAWY052WBO SA 0200 AUTO8 M M M 099/08/01/2009/M/ 6030 90MM;
0105714570999992000110509004+50550-111850SAO  +0747CWBO V0203401N013319999999N9999999N1-00401-00401999999ADDMW1001OC101851REMAWY079WBO SA 0900 AUTO8 M M M 112/-04/-04/3426+36/M/0007 PK WND 3337 0804Z 1046 44MM;
0072714570999992000111113004+50550-111850SAO  +0747CWBO V0201601N004619999999N9999999N1-02001-02101999999ADDMW1001REMAWY054WBO SA 1300 AUTO8 M M M 238/-20/-21/1609/M/ 7019 81MM;
0072714570999992000111208004+50550-111850SAO  +0747CWBO V0201701N001019999999N9999999N1-01101-01201999999ADDMW1001REMAWY054WBO SA 0800 AUTO8 M M M 214/-11/-12/1702/M/ 5000 39MM;
0072714570999992000111303004+50550-111850SAO  +0747CWBO V0201901N000519999999N9999999N1-01301-01301999999ADDMW1001REMAWY054WBO SA 0300 AUTO8 M M M 235/-13/-13/1901/M/ 1005 84MM;
0072714570999992000111603004+50550-111850SAO  +0747CWBO V0201601N002019999999N9999999N1-01101-01201999999ADDMW1001REMAWY054WBO SA 0300 AUTO8 M M M 247/-11/-12/1604/M/ 1010 30MM;
0083714570999992000111716004+50550-111850SAO  +0747CWBO V0202701N004119999999N9999999N1-00801-01001999999ADDMW1001REMAWY065WBO SA 1600 AUTO8 M M M 283/-08/-10/2708/M/ RF1SUNSH 5 1006 93MM;
0311714570999992000120206004+50550-111850SY-SA+0747CWBO V0201601N008219999999N9999999N1-00391-00521101681ADDAA124000091AA299999999KA1240M+00001KA2240N-00951MA1999999092621MD1710241+9999MW1001OA132401181REMSYN110AAXX  02064 71457 36/// /1616 11039 21052 39262 40168 57024 333 10000 21095 70000 931// 555 20000 31823 40031;AWY054WBO SA 0600 AUTO8 M M M 168/-04/-05/1616/M/ 7024 92MM;EQDQ01+000990PRSWM4Q02  99992PRCP99
0072714570999992000120405004+50550-111850SAO  +0747CWBO V0200201N006119999999N9999999N1-00201-00301999999ADDMW1001REMAWY054WBO SA 0500 AUTO8 M M M 318/-02/-03/0212/M/ 3036 91MM;
0287714570999992000120700004+50550-111850SY-SA+0747CWBO V0202601N004619999999N9999999N1+00551+00171100761ADDAA124000091AA299999999KA1120M+00981KA2180N-00081MA1999999091951MD1610151+9999MW1001REMSYN088AAXX  07004 71457 36/// /2609 10055 20017 39195 40076 56015 333 10098 21008 70000 931//;AWY063WBO SA 0000 AUTO8 M M M 076/06/02/2710/M/ RF1SUNSH 0 6015 57MM;EQDQ01+000990PRSWM4Q02  99992PRCP99
0078714570999992000121513004+50550-111850SAO  +0747CWBO V0203501N008219999999N9999999N1-02101-02301999999ADDMW1001REMAWY060WBO SA 1300 AUTO8 M M M 090/-21/-23/3516/M/ SOG 6 3024 08MM;
0090714570999992000121601004+50550-111850SAO  +0747CWBO V0203201N005119999999N9999999N1-02401-02701999999ADDMW1001REMAWY072WBO SA 0100 AUTO8 M M M 355/-24/-27/3210/M/ PK WND 3320 0016Z 1056 67MM;
0081714570999992000122620004+50550-111850SAO  +0747CWBO V0202101N001519999999N9999999N1+00301+00001999999ADDMW1001REMAWY063WBO SA 2000 AUTO8 M M M 215/03/00/2103/M/ RF1SUNSH 6 0004 01MM;
0261714590999992000010306004+50900-109500SY-SA+0672CWJX V0203001N002619999999N9999999N1-02381-02591102961ADDAA106000091KA1240M-01421KA2240N-02431MA1999999094371MD1110191+9999MW1001REMSYN082AAXX  03064 71459 36/// /3005 11238 21259 39437 40296 51019 333 11142 21243 70019;AWY054WJX SA 0600 AUTO8 M M M 296/-24/-26/3005/M/ 1019 89MM;EQDQ01+000990PRSWM4Q02  00002PRCP06
0072714590999992000010919004+50900-109500SAO  +0672CWJX V0202001N003019999999N9999999N1-00201-00701999999ADDMW1001REMAWY054WJX SA 1900 AUTO8 M M M 981/-02/-07/2006/M/ 6030 10MM;
0072714590999992000010921004+50900-109500SAO  +0672CWJX V0201101N003019999999N9999999N1-00201-00801999999ADDMW1001REMAWY054WJX SA 2100 AUTO8 M M M 945/-02/-08/1106/M/ 8045 46MM;
0072714590999992000011122004+50900-109500SAO  +0672CWJX V0200901N010219999999N9999999N1-01701-02001999999ADDMW1001REMAWY054WJX SA 2200 AUTO8 M M M 130/-17/-20/0920/M/ 6012 47MM;
0265714590999992000011912004+50900-109500SY-SA+067299999V0202401N004119999999N9999999N1-01911-02071102961ADDAA124000091KA1999M-01571KA2120N-02411MA1999999094421MD1110091+9999MW1001REMSYN086    AAXX  19124 71459 36/// /2408 11191 21207 39442 40296 51009 333 11157 21241 70000;AWY054WJX SA 1200 AUTO8 M M M 296/-19/-21/2506/M/ 1009 17MM;EQDQ01+000990PRSWM4Q02  00002PRCP24
0072714590999992000012013004+50900-109500SAO  +0672CWJX V0202101N004119999999N9999999N1-02201-02501999999ADDMW1001REMAWY054WJX SA 1300 AUTO8 M M M 251/-22/-25/2108/M/ 8010 47MM;
0179714590999992000012312004+50900-109500FM-12+0672CWJX V0201801N004119999999N9999999N1-01951-02151101911ADDAA124000091KA1999M-00921KA2120N-02401MA1999999093491MD1810181+9999REMSYN082AAXX  23124 71459 36/// /1808 11195 21215 39349 40191 58018 333 11092 21240 70000;EQDQ01  00002PRCP24
0072714590999992000012314004+50900-109500SAO  +0672CWJX V0201701N003019999999N9999999N1-02001-02301999999ADDMW1001REMAWY054WJX SA 1400 AUTO8 M M M 182/-20/-23/1706/M/ 6019 45MM;
0090714590999992000012321004+50900-109500SAO  +0672CWJX V0202701N006119999999N9999999N1-00701-01201999999ADDMW1001REMAWY072WJX SA 2100 AUTO8 M M M 185/-07/-12/2712/M/ PK WND 2718 2001Z 0004 37MM;
0072714590999992000021004004+50900-109500SAO  +0672CWJX V0200501N004119999999N9999999N1-01701-01901999999ADDMW1001REMAWY054WJX SA 0400 AUTO8 M M M 273/-17/-19/0508/M/ 3007 55MM;
0272714590999992000022012004+50900-109500SY-SA+0672CWJX V0201901N004119999999N9999999N1-01121-01411101481ADDAA124000891AA299999999KA1999M-00201KA2120N-01161MA1999999093231MD1710141+9999MW1001REMSYN082AAXX  20124 71459 36/// /1908 11112 21141 39323 40148 57014 333 11020 21116 70007;AWY054WJX SA 1200 AUTO8 M M M 148/-11/-14/1909/M/ 7014 21MM;EQDQ01+000990PRSWM4Q02  99992PRCP99
0070714590999992000022514004+50900-109500SAO  +0672CWJX V0203201N006619999999N9999999N1+00001+00001999999ADDMW1001REMAWY052WJX SA 1400 AUTO8 M M M 104/00/00/3213/M/ 1016 41MM;
0072714590999992000031002004+50900-109500SAO  +0672CWJX V0203601N003619999999N9999999N1-00301-00501999999ADDMW1001REMAWY054WJX SA 0200 AUTO8 M M M 208/-03/-05/3607/M/ 3007 50MM;
0072714590999992000031411004+50900-109500SAO  +0672CWJX V0200601N005619999999N9999999N1-01001-01301999999ADDMW1001REMAWY054WJX SA 1100 AUTO8 M M M 199/-10/-13/0611/M/ 8009 45MM;
0070714590999992000031917004+50900-109500SAO  +0672CWJX V0202901N009219999999N9999999N1+00301+00101999999ADDMW1001REMAWY052WJX SA 1700 AUTO8 M M M 953/03/01/2918/M/ 3014 15MM;
0072714590999992000032109004+50900-109500SAO  +0672CWJX V0201801N006619999999N9999999N1-00201-00401999999ADDMW1001REMAWY054WJX SA 0900 AUTO8 M M M 170/-02/-04/1813/M/ 6024 58MM;
0089714590999992000032222004+50900-109500SAO  +0672CWJX V0201701N008719999999N9999999N1+01401-00301999999ADDMW1001REMAWY071WJX SA 2200 AUTO8 M M M 122/14/-03/1717/M/ PK WND 1623 2139Z 8044 32MM;
0088714590999992000032322004+50900-109500SAO  +0672CWJX V0203101N005119999999N9999999N1+00601+00101999999ADDMW1001REMAWY070WJX SA 2200 AUTO8 M M M 064/06/01/3110/M/ PK WND 3216 2137Z 3012 97MM;
0071714590999992000032602004+50900-109500SAO  +0672CWJX V0203101N003619999999N9999999N1+00501-00101999999ADDMW1001REMAWY053WJX SA 0200 AUTO8 M M M 110/05/-01/3107/M/ 1015 73MM;
0070714590999992000032910004+50900-109500SAO  +0672CWJX V0203101N002519999999N9999999N1+00201+00101999999ADDMW1001REMAWY052WJX SA 1000 AUTO8 M M M 076/02/01/3105/M/ 2012 62MM;
0071714590999992000033104004+50900-109500SAO  +0672CWJX V0203601N001019999999N9999999N1+00001-00701999999ADDMW1001REMAWY053WJX SA 0400 AUTO8 M M M 254/00/-07/3602/M/ 1007 05MM;
0101714590999992000040514004+50900-109500SAO  +0672CWJX V0203301N010819999999N9999999N1-00201-00401999999ADDMW1001OC101381REMAWY075WJX SA 1400 AUTO8 M M M 120/-02/-04/3321+27/M/ PK WND 3230 1311Z 1054 05MM;
0299714590999992000040518004+50900-109500SY-SA+0672CWJX V0203301N007219999999N9999999N1+00071-00481101511ADDAA106000191AA299999999KA1120M+00261KA2240N-00231MA1999999093411MD1310141+9999MW1001REMSYN088AAXX  05184 71459 16/// /3314 10007 21048 39341 40151 53014 69921 333 10026 21023 70140;AWY075WJX SA 1800 AUTO8 M M M 151/01/-05/3213/M/0002 PK WND 3422 1700Z 3014 78MM;EQDQ01+000990PRSWM4Q02  99992PRCP99
0072714590999992000040705004+50900-109500SAO  +0672CWJX V0200101N005119999999N9999999N1-00101-00301999999ADDMW1001REMAWY054WJX SA 0500 AUTO8 M M M 176/-01/-03/0110/M/ 1046 06MM;
0070714590999992000041301004+50900-109500SAO  +0672CWJX V0200201N007219999999N9999999N1+00701+00201999999ADDMW1001REMAWY052WJX SA 0100 AUTO8 M M M 146/07/02/0214/M/ 5005 06MM;
0076714590999992000041311004+50900-109500SAO  +0672CWJX V0200201N010219999999N9999999N1-00701-00801999999ADDMW1001REMAWY058WJX SA 1100 AUTO8 M M M 236/-07/-08/0220/M/0008 1032 59MM;
0301714590999992000041318004+50900-109500SY-SA+0672CWJX V0200201N006719999999N9999999N1-00961-01351102981ADDAA124000891AA299999999KA1120M-00021KA2240N-01001MA1999999094661MD1210151+9999MW1001OC101021REMSYN082AAXX  13184 71459 36/// /0213 11096 21135 39466 40298 52015 333 11002 21100 70008;AWY075WJX SA 1800 AUTO8 M M M 298/-10/-14/0213+20/M/ PK WND 0320 1703Z 2015 65MM;EQDQ01+000990PRSWM4Q02  99992PRCP99
0087714590999992000042219004+50900-109500SAO  +0672CWJX V0202001N008719999999N9999999N1+02301+00201999999ADDMW1001REMAWY069WJX SA 1900 AUTO8 M M M020/23/02/2017/M/ PK WND 1726 1809Z 6011 50MM;
0071714590999992000043014004+50900-109500SAO  +0672CWJX V0202001N001519999999N9999999N1+00501-00301999999ADDMW1001REMAWY053WJX SA 1400 AUTO8 M M M 222/05/-03/2003/M/ 2001 40MM;
0315714590999992000051906004+50900-109500SY-SA+0672CWJX V0203301N005119999999N9999999N1+01141+00821101581ADDAA124001691AA299999999KA1240M+01901KA2240N+00851MA1999999093651MD1210111+9999MW1001OA132401341REMSYN098AAXX  19064 71459 36/// /3310 10114 20082 39365 40158 52011 333 10190 20085 70016 555 33326 40061;AWY070WJX SA 0600 AUTO8 M M M 158/11/08/3311/M/ PK WND 3326 0530Z 2011 42MM;EQDQ01+000990PRSWM4Q02  99992PRCP99
0088714590999992000052808004+50900-109500SAO  +0672CWJX V0202101N008219999999N9999999N1+01501+00301999999ADDMW1001REMAWY070WJX SA 0800 AUTO8 M M M 006/15/03/2116/M/ PK WND 2022 0749Z 5005 98MM;
0070714590999992000053008004+50900-109500SAO  +0672CWJX V0202701N002519999999N9999999N1+00101+00001999999ADDMW1001REMAWY052WJX SA 0800 AUTO8 M M M 191/01/00/2705/M/ 1011 40MM;
0070714590999992000053121004+50900-109500SAO  +0672CWJX V0200501N005119999999N9999999N1+00701+00101999999ADDMW1001REMAWY052WJX SA 2100 AUTO8 M M M 246/07/01/0510/M/ 6003 43MM;
0093714590999992000060108004+50900-109500SAO  +0672CWJX V0202801N004619999999N9999999N1+00601+00501999999ADDMW1001REMAWY075WJX SA 0800 AUTO8 M M M 245/06/05/2809/M/0002 PCPN 0.2MM PAST HR 6010 94MM;
0099714590999992000060602004+50900-109500SAO  +0672CWJX V0200801N007219999999N9999999N1+02401+00401999999ADDMW1001OC101021REMAWY073WJX SA 0200 AUTO8 M M M 098/24/04/0814+20/M/ PK WND 0925 0137Z 8021 63MM;
0070714590999992000061314004+50900-109500SAO  +0672CWJX V0203501N005119999999N9999999N1+01001+01001999999ADDMW1001REMAWY052WJX SA 1400 AUTO8 M M M 130/10/10/3510/M/ 1033 43MM;
0088714590999992000061914004+50900-109500SAO  +0672CWJX V0203201N006119999999N9999999N1+01201+01001999999ADDMW1001REMAWY070WJX SA 1400 AUTO8 M M M 039/12/10/3212/M/ PK WND 3218 1329Z 1018 23MM;
0070714590999992000070616004+50900-109500SAO  +0672CWJX V0200901N002519999999N9999999N1+01701+01501999999ADDMW1001REMAWY052WJX SA 1600 AUTO8 M M M 101/17/15/0905/M/ 8007 29MM;
0070714590999992000070809004+50900-109500SAO  +0672CWJX V0200301N001519999999N9999999N1+01201+01001999999ADDMW1001REMAWY052WJX SA 0900 AUTO8 M M M 110/12/10/0303/M/ 1006 52MM;
0297714590999992000071706004+50900-109500SY-SA+0672CWJX V0200901N005719999999N9999999N1+01321+00901102011ADDAA124000091AA299999999KA1240M+02351KA2240N+00851MA1999999094101MD1010031+9999MW1001OA132401031REMSYN098AAXX  17064 71459 36/// /0911 10132 20090 39410 40201 50003 333 10235 20085 70000 555 32920 40160;AWY052WJX SA 0600 AUTO8 M M M 201/13/09/0912/M/ 0003 20MM;EQDQ01+000990PRSWM4Q02  99992PRCP99
0070714590999992000071821004+50900-109500SAO  +0672CWJX V0200501N003019999999N9999999N1+01901+01301999999ADDMW1001REMAWY052WJX SA 2100 AUTO8 M M M 192/19/13/0506/M/ 8011 05MM;
0070714590999992000072407004+50900-109500SAO  +0672CWJX V0202701N004119999999N9999999N1+01601+01001999999ADDMW1001REMAWY052WJX SA 0700 AUTO8 M M M 097/16/10/2708/M/ 1019 02MM;
0070714590999992000072602004+50900-109500SAO  +0672CWJX V0201301N001019999999N9999999N1+02701+01201999999ADDMW1001REMAWY052WJX SA 0200 AUTO8 M M M 098/27/12/1302/M/ 6013 77MM;
0070714590999992000073114004+50900-109500SAO  +0672CWJX V0202301N000519999999N9999999N1+01801+01201999999ADDMW1001REMAWY052WJX SA 1400 AUTO8 M M M 194/18/12/2301/M/ 3009 93MM;
0070714590999992000073117004+50900-109500SAO  +0672CWJX V0200801N004119999999N9999999N1+02701+00801999999ADDMW1001REMAWY052WJX SA 1700 AUTO8 M M M 192/27/08/0808/M/ 8001 91MM;
0099714590999992000080202004+50900-109500SAO  +0672CWJX V0200801N010219999999N9999999N1+02901+01401999999ADDMW1001OC101441REMAWY073WJX SA 0200 AUTO8 M M M 087/29/14/0820+28/M/ PK WND 0829 0103Z 6009 96MM;
0070714590999992000080404004+50900-109500SAO  +0672CWJX V0200601N003619999999N9999999N1+01901+01101999999ADDMW1001REMAWY052WJX SA 0400 AUTO8 M M M 134/19/11/0607/M/ 3002 40MM;
0270714590999992000080612004+50900-109500SY-SA+0672CWJX V0202101N002619999999N9999999N1+01151+01111100961ADDAA124002591AA299999999KA1999M+02691KA2120N+01151MA1999999093141MD1810031+9999MW1001REMSYN082AAXX  06124 71459 36/// /2105 10115 20111 39314 40096 58003 333 10269 20115 70026;AWY052WJX SA 1200 AUTO8 M M M 096/12/11/2003/M/ 8003 51MM;EQDQ01+000990PRSWM4Q02  99992PRCP99
0070714590999992000082717004+50900-109500SAO  +0672CWJX V0201501N002019999999N9999999N1+01601+00501999999ADDMW1001REMAWY052WJX SA 1700 AUTO8 M M M 075/16/05/1504/M/ 0003 84MM;
0071714590999992000082903004+50900-109500SAO  +0672CWJX V0200301N003019999999N9999999N1+01201-00201999999ADDMW1001REMAWY053WJX SA 0300 AUTO8 M M M 136/12/-02/0306/M/ 3001 36MM;
0070714590999992000090415004+50900-109500SAO  +0672CWJX V0200501N004619999999N9999999N1+00901+00601999999ADDMW1001REMAWY052WJX SA 1500 AUTO8 M M M 210/09/06/0509/M/ 1004 22MM;
0070714590999992000090809004+50900-109500SAO  +0672CWJX V0201801N004619999999N9999999N1+01101+00401999999ADDMW1001REMAWY052WJX SA 0900 AUTO8 M M M 978/11/04/1809/M/ 8022 55MM;
0088714590999992000090907004+50900-109500SAO  +0672CWJX V0202601N008219999999N9999999N1+01001+00701999999ADDMW1001REMAWY070WJX SA 0700 AUTO8 M M M 942/10/07/2616/M/ PK WND 2524 0615Z 5003 99MM;
0070714590999992000091103004+50900-109500SAO  +0672CWJX V0202901N003619999999N9999999N1+00701+00301999999ADDMW1001REMAWY052WJX SA 0300 AUTO8 M M M 122/07/03/2907/M/ 1022 21MM;
0070714590999992000091117004+50900-109500SAO  +0672CWJX V0202501N003019999999N9999999N1+01101+00301999999ADDMW1001REMAWY052WJX SA 1700 AUTO8 M M M 154/11/03/2506/M/ 8003 73MM;
0070714590999992000091310004+50900-109500SAO  +0672CWJX V0203401N002519999999N9999999N1+00801+00301999999ADDMW1001REMAWY052WJX SA 1000 AUTO8 M M M 159/08/03/3405/M/ 3022 04MM;
0070714590999992000091401004+50900-109500SAO  +0672CWJX V0200201N001519999999N9999999N1+01801+00201999999ADDMW1001REMAWY052WJX SA 0100 AUTO8 M M M 215/18/02/0203/M/ 3006 32MM;
0259714590999992000092506004+50900-109500SY-SA+0672CWJX V0202401N003619999999N9999999N1+00691+00101101931ADDAA124000091KA1240M+02081KA2240N-00181MA1999999093941MD1610021+9999MW1001REMSYN082AAXX  25064 71459 36/// /2407 10069 20010 39394 40193 56002 333 10208 21018 70000;AWY052WJX SA 0600 AUTO8 M M M 193/07/01/2407/M/ 6002 90MM;EQDQ01+000990PRSWM4Q02  00002PRCP24
0070714590999992000092704004+50900-109500SAO  +0672CWJX V0200801N002519999999N9999999N1+00901+00401999999ADDMW1001REMAWY052WJX SA 0400 AUTO8 M M M 167/09/04/0805/M/ 2008 54MM;
0071714590999992000092801004+50900-109500SAO  +0672CWJX V0201901N003019999999N9999999N1+01801+00001999999ADDMW1001REMAWY053WJX SA 0100 AUTO8 M M M 164/18/00/1906/M/ 6008 3-3MM;
0071714590999992000101104004+50900-109500SAO  +0672CWJX V0200801N004119999999N9999999N1+00601-00701999999ADDMW1001REMAWY053WJX SA 0400 AUTO8 M M M 089/06/-07/0808/M/ 3010 50MM;
0270714590999992000101312004+50900-109500SY-SA+0672CWJX V0202301N000519999999N9999999N1+00461+00441101581ADDAA124001891AA299999999KA1999M+01381KA2120N+00401MA1999999093581MD1310051+9999MW1001REMSYN082AAXX  13124 71459 36/// /2301 10046 20044 39358 40158 53005 333 10138 20040 70018;AWY052WJX SA 1200 AUTO8 M M M 158/05/04/2401/M/ 3005 64MM;EQDQ01+000990PRSWM4Q02  99992PRCP99
0070714590999992000101508004+50900-109500SAO  +0672CWJX V0200601N001519999999N9999999N1+00501+00401999999ADDMW1001REMAWY052WJX SA 0800 AUTO8 M M M 141/05/04/0603/M/ 7001 60MM;
0259714590999992000101518004+50900-109500SY-SA+0672CWJX V0200101N002619999999N9999999N1+00901+00611101631ADDAA124000091KA1120M+00911KA2240N+00191MA1999999093631MD1010041+9999MW1001REMSYN082AAXX  15184 71459 36/// /0105 10090 20061 39363 40163 50004 333 10091 20019 70000;AWY052WJX SA 1800 AUTO8 M M M 163/09/06/0205/M/ 0004 01MM;EQDQ01+000990PRSWM4Q02  00002PRCP24
0070714590999992000101708004+50900-109500SAO  +0672CWJX V0202301N004619999999N9999999N1+00601+00201999999ADDMW1001REMAWY052WJX SA 0800 AUTO8 M M M 130/06/02/2309/M/ 3014 81MM;
0072714590999992000102313004+50900-109500SAO  +0672CWJX V0201801N004619999999N9999999N1-00101-00601999999ADDMW1001REMAWY054WJX SA 1300 AUTO8 M M M 211/-01/-06/1809/M/ 3003 20MM;
0071714590999992000102403004+50900-109500SAO  +0672CWJX V0201801N003019999999N9999999N1+00401-00601999999ADDMW1001REMAWY053WJX SA 0300 AUTO8 M M M 187/04/-06/1806/M/ 8001 15MM;
0070714590999992000102917004+50900-109500SAO  +0672CWJX V0200401N001019999999N9999999N1+00901+00401999999ADDMW1001REMAWY052WJX SA 1700 AUTO8 M M M 081/09/04/0402/M/ 1010 42MM;
0072714590999992000110611004+50900-109500SAO  +0672CWJX V0200101N003619999999N9999999N1-01101-01301999999ADDMW1001REMAWY054WJX SA 1100 AUTO8 M M M 241/-11/-13/0107/M/ 3019 12MM;
0272714590999992000111106004+50900-109500SY-SA+0672CWJX V0201901N001019999999N9999999N1-01421-01541102731ADDAA124000591AA299999999KA1240M-00791KA2240N-01811MA1999999094311MD1810071+9999MW1001REMSYN082AAXX  11064 71459 36/// /1902 11142 21154 39431 40273 58007 333 11079 21181 70006;AWY054WJX SA 0600 AUTO8 M M M 273/-14/-15/1902/M/ 8007 24MM;EQDQ01+000990PRSWM4Q02  99992PRCP99
0072714590999992000111108004+50900-109500SAO  +0672CWJX V0202501N001019999999N9999999N1-01601-01701999999ADDMW1001REMAWY054WJX SA 0800 AUTO8 M M M 268/-16/-17/2502/M/ 6010 68MM;
0072714590999992000112021004+50900-109500SAO  +0672CWJX V0202101N001519999999N9999999N1-00201-00801999999ADDMW1001REMAWY054WJX SA 2100 AUTO8 M M M 250/-02/-08/2103/M/ 8016 95MM;
0072714590999992000112213004+50900-109500SAO  +0672CWJX V0202401N002519999999N9999999N1-01001-01101999999ADDMW1001REMAWY054WJX SA 1300 AUTO8 M M M 223/-10/-11/2405/M/ 3001 88MM;
0071714590999992000120303004+50900-109500SAO  +0672CWJX V0202601N003619999999N9999999N1+00101-00301999999ADDMW1001REMAWY053WJX SA 0300 AUTO8 M M M 105/01/-03/2607/M/ 3016 57MM;
0071714590999992000120316004+50900-109500SAO  +0672CWJX V0202701N005619999999N9999999N1+00001-00101999999ADDMW1001REMAWY053WJX SA 1600 AUTO8 M M M 176/00/-01/2711/M/ 3010 44MM;
0072714590999992000120409004+50900-109500SAO  +0672CWJX V0203301N007219999999N9999999N1-00801-01001999999ADDMW1001REMAWY054WJX SA 0900 AUTO8 M M M 339/-08/-10/3314/M/ 1019 11MM;
0090714590999992000120502004+50900-109500SAO  +0672CWJX V0200801N004619999999N9999999N1-01201-01301999999ADDMW1001REMAWY072WJX SA 0200 AUTO8 M M M 303/-12/-13/0809/M/ PK WND 0916 0134Z 5022 72MM;
0072714590999992000120516004+50900-109500SAO  +0672CWJX V0202701N006119999999N9999999N1-00901-00901999999ADDMW1001REMAWY054WJX SA 1600 AUTO8 M M M 287/-09/-09/2712/M/ 1016 59MM;
0072714590999992000120807004+50900-109500SAO  +0672CWJX V0201701N003619999999N9999999N1-00501-00601999999ADDMW1001REMAWY054WJX SA 0700 AUTO8 M M M 209/-05/-06/1707/M/ 8013 27MM;
0072714590999992000121210004+50900-109500SAO  +0672CWJX V0200201N001019999999N9999999N1-03001-03301999999ADDMW1001REMAWY054WJX SA 1000 AUTO8 M M M 287/-30/-33/0202/M/ 6007 58MM;
0072714590999992000121217004+50900-109500SAO  +0672CWJX V0202701N001519999999N9999999N1-02701-03001999999ADDMW1001REMAWY054WJX SA 1700 AUTO8 M M M 301/-27/-30/2703/M/ 1007 75MM;
0072714590999992000121301004+50900-109500SAO  +0672CWJX V0202001N002019999999N9999999N1-02401-02701999999ADDMW1001REMAWY054WJX SA 0100 AUTO8 M M M 274/-24/-27/2004/M/ 7009 19MM;
0072714590999992000122205004+50900-109500SAO  +0672CWJX V0203301N002019999999N9999999N1-02401-02601999999ADDMW1001REMAWY054WJX SA 0500 AUTO8 M M M 225/-24/-26/3304/M/ 5000 79MM;
0072714590999992000122514004+50900-109500SAO  +0672CWJX V0201901N001519999999N9999999N1-01701-01901999999ADDMW1001REMAWY054WJX SA 1400 AUTO8 M M M 347/-17/-19/1903/M/ 6012 05MM;
0072714590999992000123022004+50900-109500SAO  +0672CWJX V0209999C000019999999N9999999N1-01701-01901999999ADDMW1001REMAWY054WJX SA 2200 AUTO8 M M M 283/-17/-19/0000/M/ 6007 39MM;
0200714600999992000010106004+45970-081480SY-SA+0196CWBE V0202001N004119999999N0140001N1-00111-00791101591ADDAA199999999MA1999999099151MD1810091+9999MW1001REMSYN060AAXX  01064 71460 46/64 /2008 11011 21079 39915 40159 58009;AWY057WBE SA 0600 AUTO4 M 9.+ M 159/-01/-08/2008/M/M 8009 10MM;EQDQ01  99992PRCP99
0269714600999992000010400004+45970-081480SY-SA+0196CWBE V0200401N007719999999N0140001N1-00661-01021101941ADDAA199999999KA1120M-00651KA2999N-01241MA1999999099451MD1610261+9999MW1001OC101081REMSYN076AAXX  04004 71460 46/64 /0415 11066 21102 39945 40194 56026 333 11065 21124;AWY060WBE SA 0000 AUTO4 M 9.+ M 194/-07/-10/0415+21/M/M 6026 62MM;EQDQ01+000990PRSWM4Q02  99992PRCP99
0075714600999992000010505004+45970-081480SAO  +0196CWBE V0203001N004619999999N0144841N1-01301-01801999999ADDMW1001REMAWY057WBE SA 0500 AUTO4 M 9.+ M 184/-13/-18/3009/M/M 3027 78MM;
0074714600999992000010904004+45970-081480SAO  +0196CWBE V0202701N003019999999N0144841N1+00001-00101999999ADDMW1001REMAWY056WBE SA 0400 AUTO4 M 9.+ M 087/00/-01/2706/M/M 6003 02MM;
0075714600999992000010914004+45970-081480SAO  +0196CWBE V0202701N001519999999N0144841N1-00101-00301999999ADDMW1001REMAWY057WBE SA 1400 AUTO4 M 9.+ M 136/-01/-03/2703/M/M 1014 96MM;
0074714600999992000010921004+45970-081480SAO  +0196CWBE V0200401N002019999999N0144841N1+00001-00101999999ADDMW1001REMAWY056WBE SA 2100 AUTO4 M 9.+ M 131/00/-01/0404/M/M 6002 41MM;
0262714600999992000011400004+45970-081480SY-SA+019699999V0203001N00361999999BN0140001N1-01611-02371103681ADDAA199999999KA1120M-01321KA2999N-01941MA1999999101091MD1110381+9999MW1001REMSYN080    AAXX  14004 71460 46/64 /3007 11161 21237 30109 40368 51038 333 11132 21194;AWY057WBE SA 0000 AUTO4 M 9.+ M 368/-16/-24/3007/M/M 1038 18MM;EQDQ01+000990PRSWM4Q02  99992PRCP99
0075714600999992000011715004+45970-081480SAO  +0196CWBE V0200201N002019999999N0144841N1-02301-03101999999ADDMW1001REMAWY057WBE SA 1500 AUTO4 M 9.+ M 466/-23/-31/0204/M/M 8009 21MM;
0269714600999992000020700004+45970-081480SY-SA+0196CWBE V0202201N006219999999N0140001N1-00141-00821101341ADDAA199999999KA1120M-00141KA2999N-01211MA1999999098881MD1610271+9999MW1001OC100871REMSYN076AAXX  07004 71460 46/64 /2212 11014 21082 39888 40134 56027 333 11014 21121;AWY060WBE SA 0000 AUTO4 M 9.+ M 134/-01/-08/2212+17/M/M 6027 42MM;EQDQ01+000990PRSWM4Q02  99992PRCP99
0074714600999992000020915004+45970-081480SAO  +0196CWBE V0202701N005119999999N0112651N1+00001-00201999999ADDMW1001REMAWY056WBE SA 1500 AUTO4 M 7. M 106/00/-02/2710/M/M 3027 -46MM;
0075714600999992000021816004+45970-081480SAO  +0196CWBE V0200501N004619999999N0144841N1-00701-01001999999ADDMW1001REMAWY057WBE SA 1600 AUTO4 M 9.+ M 275/-07/-10/0509/M/M 8014 39MM;
0075714600999992000022120004+45970-081480SAO  +0196CWBE V0201401N006119999999N0144841N1+00001-00201999999ADDMW1001REMAWY057WBE SA 2000 AUTO4 M 9.+ M 248/00/-02/1412/M/M 6013 -23MM;
0073714600999992000022701004+45970-081480SAO  +0196CWBE V0200701N004619999999N0048281N1+00301+00201999999ADDMW1001REMAWY055WBE SA 0100 AUTO4 M 3.0 M 123/03/02/0709/M/M 8015 30MM;
0075714600999992000022916004+45970-081480SAO  +0196CWBE V0201001N007219999999N0144841N1+00001-00301999999ADDMW1001REMAWY057WBE SA 1600 AUTO4 M 9.+ M 255/00/-03/1014/M/M 6018 -38MM;
0075714600999992000030309004+45970-081480SAO  +0196CWBE V0202701N003619999999N0144841N1-00201-01201999999ADDMW1001REMAWY057WBE SA 0900 AUTO4 M 9.+ M 201/-02/-12/2707/M/M 6004 13MM;
0074714600999992000030413004+45970-081480SAO  +0196CWBE V0202001N002019999999N0144841N1+00101-00201999999ADDMW1001REMAWY056WBE SA 1300 AUTO4 M 9.+ M 083/01/-02/2004/M/M 6020 50MM;
0085714600999992000030421004+45970-081480SAO  +0196CWBE V0202501N008219999999N0144841N1+00501-00301999999ADDMW1001OC101131REMAWY059WBE SA 2100 AUTO4 M 9.+ M 061/05/-03/2516+22/M/M 3002 74MM;
0104714600999992000030718004+45970-081480SAO  +0196CWBE V0200701N004619999999N0144841N1+00301-00201999999ADDAA199000091MW1001REMAWY056WBE SA 1800 AUTO4 M 9.+ M 150/03/-02/0709/M/M 8019 56MM;EQDQ01  00002PRCP99
0074714600999992000030723004+45970-081480SAO  +0196CWBE V0200401N003019999999N0144841N1+00301+00001999999ADDMW1001REMAWY056WBE SA 2300 AUTO4 M 9.+ M 132/03/00/0406/M/M 8005 2-4MM;
0073714600999992000030903004+45970-081480SAO  +0196CWBE V0200701N002519999999N0000001N1+00601+00501999999ADDMW1001REMAWY055WBE SA 0300 AUTO4 M 0.0 M 027/06/05/0705/M/M 6029 89MM;
0075714600999992000031210004+45970-081480SAO  +0196CWBE V0203101N003619999999N0144841N1-00501-01701999999ADDMW1001REMAWY057WBE SA 1000 AUTO4 M 9.+ M 177/-05/-17/3107/M/M 3007 09MM;
0075714600999992000031720004+45970-081480SAO  +0196CWBE V0202801N003019999999N0144841N1-00301-02201999999ADDMW1001REMAWY057WBE SA 2000 AUTO4 M 9.+ M 350/-03/-22/2806/M/M 6008 31MM;
0073714600999992000032307004+45970-081480SAO  +0196CWBE V0202801N000519999999N0022531N1+00301+00201999999ADDMW1001REMAWY055WBE SA 0700 AUTO4 M 1.4 M 289/03/02/2801/M/M 3003 99MM;
0075714600999992000032413004+45970-081480SAO  +0196CWBE V0200801N002019999999N0000001N1-00101-00201999999ADDMW1001REMAWY057WBE SA 1300 AUTO4 M 0.0 M 269/-01/-02/0804/M/M 1004 78MM;
0073714600999992000032515004+45970-081480SAO  +0196CWBE V0200401N003619999999N0064371N1+00401+00301999999ADDMW1001REMAWY055WBE SA 1500 AUTO4 M 4.0 M 031/04/03/0407/M/M 8017 78MM;
0257714600999992000033100004+45970-081480SY-SA+0196CWBE V0202701N004119999999N0140001N1+00411-00441101591ADDAA199999999KA1120M+00611KA2999N+00021MA1999999099171MD1310181+9999MW1001REMSYN076AAXX  31004 71460 46/64 /2708 10041 21044 39917 40159 53018 333 10061 20002;AWY056WBE SA 0000 AUTO4 M 9.+ M 159/04/-05/2708/M/M 3018 15MM;EQDQ01+000990PRSWM4Q02  99992PRCP99
0074714600999992000033104004+45970-081480SAO  +0196CWBE V0200101N002019999999N0144841N1+00201-00201999999ADDMW1001REMAWY056WBE SA 0400 AUTO4 M 9.+ M 190/02/-02/0104/M/M 1018 18MM;
0081714600999992000040701004+45970-081480SAO  +0196CWBE V0202601N008219999999N0144841N1+00201+00101999999ADDMW1001OC101181REMAWY055WBE SA 0100 AUTO4 M 9.+ M 058/02/01/2616+23/M/M M 27MM;
0075714600999992000041121004+45970-081480SAO  +0196CWBE V0201601N003019999999N0144841N1-00101-00701999999ADDMW1001REMAWY057WBE SA 2100 AUTO4 M 9.+ M 257/-01/-07/1606/M/M 8016 24MM;
0074714600999992000041605004+45970-081480SAO  +0196CWBE V0203601N003619999999N0144841N1+00101+00001999999ADDMW1001REMAWY056WBE SA 0500 AUTO4 M 9.+ M 221/01/00/3607/M/M 3018 1-4MM;
0073714600999992000051207004+45970-081480SAO  +0196CWBE V0200901N006619999999N0144841N1+00901+00801999999ADDMW1001REMAWY055WBE SA 0700 AUTO4 M 9.+ M 060/09/08/0913/M/M 8032 75MM;
0257714600999992000051512004+45970-081480SY-SA+0196CWBE V0202501N006719999999N0140001N1+00651-00031101851ADDAA199999999KA1999M+00891KA2999N+00531MA1999999099441MD1310111+9999MW1001REMSYN076AAXX  15124 71460 46/64 /2513 10065 21003 39944 40185 53011 333 10089 20053;AWY056WBE SA 1200 AUTO4 M 9.+ M 185/07/00/2513/M/M 3011 5-3MM;EQDQ01+000990PRSWM4Q02  99992PRCP99
0073714600999992000052020004+45970-081480SAO  +0196CWBE V0201401N002019999999N0144841N1+00901+00101999999ADDMW1001REMAWY055WBE SA 2000 AUTO4 M 9.+ M 193/09/01/1404/M/M 8012 79MM;
0267714600999992000052818004+45970-081480SY-SA+0196CWBE V0200501N006219999999N0140001N1+01391+00401101511ADDAA199999999KA1120M+01391KA2999N+00861MA1999999099131MD1610181+9999MW1001OC100971REMSYN076AAXX  28184 71460 46/64 /0512 10139 20040 39913 40151 56018 333 10139 20086;AWY058WBE SA 1800 AUTO4 M 9.+ M 151/14/04/0512+19/M/M 6018 99MM;EQDQ01+000990PRSWM4Q02  99992PRCP99
0084714600999992000061721004+45960-081470SAO  +0196CWBE V0202401N008219999999N0144841N1+01501+00301999999ADDMW1001OC101231REMAWY058WBE SA 2100 AUTO4 M 9.+ M 198/15/03/2416+24/M/M 1007 72MM;
0073714600999992000062511004+45960-081470SAO  +0196CWBE V0202701N003019999999N0056331N1+01701+01501999999ADDMW1001REMAWY055WBE SA 1100 AUTO4 M 3.5 M 084/17/15/2706/M/M 3005 63MM;
0073714600999992000070408004+45960-081470SAO  +0196CWBE V0202601N003019999999N0144841N1+01601+01301999999ADDMW1001REMAWY055WBE SA 0800 AUTO4 M 9.+ M 155/16/13/2606/M/M 4000 67MM;
0073714600999992000070609004+45960-081470SAO  +0196CWBE V0200101N002019999999N0144841N1+01601+00601999999ADDMW1001REMAWY055WBE SA 0900 AUTO4 M 9.+ M 176/16/06/0104/M/M 4000 74MM;
0073714600999992000071104004+45960-081470SAO  +0196CWBE V0203201N003019999999N0144841N1+01901+00501999999ADDMW1001REMAWY055WBE SA 0400 AUTO4 M 9.+ M 163/19/05/3206/M/M 1014 29MM;
0073714600999992000071309004+45960-081470SAO  +0196CWBE V0200501N000519999999N0144841N1+01701+01601999999ADDMW1001REMAWY055WBE SA 0900 AUTO4 M 9.+ M 166/17/16/0501/M/M 8005 15MM;
0256714600999992000071612004+45960-081470SY-SA+0196CWBE V0200101N004619999999N0140001N1+01781+01571100971ADDAA199999999KA1999M+02141KA2999N+01681MA1999999098641MD1010011+9999MW1001REMSYN076AAXX  16124 71460 46/64 /0109 10178 20157 39864 40097 50001 333 10214 20168;AWY055WBE SA 1200 AUTO4 M 9.+ M 097/18/16/0109/M/M 0001 86MM;EQDQ01+000990PRSWM4Q02  99992PRCP99
0073714600999992000072020004+45960-081470SAO  +0196CWBE V0201401N004119999999N0144841N1+01601+01201999999ADDMW1001REMAWY055WBE SA 2000 AUTO4 M 9.+ M 117/16/12/1408/M/M M012 80MM;
0073714600999992000072405004+45960-081470SAO  +0196CWBE V0202301N001519999999N0144841N1+01501+01401999999ADDMW1001REMAWY055WBE SA 0500 AUTO4 M 9.+ M 230/15/14/2303/M/M 3002 17MM;
0084714600999992000080723004+45960-081470SAO  +0196CWBE V0202401N008719999999N0144841N1+02201+01301999999ADDMW1001OC101331REMAWY058WBE SA 2300 AUTO4 M 9.+ M 078/22/13/2417+26/M/M 3014 54MM;
0256714600999992000080912004+45960-081470SY-SA+0196CWBE V0202401N005719999999N0140001N1+01741+01581101001ADDAA199999999KA1999M+01911KA2999N+01641MA1999999098661MD1310071+9999MW1001REMSYN076AAXX  09124 71460 46/64 /2411 10174 20158 39866 40100 53007 333 10191 20164;AWY055WBE SA 1200 AUTO4 M 9.+ M 100/17/16/2411/M/M 3007 48MM;EQDQ01+000990PRSWM4Q02  99992PRCP99
0073714600999992000081004004+45960-081470SAO  +0196CWBE V0203001N003019999999N0144841N1+01901+01601999999ADDMW1001REMAWY055WBE SA 0400 AUTO4 M 9.+ M 131/19/16/3006/M/M 1013 23MM;
0073714600999992000081322004+45960-081470SAO  +0196CWBE V0201901N005619999999N0144841N1+02101+01401999999ADDMW1001REMAWY055WBE SA 2200 AUTO4 M 9.+ M 153/21/14/1911/M/M 6009 71MM;
0073714600999992000081511004+45960-081470SAO  +0196CWBE V0201301N006119999999N0144841N1+01901+01601999999ADDMW1001REMAWY055WBE SA 1100 AUTO4 M 9.+ M 151/19/16/1312/M/M 8018 84MM;
0073714600999992000081716004+45960-081470SAO  +0196CWBE V0200901N002019999999N0144841N1+01501+00401999999ADDMW1001REMAWY055WBE SA 1600 AUTO4 M 9.+ M 209/15/04/0904/M/M 8007 49MM;
0256714600999992000081818004+45960-081470SY-SA+0196CWBE V0201301N001019999999N0140001N1+01471+01081101681ADDAA199999999KA1120M+01561KA2999N+01371MA1999999099311MD1110041+9999MW1001REMSYN076AAXX  18184 71460 46/64 /1302 10147 20108 39931 40168 51004 333 10156 20137;AWY055WBE SA 1800 AUTO4 M 9.+ M 168/15/11/1302/M/M 1004 77MM;EQDQ01+000990PRSWM4Q02  99992PRCP99
0256714600999992000082600004+45960-081470SY-SA+0196CWBE V0201801N001019999999N0140001N1+01931+01681101571ADDAA199999999KA1120M+02291KA2999N+01701MA1999999099221MD1810111+9999MW1001REMSYN076AAXX  26004 71460 46/64 /1802 10193 20168 39922 40157 58011 333 10229 20170;AWY055WBE SA 0000 AUTO4 M 9.+ M 157/19/17/1802/M/M 8011 37MM;EQDQ01+000990PRSWM4Q02  99992PRCP99
0256714600999992000092212004+45960-081470SY-SA+0196CWBE V0203001N002119999999N0140001N1+00661+00451102311ADDAA199999999KA1999M+01291KA2999N+00661MA1999999099901MD1310071+9999MW1001REMSYN076AAXX  22124 71460 46/64 /3004 10066 20045 39990 40231 53007 333 10129 20066;AWY055WBE SA 1200 AUTO4 M 9.+ M 231/07/04/3004/M/M 3007 64MM;EQDQ01+000990PRSWM4Q02  99992PRCP99
0073714600999992000100205004+45960-081470SAO  +0196CWBE V0201301N005619999999N0144841N1+01501+01101999999ADDMW1001REMAWY055WBE SA 0500 AUTO4 M 9.+ M 094/15/11/1311/M/M 8014 97MM;
0085714600999992000100417004+45960-081470SAO  +0196CWBE V0202301N008719999999N0144841N1+01201-00301999999ADDMW1001OC101231REMAWY059WBE SA 1700 AUTO4 M 9.+ M 162/12/-03/2317+24/M/M 6003 76MM;
0074714600999992000101615004+45960-081470SAO  +0196CWBE V0200201N002019999999N0144841N1+00701+00001999999ADDMW1001REMAWY056WBE SA 1500 AUTO4 M 9.+ M 246/07/00/0204/M/M 0000 5-1MM;
0256714600999992000101618004+45960-081470SY-SA+0196CWBE V0200401N003119999999N0140001N1+00771+00261102431ADDAA199999999KA1120M+00771KA2999N+00501MA1999999100011MD1810021+9999MW1001REMSYN076AAXX  16184 71460 46/64 /0406 10077 20026 30001 40243 58002 333 10077 20050;AWY055WBE SA 1800 AUTO4 M 9.+ M 243/08/03/0406/M/M 8002 76MM;EQDQ01+000990PRSWM4Q02  99992PRCP99
0073714600999992000101713004+45960-081470SAO  +0196CWBE V0200201N002519999999N0144841N1+00801+00701999999ADDMW1001REMAWY055WBE SA 1300 AUTO4 M 9.+ M 242/08/07/0205/M/M 1007 27MM;
0073714600999992000101716004+45960-081470SAO  +0196CWBE V0200501N002519999999N0144841N1+00901+00701999999ADDMW1001REMAWY055WBE SA 1600 AUTO4 M 9.+ M 240/09/07/0505/M/M 8002 48MM;
0073714600999992000102708004+45960-081470SAO  +0196CWBE V0202301N004619999999N0064371N1+01501+01301999999ADDMW1001REMAWY055WBE SA 0800 AUTO4 M 4.0 M 136/15/13/2309/M/M 6016 52MM;
0073714600999992000110207004+45960-081470SAO  +0196CWBE V0200101N003619999999N0144841N1+00801+00701999999ADDMW1001REMAWY055WBE SA 0700 AUTO4 M 9.+ M 227/08/07/0107/M/M 8003 43MM;
0256714600999992000110500004+45960-081470SY-SA+0196CWBE V0202901N002619999999N0140001N1+00451+00121101631ADDAA199999999KA1120M+00621KA2999N+00411MA1999999099221MD1310071+9999MW1001REMSYN076AAXX  05004 71460 46/64 /2905 10045 20012 39922 40163 53007 333 10062 20041;AWY055WBE SA 0000 AUTO4 M 9.+ M 163/05/01/2905/M/M 3007 52MM;EQDQ01+000990PRSWM4Q02  99992PRCP99
0074714600999992000110623004+45960-081470SAO  +0196CWBE V0200401N005619999999N0144841N1+00601-00501999999ADDMW1001REMAWY056WBE SA 2300 AUTO4 M 9.+ M 214/06/-05/0411/M/M 5001 44MM;
0073714600999992000110901004+45960-081470SAO  +0196CWBE V0202001N001019999999N0144841N1+00801+00601999999ADDMW1001REMAWY055WBE SA 0100 AUTO4 M 9.+ M 152/08/06/2002/M/M 0007 27MM;
0085714600999992000111211004+45960-081470SAO  +0196CWBE V0200101N004119999999N0144841N1+00101-00601999999ADDMW1001OC100821REMAWY059WBE SA 1100 AUTO4 M 9.+ M 271/01/-06/0108+16/M/M 6010 65MM;
0074714600999992000111303004+45960-081470SAO  +0196CWBE V0203601N002519999999N0144841N1+00101-00501999999ADDMW1001REMAWY056WBE SA 0300 AUTO4 M 9.+ M 207/01/-05/3605/M/M 5002 25MM;
0075714600999992000111711004+45960-081470SAO  +0196CWBE V0202901N004619999999N0144841N1-00401-00901999999ADDMW1001REMAWY057WBE SA 1100 AUTO4 M 9.+ M 051/-04/-09/2909/M/M 1019 52MM;
0086714600999992000111713004+45960-081470SAO  +0196CWBE V0202701N006619999999N0144841N1-00301-00901999999ADDMW1001OC100921REMAWY060WBE SA 1300 AUTO4 M 9.+ M 067/-03/-09/2713+18/M/M 3020 49MM;
0086714600999992000112119004+45960-081470SAO  +0196CWBE V0202801N005619999999N0144841N1-00601-01401999999ADDMW1001OC100921REMAWY060WBE SA 1900 AUTO4 M 9.+ M 164/-06/-14/2811+18/M/M 1002 43MM;
0075714600999992000112204004+45960-081470SAO  +0196CWBE V0203101N001519999999N0144841N1-00901-01601999999ADDMW1001REMAWY057WBE SA 0400 AUTO4 M 9.+ M 173/-09/-16/3103/M/M 8014 74MM;
0075714600999992000112210004+45960-081470SAO  +0196CWBE V0200401N006619999999N0000001N1-00701-00801999999ADDMW1001REMAWY057WBE SA 1000 AUTO4 M 0.0 M 127/-07/-08/0413/M/M 6027 69MM;
0086714600999992000112223004+45960-081470SAO  +0196CWBE V0202901N006619999999N0144841N1-01101-01701999999ADDMW1001OC100921REMAWY060WBE SA 2300 AUTO4 M 9.+ M 238/-11/-17/2913+18/M/M 1040 89MM;
0075714600999992000112302004+45960-081470SAO  +0196CWBE V0202801N002019999999N0144841N1-01201-01601999999ADDMW1001REMAWY057WBE SA 0200 AUTO4 M 9.+ M 254/-12/-16/2804/M/M 1016 50MM;
0085714600999992000120319004+45960-081470SAO  +0196CWBE V0202201N006619999999N0144841N1+00201-00601999999ADDMW1001OC100971REMAWY059WBE SA 1900 AUTO4 M 9.+ M 312/02/-06/2213+19/M/M 6025 39MM;
0086714600999992000120522004+45960-081470SAO  +0196CWBE V0202701N008219999999N0144841N1-01201-01901999999ADDMW1001OC101381REMAWY060WBE SA 2200 AUTO4 M 9.+ M 169/-12/-19/2716+27/M/M 1047 07MM;
0075714600999992000122207004+45960-081470SAO  +0196CWBE V0200201N001519999999N0008051N1-00701-00901999999ADDMW1001REMAWY057WBE SA 0700 AUTO4 M 0.5 M 120/-07/-09/0203/M/M 3003 07MM;
0075714600999992000122713004+45960-081470SAO  +0196CWBE V0203201N003619999999N0144841N1-01601-02001999999ADDMW1001REMAWY057WBE SA 1300 AUTO4 M 9.+ M 228/-16/-20/3207/M/M 3013 12MM;
0075714600999992000122911004+45960-081470SAO  +0196CWBE V0203201N003019999999N0144841N1-01501-01801999999ADDMW1001REMAWY057WBE SA 1100 AUTO4 M 9.+ M 240/-15/-18/3206/M/M 6003 71MM;
0258714600999992000122918004+45960-081470SY-SA+0196CWBE V0203401N003119999999N0140001N1-01031-01551102131ADDAA199999999KA1120M-01031KA2999N-01471MA1999999099621MD1810231+9999MW1001REMSYN076AAXX  29184 71460 46/64 /3406 11103 21155 39962 40213 58023 333 11103 21147;AWY057WBE SA 1800 AUTO4 M 9.+ M 213/-10/-16/3406/M/M 8023 35MM;EQDQ01+000990PRSWM4Q02  99992PRCP99
0075714600999992000123004004+45960-081470SAO  +0196CWBE V0200201N003619999999N0144841N1-00701-01201999999ADDMW1001REMAWY057WBE SA 0400 AUTO4 M 9.+ M 194/-07/-12/0207/M/M 6004 39MM;
0143714610999992000010118004+48300-088870FM-12+021899999V0209999C000019999999N9999999N1-00961-01601101891ADDKA1120M-00321KA2999N-00961MA1999999099181MD1010141+9999REMSYN076AAXX  01184 71461 46/// /0000 11096 21160 39918 40189 50014 333 11032 21096;
0079714620999992000010303004+45630-082970SAO  +0183CWNL V0203501N004119999999N0144841N1-00601+99999999999ADDMW1001REMAWY061WNL SA 0329 AUTO4 M 9.+ M 100/-06/M/3508/M/ PRESRR 1066 2MMM;
0255714620999992000010512004+45630-082970SY-SA+0183CWNL V0200101N001519999999N0140001N1-01301+99999102591ADDAA106000091KA1999M-00351KA2120N-01321MA1999999100251MD1110271+9999MW1001REMSYN076AAXX  05124 71462 36/64 /0103 11132 30025 40259 51027 333 11035 21132 70000;AWY054WNL SA 1229 AUTO4 M 9.+ M 259/-13/M/0403/M/ 1022 9MMM;EQDQ01+000990PRSWM4Q02  00002PRCP06
0083714620999992000011205004+45630-082970SAO  +0183CWNL V0202901N012319999999N0144841N1-00201+99999999999ADDMW1001OC101541REMAWY057WNL SA 0529 AUTO4 M 9.+ M 149/-02/M/2924+30/M/ 1032 3MMM;
0072714620999992000011623004+45630-082970SAO  +0183CWNL V0203501N004119999999N0144841N1-01501+99999999999ADDMW1001REMAWY054WNL SA 2329 AUTO4 M 9.+ M 406/-15/M/3508/M/ 1047 6MMM;
0072714620999992000011822004+45630-082970SAO  +0183CWNL V0202601N003019999999N0014481N1-00501+99999999999ADDMW1001REMAWY054WNL SA 2229 AUTO4 M 0.9 M 131/-05/M/2606/M/ 6007 0MMM;
0255714620999992000012118004+45630-082970SY-SA+0183CWNL V0203501N003119999999N0140001N1-01601+99999101951ADDAA124000091KA1120M-01651KA2240N-01901MA1999999099581MD1010071+9999MW1001REMSYN076AAXX  21184 71462 36/64 /3506 11165 39958 40195 50007 333 11165 21190 70000;AWY054WNL SA 1829 AUTO4 M 9.+ M 195/-16/M/3406/M/ 0004 6MMM;EQDQ01+000990PRSWM4Q02  00002PRCP24
0083714620999992000012501004+45630-082970SAO  +0183CWNL V0202301N008719999999N0144841N1-00501+99999999999ADDMW1001OC101131REMAWY057WNL SA 0129 AUTO4 M 9.+ M 157/-05/M/2317+22/M/ 1001 8MMM;
0083714620999992000012604004+45630-082970SAO  +0183CWNL V0200101N004119999999N0144841N1-01501+99999999999ADDMW1001OC100871REMAWY057WNL SA 0429 AUTO4 M 9.+ M 186/-15/M/0108+17/M/ 1006 9MMM;
0072714620999992000012621004+45630-082970SAO  +0183CWNL V0203501N004119999999N0144841N1-01201+99999999999ADDMW1001REMAWY054WNL SA 2129 AUTO4 M 9.+ M 267/-12/M/3508/M/ 3009 6MMM;
0266714620999992000012906004+45630-082970SY-SA+0183CWNL V0203201N003119999999N0140001N1-00201+99999103731ADDAA124000391AA299999999KA1240M+00021KA2240N-00701MA1999999101401MD1610021+9999MW1001REMSYN076AAXX  29064 71462 36/64 /3206 11018 30140 40373 56002 333 10002 21070 70002;AWY054WNL SA 0629 AUTO4 M 9.+ M 371/-02/M/3206/M/ 8004 9MMM;EQDQ01+000990PRSWM4Q02  99992PRCP99
0083714620999992000013109004+45630-082970SAO  +0183CWNL V0203001N007219999999N0144841N1-00301+99999999999ADDMW1001OC100971REMAWY057WNL SA 0929 AUTO4 M 9.+ M 086/-03/M/3014+19/M/ 6018 8MMM;
0205714620999992000020700004+45630-082970FM-12+0183CWNL V0202301N010819999999N0140001N1+00031+99999101312ADDAA124000091KA1120M+00041KA2180N-00381MA1999999099042MD1610341+9999REMSYN076AAXX  07004 71462 36/64 /2321 10003 39904 40131 56034 333 10004 21038 70000;EQDQ01+099043APOSP Q02+101313APOSLPQ03  00002PRCP24
0071714620999992000030511004+45630-082970SAO  +0183CWNL V0203401N002519999999N0144841N1+00001+99999999999ADDMW1001REMAWY053WNL SA 1129 AUTO4 M 9.+ M 137/00/M/3405/M/ 1020 2MMM;
0072714620999992000031709004+45630-082970SAO  +0183CWNL V0200601N003019999999N0144841N1-00701+99999999999ADDMW1001REMAWY054WNL SA 0929 AUTO4 M 9.+ M 296/-07/M/0606/M/ 3020 3MMM;
0069714620999992000040402004+45630-082970SAO  +0183CWNL V0203401N002019999999N0040231N1+00301+99999999999ADDMW1001REMAWY051WNL SA 0229 AUTO4 M 2.5 M 023/03/M/3404/M/M M 1MMM;
0082714620999992000040711004+45630-082970SAO  +0183CWNL V0203101N006119999999N0144841N1+00101+99999999999ADDMW1001OC100971REMAWY056WNL SA 1129 AUTO4 M 9.+ M 144/01/M/3112+19/M/ 1010 5MMM;
0255714620999992000041106004+45630-082970SY-SA+0183CWNL V0200501N001519999999N0140001N1-00201+99999102781ADDAA124000091KA1240M+00101KA2240N-00401MA1999999100481MD1010021+9999MW1001REMSYN076AAXX  11064 71462 36/64 /0503 11019 30048 40278 50002 333 10010 21040 70000;AWY054WNL SA 0629 AUTO4 M 9.+ M 283/-02/M/0605/M/ 3003 8MMM;EQDQ01+000990PRSWM4Q02  00002PRCP24
0254714620999992000041400004+45630-082970SY-SA+0183CWNL V0201801N008719999999N0140001N1+00401+99999102441ADDAA124000091KA1120M+00431KA2180N-00031MA1999999100161MD1610181+9999MW1001REMSYN076AAXX  14004 71462 36/64 /1817 10042 30016 40244 56018 333 10043 21003 70000;AWY053WNL SA 0029 AUTO4 M 9.+ M 247/04/M/1817/M/ 5011 3MMM;EQDQ01+000990PRSWM4Q02  00002PRCP24
0070714620999992000041707004+45630-082970SAO  +0183CWNL V0200701N003619999999N0128751N1+00101+99999999999ADDMW1001REMAWY052WNL SA 0729 AUTO4 M 8. M 245/01/M/0707/M/ 5004 8MMM;
0070714620999992000050520004+45630-082970SAO  +0183CWNL V0209999C000019999999N0112651N1+01301+99999999999ADDMW1001REMAWY052WNL SA 2029 AUTO4 M 7. M 156/13/M/0000/M/ 6007 3MMM;
0071714620999992000051109004+45630-082970SAO  +0183CWNL V0203501N000519999999N0144841N1+00601+99999999999ADDMW1001REMAWY053WNL SA 0929 AUTO4 M 9.+ M 120/06/M/3501/M/ 8003 6MMM;
0071714620999992000052801004+45630-082970SAO  +0183CWNL V0209999C000019999999N0144841N1+00801+99999999999ADDMW1001REMAWY053WNL SA 0129 AUTO4 M 9.+ M 168/08/M/0000/M/ 6004 0MMM;
0281714620999992000053118004+45630-082970SY-SA+0183CWNL V0203101N003119999999N0140001N1+01201+99999101671ADDAA124001091AA299999999KA1120M+99999KA2240N+00911MA1999999099441MD1010061+9999MW1001REMSYN076AAXX  31184 71462 36/64 /3106 10109 39944 40167 50006 333 10112 20091 70010;AWY053WNL SA 1829 AUTO4 M 9.+ M 166/12/M/3206/M/ 4000 6MMM;EQDQ01+000990PRSWM4Q02  99992PRCP99Q03 +01122ATMX  
0071714620999992000060119004+45630-082970SAO  +0183CWNL V0201101N001519999999N0144841N1+01401+99999999999ADDMW1001REMAWY053WNL SA 1929 AUTO4 M 9.+ M 208/14/M/1103/M/ 0000 5MMM;
0071714620999992000060121004+45630-082970SAO  +0183CWNL V0200901N003019999999N0144841N1+01201+99999999999ADDMW1001REMAWY053WNL SA 2129 AUTO4 M 9.+ M 185/12/M/0906/M/ 8027 9MMM;
0071714620999992000060507004+45630-082970SAO  +0183CWNL V0200501N001019999999N0144841N1+00901+99999999999ADDMW1001REMAWY053WNL SA 0729 AUTO4 M 9.+ M 238/09/M/0502/M/ 3004 3MMM;
0070714620999992000060822004+45630-082970SAO  +0183CWNL V0203101N002519999999N0112651N1+01601+99999999999ADDMW1001REMAWY052WNL SA 2229 AUTO4 M 7. M 101/16/M/3105/M/ 1017 9MMM;
0071714620999992000061709004+45630-082970SAO  +0183CWNL V0202801N004119999999N0144841N1+01001+99999999999ADDMW1001REMAWY053WNL SA 0929 AUTO4 M 9.+ M 134/10/M/2808/M/ 3023 1MMM;
0082714620999992000061715004+45630-082970SAO  +0183CWNL V0202801N006619999999N0144841N1+01101+99999999999ADDMW1001OC100921REMAWY056WNL SA 1529 AUTO4 M 9.+ M 194/11/M/2813+18/M/ 3026 4MMM;
0265714620999992000062106004+45630-082970SY-SA+0183CWNL V0201801N007719999999N0048001N1+01301+99999100401ADDAA124007191AA299999999KA1240M+01521KA2240N+01211MA1999999098211MD1610241+9999MW1001REMSYN076AAXX  21064 71462 36/48 /1815 10128 39821 40040 56024 333 10152 20121 70070;AWY053WNL SA 0629 AUTO4 M 2.5 M 037/13/M/1814/M/ 8019 9MMM;EQDQ01+000990PRSWM4Q02  99992PRCP99
0254714620999992000062412004+45630-082970SY-SA+0183CWNL V0201201N002119999999N0060001N1+01401+99999101331ADDAA124000091KA1999M+01561KA2120N+01311MA1999999099131MD1310021+9999MW1001REMSYN076AAXX  24124 71462 36/56 /1204 10147 39913 40133 53002 333 10156 20131 70000;AWY053WNL SA 1229 AUTO4 M 4.5 M 129/14/M/1307/M/ 8002 4MMM;EQDQ01+000990PRSWM4Q02  00002PRCP24
0254714620999992000070106004+45630-082970SY-SA+0183CWNL V0202201N004119999999N0140001N1+01601+99999101311ADDAA124000091KA1240M+01741KA2240N+01181MA1999999099111MD1810061+9999MW1001REMSYN076AAXX  01064 71462 36/64 /2208 10156 39911 40131 58006 333 10174 20118 70000;AWY053WNL SA 0629 AUTO4 M 9.+ M 128/16/M/2207/M/ 8006 8MMM;EQDQ01+000990PRSWM4Q02  00002PRCP24
0071714620999992000071013004+45630-082970SAO  +0183CWNL V02099999999999999999N0144841N1+02001+99999999999ADDMW1001REMAWY053WNL SA 1329 AUTO4 M 9.+ M 120/20/M/MM05/M/ 1023 8MMM;
0101714620999992000071500004+45630-082970SAO  +0183CWNL V0203301N003619999999N0144841N1+02001+99999999999ADDAA199000091MW1001REMAWY053WNL SA 0029 AUTO4 M 9.+ M 067/20/M/3307/M/ 3007 8MMM;EQDQ01  00002PRCP99
0173714620999992000071718004+45630-082970FM-12+0183CWNL V0203101N004119999999N0140001N1+02281+99999100901ADDAA124000091KA1120M+02281KA2240N+01791MA1999999098731MD1810021+9999REMSYN076AAXX  17184 71462 36/64 /3108 10228 39873 40090 58002 333 10228 20179 70000;EQDQ01  00002PRCP24
0101714620999992000071812004+45630-082970SAO  +0183CWNL V0203101N006619999999N0144841N1+01101+99999999999ADDAA199000091MW1001REMAWY053WNL SA 1229 AUTO4 M 9.+ M 168/11/M/3113/M/ 1016 3MMM;EQDQ01  00002PRCP99
0082714620999992000071817004+45630-082970SAO  +0183CWNL V0203001N009219999999N0144841N1+01301+99999999999ADDMW1001OC101181REMAWY056WNL SA 1729 AUTO4 M 9.+ M 185/13/M/3018+23/M/ 1009 2MMM;
0071714620999992000072010004+45630-082970SAO  +0183CWNL V0202701N002019999999N0144841N1+01301+99999999999ADDMW1001REMAWY053WNL SA 1029 AUTO4 M 9.+ M 143/13/M/2704/M/ 6009 7MMM;
0071714620999992000072209004+45630-082970SAO  +0183CWNL V0203501N002019999999N0144841N1+01101+99999999999ADDMW1001REMAWY053WNL SA 0929 AUTO4 M 9.+ M 170/11/M/3504/M/ 3011 2MMM;
0070714620999992000072408004+45630-082970SAO  +0183CWNL V0203401N001519999999N0128751N1+01401+99999999999ADDMW1001REMAWY052WNL SA 0829 AUTO4 M 8. M 225/14/M/3403/M/ 8004 6MMM;
0071714620999992000072414004+45630-082970SAO  +0183CWNL V0201801N001519999999N0144841N1+01701+99999999999ADDMW1001REMAWY053WNL SA 1429 AUTO4 M 9.+ M 236/17/M/1803/M/ 3006 6MMM;
0281714620999992000073112004+45630-082970SY-SA+0183CWNL V0201201N004119999999N0032001N1+01901+99999101541ADDAA106002091AA299999999KA1999M+02341KA2120N+01901MA1999999099361MD1310011+9999MW1001REMSYN088AAXX  31124 71462 1//32 /1208 10193 39936 40154 53001 60021 7//4/ 333 10234 20190 70020;AWY057WNL SA 1229 AUTO4 M 2.0 M 154/19/M/1206/M/0018 3001 4MMM;EQDQ01+000990PRSWM4Q02  99992PRCP99
0287714620999992000080106004+45630-082970SY-SA+0183CWNL V0201201N001519999999N0110001N1+01901+99999101331ADDAA124002091AA299999999KA1240M+02211KA2240N+01901MA1999999099151MD1810071+9999MW1001REMSYN076AAXX  01064 71462 36/61 /1203 10191 39915 40133 58007 333 10221 20190 70020;AWY075WNL SA 0629 AUTO4 M 6. M 129/19/M/1302/M/0002 PCPN 0.2MM PAST HR 8011 4MMM;EQDQ01+000990PRSWM4Q02  99992PRCP99
0093714620999992000081809004+45630-082970SAO  +0183CWNL V0202701N006119999999N0080471N1+01601+99999999999ADDMW1001REMAWY075WNL SA 0929 AUTO4 M 5. M 141/16/M/2712/M/0014 PCPN 0.4MM PAST HR 8009 5MMM;
0070714620999992000082209004+45630-082970SAO  +0183CWNL V0201801N003619999999N0096561N1+01701+99999999999ADDMW1001REMAWY052WNL SA 0929 AUTO4 M 6. M 228/17/M/1807/M/ 6005 4MMM;
0071714620999992000082516294+45630-082970SAOSP+0183CWNL V0201801N001519999999N0144841N1+02001+99999999999ADDMW1001REMAWY053WNL SA 1629 AUTO4 M 9.+ M 187/20/M/1803/M/ 6009 6MMM;
0071714620999992000083115294+45630-082970SAOSP+0183CWNL V0201801N005119999999N0064371N1+01901+99999999999ADDMW1001REMAWY053WNL SA 1529 AUTO4 M 4.0 M 165/19/M/1810/M/ 6009 9MMM;
0082714620999992000091623294+45630-082970SAOSP+0183CWNL V0202801N009219999999N0144841N1+01501+99999999999ADDMW1001OC101231REMAWY056WNL SA 2329 AUTO4 M 9.+ M 130/15/M/2818+24/M/ 6017 7MMM;
0071714620999992000092305294+45630-082970SAOSP+0183CWNL V0200901N004119999999N0144841N1+01001+99999999999ADDMW1001REMAWY053WNL SA 0529 AUTO4 M 9.+ M 137/10/M/0908/M/ 8032 0MMM;
0082714620999992000093009294+45630-082970SAOSP+0183CWNL V0201901N008719999999N0144841N1+01401+99999999999ADDMW1001OC101131REMAWY056WNL SA 0929 AUTO4 M 9.+ M 154/14/M/1917+22/M/ 6018 6MMM;
0071714620999992000093010294+45630-082970SAOSP+0183CWNL V0201801N009719999999N0144841N1+01301+99999999999ADDMW1001REMAWY053WNL SA 1029 AUTO4 M 9.+ M 145/13/M/1819/M/ 8021 3MMM;
0173714620999992000100100004+45630-082970FM-12+0183CWNL V0201801N005719999999N0100001N1+01411+99999101351ADDAA124000091KA1120M+01451KA2180N+01301MA1999999099151MD1310021+9999REMSYN076AAXX  01004 71462 36/60 /1811 10141 39915 40135 53002 333 10145 20130 70000;EQDQ01  00002PRCP24
0071714620999992000100414294+45630-082970SAOSP+0183CWNL V0203301N004619999999N0144841N1+01201+99999999999ADDMW1001REMAWY053WNL SA 1429 AUTO4 M 9.+ M 173/12/M/3309/M/ 1013 6MMM;
0101714620999992000101206294+45630-082970SAOSP+0183CWNL V0202701N006119999999N0144841N1+01101+99999999999ADDAA199000091MW1001REMAWY053WNL SA 0629 AUTO4 M 9.+ M 228/11/M/2712/M/ 6002 1MMM;EQDQ01  00002PRCP99
0123714620999992000101318294+45630-082970SAOSP+0183CWNL V0201901N003019999999N0112651N1+01301+99999999999ADDAA199000091MW1001REMAWY075WNL SA 1829 AUTO4 M 7. M 166/13/M/1906/M/0012 PCPN 0.2MM PAST HR 6014 6MMM;EQDQ01  00002PRCP99
0101714620999992000101712294+45630-082970SAOSP+0183CWNL V0203301N002519999999N0144841N1+00901+99999999999ADDAA199000091MW1001REMAWY053WNL SA 1229 AUTO4 M 9.+ M 235/09/M/3305/M/ 1011 7MMM;EQDQ01  00002PRCP99
0093714620999992000101814294+45630-082970SAOSP+0183CWNL V0202701N007219999999N0112651N1+01001+99999999999ADDMW1001REMAWY075WNL SA 1429 AUTO4 M 7. M 185/10/M/2714/M/0008 PCPN 0.8MM PAST HR 8003 4MMM;
0071714620999992000102120294+45630-082970SAOSP+0183CWNL V0203501N001519999999N0144841N1+01201+99999999999ADDMW1001REMAWY053WNL SA 2029 AUTO4 M 9.+ M 267/12/M/3503/M/ 3017 5MMM;
0071714620999992000102309294+45630-082970SAOSP+0183CWNL V0201801N005119999999N0144841N1+01201+99999999999ADDMW1001REMAWY053WNL SA 0929 AUTO4 M 9.+ M 326/12/M/1810/M/ 8009 5MMM;
0173714620999992000103106004+45630-082970FM-12+0183CWNL V0200701N002619999999N0140001N1+00721+99999102681ADDAA124000091KA1240M+01401KA2240N+00421MA1999999100431MD1610031+9999REMSYN076AAXX  31064 71462 36/64 /0705 10072 30043 40268 56003 333 10140 20042 70000;EQDQ01  00002PRCP24
0082714620999992000110401294+45630-082970SAOSP+0183CWNL V0203001N007719999999N0144841N1+00801+99999999999ADDMW1001OC101081REMAWY056WNL SA 0129 AUTO4 M 9.+ M 174/08/M/3015+21/M/ 3006 9MMM;
0071714620999992000111214294+45630-082970SAOSP+0183CWNL V0200701N003019999999N0144841N1+00301+99999999999ADDMW1001REMAWY053WNL SA 1429 AUTO4 M 9.+ M 253/03/M/0706/M/ 6009 5MMM;
0173714620999992000111218004+45630-082970FM-12+0183CWNL V0201001N004119999999N0140001N1+00371+99999102211ADDAA124000091KA1120M+00371KA2240N+00121MA1999999099941MD1610271+9999REMSYN076AAXX  12184 71462 36/64 /1008 10037 39994 40221 56027 333 10037 20012 70000;EQDQ01  00002PRCP24
0083714620999992000112210294+45630-082970SAOSP+0183CWNL V0203201N007219999999N0144841N1-00301+99999999999ADDMW1001OC101231REMAWY057WNL SA 1029 AUTO4 M 9.+ M 118/-03/M/3214+24/M/ 5021 6MMM;
0166714620999992000112700004+45630-082970FM-12+0183CWNL V0200601N002619999999N0100001N1+00261+99999100621ADDAA106001091KA1120M+00351KA2180N+00261MA1999999098391MD1010001+9999REMSYN088AAXX  27004 71462 1//60 /0605 10026 39839 40062 50000 60011 7//4/ 333 10035 20026 70074;
0072714620999992000120701294+45630-082970SAOSP+0183CWNL V0200201N003019999999N0014481N1-00901+99999999999ADDMW1001REMAWY054WNL SA 0129 AUTO4 M 0.9 M 083/-09/M/0206/M/ 3002 2MMM;
0083714620999992000120811294+45630-082970SAOSP+0183CWNL V0200801N004619999999N0144841N1-00801+99999999999ADDMW1001OC100871REMAWY057WNL SA 1129 AUTO4 M 9.+ M 150/-08/M/0809+17/M/ 3007 7MMM;
0072714620999992000121114294+45630-082970SAOSP+0183CWNL V0200501N001019999999N0064371N1-00701+99999999999ADDMW1001REMAWY054WNL SA 1429 AUTO4 M 4.0 M 235/-07/M/0502/M/ 6009 2MMM;
0072714620999992000121120294+45630-082970SAOSP+0183CWNL V0200501N003019999999N0019311N1-00701+99999999999ADDMW1001REMAWY054WNL SA 2029 AUTO4 M 1.2 M 184/-07/M/0506/M/ 6032 6MMM;
0083714620999992000121208294+45630-082970SAOSP+0183CWNL V0203501N005119999999N0144841N1-01301+99999999999ADDMW1001OC101021REMAWY057WNL SA 0829 AUTO4 M 9.+ M 108/-13/M/3510+20/M/ 3023 6MMM;
0083714620999992000121721294+45630-082970SAOSP+0183CWNL V0203101N011319999999N0144841N1-00101+99999999999ADDMW1001OC101641REMAWY057WNL SA 2129 AUTO4 M 9.+ M 981/-01/M/3122+32/M/ 3034 2MMM;
0072714620999992000121821294+45630-082970SAOSP+0183CWNL V0200401N000519999999N0144841N1-00701+99999999999ADDMW1001REMAWY054WNL SA 2129 AUTO4 M 9.+ M 179/-07/M/0401/M/ 3002 5MMM;
0083714620999992000121914294+45630-082970SAOSP+0183CWNL V0200601N005119999999N0012871N1-01201+99999999999ADDMW1001OC100971REMAWY057WNL SA 1429 AUTO4 M 0.8 M 126/-12/M/0610+19/M/ 1005 6MMM;
0071714620999992000122316294+45630-082970SAOSP+0183CWNL V0200701N002019999999N0128751N1-00901+99999999999ADDMW1001REMAWY053WNL SA 1629 AUTO4 M 8. M 301/-09/M/0704/M/ 0002 3MMM;
0083714620999992000122602294+45630-082970SAOSP+0183CWNL V0202701N010819999999N0064371N1-00501+99999999999ADDMW1001OC101381REMAWY057WNL SA 0229 AUTO4 M 4.0 M 343/-05/M/2721+27/M/ 8011 4MMM;
0173714620999992000122800004+45630-082970FM-12+0183CWNL V0203601N003119999999N0140001N1-01451+99999102351ADDAA124000091KA1120M-01181KA2180N-01451MA1999999099991MD1110091+9999REMSYN076AAXX  28004 71462 36/64 /3606 11145 39999 40235 51009 333 11118 21145 70000;EQDQ01  00002PRCP24
0072714620999992000123108294+45630-082970SAOSP+0183CWNL V0200101N003619999999N0144841N1-01001+99999999999ADDMW1001REMAWY054WNL SA 0829 AUTO4 M 9.+ M 190/-10/M/0107/M/ 0000 0MMM;
0071714630999992000010210004+42870-079250SAO  +0184CWPC V0200901N003619999999N9999999N1+00501+00301999999ADDMW1001REMAWY053WPC SA 1000 AUTO4 M M M 155/05/03/0907/M/M 8022 99MM;
0084714630999992000012611004+42870-079250SAO  +0184CWPC V0203301N005619999999N9999999N1-00701-00801999999ADDMW1001OC100871REMAWY058WPC SA 1100 AUTO4 M M M 105/-07/-08/3311+17/M/M M020 14MM;
0256714630999992000020512004+42870-079250SY-SA+0184CWPC V0202701N008219999999N9999999N1-00641-00701101841ADDAA199999999KA1999M-00361KA2999N-01081MA1999999099541MD1510001+9999MW1001REMSYN076AAXX  05124 71463 46/// /2716 11064 21070 39954 40184 55000 333 11036 21108;AWY055WPC SA 1200 AUTO4 M M M 184/-06/-07/2716/M/M 5000 40MM;EQDQ01+000990PRSWM4Q02  99992PRCP99
0073714630999992000020807004+42870-079250SAO  +0184CWPC V0203201N002519999999N9999999N1-01101-01401999999ADDMW1001REMAWY055WPC SA 0700 AUTO4 M M M 321/-11/-14/3205/M/M 1008 69MM;
0073714630999992000021121004+42870-079250SAO  +0184CWPC V0203201N004619999999N9999999N1-00401-00701999999ADDMW1001REMAWY055WPC SA 2100 AUTO4 M M M 180/-04/-07/3209/M/M 3027 32MM;
0070714630999992000022521004+42870-079250SAO  +0184CWPC V0201301N002519999999N9999999N1+00201+99999999999ADDMW1001REMAWY052WPC SA 2100 AUTO4 M M M 234/02/M/1305/M/M 1005 6MMM;
0083714630999992000030211004+42870-079250SAO  +0184CWPC V0202701N012319999999N9999999N1+00001-00301999999ADDMW1001OC101641REMAWY057WPC SA 1100 AUTO4 M M M 117/00/-03/2724+32/M/M 3011 42MM;
0073714630999992000030411004+42870-079250SAO  +0184CWPC V0201401N001519999999N9999999N1-00101-00101999999ADDMW1001REMAWY055WPC SA 1100 AUTO4 M M M 130/-01/-01/1403/M/M 8007 91MM;
0254714630999992000030712004+42870-079250SY-SA+0184CWPC V0201401N003119999999N9999999N1+00271+00051102221ADDAA199999999KA1999M+00361KA2999N+00081MA1999999099961MD1810021+9999MW1001REMSYN076AAXX  07124 71463 46/// /1406 10027 20005 39996 40222 58002 333 10036 20008;AWY053WPC SA 1200 AUTO4 M M M 222/03/00/1406/M/M 8002 74MM;EQDQ01+000990PRSWM4Q02  99992PRCP99
0071714630999992000030909004+42870-079250SAO  +0184CWPC V0202301N004119999999N9999999N1+00701+00501999999ADDMW1001REMAWY053WPC SA 0900 AUTO4 M M M 036/07/05/2308/M/M 6021 66MM;
0081714630999992000030916004+42870-079250SAO  +0184CWPC V0202301N007719999999N9999999N1+00601+99999999999ADDMW1001OC101081REMAWY055WPC SA 1600 AUTO4 M M M 020/06/M/2315+21/M/M 8005 4MMM;
0071714630999992000031609004+42870-079250SAO  +0184CWPC V0202501N003619999999N9999999N1+00701+00701999999ADDMW1001REMAWY053WPC SA 0900 AUTO4 M M M 147/07/07/2507/M/M 3016 76MM;
0071714630999992000032111004+42870-079250SAO  +0184CWPC V0200901N003019999999N9999999N1+00601+00101999999ADDMW1001REMAWY053WPC SA 1100 AUTO4 M M M 265/06/01/0906/M/M 3009 30MM;
0071714630999992000032317004+42870-079250SAO  +0184CWPC V0202201N002519999999N9999999N1+00401+00301999999ADDMW1001REMAWY053WPC SA 1700 AUTO4 M M M 298/04/03/2205/M/M 8012 71MM;
0071714630999992000032503004+42870-079250SAO  +0184CWPC V0200401N002019999999N9999999N1+01101+00701999999ADDMW1001REMAWY053WPC SA 0300 AUTO4 M M M 151/11/07/0404/M/M 8013 95MM;
0071714630999992000040611004+42870-079250SAO  +0184CWPC V0201801N014419999999N9999999N1+00701+00301999999ADDMW1001REMAWY053WPC SA 1100 AUTO4 M M M 945/07/03/1828/M/M 6057 70MM;
0070714630999992000040810004+42870-079250SAO  +0184CWPC V0200201N004119999999N9999999N1+00501+99999999999ADDMW1001REMAWY052WPC SA 1000 AUTO4 M M M 998/05/M/0208/M/M 6018 6MMM;
0084714630999992000040901004+42870-079250SAO  +0184CWPC V0203201N007719999999N9999999N1-00201-00201999999ADDMW1001OC101081REMAWY058WPC SA 0100 AUTO4 M M M 127/-02/-02/3215+21/M/M 1045 68MM;
0071714630999992000041005004+42870-079250SAO  +0184CWPC V0202701N008719999999N9999999N1+00301+00201999999ADDMW1001REMAWY053WPC SA 0500 AUTO4 M M M 131/03/02/2717/M/M 3009 58MM;
0072714630999992000041319004+42870-079250SAO  +0184CWPC V0200901N002019999999N9999999N1+00701-00801999999ADDMW1001REMAWY054WPC SA 1900 AUTO4 M M M 301/07/-08/0904/M/M 6025 45MM;
0254714630999992000041700004+42870-079250SY-SA+0184CWPC V0200201N006219999999N9999999N1+00521+00501102071ADDAA199999999KA1120M+00891KA2999N+00521MA1999999099831MD1310031+9999MW1001REMSYN076AAXX  17004 71463 46/// /0212 10052 20050 39983 40207 53003 333 10089 20052;AWY053WPC SA 0000 AUTO4 M M M 207/05/05/0212/M/M 3003 29MM;EQDQ01+000990PRSWM4Q02  99992PRCP99
0071714630999992000042311004+42870-079250SAO  +0184CWPC V0203201N004619999999N9999999N1+00601+00601999999ADDMW1001REMAWY053WPC SA 1100 AUTO4 M M M 108/06/06/3209/M/M 3009 15MM;
0070714630999992000042405004+42870-079250SAO  +0184CWPC V0202301N004619999999N9999999N1+00601+99999999999ADDMW1001REMAWY052WPC SA 0500 AUTO4 M M M 126/06/M/2309/M/M 6004 5MMM;
0071714630999992000043023004+42870-079250SAO  +0184CWPC V0202301N005119999999N9999999N1+00701+00501999999ADDMW1001REMAWY053WPC SA 2300 AUTO4 M M M 221/07/05/2310/M/M 6011 94MM;
0071714630999992000050315004+42870-079250SAO  +0184CWPC V0202301N001519999999N9999999N1+00801+00501999999ADDMW1001REMAWY053WPC SA 1500 AUTO4 M M M 266/08/05/2303/M/M 1011 00MM;
0071714630999992000050404004+42870-079250SAO  +0184CWPC V0200901N005119999999N9999999N1+01201+00901999999ADDMW1001REMAWY053WPC SA 0400 AUTO4 M M M 219/12/09/0910/M/M 8003 36MM;
0071714630999992000050814004+42870-079250SAO  +0184CWPC V0202301N003619999999N9999999N1+01301+01301999999ADDMW1001REMAWY053WPC SA 1400 AUTO4 M M M 116/13/13/2307/M/M 0004 29MM;
0247714630999992000051006004+42870-079250SY-SA+0184CWPC V0202301N005119999999N9999999N1+01201+99999100471ADDAA199999999KA1240M+01911KA2999N+01141MA1999999098281MD1310121+9999MW1001REMSYN070AAXX  10064 71463 46/// /2310 10121 39828 40047 53012 333 10191 20114;AWY052WPC SA 0600 AUTO4 M M M 047/12/M/2310/M/M 3012 1MMM;EQDQ01+000990PRSWM4Q02  99992PRCP99
0070714630999992000051009004+42870-079250SAO  +0184CWPC V0201801N007219999999N9999999N1+01201+99999999999ADDMW1001REMAWY052WPC SA 0900 AUTO4 M M M 035/12/M/1814/M/M 8010 2MMM;
0082714630999992000051417004+42870-079250SAO  +0184CWPC V0202301N014419999999N9999999N1+01001+00801999999ADDMW1001OC101691REMAWY056WPC SA 1700 AUTO4 M M M 164/10/08/2328+33/M/M 1004 56MM;
0071714630999992000051717004+42870-079250SAO  +0184CWPC V0209999C000019999999N9999999N1+01701+00601999999ADDMW1001REMAWY053WPC SA 1700 AUTO4 M M M 169/17/06/0000/M/M 8016 43MM;
0082714630999992000060223004+42870-079250SAO  +0184CWPC V0202701N009719999999N9999999N1+02001+01401999999ADDMW1001OC101281REMAWY056WPC SA 2300 AUTO4 M M M 133/20/14/2719+25/M/M 3020 76MM;
0071714630999992000060803004+42870-079250SAO  +0184CWPC V0202301N004619999999N9999999N1+01401+01401999999ADDMW1001REMAWY053WPC SA 0300 AUTO4 M M M 192/14/14/2309/M/M 3002 87MM;
0071714630999992000061020004+42870-079250SAO  +0184CWPC V0202301N005619999999N9999999N1+01701+01601999999ADDMW1001REMAWY053WPC SA 2000 AUTO4 M M M 155/17/16/2311/M/M 8011 32MM;
0070714630999992000061310004+42870-079250SAO  +0184CWPC V0200201N004619999999N9999999N1+01601+99999999999ADDMW1001REMAWY052WPC SA 1000 AUTO4 M M M 157/16/M/0209/M/M 6018 5MMM;
0070714630999992000061903004+42860-079250SAO  +0184CWPC V0201001N001519999999N9999999N1+01201+99999999999ADDMW1001REMAWY052WPC SA 0300 AUTO4 M M M 218/12/M/1003/M/M 1009 4MMM;
0254714630999992000061918004+42860-079250SY-SA+0184CWPC V0202101N005719999999N9999999N1+01531+01461102331ADDAA199999999KA1120M+01531KA2999N+01171MA1999999100121MD1810021+9999MW1001REMSYN076AAXX  19184 71463 46/// /2111 10153 20146 30012 40233 58002 333 10153 20117;AWY053WPC SA 1800 AUTO4 M M M 233/15/15/2111/M/M 8002 35MM;EQDQ01+000990PRSWM4Q02  99992PRCP99
0071714630999992000062905004+42860-079250SAO  +0184CWPC V0203201N001519999999N9999999N1+01801+01701999999ADDMW1001REMAWY053WPC SA 0500 AUTO4 M M M 131/18/17/3203/M/M 6009 32MM;
0254714630999992000063000004+42860-079250SY-SA+0184CWPC V0203201N003119999999N9999999N1+01761+01601101061ADDAA199999999KA1120M+01801KA2999N+01531MA1999999098881MD1310091+9999MW1001REMSYN076AAXX  30004 71463 46/// /3206 10176 20160 39888 40106 53009 333 10180 20153;AWY053WPC SA 0000 AUTO4 M M M 106/18/16/3206/M/M 3009 60MM;EQDQ01+000990PRSWM4Q02  99992PRCP99
0082714630999992000063004004+42860-079250SAO  +0184CWPC V0202701N007719999999N9999999N1+01601+01501999999ADDMW1001OC101081REMAWY056WPC SA 0400 AUTO4 M M M 111/16/15/2715+21/M/M 1007 29MM;
0071714630999992000070819004+42860-079250SAO  +0184CWPC V0202301N007219999999N9999999N1+01901+01301999999ADDMW1001REMAWY053WPC SA 1900 AUTO4 M M M 216/19/13/2314/M/M 6016 47MM;
0254714630999992000071312004+42860-079250SY-SA+0184CWPC V0201401N003119999999N9999999N1+01901+01681101571ADDAA199999999KA1999M+02391KA2999N+01841MA1999999099401MD1810021+9999MW1001REMSYN076AAXX  13124 71463 46/// /1406 10190 20168 39940 40157 58002 333 10239 20184;AWY053WPC SA 1200 AUTO4 M M M 157/19/17/1406/M/M 8002 08MM;EQDQ01+000990PRSWM4Q02  99992PRCP99
0071714630999992000071704004+42860-079250SAO  +0184CWPC V0202301N006119999999N9999999N1+02101+02001999999ADDMW1001REMAWY053WPC SA 0400 AUTO4 M M M 114/21/20/2312/M/M 1013 53MM;
0071714630999992000071705004+42860-079250SAO  +0184CWPC V0202301N004619999999N9999999N1+02101+02001999999ADDMW1001REMAWY053WPC SA 0500 AUTO4 M M M 112/21/20/2309/M/M 0005 53MM;
0071714630999992000072701004+42860-079250SAO  +0184CWPC V0203601N003619999999N9999999N1+02401+02201999999ADDMW1001REMAWY053WPC SA 0100 AUTO4 M M M 199/24/22/3607/M/M 5002 07MM;
0070714630999992000080313004+42860-079250SAO  +0184CWPC V0203101N002519999999N9999999N1+02001+99999999999ADDMW1001REMAWY052WPC SA 1300 AUTO4 M M M 141/20/M/3105/M/M 1015 3MMM;
0071714630999992000080322004+42860-079250SAO  +0184CWPC V0202301N006119999999N9999999N1+02101+01701999999ADDMW1001REMAWY053WPC SA 2200 AUTO4 M M M 152/21/17/2312/M/M 6005 80MM;
0071714630999992000080402004+42860-079250SAO  +0184CWPC V0200101N005619999999N9999999N1+01801+01601999999ADDMW1001REMAWY053WPC SA 0200 AUTO4 M M M 175/18/16/0111/M/M 3020 94MM;
0071714630999992000082911004+42860-079250SAO  +0184CWPC V0201801N008219999999N9999999N1+02201+02101999999ADDMW1001REMAWY053WPC SA 1100 AUTO4 M M M 195/22/21/1816/M/M 3006 96MM;
0071714630999992000083113004+42860-079250SAO  +0184CWPC V0201401N004119999999N9999999N1+02201+02001999999ADDMW1001REMAWY053WPC SA 1300 AUTO4 M M M 212/22/20/1408/M/M 3018 94MM;
0071714630999992000083114004+42860-079250SAO  +0184CWPC V0201301N003019999999N9999999N1+02201+02101999999ADDMW1001REMAWY053WPC SA 1400 AUTO4 M M M 214/22/21/1306/M/M 1016 16MM;
0082714630999992000091214004+42860-079250SAO  +0184CWPC V0201801N010819999999N9999999N1+02201+02201999999ADDMW1001OC101331REMAWY056WPC SA 1400 AUTO4 M M M 087/22/22/1821+26/M/M 8018 18MM;
0254714630999992000091312004+42860-079250SY-SA+0184CWPC V0203101N003619999999N9999999N1+01391+00921101871ADDAA199999999KA1999M+02301KA2999N+01261MA1999999099671MD1310161+9999MW1001REMSYN076AAXX  13124 71463 46/// /3107 10139 20092 39967 40187 53016 333 10230 20126;AWY053WPC SA 1200 AUTO4 M M M 187/14/09/3107/M/M 3016 92MM;EQDQ01+000990PRSWM4Q02  99992PRCP99
0082714630999992000091615004+42860-079250SAO  +0184CWPC V0203101N006619999999N9999999N1+01201+00401999999ADDMW1001OC100921REMAWY056WPC SA 1500 AUTO4 M M M 152/12/04/3113+18/M/M 1011 66MM;
0071714630999992000092015004+42860-079250SAO  +0184CWPC V0201801N010819999999N9999999N1+02201+01501999999ADDMW1001REMAWY053WPC SA 1500 AUTO4 M M M 065/22/15/1821/M/M 8009 68MM;
0071714630999992000092223004+42860-079250SAO  +0184CWPC V0200101N008219999999N9999999N1+01401+00701999999ADDMW1001REMAWY053WPC SA 2300 AUTO4 M M M 185/14/07/0116/M/M 6013 09MM;
0074714630999992000092808004+42860-079250SAO  +0184CWPC V02099999999999999999N9999999N1+00801+00401999999ADDMW1001REMAWY056WPC SA 0800 AUTO4 M M M 238/08/04/MM15+20/M/M 1017 84MM;
