0054724070937302000120707009+39450-074567NSRDB+001899999V020999999999999999999999999999+99999+99999999999ADDGP10060000002000000002000000002000GR100600000900009
036672407093730200012071454C+39450-074567FM-15+0018ACY  V0202805N00675220005MN0160005N1+00115-00675101235ADDAA101000095AA203000021GF100991999999999999999999MA1101225999999MD1010051+9999MW1001OC101081REMMET093KACY 071454Z AUTO 28013G21KT 10SM CLR 01/M07 A2989 RMK AO2 SLP123 60000 T00111067 50005 TSNO;EQDQ01+000000PRSWM2N01 00000JPWTH 0QNNAA1D0 00000BA1 0 00000GA1U0 99999KA1D0 00020JA1 0-00067LA1 0 01000CA1 0 02989NA1 0 00000QA1 0 10123SA1D0 00034RA1 0 00011YA1 0 28013
0054724070937302000121003009+39450-074567NSRDB+001899999V020999999999999999999999999999+99999+99999999999ADDGP10060000002000000002000000002000GR100600000900009
0054724070937302000121208009+39450-074567NSRDB+001899999V020999999999999999999999999999+99999+99999999999ADDGP10060000002000000002000000002000GR100600000900009
033772407093730200012150254C+39450-074567FM-15+0018ACY  V0202905N00365220005MN0160005N1+00175+00065102645ADDAA101000095GF100991999999999999999999MA1102645999999MD1310211+9999MW1001REMMET083KACY 150254Z AUTO 29007KT 10SM CLR 02/01 A3031 RMK AO2 SLP264 T00170006 53021 TSNO;EQDQ01+000000PRSWM2N01 00000JPWTH 0QNNAA1D0 00000BA1 0 00000GA1U0 99999KA1D0 00033JA1 0 00006LA1 0 01000CA1 0 03031NA1 0 00000QA1 0 10264SA1D0 00035RA1 0 00017YA1 0 29007
0071724070937302000121522009+39450-074567NSRDB+001899999V020999999999999999999999999999+99999+99999999999ADDGP10060000002009000002021000002009GQ100600875923709GR100600035908129
0054724070937302000121603009+39450-074567NSRDB+001899999V020999999999999999999999999999+99999+99999999999ADDGP10060000002000000002000000002000GR100600000900009
0270724070937302000121717404+39440-074560FM-16+0020KACY V0202601N00571002401CN0096561N1+01401+01301999999ADDGD12991+0015019GD23991+0027019GD34991+0081019GF108991999999999999999999MA1099591999999MW1101MW2631REMMET125KACY 171740Z 26011KT 6SM RA BR SCT005 BKN009 OVC027 14/13 A2941 RMK AO2 PK WND 19028/1657 WSHFT 1718 RAB22 CIG 008V011 P0009;EQDQ01+000003PRSWM1Q02    003PRSWM1
030772407093730200012172154C+39450-074567FM-15+0018ACY  V0202505N00675220005MN0160005N1+01065+00675099325ADDAA101000095GF100991999999999999999999MA1099325999999MW1001REMMET067KACY 172154Z 25013KT 10SM CLR 11/07 A2933 RMK AO2 SLP932 T01060067;EQDQ01+000000PRSWM2N01 00000JPWTH 0QNNAA1D0 00000BA1 0 00000GA1U0 99999KA1D0 00044JA1 0 00067LA1 0 01000CA1 0 02933NA1 0 00000QA1 0 09932SA1D0 00051RA1 0 00106YA1 0 25013
0071724070937302000122121009+39450-074567NSRDB+001899999V020999999999999999999999999999+99999+99999999999ADDGP10060009802009018402021006702009GQ100600802922829GR100600242914149
0071724070937302000122413009+39450-074567NSRDB+001899999V020999999999999999999999999999+99999+99999999999ADDGP10060000402009001702021000302009GQ100600869912389GR100600053909789
032172407093730200012270954C+39450-074567FM-15+0018ACY  V0202705N00465220005MN0160005N1-00675-01335102215ADDAA101000095GF100991999999999999999999MA1102205999999MW1001REMMET081KACY 270954Z AUTO 27009KT 10SM CLR M07/M13 A3018 RMK AO2 SLP221 T10671133 TSNO $;EQDQ01+000000PRSWM2N01 00000JPWTH 0QNNAA1D0 00000BA1 0 00000GA1U0 99999KA1D0 00008JA1 0-00133LA1 0 01000CA1 0 03018NA1 0 00000QA1 0 10221SA1D0 00020RA1 0-00067YA1 0 27009
031972407093730200012290654C+39450-074567FM-15+0018ACY  V0203505N00365220005MN0160005N1-00895-01335101505ADDAA101000095GF100991999999999999999999MA1101495999999MW1001REMMET079KACY 290654Z AUTO 35007KT 10SM CLR M09/M13 A2997 RMK AO2 SLP150 T10891133 TSNO;EQDQ01+000000PRSWM2N01 00000JPWTH 0QNNAA1D0 00000BA1 0 00000GA1U0 99999KA1D0 00008JA1 0-00133LA1 0 01000CA1 0 02997NA1 0 00000QA1 0 10150SA1D0 00016RA1 0-00089YA1 0 35007
0230724070937302000123020404+39440-074560FM-16+0020KACY V0202801N007210039019N0028161N1-00201-00201999999ADDGD13991+0039019GD23991+0063019GD34991+0099019GF108991999999999999999999MA1100101999999MW1101MW2711REMMET085KACY 302040Z 28014KT 1 3/4SM -SN BR BKN013 BKN021 OVC033 M02/M02 A2956 RMK AO2 P0000;EQDQ01+000003PRSWM1Q02    003PRSWM1
0071724074999992000010115009+39933-074833NSRDB+001699999V020999999999999999999999999999+99999+99999999999ADDGP10060016002009005602021014302009GQ100600724914349GR100600429914159
0171724074999992000010305544+39930-074830FM-15+0016KVAY V0202201N003112200019N0160931N1+01401+01101999999ADDGF100991999999999999999999MA1101661999999MD1810031+9999MW1001REMMET079KVAY 030554Z AUTO 22006KT 10SM CLR 14/11 A3002 RMK AO2 SLPNO T01390106 58003 $;EQDQ01+000000PRSWM2
0054724074999992000010307009+39933-074833NSRDB+001699999V020999999999999999999999999999+99999+99999999999ADDGP10060000002000000002000000002000GR100600000900009
0258724074999992000010500544+39930-074830FM-15+0016KVAY V0202801N003610132019N0064371N1+01101+00901100531ADDAA101003891GD12991+0063019GD23991+0132019GD34991+0150019GF108991999999999999999999MA1100541999999MW1101MW2631REMMET102KVAY 050054Z AUTO 28007KT 4SM RA BR FEW021 BKN044 OVC050 11/09 A2969 RMK AO2 SLP053 P0015 T01060094 $;EQDQ01+000003PRSWM1Q02    003PRSWM1
0153724074999992000010819544+39930-074830FM-15+0016KVAY V0202401N002612200019N0160931N1+00401-00801102571ADDGF100991999999999999999999MA1102571999999MW1001REMMET075KVAY 081954Z AUTO 24005KT 10SM CLR 04/M08 A3029 RMK AO2 SLP257 T00441078 $;EQDQ01+000000PRSWM2
0162724074999992000011113544+39930-074830FM-15+0016KVAY V0202201N005112200019N0160931N1+01001-00101100251ADDGF100991999999999999999999MA1100271999999MW1001OC101031REMMET076KVAY 111354Z AUTO 22010G20KT 10SM CLR 10/M01 A2961 RMK AO2 SLP025 T01001006;EQDQ01+000000PRSWM2
0071724074999992000011218009+39933-074833NSRDB+001699999V020999999999999999999999999999+99999+99999999999ADDGP10060047002009082602021008002009GQ100600619918599GR100600666914149
0276724074999992000011320544+39930-074830FM-15+0016KVAY V0203401N008710066019N0160931N1+00201-00201101021ADDAA103000021GD12991+0054019GD23991+0066019GD33991+0087019GF107991999999999999999999MA1101021999999MD1310601+9999MW1001OC101131REMMET120KVAY 132054Z AUTO 34017G22KT 10SM SCT018 BKN022 BKN029 02/M02 A2983 RMK AO2 RAE1955 SLP102 60000 T00171022 53060 FZRANO;EQDQ01+000000PRSWM2
0071724074999992000011420009+39933-074833NSRDB+001699999V020999999999999999999999999999+99999+99999999999ADDGP10060032102009073002021006602009GQ100600696921519GR100600492914149
0054724074999992000011702009+39933-074833NSRDB+001699999V020999999999999999999999999999+99999+99999999999ADDGP10060000002000000002000000002000GR100600000900009
0054724074999992000011912009+39933-074833NSRDB+001699999V020999999999999999999999999999+99999+99999999999ADDGP10060000002000000002000000002000GR100600000900009
0154724074999992000013000544+39930-074830FM-15+0016KVAY V0209999C000012200019N0160931N1-00801-01401103391ADDGF100991999999999999999999MA1103391999999MW1001REMMET076KVAY 300054Z AUTO 00000KT 10SM CLR M08/M14 A3053 RMK AO2 SLP339 T10781144 $;EQDQ01+000000PRSWM2
0054724074999992000013009009+39933-074833NSRDB+001699999V020999999999999999999999999999+99999+99999999999ADDGP10060000002000000002000000002000GR100600000900009
0054724074999992000020212009+39933-074833NSRDB+001699999V020999999999999999999999999999+99999+99999999999ADDGP10060000002000000002000000002000GR100600000900009
0054724074999992000020301009+39933-074833NSRDB+001699999V020999999999999999999999999999+99999+99999999999ADDGP10060000002000000002000000002000GR100600000900009
0245724074999992000020423544+39930-074830FM-15+0016KVAY V0209999C000010057019N0080461N1+00001-00201101291ADDGD14991+0057019GF108991999999999999999999KA1999M+00111KA2999N-00061MA1101291999999MD1310161+9999MW1101REMMET096KVAY 042354Z AUTO 00000KT 5SM BR OVC019 00/M02 A2991 RMK AO2 SLP129 T00001022 10011 21006 53016;EQDQ01+000003PRSWM1Q02    003PRSWM1
0152724074999992000020610544+39930-074830FM-15+0016KVAY V0202801N004112200019N0160931N1-00101-00901102331ADDGF100991999999999999999999MA1102341999999MW1001REMMET074KVAY 061054Z AUTO 28008KT 10SM CLR M01/M09 A3022 RMK AO2 SLP233 T10111094;EQDQ01+000000PRSWM2
0152724074999992000020818544+39930-074830FM-15+0016KVAY V0209999C000012200019N0160931N1-00101-01601103401ADDGF100991999999999999999999MA1103421999999MW1001REMMET074KVAY 081854Z AUTO 00000KT 10SM CLR M01/M16 A3054 RMK AO2 SLP340 T10111161;EQDQ01+000000PRSWM2
0071724074999992000020821009+39933-074833NSRDB+001699999V020999999999999999999999999999+99999+99999999999ADDGP10060028502009065002021007702009GQ100600714923039GR100600447914069
0171724074999992000020920544+39930-074830FM-15+0016KVAY V0202201N002612200019N0160931N1+00801-00101101841ADDGF100991999999999999999999MA1101831999999MD1610341+9999MW1001REMMET079KVAY 092054Z AUTO 22005KT 10SM CLR 08/M01 A3007 RMK AO2 SLP184 T00831011 56034;EQDQ01+000000PRSWM2
0071724074999992000021221009+39933-074833NSRDB+001699999V020999999999999999999999999999+99999+99999999999ADDGP10060025602009038702021012602009GQ100600704923119GR100600470914049
0190724074999992000021422544+39930-074830FM-15+0016KVAY V0202501N002612200019N0160931N1+01101+00701100341ADDGD12991+0240019GD22991+0330019GF104991999999999999999999MA1100341999999MW1001REMMET082KVAY 142254Z AUTO 25005KT 10SM FEW085 SCT110 11/07 A2963 RMK AO2 SLP034 T01060072;EQDQ01+000000PRSWM2
0054724074999992000021500009+39933-074833NSRDB+001699999V020999999999999999999999999999+99999+99999999999ADDGP10060000002000000002000000002000GR100600000900009
0054724074999992000021807009+39933-074833NSRDB+001699999V020999999999999999999999999999+99999+99999999999ADDGP10060000002000000002000000002000GR100600000900009
0054724074999992000021906009+39933-074833NSRDB+001699999V020999999999999999999999999999+99999+99999999999ADDGP10060000002000000002000000002000GR100600000900009
0054724074999992000021908009+39933-074833NSRDB+001699999V020999999999999999999999999999+99999+99999999999ADDGP10060000002000000002000000002000GR100600000900009
0226724074999992000021923544+39930-074830FM-15+0016KVAY V0209999C000010072019N0144841N1+00101-00101101851ADDGD14991+0072019GF108991999999999999999999KA1999M+00221KA2999N+00061MA1101861999999MD1110291+9999MW1001REMMET093KVAY 192354Z AUTO 00000KT 9SM OVC024 01/M01 A3008 RMK AO2 SLP185 T00111011 10022 20006 51029;EQDQ01+000000PRSWM2
0054724074999992000022409009+39933-074833NSRDB+001699999V020999999999999999999999999999+99999+99999999999ADDGP10060000002000000002000000002000GR100600000900009
0054724074999992000022810009+39933-074833NSRDB+001699999V020999999999999999999999999999+99999+99999999999ADDGP10060000002000000002000000002000GR100600000900009
0071724074999992000022814009+39933-074833NSRDB+001699999V020999999999999999999999999999+99999+99999999999ADDGP10060032502008055702015013502008GQ100600701911999GR100600473913949
0168724074999992000030203544+39930-074830FM-15+0016KVAY V0209999C000010270019N0160931N1+00801+00301100831ADDGD14991+0270019GF108991999999999999999999MA1100851999999MW1001REMMET075KVAY 020354Z AUTO 00000KT 10SM OVC095 08/03 A2978 RMK AO2 SLP083 T00780028;EQDQ01+000000PRSWM2
0054724074999992000030209009+39933-074833NSRDB+001699999V020999999999999999999999999999+99999+99999999999ADDGP10060000002000000002000000002000GR100600000900009
0240724074999992000030323544+39930-074830FM-15+0016KVAY V0203201N006712200019N0160931N1+00801-01501100931ADDGD12991+0330019GF104991999999999999999999KA1999M+01061KA2999N+00781MA1100951999999MD1310141+9999MW1001OC100981REMMET099KVAY 032354Z AUTO 32013G19KT 10SM SCT110 08/M15 A2981 RMK AO2 SLP093 T00781150 10106 20078 53014 $;EQDQ01+000000PRSWM2
0229724074999992000031121544+39930-074830FM-15+0016KVAY V0203601N003610012019N0040231N1+00701+00701101161ADDAA101000021GD14991+0012019GF108991999999999999999999MA1101191999999MW1101MW2611REMMET103KVAY 112154Z AUTO 36007KT 2 1/2SM -RA BR OVC004 07/07 A2988 RMK AO2 RAB07E19B50 SLP116 P0000 T00720072;EQDQ01+000003PRSWM1Q02    003PRSWM1
0071724074999992000031414009+39933-074833NSRDB+001699999V020999999999999999999999999999+99999+99999999999ADDGP10060040102008067902015011702008GQ100600653911639GR100600577913839
0054724074999992000031509009+39933-074833NSRDB+001699999V020999999999999999999999999999+99999+99999999999ADDGP10060000002000000002000000002000GR100600000900009
0054724074999992000031601009+39933-074833NSRDB+001699999V020999999999999999999999999999+99999+99999999999ADDGP10060000002000000002000000002000GR100600000900009
0054724074999992000031904009+39933-074833NSRDB+001699999V020999999999999999999999999999+99999+99999999999ADDGP10060000002000000002000000002000GR100600000900009
0071724074999992000032017009+39933-074833NSRDB+001699999V020999999999999999999999999999+99999+99999999999ADDGP10060044502008009602015037202008GQ100600408916609GR100601043913789
0054724074999992000032301009+39933-074833NSRDB+001699999V020999999999999999999999999999+99999+99999999999ADDGP10060000002000000002000000002000GR100600000900009
0150724074999992000032318544+39930-074830FM-15+0016KVAY V0200301N003612200019N0160931N1+01601+00501102481ADDGF100991999999999999999999MA1102511999999MW1001REMMET072KVAY 231854Z AUTO 03007KT 10SM CLR 16/05 A3027 RMK AO2 SLP248 T01560050;EQDQ01+000000PRSWM2
0150724074999992000032501544+39930-074830FM-15+0016KVAY V0201901N001512200019N0160931N1+01101+00101102081ADDGF100991999999999999999999MA1102101999999MW1001REMMET072KVAY 250154Z AUTO 19003KT 10SM CLR 11/01 A3015 RMK AO2 SLP208 T01060006;EQDQ01+000000PRSWM2
0151724074999992000032707544+39930-074830FM-15+0016KVAY V0209999C000012200019N0160931N1+00201-00201100781ADDGF100991999999999999999999MA1100781999999MW1001REMMET073KVAY 270754Z AUTO 00000KT 10SM CLR 02/M02 A2976 RMK AO2 SLP078 T00221017;EQDQ01+000000PRSWM2
0180724074999992000040211544+39930-074830FM-15+0016KVAY V0201901N003119999999N0160931N1+01201+00401101991ADDKA1999M+01171KA2999N+00611MA1102001999999MD1810071+9999MW1001REMMET088KVAY 021154Z AUTO 19006KT 10SM 12/04 A3012 RMK AO2 SLP199 T01170039 10117 20061 58007 $;EQDQ01+000000PRSWM2
0181724074999992000040218544+39930-074830FM-15+0016KVAY V0202201N003610210019N0160931N1+01801+00701101631ADDGD13991+0210019GF107991999999999999999999MA1101631999999MW1001OC100721REMMET080KVAY 021854Z AUTO 22007G14KT 10SM BKN070 18/07 A3001 RMK AO2 SLP163 T01830072 $;EQDQ01+000000PRSWM2
0288724074999992000040305544+39930-074830FM-15+0016KVAY V0202001N001510063019N0144841N1+01401+01201101491ADDAA106000021GD13991+0063019GD23991+0150019GD34991+0300019GF108991999999999999999999KA1999M+01671KA2999N+01391MA1101491999999MD1810121+9999MW1001REMMET114KVAY 030554Z AUTO 20003KT 9SM BKN021 BKN050 OVC100 14/12 A2997 RMK AO2 SLP149 60000 T01440122 10167 20139 58012 $;EQDQ01+000000PRSWM2
0287724074999992000040423544+39930-074830FM-15+0016KVAY V0209999V002610270019N0160931N1+01401+00701100031ADDAA106000591GD12991+0147019GD22991+0210019GD34991+0270019GF108991999999999999999999KA1999M+01831KA2999N+01391MA1100031999999MD1110141+9999MW1001REMMET113KVAY 042354Z AUTO VRB05KT 10SM FEW049 SCT075 OVC095 14/07 A2954 RMK AO2 SLP003 60002 T01390067 10183 20139 51014;EQDQ01+000000PRSWM2
0198724074999992000040519544+39930-074830FM-15+0016KVAY V0202901N008710180019N0160931N1+00801-00601100971ADDGD14991+0180019GF108991999999999999999999MA1100981999999MW1001OC101231REMMET097KVAY 051954Z AUTO 29017G24KT 10SM OVC060 08/M06 A2982 RMK AO2 PK WND 26027/1911 SLP097 T00831061;EQDQ01+000000PRSWM2
0071724074999992000040911009+39933-074833NSRDB+001699999V020999999999999999999999999999+99999+99999999999ADDGP10060000002008000002015000002008GQ100600876908169GR100600027906479
0054724074999992000041102009+39933-074833NSRDB+001699999V020999999999999999999999999999+99999+99999999999ADDGP10060000002000000002000000002000GR100600000900009
0259724074999992000041117544+39930-074830FM-15+0016KVAY V0200701N004610135019N0160931N1+01201+00601102371ADDGD12991+0102019GD24991+0135019GF108991999999999999999999KA1999M+01171KA2999N+00501MA1102371999999MD1610391+9999MW1001REMMET111KVAY 111754Z AUTO 07009KT 10SM FEW034 OVC045 12/06 A3023 RMK AO2 SLP237 6//// T01170056 10117 20050 56039 TSNO;EQDQ01+000000PRSWM2
0195724074999992000041615544+39930-074830FM-16+0016KVAY V0202701N002612200019N0096561N1+99999+99999999999ADDGD12991+0021019GD22991+0240019GF104991999999999999999999MA1101421999999MW1001MW2051REMMET081KVAY 161554Z AUTO 27005KT 6SM HZ FEW007 SCT080 A2995 RMK AO2 RAE02 SLPNO P0000 $;EQDQ01+000003PRSWM1
0071724074999992000041616009+39933-074833NSRDB+001699999V020999999999999999999999999999+99999+99999999999ADDGP10060037102008004802015033202008GQ100600357914049GR100601101913569
0209724074999992000041703544+39930-074830FM-15+0016KVAY V0209999C000010360019N0032181N1+01401+01401999999ADDGD12991+0240019GD23991+0360019GF107991999999999999999999MA1101631999999MW1101REMMET085KVAY 170354Z AUTO 00000KT 2SM BR SCT080 BKN120 14/14 A3001 RMK AO2 SLPNO T01440139 $;EQDQ01+000003PRSWM1Q02    003PRSWM1
0344724074999992000041723544+39930-074830FM-15+0016KVAY V0200701N004610048019N0128741N1+00701+00401101861ADDAA101000891AA206001891GD13991+0048019GD24991+0066019GF108991999999999999999999KA1999M+00831KA2999N+00671MA1101861999999MD1710011+9999MW1611OC100871REMMET118KVAY 172354Z AUTO 07009G17KT 8SM -RA BKN016 OVC022 07/04 A3008 RMK AO2 SLP186 P0003 60007 T00670044 10083 20067 56000;EQDQ01+000062APCTENQ02+000002APC3  Q03+000003PRSWM1Q04    003PRSWM1
0261724074999992000041817544+39930-074830FM-15+0016KVAY V0200401N005710045019N0096561N1+00701+00501101671ADDAA106000021GD14991+0045019GF108991999999999999999999KA1999M+00721KA2999N+00561MA1101691999999MD1810041+9999MW1101REMMET101KVAY 181754Z AUTO 04011KT 6SM BR OVC015 07/05 A3003 RMK AO2 SLP167 60000 T00720050 10072 20056 58004;EQDQ01+000003PRSWM1Q02    003PRSWM1
0168724074999992000041915544+39930-074830FM-15+0016KVAY V0200301N005710039019N0160931N1+00901+00701101721ADDGD14991+0039019GF108991999999999999999999MA1101731999999MW1001REMMET075KVAY 191554Z AUTO 03011KT 10SM OVC013 09/07 A3004 RMK AO2 SLP172 T00890067;EQDQ01+000000PRSWM2
0054724074999992000042504009+39933-074833NSRDB+001699999V020999999999999999999999999999+99999+99999999999ADDGP10060000002000000002000000002000GR100600000900009
0054724074999992000042709009+39933-074833NSRDB+001699999V020999999999999999999999999999+99999+99999999999ADDGP10060000002000000002000000002000GR100600000900009
0152724074999992000043006544+39930-074830FM-15+0016KVAY V0202501N001512200019N0160931N1+00801+00601101291ADDGF100991999999999999999999MA1101291999999MW1001REMMET074KVAY 300654Z AUTO 25003KT 10SM CLR 08/06 A2991 RMK AO2 SLP129 T00830056 $;EQDQ01+000000PRSWM2
0071724074999992000043021009+39933-074833NSRDB+001699999V020999999999999999999999999999+99999+99999999999ADDGP10060059002008073902015014002008GQ100600525925759GR100600818913469
0210724074999992000050123544+39930-074830FM-15+0016KVAY V0201601N003112200019N0160931N1+01601+00701101081ADDGF100991999999999999999999KA1999M+02111KA2999N+01611MA1101081999999MD1810131+9999MW1001REMMET092KVAY 012354Z AUTO 16006KT 10SM CLR 16/07 A2985 RMK AO2 SLP108 T01610072 10211 20161 58013 $;EQDQ01+000000PRSWM2
0054724074999992000050405009+39933-074833NSRDB+001699999V020999999999999999999999999999+99999+99999999999ADDGP10060000002000000002000000002000GR100600000900009
0054724074999992000050508009+39933-074833NSRDB+001699999V020999999999999999999999999999+99999+99999999999ADDGP10060000002000000002000000002000GR100600000900009
0150724074999992000050512544+39930-074830FM-15+0016KVAY V0202501N002612200019N0160931N1+01801+01401102091ADDGF100991999999999999999999MA1102101999999MW1001REMMET072KVAY 051254Z AUTO 25005KT 10SM CLR 18/14 A3015 RMK AO2 SLP209 T01830139;EQDQ01+000000PRSWM2
0071724074999992000050610009+39933-074833NSRDB+001699999V020999999999999999999999999999+99999+99999999999ADDGP10060000002008000002015000002008GQ100600896906799GR100600001901239
0054724074999992000050809009+39933-074833NSRDB+001699999V020999999999999999999999999999+99999+99999999999ADDGP10060000002000000002000000002000GR100600000900009
0194724074999992000052112544+39930-074830FM-15+0016KVAY V0200701N00151001201CN0160931N1+01201+01101101811ADDGD14991+0018019GF108991999999999999999999MA1101831999999MW1001REMMET101KVAY 211254Z AUTO 07003KT 10SM OVC006 12/11 A3007 RMK AO2 RAE1158 CIG 004V009 SLP181 T01170111 PNO $;EQDQ01+000000PRSWM2
0071724074999992000052219009+39933-074833NSRDB+001699999V020999999999999999999999999999+99999+99999999999ADDGP10060021702008000002015021702008GQ100600280923249GR100601175913329
0071724074999992000052815009+39933-074833NSRDB+001699999V020999999999999999999999999999+99999+99999999999ADDGP10060058302008026602015036802008GQ100600361910989GR100601072913309
0071724074999992000053016009+39933-074833NSRDB+001699999V020999999999999999999999999999+99999+99999999999ADDGP10060020302008000602015019802008GQ100600259912859GR100601194913299
0170724074999992000060207544+39930-074830FM-15+0016KVAY V0209999C000012200019N0012071N1+01901+01901101591ADDGF100991999999999999999999MA1101591999999MW1101REMMET076KVAY 020754Z AUTO 00000KT 3/4SM BR CLR 19/19 A3000 RMK AO2 SLP159 T01940194;EQDQ01+000003PRSWM1Q02    003PRSWM1
0071724074999992000060222009+39933-074833NSRDB+001699999V020999999999999999999999999999+99999+99999999999ADDGP10060030802008012302015024602008GQ100600595927469GR100600674913289
0168724074999992000060403544+39930-074830FM-15+0016KVAY V0209999C000010180019N0160931N1+01601+01101102101ADDGD14991+0180019GF108991999999999999999999MA1102101999999MW1001REMMET075KVAY 040354Z AUTO 00000KT 10SM OVC065 16/11 A3015 RMK AO2 SLP210 T01560111;EQDQ01+000000PRSWM2
0054724074999992000060408009+39933-074833NSRDB+001699999V020999999999999999999999999999+99999+99999999999ADDGP10060000002000000002000000002000GR100600000900009
0190724074999992000060818544+39930-074830FM-15+0016KVAY V0202301N005110300019N0160931N1+02801+01301101821ADDGD12991+0210019GD23991+0300019GF107991999999999999999999MA1101831999999MW1001REMMET082KVAY 081854Z AUTO 23010KT 10SM SCT070 BKN100 28/13 A3007 RMK AO2 SLP182 T02780128;EQDQ01+000000PRSWM2
0071724074999992000060917009+39933-074833NSRDB+001699999V020999999999999999999999999999+99999+99999999999ADDGP10060092002008070302015025202008GQ100600183915899GR100601258913259
0151724074999992000061121544+39930-074830FM-15+0016KVAY V0202401N006212200019N0112651N1+03401+01901101511ADDGF100991999999999999999999MA1101521999999MW1001REMMET073KVAY 112154Z AUTO 24012KT 7SM CLR 34/19 A2998 RMK AO2 SLP151 T03390189 $;EQDQ01+000000PRSWM2
0071724074999992000061801009+39933-074833NSRDB+001699999V020999999999999999999999999999+99999+99999999999ADDGP10060000002008000002015000002008GQ100600878929949GR100600024906289
0054724074999992000061806009+39933-074833NSRDB+001699999V020999999999999999999999999999+99999+99999999999ADDGP10060000002000000002000000002000GR100600000900009
0231724074999992000061903544+39920-074820FM-15+0016KVAY V0209999C000010060019N0080461N1+02201+02201101691ADDAA101000391GD13991+0060019GD23991+0081019GF107991999999999999999999MA1101691999999MW1101REMMET096KVAY 190354Z AUTO 00000KT 5SM BR BKN020 BKN027 22/22 A3003 RMK AO2 RAE50 SLP169 P0001 T02170217;EQDQ01+000003PRSWM1Q02    003PRSWM1
0071724074999992000061913009+39933-074833NSRDB+001699999V020999999999999999999999999999+99999+99999999999ADDGP10060008702008000002015008702008GQ100600585908469GR100600690913239
0205724074999992000061914544+39920-074820FM-15+0016KVAY V0203301N003610036019N0160931N1+01901+01701102101ADDAA103000391GD14991+0036019GF108991999999999999999999MA1102101999999MD1110121+9999MW1001REMMET087KVAY 191454Z AUTO 33007KT 10SM OVC012 19/17 A3015 RMK AO2 SLP210 60001 T01940172 51012;EQDQ01+000000PRSWM2
0149724074999992000062303544+39920-074820FM-15+0016KVAY V0202201N001512200019N0144841N1+02201+01901100991ADDGF100991999999999999999999MA1101021999999MW1001REMMET071KVAY 230354Z AUTO 22003KT 9SM CLR 22/19 A2983 RMK AO2 SLP099 T02220189;EQDQ01+000000PRSWM2
0054724074999992000062503009+39933-074833NSRDB+001699999V020999999999999999999999999999+99999+99999999999ADDGP10060000002000000002000000002000GR100600000900009
0071724074999992000062718009+39933-074833NSRDB+001699999V020999999999999999999999999999+99999+99999999999ADDGP10060087202008060002015030002008GQ100600180920069GR100601257913229
0071724074999992000062923009+39933-074833NSRDB+001699999V020999999999999999999999999999+99999+99999999999ADDGP10060010702008000002015010702008GQ100600692928349GR100600468913219
0054724074999992000063008009+39933-074833NSRDB+001699999V020999999999999999999999999999+99999+99999999999ADDGP10060000002000000002000000002000GR100600000900009
0168724074999992000070610544+39920-074820FM-15+0016KVAY V0200101N002110240019N0160931N1+01701+01301101251ADDGD13991+0240019GF107991999999999999999999MA1101251999999MW1001REMMET075KVAY 061054Z AUTO 01004KT 10SM BKN080 17/13 A2990 RMK AO2 SLP125 T01670128;EQDQ01+000000PRSWM2
0170724074999992000070702544+39920-074820FM-15+0016KVAY V0209999C000012200019N0160931N1+01801+01501101301ADDGF100991999999999999999999MA1101321999999MD1310111+9999MW1001REMMET078KVAY 070254Z AUTO 00000KT 10SM CLR 18/15 A2992 RMK AO2 SLP130 T01780150 53011;EQDQ01+000000PRSWM2
0150724074999992000070722544+39920-074820FM-15+0016KVAY V0203601N006712200019N0160931N1+02401+00801101621ADDGF100991999999999999999999MA1101631999999MW1001REMMET072KVAY 072254Z AUTO 36013KT 10SM CLR 24/08 A3001 RMK AO2 SLP162 T02390078;EQDQ01+000000PRSWM2
0199724074999992000070920544+39920-074820FM-15+0016KVAY V0202401N004612200019N0160931N1+03001+01701101281ADDGD12991+0150019GF104991999999999999999999MA1101291999999MD1610171+9999MW1001OC100981REMMET084KVAY 092054Z AUTO 24009G19KT 10SM SCT055 30/17 A2991 RMK AO2 SLP128 T03000172 56017;EQDQ01+000000PRSWM2
0194724074999992000071501544+39920-074820FM-15+0016KVAY V0209999V003112200019N0160931N1+02101+01801100911ADDAA101000021GD12991+0360019GF104991999999999999999999MA1100911999999MW1001REMMET090KVAY 150154Z AUTO VRB06KT 10SM SCT120 21/18 A2980 RMK AO2 RAB34E47 SLP091 P0000 T02060183;EQDQ01+000000PRSWM2
0054724074999992000071503009+39933-074833NSRDB+001699999V020999999999999999999999999999+99999+99999999999ADDGP10060000002000000002000000002000GR100600000900009
0071724074999992000071613009+39933-074833NSRDB+001699999V020999999999999999999999999999+99999+99999999999ADDGP10060024402008005602015021702008GQ100600606908599GR100600648913229
0071724074999992000071619009+39933-074833NSRDB+001699999V020999999999999999999999999999+99999+99999999999ADDGP10060013502008000002015013502008GQ100600261922969GR100601186913229
0071724074999992000072113009+39933-074833NSRDB+001699999V020999999999999999999999999999+99999+99999999999ADDGP10060038202008047702015015202008GQ100600612908679GR100600637913239
0168724074999992000072222544+39920-074820FM-15+0016KVAY V0202901N002612200019N0160931N1+02601+01201101571ADDGD12991+0270019GF104991999999999999999999MA1101591999999MW1001REMMET075KVAY 222254Z AUTO 29005KT 10SM SCT095 26/12 A3000 RMK AO2 SLP157 T02610117;EQDQ01+000000PRSWM2
0071724074999992000072615009+39933-074833NSRDB+001699999V020999999999999999999999999999+99999+99999999999ADDGP10060018302008000002015018302008GQ100600392911049GR100601024913249
0054724074999992000073104009+39933-074833NSRDB+001699999V020999999999999999999999999999+99999+99999999999ADDGP10060000002000000002000000002000GR100600000900009
0071724074999992000080100009+39933-074833NSRDB+001699999V020999999999999999999999999999+99999+99999999999ADDGP10060001102008000002015001102008GQ100600829928779GR100600164913269
0234724074999992000080122544+39920-074820FM-15+0016KVAY V0209999V001512200019N0080461N1+02801+02401101521ADDAA101000021GD12991+0111019GD22991+0240019GF104991999999999999999999MA1101521999999MW1051REMMET099KVAY 012254Z AUTO VRB03KT 5SM HZ FEW037 SCT080 28/24 A2998 RMK AO2 RAB30E41 SLP152 P0000 T02780239;EQDQ01+000003PRSWM1Q02    003PRSWM1
0054724074999992000080309009+39933-074833NSRDB+001699999V020999999999999999999999999999+99999+99999999999ADDGP10060000002000000002000000002000GR100600000900009
0071724074999992000080315009+39933-074833NSRDB+001699999V020999999999999999999999999999+99999+99999999999ADDGP10060020202008000602015019702008GQ100600405911289GR100601008913279
0238724074999992000080400544+39920-074820FM-15+0016KVAY V0209999C000012200019N0096561N1+02201+02101101451ADDAA101003091GD12991+0099019GF102991999999999999999999MA1101461999999MW1101REMMET118KVAY 040054Z AUTO 00000KT 6SM BR FEW033 22/21 A2996 RMK AO2 LTG DSNT N AND NE TSE07B12E27RAE27 SLP145 P0012 T02170211;EQDQ01+000003PRSWM1Q02    003PRSWM1
0150724074999992000080612544+39920-074820FM-15+0016KVAY V0209999V001512200019N0160931N1+02201+01701101831ADDGF100991999999999999999999MA1101831999999MW1001REMMET072KVAY 061254Z AUTO VRB03KT 10SM CLR 22/17 A3007 RMK AO2 SLP183 T02170167;EQDQ01+000000PRSWM2
0054724074999992000080703009+39933-074833NSRDB+001699999V020999999999999999999999999999+99999+99999999999ADDGP10060000002000000002000000002000GR100600000900009
0237724074999992000080709544+39920-074820FM-15+0016KVAY V0209999V003112200019N0064371N1+02401+02301101331ADDAA101000021GD12991+0300019GF102991999999999999999999MA1101321999999MW1101MW2611REMMET111KVAY 070954Z AUTO VRB06KT 4SM -RA BR FEW100 24/23 A2992 RMK AO2 LTG DSNT NE AND E RAB49 SLP133 P0000 T02440233;EQDQ01+000003PRSWM1Q02    003PRSWM1
0054724074999992000080802009+39933-074833NSRDB+001699999V020999999999999999999999999999+99999+99999999999ADDGP10060000002000000002000000002000GR100600000900009
0226724074999992000081011544+39920-074820FM-15+0016KVAY V0203601N002612200019N0096561N1+02401+02101101241ADDGF100991999999999999999999KA1999M+02561KA2999N+02391MA1101251999999MD1310271+9999MW1051REMMET092KVAY 101154Z AUTO 36005KT 6SM HZ CLR 24/21 A2990 RMK AO2 SLP124 T02390206 10256 20239 53027;EQDQ01+000003PRSWM1Q02    003PRSWM1
0267724074999992000081200544+39920-074820FM-15+0016KVAY V0209999C000010180019N0064371N1+01901+01901101231ADDAA101000021GD13991+0180019GD23991+0210019GD33991+0270019GF107991999999999999999999MA1101251999999MW1101REMMET117KVAY 120054Z AUTO 00000KT 4SM BR BKN065 BKN075 BKN090 19/19 A2990 RMK AO2 LTG DSNT NW RAE00 SLP123 P0000 T01940194 $;EQDQ01+000003PRSWM1Q02    003PRSWM1
0054724074999992000081606009+39933-074833NSRDB+001699999V020999999999999999999999999999+99999+99999999999ADDGP10060000002000000002000000002000GR100600000900009
0054724074999992000081801009+39933-074833NSRDB+001699999V020999999999999999999999999999+99999+99999999999ADDGP10060000002000000002000000002000GR100600000900009
0071724074999992000082000009+39933-074833NSRDB+001699999V020999999999999999999999999999+99999+99999999999ADDGP10060001002008000002015001002008GQ100600859928309GR100600078910799
0071724074999992000082013009+39933-074833NSRDB+001699999V020999999999999999999999999999+99999+99999999999ADDGP10060031702008040702015014802008GQ100600655909459GR100600554913359
0208724074999992000082223544+39920-074820FM-15+0016KVAY V0209999C000012200019N0160931N1+01901+01601102471ADDGF100991999999999999999999KA1999M+02611KA2999N+01891MA1102471999999MD1510031+9999MW1001REMMET090KVAY 222354Z AUTO 00000KT 10SM CLR 19/16 A3026 RMK AO2 SLP247 T01890161 10261 20189 55003;EQDQ01+000000PRSWM2
0071724074999992000082313009+39933-074833NSRDB+001699999V020999999999999999999999999999+99999+99999999999ADDGP10060016302008001302015015702008GQ100600659909559GR100600544913379
0054724074999992000082506009+39933-074833NSRDB+001699999V020999999999999999999999999999+99999+99999999999ADDGP10060000002000000002000000002000GR100600000900009
0212724074999992000083118544+39920-074820FM-15+0016KVAY V0201101N003110135019N0160931N1+02901+02301102031ADDGD12991+0102019GD23991+0135019GD33991+0150019GF107991999999999999999999MA1102031999999MW1001REMMET089KVAY 311854Z AUTO 11006KT 10SM SCT034 BKN045 BKN055 29/23 A3013 RMK AO2 SLP203 T02890233;EQDQ01+000000PRSWM2
0054724074999992000090208009+39933-074833NSRDB+001699999V020999999999999999999999999999+99999+99999999999ADDGP10060000002000000002000000002000GR100600000900009
0232724074999992000090214544+39920-074820FM-15+0016KVAY V0202401N001510090019N0160931N1+02701+02301101661ADDGD12991+0066019GD23991+0090019GD33991+0105019GF107991999999999999999999MA1101661999999MD1810041+9999MW1001REMMET095KVAY 021454Z AUTO 24003KT 10SM FEW022 BKN030 BKN035 27/23 A3002 RMK AO2 SLP166 T02670228 58004;EQDQ01+000000PRSWM2
0071724074999992000090317009+39933-074833NSRDB+001699999V020999999999999999999999999999+99999+99999999999ADDGP10060057002008021002015039402008GQ100600335916729GR100601120913449
0071724074999992000090422009+39933-074833NSRDB+001699999V020999999999999999999999999999+99999+99999999999ADDGP10060009702008000002015009702008GQ100600688926089GR100600486913449
0071724074999992000091716009+39933-074833NSRDB+001699999V020999999999999999999999999999+99999+99999999999ADDGP10060069402008071202015016902008GQ100600426914839GR100600996913549
0257724074999992000091912544+39920-074820FM-15+0016KVAY V0200501N002610069019N0016091N1+01701+01701101671ADDAA101000391GD12991+0039019GD23991+0069019GD34991+0093019GF108991999999999999999999MA1101691999999MW1101MW2611REMMET101KVAY 191254Z AUTO 05005KT 1SM -RA BR SCT013 BKN023 OVC031 17/17 A3003 RMK AO2 SLP167 P0001 T01670167;EQDQ01+000003PRSWM1Q02    003PRSWM1
0309724074999992000092605544+39920-074820FM-15+0016KVAY V0200201N004110042019N0064371N1+01101+01001101091ADDGD13991+0042019GD23991+0078019GD34991+0150019GF108991999999999999999999KA1999M+01061KA2999N+00941MA1101121999999MD1810161+9999MW1101MW2631REMMET124KVAY 260554Z AUTO 02008KT 4SM RA BR BKN014 BKN026 OVC050 11/10 A2986 RMK AO2 SLP109 6//// T01060100 10106 20094 58016 PNO $;EQDQ01+000003PRSWM1Q02    003PRSWM1
0071724074999992000092613009+39933-074833NSRDB+001699999V020999999999999999999999999999+99999+99999999999ADDGP10060007602008000002015007602008GQ100600722910789GR100600416913619
0150724074999992000092709544+39920-074820FM-15+0016KVAY V0202801N001512200019N0160931N1+00801+00701101981ADDGF100991999999999999999999MA1102001999999MW1001REMMET072KVAY 270954Z AUTO 28003KT 10SM CLR 08/07 A3012 RMK AO2 SLP198 T00780067;EQDQ01+000000PRSWM2
0071724074999992000092916009+39933-074833NSRDB+001699999V020999999999999999999999999999+99999+99999999999ADDGP10060065202008074902015013502008GQ100600465915229GR100600938913639
0071724074999992000100212009+39933-074833NSRDB+001699999V020999999999999999999999999999+99999+99999999999ADDGP10060000002008000002015000002008GQ100600844909969GR100600134913659
0168724074999992000100303544+39920-074820FM-15+0016KVAY V0202101N001512200019N0096561N1+01301+01301101191ADDGF100991999999999999999999MA1101221999999MW1101REMMET074KVAY 030354Z AUTO 21003KT 6SM BR CLR 13/13 A2989 RMK AO2 SLP119 T01330128;EQDQ01+000003PRSWM1Q02    003PRSWM1
0071724074999992000100514009+39933-074833NSRDB+001699999V020999999999999999999999999999+99999+99999999999ADDGP10060021002008002502015020002008GQ100600638912269GR100600602913689
0071724074999992000100520009+39933-074833NSRDB+001699999V020999999999999999999999999999+99999+99999999999ADDGP10060007802008000002015007802008GQ100600585922949GR100600714913689
0071724074999992000100620009+39933-074833NSRDB+001699999V020999999999999999999999999999+99999+99999999999ADDGP10060013902008000002015013902008GQ100600589922929GR100600707913699
0071724074999992000100621009+39933-074833NSRDB+001699999V020999999999999999999999999999+99999+99999999999ADDGP10060009402008000002015009402008GQ100600684924219GR100600504913699
0170724074999992000100814544+39920-074820FM-15+0016KVAY V0202701N003112200019N0160931N1+00901+00101102291ADDGF100991999999999999999999MA1102301999999MD1010011+9999MW1001REMMET078KVAY 081454Z AUTO 27006KT 10SM CLR 09/01 A3021 RMK AO2 SLP229 T00940006 50001;EQDQ01+000000PRSWM2
0150724074999992000100913544+39920-074820FM-15+0016KVAY V0203301N003612200019N0160931N1+00701+00001102231ADDGF100991999999999999999999MA1102241999999MW1001REMMET072KVAY 091354Z AUTO 33007KT 10SM CLR 07/00 A3019 RMK AO2 SLP223 T00670000;EQDQ01+000000PRSWM2
0071724074999992000101312009+39933-074833NSRDB+001699999V020999999999999999999999999999+99999+99999999999ADDGP10060000002008000002015000002008GQ100600856910419GR100600088911579
0071724074999992000102323009+39933-074833NSRDB+001699999V020999999999999999999999999999+99999+99999999999ADDGP10060000002008000002015000002008GQ100600895925469GR100600001901509
0208724074999992000102517544+39920-074820FM-15+0016KVAY V0201001N003112200019N0160931N1+02201+01201102521ADDGF100991999999999999999999KA1999M+02281KA2999N+00781MA1102541999999MD1810151+9999MW1001REMMET090KVAY 251754Z AUTO 10006KT 10SM CLR 22/12 A3028 RMK AO2 SLP252 T02220117 10228 20078 58015;EQDQ01+000000PRSWM2
0054724074999992000102909009+39933-074833NSRDB+001699999V020999999999999999999999999999+99999+99999999999ADDGP10060000002000000002000000002000GR100600000900009
0151724074999992000103100544+39920-074820FM-15+0016KVAY V0203501N004112200019N0160931N1+00701-00301101981ADDGF100991999999999999999999MA1102001999999MW1001REMMET073KVAY 310054Z AUTO 35008KT 10SM CLR 07/M03 A3012 RMK AO2 SLP198 T00671028;EQDQ01+000000PRSWM2
0054724074999992000110402009+39933-074833NSRDB+001699999V020999999999999999999999999999+99999+99999999999ADDGP10060000002000000002000000002000GR100600000900009
0054724074999992000110405009+39933-074833NSRDB+001699999V020999999999999999999999999999+99999+99999999999ADDGP10060000002000000002000000002000GR100600000900009
0054724074999992000111009009+39933-074833NSRDB+001699999V020999999999999999999999999999+99999+99999999999ADDGP10060000002000000002000000002000GR100600000900009
0071724074999992000111115009+39933-074833NSRDB+001699999V020999999999999999999999999999+99999+99999999999ADDGP10060030902008029502015018602008GQ100600655914499GR100600579913969
0071724074999992000111214009+39933-074833NSRDB+001699999V020999999999999999999999999999+99999+99999999999ADDGP10060010202008000002015010202008GQ100600733913219GR100600401913979
0054724074999992000112007009+39933-074833NSRDB+001699999V020999999999999999999999999999+99999+99999999999ADDGP10060000002000000002000000002000GR100600000900009
0071724074999992000112514009+39933-074833NSRDB+001699999V020999999999999999999999999999+99999+99999999999ADDGP10060010702009000702021010602009GQ100600761913349GR100600337914049
0071724074999992000112515009+39933-074833NSRDB+001699999V020999999999999999999999999999+99999+99999999999ADDGP10060014002009000002021014002009GQ100600687914589GR100600510914049
0054724074999992000112604009+39933-074833NSRDB+001699999V020999999999999999999999999999+99999+99999999999ADDGP10060000002000000002000000002000GR100600000900009
0190724074999992000112922544+39920-074820FM-15+0016KVAY V0201701N002610180019N0160931N1+00801+00101101501ADDGD13991+0180019GD24991+0240019GF108991999999999999999999MA1101491999999MW1001REMMET082KVAY 292254Z AUTO 17005KT 10SM BKN065 OVC080 08/01 A2997 RMK AO2 SLP150 T00780011;EQDQ01+000000PRSWM2
0186724074999992000113006544+39920-074820FM-15+0016KVAY V0209999C000012200019N0064371N1+00301+00301101111ADDGD12991+0084019GF104991999999999999999999MA1101121999999MW1101REMMET077KVAY 300654Z AUTO 00000KT 4SM BR SCT028 03/03 A2986 RMK AO2 SLP111 T00330033;EQDQ01+000003PRSWM1Q02    003PRSWM1
0172724074999992000120502544+39920-074820FM-15+0016KVAY V0209999C000012200019N0160931N1-00401-00901102421ADDGF100991999999999999999999MA1102441999999MD1810131+9999MW1001REMMET080KVAY 050254Z AUTO 00000KT 10SM CLR M04/M09 A3025 RMK AO2 SLP242 T10441094 58013;EQDQ01+000000PRSWM2
0152724074999992000120503544+39920-074820FM-15+0016KVAY V0209999C000012200019N0160931N1-00401-00901102361ADDGF100991999999999999999999MA1102371999999MW1001REMMET074KVAY 050354Z AUTO 00000KT 10SM CLR M04/M09 A3023 RMK AO2 SLP236 T10441094;EQDQ01+000000PRSWM2
0054724074999992000120600009+39933-074833NSRDB+001699999V020999999999999999999999999999+99999+99999999999ADDGP10060000002000000002000000002000GR100600000900009
0054724074999992000120801009+39933-074833NSRDB+001699999V020999999999999999999999999999+99999+99999999999ADDGP10060000002000000002000000002000GR100600000900009
0054724074999992000120910009+39933-074833NSRDB+001699999V020999999999999999999999999999+99999+99999999999ADDGP10060000002000000002000000002000GR100600000900009
0054724074999992000121601009+39933-074833NSRDB+001699999V020999999999999999999999999999+99999+99999999999ADDGP10060000002000000002000000002000GR100600000900009
0172724074999992000122102544+39920-074820FM-15+0016KVAY V0202501N003112200019N0160931N1-00401-01201102551ADDGF100991999999999999999999MA1102541999999MD1310241+9999MW1001REMMET080KVAY 210254Z AUTO 25006KT 10SM CLR M04/M12 A3028 RMK AO2 SLP255 T10441117 53024;EQDQ01+000000PRSWM2
0318724075137352000010107543+39367-075083FM-15+0021MIV  V0209999C00005000305MN0003005N1+00005+00005102365ADDGD15995+0003059GF109991999999000251999999MA1102345999999MW1455REMMET074KMIV 010754Z 00000KT M1/4SM FG VV001 00/00 A3022 RMK AO2 SLP236 T00000000;EQDQ01    003PRSWM1N01 00070JPWTH 0QNNAA1D0 07001BA1 0 07001GA1 0 00001KA1D0 00032JA1 0 00000LA1 0 00019CA1 0 03022NA1 0 00070QA1 0 10236SA1D0 00032RA1 0 00000YA1 0 00000
0338724075137352000010114543+39367-075083FM-15+0021MIV  V0209999C00005000305MN0003005N1+00115+00115102625ADDGD15995+0003059GF109991999999000251999999MA1102615999999MD1110131+9999MW1455REMMET080KMIV 011454Z 00000KT M1/4SM FG VV001 01/01 A3030 RMK AO2 SLP262 T00110011 51013;EQDQ01    003PRSWM1N01 00070JPWTH 0QNNAA1D0 07001BA1 0 07001GA1 0 00001KA1D0 00034JA1 0 00011LA1 0 00019CA1 0 03030NA1 0 00070QA1 0 10262SA1D0 00034RA1 0 00011YA1 0 00000
0054724075137352000010207009+39367-075083NSRDB+002199999V020999999999999999999999999999+99999+99999999999ADDGP10060000002000000002000000002000GR100600000900009
0297724075137352000010822543+39367-075083FM-15+0021MIV  V0209999C00005220005MN0160005N1+00115-00445102535ADDGF100991999999999999999999MA1102515999999MW1001REMMET068KMIV 082254Z 00000KT 10SM CLR 01/M04 A3027 RMK AO2 SLP253 T00111044;EQDQ01+000000PRSWM2N01 00000JPWTH 0QNNAA1D0 00000BA1 0 00000GA1U0 99999KA1D0 00024JA1 0-00044LA1 0 01000CA1 0 03027NA1 0 00000QA1 0 10253SA1D0 00034RA1 0 00011YA1 0 00000
0197724075137352000011007544+39370-075070FM-15+0025KMIV V0209999C00001000901CN0040231N1+00601+00601101461ADDGD14991+0018019GF108991999999999999999999MA1101461999999MW1101REMMET088KMIV 100754Z 00000KT 2 1/2SM BR OVC006 06/06 A2996 RMK AO2 CIG 003V007 SLP146 T00610056;EQDQ01+000003PRSWM1Q02    003PRSWM1
0358724075137352000011008543+39367-075083FM-15+0021MIV  V0201005N00155000615MN0016005N1+00615+00565101375ADDGD14995+0006159GF108991999999999999999999MA1101355999999MD1810141+9999MW1101MW2455REMMET078KMIV 100854Z 10003KT 1SM BR OVC002 06/06 A2993 RMK AO2 SLP137 T00610056 58014;EQDQ01+000003PRSWM1Q02    003PRSWM1N01 00070JPWTH 0QNNAA1D0 06002BA1 0 06002GA1 0 00002KA1D0 00042JA1 0 00056LA1 0 00100CA1 0 02993NA1 0 00070QA1 0 10137SA1D0 00043RA1 0 00061YA1 0 10003
0054724075137352000011201009+39367-075083NSRDB+002199999V020999999999999999999999999999+99999+99999999999ADDGP10060000002000000002000000002000GR100600000900009
0316724075137352000011903543+39367-075083FM-15+0021MIV  V0203005N00155220005MN0160005N1-00835-01565101475ADDGD11995+0182959GF102991999999999999999999MA1101465999999MW1001REMMET072KMIV 190354Z 30003KT 10SM FEW060 M08/M16 A2996 RMK AO2 SLP147 T10831156;EQDQ01+000000PRSWM2N01 00000JPWTH 0QNNAA1D0 02060BA1 0 01060GA1U0 99999KA1D0 00004JA1 0-00156LA1 0 01000CA1 0 02996NA1 0 00000QA1 0 10147SA1D0 00017RA1 0-00083YA1 0 30003
0417724075137352000012009543+39367-075083FM-15+0021MIV  V0201405N00265005795MN0048005N1-00175-00565100665ADDAA101000021GD13995+0057959GD24995+0103659GF108991999999999999999999MA1100645999999MW1101MW2455MW3715REMMET097KMIV 200954Z 14005KT 3SM -SN BR BKN019 OVC034 M02/M06 A2972 RMK AO2 SNB47 SLP066 P0000 T10171056;EQDQ01+000003PRSWM1Q02    003PRSWM1N01 04070JPWTH 0QNNAA1D0 04019BA1 0 04019AA1D0 06034BA1 0 06034GA1 0 00019KA1D0 00022JA1 0-00056LA1 0 00300CA1 0 02972NA1 0 04070QA1 0 10066SA1D0 00029RA1 0-00017YA1 0 14005
0380724075137352000012308543+39367-075083FM-15+0021MIV  V0201005N00265018295MN0160005N1-00675-01115102425ADDGD12995+0112859GD24995+0182959GF108991999999999999999999MA1102405999999MD1610051+9999MW1001REMMET085KMIV 230854Z 10005KT 10SM SCT037 OVC060 M07/M11 A3024 RMK AO2 SLP242 T10671111 56005;EQDQ01+000000PRSWM2N01 00000JPWTH 0QNNAA1D0 02037BA1 0 02037AA1D0 06060BA1 0 06060GA1 0 00060KA1D0 00012JA1 0-00111LA1 0 01000CA1 0 03024NA1 0 00000QA1 0 10242SA1D0 00020RA1 0-00067YA1 0 10005
0220724075137352000012405294+39370-075070FM-16+0025KMIV V0200101N002610030019N0080461N1-00201-00401999999ADDGD13991+0030019GD24991+0096019GF108991999999999999999999MA1101801999999MW1711REMMET080KMIV 240529Z 01005KT 5SM -SN BR BKN010 OVC032 M02/M04 A3006 RMK AO2 SNB22 P0000;EQDQ01+000100PRSWM3Q02+000003PRSWM1Q03    003PRSWM1
0318724075137352000012604003+39367-075083FM-15+0021MIV  V0202805N00725001225MN001600599-00395-00505099575ADDGD13995+0012259GD23995+0030559GD34995+0054959GP10060000002000000002000000002000GR100600000900009MA1099565999999MW1455EQDN01 00070JPWTH 0QNNAA1D0 04004BA1 0 04004AA1D0 04010BA1 0 04010AA1D0 06018BA1 0 06018GA1 0 00004KA1D0 00023JA1 0-00050LA1 0 00100CA1 0 02940NA1 0 00070QA1 0 09957SA1D0 00025RA1 0-00039YA1 0 28014
0071724075137352000012915009+39367-075083NSRDB+002199999V020999999999999999999999999999+99999+99999999999ADDGP10060034902009074702021008002009GQ100600689913839GR100600506914109
0336724075137352000013014543+39367-075083FM-15+0021MIV  V0209999C00005016765MN0160005N1-00445-01065103125ADDGD14995+0167659GF108991999999999999999999MA1103125999999MD1310011+9999MW1001REMMET078KMIV 301454Z 00000KT 10SM OVC055 M04/M11 A3045 RMK AO2 SLP312 T10441106 53001;EQDQ01+000000PRSWM2N01 00000JPWTH 0QNNAA1D0 06055BA1 0 06055GA1 0 00055KA1D0 00013JA1 0-00106LA1 0 01000CA1 0 03045NA1 0 00000QA1 0 10312SA1D0 00024RA1 0-00044YA1 0 00000
0054724075137352000013102009+39367-075083NSRDB+002199999V020999999999999999999999999999+99999+99999999999ADDGP10060000002000000002000000002000GR100600000900009
0071724075137352000013118009+39367-075083NSRDB+002199999V020999999999999999999999999999+99999+99999999999ADDGP10060013102009000002021013102009GQ100600570918469GR100600767914099
0298724075137352000020306543+39367-075083FM-15+0021MIV  V0209999C00005220005MN0160005N1-01065-01335102055ADDGF100991999999999999999999MA1102035999999MW1001REMMET069KMIV 030654Z 00000KT 10SM CLR M11/M13 A3013 RMK AO2 SLP205 T11061133;EQDQ01+000000PRSWM2N01 00000JPWTH 0QNNAA1D0 00000BA1 0 00000GA1U0 99999KA1D0 00008JA1 0-00133LA1 0 01000CA1 0 03013NA1 0 00000QA1 0 10205SA1D0 00013RA1 0-00106YA1 0 00000
0054724075137352000020610009+39367-075083NSRDB+002199999V020999999999999999999999999999+99999+99999999999ADDGP10060000002000000002000000002000GR100600000900009
0298724075137352000020709543+39367-075083FM-15+0021MIV  V0209999V00155220005MN0160005N1-00115-00395101925ADDGF100991999999999999999999MA1101935999999MW1001REMMET069KMIV 070954Z VRB03KT 10SM CLR M01/M04 A3010 RMK AO2 SLP192 T10111039;EQDQ01+000000PRSWM2N01 00000JPWTH 0QNNAA1D0 00000BA1 0 00000GA1U0 99999KA1D0 00025JA1 0-00039LA1 0 01000CA1 0 03010NA1 0 00000QA1 0 10192SA1D0 00030RA1 0-00011YA1 0 00003
0054724075137352000021310009+39367-075083NSRDB+002199999V020999999999999999999999999999+99999+99999999999ADDGP10060000002000000002000000002000GR100600000900009
0328724075137352000021514543+39367-075083FM-15+0021MIV  V0203105N00675220005MN0160005N1+00335-00445102095ADDGF100991999999999999999999MA1102075999999MD1110381+9999MW1001OC101131REMMET077KMIV 151454Z 31013G22KT 10SM CLR 03/M04 A3014 RMK AO2 SLP209 T00331044 51038;EQDQ01+000000PRSWM2N01 00000JPWTH 0QNNAA1D0 00000BA1 0 00000GA1U0 99999KA1D0 00024JA1 0-00044LA1 0 01000CA1 0 03014NA1 0 00000QA1 0 10209SA1D0 00038RA1 0 00033YA1 0 31013
0054724075137352000021609009+39367-075083NSRDB+002199999V020999999999999999999999999999+99999+99999999999ADDGP10060000002000000002000000002000GR100600000900009
0317724075137352000021720543+39367-075083FM-15+0021MIV  V0200305N00315220005MN0160005N1+00285-01335103375ADDGF100991999999999999999999MA1103355999999MD1710071+9999MW1001REMMET074KMIV 172054Z 03006KT 10SM CLR 03/M13 A3052 RMK AO2 SLP337 T00281133 57007;EQDQ01+000000PRSWM2N01 00000JPWTH 0QNNAA1D0 00000BA1 0 00000GA1U0 99999KA1D0 00008JA1 0-00133LA1 0 01000CA1 0 03052NA1 0 00000QA1 0 10337SA1D0 00037RA1 0 00028YA1 0 03006
0371724075137352000021818543+39367-075083FM-15+0021MIV  V0200505N00315000615MN0064005N1+00175+00175101875ADDAA101004191GD14995+0006159GF108991999999999999999999MA1101865999999MW1101MW2455MW3635REMMET088KMIV 181854Z 05006KT 4SM RA BR OVC002 02/02 A3008 RMK AO2 PRESFR SLP187 P0016 T00170017;EQDQ01+000003PRSWM1Q02    003PRSWM1N01 02170JPWTH 0QNNAA1D0 06002BA1 0 06002GA1 0 00002KA1D0 00035JA1 0 00017LA1 0 00400CA1 0 03008NA1 0 02170QA1 0 10187SA1D0 00035RA1 0 00017YA1 0 05006
0071724075137352000022122009+39367-075083NSRDB+002199999V020999999999999999999999999999+99999+99999999999ADDGP10060017402008056002015005202008GQ100600774924489GR100600304913989
0164724075137352000022715274+39370-075070FM-16+0025KMIV V0201501N002110003019N0032181N1+00801+00801999999ADDGD14991+0003019GF108991999999999999999999MA1102511999999MW1101REMMET055KMIV 271527Z 15004KT 2SM BR OVC001 08/08 A3027 RMK AO2;EQDQ01+000003PRSWM1Q02    003PRSWM1
0176724075137352000022717034+39370-075070FM-16+0025KMIV V0201601N003612200019N0160931N1+01301+01101999999ADDGD12991+0024019GD22991+0135019GF104991999999999999999999MA1102341999999MW1001REMMET068KMIV 271703Z 16007KT 140V200 10SM FEW008 SCT045 13/11 A3022 RMK AO2;EQDQ01+000000PRSWM2
0071724075137352000030318009+39367-075083NSRDB+002199999V020999999999999999999999999999+99999+99999999999ADDGP10060072302008085702015012802008GQ100600462918619GR100600962913919
0308724075137352000030718543+39367-075083FM-15+0021MIV  V0202605N00625220005MN0160005N1+01675-00175102065ADDGF100991999999999999999999MA1102075999999MW1001OC100821REMMET071KMIV 071854Z 26012G16KT 10SM CLR 17/M02 A3014 RMK AO2 SLP206 T01671017;EQDQ01+000000PRSWM2N01 00000JPWTH 0QNNAA1D0 00000BA1 0 00000GA1U0 99999KA1D0 00029JA1 0-00017LA1 0 01000CA1 0 03014NA1 0 00000QA1 0 10206SA1D0 00062RA1 0 00167YA1 0 26012
0316724075137352000030808543+39367-075083FM-15+0021MIV  V0203505N00155220005MN0160005N1+01065+00285101395ADDGF100991999999999999999999MA1101395999999MD1510021+9999MW1001REMMET073KMIV 080854Z 35003KT 10SM CLR 11/03 A2994 RMK AO2 SLP139 T01060028 55002;EQDQ01+000000PRSWM2N01 00000JPWTH 0QNNAA1D0 00000BA1 0 00000GA1U0 99999KA1D0 00037JA1 0 00028LA1 0 01000CA1 0 02994NA1 0 00000QA1 0 10139SA1D0 00051RA1 0 00106YA1 0 35003
0333724075137352000031203543+39367-075083FM-15+0021MIV  V0200305N00315000305MN0004005N1+00945+00945100615ADDGD15995+0003059GF109991999999000251999999MA1100615999999MW1455REMMET073KMIV 120354Z 03006KT 1/4SM FG VV001 09/09 A2971 RMK AO2 SLP061 T00940094;EQDQ01+000003PRSWM1Q02    003PRSWM1N01 00070JPWTH 0QNNAA1D0 07001BA1 0 07001GA1 0 00001KA1D0 00049JA1 0 00094LA1 0 00025CA1 0 02971NA1 0 00070QA1 0 10061SA1D0 00049RA1 0 00094YA1 0 03006
0458724075137352000031205543+39367-075083FM-15+0021MIV  V0209999C00005000305MN0012071N1+01005+00945100515ADDGD13995+0003059GD24995+0128059GF108991999999999999999999KA1999M+01221KA2999N+00941MA1100515999999MD1610181+9999MW1441MW2455REMMET099KMIV 120554Z 00000KT 3/4SM FG BKN001 OVC042 10/09 A2968 RMK AO2 SLP051 T01000094 10122 20094 56018;EQDQ01+000003PRSWM1Q02    003PRSWM1N01 00075DHZVS 3N02 00070JPWTH 0QNNAA1D0 04001BA1 0 04001AA1D0 06042BA1 0 06042GA1 0 00001KA1D0 00049JA1 0 00094LA1 3 00075CA1 0 02968NA1 0 00070QA1 0 10051SA1D0 00050RA1 0 00100YA1 0 00000
0263724075137352000031209083+39370-075070FM-16+0025KMIV V0201701N002110084019N0064371N1+01201+00601999999ADDGD13991+0084019GD23991+0102019GF107991999999999999999999GP10060000002000000002000000002000GR100600000900009MA1100201999999MW1611REMMET072KMIV 120908Z 17004KT 4SM -RA FG BKN028 BKN034 12/06 A2959 RMK AO2 P0002;EQDQ01+000440PRSWM3Q02+000003PRSWM1Q03    003PRSWM1
0353724075137352000031302543+39367-075083FM-15+0021MIV  V0203305N00465220005MN0160005N1+00285-00675101825ADDGF100991999999999999999999MA1101795999999MD1310491+9999MW1001OC100771REMMET102KMIV 130254Z 33009G15KT 10SM CLR 03/M07 A3006 RMK AO2 PK WND 32026/0156 PRESRR SLP182 T00281067 53049;EQDQ01+000000PRSWM2N01 00000JPWTH 0QNNAA1D0 00000BA1 0 00000GA1U0 99999KA1D0 00020JA1 0-00067LA1 0 01000CA1 0 03006NA1 0 00000QA1 0 10182SA1D0 00037RA1 0 00028YA1 0 33009
0054724075137352000031607009+39367-075083NSRDB+002199999V020999999999999999999999999999+99999+99999999999ADDGP10060000002000000002000000002000GR100600000900009
0373724075137352000031923543+39367-075083FM-15+0021MIV  V0200905N00415220005MN0160005N1+00335-00115103185ADDGD11995+0134159GF102991999999999999999999KA1999M+00891KA2999N+00331MA1103185999999MD1310101+9999MW1001REMMET089KMIV 192354Z 09008KT 10SM FEW044 03/M01 A3047 RMK AO2 SLP318 T00331011 10089 20033 53010;EQDQ01+000000PRSWM2N01 00000JPWTH 0QNNAA1D0 02044BA1 0 01044GA1U0 99999KA1D0 00030JA1 0-00011LA1 0 01000CA1 0 03047NA1 0 00000QA1 0 10318SA1D0 00038RA1 0 00033YA1 0 09008
0054724075137352000032111009+39367-075083NSRDB+002199999V020999999999999999999999999999+99999+99999999999ADDGP10060000002000000002000000002000GR100600000900009
0200724075137352000032112164+39370-075070FM-16+0025KMIV V0200601N010310015019N0064371N1+00601+00001999999ADDGD14991+0015019GF108991999999999999999999MA1102611999999MW1611OC101441REMMET083KMIV 211216Z 06020G28KT 4SM -RA OVC005 06/00 A3030 RMK AO2 PK WND 06028/1212 P0000;EQDQ01+000003PRSWM1Q02    003PRSWM1
0487724075137352000032117543+39367-075083FM-15+0021MIV  V0200605N00885016465MN0024005N1+00615-00065102515ADDAA101000021AA206000391GD14995+0015259GF108991999999999999999999KA1999M+00611KA2999N+00501MA1102515999999MD1610081+9999MW1101MW2455MW3535OC101341REMMET145KMIV 211754Z 06017G26KT 1 1/2SM DZ BR OVC005 06/M01 A3027 RMK AO2 PK WND 06029/1713 RAB09E23DZB36 SLP251 P0000 60001 T00611006 10061 20050 56008;EQDQ01+000003PRSWM1Q02    003PRSWM1N01 03470JPWTH 0QNNAA1D0 06005BA1 0 06005GA1 0 00054KA1D0 00031JA1 0-00006LA1 0 00150CA1 0 03027NA1 0 03470QA1 0 10251SA1D0 00043RA1 0 00061YA1 0 06017
0466724075137352000032205543+39367-075083FM-15+0021MIV  V0200405N00985003055MN0020005N1+00505-00115102375ADDAA101003691AA206022991GD14995+0030559GF108991999999999999999999KA1999M+00561KA2999N+00501MA1102375999999MD1510061+9999MW1101MW2455MW3615OC101181REMMET124KMIV 220554Z 04019G23KT 1 1/4SM -RA BR OVC010 05/M01 A3023 RMK AO2 SFC VIS 8 SLP237 P0014 60090 T00501011 10056 20050 55006;EQDQ01+000003PRSWM1Q02    003PRSWM1N01 02070JPWTH 0QNNAA1D0 06010BA1 0 06010GA1 0 00010KA1D0 00030JA1 0-00011LA1 0 00125CA1 0 03023NA1 0 02070QA1 0 10237SA1D0 00041RA1 0 00050YA1 0 04019
0369724075137352000032222543+39367-075083FM-15+0021MIV  V0200505N00625005795MN0160005N1+00725+00445102815ADDGD13995+0057959GD24995+0100659GF108991999999999999999999MA1102815999999MW1001OC101031REMMET080KMIV 222254Z 05012G20KT 10SM BKN019 OVC033 07/04 A3036 RMK AO2 SLP281 T00720044;EQDQ01+000000PRSWM2N01 00000JPWTH 0QNNAA1D0 04019BA1 0 04019AA1D0 06033BA1 0 06033GA1 0 00019KA1D0 00040JA1 0 00044LA1 0 01000CA1 0 03036NA1 0 00000QA1 0 10281SA1D0 00045RA1 0 00072YA1 0 05012
0296724075137352000032303543+39367-075083FM-15+0021MIV  V0200505N00415220005MN0160005N1+00395+00225102815ADDGF100991999999999999999999MA1102815999999MW1001REMMET067KMIV 230354Z 05008KT 10SM CLR 04/02 A3036 RMK AO2 SLP281 T00390022;EQDQ01+000000PRSWM2N01 00000JPWTH 0QNNAA1D0 00000BA1 0 00000GA1U0 99999KA1D0 00036JA1 0 00022LA1 0 01000CA1 0 03036NA1 0 00000QA1 0 10281SA1D0 00039RA1 0 00039YA1 0 05008
0296724075137352000032501543+39367-075083FM-15+0021MIV  V0209999C00005220005MN0160005N1+00505+00285102075ADDGF100991999999999999999999MA1102075999999MW1001REMMET067KMIV 250154Z 00000KT 10SM CLR 05/03 A3014 RMK AO2 SLP207 T00500028;EQDQ01+000000PRSWM2N01 00000JPWTH 0QNNAA1D0 00000BA1 0 00000GA1U0 99999KA1D0 00037JA1 0 00028LA1 0 01000CA1 0 03014NA1 0 00000QA1 0 10207SA1D0 00041RA1 0 00050YA1 0 00000
0274724075137352000032603023+39370-075070FM-16+0025KMIV V0202201N005110270019N0160931N1+01501+01201999999ADDGD12991+0210019GD23991+0270019GF107991999999999999999999GP10060000002000000002000000002000GR100600000900009MA1100711999999MW1611OC100981REMMET091KMIV 260302Z 22010G19KT 10SM -RA SCT075 BKN090 15/12 A2974 RMK AO2 WSHFT 0241 PRESFR P0000;EQDQ01+000003PRSWM1Q02    003PRSWM1
0054724075137352000032604009+39367-075083NSRDB+002199999V020999999999999999999999999999+99999+99999999999ADDGP10060000002000000002000000002000GR100600000900009
0054724075137352000032704009+39367-075083NSRDB+002199999V020999999999999999999999999999+99999+99999999999ADDGP10060000002000000002000000002000GR100600000900009
0071724075137352000032713009+39367-075083NSRDB+002199999V020999999999999999999999999999+99999+99999999999ADDGP10060028202008061402015009202008GQ100600719910169GR100600425913729
0371724075137352000040505543+39367-075083FM-15+0021MIV  V0202805N00315220005MN0160005N1+00505+00005100635ADDAA106000021GF100991999999999999999999KA1999M+01221KA2999N+00501MA1100645999999MD1310191+9999MW1001REMMET091KMIV 050554Z 28006KT 10SM CLR 05/00 A2972 RMK AO2 SLP063 60000 T00500000 10122 20050 53019;EQDQ01+000000PRSWM2N01 00000JPWTH 0QNNAA1D0 00000BA1 0 00000GA1U0 99999KA1D0 00032JA1 0 00000LA1 0 01000CA1 0 02972NA1 0 00000QA1 0 10063SA1D0 00041RA1 0 00050YA1 0 28006
0071724075137352000040617009+39367-075083NSRDB+002199999V020999999999999999999999999999+99999+99999999999ADDGP10060017002008000602015016502008GQ100600336916549GR100601136913649
0344724075137352000040919543+39367-075083FM-15+0021MIV  V0202805N01035220005MN0160005N1+01005-00395100735ADDGD11995+0213459GF102991999999999999999999MA1100715999999MW1001OC101591REMMET092KMIV 091954Z 28020G31KT 10SM FEW070 10/M04 A2974 RMK AO2 PK WND 25036/1930 SLP073 T01001039;EQDQ01+000000PRSWM2N01 00000JPWTH 0QNNAA1D0 02070BA1 0 01070GA1U0 99999KA1D0 00025JA1 0-00039LA1 0 01000CA1 0 02974NA1 0 00000QA1 0 10073SA1D0 00050RA1 0 00100YA1 0 28020
0054724075137352000041001009+39367-075083NSRDB+002199999V020999999999999999999999999999+99999+99999999999ADDGP10060000002000000002000000002000GR100600000900009
0326724075137352000041001543+39367-075083FM-15+0021MIV  V0202705N00825220005MN0160005N1+00565-00285101375ADDGF100991999999999999999999MA1101355999999MW1001OC101081REMMET089KMIV 100154Z 27016G21KT 10SM CLR 06/M03 A2993 RMK AO2 PK WND 26028/0056 SLP137 T00561028;EQDQ01+000000PRSWM2N01 00000JPWTH 0QNNAA1D0 00000BA1 0 00000GA1U0 99999KA1D0 00027JA1 0-00028LA1 0 01000CA1 0 02993NA1 0 00000QA1 0 10137SA1D0 00042RA1 0 00056YA1 0 27016
0071724075137352000041019009+39367-075083NSRDB+002199999V020999999999999999999999999999+99999+99999999999ADDGP10060080702008076502015019502008GQ100600370921819GR100601086913619
0054724075137352000042005009+39367-075083NSRDB+002199999V020999999999999999999999999999+99999+99999999999ADDGP10060000002000000002000000002000GR100600000900009
0054724075137352000042209009+39367-075083NSRDB+002199999V020999999999999999999999999999+99999+99999999999ADDGP10060000002000000002000000002000GR100600000900009
0190724075137352000042309174+39370-075070FM-16+0025KMIV V0203101N004610135019N0160931N1+00801+00501999999ADDGD12991+0054019GD22991+0099019GD34991+0135019GF108991999999999999999999MA1100341999999MW1001REMMET067KMIV 230917Z 31009KT 10SM FEW018 SCT033 OVC045 08/05 A2963 RMK AO2;EQDQ01+000000PRSWM2
0071724075137352000050220009+39367-075083NSRDB+002199999V020999999999999999999999999999+99999+99999999999ADDGP10060071102008064302015022502008GQ100600409924539GR100601015913449
0054724075137352000050408009+39367-075083NSRDB+002199999V020999999999999999999999999999+99999+99999999999ADDGP10060000002000000002000000002000GR100600000900009
0071724075137352000050513009+39367-075083NSRDB+002199999V020999999999999999999999999999+99999+99999999999ADDGP10060037702008039702015018902008GQ100600618909149GR100600633913429
0054724075137352000050605009+39367-075083NSRDB+002199999V020999999999999999999999999999+99999+99999999999ADDGP10060000002000000002000000002000GR100600000900009
0071724075137352000050612009+39367-075083NSRDB+002199999V020999999999999999999999999999+99999+99999999999ADDGP10060022702008040402015011002008GQ100600732908199GR100600388913429
0307724075137352000050918543+39367-075083FM-15+0021MIV  V0202505N00575220005MN0160005N1+03115+01725100635ADDGF100991999999999999999999MA1100645999999MW1001OC100871REMMET070KMIV 091854Z 25011G17KT 10SM CLR 31/17 A2972 RMK AO2 SLP063 T03110172;EQDQ01+000000PRSWM2N01 00000JPWTH 0QNNAA1D0 00000BA1 0 00000GA1U0 99999KA1D0 00063JA1 0 00172LA1 0 01000CA1 0 02972NA1 0 00000QA1 0 10063SA1D0 00088RA1 0 00311YA1 0 25011
0314724075137352000050922543+39367-075083FM-15+0021MIV  V0209999V00265220005MN0096005N1+02835+01785100555ADDGF100991999999999999999999MA1100545999999MW1055REMMET069KMIV 092254Z VRB05KT 6SM HZ CLR 28/18 A2969 RMK AO2 SLP055 T02830178;EQDQ01+000003PRSWM1Q02    003PRSWM1N01 00081JPWTH 0QNNAA1D0 00000BA1 0 00000GA1U0 99999KA1D0 00064JA1 0 00178LA1 0 00600CA1 0 02969NA1 0 00081QA1 0 10055SA1D0 00083RA1 0 00283YA1 0 00005
0296724075137352000051216543+39367-075083FM-15+0021MIV  V0209999V00265220005MN0160005N1+02615+01505100745ADDGF100991999999999999999999MA1100755999999MW1001REMMET067KMIV 121654Z VRB05KT 10SM CLR 26/15 A2975 RMK AO2 SLP074 T02610150;EQDQ01+000000PRSWM2N01 00000JPWTH 0QNNAA1D0 00000BA1 0 00000GA1U0 99999KA1D0 00059JA1 0 00150LA1 0 01000CA1 0 02975NA1 0 00000QA1 0 10074SA1D0 00079RA1 0 00261YA1 0 00005
0362724075137352000051317543+39367-075083FM-15+0021MIV  V0201805N00365220005MN0160005N1+02945+01945100655ADDGF100991999999999999999999KA1999M+02941KA2999N+01671MA1100645999999MD1810131+9999MW1001REMMET093KMIV 131754Z 18007KT 080V260 10SM CLR 29/19 A2972 RMK AO2 SLP065 T02940194 10294 20167 58013;EQDQ01+000000PRSWM2N01 00000JPWTH 0QNNAA1D0 00000BA1 0 00000GA1U0 99999KA1D0 00067JA1 0 00194LA1 0 01000CA1 0 02972NA1 0 00000QA1 0 10065SA1D0 00085RA1 0 00294YA1 0 18007
0296724075137352000051603543+39367-075083FM-15+0021MIV  V0209999C00005220005MN0160005N1+00565+00395102055ADDGF100991999999999999999999MA1102075999999MW1001REMMET067KMIV 160354Z 00000KT 10SM CLR 06/04 A3014 RMK AO2 SLP205 T00560039;EQDQ01+000000PRSWM2N01 00000JPWTH 0QNNAA1D0 00000BA1 0 00000GA1U0 99999KA1D0 00039JA1 0 00039LA1 0 01000CA1 0 03014NA1 0 00000QA1 0 10205SA1D0 00042RA1 0 00056YA1 0 00000
0296724075137352000051607543+39367-075083FM-15+0021MIV  V0209999C00005220005MN0160005N1+00335+00225102045ADDGF100991999999999999999999MA1102035999999MW1001REMMET067KMIV 160754Z 00000KT 10SM CLR 03/02 A3013 RMK AO2 SLP204 T00330022;EQDQ01+000000PRSWM2N01 00000JPWTH 0QNNAA1D0 00000BA1 0 00000GA1U0 99999KA1D0 00036JA1 0 00022LA1 0 01000CA1 0 03013NA1 0 00000QA1 0 10204SA1D0 00038RA1 0 00033YA1 0 00000
0071724075137352000051820009+39367-075083NSRDB+002199999V020999999999999999999999999999+99999+99999999999ADDGP10060070102008055402015026602008GQ100600383925029GR100601046913359
0207724075137352000052015394+39370-075070FM-16+0025KMIV V0200701N00461001501CN0032181N1+01101+01101999999ADDGD14991+0024019GF108991999999999999999999MA1101831999999MW1631REMMET082KMIV 201539Z 07009KT 2SM RA BR OVC008 11/11 A3007 RMK AO2 RAB19 CIG 005V012 P0012;EQDQ01+000100PRSWM3Q02+000003PRSWM1Q03    003PRSWM1
0430724075137352000052023543+39367-075083FM-15+0021MIV  V0200505N00415000915MN0048005N1+01115+01065101785ADDAA101000391AA206000891GD14995+0009159GF108991999999999999999999KA1999M+01221KA2999N+01111MA1101795999999MD1210021+9999MW1101MW2455REMMET102KMIV 202354Z 05008KT 3SM BR OVC003 11/11 A3006 RMK AO2 SLP178 P0001 60003 T01110106 10122 20111 52002;EQDQ01+000003PRSWM1Q02    003PRSWM1N01 00070JPWTH 0QNNAA1D0 06003BA1 0 06003GA1 0 00003KA1D0 00051JA1 0 00106LA1 0 00300CA1 0 03006NA1 0 00070QA1 0 10178SA1D0 00052RA1 0 00111YA1 0 05008
0054724075137352000052109009+39367-075083NSRDB+002199999V020999999999999999999999999999+99999+99999999999ADDGP10060000002000000002000000002000GR100600000900009
0351724075137352000052113543+39367-075083FM-15+0021MIV  V0200505N00215001225MN0160005N1+01175+01115101715ADDAA101000021GD14995+0012259GF108991999999999999999999MA1101735999999MW1615REMMET080KMIV 211354Z 05004KT 10SM -RA OVC004 12/11 A3004 RMK AO2 SLP171 P0000 T01170111;EQDQ01+000003PRSWM1Q02    003PRSWM1N01 00020JPWTH 0QNNAA1D0 06004BA1 0 06004GA1 0 00004KA1D0 00052JA1 0 00111LA1 0 01000CA1 0 03004NA1 0 00020QA1 0 10171SA1D0 00053RA1 0 00117YA1 0 05004
0071724075137352000052220009+39367-075083NSRDB+002199999V020999999999999999999999999999+99999+99999999999ADDGP10060016702008000002015016702008GQ100600377925129GR100601052913329
0353724075137352000052320543+39367-075083FM-15+0021MIV  V0201505N00465001835MN0160005N1+01395+01285100795ADDGD14995+0018359GF108991999999999999999999MA1100785999999MD1610121+9999MW1001OC100871REMMET087KMIV 232054Z 15009G17KT 130V200 10SM OVC006 14/13 A2976 RMK AO2 SLP079 T01390128 56012;EQDQ01+000000PRSWM2N01 00000JPWTH 0QNNAA1D0 06006BA1 0 06006GA1 0 00006KA1D0 00055JA1 0 00128LA1 0 01000CA1 0 02976NA1 0 00000QA1 0 10079SA1D0 00057RA1 0 00139YA1 0 15009
0146724075137352000052412114+39370-075070FM-16+0025KMIV V0202501N003112200019N0160931N1+01801+01701999999ADDGD12991+0027019GF104991999999999999999999MA1100101999999MW1001REMMET053KMIV 241211Z 25006KT 10SM SCT009 18/17 A2956 RMK AO2;EQDQ01+000000PRSWM2
0071724075137352000052422009+39367-075083NSRDB+002199999V020999999999999999999999999999+99999+99999999999ADDGP10060042502008064402015010602008GQ100600603927379GR100600659913319
0388724075137352000052511543+39367-075083FM-15+0021MIV  V0202405N00265220005MN0160005N1+01945+01785100135ADDAA106000391AA224006491GF100991999999999999999999KA1999M+01941KA2999N+01561MA1100145999999MD1310211+9999MW1001REMMET097KMIV 251154Z 24005KT 10SM CLR 19/18 A2957 RMK AO2 SLP013 60001 70025 T01940178 10194 20156 53021;EQDQ01+000000PRSWM2N01 00000JPWTH 0QNNAA1D0 00000BA1 0 00000GA1U0 99999KA1D0 00064JA1 0 00178LA1 0 01000CA1 0 02957NA1 0 00000QA1 0 10013SA1D0 00067RA1 0 00194YA1 0 24005
0296724075137352000052613543+39367-075083FM-15+0021MIV  V0203305N00415220005MN0160005N1+02065+00895101355ADDGF100991999999999999999999MA1101355999999MW1001REMMET067KMIV 261354Z 33008KT 10SM CLR 21/09 A2993 RMK AO2 SLP135 T02060089;EQDQ01+000000PRSWM2N01 00000JPWTH 0QNNAA1D0 00000BA1 0 00000GA1U0 99999KA1D0 00048JA1 0 00089LA1 0 01000CA1 0 02993NA1 0 00000QA1 0 10135SA1D0 00069RA1 0 00206YA1 0 33008
0433724075137352000052905543+39367-075083FM-15+0021MIV  V0200705N00315001225MN0160005N1+01225+01225101055ADDAA106001091GD13995+0012259GD24995+0243859GF108991999999999999999999KA1999M+01281KA2999N+01221MA1101055999999MD1810091+9999MW1001REMMET101KMIV 290554Z 07006KT 10SM BKN004 OVC080 12/12 A2984 RMK AO2 SLP105 60004 T01220122 10128 20122 58009;EQDQ01+000000PRSWM2N01 00000JPWTH 0QNNAA1D0 04004BA1 0 04004AA1D0 06080BA1 0 06080GA1 0 00004KA1D0 00054JA1 0 00122LA1 0 01000CA1 0 02984NA1 0 00000QA1 0 10105SA1D0 00054RA1 0 00122YA1 0 07006
0054724075137352000053009009+39367-075083NSRDB+002199999V020999999999999999999999999999+99999+99999999999ADDGP10060000002000000002000000002000GR100600000900009
0054724075137352000060106009+39367-075083NSRDB+002199999V020999999999999999999999999999+99999+99999999999ADDGP10060000002000000002000000002000GR100600000900009
0071724075137352000060115009+39367-075083NSRDB+002199999V020999999999999999999999999999+99999+99999999999ADDGP10060074002008064102015022102008GQ100600359910799GR100601074913289
0054724075137352000060407009+39367-075083NSRDB+002199999V020999999999999999999999999999+99999+99999999999ADDGP10060000002000000002000000002000GR100600000900009
0071724075137352000060517009+39367-075083NSRDB+002199999V020999999999999999999999999999+99999+99999999999ADDGP10060086002008058302015030502008GQ100600182915859GR100601260913269
0071724075137352000060518009+39367-075083NSRDB+002199999V020999999999999999999999999999+99999+99999999999ADDGP10060092502008067702015028002008GQ100600183920319GR100601259913269
0314724075137352000061407543+39367-075083FM-15+0021MIV  V0201205N00155000305MN0160005N1+01565+01565101925ADDGD14995+0003059GF108991999999999999999999MA1101935999999MW1001REMMET070KMIV 140754Z 12003KT 10SM OVC001 16/16 A3010 RMK AO2 SLP192 T01560156;EQDQ01+000000PRSWM2N01 00000JPWTH 0QNNAA1D0 06001BA1 0 06001GA1 0 00001KA1D0 00060JA1 0 00156LA1 0 01000CA1 0 03010NA1 0 00000QA1 0 10192SA1D0 00060RA1 0 00156YA1 0 12003
0399724075137352000061915543+39367-075083FM-15+0021MIV  V0209999V00265220005MN9999999N1+02175+01835102025ADDGD12995+0036659GD22995+0213459GF104991999999999999999999MA1102035999999MW1101MW2455REMMET080KMIV 191554Z VRB05KT 10SM BR SCT012 SCT070 22/18 A3013 RMK AO2 SLP202 T02170183;EQDQ01+000003PRSWM1Q02    003PRSWM1N01 00070JPWTH 0P010160002VODIS QNNAA1D0 02012BA1 0 02012AA1D0 02070BA1 0 02070GA1U0 99999KA1D0 00065JA1 0 00183LA1 0 01000CA1 0 03013NA1 0 00070QA1 0 10202SA1D0 00071RA1 0 00217YA1 0 00005
0334724075137352000062502543+39367-075083FM-15+0021MIV  V0201405N00155220005MN0160005N1+02175+01895101905ADDGD12995+0198159GF104991999999999999999999MA1101905999999MD1310031+9999MW1001REMMET076KMIV 250254Z 14003KT 10SM SCT065 22/19 A3009 RMK AO2 SLP190 T02170189 53003;EQDQ01+000000PRSWM2N01 00000JPWTH 0QNNAA1D0 02065BA1 0 02065GA1U0 99999KA1D0 00066JA1 0 00189LA1 0 01000CA1 0 03009NA1 0 00000QA1 0 10190SA1D0 00071RA1 0 00217YA1 0 14003
0071724075137352000062615009+39367-075083NSRDB+002199999V020999999999999999999999999999+99999+99999999999ADDGP10060071002008059902015022602008GQ100600361910519GR100601066913229
0307724075137352000062719543+39367-075083FM-15+0021MIV  V0202505N00675220005MN0160005N1+03115+02065101345ADDGF100991999999999999999999MA1101355999999MW1001OC101031REMMET070KMIV 271954Z 25013G20KT 10SM CLR 31/21 A2993 RMK AO2 SLP134 T03110206;EQDQ01+000000PRSWM2N01 00000JPWTH 0QNNAA1D0 00000BA1 0 00000GA1U0 99999KA1D0 00069JA1 0 00206LA1 0 01000CA1 0 02993NA1 0 00000QA1 0 10134SA1D0 00088RA1 0 00311YA1 0 25013
0372724075137352000062923543+39367-075083FM-15+0021MIV  V0209999C00005220005MN0160005N1+02065+01945100925ADDGD11995+0335359GF102991999999999999999999KA1999M+02331KA2999N+01941MA1100915999999MD1210091+9999MW1001REMMET088KMIV 292354Z 00000KT 10SM FEW110 21/19 A2980 RMK AO2 SLP092 T02060194 10233 20194 52009;EQDQ01+000000PRSWM2N01 00000JPWTH 0QNNAA1D0 02110BA1 0 01110GA1U0 99999KA1D0 00067JA1 0 00194LA1 0 01000CA1 0 02980NA1 0 00000QA1 0 10092SA1D0 00069RA1 0 00206YA1 0 00000
0071724075137352000070200009+39367-075083NSRDB+002199999V020999999999999999999999999999+99999+99999999999ADDGP10060009102008022102015005402008GQ100600802929199GR100600225913219
0071724075137352000070201009+39367-075083NSRDB+002199999V020999999999999999999999999999+99999+99999999999ADDGP10060000002008000002015000002008GQ100600878929869GR100600025906509
0071724075137352000070512009+39367-075083NSRDB+002199999V020999999999999999999999999999+99999+99999999999ADDGP10060023202008036502015011402008GQ100600711907569GR100600427913219
0071724075137352000070715009+39367-075083NSRDB+002199999V020999999999999999999999999999+99999+99999999999ADDGP10060073002008070202015016902008GQ100600370910579GR100601054913219
0296724075137352000070910543+39367-075083FM-15+0021MIV  V0209999C00005220005MN0160005N1+01565+01445101865ADDGF100991999999999999999999MA1101865999999MW1001REMMET067KMIV 091054Z 00000KT 10SM CLR 16/14 A3008 RMK AO2 SLP186 T01560144;EQDQ01+000000PRSWM2N01 00000JPWTH 0QNNAA1D0 00000BA1 0 00000GA1U0 99999KA1D0 00058JA1 0 00144LA1 0 01000CA1 0 03008NA1 0 00000QA1 0 10186SA1D0 00060RA1 0 00156YA1 0 00000
0320724075137352000071003543+39367-075083FM-15+0021MIV  V0209999V00215220005MN0064005N1+02335+02225101135ADDGF100991999999999999999999MA1101125999999MW1101MW2455REMMET069KMIV 100354Z VRB04KT 4SM BR CLR 23/22 A2986 RMK AO2 SLP113 T02330222;EQDQ01+000003PRSWM1Q02    003PRSWM1N01 00070JPWTH 0QNNAA1D0 00000BA1 0 00000GA1U0 99999KA1D0 00072JA1 0 00222LA1 0 00400CA1 0 02986NA1 0 00070QA1 0 10113SA1D0 00074RA1 0 00233YA1 0 00004
0218724075137352000071010294+39360-075690FM-16+0025KMIV V0202601N005110150019N0048281N1+02401+02301999999ADDGD12991+0093019GD23991+0150019GF107991999999999999999999MA1100851999999MW1611REMMET078KMIV 101029Z 26010KT 3SM -RA BR SCT031 BKN055 24/23 A2978 RMK AO2 RAB23 P0000;EQDQ01+000100PRSWM3Q02+000003PRSWM1Q03    003PRSWM1
0334724075137352000071220543+39367-075083FM-15+0021MIV  V0209999V00215022865MN0160005N1+02725+01065101535ADDGD13995+0228659GF107991999999999999999999MA1101525999999MD1810051+9999MW1001REMMET076KMIV 122054Z VRB04KT 10SM BKN075 27/11 A2998 RMK AO2 SLP153 T02720106 58005;EQDQ01+000000PRSWM2N01 00000JPWTH 0QNNAA1D0 04075BA1 0 04075GA1 0 00075KA1D0 00051JA1 0 00106LA1 0 01000CA1 0 02998NA1 0 00000QA1 0 10153SA1D0 00081RA1 0 00272YA1 0 00004
0702724075137352000071704596+39367-075067SOD  +0023KMIV V020999999999999999999999999999+99999+99999999999ADDAA124000595AT1MW16RA  5AT2MW01FG  5AT3MW13BR  1KA1240M+02675KA2240N+01565MG1100479999994OE11240067113013125OE22240049213013155OE33240009899999995REMSOD54524 HR PRECIPITATION (IN): 0.02 24 HR MAX TEMP (F): 8024 HR MAX TEMP TIME (LST):1425 24 HR MIN TEMP (F): 6024 HR MIN TEMP TIME (LST):0538 AVERAGE STATION PRESSURE:29.67  PEAK WIND SPEED (MPH): 15 PEAK WIND DIR (DEG):130 PEAK WIND TIME (LST):1312  FASTEST 2MIN SPEED (MPH): 11FASTEST 2MIN DIR (DEG):130 FASTEST 2MIN TIME (LST):1315 AVERAGE WIND SPEED (MPH): 2.2 24 HR AVG TEMP (F):70 HOURLY INCREMENTAL PRECIPITATION VALUES (IN):.00  .00  .00  .00  .00  .00  .00  .00  .00  .00  .00  .00  .00  .00  .00  .00  .01   T   .00  .00  .00  .00  .01  .00
0396724075137352000071920543+39367-075083FM-15+0021MIV  V0200105N00415016765MN0144005N1+01725+01615101455ADDAA101000021AA203000021GD14995+0167659GF108991999999999999999999MA1101465999999MD1610081+9999MW1615REMMET100KMIV 192054Z 01008KT 9SM -RA OVC055 17/16 A2996 RMK AO2 RAE06B36 SLP145 P0000 60000 T01720161 56008;EQDQ01+000003PRSWM1Q02    003PRSWM1N01 00020JPWTH 0QNNAA1D0 06055BA1 0 06055GA1 0 00055KA1D0 00061JA1 0 00161LA1 0 00900CA1 0 02996NA1 0 00020QA1 0 10145SA1D0 00063RA1 0 00172YA1 0 01008
0071724075137352000072401009+39367-075083NSRDB+002199999V020999999999999999999999999999+99999+99999999999ADDGP10060000002008000002015000002008GQ100600885929509GR100600011904089
0054724075137352000073103009+39367-075083NSRDB+002199999V020999999999999999999999999999+99999+99999999999ADDGP10060000002000000002000000002000GR100600000900009
0145724075137352000073107204+39360-075060FM-15+0025KMIV V0209999C000012200019N0144841N1+02301+02301999999ADDGD12991+0009019GF104991999999999999999999MA1101861999999MW1001REMMET052KMIV 310720Z 00000KT 9SM SCT003 23/23 A3008 RMK AO2;EQDQ01+000000PRSWM2
0295724075137352000080122543+39367-075083FM-15+0021MIV  V0202105N00215220005MN0144005N1+02785+02395101515ADDGF100991999999999999999999MA1101525999999MW1001REMMET066KMIV 012254Z 21004KT 9SM CLR 28/24 A2998 RMK AO2 SLP151 T02780239;EQDQ01+000000PRSWM2N01 00000JPWTH 0QNNAA1D0 00000BA1 0 00000GA1U0 99999KA1D0 00075JA1 0 00239LA1 0 00900CA1 0 02998NA1 0 00000QA1 0 10151SA1D0 00082RA1 0 00278YA1 0 21004
0071724075137352000080423009+39367-075083NSRDB+002199999V020999999999999999999999999999+99999+99999999999ADDGP10060004402008000002015004402008GQ100600724927789GR100600401913279
0298724075137352000080606543+39367-075083FM-15+0021MIV  V0209999C00005220005MN0160005N1+01335+01335101675ADDGF100991999999999999999999MA1101665999999MW1001REMMET069KMIV 060654Z 00000KT 10SM CLR 13/13 A3002 RMK AO2 SLP167 T01330133 $;EQDQ01+000000PRSWM2N01 00000JPWTH 0QNNAA1D0 00000BA1 0 00000GA1U0 99999KA1D0 00056JA1 0 00133LA1 0 01000CA1 0 03002NA1 0 00000QA1 0 10167SA1D0 00056RA1 0 00133YA1 0 00000
0337724075137352000080619543+39367-075083FM-15+0021MIV  V0209999V00315220005MN0128005N1+02395+02175101525ADDGD11995+0118959GF102991999999999999999999MA1101525999999MW1055REMMET077KMIV 061954Z VRB06G14KT 8SM HZ FEW039 24/22 A2998 RMK AO2 SLP152 T02390217 $;EQDQ01+000003PRSWM1Q02    003PRSWM1N01 00081JPWTH 0QNNAA1D0 02039BA1 0 01039GA1U0 99999KA1D0 00071JA1 0 00217LA1 0 00800CA1 0 02998NA1 0 00081QA1 0 10152SA1D0 00075RA1 0 00239YA1 0 00006
0343724075137352000080702543+39367-075083FM-15+0021MIV  V0201805N00415010675MN0112005N1+02445+02335101445ADDGD13995+0106759GF107991999999999999999999MA1101465999999MD1010031+9999MW1001REMMET085KMIV 070254Z 18008KT 150V220 7SM BKN035 24/23 A2996 RMK AO2 SLP144 T02440233 50003 $;EQDQ01+000000PRSWM2N01 00000JPWTH 0QNNAA1D0 04035BA1 0 04035GA1 0 00035KA1D0 00074JA1 0 00233LA1 0 00700CA1 0 02996NA1 0 00000QA1 0 10144SA1D0 00076RA1 0 00244YA1 0 18008
0314724075137352000080722543+39367-075083FM-15+0021MIV  V0202205N00155220005MN0096005N1+02895+02505101295ADDGF100991999999999999999999MA1101325999999MW1055REMMET069KMIV 072254Z 22003KT 6SM HZ CLR 29/25 A2992 RMK AO2 SLP129 T02890250;EQDQ01+000003PRSWM1Q02    003PRSWM1N01 00081JPWTH 0QNNAA1D0 00000BA1 0 00000GA1U0 99999KA1D0 00077JA1 0 00250LA1 0 00600CA1 0 02992NA1 0 00081QA1 0 10129SA1D0 00084RA1 0 00289YA1 0 22003
0255724075137352000081014003+39367-075083FM-15+0021MIV  V0203005N00215220005MN016000599+02395+02175101315ADDGD11995+0335359GP10060015102008000002015015102008GQ100600526910149GR100600806913309MA1101325999999EQDN01 00000JPWTH 0QNNAA1D0 02110BA1 0 01110GA1U0 99999KA1D0 00071JA1 0 00217LA1 0 01000CA1 0 02992NA1 0 00000QA1 0 10131SA1D0 00075RA1 0 00239YA1 0 30004
0222724075137352000081811294+39360-075060FM-16+0025KMIV V0209999C000010126019N0024141N1+01801+01801999999ADDGD12991+0090019GD24991+0126019GF108991999999999999999999MA1101521999999MW1611REMMET082KMIV 181129Z 00000KT 1 1/2SM -RA BR FEW030 OVC042 18/18 A2998 RMK AO2 RAB10 P0001;EQDQ01+000100PRSWM3Q02+000003PRSWM1Q03    003PRSWM1
0278724075137352000082007543+39367-075083FM-15+0021MIV  V0203005N00155220005MN0096005N1+01225+01225101985ADDGF100991999999999999999999MA1102005999999MW1001REMMET076KMIV 200754Z AUTO 30003KT 6SM CLR 12/12 A3012 RMK AO2 SLP198 T01220122 TSNO;EQDQ01+000000PRSWM2QNNAA1D0 00000BA1 0 00000GA1U0 99999KA1D0 00054JA1 0 00122LA1 0 00600CA1 0 03012QA1 0 10198SA1D0 00054RA1 0 00122YA1 0 30003
0644724075137352000082304596+39367-075067SOD  +0023KMIV V020999999999999999999999999999+99999+99999999999ADDAA124000395KA1240M+02445KA2240N+00895MG1102139999994OE11240049225014225OE22240040224014225OE33240010799999995REMSOD52324 HR PRECIPITATION (IN): 0.01 24 HR MAX TEMP (F): 7624 HR MAX TEMP TIME (LST):1518 24 HR MIN TEMP (F): 4824 HR MIN TEMP TIME (LST):0353 AVERAGE STATION PRESSURE:30.16  PEAK WIND SPEED (MPH): 11 PEAK WIND DIR (DEG):250 PEAK WIND TIME (LST):1422  FASTEST 2MIN SPEED (MPH):  9FASTEST 2MIN DIR (DEG):240 FASTEST 2MIN TIME (LST):1422 AVERAGE WIND SPEED (MPH): 2.4 HOURLY INCREMENTAL PRECIPITATION VALUES (IN):.00  .00  .00  .00  .00  .01  .00  .00  .00  .00  .00  .00  .00  .00  .00  .00  .00  .00  .00  .00  .00  .00  .00  .00
0071724075137352000082314009+39367-075083NSRDB+002199999V020999999999999999999999999999+99999+99999999999ADDGP10060047402008042202015023002008GQ100600547910599GR100600771913379
0071724075137352000082515009+39367-075083NSRDB+002199999V020999999999999999999999999999+99999+99999999999ADDGP10060040602008009102015034102008GQ100600445912029GR100600953913389
0296724075137352000082613543+39367-075083FM-15+0021MIV  V0209999V00155220005MN0160005N1+02395+01615101665ADDGF100991999999999999999999MA1101665999999MW1001REMMET067KMIV 261354Z VRB03KT 10SM CLR 24/16 A3002 RMK AO2 SLP166 T02390161;EQDQ01+000000PRSWM2N01 00000JPWTH 0QNNAA1D0 00000BA1 0 00000GA1U0 99999KA1D0 00061JA1 0 00161LA1 0 01000CA1 0 03002NA1 0 00000QA1 0 10166SA1D0 00075RA1 0 00239YA1 0 00003
0071724075137352000082617009+39367-075083NSRDB+002199999V020999999999999999999999999999+99999+99999999999ADDGP10060069202008037902015036402008GQ100600303916449GR100601155913389
0410724075137352000082915543+39367-075083FM-15+0021MIV  V0200805N00935007625MN9999999N1+02615+02115101945ADDGD13995+0076259GD23995+0103659GF107991999999999999999999MA1101965999999MW1101MW2455OC101181REMMET083KMIV 291554Z 08018G23KT 10SM BR BKN025 BKN034 26/21 A3011 RMK AO2 SLP194 T02610211;EQDQ01+000003PRSWM1Q02    003PRSWM1N01 00070JPWTH 0P010160002VODIS QNNAA1D0 04025BA1 0 04025AA1D0 04034BA1 0 04034GA1 0 00025KA1D0 00070JA1 0 00211LA1 0 01000CA1 0 03011NA1 0 00070QA1 0 10194SA1D0 00079RA1 0 00261YA1 0 08018
0176724075137352000083009294+39360-075060FM-16+0025KMIV V0200101N003110003019N0044251N1+02101+02101999999ADDGD14991+0003019GF108991999999999999999999MA1101901999999MW1101REMMET067KMIV 300929Z 01006KT 2SM BR OVC001 21/21 A3009 RMK AO2 VIS 1 3/4V3;EQDQ01+000003PRSWM1Q02    003PRSWM1
0219724075137352000083010013+39360-075060FM-16+0025KMIV V0200201N003610003019N0040231N1+02101+02101999999ADDGD14991+0003019GF108991999999999999999999GP10060000002000000002000000002000GR100600000900009MA1101931999999MW1101REMMET059KMIV 301001Z 02007KT 2 1/2SM BR OVC001 21/21 A3010 RMK AO2;EQDQ01+000003PRSWM1Q02    003PRSWM1
0372724075137352000090117543+39367-075083FM-15+0021MIV  V0201605N00315220005MN0160005N1+02945+02335101825ADDGD12995+0070159GF104991999999999999999999KA1999M+02941KA2999N+02331MA1101835999999MD1810131+9999MW1001REMMET088KMIV 011754Z 16006KT 10SM SCT023 29/23 A3007 RMK AO2 SLP182 T02940233 10294 20233 58013;EQDQ01+000000PRSWM2N01 00000JPWTH 0QNNAA1D0 02023BA1 0 02023GA1U0 99999KA1D0 00074JA1 0 00233LA1 0 01000CA1 0 03007NA1 0 00000QA1 0 10182SA1D0 00085RA1 0 00294YA1 0 16006
0394724075137352000090517543+39367-075083FM-15+0021MIV  V0200505N00625015245MN0160005N1+01895+01005102435ADDGD13995+0152459GF107991999999999999999999KA1999M+01891KA2999N+01391MA1102445999999MD1110061+9999MW1001OC100931REMMET102KMIV 051754Z 05012G18KT 10SM BKN050 19/10 A3025 RMK AO2 WSHFT 1701 SLP243 T01890100 10189 20139 51006;EQDQ01+000000PRSWM2N01 00000JPWTH 0QNNAA1D0 04050BA1 0 04050GA1 0 00050KA1D0 00050JA1 0 00100LA1 0 01000CA1 0 03025NA1 0 00000QA1 0 10243SA1D0 00066RA1 0 00189YA1 0 05012
0054724075137352000090806009+39367-075083NSRDB+002199999V020999999999999999999999999999+99999+99999999999ADDGP10060000002000000002000000002000GR100600000900009
0389724075137352000090917543+39367-075083FM-15+0021MIV  V0209999V00315220005MN0160005N1+02615+01895101945ADDAA106000391GD11995+0082359GF102991999999999999999999KA1999M+02611KA2999N+01941MA1101965999999MD1810091+9999MW1001REMMET094KMIV 091754Z VRB06KT 10SM FEW027 26/19 A3011 RMK AO2 SLP194 60001 T02610189 10261 20194 58009;EQDQ01+000000PRSWM2N01 00000JPWTH 0QNNAA1D0 02027BA1 0 01027GA1U0 99999KA1D0 00066JA1 0 00189LA1 0 01000CA1 0 03011NA1 0 00000QA1 0 10194SA1D0 00079RA1 0 00261YA1 0 00006
0460724075137352000091008543+39367-075083FM-15+0021MIV  V0209999C00005000305MN0024005N1+01615+01615101975ADDGD13995+0003059GD23995+0018359GD34995+0146359GF108991999999999999999999MA1101965999999MD1110021+9999MW1101MW2455REMMET106KMIV 100854Z 00000KT 1 1/2SM BR BKN001 BKN006 OVC048 16/16 A3011 RMK AO2 VIS 3/4V3 SLP197 T01610161 51002;EQDQ01+000003PRSWM1Q02    003PRSWM1N01 00070JPWTH 0QNNAA1D0 04001BA1 0 04001AA1D0 04006BA1 0 04006AA1D0 06048BA1 0 06048GA1 0 00001KA1D0 00061JA1 0 00161LA1 0 00150CA1 0 03011NA1 0 00070QA1 0 10197SA1D0 00061RA1 0 00161YA1 0 00000
0054724075137352000091406009+39367-075083NSRDB+002199999V020999999999999999999999999999+99999+99999999999ADDGP10060000002000000002000000002000GR100600000900009
0296724075137352000091407543+39367-075083FM-15+0021MIV  V0209999C00005220005MN0160005N1+01115+01065101545ADDGF100991999999999999999999MA1101525999999MW1001REMMET067KMIV 140754Z 00000KT 10SM CLR 11/11 A2998 RMK AO2 SLP154 T01110106;EQDQ01+000000PRSWM2N01 00000JPWTH 0QNNAA1D0 00000BA1 0 00000GA1U0 99999KA1D0 00051JA1 0 00106LA1 0 01000CA1 0 02998NA1 0 00000QA1 0 10154SA1D0 00052RA1 0 00111YA1 0 00000
0449724075137352000091504543+39367-075083FM-15+0021MIV  V0201605N00465027435MN0160005N1+02285+02005100675ADDGD12995+0182959GD23995+0274359GD33995+0335359GF107991999999999999999999KA1999M+02721KA2999N+01001MA1100685999999MW1001OC100821REMMET097KMIV 150454Z 16009G16KT 10SM SCT060 BKN090 BKN110 23/20 A2973 RMK AO2 SLP067 T02280200 402720100;EQDQ01+000000PRSWM2N01 00000JPWTH 0QNNAA1D0 02060BA1 0 02060AA1D0 04090BA1 0 04090AA1D0 04110BA1 0 04110GA1 0 00090KA1D0 00068JA1 0 00200LA1 0 01000CA1 0 02973NA1 0 00000QA1 0 10067SA1D0 00073RA1 0 00228YA1 0 16009
0296724075137352000091800543+39367-075083FM-15+0021MIV  V0202405N00215220005MN0160005N1+01565+00945101765ADDGF100991999999999999999999MA1101765999999MW1001REMMET067KMIV 180054Z 24004KT 10SM CLR 16/09 A3005 RMK AO2 SLP176 T01560094;EQDQ01+000000PRSWM2N01 00000JPWTH 0QNNAA1D0 00000BA1 0 00000GA1U0 99999KA1D0 00049JA1 0 00094LA1 0 01000CA1 0 03005NA1 0 00000QA1 0 10176SA1D0 00060RA1 0 00156YA1 0 24004
0071724075137352000091913009+39367-075083NSRDB+002199999V020999999999999999999999999999+99999+99999999999ADDGP10060006702008000002015006702008GQ100600708910499GR100600445913559
0402724075137352000091914543+39367-075083FM-15+0021MIV  V0200905N00525000915MN0032005N1+02065+02065101335ADDAA101000391AA203001891GD14995+0009159GF108991999999999999999999MA1101325999999MD1810241+9999MW1101MW2455MW3615REMMET094KMIV 191454Z 09010KT 2SM -RA BR OVC003 21/21 A2992 RMK AO2 SLP133 P0001 60007 T02060206 58024;EQDQ01+000003PRSWM1Q02    003PRSWM1N01 02070JPWTH 0QNNAA1D0 06003BA1 0 06003GA1 0 00003KA1D0 00069JA1 0 00206LA1 0 00200CA1 0 02992NA1 0 02070QA1 0 10133SA1D0 00069RA1 0 00206YA1 0 09010
0316724075137352000092208543+39367-075083FM-15+0021MIV  V0202605N00155220005MN0160005N1+01115+00895102015ADDGF100991999999999999999999MA1102005999999MD1310131+9999MW1001REMMET073KMIV 220854Z 26003KT 10SM CLR 11/09 A3012 RMK AO2 SLP201 T01110089 53013;EQDQ01+000000PRSWM2N01 00000JPWTH 0QNNAA1D0 00000BA1 0 00000GA1U0 99999KA1D0 00048JA1 0 00089LA1 0 01000CA1 0 03012NA1 0 00000QA1 0 10201SA1D0 00052RA1 0 00111YA1 0 26003
0146724075137352000092308374+39360-075060FM-16+0025KMIV V0209999C000010090019N0160931N1+01701+01401999999ADDGD14991+0090019GF108991999999999999999999MA1101861999999MW1001REMMET053KMIV 230837Z 00000KT 10SM OVC030 17/14 A3008 RMK AO2;EQDQ01+000000PRSWM2
0337724075137352000092509543+39367-075083FM-15+0021MIV  V0203505N00155018295MN0160005N1+01225+01065101315ADDAA101000391GD14995+0182959GF108991999999999999999999MA1101325999999MW1001REMMET082KMIV 250954Z 35003KT 10SM OVC060 12/11 A2992 RMK AO2 RAE43 SLP131 P0001 T01220106;EQDQ01+000000PRSWM2N01 00000JPWTH 0QNNAA1D0 06060BA1 0 06060GA1 0 00060KA1D0 00051JA1 0 00106LA1 0 01000CA1 0 02992NA1 0 00000QA1 0 10131SA1D0 00054RA1 0 00122YA1 0 35003
0229724075137352000092600544+39360-075060FM-15+0025KMIV V0200501N005710063019N0048281N1+01101+01001101001ADDAA101006691GD13991+0063019GD24991+0090019GF108991999999999999999999MA1101021999999MW1101MW2631REMMET088KMIV 260054Z 05011KT 3SM RA BR BKN021 OVC030 11/10 A2983 RMK AO2 SLP100 P0026 T01060100;EQDQ01+000003PRSWM1Q02    003PRSWM1
0348724075137352000092619543+39367-075083FM-15+0021MIV  V0203605N00725004575MN0160005N1+01175+01005101245ADDAA101000021GD14995+0045759GF108991999999999999999999MA1101255999999MW1001OC100931REMMET085KMIV 261954Z 36014G18KT 10SM OVC015 12/10 A2990 RMK AO2 RAE01 SLP124 P0000 T01170100;EQDQ01+000000PRSWM2N01 00000JPWTH 0QNNAA1D0 06015BA1 0 06015GA1 0 00015KA1D0 00050JA1 0 00100LA1 0 01000CA1 0 02990NA1 0 00000QA1 0 10124SA1D0 00053RA1 0 00117YA1 0 36014
0054724075137352000092907009+39367-075083NSRDB+002199999V020999999999999999999999999999+99999+99999999999ADDGP10060000002000000002000000002000GR100600000900009
0054724075137352000100310009+39367-075083NSRDB+002199999V020999999999999999999999999999+99999+99999999999ADDGP10060000002000000002000000002000GR100600000900009
0198724075137352000100613404+39360-075060FM-16+0025KMIV V0202401N00311001201CN0032181N1+02101+01901999999ADDGD13991+0018019GD23991+0033019GF107991999999999999999999MA1100981999999MW1101REMMET074KMIV 061340Z 24006KT 2SM BR BKN006 BKN011 21/19 A2982 RMK AO2 CIG 004V009;EQDQ01+000003PRSWM1Q02    003PRSWM1
0371724075137352000100705543+39367-075083FM-15+0021MIV  V0203005N00215220005MN0160005N1+01175+01065101565ADDAA106000021GF100991999999999999999999KA1999M+01781KA2999N+01111MA1101565999999MD1310101+9999MW1001REMMET091KMIV 070554Z 30004KT 10SM CLR 12/11 A2999 RMK AO2 SLP156 60000 T01170106 10178 20111 53010;EQDQ01+000000PRSWM2N01 00000JPWTH 0QNNAA1D0 00000BA1 0 00000GA1U0 99999KA1D0 00051JA1 0 00106LA1 0 01000CA1 0 02999NA1 0 00000QA1 0 10156SA1D0 00053RA1 0 00117YA1 0 30004
0054724075137352000100802009+39367-075083NSRDB+002199999V020999999999999999999999999999+99999+99999999999ADDGP10060000002000000002000000002000GR100600000900009
0071724075137352000100818009+39367-075083NSRDB+002199999V020999999999999999999999999999+99999+99999999999ADDGP10060068102008079602015013402008GQ100600467919459GR100600939913709
0296724075137352000100922543+39367-075083FM-15+0021MIV  V0209999C00005220005MN0160005N1+00285+00005101945ADDGF100991999999999999999999MA1101935999999MW1001REMMET067KMIV 092254Z 00000KT 10SM CLR 03/00 A3010 RMK AO2 SLP194 T00280000;EQDQ01+000000PRSWM2N01 00000JPWTH 0QNNAA1D0 00000BA1 0 00000GA1U0 99999KA1D0 00032JA1 0 00000LA1 0 01000CA1 0 03010NA1 0 00000QA1 0 10194SA1D0 00037RA1 0 00028YA1 0 00000
0071724075137352000101018009+39367-075083NSRDB+002199999V020999999999999999999999999999+99999+99999999999ADDGP10060023702008001202015022902008GQ100600475919449GR100600926913729
0054724075137352000101307009+39367-075083NSRDB+002199999V020999999999999999999999999999+99999+99999999999ADDGP10060000002000000002000000002000GR100600000900009
0296724075137352000101513543+39367-075083FM-15+0021MIV  V0202905N00215220005MN0160005N1+01895+01005101835ADDGF100991999999999999999999MA1101835999999MW1001REMMET067KMIV 151354Z 29004KT 10SM CLR 19/10 A3007 RMK AO2 SLP183 T01890100;EQDQ01+000000PRSWM2N01 00000JPWTH 0QNNAA1D0 00000BA1 0 00000GA1U0 99999KA1D0 00050JA1 0 00100LA1 0 01000CA1 0 03007NA1 0 00000QA1 0 10183SA1D0 00066RA1 0 00189YA1 0 29004
0071724075137352000101514009+39367-075083NSRDB+002199999V020999999999999999999999999999+99999+99999999999ADDGP10060022702008010002015018702008GQ100600662912549GR100600556913769
0316724075137352000101614543+39367-075083FM-15+0021MIV  V0200805N00465220005MN0160005N1+01945+01505102035ADDGF100991999999999999999999MA1102035999999MD1110101+9999MW1001REMMET073KMIV 161454Z 08009KT 10SM CLR 19/15 A3013 RMK AO2 SLP203 T01940150 51010;EQDQ01+000000PRSWM2N01 00000JPWTH 0QNNAA1D0 00000BA1 0 00000GA1U0 99999KA1D0 00059JA1 0 00150LA1 0 01000CA1 0 03013NA1 0 00000QA1 0 10203SA1D0 00067RA1 0 00194YA1 0 08009
0071724075137352000102016009+39367-075083NSRDB+002199999V020999999999999999999999999999+99999+99999999999ADDGP10060059202008079802015011002008GQ100600530915689GR100600829913809
0071724075137352000102020009+39367-075083NSRDB+002199999V020999999999999999999999999999+99999+99999999999ADDGP10060041202008064002015012102008GQ100600631922659GR100600625913809
0296724075137352000102115543+39367-075083FM-15+0021MIV  V0209999V00215220005MN0160005N1+02005+01225102175ADDGF100991999999999999999999MA1102175999999MW1001REMMET067KMIV 211554Z VRB04KT 10SM CLR 20/12 A3017 RMK AO2 SLP217 T02000122;EQDQ01+000000PRSWM2N01 00000JPWTH 0QNNAA1D0 00000BA1 0 00000GA1U0 99999KA1D0 00054JA1 0 00122LA1 0 01000CA1 0 03017NA1 0 00000QA1 0 10217SA1D0 00068RA1 0 00200YA1 0 00004
0296724075137352000102301543+39367-075083FM-15+0021MIV  V0209999C00005220005MN0160005N1+00285+00175103345ADDGF100991999999999999999999MA1103355999999MW1001REMMET067KMIV 230154Z 00000KT 10SM CLR 03/02 A3052 RMK AO2 SLP334 T00280017;EQDQ01+000000PRSWM2N01 00000JPWTH 0QNNAA1D0 00000BA1 0 00000GA1U0 99999KA1D0 00035JA1 0 00017LA1 0 01000CA1 0 03052NA1 0 00000QA1 0 10334SA1D0 00037RA1 0 00028YA1 0 00000
0296724075137352000102310543+39367-075083FM-15+0021MIV  V0209999C00005220005MN0160005N1+00115+00005103565ADDGF100991999999999999999999MA1103565999999MW1001REMMET067KMIV 231054Z 00000KT 10SM CLR 01/00 A3058 RMK AO2 SLP356 T00110000;EQDQ01+000000PRSWM2N01 00000JPWTH 0QNNAA1D0 00000BA1 0 00000GA1U0 99999KA1D0 00032JA1 0 00000LA1 0 01000CA1 0 03058NA1 0 00000QA1 0 10356SA1D0 00034RA1 0 00011YA1 0 00000
0333724075137352000102404543+39367-075083FM-15+0021MIV  V0209999C00005220005MN0160005N1+00225-00065103305ADDGF100991999999999999999999KA1999M+01781KA2999N+00061MA1103325999999MW1001REMMET078KMIV 240454Z 00000KT 10SM CLR 02/M01 A3051 RMK AO2 SLP330 T00221006 401780006;EQDQ01+000000PRSWM2N01 00000JPWTH 0QNNAA1D0 00000BA1 0 00000GA1U0 99999KA1D0 00031JA1 0-00006LA1 0 01000CA1 0 03051NA1 0 00000QA1 0 10330SA1D0 00036RA1 0 00022YA1 0 00000
0071724075137352000102417009+39367-075083NSRDB+002199999V020999999999999999999999999999+99999+99999999999ADDGP10060056302008055902015021502008GQ100600516917559GR100600858913839
0054724075137352000102603009+39367-075083NSRDB+002199999V020999999999999999999999999999+99999+99999999999ADDGP10060000002000000002000000002000GR100600000900009
0296724075137352000102721543+39367-075083FM-15+0021MIV  V0200105N00215220005MN0160005N1+01895+01285101405ADDGF100991999999999999999999MA1101395999999MW1001REMMET067KMIV 272154Z 01004KT 10SM CLR 19/13 A2994 RMK AO2 SLP140 T01890128;EQDQ01+000000PRSWM2N01 00000JPWTH 0QNNAA1D0 00000BA1 0 00000GA1U0 99999KA1D0 00055JA1 0 00128LA1 0 01000CA1 0 02994NA1 0 00000QA1 0 10140SA1D0 00066RA1 0 00189YA1 0 01004
0071724075137352000102814009+39367-075083NSRDB+002199999V020999999999999999999999999999+99999+99999999999ADDGP10060030202008057102015010102008GQ100600694912899GR100600487913869
0054724075137352000103100009+39367-075083NSRDB+002199999V020999999999999999999999999999+99999+99999999999ADDGP10060000002000000002000000002000GR100600000900009
0298724075137352000110221543+39367-075083FM-15+0021MIV  V0209999C00005220005MN0160005N1+01285+00005101785ADDGF100991999999999999999999MA1101795999999MW1001REMMET069KMIV 022154Z 00000KT 10SM CLR 13/00 A3006 RMK AO2 SLP178 T01280000 $;EQDQ01+000000PRSWM2N01 00000JPWTH 0QNNAA1D0 00000BA1 0 00000GA1U0 99999KA1D0 00032JA1 0 00000LA1 0 01000CA1 0 03006NA1 0 00000QA1 0 10178SA1D0 00055RA1 0 00128YA1 0 00000
0333724075137352000110304543+39367-075083FM-15+0021MIV  V0209999C00005220005MN0160005N1+00225-00065101905ADDGF100991999999999999999999KA1999M+01831KA2999N-00061MA1101905999999MW1001REMMET078KMIV 030454Z 00000KT 10SM CLR 02/M01 A3009 RMK AO2 SLP190 T00221006 401831006;EQDQ01+000000PRSWM2N01 00000JPWTH 0QNNAA1D0 00000BA1 0 00000GA1U0 99999KA1D0 00031JA1 0-00006LA1 0 01000CA1 0 03009NA1 0 00000QA1 0 10190SA1D0 00036RA1 0 00022YA1 0 00000
0296724075137352000110418543+39367-075083FM-15+0021MIV  V0202905N00525220005MN0160005N1+01835+00395101195ADDGF100991999999999999999999MA1101195999999MW1001REMMET067KMIV 041854Z 29010KT 10SM CLR 18/04 A2988 RMK AO2 SLP119 T01830039;EQDQ01+000000PRSWM2N01 00000JPWTH 0QNNAA1D0 00000BA1 0 00000GA1U0 99999KA1D0 00039JA1 0 00039LA1 0 01000CA1 0 02988NA1 0 00000QA1 0 10119SA1D0 00065RA1 0 00183YA1 0 29010
0297724075137352000110600543+39367-075083FM-15+0021MIV  V0203205N00215220005MN0160005N1+00725-00175101505ADDGF100991999999999999999999MA1101495999999MW1001REMMET068KMIV 060054Z 32004KT 10SM CLR 07/M02 A2997 RMK AO2 SLP150 T00721017;EQDQ01+000000PRSWM2N01 00000JPWTH 0QNNAA1D0 00000BA1 0 00000GA1U0 99999KA1D0 00029JA1 0-00017LA1 0 01000CA1 0 02997NA1 0 00000QA1 0 10150SA1D0 00045RA1 0 00072YA1 0 32004
0054724075137352000110608009+39367-075083NSRDB+002199999V020999999999999999999999999999+99999+99999999999ADDGP10060000002000000002000000002000GR100600000900009
0316724075137352000110720543+39367-075083FM-15+0021MIV  V0202805N00365220005MN0160005N1+01445+00225101675ADDGF100991999999999999999999MA1101665999999MD1610101+9999MW1001REMMET073KMIV 072054Z 28007KT 10SM CLR 14/02 A3002 RMK AO2 SLP167 T01440022 56010;EQDQ01+000000PRSWM2N01 00000JPWTH 0QNNAA1D0 00000BA1 0 00000GA1U0 99999KA1D0 00036JA1 0 00022LA1 0 01000CA1 0 03002NA1 0 00000QA1 0 10167SA1D0 00058RA1 0 00144YA1 0 28007
0054724075137352000110806009+39367-075083NSRDB+002199999V020999999999999999999999999999+99999+99999999999ADDGP10060000002000000002000000002000GR100600000900009
0334724075137352000110914543+39367-075083FM-15+0021MIV  V0201505N00155220005MN0160005N1+01565+00725101435ADDGD12995+0109759GF104991999999999999999999MA1101425999999MD1810051+9999MW1001REMMET076KMIV 091454Z 15003KT 10SM SCT036 16/07 A2995 RMK AO2 SLP143 T01560072 58005;EQDQ01+000000PRSWM2N01 00000JPWTH 0QNNAA1D0 02036BA1 0 02036GA1U0 99999KA1D0 00045JA1 0 00072LA1 0 01000CA1 0 02995NA1 0 00000QA1 0 10143SA1D0 00060RA1 0 00156YA1 0 15003
0369724075137352000111101543+39367-075083FM-15+0021MIV  V0202805N00625014025MN0160005N1+01175+00675100545ADDGD13995+0140259GD24995+0167659GF108991999999999999999999MA1100545999999MW1001OC100981REMMET080KMIV 110154Z 28012G19KT 10SM BKN046 OVC055 12/07 A2969 RMK AO2 SLP054 T01170067;EQDQ01+000000PRSWM2N01 00000JPWTH 0QNNAA1D0 04046BA1 0 04046AA1D0 06055BA1 0 06055GA1 0 00046KA1D0 00044JA1 0 00067LA1 0 01000CA1 0 02969NA1 0 00000QA1 0 10054SA1D0 00053RA1 0 00117YA1 0 28012
0071724075137352000111118009+39367-075083NSRDB+002199999V020999999999999999999999999999+99999+99999999999ADDGP10060034702008011902015028402008GQ100600581919289GR100600738913969
0372724075137352000111205543+39367-075083FM-15+0021MIV  V0203305N00265220005MN0160005N1+00725+00395101565ADDGF100991999999999999999999KA1999M+01061KA2999N+00721MA1101565999999MW1001REMMET085KMIV 120554Z 33005KT 10SM CLR 07/04 A2999 RMK AO2 SLP156 T00720039 10106 20072 58000;EQDQ01+000082APCTENQ02+000002APC3  Q03+000000PRSWM2N01 00000JPWTH 0QNNAA1D0 00000BA1 0 00000GA1U0 99999KA1D0 00039JA1 0 00039LA1 0 01000CA1 0 02999NA1 0 00000QA1 0 10156SA1D0 00045RA1 0 00072YA1 0 33005
0314724075137352000111309543+39367-075083FM-15+0021MIV  V0209999C00005220005MN0160005N1+00445+00445101755ADDGD11995+0097559GF102991999999999999999999MA1101765999999MW1001REMMET070KMIV 130954Z 00000KT 10SM FEW032 04/04 A3005 RMK AO2 SLP175 T00440044;EQDQ01+000000PRSWM2N01 00000JPWTH 0QNNAA1D0 02032BA1 0 01032GA1U0 99999KA1D0 00040JA1 0 00044LA1 0 01000CA1 0 03005NA1 0 00000QA1 0 10175SA1D0 00040RA1 0 00044YA1 0 00000
0054724075137352000111707009+39367-075083NSRDB+002199999V020999999999999999999999999999+99999+99999999999ADDGP10060000002000000002000000002000GR100600000900009
0315724075137352000111906543+39367-075083FM-15+0021MIV  V0202905N00315220005MN0160005N1+00115-00395101925ADDGD11995+0304859GF102991999999999999999999MA1101905999999MW1001REMMET071KMIV 190654Z 29006KT 10SM FEW100 01/M04 A3009 RMK AO2 SLP192 T00111039;EQDQ01+000000PRSWM2N01 00000JPWTH 0QNNAA1D0 02100BA1 0 01100GA1U0 99999KA1D0 00025JA1 0-00039LA1 0 01000CA1 0 03009NA1 0 00000QA1 0 10192SA1D0 00034RA1 0 00011YA1 0 29006
0298724075137352000112312543+39367-075083FM-15+0021MIV  V0202905N00365220005MN0160005N1-00335-01175102705ADDGF100991999999999999999999MA1102685999999MW1001REMMET069KMIV 231254Z 29007KT 10SM CLR M03/M12 A3032 RMK AO2 SLP270 T10331117;EQDQ01+000000PRSWM2N01 00000JPWTH 0QNNAA1D0 00000BA1 0 00000GA1U0 99999KA1D0 00011JA1 0-00117LA1 0 01000CA1 0 03032NA1 0 00000QA1 0 10270SA1D0 00026RA1 0-00033YA1 0 29007
0334724075137352000112404543+39367-075083FM-15+0021MIV  V0209999C00005220005MN0160005N1-00835-01115102905ADDGF100991999999999999999999KA1999M+00221KA2999N-00891MA1102885999999MW1001REMMET079KMIV 240454Z 00000KT 10SM CLR M08/M11 A3038 RMK AO2 SLP290 T10831111 400221089;EQDQ01+000000PRSWM2N01 00000JPWTH 0QNNAA1D0 00000BA1 0 00000GA1U0 99999KA1D0 00012JA1 0-00111LA1 0 01000CA1 0 03038NA1 0 00000QA1 0 10290SA1D0 00017RA1 0-00083YA1 0 00000
0180724075137352000112620474+39360-075060FM-16+0025KMIV V0202501N00621002101CN0160931N1+01301+01301999999ADDGD13991+0027019GD24991+0042019GF108991999999999999999999MA1100341999999MW1001REMMET072KMIV 262047Z 25012KT 10SM BKN009 OVC014 13/13 A2963 RMK AO2 CIG 007V012;EQDQ01+000000PRSWM2
0054724075137352000112708009+39367-075083NSRDB+002199999V020999999999999999999999999999+99999+99999999999ADDGP10060000002000000002000000002000GR100600000900009
0054724075137352000112807009+39367-075083NSRDB+002199999V020999999999999999999999999999+99999+99999999999ADDGP10060000002000000002000000002000GR100600000900009
0054724075137352000112811009+39367-075083NSRDB+002199999V020999999999999999999999999999+99999+99999999999ADDGP10060000002000000002000000002000GR100600000900009
0317724075137352000112908543+39367-075083FM-15+0021MIV  V0202505N00265220005MN0160005N1+00005-00175102035ADDGF100991999999999999999999MA1102035999999MD1010041+9999MW1001REMMET074KMIV 290854Z 25005KT 10SM CLR 00/M02 A3013 RMK AO2 SLP203 T00001017 50004;EQDQ01+000000PRSWM2N01 00000JPWTH 0QNNAA1D0 00000BA1 0 00000GA1U0 99999KA1D0 00029JA1 0-00017LA1 0 01000CA1 0 03013NA1 0 00000QA1 0 10203SA1D0 00032RA1 0 00000YA1 0 25005
0071724075137352000113014009+39367-075083NSRDB+002199999V020999999999999999999999999999+99999+99999999999ADDGP10060012502009008502021010502009GQ100600768913339GR100600321914079
