0091162430999992000022910004+41550+012900FM-15+0026LIRL V0202201N00101220001CN0099001N1+01201+00501999999ADDMA1103121999999MW1001REMMET039LIRL 291000Z 22002KT CAVOK 12/05 Q1031;EQDQ01+000000PRSWM2
0187162430999992000030121004+41550+012900FM-15+0026LIRL V0202001N004110210019N0090001N1+01201+01001999999ADDGA1021+004509999GA2071+021009999GF107991999999999999999999MA1100911999999MW1001REMMET077LIRL 012100Z 20008KT 9000 SCT015 BKN070 12/10 Q1009 RMK OVC MON INVIS NC BLU;EQDQ01+000000PRSWM2
0162162430999992000030423004+41550+012900FM-15+0026LIRL V0201301N002110105019N0112651N1+01101+00901999999ADDGA1021+004509999GA2071+010509999GF107991999999999999999999MA1101691999999MW1001REMMET052LIRL 042300Z 13004KT 9999 SCT015 BKN035 11/09 Q1017;EQDQ01+000000PRSWM2
0162162430999992000030502004+41550+012900FM-15+0026LIRL V0200601N000510090019N0112651N1+01101+00701999999ADDGA1021+004509999GA2071+009009999GF107991999999999999999999MA1101801999999MW1001REMMET052LIRL 050200Z 06001KT 9999 SCT015 BKN030 11/07 Q1018;EQDQ01+000000PRSWM2
0117162430999992000030807004+41550+012900FM-15+0026LIRL V0209999C00001220001CN0099001N1+00401+00301999999ADDMA1102911999999MW1001REMMET065LIRL 080700Z 00000KT CAVOK 04/03 Q1029 RMK SCT200 MON LIB NC BLU;EQDQ01+000000PRSWM2
0187162430999992000031021004+41550+012900FM-15+0026LIRL V0209999C000012200019N0070001N1+01101+01001999999ADDGA1021+005409999GA2021+009009999GF104991999999999999999999MA1102001999999MW1001REMMET077LIRL 102100Z 00000KT 7000 SCT018 SCT030 11/10 Q1020 RMK OVC MON INVIS NC WHT;EQDQ01+000000PRSWM2
0214162430999992000032519004+41550+012900FM-15+0026LIRL V0209999C000012200019N0060001N1+01101+00901999999ADDGA1021+006009999GA2021+021009999GF104991999999999999999999MA1101901999999MW1611REMMET088LIRL 251900Z 00000KT 6000 -RA SCT020 SCT070 11/09 Q1019 RMK BKN MON INVIS VAR RAPID WHT;EQDQ01+000003PRSWM1Q02    003PRSWM1
0187162430999992000040501004+41550+012900FM-15+0026LIRL V0203001N004112200019N0112651N1+01201+01001999999ADDGA1021+012009999GA2021+024009999GF104991999999999999999999MA1099701999999MW1001REMMET077LIRL 050100Z 30008KT 9999 SCT040 SCT080 12/10 Q0997 RMK OVC MON INVIS NC BLU;EQDQ01+000000PRSWM2
0171162430999992000040619004+41550+012900FM-15+0026LIRL V0202901N002112200019N0112651N1+01201+01001999999ADDGA1021+005409999GF102991999999999999999999MA1101491999999MW1001REMMET077LIRL 061900Z 29004KT 9999 FEW018 12/10 Q1015 RMK SCT MON INVIS VAR RAPID BLU;EQDQ01+000000PRSWM2
0164162430999992000041322004+41550+012900FM-15+0026LIRL V0201301N001512200019N0112651N1+01301+01101999999ADDGA1021+006009999GF104991999999999999999999MA1101291999999MW1001REMMET070LIRL 132200Z 13003KT 9999 SCT020 13/11 Q1013 RMK SCT MON INVIS NC BLU;EQDQ01+000000PRSWM2
0185162430999992000041418004+41550+012900FM-15+0026LIRL V0201501N004110600019N0112651N1+01701+00901999999ADDGA1021+024009999GA2071+060009999GF107991999999999999999999MA1100811999999MW1001REMMET075LIRL 141800Z 15008KT 9999 FEW080 BKN200 17/09 Q1008 RMK OVC MON LIB NC BLU;EQDQ01+000000PRSWM2
0162162430999992000042512004+41550+012900FM-15+0026LIRL V0203201N003112200019N0112651N1+01801+00901999999ADDGA1021+006909999GF104991999999999999999999MA1101491999999MW1001REMMET068LIRL 251200Z 32006KT 9999 SCT023 18/09 Q1015 RMK BKN MON LIB NC BLU;EQDQ01+000000PRSWM2
0162162430999992000050116004+41550+012900FM-15+0026LIRL V0202401N003612200019N0112651N1+02101+01401999999ADDGA1021+012009999GF104991999999999999999999MA1101081999999MW1001REMMET068LIRL 011600Z 24007KT 9999 SCT040 21/14 Q1011 RMK SCT MON LIB NC BLU;EQDQ01+000000PRSWM2
0162162430999992000050315004+41550+012900FM-15+0026LIRL V0202801N003112200019N0112651N1+02101+01801999999ADDGA1021+006009999GF104991999999999999999999MA1101491999999MW1001REMMET068LIRL 031500Z 28006KT 9999 SCT020 21/18 Q1015 RMK BKN MON LIB NC BLU;EQDQ01+000000PRSWM2
0112162430999992000051600004+41550+012900FM-15+0026LIRL V0209999C00001220001CN0099001N1+01701+01601999999ADDMA1101801999999MW1001REMMET060LIRL 160000Z 00000KT CAVOK 17/16 Q1018 RMK MON INVIS NC BLU;EQDQ01+000000PRSWM2
0119162430999992000051804004+41550+012900FM-15+0026LIRL V0202701N00051220001CN0099001N1+01201+01101999999ADDMA1101391999999MW1001REMMET067LIRL 180400Z 27001KT CAVOK 12/11 Q1014 RMK FEW200 MON INVIS NC BLU;EQDQ01+000000PRSWM2
0110162430999992000051819004+41550+012900FM-15+0026LIRL V0209999C00001220001CN0099001N1+02201+01601999999ADDMA1101191999999MW1001REMMET058LIRL 181900Z 00000KT CAVOK 22/16 Q1012 RMK MON LIB NC BLU;EQDQ01+000000PRSWM2
0112162430999992000051921004+41550+012900FM-15+0026LIRL V0209999C00001220001CN0099001N1+01601+01301999999ADDMA1101081999999MW1001REMMET060LIRL 192100Z 00000KT CAVOK 16/13 Q1011 RMK MON INVIS NC BLU;EQDQ01+000000PRSWM2
0185162430999992000052515004+41550+012900FM-15+0026LIRL V0202101N003112200019N0112651N1+02401+01501999999ADDGA1021+006009999GA2021+060009999GF104991999999999999999999MA1101591999999MW1001REMMET075LIRL 251500Z 21006KT 9999 FEW020 SCT200 24/15 Q1016 RMK SCT MON LIB NC BLU;EQDQ01+000000PRSWM2
0185162430999992000052616004+41550+012900FM-15+0026LIRL V0202201N002612200019N0112651N1+02401+01801999999ADDGA1021+006009999GA2021+060009999GF104991999999999999999999MA1101591999999MW1001REMMET075LIRL 261600Z 22005KT 9999 FEW020 SCT200 24/18 Q1016 RMK SCT MON LIB NC BLU;EQDQ01+000000PRSWM2
0162162430999992000052619004+41550+012900FM-15+0026LIRL V0202601N001512200019N0112651N1+02101+01801999999ADDGA1021+024009999GF102991999999999999999999MA1101491999999MW1001REMMET068LIRL 261900Z 26003KT 9999 FEW080 21/18 Q1015 RMK FEW MON LIB NC BLU;EQDQ01+000000PRSWM2
0112162430999992000060101004+41550+012900FM-15+0026LIRL V0203401N00101220001CN0099001N1+01601+01501999999ADDMA1101591999999MW1001REMMET060LIRL 010100Z 34002KT CAVOK 16/15 Q1016 RMK MON INVIS NC BLU;EQDQ01+000000PRSWM2
0112162430999992000060321004+41550+012900FM-15+0026LIRL V0203101N00151220001CN0099001N1+02001+01401999999ADDMA1102001999999MW1001REMMET060LIRL 032100Z 31003KT CAVOK 20/14 Q1020 RMK MON INVIS NC BLU;EQDQ01+000000PRSWM2
0112162430999992000060402004+41550+012900FM-15+0026LIRL V0200901N00051220001CN0099001N1+01601+01401999999ADDMA1102001999999MW1001REMMET060LIRL 040200Z 09001KT CAVOK 16/14 Q1020 RMK MON INVIS NC BLU;EQDQ01+000000PRSWM2
0162162430999992000061213004+41550+012900FM-15+0026LIRL V0201701N005112200019N0112651N1+02601+02001999999ADDGA1021+006009999GF104991999999999999999999MA1101801999999MW1001REMMET068LIRL 121300Z 17010KT 9999 SCT020 26/20 Q1018 RMK SCT MON LIB NC BLU;EQDQ01+000000PRSWM2
0112162430999992000062203004+41550+012890FM-15+0026LIRL V0209999C00001220001CN0099001N1+01501+01401999999ADDMA1101901999999MW1001REMMET060LIRL 220300Z 00000KT CAVOK 15/14 Q1019 RMK MON INVIS NC BLU;EQDQ01+000000PRSWM2
0185162430999992000062915004+41550+012890FM-15+0026LIRL V0202801N002112200019N0112651N1+02501+02301999999ADDGA1021+010509999GA2021+024009999GF104991999999999999999999MA1101021999999MW1001REMMET075LIRL 291500Z 28004KT 9999 SCT035 SCT080 25/23 Q1010 RMK BKN MON LIB NC BLU;EQDQ01+000000PRSWM2
0110162430999992000070211004+41550+012890FM-15+0026LIRL V0201401N00311220001CN0099001N1+02901+01901999999ADDMA1101801999999MW1001REMMET058LIRL 021100Z 14006KT CAVOK 29/19 Q1018 RMK MON LIB NC BLU;EQDQ01+000000PRSWM2
0110162430999992000070605004+41550+012890FM-15+0026LIRL V0203001N00051220001CN0099001N1+01801+01601999999ADDMA1101691999999MW1001REMMET058LIRL 060500Z 30001KT CAVOK 18/16 Q1017 RMK MON LIB NC BLU;EQDQ01+000000PRSWM2
0284162430999992000070806004+41550+012890SY-MT+0026LIRL V0201301N000512200019N0250001N1+02281+01921100811ADDAA199000091GF100991001001999999001001IA1019KA1120N+02001MA1100811100501MD1610041+9999MW1001REMSYN082AAXX  08064 16243 32975 01301 10228 20192 30050 40081 56004 90545 333 20200 30///;MET058LIRL 080600Z 13001KT CAVOK 23/19 Q1008 RMK MON LIB NC BLU;EQDQ01+000000PRSWM2Q02  00002PRCP99
0169162430999992000070904004+41550+012890FM-15+0026LIRL V0200801N001010105019N0112651N1+02001+01901999999ADDGA1071+010509999GF107991999999999999999999MA1100711999999MW1001REMMET075LIRL 090400Z 08002KT 9999 BKN035 20/19 Q1007 RMK BKN MON LIB VAR RAPID BLU;EQDQ01+000000PRSWM2
0194162430999992000071300004+41550+012890FM-12+0026LIRL V0202501N001512200019N0300001N1+01501+01341101251ADDAA106004191AY191061AY261061GA1001+999999999GF100991001001999999001001MA1999999100931MD1310011+9999MW1011REMSYN078AAXX  13004 16243 11980 02503 10150 20134 30093 40125 53001 60041 70196 92345;
0112162430999992000072201004+41550+012890FM-15+0026LIRL V0202801N00051220001CN0099001N1+01801+01501999999ADDMA1101591999999MW1001REMMET060LIRL 220100Z 28001KT CAVOK 18/15 Q1016 RMK MON INVIS NC BLU;EQDQ01+000000PRSWM2
0326162430999992000072418004+41550+012890SY-MT+0026LIRL V0201301N004612200019N0250001N1+02881+01561101501ADDAA199000091GA1021+024009999GF199999011001022501031001KA1120M+03061MA1101491101201MD1610131+9999MW1001REMSYN088AAXX  24184 16243 32875 11309 10288 20156 30120 40150 56013 81030 91745 333 10306 81358;MET068LIRL 241800Z 13009KT 9999 FEW080 29/16 Q1015 RMK FEW MON LIB NC BLU;EQDQ01+000012SCOTCVQ02+000000PRSWM2Q03  00002PRCP99
0112162430999992000080522004+41550+012890FM-15+0026LIRL V0209999C00001220001CN0099001N1+01801+01301999999ADDMA1101591999999MW1001REMMET060LIRL 052200Z 00000KT CAVOK 18/13 Q1016 RMK MON INVIS NC BLU;EQDQ01+000000PRSWM2
0112162430999992000081102004+41550+012890FM-15+0026LIRL V0209999C00001220001CN0099001N1+01901+01801999999ADDMA1101491999999MW1001REMMET060LIRL 110200Z 00000KT CAVOK 19/18 Q1015 RMK MON INVIS NC BLU;EQDQ01+000000PRSWM2
0112162430999992000081822004+41550+012890FM-15+0026LIRL V0209999C00001220001CN0099001N1+02501+02301999999ADDMA1101591999999MW1001REMMET060LIRL 182200Z 00000KT CAVOK 25/23 Q1016 RMK MON INVIS NC BLU;EQDQ01+000000PRSWM2
0117162430999992000082005004+41550+012890FM-15+0026LIRL V0209999C00001220001CN0099001N1+02001+01801999999ADDMA1101691999999MW1001REMMET065LIRL 200500Z 00000KT CAVOK 20/18 Q1017 RMK MON LIB VAR RAPID BLU;EQDQ01+000000PRSWM2
0110162430999992000082609004+41550+012890FM-15+0026LIRL V0209999C00001220001CN0099001N1+03101+02001999999ADDMA1101291999999MW1001REMMET058LIRL 260900Z 00000KT CAVOK 31/20 Q1013 RMK MON LIB NC BLU;EQDQ01+000000PRSWM2
0162162430999992000082910004+41550+012890FM-15+0026LIRL V0201801N002112200019N0112651N1+02701+02001999999ADDGA1021+007509999GF104991999999999999999999MA1101691999999MW1001REMMET068LIRL 291000Z 18004KT 9999 SCT025 27/20 Q1017 RMK SCT MON LIB NC BLU;EQDQ01+000000PRSWM2
0187162430999992000090721004+41550+012890FM-15+0026LIRL V0201601N000512200019N0112651N1+01801+01601999999ADDGA1021+006009999GA2021+021009999GF104991999999999999999999MA1100711999999MW1001REMMET077LIRL 072100Z 16001KT 9999 SCT020 SCT070 18/16 Q1007 RMK BKN MON INVIS NC BLU;EQDQ01+000000PRSWM2
0291162430999992000091812004+41550+012890SY-MT+0026LIRL V0202001N00511009001CN0120001N1+02661+02021100951ADDAA199000091GA1021+005409999GF106991061081004501001001MA1100911100651MD1810051+9999MW1001REMSYN082AAXX  18124 16243 32462 62010 10266 20202 30065 40095 58005 86800 91145 333 84818;MET068LIRL 181200Z 20010KT 9999 SCT018 27/20 Q1009 RMK BKN MON LIB NC BLU;EQDQ01+000000PRSWM2Q02  00002PRCP99
0185162430999992000091913004+41550+012890FM-15+0026LIRL V0201801N002610240019N0112651N1+02501+02301999999ADDGA1021+005409999GA2071+024009999GF107991999999999999999999MA1101191999999MW1001REMMET075LIRL 191300Z 18005KT 9999 SCT018 BKN080 25/23 Q1012 RMK OVC MON LIB NC BLU;EQDQ01+000000PRSWM2
0162162430999992000092308004+41550+012890FM-15+0026LIRL V0209999C000012200019N0112651N1+02001+01701999999ADDGA1021+006009999GF102991999999999999999999MA1101801999999MW1001REMMET068LIRL 230800Z 00000KT 9999 FEW020 20/17 Q1018 RMK FEW MON LIB NC BLU;EQDQ01+000000PRSWM2
0187162430999992000092413004+41550+012890FM-15+0026LIRL V0202201N004612200019N0112651N1+02401+01601999999ADDGA1021+006009099GA2021+007509999GF104991999999999999999999MA1101901999999MW1001REMMET077LIRL 241300Z 22009KT 9999 FEW020CB SCT025 24/16 Q1019 RMK BKN MON LIB NC BLU;EQDQ01+000000PRSWM2
0284162430999992000092706004+41550+012890SY-MT+0026LIRL V0203201N001012200019N0180001N1+01401+01221102031ADDAA199000091GF100991001001999999001001IA1019KA1120N+01401MA1102001101711MD1410001+9999MW1001REMSYN082AAXX  27064 16243 32968 03202 10140 20122 30171 40203 54000 90545 333 20140 30///;MET058LIRL 270600Z 32002KT CAVOK 14/12 Q1020 RMK MON LIB NC BLU;EQDQ01+000000PRSWM2Q02  00002PRCP99
0207162430999992000100208004+41550+012890FM-15+0026LIRL V0209999C000012200019N0050001N1+01701+01501999999ADDGA1021+005409999GA2021+006009099GF102991999999999999999999MA1100911999999MW1611REMMET081LIRL 020800Z 00000KT 5000 -RA SCT018 FEW020CB 17/15 Q1009 RMK BKN MON LIB NC WHT;EQDQ01+000003PRSWM1Q02    003PRSWM1
0187162430999992000100615004+41550+012890FM-15+0026LIRL V0202101N002612200019N0112651N1+02001+01501999999ADDGA1021+007509999GA2021+009009099GF102991999999999999999999MA1101191999999MW1001REMMET077LIRL 061500Z 21005KT 9999 FEW025 FEW030CB 20/15 Q1012 RMK SCT MON LIB NC BLU;EQDQ01+000000PRSWM2
0185162430999992000101007004+41550+012890FM-15+0026LIRL V0209999C000012200019N0112651N1+01301+01101999999ADDGA1021+010509999GA2021+024009999GF104991999999999999999999MA1100811999999MW1001REMMET075LIRL 100700Z 00000KT 9999 SCT035 SCT080 13/11 Q1008 RMK BKN MON LIB NC BLU;EQDQ01+000000PRSWM2
0192162430999992000101205004+41550+012890FM-15+0026LIRL V0201101N002612200019N0112651N1+01801+01701999999ADDGA1021+007509999GA2021+054009999GF104991999999999999999999MA1100911999999MW1001REMMET082LIRL 120500Z 11005KT 9999 FEW025 SCT180 18/17 Q1009 RMK SCT MON LIB VAR RAPID BLU;EQDQ01+000000PRSWM2
0314162430999992000101412004+41550+012890SY-MT+0026LIRL V0201501N004612200019N0150001N1+02741+01441101241ADDAA199000091GA1021+024009999GA2021+060009999GF106991031001022501031011MA1101191100941MD1010031+9999MW1001REMSYN082AAXX  14124 16243 32865 61509 10274 20144 30094 40124 50003 83031 91145 333 83358;MET075LIRL 141200Z 15009KT 9999 SCT080 SCT200 27/14 Q1012 RMK BKN MON LIB NC BLU;EQDQ01+000000PRSWM2Q02  00002PRCP99
0162162430999992000102315004+41550+012890FM-15+0026LIRL V0202201N002112200019N0112651N1+02001+01301999999ADDGA1021+006009999GF102991999999999999999999MA1102711999999MW1001REMMET068LIRL 231500Z 22004KT 9999 FEW020 20/13 Q1027 RMK FEW MON LIB NC BLU;EQDQ01+000000PRSWM2
0164162430999992000102522004+41550+012890FM-15+0026LIRL V0200501N001012200019N0112651N1+01501+01301999999ADDGA1021+009009999GF102991999999999999999999MA1102201999999MW1001REMMET070LIRL 252200Z 05002KT 9999 FEW030 15/13 Q1022 RMK FEW MON INVIS NC BLU;EQDQ01+000000PRSWM2
0264162430999992000102918004+41550+012890SY-MT+0026LIRL V0209999C000012200019N0160001N1+01621+01441102131ADDAA112008991GF100991001001999999001001KA1999M+01941MA1102101101811MD1610011+9999MW1001REMSYN082AAXX  29184 16243 12966 00000 10162 20144 30181 40213 56001 60092 91745 333 10194;MET060LIRL 291800Z 00000KT CAVOK 16/14 Q1021 RMK MON INVIS NC BLU;EQDQ01+000000PRSWM2
0338162430999992000103000004+41550+012890SY-MT+0026LIRL V0203101N001012200019N0140001N1+01281+01111102181ADDAA199000091GA1021+007509999GA2021+021009999GF103991011021008001031001MA1102101101861MD1410001+9999MW1001REMSYN088AAXX  30004 16243 32564 33102 10128 20111 30186 40218 51000 81230 92345 333 81825 83357;MET077LIRL 300000Z 31002KT 9999 FEW025 SCT070 13/11 Q1021 RMK SCT MON INVIS NC BLU;EQDQ01+000012APCTENQ02+000000PRSWM2Q03  00002PRCP99
0185162430999992000103015004+41550+012890FM-15+0026LIRL V0201301N002612200019N0112651N1+01901+01601999999ADDGA1021+007509999GA2021+021009999GF104991999999999999999999MA1101691999999MW1001REMMET075LIRL 301500Z 13005KT 9999 FEW025 SCT070 19/16 Q1017 RMK SCT MON LIB NC BLU;EQDQ01+000000PRSWM2
0187162430999992000110102004+41550+012890FM-15+0026LIRL V0201701N003612200019N0112651N1+01901+01801999999ADDGA1021+005409999GA2021+024009999GF104991999999999999999999MA1101021999999MW1001REMMET077LIRL 010200Z 17007KT 9999 SCT018 SCT080 19/18 Q1010 RMK BKN MON INVIS NC BLU;EQDQ01+000000PRSWM2
0164162430999992000110422004+41550+012890FM-15+0026LIRL V0200501N001012200019N0112651N1+01201+01101999999ADDGA1021+012009999GF104991999999999999999999MA1101801999999MW1001REMMET070LIRL 042200Z 05002KT 9999 SCT040 12/11 Q1018 RMK SCT MON INVIS NC BLU;EQDQ01+000000PRSWM2
0251162430999992000111100004+41550+012890SY-MT+0026LIRL V0209999C000012200019N0300001N1+01101+00991102441ADDAA199000091GF100991001001999999001001MA1102401102121MD1110101+9999MW1001REMSYN066AAXX  11004 16243 32980 00000 10110 20099 30212 40244 51010 92345;MET060LIRL 110000Z 00000KT CAVOK 11/10 Q1024 RMK MON INVIS NC BLU;EQDQ01+000000PRSWM2Q02  00002PRCP99
0185162430999992000111213004+41550+012890FM-15+0026LIRL V0209999C000012200019N0112651N1+01601+01301999999ADDGA1021+009909999GA2021+021009999GF104991999999999999999999MA1102301999999MW1001REMMET075LIRL 121300Z 00000KT 9999 SCT033 SCT070 16/13 Q1023 RMK OVC MON LIB NC BLU;EQDQ01+000000PRSWM2
0162162430999992000111614004+41550+012890FM-15+0026LIRL V0201301N005712200019N0112651N1+02201+01301999999ADDGA1021+021009999GF104991999999999999999999MA1101391999999MW1001REMMET068LIRL 161400Z 13011KT 9999 SCT070 22/13 Q1014 RMK SCT MON LIB NC BLU;EQDQ01+000000PRSWM2
0162162430999992000111810004+41550+012890FM-15+0026LIRL V0209999C000012200019N0112651N1+01601+00901999999ADDGA1021+006909999GF102991999999999999999999MA1101191999999MW1001REMMET068LIRL 181000Z 00000KT 9999 FEW023 16/09 Q1012 RMK SCT MON LIB NC BLU;EQDQ01+000000PRSWM2
0187162430999992000112022004+41550+012890FM-15+0026LIRL V0201201N002612200019N0112651N1+01501+01301999999ADDGA1021+009009999GA2021+021009999GF104991999999999999999999MA1101291999999MW1001REMMET077LIRL 202200Z 12005KT 9999 SCT030 SCT070 15/13 Q1013 RMK BKN MON INVIS NC BLU;EQDQ01+000000PRSWM2
0112162430999992000112223004+41550+012890FM-15+0026LIRL V0209999C00001220001CN0099001N1+00901+00801999999ADDMA1101901999999MW1001REMMET060LIRL 222300Z 00000KT CAVOK 09/08 Q1019 RMK MON INVIS NC BLU;EQDQ01+000000PRSWM2
0264162430999992000112518004+41550+012890SY-MT+0026LIRL V0203201N001012200019N0200001N1+01001+00791101021ADDAA112000791GF100991001001999999001001KA1999M+01541MA1101021100701MD1310131+9999MW1001REMSYN082AAXX  25184 16243 12970 03202 10100 20079 30070 40102 53013 69902 91745 333 10154;MET060LIRL 251800Z 32002KT CAVOK 10/08 Q1010 RMK MON INVIS NC BLU;EQDQ01+000000PRSWM2
0267162430999992000112900004+41550+012890SY-MT+0026LIRL V0209999C000012200019N0130001N1+00581+00541102281ADDAA199000091GF100991001001999999001001MA1102201101951MD1410001+9999MW1001REMSYN066AAXX  29004 16243 32963 00000 10058 20054 30195 40228 51000 92345;MET060LIRL 290000Z 00000KT CAVOK 06/05 Q1022 RMK MON INVIS NC BLU;EQDQ01+000012APCTENQ02+000000PRSWM2Q03  00002PRCP99
0141162430999992000120523004+41550+012890FM-15+0026LIRL V0209999C000012200019N0060001N1+00701+00701999999ADDGF100991999999999999999999MA1102201999999MW1001REMMET063LIRL 052300Z 00000KT 6000 SKC 07/07 Q1022 RMK MON INVIS NC WHT;EQDQ01+000000PRSWM2
0162162430999992000121010004+41550+012890FM-15+0026LIRL V0209999C000012200019N0112651N1+01401+01201999999ADDGA1021+007509999GF102991999999999999999999MA1102611999999MW1001REMMET068LIRL 101000Z 00000KT 9999 FEW025 14/12 Q1026 RMK SCT MON LIB NC BLU;EQDQ01+000000PRSWM2
0164162430999992000121605004+41550+012890FM-15+0026LIRL V0203001N001512200019N0112651N1+00801+00601999999ADDGA1021+010509999GF102991999999999999999999MA1100811999999MW1001REMMET070LIRL 160500Z 30003KT 9999 FEW035 08/06 Q1008 RMK SCT MON INVIS NC BLU;EQDQ01+000000PRSWM2
0356162430999992000122612004+41550+012890SY-MT+0026LIRL V0201901N00211012001CN0250001N1+01421+01251100111ADDAA106000891AY161061AY211061GA1021+006009029GA2021+009009999GF106991051081008001071001MA1100101099801MD1010011+9999MW1021REMSYN100AAXX  26124 16243 11575 61904 10142 20125 39980 40011 50001 69981 70261 85870 91145 333 82820 83630;MET083LIRL 261200Z 19004KT 9999 FEW020TCU SCT030 14/12 Q1001 RMK BKN MON CLD CIME NC BLU;EQDQ01+000000PRSWM2Q02    003PRSWM1
0194162430999992000122717004+41550+012890FM-15+0026LIRL V0201301N001512200019N0080001N1+01301+01201999999ADDGA1021+004209999GA2021+009009999GF104991999999999999999999MA1098981999999MW1001REMMET084LIRL 271700Z 13003KT 8000 SCT014 SCT030 13/12 Q0990 RMK BKN MON INVIS VAR RAPID BLU;EQDQ01+000000PRSWM2
0164162430999992000122720004+41550+012890FM-15+0026LIRL V0201901N002612200019N0112651N1+01401+01301999999ADDGA1021+006009999GF104991999999999999999999MA1098981999999MW1001REMMET070LIRL 272000Z 19005KT 9999 SCT020 14/13 Q0990 RMK BKN MON INVIS NC BLU;EQDQ01+000000PRSWM2
0185162430999992000122914004+41550+012890FM-15+0026LIRL V0209999C000012200019N0112651N1+01301+01101999999ADDGA1021+009009999GA2021+021009999GF104991999999999999999999MA1099391999999MW1001REMMET075LIRL 291400Z 00000KT 9999 SCT030 SCT070 13/11 Q0994 RMK BKN MON LIB NC BLU;EQDQ01+000000PRSWM2
0094162440999992000010118004+41630+013300FM-15+0181LIRH V0209999C00001220001CN0099001N1+00201-00301999999ADDMA1102401999999MW1001REMMET061LIRH 011800Z 00000KT CAVOK 02/M03 Q1024 RMK MON INVIS NC BLU;
0204162440999992000010812004+41630+013300FM-15+0181LIRH V0209999C000012200019N0020001N1+00901+00401999999ADDGA1021+012009999GA2021+060009999GF104991999999999999999999MA1102511999999MW1101REMMET078LIRH 081200Z 00000KT 2000 BR SCT040 SCT200 09/04 Q1025 RMK BKN MON LIB NC YLO;EQDQ01+000003PRSWM1Q02    003PRSWM1
0162162440999992000011716004+41630+013300FM-15+0181LIRH V0203001N002612200019N0080001N1+00801+00201999999ADDGA1021+021009999GF102991999999999999999999MA1101491999999MW1001REMMET068LIRH 171600Z 30005KT 8000 FEW070 08/02 Q1015 RMK SCT MON LIB NC BLU;EQDQ01+000000PRSWM2
0120162440999992000011809004+41630+013300FM-15+0181LIRH V0209999C000012200019N0080001N1+00301+00201999999ADDGF100991999999999999999999MA1100911999999MW1001REMMET042LIRH 180900Z 00000KT 8000 SKC 03/02 Q1009;EQDQ01+000000PRSWM2
0119162440999992000012007004+41630+013300FM-15+0181LIRH V0209999C00001220001CN0099001N1-00401-00601999999ADDMA1102611999999MW1001REMMET067LIRH 200700Z 00000KT CAVOK M04/M06 Q1026 RMK MON LIB VAR RAPID BLU;EQDQ01+000000PRSWM2
0181162440999992000013007004+41630+013300FM-15+0181LIRH V0200701N001012200019N0004001N1+00401+00201999999ADDGA1021+000909999GA2021+060009999GF104991999999999999999999MA1101901999999MW1441REMMET055LIRH 300700Z 07002KT 0400 FG SCT003 SCT200 04/02 Q1019;EQDQ01+000003PRSWM1Q02    003PRSWM1
0140162440999992000020608004+41630+013300FM-15+0181LIRH V0209999C000012200019N0080001N1+00001+00001999999ADDGF100991999999999999999999MA1103181999999MW1001REMMET062LIRH 060800Z 00000KT 8000 SKC 00/M00 Q1032 RMK MON LIB NC BLU;EQDQ01+000000PRSWM2
0092162440999992000021102004+41630+013300FM-15+0181LIRH V0209999C00001220001CN0099001N1+00101-00201999999ADDMA1102001999999MW1001REMMET040LIRH 110200Z 00000KT CAVOK 01/M02 Q1020;EQDQ01+000000PRSWM2
0111162440999992000021112004+41630+013300FM-15+0181LIRH V0201001N00101220001CN0099001N1+01101-00201999999ADDMA1102201999999MW1001REMMET059LIRH 111200Z 10002KT CAVOK 11/M02 Q1022 RMK MON LIB NC BLU;EQDQ01+000000PRSWM2
0181162440999992000021511004+41630+013300FM-15+0181LIRH V0202001N001512200019N0050001N1+01201+00801999999ADDGA1021+009009999GF102991999999999999999999MA1102201999999MW1101REMMET071LIRH 151100Z 20003KT 5000 BR FEW030 12/08 Q1022 RMK SCT MON LIB NC WHT;EQDQ01+000003PRSWM1Q02    003PRSWM1
0141162440999992000022407004+41630+013300FM-15+0181LIRH V0209999C000012200019N0080001N1-00301-00301999999ADDGF100991999999999999999999MA1102711999999MW1001REMMET063LIRH 240700Z 00000KT 8000 SKC M03/M03 Q1027 RMK MON LIB NC BLU;EQDQ01+000000PRSWM2
0162162440999992000030408004+41630+013300FM-15+0181LIRH V0209999C000012200019N0112651N1+00701+00501999999ADDGA1021+007509999GF104991999999999999999999MA1102101999999MW1001REMMET068LIRH 040800Z 00000KT 9999 SCT025 07/05 Q1021 RMK SCT MON LIB NC BLU;EQDQ01+000000PRSWM2
0120162440999992000030802004+41630+013300FM-15+0181LIRH V0209999C000012200019N0060001N1+00501+00401999999ADDGF100991999999999999999999MA1103011999999MW1001REMMET042LIRH 080200Z 00000KT 6000 SKC 05/04 Q1030;EQDQ01+000000PRSWM2
0162162440999992000030911004+41630+013300FM-15+0181LIRH V0202501N001012200019N0080001N1+01401+00701999999ADDGA1021+060009999GF102991999999999999999999MA1102711999999MW1001REMMET068LIRH 091100Z 25002KT 8000 FEW200 14/07 Q1027 RMK FEW MON LIB NC BLU;EQDQ01+000000PRSWM2
0165162440999992000031412004+41630+013300FM-15+0181LIRH V0202301N000512200019N0080001N1+01801+01101999999ADDGA1021+012009029GF104991999999999999999999MA1102301999999MW1001REMMET071LIRH 141200Z 23001KT 8000 SCT040TCU 18/11 Q1023 RMK SCT MON LIB NC BLU;EQDQ01+000000PRSWM2
0185162440999992000032017004+41630+013300FM-15+0181LIRH V0201601N000510180019N0080001N1+00601+00401999999ADDGA1021+006009999GA2021+009009999GA3071+018009999GF107991999999999999999999MA1102201999999MW1001REMMET059LIRH 201700Z 16001KT 8000 FEW020 SCT030 BKN060 06/04 Q1022;EQDQ01+000000PRSWM2
0158162440999992000032501004+41630+013300FM-15+0181LIRH V0209999C000010210019N0030001N1+00801+00801999999ADDGA1071+021009999GF107991999999999999999999MA1102001999999MW1101REMMET048LIRH 250100Z 00000KT 3000 BR BKN070 08/08 Q1020;EQDQ01+000003PRSWM1Q02    003PRSWM1
0164162440999992000032619004+41630+013300FM-15+0181LIRH V0200501N001010075019N0060001N1+01001+01001999999ADDGA1071+007509999GF107991999999999999999999MA1101291999999MW1001REMMET070LIRH 261900Z 05002KT 6000 BKN025 10/10 Q1013 RMK BKN MON INVIS NC WHT;EQDQ01+000000PRSWM2
0188162440999992000033118004+41630+013300FM-15+0181LIRH V0201301N001512200019N0112651N1+01501+00801999999ADDGA1021+010509029GA2021+012009999GF104991999999999999999999MA1100911999999MW1001REMMET078LIRH 311800Z 13003KT 9999 FEW035TCU SCT040 15/08 Q1009 RMK BKN MON LIB NC BLU;EQDQ01+000000PRSWM2
0192162440999992000041505004+41630+013300FM-15+0181LIRH V0200901N002110270019N0112651N1+01201+00901999999ADDGA1021+010509999GA2071+027009999GF107991999999999999999999MA1100711999999MW1001REMMET082LIRH 150500Z 09004KT 9999 FEW035 BKN090 12/09 Q1007 RMK OVC MON LIB VAR RAPID BLU;EQDQ01+000000PRSWM2
0112162440999992000042103004+41630+013300FM-15+0181LIRH V0209999C00001220001CN0099001N1+00901+00901999999ADDMA1101191999999MW1001REMMET060LIRH 210300Z 00000KT CAVOK 09/09 Q1012 RMK MON INVIS NC BLU;EQDQ01+000000PRSWM2
0112162440999992000042122004+41630+013300FM-15+0181LIRH V0209999C00001220001CN0099001N1+01601+01501999999ADDMA1101691999999MW1001REMMET060LIRH 212200Z 00000KT CAVOK 16/15 Q1017 RMK MON INVIS NC BLU;EQDQ01+000000PRSWM2
0117162440999992000042617004+41630+013300FM-15+0181LIRH V0202901N00101220001CN0099001N1+02101+01601999999ADDMA1101591999999MW1001REMMET065LIRH 261700Z 29002KT CAVOK 21/16 Q1016 RMK FEW200 MON LIB NC BLU;EQDQ01+000000PRSWM2
0185162440999992000042907004+41630+013300FM-15+0181LIRH V0209999C000010210019N0112651N1+01401+01201999999ADDGA1021+012009999GA2071+021009999GF107991999999999999999999MA1101291999999MW1001REMMET075LIRH 290700Z 00000KT 9999 FEW040 BKN070 14/12 Q1013 RMK BKN MON LIB NC BLU;EQDQ01+000000PRSWM2
0187162440999992000043023004+41630+013300FM-15+0181LIRH V0209999C000010120019N0112651N1+01501+01401999999ADDGA1021+003009999GA2071+012009999GF107991999999999999999999MA1101691999999MW1001REMMET077LIRH 302300Z 00000KT 9999 SCT010 BKN040 15/14 Q1017 RMK BKN MON INVIS NC BLU;EQDQ01+000000PRSWM2
0183162440999992000050805004+41630+013300FM-15+0181LIRH V0209999C000010045019N0008001N1+01301+01201999999ADDGA1071+004509999GF107991999999999999999999MA1102101999999MW1441REMMET073LIRH 080500Z 00000KT 0800 FG BKN015 13/12 Q1021 RMK BKN MON INVIS NC AMB;EQDQ01+000003PRSWM1Q02    003PRSWM1
0191162440999992000050917004+41630+013300FM-15+0181LIRH V0209999C000010105019N0050001N1+01701+01701999999ADDGA1071+010509999GF107991999999999999999999MA1102101999999MW1101MW2611REMMET075LIRH 091700Z 00000KT 5000 -RA BR BKN035 17/17 Q1021 RMK BKN MON LIB NC WHT;EQDQ01+000003PRSWM1Q02    003PRSWM1
0188162440999992000051115004+41630+013300FM-15+0181LIRH V0202401N001012200019N0112651N1+02701+02001999999ADDGA1021+010509029GA2021+024009999GF104991999999999999999999MA1101801999999MW1001REMMET078LIRH 111500Z 24002KT 9999 FEW035TCU SCT080 27/20 Q1018 RMK SCT MON LIB NC BLU;EQDQ01+000000PRSWM2
0185162440999992000051516004+41630+013300FM-15+0181LIRH V0209999C000010210019N0112651N1+02201+01701999999ADDGA1021+012009999GA2071+021009999GF107991999999999999999999MA1101901999999MW1001REMMET075LIRH 151600Z 00000KT 9999 FEW040 BKN070 22/17 Q1019 RMK BKN MON LIB NC BLU;EQDQ01+000000PRSWM2
0112162440999992000052003004+41630+013300FM-15+0181LIRH V0209999C00001220001CN0099001N1+00901+00901999999ADDMA1101081999999MW1001REMMET060LIRH 200300Z 00000KT CAVOK 09/09 Q1011 RMK MON INVIS NC BLU;EQDQ01+000000PRSWM2
0139162440999992000052305004+41630+013300FM-15+0181LIRH V0209999C000012200019N0080001N1+01101+01101999999ADDGF100991999999999999999999MA1101591999999MW1001REMMET061LIRH 230500Z 00000KT 8000 SKC 11/11 Q1016 RMK MON LIB NC BLU;EQDQ01+000000PRSWM2
0162162440999992000052619004+41630+013300FM-15+0181LIRH V0203001N000512200019N0112651N1+02101+01701999999ADDGA1021+010509999GF102991999999999999999999MA1101491999999MW1001REMMET068LIRH 261900Z 30001KT 9999 FEW035 21/17 Q1015 RMK SCT MON LIB NC BLU;EQDQ01+000000PRSWM2
0162162440999992000061316004+41630+013300FM-15+0181LIRH V0202101N001012200019N0112651N1+02801+01601999999ADDGA1021+010509999GF102991999999999999999999MA1102201999999MW1001REMMET068LIRH 131600Z 21002KT 9999 FEW035 28/16 Q1022 RMK FEW MON LIB NC BLU;EQDQ01+000000PRSWM2
0183162440999992000061518004+41630+013290FM-15+0181LIRH V0202901N001012200019N0112651N1+02501+02001999999ADDGA1021+007509099GF102991999999999999999999MA1101591999999MW1171REMMET073LIRH 151800Z 29002KT 9999 TS FEW025CB 25/20 Q1016 RMK FEW MON LIB NC BLU;EQDQ01+000003PRSWM1Q02    003PRSWM1
0162162440999992000061715004+41630+013290FM-15+0181LIRH V0201701N002112200019N0112651N1+02901+01301999999ADDGA1021+013509999GF104991999999999999999999MA1101901999999MW1001REMMET068LIRH 171500Z 17004KT 9999 SCT045 29/13 Q1019 RMK SCT MON LIB NC BLU;EQDQ01+000000PRSWM2
0249162440999992000070212004+41630+013290SY-MT+0181LIRH V0209999C000012200019N0200001N1+03301+01641101851ADDAA199000091GF100991001001999999001001MA1101901099781MD1410001+9999MW1001REMSYN066AAXX  02124 16244 32970 00000 10330 20164 39978 40185 54000 91145;MET058LIRH 021200Z 00000KT CAVOK 33/16 Q1019 RMK MON LIB NC BLU;EQDQ01+000000PRSWM2Q02  00002PRCP99
0162162440999992000071916004+41630+013290FM-15+0181LIRH V0202001N002112200019N0112651N1+02701+01601999999ADDGA1021+013509999GF104991999999999999999999MA1101191999999MW1001REMMET068LIRH 191600Z 20004KT 9999 SCT045 27/16 Q1012 RMK SCT MON LIB NC BLU;EQDQ01+000000PRSWM2
0218162440999992000072016004+41630+013290FM-15+0181LIRH V0200401N009012200019N0060001N1+01901+01801999999ADDGA1021+009009099GA2021+012009029GF104991999999999999999999MA1101391999999MW1801MW2951REMMET086LIRH 201600Z 04009KT 6000 -TSRA SCT030CB SCT040TCU 19/18 Q1014 RMK BKN MON LIB NC WHT;EQDQ01+000003PRSWM1Q02    003PRSWM1
0110162440999992000072815004+41630+013290FM-15+0181LIRH V0202601N00261220001CN0099001N1+03301+01601999999ADDMA1101021999999MW1001REMMET058LIRH 281500Z 26005KT CAVOK 33/16 Q1010 RMK MON LIB NC BLU;EQDQ01+000000PRSWM2
0110162440999992000080317004+41630+013290FM-15+0181LIRH V0209999C00001220001CN0099001N1+03201+02001999999ADDMA1101801999999MW1001REMMET058LIRH 031700Z 00000KT CAVOK 32/20 Q1018 RMK MON LIB NC BLU;EQDQ01+000000PRSWM2
0325162440999992000080712004+41630+013290SY-MT+0181LIRH V0209999C000010120019N0160001N1+02501+01541101621ADDAA199000091GA1021+010509099GA2021+012009029GF105991051091012501001001MA1101691099501MD1810101+9999MW1001REMSYN088AAXX  07124 16244 32666 50000 10250 20154 39950 40162 58010 85900 91145 333 81935 84840;MET080LIRH 071200Z 00000KT 9999 FEW035CB SCT040TCU 25/15 Q1017 RMK BKN MON LIB NC BLU;EQDQ01+000000PRSWM2Q02  00002PRCP99
0117162440999992000081205004+41630+013290FM-15+0181LIRH V0209999C00001220001CN0099001N1+01601+01601999999ADDMA1101491999999MW1001REMMET065LIRH 120500Z 00000KT CAVOK 16/16 Q1015 RMK MON LIB VAR RAPID BLU;EQDQ01+000000PRSWM2
0162162440999992000081211004+41630+013290FM-15+0181LIRH V0209999C000012200019N0112651N1+02901+01901999999ADDGA1021+013509999GF102991999999999999999999MA1101491999999MW1001REMMET068LIRH 121100Z 00000KT 9999 FEW045 29/19 Q1015 RMK FEW MON LIB NC BLU;EQDQ01+000000PRSWM2
0110162440999992000082608004+41630+013290FM-15+0181LIRH V0209999C00001220001CN0099001N1+02701+02001999999ADDMA1101391999999MW1001REMMET058LIRH 260800Z 00000KT CAVOK 27/20 Q1014 RMK MON LIB NC BLU;EQDQ01+000000PRSWM2
0291162440999992000090612004+41630+013290SY-MT+0181LIRH V0201901N001012200019N0200001N1+02501+00971101761ADDAA199000091GA1021+013509999GF104991031011012501031011MA1101801099641MD1810071+9999MW1001REMSYN082AAXX  06124 16244 32670 41902 10250 20097 39964 40176 58007 83131 91145 333 83845;MET068LIRH 061200Z 19002KT 9999 SCT045 25/10 Q1018 RMK SCT MON LIB NC BLU;EQDQ01+000000PRSWM2Q02  00002PRCP99
0208162440999992000090914004+41630+013290FM-15+0181LIRH V0201501N001010240019N0112651N1+02701+01301999999ADDGA1021+012009999GA2021+015009999GA3071+024009999GF107991999999999999999999MA1101801999999MW1001REMMET082LIRH 091400Z 15002KT 9999 FEW040 SCT050 BKN080 27/13 Q1018 RMK BKN MON LIB NC BLU;EQDQ01+000000PRSWM2
0185162440999992000091309004+41630+013290FM-15+0181LIRH V0209999C000012200019N0060001N1+02101+01601999999ADDGA1021+024009999GA2021+060009999GF104991999999999999999999MA1101691999999MW1001REMMET075LIRH 130900Z 00000KT 6000 FEW080 SCT200 21/16 Q1017 RMK SCT MON LIB NC WHT;EQDQ01+000000PRSWM2
0117162440999992000091413004+41630+013290FM-15+0181LIRH V0201901N00101220001CN0099001N1+02801+01501999999ADDMA1101691999999MW1001REMMET065LIRH 141300Z 19002KT CAVOK 28/15 Q1017 RMK FEW200 MON LIB NC BLU;EQDQ01+000000PRSWM2
0162162440999992000092115004+41630+013290FM-15+0181LIRH V0203001N001012200019N0112651N1+02201+01301999999ADDGA1021+010509999GF104991999999999999999999MA1101391999999MW1001REMMET068LIRH 211500Z 30002KT 9999 SCT035 22/13 Q1014 RMK SCT MON LIB NC BLU;EQDQ01+000000PRSWM2
0291162440999992000092312004+41630+013290SY-MT+0181LIRH V0201301N000512200019N0200001N1+02461+01181101861ADDAA199000091GA1021+013509999GF103991031011012501001001MA1101901099731MD1810071+9999MW1001REMSYN082AAXX  23124 16244 32670 31301 10246 20118 39973 40186 58007 83100 91145 333 83845;MET068LIRH 231200Z 13001KT 9999 SCT045 25/12 Q1019 RMK SCT MON LIB NC BLU;EQDQ01+000000PRSWM2Q02  00002PRCP99
0167162440999992000101515004+41630+013290FM-15+0181LIRH V0200801N003110060019N0080001N1+01501+01401999999ADDGA1071+006009999GF107991999999999999999999MA1101491999999MW1001REMMET073LIRH 151500Z 08006KT 8000 BKN020 15/14 Q1015 RMK BKN MON CIME INC NC WHT;EQDQ01+000000PRSWM2
0183162440999992000102708004+41630+013290FM-15+0181LIRH V0209999C000012200019N0004001N1+01001+00901999999ADDGA1021+000909999GF104991999999999999999999MA1101801999999MW1441REMMET073LIRH 270800Z 00000KT 0400 FG SCT003 10/09 Q1018 RMK SCT MON INVIS NC RED;EQDQ01+000003PRSWM1Q02    003PRSWM1
0208162440999992000110107004+41630+013290FM-15+0181LIRH V0209999C000012200019N0040001N1+00801+00801999999ADDGA1021+009009099GA2021+010509999GF104991999999999999999999MA1101081999999MW1101REMMET082LIRH 010700Z 00000KT 4000 BR FEW030CB SCT035 08/08 Q1011 RMK BKN MON CIME INC GRN;EQDQ01+000003PRSWM1Q02    003PRSWM1
0187162440999992000111517004+41630+013290FM-15+0181LIRH V0209999C000010180019N0050001N1+01701+01501999999ADDGA1021+012009999GA2071+018009999GF107991999999999999999999MA1101901999999MW1001REMMET077LIRH 151700Z 00000KT 5000 FEW040 BKN060 17/15 Q1019 RMK BKN MON INVIS NC WHT;EQDQ01+000000PRSWM2
0162162440999992000111608004+41630+013290FM-15+0181LIRH V0209999C000012200019N0080001N1+01101+01101999999ADDGA1021+021009999GF104991999999999999999999MA1101901999999MW1001REMMET068LIRH 160800Z 00000KT 8000 SCT070 11/11 Q1019 RMK SCT MON LIB NC BLU;EQDQ01+000000PRSWM2
0216162440999992000111909004+41630+013290FM-15+0181LIRH V0209999C000010240019N0020001N1+00901+00901999999ADDGA1021+003009999GA2081+024009999GF108991999999999999999999MA1100711999999MW1101MW2511REMMET084LIRH 190900Z 00000KT 2000 -DZ BR SCT010 OVC080 09/09 Q1007 RMK OVC MON INVIS NC YLO;EQDQ01+000003PRSWM1Q02    003PRSWM1
0213162440999992000112107004+41630+013290FM-15+0181LIRH V0209999C00001220001CN0030001N1+01001+00901999999ADDGA1071+006009999GA2021+007509099MA1101191999999MW1101REMMET097LIRH 210700Z 00000KT 3000 BR BKN020 FEW025CB 10/09 Q1012 RETS RMK OVC MON CIME INC VAR RAPID YLO;EQDQ01+000022SCOTCVQ02+000003PRSWM1Q03    003PRSWM1
0148162440999992000120517004+41630+013290FM-15+0181LIRH V0209999C000012200019N0080001N1+01101+00901999999ADDGF100991999999999999999999MA1102201999999MW1001REMMET070LIRH 051700Z 00000KT 8000 SKC 11/09 Q1022 RMK MON INVIS VAR RAPID BLU;EQDQ01+000000PRSWM2
0139162450999992000010400004+41650+012430FM-15+0012LIRE V0209999C000012200019N0080001N1+00301+00101999999ADDGA1021+060009999GF102991999999999999999999MA1102711999999MW1001REMMET045LIRE 040000Z 00000KT 8000 FEW200 03/01 Q1027;EQDQ01+000000PRSWM2
0139162450999992000010713004+41650+012430FM-15+0012LIRE V0200301N003112200019N0112651N1+01201+00601999999ADDGA1021+006009999GF102991999999999999999999MA1102301999999MW1001REMMET045LIRE 071300Z 03006KT 9999 FEW020 12/06 Q1023;EQDQ01+000000PRSWM2
0171162450999992000010807004+41650+012430FM-15+0012LIRE V0200101N00151220001CN0040001N1+00401+00301999999ADDGA1071+021009999GA2021+060009999MA1102301999999MW1101REMMET055LIRE 080700Z 01003KT 4000 BR BKN070 SCT200 04/03 Q1023;EQDQ01+000042SCOTCVQ02+000003PRSWM1Q03    003PRSWM1
0181162450999992000011005004+41650+012430FM-15+0012LIRE V0200301N002612200019N0040001N1+00801+00601999999ADDGA1021+013809999GA2021+021009999GF104991999999999999999999MA1102401999999MW1101REMMET055LIRE 100500Z 03005KT 4000 BR SCT046 SCT070 08/06 Q1024;EQDQ01+000003PRSWM1Q02    003PRSWM1
0193162450999992000011203004+41650+012430FM-15+0012LIRE V0200401N004612200019N0080001N1+00601+00501999999ADDGA1021+008409999GA2021+018009999GF104991999999999999999999MA1102711999999MW1001REMMET083LIRE 120300Z 04009KT 8000 FEW028 SCT060 06/05 Q1027 RMK BKN WIND THR31 03011KT BLU;EQDQ01+000000PRSWM2
0182162450999992000011217004+41650+012430FM-15+0012LIRE V0200301N002610090019N0060001N1+00801+00701999999ADDGA1021+006009999GA2071+009009999GF107991999999999999999999MA1102511999999MW1611REMMET056LIRE 121700Z 03005KT 6000 -RA FEW020 BKN030 08/07 Q1025;EQDQ01+000003PRSWM1Q02    003PRSWM1
0171162450999992000012509004+41650+012430FM-15+0012LIRE V0200201N006212200019N0112651N1+00101-00601999999ADDGA1021+006009999GF102991999999999999999999MA1102101999999MW1001REMMET077LIRE 250900Z 02012KT 9999 FEW020 01/M06 Q1021 RMK FEW WIND THR31 01012KT BLU;EQDQ01+000000PRSWM2
0170162450999992000012612004+41650+012430FM-15+0012LIRE V0200401N002610090019N0112651N1+00501+00001999999ADDGA1071+009009999GF107991999999999999999999MA1102911999999MW1001REMMET076LIRE 261200Z 04005KT 9999 BKN030 05/00 Q1029 RMK BKN WIND THR31 01007KT BLU;EQDQ01+000000PRSWM2
0218162450999992000012815004+41650+012430FM-15+0012LIRE V0200601N001510090019N0040001N1+01001+00801999999ADDGA1021+006909999GA2071+009009999GF107991999999999999999999MA1102401999999MW1101REMMET092LIRE 281500Z 06003KT 4000N BR FEW023 BKN030 10/08 Q1024 REDZ RMK BKN WIND THR31 13001KT GRN;EQDQ01+000003PRSWM1Q02    003PRSWM1
0205162450999992000020302004+41650+012430FM-15+0012LIRE V0200111N002110084019N0040001N1+01101+01001999999ADDGA1021+003009999GA2021+005409999GA3071+008409999GF107991999999999999999999MA1101801999999MW1511REMMET063LIRE 030200Z 01104KT 4000 -DZ SCT010 SCT018 BKN028 11/10 Q1018;EQDQ01+000003PRSWM1Q02    003PRSWM1
0185162450999992000020812004+41650+012430FM-15+0012LIRE V0201501N001510180019N0080001N1+01301+01001999999ADDGA1021+006909999GA2021+012009999GA3071+018009999GF107991999999999999999999MA1102301999999MW1001REMMET059LIRE 081200Z 15003KT 8000 FEW023 SCT040 BKN060 13/10 Q1023;EQDQ01+000000PRSWM2
0119162450999992000021101004+41650+012430FM-15+0012LIRE V0200101N00361220001CN0099001N1+00501-00201999999ADDMA1101901999999MW1001REMMET067LIRE 110100Z 01007KT CAVOK 05/M02 Q1019 RMK WIND THR31 01010KT BLU;EQDQ01+000000PRSWM2
0132162450999992000022318004+41650+012430FM-15+0012LIRE V0203401N00051220001CN0099001N1+00801+00501999999ADDMA1102201999999MW1001REMMET080LIRE 231800Z 34001KT CAVOK 08/05 Q1022 RMK FEW090 SCT220 WIND THR31 32001KT BLU;EQDQ01+000000PRSWM2
0091162450999992000022421004+41650+012430FM-15+0012LIRE V0200201N00311220001CN0099001N1+00501+00101999999ADDMA1102911999999MW1001REMMET039LIRE 242100Z 02006KT CAVOK 05/01 Q1029;EQDQ01+000000PRSWM2
0091162450999992000022423004+41650+012430FM-15+0012LIRE V0200101N00261220001CN0099001N1+00401+00101999999ADDMA1102911999999MW1001REMMET039LIRE 242300Z 01005KT CAVOK 04/01 Q1029;EQDQ01+000000PRSWM2
0162162450999992000022606004+41650+012430FM-15+0012LIRE V0209999C000010180019N0060001N1+01001+00901999999ADDGA1021+004809999GA2071+018009999GF107991999999999999999999MA1102811999999MW1001REMMET052LIRE 260600Z 00000KT 6000 SCT016 BKN060 10/09 Q1028;EQDQ01+000000PRSWM2
0139162450999992000022711004+41650+012430FM-15+0012LIRE V0201501N001010180019N0090001N1+01401+01001999999ADDGA1071+018009999GF107991999999999999999999MA1102911999999MW1001REMMET045LIRE 271100Z 15002KT 9000 BKN060 14/10 Q1029;EQDQ01+000000PRSWM2
0196162450999992000030516004+41650+012430FM-15+0012LIRE V0202201N003112200019N0112651N1+01601+00901999999ADDGA1021+005409999GA2021+006009029GF102991999999999999999999MA1102201999999MW1001REMMET086LIRE 051600Z 22006KT 9999 FEW018 FEW020TCU 16/09 Q1022 RMK SCT WIND THR31 21005KT BLU;EQDQ01+000000PRSWM2
0178162450999992000031310004+41650+012430FM-15+0012LIRE V0201801N001510210019N9999999N1+01601+00901999999ADDGA1021+012009999GA2071+021009999GF107991999999999999999999MA1102301999999MW1001REMMET052LIRE 131000Z 18003KT 7000 SCT040 BKN070 16/09 Q1023;EQDQ01+070002VODIS Q02+000000PRSWM2
0193162450999992000031520004+41650+012430FM-15+0012LIRE V0209999C000010240019N0060001N1+01401+01201999999ADDGA1021+012009999GA2071+024009999GF107991999999999999999999MA1101291999999MW1001REMMET083LIRE 152000Z 00000KT 6000 FEW040 BKN080 14/12 Q1013 RMK BKN WIND THR31 32001KT WHT;EQDQ01+000000PRSWM2
0139162450999992000031716004+41650+012430FM-15+0012LIRE V0202001N001012200019N0112651N1+01501+01201999999ADDGA1021+007509999GF102991999999999999999999MA1101391999999MW1001REMMET045LIRE 171600Z 20002KT 9999 FEW025 15/12 Q1014;EQDQ01+000000PRSWM2
0091162450999992000032120004+41650+012430FM-15+0012LIRE V0209999C00001220001CN0099001N1+00701+00601999999ADDMA1102001999999MW1001REMMET039LIRE 212000Z 00000KT CAVOK 07/06 Q1020;EQDQ01+000000PRSWM2
0185162450999992000032606004+41650+012430FM-15+0012LIRE V0202001N002610180019N0112651N1+01501+01401999999ADDGA1021+001809999GA2021+004509999GA3071+018009999GF107991999999999999999999MA1101491999999MW1001REMMET059LIRE 260600Z 20005KT 9999 FEW006 SCT015 BKN060 15/14 Q1015;EQDQ01+000000PRSWM2
0216162450999992000040215004+41650+012430FM-15+0012LIRE V0201501N008210270019N0112651N1+01701+01401999999ADDGA1021+006909999GA2021+024009999GA3071+027009999GF107991999999999999999999MA1100911999999MW1001REMMET090LIRE 021500Z 15016KT 9999 FEW023 SCT080 BKN090 17/14 Q1009 RMK OVC WIND THR31 14017KT BLU;EQDQ01+000000PRSWM2
0185162450999992000040421004+41650+012430FM-15+0012LIRE V0202801N003610270019N0112651N1+01201+01001999999ADDGA1021+004509999GA2021+006009999GA3071+027009999GF107991999999999999999999MA1099391999999MW1001REMMET059LIRE 042100Z 28007KT 9999 FEW015 SCT020 BKN090 12/10 Q0994;EQDQ01+000000PRSWM2
0170162450999992000040702004+41650+012430FM-15+0012LIRE V0203301N001512200019N0112651N1+00901+00701999999ADDGA1021+021009999GF102991999999999999999999MA1101591999999MW1001REMMET076LIRE 070200Z 33003KT 9999 FEW070 09/07 Q1016 RMK FEW WIND THR31 31003KT BLU;EQDQ01+000000PRSWM2
0125162450999992000040906004+41650+012430FM-15+0012LIRE V0201201N00151220001CN0099001N1+01001+00601999999ADDMA1101491999999MW1001REMMET073LIRE 090600Z 12003KT CAVOK 10/06 Q1015 RMK BKN090 WIND THR31 09008KT BLU;EQDQ01+000000PRSWM2
0193162450999992000041302004+41650+012430FM-15+0012LIRE V0201101N002612200019N0112651N1+01301+01101999999ADDGA1021+004809999GA2021+021009999GF104991999999999999999999MA1100811999999MW1001REMMET083LIRE 130200Z 11005KT 9999 FEW016 SCT070 13/11 Q1008 RMK SCT WIND THR31 09007KT BLU;EQDQ01+000000PRSWM2
0222162450999992000041704004+41650+012430FM-15+0012LIRE V0201201N002610210019N0112651N1+01401+01201999999ADDGA1021+012009999GA2071+021009999GF107991999999999999999999KA1999M+99999MA1100311999999MW1001REMMET083LIRE 170400Z 12005KT 9999 SCT040 BKN070 14/12 Q1003 RMK BKN WIND THR31 10009KT BLU;EQDQ01+000000PRSWM2Q02 +00092ATMX  
0170162450999992000042005004+41650+012430FM-15+0012LIRE V0203501N001512200019N0080001N1+01201+01001999999ADDGA1021+036009999GF104991999999999999999999MA1100711999999MW1001REMMET076LIRE 200500Z 35003KT 8000 SCT120 12/10 Q1007 RMK SCT WIND THR31 33005KT BLU;EQDQ01+000000PRSWM2
0202162450999992000042207004+41650+012430FM-15+0012LIRE V0209999C00001220001CN0040001N1+01601+01401999999ADDGA1071+001809999GA2021+006009999MA1101801999999MW1101REMMET086LIRE 220700Z 00000KT 4000 BR BKN006 SCT020 16/14 Q1018 RMK BKN WIND THR31 12004KT YLO;EQDQ01+000042SCOTCVQ02+000003PRSWM1Q03    003PRSWM1
0170162450999992000042513004+41650+012430FM-15+0012LIRE V0202701N005712200019N0112651N1+01901+01401999999ADDGA1021+009009999GF104991999999999999999999MA1101391999999MW1001REMMET076LIRE 251300Z 27011KT 9999 SCT030 19/14 Q1014 RMK SCT WIND THR31 26014KT BLU;EQDQ01+000000PRSWM2
0219162450999992000050213004+41650+012430FM-15+0012LIRE V0202601N002112200019N0080001N1+02001+01801999999ADDGA1021+005409999GA2021+007509029GA3021+018009999GF104991999999999999999999MA1101191999999MW1001REMMET093LIRE 021300Z 26004KT 8000 FEW018 FEW025TCU SCT060 20/18 Q1012 RMK BKN WIND THR31 24006KT BLU;EQDQ01+000000PRSWM2
0252162450999992000050216004+41650+012430FM-15+0012LIRE V0201701N000512200019N0040001N1+01701+01601999999ADDGA1021+004809999GA2021+006909099GA3021+021009999GF104991999999999999999999MA1101191999999MW1101MW2611REMMET104LIRE 021600Z 17001KT 4000 -RA BR SCT016 FEW023CB SCT070 17/16 Q1012 RETS RMK BKN WIND THR31 15003KT GRN;EQDQ01+000003PRSWM1Q02    003PRSWM1
0196162450999992000050414004+41650+012430FM-15+0012LIRE V0202501N003612200019N0112651N1+02101+01801999999ADDGA1021+003009029GA2021+004509999GF104991999999999999999999MA1101801999999MW1001REMMET086LIRE 041400Z 25007KT 9999 FEW010TCU SCT015 21/18 Q1018 RMK SCT WIND THR31 24007KT BLU;EQDQ01+000000PRSWM2
0170162450999992000050613004+41650+012430FM-15+0012LIRE V0201701N004612200019N0112651N1+02301+01801999999ADDGA1021+006009999GF104991999999999999999999MA1101591999999MW1001REMMET076LIRE 061300Z 17009KT 9999 SCT020 23/18 Q1016 RMK SCT WIND THR31 17010KT BLU;EQDQ01+000000PRSWM2
0212162450999992000050619004+41650+012430FM-15+0012LIRE V0201501N002110660019N0050001N1+01801+01701999999ADDGA1021+027009999GA2071+066009999GF107991999999999999999999MA1101391999999MW1101REMMET086LIRE 061900Z 15004KT 5000 BR FEW090 BKN220 18/17 Q1014 RMK BKN WIND THR31 13003KT WHT;EQDQ01+000003PRSWM1Q02    003PRSWM1
0118162450999992000050808004+41650+012430FM-15+0012LIRE V0209999C00001220001CN0099001N1+02201+02001999999ADDMA1101901999999MW1001REMMET066LIRE 080800Z 00000KT CAVOK 22/20 Q1019 RMK WIND THR31 34001KT BLU;EQDQ01+000000PRSWM2
0118162450999992000051000004+41650+012430FM-15+0012LIRE V0209999C00001220001CN0099001N1+01601+01301999999ADDMA1101801999999MW1001REMMET066LIRE 100000Z 00000KT CAVOK 16/13 Q1018 RMK WIND THR31 00000KT BLU;EQDQ01+000000PRSWM2
0170162450999992000051807004+41650+012430FM-15+0012LIRE V0209999C000012200019N0070001N1+02001+01501999999ADDGA1021+060009999GF102991999999999999999999MA1101391999999MW1001REMMET076LIRE 180700Z 00000KT 7000 FEW200 20/15 Q1014 RMK FEW WIND THR31 00000KT WHT;EQDQ01+000000PRSWM2
0170162450999992000052305004+41650+012430FM-15+0012LIRE V0209999C000012200019N0112651N1+01701+01501999999ADDGA1021+007509999GF104991999999999999999999MA1101591999999MW1001REMMET076LIRE 230500Z 00000KT 9999 SCT025 17/15 Q1016 RMK SCT WIND THR31 09003KT BLU;EQDQ01+000000PRSWM2
0170162450999992000052314004+41650+012430FM-15+0012LIRE V0202501N003612200019N0112651N1+02301+01701999999ADDGA1021+006009999GF102991999999999999999999MA1101591999999MW1001REMMET076LIRE 231400Z 25007KT 9999 FEW020 23/17 Q1016 RMK FEW WIND THR31 24008KT BLU;EQDQ01+000000PRSWM2
0299162450999992000052912004+41650+012430SY-MT+0012LIRE V0202401N002112200019N0180001N1+02481+02071101461ADDAA199000091GA1021+006009999GF103991031021008001001001MA1101391101211MD1810021+9999MW1001REMSYN082AAXX  29124 16245 32568 32404 10248 20207 30121 40146 58002 83200 91145 333 83820;MET076LIRE 291200Z 24004KT 9999 SCT020 25/21 Q1014 RMK SCT WIND THR31 22007KT BLU;EQDQ01+000000PRSWM2Q02  00002PRCP99
0193162450999992000060622004+41650+012430FM-15+0012LIRE V0202501N002110240019N0112651N1+02501+02301999999ADDGA1021+004509999GA2071+024009999GF107991999999999999999999MA1101191999999MW1001REMMET083LIRE 062200Z 25004KT 9999 FEW015 BKN080 25/23 Q1012 RMK BKN WIND THR31 24006KT BLU;EQDQ01+000000PRSWM2
0387162450999992000060706004+41650+012430SY-MT+0012LIRE V0200401N00361009001CN0090001N1+02201+02011101181ADDAA112000591AY121061AY221061GA1021+004809999GA2021+012009999GF107991061081004501071001IA1099KA1120N+02121MA1101081100931MD1610051+9999MW1101REMSYN112AAXX  07064 16245 11459 70407 10220 20201 30093 40118 56005 69962 71022 86870 90545 333 20212 31/// 83816 83640;MET083LIRE 070600Z 04007KT 9000 SCT016 SCT040 22/20 Q1011 RMK BKN WIND THR31 03010KT BLU;EQDQ01+000000PRSWM2Q02    003PRSWM1
0346162450999992000061618004+41650+012420SY-MT+0012LIRE V0201901N000512200019N0100001N1+02501+02171101351ADDAA112000791AY191061AY221061GA1021+004809999GF104991031021004501031001KA1120M+02621MA1101291101101MD1310011+9999MW1011REMSYN100AAXX  16184 16245 11460 41901 10250 20217 30110 40135 53001 69902 70192 83230 91745 333 10262 83816;MET076LIRE 161800Z 19001KT 9999 SCT016 25/22 Q1013 RMK SCT WIND THR31 17004KT BLU;EQDQ01+000000PRSWM2Q02    003PRSWM1
0118162450999992000061821004+41650+012420FM-15+0012LIRE V0209999C00001220001CN0099001N1+01801+01501999999ADDMA1102301999999MW1001REMMET066LIRE 182100Z 00000KT CAVOK 18/15 Q1023 RMK WIND THR31 00000KT BLU;EQDQ01+000000PRSWM2
0257162450999992000062012004+41650+012420SY-MT+0012LIRE V0202401N003612200019N0250001N1+02701+02331102141ADDAA199000091GF100991001001999999001001MA1102101101891MD1310021+9999MW1001REMSYN066AAXX  20124 16245 32975 02407 10270 20233 30189 40214 53002 91145;MET066LIRE 201200Z 24007KT CAVOK 27/23 Q1021 RMK WIND THR31 24008KT BLU;EQDQ01+000000PRSWM2Q02  00002PRCP99
0344162450999992000062918004+41650+012420SY-MT+0012LIRE V0202901N002612200019N0300001N1+02641+02121101041ADDAA199000091GA1021+006009999GA2021+006309029GF102991021021008001001001KA1120M+02761MA1101021100791MD1610041+9999MW1001REMSYN088AAXX  29184 16245 32580 22905 10264 20212 30079 40104 56004 82200 91745 333 10276 82820;MET086LIRE 291800Z 29005KT 9999 FEW020 FEW021TCU 26/21 Q1010 RMK FEW WIND THR31 29007KT BLU;EQDQ01+000000PRSWM2Q02  00002PRCP99
0118162450999992000070523004+41650+012420FM-15+0012LIRE V0209999C00001220001CN0099001N1+02101+01801999999ADDMA1101691999999MW1001REMMET066LIRE 052300Z 00000KT CAVOK 21/18 Q1017 RMK WIND THR31 04001KT BLU;EQDQ01+000000PRSWM2
0118162450999992000070605004+41650+012420FM-15+0012LIRE V0200301N00051220001CN0099001N1+02201+01801999999ADDMA1101691999999MW1001REMMET066LIRE 060500Z 03001KT CAVOK 22/18 Q1017 RMK WIND THR31 02004KT BLU;EQDQ01+000000PRSWM2
0193162450999992000071404004+41650+012420FM-15+0012LIRE V0201101N003112200019N0112651N1+01801+01701999999ADDGA1021+006909999GA2021+009009999GF104991999999999999999999MA1101081999999MW1001REMMET083LIRE 140400Z 11006KT 9999 SCT023 SCT030 18/17 Q1011 RMK BKN WIND THR31 09007KT BLU;EQDQ01+000000PRSWM2
0196162450999992000072014004+41650+012420FM-15+0012LIRE V0202701N004612200019N0112651N1+02501+02101999999ADDGA1021+005409999GA2021+006009029GF102991999999999999999999MA1101191999999MW1001REMMET086LIRE 201400Z 27009KT 9999 FEW018 FEW020TCU 25/21 Q1012 RMK SCT WIND THR31 25011KT BLU;EQDQ01+000000PRSWM2
0170162450999992000081015004+41650+012420FM-15+0012LIRE V0202801N005112200019N0112651N1+02701+02001999999ADDGA1021+004809999GF102991999999999999999999MA1101491999999MW1001REMMET076LIRE 101500Z 28010KT 9999 FEW016 27/20 Q1015 RMK FEW WIND THR31 26011KT BLU;EQDQ01+000000PRSWM2
0118162450999992000081701004+41650+012420FM-15+0012LIRE V0203601N00101220001CN0099001N1+02101+01901999999ADDMA1101391999999MW1001REMMET066LIRE 170100Z 36002KT CAVOK 21/19 Q1014 RMK WIND THR31 00000KT BLU;EQDQ01+000000PRSWM2
0292162450999992000081706004+41650+012420SY-MT+0012LIRE V0200101N001512200019N0120001N1+02001+01781101451ADDAA199000091GF100991001001999999001001IA1019KA1120N+01881MA1101391101201MD1110051+9999MW1001REMSYN082AAXX  17064 16245 32962 00103 10200 20178 30120 40145 51005 90545 333 20188 30///;MET066LIRE 170600Z 01003KT CAVOK 20/18 Q1014 RMK WIND THR31 34002KT BLU;EQDQ01+000000PRSWM2Q02  00002PRCP99
0125162450999992000082410004+41650+012420FM-15+0012LIRE V0202401N00261220001CN0099001N1+03001+02501999999ADDMA1101901999999MW1001REMMET073LIRE 241000Z 24005KT CAVOK 30/25 Q1019 RMK SCT090 WIND THR31 23007KT BLU;EQDQ01+000000PRSWM2
0170162450999992000090611004+41650+012420FM-15+0012LIRE V0202401N001512200019N0112651N1+02401+01601999999ADDGA1021+006009999GF102991999999999999999999MA1101801999999MW1001REMMET076LIRE 061100Z 24003KT 9999 FEW020 24/16 Q1018 RMK FEW WIND THR31 23005KT BLU;EQDQ01+000000PRSWM2
0193162450999992000091616004+41650+012420FM-15+0012LIRE V0201801N003110600019N0112651N1+02401+02201999999ADDGA1021+004509999GA2071+060009999GF107991999999999999999999MA1101391999999MW1001REMMET083LIRE 161600Z 18006KT 9999 FEW015 BKN200 24/22 Q1014 RMK BKN WIND THR31 17008KT BLU;EQDQ01+000000PRSWM2
0199162450999992000091802004+41650+012420FM-15+0012LIRE V0201201N004610048019N0112651N1+02201+02001999999ADDGA1071+004809999GF107991999999999999999999KA1999M+99999MA1100911999999MW1001REMMET076LIRE 180200Z 12009KT 9999 BKN016 22/20 Q1009 RMK BKN WIND THR31 10013KT WHT;EQDQ01+000000PRSWM2Q02 +00132ATMX  
0118162450999992000092304004+41650+012420FM-15+0012LIRE V0200301N00261220001CN0099001N1+01601+01301999999ADDMA1101691999999MW1001REMMET066LIRE 230400Z 03005KT CAVOK 16/13 Q1017 RMK WIND THR31 01009KT BLU;EQDQ01+000000PRSWM2
0170162450999992000092413004+41650+012420FM-15+0012LIRE V0202301N004612200019N0112651N1+02401+02001999999ADDGA1021+006009999GF102991999999999999999999MA1101901999999MW1001REMMET076LIRE 241300Z 23009KT 9999 FEW020 24/20 Q1019 RMK SCT WIND THR31 23010KT BLU;EQDQ01+000000PRSWM2
0193162450999992000100513004+41650+012420FM-15+0012LIRE V0202801N003612200019N0112651N1+02201+01801999999ADDGA1021+007509999GA2021+024009999GF104991999999999999999999MA1101191999999MW1001REMMET083LIRE 051300Z 28007KT 9999 SCT025 SCT080 22/18 Q1012 RMK BKN WIND THR31 26008KT BLU;EQDQ01+000000PRSWM2
0193162450999992000101102004+41650+012420FM-15+0012LIRE V0209999C000012200019N0080001N1+01701+01501999999ADDGA1021+006009999GA2021+009909999GF104991999999999999999999MA1100311999999MW1001REMMET083LIRE 110200Z 00000KT 8000 SCT020 SCT033 17/15 Q1003 RMK BKN WIND THR31 03001KT BLU;EQDQ01+000000PRSWM2
0147162450999992000101223004+41650+012420FM-15+0012LIRE V0201901N002619999999Y0099001N1+01901+01301999999ADDKA1999M+99999MA1101021999999MW1001REMMET066LIRE 122300Z 19005KT CAVOK 19/13 Q1010 RMK WIND THR31 11010KT BLU;EQDQ01+000000PRSWM2Q02 -00102ATMX  
0170162450999992000101722004+41650+012420FM-15+0012LIRE V0209999C000012200019N0112651N1+01601+01401999999ADDGA1021+004809999GF102991999999999999999999MA1102201999999MW1001REMMET076LIRE 172200Z 00000KT 9999 FEW016 16/14 Q1022 RMK FEW WIND THR31 09003KT BLU;EQDQ01+000000PRSWM2
0166162450999992000102102004+41650+012420FM-15+0012LIRE V0200301N001012200019N0030001N1+01401+01301999999ADDGF100991999999999999999999MA1102301999999MW1101REMMET072LIRE 210200Z 03002KT 3000 BR SKC 14/13 Q1023 RMK WIND THR31 /////KT YLO;EQDQ01+000003PRSWM1Q02    003PRSWM1
0147162450999992000102223004+41650+012420FM-15+0012LIRE V0209999C000012200019N0060001N1+01601+01401999999ADDGF100991999999999999999999MA1102811999999MW1001REMMET069LIRE 222300Z 00000KT 6000 SKC 16/14 Q1028 RMK WIND THR31 /////KT WHT;EQDQ01+000000PRSWM2
0170162450999992000102317004+41650+012420FM-15+0012LIRE V0209999C000012200019N0112651N1+01701+01501999999ADDGA1021+009009999GF102991999999999999999999MA1102711999999MW1001REMMET076LIRE 231700Z 00000KT 9999 FEW030 17/15 Q1027 RMK FEW WIND THR31 /////KT BLU;EQDQ01+000000PRSWM2
0118162450999992000102319004+41650+012420FM-15+0012LIRE V0209999C00001220001CN0099001N1+01501+01501999999ADDMA1102711999999MW1001REMMET066LIRE 231900Z 00000KT CAVOK 15/15 Q1027 RMK WIND THR31 /////KT BLU;EQDQ01+000000PRSWM2
0118162450999992000102819004+41650+012420FM-15+0012LIRE V0209999C00001220001CN0099001N1+01601+01501999999ADDMA1102101999999MW1001REMMET066LIRE 281900Z 00000KT CAVOK 16/15 Q1021 RMK WIND THR31 /////KT BLU;EQDQ01+000000PRSWM2
0170162450999992000110107004+41650+012420FM-15+0012LIRE V0202501N004612200019N0112651N1+01801+01301999999ADDGA1021+007509999GF104991999999999999999999MA1101081999999MW1001REMMET076LIRE 010700Z 25009KT 9999 SCT025 18/13 Q1011 RMK SCT WIND THR31 /////KT BLU;EQDQ01+000000PRSWM2
0193162450999992000110305004+41650+012420FM-15+0012LIRE V0201201N003612200019N0112651N1+01801+01501999999ADDGA1021+006909999GA2021+021009999GF104991999999999999999999MA1101081999999MW1001REMMET083LIRE 030500Z 12007KT 9999 SCT023 SCT070 18/15 Q1011 RMK BKN WIND THR31 /////KT BLU;EQDQ01+000000PRSWM2
0169162450999992000110416004+41650+012420FM-15+0012LIRE V0202701N003112200019N0112651N1+01601+01201999999ADDGA1021+005409999GF104991999999999999999999MA1101491999999MW1001REMMET075LIRE 041600Z 27006KT 9999 SCT018 16/12 Q1015 RMK BKN WIND THR31/////KT BLU;EQDQ01+000000PRSWM2
0193162450999992000110902004+41650+012420FM-15+0012LIRE V0201101N003612200019N0090001N1+01301+01201999999ADDGA1021+004509999GA2021+027009999GF104991999999999999999999MA1101291999999MW1001REMMET083LIRE 090200Z 11007KT 9000 SCT015 SCT090 13/12 Q1013 RMK BKN WIND THR31 /////KT BLU;EQDQ01+000000PRSWM2
0118162450999992000111120004+41650+012420FM-15+0012LIRE V0200401N00151220001CN0099001N1+01301+01001999999ADDMA1102711999999MW1001REMMET066LIRE 112000Z 04003KT CAVOK 13/10 Q1027 RMK WIND THR31 /////KT BLU;EQDQ01+000000PRSWM2
0193162450999992000111304004+41650+012420FM-15+0012LIRE V0201301N004610120019N0090001N1+01701+01501999999ADDGA1021+004809999GA2071+012009999GF107991999999999999999999MA1101801999999MW1001REMMET083LIRE 130400Z 13009KT 9000 SCT016 BKN040 17/15 Q1018 RMK OVC WIND THR31 /////KT BLU;EQDQ01+000000PRSWM2
0181162450999992000111309004+41650+012420FM-15+0012LIRE V0201201N006212200019N0112651N1+01801+01601999999ADDGA1021+006009999GF104991999999999999999999MA1101591999999MW1001OC101131REMMET079LIRE 130900Z 12012G22KT 9999 SCT020 18/16 Q1016 RMK SCT WIND THR31 /////KT BLU;EQDQ01+000000PRSWM2
0193162450999992000111515004+41650+012420FM-15+0012LIRE V0201301N004610099019N0112651N1+02001+01701999999ADDGA1021+006009999GA2071+009909999GF107991999999999999999999MA1101691999999MW1001REMMET083LIRE 151500Z 13009KT 9999 SCT020 BKN033 20/17 Q1017 RMK OVC WIND THR31 /////KT BLU;EQDQ01+000000PRSWM2
0195162450999992000112200004+41650+012420FM-12+0012LIRE V0200301N003612200019N0100001N1+01201+01111101321ADDAA199000021GA1041+021009079GF104991041999022501031001MA1999999101061MD1210121+9999REMSYN082AAXX  22004 16245 32860 40307 10120 20111 30106 40132 52012 84030 92345 333 84357;EQDQ01+000002SCOLCG
0183162450999992000120301004+41650+012420FM-15+0012LIRE V0201101N00311220001CN0080001N1+01401+01301999999ADDGA1071+004809999GA2021+009909999MA1102001999999MW1001REMMET083LIRE 030100Z 11006KT 8000 BKN016 SCT033 14/13 Q1020 RMK BKN WIND THR31 /////KT WHT;EQDQ01+000042SCOTCVQ02+000000PRSWM2
0213162450999992000120801004+41650+012420FM-15+0012LIRE V0201201N002112200019N0040001N1+01301+01201999999ADDGA1021+027009999GA2021+033009999GF104991999999999999999999MA1102101999999MW1101REMMET087LIRE 080100Z 12004KT 4000 BR SCT090 SCT110 13/12 Q1021 RMK BKN WIND THR 31 /////KT GRN;EQDQ01+000003PRSWM1Q02    003PRSWM1
0193162450999992000120915004+41650+012420FM-15+0012LIRE V0201501N003112200019N0112651N1+01701+01501999999ADDGA1021+004809999GA2021+006009999GF104991999999999999999999MA1102201999999MW1001REMMET083LIRE 091500Z 15006KT 9999 SCT016 SCT020 17/15 Q1022 RMK BKN WIND THR31 /////KT WHT;EQDQ01+000000PRSWM2
0170162450999992000121302004+41650+012420FM-15+0012LIRE V0200201N001012200019N0060001N1+00901+00801999999ADDGA1021+009009999GF102991999999999999999999MA1102811999999MW1001REMMET076LIRE 130200Z 02002KT 6000 FEW030 09/08 Q1028 RMK FEW WIND THR31 /////KT WHT;EQDQ01+000000PRSWM2
0170162450999992000121917004+41650+012420FM-15+0012LIRE V0209999C000012200019N0112651N1+01001+00801999999ADDGA1021+018009999GF104991999999999999999999MA1102001999999MW1001REMMET076LIRE 191700Z 00000KT 9999 SCT060 10/08 Q1020 RMK SCT WIND THR31 /////KT BLU;EQDQ01+000000PRSWM2
0118162450999992000122404004+41650+012420FM-15+0012LIRE V0200801N00361220001CN0099001N1+00901+00301999999ADDMA1101591999999MW1001REMMET066LIRE 240400Z 08007KT CAVOK 09/03 Q1016 RMK WIND THR31 /////KT BLU;EQDQ01+000000PRSWM2
0203162450999992000122603004+41650+012420FM-15+0012LIRE V0202001N00411220001CN0060001N1+01201+01001999999ADDGA1071+007509999GA2021+012009999MA1099701999999MW1611REMMET087LIRE 260300Z 20008KT 6000 -RA BKN025 SCT040 12/10 Q0997 RMK BKN WIND THR31 /////KT WHT;EQDQ01+000042SCOTCVQ02+000003PRSWM1Q03    003PRSWM1
0193162450999992000122809004+41650+012420FM-15+0012LIRE V0202501N004112200019N0112651N1+01401+01201999999ADDGA1021+004809999GA2021+024009999GF104991999999999999999999MA1099291999999MW1001REMMET083LIRE 280900Z 25008KT 9999 SCT016 SCT080 14/12 Q0993 RMK BKN WIND THR31 /////KT BLU;EQDQ01+000000PRSWM2
0318162450999992000122818004+41650+012420SY-MT+0012LIRE V0209999C000012200019N0100001N1+01001+00951099911ADDAA199000091GA1021+006009999GF103991031021008001001001KA1120M+01641MA1099901099651MD1210181+9999MW1001REMSYN088AAXX  28184 16245 32560 30000 10100 20095 39965 49991 52018 83200 91745 333 10164 83820;MET076LIRE 281800Z 00000KT 9999 SCT020 10/10 Q0999 RMK SCT WIND THR31 /////KT BLU;EQDQ01+000000PRSWM2Q02  00002PRCP99
0170162450999992000122821004+41650+012420FM-15+0012LIRE V0202601N006710063019N0112651N1+01401+01001999999ADDGA1071+006309999GF107991999999999999999999MA1100001999999MW1001REMMET076LIRE 282100Z 26013KT 9999 BKN021 14/10 Q1000 RMK BKN WIND THR31 /////KT WHT;EQDQ01+000000PRSWM2
0168162520999992000010609004+41570+014650FM-12+0807LIBS V0201001N002612200019N0300001N1+00601+00151999999ADDGA1001+999999999GF100991001001999999001001MA1999999092861MD1110041+9999ME1315279REMSYN076AAXX  06094 16252 42980 01005 10060 20015 39286 48527 51004 90845 333 55310;
0208162520999992000011309004+41570+014650FM-12+0807LIBS V0209999C000010001519N0000001N1+00201+00141999999ADDAY141031AY221031GA1091+000159999GF109991091999999999999999MA1999999092901MD1810041+9999ME1315219MW1451REMSYN094AAXX  13094 16252 41/00 90000 10020 20014 39290 48521 58004 74542 90845 333 55300 89/00 90015;
0236162520999992000011700004+41570+014650FM-12+080799999V0203501N00511000601BN0002001N1+00001-00041999999ADDAA199000091AY141061AY221061GA1091+000609999GF109991091999999999999999MA1999999092681MD1610031+9999ME1314979MW1471REMSYN092    AAXX  17004 16252 31/02 93510 10000 21004 39268 48497 56003 74742 92345 333 89/02 90012;EQDQ01  00002PRCP99
0192162520999992000011800004+41570+014650FM-12+080799999V0202301N00361220001BN0200001N1+00161-00391999999ADDAA199000091GA1001+999999999GF100991001001999999001001MA1999999091681MD1710191+9999ME1314159REMSYN070    AAXX  18004 16252 32970 02307 10016 21039 39168 48415 57019 92345;EQDQ01  00002PRCP99
0180162520999992000020221004+41570+014650FM-12+0807LIBS V0202101N00361036001CN0100001N1+00761+00691999999ADDGA1041+007509069GF107991041051008001041001MA1999999092511MD1610031+9999ME1315029REMSYN088AAXX  02214 16252 42560 72107 10076 20069 39251 48502 56003 84540 92045 333 84625 83359;
0219162520999992000021000004+41570+014650FM-12+0807LIBS V0203301N014910018019N0030001N1+00041-00041999999ADDAA106001091AY161061AY221061GA1081+001809069GF108991081061001501999999MA1999999092111MD1210191+9999ME1314509MW1101REMSYN094AAXX  10004 16252 11230 83329 10004 21004 39211 48450 52019 60011 71062 886// 92345 333 88706;
0180162520999992000021115004+41570+014650FM-12+0807LIBS V0201401N002612200019N0200001N1+00781+00271999999ADDGA1021+030009079GF102991021001999999041001MA1999999092701MD1610071+9999ME1315199REMSYN088AAXX  11154 16252 42970 21405 10078 20027 39270 48519 56007 82040 91445 333 55310 82360;
0180162520999992000031315004+41570+014650FM-12+0807LIBS V0200901N003112200019N0150001N1+01401-00121999999ADDGA1031+006009029GF106991031011008001001011MA1999999092881MD1710121+9999ME1315509REMSYN088AAXX  13154 16252 42565 60906 10140 21012 39288 48550 57012 83101 91445 333 55310 83820;
0244162520999992000032812004+41570+014650FM-12+0807LIBS V0202101N007710270019N0150001N1+01201+00451999999ADDAA199000091GA1041+004509089GA2031+027009039GF106991041021004501041001MA1999999091871MD1310091+9999ME1314559REMSYN106AAXX  28124 16252 32465 62115 10120 20045 39187 48455 53009 84240 91145 333 55307 84815 83359 91032 91133;EQDQ01  00002PRCP99
0174162520999992000040721004+41570+014650FM-12+0807LIBS V0203301N008212200019N0150001N1+00301-00341999999ADDGA1021+027009079GF102991021001999999031001MA1999999092791MD1110191+9999ME1315149REMSYN082AAXX  07214 16252 42965 23316 10030 21034 39279 48514 51019 82030 92045 333 82359;
0253162520999992000041406004+41570+014650FM-12+0807LIBS V0202101N004112200019N0150001N1+00801+00561999999ADDAA199000091GA1011+009009069GF104991011051008001061001IA1019KA1120N+00781MA1999999091901MD1410001+9999ME1314499REMSYN112AAXX  14064 16252 32565 42108 10080 20056 39190 48449 54000 81560 90545 333 20078 30/// 55106 55300 81630 83360;EQDQ01  00002PRCP99
0208162520999992000041803004+41570+014650FM-12+0807LIBS V0209999C00001036001CN0080001N1+01201+00421999999ADDAY121031AY221031GA1021+006009069GF108991021051008001071999MA1999999091221MD1810031+9999ME1313979MW1101REMSYN094AAXX  18034 16252 41558 80000 10120 20042 39122 48397 58003 71022 8257/ 90245 333 82620 83358;
0180162520999992000043021004+41570+014650FM-12+0807LIBS V0203101N00261002101CN0120001N1+00981+00841999999ADDGA1031+002409079GF106991061061002501001001MA1999999092401MD1010031+9999ME1314979REMSYN088AAXX  30214 16252 42362 63105 10098 20084 39240 48497 50003 86600 92045 333 83708 83615;
0291162520999992000050706004+41570+014650FM-12+0807LIBS V0209999C000010240019N0080001N1+01581+01221999999ADDAA199000091AY101061AY201061GA1051+024009079GF108991051999022501031071IA1019KA1120N+01441MA1999999092511MD1410001+9999ME1208089MW1101REMSYN112AAXX  07064 16252 31858 80000 10158 20122 39251 42808 54000 71000 85037 90545 333 20144 30/// 55044 55300 85358;EQDQ01  00002PRCP99Q02    003SCOLCG
0158162520999992000052103004+41570+014650FM-12+0807LIBS V0209999C000012200019N0200001N1+01101+00931999999ADDGA1001+999999999GF100991001001999999001001MA1999999091981MD1310051+9999ME1207609REMSYN066AAXX  21034 16252 42970 00000 10110 20093 39198 42760 53005 90245;
0207162520999992000052118004+41570+014650FM-12+0807LIBS V0202201N006719999999N0150001N1+01761+01151999999ADDAA199000091GF107991001001999999001061KA1120M+02321MA1999999092101MD1310031+9999ME1207709REMSYN088AAXX  21184 16252 32965 72213 10176 20115 39210 42770 53003 80006 91745 333 10232 55308;EQDQ01  00002PRCP99
0178162520999992000061300004+41570+014650FM-12+0807LIBS V0209999C000012200019N0150001N1+01741+01481999999ADDAA199000091GF101991001001999999001011MA1999999093091MD1110031+9999ME1208619REMSYN072AAXX  13004 16252 32965 10000 10174 20148 39309 42861 51003 80001 92345;EQDQ01  00002PRCP99
0168162520999992000061903004+41570+014640FM-12+0807LIBS V0209999C000012200019N0200001N1+01241+00191999999ADDGA1001+999999999GF100991001001999999001001MA1999999093191MD1810041+9999ME1208699REMSYN076AAXX  19034 16252 42970 00000 10124 20019 39319 42869 58004 90245 333 55300;
0199162520999992000070409004+41570+014640FM-12+0807LIBS V0202401N011812200019N0120001N1+02901+00561999999ADDGA1041+024009079GF105991041999022501031091MA1999999092401MD1510001+9999ME1207979REMSYN088AAXX  04094 16252 42862 52423 10290 20056 39240 42797 55000 84039 90845 333 55310 84358;EQDQ01    003SCOLCG
0174162520999992000071903004+41570+014640FM-12+0807LIBS V0209999C000012200019N0120001N1+01561+01021999999ADDGA1011+030009079GF101991011001999999031001MA1999999092301MD1610101+9999ME1207899REMSYN082AAXX  19034 16252 42962 10000 10156 20102 39230 42789 56010 81030 90245 333 81360;
0158162520999992000072321004+41570+014640FM-12+0807LIBS V0202101N002612200019N0120001N1+02281+01211999999ADDGA1001+999999999GF100991001001999999001001MA1999999092791MD1610011+9999ME1208349REMSYN066AAXX  23214 16252 42962 02105 10228 20121 39279 42834 56001 92045;
0192162520999992000101709004+41570+014640FM-12+0807LIBS V0209999C000012200019N0180001N1+01521+00941999999ADDGA1011+004509089GF104991011011004501031021MA1999999092921MD1210031+9999ME1208459REMSYN100AAXX  17094 16252 42468 40000 10152 20094 39292 42845 52003 81132 90845 333 55308 81815 94905 95001;
0257162520999992000102118004+41570+014640FM-12+0807LIBS V0209999C000012200019N0050001N1+01201+01131999999ADDAA199000091AY111061AY211061GA1031+003009069GF103991031061004501001001KA1120M+01601MA1999999093471MD1310091+9999ME1208949MW1101REMSYN100AAXX  21184 16252 31450 30000 10120 20113 39347 42894 53009 71011 83600 91745 333 10160 55300 83710;EQDQ01  00002PRCP99
0158162520999992000102709004+41570+014640FM-12+0807LIBS V0209999C000012200019N0250001N1+01601+00881999999ADDGF101991001001999999001011MA1999999092511MD1310141+9999ME1208089REMSYN082AAXX  27094 16252 42975 10000 10160 20088 39251 42808 53014 80001 90845 333 55310;
0180162520999992000111421004+41570+014640FM-12+0807LIBS V0202201N011812200019N0100001N1+01461+00811999999ADDGA1011+007509069GF104991011051008001031001MA1999999092401MD1110051+9999ME1207989REMSYN088AAXX  14214 16252 42560 42223 10146 20081 39240 42798 51005 81530 92045 333 81625 83359;
0216162520999992000111918004+41570+014640FM-12+0807LIBS V0202101N00211036001CN0100001N1+00801+00681999999ADDAA112000191GA1011+003009089GF105991011021004501031001KA1120M+01121MA1999999091501MD1310101+9999ME1207179REMSYN100AAXX  19184 16252 12460 52104 10080 20068 39150 42717 53010 69922 81230 91745 333 10112 81810 84359;
0262162520999992000112506004+41570+014640FM-12+0807LIBS V0202001N00211009001CN0060001N1+00841+00601999999ADDAA112007191AY191061AY221061GA1021+003609089GF108991051081004501041999IA1119KA1120N+00781MA1999999091541MD1610011+9999ME1207219MW1101REMSYN118AAXX  25064 16252 11456 82004 10084 20060 39154 42721 56001 60072 71092 8584/ 90545 333 20078 32/// 55005 82812 83615;
0206162520999992000120200004+41570+014640FM-12+0807LIBS V0209999C000012200019N0080001N1+00821+00641999999ADDAA199000091AY101061AY201061GF102991001001999999001011MA1999999093091MD1810011+9999ME1208609MW1101REMSYN078AAXX  02004 16252 31958 20000 10082 20064 39309 42860 58001 71000 80001 92345;EQDQ01  00002PRCP99
0211162520999992000121918004+41570+014640FM-12+0807LIBS V0209999C000012200019N0250001N1+00541-00201999999ADDAA199000091GA1001+999999999GF100991001001999999001001KA1999M+01021MA1999999092561MD1110031+9999ME1208129REMSYN076AAXX  19184 16252 32975 00000 10054 21020 39256 42812 51003 91745 333 10102;EQDQ01  00002PRCP99
0089162530999992000010213004+41050+014070FM-15+0010LIRM V02099999999992200019N0112651N1+99999+99999999999ADDMW1001REMMET052LIRM 021300Z /////KT 9999 FEW035 BKN090 08/02 Q1025;EQDQ01+000000PRSWM2
0121162530999992000010215004+41050+014070FM-15+0010LIRM V02099999999992200019N0099001N1+99999+99999999999ADDMW1001REMMET084LIRM 021500Z /////KT 9999 FEW035 SCT100 10/M00 Q1025 RMK BKN WIND THR06 00000KT BLU;EQDQ01+000000PRSWM2
0086162530999992000010703004+41050+014070FM-15+0010LIRM V02099999999992200019N0100001N1+99999+99999999999ADDMW1001REMMET049LIRM 070300Z /////KT 1600 BR FEW006 01/M01 Q1024;EQDQ01+000000PRSWM2
0092162530999992000011610004+41050+014070FM-15+0010LIRM V02099999999992200019N9999999N1+99999+99999999999ADDMW1001REMMET055LIRM 161000Z /////KT 4500 BR FEW100 BKN200 08/05 Q1023;EQDQ01+000000PRSWM2
0090162530999992000012507004+41050+014070FM-15+0010LIRM V02099999999992200019N0112651N1+99999+99999999999ADDMW1001REMMET053LIRM 250700Z /////KT 9999 SCT035 SCT070 01/M03 Q1020;EQDQ01+000000PRSWM2
0116162530999992000012706004+41050+014070FM-15+0010LIRM V02099999999992200019N0144841N1+99999+99999999999ADDMW1001REMMET079LIRM 270600Z /////KT CAVOK M02/M04 Q1032 RMK FEW200 WIND THR06 01007KT BLK BLU;EQDQ01+000000PRSWM2
0092162530999992000021407004+41050+014070FM-15+0010LIRM V02099999999992200019N0112651N1+99999+99999999999ADDMW1001REMMET055LIRM 140700Z /////KT 3000 BR FEW032 SCT060 03/02 Q1020;EQDQ01+000000PRSWM2
0096162530999992000021721004+41050+014070FM-15+0010LIRM V02099999999992200019N0500001N1+99999+99999999999ADDMW1001REMMET059LIRM 172100Z /////KT 9999 BKN025 SCT080 BKN200 04/02 Q1006;EQDQ01+000000PRSWM2
0083162530999992000021805004+41050+014070FM-15+0010LIRM V02099999999992200019N0099001N1+99999+99999999999ADDMW1001REMMET046LIRM 180500Z /////KT 9999 FEW040 01/M03 Q1009;EQDQ01+000000PRSWM2
0117162530999992000022106004+41050+014070FM-15+0010LIRM V02099999999992200019N0099001N1+99999+99999999999ADDMW1001REMMET080LIRM 210600Z /////KT 9999 FEW015 02/00 Q1018 RMK FEW WIND THR06 01004KT BLK BLU;EQDQ01+000000PRSWM2
0083162530999992000022202004+41050+014070FM-15+0010LIRM V02099999999992200019N0099001N1+99999+99999999999ADDMW1001REMMET046LIRM 220200Z /////KT 9999 FEW040 02/M01 Q1024;EQDQ01+000000PRSWM2
0125162530999992000022407004+41050+014070FM-15+0010LIRM V02099999999992200019N0300001N1+99999+99999999999ADDMW1001REMMET088LIRM 240700Z /////KT 9999 FEW025 SCT070 01/M02 Q1027 RMK BKN WIND THR06 36003KT BLK BLU;EQDQ01+000000PRSWM2
0082162530999992000022618004+41050+014070FM-15+0010LIRM V02099999999992200019N0400001N1+99999+99999999999ADDMW1001REMMET045LIRM 261800Z /////KT 9999 SCT080 09/08 Q1029;EQDQ01+000000PRSWM2
0132162530999992000030215004+41050+014070FM-15+0010LIRM V02099999999992200019N9999999N1+99999+99999999999ADDMW1001REMMET095LIRM 021500Z /////KT 9999 FEW020TCU SCT070 11/07 Q1009 RERA RMK BKN WIND THR06 10010KT BLK BLU;EQDQ01+000000PRSWM2
0127162530999992000030407004+41050+014070FM-15+0010LIRM V02099999999992200019N0112651N1+99999+99999999999ADDMW1001REMMET090LIRM 040700Z /////KT 8000 FEW020TCU SCT025 05/04 Q1021 RMK BKN WIND THR06 05002KT BLK BLU;EQDQ01+000000PRSWM2
0115162530999992000030614004+41050+014070FM-15+0010LIRM V02099999999992200019N0112651N1+99999+99999999999ADDMW1001REMMET078LIRM 061400Z /////KT CAVOK 13/M04 Q1033 RMK SCT200 WIND THR06 07010KT BLK BLU;EQDQ01+000000PRSWM2
0117162530999992000030813004+41050+014070FM-15+0010LIRM V02099999999992200019N0112651N1+99999+99999999999ADDMW1001REMMET080LIRM 081300Z /////KT 9999 FEW020 14/07 Q1029 RMK FEW WIND THR06 24010KT BLK BLU;EQDQ01+000000PRSWM2
0089162530999992000030919004+41050+014070FM-15+0010LIRM V02099999999992200019N0112651N1+99999+99999999999ADDMW1001REMMET052LIRM 091900Z /////KT 7000 FEW020 SCT200 09/08 Q1025;EQDQ01+000000PRSWM2
0085162530999992000031204004+41050+014070FM-15+0010LIRM V02099999999992200019N0060001N1+99999+99999999999ADDMW1001REMMET048LIRM 120400Z /////KT 2500 BR FEW010 09/08 Q1018;EQDQ01+000000PRSWM2
0127162530999992000031420004+41050+014070FM-15+0010LIRM V02099999999992200019N0060001N1+99999+99999999999ADDMW1001REMMET090LIRM 142000Z /////KT 3000 BR FEW010 BKN070 11/09 Q1022 RMK BKN WIND THR06 19003KT BLK YLO;EQDQ01+000000PRSWM2
0131162530999992000031523004+41050+014070FM-15+0010LIRM V02099999999992200019N0040001N1+99999+99999999999ADDMW1001REMMET094LIRM 152300Z /////KT 6000 FEW010 SCT018 BKN070 10/08 Q1015 RMK OVC WIND THR06 03005KT BLK WHT;EQDQ01+000000PRSWM2
0076162530999992000031616004+41050+014070FM-15+0010LIRM V02099999999992200019N0099001N1+99999+99999999999ADDMW1001REMMET039LIRM 161600Z /////KT CAVOK 14/09 Q1015;EQDQ01+000000PRSWM2
0089162530999992000032021004+41050+014070FM-15+0010LIRM V02099999999992200019N0070001N1+99999+99999999999ADDMW1001REMMET052LIRM 202100Z /////KT 9999 SCT025 BKN070 06/04 Q1023;EQDQ01+000000PRSWM2
0107162530999992000032203004+41050+014070FM-15+0010LIRM V02099999999992200019N0099001N1+99999+99999999999ADDMW1001REMMET070LIRM 220300Z /////KT CAVOK 03/01 Q1022 RMK WIND THR06 03004KT BLK BLU;EQDQ01+000000PRSWM2
0089162530999992000032613004+41050+014070FM-15+0010LIRM V02099999999992200019N0112651N1+99999+99999999999ADDMW1001REMMET052LIRM 261300Z /////KT 9999 FEW020 SCT070 16/11 Q1015;EQDQ01+000000PRSWM2
0089162530999992000040308004+41050+014070FM-15+0010LIRM V02099999999992200019N9999999N1+99999+99999999999ADDMW1001REMMET052LIRM 030800Z /////KT 9000 FEW035 BKN080 14/10 Q1002;EQDQ01+000000PRSWM2
0089162530999992000040316004+41050+014070FM-15+0010LIRM V02099999999992200019N0080001N1+99999+99999999999ADDMW1001REMMET052LIRM 031600Z /////KT 9999 SCT025 BKN080 15/13 Q1000;EQDQ01+000000PRSWM2
0124162530999992000040719004+41050+014070FM-15+0010LIRM V02099999999992200019N0112651N1+99999+99999999999ADDMW1001REMMET087LIRM 071900Z /////KT 9999 FEW018 BKN035 10/07 Q1021 RMK OVC BLK WIND THR06 04003KT BLU;EQDQ01+000000PRSWM2
0082162530999992000040806004+41050+014070FM-15+0010LIRM V02099999999992200019N0100001N1+99999+99999999999ADDMW1001REMMET045LIRM 080600Z /////KT 9999 FEW040 04/01 Q1022;EQDQ01+000000PRSWM2
0126162530999992000041312004+41050+014070FM-15+0010LIRM V02099999999992200019N0180001N1+99999+99999999999ADDMW1001REMMET089LIRM 131200Z /////KT 5000 BR BKN013 FEW017TCU 18/13 Q1012 RMK BKN WIND THR06 21009KT GRN;EQDQ01+000000PRSWM2
0116162530999992000042019004+41050+014070FM-15+0010LIRM V02099999999992200019N0099001N1+99999+99999999999ADDMW1001REMMET079LIRM 201900Z /////KT 4000 BR SCT070 15/13 Q1010 RMK SCT WIND THR06 12004KT GRN;EQDQ01+000000PRSWM2
0130162530999992000050203004+41050+014070FM-15+0010LIRM V02099999999992200019N0080001N1+99999+99999999999ADDMW1001REMMET093LIRM 020300Z /////KT 4200 BR FEW010 SCT030 BKN080 14/12 Q1012 RMK OVC WIND THR06 05005KT GRN;EQDQ01+000000PRSWM2
0122162530999992000050413004+41050+014070FM-15+0010LIRM V02099999999992200019N0112651N1+99999+99999999999ADDMW1001REMMET085LIRM 041300Z /////KT 9999 FEW020 FEW022CB 23/16 Q1018 RMK FEW WIND THR06 23009KT BLU;EQDQ01+000000PRSWM2
0123162530999992000050706004+41050+014070FM-15+0010LIRM V02099999999992200019N0020001N1+99999+99999999999ADDMW1001REMMET086LIRM 070600Z /////KT 3800 BR FEW030 SCT080 16/14 Q1016 RMK OVC WIND THR06 06003KT GRN;EQDQ01+000000PRSWM2
0129162530999992000050717004+41050+014070FM-15+0010LIRM V02099999999992200019N0112651N1+99999+99999999999ADDMW1001REMMET092LIRM 071700Z /////KT 9999 FEW020CB SCT060 BKN080 19/16 Q1018 RMK BKN WIND THR06 25010KT BLU;EQDQ01+000000PRSWM2
0127162530999992000051410004+41050+014070FM-15+0010LIRM V02099999999992200019N0060001N1+99999+99999999999ADDMW1001REMMET090LIRM 141000Z /////KT 9000 FEW018 SCT080 BKN200 24/15 Q1018 RMK BKN WIND THR06 03006KT BLU;EQDQ01+000000PRSWM2
0110162530999992000052609004+41050+014070FM-15+0010LIRM V02099999999992200019N0099001N1+99999+99999999999ADDMW1001REMMET073LIRM 260900Z /////KT CAVOK 26/16 Q1016 RMK BKN200 WIND THR06 32003KT BLU;EQDQ01+000000PRSWM2
0113162530999992000060901004+41050+014070FM-15+0010LIRM V02099999999992200019N0144841N1+99999+99999999999ADDMW1001REMMET076LIRM 090100Z /////KT 9999 FEW030 18/16 Q1017 RMK FEW WIND THR06 01011KT BLU;EQDQ01+000000PRSWM2
0113162530999992000061314004+41050+014070FM-15+0010LIRM V02099999999992200019N0112651N1+99999+99999999999ADDMW1001REMMET076LIRM 131400Z /////KT 9999 FEW018 27/14 Q1022 RMK FEW WIND THR06 23011KT BLU;EQDQ01+000000PRSWM2
0113162530999992000061407004+41500+014700FM-15+0010LIRM V02099999999992200019N0060001N1+99999+99999999999ADDMW1001REMMET076LIRM 140700Z /////KT 9000 FEW012 24/19 Q1021 RMK FEW WIND THR06 04003KT BLU;EQDQ01+000000PRSWM2
0113162530999992000061513004+41500+014700FM-15+0010LIRM V02099999999992200019N0112651N1+99999+99999999999ADDMW1001REMMET076LIRM 151300Z /////KT 9999 FEW022 29/17 Q1016 RMK SCT WIND THR06 24013KT BLU;EQDQ01+000000PRSWM2
0113162530999992000061913004+41500+014700FM-15+0010LIRM V02099999999992200019N0099001N1+99999+99999999999ADDMW1001REMMET076LIRM 191300Z /////KT 9999 FEW025 27/12 Q1022 RMK FEW WIND THR06 24015KT BLU;EQDQ01+000000PRSWM2
0103162530999992000062023004+41500+014700FM-15+0010LIRM V02099999999992200019N0099001N1+99999+99999999999ADDMW1001REMMET066LIRM 202300Z /////KT CAVOK 17/16 Q1020 RMK WIND THR06 06003KT BLU;EQDQ01+000000PRSWM2
0103162530999992000062223004+41500+014700FM-15+0010LIRM V02099999999992200019N0099001N1+99999+99999999999ADDMW1001REMMET066LIRM 222300Z /////KT CAVOK 18/16 Q1020 RMK WIND THR06 05003KT BLU;EQDQ01+000000PRSWM2
0321162530999992000062400004+41500+014700SY-MT+0010LIRM V0203601N000512200019N0090001N1+01841+01691101781ADDAA199000091AY101061AY201061GF102991021061004501001001MA1999999101671MD1710031+9999MW1101REMSYN088AAXX  24004 16253 31459 23601 10184 20169 30167 40178 57003 71000 82600 92345 333 82715;MET076LIRM 240000Z /////KT 9000 FEW015 18/17 Q1017 RMK FEW WIND THR06 36001KT BLU;EQDQ01+000000PRSWM2Q02  00002PRCP99Q03    003PRSWM1
0113162530999992000063004004+41500+014700FM-15+0010LIRM V02099999999992200019N0112651N1+99999+99999999999ADDMW1001REMMET076LIRM 300400Z /////KT 9999 FEW040 18/17 Q1014 RMK FEW WIND THR06 02009KT BLU;EQDQ01+000000PRSWM2
0117162530999992000070115004+41500+014700FM-15+0010LIRM V02099999999992200019N9999999N1+99999+99999999999ADDMW1001REMMET080LIRM 011500Z /////KT 9999 FEW020 28/20 Q1017 RMK FEW WIND THR06 22012KT BLK BLU;EQDQ01+000000PRSWM2
0352162530999992000070306004+41500+014700SY-MT+0010LIRM V0200301N001012200019N0050001N1+01901+01691101751ADDAA199000091AY101061AY201061GF100991001001999999001001IA1019KA1120N+01521MA1999999101631MD1810111+9999MW1101REMSYN100AAXX  03064 16253 31950 00302 10190 20169 30163 40175 58011 71000 90545 333 20152 30/// 55116 55310;MET076LIRM 030600Z /////KT 5000 BR SKC 19/17 Q1017 RMK WIND THR06 03003KT BLK WHT;EQDQ01+000000PRSWM2Q02  00002PRCP99Q03    003PRSWM1
0117162530999992000071307004+41500+014700FM-15+0010LIRM V02099999999992200019N0099001N1+99999+99999999999ADDMW1001REMMET080LIRM 130700Z /////KT 9999 FEW020 17/12 Q1014 RMK FEW WIND THR06 33001KT BLK BLU;EQDQ01+000000PRSWM2
0103162530999992000071704004+41500+014700FM-15+0010LIRM V02099999999992200019N0099001N1+99999+99999999999ADDMW1001REMMET066LIRM 170400Z /////KT CAVOK 13/11 Q1015 RMK WIND THR06 01004KT BLU;EQDQ01+000000PRSWM2
0103162530999992000071721004+41050+014700FM-15+0010LIRM V02099999999992200019N0150001N1+99999+99999999999ADDMW1001REMMET066LIRM 172100Z /////KT CAVOK 18/15 Q1017 RMK WIND THR06 29001KT BLU;EQDQ01+000000PRSWM2
0106162530999992000072301004+41050+014700FM-15+0010LIRM V02099999999992200019N0099001N1+99999+99999999999ADDMW1001REMMET069LIRM 230100Z /////KT 9000 SKC 17/16 Q1018 RMK WIND THR06 00000KT BLU;EQDQ01+000000PRSWM2
0299162530999992000072418004+41050+014700SY-MT+0010LIRM V0202301N001012200019N0200001N1+02701+01371101471ADDAA199000091GF102991001001999999001011KA1120M+03041MA1999999101351MD1710111+9999MW1001REMSYN088AAXX  24184 16253 32970 22302 10270 20137 30135 40147 57011 80001 91745 333 10304 55304;MET073LIRM 241800Z /////KT CAVOK 27/14 Q1014 RMK FEW200 WIND THR06 23002KT BLU;EQDQ01+000000PRSWM2Q02  00002PRCP99
0120162530999992000072507004+41050+014700FM-15+0010LIRM V02099999999992200019N0112651N1+99999+99999999999ADDMW1001REMMET083LIRM 250700Z /////KT 4200 BR FEW015 21/16 Q1014 RMK FEW WIND THR06 04004KT BLK GRN;EQDQ01+000000PRSWM2
0117162530999992000072914004+41050+014700FM-15+0010LIRM V02099999999992200019N0112651N1+99999+99999999999ADDMW1001REMMET080LIRM 291400Z /////KT 9999 FEW025 28/23 Q1011 RMK FEW WIND THR06 21014KT BLK BLU;EQDQ01+000000PRSWM2
0113162530999992000081121004+41050+014700FM-15+0010LIRM V02099999999992200019N0099001N1+99999+99999999999ADDMW1001REMMET076LIRM 112100Z /////KT 9999 FEW040 23/21 Q1014 RMK FEW WIND THR06 14004KT BLU;EQDQ01+000000PRSWM2
0113162530999992000081409004+41050+014700FM-15+0010LIRM V02099999999992200019N9999999N1+99999+99999999999ADDMW1001REMMET076LIRM 140900Z /////KT 7000 FEW070 28/20 Q1018 RMK FEW WIND THR06 15004KT WHT;EQDQ01+000000PRSWM2
0126162530999992000081516004+41050+014700FM-15+0010LIRM V02099999999992200019N9999999N1+99999+99999999999ADDMW1001REMMET089LIRM 151600Z /////KT 9999 FEW023 FEW025CB 31/18 Q1014 RMK FEW WIND THR06 24016KT BLK BLU;EQDQ01+000000PRSWM2
0113162530999992000081701004+41050+014700FM-15+0010LIRM V02099999999992200019N9999999N1+99999+99999999999ADDMW1001REMMET076LIRM 170100Z /////KT 6000 SCT010 19/18 Q1014 RMK SCT WIND THR06 03004KT WHT;EQDQ01+000000PRSWM2
0116162530999992000081920004+41050+014700FM-15+0010LIRM V02099999999992200019N0099001N1+99999+99999999999ADDMW1001REMMET079LIRM 192000Z /////KT 4000 BR FEW008 25/24 Q1017 RMK SCT WIND THR06 20004KT GRN;EQDQ01+000000PRSWM2
0352162530999992000082306004+41050+014700SY-MT+0010LIRM V0200301N000512200019N0040001N1+01961+01841101651ADDAA199000091AY101061AY201061GF100991001001999999001001IA1019KA1120N+01861MA1999999101531MD1310031+9999MW1101REMSYN100AAXX  23064 16253 31940 00301 10196 20184 30153 40165 53003 71000 90545 333 20186 30/// 55100 55301;MET076LIRM 230600Z /////KT 4000 BR SKC 20/18 Q1016 RMK WIND THR06 05001KT BLK GRN;EQDQ01+000000PRSWM2Q02  00002PRCP99Q03    003PRSWM1
0117162530999992000082515004+41050+014700FM-15+0010LIRM V02099999999992200019N0099001N1+99999+99999999999ADDMW1001REMMET080LIRM 251500Z /////KT 9999 FEW025 32/19 Q1013 RMK FEW WIND THR06 23013KT BLK BLU;EQDQ01+000000PRSWM2
0106162530999992000082604004+41050+014700FM-15+0010LIRM V02099999999992200019N9999999N1+99999+99999999999ADDMW1001REMMET069LIRM 260400Z /////KT 7000 SKC 21/19 Q1013 RMK WIND THR06 36002KT WHT;EQDQ01+000000PRSWM2
0107162530999992000082611004+41050+014700FM-15+0010LIRM V02099999999992200019N0099001N1+99999+99999999999ADDMW1001REMMET070LIRM 261100Z /////KT CAVOK 35/16 Q1012 RMK WIND THR06 14005KT BLK BLU;EQDQ01+000000PRSWM2
0106162530999992000082701004+41050+014700FM-15+0010LIRM V02099999999992200019N0008001N1+99999+99999999999ADDMW1001REMMET069LIRM 270100Z /////KT 6000 SKC 22/20 Q1013 RMK WIND THR06 00000KT WHT;EQDQ01+000000PRSWM2
0120162530999992000082916004+41050+014700FM-15+0010LIRM V02099999999992200019N0112651N1+99999+99999999999ADDMW1001REMMET083LIRM 291600Z /////KT 9999 FEW022TCU 28/23 Q1016 RMK FEW WIND THR06 22015KT BLK BLU;EQDQ01+000000PRSWM2
0298162530999992000083100004+41050+014700SY-MT+0010LIRM V0203101N001012200019N0080001N1+02061+01831101481ADDAA199000091AY101061AY201061GF100991001001999999001001MA1999999101361MD1410001+9999MW1101REMSYN072AAXX  31004 16253 31958 03102 10206 20183 30136 40148 54000 71000 92345;MET069LIRM 310000Z /////KT 8000 SKC 21/18 Q1014 RMK WIND THR06 31002KT BLU;EQDQ01+000000PRSWM2Q02  00002PRCP99Q03    003PRSWM1
0117162530999992000090415004+41050+014700FM-15+0010LIRM V02099999999992200019N0112651N1+99999+99999999999ADDMW1001REMMET080LIRM 041500Z /////KT 9999 SCT025 24/16 Q1011 RMK BKN WIND THR06 23017KT BLK BLU;EQDQ01+000000PRSWM2
0309162530999992000091112004+41050+014700SY-MT+0010LIRM V0201101N001512200019N0140001N1+02801+01161101411ADDAA199000091GA1011+009009059GF101991011051008001001001MA1999999101301MD1710081+9999MW1001REMSYN088AAXX  11124 16253 32564 11103 10280 20116 30130 40141 57008 81500 91145 333 55310 81630;MET080LIRM 111200Z /////KT 9999 FEW030 28/12 Q1014 RMK FEW WIND THR06 34004KT BLK BLU;EQDQ01+000000PRSWM2Q02  00002PRCP99
0301162530999992000091312004+41050+014700SY-MT+0010LIRM V0201901N002612200019N0100001N1+02641+01911101611ADDAA199000091GA1011+009009029GF103991021081008001001011MA1999999101501MD1010001+9999MW1001REMSYN088AAXX  13124 16253 32560 31905 10264 20191 30150 40161 50000 82801 91145 333 55310 81830;MET072LIRM 131200Z /////KT 9999 FEW030 26/19 Q1016 RMK SCT WIND THR06 BLK BLU;EQDQ01+000000PRSWM2Q02  00002PRCP99
0375162530999992000092106004+41050+014700SY-MT+0010LIRM V0202301N005112200019N0100001N1+02161+01631101321ADDAA199000091GA1011+006009029GA2031+021009079GF103991011021008001031001IA1019KA1120N+02141MA1999999101201MD1310151+9999MW1001REMSYN112AAXX  21064 16253 32560 32310 10216 20163 30120 40132 53015 81230 90545 333 20214 30/// 55095 55300 81820 83357;MET087LIRM 210600Z /////KT 9999 FEW020 SCT070 22/16 Q1013 RMK SCT WIND THR06 23008KT BLK BLU;EQDQ01+000000PRSWM2Q02  00002PRCP99
0350162530999992000100206004+41050+014700SY-MT+0010LIRM V0203401N003112200019N0100001N1+01621+01481101001ADDAA199000091GF108991051081004501021999IA1019KA1120N+01601MA1999999100881MD1610041+9999MW1001REMSYN112AAXX  02064 16253 32460 83406 10162 20148 30088 40100 56004 8582/ 90545 333 20160 30/// 55033 81818 84627 85458;MET094LIRM 020600Z /////KT 9999 FEW018 SCT027 BKN080 16/15 Q1010 RMK OVC WIND THR06 02007KT BLK BLU;EQDQ01+000000PRSWM2Q02  00002PRCP99
0103162530999992000100605004+41050+014700FM-15+0010LIRM V02099999999992200019N0112651N1+99999+99999999999ADDMW1001REMMET066LIRM 060500Z /////KT CAVOK 13/11 Q1012 RMK WIND THR06 31008KT BLU;EQDQ01+000000PRSWM2
0131162530999992000101614004+41050+014700FM-15+0010LIRM V02099999999992200019N0112651N1+99999+99999999999ADDMW1001REMMET094LIRM 161400Z /////KT 9999 FEW020 SCT045 BKN090 20/16 Q1019 RMK OVC WIND THR06 28001KT BLK BLU;EQDQ01+000000PRSWM2
0125162530999992000101619004+41050+014700FM-15+0010LIRM V02099999999992200019N0112651N1+99999+99999999999ADDMW1001REMMET088LIRM 161900Z /////KT 9999 FEW020 SCT080 18/16 Q1020 RETS RMK BKN WIND THR06 30002KT BLU;EQDQ01+000000PRSWM2
0103162530999992000101902004+41050+014700FM-15+0010LIRM V02099999999992200019N0099001N1+99999+99999999999ADDMW1001REMMET066LIRM 190200Z /////KT CAVOK 14/12 Q1021 RMK WIND THR06 35003KT BLU;EQDQ01+000000PRSWM2
0103162530999992000102223004+41050+014700FM-15+0010LIRM V02099999999992200019N0099001N1+99999+99999999999ADDMW1001REMMET066LIRM 222300Z /////KT CAVOK 15/12 Q1028 RMK WIND THR06 36010KT BLU;EQDQ01+000000PRSWM2
0120162530999992000102420004+41050+014700FM-15+0010LIRM V02099999999992200019N0099001N1+99999+99999999999ADDMW1001REMMET083LIRM 242000Z /////KT 6000 FEW010 SCT080 11/10 Q1025 RMK SCT WIND THR06 06003KT WHT;EQDQ01+000000PRSWM2
0113162530999992000110123004+41050+014700FM-15+0010LIRM V02099999999992200019N0099001N1+99999+99999999999ADDMW1001REMMET076LIRM 012300Z /////KT 9999 FEW030 11/09 Q1016 RMK FEW WIND THR06 04003KT BLU;EQDQ01+000000PRSWM2
0133162530999992000110309004+41050+014700FM-15+0010LIRM V02099999999992200019N0060001N1+99999+99999999999ADDMW1001REMMET096LIRM 030900Z /////KT 9999 SCT020 FEW025CB SCT080 18/15 Q1014 RMK BKN WIND THR06 00000KT BLK BLU;EQDQ01+000000PRSWM2
0127162530999992000110723004+41050+014700FM-15+0010LIRM V02099999999992200019N0112651N1+99999+99999999999ADDMW1001REMMET090LIRM 072300Z /////KT 9999 FEW015CB SCT035 13/10 Q1006 RETS RMK BKN WIND THR06 20014KT BLU;EQDQ01+000000PRSWM2
0103162530999992000111205004+41050+014700FM-15+0010LIRM V02099999999992200019N0099001N1+99999+99999999999ADDMW1001REMMET066LIRM 120500Z /////KT CAVOK 08/05 Q1026 RMK WIND THR06 34008KT BLU;EQDQ01+000000PRSWM2
0117162530999992000111311004+41050+014700FM-15+0010LIRM V02099999999992200019N0112651N1+99999+99999999999ADDMW1001REMMET080LIRM 131100Z /////KT 9000 SCT070 20/17 Q1019 RMK BKN WIND THR06 03003KT BLK BLU;EQDQ01+000000PRSWM2
0124162530999992000111615004+41050+014700FM-15+0010LIRM V02099999999992200019N0112651N1+99999+99999999999ADDMW1001REMMET087LIRM 161500Z /////KT 9999 FEW040 SCT070 23/12 Q1015 RMK BKN WIND THR06 13003KT BLK BLU;EQDQ01+000000PRSWM2
0127162530999992000112409004+41050+014700FM-15+0010LIRM V02099999999992200019N0090001N1+99999+99999999999ADDMW1001REMMET090LIRM 240900Z /////KT 4200 BR FEW020 BKN030 12/11 Q1012 WIND THR06 36003KT RMK BKN BLK GRN;EQDQ01+000000PRSWM2
0124162530999992000113010004+41050+014700FM-15+0010LIRM V02099999999992200019N0112651N1+99999+99999999999ADDMW1001REMMET087LIRM 301000Z /////KT 8000 FEW100 BKN120 10/07 Q1022 RMK BKN WIND THR06 03003KT BLK BLU;EQDQ01+000000PRSWM2
0123162530999992000120802004+41050+014700FM-15+0010LIRM V02099999999992200019N0070001N1+99999+99999999999ADDMW1001REMMET086LIRM 080200Z /////KT 1800 BR FEW010 SCT070 08/07 Q1022 RMK BKN WIND THR06 00000KT YLO;EQDQ01+000000PRSWM2
0127162530999992000121014004+41050+014700FM-15+0010LIRM V02099999999992200019N0112651N1+99999+99999999999ADDMW1001REMMET090LIRM 101400Z /////KT 9999 FEW020 FEW025TCU 17/13 Q1024 RMK SCT WIND THR06 25015KT BLK BLU;EQDQ01+000000PRSWM2
0122162530999992000123105004+41050+014700FM-15+0010LIRM V02099999999992200019N0112651N1+99999+99999999999ADDMW1001REMMET085LIRM 310500Z /////KT 9999 FEW020CB BKN030 07/06 Q0999 RMK OVC WIND THR06 03013KT BLU;EQDQ01+000000PRSWM2
0159162610999992000010811004+41530+015720FM-15+0060LIBA V0200101N001512200019N0030001N1+01001+00601999999ADDGA1021+009009999GF102991999999999999999999MA1102401999999MW1101REMMET049LIBA 081100Z 01003KT 3000S BR FEW030 10/06 Q1024;EQDQ01+000003PRSWM1Q02    003PRSWM1
0158162610999992000010922004+41530+015720FM-15+0060LIBA V0203101N002610300019N0040001N1+00701+00701999999ADDGA1081+030009999GF108991999999999999999999MA1102301999999MW1101REMMET048LIBA 092200Z 31005KT 4000 BR OVC100 07/07 Q1023;EQDQ01+000003PRSWM1Q02    003PRSWM1
0278162610999992000011103004+41530+015720SY-MT+0060LIBA V0203001N007212200019N0020001N1+00601+00521102881ADDAY111031AY211031GA1021+015009999GF102991021051017501001001MA1102811102131MD1310041+9999MW1101REMSYN100AAXX  11034 16261 41720 23014 10060 20052 30213 40288 53004 71011 82500 90245 333 55300 82650 95090;MET048LIBA 110300Z 30014KT 2000 BR FEW050 06/05 Q1028;EQDQ01    003PRSWM1
0342162610999992000011421004+41530+015720SY-MT+006099999V0203001N00411036001CN0040001N1+00541+00541102181ADDAY121031AY221031GA1021+010509999GA2021+030009999GF106991031051012501031001MA1102101101431MD1110091+9999MW1101REMSYN110    AAXX  14214 16261 41640 63008 10054 20054 30143 40218 51009 71022 83530 92045 333 55300 83635 84360 95090;MET086LIBA 142100Z 30008KT 4000 BR SCT035 SCT100 05/05 Q1021 RMK BKN WIND THR29 30009KT GRN;EQDQ01    003PRSWM1
0091162610999992000012820004+41530+015720FM-15+0060LIBA V0201201N00261220001CN0099001N1+00401+00201999999ADDMA1102301999999MW1001REMMET039LIBA 282000Z 12005KT CAVOK 04/02 Q1023;EQDQ01+000000PRSWM2
0162162610999992000021201004+41530+015720FM-15+0060LIBA V0202901N002110210019N0112651N1+00701+00701999999ADDGA1021+015009999GA2071+021009999GF107991999999999999999999MA1102401999999MW1001REMMET052LIBA 120100Z 29004KT 9999 FEW050 BKN070 07/07 Q1024;EQDQ01+000000PRSWM2
0182162610999992000021410004+41530+015720FM-15+0060LIBA V0202901N002610300019N0040001N1+00901+00601999999ADDGA1021+009009999GA2071+030009999GF107991999999999999999999MA1101901999999MW1101REMMET056LIBA 141000Z 29005KT 4000S BR FEW030 BKN100 09/06 Q1019;EQDQ01+000003PRSWM1Q02    003PRSWM1
0309162610999992000021700004+41530+015720SY-MT+0060LIBA V0202301N007210360019N0180001N1+01121+00881100341ADDAA199000091GA1021+012009999GA2081+036009999GF108991031051012501021999MA1100311099621MD1710221+9999MW1001REMSYN100AAXX  17004 16261 32668 82314 10112 20088 39962 40034 57022 8352/ 92345 333 55300 83640 88462 95090;MET052LIBA 170000Z 23014KT 9999 SCT040 OVC120 11/09 Q1003;EQDQ01+000000PRSWM2Q02  00002PRCP99
0171162610999992000022321004+41530+015720FM-15+0060LIBA V0203001N003612200019N0112651N1+00201-00101999999ADDGA1021+013509999GF102991999999999999999999MA1102401999999MW1001REMMET077LIBA 232100Z 30007KT 9999 FEW045 02/M01 Q1024 RMK FEW WIND THR29 29005KT BLU;EQDQ01+000000PRSWM2
0119162610999992000022513004+41530+015720FM-15+0060LIBA V0202201N00101220001CN0099001N1+01301-00401999999ADDMA1102911999999MW1001REMMET067LIBA 251300Z 22002KT CAVOK 13/M04 Q1029 RMK WIND THR29 14003KT BLU;EQDQ01+000000PRSWM2
0200162610999992000030613004+41530+015720FM-15+0060LIBA V0201801N002612200019N0112651N1+00901-00201999999ADDGA1021+009009999GF102991999999999999999999KA1999M+99999MA1103391999999MW1001REMMET077LIBA 061300Z 18005KT 9999 FEW030 09/M02 Q1034 RMK FEW WIND THR29 11007KT BLU;EQDQ01+000000PRSWM2Q02 -00072ATMX  
0091162610999992000030620004+41530+015720FM-15+0060LIBA V0201801N00211220001CN0099001N1+00301+00101999999ADDMA1103391999999MW1001REMMET039LIBA 062000Z 18004KT CAVOK 03/01 Q1034;EQDQ01+000000PRSWM2
0147162610999992000030920004+41530+015720FM-15+0060LIBA V0201801N003112200019N0080001N1+00801+00601999999ADDGF100991999999999999999999MA1102001999999MW1001REMMET069LIBA 092000Z 18006KT 8000 SKC 08/06 Q1020 RMK WIND THR29 17005KT BLU;EQDQ01+000000PRSWM2
0307162610999992000031215004+41530+015720SY-MT+0060LIBA V0203001N00671036001CN0050001N1+01421+01341101861ADDAY111031AY211031GA1021+012009999GA2021+030009999GF106991031051012501031001MA1101801101141MD1110011+9999MW1101REMSYN106AAXX  12154 16261 41650 63013 10142 20134 30114 40186 51001 71011 83530 91445 333 55300 83640 84360 95090;MET055LIBA 121500Z 30013KT 5000 BR SCT040 SCT100 14/13 Q1018;EQDQ01    003PRSWM1
0366162610999992000031418004+41530+015720SY-MT+0060LIBA V0200801N003610240019N0080001N1+01201+01121102191ADDAA199000091AY111061AY211061GA1021+018009999GA2071+024009999GF107991021051017501031001KA1120M+01721MA1102101101461MD1310021+9999MW1101REMSYN112AAXX  14184 16261 31758 70807 10120 20112 30146 40219 53002 71011 82530 91745 333 10172 55300 82656 86358 95090;MET052LIBA 141800Z 08007KT 8000 FEW060 BKN080 12/11 Q1021;EQDQ01+000000PRSWM2Q02  00002PRCP99Q03    003PRSWM1
0219162610999992000031511004+41530+015720FM-15+0060LIBA V0202301N007710240019N0080001N1+01601+01001999999ADDGA1021+009009029GA2021+010509999GA3071+024009999GF107991999999999999999999MA1101391999999MW1001REMMET093LIBA 151100Z 23015KT 8000 FEW030TCU SCT035 BKN080 16/10 Q1014 RMK BKN WIND THR29 22017KT BLU;EQDQ01+000000PRSWM2
0219162610999992000032303004+41530+015720SY-MT+0060LIBA V0203001N002612200019N0100001N1+00141+00101102221ADDGF100991001001999999001001MA1102101101461MD1310011+9999MW1001REMSYN082AAXX  23034 16261 42960 03005 10014 20010 30146 40222 53001 90245 333 55300 95090;MET039LIBA 230300Z 30005KT CAVOK 01/01 Q1021;EQDQ01+000000PRSWM2
0247162610999992000032903004+41530+015720SY-MT+0060LIBA V0201001N003612200019N0150001N1+01221+01151101041ADDGA1021+030009039GF102991021001999999031001MA1101021100321MD1810021+9999MW1001REMSYN094AAXX  29034 16261 42965 21007 10122 20115 30032 40104 58002 82030 90245 333 55300 82360 95090;MET039LIBA 290300Z 10007KT CAVOK 12/11 Q1010;EQDQ01+000000PRSWM2
0216162610999992000040317004+41530+015720FM-15+0060LIBA V0200801N004110300019N0060001N1+01301+01201999999ADDGA1021+007509999GA2021+024009999GA3081+030009999GF108991999999999999999999MA1099901999999MW1001REMMET090LIBA 031700Z 08008KT 6000 FEW025 SCT080 OVC100 13/12 Q0999 RMK OVC WIND THR29 07008KT WHT;EQDQ01+000000PRSWM2
0170162610999992000040611004+41530+015720FM-15+0060LIBA V0202901N008712200019N0112651N1+01701+01001999999ADDGA1021+010509999GF104991999999999999999999MA1101081999999MW1001REMMET076LIBA 061100Z 29017KT 9999 SCT035 17/10 Q1011 RMK SCT WIND THR29 28017KT BLU;EQDQ01+000000PRSWM2
0218162610999992000040705004+41530+015720FM-15+0060LIBA V0202901N005710150019N0112651N1+00901+00801999999ADDGA1021+004509999GA2021+007509099GA3071+015009999GF107991999999999999999999MA1101591999999MW1001REMMET092LIBA 070500Z 29011KT 9999 FEW015 FEW025CB BKN050 09/08 Q1016 RMK BKN WIND THR29 28011KT BLU;EQDQ01+000000PRSWM2
0132162610999992000041414004+41530+015720FM-15+0060LIBA V0201001N00461220001CN0099001N1+01801+01001999999ADDMA1101021999999MW1001REMMET080LIBA 141400Z 10009KT CAVOK 18/10 Q1010 RMK SCT100 OVC200 WIND THR29 09011KT BLU;EQDQ01+000000PRSWM2
0193162610999992000041513004+41530+015720FM-15+0060LIBA V0201001N002110540019N0070001N1+02001+01601999999ADDGA1021+030009999GA2081+054009999GF108991999999999999999999MA1100511999999MW1001REMMET083LIBA 151300Z 10004KT 7000 SCT100 OVC180 20/16 Q1005 RMK OVC WIND THR29 09005KT WHT;EQDQ01+000000PRSWM2
0118162610999992000041523004+41530+015720FM-15+0060LIBA V0200801N00261220001CN0099001N1+01301+01101999999ADDMA1100711999999MW1001REMMET066LIBA 152300Z 08005KT CAVOK 13/11 Q1007 RMK WIND THR29 09003KT BLU;EQDQ01+000000PRSWM2
