0314722025128492000012803533+26067-080150FM-15+0003FLL  V0203305N00265220005MN0160005N1+01335+00835102395ADDGD12995+0131159GF104991999999999999999999MA1102405999999MW1001REMMET070KFLL 280353Z 33005KT 10SM SCT043 13/08 A3024 RMK AO2 SLP239 T01330083;EQDQ01+000000PRSWM2N01 00000JPWTH 0QNNAA1D0 02043BA1 0 02043GA1U0 99999KA1D0 00047JA1 0 00083LA1 0 01000CA1 0 03024NA1 0 00000QA1 0 10239SA1D0 00056RA1 0 00133YA1 0 33005
0054722025128492000013010009+26067-080150NSRDB+000399999V020999999999999999999999999999+99999+99999999999ADDGP10060000002000000002000000002000GR100600000900009
0054722025128492000013106009+26067-080150NSRDB+000399999V020999999999999999999999999999+99999+99999999999ADDGP10060000002000000002000000002000GR100600000900009
0426722025128492000020112533+26067-080150FM-15+0003FLL  V0203405N00365220005MN0064005N1+01615+01505102115ADDGD11995+0103659GD22995+0243859GD32995+0457259GF104991999999999999999999MA1102135999999MW1101MW2455REMMET086KFLL 011253Z 34007KT 4SM BR FEW034 SCT080 SCT150 16/15 A3016 RMK AO2 SLP211 T01610150;EQDQ01+000003PRSWM1Q02    003PRSWM1N01 00070JPWTH 0QNNAA1D0 02034BA1 0 01034AA1D0 02080BA1 0 02080AA1D0 02150BA1 0 02150GA1U0 99999KA1D0 00059JA1 0 00150LA1 0 00400CA1 0 03016NA1 0 00070QA1 0 10211SA1D0 00061RA1 0 00161YA1 0 34007
0374722025128492000020216533+26067-080150FM-15+0003FLL  V0200305N00575006105MN0160005N1+02115+01835102305ADDGD13995+0061059GD24995+0097559GF108991999999999999999999MA1102305999999MW1001REMMET093KFLL 021653Z 03011KT 10SM BKN020 OVC032 21/18 A3021 RMK AO2 SLP230 PRESENT WX VCSH T02110183;EQDQ01+000000PRSWM2N01 00000JPWTH 0QNNAA1D0 04020BA1 0 04020AA1D0 06032BA1 0 06032GA1 0 00020KA1D0 00065JA1 0 00183LA1 0 01000CA1 0 03021NA1 0 00000QA1 0 10230SA1D0 00070RA1 0 00211YA1 0 03011
0054722025128492000020309009+26067-080150NSRDB+000399999V020999999999999999999999999999+99999+99999999999ADDGP10060000002000000002000000002000GR100600000900009
0402722025128492000020310533+26067-080150FM-15+0003FLL  V0201205N00415028965MN0160005N1+02175+01895101875ADDGD11995+0061059GD22995+0085359GD34995+0289659GF108991999999999999999999MA1101905999999MW1001REMMET084KFLL 031053Z 12008KT 10SM FEW020 SCT028 OVC095 22/19 A3009 RMK AO2 SLP187 T02170189;EQDQ01+000000PRSWM2N01 00000JPWTH 0QNNAA1D0 02020BA1 0 01020AA1D0 02028BA1 0 02028AA1D0 06095BA1 0 06095GA1 0 00095KA1D0 00066JA1 0 00189LA1 0 01000CA1 0 03009NA1 0 00000QA1 0 10187SA1D0 00071RA1 0 00217YA1 0 12008
0071722025128492000021013009+26067-080150NSRDB+000399999V020999999999999999999999999999+99999+99999999999ADDGP10060000002008000002015000002008GQ100600841910929GR100600141913709
0054722025128492000021211009+26067-080150NSRDB+000399999V020999999999999999999999999999+99999+99999999999ADDGP10060000002000000002000000002000GR100600000900009
0314722025128492000021303533+26067-080150FM-15+0003FLL  V0201505N00265220005MN0160005N1+02065+01835102125ADDGD11995+0106759GF102991999999999999999999MA1102135999999MW1001REMMET070KFLL 130353Z 15005KT 10SM FEW035 21/18 A3016 RMK AO2 SLP212 T02060183;EQDQ01+000000PRSWM2N01 00000JPWTH 0QNNAA1D0 02035BA1 0 01035GA1U0 99999KA1D0 00065JA1 0 00183LA1 0 01000CA1 0 03016NA1 0 00000QA1 0 10212SA1D0 00069RA1 0 00206YA1 0 15005
0358722025128492000021501533+26067-080150FM-15+0003FLL  V0202105N00265060965MN0160005N1+02395+02175101975ADDGD12995+0274359GD23995+0609659GF107991999999999999999999MA1101965999999MW1001REMMET077KFLL 150153Z 21005KT 10SM SCT090 BKN200 24/22 A3011 RMK AO2 SLP197 T02390217;EQDQ01+000000PRSWM2N01 00000JPWTH 0QNNAA1D0 02090BA1 0 02090AA1D0 04200BA1 0 04200GA1 0 00200KA1D0 00071JA1 0 00217LA1 0 01000CA1 0 03011NA1 0 00000QA1 0 10197SA1D0 00075RA1 0 00239YA1 0 21005
0314722025128492000021518533+26067-080150FM-15+0003FLL  V0200405N00825220005MN0160005N1+02565+01945102065ADDGD11995+0091459GF102991999999999999999999MA1102075999999MW1001REMMET070KFLL 151853Z 04016KT 10SM FEW030 26/19 A3014 RMK AO2 SLP206 T02560194;EQDQ01+000000PRSWM2N01 00000JPWTH 0QNNAA1D0 02030BA1 0 01030GA1U0 99999KA1D0 00067JA1 0 00194LA1 0 01000CA1 0 03014NA1 0 00000QA1 0 10206SA1D0 00078RA1 0 00256YA1 0 04016
0071722025128492000021615009+26067-080150NSRDB+000399999V020999999999999999999999999999+99999+99999999999ADDGP10060047702008070202015011702008GQ100600592912509GR100600717914019
0685722025128492000021704596+26072-080154SOD  +0003KFLL V020999999999999999999999999999+99999+99999999999ADDAA124000096KA1240M+02565KA2240N+01725MG1102039999994OE11240076011012305OE22240062606013475OE33240032699999995REMSOD54524 HR PRECIPITATION (IN): 0.00 24 HR MAX TEMP (F): 7824 HR MAX TEMP TIME (LST):1446 24 HR MIN TEMP (F): 6324 HR MIN TEMP TIME (LST):0540 AVERAGE STATION PRESSURE:30.13  PEAK WIND SPEED (MPH): 17 PEAK WIND DIR (DEG):110 PEAK WIND TIME (LST):1230  FASTEST 2MIN SPEED (MPH): 14FASTEST 2MIN DIR (DEG):060 FASTEST 2MIN TIME (LST):1347 AVERAGE WIND SPEED (MPH): 7.3 24 HR AVG TEMP (F):71 HOURLY INCREMENTAL PRECIPITATION VALUES (IN):.00  .00  .00  .00  .00  .00  .00  .00  .00  .00  .00  .00  .00  .00  .00  .00  .00  .00  .00  .00  .00  .00  .00  .00EQDR01  0.007AAP092
0071722025128492000022215009+26067-080150NSRDB+000399999V020999999999999999999999999999+99999+99999999999ADDGP10060037402008023402015024902008GQ100600577912329GR100600746913989
0427722025128492000022305533+26067-080150FM-15+0003FLL  V0200805N00825019815MN0160005N1+02175+01175102385ADDGD11995+0134159GD23995+0198159GF107991999999999999999999KA1999M+02221KA2999N+02171MA1102375999999MD1810081+9999MW1001OC101081REMMET098KFLL 230553Z 08016G21KT 10SM FEW044 BKN065 22/12 A3023 RMK AO2 SLP238 T02170117 10222 20217 58008;EQDQ01+000000PRSWM2N01 00000JPWTH 0QNNAA1D0 02044BA1 0 01044AA1D0 04065BA1 0 04065GA1 0 00065KA1D0 00053JA1 0 00117LA1 0 01000CA1 0 03023NA1 0 00000QA1 0 10238SA1D0 00071RA1 0 00217YA1 0 08016
0071722025128492000022817009+26067-080150NSRDB+000399999V020999999999999999999999999999+99999+99999999999ADDGP10060082002008091002015009702008GQ100600376915399GR100601104913949
0358722025128492000022907533+26067-080150FM-15+0003FLL  V0209999C00005014945MN0160005N1+02115+01895102005ADDGD13995+0149459GD23995+0243859GF107991999999999999999999MA1102005999999MW1001REMMET077KFLL 290753Z 00000KT 10SM BKN049 BKN080 21/19 A3012 RMK AO2 SLP200 T02110189;EQDQ01+000000PRSWM2N01 00000JPWTH 0QNNAA1D0 04049BA1 0 04049AA1D0 04080BA1 0 04080GA1 0 00049KA1D0 00066JA1 0 00189LA1 0 01000CA1 0 03012NA1 0 00000QA1 0 10200SA1D0 00070RA1 0 00211YA1 0 00000
0054722025128492000022909009+26067-080150NSRDB+000399999V020999999999999999999999999999+99999+99999999999ADDGP10060000002000000002000000002000GR100600000900009
0303722025128492000030113533+26067-080150FM-15+0003FLL  V0209999C00005220005MN0160005N1+02305+01705102371ADDGD11995+0182959GF102991999999999999999999MA1102375999999MW1001REMMET070KFLL 011353Z 00000KT 10SM FEW060 23/17 A3023 RMK AO2 SLP237 T02280167;EQDQ01+000000PRSWM2N01 00000JPWTH 0QNNAA1D0 02060BA1 0 01060GA1U0 99999KA1D0 00063JA1 0 00170LA1 0 01000CA1 0 03023NA1 0 00000SA1D0 00073RA1 0 00230YA1 0 00000
0372722025128492000030117533+26067-080150FM-15+0003FLL  V0201105N00465220005MN0160005N1+02615+01395102235ADDGD11995+0167659GF102991999999999999999999KA1999M+02671KA2999N+01721MA1102245999999MD1810161+9999MW1001REMMET088KFLL 011753Z 11009KT 10SM FEW055 26/14 A3019 RMK AO2 SLP223 T02610139 10267 20172 58016;EQDQ01+000000PRSWM2N01 00000JPWTH 0QNNAA1D0 02055BA1 0 01055GA1U0 99999KA1D0 00057JA1 0 00139LA1 0 01000CA1 0 03019NA1 0 00000QA1 0 10223SA1D0 00079RA1 0 00261YA1 0 11009
0054722025128492000030310009+26067-080150NSRDB+000399999V020999999999999999999999999999+99999+99999999999ADDGP10060000002000000002000000002000GR100600000900009
0071722025128492000030617009+26067-080150NSRDB+000399999V020999999999999999999999999999+99999+99999999999ADDGP10060067702008037402015037002008GQ100600350915279GR100601137913899
0314722025128492000030621533+26067-080150FM-15+0003FLL  V0200805N00675220005MN0160005N1+02505+01565101875ADDGD11995+0121959GF102991999999999999999999MA1101905999999MW1001REMMET070KFLL 062153Z 08013KT 10SM FEW040 25/16 A3009 RMK AO2 SLP187 T02500156;EQDQ01+000000PRSWM2N01 00000JPWTH 0QNNAA1D0 02040BA1 0 01040GA1U0 99999KA1D0 00060JA1 0 00156LA1 0 01000CA1 0 03009NA1 0 00000QA1 0 10187SA1D0 00077RA1 0 00250YA1 0 08013
0054722025128492000030807009+26067-080150NSRDB+000399999V020999999999999999999999999999+99999+99999999999ADDGP10060000002000000002000000002000GR100600000900009
0071722025128492000031100009+26067-080150NSRDB+000399999V020999999999999999999999999999+99999+99999999999ADDGP10060000002008000002015000002008GQ100600873926479GR100600028905899
0054722025128492000031210009+26067-080150NSRDB+000399999V020999999999999999999999999999+99999+99999999999ADDGP10060000002000000002000000002000GR100600000900009
0358722025128492000031519533+26067-080150FM-15+0003FLL  V0201005N00775024385MN0160005N1+02725+01895101855ADDGD12995+0067159GD23995+0243859GF107991999999999999999999MA1101865999999MW1001REMMET077KFLL 151953Z 10015KT 10SM SCT022 BKN080 27/19 A3008 RMK AO2 SLP185 T02720189;EQDQ01+000000PRSWM2N01 00000JPWTH 0QNNAA1D0 02022BA1 0 02022AA1D0 04080BA1 0 04080GA1 0 00080KA1D0 00066JA1 0 00189LA1 0 01000CA1 0 03008NA1 0 00000QA1 0 10185SA1D0 00081RA1 0 00272YA1 0 10015
0071722025128492000031715009+26067-080150NSRDB+000399999V020999999999999999999999999999+99999+99999999999ADDGP10060061002008079402015010902008GQ100600510911529GR100600867913809
0334722025128492000032008533+26067-080150FM-15+0003FLL  V0201605N00365220005MN0160005N1+02335+01895101295ADDGD11995+0067159GF102991999999999999999999MA1101295999999MD1610181+9999MW1001REMMET076KFLL 200853Z 16007KT 10SM FEW022 23/19 A2991 RMK AO2 SLP129 T02330189 56018;EQDQ01+000000PRSWM2N01 00000JPWTH 0QNNAA1D0 02022BA1 0 01022GA1U0 99999KA1D0 00066JA1 0 00189LA1 0 01000CA1 0 02991NA1 0 00000QA1 0 10129SA1D0 00074RA1 0 00233YA1 0 16007
0071722025128492000032212009+26067-080150NSRDB+000399999V020999999999999999999999999999+99999+99999999999ADDGP10060000502008012002015000202008GQ100600862909089GR100600056908379
0071722025128492000032512009+26067-080150NSRDB+000399999V020999999999999999999999999999+99999+99999999999ADDGP10060000902008015402015000302008GQ100600859908969GR100600066909279
0054722025128492000033101009+26067-080150NSRDB+000399999V020999999999999999999999999999+99999+99999999999ADDGP10060000002000000002000000002000GR100600000900009
0071722025128492000040322009+26067-080150NSRDB+000399999V020999999999999999999999999999+99999+99999999999ADDGP10060021002008001702015020202008GQ100600620926229GR100600640913679
0307722025128492000040507533+26067-080150FM-15+0003FLL  V0203205N00725220005MN0160005N1+01835+01395101565ADDGF100991999999999999999999MA1101565999999MW1001OC100931REMMET070KFLL 050753Z 32014G18KT 10SM CLR 18/14 A2999 RMK AO2 SLP156 T01830139;EQDQ01+000000PRSWM2N01 00000JPWTH 0QNNAA1D0 00000BA1 0 00000GA1U0 99999KA1D0 00057JA1 0 00139LA1 0 01000CA1 0 02999NA1 0 00000QA1 0 10156SA1D0 00065RA1 0 00183YA1 0 32014
0314722025128492000040510533+26067-080150FM-15+0003FLL  V0203305N00775220005MN0160005N1+01565+00725101765ADDGD11995+0106759GF102991999999999999999999MA1101765999999MW1001REMMET070KFLL 051053Z 33015KT 10SM FEW035 16/07 A3005 RMK AO2 SLP176 T01560072;EQDQ01+000000PRSWM2N01 00000JPWTH 0QNNAA1D0 02035BA1 0 01035GA1U0 99999KA1D0 00045JA1 0 00072LA1 0 01000CA1 0 03005NA1 0 00000QA1 0 10176SA1D0 00060RA1 0 00156YA1 0 33015
0071722025128492000040618009+26067-080150NSRDB+000399999V020999999999999999999999999999+99999+99999999999ADDGP10060077402008040802015038902008GQ100600198918519GR100601283913649
0325722025128492000040918533+26067-080150FM-15+0003FLL  V0200505N00885220005MN0160005N1+02445+01005102095ADDGD11995+0118959GF102991999999999999999999MA1102105999999MW1001OC101291REMMET073KFLL 091853Z 05017G25KT 10SM FEW039 24/10 A3015 RMK AO2 SLP209 T02440100;EQDQ01+000000PRSWM2N01 00000JPWTH 0QNNAA1D0 02039BA1 0 01039GA1U0 99999KA1D0 00050JA1 0 00100LA1 0 01000CA1 0 03015NA1 0 00000QA1 0 10209SA1D0 00076RA1 0 00244YA1 0 05017
0314722025128492000040919533+26067-080150FM-15+0003FLL  V0200305N00935012805MN0160005N1+02395+01175102055ADDGD13995+0128059GF107991999999999999999999MA1102075999999MW1001REMMET070KFLL 091953Z 03018KT 10SM BKN042 24/12 A3014 RMK AO2 SLP205 T02390117;EQDQ01+000000PRSWM2N01 00000JPWTH 0QNNAA1D0 04042BA1 0 04042GA1 0 00042KA1D0 00053JA1 0 00117LA1 0 01000CA1 0 03014NA1 0 00000QA1 0 10205SA1D0 00075RA1 0 00239YA1 0 03018
0685722025128492000041104596+26072-080154SOD  +0003KFLL V020999999999999999999999999999+99999+99999999999ADDAA124000096KA1240M+02615KA2240N+02065MG1102109999994OE11240116209010255OE22240098307012045OE33240067599999995REMSOD54524 HR PRECIPITATION (IN): 0.00 24 HR MAX TEMP (F): 7924 HR MAX TEMP TIME (LST):1449 24 HR MIN TEMP (F): 6924 HR MIN TEMP TIME (LST):0503 AVERAGE STATION PRESSURE:30.15  PEAK WIND SPEED (MPH): 26 PEAK WIND DIR (DEG):090 PEAK WIND TIME (LST):1025  FASTEST 2MIN SPEED (MPH): 22FASTEST 2MIN DIR (DEG):070 FASTEST 2MIN TIME (LST):1204 AVERAGE WIND SPEED (MPH):15.1 24 HR AVG TEMP (F):74 HOURLY INCREMENTAL PRECIPITATION VALUES (IN):.00  .00  .00  .00  .00  .00  .00  .00  .00  .00  .00  .00  .00  .00  .00  .00  .00  .00  .00  .00  .00  .00  .00  .00EQDR01  0.007AAP092
0516722025128492000041410533+26067-080150FM-15+0003FLL  V0201405N00725006405MN0160005N1+02505+02065101505ADDGA1999+009001021GD13995+0064059GD23995+0091459GD33995+0131159GD44991+0420019GF108991999999999999999999MA1101525999999MW1001OC101031REMMET159KFLL 141053Z 14014G20KT 10SM BKN021 BKN030TCU BKN043 OVC140 25/21 A2998 RMK AO2 SLP150 OCNL LTG DSNT NW CB DSNT NW MOV N TCU VC SW-N PRESENT WX VCSH T02500206;EQDQ01+000000PRSWM2N01 00000JPWTH 0QNNAA1D0 04021BA1 0 04021AA1D0 04030BA1 0 04030AA1D0 04043BA1 0 04043GA1 0 00021KA1D0 00069JA1 0 00206LA1 0 01000CA1 0 02998NA1 0 00000QA1 0 10150SA1D0 00077RA1 0 00250YA1 0 14014
0071722025128492000041812009+26067-080150NSRDB+000399999V020999999999999999999999999999+99999+99999999999ADDGP10060008102008012502015006602008GQ100600828908119GR100600170913559
0054722025128492000042309009+26067-080150NSRDB+000399999V020999999999999999999999999999+99999+99999999999ADDGP10060000002000000002000000002000GR100600000900009
0071722025128492000042320009+26067-080150NSRDB+000399999V020999999999999999999999999999+99999+99999999999ADDGP10060083502008085802015011902008GQ100600335925289GR100601124913519
0071722025128492000042400009+26067-080150NSRDB+000399999V020999999999999999999999999999+99999+99999999999ADDGP10060002002008011502015001302008GQ100600852928229GR100600089910699
0298722025128492000042401533+26067-080150FM-15+0003FLL  V0201505N00315220005MN0160005N1+02445+02005101215ADDGF100991999999999999999999MA1101225999999MW1001REMMET069KFLL 240153Z 15006KT 10SM CLR 24/20 A2989 RMK AO2 SLP121 T02440200 $;EQDQ01+000000PRSWM2N01 00000JPWTH 0QNNAA1D0 00000BA1 0 00000GA1U0 99999KA1D0 00068JA1 0 00200LA1 0 01000CA1 0 02989NA1 0 00000QA1 0 10121SA1D0 00076RA1 0 00244YA1 0 15006
0685722025128492000042404596+26072-080154SOD  +0003KFLL V020999999999999999999999999999+99999+99999999999ADDAA124000096KA1240M+03005KA2240N+01675MG1101029999994OE11240076029001315OE22240062613016555OE33240030899999995REMSOD54524 HR PRECIPITATION (IN): 0.00 24 HR MAX TEMP (F): 8624 HR MAX TEMP TIME (LST):1525 24 HR MIN TEMP (F): 6224 HR MIN TEMP TIME (LST):0632 AVERAGE STATION PRESSURE:29.83  PEAK WIND SPEED (MPH): 17 PEAK WIND DIR (DEG):290 PEAK WIND TIME (LST):0131  FASTEST 2MIN SPEED (MPH): 14FASTEST 2MIN DIR (DEG):130 FASTEST 2MIN TIME (LST):1655 AVERAGE WIND SPEED (MPH): 6.9 24 HR AVG TEMP (F):74 HOURLY INCREMENTAL PRECIPITATION VALUES (IN):.00  .00  .00  .00  .00  .00  .00  .00  .00  .00  .00  .00  .00  .00  .00  .00  .00  .00  .00  .00  .00  .00  .00  .00EQDR01  0.007AAP092
0054722025128492000042607009+26067-080150NSRDB+000399999V020999999999999999999999999999+99999+99999999999ADDGP10060000002000000002000000002000GR100600000900009
0314722025128492000042610533+26067-080150FM-15+0003FLL  V0203205N00365220005MN0160005N1+02065+01615101445ADDGD11995+0137259GF102991999999999999999999MA1101465999999MW1001REMMET070KFLL 261053Z 32007KT 10SM FEW045 21/16 A2996 RMK AO2 SLP144 T02060161;EQDQ01+000000PRSWM2N01 00000JPWTH 0QNNAA1D0 02045BA1 0 01045GA1U0 99999KA1D0 00061JA1 0 00161LA1 0 01000CA1 0 02996NA1 0 00000QA1 0 10144SA1D0 00069RA1 0 00206YA1 0 32007
0372722025128492000042611533+26067-080150FM-15+0003FLL  V0203205N00415220005MN0160005N1+02115+01615101495ADDGD11995+0121959GF102991999999999999999999KA1999M+02441KA2999N+02001MA1101495999999MD1110101+9999MW1001REMMET088KFLL 261153Z 32008KT 10SM FEW040 21/16 A2997 RMK AO2 SLP149 T02110161 10244 20200 51010;EQDQ01+000000PRSWM2N01 00000JPWTH 0QNNAA1D0 02040BA1 0 01040GA1U0 99999KA1D0 00061JA1 0 00161LA1 0 01000CA1 0 02997NA1 0 00000QA1 0 10149SA1D0 00070RA1 0 00211YA1 0 32008
0314722025128492000042621533+26067-080150FM-15+0003FLL  V0202605N00365220005MN0160005N1+02835+01225101335ADDGD11995+0152459GF102991999999999999999999MA1101355999999MW1001REMMET070KFLL 262153Z 26007KT 10SM FEW050 28/12 A2993 RMK AO2 SLP133 T02830122;EQDQ01+000000PRSWM2N01 00000JPWTH 0QNNAA1D0 02050BA1 0 01050GA1U0 99999KA1D0 00054JA1 0 00122LA1 0 01000CA1 0 02993NA1 0 00000QA1 0 10133SA1D0 00083RA1 0 00283YA1 0 26007
0354722025128492000043005533+26067-080150FM-15+0003FLL  V0202905N00315220005MN0160005N1+02335+01945101645ADDGF100991999999999999999999KA1999M+02781KA2999N+02331MA1101665999999MD1010021+9999MW1001REMMET085KFLL 300553Z 29006KT 10SM CLR 23/19 A3002 RMK AO2 SLP164 T02330194 10278 20233 50002;EQDQ01+000000PRSWM2N01 00000JPWTH 0QNNAA1D0 00000BA1 0 00000GA1U0 99999KA1D0 00067JA1 0 00194LA1 0 01000CA1 0 03002NA1 0 00000QA1 0 10164SA1D0 00074RA1 0 00233YA1 0 29006
0353722025128492000043011533+26067-080150FM-15+0003FLL  V0202905N00415220005MN0144005N1+02175+01725101745ADDGF100991999999999999999999KA1999M+02331KA2999N+02061MA1101765999999MD1310151+9999MW1001REMMET084KFLL 301153Z 29008KT 9SM CLR 22/17 A3005 RMK AO2 SLP174 T02170172 10233 20206 53015;EQDQ01+000000PRSWM2N01 00000JPWTH 0QNNAA1D0 00000BA1 0 00000GA1U0 99999KA1D0 00063JA1 0 00172LA1 0 00900CA1 0 03005NA1 0 00000QA1 0 10174SA1D0 00071RA1 0 00217YA1 0 29008
0378722025128492000050220533+26067-080150FM-15+0003FLL  V0201005N00675024385MN0160005N1+02725+01785101695ADDGD11995+0088459GD24995+0243859GF108991999999999999999999MA1101695999999MD1610131+9999MW1001REMMET083KFLL 022053Z 10013KT 10SM FEW029 OVC080 27/18 A3003 RMK AO2 SLP169 T02720178 56013;EQDQ01+000000PRSWM2N01 00000JPWTH 0QNNAA1D0 02029BA1 0 01029AA1D0 06080BA1 0 06080GA1 0 00080KA1D0 00064JA1 0 00178LA1 0 01000CA1 0 03003NA1 0 00000QA1 0 10169SA1D0 00081RA1 0 00272YA1 0 10013
0666722025128492000050304596+26072-080154SOD  +0003KFLL V020999999999999999999999999999+99999+99999999999ADDAA124000095KA1240M+02945KA2240N+02335MG1101599999994OE11240098310013245OE22240076010015465OE33240057299999995REMSOD54524 HR PRECIPITATION (IN): 0.00 24 HR MAX TEMP (F): 8524 HR MAX TEMP TIME (LST):1314 24 HR MIN TEMP (F): 7424 HR MIN TEMP TIME (LST):0532 AVERAGE STATION PRESSURE:30.00  PEAK WIND SPEED (MPH): 22 PEAK WIND DIR (DEG):100 PEAK WIND TIME (LST):1324  FASTEST 2MIN SPEED (MPH): 17FASTEST 2MIN DIR (DEG):100 FASTEST 2MIN TIME (LST):1546 AVERAGE WIND SPEED (MPH):12.8 24 HR AVG TEMP (F):80 HOURLY INCREMENTAL PRECIPITATION VALUES (IN):.00  .00  .00  .00  .00  .00  .00  .00  .00  .00  .00  .00  .00  .00  .00  .00  .00  .00  .00  .00  .00  .00  .00  .00
0054722025128492000050401009+26067-080150NSRDB+000399999V020999999999999999999999999999+99999+99999999999ADDGP10060000002000000002000000002000GR100600000900009
0071722025128492000050523009+26067-080150NSRDB+000399999V020999999999999999999999999999+99999+99999999999ADDGP10060021402008039802015009302008GQ100600724928039GR100600405913429
0054722025128492000050809009+26067-080150NSRDB+000399999V020999999999999999999999999999+99999+99999999999ADDGP10060000002000000002000000002000GR100600000900009
0054722025128492000051403009+26067-080150NSRDB+000399999V020999999999999999999999999999+99999+99999999999ADDGP10060000002000000002000000002000GR100600000900009
0054722025128492000051710009+26067-080150NSRDB+000399999V020999999999999999999999999999+99999+99999999999ADDGP10060000002000000002000000002000GR100600000900009
0402722025128492000051809533+26067-080150FM-15+0003FLL  V0201005N00525012505MN0160005N1+02445+01835102035ADDGD12995+0088459GD23995+0125059GD33995+0762059GF107991999999999999999999MA1102035999999MW1001REMMET084KFLL 180953Z 10010KT 10SM SCT029 BKN041 BKN250 24/18 A3013 RMK AO2 SLP203 T02440183;EQDQ01+000000PRSWM2N01 00000JPWTH 0QNNAA1D0 02029BA1 0 02029AA1D0 04041BA1 0 04041AA1D0 04250BA1 0 04250GA1 0 00041KA1D0 00065JA1 0 00183LA1 0 01000CA1 0 03013NA1 0 00000QA1 0 10203SA1D0 00076RA1 0 00244YA1 0 10010
0369722025128492000051818533+26067-080150FM-15+0003FLL  V0200905N00725076205MN0160005N1+02785+01835102155ADDGD11995+0097559GD23995+0762059GF107991999999999999999999MA1102175999999MW1001OC101131REMMET080KFLL 181853Z 09014G22KT 10SM FEW032 BKN250 28/18 A3017 RMK AO2 SLP215 T02780183;EQDQ01+000000PRSWM2N01 00000JPWTH 0QNNAA1D0 02032BA1 0 01032AA1D0 04250BA1 0 04250GA1 0 00250KA1D0 00065JA1 0 00183LA1 0 01000CA1 0 03017NA1 0 00000QA1 0 10215SA1D0 00082RA1 0 00278YA1 0 09014
0071722025128492000051915009+26067-080150NSRDB+000399999V020999999999999999999999999999+99999+99999999999ADDGP10060070102008061302015022402008GQ100600388909039GR100601038913349
0071722025128492000052114009+26067-080150NSRDB+000399999V020999999999999999999999999999+99999+99999999999ADDGP10060053102008055802015018802008GQ100600521908379GR100600817913339
0314722025128492000052118533+26067-080150FM-15+0003FLL  V0201405N00525220005MN0160005N1+02785+01835101755ADDGD11995+0109759GF102991999999999999999999MA1101765999999MW1001REMMET070KFLL 211853Z 14010KT 10SM FEW036 28/18 A3005 RMK AO2 SLP175 T02780183;EQDQ01+000000PRSWM2N01 00000JPWTH 0QNNAA1D0 02036BA1 0 01036GA1U0 99999KA1D0 00065JA1 0 00183LA1 0 01000CA1 0 03005NA1 0 00000QA1 0 10175SA1D0 00082RA1 0 00278YA1 0 14010
0071722025128492000052415009+26067-080150NSRDB+000399999V020999999999999999999999999999+99999+99999999999ADDGP10060072702008066702015020502008GQ100600386908879GR100601039913319
0362722025128492000052622533+26067-080150FM-15+0003FLL  V0201605N00575220005MN0160005N1+02895+02285101535ADDGA1999+009001091GD11995+0091459GF102991999999999999999999MA1101565999999MW1001REMMET102KFLL 262253Z 16011KT 10SM FEW030CB 29/23 A2999 RMK AO2 SLP153 CB DSNT W MOV UNK TCU DSNT SW T02890228;EQDQ01+000000PRSWM2N01 00000JPWTH 0QNNAA1D0 02030BA1 0 01030GA1U0 99999KA1D0 00073JA1 0 00228LA1 0 01000CA1 0 02999NA1 0 00000QA1 0 10153SA1D0 00084RA1 0 00289YA1 0 16011
0575722025128492000053019003+26067-080150FM-15+0003FLL  V0209999V00265002445MN0040005N1+02395+02175101295ADDAA101000891GA1999+007501091GD13995+0024459GD23995+0085359GD34995+0182959GF108991999999999999999999GP10060094802008074202015023802008GQ100600169925879GR100601268913299MA1101295999999MW1635MW2811MW3955REMMET134KFLL 301900Z 08006KT 5SM TSRA SCT008 BKN025CB OVC047 24/22 A2991 RMK AO2 PRESFR FRQ LTGCG VC NE TS VC NE MOV NE CB VC NE MOV NE P0003;EQDQ01+000003PRSWM1Q02    003PRSWM1N01 01021JPWTH 0QNNAA1D0 04008BA1 0 04008AA1D0 04028BA1 0 04028AA1D0 06060BA1 0 06060GA1 0 00008KA1D0 00071JA1 0 00217LA1 0 00250CA1 0 02991NA1 0 01021QA1 0 10129SA1D0 00075RA1 0 00239YA1 0 00005
0514722025128492000060314533+26067-080150FM-15+0003FLL  V0209999V00265008845MN0064005N1+02785+02395101875ADDAA101001592AA203001392GA1999+008701091GD11995+0076259GD23995+0088459GD33995+0182959GF107991999999999999999999MA1101865999999MD1110051+9999MW1655REMMET128KFLL 031453Z VRB05KT 4SM +RA FEW025 BKN029CB BKN060 28/24 A3008 RMK AO2 RAB36 SLP187 CB SW MOV UNKN P0006 60005 T02780239 51005;EQDQ01+000003PRSWM1Q02    003PRSWM1N01 00022JPWTH 0QNNAA1D0 02025BA1 0 01025AA1D0 04029BA1 0 04029AA1D0 04060BA1 0 04060GA1 0 00029KA1D0 00075JA1 0 00239LA1 0 00400CA1 0 03008NA1 0 00022QA1 0 10187SA1D0 00082RA1 0 00278YA1 0 00005
0071722025128492000060322009+26067-080150NSRDB+000399999V020999999999999999999999999999+99999+99999999999ADDGP10060039902008035202015020702008GQ100600568928089GR100600725913279
0071722025128492000060400009+26067-080150NSRDB+000399999V020999999999999999999999999999+99999+99999999999ADDGP10060005902008015102015003902008GQ100600825929159GR100600172913279
0071722025128492000060520009+26067-080150NSRDB+000399999V020999999999999999999999999999+99999+99999999999ADDGP10060079202008057802015029002008GQ100600299927049GR100601147913269
0438722025128492000061412533+26067-080150FM-15+0003FLL  V0201105N00525076205MN0160005N1+02835+02285101965ADDGA1999+008701021GD11995+0067159GD22995+0088459GD33995+0762059GF107991999999999999999999MA1101965999999MW1001REMMET104KFLL 141253Z 11010KT 10SM FEW022 SCT029TCU BKN250 28/23 A3011 RMK AO2 SLP196 TCU VC W DSNT NE T02830228;EQDQ01+000000PRSWM2N01 00000JPWTH 0QNNAA1D0 02022BA1 0 01022AA1D0 02029BA1 0 02029AA1D0 04250BA1 0 04250GA1 0 00250KA1D0 00073JA1 0 00228LA1 0 01000CA1 0 03011NA1 0 00000QA1 0 10196SA1D0 00083RA1 0 00283YA1 0 11010
0378722025128492000061502533+26067-080150FM-15+0003FLL  V0201005N00415220005MN0160005N1+02725+02285101935ADDGD11995+0073259GD22995+0762059GF104991999999999999999999MA1101935999999MD1110131+9999MW1001REMMET083KFLL 150253Z 10008KT 10SM FEW024 SCT250 27/23 A3010 RMK AO2 SLP193 T02720228 51013;EQDQ01+000000PRSWM2N01 00000JPWTH 0QNNAA1D0 02024BA1 0 01024AA1D0 02250BA1 0 02250GA1U0 99999KA1D0 00073JA1 0 00228LA1 0 01000CA1 0 03010NA1 0 00000QA1 0 10193SA1D0 00081RA1 0 00272YA1 0 10008
0054722025128492000061902009+26067-080150NSRDB+000399999V020999999999999999999999999999+99999+99999999999ADDGP10060000002000000002000000002000GR100600000900009
0314722025128492000062003533+26067-080150FM-15+0003FLL  V0201205N00155220005MN0160005N1+02675+02175102185ADDGD11995+0396259GF102991999999999999999999MA1102205999999MW1001REMMET070KFLL 200353Z 12003KT 10SM FEW130 27/22 A3018 RMK AO2 SLP218 T02670217;EQDQ01+000000PRSWM2N01 00000JPWTH 0QNNAA1D0 02130BA1 0 01130GA1U0 99999KA1D0 00071JA1 0 00217LA1 0 01000CA1 0 03018NA1 0 00000QA1 0 10218SA1D0 00080RA1 0 00267YA1 0 12003
0071722025128492000062021009+26067-080150NSRDB+000399999V020999999999999999999999999999+99999+99999999999ADDGP10060063202008062302015017202008GQ100600425927709GR100600974913229
0334722025128492000062202533+26067-080150FM-15+0003FLL  V0201405N00155220005MN0160005N1+02725+02225101855ADDGD11995+0762059GF102991999999999999999999MA1101865999999MD1110131+9999MW1001REMMET076KFLL 220253Z 14003KT 10SM FEW250 27/22 A3008 RMK AO2 SLP185 T02720222 51013;EQDQ01+000000PRSWM2N01 00000JPWTH 0QNNAA1D0 02250BA1 0 01250GA1U0 99999KA1D0 00072JA1 0 00222LA1 0 01000CA1 0 03008NA1 0 00000QA1 0 10185SA1D0 00081RA1 0 00272YA1 0 14003
0314722025128492000062206533+26067-080150FM-15+0003FLL  V0209999C00005220005MN0160005N1+02675+02225101705ADDGD11995+0085359GF102991999999999999999999MA1101735999999MW1001REMMET070KFLL 220653Z 00000KT 10SM FEW028 27/22 A3004 RMK AO2 SLP170 T02670222;EQDQ01+000000PRSWM2N01 00000JPWTH 0QNNAA1D0 02028BA1 0 01028GA1U0 99999KA1D0 00072JA1 0 00222LA1 0 01000CA1 0 03004NA1 0 00000QA1 0 10170SA1D0 00080RA1 0 00267YA1 0 00000
0449722025128492000062722533+26067-080150FM-15+0003FLL  V0201405N00365076205MN0160005N1+02835+02335101795ADDGA1999+007501091GD11995+0076259GD22995+0457259GD34995+0762059GF108991999999999999999999MA1101795999999MW1001REMMET115KFLL 272253Z 14007KT 10SM FEW025CB SCT150 OVC250 28/23 A3006 RMK AO2 SLP179 CB DSNT S MOV NW TCU VC E-SE T02830233;EQDQ01+000000PRSWM2N01 00000JPWTH 0QNNAA1D0 02025BA1 0 01025AA1D0 02150BA1 0 02150AA1D0 06250BA1 0 06250GA1 0 00250KA1D0 00074JA1 0 00233LA1 0 01000CA1 0 03006NA1 0 00000QA1 0 10179SA1D0 00083RA1 0 00283YA1 0 14007
0071722025128492000063019009+26067-080150NSRDB+000399999V020999999999999999999999999999+99999+99999999999ADDGP10060074402008037702015038002008GQ100600152926159GR100601272913219
0499722025128492000070117533+26067-080150FM-15+0003FLL  V0203205N00365045725MN0160005N1+03285+02175101495ADDGA1999+012001021GD12995+0121959GD23995+0457259GD33995+0762059GF107991999999999999999999KA1999M+03331KA2999N+02611MA1101495999999MD1810141+9999MW1001REMMET125KFLL 011753Z 32007KT 280V350 10SM SCT040TCU BKN150 BKN250 33/22 A2997 RMK AO2 SLP149 TCU DSNT NW T03280217 10333 20261 58014;EQDQ01+000000PRSWM2N01 00000JPWTH 0QNNAA1D0 02040BA1 0 02040AA1D0 04150BA1 0 04150AA1D0 04250BA1 0 04250GA1 0 00150KA1D0 00071JA1 0 00217LA1 0 01000CA1 0 02997NA1 0 00000QA1 0 10149SA1D0 00091RA1 0 00328YA1 0 32007
0452722025128492000070417533+26067-080150FM-15+0003FLL  V0201105N00525076205MN0160005N1+03065+02445101735ADDGA1999+007501021GD12995+0076259GD23995+0762059GF107991999999999999999999KA1999M+03061KA2999N+02781MA1101735999999MD1810071+9999MW1001REMMET115KFLL 041753Z 11010KT 080V150 10SM SCT025TCU BKN250 31/24 A3004 RMK AO2 SLP173 TCU VC W T03060244 10306 20278 58007;EQDQ01+000000PRSWM2N01 00000JPWTH 0QNNAA1D0 02025BA1 0 02025AA1D0 04250BA1 0 04250GA1 0 00250KA1D0 00076JA1 0 00244LA1 0 01000CA1 0 03004NA1 0 00000QA1 0 10173SA1D0 00087RA1 0 00306YA1 0 11010
0402722025128492000070419533+26067-080150FM-15+0003FLL  V0201405N00465076205MN0160005N1+02945+02395101695ADDGD11995+0073259GD22995+0426759GD33995+0762059GF107991999999999999999999MA1101695999999MW1001REMMET084KFLL 041953Z 14009KT 10SM FEW024 SCT140 BKN250 29/24 A3003 RMK AO2 SLP169 T02940239;EQDQ01+000000PRSWM2N01 00000JPWTH 0QNNAA1D0 02024BA1 0 01024AA1D0 02140BA1 0 02140AA1D0 04250BA1 0 04250GA1 0 00250KA1D0 00075JA1 0 00239LA1 0 01000CA1 0 03003NA1 0 00000QA1 0 10169SA1D0 00085RA1 0 00294YA1 0 14009
0054722025128492000070909009+26067-080150NSRDB+000399999V020999999999999999999999999999+99999+99999999999ADDGP10060000002000000002000000002000GR100600000900009
0503722025128492000071023533+26067-080150FM-15+0003FLL  V0201205N00265027435MN0160005N1+02835+02395101615ADDGD11995+0088459GD22995+0152459GD33995+0274359GD44991+0600019GF108991999999999999999999KA1999M+03001KA2999N+02831MA1101635999999MD1010001+9999MW1001REMMET130KFLL 102353Z 12005KT 10SM FEW029 SCT050 BKN090 OVC200 28/24 A3001 RMK AO2 TSE25 SLP161 SHRA DSNT SW-W T02830239 10300 20283 50000;EQDQ01+000000PRSWM2N01 00000JPWTH 0QNNAA1D0 02029BA1 0 01029AA1D0 02050BA1 0 02050AA1D0 04090BA1 0 04090GA1 0 00090KA1D0 00075JA1 0 00239LA1 0 01000CA1 0 03001NA1 0 00000QA1 0 10161SA1D0 00083RA1 0 00283YA1 0 12005
0424722025128492000071313533+26067-080150FM-15+0003FLL  V0202205N00215010675MN0160005N1+02945+02395101725ADDGD12995+0079259GD23995+0106759GD33995+0457259GD43991+0750019GF107991999999999999999999MA1101735999999MW1001REMMET091KFLL 131353Z 22004KT 10SM SCT026 BKN035 BKN150 BKN250 29/24 A3004 RMK AO2 SLP172 T02940239;EQDQ01+000000PRSWM2N01 00000JPWTH 0QNNAA1D0 02026BA1 0 02026AA1D0 04035BA1 0 04035AA1D0 04150BA1 0 04150GA1 0 00035KA1D0 00075JA1 0 00239LA1 0 01000CA1 0 03004NA1 0 00000QA1 0 10172SA1D0 00085RA1 0 00294YA1 0 22004
0440722025128492000071315533+26067-080150FM-15+0003FLL  V0209999V00315014335MN0160005N1+03175+02335101695ADDGA1999+010201021GD12995+0103659GD23995+0143359GD33995+0762059GF107991999999999999999999MA1101695999999MW1001REMMET106KFLL 131553Z VRB06KT 10SM SCT034TCU BKN047 BKN250 32/23 A3003 RMK AO2 SLP169 TCU AT AP VC NE NW T03170233;EQDQ01+000000PRSWM2N01 00000JPWTH 0QNNAA1D0 02034BA1 0 02034AA1D0 04047BA1 0 04047AA1D0 04250BA1 0 04250GA1 0 00047KA1D0 00074JA1 0 00233LA1 0 01000CA1 0 03003NA1 0 00000QA1 0 10169SA1D0 00089RA1 0 00317YA1 0 00006
0466722025128492000071319533+26067-080150FM-15+0003FLL  V0201505N00575076205MN0160005N1+03065+02445101505ADDGA1999+014101021GD11995+0143359GD22995+0198159GD33995+0762059GF107991999999999999999999MA1101525999999MW1001REMMET132KFLL 131953Z 15011KT 10SM FEW047TCU SCT065 BKN250 31/24 A2998 RMK AO2 SLP150 TCU VC W-N DSNT S MOV NE PRESENT WX VCSH W-N T03060244;EQDQ01+000000PRSWM2N01 00000JPWTH 0QNNAA1D0 02047BA1 0 01047AA1D0 02065BA1 0 02065AA1D0 04250BA1 0 04250GA1 0 00250KA1D0 00076JA1 0 00244LA1 0 01000CA1 0 02998NA1 0 00000QA1 0 10150SA1D0 00087RA1 0 00306YA1 0 15011
0358722025128492000071601533+26067-080150FM-15+0003FLL  V0202105N00265220005MN0160005N1+02615+02335101245ADDGD11995+0396259GD22995+0762059GF104991999999999999999999MA1101255999999MW1001REMMET077KFLL 160153Z 21005KT 10SM FEW130 SCT250 26/23 A2990 RMK AO2 SLP124 T02610233;EQDQ01+000000PRSWM2N01 00000JPWTH 0QNNAA1D0 02130BA1 0 01130AA1D0 02250BA1 0 02250GA1U0 99999KA1D0 00074JA1 0 00233LA1 0 01000CA1 0 02990NA1 0 00000QA1 0 10124SA1D0 00079RA1 0 00261YA1 0 21005
0358722025128492000071812533+26067-080150FM-15+0003FLL  V0202305N00215220005MN0160005N1+02785+02445101765ADDGD11995+0070159GD22995+0762059GF104991999999999999999999MA1101765999999MW1001REMMET077KFLL 181253Z 23004KT 10SM FEW023 SCT250 28/24 A3005 RMK AO2 SLP176 T02780244;EQDQ01+000000PRSWM2N01 00000JPWTH 0QNNAA1D0 02023BA1 0 01023AA1D0 02250BA1 0 02250GA1U0 99999KA1D0 00076JA1 0 00244LA1 0 01000CA1 0 03005NA1 0 00000QA1 0 10176SA1D0 00082RA1 0 00278YA1 0 23004
0071722025128492000072419009+26067-080150NSRDB+000399999V020999999999999999999999999999+99999+99999999999ADDGP10060069102008031102015039102008GQ100600159924809GR100601271913249
0531722025128492000072516533+26067-080150FM-15+0003FLL  V0209999C00005019815MN0160005N1+02725+02065101615ADDGA1999+007501091GD12995+0076259GD23995+0198159GD33995+0762059GF107991999999999999999999MA1101635999999MW1171MW2955REMMET175KFLL 251653Z 00000KT 10SM TS SCT025CB BKN065 BKN250 27/21 A3001 RMK AO2 SLP161 FRQ LTGICCA VC N-NE NW-N FRQ LTGCACG DSNT SW-W TS VC N-NE NW-N MOV NW PRESENT WX VCSH T02720206;EQDQ01+000003PRSWM1Q02    003PRSWM1N01 00010JPWTH 0QNNAA1D0 02025BA1 0 02025AA1D0 04065BA1 0 04065AA1D0 04250BA1 0 04250GA1 0 00065KA1D0 00069JA1 0 00206LA1 0 01000CA1 0 03001NA1 0 00010QA1 0 10161SA1D0 00081RA1 0 00272YA1 0 00000
0071722025128492000072621009+26067-080150NSRDB+000399999V020999999999999999999999999999+99999+99999999999ADDGP10060058702008043902015026302008GQ100600425927049GR100600974913249
0297722025128492000072621344+26060-080140FM-16+0007KFLL V0201501N005110750019N0160931N1+03001+02301999999ADDGA1999+008101091GD12991+0081019GD22991+0210019GD34991+0750019GF108991999999999999999999MA1101561999999MW1171REMMET142KFLL 262134Z COR 15010KT 10SM TS FEW027CB SCT070 OVC250 30/23 A2999 RMK AO2 TSB34 PRESRR FRQ LTGICCG VC W CB VC SW-W-NW MOV N PRESENT WX VCSH;EQDQ01+000003PRSWM1Q02    003PRSWM1
0358722025128492000072703533+26067-080150FM-15+0003FLL  V0209999C00005220005MN0160005N1+02505+02225101735ADDGD11995+0243859GD22995+0762059GF104991999999999999999999MA1101735999999MW1001REMMET077KFLL 270353Z 00000KT 10SM FEW080 SCT250 25/22 A3004 RMK AO2 SLP173 T02500222;EQDQ01+000000PRSWM2N01 00000JPWTH 0QNNAA1D0 02080BA1 0 01080AA1D0 02250BA1 0 02250GA1U0 99999KA1D0 00072JA1 0 00222LA1 0 01000CA1 0 03004NA1 0 00000QA1 0 10173SA1D0 00077RA1 0 00250YA1 0 00000
0282722025128492000072721434+26060-080140FM-16+0007KFLL V0201401N004110042019N0048281N1+02601+02201999999ADDGA1999+006901091GD13991+0042019GD23991+0069019GD34991+0102019GF108991999999999999999999MA1101661999999MW1801MW2951REMMET121KFLL 272143Z 14008KT 3SM -TSRA BKN014 BKN023CB OVC034 26/22 A3002 RMK AO2 TSB34RAB03 TS VC S MOV SW CB VC S MOV SW P0032;EQDQ01+000003PRSWM1Q02    003PRSWM1
0349722025128492000072721534+26060-080140FM-15+0007KFLL V0201701N002610069019N0160931N1+02601+02201101611ADDAA101008191GA1999+006901091GD12991+0048019GD23991+0069019GD33991+0240019GD44991+0600019GF108991999999999999999999MA1101631999999MW1801MW2951REMMET162KFLL 272153Z 17005KT 10SM -TSRA SCT016 BKN023CB BKN080 OVC200 26/22 A3001 RMK AO2 TSB34RAB03 SLP161 VIS S 2 1/2 TS VC SW MOV SW CB VC S-SW MOV SW P0032 T02610222;EQDQ01+000003PRSWM1Q02    003PRSWM1
0071722025128492000072922009+26067-080150NSRDB+000399999V020999999999999999999999999999+99999+99999999999ADDGP10060015102008000002015015102008GQ100600562927569GR100600736913259
0358722025128492000073018533+26067-080150FM-15+0003FLL  V0201405N00725076205MN0160005N1+02945+02445101655ADDGD12995+0094559GD23995+0762059GF107991999999999999999999MA1101665999999MW1001REMMET077KFLL 301853Z 14014KT 10SM SCT031 BKN250 29/24 A3002 RMK AO2 SLP165 T02940244;EQDQ01+000000PRSWM2N01 00000JPWTH 0QNNAA1D0 02031BA1 0 02031AA1D0 04250BA1 0 04250GA1 0 00250KA1D0 00076JA1 0 00244LA1 0 01000CA1 0 03002NA1 0 00000QA1 0 10165SA1D0 00085RA1 0 00294YA1 0 14014
0071722025128492000080512009+26067-080150NSRDB+000399999V020999999999999999999999999999+99999+99999999999ADDGP10060006802008000802015006702008GQ100600818907519GR100600189913289
0054722025128492000080703009+26067-080150NSRDB+000399999V020999999999999999999999999999+99999+99999999999ADDGP10060000002000000002000000002000GR100600000900009
0071722025128492000080718009+26067-080150NSRDB+000399999V020999999999999999999999999999+99999+99999999999ADDGP10060082302008052802015030302008GQ100600107918459GR100601306913299
0071722025128492000081500009+26067-080150NSRDB+000399999V020999999999999999999999999999+99999+99999999999ADDGP10060000502008000002015000502008GQ100600843928299GR100600123912329
0372722025128492000082105533+26067-080150FM-15+0003FLL  V0209999C00005220005MN0160005N1+02785+02285101685ADDGD12995+0085359GF104991999999999999999999KA1999M+02891KA2999N+02721MA1101695999999MD1810051+9999MW1001REMMET088KFLL 210553Z 00000KT 10SM SCT028 28/23 A3003 RMK AO2 SLP168 T02780228 10289 20272 58005;EQDQ01+000000PRSWM2N01 00000JPWTH 0QNNAA1D0 02028BA1 0 02028GA1U0 99999KA1D0 00073JA1 0 00228LA1 0 01000CA1 0 03003NA1 0 00000QA1 0 10168SA1D0 00082RA1 0 00278YA1 0 00000
0495722025128492000082603533+26067-080150FM-15+0003FLL  V0201505N00315010675MN0160005N1+02615+02285101585ADDGA1999+007201091GD12995+0073259GD22995+0088459GD33995+0106759GF107991999999999999999999MA1101595999999MW1171MW2955REMMET139KFLL 260353Z COR 15006KT 10SM TS SCT024CB SCT029 BKN035 26/23 A3000 RMK AO2 WSHFT 0250 SLP158 FRQ LTGICCG VC SE-S TS VC SE MOV W T02610228;EQDQ01+000003PRSWM1Q02    003PRSWM1N01 00010JPWTH 0QNNAA1D0 02024BA1 0 02024AA1D0 02029BA1 0 02029AA1D0 04035BA1 0 04035GA1 0 00035KA1D0 00073JA1 0 00228LA1 0 01000CA1 0 03000NA1 0 00010QA1 0 10158SA1D0 00079RA1 0 00261YA1 0 15006
0446722025128492000082622533+26067-080150FM-15+0003FLL  V0200705N00415076205MN0160005N1+02785+02285101475ADDGA1999+009001091GD11995+0091459GD22995+0274359GD34995+0762059GF108991999999999999999999MA1101495999999MW1001REMMET112KFLL 262253Z 07008KT 10SM FEW030CB SCT090 OVC250 28/23 A2997 RMK AO2 SLP147 CB DSNT E-S SW W-NW MOV W T02780228;EQDQ01+000000PRSWM2N01 00000JPWTH 0QNNAA1D0 02030BA1 0 01030AA1D0 02090BA1 0 02090AA1D0 06250BA1 0 06250GA1 0 00250KA1D0 00073JA1 0 00228LA1 0 01000CA1 0 02997NA1 0 00000QA1 0 10147SA1D0 00082RA1 0 00278YA1 0 07008
0402722025128492000082715533+26067-080150FM-15+0003FLL  V0201205N00465060965MN0160005N1+02895+02335101545ADDGD11995+0079259GD22995+0335359GD33995+0609659GF107991999999999999999999MA1101565999999MW1001REMMET084KFLL 271553Z 12009KT 10SM FEW026 SCT110 BKN200 29/23 A2999 RMK AO2 SLP154 T02890233;EQDQ01+000000PRSWM2N01 00000JPWTH 0QNNAA1D0 02026BA1 0 01026AA1D0 02110BA1 0 02110AA1D0 04200BA1 0 04200GA1 0 00200KA1D0 00074JA1 0 00233LA1 0 01000CA1 0 02999NA1 0 00000QA1 0 10154SA1D0 00084RA1 0 00289YA1 0 12009
0054722025128492000082904009+26067-080150NSRDB+000399999V020999999999999999999999999999+99999+99999999999ADDGP10060000002000000002000000002000GR100600000900009
0357722025128492000083115444+26060-080140FM-16+0007KFLL V0202401N003610051019N0064371N1+02701+02301999999ADDGD13991+0051019GD23991+0081019GD34991+0111019GF108991999999999999999999MA1101591999999MW1801MW2951OC101131REMMET204KFLL 311544Z 24007G22KT 4SM -TSRA BKN017 BKN027 OVC037 27/23 A3000 RMK AO2 PK WND 22032/1531 WSHFT 1503 TSB21RAB13 VIS N-E 2 1/2 FRQ LTGICCG VC N-E OCNL LTGCG VC SW TS VC N-E MOV NE CB VC SW MOV NE P0053;EQDQ01+000003PRSWM1Q02    003PRSWM1
0071722025128492000083123009+26067-080150NSRDB+000399999V020999999999999999999999999999+99999+99999999999ADDGP10060015802008029702015008102008GQ100600750927209GR100600347913429
0054722025128492000090110009+26067-080150NSRDB+000399999V020999999999999999999999999999+99999+99999999999ADDGP10060000002000000002000000002000GR100600000900009
0378722025128492000090202533+26067-080150FM-15+0003FLL  V0209999C00005220005MN0160005N1+02835+02445101705ADDGD11995+0085359GD22995+0853459GF104991999999999999999999MA1101735999999MD1310151+9999MW1001REMMET083KFLL 020253Z 00000KT 10SM FEW028 SCT280 28/24 A3004 RMK AO2 SLP170 T02830244 53015;EQDQ01+000000PRSWM2N01 00000JPWTH 0QNNAA1D0 02028BA1 0 01028AA1D0 02280BA1 0 02280GA1U0 99999KA1D0 00076JA1 0 00244LA1 0 01000CA1 0 03004NA1 0 00000QA1 0 10170SA1D0 00083RA1 0 00283YA1 0 00000
0394722025128492000090304533+26067-080150FM-15+0003FLL  V0209999C00005076205MN0160005N1+02785+02445101375ADDGD11995+0085359GD23995+0762059GF107991999999999999999999KA1999M+03171KA2999N+02561MA1101395999999MW1001REMMET087KFLL 030453Z 00000KT 10SM FEW028 BKN250 28/24 A2994 RMK AO2 SLP137 T02780244 403170256;EQDQ01+000000PRSWM2N01 00000JPWTH 0QNNAA1D0 02028BA1 0 01028AA1D0 04250BA1 0 04250GA1 0 00250KA1D0 00076JA1 0 00244LA1 0 01000CA1 0 02994NA1 0 00000QA1 0 10137SA1D0 00082RA1 0 00278YA1 0 00000
0054722025128492000090602009+26067-080150NSRDB+000399999V020999999999999999999999999999+99999+99999999999ADDGP10060000002000000002000000002000GR100600000900009
0464722025128492000090612533+26067-080150FM-15+0003FLL  V0201805N00465076205MN0160005N1+02895+02395101345ADDGA1999+007501091GD11995+0076259GD22995+0304859GD32995+0457259GD43991+0750019GF107991999999999999999999MA1101355999999MW1001REMMET115KFLL 061253Z 18009KT 10SM FEW025CB SCT100 SCT150 BKN250 29/24 A2993 RMK AO2 SLP134 CB DSNT SE S SW MOV N T02890239;EQDQ01+000000PRSWM2N01 00000JPWTH 0QNNAA1D0 02025BA1 0 01025AA1D0 02100BA1 0 02100AA1D0 02150BA1 0 02150GA1 0 00250KA1D0 00075JA1 0 00239LA1 0 01000CA1 0 02993NA1 0 00000QA1 0 10134SA1D0 00084RA1 0 00289YA1 0 18009
0459722025128492000090719533+26067-080150FM-15+0003FLL  V0201305N00315060965MN0160005N1+03005+02445101365ADDGA1999+007501091GD12995+0076259GD22995+0274359GD33995+0609659GD43991+0900019GF107991999999999999999999MA1101395999999MW1001REMMET110KFLL 071953Z 13006KT 10SM SCT025CB SCT090 BKN200 BKN300 30/24 A2994 RMK AO2 SLP136 CB DSNT W TCU SW T03000244;EQDQ01+000000PRSWM2N01 00000JPWTH 0QNNAA1D0 02025BA1 0 02025AA1D0 02090BA1 0 02090AA1D0 04200BA1 0 04200GA1 0 00200KA1D0 00076JA1 0 00244LA1 0 01000CA1 0 02994NA1 0 00000QA1 0 10136SA1D0 00086RA1 0 00300YA1 0 13006
0442722025128492000090816533+26067-080150FM-15+0003FLL  V0200905N00315007325MN0160005N1+03005+02445101405ADDGA1999+007201091GD13995+0073259GD23995+0243859GD33995+0762059GF107991999999999999999999MA1101425999999MW1001REMMET108KFLL 081653Z 09006KT 10SM BKN024CB BKN080 BKN250 30/24 A2995 RMK AO2 SLP140 CB DSNT S TCU DSNT NW T03000244;EQDQ01+000000PRSWM2N01 00000JPWTH 0QNNAA1D0 04024BA1 0 04024AA1D0 04080BA1 0 04080AA1D0 04250BA1 0 04250GA1 0 00024KA1D0 00076JA1 0 00244LA1 0 01000CA1 0 02995NA1 0 00000QA1 0 10140SA1D0 00086RA1 0 00300YA1 0 09006
0054722025128492000091101009+26067-080150NSRDB+000399999V020999999999999999999999999999+99999+99999999999ADDGP10060000002000000002000000002000GR100600000900009
0071722025128492000091213009+26067-080150NSRDB+000399999V020999999999999999999999999999+99999+99999999999ADDGP10060022302008037302015010702008GQ100600718909469GR100600421913509
0358722025128492000091607533+26067-080150FM-15+0003FLL  V0209999C00005030485MN0160005N1+02505+02335101085ADDGD13995+0304859GD23995+0609659GF107991999999999999999999MA1101085999999MW1001REMMET077KFLL 160753Z 00000KT 10SM BKN100 BKN200 25/23 A2985 RMK AO2 SLP108 T02500233;EQDQ01+000000PRSWM2N01 00000JPWTH 0QNNAA1D0 04100BA1 0 04100AA1D0 04200BA1 0 04200GA1 0 00100KA1D0 00074JA1 0 00233LA1 0 01000CA1 0 02985NA1 0 00000QA1 0 10108SA1D0 00077RA1 0 00250YA1 0 00000
0433722025128492000091708533+26067-080150FM-15+0003FLL  V0201205N00885060965MN0160005N1+02835+02395101125ADDGD12995+0073259GD22995+0103659GD34995+0609659GF108991999999999999999999MA1101125999999MD1510091+9999MW1001OC101031REMMET093KFLL 170853Z 12017G20KT 10SM SCT024 SCT034 OVC200 28/24 A2986 RMK AO2 SLP112 T02830239 55009;EQDQ01+000000PRSWM2N01 00000JPWTH 0QNNAA1D0 02024BA1 0 02024AA1D0 02034BA1 0 02034AA1D0 06200BA1 0 06200GA1 0 00200KA1D0 00075JA1 0 00239LA1 0 01000CA1 0 02986NA1 0 00000QA1 0 10112SA1D0 00083RA1 0 00283YA1 0 12017
0415722025128492000091719533+26067-080150FM-15+0003FLL  V0201705N00725030485MN0160005N1+03005+02505101165ADDGD12995+0106759GD23995+0304859GD33995+0762059GF107991999999999999999999MA1101155999999MW1001OC100981REMMET089KFLL 171953Z 17014G19KT 10SM SCT035 BKN100 BKN250 30/25 A2987 RMK AO2 SLP116 T03000250 $;EQDQ01+000000PRSWM2N01 00000JPWTH 0QNNAA1D0 02035BA1 0 02035AA1D0 04100BA1 0 04100AA1D0 04250BA1 0 04250GA1 0 00100KA1D0 00077JA1 0 00250LA1 0 01000CA1 0 02987NA1 0 00000QA1 0 10116SA1D0 00086RA1 0 00300YA1 0 17014
0071722025128492000091816009+26067-080150NSRDB+000399999V020999999999999999999999999999+99999+99999999999ADDGP10060070702008051402015028602008GQ100600352913049GR100601105913549
0071722025128492000091920009+26067-080150NSRDB+000399999V020999999999999999999999999999+99999+99999999999ADDGP10060064502008057102015021502008GQ100600412923799GR100601018913559
0358722025128492000092300533+26067-080150FM-15+0003FLL  V0209999C00005076205MN0160005N1+02895+02505101645ADDGD11995+0076259GD23995+0762059GF107991999999999999999999MA1101665999999MW1001REMMET077KFLL 230053Z 00000KT 10SM FEW025 BKN250 29/25 A3002 RMK AO2 SLP164 T02890250;EQDQ01+000000PRSWM2N01 00000JPWTH 0QNNAA1D0 02025BA1 0 01025AA1D0 04250BA1 0 04250GA1 0 00250KA1D0 00077JA1 0 00250LA1 0 01000CA1 0 03002NA1 0 00000QA1 0 10164SA1D0 00084RA1 0 00289YA1 0 00000
0358722025128492000092419533+26067-080150FM-15+0003FLL  V0201205N00265220005MN0160005N1+03005+02335101195ADDGD11995+0082359GD22995+0609659GF104991999999999999999999MA1101225999999MW1001REMMET077KFLL 241953Z 12005KT 10SM FEW027 SCT200 30/23 A2989 RMK AO2 SLP119 T03000233;EQDQ01+000000PRSWM2N01 00000JPWTH 0QNNAA1D0 02027BA1 0 01027AA1D0 02200BA1 0 02200GA1U0 99999KA1D0 00074JA1 0 00233LA1 0 01000CA1 0 02989NA1 0 00000QA1 0 10119SA1D0 00086RA1 0 00300YA1 0 12005
0402722025128492000092622533+26067-080150FM-15+0003FLL  V0203205N00215030485MN0160005N1+02675+02395101345ADDGD12995+0259159GD23995+0304859GD33995+0762059GF107991999999999999999999MA1101355999999MW1001REMMET084KFLL 262253Z 32004KT 10SM SCT085 BKN100 BKN250 27/24 A2993 RMK AO2 SLP134 T02670239;EQDQ01+000000PRSWM2N01 00000JPWTH 0QNNAA1D0 02085BA1 0 02085AA1D0 04100BA1 0 04100AA1D0 04250BA1 0 04250GA1 0 00100KA1D0 00075JA1 0 00239LA1 0 01000CA1 0 02993NA1 0 00000QA1 0 10134SA1D0 00080RA1 0 00267YA1 0 32004
0260722025128492000092822194+26060-080140FM-16+0007KFLL V0200501N006710081019N0160931N1+02801+02301999999ADDGA1999+008101091GD12991+0063019GD23991+0081019GD33991+0150019GD43991+0750019GF107991999999999999999999MA1101121999999MW1001REMMET106KFLL 282219Z 05013KT 10SM FEW021 BKN027CB BKN050 BKN250 28/23 A2986 RMK AO2 CB DSNT SW MOV W BKN027 V SCT;EQDQ01+000000PRSWM2
0423722025128492000100321533+26067-080150FM-15+0003FLL  V0202505N00265003665MN0024141N1+02285+02285101285ADDAA101026991GD15995+0036659GF109991999999000251999999MA1101295999999MW1101MW2455MW3821MW4971REMMET134KFLL 032153Z 25005KT 1/2SM +TSRA BR VV012 23/23 A2991 RMK AO2 SFC VIS 1 SLP128 OCNL LTGIC DSNT N-E TS DSNT N-E MOV NE P0106 T02280228;EQDQ01+000003PRSWM1N01 00050DHZVS 3N02 00070JPWTH 0QNNAA1D0 07012BA1 0 07012GA1 0 00012KA1D0 00073JA1 0 00228LA1 3 00050CA1 0 02991NA1 0 00070QA1 0 10128SA1D0 00073RA1 0 00228YA1 0 25005
0516722025128492000100403533+26067-080150FM-15+0003FLL  V0202005N00215019815MN0160005N1+02395+02335101515ADDAA101003391GA1999+007501091GD11995+0076259GD22995+0137259GD33995+0198159GD44991+0390019GF108991999999999999999999MA1101525999999MW1615REMMET140KFLL 040353Z 20004KT 10SM -RA FEW025CB SCT045 BKN065 OVC130 24/23 A2998 RMK AO2 SLP151 CONS LTG DSNT E-S CB DSNT E-S MOV NE P0013 T02390233;EQDQ01+000003PRSWM1Q02    003PRSWM1N01 00020JPWTH 0QNNAA1D0 02025BA1 0 01025AA1D0 02045BA1 0 02045AA1D0 04065BA1 0 04065GA1 0 00065KA1D0 00074JA1 0 00233LA1 0 01000CA1 0 02998NA1 0 00020QA1 0 10151SA1D0 00075RA1 0 00239YA1 0 20004
0054722025128492000100507009+26067-080150NSRDB+000399999V020999999999999999999999999999+99999+99999999999ADDGP10060000002000000002000000002000GR100600000900009
0369722025128492000101015533+26067-080150FM-15+0003FLL  V0200405N01035091445MN0160005N1+02615+01505101925ADDGD12995+0128059GD23995+0914459GF107991999999999999999999MA1101935999999MW1001OC101181REMMET080KFLL 101553Z 04020G23KT 10SM SCT042 BKN300 26/15 A3010 RMK AO2 SLP192 T02610150;EQDQ01+000000PRSWM2N01 00000JPWTH 0QNNAA1D0 02042BA1 0 02042AA1D0 04300BA1 0 04300GA1 0 00300KA1D0 00059JA1 0 00150LA1 0 01000CA1 0 03010NA1 0 00000QA1 0 10192SA1D0 00079RA1 0 00261YA1 0 04020
0369722025128492000101100533+26067-080150FM-15+0003FLL  V0200705N00725018295MN0160005N1+02395+01505101925ADDGD12995+0146359GD23995+0182959GF107991999999999999999999MA1101935999999MW1001OC100981REMMET080KFLL 110053Z 07014G19KT 10SM SCT048 BKN060 24/15 A3010 RMK AO2 SLP192 T02390150;EQDQ01+000000PRSWM2N01 00000JPWTH 0QNNAA1D0 02048BA1 0 02048AA1D0 04060BA1 0 04060GA1 0 00060KA1D0 00059JA1 0 00150LA1 0 01000CA1 0 03010NA1 0 00000QA1 0 10192SA1D0 00075RA1 0 00239YA1 0 07014
0071722025128492000101212009+26067-080150NSRDB+000399999V020999999999999999999999999999+99999+99999999999ADDGP10060000302008000002015000302008GQ100600858910059GR100600067909279
0334722025128492000102208533+26067-080150FM-15+0003FLL  V0200605N00625220005MN0160005N1+02505+01835101805ADDGD12995+0118959GF104991999999999999999999MA1101795999999MD1510041+9999MW1001REMMET076KFLL 220853Z 06012KT 10SM SCT039 25/18 A3006 RMK AO2 SLP180 T02500183 55004;EQDQ01+000000PRSWM2N01 00000JPWTH 0QNNAA1D0 02039BA1 0 02039GA1U0 99999KA1D0 00065JA1 0 00183LA1 0 01000CA1 0 03006NA1 0 00000QA1 0 10180SA1D0 00077RA1 0 00250YA1 0 06012
0071722025128492000102422009+26067-080150NSRDB+000399999V020999999999999999999999999999+99999+99999999999ADDGP10060018002008038202015008002008GQ100600749924809GR100600361913839
0334722025128492000102620533+26067-080150FM-15+0003FLL  V0200405N00725220005MN0160005N1+02615+01785101315ADDGD11995+0109759GF102991999999999999999999MA1101325999999MD1610081+9999MW1001REMMET076KFLL 262053Z 04014KT 10SM FEW036 26/18 A2992 RMK AO2 SLP131 T02610178 56008;EQDQ01+000000PRSWM2N01 00000JPWTH 0QNNAA1D0 02036BA1 0 01036GA1U0 99999KA1D0 00064JA1 0 00178LA1 0 01000CA1 0 02992NA1 0 00000QA1 0 10131SA1D0 00079RA1 0 00261YA1 0 04014
0753722025128492000102704596+26072-080154SOD  +0003KFLL V020999999999999999999999999999+99999+99999999999ADDAA124000025AT1MW16RA  5GJ100005GK10005KA1240M+02895KA2240N+02065MG1101299999994OE11240098304015455OE22240080505015355OE33240047499999995REMSOD60524 HR PRECIPITATION (IN):  T   TOTAL SUNSHINE (MINUTES):   0 PERCENT POSSIBLE SUNSHINE:  0 24 HR MAX TEMP (F): 8424 HR MAX TEMP TIME (LST):1239 24 HR MIN TEMP (F): 6924 HR MIN TEMP TIME (LST):0606 AVERAGE STATION PRESSURE:29.91  PEAK WIND SPEED (MPH): 22 PEAK WIND DIR (DEG): 40 PEAK WIND TIME (LST):1545  FASTEST 2MIN SPEED (MPH): 18FASTEST 2MIN DIR (DEG): 50 FASTEST 2MIN TIME (LST):1535 AVERAGE WIND SPEED (MPH):10.6 24 HR AVG TEMP (F):77 HOURLY INCREMENTAL PRECIPITATION VALUES (IN):.00  .00   T   .00  .00  .00  .00  .00   T    T   .00  .00  .00  .00  .00  .00  .00  .00  .00  .00  .00  .00  .00  .00
0372722025128492000102905533+26067-080150FM-15+0003FLL  V0203605N00265220005MN0160005N1+02115+01835101905ADDGD12995+0112859GF104991999999999999999999KA1999M+02441KA2999N+02061MA1101935999999MD1810061+9999MW1001REMMET088KFLL 290553Z 36005KT 10SM SCT037 21/18 A3010 RMK AO2 SLP190 T02110183 10244 20206 58006;EQDQ01+000000PRSWM2N01 00000JPWTH 0QNNAA1D0 02037BA1 0 02037GA1U0 99999KA1D0 00065JA1 0 00183LA1 0 01000CA1 0 03010NA1 0 00000QA1 0 10190SA1D0 00070RA1 0 00211YA1 0 36005
0071722025128492000110117009+26067-080150NSRDB+000399999V020999999999999999999999999999+99999+99999999999ADDGP10060072002008081802015010802008GQ100600418916769GR100601036913899
0313722025128492000110607533+26067-080150FM-15+0003FLL  V0209999C00005220005MN0128005N1+01945+01895101225ADDGD11995+0914459GF102991999999999999999999MA1101225999999MW1001REMMET069KFLL 060753Z 00000KT 8SM FEW300 19/19 A2989 RMK AO2 SLP122 T01940189;EQDQ01+000000PRSWM2N01 00000JPWTH 0QNNAA1D0 02300BA1 0 01300GA1U0 99999KA1D0 00066JA1 0 00189LA1 0 00800CA1 0 02989NA1 0 00000QA1 0 10122SA1D0 00067RA1 0 00194YA1 0 00000
0314722025128492000111209533+26067-080150FM-15+0003FLL  V0203305N00215220005MN0160005N1+01835+01675101335ADDGD11995+0259159GF102991999999999999999999MA1101355999999MW1001REMMET070KFLL 120953Z 33004KT 10SM FEW085 18/17 A2993 RMK AO2 SLP133 T01830167;EQDQ01+000000PRSWM2N01 00000JPWTH 0QNNAA1D0 02085BA1 0 01085GA1U0 99999KA1D0 00062JA1 0 00167LA1 0 01000CA1 0 02993NA1 0 00000QA1 0 10133SA1D0 00065RA1 0 00183YA1 0 33004
0394722025128492000111504533+26067-080150FM-15+0003FLL  V0202505N00315014945MN0160005N1+02395+02065101505ADDGD13995+0149459GD24995+0213459GF108991999999999999999999KA1999M+02831KA2999N+01781MA1101525999999MW1001REMMET087KFLL 150453Z 25006KT 10SM BKN049 OVC070 24/21 A2998 RMK AO2 SLP150 T02390206 402830178;EQDQ01+000000PRSWM2N01 00000JPWTH 0QNNAA1D0 04049BA1 0 04049AA1D0 06070BA1 0 06070GA1 0 00049KA1D0 00069JA1 0 00206LA1 0 01000CA1 0 02998NA1 0 00000QA1 0 10150SA1D0 00075RA1 0 00239YA1 0 25006
0358722025128492000111509533+26067-080150FM-15+0003FLL  V0203305N00725006715MN0160005N1+02065+01835101505ADDGD11995+0048859GD24995+0067159GF108991999999999999999999MA1101495999999MW1001REMMET077KFLL 150953Z 33014KT 10SM FEW016 OVC022 21/18 A2997 RMK AO2 SLP150 T02060183;EQDQ01+000000PRSWM2N01 00000JPWTH 0QNNAA1D0 02016BA1 0 01016AA1D0 06022BA1 0 06022GA1 0 00022KA1D0 00065JA1 0 00183LA1 0 01000CA1 0 02997NA1 0 00000QA1 0 10150SA1D0 00069RA1 0 00206YA1 0 33014
0071722025128492000111821009+26067-080150NSRDB+000399999V020999999999999999999999999999+99999+99999999999ADDGP10060031302008053802015010502008GQ100600673923259GR100600540914009
0416722025128492000111823533+26067-080150FM-15+0003FLL  V0201305N00265220005MN0160005N1+02445+02115101675ADDGD11995+0143359GD22995+0762059GF104991999999999999999999KA1999M+02891KA2999N+02441MA1101695999999MD1310091+9999MW1001REMMET095KFLL 182353Z 13005KT 10SM FEW047 SCT250 24/21 A3003 RMK AO2 SLP167 T02440211 10289 20244 53009;EQDQ01+000000PRSWM2N01 00000JPWTH 0QNNAA1D0 02047BA1 0 01047AA1D0 02250BA1 0 02250GA1U0 99999KA1D0 00070JA1 0 00211LA1 0 01000CA1 0 03003NA1 0 00000QA1 0 10167SA1D0 00076RA1 0 00244YA1 0 13005
0054722025128492000111902009+26067-080150NSRDB+000399999V020999999999999999999999999999+99999+99999999999ADDGP10060000002000000002000000002000GR100600000900009
0071722025128492000112020009+26067-080150NSRDB+000399999V020999999999999999999999999999+99999+99999999999ADDGP10060040202008034802015021602008GQ100600577922069GR100600747914029
0332722025128492000112204533+26067-080150FM-15+0003FLL  V0203405N00525220005MN0160005N1+01225+00285102605ADDGF100991999999999999999999KA1999M+02111KA2999N+01221MA1102615999999MW1001REMMET077KFLL 220453Z 34010KT 10SM CLR 12/03 A3030 RMK AO2 SLP260 T01220028 402110122;EQDQ01+000000PRSWM2N01 00000JPWTH 0QNNAA1D0 00000BA1 0 00000GA1U0 99999KA1D0 00037JA1 0 00028LA1 0 01000CA1 0 03030NA1 0 00000QA1 0 10260SA1D0 00054RA1 0 00122YA1 0 34010
0071722025128492000112512009+26067-080150NSRDB+000399999V020999999999999999999999999999+99999+99999999999ADDGP10060000002008000002015000002008GQ100600890911379GR100600005902939
0492722025128492000112517533+26067-080150FM-15+0003FLL  V0201705N00465004885MN0160005N1+02615+02445101455ADDAA106004691GD13995+0048859GD23995+0064059GD34995+0609659GF108991999999999999999999KA1999M+02671KA2999N+02441MA1101465999999MD1810211+9999MW1001REMMET123KFLL 251753Z 17009KT 10SM BKN016 BKN021 OVC200 26/24 A2996 RMK AO2 SLP145 BKN016 V SCT 60018 T02610244 10267 20244 58021 $;EQDQ01+000000PRSWM2N01 00000JPWTH 0QNNAA1D0 04016BA1 0 04016AA1D0 04021BA1 0 04021AA1D0 06200BA1 0 06200GA1 0 00016KA1D0 00076JA1 0 00244LA1 0 01000CA1 0 02996NA1 0 00000QA1 0 10145SA1D0 00079RA1 0 00261YA1 0 17009
0180722025128492000112607174+26060-080140FM-16+0007KFLL V0202201N002112200019N0008051N1+02201+02201999999ADDGD12991+0003019GF104991999999999999999999MA1101561999999MW1441REMMET071KFLL 260717Z 22004KT 1/2SM FG SCT001 22/22 A2999 RMK AO2 R09L/2200FT $;EQDQ01+000003PRSWM1Q02    003PRSWM1
0402722025128492000113012533+26067-080150FM-15+0003FLL  V0203405N00465042675MN0160005N1+01945+01785101955ADDGD11995+0091459GD23995+0426759GD33995+0548659GF107991999999999999999999MA1101965999999MW1001REMMET084KFLL 301253Z 34009KT 10SM FEW030 BKN140 BKN180 19/18 A3011 RMK AO2 SLP195 T01940178;EQDQ01+000000PRSWM2N01 00000JPWTH 0QNNAA1D0 02030BA1 0 01030AA1D0 04140BA1 0 04140AA1D0 04180BA1 0 04180GA1 0 00140KA1D0 00064JA1 0 00178LA1 0 01000CA1 0 03011NA1 0 00000QA1 0 10195SA1D0 00067RA1 0 00194YA1 0 34009
0416722025128492000120511533+26067-080150FM-15+0003FLL  V0203405N00415220005MN0160005N1+01395+01225102005ADDGD11995+0103659GD22995+0853459GF104991999999999999999999KA1999M+01831KA2999N+01391MA1102005999999MD1310041+9999MW1001REMMET095KFLL 051153Z 34008KT 10SM FEW034 SCT280 14/12 A3012 RMK AO2 SLP200 T01390122 10183 20139 53004;EQDQ01+000000PRSWM2N01 00000JPWTH 0QNNAA1D0 02034BA1 0 01034AA1D0 02280BA1 0 02280GA1U0 99999KA1D0 00054JA1 0 00122LA1 0 01000CA1 0 03012NA1 0 00000QA1 0 10200SA1D0 00057RA1 0 00139YA1 0 34008
0414722025128492000120518533+26067-080150FM-15+0003FLL  V0203605N00525007925MN0032005N1+01835+01725101865ADDAA101000891GD13995+0079259GD24995+0097559GF108991999999999999999999MA1101865999999MW1615OC101081REMMET098KFLL 051853Z 36010G21KT 2SM -RA BKN026 OVC032 18/17 A3008 RMK AO2 RAE28B45 SLP186 P0003 T01830172;EQDQ01+000003PRSWM1Q02    003PRSWM1N01 00020JPWTH 0QNNAA1D0 04026BA1 0 04026AA1D0 06032BA1 0 06032GA1 0 00026KA1D0 00063JA1 0 00172LA1 0 00200CA1 0 03008NA1 0 00020QA1 0 10186SA1D0 00065RA1 0 00183YA1 0 36010
0406722025128492000120611533+26067-080150FM-15+0003FLL  V0203405N00315010365MN0160005N1+01615+01335101905ADDAA106000021AA224000891GD13995+0103659GF107991999999999999999999KA1999M+01671KA2999N+01611MA1101905999999MD1310041+9999MW1001REMMET100KFLL 061153Z 34006KT 10SM BKN034 16/13 A3009 RMK AO2 SLP190 60000 70003 T01610133 10167 20161 53004;EQDQ01+000000PRSWM2N01 00000JPWTH 0QNNAA1D0 04034BA1 0 04034GA1 0 00034KA1D0 00056JA1 0 00133LA1 0 01000CA1 0 03009NA1 0 00000QA1 0 10190SA1D0 00061RA1 0 00161YA1 0 34006
0432722025128492000120822533+26067-080150FM-15+0003FLL  V0200605N00315076205MN0160005N1+02395+02005101765ADDGA1999+008101021GD11995+0082359GD22995+0304859GD33995+0762059GF107991999999999999999999MA1101765999999MW1001REMMET098KFLL 082253Z 06006KT 10SM FEW027TCU SCT100 BKN250 24/20 A3005 RMK AO2 SLP176 TCU DSNT S T02390200;EQDQ01+000000PRSWM2N01 00000JPWTH 0QNNAA1D0 02027BA1 0 01027AA1D0 02100BA1 0 02100AA1D0 04250BA1 0 04250GA1 0 00250KA1D0 00068JA1 0 00200LA1 0 01000CA1 0 03005NA1 0 00000QA1 0 10176SA1D0 00075RA1 0 00239YA1 0 06006
0314722025128492000121003533+26067-080150FM-15+0003FLL  V0201005N00675033535MN0160005N1+02335+02175101815ADDGD13995+0335359GF107991999999999999999999MA1101835999999MW1001REMMET070KFLL 100353Z 10013KT 10SM BKN110 23/22 A3007 RMK AO2 SLP181 T02330217;EQDQ01+000000PRSWM2N01 00000JPWTH 0QNNAA1D0 04110BA1 0 04110GA1 0 00110KA1D0 00071JA1 0 00217LA1 0 01000CA1 0 03007NA1 0 00000QA1 0 10181SA1D0 00074RA1 0 00233YA1 0 10013
0422722025128492000121008533+26067-080150FM-15+0003FLL  V0201205N00575010975MN0160005N1+02395+02175101695ADDGD12995+0061059GD23995+0109759GD34995+0274359GF108991999999999999999999MA1101695999999MD1810091+9999MW1001REMMET090KFLL 100853Z 12011KT 10SM SCT020 BKN036 OVC090 24/22 A3003 RMK AO2 SLP169 T02390217 58009;EQDQ01+000000PRSWM2N01 00000JPWTH 0QNNAA1D0 02020BA1 0 02020AA1D0 04036BA1 0 04036AA1D0 06090BA1 0 06090GA1 0 00036KA1D0 00071JA1 0 00217LA1 0 01000CA1 0 03003NA1 0 00000QA1 0 10169SA1D0 00075RA1 0 00239YA1 0 12011
0514722025128492000121019003+26067-080150FM-15+0003FLL  V0201005N00315003965MN0016005N1+02225+02225101745ADDAA101000021GD11995+0018359GD23995+0039659GD34995+0094559GF108991999999999999999999GP10060009902008000002015009902008GQ100600525920229GR100600858914119MA1101765999999MW1101MW2455MW3615REMMET089KFLL 101900Z 09008KT 1SM -RA BR SCT013 BKN023 OVC040 22/22 A3005 RMK AO2 SFC VIS 2 P0000;EQDQ01+000003PRSWM1Q02    003PRSWM1N01 02070JPWTH 0QNNAA1D0 02006BA1 0 01006AA1D0 04013BA1 0 04013AA1D0 06031BA1 0 06031GA1 0 00013KA1D0 00072JA1 0 00222LA1 0 00100CA1 0 03005NA1 0 02070QA1 0 10174SA1D0 00072RA1 0 00222YA1 0 10006
0054722025128492000121103009+26067-080150NSRDB+000399999V020999999999999999999999999999+99999+99999999999ADDGP10060000002000000002000000002000GR100600000900009
0071722025128492000121421009+26067-080150NSRDB+000399999V020999999999999999999999999999+99999+99999999999ADDGP10060031402008063102015007902008GQ100600682922789GR100600524914129
0054722025128492000121510009+26067-080150NSRDB+000399999V020999999999999999999999999999+99999+99999999999ADDGP10060000002000000002000000002000GR100600000900009
0221722025128492000121611324+26060-080140FM-16+0007KFLL V0201301N006710093019N0160931N1+02401+02201999999ADDGD12991+0060019GD22991+0072019GD33991+0093019GF107991999999999999999999MA1102131999999MW1001REMMET098KFLL 161132Z 13013KT 10SM FEW020 SCT024 BKN031 24/22 A3016 RMK AO2 RAB23E29 PRESENT WX VCSH P0000;EQDQ01+000000PRSWM2
0054722025128492000122201009+26067-080150NSRDB+000399999V020999999999999999999999999999+99999+99999999999ADDGP10060000002000000002000000002000GR100600000900009
0071722025128492000122216009+26067-080150NSRDB+000399999V020999999999999999999999999999+99999+99999999999ADDGP10060028702008004302015026402008GQ100600562914969GR100600785914149
0071722025128492000122217009+26067-080150NSRDB+000399999V020999999999999999999999999999+99999+99999999999ADDGP10060050502008034402015028802008GQ100600511916549GR100600888914149
0071722025128492000122315009+26067-080150NSRDB+000399999V020999999999999999999999999999+99999+99999999999ADDGP10060018302008001902015017502008GQ100600644913679GR100600611914149
003972202512849200012250459O+26067-080150SOD  +000399999V020999999999999999999999999999+99999+99999999999ADDAT1MW16RA  5AT2MW01FG  5AT3MW13BR  1
0054722025128492000122908009+26067-080150NSRDB+000399999V020999999999999999999999999999+99999+99999999999ADDGP10060000002000000002000000002000GR100600000900009
0358722025128492000123013533+26067-080150FM-15+0003FLL  V0203505N00575076205MN0160005N1+01065+00615101805ADDGD11995+0457259GD23995+0762059GF107991999999999999999999MA1101795999999MW1001REMMET077KFLL 301353Z 35011KT 10SM FEW150 BKN250 11/06 A3006 RMK AO2 SLP180 T01060061;EQDQ01+000000PRSWM2N01 00000JPWTH 0QNNAA1D0 02150BA1 0 01150AA1D0 04250BA1 0 04250GA1 0 00250KA1D0 00043JA1 0 00061LA1 0 01000CA1 0 03006NA1 0 00000QA1 0 10180SA1D0 00051RA1 0 00106YA1 0 35011
0054722025128492000123110009+26067-080150NSRDB+000399999V020999999999999999999999999999+99999+99999999999ADDGP10060000002000000002000000002000GR100600000900009
0317722025128492000123121533+26067-080150FM-15+0003FLL  V0203105N00465220005MN0160005N1+01115-00115102355ADDGD11995+0914459GF102991999999999999999999MA1102375999999MW1001REMMET073KFLL 312153Z 31009KT 10SM FEW300 11/M01 A3023 RMK AO2 SLP235 T01111011 $;EQDQ01+000000PRSWM2N01 00000JPWTH 0QNNAA1D0 02300BA1 0 01300GA1U0 99999KA1D0 00030JA1 0-00011LA1 0 01000CA1 0 03023NA1 0 00000QA1 0 10235SA1D0 00052RA1 0 00111YA1 0 31009
0205722026999992000010203003+25480-080380FM-15+0002KHST V0200801N003612200019N0112651N1+02101+01801102381ADDGF100991999999999999999999GP10060000002000000002000000002000GR100600000900009MA1102371999999MD1110121+9999MW1001REMMET062KHST 020255Z COR 08007KT 7SM SKC 21/18 A3023 RMK SLP238 51012;EQDQ01+000000PRSWM2
0248722026999992000010218003+25480-080380FM-15+0002KHST V0200701N007212200019N0112651N1+02501+01901102261ADDGD12991+0075019GF102991999999999999999999GP10060069102008094202015006502008GQ100600486918149GR100600936914159MA1102271999999MD1810171+9999MW1001REMMET073KHST 021755Z 07014KT 7SM FEW025 25/19 A3020 RMK SLP226 8/100 9/200 58017;EQDQ01+000000PRSWM2
0137722026999992000010308384+25480-080380FM-16+0002KHST V0200601N002110075019N0112651N1+02101+02001999999ADDGD13991+0075019GF107991999999999999999999MA1102031999999MW1001REMMET044KHST 030838Z 06004KT 7SM BKN025 21/20 A3013;EQDQ01+000000PRSWM2
0181722026999992000010702003+25480-080380FM-15+0002KHST V0200801N003612200019N0112651N1+02201+02001102411ADDGF100991999999999999999999GP10060000002000000002000000002000GR100600000900009MA1102401999999MW1001REMMET052KHST 070157Z 08007KT 7SM SKC 22/20 A3024 RMK SLP241;EQDQ01+000000PRSWM2
0270722026999992000010721003+25480-080380FM-15+0002KHST V0201001N005712200019N0112651N1+02501+02001102241ADDGD12991+0060019GD22991+0120019GF102991999999999999999999GP10060039602008083402015004502008GQ100600652922669GR100600593914159MA1102241999999MD1610121+9999MW1001REMMET080KHST 072055Z 10011KT 7SM FEW020 FEW040 25/20 A3019 RMK SLP224 8/800 9/100 56012;EQDQ01+000000PRSWM2
0275722026999992000011611003+25480-080380FM-15+0002KHST V0200601N005710144019N0096561N1+01601+01301999999ADDGD12991+0105019GD23991+0144019GD34991+0180019GF108991999999999999999999GP10060000002000000002000000002000GR100600000900009MA1103011999999MW1801REMMET085KHST 161055Z 06011KT 6SM -SHRA SCT035 BKN048 OVC065 16/13 A3042 RMK 8/8// 9/8// WR//;EQDQ01+000003PRSWM1Q02    003PRSWM1
0231722026999992000012309003+25480-080380FM-15+0002KHST V0200601N002112200019N0112651N1+01301+01201101871ADDGD12991+0150019GF102991999999999999999999GP10060000002000000002000000002000GR100600000900009MA1101861999999MD1810101+9999MW1001REMMET073KHST 230855Z 06004KT 7SM FEW050 13/12 A3008 RMK SLP187 8/500 9/100 58010;EQDQ01+000000PRSWM2
0201722026999992000012709003+25480-080380FM-15+0002KHST V0203401N003112200019N0112651N1+00501+00201102241ADDGF100991999999999999999999GP10060000002000000002000000002000GR100600000900009MA1102241999999MD1210021+9999MW1001REMMET058KHST 270856Z 34006KT 7SM SKC 05/02 A3019 RMK SLP224 52002;EQDQ01+000000PRSWM2
0233722026999992000020104003+25480-080380FM-15+0002KHST V0200301N002612200019N0112651N1+01801+01601102091ADDGD12991+0090019GD22991+0150019GF104991999999999999999999GP10060000002000000002000000002000GR100600000900009MA1102101999999MW1001REMMET074KHST 010355Z 03005KT 7SM SCT030 SCT050 18/16 A3015 RMK SLP209 8/800 9/400;EQDQ01+000000PRSWM2
0054722026999992000021205009+25483-080383NSRDB+000599999V020999999999999999999999999999+99999+99999999999ADDGP10060000002000000002000000002000GR100600000900009
0181722026999992000021508024+25480-080380FM-16+0002KHST V0203401N003110036019N0112651N1+02101+02101999999ADDGD13991+0036019GD23991+0360019GD34991+0600019GF108991999999999999999999MA1101861999999MW1001REMMET058KHST 150802Z 34006KT 7SM BKN012 BKN120 OVC200 21/21 A3008;EQDQ01+000000PRSWM2
0250722026999992000022523003+25480-080380FM-15+0002KHST V0200801N009312200019N0112651N1+02201+01801102161ADDGD12991+0075019GD22991+0150019GF104991999999999999999999GP10060012802008049602015003802008GQ100600795925469GR100600253913969MA1102171999999MW1001REMMET074KHST 252255Z 08018KT 7SM FEW025 SCT050 22/18 A3017 RMK SLP216 8/800 9/300;EQDQ01+000000PRSWM2
0228722026999992000030213003+25480-080380FM-15+0002KHST V0203601N003612200019N0112651N1+01801+01601102111ADDGD12991+0150019GF102991999999999999999999GP10060012902008033302015007302008GQ100600804910259GR100600233913929MA1102101999999MW1001REMMET067KHST 021256Z 36007KT 7SM FEW050 18/16 A3015 RMK SLP211 8/500 9/100;EQDQ01+000000PRSWM2
0278722026999992000030615003+25480-080380FM-15+0002KHST V0200101N003612200019N0112651N1+02401+01501102091ADDGD12991+0075019GD22991+0810019GF102991999999999999999999GP10060055602008070502015014202008GQ100600540911859GR100600814913899MA1102101999999MD1110191+9999MW1001REMMET088KHST 061455Z 01007KT 340V040 7SM FEW025 FEW270 24/15 A3015 RMK SLP209 8/101 9/101 51019;EQDQ01+000000PRSWM2
0201722026999992000031109254+25480-080380FM-15+0002KHST V0201401N002610120019N0112651N1+02301+01801999999ADDGD12991+0075019GD23991+0120019GD33991+0270019GF107991999999999999999999MA1101801999999MW1611REMMET062KHST 110925Z 14005KT 7SM -RA FEW025 BKN040 BKN090 23/18 A3006;EQDQ01+000003PRSWM1Q02    003PRSWM1
0233722026999992000031308003+25480-080380FM-15+0002KHST V0200801N006712200019N0112651N1+02201+01801101891ADDGD12991+0060019GD22991+0900019GF104991999999999999999999GP10060000002000000002000000002000GR100600000900009MA1101901999999MW1001REMMET074KHST 130755Z 08013KT 7SM FEW020 SCT300 22/18 A3009 RMK SLP189 8/101 9/103;EQDQ01+000000PRSWM2
0203722026999992000032018114+25480-080380FM-16+0002KHST V0202201N002610150019N0112651N1+02701+02001999999ADDGD12991+0060019GD23991+0150019GD33991+0900019GF107991999999999999999999MA1101461999999MW1801REMMET064KHST 201811Z 22005KT 7SM -SHRA FEW020 BKN050 BKN330 27/20 A2996;EQDQ01+000003PRSWM1Q02    003PRSWM1
0248722026999992000032515003+25480-080380FM-15+0002KHST V0200801N008712200019N0112651N1+02401+01501102111ADDGD12991+0105019GF104991999999999999999999GP10060063902008077502015012702008GQ100600487911169GR100600906913749MA1102101999999MD1110081+9999MW1001REMMET073KHST 251455Z 08017KT 7SM SCT035 24/15 A3015 RMK SLP211 8/500 9/400 51008;EQDQ01+000000PRSWM2
0258722026999992000032919003+25480-080380FM-15+0002KHST V0201601N004612200019N0112651N1+02901+01801101401ADDGD12991+0108019GD22991+0900019GF104991999999999999999999GP10060090102008083702015015202008GQ100600268921719GR100601222913719MA1101391999999MW1001REMMET082KHST 291855Z 16009KT 130V190 7SM FEW036 SCT300 29/18 A2994 RMK SLP140 8/201 9/201;EQDQ01+000000PRSWM2
0228722026999992000033022003+25480-080380FM-15+0002KHST V0202101N003612200019N0112651N1+02801+01901101311ADDGD12991+0090019GF102991999999999999999999GP10060039902008064502015009702008GQ100600621926079GR100600638913709MA1101321999999MW1001REMMET067KHST 302155Z 21007KT 7SM FEW030 28/19 A2992 RMK SLP131 8/100 9/100;EQDQ01+000000PRSWM2
0233722026999992000040304003+25480-080380FM-15+0002KHST V0200901N007212200019N0112651N1+02301+01701102071ADDGD12991+0090019GD22991+0114019GF104991999999999999999999GP10060000002000000002000000002000GR100600000900009MA1102071999999MW1001REMMET074KHST 030355Z 09014KT 7SM FEW030 SCT038 23/17 A3014 RMK SLP207 8/800 9/300;EQDQ01+000000PRSWM2
0247722026999992000040713003+25480-080380FM-15+0002KHST V0200501N001512200019N0096561N1+02201+01801101941ADDGD12991+0096019GF104991999999999999999999GP10060020902008021702015014202008GQ100600720909079GR100600421913639MA1101931999999MW1051REMMET070KHST 071255Z 05003KT 6SM HZ SCT032 22/18 A3010 RMK SLP194 8/100 9/400;EQDQ01+000003PRSWM1Q02    003PRSWM1
0233722026999992000042501003+25480-080380FM-15+0002KHST V0201701N002612200019N0112651N1+02401+02201101241ADDGD12991+0450019GD22991+0900019GF102991999999999999999999GP10060000002000000002000000002000GR100600000900009MA1101251999999MW1001REMMET074KHST 250055Z 17005KT 7SM FEW150 FEW300 24/22 A2990 RMK SLP124 8/071 9/011;EQDQ01+000000PRSWM2
0231722026999992000042606003+25480-080380FM-15+0002KHST V0203001N002612200019N0112651N1+02301+02101101451ADDGD12991+0360019GF102991999999999999999999GP10060000002000000002000000002000GR100600000900009MA1101461999999MD1810021+9999MW1001REMMET073KHST 260555Z 30005KT 7SM FEW120 23/21 A2996 RMK SLP145 8/070 9/010 58002;EQDQ01+000000PRSWM2
0275722026999992000050309003+25480-080380FM-15+0002KHST V0200901N005710270019N0112651N1+02401+02001101651ADDGD12991+0075019GD22991+0150019GD34991+0270019GF108991999999999999999999GP10060000002000000002000000002000GR100600000900009MA1101661999999MD1610101+9999MW1001REMMET087KHST 030857Z 09011KT 7SM FEW025 SCT055 OVC090 24/20 A3002 RMK SLP165 8/87/ 9/35/ 56010;EQDQ01+000000PRSWM2
0211722026999992000050402003+25480-080380FM-15+0002KHST V0200801N004612200019N0112651N1+02301+01901101911ADDGD12991+0075019GF102991999999999999999999GP10060000002000000002000000002000GR100600000900009MA1101901999999MW1001REMMET067KHST 040159Z 08009KT 7SM FEW025 23/19 A3009 RMK SLP191 8/100 9/200;EQDQ01+000000PRSWM2
0228722026999992000050514003+25480-080380FM-15+0002KHST V0200701N006712200019N0112651N1+02501+01701102141ADDGD12991+0090019GF102991999999999999999999GP10060050802008057102015017002008GQ100600536908789GR100600794913429MA1102131999999MW1001REMMET067KHST 051357Z 07013KT 7SM FEW030 25/17 A3016 RMK SLP214 8/100 9/100;EQDQ01+000000PRSWM2
0270722026999992000050621003+25480-080380FM-15+0002KHST V0200901N006710900019N0112651N1+02601+01801101911ADDGD12991+0105019GD23991+0900019GF107991999999999999999999GP10060063302008066902015016202008GQ100600453926879GR100600941913429MA1101901999999MD1610151+9999MW1001REMMET080KHST 062055Z 09013KT 7SM FEW035 BKN300 26/18 A3009 RMK SLP191 8/101 9/203 56015;EQDQ01+000000PRSWM2
0318722026999992000050712003+25480-080380FM-15+0002KHST V0200701N004610120019N0112651N1+02201+02001101921ADDGA1999+008401021GD12991+0084019GD23991+0120019GF107991999999999999999999GP10060006802008000002015006802008GQ100600801907589GR100600231913419MA1101931999999MD1310081+9999MW1161REMMET096KHST 071155Z 07009KT 7SM VCSH SCT028TCU BKN040 22/20 A3010 RMK SLP192 TCU 4 E 8/400 9/600 53008;EQDQ01+000003PRSWM1Q02    003PRSWM1
0248722026999992000051112003+25480-080380FM-15+0002KHST V0200201N001512200019N0112651N1+02301+02201101841ADDGD12991+0075019GF102991999999999999999999GP10060011902008015002015009202008GQ100600796907489GR100600241913399MA1101831999999MD1310151+9999MW1001REMMET073KHST 111155Z 02003KT 7SM FEW025 23/22 A3007 RMK SLP184 8/100 9/200 53015;EQDQ01+000000PRSWM2
0228722026999992000052211003+25480-080380FM-15+0002KHST V0209999C000012200019N0112651N1+02201+02101101651ADDGD12991+0105019GF104991999999999999999999GP10060000002008000002015000002008GQ100600876906829GR100600024905669MA1101661999999MW1001REMMET067KHST 221055Z 00000KT 7SM SCT035 22/21 A3002 RMK SLP165 8/100 9/200;EQDQ01+000000PRSWM2
0315722026999992000052316003+25480-080380FM-15+0002KHST V02099999999990210019N0112651N1+03001+02201101601ADDGD12991+0084019GD22991+0120019GD33991+0210019GD43991+0900019GF107991999999999999999999GP10060070302008034402015039202008GQ100600253909559GR100601201913329MA1101591999999MW1161REMMET093KHST 231555Z VRB05KT 7SM VCSH FEW028 SCT040 BKN070 BKN300 30/22 A3000 RMK SLP160 8/461 9/411;EQDQ01+000003PRSWM1Q02    003PRSWM1
0322722026999992000052518003+25480-080380FM-15+0002KHST V0200101N003610090019N0112651N1+02901+02301999999ADDGA1999+009001091GD13991+0090019GD23991+0120019GD33991+0270019GF107991999999999999999999GP10060099502008081002015018802008GQ100600062920239GR100601323913319MA1101661999999MW1801MW2951REMMET093KHST 251800Z 01007KT 320V040 7SM -TSRA BKN030CB BKN040 BKN090 29/23 A3002 RMK TS 4 WSW MOV E;EQDQ01+000003PRSWM1Q02    003PRSWM1
0277722026999992000060523003+25480-080380FM-15+0002KHST V0201001N003112200019N0112651N1+02701+02401101621ADDGD12991+0060019GD22991+0450019GD32991+0750019GF104991999999999999999999GP10060023702008035902015011302008GQ100600697928629GR100600460913269MA1101631999999MW1001REMMET086KHST 052255Z 10006KT 7SM FEW020 SCT150 SCT250 27/24 A3001 RMK SLP162 8/163 9/121 WR//;EQDQ01+000000PRSWM2
0273722026999992000060822324+25480-080380FM-16+0002KHST V0202701N003110066019N0080461N1+02401+02201999999ADDGA1999+006601091GD13991+0066019GD23991+0180019GD34991+0720019GF108991999999999999999999MA1101831999999MW1811MW2951REMMET112KHST 082232Z COR 27006KT 5SM TSRA BKN022CB BKN060 OVC240 24/22 A3007 RMK OCNL LTGIC TS 5 SE AND 2 NW MOV W WR//;EQDQ01+000003PRSWM1Q02    003PRSWM1
0292722026999992000061518003+25480-080380FM-15+0002KHST V0201201N005710105019N0112651N1+03001+02401101791ADDGD12991+0075019GD23991+0105019GD33991+0750019GF107991999999999999999999GP10060093002008062402015030702008GQ100600044919949GR100601319913249MA1101801999999MD1710031+9999MW1001REMMET087KHST 151755Z 12011KT 7SM SCT025 BKN035 BKN250 30/24 A3006 RMK SLP179 8/801 9/502 57003;EQDQ01+000000PRSWM2
0272722026999992000062011003+25480-080380FM-15+0002KHST V0203201N001012200019N0112651N1+02401+02201102021ADDGD12991+0081019GD22991+0360019GD32991+0750019GF104991999999999999999999GP10060000002008000002015000002008GQ100600875906509GR100600026906069MA1102031999999MW1001REMMET081KHST 201059Z 32002KT 7SM FEW027 SCT120 SCT250 24/22 A3013 RMK SLP202 8/178 9/122;EQDQ01+000000PRSWM2
0292722026999992000062600003+25480-080380FM-15+0002KHST V0201101N002610750019N0112651N1+02801+02301101841ADDGD12991+0090019GD22991+0450019GD34991+0750019GF108991999999999999999999GP10060004902008001002015004702008GQ100600812929199GR100600201913229MA1101831999999MD1310081+9999MW1001REMMET087KHST 252355Z 11005KT 7SM SCT030 SCT150 OVC250 28/23 A3007 RMK SLP184 8/176 9/314 53008;EQDQ01+000000PRSWM2
0264722026999992000062602244+25480-080380FM-16+0002KHST V0202501N001010240019N0112651N1+02401+02201999999ADDGA1999+009001091GD12991+0090019GD23991+0240019GD33991+0630019GF107991999999999999999999MA1101931999999MW1001REMMET125KHST 260224Z 25002KT 7SM SCT030CB BKN080 BKN210 24/22 A3010 RMK OCNL LTGIC DSNT NE-E TS 12N DSPTD CB DSNT NE-E AND NW MOV NW;EQDQ01+000000PRSWM2
0277722026999992000070823003+25480-080380FM-15+0002KHST V0200201N001510420019N0112651N1+02801+02301101771ADDGD12991+0075019GD23991+0420019GD34991+0900019GF108991999999999999999999GP10060016002008004002015014602008GQ100600683928549GR100600487913219MA1101761999999MW1001REMMET086KHST 082255Z 02003KT 7SM SCT025 BKN140 OVC300 28/23 A3005 RMK SLP177 8/163 9/323 WR//;EQDQ01+000000PRSWM2
0318722026999992000070900003+25480-080380FM-15+0002KHST V0200901N001510900019N0112651N1+02701+02401101791ADDAA106000021GD12991+0075019GD22991+0420019GD33991+0900019GF107991999999999999999999GP10060003402008000002015003402008GQ100600811929079GR100600203913219MA1101801999999MD1310031+9999MW1001REMMET102KHST 082355Z COR 09003KT 7SM FEW025 SCT140 BKN300 27/24 A3006 RMK SLP179 60000 8/163 9/214 53003 WR//;EQDQ01+000000PRSWM2
0270722026999992000071315003+25480-080380FM-15+0002KHST V0201601N001512200019N0112651N1+03101+02301101791ADDGD12991+0090019GD22991+0900019GF104991999999999999999999GP10060064702008056502015021802008GQ100600406908589GR100601001913229MA1101801999999MD1010071+9999MW1001REMMET080KHST 131455Z 16003KT 7SM FEW030 SCT300 31/23 A3006 RMK SLP179 8/103 9/201 50007;EQDQ01+000000PRSWM2
0264722026999992000072817454+25480-080380FM-15+0002KHST V0200701N005110750019N0112651N1+03101+02301999999ADDGA1999+009001091GD12991+0090019GD22991+0300019GD33991+0750019GF107991999999999999999999MA1101561999999MW1171REMMET109KHST 281745Z 07010KT 7SM TS SCT030CB SCT100 BKN250 31/23 A2999 RMK OCNL LTGIC CB 10 NW AND DSNT SW-NW MOV SW;EQDQ01+000003PRSWM1Q02    003PRSWM1
0250722026999992000080422003+25480-080380FM-15+0002KHST V0201001N004112200019N0112651N1+03001+02501101871ADDGD12991+0090019GD22991+0750019GF104991999999999999999999GP10060040402008036402015020402008GQ100600567927429GR100600728913279MA1101861999999MW1001REMMET074KHST 042155Z 10008KT 7SM FEW030 SCT250 30/25 A3008 RMK SLP187 8/203 9/202;EQDQ01+000000PRSWM2
0211722026999992000080902003+25480-080380FM-15+0002KHST V0200801N003112200019N0112651N1+02801+02301101841ADDGD12991+0090019GF104991999999999999999999GP10060000002000000002000000002000GR100600000900009MA1101831999999MW1001REMMET067KHST 090155Z 08006KT 7SM SCT030 28/23 A3007 RMK SLP184 8/100 9/300;EQDQ01+000000PRSWM2
0211722026999992000081202003+25480-080380FM-15+0002KHST V0202001N002110300019N0112651N1+02601+02301101751ADDGD13991+0300019GF107991999999999999999999GP10060000002000000002000000002000GR100600000900009MA1101761999999MW1001REMMET067KHST 120156Z 20004KT 7SM BKN100 26/23 A3005 RMK SLP175 8/070 9/060;EQDQ01+000000PRSWM2
0253722026999992000081509003+25480-080380FM-15+0002KHST V0209999C000010750019N0112651N1+02401+02301101971ADDGD12991+0450019GD23991+0750019GF107991999999999999999999GP10060000002000000002000000002000GR100600000900009MA1101961999999MD1610081+9999MW1001REMMET080KHST 150857Z 00000KT 7SM SCT150 BKN250 24/23 A3011 RMK SLP197 8/078 9/043 56008;EQDQ01+000000PRSWM2
0289722026999992000081522204+25480-080380FM-15+0002KHST V0202801N007710075019N0112651N1+02401+02101999999ADDGA1999+007501091GD13991+0075019GD23991+0105019GD34991+0750019GF108991999999999999999999MA1102001999999MW1801MW2951OC101131REMMET120KHST 152220Z 28015G22KT 7SM -TSRA BKN025CB BKN035 OVC250 24/21 A3012 RMK OCNL LTGICCG S-NW TS 5 SW-2 NW MOV SE CB ALQDS;EQDQ01+000003PRSWM1Q02    003PRSWM1
0277722026999992000082713003+25480-080380FM-15+0002KHST V0201401N004110390019N0112651N1+02501+02201101531ADDGD12991+0090019GD22991+0180019GD34991+0390019GF108991999999999999999999GP10060019602008014302015014802008GQ100600707908819GR100600442913399MA1101521999999MW1001REMMET086KHST 271255Z 14008KT 7SM FEW030 SCT060 OVC130 25/22 A2998 RMK SLP153 8/87/ 9/35/ WR//;EQDQ01+000000PRSWM2
0324722026999992000083120003+25480-080380FM-15+0002KHST V0200601N002110750019N0112651N1+02901+02501101521ADDGA1999+007501091GD12991+0075019GD22991+0120019GD33991+0750019GF107991999999999999999999GP10060061502008032202015035202008GQ100600351924609GR100601096913429MA1101521999999MW1001REMMET117KHST 311959Z 06004KT 7SM SCT025CB SCT040 BKN250 29/25 A2998 RMK SLP152 CB DSNT W-NW AND 3 NW MOV NE 8/903 9/402 WR//;EQDQ01+000000PRSWM2
0231722026999992000091509003+25480-080380FM-15+0002KHST V0209999C000010750019N0112651N1+02301+02301101161ADDGD13991+0750019GF107991999999999999999999GP10060000002000000002000000002000GR100600000900009MA1101151999999MD1610151+9999MW1001REMMET073KHST 150855Z 00000KT 7SM BKN250 23/23 A2987 RMK SLP116 8/008 9/007 56015;EQDQ01+000000PRSWM2
0254722026999992000091517374+25480-080380FM-16+0002KHST V0202101N002110105019N0048281N1+02401+02301999999ADDGA1999+006001091GD12991+0060019GD23991+0105019GD34991+0360019GF108991999999999999999999MA1101351999999MW1811MW2951REMMET093KHST 151737Z COR 21004KT 3SM TSRA SCT020CB BKN035 OVC120 24/23 A2993 RMK TS ALQDS MOV N WR//;EQDQ01+000003PRSWM1Q02    003PRSWM1
0212722026999992000091521114+25480-080380FM-16+0002KHST V0203001N001010360019N0096561N1+02501+02401999999ADDGD12991+0105019GD23991+0360019GD34991+0750019GF108991999999999999999999MA1101221999999MW1801REMMET073KHST 152111Z 30002KT 6SM -SHRA FEW035 BKN120 OVC250 25/24 A2989 RMK WR//;EQDQ01+000003PRSWM1Q02    003PRSWM1
0255722026999992000092102003+25480-080380FM-15+0002KHST V0200801N002110750019N0112651N1+02601+02401101621ADDGD12991+0075019GD22991+0450019GD33991+0750019GF107991999999999999999999GP10060000002000000002000000002000GR100600000900009MA1101631999999MW1001REMMET081KHST 210156Z 08004KT 7SM FEW025 FEW150 BKN250 26/24 A3001 RMK SLP162 8/163 9/114;EQDQ01+000000PRSWM2
0233722026999992000092410003+25480-080380FM-15+0002KHST V0201201N002110900019N0112651N1+02701+02401101281ADDGD12991+0066019GD23991+0900019GF107991999999999999999999GP10060000002000000002000000002000GR100600000900009MA1101291999999MW1001REMMET074KHST 240957Z 12004KT 7SM SCT022 BKN300 27/24 A2991 RMK SLP128 8/208 9/302;EQDQ01+000000PRSWM2
0250722026999992000092416003+25480-080380FM-15+0002KHST V0200901N004610900019N0112651N1+03101+02501101501ADDGD12991+0075019GD23991+0900019GF107991999999999999999999GP10060071302008061002015022102008GQ100600363913299GR100601093913599MA1101491999999MW1001REMMET074KHST 241555Z 09009KT 7SM SCT025 BKN300 31/25 A2997 RMK SLP150 8/101 9/304;EQDQ01+000000PRSWM2
0186722026999992000100107003+25480-080380FM-15+0002KHST V0203001N001012200019N0112651N1+02401+02301100971ADDGF100991999999999999999999GP10060000002000000002000000002000GR100600000900009MA1100981999999MW1001REMMET057KHST 010655Z 30002KT 7SM SKC 24/23 A2982 RMK SLP097 WR//;EQDQ01+000000PRSWM2
0308722026999992000100408003+25480-080380FM-15+0002KHST V0201201N004110300019N0112651N1+02401+02401101451ADDGA1999+007501091GD12991+0075019GD23991+0300019GD34991+0750019GF108991999999999999999999GP10060000002000000002000000002000GR100600000900009MA1101461999999MW1001REMMET118KHST 040756Z 12008KT 7SM SCT025CB BKN100 OVC250 24/24 A2996 RMK OCNL LTGIC DSNT SE CB DSNT SE SLP145 8/377 9/341 WR//;EQDQ01+000000PRSWM2
0262722026999992000100623394+25480-080380FM-16+0002KHST V0202701N001010750019N0112651N1+02601+02401999999ADDGA1999+007501091GD12991+0075019GD22991+0240019GD34991+0750019GF108991999999999999999999MA1101631999999MW1171REMMET107KHST 062339Z 27002KT 7SM TS FEW025CB SCT080 OVC250 26/24 A3001 RMK TS 10NW-26NE MOV SE FQT LTGICCCCG NW-NE;EQDQ01+000003PRSWM1Q02    003PRSWM1
0250722026999992000101013003+25480-080380FM-15+0002KHST V0200501N008210210019N0112651N1+02401+01701101891ADDGD12991+0135019GD23991+0210019GF107991999999999999999999GP10060008602008000002015008602008GQ100600748910559GR100600358913729MA1101901999999MW1001REMMET074KHST 101257Z 05016KT 7SM SCT045 BKN070 24/17 A3009 RMK SLP189 8/570 8/340;EQDQ01+000000PRSWM2
0233722026999992000101210003+25480-080380FM-15+0002KHST V0203501N003610450019N0112651N1+02301+02001101841ADDGD12991+0090019GD23991+0450019GF107991999999999999999999GP10060000002000000002000000002000GR100600000900009MA1101831999999MW1001REMMET074KHST 120955Z 35007KT 7SM SCT030 BKN150 23/20 A3007 RMK SLP184 8/170 9/330;EQDQ01+000000PRSWM2
0241722026999992000101219003+25480-080380FM-15+0002KHST V0200501N008712200019N0112651N1+02801+02001101801ADDGD12991+0090019GF102991999999999999999999GP10060072302008074002015014502008GQ100600389921349GR100601068913739MA1101801999999MW1001REMMET080KHST 121858Z COR 05017KT 7SM FEW030 28/20 A3006 RMK SLP180 8/100 9/200 COR 1859;EQDQ01+000000PRSWM2
0211722026999992000101405003+25480-080380FM-15+0002KHST V0200601N003612200019N0112651N1+02401+01701101921ADDGD12991+0090019GF102991999999999999999999GP10060000002000000002000000002000GR100600000900009MA1101931999999MW1001REMMET067KHST 140455Z 06007KT 7SM FEW030 24/17 A3010 RMK SLP192 8/100 9/200;EQDQ01+000000PRSWM2
0211722026999992000101411003+25480-080380FM-15+0002KHST V0203401N002612200019N0112651N1+01901+01701101851ADDGD12991+0135019GF102991999999999999999999GP10060000002000000002000000002000GR100600000900009MA1101861999999MW1001REMMET067KHST 141055Z 34005KT 7SM FEW045 19/17 A3008 RMK SLP185 8/100 9/100;EQDQ01+000000PRSWM2
0231722026999992000101706003+25480-080380FM-15+0002KHST V0203401N002112200019N0112651N1+02001+01701101701ADDGD12991+0120019GF102991999999999999999999GP10060000002000000002000000002000GR100600000900009MA1101691999999MD1810081+9999MW1001REMMET073KHST 170555Z 34004KT 7SM FEW040 20/17 A3003 RMK SLP170 8/500 9/100 58008;EQDQ01+000000PRSWM2
0250722026999992000101816003+25480-080380FM-15+0002KHST V0203301N004612200019N0112651N1+02701+01901101821ADDGD12991+0105019GD22991+0750019GF102991999999999999999999GP10060070202008064702015022402008GQ100600426914369GR100601014913789MA1101831999999MW1001REMMET074KHST 181555Z 33009KT 7SM FEW035 FEW250 27/19 A3007 RMK SLP182 8/108 9/101;EQDQ01+000000PRSWM2
0272722026999992000102016003+25480-080380FM-15+0002KHST V0200801N003612200019N0112651N1+02801+02001101991ADDGD12991+0090019GD22991+0300019GD32991+0900019GF104991999999999999999999GP10060070202008078002015013102008GQ100600432914439GR100601006913809MA1102001999999MW1001REMMET081KHST 201556Z 08007KT 7SM FEW030 FEW100 SCT300 28/20 A3012 RMK SLP199 8/171 9/111;EQDQ01+000000PRSWM2
0211722026999992000102205003+25480-080380FM-15+0002KHST V0200601N005112200019N0112651N1+02501+02101101921ADDGD12991+0075019GF102991999999999999999999GP10060000002000000002000000002000GR100600000900009MA1101931999999MW1001REMMET067KHST 220455Z 06010KT 7SM FEW025 25/21 A3010 RMK SLP192 8/200 9/200;EQDQ01+000000PRSWM2
0228722026999992000102222003+25480-080380FM-15+0002KHST V0200501N008712200019N0112651N1+02601+01901102021ADDGD12991+0120019GF102991999999999999999999GP10060020202008050102015006302008GQ100600740924869GR100600379913819MA1102031999999MW1001REMMET067KHST 222155Z 05017KT 7SM FEW040 26/19 A3013 RMK SLP202 8/100 9/200;EQDQ01+000000PRSWM2
0201722026999992000102709003+25480-080380FM-15+0002KHST V0203001N001012200019N0112651N1+01901+01801101581ADDGF100991999999999999999999GP10060000002000000002000000002000GR100600000900009MA1101591999999MD1710031+9999MW1001REMMET058KHST 270855Z 30002KT 7SM SKC 19/18 A3000 RMK SLP158 57003;EQDQ01+000000PRSWM2
0250722026999992000110319003+25480-080380FM-15+0002KHST V0200701N007212200019N0112651N1+02601+01501101851ADDGD12991+0105019GD22991+0900019GF102991999999999999999999GP10060066802008076902015013102008GQ100600459920909GR100600967913919MA1101861999999MW1001REMMET074KHST 031856Z 07014KT 7SM FEW035 FEW300 26/15 A3008 RMK SLP185 8/101 9/101;EQDQ01+000000PRSWM2
0292722026999992000110812003+25480-080380FM-15+0002KHST V0201101N002612200019N0112651N1+02201+02001101651ADDGD12991+0090019GD22991+0540019GD32991+0900019GF104991999999999999999999GP10060000002008000002015000002008GQ100600877910969GR100600023905699MA1101661999999MD1310101+9999MW1001REMMET087KHST 081155Z 11005KT 7SM FEW030 FEW180 SCT300 22/20 A3002 RMK SLP165 8/171 9/111 53010;EQDQ01+000000PRSWM2
0236722026999992000111717003+25480-080380FM-15+0002KHST V0202201N003612200019N0112651N1+02801+02101101721ADDGD12991+0105019GF104991999999999999999999GP10060061102008053602015023602008GQ100600457916799GR100600978914009MA1101731999999MW1001REMMET075KHST 171655Z 22007KT 190V260 7SM SCT035 28/21 A3004 RMK SLP172 8/100 9/300;EQDQ01+000000PRSWM2
0294722026999992000112020003+25480-080380FM-15+0002KHST V0203501N005110270019N0112651N1+02501+02101101851ADDGD12991+0060019GD22991+0090019GD33991+0270019GD43991+0750019GF107991999999999999999999GP10060034702008015402015026302008GQ100600572922069GR100600759914029MA1101861999999MW1001REMMET088KHST 201958Z 35010KT 7SM FEW020 FEW030 BKN090 BKN250 25/21 A3008 RMK SLP185 8/878 9/232;EQDQ01+000000PRSWM2
0253722026999992000112203003+25480-080380FM-15+0002KHST V0203401N003612200019N0112651N1+01201+00601102671ADDGD12991+0150019GD22991+0750019GF102991999999999999999999GP10060000002000000002000000002000GR100600000900009MA1102681999999MD1110071+9999MW1001REMMET080KHST 220259Z 34007KT 7SM FEW050 FEW250 12/06 A3032 RMK SLP267 8/101 9/101 51007;EQDQ01+000000PRSWM2
0233722026999992000112711003+25480-080380FM-15+0002KHST V0203501N002110270019N0112651N1+01901+01901101701ADDGD12991+0090019GD24991+0270019GF108991999999999999999999GP10060000002000000002000000002000GR100600000900009MA1101691999999MW1001REMMET074KHST 271055Z 35004KT 7SM SCT030 OVC090 19/19 A3003 RMK SLP170 8/17/ 9/35/;EQDQ01+000000PRSWM2
0250722026999992000112918414+25480-080380FM-16+0002KHST V0200501N004110210019N0112651N1+02201+02101999999ADDGA1999+007501091GD12991+0075019GD23991+0210019GD34991+0510019GF108991999999999999999999MA1101901999999MW1801MW2951REMMET089KHST 291841Z 05008KT 7SM -TSRA FEW025CB BKN070 OVC170 22/21 A3009 RMK TS 45SE STNRY WR//;EQDQ01+000003PRSWM1Q02    003PRSWM1
0295722026999992000113000003+25480-080380FM-15+0002KHST V0200701N004110210019N0112651N1+02101+02001101891ADDAA106004691GD13991+0210019GD24991+0390019GF108991999999999999999999GP10060000002000000002000000002000GR100600000900009MA1101901999999MD1110031+9999MW1611REMMET095KHST 292355Z 07008KT 7SM -RA BKN070 OVC130 21/20 A3009 RMK SLP189 60018 8/07/ 9/08/ 51003 WR//;EQDQ01+000003PRSWM1Q02    003PRSWM1
0181722026999992000120404003+25480-080380FM-15+0002KHST V0203501N004612200019N0112651N1+01701+01501102091ADDGF100991999999999999999999GP10060000002000000002000000002000GR100600000900009MA1102101999999MW1001REMMET052KHST 040355Z 35009KT 7SM SKC 17/15 A3015 RMK SLP209;EQDQ01+000000PRSWM2
0272722026999992000120422003+25480-080380FM-15+0002KHST V0200601N006210750019N0112651N1+02101+01501101941ADDGD12991+0105019GD22991+0240019GD33991+0750019GF107991999999999999999999GP10060010302008015602015007302008GQ100600787923839GR100600276914099MA1101931999999MW1001REMMET081KHST 042157Z 06012KT 7SM FEW035 SCT080 BKN250 21/15 A3010 RMK SLP194 8/272 9/223;EQDQ01+000000PRSWM2
0292722026999992000120615003+25480-080380FM-15+0002KHST V0200301N003112200019N0112651N1+02101+01601101971ADDGD12991+0120019GD22991+0210019GD32991+0900019GF104991999999999999999999GP10060042102008065302015011602008GQ100600622913729GR100600656914099MA1101961999999MD1010021+9999MW1001REMMET087KHST 061455Z 03006KT 7SM FEW040 FEW070 SCT300 21/16 A3011 RMK SLP197 8/178 9/111 50002;EQDQ01+000000PRSWM2
0231722026999992000121312003+25480-080380FM-15+0002KHST V0200901N004112200019N0112651N1+02301+02201102311ADDGD12991+0075019GF102991999999999999999999GP10060000002000000002000000002000GR100600000900009MA1102301999999MD1310071+9999MW1001REMMET073KHST 131155Z 09008KT 7SM FEW025 23/22 A3021 RMK SLP231 8/100 9/200 53007;EQDQ01+000000PRSWM2
0270722026999992000121915003+25480-080380FM-15+0002KHST V0202801N004112200019N0112651N1+02001+01601101841ADDGD12991+0105019GD22991+0180019GF104991999999999999999999GP10060034502008037102015018002008GQ100600638913679GR100600624914139MA1101831999999MD1110071+9999MW1001REMMET080KHST 191455Z 28008KT 7SM FEW035 SCT060 20/16 A3007 RMK SLP184 8/800 9/400 51007;EQDQ01+000000PRSWM2
0233722026999992000122202003+25480-080380FM-15+0002KHST V02099999999990135019N0112651N1+01601+01001102181ADDGD13991+0135019GD24991+0750019GF108991999999999999999999GP10060000002000000002000000002000GR100600000900009MA1102171999999MW1001REMMET074KHST 220155Z VRB03KT 7SM BKN045 OVC250 16/10 A3017 RMK SLP218 8/507 9/602;EQDQ01+000000PRSWM2
0211722026999992000122207003+25480-080380FM-15+0002KHST V0200501N002110180019N0112651N1+01601+01301102021ADDGD14991+0180019GF108991999999999999999999GP10060000002000000002000000002000GR100600000900009MA1102031999999MW1001REMMET067KHST 220655Z 05004KT 7SM OVC060 16/13 A3013 RMK SLP202 8/5// 9/8//;EQDQ01+000000PRSWM2
0210722026999992000122210424+25480-080380FM-16+0002KHST V0200201N001510120019N0064371N1+01701+01601999999ADDGD12991+0015019GD23991+0120019GD34991+0210019GF108991999999999999999999MA1102031999999MW1101MW2611REMMET065KHST 221042Z 02003KT 4SM -RA BR FEW005 BKN040 OVC070 17/16 A3013;EQDQ01+000003PRSWM1Q02    003PRSWM1
0267722026999992000122404003+25480-080380FM-15+0002KHST V0200501N007710075019N0064371N1+02001+01701102111ADDGD13991+0075019GD24991+0120019GF108991999999999999999999GP10060000002000000002000000002000GR100600000900009MA1102101999999MW1101MW2611REMMET086KHST 240355Z 05015KT 4SM -RA BR BKN025 OVC040 20/17 A3015 RMK SLP211 8/8// 9/8// WR//;EQDQ01+000003PRSWM1Q02    003PRSWM1
0181722026999992000123107003+25480-080380FM-15+0002KHST V0203601N002612200019N0112651N1+00601+00001102291ADDGF100991999999999999999999GP10060000002000000002000000002000GR100600000900009MA1102301999999MW1001REMMET052KHST 310655Z 36005KT 7SM SKC 06/00 A3021 RMK SLP229;EQDQ01+000000PRSWM2
0258722026999992000123117003+25480-080380FM-15+0002KHST V0203601N005110900019N0112651N1+01201+00001102621ADDGD12991+0090019GD23991+0900019GF107991999999999999999999GP10060066102008091702015007502008GQ100600504916369GR100600901914159MA1102611999999MW1001REMMET082KHST 311655Z 36010KT 340V050 7SM FEW030 BKN300 12/00 A3030 RMK SLP262 8/101 9/106;EQDQ01+000000PRSWM2
0254722029999992000010311534+25650-080430FM-15+0003KTMB V0201001N003112200019N0160931N1+01801+01801102031ADDAA101000391AA206000391AA324000391GF100991999999999999999999KA1999M+01831KA2999N+01441MA1102031999999MD1310031+9999MW1001REMMET103KTMB 031153Z 10006KT 10SM CLR 18/18 A3013 RMK AO2 SLP203 P0001 60001 70001 T01830178 10183 20144 53003;EQDQ01+000000PRSWM2
0071722029999992000010318009+25650-080433NSRDB+000399999V020999999999999999999999999999+99999+99999999999ADDGP10060033702008005402015030102008GQ100600487918129GR100600935914159
0155722029999992000010413534+25650-080430FM-15+0003KTMB V0201501N003112200019N0160931N1+02401+02101102141ADDGF100991999999999999999999MA1102171999999MW1001REMMET077KTMB 041353Z AUTO 15006KT 10SM CLR 24/21 A3017 RMK AO2 SLP214 T02390211 TSNO;EQDQ01+000000PRSWM2
0188722029999992000010510244+25650-080430FM-16+0003KTMB V0209999C000010150019N0012071N1+01801+01801999999ADDGD12991+0003019GD24991+0150019GF108991999999999999999999MA1101901999999MW1101REMMET064KTMB 051024Z 00000KT 3/4SM BR SCT001 OVC050 18/18 A3009 RMK AO2;EQDQ01+000003PRSWM1Q02    003PRSWM1
0071722029999992000010619009+25650-080433NSRDB+000399999V020999999999999999999999999999+99999+99999999999ADDGP10060064402008081802015012302008GQ100600506919879GR100600897914159
0071722029999992000010621009+25650-080433NSRDB+000399999V020999999999999999999999999999+99999+99999999999ADDGP10060038502008074002015007602008GQ100600654922659GR100600588914159
0071722029999992000010920009+25650-080433NSRDB+000399999V020999999999999999999999999999+99999+99999999999ADDGP10060051002008068702015012602008GQ100600562921429GR100600787914159
0071722029999992000011020009+25650-080433NSRDB+000399999V020999999999999999999999999999+99999+99999999999ADDGP10060053802008071102015013902008GQ100600560921429GR100600790914159
0144722029999992000011207534+25650-080430FM-15+0003KTMB V0209999C000012200019N0112651N1+01701+01701102111ADDGF100991999999999999999999MA1102131999999MW1001REMMET066KTMB 120753Z 00000KT 7SM CLR 17/17 A3016 RMK AO2 SLP211 T01720172;EQDQ01+000000PRSWM2
0185722029999992000011316534+25650-080430FM-15+0003KTMB V0200801N003610210019N0160931N1+02501+01801102391ADDGD12991+0078019GD23991+0210019GF107991999999999999999999MA1102401999999MW1001REMMET077KTMB 131653Z 08007KT 10SM FEW026 BKN075 25/18 A3024 RMK AO2 SLP239 T02500183;EQDQ01+000000PRSWM2
0180722029999992000011404534+25650-080430FM-15+0003KTMB V0209999C000012200019N0144841N1+01701+01701102361ADDGF100991999999999999999999KA1999M+02671KA2999N+01441MA1102371999999MW1001REMMET076KTMB 140453Z 00000KT 9SM CLR 17/17 A3023 RMK AO2 SLP236 T01720172 402670144;EQDQ01+000000PRSWM2
0145722029999992000011716534+25650-080430FM-15+0003KTMB V0203401N006212200019N0160931N1+02301+00801102631ADDGF100991999999999999999999MA1102641999999MW1001REMMET067KTMB 171653Z 34012KT 10SM CLR 23/08 A3031 RMK AO2 SLP263 T02280083;EQDQ01+000000PRSWM2
0145722029999992000011806534+25650-080430FM-15+0003KTMB V0203101N001512200019N0160931N1+00901+00901102261ADDGF100991999999999999999999MA1102271999999MW1001REMMET067KTMB 180653Z 31003KT 10SM CLR 09/09 A3020 RMK AO2 SLP226 T00940089;EQDQ01+000000PRSWM2
0054722029999992000012012009+25650-080433NSRDB+000399999V020999999999999999999999999999+99999+99999999999ADDGP10060000002000000002000000002000GR100600000900009
0221722029999992000012317534+25650-080430FM-15+0003KTMB V02099999999992200019N0160931N1+02601+01401101731ADDGD12991+0120019GF104991999999999999999999KA1999M+02611KA2999N+01061MA1101761999999MD1810221+9999MW1001REMMET088KTMB 231753Z VRB06KT 10SM SCT040 26/14 A3005 RMK AO2 SLP173 T02610144 10261 20106 58022;EQDQ01+000000PRSWM2
0054722029999992000012405009+25650-080433NSRDB+000399999V020999999999999999999999999999+99999+99999999999ADDGP10060000002000000002000000002000GR100600000900009
0183722029999992000012514534+25650-080430FM-15+0003KTMB V0203401N006210750019N0160931N1+01301+00601101471ADDGD13991+0750019GF107991999999999999999999MA1101491999999MD1110191+9999MW1001REMMET076KTMB 251453Z 34012KT 10SM BKN250 13/06 A2997 RMK AO2 SLP147 T01280056 51019;EQDQ01+000000PRSWM2
0221722029999992000013017534+25650-080430FM-15+0003KTMB V0201401N004612200019N0160931N1+02601+01601102261ADDGD12991+0105019GF104991999999999999999999KA1999M+02561KA2999N+01501MA1102271999999MD1810161+9999MW1001REMMET088KTMB 301753Z 14009KT 10SM SCT035 26/16 A3020 RMK AO2 SLP226 T02560156 10256 20150 58016;EQDQ01+000000PRSWM2
0239722029999992000013122534+25650-080430FM-15+0003KTMB V0203601N008210123019N0160931N1+02301+01801101851ADDAA101000021GD13991+0123019GD23991+0240019GF107991999999999999999999MA1101861999999MW1611OC100981REMMET096KTMB 312253Z 36016G19KT 10SM -RA BKN041 BKN085 23/18 A3008 RMK AO2 RAB44 SLP185 P0000 T02280183;EQDQ01+000003PRSWM1Q02    003PRSWM1
0185722029999992000020312534+25650-080430FM-15+0003KTMB V0201201N002612200019N0160931N1+02101+01901101951ADDGD12991+0210019GD22991+0300019GF104991999999999999999999MA1101961999999MW1001REMMET077KTMB 031253Z 12005KT 10SM FEW075 SCT100 21/19 A3011 RMK AO2 SLP195 T02060189;EQDQ01+000000PRSWM2
0305722029999992000020317534+25650-080430FM-15+0003KTMB V0201801N004110135019N0160931N1+02301+02001101801ADDAA101000021AA206002091GD12991+0060019GD23991+0135019GD34991+0180019GF108991999999999999999999KA1999M+02501KA2999N+02001MA1101801999999MD1810171+9999MW1001REMMET120KTMB 031753Z 18008KT 10SM SCT020 BKN045 OVC060 23/20 A3006 RMK AO2 RAE43 SLP180 P0000 60008 T02330200 10250 20200 58017;EQDQ01+000000PRSWM2
0071722029999992000020623009+25650-080433NSRDB+000399999V020999999999999999999999999999+99999+99999999999ADDGP10060008402008045602015002402008GQ100600824924869GR100600185914079
