0203476610999992000010702004+35400+139920FM-15+0006RJTK V0203401N005710045019N0018001N1+01201+01001999999ADDGA1021+002409999GA2071+004509999GF107991999999999999999999MA1100711999999MW1101REMMET077RJTK 0200Z 34011KT 1800 BR FEW008 BKN015 12/10 Q1007 RMK 2ST008 6SC015 A2976;EQDQ01+000003PRSWM1Q02    003PRSWM1
0204476610999992000011902004+35400+139920FM-15+0006RJTK V0200201N005110105019N0112651N1+00701+00101999999ADDGA1021+004509999GA2081+010509999GF108991999999999999999999MA1101491999999MW1611REMMET078RJTK 0200Z 02010KT 9999 -RA FEW015 OVC035 07/01 Q1015 RMK 2SC015 8SC035 A2998;EQDQ01+000003PRSWM1Q02    003PRSWM1
0171476610999992000022123004+35400+139920FM-15+0006RJTK V0203301N006712200019N0112651N1+00401-01201999999ADDGA1021+030009999GF102991999999999999999999MA1101291999999MW1001REMMET077RJTK 2300Z 33013KT 9999 FEW100 04/M12 Q1013 RMK 1AC100 A2993 FCST 2308 NOSIG;EQDQ01+000000PRSWM2
0186476610999992000031407204+35400+139920FM-15+0006RJTK V0201801N005710090019N0112651N1+01101+00101999999ADDGA1071+009009999GA2071+030009999GF107991999999999999999999MA1101391999999MW1001REMMET076RJTK 140720Z 18011KT 9999 BKN030 BKN100 11/01 Q1014 RMK 5CU030 6AC100 A2995;EQDQ01+000000PRSWM2
0168476610999992000032200204+35400+139920FM-15+0006RJTK V0200101N006712200019N0112651N1+01101-00201999999ADDGA1021+012009999GF102991999999999999999999MA1101491999999MW1001OC101341REMMET066RJTK 220020Z 01013G26KT 9999 FEW040 11/M02 Q1015 RMK 1SC040 A2999;EQDQ01+000000PRSWM2
0235476610999992000032223004+35400+139920FM-15+0006RJTK V0200601N002110150019N0112651N1+00401+00001999999ADDGA1021+012009999GA2071+015009999GF107991999999999999999999MA1102511999999MW1001REMMET125RJTK 2300Z 06004KT 9999 FEW040 BKN050 04/00 Q1025 RMK 2SC040 5SC050 A3027 FCST 2308 BECMG 0103 16010KT TEMPO 0608 20020G30KT;EQDQ01+000000PRSWM2
0184476610999992000040301004+35400+139920FM-15+0006RJTK V0200601N006210090019N0112651N1+01101+00401999999ADDGA1071+009009999GA2081+030009999GF108991999999999999999999MA1102201999999MW1001REMMET074RJTK 0100Z 06012KT 9999 BKN030 OVC100 11/04 Q1022 RMK 6SC030 8AC100 A3018;EQDQ01+000000PRSWM2
0271476610999992000061208004+35400+139920FM-15+0006RJTK V0200401N002610060019N0045001N1+01801+01601999999ADDGA1021+003009999GA2081+006009999GF108991999999999999999999MA1100711999999MW1101MW2611REMMET139RJTK 120800Z 04005KT 4500 -RA BR SCT010 OVC020 18/16 Q1007 RMK 3ST010 8SC020 A2975 FCST 0817 BECMG 0810 3000 RA SCT005ST BKN008ST OVC010SC;EQDQ01+000003PRSWM1Q02    003PRSWM1
0363476610999992000061323004+35400+139920FM-15+0006RJTK V0200101N003610024019N0050001N1+01801+01801999999ADDGA1021+001809999GA2071+002409999GA3081+004509999GF108991999999999999999999MA1100411999999MW1101MW2611REMMET215RJTK 132300Z 01007KT 5000 -RA BR FEW006 BKN008 OVC015 18/18 Q1004 RMK 2ST006 6ST008 8SC015 A2965 FCST 2308 TEMPO 2306 3000 SCT008ST BKN010SC OVC015SC BECMG 0607 NSW SCT008ST BKN020SC OVC030SC TEMPO 0708 4000 -RA BR;EQDQ01+000003PRSWM1Q02    003PRSWM1
0186476610999992000062005004+35400+139920FM-15+0006RJTK V0202301N006212200019N0080001N1+03001+02001999999ADDGA1021+009009999GA2021+060009999GF104991999999999999999999MA1100911999999MW1001REMMET076RJTK 200500Z 23012KT 8000 FEW030 SCT200 30/20 Q1009 RMK 1CU030 4CI200 A2980;EQDQ01+000000PRSWM2
0186476610999992000070302004+35400+139920FM-15+0006RJTK V0202701N002612200019N0112651N1+03001+02301999999ADDGA1021+009009999GA2021+024009999GF104991999999999999999999MA1101191999999MW1001REMMET076RJTK 030200Z 27005KT 9999 FEW030 SCT080 30/23 Q1012 RMK 1CU030 3AC080 A2989;EQDQ01+000000PRSWM2
0205476610999992000070401004+35400+139920FM-15+0006RJTK V0203101N003112200019N0040001N1+02801+02301999999ADDGA1021+009009999GA2021+030009999GF104991999999999999999999MA1101291999999MW1051REMMET079RJTK 040100Z 31006KT 4000 HZ FEW030 SCT100 28/23 Q1013 RMK 1CU030 3AC100 A2993;EQDQ01+000003PRSWM1Q02    003PRSWM1
0211476610999992000080702004+35400+139920FM-15+0006RJTK V0203001N003112200019N0112651N1+02901+02301999999ADDGA1021+009009999GA2021+010509029GF104991999999999999999999MA1101291999999MW1001REMMET101RJTK 070200Z 30006KT 9999 FEW030 SCT035TCU 29/23 Q1013 RMK 2CU030 3TCU035 A2992 TCU N AND SW MOV UNK;EQDQ01+000000PRSWM2
0254476610999992000080905154+35400+139920FM-16+0006RJTK V0202801N003110090019N0060001N1+03001+02301999999ADDGA1021+006009999GA2021+007509099GA3071+009009999GF107991999999999999999999MA1101081999999MW1171REMMET112RJTK 090515Z 28006KT 6000 TS FEW020 FEW025CB BKN030 30/23 Q1011 RMK 2CU020 2CB025 5CU030 A2987 FBL TS E MOV UNK;EQDQ01+000003PRSWM1Q02    003PRSWM1
0205476610999992000082301004+35400+139920FM-15+0006RJTK V0202701N004612200019N0050001N1+02901+02601999999ADDGA1021+006009999GA2021+009009999GF104991999999999999999999MA1101391999999MW1101REMMET079RJTK 230100Z 27009KT 5000 BR FEW020 SCT030 29/26 Q1014 RMK 1CU020 3CU030 A2994;EQDQ01+000003PRSWM1Q02    003PRSWM1
0233476610999992000082806004+35400+139920FM-15+0006RJTK V0202101N007212200019N0112651N1+03101+02401999999ADDGA1021+009009999GA2021+010509029GF102991999999999999999999MA1101491999999MW1001REMMET123RJTK 280600Z 21014KT 9999 SCT030 FEW035TCU 31/24 Q1015 RMK 3CU030 2TCU035 A2998 TCU NE MOV N FCST 0615 TEMPO 0610 BKN030CU;EQDQ01+000000PRSWM2
0197476610999992000090223004+35400+139920FM-15+0006RJTK V0203401N013912200019N0112651N1+02901+01501999999ADDGA1021+030009999GF102991999999999999999999MA1100101999999MW1001OC101951REMMET095RJTK 022300Z 34027G38KT 9999 FEW100 29/15 Q1001 RMK 1AC100 A2957 FCST 2308 TEMPO 0708 BKN030CU;EQDQ01+000000PRSWM2
0216476610999992000091500334+35400+139920FM-16+0006RJTK V0200201N002610240019N0060001N1+02801+02501999999ADDGA1021+003009999GA2021+006009999GA3071+024009999GF107991999999999999999999MA1101021999999MW1001REMMET090RJTK 150033Z 02005KT 6000 FEW010 SCT020 BKN080 28/25 Q1010 RMK 2ST010 4SC020 6AC080 A2984;EQDQ01+000000PRSWM2
0202476610999992000091906004+35400+139920FM-15+0006RJTK V0202701N004112200019N0112651N1+02801+02101999999ADDGA1021+007509999GA2021+060009999GF104991999999999999999999MA1101691999999MW1001REMMET092RJTK 190600Z 27008KT 9999 FEW025 SCT200 28/21 Q1017 RMK 1CU025 4CI200 A3003 FCST 0615 NOSIG;EQDQ01+000000PRSWM2
0225476610999992000092600004+35400+139920FM-15+0006RJTK V0203601N006710360019N0112651N1+02401+01501999999ADDGA1021+012009999GA2071+036009999GF107991999999999999999999MA1100911999999MW1001REMMET115RJTK 260000Z 36013KT 9999 SCT040 BKN120 24/15 Q1009 RMK 3SC040 7AC120 A2981 FCST 0009 TEMPO 0004 BKN030SC BKN150AC;EQDQ01+000000PRSWM2
0146476610999992000101204004+35400+139920FM-15+0006RJTK V0202101N006712200019N9999999N1+02801+01901999999ADDGF100991999999999999999999MA1100711999999MW1001REMMET052RJTK 120400Z 21013KT 6000 SKC 28/19 Q1007 RMK A2973;EQDQ01+060002VODIS Q02+000000PRSWM2
0156476610999992000103022004+35400+139920FM-15+0006RJTK V0200601N001512200019N0112651N1+01101+00801999999ADDGA1021+009009999GF102991999999999999999999MA1102511999999MW1001REMMET062RJTK 302200Z 06003KT 9999 FEW030 11/08 Q1025 RMK 1CU030 A3029;EQDQ01+000000PRSWM2
0231476610999992000110908004+35400+139920FM-15+0006RJTK V0200501N002110120019N0112651N1+01301+00601999999ADDGA1021+009009999GA2071+012009999GA3081+030009999GF108991999999999999999999MA1102201999999MW1001REMMET105RJTK 090800Z 05004KT 9999 SCT030 BKN040 OVC100 13/06 Q1022 RMK 3SC030 6SC040 8AC100 A3019 FCST 0817 NOIG;EQDQ01+000000PRSWM2
0172476610999992000121106004+35400+139920FM-15+0006RJTK V0201501N002612200019N0112651N1+01401+00301999999ADDGA1021+013509999GF102991999999999999999999MA1100511999999MW1001REMMET078RJTK 110600Z 15005KT 9999 FEW045 14/03 Q1005 RMK 1SC045 A2969 FCST 0615 NOSIG;EQDQ01+000000PRSWM2
0101476620999992000010110004+35680+139770FM-12+0036RJTD V0203501N003619999999N9999999N1+00891-00651102161ADDMA1999999101721MD1110211+9999REMSYN060AAXX  01104 47662 46/// /3507 10089 21065 30172 40216 51021;
0101476620999992000010813004+35680+139770FM-12+0036RJTD V0203401N002119999999N9999999N1+00941+00251101821ADDMA1999999101381MD1110131+9999REMSYN060AAXX  08134 47662 46/// /3404 10094 20025 30138 40182 51013;
0186476620999992000010900004+35680+139770FM-12+0036RJTD V0203301N002619999999N0100001N1+00691-00181102301ADDAA106000091GF107991021081999999031021KA1999N+00491MA1999999101861MD1210201+9999REMSYN076AAXX  09004 47662 32/60 73305 10069 21018 30186 40230 52020 82832 333 20049;EQDQ01  00002PRCP06
0101476620999992000011123004+35680+139770FM-12+0036RJTD V0203501N003119999999N9999999N1+00461-00691102691ADDMA1999999102241MD1310171+9999REMSYN060AAXX  11234 47662 46/// /3506 10046 21069 30224 40269 53017;
0165476620999992000011909004+35680+139770FM-12+003699999V0200401N002619999999N0070001N1+00571+00231101341ADDAY161031AY261031GF107991071051999999999999MA1999999100901MD1510031+9999MW1101REMSYN076    AAXX  19094 47662 41/57 70405 10057 20023 30090 40134 55003 71066 875//;
0101476620999992000012723004+35680+139770FM-12+0036RJTD V0203201N001519999999N9999999N1+00091-00891102611ADDMA1999999102151MD1310151+9999REMSYN060AAXX  27234 47662 46/// /3203 10009 21089 30215 40261 53015;
0101476620999992000012810004+35680+139770FM-12+0036RJTD V0202801N002119999999N9999999N1+00691-00911102881ADDMA1999999102431MD1110331+9999REMSYN060AAXX  28104 47662 46/// /2804 10069 21091 30243 40288 51033;
0101476620999992000020415004+35680+139770FM-12+0036RJTD V0203301N003619999999N9999999N1+00541-00741102441ADDMA1999999101991MD1010011+9999REMSYN060AAXX  04154 47662 46/// /3307 10054 21074 30199 40244 50001;
0101476620999992000020610004+35680+139770FM-12+0036RJTD V0202301N001519999999N9999999N1+00931+00391100921ADDMA1999999100491MD1810241+9999REMSYN060AAXX  06104 47662 46/// /2303 10093 20039 30049 40092 58024;
0101476620999992000021220004+35680+139770FM-12+0036RJTD V0203401N003619999999N9999999N1+00601-00341101151ADDMA1999999100711MD1310101+9999REMSYN060AAXX  12204 47662 46/// /3407 10060 21034 30071 40115 53010;
0101476620999992000021414004+35680+139770FM-12+0036RJTD V0203301N001519999999N9999999N1+00631+00201099991ADDMA1999999099561MD1610281+9999REMSYN060AAXX  14144 47662 46/// /3303 10063 20020 39956 49999 56028;
0101476620999992000021919004+35680+139770FM-12+0036RJTD V0203401N002119999999N9999999N1+00501-00401100891ADDMA1999999100451MD1610301+9999REMSYN060AAXX  19194 47662 46/// /3404 10050 21040 30045 40089 56030;
0211476620999992000022612004+35680+139770FM-12+0036RJTD V0200501N003119999999N0060001N1+00241-00031101231ADDAA112000791AY121061AY221061GF108991071051999999999999KA1120M+00441MA1999999100781MD1810101+9999MW1221REMSYN098AAXX  26124 47662 11/56 80506 10024 21003 30078 40123 58010 69902 72222 875// 333 10044 555 17000;
0133476620999992000030118004+35680+139770FM-12+0036RJTD V0203601N003612200019N0200001N1+00281-00881102301ADDGF101991011051999999001001MA1999999101851MD1810101+9999REMSYN066AAXX  01184 47662 42/70 13607 10028 21088 30185 40230 58010 81500;
0101476620999992000030205004+35680+139770FM-12+0036RJTD V0203401N001519999999N9999999N1+01191-01241101891ADDMA1999999101461MD1610331+9999REMSYN060AAXX  02054 47662 46/// /3403 10119 21124 30146 40189 56033;
0101476620999992000030513004+35680+139770FM-12+0036RJTD V0200801N003119999999N9999999N1+01201+00041101151ADDMA1999999100721MD1310101+9999REMSYN060AAXX  05134 47662 46/// /0806 10120 20004 30072 40115 53010;
0101476620999992000030515004+35680+139770FM-12+0036RJTD V0200401N004119999999N9999999N1+01001+00261101191ADDMA1999999100761MD1110111+9999REMSYN060AAXX  05154 47662 46/// /0408 10100 20026 30076 40119 51011;
0101476620999992000030904004+35680+139770FM-12+0036RJTD V0203601N006719999999N9999999N1+00961-00901101091ADDMA1999999100661MD1810041+9999REMSYN060AAXX  09044 47662 46/// /3613 10096 21090 30066 40109 58004;
0101476620999992000030911004+35680+139770FM-12+0036RJTD V0203401N006719999999N9999999N1+00371-01361101771ADDMA1999999101321MD1110421+9999REMSYN060AAXX  09114 47662 46/// /3413 10037 21136 30132 40177 51042;
0143476620999992000030918004+35680+139770FM-12+0036RJTD V0203401N003112200019N0200001N1+00231-01091101991ADDGA1001+999999999GF100991001001999999001001MA1999999101541MD1310101+9999REMSYN060AAXX  09184 47662 42970 03406 10023 21109 30154 40199 53010;
0161476620999992000031221004+35680+139770FM-12+0036RJTD V0200101N002619999999N0080001N1+00481-00391101321ADDAY121031AY221031GF106991051051999999031011MA1999999100881MD1310141+9999MW1051REMSYN072AAXX  12214 47662 41/58 60105 10048 21039 30088 40132 53014 70522 85531;
0101476620999992000031607004+35680+139770FM-12+0036RJTD V0203401N006219999999N9999999N1+00641+00491099061ADDMA1999999098631MD1610681+9999REMSYN060AAXX  16074 47662 46/// /3412 10064 20049 39863 49906 56068;
0143476620999992000031906004+35680+139770FM-12+0036RJTD V0202201N005119999999N0200001N1+01571+00071100781ADDGF107991011011999999031021MA1999999100361MD1610351+9999REMSYN076AAXX  19064 47662 42/70 72210 10157 20007 30036 40078 56035 81132 555 00162;
0143476620999992000032618004+35680+139770FM-12+0036RJTD V0203301N005112200019N0300001N1+00421-00951101471ADDGA1001+999999999GF100991001001999999001001MA1999999101031MD1110051+9999REMSYN060AAXX  26184 47662 42980 03310 10042 21095 30103 40147 51005;
0143476620999992000032621004+35680+139770FM-12+0036RJTD V0203301N003112200019N0300001N1+00391-01171101701ADDGA1001+999999999GF100991001001999999001001MA1999999101251MD1310221+9999REMSYN060AAXX  26214 47662 42980 03306 10039 21117 30125 40170 53022;
0101476620999992000032708004+35680+139770FM-12+0036RJTD V0202201N003619999999N9999999N1+01351-00131101681ADDMA1999999101251MD1310031+9999REMSYN060AAXX  27084 47662 46/// /2207 10135 21013 30125 40168 53003;
0101476620999992000040505004+35680+139770FM-12+0036RJTD V0203401N003619999999N9999999N1+01181+01051100541ADDMA1999999100111MD1810511+9999REMSYN060AAXX  05054 47662 46/// /3407 10118 20105 30011 40054 58051;
0101476620999992000041101004+35680+139770FM-12+0036RJTD V0203401N007719999999N9999999N1+01331-00631100101ADDMA1999999099681MD1110291+9999REMSYN060AAXX  11014 47662 46/// /3415 10133 21063 39968 40010 51029;
0101476620999992000041407004+35680+139770FM-12+0036RJTD V0201201N001519999999N9999999N1+02341+00901100411ADDMA1999999100001MD1510031+9999REMSYN060AAXX  14074 47662 46/// /1203 10234 20090 30000 40041 55003;
0101476620999992000041705004+35680+139770FM-12+0036RJTD V0201901N003619999999N9999999N1+01491-00441101341ADDMA1999999100911MD1610141+9999REMSYN060AAXX  17054 47662 46/// /1907 10149 21044 30091 40134 56014;
0101476620999992000042604004+35680+139770FM-12+0036RJTD V0202001N002119999999N9999999N1+01541+00841101051ADDMA1999999100631MD1610071+9999REMSYN060AAXX  26044 47662 46/// /2004 10154 20084 30063 40105 56007;
0101476620999992000042805004+35680+139770FM-12+0036RJTD V0201201N001519999999N9999999N1+01921+00531100211ADDMA1999999099791MD1310021+9999REMSYN060AAXX  28054 47662 46/// /1203 10192 20053 39979 40021 53002;
0143476620999992000042906004+35680+139770FM-12+0036RJTD V0203001N002619999999N0250001N1+02111+00031101341ADDGF105991051081999999041001MA1999999100921MD1510041+9999REMSYN076AAXX  29064 47662 42/75 53005 10211 20003 30092 40134 55004 85840 555 00220;
0133476620999992000050321004+35680+139770FM-12+0036RJTD V0203401N002119999999N0200001N1+01471+00841101171ADDGF107991071081999999001001MA1999999100741MD1310101+9999REMSYN066AAXX  03214 47662 42/70 73404 10147 20084 30074 40117 53010 87800;
0101476620999992000050519004+35680+139770FM-12+0036RJTD V0201001N002119999999N9999999N1+01421+00771102061ADDMA1999999101631MD1710031+9999REMSYN060AAXX  05194 47662 46/// /1004 10142 20077 30163 40206 57003;
0101476620999992000050701004+35680+139770FM-12+0036RJTD V0202001N002619999999N9999999N1+02021+01391101931ADDMA1999999101511MD1710121+9999REMSYN060AAXX  07014 47662 46/// /2005 10202 20139 30151 40193 57012;
0214476620999992000051100004+35680+139770FM-12+0036RJTD V0200601N002119999999N0050001N1+01491+01071101441ADDAA199000091AY121061AY221061GF107991041051999999071021KA1999N+01291MA1999999101011MD1810091+9999MW1101REMSYN082AAXX  11004 47662 31/50 70604 10149 20107 30101 40144 58009 71022 84572 333 20129;EQDQ01  00002PRCP99
0101476620999992000051619004+35680+139770FM-12+0036RJTD V0203001N002119999999N9999999N1+01781+01451100961ADDMA1999999100541MD1510011+9999REMSYN060AAXX  16194 47662 46/// /3004 10178 20145 30054 40096 55001;
0101476620999992000051815004+35680+139770FM-12+0036RJTD V0203501N001519999999N9999999N1+01711+01201101251ADDMA1999999100831MD1110041+9999REMSYN060AAXX  18154 47662 46/// /3503 10171 20120 30083 40125 51004;
0171476620999992000052006004+35680+139770FM-12+0036RJTD V0200301N001519999999N0022001N1+01741+01571101131ADDAY161061AY221061GF108991071071999999999999MA1999999100711MD1810171+9999MW1611REMSYN082AAXX  20064 47662 41/22 80303 10174 20157 30071 40113 58017 76162 877// 555 00179;
0143476620999992000052806004+35680+139770FM-12+0036RJTD V0202201N007219999999N0150001N1+02941+01971099321ADDGF107991011011999999031021MA1999999098921MD1610271+9999REMSYN076AAXX  28064 47662 42/65 72214 10294 20197 39892 49932 56027 81132 555 00295;
0101476620999992000052916004+35680+139770FM-12+0036RJTD V0202201N003119999999N9999999N1+02161+01721101101ADDMA1999999100691MD1810011+9999REMSYN060AAXX  29164 47662 46/// /2206 10216 20172 30069 40110 58001;
0101476620999992000060420004+35680+139770FM-12+0036RJTD V0200701N003119999999N9999999N1+01661+01291101061ADDMA1999999100641MD1310151+9999REMSYN060AAXX  04204 47662 46/// /0706 10166 20129 30064 40106 53015;
0214476620999992000060500004+35680+139770FM-12+0036RJTD V0200501N001512200019N0080001N1+02071+01241101121ADDAA199000091AY121061AY221061GF104991041021999999001001KA1999N+01641MA1999999100701MD1110011+9999MW1051REMSYN082AAXX  05004 47662 31/58 40503 10207 20124 30070 40112 51001 70522 84200 333 20164;EQDQ01  00002PRCP99
0101476620999992000060608004+35680+139770FM-12+0036RJTD V0202101N004119999999N9999999N1+02481+01401100581ADDMA1999999100171MD1610111+9999REMSYN060AAXX  06084 47662 46/// /2108 10248 20140 30017 40058 56011;
0101476620999992000060619004+35680+139770FM-12+0036RJTD V0203001N001019999999N9999999N1+02011+01641100611ADDMA1999999100191MD1510001+9999REMSYN060AAXX  06194 47662 46/// /3002 10201 20164 30019 40061 55000;
0171476620999992000061306004+35680+139770FM-12+0036RJTD V0200101N002619999999N0035001N1+01991+01791100531ADDAY161061AY261061GF108991031071999999021999MA1999999100111MD1710081+9999MW1611REMSYN082AAXX  13064 47662 41/35 80105 10199 20179 30011 40053 57008 76166 8372/ 555 00200;
0101476620999992000061910004+35670+139770FM-12+0036RJTD V0202001N002619999999N9999999N1+02561+01781100891ADDMA1999999100481MD1310091+9999REMSYN060AAXX  19104 47662 46/// /2005 10256 20178 30048 40089 53009;
0101476620999992000061920004+35670+139770FM-12+0036RJTD V0202401N001519999999N9999999N1+02151+01891101041ADDMA1999999100631MD1310051+9999REMSYN060AAXX  19204 47662 46/// /2403 10215 20189 30063 40104 53005;
0101476620999992000062520004+35670+139770FM-12+0036RJTD V0200401N002119999999N9999999N1+01701+01591101431ADDMA1999999101011MD1510001+9999REMSYN060AAXX  25204 47662 46/// /0404 10170 20159 30101 40143 55000;
0101476620999992000062619004+35670+139770FM-12+0036RJTD V0201001N000519999999N9999999N1+02031+01791101261ADDMA1999999100841MD1610051+9999REMSYN060AAXX  26194 47662 46/// /1001 10203 20179 30084 40126 56005;
0101476620999992000062622004+35670+139770FM-12+0036RJTD V0201401N002119999999N9999999N1+02161+01781101271ADDMA1999999100851MD1210011+9999REMSYN060AAXX  26224 47662 46/// /1404 10216 20178 30085 40127 52001;
0101476620999992000062708004+35670+139770FM-12+0036RJTD V0202201N003619999999N9999999N1+02581+02011100801ADDMA1999999100391MD1810051+9999REMSYN060AAXX  27084 47662 46/// /2207 10258 20201 30039 40080 58005;
0211476620999992000070312004+35670+139770FM-12+0036RJTD V0201501N001512200019N0060001N1+02631+02361101231ADDAA112030091AY191061AY281061GA1001+999999999GF100991001001999999001001KA1999M+03281MA1999999100821MD1310171+9999MW1101REMSYN082AAXX  03124 47662 11956 01503 10263 20236 30082 40123 53017 60302 71098 333 10328;
0101476620999992000070322004+35670+139770FM-12+0036RJTD V0200201N002119999999N9999999N1+02601+02081101311ADDMA1999999100901MD1110081+9999REMSYN060AAXX  03224 47662 46/// /0204 10260 20208 30090 40131 51008;
0101476620999992000072813004+35670+139770FM-12+0036RJTD V0202201N003619999999N9999999N1+02631+02261100921ADDMA1999999100511MD1010061+9999REMSYN060AAXX  28134 47662 46/// /2207 10263 20226 30051 40092 50006;
0101476620999992000073123004+35670+139770FM-12+0036RJTD V0202301N005119999999N9999999N1+03011+02231100961ADDMA1999999100561MD1110061+9999REMSYN060AAXX  31234 47662 46/// /2310 10301 20223 30056 40096 51006;
0101476620999992000080620004+35670+139770FM-12+0036RJTD V0203201N002119999999N9999999N1+02731+02231101351ADDMA1999999100941MD1310071+9999REMSYN060AAXX  06204 47662 46/// /3204 10273 20223 30094 40135 53007;
0101476620999992000081216004+35670+139770FM-12+0036RJTD V0200101N004119999999N9999999N1+02541+02381100281ADDMA1999999099871MD1810111+9999REMSYN060AAXX  12164 47662 46/// /0108 10254 20238 39987 40028 58011;
0101476620999992000081919004+35670+139770FM-12+0036RJTD V0200501N002619999999N9999999N1+02451+01931100851ADDMA1999999100441MD1310021+9999REMSYN060AAXX  19194 47662 46/// /0505 10245 20193 30044 40085 53002;
0101476620999992000082108004+35670+139770FM-12+0036RJTD V0201901N003619999999N9999999N1+03161+02341100891ADDMA1999999100491MD1210021+9999REMSYN060AAXX  21084 47662 46/// /1907 10316 20234 30049 40089 52002;
0161476620999992000082209004+35670+139770FM-12+0036RJTD V0201801N002619999999N0080001N1+02961+02421101301ADDAY111031AY211031GF106991061021999999001001MA1999999100901MD1310061+9999MW1051REMSYN072AAXX  22094 47662 41/58 61805 10296 20242 30090 40130 53006 70511 86200;
0161476620999992000082418004+35670+139770FM-12+0036RJTD V0202601N001519999999N0080001N1+02791+02391101341ADDAY121061AY221061GF107991031021999999031001MA1999999100931MD1510021+9999MW1101REMSYN072AAXX  24184 47662 41/58 72603 10279 20239 30093 40134 55002 71022 83230;
0167476620999992000082500004+35670+139770FM-12+0036RJTD V0202901N001019999999N0120001N1+02941+02341101391ADDAA199000021GF106991061021999999031001KA1999N+02701MA1999999100991MD1810011+9999REMSYN076AAXX  25004 47662 32/62 62902 10294 20234 30099 40139 58001 86230 333 20270;
0171476620999992000083106004+35670+139770FM-12+0036RJTD V0202501N003619999999N0150001N1+02881+02351101351ADDAY181061AY221061GF107991041031999999071011MA1999999100951MD1810091+9999MW1801REMSYN082AAXX  31064 47662 41/65 72507 10288 20235 30095 40135 58009 78082 84371 555 00308;
0101476620999992000090511004+35670+139770FM-12+0036RJTD V0203401N004119999999N9999999N1+02041+01821100621ADDMA1999999100211MD1310081+9999REMSYN060AAXX  05114 47662 46/// /3408 10204 20182 30021 40062 53008;
0161476620999992000091021004+35670+139770FM-12+0036RJTD V0203201N001519999999N0150001N1+02511+02301101111ADDAY181031AY221031GF108991071021999999071999MA1999999100701MD1310111+9999MW1251REMSYN072AAXX  10214 47662 41/65 83203 10251 20230 30070 40111 53011 72582 8727/;
0101476620999992000091515004+35670+139770FM-12+0036RJTD V0201301N001519999999N9999999N1+02681+02351101031ADDMA1999999100621MD1810061+9999REMSYN060AAXX  15154 47662 46/// /1303 10268 20235 30062 40103 58006;
0101476620999992000092014004+35670+139770FM-12+0036RJTD V0200801N002619999999N9999999N1+02381+01661102431ADDMA1999999102011MD1110081+9999REMSYN060AAXX  20144 47662 46/// /0805 10238 20166 30201 40243 51008;
0101476620999992000092523004+35670+139770FM-12+0036RJTD V0203501N003119999999N9999999N1+02321+01281101001ADDMA1999999100591MD1310111+9999REMSYN060AAXX  25234 47662 46/// /3506 10232 20128 30059 40100 53011;
0201476620999992000092600004+35670+139770FM-12+0036RJTD V0203401N004619999999N0250001N1+02281+01271101021ADDAA112000791AY121061AY221061GF108991011021999999071999KA1999N+02261MA1999999100611MD1110111+9999MW1611REMSYN088AAXX  26004 47662 11/75 83409 10228 20127 30061 40102 51011 69902 76122 8127/ 333 20226;
0171476620999992000100106004+35670+139770FM-12+0036RJTD V0201001N003119999999N0080001N1+02291+01671101341ADDAY181061AY221061GF107991041021999999071999MA1999999100931MD1510041+9999MW1051REMSYN082AAXX  01064 47662 41/58 71006 10229 20167 30093 40134 55004 70582 8427/ 555 00230;
0101476620999992000100617004+35670+139770FM-12+0036RJTD V0203401N003119999999N9999999N1+01951+01481102071ADDMA1999999101651MD1110021+9999REMSYN060AAXX  06174 47662 46/// /3406 10195 20148 30165 40207 51002;
0101476620999992000101402004+35670+139770FM-12+0036RJTD V0200201N004619999999N9999999N1+02281+01151101771ADDMA1999999101351MD1210011+9999REMSYN060AAXX  14024 47662 46/// /0209 10228 20115 30135 40177 52001;
0101476620999992000101514004+35670+139770FM-12+0036RJTD V0200401N001019999999N9999999N1+01751+01461102141ADDMA1999999101711MD1810021+9999REMSYN060AAXX  15144 47662 46/// /0402 10175 20146 30171 40214 58002;
0101476620999992000101619004+35670+139770FM-12+0036RJTD V0203501N003119999999N9999999N1+01631+01041102111ADDMA1999999101681MD1710051+9999REMSYN060AAXX  16194 47662 46/// /3506 10163 20104 30168 40211 57005;
0101476620999992000101720004+35670+139770FM-12+0036RJTD V0203301N003619999999N9999999N1+01831+01111101051ADDMA1999999100631MD1310011+9999REMSYN060AAXX  17204 47662 46/// /3307 10183 20111 30063 40105 53001;
0133476620999992000101809004+35670+139770FM-12+0036RJTD V0203501N005719999999N0200001N1+01771+00281101781ADDGF107991071001999999071999MA1999999101361MD1310331+9999REMSYN066AAXX  18094 47662 42/70 73511 10177 20028 30136 40178 53033 8707/;
0101476620999992000101810004+35670+139770FM-12+0036RJTD V0203401N005119999999N9999999N1+01721+00161101971ADDMA1999999101541MD1310421+9999REMSYN060AAXX  18104 47662 46/// /3410 10172 20016 30154 40197 53042;
0133476620999992000102021004+35670+139770FM-12+0036RJTD V0200301N002119999999N0100001N1+01681+01481101561ADDGF106991011051999999031021MA1999999101141MD1210211+9999REMSYN066AAXX  20214 47662 42/60 60304 10168 20148 30114 40156 52021 81532;
0171476620999992000102106004+35670+139770FM-12+0036RJTD V0200901N001519999999N0070001N1+02441+01301101511ADDAY111061AY211061GF107991001001999999001021MA1999999101101MD1510051+9999MW1051REMSYN082AAXX  21064 47662 41957 70903 10244 20130 30110 40151 55005 70511 80002 555 00250;
0101476620999992000102507004+35670+139770FM-12+0036RJTD V0202201N003119999999N9999999N1+02141+01721101251ADDMA1999999100831MD1610291+9999REMSYN060AAXX  25074 47662 46/// /2206 10214 20172 30083 40125 56029;
0101476620999992000110207004+35670+139770FM-12+0036RJTD V0200101N003619999999N9999999N1+01541+01391101191ADDMA1999999100761MD1010001+9999REMSYN060AAXX  02074 47662 46/// /0107 10154 20139 30076 40119 50000;
0101476620999992000110501004+35670+139770FM-12+0036RJTD V0203401N001519999999N9999999N1+01621+00791101691ADDMA1999999101261MD1810131+9999REMSYN060AAXX  05014 47662 46/// /3403 10162 20079 30126 40169 58013;
0101476620999992000110607004+35670+139770FM-12+0036RJTD V0200801N002619999999N9999999N1+01731+00821102031ADDMA1999999101601MD1310101+9999REMSYN060AAXX  06074 47662 46/// /0805 10173 20082 30160 40203 53010;
0101476620999992000111301004+35670+139770FM-12+0036RJTD V0200101N003119999999N9999999N1+01531+00471102401ADDMA1999999101971MD1110241+9999REMSYN060AAXX  13014 47662 46/// /0106 10153 20047 30197 40240 51024;
0143476620999992000111606004+35670+139770FM-12+0036RJTD V0200601N005119999999N0150001N1+01221+00471102651ADDGF108991011051999999071999MA1999999102211MD1310041+9999REMSYN076AAXX  16064 47662 42/65 80610 10122 20047 30221 40265 53004 8157/ 555 00155;
0101476620999992000111823004+35670+139770FM-12+0036RJTD V0203401N007219999999N9999999N1+00941-00321103031ADDMA1999999102591MD1310371+9999REMSYN060AAXX  18234 47662 46/// /3414 10094 21032 30259 40303 53037;
0101476620999992000112420004+35670+139770FM-12+0036RJTD V0203501N002619999999N9999999N1+00951+00371102431ADDMA1999999101991MD1510001+9999REMSYN060AAXX  24204 47662 46/// /3505 10095 20037 30199 40243 55000;
0101476620999992000112822004+35670+139770FM-12+0036RJTD V0200301N003119999999N9999999N1+00571-00441102561ADDMA1999999102111MD1110211+9999REMSYN060AAXX  28224 47662 46/// /0306 10057 21044 30211 40256 51021;
0101476620999992000112911004+35670+139770FM-12+0036RJTD V0201101N001519999999N9999999N1+00961+00021102241ADDMA1999999101801MD1810031+9999REMSYN060AAXX  29114 47662 46/// /1103 10096 20002 30180 40224 58003;
0101476620999992000120311004+35670+139770FM-12+0036RJTD V0203501N003119999999N9999999N1+01081+00191100981ADDMA1999999100551MD1010031+9999REMSYN060AAXX  03114 47662 46/// /3506 10108 20019 30055 40098 50003;
0101476620999992000122019004+35670+139770FM-12+0036RJTD V0203401N002119999999N9999999N1+00921+00231100641ADDMA1999999100211MD1710241+9999REMSYN060AAXX  20194 47662 46/// /3404 10092 20023 30021 40064 57024;
0171476620999992000122506004+35670+139770FM-12+0036RJTD V0202301N008212200019N0100001N1+01211+00361100061ADDAY181061AY201061GF102991021021999999001001MA1999999099631MD1610411+9999MW1021REMSYN082AAXX  25064 47662 41/60 22316 10121 20036 39963 40006 56041 70280 82200 555 00125;
0101476620999992000122507004+35670+139770FM-12+0036RJTD V0202601N005119999999N9999999N1+01181+00141100051ADDMA1999999099621MD1610281+9999REMSYN060AAXX  25074 47662 46/// /2610 10118 20014 39962 40005 56028;
0133476620999992000123121004+35670+139770FM-12+0036RJTD V0203401N006712200019N0300001N1+00791-00451100111ADDGF102991021001999999031001MA1999999099681MD1310151+9999REMSYN066AAXX  31214 47662 42980 23413 10079 21045 39968 40011 53015 82030;
0101476630999992000010508004+34070+136200FM-12+002799999V0202601N003119999999N9999999N1+01161+00831102241ADDMA1999999101911MD1110071+9999REMSYN060AAXX  05084 47663 46/// /2606 10116 20083 30191 40224 51007;
0101476630999992000010922004+34070+136200FM-12+002799999V0202701N001519999999N9999999N1+00911+00911101221ADDMA1999999100891MD1510081+9999REMSYN060AAXX  09224 47663 46/// /2703 10091 20091 30089 40122 55008;
0105476630999992000011504004+34070+136200FM-12+002799999V0200801N002619999999N9999999N1+01351+00121101861ADDMA1999999101541MD1810211+9999REMSYN064    AAXX  15044 47663 46/// /0805 10135 20012 30154 40186 58021;
0147476630999992000011706004+34070+136200FM-12+002799999V0201001N003119999999N0300001N1+01281+00771101011ADDGF107991071021999999999999MA1999999100691MD1610031+9999REMSYN080    AAXX  17064 47663 42/80 71006 10128 20077 30069 40101 56003 872// 555 00144;
0105476630999992000011808004+34070+136200FM-12+002799999V0202401N002619999999N9999999N1+00941+00231101241ADDMA1999999100911MD1310151+9999REMSYN064    AAXX  18084 47663 46/// /2405 10094 20023 30091 40124 53015;
0101476630999992000012317004+34070+136200FM-12+002799999V0202701N001019999999N9999999N1+00791+00791102021ADDMA1999999101691MD1810031+9999REMSYN060AAXX  23174 47663 46/// /2702 10079 20079 30169 40202 58003;
0101476630999992000012504004+34070+136200FM-12+002799999V0202801N005119999999N9999999N1+01181+00061101491ADDMA1999999101161MD1610161+9999REMSYN060AAXX  25044 47663 46/// /2810 10118 20006 30116 40149 56016;
0101476630999992000012602004+34070+136200FM-12+002799999V0201001N002619999999N9999999N1+00551-00611101861ADDMA1999999101531MD1810111+9999REMSYN060AAXX  26024 47663 46/// /1005 10055 21061 30153 40186 58011;
0101476630999992000012813004+34070+136200FM-12+002799999V0202301N001519999999N9999999N1+00091-00391103131ADDMA1999999102791MD1310061+9999REMSYN060AAXX  28134 47663 46/// /2303 10009 21039 30279 40313 53006;
0101476630999992000012916004+34070+136200FM-12+002799999V0202701N002119999999N9999999N1+00361+00131102961ADDMA1999999102621MD1810171+9999REMSYN060AAXX  29164 47663 46/// /2704 10036 20013 30262 40296 58017;
0201476630999992000013112004+34070+136200FM-12+002799999V0203401N001519999999N0200001N1+00501-00511102631ADDAA112000791AY181061AY221061GF106991061021999999001001KA1999M+01051MA1999999102291MD1310221+9999MW1021REMSYN088AAXX  31124 47663 11/70 63403 10050 21051 30229 40263 53022 69902 70282 86200 333 10105;
0101476630999992000020604004+34070+136200FM-12+002799999V0201601N000519999999N9999999N1+00851+00821101381ADDMA1999999101051MD1810401+9999REMSYN060AAXX  06044 47663 46/// /1601 10085 20082 30105 40138 58040;
0161476630999992000020903004+34070+136200FM-12+002799999V0202501N005719999999N0300001N1+00571-00531101131ADDAY181031AY221031GF107991071021999999999999MA1999999100801MD1810051+9999MW1851REMSYN072AAXX  09034 47663 41/80 72511 10057 21053 30080 40113 58005 78582 872//;
0101476630999992000021122004+34070+136200FM-12+002799999V0202801N001519999999N9999999N1+00201-00201101681ADDMA1999999101341MD1310111+9999REMSYN060AAXX  11224 47663 46/// /2803 10020 21020 30134 40168 53011;
0101476630999992000021715004+34070+136200FM-12+002799999V0202701N006719999999N9999999N1+00351-00881101861ADDMA1999999101521MD1310111+9999REMSYN060AAXX  17154 47663 46/// /2713 10035 21088 30152 40186 53011;
0101476630999992000022223004+34070+136200FM-12+002799999V0202701N001019999999N9999999N1+00251-00261102181ADDMA1999999101841MD1110121+9999REMSYN060AAXX  22234 47663 46/// /2702 10025 21026 30184 40218 51012;
0101476630999992000030210004+34070+136200FM-12+002799999V0202701N002119999999N9999999N1+00891+00251102381ADDMA1999999102051MD1310201+9999REMSYN060AAXX  02104 47663 46/// /2704 10089 20025 30205 40238 53020;
0133476630999992000030421004+34070+136200FM-12+002799999V0203601N001519999999N0150001N1+01111+01031101061ADDGF107991041021999999071021MA1999999100741MD1110161+9999REMSYN066AAXX  04214 47663 42/65 73603 10111 20103 30074 40106 51016 84272;
0109476630999992000030518004+34070+136200FM-12+002799999V0203201N001512200019N0200001N1+99999+99999999999ADDGF101991999999999999999999REMSYN071AAXX  05184 47663 41/70 13203 1062 20034 30085 40118 52004 702// 81100;
0133476630999992000031321004+34070+136200FM-12+002799999V0203001N001512200019N0200001N1+00131-00451102171ADDGF101991001001999999001011MA1999999101831MD1310171+9999REMSYN066AAXX  13214 47663 42970 13003 10013 21045 30183 40217 53017 80001;
0101476630999992000031701004+34070+136200FM-12+002799999V0203101N006219999999N9999999N1+01061-00461101111ADDMA1999999100781MD1310221+9999REMSYN060AAXX  17014 47663 46/// /3112 10106 21046 30078 40111 53022;
0101476630999992000032111004+34070+136200FM-12+002799999V0202901N002119999999N9999999N1+00961+00461101571ADDMA1999999101241MD1110061+9999REMSYN060AAXX  21114 47663 46/// /2904 10096 20046 30124 40157 51006;
0101476630999992000032211004+34070+136200FM-12+002799999V0202301N001019999999N9999999N1+00781-00311102291ADDMA1999999101961MD1110291+9999REMSYN060AAXX  22114 47663 46/// /2302 10078 21031 30196 40229 51029;
0101476630999992000032617004+34070+136200FM-12+002799999V0202701N002119999999N9999999N1+00411-00051101751ADDMA1999999101411MD1510001+9999REMSYN060AAXX  26174 47663 46/// /2704 10041 21005 30141 40175 55000;
0161476630999992000032818004+34070+136200FM-12+002799999V0202601N004112200019N0200001N1+01171+00471100291ADDAY191061AY281061GF101991011011999999001001MA1999999099971MD1110051+9999MW1021REMSYN072AAXX  28184 47663 41/70 12608 10117 20047 39997 40029 51005 70298 81100;
0101476630999992000032904004+34070+136200FM-12+002799999V0202801N005119999999N9999999N1+01631+00201100181ADDMA1999999099861MD1510141+9999REMSYN060AAXX  29044 47663 46/// /2810 10163 20020 39986 40018 55014;
0101476630999992000040705004+34070+136200FM-12+002799999V0200801N003619999999N9999999N1+01621+01051101861ADDMA1999999101541MD1810221+9999REMSYN060AAXX  07054 47663 46/// /0807 10162 20105 30154 40186 58022;
0101476630999992000040904004+34070+136200FM-12+002799999V0201801N001019999999N9999999N1+01571+01171102351ADDMA1999999102031MD1810111+9999REMSYN060AAXX  09044 47663 46/// /1802 10157 20117 30203 40235 58011;
0101476630999992000040913004+34070+136200FM-12+002799999V0202901N001519999999N9999999N1+01491+01381102241ADDMA1999999101921MD1010021+9999REMSYN060AAXX  09134 47663 46/// /2903 10149 20138 30192 40224 50002;
0101476630999992000041215004+34070+136200FM-12+002799999V0202601N003119999999N9999999N1+00991+00131100701ADDMA1999999100381MD1110081+9999REMSYN060AAXX  12154 47663 46/// /2606 10099 20013 30038 40070 51008;
0196476630999992000041700004+34070+136200FM-12+002799999V0200701N004112200019N0300001N1+01371+00071101661ADDAA199000091GA1001+999999999GF100991001001999999001001KA1999N+00391MA1999999101341MD1110081+9999REMSYN070AAXX  17004 47663 32980 00708 10137 20007 30134 40166 51008 333 20039;EQDQ01  00002PRCP99
0201476630999992000042612004+34070+136200FM-12+002799999V0200701N001519999999N0040001N1+01441+01441100221ADDAA112047091AY181061AY281061GF108991081021999999999999KA1999M+01461MA1999999099901MD1610051+9999MW1801REMSYN088AAXX  26124 47663 11/40 80703 10144 20144 39990 40022 56005 60472 78088 882// 333 10146;
0101476630999992000042614004+34070+136200FM-12+002799999V0202901N002619999999N9999999N1+01411+01411100101ADDMA1999999099781MD1810141+9999REMSYN060AAXX  26144 47663 46/// /2905 10141 20141 39978 40010 58014;
0101476630999992000042813004+34070+136200FM-12+002799999V0200801N000519999999N9999999N1+01111+00611101351ADDMA1999999101021MD1110161+9999REMSYN060AAXX  28134 47663 46/// /0801 10111 20061 30102 40135 51016;
0172476630999992000043000004+34070+136200FM-12+002799999V0200701N003619999999N0250001N1+01831+01231101641ADDAA199000091GF107991999999999999999999MA1999999101321MD1610081+9999REMSYN075AAXX  30004 47663 32/75 70707 10183 20123 30132 40164 56008 1102 333 20097;EQDQ01  00002PRCP99
0101476630999992000050211004+34070+136200FM-12+002799999V0202701N002119999999N9999999N1+01501+01451101031ADDMA1999999100711MD1310181+9999REMSYN060AAXX  02114 47663 46/// /2704 10150 20145 30071 40103 53018;
0101476630999992000051317004+34070+136200FM-12+002799999V0202101N000519999999N9999999N1+01511+01511100931ADDMA1999999100611MD1710161+9999REMSYN060AAXX  13174 47663 46/// /2101 10151 20151 30061 40093 57016;
0101476630999992000051323004+34070+136200FM-12+002799999V0203201N000519999999N9999999N1+01831+01501101061ADDMA1999999100741MD1110081+9999REMSYN060AAXX  13234 47663 46/// /3201 10183 20150 30074 40106 51008;
0101476630999992000052417004+34070+136200FM-12+002799999V0203001N001019999999N9999999N1+01741+01101101021ADDMA1999999100701MD1610081+9999REMSYN060AAXX  24174 47663 46/// /3002 10174 20110 30070 40102 56008;
0153476630999992000052718004+34070+136200FM-12+002799999V0200201N001019999999N0040001N1+01881+01881100051ADDAY181061GF108991081021999999999999MA1999999099741MD1610211+9999MW1811REMSYN072AAXX  27184 47663 41/40 80202 10188 20188 39974 40005 56021 7818/ 882//;
0101476630999992000060719004+34070+136200FM-12+002799999V0202601N002119999999N9999999N1+01721+01661100791ADDMA1999999100471MD1410001+9999REMSYN060AAXX  07194 47663 46/// /2604 10172 20166 30047 40079 54000;
0101476630999992000061101004+34070+136200FM-12+002799999V0202501N002119999999N9999999N1+01771+01691101161ADDMA1999999100841MD1510021+9999REMSYN060AAXX  11014 47663 46/// /2504 10177 20169 30084 40116 55002;
0101476630999992000061310004+34070+136200FM-12+002799999V0202901N001019999999N9999999N1+01881+01881100401ADDMA1999999100091MD1510001+9999REMSYN060AAXX  13104 47663 46/// /2902 10188 20188 30009 40040 55000;
0161476630999992000062321004+34690+136200FM-12+002799999V0202301N001019999999N0050001N1+02311+02241100541ADDAY121031AY221031GF107991071021999999999999MA1999999100231MD1310071+9999MW1101REMSYN072AAXX  23214 47663 41/50 72302 10231 20224 30023 40054 53007 71022 872//;
0171476630999992000070206004+34690+136200FM-12+002799999V0201001N003112200019N0200001N1+03001+02461101161ADDAY191061AY281061GF102991021031999999031001MA1999999100861MD1610241+9999MW1021REMSYN082AAXX  02064 47663 41/70 21006 10300 20246 30086 40116 56024 70298 82330 555 00312;
0101476630999992000070408004+34690+136200FM-12+002799999V0202501N002619999999N9999999N1+02441+02151100971ADDMA1999999100661MD1810191+9999REMSYN060AAXX  04084 47663 46/// /2505 10244 20215 30066 40097 58019;
0101476630999992000070619004+34690+136200FM-12+002799999V0202501N001519999999N9999999N1+02261+02121100721ADDMA1999999100411MD1710061+9999REMSYN060AAXX  06194 47663 46/// /2503 10226 20212 30041 40072 57006;
0101476630999992000071608004+34690+136200FM-12+002799999V0201201N002119999999N9999999N1+02921+02391101181ADDMA1999999100881MD1710081+9999REMSYN060AAXX  16084 47663 46/// /1204 10292 20239 30088 40118 57008;
0101476630999992000071707004+34690+136200FM-12+002799999V0200701N002619999999N9999999N1+02851+02391100891ADDMA1999999100591MD1510101+9999REMSYN060AAXX  17074 47663 46/// /0705 10285 20239 30059 40089 55010;
0101476630999992000071917004+34070+136200FM-12+002799999V0202601N001519999999N9999999N1+02541+02351101011ADDMA1999999100701MD1810011+9999REMSYN060AAXX  19174 47663 46/// /2603 10254 20235 30070 40101 58001;
0101476630999992000072023004+34070+136200FM-12+002799999V0201901N000519999999N9999999N1+02831+02411100921ADDMA1999999100621MD1310051+9999REMSYN060AAXX  20234 47663 46/// /1901 10283 20241 30062 40092 53005;
0161476630999992000072509004+34070+136200FM-12+002799999V0200701N006219999999N0200001N1+02421+02151100361ADDAY181031AY221031GF107991071021999999999999MA1999999100051MD1310111+9999MW1021REMSYN072AAXX  25094 47663 41/70 70712 10242 20215 30005 40036 53011 70282 872//;
0133476630999992000072603004+34070+136200FM-12+002799999V0200601N003119999999N0150001N1+02641+02181100411ADDGF107991021021999999071021MA1999999100111MD1810051+9999REMSYN066AAXX  26034 47663 42/65 70606 10264 20218 30011 40041 58005 82272;
0101476630999992000072702004+34070+136200FM-12+002799999V0200101N001019999999N9999999N1+02471+02291100851ADDMA1999999100541MD1010181+9999REMSYN060AAXX  27024 47663 46/// /0102 10247 20229 30054 40085 50018;
0101476630999992000073123004+34070+136200FM-12+002799999V0201501N001019999999N9999999N1+02731+02461101051ADDMA1999999100741MD1310051+9999REMSYN060AAXX  31234 47663 46/// /1502 10273 20246 30074 40105 53005;
0101476630999992000080113004+34070+136200FM-12+002799999V0202201N000519999999N9999999N1+02371+02351101231ADDMA1999999100921MD1110101+9999REMSYN060AAXX  01134 47663 46/// /2201 10237 20235 30092 40123 51010;
0101476630999992000080211004+34070+136200FM-12+002799999V0202601N002119999999N9999999N1+02521+02341101371ADDMA1999999101061MD1310151+9999REMSYN060AAXX  02114 47663 46/// /2604 10252 20234 30106 40137 53015;
0101476630999992000080317004+34070+136200FM-12+002799999V0202701N001019999999N9999999N1+02421+02351101381ADDMA1999999101071MD1510021+9999REMSYN060AAXX  03174 47663 46/// /2702 10242 20235 30107 40138 55002;
0101476630999992000080604004+34070+136200FM-12+002799999V0200701N004619999999N9999999N1+02941+02431101411ADDMA1999999101111MD1810101+9999REMSYN060AAXX  06044 47663 46/// /0709 10294 20243 30111 40141 58010;
0153476630999992000080718004+34070+136200FM-12+002799999V0202701N001519999999N0100001N1+02391+02321101341ADDAY181061GF106991061021999999001001MA1999999101031MD1810021+9999MW1021REMSYN072AAXX  07184 47663 41/60 62703 10239 20232 30103 40134 58002 7028/ 86200;
0201476630999992000081712004+34070+136200FM-12+002799999V0202701N002119999999N0100001N1+02411+02291100781ADDAA112000591AY191061AY281061GF107991011011999999071021KA1999M+03071MA1999999100471MD1310031+9999MW1021REMSYN088AAXX  17124 47663 11/60 72704 10241 20229 30047 40078 53003 69952 70298 81172 333 10307;
0101476630999992000082105004+34070+136200FM-12+002799999V0202701N004119999999N9999999N1+03391+02391100951ADDMA1999999100651MD1610061+9999REMSYN060AAXX  21054 47663 46/// /2708 10339 20239 30065 40095 56006;
0101476630999992000082401004+34070+136200FM-12+002799999V0200701N004119999999N9999999N1+02951+02481101451ADDMA1999999101151MD1810031+9999REMSYN060AAXX  24014 47663 46/// /0708 10295 20248 30115 40145 58003;
0161476630999992000082509004+34070+136200FM-12+002799999V0200801N002619999999N0080001N1+02761+02541101191ADDAY121031AY221031GF108991081021999999999999MA1999999100881MD1610031+9999MW1101REMSYN072AAXX  25094 47663 41/58 80805 10276 20254 30088 40119 56003 71022 882//;
0101476630999992000090219004+34070+136200FM-12+002799999V0202301N002119999999N9999999N1+02531+02281100701ADDMA1999999100391MD1810011+9999REMSYN060AAXX  02194 47663 46/// /2304 10253 20228 30039 40070 58001;
0101476630999992000091410004+34070+136200FM-12+002799999V0200801N005119999999N9999999N1+02611+02561100961ADDMA1999999100651MD1510001+9999REMSYN060AAXX  14104 47663 46/// /0810 10261 20256 30065 40096 55000;
0101476630999992000091622004+34070+136200FM-12+002799999V0202901N000519999999N9999999N1+02341+02251100501ADDMA1999999100191MD1310081+9999REMSYN060AAXX  16224 47663 46/// /2901 10234 20225 30019 40050 53008;
0133476630999992000091821004+34070+136200FM-12+002799999V0202601N001019999999N0200001N1+01871+01801101661ADDGF106991021011999999031021MA1999999101341MD1310111+9999REMSYN066AAXX  18214 47663 42/70 62602 10187 20180 30134 40166 53011 82132;
0101476630999992000092522004+34070+136200FM-12+002799999V0200601N001519999999N9999999N1+02031+01471101191ADDMA1999999100881MD1310091+9999REMSYN060AAXX  25224 47663 46/// /0603 10203 20147 30088 40119 53009;
0101476630999992000101101004+34070+136200FM-12+002799999V0200701N003619999999N9999999N1+02451+02081101601ADDMA1999999101291MD1810041+9999REMSYN060AAXX  11014 47663 46/// /0707 10245 20208 30129 40160 58004;
0101476630999992000101215004+34070+136200FM-12+002799999V0202501N002119999999N9999999N1+01831+01661101161ADDMA1999999100841MD1810021+9999REMSYN060AAXX  12154 47663 46/// /2504 10183 20166 30084 40116 58002;
0101476630999992000101501004+34070+136200FM-12+002799999V0202601N004119999999N9999999N1+01841+01691102271ADDMA1999999101951MD1310171+9999REMSYN060AAXX  15014 47663 46/// /2608 10184 20169 30195 40227 53017;
0101476630999992000102722004+34070+136200FM-12+002799999V0202601N000519999999N9999999N1+01651+01421102351ADDMA1999999102031MD1110051+9999REMSYN060AAXX  27224 47663 46/// /2601 10165 20142 30203 40235 51005;
0101476630999992000110102004+34070+136200FM-12+002799999V0202101N000519999999N9999999N1+01911+01831101701ADDMA1999999101381MD1810211+9999REMSYN060AAXX  01024 47663 46/// /2101 10191 20183 30138 40170 58021;
0101476630999992000110115004+34070+136200FM-12+002799999V0202701N001019999999N9999999N1+01901+01901101161ADDMA1999999100841MD1810161+9999REMSYN060AAXX  01154 47663 46/// /2702 10190 20190 30084 40116 58016;
0101476630999992000110219004+34070+136200FM-12+002799999V0201301N001019999999N9999999N1+02011+01941101221ADDMA1999999100911MD1010041+9999REMSYN060AAXX  02194 47663 46/// /1302 10201 20194 30091 40122 50004;
0101476630999992000110707004+34070+136200FM-12+002799999V0200501N002119999999N9999999N1+02061+01681101711ADDMA1999999101391MD1610061+9999REMSYN060AAXX  07074 47663 46/// /0504 10206 20168 30139 40171 56006;
0101476630999992000110807004+34070+136200FM-12+002799999V0203001N003619999999N9999999N1+02061+00861101511ADDMA1999999101201MD1310181+9999REMSYN060AAXX  08074 47663 46/// /3007 10206 20086 30120 40151 53018;
0101476630999992000111101004+34070+136200FM-12+002799999V0200201N003119999999N9999999N1+01831+00861101691ADDMA1999999101371MD1010051+9999REMSYN060AAXX  11014 47663 46/// /0206 10183 20086 30137 40169 50005;
0101476630999992000113001004+34070+136200FM-12+002799999V0201301N001019999999N9999999N1+01451+00141102091ADDMA1999999101771MD1010041+9999REMSYN060AAXX  30014 47663 46/// /1302 10145 20014 30177 40209 50004;
0133476630999992000113003004+34070+136200FM-12+002799999V0200801N002612200019N0300001N1+01641+00091101891ADDGF101991011011999999031001MA1999999101571MD1810221+9999REMSYN066AAXX  30034 47663 42/80 10805 10164 20009 30157 40189 58022 81130;
0101476630999992000120913004+34070+136200FM-12+002799999V0202701N001519999999N9999999N1+00841+00621102091ADDMA1999999101761MD1810041+9999REMSYN060AAXX  09134 47663 46/// /2703 10084 20062 30176 40209 58004;
0101476630999992000122219004+34070+136200FM-12+002799999V0202701N001519999999N9999999N1+00341+00211101771ADDMA1999999101431MD1810101+9999REMSYN060AAXX  22194 47663 46/// /2703 10034 20021 30143 40177 58010;
0101476630999992000122415004+34070+136200FM-12+002799999V0202501N001019999999N9999999N1+00331-00111101771ADDMA1999999101431MD1810021+9999REMSYN060AAXX  24154 47663 46/// /2502 10033 21011 30143 40177 58002;
0101476630999992000122419004+34070+136200FM-12+002799999V0203101N000519999999N9999999N1+00211-00121101571ADDMA1999999101231MD1610141+9999REMSYN060AAXX  24194 47663 46/// /3101 10021 21012 30123 40157 56014;
0101476630999992000122607004+34070+136200FM-12+002799999V0202601N003619999999N9999999N1+00681-00651101981ADDMA1999999101651MD1310071+9999REMSYN060AAXX  26074 47663 46/// /2607 10068 21065 30165 40198 53007;
0101476630999992000123107004+34070+136200FM-12+002799999V0202801N004119999999N9999999N1+01381+00301100561ADDMA1999999100241MD1610111+9999REMSYN060AAXX  31074 47663 46/// /2808 10138 20030 30024 40056 56011;
0101476660999992000010301004+34600+138850FM-12+005699999V0202701N005119999999N9999999N1+01481+01111101211ADDMA1999999100551MD1810071+9999REMSYN060AAXX  03014 47666 46/// /2710 10148 20111 30055 40121 58007;
0101476660999992000010411004+34600+138850FM-12+005699999V0200401N002119999999N9999999N1+01081+00461102031ADDMA1999999101351MD1110221+9999REMSYN060AAXX  04114 47666 46/// /0404 10108 20046 30135 40203 51022;
0105476660999992000011510004+34600+138850FM-12+005699999V0200801N002119999999N9999999N1+00991+00361102111ADDMA1999999101431MD1110231+9999REMSYN064    AAXX  15104 47666 46/// /0804 10099 20036 30143 40211 51023;
0101476660999992000012021004+34600+138850FM-12+005699999V0202901N003119999999N9999999N1+00381-00541101871ADDMA1999999101171MD1310241+9999REMSYN060AAXX  20214 47666 46/// /2906 10038 21054 30117 40187 53024;
0101476660999992000012114004+34600+138850FM-12+005699999V0200401N001019999999N9999999N1+00241-01391102741ADDMA1999999102031MD1110121+9999REMSYN060AAXX  21144 47666 46/// /0402 10024 21139 30203 40274 51012;
0101476660999992000012223004+34600+138850FM-12+005699999V0202801N006219999999N9999999N1+00931+00231102641ADDMA1999999101951MD1610071+9999REMSYN060AAXX  22234 47666 46/// /2812 10093 20023 30195 40264 56007;
0154476660999992000013012004+34600+138850FM-12+005699999V0202801N008219999999N9999999N1+00941+00071101871ADDAA199000091KA1999M+01421MA1999999101191MD1610151+9999REMSYN070AAXX  30124 47666 36/// /2816 10094 20007 30119 40187 56015 333 10142;EQDQ01  00002PRCP99
0101476660999992000020302004+34600+138850FM-12+005699999V0202701N003619999999N9999999N1+01051-00211102221ADDMA1999999101541MD1810081+9999REMSYN060AAXX  03024 47666 46/// /2707 10105 21021 30154 40222 58008;
0101476660999992000021705004+34600+138850FM-12+005699999V0202801N008719999999N9999999N1+00731-00451101271ADDMA1999999100591MD1510231+9999REMSYN060AAXX  17054 47666 46/// /2817 10073 21045 30059 40127 55023;
0101476660999992000021821004+34600+138850FM-12+005699999V0200501N002119999999N9999999N1+00431-00261101831ADDMA1999999101141MD1210021+9999REMSYN060AAXX  18214 47666 46/// /0504 10043 21026 30114 40183 52002;
0101476660999992000021913004+34600+138850FM-12+005699999V0203001N001019999999N9999999N1+00761+00111101401ADDMA1999999100721MD1810131+9999REMSYN060AAXX  19134 47666 46/// /3002 10076 20011 30072 40140 58013;
0101476660999992000021915004+34600+138850FM-12+005699999V0203201N001019999999N9999999N1+00701+00111101231ADDMA1999999100551MD1610261+9999REMSYN060AAXX  19154 47666 46/// /3202 10070 20011 30055 40123 56026;
0101476660999992000022605004+34600+138850FM-12+005699999V0202801N002619999999N9999999N1+00731-00171101291ADDMA1999999100611MD1810311+9999REMSYN060AAXX  26054 47666 46/// /2805 10073 21017 30061 40129 58031;
0154476660999992000022712004+34600+138850FM-12+005699999V0203101N004119999999N9999999N1+00621-00101101471ADDAA199000091KA1999M+00931MA1999999100781MD1110131+9999REMSYN070AAXX  27124 47666 36/// /3108 10062 21010 30078 40147 51013 333 10093;EQDQ01  00002PRCP99
0154476660999992000030112004+34600+138850FM-12+005699999V0202201N001019999999N9999999N1+00701-00161102531ADDAA199000091KA1999M+01131MA1999999101841MD1110041+9999REMSYN070AAXX  01124 47666 36/// /2202 10070 21016 30184 40253 51004 333 10113;EQDQ01  00002PRCP99
0101476660999992000030908004+34600+138850FM-12+005699999V0202701N010819999999N9999999N1+00711-00511101371ADDMA1999999100691MD1310091+9999REMSYN060AAXX  09084 47666 46/// /2721 10071 21051 30069 40137 53009;
0101476660999992000031307004+34600+138850FM-12+005699999V0202801N008719999999N9999999N1+01281+00051101141ADDMA1999999100471MD1310071+9999REMSYN060AAXX  13074 47666 46/// /2817 10128 20005 30047 40114 53007;
0101476660999992000040908004+34600+138850FM-12+005699999V0200801N004619999999N9999999N1+01541+00891102371ADDMA1999999101701MD1510101+9999REMSYN060AAXX  09084 47666 46/// /0809 10154 20089 30170 40237 55010;
0101476660999992000040909004+34600+138850FM-12+005699999V0201001N001519999999N9999999N1+01511+00921102361ADDMA1999999101691MD1610081+9999REMSYN060AAXX  09094 47666 46/// /1003 10151 20092 30169 40236 56008;
0101476660999992000041517004+34600+138850FM-12+005699999V0200801N001019999999N9999999N1+00991+00781100231ADDMA1999999099561MD1510001+9999REMSYN060AAXX  15174 47666 46/// /0802 10099 20078 39956 40023 55000;
0101476660999992000042403004+34600+138850FM-12+005699999V0202501N009319999999N9999999N1+01661+00701100531ADDMA1999999099881MD1810111+9999REMSYN060AAXX  24034 47666 46/// /2518 10166 20070 39988 40053 58011;
0101476660999992000043016004+34600+138850FM-12+005699999V0202301N001519999999N9999999N1+01541+01241101291ADDMA1999999100631MD1810141+9999REMSYN060AAXX  30164 47666 46/// /2303 10154 20124 30063 40129 58014;
0101476660999992000050109004+34600+138850FM-12+005699999V0202301N002119999999N9999999N1+01671+01251101011ADDMA1999999100351MD1310011+9999REMSYN060AAXX  01094 47666 46/// /2304 10167 20125 30035 40101 53001;
0101476660999992000050401004+34600+138850FM-12+005699999V0201501N000519999999N9999999N1+01851+01211101211ADDMA1999999100561MD1010011+9999REMSYN060AAXX  04014 47666 46/// /1501 10185 20121 30056 40121 50001;
0101476660999992000050519004+34600+138850FM-12+005699999V0200801N004119999999N9999999N1+01511+01261101971ADDMA1999999101301MD1810011+9999REMSYN060AAXX  05194 47666 46/// /0808 10151 20126 30130 40197 58001;
0101476660999992000051504004+34600+138850FM-12+005699999V0200801N005719999999N9999999N1+02081+01631100931ADDMA1999999100281MD1810141+9999REMSYN060AAXX  15044 47666 46/// /0811 10208 20163 30028 40093 58014;
0101476660999992000051605004+34600+138850FM-12+005699999V0202201N002619999999N9999999N1+02071+01191100951ADDMA1999999100301MD1710081+9999REMSYN060AAXX  16054 47666 46/// /2205 10207 20119 30030 40095 57008;
0101476660999992000052118004+34600+138850FM-12+005699999V0200601N002119999999N9999999N1+01731+01531101531ADDMA1999999100871MD1210011+9999REMSYN060AAXX  21184 47666 46/// /0604 10173 20153 30087 40153 52001;
0101476660999992000052218004+34600+138850FM-12+005699999V0202801N004119999999N9999999N1+01981+01851101331ADDMA1999999100681MD1610121+9999REMSYN060AAXX  22184 47666 46/// /2808 10198 20185 30068 40133 56012;
0208476660999992000052500004+34600+138850FM-12+005699999V0200801N008712200019N0150001N1+02061+01311101411ADDAA199000091GA1001+999999999GF100991001001999999001001KA1999N+01911MA1999999100761MD1110141+9999MW1021REMSYN076AAXX  25004 47666 31965 00817 10206 20131 30076 40141 51014 702// 333 20191;EQDQ01  00002PRCP99
0101476660999992000052716004+34600+138850FM-12+005699999V0202001N007719999999N9999999N1+01951+01871100431ADDMA1999999099781MD1810551+9999REMSYN060AAXX  27164 47666 46/// /2015 10195 20187 39978 40043 58055;
0101476660999992000060103004+34600+138850FM-12+005699999V0202701N003119999999N9999999N1+02381+01931100601ADDMA1999999099961MD1010041+9999REMSYN060AAXX  01034 47666 46/// /2706 10238 20193 39996 40060 50004;
0154476660999992000060412004+34600+138850FM-12+005699999V0200501N001519999999N9999999N1+01941+01551100701ADDAA199000091KA1999M+02471MA1999999100051MD1210171+9999REMSYN070AAXX  04124 47666 36/// /0503 10194 20155 30005 40070 52017 333 10247;EQDQ01  00002PRCP99
0101476660999992000060715004+34600+138850FM-12+005699999V0202801N004619999999N9999999N1+02191+01981100891ADDMA1999999100251MD1010041+9999REMSYN060AAXX  07154 47666 46/// /2809 10219 20198 30025 40089 50004;
0101476660999992000061005004+34600+138850FM-12+005699999V0200801N005119999999N9999999N1+02051+01661101241ADDMA1999999100591MD1310091+9999REMSYN060AAXX  10054 47666 46/// /0810 10205 20166 30059 40124 53009;
0101476660999992000061209004+34600+138850FM-12+005699999V0200801N004119999999N9999999N1+01711+01591100661ADDMA1999999100011MD1610061+9999REMSYN060AAXX  12094 47666 46/// /0808 10171 20159 30001 40066 56006;
0101476660999992000061622004+34590+138850FM-12+005699999V0202801N002619999999N9999999N1+02131+02001101481ADDMA1999999100831MD1810021+9999REMSYN060AAXX  16224 47666 46/// /2805 10213 20200 30083 40148 58002;
0101476660999992000061916004+34590+138850FM-12+005699999V0202801N002119999999N9999999N1+02061+01911101011ADDMA1999999100361MD1810081+9999REMSYN060AAXX  19164 47666 46/// /2804 10206 20191 30036 40101 58008;
0101476660999992000062205004+34590+138850FM-12+005699999V0200801N005119999999N9999999N1+02521+01931100901ADDMA1999999100261MD1810021+9999REMSYN060AAXX  22054 47666 46/// /0810 10252 20193 30026 40090 58002;
0171476660999992000062306004+34590+138850FM-12+005699999V0200801N005719999999N0060001N1+02121+01911100691ADDAY121061AY221061GF108991071021999999071999MA1999999100051MD1610081+9999MW1101REMSYN082AAXX  23064 47666 41/56 80811 10212 20191 30005 40069 56008 71022 8727/ 555 00220;
0101476660999992000062307004+34590+138850FM-12+005699999V0200801N006219999999N9999999N1+02071+01851100711ADDMA1999999100061MD1510041+9999REMSYN060AAXX  23074 47666 46/// /0812 10207 20185 30006 40071 55004;
0171476660999992000062906004+34590+138850FM-12+005699999V0202201N003619999999N0100001N1+02421+02341100831ADDAY181061AY221061GF107991051021999999071999MA1999999100191MD1610061+9999MW1021REMSYN082AAXX  29064 47666 41/60 72207 10242 20234 30019 40083 56006 70282 8527/ 555 00250;
0101476660999992000070111004+34590+138850FM-12+005699999V0202701N004119999999N9999999N1+02441+02331101411ADDMA1999999100771MD1210091+9999REMSYN060AAXX  01114 47666 46/// /2708 10244 20233 30077 40141 52009;
0101476660999992000070716004+34590+138850FM-12+005699999V0200301N007719999999N9999999N1+02191+02081098081ADDMA1999999097451MD1810881+9999REMSYN060AAXX  07164 47666 46/// /0315 10219 20208 39745 49808 58088;
0171476660999992000071306004+34590+138850FM-12+005699999V0202701N002619999999N0004001N1+02481+02361100671ADDAY141061AY241061GF108991081021999999999999MA1999999100031MD1510001+9999MW1441REMSYN082AAXX  13064 47666 41/04 82705 10248 20236 30003 40067 55000 74444 882// 555 00260;
0101476660999992000071902004+34590+138850FM-12+005699999V0200901N002619999999N9999999N1+02621+02421100941ADDMA1999999100311MD1010011+9999REMSYN060AAXX  19024 47666 46/// /0905 10262 20242 30031 40094 50001;
0101476660999992000072208004+34590+138850FM-12+005699999V0202501N002619999999N9999999N1+02731+02321100021ADDMA1999999099391MD1510001+9999REMSYN060AAXX  22084 47666 46/// /2505 10273 20232 39939 40002 55000;
0101476660999992000072715004+34590+138850FM-12+005699999V0209999C000019999999N9999999N1+02321+02221101131ADDMA1999999100491MD1810041+9999REMSYN060AAXX  27154 47666 46/// /0000 10232 20222 30049 40113 58004;
0101476660999992000072909004+34590+138850FM-12+005699999V0202601N001519999999N9999999N1+02681+02461101041ADDMA1999999100411MD1110041+9999REMSYN060AAXX  29094 47666 46/// /2603 10268 20246 30041 40104 51004;
0154476660999992000080312004+34590+138850FM-12+005699999V0202701N002619999999N9999999N1+02581+02361101461ADDAA199000091KA1999M+02981MA1999999100821MD1110081+9999REMSYN070AAXX  03124 47666 36/// /2705 10258 20236 30082 40146 51008 333 10298;EQDQ01  00002PRCP99
0101476660999992000080910004+34590+138850FM-12+005699999V0202801N001019999999N9999999N1+02631+02261101241ADDMA1999999100601MD1510021+9999REMSYN060AAXX  09104 47666 46/// /2802 10263 20226 30060 40124 55002;
0101476660999992000081410004+34590+138850FM-12+005699999V0209999C000019999999N9999999N1+02481+02181100411ADDMA1999999099781MD1310071+9999REMSYN060AAXX  14104 47666 46/// /0000 10248 20218 39978 40041 53007;
0101476660999992000082108004+34590+138850FM-12+005699999V0202501N003119999999N9999999N1+02781+02491101161ADDMA1999999100531MD1310031+9999REMSYN060AAXX  21084 47666 46/// /2506 10278 20249 30053 40116 53003;
0101476660999992000082401004+34590+138850FM-12+005699999V0200801N005119999999N9999999N1+02801+02451101451ADDMA1999999100821MD1810021+9999REMSYN060AAXX  24014 47666 46/// /0810 10280 20245 30082 40145 58002;
0101476660999992000082713004+34590+138850FM-12+005699999V0202401N001019999999N9999999N1+02621+02351101731ADDMA1999999101091MD1010101+9999REMSYN060AAXX  27134 47666 46/// /2402 10262 20235 30109 40173 50010;
0101476660999992000083021004+34590+138850FM-12+005699999V0200801N004119999999N9999999N1+02571+02361101511ADDMA1999999100871MD1010061+9999REMSYN060AAXX  30214 47666 46/// /0808 10257 20236 30087 40151 50006;
0101476660999992000090717004+34590+138850FM-12+005699999V0200701N002119999999N9999999N1+02381+02271101421ADDMA1999999100781MD1110031+9999REMSYN060AAXX  07174 47666 46/// /0704 10238 20227 30078 40142 51003;
0185476660999992000091000004+34590+138850FM-12+005699999V0202301N001519999999N0300001N1+02801+02461101211ADDAA112000791GF107991051021999999001021KA1999N+02471MA1999999100581MD1310041+9999MW1021REMSYN088AAXX  10004 47666 11/80 72303 10280 20246 30058 40121 53004 69902 702// 85202 333 20247;
0101476660999992000091604004+34590+138850FM-12+005699999V0201101N001519999999N9999999N1+02901+02541100821ADDMA1999999100191MD1810081+9999REMSYN060AAXX  16044 47666 46/// /1103 10290 20254 30019 40082 58008;
0101476660999992000092103004+34590+138850FM-12+005699999V0200801N008719999999N9999999N1+02551+01511102241ADDMA1999999101601MD1810081+9999REMSYN060AAXX  21034 47666 46/// /0817 10255 20151 30160 40224 58008;
0154476660999992000092212004+34590+138850FM-12+005699999V0200801N002619999999N9999999N1+02341+01821101781ADDAA199000091KA1999M+02621MA1999999101131MD1810031+9999REMSYN070AAXX  22124 47666 36/// /0805 10234 20182 30113 40178 58003 333 10262;EQDQ01  00002PRCP99
0101476660999992000092501004+34590+138850FM-12+005699999V0200801N004119999999N9999999N1+02531+02041100881ADDMA1999999100241MD1110041+9999REMSYN060AAXX  25014 47666 46/// /0808 10253 20204 30024 40088 51004;
0101476660999992000092807004+34590+138850FM-12+005699999V0202501N001519999999N9999999N1+02401+01551101381ADDMA1999999100741MD1310051+9999REMSYN060AAXX  28074 47666 46/// /2503 10240 20155 30074 40138 53005;
0101476660999992000100213004+34590+138850FM-12+005699999V0200801N004119999999N9999999N1+01981+01691100821ADDMA1999999100171MD1810171+9999REMSYN060AAXX  02134 47666 46/// /0808 10198 20169 30017 40082 58017;
0154476660999992000101412004+34590+138850FM-12+005699999V0200801N003619999999N9999999N1+02121+01601102051ADDAA199000091KA1999M+02241MA1999999101401MD1210161+9999REMSYN070AAXX  14124 47666 36/// /0807 10212 20160 30140 40205 52016 333 10224;EQDQ01  00002PRCP99
0101476660999992000101922004+34590+138850FM-12+005699999V0200701N006719999999N9999999N1+01951+01461102131ADDMA1999999101471MD1310031+9999REMSYN060AAXX  19224 47666 46/// /0713 10195 20146 30147 40213 53003;
0101476660999992000102001004+34590+138850FM-12+005699999V0200801N006719999999N9999999N1+02031+01511102041ADDMA1999999101381MD1810091+9999REMSYN060AAXX  20014 47666 46/// /0813 10203 20151 30138 40204 58009;
0101476660999992000102211004+34590+138850FM-12+005699999V0200801N003619999999N9999999N1+01921+01311102301ADDMA1999999101641MD1110131+9999REMSYN060AAXX  22114 47666 46/// /0807 10192 20131 30164 40230 51013;
0101476660999992000102422004+34590+138850FM-12+005699999V0200801N003119999999N9999999N1+01811+01131101941ADDMA1999999101281MD1510041+9999REMSYN060AAXX  24224 47666 46/// /0806 10181 20113 30128 40194 55004;
0198476660999992000102500004+34590+138850FM-12+005699999V0200901N002119999999N0400001N1+01961+01521101921ADDAA199000091GF108991081001999999071999KA1999N+01681MA1999999101261MD1510001+9999MW1021REMSYN082AAXX  25004 47666 31/82 80904 10196 20152 30126 40192 55000 702// 8807/ 333 20168;EQDQ01  00002PRCP99
0101476660999992000102518004+34590+138850FM-12+005699999V0202601N004119999999N9999999N1+02101+02001101161ADDMA1999999100511MD1810171+9999REMSYN060AAXX  25184 47666 46/// /2608 10210 20200 30051 40116 58017;
0101476660999992000102918004+34590+138850FM-12+005699999V0209999C000019999999N9999999N1+01521+01321100891ADDMA1999999100231MD1810051+9999REMSYN060AAXX  29184 47666 46/// /0000 10152 20132 30023 40089 58005;
0101476660999992000110221004+34590+138850FM-12+005699999V0200801N005719999999N9999999N1+01631+01281101531ADDMA1999999100871MD1310231+9999REMSYN060AAXX  02214 47666 46/// /0811 10163 20128 30087 40153 53023;
0101476660999992000110308004+34590+138850FM-12+005699999V0200401N001519999999N9999999N1+01561+01401101971ADDMA1999999101301MD1110211+9999REMSYN060AAXX  03084 47666 46/// /0403 10156 20140 30130 40197 51021;
0101476660999992000110321004+34590+138850FM-12+005699999V0200701N007719999999N9999999N1+01551+01071102171ADDMA1999999101501MD1110061+9999REMSYN060AAXX  03214 47666 46/// /0715 10155 20107 30150 40217 51006;
0101476660999992000110415004+34590+138850FM-12+005699999V0200901N004119999999N9999999N1+01681+00971101931ADDMA1999999101271MD1810121+9999REMSYN060AAXX  04154 47666 46/// /0908 10168 20097 30127 40193 58012;
0101476660999992000110704004+34590+138850FM-12+005699999V0200801N002119999999N9999999N1+02131+01681101781ADDMA1999999101131MD1610181+9999REMSYN060AAXX  07044 47666 46/// /0804 10213 20168 30113 40178 56018;
0101476660999992000111409004+34590+138850FM-12+005699999V0200501N001519999999N9999999N1+01541+01131102721ADDMA1999999102051MD1110051+9999REMSYN060AAXX  14094 47666 46/// /0503 10154 20113 30205 40272 51005;
0141476660999992000112012004+34590+138850FM-12+005699999V0201801N008719999999N9999999N1+02021+01861101261ADDAA112011991KA1999M+02021MA1999999100611MD1810311+9999REMSYN076AAXX  20124 47666 16/// /1817 10202 20186 30061 40126 58031 60122 333 10202;
0101476660999992000112103004+34590+138850FM-12+005699999V0202701N005119999999N9999999N1+01911+01201100811ADDMA1999999100161MD1810071+9999REMSYN060AAXX  21034 47666 46/// /2710 10191 20120 30016 40081 58007;
0101476660999992000112322004+34590+138850FM-12+005699999V0200701N002119999999N9999999N1+01061+00751102331ADDMA1999999101651MD1310111+9999REMSYN060AAXX  23224 47666 46/// /0704 10106 20075 30165 40233 53011;
0101476660999992000112911004+34590+138850FM-12+005699999V0200201N003119999999N9999999N1+00941+00301102251ADDMA1999999101571MD1110021+9999REMSYN060AAXX  29114 47666 46/// /0206 10094 20030 30157 40225 51002;
0171476660999992000120106004+34590+138850FM-12+005699999V0200801N003119999999N0300001N1+00941+00551102051ADDAY181061AY221061GF107991021021999999071011MA1999999101371MD1710081+9999MW1021REMSYN082AAXX  01064 47666 41/80 70806 10094 20055 30137 40205 57008 70282 82271 555 00115;
0101476660999992000120214004+34590+138850FM-12+005699999V0200301N003119999999N9999999N1+01001+00181102241ADDMA1999999101561MD1610121+9999REMSYN060AAXX  02144 47666 46/// /0306 10100 20018 30156 40224 56012;
0101476660999992000120510004+34590+138850FM-12+005699999V0202801N009319999999N9999999N1+01331+00291101101ADDMA1999999100431MD1010141+9999REMSYN060AAXX  05104 47666 46/// /2818 10133 20029 30043 40110 50014;
0101476660999992000121202004+34590+138850FM-12+005699999V0202801N007719999999N9999999N1+00951-00221101421ADDMA1999999100741MD1010021+9999REMSYN060AAXX  12024 47666 46/// /2815 10095 21022 30074 40142 50002;
0198476660999992000121300004+34590+138850FM-12+005699999V0202701N006712200019N0600001N1+00921+00061101801ADDAA199000091GF104991041021999999031001KA1999N+00731MA1999999101121MD1310121+9999MW1021REMSYN082AAXX  13004 47666 31/86 42713 10092 20006 30112 40180 53012 702// 84230 333 20073;EQDQ01  00002PRCP99
0101476660999992000121908004+34590+138850FM-12+005699999V0202701N009319999999N9999999N1+01511+00361101131ADDMA1999999100471MD1110091+9999REMSYN060AAXX  19084 47666 46/// /2718 10151 20036 30047 40113 51009;
0101476660999992000122505004+34590+138850FM-12+005699999V0202701N007219999999N9999999N1+01101+00771100291ADDMA1999999099621MD1610661+9999REMSYN060AAXX  25054 47666 46/// /2714 10110 20077 39962 40029 56066;
0101476660999992000122822004+34590+138850FM-12+005699999V0200601N002119999999N9999999N1+00651-00041102241ADDMA1999999101551MD1210091+9999REMSYN060AAXX  28224 47666 46/// /0604 10065 21004 30155 40224 52009;
0101476660999992000122918004+34590+138850FM-12+005699999V0200701N003119999999N9999999N1+00621-00271102391ADDMA1999999101701MD1010021+9999REMSYN060AAXX  29184 47666 46/// /0706 10062 21027 30170 40239 50002;
0101476680999992000010807004+35050+139100FM-12+006899999V0202401N003619999999N9999999N1+01121+00221101561ADDMA1999999100741MD1810021+9999REMSYN060AAXX  08074 47668 46/// /2407 10112 20022 30074 40156 58002;
0101476680999992000010909004+35050+139100FM-12+006899999V0200401N001519999999N9999999N1+01181+00421102241ADDMA1999999101421MD1110181+9999REMSYN060AAXX  09094 47668 46/// /0403 10118 20042 30142 40224 51018;
0101476680999992000011011004+35050+139100FM-12+006899999V0202001N001019999999N9999999N1+01071+00851101111ADDMA1999999100291MD1110241+9999REMSYN060AAXX  10114 47668 46/// /2002 10107 20085 30029 40111 51024;
0105476680999992000011723004+35050+139100FM-12+006899999V0202301N001019999999N9999999N1+00631+00241101371ADDMA1999999100541MD1310211+9999REMSYN064    AAXX  17234 47668 46/// /2302 10063 20024 30054 40137 53021;
0105476680999992000011822004+35050+139100FM-12+006899999V0200201N004619999999N9999999N1+00511+00201101571ADDMA1999999100731MD1310081+9999REMSYN064    AAXX  18224 47668 46/// /0209 10051 20020 30073 40157 53008;
0101476680999992000013003004+35050+139100FM-12+006899999V0202301N006219999999N9999999N1+01401-00091101981ADDMA1999999101161MD1810441+9999REMSYN060AAXX  30034 47668 46/// /2312 10140 21009 30116 40198 58044;
0101476680999992000020102004+35050+139100FM-12+006899999V0201801N001019999999N9999999N1+00671+00001102361ADDMA1999999101521MD1810091+9999REMSYN060AAXX  01024 47668 46/// /1802 10067 20000 30152 40236 58009;
0101476680999992000020722004+35050+139100FM-12+006899999V0202401N005719999999N9999999N1+00861-00211099981ADDMA1999999099161MD1610201+9999REMSYN060AAXX  07224 47668 46/// /2411 10086 21021 39916 49998 56020;
0101476680999992000021101004+35050+139100FM-12+006899999V0202501N003119999999N9999999N1+00791-00281101291ADDMA1999999100461MD1810111+9999REMSYN060AAXX  11014 47668 46/// /2506 10079 21028 30046 40129 58011;
0101476680999992000021402004+35050+139100FM-12+006899999V0200101N002119999999N9999999N1+00791-00181101111ADDMA1999999100281MD1810241+9999REMSYN060AAXX  14024 47668 46/// /0104 10079 21018 30028 40111 58024;
0101476680999992000022105004+35050+139100FM-12+006899999V0203501N001519999999N9999999N1+01001-00491100371ADDMA1999999099551MD1610131+9999REMSYN060AAXX  21054 47668 46/// /3503 10100 21049 39955 40037 56013;
0101476680999992000022701004+35050+139100FM-12+006899999V0200201N000519999999N9999999N1+00691+00211101141ADDMA1999999100311MD1010061+9999REMSYN060AAXX  27014 47668 46/// /0201 10069 20021 30031 40114 50006;
0101476680999992000022704004+35050+139100FM-12+006899999V0202501N005719999999N9999999N1+01031-00311100971ADDMA1999999100151MD1810161+9999REMSYN060AAXX  27044 47668 46/// /2511 10103 21031 30015 40097 58016;
0154476680999992000022812004+35050+139100FM-12+006899999V0202501N006719999999N9999999N1+00561-00571101201ADDAA199000091KA1999M+01061MA1999999100361MD1210101+9999REMSYN070AAXX  28124 47668 36/// /2513 10056 21057 30036 40120 52010 333 10106;EQDQ01  00002PRCP99
0101476680999992000030204004+35050+139100FM-12+006899999V0200701N002619999999N9999999N1+00931-00111102021ADDMA1999999101191MD1810291+9999REMSYN060AAXX  02044 47668 46/// /0705 10093 21011 30119 40202 58029;
0101476680999992000030508004+35050+139100FM-12+006899999V0200201N000519999999N9999999N1+01281+00411100891ADDMA1999999100081MD1110031+9999REMSYN060AAXX  05084 47668 46/// /0201 10128 20041 30008 40089 51003;
0101476680999992000030820004+35050+139100FM-12+006899999V0202401N006219999999N9999999N1+00331-00601101181ADDMA1999999100341MD1510001+9999REMSYN060AAXX  08204 47668 46/// /2412 10033 21060 30034 40118 55000;
0101476680999992000032009004+35050+139100FM-12+006899999V0202201N002619999999N9999999N1+01081-00251101111ADDMA1999999100291MD1110281+9999REMSYN060AAXX  20094 47668 46/// /2205 10108 21025 30029 40111 51028;
0101476680999992000032204004+35050+139100FM-12+006899999V0201101N002119999999N9999999N1+01191+00141101651ADDMA1999999100831MD1610011+9999REMSYN060AAXX  22044 47668 46/// /1104 10119 20014 30083 40165 56001;
0101476680999992000032613004+35050+139100FM-12+006899999V0202401N007719999999N9999999N1+00711-00821101261ADDMA1999999100431MD1110161+9999REMSYN060AAXX  26134 47668 46/// /2415 10071 21082 30043 40126 51016;
0101476680999992000032801004+35050+139100FM-12+006899999V0200301N002619999999N9999999N1+01241+00801101921ADDMA1999999101101MD1810041+9999REMSYN060AAXX  28014 47668 46/// /0305 10124 20080 30110 40192 58004;
0101476680999992000032819004+35050+139100FM-12+006899999V0202301N005119999999N9999999N1+01551+00821100071ADDMA1999999099271MD1610211+9999REMSYN060AAXX  28194 47668 46/// /2310 10155 20082 39927 40007 56021;
0101476680999992000040104004+35050+139100FM-12+006899999V0201101N003119999999N9999999N1+01371+00011101151ADDMA1999999100341MD1110071+9999REMSYN060AAXX  01044 47668 46/// /1106 10137 20001 30034 40115 51007;
0101476680999992000040918004+35050+139100FM-12+006899999V0201301N000519999999N9999999N1+01351+00701102071ADDMA1999999101251MD1810251+9999REMSYN060AAXX  09184 47668 46/// /1301 10135 20070 30125 40207 58025;
0101476680999992000041010004+35050+139100FM-12+006899999V0203401N002119999999N9999999N1+01461+01421100531ADDMA1999999099731MD1610351+9999REMSYN060AAXX  10104 47668 46/// /3404 10146 20142 39973 40053 56035;
0101476680999992000041309004+35050+139100FM-12+006899999V0202301N001519999999N9999999N1+01761+00061100721ADDMA1999999099931MD1310071+9999REMSYN060AAXX  13094 47668 46/// /2303 10176 20006 39993 40072 53007;
0101476680999992000041315004+35050+139100FM-12+006899999V0202101N000519999999N9999999N1+01361+00701100911ADDMA1999999100101MD1810031+9999REMSYN060AAXX  13154 47668 46/// /2101 10136 20070 30010 40091 58003;
0101476680999992000042010004+35050+139100FM-12+006899999V0200201N012319999999N9999999N1+01381+01121101391ADDMA1999999100581MD1110301+9999REMSYN060AAXX  20104 47668 46/// /0224 10138 20112 30058 40139 51030;
0101476680999992000042014004+35050+139100FM-12+006899999V0200201N007219999999N9999999N1+01361+01091101471ADDMA1999999100661MD1310031+9999REMSYN060AAXX  20144 47668 46/// /0214 10136 20109 30066 40147 53003;
0190476680999992000042106004+35050+139100FM-12+006899999V0201401N000510075019N0100001N1+01541+01421100931ADDAY181061AY221061GF108991081021008001999999KA1150M+01551MA1999999100131MD1710311+9999MW1811REMSYN088AAXX  21064 47668 41560 81401 10154 20142 30013 40093 57031 78182 882// 555 00155 4//03;
0101476680999992000042310004+35050+139100FM-12+006899999V0202501N011319999999N9999999N1+01701-00221099891ADDMA1999999099101MD1310241+9999REMSYN060AAXX  23104 47668 46/// /2522 10170 21022 39910 49989 53024;
0101476680999992000042517004+35050+139100FM-12+006899999V0202501N006219999999N9999999N1+01591+00791101011ADDMA1999999100211MD1310101+9999REMSYN060AAXX  25174 47668 46/// /2512 10159 20079 30021 40101 53010;
0101476680999992000050702004+35050+139100FM-12+006899999V0203001N003619999999N9999999N1+02191+01631101911ADDMA1999999101121MD1710101+9999REMSYN060AAXX  07024 47668 46/// /3007 10219 20163 30112 40191 57010;
0101476680999992000050801004+35050+139100FM-12+006899999V0201501N003119999999N9999999N1+02011+01631101731ADDMA1999999100941MD1810081+9999REMSYN060AAXX  08014 47668 46/// /1506 10201 20163 30094 40173 58008;
0162476680999992000051006004+35050+139100FM-12+006899999V0201201N002110090019N0150001N1+01801+01521101531ADDGF108991081081004501999999KA1150M+02031MA1999999100731MD1510091+9999REMSYN082AAXX  10064 47668 42465 81204 10180 20152 30073 40153 55009 888// 555 00203 4//01;
0101476680999992000052209004+35050+139100FM-12+006899999V0202001N002619999999N9999999N1+02071+01481101421ADDMA1999999100631MD1610031+9999REMSYN060AAXX  22094 47668 46/// /2005 10207 20148 30063 40142 56003;
0101476680999992000053023004+35050+139100FM-12+006899999V0202601N001519999999N9999999N1+02281+01651100831ADDMA1999999100051MD1010001+9999REMSYN060AAXX  30234 47668 46/// /2603 10228 20165 30005 40083 50000;
0141476680999992000060812004+35050+139100FM-12+006899999V0209999C000019999999N9999999N1+02061+02051100521ADDAA112007191KA1999M+02941MA1999999099741MD1810111+9999REMSYN076AAXX  08124 47668 16/// /0000 10206 20205 39974 40052 58011 60072 333 10294;
0101476680999992000060903004+35050+139100FM-12+006899999V0202301N008719999999N9999999N1+02371+02091099921ADDMA1999999099151MD1510031+9999REMSYN060AAXX  09034 47668 46/// /2317 10237 20209 39915 49992 55003;
0101476680999992000061219004+35050+139100FM-12+006899999V0201201N001519999999N9999999N1+01631+01571100571ADDMA1999999099771MD1510051+9999REMSYN060AAXX  12194 47668 46/// /1203 10163 20157 39977 40057 55005;
0101476680999992000062317004+35500+139100FM-12+006899999V0209999C000019999999N9999999N1+01931+01921100791ADDMA1999999100001MD1810081+9999REMSYN060AAXX  23174 47668 46/// /0000 10193 20192 30000 40079 58008;
0101476680999992000062621004+35500+139100FM-12+006899999V0209999C000019999999N9999999N1+02051+01961101241ADDMA1999999100451MD1010001+9999REMSYN060AAXX  26214 47668 46/// /0000 10205 20196 30045 40124 50000;
0101476680999992000062803004+35500+139100FM-12+006899999V0202501N008719999999N9999999N1+02281+02151100231ADDMA1999999099461MD1610151+9999REMSYN060AAXX  28034 47668 46/// /2517 10228 20215 39946 40023 56015;
0101476680999992000070111004+35500+139100FM-12+006899999V0202201N002619999999N9999999N1+02631+02281101281ADDMA1999999100511MD1310221+9999REMSYN060AAXX  01114 47668 46/// /2205 10263 20228 30051 40128 53022;
0101476680999992000070210004+35500+139100FM-12+006899999V0203201N001019999999N9999999N1+02511+02361101301ADDMA1999999100521MD1310181+9999REMSYN060AAXX  02104 47668 46/// /3202 10251 20236 30052 40130 53018;
0101476680999992000071610004+35500+139100FM-12+006899999V0203101N000519999999N9999999N1+02761+02371101031ADDMA1999999100261MD1310031+9999REMSYN060AAXX  16104 47668 46/// /3101 10276 20237 30026 40103 53003;
0101476680999992000071802004+35050+139100FM-12+006899999V0200401N001519999999N9999999N1+02691+02351100661ADDMA1999999099891MD1610051+9999REMSYN060AAXX  18024 47668 46/// /0403 10269 20235 39989 40066 56005;
0101476680999992000072113004+35050+139100FM-12+006899999V0200801N001519999999N9999999N1+02691+02141100391ADDMA1999999099631MD1010071+9999REMSYN060AAXX  21134 47668 46/// /0803 10269 20214 39963 40039 50007;
0101476680999992000072115004+35050+139100FM-12+006899999V0202101N001019999999N9999999N1+02561+02151100301ADDMA1999999099531MD1610131+9999REMSYN060AAXX  21154 47668 46/// /2102 10256 20215 39953 40030 56013;
0203476680999992000073000004+35050+139100FM-12+006899999V0202701N002110075019N0500001N1+02881+02411101041ADDAA112000791AY181061GF106991061021008001001001KA1120N+02551MA1999999100281MD1110051+9999MW1021REMSYN098AAXX  30004 47668 11584 62704 10288 20241 30028 40104 51005 69902 7028/ 86200 333 20255 555 4//01;
0101476680999992000080201004+35050+139100FM-12+006899999V0202601N004119999999N9999999N1+03051+02381101301ADDMA1999999100541MD1810031+9999REMSYN060AAXX  02014 47668 46/// /2608 10305 20238 30054 40130 58003;
0101476680999992000080215004+35050+139100FM-12+006899999V0202101N001519999999N9999999N1+02661+02151101311ADDMA1999999100541MD1710041+9999REMSYN060AAXX  02154 47668 46/// /2103 10266 20215 30054 40131 57004;
0101476680999992000080616004+35050+139100FM-12+006899999V0202001N001519999999N9999999N1+02421+02241101341ADDMA1999999100561MD1810131+9999REMSYN060AAXX  06164 47668 46/// /2003 10242 20224 30056 40134 58013;
0101476680999992000081004004+35050+139100FM-12+006899999V0201301N001519999999N9999999N1+03081+02381101001ADDMA1999999100241MD1810161+9999REMSYN060AAXX  10044 47668 46/// /1303 10308 20238 30024 40100 58016;
0101476680999992000081922004+35050+139100FM-12+006899999V0209999C000019999999N9999999N1+02391+02191100981ADDMA1999999100201MD1110121+9999REMSYN060AAXX  19224 47668 46/// /0000 10239 20219 30020 40098 51012;
0101476680999992000082322004+35050+139100FM-12+006899999V0200401N001019999999N9999999N1+02601+02481101491ADDMA1999999100711MD1110111+9999REMSYN060AAXX  23224 47668 46/// /0402 10260 20248 30071 40149 51011;
0101476680999992000083019004+35050+139100FM-12+006899999V0201601N001019999999N9999999N1+02581+02421101501ADDMA1999999100721MD1610091+9999REMSYN060AAXX  30194 47668 46/// /1602 10258 20242 30072 40150 56009;
0203476680999992000083100004+35050+139100FM-12+006899999V0200501N002110042019N0200001N1+02431+02411101611ADDAA112032091AY181061GF108991081021004501999999KA1120N+02321MA1999999100831MD1010031+9999MW1801REMSYN098AAXX  31004 47668 11470 80504 10243 20241 30083 40161 50003 60322 7808/ 882// 333 20232 555 4//02;
0101476680999992000090314004+35050+139100FM-12+006899999V0202201N002619999999N9999999N1+02391+01811100571ADDMA1999999099801MD1310131+9999REMSYN060AAXX  03144 47668 46/// /2205 10239 20181 39980 40057 53013;
0101476680999992000090315004+35050+139100FM-12+006899999V0201601N001519999999N9999999N1+02321+01941100611ADDMA1999999099831MD1310121+9999REMSYN060AAXX  03154 47668 46/// /1603 10232 20194 39983 40061 53012;
0101476680999992000090413004+35050+139100FM-12+006899999V0200101N006219999999N9999999N1+02171+01621100851ADDMA1999999100071MD1110101+9999REMSYN060AAXX  04134 47668 46/// /0112 10217 20162 30007 40085 51010;
0101476680999992000090919004+35050+139100FM-12+006899999V0201601N001519999999N9999999N1+02521+02221101101ADDMA1999999100331MD1610121+9999REMSYN060AAXX  09194 47668 46/// /1603 10252 20222 30033 40110 56012;
0203476680999992000091300004+35050+139100FM-12+006899999V0203401N001012200019N0250001N1+02651+02401101431ADDAA112000791AY181061GF103991031021008001001001KA1120N+02351MA1999999100661MD1010051+9999MW1011REMSYN098AAXX  13004 47668 11575 33402 10265 20240 30066 40143 50005 69902 7018/ 83200 333 20235 555 4//01;
0101476680999992000091311004+35050+139100FM-12+006899999V0200201N002619999999N9999999N1+02471+02361101481ADDMA1999999100701MD1210121+9999REMSYN060AAXX  13114 47668 46/// /0205 10247 20236 30070 40148 52012;
0101476680999992000092605004+35050+139100FM-12+006899999V0200201N005719999999N9999999N1+02161+01641100881ADDMA1999999100101MD1510041+9999REMSYN060AAXX  26054 47668 46/// /0211 10216 20164 30010 40088 55004;
0101476680999992000100201004+35050+139100FM-12+006899999V0200101N003119999999N9999999N1+01901+01651101391ADDMA1999999100591MD1810041+9999REMSYN060AAXX  02014 47668 46/// /0106 10190 20165 30059 40139 58004;
0101476680999992000101313004+35050+139100FM-12+006899999V0202001N001019999999N9999999N1+01561+01291101551ADDMA1999999100741MD1810051+9999REMSYN060AAXX  13134 47668 46/// /2002 10156 20129 30074 40155 58005;
0101476680999992000102016004+35050+139100FM-12+006899999V0202101N001519999999N9999999N1+01731+01721101361ADDMA1999999100561MD1010041+9999REMSYN060AAXX  20164 47668 46/// /2103 10173 20172 30056 40136 50004;
0190476680999992000110106004+35050+139100FM-12+006899999V0209999C000010012019N0030001N1+01621+01601101641ADDAY161061AY221061GF108991081071001501999999KA1150M+01641MA1999999100831MD1610161+9999MW1611REMSYN088AAXX  01064 47668 41230 80000 10162 20160 30083 40164 56016 76162 887// 555 00164 4//01;
0101476680999992000110302004+35050+139100FM-12+006899999V0200101N007719999999N9999999N1+01601+01321101981ADDMA1999999101171MD1010021+9999REMSYN060AAXX  03024 47668 46/// /0115 10160 20132 30117 40198 50002;
0101476680999992000110619004+35050+139100FM-12+006899999V0209999C000019999999N9999999N1+01591+01321102011ADDMA1999999101201MD1710041+9999REMSYN060AAXX  06194 47668 46/// /0000 10159 20132 30120 40201 57004;
0101476680999992000111322004+35050+139100FM-12+006899999V0200201N005719999999N9999999N1+01411+00721103061ADDMA1999999102241MD1310121+9999REMSYN060AAXX  13224 47668 46/// /0211 10141 20072 30224 40306 53012;
0101476680999992000111323004+35050+139100FM-12+006899999V0200201N006219999999N9999999N1+01411+00731103091ADDMA1999999102271MD1310121+9999REMSYN060AAXX  13234 47668 46/// /0212 10141 20073 30227 40309 53012;
0101476680999992000112014004+35050+139100FM-12+006899999V0202501N006719999999N9999999N1+01891+01861101001ADDMA1999999100211MD1610271+9999REMSYN060AAXX  20144 47668 46/// /2513 10189 20186 30021 40100 56027;
0101476680999992000112909004+35050+139100FM-12+006899999V0202001N001019999999N9999999N1+00691+00121102301ADDMA1999999101461MD1110051+9999REMSYN060AAXX  29094 47668 46/// /2002 10069 20012 30146 40230 51005;
0208476680999992000120600004+35050+139100FM-12+006899999V0201301N001012200019N0250001N1+01021+00531101551ADDAA199000091GF102991021011999999001001KA1120N+00731MA1999999100731MD1110171+9999MW1021REMSYN092AAXX  06004 47668 31/75 21302 10102 20053 30073 40155 51017 702// 82100 333 20073 555 4//01;EQDQ01  00002PRCP99
0101476680999992000120615004+35050+139100FM-12+006899999V0201801N000519999999N9999999N1+00771+00281101861ADDMA1999999101031MD1110141+9999REMSYN060AAXX  06154 47668 46/// /1801 10077 20028 30103 40186 51014;
0208476680999992000121000004+35050+139100FM-12+006899999V0202401N008212200019N0500001N1+01341+00701101511ADDAA199000091GF102991011011999999031001KA1120N+01031MA1999999100701MD1810181+9999MW1021REMSYN092AAXX  10004 47668 31/84 22416 10134 20070 30070 40151 58018 702// 81130 333 20103 555 4//01;EQDQ01  00002PRCP99
0101476680999992000121020004+35050+139100FM-12+006899999V0203501N001519999999N9999999N1+01221+00651100761ADDMA1999999099951MD1110291+9999REMSYN060AAXX  10204 47668 46/// /3503 10122 20065 39995 40076 51029;
0101476680999992000121110004+35050+139100FM-12+006899999V0202501N010819999999N9999999N1+01061-00081100651ADDMA1999999099831MD1310121+9999REMSYN060AAXX  11104 47668 46/// /2521 10106 21008 39983 40065 53012;
0101476680999992000121213004+35050+139100FM-12+006899999V0202801N001019999999N9999999N1+00631-00131101591ADDMA1999999100751MD1310111+9999REMSYN060AAXX  12134 47668 46/// /2802 10063 21013 30075 40159 53011;
0101476680999992000121309004+35050+139100FM-12+006899999V0202101N001519999999N9999999N1+00861-00221101801ADDMA1999999100971MD1110141+9999REMSYN060AAXX  13094 47668 46/// /2103 10086 21022 30097 40180 51014;
0208476680999992000121400004+35050+139100FM-12+006899999V0200301N001519999999N0500001N1+00861+00221102181ADDAA199000091GF108991011011999999071999KA1120N+00691MA1999999101351MD1110101+9999MW1021REMSYN092AAXX  14004 47668 31/84 80303 10086 20022 30135 40218 51010 702// 8117/ 333 20069 555 4//01;EQDQ01  00002PRCP99
0154476680999992000121412004+35050+139100FM-12+006899999V0202301N001019999999N9999999N1+00761+00391102001ADDAA199000091KA1999M+00981MA1999999101161MD1310051+9999REMSYN070AAXX  14124 47668 36/// /2302 10076 20039 30116 40200 53005 333 10098;EQDQ01  00002PRCP99
0101476680999992000122203004+35050+139100FM-12+006899999V0200301N004119999999N9999999N1+00801-00171102001ADDMA1999999101171MD1810111+9999REMSYN060AAXX  22034 47668 46/// /0308 10080 21017 30117 40200 58011;
0101476680999992000122315004+35050+139100FM-12+006899999V0202501N009319999999N9999999N1+01311+00301100611ADDMA1999999099801MD1810181+9999REMSYN060AAXX  23154 47668 46/// /2518 10131 20030 39980 40061 58018;
0101476680999992000122323004+35050+139100FM-12+006899999V0201801N002619999999N9999999N1+00981+00051101021ADDMA1999999100201MD1310301+9999REMSYN060AAXX  23234 47668 46/// /1805 10098 20005 30020 40102 53030;
0101476680999992000122502004+35050+139100FM-12+006899999V0202501N006719999999N9999999N1+01051-00101100871ADDMA1999999100051MD1810361+9999REMSYN060AAXX  25024 47668 46/// /2513 10105 21010 30005 40087 58036;
0101476680999992000122610004+35050+139100FM-12+006899999V0202501N011319999999N9999999N1+00561-00321101541ADDMA1999999100701MD1110221+9999REMSYN060AAXX  26104 47668 46/// /2522 10056 21032 30070 40154 51022;
0101476680999992000123116004+35050+139100FM-12+006899999V0209999C000019999999N9999999N1+01031+00601099951ADDMA1999999099141MD1510051+9999REMSYN060AAXX  31164 47668 46/// /0000 10103 20060 39914 49995 55005;
0101476700999992000010110004+35430+139650FM-12+004299999V0200101N004619999999N9999999N1+00841-00441102101ADDMA1999999101591MD1110141+9999REMSYN060AAXX  01104 47670 46/// /0109 10084 21044 30159 40210 51014;
0143476700999992000010206004+35430+139650FM-12+004299999V0200401N001519999999N0300001N1+00781-00281101811ADDGF108991081051999999999999MA1999999101301MD1610141+9999REMSYN076AAXX  02064 47670 42/80 80403 10078 21028 30130 40181 56014 885// 555 00082;
0143476700999992000010418004+35430+139650FM-12+004299999V0203601N003112200019N0300001N1+00661-00281102271ADDGA1001+999999999GF100991001001999999001001MA1999999101751MD1210061+9999REMSYN060AAXX  04184 47670 42980 03606 10066 21028 30175 40227 52006;
0101476700999992000010419004+35430+139650FM-12+004299999V0203501N003119999999N9999999N1+00651-00291102271ADDMA1999999101751MD1110051+9999REMSYN060AAXX  04194 47670 46/// /3506 10065 21029 30175 40227 51005;
0101476700999992000010515004+35430+139650FM-12+004299999V0203401N002619999999N9999999N1+00941+00271102401ADDMA1999999101891MD1610081+9999REMSYN060AAXX  05154 47670 46/// /3405 10094 20027 30189 40240 56008;
0101476700999992000011002004+35430+139650FM-12+004299999V0203601N003119999999N9999999N1+00901+00611100861ADDMA1999999100351MD1810381+9999REMSYN060AAXX  10024 47670 46/// /3606 10090 20061 30035 40086 58038;
0101476700999992000011005004+35430+139650FM-12+004299999V0200701N001519999999N9999999N1+01331+00621100661ADDMA1999999100161MD1510191+9999REMSYN060AAXX  10054 47670 46/// /0703 10133 20062 30016 40066 55019;
0101476700999992000011222004+35430+139650FM-12+004299999V0200101N004619999999N9999999N1+00431+00341101341ADDMA1999999100821MD1610301+9999REMSYN060AAXX  12224 47670 46/// /0109 10043 20034 30082 40134 56030;
0101476700999992000011319004+35430+139650FM-12+004299999V0200601N001519999999N9999999N1+00911+00831100391ADDMA1999999099891MD1310011+9999REMSYN060AAXX  13194 47670 46/// /0603 10091 20083 39989 40039 53001;
0105476700999992000011609004+35430+139650FM-12+004299999V0200501N001519999999N9999999N1+00901+00071101921ADDMA1999999101411MD1510021+9999REMSYN064    AAXX  16094 47670 46/// /0503 10090 20007 30141 40192 55002;
0101476700999992000012008004+35430+139650FM-12+004299999V0202801N006219999999N9999999N1+00961-01232100861ADDMA1999999100351MD1310141+9999REMSYN060AAXX  20084 47670 46/// /2812 10096 21123 30035 40086 53014;
0101476700999992000012616004+35430+139650FM-12+004299999V0203601N005119999999N9999999N1+00231-00601101861ADDMA1999999101341MD1310091+9999REMSYN060AAXX  26164 47670 46/// /3610 10023 21060 30134 40186 53009;
0101476700999992000013004004+35430+139650FM-12+004299999V0202401N007719999999N9999999N1+01481-00131101831ADDMA1999999101331MD1610501+9999REMSYN060AAXX  30044 47670 46/// /2415 10148 21013 30133 40183 56050;
0101476700999992000020721004+35430+139650FM-12+004299999V0203601N004119999999N9999999N1+00511-00421100121ADDMA1999999099611MD1610121+9999REMSYN060AAXX  07214 47670 46/// /3608 10051 21042 39961 40012 56012;
0101476700999992000021013004+35430+139650FM-12+004299999V0203601N003619999999N9999999N1+00551-00841101601ADDMA1999999101081MD1110041+9999REMSYN060AAXX  10134 47670 46/// /3607 10055 21084 30108 40160 51004;
0101476700999992000021422004+35430+139650FM-12+004299999V0202701N001519999999N9999999N1+00361+00051099371ADDMA1999999098861MD1610161+9999REMSYN060AAXX  14224 47670 46/// /2703 10036 20005 39886 49937 56016;
0101476700999992000021508004+35430+139650FM-12+004299999V0203501N008219999999N9999999N1+00521-00971099761ADDMA1999999099251MD1110291+9999REMSYN060AAXX  15084 47670 46/// /3516 10052 21097 39925 49976 51029;
0101476700999992000021804004+35430+139650FM-12+004299999V0201101N004119999999N9999999N1+00651-01211101371ADDMA1999999100861MD1810151+9999REMSYN060AAXX  18044 47670 46/// /1108 10065 21121 30086 40137 58015;
0101476700999992000022723004+35430+139650FM-12+004299999V0201101N001519999999N9999999N1+00501-00751101611ADDMA1999999101091MD1010011+9999REMSYN060AAXX  27234 47670 46/// /1103 10050 21075 30109 40161 50001;
0101476700999992000030220004+35430+139650FM-12+004299999V0203001N001519999999N9999999N1+00481-00471102481ADDMA1999999101961MD1310131+9999REMSYN060AAXX  02204 47670 46/// /3003 10048 21047 30196 40248 53013;
0101476700999992000030522004+35430+139650FM-12+004299999V0200301N003119999999N9999999N1+00621+00051101421ADDMA1999999100901MD1110141+9999REMSYN060AAXX  05224 47670 46/// /0306 10062 20005 30090 40142 51014;
0201476700999992000030812004+35430+139650FM-12+004299999V0203501N005112200019N0200001N1+00531-00791101081ADDAA112000791AY161061AY211061GF102991011051999999031001KA1999M+01331MA1999999100561MD1110371+9999MW1011REMSYN088AAXX  08124 47670 11/70 23510 10053 21079 30056 40108 51037 69902 70161 81530 333 10133;
0186476700999992000031012004+35430+139650FM-12+004299999V0203501N005112200019N0200001N1+00571-01141102141ADDAA199000091GF102991021021999999001011KA1999M+00961MA1999999101621MD1110081+9999REMSYN076AAXX  10124 47670 32/70 23510 10057 21114 30162 40214 51008 82201 333 10096;EQDQ01  00002PRCP99
0101476700999992000031303004+35430+139650FM-12+004299999V0202101N004619999999N9999999N1+01281-00351100991ADDMA1999999100491MD1610301+9999REMSYN060AAXX  13034 47670 46/// /2109 10128 21035 30049 40099 56030;
0201476700999992000031600004+35430+139650FM-12+004299999V0200901N003119999999N0030001N1+00671+00551100711ADDAA112003091AY161061AY221061GF108991071071999999021999KA1999N+00481MA1999999100201MD1810591+9999MW1611REMSYN088AAXX  16004 47670 11/30 80906 10067 20055 30020 40071 58059 60032 76162 8772/ 333 20048;
0101476700999992000031610004+35430+139650FM-12+004299999V0203501N003119999999N9999999N1+00701+00411099161ADDMA1999999098661MD1310121+9999REMSYN060AAXX  16104 47670 46/// /3506 10070 20041 39866 49916 53012;
0101476700999992000032402004+35430+139650FM-12+004299999V0200801N004619999999N9999999N1+01511+00561099321ADDMA1999999098831MD1810111+9999REMSYN060AAXX  24024 47670 46/// /0809 10151 20056 39883 49932 58011;
0101476700999992000032403004+35430+139650FM-12+004299999V0202301N004619999999N9999999N1+01671+00271099341ADDMA1999999098861MD1510051+9999REMSYN060AAXX  24034 47670 46/// /2309 10167 20027 39886 49934 55005;
0101476700999992000032705004+35430+139650FM-12+004299999V0201101N005119999999N9999999N1+01301-00211101641ADDMA1999999101141MD1810161+9999REMSYN060AAXX  27054 47670 46/// /1110 10130 21021 30114 40164 58016;
0101476700999992000032916004+35430+139650FM-12+004299999V0202601N004619999999N9999999N1+01081+00211099971ADDMA1999999099471MD1210251+9999REMSYN060AAXX  29164 47670 46/// /2609 10108 20021 39947 49997 52025;
0101476700999992000040508004+35430+139650FM-12+004299999V0203401N005119999999N9999999N1+01171+01081100121ADDMA1999999099621MD1610371+9999REMSYN060AAXX  05084 47670 46/// /3410 10117 20108 39962 40012 56037;
0101476700999992000040620004+35430+139650FM-12+004299999V0203601N002119999999N9999999N1+01021+00671102181ADDMA1999999101671MD1610021+9999REMSYN060AAXX  06204 47670 46/// /3604 10102 20067 30167 40218 56002;
0101476700999992000040802004+35430+139650FM-12+004299999V0203601N005119999999N9999999N1+01891+00351101371ADDMA1999999100881MD1010081+9999REMSYN060AAXX  08024 47670 46/// /3610 10189 20035 30088 40137 50008;
0101476700999992000041109004+35430+139650FM-12+004299999V0201301N003619999999N9999999N1+01311+00401100161ADDMA1999999099661MD1510011+9999REMSYN060AAXX  11094 47670 46/// /1307 10131 20040 39966 40016 55001;
0101476700999992000041619004+35430+139650FM-12+004299999V0203601N005719999999N9999999N1+00871-00111101201ADDMA1999999100691MD1310081+9999REMSYN060AAXX  16194 47670 46/// /3611 10087 21011 30069 40120 53008;
0101476700999992000041909004+35430+139650FM-12+004299999V0202201N004619999999N9999999N1+01771+01081101371ADDMA1999999100881MD1610051+9999REMSYN060AAXX  19094 47670 46/// /2209 10177 20108 30088 40137 56005;
0101476700999992000042107004+35430+139650FM-12+004299999V0203601N002119999999N9999999N1+01481+01351100841ADDMA1999999100341MD1710321+9999REMSYN060AAXX  21074 47670 46/// /3604 10148 20135 30034 40084 57032;
0101476700999992000042108004+35430+139650FM-12+004299999V0203601N003119999999N9999999N1+01481+01371100701ADDMA1999999100201MD1710371+9999REMSYN060AAXX  21084 47670 46/// /3606 10148 20137 30020 40070 57037;
0101476700999992000042204004+35430+139650FM-12+004299999V0201801N005719999999N9999999N1+02251+00931100181ADDMA1999999099701MD1810041+9999REMSYN060AAXX  22044 47670 46/// /1811 10225 20093 39970 40018 58004;
0101476700999992000042309004+35430+139650FM-12+004299999V0203401N001519999999N9999999N1+01981+00081099791ADDMA1999999099311MD1310261+9999REMSYN060AAXX  23094 47670 46/// /3403 10198 20008 39931 49979 53026;
0101476700999992000042419004+35430+139650FM-12+004299999V0202801N003119999999N9999999N1+00911+00581101041ADDMA1999999100531MD1310031+9999REMSYN060AAXX  24194 47670 46/// /2806 10091 20058 30053 40104 53003;
0101476700999992000042710004+35430+139650FM-12+004299999V0201901N002619999999N9999999N1+01731+01261099591ADDMA1999999099111MD1510041+9999REMSYN060AAXX  27104 47670 46/// /1905 10173 20126 39911 49959 55004;
0101476700999992000050416004+35430+139650FM-12+004299999V0200201N002619999999N9999999N1+01441+01001101481ADDMA1999999100981MD1010071+9999REMSYN060AAXX  04164 47670 46/// /0205 10144 20100 30098 40148 50007;
0101476700999992000051016004+35430+139650FM-12+004299999V0200801N002619999999N9999999N1+01411+01161101491ADDMA1999999100991MD1810151+9999REMSYN060AAXX  10164 47670 46/// /0805 10141 20116 30099 40149 58015;
0101476700999992000051222004+35430+139650FM-12+004299999V0201801N001019999999N9999999N1+01781+01681101161ADDMA1999999100671MD1210101+9999REMSYN060AAXX  12224 47670 46/// /1802 10178 20168 30067 40116 52010;
0101476700999992000052116004+35430+139650FM-12+004299999V0200801N003119999999N9999999N1+01631+01411101551ADDMA1999999101051MD1210021+9999REMSYN060AAXX  21164 47670 46/// /0806 10163 20141 30105 40155 52002;
0101476700999992000052319004+35430+139650FM-12+004299999V0202701N002619999999N9999999N1+01891+01611100921ADDMA1999999100431MD1510001+9999REMSYN060AAXX  23194 47670 46/// /2705 10189 20161 30043 40092 55000;
0101476700999992000052508004+35430+139650FM-12+004299999V0202201N004619999999N9999999N1+02201+01461101421ADDMA1999999100941MD1510001+9999REMSYN060AAXX  25084 47670 46/// /2209 10220 20146 30094 40142 55000;
0101476700999992000053111004+35430+139650FM-12+004299999V0201201N001019999999N9999999N1+01861+01761100441ADDMA1999999099951MD1810031+9999REMSYN060AAXX  31114 47670 46/// /1202 10186 20176 39995 40044 58003;
0201476700999992000061000004+35430+139650FM-12+004299999V0200301N002619999999N0080001N1+01871+01561101181ADDAA112000791AY121061AY221061GF108991071051999999071999KA1999N+01831MA1999999100691MD1110101+9999MW1101REMSYN088AAXX  10004 47670 11/58 80305 10187 20156 30069 40118 51010 69902 71022 8757/ 333 20183;
0101476700999992000061122004+35430+139650FM-12+004299999V0200101N001519999999N9999999N1+01611+01501100991ADDMA1999999100501MD1110061+9999REMSYN060AAXX  11224 47670 46/// /0103 10161 20150 30050 40099 51006;
0101476700999992000062503004+35420+139640FM-12+004299999V0203601N004619999999N9999999N1+01931+01761101191ADDMA1999999100701MD1310061+9999REMSYN060AAXX  25034 47670 46/// /3609 10193 20176 30070 40119 53006;
0101476700999992000062514004+35420+139640FM-12+004299999V0203601N003619999999N9999999N1+01701+01481101411ADDMA1999999100921MD1110121+9999REMSYN060AAXX  25144 47670 46/// /3607 10170 20148 30092 40141 51012;
0101476700999992000062710004+35420+139640FM-12+004299999V0202001N003119999999N9999999N1+02261+02031100781ADDMA1999999100301MD1710081+9999REMSYN060AAXX  27104 47670 46/// /2006 10226 20203 30030 40078 57008;
0101476700999992000063013004+35420+139640FM-12+004299999V0202101N004119999999N9999999N1+02461+02191101131ADDMA1999999100651MD1210141+9999REMSYN060AAXX  30134 47670 46/// /2108 10246 20219 30065 40113 52014;
