032772211012842200010030753C+27967-082533FM-15+0006TPA  V0200405N00365220005MN0160005N1+02285+02065101385ADDAA101000095GD11995+0121959GF102991999999999999999999MA1101395999999MW1001REMMET072KTPA 030753Z 04007KT 10SM FEW040 23/21 A2994 RMK AO2 SLP138 T02280206 $;EQDQ01+000000PRSWM2N01 00000JPWTH 0QNNAA1D0 02040BA1 0 01040GA1U0 99999KA1D0 00069JA1 0 00206LA1 0 01000CA1 0 02994NA1 0 00000QA1 0 10138SA1D0 00073RA1 0 00228YA1 0 04007
0054722110128422000100708009+27967-082533NSRDB+000699999V020999999999999999999999999999+99999+99999999999ADDGP10060000002000000002000000002000GR100600000900009
041272211012842200010082253C+27967-082533FM-15+0006TPA  V0203505N00625076205MN0144005N1+02395+02065101565ADDAA101000095GD11995+0121959GD22995+0396259GD33995+0762059GF107991999999999999999999MA1101565999999MW1001REMMET083KTPA 082253Z 35012KT 9SM FEW040 SCT130 BKN250 24/21 A2999 RMK AO2 SLP156 T02390206;EQDQ01+000000PRSWM2N01 00000JPWTH 0QNNAA1D0 02040BA1 0 01040AA1D0 02130BA1 0 02130AA1D0 04250BA1 0 04250GA1 0 00250KA1D0 00069JA1 0 00206LA1 0 00900CA1 0 02999NA1 0 00000QA1 0 10156SA1D0 00075RA1 0 00239YA1 0 35012
0232722110128422000101217534+27970-082520FM-15+0003KTPA V0200601N005110150019N0160931N1+02801+01401102141ADDGD13991+0150019GF107991999999999999999999KA1999M+02781KA2999N+01721MA1102171999999MD1810201+9999MW1001OC101031REMMET091KTPA 121753Z 06010G20KT 10SM BKN050 28/14 A3017 RMK AO2 SLP214 T02780139 10278 20172 58020;EQDQ01+000000PRSWM2
0071722110128422000101522009+27967-082533NSRDB+000699999V020999999999999999999999999999+99999+99999999999ADDGP10060022002008036802015010302008GQ100600716924889GR100600435913769
032772211012842200010180253C+27967-082533FM-15+0006TPA  V0203605N00215220005MN0160005N1+01895+01675101845ADDAA101000095GF100991999999999999999999MA1101865999999MD1110101+9999MW1001REMMET073KTPA 180253Z 36004KT 10SM CLR 19/17 A3008 RMK AO2 SLP184 T01890167 51010;EQDQ01+000000PRSWM2N01 00000JPWTH 0QNNAA1D0 00000BA1 0 00000GA1U0 99999KA1D0 00062JA1 0 00167LA1 0 01000CA1 0 03008NA1 0 00000QA1 0 10184SA1D0 00066RA1 0 00189YA1 0 36004
032572211012842200010201953C+27967-082533FM-15+0006TPA  V0202605N00465220005MN0160005N1+02895+01945101805ADDAA101000095GD12995+0167659GF104991999999999999999999MA1101795999999MW1001REMMET070KTPA 201953Z 26009KT 10SM SCT055 29/19 A3006 RMK AO2 SLP180 T02890194;EQDQ01+000000PRSWM2N01 00000JPWTH 0QNNAA1D0 02055BA1 0 02055GA1U0 99999KA1D0 00067JA1 0 00194LA1 0 01000CA1 0 03006NA1 0 00000QA1 0 10180SA1D0 00084RA1 0 00289YA1 0 26009
0071722110128422000102317009+27967-082533NSRDB+000699999V020999999999999999999999999999+99999+99999999999ADDGP10060071702008065602015022202008GQ100600413916359GR100601039913829
030772211012842200010240753C+27967-082533FM-15+0006TPA  V0200305N00365220005MN0160005N1+02005+01895102275ADDAA101000095GF100991999999999999999999MA1102275999999MW1001REMMET067KTPA 240753Z 03007KT 10SM CLR 20/19 A3020 RMK AO2 SLP227 T02000189;EQDQ01+000000PRSWM2N01 00000JPWTH 0QNNAA1D0 00000BA1 0 00000GA1U0 99999KA1D0 00066JA1 0 00189LA1 0 01000CA1 0 03020NA1 0 00000QA1 0 10227SA1D0 00068RA1 0 00200YA1 0 03007
030772211012842200011010153C+27967-082533FM-15+0006TPA  V0200105N00265220005MN0160005N1+02005+01335102065ADDAA101000095GF100991999999999999999999MA1102075999999MW1001REMMET067KTPA 010153Z 01005KT 10SM CLR 20/13 A3014 RMK AO2 SLP206 T02000133;EQDQ01+000000PRSWM2N01 00000JPWTH 0QNNAA1D0 00000BA1 0 00000GA1U0 99999KA1D0 00056JA1 0 00133LA1 0 01000CA1 0 03014NA1 0 00000QA1 0 10206SA1D0 00068RA1 0 00200YA1 0 01005
034372211012842200011010453C+27967-082533FM-15+0006TPA  V0209999C00005220005MN0160005N1+01835+01225102055ADDAA101000095GF100991999999999999999999KA1999M+02831KA2999N+01781MA1102075999999MW1001REMMET077KTPA 010453Z 00000KT 10SM CLR 18/12 A3014 RMK AO2 SLP205 T01830122 402830178;EQDQ01+000000PRSWM2N01 00000JPWTH 0QNNAA1D0 00000BA1 0 00000GA1U0 99999KA1D0 00054JA1 0 00122LA1 0 01000CA1 0 03014NA1 0 00000QA1 0 10205SA1D0 00065RA1 0 00183YA1 0 00000
0054722110128422000110110009+27967-082533NSRDB+000699999V020999999999999999999999999999+99999+99999999999ADDGP10060000002000000002000000002000GR100600000900009
002772211012842200011040459O+27967-082533SOD  +000699999V020999999999999999999999999999+99999+99999999999ADDAT1MW01FG  5AT2MW13BR  1
0071722110128422000110721009+27967-082533NSRDB+000699999V020999999999999999999999999999+99999+99999999999ADDGP10060029702008028502015017702008GQ100600651923289GR100600586913939
044972211012842200011100453C+27967-082533FM-15+0006TPA  V0201705N00365003055MN0160005N1+02335+02285101215ADDAA101000095GD13995+0030559GD23995+0274359GD33995+0762059GF107991999999999999999999KA1999M+02721KA2999N+02061MA1101225999999MW1001REMMET094KTPA 100453Z 17007KT 10SM BKN010 BKN090 BKN250 23/23 A2989 RMK AO2 SLP121 T02330228 402720206;EQDQ01+000000PRSWM2N01 00000JPWTH 0QNNAA1D0 04010BA1 0 04010AA1D0 04090BA1 0 04090AA1D0 04250BA1 0 04250GA1 0 00010KA1D0 00073JA1 0 00228LA1 0 01000CA1 0 02989NA1 0 00000QA1 0 10121SA1D0 00074RA1 0 00233YA1 0 17007
0203722110128422000111023534+27970-082520FM-15+0003KTPA V0203301N002612200019N0160931N1+01901+01301101401ADDGF100991999999999999999999KA1999M+02611KA2999N+01941MA1101421999999MD1310121+9999MW1001REMMET085KTPA 102353Z 33005KT 10SM CLR 19/13 A2995 RMK AO2 SLP140 T01940133 10261 20194 53012;EQDQ01+000000PRSWM2
034372211012842200011110453C+27967-082533FM-15+0006TPA  V0203305N00215220005MN0160005N1+01785+01505101485ADDAA101000095GF100991999999999999999999KA1999M+02671KA2999N+01671MA1101495999999MW1001REMMET077KTPA 110453Z 33004KT 10SM CLR 18/15 A2997 RMK AO2 SLP148 T01780150 402670167;EQDQ01+000000PRSWM2N01 00000JPWTH 0QNNAA1D0 00000BA1 0 00000GA1U0 99999KA1D0 00059JA1 0 00150LA1 0 01000CA1 0 02997NA1 0 00000QA1 0 10148SA1D0 00064RA1 0 00178YA1 0 33004
0071722110128422000111415009+27967-082533NSRDB+000699999V020999999999999999999999999999+99999+99999999999ADDGP10060007302008000002015007302008GQ100600612913469GR100600673913989
0054722110128422000111711009+27967-082533NSRDB+000699999V020999999999999999999999999999+99999+99999999999ADDGP10060000002000000002000000002000GR100600000900009
041372211012842200011191053C+27967-082533FM-15+0006TPA  V0209999C00005220005MN0160005N1+01675+01505101605ADDAA101000095GD11995+0045759GD22995+0121959GD32995+0762059GF104991999999999999999999MA1101635999999MW1001REMMET084KTPA 191053Z 00000KT 10SM FEW015 SCT040 SCT250 17/15 A3001 RMK AO2 SLP160 T01670150;EQDQ01+000000PRSWM2N01 00000JPWTH 0QNNAA1D0 02015BA1 0 01015AA1D0 02040BA1 0 02040AA1D0 02250BA1 0 02250GA1U0 99999KA1D0 00059JA1 0 00150LA1 0 01000CA1 0 03001NA1 0 00000QA1 0 10160SA1D0 00062RA1 0 00167YA1 0 00000
036972211012842200011211953C+27967-082533FM-15+0006TPA  V0203505N00725220005MN0160005N1+01565+00285102735ADDAA101000095GD11995+0182959GD22995+0762059GF104991999999999999999999MA1102745999999MW1001REMMET077KTPA 211953Z 35014KT 10SM FEW060 SCT250 16/03 A3034 RMK AO2 SLP273 T01560028;EQDQ01+000000PRSWM2N01 00000JPWTH 0QNNAA1D0 02060BA1 0 01060AA1D0 02250BA1 0 02250GA1U0 99999KA1D0 00037JA1 0 00028LA1 0 01000CA1 0 03034NA1 0 00000QA1 0 10273SA1D0 00060RA1 0 00156YA1 0 35014
0203722110128422000112223534+27970-082520FM-15+0003KTPA V0200101N003612200019N0160931N1+01101+00301102711ADDGF100991999999999999999999KA1999M+01831KA2999N+01061MA1102711999999MD1310041+9999MW1001REMMET085KTPA 222353Z 01007KT 10SM CLR 11/03 A3033 RMK AO2 SLP271 T01110033 10183 20106 53004;EQDQ01+000000PRSWM2
0071722110128422000112321009+27967-082533NSRDB+000699999V020999999999999999999999999999+99999+99999999999ADDGP10060010502008000002015010502008GQ100600674922929GR100600540914039
0071722110128422000112323009+27967-082533NSRDB+000699999V020999999999999999999999999999+99999+99999999999ADDGP10060000202008002102015000202008GQ100600869924499GR100600042907849
0054722110128422000112510009+27967-082533NSRDB+000699999V020999999999999999999999999999+99999+99999999999ADDGP10060000002000000002000000002000GR100600000900009
0071722110128422000112720009+27967-082533NSRDB+000699999V020999999999999999999999999999+99999+99999999999ADDGP10060047702008057902015017602008GQ100600588921639GR100600729914059
0071722110128422000113023009+27967-082533NSRDB+000699999V020999999999999999999999999999+99999+99999999999ADDGP10060000102008000002015000102008GQ100600870924359GR100600040907629
0071722110128422000120116009+27967-082533NSRDB+000699999V020999999999999999999999999999+99999+99999999999ADDGP10060056202008088202015007402008GQ100600565914949GR100600776914079
0071722110128422000120215009+27967-082533NSRDB+000699999V020999999999999999999999999999+99999+99999999999ADDGP10060042102008081802015007002008GQ100600647913639GR100600601914089
034072211012842200012070353C+27967-082533FM-15+0006TPA  V0203605N00525013725MN0160005N1+01395+00945101955ADDAA101000025GD14995+0137259GF108991999999999999999999MA1101965999999MW1001REMMET085KTPA 070353Z 36010KT 10SM OVC045 14/09 A3011 RMK AO2 RAB04E13 SLP195 P0000 T01390094;EQDQ01+000000PRSWM2N01 00000JPWTH 0QNNAA1D0 06045BA1 0 06045GA1 0 00045KA1D0 00049JA1 0 00094LA1 0 01000CA1 0 03011NA1 0 00000QA1 0 10195SA1D0 00057RA1 0 00139YA1 0 36010
030772211012842200012080053C+27967-082533FM-15+0006TPA  V0209999V00215220005MN0160005N1+01675+01005101995ADDAA101000095GF100991999999999999999999MA1102005999999MW1001REMMET067KTPA 080053Z VRB04KT 10SM CLR 17/10 A3012 RMK AO2 SLP199 T01670100;EQDQ01+000000PRSWM2N01 00000JPWTH 0QNNAA1D0 00000BA1 0 00000GA1U0 99999KA1D0 00050JA1 0 00100LA1 0 01000CA1 0 03012NA1 0 00000QA1 0 10199SA1D0 00062RA1 0 00167YA1 0 00004
0433722110128422000121206003+27967-082533SY-MT+0006TPA  V0201905N00155220005MN0128005N1+02065+02065101865ADDAA101000095AA206000791GD12995+0054959GF104991999999004501999999GP10060000002000000002000000002000GR100600000900009KA1240M+02221KA2240N+02001MA1101865101711MD1110011+9999REMSYN098AAXX  12064 72211 12462 41903 10206 20206 30171 40186 51001 69901 90553 333 10222 20200 555 91206;EQDN01 00000JPWTH 0QNNAA1D0 02018BA1 0 02018GA1U0 99999KA1D0 00069JA1 0 00206LA1 0 00800CA1 0 03008NA1 0 00000QA1 0 10186SA1D0 00069RA1 0 00206YA1 0 19003
0054722110128422000121408009+27967-082533NSRDB+000699999V020999999999999999999999999999+99999+99999999999ADDGP10060000002000000002000000002000GR100600000900009
0054722110128422000121508009+27967-082533NSRDB+000699999V020999999999999999999999999999+99999+99999999999ADDGP10060000002000000002000000002000GR100600000900009
0054722110128422000121511009+27967-082533NSRDB+000699999V020999999999999999999999999999+99999+99999999999ADDGP10060000002000000002000000002000GR100600000900009
0071722110128422000121622009+27967-082533NSRDB+000699999V020999999999999999999999999999+99999+99999999999ADDGP10060014302008043002015005302008GQ100600780923519GR100600294914139
030772211012842200012180153C+27967-082533FM-15+0006TPA  V0203505N00315220005MN0160005N1+00895+00395102265ADDAA101000095GF100991999999999999999999MA1102275999999MW1001REMMET067KTPA 180153Z 35006KT 10SM CLR 09/04 A3020 RMK AO2 SLP226 T00890039;EQDQ01+000000PRSWM2N01 00000JPWTH 0QNNAA1D0 00000BA1 0 00000GA1U0 99999KA1D0 00039JA1 0 00039LA1 0 01000CA1 0 03020NA1 0 00000QA1 0 10226SA1D0 00048RA1 0 00089YA1 0 35006
030872211012842200012180653C+27967-082533FM-15+0006TPA  V0200205N00315220005MN0160005N1+00445-00445102315ADDAA101000095GF100991999999999999999999MA1102305999999MW1001REMMET068KTPA 180653Z 02006KT 10SM CLR 04/M04 A3021 RMK AO2 SLP231 T00441044;EQDQ01+000000PRSWM2N01 00000JPWTH 0QNNAA1D0 00000BA1 0 00000GA1U0 99999KA1D0 00024JA1 0-00044LA1 0 01000CA1 0 03021NA1 0 00000QA1 0 10231SA1D0 00040RA1 0 00044YA1 0 02006
0203722110128422000121911534+27970-082520FM-15+0003KTPA V0202001N003112200019N0160931N1+01301+01101101661ADDGF100991999999999999999999KA1999M+01281KA2999N+00611MA1101661999999MD1810081+9999MW1001REMMET085KTPA 191153Z 20006KT 10SM CLR 13/11 A3002 RMK AO2 SLP166 T01280111 10128 20061 58008;EQDQ01+000000PRSWM2
0071722110128422000122122009+27967-082533NSRDB+000699999V020999999999999999999999999999+99999+99999999999ADDGP10060012702008021902015008002008GQ100600776923469GR100600303914149
036172211012842200012230453C+27967-082533FM-15+0006TPA  V0200405N00315220005MN0160005N1+00945+00725102545ADDAA101000095GD11995+0762059GF102991999999999999999999KA1999M+02001KA2999N+00781MA1102545999999MW1001REMMET080KTPA 230453Z 04006KT 10SM FEW250 09/07 A3028 RMK AO2 SLP254 T00940072 402000078;EQDQ01+000000PRSWM2N01 00000JPWTH 0QNNAA1D0 02250BA1 0 01250GA1U0 99999KA1D0 00045JA1 0 00072LA1 0 01000CA1 0 03028NA1 0 00000QA1 0 10254SA1D0 00049RA1 0 00094YA1 0 04006
0054722110128422000122401009+27967-082533NSRDB+000699999V020999999999999999999999999999+99999+99999999999ADDGP10060000002000000002000000002000GR100600000900009
0054722110128422000122402009+27967-082533NSRDB+000699999V020999999999999999999999999999+99999+99999999999ADDGP10060000002000000002000000002000GR100600000900009
0071722110128422000122613009+27967-082533NSRDB+000699999V020999999999999999999999999999+99999+99999999999ADDGP10060000502008008202015000302008GQ100600865911879GR100600056909089
0204722110128422000122814134+27970-082520FM-16+0003KTPA V0201501N003610045019N0096561N1+01801+01801999999ADDGD12991+0024019GD24991+0045019GF108991999999999999999999MA1101121999999MW1101MW2611REMMET074KTPA 281413Z 15007KT 6SM -RA BR SCT008 OVC015 18/18 A2986 RMK AO2 P0002 $;EQDQ01+000003PRSWM1Q02    003PRSWM1
0054722115999992000010205009+27383-082550NSRDB+001099999V020999999999999999999999999999+99999+99999999999ADDGP10060000002000000002000000002000GR100600000900009
0155722115999992000010307534+27400-082550FM-15+0009KSRQ V0201001N002612200019N0160931N1+01501+01401102061ADDGF100991999999999999999999MA1102071999999MW1001REMMET077KSRQ 030753Z AUTO 10005KT 10SM CLR 15/14 A3014 RMK AO2 SLP206 T01500139 TSNO;EQDQ01+000000PRSWM2
0145722115999992000010400534+27400-082550FM-15+0009KSRQ V0209999C000012200019N0160931N1+01801+01701102001ADDGF100991999999999999999999MA1102001999999MW1001REMMET067KSRQ 040053Z 00000KT 10SM CLR 18/17 A3012 RMK AO2 SLP200 T01830172;EQDQ01+000000PRSWM2
0145722115999992000010401534+27400-082550FM-15+0009KSRQ V0209999C000012200019N0160931N1+01801+01701102031ADDGF100991999999999999999999MA1102031999999MW1001REMMET067KSRQ 040153Z 00000KT 10SM CLR 18/17 A3013 RMK AO2 SLP203 T01780172;EQDQ01+000000PRSWM2
0236722115999992000010414023+27400-082550FM-16+0009KSRQ V0201401N003610054019N0160931N1+02101+01901999999ADDGD12991+0012019GD23991+0054019GF107991999999999999999999GP10060014902008020602015010402008GQ100600775912429GR100600306914159MA1102101999999MW1001REMMET060KSRQ 041402Z 14007KT 10SM SCT004 BKN018 21/19 A3015 RMK AO2;EQDQ01+000000PRSWM2
0214722115999992000010415093+27400-082550FM-16+0009KSRQ V0201501N003610030019N0160931N1+02301+02101999999ADDGD13991+0030019GF107991999999999999999999GP10060017402008002502015016402008GQ100600672913389GR100600548914159MA1102101999999MW1001REMMET053KSRQ 041509Z 15007KT 10SM BKN010 23/21 A3015 RMK AO2;EQDQ01+000000PRSWM2
0207722115999992000010619534+27400-082550FM-15+0009KSRQ V0202801N003112200019N0160931N1+02401+01801102261ADDGD12991+0096019GD22991+0180019GD32991+0240019GF104991999999999999999999MA1102271999999MW1001REMMET084KSRQ 061953Z 28006KT 10SM FEW032 SCT060 SCT080 24/18 A3020 RMK AO2 SLP226 T02390183;EQDQ01+000000PRSWM2
0054722115999992000010712009+27383-082550NSRDB+001099999V020999999999999999999999999999+99999+99999999999ADDGP10060000002000000002000000002000GR100600000900009
0054722115999992000010903009+27383-082550NSRDB+001099999V020999999999999999999999999999+99999+99999999999ADDGP10060000002000000002000000002000GR100600000900009
0071722115999992000011013009+27383-082550NSRDB+001099999V020999999999999999999999999999+99999+99999999999ADDGP10060000402008006902015000202008GQ100600866911699GR100600051908619
0071722115999992000011117009+27383-082550NSRDB+001099999V020999999999999999999999999999+99999+99999999999ADDGP10060062202008084602015010002008GQ100600520915999GR100600870914149
0144722115999992000011212534+27400-082550FM-15+0009KSRQ V0200601N003112200019N0128741N1+01101+01001102441ADDGF100991999999999999999999MA1102471999999MW1001REMMET066KSRQ 121253Z 06006KT 8SM CLR 11/10 A3026 RMK AO2 SLP244 T01060100;EQDQ01+000000PRSWM2
0145722115999992000011316534+27400-082550FM-15+0009KSRQ V0202501N002612200019N0160931N1+02301+01401102451ADDGF100991999999999999999999MA1102471999999MW1001REMMET067KSRQ 131653Z 25005KT 10SM CLR 23/14 A3026 RMK AO2 SLP245 T02330144;EQDQ01+000000PRSWM2
0071722115999992000011515009+27383-082550NSRDB+001099999V020999999999999999999999999999+99999+99999999999ADDGP10060036902008076202015006802008GQ100600668913189GR100600557914149
0175722115999992000011614534+27400-082550FM-15+0009KSRQ V0200501N003612200019N0160931N1+01601+00801103361ADDGF100991999999999999999999MA1103391999999MD1110101+9999MW1001REMMET083KSRQ 161453Z AUTO 05007KT 10SM CLR 16/08 A3053 RMK AO2 SLP336 T01610083 51010 TSNO;EQDQ01+000000PRSWM2
0071722115999992000011719009+27383-082550NSRDB+001099999V020999999999999999999999999999+99999+99999999999ADDGP10060065902008089102015008202008GQ100600498919529GR100600913914149
0145722115999992000011900534+27400-082550FM-15+0009KSRQ V0202801N002112200019N0160931N1+01701+01601102051ADDGF100991999999999999999999MA1102071999999MW1001REMMET067KSRQ 190053Z 28004KT 10SM CLR 17/16 A3014 RMK AO2 SLP205 T01670161;EQDQ01+000000PRSWM2
0071722115999992000012222009+27383-082550NSRDB+001099999V020999999999999999999999999999+99999+99999999999ADDGP10060025202008065702015005402008GQ100600726923589GR100600423914129
0145722115999992000012318534+27400-082550FM-15+0009KSRQ V0201801N007712200019N0160931N1+02201+01701101561ADDGF100991999999999999999999MA1101561999999MW1001REMMET067KSRQ 231853Z 18015KT 10SM CLR 22/17 A2999 RMK AO2 SLP156 T02170172;EQDQ01+000000PRSWM2
0298722115999992000012411534+27400-082550FM-15+0009KSRQ V0200101N003110075019N0112651N1+01501+01501100801ADDAA106005391AA224005891GD12991+0015019GD23991+0075019GD34991+0099019GF108991999999999999999999KA1999M+01671KA2999N+01441MA1100811999999MD1610141+9999MW1001REMMET113KSRQ 241153Z 01006KT 7SM FEW005 BKN025 OVC033 15/15 A2977 RMK AO2 SLP080 60021 70023 T01500150 10167 20144 56014;EQDQ01+000000PRSWM2
0163722115999992000012612534+27400-082550FM-15+0009KSRQ V0203301N005112200019N0160931N1+00901+00001101721ADDGD12991+0150019GF102991999999999999999999MA1101731999999MW1001REMMET070KSRQ 261253Z 33010KT 10SM FEW055 09/00 A3004 RMK AO2 SLP172 T00890000;EQDQ01+000000PRSWM2
0054722115999992000012812009+27383-082550NSRDB+001099999V020999999999999999999999999999+99999+99999999999ADDGP10060000002000000002000000002000GR100600000900009
0071722115999992000020119009+27383-082550NSRDB+001099999V020999999999999999999999999999+99999+99999999999ADDGP10060065502008062202015022202008GQ100600461919549GR100600977914099
0054722115999992000020308009+27383-082550NSRDB+001099999V020999999999999999999999999999+99999+99999999999ADDGP10060000002000000002000000002000GR100600000900009
0054722115999992000020707009+27383-082550NSRDB+001099999V020999999999999999999999999999+99999+99999999999ADDGP10060000002000000002000000002000GR100600000900009
0054722115999992000021605009+27383-082550NSRDB+001099999V020999999999999999999999999999+99999+99999999999ADDGP10060000002000000002000000002000GR100600000900009
0165722115999992000021802534+27400-082550FM-15+0009KSRQ V0200701N003612200019N0160931N1+01801+01201102361ADDGF100991999999999999999999MA1102371999999MD1310191+9999MW1001REMMET073KSRQ 180253Z 07007KT 10SM CLR 18/12 A3023 RMK AO2 SLP236 T01780122 53019;EQDQ01+000000PRSWM2
0145722115999992000021900534+27400-082550FM-15+0009KSRQ V0202301N001512200019N0160931N1+02001+01901102161ADDGF100991999999999999999999MA1102171999999MW1001REMMET067KSRQ 190053Z 23003KT 10SM CLR 20/19 A3017 RMK AO2 SLP216 T02000189;EQDQ01+000000PRSWM2
0071722115999992000022219009+27383-082550NSRDB+001099999V020999999999999999999999999999+99999+99999999999ADDGP10060059702008028102015037902008GQ100600395919809GR100601079913989
0071722115999992000022723009+27383-082550NSRDB+001099999V020999999999999999999999999999+99999+99999999999ADDGP10060014902008050902015004302008GQ100600779925399GR100600291913949
0071722115999992000022817009+27383-082550NSRDB+001099999V020999999999999999999999999999+99999+99999999999ADDGP10060078602008086902015011702008GQ100600397915129GR100601071913949
0145722115999992000030203534+27400-082550FM-15+0009KSRQ V0202301N002612200019N0160931N1+01901+01801102121ADDGF100991999999999999999999MA1102131999999MW1001REMMET067KSRQ 020353Z 23005KT 10SM CLR 19/18 A3016 RMK AO2 SLP212 T01890178;EQDQ01+000000PRSWM2
0145722115999992000030318534+27400-082550FM-15+0009KSRQ V0202601N005112200019N0160931N1+02301+01801101611ADDGF100991999999999999999999MA1101631999999MW1001REMMET067KSRQ 031853Z 26010KT 10SM CLR 23/18 A3001 RMK AO2 SLP161 T02330183;EQDQ01+000000PRSWM2
0071722115999992000030415009+27383-082550NSRDB+001099999V020999999999999999999999999999+99999+99999999999ADDGP10060020802008001202015020102008GQ100600572911879GR100600751913909
0054722115999992000030909009+27383-082550NSRDB+001099999V020999999999999999999999999999+99999+99999999999ADDGP10060000002000000002000000002000GR100600000900009
0203722115999992000031511534+27400-082550FM-15+0009KSRQ V0200701N004112200019N0160931N1+01501+01201102031ADDGF100991999999999999999999KA1999M+01671KA2999N+01501MA1102031999999MD1310111+9999MW1001REMMET085KSRQ 151153Z 07008KT 10SM CLR 15/12 A3013 RMK AO2 SLP203 T01500122 10167 20150 53011;EQDQ01+000000PRSWM2
0144722115999992000031910534+27400-082550FM-15+0009KSRQ V0200801N004612200019N0144841N1+01901+01701101651ADDGF100991999999999999999999MA1101661999999MW1001REMMET066KSRQ 191053Z 08009KT 9SM CLR 19/17 A3002 RMK AO2 SLP165 T01890172;EQDQ01+000000PRSWM2
0201722115999992000032004424+27400-082550FM-16+0009KSRQ V0201501N005112200019N0160931N1+02001+01901999999ADDGD12991+0015019GD22991+0024019GF104991999999999999999999MA1101351999999MW1611REMMET077KSRQ 200442Z 15010KT 10SM -RA FEW005 SCT008 20/19 A2993 RMK AO2 PRESFR P0000;EQDQ01+000003PRSWM1Q02    003PRSWM1
0071722115999992000032120009+27383-082550NSRDB+001099999V020999999999999999999999999999+99999+99999999999ADDGP10060080202008084002015014102008GQ100600382922979GR100601081913779
0145722115999992000032403534+27400-082550FM-15+0009KSRQ V0200601N005112200019N0160931N1+01701+01401101851ADDGF100991999999999999999999MA1101861999999MW1001REMMET067KSRQ 240353Z 06010KT 10SM CLR 17/14 A3008 RMK AO2 SLP185 T01720139;EQDQ01+000000PRSWM2
0183722115999992000032408534+27400-082550FM-15+0009KSRQ V0200401N004610210019N0160931N1+01701+01401101741ADDGD13991+0210019GF107991999999999999999999MA1101761999999MD1610091+9999MW1001REMMET076KSRQ 240853Z 04009KT 10SM BKN070 17/14 A3005 RMK AO2 SLP174 T01670144 56009;EQDQ01+000000PRSWM2
0054722115999992000032504009+27383-082550NSRDB+001099999V020999999999999999999999999999+99999+99999999999ADDGP10060000002000000002000000002000GR100600000900009
0163722115999992000032813534+27400-082550FM-15+0009KSRQ V0203201N003112200019N0160931N1+02201+01501100851ADDGD12991+0090019GF102991999999999999999999MA1100851999999MW1001REMMET070KSRQ 281353Z 32006KT 10SM FEW030 22/15 A2978 RMK AO2 SLP085 T02220150;EQDQ01+000000PRSWM2
0054722115999992000033011009+27383-082550NSRDB+001099999V020999999999999999999999999999+99999+99999999999ADDGP10060000002000000002000000002000GR100600000900009
0071722115999992000040212009+27383-082550NSRDB+001099999V020999999999999999999999999999+99999+99999999999ADDGP10060000702008012702015000302008GQ100600859908629GR100600064909009
0155722115999992000040307534+27400-082550FM-15+0009KSRQ V0201101N003612200019N0160931N1+01901+01501101841ADDGF100991999999999999999999MA1101861999999MW1001REMMET077KSRQ 030753Z AUTO 11007KT 10SM CLR 19/15 A3008 RMK AO2 SLP184 T01890150 TSNO;EQDQ01+000000PRSWM2
0155722115999992000040400534+27400-082550FM-15+0009KSRQ V0202101N005112200019N0160931N1+02401+01901101701ADDGF100991999999999999999999MA1101731999999MW1001REMMET077KSRQ 040053Z AUTO 21010KT 10SM CLR 24/19 A3004 RMK AO2 SLP170 T02390189 TSNO;EQDQ01+000000PRSWM2
0165722115999992000040502534+27400-082550FM-15+0009KSRQ V0203301N005712200019N0160931N1+01701+00901101711ADDGF100991999999999999999999MA1101731999999MD1110171+9999MW1001REMMET073KSRQ 050253Z 33011KT 10SM CLR 17/09 A3004 RMK AO2 SLP171 T01720089 51017;EQDQ01+000000PRSWM2
0071722115999992000040512009+27383-082550NSRDB+001099999V020999999999999999999999999999+99999+99999999999ADDGP10060001102008014102015000502008GQ100600856908519GR100600075909679
0054722115999992000040807009+27383-082550NSRDB+001099999V020999999999999999999999999999+99999+99999999999ADDGP10060000002000000002000000002000GR100600000900009
0054722115999992000040910009+27383-082550NSRDB+001099999V020999999999999999999999999999+99999+99999999999ADDGP10060000002000000002000000002000GR100600000900009
0071722115999992000040923009+27383-082550NSRDB+001099999V020999999999999999999999999999+99999+99999999999ADDGP10060022702008047002015008702008GQ100600727927019GR100600405913629
0166722115999992000041018534+27400-082550FM-15+0009KSRQ V0200901N005112200019N0160931N1+02601+01001102231ADDGF100991999999999999999999MA1102241999999MW1001OC100981REMMET080KSRQ 101853Z AUTO 09010G19KT 10SM CLR 26/10 A3019 RMK AO2 SLP223 T02610100 TSNO;EQDQ01+000000PRSWM2
0054722115999992000041204009+27383-082550NSRDB+001099999V020999999999999999999999999999+99999+99999999999ADDGP10060000002000000002000000002000GR100600000900009
0071722115999992000041619009+27383-082550NSRDB+001099999V020999999999999999999999999999+99999+99999999999ADDGP10060096202008088602015014102008GQ100600223922189GR100601253913569
0277722115999992000041711003+27400-082550FM-15+0009KSRQ V0209999C000010081019N0080461N1+01601+01601999999ADDGD12991+0003019GD22991+0027019GD33991+0081019GF107991999999999999999999GP10060000002000000002000000002000GR100600000900009MA1101761999999MW1101REMMET087KSRQ 171058Z 00000KT 5SM BR SCT001 SCT009 BKN027 16/16 A3005 RMK AO2 PATCHY GROUND FOG;EQDQ01+000003PRSWM1Q02    003PRSWM1
0054722115999992000041801009+27383-082550NSRDB+001099999V020999999999999999999999999999+99999+99999999999ADDGP10060000002000000002000000002000GR100600000900009
0191722115999992000042104534+27400-082550FM-15+0009KSRQ V0209999C000012200019N0160931N1+01801+01701101651ADDGF100991999999999999999999KA1999M+02721KA2999N+01441MA1101661999999MW1001REMMET087KSRQ 210453Z AUTO 00000KT 10SM CLR 18/17 A3002 RMK AO2 SLP165 T01830172 402720144 TSNO;EQDQ01+000000PRSWM2
0071722115999992000042318009+27383-082550NSRDB+001099999V020999999999999999999999999999+99999+99999999999ADDGP10060091402008059402015033902008GQ100600151918149GR100601304913519
0071722115999992000042816009+27383-082550NSRDB+001099999V020999999999999999999999999999+99999+99999999999ADDGP10060084402008076102015018702008GQ100600303910989GR100601161913479
0054722115999992000042904009+27383-082550NSRDB+001099999V020999999999999999999999999999+99999+99999999999ADDGP10060000002000000002000000002000GR100600000900009
0253722115999992000042905534+27400-082550FM-15+0009KSRQ V0202501N005712200019N0160931N1+02301+01801101511ADDGD12991+0108019GD22991+0138019GF104991999999999999999999KA1999M+02281KA2999N+02221MA1101521999999MD1810031+9999MW1001REMMET105KSRQ 290553Z AUTO 25011KT 10SM FEW036 SCT046 23/18 A2998 RMK AO2 SLP151 T02280183 10228 20222 58003 TSNO;EQDQ01+000000PRSWM2
0237722115999992000042908534+27400-082550FM-15+0009KSRQ V0202601N005110072019N0160931N1+02301+02001101431ADDGD12991+0057019GD23991+0072019GD34991+0114019GF108991999999999999999999MA1101421999999MD1610091+9999MW1001REMMET100KSRQ 290853Z AUTO 26010KT 10SM SCT019 BKN024 OVC038 23/20 A2995 RMK AO2 SLP143 T02280200 56009 TSNO;EQDQ01+000000PRSWM2
0163722115999992000042912534+27400-082550FM-15+0009KSRQ V0203201N004612200019N0160931N1+02301+01801101661ADDGD12991+0051019GF102991999999999999999999MA1101661999999MW1001REMMET070KSRQ 291253Z 32009KT 10SM FEW017 23/18 A3002 RMK AO2 SLP166 T02330183;EQDQ01+000000PRSWM2
0147722115999992000050101534+27400-082550FM-15+0009KSRQ V0200901N004612200019N0160931N1+02301+01201101941ADDGF100991999999999999999999MA1101961999999MW1001REMMET069KSRQ 010153Z 09009KT 10SM CLR 23/12 A3011 RMK AO2 SLP194 T02280117 $;EQDQ01+000000PRSWM2
0165722115999992000050302534+27400-082550FM-15+0009KSRQ V0200601N003112200019N0160931N1+02201+01701101841ADDGF100991999999999999999999MA1101861999999MD1310101+9999MW1001REMMET073KSRQ 030253Z 06006KT 10SM CLR 22/17 A3008 RMK AO2 SLP184 T02170167 53010;EQDQ01+000000PRSWM2
0054722115999992000050307009+27383-082550NSRDB+001099999V020999999999999999999999999999+99999+99999999999ADDGP10060000002000000002000000002000GR100600000900009
0183722115999992000050520534+27400-082550FM-15+0009KSRQ V0202601N006212200019N0160931N1+02701+01801101841ADDGD12991+0210019GF102991999999999999999999MA1101861999999MD1610181+9999MW1001REMMET076KSRQ 052053Z 26012KT 10SM FEW070 27/18 A3008 RMK AO2 SLP184 T02670183 56018;EQDQ01+000000PRSWM2
0071722115999992000050619009+27383-082550NSRDB+001099999V020999999999999999999999999999+99999+99999999999ADDGP10060090902008063402015030602008GQ100600182923599GR100601273913429
0193722115999992000050702534+27400-082550FM-15+0009KSRQ V0201001N004112200019N0160931N1+02301+01601101971ADDGD12991+0270019GF104991999999999999999999MA1102001999999MD1310151+9999MW1001REMMET086KSRQ 070253Z AUTO 10008KT 10SM SCT090 23/16 A3012 RMK AO2 SLP197 T02330161 53015 TSNO;EQDQ01+000000PRSWM2
0145722115999992000050921534+27400-082550FM-15+0009KSRQ V0201901N006712200019N0160931N1+02701+02101101421ADDGF100991999999999999999999MA1101421999999MW1001REMMET067KSRQ 092153Z 19013KT 10SM CLR 27/21 A2995 RMK AO2 SLP142 T02720211;EQDQ01+000000PRSWM2
0054722115999992000051106009+27383-082550NSRDB+001099999V020999999999999999999999999999+99999+99999999999ADDGP10060000002000000002000000002000GR100600000900009
0183722115999992000051314534+27400-082550FM-15+0009KSRQ V0202801N003610210019N0160931N1+02801+02201101801ADDGD13991+0210019GF107991999999999999999999MA1101801999999MD1110211+9999MW1001REMMET076KSRQ 131453Z 28007KT 10SM BKN070 28/22 A3006 RMK AO2 SLP180 T02780222 51021;EQDQ01+000000PRSWM2
0054722115999992000051505009+27383-082550NSRDB+001099999V020999999999999999999999999999+99999+99999999999ADDGP10060000002000000002000000002000GR100600000900009
0071722115999992000051513009+27383-082550NSRDB+001099999V020999999999999999999999999999+99999+99999999999ADDGP10060029602008043902015012902008GQ100600677907949GR100600507913369
0193722115999992000051904534+27400-082550FM-15+0009KSRQ V0201001N005112200019N0160931N1+02201+01701102181ADDGF100991999999999999999999KA1999M+03391KA2999N+01831MA1102201999999MW1001REMMET089KSRQ 190453Z AUTO 10010KT 10SM CLR 22/17 A3018 RMK AO2 SLP218 T02170167 403390183 TSNO $;EQDQ01+000000PRSWM2
0205722115999992000051911534+27400-082550FM-15+0009KSRQ V0200801N002612200019N0160931N1+01901+01801102181ADDGF100991999999999999999999KA1999M+02061KA2999N+01721MA1102201999999MD1110141+9999MW1001REMMET087KSRQ 191153Z 08005KT 10SM CLR 19/18 A3018 RMK AO2 SLP218 T01940178 10206 20172 51014 $;EQDQ01+000000PRSWM2
0145722115999992000052303534+27400-082550FM-15+0009KSRQ V0202801N002612200019N0160931N1+02301+02201101541ADDGF100991999999999999999999MA1101561999999MW1001REMMET067KSRQ 230353Z 28005KT 10SM CLR 23/22 A2999 RMK AO2 SLP154 T02330217;EQDQ01+000000PRSWM2
0221722115999992000052311534+27400-082550FM-15+0009KSRQ V0202601N003612200019N0160931N1+02601+02201101441ADDGD12991+0054019GF104991999999999999999999KA1999M+02561KA2999N+02391MA1101461999999MD1310111+9999MW1001REMMET088KSRQ 231153Z 26007KT 10SM SCT018 26/22 A2996 RMK AO2 SLP144 T02560217 10256 20239 53011;EQDQ01+000000PRSWM2
0183722115999992000052314534+27400-082550FM-15+0009KSRQ V0202601N004610072019N0160931N1+02801+02301101551ADDGD13991+0072019GF107991999999999999999999MA1101561999999MD1110121+9999MW1001REMMET076KSRQ 231453Z 26009KT 10SM BKN024 28/23 A2999 RMK AO2 SLP155 T02780228 51012;EQDQ01+000000PRSWM2
0071722115999992000052400009+27383-082550NSRDB+001099999V020999999999999999999999999999+99999+99999999999ADDGP10060008602008026402015004602008GQ100600811928909GR100600205913329
0054722115999992000052609009+27383-082550NSRDB+001099999V020999999999999999999999999999+99999+99999999999ADDGP10060000002000000002000000002000GR100600000900009
0145722115999992000052712534+27400-082550FM-15+0009KSRQ V0201801N002612200019N0160931N1+02801+02201101791ADDGF100991999999999999999999MA1101801999999MW1001REMMET067KSRQ 271253Z 18005KT 10SM CLR 28/22 A3006 RMK AO2 SLP179 T02780222;EQDQ01+000000PRSWM2
0145722115999992000052812534+27400-082550FM-15+0009KSRQ V0202501N003112200019N0160931N1+02801+02301101641ADDGF100991999999999999999999MA1101661999999MW1001REMMET067KSRQ 281253Z 25006KT 10SM CLR 28/23 A3002 RMK AO2 SLP164 T02780233;EQDQ01+000000PRSWM2
0054722115999992000060405009+27383-082550NSRDB+001099999V020999999999999999999999999999+99999+99999999999ADDGP10060000002000000002000000002000GR100600000900009
0173722115999992000060406534+27400-082550FM-15+0009KSRQ V0203101N001510180019N0160931N1+02501+02301101671ADDGD13991+0180019GF107991999999999999999999MA1101691999999MW1001REMMET080KSRQ 040653Z AUTO 31003KT 10SM BKN060 25/23 A3003 RMK AO2 SLP167 T02500228 TSNO;EQDQ01+000000PRSWM2
0155722115999992000060507534+27400-082550FM-15+0009KSRQ V0209999C000012200019N0160931N1+02301+02001101531ADDGF100991999999999999999999MA1101561999999MW1001REMMET077KSRQ 050753Z AUTO 00000KT 10SM CLR 23/20 A2999 RMK AO2 SLP153 T02280200 TSNO;EQDQ01+000000PRSWM2
0054722115999992000060508009+27383-082550NSRDB+001099999V020999999999999999999999999999+99999+99999999999ADDGP10060000002000000002000000002000GR100600000900009
0054722115999992000060608009+27383-082550NSRDB+001099999V020999999999999999999999999999+99999+99999999999ADDGP10060000002000000002000000002000GR100600000900009
0191722115999992000060804534+27400-082550FM-15+0009KSRQ V0200701N003612200019N0160931N1+02301+02101101801ADDGF100991999999999999999999KA1999M+03171KA2999N+02281MA1101801999999MW1001REMMET087KSRQ 080453Z AUTO 07007KT 10SM CLR 23/21 A3006 RMK AO2 SLP180 T02280206 403170228 TSNO;EQDQ01+000000PRSWM2
0054722115999992000061204009+27383-082550NSRDB+001099999V020999999999999999999999999999+99999+99999999999ADDGP10060000002000000002000000002000GR100600000900009
0054722115999992000061208009+27383-082550NSRDB+001099999V020999999999999999999999999999+99999+99999999999ADDGP10060000002000000002000000002000GR100600000900009
0163722115999992000061319534+27400-082550FM-15+0009KSRQ V0202701N005712200019N0160931N1+03101+02201101861ADDGD12991+0150019GF102991999999999999999999MA1101861999999MW1001REMMET070KSRQ 131953Z 27011KT 10SM FEW055 31/22 A3008 RMK AO2 SLP186 T03060217;EQDQ01+000000PRSWM2
0071722115999992000061400009+27383-082550NSRDB+001099999V020999999999999999999999999999+99999+99999999999ADDGP10060010202008016802015007102008GQ100600793929099GR100600245913249
0162722115999992000061622534+27400-082550FM-15+0009KSRQ V0209999C000012200019N0160931N1+02701+02301101521ADDAA101000391GF100991999999999999999999MA1101521999999MW1001REMMET073KSRQ 162253Z 00000KT 10SM CLR 27/23 A2998 RMK AO2 SLP152 P0001 T02670233;EQDQ01+000000PRSWM2
0163722115999992000061818534+27400-082550FM-15+0009KSRQ V0202801N004112200019N0160931N1+03201+02201102051ADDGD12991+0090019GF104991999999999999999999MA1102071999999MW1001REMMET070KSRQ 181853Z 28008KT 10SM SCT030 32/22 A3014 RMK AO2 SLP205 T03170222;EQDQ01+000000PRSWM2
0211722115999992000061819534+27400-082550FM-15+0009KSRQ V0202501N004112200019N0160931N1+02901+02401101961ADDAA101001091GD12991+0090019GD22991+0150019GF104991999999999999999999MA1101961999999MW1001REMMET092KSRQ 181953Z 25008KT 10SM FEW030 SCT050 29/24 A3011 RMK AO2 RAB17E45 SLP196 P0004 T02890239;EQDQ01+000000PRSWM2
0071722115999992000061821009+27383-082550NSRDB+001099999V020999999999999999999999999999+99999+99999999999ADDGP10060069202008063002015021202008GQ100600403927469GR100601007913239
0248722115999992000062005534+27400-082550FM-15+0009KSRQ V0209999C000012200019N0160931N1+02301+02201102091ADDAA106007691GD12991+0051019GF104991999999999999999999KA1999M+02781KA2999N+02331MA1102101999999MD1810041+9999MW1001REMMET104KSRQ 200553Z AUTO 00000KT 10SM SCT017 23/22 A3015 RMK AO2 SLP209 60030 T02330222 10278 20233 58004 TSNO;EQDQ01+000000PRSWM2
0145722115999992000062010534+27400-082550FM-15+0009KSRQ V0201001N002112200019N0160931N1+02301+02201101961ADDGF100991999999999999999999MA1101961999999MW1001REMMET067KSRQ 201053Z 10004KT 10SM CLR 23/22 A3011 RMK AO2 SLP196 T02280222;EQDQ01+000000PRSWM2
0071722115999992000062100009+27383-082550NSRDB+001099999V020999999999999999999999999999+99999+99999999999ADDGP10060005802008000502015005702008GQ100600790929099GR100600253913229
0054722115999992000062204009+27383-082550NSRDB+001099999V020999999999999999999999999999+99999+99999999999ADDGP10060000002000000002000000002000GR100600000900009
0054722115999992000062306009+27383-082550NSRDB+001099999V020999999999999999999999999999+99999+99999999999ADDGP10060000002000000002000000002000GR100600000900009
0226722115999992000062618534+27400-082550FM-15+0009KSRQ V0200301N003112200019N0160931N1+02201+02101101831ADDAA101008691GD12991+0141019GF102991999999999999999999MA1101831999999MW1001REMMET122KSRQ 261853Z 03006KT 10SM FEW047 22/21 A3007 RMK AO2 PK WND 22027/1754 TSE08RAE46 PRESRR SLP183 TS MOV NW P0034 T02220206;EQDQ01+000000PRSWM2
0071722115999992000062620009+27383-082550NSRDB+001099999V020999999999999999999999999999+99999+99999999999ADDGP10060013402008000002015013402008GQ100600266926769GR100601179913229
0145722115999992000062821534+27400-082550FM-15+0009KSRQ V0202201N005712200019N0160931N1+02901+02301101641ADDGF100991999999999999999999MA1101661999999MW1001REMMET067KSRQ 282153Z 22011KT 10SM CLR 29/23 A3002 RMK AO2 SLP164 T02890233;EQDQ01+000000PRSWM2
0191722115999992000070104534+27400-082550FM-15+0009KSRQ V0202601N003612200019N0160931N1+02701+02301101621ADDGF100991999999999999999999KA1999M+03111KA2999N+02441MA1101631999999MW1001REMMET087KSRQ 010453Z AUTO 26007KT 10SM CLR 27/23 A3001 RMK AO2 SLP162 T02720228 403110244 TSNO;EQDQ01+000000PRSWM2
0071722115999992000070417009+27383-082550NSRDB+001099999V020999999999999999999999999999+99999+99999999999ADDGP10060091902008067402015026802008GQ100600154910509GR100601271913219
0243722115999992000070823534+27400-082550FM-15+0009KSRQ V0200701N003112200019N0160931N1+02501+02401101701ADDAA101000021AA206000391GF100991999999999999999999KA1999M+02941KA2999N+02501MA1101731999999MD1510031+9999MW1001REMMET103KSRQ 082353Z 07006KT 10SM CLR 25/24 A3004 RMK AO2 RAE03 SLP170 P0000 60001 T02500239 10294 20250 55003;EQDQ01+000000PRSWM2
0165722115999992000070902534+27400-082550FM-15+0009KSRQ V0201301N002612200019N0160931N1+02401+02301101771ADDGF100991999999999999999999MA1101801999999MD1110091+9999MW1001REMMET073KSRQ 090253Z 13005KT 10SM CLR 24/23 A3006 RMK AO2 SLP177 T02440233 51009;EQDQ01+000000PRSWM2
0155722115999992000071013534+27400-082550FM-15+0009KSRQ V0201001N003612200019N0160931N1+02701+02301101801ADDGF100991999999999999999999MA1101831999999MW1001REMMET077KSRQ 101353Z AUTO 10007KT 10SM CLR 27/23 A3007 RMK AO2 SLP180 T02720233 TSNO;EQDQ01+000000PRSWM2
0054722115999992000071303009+27383-082550NSRDB+001099999V020999999999999999999999999999+99999+99999999999ADDGP10060000002000000002000000002000GR100600000900009
0200722115999992000071318534+27400-082550FM-15+0009KSRQ V0202901N003112200019N0160931N1+03001+02401101611ADDAA101000021GD12991+0099019GF102991999999999999999999MA1101631999999MW1001REMMET096KSRQ 131853Z 29006KT 10SM FEW033 30/24 A3001 RMK AO2 WSHFT 1814 RAB40E51 SLP161 P0000 T03000239;EQDQ01+000000PRSWM2
0145722115999992000071322534+27400-082550FM-15+0009KSRQ V0202601N004112200019N0160931N1+02901+02401101471ADDGF100991999999999999999999MA1101491999999MW1001REMMET067KSRQ 132253Z 26008KT 10SM CLR 29/24 A2997 RMK AO2 SLP147 T02940239;EQDQ01+000000PRSWM2
0163722115999992000071415534+27400-082550FM-15+0009KSRQ V0202801N006212200019N0160931N1+03101+02401101511ADDGD12991+0081019GF102991999999999999999999MA1101521999999MW1001REMMET070KSRQ 141553Z 28012KT 10SM FEW027 31/24 A2998 RMK AO2 SLP151 T03110239;EQDQ01+000000PRSWM2
0054722115999992000071704009+27383-082550NSRDB+001099999V020999999999999999999999999999+99999+99999999999ADDGP10060000002000000002000000002000GR100600000900009
0054722115999992000072108009+27383-082550NSRDB+001099999V020999999999999999999999999999+99999+99999999999ADDGP10060000002000000002000000002000GR100600000900009
0185722115999992000072715534+27400-082550FM-15+0009KSRQ V0200701N002112200019N0160931N1+03001+02201101831ADDGD12991+0105019GD22991+1050019GF104991999999999999999999MA1101831999999MW1001REMMET077KSRQ 271553Z 07004KT 10SM FEW035 SCT350 30/22 A3007 RMK AO2 SLP183 T03000217;EQDQ01+000000PRSWM2
0054722115999992000072807009+27383-082550NSRDB+001099999V020999999999999999999999999999+99999+99999999999ADDGP10060000002000000002000000002000GR100600000900009
0054722115999992000072910009+27383-082550NSRDB+001099999V020999999999999999999999999999+99999+99999999999ADDGP10060000002000000002000000002000GR100600000900009
0261722115999992000072918534+27400-082550FM-15+0009KSRQ V0203501N003612200019N0160931N1+02801+02501101481ADDAA101001391GD12991+0057019GD22991+0099019GF104991999999999999999999MA1101491999999MW1801MW2951REMMET120KSRQ 291853Z 35007KT 10SM -TSRA SCT019 SCT033 28/25 A2997 RMK AO2 TSB12RAB28 SLP148 LTGCCCG TS S MOV SW P0005 T02830250;EQDQ01+000003PRSWM1Q02    003PRSWM1
0201722115999992000073018364+27400-082550FM-16+0009KSRQ V0201201N006210090019N0160931N1+02401+02201999999ADDGD13991+0090019GF107991999999999999999999MA1101691999999MW1611OC101031REMMET084KSRQ 301836Z 12012G20KT 10SM -RA BKN030 24/22 A3003 RMK AO2 WSHFT 1815 PRESRR P0002;EQDQ01+000003PRSWM1Q02    003PRSWM1
0071722115999992000080113009+27383-082550NSRDB+001099999V020999999999999999999999999999+99999+99999999999ADDGP10060023102008028402015013502008GQ100600703907959GR100600447913269
0155722115999992000080318534+27400-082550FM-15+0009KSRQ V0202501N004112200019N0160931N1+03101+02301101821ADDGF100991999999999999999999MA1101831999999MW1001REMMET077KSRQ 031853Z AUTO 25008KT 10SM CLR 31/23 A3007 RMK AO2 SLP182 T03110233 TSNO;EQDQ01+000000PRSWM2
0054722115999992000080402009+27383-082550NSRDB+001099999V020999999999999999999999999999+99999+99999999999ADDGP10060000002000000002000000002000GR100600000900009
0054722115999992000080808009+27383-082550NSRDB+001099999V020999999999999999999999999999+99999+99999999999ADDGP10060000002000000002000000002000GR100600000900009
0071722115999992000081312009+27383-082550NSRDB+001099999V020999999999999999999999999999+99999+99999999999ADDGP10060000002008000002015000002008GQ100600841907669GR100600133912989
0071722115999992000081319009+27383-082550NSRDB+001099999V020999999999999999999999999999+99999+99999999999ADDGP10060082802008059902015025902008GQ100600185922609GR100601261913319
0155722115999992000081322534+27400-082550FM-15+0009KSRQ V0202401N005712200019N0160931N1+02901+02301101401ADDGF100991999999999999999999MA1101421999999MW1001REMMET077KSRQ 132253Z AUTO 24011KT 10SM CLR 29/23 A2995 RMK AO2 SLP140 T02890233 TSNO;EQDQ01+000000PRSWM2
0071722115999992000081600009+27383-082550NSRDB+001099999V020999999999999999999999999999+99999+99999999999ADDGP10060005702008016402015003602008GQ100600826928189GR100600171913329
0071722115999992000081700009+27383-082550NSRDB+001099999V020999999999999999999999999999+99999+99999999999ADDGP10060005602008017302015003502008GQ100600828928159GR100600167913339
0198722115999992000082021534+27400-082550FM-15+0009KSRQ V0201101N002112200019N0160931N1+02401+02301101561ADDAA101000021GD12991+0117019GF102991999999999999999999MA1101561999999MW1001REMMET094KSRQ 202153Z 11004KT 10SM FEW039 24/23 A2999 RMK AO2 RAB2054E46 PRESFR SLP156 P0000 T02440228;EQDQ01+000000PRSWM2
0175722115999992000082108534+27400-082550FM-15+0009KSRQ V0201101N002112200019N0160931N1+02301+02201101611ADDGF100991999999999999999999MA1101631999999MD1510061+9999MW1001REMMET083KSRQ 210853Z AUTO 11004KT 10SM CLR 23/22 A3001 RMK AO2 SLP161 T02330222 55006 TSNO;EQDQ01+000000PRSWM2
0163722115999992000082121534+27400-082550FM-15+0009KSRQ V0203101N004112200019N0160931N1+03101+02401101691ADDGD12991+0270019GF102991999999999999999999MA1101691999999MW1001REMMET070KSRQ 212153Z 31008KT 10SM FEW095 31/24 A3003 RMK AO2 SLP169 T03110239;EQDQ01+000000PRSWM2
0175722115999992000082408534+27400-082550FM-15+0009KSRQ V0200701N002112200019N0160931N1+02401+02301101811ADDGF100991999999999999999999MA1101831999999MD1610131+9999MW1001REMMET083KSRQ 240853Z AUTO 07004KT 10SM CLR 24/23 A3007 RMK AO2 SLP181 T02440233 56013 TSNO;EQDQ01+000000PRSWM2
0054722115999992000082707009+27383-082550NSRDB+001099999V020999999999999999999999999999+99999+99999999999ADDGP10060000002000000002000000002000GR100600000900009
0145722115999992000082813534+27400-082550FM-15+0009KSRQ V0200601N002112200019N0160931N1+02701+02201101501ADDGF100991999999999999999999MA1101521999999MW1001REMMET067KSRQ 281353Z 06004KT 10SM CLR 27/22 A2998 RMK AO2 SLP150 T02720222;EQDQ01+000000PRSWM2
0054722115999992000082906009+27383-082550NSRDB+001099999V020999999999999999999999999999+99999+99999999999ADDGP10060000002000000002000000002000GR100600000900009
0155722115999992000082906534+27400-082550FM-15+0009KSRQ V0209999C000012200019N0160931N1+02501+02201101231ADDGF100991999999999999999999MA1101251999999MW1001REMMET077KSRQ 290653Z AUTO 00000KT 10SM CLR 25/22 A2990 RMK AO2 SLP123 T02500222 TSNO;EQDQ01+000000PRSWM2
0071722115999992000082914009+27383-082550NSRDB+001099999V020999999999999999999999999999+99999+99999999999ADDGP10060030302008013602015023402008GQ100600594909579GR100600680913409
0071722115999992000083016009+27383-082550NSRDB+001099999V020999999999999999999999999999+99999+99999999999ADDGP10060076602008064702015023002008GQ100600341911789GR100601108913419
0238722115999992000090205534+27400-082550FM-15+0009KSRQ V0201201N002612200019N0160931N1+02401+02301101511ADDAA106000391GD12991+0075019GF102991999999999999999999KA1999M+02611KA2999N+02391MA1101521999999MD1810051+9999MW1001REMMET094KSRQ 020553Z 12005KT 10SM FEW025 24/23 A2998 RMK AO2 SLP151 60001 T02390228 10261 20239 58005;EQDQ01+000000PRSWM2
0145722115999992000090419534+27400-082550FM-15+0009KSRQ V0202301N004612200019N0160931N1+03101+02301101061ADDGF100991999999999999999999MA1101081999999MW1001REMMET067KSRQ 041953Z 23009KT 10SM CLR 31/23 A2985 RMK AO2 SLP106 T03060233;EQDQ01+000000PRSWM2
0172722115999992000090800264+27400-082550FM-16+0009KSRQ V0200901N004610099019N0160931N1+02301+02301999999ADDGD13991+0099019GF107991999999999999999999MA1101631999999MW1611REMMET063KSRQ 080026Z 09009KT 10SM -RA BKN033 23/23 A3001 RMK AO2 P0001;EQDQ01+000003PRSWM1Q02    003PRSWM1
0145722115999992000090910534+27400-082550FM-15+0009KSRQ V0200701N001512200019N0160931N1+02401+02301101241ADDGF100991999999999999999999MA1101251999999MW1001REMMET067KSRQ 091053Z 07003KT 10SM CLR 24/23 A2990 RMK AO2 SLP124 T02390228;EQDQ01+000000PRSWM2
0217722115999992000091022534+27400-082550FM-15+0009KSRQ V0209999C000010180019N0160931N1+02301+02201101411ADDAA101008491GD12991+0063019GD23991+0180019GF107991999999999999999999MA1101421999999MW1001REMMET098KSRQ 102253Z 00000KT 10SM SCT021 BKN060 23/22 A2995 RMK AO2 RAE37 PRESRR SLP141 P0033 T02330222 $;EQDQ01+000000PRSWM2
0213722115999992000091223534+27400-082550FM-15+0009KSRQ V0203301N002112200019N0160931N1+02701+02201101221ADDGF100991999999999999999999KA1999M+03331KA2999N+02721MA1101221999999MD1310011+9999MW1001REMMET095KSRQ 122353Z AUTO 33004KT 10SM CLR 27/22 A2989 RMK AO2 SLP122 T02720217 10333 20272 53001 TSNO;EQDQ01+000000PRSWM2
0071722115999992000091323009+27383-082550NSRDB+001099999V020999999999999999999999999999+99999+99999999999ADDGP10060015502008040402015005802008GQ100600760926659GR100600326913519
0071722115999992000091720009+27383-082550NSRDB+001099999V020999999999999999999999999999+99999+99999999999ADDGP10060055102008029802015032102008GQ100600395923489GR100601043913549
0275722115999992000091720534+27400-082550FM-15+0009KSRQ V0202301N011812200019N0160931N1+02801+02201100831ADDAA101000021AA203000021GD12991+0075019GD22991+0105019GF104991999999999999999999MA1100851999999MD1110091+9999MW1001OC101441REMMET123KSRQ 172053Z 23023G28KT 10SM FEW025 SCT035 28/22 A2978 RMK A2 PK WND 21032/1954 RAE1957 SLP083 P0000 60000 T02780222 51009;EQDQ01+000000PRSWM2
0214722115999992000091722534+27400-082550FM-15+0009KSRQ V0202501N011812200019N0160931N1+02701+02101100931ADDGD12991+0090019GD22991+0300019GF104991999999999999999999MA1100951999999MW1001OC101651REMMET098KSRQ 172253Z 25023G32KT 10SM FEW030 SCT100 27/21 A2981 RMK AO2 PK WND 26032/2253 SLP093 T02720211;EQDQ01+000000PRSWM2
0151722115999992000092311534+27400-082550FM-16+0009KSRQ V0209999C000012200019N0160931N1+99999+99999101671ADDGF100991999999999999999999MA1101661999999MD1310171+9999MW1001REMMET059KSRQ 231153Z 00000KT 10SM CLR A3002 RMK AO2 SLP167 53017 $;EQDQ01+000000PRSWM2
0173722115999992000092507534+27400-082550FM-15+0009KSRQ V0200701N002112200019N0096561N1+02401+02301101251ADDGF100991999999999999999999MA1101251999999MW1101REMMET079KSRQ 250753Z AUTO 07004KT 6SM BR CLR 24/23 A2990 RMK AO2 SLP125 T02390233 TSNO;EQDQ01+000003PRSWM1Q02    003PRSWM1
0054722115999992000092508009+27383-082550NSRDB+001099999V020999999999999999999999999999+99999+99999999999ADDGP10060000002000000002000000002000GR100600000900009
0054722115999992000092701009+27383-082550NSRDB+001099999V020999999999999999999999999999+99999+99999999999ADDGP10060000002000000002000000002000GR100600000900009
0145722115999992000092701534+27400-082550FM-15+0009KSRQ V0203301N002112200019N0160931N1+02601+02301101501ADDGF100991999999999999999999MA1101521999999MW1001REMMET067KSRQ 270153Z 33004KT 10SM CLR 26/23 A2998 RMK AO2 SLP150 T02610233;EQDQ01+000000PRSWM2
0145722115999992000092903534+27400-082550FM-15+0009KSRQ V0200601N004612200019N0160931N1+02401+02001101341ADDGF100991999999999999999999MA1101351999999MW1001REMMET067KSRQ 290353Z 06009KT 10SM CLR 24/20 A2993 RMK AO2 SLP134 T02390200;EQDQ01+000000PRSWM2
0071722115999992000092912009+27383-082550NSRDB+001099999V020999999999999999999999999999+99999+99999999999ADDGP10060000302008003602015000202008GQ100600862909489GR100600054908299
0163722115999992000100119534+27400-082550FM-15+0009KSRQ V0203601N004112200019N0160931N1+03001+02101101031ADDGD12991+0117019GF104991999999999999999999MA1101051999999MW1001REMMET070KSRQ 011953Z 36008KT 10SM SCT039 30/21 A2984 RMK AO2 SLP103 T03000206;EQDQ01+000000PRSWM2
0162722115999992000100510534+27400-082550FM-15+0009KSRQ V0209999C000012200019N0112651N1+02301+02301101541ADDGD12991+0060019GF104991999999999999999999MA1101561999999MW1001REMMET069KSRQ 051053Z 00000KT 7SM SCT020 23/23 A2999 RMK AO2 SLP154 T02330228;EQDQ01+000000PRSWM2
0165722115999992000100520534+27400-082550FM-15+0009KSRQ V0202801N003612200019N0160931N1+03001+02401101491ADDGF100991999999999999999999MA1101491999999MD1610091+9999MW1001REMMET073KSRQ 052053Z 28007KT 10SM CLR 30/24 A2997 RMK AO2 SLP149 T03000244 56009;EQDQ01+000000PRSWM2
0054722115999992000100608009+27383-082550NSRDB+001099999V020999999999999999999999999999+99999+99999999999ADDGP10060000002000000002000000002000GR100600000900009
0054722115999992000100902009+27383-082550NSRDB+001099999V020999999999999999999999999999+99999+99999999999ADDGP10060000002000000002000000002000GR100600000900009
0054722115999992000101307009+27383-082550NSRDB+001099999V020999999999999999999999999999+99999+99999999999ADDGP10060000002000000002000000002000GR100600000900009
0183722115999992000101504534+27400-082550FM-15+0009KSRQ V0200401N003112200019N0160931N1+02001+01701101901ADDGF100991999999999999999999KA1999M+02891KA2999N+01721MA1101901999999MW1001REMMET079KSRQ 150453Z 04006KT 10SM CLR 20/17 A3009 RMK AO2 SLP190 T02000167 402890172 $;EQDQ01+000000PRSWM2
0213722115999992000101723534+27400-082550FM-15+0009KSRQ V0203301N002612200019N0160931N1+02101+01301101691ADDGF100991999999999999999999KA1999M+02831KA2999N+02061MA1101691999999MD1310091+9999MW1001REMMET095KSRQ 172353Z AUTO 33005KT 10SM CLR 21/13 A3003 RMK AO2 SLP169 T02060133 10283 20206 53009 TSNO;EQDQ01+000000PRSWM2
0221722115999992000101811534+27400-082550FM-15+0009KSRQ V0209999C000012200019N0032181N1+01401+01301101811ADDGF100991999999999999999999KA1999M+01721KA2999N+01331MA1101831999999MD1210111+9999MW1101REMMET087KSRQ 181153Z 00000KT 2SM BR CLR 14/13 A3007 RMK AO2 SLP181 T01390133 10172 20133 52011;EQDQ01+000003PRSWM1Q02    003PRSWM1
0071722115999992000101823009+27383-082550NSRDB+001099999V020999999999999999999999999999+99999+99999999999ADDGP10060004002008020602015002002008GQ100600842925569GR100600131912989
0054722115999992000102004009+27383-082550NSRDB+001099999V020999999999999999999999999999+99999+99999999999ADDGP10060000002000000002000000002000GR100600000900009
0071722115999992000102413009+27383-082550NSRDB+001099999V020999999999999999999999999999+99999+99999999999ADDGP10060012302008027802015007102008GQ100600792910979GR100600259913839
0071722115999992000102621009+27383-082550NSRDB+001099999V020999999999999999999999999999+99999+99999999999ADDGP10060039202008046202015017602008GQ100600622923629GR100600645913859
0054722115999992000102911009+27383-082550NSRDB+001099999V020999999999999999999999999999+99999+99999999999ADDGP10060000002000000002000000002000GR100600000900009
0054722115999992000103003009+27383-082550NSRDB+001099999V020999999999999999999999999999+99999+99999999999ADDGP10060000002000000002000000002000GR100600000900009
0054722115999992000110301009+27383-082550NSRDB+001099999V020999999999999999999999999999+99999+99999999999ADDGP10060000002000000002000000002000GR100600000900009
0054722115999992000110606009+27383-082550NSRDB+001099999V020999999999999999999999999999+99999+99999999999ADDGP10060000002000000002000000002000GR100600000900009
0054722115999992000110608009+27383-082550NSRDB+001099999V020999999999999999999999999999+99999+99999999999ADDGP10060000002000000002000000002000GR100600000900009
0155722115999992000110815534+27400-082550FM-15+0009KSRQ V0201601N007712200019N0160931N1+02701+00101101641ADDGF100991999999999999999999MA1101661999999MW1001REMMET077KSRQ 081553Z AUTO 16015KT 10SM CLR 27/01 A3002 RMK AO2 SLP164 T02720011 TSNO;EQDQ01+000000PRSWM2
0359722115999992000111011534+27400-082550FM-15+0009KSRQ V0202801N005710039019N0012071N1+02301+02201101231ADDAA101005391AA206005391AA324005391GD12991+0003019GD23991+0039019GD34991+0111019GF108991999999999999999999KA1999M+02441KA2999N+02331MA1101251999999MD1310121+9999MW1101MW2651REMMET141KSRQ 101153Z 28011KT 3/4SM +RA BR FEW001 BKN013 OVC037 23/22 A2990 RMK AO2 RAB30 PRESRR SLP123 P0021 60021 70021 T02330222 10244 20233 53012;EQDQ01+000003PRSWM1Q02    003PRSWM1
0145722115999992000111022534+27400-082550FM-15+0009KSRQ V0203101N003612200019N0160931N1+02101+01701101301ADDGF100991999999999999999999MA1101321999999MW1001REMMET067KSRQ 102253Z 31007KT 10SM CLR 21/17 A2992 RMK AO2 SLP130 T02110172;EQDQ01+000000PRSWM2
0071722115999992000111114009+27383-082550NSRDB+001099999V020999999999999999999999999999+99999+99999999999ADDGP10060029002008055002015010602008GQ100600705912319GR100600465913969
0145722115999992000111600534+27400-082550FM-15+0009KSRQ V0200201N002112200019N0160931N1+01401+00601101861ADDGF100991999999999999999999MA1101861999999MW1001REMMET067KSRQ 160053Z 02004KT 10SM CLR 14/06 A3008 RMK AO2 SLP186 T01440056;EQDQ01+000000PRSWM2
0191722115999992000111707534+27400-082550FM-15+0009KSRQ V0201201N002110084019N0096561N1+01701+01701101471ADDGD13991+0084019GF107991999999999999999999MA1101491999999MW1101REMMET082KSRQ 170753Z AUTO 12004KT 6SM BR BKN028 17/17 A2997 RMK AO2 SLP147 T01720172 TSNO;EQDQ01+000003PRSWM1Q02    003PRSWM1
0145722115999992000111715534+27400-082550FM-15+0009KSRQ V0202101N005112200019N0160931N1+02601+02101101631ADDGF100991999999999999999999MA1101661999999MW1001REMMET067KSRQ 171553Z 21010KT 10SM CLR 26/21 A3002 RMK AO2 SLP163 T02610211;EQDQ01+000000PRSWM2
0145722115999992000111803534+27400-082550FM-15+0009KSRQ V0200201N002612200019N0160931N1+01901+01701101931ADDGF100991999999999999999999MA1101931999999MW1001REMMET067KSRQ 180353Z 02005KT 10SM CLR 19/17 A3010 RMK AO2 SLP193 T01890172;EQDQ01+000000PRSWM2
0054722115999992000112510009+27383-082550NSRDB+001099999V020999999999999999999999999999+99999+99999999999ADDGP10060000002000000002000000002000GR100600000900009
0219722115999992000112606023+27400-082550FM-16+0009KSRQ V0209999C000010081019N0160931N1+02101+02101999999ADDGD13991+0081019GD24991+0240019GF108991999999999999999999GP10060000002000000002000000002000GR100600000900009MA1101561999999MW1001REMMET060KSRQ 260602Z 00000KT 10SM BKN027 OVC085 21/21 A2999 RMK AO2;EQDQ01+000000PRSWM2
0071722115999992000112614009+27383-082550NSRDB+001099999V020999999999999999999999999999+99999+99999999999ADDGP10060004602008000002015004602008GQ100600733912549GR100600403914059
0054722115999992000112706009+27383-082550NSRDB+001099999V020999999999999999999999999999+99999+99999999999ADDGP10060000002000000002000000002000GR100600000900009
0071722115999992000112722009+27383-082550NSRDB+001099999V020999999999999999999999999999+99999+99999999999ADDGP10060014602008047202015004702008GQ100600779923809GR100600294914059
0145722115999992000120100534+27400-082550FM-15+0009KSRQ V0200301N002612200019N0160931N1+01701+01201102111ADDGF100991999999999999999999MA1102131999999MW1001REMMET067KSRQ 010053Z 03005KT 10SM CLR 17/12 A3016 RMK AO2 SLP211 T01720122;EQDQ01+000000PRSWM2
0054722115999992000120111009+27383-082550NSRDB+001099999V020999999999999999999999999999+99999+99999999999ADDGP10060000002000000002000000002000GR100600000900009
0155722115999992000120706534+27400-082550FM-15+0009KSRQ V0200701N001512200019N0160931N1+01201+00801101731ADDGF100991999999999999999999MA1101731999999MW1001REMMET077KSRQ 070653Z AUTO 07003KT 10SM CLR 12/08 A3004 RMK AO2 SLP173 T01170083 TSNO;EQDQ01+000000PRSWM2
0193722115999992000120708534+27400-082550FM-15+0009KSRQ V0200701N002112200019N0160931N1+01201+00801101711ADDGD12991+0147019GF104991999999999999999999MA1101731999999MD1710031+9999MW1001REMMET086KSRQ 070853Z AUTO 07004KT 10SM SCT049 12/08 A3004 RMK AO2 SLP171 T01170078 57003 TSNO;EQDQ01+000000PRSWM2
0054722115999992000120812009+27383-082550NSRDB+001099999V020999999999999999999999999999+99999+99999999999ADDGP10060000002000000002000000002000GR100600000900009
0221722115999992000120911534+27400-082550FM-15+0009KSRQ V0200501N002112200019N0048281N1+01501+01501101941ADDGF100991999999999999999999KA1999M+01611KA2999N+01391MA1101961999999MD1310101+9999MW1101REMMET087KSRQ 091153Z 05004KT 3SM BR CLR 15/15 A3011 RMK AO2 SLP194 T01500150 10161 20139 53010;EQDQ01+000003PRSWM1Q02    003PRSWM1
0189722115999992000121514534+27400-082550FM-15+0009KSRQ V0201101N004610012019N0080461N1+02201+01801102531ADDGD14991+0012019GF108991999999999999999999MA1102541999999MW1101REMMET080KSRQ 151453Z 11009KT 5SM BR OVC004 22/18 A3028 RMK AO2 SLP253 6//// T02170178 $;EQDQ01+000003PRSWM1Q02    003PRSWM1
0233722115999992000121600534+27400-082550FM-15+0009KSRQ V02099999999990126019N0160931N1+02201+02101102161ADDAA101000591GD12991+0099019GD23991+0126019GD33991+0150019GF107991999999999999999999MA1102171999999MW1001REMMET099KSRQ 160053Z VRB03KT 10SM SCT033 BKN042 BKN055 22/21 A3017 RMK AO2 RAB33E49 SLP216 P0002 T02220211;EQDQ01+000000PRSWM2
0071722115999992000122418009+27383-082550NSRDB+001099999V020999999999999999999999999999+99999+99999999999ADDGP10060053602008043802015025902008GQ100600509918009GR100600891914149
0203722115999992000122623534+27400-082550FM-15+0009KSRQ V0200601N004612200019N0160931N1+01801+01301102361ADDGF100991999999999999999999KA1999M+02391KA2999N+01781MA1102371999999MD1310181+9999MW1001REMMET085KSRQ 262353Z 06009KT 10SM CLR 18/13 A3023 RMK AO2 SLP236 T01780128 10239 20178 53018;EQDQ01+000000PRSWM2
0154722115999992000122709534+27400-082550FM-15+0009KSRQ V0200601N003112200019N0144841N1+01201+01101102181ADDGF100991999999999999999999MA1102201999999MW1001REMMET076KSRQ 270953Z AUTO 06006KT 9SM CLR 12/11 A3018 RMK AO2 SLP218 T01170111 TSNO;EQDQ01+000000PRSWM2
0071722116999992000010213009+27900-082683NSRDB+000399999V020999999999999999999999999999+99999+99999999999ADDGP10060000402008014602015000102008GQ100600867911809GR100600049908619
0071722116999992000010313009+27900-082683NSRDB+000399999V020999999999999999999999999999+99999+99999999999ADDGP10060000402008014502015000102008GQ100600868911799GR100600049908619
0054722116999992000010408009+27900-082683NSRDB+000399999V020999999999999999999999999999+99999+99999999999ADDGP10060000002000000002000000002000GR100600000900009
0146722116999992000010412024+27920-082680FM-16+0003KPIE V0209999C000012200019N0080461N1+01701+01701999999ADDGF100991999999999999999999MA1102031999999MW1101REMMET052KPIE 041202Z 00000KT 5SM BR CLR 17/17 A3013 RMK AO2;EQDQ01+000003PRSWM1Q02    003PRSWM1
0071722116999992000010715009+27900-082683NSRDB+000399999V020999999999999999999999999999+99999+99999999999ADDGP10060015402008000602015015102008GQ100600676913349GR100600539914159
0162722116999992000010719534+27920-082680FM-15+0003KPIE V0200101N003110075019N0144841N1+02201+01901102351ADDGD13991+0075019GF107991999999999999999999MA1102371999999MW1001REMMET069KPIE 071953Z 01006KT 9SM BKN025 22/19 A3023 RMK AO2 SLP235 T02220189;EQDQ01+000000PRSWM2
0054722116999992000010812009+27900-082683NSRDB+000399999V020999999999999999999999999999+99999+99999999999ADDGP10060000002000000002000000002000GR100600000900009
0145722116999992000010921534+27920-082680FM-15+0003KPIE V0202001N005712200019N0160931N1+02301+01801101811ADDGF100991999999999999999999MA1101831999999MW1001REMMET067KPIE 092153Z 20011KT 10SM CLR 23/18 A3007 RMK AO2 SLP181 T02280183;EQDQ01+000000PRSWM2
0174722116999992000011015534+27920-082680FM-15+0003KPIE V0202201N008712200019N0160931N1+02501+02001101851ADDGD12991+0048019GF102991999999999999999999MA1101861999999MW1001OC101031REMMET073KPIE 101553Z 22017G20KT 10SM FEW016 25/20 A3008 RMK AO2 SLP185 T02500200;EQDQ01+000000PRSWM2
0144722116999992000011112534+27920-082680FM-15+0003KPIE V0203601N003112200019N0112651N1+01701+01701102181ADDGF100991999999999999999999MA1102201999999MW1001REMMET066KPIE 111253Z 36006KT 7SM CLR 17/17 A3018 RMK AO2 SLP218 T01720167;EQDQ01+000000PRSWM2
0168722116999992000011916444+27920-082680FM-16+0003KPIE V0203001N002610270019N0160931N1+02101+01701999999ADDGD12991+0045019GD24991+0270019GF108991999999999999999999MA1101831999999MW1001REMMET060KPIE 191644Z 30005KT 10SM SCT015 OVC090 21/17 A3007 RMK AO2;EQDQ01+000000PRSWM2
0183722116999992000012020534+27920-082680FM-15+0003KPIE V0203001N009312200019N0160931N1+02001+01201101161ADDGD12991+0069019GF102991999999999999999999MA1101151999999MD1510021+9999MW1001REMMET076KPIE 202053Z 30018KT 10SM FEW023 20/12 A2987 RMK AO2 SLP116 T02000117 55002;EQDQ01+000000PRSWM2
0145722116999992000012021534+27920-082680FM-15+0003KPIE V0202901N006212200019N0160931N1+01901+01101101201ADDGF100991999999999999999999MA1101221999999MW1001REMMET067KPIE 202153Z 29012KT 10SM CLR 19/11 A2989 RMK AO2 SLP120 T01890106;EQDQ01+000000PRSWM2
0054722116999992000012510009+27900-082683NSRDB+000399999V020999999999999999999999999999+99999+99999999999ADDGP10060000002000000002000000002000GR100600000900009
0071722116999992000012600009+27900-082683NSRDB+000399999V020999999999999999999999999999+99999+99999999999ADDGP10060000002008000002015000002008GQ100600896924859GR100600001900829
0071722116999992000013000009+27900-082683NSRDB+000399999V020999999999999999999999999999+99999+99999999999ADDGP10060000002008000002015000002008GQ100600894924969GR100600002901769
0071722116999992000013014009+27900-082683NSRDB+000399999V020999999999999999999999999999+99999+99999999999ADDGP10060016402008029902015009402008GQ100600765911899GR100600329914109
0186722116999992000020201534+27920-082680FM-15+0003KPIE V0203601N003610300019N0160931N1+01401+00901102321ADDAA101000021GD14991+0300019GF108991999999999999999999MA1102341999999MW1001REMMET082KPIE 020153Z 36007KT 10SM OVC100 14/09 A3022 RMK AO2 RAE10 SLP232 P0000 T01390094;EQDQ01+000000PRSWM2
0146722116999992000020323304+27920-082680FM-15+0003KPIE V0203401N001512200019N0160931N1+01601+01101999999ADDGD12991+0084019GF104991999999999999999999MA1101801999999MW1001REMMET053KPIE 032330Z 34003KT 10SM SCT028 16/11 A3006 RMK AO2;EQDQ01+000000PRSWM2
0203722116999992000020405534+27920-082680FM-15+0003KPIE V0209999C000012200019N0160931N1+01201+00701101851ADDGF100991999999999999999999KA1999M+01501KA2999N+01111MA1101861999999MD1610081+9999MW1001REMMET085KPIE 040553Z 00000KT 10SM CLR 12/07 A3008 RMK AO2 SLP185 T01170067 10150 20111 56008;EQDQ01+000000PRSWM2
0145722116999992000020816534+27920-082680FM-15+0003KPIE V0203501N003612200019N0160931N1+01801+00401102561ADDGF100991999999999999999999MA1102571999999MW1001REMMET067KPIE 081653Z 35007KT 10SM CLR 18/04 A3029 RMK AO2 SLP256 T01830044;EQDQ01+000000PRSWM2
0054722116999992000020907009+27900-082683NSRDB+000399999V020999999999999999999999999999+99999+99999999999ADDGP10060000002000000002000000002000GR100600000900009
0228722116999992000021418114+27920-082680FM-16+0003KPIE V0201901N010310075019N0144841N1+02301+02001999999ADDGD13991+0075019GD24991+0330019GF108991999999999999999999MA1101691999999MW1611OC101341REMMET096KPIE 141811Z 19020G26KT 9SM -RA BKN025 OVC110 23/20 A3003 RMK AO2 PK WND 19030/1756 RAB08 P0000;EQDQ01+000003PRSWM1Q02    003PRSWM1
0221722116999992000021500534+27920-082680FM-15+0003KPIE V0201501N003610240019N0128741N1+02101+01901101751ADDAA101000891GD12991+0150019GD24991+0240019GF108991999999999999999999MA1101761999999MW1611REMMET086KPIE 150053Z 15007KT 8SM -RA FEW050 OVC080 21/19 A3005 RMK AO2 SLP175 P0003 T02060194;EQDQ01+000003PRSWM1Q02    003PRSWM1
0183722116999992000021604534+27920-082680FM-15+0003KPIE V0201001N003112200019N0160931N1+01701+01201102351ADDGF100991999999999999999999KA1999M+02721KA2999N+01611MA1102371999999MW1001REMMET079KPIE 160453Z 10006KT 10SM CLR 17/12 A3023 RMK AO2 SLP235 T01720122 402720161 $;EQDQ01+000000PRSWM2
0071722116999992000021615009+27900-082683NSRDB+000399999V020999999999999999999999999999+99999+99999999999ADDGP10060045802008081202015007702008GQ100600621912409GR100600655914019
0152722116999992000021707444+27920-082680FM-16+0003KPIE V0209999C000012200019N0028161N1+01601+01601999999ADDGF100991999999999999999999MA1102241999999MW1101REMMET058KPIE 170744Z 00000KT 1 3/4SM BR CLR 16/16 A3019 RMK AO2 $;EQDQ01+000003PRSWM1Q02    003PRSWM1
0054722116999992000021806009+27900-082683NSRDB+000399999V020999999999999999999999999999+99999+99999999999ADDGP10060000002000000002000000002000GR100600000900009
0217722116999992000021906003+27920-082680FM-15+0003KPIE V0209999C000012200019N0048281N1+01901+01801999999ADDGD12991+0210019GF104991999999999999999999GP10060000002000000002000000002000GR100600000900009MA1102241999999MW1101REMMET057KPIE 190555Z 00000KT 3SM BR SCT070 19/18 A3019 RMK AO2 $;EQDQ01+000003PRSWM1Q02    003PRSWM1
0203722116999992000022205534+27920-082680FM-15+0003KPIE V0200401N007712200019N0160931N1+01401+01001102641ADDGF100991999999999999999999KA1999M+01671KA2999N+01391MA1102641999999MD1810041+9999MW1001REMMET085KPIE 220553Z 04015KT 10SM CLR 14/10 A3031 RMK AO2 SLP264 T01390100 10167 20139 58004;EQDQ01+000000PRSWM2
0221722116999992000022223534+27920-082680FM-15+0003KPIE V0200701N006210210019N0160931N1+02301+01201102451ADDGD14991+0210019GF108991999999999999999999KA1999M+02611KA2999N+02221MA1102471999999MD1310061+9999MW1001REMMET088KPIE 222353Z 07012KT 10SM OVC070 23/12 A3026 RMK AO2 SLP245 T02280122 10261 20222 53006;EQDQ01+000000PRSWM2
0054722116999992000022303009+27900-082683NSRDB+000399999V020999999999999999999999999999+99999+99999999999ADDGP10060000002000000002000000002000GR100600000900009
0071722116999992000022419009+27900-082683NSRDB+000399999V020999999999999999999999999999+99999+99999999999ADDGP10060051402008019702015036102008GQ100600392919809GR100601082913969
0185722116999992000022500534+27920-082680FM-15+0003KPIE V0200801N002110150019N0160931N1+02201+01601102331ADDGD13991+0150019GD24991+0210019GF108991999999999999999999MA1102341999999MW1001REMMET077KPIE 250053Z 08004KT 10SM BKN055 OVC075 22/16 A3022 RMK AO2 SLP233 T02220161;EQDQ01+000000PRSWM2
0071722116999992000022716009+27900-082683NSRDB+000399999V020999999999999999999999999999+99999+99999999999ADDGP10060067802008087502015009902008GQ100600487913379GR100600919913949
0071722116999992000030100009+27900-082683NSRDB+000399999V020999999999999999999999999999+99999+99999999999ADDGP10060000002008000002015000002008GQ100600871926009GR100600035906859
0054722116999992000030304009+27900-082683NSRDB+000399999V020999999999999999999999999999+99999+99999999999ADDGP10060000002000000002000000002000GR100600000900009
0054722116999992000030404009+27900-082683NSRDB+000399999V020999999999999999999999999999+99999+99999999999ADDGP10060000002000000002000000002000GR100600000900009
0071722116999992000030617009+27900-082683NSRDB+000399999V020999999999999999999999999999+99999+99999999999ADDGP10060079802008082602015014202008GQ100600377915009GR100601098913899
0054722116999992000030703009+27900-082683NSRDB+000399999V020999999999999999999999999999+99999+99999999999ADDGP10060000002000000002000000002000GR100600000900009
0071722116999992000030718009+27900-082683NSRDB+000399999V020999999999999999999999999999+99999+99999999999ADDGP10060087602008085302015016002008GQ100600332917479GR100601161913889
0168722116999992000031212314+27920-082680FM-16+0003KPIE V0203301N007210039019N0160931N1+01901+01701999999ADDGD13991+0039019GD24991+0150019GF108991999999999999999999MA1101831999999MW1001REMMET060KPIE 121231Z 33014KT 10SM BKN013 OVC050 19/17 A3007 RMK AO2;EQDQ01+000000PRSWM2
0071722116999992000031620009+27900-082683NSRDB+000399999V020999999999999999999999999999+99999+99999999999ADDGP10060018502008001202015017502008GQ100600397922659GR100601062913819
0145722116999992000032315534+27920-082680FM-15+0003KPIE V0200401N005112200019N0160931N1+02201+01101102011ADDGF100991999999999999999999MA1102031999999MW1001REMMET067KPIE 231553Z 04010KT 10SM CLR 22/11 A3013 RMK AO2 SLP201 T02220106;EQDQ01+000000PRSWM2
0145722116999992000032421534+27920-082680FM-15+0003KPIE V0203201N005112200019N0160931N1+02601+01701101791ADDGF100991999999999999999999MA1101801999999MW1001REMMET067KPIE 242153Z 32010KT 10SM CLR 26/17 A3006 RMK AO2 SLP179 T02560167;EQDQ01+000000PRSWM2
0071722116999992000032819009+27900-082683NSRDB+000399999V020999999999999999999999999999+99999+99999999999ADDGP10060089202008082602015016102008GQ100600280920979GR100601210913719
0205722116999992000033005534+27920-082680FM-15+0003KPIE V0201401N001512200019N0160931N1+02201+02101101381ADDGF100991999999999999999999KA1999M+02441KA2999N+02221MA1101391999999MD1510021+9999MW1001REMMET087KPIE 300553Z 14003KT 10SM CLR 22/21 A2994 RMK AO2 SLP138 T02220206 10244 20222 55002 $;EQDQ01+000000PRSWM2
0188722116999992000033101534+27920-082680FM-15+0003KPIE V0202201N005710027019N0128741N1+02401+02301101291ADDGD13991+0027019GD24991+0039019GF108991999999999999999999MA1101291999999MW1001REMMET080KPIE 310153Z COR 22011KT 8SM BKN009 OVC013 24/23 A2991 RMK AO2 SLP129 T02440228;EQDQ01+000000PRSWM2
0298722116999992000040414534+27920-082680FM-15+0003KPIE V0202901N004610123019N0160931N1+02201+01701101621ADDAA101000591AA203000591GD13991+0123019GD23991+0150019GD34991+0210019GF108991999999999999999999MA1101631999999MD1310121+9999MW1611REMMET123KPIE 041453Z 29009KT 10SM -RA BKN041 BKN050 OVC070 22/17 A3001 RMK AO2 WSHFT 1400 RAB19 SLP162 P0002 60002 T02220167 53012;EQDQ01+000003PRSWM1Q02    003PRSWM1
0071722116999992000040419009+27900-082683NSRDB+000399999V020999999999999999999999999999+99999+99999999999ADDGP10060027802008000602015027202008GQ100600259921349GR100601228913669
0071722116999992000041315009+27900-082683NSRDB+000399999V020999999999999999999999999999+99999+99999999999ADDGP10060066102008073102015015802008GQ100600464910479GR100600934913599
0071722116999992000041618009+27900-082683NSRDB+000399999V020999999999999999999999999999+99999+99999999999ADDGP10060058902008017402015042302008GQ100600179917979GR100601290913569
0054722116999992000041708009+27900-082683NSRDB+000399999V020999999999999999999999999999+99999+99999999999ADDGP10060000002000000002000000002000GR100600000900009
0185722116999992000042116534+27920-082680FM-15+0003KPIE V0202401N005710123019N0160931N1+02601+01701101491ADDGD12991+0099019GD23991+0123019GF107991999999999999999999MA1101491999999MW1001REMMET077KPIE 211653Z 24011KT 10SM SCT033 BKN041 26/17 A2997 RMK AO2 SLP149 T02610172;EQDQ01+000000PRSWM2
0189722116999992000042503224+27920-082680FM-16+0003KPIE V0202101N007710087019N0144841N1+02501+02301999999ADDGD12991+0042019GD23991+0087019GD34991+0180019GF108991999999999999999999MA1101021999999MW1001REMMET066KPIE 250322Z 21015KT 9SM SCT014 BKN029 OVC060 25/23 A2983 RMK AO2;EQDQ01+000000PRSWM2
0219722116999992000042509534+27920-082680FM-15+0003KPIE V0202601N007710036019N0112651N1+02401+02201100951ADDAA101000021GD13991+0036019GF107991999999999999999999MA1100951999999MW1001OC101081REMMET107KPIE 250953Z 26015G21KT 7SM BKN012 24/22 A2981 RMK AO2 PK WND 25030/0921 RAB31E47 SLP095 P0000 T02390217 $;EQDQ01+000000PRSWM2
0071722116999992000042801009+27900-082683NSRDB+000399999V020999999999999999999999999999+99999+99999999999ADDGP10060000002008000002015000002008GQ100600898928639GR100600000900349
0196722116999992000042903534+27920-082680FM-15+0003KPIE V0202401N006210147019N0160931N1+02301+01801101541ADDGD12991+0090019GD23991+0147019GF107991999999999999999999MA1101561999999MW1001OC100821REMMET080KPIE 290353Z 24012G16KT 10SM FEW030 BKN049 23/18 A2999 RMK AO2 SLP154 T02330183;EQDQ01+000000PRSWM2
0145722116999992000042916534+27920-082680FM-15+0003KPIE V0202701N006212200019N0160931N1+02801+01401101741ADDGF100991999999999999999999MA1101761999999MW1001REMMET067KPIE 291653Z 27012KT 10SM CLR 28/14 A3005 RMK AO2 SLP174 T02830144;EQDQ01+000000PRSWM2
0145722116999992000042918534+27920-082680FM-15+0003KPIE V0202701N006212200019N0160931N1+02801+01401101651ADDGF100991999999999999999999MA1101661999999MW1001REMMET067KPIE 291853Z 27012KT 10SM CLR 28/14 A3002 RMK AO2 SLP165 T02780144;EQDQ01+000000PRSWM2
0071722116999992000043023009+27900-082683NSRDB+000399999V020999999999999999999999999999+99999+99999999999ADDGP10060026402008052202015008902008GQ100600704927719GR100600451913469
0163722116999992000050300534+27920-082680FM-15+0003KPIE V0203501N003110240019N0160931N1+02401+01801101821ADDGD13991+0240019GF107991999999999999999999MA1101831999999MW1001REMMET070KPIE 030053Z 35006KT 10SM BKN080 24/18 A3007 RMK AO2 SLP182 T02390178;EQDQ01+000000PRSWM2
0193722116999992000051010003+27920-082680FM-16+0003KPIE V0201601N002110051019N0160931N1+99999+99999999999ADDGD13991+0051019GF107991999999999999999999GP10060000002000000002000000002000GR100600000900009MA1101561999999MW1001REMMET049KPIE 101000Z 16004KT 10SM BKN017 A2999 RMK AO2 $;EQDQ01+000000PRSWM2
0227722116999992000051014534+27920-082680FM-15+0003KPIE V02099999999990180019N0160931N1+02801+02201101771ADDGD12991+0075019GD22991+0111019GD33991+0180019GF107991999999999999999999MA1101761999999MD1110101+9999MW1001REMMET090KPIE 101453Z VRB05KT 10SM FEW025 SCT037 BKN060 28/22 A3005 RMK AO2 SLP177 T02800220 51010;EQDQ01+000000PRSWM2
0071722116999992000051101009+27900-082683NSRDB+000399999V020999999999999999999999999999+99999+99999999999ADDGP10060000002008000002015000002008GQ100600892929029GR100600003902129
0203722116999992000051123534+27920-082680FM-15+0003KPIE V0202801N004112200019N0160931N1+02701+02201101551ADDGF100991999999999999999999KA1999M+03221KA2999N+02721MA1101561999999MD1610041+9999MW1001REMMET085KPIE 112353Z 28008KT 10SM CLR 27/22 A2999 RMK AO2 SLP155 T02720217 10322 20272 56004;EQDQ01+000000PRSWM2
0071722116999992000051216009+27900-082683NSRDB+000399999V020999999999999999999999999999+99999+99999999999ADDGP10060081702008068802015021202008GQ100600285910379GR100601173913389
0202722116999992000051416454+27920-082680FM-15+0003KPIE V0203201N005112200019N0160931N1+03101+02201999999ADDGD12991+0087019GF102991999999999999999999MA1101831999999MW1171REMMET093KPIE 141645Z 32010KT 10SM TS FEW029 31/22 A3007 RMK AO2 TSB45 TSB42 TS DSNT S MOV NW LTGCC S;EQDQ01+000003PRSWM1Q02    003PRSWM1
0165722116999992000051420534+27920-082680FM-15+0003KPIE V0203101N005712200019N0160931N1+03101+02101101571ADDGF100991999999999999999999MA1101591999999MD1610201+9999MW1001REMMET073KPIE 142053Z 31011KT 10SM CLR 31/21 A3000 RMK AO2 SLP157 T03060206 56020;EQDQ01+000000PRSWM2
0071722116999992000051518009+27900-082683NSRDB+000399999V020999999999999999999999999999+99999+99999999999ADDGP10060063102008018002015045302008GQ100600097918399GR100601317913369
0054722116999992000051703009+27900-082683NSRDB+000399999V020999999999999999999999999999+99999+99999999999ADDGP10060000002000000002000000002000GR100600000900009
0173722116999992000051714534+27920-082680FM-15+0003KPIE V0201001N005112200019N0160931N1+02801+01901102061ADDGF100991999999999999999999MA1102071999999MD1110061+9999MW1001REMMET081KPIE 171453Z 10010KT 060V130 10SM CLR 28/19 A3014 RMK AO2 SLP206 T02830189 51006;EQDQ01+000000PRSWM2
0203722116999992000052011534+27920-082680FM-15+0003KPIE V0201501N004112200019N0160931N1+02301+01901101901ADDGF100991999999999999999999KA1999M+02391KA2999N+02171MA1101901999999MD1310071+9999MW1001REMMET085KPIE 201153Z 15008KT 10SM CLR 23/19 A3009 RMK AO2 SLP190 T02330189 10239 20217 53007;EQDQ01+000000PRSWM2
0145722116999992000052100534+27920-082680FM-15+0003KPIE V0202801N002112200019N0160931N1+02601+02001101641ADDGF100991999999999999999999MA1101661999999MW1001REMMET067KPIE 210053Z 28004KT 10SM CLR 26/20 A3002 RMK AO2 SLP164 T02560200;EQDQ01+000000PRSWM2
0071722116999992000052711009+27900-082683NSRDB+000399999V020999999999999999999999999999+99999+99999999999ADDGP10060000002008000002015000002008GQ100600879906669GR100600018904999
0054722116999992000052802009+27900-082683NSRDB+000399999V020999999999999999999999999999+99999+99999999999ADDGP10060000002000000002000000002000GR100600000900009
0165722116999992000052814534+27920-082680FM-15+0003KPIE V0203101N004612200019N0160931N1+03301+02101101681ADDGF100991999999999999999999MA1101691999999MD1110071+9999MW1001REMMET073KPIE 281453Z 31009KT 10SM CLR 33/21 A3003 RMK AO2 SLP168 T03280206 51007;EQDQ01+000000PRSWM2
0168722116999992000052914164+27920-082680FM-16+0003KPIE V0202801N007212200019N0160931N1+03101+02301999999ADDGD12991+0075019GD22991+0090019GF104991999999999999999999MA1101291999999MW1001REMMET060KPIE 291416Z 28014KT 10SM SCT025 SCT030 31/23 A2991 RMK AO2;EQDQ01+000000PRSWM2
0181722116999992000053004534+27920-082680FM-15+0003KPIE V0202801N001512200019N0160931N1+02401+01901101201ADDGF100991999999999999999999KA1999M+03281KA2999N+02441MA1101221999999MW1001REMMET077KPIE 300453Z 28003KT 10SM CLR 24/19 A2989 RMK AO2 SLP120 T02440189 403280244;EQDQ01+000000PRSWM2
0071722116999992000053018009+27900-082683NSRDB+000399999V020999999999999999999999999999+99999+99999999999ADDGP10060095602008069002015026902008GQ100600071918289GR100601318913299
0071722116999992000053122009+27900-082683NSRDB+000399999V020999999999999999999999999999+99999+99999999999ADDGP10060049602008060002015014802008GQ100600545927839GR100600770913289
0071722116999992000060212009+27900-082683NSRDB+000399999V020999999999999999999999999999+99999+99999999999ADDGP10060011402008016202015008402008GQ100600794907029GR100600243913289
0054722116999992000060310009+27900-082683NSRDB+000399999V020999999999999999999999999999+99999+99999999999ADDGP10060000002000000002000000002000GR100600000900009
0145722116999992000060406534+27920-082680FM-15+0003KPIE V0202401N002112200019N0160931N1+02601+02301101671ADDGF100991999999999999999999MA1101691999999MW1001REMMET067KPIE 040653Z 24004KT 10SM CLR 26/23 A3003 RMK AO2 SLP167 T02610228;EQDQ01+000000PRSWM2
0145722116999992000060416534+27920-082680FM-15+0003KPIE V0202901N004112200019N0160931N1+03301+02001101721ADDGF100991999999999999999999MA1101731999999MW1001REMMET067KPIE 041653Z 29008KT 10SM CLR 33/20 A3004 RMK AO2 SLP172 T03280200;EQDQ01+000000PRSWM2
0071722116999992000060419009+27900-082683NSRDB+000399999V020999999999999999999999999999+99999+99999999999ADDGP10060076802008045502015032902008GQ100600148925069GR100601280913279
0054722116999992000060608009+27900-082683NSRDB+000399999V020999999999999999999999999999+99999+99999999999ADDGP10060000002000000002000000002000GR100600000900009
0071722116999992000060620009+27900-082683NSRDB+000399999V020999999999999999999999999999+99999+99999999999ADDGP10060076602008062102015021602008GQ100600276926599GR100601172913269
0254722116999992000060823534+27920-082680FM-15+0003KPIE V0201801N006210330019N0160931N1+02801+02101101841ADDGD12991+0210019GD24991+0330019GF108991999999999999999999KA1999M+03391KA2999N+02781MA1101861999999MD1310171+9999MW1001REMMET106KPIE 082353Z 18012KT 10SM FEW075 OVC110 28/21 A3008 RMK AO2 WSHFT 2303 SLP184 T02780206 10339 20278 53017;EQDQ01+000000PRSWM2
0071722116999992000061019009+27900-082683NSRDB+000399999V020999999999999999999999999999+99999+99999999999ADDGP10060089302008074802015016802008GQ100600144925219GR100601281913259
0196722116999992000061101534+27920-082680FM-15+0003KPIE V0201001N007210240019N0160931N1+02801+02001101841ADDGD12991+0210019GD23991+0240019GF107991999999999999999999MA1101861999999MW1001OC100981REMMET080KPIE 110153Z 10014G19KT 10SM SCT070 BKN085 28/20 A3008 RMK AO2 SLP184 T02780200;EQDQ01+000000PRSWM2
0151722116999992000061121534+27920-082680FM-15+0003KPIE V0209999C000012200019N0160931N1+02801+02301101831ADDGF100991999999999999999999MA1101831999999MW1001REMMET073KPIE 112153Z 00000KT 10SM CLR 28/23 A3007 RMK AO2 SLP183 T02830228 PNO $;EQDQ01+000000PRSWM2
0151722116999992000061206534+27920-082680FM-15+0003KPIE V0201301N003612200019N0160931N1+02601+02201101961ADDGF100991999999999999999999MA1101961999999MW1001REMMET073KPIE 120653Z 13007KT 10SM CLR 26/22 A3011 RMK AO2 SLP196 T02560222 PNO $;EQDQ01+000000PRSWM2
0292722116999992000061211534+27920-082680FM-15+0003KPIE V0201501N002610117019N0160931N1+02701+02301102131ADDGD12991+0039019GD22991+0084019GD33991+0117019GF107991999999999999999999KA1999M+02671KA2999N+02561MA1102131999999MD1110221+9999MW1001REMMET129KPIE 121153Z 15005KT 10SM FEW013 SCT028 BKN039 27/23 A3016 RMK AO2 RAB06E17 SLP213 6//// 7//// T02670228 10267 20256 51022 PNO $;EQDQ01+000000PRSWM2
0177722116999992000061405534+27920-082680FM-15+0003KPIE V0200701N003612200019N0160931N1+02501+02301101901ADDGF100991999999999999999999MA1101901999999MD1810101+9999MW1001REMMET085KPIE 140553Z 07007KT 10SM CLR 25/23 A3009 RMK AO2 SLP190 6//// T02500230 58010 PNO $;EQDQ01+000000PRSWM2
0169722116999992000061418534+27920-082680FM-15+0003KPIE V0200301N002612200019N0160931N1+03401+02101101841ADDGD12991+0105019GF104991999999999999999999MA1101861999999MW1001REMMET076KPIE 141853Z 03005KT 10SM SCT035 34/21 A3008 RMK AO2 SLP184 T03390211 PNO $;EQDQ01+000000PRSWM2
0163722116999992000061612534+27920-082680FM-15+0003KPIE V0201401N005712200019N0160931N1+02901+02301101791ADDGD12991+0060019GF102991999999999999999999MA1101801999999MW1001REMMET070KPIE 161253Z 14011KT 10SM FEW020 29/23 A3006 RMK AO2 SLP179 T02940233;EQDQ01+000000PRSWM2
0163722116999992000062800534+27920-082680FM-15+0003KPIE V0201301N003612200019N0160931N1+02401+02201101821ADDGD12991+0054019GF102991999999999999999999MA1101831999999MW1001REMMET070KPIE 280053Z 13007KT 10SM FEW018 24/22 A3007 RMK AO2 SLP182 T02440222;EQDQ01+000000PRSWM2
0145722116999992000062807534+27920-082680FM-15+0003KPIE V0201001N002612200019N0160931N1+02301+02201101861ADDGF100991999999999999999999MA1101861999999MW1001REMMET067KPIE 280753Z 10005KT 10SM CLR 23/22 A3008 RMK AO2 SLP186 T02330217;EQDQ01+000000PRSWM2
0145722116999992000062918534+27920-082680FM-15+0003KPIE V0202201N005712200019N0160931N1+02801+02301101711ADDGF100991999999999999999999MA1101731999999MW1001REMMET067KPIE 291853Z 22011KT 10SM CLR 28/23 A3004 RMK AO2 SLP171 T02830233;EQDQ01+000000PRSWM2
0071722116999992000070520009+27900-082683NSRDB+000399999V020999999999999999999999999999+99999+99999999999ADDGP10060077302008059702015023802008GQ100600264926499GR100601181913219
0181722116999992000070810534+27920-082680FM-15+0003KPIE V0202201N001512200019N0080461N1+02701+02601101541ADDGD12991+0054019GF102991999999999999999999MA1101561999999MW1101REMMET072KPIE 081053Z 22003KT 5SM BR FEW018 27/26 A2999 RMK AO2 SLP154 T02720256;EQDQ01+000003PRSWM1Q02    003PRSWM1
0203722116999992000071105534+27920-082680FM-15+0003KPIE V0201501N003612200019N0160931N1+02701+02301101661ADDGF100991999999999999999999KA1999M+03001KA2999N+02671MA1101661999999MD1810021+9999MW1001REMMET085KPIE 110553Z 15007KT 10SM CLR 27/23 A3002 RMK AO2 SLP166 T02670233 10300 20267 58002;EQDQ01+000000PRSWM2
0163722116999992000071215534+27920-082680FM-15+0003KPIE V0203001N003612200019N0160931N1+03201+02301101741ADDGD12991+0099019GF102991999999999999999999MA1101761999999MW1001REMMET070KPIE 121553Z 30007KT 10SM FEW033 32/23 A3005 RMK AO2 SLP174 T03170233;EQDQ01+000000PRSWM2
0144722116999992000071307534+27920-082680FM-15+0003KPIE V0202201N001512200019N0112651N1+02501+02301101551ADDGF100991999999999999999999MA1101561999999MW1001REMMET066KPIE 130753Z 22003KT 7SM CLR 25/23 A2999 RMK AO2 SLP155 T02500233;EQDQ01+000000PRSWM2
0181722116999992000071422534+27920-082680FM-15+0003KPIE V0202201N005112200019N0144841N1+02601+02401101211ADDAA101000591GF100991999999999999999999MA1101221999999MW1611REMMET076KPIE 142253Z 22010KT 9SM -RA CLR 26/24 A2989 RMK AO2 SLP121 P0002 T02610244;EQDQ01+000003PRSWM1Q02    003PRSWM1
0054722116999992000071710009+27900-082683NSRDB+000399999V020999999999999999999999999999+99999+99999999999ADDGP10060000002000000002000000002000GR100600000900009
0054722116999992000071906009+27900-082683NSRDB+000399999V020999999999999999999999999999+99999+99999999999ADDGP10060000002000000002000000002000GR100600000900009
0071722116999992000071918009+27900-082683NSRDB+000399999V020999999999999999999999999999+99999+99999999999ADDGP10060083702008056402015027802008GQ100600083916959GR100601309913239
0144722116999992000072018534+27920-082680FM-15+0003KPIE V0202201N010012200019N0112651N1+03201+02501101401ADDGF100991999999999999999999MA1101421999999MW1001REMMET066KPIE 201853Z 22010KT 7SM CLR 32/25 A2995 RMK AO2 SLP140 T03220250;EQDQ01+000000PRSWM2
0249722116999992000072412534+27920-082680FM-15+0003KPIE V0209999C000010099019N0144841N1+02601+02401101561ADDAA101000891GD12991+0033019GD22991+0060019GD33991+0099019GF107991999999999999999999MA1101561999999MW1611REMMET099KPIE 241253Z 00000KT 9SM -RA SCT011 SCT020 BKN033 26/24 A2999 RMK AO2 RAB18 SLP156 P0003 T02560244;EQDQ01+000003PRSWM1Q02    003PRSWM1
0163722116999992000072603534+27920-082680FM-15+0003KPIE V0201101N003612200019N0096561N1+02501+02401101611ADDGF100991999999999999999999MA1101631999999MW1101REMMET069KPIE 260353Z 11007KT 6SM BR CLR 25/24 A3001 RMK AO2 SLP161 T02500239;EQDQ01+000003PRSWM1Q02    003PRSWM1
0054722116999992000072702009+27900-082683NSRDB+000399999V020999999999999999999999999999+99999+99999999999ADDGP10060000002000000002000000002000GR100600000900009
0071722116999992000072722009+27900-082683NSRDB+000399999V020999999999999999999999999999+99999+99999999999ADDGP10060048102008051802015017402008GQ100600536927389GR100600784913259
0071722116999992000072822009+27900-082683NSRDB+000399999V020999999999999999999999999999+99999+99999999999ADDGP10060046502008045302015019602008GQ100600537927369GR100600782913259
0071722116999992000073115009+27900-082683NSRDB+000399999V020999999999999999999999999999+99999+99999999999ADDGP10060032302008005502015028302008GQ100600439909269GR100600954913269
0144722116999992000073119114+27920-082680FM-16+0003KPIE V0202801N002112200019N0160931N1+02701+02101999999ADDGF100991999999999999999999MA1101761999999MW1001REMMET066KPIE 311911Z 28004KT 10SM CLR 27/21 A3005 RMK AO2 TSE11 TS MOV NW;EQDQ01+000000PRSWM2
0221722116999992000080103184+27920-082680FM-16+0003KPIE V0202901N002610114019N0128741N1+02301+02101999999ADDGD14991+0114019GF108991999999999999999999MA1101961999999MW1801MW2951REMMET106KPIE 010318Z 29005KT 8SM -TSRA OVC038 23/21 A3011 RMK AO2 PRESFR CONS LTGICCC SW-NE TS SW-NE MOV NW P0004;EQDQ01+000003PRSWM1Q02    003PRSWM1
0071722116999992000080417009+27900-082683NSRDB+000399999V020999999999999999999999999999+99999+99999999999ADDGP10060055202008015702015040402008GQ100600190912309GR100601253913279
0054722116999992000080603009+27900-082683NSRDB+000399999V020999999999999999999999999999+99999+99999999999ADDGP10060000002000000002000000002000GR100600000900009
0054722116999992000081206009+27900-082683NSRDB+000399999V020999999999999999999999999999+99999+99999999999ADDGP10060000002000000002000000002000GR100600000900009
0145722116999992000081322534+27920-082680FM-15+0003KPIE V0202601N006212200019N0160931N1+02901+02301101411ADDGF100991999999999999999999MA1101421999999MW1001REMMET067KPIE 132253Z 26012KT 10SM CLR 29/23 A2995 RMK AO2 SLP141 T02940228;EQDQ01+000000PRSWM2
0145722116999992000081718534+27920-082680FM-15+0003KPIE V0209999C000012200019N0160931N1+03201+02001101771ADDGF100991999999999999999999MA1101801999999MW1001REMMET067KPIE 171853Z 00000KT 10SM CLR 32/20 A3006 RMK AO2 SLP177 T03170200;EQDQ01+000000PRSWM2
0147722116999992000081806534+27920-082680FM-15+0003KPIE V0201301N003612200019N0160931N1+02601+02301101721ADDGF100991999999999999999999MA1101731999999MW1001REMMET069KPIE 180653Z 13007KT 10SM CLR 26/23 A3004 RMK AO2 SLP172 T02560228 $;EQDQ01+000000PRSWM2
0071722116999992000082018009+27900-082683NSRDB+000399999V020999999999999999999999999999+99999+99999999999ADDGP10060034302008004202015030302008GQ100600163917669GR100601282913359
0071722116999992000082212009+27900-082683NSRDB+000399999V020999999999999999999999999999+99999+99999999999ADDGP10060000002008000002015000002008GQ100600846907969GR100600115912149
0071722116999992000082314009+27900-082683NSRDB+000399999V020999999999999999999999999999+99999+99999999999ADDGP10060041202008046402015017302008GQ100600591909359GR100600686913379
0071722116999992000082500009+27900-082683NSRDB+000399999V020999999999999999999999999999+99999+99999999999ADDGP10060001702008000002015001702008GQ100600840927919GR100600136913049
0054722116999992000082704009+27900-082683NSRDB+000399999V020999999999999999999999999999+99999+99999999999ADDGP10060000002000000002000000002000GR100600000900009
0145722116999992000082716534+27920-082680FM-15+0003KPIE V0200501N003112200019N0160931N1+03001+02301101571ADDGF100991999999999999999999MA1101591999999MW1001REMMET067KPIE 271653Z 05006KT 10SM CLR 30/23 A3000 RMK AO2 SLP157 T03000228;EQDQ01+000000PRSWM2
0054722116999992000082904009+27900-082683NSRDB+000399999V020999999999999999999999999999+99999+99999999999ADDGP10060000002000000002000000002000GR100600000900009
0159722116999992000082913534+27920-082680FM-15+0003KPIE V0202501N003612200019N0128741N1+02801+02501101271ADDGF100991999999999999999999MA1101291999999MW1001REMMET081KPIE 291353Z 25007KT 8SM CLR 28/25 A2991 RMK AO2 SLP127 TCU W-NW DRK N T02830250;EQDQ01+000000PRSWM2
0145722116999992000083106534+27920-082680FM-15+0003KPIE V0201601N001512200019N0160931N1+02401+02301101121ADDGF100991999999999999999999MA1101121999999MW1001REMMET067KPIE 310653Z 16003KT 10SM CLR 24/23 A2986 RMK AO2 SLP112 T02440233;EQDQ01+000000PRSWM2
0203722116999992000083117534+27920-082680FM-15+0003KPIE V0202101N002612200019N0160931N1+03201+02301101351ADDGF100991999999999999999999KA1999M+03221KA2999N+02611MA1101351999999MD1610041+9999MW1001REMMET085KPIE 311753Z 21005KT 10SM CLR 32/23 A2993 RMK AO2 SLP135 T03220228 10322 20261 56004;EQDQ01+000000PRSWM2
0054722116999992000090410009+27900-082683NSRDB+000399999V020999999999999999999999999999+99999+99999999999ADDGP10060000002000000002000000002000GR100600000900009
0165722116999992000090502534+27920-082680FM-15+0003KPIE V0209999C000012200019N0160931N1+02801+02401101211ADDGF100991999999999999999999MA1101221999999MD1010131+9999MW1001REMMET073KPIE 050253Z 00000KT 10SM CLR 28/24 A2989 RMK AO2 SLP121 T02780239 50013;EQDQ01+000000PRSWM2
0226722116999992000091001314+27920-082680FM-16+0003KPIE V0209999C000010066019N0160931N1+02801+02401999999ADDGD13991+0066019GD23991+0078019GD33991+0099019GF107991999999999999999999MA1101391999999MW1001REMMET103KPIE 100131Z 00000KT 10SM BKN022 BKN026 BKN033 28/24 A2994 RMK AO2 TSB08E31 MOV W OCNL LTGIC DSNT SW W;EQDQ01+000000PRSWM2
0154722116999992000091504003+27920-082680FM-15+0003KPIE V02099999999992200019N0160931N1+99999+99999101311ADDGP10060000002000000002000000002000GR100600000900009MW1001REMMET066KPIE 15035Z 00000KT 10SM CLR 26/23 A2992 RMK AO2 SLP131 T02610228;EQDQ01+000000PRSWM2
0144722116999992000091510534+27920-082680FM-15+0003KPIE V0209999C000012200019N0112651N1+02301+02201101191ADDGF100991999999999999999999MA1101191999999MW1001REMMET066KPIE 151053Z 00000KT 7SM CLR 23/22 A2988 RMK AO2 SLP119 T02330222;EQDQ01+000000PRSWM2
0054722116999992000091607009+27900-082683NSRDB+000399999V020999999999999999999999999999+99999+99999999999ADDGP10060000002000000002000000002000GR100600000900009
0265722116999992000091800534+27920-082680FM-15+0003KPIE V0202401N014410150019N0160931N1+02401+02101100971ADDAA101000391GD12991+0072019GD22991+0105019GD33991+0150019GF107991999999999999999999MA1100981999999MW1001OC101801REMMET123KPIE 180053Z 24028G35KT 10SM FEW024 SCT035 BKN055 24/21 A2982 RMK AO2 PK WND 25035/0052 RAE06B22E35 SLP097 P0001 T02390206;EQDQ01+000000PRSWM2
0054722116999992000092110009+27900-082683NSRDB+000399999V020999999999999999999999999999+99999+99999999999ADDGP10060000002000000002000000002000GR100600000900009
0164722116999992000092508534+27920-082680FM-15+0003KPIE V0209999C000012200019N0144841N1+02501+02401101291ADDGF100991999999999999999999MA1101291999999MD1510041+9999MW1001REMMET072KPIE 250853Z 00000KT 9SM CLR 25/24 A2991 RMK AO2 SLP129 T02500239 55004;EQDQ01+000000PRSWM2
0054722116999992000092601009+27900-082683NSRDB+000399999V020999999999999999999999999999+99999+99999999999ADDGP10060000002000000002000000002000GR100600000900009
0203722116999992000092605534+27920-082680FM-15+0003KPIE V0202601N002612200019N0160931N1+02601+02401101231ADDGF100991999999999999999999KA1999M+02781KA2999N+02501MA1101251999999MD1810111+9999MW1001REMMET085KPIE 260553Z 26005KT 10SM CLR 26/24 A2990 RMK AO2 SLP123 T02560239 10278 20250 58011;EQDQ01+000000PRSWM2
0071722116999992000092715009+27900-082683NSRDB+000399999V020999999999999999999999999999+99999+99999999999ADDGP10060054102008054902015019402008GQ100600509911889GR100600858913619
0054722116999992000092807009+27900-082683NSRDB+000399999V020999999999999999999999999999+99999+99999999999ADDGP10060000002000000002000000002000GR100600000900009
0145722116999992000093019534+27920-082680FM-15+0003KPIE V0200301N004612200019N0160931N1+03101+02201100971ADDGF100991999999999999999999MA1100981999999MW1001REMMET067KPIE 301953Z 03009KT 10SM CLR 31/22 A2982 RMK AO2 SLP097 T03060222;EQDQ01+000000PRSWM2
0165722116999992000100112534+27920-082680FM-15+0003KPIE V0200101N004610015019N0160931N1+02201+02101101311ADDGD13991+0015019GF107991999999999999999999MA1101321999999MW1001REMMET072KPIE 011253Z 01009KT 10SM BKN005 22/21 A2992 RMK AO2 SLP131 T02170206 $;EQDQ01+000000PRSWM2
0145722116999992000100307534+27920-082680FM-15+0003KPIE V0200501N005112200019N0160931N1+02301+02101101351ADDGF100991999999999999999999MA1101351999999MW1001REMMET067KPIE 030753Z 05010KT 10SM CLR 23/21 A2993 RMK AO2 SLP135 T02330211;EQDQ01+000000PRSWM2
0145722116999992000100422534+27920-082680FM-15+0003KPIE V0202901N003612200019N0160931N1+02701+02301101401ADDGF100991999999999999999999MA1101421999999MW1001REMMET067KPIE 042253Z 29007KT 10SM CLR 27/23 A2995 RMK AO2 SLP140 T02720228;EQDQ01+000000PRSWM2
0245722116999992000100616534+27920-082680FM-15+0003KPIE V02099999999992200019N0160931N1+03101+02501101671ADDAA101000021GA1999+011701021GD12991+0090019GD22991+0117019GF104991999999999999999999MA1101661999999MW1001REMMET110KPIE 061653Z VRB05KT 10SM FEW030 SCT039TCU 31/25 A3002 RMK AO2 RAE00 SLP167 TCU NE-E S-NW OHD P0000 T03060250;EQDQ01+000000PRSWM2
0071722116999992000100918009+27900-082683NSRDB+000399999V020999999999999999999999999999+99999+99999999999ADDGP10060074902008065402015021002008GQ100600348918539GR100601125913719
0205722116999992000101017534+27920-082680FM-15+0003KPIE V0200401N006712200019N0160931N1+02401+01301102191ADDGF100991999999999999999999KA1999M+02391KA2999N+01281MA1102201999999MD1810161+9999MW1001REMMET087KPIE 101753Z 04013KT 10SM CLR 24/13 A3018 RMK AO2 SLP219 T02390128 10239 20128 58016 $;EQDQ01+000000PRSWM2
0054722116999992000101110009+27900-082683NSRDB+000399999V020999999999999999999999999999+99999+99999999999ADDGP10060000002000000002000000002000GR100600000900009
0071722116999992000101114009+27900-082683NSRDB+000399999V020999999999999999999999999999+99999+99999999999ADDGP10060036202008052702015014002008GQ100600651911399GR100600576913739
0158722116999992000101912274+27920-082680FM-16+0003KPIE V0200201N001512200019N0032181N1+01801+01801999999ADDGF100991999999999999999999MA1101961999999MW1121REMMET064KPIE 191227Z 02003KT 2SM MIFG CLR 18/18 A3011 RMK AO2 TWR VIS 3;EQDQ01+000003PRSWM1Q02    003PRSWM1
0071722116999992000102121009+27900-082683NSRDB+000399999V020999999999999999999999999999+99999+99999999999ADDGP10060041002008059702015012102008GQ100600611923729GR100600665913819
0054722116999992000102208009+27900-082683NSRDB+000399999V020999999999999999999999999999+99999+99999999999ADDGP10060000002000000002000000002000GR100600000900009
0145722116999992000102707534+27920-082680FM-15+0003KPIE V0200201N003612200019N0160931N1+02001+01801101731ADDGF100991999999999999999999MA1101731999999MW1001REMMET067KPIE 270753Z 02007KT 10SM CLR 20/18 A3004 RMK AO2 SLP173 T02000183;EQDQ01+000000PRSWM2
0071722116999992000102817009+27900-082683NSRDB+000399999V020999999999999999999999999999+99999+99999999999ADDGP10060071702008081302015011902008GQ100600428916419GR100601016913869
0054722116999992000110807009+27900-082683NSRDB+000399999V020999999999999999999999999999+99999+99999999999ADDGP10060000002000000002000000002000GR100600000900009
0054722116999992000111006009+27900-082683NSRDB+000399999V020999999999999999999999999999+99999+99999999999ADDGP10060000002000000002000000002000GR100600000900009
0163722116999992000111015534+27920-082680FM-15+0003KPIE V0203301N004110069019N0160931N1+02501+02001101441ADDGD13991+0069019GF107991999999999999999999MA1101461999999MW1001REMMET070KPIE 101553Z 33008KT 10SM BKN023 25/20 A2996 RMK AO2 SLP144 T02500200;EQDQ01+000000PRSWM2
0054722116999992000111100009+27900-082683NSRDB+000399999V020999999999999999999999999999+99999+99999999999ADDGP10060000002000000002000000002000GR100600000900009
0147722116999992000111213534+27920-082680FM-15+0003KPIE V0200701N003112200019N0160931N1+01801+01301101711ADDGF100991999999999999999999MA1101731999999MW1001REMMET069KPIE 121353Z 07006KT 10SM CLR 18/13 A3004 RMK AO2 SLP171 T01830128 $;EQDQ01+000000PRSWM2
0071722116999992000111219009+27900-082683NSRDB+000399999V020999999999999999999999999999+99999+99999999999ADDGP10060065802008087102015009002008GQ100600494920379GR100600908913979
0054722116999992000111508009+27900-082683NSRDB+000399999V020999999999999999999999999999+99999+99999999999ADDGP10060000002000000002000000002000GR100600000900009
0221722116999992000112004534+27920-082680FM-15+0003KPIE V0203601N004610021019N0160931N1+01701+01501101791ADDGD13991+0021019GD24991+0210019GF108991999999999999999999KA1999M+02831KA2999N+01671MA1101801999999MW1001REMMET087KPIE 200453Z 36009KT 10SM BKN007 OVC070 17/15 A3006 RMK AO2 SLP179 T01670150 402830167;EQDQ01+000000PRSWM2
0146722116999992000112209534+27920-082680FM-15+0003KPIE V0200301N006712200019N0160931N1+00701-00301102981ADDGF100991999999999999999999MA1102981999999MW1001REMMET068KPIE 220953Z 03013KT 10SM CLR 07/M03 A3041 RMK AO2 SLP298 T00671033;EQDQ01+000000PRSWM2
0054722116999992000112303009+27900-082683NSRDB+000399999V020999999999999999999999999999+99999+99999999999ADDGP10060000002000000002000000002000GR100600000900009
0203722116999992000112405534+27920-082680FM-15+0003KPIE V0200701N003112200019N0160931N1+01501+00901102171ADDGF100991999999999999999999KA1999M+01671KA2999N+01441MA1102171999999MD1610141+9999MW1001REMMET085KPIE 240553Z 07006KT 10SM CLR 15/09 A3017 RMK AO2 SLP217 T01500094 10167 20144 56014;EQDQ01+000000PRSWM2
0071722116999992000112516009+27900-082683NSRDB+000399999V020999999999999999999999999999+99999+99999999999ADDGP10060045902008026102015031002008GQ100600554914919GR100600797914049
0163722116999992000112606534+27920-082680FM-15+0003KPIE V0203501N002110300019N0160931N1+01901+01801101611ADDGD14991+0300019GF108991999999999999999999MA1101631999999MW1001REMMET070KPIE 260653Z 35004KT 10SM OVC100 19/18 A3001 RMK AO2 SLP161 T01890183;EQDQ01+000000PRSWM2
