0220605110999992000062118004+35250+001430FM-15+1127DAOB V0200201N007212200019N0112651N1+02601+00901999999ADDGA1021+007809999GA2021+063009999GF104991999999999999999999MA1102001999999MW1001REMMET110DAOB 211800Z 02014KT 9999 FEW026 SCT216 26/09 Q1020 DAFH 211800Z 00000KT 9999 -TS FEW030CB SCT033 33/08 Q1018;EQDQ01+000000PRSWM2
0216605110999992000062503004+35250+001430SY-MT+1127DAOB V0209999C000012200019N0150001N1+01631+00281999999ADDGF100991001001999999001001MA1101901090661MD1710081+9999ME1315309MW1001REMSYN070AAXX  25034 60511 42965 00000 10163 20028 39066 48530 57008 333 95990;MET039DAOB 250300Z 00000KT CAVOK 16/03 Q1019;EQDQ01+000000PRSWM2
0091605110999992000070819004+35250+001430FM-15+1127DAOB V0203601N00621220001CN0099001N1+02901+01001999999ADDMA1101901999999MW1001REMMET039DAOB 081900Z 36012KT CAVOK 29/10 Q1019;EQDQ01+000000PRSWM2
0091605110999992000071123004+35250+001430FM-15+1127DAOB V0200101N00311220001CN0099001N1+01701+01101999999ADDMA1101591999999MW1001REMMET039DAOB 112300Z 01006KT CAVOK 17/11 Q1016;EQDQ01+000000PRSWM2
0091605110999992000071305004+35250+001430FM-15+1127DAOB V0209999C00001220001CN0099001N1+01301+00801999999ADDMA1102001999999MW1001REMMET039DAOB 130500Z 00000KT CAVOK 13/08 Q1020;EQDQ01+000000PRSWM2
0266605110999992000072403004+35250+001430SY-MT+1127DAOB V0203601N001012200019N9999999N1+02111+00941999999ADDGA1021+007809999GF104991031021008001031001MA1101691090471MD1610231+9999ME1315259MW1001REMSYN082AAXX  24034 60511 42556 43602 10211 20094 39047 48525 56023 83230 333 83826 95990;MET045DAOB 240300Z 36002KT 6000 SCT026 21/09 Q1017;EQDQ01+060002VODIS Q02+000000PRSWM2
0091605110999992000072620004+35250+001430FM-15+1127DAOB V0203601N00411220001CN0099001N1+02801+01101999999ADDMA1101801999999MW1001REMMET039DAOB 262000Z 36008KT CAVOK 28/11 Q1018;EQDQ01+000000PRSWM2
0216605110999992000072703004+35250+001430SY-MT+1127DAOB V0209999C000012200019N0150001N1+02101+00901999999ADDGF100991001001999999001001MA1102001090771MD1310061+9999ME1315529MW1001REMSYN070AAXX  27034 60511 42965 00000 10210 20090 39077 48552 53006 333 95990;MET039DAOB 270300Z 00000KT CAVOK 21/09 Q1020;EQDQ01+000000PRSWM2
0091605110999992000081311004+35250+001430FM-15+1127DAOB V0201001N00511220001CN0099001N1+02901+00901999999ADDMA1102301999999MW1001REMMET039DAOB 131100Z 10010KT CAVOK 29/09 Q1023;EQDQ01+000000PRSWM2
0091605110999992000081517004+35250+001430FM-15+1127DAOB V0209999C00001220001CN0099001N1+03401+00101999999ADDMA1102101999999MW1001REMMET039DAOB 151700Z 00000KT CAVOK 34/01 Q1021;EQDQ01+000000PRSWM2
0091605110999992000081704004+35250+001430FM-15+1127DAOB V0209999C00001220001CN0099001N1+02301+00701999999ADDMA1101691999999MW1001REMMET039DAOB 170400Z 00000KT CAVOK 23/07 Q1017;EQDQ01+000000PRSWM2
0091605110999992000082811004+35250+001430FM-15+1127DAOB V0202801N00621220001CN0099001N1+03701+01001999999ADDMA1102201999999MW1001REMMET039DAOB 281100Z 28012KT CAVOK 37/10 Q1022;EQDQ01+000000PRSWM2
0092605110999992000082919004+35250+001430FM-15+1127DAOB V0202401N00511220001CN0099001N1+03201-00101999999ADDMA1102001999999MW1001REMMET040DAOB 291900Z 24010KT CAVOK 32/M01 Q1020;EQDQ01+000000PRSWM2
0091605110999992000090620004+35250+001430FM-15+1127DAOB V0203601N00311220001CN0099001N1+02301+00201999999ADDMA1102001999999MW1001REMMET039DAOB 062000Z 36006KT CAVOK 23/02 Q1020;EQDQ01+000000PRSWM2
0091605110999992000090702004+35250+001430FM-15+1127DAOB V0203001N00311220001CN0099001N1+01501+00101999999ADDMA1102101999999MW1001REMMET039DAOB 070200Z 30006KT CAVOK 15/01 Q1021;EQDQ01+000000PRSWM2
0266605110999992000091303004+35250+001430SY-MT+1127DAOB V0202901N004112200019N0150001N1+01611+01141999999ADDGA1021+009009999GF199999011051008001001001MA1101801090571MD1710071+9999ME1315259MW1001REMSYN082AAXX  13034 60511 42565 12908 10161 20114 39057 48525 57007 81500 333 81630 95990;MET045DAOB 130300Z 29008KT 9999 FEW030 16/11 Q1018;EQDQ01+000012SCOTCVQ02+000000PRSWM2
0168605110999992000092217004+35250+001430FM-15+1127DAOB V0200601N010310099019N0050001N1+02501+00301999999ADDGA1021+007809099GA2081+009909999GF108991999999999999999999MW1171REMMET057DAOB 221700Z 06020KT 5000 TS FEW026CB OVC033 25/03 Q////;EQDQ01+000003PRSWM1Q02    003PRSWM1
0164605110999992000092519004+35250+001430FM-15+1127DAOB V0209999C000012200019N0112651N1+02301+00901999999ADDGA1021+006009099GA2021+007809999GF104991999999999999999999MA1102101999999MW1001REMMET054DAOB 251900Z 00000KT 9999 FEW020CB SCT026 23/09 Q1021;EQDQ01+000000PRSWM2
0139605110999992000100122004+35250+001430FM-15+1127DAOB V0203201N004110069019N0112651N1+01101+01001999999ADDGA1071+006909999GF107991999999999999999999MA1101901999999MW1001REMMET045DAOB 012200Z 32008KT 9999 BKN023 11/10 Q1019;EQDQ01+000000PRSWM2
0139605110999992000101316004+35250+001430FM-15+1127DAOB V0203601N005712200019N0112651N1+01001+00601999999ADDGA1021+006909999GF104991999999999999999999MA1101191999999MW1001REMMET045DAOB 131600Z 36011KT 9999 SCT023 10/06 Q1012;EQDQ01+000000PRSWM2
0139605110999992000102710004+35250+001430FM-15+1127DAOB V0209999C000010078019N0112651N1+01201+00901999999ADDGA1071+007809999GF107991999999999999999999MA1102511999999MW1001REMMET045DAOB 271000Z 00000KT 9999 BKN026 12/09 Q1025;EQDQ01+000000PRSWM2
0091605110999992000103019004+35250+001430FM-15+1127DAOB V0209999C00001220001CN0099001N1+01401+00601999999ADDMA1101801999999MW1001REMMET039DAOB 301900Z 00000KT CAVOK 14/06 Q1018;EQDQ01+000000PRSWM2
0091605110999992000110213004+35250+001430FM-15+1127DAOB V0202901N01231220001CN0099001N1+02201+00401999999ADDMA1101591999999MW1001REMMET039DAOB 021300Z 29024KT CAVOK 22/04 Q1016;EQDQ01+000000PRSWM2
0262605110999992000110218004+35250+001430SY-MT+1127DAOB V0209999C000012200019N0100001N1+01471+00831999999ADDAA199000091GF100991001001999999001001KA1120M+02241MA1101591090411MD1310091+9999ME1314869MW1001REMSYN076AAXX  02184 60511 32960 00000 10147 20083 39041 48486 53009 333 10224 95990;MET039DAOB 021800Z 00000KT CAVOK 15/08 Q1016;EQDQ01+000000PRSWM2Q02  00002PRCP99
0091605110999992000110301004+35250+001430FM-15+1127DAOB V0202701N00511220001CN0099001N1+00901+00801999999ADDMA1101691999999MW1001REMMET039DAOB 030100Z 27010KT CAVOK 09/08 Q1017;EQDQ01+000000PRSWM2
0277605110999992000110612004+35250+001430SY-MT+1127DAOB V0203001N012312200019N0100001N1+02001+00351999999ADDAA199000091GA1011+027009079GF102991011001999999031021MA1101081090001MD1610251+9999ME1314579MW1001REMSYN088AAXX  06124 60511 32960 23024 10200 20035 39000 48457 56025 81032 333 0//00 81359 95900;MET039DAOB 061200Z 30024KT CAVOK 20/04 Q1011;EQDQ01+000000PRSWM2Q02  00002PRCP99
0330605110999992000111306004+35250+001430SY-MT+1127DAOB V0202701N010312200019N9999999N1+01321+00191999999ADDAA199000091GA1021+027009999GF102991011001999999031021IA2240+00909KA1120N+01231MA1101691090561MD1710031+9999ME1315109MW1001REMSYN094AAXX  13064 60511 32956 22720 10132 20019 39056 48510 57003 81032 333 00900 20123 81359 95990;MET045DAOB 130600Z 27020KT 6000 FEW093 13/02 Q1017;EQDQ01+060002VODIS Q02+000000PRSWM2Q03  00002PRCP99
0184605110999992000111420004+35250+001430FM-15+1127DAOB V0202601N007210078019N0112651N1+01101+01001999999ADDGA1021+006009099GA2071+007809999GF107991999999999999999999MA1101291999999MW1611REMMET058DAOB 142000Z 26014KT 9999 -RA FEW020CB BKN026 11/10 Q1013;EQDQ01+000003PRSWM1Q02    003PRSWM1
0139605110999992000111811004+35250+001430FM-15+1127DAOB V0203601N007210078019N0112651N1+00701+00401999999ADDGA1071+007809999GF107991999999999999999999MA1102201999999MW1001REMMET045DAOB 181100Z 36014KT 9999 BKN026 07/04 Q1022;EQDQ01+000000PRSWM2
0139605110999992000111907004+35250+001430FM-15+1127DAOB V0202801N002112200019N0112651N1+00201+00201999999ADDGA1021+009009999GF102991999999999999999999MA1101901999999MW1001REMMET045DAOB 190700Z 28004KT 9999 FEW030 02/02 Q1019;EQDQ01+000000PRSWM2
0091605110999992000112001004+35250+001430FM-15+1127DAOB V0203001N00621220001CN0099001N1+00301+00201999999ADDMA1101691999999MW1001REMMET039DAOB 200100Z 30012KT CAVOK 03/02 Q1017;EQDQ01+000000PRSWM2
0091605110999992000112311004+35250+001430FM-15+1127DAOB V0202801N00721220001CN0099001N1+01401+00501999999ADDMA1101801999999MW1001REMMET039DAOB 231100Z 28014KT CAVOK 14/05 Q1018;EQDQ01+000000PRSWM2
0139605110999992000112417004+35250+001430FM-15+1127DAOB V0203501N007210078019N0112651N1+00801+00601999999ADDGA1071+007809999GF107991999999999999999999MA1102001999999MW1001REMMET045DAOB 241700Z 35014KT 9999 BKN026 08/06 Q1020;EQDQ01+000000PRSWM2
0139605110999992000112607004+35250+001430FM-15+1127DAOB V0203201N009310069019N0112651N1+01201+01101999999ADDGA1071+006909999GF107991999999999999999999MA1102511999999MW1001REMMET045DAOB 260700Z 32018KT 9999 BKN023 12/11 Q1025;EQDQ01+000000PRSWM2
0250605110999992000120315004+35250+001430SY-MT+1127DAOB V0203601N006210900019N0100001N1+01051+00491999999ADDGA1021+007809999GF105991041021008001001021MA1102511091191MD1710071+9999ME1315549MW1001REMSYN082AAXX  03154 60511 42560 53612 10105 20049 39119 48554 57007 84202 333 84826 95900;MET045DAOB 031500Z 36012KT 9999 SCT026 11/05 Q1025;EQDQ01+000000PRSWM2
0091605110999992000120408004+35250+001430FM-15+1127DAOB V0209999C00001220001CN0099001N1+00401+00301999999ADDMA1102301999999MW1001REMMET039DAOB 040800Z 00000KT CAVOK 04/03 Q1023;EQDQ01+000000PRSWM2
0266605110999992000120521004+35250+001430SY-MT+1127DAOB V0209999C000010600019N0150001N1+00831+00671999999ADDGA1021+027009079GA2051+060009089GF106991021001999999031061MA1102201090961MD1110091+9999ME1315329MW1001REMSYN088AAXX  05214 60511 42965 60000 10083 20067 39096 48532 51009 82036 333 82359 85270 95990;MET039DAOB 052100Z 00000KT CAVOK 08/07 Q1022;EQDQ01+000000PRSWM2
0139605110999992000121617004+35250+001430FM-15+1127DAOB V0209999C000012200019N0112651N1+01001+00401999999ADDGA1021+007809999GF104991999999999999999999MA1102001999999MW1001REMMET045DAOB 161700Z 00000KT 9999 SCT026 10/04 Q1020;EQDQ01+000000PRSWM2
0139605110999992000122110004+35250+001430FM-15+1127DAOB V0202901N008210090019N0070001N1+00601+00501999999ADDGA1071+009009999GF107991999999999999999999MA1101291999999MW1001REMMET045DAOB 211000Z 29016KT 7000 BKN030 06/05 Q1013;EQDQ01+000000PRSWM2
0091605110999992000123119004+35250+001430FM-15+1127DAOB V0203101N00461220001CN0099001N1+00501+00301999999ADDMA1102101999999MW1001REMMET039DAOB 311900Z 31009KT CAVOK 05/03 Q1021;EQDQ01+000000PRSWM2
0205605150999992000011206004+35330+004200FM-12+0461DAAD V0200201N002112200019N0100001N1-00091-00171103071ADDAA106000091GA1001+999999999GF100991001001999999001001IA2240-00409KA1120N-00121MD1710061+9999REMSYN082AAXX  12064 60515 33960 00204 11009 21017 40307 57006 80002 333 05400 21012 95990;EQDQ01  00002PRCP06
0211605150999992000012406004+35330+004200FM-12+0461DAAD V0200601N004110099019N0100001N1+00551-00071101911ADDAA199000091GA1071+009909089GF107991071021012501999999IA2240-00309KA1120N+00111MD1610011+9999REMSYN088AAXX  24064 60515 33660 70608 10055 21007 40191 56001 872// 333 05300 20011 87833 95990;EQDQ01  00002PRCP99
0144605150999992000012509004+35330+004200FM-12+0461DAAD V0209999C000010099019N0080001N1+00571+00011102211ADDGA1051+009909089GF105991051021022501081001MD1210221+9999REMSYN076AAXX  25094 60515 42858 50000 10057 20001 40221 52022 85280 333 85833 95900;
0181605150999992000030318004+35330+004200FM-12+0461DAAD V0203601N002112200019N0100001N1+01821-00221102801ADDAA199000091GA1001+999999999GF100991001001999999001001KA1120M+01811MD1510081+9999REMSYN070AAXX  03184 60515 32960 03604 10182 21022 40280 55008 333 10181 95900;EQDQ01  00002PRCP99
0091605150999992000050110004+35330+004200FM-15+0461DAAD V0201001N00211220001CN0099001N1+02301+00101999999ADDMA1101191999999MW1001REMMET039DAAD 011000Z 10004KT CAVOK 23/01 Q1012;EQDQ01+000000PRSWM2
0268605150999992000050212004+35330+004200SY-MT+0461DAAD V0200801N002112200019N0100001N1+02651+00091101411ADDAA199000091GA1021+009909999GF103991031021012501001021MA1101391999999MD1810041+9999MW1001REMSYN082AAXX  02124 60515 32660 30804 10265 20009 40141 58004 83202 333 0//00 83833 95900;MET045DAAD 021200Z 08004KT 9999 SCT033 27/01 Q1014;EQDQ01+000000PRSWM2Q02  00002PRCP99
0156605150999992000050507004+35330+004200FM-15+0461DAAD V0201001N003112200019N0112651N1+02601-00202999999ADDGA1021+009909999GF102991999999999999999999MA1100911999999MW1001REMMET046DAAD 050700Z 10006KT 9999 FEW033 26/M02 Q1009;EQDQ01-000203ATOD  Q02+000000PRSWM2
0091605150999992000051208004+35330+004200FM-15+0461DAAD V0209999C00001220001CN0099001N1+02401+01201999999ADDMA1101491999999MW1001REMMET039DAAD 120800Z 00000KT CAVOK 24/12 Q1015;EQDQ01+000000PRSWM2
0297605150999992000051212004+35330+004200SY-MT+0461DAAD V0201001N00721090001CN0080001N1+03251+01111101311ADDAA199000091GA1021+012009999GA2021+060009999GF105991021021012501001021MA1101291999999MD1810201+9999MW1001REMSYN088AAXX  12124 60515 32658 51014 10325 20111 40131 58020 82202 333 0//00 82840 84070 95900;MET052DAAD 121200Z 10004KT 8000 FEW040 SCT200 33/11 Q1013;EQDQ01+000000PRSWM2Q02  00002PRCP99
0181605150999992000051216004+35330+004200FM-15+0461DAAD V0201001N005112200019N9999999N1+03301+01001999999ADDGA1021+009009029GA2021+060009999GF104991999999999999999999MA1101021999999MW1001REMMET055DAAD 121600Z 10010KT 7000 SCT030TCU SCT200 33/10 Q1010;EQDQ01+070002VODIS Q02+000000PRSWM2
0281605150999992000051918004+35330+004200SY-MT+0461DAAD V0200201N003112200019N0100001N1+03151+01101101061ADDAA199000091GA1021+009009999GF103991031021008001001001KA1120M+03301MA1101021999999MD1510061+9999MW1001REMSYN082AAXX  19184 60515 32560 30206 10315 20110 40106 55006 83200 333 10330 83830 95900;MET045DAAD 191800Z 02006KT 9999 SCT030 32/11 Q1010;EQDQ01+000000PRSWM2Q02  00002PRCP99
0181605150999992000052111004+35330+004200FM-15+0461DAAD V0201401N006210240019N0050001N1+02801+01201999999ADDGA1021+009909999GA2071+024009999GF107991999999999999999999MA1101291999999MW1051REMMET055DAAD 211100Z 14012KT 5000 HZ SCT033 BKN080 28/12 Q1013;EQDQ01+000003PRSWM1Q02    003PRSWM1
0155605150999992000052408004+35330+004200FM-15+0461DAAD V0209999C000012200019N9999999N1+02601+01501999999ADDGA1021+060009999GF104991999999999999999999MA1101491999999MW1001REMMET045DAAD 240800Z 00000KT 7000 SCT200 26/15 Q1015;EQDQ01+070002VODIS Q02+000000PRSWM2
0139605150999992000052711004+35330+004200FM-15+0461DAAD V0203601N005112200019N0112651N1+02601+01401999999ADDGA1021+009909999GF102991999999999999999999MA1101691999999MW1001REMMET045DAAD 271100Z 36010KT 9999 FEW033 26/14 Q1017;EQDQ01+000000PRSWM2
0139605150999992000060213004+35330+004200FM-15+0461DAAD V0201001N003112200019N0112651N1+03601+01001999999ADDGA1021+009909999GF102991999999999999999999MA1101591999999MW1001REMMET045DAAD 021300Z 10006KT 9999 FEW033 36/10 Q1016;EQDQ01+000000PRSWM2
0275605150999992000060718004+35330+004200SY-MT+0461DAAD V0203401N002112200019N0150001N1+02871+00681101551ADDAA199000091GA1011+060009009GF101991001001999999001021KA1120M+02971MA1101491999999MD1610121+9999MW1001REMSYN082AAXX  07184 60515 32965 13404 10287 20068 40155 56012 80002 333 10297 81070 95900;MET039DAAD 071800Z 34004KT CAVOK 29/07 Q1015;EQDQ01+000000PRSWM2Q02  00002PRCP99
0235605150999992000062309004+35320+004190SY-MT+0461DAAD V0209999C000010360019N0100001N1+02751+01131102091ADDGA1021+009909999GF105991031021012501071001MA1102001999999MD1110091+9999MW1001REMSYN076AAXX  23094 60515 42660 50000 10275 20113 40209 51009 83270 333 83830 95900;MET045DAAD 230900Z 00000KT 9999 SCT033 27/11 Q1020;EQDQ01+000000PRSWM2
0091605150999992000070614004+35320+004190FM-15+0461DAAD V0201401N00721220001CN0099001N1+04001+00201999999ADDMA1101591999999MW1001REMMET039DAAD 061400Z 14014KT CAVOK 40/02 Q1016;EQDQ01+000000PRSWM2
0160605150999992000071717004+35320+004190FM-15+0461DAAD V0201601N010310099019N0010001N1+03401+01201999999ADDGA1081+009909999GF108991999999999999999999MA1101021999999MW1071REMMET050DAAD 171700Z 16020KT 1000 BLSA OVC033 34/12 Q1010;EQDQ01+000003PRSWM1Q02    003PRSWM1
0201605150999992000072909004+35320+004190SY-MT+0461DAAD V0203401N005112200019N0100001N1+03251+00731101661ADDGF100991001001999999001001MA1101591999999MD1110131+9999MW1001REMSYN064AAXX  29094 60515 42960 03410 10325 20073 40166 51013 333 95900;MET039DAAD 290900Z 34010KT CAVOK 33/07 Q1016;EQDQ01+000000PRSWM2
0250605150999992000080418004+35320+004190SY-MT+0461DAAD V0203201N011312200019N0060001N1+03001+01521101401ADDAA199000091GF100991001001999999001001KA1120M+03801MA1101391999999MD1310171+9999MW1001REMSYN070AAXX  04184 60515 32956 03222 10300 20152 40140 53017 333 10380 95900;MET042DAAD 041800Z 32022KT 6000 SKC 30/15 Q1014;EQDQ01+000000PRSWM2Q02  00002PRCP99
0139605150999992000081917004+35320+004190FM-15+0461DAAD V0202801N007212200019N0112651N1+04001+00401999999ADDGA1021+009009999GF104991999999999999999999MA1101491999999MW1001REMMET045DAAD 191700Z 28014KT 9999 SCT030 40/04 Q1015;EQDQ01+000000PRSWM2
0091605150999992000082408004+35320+004190FM-15+0461DAAD V0203601N00211220001CN0099001N1+02901+00901999999ADDMA1102101999999MW1001REMMET039DAAD 240800Z 36004KT CAVOK 29/09 Q1021;EQDQ01+000000PRSWM2
0247605150999992000091118004+35320+004190SY-MT+0461DAAD V0200801N002112200019N0100001N1+03151+00891101351ADDAA199000091GF100991001001999999001001KA1120M+03351MA1101291999999MD1510051+9999MW1001REMSYN070AAXX  11184 60515 32960 00804 10315 20089 40135 55005 333 10335 95900;MET039DAAD 111800Z 08004KT CAVOK 32/09 Q1013;EQDQ01+000000PRSWM2Q02  00002PRCP99
0091605150999992000091213004+35320+004190FM-15+0461DAAD V0200201N00211220001CN0099001N1+03301+00701999999ADDMA1101391999999MW1001REMMET039DAAD 121300Z 02004KT CAVOK 33/07 Q1014;EQDQ01+000000PRSWM2
0141605150999992000092014004+35320+004190FM-15+0461DAAD V0202601N012312200019N0060001N1+03001+00901999999ADDGF100991999999999999999999MA1101081999999MW1071REMMET047DAAD 201400Z 26024KT 6000 DRSA SKC 30/09 Q1011;EQDQ01+000003PRSWM1Q02    003PRSWM1
0297605150999992000093012004+35320+004190SY-MT+0461DAAD V0202601N00621036001CN0100001N1+01831+01121101121ADDAA199000091GA1021+009009999GA2021+024009999GF107991041021008001071999MA1101081999999MD1510011+9999MW1001REMSYN088AAXX  30124 60515 32560 72612 10183 20112 40112 55001 8427/ 333 0//00 84830 83358 95900;MET052DAAD 301200Z 26012KT 9999 SCT030 SCT080 18/11 Q1011;EQDQ01+000000PRSWM2Q02  00002PRCP99
0223605150999992000100106004+35320+004190FM-12+0461DAAD V0202601N005112200019N0100001N1+01451+00761101501ADDAA199000091GA1031+009009089GF103991031021008001001001IA2240+01309KA1120N+01361MD1310151+9999MW1001REMSYN094AAXX  01064 60515 31560 32610 10145 20076 40150 53015 700// 83200 333 01300 20136 83830 95990;EQDQ01  00002PRCP99
0193605150999992000100518004+35320+004190FM-12+0461DAAD V0203401N004112200019N0150001N1+02351+00891101901ADDAA199000091GA1011+009009089GF102991011021008001001021KA1120M+02561MD1310071+9999REMSYN082AAXX  05184 60515 32565 23408 10235 20089 40190 53007 81202 333 10256 81830 95990;EQDQ01  00002PRCP99
0321605150999992000100906004+35320+004190SY-MT+0461DAAD V0209999C000012200019N0100001N1+01101+00481102031ADDAA199000091GA1021+009909999GF199999011021012501001001IA2240+00909KA1120N+01041MA1102001999999MD1610051+9999MW1001REMSYN094AAXX  09064 60515 31660 10000 10110 20048 40203 56005 700// 81200 333 00900 20104 81833 95900;MET045DAAD 090600Z 00000KT 9999 FEW033 11/05 Q1020;EQDQ01+000012SCOTCVQ02+000000PRSWM2Q03  00002PRCP99
0139605150999992000101408004+35320+004190FM-15+0461DAAD V0203001N007212200019N0112651N1+01401+00601999999ADDGA1021+009909999GF102991999999999999999999MA1101391999999MW1001REMMET045DAAD 140800Z 30014KT 9999 FEW033 14/06 Q1014;EQDQ01+000000PRSWM2
0160605150999992000102414004+35320+004190FM-15+0461DAAD V0201401N010312200019N0020001N1+02401+01201999999ADDGA1021+007809999GF104991999999999999999999MA1101691999999MW1071REMMET050DAAD 241400Z 14020KT 2000 DRSA SCT026 24/12 Q1017;EQDQ01+000003PRSWM1Q02    003PRSWM1
0268605150999992000103012004+35320+004190SY-MT+0461DAAD V0209999C000012200019N0100001N1+02101+01021102181ADDAA199000091GA1021+009009999GF103991021021008001001021MA1102101999999MD1810141+9999MW1001REMSYN082AAXX  30124 60515 32560 30000 10210 20102 40218 58014 82202 333 0//00 82830 95900;MET045DAAD 301200Z 00000KT 9999 FEW030 21/10 Q1021;EQDQ01+000000PRSWM2Q02  00002PRCP99
0178605150999992000103115004+35320+004190FM-15+0461DAAD V0202601N006212200019N9999999N1+02501+00501999999ADDGA1021+009909999GA2021+060009999GF104991999999999999999999MA1101291999999MW1001REMMET052DAAD 311500Z 26012KT 6000 FEW033 SCT200 25/05 Q1013;EQDQ01+060002VODIS Q02+000000PRSWM2
0139605150999992000111508004+35320+004190FM-15+0461DAAD V0203601N003110090019N0112651N1+01501+00701999999ADDGA1071+009009999GF107991999999999999999999MA1101491999999MW1001REMMET045DAAD 150800Z 36006KT 9999 BKN030 15/07 Q1015;EQDQ01+000000PRSWM2
0162605150999992000112508004+35320+004190FM-15+0461DAAD V0202801N007210078019N0080001N1+01201+00901999999ADDGA1021+003009999GA2071+007809999GF107991999999999999999999MA1102001999999MW1001REMMET052DAAD 250800Z 28014KT 8000 FEW010 BKN026 12/09 Q1020;EQDQ01+000000PRSWM2
0091605150999992000121211004+35320+004190FM-15+0461DAAD V0209999C00001220001CN0099001N1+01301+00401999999ADDMA1103691999999MW1001REMMET039DAAD 121100Z 00000KT CAVOK 13/04 Q1037;EQDQ01+000000PRSWM2
0247605150999992000121318004+35320+004190SY-MT+0461DAAD V0209999C000012200019N0100001N1+01201+00421103421ADDAA199000091GF100991001001999999001001KA1120M+01901MA1103391999999MD1610011+9999MW1001REMSYN070AAXX  13184 60515 32960 00000 10120 20042 40342 56001 333 10190 95990;MET039DAAD 131800Z 00000KT CAVOK 12/04 Q1034;EQDQ01+000000PRSWM2Q02  00002PRCP99
0139605150999992000122110004+35320+004190FM-15+0461DAAD V0202601N005112200019N0112651N1+01201+00401999999ADDGA1021+009009999GF104991999999999999999999MA1101391999999MW1001REMMET045DAAD 211000Z 26010KT 9999 SCT030 12/04 Q1014;EQDQ01+000000PRSWM2
0162605150999992000122816004+35320+004190FM-15+0461DAAD V0202801N009310600019N0112651N1+01201+00401999999ADDGA1021+009009999GA2071+060009999GF107991999999999999999999MA1101491999999MW1001REMMET052DAAD 281600Z 28018KT 9999 SCT030 BKN200 12/04 Q1015;EQDQ01+000000PRSWM2
0224605180999992000011218004+35300-001350FM-12+006899999V0203601N003112200019N0100001N1+01221+01031102571ADDAA106000091GA1021+006009089GF102991021021008001001001KA1120M+01451MD1310021+9999UA1M000009009REMSYN100AAXX  12184 60518 32560 23606 10122 20103 40257 53002 82200 222// 20000 333 10145 82820 91806 95900;EQDQ01  00002PRCP06
0212605180999992000012206004+35300-001350FM-12+006899999V0201801N003112200019N0100001N1+00801+00511102101ADDAA199000091GA1001+999999999GF100991001001999999001001KA1120N+00751MD1610051+9999UA1M000009999REMSYN088AAXX  22064 60518 33960 01806 10080 20051 40210 56005 222// 20000 333 0//00 20075 91806;EQDQ01  00002PRCP99
0252605180999992000012506004+35300-001350FM-12+006899999V0201801N001010300019N0100001N1+01031+00781101461ADDAA199000091GA1021+006009089GA2041+030009039GF107991021021008001081021KA1120N+01011MD1610041+9999UA1M000009009REMSYN112AAXX  25064 60518 33560 71802 10103 20078 40146 56004 82282 222// 20000 333 0//00 20101 82820 84360 91806 95990;EQDQ01  00002PRCP99
0224605180999992000020306004+35300-001350FM-12+006899999V0201801N001012200019N0100001N1+01281+01171102791ADDAA199000091GA1031+069009009GF103991001001999999001021KA1120N+01271MD1410001+9999UA1M000009999REMSYN100AAXX  03064 60518 33960 31802 10128 20117 40279 54000 80002 222// 20000 333 0//00 20127 83073 91806;EQDQ01  00002PRCP99
0199605180999992000020912004+35300-001350FM-12+006899999V0203301N002112200019N0200001N1+01782+01211102891ADDAA199000091GA1001+999999999GF100991001001999999001001MD1810021+9999UA1M990359029REMSYN088AAXX  09124 60518 32970 03304 10178 20121 40289 58002 222// 29907 333 0//00 91827 95900;EQDQ01  00002PRCP99
0159605180999992000021315004+35300-001350FM-12+006899999V0203301N002112200019N0080001N1+01571+01301102801ADDGF103991001001999999001021MD1810121+9999UA1M000009009REMSYN094AAXX  13154 60518 42958 33304 10157 20130 40280 58012 80002 222// 20000 333 83073 91806 95900;
0182605180999992000022009004+35300-001350FM-12+006899999V0202801N999992200019N0200001N1+01551+00851102031ADDGA1001+999999999GF100991001001999999001001MD1310051+9999UA1M000009009REMSYN082AAXX  20094 60518 42970 07802 10155 20085 40203 53005 222// 20000 333 91807 95900;EQDQ01+005243WOSPD 
0205605180999992000022212004+35300-001350FM-12+006899999V0203001N002112200019N0100001N1+01661+01131102351ADDAA199000091GA1031+003009079GF104991031061004501001021MD1010001+9999UA1M000009009REMSYN094AAXX  22124 60518 32460 43004 10166 20113 40235 50000 83602 222// 20000 333 83710 91806 95900;EQDQ01  00002PRCP99
0224605180999992000031518004+35300-001350FM-12+006899999V0209999C000012200019N0100001N1+01571+01171102061ADDAA199000091GA1011+003009079GF101991011061004501001001KA1120M+01761MD1610071+9999UA1M000009019REMSYN100AAXX  15184 60518 32460 10000 10157 20117 40206 56007 81600 222// 20000 333 10176 81710 91816 95900;EQDQ01  00002PRCP99
0211605180999992000031912004+35300-001350FM-12+006899999V0203601N002112200019N0100001N1+01701+01151101831ADDAA199000091GA1021+006009069GF102991021051008001001001MD1810031+9999UA1M000009009REMSYN100AAXX  19124 60518 32560 23604 10170 20115 40183 58003 82500 222// 20000 333 0//00 82620 91806 95900;EQDQ01  00002PRCP99
0175605180999992000040609004+35300-001350FM-12+006899999V0209999C000012200019N0200001N1+01531+01211101651ADDGA1011+069009009GF101991001001999999001011MD1810031+9999UA1M000009009REMSYN094AAXX  06094 60518 42970 10000 10153 20121 40165 58003 80001 222// 20000 333 81073 91807 95900;
0230605180999992000042906004+35300-001350FM-12+006899999V0209999C000010690019N0200001N1+01121+00411101361ADDAA199000091GA1061+069009009GF106991001001999999001021KA1120N+01121MD1610051+9999UA1M000009009REMSYN106AAXX  29064 60518 33970 60000 10112 20041 40136 56005 80002 222// 20000 333 0//00 20112 86073 91807 95900;EQDQ01  00002PRCP99
0197605180999992000050115004+35300-001350FM-12+006899999V0203601N006210300019N0080001N1+01701+01461101131ADDGA1041+006009089GA2041+030009039GF107991041021008001031999MD1110101+9999UA1M990209049REMSYN100AAXX  01154 60518 42558 73612 10170 20146 40113 51010 8423/ 222// 29904 333 84820 84360 91846 95900;
0254605180999992000052412004+35300-001350FM-12+006899999V0209999C000010360019N0080001N1+01861+01781101711ADDAA106004191AC13C9AY161061AY261061GA1021+003009079GA2041+006009089GF107991021021004501071999MD1510001+9999MW1211UA1M000009009REMSYN118AAXX  24124 60518 11458 70000 10186 20178 40171 55000 60041 72166 8227/ 222// 20000 333 0//13 82710 84820 91806 95900;
0233605180999992000060812004+35300-001350FM-12+006899999V0209999C000010690019N0100001N1+02441+02081101241ADDAA199000091GA1031+003009079GA2031+069009009GF105991031061004501001021MD1610031+9999UA1M000009009REMSYN106AAXX  08124 60518 32460 50000 10244 20208 40124 56003 83602 222// 20000 333 0//00 83710 83073 91806 95900;EQDQ01  00002PRCP99
0175605180999992000061715004+35300-001340FM-12+006899999V0209999C000012200019N0100001N1+02771+02171101221ADDGA1011+003009079GF101991011061004501001001MD1710301+9999UA1M000009009REMSYN094AAXX  17154 60518 42460 10000 10277 20217 40122 57030 81600 222// 20000 333 81710 91806 95900;
0175605180999992000070709004+35300-001340FM-12+006899999V0203001N001012200019N0080001N1+02521+02251101301ADDGA1021+003009079GF102991021061004501001001MD1310021+9999UA1M000009009REMSYN094AAXX  07094 60518 42458 23002 10252 20225 40130 53002 82600 222// 20000 333 82710 91806 95900;
0264605180999992000070806004+35300-001340FM-12+006899999V0209999C000010690019N0200001N1+02901+01531101201ADDAA199000091GA1031+030009039GA2041+069009009GF107991031001999999031021KA1120N+02551MD1310111+9999MW1001UA1M000009009REMSYN118AAXX  08064 60518 31970 70000 10290 20153 40120 53011 700// 83032 222// 20000 333 0//00 20255 83360 84073 91807 95900;EQDQ01  00002PRCP99
0212605180999992000072418004+35300-001340FM-12+006899999V0202701N003112200019N0200001N1+02601+02111101191ADDAA199000091GA1001+999999999GF100991001001999999001001KA1120M+02801MD1510071+9999UA1M000009019REMSYN088AAXX  24184 60518 32970 02706 10260 20211 40119 55007 222// 20000 333 10280 91817 95900;EQDQ01  00002PRCP99
0258605180999992000082106004+35300-001340FM-12+006899999V0209999C000010690019N0150001N1+02741+01621101351ADDAA199000091GA1011+030009039GA2051+069009009GF105991011001999999031021KA1120N+02561MD1310031+9999MW1001UA1M999999009REMSYN112AAXX  21064 60518 31965 50000 10274 20162 40135 53003 700// 81032 222// 333 0//00 20256 81360 85073 91807 95900;EQDQ01  00002PRCP99
0246605180999992000101018004+35300-001340FM-12+006899999V0202701N006212200019N0150001N1+02101+01541101071ADDAA199000091GA1011+006009089GA2031+069009009GF104991011021008001031021KA1120M+02471MD1810031+9999UA1M990159049REMSYN106AAXX  10184 60518 32565 42712 10210 20154 40107 58003 81232 222// 29903 333 10247 81820 83073 91847 95900;EQDQ01  00002PRCP99
0233605180999992000111012004+35300-001340FM-12+006899999V0209999C000012200019N0200001N1+01741+00951101661ADDAA199000091GA1011+006009089GA2031+069009009GF104991011021008001031021MD1010011+9999UA1M000009009REMSYN106AAXX  10124 60518 32570 40000 10174 20095 40166 50001 81232 222// 20000 333 0//00 81820 83073 91807 95900;EQDQ01  00002PRCP99
0264605180999992000122306004+35300-001340FM-12+006899999V0202401N003112200019N0100001N1+01221+00681100811ADDAA199000091GA1011+030009039GA2031+069009009GF103991011001999999031021KA1120N+01201MD1210131+9999MW1001UA1M990059029REMSYN118AAXX  23064 60518 31960 32406 10122 20068 40081 52013 700// 81032 222// 29901 333 0//00 20120 81360 83073 91826 95900;EQDQ01  00002PRCP99
0151605220999992000021815004+34820-001780FM-12+042699999V0203601N000512200019N0200001N1+02211+00251102282ADDGA1001+999999999GF100991001001999999001001MD1710251+9999REMSYN064AAXX  18154 60522 42970 03601 10221 20025 40228 57025 333 95900;EQDQ01+102283APOSLP
0142605220999992000040312004+34820-001780FM-12+042699999V0202601N010312200019N0200001N1+01721+99999999999ADDAA199000091GA1041+007809089GF104991999999008001999999REMSYN058AAXX  03124 60522 32570 42620 10172 210// 333 84826 95900;EQDQ01  00002PRCP99
0193605250999992000010318004+34800+005730FM-12+0087DAUB V0201501N001012200019N0150001N1+01061+00491102821ADDAA106000091GA1011+009909089GF101991011011012501001001KA1120M+01551MD1310021+9999REMSYN082AAXX  03184 60525 32665 11502 10106 20049 40282 53002 81100 333 10155 81833 95990;EQDQ01  00002PRCP06
0132605250999992000010621004+34800+005730FM-12+0087DAUB V0209999C000012200019N0100001N1+00651+00321102531ADDGA1001+999999999GF100991001001999999001001MD1310101+9999REMSYN064AAXX  06214 60525 42960 00000 10065 20032 40253 53010 333 95990;
0181605250999992000012518004+34800+005730FM-12+0087DAUB V0201201N003112200019N0150001N1+01061+00041101981ADDAA199000091GA1001+999999999GF100991001001999999001001KA1120M+01541MD1310091+9999REMSYN070AAXX  25184 60525 32965 01206 10106 20004 40198 53009 333 10154 95990;EQDQ01  00002PRCP99
0144605250999992000020721004+34800+005730FM-12+0087DAUB V0209999C000012200019N0100001N1+01171+00241102861ADDGA1021+030009039GF102991021001999999041001MD1110211+9999REMSYN076AAXX  07214 60525 42960 20000 10117 20024 40286 51021 82040 333 82360 95990;
0180605250999992000021700004+34800+005730FM-12+0087DAUB V0209999C000012200019N0100001N1+01041+00231101871ADDAA199000091GA1011+069009009GF101991001001999999001021MD1710091+9999REMSYN082AAXX  17004 60525 32960 10000 10104 20023 40187 57009 80002 333 0//00 81073 95990;EQDQ01  00002PRCP99
0166605250999992000022303004+34800+005730FM-12+0087DAUB V0209999C000010600019N0100001N1+00961+00161102101ADDGA1031+030009039GA2051+060009009GF106991031001999999031041MD1610121+9999REMSYN082AAXX  23034 60525 42960 60000 10096 20016 40210 56012 83034 333 83360 85070 95990;
0144605250999992000030109004+34800+005730FM-12+0087DAUB V0201701N001512200019N0200001N1+01411+00071102691ADDGA1011+030009039GF101991011001999999031021MD1110051+9999REMSYN076AAXX  01094 60525 42970 11703 10141 20007 40269 51005 81032 333 81360 95900;
0132605250999992000030309004+34800+005730FM-12+0087DAUB V0200901N003112200019N0080001N1+01241-00331103131ADDGA1001+999999999GF100991001001999999001001MD1210241+9999REMSYN064AAXX  03094 60525 42958 00906 10124 21033 40313 52024 333 95900;
0202605250999992000032212004+34800+005730FM-12+0087DAUB V0201601N003110690019N0100001N1+02501+00231101851ADDAA199000091GA1021+030009039GA2071+069009009GF107991021001999999081021MD1810061+9999REMSYN088AAXX  22124 60525 32960 71606 10250 20023 40185 58006 82082 333 0//00 82360 87073 95900;EQDQ01  00002PRCP99
0233605250999992000032806004+34800+005730FM-12+0087DAUB V0201201N006710300019N0100001N1+01581+00171101081ADDAA199000091GA1041+012009089GA2071+030009039GF108991041021012501071999IA2240+01109KA1120N+01451MD1310031+9999REMSYN094AAXX  28064 60525 32660 81213 10158 20017 40108 53003 8427/ 333 01100 20145 84840 87360 95900;EQDQ01  00002PRCP99
0211605250999992000040309004+34800+005730FM-12+0087DAUB V0203401N014410690019N0030001N1+02341+00661100141ADDAY121031AY221031GA1041+030009089GA2041+069009009GF107991041001999999031021MD1210311+9999MW1071OA150302061REMSYN094AAXX  03094 60525 41930 73428 10234 20066 40014 52031 70722 84032 333 55403 84860 84073 95990;
0303605250999992000041206004+34800+005730SY-MT+0087DAUB V0203601N008212200019N0100001N1+01181+00711101211ADDAA124005191GA1021+012009999GF199999011011012501001001IA2240+00709KA1120N+01031MA1101191999999MD1210121+9999MW1001REMSYN094AAXX  12064 60525 12660 13616 10118 20071 40121 52012 60054 81100 333 00729 20103 81840 96900;MET043DAUB 0600Z 36016KT 9999 FEW040 12/07 Q1012;EQDQ01+000012SCOTCVQ02+000000PRSWM2
0182605250999992000041317004+34800+005730FM-15+0087DAUB V0201101N010310690019N0040001N1+02701-00201999999ADDGA1021+030009999GA2071+069009999GF107991999999999999999999MA1100911999999MW1071REMMET056DAUB 1700Z 11020KT 4000 DRSA FEW100 BKN233 27/M02 Q1009;EQDQ01+000003PRSWM1Q02    003PRSWM1
0089605250999992000041507004+34800+005730FM-15+0087DAUB V0203401N00871220001CN0099001N1+02101+00601999999ADDMA1100811999999MW1001REMMET037DAUB 0700Z 34017KT CAVOK 21/06 Q1008;EQDQ01+000000PRSWM2
0228605250999992000042612004+34800+005730SY-MT+0087DAUB V0201401N006212200019N0100001N1+03401+99999101061ADDAA199000091GF100991001001999999001001MA1101081999999MD1810131+9999MW1001REMSYN064AAXX  26124 60525 32960 01412 10342 2//// 40106 58013 333 95900;MET039DAUB 261200Z 14012KT CAVOK 34/// Q1011;EQDQ01+000000PRSWM2Q02  00002PRCP99
0294605250999992000042718004+34800+005730SY-MT+0087DAUB V0203601N015412200019N0060001N1+02871+01191100091ADDAA199000091AY111061AY211061GF100991001001999999001001KA1120M+03401MA1100101999999MD1510021+9999MW1071OA150601851REMSYN082AAXX  27184 60525 31956 03630 10287 20119 40009 55002 70711 333 10340 55365 95900;MET047DAUB 271800Z 36030KT 6000 DRSA SKC 29/12 Q1001;EQDQ01  00002PRCP99Q02    003PRSWM1
0091605250999992000050413004+34800+005730FM-15+0087DAUB V0201701N00771220001CN0099001N1+03201+00501999999ADDMA1101491999999MW1001REMMET039DAUB 041300Z 17015KT CAVOK 32/05 Q1015;EQDQ01+000000PRSWM2
0194605250999992000050511004+34800+005730FM-15+0087DAUB V0201301N015412200019N0030001N1+03101+00601999999ADDGA1021+012009999GA2021+030009999GF104991999999999999999999MA1101021999999MW1071OC102061REMMET060DAUB 051100Z 13030G40KT 3000 DRSA FEW040 SCT100 31/06 Q1010;EQDQ01+000003PRSWM1Q02    003PRSWM1
0155605250999992000050816004+34800+005730FM-15+0087DAUB V0201301N010812200019N9999999N1+03601+01301999999ADDGA1021+012009999GF102991999999999999999999MA1100911999999MW1001REMMET045DAUB 081600Z 13021KT 6000 FEW040 36/13 Q1009;EQDQ01+060002VODIS Q02+000000PRSWM2
0155605250999992000051219004+34800+005730FM-15+0087DAUB V0201101N006212200019N9999999N1+03401+01101999999ADDGA1021+069009999GF104991999999999999999999MA1101021999999MW1001REMMET045DAUB 121900Z 11012KT 5000 SCT233 34/11 Q1010;EQDQ01+050002VODIS Q02+000000PRSWM2
0297605250999992000051518004+34800+005730SY-MT+0087DAUB V0202601N003612200019N0200001N1+03401+01161101221ADDAA199000091GA1021+012009999GF199999011021012501001001KA1120M+03501MA1101191999999MD1610171+9999MW1001REMSYN082AAXX  15184 60525 32670 12607 10340 20116 40122 56017 81200 333 10350 81840 95900;MET045DAUB 151800Z 26007KT 9999 FEW040 34/12 Q1012;EQDQ01+000012SCOTCVQ02+000000PRSWM2Q03  00002PRCP99
0235605250999992000051609004+34800+005730SY-MT+0087DAUB V0201101N005112200019N0150001N1+02811+01381101741ADDGA1021+012009999GF103991021021012501031001MA1101801999999MD1110101+9999MW1001REMSYN076AAXX  16094 60525 42665 31110 10281 20138 40174 51010 82230 333 82840 95900;MET045DAUB 160900Z 11010KT 9999 FEW040 28/14 Q1018;EQDQ01+000000PRSWM2
0262605250999992000052900004+34800+005730SY-MT+0087DAUB V0209999C000012200019N0100001N1+02701+01021101661ADDAA199000091GA1021+069009009GF102991001001999999001021MA1101691999999MD1010011+9999MW1001REMSYN082AAXX  29004 60525 32960 20000 10270 20102 40166 50001 80002 333 0//00 82073 95990;MET039DAUB 290000Z 00000KT CAVOK 27/10 Q1017;EQDQ01+000000PRSWM2Q02  00002PRCP99
0091605250999992000060310004+34800+005730FM-15+0087DAUB V0201301N00721220001CN0099001N1+02801+01501999999ADDMA1101801999999MW1001REMMET039DAUB 031000Z 13014KT CAVOK 28/15 Q1018;EQDQ01+000000PRSWM2
0091605250999992000060322004+34800+005730FM-15+0087DAUB V0201101N00261220001CN0099001N1+02801+01401999999ADDMA1101591999999MW1001REMMET039DAUB 032200Z 11005KT CAVOK 28/14 Q1016;EQDQ01+000000PRSWM2
0139605250999992000060507004+34800+005730FM-15+0087DAUB V0201301N005112200019N0080001N1+02501+01301999999ADDGA1021+030009999GF102991999999999999999999MA1101801999999MW1001REMMET045DAUB 050700Z 13010KT 8000 FEW100 25/13 Q1018;EQDQ01+000000PRSWM2
0091605250999992000061104004+34800+005730FM-15+0087DAUB V0203601N01341220001CN0099001N1+02101+00401999999ADDMA1101491999999MW1001REMMET039DAUB 110400Z 36026KT CAVOK 21/04 Q1015;EQDQ01+000000PRSWM2
0139605250999992000061120004+34800+005730FM-15+0087DAUB V0203501N011812200019N0112651N1+02601+00301999999ADDGA1021+012009999GF102991999999999999999999MA1101591999999MW1001REMMET045DAUB 112000Z 35023KT 9999 FEW040 26/03 Q1016;EQDQ01+000000PRSWM2
0139605250999992000061223004+34800+005730FM-15+0087DAUB V0209999C000012200019N0112651N1+02501+00901999999ADDGA1021+012009999GF102991999999999999999999MA1101901999999MW1001REMMET045DAUB 122300Z 00000KT 9999 FEW040 25/09 Q1019;EQDQ01+000000PRSWM2
0091605250999992000061708004+34800+005730FM-15+0087DAUB V0201701N00361220001CN0099001N1+02701+01001999999ADDMA1102201999999MW1001REMMET039DAUB 170800Z 17007KT CAVOK 27/10 Q1022;EQDQ01+000000PRSWM2
0091605250999992000070120004+34800+005730FM-15+0087DAUB V0201701N00101220001CN0099001N1+03601+01001999999ADDMA1101291999999MW1001REMMET039DAUB 012000Z 17002KT CAVOK 36/10 Q1013;EQDQ01+000000PRSWM2
0139605250999992000071116004+34800+005730FM-15+0087DAUB V0203301N009312200019N0080001N1+03901+00801999999ADDGA1021+030009999GF102991999999999999999999MA1100411999999MW1001REMMET045DAUB 111600Z 33018KT 8000 FEW100 39/08 Q1004;EQDQ01+000000PRSWM2
0234605250999992000072200004+34800+005730SY-MT+0087DAUB V0201101N004112200019N0100001N1+03301+01141101171ADDAA199000091GF100991001001999999001001MA1101191999999MD1110041+9999MW1001REMSYN070AAXX  22004 60525 32960 01108 10330 20114 40117 51004 333 0//00 95990;MET039DAUB 220000Z 11008KT CAVOK 33/11 Q1012;EQDQ01+000000PRSWM2Q02  00002PRCP99
0234605250999992000072212004+34800+005730SY-MT+0087DAUB V0201401N007212200019N0100001N1+03731+01231101391ADDAA199000091GF100991001001999999001001MA1101391999999MD1810091+9999MW1001REMSYN070AAXX  22124 60525 32960 01414 10373 20123 40139 58009 333 0//00 95900;MET039DAUB 221200Z 14014KT CAVOK 37/12 Q1014;EQDQ01+000000PRSWM2Q02  00002PRCP99
0091605250999992000072508004+34800+005730FM-15+0087DAUB V0201501N00621220001CN0099001N1+03201+01701999999ADDMA1101291999999MW1001REMMET039DAUB 250800Z 15012KT CAFOK 32/17 Q1013;EQDQ01+000000PRSWM2
0091605250999992000073010004+34800+005730FM-15+0087DAUB V0202801N00411220001CN0099001N1+03301+01501999999ADDMA1101901999999MW1001REMMET039DAUB 301000Z 28008KT CAVOK 33/15 Q1019;EQDQ01+000000PRSWM2
0091605250999992000073023004+34800+005730FM-15+0087DAUB V0200401N00211220001CN0099001N1+03101+01301999999ADDMA1101691999999MW1001REMMET039DAUB 302300Z 04004KT CAVOK 31/13 Q1017;EQDQ01+000000PRSWM2
0178605250999992000080520004+34800+005730FM-15+0087DAUB V0201601N003112200019N9999999N1+03301+01301999999ADDGA1021+015009999GA2021+030009999GF104991999999999999999999MA1101491999999MW1001REMMET052DAUB 052000Z 16006KT 6000 FEW050 SCT100 33/13 Q1015;EQDQ01+060002VODIS Q02+000000PRSWM2
0091605250999992000081403004+34800+005730FM-15+0087DAUB V0203001N00311220001CN0099001N1+02801+01201999999ADDMA1101591999999MW1001REMMET039DAUB 140300Z 30006KT CAVOK 28/12 Q1016;EQDQ01+000000PRSWM2
0229605250999992000082021004+34800+005730SY-MT+0087DAUB V0200601N004612200019N0100001N1+03621+00801101431ADDGA1031+030009079GF103991031001999999031001MA1101491999999MD1310081+9999MW1001REMSYN076AAXX  20214 60525 42960 30609 10362 20080 40143 53008 83030 333 83360 95990;MET039DAUB 202100Z 06009KT CAVOK 36/08 Q1015;EQDQ01+000000PRSWM2
0262605250999992000082100004+34800+005730SY-MT+0087DAUB V0209999C000012200019N0100001N1+03241+00821101501ADDAA199000091GA1011+030009079GF101991011001999999031001MA1101491999999MD1110061+9999MW1001REMSYN082AAXX  21004 60525 32960 10000 10324 20082 40150 51006 81030 333 0//00 81360 95990;MET039DAUB 210000Z 00000KT CAVOK 32/08 Q1015;EQDQ01+000000PRSWM2Q02  00002PRCP99
0139605250999992000082219004+34800+005730FM-15+0087DAUB V0209999C000012200019N0112651N1+03801+00901999999ADDGA1021+012009999GF102991999999999999999999MA1101391999999MW1001REMMET045DAUB 221900Z 00000KT 9999 FEW040 38/09 Q1014;EQDQ01+000000PRSWM2
0091605250999992000082413004+34800+005730FM-15+0087DAUB V0202001N00211220001CN0099001N1+04101+01101999999ADDMA1101901999999MW1001REMMET039DAUB 241300Z 20004KT CAVOK 41/11 Q1019;EQDQ01+000000PRSWM2
0091605250999992000082816004+34800+005730FM-15+0087DAUB V0201601N00461220001CN0099001N1+04301+00301999999ADDMA1101391999999MW1001REMMET039DAUB 281600Z 16009KT CAVOK 43/03 Q1014;EQDQ01+000000PRSWM2
0201605250999992000083121004+34800+005730SY-MT+0087DAUB V0200901N003112200019N0100001N1+03281+00701100891ADDGF100991001001999999001001MA1100911999999MD1110131+9999MW1001REMSYN064AAXX  31214 60525 42960 00906 10328 20070 40089 51013 333 95990;MET039DAUB 312100Z 09006KT CAVOK 33/07 Q1009;EQDQ01+000000PRSWM2
0280605250999992000090321004+34800+005730SY-MT+0087DAUB V0209999C00001036001CN9999999N1+03391+01341101041ADDGA1021+012009999GA2021+030009999GF105991031021012501081001MA1101081999999MD1210161+9999MW1001REMSYN082AAXX  03214 60525 42656 50000 10339 20134 40104 52016 83280 333 83840 83360 95990;MET052DAUB 032100Z 00000KT 6000 SCT040 SCT100 34/13 Q1011;EQDQ01+060002VODIS Q02+000000PRSWM2
0235605250999992000090609004+34800+005730SY-MT+0087DAUB V0209999C000012200019N0100001N1+02661+01791102061ADDGA1021+012009999GF104991041021012501001001MA1102101999999MD1210271+9999MW1001REMSYN076AAXX  06094 60525 42660 40000 10266 20179 40206 52027 84200 333 84840 95900;MET045DAUB 060900Z 00000KT 9999 SCT040 27/18 Q1021;EQDQ01+000000PRSWM2
0314605250999992000090818004+34800+005730SY-MT+0087DAUB V0200301N012312200019N0150001N1+03081+00881100961ADDAA199000091GA1021+009909999GF199999011021012501001001KA1120M+03321MA1101021999999MD1310071+9999MW1001OA150601851REMSYN088AAXX  08184 60525 32665 10324 10308 20088 40096 53007 81200 333 10332 55361 81833 95900;MET045DAUB 081800Z 03024KT 9999 FEW033 31/09 Q1010;EQDQ01+000012SCOTCVQ02+000000PRSWM2Q03  00002PRCP99
0251605250999992000090915004+34800+005730SY-MT+0087DAUB V0202401N001012200019N0250001N1+03141+00691101551ADDGA1021+012009999GF199999011021012501001001MA1101591999999MD1610161+9999MW1001REMSYN076AAXX  09154 60525 42675 12402 10314 20069 40155 56016 81200 333 81840 95900;MET045DAUB 091500Z 24002KT 9999 FEW040 31/07 Q1016;EQDQ01+000012SCOTCVQ02+000000PRSWM2
0144605250999992000091221004+34800+005730FM-12+0087DAUB V0201001N002112200019N0100001N1+02911+01101101261ADDGA1011+030009039GF102991011001999999031021MD1310141+9999REMSYN076AAXX  12214 60525 42960 21004 10291 20110 40126 53014 81032 333 81360 95990;
0091605250999992000091305004+34800+005730FM-15+0087DAUB V0209999C00001220001CN0099001N1+02001+00801999999ADDMA1101291999999MW1001REMMET039DAUB 130500Z 00000KT CAVOK 20/08 Q1013;EQDQ01+000000PRSWM2
0091605250999992000091322004+34800+005730FM-15+0087DAUB V0200401N00311220001CN0099001N1+02701+00901999999ADDMA1101291999999MW1001REMMET039DAUB 132200Z 04006KT CAVOK 27/09 Q1013;EQDQ01+000000PRSWM2
0091605250999992000091417004+34800+005730FM-15+0087DAUB V0201401N00361220001CN0099001N1+03501+01201999999ADDMA1101391999999MW1001REMMET039DAUB 141700Z 14007KT CAVOK 35/12 Q1014;EQDQ01+000000PRSWM2
0091605250999992000092303004+34800+005730FM-15+0087DAUB V0209999C00001220001CN0099001N1+02501+01301999999ADDMA1101591999999MW1001REMMET039DAUB 230300Z 00000KT CAVOK 25/13 Q1016;EQDQ01+000000PRSWM2
0139605250999992000100206004+34800+005730FM-15+0087DAUB V0200101N010312200019N0112651N1+01701+01001999999ADDGA1021+012009999GF104991999999999999999999MA1101591999999MW1001REMMET045DAUB 020600Z 01020KT 9999 SCT040 17/10 Q1016;EQDQ01+000000PRSWM2
0297605250999992000101518004+34800+005730SY-MT+0087DAUB V0201201N004110690019N0200001N1+01871+00501101631ADDAA199000091GA1031+030009079GA2061+069009019GF106991031001999999031021KA1120M+02161MA1101591999999MD1310071+9999MW1001REMSYN088AAXX  15184 60525 32970 61208 10187 20050 40163 53007 83032 333 10216 83360 86073 95990;MET039DAUB 151800Z 12008KT CAVOK 19/05 Q1016;EQDQ01+000000PRSWM2Q02  00002PRCP99
0162605250999992000101717004+34800+005730FM-15+0087DAUB V0209999C000012200019N0112651N1+02601+00501999999ADDGA1021+012009999GA2021+069009999GF104991999999999999999999MA1102301999999MW1001REMMET052DAUB 171700Z 00000KT 9999 FEW040 SCT233 26/05 Q1023;EQDQ01+000000PRSWM2
0202605250999992000102312004+34800+005730FM-12+0087DAUB V0201301N011810300019N0080001N1+02701+01561101771ADDAA199000091GA1031+012009089GA2031+030009039GF107991031021012501081021MD1810181+9999REMSYN088AAXX  23124 60525 32658 71323 10270 20156 40177 58018 83282 333 0//00 83840 83360 95900;EQDQ01  00002PRCP99
0289605250999992000102706004+34800+005730SY-MT+0087DAUB V0203401N006212200019N0150001N1+01521+01111101821ADDAA124003091GA1021+012009999GF102991021021012501001001IA2240+01409KA1120N+01431MA1101801999999MD1610081+9999MW1001REMSYN094AAXX  27064 60525 12665 23412 10152 20111 40182 56008 60034 82200 333 01400 20143 82840 95900;MET045DAUB 270600Z 34012KT 9999 FEW040 15/11 Q1018;EQDQ01+000000PRSWM2
0091605250999992000110223004+34800+005730FM-15+0087DAUB V0201201N00411220001CN0099001N1+01701+00601999999ADDMA1101691999999MW1001REMMET039DAUB 022300Z 12008KT CAVOK 17/06 Q1017;EQDQ01+000000PRSWM2
0251605250999992000111403004+34800+005730SY-MT+0087DAUB V0209999C000010690019N0100001N1+01461+00461101511ADDGA1031+030009079GA2051+069009019GF105991031001999999031021MA1101491999999MD1810101+9999MW1001REMSYN082AAXX  14034 60525 42960 50000 10146 20046 40151 58010 83032 333 83360 85073 95990;MET039DAUB 140300Z 00000KT CAVOK 15/05 Q1015;EQDQ01+000000PRSWM2
0262605250999992000111500004+34800+005730SY-MT+0087DAUB V0209999C000012200019N0100001N1+01451+00521101561ADDAA199000091GA1031+030009079GF103991031001999999031001MA1101491999999MD1810031+9999MW1001REMSYN082AAXX  15004 60525 32960 30000 10145 20052 40156 58003 83030 333 0//00 83360 95990;MET039DAUB 150000Z 00000KT CAVOK 15/05 Q1015;EQDQ01+000000PRSWM2Q02  00002PRCP99
0165605250999992000112414004+34800+005730FM-15+0087DAUB V0203601N014412200019N0112651N1+02001+00401999999ADDGA1021+007809999GA2021+009909029GF104991999999999999999999MA1101491999999MW1001REMMET055DAUB 241400Z 36028KT 9999 FEW026 SCT033TCU 20/04 Q1015;EQDQ01+000000PRSWM2
0139605250999992000112607004+34800+005730FM-15+0087DAUB V0203601N003112200019N0112651N1+01101+00701999999ADDGA1021+012009999GF102991999999999999999999MA1102201999999MW1001REMMET045DAUB 260700Z 36006KT 9999 FEW040 11/07 Q1022;EQDQ01+000000PRSWM2
0162605250999992000120817004+34800+005730FM-15+0087DAUB V0201101N002112200019N0112651N1+01701+00401999999ADDGA1021+012009999GA2021+030009999GF104991999999999999999999MA1102001999999MW1001REMMET052DAUB 081700Z 11004KT 9999 FEW040 SCT100 17/04 Q1020;EQDQ01+000000PRSWM2
0293605250999992000120915004+34800+005730SY-MT+0087DAUB V0203501N002110630019N0200001N1+02001+00311102411ADDGA1021+012009999GA2021+030009999GA3071+063009999GF107991021051012501031021MA1102401999999MD1510061+9999MW1001REMSYN088AAXX  09154 60525 42670 73504 10200 20031 40241 55006 82532 333 82640 84360 85071 95900;MET059DAUB 091500Z 35004KT 9999 FEW040 SCT100 BKN216 20/03 Q1024;EQDQ01+000000PRSWM2
0201605250999992000121321004+34800+005730SY-MT+0087DAUB V0200801N001512200019N0100001N1+01121+00401103121ADDGF100991001001999999001001MA1103121999999MD1310041+9999MW1001REMSYN064AAXX  13214 60525 42960 00803 10112 20040 40312 53004 333 95990;MET039DAUB 132100Z 08003KT CAVOK 11/04 Q1031;EQDQ01+000000PRSWM2
0091605250999992000121518004+34800+005730FM-15+0087DAUB V0209999C00001220001CN0099001N1+01301+00201999999ADDMA1101801999999MW1001REMMET039DAUB 151800Z 00000KT CAVOK 13/02 Q1018;EQDQ01+000000PRSWM2
0201605250999992000121815004+34800+005730SY-MT+0087DAUB V0200101N004112200019N0200001N1+01821+00221102491ADDGF100991001001999999001001MA1102401999999MD1610051+9999MW1001REMSYN064AAXX  18154 60525 42970 00108 10182 20022 40249 56005 333 95900;MET039DAUB 181500Z 01008KT CAVOK 18/02 Q1024;EQDQ01+000000PRSWM2
0201605250999992000121915004+34800+005730SY-MT+0087DAUB V0209999C00001220001CN0250001N1+01651+00501102311ADDGF100991001001999999001001MA1102301999999MD1710271+9999MW1001REMSYN064AAXX  19154 60525 42975 00000 10165 20050 40231 57027 333 95900;MET039DAUB 191500Z 00000KT CAVOK 17/05 Q1023;EQDQ01+000000PRSWM2
0091605250999992000122122004+34800+005730FM-15+0087DAUB V0203401N00571220001CN0099001N1+01201+00301999999ADDMA1101291999999MW1001REMMET039DAUB 212200Z 34011KT CAVOK 12/03 Q1013;EQDQ01+000000PRSWM2
0091605250999992000122211004+34800+005730FM-15+0087DAUB V0201201N00311220001CN0099001N1+01301+00201999999ADDMA1101391999999MW1001REMMET039DAUB 221100Z 12006KT CAVOK 13/02 Q1014;EQDQ01+000000PRSWM2
0313605250999992000122418004+34800+005730SY-MT+0087DAUB V0201301N999990690019N0100001N1+01381+00171101411ADDAA199000091GA1031+030009079GA2031+069009019GF105991031001999999031021KA1120M+01751MA1101291999999MD1310011+9999MW1001REMSYN088AAXX  24184 60525 32960 51396 10138 20017 40141 53001 83032 333 10175 83360 83073 95990;MET039DAUB 241800Z 13006KT CAVOK 14/02 Q1013;EQDQ01+004933WOSPD Q02+000000PRSWM2Q03  00002PRCP99
0216605310999992000010100004+35020-001470SY-MT+0247DAON V0209999C000012200019N0200001N1+00371+00301102731ADDAA106000091GF100991001001999999001001MA1102611999999MD1310101+9999MW1001REMSYN070AAXX  01004 60531 32970 00000 10037 20030 40273 53010 333 0//00 95990;MET037DAON 0000Z 00000KT CAVOK 04/03 Q1026;EQDQ01  00002PRCP06
0089605310999992000010801004+35020-001470FM-15+0247DAON V0209999C00001220001CN0099001N1+00401+00301999999ADDMA1102511999999MW1001REMMET037DAON 0100Z 00000KT CAVOK 04/03 Q1025;EQDQ01+000000PRSWM2
0160605310999992000011411004+35020-001470FM-15+0247DAON V0202201N005110300019N0112651N1+01101+00101999999ADDGA1021+006009999GA2071+030009999GF107991999999999999999999MA1101391999999MW1001REMMET050DAON 1100Z 22010KT 9999 FEW020 BKN100 11/01 Q1014;EQDQ01+000000PRSWM2
0203605310999992000011721004+35020-001470SY-MT+024799999V0209999C000012200019N0100001N1+00701+00671102811ADDGF100991001001999999001001MA1102711999999MD1110051+9999MW1001REMSYN068    AAXX  17214 60531 42960 00000 10070 20067 40281 51005 333 95990;MET037DAON 2100Z 00000KT CAVOK 07/07 Q1027;EQDQ01+000000PRSWM2
0156605310999992000011808004+35020-001470FM-15+0247DAON V0209999C000012200019N0008001N1+00201+00201999999ADDGA1021+003009999GF104991999999999999999999MA1102611999999MW1441REMMET046DAON 0800Z 00000KT 0800 FG SCT010 02/02 Q1026;EQDQ01+000003PRSWM1Q02    003PRSWM1
0089605310999992000011814004+35020-001470FM-15+0247DAON V0209999C00001220001CN0099001N1+01501+00601999999ADDMA1102201999999MW1001REMMET037DAON 1400Z 00000KT CAVOK 15/06 Q1022;EQDQ01+000000PRSWM2
0137605310999992000012410004+35020-001470FM-15+0247DAON V0202401N003112200019N0112651N1+01201+00701999999ADDGA1021+006009999GF104991999999999999999999MA1101901999999MW1001REMMET043DAON 1000Z 24006KT 9999 SCT020 12/07 Q1019;EQDQ01+000000PRSWM2
0089605310999992000012617004+35020-001470FM-15+0247DAON V0200601N00311220001CN0099001N1+01601+00601999999ADDMA1102101999999MW1001REMMET037DAON 1700Z 06006KT CAVOK 16/06 Q1021;EQDQ01+000000PRSWM2
0160605310999992000012914004+35020-001470FM-15+0247DAON V0203601N002610690019N0080001N1+01401+01001999999ADDGA1021+030009999GA2071+069009999GF107991999999999999999999MA1102811999999MW1001REMMET050DAON 1400Z 36005KT 8000 FEW100 BKN233 14/10 Q1028;EQDQ01+000000PRSWM2
0089605310999992000013010004+35020-001470FM-15+0247DAON V0209999C00001220001CN0099001N1+01101+00701999999ADDMA1103491999999MW1001REMMET037DAON 1000Z 00000KT CAVOK 11/07 Q1035;EQDQ01+000000PRSWM2
0144605310999992000020115004+35020-001470FM-12+0247DAON V0203601N003112200019N0200001N1+02341+00531102971ADDGA1031+069009009GF103991001001999999001021MD1610181+9999REMSYN076AAXX  01154 60531 42970 33606 10234 20053 40297 56018 80002 333 83073 95900;
0089605310999992000020303004+35020-001470FM-15+0247DAON V0209999C00001220001CN0099001N1+00801+00601999999ADDMA1103011999999MW1001REMMET037DAON 0300Z 00000KT CAVOK 08/06 Q1030;EQDQ01+000000PRSWM2
0089605310999992000020405304+35020-001470FM-15+0247DAON V0209999C00001220001CN0099001N1+00601+00301999999ADDMA1103291999999MW1001REMMET037DAON 0630Z 00000KT CAVOK 06/03 Q1033;EQDQ01+000000PRSWM2
0089605310999992000020413004+35020-001470FM-15+0247DAON V0209999C00001220001CN0099001N1+01701+00301999999ADDMA1103391999999MW1001REMMET037DAON 1300Z 00000KT CAVOK 17/03 Q1034;EQDQ01+000000PRSWM2
0137605310999992000021002004+35020-001470FM-15+0247DAON V0209999C000012200019N0006001N1+00801+00801999999ADDGF100991999999999999999999MA1103121999999MW1441REMMET043DAON 0200Z 00000KT 0600 FG SKC 08/08 Q1031;EQDQ01+000003PRSWM1Q02    003PRSWM1
0089605310999992000021017004+35020-001470FM-15+0247DAON V0203601N00261220001CN0099001N1+01701+00901999999ADDMA1102811999999MW1001REMMET037DAON 1700Z 36005KT CAVOK 17/09 Q1028;EQDQ01+000000PRSWM2
0089605310999992000021113004+35020-001470FM-15+0247DAON V0203601N00101220001CN0099001N1+01801+00401999999ADDMA1102511999999MW1001REMMET037DAON 1300Z 36002KT CAVOK 18/04 Q1025;EQDQ01+000000PRSWM2
0199605310999992000022109004+35020-001470SY-MT+0247DAON V0209999C000012200019N0250001N1+01101+00311102591ADDGF100991001001999999001001MA1102611999999MD1210191+9999MW1001REMSYN064AAXX  21094 60531 42975 00000 10110 20031 40259 52019 333 95900;MET037DAON 0900Z 00000KT CAVOK 11/03 Q1026;EQDQ01+000000PRSWM2
0089605310999992000030522004+35020-001470FM-15+0247DAON V0209999C00001220001CN0099001N1+01201+00801999999ADDMA1102711999999MW1001REMMET037DAON 2200Z 00000KT CAVOK 12/08 Q1027;EQDQ01+000000PRSWM2
0089605310999992000031022004+35020-001470FM-15+0247DAON V0209999C00001220001CN0099001N1+01201+00701999999ADDMA1102511999999MW1001REMMET037DAON 2200Z 00000KT CAVOK 12/07 Q1025;EQDQ01+000000PRSWM2
0260605310999992000031112004+35020-001470SY-MT+0247DAON V0209999C000012200019N0200001N1+02401+00601102201ADDAA199000091GA1041+069009019GF104991001001999999001021MA1102201999999MD1810101+9999MW1001REMSYN082AAXX  11124 60531 32970 40000 10240 20060 40220 58010 80002 333 0//00 84073 95900;MET037DAON 1200Z 00000KT CAVOK 24/06 Q1022;EQDQ01+000000PRSWM2Q02  00002PRCP99
0137605310999992000031613004+35020-001470FM-15+0247DAON V0203601N003112200019N0112651N1+02001+00801999999ADDGA1021+007809999GF102991999999999999999999MA1102301999999MW1001REMMET043DAON 1300Z 36006KT 9999 FEW026 20/08 Q1023;EQDQ01+000000PRSWM2
0160605310999992000032204004+35020-001470FM-15+0247DAON V0209999C000010690019N0080001N1+01201+01001999999ADDGA1021+030009999GA2071+069009999GF107991999999999999999999MA1101191999999MW1001REMMET050DAON 0400Z 00000KT 8000 FEW100 BKN230 12/10 Q1012;EQDQ01+000000PRSWM2
0089605310999992000032923004+35020-001470FM-15+0247DAON V0209999C00001220001CN0099001N1+01201+01001999999ADDMA1101391999999MW1001REMMET037DAON 2300Z 00000KT CAVOK 12/10 Q1014;EQDQ01+000000PRSWM2
0139605310999992000040322004+35020-001470FM-15+0247DAON V0202401N003110078019N0112651N1+01301+00801999999ADDGA1071+007809999GF107991999999999999999999MA1100411999999MW1001REMMET045DAON 2200Z 24006KT SCT020 BKN026 13/08 Q1004;EQDQ01+000000PRSWM2
0160605310999992000040911004+35020-001470FM-15+0247DAON V0202601N006212200019N0112651N1+02301+01001999999ADDGA1021+007809999GA2021+069009999GF104991999999999999999999MA1101021999999MW1001REMMET050DAON 1100Z 26012KT 9999 FEW026 SCT230 23/10 Q1010;EQDQ01+000000PRSWM2
0263605310999992000041206004+35020-001470SY-MT+0247DAON V0202201N003612200019N0250001N1+01001+00521101411ADDAA199000091GF100991001001999999001001IA2240+00609KA1120N+00891MA1101391999999MD1610031+9999MW1001REMSYN076AAXX  12064 60531 32975 02207 10100 20052 40141 56003 333 00600 20089 95900;MET037DAON 0600Z 22007KT CAVOK 10/05 Q1014;EQDQ01+000000PRSWM2Q02  00002PRCP99
0089605310999992000041507004+35020-001470FM-15+0247DAON V0209999C00001220001CN0099001N1+01201+00901999999ADDMA1101191999999MW1001REMMET037DAON 0700Z 00000KT CAVOK 12/09 Q1012;EQDQ01+000000PRSWM2
0137605310999992000041517004+35020-001470FM-15+0247DAON V0203601N007212200019N0112651N1+02301+00801999999ADDGA1021+007809999GF102991999999999999999999MA1100511999999MW1001REMMET043DAON 1700Z 36014KT 9999 FEW026 23/08 Q1005;EQDQ01+000000PRSWM2
0089605310999992000041601004+35020-001470FM-15+0247DAON V0209999C00001220001CN0099001N1+01401+00701999999ADDMA1100611999999MW1001REMMET037DAON 0100Z 00000KT CAVOK 14/07 Q1006;EQDQ01+000000PRSWM2
0089605310999992000041604004+35020-001470FM-15+0247DAON V0209999C00001220001CN0099001N1+01301+00701999999ADDMA1100411999999MW1001REMMET037DAON 0400Z 00000KT CAVOK 13/07 Q1004;EQDQ01+000000PRSWM2
0233605310999992000041809004+35020-001470SY-MT+0247DAON V0202401N005112200019N0250001N1+01651+00901102321ADDGA1021+007809999GF102991021021008001001001MA1102401999999MD1210131+9999MW1001REMSYN076AAXX  18094 60531 42575 22410 10165 20090 40232 52013 82200 333 82826 95900;MET043DAON 0900Z 24010KT 9999 FEW026 17/09 Q1024;EQDQ01+000000PRSWM2
0091605310999992000041817004+35020-001470FM-15+0247DAON V0202801N00721220001CN0099001N1+01901+00901999999ADDMA1102101999999MW1001REMMET039DAON 181700Z 28014KT CAVOK 19/09 Q1021;EQDQ01+000000PRSWM2
0293605310999992000043021004+35020-001470SY-MT+0247DAON V0203601N00211069001CN0080001N1+01541+01331100991ADDGA1021+007809999GA2021+030009999GA3071+069009999GF108991021031008001031021MA1101021999999MD1310131+9999MW1001REMSYN088AAXX  30214 60531 42558 83604 10154 20133 40099 53013 82332 333 82826 83360 85073 95990;MET059DAON 302100Z 36004KT 8000 FEW026 SCT100 BKN233 15/13 Q1010;EQDQ01+000000PRSWM2
0120605310999992000050306304+35020-001470FM-15+0247DAON V0203601N001512200019N0050001N1+01401+01201999999ADDGF100991999999999999999999MA1101081999999MW1001REMMET042DAON 030730Z 36003KT 5000 SKC 14/12 Q1011;EQDQ01+000000PRSWM2
0091605310999992000051108004+35020-001470FM-15+0247DAON V0209999C00001220001CN0099001N1+01701+00901999999ADDMA1101801999999MW1001REMMET039DAON 110800Z 00000KT CAVOK 17/09 Q1018;EQDQ01+000000PRSWM2
0323605310999992000051506004+35020-001470SY-MT+0247DAON V0209999C000010030019N0020001N1+01661+01581101621ADDAA199000091AY121061AY221061GA1071+003009999GF108991081061004501999999IA2240+01409KA1120N+01601MA1101691999999MD1510001+9999MW1101REMSYN094AAXX  15064 60531 31420 80000 10166 20158 40162 55000 71022 886// 333 01400 20160 88710 95970;MET047DAON 150600Z 00000KT 2000BR BKN010 17/16 Q1017;EQDQ01  00002PRCP99Q02    003PRSWM1
0158605310999992000051508004+35020-001470FM-15+0247DAON V0209999C000010030019N0020001N1+01701+01601999999ADDGA1081+003009999GF108991999999999999999999MA1101801999999MW1101REMMET048DAON 150800Z 00000KT 2000 BR OVC010 17/16 Q1018;EQDQ01+000003PRSWM1Q02    003PRSWM1
0162605310999992000051805004+35020-001470FM-15+0247DAON V0209999C000012200019N0060001N1+01701+01501999999ADDGA1021+003009999GA2021+007809999GF104991999999999999999999MA1101591999999MW1001REMMET052DAON 180500Z 00000KT 6000 SCT010 SCT026 17/15 Q1016;EQDQ01+000000PRSWM2
0091605310999992000052120004+35020-001470FM-15+0247DAON V0203601N00311220001CN0099001N1+01901+01501999999ADDMA1101491999999MW1001REMMET039DAON 212000Z 36006KT CAVOK 19/15 Q1015;EQDQ01+000000PRSWM2
0172605310999992000052503304+35020-001470FM-15+0247DAON V0202701N00151220001CN0112651N1+01601+01501999999ADDGA1071+007809999GA2021+030009999MA1102001999999MW1611REMMET056DAON 250430Z 27003KT 9999 -RA BKN026 SCT100 16/15 Q1020;EQDQ01+000042SCOTCVQ02+000003PRSWM1Q03    003PRSWM1
0162605310999992000052505304+35020-001470FM-15+0247DAON V0202201N004110300019N0080001N1+01601+01401999999ADDGA1021+007809999GA2071+030009999GF107991999999999999999999MA1102001999999MW1001REMMET052DAON 250630Z 22008KT 8000 SCT026 BKN100 16/14 Q1020;EQDQ01+000000PRSWM2
0268605310999992000052712004+35020-001470SY-MT+0247DAON V0202801N003612200019N0250001N1+02651+01311101821ADDAA199000091GA1021+007809999GF104991041021008001001001MA1101901999999MD1810021+9999MW1001REMSYN082AAXX  27124 60531 32575 42807 10265 20131 40182 58002 84200 333 0//00 84826 95900;MET045DAON 271200Z 28007KT 9999 SCT026 27/13 Q1019;EQDQ01+000000PRSWM2Q02  00002PRCP99
0139605310999992000052717004+35020-001470FM-15+0247DAON V0203601N005112200019N0112651N1+02501+01401999999ADDGA1021+007809999GF102991999999999999999999MA1101801999999MW1001REMMET045DAON 271700Z 36010KT 9999 FEW026 25/14 Q1018;EQDQ01+000000PRSWM2
0168605310999992000052800004+35020-001470FM-12+0247DAON V0209999C000012200019N0200001N1+01801+01461101891ADDAA199000091GA1001+999999999GF100991001001999999001001MD1010051+9999REMSYN070AAXX  28004 60531 32970 00000 10180 20146 40189 50005 333 0//00 95990;EQDQ01  00002PRCP99
0340605310999992000060306004+35020-001470SY-MT+0247DAON V0209999C000010030019N0030001N1+01961+01801101531ADDAA199000091AY111061AY221061GA1071+003009999GF199999061061004501001021IA2240+01809KA1120N+01861MA1101591999999MD1810011+9999MW1101REMSYN094AAXX  03064 60531 31430 60000 10196 20180 40153 58001 71012 86602 333 01800 20186 86710 95970;MET048DAON 030600Z 00000KT 3000 BR BKN010 20/18 Q1016;EQDQ01+000062SCOTCVQ02  00002PRCP99Q03    003PRSWM1
0251605310999992000060815004+35020-001470SY-MT+0247DAON V0203601N00721036001CN0250001N1+02701+01221101231ADDGA1011+009909059GA2031+030009079GF106991011051008001031021MA1101291999999MD1810111+9999MW1001REMSYN082AAXX  08154 60531 42575 63614 10270 20122 40123 58011 81532 333 81633 83360 95900;MET039DAON 081500Z 36014KT CAVOK 27/12 Q1013;EQDQ01+000000PRSWM2
0091605310999992000061308004+35020-001470FM-15+0247DAON V0209999C00001220001CN0099001N1+02101+00701999999ADDMA1102301999999MW1001REMMET039DAON 130800Z 00000KT CAVOK 21/07 Q1023;EQDQ01+000000PRSWM2
0091605310999992000061607004+35190-001460FM-15+0247DAON V0209999C00001220001CN0099001N1+01901+01201999999ADDMA1102101999999MW1001REMMET039DAON 160700Z 00000KT CAVOK 19/12 Q1021;EQDQ01+000000PRSWM2
0202605310999992000070300004+35190-001460FM-12+0247DAON V0209999C000012200019N0200001N1+02571+00941101321ADDAA199000091GA1011+030009039GA2041+069009009GF104991011001999999041021MD1010111+9999REMSYN088AAXX  03004 60531 32970 40000 10257 20094 40132 50011 81042 333 0//00 81360 84073 95990;EQDQ01  00002PRCP99
0139605310999992000070911004+35190-001460FM-15+0247DAON V0200201N003112200019N0080001N1+02901+01901999999ADDGA1021+069009999GF102991999999999999999999MA1101691999999MW1001REMMET045DAON 091100Z 02006KT 8000 FEW233 29/19 Q1017;EQDQ01+000000PRSWM2
0091605310999992000071019004+35190-001460FM-15+0247DAON V0202801N00571220001CN0099001N1+02701+01101999999ADDMA1101021999999MW1001REMMET039DAON 101900Z 28011KT CAVOK 27/11 Q1010;EQDQ01+000000PRSWM2
0132605310999992000071203004+35190-001460FM-12+0247DAON V0209999C000012200019N0200001N1+01821+01141101301ADDGA1001+999999999GF100991001001999999001001MD1410001+9999REMSYN064AAXX  12034 60531 42970 00000 10182 20114 40130 54000 333 95990;
0201605310999992000071409004+35190-001460SY-MT+0247DAON V0209999C00001220001CN0250001N1+02331+01691101911ADDGF100991001001999999001001MA1102001999999MD1010011+9999MW1001REMSYN064AAXX  14094 60531 42975 00000 10233 20169 40191 50001 333 95900;MET039DAON 140900Z 00000KT CAVOK 23/17 Q1020;EQDQ01+000000PRSWM2
0155605310999992000071616004+35190-001460FM-15+0247DAON V0200401N007212200019N9999999N1+03801+01101999999ADDGA1021+030009999GF102991999999999999999999MA1100611999999MW1001REMMET045DAON 161600Z 04014KT 6000 FEW100 38/11 Q1006;EQDQ01+060002VODIS Q02+000000PRSWM2
0144605310999992000072003004+35010-001460FM-12+0247DAON V0209999C000012200019N0060001N1+02041+01901101401ADDGA1031+003009079GF103991031061999999001001MD1410001+9999REMSYN076AAXX  20034 60531 42956 30000 10204 20190 40140 54000 83600 333 83710 95990;
0120605310999992000072011004+35010-001460FM-15+0247DAON V0200201N002612200019N0080001N1+02801+01801999999ADDGF100991999999999999999999MA1101391999999MW1001REMMET042DAON 201100Z 02005KT 8000 SKC 28/18 Q1014;EQDQ01+000000PRSWM2
0091605310999992000072505004+35010-001460FM-15+0247DAON V0209999C00001220001CN0099001N1+01901+00901999999ADDMA1101291999999MW1001REMMET039DAON 250500Z 00000KT CAVOK 19/09 Q1013;EQDQ01+000000PRSWM2
0181605310999992000072618004+35010-001460FM-12+0247DAON V0203601N005712200019N0250001N1+02801+01121101271ADDAA199000091GA1001+999999999GF100991001001999999001001KA1120M+03161MD1410001+9999REMSYN070AAXX  26184 60531 32975 03611 10280 20112 40127 54000 333 10316 95900;EQDQ01  00002PRCP99
0091605310999992000080301004+35010-001460FM-15+0247DAON V0209999C00001220001CN0099001N1+02501+01901999999ADDMA1101901999999MW1001REMMET039DAON 030100Z 00000KT CAVOK 25/19 Q1019;EQDQ01+000000PRSWM2
0091605310999992000081505004+35010-001460FM-15+0247DAON V0209999C00001220001CN0099001N1+01901+01701999999ADDMA1102001999999MW1001REMMET039DAON 150500Z 00000KT CAVOK 19/17 Q1020;EQDQ01+000000PRSWM2
0091605310999992000082102004+35010-001460FM-15+0247DAON V0209999C00001220001CN0099001N1+02501+00901999999ADDMA1101691999999MW1001REMMET039DAON 210200Z 00000KT CAVOK 25/09 Q1017;EQDQ01+000000PRSWM2
0162605310999992000082214004+35010-001460FM-15+0247DAON V0203601N005710300019N0112651N1+02901+01201999999ADDGA1021+007809999GA2071+030009999GF107991999999999999999999MA1101591999999MW1001REMMET052DAON 221400Z 36011KT 9999 FEW026 BKN100 29/12 Q1016;EQDQ01+000000PRSWM2
0162605310999992000082822004+35010-001460FM-15+0247DAON V0203601N003112200019N0112651N1+02501+02201999999ADDGA1021+007809999GA2021+069009999GF104991999999999999999999MA1101801999999MW1001REMMET052DAON 282200Z 36006KT 9999 SCT026 SCT230 25/22 Q1018;EQDQ01+000000PRSWM2
0234605310999992000090300004+35010-001460SY-MT+0247DAON V0209999C000012200019N0200001N1+02201+01131101501ADDAA199000091GF100991001001999999001001MA1101691999999MD1410001+9999MW1001REMSYN070AAXX  03004 60531 32970 00000 10220 20113 40150 54000 333 0//00 95990;MET039DAON 030000Z 00000KT CAVOK 22/11 Q1017;EQDQ01+000000PRSWM2Q02  00002PRCP99
0265605310999992000090906004+35010-001460SY-MT+0247DAON V0209999C000012200019N0200001N1+01801+01461101761ADDAA199000091GF100991001001999999001001IA2240+01409KA1120N+01771MA1101901999999MD1310061+9999MW1001REMSYN076AAXX  09064 60531 32970 00000 10180 20146 40176 53006 333 01400 20177 95900;MET039DAON 090600Z 00000KT CAVOK 18/15 Q1019;EQDQ01+000000PRSWM2Q02  00002PRCP99
0162605310999992000092601004+35010-001460FM-15+0247DAON V0209999C000010078019N0080001N1+02201+01901999999ADDGA1021+003009999GA2071+007809999GF107991999999999999999999MA1102001999999MW1001REMMET052DAON 260100Z 00000KT 8000 FEW010 BKN026 22/19 Q1020;EQDQ01+000000PRSWM2
0162605310999992000092710004+35010-001460FM-15+0247DAON V0209999C000012200019N0112651N1+02501+01801999999ADDGA1021+007809999GA2021+069009999GF104991999999999999999999MA1102101999999MW1001REMMET052DAON 271000Z 00000KT 9999 FEW026 SCT233 25/18 Q1021;EQDQ01+000000PRSWM2
0139605310999992000100207004+35010-001460FM-15+0247DAON V0202201N004110078019N0112651N1+01901+01301999999ADDGA1071+007809999GF107991999999999999999999MA1102201999999MW1001REMMET045DAON 020700Z 22008KT 9999 BKN026 19/13 Q1022;EQDQ01+000000PRSWM2
0139605310999992000100704004+35010-001460FM-15+0247DAON V0209999C000010030019N0060001N1+01801+01601999999ADDGA1071+003009999GF107991999999999999999999MA1102001999999MW1001REMMET045DAON 070400Z 00000KT 6000 BKN010 18/16 Q1020;EQDQ01+000000PRSWM2
0293605310999992000100906004+35010-001460SY-MT+0247DAON V0209999C000012200019N0150001N1+01201+00861101831ADDAA199000091GA1021+069009019GF102991001001999999001021IA2240+00809KA1120N+01201MA1101901999999MD1610031+9999MW1001REMSYN088AAXX  09064 60531 32965 20000 10120 20086 40183 56003 80002 333 00800 20120 82073 95900;MET039DAON 090600Z 00000KT CAVOK 12/09 Q1019;EQDQ01+000000PRSWM2Q02  00002PRCP99
0144605310999992000100921004+35010-001460FM-12+0247DAON V0209999C000010690019N0150001N1+02001+01231101471ADDGA1061+069009009GF106991001001999999001021MD1410001+9999REMSYN076AAXX  09214 60531 42965 60000 10200 20123 40147 54000 80002 333 86073 95990;
0271605310999992000101418004+35010-001460SY-MT+0247DAON V0203001N002612200019N0200001N1+01551+01231101711ADDAA112013091GA1021+007809999GF102991011021008001001021KA1120M+01751MA1101691999999MD1310011+9999MW1001REMSYN088AAXX  14184 60531 31570 23005 10155 20123 40171 53001 60132 81202 333 10175 81826 95900;MET045DAON 141800Z 30005KT 9999 FEW026 16/12 Q1017;EQDQ01+000000PRSWM2
0091605310999992000101613004+35010-001460FM-15+0247DAON V0209999C00001220001CN0099001N1+02301+01201999999ADDMA1101901999999MW1001REMMET039DAON 161300Z 00000KT CAVOK 23/12 Q1019;EQDQ01+000000PRSWM2
0205605310999992000102216004+35010-001460FM-15+0247DAON V0209999C000010300019N0060001N1+02101+01801999999ADDGA1021+003009999GA2021+007809999GA3071+030009999GF107991999999999999999999MA1101391999999MW1611REMMET063DAON 221600Z 00000KT 6000 -RA FEW010 SCT026 BKN100 21/18 Q1014;EQDQ01+000003PRSWM1Q02    003PRSWM1
0091605310999992000102717004+35010-001460FM-15+0247DAON V0203601N00261220001CN0099001N1+01901+01401999999ADDMA1102301999999MW1001REMMET039DAON 271700Z 36005KT CAVOK 19/14 Q1023;EQDQ01+000000PRSWM2
0162605310999992000103113004+35010-001460FM-15+0247DAON V0209999C000012200019N0112651N1+01801+01101999999ADDGA1021+007809999GA2021+030009999GF104991999999999999999999MA1101691999999MW1001REMMET052DAON 311300Z 00000KT 9999 SCT026 SCT100 18/11 Q1017;EQDQ01+000000PRSWM2
0289605310999992000110106004+35010-001460SY-MT+0247DAON V0209999C000012200019N0200001N1+01131+00981101901ADDAA124001091GA1021+007809999GF103991021021008001031021IA2240+00909KA1120N+01061MA1101901999999MD1310041+9999MW1001REMSYN094AAXX  01064 60531 12570 30000 10113 20098 40190 53004 60014 82232 333 00900 20106 82826 95990;MET045DAON 010600Z 00000KT 9999 FEW026 11/10 Q1019;EQDQ01+000000PRSWM2
0091605310999992000110804004+35010-001460FM-15+0247DAON V0202201N00411220001CN0099001N1+01001+00401999999ADDMA1101391999999MW1001REMMET039DAON 080400Z 22008KT CAVOK 10/04 Q1014;EQDQ01+000000PRSWM2
0338605310999992000111418004+35010-001460SY-MT+0247DAON V0209999C000010300019N0150001N1+01421+01271101291ADDAA112000191AY161061AY261061GA1021+007809999GA2071+030009999GF108991041021004501071999KA1120M+01671MA1101291999999MD1510001+9999MW1021REMSYN100AAXX  14184 60531 11465 80000 10142 20127 40129 55000 69912 70266 8427/ 333 10167 84826 86460 95990;MET052DAON 141800Z 00000KT 9999 SCT026 BKN100 14/13 Q1013;EQDQ01+000000PRSWM2Q02    003PRSWM1
0327605310999992000111509004+35010-001460SY-MT+0247DAON V0209999C00001030001CN0012001N1+01261+01191101191ADDAY161031AY261031GA1021+003009999GA2021+007809999GA3071+030009999GF108991051021004501071999MA1101191999999MD1310171+9999MW1631MW2651REMSYN094AAXX  15094 60531 41412 80000 10126 20119 40119 53017 76366 8527/ 333 83710 83826 86460 95970;MET065DAON 150900Z 00000KT 1200 +RABR SCT010 SCT026 BKN100 13/12 Q1012;EQDQ01    003PRSWM1
0162605310999992000111704004+35010-001460FM-15+0247DAON V0202201N005112200019N0112651N1+01101+00701999999ADDGA1021+008109999GA2021+030009999GF104991999999999999999999MA1102101999999MW1001REMMET052DAON 170400Z 22010KT 9999 SCT027 SCT100 11/07 Q1021;EQDQ01+000000PRSWM2
0293605310999992000112006004+35010-001460SY-MT+0247DAON V0202201N006212200019N0200001N1+00961+00371101791ADDAA199000091GA1011+030009079GF102991011001999999031021IA2240+00209KA1120N+00621MA1101801999999MD1810091+9999MW1001REMSYN088AAXX  20064 60531 32970 22212 10096 20037 40179 58009 81032 333 00200 20062 81360 95990;MET039DAON 200600Z 22012KT CAVOK 10/04 Q1018;EQDQ01+000000PRSWM2Q02  00002PRCP99
0162605310999992000112010004+35010-001460FM-15+0247DAON V0202401N006210300019N0112651N1+01301+00701999999ADDGA1021+009909999GA2071+030009999GF107991999999999999999999MA1101801999999MW1001REMMET052DAON 201000Z 24012KT 9999 FEW033 BKN100 13/07 Q1018;EQDQ01+000000PRSWM2
0091605310999992000112323004+35010-001460FM-15+0247DAON V0202201N00621220001CN0099001N1+01501+01201999999ADDMA1101801999999MW1001REMMET039DAON 232300Z 22012KT CAVOK 15/12 Q1018;EQDQ01+000000PRSWM2
0193605310999992000120618004+35010-001460FM-12+0247DAON V0209999C000010690019N0200001N1+01831+01161101731ADDAA199000091GA1061+069009009GF106991001001999999001021KA1120M+02331MD1610081+9999REMSYN082AAXX  06184 60531 32970 60000 10183 20116 40173 56008 80002 333 10233 86073 95990;EQDQ01  00002PRCP99
0162605310999992000120908004+35010-001460FM-15+0247DAON V0209999C000010300019N0112651N1+01201+01201999999ADDGA1021+007809999GA2071+030009999GF107991999999999999999999MA1102611999999MW1001REMMET052DAON 090800Z 00000KT 9999 FEW026 BKN100 12/12 Q1026;EQDQ01+000000PRSWM2
0235605310999992000122115004+35010-001460SY-MT+0247DAON V0202801N002112200019N0200001N1+01651+00721101151ADDGA1021+007809999GF102991011021008001001021MA1101191999999MD1710201+9999MW1001REMSYN076AAXX  21154 60531 42570 22804 10165 20072 40115 57020 81202 333 81826 95900;MET045DAON 211500Z 28004KT 9999 FEW026 17/07 Q1012;EQDQ01+000000PRSWM2
0235605310999992000122509004+35010-001460SY-MT+0247DAON V0202401N006212200019N0200001N1+01301+01021100901ADDGA1021+007809999GF102991021021008001001021MA1100911999999MD1310131+9999MW1001REMSYN076AAXX  25094 60531 42570 22412 10130 20102 40090 53013 82202 333 82826 95900;MET045DAON 250900Z 24012KT 9999 FEW026 13/10 Q1009;EQDQ01+000000PRSWM2
0139605310999992000122522004+35010-001460FM-15+0247DAON V0202401N006712200019N0112651N1+01401+00901999999ADDGA1021+007809999GF104991999999999999999999MA1100811999999MW1001REMMET045DAON 252200Z 24013KT 9999 SCT026 14/09 Q1008;EQDQ01+000000PRSWM2
0091605310999992000123123004+35010-001460FM-15+0247DAON V0209999C00001220001CN0099001N1+00801+00701999999ADDMA1102101999999MW1001REMMET039DAON 312300Z 00000KT CAVOK 08/07 Q1021;EQDQ01+000000PRSWM2
0263605350999992000012606004+34680+003250FM-12+1144DAFI V0202601N002112200019N0200001N1-00051-00181999999ADDAA199000091GA1021+012009089GA2031+030009039GF104991021011012501031001IA2240-00109KA1120N-00061MA1999999088361MD1310031+9999ME1315009REMSYN100AAXX  26064 60535 33670 42604 11005 21018 38836 48500 53003 82130 333 05100 21006 82840 83360 95990;EQDQ01  00002PRCP99
0241605350999992000020906004+34680+003250FM-12+1144DAFI V0203601N002112200019N0200001N1+00481+00171999999ADDAA199000091GA1021+060009009GF102991001001999999001021IA2240-00109KA1120N+00341MA1999999089201MD1810031+9999ME1315799REMSYN094AAXX  09064 60535 33970 23604 10048 20017 38920 48579 58003 80002 333 05100 20034 82070 95990;EQDQ01  00002PRCP99
0210605350999992000021312004+34680+003250FM-12+1144DAFI V0203601N004112200019N0200001N1+00781+00141999999ADDAA199000091GA1011+009909089GF101991011011012501001001MA1999999089201MD1810031+9999ME1315779REMSYN088AAXX  13124 60535 32670 13608 10078 20014 38920 48577 58003 81100 333 0//00 81833 95900;EQDQ01  00002PRCP99
0245605350999992000022218004+34680+003250FM-12+1144DAFI V0203201N003119999999N0200001N1+01301-00271999999ADDAA199000091GA1021+030009039GA2031+060009009GF105991021001999999031011KA1120M+01611MA1999999088551MD1610051+9999ME1315209REMSYN094AAXX  22184 60535 32970 53206 10130 21027 38855 48520 56005 82031 333 10161 82360 83070 95900;EQDQ01  00002PRCP99
0223605350999992000032518004+34680+003250FM-12+1144DAFI V0203401N006712200019N0200001N1+01221-00331999999ADDAA199000091GA1011+012009089GF101991011011012501001001KA1120M+01451MA1999999088191MD1310071+9999ME1314889REMSYN088AAXX  25184 60535 32670 13413 10122 21033 38819 48488 53007 81100 333 10145 81840 95900;EQDQ01  00002PRCP99
0162605350999992000040615004+34680+003250FM-12+1144DAFI V0202401N010312200019N0100001N1+02031-00721999999ADDGA1001+999999999GF100991001001999999001001MA1999999088321MD1710181+9999ME1315039REMSYN070AAXX  06154 60535 42960 02420 10203 21072 38832 48503 57018 333 95900;
0174605350999992000041809004+34680+003250FM-12+1144DAFI V0203401N010312200019N0200001N1+00801+00361999999ADDGA1011+006009089GF102991021011008001001001MA1999999088391MD1110141+9999ME1315069REMSYN082AAXX  18094 60535 42570 23420 10080 20036 38839 48506 51014 82100 333 81820 95900;
0245605350999992000042518004+34680+003250FM-12+1144DAFI V0202201N010310690019N0150001N1+02651-00571999999ADDAA199000091GA1031+009909089GA2031+069009009GF105991031021008001001021KA1120M+03001MA1999999088021MD1110021+9999ME1314829REMSYN094AAXX  25184 60535 32565 52220 10265 21057 38802 48482 51002 83202 333 10300 83833 83073 95900;EQDQ01  00002PRCP99
0210605350999992000051712004+34680+003250FM-12+1144DAFI V0209999C000010600019N0200001N1+02501+00861999999ADDAA199000091GA1061+060009009GF106991001001999999001021MA1999999088341MD1610061+9999ME1315179REMSYN088AAXX  17124 60535 32970 60000 10250 20086 38834 48517 56006 80002 333 0//00 86070 95900;EQDQ01  00002PRCP99
0229605350999992000052906004+34680+003250FM-12+1144DAFI V0209999C000012200019N0200001N1+01401+00761999999ADDAA199000091GA1001+999999999GF100991001001999999001001IA2240+01009KA1120N+01301MA1999999088771MD1310051+9999ME1315559REMSYN082AAXX  29064 60535 33970 00000 10140 20076 38877 48555 53005 333 01000 20130 95900;EQDQ01  00002PRCP99
0210605350999992000062012004+34670+003250FM-12+1144DAFI V0203401N002112200019N0200001N1+02781+00261999999ADDAA199000091GA1021+012009089GF102991021021012501001001MA1999999088611MD1810031+9999ME1315429REMSYN088AAXX  20124 60535 32670 23404 10278 20026 38861 48542 58003 82200 333 0//00 82840 95900;EQDQ01  00002PRCP99
0162605350999992000071915004+34670+003250FM-12+1144DAFI V0203601N002612200019N0150001N1+03461+00451999999ADDGA1001+999999999GF100991001001999999001001MA1999999088341MD1610121+9999ME1315259REMSYN070AAXX  19154 60535 42965 03605 10346 20045 38834 48525 56012 333 95900;
0229605350999992000080706004+34670+003250FM-12+1144DAFI V0209999C000012200019N0280001N1+01401+00941999999ADDAA199000091GA1011+009909069GF101991011061012501001001KA1120N+01301MA1999999088741MD1410001+9999ME1315509REMSYN094AAXX  07064 60535 3/678 10000 10140 20094 38874 48550 54000 708// 81600 333 20130 81633 95900;EQDQ01  00002PRCP99
0211605350999992000091418004+34670+003250FM-12+1144DAFI V0209999C000012200019N0200001N1+02701+00491999999ADDAA199000091GA1001+999999999GF100991001001999999001001KA1120M+02931MA1999999088561MD1110081+9999ME1315349REMSYN076AAXX  14184 60535 32970 00000 10270 20049 38856 48534 51008 333 10293 95900;EQDQ01  00002PRCP99
0210605350999992000102212004+34670+003250FM-12+1144DAFI V0201801N00931007501CN0100001N1+01751+01071999999ADDAA199000091GA1021+007809089GF106991061021008001001001MA1999999088521MD1810031+9999ME1315249REMSYN088AAXX  22124 60535 32560 61818 10175 20107 38852 48524 58003 86200 333 0//00 82826 95900;EQDQ01  00002PRCP99
0218605350999992000102615004+34670+003250FM-12+1144DAFI V0203201N006210300019N0200001N1+01291+00691999999ADDGA1011+007809089GA2011+009909099GA3031+030009039GF107991011091008001071021MA1999999088521MD1710111+9999ME1315219REMSYN094AAXX  26154 60535 42570 73212 10129 20069 38852 48521 57011 81972 333 81826 81933 83360 95900;
0223605350999992000102718004+34670+003250FM-12+1144DAFI V0203601N002112200019N0200001N1+01201+00921999999ADDAA199000091GA1031+030009039GF103991031001999999031001KA1120M+01491MA1999999088771MD1310061+9999ME1315429REMSYN088AAXX  27184 60535 32970 33604 10120 20092 38877 48542 53006 83030 333 10149 83360 95990;EQDQ01  00002PRCP99
0211605350999992000121218004+34670+003250FM-12+1144DAFI V0209999C000012200019N0200001N1+01051+00021999999ADDAA199000091GA1001+999999999GF100991001001999999001001KA1120M+01461MA1999999089631MD1410001+9999ME1316159REMSYN076AAXX  12184 60535 32970 00000 10105 20002 38963 48615 54000 333 10146 95990;EQDQ01  00002PRCP99
0196605350999992000122515004+34670+003250FM-12+1144DAFI V0203001N008210600019N0200001N1+00931+00281999999ADDGA1041+007809089GA2031+060009009GF106991041021008001001011MA1999999087531MD1310081+9999ME1314249REMSYN088AAXX  25154 60535 42570 63016 10093 20028 38753 48424 53008 84201 333 84826 83070 95900;
0162605360999992000021815004+34870+000150FM-12+077099999V0209999C000012200019N0200001N1+02001+00391999999ADDGA1001+999999999GF100991001001999999001001MA1999999093631MD1610191+9999ME1315559REMSYN070AAXX  18154 60536 42970 00000 10200 20039 39363 48555 56019 333 95900;
0192605490999992000012206004+34930-000430FM-12+1149DAAY V0202101N002112200019N0100001N1-00311-00441999999ADDAA199000091GA1001+999999999GF100991001001999999001001MA1999999088861MD1610091+9999ME1315129REMSYN070AAXX  22064 60549 32960 02104 11031 21044 38886 48512 56009 333 95990;EQDQ01  00002PRCP99
0198605490999992000012300004+34930-000430FM-12+1149DAAY V0200401N002112200019N0100001N1+00321-00081999999ADDAA199000091GA1001+999999999GF100991001001999999001001MA1999999088801MD1010021+9999ME1315079REMSYN076AAXX  23004 60549 32960 00404 10032 21008 38880 48507 50002 333 0//00 95990;EQDQ01  00002PRCP99
0080605490999992000020209004+34930-000430FM-12+1149DAAY V0209999C000012200019N0100001N1+01101+00001999999ADDGF102991999999999999999999REMSYN042AAXX  02094 60549 42960 20000 10110 20000;
0211605490999992000020718004+34930-000430FM-12+1149DAAY V0200601N005112200019N0100001N1+01321-00571999999ADDAA199000091GA1001+999999999GF100991001001999999001001KA1120M+01571MA1999999089841MD1310011+9999ME1316099REMSYN076AAXX  07184 60549 32960 00610 10132 21057 38984 48609 53001 333 10157 95900;EQDQ01  00002PRCP99
0162605490999992000021315004+34930-000430FM-12+1149DAAY V0203001N006212200019N0100001N1+01191-00231999999ADDGA1001+999999999GF100991001001999999001001MA1999999089581MD1710131+9999ME1315749REMSYN070AAXX  13154 60549 42960 03012 10119 21023 38958 48574 57013 333 95900;
0174605490999992000021703004+34930-000430FM-12+1149DAAY V0203101N007212200019N0100001N1+00911-00041999999ADDGA1021+030009039GF103991021001999999081011MA1999999089211MD1710041+9999ME1315549REMSYN082AAXX  17034 60549 42960 33114 10091 21004 38921 48554 57004 82081 333 82360 95990;
0198605490999992000021900004+34930-000430FM-12+1149DAAY V0209999C000012200019N0100001N1+00901+00131999999ADDAA199000091GA1001+999999999GF100991001001999999001001MA1999999089411MD1410001+9999ME1315709REMSYN076AAXX  19004 60549 32960 00000 10090 20013 38941 48570 54000 333 0//00 95990;EQDQ01  00002PRCP99
0210605490999992000030400004+34930-000430FM-12+1149DAAY V0202701N006212200019N0080001N1+01151-00031999999ADDAA199000091GA1031+069009009GF103991001001999999001021MA1999999089411MD1810031+9999ME1315759REMSYN088AAXX  04004 60549 32958 32712 10115 21003 38941 48575 58003 80002 333 0//00 83073 95990;EQDQ01  00002PRCP99
0196605490999992000032015004+34930-000430FM-12+1149DAAY V0202401N009310090019N0060001N1+01501+00541999999ADDGA1021+007809099GA2041+009009089GF107991061031008001081001MA1999999088341MD1710111+9999ME1314709REMSYN088AAXX  20154 60549 42556 72418 10150 20054 38834 48470 57011 86380 333 82926 84830 95900;
0210605490999992000032400004+34930-000430FM-12+1149DAAY V0200501N007212200019N0080001N1+00851+00221999999ADDAA199000091GA1021+069009009GF102991001001999999001011MA1999999088531MD1110111+9999ME1314909REMSYN088AAXX  24004 60549 32958 20514 10085 20022 38853 48490 51011 80001 333 0//00 82073 95990;EQDQ01  00002PRCP99
0174605490999992000032809004+34930-000430FM-12+1149DAAY V0203001N006212200019N0080001N1+01501-00151999999ADDGA1021+030009039GF102991021001999999081001MA1999999088031MD1010011+9999ME1314459REMSYN082AAXX  28094 60549 42958 23012 10150 21015 38803 48445 50001 82080 333 82360 95900;
0210605490999992000033112004+34930-000430FM-12+1149DAAY V0203101N009312200019N0080001N1+01861+00401999999ADDAA199000091GA1021+009009089GF103991021021008001081001MA1999999088421MD1410001+9999ME1314819REMSYN088AAXX  31124 60549 32558 33118 10186 20040 38842 48481 54000 82280 333 0//00 82830 95900;EQDQ01  00002PRCP99
0312605490999992000041406004+34930-000430SY-MT+1149DAAY V0200701N005112200019N0080001N1+00561+00451999999ADDAA199000091GA1021+030009999GF104991031001999999081011IA2240+00209KA1120N+00541MA1101021087981MD1710031+9999ME1314409MW1001REMSYN094AAXX  14064 60549 32958 40710 10056 20045 38798 48440 57003 83081 333 00200 20054 83360 95900;MET043DAAY 0600Z 07010KT 8000 SCT100 06/05 Q1010;EQDQ01+000000PRSWM2Q02  00002PRCP99
0198605490999992000041600004+34930-000430FM-12+1149DAAY V0202501N003112200019N0080001N1+01281+00291999999ADDAA199000091GA1001+999999999GF100991001001999999001001MA1999999087881MD1710081+9999ME1314399REMSYN076AAXX  16004 60549 32958 02506 10128 20029 38788 48439 57008 333 0//00 95990;EQDQ01  00002PRCP99
0275605490999992000041609004+34930-000430SY-MT+1149DAAY V0202601N014412200019N0010001N1+01751+00461999999ADDAY101031AY201031GA1021+030009999GF103991021001999999081011MA1100611087641MD1510061+9999ME1314109MW1071REMSYN088AAXX  16094 60549 41910 32628 10175 20046 38764 48410 55006 70700 82081 333 82360 95900;MET048DAAY 0900Z 26028KT 1000 BLSA FEW100 18/05 Q1006;EQDQ01    003PRSWM1
0211605490999992000042118004+34930-000430FM-12+1149DAAY V0202501N004112200019N0070001N1+02551+00061999999ADDAA199000091GA1001+999999999GF100991001001999999001001KA1120M+02791MA1999999088831MD1810061+9999ME1315259REMSYN076AAXX  21184 60549 32957 02508 10255 20006 38883 48525 58006 333 10279 95900;EQDQ01  00002PRCP99
0137605490999992000050819004+34930-000430FM-15+1149DAAY V0202101N006212200019N9999999N1+02501-00401999999ADDGF100991999999999999999999MA1101081999999MW1001REMMET043DAAY 081900Z 21012KT 6000 SKC 25/M04 Q1011;EQDQ01+060002VODIS Q02+000000PRSWM2
0325605490999992000052206004+34930-000430SY-MT+1149DAAY V0203501N004112200019N0060001N1+01431+00811999999ADDAA199000091GA1021+009009999GA2021+030009999GF104991021021008001081011KA1120N+01331MA1101691088611MD1510021+9999ME1314999MW1001REMSYN094AAXX  22064 60549 32556 23508 10143 20081 38861 48499 55002 82281 333 20133 82830 83360 95900;MET052DAAY 220600Z 35008KT 6000 FEW030 SCT100 14/08 Q1017;EQDQ01+000000PRSWM2Q02  00002PRCP99
0092605490999992000053004004+34930-000430FM-15+1149DAAY V0200301N00311220001CN0099001N1+01901-00601999999ADDMA1102101999999MW1001REMMET040DAAY 300400Z 03006KT CAVOK 19/M06 Q1021;EQDQ01+000000PRSWM2
0120605490999992000061808004+34920-000420FM-15+1149DAAY V0202601N008212200019N0080001N1+02801+01101999999ADDGF100991999999999999999999MA1102301999999MW1001REMMET042DAAY 180800Z 26016KT 8000 SKC 28/11 Q1023;EQDQ01+000000PRSWM2
0155605490999992000070216004+34920-000420FM-15+1149DAAY V0202101N009310090019N9999999N1+03901+00901999999ADDGA1071+009009999GF107991999999999999999999MA1101801999999MW1001REMMET045DAAY 021600Z 21018KT 6000 BKN030 39/09 Q1018;EQDQ01+060002VODIS Q02+000000PRSWM2
0162605490999992000071203004+34920-000420FM-12+1149DAAY V0200601N009312200019N0060001N1+01541+01081999999ADDGA1001+999999999GF100991001001999999001001MA1999999088431MD1710101+9999ME1314919REMSYN070AAXX  12034 60549 42956 00618 10154 20108 38843 48491 57010 333 95990;
0262605490999992000071306004+34920-000420SY-MT+1149DAAY V0200301N003112200019N0100001N1+02301+01071999999ADDAA199000091GF100991001001999999001001KA1120N+01971MA1101901088841MD1310041+9999ME1315389MW1001REMSYN076AAXX  13064 60549 32960 00306 10230 20107 38884 48538 53004 333 20197 95900;MET039DAAY 130600Z 03006KT CAVOK 23/11 Q1019;EQDQ01+000000PRSWM2Q02  00002PRCP99
0249605490999992000082500004+34920-000420SY-MT+1149DAAY V0209999C000012200019N0100001N1+02251+00361999999ADDAA199000091GF100991001001999999001001MA1102401089251MD1810061+9999ME1315789MW1001REMSYN076AAXX  25004 60549 32960 00000 10225 20036 38925 48578 58006 333 0//00 95990;MET039DAAY 250000Z 00000KT CAVOK 23/04 Q1024;EQDQ01+000000PRSWM2Q02  00002PRCP99
0266605490999992000090209004+34920-000420SY-MT+1149DAAY V0202601N003112200019N9999999N1+02951+01151999999ADDGA1021+030009999GF104991031001999999081011MA1101801088721MD1310041+9999ME1315289MW1001REMSYN082AAXX  02094 60549 42956 42606 10295 20115 38872 48528 53004 83081 333 83360 95900;MET045DAAY 020900Z 26006KT 6000 FEW100 30/12 Q1018;EQDQ01+060002VODIS Q02+000000PRSWM2
0091605490999992000090315004+34920-000420FM-15+1149DAAY V0200301N00211220001CN0099001N1+03001+01501999999ADDMA1101801999999MW1001REMMET039DAAY 031500Z 03004KT CAVOK 30/15 Q1018;EQDQ01+000000PRSWM2
0162605490999992000090522004+34920-000420FM-15+1149DAAY V0200601N005112200019N0112651N1+02401+01401999999ADDGA1021+009009999GA2021+030009999GF102991999999999999999999MA1102301999999MW1001REMMET052DAAY 052200Z 06010KT 9999 FEW030 FEW100 24/14 Q1023;EQDQ01+000000PRSWM2
0250605490999992000090621004+34920-000420SY-MT+1149DAAY V0209999C000012200019N0100001N1+02651+01161999999ADDGA1021+030009999GF102991021001008001081001MA1102301089121MD1210281+9999ME1315619MW1001REMSYN082AAXX  06214 60549 42560 20000 10265 20116 38912 48561 52028 82080 333 82260 95990;MET045DAAY 062100Z 00000KT 9999 FEW100 27/12 Q1023;EQDQ01+000000PRSWM2
0156605490999992000091722004+34920-000420FM-15+1149DAAY V0202101N005112200019N9999999N1+03001-00401999999ADDGA1021+009009999GF102991999999999999999999MA1101801999999MW1001REMMET046DAAY 172200Z 21010KT 5000 FEW030 30/M04 Q1018;EQDQ01+050002VODIS Q02+000000PRSWM2
0178605490999992000092520004+34920-000420FM-15+1149DAAY V0202401N002112200019N9999999N1+02401+00701999999ADDGA1021+009909999GA2021+030009999GF104991999999999999999999MA1102201999999MW1001REMMET052DAAY 252000Z 24004KT 7000 SCT033 SCT100 24/07 Q1022;EQDQ01+070002VODIS Q02+000000PRSWM2
0139605490999992000092906004+34920-000420FM-15+1149DAAY V0209999C000012200019N0080001N1+01401+00801999999ADDGA1021+009009999GF104991999999999999999999MA1101291999999MW1001REMMET045DAAY 290600Z 00000KT 8000 SCT030 14/08 Q1013;EQDQ01+000000PRSWM2
0091605490999992000100522004+34920-000420FM-15+1149DAAY V0209999C00001220001CN0099001N1+01701+00601999999ADDMA1102101999999MW1001REMMET039DAAY 052200Z 00000KT CAVOK 17/06 Q1021;EQDQ01+000000PRSWM2
0216605490999992000100621004+34920-000420SY-MT+1149DAAY V0200301N007212200019N0100001N1+01761+00651999999ADDGF100991001001999999001001MA1102101089021MD1210151+9999ME1315449MW1001REMSYN070AAXX  06214 60549 42960 00314 10176 20065 38902 48544 52015 333 95990;MET039DAAY 062100Z 03014KT CAVOK 18/07 Q1021;EQDQ01+000000PRSWM2
0165605490999992000101313004+34920-000420FM-15+1149DAAY V0209999C000012200019N0112651N1+01001+00801999999ADDGA1021+006009999GA2021+007809029GF104991999999999999999999MA1101191999999MW1001REMMET055DAAY 131300Z 00000KT 9999 FEW020 SCT026TCU 10/08 Q1012;EQDQ01+000000PRSWM2
0245605490999992000101518004+34920-000420FM-12+1149DAAY V0203001N008210300019N0100001N1+01431+00511999999ADDAA199000091GA1031+009009089GA2031+030009039GF107991021021008001071011KA1120M+01551MA1999999088551MD1510001+9999ME1314899REMSYN094AAXX  15184 60549 32560 73016 10143 20051 38855 48489 55000 82271 333 10155 83830 83360 95990;EQDQ01  00002PRCP99
0216605490999992000101803004+34920-000420SY-MT+1149DAAY V0200301N004112200019N0100001N1+01131+00961999999ADDGF100991001001999999001001MA1102711089491MD1710051+9999ME1315849MW1001REMSYN070AAXX  18034 60549 42960 00308 10113 20096 38949 48584 57005 333 95990;MET039DAAY 180300Z 03008KT CAVOK 11/10 Q1027;EQDQ01+000000PRSWM2
0232605490999992000102318004+34920-000420FM-12+1149DAAY V0200601N005110360019N0080001N1+01231+01151999999ADDAA112024991GA1021+004809079GA2021+007809099GF108991021071008001091001KA1120M+01681MA1999999088311MD1210091+9999ME1314679REMSYN100AAXX  23184 60549 12558 80610 10123 20115 38831 48467 52009 60252 82790 333 10168 82716 82926 95990;
0256605490999992000102421004+34920-000420SY-MT+1149DAAY V0209999C000012200019N0080001N1+01281+00591999999ADDGA1021+009009999GF103991021021008001081001MA1101901088811MD1210211+9999ME1315159MW1001REMSYN088AAXX  24214 60549 42558 30000 10128 20059 38881 48515 52021 82280 333 82830 82360 95990;MET045DAAY 242100Z 00000KT 8000 FEW030 13/06 Q1019;EQDQ01+000000PRSWM2
0204605490999992000102618004+34920-000420FM-12+1149DAAY V0203301N002112200019N0100001N1+01351+00761999999ADDAA199000021GA1021+009009089GF104991031081008001081001KA1120M+01551MA1999999089001MD1310021+9999ME1315339REMSYN088AAXX  26184 60549 32560 43304 10135 20076 38900 48533 53002 83880 333 10155 82830 95990;
0152605490999992000102710004+34920-000420FM-15+1149DAAY V0200701N00311220001CN0112651N1+00901+00801999999ADDGA1071+003909999GA2021+009009999MA1102511999999MW1001REMMET052DAAY 271000Z 07006KT 9999 BKN013 SCT030 09/08 Q1025;EQDQ01+000042SCOTCVQ02+000000PRSWM2
0254605490999992000110103004+34920-000420SY-MT+1149DAAY V0202701N004112200019N0100001N1+01011+00771999999ADDGA1021+009009999GF103991021021008001081001MA1101901088811MD1410001+9999ME1315189MW1001REMSYN082AAXX  01034 60549 42560 32708 10101 20077 38881 48518 54001 82280 333 82830 95990;MET049DAAY 010300Z 27008KT 9999 SER FEW030 10/08 Q1019;EQDQ01+000000PRSWM2
0091605490999992000121410004+34920-000420FM-15+1149DAAY V0209999C00001220001CN0099001N1+01001+00301999999ADDMA1103011999999MW1001REMMET039DAAY 141000Z 00000KT CAVOK 10/03 Q1030;EQDQ01+000000PRSWM2
0091605490999992000122322004+34920-000420FM-15+1149DAAY V0209999C00001220001CN0099001N1+00601+00401999999ADDMA1101291999999MW1001REMMET039DAAY 232200Z 00000KT CAVOK 06/04 Q1013;EQDQ01+000000PRSWM2
0210605490999992000122912004+34920-000420FM-12+1149DAAY V0202801N012310360019N0060001N1+01081+00601999999ADDAA199000091GA1031+009909089GF105991031021008001071001MA1999999088821MD1110011+9999ME1315129REMSYN088AAXX  29124 60549 32556 52824 10108 20060 38882 48512 51001 83270 333 0//00 83833 95900;EQDQ01  00002PRCP99
0229605500999992000012006004+33670+001000FM-12+134199999V0209999C000012200019N0100001N1-00281-00381999999ADDAA199000091GA1001+999999999GF100991001001999999001001IA2240-00909KA1120N-00361MA1999999086871MD1310031+9999ME1315229REMSYN082AAXX  20064 60550 33960 00000 11028 21038 38687 48522 53003 333 05900 21036 95990;EQDQ01  00002PRCP99
0211605500999992000020918004+33670+001000FM-12+134199999V0200101N003612200019N0150001N1+01241-00421999999ADDAA199000091GA1001+999999999GF100991001001999999001001KA1120M+01561MA1999999087561MD1310031+9999ME1315909REMSYN076AAXX  09184 60550 32965 00107 10124 21042 38756 48590 53003 333 10156 95990;EQDQ01  00002PRCP99
0241605500999992000022706004+33670+001000FM-12+134199999V0209999C000012200019N0100001N1+00121-01021999999ADDAA199000091GA1021+030009039GF102991021001999999031001IA2240-00509KA1120N+00061MA1999999087521MD1310021+9999ME1315859REMSYN094AAXX  27064 60550 33960 20000 10012 21102 38752 48585 53002 82030 333 05500 20006 82360 95990;EQDQ01  00002PRCP99
0211605500999992000030118004+33670+001000FM-12+134199999V0202701N003112200019N0150001N1+01421-01221999999ADDAA199000091GA1001+999999999GF100991001001999999001001KA1120M+01951MA1999999087151MD1510041+9999ME1315549REMSYN076AAXX  01184 60550 32965 02706 10142 21122 38715 48554 55004 333 10195 95900;EQDQ01  00002PRCP99
0174605500999992000031209004+33670+001000FM-12+134199999V0209999C000012200019N0100001N1+01701-00201999999ADDGA1031+075009009GF103991001001999999001021MA1999999087231MD1010011+9999ME1315659REMSYN082AAXX  12094 60550 42960 30000 10170 21020 38723 48565 50001 80002 333 83075 95900;
0223605500999992000040918004+33670+001000FM-12+134199999V0203501N003110750019N0200001N1+01781-00151999999ADDAA199000091GA1061+075009009GF106991001001999999001021KA1120M+02041MA1999999085911MD1310031+9999ME1314369REMSYN088AAXX  09184 60550 32970 63506 10178 21015 38591 48436 53003 80002 333 10204 86075 95900;EQDQ01  00002PRCP99
0193605500999992000050109004+33670+001000FM-12+134199999V0201701N007210750019N0200001N1+01751-00271999999ADDGA1051+075009009GF105991051021012501001999MA1999999086021MD1310041+9999ME1314499REMSYN082AAXX  01094 60550 42670 51714 10175 21027 38602 48449 53004 85200 333 85075 95900;EQDQ01+000002SCOHCG
0174605500999992000051515004+33670+001000FM-12+134199999V0202001N005110090019N0150001N1+02781-00331999999ADDGA1061+009009089GF106991061021008001001001MA1999999086831MD1810141+9999ME1315339REMSYN082AAXX  15154 60550 42565 62010 10278 21033 38683 48533 58014 86200 333 86830 95900;
0174605500999992000090209004+33670+001000FM-12+134199999V0203201N002112200019N0150001N1+02941+00511999999ADDGA1021+030009039GF102991021001999999031001MA1999999086871MD1310051+9999ME1315399REMSYN082AAXX  02094 60550 42965 23204 10294 20051 38687 48539 53005 82030 333 82360 95900;
0174605500999992000100609004+33670+001000FM-12+134199999V0202401N001012200019N0200001N1+01941+00001999999ADDGA1031+075009019GF103991001001999999001091MA1999999087051MD1310091+9999ME1315509REMSYN082AAXX  06094 60550 42970 32402 10194 20000 38705 48550 53009 80009 333 83175 95900;
0204605500999992000100612004+33670+001000FM-12+134199999V0203501N002112200019N0200001N1+02411+00011999999ADDAA199000091GA1011+075009019GF101991001001999999001091MA1999999087021MD1810031+9999ME1315479REMSYN082AAXX  06124 60550 32970 13504 10241 20001 38702 48547 58003 80009 333 81175 95900;EQDQ01  00002PRCP99
0174605500999992000101315004+33670+001000FM-12+134199999V0203401N004610069019N0200001N1+00971+00451999999ADDGA1051+006909089GF106991061021008001001001MA1999999086091MD1510001+9999ME1314589REMSYN082AAXX  13154 60550 42570 63409 10097 20045 38609 48458 55000 86200 333 85823 95900;
0174605500999992000102815004+33670+001000FM-12+134199999V0209999C000010078019N0200001N1+01621+00561999999ADDGA1061+007809089GF106991061021008001001001MA1999999087181MD1610081+9999ME1315589REMSYN082AAXX  28154 60550 42570 60000 10162 20056 38718 48558 56008 86200 333 86826 95900;
0253605500999992000111106004+33670+001000FM-12+134199999V0209999C000012200019N0100001N1+01181+00281999999ADDAA199000091GA1021+030009039GF102991021001999999031001IA2240+00909KA1120N+01161MA1999999086961MD1310021+9999ME1315389MW1001REMSYN100AAXX  11064 60550 31960 20000 10118 20028 38696 48538 53002 700// 82030 333 00900 20116 82360 95990;EQDQ01  00002PRCP99
0174605500999992000120415004+33670+001000FM-12+134199999V0203401N001512200019N0200001N1+01421+00011999999ADDGA1031+075009009GF103991001001999999001021MA1999999087111MD1510091+9999ME1315499REMSYN082AAXX  04154 60550 42970 33403 10142 20001 38711 48549 55009 80002 333 83075 95900;
0162605500999992000121609004+33670+001000FM-12+134199999V0209999C000012200019N0200001N1+00561-00081999999ADDGA1001+999999999GF100991001001999999001001MA1999999086921MD1210101+9999ME1315299REMSYN070AAXX  16094 60550 42970 00000 10056 21008 38692 48529 52010 333 95900;
0152605550999992000010412004+33120+006130FM-12+0085DAUK V0201001N003112200019N0100001N1+01301+00551103081ADDAA106000091GA1001+999999999GF100991001001999999001001MD1810081+9999REMSYN054AAXX  04124 60555 32960 01006 10130 20055 40308 58008;EQDQ01  00002PRCP06
0122605550999992000020803004+33120+006130FM-12+0085DAUK V0203401N003112200019N0150001N1+00571+00001102831ADDGA1001+999999999GF100991001001999999001001MD1310021+9999REMSYN054AAXX  08034 60555 42965 03406 10057 20000 40283 53002;
0138605550999992000033015004+33120+006130FM-12+0085DAUK V0203601N006210300019N0080001N1+02951+00391101121ADDGA1071+030009019GF107991071001999999071999MD1810261+9999REMSYN070AAXX  30154 60555 42958 73612 10295 20039 40112 58026 8707/ 333 87460;
0089605550999992000041501004+33120+006130FM-15+0085DAUK V0203601N00721220001CN0099001N1+02001+00701999999ADDMA1100511999999MW1001REMMET037DAUK 0100Z 36014KT CAVOK 20/07 Q1005;EQDQ01+000000PRSWM2
0241605550999992000042806004+33120+006130SY-MT+0085DAUK V0203601N010312200019N0100001N1+01701+00441100921ADDAA199000091GF100991001001999999001001KA1999N+01521MA1100911999999MD1310101+9999MW1001REMSYN064AAXX  28064 60555 32960 03620 10170 20044 40092 53010 333 20152;MET039DAUK 280600Z 36020KT CAVOK 17/04 Q1009;EQDQ01+000000PRSWM2Q02  00002PRCP99
