0110066890999992000070823004+47360+008950FM-12+114499999V0203001N003119999999N9999999N1+00721+00721999999ADDMA1999999089011MD1210021+9999ME1315029REMSYN060AAXX  08234 06689 46/// /3006 10072 20072 38901 48502 52002;
0110066890999992000071417004+47360+008950FM-12+114499999V0202701N006719999999N9999999N1+00701+00701999999ADDMA1999999088261MD1710061+9999ME1314339REMSYN060AAXX  14174 06689 46/// /2713 10070 20070 38826 48433 57006;
0110066890999992000072023004+47360+008950FM-12+114499999V0200901N002119999999N9999999N1+01241+00391999999ADDMA1999999089531MD1210051+9999ME1315589REMSYN060AAXX  20234 06689 46/// /0904 10124 20039 38953 48558 52005;
0110066890999992000072509004+47360+008950FM-12+114499999V0202601N003119999999N9999999N1+01361+01121999999ADDMA1999999088491MD1010031+9999ME1314629REMSYN060AAXX  25094 06689 46/// /2606 10136 20112 38849 48462 50003;
0110066890999992000072513004+47360+008950FM-12+114499999V0200101N001019999999N9999999N1+01791+01211999999ADDMA1999999088521MD1210031+9999ME1314709REMSYN060AAXX  25134 06689 46/// /0102 10179 20121 38852 48470 52003;
0110066890999992000072516004+47360+008950FM-12+114499999V0202801N002119999999N9999999N1+01701+01091999999ADDMA1999999088491MD1710031+9999ME1314669REMSYN060AAXX  25164 06689 46/// /2804 10170 20109 38849 48466 57003;
0110066890999992000081122004+47360+008950FM-12+114499999V0202401N001519999999N9999999N1+02051+01011999999ADDMA1999999089031MD1710011+9999ME1315239REMSYN060AAXX  11224 06689 46/// /2403 10205 20101 38903 48523 57001;
0110066890999992000081919004+47360+008950FM-12+114499999V0200601N004619999999N9999999N1+02161+01091999999ADDMA1999999089181MD1210031+9999ME1315399REMSYN060AAXX  19194 06689 46/// /0609 10216 20109 38918 48539 52003;
0120066890999992000082021004+47360+008950FM-12+114499999V0202301N007219999999N9999999N1+02391+00931999999ADDMA1999999088961MD1210061+9999ME1315219REMSYN070AAXX  20214 06689 46/// /2314 10239 20093 38896 48521 52006 333 91130;
0110066890999992000090420004+47360+008950FM-12+114499999V0202401N005119999999N9999999N1+00711+00471999999ADDMA1999999089471MD1210131+9999ME1315449REMSYN060AAXX  04204 06689 46/// /2410 10071 20047 38947 48544 52013;
0110066890999992000091522004+47360+008950FM-12+114499999V0202101N007219999999N9999999N1+01851+01071999999ADDMA1999999088791MD1710091+9999ME1314979REMSYN060AAXX  15224 06689 46/// /2114 10185 20107 38879 48497 57009;
0110066890999992000091913004+47360+008950FM-12+114499999V0200901N001519999999N9999999N1+01641+01131999999ADDMA1999999088001MD1710101+9999ME1314189REMSYN060AAXX  19134 06689 46/// /0903 10164 20113 38800 48418 57010;
0110066890999992000092007004+47360+008950FM-12+114499999V0200201N000519999999N9999999N1+01421+00701999999ADDMA1999999088031MD1010021+9999ME1314199REMSYN060AAXX  20074 06689 46/// /0201 10142 20070 38803 48419 50002;
0110066890999992000100107004+47360+008950FM-12+114499999V0202401N001519999999N9999999N1+00831+00831999999ADDMA1999999088241MD1210101+9999ME1314329REMSYN060AAXX  01074 06689 46/// /2403 10083 20083 38824 48432 52010;
0110066890999992000100316004+47360+008950FM-12+114499999V0200801N002619999999N9999999N1+00691+00601999999ADDMA1999999089281MD1710061+9999ME1315269REMSYN060AAXX  03164 06689 46/// /0805 10069 20060 38928 48526 57006;
0120066890999992000100900004+47360+008950FM-12+114499999V0202401N009319999999N9999999N1+00301+00291999999ADDMA1999999088831MD1810031+9999ME1314809REMSYN070AAXX  09004 06689 46/// /2418 10030 20029 38883 48480 58003 333 91131;
0120066890999992000101112004+47360+008950FM-12+114499999V0202901N008219999999N9999999N1+00581+00581999999ADDMA1999999086761MD1210101+9999ME1312929REMSYN070AAXX  11124 06689 46/// /2916 10058 20058 38676 48292 52010 333 91129;
0110066890999992000101216004+47360+008950FM-12+114499999V0200801N004119999999N9999999N1+00671+00601999999ADDMA1999999087621MD1010011+9999ME1313739REMSYN060AAXX  12164 06689 46/// /0808 10067 20060 38762 48373 50001;
0139066890999992000101518004+47360+008950FM-12+114499999V0202501N008219999999N9999999N1+00891+00891999999ADDKA1120M+01891MA1999999088011MD1210101+9999ME1314129REMSYN076AAXX  15184 06689 46/// /2516 10089 20089 38801 48412 52010 333 10189 91124;
0110066890999992000101609004+47360+008950FM-12+114499999V0200801N004119999999N9999999N1+00751+00601999999ADDMA1999999088471MD1210121+9999ME1314539REMSYN060AAXX  16094 06689 46/// /0808 10075 20060 38847 48453 52012;
0110066890999992000101620004+47360+008950FM-12+114499999V0202401N005119999999N9999999N1+00861+00671999999ADDMA1999999089031MD1210261+9999ME1315069REMSYN060AAXX  16204 06689 46/// /2410 10086 20067 38903 48506 52026;
0110066890999992000101721004+47360+008950FM-12+114499999V0203301N002619999999N9999999N1+00721+00351999999ADDMA1999999089741MD1010021+9999ME1315699REMSYN060AAXX  17214 06689 46/// /3305 10072 20035 38974 48569 50002;
0110066890999992000102114004+47360+008950FM-12+114499999V0200801N001019999999N9999999N1+01231+00951999999ADDMA1999999089711MD1210021+9999ME1315749REMSYN060AAXX  21144 06689 46/// /0802 10123 20095 38971 48574 52002;
0139066890999992000102206004+47360+008950FM-12+114499999V0202401N003619999999N9999999N1+00951+00451999999ADDKA1120N+00771MA1999999090031MD1210021+9999ME1315999REMSYN076AAXX  22064 06689 46/// /2407 10095 20045 39003 48599 52002 333 20077 55076;
0110066890999992000102312004+47360+008950FM-12+114499999V0202901N002119999999N9999999N1+01131+00661999999ADDMA1999999089851MD1710101+9999ME1315869REMSYN060AAXX  23124 06689 46/// /2904 10113 20066 38985 48586 57010;
0110066890999992000111223004+47360+008950FM-12+114499999V0201901N006219999999N9999999N1+01241-00221999999ADDMA1999999087921MD1510081+9999ME1314079REMSYN060AAXX  12234 06689 46/// /1912 10124 21022 38792 48407 55008;
0110066890999992000111323004+47360+008950FM-12+114499999V0202901N002619999999N9999999N1+00471+00451999999ADDMA1999999087741MD1310101+9999ME1313829REMSYN060AAXX  13234 06689 46/// /2905 10047 20045 38774 48382 53010;
0110066890999992000111704004+47360+008950FM-12+114499999V0202801N001519999999N9999999N1-00021-00041999999ADDMA1999999088321MD1710051+9999ME1314309REMSYN060AAXX  17044 06689 46/// /2803 11002 21004 38832 48430 57005;
0110066890999992000111810004+47360+008950FM-12+114499999V0202501N003619999999N9999999N1-00171-00301999999ADDMA1999999088801MD1210061+9999ME1314719REMSYN060AAXX  18104 06689 46/// /2507 11017 21030 38880 48471 52006;
0110066890999992000112215004+47360+008950FM-12+114499999V0201301N002619999999N9999999N1+00631+00111999999ADDMA1999999088441MD1510011+9999ME1314499REMSYN060AAXX  22154 06689 46/// /1305 10063 20011 38844 48449 55001;
0110066890999992000112702004+47360+008950FM-12+114499999V0202601N006219999999N9999999N1-00021-00061999999ADDMA1999999088681MD1210091+9999ME1314629REMSYN060AAXX  27024 06689 46/// /2612 11002 21006 38868 48462 52009;
0110066890999992000120523004+47360+008950FM-12+114499999V0202101N004119999999N9999999N1+00691-00211999999ADDMA1999999088971MD1510021+9999ME1314989REMSYN060AAXX  05234 06689 46/// /2108 10069 21021 38897 48498 55002;
0110066890999992000120922004+47360+008950FM-12+114499999V0202701N005719999999N9999999N1+00401+00251999999ADDMA1999999089081MD1210041+9999ME1315049REMSYN060AAXX  09224 06689 46/// /2711 10040 20025 38908 48504 52004;
0110066890999992000122005004+47360+008950FM-12+114499999V0200801N006219999999N9999999N1-00031-00031999999ADDMA1999999088891MD1710111+9999ME1314819REMSYN060AAXX  20054 06689 46/// /0812 11003 21003 38889 48481 57011;
0110066890999992000122115004+47360+008950FM-12+114499999V0201601N001019999999N9999999N1+00311-00091999999ADDMA1999999088991MD1510011+9999ME1314959REMSYN060AAXX  21154 06689 46/// /1602 10031 21009 38899 48495 55001;
0133066890999992000122118004+47360+008950FM-12+114499999V0201001N002619999999N9999999N1-00291-00331999999ADDKA1999M+00331MA1999999089001MD1010011+9999ME1314879REMSYN070AAXX  21184 06689 46/// /1005 11029 21033 38900 48487 50001 333 10033;
0110066890999992000122222004+47360+008950FM-12+114499999V0202001N001519999999N9999999N1+00461-02301999999ADDMA1999999088691MD1210021+9999ME1314699REMSYN060AAXX  22224 06689 46/// /2003 10046 21230 38869 48469 52002;
0110066890999992000122311004+47360+008950FM-12+114499999V0202001N002119999999N9999999N1+00571-02651999999ADDMA1999999088641MD1010011+9999ME1314669REMSYN060AAXX  23114 06689 46/// /2004 10057 21265 38864 48466 50001;
0139066890999992000122906004+47360+008950FM-12+114499999V0200901N001519999999N9999999N1-00351-00571999999ADDKA1120N-00531MA1999999086861MD1210081+9999ME1312959REMSYN076AAXX  29064 06689 46/// /0903 11035 21057 38686 48295 52008 333 21053 55000;
0101067000999992000010417004+46250+006130FM-12+0416LSGG V0200501N000519999999N9999999N1+00451-00011102711ADDMA1999999097631MD1410001+9999REMSYN060AAXX  04174 06700 46/// /0501 10045 21001 39763 40271 54000;
0101067000999992000010707004+46250+006130FM-12+0416LSGG V0203601N000519999999N9999999N1+00301+00171102951ADDMA1999999097831MD1010071+9999REMSYN060AAXX  07074 06700 46/// /3601 10030 20017 39783 40295 50007;
0101067000999992000010708004+46250+006130FM-12+0416LSGG V0200301N001019999999N9999999N1+00271+00131102961ADDMA1999999097831MD1210041+9999REMSYN060AAXX  07084 06700 46/// /0302 10027 20013 39783 40296 52004;
0101067000999992000010716004+46250+006130FM-12+0416LSGG V0202901N001019999999N9999999N1+00311+00101102721ADDMA1999999097611MD1510071+9999REMSYN060AAXX  07164 06700 46/// /2902 10031 20010 39761 40272 55007;
0196067000999992000010806504+46250+006130FM-15+0416LSGG V0203001N00101000151CN0002001N1+00001+00001999999ADDED199U04009GA1091+000159999GF109991999999000251999999MA1102401999999MW1451REMMET075LSGG 080650Z 30002KT 0200 R05/0400N R23/0350N FG VV001 M00/M00 Q1024 NOSIG;EQDQ01+000003PRSWM1Q02    003PRSWM1
0187067000999992000010904504+46250+006130FM-15+0416LSGG V0203001N000510210019N0045001N1+00101+00101999999ADDGA1021+012009999GA2071+021009999GF107991999999999999999999MA1102201999999MW1101REMMET061LSGG 090450Z 30001KT 4500 BR FEW040 BKN070 01/01 Q1022 NOSIG;EQDQ01+000003PRSWM1Q02    003PRSWM1
0305067000999992000011106004+46250+006130FM-12+0416LSGG V0200701N001510105019N0120001N1+00421+00121103641ADDAA106000091AJ100009199999999AW1101AZ121061GA1041+005409079GA2071+010509079GF107991071061004501999999GJ100009IA1099KA1120N+00421MA1999999098511MD1210041+9999REMSYN118AAXX  11064 06700 34462 70703 10042 20012 39851 40364 52004 71022 876// 333 20042 31/// 4/000 55000 84718 87735 90768;EQDQ01  00002PRCP06
0207067000999992000011709004+46250+006130FM-12+041699999V0203501N001512200019N0050001N1-00161-00491103511ADDAW1101AZ111031GA1011+004509069GF104991011051004501001021IA2999-00309MA1999999098271MD1210071+9999REMSYN098    AAXX  17094 06700 44450 43503 11016 21049 39827 40351 52007 71011 81502 333 3/103 81615 84075;
0169067000999992000011714504+46250+006130FM-15+0416LSGG V0203301N001012200019N0080001N1+00301-00401999999ADDGA1021+018009999GA2021+075009999GF104991999999999999999999MA1102911999999MW1001REMMET059LSGG 171450Z 33002KT 8000 FEW060 SCT250 03/M04 Q1029 NOSIG;EQDQ01+000000PRSWM2
0195067000999992000012000004+46250+006130FM-12+0416LSGG V0200501N005712200019N0450001N1+00071-00611103241ADDAA199000091GA1011+009009069GF101991011051008001001001MA1999999098061MD1210051+9999REMSYN082AAXX  20004 06700 35583 10511 10007 21061 39806 40324 52005 81500 333 81630 91125;EQDQ01  00002PRCP99
0147067000999992000012107504+46250+006130FM-15+0416LSGG V0203401N000510114019N0070001N1-00201-00401999999ADDGA1071+011409999GF107991999999999999999999MA1102911999999MW1001REMMET053LSGG 210750Z 34001KT 7000 BKN038 M02/M04 Q1029 NOSIG;EQDQ01+000000PRSWM2
0101067000999992000012220004+46250+006130FM-12+0416LSGG V0202301N001519999999N9999999N1+00131-00021101381ADDMA1999999096301MD1710211+9999REMSYN060AAXX  22204 06700 46/// /2303 10013 21002 39630 40138 57021;
0247067000999992000012408504+46250+006130FM-15+0416LSGG V0200101N003610045019N0014001N1-00101-00201999999ADDED199U15009GA1071+004509999GA2071+009009999GF107991999999999999999999MA1101591999999MW1851REMMET110LSGG 240750Z 01007KT 320V030 1400 R05/P1500N R23/P1500D -SHSN BKN015 BKN030 M01/M02 Q1016 TEMPO 0800 23050095;EQDQ01+000003PRSWM1Q02    003PRSWM1
0166067000999992000012417504+46250+006130FM-15+0416LSGG V0200501N006212200019N0112651N1-00301-00801999999ADDGA1021+006009999GF102991999999999999999999MA1101901999999MW1001OC101131REMMET064LSGG 241750Z 05012G22KT 010V080 9999 FEW020 M03/M08 Q1019 NOSIG;EQDQ01+000000PRSWM2
0166067000999992000012620504+46250+006130FM-15+0416LSGG V0202401N001510033019N0050001N1-00501-00801999999ADDGA1081+003309999GF108991999999999999999999MA1103391999999MW1101REMMET056LSGG 262050Z 24003KT 5000 BR OVC011 M05/M08 Q1034 NOSIG;EQDQ01+000003PRSWM1Q02    003PRSWM1
0187067000999992000012913504+46250+006130FM-15+0416LSGG V0202601N007710120019N0060001N1+00301+00101999999ADDGA1021+003009999GA2081+012009999GF108991999999999999999999MA1102101999999MW1631REMMET061LSGG 291350Z 26015KT 6000 RA SCT010 OVC040 03/01 Q1021 NOSIG;EQDQ01+000003PRSWM1Q02    003PRSWM1
0101067000999992000020111004+46250+006130FM-12+0416LSGG V0209999C000019999999N9999999N1+00561+00321102801ADDMA1999999097731MD1710101+9999REMSYN060AAXX  01114 06700 46/// /0000 10056 20032 39773 40280 57010;
0169067000999992000020111504+46250+006130FM-15+0416LSGG V0200701N001512200019N0035001N1+00701+00501999999ADDGA1021+090009999GF102991999999999999999999MA1102511999999MW1101REMMET059LSGG 011150Z 07003KT 3500 BR FEW300 07/05 Q1025 BECMG 5000;EQDQ01+000003PRSWM1Q02    003PRSWM1
0219067000999992000020210504+46250+006130FM-15+0416LSGG V0202401N004610090019N0038001N1+00701+00501999999ADDGA1021+005409999GA2071+009009999GA3081+018009999GF108991999999999999999999MA1102001999999MW1611REMMET077LSGG 021050Z 24009KT 200V280 3800 -RA FEW018 BKN030 OVC060 07/05 Q1020 NOSIG;EQDQ01+000003PRSWM1Q02    003PRSWM1
0185067000999992000020309004+46250+006130FM-12+0416LSGG V0202601N001512200019N0100001N1+00401+00211103591ADDAW1101AZ141031GA1001+999999999GF100991001001999999001001IA2999-00109MA1999999098451MD1210271+9999REMSYN076AAXX  03094 06700 44960 02603 10040 20021 39845 40359 52027 71041 333 3/101;
0101067000999992000020819004+46250+006130FM-12+0416LSGG V0202501N005719999999N9999999N1+01071+00831102031ADDMA1999999097091MD1710011+9999REMSYN060AAXX  08194 06700 46/// /2511 10107 20083 39709 40203 57001;
0101067000999992000021207004+46250+006130FM-12+0416LSGG V0209999C000019999999N9999999N1+00371+00101102931ADDMA1999999097821MD1210081+9999REMSYN060AAXX  12074 06700 46/// /0000 10037 20010 39782 40293 52008;
0101067000999992000022104004+46250+006130FM-12+0416LSGG V0200501N003619999999N9999999N1-00011-00451103071ADDMA1999999097881MD1810011+9999REMSYN060AAXX  21044 06700 46/// /0507 11001 21045 39788 40307 58001;
0101067000999992000022605004+46250+006130FM-12+0416LSGG V0209999C000019999999N9999999N1+00001-00171103351ADDMA1999999098151MD1410001+9999REMSYN060AAXX  26054 06700 46/// /0000 10000 21017 39815 40335 54000;
0097067000999992000022718504+46250+006130FM-15+0416LSGG V0200701N00051220001CN0099001N1+00701+00201999999ADDMA1102711999999MW1001REMMET045LSGG 271850Z 07001KT CAVOK 07/02 Q1027 NOSIG;EQDQ01+000000PRSWM2
0097067000999992000022722504+46250+006130FM-15+0416LSGG V0209999C00001220001CN0099001N1+00301+00101999999ADDMA1102711999999MW1001REMMET045LSGG 272250Z 00000KT CAVOK 03/01 Q1027 NOSIG;EQDQ01+000000PRSWM2
0206067000999992000030103504+46250+006130FM-15+0416LSGG V0202101N006710075019N0070001N1+00701+00501999999ADDGA1021+003009999GA2081+007509999GF108991999999999999999999MA1100911999999MW1631OC101231REMMET072LSGG 010350Z 21013G24KT 120V250 7000 RA FEW010 OVC025 07/05 Q1009 NOSIG;EQDQ01+000003PRSWM1Q02    003PRSWM1
0146067000999992000030211504+46250+006130FM-15+0416LSGG V0200801N002612200019N0112651N1+00601-00301999999ADDGA1021+010509999GF104991999999999999999999MA1102811999999MW1001REMMET052LSGG 021150Z 08005KT 9999 SCT035 06/M03 Q1028 NOSIG;EQDQ01+000000PRSWM2
0169067000999992000030217504+46250+006130FM-15+0416LSGG V0203401N001012200019N0112651N1+00501-00301999999ADDGA1021+033009999GA2021+090009999GF104991999999999999999999MA1102611999999MW1001REMMET059LSGG 021750Z 34002KT 9999 FEW110 SCT300 05/M03 Q1026 NOSIG;EQDQ01+000000PRSWM2
0098067000999992000030222504+46250+006130FM-15+0416LSGG V0209999C00001220001CN0099001N1+00001-00301999999ADDMA1102611999999MW1001REMMET046LSGG 022250Z 00000KT CAVOK 00/M03 Q1026 NOSIG;EQDQ01+000000PRSWM2
0187067000999992000030315004+46250+006130FM-12+0416LSGG V0202401N00461036001CN0280001N1+01021-00241101971ADDGA1011+013509069GA2031+036009039GF107991011051012501041061MA1999999097031MD1710271+9999REMSYN088AAXX  03154 06700 45678 72409 10102 21024 39703 40197 57027 81546 333 81645 83362 87278;
0143067000999992000030503004+46250+006130FM-12+0416LSGG V0200601N003112200019N0300001N1+00091-00781103281ADDGA1001+999999999GF100991001001999999001001MA1999999098101MD1010061+9999REMSYN060AAXX  05034 06700 45980 00606 10009 21078 39810 40328 50006;
0145067000999992000030815504+46250+006130FM-15+0416LSGG V0200801N001512200019N0112651N1+01401+00101999999ADDGA1021+030009999GF102991999999999999999999MA1103011999999MW1001REMMET051LSGG 081550Z 08003KT 9999 FEW100 14/01 Q1030 NOSIG;EQDQ01+000000PRSWM2
0105067000999992000031109504+46250+006130FM-15+0416LSGG V0202401N00211220001CN0099001N1+01101+00501999999ADDMA1102301999999MW1001REMMET053LSGG 110950Z 24004KT 160V300 CAVOK 11/05 Q1023 NOSIG;EQDQ01+000000PRSWM2
0101067000999992000031201004+46250+006130FM-12+0416LSGG V0209999C000019999999N9999999N1+00631+00281102341ADDMA1999999097311MD1210071+9999REMSYN060AAXX  12014 06700 46/// /0000 10063 20028 39731 40234 52007;
0097067000999992000031223504+46250+006130FM-15+0416LSGG V0202301N00101220001CN0099001N1+00401+00201999999ADDMA1102301999999MW1001REMMET045LSGG 122350Z 23002KT CAVOK 04/02 Q1023 NOSIG;EQDQ01+000000PRSWM2
0164067000999992000031714504+46250+006130FM-15+0416LSGG V0200601N007212200019N0112651N1+01201+00201999999ADDGA1021+015009999GF104991999999999999999999MA1102511999999MW1001OC101231REMMET062LSGG 171450Z 06014G24KT 020V110 9999 SCT055 12/02 Q1025 NOSIG;EQDQ01+000000PRSWM2
0286067000999992000032306004+46250+006130FM-12+0416LSGG V0209999C000010900019N0080001N1+00401+00091101901ADDAA199000091AJ100009199999999AW1101AZ111061GA1031+033009039GA2071+090009009GF107991031001999999041011GJ105829IA1019MA1999999096851MD1510001+9999REMSYN112AAXX  23064 06700 34958 70000 10040 20009 39685 40190 55000 71011 83041 333 30/// 4/000 55097 83361 87080 90768;EQDQ01  00002PRCP99
0225067000999992000032309004+46250+006130FM-12+0416LSGG V0209999C000010300019N0070001N1+00901+00311101861ADDAW1051AZ121031GA1011+018009069GA2051+030009039GF107991011051017501081021IA2999+00009MA1999999096901MD1210051+9999REMSYN100AAXX  23094 06700 44757 70000 10090 20031 39690 40186 52005 70522 81582 333 3/000 81656 85360 87080;
0145067000999992000032502504+46250+006130FM-15+0416LSGG V0202401N001512200019N0112651N1+00101+00001999999ADDGA1021+033009999GF102991999999999999999999MA1101691999999MW1001REMMET051LSGG 250250Z 24003KT 9999 FEW110 01/00 Q1017 NOSIG;EQDQ01+000000PRSWM2
0189067000999992000032512004+46250+006130FM-12+0416LSGG V0201401N001012200019N0160001N1+01231+00471101691ADDAA199000091GA1011+010509029GF102991011011012501001011MA1999999096801MD1710131+9999REMSYN076AAXX  25124 06700 35666 21402 10123 20047 39680 40169 57013 81101 333 81835;EQDQ01  00002PRCP99
0168067000999992000032704204+46250+006130FM-15+0416LSGG V0202401N001010150019N0112651N1+00301+00101999999ADDGA1021+002409999GA2071+015009999GF107991999999999999999999MA1100711999999MW1001REMMET058LSGG 270420Z 24002KT 9999 SCT008 BKN050 03/01 Q1007 NOSIG;EQDQ01+000000PRSWM2
0168067000999992000032718504+46250+006130FM-15+0416LSGG V0200501N002110180019N0112651N1+00501+00201999999ADDGA1021+009009999GA2071+018009999GF107991999999999999999999MA1100811999999MW1001REMMET058LSGG 271850Z 05004KT 9999 FEW030 BKN060 05/02 Q1008 NOSIG;EQDQ01+000000PRSWM2
0176067000999992000032900504+46250+006130FM-15+0416LSGG V0200301N004610150019N0112651N1+00601+00101999999ADDGA1021+009009999GA2071+015009999GF107991999999999999999999MA1100511999999MW1001REMMET066LSGG 290050Z 03009KT 340V070 9999 SCT030 BKN050 06/01 Q1005 NOSIG;EQDQ01+000000PRSWM2
0232067000999992000032912504+46250+006130FM-15+0416LSGG V0202101N005110075019N0080001N1+00401+00301999999ADDGA1021+001509999GA2021+003009999GA3071+007509999GF107991999999999999999999MA1100711999999MW1801OC101031REMMET082LSGG 291250Z 21010G20KT 050V330 8000 -SHRA FEW005 SCT010 BKN025 04/03 Q1007 NOSIG;EQDQ01+000003PRSWM1Q02    003PRSWM1
0208067000999992000033012504+46250+006130FM-15+0416LSGG V0202001N005710180019N0112651N1+00701+00001999999ADDGA1021+009009999GA2071+018009999GF107991999999999999999999MA1101391999999MW1161OC101081REMMET074LSGG 301250Z 20011G21KT 090V340 9999 VCSH SCT030 BKN060 07/00 Q1014 NOSIG;EQDQ01+000003PRSWM1Q02    003PRSWM1
0176067000999992000040212504+46250+006130FM-15+0416LSGG V0200701N002610750019N0112651N1+01101+00101999999ADDGA1021+027009999GA2071+075009999GF107991999999999999999999MA1100201999999MW1001REMMET066LSGG 021250Z 07005KT 010V120 9999 FEW090 BKN250 11/01 Q1002 NOSIG;EQDQ01+000000PRSWM2
0168067000999992000040312504+46250+006130FM-15+0416LSGG V0200401N001010360019N0112651N1+01401+00501999999ADDGA1021+021009999GA2071+036009999GF107991999999999999999999MA1099091999999MW1001REMMET058LSGG 031250Z 04002KT 9999 SCT070 BKN120 14/05 Q0991 NOSIG;EQDQ01+000000PRSWM2
0101067000999992000040905004+46250+006130FM-12+0416LSGG V0209999C000019999999N9999999N1+00571+00141101271ADDMA1999999096281MD1710211+9999REMSYN060AAXX  09054 06700 46/// /0000 10057 20014 39628 40127 57021;
0168067000999992000041020504+46250+006130FM-15+0416LSGG V0201801N000510270019N0112651N1+01001+00701999999ADDGA1021+015009999GA2071+027009999GF107991999999999999999999MA1100411999999MW1001REMMET058LSGG 102050Z 18001KT 9999 SCT050 BKN090 10/07 Q1004 NOSIG;EQDQ01+000000PRSWM2
0101067000999992000041408004+46250+006130FM-12+0416LSGG V0202401N004119999999N9999999N1+01171+00541100281ADDMA1999999095441MD1210041+9999REMSYN060AAXX  14084 06700 46/// /2408 10117 20054 39544 40028 52004;
0207067000999992000041503004+46250+006130FM-12+0416LSGG V0202701N00461036001CN0090001N1+01021+00581100011ADDAW1621AZ161031GA1011+003009079GA2041+009009069GF108991041071004501021999MA1999999095161MD1310011+9999REMSYN094AAXX  15034 06700 44459 82709 10102 20058 39516 40001 53001 76262 8472/ 333 81710 84630 88550;
0191067000999992000041615504+46250+006130FM-15+0416LSGG V0200301N001510360019N0112651N1+01001+00401999999ADDGA1021+003909999GA2021+021009999GA3071+036009999GF107991999999999999999999MA1099901999999MW1001REMMET065LSGG 161550Z 03003KT 9999 FEW013 SCT070 BKN120 10/04 Q0999 NOSIG;EQDQ01+000000PRSWM2
0101067000999992000041923004+46250+006130FM-12+0416LSGG V0209999C000019999999N9999999N1+00641+00321101671ADDMA1999999096671MD1210051+9999REMSYN060AAXX  19234 06700 46/// /0000 10064 20032 39667 40167 52005;
0101067000999992000042017004+46250+006130FM-12+0416LSGG V0201201N002119999999N9999999N1+01661+00631101291ADDMA1999999096491MD1710121+9999REMSYN060AAXX  20174 06700 46/// /1204 10166 20063 39649 40129 57012;
0145067000999992000042116504+46250+006130FM-15+0416LSGG V0200801N001512200019N0112651N1+02201+00801999999ADDGA1021+012009999GF102991999999999999999999MA1101491999999MW1001REMMET051LSGG 211650Z 08003KT 9999 FEW040 22/08 Q1015 NOSIG;EQDQ01+000000PRSWM2
0248067000999992000042218004+46250+006130FM-12+0416LSGG V0202501N002610690019N0400001N1+02311+00911100801ADDAA199000091GA1011+021009039GA2061+069009009GF106991011001022501061021IA1019KA1120M+02611MA1999999096131MD1810111+9999REMSYN100AAXX  22184 06700 35882 62505 10231 20091 39613 40080 58011 81062 333 10261 30/// 81357 86073 91120;EQDQ01  00002PRCP99
0168067000999992000042221504+46250+006130FM-15+0416LSGG V0202601N000510750019N0112651N1+01401+01001999999ADDGA1021+030009999GA2071+075009999GF107991999999999999999999MA1101021999999MW1001REMMET058LSGG 222150Z 26001KT 9999 FEW100 BKN250 14/10 Q1010 NOSIG;EQDQ01+000000PRSWM2
0101067000999992000042516004+46250+006130FM-12+0416LSGG V0201201N002119999999N9999999N1+01771+00441101111ADDMA1999999096341MD1710161+9999REMSYN060AAXX  25164 06700 46/// /1204 10177 20044 39634 40111 57016;
0101067000999992000042520004+46250+006130FM-12+0416LSGG V0209999C000019999999N9999999N1+01331+00591101171ADDMA1999999096321MD1210031+9999REMSYN060AAXX  25204 06700 46/// /0000 10133 20059 39632 40117 52003;
0101067000999992000050104004+46250+006130FM-12+0416LSGG V0209999C000019999999N9999999N1+01071+00831101801ADDMA1999999096871MD1710021+9999REMSYN060AAXX  01044 06700 46/// /0000 10107 20083 39687 40180 57002;
0173067000999992000050300004+46250+006130FM-12+0416LSGG V0200901N000512200019N0400001N1+01221+00971101751ADDAA199000091GA1001+999999999GF100991001001999999001001MA1999999096851MD1210071+9999REMSYN060AAXX  03004 06700 35982 00901 10122 20097 39685 40175 52007;EQDQ01  00002PRCP99
0145067000999992000050304504+46250+006130FM-15+0416LSGG V0209999C000012200019N0112651N1+01001+00901999999ADDGA1021+030009999GF104991999999999999999999MA1101691999999MW1001REMMET051LSGG 030450Z 00000KT 9999 SCT100 10/09 Q1017 NOSIG;EQDQ01+000000PRSWM2
0335067000999992000050509004+46250+006130FM-12+0416LSGG V0200801N001010240019N0300001N1+01581+01071101571ADDAJ199999999999999AW1601AZ161031GA1061+024009039GF106991061001022501051999IA1219IA2999+00709KA1120M+01901KA2120N+00781MA1999999096741MD1210041+9999REMSYN158AAXX  05094 06700 44880 60802 10158 20107 39674 40157 52004 76061 8605/ 333 3/007 86358 06720 45970 63602 10190 20078 39583 40131 58013 8606/ 333 3/006 86360;EQDQ01  09702SNDP  
0196067000999992000050512004+46250+006130FM-12+0416LSGG V0200701N00151036001CN0300001N1+01891+01171101401ADDAA199000021AW1141AZ161061GA1011+010509089GF106991011021012501071999MA1999999096631MD1710111+9999REMSYN088AAXX  05124 06700 34680 60703 10189 20117 39663 40140 57011 71461 8127/ 333 81835 86358;
0097067000999992000050821504+46250+006130FM-15+0416LSGG V0200601N00101220001CN0099001N1+01601+01001999999ADDMA1101901999999MW1001REMMET045LSGG 082150Z 06002KT CAVOK 16/10 Q1019 NOSIG;EQDQ01+000000PRSWM2
0241067000999992000051000004+46250+006130FM-12+0416LSGG V0200901N001510300019N0110001N1+01571+01281101651ADDAA106000891AW1161AZ191061GA1031+015009089GA2071+030009039GF107991031021017501071999MA1999999096821MD1010001+9999OA149901751REMSYN106AAXX  10004 06700 14761 70903 10157 20128 39682 40165 50000 69981 71692 8327/ 333 83850 87360 91134 91220;
0097067000999992000051223504+46250+006130FM-15+0416LSGG V0209999C00001220001CN0099001N1+01101+01001999999ADDMA1102101999999MW1001REMMET045LSGG 122350Z 00000KT CAVOK 11/10 Q1021 NOSIG;EQDQ01+000000PRSWM2
0168067000999992000051406504+46250+006130FM-15+0416LSGG V0200201N001010105019N0112651N1+01401+01101999999ADDGA1021+006609999GA2071+010509999GF107991999999999999999999MA1102201999999MW1001REMMET058LSGG 140650Z 02002KT 9999 FEW022 BKN035 14/11 Q1022 NOSIG;EQDQ01+000000PRSWM2
0220067000999992000052018004+46250+006130FM-12+0416LSGG V0200601N003112200019N0450001N1+01691+00341101141ADDAA199000091GA1011+018009029GF101991011011017501001001IA1019KA1120M+01871MA1999999096351MD1510051+9999REMSYN088AAXX  20184 06700 35783 10606 10169 20034 39635 40114 55005 81100 333 10187 30/// 81856;EQDQ01  00002PRCP99
0097067000999992000052102504+46250+006130FM-15+0416LSGG V0202101N00051220001CN0099001N1+00601+00301999999ADDMA1101191999999MW1001REMMET045LSGG 210250Z 21001KT CAVOK 06/03 Q1012 NOSIG;EQDQ01+000000PRSWM2
0101067000999992000052116004+46250+006130FM-12+0416LSGG V0202301N005119999999N9999999N1+01921+00591101021ADDMA1999999096281MD1010021+9999REMSYN060AAXX  21164 06700 46/// /2310 10192 20059 39628 40102 50002;
0101067000999992000052413004+46250+006130FM-12+0416LSGG V0202601N003619999999N9999999N1+02371+00741101541ADDMA1999999096851MD1710121+9999REMSYN060AAXX  24134 06700 46/// /2607 10237 20074 39685 40154 57012;
0202067000999992000052700004+46250+006130FM-12+0416LSGG V0202401N00671036001CN0250001N1+01891+01111101281ADDAA106003091AW1801AZ181061GA1041+015009089GF107991041021017501071999MA1999999096521MD1210131+9999REMSYN094AAXX  27004 06700 14775 72413 10189 20111 39652 40128 52013 60031 78081 8427/ 333 84850 86359;
0168067000999992000052823504+46250+006130FM-15+0416LSGG V0209999C000010270019N0112651N1+01101+00901999999ADDGA1021+012009999GA2071+027009999GF107991999999999999999999MA1101491999999MW1001REMMET058LSGG 282350Z 00000KT 9999 SCT040 BKN090 11/09 Q1015 NOSIG;EQDQ01+000000PRSWM2
0230067000999992000053103504+46250+006130FM-15+0416LSGG V0202001N005710105019N0090001N1+01301+01001999999ADDGA1021+002109999GA2071+010509999GA3071+024009999GF107991999999999999999999MA1101691999999MW1611OC101081REMMET080LSGG 310350Z 20011G21KT 120V240 9000 -RA FEW007 BKN035 BKN080 13/10 Q1017 NOSIG;EQDQ01+000003PRSWM1Q02    003PRSWM1
0153067000999992000060218504+46250+006130FM-15+0416LSGG V0202101N003112200019N0112651N1+02401+01201999999ADDGA1021+018009999GF102991999999999999999999MA1102001999999MW1001REMMET059LSGG 021850Z 21006KT 110V280 9999 FEW060 24/12 Q1020 NOSIG;EQDQ01+000000PRSWM2
0178067000999992000060317504+46250+006130FM-15+0416LSGG V0202201N005112200019N0112651N1+02701+01201999999ADDGA1021+018009099GA2021+030009999GF104991999999999999999999MA1101691999999MW1001REMMET068LSGG 031750Z 22010KT 150V320 9999 FEW060CB SCT100 27/12 Q1017 NOSIG;EQDQ01+000000PRSWM2
0221067000999992000060606504+46250+006130FM-15+0416LSGG V0202501N002610090019N0112651N1+01301+01201999999ADDGA1021+001509999GA2021+004509999GA3071+009009999GF107991999999999999999999MA1102001999999MW1801REMMET079LSGG 060650Z 25005KT 190V340 9999 -SHRA FEW005 SCT015 BKN030 13/12 Q1020 NOSIG;EQDQ01+000003PRSWM1Q02    003PRSWM1
0101067000999992000060614004+46250+006130FM-12+0416LSGG V0200601N002619999999N9999999N1+01561+00971102181ADDMA1999999097321MD1310031+9999REMSYN060AAXX  06144 06700 46/// /0605 10156 20097 39732 40218 53003;
0097067000999992000060723504+46250+006130FM-15+0416LSGG V0202401N00051220001CN0099001N1+01201+00701999999ADDMA1102101999999MW1001REMMET045LSGG 072350Z 24001KT CAVOK 12/07 Q1021 NOSIG;EQDQ01+000000PRSWM2
0153067000999992000060812504+46250+006130FM-15+0416LSGG V0201001N002112200019N0112651N1+02201+01101999999ADDGA1021+015009999GF102991999999999999999999MA1101801999999MW1001REMMET059LSGG 081250Z 10004KT 300V210 9999 FEW050 22/11 Q1018 NOSIG;EQDQ01+000000PRSWM2
0101067000999992000061208004+46250+006130FM-12+0416LSGG V0202601N002119999999N9999999N1+01461+01101102391ADDMA1999999097501MD1210081+9999REMSYN060AAXX  12084 06700 46/// /2604 10146 20110 39750 40239 52008;
0101067000999992000061217004+46250+006130FM-12+0416LSGG V0200701N004619999999N9999999N1+02091+01381102421ADDMA1999999097641MD1210041+9999REMSYN060AAXX  12174 06700 46/// /0709 10209 20138 39764 40242 52004;
0269067000999992000061406004+46250+006120FM-12+0416LSGG V0203301N00051015001CN0150001N1+01841+01511102471ADDAA112000591AW1141AZ181061GA1011+004509069GA2041+015009089GF106991041081004501071031GJ100009IA1099KA1120N+01771MA1999999097641MD1210111+9999REMSYN118AAXX  14064 06700 14465 63301 10184 20151 39764 40247 52011 69942 71482 84873 333 20177 31/// 55000 81615 84850 85359;
0153067000999992000061511504+46250+006120FM-15+0416LSGG V0200501N005112200019N0112651N1+02601+01401999999ADDGA1021+007509999GF102991999999999999999999MA1102511999999MW1001REMMET059LSGG 151150Z 05010KT 010V100 9999 FEW025 26/14 Q1025 NOSIG;EQDQ01+000000PRSWM2
0234067000999992000061606004+46250+006120FM-12+0416LSGG V0200101N000512200019N0500001N1+01791+01301102381ADDAA199000091GA1011+013509059GF102991011051012501001011GJ108049IA1019KA1120N+01431MA1999999097551MD1210021+9999REMSYN094AAXX  16064 06700 35684 20101 10179 20130 39755 40238 52002 81501 333 20143 30/// 55134 81645;EQDQ01  00002PRCP99
0101067000999992000061923004+46250+006120FM-12+0416LSGG V0209999C000019999999N9999999N1+02091+01341102011ADDMA1999999097251MD1210051+9999REMSYN060AAXX  19234 06700 46/// /0000 10209 20134 39725 40201 52005;
0101067000999992000062004004+46250+006120FM-12+0416LSGG V0209999C000019999999N9999999N1+01701+01271102011ADDMA1999999097181MD1710071+9999REMSYN060AAXX  20044 06700 46/// /0000 10170 20127 39718 40201 57007;
0097067000999992000062200504+46250+006120FM-15+0416LSGG V0202801N00151220001CN0099001N1+01901+01301999999ADDMA1102001999999MW1001REMMET045LSGG 220050Z 28003KT CAVOK 19/13 Q1020 NOSIG;EQDQ01+000000PRSWM2
0101067000999992000062211004+46250+006120FM-12+0416LSGG V0202301N006719999999N9999999N1+02541+01101101781ADDMA1999999097101MD1710091+9999REMSYN060AAXX  22114 06700 46/// /2313 10254 20110 39710 40178 57009;
0168067000999992000062302504+46250+006120FM-15+0416LSGG V0202101N003610210019N0112651N1+01701+01101999999ADDGA1021+009009999GA2071+021009999GF107991999999999999999999MA1102201999999MW1001REMMET058LSGG 230250Z 21007KT 9999 FEW030 BKN070 17/11 Q1022 NOSIG;EQDQ01+000000PRSWM2
0225067000999992000070309004+46250+006120FM-12+0416LSGG V0200701N002610300019N0300001N1+02271+01391101151ADDAW1021AZ191031GA1021+012009089GA2031+030009039GF106991021021012501091011IA2999+01609MA1999999096461MD1310151+9999REMSYN100AAXX  03094 06700 44680 60705 10227 20139 39646 40115 53015 70292 82291 333 3/016 82840 83360 85080;
0153067000999992000070507504+46250+006120FM-15+0416LSGG V0202301N002612200019N0112651N1+02001+01001999999ADDGA1021+012009999GF102991999999999999999999MA1101801999999MW1001REMMET059LSGG 050750Z 23005KT 060V300 9999 FEW040 20/10 Q1018 NOSIG;EQDQ01+000000PRSWM2
0101067000999992000070616004+46250+006120FM-12+0416LSGG V0200701N003119999999N9999999N1+02761+01161101351ADDMA1999999096731MD1710281+9999REMSYN060AAXX  06164 06700 46/// /0706 10276 20116 39673 40135 57028;
0153067000999992000070711504+46250+006120FM-15+0416LSGG V0202101N005112200019N0112651N1+02701+01101999999ADDGA1021+024009999GF104991999999999999999999MA1101081999999MW1001REMMET059LSGG 071150Z 21010KT 060V270 9999 SCT080 27/11 Q1011 NOSIG;EQDQ01+000000PRSWM2
0176067000999992000070721504+46250+006120FM-15+0416LSGG V0202101N003112200019N0112651N1+02001+01201999999ADDGA1021+010509999GA2021+015009999GF104991999999999999999999MA1101491999999MW1001REMMET066LSGG 072150Z 21006KT 140V260 9999 FEW035 SCT050 20/12 Q1015 NOSIG;EQDQ01+000000PRSWM2
0101067000999992000070920004+46250+006120FM-12+0416LSGG V0202701N003119999999N9999999N1+01731+00971100861ADDMA1999999096091MD1710161+9999REMSYN060AAXX  09204 06700 46/// /2706 10173 20097 39609 40086 57016;
0145067000999992000071305504+46250+006120FM-15+0416LSGG V0201901N000512200019N0112651N1+01001+00801999999ADDGA1021+013509999GF102991999999999999999999MA1102001999999MW1001REMMET051LSGG 130550Z 19001KT 9999 FEW045 10/08 Q1020 NOSIG;EQDQ01+000000PRSWM2
0221067000999992000071306004+46250+006120FM-12+0416LSGG V0202401N000512200019N0400001N1+01111+00791102091ADDAA112000191GA1011+013509029GF101991011011012501001011GJ102229IA1019KA1120N+00891MA1999999097161MD1710031+9999REMSYN100AAXX  13064 06700 15682 12401 10111 20079 39716 40209 57003 69922 81101 333 20089 30/// 55037 81845;
0101067000999992000071619004+46250+006120FM-12+0416LSGG V0200201N002619999999N9999999N1+01491+00691101671ADDMA1999999096821MD1210061+9999REMSYN060AAXX  16194 06700 46/// /0205 10149 20069 39682 40167 52006;
0145067000999992000072107504+46250+006120FM-15+0416LSGG V0200601N005012200019N0112651N1+01801+01001999999ADDGA1021+030009999GF102991999999999999999999MA1102101999999MW1001REMMET051LSGG 210750Z 06005KT 9999 FEW100 18/10 Q1021 NOSIG;EQDQ01+000000PRSWM2
0197067000999992000072406504+46250+006120FM-15+0416LSGG V0202601N004610300019N0112651N1+01801+01301999999ADDGA1021+012009999GA2071+030009999GF107991999999999999999999MA1101081999999MW1161REMMET071LSGG 240650Z 26009KT 100V070 9999 VCSH FEW040 BKN100 18/13 Q1011 NOSIG;EQDQ01+000003PRSWM1Q02    003PRSWM1
0168067000999992000080523504+46250+006120FM-15+0416LSGG V0202401N001510105019N0112651N1+01401+01301999999ADDGA1021+006009999GA2071+010509999GF107991999999999999999999MA1102101999999MW1001REMMET058LSGG 052350Z 24003KT 9999 FEW020 BKN035 14/13 Q1021 NOSIG;EQDQ01+000000PRSWM2
0101067000999992000080617004+46250+006120FM-12+0416LSGG V0202401N000519999999N9999999N1+01761+01451102201ADDMA1999999097371MD1210041+9999REMSYN060AAXX  06174 06700 46/// /2401 10176 20145 39737 40220 52004;
0153067000999992000080915504+46250+006120FM-15+0416LSGG V0200401N003112200019N0112651N1+02601+01301999999ADDGA1021+013509999GF102991999999999999999999MA1102001999999MW1001REMMET059LSGG 091550Z 04006KT 010V120 9999 FEW045 26/13 Q1020 NOSIG;EQDQ01+000000PRSWM2
0101067000999992000081708004+46250+006120FM-12+0416LSGG V0200101N001019999999N9999999N1+02321+01441101531ADDMA1999999096831MD1010041+9999REMSYN060AAXX  17084 06700 46/// /0102 10232 20144 39683 40153 50004;
0153067000999992000081708504+46250+006120FM-15+0416LSGG V0202801N002112200019N0112651N1+02501+01501999999ADDGA1021+021009999GF102991999999999999999999MA1101691999999MW1001REMMET059LSGG 170850Z 28004KT 120V030 9999 FEW070 25/15 Q1017 NOSIG;EQDQ01+000000PRSWM2
0168067000999992000081914504+46250+006120FM-15+0416LSGG V0200801N001510270019N0112651N1+03001+01301999999ADDGA1021+018009999GA2071+027009999GF107991999999999999999999MA1101391999999MW1001REMMET058LSGG 191450Z 08003KT 9999 FEW060 BKN090 30/13 Q1014 NOSIG;EQDQ01+000000PRSWM2
0101067000999992000082520004+46250+006120FM-12+0416LSGG V0209999C000019999999N9999999N1+02161+01411101671ADDMA1999999096931MD1510001+9999REMSYN060AAXX  25204 06700 46/// /0000 10216 20141 39693 40167 55000;
0101067000999992000082610004+46250+006120FM-12+0416LSGG V0201201N000519999999N9999999N1+02421+01331101271ADDMA1999999096601MD1510021+9999REMSYN060AAXX  26104 06700 46/// /1201 10242 20133 39660 40127 55002;
0097067000999992000082805504+46250+006120FM-15+0416LSGG V0209999C00001220001CN0099001N1+01101+01101999999ADDMA1102201999999MW1001REMMET045LSGG 280550Z 00000KT CAVOK 11/11 Q1022 NOSIG;EQDQ01+000000PRSWM2
0101067000999992000090410004+46250+006120FM-12+0416LSGG V0200801N003619999999N9999999N1+01661+00781101911ADDMA1999999097081MD1210091+9999REMSYN060AAXX  04104 06700 46/// /0807 10166 20078 39708 40191 52009;
0097067000999992000090501504+46250+006120FM-15+0416LSGG V0202301N00101220001CN0099001N1+00701+00601999999ADDMA1102301999999MW1001REMMET045LSGG 050150Z 23002KT CAVOK 07/06 Q1023 NOSIG;EQDQ01+000000PRSWM2
0101067000999992000090708004+46250+006120FM-12+0416LSGG V0202701N001519999999N9999999N1+01571+01161101691ADDMA1999999096851MD1210111+9999REMSYN060AAXX  07084 06700 46/// /2703 10157 20116 39685 40169 52011;
0101067000999992000090820004+46250+006120FM-12+0416LSGG V0209999C000019999999N9999999N1+01641+01091102241ADDMA1999999097391MD1210151+9999REMSYN060AAXX  08204 06700 46/// /0000 10164 20109 39739 40224 52015;
0101067000999992000090923004+46250+006120FM-12+0416LSGG V0202601N000519999999N9999999N1+01451+01021102461ADDMA1999999097571MD1210061+9999REMSYN060AAXX  09234 06700 46/// /2601 10145 20102 39757 40246 52006;
0097067000999992000091100504+46250+006120FM-15+0416LSGG V0202601N00051220001CN0099001N1+01301+01201999999ADDMA1101901999999MW1001REMMET045LSGG 110050Z 26001KT CAVOK 13/12 Q1019 NOSIG;EQDQ01+000000PRSWM2
0097067000999992000091202504+46250+006120FM-15+0416LSGG V0202701N00051220001CN0099001N1+01301+01101999999ADDMA1101591999999MW1001REMMET045LSGG 120250Z 27001KT CAVOK 13/11 Q1016 NOSIG;EQDQ01+000000PRSWM2
0215067000999992000091212004+46250+006120FM-12+0416LSGG V0201201N00151036001CN0120001N1+02421+01511101341ADDAA199000091AW1051AZ111061GA1011+013509089GF107991011021012501081021MA1999999096661MD1710091+9999REMSYN088AAXX  12124 06700 34662 71203 10242 20151 39666 40134 57009 70511 81282 333 81845 87080;EQDQ01  00002PRCP99
0101067000999992000091317004+46250+006120FM-12+0416LSGG V0202201N003619999999N9999999N1+02511+01421101311ADDMA1999999096651MD1310011+9999REMSYN060AAXX  13174 06700 46/// /2207 10251 20142 39665 40131 53001;
0101067000999992000091501004+46250+006120FM-12+0416LSGG V0202301N000519999999N9999999N1+01681+01311101651ADDMA1999999096841MD1710021+9999REMSYN060AAXX  15014 06700 46/// /2301 10168 20131 39684 40165 57002;
0270067000999992000091506004+46250+006120FM-12+0416LSGG V0203601N000512200019N0080001N1+01551+01261101701ADDAA199000091AW1101AZ101061GA1011+015009059GF101991011051017501999001GJ105349IA1019KA1120N+01501MA1999999096861MD1510001+9999REMSYN100AAXX  15064 06700 34758 13601 10155 20126 39686 40170 55000 71000 81500 333 20150 30/// 55089 81650;EQDQ01  00002PRCP99Q02    003SCOMCG
0101067000999992000091520004+46250+006120FM-12+0416LSGG V0202501N002119999999N9999999N1+02211+01071101261ADDMA1999999096551MD1310061+9999REMSYN060AAXX  15204 06700 46/// /2504 10221 20107 39655 40126 53006;
0153067000999992000091711504+46250+006120FM-15+0416LSGG V0200801N002612200019N0112651N1+01901+00701999999ADDGA1021+013509999GF102991999999999999999999MA1101391999999MW1001REMMET059LSGG 171150Z 08005KT 320V160 9999 FEW045 19/07 Q1014 NOSIG;EQDQ01+000000PRSWM2
0176067000999992000092210504+46250+006120FM-15+0416LSGG V0200501N003612200019N0112651N1+01701+00901999999ADDGA1021+006009999GA2021+021009999GF104991999999999999999999MA1102401999999MW1001REMMET066LSGG 221050Z 05007KT 350V080 9999 FEW020 SCT074 17/09 Q1024 NOSIG;EQDQ01+000000PRSWM2
0097067000999992000092722504+46250+006120FM-15+0416LSGG V0202601N00051220001CN0099001N1+01301+01101999999ADDMA1101801999999MW1001REMMET045LSGG 272250Z 26001KT CAVOK 13/11 Q1018 NOSIG;EQDQ01+000000PRSWM2
0101067000999992000092813004+46250+006120FM-12+0416LSGG V0202501N006219999999N9999999N1+02441+01141100841ADDMA1999999096191MD1710311+9999REMSYN060AAXX  28134 06700 46/// /2512 10244 20114 39619 40084 57031;
0218067000999992000093010504+46250+006120FM-15+0416LSGG V0200301N002610150019N0050001N1+01301+01301999999ADDGA1021+000309999GA2021+003009999GA3071+015009999GF107991999999999999999999MA1100711999999MW1631REMMET076LSGG 301050Z 03005KT 340V060 5000 RA FEW001 SCT010 BKN050 13/13 Q1007 NOSIG;EQDQ01+000003PRSWM1Q02    003PRSWM1
0187067000999992000100315004+46250+006120FM-12+0416LSGG V0200701N005710150019N0500001N1+01551+00751101951ADDGA1011+012009089GA2061+015009069GF106991061081012501999999MA1999999097101MD1710051+9999REMSYN088AAXX  03154 06700 45684 60711 10155 20075 39710 40195 57005 868// 333 81840 86650 91121;
0211067000999992000100515504+46250+006120FM-15+0416LSGG V0209999C000010114019N0090001N1+01401+01101999999ADDGA1021+006009999GA2071+011409999GA3071+021009999GF107991999999999999999999MA1101901999999MW1611REMMET069LSGG 051550Z 00000KT 9000 -RA FEW020 BKN038 BKN075 14/11 Q1019 NOSIG;EQDQ01+000003PRSWM1Q02    003PRSWM1
0101067000999992000100902004+46250+006120FM-12+0416LSGG V0202401N003119999999N9999999N1+01001+00741101811ADDMA1999999096871MD1710161+9999REMSYN060AAXX  09024 06700 46/// /2406 10100 20074 39687 40181 57016;
0101067000999992000101414004+46250+006120FM-12+0416LSGG V0200601N001519999999N9999999N1+01491+01091101331ADDMA1999999096501MD1710111+9999REMSYN060AAXX  14144 06700 46/// /0603 10149 20109 39650 40133 57011;
0179067000999992000101603004+46250+006120FM-12+0416LSGG V0203601N000512200019N0025001N1+01011+00871100931ADDAW1401AZ161031GA1021+027009079GF102991021001999999041001MA1999999096031MD1710121+9999REMSYN082AAXX  16034 06700 44925 23601 10101 20087 39603 40093 57012 74061 82040 333 82359;
0240067000999992000102318004+46250+006120FM-12+0416LSGG V0200401N001012200019N0060001N1+01221+00961102731ADDAA199000091AW1101AZ111061GA1011+012009059GF101991011051012501001011IA1019KA1120M+01461MA1999999097781MD1210091+9999REMSYN094AAXX  23184 06700 34656 10402 10122 20096 39778 40273 52009 71011 81501 333 10146 30/// 81640;EQDQ01  00002PRCP99
0101067000999992000102408004+46250+006120FM-12+0416LSGG V0201401N000519999999N9999999N1+01371+01061102651ADDMA1999999097731MD1210091+9999REMSYN060AAXX  24084 06700 46/// /1401 10137 20106 39773 40265 52009;
0191067000999992000102604504+46250+006120FM-15+0416LSGG V0202101N001010210019N0090001N1+01101+01101999999ADDGA1021+004509999GA2021+009009999GA3071+021009999GF107991999999999999999999MA1101801999999MW1001REMMET065LSGG 260450Z 21002KT 9000 FEW015 SCT030 BKN070 11/11 Q1018 NOSIG;EQDQ01+000000PRSWM2
0233067000999992000102618004+46250+006120FM-12+0416LSGG V0202301N00151007501CN0090001N1+01411+01061101991ADDAA112001091AW1101AZ121061GA1011+006009069GF106991061051008001999999IA1099KA1120M+01581MA1999999097111MD1210071+9999REMSYN106AAXX  26184 06700 14559 62303 10141 20106 39711 40199 52007 69992 71022 865// 333 10158 31/// 81620 86656;
0197067000999992000102809004+46250+006120FM-12+0416LSGG V0209999C000012200019N0090001N1+01031+00671102321ADDAW1101AZ101031GA1011+075009019GF102991001001999999001021IA2999+00109MA1999999097361MD1710011+9999REMSYN088AAXX  28094 06700 44959 20000 10103 20067 39736 40232 57001 71000 80002 333 3/001 81075;
0101067000999992000103002004+46250+006120FM-12+0416LSGG V0202401N003619999999N9999999N1+00901+00671101751ADDMA1999999096801MD1810271+9999REMSYN060AAXX  30024 06700 46/// /2407 10090 20067 39680 40175 58027;
0203067000999992000103109004+46250+006120FM-12+0416LSGG V0202701N00311036001CN0090001N1+00811+00591100881ADDAW1621AZ161031GA1021+003009079GF108991021071004501021999IA2999+00609MA1999999095951MD1210441+9999REMSYN094AAXX  31094 06700 44459 82706 10081 20059 39595 40088 52044 76266 8272/ 333 3/006 82710 88523;
0221067000999992000103119204+46250+006120FM-15+0416LSGG V0202001N002110180019N0112651N1+00801+00501999999ADDGA1021+009009999GA2021+013509999GA3071+018009999GF107991999999999999999999MA1101021999999MW1801REMMET079LSGG 311920Z 20004KT 030V340 9999 -SHRA FEW030 SCT045 BKN065 08/05 Q1010 NOSIG;EQDQ01+000003PRSWM1Q02    003PRSWM1
0101067000999992000110204004+46250+006120FM-12+0416LSGG V0202501N002619999999N9999999N1+00931+00361100941ADDMA1999999096031MD1710221+9999REMSYN060AAXX  02044 06700 46/// /2505 10093 20036 39603 40094 57022;
0153067000999992000110221504+46250+006120FM-15+0416LSGG V0202501N003610102019N0112651N1+01001+00601999999ADDGA1071+010209999GF107991999999999999999999MA1100411999999MW1001REMMET059LSGG 022150Z 25007KT 230V290 9999 BKN034 10/06 Q1004 NOSIG;EQDQ01+000000PRSWM2
0101067000999992000110402004+46250+006120FM-12+0416LSGG V0202301N003119999999N9999999N1+00761+00281101141ADDMA1999999096191MD1210151+9999REMSYN060AAXX  04024 06700 46/// /2306 10076 20028 39619 40114 52015;
0145067000999992000110509504+46250+006120FM-15+0416LSGG V0201901N001512200019N0112651N1+00701+00301999999ADDGA1021+003009999GF102991999999999999999999MA1101591999999MW1001REMMET051LSGG 050950Z 19003KT 9999 FEW010 07/03 Q1016 NOSIG;EQDQ01+000000PRSWM2
0101067000999992000111011004+46250+006120FM-12+0416LSGG V0202401N004619999999N9999999N1+00881+00351102311ADDMA1999999097341MD1210091+9999REMSYN060AAXX  10114 06700 46/// /2409 10088 20035 39734 40231 52009;
0195067000999992000111312004+46250+006120FM-12+0416LSGG V0200401N00101036001CN0200001N1+01261+00741100251ADDAA199000091GA1011+015009069GF107991011051017501071999MA1999999095431MD1710091+9999REMSYN082AAXX  13124 06700 35770 70402 10126 20074 39543 40025 57009 8157/ 333 81650 87359;EQDQ01  00002PRCP99
0101067000999992000111319004+46250+006120FM-12+0416LSGG V0202301N002119999999N9999999N1+01311+01021100221ADDMA1999999095411MD1010141+9999REMSYN060AAXX  13194 06700 46/// /2304 10131 20102 39541 40022 50014;
0101067000999992000111420004+46250+006120FM-12+0416LSGG V0209999C000019999999N9999999N1+00601+00371101531ADDMA1999999096531MD1210191+9999REMSYN060AAXX  14204 06700 46/// /0000 10060 20037 39653 40153 52019;
0168067000999992000112314504+46250+006120FM-15+0416LSGG V0200701N001510240019N0080001N1+00801+00601999999ADDGA1021+003009999GA2071+024009999GF107991999999999999999999MA1100101999999MW1001REMMET058LSGG 231450Z 07003KT 8000 SCT010 BKN080 08/06 Q1001 NOSIG;EQDQ01+000000PRSWM2
0196067000999992000112812004+46250+006120FM-12+0416LSGG V0203301N001510012019N0070001N1+00991+00761102211ADDAA199000021AW1101AZ121061GA1011+000909079GF108991081061001501999999MA1999999097251MD1710131+9999REMSYN088AAXX  28124 06700 34257 83303 10099 20076 39725 40221 57013 71022 886// 333 81703 88704;
0101067000999992000113010004+46250+006120FM-12+0416LSGG V0200601N001019999999N9999999N1+00711+00561102201ADDMA1999999097191MD1210061+9999REMSYN060AAXX  30104 06700 46/// /0602 10071 20056 39719 40220 52006;
0145067000999992000120417504+46250+006120FM-15+0416LSGG V0200501N000510300019N0080001N1+00601+00501999999ADDGA1071+030009999GF107991999999999999999999MA1102101999999MW1001REMMET051LSGG 041750Z 05001KT 8000 BKN100 06/05 Q1021 NOSIG;EQDQ01+000000PRSWM2
0188067000999992000120902504+46250+006120FM-15+0416LSGG V0202101N002610135019N0112651N1+00801+00701999999ADDGA1021+001809999GA2071+013509999GF107991999999999999999999MA1101691999999MW1611REMMET062LSGG 090250Z 21005KT 9999 -RA FEW006 BKN045 08/07 Q1017 NOSIG;EQDQ01+000003PRSWM1Q02    003PRSWM1
0272067000999992000121006004+46250+006120FM-12+0416LSGG V0202601N003110450019N0400001N1+00571+00291102351ADDAA112000591AJ100009199999999GA1011+010509069GA2051+045009039GF105991011051017501071001GJ101209IA1119KA1120N+00421MA1999999097311MD1010011+9999REMSYN118AAXX  10064 06700 15782 52606 10057 20029 39731 40235 50001 69942 81570 333 20042 32/// 4/000 55020 81635 85365 90768;
0101067000999992000121207004+46250+006120FM-12+0416LSGG V0209999C000019999999N9999999N1+00391+00171103091ADDMA1999999097981MD1010001+9999REMSYN060AAXX  12074 06700 46/// /0000 10039 20017 39798 40309 50000;
0165067000999992000121215004+46250+006120FM-12+0416LSGG V0202601N002619999999N0250001N1+01101+00301102581ADDGA1011+030009039GF107991071001999999071999MA1999999097621MD1610221+9999REMSYN082AAXX  12154 06700 45975 72605 10110 20030 39762 40258 56022 8707/ 333 81360 87465;
0101067000999992000121302004+46250+006120FM-12+0416LSGG V0202501N004119999999N9999999N1+01011+00481102531ADDMA1999999097561MD1310131+9999REMSYN060AAXX  13024 06700 46/// /2508 10101 20048 39756 40253 53013;
0101067000999992000121304004+46250+006120FM-12+0416LSGG V0202501N005119999999N9999999N1+01011+00491102551ADDMA1999999097581MD1110111+9999REMSYN060AAXX  13044 06700 46/// /2510 10101 20049 39758 40255 51011;
0169067000999992000121617504+46250+006120FM-15+0416LSGG V0202101N001510240019N0112651N1+00201-00101999999ADDGA1021+010509999GA2071+024009999GF107991999999999999999999MA1101801999999MW1001REMMET059LSGG 161750Z 21003KT 9999 FEW035 BKN080 02/M01 Q1018 NOSIG;EQDQ01+000000PRSWM2
0178067000999992000121721004+46250+006120FM-12+0416LSGG V0202701N000512200019N0400001N1+00091-00241102091ADDGA1011+018009059GF101991011051017501999001MA1999999096971MD1210041+9999REMSYN076AAXX  17214 06700 45782 12701 10009 21024 39697 40209 52004 81500 333 81656;EQDQ01+000002SCOMCG
0099067000999992000121801504+46250+006120FM-15+0416LSGG V0202301N00101220001CN0099001N1-00201-00301999999ADDMA1102001999999MW1001REMMET047LSGG 180150Z 23002KT CAVOK M02/M03 Q1020 NOSIG;EQDQ01+000000PRSWM2
0101067000999992000121802004+46250+006120FM-12+0416LSGG V0209999C000019999999N9999999N1-00111-00341102311ADDMA1999999097141MD1210111+9999REMSYN060AAXX  18024 06700 46/// /0000 11011 21034 39714 40231 52011;
0283067000999992000122106004+46250+006120FM-12+0416LSGG V0200301N001510036019N0100001N1+00471+00171102161ADDAA199000091AJ100009199999999AW1101AZ121061GA1081+003609079GF108991081061004501999999GJ100009IA1099KA1120N+00471MA1999999097111MD1210031+9999REMSYN112AAXX  21064 06700 34460 80303 10047 20017 39711 40216 52003 71022 886// 333 20047 31/// 4/000 55000 88712 90768;EQDQ01  00002PRCP99
0164067000999992000122211504+46250+006120FM-15+0416LSGG V0200101N002610030019N0045001N1+00301+00101999999ADDGA1081+003009999GF108991999999999999999999MA1101801999999MW1101REMMET054LSGG 221150Z 01005KT 4500 BR OVC010 03/01 Q1018 NOSIG;EQDQ01+000003PRSWM1Q02    003PRSWM1
0101067000999992000122213004+46250+006120FM-12+0416LSGG V0200101N002119999999N9999999N1+00421+00071101981ADDMA1999999096931MD1710121+9999REMSYN060AAXX  22134 06700 46/// /0104 10042 20007 39693 40198 57012;
0166067000999992000122702504+46250+006120FM-15+0416LSGG V0209999C000012200019N0020001N1+00101+00101999999ADDGA1021+021009999GF104991999999999999999999MA1099091999999MW1411REMMET056LSGG 270250Z 00000KT 2000 BCFG SCT070 01/01 Q0991 NOSIG;EQDQ01+000003PRSWM1Q02    003PRSWM1
0164067000999992000122706504+46250+006120FM-15+0416LSGG V0201901N000510012019N0050001N1+00201+00201999999ADDGA1081+001209999GF108991999999999999999999MA1099091999999MW1101REMMET054LSGG 270650Z 19001KT 5000 BR OVC004 02/02 Q0991 NOSIG;EQDQ01+000003PRSWM1Q02    003PRSWM1
0101067000999992000123113004+46250+006120FM-12+0416LSGG V0200601N004619999999N9999999N1+00201-00501101901ADDMA1999999096811MD1710121+9999REMSYN060AAXX  31134 06700 46/// /0609 10020 21050 39681 40190 57012;
0110067020999992000010614004+46430+006100FM-12+167599999V0202601N007719999999N9999999N1+00181-00761999999ADDMA1999999083441MD1710011+9999ME1315259REMSYN060AAXX  06144 06702 46/// /2615 10018 21076 38344 48525 57001;
0110067020999992000010803004+46430+006100FM-12+167599999V0202601N009319999999N9999999N1-00291-00381999999ADDMA1999999083361MD1710031+9999ME1315209REMSYN060AAXX  08034 06702 46/// /2618 11029 21038 38336 48520 57003;
0110067020999992000011207004+46430+006100FM-12+167599999V0202001N006719999999N9999999N1-00391-00831999999ADDMA1999999083781MD1710051+9999ME1315609REMSYN060AAXX  12074 06702 46/// /2013 11039 21083 38378 48560 57005;
0110067020999992000011217004+46430+006100FM-12+167599999V0201801N007719999999N9999999N1-00291-00821999999ADDMA1999999083541MD1710051+9999ME1315379REMSYN060AAXX  12174 06702 46/// /1815 11029 21082 38354 48537 57005;
0110067020999992000013007004+46430+006100FM-12+167599999V0203101N019519999999N9999999N1-00051-00061999999ADDMA1999999083221MD1210081+9999ME1315059REMSYN060AAXX  30074 06702 46/// /3138 11005 21006 38322 48505 52008;
0110067020999992000020723004+46430+006100FM-12+167599999V0202601N010819999999N9999999N1-00111-00151999999ADDMA1999999083491MD1710081+9999ME1315319REMSYN060AAXX  07234 06702 46/// /2621 11011 21015 38349 48531 57008;
0187067020999992000020906004+46430+006100FM-12+167599999V0203301N010319999999N9999999N1-00411-00461999999ADDAA112021191GJ100009KA1120N-00411MA1999999083521MD1210291+9999ME1315369OA149903291REMSYN094AAXX  09064 06702 16/// /3320 11041 21046 38352 48536 52029 60212 333 21041 55000 91164 91241;
0110067020999992000021004004+46430+006100FM-12+167599999V0201201N006219999999N9999999N1-00511-00731999999ADDMA1999999083791MD1810111+9999ME1315629REMSYN060AAXX  10044 06702 46/// /1212 11051 21073 38379 48562 58011;
0110067020999992000021401004+46430+006100FM-12+167599999V0203601N005119999999N9999999N1-00221-00291999999ADDMA1999999083461MD1510021+9999ME1315299REMSYN060AAXX  14014 06702 46/// /3610 11022 21029 38346 48529 55002;
0110067020999992000021622004+46430+006100FM-12+167599999V0203501N013419999999N9999999N1-00811-00911999999ADDMA1999999082021MD1210191+9999ME1313969REMSYN060AAXX  16224 06702 46/// /3526 11081 21091 38202 48396 52019;
0183067020999992000022506004+46430+006100FM-12+167599999V0202901N015419999999N9999999N1-00011-00071999999ADDAA199000091GJ100129KA1120N-00031MA1999999083771MD1710061+9999ME1315589REMSYN082AAXX  25064 06702 36/// /2930 11001 21007 38377 48558 57006 333 21003 55002 91231;EQDQ01  00002PRCP99
0110067020999992000022916004+46430+006100FM-12+167599999V0202301N014919999999N9999999N1-00021-00061999999ADDMA1999999082801MD1710221+9999ME1314649REMSYN060AAXX  29164 06702 46/// /2329 11002 21006 38280 48464 57022;
0110067020999992000031215004+46430+006100FM-12+167599999V0203601N004619999999N9999999N1+00501+00131999999ADDMA1999999083401MD1710021+9999ME1315199REMSYN060AAXX  12154 06702 46/// /3609 10050 20013 38340 48519 57002;
0110067020999992000031423004+46430+006100FM-12+167599999V0203101N012919999999N9999999N1+00181+00181999999ADDMA1999999083451MD1710131+9999ME1315269REMSYN060AAXX  14234 06702 46/// /3125 10018 20018 38345 48526 57013;
0155067020999992000031509004+46430+006100FM-12+167599999V0200501N008719999999N9999999N1-00351-00481999999ADDIA2999-00509MA1999999083561MD1210131+9999ME1315399OA149901701REMSYN082AAXX  15094 06702 46/// /0517 11035 21048 38356 48539 52013 333 3/105 91133 91221;
0110067020999992000031510004+46430+006100FM-12+167599999V0200501N007719999999N9999999N1-00391-00531999999ADDMA1999999083621MD1210141+9999ME1315459REMSYN060AAXX  15104 06702 46/// /0515 11039 21053 38362 48545 52014;
0110067020999992000032205004+46430+006100FM-12+167599999V0201901N007219999999N9999999N1+00111-00561999999ADDMA1999999083211MD1710041+9999ME1315039REMSYN060AAXX  22054 06702 46/// /1914 10011 21056 38321 48503 57004;
0110067020999992000032716004+46430+006100FM-12+167599999V0203401N005719999999N9999999N1-00381-00471999999ADDMA1999999081901MD1410001+9999ME1313809REMSYN060AAXX  27164 06702 46/// /3411 11038 21047 38190 48380 54000;
0110067020999992000033105004+46430+006100FM-12+167599999V0202501N008719999999N9999999N1-00361-00851999999ADDMA1999999082471MD1710071+9999ME1314359REMSYN060AAXX  31054 06702 46/// /2517 11036 21085 38247 48435 57007;
0137067020999992000040112004+46430+006100FM-12+167599999V0202701N006219999999N9999999N1-00311-00371999999ADDAA106000591MA1999999082021MD1010021+9999ME1313919REMSYN076AAXX  01124 06702 16/// /2712 11031 21037 38202 48391 50002 69951 333 91223;
0110067020999992000040510004+46430+006100FM-12+167599999V0203301N009319999999N9999999N1-00171-00191999999ADDMA1999999081801MD1210311+9999ME1313689REMSYN060AAXX  05104 06702 46/// /3318 11017 21019 38180 48368 52031;
0110067020999992000041020004+46430+006100FM-12+167599999V0202201N004619999999N9999999N1+00181-00041999999ADDMA1999999081971MD1210011+9999ME1313819REMSYN060AAXX  10204 06702 46/// /2209 10018 21004 38197 48381 52001;
0110067020999992000041608004+46430+006100FM-12+167599999V0201501N012919999999N9999999N1-00101-00281999999ADDMA1999999081631MD1710101+9999ME1313509REMSYN060AAXX  16084 06702 46/// /1525 11010 21028 38163 48350 57010;
0132067020999992000041909004+46430+006100FM-12+167599999V0203201N007719999999N9999999N1-00051-00061999999ADDIA2999-00109MA1999999082541MD1210141+9999ME1314399REMSYN070AAXX  19094 06702 46/// /3215 11005 21006 38254 48439 52014 333 3/101;
0140067020999992000042000004+46430+006100FM-12+167599999V0201101N006719999999N9999999N1+00101-00031999999ADDAA199000091MA1999999082911MD1210041+9999ME1314749REMSYN060AAXX  20004 06702 36/// /1113 10010 21003 38291 48474 52004;EQDQ01  00002PRCP99
0110067020999992000042016004+46430+006100FM-12+167599999V0202801N004619999999N9999999N1+00931-00061999999ADDMA1999999083011MD1710021+9999ME1314789REMSYN060AAXX  20164 06702 46/// /2809 10093 21006 38301 48478 57002;
0169067020999992000042718004+46430+006100FM-12+167599999V0201101N006719999999N9999999N1+01061+00211999999ADDAA199000091KA1120M+01291MA1999999082381MD1710021+9999ME1314139REMSYN076AAXX  27184 06702 36/// /1113 10106 20021 38238 48413 57002 333 10129 91223;EQDQ01  00002PRCP99
0110067020999992000051205004+46430+006100FM-12+167599999V0202901N007719999999N9999999N1+00641+00441999999ADDMA1999999083521MD1210021+9999ME1315309REMSYN060AAXX  12054 06702 46/// /2915 10064 20044 38352 48530 52002;
0110067020999992000051310004+46430+006100FM-12+167599999V0209999C003619999999N9999999N1+01021+00951999999ADDMA1999999083741MD1210081+9999ME1315509REMSYN060AAXX  13104 06702 46/// /0007 10102 20095 38374 48550 52008;
0163067020999992000052418004+46430+006100FM-12+167599999V0202801N005119999999N9999999N1+01251+00521999999ADDAA199000091KA1999M+01411MA1999999083371MD1710061+9999ME1315129REMSYN070AAXX  24184 06702 36/// /2810 10125 20052 38337 48512 57006 333 10141;EQDQ01  00002PRCP99
0110067020999992000052502004+46430+006100FM-12+167599999V0202501N007219999999N9999999N1+00981+00291999999ADDMA1999999083311MD1710091+9999ME1315079REMSYN060AAXX  25024 06702 46/// /2514 10098 20029 38331 48507 57009;
0110067020999992000052607004+46430+006100FM-12+167599999V0201301N007219999999N9999999N1+00881+00741999999ADDMA1999999083271MD1510031+9999ME1315049REMSYN060AAXX  26074 06702 46/// /1314 10088 20074 38327 48504 55003;
0110067020999992000060816004+46430+006100FM-12+167599999V0202301N003119999999N9999999N1+01521+01071999999ADDMA1999999083541MD1710051+9999ME1315289REMSYN060AAXX  08164 06702 46/// /2306 10152 20107 38354 48528 57005;
0110067020999992000060901004+46430+006100FM-12+167599999V0201301N006719999999N9999999N1+01081+01011999999ADDMA1999999083461MD1510041+9999ME1315229REMSYN060AAXX  09014 06702 46/// /1313 10108 20101 38346 48522 55004;
0110067020999992000061122004+46430+006100FM-12+167599999V0203601N007719999999N9999999N1+00461+00461999999ADDMA1999999083741MD1210161+9999ME1315539REMSYN060AAXX  11224 06702 46/// /3615 10046 20046 38374 48553 52016;
0110067020999992000061205004+46430+006100FM-12+167599999V0200701N008719999999N9999999N1+00671+00671999999ADDMA1999999083801MD1210031+9999ME1315589REMSYN060AAXX  12054 06702 46/// /0717 10067 20067 38380 48558 52003;
0110067020999992000061403004+46420+006100FM-12+167599999V0203601N006719999999N9999999N1+01101+00991999999ADDMA1999999084071MD1710111+9999ME1315839REMSYN060AAXX  14034 06702 46/// /3613 10110 20099 38407 48583 57011;
0110067020999992000061523004+46420+006100FM-12+167599999V0203501N007719999999N9999999N1+00971+00901999999ADDMA1999999084121MD1810021+9999ME1315889REMSYN060AAXX  15234 06702 46/// /3515 10097 20090 38412 48588 58002;
0138067020999992000061709004+46420+006100FM-12+167599999V0201201N010319999999N9999999N1+01231+00601999999ADDIA2999+00209MA1999999084101MD1210101+9999ME1315859REMSYN076AAXX  17094 06702 46/// /1220 10123 20060 38410 48585 52010 333 3/002 91224;
0120067020999992000061715004+46420+006100FM-12+167599999V0201201N005119999999N9999999N1+01491+00231999999ADDMA1999999084191MD1710021+9999ME1315949REMSYN070AAXX  17154 06702 46/// /1210 10149 20023 38419 48594 57002 333 91122;
0110067020999992000062501004+46420+006100FM-12+167599999V0203401N005719999999N9999999N1+00261+00261999999ADDMA1999999083281MD1710061+9999ME1315099REMSYN060AAXX  25014 06702 46/// /3411 10026 20026 38328 48509 57006;
0137067020999992000070812004+46420+006100FM-12+167599999V0203501N006219999999N9999999N1+00551+00521999999ADDAA106001091MA1999999083261MD1210131+9999ME1315059REMSYN076AAXX  08124 06702 16/// /3512 10055 20052 38326 48505 52013 60011 333 91226;
0110067020999992000071816004+46420+006100FM-12+167599999V0203501N005119999999N9999999N1+01171+00891999999ADDMA1999999083551MD1210021+9999ME1315309REMSYN060AAXX  18164 06702 46/// /3510 10117 20089 38355 48530 52002;
0120067020999992000072003004+46420+006100FM-12+167599999V0201101N007219999999N9999999N1+00731+00571999999ADDMA1999999083431MD1710051+9999ME1315219REMSYN070AAXX  20034 06702 46/// /1114 10073 20057 38343 48521 57005 333 91222;
0169067020999992000072006004+46420+006100FM-12+167599999V0201101N009819999999N9999999N1+00671+00561999999ADDAA199000091KA1120N+00671MA1999999083401MD1810031+9999ME1315189REMSYN076AAXX  20064 06702 36/// /1119 10067 20056 38340 48518 58003 333 20067 55058;EQDQ01  00002PRCP99
0110067020999992000080207004+46420+006100FM-12+167599999V0202901N012319999999N9999999N1+01051+00941999999ADDMA1999999083841MD1210081+9999ME1315609REMSYN060AAXX  02074 06702 46/// /2924 10105 20094 38384 48560 52008;
0110067020999992000080322004+46420+006100FM-12+167599999V0203201N005119999999N9999999N1+00691+00391999999ADDMA1999999083711MD1210061+9999ME1315499REMSYN060AAXX  03224 06702 46/// /3210 10069 20039 38371 48549 52006;
0140067020999992000080712004+46420+006100FM-12+167599999V0200301N003619999999N9999999N1+01301+00861999999ADDAA199000091MA1999999083941MD1210041+9999ME1315699REMSYN060AAXX  07124 06702 36/// /0307 10130 20086 38394 48569 52004;EQDQ01  00002PRCP99
0110067020999992000081214004+46420+006100FM-12+167599999V0200101N005719999999N9999999N1+02001+00761999999ADDMA1999999083541MD1710011+9999ME1315259REMSYN060AAXX  12144 06702 46/// /0111 10200 20076 38354 48525 57001;
0110067020999992000081221004+46420+006100FM-12+167599999V0200101N005719999999N9999999N1+01471+00421999999ADDMA1999999083701MD1210131+9999ME1315449REMSYN060AAXX  12214 06702 46/// /0111 10147 20042 38370 48544 52013;
0110067020999992000081305004+46420+006100FM-12+167599999V0200901N009319999999N9999999N1+01291+00681999999ADDMA1999999083621MD1510021+9999ME1315379REMSYN060AAXX  13054 06702 46/// /0918 10129 20068 38362 48537 55002;
0110067020999992000081513004+46420+006100FM-12+167599999V0203301N004119999999N9999999N1+01721+01451999999ADDMA1999999084121MD1710071+9999ME1315869REMSYN060AAXX  15134 06702 46/// /3308 10172 20145 38412 48586 57007;
0110067020999992000081617004+46420+006100FM-12+167599999V0201701N004119999999N9999999N1+01881+01351999999ADDMA1999999083721MD1710081+9999ME1315449REMSYN060AAXX  16174 06702 46/// /1708 10188 20135 38372 48544 57008;
0110067020999992000081811004+46420+006100FM-12+167599999V0202401N006719999999N9999999N1+01691+01021999999ADDMA1999999083651MD1210021+9999ME1315389REMSYN060AAXX  18114 06702 46/// /2413 10169 20102 38365 48538 52002;
0110067020999992000082519004+46420+006100FM-12+167599999V0201301N004619999999N9999999N1+01751-00381999999ADDMA1999999083861MD1510031+9999ME1315599REMSYN060AAXX  25194 06702 46/// /1309 10175 21038 38386 48559 55003;
0110067020999992000090321004+46420+006100FM-12+167599999V0200101N006719999999N9999999N1+00471+00381999999ADDMA1999999083261MD1210081+9999ME1315069REMSYN060AAXX  03214 06702 46/// /0113 10047 20038 38326 48506 52008;
0169067020999992000090406004+46420+006100FM-12+167599999V0200201N006219999999N9999999N1+00361+00021999999ADDAA199000091KA1120N+00271MA1999999083261MD1210041+9999ME1315069REMSYN076AAXX  04064 06702 36/// /0212 10036 20002 38326 48506 52004 333 20027 55000;EQDQ01  00002PRCP99
0140067020999992000090612004+46420+006100FM-12+167599999V0203101N007219999999N9999999N1+01181+00521999999ADDAA199000091MA1999999083491MD1710041+9999ME1315249REMSYN060AAXX  06124 06702 36/// /3114 10118 20052 38349 48524 57004;EQDQ01  00002PRCP99
0150067020999992000090618004+46420+006100FM-12+167599999V0202901N008719999999N9999999N1+00701-00221999999ADDAA112000191KA1999M+01271MA1999999083371MD1710071+9999ME1315159REMSYN076AAXX  06184 06702 16/// /2917 10070 21022 38337 48515 57007 69912 333 10127;
0110067020999992000090816004+46420+006100FM-12+167599999V0200101N003119999999N9999999N1+01421+00561999999ADDMA1999999083851MD1210021+9999ME1315599REMSYN060AAXX  08164 06702 46/// /0106 10142 20056 38385 48559 52002;
0154067020999992000091612004+46420+006100FM-12+167599999V0203101N014419999999N9999999N1+00551+00551999999ADDAA106000391MA1999999083121MD1710131+9999ME1314919OA149901851REMSYN082AAXX  16124 06702 16/// /3128 10055 20055 38312 48491 57013 69931 333 91136 91228;
0132067020999992000091809004+46420+006100FM-12+167599999V0202301N001019999999N9999999N1+01021+00711999999ADDIA2999+00009MA1999999082741MD1210041+9999ME1314509REMSYN070AAXX  18094 06702 46/// /2302 10102 20071 38274 48450 52004 333 3/000;
0137067020999992000101615004+46420+006100FM-12+167599999V0202501N007219999999N9999999N1+00481+00381999999ADDMA1999999082921MD1210171+9999ME1314729OA149901651REMSYN076AAXX  16154 06702 46/// /2514 10048 20038 38292 48472 52017 333 91132 91221;
0110067020999992000102415004+46420+006100FM-12+167599999V0202901N005719999999N9999999N1+00751+00751999999ADDMA1999999083881MD1710121+9999ME1315659REMSYN060AAXX  24154 06702 46/// /2911 10075 20075 38388 48565 57012;
0120067020999992000102503004+46420+006100FM-12+167599999V0202401N010319999999N9999999N1+00701+00481999999ADDMA1999999083591MD1710141+9999ME1315379REMSYN070AAXX  25034 06702 46/// /2420 10070 20048 38359 48537 57014 333 91220;
0110067020999992000102514004+46420+006100FM-12+167599999V0202701N006219999999N9999999N1+01071+00091999999ADDMA1999999083421MD1710131+9999ME1315189REMSYN060AAXX  25144 06702 46/// /2712 10107 20009 38342 48518 57013;
0110067020999992000102619004+46420+006100FM-12+167599999V0202901N008719999999N9999999N1+00531+00531999999ADDMA1999999083381MD1210061+9999ME1315179REMSYN060AAXX  26194 06702 46/// /2917 10053 20053 38338 48517 52006;
0167067020999992000102812004+46420+006100FM-12+167599999V0202201N009819999999N9999999N1+01091+00021999999ADDAA199000091MA1999999083491MD1710101+9999ME1315259OA149901601REMSYN076AAXX  28124 06702 36/// /2219 10109 20002 38349 48525 57010 333 91131 91222;EQDQ01  00002PRCP99
0187067020999992000110406004+46420+006100FM-12+167599999V0203001N006219999999N9999999N1-00261-00291999999ADDAA112007991GJ100009KA1120N-00291MA1999999082351MD1210111+9999ME1314229OA149901801REMSYN094AAXX  04064 06702 16/// /3012 11026 21029 38235 48422 52011 60082 333 21029 55000 91135 91223;
0110067020999992000110608004+46420+006100FM-12+167599999V0202601N012319999999N9999999N1-00041-00051999999ADDMA1999999080661MD1610021+9999ME1312539REMSYN060AAXX  06084 06702 46/// /2624 11004 21005 38066 48253 56002;
0110067020999992000110710004+46420+006100FM-12+167599999V0202101N012919999999N9999999N1-00121-00221999999ADDMA1999999080651MD1210201+9999ME1312539REMSYN060AAXX  07104 06702 46/// /2125 11012 21022 38065 48253 52020;
0110067020999992000110920004+46420+006100FM-12+167599999V0203001N010319999999N9999999N1-00221-00251999999ADDMA1999999082811MD1210141+9999ME1314679REMSYN060AAXX  09204 06702 46/// /3020 11022 21025 38281 48467 52014;
0110067020999992000111214004+46420+006100FM-12+167599999V0202001N017519999999N9999999N1+00531+00281999999ADDMA1999999082391MD1710231+9999ME1314199REMSYN060AAXX  12144 06702 46/// /2034 10053 20028 38239 48419 57023;
0110067020999992000111717004+46420+006100FM-12+167599999V0203501N006219999999N9999999N1-00471-00531999999ADDMA1999999082561MD1210131+9999ME1314459REMSYN060AAXX  17174 06702 46/// /3512 11047 21053 38256 48445 52013;
0110067020999992000112707004+46420+006100FM-12+167599999V0202401N005719999999N9999999N1-00251-00381999999ADDMA1999999083001MD1210111+9999ME1314859REMSYN060AAXX  27074 06702 46/// /2411 11025 21038 38300 48485 52011;
0110067020999992000120507004+46420+006100FM-12+167599999V0201701N012319999999N9999999N1+00261-00411999999ADDMA1999999083171MD1710101+9999ME1314989REMSYN060AAXX  05074 06702 46/// /1724 10026 21041 38317 48498 57010;
0110067020999992000120601004+46420+006100FM-12+167599999V0202201N015919999999N9999999N1+00361-00011999999ADDMA1999999083061MD1710021+9999ME1314879REMSYN060AAXX  06014 06702 46/// /2231 10036 21001 38306 48487 57002;
0110067020999992000121720004+46420+006100FM-12+167599999V0202901N008719999999N9999999N1-00621-00741999999ADDMA1999999082781MD1210031+9999ME1314679REMSYN060AAXX  17204 06702 46/// /2917 11062 21074 38278 48467 52003;
0110067020999992000122015004+46420+006100FM-12+167599999V0202501N004119999999N9999999N1+00571-00481999999ADDMA1999999082941MD1710061+9999ME1314739REMSYN060AAXX  20154 06702 46/// /2508 10057 21048 38294 48473 57006;
0110067020999992000122422004+46420+006100FM-12+167599999V0201801N014419999999N9999999N1-00031-00061999999ADDMA1999999081241MD1710161+9999ME1313119REMSYN060AAXX  24224 06702 46/// /1828 11003 21006 38124 48311 57016;
0110067020999992000122602004+46420+006100FM-12+167599999V0202401N008719999999N9999999N1-00111-00211999999ADDMA1999999081011MD1710091+9999ME1312899REMSYN060AAXX  26024 06702 46/// /2417 11011 21021 38101 48289 57009;
0101067120999992000010805004+46330+006920FM-12+038199999V0209999C000019999999N9999999N1-00211-00361102771ADDMA1999999097961MD1710041+9999REMSYN060AAXX  08054 06712 46/// /0000 11021 21036 39796 40277 57004;
0101067120999992000010820004+46330+006920FM-12+038199999V0209999C000019999999N9999999N1+00051-00141102631ADDMA1999999097871MD1210011+9999REMSYN060AAXX  08204 06712 46/// /0000 10005 21014 39787 40263 52001;
0105067120999992000011902004+46330+006920FM-12+038199999V0209999C000019999999N9999999N1-00131-00221102561ADDMA1999999097781MD1410001+9999REMSYN064    AAXX  19024 06712 46/// /0000 11013 21022 39778 40256 54000;
0101067120999992000012011004+46330+006920FM-12+038199999V0203001N000519999999N9999999N1+00091-00471103391ADDMA1999999098611MD1210051+9999REMSYN060AAXX  20114 06712 46/// /3001 10009 21047 39861 40339 52005;
0101067120999992000012105004+46330+006920FM-12+038199999V0202001N001519999999N9999999N1-00451-00521103261ADDMA1999999098391MD1510051+9999REMSYN060AAXX  21054 06712 46/// /2003 11045 21052 39839 40326 55005;
0101067120999992000012202004+46330+006920FM-12+038199999V0201701N003619999999N9999999N1-00231-00461102761ADDMA1999999097951MD1710111+9999REMSYN060AAXX  22024 06712 46/// /1707 11023 21046 39795 40276 57011;
0101067120999992000012821004+46330+006920FM-12+038199999V0201801N001519999999N9999999N1-00361-00631102781ADDMA1999999097941MD1710021+9999REMSYN060AAXX  28214 06712 46/// /1803 11036 21063 39794 40278 57002;
0101067120999992000013123004+46330+006920FM-12+038199999V0201501N001519999999N9999999N1+00481+00271103051ADDMA1999999098351MD1710021+9999REMSYN060AAXX  31234 06712 46/// /1503 10048 20027 39835 40305 57002;
0160067120999992000020106004+46330+006920FM-12+038199999V0203501N003119999999N9999999N1+00241+00241102931ADDAA199000091KA1120N+00041MA1999999098191MD1510021+9999REMSYN076AAXX  01064 06712 36/// /3506 10024 20024 39819 40293 55002 333 20004 55040;EQDQ01  00002PRCP99
0101067120999992000021022004+46330+006920FM-12+038199999V0203501N001519999999N9999999N1+00561-00051102521ADDMA1999999097861MD1510021+9999REMSYN060AAXX  10224 06712 46/// /3503 10056 21005 39786 40252 55002;
0191067120999992000021109004+46330+006920FM-12+038199999V0202001N000510117019N0032001N1+00431+00381102721ADDAW1631AZ161031GA1081+011709069GF108991999999012501999999IA2999-00409MA1999999098021MD1210121+9999REMSYN082AAXX  11094 06712 44632 82001 10043 20038 39802 40272 52012 76366 333 3/104 88739;
0101067120999992000021414004+46330+006920FM-12+038199999V0203301N001019999999N9999999N1+00731+00391102611ADDMA1999999097971MD1710101+9999REMSYN060AAXX  14144 06712 46/// /3302 10073 20039 39797 40261 57010;
0123067120999992000021509004+46330+006920FM-12+038199999V0209999C000019999999N9999999N1+00571+00421102561ADDIA2999-00109MA1999999097901MD1210041+9999REMSYN070AAXX  15094 06712 46/// /0000 10057 20042 39790 40256 52004 333 3/101;
0087067120999992000021902004+46330+006920FM-12+038199999V0202701N001519999999N9999999N1+00511+00411101151ADDMA1999999096541REMSYN060AAXX  19024 06712 46/// /2703 10051 20041 39654 40115 5////;
0160067120999992000022606004+46330+006920FM-12+038199999V0209999C000019999999N9999999N1+00311+00231103231ADDAA199000091KA1120N+00121MA1999999098491MD1210011+9999REMSYN076AAXX  26064 06712 36/// /0000 10031 20023 39849 40323 52001 333 20012 55023;EQDQ01  00002PRCP99
0101067120999992000022702004+46330+006920FM-12+038199999V0209999C000019999999N9999999N1+00121+00061103211ADDMA1999999098441MD1210031+9999REMSYN060AAXX  27024 06712 46/// /0000 10012 20006 39844 40321 52003;
0101067120999992000022720004+46330+006920FM-12+038199999V0201801N002619999999N9999999N1+00571+00141102841ADDMA1999999098161MD1010011+9999REMSYN060AAXX  27204 06712 46/// /1805 10057 20014 39816 40284 50001;
0101067120999992000031001004+46330+006920FM-12+038199999V0203501N000519999999N9999999N1+00771+00411102961ADDMA1999999098311MD1510021+9999REMSYN060AAXX  10014 06712 46/// /3501 10077 20041 39831 40296 55002;
0101067120999992000031417004+46330+006920FM-12+038199999V0200101N002619999999N9999999N1+01261+00301102381ADDMA1999999097841MD1510061+9999REMSYN060AAXX  14174 06712 46/// /0105 10126 20030 39784 40238 55006;
0249067120999992000031918004+46330+006920FM-12+038199999V0203301N006712200019N0150001N1+01011+00271102311ADDAA199000091AJ100009199999999GA1011+018009089GF101991999999017501999999IA1019KA1120M+01371MA1999999097731MD1710071+9999REMSYN100AAXX  19184 06712 35765 13313 10101 20027 39773 40231 57007 333 10137 30/// 4/000 81856 90766 91125;EQDQ01  00002PRCP99
0143067120999992000032215004+46330+006920FM-12+038199999V0203501N001512200019N0250001N1+01451+00111101741ADDGA1001+999999999GF100991001001999999001001MA1999999097261MD1710191+9999REMSYN060AAXX  22154 06712 45/75 03503 10145 20011 39726 40174 57019;
0101067120999992000032610004+46330+006920FM-12+038199999V0203301N003619999999N9999999N1+00781+00611101551ADDMA1999999096971MD1710061+9999REMSYN060AAXX  26104 06712 46/// /3307 10078 20061 39697 40155 57006;
0101067120999992000032820004+46330+006920FM-12+038199999V0202201N000519999999N9999999N1+00701+00341100701ADDMA1999999096141MD1010031+9999REMSYN060AAXX  28204 06712 46/// /2201 10070 20034 39614 40070 50003;
0101067120999992000040502004+46330+006920FM-12+038199999V0202601N000519999999N9999999N1+00761+00681099921ADDMA1999999095411MD1210011+9999REMSYN060AAXX  05024 06712 46/// /2601 10076 20068 39541 49992 52001;
0131067120999992000040800004+46330+006920FM-12+038199999V0201701N000519999999N9999999N1+00281+00191102741ADDAA199000091MA1999999098021MD1210031+9999REMSYN060AAXX  08004 06712 36/// /1701 10028 20019 39802 40274 52003;EQDQ01  00002PRCP99
0101067120999992000041220004+46330+006920FM-12+038199999V0202201N003619999999N9999999N1+00771+00421100041ADDMA1999999095521MD1010081+9999REMSYN060AAXX  12204 06712 46/// /2207 10077 20042 39552 40004 50008;
0101067120999992000041608004+46330+006920FM-12+038199999V0203401N004619999999N9999999N1+00851+00301100391ADDMA1999999095871MD1310011+9999REMSYN060AAXX  16084 06712 46/// /3409 10085 20030 39587 40039 53001;
0101067120999992000041722004+46330+006920FM-12+038199999V0200101N001519999999N9999999N1+00771+00561101351ADDMA1999999096771MD1210081+9999REMSYN060AAXX  17224 06712 46/// /0103 10077 20056 39677 40135 52008;
0101067120999992000041811004+46330+006920FM-12+038199999V0203601N001019999999N9999999N1+01041+00591101111ADDMA1999999096591MD1710121+9999REMSYN060AAXX  18114 06712 46/// /3602 10104 20059 39659 40111 57012;
0214067120999992000042006004+46330+006920FM-12+038199999V0201601N001512200019N0200001N1+00461+00341101721ADDAA199000091GA1001+999999999GF100991001001999999001001IA1019KA1120N+00431MA1999999097081MD1210061+9999REMSYN082AAXX  20064 06712 35/70 01603 10046 20034 39708 40172 52006 333 20043 30/// 55076;EQDQ01  00002PRCP99
0101067120999992000050302004+46330+006920FM-12+038199999V0201801N001519999999N9999999N1+01141+01001101741ADDMA1999999097211MD1010061+9999REMSYN060AAXX  03024 06712 46/// /1803 10114 20100 39721 40174 50006;
0181067120999992000051115004+46330+006920FM-12+038199999V0203201N002610780019N0150001N1+02311+01051101261ADDGA1021+027009089GA2051+078009049GF108991999999999999999999MA1999999096931MD1710081+9999REMSYN082AAXX  11154 06712 45965 83205 10231 20105 39693 40126 57008 333 82859 85476 91122;
0101067120999992000051416004+46330+006920FM-12+038199999V0203401N004119999999N9999999N1+02261+01281101841ADDMA1999999097481MD1710091+9999REMSYN060AAXX  14164 06712 46/// /3408 10226 20128 39748 40184 57009;
0101067120999992000052113004+46330+006920FM-12+038199999V0203101N004619999999N9999999N1+01941+00691100881ADDMA1999999096511MD1710141+9999REMSYN060AAXX  21134 06712 46/// /3109 10194 20069 39651 40088 57014;
0101067120999992000052202004+46330+006920FM-12+038199999V0201701N001519999999N9999999N1+01081+00961101651ADDMA1999999097111MD1110191+9999REMSYN060AAXX  22024 06712 46/// /1703 10108 20096 39711 40165 51019;
0101067120999992000052319004+46330+006920FM-12+038199999V0202501N001519999999N9999999N1+01761+00831101731ADDMA1999999097301MD1210051+9999REMSYN060AAXX  23194 06712 46/// /2503 10176 20083 39730 40173 52005;
0101067120999992000052607004+46330+006920FM-12+038199999V0203601N002119999999N9999999N1+01731+01251101581ADDMA1999999097151MD1710081+9999REMSYN060AAXX  26074 06712 46/// /3604 10173 20125 39715 40158 57008;
0143067120999992000060115004+46330+006920FM-12+038199999V0203201N002612200019N0300001N1+02291+01131102131ADDGA1001+999999999GF100991001001999999001001MA1999999097761MD1710101+9999REMSYN060AAXX  01154 06712 45/80 03205 10229 20113 39776 40213 57010;
0101067120999992000060116004+46330+006920FM-12+038199999V0203301N002619999999N9999999N1+02201+01151102111ADDMA1999999097731MD1710111+9999REMSYN060AAXX  01164 06712 46/// /3305 10220 20115 39773 40211 57011;
0153067120999992000061503004+46320+006920FM-12+038199999V0202601N001012200019N0220001N1+01471+01391102421ADDGA1021+033009079GF102991999999999999999999MA1999999097911MD1710061+9999REMSYN070AAXX  15034 06712 46972 22602 10147 20139 39791 40242 57006 333 82361;
0183067120999992000061812004+46320+006920FM-12+038199999V0203501N003112200019N0150001N1+02341+01241102501ADDAA199000091GA1021+024009029GF102991999999022501999999MA1999999098121MD1710141+9999REMSYN070AAXX  18124 06712 35865 23506 10234 20124 39812 40250 57014 333 82858;EQDQ01  00002PRCP99
0131067120999992000061900004+46320+006920FM-12+038199999V0200801N000519999999N9999999N1+01571+01471102451ADDAA199000091MA1999999097951MD1210031+9999REMSYN060AAXX  19004 06712 36/// /0801 10157 20147 39795 40245 52003;EQDQ01  00002PRCP99
0101067120999992000070208004+46320+006920FM-12+038199999V0203401N003119999999N9999999N1+02311+01511101211ADDMA1999999096881MD1710051+9999REMSYN060AAXX  02084 06712 46/// /3406 10231 20151 39688 40121 57005;
0128067120999992000070800004+46320+006920FM-12+038199999V0201401N001519999999N9999999N1+01641+01561101331ADDAA106006191MA1999999096891MD1010041+9999REMSYN076AAXX  08004 06712 16/// /1403 10164 20156 39689 40133 50004 60061 333 91133;
0101067120999992000071007004+46320+006920FM-12+038199999V0201601N005719999999N9999999N1+01531+01301100131ADDMA1999999095731MD1710061+9999REMSYN060AAXX  10074 06712 46/// /1611 10153 20130 39573 40013 57006;
0196067120999992000071112004+46320+006920FM-12+038199999V0203001N003110105019N0220001N1+01361+00841100521ADDAA106002091AW1611AZ161061GA1081+010509079GF108991999999012501999999MA1999999096081MD1010111+9999REMSYN088AAXX  11124 06712 14672 83006 10136 20084 39608 40052 50011 60021 76166 333 88735 91120;
0101067120999992000071213004+46320+006920FM-12+038199999V0200101N005719999999N9999999N1+01681+00961101601ADDMA1999999097161MD1210061+9999REMSYN060AAXX  12134 06712 46/// /0111 10168 20096 39716 40160 52006;
0101067120999992000071401004+46320+006920FM-12+038199999V0209999C000019999999N9999999N1+01281+01241101631ADDMA1999999097121MD1710141+9999REMSYN060AAXX  14014 06712 46/// /0000 10128 20124 39712 40163 57014;
0153067120999992000072015004+46320+006920FM-12+038199999V0200201N005112200019N0150001N1+02401+01381101611ADDGA1021+015009059GF102991999999017501999999MA1999999097281MD1710071+9999REMSYN070AAXX  20154 06712 45765 20210 10240 20138 39728 40161 57007 333 82650;
0204067120999992000080209004+46320+006920FM-12+038199999V0202001N001510360019N0060001N1+02041+01581102021ADDAZ181031GA1071+036009079GF107991999999999999999999IA2999+01209MA1999999097621MD1010201+9999REMSYN082AAXX  02094 06712 44956 72003 10204 20158 39762 40202 50020 72581 333 3/012 87362;EQDQ01    252PRSWA1
0101067120999992000080217004+46320+006920FM-12+038199999V0203201N001519999999N9999999N1+02051+01801101991ADDMA1999999097591MD1510031+9999REMSYN060AAXX  02174 06712 46/// /3203 10205 20180 39759 40199 55003;
0101067120999992000080221004+46320+006920FM-12+038199999V0209999C000019999999N9999999N1+01881+01801102101ADDMA1999999097671MD1010041+9999REMSYN060AAXX  02214 06712 46/// /0000 10188 20180 39767 40210 50004;
0101067120999992000080223004+46320+006920FM-12+038199999V0209999C000019999999N9999999N1+01821+01781102101ADDMA1999999097661MD1710031+9999REMSYN060AAXX  02234 06712 46/// /0000 10182 20178 39766 40210 57003;
0101067120999992000080417004+46320+006920FM-12+038199999V0203401N003119999999N9999999N1+02051+01041101681ADDMA1999999097291MD1710131+9999REMSYN060AAXX  04174 06712 46/// /3406 10205 20104 39729 40168 57013;
0141067120999992000080518004+46320+006920FM-12+038199999V0203401N003119999999N9999999N1+01751+01171101811ADDAA112000591KA1999M+01841MA1999999097371MD1210031+9999REMSYN076AAXX  05184 06712 16/// /3406 10175 20117 39737 40181 52003 69942 333 10184;
0101067120999992000080711004+46320+006920FM-12+038199999V0203301N002619999999N9999999N1+02071+01391102081ADDMA1999999097681MD1710091+9999REMSYN060AAXX  07114 06712 46/// /3305 10207 20139 39768 40208 57009;
0101067120999992000080808004+46320+006920FM-12+038199999V0201601N001519999999N9999999N1+01871+01331102141ADDMA1999999097701MD1410001+9999REMSYN060AAXX  08084 06712 46/// /1603 10187 20133 39770 40214 54000;
0165067120999992000080809004+46320+006920FM-12+038199999V0200101N001512200019N0100001N1+02071+01411102111ADDGA1001+999999999GF100991001001999999001001IA2999+00909MA1999999097711MD1210011+9999REMSYN070AAXX  08094 06712 45/60 00103 10207 20141 39771 40211 52001 333 3/009;
0165067120999992000081209004+46320+006920FM-12+038199999V0209999C000012200019N0200001N1+02341+01381101361ADDGA1001+999999999GF100991001001999999001001IA2999+01109MA1999999097031MD1710011+9999REMSYN070AAXX  12094 06712 45/70 00000 10234 20138 39703 40136 57001 333 3/011;
0101067120999992000081402004+46320+006920FM-12+038199999V0202201N001519999999N9999999N1+01711+01351102061ADDMA1999999097601MD1210041+9999REMSYN060AAXX  14024 06712 46/// /2203 10171 20135 39760 40206 52004;
0101067120999992000081607004+46320+006920FM-12+038199999V0202001N001519999999N9999999N1+01981+01661101981ADDMA1999999097571MD1210091+9999REMSYN060AAXX  16074 06712 46/// /2003 10198 20166 39757 40198 52009;
0101067120999992000082310004+46320+006920FM-12+038199999V0203501N002619999999N9999999N1+02201+01351101861ADDMA1999999097491MD1410001+9999REMSYN060AAXX  23104 06712 46/// /3505 10220 20135 39749 40186 54000;
0101067120999992000082323004+46320+006920FM-12+038199999V0209999C000019999999N9999999N1+01481+01401102121ADDMA1999999097621MD1210111+9999REMSYN060AAXX  23234 06712 46/// /0000 10148 20140 39762 40212 52011;
0101067120999992000082511004+46320+006920FM-12+038199999V0203601N002119999999N9999999N1+02531+01481101871ADDMA1999999097551MD1710141+9999REMSYN060AAXX  25114 06712 46/// /3604 10253 20148 39755 40187 57014;
0101067120999992000082623004+46320+006920FM-12+038199999V0203601N003619999999N9999999N1+02311+01521101071ADDMA1999999096751MD1310231+9999REMSYN060AAXX  26234 06712 46/// /3607 10231 20152 39675 40107 53023;
0101067120999992000082722004+46320+006920FM-12+038199999V0209999C000019999999N9999999N1+01461+01371102161ADDMA1999999097661MD1210081+9999REMSYN060AAXX  27224 06712 46/// /0000 10146 20137 39766 40216 52008;
0228067120999992000082906004+46320+006920FM-12+038199999V0209999C000012200019N0200001N1+01191+01081102171ADDAA199000091GA1011+090009019GF101991999999999999999999GJ106129IA1019KA1120N+01061MA1999999097631MD1210081+9999REMSYN088AAXX  29064 06712 35970 10000 10119 20108 39763 40217 52008 333 20106 30/// 55102 81080;EQDQ01  00002PRCP99
0101067120999992000082908004+46320+006920FM-12+038199999V0202601N000519999999N9999999N1+01631+01261102121ADDMA1999999097651MD1210091+9999REMSYN060AAXX  29084 06712 46/// /2601 10163 20126 39765 40212 52009;
0140067120999992000082909004+46320+006920FM-12+038199999V0202001N000519999999N0200001N1+01831+01121102041ADDGF105991999999999999999999IA2999+00609MA1999999097601REMSYN075AAXX  29094 06712 45970 52001 10183 20112 39760 40204 5703 333 3/006 85080;
0101067120999992000083011004+46320+006920FM-12+038199999V0203001N001019999999N9999999N1+01671+01481101571ADDMA1999999097131MD1810091+9999REMSYN060AAXX  30114 06712 46/// /3002 10167 20148 39713 40157 58009;
0173067120999992000090315004+46320+006920FM-12+038199999V0203401N001510240019N0032001N1+01561+01261101591ADDAW1021AZ161031GA1081+024009079GF108991999999022501999999MA1999999097131MD1710061+9999REMSYN076AAXX  03154 06712 44832 83403 10156 20126 39713 40159 57006 70262 333 88358;
0101067120999992000091110004+46320+006920FM-12+038199999V0203501N002619999999N9999999N1+02131+01661101651ADDMA1999999097281MD1710041+9999REMSYN060AAXX  11104 06712 46/// /3505 10213 20166 39728 40165 57004;
0228067120999992000091406004+46320+006920FM-12+038199999V0202301N000510810019N0200001N1+01261+01171101751ADDAA199000091GA1061+081009099GF106991999999999999999999GJ104989IA1019KA1120N+01211MA1999999097241MD1210041+9999REMSYN088AAXX  14064 06712 35970 62301 10126 20117 39724 40175 52004 333 20121 30/// 55083 86177;EQDQ01  00002PRCP99
0101067120999992000091705004+46320+006920FM-12+038199999V0209999C000019999999N9999999N1+00761+00721101621ADDMA1999999097031MD1710051+9999REMSYN060AAXX  17054 06712 46/// /0000 10076 20072 39703 40162 57005;
0101067120999992000092319004+46320+006920FM-12+038199999V0209999C000019999999N9999999N1+01291+01241101891ADDMA1999999097371MD1310071+9999REMSYN060AAXX  23194 06712 46/// /0000 10129 20124 39737 40189 53007;
0165067120999992000092409004+46320+006920FM-12+038199999V0203501N001012200019N0200001N1+01691+01221102011ADDGA1001+999999999GF100991001001999999001001IA2999+00409MA1999999097551MD1210081+9999REMSYN070AAXX  24094 06712 45/70 03502 10169 20122 39755 40201 52008 333 3/004;
0101067120999992000100119004+46320+006920FM-12+038199999V0203601N002119999999N9999999N1+01381+01221100771ADDMA1999999096321MD1210111+9999REMSYN060AAXX  01194 06712 46/// /3604 10138 20122 39632 40077 52011;
0068067120999992000100205004+46320+006920FM-12+038199999V0202901N000519999999N9999999N1+01211+01171999999REMSYN059AAXX  02054 06712 46/// /2901 10121 20117 3963 40080 55003;
0101067120999992000100207004+46320+006920FM-12+038199999V0200201N000519999999N9999999N1+01241+01181100861ADDMA1999999096381MD1210071+9999REMSYN060AAXX  02074 06712 46/// /0201 10124 20118 39638 40086 52007;
0118067120999992000100600004+46320+006920FM-12+038199999V0200801N000519999999N9999999N1+01231+01191102051ADDAA106003091MA1999999097521MD1410001+9999REMSYN066AAXX  06004 06712 16/// /0801 10123 20119 39752 40205 54000 60031;
0173067120999992000100903004+46320+006920FM-12+038199999V0200601N001510210019N0150001N1+00901+00691101791ADDAW1031AZ161031GA1081+021009079GF108991999999022501999999MA1999999097221MD1710161+9999REMSYN076AAXX  09034 06712 44865 80603 10090 20069 39722 40179 57016 70361 333 88357;
0183067120999992000101212004+46320+006920FM-12+038199999V0202701N000510360019N0100001N1+01351+00921100101ADDAA199000091GA1081+036009019GF108991999999999999999999MA1999999095671MD1010091+9999REMSYN070AAXX  12124 06712 35960 82701 10135 20092 39567 40010 50009 333 88462;EQDQ01  00002PRCP99
0163067120999992000102203004+46320+006920FM-12+038199999V0202301N001012200019N0100001N1+00561+00531103091ADDAW1051AZ101031GA1001+999999999GF100991001001999999001001MA1999999098401MD1010041+9999REMSYN066AAXX  22034 06712 44/60 02302 10056 20053 39840 40309 50004 70500;
0101067120999992000102213004+46320+006920FM-12+038199999V0203401N003119999999N9999999N1+01491+01021102881ADDMA1999999098351MD1710191+9999REMSYN060AAXX  22134 06712 46/// /3406 10149 20102 39835 40288 57019;
0101067120999992000102913004+46320+006920FM-12+038199999V0202901N001519999999N9999999N1+01131+01041102211ADDMA1999999097651MD1110041+9999REMSYN060AAXX  29134 06712 46/// /2903 10113 20104 39765 40221 51004;
0147067120999992000110406004+46320+006920FM-12+038199999V0202801N000519999999N9999999N1+00611+00571101261ADDAA112001091KA1120N+00611MA1999999096661MD1210111+9999REMSYN082AAXX  04064 06712 16/// /2801 10061 20057 39666 40126 52011 60012 333 20061 55003;
0101067120999992000110601004+46320+006920FM-12+038199999V0201601N012319999999N9999999N1+01411-00171099411ADDMA1999999095021MD1710481+9999REMSYN060AAXX  06014 06712 46/// /1624 10141 21017 39502 49941 57048;
0143067120999992000111115004+46320+006920FM-12+038199999V0203401N003612200019N0200001N1+00771+00201102321ADDGA1001+999999999GF100991001001999999001001MA1999999097701MD1710221+9999REMSYN060AAXX  11154 06712 45/70 03407 10077 20020 39770 40232 57022;
0101067120999992000111214004+46320+006920FM-12+038199999V0201201N010319999999N9999999N1+01591+00121100821ADDMA1999999096401MD1710351+9999REMSYN060AAXX  12144 06712 46/// /1220 10159 20012 39640 40082 57035;
0159067120999992000111303004+46320+006920FM-12+038199999V0201401N006212200019N0150001N1+01381+00061100421ADDGA1041+021009039GF104991999999022501999999MA1999999095981MD1710061+9999REMSYN076AAXX  13034 06712 45865 41412 10138 20006 39598 40042 57006 333 84357 91133;
0101067120999992000111310004+46320+006920FM-12+038199999V0201201N006719999999N9999999N1+01711+00231100251ADDMA1999999095871MD1010001+9999REMSYN060AAXX  13104 06712 46/// /1213 10171 20023 39587 40025 50000;
0101067120999992000111911004+46320+006920FM-12+038199999V0201401N003119999999N9999999N1+00521-00231101061ADDMA1999999096461MD1710231+9999REMSYN060AAXX  19114 06712 46/// /1406 10052 21023 39646 40106 57023;
0101067120999992000113020004+46320+006920FM-12+038199999V0201501N001019999999N9999999N1+00261+00261102151ADDMA1999999097451MD1010021+9999REMSYN060AAXX  30204 06712 46/// /1502 10026 20026 39745 40215 50002;
0101067120999992000120102004+46320+006920FM-12+038199999V0201201N002119999999N9999999N1+00161+00161102101ADDMA1999999097391MD1710031+9999REMSYN060AAXX  01024 06712 46/// /1204 10016 20016 39739 40210 57003;
0131067120999992000120500004+46320+006920FM-12+038199999V0202101N000519999999N9999999N1+00571+00491102341ADDAA199000091MA1999999097691MD1010001+9999REMSYN060AAXX  05004 06712 36/// /2101 10057 20049 39769 40234 50000;EQDQ01  00002PRCP99
0101067120999992000122011004+46320+006920FM-12+038199999V0203201N001519999999N9999999N1+00631+00311101961ADDMA1999999097331MD1010011+9999REMSYN060AAXX  20114 06712 46/// /3203 10063 20031 39733 40196 50001;
0131067120999992000123000004+46320+006920FM-12+038199999V0202001N002619999999N9999999N1+00041-00141100341ADDAA199000091MA1999999095691MD1710191+9999REMSYN060AAXX  30004 06712 36/// /2005 10004 21014 39569 40034 57019;EQDQ01  00002PRCP99
0167067120999992000123112004+46320+006920FM-12+038199999V0201701N003612200019N0200001N1+00261-00561101941ADDAA199000091GF100991001001999999001001MA1999999097251MD1810031+9999REMSYN070AAXX  31124 06712 35/70 01707 10026 21056 39725 40194 58003 333 8020/;EQDQ01  00002PRCP99
0101067200999992000010214004+46220+007330FM-12+0481LSGS V0209999C000019999999N9999999N1+00041-00321103141ADDMA1999999097171MD1610141+9999REMSYN060AAXX  02144 06720 46/// /0000 10004 21032 39717 40314 56014;
0092067200999992000010412504+46220+007330FM-15+0481LSGS V0200701N00051220001CN0099001N1+00001-00501999999ADDMA1102511999999MW1001REMMET040LSGS 041250Z 07001KT CAVOK 00/M05 Q1025;EQDQ01+000000PRSWM2
0105067200999992000011517004+46220+007330FM-12+048199999V0202601N001019999999N9999999N1-00091-00361102861ADDMA1999999096881MD1210161+9999REMSYN064    AAXX  15174 06720 46/// /2602 11009 21036 39688 40286 52016;
0141067200999992000011711504+46220+007330FM-15+0481LSGS V0202301N000512200019N0045001N1-00201-00601999999ADDGA1021+006009999GF102991999999999999999999MA1102911999999MW1001REMMET047LSGS 171150Z 23001KT 4500 FEW020 M02/M06 Q1029;EQDQ01+000000PRSWM2
0147067200999992000011821004+46220+007330FM-12+048199999V0200901N002112200019N0200001N1+00041-00121102411ADDGA1001+999999999GF100991001001999999001001MA1999999096491MD1210161+9999REMSYN064    AAXX  18214 06720 45970 00904 10004 21012 39649 40241 52016;
0101067200999992000012002004+46220+007330FM-12+0481LSGS V0200501N002619999999N9999999N1-00191-00591103211ADDMA1999999097191MD1210031+9999REMSYN060AAXX  20024 06720 46/// /0505 11019 21059 39719 40321 52003;
0141067200999992000012107504+46220+007330FM-15+0481LSGS V0202001N000510150019N0090001N1-00401-00601999999ADDGA1071+015009999GF107991999999999999999999MA1102911999999MW1001REMMET047LSGS 210750Z 20001KT 9000 BKN050 M04/M06 Q1029;EQDQ01+000000PRSWM2
0140067200999992000012815504+46220+007330FM-15+0481LSGS V0209999C000012200019N0112651N1+00101-00901999999ADDGA1021+027009999GF104991999999999999999999MA1102401999999MW1001REMMET046LSGS 281550Z 00000KT 9999 SCT090 01/M09 Q1024;EQDQ01+000000PRSWM2
0257067200999992000012906004+46220+007330FM-12+0481LSGS V0200601N003110240019N0150001N1-00341-00771102501ADDAA199000091AJ100079199999999GA1081+024009049GF108991081001999999021999GJ102709IA1279KA1120N-00621MA1999999096491MD1810101+9999REMSYN100AAXX  29064 06720 35965 80606 11034 21077 39649 40250 58010 8802/ 333 21062 43007 55045 88458 90768;EQDQ01  00002PRCP99
0179067200999992000013003004+46220+007330FM-12+0481LSGS V0202101N000510060019N0030001N1+00131+00131102211ADDAW1611AZ161031GA1081+006009029GF108991081001004501021999MA1999999096321MD1710041+9999REMSYN082AAXX  30034 06720 44430 82101 10013 20013 39632 40221 57004 76166 8802/ 333 88520;
0162067200999992000020209504+46220+007330FM-15+0481LSGS V0200901N001010180019N0112651N1+00301+00101999999ADDGA1071+018009999GA2081+024009999GF108991999999999999999999MA1102101999999MW1001REMMET052LSGS 020950Z 09002KT 9999 BKN060 OVC080 03/01 Q1021;EQDQ01+000000PRSWM2
0101067200999992000020502004+46220+007330FM-12+0481LSGS V0200801N001519999999N9999999N1-00121-00341104091ADDMA1999999098031MD1710061+9999REMSYN060AAXX  05024 06720 46/// /0803 11012 21034 39803 40409 57006;
0101067200999992000020816004+46220+007330FM-12+0481LSGS V0201501N001019999999N9999999N1+00621+00621102021ADDMA1999999096241MD1710011+9999REMSYN060AAXX  08164 06720 46/// /1502 10062 20062 39624 40202 57001;
0101067200999992000021004004+46220+007330FM-12+0481LSGS V0202001N001519999999N9999999N1-00151-00311103301ADDMA1999999097281MD1710091+9999REMSYN060AAXX  10044 06720 46/// /2003 11015 21031 39728 40330 57009;
0185067200999992000021215004+46220+007330FM-12+0481LSGS V0202601N00411036001CN0100001N1+00561+00101102701ADDAW1101AZ121031GA1021+009009079GF107991021071008001071999MA1999999096871MD1710051+9999REMSYN088AAXX  12154 06720 44560 72608 10056 20010 39687 40270 57005 71022 8277/ 333 82730 87358;
0139067200999992000022907504+46220+007330FM-15+0481LSGS V0200801N002610240019N0112651N1+00801+00001999999ADDGA1071+024009999GF107991999999999999999999MA1102201999999MW1001REMMET045LSGS 290750Z 08005KT 9999 BKN080 08/00 Q1022;EQDQ01+000000PRSWM2
0230067200999992000030718004+46220+007330FM-12+0481LSGS V0209999C000012200019N0250001N1+00881+00091102741ADDAA199000091AJ100009199999999GA1031+042009039GF103991031001999999041001IA1019MA1999999096971MD1210051+9999REMSYN094AAXX  07184 06720 35975 30000 10088 20009 39697 40274 52005 83040 333 30/// 4/000 83364 90766;EQDQ01  00002PRCP99
0101067200999992000030814004+46220+007330FM-12+0481LSGS V0202401N003619999999N9999999N1+01481-00111102851ADDMA1999999097201MD1710211+9999REMSYN060AAXX  08144 06720 46/// /2407 10148 21011 39720 40285 57021;
0165067200999992000031219004+46220+007330FM-12+0481LSGS V0202501N000510600019N0200001N1+01141+00491102011ADDGA1061+060009009GF106991001001999999001021MA1999999096341MD1210201+9999REMSYN082AAXX  12194 06720 45970 62501 10114 20049 39634 40201 52020 80002 333 86070 90766;
0123067200999992000032309004+46220+007330FM-12+0481LSGS V0200801N001519999999N9999999N1+01011-00091101741ADDIA2999-00209MA1999999096061MD1710041+9999REMSYN070AAXX  23094 06720 46/// /0803 10101 21009 39606 40174 57004 333 3/102;
0101067200999992000032322004+46220+007330FM-12+0481LSGS V0200801N002619999999N9999999N1+00821+00231101351ADDMA1999999095651MD1710031+9999REMSYN060AAXX  23224 06720 46/// /0805 10082 20023 39565 40135 57003;
0101067200999992000032411004+46220+007330FM-12+0481LSGS V0202501N007719999999N9999999N1+01311+00531101221ADDMA1999999095631MD1410001+9999REMSYN060AAXX  24114 06720 46/// /2515 10131 20053 39563 40122 54000;
0101067200999992000033022004+46220+007330FM-12+0481LSGS V0209999C000019999999N9999999N1+00301-00371101581ADDMA1999999095761MD1210081+9999REMSYN060AAXX  30224 06720 46/// /0000 10030 21037 39576 40158 52008;
0101067200999992000033104004+46220+007330FM-12+0481LSGS V0200701N002619999999N9999999N1+00011-00401101541ADDMA1999999095661MD1710091+9999REMSYN060AAXX  31044 06720 46/// /0705 10001 21040 39566 40154 57009;
0179067200999992000040703004+46220+007330FM-12+0481LSGS V0202501N002110150019N0100001N1+00491+00071102481ADDAW1101AZ121031GA1081+015009069GF108991081061012501999999MA1999999096651MD1010061+9999REMSYN082AAXX  07034 06720 44660 82504 10049 20007 39665 40248 50006 71022 886// 333 88750;
0205067200999992000041309504+46220+007330FM-15+0481LSGS V0202601N000510240019N0112651N1+00601+00401999999ADDGA1021+003009999GA2021+012009999GA3081+024009999GF108991999999999999999999MA1100411999999MW1611REMMET063LSGS 130950Z 26001KT 9999 -RA FEW010 SCT040 OVC080 06/04 Q1004;EQDQ01+000003PRSWM1Q02    003PRSWM1
0101067200999992000041316004+46220+007330FM-12+0481LSGS V0200601N002119999999N9999999N1+01121+00661100191ADDMA1999999094621MD1710161+9999REMSYN060AAXX  13164 06720 46/// /0604 10112 20066 39462 40019 57016;
