0324703894253672000092215533+55583+133083FM-15+0004PAKW V0209995C00005012805MN0160005N1+00675+00615102265ADDGD14995+0128059GF108991999999999999999999MA1102275999999MW1001REMMET080PAKW 221553Z AUTO 00000KT 10SM OVC042 07/06 A3020 RMK AO2 SLP226 T00670061 TSNO;EQDQ01+000000PRSWM2N01 00000JPWTH 0QNNAA1D0 06042BA1 0 06042GA1 0 00042KA1D0 00043JA1 0 00061LA1 0 01000CA1 0 03020NA1 0 00000QA1 0 10226SA1D0 00044RA1 0 00067YA1 0 00000
0438703894253672000092915533+55583+133083FM-15+0004PAKW V0209995V00215009145MN0160005N1+00895+00725100081ADDAA101000391GD11995+0061059GD23995+0091459GD34995+0106759GF108991999999999999999999MA1100105999999MW1615REMMET104PAKW 291553Z AUTO VRB04KT 10SM -RA FEW020 BKN030 OVC035 09/07 A2956 RMK AO2 SLP008 P0001 T00890072 TSNO;EQDQ01+000003PRSWM1Q02    003PRSWM1N01 00020JPWTH 0QNNAA1D0 02020BA1 0 01020AA1D0 04030BA1 0 04030AA1D0 06035BA1 0 06035GA1 0 00030KA1D0 00045JA1 0 00072LA1 0 01000CA1 0 02956NA1 0 00020SA1D0 00048RA1 0 00089YA1 0 00004
0405703894253672000100513533+55583+133083FM-15+0004PAKW V0209995C00005004275MN0160005N1+00945+00835102025ADDAA101000391GD13995+0042759GD24995+0082359GF108991999999999999999999MA1102035999999MW1615REMMET097PAKW 051353Z AUTO 00000KT 10SM -RA BKN014 OVC027 09/08 A3013 RMK AO2 SLP202 P0001 T00940083 TSNO;EQDQ01+000003PRSWM1Q02    003PRSWM1N01 00020JPWTH 0QNNAA1D0 04014BA1 0 04014AA1D0 06027BA1 0 06027GA1 0 00014KA1D0 00047JA1 0 00083LA1 0 01000CA1 0 03013NA1 0 00020QA1 0 10202SA1D0 00049RA1 0 00094YA1 0 00000
0404703894253672000100601533+55583+133083FM-15+0004PAKW V0209995V00215018295MN0112005N1+01115+00835101605ADDAA101001091GD13995+0182959GD24995+0259159GF108991999999999999999999MA1101595999999MW1615REMMET096PAKW 060153Z AUTO VRB04KT 7SM -RA BKN060 OVC085 11/08 A3000 RMK AO2 SLP160 P0004 T01110083 TSNO;EQDQ01+000003PRSWM1Q02    003PRSWM1N01 00020JPWTH 0QNNAA1D0 04060BA1 0 04060AA1D0 06085BA1 0 06085GA1 0 00060KA1D0 00047JA1 0 00083LA1 0 00700CA1 0 03000NA1 0 00020QA1 0 10160SA1D0 00052RA1 0 00111YA1 0 00004
0368703894253672000100806533+55583+133083FM-15+0004PAKW V0201705N00215021345MN0160005N1+00835+00615100735ADDGD11995+0100659GD23995+0213459GF107991999999999999999999MA1100755999999MW1001REMMET087PAKW 080653Z AUTO 17004KT 10SM FEW033 BKN070 08/06 A2975 RMK AO2 SLP073 T00830061 TSNO;EQDQ01+000000PRSWM2N01 00000JPWTH 0QNNAA1D0 02033BA1 0 01033AA1D0 04070BA1 0 04070GA1 0 00070KA1D0 00043JA1 0 00061LA1 0 01000CA1 0 02975NA1 0 00000QA1 0 10073SA1D0 00047RA1 0 00083YA1 0 17004
0368703894253672000101803533+55583+133083FM-15+0004PAKW V0209995V00215028965MN0160005N1+00895+00675099385ADDGD13995+0289659GD24995+0335359GF108991999999999999999999MA1099395999999MW1001REMMET087PAKW 180353Z AUTO VRB04KT 10SM BKN095 OVC110 09/07 A2935 RMK AO2 SLP938 T00890067 TSNO;EQDQ01+000000PRSWM2N01 00000JPWTH 0QNNAA1D0 04095BA1 0 04095AA1D0 06110BA1 0 06110GA1 0 00095KA1D0 00044JA1 0 00067LA1 0 01000CA1 0 02935NA1 0 00000QA1 0 09938SA1D0 00048RA1 0 00089YA1 0 00004
0458703894253672000102307533+55583+133083FM-15+0004PAKW V0209995V00215013725MN0160005N1+00945+00615100885ADDAA101000021GD11995+0112859GD23995+0137259GD34995+0198159GF108991999999999999999999MA1100885999999MW1615REMMET113PAKW 230753Z AUTO VRB04KT 10SM -RA FEW037 BKN045 OVC065 09/06 A2979 RMK AO2 RAE00B50 SLP088 P0000 T00940061 TSNO;EQDQ01+000003PRSWM1Q02    003PRSWM1N01 00020JPWTH 0QNNAA1D0 02037BA1 0 01037AA1D0 04045BA1 0 04045AA1D0 06065BA1 0 06065GA1 0 00045KA1D0 00043JA1 0 00061LA1 0 01000CA1 0 02979NA1 0 00020QA1 0 10088SA1D0 00049RA1 0 00094YA1 0 00004
0383703894253672000103019533+55583+133083FM-15+0004PAKW V0201305N00365018295MN0080005N1+00725+00505100675ADDAA101000891GD14995+0182959GF108991999999999999999999MA1100685999999MW1101MW2455MW3615REMMET100PAKW 301953Z AUTO 13007KT 350V210 5SM -RA BR OVC060 07/05 A2973 RMK AO2 SLP067 P0003 T00720050 TSNO;EQDQ01+000003PRSWM1Q02    003PRSWM1N01 02070JPWTH 0QNNAA1D0 06060BA1 0 06060GA1 0 00060KA1D0 00041JA1 0 00050LA1 0 00500CA1 0 02973NA1 0 02070QA1 0 10067SA1D0 00045RA1 0 00072YA1 0 13007
0486703894253672000110514533+55583+133083FM-15+0004PAKW V0209995C00005010675MN0160005N1+00565+00445100755ADDAA101000391AA203001591GD11995+0067159GD23995+0106759GD34995+0152459GF108991999999999999999999MA1100755999999MD1610091+9999MW1615REMMET116PAKW 051453Z AUTO 00000KT 10SM -RA FEW022 BKN035 OVC050 06/04 A2975 RMK AO2 SLP075 P0001 60006 T00560044 56009 TSNO;EQDQ01+000003PRSWM1Q02    003PRSWM1N01 00020JPWTH 0QNNAA1D0 02022BA1 0 01022AA1D0 04035BA1 0 04035AA1D0 06050BA1 0 06050GA1 0 00035KA1D0 00040JA1 0 00044LA1 0 01000CA1 0 02975NA1 0 00020QA1 0 10075SA1D0 00042RA1 0 00056YA1 0 00000
0174703894253672000110805384+55570-133070FM-15+0015PAKW V0209999C000012200019N0048281N1+00401+00301999999ADDGD12991+0180099GF104991999999999999999999MA1101801999999MW1101REMMET065PAKW 080538Z AUTO 00000KT 3SM BR SCT060 04/03 A3006 RMK AO2 TSNO;EQDQ01+000003PRSWM1Q02    003PRSWM1
0324703894253672000112903533+55583+133083FM-15+0004PAKW V0200405N00525220005MN0160005N1+00175-00115101285ADDGF100991999999999999999999MA1101295999999MW1001OC100821REMMET087PAKW 290353Z AUTO 04010G16KT 10SM CLR 02/M01 A991 RMK AO2 PRESFR SLP128 T00171011 TSNO;EQDQ01+000000PRSWM2N01 00000JPWTH 0QNNAA1D0 00000BA1 0 00000GA1U0 99999KA1D0 00030JA1 0-00011LA1 0 01000CA1 0 02991NA1 0 00000QA1 0 10128SA1D0 00035RA1 0 00017YA1 0 04010
0365703894253672000112905533+55583+133083FM-15+0004PAKW V0200505N00575220005MN0160005N1+00175-00175101005ADDGF100991999999999999999999KA1999M+00281KA2999N+00171MA1100985999999MD1610451+9999MW1001REMMET096PAKW 290553Z AUTO 05011KT 10SM CLR 02/M02 A2982 RMK AO2 SLP100 T00171017 10028 20017 56045 TSNO;EQDQ01+000000PRSWM2N01 00000JPWTH 0QNNAA1D0 00000BA1 0 00000GA1U0 99999KA1D0 00029JA1 0-00017LA1 0 01000CA1 0 02982NA1 0 00000QA1 0 10100SA1D0 00035RA1 0 00017YA1 0 05011
0479703894253672000120117533+55583+133083FM-15+0004PAKW V0209995V00155109125MN0112005N1+00785+00395098655ADDAA101001091AA206003691GD13995+0106759GD24995+0131159GF108991999999999999999999KA1999M+01001KA2999N+00781MA1098655999999MD1310021+9999MW1615REMMET120PAKW 011753Z AUTO VRB03KT 7SM -RA BKN035 OVC043 08/04 A2913 RMK AO2 SLP865 P0004 60014 T00780039 10100 20078 53002 TSNO;EQDQ01+000003PRSWM1Q02    003PRSWM1N01 00020JPWTH 0QNNAA1D0 04035BA1 0 04035AA1D0 06043BA1 0 06043GA1 0 00358KA1D0 00039JA1 0 00039LA1 0 00700CA1 0 02913NA1 0 00020QA1 0 09865SA1D0 00046RA1 0 00078YA1 0 00003
0382703894253672000120223533+55583+133083FM-15+0004PAKW V0202105N00215014635MN0160005N1+00505+00225101695ADDGD14995+0146359GF108991999999999999999999KA1999M+00611KA2999N+00501MA1101695999999MD1310251+9999MW1001REMMET098PAKW 022353Z AUTO 21004KT 10SM OVC048 05/02 A3003 RMK AO2 SLP169 T00500022 10061 20050 53025 TSNO;EQDQ01+000000PRSWM2N01 00000JPWTH 0QNNAA1D0 06048BA1 0 06048GA1 0 00048KA1D0 00036JA1 0 00022LA1 0 01000CA1 0 03003NA1 0 00000QA1 0 10169SA1D0 00041RA1 0 00050YA1 0 21004
0187703894253672000120513005+55583+133083FM-15+0004PAKW V0209995V00315010065MN011200599+00835+00725102125ADDGD14995+0100659MA1102135999999EQDN01 00000JPWTH 0QNNAA1D0 06033BA1 0 06033GA1 0 00033KA1D0 00045JA1 0 00072LA1 0 00700CA1 0 03016NA1 0 00000QA1 0 10212SA1D0 00047RA1 0 00083YA1 0 00006
0175703894253672000120704384+55570-133070FM-15+0015PAKW V0209999C00001000151CN0008051N1+00101+00101999999ADDGD15991+0001599GF109991999999000251999999MA1103011999999MW1451REMMET066PAKW 070438Z AUTO 00000KT 1/2SM FG VV001 01/01 A3042 RMK AO2 TSNO;EQDQ01+000003PRSWM1Q02    003PRSWM1
0307703894253672000120822533+55583+133083FM-15+0004PAKW V0209995V00265220005MN0160005N1+00285-00065102165ADDGF100991999999999999999999MA1102175999999MW1001REMMET078PAKW 082253Z AUTO VRB05KT 10SM CLR 03/M01 A3017 RMK AO2 SLP216 T00281006 TSNO;EQDQ01+000000PRSWM2N01 00000JPWTH 0QNNAA1D0 00000BA1 0 00000GA1U0 99999KA1D0 00031JA1 0-00006LA1 0 01000CA1 0 03017NA1 0 00000QA1 0 10216SA1D0 00037RA1 0 00028YA1 0 00005
0325703894253672000121200533+55583+133083FM-15+0004PAKW V0209995C00005030485MN0160005N1+00115-00725102635ADDGD14995+0304859GF108991999999999999999999MA1102645999999MW1001REMMET081PAKW 120053Z AUTO 00000KT 10SM OVC100 01/M07 A3031 RMK AO2 SLP263 T00111072 TSNO;EQDQ01+000000PRSWM2N01 00000JPWTH 0QNNAA1D0 06100BA1 0 06100GA1 0 00100KA1D0 00019JA1 0-00072LA1 0 01000CA1 0 03031NA1 0 00000QA1 0 10263SA1D0 00034RA1 0 00011YA1 0 00000
0365703894253672000121323533+55583+133083FM-15+0004PAKW V0209995V00315220005MN0160005N1+00005-00895100795ADDGF100991999999999999999999KA1999M+00111KA2999N-00171MA1100785999999MD1810041+9999MW1001REMMET096PAKW 132353Z AUTO VRB06KT 10SM CLR 00/M09 A2976 RMK AO2 SLP079 T00001089 10011 21017 58004 TSNO;EQDQ01+000000PRSWM2N01 00000JPWTH 0QNNAA1D0 00000BA1 0 00000GA1U0 99999KA1D0 00016JA1 0-00089LA1 0 01000CA1 0 02976NA1 0 00000QA1 0 10079SA1D0 00032RA1 0 00000YA1 0 00006
0481703894253672000121617533+55583+133083FM-15+0004PAKW V0200405N00365009455MN0160005N1+00005-00225098545ADDAA101000021AA206000021GD11995+0057959GD24995+0094559GF108991999999999999999999KA1999M+00001KA2999N-00061MA1098545999999MD1510041+9999MW1001REMMET138PAKW 161753Z AUTO 04007KT 020V090 10SM UP FEW019 OVC031 00/M02 A2910 RMK AO2 UPE02B36 SLP854 P0000 60000 T00001022 10000 21006 55004 TSNO;EQDQ01+000000PRSWM2N01 00039JPWTH 0QNNAA1D0 02019BA1 0 01019AA1D0 06031BA1 0 06031GA1 0 00031KA1D0 00028JA1 0-00022LA1 0 01000CA1 0 02910NA1 0 00039QA1 0 09854SA1D0 00032RA1 0 00000YA1 0 04007
0385703894253672000121809533+55583+133083FM-15+0004PAKW V0201705N005752200019N0080005N1+00505+00285100595ADDAA101003091GD10995+9999999MA1100585999999MW1101MW2455MW3635OC101341REMMET115PAKW 180953Z AUTO 17011G26KT 120V220 5SM RA BR 05/03 A2970 RMK AO2 PK WND 14026/0946 SLP059 P0012 T00500028 TSNO $;EQDQ01+000003PRSWM1Q02    003PRSWM1N01 00999JALM1 3N02 02170JPWTH 0QNNAA1D0 00999BA1 3 00999KA1D0 00037JA1 0 00028LA1 0 00500CA1 0 02970NA1 0 02170QA1 0 10059SA1D0 00041RA1 0 00050YA1 0 17011
0361703894253672000122507533+55583+133083FM-15+0004PAKW V0209995V00315009755MN0160005N1+00395+00225100215ADDAA101001091GD14995+0097559GF108991999999999999999999MA1100205999999MW1615REMMET090PAKW 250753Z AUTO VRB06KT 10SM -RA OVC032 04/02 A2959 RMK AO2 SLP021 P0004 T00390022 TSNO;EQDQ01+000003PRSWM1Q02    003PRSWM1N01 00020JPWTH 0QNNAA1D0 06032BA1 0 06032GA1 0 00032KA1D0 00036JA1 0 00022LA1 0 01000CA1 0 02959NA1 0 00020QA1 0 10021SA1D0 00039RA1 0 00039YA1 0 00006
0399703894253672000122605533+55583+133083FM-15+0004PAKW V0200505N00155018295MN0160005N1+00505+00395100655ADDAA106000591GD14995+0182959GF108991999999999999999999KA1999M+00831KA2999N+00441MA1100645999999MD1210021+9999MW1001REMMET104PAKW 260553Z AUTO 05003KT 10SM OVC060 05/04 A2972 RMK AO2 SLP065 60002 T00500039 10083 20044 52002 TSNO;EQDQ01+000000PRSWM2N01 00000JPWTH 0QNNAA1D0 06060BA1 0 06060GA1 0 00060KA1D0 00039JA1 0 00039LA1 0 01000CA1 0 02972NA1 0 00000QA1 0 10065SA1D0 00041RA1 0 00050YA1 0 05003
0054703950253252000010114009+55367-131717NSRDB+002399999V020999999999999999999999999999+99999+99999999999ADDGP10060000002000000002000000002000GR100600000900009
0531703950253252000010311533+55367-131717FM-15+0023KTN  V0201605N00365007325MN0080005N1+00065-00175101125ADDAA101000021AA206000021GD13995+0073259GD24995+0091459GF108991999999999999999999KA1999M+00111KA2999N+00001MA1101125999999MD1810271+9999MW1101MW2455MW3665REMMET160PAKT 031153Z AUTO 16007KT 120V200 5SM -FZRA BR BKN024 OVC030 01/M02 A2986 RMK AO2 UPB1057E03RAB03E09FZRAB09 SLP112 P0000 60000 T00061017 10011 20000 58027 TSNO;EQDQ01+000003PRSWM1Q02    003PRSWM1N01 02670JPWTH 0QNNAA1D0 04024BA1 0 04024AA1D0 06030BA1 0 06030GA1 0 00024KA1D0 00029JA1 0-00017LA1 0 00500CA1 0 02986NA1 0 02670QA1 0 10112SA1D0 00033RA1 0 00006YA1 0 16007
0419703950253252000010410533+55367-131717FM-15+0023KTN  V0203105N00365042675MN0064005N1+00065+00005099215ADDAA101002391GD13995+0042759GD24995+0057959GF108991999999999999999999MA1099195999999MW1101MW2455MW3715REMMET099PAKT 041053Z AUTO 31007KT 4SM -SN BR BKN014 OVC019 01/00 A2929 RMK AO2 SLP921 P0009 T00060000 TSNO;EQDQ01+000003PRSWM1Q02    003PRSWM1N01 04070JPWTH 0QNNAA1D0 04014BA1 0 04014AA1D0 06019BA1 0 06019GA1 0 00140KA1D0 00032JA1 0 00000LA1 0 00400CA1 0 02929NA1 0 04070QA1 0 09921SA1D0 00033RA1 0 00006YA1 0 31007
0054703950253252000010502009+55367-131717NSRDB+002399999V020999999999999999999999999999+99999+99999999999ADDGP10060000002000000002000000002000GR100600000900009
0714703950253252000010608596+55357-131711SOD  +0029PAKT V020999999999999999999999999999+99999+99999999999ADDAA124033895AT1MW16RA  5AT2MW18SN  1AT3MW01FG  5AT4MW13BR  1KA1240M+00395KA2240N+00065MG1101359999994OE11240174313022395OE22240138613022235OE33240065399999995REMSOD54524 HR PRECIPITATION (IN): 1.33 24 HR MAX TEMP (F): 3924 HR MAX TEMP TIME (LST):2352 24 HR MIN TEMP (F): 3324 HR MIN TEMP TIME (LST):0534 AVERAGE STATION PRESSURE:29.93  PEAK WIND SPEED (MPH): 39 PEAK WIND DIR (DEG):130 PEAK WIND TIME (LST):2239  FASTEST 2MIN SPEED (MPH): 31FASTEST 2MIN DIR (DEG):130 FASTEST 2MIN TIME (LST):2223 AVERAGE WIND SPEED (MPH):14.6 24 HR AVG TEMP (F):36 HOURLY INCREMENTAL PRECIPITATION VALUES (IN):.00  .01  .00  .00  .01  .02  .02  .02  .03  .04  .03  .04  .03  .09  .18  .03  .09  .11  .09  .06  .08  .10  .07  .16
0071703950253252000010622009+55367-131717NSRDB+002399999V020999999999999999999999999999+99999+99999999999ADDGP10060002702014000002035002702014GQ100600783918889GR100600287914159
0335703950253252000011219533+55367-131717FM-15+0023KTN  V0209999C00005220005MN0160005N1-00505-00615100655ADDGD12995+0213459GF104991999999999999999999MA1100645999999MW1001REMMET091PAKT 121953Z 00000KT 10SM SCT070 M05/M06 A2972 RMK AO2 SLP065 HARBOR WND 00000KT T10501061;EQDQ01+000000PRSWM2N01 00000JPWTH 0QNNAA1D0 02070BA1 0 02070GA1U0 99999KA1D0 00021JA1 0-00061LA1 0 01000CA1 0 02972NA1 0 00000QA1 0 10065SA1D0 00023RA1 0-00050YA1 0 00000
0054703950253252000011614009+55367-131717NSRDB+002399999V020999999999999999999999999999+99999+99999999999ADDGP10060000002000000002000000002000GR100600000900009
0375703950253252000011723533+55367-131717FM-15+0023KTN  V0201605N00215220005MN0160005N1-00395-00835102625ADDGF100991999999999999999999KA1999M-00281KA2999N-01281MA1102615999999MD1310161+9999MW1001REMMET106PAKT 172353Z 16004KT 10SM CLR M04/M08 A3030 RMK AO2 SLP262 HARBOR WND 14005KT T10391083 11028 21128 53016;EQDQ01+000000PRSWM2N01 00000JPWTH 0QNNAA1D0 00000BA1 0 00000GA1U0 99999KA1D0 00017JA1 0-00083LA1 0 01000CA1 0 03030NA1 0 00000QA1 0 10262SA1D0 00025RA1 0-00039YA1 0 16004
0702703950253252000011808596+55357-131711SOD  +0029PAKT V020999999999999999999999999999+99999+99999999999ADDAA124000025AT1MW18SN  5AT2MW01FG  5AT3MW13BR  1KA1240M-00275KA2240N-01385MG1101869999994OE11240062631001555OE22240040233002545OE33240019299999995REMSOD54524 HR PRECIPITATION (IN):  T   24 HR MAX TEMP (F): 2724 HR MAX TEMP TIME (LST):1434 24 HR MIN TEMP (F):  724 HR MIN TEMP TIME (LST):0820 AVERAGE STATION PRESSURE:30.08  PEAK WIND SPEED (MPH): 14 PEAK WIND DIR (DEG):310 PEAK WIND TIME (LST):0155  FASTEST 2MIN SPEED (MPH):  9FASTEST 2MIN DIR (DEG):330 FASTEST 2MIN TIME (LST):0254 AVERAGE WIND SPEED (MPH): 4.3 24 HR AVG TEMP (F):17 HOURLY INCREMENTAL PRECIPITATION VALUES (IN):.00  .00  .00  .00  .00  .00  .00  .00  .00  .00  .00  .00  .00  .00  .00  .00  .00  .00  .00   T    T    T    T   .00
0394703950253252000012106533+55367-131717FM-15+0023KTN  V0209999C00005045725MN0032005N1-00065-00115101525ADDAA101000021GD14995+0045759GF108991999999999999999999MA1101495999999MW1101MW2455MW3715REMMET111PAKT 210653Z AUTO 00000KT 2SM -SN BR OVC015 M01/M01 A2997 RMK AO2 UPE03B29E35SNB35 SLP152 P0000 T10061011 TSNO;EQDQ01+000003PRSWM1Q02    003PRSWM1N01 04070JPWTH 0QNNAA1D0 06015BA1 0 06015GA1 0 00150KA1D0 00030JA1 0-00011LA1 0 00200CA1 0 02997NA1 0 04070QA1 0 10152SA1D0 00031RA1 0-00006YA1 0 00000
0054703950253252000012207009+55367-131717NSRDB+002399999V020999999999999999999999999999+99999+99999999999ADDGP10060000002000000002000000002000GR100600000900009
0054703950253252000012303009+55367-131717NSRDB+002399999V020999999999999999999999999999+99999+99999999999ADDGP10060000002000000002000000002000GR100600000900009
0054703950253252000012416009+55367-131717NSRDB+002399999V020999999999999999999999999999+99999+99999999999ADDGP10060000002000000002000000002000GR100600000900009
0369703950253252000012606533+55367-131717FM-15+0023KTN  V0201605N00365073155MN0160005N1+00005-00225101695ADDGD13995+0073259GD24995+0094559GF108991999999999999999999MA1101665999999MW1001REMMET088PAKT 260653Z AUTO 16007KT 10SM BKN024 OVC031 00/M02 A3002 RMK AO2 SLP169 T00001022 TSNO;EQDQ01+000000PRSWM2N01 00000JPWTH 0QNNAA1D0 04024BA1 0 04024AA1D0 06031BA1 0 06031GA1 0 00240KA1D0 00028JA1 0-00022LA1 0 01000CA1 0 03002NA1 0 00000QA1 0 10169SA1D0 00032RA1 0 00000YA1 0 16007
0456703950253252000020121533+55367-131717FM-15+0023KTN  V0203105N00625012505MN0160005N1+00335-00285100645ADDGD12995+0106759GD23995+0125059GD33995+0152459GF107991999999999999999999MA1100645999999MW1001OC100871REMMET130PAKT 012153Z 31012G17KT 10SM SCT035 BKN041 BKN050 03/M03 A2972 RMK AO2 SLP064 HARBOR WND 33008G14KT ROOF WND 30020G30KT T00331028;EQDQ01+000000PRSWM2N01 00000JPWTH 0QNNAA1D0 02035BA1 0 02035AA1D0 04041BA1 0 04041AA1D0 04050BA1 0 04050GA1 0 00041KA1D0 00027JA1 0-00028LA1 0 01000CA1 0 02972NA1 0 00000QA1 0 10064SA1D0 00038RA1 0 00033YA1 0 31012
0351703950253252000020219533+55367-131717FM-15+0023KTN  V0201205N00265016765MN0160005N1+00175-00115103375ADDGD13995+0167659GF107991999999999999999999MA1103355999999MW1001REMMET107PAKT 021953Z 12005KT 10SM BKN055 02/M01 A3052 RMK AO2 SLP337 HARBOR WND 00000KT ROOF WND 13007KT T00171011;EQDQ01+000000PRSWM2N01 00000JPWTH 0QNNAA1D0 04055BA1 0 04055GA1 0 00055KA1D0 00030JA1 0-00011LA1 0 01000CA1 0 03052NA1 0 00000QA1 0 10337SA1D0 00035RA1 0 00017YA1 0 12005
0071703950253252000020620009+55367-131717NSRDB+002399999V020999999999999999999999999999+99999+99999999999ADDGP10060012302014004102035011202014GQ100600736915729GR100600397914079
0394703950253252000020918533+55367-131717FM-15+0023KTN  V0203305N00465220005MN0160005N1+00335+00115101835ADDGD12995+0036659GD22995+0243859GF104991999999999999999999MA1101835999999MW1001REMMET113PAKT 091853Z 33009KT 10SM SCT012 SCT080 03/01 A3007 RMK AO2 SLP183 HARBOR WND 29005KT ROOF WND 31020KT T00330011;EQDQ01+000000PRSWM2N01 00000JPWTH 0QNNAA1D0 02012BA1 0 02012AA1D0 02080BA1 0 02080GA1U0 99999KA1D0 00034JA1 0 00011LA1 0 01000CA1 0 03007NA1 0 00000QA1 0 10183SA1D0 00038RA1 0 00033YA1 0 33009
0054703950253252000021004009+55367-131717NSRDB+002399999V020999999999999999999999999999+99999+99999999999ADDGP10060000002000000002000000002000GR100600000900009
0071703950253252000021401009+55367-131717NSRDB+002399999V020999999999999999999999999999+99999+99999999999ADDGP10060012202014020602035009002014GQ100600814923109GR100600211914039
0071703950253252000021419009+55367-131717NSRDB+002399999V020999999999999999999999999999+99999+99999999999ADDGP10060020802014052202035007602014GQ100600754914209GR100600353914039
0054703950253252000021516009+55367-131717NSRDB+002399999V020999999999999999999999999999+99999+99999999999ADDGP10060000002000000002000000002000GR100600000900009
0054703950253252000022513009+55367-131717NSRDB+002399999V020999999999999999999999999999+99999+99999999999ADDGP10060000002000000002000000002000GR100600000900009
0239703950253252000022815033+55350-131700FM-16+0029PAKT V0201201N002610330019N0160931N1+00201-00101999999ADDGD12991+0135019GD24991+0330019GF108991999999999999999999GP10060000002000000002000000002000GR100600000900009MA1100171999999MW1001REMMET080PAKT 281503Z 12005KT 10SM FEW045 OVC110 02/M01 A2958 RMK AO2 HARBOR WND 00000KT;EQDQ01+000000PRSWM2
0327703950253252000030614533+55367-131717FM-15+0023KTN  V0203505N00415220005MN0160005N1+00065-00175101205ADDGF100991999999999999999999MA1101195999999MD1810111+9999MW1001REMMET084PAKT 061453Z AUTO 35008KT 10SM CLR 01/M02 A2988 RMK AO2 SLP120 T00061017 58011 TSNO;EQDQ01+000000PRSWM2N01 00000JPWTH 0QNNAA1D0 00000BA1 0 00000GA1U0 99999KA1D0 00029JA1 0-00017LA1 0 01000CA1 0 02988NA1 0 00000QA1 0 10120SA1D0 00033RA1 0 00006YA1 0 35008
0317703950253252000030703533+55367-131717FM-15+0023KTN  V0209999C00005220005MN0160005N1-00175-00285100985ADDGF100991999999999999999999MA1100985999999MW1001REMMET088PAKT 070353Z 00000KT 10SM CLR M02/M03 A2982 RMK AO2 SLP098 HARBOR WND 00000KT T10171028;EQDQ01+000000PRSWM2N01 00000JPWTH 0QNNAA1D0 00000BA1 0 00000GA1U0 99999KA1D0 00027JA1 0-00028LA1 0 01000CA1 0 02982NA1 0 00000QA1 0 10098SA1D0 00029RA1 0-00017YA1 0 00000
0452703950253252000031317533+55367-131717FM-15+0023KTN  V0201005N00315013415MN0160005N1+00725+00285101045ADDAA106000021GD11995+0039659GD24995+0134159GF108991999999999999999999KA1999M+00721KA2999N+00561MA1101055999999MD1610171+9999MW1001REMMET120PAKT 131753Z 10006KT 10SM FEW013 OVC044 07/03 A2984 RMK AO2 SLP104 HARBOR WND 14012KT 60000 T00720028 10072 20056 56017;EQDQ01+000000PRSWM2N01 00000JPWTH 0QNNAA1D0 02013BA1 0 01013AA1D0 06044BA1 0 06044GA1 0 00044KA1D0 00037JA1 0 00028LA1 0 01000CA1 0 02984NA1 0 00000QA1 0 10104SA1D0 00045RA1 0 00072YA1 0 10006
0401703950253252000031505533+55367-131717FM-15+0023KTN  V0201905N00315220005MN0160005N1+00395+00005102025ADDGD12995+0152459GF104991999999999999999999KA1999M+00721KA2999N+00391MA1102035999999MD1810021+9999MW1001REMMET117PAKT 150553Z AUTO 19006KT 10SM SCT050 04/00 A3013 RMK AO2 SLP202 HARBOR WND 13006KT T00390000 10072 20039 58002 TSNO;EQDQ01+000000PRSWM2N01 00000JPWTH 0QNNAA1D0 02050BA1 0 02050GA1U0 99999KA1D0 00032JA1 0 00000LA1 0 01000CA1 0 03013NA1 0 00000QA1 0 10202SA1D0 00039RA1 0 00039YA1 0 19006
0054703950253252000031607009+55367-131717NSRDB+002399999V020999999999999999999999999999+99999+99999999999ADDGP10060000002000000002000000002000GR100600000900009
0375703950253252000031916533+55367-131717FM-15+0023KTN  V0209999C00005000615MN0003005N1+00115+00115101835ADDGD14995+0006159GF108991999999999999999999MA1101835999999MW1441MW2455REMMET109PAKT 191653Z 00000KT M1/4SM FG OVC002 01/01 A3007 RMK AO2 SLP183 SUN DIMLY VSBL HARBOR WND VRB03KT T00110011;EQDQ01+000003PRSWM1Q02    003PRSWM1N01 00070JPWTH 0QNNAA1D0 06002BA1 0 06002GA1 0 00002KA1D0 00034JA1 0 00011LA1 0 00019CA1 0 03007NA1 0 00070QA1 0 10183SA1D0 00034RA1 0 00011YA1 0 00000
0071703950253252000032102009+55367-131717NSRDB+002399999V020999999999999999999999999999+99999+99999999999ADDGP10060008002014000002035008002014GQ100600779925269GR100600288913789
0551703950253252000032108533+55367-131717FM-15+0023KTN  V0201605N00625008235MN0160005N1+00565+00285099745ADDAA101000391AA203002091GD12995+0064059GD23995+0082359GD34995+0109759GF108991999999999999999999KA1999M+00611KA2999N+00221MA1099735999999MD1310161+9999MW1615OC100931REMMET147PAKT 210853Z AUTO 16012G18KT 10SM -RA SCT021 BKN027 OVC036 06/03 A2945 RMK AO2 PK WND 15032/0829 SLP974 P0001 60008 T00560028 400610022 53016 TSNO;EQDQ01+000003PRSWM1Q02    003PRSWM1N01 00020JPWTH 0QNNAA1D0 02021BA1 0 02021AA1D0 04027BA1 0 04027AA1D0 06036BA1 0 06036GA1 0 00027KA1D0 00037JA1 0 00028LA1 0 01000CA1 0 02945NA1 0 00020QA1 0 09974SA1D0 00042RA1 0 00056YA1 0 16012
0430703950253252000032112533+55367-131717FM-15+0023KTN  V0209999V00265008845MN0160005N1+00675+00225100565ADDAA101000021GD13995+0088459GD24995+0109759GF108991999999999999999999MA1100545999999MW1615REMMET122PAKT 211253Z AUTO VRB05KT 10SM -RA BKN029 OVC036 07/02 A2969 RMK AO2 PK WND 19026/1213 PRESRR SLP056 P0000 T00670022 TSNO;EQDQ01+000003PRSWM1Q02    003PRSWM1N01 00020JPWTH 0QNNAA1D0 04029BA1 0 04029AA1D0 06036BA1 0 06036GA1 0 00029KA1D0 00036JA1 0 00022LA1 0 01000CA1 0 02969NA1 0 00020QA1 0 10056SA1D0 00044RA1 0 00067YA1 0 00005
0071703950253252000032201009+55367-131717NSRDB+002399999V020999999999999999999999999999+99999+99999999999ADDGP10060030302014035202035018202014GQ100600699923959GR100600472913779
0422703950253252000032414533+55367-131717FM-15+0023KTN  V0201605N00525005795MN0080005N1+00335+00225100775ADDAA101003091AA203008991GD14995+0057959GF108991999999999999999999MA1100785999999MD1610041+9999MW1101MW2455MW3635OC101181REMMET106PAKT 241453Z AUTO 16010G23KT 5SM RA BR OVC019 03/02 A2976 RMK AO2 SLP077 P0012 60035 T00330022 56004 TSNO;EQDQ01+000003PRSWM1Q02    003PRSWM1N01 02170JPWTH 0QNNAA1D0 06019BA1 0 06019GA1 0 00019KA1D0 00036JA1 0 00022LA1 0 00500CA1 0 02976NA1 0 02170QA1 0 10077SA1D0 00038RA1 0 00033YA1 0 16010
0071703950253252000032603009+55367-131717NSRDB+002399999V020999999999999999999999999999+99999+99999999999ADDGP10060000002014000002035000002014GQ100600847926669GR100600126913749
0071703950253252000032801009+55367-131717NSRDB+002399999V020999999999999999999999999999+99999+99999999999ADDGP10060034102014051602035014802014GQ100600681924119GR100600512913729
0322703950253252000032820053+55350-131700FM-16+0029PAKT V0201701N003110024019N0032181N1+00101+00101999999ADDGD12991+0015019GD23991+0024019GD34991+0036019GF108991999999999999999999GP10060057302014071902035015602014GQ100600547915479GR100600793913719MA1101121999999MW1711REMMET099PAKT 282005Z 17006KT 2SM -SN BR SCT005 BKN008 OVC012 01/01 A2986 RMK AO2 HARBOR WIND 17013KT P0001;EQDQ01+000100PRSWM3Q02+000003PRSWM1Q03    003PRSWM1
0443703950253252000033101533+55367-131717FM-15+0023KTN  V0201405N00525004885MN0144005N1+00785+00675102875ADDAA101000891GD12995+0027459GD23995+0048859GD34995+0070159GF108991999999999999999999MA1102885999999MW1001REMMET114PAKT 310153Z 14010KT 9SM SCT009 BKN016 OVC023 08/07 A3038 RMK AO2 RAE51 SLP287 HARBOR WND 13012KT P0003 T00780067;EQDQ01+000000PRSWM2N01 00000JPWTH 0QNNAA1D0 02009BA1 0 02009AA1D0 04016BA1 0 04016AA1D0 06023BA1 0 06023GA1 0 00016KA1D0 00044JA1 0 00067LA1 0 00900CA1 0 03038NA1 0 00000QA1 0 10287SA1D0 00046RA1 0 00078YA1 0 14010
0071703950253252000033120009+55367-131717NSRDB+002399999V020999999999999999999999999999+99999+99999999999ADDGP10060059202014072502035015902014GQ100600535915479GR100600815913699
0422703950253252000040116533+55367-131717FM-15+0023KTN  V0203405N00155014335MN0160005N1+00605+00505102821ADDAA101000591GD13995+0143359GD24995+0198159GF108991999999999999999999MA1102815999999MW1615REMMET125PAKT 011653Z COR 34003KT 10SM -RA BKN047 OVC065 06/05 A3036 RMK BCFG ALL QUADS HARBOR WND 00000KT AO2 SLP282 P0002 T00610050;EQDQ01+000003PRSWM1Q02    003PRSWM1N01 00020JPWTH 0QNNAA1D0 04047BA1 0 04047AA1D0 06065BA1 0 06065GA1 0 00047KA1D0 00041JA1 0 00050LA1 0 01000CA1 0 03036NA1 0 00020SA1D0 00043RA1 0 00060YA1 0 34003
0324703950253252000040217103+55350-131700FM-16+0029PAKT V0201501N005110030019N0040231N1+00701+00601999999ADDGD12991+0012019GD23991+0030019GD34991+0039019GF108991999999999999999999GP10060024902013045702032010602013GQ100600717910819GR100600429913679MA1102201999999MW1631REMMET101PAKT 021710Z 15010KT 2 1/2SM RA BR SCT004 BKN010 OVC013 07/06 A3018 RMK AO2 HARBOR WND 14016KT P0004;EQDQ01+000100PRSWM3Q02+000003PRSWM1Q03    003PRSWM1
0324703950253252000040410533+55367-131717FM-15+0023KTN  V0209999C00005220005MN0160005N1+00065+00005101585ADDGD11995+0140259GF102991999999999999999999MA1101565999999MW1001REMMET080PAKT 041053Z AUTO 00000KT 10SM FEW046 01/00 A2999 RMK AO2 SLP158 T00060000 TSNO;EQDQ01+000000PRSWM2N01 00000JPWTH 0QNNAA1D0 02046BA1 0 01046GA1U0 99999KA1D0 00032JA1 0 00000LA1 0 01000CA1 0 02999NA1 0 00000QA1 0 10158SA1D0 00033RA1 0 00006YA1 0 00000
0416703950253252000040506533+55367-131717FM-15+0023KTN  V0201505N00575006105MN0160005N1+00335+00225101115ADDAA101000891GD13995+0061059GD24995+0088459GF108991999999999999999999MA1101125999999MW1615OC100871REMMET100PAKT 050653Z AUTO 15011G17KT 10SM -RA BKN020 OVC029 03/02 A2986 RMK AO2 SLP111 P0003 T00330022 TSNO;EQDQ01+000003PRSWM1Q02    003PRSWM1N01 00020JPWTH 0QNNAA1D0 04020BA1 0 04020AA1D0 06029BA1 0 06029GA1 0 00020KA1D0 00036JA1 0 00022LA1 0 01000CA1 0 02986NA1 0 00020QA1 0 10111SA1D0 00038RA1 0 00033YA1 0 15011
0054703950253252000040513009+55367-131717NSRDB+002399999V020999999999999999999999999999+99999+99999999999ADDGP10060000002000000002000000002000GR100600000900009
0421703950253252000040703533+55367-131717FM-15+0023KTN  V0201605N00415009755MN0160005N1+00505+00115101885ADDGD12995+0079259GD23995+0097559GD34995+0213459GF108991999999999999999999MA1101905999999MW1001REMMET103PAKT 070353Z 16008KT 10SM SCT026 BKN032 OVC070 05/01 A3009 RMK AO2 SLP188 HARBOR WND 12010KT T00500011;EQDQ01+000000PRSWM2N01 00000JPWTH 0QNNAA1D0 02026BA1 0 02026AA1D0 04032BA1 0 04032AA1D0 06070BA1 0 06070GA1 0 00032KA1D0 00034JA1 0 00011LA1 0 01000CA1 0 03009NA1 0 00000QA1 0 10188SA1D0 00041RA1 0 00050YA1 0 16008
0458703950253252000040708533+55367-131717FM-15+0023KTN  V0201405N00775003665MN0096005N1+00285+00175101535ADDAA101003091AA203005391GD14995+0036659GF108991999999999999999999KA1999M+00831KA2999N+00061MA1101525999999MD1610281+9999MW1101MW2455MW3635OC100981REMMET116PAKT 070853Z AUTO 14015G19KT 6SM RA BR OVC012 03/02 A2998 RMK AO2 SLP153 P0012 60021 T00280017 400830006 56028 TSNO;EQDQ01+000003PRSWM1Q02    003PRSWM1N01 02170JPWTH 0QNNAA1D0 06012BA1 0 06012GA1 0 00012KA1D0 00035JA1 0 00017LA1 0 00600CA1 0 02998NA1 0 02170QA1 0 10153SA1D0 00037RA1 0 00028YA1 0 14015
0397703950253252000041214533+55367-131717FM-15+0023KTN  V0203405N00415030485MN0160005N1+00725+00445102045ADDGD11995+0057959GD23995+0304859GF107991999999999999999999MA1102035999999MD1010001+9999MW1001REMMET102PAKT 121453Z 34008KT 10SM FEW019 BKN100 07/04 A3013 RMK AO2 SLP204 HARBOR WND VRB04KT T00720044 50000;EQDQ01+000000PRSWM2N01 00000JPWTH 0QNNAA1D0 02019BA1 0 01019AA1D0 04100BA1 0 04100GA1 0 00100KA1D0 00040JA1 0 00044LA1 0 01000CA1 0 03013NA1 0 00000QA1 0 10204SA1D0 00045RA1 0 00072YA1 0 34008
0371703950253252000041308533+55367-131717FM-15+0023KTN  V0202905N00465220005MN0160005N1+00785-00445101895ADDGF100991999999999999999999KA1999M+01331KA2999N+00671MA1101905999999MD1310011+9999MW1001REMMET102PAKT 130853Z AUTO 29009KT 260V320 10SM CLR 08/M04 A3009 RMK AO2 SLP189 T00781044 401330067 53001 TSNO;EQDQ01+000000PRSWM2N01 00000JPWTH 0QNNAA1D0 00000BA1 0 00000GA1U0 99999KA1D0 00024JA1 0-00044LA1 0 01000CA1 0 03009NA1 0 00000QA1 0 10189SA1D0 00046RA1 0 00078YA1 0 29009
0415703950253252000042009533+55367-131717FM-15+0023KTN  V0201505N00625007015MN0144005N1+00725+00565101505ADDAA101000891GD11995+0045759GD24995+0070159GF108991999999999999999999MA1101495999999MW1615OC101031REMMET099PAKT 200953Z AUTO 15012G20KT 9SM -RA FEW015 OVC023 07/06 A2997 RMK AO2 SLP150 P0003 T00720056 TSNO;EQDQ01+000003PRSWM1Q02    003PRSWM1N01 00020JPWTH 0QNNAA1D0 02015BA1 0 01015AA1D0 06023BA1 0 06023GA1 0 00023KA1D0 00042JA1 0 00056LA1 0 00900CA1 0 02997NA1 0 00020QA1 0 10150SA1D0 00045RA1 0 00072YA1 0 15012
0280703950253252000042015254+55350-131700FM-15+0029PAKT V0201401N009310078019N0160931N1+00701+00601999999ADDAA101000391GD12991+0042019GD23991+0078019GD34991+0096019GF108991999999999999999999MA1101051999999MW1611OC101291REMMET122PAKT 201525Z 14018G25KT 10SM -RA SCT014 BKN026 OVC032 07/06 A2984 RMK AO2 HARBOR WND 12025G30KT ROOF WND 17035G40KT P0001;EQDQ01+000003PRSWM1Q02    003PRSWM1
0386703950253252000042107533+55367-131717FM-15+0023KTN  V0201805N00575004575MN0048005N1+00675+00565100325ADDAA101006691GD14995+0045759GF108991999999999999999999MA1100305999999MW1101MW2455MW3655OC100821REMMET095PAKT 210753Z AUTO 18011G16KT 3SM +RA BR OVC015 07/06 A2962 RMK AO2 SLP032 P0026 T00670056 TSNO;EQDQ01+000003PRSWM1Q02    003PRSWM1N01 02270JPWTH 0QNNAA1D0 06015BA1 0 06015GA1 0 00015KA1D0 00042JA1 0 00056LA1 0 00300CA1 0 02962NA1 0 02270QA1 0 10032SA1D0 00044RA1 0 00067YA1 0 18011
0520703950253252000042217533+55367-131717FM-15+0023KTN  V0203305N00265013725MN0160005N1+00565+00115100695ADDAA101000021AA206000591GD11995+0103659GD23995+0137259GD34995+0182959GF108991999999999999999999KA1999M+00611KA2999N+00281MA1100685999999MD1110091+9999MW1615REMMET124PAKT 221753Z 33005KT 10SM -RA FEW034 BKN045 OVC060 06/01 A2973 RMK AO2 RAB51 SLP069 P0000 60002 T00560011 10061 20028 51009;EQDQ01+000003PRSWM1Q02    003PRSWM1N01 00020JPWTH 0QNNAA1D0 02034BA1 0 01034AA1D0 04045BA1 0 04045AA1D0 06060BA1 0 06060GA1 0 00045KA1D0 00034JA1 0 00011LA1 0 01000CA1 0 02973NA1 0 00020QA1 0 10069SA1D0 00042RA1 0 00056YA1 0 33005
0369703950253252000042514533+55367-131717FM-15+0023KTN  V0203505N00465036585MN0160005N1+00505+00115100855ADDGD14995+0365859GF108991999999999999999999MA1100855999999MD1610191+9999MW1001REMMET111PAKT 251453Z COR 35009KT 10SM OVC120 05/01 A2978 RMK AO2 SLP085 HARBOR WND VRB06KT OVC PTLY TN T00500011 56019;EQDQ01+000000PRSWM2N01 00000JPWTH 0QNNAA1D0 06120BA1 0 06120GA1 0 00120KA1D0 00034JA1 0 00011LA1 0 01000CA1 0 02978NA1 0 00000QA1 0 10085SA1D0 00041RA1 0 00050YA1 0 35009
0071703950253252000042521009+55367-131717NSRDB+002399999V020999999999999999999999999999+99999+99999999999ADDGP10060052202013021002032036602013GQ100600421917479GR100601001913499
0460703950253252000042523533+55367-131717FM-15+0023KTN  V0200805N00365027435MN0160005N1+01445-00615100575ADDGD12995+0182959GD23995+0274359GF107991999999999999999999KA1999M+01441KA2999N+00891MA1100585999999MD1710051+9999MW1001REMMET139PAKT 252353Z 08007KT 050V120 10SM SCT060 BKN090 14/M06 A2970 RMK AO2 SLP057 OVC250 BINOVC HARBOR WND 15014KT T01441061 10144 20089 57005 $;EQDQ01+000000PRSWM2N01 00000JPWTH 0QNNAA1D0 02060BA1 0 02060AA1D0 04090BA1 0 04090GA1 0 00090KA1D0 00021JA1 0-00061LA1 0 01000CA1 0 02970NA1 0 00000QA1 0 10057SA1D0 00058RA1 0 00144YA1 0 08007
0054703950253252000042713009+55367-131717NSRDB+002399999V020999999999999999999999999999+99999+99999999999ADDGP10060000002000000002000000002000GR100600000900009
0054703950253252000042911009+55367-131717NSRDB+002399999V020999999999999999999999999999+99999+99999999999ADDGP10060000002000000002000000002000GR100600000900009
0521703950253252000042916533+55367-131717FM-15+0023KTN  V0201405N00935010365MN0160005N1+00615+00285101345ADDAA101000021GD12995+0064059GD23995+0103659GD34995+0182959GF108991999999999999999999MA1101325999999MW1615OC101131REMMET168PAKT 291653Z 14018G22KT 10SM -RA SCT021 BKN034 OVC060 06/03 A2992 RMK AO2 PK WND 12029/1555 RAE1559B24 SLP134 HARBOR WND 12020G30KT ROOF WND 13035G40KT P0000 T00610028;EQDQ01+000003PRSWM1Q02    003PRSWM1N01 00020JPWTH 0QNNAA1D0 02021BA1 0 02021AA1D0 04034BA1 0 04034AA1D0 06060BA1 0 06060GA1 0 00034KA1D0 00037JA1 0 00028LA1 0 01000CA1 0 02992NA1 0 00020QA1 0 10134SA1D0 00043RA1 0 00061YA1 0 14018
0504703950253252000050111533+55367-131717FM-15+0023KTN  V0201705N00215007625MN0160005N1+00615+00445101105ADDAA106005391AA224078791GD13995+0076259GD23995+0091459GD34995+0259159GF108991999999999999999999KA1999M+00721KA2999N+00611MA1101085999999MD1110161+9999MW1001REMMET124PAKT 011153Z AUTO 17004KT 10SM BKN025 BKN030 OVC085 06/04 A2985 RMK AO2 SLP110 60021 70310 T00610044 10072 20061 51016 TSNO;EQDQ01+000000PRSWM2N01 00000JPWTH 0QNNAA1D0 04025BA1 0 04025AA1D0 04030BA1 0 04030AA1D0 06085BA1 0 06085GA1 0 00025KA1D0 00040JA1 0 00044LA1 0 01000CA1 0 02985NA1 0 00000QA1 0 10110SA1D0 00043RA1 0 00061YA1 0 17004
0238703950253252000050117234+55350-131700FM-16+0029PAKT V0201701N005710063019N9999999N1+00701+00501999999ADDGD12991+0036019GD24991+0063019GF108991999999999999999999MA1101391999999MW1651OC100981REMMET090PAKT 011723Z 17011G19KT 10SM +RA SCT012 OVC021 07/05 A2994 RMK AO2 WSHFT 1708 RAB17 P0005;EQDQ01+160932VODIS Q02+000003PRSWM1Q03    003PRSWM1
0071703950253252000050120009+55367-131717NSRDB+002399999V020999999999999999999999999999+99999+99999999999ADDGP10060072802013063302032026102013GQ100600426915329GR100600990913459
0071703950253252000050205009+55367-131717NSRDB+002399999V020999999999999999999999999999+99999+99999999999ADDGP10060000002013000002032000002013GQ100600887929659GR100600011905049
0054703950253252000050508009+55367-131717NSRDB+002399999V020999999999999999999999999999+99999+99999999999ADDGP10060000002000000002000000002000GR100600000900009
0448703950253252000050521533+55367-131717FM-15+0023KTN  V0201605N00365018295MN0160005N1+01065+00285101145ADDGD11995+0079259GD22995+0137259GD33995+0182959GF107991999999999999999999MA1101125999999MW1001REMMET130PAKT 052153Z 16007KT 140V240 10SM FEW026 SCT045 BKN060 11/03 A2986 RMK AO2 SLP114 HYR OVC LYR BINOVC HARBOR WND 19010KT T01060028;EQDQ01+000000PRSWM2N01 00000JPWTH 0QNNAA1D0 02026BA1 0 01026AA1D0 02045BA1 0 02045AA1D0 04060BA1 0 04060GA1 0 00060KA1D0 00037JA1 0 00028LA1 0 01000CA1 0 02986NA1 0 00000QA1 0 10114SA1D0 00051RA1 0 00106YA1 0 16007
0071703950253252000050605009+55367-131717NSRDB+002399999V020999999999999999999999999999+99999+99999999999ADDGP10060000002013000602032000002013GQ100600883929809GR100600020906829
0071703950253252000050719009+55367-131717NSRDB+002399999V020999999999999999999999999999+99999+99999999999ADDGP10060026502013002402032024902013GQ100600460913329GR100600931913419
0071703950253252000051319009+55367-131717NSRDB+002399999V020999999999999999999999999999+99999+99999999999ADDGP10060069102013069502032019502013GQ100600446913239GR100600952913379
0299703950253252000051614093+55350-131700FM-16+0029PAKT V02099999999990069019N0160931N1+00801+00601999999ADDGD12991+0039019GD23991+0069019GD34991+0096019GF108991999999999999999999GP10060000802013000002032000802013GQ100600839906439GR100600141913369MA1101351999999MW1001REMMET108PAKT 161409Z VRB03KT 10SM SCT013 BKN023 OVC032 08/06 A2993 RMK AO2 BINOVC HIR LYR OVC100 HARBOR WND 12005KT;EQDQ01+000000PRSWM2
0448703950253252000051618533+55367-131717FM-15+0023KTN  V0201205N00415010675MN0160005N1+01175+00445101175ADDGD12995+0070159GD23995+0106759GD34995+0304859GF108991999999999999999999MA1101195999999MW1001REMMET130PAKT 161853Z 12008KT 10SM SCT023 BKN035 OVC100 12/04 A2988 RMK AO2 SLP117 OVC PTLY THN SUN DMLY VSBL HARBOR WND 18010KT T01170044;EQDQ01+000000PRSWM2N01 00000JPWTH 0QNNAA1D0 02023BA1 0 02023AA1D0 04035BA1 0 04035AA1D0 06100BA1 0 06100GA1 0 00035KA1D0 00040JA1 0 00044LA1 0 01000CA1 0 02988NA1 0 00000QA1 0 10117SA1D0 00053RA1 0 00117YA1 0 12008
0489703950253252000051722533+55367-131717FM-15+0023KTN  V0201305N00675004885MN0112005N1+00835+00725101775ADDAA101000591GD12995+0024459GD23995+0048859GD34995+0067159GF108991999999999999999999KA1999M+99999MA1101765999999MW1615REMMET115PAKT 172253Z 13013KT 7SM -RA SCT008 BKN016 OVC022 08/07 A3005 RMK AO2 SLP177 HARBOR WND 10010G2OKT P0002 T00830072;EQDQ01+000003PRSWM1Q02    003PRSWM1Q03 +00102ATMX  N01 00020JPWTH 0QNNAA1D0 02008BA1 0 02008AA1D0 04016BA1 0 04016AA1D0 06022BA1 0 06022GA1 0 00016KA1D0 00045JA1 0 00072LA1 0 00700CA1 0 03005NA1 0 00020QA1 0 10177SA1D0 00047RA1 0 00083YA1 0 13013
0419703950253252000052012533+55367-131717FM-15+0023KTN  V0201705N00265008235MN0096005N1+00565+00445102135ADDAA101000591GD11995+0054959GD24995+0082359GF108991999999999999999999MA1102135999999MW1101MW2455MW3615REMMET099PAKT 201253Z AUTO 17005KT 6SM -RA BR FEW018 OVC027 06/04 A3016 RMK AO2 SLP213 P0002 T00560044 TSNO;EQDQ01+000003PRSWM1Q02    003PRSWM1N01 02070JPWTH 0QNNAA1D0 02018BA1 0 01018AA1D0 06027BA1 0 06027GA1 0 00027KA1D0 00040JA1 0 00044LA1 0 00600CA1 0 03016NA1 0 02070QA1 0 10213SA1D0 00042RA1 0 00056YA1 0 17005
0054703950253252000052309009+55367-131717NSRDB+002399999V020999999999999999999999999999+99999+99999999999ADDGP10060000002000000002000000002000GR100600000900009
0457703950253252000052402533+55367-131717FM-15+0023KTN  V0201305N00265008535MN0112005N1+00565+00395102235ADDAA101002391AA203002891GD12995+0051859GD24995+0085359GF108991999999999999999999MA1102245999999MD1510091+9999MW1635REMMET124PAKT 240253Z 13005KT 7SM RA SCT017 OVC028 06/04 A3019 RMK AO2 RAB0159 SLP223 HARBOR WND 19005KT P0009 60011 T00560039 55009;EQDQ01+000003PRSWM1Q02    003PRSWM1N01 00021JPWTH 0QNNAA1D0 02017BA1 0 02017AA1D0 06028BA1 0 06028GA1 0 00028KA1D0 00039JA1 0 00039LA1 0 00700CA1 0 03019NA1 0 00021QA1 0 10223SA1D0 00042RA1 0 00056YA1 0 13005
0164703950253252000052615534+55350-131700FM-15+0029PAKT V0203401N004112200019N0160931N1+00901+00301100961ADDGF100991999999999999999999MA1100951999999MW1001REMMET086PAKT 261553Z 34008KT 10SM CLR 09/03 A2981 RMK AO2 SLP096 HARBOR WND VRB03KT T00940028;EQDQ01+000000PRSWM2
0479703950253252000053017533+55367-131717FM-15+0023KTN  V0203405N00465018295MN0160005N1+01225+00565102495ADDGD11995+0076259GD22995+0137259GD33995+0182959GF107991999999999999999999KA1999M+01221KA2999N+00561MA1102475999999MD1810011+9999MW1001REMMET121PAKT 301753Z 34009KT 10SM FEW025 SCT045 BKN060 12/06 A3026 RMK AO2 SLP249 HARBOR WND 32017KT T01220056 10122 20056 58001;EQDQ01+000000PRSWM2N01 00000JPWTH 0QNNAA1D0 02025BA1 0 01025AA1D0 02045BA1 0 02045AA1D0 04060BA1 0 04060GA1 0 00060KA1D0 00042JA1 0 00056LA1 0 01000CA1 0 03026NA1 0 00000QA1 0 10249SA1D0 00054RA1 0 00122YA1 0 34009
0072703950253252000060123534+55350-131700FM-16+0029PAKT V02099999999992200019N0024141N1+99999+99999999999ADDMW1001REMMET035PAKT 012253Z A3019 RMK AO2 SLPNO $;EQDQ01+000000PRSWM2
0071703950253252000060223009+55367-131717NSRDB+002399999V020999999999999999999999999999+99999+99999999999ADDGP10060038002013003002032035602013GQ100600385922119GR100601039913289
0071703950253252000060413009+55367-131717NSRDB+002399999V020999999999999999999999999999+99999+99999999999ADDGP10060000402013000002032000402013GQ100600877905149GR100600043910509
0416703950253252000060511533+55367-131717FM-15+0023KTN  V0203305N00465025915MN0160005N1+01225+01065100815ADDAA106000021AA224000391GD14995+0259159GF108991999999999999999999KA1999M+01281KA2999N+01221MA1100815999999MD1810211+9999MW1001REMMET110PAKT 051153Z AUTO 33009KT 10SM OVC085 12/11 A2977 RMK AO2 SLP081 60000 70001 T01220106 10128 20122 58021 TSNO;EQDQ01+000000PRSWM2N01 00000JPWTH 0QNNAA1D0 06085BA1 0 06085GA1 0 00085KA1D0 00051JA1 0 00106LA1 0 01000CA1 0 02977NA1 0 00000QA1 0 10081SA1D0 00054RA1 0 00122YA1 0 33009
0071703950253252000060601009+55367-131717NSRDB+002399999V020999999999999999999999999999+99999+99999999999ADDGP10060019802013000002032019802013GQ100600525925509GR100600808913269
0479703950253252000060601533+55367-131717FM-15+0023KTN  V0201405N00575006405MN0160005N1+01225+01065101065ADDAA101000391GD12995+0039659GD23995+0064059GD34995+0106759GF108991999999999999999999KA1999M+99999MA1101055999999MW1001REMMET121PAKT 060153Z 14011KT 10SM SCT013 BKN021 OVC035 12/11 A2984 RMK AO2 RAE12B30E44 SLP106 HARBOR WND 11008KT P0001 T01220106;EQDQ01+000000PRSWM2Q02 -00082ATMX  N01 00000JPWTH 0QNNAA1D0 02013BA1 0 02013AA1D0 04021BA1 0 04021AA1D0 06035BA1 0 06035GA1 0 00021KA1D0 00051JA1 0 00106LA1 0 01000CA1 0 02984NA1 0 00000QA1 0 10106SA1D0 00054RA1 0 00122YA1 0 14011
0377703950253252000060618533+55367-131717FM-15+0023KTN  V0201205N00265007325MN0160005N1+01335+00835101595ADDGD13995+0073259GD24995+0106759GF108991999999999999999999MA1101595999999MW1001REMMET096PAKT 061853Z 12005KT 10SM BKN024 OVC035 13/08 A3000 RMK AO2 SLP159 HARBOR WND 05006KT T01330083;EQDQ01+000000PRSWM2N01 00000JPWTH 0QNNAA1D0 04024BA1 0 04024AA1D0 06035BA1 0 06035GA1 0 00024KA1D0 00047JA1 0 00083LA1 0 01000CA1 0 03000NA1 0 00000QA1 0 10159SA1D0 00056RA1 0 00133YA1 0 12005
0399703950253252000060805533+55367-131717FM-15+0023KTN  V0201705N00155024385MN0160005N1+01175+01005101455ADDAA106006691GD14995+0243859GF108991999999999999999999KA1999M+01441KA2999N+01171MA1101465999999MD1810051+9999MW1001REMMET104PAKT 080553Z AUTO 17003KT 10SM OVC080 12/10 A2996 RMK AO2 SLP145 60026 T01170100 10144 20117 58005 TSNO;EQDQ01+000000PRSWM2N01 00000JPWTH 0QNNAA1D0 06080BA1 0 06080GA1 0 00080KA1D0 00050JA1 0 00100LA1 0 01000CA1 0 02996NA1 0 00000QA1 0 10145SA1D0 00053RA1 0 00117YA1 0 17003
0071703950253252000060816009+55367-131717NSRDB+002399999V020999999999999999999999999999+99999+99999999999ADDGP10060021802013006302032019102013GQ100600651908529GR100600557913259
0054703950253252000060907009+55367-131717NSRDB+002399999V020999999999999999999999999999+99999+99999999999ADDGP10060000002000000002000000002000GR100600000900009
0071703950253252000061013009+55367-131717NSRDB+002399999V020999999999999999999999999999+99999+99999999999ADDGP10060000702013001002032000702013GQ100600875905059GR100600049911379
0333703950253252000061216533+55367-131717FM-15+0023KTN  V0203405N00525220005MN0160005N1+01565+00615100275ADDGD11995+0182959GF102991999999999999999999MA1100275999999MW1001REMMET089PAKT 121653Z 34010KT 10SM FEW060 16/06 A2961 RMK AO2 SLP027 HARBOR WND 00000KT T01560061;EQDQ01+000000PRSWM2N01 00000JPWTH 0QNNAA1D0 02060BA1 0 01060GA1U0 99999KA1D0 00043JA1 0 00061LA1 0 01000CA1 0 02961NA1 0 00000QA1 0 10027SA1D0 00060RA1 0 00156YA1 0 34010
0071703950253252000061713009+55367-131717NSRDB+002399999V020999999999999999999999999999+99999+99999999999ADDGP10060000302013000002032000302013GQ100600875905009GR100600051911589
0071703950253252000061904009+55367-131717NSRDB+002399999V020999999999999999999999999999+99999+99999999999ADDGP10060007002013000002032007002013GQ100600765929199GR100600309913239
0071703950253252000062023009+55367-131717NSRDB+002399999V020999999999999999999999999999+99999+99999999999ADDGP10060034102013001802032032702013GQ100600371922069GR100601054913229
0384703950253252000062515533+55367-131717FM-15+0023KTN  V0203205N00215022865MN0160005N1+01505+01175102905ADDGD13995+0228659GD24995+0335359GF108991999999999999999999MA1102885999999MW1001REMMET103PAKT 251553Z 32004KT 10SM BKN075 OVC110 15/12 A3038 RMK AO2 SLP290 BINOVC HARBOR WND 00000KT T01500117;EQDQ01+000000PRSWM2N01 00000JPWTH 0QNNAA1D0 04075BA1 0 04075AA1D0 06110BA1 0 06110GA1 0 00075KA1D0 00053JA1 0 00117LA1 0 01000CA1 0 03038NA1 0 00000QA1 0 10290SA1D0 00059RA1 0 00150YA1 0 32004
0203703950253252000062819054+55340-131700FM-15+0029PAKT V02099999999990270019N0160931N1+01901+01401999999ADDGD12991+0135019GD23991+0270019GD34991+0360019GF108991999999999999999999MA1101491999999MW1001REMMET080PAKT 281905Z 11009 10SM SCT045 BKN095 OVC120 19/14 A2997 RMK HARBOR WND 12008KT;EQDQ01+000000PRSWM2
0071703950253252000062922009+55367-131717NSRDB+002399999V020999999999999999999999999999+99999+99999999999ADDGP10060068202013034902032038902013GQ100600332919679GR100601106913219
0071703950253252000070613009+55367-131717NSRDB+002399999V020999999999999999999999999999+99999+99999999999ADDGP10060000102013000002032000102013GQ100600880905069GR100600033909369
0071703950253252000070805009+55367-131717NSRDB+002399999V020999999999999999999999999999+99999+99999999999ADDGP10060000002013000002032000002013GQ100600843930249GR100600131913219
0368703950253252000070807533+55367-131717FM-15+0023KTN  V0201905N00215001835MN0160005N1+01225+01175101765ADDGD13995+0018359GD23995+0149459GF107991999999999999999999MA1101765999999MW1001REMMET087PAKT 080753Z AUTO 19004KT 10SM BKN006 BKN049 12/12 A3005 RMK AO2 SLP176 T01220117 TSNO;EQDQ01+000000PRSWM2N01 00000JPWTH 0QNNAA1D0 04006BA1 0 04006AA1D0 04049BA1 0 04049GA1 0 00006KA1D0 00053JA1 0 00117LA1 0 01000CA1 0 03005NA1 0 00000QA1 0 10176SA1D0 00054RA1 0 00122YA1 0 19004
0324703950253252000071004533+55367-131717FM-15+0023KTN  V0201405N00155007625MN0160005N1+01505+01285101835ADDGD14995+0076259GF108991999999999999999999MA1101835999999MW1001REMMET080PAKT 100453Z AUTO 14003KT 10SM OVC025 15/13 A3007 RMK AO2 SLP183 T01500128 TSNO;EQDQ01+000000PRSWM2N01 00000JPWTH 0QNNAA1D0 06025BA1 0 06025GA1 0 00025KA1D0 00055JA1 0 00128LA1 0 01000CA1 0 03007NA1 0 00000QA1 0 10183SA1D0 00059RA1 0 00150YA1 0 14003
0071703950253252000071022009+55367-131717NSRDB+002399999V020999999999999999999999999999+99999+99999999999ADDGP10060031302013001802032029802013GQ100600341919569GR100601094913229
0071703950253252000071120009+55367-131717NSRDB+002399999V020999999999999999999999999999+99999+99999999999ADDGP10060055302013024502032035702013GQ100600369914719GR100601057913229
0324703950253252000071407533+55367-131717FM-15+0023KTN  V0201605N00215004885MN0160005N1+01335+01225101885ADDGD14995+0048859GF108991999999999999999999MA1101865999999MW1001REMMET080PAKT 140753Z AUTO 16004KT 10SM OVC016 13/12 A3008 RMK AO2 SLP188 T01330122 TSNO;EQDQ01+000000PRSWM2N01 00000JPWTH 0QNNAA1D0 06016BA1 0 06016GA1 0 00016KA1D0 00054JA1 0 00122LA1 0 01000CA1 0 03008NA1 0 00000QA1 0 10188SA1D0 00056RA1 0 00133YA1 0 16004
0412703950253252000071412533+55367-131717FM-15+0023KTN  V0209999C00005024385MN0160005N1+01335+01225102025ADDGD12995+0027459GD22995+0182959GD34995+0243859GF108991999999999999999999MA1102035999999MW1001REMMET094PAKT 141253Z AUTO 00000KT 10SM SCT009 SCT060 OVC080 13/12 A3013 RMK AO2 SLP202 T01330122 TSNO;EQDQ01+000000PRSWM2N01 00000JPWTH 0QNNAA1D0 02009BA1 0 02009AA1D0 02060BA1 0 02060AA1D0 06080BA1 0 06080GA1 0 00080KA1D0 00054JA1 0 00122LA1 0 01000CA1 0 03013NA1 0 00000QA1 0 10202SA1D0 00056RA1 0 00133YA1 0 00000
0071703950253252000071621009+55367-131717NSRDB+002399999V020999999999999999999999999999+99999+99999999999ADDGP10060052602013016202032039302013GQ100600346917069GR100601089913229
0071703950253252000071823009+55367-131717NSRDB+002399999V020999999999999999999999999999+99999+99999999999ADDGP10060020902013000002032020902013GQ100600391921749GR100601026913239
0282703950253252000071915534+55340-131700FM-15+0029PAKT V0201401N005710030019N0032181N1+01401+01301101821ADDAA101002391GD12991+0015019GD23991+0030019GD34991+0063019GF108991999999999999999999MA1101831999999MW1101MW2611OC100931REMMET118PAKT 191553Z 14011G18KT 2SM -RA BR SCT005 BKN010 OVC021 14/13 A3007 RMK AO2 SLP182 HARBOR WND 17007KT P0009 T01440133;EQDQ01+000003PRSWM1Q02    003PRSWM1
0475703950253252000072318533+55367-131717FM-15+0023KTN  V0201305N00575001835MN0032005N1+01505+01445101955ADDAA101001891GD13995+0018359GD23995+0027459GD34995+0048859GF108991999999999999999999MA1101935999999MW1101MW2455MW3615REMMET118PAKT 231853Z COR 13011KT 2SM -RA BR BKN006 BKN009 OVC016 15/14 A3010 RMKHARBOR WND 14010KT AO2 SLP195 P0007 T01500144;EQDQ01+000003PRSWM1Q02    003PRSWM1N01 02070JPWTH 0QNNAA1D0 04006BA1 0 04006AA1D0 04009BA1 0 04009AA1D0 06016BA1 0 06016GA1 0 00006KA1D0 00058JA1 0 00144LA1 0 00200CA1 0 03010NA1 0 02070QA1 0 10195SA1D0 00059RA1 0 00150YA1 0 13011
0071703950253252000073021009+55367-131717NSRDB+002399999V020999999999999999999999999999+99999+99999999999ADDGP10060018502013000002032018502013GQ100600375917099GR100601052913269
0071703950253252000073102009+55367-131717NSRDB+002399999V020999999999999999999999999999+99999+99999999999ADDGP10060006002013000002032006002013GQ100600633926359GR100600595913269
0450703950253252000080203533+55367-131717FM-15+0023KTN  V0201405N00215033535MN0160005N1+01335+01065102635ADDGD12995+0067159GD22995+0152459GD34995+0335359GF108991999999999999999999KA1999M+99999MA1102645999999MW1001REMMET103PAKT 020353Z 14004KT 10SM SCT022 SCT050 OVC110 13/11 A3031 RMK AO2 SLP263 HARBOR WND 10005KT T01330106;EQDQ01+000000PRSWM2Q02 +00052ATMX  N01 00000JPWTH 0QNNAA1D0 02022BA1 0 02022AA1D0 02050BA1 0 02050AA1D0 06110BA1 0 06110GA1 0 00110KA1D0 00051JA1 0 00106LA1 0 01000CA1 0 03031NA1 0 00000QA1 0 10263SA1D0 00056RA1 0 00133YA1 0 14004
0306703950253252000080210533+55367-131717FM-15+0023KTN  V0209999V00215220005MN0160005N1+00945+00895102585ADDGF100991999999999999999999MA1102575999999MW1001REMMET077PAKT 021053Z AUTO VRB04KT 10SM CLR 09/09 A3029 RMK AO2 SLP258 T00940089 TSNO;EQDQ01+000000PRSWM2N01 00000JPWTH 0QNNAA1D0 00000BA1 0 00000GA1U0 99999KA1D0 00048JA1 0 00089LA1 0 01000CA1 0 03029NA1 0 00000QA1 0 10258SA1D0 00049RA1 0 00094YA1 0 00004
0071703950253252000080900009+55367-131717NSRDB+002399999V020999999999999999999999999999+99999+99999999999ADDGP10060012602013000002032012602013GQ100600497923319GR100600859913299
0292703950253252000081121003+55367-131717FM-15+0023KTN  V0203405N00415015245MN016000599+01785+01115102105ADDGD11995+0085359GD23995+0152459GP10060074102013070202032020902013GQ100600407917199GR100601008913309MA1102105999999EQDN01 00000JPWTH 0QNNAA1D0 02028BA1 0 01028AA1D0 04050BA1 0 04050GA1 0 00050KA1D0 00052JA1 0 00111LA1 0 01000CA1 0 03015NA1 0 00000QA1 0 10210SA1D0 00064RA1 0 00178YA1 0 34008
0054703950253252000081208009+55367-131717NSRDB+002399999V020999999999999999999999999999+99999+99999999999ADDGP10060000002000000002000000002000GR100600000900009
0442703950253252000081211533+55367-131717FM-15+0023KTN  V0203205N00215013725MN0160005N1+01225+00895102345ADDGD11995+0091459GD24995+0137259GF108991999999999999999999KA1999M+01441KA2999N+01221MA1102345999999MD1410001+9999MW1001REMMET105PAKT 121153Z AUTO 32004KT 10SM FEW030 OVC045 12/09 A3022 RMK AO2 SLP234 T01220089 10144 20122 58000 TSNO;EQDQ01+000082APCTENQ02+000000PRSWM2N01 00000JPWTH 0QNNAA1D0 02030BA1 0 01030AA1D0 06045BA1 0 06045GA1 0 00045KA1D0 00048JA1 0 00089LA1 0 01000CA1 0 03022NA1 0 00000QA1 0 10234SA1D0 00054RA1 0 00122YA1 0 32004
0071703950253252000081223009+55367-131717NSRDB+002399999V020999999999999999999999999999+99999+99999999999ADDGP10060026802013001202032025902013GQ100600450921469GR100600941913319
0054703950253252000081308009+55367-131717NSRDB+002399999V020999999999999999999999999999+99999+99999999999ADDGP10060000002000000002000000002000GR100600000900009
0380703950253252000081311533+55367-131717FM-15+0023KTN  V0203205N00155220005MN0160005N1+00835+00725102175ADDGF100991999999999999999999KA1999M+01441KA2999N+00831MA1102175999999MD1410001+9999MW1001REMMET095PAKT 131153Z AUTO 32003KT 10SM CLR 08/07 A3017 RMK AO2 SLP217 T00830072 10144 20083 58000 TSNO;EQDQ01+000082APCTENQ02+000000PRSWM2N01 00000JPWTH 0QNNAA1D0 00000BA1 0 00000GA1U0 99999KA1D0 00045JA1 0 00072LA1 0 01000CA1 0 03017NA1 0 00000QA1 0 10217SA1D0 00047RA1 0 00083YA1 0 32003
0054703950253252000081410009+55367-131717NSRDB+002399999V020999999999999999999999999999+99999+99999999999ADDGP10060000002000000002000000002000GR100600000900009
0071703950253252000081517009+55367-131717NSRDB+002399999V020999999999999999999999999999+99999+99999999999ADDGP10060008502013000002032008502013GQ100600647910279GR100600569913329
0071703950253252000081520009+55367-131717NSRDB+002399999V020999999999999999999999999999+99999+99999999999ADDGP10060022602013000602032022202013GQ100600446915149GR100600949913329
0392703950253252000081813533+55367-131717FM-15+0023KTN  V0209999C00005021345MN0080005N1+01115+01065100925ADDGD11995+0009159GD24995+0213459GF108991999999999999999999MA1100915999999MW1101MW2455REMMET089PAKT 181353Z AUTO 00000KT 5SM BR FEW003 OVC070 11/11 A2980 RMK AO2 SLP092 T01110106 TSNO;EQDQ01+000003PRSWM1Q02    003PRSWM1N01 00070JPWTH 0QNNAA1D0 02003BA1 0 01003AA1D0 06070BA1 0 06070GA1 0 00070KA1D0 00051JA1 0 00106LA1 0 00500CA1 0 02980NA1 0 00070QA1 0 10092SA1D0 00052RA1 0 00111YA1 0 00000
0533703950253252000082011533+55367-131717FM-15+0023KTN  V0201305N00775002135MN0080005N1+01225+01175101135ADDAA101001891AA206007691AA324017391GD13995+0021359GD24995+0036659GF108991999999999999999999KA1999M+01281KA2999N+01221MA1101125999999MD1610101+9999MW1101MW2455MW3635OC100981REMMET143PAKT 201153Z AUTO 13015G19KT 5SM RA BR BKN007 OVC012 12/12 A2986 RMK AO2 CIG 005V011 SLP113 P0007 60030 70068 T01220117 10128 20122 56010 TSNO;EQDQ01+000003PRSWM1Q02    003PRSWM1N01 02170JPWTH 0QNNAA1D0 04007BA1 0 04007AA1D0 06012BA1 0 06012GA1 0 00007KA1D0 00053JA1 0 00117LA1 0 00500CA1 0 02986NA1 0 02170QA1 0 10113SA1D0 00054RA1 0 00122YA1 0 13015
0496703950253252000082206533+55367-131717FM-15+0023KTN  V0201305N01035005185MN0040005N1+01285+01175100735ADDAA101008491GD11995+0033559GD23995+0051859GD34995+0097559GF108991999999999999999999MA1100755999999MW1101MW2455MW3655OC101651REMMET131PAKT 220653Z AUTO 13020G32KT 2 1/2SM +RA BR FEW011 BKN017 OVC032 13/12 A2975 RMK AO2 PK WND 15032/0649 SLP073 P0033 T01280117 TSNO;EQDQ01+000003PRSWM1Q02    003PRSWM1N01 02270JPWTH 0QNNAA1D0 02011BA1 0 01011AA1D0 04017BA1 0 04017AA1D0 06032BA1 0 06032GA1 0 00017KA1D0 00053JA1 0 00117LA1 0 00250CA1 0 02975NA1 0 02270QA1 0 10073SA1D0 00055RA1 0 00128YA1 0 13020
0227703950253252000082220194+55340-131700FM-16+0029PAKT V0201401N003110006019N0064371N1+01401+01301999999ADDGD12991+0003019GD23991+0006019GD34991+0012019GF108991999999999999999999MA1100981999999MW1101REMMET088PAKT 222019Z 14006KT 4SM BR SCT001 BKN002 OVC004 14/13 A2982 RMK AO2 HARBOR WND 00000KT;EQDQ01+000003PRSWM1Q02    003PRSWM1
0431703950253252000082304533+55367-131717FM-15+0023KTN  V0209999V00155009755MN0160005N1+01285+01175101275ADDGD11995+0021359GD23995+0097559GD34995+0152459GF108991999999999999999999MA1101255999999MW1001REMMET113PAKT 230453Z AUTO VRB03KT 10SM FEW007 BKN032 OVC050 13/12 A2990 RMK AO2 SLP127 HARBOR WND VRB03KT T01280117 TSNO;EQDQ01+000000PRSWM2N01 00000JPWTH 0QNNAA1D0 02007BA1 0 01007AA1D0 04032BA1 0 04032AA1D0 06050BA1 0 06050GA1 0 00032KA1D0 00053JA1 0 00117LA1 0 01000CA1 0 02990NA1 0 00000QA1 0 10127SA1D0 00055RA1 0 00128YA1 0 00003
0377703950253252000082400533+55367-131717FM-15+0023KTN  V0209999C00005220005MN0160005N1+01785+00835101695ADDGD11995+0213459GD22995+0365859GF104991999999999999999999MA1101695999999MW1001REMMET096PAKT 240053Z 00000KT 10SM FEW070 SCT120 18/08 A3003 RMK AO2 SLP169 HARBOR WND 28005KT T01780083;EQDQ01+000000PRSWM2N01 00000JPWTH 0QNNAA1D0 02070BA1 0 01070AA1D0 02120BA1 0 02120GA1U0 99999KA1D0 00047JA1 0 00083LA1 0 01000CA1 0 03003NA1 0 00000QA1 0 10169SA1D0 00064RA1 0 00178YA1 0 00000
0709703950253252000082408596+55357-131711SOD  +0029PAKT V020999999999999999999999999999+99999+99999999999ADDAA124000096AT1MW01FG  5AT2MW13BR  1KA1240M+01785KA2240N+00725MG1101199999994OE11240067133012005OE22240058132012025OE33240013999999995REMSOD54524 HR PRECIPITATION (IN): 0.00 24 HR MAX TEMP (F): 6424 HR MAX TEMP TIME (LST):1611 24 HR MIN TEMP (F): 4524 HR MIN TEMP TIME (LST):2306 AVERAGE STATION PRESSURE:29.88  PEAK WIND SPEED (MPH): 15 PEAK WIND DIR (DEG):330 PEAK WIND TIME (LST):1200  FASTEST 2MIN SPEED (MPH): 13FASTEST 2MIN DIR (DEG):320 FASTEST 2MIN TIME (LST):1202 AVERAGE WIND SPEED (MPH): 3.1 24 HR AVG TEMP (F):55 HOURLY INCREMENTAL PRECIPITATION VALUES (IN):.00  .00  .00  .00  .00  .00  .00  .00  .00  .00  .00  .00  .00  .00  .00  .00  .00  .00  .00  .00  .00  .00  .00  .00EQDR01  0.007AAP092
0071703950253252000082621009+55367-131717NSRDB+002399999V020999999999999999999999999999+99999+99999999999ADDGP10060067702013075602032014602013GQ100600455917369GR100600937913389
0456703950253252000082622533+55367-131717FM-15+0023KTN  V0203605N00415019815MN0160005N1+01505+00785101655ADDAA101000021GD12995+0137259GD23995+0198159GD34995+0243859GF108991999999999999999999MA1101665999999MW1001REMMET127PAKT 262253Z 36008KT 10SM SCT045 BKN065 OVC080 15/08 A3002 RMK AO2 RAB2154E19 SLP165 BINOVC HARBOR WND 31005KT P0000 T01500078;EQDQ01+000000PRSWM2N01 00000JPWTH 0QNNAA1D0 02045BA1 0 02045AA1D0 04065BA1 0 04065AA1D0 06080BA1 0 06080GA1 0 00065KA1D0 00046JA1 0 00078LA1 0 01000CA1 0 03002NA1 0 00000QA1 0 10165SA1D0 00059RA1 0 00150YA1 0 36008
0054703950253252000082711009+55367-131717NSRDB+002399999V020999999999999999999999999999+99999+99999999999ADDGP10060000002000000002000000002000GR100600000900009
0431703950253252000082918533+55367-131717FM-15+0023KTN  V0203305N00415007325MN0160005N1+01565+01285101845ADDGD11995+0018359GD23995+0073259GD33995+0152459GF107991999999999999999999MA1101835999999MW1001REMMET113PAKT 291853Z 33008KT 10SM FEW006 BKN024 BKN050 16/13 A3007 RMK AO2 SLP184 CIG HIR W HARBOR WND 17004KT T01560128;EQDQ01+000000PRSWM2N01 00000JPWTH 0QNNAA1D0 02006BA1 0 01006AA1D0 04024BA1 0 04024AA1D0 04050BA1 0 04050GA1 0 00024KA1D0 00055JA1 0 00128LA1 0 01000CA1 0 03007NA1 0 00000QA1 0 10184SA1D0 00060RA1 0 00156YA1 0 33008
0054703950253252000083009009+55367-131717NSRDB+002399999V020999999999999999999999999999+99999+99999999999ADDGP10060000002000000002000000002000GR100600000900009
0071703950253252000090103009+55367-131717NSRDB+002399999V020999999999999999999999999999+99999+99999999999ADDGP10060012902013030002032008102013GQ100600808927129GR100600215913429
0406703950253252000090523533+55367-131717FM-15+0023KTN  V0209999V00155169475MN0160005N1+01505+00835102235ADDGD13995+0167659GF107991999999999999999999KA1999M+01611KA2999N+01441MA1102245999999MD1110011+9999MW1001REMMET122PAKT 052353Z VRB03KT 10SM BKN055 15/08 A3019 RMK AO2 SLP223 HARBOR WND VRB05KT THN BKN CIRRUS T01500083 10161 20144 51001;EQDQ01+000000PRSWM2N01 00000JPWTH 0QNNAA1D0 04055BA1 0 04055GA1 0 00556KA1D0 00047JA1 0 00083LA1 0 01000CA1 0 03019NA1 0 00000QA1 0 10223SA1D0 00059RA1 0 00150YA1 0 00003
0253703950253252000090714124+55340-131700FM-16+0029PAKT V0201401N004110030019N0112651N1+01001+00901999999ADDGD13991+0030019GD23991+0045019GD34991+0066019GF108991999999999999999999MA1099861999999MW1631REMMET114PAKT 071412Z 14008KT 7SM RA BKN010 BKN015 OVC022 10/09 A2949 RMK AO2 HARBOR WND 13010KT ROOF WND 14020G25KT P0003;EQDQ01+000003PRSWM1Q02    003PRSWM1
0434703950253252000090722533+55367-131717FM-15+0023KTN  V0201405N00415010675MN0064005N1+01115+01005099415ADDAA101000391GD11995+0042759GD24995+0106759GF108991999999999999999999MA1099425999999MW1101MW2455MW3615REMMET114PAKT 072253Z 14008KT 4SM -RA BR FEW014 OVC035 11/10 A2936 RMK AO2 RAB38 SLP941 HARBOR WND 14005KT P0001 T01110100;EQDQ01+000003PRSWM1Q02    003PRSWM1N01 02070JPWTH 0QNNAA1D0 02014BA1 0 01014AA1D0 06035BA1 0 06035GA1 0 00035KA1D0 00050JA1 0 00100LA1 0 00400CA1 0 02936NA1 0 02070QA1 0 09941SA1D0 00052RA1 0 00111YA1 0 14008
0334703950253252000091002533+55367-131717FM-15+0023KTN  V0202805N00155018295MN0160005N1+00945+00835100535ADDGD13995+0182959GF107991999999999999999999MA1100515999999MD1310171+9999MW1001REMMET076PAKT 100253Z 28003KT 10SM BKN060 09/08 A2968 RMK AO2 SLP053 T00940083 53017;EQDQ01+000000PRSWM2N01 00000JPWTH 0QNNAA1D0 04060BA1 0 04060GA1 0 00060KA1D0 00047JA1 0 00083LA1 0 01000CA1 0 02968NA1 0 00000QA1 0 10053SA1D0 00049RA1 0 00094YA1 0 28003
0071703950253252000091119009+55367-131717NSRDB+002399999V020999999999999999999999999999+99999+99999999999ADDGP10060011602013000002032011602013GQ100600578913979GR100600720913499
0413703950253252000091523533+55367-131717FM-15+0023KTN  V0201505N00215220005MN0160005N1+01225+00835101425ADDGD12995+0304859GF104991999999999999999999KA1999M+01441KA2999N+01061MA1101425999999MD1810061+9999MW1001REMMET129PAKT 152353Z 15004KT 10SM SCT100 12/08 A2995 RMK AO2 SLP142 SCT V BKN HYR OVC LYR HARBOR WND VRB03KT T01220083 10144 20106 58006;EQDQ01+000000PRSWM2N01 00000JPWTH 0QNNAA1D0 02100BA1 0 02100GA1U0 99999KA1D0 00047JA1 0 00083LA1 0 01000CA1 0 02995NA1 0 00000QA1 0 10142SA1D0 00054RA1 0 00122YA1 0 15004
0071703950253252000091616009+55367-131717NSRDB+002399999V020999999999999999999999999999+99999+99999999999ADDGP10060001702013000002032001702013GQ100600811909879GR100600209913539
0071703950253252000091823009+55367-131717NSRDB+002399999V020999999999999999999999999999+99999+99999999999ADDGP10060049002013070002032012202013GQ100600583921269GR100600711913549
0364703950253252000092205533+55367-131717FM-15+0023KTN  V0203005N00265220005MN0160005N1+00945+00675102375ADDGF100991999999999999999999KA1999M+01561KA2999N+00941MA1102375999999MD1810021+9999MW1001REMMET095PAKT 220553Z AUTO 30005KT 10SM CLR 09/07 A3023 RMK AO2 SLP237 T00940067 10156 20094 58002 TSNO;EQDQ01+000000PRSWM2N01 00000JPWTH 0QNNAA1D0 00000BA1 0 00000GA1U0 99999KA1D0 00044JA1 0 00067LA1 0 01000CA1 0 03023NA1 0 00000QA1 0 10237SA1D0 00049RA1 0 00094YA1 0 30005
0306703950253252000092209533+55367-131717FM-15+0023KTN  V0203205N00315220005MN0160005N1+00895+00675102295ADDGF100991999999999999999999MA1102275999999MW1001REMMET077PAKT 220953Z AUTO 32006KT 10SM CLR 09/07 A3020 RMK AO2 SLP229 T00890067 TSNO;EQDQ01+000000PRSWM2N01 00000JPWTH 0QNNAA1D0 00000BA1 0 00000GA1U0 99999KA1D0 00044JA1 0 00067LA1 0 01000CA1 0 03020NA1 0 00000QA1 0 10229SA1D0 00048RA1 0 00089YA1 0 32006
0054703950253252000092705009+55367-131717NSRDB+002399999V020999999999999999999999999999+99999+99999999999ADDGP10060000002000000002000000002000GR100600000900009
0776703950253252000092908596+55357-131711SOD  +0029PAKT V020999999999999999999999999999+99999+99999999999ADDAA124073995AT1MW16RA  5AT2MW01FG  5AT3MW13BR  1GJ100005GK10005KA1240M+01335KA2240N+01225MG1099939999994OE11240116214000385OE22240093913000265OE33240045699999995REMSOD60424 HR PRECIPITATION (IN): 2.91 TOTAL SUNSHINE (MINUTES):   0 PERCENT POSSIBLE SUNSHINE:  0 24 HR MAX TEMP (F): 5624 HR MAX TEMP TIME (LST):1454 24 HR MIN TEMP (F): 5424 HR MIN TEMP TIME (LST):2359 AVERAGE STATION PRESSURE:29.51  PEAK WIND SPEED (MPH): 26 PEAK WIND DIR (DEG):140 PEAK WIND TIME (LST):0038  FASTEST 2MIN SPEED (MPH): 21FASTEST 2MIN DIR (DEG):130 FASTEST 2MIN TIME (LST):0026 AVERAGE WIND SPEED (MPH):10.2 24 HR AVG TEMP (F):55 HOURLY INCREMENTAL PRECIPITATION VALUES (IN): T   .10  .04  .02  .08  .00  .14  .11  .18  .13  .20  .33  .29  .24  .20  .11  .06  .03  .17  .17  .08  .11  .06   T
0411703950253252000092919533+55367-131717FM-15+0023KTN  V0201505N00525021345MN0160005N1+01285+00785100021ADDGD11995+0085359GD22995+0115859GD33995+0213459GF107991999999999999999999MA1100005999999MW1001REMMET104PAKT 291953Z 15010KT 10SM FEW028 SCT038 BKN070 13/08 A2953 RMK AO2 SLP002 HARBOR WIND 14011KT T01280078;EQDQ01+000000PRSWM2N01 00000JPWTH 0QNNAA1D0 02028BA1 0 01028AA1D0 02038BA1 0 02038AA1D0 04070BA1 0 04070GA1 0 00070KA1D0 00046JA1 0 00078LA1 0 01000CA1 0 02953NA1 0 00000SA1D0 00055RA1 0 00128YA1 0 15010
0071703950253252000100103009+55367-131717NSRDB+002399999V020999999999999999999999999999+99999+99999999999ADDGP10060000002013000002032000002013GQ100600887926289GR100600011904899
0054703950253252000100109009+55367-131717NSRDB+002399999V020999999999999999999999999999+99999+99999999999ADDGP10060000002000000002000000002000GR100600000900009
0391703950253252000100222533+55367-131717FM-15+0023KTN  V0209999C00005220005MN0160005N1+00945+00005102535ADDGD12995+0137259GD22995+0243859GF104991999999999999999999MA1102515999999MW1001REMMET110PAKT 022253Z 00000KT 10SM SCT045 SCT080 09/00 A3027 RMK AO2 SLP253 HIR CIR LAYER HARBOR WND 00000KT T00940000;EQDQ01+000000PRSWM2N01 00000JPWTH 0QNNAA1D0 02045BA1 0 02045AA1D0 02080BA1 0 02080GA1U0 99999KA1D0 00032JA1 0 00000LA1 0 01000CA1 0 03027NA1 0 00000QA1 0 10253SA1D0 00049RA1 0 00094YA1 0 00000
0054703950253252000100509009+55367-131717NSRDB+002399999V020999999999999999999999999999+99999+99999999999ADDGP10060000002000000002000000002000GR100600000900009
0071703950253252000100618009+55367-131717NSRDB+002399999V020999999999999999999999999999+99999+99999999999ADDGP10060004402013000002032004402013GQ100600717913099GR100600429913699
0531703950253252000100801003+55367-131717FM-15+0023KTN  V0201505N00525003965MN0064005N1+01175+01065100665ADDAA101000391GD13995+0039659GD23995+0067159GD34995+0085359GF108991999999999999999999GP10060007602013000002032007602013GQ100600780924059GR100600284913699MA1100645999999MW1455MW2611MW3655OC100931REMMET098PAKT 080100Z 15012G18KT 7SM -RA SCT013 BKN020 OVC030 12/11 A2973 RMK AO2 HARBOR WND 12008KT P0001;EQDQ01+000003PRSWM1Q02    003PRSWM1N01 02270JPWTH 0QNNAA1D0 04013BA1 0 04013AA1D0 04022BA1 0 04022AA1D0 06028BA1 0 06028GA1 0 00013KA1D0 00051JA1 0 00106LA1 0 00400CA1 0 02972NA1 0 02270QA1 0 10066SA1D0 00053RA1 0 00117YA1 0 15010
0400703950253252000100918533+55367-131717FM-15+0023KTN  V0209999V00265010975MN0160005N1+01005+00835101515ADDAA101000391GD12995+0073259GD23995+0109759GF107991999999999999999999MA1101495999999MW1001REMMET108PAKT 091853Z VRB05KT 10SM SCT024 BKN036 10/08 A2997 RMK AO2 RAE52 SLP151 HARBOR WND 15008KT P0001 T01000083;EQDQ01+000000PRSWM2N01 00000JPWTH 0QNNAA1D0 02024BA1 0 02024AA1D0 04036BA1 0 04036GA1 0 00036KA1D0 00047JA1 0 00083LA1 0 01000CA1 0 02997NA1 0 00000QA1 0 10151SA1D0 00050RA1 0 00100YA1 0 00005
0532703950253252000101114533+55367-131717FM-15+0023KTN  V0201605N00525003665MN0096005N1+00835+00725101475ADDAA101003891AA203005891GD12995+0015259GD23995+0036659GD34995+0079259GF108991999999999999999999MA1101465999999MD1610081+9999MW1101MW2455MW3615REMMET150PAKT 111453Z 16010KT 6SM -RA BR SCT005 BKN012 OVC026 08/07 A2996 RMK AO2 SLP147 HARBOR WND 13015G20KT ROOF WND 15020G25KT P0015 60023 T00830072 56008;EQDQ01+000003PRSWM1Q02    003PRSWM1N01 02070JPWTH 0QNNAA1D0 02005BA1 0 02005AA1D0 04012BA1 0 04012AA1D0 06026BA1 0 06026GA1 0 00012KA1D0 00045JA1 0 00072LA1 0 00600CA1 0 02996NA1 0 02070QA1 0 10147SA1D0 00047RA1 0 00083YA1 0 16010
0054703950253252000101411009+55367-131717NSRDB+002399999V020999999999999999999999999999+99999+99999999999ADDGP10060000002000000002000000002000GR100600000900009
0071703950253252000101500009+55367-131717NSRDB+002399999V020999999999999999999999999999+99999+99999999999ADDGP10060007402013000002032007402013GQ100600738922609GR100600384913759
0071703950253252000101521009+55367-131717NSRDB+002399999V020999999999999999999999999999+99999+99999999999ADDGP10060006702013000002032006702013GQ100600643917939GR100600597913769
0071703950253252000101702009+55367-131717NSRDB+002399999V020999999999999999999999999999+99999+99999999999ADDGP10060000202013000002032000202013GQ100600875925009GR100600042909529
0422703950253252000101718533+55367-131717FM-15+0023KTN  V0209999C00005010675MN0160005N1+00945+00725100365ADDGD11995+0039659GD23995+0106759GD34995+0182959GF108991999999999999999999MA1100345999999MW1001REMMET104PAKT 171853Z 00000KT 10SM FEW013 BKN035 OVC060 09/07 A2963 RMK AO2 SLP036 HARBOR WIND 26004KT T00940072;EQDQ01+000000PRSWM2N01 00000JPWTH 0QNNAA1D0 02013BA1 0 01013AA1D0 04035BA1 0 04035AA1D0 06060BA1 0 06060GA1 0 00035KA1D0 00045JA1 0 00072LA1 0 01000CA1 0 02963NA1 0 00000QA1 0 10036SA1D0 00049RA1 0 00094YA1 0 00000
0054703950253252000102208009+55367-131717NSRDB+002399999V020999999999999999999999999999+99999+99999999999ADDGP10060000002000000002000000002000GR100600000900009
0185703950253252000102422534+55340-131700FM-15+0029PAKT V0209999C000010105019N0160931N1+00901+00601102511ADDGD12991+0066019GD24991+0105019GF108991999999999999999999MA1102511999999MW1001REMMET077PAKT 242253Z 00000KT 10SM FEW022 OVC035 09/06 A3027 RMK AO2 SLP251 T00890056;EQDQ01+000000PRSWM2
0071703950253252000110922009+55367-131717NSRDB+002399999V020999999999999999999999999999+99999+99999999999ADDGP10060026402014072302035005902014GQ100600736919479GR100600393913959
0054703950253252000111407009+55367-131717NSRDB+002399999V020999999999999999999999999999+99999+99999999999ADDGP10060000002000000002000000002000GR100600000900009
0403703950253252000111707533+55367-131717FM-15+0023KTN  V0201405N00775007015MN0096005N1+00565+00395102175ADDAA101002591GD14995+0070159GF108991999999999999999999MA1102175999999MW1101MW2455MW3635OC101131REMMET112PAKT 170753Z AUTO 14015G22KT 6SM RA BR OVC023 06/04 A3017 RMK AO2 PK WND 13028/0704 SLP217 P0010 T00560039 TSNO;EQDQ01+000003PRSWM1Q02    003PRSWM1N01 02170JPWTH 0QNNAA1D0 06023BA1 0 06023GA1 0 00023KA1D0 00039JA1 0 00039LA1 0 00600CA1 0 03017NA1 0 02170QA1 0 10217SA1D0 00042RA1 0 00056YA1 0 14015
0386703950253252000111709533+55367-131717FM-15+0023KTN  V0201405N00885005185MN0080005N1+00615+00505102115ADDAA101001591GD14995+0051859GF108991999999999999999999MA1102105999999MW1101MW2455MW3615OC101291REMMET095PAKT 170953Z AUTO 14017G25KT 5SM -RA BR OVC017 06/05 A3015 RMK AO2 SLP211 P0006 T00610050 TSNO;EQDQ01+000003PRSWM1Q02    003PRSWM1N01 02070JPWTH 0QNNAA1D0 06017BA1 0 06017GA1 0 00017KA1D0 00041JA1 0 00050LA1 0 00500CA1 0 03015NA1 0 02070QA1 0 10211SA1D0 00043RA1 0 00061YA1 0 14017
0479703950253252000111921003+55367-131717FM-15+0023KTN  V0201305N00365003665MN0160005N1+00675+00615102045ADDGD12995+0009159GD23995+0036659GD34995+0152459GF108991999999999999999999GP10060023302014068302035005602014GQ100600751917949GR100600361914019MA1102035999999MW1001REMMET093PAKT 192056Z 13006KT 10SM FEW005 SCT012 OVC050 07/06 A3013 RMK AO2 BINOVC HARBOR WND 00000KT;EQDQ01+000000PRSWM2N01 00000JPWTH 0QNNAA1D0 02003BA1 0 02003AA1D0 04012BA1 0 04012AA1D0 06050BA1 0 06050GA1 0 00012KA1D0 00043JA1 0 00061LA1 0 01000CA1 0 03013NA1 0 00000QA1 0 10204SA1D0 00044RA1 0 00067YA1 0 13007
0491703950253252000112304533+55367-131717FM-15+0023KTN  V0201505N00825008235MN0048005N1+00725+00615099385ADDAA101006691GD13995+0082359GD24995+0109759GF108991999999999999999999KA1999M+99999MA1099395999999MW1101MW2455MW3655OC101291REMMET134PAKT 230453Z 15016G25KT 3SM +RA BR BKN027 OVC036 07/06 A2935 RMK AO2 SLP938 HARBOR WND 11025G34KT ROOF WND 15035G45KT P0026 T00720061;EQDQ01+000003PRSWM1Q02    003PRSWM1Q03 -00252ATMX  N01 02270JPWTH 0QNNAA1D0 04027BA1 0 04027AA1D0 06036BA1 0 06036GA1 0 00027KA1D0 00043JA1 0 00061LA1 0 00300CA1 0 02935NA1 0 02270QA1 0 09938SA1D0 00045RA1 0 00072YA1 0 15016
0406703950253252000112404533+55367-131717FM-15+0023KTN  V0201605N00415007925MN0160005N1+00615+00445100945ADDGD12995+0045759GD24995+0079259GF108991999999999999999999KA1999M+99999MA1100955999999MW1001REMMET096PAKT 240453Z 16008KT 10SM SCT015 OVC026 06/04 A2981 RMK AO2 SLP094 HARBOR WND 10010KT T00610044;EQDQ01+000000PRSWM2Q02 +00102ATMX  N01 00000JPWTH 0QNNAA1D0 02015BA1 0 02015AA1D0 06026BA1 0 06026GA1 0 00026KA1D0 00040JA1 0 00044LA1 0 01000CA1 0 02981NA1 0 00000QA1 0 10094SA1D0 00043RA1 0 00061YA1 0 16008
0054703950253252000112415009+55367-131717NSRDB+002399999V020999999999999999999999999999+99999+99999999999ADDGP10060000002000000002000000002000GR100600000900009
0235703950253252000112622084+55340-131700FM-16+0029PAKT V0201501N003610054019N0160931N1+00501+00401999999ADDGD12991+0024019GD23991+0054019GD34991+0096019GF108991999999999999999999MA1100441999999MW1611REMMET096PAKT 262208Z 15007KT 10SM -RA FEW008 BKN018 OVC032 05/04 A2966 RMK AO2 HARBOR WND 14010KT P0005;EQDQ01+000003PRSWM1Q02    003PRSWM1
0439703950253252000112711533+55367-131717FM-15+0023KTN  V0209999V00215007625MN0160005N1+00445+00335100975ADDAA101000021AA206001891AA324023191GD14995+0076259GF108991999999999999999999KA1999M+00501KA2999N+00441MA1100955999999MD1110181+9999MW1001REMMET122PAKT 271153Z AUTO VRB04KT 10SM OVC025 04/03 A2981 RMK AO2 RAE45 SLP097 P0000 60007 70091 T00440033 10050 20044 51018 TSNO;EQDQ01+000000PRSWM2N01 00000JPWTH 0QNNAA1D0 06025BA1 0 06025GA1 0 00025KA1D0 00038JA1 0 00033LA1 0 01000CA1 0 02981NA1 0 00000QA1 0 10097SA1D0 00040RA1 0 00044YA1 0 00004
0238703950253252000112813003+55367-131717FM-15+0023KTN  V0201105N00215000305MN016000599+00225+00175102435ADDGD14995+0003059GP10060000002000000002000000002000GR100600000900009MA1102445999999EQDN01 00000JPWTH 0QNNAA1D0 06001BA1 0 06001GA1 0 00001KA1D0 00035JA1 0 00017LA1 0 01000CA1 0 03025NA1 0 00000QA1 0 10243SA1D0 00036RA1 0 00022YA1 0 11004
0071703950253252000112817009+55367-131717NSRDB+002399999V020999999999999999999999999999+99999+99999999999ADDGP10060000002014000002035000002014GQ100600895913029GR100600003902699
0071703950253252000120223009+55367-131717NSRDB+002399999V020999999999999999999999999999+99999+99999999999ADDGP10060011102014015602035008602014GQ100600811920649GR100600217914089
0071703950253252000120322009+55367-131717NSRDB+002399999V020999999999999999999999999999+99999+99999999999ADDGP10060005602014000002035005602014GQ100600784919259GR100600282914089
0479703950253252000120623533+55367-131717FM-15+0023KTN  V0209999C00005009755MN0160005N1+00675+00395102835ADDGD11995+0061059GD23995+0097559GD34995+0140259GF108991999999999999999999KA1999M+00781KA2999N+00501MA1102845999999MD1110061+9999MW1001REMMET121PAKT 062353Z 00000KT 10SM FEW020 BKN032 OVC046 07/04 A3037 RMK AO2 SLP283 HARBOR WND 00000KT T00670039 10078 20050 51006;EQDQ01+000000PRSWM2N01 00000JPWTH 0QNNAA1D0 02020BA1 0 01020AA1D0 04032BA1 0 04032AA1D0 06046BA1 0 06046GA1 0 00032KA1D0 00039JA1 0 00039LA1 0 01000CA1 0 03037NA1 0 00000QA1 0 10283SA1D0 00044RA1 0 00067YA1 0 00000
0054703950253252000120705009+55367-131717NSRDB+002399999V020999999999999999999999999999+99999+99999999999ADDGP10060000002000000002000000002000GR100600000900009
0198703950253252000120715043+55340-131700FM-16+0029PAKT V0200401N003112200019N0160931N1+00301+00101999999ADDGF100991999999999999999999GP10060000002000000002000000002000GR100600000900009MA1102781999999MW1001REMMET069PAKT 071504Z 04006KT 10SM CLR 03/01 A3035 RMK AO2 HARBOR WND 00000KT;EQDQ01+000000PRSWM2
0071703950253252000120900009+55367-131717NSRDB+002399999V020999999999999999999999999999+99999+99999999999ADDGP10060003602014000002035003602014GQ100600861921889GR100600096914109
0071703950253252000120920009+55367-131717NSRDB+002399999V020999999999999999999999999999+99999+99999999999ADDGP10060014702014058402035004202014GQ100600797916389GR100600253914119
0054703950253252000121112009+55367-131717NSRDB+002399999V020999999999999999999999999999+99999+99999999999ADDGP10060000002000000002000000002000GR100600000900009
0334703950253252000121321533+55367-131717FM-15+0023KTN  V0209999C00005220005MN0160005N1+00005-00615100875ADDGD11995+0274359GF102991999999999999999999MA1100855999999MW1001REMMET090PAKT 132153Z 00000KT 10SM FEW090 00/M06 A2978 RMK AO2 SLP087 HARBOR WND 31007KT T00001061;EQDQ01+000000PRSWM2N01 00000JPWTH 0QNNAA1D0 02090BA1 0 01090GA1U0 99999KA1D0 00021JA1 0-00061LA1 0 01000CA1 0 02978NA1 0 00000QA1 0 10087SA1D0 00032RA1 0 00000YA1 0 00000
0447703950253252000121810533+55367-131717FM-15+0023KTN  V0201305N01495004575MN0064005N1+00285+00175101105ADDAA101003891GD13995+0045759GD24995+0064059GF108991999999999999999999MA1101085999999MW1101MW2455MW3635OC102161REMMET119PAKT 181053Z AUTO 13029G42KT 4SM RA BR BKN015 OVC021 03/02 A2985 RMK AO2 PK WND 13042/1046 SLP110 P0015 T00280017 TSNO;EQDQ01+000003PRSWM1Q02    003PRSWM1N01 02170JPWTH 0QNNAA1D0 04015BA1 0 04015AA1D0 06021BA1 0 06021GA1 0 00015KA1D0 00035JA1 0 00017LA1 0 00400CA1 0 02985NA1 0 02170QA1 0 10110SA1D0 00037RA1 0 00028YA1 0 13029
0433703950253252000122403533+55367-131717FM-15+0023KTN  V0201805N00365010675MN0160005N1+00505+00115101195ADDAA101000021GD13995+0106759GD24995+0137259GF108991999999999999999999MA1101195999999MW1615REMMET125PAKT 240353Z 18007KT 10SM -RA BKN035 OVC045 05/01 A2988 RMK AO2 RAE04B40 SLP119 PCPN VLGT HARBOR WND 13005KT P0000 T00500011;EQDQ01+000003PRSWM1Q02    003PRSWM1N01 00020JPWTH 0QNNAA1D0 04035BA1 0 04035AA1D0 06045BA1 0 06045GA1 0 00035KA1D0 00034JA1 0 00011LA1 0 01000CA1 0 02988NA1 0 00020QA1 0 10119SA1D0 00041RA1 0 00050YA1 0 18007
0054703950253252000122912009+55367-131717NSRDB+002399999V020999999999999999999999999999+99999+99999999999ADDGP10060000002000000002000000002000GR100600000900009
032570398025308200001041653C+55050-131567FM-15+0033ANN  V0209999C00005003965MN0160005N1+00175+00065100315ADDAA101000095GD14995+0039659GF108991999999999999999999MA1100305999999MW1001REMMET070PANT 041653Z 00000KT 10SM OVC013 02/01 A2962 RMK AO2 SLP031 T00170006;EQDQ01+000000PRSWM2N01 00000JPWTH 0QNNAA1D0 06013BA1 0 06013GA1 0 00013KA1D0 00033JA1 0 00006LA1 0 01000CA1 0 02962NA1 0 00000QA1 0 10031SA1D0 00035RA1 0 00017YA1 0 00000
0054703980253082000010814009+55050-131567NSRDB+003399999V020999999999999999999999999999+99999+99999999999ADDGP10060000002000000002000000002000GR100600000900009
0054703980253082000011202009+55050-131567NSRDB+003399999V020999999999999999999999999999+99999+99999999999ADDGP10060000002000000002000000002000GR100600000900009
0054703980253082000011509009+55050-131567NSRDB+003399999V020999999999999999999999999999+99999+99999999999ADDGP10060000002000000002000000002000GR100600000900009
0054703980253082000011603009+55050-131567NSRDB+003399999V020999999999999999999999999999+99999+99999999999ADDGP10060000002000000002000000002000GR100600000900009
038170398025308200001180353C+55050-131567FM-15+0033ANN  V0201105N00265016765MN0160005N1-00225-00725102775ADDAA101000095GD13995+0167659GD24995+0213459GF108991999999999999999999MA1102745999999MW1001REMMET089PANT 180353Z AUTO 11005KT 10SM BKN055 OVC070 M02/M07 A3034 RMK AO2 SLP277 T10221072 TSNO;EQDQ01+000000PRSWM2N01 00000JPWTH 0QNNAA1D0 04055BA1 0 04055AA1D0 06070BA1 0 06070GA1 0 00055KA1D0 00019JA1 0-00072LA1 0 01000CA1 0 03034NA1 0 00000QA1 0 10277SA1D0 00028RA1 0-00022YA1 0 11005
0236703980253082000012109404+55030-131570FM-16+0034PANT V0209999C000010096019N0096561N1-00101-00101999999ADDGD12991+0048019GD23991+0096019GD34991+0135019GF108991999999999999999999MA1101521999999MW1711REMMET081PANT 210940Z 00000KT 6SM -SN BR FEW016 BKN032 OVC045 M01/M01 A2998 RMK AO2 P0000;EQDQ01+000100PRSWM3Q02+000003PRSWM1Q03    003PRSWM1
0054703980253082000012111009+55050-131567NSRDB+003399999V020999999999999999999999999999+99999+99999999999ADDGP10060000002000000002000000002000GR100600000900009
037170398025308200001251953C+55050-131567FM-15+0033ANN  V0201405N00265021345MN0160005N1-00065-00285101535ADDAA101000095GD12995+0070159GD23995+0213459GF107991999999999999999999MA1101525999999MW1001REMMET079PANT 251953Z 14005KT 10SM SCT023 BKN070 M01/M03 A2998 RMK AO2 SLP153 T10061028;EQDQ01+000000PRSWM2N01 00000JPWTH 0QNNAA1D0 02023BA1 0 02023AA1D0 04070BA1 0 04070GA1 0 00070KA1D0 00027JA1 0-00028LA1 0 01000CA1 0 02998NA1 0 00000QA1 0 10153SA1D0 00031RA1 0-00006YA1 0 14005
0054703980253082000012711009+55050-131567NSRDB+003399999V020999999999999999999999999999+99999+99999999999ADDGP10060000002000000002000000002000GR100600000900009
0480703980253082000012800003+55050-131567SY-MT+0033ANN  V0201505N01185003965MN0040005N1+00675+00565101015ADDAA101002895AA206019191GD14995+0039659GF108991999999004501999999GP10060004002014000002035004002014GQ100600802921619GR100600241914119KA1120M+00671KA2180N+00221MA1100985100571MD1610191+9999MW1455MW2635REMSYN116AAXX  28004 70398 11440 81523 10067 20056 30057 40101 56019 60191 763// 92353 333 10067 20022 91034 96010 555 92800;EQDN01 02170JPWTH 0QNNAA1D0 06013BA1 0 06013GA1 0 00013KA1D0 00042JA1 0 00056LA1 0 00250CA1 0 02982NA1 0 02170QA1 0 10101SA1D0 00044RA1 0 00067YA1 0 15023
041870398025308200001290953C+55050-131567FM-15+0033ANN  V0201705N00625015245MN0160005N1+00505+00115100685ADDAA101000025GD13995+0152459GD24995+0198159GF108991999999999999999999MA1100685999999MW1615OC100981REMMET102PANT 290953Z 17012G19KT 10SM -RA BKN050 OVC065 05/01 A2973 RMK AO2 RAB12E22B53 SLP068 P0000 T00500011;EQDQ01+000003PRSWM1Q02    003PRSWM1N01 00020JPWTH 0QNNAA1D0 04050BA1 0 04050AA1D0 06065BA1 0 06065GA1 0 00050KA1D0 00034JA1 0 00011LA1 0 01000CA1 0 02973NA1 0 00020QA1 0 10068SA1D0 00041RA1 0 00050YA1 0 17012
0071703980253082000013023009+55050-131567NSRDB+003399999V020999999999999999999999999999+99999+99999999999ADDGP10060016802014019202035011802014GQ100600752920229GR100600359914109
0054703980253082000013105009+55050-131567NSRDB+003399999V020999999999999999999999999999+99999+99999999999ADDGP10060000002000000002000000002000GR100600000900009
0054703980253082000020303009+55050-131567NSRDB+003399999V020999999999999999999999999999+99999+99999999999ADDGP10060000002000000002000000002000GR100600000900009
0677703980253082000020708596+55039-131578SOD  +0034PANT V020999999999999999999999999999+99999+99999999999ADDAA124003095AT1MW16RA  5KA1240M+00785KA2240N-00325MG1101229999994OE11240156508022485OE22240102810023135OE33240015699999995REMSOD54424 HR PRECIPITATION (IN): 0.12 24 HR MAX TEMP (F): 4624 HR MAX TEMP TIME (LST):2359 24 HR MIN TEMP (F): 2624 HR MIN TEMP TIME (LST):0056 AVERAGE STATION PRESSURE:29.89  PEAK WIND SPEED (MPH): 35 PEAK WIND DIR (DEG):080 PEAK WIND TIME (LST):2248  FASTEST 2MIN SPEED (MPH): 23FASTEST 2MIN DIR (DEG):100 FASTEST 2MIN TIME (LST):2313 AVERAGE WIND SPEED (MPH): 3.5 24 HR AVG TEMP (F):36 HOURLY INCREMENTAL PRECIPITATION VALUES (IN):.00  .00  .00  .00  .00  .00  .00  .00  .00  .00  .00  .00  .00   T    T    T   .00  .00   T   .01  .02  .08  .01   T
030870398025308200002102253C+55050-131567FM-15+0033ANN  V0200505N00415220005MN0160005N1+00395-00505101945ADDAA101000095GF100991999999999999999999MA1101935999999MW1001REMMET068PANT 102253Z 05008KT 10SM CLR 04/M05 A3010 RMK AO2 SLP194 T00391050;EQDQ01+000000PRSWM2N01 00000JPWTH 0QNNAA1D0 00000BA1 0 00000GA1U0 99999KA1D0 00023JA1 0-00050LA1 0 01000CA1 0 03010NA1 0 00000QA1 0 10194SA1D0 00039RA1 0 00039YA1 0 05008
0054703980253082000021116009+55050-131567NSRDB+003399999V020999999999999999999999999999+99999+99999999999ADDGP10060000002000000002000000002000GR100600000900009
0054703980253082000021213009+55050-131567NSRDB+003399999V020999999999999999999999999999+99999+99999999999ADDGP10060000002000000002000000002000GR100600000900009
030970398025308200002141353C+55050-131567FM-15+0033ANN  V0200105N00155220005MN0160005N1-00335-00675100455ADDAA101000095GF100991999999999999999999MA1100445999999MW1001REMMET069PANT 141353Z 01003KT 10SM CLR M03/M07 A2966 RMK AO2 SLP045 T10331067;EQDQ01+000000PRSWM2N01 00000JPWTH 0QNNAA1D0 00000BA1 0 00000GA1U0 99999KA1D0 00020JA1 0-00067LA1 0 01000CA1 0 02966NA1 0 00000QA1 0 10045SA1D0 00026RA1 0-00033YA1 0 01003
0771703980253082000021608596+55039-131578SOD  +0034PANT V020999999999999999999999999999+99999+99999999999ADDAA124000096AJ100009599999999AL12400095AN1024000095KA1240M+00445KA2240N-00665MG1101399999994OE11240071513012105OE22240062613012105OE33240013099999995REMSOD59224 HR PRECIPITATION (IN): 0.00 SNOW DEPTH (IN):0     24 HR SNOWFALL (IN):0.0  24 HR MAX TEMP (F): 4024 HR MAX TEMP TIME (LST):1501 24 HR MIN TEMP (F): 2024 HR MIN TEMP TIME (LST):0435 AVERAGE STATION PRESSURE:29.94  PEAK WIND SPEED (MPH): 16 PEAK WIND DIR (DEG):130 PEAK WIND TIME (LST):1210  FASTEST 2MIN SPEED (MPH): 14FASTEST 2MIN DIR (DEG):130 FASTEST 2MIN TIME (LST):1210 AVERAGE WIND SPEED (MPH): 2.9 24 HR AVG TEMP (F):30 HOURLY INCREMENTAL PRECIPITATION VALUES (IN):.00  .00  .00  .00  .00  .00  .00  .00  .00  .00  .00  .00  .00  .00  .00  .00  .00  .00  .00  .00  .00  .00  .00  .00EQDR01  0.007AAP092
039370398025308200002201253C+55050-131567FM-15+0033ANN  V0201305N00935039015MN0064005N1+00505+00395099975ADDAA101001095GD14995+0036659GF108991999999999999999999MA1099975999999MW1101MW2455MW3635OC101231REMMET102PANT 201253Z 13018G24KT 4SM RA BR OVC012 05/04 A2952 RMK AO2 PK WND 13030/1220 SLP997 P0004 T00500039;EQDQ01+000003PRSWM1Q02    003PRSWM1N01 02170JPWTH 0QNNAA1D0 06012BA1 0 06012GA1 0 00128KA1D0 00039JA1 0 00039LA1 0 00400CA1 0 02952NA1 0 02170QA1 0 09997SA1D0 00041RA1 0 00050YA1 0 13018
0071703980253082000022116009+55050-131567NSRDB+003399999V020999999999999999999999999999+99999+99999999999ADDGP10060000002014000002035000002014GQ100600899910829GR100600000900359
0505703980253082000022300003+55050-131567SY-MT+0033ANN  V0201305N00725006105MN0112005N1+00565+00395098905ADDAA101002396AA206002092GD13995+0061059GD24995+0079259GF108991999999008001999999GP10060013902014003902035012702014GQ100600724921909GR100600422913989KA1120M+00891KA2180N+00441MA1098885098481MD1310361+9999MW1615REMSYN110AAXX  23004 70398 11561 81314 10056 20039 39848 49890 53036 60021 761// 92353 333 10089 20044 91026 555 92300;EQDN01 00020JPWTH 0QNNAA1D0 04020BA1 0 04020AA1D0 06026BA1 0 06026GA1 0 00020KA1D0 00039JA1 0 00039LA1 0 00700CA1 0 02920NA1 0 00020QA1 0 09890SA1D0 00042RA1 0 00056YA1 0 13014
040570398025308200002240053C+55050-131567FM-15+0033ANN  V0201305N00625048165MN0128005N1+00395+00225099935ADDAA101001895GD13995+0045759GD24995+0064059GF108991999999999999999999MA1099935999999MW1615OC101031REMMET089PANT 240053Z 13012G20KT 8SM -RA BKN015 OVC021 04/02 A2951 RMK AO2 SLP993 P0007 T00390022;EQDQ01+000003PRSWM1Q02    003PRSWM1N01 00020JPWTH 0QNNAA1D0 04015BA1 0 04015AA1D0 06021BA1 0 06021GA1 0 00158KA1D0 00036JA1 0 00022LA1 0 00800CA1 0 02951NA1 0 00020QA1 0 09993SA1D0 00039RA1 0 00039YA1 0 13012
0071703980253082000022516009+55050-131567NSRDB+003399999V020999999999999999999999999999+99999+99999999999ADDGP10060000002014000002035000002014GQ100600894910659GR100600003902689
0071703980253082000022521009+55050-131567NSRDB+003399999V020999999999999999999999999999+99999+99999999999ADDGP10060006502014000002035006502014GQ100600645917209GR100600600913969
037870398025308200002260753C+55050-131567FM-15+0033ANN  V0209999C00005035975MN0128005N1+00115+00065100595ADDAA101000095GD13995+0033559GD24995+0243859GF108991999999999999999999MA1100585999999MW1001REMMET086PANT 260753Z AUTO 00000KT 8SM BKN011 OVC080 01/01 A2970 RMK AO2 SLP059 T00110006 TSNO;EQDQ01+000000PRSWM2N01 00000JPWTH 0QNNAA1D0 04011BA1 0 04011AA1D0 06080BA1 0 06080GA1 0 00118KA1D0 00033JA1 0 00006LA1 0 00800CA1 0 02970NA1 0 00000QA1 0 10059SA1D0 00034RA1 0 00011YA1 0 00000
0054703980253082000022609009+55050-131567NSRDB+003399999V020999999999999999999999999999+99999+99999999999ADDGP10060000002000000002000000002000GR100600000900009
0054703980253082000022904009+55050-131567NSRDB+003399999V020999999999999999999999999999+99999+99999999999ADDGP10060000002000000002000000002000GR100600000900009
0212703980253082000022909234+55030-131570FM-16+0034PANT V0201201N008710084019N0160931N1+00601+00201999999ADDGD13991+0084019GD24991+0114019GF108991999999999999999999MA1099931999999MW1001OC101651REMMET096PANT 290923Z 12017G32KT 10SM BKN028 OVC038 06/02 A2951 RMK AO2 PK WND 12032/0914 RAB06E17 P0000;EQDQ01+000000PRSWM2
0071703980253082000022916009+55050-131567NSRDB+003399999V020999999999999999999999999999+99999+99999999999ADDGP10060000002014000002035000002014GQ100600887910489GR100600011904769
035470398025308200003040053C+55050-131567FM-15+0033ANN  V0201805N00155220005MN0160005N1+00445+00005101075ADDAA101000395GD11995+0149459GF102991999999999999999999MA1101055999999MW1001REMMET099PANT 040053Z 18003KT 10SM FEW049 04/00 A2984 RMK AO2 RAB00E13 SLP107 VCSH CB ALQDS P0001 T00440000;EQDQ01+000000PRSWM2N01 00000JPWTH 0QNNAA1D0 02049BA1 0 01049GA1U0 99999KA1D0 00032JA1 0 00000LA1 0 01000CA1 0 02984NA1 0 00000QA1 0 10107SA1D0 00040RA1 0 00044YA1 0 18003
0054703980253082000030605009+55050-131567NSRDB+003399999V020999999999999999999999999999+99999+99999999999ADDGP10060000002000000002000000002000GR100600000900009
0071703980253082000030922009+55050-131567NSRDB+003399999V020999999999999999999999999999+99999+99999999999ADDGP10060018702014000602035018402014GQ100600596918969GR100600701913869
042670398025308200003121753C+55050-131567FM-15+0033ANN  V0201205N00575008535MN0160005N1+00505+00335101625ADDAA101000395AA206002891GD14995+0085359GF108991999999999999999999KA1999M+00561KA2999N+00441MA1101595999999MD1610081+9999MW1615REMMET104PANT 121753Z 12011KT 10SM -RA OVC028 05/03 A3000 RMK AO2 SLP162 P0001 60011 T00500033 10056 20044 56008;EQDQ01+000003PRSWM1Q02    003PRSWM1N01 00020JPWTH 0QNNAA1D0 06028BA1 0 06028GA1 0 00028KA1D0 00038JA1 0 00033LA1 0 01000CA1 0 03000NA1 0 00020QA1 0 10162SA1D0 00041RA1 0 00050YA1 0 12011
0071703980253082000031322009+55050-131567NSRDB+003399999V020999999999999999999999999999+99999+99999999999ADDGP10060020602014001202035020002014GQ100600581919019GR100600731913839
0297703980253082000031323534+55030-131570FM-15+0034PANT V0201001N005110087019N0160931N1+00701+00401100271ADDAA101000591AA206000591GD13991+0087019GD24991+0108019GF108991999999999999999999KA1999M+00941KA2999N+00721MA1100271999999MD1810391+9999MW1611REMMET111PANT 132353Z 10010KT 10SM -RA BKN029 OVC036 07/04 A2961 RMK AO2 SLP027 P0002 60002 T00720039 10094 20072 58039;EQDQ01+000003PRSWM1Q02    003PRSWM1
0216703980253082000031414014+55030-131570FM-16+0034PANT V0202301N003610150019N0160931N1+00401+00301999999ADDGD12991+0084019GD22991+0126019GD34991+0150019GF108991999999999999999999MA1100951999999MW1611REMMET077PANT 141401Z 23007KT 10SM -RA FEW028 SCT042 OVC050 04/03 A2981 RMK AO2 P0000;EQDQ01+000003PRSWM1Q02    003PRSWM1
0294703980253082000031605534+55030-131570FM-15+0034PANT V0201201N007710042019N0128741N1+00301+00201100301ADDAA101002091AA206006191GD14991+0042019GF108991999999999999999999KA1999M+00391KA2999N+00331MA1100271999999MD1610131+9999MW1631OC101131REMMET115PANT 160553Z AUTO 12015G22KT 8SM RA OVC014 03/02 A2961 RMK AO2 SLP030 P0008 60024 T00330022 10039 20033 56013 TSNO;EQDQ01+000003PRSWM1Q02    003PRSWM1
0071703980253082000031802009+55050-131567NSRDB+003399999V020999999999999999999999999999+99999+99999999999ADDGP10060011102014003902035010302014GQ100600788925199GR100600268913809
037570398025308200003231953C+55050-131567FM-15+0033ANN  V0201505N00415014025MN0160005N1+00615+00175101675ADDAA101000395GD12995+0070159GD23995+0140259GF107991999999999999999999MA1101665999999MW1001REMMET083PANT 231953Z 15008KT 10SM SCT023 BKN046 06/02 A3002 RMK AO2 SLP167 P0001 T00610017;EQDQ01+000000PRSWM2N01 00000JPWTH 0QNNAA1D0 02023BA1 0 02023AA1D0 04046BA1 0 04046GA1 0 00046KA1D0 00035JA1 0 00017LA1 0 01000CA1 0 03002NA1 0 00000QA1 0 10167SA1D0 00043RA1 0 00061YA1 0 15008
0234703980253082000032509124+55030-131570FM-16+0034PANT V0201501N001510036019N0096561N1+00601+00501999999ADDGD12991+0021019GD23991+0036019GD34991+0057019GF108991999999999999999999MA1101191999999MW1611REMMET079PANT 250912Z 15003KT 6SM -RA BR FEW007 BKN012 OVC019 06/05 A2988 RMK AO2 P0001;EQDQ01+000100PRSWM3Q02+000003PRSWM1Q03    003PRSWM1
042870398025308200003251353C+55050-131567FM-15+0033ANN  V0201305N00265016765MN0160005N1+00445+00335101275ADDAA101000025GD12995+0134159GD23995+0167659GD34995+0213459GF108991999999999999999999MA1101255999999MW1001REMMET099PANT 251353Z 13005KT 10SM SCT044 BKN055 OVC070 04/03 A2990 RMK AO2 RAB13E23 SLP127 P0000 T00440033;EQDQ01+000000PRSWM2N01 00000JPWTH 0QNNAA1D0 02044BA1 0 02044AA1D0 04055BA1 0 04055AA1D0 06070BA1 0 06070GA1 0 00055KA1D0 00038JA1 0 00033LA1 0 01000CA1 0 02990NA1 0 00000QA1 0 10127SA1D0 00040RA1 0 00044YA1 0 13005
0542703980253082000032712003+55050-131567SY-MT+0033ANN  V0201405N00575001835MN0144005N1+00675+00615099925ADDAA101000595AA206007991AA324059291GD13995+0018359GD23995+0030559GD34995+0048859GF108991999999001501999999GP10060000002000000002000000002000GR100600000900009KA1999M+00671KA2120N+00561MA1099905099491MD1510011+9999MW1615REMSYN116AAXX  27124 70398 11264 81411 10067 20061 39949 49992 55001 60081 761// 91153 333 10067 20056 70592 91024 555 92712;EQDN01 00020JPWTH 0QNNAA1D0 04006BA1 0 04006AA1D0 04010BA1 0 04010AA1D0 06016BA1 0 06016GA1 0 00006KA1D0 00043JA1 0 00061LA1 0 00900CA1 0 02950NA1 0 00020QA1 0 09992SA1D0 00044RA1 0 00067YA1 0 14011
0071703980253082000032721009+55050-131567NSRDB+003399999V020999999999999999999999999999+99999+99999999999ADDGP10060043002014020402035030502014GQ100600524917329GR100600838913729
0071703980253082000032803009+55050-131567NSRDB+003399999V020999999999999999999999999999+99999+99999999999ADDGP10060000002014000002035000002014GQ100600843926749GR100600137913729
048670398025308200003282053C+55050-131567FM-15+0033ANN  V0201205N00525004275MN0144005N1+00285+00175101115ADDAA101000595AA203001091GD11995+0027459GD23995+0042759GD34995+0061059GF108991999999999999999999MA1101085999999MD1810011+9999MW1615OC100981REMMET108PANT 282053Z 12010G19KT 9SM -RA FEW009 BKN014 OVC020 03/02 A2985 RMK AO2 SLP111 P0002 60004 T00280017 58001;EQDQ01+000003PRSWM1Q02    003PRSWM1N01 00020JPWTH 0QNNAA1D0 02009BA1 0 01009AA1D0 04014BA1 0 04014AA1D0 06020BA1 0 06020GA1 0 00014KA1D0 00035JA1 0 00017LA1 0 00900CA1 0 02985NA1 0 00020QA1 0 10111SA1D0 00037RA1 0 00028YA1 0 12010
0222703980253082000032915194+55030-131570FM-16+0034PANT V0201401N006710063019N0080461N1+00501+00301999999ADDGD12991+0042019GD24991+0063019GF108991999999999999999999MA1101631999999MW1631OC101031REMMET074PANT 291519Z 14013G20KT 5SM RA BR SCT014 OVC021 05/03 A3001 RMK AO2 P0003;EQDQ01+000100PRSWM3Q02+000003PRSWM1Q03    003PRSWM1
033570398025308200004080653C+55050-131567FM-15+0033ANN  V0209999C00005220005MN0160005N1+00285+00115102805ADDAA101000095GD11995+0152459GF102991999999999999999999MA1102785999999MW1001REMMET080PANT 080653Z AUTO 00000KT 10SM FEW050 03/01 A3035 RMK AO2 SLP280 T00280011 TSNO;EQDQ01+000000PRSWM2N01 00000JPWTH 0QNNAA1D0 02050BA1 0 01050GA1U0 99999KA1D0 00034JA1 0 00011LA1 0 01000CA1 0 03035NA1 0 00000QA1 0 10280SA1D0 00037RA1 0 00028YA1 0 00000
038970398025308200004081453C+55050-131567FM-15+0033ANN  V0209999C00005048775MN0160005N1+00175+00065102895ADDAA101000095GD13995+0487759GD24995+0762059GF108991999999999999999999MA1102885999999MD1610011+9999MW1001REMMET083PANT 081453Z 00000KT 10SM BKN160 OVC250 02/01 A3038 RMK AO2 SLP289 T00170006 56001;EQDQ01+000000PRSWM2N01 00000JPWTH 0QNNAA1D0 04160BA1 0 04160AA1D0 06250BA1 0 06250GA1 0 00160KA1D0 00033JA1 0 00006LA1 0 01000CA1 0 03038NA1 0 00000QA1 0 10289SA1D0 00035RA1 0 00017YA1 0 00000
030770398025308200004081953C+55050-131567FM-15+0033ANN  V0202805N00315220005MN0160005N1+00725+00005102855ADDAA101000095GF100991999999999999999999MA1102845999999MW1001REMMET067PANT 081953Z 28006KT 10SM CLR 07/00 A3037 RMK AO2 SLP285 T00720000;EQDQ01+000000PRSWM2N01 00000JPWTH 0QNNAA1D0 00000BA1 0 00000GA1U0 99999KA1D0 00032JA1 0 00000LA1 0 01000CA1 0 03037NA1 0 00000QA1 0 10285SA1D0 00045RA1 0 00072YA1 0 28006
031870398025308200004090153C+55050-131567FM-15+0033ANN  V0203105N00315220005MN0160005N1+00675-00175102595ADDAA101000095GF100991999999999999999999MA1102575999999MW1001REMMET078PANT 090153Z AUTO 31006KT 10SM CLR 07/M02 A3029 RMK AO2 SLP259 T00671017 TSNO;EQDQ01+000000PRSWM2N01 00000JPWTH 0QNNAA1D0 00000BA1 0 00000GA1U0 99999KA1D0 00029JA1 0-00017LA1 0 01000CA1 0 03029NA1 0 00000QA1 0 10259SA1D0 00044RA1 0 00067YA1 0 31006
0071703980253082000041220009+55050-131567NSRDB+003399999V020999999999999999999999999999+99999+99999999999ADDGP10060064802013070302032018202013GQ100600486915449GR100600899913599
034570398025308200004132153C+55050-131567FM-15+0033ANN  V0200505N00625220005MN0160005N1+00835-00945101885ADDAA101000095GF100991999999999999999999MA1101865999999MW1001OC101181REMMET097PANT 132153Z 05012G23KT 020V090 10SM CLR 08/M09 A3008 RMK AO2 PK WND 07028/2135 SLP188 T00831094;EQDQ01+000000PRSWM2N01 00000JPWTH 0QNNAA1D0 00000BA1 0 00000GA1U0 99999KA1D0 00015JA1 0-00094LA1 0 01000CA1 0 03008NA1 0 00000QA1 0 10188SA1D0 00047RA1 0 00083YA1 0 05012
030870398025308200004151053C+55050-131567FM-15+0033ANN  V0200305N00265220005MN0160005N1+00115-00785101045ADDAA101000095GF100991999999999999999999MA1101025999999MW1001REMMET068PANT 151053Z 03005KT 10SM CLR 01/M08 A2983 RMK AO2 SLP104 T00111078;EQDQ01+000000PRSWM2N01 00000JPWTH 0QNNAA1D0 00000BA1 0 00000GA1U0 99999KA1D0 00018JA1 0-00078LA1 0 01000CA1 0 02983NA1 0 00000QA1 0 10104SA1D0 00034RA1 0 00011YA1 0 03005
038870398025308200004201053C+55050-131567FM-15+0033ANN  V0201405N00675004575MN0160005N1+00675+00505101505ADDAA101000095GD13995+0045759GD24995+0100659GF108991999999999999999999MA1101495999999MW1001OC101131REMMET088PANT 201053Z 14013G22KT 10SM BKN015 OVC033 07/05 A2997 RMK AO2 RAE0954 SLP150 T00670050;EQDQ01+000000PRSWM2N01 00000JPWTH 0QNNAA1D0 04015BA1 0 04015AA1D0 06033BA1 0 06033GA1 0 00015KA1D0 00041JA1 0 00050LA1 0 01000CA1 0 02997NA1 0 00000QA1 0 10150SA1D0 00044RA1 0 00067YA1 0 14013
039270398025308200004201253C+55050-131567FM-15+0033ANN  V0201205N00985005185MN0160005N1+00675+00505101335ADDAA101000025GD14995+0051859GF108991999999999999999999MA1101325999999MW1615OC101341REMMET113PANT 201253Z 12019G26KT 10SM -RA OVC017 07/05 A2992 RMK AO2 PK WND 14029/1231 RAB10E25B51 SLP133 P0000 T00670050;EQDQ01+000003PRSWM1Q02    003PRSWM1N01 00020JPWTH 0QNNAA1D0 06017BA1 0 06017GA1 0 00017KA1D0 00041JA1 0 00050LA1 0 01000CA1 0 02992NA1 0 00020QA1 0 10133SA1D0 00044RA1 0 00067YA1 0 12019
045270398025308200004210253C+55050-131567FM-15+0033ANN  V0201405N00825003055MN0064005N1+00725+00615100515ADDAA101002895AA203010291GD14995+0030559GF108991999999999999999999MA1100515999999MD1610281+9999MW1101MW2455MW3635OC101391REMMET136PANT 210253Z AUTO 14016G27KT 4SM RA BR OVC010 07/06 A2968 RMK AO2 PK WND 14029/0229 CIG 008V014 SLP051 P0011 60040 T00720061 56028 TSNO;EQDQ01+000003PRSWM1Q02    003PRSWM1N01 02170JPWTH 0QNNAA1D0 06010BA1 0 06010GA1 0 00010KA1D0 00043JA1 0 00061LA1 0 00400CA1 0 02968NA1 0 02170QA1 0 10051SA1D0 00045RA1 0 00072YA1 0 14016
039570398025308200004210953C+55050-131567FM-15+0033ANN  V0201705N00215007625MN0160005N1+00675+00565100395ADDAA101000395GD13995+0076259GD24995+0118959GF108991999999999999999999MA1100375999999MW1615REMMET087PANT 210953Z 17004KT 10SM -RA BKN025 OVC039 07/06 A2964 RMK AO2 SLP039 P0001 T00670056;EQDQ01+000003PRSWM1Q02    003PRSWM1N01 00020JPWTH 0QNNAA1D0 04025BA1 0 04025AA1D0 06039BA1 0 06039GA1 0 00025KA1D0 00042JA1 0 00056LA1 0 01000CA1 0 02964NA1 0 00020QA1 0 10039SA1D0 00044RA1 0 00067YA1 0 17004
0071703980253082000042222009+55050-131567NSRDB+003399999V020999999999999999999999999999+99999+99999999999ADDGP10060071902013071202032020202013GQ100600436919619GR100600980913529
0325703980253082000042311534+55030-131570FM-15+0034PANT V0201101N005110081019N0160931N1+00401+00101100751ADDAA101000021AA206000391AA324000591GD13991+0081019GD24991+0117019GF108991999999999999999999KA1999M+00611KA2999N+00391MA1100751999999MD1510051+9999MW1611OC101031REMMET120PANT 231153Z 11010G20KT 10SM -RA BKN027 OVC039 04/01 A2975 RMK AO2 SLP075 P0000 60001 70002 T00440011 10061 20039 55005;EQDQ01+000003PRSWM1Q02    003PRSWM1
0071703980253082000042404009+55050-131567NSRDB+003399999V020999999999999999999999999999+99999+99999999999ADDGP10060000002013000002032000002013GQ100600856928679GR100600104913519
0158703980253082000042800284+55030-131570FM-16+0034PANT V0200401N003112200019N0160931N1+00701+00401999999ADDGD12991+0081019GF104991999999999999999999MA1100341999999MW1001REMMET065PANT 280028Z 04006KT 10SM SCT027 07/04 A2963 RMK AO2 RAE25 P0001;EQDQ01+000000PRSWM2
0071703980253082000050405009+55050-131567NSRDB+003399999V020999999999999999999999999999+99999+99999999999ADDGP10060000002013000002032000002013GQ100600886929729GR100600013905499
