0161725409999992000111701364+41920-084570FM-15+0360KJYM V0202401N007210042019N0112651N1+00101+00101999999ADDGD14991+0042019GF108991999999999999999999MA1100511999999MW1001OC101181REMMET060KJYM 170136Z AUTO 24014G23KT 7SM OVC014 01/01 A2968 RMK AO2;EQDQ01+000000PRSWM2
0153725409999992000111805364+41920-084570FM-15+0360KJYM V0202601N003610096019N0160931N1-00201-00201999999ADDGD14991+0096019GF108991999999999999999999MA1102031999999MW1001REMMET060KJYM 180536Z AUTO 26007KT 10SM OVC032 M02/M02 A3013 RMK AO2;EQDQ01+000000PRSWM2
0172725409999992000112203404+41920-084570FM-15+0360KJYM V0202501N003610144019N0112651N1-00801-00901999999ADDGD14991+0144019GF108991999999999999999999MA1102201999999MW1711REMMET063KJYM 220340Z AUTO 25007KT 7SM -SN OVC048 M08/M09 A3018 RMK AO2;EQDQ01+000003PRSWM1Q02    003PRSWM1
0175725409999992000112205364+41920-084570FM-15+0360KJYM V0202601N003610132019N0160931N1-00701-00901999999ADDGD12991+0108019GD24991+0132019GF108991999999999999999999MA1102131999999MW1001REMMET067KJYM 220536Z AUTO 26007KT 10SM SCT036 OVC044 M07/M09 A3016 RMK AO2;EQDQ01+000000PRSWM2
0153725409999992000112319364+41920-084570FM-15+0360KJYM V0202001N002110240019N0160931N1-00201-00701999999ADDGD13991+0240019GF107991999999999999999999MA1102401999999MW1001REMMET060KJYM 231936Z AUTO 20004KT 10SM BKN080 M02/M07 A3024 RMK AO2;EQDQ01+000000PRSWM2
0054725409999992000120205009+41917-084583NSRDB+036099999V020999999999999999999999999999+99999+99999999999ADDGP10060000002000000002000000002000GR100600000900009
0135725409999992000120209364+41920-084570FM-15+0360KJYM V0200201N002612200019N0160931N1-00701-00801999999ADDGF100991999999999999999999MA1103291999999MW1001REMMET057KJYM 020936Z AUTO 02005KT 10SM CLR M07/M08 A3050 RMK AO2;EQDQ01+000000PRSWM2
0054725409999992000120704009+41917-084583NSRDB+036099999V020999999999999999999999999999+99999+99999999999ADDGP10060000002000000002000000002000GR100600000900009
0172725409999992000120710424+41920-084570FM-15+0360KJYM V0209999C000010099019N0048281N1-00901-00901999999ADDGD14991+0099019GF108991999999999999999999MA1101121999999MW1711REMMET063KJYM 071042Z AUTO 00000KT 3SM -SN OVC033 M09/M09 A2986 RMK AO2;EQDQ01+000003PRSWM1Q02    003PRSWM1
0054725409999992000120912009+41917-084583NSRDB+036099999V020999999999999999999999999999+99999+99999999999ADDGP10060000002000000002000000002000GR100600000900009
0054725409999992000121607009+41917-084583NSRDB+036099999V020999999999999999999999999999+99999+99999999999ADDGP10060000002000000002000000002000GR100600000900009
0181725409999992000121610404+41920-084570FM-15+0360KJYM V0201201N006210099019N0048281N1+00001+00001999999ADDGD14991+0099019GF108991999999999999999999MA1101121999999MW1711OC100771REMMET064KJYM 161040Z AUTO 12012G15KT 3SM -SN OVC033 00/00 A2986 RMK AO2;EQDQ01+000003PRSWM1Q02    003PRSWM1
0071725409999992000121723009+41917-084583NSRDB+036099999V020999999999999999999999999999+99999+99999999999ADDGP10060000002009000002021000002009GQ100600896923789GR100600001901779
0220725409999992000122111364+41920-084570FM-15+0360KJYM V0201701N003110123019N0040231N1-00801-00801999999ADDGD12991+0093019GD23991+0123019GD34991+0144019GF108991999999999999999999MA1101151999999MW1711REMMET081KJYM 211136Z AUTO 17006KT 2 1/2SM -SN SCT031 BKN041 OVC048 M08/M08 A2987 RMK AO2;EQDQ01+000003PRSWM1Q02    003PRSWM1
0071725409999992000122223009+41917-084583NSRDB+036099999V020999999999999999999999999999+99999+99999999999ADDGP10060000002009000002021000002009GQ100600894923759GR100600002902249
0071725409999992000122318009+41917-084583NSRDB+036099999V020999999999999999999999999999+99999+99999999999ADDGP10060012702009000002021012702009GQ100600654917819GR100600588914149
0054725409999992000122409009+41917-084583NSRDB+036099999V020999999999999999999999999999+99999+99999999999ADDGP10060000002000000002000000002000GR100600000900009
0071725409999992000122517009+41917-084583NSRDB+036099999V020999999999999999999999999999+99999+99999999999ADDGP10060033502009052902021013002009GQ100600673916299GR100600546914149
0172725409999992000122704374+41920-084570FM-15+0360KJYM V0202401N003610021019N0112651N1-00801-00801999999ADDGD14991+0021019GF108991999999999999999999MA1102401999999MW1711REMMET063KJYM 270437Z AUTO 24007KT 7SM -SN OVC007 M08/M08 A3024 RMK AO2;EQDQ01+000003PRSWM1Q02    003PRSWM1
0135725409999992000122801384+41920-084570FM-15+0360KJYM V0203201N002612200019N0160931N1-01201-01201999999ADDGF100991999999999999999999MA1102001999999MW1001REMMET057KJYM 280138Z AUTO 32005KT 10SM CLR M12/M12 A3012 RMK AO2;EQDQ01+000000PRSWM2
0220725414999992000010400003+41930-085050FM-15+0292KOEB V0200801N004110012019N0048281N1+00301+00301999999ADDGD14991+0012019GF108991999999999999999999GP10060000002000000002000000002000GR100600000900009MA1100411999999MW1101REMMET060KOEB 032355Z AUTO 08008KT 3SM BR OVC004 03/03 A2965 RMK AO2;EQDQ01+000003PRSWM1Q02    003PRSWM1
0213725414999992000010412003+41930-085050FM-15+0292KOEB V0202801N008710036019N0160931N1+00101+00101999999ADDGD14991+0036019GF108991999999999999999999GP10060000002000000002000000002000GR100600000900009MA1100271999999MW1001OC101291REMMET061KOEB 041155Z AUTO 28017G25KT 10SM OVC012 01/01 A2961 RMK AO2;EQDQ01+000000PRSWM2
0241725414999992000010716003+41930-085050FM-15+0292KOEB V0203001N006210093019N0160931N1-00201-00301999999ADDGD14991+0093019GF108991999999999999999999GP10060011602009000002021011602009GQ100600717914709GR100600445914159MA1102611999999MW1711REMMET064KOEB 071555Z AUTO 30012KT 10SM -SN OVC031 M02/M03 A3030 RMK AO2;EQDQ01+000003PRSWM1Q02    003PRSWM1
0186725414999992000010803003+41930-085050FM-15+0292KOEB V0209999C000012200019N0160931N1-00701-00801999999ADDGF100991999999999999999999GP10060000002000000002000000002000GR100600000900009MA1102711999999MW1001REMMET057KOEB 080255Z AUTO 00000KT 10SM CLR M07/M08 A3033 RMK AO2;EQDQ01+000000PRSWM2
0196725414999992000011110003+41930-085050FM-15+0292KOEB V0202501N006212200019N0160931N1+00201-00101999999ADDGF100991999999999999999999GP10060000002000000002000000002000GR100600000900009MA1099801999999MW1001OC100821REMMET059KOEB 110955Z AUTO 25012G16KT 10SM CLR 02/M01 A2947 RMK AO2;EQDQ01+000000PRSWM2
0185725414999992000011508003+41930-085050FM-15+0292KOEB V0201701N004612200019N0160931N1+99999+99999999999ADDGF100991999999999999999999GP10060000002000000002000000002000GR100600000900009MA1102911999999MW1001REMMET056KOEB 150755Z AUTO 17009KT 10SM CLR M04/05 A3039 RMK AO2;EQDQ01+000000PRSWM2
0227725414999992000012004003+41930-085050FM-15+0292KOEB V0209999C000010030019N0024141N1-00401-00401999999ADDGD14991+0030019GF108991999999999999999999GP10060000002000000002000000002000GR100600000900009MA1100511999999MW1711REMMET067KOEB 200355Z AUTO 00000KT 1 1/2SM -SN OVC010 M04/M04 A2968 RMK AO2;EQDQ01+000003PRSWM1Q02    003PRSWM1
0222725414999992000012310003+41930-085050FM-15+0292KOEB V0202001N004110015019N0032181N1-00401-00401999999ADDGD14991+0015019GF108991999999999999999999GP10060000002000000002000000002000GR100600000900009MA1101121999999MW1101REMMET062KOEB 230955Z AUTO 20008KT 2SM BR OVC005 M04/M04 A2986 RMK AO2;EQDQ01+000003PRSWM1Q02    003PRSWM1
0243725414999992000012316003+41930-085050FM-15+0292KOEB V0202601N006710066019N0160931N1-00401-00601999999ADDGD13991+0066019GD23991+0300019GF107991999999999999999999GP10060009402009000002021009402009GQ100600697914449GR100600490914129MA1101251999999MW1001REMMET067KOEB 231555Z AUTO 26013KT 10SM BKN022 BKN100 M04/M06 A2990 RMK AO2;EQDQ01+000000PRSWM2
0203725414999992000012721003+41930-085050FM-15+0292KOEB V0203601N002612200019N0160931N1-00901-01901999999ADDGF100991999999999999999999GP10060030602009069202021007402009GQ100600705921959GR100600471914119MA1103251999999MW1001REMMET057KOEB 272055Z AUTO 36005KT 10SM CLR M09/M19 A3049 RMK AO2;EQDQ01+000000PRSWM2
0203725414999992000012915003+41930-085050FM-15+0292KOEB V0200901N003112200019N0160931N1-00801-00801999999ADDGF100991999999999999999999GP10060021502009034602021013202009GQ100600761913079GR100600339914109MA1103351999999MW1001REMMET057KOEB 291455Z AUTO 09006KT 10SM CLR M08/M08 A3052 RMK AO2;EQDQ01+000000PRSWM2
0276725414999992000020118003+41930-085050FM-15+0292KOEB V0203301N007710108019N0160931N1-00201-00501999999ADDGD12991+0081019GD23991+0108019GD34991+0126019GF108991999999999999999999GP10060007902009000002021007902009GQ100600594917349GR100600716914099MA1101831999999MW1001OC100931REMMET077KOEB 011755Z AUTO 33015G18KT 10SM SCT027 BKN036 OVC042 M02/M05 A3007 RMK AO2;EQDQ01+000000PRSWM2
0282725414999992000020309003+41930-085050FM-15+0292KOEB V0202301N007210042019N0040231N1-00201-00201999999ADDGD12991+0030019GD23991+0042019GD34991+0069019GF108991999999999999999999GP10060000002000000002000000002000GR100600000900009MA1100681999999MW1711OC100871REMMET084KOEB 030855Z AUTO 23014G17KT 2 1/2SM -SN SCT010 BKN014 OVC023 M02/M02 A2973 RMK AO2;EQDQ01+000003PRSWM1Q02    003PRSWM1
0237725414999992000020321003+41930-085050FM-15+0292KOEB V0202601N003610048019N0080461N1+00201+00101999999ADDGD14991+0048019GF108991999999999999999999GP10060005402009000002021005402009GQ100600687922039GR100600511914089MA1100271999999MW1101REMMET060KOEB 032055Z AUTO 26007KT 5SM BR OVC016 02/01 A2961 RMK AO2;EQDQ01+000003PRSWM1Q02    003PRSWM1
0220725414999992000020623003+41930-085050FM-15+0292KOEB V0202201N004612200019N0112651N1-00201-00401999999ADDGD12991+0270019GF104991999999999999999999GP10060003902009010002021003102009GQ100600853924439GR100600114913959MA1102071999999MW1001REMMET059KOEB 062255Z AUTO 22009KT 7SM SCT095 M02/M04 A3014 RMK AO2;EQDQ01+000000PRSWM2
0186725414999992000020810003+41930-085050FM-15+0292KOEB V0201401N002112200019N0160931N1-00901-00901999999ADDGF100991999999999999999999GP10060000002000000002000000002000GR100600000900009MA1102981999999MW1001REMMET057KOEB 080955Z AUTO 14004KT 10SM CLR M09/M09 A3041 RMK AO2;EQDQ01+000000PRSWM2
0204725414999992000021408003+41930-085050FM-15+0292KOEB V0200301N004610027019N0160931N1-00301-00301999999ADDGD14991+0027019GF108991999999999999999999GP10060000002000000002000000002000GR100600000900009MA1100641999999MW1001REMMET060KOEB 140755Z AUTO 03009KT 10SM OVC009 M03/M03 A2972 RMK AO2;EQDQ01+000000PRSWM2
0202725414999992000030603003+41930-085050FM-15+0292KOEB V0209999C000012200019N0160931N1+00601+00401999999ADDGD12991+0240019GF104991999999999999999999GP10060000002000000002000000002000GR100600000900009MA1101661999999MW1001REMMET058KOEB 060255Z AUTO 00000KT 10SM SCT080 06/04 A3002 RMK AO2;EQDQ01+000000PRSWM2
0201725414999992000030617003+41930-085050FM-15+0292KOEB V0201901N002112200019N0160931N1+01401+00201999999ADDGF100991999999999999999999GP10060064802009081002021013502009GQ100600509915369GR100600875913899MA1102241999999MW1001REMMET055KOEB 061655Z AUTO 19004KT 10SM CLR 14/02 A3019 RMK AO2;EQDQ01+000000PRSWM2
0184725414999992000030705003+41930-085050FM-15+0292KOEB V0201501N003612200019N0160931N1+00801+00401999999ADDGF100991999999999999999999GP10060000002000000002000000002000GR100600000900009MA1101961999999MW1001REMMET055KOEB 070455Z AUTO 15007KT 10SM CLR 08/04 A3011 RMK AO2;EQDQ01+000000PRSWM2
0220725414999992000031407003+41930-085050FM-15+0292KOEB V0202401N002110132019N0064371N1+00301+00301999999ADDGD14991+0132019GF108991999999999999999999GP10060000002000000002000000002000GR100600000900009MA1101961999999MW1101REMMET060KOEB 140655Z AUTO 24004KT 4SM BR OVC044 03/03 A3011 RMK AO2;EQDQ01+000003PRSWM1Q02    003PRSWM1
0240725414999992000031610003+41930-085050FM-15+0292KOEB V0200201N006210039019N0160931N1-00101-00101999999ADDGD13991+0039019GD24991+0063019GF108991999999999999999999GP10060000002000000002000000002000GR100600000900009MA1101961999999MW1001OC100871REMMET073KOEB 160955Z AUTO 02012G17KT 10SM UP BKN013 OVC021 M01/M01 A3011 RMK AO2;EQDQ01+000000PRSWM2
0202725414999992000031909003+41930-085050FM-15+0292KOEB V0200901N002110180019N0160931N1+00201+00101999999ADDGD14991+0180019GF108991999999999999999999GP10060000002000000002000000002000GR100600000900009MA1101901999999MW1001REMMET058KOEB 190855Z AUTO 09004KT 10SM OVC060 02/01 A3009 RMK AO2;EQDQ01+000000PRSWM2
0212725414999992000032517003+41930-085050FM-15+0292KOEB V0202701N009312200019N0160931N1+01601+00101999999ADDGF100991999999999999999999GP10060076002008085102015014102008GQ100600434915189GR100600997913749MA1101291999999MW1001OC101231REMMET058KOEB 251655Z AUTO 27018G24KT 10SM CLR 16/01 A2991 RMK AO2;EQDQ01+000000PRSWM2
0263725414999992000032823003+41930-085050FM-15+0292KOEB V0203001N005710081019N0160931N1+00501+00301999999ADDGD12991+0066019GD23991+0081019GD34991+0180019GF108991999999999999999999GP10060020302008032102015011402008GQ100600738925979GR100600382913719MA1100001999999MW1001REMMET072KOEB 282255Z AUTO 30011KT 10SM SCT022 BKN027 OVC065 05/03 A2953 RMK AO2;EQDQ01+000000PRSWM2
0184725414999992000033102003+41930-085050FM-15+0292KOEB V0202901N002112200019N0160931N1+00501+00101999999ADDGF100991999999999999999999GP10060000002000000002000000002000GR100600000900009MA1101901999999MW1001REMMET055KOEB 310155Z AUTO 29004KT 10SM CLR 05/01 A3009 RMK AO2;EQDQ01+000000PRSWM2
0184725414999992000041606003+41930-085050FM-15+0292KOEB V0200401N002612200019N0160931N1+01401+01201999999ADDGF100991999999999999999999GP10060000002000000002000000002000GR100600000900009MA1101591999999MW1001REMMET055KOEB 160556Z AUTO 04005KT 10SM CLR 14/12 A3000 RMK AO2;EQDQ01+000000PRSWM2
0201725414999992000042223003+41930-085050FM-15+0292KOEB V0202901N003612200019N0160931N1+01601+00101999999ADDGF100991999999999999999999GP10060030702008058602015009602008GQ100600689926819GR100600485913529MA1100951999999MW1001REMMET055KOEB 222256Z AUTO 29007KT 10SM CLR 16/01 A2981 RMK AO2;EQDQ01+000000PRSWM2
0201725414999992000042714003+41930-085050FM-15+0292KOEB V0200801N003112200019N0160931N1+01201+00101999999ADDGF100991999999999999999999GP10060046502008064802015014002008GQ100600599909839GR100600675913489MA1101351999999MW1001REMMET055KOEB 271358Z AUTO 08006KT 10SM CLR 12/01 A2993 RMK AO2;EQDQ01+000000PRSWM2
0219725414999992000050421003+41930-085050FM-15+0292KOEB V0202501N006712200019N0160931N1+02701+01601999999ADDGD12991+0180019GF104991999999999999999999GP10060062602008056502015022702008GQ100600450924839GR100600948913439MA1101761999999MW1001REMMET058KOEB 042056Z AUTO 25013KT 10SM SCT060 27/16 A3005 RMK AO2;EQDQ01+000000PRSWM2
0184725414999992000050502003+41930-085050FM-15+0292KOEB V0201701N003112200019N0160931N1+02201+01901999999ADDGF100991999999999999999999GP10060000002000000002000000002000GR100600000900009MA1101831999999MW1001REMMET055KOEB 050156Z AUTO 17006KT 10SM CLR 22/19 A3007 RMK AO2;EQDQ01+000000PRSWM2
0184725414999992000050509003+41930-085050FM-15+0292KOEB V0202301N002612200019N0160931N1+01801+01701999999ADDGF100991999999999999999999GP10060000002000000002000000002000GR100600000900009MA1102001999999MW1001REMMET055KOEB 050856Z AUTO 23005KT 10SM CLR 18/17 A3012 RMK AO2;EQDQ01+000000PRSWM2
0230725414999992000050616003+41930-085050FM-15+0292KOEB V0202501N005710132019N0160931N1+02701+01801999999ADDGD13991+0132019GF107991999999999999999999GP10060074902008062802015024702008GQ100600371912369GR100601070913429MA1101961999999MW1001OC100821REMMET061KOEB 061555Z AUTO 25011G16KT 10SM BKN044 27/18 A3011 RMK AO2;EQDQ01+000000PRSWM2
0252725414999992000050723003+41930-085050FM-15+0292KOEB V0202301N005710270019N0160931N1+02601+01801999999ADDGD12991+0210019GD24991+0270019GF108991999999999999999999GP10060019802008004602015018002008GQ100600664927229GR100600537913419MA1101051999999MW1001OC100821REMMET068KOEB 072255Z AUTO 23011G16KT 10SM SCT070 OVC090 26/18 A2984 RMK AO2;EQDQ01+000000PRSWM2
0054725414999992000051108009+41933-085050NSRDB+029299999V020999999999999999999999999999+99999+99999999999ADDGP10060000002000000002000000002000GR100600000900009
0219725414999992000051123003+41930-085050FM-15+0292KOEB V0201601N002110129019N0160931N1+02101+01401999999ADDGD14991+0129019GF108991999999999999999999GP10060009402008000002015009402008GQ100600657927319GR100600549913399MA1100441999999MW1001REMMET058KOEB 112256Z AUTO 16004KT 10SM OVC043 21/14 A2966 RMK AO2;EQDQ01+000000PRSWM2
0215725414999992000051612594+41930-085050FM-15+0292KOEB V0201801N003610210019N0160931N1+01301+00501999999ADDGD12991+0144019GD22991+0180019GD34991+0210019GF108991999999999999999999MA1101831999999MW1511REMMET076KOEB 161259Z AUTO 18007KT 10SM -DZ SCT048 SCT065 OVC070 13/05 A3007 RMK AO2;EQDQ01+000003PRSWM1Q02    003PRSWM1
0281725414999992000051618013+41930-085050FM-15+0292KOEB V0201701N002610150019N0080461N1+01101+01101999999ADDGD12991+0048019GD22991+0126019GD34991+0150019GF108991999999999999999999GP10060021102008000602015020502008GQ100600230917619GR100601230913369MA1101761999999MW1631REMMET074KOEB 161801Z AUTO 17005KT 5SM RA SCT016 SCT042 OVC050 11/11 A3005 RMK AO2;EQDQ01+000003PRSWM1Q02    003PRSWM1
0242725414999992000051903003+41930-085050FM-15+0292KOEB V0200901N008210027019N0080461N1+01001+01001999999ADDGD13991+0027019GD24991+0045019GF108991999999999999999999GP10060000002000000002000000002000GR100600000900009MA1101351999999MW1631REMMET067KOEB 190256Z AUTO 09016KT 5SM RA BKN009 OVC015 10/10 A2993 RMK AO2;EQDQ01+000003PRSWM1Q02    003PRSWM1
0054725414999992000051905009+41933-085050NSRDB+029299999V020999999999999999999999999999+99999+99999999999ADDGP10060000002000000002000000002000GR100600000900009
0184725414999992000053006003+41930-085050FM-15+0292KOEB V0201401N002112200019N0160931N1+01401+01401999999ADDGF100991999999999999999999GP10060000002000000002000000002000GR100600000900009MA1101761999999MW1001REMMET055KOEB 300557Z AUTO 14004KT 10SM CLR 14/14 A3005 RMK AO2;EQDQ01+000000PRSWM2
0218725414999992000053115023+41930-085050FM-15+0292KOEB V0202101N003610270019N0112651N1+02301+02201999999ADDGD13991+0270019GF107991999999999999999999GP10060016602008000002015016602008GQ100600439910219GR100600956913289MA1101591999999MW1001REMMET057KOEB 311502Z AUTO 21007KT 7SM BKN095 23/22 A3000 RMK AO2;EQDQ01+000000PRSWM2
0133725414999992000060702564+41930-085050FM-15+0292KOEB V0202501N002112200019N0160931N1+01401+01201999999ADDGF100991999999999999999999MA1102341999999MW1001REMMET055KOEB 070256Z AUTO 25004KT 10SM CLR 14/12 A3022 RMK AO2;EQDQ01+000000PRSWM2
0071725414999992000060923009+41933-085050NSRDB+029299999V020999999999999999999999999999+99999+99999999999ADDGP10060039102008057302015012402008GQ100600622927699GR100600617913259
0202725414999992000061703003+41920-085500FM-15+0292KOEB V0203101N002610150019N0160931N1+01901+01701999999ADDGD14991+0150019GF108991999999999999999999GP10060000002000000002000000002000GR100600000900009MA1101191999999MW1001REMMET058KOEB 170300Z AUTO 31005KT 10SM OVC055 19/17 A2988 RMK AO2;EQDQ01+000000PRSWM2
0133725414999992000061708574+41920-085500FM-15+0292KOEB V0202501N002112200019N0160931N1+01701+01701999999ADDGF100991999999999999999999MA1101491999999MW1001REMMET055KOEB 170857Z AUTO 25004KT 10SM CLR 17/17 A2997 RMK AO2;EQDQ01+000000PRSWM2
0054725414999992000061909009+41933-085050NSRDB+029299999V020999999999999999999999999999+99999+99999999999ADDGP10060000002000000002000000002000GR100600000900009
0071725414999992000062121009+41933-085050NSRDB+029299999V020999999999999999999999999999+99999+99999999999ADDGP10060025302008001202015024302008GQ100600394925529GR100601021913229
0219725414999992000062313003+41920-085500FM-15+0292KOEB V0209999C000010150019N0160931N1+02101+01901999999ADDGD13991+0150019GF107991999999999999999999GP10060032302008044402015014202008GQ100600660907939GR100600537913229MA1101691999999MW1001REMMET058KOEB 231300Z AUTO 00000KT 10SM BKN055 21/19 A3003 RMK AO2;EQDQ01+000000PRSWM2
0274725414999992000062418003+41920-085500FM-15+0292KOEB V0202101N005712200019N0160931N1+02601+02201999999ADDGD12991+0075019GD22991+0090019GD32991+0240019GF104991999999999999999999GP10060049402008008402015041502008GQ100600191917129GR100601249913229MA1101221999999MW1001OC100821REMMET075KOEB 241757Z AUTO 21011G16KT 10SM SCT025 SCT030 SCT080 26/22 A2989 RMK AO2;EQDQ01+000000PRSWM2
0202725414999992000062606003+41920-085500FM-15+0292KOEB V0201501N002612200019N0048281N1+01901+01901999999ADDGF100991999999999999999999GP10060000002000000002000000002000GR100600000900009MA1101491999999MW1101REMMET057KOEB 260558Z AUTO 15005KT 3SM BR CLR 19/19 A2997 RMK AO2;EQDQ01+000003PRSWM1Q02    003PRSWM1
0242725414999992000062910003+41920-085500FM-15+0292KOEB V0202701N002110048019N0064371N1+01601+01601999999ADDGD12991+0027019GD23991+0048019GF107991999999999999999999GP10060000002000000002000000002000GR100600000900009MA1101291999999MW1101REMMET067KOEB 290958Z AUTO 27004KT 4SM BR SCT009 BKN016 16/16 A2991 RMK AO2;EQDQ01+000003PRSWM1Q02    003PRSWM1
0201725414999992000070811003+41920-085500FM-15+0292KOEB V0201401N001512200019N0160931N1+01401+01201999999ADDGF100991999999999999999999GP10060000002008000002015000002008GQ100600866906239GR100600059910029MA1102301999999MW1001REMMET055KOEB 081100Z AUTO 14003KT 10SM CLR 14/12 A3021 RMK AO2;EQDQ01+000000PRSWM2
0184725414999992000070908003+41920-085500FM-15+0292KOEB V0201801N001512200019N0160931N1+02001+02001999999ADDGF100991999999999999999999GP10060000002000000002000000002000GR100600000900009MA1101631999999MW1001REMMET055KOEB 090758Z AUTO 18003KT 10SM CLR 20/20 A3001 RMK AO2;EQDQ01+000000PRSWM2
0054725414999992000071107009+41933-085050NSRDB+029299999V020999999999999999999999999999+99999+99999999999ADDGP10060000002000000002000000002000GR100600000900009
0202725414999992000071108003+41920-085500FM-15+0292KOEB V0200701N002112200019N0064371N1+01901+01901999999ADDGF100991999999999999999999GP10060000002000000002000000002000GR100600000900009MA1101461999999MW1101REMMET057KOEB 110757Z AUTO 07004KT 4SM BR CLR 19/19 A2996 RMK AO2;EQDQ01+000003PRSWM1Q02    003PRSWM1
0071725414999992000071220009+41933-085050NSRDB+029299999V020999999999999999999999999999+99999+99999999999ADDGP10060082502008066302015024902008GQ100600297923509GR100601147913229
0151725414999992000072203574+41920-085050FM-15+0292KOEB V0209999C000012200019N0160931N1+01301+01301999999ADDGD12991+0270019GF104991999999999999999999MA1101691999999MW1001REMMET058KOEB 220357Z AUTO 00000KT 10SM SCT090 13/13 A3003 RMK AO2;EQDQ01+000000PRSWM2
0202725414999992000072309003+41920-085050FM-15+0292KOEB V0200401N001510180019N0160931N1+01301+01301999999ADDGD13991+0180019GF107991999999999999999999GP10060000002000000002000000002000GR100600000900009MA1102201999999MW1001REMMET058KOEB 230900Z AUTO 04003KT 10SM BKN060 13/13 A3018 RMK AO2;EQDQ01+000000PRSWM2
0133725414999992000072314564+41920-085050FM-15+0292KOEB V0200601N001512200019N0160931N1+02001+01701999999ADDGF100991999999999999999999MA1102301999999MW1001REMMET055KOEB 231456Z AUTO 06003KT 10SM CLR 20/17 A3021 RMK AO2;EQDQ01+000000PRSWM2
0238725414999992000072711003+41920-085050FM-15+0292KOEB V0209999C00001000151CN0012071N1+01801+01801999999ADDGD15991+0001519GF109991999999000251999999GP10060000002008000002015000002008GQ100600878906579GR100600025906519MA1101801999999MW1101REMMET061KOEB 271056Z AUTO 00000KT 3/4SM BR VV005 18/18 A3006 RMK AO2;EQDQ01+000003PRSWM1Q02    003PRSWM1
0202725414999992000081006003+41920-085050FM-15+0292KOEB V0209999C000012200019N0064371N1+01601+01601999999ADDGF100991999999999999999999GP10060000002000000002000000002000GR100600000900009MA1101631999999MW1101REMMET057KOEB 100600Z AUTO 00000KT 4SM BR CLR 16/16 A3001 RMK AO2;EQDQ01+000003PRSWM1Q02    003PRSWM1
0263725414999992000081419023+41920-085050FM-15+0292KOEB V0202301N002610132019N0160931N1+02801+02201999999ADDGD12991+0108019GD23991+0132019GD34991+0150019GF108991999999999999999999GP10060065902008029902015039802008GQ100600297920249GR100601156913329MA1101931999999MW1001REMMET072KOEB 141902Z AUTO 23005KT 10SM SCT036 BKN044 OVC050 28/22 A3010 RMK AO2;EQDQ01+000000PRSWM2
0173725414999992000081810574+41920-085050FM-15+0292KOEB V0203601N003110015019N0040231N1+01701+01701999999ADDGD14991+0015019GF108991999999999999999999MA1101461999999MW1101REMMET064KOEB 181057Z AUTO 36006KT 2 1/2SM BR OVC005 17/17 A2996 RMK AO2;EQDQ01+000003PRSWM1Q02    003PRSWM1
0241725414999992000081820003+41920-085050FM-15+0292KOEB V0203201N003612200019N0160931N1+02401+01801999999ADDGD12991+0180019GD22991+0210019GF104991999999999999999999GP10060060602008033402015033902008GQ100600372922599GR100601061913349MA1101901999999MW1001REMMET065KOEB 181957Z AUTO 32007KT 10SM SCT065 SCT070 24/18 A3009 RMK AO2;EQDQ01+000000PRSWM2
0071725414999992000082200009+41933-085050NSRDB+029299999V020999999999999999999999999999+99999+99999999999ADDGP10060002902008000002015002902008GQ100600797927679GR100600239913369
0202725414999992000082506003+41920-085050FM-15+0292KOEB V0209999C000012200019N0032181N1+01301+01301999999ADDGF100991999999999999999999GP10060000002000000002000000002000GR100600000900009MA1102071999999MW1101REMMET057KOEB 250558Z AUTO 00000KT 2SM BR CLR 13/13 A3014 RMK AO2;EQDQ01+000003PRSWM1Q02    003PRSWM1
0219725414999992000083018033+41920-085050FM-15+0292KOEB V0200501N002612200019N0064371N1+02701+02601999999ADDGF100991999999999999999999GP10060079002008061902015027302008GQ100600335917539GR100601118913419MA1101961999999MW1101REMMET057KOEB 301803Z AUTO 05005KT 4SM BR CLR 27/26 A3011 RMK AO2;EQDQ01+000003PRSWM1Q02    003PRSWM1
0054725414999992000090106009+41933-085050NSRDB+029299999V020999999999999999999999999999+99999+99999999999ADDGP10060000002000000002000000002000GR100600000900009
0184725414999992000091401003+41920-085050FM-15+0292KOEB V0201801N001512200019N0160931N1+01701+01501999999ADDGF100991999999999999999999GP10060000002000000002000000002000GR100600000900009MA1101661999999MW1001REMMET055KOEB 140055Z AUTO 18003KT 10SM CLR 17/15 A3002 RMK AO2;EQDQ01+000000PRSWM2
0263725414999992000092223003+41920-085050FM-15+0292KOEB V0201101N005710144019N0160931N1+01501+01401999999ADDGD13991+0144019GD23991+0210019GD34991+0240019GF108991999999999999999999GP10060003502008000002015003502008GQ100600784925939GR100600272913579MA1101121999999MW1001REMMET072KOEB 222255Z AUTO 11011KT 10SM BKN048 BKN075 OVC085 15/14 A2986 RMK AO2;EQDQ01+000000PRSWM2
0184725414999992000092511003+41920-085050FM-15+0292KOEB V0209999C000012200019N0160931N1+00701+00701999999ADDGF100991999999999999999999GP10060000002000000002000000002000GR100600000900009MA1101761999999MW1001REMMET055KOEB 251055Z AUTO 00000KT 10SM CLR 07/07 A3005 RMK AO2;EQDQ01+000000PRSWM2
0201725414999992000092721003+41920-085050FM-15+0292KOEB V0202701N006212200019N0160931N1+02301+01001999999ADDGF100991999999999999999999GP10060043102008057702015014002008GQ100600597923459GR100600685913619MA1101861999999MW1001REMMET055KOEB 272055Z AUTO 27012KT 10SM CLR 23/10 A3008 RMK AO2;EQDQ01+000000PRSWM2
0054725414999992000092803009+41933-085050NSRDB+029299999V020999999999999999999999999999+99999+99999999999ADDGP10060000002000000002000000002000GR100600000900009
0071725414999992000093023009+41933-085050NSRDB+029299999V020999999999999999999999999999+99999+99999999999ADDGP10060007202008009302015005702008GQ100600810925759GR100600213913649
0220725414999992000100121003+41920-085050FM-15+0292KOEB V0202001N004112200019N0160931N1+02601+01101999999ADDGF100991999999999999999999GP10060042402008059402015013702008GQ100600612923379GR100600657913659MA1101121999999MW1001OC100821REMMET066KOEB 012055Z AUTO 20008G16KT 170V230 10SM CLR 26/11 A2986 RMK AO2;EQDQ01+000000PRSWM2
0202725414999992000100603003+41920-085050FM-15+0292KOEB V0200401N003610042019N0160931N1+00901+00901999999ADDGD14991+0042019GF108991999999999999999999GP10060000002000000002000000002000GR100600000900009MA1101321999999MW1001REMMET058KOEB 060255Z AUTO 04007KT 10SM OVC014 09/09 A2992 RMK AO2;EQDQ01+000000PRSWM2
0201725414999992000101114003+41920-085050FM-15+0292KOEB V0202501N003112200019N0160931N1+01001+00701999999ADDGF100991999999999999999999GP10060023302008038602015011902008GQ100600729911709GR100600402913739MA1102641999999MW1001REMMET055KOEB 111355Z AUTO 25006KT 10SM CLR 10/07 A3031 RMK AO2;EQDQ01+000000PRSWM2
0224725414999992000101709003+41920-085050FM-15+0292KOEB V0209999C000010015019N0040231N1+01201+01201999999ADDGD14991+0015019GF108991999999999999999999GP10060000002000000002000000002000GR100600000900009MA1102031999999MW1101REMMET064KOEB 170855Z AUTO 00000KT 2 1/2SM BR OVC005 12/12 A3013 RMK AO2;EQDQ01+000003PRSWM1Q02    003PRSWM1
0054725414999992000101900009+41933-085050NSRDB+029299999V020999999999999999999999999999+99999+99999999999ADDGP10060000002000000002000000002000GR100600000900009
0202725414999992000102203003+41920-085050FM-15+0292KOEB V0201201N002612200019N0064371N1+01401+01001999999ADDGF100991999999999999999999GP10060000002000000002000000002000GR100600000900009MA1102571999999MW1051REMMET057KOEB 220259Z AUTO 12005KT 4SM HZ CLR 14/10 A3029 RMK AO2;EQDQ01+000003PRSWM1Q02    003PRSWM1
0184725414999992000102309003+41920-085050FM-15+0292KOEB V0201301N003112200019N0160931N1+01301+01101999999ADDGF100991999999999999999999GP10060000002000000002000000002000GR100600000900009MA1103121999999MW1001REMMET055KOEB 230857Z AUTO 13006KT 10SM CLR 13/11 A3045 RMK AO2;EQDQ01+000000PRSWM2
0221725414999992000102412003+41920-085050FM-15+0292KOEB V0202301N001510015019N0016091N1+01701+01701999999ADDGD14991+0015019GF108991999999999999999999GP10060000002000000002000000002000GR100600000900009MA1102741999999MW1651REMMET061KOEB 241200Z AUTO 23003KT 1SM +RA OVC005 17/17 A3034 RMK AO2;EQDQ01+000003PRSWM1Q02    003PRSWM1
0264725414999992000102710003+41920-085050FM-15+0292KOEB V0202001N001510270019N0064371N1+01701+01701999999ADDGD12991+0081019GD22991+0180019GD34991+0270019GF108991999999999999999999GP10060000002000000002000000002000GR100600000900009MA1101761999999MW1101REMMET074KOEB 270957Z AUTO 20003KT 4SM BR SCT027 SCT060 OVC095 17/17 A3005 RMK AO2;EQDQ01+000003PRSWM1Q02    003PRSWM1
0054725414999992000103101009+41933-085050NSRDB+029299999V020999999999999999999999999999+99999+99999999999ADDGP10060000002000000002000000002000GR100600000900009
0132725414999992000110218354+41920-085050FM-15+0292KOEB V0202101N003612200019N0112651N1+02101+01101999999ADDGF100991999999999999999999MA1101761999999MW1001REMMET054KOEB 021835Z AUTO 21007KT 7SM CLR 21/11 A3005 RMK AO2;EQDQ01+000000PRSWM2
0054725414999992000110908009+41933-085050NSRDB+029299999V020999999999999999999999999999+99999+99999999999ADDGP10060000002000000002000000002000GR100600000900009
0071725414999992000111413009+41933-085050NSRDB+029299999V020999999999999999999999999999+99999+99999999999ADDGP10060000002009000002021000002009GQ100600878911709GR100600026906879
0071725414999992000111421009+41933-085050NSRDB+029299999V020999999999999999999999999999+99999+99999999999ADDGP10060003602009000002021003602009GQ100600740922559GR100600385913989
0054725414999992000111504009+41933-085050NSRDB+029299999V020999999999999999999999999999+99999+99999999999ADDGP10060000002000000002000000002000GR100600000900009
0192725414999992000111612354+41920-085050FM-15+0292KOEB V0201801N002610078019N0112651N1+00301+00101999999ADDGD13991+0078019GD24991+0099019GF108991999999999999999999MA1100581999999MW1711REMMET068KOEB 161235Z AUTO 18005KT 7SM -SN BKN026 OVC033 03/01 A2970 RMK AO2;EQDQ01+000003PRSWM1Q02    003PRSWM1
0071725414999992000112013009+41933-085050NSRDB+029299999V020999999999999999999999999999+99999+99999999999ADDGP10060000002009000002021000002009GQ100600884911849GR100600014905029
0183725414999992000112100354+41920-085050FM-15+0292KOEB V0202501N007710030019N0064371N1-00301-00301999999ADDGD14991+0030019GF108991999999999999999999MA1101661999999MW1711OC100981REMMET066KOEB 210035Z AUTO 25015G19KT 4SM -SN OVC010 M03/M03 A3002 RMK AO2;EQDQ01+000003PRSWM1Q02    003PRSWM1
0054725414999992000112610009+41933-085050NSRDB+029299999V020999999999999999999999999999+99999+99999999999ADDGP10060000002000000002000000002000GR100600000900009
0169725414999992000112811354+41920-085050FM-15+0292KOEB V0202301N004610024019N0048281N1+00101+00101999999ADDGD14991+0024019GF108991999999999999999999MA1101191999999MW1101REMMET060KOEB 281135Z AUTO 23009KT 3SM BR OVC008 01/01 A2988 RMK AO2;EQDQ01+000003PRSWM1Q02    003PRSWM1
0071725414999992000112822009+41933-085050NSRDB+029299999V020999999999999999999999999999+99999+99999999999ADDGP10060002502009000002021002502009GQ100600843923439GR100600140914069
0134725414999992000120318354+41920-085050FM-15+0292KOEB V0209999C000012200019N0160931N1+00101-00401999999ADDGF100991999999999999999999MA1103451999999MW1001REMMET056KOEB 031835Z AUTO 00000KT 10SM CLR 01/M04 A3055 RMK AO2;EQDQ01+000000PRSWM2
0135725414999992000120412354+41920-085050FM-15+0292KOEB V0202001N003112200019N0160931N1-00401-00601999999ADDGF100991999999999999999999MA1102641999999MW1001REMMET057KOEB 041235Z AUTO 20006KT 10SM CLR M04/M06 A3031 RMK AO2;EQDQ01+000000PRSWM2
0071725414999992000120814009+41933-085050NSRDB+029299999V020999999999999999999999999999+99999+99999999999ADDGP10060000002009000002021000002009GQ100600854912649GR100600114914109
0054725414999992000121212009+41933-085050NSRDB+029299999V020999999999999999999999999999+99999+99999999999ADDGP10060000002000000002000000002000GR100600000900009
0054725414999992000121511009+41933-085050NSRDB+029299999V020999999999999999999999999999+99999+99999999999ADDGP10060000002000000002000000002000GR100600000900009
0180725414999992000121615354+41920-085050FM-15+0292KOEB V0201501N005110018019N0048281N1+00401+00401999999ADDGD14991+0018019GF108991999999999999999999MA1100541999999MW1101OC100821REMMET063KOEB 161535Z AUTO 15010G16KT 3SM BR OVC006 04/04 A2969 RMK AO2;EQDQ01+000003PRSWM1Q02    003PRSWM1
0171725414999992000121621354+41920-085050FM-15+0292KOEB V0202301N002610006019N0008051N1+00401+00401999999ADDGD14991+0006019GF108991999999999999999999MA1100201999999MW1441REMMET062KOEB 162135Z AUTO 23005KT 1/2SM FG OVC002 04/04 A2959 RMK AO2;EQDQ01+000003PRSWM1Q02    003PRSWM1
0054725414999992000121713009+41933-085050NSRDB+029299999V020999999999999999999999999999+99999+99999999999ADDGP10060000002000000002000000002000GR100600000900009
0153725414999992000121819354+41920-085050FM-15+0292KOEB V0201701N002610300019N0160931N1-01101-01301999999ADDGD14991+0300019GF108991999999999999999999MA1101561999999MW1001REMMET060KOEB 181935Z AUTO 17005KT 10SM OVC100 M11/M13 A2999 RMK AO2;EQDQ01+000000PRSWM2
0054725414999992000122002009+41933-085050NSRDB+029299999V020999999999999999999999999999+99999+99999999999ADDGP10060000002000000002000000002000GR100600000900009
0054725414999992000122213009+41933-085050NSRDB+029299999V020999999999999999999999999999+99999+99999999999ADDGP10060000002000000002000000002000GR100600000900009
0054725414999992000122309009+41933-085050NSRDB+029299999V020999999999999999999999999999+99999+99999999999ADDGP10060000002000000002000000002000GR100600000900009
0153725414999992000122523354+41920-085050FM-15+0292KOEB V0202501N002112200019N0160931N1-01301-01301999999ADDGD12991+0120019GF104991999999999999999999MA1103831999999MW1001REMMET060KOEB 252335Z AUTO 25004KT 10SM SCT040 M13/M13 A3066 RMK AO2;EQDQ01+000000PRSWM2
0054725414999992000122611009+41933-085050NSRDB+029299999V020999999999999999999999999999+99999+99999999999ADDGP10060000002000000002000000002000GR100600000900009
0054725414999992000122710009+41933-085050NSRDB+029299999V020999999999999999999999999999+99999+99999999999ADDGP10060000002000000002000000002000GR100600000900009
0071725414999992000122916009+41933-085050NSRDB+029299999V020999999999999999999999999999+99999+99999999999ADDGP10060015602009007502021013302009GQ100600720914829GR100600437914159
0054725414999992000123004009+41933-085050NSRDB+029299999V020999999999999999999999999999+99999+99999999999ADDGP10060000002000000002000000002000GR100600000900009
0204725415999992000010506003+42250-084950FM-15+0287KRMY V0209999C000010270019N0160931N1-00201-00301999999ADDGD14991+0270019GF108991999999999999999999GP10060000002000000002000000002000GR100600000900009MA1101931999999MW1001REMMET060KRMY 050555Z AUTO 00000KT 10SM OVC090 M02/M03 A3010 RMK AO2;EQDQ01+000000PRSWM2
0234725415999992000010900003+42250-084950FM-15+0287KRMY V0202301N007210078019N0160931N1+00601-00101999999ADDGD14991+0078019GF108991999999999999999999GP10060000002000000002000000002000GR100600000900009MA1101321999999MW1511OC101131REMMET066KRMY 082355Z AUTO 23014G22KT 10SM -DZ OVC026 06/M01 A2992 RMK AO2;EQDQ01+000003PRSWM1Q02    003PRSWM1
0262725415999992000013023003+42250-084950FM-15+0287KRMY V0202101N003610060019N0048281N1-00401-00401999999ADDGD12991+0048019GD24991+0060019GF108991999999999999999999GP10060002202009017702021001302009GQ100600863924229GR100600076911639MA1101561999999MW1711REMMET070KRMY 302255Z AUTO 21007KT 3SM -SN SCT016 OVC020 M04/M04 A2999 RMK AO2;EQDQ01+000003PRSWM1Q02    003PRSWM1
0214725415999992000020222003+42250-084950FM-15+0287KRMY V0202201N005712200019N0160931N1-00201-00801999999ADDGF100991999999999999999999GP10060018202009045702021008002009GQ100600772923269GR100600311914089MA1101931999999MW1001OC100721REMMET060KRMY 022155Z AUTO 22011G14KT 10SM CLR M02/M08 A3010 RMK AO2;EQDQ01+000000PRSWM2
0202725415999992000020821003+42250-084950FM-15+0287KRMY V0202101N006212200019N0160931N1+00201-00601999999ADDGF100991999999999999999999GP10060029402009036302021015602009GQ100600676922109GR100600535914069MA1102401999999MW1001REMMET056KRMY 082055Z AUTO 21012KT 10SM CLR 02/M06 A3024 RMK AO2;EQDQ01+000000PRSWM2
0263725415999992000021321003+42250-084950FM-15+0287KRMY V0200701N003610129019N0160931N1-00201-00301999999ADDGD12991+0045019GD24991+0129019GF108991999999999999999999GP10060006002009000002021006002009GQ100600662922199GR100600566914039MA1100851999999MW1711REMMET071KRMY 132055Z AUTO 07007KT 10SM -SN SCT015 OVC043 M02/M03 A2978 RMK AO2;EQDQ01+000003PRSWM1Q02    003PRSWM1
0248725415999992000021802003+42250-084950FM-15+0287KRMY V0201201N004610240019N0160931N1-00201-00701999999ADDGD12991+0180019GD23991+0240019GD33991+0270019GF107991999999999999999999GP10060000002000000002000000002000GR100600000900009MA1102841999999MW1001REMMET074KRMY 180155Z AUTO 12009KT 10SM SCT065 BKN080 BKN090 M02/M07 A3037 RMK AO2;EQDQ01+000000PRSWM2
0220725415999992000021920003+42250-084950FM-15+0287KRMY V0202701N004110102019N0160931N1+00001-00401999999ADDGD14991+0102019GF108991999999999999999999GP10060021302009004802021018802009GQ100600580920819GR100600741914009MA1102241999999MW1001REMMET059KRMY 191955Z AUTO 27008KT 10SM OVC034 00/M04 A3019 RMK AO2;EQDQ01+000000PRSWM2
0212725415999992000022218003+42250-084950FM-15+0287KRMY V0201901N005112200019N0160931N1+01101+00401999999ADDGF100991999999999999999999GP10060063202009086602021010802009GQ100600529917289GR100600843913989MA1102071999999MW1001OC100771REMMET058KRMY 221755Z AUTO 19010G15KT 10SM CLR 11/04 A3014 RMK AO2;EQDQ01+000000PRSWM2
0273725415999992000022500003+42250-084950FM-15+0287KRMY V0202601N005710072019N0112651N1+01401+01301999999ADDGD13991+0072019GD23991+0123019GD34991+0180019GF108991999999999999999999GP10060000002009000002021000002009GQ100600883925599GR100600015905009MA1101321999999MW1001OC100931REMMET074KRMY 242355Z AUTO 26011G18KT 7SM BKN024 BKN041 OVC065 14/13 A2992 RMK AO2;EQDQ01+000000PRSWM2
0224725415999992000022502003+42250-084950FM-15+0287KRMY V0202601N005710114019N0160931N1+01301+01201999999ADDGD12991+0069019GD24991+0114019GF108991999999999999999999GP10060000002000000002000000002000GR100600000900009MA1101421999999MW1001REMMET065KRMY 250155Z AUTO 26011KT 10SM SCT023 OVC038 13/12 A2995 RMK AO2;EQDQ01+000000PRSWM2
0184725415999992000030502003+42250-084950FM-15+0287KRMY V0209999C000012200019N0160931N1+00601+00101999999ADDGF100991999999999999999999GP10060000002000000002000000002000GR100600000900009MA1101191999999MW1001REMMET055KRMY 050155Z AUTO 00000KT 10SM CLR 06/01 A2988 RMK AO2;EQDQ01+000000PRSWM2
0184725415999992000030802003+42250-084950FM-15+0287KRMY V0209999C000012200019N0160931N1+01801+01401999999ADDGF100991999999999999999999GP10060000002000000002000000002000GR100600000900009MA1101461999999MW1001REMMET055KRMY 080155Z AUTO 00000KT 10SM CLR 18/14 A2996 RMK AO2;EQDQ01+000000PRSWM2
0224725415999992000030902003+42250-084950FM-15+0287KRMY V0209999C000010330019N0160931N1+02201+00601999999ADDGD12991+0270019GD23991+0330019GF107991999999999999999999GP10060000002000000002000000002000GR100600000900009MA1100441999999MW1001REMMET065KRMY 090156Z AUTO 00000KT 10SM SCT095 BKN110 22/06 A2966 RMK AO2;EQDQ01+000000PRSWM2
0213725415999992000031222003+42250-084950FM-15+0287KRMY V0202901N005112200019N0160931N1+00701-01601999999ADDGF100991999999999999999999GP10060032202009048202021013502009GQ100600672924279GR100600536913849MA1102071999999MW1001OC100821REMMET059KRMY 122155Z AUTO 29010G16KT 10SM CLR 07/M16 A3014 RMK AO2;EQDQ01+000000PRSWM2
0203725415999992000031905003+42250-084950FM-15+0287KRMY V0201001N002110150019N0160931N1+00201-00401999999ADDGD14991+0150019GF108991999999999999999999GP10060000002000000002000000002000GR100600000900009MA1102171999999MW1001REMMET059KRMY 190455Z AUTO 10004KT 10SM OVC050 02/M04 A3017 RMK AO2;EQDQ01+000000PRSWM2
0183725415999992000032405003+42250-084950FM-15+0287KRMY V0201101N002112200019N0112651N1+01101+00801999999ADDGF100991999999999999999999GP10060000002000000002000000002000GR100600000900009MA1102341999999MW1001REMMET054KRMY 240455Z AUTO 11004KT 7SM CLR 11/08 A3022 RMK AO2;EQDQ01+000000PRSWM2
0185725415999992000032604003+42250-084950FM-15+0287KRMY V0202901N005112200019N0160931N1+00901-00601999999ADDGF100991999999999999999999GP10060000002000000002000000002000GR100600000900009MA1101191999999MW1001REMMET056KRMY 260355Z AUTO 29010KT 10SM CLR 09/M06 A2988 RMK AO2;EQDQ01+000000PRSWM2
0202725415999992000032711003+42250-084950FM-15+0287KRMY V0202801N003612200019N0160931N1+00401+00301999999ADDGD12991+0072019GF104991999999999999999999GP10060000002000000002000000002000GR100600000900009MA1099461999999MW1001REMMET058KRMY 271055Z AUTO 28007KT 10SM SCT024 04/03 A2937 RMK AO2;EQDQ01+000000PRSWM2
0230725415999992000032912003+42250-084950FM-15+0287KRMY V0203101N005110051019N0160931N1+00301+00201999999ADDGD14991+0051019GF108991999999999999999999GP10060000002008000002015000002008GQ100600873908739GR100600033907209MA1100951999999MW1001OC100821REMMET061KRMY 291155Z AUTO 31010G16KT 10SM OVC017 03/02 A2981 RMK AO2;EQDQ01+000000PRSWM2
0213725415999992000040518003+42250-084950FM-15+0287KRMY V0202301N005112200019N0160931N1+01101-01301999999ADDGF100991999999999999999999GP10060077302008061302015027702008GQ100600362917489GR100601102913659MA1101021999999MW1001OC100871REMMET059KRMY 051755Z AUTO 23010G17KT 10SM CLR 11/M13 A2983 RMK AO2;EQDQ01+000000PRSWM2
0213725415999992000040619003+42250-084950FM-15+0287KRMY V0202901N010312200019N0160931N1+01301-00101999999ADDGF100991999999999999999999GP10060075802008058102015029502008GQ100600372919999GR100601086913649MA1100611999999MW1001OC101491REMMET059KRMY 061855Z AUTO 29020G29KT 10SM CLR 13/M01 A2971 RMK AO2;EQDQ01+000000PRSWM2
0272725415999992000040718003+42250-084950FM-15+0287KRMY V0200601N005110150019N0160931N1+01001+00201999999ADDGD13991+0150019GD24991+0150019GF108991999999999999999999GP10060013302008000002015013302008GQ100600354917509GR100601111913639MA1100851999999MW1611OC100931REMMET072KRMY 071755Z AUTO 06010G18KT 10SM -RA BKN050 OVC055 10/02 A2978 RMK AO2;EQDQ01+000003PRSWM1Q02    003PRSWM1
0219725415999992000041200003+42250-084950FM-15+0287KRMY V0209999C000010054019N0160931N1+00201+00101999999ADDGD14991+0054019GF108991999999999999999999GP10060003402008000002015003402008GQ100600821927479GR100600187913609MA1102441999999MW1001REMMET058KRMY 112355Z AUTO 00000KT 10SM OVC018 02/01 A3025 RMK AO2;EQDQ01+000000PRSWM2
0201725415999992000041510003+42250-084950FM-15+0287KRMY V0202301N002610105019N0112651N1+01501+01401999999ADDGD14991+0105019GF108991999999999999999999GP10060000002000000002000000002000GR100600000900009MA1101461999999MW1001REMMET057KRMY 150955Z AUTO 23005KT 7SM OVC035 15/14 A2996 RMK AO2;EQDQ01+000000PRSWM2
0219725415999992000041620003+42250-084950FM-15+0287KRMY V0200801N002110102019N0160931N1+01601+01101999999ADDGD14991+0102019GF108991999999999999999999GP10060012802008000002015012802008GQ100600400922509GR100601038913569MA1101731999999MW1001REMMET058KRMY 161955Z AUTO 08004KT 10SM OVC034 16/11 A3004 RMK AO2;EQDQ01+000000PRSWM2
0237725415999992000041711003+42250-084950FM-15+0287KRMY V0200701N004110024019N0064371N1+00701+00701999999ADDGD14991+0024019GF108991999999999999999999GP10060000002008000002015000002008GQ100600898907529GR100600000900799MA1101351999999MW1101REMMET060KRMY 171055Z AUTO 07008KT 4SM BR OVC008 07/07 A2993 RMK AO2;EQDQ01+000003PRSWM1Q02    003PRSWM1
0219725415999992000041811003+42250-084950FM-15+0287KRMY V0203601N001510060019N0160931N1+00601+00401999999ADDGD14991+0060019GF108991999999999999999999GP10060000002008000002015000002008GQ100600896907499GR100600001901029MA1101691999999MW1001REMMET058KRMY 181055Z AUTO 36003KT 10SM OVC020 06/04 A3003 RMK AO2;EQDQ01+000000PRSWM2
0270725415999992000042122003+42250-084950FM-15+0287KRMY V0200101N006210027019N0080461N1+00401+00401999999ADDGD13991+0027019GD24991+0045019GF108991999999999999999999GP10060008802008000002015008802008GQ100600582925689GR100600711913529MA1100781999999MW1101OC100871REMMET070KRMY 212155Z AUTO 01012G17KT 5SM BR BKN009 OVC015 04/04 A2976 RMK AO2;EQDQ01+000003PRSWM1Q02    003PRSWM1
0219725415999992000042312003+42250-084950FM-15+0287KRMY V0209999C000010330019N0160931N1+00601+00601999999ADDGD13991+0330019GF107991999999999999999999GP10060002602008000002015002602008GQ100600828907929GR100600169913519MA1101221999999MW1001REMMET058KRMY 231155Z AUTO 00000KT 10SM BKN110 06/06 A2989 RMK AO2;EQDQ01+000000PRSWM2
0219725415999992000042322003+42250-084950FM-15+0287KRMY V0209999C000010180019N0160931N1+01601+00101999999ADDGD14991+0180019GF108991999999999999999999GP10060011502008000002015011502008GQ100600579925759GR100600718913519MA1101251999999MW1001REMMET058KRMY 232155Z AUTO 00000KT 10SM OVC065 16/01 A2990 RMK AO2;EQDQ01+000000PRSWM2
0184725415999992000042804003+42250-084950FM-15+0287KRMY V0209999C000012200019N0160931N1+00901+00301999999ADDGF100991999999999999999999GP10060000002000000002000000002000GR100600000900009MA1101321999999MW1001REMMET055KRMY 280355Z AUTO 00000KT 10SM CLR 09/03 A2992 RMK AO2;EQDQ01+000000PRSWM2
0202725415999992000042820003+42250-084950FM-15+0287KRMY V0209999C000012200019N0160931N1+01901-01101999999ADDGF100991999999999999999999GP10060081402008081202015016502008GQ100600370922939GR100601075913479MA1101251999999MW1001REMMET056KRMY 281955Z AUTO 00000KT 10SM CLR 19/M11 A2990 RMK AO2;EQDQ01+000000PRSWM2
0184725415999992000042907003+42250-084950FM-15+0287KRMY V0209999C000012200019N0160931N1+00801+00501999999ADDGF100991999999999999999999GP10060000002000000002000000002000GR100600000900009MA1101391999999MW1001REMMET055KRMY 290655Z AUTO 00000KT 10SM CLR 08/05 A2994 RMK AO2;EQDQ01+000000PRSWM2
0219725415999992000050312003+42250-084950FM-15+0287KRMY V0201601N002112200019N0080461N1+01201+01101999999ADDGF100991999999999999999999GP10060011202008019102015008102008GQ100600805907719GR100600221913449MA1102241999999MW1101REMMET057KRMY 031155Z AUTO 16004KT 5SM BR CLR 12/11 A3019 RMK AO2;EQDQ01+000003PRSWM1Q02    003PRSWM1
0201725415999992000050600003+42250-084950FM-15+0287KRMY V0202301N002612200019N0160931N1+02701+01501999999ADDGF100991999999999999999999GP10060014302008032102015007502008GQ100600777928149GR100600286913429MA1101731999999MW1001REMMET055KRMY 052355Z AUTO 23005KT 10SM CLR 27/15 A3004 RMK AO2;EQDQ01+000000PRSWM2
0283725415999992000051118003+42250-084950FM-15+0287KRMY V0201701N003110180019N0160931N1+01701+01401999999ADDGD12991+0066019GD23991+0180019GD34991+0300019GF108991999999999999999999GP10060015102008000002015015102008GQ100600245917659GR100601218913399MA1100911999999MW1611REMMET076KRMY 111759Z AUTO 17006KT 10SM -RA SCT022 BKN065 OVC100 17/14 A2980 RMK AO2;EQDQ01+000003PRSWM1Q02    003PRSWM1
0230725415999992000051323003+42250-084950FM-15+0287KRMY V0202801N008710138019N0160931N1+01301+00501999999ADDGD14991+0138019GF108991999999999999999999GP10060015802008001202015015302008GQ100600655927359GR100600554913379MA1101391999999MW1001OC101231REMMET061KRMY 132257Z AUTO 28017G24KT 10SM OVC046 13/05 A2994 RMK AO2;EQDQ01+000000PRSWM2
0231725415999992000051423003+42250-084950FM-15+0287KRMY V0202901N009312200019N0160931N1+01401-00201999999ADDGD12991+0180019GF104991999999999999999999GP10060024702008014502015018702008GQ100600653927379GR100600557913379MA1102001999999MW1001OC101131REMMET062KRMY 142257Z AUTO 29018G22KT 10SM SCT065 14/M02 A3012 RMK AO2;EQDQ01+000000PRSWM2
0245725415999992000051804003+42250-084950FM-15+0287KRMY V0201701N003110300019N0112651N1+01801+01801999999ADDGD12991+0108019GD22991+0126019GD33991+0300019GF107991999999999999999999GP10060000002000000002000000002000GR100600000900009MA1100781999999MW1001REMMET071KRMY 180357Z AUTO 17006KT 7SM SCT036 SCT042 BKN100 18/18 A2976 RMK AO2;EQDQ01+000000PRSWM2
0132725415999992000052308584+42250-084950FM-15+0287KRMY V0202101N002612200019N0112651N1+01501+01501999999ADDGF100991999999999999999999MA1099971999999MW1001REMMET054KRMY 230858Z AUTO 21005KT 7SM CLR 15/15 A2952 RMK AO2;EQDQ01+000000PRSWM2
0071725415999992000052719009+42250-084950NSRDB+028799999V020999999999999999999999999999+99999+99999999999ADDGP10060025502008000602015025002008GQ100600238921179GR100601216913309
0219725415999992000053011003+42250-084950FM-15+0287KRMY V0201501N002112200019N0032181N1+01401+01401999999ADDGF100991999999999999999999GP10060000002008000002015000002008GQ100600861906359GR100600078911419MA1101801999999MW1101REMMET057KRMY 301100Z AUTO 15004KT 2SM BR CLR 14/14 A3006 RMK AO2;EQDQ01+000003PRSWM1Q02    003PRSWM1
0201725415999992000061915003+42250-084940FM-15+0287KRMY V0202501N002612200019N0160931N1+02201+01601999999ADDGF100991999999999999999999GP10060068102008072802015015402008GQ100600437910019GR100600956913239MA1102301999999MW1001REMMET055KRMY 191500Z AUTO 25005KT 10SM CLR 22/16 A3021 RMK AO2;EQDQ01+000000PRSWM2
0184725415999992000062009003+42250-084940FM-15+0287KRMY V0201501N001512200019N0160931N1+01801+01401999999ADDGF100991999999999999999999GP10060000002000000002000000002000GR100600000900009MA1101931999999MW1001REMMET055KRMY 200858Z AUTO 15003KT 10SM CLR 18/14 A3010 RMK AO2;EQDQ01+000000PRSWM2
0201725415999992000062400003+42250-084940FM-15+0287KRMY V0209999C000012200019N0160931N1+02601+01801999999ADDGF100991999999999999999999GP10060015902008008502015013302008GQ100600723928599GR100600402913229MA1101491999999MW1001REMMET055KRMY 232357Z AUTO 00000KT 10SM CLR 26/18 A2997 RMK AO2;EQDQ01+000000PRSWM2
0222725415999992000062607013+42250-084940FM-15+0287KRMY V0209999C000010003019N0004021N1+01801+01801999999ADDGD14991+0003019GF108991999999999999999999GP10060000002000000002000000002000GR100600000900009MA1101421999999MW1441REMMET062KRMY 260701Z AUTO 00000KT 1/4SM FG OVC001 18/18 A2995 RMK AO2;EQDQ01+000003PRSWM1Q02    003PRSWM1
0202725415999992000062709033+42250-084940FM-15+0287KRMY V0202501N002112200019N0160931N1+01601+01501999999ADDGD12991+0180019GF104991999999999999999999GP10060000002000000002000000002000GR100600000900009MA1101631999999MW1001REMMET058KRMY 270903Z AUTO 25004KT 10SM SCT060 16/15 A3001 RMK AO2;EQDQ01+000000PRSWM2
0219725415999992000062914003+42250-084940FM-15+0287KRMY V0202701N003112200019N0160931N1+01901+01601999999ADDGD12991+0048019GF104991999999999999999999GP10060050102008061902015014802008GQ100600552908919GR100600753913219MA1101321999999MW1001REMMET058KRMY 291358Z AUTO 27006KT 10SM SCT016 19/16 A2992 RMK AO2;EQDQ01+000000PRSWM2
0151725415999992000062914464+42250-084940FM-15+0287KRMY V0202501N004112200019N0160931N1+02001+01501999999ADDGD12991+0066019GF104991999999999999999999MA1101321999999MW1001REMMET058KRMY 291446Z AUTO 25008KT 10SM SCT022 20/15 A2992 RMK AO2;EQDQ01+000000PRSWM2
0271725415999992000070920003+42250-084940FM-15+0287KRMY V0202301N006710072019N0080461N1+02801+02401999999ADDGD13991+0072019GD24991+0102019GF108991999999999999999999GP10060046802008009602015038502008GQ100600297923549GR100601146913229MA1100981999999MW1611OC100871REMMET071KRMY 091958Z AUTO 23013G17KT 5SM -RA BKN024 OVC034 28/24 A2982 RMK AO2;EQDQ01+000003PRSWM1Q02    003PRSWM1
0263725415999992000071023003+42250-084940FM-15+0287KRMY V0202901N002610120019N0160931N1+02601+02101999999ADDGD12991+0093019GD23991+0120019GD34991+0150019GF108991999999999999999999GP10060033802008027502015020802008GQ100600617927509GR100600626913229MA1101251999999MW1001REMMET072KRMY 102258Z AUTO 29005KT 10SM SCT031 BKN040 OVC055 26/21 A2990 RMK AO2;EQDQ01+000000PRSWM2
0263725415999992000071700003+42250-084940FM-15+0287KRMY V0209999C000010180019N0160931N1+02601+01901999999ADDGD13991+0180019GD23991+0210019GD34991+0240019GF108991999999999999999999GP10060018602008024902015011402008GQ100600730928359GR100600386913229MA1101191999999MW1001REMMET072KRMY 162357Z AUTO 00000KT 10SM BKN060 BKN070 OVC080 26/19 A2988 RMK AO2;EQDQ01+000000PRSWM2
0184725415999992000071710003+42250-084940FM-15+0287KRMY V0209999C000012200019N0160931N1+01701+01601999999ADDGF100991999999999999999999GP10060000002000000002000000002000GR100600000900009MA1101391999999MW1001REMMET055KRMY 170957Z AUTO 00000KT 10SM CLR 17/16 A2994 RMK AO2;EQDQ01+000000PRSWM2
0184725415999992000072003003+42250-084940FM-15+0287KRMY V0203001N002112200019N0160931N1+01701+01201999999ADDGF100991999999999999999999GP10060000002000000002000000002000GR100600000900009MA1101731999999MW1001REMMET055KRMY 200300Z AUTO 30004KT 10SM CLR 17/12 A3004 RMK AO2;EQDQ01+000000PRSWM2
0201725415999992000072419003+42250-084940FM-15+0287KRMY V0200301N001512200019N0160931N1+02501+00901999999ADDGF100991999999999999999999GP10060085002008058702015031502008GQ100600246920529GR100601203913249MA1102131999999MW1001REMMET055KRMY 241900Z AUTO 03003KT 10SM CLR 25/09 A3016 RMK AO2;EQDQ01+000000PRSWM2
0195725415999992000072810574+42250-084940FM-15+0287KRMY V0209999C000010105019N0020111N1+02001+01901999999ADDGD13991+0105019GD24991+0210019GF108991999999999999999999MA1101321999999MW1101REMMET071KRMY 281057Z AUTO 00000KT 1 1/4SM BR BKN035 OVC075 20/19 A2992 RMK AO2;EQDQ01+000003PRSWM1Q02    003PRSWM1
0263725415999992000081817003+42250-084940FM-15+0287KRMY V0203401N002112200019N0160931N1+02201+01701999999ADDGD12991+0087019GD22991+0102019GD32991+0126019GF104991999999999999999999GP10060036202008004202015032702008GQ100600336914649GR100601110913349MA1101831999999MW1001REMMET072KRMY 181700Z AUTO 34004KT 10SM SCT029 SCT034 SCT042 22/17 A3007 RMK AO2;EQDQ01+000000PRSWM2
0201725415999992000082614003+42250-084940FM-15+0287KRMY V0209999C000012200019N0160931N1+02301+01801999999ADDGF100991999999999999999999GP10060027402008014902015020702008GQ100600632910119GR100600603913389MA1101561999999MW1001REMMET055KRMY 261358Z AUTO 00000KT 10SM CLR 23/18 A2999 RMK AO2;EQDQ01+000000PRSWM2
0239725415999992000082712003+42250-084940FM-15+0287KRMY V0209999C000010003019N0004021N1+01801+01801999999ADDGD14991+0003019GF108991999999999999999999GP10060000002008000002015000002008GQ100600851908099GR100600112913069MA1101321999999MW1441REMMET062KRMY 271158Z AUTO 00000KT 1/4SM FG OVC001 18/18 A2992 RMK AO2;EQDQ01+000003PRSWM1Q02    003PRSWM1
0169725415999992000090307244+42250-084940FM-15+0287KRMY V0209999C000012200019N0048281N1+02101+02001999999ADDGD12991+0150019GF104991999999999999999999MA1101491999999MW1101REMMET060KRMY 030724Z AUTO 00000KT 3SM BR SCT050 21/20 A2997 RMK AO2;EQDQ01+000003PRSWM1Q02    003PRSWM1
0201725415999992000090618013+42250-084940FM-15+0287KRMY V0201301N003612200019N0160931N1+02201+00801999999ADDGF100991999999999999999999GP10060079602008078702015016102008GQ100600364917679GR100601084913469MA1102681999999MW1001REMMET055KRMY 061801Z AUTO 13007KT 10SM CLR 22/08 A3032 RMK AO2;EQDQ01+000000PRSWM2
0201725415999992000091006013+42250-084940FM-15+0287KRMY V0201701N002612200019N0112651N1+02301+02201999999ADDGD12991+0240019GF104991999999999999999999GP10060000002000000002000000002000GR100600000900009MA1101661999999MW1001REMMET057KRMY 100601Z AUTO 17005KT 7SM SCT080 23/22 A3002 RMK AO2;EQDQ01+000000PRSWM2
0201725415999992000091314003+42250-084940FM-15+0287KRMY V0201701N002112200019N0160931N1+01701+01201999999ADDGF100991999999999999999999GP10060033002008054502015011502008GQ100600667910759GR100600533913519MA1101961999999MW1001REMMET055KRMY 131358Z AUTO 17004KT 10SM CLR 17/12 A3011 RMK AO2;EQDQ01+000000PRSWM2
0201725415999992000091623003+42250-084940FM-15+0287KRMY V0202701N003112200019N0160931N1+01601+00801999999ADDGF100991999999999999999999GP10060016602008045202015006102008GQ100600766926079GR100600314913539MA1101861999999MW1001REMMET055KRMY 162300Z AUTO 27006KT 10SM CLR 16/08 A3008 RMK AO2;EQDQ01+000000PRSWM2
0054725415999992000092510009+42250-084950NSRDB+028799999V020999999999999999999999999999+99999+99999999999ADDGP10060000002000000002000000002000GR100600000900009
0133725415999992000100112574+42250-084940FM-15+0287KRMY V0201701N002612200019N0160931N1+01501+01201999999ADDGF100991999999999999999999MA1101561999999MW1001REMMET055KRMY 011257Z AUTO 17005KT 10SM CLR 15/12 A2999 RMK AO2;EQDQ01+000000PRSWM2
0184725415999992000100209003+42250-084940FM-15+0287KRMY V0201901N003612200019N0160931N1+01901+01501999999ADDGF100991999999999999999999GP10060000002000000002000000002000GR100600000900009MA1100881999999MW1001REMMET055KRMY 020858Z AUTO 19007KT 10SM CLR 19/15 A2979 RMK AO2;EQDQ01+000000PRSWM2
0054725415999992000100301009+42250-084950NSRDB+028799999V020999999999999999999999999999+99999+99999999999ADDGP10060000002000000002000000002000GR100600000900009
0264725415999992000101603003+42250-084940FM-15+0287KRMY V0200201N001510081019N0080461N1+01401+01301999999ADDGD12991+0030019GD23991+0081019GD34991+0123019GF108991999999999999999999GP10060000002000000002000000002000GR100600000900009MA1101961999999MW1101REMMET074KRMY 160300Z AUTO 02003KT 5SM BR SCT010 BKN027 OVC041 14/13 A3011 RMK AO2;EQDQ01+000003PRSWM1Q02    003PRSWM1
0184725415999992000102307003+42250-084940FM-15+0287KRMY V0201401N002112200019N0160931N1+01101+00801999999ADDGF100991999999999999999999GP10060000002000000002000000002000GR100600000900009MA1103151999999MW1001REMMET055KRMY 230657Z AUTO 14004KT 10SM CLR 11/08 A3046 RMK AO2;EQDQ01+000000PRSWM2
0241725415999992000102316003+42250-084940FM-15+0287KRMY V0202101N001510126019N0160931N1+01601+01201999999ADDGD12991+0108019GD24991+0126019GF108991999999999999999999GP10060008302009000002021008302009GQ100600600914749GR100600691913829MA1103181999999MW1001REMMET065KRMY 231557Z AUTO 21003KT 10SM SCT036 OVC042 16/12 A3047 RMK AO2;EQDQ01+000000PRSWM2
0247725415999992000102408003+42250-084940FM-15+0287KRMY V0202301N003110060019N0024141N1+01701+01601999999ADDGD13991+0060019GD24991+0090019GF108991999999999999999999GP10060000002000000002000000002000GR100600000900009MA1102781999999MW1611REMMET072KRMY 240759Z AUTO 23006KT 1 1/2SM -RA BKN020 OVC030 17/16 A3035 RMK AO2;EQDQ01+000003PRSWM1Q02    003PRSWM1
0219725415999992000102713003+42250-084940FM-15+0287KRMY V0202301N002112200019N0032181N1+01701+01601999999ADDGF100991999999999999999999GP10060000002009000002021000002009GQ100600859911159GR100600085911899MA1101761999999MW1101REMMET057KRMY 271259Z AUTO 23004KT 2SM BR CLR 17/16 A3005 RMK AO2;EQDQ01+000003PRSWM1Q02    003PRSWM1
0151725415999992000102806394+42250-084940FM-15+0287KRMY V0200501N002110051019N0160931N1+01001+00801999999ADDGD14991+0051019GF108991999999999999999999MA1102441999999MW1001REMMET058KRMY 280639Z AUTO 05004KT 10SM OVC017 10/08 A3025 RMK AO2;EQDQ01+000000PRSWM2
0071725415999992000102821009+42250-084950NSRDB+028799999V020999999999999999999999999999+99999+99999999999ADDGP10060028502009056102021009402009GQ100600702922869GR100600468913869
0054725415999992000103100009+42250-084950NSRDB+028799999V020999999999999999999999999999+99999+99999999999ADDGP10060000002000000002000000002000GR100600000900009
0133725415999992000103103384+42250-084940FM-15+0287KRMY V0209999C000012200019N0160931N1+00301+00201999999ADDGF100991999999999999999999MA1102471999999MW1001REMMET055KRMY 310338Z AUTO 00000KT 10SM CLR 03/02 A3026 RMK AO2;EQDQ01+000000PRSWM2
0071725415999992000110214009+42250-084950NSRDB+028799999V020999999999999999999999999999+99999+99999999999ADDGP10060008502009005402021007402009GQ100600783912309GR100600281913909
0134725415999992000110520364+42250-084940FM-15+0287KRMY V0209999C000012200019N0160931N1+01501-00101999999ADDGF100991999999999999999999MA1101661999999MW1001REMMET056KRMY 052036Z AUTO 00000KT 10SM CLR 15/M01 A3002 RMK AO2;EQDQ01+000000PRSWM2
0054725415999992000110606009+42250-084950NSRDB+028799999V020999999999999999999999999999+99999+99999999999ADDGP10060000002000000002000000002000GR100600000900009
0054725415999992000110609009+42250-084950NSRDB+028799999V020999999999999999999999999999+99999+99999999999ADDGP10060000002000000002000000002000GR100600000900009
0071725415999992000110715009+42250-084950NSRDB+028799999V020999999999999999999999999999+99999+99999999999ADDGP10060004902009000002021004902009GQ100600711913599GR100600452913939
0054725415999992000110803009+42250-084950NSRDB+028799999V020999999999999999999999999999+99999+99999999999ADDGP10060000002000000002000000002000GR100600000900009
0071725415999992000110913009+42250-084950NSRDB+028799999V020999999999999999999999999999+99999+99999999999ADDGP10060000102009000002021000102009GQ100600874911579GR100600038908259
0054725415999992000111208009+42250-084950NSRDB+028799999V020999999999999999999999999999+99999+99999999999ADDGP10060000002000000002000000002000GR100600000900009
0225725415999992000111419394+42250-084940FM-15+0287KRMY V0202601N007210030019N0048281N1+00201+00101999999ADDGD13991+0030019GD23991+0051019GD34991+0105019GF108991999999999999999999MA1100981999999MW1711OC101031REMMET078KRMY 141939Z AUTO 26014G20KT 3SM -SN BKN010 BKN017 OVC035 02/01 A2982 RMK AO2;EQDQ01+000003PRSWM1Q02    003PRSWM1
0071725415999992000111620009+42250-084950NSRDB+028799999V020999999999999999999999999999+99999+99999999999ADDGP10060005502009000002021005502009GQ100600677921209GR100600530913999
0195725415999992000111800364+42250-084940FM-15+0287KRMY V0202601N004610144019N0160931N1-00101-00201999999ADDGD12991+0045019GD24991+0144019GF108991999999999999999999MA1101901999999MW1711REMMET071KRMY 180036Z AUTO 26009KT 10SM -SN SCT015 OVC048 M01/M02 A3009 RMK AO2;EQDQ01+000003PRSWM1Q02    003PRSWM1
0135725415999992000112300384+42250-084940FM-15+0287KRMY V0209999C000012200019N0160931N1-00901-01201999999ADDGF100991999999999999999999MA1102441999999MW1001REMMET057KRMY 230038Z AUTO 00000KT 10SM CLR M09/M12 A3025 RMK AO2;EQDQ01+000000PRSWM2
0153725415999992000112312384+42250-084940FM-15+0287KRMY V0201801N001510138019N0160931N1-00601-01101999999ADDGD14991+0138019GF108991999999999999999999MA1102611999999MW1001REMMET060KRMY 231238Z AUTO 18003KT 10SM OVC046 M06/M11 A3030 RMK AO2;EQDQ01+000000PRSWM2
0054725415999992000112607009+42250-084950NSRDB+028799999V020999999999999999999999999999+99999+99999999999ADDGP10060000002000000002000000002000GR100600000900009
0173725415999992000112616394+42250-084940FM-15+0287KRMY V0209999C000010006019N0020111N1+00701+00701999999ADDGD14991+0006019GF108991999999999999999999MA1100341999999MW1101REMMET064KRMY 261639Z AUTO 00000KT 1 1/4SM BR OVC002 07/07 A2963 RMK AO2;EQDQ01+000003PRSWM1Q02    003PRSWM1
0054725415999992000112711009+42250-084950NSRDB+028799999V020999999999999999999999999999+99999+99999999999ADDGP10060000002000000002000000002000GR100600000900009
0054725415999992000112809009+42250-084950NSRDB+028799999V020999999999999999999999999999+99999+99999999999ADDGP10060000002000000002000000002000GR100600000900009
0071725415999992000112914009+42250-084950NSRDB+028799999V020999999999999999999999999999+99999+99999999999ADDGP10060001302009000002021001302009GQ100600841912649GR100600145914069
0152725415999992000120120364+42250-084940FM-15+0287KRMY V0200301N003110096019N0160931N1+00001-00601999999ADDGD13991+0096019GF107991999999999999999999MA1102841999999MW1001REMMET059KRMY 012036Z AUTO 03006KT 10SM BKN032 00/M06 A3037 RMK AO2;EQDQ01+000000PRSWM2
0135725415999992000120218414+42250-084940FM-15+0287KRMY V0200101N003612200019N0160931N1-00101-00701999999ADDGF100991999999999999999999MA1103561999999MW1001REMMET057KRMY 021841Z AUTO 01007KT 10SM CLR M01/M07 A3058 RMK AO2;EQDQ01+000000PRSWM2
0071725415999992000120717009+42250-084950NSRDB+028799999V020999999999999999999999999999+99999+99999999999ADDGP10060006302009000002021006302009GQ100600666916469GR100600561914109
0153725415999992000121008374+42250-084940FM-15+0287KRMY V0201901N002610240019N0160931N1-00201-00601999999ADDGD14991+0240019GF108991999999999999999999MA1101831999999MW1001REMMET060KRMY 100837Z AUTO 19005KT 10SM OVC080 M02/M06 A3007 RMK AO2;EQDQ01+000000PRSWM2
0135725415999992000121213384+42250-084940FM-15+0287KRMY V0203101N002612200019N0160931N1-00901-01201999999ADDGF100991999999999999999999MA1102301999999MW1001REMMET057KRMY 121338Z AUTO 31005KT 10SM CLR M09/M12 A3021 RMK AO2;EQDQ01+000000PRSWM2
0071725415999992000121214009+42250-084950NSRDB+028799999V020999999999999999999999999999+99999+99999999999ADDGP10060000002009000002021000002009GQ100600859912659GR100600099913769
0054725415999992000121308009+42250-084950NSRDB+028799999V020999999999999999999999999999+99999+99999999999ADDGP10060000002000000002000000002000GR100600000900009
0054725415999992000121311009+42250-084950NSRDB+028799999V020999999999999999999999999999+99999+99999999999ADDGP10060000002000000002000000002000GR100600000900009
0071725415999992000121514009+42250-084950NSRDB+028799999V020999999999999999999999999999+99999+99999999999ADDGP10060000002009000002021000002009GQ100600861912659GR100600091913309
0054725415999992000121602009+42250-084950NSRDB+028799999V020999999999999999999999999999+99999+99999999999ADDGP10060000002000000002000000002000GR100600000900009
0153725415999992000121819374+42250-084940FM-15+0287KRMY V0201301N002110300019N0160931N1-01201-01601999999ADDGD13991+0300019GF107991999999999999999999MA1101561999999MW1001REMMET060KRMY 181937Z AUTO 13004KT 10SM BKN100 M12/M16 A2999 RMK AO2;EQDQ01+000000PRSWM2
0071725415999992000121820009+42250-084950NSRDB+028799999V020999999999999999999999999999+99999+99999999999ADDGP10060023802009028702021014302009GQ100600707920749GR100600466914139
0054725415999992000122308009+42250-084950NSRDB+028799999V020999999999999999999999999999+99999+99999999999ADDGP10060000002000000002000000002000GR100600000900009
0135725415999992000122801354+42250-084940FM-15+0287KRMY V0203201N001512200019N0160931N1-01301-01401999999ADDGF100991999999999999999999MA1102101999999MW1001REMMET057KRMY 280135Z AUTO 32003KT 10SM CLR M13/M14 A3015 RMK AO2;EQDQ01+000000PRSWM2
0153725415999992000123114354+42250-084940FM-15+0287KRMY V0203001N002110240019N0160931N1-00501-00701999999ADDGD14991+0240019GF108991999999999999999999MA1102031999999MW1001REMMET060KRMY 311435Z AUTO 30004KT 10SM OVC080 M05/M07 A3013 RMK AO2;EQDQ01+000000PRSWM2
0243725416999992000010407003+43720-085500FM-15+0302KRQB V0209999C000010021019N0048281N1+00201+00201999999ADDGD13991+0021019GD24991+0039019GF108991999999999999999999GP10060000002000000002000000002000GR100600000900009MA1099661999999MW1511REMMET068KRQB 040655Z AUTO 00000KT 3SM -DZ BKN007 OVC013 02/02 A2943 RMK AO2;EQDQ01+000003PRSWM1Q02    003PRSWM1
0271725416999992000010410003+43720-085500FM-15+0302KRQB V0203001N003110102019N0040231N1-00201-00301999999ADDGD12991+0030019GD22991+0069019GD34991+0102019GF108991999999999999999999GP10060000002000000002000000002000GR100600000900009MA1099591999999MW1711REMMET081KRQB 040955Z AUTO 30006KT 2 1/2SM -SN SCT010 SCT023 OVC034 M02/M03 A2941 RMK AO2;EQDQ01+000003PRSWM1Q02    003PRSWM1
0284725416999992000010519003+43720-085500FM-15+0302KRQB V0201801N002110078019N0064371N1-00201-00501999999ADDGD12991+0045019GD23991+0078019GD34991+0093019GF108991999999999999999999GP10060035202009056702021013102009GQ100600671919079GR100600550914159MA1102401999999MW1711REMMET077KRQB 051855Z AUTO 18004KT 4SM -SN SCT015 BKN026 OVC031 M02/M05 A3024 RMK AO2;EQDQ01+000003PRSWM1Q02    003PRSWM1
0186725416999992000010800003+43720-085500FM-15+0302KRQB V0209999C000012200019N0160931N1-01001-01201999999ADDGF100991999999999999999999GP10060000002000000002000000002000GR100600000900009MA1102541999999MW1001REMMET057KRQB 072355Z AUTO 00000KT 10SM CLR M10/M12 A3028 RMK AO2;EQDQ01+000000PRSWM2
0235725416999992000011104003+43720-085500FM-15+0302KRQB V0202601N006210096019N0160931N1+00401+00101999999ADDGD12991+0075019GD23991+0096019GF107991999999999999999999GP10060000002000000002000000002000GR100600000900009MA1099291999999MW1001OC101081REMMET068KRQB 110355Z AUTO 26012G21KT 10SM SCT025 BKN032 04/01 A2932 RMK AO2;EQDQ01+000000PRSWM2
0258725416999992000011109003+43720-085500FM-15+0302KRQB V0202701N005710129019N0160931N1+00301-00101999999ADDGD12991+0072019GD23991+0129019GD34991+0147019GF108991999999999999999999GP10060000002000000002000000002000GR100600000900009MA1099361999999MW1001OC100931REMMET076KRQB 110855Z AUTO 27011G18KT 10SM SCT024 BKN043 OVC049 03/M01 A2934 RMK AO2;EQDQ01+000000PRSWM2
0204725416999992000011508003+43720-085500FM-15+0302KRQB V0201601N004610066019N0160931N1-00401-00701999999ADDGD14991+0066019GF108991999999999999999999GP10060000002000000002000000002000GR100600000900009MA1102711999999MW1001REMMET060KRQB 150755Z AUTO 16009KT 10SM OVC022 M04/M07 A3033 RMK AO2;EQDQ01+000000PRSWM2
0243725416999992000011719003+43720-085500FM-15+0302KRQB V0201201N004610180019N0160931N1-00901-01501999999ADDGD12991+0150019GD24991+0180019GF108991999999999999999999GP10060039502009050202021018302009GQ100600652918989GR100600594914149MA1103391999999MW1001REMMET067KRQB 171855Z AUTO 12009KT 10SM SCT050 OVC065 M09/M15 A3053 RMK AO2;EQDQ01+000000PRSWM2
0223725416999992000011905003+43720-085500FM-15+0302KRQB V0202901N002110105019N0080461N1-00501-00801999999ADDGD14991+0105019GF108991999999999999999999GP10060000002000000002000000002000GR100600000900009MA1101591999999MW1711REMMET063KRQB 190455Z AUTO 29004KT 5SM -SN OVC035 M05/M08 A3000 RMK AO2;EQDQ01+000003PRSWM1Q02    003PRSWM1
0224725416999992000011908003+43720-085500FM-15+0302KRQB V0203101N002110075019N0160931N1-00601-00901999999ADDGD14991+0075019GF108991999999999999999999GP10060000002000000002000000002000GR100600000900009MA1101591999999MW1711REMMET064KRQB 190755Z AUTO 31004KT 10SM -SN OVC025 M06/M09 A3000 RMK AO2;EQDQ01+000003PRSWM1Q02    003PRSWM1
0203725416999992000012015003+43720-085500FM-15+0302KRQB V0209999C000012200019N0160931N1-01101-01301999999ADDGF100991999999999999999999GP10060014802009028902021009202009GQ100600790913239GR100600270914139MA1101291999999MW1001REMMET057KRQB 201455Z AUTO 00000KT 10SM CLR M11/M13 A2991 RMK AO2;EQDQ01+000000PRSWM2
0186725416999992000012904003+43720-085500FM-15+0302KRQB V0209999C000012200019N0160931N1-01701-02001999999ADDGF100991999999999999999999GP10060000002000000002000000002000GR100600000900009MA1103661999999MW1001REMMET057KRQB 290355Z AUTO 00000KT 10SM CLR M17/M20 A3061 RMK AO2;EQDQ01+000000PRSWM2
0203725416999992000020420003+43720-085500FM-15+0302KRQB V0203601N002612200019N0160931N1-00201-00801999999ADDGF100991999999999999999999GP10060039402009052802021016002009GQ100600638920529GR100600621914089MA1101761999999MW1001REMMET057KRQB 041955Z AUTO 36005KT 10SM CLR M02/M08 A3005 RMK AO2;EQDQ01+000000PRSWM2
0186725416999992000020609003+43720-085500FM-15+0302KRQB V0209999C000012200019N0160931N1-01701-02001999999ADDGF100991999999999999999999GP10060000002000000002000000002000GR100600000900009MA1102681999999MW1001REMMET057KRQB 060855Z AUTO 00000KT 10SM CLR M17/M20 A3032 RMK AO2;EQDQ01+000000PRSWM2
0203725416999992000020615003+43720-085500FM-15+0302KRQB V0209999C000012200019N0160931N1-01401-01701999999ADDGF100991999999999999999999GP10060019102009035102021010402009GQ100600758912909GR100600346914079MA1102611999999MW1001REMMET057KRQB 061455Z AUTO 00000KT 10SM CLR M14/M17 A3030 RMK AO2;EQDQ01+000000PRSWM2
0186725416999992000020805003+43720-085500FM-15+0302KRQB V0209999C000012200019N0160931N1-01701-01901999999ADDGF100991999999999999999999GP10060000002000000002000000002000GR100600000900009MA1103051999999MW1001REMMET057KRQB 080455Z AUTO 00000KT 10SM CLR M17/M19 A3043 RMK AO2;EQDQ01+000000PRSWM2
0203725416999992000020816003+43720-085500FM-15+0302KRQB V0201501N003112200019N0160931N1-00601-01001999999ADDGF100991999999999999999999GP10060036702009072902021008902009GQ100600677914169GR100600534914069MA1102681999999MW1001REMMET057KRQB 081555Z AUTO 15006KT 10SM CLR M06/M10 A3032 RMK AO2;EQDQ01+000000PRSWM2
0223725416999992000021010003+43720-085500FM-15+0302KRQB V0200901N002610054019N0032181N1-00101-00301999999ADDGD14991+0054019GF108991999999999999999999GP10060000002000000002000000002000GR100600000900009MA1101391999999MW1711REMMET063KRQB 100955Z AUTO 09005KT 2SM -SN OVC018 M01/M03 A2994 RMK AO2;EQDQ01+000003PRSWM1Q02    003PRSWM1
0203725416999992000021414003+43720-085500FM-15+0302KRQB V0203601N002112200019N0160931N1-00801-01101999999ADDGF100991999999999999999999GP10060010702009030702021006802009GQ100600828911599GR100600175914039MA1101191999999MW1001REMMET057KRQB 141355Z AUTO 36004KT 10SM CLR M08/M11 A2988 RMK AO2;EQDQ01+000000PRSWM2
0204725416999992000021508003+43720-085500FM-15+0302KRQB V0201901N001510090019N0160931N1-00401-00701999999ADDGD14991+0090019GF108991999999999999999999GP10060000002000000002000000002000GR100600000900009MA1101731999999MW1001REMMET060KRQB 150755Z AUTO 19003KT 10SM OVC030 M04/M07 A3004 RMK AO2;EQDQ01+000000PRSWM2
0284725416999992000021900003+43720-085500FM-15+0302KRQB V0200601N003110180019N0080461N1-00301-00601999999ADDGD12991+0108019GD22991+0129019GD34991+0180019GF108991999999999999999999GP10060000002009000002021000002009GQ100600889925329GR100600006903159MA1101661999999MW1711REMMET077KRQB 182355Z AUTO 06006KT 5SM -SN SCT036 SCT043 OVC060 M03/M06 A3002 RMK AO2;EQDQ01+000003PRSWM1Q02    003PRSWM1
0202725416999992000022401003+43720-085500FM-15+0302KRQB V0209999C000010330019N0160931N1+00401+00101999999ADDGD13991+0330019GF107991999999999999999999GP10060000002000000002000000002000GR100600000900009MA1102031999999MW1001REMMET058KRQB 240055Z AUTO 00000KT 10SM BKN110 04/01 A3013 RMK AO2;EQDQ01+000000PRSWM2
0238725416999992000022418003+43720-085500FM-15+0302KRQB V0201401N001510015019N0032181N1+00701+00601999999ADDGD14991+0015019GF108991999999999999999999GP10060011602009000002021011602009GQ100600537917239GR100600827913969MA1101221999999MW1611REMMET061KRQB 241755Z AUTO 14003KT 2SM -RA OVC005 07/06 A2989 RMK AO2;EQDQ01+000003PRSWM1Q02    003PRSWM1
0224725416999992000022506003+43720-085500FM-15+0302KRQB V0202501N001510006019N0024141N1+00301+00301999999ADDGD14991+0006019GF108991999999999999999999GP10060000002000000002000000002000GR100600000900009MA1101461999999MW1101REMMET064KRQB 250555Z AUTO 25003KT 1 1/2SM BR OVC002 03/03 A2996 RMK AO2;EQDQ01+000003PRSWM1Q02    003PRSWM1
0237725416999992000022517003+43720-085500FM-15+0302KRQB V0201301N002110006019N0048281N1+00501+00401999999ADDGD14991+0006019GF108991999999999999999999GP10060023802009002402021022502009GQ100600564915469GR100600772913969MA1101861999999MW1101REMMET060KRQB 251655Z AUTO 13004KT 3SM BR OVC002 05/04 A3008 RMK AO2;EQDQ01+000003PRSWM1Q02    003PRSWM1
0224725416999992000030112003+43720-085500FM-15+0302KRQB V0202401N001510087019N0160931N1+00601+00401999999ADDGD12991+0063019GD24991+0087019GF108991999999999999999999GP10060000002000000002000000002000GR100600000900009MA1100101999999MW1001REMMET065KRQB 011155Z AUTO 24003KT 10SM SCT021 OVC029 06/04 A2956 RMK AO2;EQDQ01+000000PRSWM2
0215725416999992000030210003+43720-085500FM-15+0302KRQB V0203401N007710078019N0160931N1-00101-00601999999ADDGD14991+0078019GF108991999999999999999999GP10060000002000000002000000002000GR100600000900009MA1101901999999MW1001OC101291REMMET063KRQB 020955Z AUTO 34015G25KT 10SM OVC026 M01/M06 A3009 RMK AO2;EQDQ01+000000PRSWM2
0212725416999992000030419003+43720-085500FM-15+0302KRQB V0202901N005112200019N0160931N1+01401+00001999999ADDGF100991999999999999999999GP10060065802009085002021011702009GQ100600506919179GR100600882913909MA1100911999999MW1001OC100821REMMET058KRQB 041855Z AUTO 29010G16KT 10SM CLR 14/00 A2980 RMK AO2;EQDQ01+000000PRSWM2
0203725416999992000030613003+43720-085500FM-15+0302KRQB V0209999C000012200019N0160931N1-00301-00401999999ADDGF100991999999999999999999GP10060000002009000002021000002009GQ100600860910129GR100600080911469MA1102131999999MW1001REMMET057KRQB 061255Z AUTO 00000KT 10SM CLR M03/M04 A3016 RMK AO2;EQDQ01+000000PRSWM2
0200725416999992000030714003+43720-085500FM-15+0302KRQB V0202101N003612200019N0100001N1+01401+00501999999ADDGF100991999999999999999999GP10060021202009050002021009402009GQ100600763911099GR100600327913889MA1101561999999MW1001REMMET054KRQB 071355Z AUTO 21007KT 10M CLR 14/05 A2999 RMK AO2;EQDQ01+000000PRSWM2
0265725416999992000031503003+43720-085500FM-15+0302KRQB V0209999C000010114019N0048281N1+00301+00101999999ADDGD12991+0087019GD23991+0114019GD34991+0138019GF108991999999999999999999GP10060000002000000002000000002000GR100600000900009MA1101561999999MW1611REMMET075KRQB 150255Z AUTO 00000KT 3SM -RA SCT029 BKN038 OVC046 03/01 A2999 RMK AO2;EQDQ01+000003PRSWM1Q02    003PRSWM1
0249725416999992000032807003+43720-085500FM-15+0302KRQB V0209999C000010033019N0048281N1+00101-00101999999ADDGD13991+0033019GD23991+0105019GD34991+0144019GF108991999999999999999999GP10060000002000000002000000002000GR100600000900009MA1099151999999MW1001REMMET075KRQB 280655Z AUTO 00000KT 3SM UP BKN011 BKN035 OVC048 01/M01 A2928 RMK AO2;EQDQ01+000000PRSWM2
0240725416999992000041118003+43720-085500FM-15+0302KRQB V0200401N003610048019N0160931N1+00101-00301999999ADDGD14991+0048019GF108991999999999999999999GP10060024102008000002015024102008GQ100600354917459GR100601109913609MA1102271999999MW1711REMMET063KRQB 111755Z AUTO 04007KT 10SM -SN OVC016 01/M03 A3020 RMK AO2;EQDQ01+000003PRSWM1Q02    003PRSWM1
0237725416999992000041600003+43720-085500FM-15+0302KRQB V0203401N002110078019N0080461N1+01601+01101999999ADDGD14991+0078019GF108991999999999999999999GP10060004502008000002015004502008GQ100600808927549GR100600217913579MA1101461999999MW1051REMMET060KRQB 152355Z AUTO 34004KT 5SM HZ OVC026 16/11 A2996 RMK AO2;EQDQ01+000003PRSWM1Q02    003PRSWM1
0232725416999992000042104003+43720-085500FM-15+0302KRQB V0200601N005710039019N0080461N1+00501+00301999999ADDGD14991+0039019GF108991999999999999999999GP10060000002000000002000000002000GR100600000900009MA1100101999999MW1611OC101131REMMET064KRQB 210355Z AUTO 06011G22KT 5SM -RA OVC013 05/03 A2956 RMK AO2;EQDQ01+000003PRSWM1Q02    003PRSWM1
0219725416999992000043000003+43720-085500FM-15+0302KRQB V0203301N003112200019N0160931N1+01801+00401999999ADDGD12991+0180019GF104991999999999999999999GP10060014702008033702015007802008GQ100600781927939GR100600277913479MA1102031999999MW1001REMMET058KRQB 292355Z AUTO 33006KT 10SM SCT060 18/04 A3013 RMK AO2;EQDQ01+000000PRSWM2
0220725416999992000043011003+43720-085500FM-15+0302KRQB V0209999C000012200019N0112651N1-00101-00201999999ADDGD12991+0003019GF104991999999999999999999GP10060000002008000002015000002008GQ100600883907059GR100600016905279MA1102441999999MW1001REMMET059KRQB 301055Z AUTO 00000KT 7SM SCT001 M01/M02 A3025 RMK AO2;EQDQ01+000000PRSWM2
0202725416999992000050105003+43720-085500FM-15+0302KRQB V0209999C000010180019N0160931N1+00801+00501999999ADDGD13991+0180019GF107991999999999999999999GP10060000002000000002000000002000GR100600000900009MA1101491999999MW1001REMMET058KRQB 010455Z AUTO 00000KT 10SM BKN065 08/05 A2997 RMK AO2;EQDQ01+000000PRSWM2
0230725416999992000050420003+43720-085500FM-15+0302KRQB V0202201N007212200019N0160931N1+02601+01601999999ADDGD12991+0123019GF104991999999999999999999GP10060072802008054902015028502008GQ100600363922919GR100601082913439MA1101561999999MW1001OC101181REMMET061KRQB 041955Z AUTO 22014G23KT 10SM SCT041 26/16 A2999 RMK AO2;EQDQ01+000000PRSWM2
0184725416999992000050502003+43720-085500FM-15+0302KRQB V0209999C000012200019N0160931N1+02101+01301999999ADDGF100991999999999999999999GP10060000002000000002000000002000GR100600000900009MA1101591999999MW1001REMMET055KRQB 050155Z AUTO 00000KT 10SM CLR 21/13 A3000 RMK AO2;EQDQ01+000000PRSWM2
0241725416999992000050714003+43720-085500FM-15+0302KRQB V0202501N004110084019N0160931N1+02401+01801999999ADDGD12991+0066019GD23991+0084019GF107991999999999999999999GP10060044002008043002015021402008GQ100600583909679GR100600704913419MA1101251999999MW1001REMMET065KRQB 071355Z AUTO 25008KT 10SM SCT022 BKN028 24/18 A2990 RMK AO2;EQDQ01+000000PRSWM2
0237725416999992000050921003+43720-085500FM-15+0302KRQB V0203601N003610135019N0112651N1+01401+01101999999ADDGD14991+0135019GF108991999999999999999999GP10060017102008000602015016702008GQ100600445924779GR100600955913409MA1100581999999MW1631REMMET060KRQB 092055Z AUTO 36007KT 7SM RA OVC045 14/11 A2970 RMK AO2;EQDQ01+000003PRSWM1Q02    003PRSWM1
0054725416999992000051103009+43717-085500NSRDB+030299999V020999999999999999999999999999+99999+99999999999ADDGP10060000002000000002000000002000GR100600000900009
0263725416999992000051613003+43720-085500FM-15+0302KRQB V0209999C000010090019N0024141N1+00801+00701999999ADDGD12991+0066019GD24991+0090019GF108991999999999999999999GP10060009202008000002015009202008GQ100600676908439GR100600508913369MA1101761999999MW1631REMMET071KRQB 161257Z AUTO 00000KT 1 1/2SM RA SCT022 OVC030 08/07 A3005 RMK AO2;EQDQ01+000003PRSWM1Q02    003PRSWM1
0262725416999992000051702003+43720-085500FM-15+0302KRQB V0201601N001510123019N0112651N1+01101+01001999999ADDGD12991+0042019GD22991+0057019GD34991+0123019GF108991999999999999999999GP10060000002000000002000000002000GQ100600899929789GR100600000900119MA1101591999999MW1001REMMET071KRQB 170157Z AUTO 16003KT 7SM SCT014 SCT019 OVC041 11/10 A3000 RMK AO2;EQDQ01+000000PRSWM2
0219725416999992000052017013+43720-085500FM-15+0302KRQB V0202601N002112200019N0160931N1+01701+00101999999ADDGD12991+0210019GF104991999999999999999999GP10060090602008076402015022802008GQ100600277914379GR100601180913349MA1101901999999MW1001REMMET058KRQB 201701Z AUTO 26004KT 10SM SCT075 17/01 A3009 RMK AO2;EQDQ01+000000PRSWM2
0230725416999992000052419003+43720-085500FM-15+0302KRQB V0202601N006712200019N0160931N1+02601+00601999999ADDGD12991+0240019GF104991999999999999999999GP10060091402008075502015023102008GQ100600254920879GR100601203913319MA1099831999999MW1001OC101181REMMET061KRQB 241900Z AUTO 26013G23KT 10SM SCT085 26/06 A2948 RMK AO2;EQDQ01+000000PRSWM2
0054725416999992000052704009+43717-085500NSRDB+030299999V020999999999999999999999999999+99999+99999999999ADDGP10060000002000000002000000002000GR100600000900009
0071725416999992000060416009+43717-085500NSRDB+030299999V020999999999999999999999999999+99999+99999999999ADDGP10060038602008003602015035602008GQ100600342911809GR100601095913279
0071725416999992000060518009+43717-085500NSRDB+030299999V020999999999999999999999999999+99999+99999999999ADDGP10060062102008020402015043002008GQ100600215917349GR100601234913269
0071725416999992000061120009+43717-085500NSRDB+030299999V020999999999999999999999999999+99999+99999999999ADDGP10060027502008001802015025902008GQ100600304923569GR100601142913259
0173725416999992000061300584+43720-085500FM-15+0302KRQB V0200901N002110120019N0160931N1+01301+01201999999ADDGD12991+0060019GD24991+0120019GF108991999999999999999999MA1101761999999MW1001REMMET065KRQB 130058Z AUTO 09004KT 10SM SCT020 OVC040 13/12 A3005 RMK AO2;EQDQ01+000000PRSWM2
0212725416999992000061419003+43710-085500FM-15+0302KRQB V0202001N006712200019N0160931N1+02901+01901999999ADDGF100991999999999999999999GP10060089102008064102015030002008GQ100600229920899GR100601219913249MA1100611999999MW1001OC100931REMMET058KRQB 141858Z AUTO 20013G18KT 10SM CLR 29/19 A2971 RMK AO2;EQDQ01+000000PRSWM2
0201725416999992000061919003+43710-085500FM-15+0302KRQB V0202201N005112200019N0160931N1+02701+01401999999ADDGF100991999999999999999999GP10060093302008085102015014702008GQ100600227920859GR100601220913239MA1102101999999MW1001REMMET055KRQB 191858Z AUTO 22010KT 10SM CLR 27/14 A3015 RMK AO2;EQDQ01+000000PRSWM2
0219725416999992000062320023+43710-085500FM-15+0302KRQB V0202101N004112200019N0160931N1+02701+01801999999ADDGD12991+0150019GF104991999999999999999999GP10060071402008043002015034102008GQ100600298923519GR100601146913229MA1101461999999MW1001REMMET058KRQB 232002Z AUTO 21008KT 10SM SCT050 27/18 A2996 RMK AO2;EQDQ01+000000PRSWM2
0201725416999992000063001003+43710-085500FM-15+0302KRQB V0203101N002612200019N0160931N1+01801+01101999999ADDGF100991999999999999999999GP10060008402008027902015004302008GQ100600816929439GR100600193913219MA1101321999999MW1001REMMET055KRQB 300058Z AUTO 31005KT 10SM CLR 18/11 A2992 RMK AO2;EQDQ01+000000PRSWM2
0219725416999992000070215013+43710-085500FM-15+0302KRQB V0202501N004112200019N0160931N1+02601+02001999999ADDGD12991+0075019GF104991999999999999999999GP10060054802008038202015027802008GQ100600451910119GR100600932913219MA1101291999999MW1001REMMET058KRQB 021501Z AUTO 25008KT 10SM SCT025 26/20 A2991 RMK AO2;EQDQ01+000000PRSWM2
0283725416999992000070300003+43710-085500FM-15+0302KRQB V0209999C000010330019N0160931N1+02201+01501999999ADDGD12991+0072019GD22991+0111019GD33991+0330019GF107991999999999999999999GP10060006502008000002015006502008GQ100600715928459GR100600419913219MA1101221999999MW1611REMMET076KRQB 022358Z AUTO 00000KT 10SM -RA SCT024 SCT037 BKN110 22/15 A2989 RMK AO2;EQDQ01+000003PRSWM1Q02    003PRSWM1
0224725416999992000070404003+43710-085500FM-15+0302KRQB V0209999C000010111019N0160931N1+01801+01701999999ADDGD13991+0111019GD23991+0150019GF107991999999999999999999GP10060000002000000002000000002000GR100600000900009MA1101591999999MW1001REMMET065KRQB 040358Z AUTO 00000KT 10SM BKN037 BKN050 18/17 A3000 RMK AO2;EQDQ01+000000PRSWM2
0201725416999992000070700003+43710-085500FM-15+0302KRQB V0200801N001512200019N0160931N1+02101+01401999999ADDGF100991999999999999999999GP10060023602008038802015011302008GQ100600716928419GR100600416913219MA1101861999999MW1001REMMET055KRQB 070000Z AUTO 08003KT 10SM CLR 21/14 A3008 RMK AO2;EQDQ01+000000PRSWM2
0202725416999992000071110033+43710-085500FM-15+0302KRQB V0209999C000012200019N0160931N1+01201+01201999999ADDGD12991+0180019GF104991999999999999999999GP10060000002000000002000000002000GR100600000900009MA1101661999999MW1001REMMET058KRQB 111003Z AUTO 00000KT 10SM SCT060 12/12 A3002 RMK AO2;EQDQ01+000000PRSWM2
0219725416999992000071817003+43710-085500FM-15+0302KRQB V0203401N004110090019N0160931N1+01701+00901999999ADDGD13991+0090019GF107991999999999999999999GP10060032502008001802015030902008GQ100600282913879GR100601165913239MA1102001999999MW1001REMMET058KRQB 181700Z AUTO 34008KT 10SM BKN030 17/09 A3012 RMK AO2;EQDQ01+000000PRSWM2
0201725416999992000072104043+43710-085500FM-15+0302KRQB V0209999C000010300019N0112651N1+01401+01301999999ADDGD13991+0300019GF107991999999999999999999GP10060000002000000002000000002000GR100600000900009MA1101221999999MW1001REMMET057KRQB 210404Z AUTO 00000KT 7SM BKN100 14/13 A2989 RMK AO2;EQDQ01+000000PRSWM2
0219725416999992000072202003+43710-085500FM-15+0302KRQB V0209999C000010180019N0160931N1+01401+01201999999ADDGD14991+0180019GF108991999999999999999999GP10060000002008000002015000002008GQ100600890929809GR100600006903209MA1101591999999MW1001REMMET058KRQB 220157Z AUTO 00000KT 10SM OVC060 14/12 A3000 RMK AO2;EQDQ01+000000PRSWM2
0184725416999992000072203003+43710-085500FM-15+0302KRQB V0209999C000012200019N0160931N1+01101+00901999999ADDGF100991999999999999999999GP10060000002000000002000000002000GR100600000900009MA1101661999999MW1001REMMET055KRQB 220257Z AUTO 00000KT 10SM CLR 11/09 A3002 RMK AO2;EQDQ01+000000PRSWM2
0184725416999992000072504003+43710-085500FM-15+0302KRQB V0209999C000012200019N0160931N1+01201+01101999999ADDGF100991999999999999999999GP10060000002000000002000000002000GR100600000900009MA1102071999999MW1001REMMET055KRQB 250358Z AUTO 00000KT 10SM CLR 12/11 A3014 RMK AO2;EQDQ01+000000PRSWM2
0184725416999992000072604003+43710-085500FM-15+0302KRQB V0209999C000012200019N0160931N1+01301+01201999999ADDGF100991999999999999999999GP10060000002000000002000000002000GR100600000900009MA1101901999999MW1001REMMET055KRQB 260400Z AUTO 00000KT 10SM CLR 13/12 A3009 RMK AO2;EQDQ01+000000PRSWM2
0237725416999992000072818003+43710-085500FM-15+0302KRQB V0203601N001510036019N0080461N1+02001+01701999999ADDGD14991+0036019GF108991999999999999999999GP10060013902008000002015013902008GQ100600255916999GR100601196913259MA1101421999999MW1051REMMET060KRQB 281757Z AUTO 36003KT 5SM HZ OVC012 20/17 A2995 RMK AO2;EQDQ01+000003PRSWM1Q02    003PRSWM1
0237725416999992000080211003+43710-085500FM-15+0302KRQB V0209999C000010057019N0064371N1+01801+01701999999ADDGD13991+0057019GF107991999999999999999999GP10060000002008000002015000002008GQ100600881906699GR100600019905649MA1101081999999MW1101REMMET060KRQB 021058Z AUTO 00000KT 4SM BR BKN019 18/17 A2985 RMK AO2;EQDQ01+000003PRSWM1Q02    003PRSWM1
0219725416999992000080213033+43710-085500FM-15+0302KRQB V0201601N002112200019N0160931N1+02101+01801999999ADDGD12991+0066019GF104991999999999999999999GP10060024202008039502015011002008GQ100600704908409GR100600444913279MA1101051999999MW1001REMMET058KRQB 021303Z AUTO 16004KT 10SM SCT022 21/18 A2984 RMK AO2;EQDQ01+000000PRSWM2
0201725416999992000080516003+43710-085500FM-15+0302KRQB V0201301N002112200019N0160931N1+02501+01701999999ADDGF100991999999999999999999GP10060070202008059902015024102008GQ100600397912219GR100601020913289MA1101561999999MW1001REMMET055KRQB 051600Z AUTO 13004KT 10SM CLR 25/17 A2999 RMK AO2;EQDQ01+000000PRSWM2
0263725416999992000081020023+43710-085500FM-15+0302KRQB V0203401N003112200019N0160931N1+02701+01601999999ADDGD12991+0138019GD22991+0150019GD32991+0210019GF104991999999999999999999GP10060059002008032302015032802008GQ100600360922539GR100601076913309MA1101731999999MW1001REMMET072KRQB 102002Z AUTO 34006KT 10SM SCT046 SCT050 SCT070 27/16 A3004 RMK AO2;EQDQ01+000000PRSWM2
0201725416999992000081219003+43710-085500FM-15+0302KRQB V0202601N002112200019N0160931N1+02801+01101999999ADDGF100991999999999999999999GP10060083802008081502015013502008GQ100600306920079GR100601145913319MA1101931999999MW1001REMMET055KRQB 121900Z AUTO 26004KT 10SM CLR 28/11 A3010 RMK AO2;EQDQ01+000000PRSWM2
0151725416999992000081511404+43710-085500FM-15+0302KRQB V0202001N003610360019N0160931N1+02001+01801999999ADDGD13991+0360019GF107991999999999999999999MA1101561999999MW1001REMMET058KRQB 151240Z AUTO 20007KT 10SM BKN120 20/18 A2999 RMK AO2;EQDQ01+000000PRSWM2
0155725416999992000081606404+43710-085500FM-15+0302KRQB V0209999C000012200019N0040231N1+01201+01101999999ADDGF100991999999999999999999MA1101901999999MW1101REMMET061KRQB 160740Z AUTO 00000KT 2 1/2SM BR CLR 12/11 A3009 RMK AO2;EQDQ01+000003PRSWM1Q02    003PRSWM1
0219725416999992000082217003+43710-085500FM-15+0302KRQB V0202001N003612200019N0160931N1+02601+01901999999ADDGD12991+0270019GF104991999999999999999999GP10060034402008002402015032502008GQ100600362914809GR100601078913369MA1102001999999MW1001REMMET058KRQB 221700Z AUTO 20007KT 10SM SCT090 26/19 A3012 RMK AO2;EQDQ01+000000PRSWM2
0219725416999992000082511003+43710-085500FM-15+0302KRQB V0209999C000012200019N0064371N1+00801+00801999999ADDGF100991999999999999999999GP10060000002000000002000000002000GQ100600900907489GR100600000900119MA1102071999999MW1101REMMET057KRQB 251058Z AUTO 00000KT 4SM BR CLR 08/08 A3014 RMK AO2;EQDQ01+000003PRSWM1Q02    003PRSWM1
0206725416999992000082703003+43710-085500FM-15+0302KRQB V0209999C000012200019N0040231N1+01601+01401999999ADDGF100991999999999999999999GP10060000002000000002000000002000GR100600000900009MA1101251999999MW1101REMMET061KRQB 270258Z AUTO 00000KT 2 1/2SM BR CLR 16/14 A2990 RMK AO2;EQDQ01+000003PRSWM1Q02    003PRSWM1
0132725416999992000083114414+43710-085500FM-15+0302KRQB V0201701N003112200019N0112651N1+02601+02101999999ADDGF100991999999999999999999MA1101661999999MW1001REMMET054KRQB 311441Z AUTO 17006KT 7SM CLR 26/21 A3002 RMK AO2;EQDQ01+000000PRSWM2
0219725416999992000090223003+43710-085500FM-15+0302KRQB V0201401N002612200019N0160931N1+02301+01901999999ADDGD12991+0144019GF104991999999999999999999GP10060012502008001702015011902008GQ100600719926309GR100600417913439MA1101561999999MW1001REMMET058KRQB 022259Z AUTO 14005KT 10SM SCT048 23/19 A2999 RMK AO2;EQDQ01+000000PRSWM2
0219725416999992000090513003+43710-085500FM-15+0302KRQB V0200701N001512200019N0160931N1+01101+00801999999ADDGD12991+0105019GF104991999999999999999999GP10060016702008030902015009502008GQ100600765909389GR100600314913459MA1103121999999MW1001REMMET058KRQB 051259Z AUTO 07003KT 10SM SCT035 11/08 A3045 RMK AO2;EQDQ01+000000PRSWM2
0071725416999992000090618009+43717-085500NSRDB+030299999V020999999999999999999999999999+99999+99999999999ADDGP10060079002008083502015012902008GQ100600378917599GR100601063913469
0071725416999992000090700009+43717-085500NSRDB+030299999V020999999999999999999999999999+99999+99999999999ADDGP10060005002008021002015002802008GQ100600838927269GR100600144913469
0201725416999992000090716013+43710-085500FM-15+0302KRQB V0202101N005112200019N0160931N1+02501+01801999999ADDGF100991999999999999999999GP10060057402008047302015025402008GQ100600475913379GR100600909913469MA1101931999999MW1001REMMET055KRQB 071601Z AUTO 21010KT 10SM CLR 25/18 A3010 RMK AO2;EQDQ01+000000PRSWM2
0220725416999992000090802043+43710-085500FM-15+0302KRQB V0209999C000010360019N0080461N1+01901+01801999999ADDGD13991+0360019GF107991999999999999999999GP10060000002000000002000000002000GR100600000900009MA1101491999999MW1101REMMET060KRQB 080204Z AUTO 00000KT 5SM BR BKN120 19/18 A2997 RMK AO2;EQDQ01+000003PRSWM1Q02    003PRSWM1
0262725416999992000091000003+43710-085500FM-15+0302KRQB V0201501N002110180019N0112651N1+02601+02101999999ADDGD12991+0093019GD22991+0111019GD34991+0180019GF108991999999999999999999GP10060003302008008702015002502008GQ100600848927209GR100600123913489MA1101521999999MW1001REMMET071KRQB 092358Z AUTO 15004KT 7SM SCT031 SCT037 OVC065 26/21 A2998 RMK AO2;EQDQ01+000000PRSWM2
0184725416999992000091305013+43710-085500FM-15+0302KRQB V0209999C000012200019N0160931N1+00701+00601999999ADDGF100991999999999999999999GP10060000002000000002000000002000GR100600000900009MA1101761999999MW1001REMMET055KRQB 130501Z AUTO 00000KT 10SM CLR 07/06 A3005 RMK AO2;EQDQ01+000000PRSWM2
0252725416999992000091518003+43710-085500FM-15+0302KRQB V0203201N006712200019N0160931N1+01701+00801999999ADDGD12991+0111019GD22991+0150019GF104991999999999999999999GP10060071102008066702015020802008GQ100600412917749GR100601017913529MA1101691999999MW1001OC100931REMMET068KRQB 151759Z AUTO 32013G18KT 10SM SCT037 SCT050 17/08 A3003 RMK AO2;EQDQ01+000000PRSWM2
0201725416999992000091821003+43710-085500FM-15+0302KRQB V0202001N004112200019N0160931N1+02801+01301999999ADDGF100991999999999999999999GP10060048002008065602015012502008GQ100600572923499GR100600732913549MA1101191999999MW1001REMMET055KRQB 182057Z AUTO 20008KT 10SM CLR 28/13 A2988 RMK AO2;EQDQ01+000000PRSWM2
0212725416999992000091914003+43710-085500FM-15+0302KRQB V0201801N006212200019N0160931N1+02301+01401999999ADDGF100991999999999999999999GP10060019302008009502015015802008GQ100600689910989GR100600488913559MA1100641999999MW1001OC100821REMMET058KRQB 191357Z AUTO 18012G16KT 10SM CLR 23/14 A2972 RMK AO2;EQDQ01+000000PRSWM2
0282725416999992000092015003+43710-085500FM-15+0302KRQB V0202501N002110210019N0160931N1+01601+01401999999ADDGD12991+0081019GD22991+0144019GD34991+0210019GF108991999999999999999999GP10060011202008000002015011202008GQ100600594912309GR100600689913569MA1100441999999MW1631REMMET075KRQB 201459Z AUTO 25004KT 10SM RA SCT027 SCT048 OVC075 16/14 A2966 RMK AO2;EQDQ01+000003PRSWM1Q02    003PRSWM1
0219725416999992000092418013+43710-085500FM-15+0302KRQB V0203501N003612200019N0160931N1+01301+00401999999ADDGD12991+0114019GF104991999999999999999999GP10060048202008020402015033602008GQ100600447917869GR100600967913599MA1101861999999MW1001REMMET058KRQB 241801Z AUTO 35007KT 10SM SCT038 13/04 A3008 RMK AO2;EQDQ01+000000PRSWM2
0226725416999992000092607023+43710-085500FM-15+0302KRQB V0209999C000010003019N0008051N1-00101-00201999999ADDGD14991+0003019GF108991999999999999999999GP10060000002000000002000000002000GR100600000900009MA1101861999999MW1481REMMET066KRQB 260702Z AUTO 00000KT 1/2SM FZFG OVC001 M01/M02 A3008 RMK AO2;EQDQ01+000003PRSWM1Q02    003PRSWM1
0241725416999992000100800003+43710-085500FM-15+0302KRQB V0209999C000010150019N0160931N1+00501+00301999999ADDGD13991+0150019GD24991+0240019GF108991999999999999999999GP10060000002008000002015000002008GQ100600893926159GR100600003902409MA1102511999999MW1001REMMET065KRQB 072359Z AUTO 00000KT 10SM BKN050 OVC080 05/03 A3027 RMK AO2;EQDQ01+000000PRSWM2
0184725416999992000101301003+43710-085500FM-15+0302KRQB V0201901N002112200019N0160931N1+01701+00201999999ADDGF100991999999999999999999GP10060000002000000002000000002000GR100600000900009MA1102131999999MW1001REMMET055KRQB 130059Z AUTO 19004KT 10SM CLR 17/02 A3016 RMK AO2;EQDQ01+000000PRSWM2
0206725416999992000101507003+43710-085500FM-15+0302KRQB V0209999C000012200019N0028161N1+00901+00901999999ADDGF100991999999999999999999GP10060000002000000002000000002000GR100600000900009MA1101591999999MW1101REMMET061KRQB 150658Z AUTO 00000KT 1 3/4SM BR CLR 09/09 A3000 RMK AO2;EQDQ01+000003PRSWM1Q02    003PRSWM1
0133725416999992000102010244+43710-085500FM-15+0302KRQB V0201801N002612200019N0160931N1+01401+01101999999ADDGF100991999999999999999999MA1101761999999MW1001REMMET055KRQB 201024Z AUTO 18005KT 10SM CLR 14/11 A3005 RMK AO2;EQDQ01+000000PRSWM2
0202725416999992000102102003+43710-085500FM-15+0302KRQB V0202101N003612200019N0160931N1+01901+01101999999ADDGD12991+0180019GF104991999999999999999999GP10060000002000000002000000002000GR100600000900009MA1101421999999MW1001REMMET058KRQB 210159Z AUTO 21007KT 10SM SCT065 19/11 A2995 RMK AO2;EQDQ01+000000PRSWM2
0201725416999992000102220003+43710-085500FM-15+0302KRQB V0201401N003612200019N0160931N1+01901+00401999999ADDGF100991999999999999999999GP10060040602009057402021013602009GQ100600619921479GR100600650913819MA1103121999999MW1001REMMET055KRQB 221957Z AUTO 14007KT 10SM CLR 19/04 A3045 RMK AO2;EQDQ01+000000PRSWM2
0071725416999992000102313009+43717-085500NSRDB+030299999V020999999999999999999999999999+99999+99999999999ADDGP10060000002009000002021000002009GQ100600859911029GR100600085911869
0219725416999992000102622003+43710-085500FM-15+0302KRQB V0201701N002612200019N0080461N1+02201+01601999999ADDGF100991999999999999999999GP10060006302009000502021006202009GQ100600791924039GR100600262913859MA1101561999999MW1051REMMET057KRQB 262157Z AUTO 17005KT 5SM HZ CLR 22/16 A2999 RMK AO2;EQDQ01+000003PRSWM1Q02    003PRSWM1
0242725416999992000102708003+43710-085500FM-15+0302KRQB V0209999C000010150019N0064371N1+01601+01501999999ADDGD12991+0126019GD24991+0150019GF108991999999999999999999GP10060000002000000002000000002000GR100600000900009MA1101491999999MW1101REMMET067KRQB 270800Z AUTO 00000KT 4SM BR SCT042 OVC050 16/15 A2997 RMK AO2;EQDQ01+000003PRSWM1Q02    003PRSWM1
0054725416999992000110406009+43717-085500NSRDB+030299999V020999999999999999999999999999+99999+99999999999ADDGP10060000002000000002000000002000GR100600000900009
0071725416999992000110413009+43717-085500NSRDB+030299999V020999999999999999999999999999+99999+99999999999ADDGP10060000102009000002021000102009GQ100600873911439GR100600039908469
0135725416999992000110608354+43710-085500FM-15+0302KRQB V0209999C000012200019N0160931N1-00101-00201999999ADDGF100991999999999999999999MA1101631999999MW1001REMMET057KRQB 060835Z AUTO 00000KT 10SM CLR M01/M02 A3001 RMK AO2;EQDQ01+000000PRSWM2
0054725416999992000110811009+43717-085500NSRDB+030299999V020999999999999999999999999999+99999+99999999999ADDGP10060000002000000002000000002000GR100600000900009
0179725416999992000110912354+43710-085500FM-15+0302KRQB V0200201N002110024019N0040231N1+00501+00401999999ADDGD13991+0024019GD24991+0060019GF108991999999999999999999MA1100511999999MW1001REMMET071KRQB 091235Z AUTO 02004KT 2 1/2SM UP BKN008 OVC020 05/04 A2968 RMK AO2;EQDQ01+000000PRSWM2
0071725416999992000111117009+43717-085500NSRDB+030299999V020999999999999999999999999999+99999+99999999999ADDGP10060019902009001802021019102009GQ100600628916509GR100600639913969
0054725416999992000111500009+43717-085500NSRDB+030299999V020999999999999999999999999999+99999+99999999999ADDGP10060000002000000002000000002000GR100600000900009
0170725416999992000111616354+43710-085500FM-15+0302KRQB V0201701N003110027019N0064371N1+00201+00101999999ADDGD14991+0027019GF108991999999999999999999MA1099901999999MW1711REMMET061KRQB 161635Z AUTO 17006KT 4SM -SN OVC009 02/01 A2950 RMK AO2;EQDQ01+000003PRSWM1Q02    003PRSWM1
0216725416999992000112009354+43710-085500FM-15+0302KRQB V0202301N002110210019N0064371N1-00201-00301999999ADDGD12991+0045019GD22991+0078019GD34991+0210019GF108991999999999999999999MA1100311999999MW1711REMMET077KRQB 200935Z AUTO 23004KT 4SM -SN SCT015 SCT026 OVC075 M02/M03 A2962 RMK AO2;EQDQ01+000003PRSWM1Q02    003PRSWM1
