0702722359139782000060305596+33496-090087SOD  +0041KGWO V020999999999999999999999999999+99999+99999999999ADDAA124000025AT1MW01FG  5AT2MW13BR  1AT3MW08HZ  5KA1240M+03335KA2240N+02005MG1101359999994OE11240067114016075OE22240058114016085OE33240020699999995REMSOD54524 HR PRECIPITATION (IN):  T   24 HR MAX TEMP (F): 9224 HR MAX TEMP TIME (LST):1245 24 HR MIN TEMP (F): 6824 HR MIN TEMP TIME (LST):0508 AVERAGE STATION PRESSURE:29.93  PEAK WIND SPEED (MPH): 15 PEAK WIND DIR (DEG):140 PEAK WIND TIME (LST):1607  FASTEST 2MIN SPEED (MPH): 13FASTEST 2MIN DIR (DEG):140 FASTEST 2MIN TIME (LST):1608 AVERAGE WIND SPEED (MPH): 4.6 24 HR AVG TEMP (F):80 HOURLY INCREMENTAL PRECIPITATION VALUES (IN):.00  .00  .00  .00  .00  .00  .00  .00  .00  .00  .00  .00  .00   T   .00  .00  .00  .00  .00  .00  .00  .00  .00  .00
0071722359139782000060517009+33500-090083NSRDB+004799999V020999999999999999999999999999+99999+99999999999ADDGP10060022802008000002015022802008GQ100600224911419GR100601224913269
0071722359139782000060614009+33500-090083NSRDB+004799999V020999999999999999999999999999+99999+99999999999ADDGP10060042202008056202015013502008GQ100600593908169GR100600676913269
0333722359139782000061014533+33500-090083FM-15+0047GWO  V0201605N00415220005MN0128005N1+02785+02285102035ADDGD12995+0304859GF104991999999999999999999MA1102075999999MD1110061+9999MW1001REMMET075KGWO 101453Z 16008KT 8SM SCT100 28/23 A3014 RMK AO2 SLP203 T02780228 51006;EQDQ01+000000PRSWM2N01 00000JPWTH 0QNNAA1D0 02100BA1 0 02100GA1U0 99999KA1D0 00073JA1 0 00228LA1 0 00800CA1 0 03014NA1 0 00000QA1 0 10203SA1D0 00082RA1 0 00278YA1 0 16008
0054722359139782000061208009+33500-090083NSRDB+004799999V020999999999999999999999999999+99999+99999999999ADDGP10060000002000000002000000002000GR100600000900009
0071722359139782000061613009+33500-090083NSRDB+004799999V020999999999999999999999999999+99999+99999999999ADDGP10060023002008034302015012202008GQ100600716907369GR100600418913239
0054722359139782000061703009+33500-090083NSRDB+004799999V020999999999999999999999999999+99999+99999999999ADDGP10060000002000000002000000002000GR100600000900009
0071722359139782000062021009+33500-090083NSRDB+004799999V020999999999999999999999999999+99999+99999999999ADDGP10060077802008074502015015902008GQ100600338926239GR100601096913229
0354722359139782000062023533+33500-090083FM-15+0047GWO  V0201505N00415220005MN0160005N1+03005+02395101565ADDGF100991999999999999999999KA1999M+03171KA2999N+02891MA1101595999999MD1610111+9999MW1001REMMET085KGWO 202353Z 15008KT 10SM CLR 30/24 A3000 RMK AO2 SLP156 T03000239 10317 20289 56011;EQDQ01+000000PRSWM2N01 00000JPWTH 0QNNAA1D0 00000BA1 0 00000GA1U0 99999KA1D0 00075JA1 0 00239LA1 0 01000CA1 0 03000NA1 0 00000QA1 0 10156SA1D0 00086RA1 0 00300YA1 0 15008
0295722359139782000062110533+33500-090083FM-15+0047GWO  V0201805N00315220005MN0128005N1+02335+02285101685ADDGF100991999999999999999999MA1101695999999MW1001REMMET066KGWO 211053Z 18006KT 8SM CLR 23/23 A3003 RMK AO2 SLP168 T02330228;EQDQ01+000000PRSWM2N01 00000JPWTH 0QNNAA1D0 00000BA1 0 00000GA1U0 99999KA1D0 00073JA1 0 00228LA1 0 00800CA1 0 03003NA1 0 00000QA1 0 10168SA1D0 00074RA1 0 00233YA1 0 18006
0244722359139782000062900464+33500-090800FM-16+0047KGWO V0209999C000010084019N0028161N1+02601+02401999999ADDGD12991+0051019GD23991+0084019GD34991+0240019GF108991999999999999999999MA1101461999999MW1811MW2951REMMET099KGWO 290046Z 00000KT 1 3/4SM TSRA BR SCT017 BKN028 OVC085 26/24 A2996 RMK AO2 TSB2357RAB2356 P0008;EQDQ01+000100PRSWM4Q02+000003PRSWM1
0314722359139782000070100533+33500-090083FM-15+0047GWO  V0209999C00005220005MN0096005N1+02505+02225101585ADDGF100991999999999999999999MA1101595999999MW1055REMMET069KGWO 010053Z 00000KT 6SM HZ CLR 25/22 A3000 RMK AO2 SLP158 T02500222;EQDQ01+000003PRSWM1Q02    003PRSWM1N01 00081JPWTH 0QNNAA1D0 00000BA1 0 00000GA1U0 99999KA1D0 00072JA1 0 00222LA1 0 00600CA1 0 03000NA1 0 00081QA1 0 10158SA1D0 00077RA1 0 00250YA1 0 00000
0071722359139782000070722009+33500-090083NSRDB+004799999V020999999999999999999999999999+99999+99999999999ADDGP10060009602008000002015009602008GQ100600460926989GR100600916913219
0071722359139782000071001009+33500-090083NSRDB+004799999V020999999999999999999999999999+99999+99999999999ADDGP10060005302008008402015004302008GQ100600825929199GR100600171913229
0334722359139782000071514533+33500-090083FM-15+0047GWO  V0209999V00155220005MN0096005N1+03115+02395101225ADDGF100991999999999999999999MA1101255999999MD1010021+9999MW1055REMMET075KGWO 151453Z VRB03KT 6SM HZ CLR 31/24 A2990 RMK AO2 SLP122 T03110239 50002;EQDQ01+000003PRSWM1Q02    003PRSWM1N01 00081JPWTH 0QNNAA1D0 00000BA1 0 00000GA1U0 99999KA1D0 00075JA1 0 00239LA1 0 00600CA1 0 02990NA1 0 00081QA1 0 10122SA1D0 00088RA1 0 00311YA1 0 00003
0295722359139782000071812533+33500-090083FM-15+0047GWO  V0201705N00265220005MN0144005N1+02615+02285101825ADDGF100991999999999999999999MA1101865999999MW1001REMMET066KGWO 181253Z 17005KT 9SM CLR 26/23 A3008 RMK AO2 SLP182 T02610228;EQDQ01+000000PRSWM2N01 00000JPWTH 0QNNAA1D0 00000BA1 0 00000GA1U0 99999KA1D0 00073JA1 0 00228LA1 0 00900CA1 0 03008NA1 0 00000QA1 0 10182SA1D0 00079RA1 0 00261YA1 0 17005
0295722359139782000071910533+33500-090083FM-15+0047GWO  V0201805N00155220005MN0144005N1+02565+02285101575ADDGF100991999999999999999999MA1101595999999MW1001REMMET066KGWO 191053Z 18003KT 9SM CLR 26/23 A3000 RMK AO2 SLP157 T02560228;EQDQ01+000000PRSWM2N01 00000JPWTH 0QNNAA1D0 00000BA1 0 00000GA1U0 99999KA1D0 00073JA1 0 00228LA1 0 00900CA1 0 03000NA1 0 00000QA1 0 10157SA1D0 00078RA1 0 00256YA1 0 18003
0296722359139782000072113533+33500-090083FM-15+0047GWO  V0200405N00365220005MN0160005N1+02395+02005101575ADDGF100991999999999999999999MA1101595999999MW1001REMMET067KGWO 211353Z 04007KT 10SM CLR 24/20 A3000 RMK AO2 SLP157 T02390200;EQDQ01+000000PRSWM2N01 00000JPWTH 0QNNAA1D0 00000BA1 0 00000GA1U0 99999KA1D0 00068JA1 0 00200LA1 0 01000CA1 0 03000NA1 0 00000QA1 0 10157SA1D0 00075RA1 0 00239YA1 0 04007
0071722359139782000072202009+33500-090083NSRDB+004799999V020999999999999999999999999999+99999+99999999999ADDGP10060000002008000002015000002008GQ100600895929459GR100600001901439
0071722359139782000072401009+33500-090083NSRDB+004799999V020999999999999999999999999999+99999+99999999999ADDGP10060002902008001402015002802008GQ100600836928979GR100600147913249
0314722359139782000072612533+33500-090083FM-15+0047GWO  V0200705N00155220005MN0080005N1+02175+01675101765ADDGF100991999999999999999999MA1101795999999MW1055REMMET069KGWO 261253Z 07003KT 5SM HZ CLR 22/17 A3006 RMK AO2 SLP176 T02170167;EQDQ01+000003PRSWM1Q02    003PRSWM1N01 00081JPWTH 0QNNAA1D0 00000BA1 0 00000GA1U0 99999KA1D0 00062JA1 0 00167LA1 0 00500CA1 0 03006NA1 0 00081QA1 0 10176SA1D0 00071RA1 0 00217YA1 0 07003
0363722359139782000072805533+33500-090083FM-15+0047GWO  V0201905N00155220005MN0112005N1+02005+01835101685ADDGF100991999999999999999999KA1999M+03221KA2999N+02001MA1101695999999MD1710011+9999MW1001REMMET094KGWO 280553Z 19003KT 7SM CLR 20/18 A3003 RMK AO2 SLP168 T02000183 10322 20200 403500189 57001;EQDQ01+000000PRSWM2N01 00000JPWTH 0QNNAA1D0 00000BA1 0 00000GA1U0 99999KA1D0 00065JA1 0 00183LA1 0 00700CA1 0 03003NA1 0 00000QA1 0 10168SA1D0 00068RA1 0 00200YA1 0 19003
0320722359139782000072807533+33500-090083FM-15+0047GWO  V0209999C00005220005MN0096005N1+01945+01835101615ADDGF100991999999999999999999MA1101635999999MW1101MW2455REMMET069KGWO 280753Z 00000KT 6SM BR CLR 19/18 A3001 RMK AO2 SLP161 T01940183;EQDQ01+000003PRSWM1Q02    003PRSWM1N01 00070JPWTH 0QNNAA1D0 00000BA1 0 00000GA1U0 99999KA1D0 00065JA1 0 00183LA1 0 00600CA1 0 03001NA1 0 00070QA1 0 10161SA1D0 00067RA1 0 00194YA1 0 00000
0273722359139782000073006534+33500-090000FM-15+0047KGWO V0203301N003110072019N0128741N1+02301+02201101301ADDGD12991+0027019GD23991+0072019GD34991+0150019GF108991999999999999999999MA1101321999999MW1801MW2951REMMET128KGWO 300653Z 33006KT 8SM -TSRA SCT009 BKN024 OVC050 23/22 A2992 RMK AO2 TSB05 SLP130 TS OVHD MOV E OCNL LTGICCC T02280217 PNO $;EQDQ01+000003PRSWM1Q02    003PRSWM1
0054722359139782000080207009+33500-090083NSRDB+004799999V020999999999999999999999999999+99999+99999999999ADDGP10060000002000000002000000002000GR100600000900009
0320722359139782000080312533+33500-090083FM-15+0047GWO  V0201705N00215220005MN0096005N1+02335+02115101685ADDGF100991999999999999999999MA1101695999999MW1101MW2455REMMET069KGWO 031253Z 17004KT 6SM BR CLR 23/21 A3003 RMK AO2 SLP168 T02330211;EQDQ01+000003PRSWM1Q02    003PRSWM1N01 00070JPWTH 0QNNAA1D0 00000BA1 0 00000GA1U0 99999KA1D0 00070JA1 0 00211LA1 0 00600CA1 0 03003NA1 0 00070QA1 0 10168SA1D0 00074RA1 0 00233YA1 0 17004
0054722359139782000080503009+33500-090083NSRDB+004799999V020999999999999999999999999999+99999+99999999999ADDGP10060000002000000002000000002000GR100600000900009
0071722359139782000081017009+33500-090083NSRDB+004799999V020999999999999999999999999999+99999+99999999999ADDGP10060082302008069402015021202008GQ100600283912489GR100601169913309
0295722359139782000081304533+33500-090083FM-15+0047GWO  V0200105N00215220005MN0144005N1+01945+01675101485ADDGF100991999999999999999999MA1101495999999MW1001REMMET066KGWO 130453Z 01004KT 9SM CLR 19/17 A2997 RMK AO2 SLP148 T01940167;EQDQ01+000000PRSWM2N01 00000JPWTH 0QNNAA1D0 00000BA1 0 00000GA1U0 99999KA1D0 00062JA1 0 00167LA1 0 00900CA1 0 02997NA1 0 00000QA1 0 10148SA1D0 00067RA1 0 00194YA1 0 01004
0296722359139782000081501533+33500-090083FM-15+0047GWO  V0209999C00005220005MN0160005N1+02395+01895101775ADDGF100991999999999999999999MA1101795999999MW1001REMMET067KGWO 150153Z 00000KT 10SM CLR 24/19 A3006 RMK AO2 SLP177 T02390189;EQDQ01+000000PRSWM2N01 00000JPWTH 0QNNAA1D0 00000BA1 0 00000GA1U0 99999KA1D0 00066JA1 0 00189LA1 0 01000CA1 0 03006NA1 0 00000QA1 0 10177SA1D0 00075RA1 0 00239YA1 0 00000
0296722359139782000082722533+33500-090083FM-15+0047GWO  V0203205N00365220005MN0160005N1+03615+01895101095ADDGF100991999999999999999999MA1101125999999MW1001REMMET067KGWO 272253Z 32007KT 10SM CLR 36/19 A2986 RMK AO2 SLP109 T03610189;EQDQ01+000000PRSWM2N01 00000JPWTH 0QNNAA1D0 00000BA1 0 00000GA1U0 99999KA1D0 00066JA1 0 00189LA1 0 01000CA1 0 02986NA1 0 00000QA1 0 10109SA1D0 00097RA1 0 00361YA1 0 32007
0296722359139782000082815533+33500-090083FM-15+0047GWO  V0209999V00315220005MN0160005N1+03285+02225101615ADDGF100991999999999999999999MA1101665999999MW1001REMMET067KGWO 281553Z VRB06KT 10SM CLR 33/22 A3002 RMK AO2 SLP161 T03280222;EQDQ01+000000PRSWM2N01 00000JPWTH 0QNNAA1D0 00000BA1 0 00000GA1U0 99999KA1D0 00072JA1 0 00222LA1 0 01000CA1 0 03002NA1 0 00000QA1 0 10161SA1D0 00091RA1 0 00328YA1 0 00006
0054722359139782000082909009+33500-090083NSRDB+004799999V020999999999999999999999999999+99999+99999999999ADDGP10060000002000000002000000002000GR100600000900009
0071722359139782000090312009+33500-090083NSRDB+004799999V020999999999999999999999999999+99999+99999999999ADDGP10060000002008000002015000002008GQ100600879908249GR100600019905049
0295722359139782000090313533+33500-090083FM-15+0047GWO  V0201105N00265220005MN0128005N1+02785+02115101165ADDGF100991999999999999999999MA1101195999999MW1001REMMET066KGWO 031353Z 11005KT 8SM CLR 28/21 A2988 RMK AO2 SLP116 T02780211;EQDQ01+000000PRSWM2N01 00000JPWTH 0QNNAA1D0 00000BA1 0 00000GA1U0 99999KA1D0 00070JA1 0 00211LA1 0 00800CA1 0 02988NA1 0 00000QA1 0 10116SA1D0 00082RA1 0 00278YA1 0 11005
0296722359139782000090505596+33496-090087SOD  +0041KGWO V020999999999999999999999999999+99999+99999999999ADDAT1MW01FG  5AT2MW13BR  1AT3MW08HZ  5MG1100479999994OE11249999999999997OE22249999999999997REMSOD195AVERAGE STATION PRESSURE:29.67  HOURLY INCREMENTAL PRECIPITATION VALUES (IN):.00  .00  .00  .00  .00  .00  .00  .00  .00  .00  .00  .00  .00  .00  .00  .00  .00  .00  .00  .00  .00  .00  .00  .00
0137722359139782000090717504+33500-090000FM-15+0047KGWO V0200901N003610042019N0112651N1+02301+01801999999ADDGD14991+0042019GF108991999999999999999999MA1101731999999MW1001REMMET044KGWO 071750Z 09007KT 7SM OVC014 23/18 A3004;EQDQ01+000000PRSWM2
0396722359139782000090905533+33500-090083FM-15+0047GWO  V0201405N00315220005MN0160005N1+02335+02225101575ADDGF100991999999999999999999KA1999M+02501KA2999N+02281MA1101595999999MD1710011+9999MW1001REMMET095KGWO 090553Z 14006KT 10SM CLR 23/22 A3000 RMK AO2 SLP157 T02330222 10250 20228 402670222 58000;EQDQ01+000082APCTENQ02+000002APC3  Q03+000000PRSWM2N01 00000JPWTH 0QNNAA1D0 00000BA1 0 00000GA1U0 99999KA1D0 00072JA1 0 00222LA1 0 01000CA1 0 03000NA1 0 00000QA1 0 10157SA1D0 00074RA1 0 00233YA1 0 14006
0054722359139782000090911009+33500-090083NSRDB+004799999V020999999999999999999999999999+99999+99999999999ADDGP10060000002000000002000000002000GR100600000900009
0071722359139782000090914009+33500-090083NSRDB+004799999V020999999999999999999999999999+99999+99999999999ADDGP10060008102008000002015008102008GQ100600680909899GR100600505913489
0054722359139782000091107009+33500-090083NSRDB+004799999V020999999999999999999999999999+99999+99999999999ADDGP10060000002000000002000000002000GR100600000900009
0071722359139782000091214009+33500-090083NSRDB+004799999V020999999999999999999999999999+99999+99999999999ADDGP10060021402008013402015016402008GQ100600684910019GR100600496913509
0328722359139782000091320533+33500-090083FM-15+0047GWO  V0203305N00415220005MN0160005N1+03065+02005101405ADDGF100991999999999999999999MA1101425999999MD1810231+9999MW1001REMMET085KGWO 132053Z 33008KT 10SM CLR 31/20 A2995 RMK AO2 SLP140 6//// T03060200 58023 PNO $;EQDQ01+000000PRSWM2N01 00000JPWTH 0QNNAA1D0 00000BA1 0 00000GA1U0 99999KA1D0 00068JA1 0 00200LA1 0 01000CA1 0 02995NA1 0 00000QA1 0 10140SA1D0 00087RA1 0 00306YA1 0 33008
0054722359139782000091808009+33500-090083NSRDB+004799999V020999999999999999999999999999+99999+99999999999ADDGP10060000002000000002000000002000GR100600000900009
0326722359139782000091808533+33500-090083FM-15+0047GWO  V0209999C00005220005MN0160005N1+01175+00785101655ADDGF100991999999999999999999MA1101665999999MD1610051+9999MW1001REMMET083KGWO 180853Z 00000KT 10SM CLR 12/08 A3002 RMK AO2 SLP165 6//// T01170078 56005 PNO;EQDQ01+000000PRSWM2N01 00000JPWTH 0QNNAA1D0 00000BA1 0 00000GA1U0 99999KA1D0 00046JA1 0 00078LA1 0 01000CA1 0 03002NA1 0 00000QA1 0 10165SA1D0 00053RA1 0 00117YA1 0 00000
0296722359139782000091922533+33500-090083FM-15+0047GWO  V0201705N00575220005MN0160005N1+03115+00835101155ADDGF100991999999999999999999MA1101195999999MW1001REMMET067KGWO 192253Z 17011KT 10SM CLR 31/08 A2988 RMK AO2 SLP115 T03110083;EQDQ01+000000PRSWM2N01 00000JPWTH 0QNNAA1D0 00000BA1 0 00000GA1U0 99999KA1D0 00047JA1 0 00083LA1 0 01000CA1 0 02988NA1 0 00000QA1 0 10115SA1D0 00088RA1 0 00311YA1 0 17011
0170722359139782000092014254+33500-090000FM-15+0047KGWO V0201901N005110063019N0160931N1+02701+02201999999ADDGD13991+0063019GD23991+0087019GF107991999999999999999999MA1101421999999MW1001REMMET062KGWO 201425Z 19010KT 10SM BKN021 BKN029 27/22 A2995 RMK AO2 $;EQDQ01+000000PRSWM2
0071722359139782000092117009+33500-090083NSRDB+004799999V020999999999999999999999999999+99999+99999999999ADDGP10060075002008074802015016402008GQ100600386914549GR100601060913579
0319722359139782000092301533+33500-090083FM-15+0047GWO  V0201805N00215220005MN0160005N1+02445+02225101105ADDAA101000021GF100991999999999999999999MA1101125999999MW1001REMMET079KGWO 230153Z 18004KT 10SM CLR 24/22 A2986 RMK AO2 RAE18 SLP110 P0000 T02440222;EQDQ01+000000PRSWM2N01 00000JPWTH 0QNNAA1D0 00000BA1 0 00000GA1U0 99999KA1D0 00072JA1 0 00222LA1 0 01000CA1 0 02986NA1 0 00000QA1 0 10110SA1D0 00076RA1 0 00244YA1 0 18004
0381722359139782000092305533+33500-090083FM-15+0047GWO  V0201405N00525220005MN0160005N1+02505+02225101125ADDAA106000391GF100991999999999999999999KA1999M+02891KA2999N+02441MA1101155999999MD1810011+9999MW1001REMMET101KGWO 230553Z 14010KT 10SM CLR 25/22 A2987 RMK AO2 SLP112 60001 T02500222 10289 20244 403330222 58001;EQDQ01+000000PRSWM2N01 00000JPWTH 0QNNAA1D0 00000BA1 0 00000GA1U0 99999KA1D0 00072JA1 0 00222LA1 0 01000CA1 0 02987NA1 0 00000QA1 0 10112SA1D0 00077RA1 0 00250YA1 0 14010
0171722359139782000092503454+33500-090000FM-15+0047KGWO V0209999C000012200019N0160931N1+02301+02201999999ADDAA101000021GD12991+0051019GF102991999999999999999999MA1101151999999MW1001REMMET067KGWO 250345Z 00000KT 10SM FEW017 23/22 A2987 RMK AO2 RAE20 P0000 $;EQDQ01+000000PRSWM2
0192722359139782000092509314+33500-090000FM-16+0047KGWO V0202301N002610033019N0160931N1+02201+02101999999ADDGD12991+0024019GD23991+0033019GD34991+0093019GF108991999999999999999999MA1101021999999MW1001REMMET069KGWO 250931Z 23005KT 10SM FEW008 BKN011 OVC031 22/21 A2983 RMK AO2 $;EQDQ01+000000PRSWM2
0071722359139782000092523009+33500-090083NSRDB+004799999V020999999999999999999999999999+99999+99999999999ADDGP10060005702008000002015005702008GQ100600738925739GR100600379913609
0296722359139782000092612533+33500-090083FM-15+0047GWO  V0200105N00465220005MN0160005N1+01115+00675102265ADDGF100991999999999999999999MA1102275999999MW1001REMMET067KGWO 261253Z 01009KT 10SM CLR 11/07 A3020 RMK AO2 SLP226 T01110067;EQDQ01+000000PRSWM2N01 00000JPWTH 0QNNAA1D0 00000BA1 0 00000GA1U0 99999KA1D0 00044JA1 0 00067LA1 0 01000CA1 0 03020NA1 0 00000QA1 0 10226SA1D0 00052RA1 0 00111YA1 0 01009
0071722359139782000092700009+33500-090083NSRDB+004799999V020999999999999999999999999999+99999+99999999999ADDGP10060002202008010502015001502008GQ100600852926499GR100600094911239
0071722359139782000092717009+33500-090083NSRDB+004799999V020999999999999999999999999999+99999+99999999999ADDGP10060070702008067002015019602008GQ100600404914789GR100601036913619
0299722359139782000100919533+33500-090083FM-15+0047GWO  V0209999V00265220005MN0160005N1+01445-00505103155ADDGF100991999999999999999999MA1103155999999MW1001REMMET070KGWO 091953Z VRB05KT 10SM CLR 14/M05 A3046 RMK A02 SLP315 T01441050 $;EQDQ01+000000PRSWM2N01 00000JPWTH 0QNNAA1D0 00000BA1 0 00000GA1U0 99999KA1D0 00023JA1 0-00050LA1 0 01000CA1 0 03046NA1 0 00000QA1 0 10315SA1D0 00058RA1 0 00144YA1 0 00005
0255722359139782000101023003+33500-090083FM-15+0047GWO  V0201405N00265220005MN016000599+01895-00175102595ADDGD10995+9999999GP10060013402008036602015005802008GQ100600781925319GR100600283913729MA1102615999999EQDN01 00000JPWTH 0QNNAA1D0 00000BA1 0 00000GA1U0 99999KA1D0 00029JA1 0-00017LA1 0 01000CA1 0 03030NA1 0 00000QA1 0 10259SA1D0 00066RA1 0 00189YA1 0 14005
0054722359139782000101102009+33500-090083NSRDB+004799999V020999999999999999999999999999+99999+99999999999ADDGP10060000002000000002000000002000GR100600000900009
0054722359139782000101310009+33500-090083NSRDB+004799999V020999999999999999999999999999+99999+99999999999ADDGP10060000002000000002000000002000GR100600000900009
0071722359139782000101421009+33500-090083NSRDB+004799999V020999999999999999999999999999+99999+99999999999ADDGP10060045002008049602015018102008GQ100600573923039GR100600742913759
0071722359139782000102022009+33500-090083NSRDB+004799999V020999999999999999999999999999+99999+99999999999ADDGP10060024002008024102015015502008GQ100600693924079GR100600486913809
0054722359139782000102205009+33500-090083NSRDB+004799999V020999999999999999999999999999+99999+99999999999ADDGP10060000002000000002000000002000GR100600000900009
0400722359139782000102205533+33500-090083FM-15+0047GWO  V0209999C00005018295MN0144005N1+01895+01335102075ADDGD13995+0182959GF107991999999999999999999KA1999M+02221KA2999N+01781MA1102105999999MD1010021+9999MW1055REMMET100KGWO 220553Z 00000KT 9SM HZ BKN060 19/13 A3015 RMK AO2 SLP207 T01890133 10222 20178 402890133 50002;EQDQ01+000003PRSWM1Q02    003PRSWM1N01 00081JPWTH 0QNNAA1D0 04060BA1 0 04060GA1 0 00060KA1D0 00056JA1 0 00133LA1 0 00900CA1 0 03015NA1 0 00081QA1 0 10207SA1D0 00066RA1 0 00189YA1 0 00000
0295722359139782000102406533+33500-090083FM-15+0047GWO  V0200605N00265220005MN0112005N1+01615+01285102815ADDGF100991999999999999999999MA1102845999999MW1001REMMET066KGWO 240653Z 06005KT 7SM CLR 16/13 A3037 RMK AO2 SLP281 T01610128;EQDQ01+000000PRSWM2N01 00000JPWTH 0QNNAA1D0 00000BA1 0 00000GA1U0 99999KA1D0 00055JA1 0 00128LA1 0 00700CA1 0 03037NA1 0 00000QA1 0 10281SA1D0 00061RA1 0 00161YA1 0 06005
0054722359139782000102505009+33500-090083NSRDB+004799999V020999999999999999999999999999+99999+99999999999ADDGP10060000002000000002000000002000GR100600000900009
0296722359139782000102718533+33500-090083FM-15+0047GWO  V0202305N00215220005MN0160005N1+02785+01285102035ADDGF100991999999999999999999MA1102075999999MW1001REMMET067KGWO 271853Z 23004KT 10SM CLR 28/13 A3014 RMK AO2 SLP203 T02780128;EQDQ01+000000PRSWM2N01 00000JPWTH 0QNNAA1D0 00000BA1 0 00000GA1U0 99999KA1D0 00055JA1 0 00128LA1 0 01000CA1 0 03014NA1 0 00000QA1 0 10203SA1D0 00082RA1 0 00278YA1 0 23004
0071722359139782000102818009+33500-090083NSRDB+004799999V020999999999999999999999999999+99999+99999999999ADDGP10060066002008079902015011502008GQ100600472917539GR100600942913869
0295722359139782000102900533+33500-090083FM-15+0047GWO  V0209999C00005220005MN0144005N1+02065+01395102025ADDGF100991999999999999999999MA1102035999999MW1001REMMET066KGWO 290053Z 00000KT 9SM CLR 21/14 A3013 RMK AO2 SLP202 T02060139;EQDQ01+000000PRSWM2N01 00000JPWTH 0QNNAA1D0 00000BA1 0 00000GA1U0 99999KA1D0 00057JA1 0 00139LA1 0 00900CA1 0 03013NA1 0 00000QA1 0 10202SA1D0 00069RA1 0 00206YA1 0 00000
0295722359139782000102901533+33500-090083FM-15+0047GWO  V0200805N00155220005MN0144005N1+01835+01395102055ADDGF100991999999999999999999MA1102075999999MW1001REMMET066KGWO 290153Z 08003KT 9SM CLR 18/14 A3014 RMK AO2 SLP205 T01830139;EQDQ01+000000PRSWM2N01 00000JPWTH 0QNNAA1D0 00000BA1 0 00000GA1U0 99999KA1D0 00057JA1 0 00139LA1 0 00900CA1 0 03014NA1 0 00000QA1 0 10205SA1D0 00065RA1 0 00183YA1 0 08003
0340722359139782000103008533+33500-090083FM-15+0047GWO  V0209999C00005220005MN0096005N1+01395+01225102025ADDGF100991999999999999999999MA1102035999999MD1310041+9999MW1101MW2455REMMET075KGWO 300853Z 00000KT 6SM BR CLR 14/12 A3013 RMK AO2 SLP202 T01390122 53004;EQDQ01+000003PRSWM1Q02    003PRSWM1N01 00070JPWTH 0QNNAA1D0 00000BA1 0 00000GA1U0 99999KA1D0 00054JA1 0 00122LA1 0 00600CA1 0 03013NA1 0 00070QA1 0 10202SA1D0 00057RA1 0 00139YA1 0 00000
0054722359139782000110404009+33500-090083NSRDB+004799999V020999999999999999999999999999+99999+99999999999ADDGP10060000002000000002000000002000GR100600000900009
0167722359139782000110417284+33500-090000FM-16+0047KGWO V0200601N003610042019N0112651N1+01901+01701999999ADDGD13991+0042019GD24991+0102019GF108991999999999999999999MA1101801999999MW1001REMMET059KGWO 041728Z 06007KT 7SM BKN014 OVC034 19/17 A3006 RMK AO2;EQDQ01+000000PRSWM2
0396722359139782000110517533+33500-090083FM-15+0047GWO  V0201005N00365002135MN0080005N1+01725+01615101275ADDGD14995+0021359GF108991999999999999999999KA1999M+01721KA2999N+01441MA1101295999999MD1810201+9999MW1101MW2455REMMET090KGWO 051753Z 10007KT 5SM BR OVC007 17/16 A2991 RMK AO2 SLP127 T01720161 10172 20144 58020;EQDQ01+000003PRSWM1Q02    003PRSWM1N01 00070JPWTH 0QNNAA1D0 06007BA1 0 06007GA1 0 00007KA1D0 00061JA1 0 00161LA1 0 00500CA1 0 02991NA1 0 00070QA1 0 10127SA1D0 00063RA1 0 00172YA1 0 10007
0054722359139782000110603009+33500-090083NSRDB+004799999V020999999999999999999999999999+99999+99999999999ADDGP10060000002000000002000000002000GR100600000900009
0343722359139782000110612533+33500-090083FM-15+0047GWO  V0201505N00825024385MN0080005N1+02115+01835100375ADDGD13995+0243859GF107991999999999999999999MA1100415999999MW1055OC101131REMMET075KGWO 061253Z 15016G22KT 5SM HZ BKN080 21/18 A2965 RMK AO2 SLP037 T02110183;EQDQ01+000003PRSWM1Q02    003PRSWM1N01 00081JPWTH 0QNNAA1D0 04080BA1 0 04080GA1 0 00080KA1D0 00065JA1 0 00183LA1 0 00500CA1 0 02965NA1 0 00081QA1 0 10037SA1D0 00070RA1 0 00211YA1 0 15016
0224722359139782000110615364+33500-090000FM-16+0047KGWO V0201501N008710072019N0048281N1+02101+01901999999ADDGD12991+0045019GD23991+0072019GD34991+0180019GF108991999999999999999999MA1100411999999MW1101MW2611REMMET079KGWO 061536Z 15017KT 3SM -RA BR FEW015 BKN024 OVC060 21/19 A2965 RMK AO2 P0020;EQDQ01+000003PRSWM1Q02    003PRSWM1
0350722359139782000110620533+33500-090083FM-15+0047GWO  V0201605N01135220005MN0144005N1+02445+01895100051ADDAA103000591GF100991999999999999999999MA1100075999999MD1610121+9999MW1001OC101541REMMET099KGWO 062053Z 16022G30KT 9SM CLR 24/19 A2955 RMK AO2 PK WND 17030/2046 SLP005 60002 T02440189 56012;EQDQ01+000000PRSWM2N01 00000JPWTH 0QNNAA1D0 00000BA1 0 00000GA1U0 99999KA1D0 00066JA1 0 00189LA1 0 00900CA1 0 02955NA1 0 00000SA1D0 00076RA1 0 00244YA1 0 16022
0054722359139782000110707009+33500-090083NSRDB+004799999V020999999999999999999999999999+99999+99999999999ADDGP10060000002000000002000000002000GR100600000900009
0337722359139782000110806533+33500-090083FM-15+0047GWO  V0200305N00465009145MN0160005N1+01335+01115101215ADDAA101000591GD14995+0091459GF108991999999999999999999MA1101225999999MW1001REMMET082KGWO 080653Z 03009KT 10SM OVC030 13/11 A2989 RMK AO2 RAE26 SLP121 P0002 T01330111;EQDQ01+000000PRSWM2N01 00000JPWTH 0QNNAA1D0 06030BA1 0 06030GA1 0 00030KA1D0 00052JA1 0 00111LA1 0 01000CA1 0 02989NA1 0 00000QA1 0 10121SA1D0 00056RA1 0 00133YA1 0 03009
0179722359139782000110811324+33500-090000FM-16+0047KGWO V0200101N003110024019N0144841N1+01201+01201999999ADDGD13991+0024019GD24991+0054019GF108991999999999999999999MA1101151999999MW1001REMMET071KGWO 081132Z 01006KT 9SM BKN008 OVC018 12/12 A2987 RMK AO2 RAE11 P0000;EQDQ01+000000PRSWM2
0222722359139782000110908464+33500-090000FM-16+0047KGWO V0202401N00621001501CN0128741N1+01701+01601999999ADDGD13991+0018019GD24991+0042019GF108991999999999999999999MA1100171999999MW1611REMMET098KGWO 090846Z 24012KT 8SM -RA BKN006 OVC014 17/16 A2958 RMK AO2 WSHFT 0826 RAB14 CIG 005V009 P0003;EQDQ01+000003PRSWM1Q02    003PRSWM1
0389722359139782000110920533+33500-090083FM-15+0047GWO  V0202505N00525006105MN0160005N1+00835+00445101085ADDGD13995+0061059GD24995+0085359GF108991999999999999999999MA1101085999999MD1310141+9999MW1001OC100871REMMET086KGWO 092053Z 25010G17KT 10SM BKN020 OVC028 08/04 A2985 RMK AO2 SLP108 T00830044 53014;EQDQ01+000000PRSWM2N01 00000JPWTH 0QNNAA1D0 04020BA1 0 04020AA1D0 06028BA1 0 06028GA1 0 00020KA1D0 00040JA1 0 00044LA1 0 01000CA1 0 02985NA1 0 00000QA1 0 10108SA1D0 00047RA1 0 00083YA1 0 25010
0071722359139782000111113009+33500-090083NSRDB+004799999V020999999999999999999999999999+99999+99999999999ADDGP10060000002008005102015000002008GQ100600874911299GR100600032907109
0404722359139782000111211533+33500-090083FM-15+0047GWO  V0209999C00005220005MN0064005N1+00285+00225101885ADDGF100991999999999999999999KA1999M+00441KA2999N+00221MA1101905999999MD1310061+9999MW1121MW2445MW3455REMMET107KGWO 121153Z 00000KT 4SM MIFG CLR 03/02 A3009 RMK AO2 SLP188 6//// 7//// T00280022 10044 20022 53006 PNO $;EQDQ01+000003PRSWM1Q02    003PRSWM1N01 07270JPWTH 0QNNAA1D0 00000BA1 0 00000GA1U0 99999KA1D0 00036JA1 0 00022LA1 0 00400CA1 0 03009NA1 0 07270QA1 0 10188SA1D0 00037RA1 0 00028YA1 0 00000
0071722359139782000111218009+33500-090083NSRDB+004799999V020999999999999999999999999999+99999+99999999999ADDGP10060043002008017402015032202008GQ100600517917569GR100600866913979
0315722359139782000111812533+33500-090083FM-15+0047GWO  V0200405N00315220005MN0160005N1+00115-00395102655ADDGD11995+0365859GF102991999999999999999999MA1102645999999MW1001REMMET071KGWO 181253Z 04006KT 10SM FEW120 01/M04 A3031 RMK AO2 SLP265 T00111039;EQDQ01+000000PRSWM2N01 00000JPWTH 0QNNAA1D0 02120BA1 0 01120GA1U0 99999KA1D0 00025JA1 0-00039LA1 0 01000CA1 0 03031NA1 0 00000QA1 0 10265SA1D0 00034RA1 0 00011YA1 0 04006
0475722359139782000111908533+33500-090083FM-15+0047GWO  V0200205N00265011285MN0128005N1+00225+00115102295ADDAA101000391AA203001391GD13995+0112859GD23995+0137259GD34995+0182959GF108991999999999999999999MA1102275999999MD1810011+9999MW1615REMMET105KGWO 190853Z 02005KT 8SM -RA BKN037 BKN045 OVC060 02/01 A3020 RMK AO2 SLP229 P0001 60005 T00220011 58001;EQDQ01+000003PRSWM1Q02    003PRSWM1N01 00020JPWTH 0QNNAA1D0 04037BA1 0 04037AA1D0 04045BA1 0 04045AA1D0 06060BA1 0 06060GA1 0 00037KA1D0 00034JA1 0 00011LA1 0 00800CA1 0 03020NA1 0 00020QA1 0 10229SA1D0 00036RA1 0 00022YA1 0 02005
0054722359139782000111910009+33500-090083NSRDB+004799999V020999999999999999999999999999+99999+99999999999ADDGP10060000002000000002000000002000GR100600000900009
0071722359139782000111917009+33500-090083NSRDB+004799999V020999999999999999999999999999+99999+99999999999ADDGP10060054502008076302015011902008GQ100600562915859GR100600778914019
0054722359139782000112209009+33500-090083NSRDB+004799999V020999999999999999999999999999+99999+99999999999ADDGP10060000002000000002000000002000GR100600000900009
0226722359139782000112420244+33500-090000FM-16+0047KGWO V0201101N009810117019N0080461N1+01001+00801999999ADDGD12991+0045019GD23991+0117019GD34991+0141019GF108991999999999999999999MA1100071999999MW1101MW2611REMMET081KGWO 242024Z 11019KT 5SM -RA BR SCT015 BKN039 OVC047 10/08 A2955 RMK AO2 P0001 $;EQDQ01+000003PRSWM1Q02    003PRSWM1
0342722359139782000112608533+33500-090083FM-15+0047GWO  V0201705N00265220005MN0096005N1+00615+00565101555ADDGF100991999999999999999999MA1101565999999MD1310061+9999MW1101MW2455REMMET077KGWO 260853Z 17005KT 6SM BR CLR 06/06 A2999 RMK AO2 SLP155 T00610056 53006 $;EQDQ01+000003PRSWM1Q02    003PRSWM1N01 00070JPWTH 0QNNAA1D0 00000BA1 0 00000GA1U0 99999KA1D0 00042JA1 0 00056LA1 0 00600CA1 0 02999NA1 0 00070QA1 0 10155SA1D0 00043RA1 0 00061YA1 0 17005
0150722359139782000112610134+33500-090000FM-16+0047KGWO V0201601N001512200019N0012071N1+00501+00401999999ADDGF100991999999999999999999MA1101521999999MW1101REMMET056KGWO 261013Z 16003KT 3/4SM BR CLR 05/04 A2998 RMK AO2 $;EQDQ01+000003PRSWM1Q02    003PRSWM1
0298722359139782000112706533+33500-090083FM-15+0047GWO  V0201905N00155220005MN0160005N1+00445+00335101795ADDGF100991999999999999999999MA1101795999999MW1001REMMET069KGWO 270653Z 19003KT 10SM CLR 04/03 A3006 RMK AO2 SLP179 T00440033 $;EQDQ01+000000PRSWM2N01 00000JPWTH 0QNNAA1D0 00000BA1 0 00000GA1U0 99999KA1D0 00038JA1 0 00033LA1 0 01000CA1 0 03006NA1 0 00000QA1 0 10179SA1D0 00040RA1 0 00044YA1 0 19003
0054722359139782000112709009+33500-090083NSRDB+004799999V020999999999999999999999999999+99999+99999999999ADDGP10060000002000000002000000002000GR100600000900009
0071722359139782000112722009+33500-090083NSRDB+004799999V020999999999999999999999999999+99999+99999999999ADDGP10060017702008047402015006202008GQ100600761923229GR100600337914059
0469722359139782000112912533+33500-090083FM-15+0047GWO  V0209999C00005001525MN0028005N1+01065+01065102355ADDAA101001391GD13995+0015259GD23995+0033559GD34995+0167659GF108991999999999999999999MA1102375999999MW1101MW2455MW3615REMMET112KGWO 291253Z 00000KT 1 3/4SM -RA BR BKN005 BKN011 OVC055 11/11 A3023 RMK AO2 CIG 003V006 SLP235 P0005 T01060106;EQDQ01+000003PRSWM1Q02    003PRSWM1N01 02070JPWTH 0QNNAA1D0 04005BA1 0 04005AA1D0 04011BA1 0 04011AA1D0 06055BA1 0 06055GA1 0 00005KA1D0 00051JA1 0 00106LA1 0 00175CA1 0 03023NA1 0 02070QA1 0 10235SA1D0 00051RA1 0 00106YA1 0 00000
0256722359139782000113018533+33500-090083FM-15+0047GWO  V0201005N00215220005MN0000005N1+01175-00285102605ADDGD10995+9999999MA1102615999999MW1001REMMET065KGWO 301853Z 10004KT CLR 12/M03 A3030 RMK AO2 SLP260 T01171028 $;EQDQ01+000000PRSWM2QNNAA1D0 00000BA1 0 00000GA1U0 99999KA1D0 00027JA1 0-00028LA1 0 00000CA1 0 03030QA1 0 10260SA1D0 00053RA1 0 00117YA1 0 10004
0054722359139782000120107009+33500-090083NSRDB+004799999V020999999999999999999999999999+99999+99999999999ADDGP10060000002000000002000000002000GR100600000900009
0071722359139782000120117009+33500-090083NSRDB+004799999V020999999999999999999999999999+99999+99999999999ADDGP10060009402008000002015009402008GQ100600587915849GR100600731914079
0335722359139782000120208533+33500-090083FM-15+0047GWO  V0203205N00265014335MN0160005N1+00505-00115102465ADDGD13995+0143359GF107991999999999999999999MA1102475999999MD1110141+9999MW1001REMMET077KGWO 020853Z 32005KT 10SM BKN047 05/M01 A3026 RMK AO2 SLP246 T00501011 51014;EQDQ01+000000PRSWM2N01 00000JPWTH 0QNNAA1D0 04047BA1 0 04047GA1 0 00047KA1D0 00030JA1 0-00011LA1 0 01000CA1 0 03026NA1 0 00000QA1 0 10246SA1D0 00041RA1 0 00050YA1 0 32005
0298722359139782000120400533+33500-090083FM-15+0047GWO  V0209999C00005220005MN0160005N1-00065-00225103285ADDGF100991999999999999999999MA1103285999999MW1001REMMET069KGWO 040053Z 00000KT 10SM CLR M01/M02 A3050 RMK AO2 SLP328 T10061022;EQDQ01+000000PRSWM2N01 00000JPWTH 0QNNAA1D0 00000BA1 0 00000GA1U0 99999KA1D0 00028JA1 0-00022LA1 0 01000CA1 0 03050NA1 0 00000QA1 0 10328SA1D0 00031RA1 0-00006YA1 0 00000
0071722359139782000120515009+33500-090083NSRDB+004799999V020999999999999999999999999999+99999+99999999999ADDGP10060026202008065002015007802008GQ100600737913239GR100600396914099
0314722359139782000120621533+33500-090083FM-15+0047GWO  V0200105N00215018295MN0160005N1+00785+00005102075ADDGD14995+0182959GF108991999999999999999999MA1102075999999MW1001REMMET070KGWO 062153Z 01004KT 10SM OVC060 08/00 A3014 RMK AO2 SLP207 T00780000;EQDQ01+000000PRSWM2N01 00000JPWTH 0QNNAA1D0 06060BA1 0 06060GA1 0 00060KA1D0 00032JA1 0 00000LA1 0 01000CA1 0 03014NA1 0 00000QA1 0 10207SA1D0 00046RA1 0 00078YA1 0 01004
0054722359139782000120904009+33500-090083NSRDB+004799999V020999999999999999999999999999+99999+99999999999ADDGP10060000002000000002000000002000GR100600000900009
0298722359139782000120909533+33500-090083FM-15+0047GWO  V0200405N00315220005MN0160005N1+00445+00175102175ADDGF100991999999999999999999MA1102175999999MW1001REMMET069KGWO 090953Z 04006KT 10SM CLR 04/02 A3017 RMK AO2 SLP217 T00440017 $;EQDQ01+000000PRSWM2N01 00000JPWTH 0QNNAA1D0 00000BA1 0 00000GA1U0 99999KA1D0 00035JA1 0 00017LA1 0 01000CA1 0 03017NA1 0 00000QA1 0 10217SA1D0 00040RA1 0 00044YA1 0 04006
0335722359139782000121015533+33500-090083FM-15+0047GWO  V0201905N00265019815MN0160005N1+01445+00785102085ADDGD14995+0198159GF108991999999999999999999MA1102105999999MW1055REMMET075KGWO 101553Z 19005KT 10SM HZ OVC065 14/08 A3015 RMK AO2 SLP208 T01440078 $;EQDQ01+000003PRSWM1Q02    003PRSWM1N01 00081JPWTH 0QNNAA1D0 06065BA1 0 06065GA1 0 00065KA1D0 00046JA1 0 00078LA1 0 01000CA1 0 03015NA1 0 00081QA1 0 10208SA1D0 00058RA1 0 00144YA1 0 19005
0166722359139782000121108464+33500-090000FM-16+0047KGWO V0201401N005112200019N0080461N1+01101+01001999999ADDGD12991+0027019GF102991999999999999999999MA1101731999999MW1101REMMET057KGWO 110846Z 14010KT 5SM BR FEW009 11/10 A3004 RMK AO2 $;EQDQ01+000003PRSWM1Q02    003PRSWM1
0071722359139782000121119009+33500-090083NSRDB+004799999V020999999999999999999999999999+99999+99999999999ADDGP10060027202008005402015024302008GQ100600573918989GR100600762914119
0071722359139782000121221009+33500-090083NSRDB+004799999V020999999999999999999999999999+99999+99999999999ADDGP10060021602008008802015018302008GQ100600677921859GR100600535914129
0447722359139782000121317533+33500-090083FM-15+0047GWO  V0200805N00415004575MN0064005N1+00225+00065101675ADDAA101001091AA206002091GD14995+0045759GF108991999999999999999999KA1999M+00281KA2999N+00061MA1101665999999MD1810511+9999MW1101MW2455MW3615REMMET113KGWO 131753Z 08008KT 4SM -RA BR OVC015 02/01 A3002 RMK AO2 PRESFR SLP167 P0004 60008 T00220006 10028 20006 58051;EQDQ01+000003PRSWM1Q02    003PRSWM1N01 02070JPWTH 0QNNAA1D0 06015BA1 0 06015GA1 0 00015KA1D0 00033JA1 0 00006LA1 0 00400CA1 0 03002NA1 0 02070QA1 0 10167SA1D0 00036RA1 0 00022YA1 0 08008
0231722359139782000121612464+33500-090000FM-16+0047KGWO V0201901N007710039019N0160931N1+01801+01701999999ADDGD13991+0039019GD23991+0066019GD34991+0096019GF108991999999999999999999MA1100851999999MW1611REMMET092KGWO 161246Z 19015KT 10SM -RA BKN013 BKN022 OVC032 18/17 A2978 RMK AO2 TSE46 TS DSPTD P0006;EQDQ01+000003PRSWM1Q02    003PRSWM1
0208722359139782000122002003+33500-090083FM-15+0047GWO  V0209999C00005220005MN000000599-00675-00945102825ADDGD10995+9999999GP10060000002000000002000000002000GR100600000900009MA1102815999999QNNAA1D0 00000BA1 0 00000GA1U0 99999KA1D0 00015JA1 0-00094LA1 0 00000CA1 0 03036QA1 0 10282SA1D0 00020RA1 0-00067YA1 0 00000
0138722359139782000122014534+33500-090000FM-16+0047KGWO V0201401N003612200019N0160931N1+99999+99999102551ADDMA1102541999999MD1710071+9999MW1001REMMET072KGWO 201453Z 14007KT CLR M06/M11 A3028 RMK AO2 SLP255 T10561106 57007 $;EQDQ01+000000PRSWM2
0054722359139782000122208009+33500-090083NSRDB+004799999V020999999999999999999999999999+99999+99999999999ADDGP10060000002000000002000000002000GR100600000900009
0071722359139782000122321009+33500-090083NSRDB+004799999V020999999999999999999999999999+99999+99999999999ADDGP10060009202008000002015009202008GQ100600673921739GR100600546914149
0054722359139782000122403009+33500-090083NSRDB+004799999V020999999999999999999999999999+99999+99999999999ADDGP10060000002000000002000000002000GR100600000900009
0316722359139782000122418533+33500-090083FM-15+0047GWO  V0203605N00415007325MN0112005N1+00725-00225103045ADDGD14995+0073259GF108991999999999999999999MA1103055999999MW1001REMMET072KGWO 241853Z 36008KT 7SM OVC024 07/M02 A3043 RMK AO2 SLP304 T00721022 $;EQDQ01+000000PRSWM2N01 00000JPWTH 0QNNAA1D0 06024BA1 0 06024GA1 0 00024KA1D0 00028JA1 0-00022LA1 0 00700CA1 0 03043NA1 0 00000QA1 0 10304SA1D0 00045RA1 0 00072YA1 0 36008
0375722359139782000122523533+33500-090083FM-15+0047GWO  V0200405N00215022865MN0160005N1+00285-00945103215ADDGD14995+0228659GF108991999999999999999999KA1999M+00391KA2999N+00171MA1103225999999MD1310041+9999MW1001REMMET091KGWO 252353Z 04004KT 10SM OVC075 03/M09 A3048 RMK AO2 SLP321 T00281094 10039 20017 53004 $;EQDQ01+000000PRSWM2N01 00000JPWTH 0QNNAA1D0 06075BA1 0 06075GA1 0 00075KA1D0 00015JA1 0-00094LA1 0 01000CA1 0 03048NA1 0 00000QA1 0 10321SA1D0 00037RA1 0 00028YA1 0 04004
0071722366999992000010921009+30350-089817NSRDB+000899999V020999999999999999999999999999+99999+99999999999ADDGP10060028202008011202015023102008GQ100600629921769GR100600645914159
0192722366999992000011008534+30350-089820FM-15+0008KASD V0202501N002112200019N0160931N1+01701+01701101201ADDAA103004391GF100991999999999999999999MA1101221999999MD1110191+9999MW1001REMMET089KASD 100853Z AUTO 25004KT 10SM CLR 17/17 A2989 RMK AO2 SLP120 60017 T01720167 51019 TSNO;EQDQ01+000000PRSWM2
0054722366999992000011209009+30350-089817NSRDB+000899999V020999999999999999999999999999+99999+99999999999ADDGP10060000002000000002000000002000GR100600000900009
0217722366999992000011310534+30350-089820FM-15+0008KASD V0209999C000010063019N0040231N1+01901+01901102231ADDGD13991+0063019GD24991+0180019GF108991999999999999999999MA1102241999999MW1101REMMET093KASD 131053Z AUTO 00000KT 2 1/2SM BR BKN021 OVC060 19/19 A3019 RMK AO2 SLP223 T01890189 TSNO;EQDQ01+000003PRSWM1Q02    003PRSWM1
0214722366999992000011411534+30350-089820FM-15+0008KASD V0200301N004612200019N0160931N1+00701-00601103711ADDGF100991999999999999999999KA1999M+01281KA2999N+00671MA1103731999999MD1310211+9999MW1001REMMET096KASD 141153Z AUTO 03009KT 10SM CLR 07/M06 A3063 RMK AO2 SLP371 T00671061 10128 20067 53021 TSNO;EQDQ01+000000PRSWM2
0173722366999992000012215534+30350-089820FM-15+0008KASD V0201401N003610270019N0160931N1+01701+01301101731ADDGD14991+0270019GF108991999999999999999999MA1101731999999MW1001REMMET080KASD 221553Z AUTO 14007KT 10SM OVC090 17/13 A3004 RMK AO2 SLP173 T01720128 TSNO;EQDQ01+000000PRSWM2
0071722366999992000012222009+30350-089817NSRDB+000899999V020999999999999999999999999999+99999+99999999999ADDGP10060011402008000002015011402008GQ100600693923029GR100600499914129
0217722366999992000012222534+30350-089820FM-15+0008KASD V0201801N004610180019N0160931N1+02101+01701101261ADDGD12991+0081019GD23991+0180019GD34991+0270019GF108991999999999999999999MA1101251999999MW1001REMMET094KASD 222253Z AUTO 18009KT 10SM FEW027 BKN065 OVC090 21/17 A2990 RMK AO2 SLP126 T02060167 TSNO;EQDQ01+000000PRSWM2
0203722366999992000012315534+30350-089820FM-15+0008KASD V0202701N00261000901CN0096561N1+01801+01801101411ADDGD14991+0015019GF108991999999999999999999MA1101421999999MW1101REMMET094KASD 231553Z AUTO 27005KT 6SM BR OVC005 18/18 A2995 RMK AO2 CIG 003V008 SLP141 T01830178 TSNO;EQDQ01+000003PRSWM1Q02    003PRSWM1
0184722366999992000012413534+30350-089820FM-15+0008KASD V0203501N005110048019N0160931N1+00501+00201101941ADDGD14991+0048019GF108991999999999999999999MA1101961999999MW1001OC101081REMMET083KASD 241353Z AUTO 35010G21KT 10SM OVC016 05/02 A3011 RMK AO2 SLP194 T00500022 TSNO;EQDQ01+000000PRSWM2
0071722366999992000012421009+30350-089817NSRDB+000899999V020999999999999999999999999999+99999+99999999999ADDGP10060043002008047202015019202008GQ100600598921839GR100600709914129
0275722366999992000013008534+30350-089820FM-15+0008KASD V0203401N002610180019N0160931N1+00401+00201102521ADDAA101000021AA203000021GD12991+0060019GD24991+0180019GF108991999999999999999999MA1102541999999MD1810011+9999MW1611REMMET115KASD 300853Z AUTO 34005KT 10SM -RA SCT020 OVC065 04/02 A3028 RMK AO2 RAB22 SLP252 P0000 60000 T00440022 58001 TSNO;EQDQ01+000003PRSWM1Q02    003PRSWM1
0071722366999992000013116009+30350-089817NSRDB+000899999V020999999999999999999999999999+99999+99999999999ADDGP10060046702008080702015008502008GQ100600618913539GR100600665914099
0163722366999992000020112534+30350-089820FM-15+0008KASD V0209999C000012200019N0160931N1+00201-00101102521ADDGF100991999999999999999999MA1102541999999MW1001REMMET085KASD 011253Z AUTO 00000KT 10SM CLR 02/M01 A3028 RMK AO2 SLP252 T00221006 FZRANO TSNO;EQDQ01+000000PRSWM2
0054722366999992000020603009+30350-089817NSRDB+000899999V020999999999999999999999999999+99999+99999999999ADDGP10060000002000000002000000002000GR100600000900009
0071722366999992000020819009+30350-089817NSRDB+000899999V020999999999999999999999999999+99999+99999999999ADDGP10060053802008027602015034502008GQ100600457918569GR100600981914069
0163722366999992000021519534+30350-089820FM-15+0008KASD V0201501N003612200019N0160931N1+02201+01601102011ADDGF100991999999999999999999MA1102031999999MW1001REMMET085KASD 151953Z AUTO 15007KT 110V180 10SM CLR 22/16 A3013 RMK AO2 SLP201 T02220156 TSNO;EQDQ01+000000PRSWM2
0071722366999992000021614009+30350-089817NSRDB+000899999V020999999999999999999999999999+99999+99999999999ADDGP10060005402008000002015005402008GQ100600803911079GR100600236914019
0071722366999992000021622009+30350-089817NSRDB+000899999V020999999999999999999999999999+99999+99999999999ADDGP10060041702008075302015008302008GQ100600637923549GR100600620914019
0286722366999992000021811534+30350-089820FM-15+0008KASD V0201501N00411002101CN0160931N1+02101+01901999999ADDGD13991+0027019GD23991+0045019GD34991+0087019GF108991999999999999999999KA1999M+02111KA2999N+02061MA1101831999999MD1310031+9999MW1001REMMET123KASD 181153Z AUTO 15008KT 10SM BKN009 BKN015 OVC029 21/19 A3007 RMK AO2 CIG 007V011 SLP13 T02110194 10211 20206 53003 TSNO;EQDQ01+000000PRSWM2
0054722366999992000021906009+30350-089817NSRDB+000899999V020999999999999999999999999999+99999+99999999999ADDGP10060000002000000002000000002000GR100600000900009
0200722366999992000022322214+30350-089820FM-15+0008KASD V0201401N005110144019N0160931N1+02101+01701999999ADDGD12991+0051019GD23991+0144019GD34991+0210019GF108991999999999999999999MA1102241999999MW1001REMMET077KASD 232221Z AUTO 14010KT 10SM SCT017 BKN048 OVC070 21/17 A3019 RMK AO2 TSNO;EQDQ01+000000PRSWM2
0054722366999992000022510009+30350-089817NSRDB+000899999V020999999999999999999999999999+99999+99999999999ADDGP10060000002000000002000000002000GR100600000900009
0173722366999992000022512534+30350-089820FM-15+0008KASD V0209999C000012200019N0064371N1+01201+01201102051ADDGF100991999999999999999999MA1102071999999MW1101REMMET079KASD 251253Z AUTO 00000KT 4SM BR CLR 12/12 A3014 RMK AO2 SLP205 T01220117 TSNO;EQDQ01+000003PRSWM1Q02    003PRSWM1
0071722366999992000022615009+30350-089817NSRDB+000899999V020999999999999999999999999999+99999+99999999999ADDGP10060033402008038902015017602008GQ100600661911719GR100600563913959
0071722366999992000030322009+30350-089817NSRDB+000899999V020999999999999999999999999999+99999+99999999999ADDGP10060018902008001202015018302008GQ100600602924089GR100600690913919
0054722366999992000030508009+30350-089817NSRDB+000899999V020999999999999999999999999999+99999+99999999999ADDGP10060000002000000002000000002000GR100600000900009
0191722366999992000031006534+30350-089820FM-15+0008KASD V0209999C000012200019N0064371N1+02001+01901101691ADDGD12991+0021019GF104991999999999999999999MA1101691999999MW1101REMMET082KASD 100653Z AUTO 00000KT 4SM BR SCT007 20/19 A3003 RMK AO2 SLP169 T02000194 TSNO;EQDQ01+000003PRSWM1Q02    003PRSWM1
0071722366999992000031015009+30350-089817NSRDB+000899999V020999999999999999999999999999+99999+99999999999ADDGP10060022202008002502015021002008GQ100600625911329GR100600639913869
0071722366999992000031018009+30350-089817NSRDB+000899999V020999999999999999999999999999+99999+99999999999ADDGP10060051902008015002015039602008GQ100600356916319GR100601126913869
0071722366999992000031119009+30350-089817NSRDB+000899999V020999999999999999999999999999+99999+99999999999ADDGP10060083002008074902015020902008GQ100600343918929GR100601144913859
0071722366999992000031520009+30350-089817NSRDB+000899999V020999999999999999999999999999+99999+99999999999ADDGP10060012802008000002015012802008GQ100600378921479GR100601092913829
0155722366999992000032009534+30350-089820FM-15+0008KASD V0209999C000012200019N0160931N1+00501+00401101531ADDGF100991999999999999999999MA1101521999999MW1001REMMET077KASD 200953Z AUTO 00000KT 10SM CLR 05/04 A2998 RMK AO2 SLP153 T00500039 TSNO;EQDQ01+000000PRSWM2
0054722366999992000032202009+30350-089817NSRDB+000899999V020999999999999999999999999999+99999+99999999999ADDGP10060000002000000002000000002000GR100600000900009
0166722366999992000032318534+30350-089820FM-15+0008KASD V0201201N006212200019N0160931N1+02601+01201101991ADDGF100991999999999999999999MA1102001999999MW1001OC100871REMMET080KASD 231853Z AUTO 12012G17KT 10SM CLR 26/12 A3012 RMK AO2 SLP199 T02560122 TSNO;EQDQ01+000000PRSWM2
0173722366999992000032621534+30350-089820FM-15+0008KASD V0202701N003612200019N0160931N1+02501+01601101081ADDGD12991+0129019GF102991999999999999999999MA1101081999999MW1001REMMET080KASD 262153Z AUTO 27007KT 10SM FEW043 25/16 A2985 RMK AO2 SLP108 T02500156 TSNO;EQDQ01+000000PRSWM2
0071722366999992000032722009+30350-089817NSRDB+000899999V020999999999999999999999999999+99999+99999999999ADDGP10060053002008077102015009502008GQ100600557925089GR100600772913729
0155722366999992000033119534+30350-089820FM-15+0008KASD V0200401N003612200019N0160931N1+02601+01201101571ADDGF100991999999999999999999MA1101591999999MW1001REMMET077KASD 311953Z AUTO 04007KT 10SM CLR 26/12 A3000 RMK AO2 SLP157 T02610122 TSNO;EQDQ01+000000PRSWM2
0206722366999992000040303534+30350-089820FM-15+0008KASD V0201701N00261002401CN0128741N1+02401+02201101521ADDGD13991+0030019GD24991+0051019GF108991999999999999999999MA1101521999999MW1001REMMET098KASD 030353Z AUTO 17005KT 8SM BKN010 OVC017 24/22 A2998 RMK AO2 CIG 008V013 SLP152 T02390222 TSNO;EQDQ01+000000PRSWM2
0236722366999992000040320534+30350-089820FM-15+0008KASD V0209999V003110150019N0160931N1+01701+01601101321ADDAA101000891AA203004191GD14991+0150019GF108991999999999999999999MA1101321999999MD1310101+9999MW1001REMMET107KASD 032053Z AUTO VRB06KT 10SM OVC055 17/16 A2992 RMK AO2 RAB06E48 SLP132 P0003 60016 T01670156 53010 TSNO;EQDQ01+000000PRSWM2
0054722366999992000040609009+30350-089817NSRDB+000899999V020999999999999999999999999999+99999+99999999999ADDGP10060000002000000002000000002000GR100600000900009
0071722366999992000040618009+30350-089817NSRDB+000899999V020999999999999999999999999999+99999+99999999999ADDGP10060067402008029502015040702008GQ100600250916149GR100601236913649
0155722366999992000040704534+30350-089820FM-15+0008KASD V0201701N004112200019N0160931N1+01801+01601101641ADDGF100991999999999999999999MA1101661999999MW1001REMMET077KASD 070453Z AUTO 17008KT 10SM CLR 18/16 A3002 RMK AO2 SLP164 T01830161 TSNO;EQDQ01+000000PRSWM2
0155722366999992000040801534+30350-089820FM-15+0008KASD V0201801N004612200019N0160931N1+02101+01701101301ADDGF100991999999999999999999MA1101321999999MW1001REMMET077KASD 080153Z AUTO 18009KT 10SM CLR 21/17 A2992 RMK AO2 SLP130 T02110167 TSNO;EQDQ01+000000PRSWM2
0253722366999992000041117534+30350-089820FM-15+0008KASD V0201401N006710099019N0160931N1+02501+01701102171ADDGD13991+0099019GD23991+0129019GF107991999999999999999999KA1999M+02561KA2999N+01501MA1102171999999MD1010011+9999MW1001REMMET105KASD 111753Z AUTO 14013KT 10SM BKN033 BKN043 25/17 A3017 RMK AO2 SLP217 T02500167 10256 20150 50001 TSNO;EQDQ01+000000PRSWM2
0194722366999992000041204534+30350-089820FM-15+0008KASD V0209999C000010180019N0112651N1+02001+01901102121ADDGD12991+0105019GD24991+0180019GF108991999999999999999999MA1102131999999MW1001REMMET086KASD 120453Z AUTO 00000KT 7SM FEW035 OVC060 20/19 A3016 RMK AO2 SLP212 T02000189 TSNO;EQDQ01+000000PRSWM2
0071722366999992000041319009+30350-089817NSRDB+000899999V020999999999999999999999999999+99999+99999999999ADDGP10060044702008006002015039102008GQ100600225919979GR100601255913599
0071722366999992000041323009+30350-089817NSRDB+000899999V020999999999999999999999999999+99999+99999999999ADDGP10060018002008004602015016102008GQ100600659926699GR100600553913599
0071722366999992000041522009+30350-089817NSRDB+000899999V020999999999999999999999999999+99999+99999999999ADDGP10060024802008001802015023702008GQ100600529925919GR100600817913579
0054722366999992000041709009+30350-089817NSRDB+000899999V020999999999999999999999999999+99999+99999999999ADDGP10060000002000000002000000002000GR100600000900009
0071722366999992000041716009+30350-089817NSRDB+000899999V020999999999999999999999999999+99999+99999999999ADDGP10060073702008073302015017202008GQ100600397911189GR100601041913559
0186722366999992000041920534+30350-089820FM-15+0008KASD V0201701N007712200019N0160931N1+02801+01801101521ADDGF100991999999999999999999MA1101521999999MD1810091+9999MW1001OC100931REMMET086KASD 192053Z AUTO 17015G18KT 10SM CLR 28/18 A2998 RMK AO2 SLP152 T02830178 58009 TSNO;EQDQ01+000000PRSWM2
0071722366999992000042000009+30350-089817NSRDB+000899999V020999999999999999999999999999+99999+99999999999ADDGP10060013502008039002015005502008GQ100600781927669GR100600279913549
0155722366999992000042303534+30350-089820FM-15+0008KASD V0201901N003112200019N0160931N1+01801+01301101121ADDGF100991999999999999999999MA1101121999999MW1001REMMET077KASD 230353Z AUTO 19006KT 10SM CLR 18/13 A2986 RMK AO2 SLP112 T01830133 TSNO;EQDQ01+000000PRSWM2
0071722366999992000042323009+30350-089817NSRDB+000899999V020999999999999999999999999999+99999+99999999999ADDGP10060032602008038802015016102008GQ100600648927059GR100600575913519
0155722366999992000042716534+30350-089820FM-15+0008KASD V0202601N003612200019N0160931N1+02601+01201101771ADDGF100991999999999999999999MA1101761999999MW1001REMMET077KASD 271653Z AUTO 26007KT 10SM CLR 26/12 A3005 RMK AO2 SLP177 T02610122 TSNO;EQDQ01+000000PRSWM2
0054722366999992000042810009+30350-089817NSRDB+000899999V020999999999999999999999999999+99999+99999999999ADDGP10060000002000000002000000002000GR100600000900009
0175722366999992000042820534+30350-089820FM-15+0008KASD V0202601N004112200019N0160931N1+02801+01001101221ADDGF100991999999999999999999MA1101221999999MD1610171+9999MW1001REMMET083KASD 282053Z AUTO 26008KT 10SM CLR 28/10 A2989 RMK AO2 SLP122 T02780100 56017 TSNO;EQDQ01+000000PRSWM2
0054722366999992000043008009+30350-089817NSRDB+000899999V020999999999999999999999999999+99999+99999999999ADDGP10060000002000000002000000002000GR100600000900009
0155722366999992000050712534+30350-089820FM-15+0008KASD V0209999C000012200019N0160931N1+02201+01901102001ADDGF100991999999999999999999MA1102001999999MW1001REMMET077KASD 071253Z AUTO 00000KT 10SM CLR 22/19 A3012 RMK AO2 SLP200 T02170194 TSNO;EQDQ01+000000PRSWM2
0275722366999992000050923534+30350-089820FM-15+0008KASD V0201701N006710108019N0160931N1+02801+01901101191ADDGD13991+0108019GD23991+0141019GD33991+0180019GF107991999999999999999999KA1999M+03061KA2999N+02781MA1101191999999MD1610091+9999MW1001REMMET112KASD 092353Z AUTO 17013KT 10SM BKN036 BKN047 BKN060 28/19 A2988 RMK AO2 SLP119 T02780194 10306 20278 56009 TSNO;EQDQ01+000000PRSWM2
0213722366999992000051023534+30350-089820FM-15+0008KASD V0201801N003112200019N0160931N1+03001+02101101291ADDGF100991999999999999999999KA1999M+03171KA2999N+02891MA1101291999999MD1510071+9999MW1001REMMET095KASD 102353Z AUTO 18006KT 10SM CLR 30/21 A2991 RMK AO2 SLP129 T03000206 10317 20289 55007 TSNO;EQDQ01+000000PRSWM2
0190722366999992000051221534+30350-089820FM-15+0008KASD V0201901N005712200019N0160931N1+03101+02201101231ADDGD12991+0129019GD22991+0180019GF104991999999999999999999MA1101251999999MW1001REMMET082KASD 122153Z AUTO 19011KT 10SM FEW043 SCT065 31/22 A2990 RMK AO2 SLP123 T03060217;EQDQ01+000000PRSWM2
0071722366999992000051223009+30350-089817NSRDB+000899999V020999999999999999999999999999+99999+99999999999ADDGP10060036202008045902015015202008GQ100600627927639GR100600613913389
0071722366999992000051415009+30350-089817NSRDB+000899999V020999999999999999999999999999+99999+99999999999ADDGP10060061902008070702015014302008GQ100600477909179GR100600897913379
0237722366999992000051723534+30350-089820FM-15+0008KASD V0201401N006712200019N0160931N1+02701+01901101591ADDGD12991+0099019GF104991999999999999999999KA1999M+03001KA2999N+02721MA1101591999999MD1610041+9999MW1001OC100871REMMET096KASD 172353Z AUTO 14013G17KT 10SM SCT033 27/19 A3000 RMK AO2 SLP159 T02720194 10300 20272 56004;EQDQ01+000000PRSWM2
0054722366999992000052106009+30350-089817NSRDB+000899999V020999999999999999999999999999+99999+99999999999ADDGP10060000002000000002000000002000GR100600000900009
0071722366999992000052213009+30350-089817NSRDB+000899999V020999999999999999999999999999+99999+99999999999ADDGP10060022302008040002015010402008GQ100600727907599GR100600396913329
0258722366999992000052705534+30350-089820FM-15+0008KASD V0201801N004612200019N0160931N1+02701+02301101421ADDGD12991+0060019GD22991+0078019GF104991999999999999999999KA1999M+03001KA2999N+02671MA1101421999999MD1110091+9999MW1001REMMET110KASD 270553Z AUTO 18009KT 10SM FEW020 SCT026 27/23 A2995 RMK AO2 SLP142 T02720233 10300 20267 403280256 51009;EQDQ01+000000PRSWM2
0054722366999992000052807009+30350-089817NSRDB+000899999V020999999999999999999999999999+99999+99999999999ADDGP10060000002000000002000000002000GR100600000900009
0071722366999992000053018009+30350-089817NSRDB+000899999V020999999999999999999999999999+99999+99999999999ADDGP10060086602008054102015033402008GQ100600109914649GR100601304913299
0054722366999992000060109009+30350-089817NSRDB+000899999V020999999999999999999999999999+99999+99999999999ADDGP10060000002000000002000000002000GR100600000900009
0150722366999992000060222534+30350-089820FM-15+0008KASD V0201401N003112200019N0160931N1+03201+01901101791ADDGF100991999999999999999999MA1101801999999MW1001REMMET072KASD 022253Z AUTO 14006KT 10SM CLR 32/19 A3006 RMK AO2 SLP179 T03220189;EQDQ01+000000PRSWM2
0150722366999992000060303534+30350-089820FM-15+0008KASD V0209999C000012200019N0160931N1+02501+02201102011ADDGF100991999999999999999999MA1102031999999MW1001REMMET072KASD 030353Z AUTO 00000KT 10SM CLR 25/22 A3013 RMK AO2 SLP201 T02500222;EQDQ01+000000PRSWM2
0071722366999992000060311009+30350-089817NSRDB+000899999V020999999999999999999999999999+99999+99999999999ADDGP10060000002008000002015000002008GQ100600899906359GR100600000900339
0054722366999992000060707009+30350-089817NSRDB+000899999V020999999999999999999999999999+99999+99999999999ADDGP10060000002000000002000000002000GR100600000900009
0150722366999992000060813534+30350-089820FM-15+0008KASD V0209999V002612200019N0160931N1+02401+01701101931ADDGF100991999999999999999999MA1101931999999MW1001REMMET072KASD 081353Z AUTO VRB05KT 10SM CLR 24/17 A3010 RMK AO2 SLP193 T02440172;EQDQ01+000000PRSWM2
0054722366999992000060904009+30350-089817NSRDB+000899999V020999999999999999999999999999+99999+99999999999ADDGP10060000002000000002000000002000GR100600000900009
0161722366999992000061021534+30350-089820FM-15+0008KASD V0201501N006712200019N0160931N1+03101+01701101821ADDGF100991999999999999999999MA1101831999999MW1001OC100931REMMET075KASD 102153Z AUTO 15013G18KT 10SM CLR 31/17 A3007 RMK AO2 SLP182 T03060172;EQDQ01+000000PRSWM2
0168722366999992000061115534+30350-089820FM-15+0008KASD V0201501N004610114019N0160931N1+02901+02001102081ADDGD13991+0114019GF107991999999999999999999MA1102101999999MW1001REMMET075KASD 111553Z AUTO 15009KT 10SM BKN038 29/20 A3015 RMK AO2 SLP208 T02890200;EQDQ01+000000PRSWM2
0054722366999992000061203009+30350-089817NSRDB+000899999V020999999999999999999999999999+99999+99999999999ADDGP10060000002000000002000000002000GR100600000900009
0071722366999992000061716009+30350-089817NSRDB+000899999V020999999999999999999999999999+99999+99999999999ADDGP10060065502008039302015032902008GQ100600341909279GR100601094913239
0150722366999992000061800534+30340-089810FM-15+0008KASD V0201101N002612200019N0160931N1+02701+02401101831ADDGF100991999999999999999999MA1101831999999MW1001REMMET072KASD 180053Z AUTO 11005KT 10SM CLR 27/24 A3007 RMK AO2 SLP183 T02720239;EQDQ01+000000PRSWM2
0170722366999992000061802534+30340-089810FM-15+0008KASD V0209999C000012200019N0160931N1+02501+02401101991ADDGF100991999999999999999999MA1102001999999MD1310181+9999MW1001REMMET078KASD 180253Z AUTO 00000KT 10SM CLR 25/24 A3012 RMK AO2 SLP199 T02500239 53018;EQDQ01+000000PRSWM2
0071722366999992000062301009+30350-089817NSRDB+000899999V020999999999999999999999999999+99999+99999999999ADDGP10060004402008013102015003002008GQ100600839929389GR100600140913229
0054722366999992000062308009+30350-089817NSRDB+000899999V020999999999999999999999999999+99999+99999999999ADDGP10060000002000000002000000002000GR100600000900009
0071722366999992000062316009+30350-089817NSRDB+000899999V020999999999999999999999999999+99999+99999999999ADDGP10060072502008058702015024002008GQ100600343909259GR100601089913229
0210722366999992000062518534+30340-089810FM-15+0008KASD V0209999V001510180019N0160931N1+03201+02201101631ADDGD12991+0135019GD23991+0180019GF107991999999999999999999MA1101631999999MW1001REMMET102KASD 251853Z AUTO VRB03KT 10SM FEW045 BKN060 32/22 A3001 RMK AO2 LTG DSNT S AND SW SLP163 T03170217 $;EQDQ01+000000PRSWM2
0172722366999992000062608534+30340-089810FM-15+0008KASD V0201601N003112200019N0160931N1+02401+02201101561ADDGF100991999999999999999999MA1101561999999MD1810111+9999MW1001REMMET080KASD 260853Z AUTO 16006KT 10SM CLR 24/22 A2999 RMK AO2 SLP156 T02390217 58011 $;EQDQ01+000000PRSWM2
0071722366999992000070119009+30350-089817NSRDB+000899999V020999999999999999999999999999+99999+99999999999ADDGP10060090102008065902015025102008GQ100600099921669GR100601301913219
0054722366999992000070908009+30350-089817NSRDB+000899999V020999999999999999999999999999+99999+99999999999ADDGP10060000002000000002000000002000GR100600000900009
0150722366999992000070916534+30340-089810FM-15+0008KASD V0203001N002112200019N0160931N1+03201+02301101811ADDGF100991999999999999999999MA1101831999999MW1001REMMET072KASD 091653Z AUTO 30004KT 10SM CLR 32/23 A3007 RMK AO2 SLP181 T03220233;EQDQ01+000000PRSWM2
0168722366999992000071010534+30340-089810FM-15+0008KASD V0209999C000012200019N0096561N1+02301+02201101751ADDGF100991999999999999999999MA1101761999999MW1101REMMET074KASD 101053Z AUTO 00000KT 6SM BR CLR 23/22 A3005 RMK AO2 SLP175 T02330222;EQDQ01+000003PRSWM1Q02    003PRSWM1
0054722366999992000071110009+30350-089817NSRDB+000899999V020999999999999999999999999999+99999+99999999999ADDGP10060000002000000002000000002000GR100600000900009
0150722366999992000071310534+30340-089810FM-15+0008KASD V0202901N002112200019N0160931N1+02601+02201101601ADDGF100991999999999999999999MA1101591999999MW1001REMMET072KASD 131053Z AUTO 29004KT 10SM CLR 26/22 A3000 RMK AO2 SLP160 T02560217;EQDQ01+000000PRSWM2
0054722366999992000071809009+30350-089817NSRDB+000899999V020999999999999999999999999999+99999+99999999999ADDGP10060000002000000002000000002000GR100600000900009
0054722366999992000072108009+30350-089817NSRDB+000899999V020999999999999999999999999999+99999+99999999999ADDGP10060000002000000002000000002000GR100600000900009
0054722366999992000072407009+30350-089817NSRDB+000899999V020999999999999999999999999999+99999+99999999999ADDGP10060000002000000002000000002000GR100600000900009
0054722366999992000072507009+30350-089817NSRDB+000899999V020999999999999999999999999999+99999+99999999999ADDGP10060000002000000002000000002000GR100600000900009
0054722366999992000072803009+30350-089817NSRDB+000899999V020999999999999999999999999999+99999+99999999999ADDGP10060000002000000002000000002000GR100600000900009
0071722366999992000072916009+30350-089817NSRDB+000899999V020999999999999999999999999999+99999+99999999999ADDGP10060067802008050902015027202008GQ100600371909959GR100601054913259
0071722366999992000072918009+30350-089817NSRDB+000899999V020999999999999999999999999999+99999+99999999999ADDGP10060092302008074502015020102008GQ100600147914549GR100601281913259
0054722366999992000080306009+30350-089817NSRDB+000899999V020999999999999999999999999999+99999+99999999999ADDGP10060000002000000002000000002000GR100600000900009
0071722366999992000081712009+30350-089817NSRDB+000899999V020999999999999999999999999999+99999+99999999999ADDGP10060000002008002002015000002008GQ100600871907629GR100600036907009
0071722366999992000081812009+30350-089817NSRDB+000899999V020999999999999999999999999999+99999+99999999999ADDGP10060000002008001102015000002008GQ100600871907669GR100600034906789
0071722366999992000081918009+30350-089817NSRDB+000899999V020999999999999999999999999999+99999+99999999999ADDGP10060088102008070302015021702008GQ100600197915619GR100601256913349
0054722366999992000082402009+30350-089817NSRDB+000899999V020999999999999999999999999999+99999+99999999999ADDGP10060000002000000002000000002000GR100600000900009
0054722366999992000082703009+30350-089817NSRDB+000899999V020999999999999999999999999999+99999+99999999999ADDGP10060000002000000002000000002000GR100600000900009
0054722366999992000082903009+30350-089817NSRDB+000899999V020999999999999999999999999999+99999+99999999999ADDGP10060000002000000002000000002000GR100600000900009
0054722366999992000083004009+30350-089817NSRDB+000899999V020999999999999999999999999999+99999+99999999999ADDGP10060000002000000002000000002000GR100600000900009
0054722366999992000083007009+30350-089817NSRDB+000899999V020999999999999999999999999999+99999+99999999999ADDGP10060000002000000002000000002000GR100600000900009
0054722366999992000083105009+30350-089817NSRDB+000899999V020999999999999999999999999999+99999+99999999999ADDGP10060000002000000002000000002000GR100600000900009
0071722366999992000090520009+30350-089817NSRDB+000899999V020999999999999999999999999999+99999+99999999999ADDGP10060036202008004802015032102008GQ100600324922649GR100601135913459
0071722366999992000091316009+30350-089817NSRDB+000899999V020999999999999999999999999999+99999+99999999999ADDGP10060056102008034002015031402008GQ100600435912129GR100600978913519
0071722366999992000092715009+30350-089817NSRDB+000899999V020999999999999999999999999999+99999+99999999999ADDGP10060043602008051702015015802008GQ100600575911499GR100600730913619
0071722366999992000092820009+30350-089817NSRDB+000899999V020999999999999999999999999999+99999+99999999999ADDGP10060071802008075102015014702008GQ100600407922049GR100601032913629
0054722366999992000100701009+30350-089817NSRDB+000899999V020999999999999999999999999999+99999+99999999999ADDGP10060000002000000002000000002000GR100600000900009
0071722366999992000101420009+30350-089817NSRDB+000899999V020999999999999999999999999999+99999+99999999999ADDGP10060067402008081002015011402008GQ100600464921709GR100600948913759
0054722366999992000102005009+30350-089817NSRDB+000899999V020999999999999999999999999999+99999+99999999999ADDGP10060000002000000002000000002000GR100600000900009
0054722366999992000102103009+30350-089817NSRDB+000899999V020999999999999999999999999999+99999+99999999999ADDGP10060000002000000002000000002000GR100600000900009
0071722366999992000102200009+30350-089817NSRDB+000899999V020999999999999999999999999999+99999+99999999999ADDGP10060000002008000002015000002008GQ100600881925629GR100600015904729
0054722366999992000102203009+30350-089817NSRDB+000899999V020999999999999999999999999999+99999+99999999999ADDGP10060000002000000002000000002000GR100600000900009
0071722366999992000102522009+30350-089817NSRDB+000899999V020999999999999999999999999999+99999+99999999999ADDGP10060029002008059702015007902008GQ100600693924079GR100600489913849
0071722366999992000110220009+30350-089817NSRDB+000899999V020999999999999999999999999999+99999+99999999999ADDGP10060009702008000002015009702008GQ100600523921339GR100600849913909
0168722366999992000110810534+30340-089810FM-15+0008KASD V0201401N004112200019N0160931N1+02301+02201100911ADDGD12991+0063019GF102991999999999999999999MA1100911999999MW1001REMMET075KASD 081053Z AUTO 14008KT 10SM FEW021 23/22 A2980 RMK AO2 SLP091 T02330217;EQDQ01+000000PRSWM2
0071722366999992000111320009+30350-089817NSRDB+000899999V020999999999999999999999999999+99999+99999999999ADDGP10060040602008027302015024902008GQ100600550921129GR100600801913979
0071722366999992000111418009+30350-089817NSRDB+000899999V020999999999999999999999999999+99999+99999999999ADDGP10060066602008083602015011702008GQ100600491917579GR100600916913989
0071722366999992000111520009+30350-089817NSRDB+000899999V020999999999999999999999999999+99999+99999999999ADDGP10060047402008044502015022102008GQ100600554921089GR100600794913999
0054722366999992000111603009+30350-089817NSRDB+000899999V020999999999999999999999999999+99999+99999999999ADDGP10060000002000000002000000002000GR100600000900009
0226722366999992000111923534+30340-089810FM-15+0008KASD V0203401N003110069019N0160931N1+01001+00701102341ADDGD14991+0069019GF108991999999999999999999KA1999M+01221KA2999N+00781MA1102341999999MD1310221+9999MW1001REMMET093KASD 192353Z AUTO 34006KT 10SM OVC023 10/07 A3022 RMK AO2 SLP234 T01000067 10122 20078 53022;EQDQ01+000000PRSWM2
0150722366999992000112222534+30340-089810FM-15+0008KASD V0201301N002112200019N0160931N1+01001+00201102761ADDGF100991999999999999999999MA1102781999999MW1001REMMET072KASD 222253Z AUTO 13004KT 10SM CLR 10/02 A3035 RMK AO2 SLP276 T01000017;EQDQ01+000000PRSWM2
0054722366999992000120209009+30350-089817NSRDB+000899999V020999999999999999999999999999+99999+99999999999ADDGP10060000002000000002000000002000GR100600000900009
0179722366999992000120212534+30340-089810FM-15+0008KASD V0203601N00361002401CN0112651N1+01101+00901102431ADDGD14991+0030019GF108991999999999999999999MA1102441999999MW1001REMMET086KASD 021253Z AUTO 36007KT 7SM OVC010 11/09 A3025 RMK AO2 CIG 008V013 SLP243 T01060094;EQDQ01+000000PRSWM2
0157722366999992000120606534+30340-089810FM-15+0008KASD V0209999C000012200019N0128741N1+00101-00101102341ADDGF100991999999999999999999MA1102341999999MW1001REMMET079KASD 060653Z AUTO 00000KT 8SM CLR 01/M01 A3022 RMK AO2 SLP234 T00061006 FZRANO;EQDQ01+000000PRSWM2
0054722366999992000120608009+30350-089817NSRDB+000899999V020999999999999999999999999999+99999+99999999999ADDGP10060000002000000002000000002000GR100600000900009
0054722366999992000120708009+30350-089817NSRDB+000899999V020999999999999999999999999999+99999+99999999999ADDGP10060000002000000002000000002000GR100600000900009
0054722366999992000120805009+30350-089817NSRDB+000899999V020999999999999999999999999999+99999+99999999999ADDGP10060000002000000002000000002000GR100600000900009
0167722366999992000120910534+30340-089810FM-15+0008KASD V0203401N001510051019N0112651N1+01201+01001101921ADDGD14991+0051019GF108991999999999999999999MA1101931999999MW1001REMMET074KASD 091053Z AUTO 34003KT 7SM OVC017 12/10 A3010 RMK AO2 SLP192 T01170100;EQDQ01+000000PRSWM2
0054722366999992000121004009+30350-089817NSRDB+000899999V020999999999999999999999999999+99999+99999999999ADDGP10060000002000000002000000002000GR100600000900009
0164722366999992000121318464+30340-089810FM-15+0008KASD V0201501N005110036019N0160931N1+02101+01801999999ADDGD14991+0036019GF108991999999999999999999MA1101661999999MW1001OC100821REMMET063KASD 131846Z AUTO 15010G16KT 10SM OVC012 21/18 A3002 RMK AO2 $;EQDQ01+000000PRSWM2
0280722366999992000121611534+30340-089810FM-15+0008KASD V0201901N004610006019N0096561N1+02001+01901101481ADDAA106000391AA224000391GD14991+0006019GF108991999999999999999999KA1999M+02001KA2999N+01501MA1101491999999MD1610031+9999MW1101REMMET109KASD 161153Z AUTO 19009KT 6SM BR OVC002 20/19 A2997 RMK AO2 SLP148 60001 70001 T02000189 10200 20150 56003 $;EQDQ01+000003PRSWM1Q02    003PRSWM1
0071722366999992000121623009+30350-089817NSRDB+000899999V020999999999999999999999999999+99999+99999999999ADDGP10060004502008029802015001802008GQ100600848923919GR100600128914019
0071722366999992000121823009+30350-089817NSRDB+000899999V020999999999999999999999999999+99999+99999999999ADDGP10060004002008018002015002302008GQ100600847923899GR100600131914139
0054722366999992000121909009+30350-089817NSRDB+000899999V020999999999999999999999999999+99999+99999999999ADDGP10060000002000000002000000002000GR100600000900009
0159722366999992000122301534+30340-089810FM-15+0008KASD V0209999C000012200019N0160931N1-00101-00401103011ADDGF100991999999999999999999MA1103011999999MW1001REMMET081KASD 230153Z AUTO 00000KT 10SM CLR M01/M04 A3042 RMK AO2 SLP301 T10061039 FZRANO;EQDQ01+000000PRSWM2
0054722366999992000122412009+30350-089817NSRDB+000899999V020999999999999999999999999999+99999+99999999999ADDGP10060000002000000002000000002000GR100600000900009
0071722366999992000122417009+30350-089817NSRDB+000899999V020999999999999999999999999999+99999+99999999999ADDGP10060011402008000002015011402008GQ100600580915589GR100600750914149
0071722366999992000123117009+30350-089817NSRDB+000899999V020999999999999999999999999999+99999+99999999999ADDGP10060053202008082002015009502008GQ100600579915489GR100600751914159
0151722366999992000123119534+30340-089810FM-15+0008KASD V0209999V002112200019N0160931N1+00601-00701102731ADDGF100991999999999999999999MA1102741999999MW1001REMMET073KASD 311953Z AUTO VRB04KT 10SM CLR 06/M07 A3034 RMK AO2 SLP273 T00561072;EQDQ01+000000PRSWM2
0196722390999992000010122003+31050-093200FM-15+0100KPOE V0201601N005712200019N0112651N1+02401+00901101651ADDGF100991999999999999999999GP10060028302008068902015006102008GQ100600713922669GR100600454914159MA1101661999999MW1001OC100821REMMET061KPOE 012155Z 16011G16KT 7SM SKC 24/09 A3002 RMK SLP165 RCRNR;
0228722390999992000010201003+31050-093200FM-15+0100KPOE V0201701N004612200019N0112651N1+01901+01501101721ADDGD12991+0093019GF102991999999999999999999GP10060000002000000002000000002000GR100600000900009MA1101731999999MW1001OC100671REMMET076KPOE 020055Z 17009G13KT 7SM FEW031 19/15 A3004 RMK SLP172 8/500 9/200 RCRNR;EQDQ01+000000PRSWM2
0218722390999992000010702003+31050-093200FM-15+0100KPOE V02099999999990123019N0112651N1+01201+00601102761ADDGD14991+0123019GF108991999999999999999999GP10060000002000000002000000002000GR100600000900009MA1102781999999MW1001REMMET074KPOE 070155Z VRB03KT 7SM OVC041 12/06 A3035 RMK PRESRR SLP276 8/5// 9/8//;EQDQ01+000000PRSWM2
0211722390999992000010710003+31050-093200FM-15+0100KPOE V0200701N003610180019N0112651N1+01001+00301102821ADDGD13991+0180019GF107991999999999999999999GP10060000002000000002000000002000GR100600000900009MA1102841999999MW1001REMMET067KPOE 070955Z 07007KT 7SM BKN060 10/03 A3037 RMK SLP282 8/500 9/600;EQDQ01+000000PRSWM2
0168722390999992000010810494+31050-093200FM-16+0100KPOE V0203301N004110150019N0112651N1+01101+00401999999ADDGD13991+0150019GF107991999999999999999999MA1102341999999MW1611OC100571REMMET051KPOE 081049Z 33008G11KT 7SM -RA BKN055 11/04 A3022;EQDQ01+000003PRSWM1Q02    003PRSWM1
0239722390999992000010913003+31050-093200FM-15+0100KPOE V02099999999990360019N0112651N1+01001+00901101461ADDGD12991+0021019GD23991+0360019GF107991999999999999999999GP10060000002000000002000000002000GR100600000900009MA1101491999999MW1001REMMET080KPOE 091255Z VRB03KT 7SM FEW007 BKN120 10/09 A2997 RMK SLP146 8/670 9/250 RCRNR;EQDQ01+000000PRSWM2
0156722390999992000011303304+31050-093200FM-15+0100KPOE V0201901N003610039019N0112651N1+02101+02001999999ADDGD13991+0039019GF107991999999999999999999MA1101931999999MW1001OC100571REMMET055KPOE 130330Z 19007G11KT 160V240 7SM BKN013 21/20 A3010;EQDQ01+000000PRSWM2
0130722390999992000011610554+31050-093200FM-15+0100KPOE V0201601N003112200019N0112651N1+01201+01201102901ADDGF100991999999999999999999MA1102911999999MW1001REMMET052KPOE 161055Z 16006KT 7SM SKC 12/12 A3039 RMK SLP290;EQDQ01+000000PRSWM2
0175722390999992000011911414+31050-093200FM-16+0100KPOE V0209999999999000601CN0032181N1+01701+01701999999ADDGD14991+0012019GF108991999999999999999999MA1101631999999MW1101REMMET066KPOE 191141Z VRB05G11KT 2SM BR OVC004 17/17 A3001 RMK CIG 002V006;EQDQ01+000003PRSWM1Q02    003PRSWM1
0234722390999992000012204003+31050-093200FM-15+0100KPOE V0201401N003610150019N0112651N1+00901-00301101851ADDGD13991+0150019GD24991+0240019GF108991999999999999999999GP10060000002000000002000000002000GR100600000900009MA1101861999999MW1001REMMET075KPOE 220355Z 14007KT 7SM BKN050 OVC080 09/M03 A3008 RMK SLP185 8/57/ 9/53/;EQDQ01+000000PRSWM2
0171722390999992000012205364+31050-093200FM-16+0100KPOE V0201301N005110075019N0112651N1+01001+00001999999ADDGD13991+0075019GD23991+0120019GF107991999999999999999999MA1101691999999MW1001OC100721REMMET055KPOE 220536Z 13010G14KT 7SM BKN025 BKN040 10/M00 A3003;EQDQ01+000000PRSWM2
0280722390999992000020805003+31050-093200FM-15+0100KPOE V0203201N00051009001CN0004021N1+01101+01101102771ADDGD13991+0001519GD24991+0090019GF108991999999999999999999GP10060000002000000002000000002000GR100600000900009MA1102781999999MW1441REMMET105KPOE 080456Z 32001KT 1/4SM FG BKN000 OVC030 11/11 A3035 RMK TWR VIS 0 SLP277 FG BKN000 8/5// 9/8// RCRNR;EQDQ01+000003PRSWM1Q02    003PRSWM1
0248722390999992000020818003+31050-093200FM-15+0100KPOE V0201201N000512200019N0112651N1+01601+01001102801ADDGD12991+0030019GF102991999999999999999999GP10060066702008078402015014202008GQ100600482916159GR100600936914069MA1102811999999MD1810081+9999MW1001REMMET073KPOE 081755Z 12001KT 7SM FEW010 16/10 A3036 RMK SLP280 8/100 9/100 58008;EQDQ01+000000PRSWM2
0054722390999992000020906009+31050-093183NSRDB+010299999V020999999999999999999999999999+99999+99999999999ADDGP10060000002000000002000000002000GR100600000900009
0258722390999992000021111003+31050-093200FM-15+0100KPOE V02099999999990051019N0112651N1+01801+01701101181ADDGD12991+0033019GD23991+0051019GD34991+0075019GF108991999999999999999999GP10060000002000000002000000002000GR100600000900009MA1101221999999MW1001REMMET084KPOE 111056Z VRB05G12KT 7SM FEW011 BKN017 OVC025 18/17 A2989 RMK SLP118 8/500 9/700;EQDQ01+000000PRSWM2
0291722390999992000021322003+31050-093200FM-15+0100KPOE V0202001N004610090019N0112651N1+02001+01901100681ADDGD12991+0075019GD23991+0090019GD33991+0150019GF107991999999999999999999GP10060012502008000002015012502008GQ100600625923179GR100600647914039MA1100711999999MW1001OC100871REMMET092KPOE 132155Z 20009G17KT 170V240 7SM SCT025 BKN030 BKN050 20/19 A2974 RMK SLP068 8/500 9/700;EQDQ01+000000PRSWM2
0201722390999992000021509003+31050-093200FM-15+0100KPOE V0200901N002612200019N0112651N1+01201+00901101821ADDGF100991999999999999999999GP10060000002000000002000000002000GR100600000900009MA1101861999999MD1010011+9999MW1001REMMET058KPOE 150855Z 09005KT 7SM SKC 12/09 A3008 RMK SLP182 50001;EQDQ01+000000PRSWM2
0158722390999992000021715074+31050-093200FM-16+0100KPOE V0201501N004110006019N0008051N1+01901+01901999999ADDGD14991+0006019GF108991999999999999999999MA1102031999999MW1441REMMET049KPOE 171507Z 15008KT 1/2SM FG OVC002 19/19 A3013;EQDQ01+000003PRSWM1Q02    003PRSWM1
0250722390999992000021902334+31050-093200FM-16+0100KPOE V0203301N006210090019N0080461N1+01901+01901999999ADDGA1999+009001091GD12991+0045019GD24991+0090019GF108991999999999999999999MA1101861999999MW1801MW2951OC100871REMMET096KPOE 190233Z 33012G17KT 5SM -TSRA BR SCT015 OVC030CB 19/19 A3008 RMK FRQ LTGCCCG TS 4 SE MOV SE;EQDQ01+000100PRSWM4Q02+000003PRSWM1
0054722390999992000021903009+31050-093183NSRDB+010299999V020999999999999999999999999999+99999+99999999999ADDGP10060000002000000002000000002000GR100600000900009
0192722390999992000022603074+31050-093200FM-16+0100KPOE V0201601N005710045019N0096561N1+02001+01901999999ADDGD13991+0045019GD24991+0075019GF108991999999999999999999MA1101631999999MW1801OC100821REMMET060KPOE 260307Z 16011G16KT 6SM -SHRA BKN015 OVC025 20/19 A3001;EQDQ01+000003PRSWM1Q02    003PRSWM1
0275722390999992000022616003+31050-093200FM-15+0100KPOE V0201801N006210045019N0112651N1+02201+01801101711ADDGD13991+0045019GD23991+0105019GF107991999999999999999999GP10060018602008000602015018302008GQ100600580912629GR100600738913959MA1101761999999MW1001OC100981REMMET091KPOE 261556Z 18012G19KT 150V210 7SM BKN015 BKN035 22/18 A3005 RMK SLP171 8/500 9/700 RCRNR;EQDQ01+000000PRSWM2
0398722390999992000022618003+31050-093200FM-15+0100KPOE V0203101N007210060019N0112651N1+01501+01401101841ADDAA106001391GD12991+0024019GD23991+0060019GD34991+0210019GF108991999999999999999999GP10060012302008000002015012302008GQ100600422915939GR100601034913959MA1101861999999MD1310141+9999MW1801OC101031REMMET158KPOE 261759Z 31014G20KT 7SM -SHRA SCT008 BKN020 OVC075 15/14 A3008 RMK PK WND 31034/37 WSHFT42 FROPA PRESRR SLP184 CB SW MOV NE 60005 8/36/ 9/71/ 53014 RCRNR;EQDQ01+000003PRSWM1Q02    003PRSWM1
0269722390999992000030419003+31050-093200FM-15+0100KPOE V0200101N004612200019N0112651N1+01501+00401101901ADDGD12991+0090019GD22991+0750019GF104991999999999999999999GP10060080502008081602015015402008GQ100600374918239GR100601104913909MA1101901999999MW1001OC100771REMMET085KPOE 041855Z 01009G15KT 320V060 7SM FEW030 SCT250 15/04 A3009 RMK SLP190 8/101 9/103;EQDQ01+000000PRSWM2
0274722390999992000030910003+31050-093200FM-15+0100KPOE V02099999999990030019N0096561N1+02101+02101101601ADDGD12991+0021019GD23991+0030019GD34991+0045019GF108991999999999999999999GP10060000002000000002000000002000GR100600000900009MA1101661999999MW1101REMMET084KPOE 090955Z VRB04KT 6SM BR FEW007 BKN010 OVC015 21/21 A3002 RMK SLP160 8/5// 9/8//;EQDQ01+000003PRSWM1Q02    003PRSWM1
0259722390999992000031000003+31050-093200FM-15+0100KPOE V0201601N004612200019N0112651N1+02701+01801101401ADDGD12991+0135019GF104991999999999999999999GP10060010802008029702015006002008GQ100600807925959GR100600223913869MA1101461999999MD1510021+9999MW1001OC100621REMMET076KPOE 092357Z 16009G12KT 7SM SCT045 27/18 A2996 RMK SLP140 8/100 9/400 55002;EQDQ01+000000PRSWM2
0071722390999992000031019009+31050-093183NSRDB+010299999V020999999999999999999999999999+99999+99999999999ADDGP10060013802008000002015013802008GQ100600351918319GR100601134913869
0181722390999992000031111424+31050-093200FM-16+0100KPOE V0203301N005710030019N0112651N1+01101+01101999999ADDGD12991+0021019GD24991+0030019GF108991999999999999999999MA1101831999999MW1001OC100771REMMET065KPOE 111142Z 33011G15KT 7SM SCT007 OVC010 11/11 A3007 RMK PRESRR;EQDQ01+000000PRSWM2
0149722390999992000031310554+31050-093200FM-15+0100KPOE V02099999999992200019N0096561N1+00201+00201102401ADDGF100991999999999999999999MA1102401999999MW1101REMMET055KPOE 131055Z VRB03KT 6SM BR SKC 02/02 A3024 RMK SLP240;EQDQ01+000003PRSWM1Q02    003PRSWM1
0211722390999992000031405003+31050-093200FM-15+0100KPOE V0200901N001510240019N0112651N1+01301+00401102191ADDGD13991+0240019GF107991999999999999999999GP10060000002000000002000000002000GR100600000900009MA1102201999999MW1001REMMET067KPOE 140455Z 09003KT 7SM BKN085 13/04 A3018 RMK SLP219 8/070 9/050;EQDQ01+000000PRSWM2
0283722390999992000031419003+31050-093200FM-15+0100KPOE V0201101N004110105019N0112651N1+02001+01201101801ADDGD13991+0105019GD23991+0240019GD34991+0750019GF108991999999999999999999GP10060030002008001202015029002008GQ100600335918379GR100601152913839MA1101831999999MW1001OC100671REMMET084KPOE 141855Z 11008G13KT 7SM BKN035 BKN080 OVC250 20/12 A3007 RMK SLP180 8/572 9/521;EQDQ01+000000PRSWM2
0228722390999992000032101003+31050-093200FM-15+0100KPOE V0200901N002112200019N0112651N1+01301+00801101431ADDGD12991+0750019GF102991999999999999999999GP10060000002008000002015000002008GQ100600878926929GR100600021905409MA1101421999999MW1001REMMET067KPOE 210055Z 09004KT 7SM FEW250 13/08 A2995 RMK SLP143 8/001 9/001;EQDQ01+000000PRSWM2
0282722390999992000032202003+31050-093200FM-15+0100KPOE V0200701N003110180019N0112651N1+01401+01201101951ADDGD12991+0105019GD23991+0180019GD33991+0360019GD44991+0750019GF108991999999999999999999GP10060000002000000002000000002000GR100600000900009MA1101961999999MW1001REMMET093KPOE 220155Z 07006KT 7SM SCT035 BKN065 BKN120 OVC250 14/12 A3011 RMK SLP195 8/562 9/611 WR//;EQDQ01+000000PRSWM2
0181722390999992000032810003+31050-093200FM-15+0100KPOE V0201301N001512200019N0112651N1+00801+00701100631ADDGF100991999999999999999999GP10060000002000000002000000002000GR100600000900009MA1100641999999MW1001REMMET052KPOE 280955Z 13003KT 7SM SKC 08/07 A2972 RMK SLP063;EQDQ01+000000PRSWM2
0211722390999992000040107003+31050-093200FM-15+0100KPOE V0200701N002610750019N0112651N1+01601+01301101451ADDGD13991+0750019GF107991999999999999999999GP10060000002000000002000000002000GR100600000900009MA1101491999999MW1001REMMET067KPOE 010655Z 07005KT 7SM BKN250 16/13 A2997 RMK SLP145 8/006 9/006;EQDQ01+000000PRSWM2
0225722390999992000040118194+31050-093200FM-16+0100KPOE V0201001N003610009019N0040231N1+01701+01701999999ADDGA1999+002401091GD13991+0009019GD24991+0024019GF108991999999999999999999MA1101391999999MW1801MW2951REMMET079KPOE 011819Z 10007KT 2 1/2SM -TSRA BKN003 OVC008CB 17/17 A2994 RMK TS S MOV NE;EQDQ01+000003PRSWM1Q02    003PRSWM1
0266722390999992000040315354+31050-093200FM-16+0100KPOE V0200801N004110150019N0096561N1+01401+01401999999ADDGA1999+015001091GD12991+0015019GD22991+0105019GD34991+0150019GF108991999999999999999999MA1101251999999MW1801MW2951OC100671REMMET097KPOE 031535Z 08008G13KT 040V100 6SM -TSRA FEW005 FEW035 OVC050CB 14/14 A2990 RMK TS 15 SW MOV NE;EQDQ01+000003PRSWM1Q02    003PRSWM1
0232722390999992000041610003+31050-093200FM-15+0100KPOE V0201301N001510003019N0008051N1+01601+01601101651ADDGD14991+0003019GF108991999999999999999999GP10060000002000000002000000002000GR100600000900009MA1101691999999MW1441REMMET072KPOE 160955Z 13003KT 1/2SM FG OVC001 16/16 A3003 RMK SLP165 8/6// 9/8//;EQDQ01+000003PRSWM1Q02    003PRSWM1
0181722390999992000042602003+31050-093200FM-15+0100KPOE V02099999999992200019N0112651N1+01801+01401101821ADDGF100991999999999999999999GP10060000002000000002000000002000GR100600000900009MA1101831999999MW1001REMMET052KPOE 260155Z VRB02KT 7SM SKC 18/14 A3007 RMK SLP182;EQDQ01+000000PRSWM2
0211722390999992000050113054+31050-093200FM-16+0100KPOE V0202601N004110135019N0048281N1+01801+01801999999ADDGD12991+0030019GD24991+0135019GF108991999999999999999999MA1101901999999MW1801OC100671REMMET063KPOE 011305Z 26008G13KT 3SM -SHRA BR FEW010 OVC045 18/18 A3009;EQDQ01+000100PRSWM3Q02+000003PRSWM1Q03    003PRSWM1
0170722390999992000050204084+31050-093200FM-16+0100KPOE V0201601N004612200019N0112651N1+02201+02101999999ADDGD12991+0450019GD22991+0750019GF104991999999999999999999MA1101591999999MW1001OC100721REMMET054KPOE 020408Z 16009G14KT 7SM FEW150 SCT250 22/21 A3000;EQDQ01+000000PRSWM2
0071722390999992000050613009+31050-093183NSRDB+010299999V020999999999999999999999999999+99999+99999999999ADDGP10060014602008013902015011502008GQ100600771907809GR100600300913429
0200722390999992000050912424+31050-093200FM-16+0100KPOE V0201701N004610018019N0096561N1+02101+02101999999ADDGD12991+0006019GD23991+0018019GD33991+0030019GF107991999999999999999999MA1101191999999MW1101REMMET061KPOE 091242Z 17009KT 6SM BR FEW002 BKN006 BKN010 21/21 A2988;EQDQ01+000003PRSWM1Q02    003PRSWM1
0244722390999992000051002003+31050-093200FM-15+0100KPOE V0201801N004112200019N0112651N1+02501+02301101091ADDGD12991+0075019GD22991+0750019GF104991999999999999999999GP10060000002000000002000000002000GR100600000900009MA1101151999999MW1001OC100621REMMET077KPOE 100155Z 18008G12KT 7SM FEW025 SCT250 25/23 A2987 RMK SLP109 8/402 9/202;EQDQ01+000000PRSWM2
0244722390999992000051805003+31050-093200FM-15+0100KPOE V0201501N007210750019N0112651N1+02201+02101101281ADDGD12991+0060019GD23991+0750019GF107991999999999999999999GP10060000002000000002000000002000GR100600000900009MA1101321999999MW1001OC100981REMMET077KPOE 180455Z 15014G19KT 7SM FEW020 BKN250 22/21 A2992 RMK SLP128 8/107 9/106;EQDQ01+000000PRSWM2
0255722390999992000052004003+31050-093200FM-15+0100KPOE V0201401N002610750019N0112651N1+02401+02201101581ADDGD12991+0060019GD22991+0090019GD34991+0750019GF108991999999999999999999GP10060000002000000002000000002000GR100600000900009MA1101631999999MW1001REMMET081KPOE 200357Z 14005KT 7SM FEW020 SCT030 OVC250 24/22 A3001 RMK SLP158 8/608 9/404;EQDQ01+000000PRSWM2
0181722390999992000052504003+31050-093200FM-15+0100KPOE V0201701N004612200019N0112651N1+02501+02301100811ADDGF100991999999999999999999GP10060000002000000002000000002000GR100600000900009MA1100851999999MW1001REMMET052KPOE 250355Z 17009KT 7SM SKC 25/23 A2978 RMK SLP081;EQDQ01+000000PRSWM2
0235722390999992000052807314+31050-093200FM-16+0100KPOE V0201001N002610090019N0080461N1+02201+02201999999ADDGA1999+009001091GD12991+0054019GD23991+0090019GF107991999999999999999999MA1101521999999MW1101REMMET095KPOE 280731Z 10005KT 5SM BR FEW018 BKN030CB 22/22 A2998 RMK OCNL LTGCCCACG CB 15 E MOV E RCRNR;EQDQ01+000003PRSWM1Q02    003PRSWM1
0286722390999992000053000003+31050-093200FM-15+0100KPOE V0200601N002612200019N0112651N1+03101+01901101251ADDGD12991+0135019GD22991+0750019GF102991999999999999999999GP10060024602008047102015009002008GQ100600707928449GR100600439913299MA1101291999999MD1610091+9999MW1001REMMET096KPOE 292355Z 06005KT 7SM FEW045 FEW250 31/19 A2991 RMK SLP125 CB DSNT S 8/903 9/101 56009 RCRNR;EQDQ01+000000PRSWM2
0181722390999992000053105003+31050-093200FM-15+0100KPOE V0200701N001512200019N0112651N1+02301+02001101481ADDGF100991999999999999999999GP10060000002000000002000000002000GR100600000900009MA1101521999999MW1001REMMET052KPOE 310455Z 07003KT 7SM SKC 23/20 A2998 RMK SLP148;EQDQ01+000000PRSWM2
0198722390999992000060102003+31050-093200FM-15+0100KPOE V02099999999992200019N0112651N1+02401+02101101551ADDGF100991999999999999999999GP10060000002008000002015000002008GQ100600891929579GR100600003902109MA1101591999999MW1001REMMET052KPOE 010155Z VRB02KT 7SM SKC 24/21 A3000 RMK SLP155;EQDQ01+000000PRSWM2
0054722390999992000060310009+31050-093183NSRDB+010299999V020999999999999999999999999999+99999+99999999999ADDGP10060000002000000002000000002000GR100600000900009
0137722390999992000060403344+31050-093200FM-16+0100KPOE V02099999999990750019N0112651N1+02601+02301999999ADDGD13991+0750019GF107991999999999999999999MA1101731999999MW1001REMMET044KPOE 040334Z VRB02KT 7SM BKN250 26/23 A3004;EQDQ01+000000PRSWM2
0280722390999992000060621003+31050-093200FM-15+0100KPOE V0200301N005112200019N0112651N1+02601+01201101951ADDGD12991+0120019GF102991999999999999999999GP10060079702008075702015015302008GQ100600318926329GR100601124913269MA1102001999999MD1610121+9999MW1001OC100871REMMET097KPOE 062055Z COR 03010G17KT 360V070 7SM FEW040 26/12 A3012 RMK SLP195 8/100 9/100 56012 COR 2058;EQDQ01+000000PRSWM2
0237722390999992000061106003+31050-093200FM-15+0100KPOE V0201301N002612200019N0112651N1+02301+02201101801ADDGD12991+0360019GF104991999999999999999999GP10060000002000000002000000002000GR100600000900009MA1101831999999MD1010021+9999MW1001REMMET079KPOE 110555Z 13005KT 7SM SCT120 23/22 A3007 RMK SLP180 8/070 9/030 50002 RCRNR;EQDQ01+000000PRSWM2
0296722390999992000061320003+31500-093190FM-15+0100KPOE V0201801N005112200019N0112651N1+03201+01901101551ADDGA1999+013501021GD12991+0135019GD22991+0390019GF104991999999999999999999GP10060081802008051502015033102008GQ100600189924939GR100601251913249MA1101591999999MW1001OC100821REMMET096KPOE 131955Z 18010G16KT 150V210 7SM SCT045TCU SCT130 32/19 A3000 RMK SLP155 TCU S-W 8/270 9/210;EQDQ01+000000PRSWM2
0258722390999992000061618494+31500-093190FM-16+0100KPOE V0201501N002110210019N0112651N1+02701+02201999999ADDGA1999+010501091GD12991+0045019GD22991+0105019GD33991+0210019GD43991+0750019GF107991999999999999999999MA1101121999999MW1171REMMET088KPOE 161849Z 15004KT 7SM TS FEW015 SCT035CB BKN070 BKN250 27/22 A2986 RMK TS SW MOV NNE;EQDQ01+000003PRSWM1Q02    003PRSWM1
0217722390999992000061710003+31500-093190FM-15+0100KPOE V0201401N003110009019N0112651N1+02301+02301101451ADDGD14991+0009019GF108991999999999999999999GP10060000002000000002000000002000GR100600000900009MA1101491999999MW1001REMMET073KPOE 170955Z 14006KT 7SM OVC003 23/23 A2997 RMK SLP145 8/6// 9/8// RCRNR;EQDQ01+000000PRSWM2
0255722390999992000062004003+31500-093190FM-15+0100KPOE V0201501N002110750019N0112651N1+02401+02401101921ADDGD12991+0078019GD22991+0390019GD33991+0750019GF107991999999999999999999GP10060000002000000002000000002000GR100600000900009MA1101961999999MW1001REMMET081KPOE 200358Z 15004KT 7SM FEW026 SCT130 BKN250 24/24 A3011 RMK SLP192 8/172 9/124;EQDQ01+000000PRSWM2
0228722390999992000062102003+31500-093190FM-15+0100KPOE V0201601N003610750019N0112651N1+02701+02301101571ADDGD13991+0750019GF107991999999999999999999GP10060000002008000002015000002008GQ100600885929699GR100600010903869MA1101631999999MW1001REMMET067KPOE 210155Z 16007KT 7SM BKN250 27/23 A3001 RMK SLP157 8/001 9/007;EQDQ01+000000PRSWM2
0211722390999992000062504003+31500-093190FM-15+0100KPOE V0201901N002612200019N0112651N1+02601+02201101581ADDGD12991+0450019GF102991999999999999999999GP10060000002000000002000000002000GR100600000900009MA1101631999999MW1001REMMET067KPOE 250355Z 19005KT 7SM FEW150 26/22 A3001 RMK SLP158 8/070 9/010;EQDQ01+000000PRSWM2
0270722390999992000062512003+31500-093190FM-15+0100KPOE V0201501N001512200019N0112651N1+02301+02201101691ADDGD12991+0390019GD22991+0750019GF104991999999999999999999GP10060000002008000002015000002008GQ100600857906509GR100600079910469MA1101731999999MD1310121+9999MW1001REMMET080KPOE 251155Z 15003KT 7SM SCT130 SCT250 23/22 A3004 RMK SLP169 8/071 9/031 53012;EQDQ01+000000PRSWM2
0291722390999992000062520003+31500-093190FM-15+0100KPOE V0201801N002110750019N0112651N1+03201+02101101591ADDGD12991+0120019GD22991+0420019GD33991+0750019GF107991999999999999999999GP10060075402008040702015036802008GQ100600183924869GR100601253913229MA1101631999999MW1001OC100571REMMET092KPOE 251955Z 18004G11KT 120V340 7SM SCT040 SCT140 BKN250 32/21 A3001 RMK SLP159 8/171 9/311;EQDQ01+000000PRSWM2
0368722390999992000062621003+31500-093190FM-15+0100KPOE V0200101N002610300019N0112651N1+03301+02201101421ADDGA1999+013501091GD12991+0001519GD22991+0135019GD33991+0300019GD43991+0750019GF107991999999999999999999GP10060068202008040002015033902008GQ100600307926369GR100601134913229MA1101491999999MD1810261+9999MW1001OC100571REMMET124KPOE 262055Z 01005G11KT 330V090 7SM FEW000 SCT045CB BKN100 BKN250 33/22 A2997 RMK SLP142 FU FEW000 CB 8 S 8/963 9/412 58026;EQDQ01+000000PRSWM2
0315722390999992000070300003+31500-093190FM-15+0100KPOE V02099999999990300019N0112651N1+02501+02401101591ADDAA106000391GD12991+0090019GD23991+0300019GD34991+0840019GF108991999999999999999999GP10060009602008000002015009602008GQ100600688928489GR100600478913219MA1101631999999MD1710091+9999MW1001REMMET099KPOE 022355Z VRB05KT 7SM FEW030 BKN100 OVC280 25/24 A3001 RMK SLP159 60001 8/177 9/242 57009 RCRNR;EQDQ01+000000PRSWM2
0071722390999992000070420009+31050-093183NSRDB+010299999V020999999999999999999999999999+99999+99999999999ADDGP10060087202008067002015023502008GQ100600182924639GR100601253913219
0159722390999992000070513504+31500-093190FM-15+0100KPOE V02099999999990075019N0112651N1+02701+02401999999ADDGD13991+0075019GD23991+0750019GF107991999999999999999999MA1101831999999MW1001REMMET051KPOE 051350Z VRB04KT 7SM BKN025 BKN250 27/24 A3007;EQDQ01+000000PRSWM2
0289722390999992000070521003+31500-093190FM-15+0100KPOE V0201401N003610750019N0112651N1+03301+02301101521ADDGD12991+0120019GD23991+0750019GF107991999999999999999999GP10060048002008010702015038802008GQ100600306926219GR100601135913219MA1101561999999MD1610161+9999MW1001OC100821REMMET091KPOE 052055Z 14007G16KT 080V180 7SM SCT040 BKN250 33/23 A2999 RMK SLP152 8/101 9/401 56016;EQDQ01+000000PRSWM2
0253722390999992000070603003+31500-093190FM-15+0100KPOE V0201601N001512200019N0112651N1+02601+02401101541ADDGD12991+0135019GD22991+0750019GF104991999999999999999999GP10060000002000000002000000002000GR100600000900009MA1101591999999MD1310041+9999MW1001REMMET080KPOE 060255Z 16003KT 7SM FEW045 SCT250 26/24 A3000 RMK SLP154 8/402 9/102 53004;EQDQ01+000000PRSWM2
0316722390999992000070822003+31500-093190FM-15+0100KPOE V02099999999990360019N0112651N1+03501+02301101491ADDGA1999+015001091GD12991+0150019GD23991+0360019GD33991+0750019GF107991999999999999999999GP10060056402008036802015029702008GQ100600434927059GR100600958913219MA1101561999999MW1611REMMET093KPOE 082155Z VRB04KT 7SM -RA SCT050CB BKN120 BKN250 35/23 A2999 RMK SLP149 CB NE 8/963 9/411;EQDQ01+000003PRSWM1Q02    003PRSWM1
0288722390999992000070902003+31500-093190FM-15+0100KPOE V02099999999990750019N0112651N1+02601+02201101581ADDGD12991+0120019GD22991+0450019GD34991+0750019GF108991999999999999999999GP10060000002008000002015000002008GQ100600885929569GR100600011904079MA1101631999999MW1001REMMET097KPOE 090155Z VRB02KT 7SM FEW040 SCT150 OVC250 26/22 A3001 RMK SLP158 CB DSIPTD 8/172 9/125 RCRNR;EQDQ01+000000PRSWM2
0267722390999992000071518003+31500-093190FM-15+0100KPOE V0201901N002612200019N0112651N1+03601+02101101201ADDGD12991+0105019GF102991999999999999999999GP10060093802008080002015016402008GQ100600148913069GR100601277913229MA1101251999999MD1810141+9999MW1001OC100671REMMET084KPOE 151755Z 19005G13KT 070V280 7SM FEW035 36/21 A2990 RMK SLP120 8/100 9/100 58014;EQDQ01+000000PRSWM2
0231722390999992000072003003+31040-093190FM-15+0100KPOE V0201801N002612200019N0112651N1+03001+02301101591ADDGD12991+0750019GF104991999999999999999999GP10060000002000000002000000002000GR100600000900009MA1101631999999MD1310081+9999MW1001REMMET073KPOE 200255Z 18005KT 7SM SCT250 30/23 A3001 RMK SLP159 8/001 9/003 53008;EQDQ01+000000PRSWM2
0231722390999992000072906003+31040-093190FM-15+0100KPOE V0201701N002112200019N0112651N1+02401+02101101451ADDGD12991+0750019GF104991999999999999999999GP10060000002000000002000000002000GR100600000900009MA1101491999999MD1110061+9999MW1001REMMET073KPOE 290555Z 17004KT 7SM SCT250 24/21 A2997 RMK SLP145 8/002 9/003 51006;EQDQ01+000000PRSWM2
0231722390999992000080703003+31040-093190FM-15+0100KPOE V0201801N003612200019N0112651N1+02901+02201101511ADDGD12991+0750019GF104991999999999999999999GP10060000002000000002000000002000GR100600000900009MA1101561999999MD1210211+9999MW1001REMMET073KPOE 070255Z 18007KT 7SM SCT250 29/22 A2999 RMK SLP151 8/002 9/003 52021;EQDQ01+000000PRSWM2
0230722390999992000080911003+31040-093190FM-15+0100KPOE V0203501N001512200019N0096561N1+02201+02201101871ADDGD12991+0060019GF104991999999999999999999GP10060000002000000002000000002000GR100600000900009MA1101931999999MW1101REMMET070KPOE 091055Z 35003KT 6SM BR SCT020 22/22 A3010 RMK SLP187 8/500 9/400;EQDQ01+000003PRSWM1Q02    003PRSWM1
0253722390999992000081320003+31040-093190FM-15+0100KPOE V0201201N004612200019N0112651N1+03401+01401101291ADDGD12991+0210019GF102991999999999999999999GP10060088302008078402015016402008GQ100600237922829GR100601218913319MA1101351999999MW1001OC100671REMMET084KPOE 131955Z 12009G13KT 090V160 7SM FEW070 34/14 A2993 RMK SLP129 8/070 9/020 RCRNR;EQDQ01+000000PRSWM2
0263722390999992000082117003+31040-093190FM-15+0100KPOE V0209999V002110750019N0112651N1+03401+02201101941ADDGD12991+0150019GD23991+0750019GF107991999999999999999999GP10060079102008069402015019602008GQ100600311912289GR100601142913369MA1102001999999MW1001REMMET087KPOE 211655Z COR VRB04KT 7SM FEW050 BKN250 34/22 A3012 RMK SLP194 8/102 9/104 COR 1658;EQDQ01+000000PRSWM2
0247722390999992000090814003+31040-093190FM-15+0100KPOE V0200501N003610006019N0032181N1+02201+02201101361ADDGD14991+0006019GF108991999999999999999999GP10060010702008000002015010702008GQ100600701909589GR100600458913479MA1101391999999MW1101REMMET070KPOE 081355Z 05007KT 2SM BR OVC002 22/22 A2994 RMK SLP136 8/6// 9/8//;EQDQ01+000003PRSWM1Q02    003PRSWM1
0317722390999992000090906003+31040-093190FM-15+0100KPOE V0200901N003110045019N0112651N1+02301+02201101261ADDAA106000021GD12991+0021019GD23991+0045019GD34991+0075019GF108991999999999999999999GP10060000002000000002000000002000GR100600000900009MA1101291999999MD1010021+9999MW1611REMMET102KPOE 090555Z 09006KT 7SM -RA FEW007 BKN015 OVC025 23/22 A2991 RMK SLP126 60000 8/4// 9/8// 50002 WR//;EQDQ01+000003PRSWM1Q02    003PRSWM1
0272722390999992000091417003+31040-093190FM-15+0100KPOE V02099999999990105019N0112651N1+02901+02201101651ADDGD12991+0075019GD23991+0105019GD34991+0360019GF108991999999999999999999GP10060049902008015702015037202008GQ100600364913599GR100601087913519MA1101691999999MW1001REMMET081KPOE 141655Z VRB04KT 7SM SCT025 BKN035 OVC120 29/22 A3003 RMK SLP165 8/17/ 9/53/;EQDQ01+000000PRSWM2
0275722390999992000092416003+31040-093190FM-15+0100KPOE V0202101N004110075019N0112651N1+02801+02401101341ADDGD12991+0060019GD23991+0075019GF107991999999999999999999GP10060059202008056602015021702008GQ100600486912379GR100600898913599MA1101391999999MW1001OC100571REMMET091KPOE 241555Z 21008G11KT 190V250 7SM SCT020 BKN025 28/24 A2994 RMK SLP134 8/500 9/700 RCRNR;EQDQ01+000000PRSWM2
0273722390999992000092418003+31040-093190FM-15+0100KPOE V0202001N006212200019N0112651N1+03301+02101101181ADDGD12991+0090019GF104991999999999999999999GP10060070602008051102015027702008GQ100600331916429GR100601138913599MA1101221999999MD1810141+9999MW1001OC101181REMMET090KPOE 241755Z 20012G23KT 170V240 7SM SCT030 33/21 A2989 RMK SLP118 8/100 9/400 58014 RCRNR;EQDQ01+000000PRSWM2
0231722390999992000092603003+31040-093190FM-15+0100KPOE V0203301N004610111019N0112651N1+01501+00801102091ADDGD13991+0111019GF107991999999999999999999GP10060000002000000002000000002000GR100600000900009MA1102101999999MD1110231+9999MW1001REMMET073KPOE 260255Z 33009KT 7SM BKN037 15/08 A3015 RMK SLP209 8/500 9/700 51023;EQDQ01+000000PRSWM2
0211722390999992000092604003+31040-093190FM-15+0100KPOE V0203501N004610108019N0112651N1+01501+00701102091ADDGD14991+0108019GF108991999999999999999999GP10060000002000000002000000002000GR100600000900009MA1102101999999MW1001REMMET067KPOE 260355Z 35009KT 7SM OVC036 15/07 A3015 RMK SLP209 8/6// 9/8//;EQDQ01+000000PRSWM2
0071722390999992000092616009+31050-093183NSRDB+010299999V020999999999999999999999999999+99999+99999999999ADDGP10060046402008026802015028802008GQ100600490912469GR100600891913619
0201722390999992000092709003+31040-093190FM-15+0100KPOE V0200201N002612200019N0112651N1+01301+00801102161ADDGF100991999999999999999999GP10060000002000000002000000002000GR100600000900009MA1102201999999MD1610021+9999MW1001REMMET058KPOE 270855Z 02005KT 7SM SKC 13/08 A3018 RMK SLP216 56002;EQDQ01+000000PRSWM2
0181722390999992000093008003+31040-093190FM-15+0100KPOE V02099999999992200019N0112651N1+01501+01001101771ADDGF100991999999999999999999GP10060000002000000002000000002000GR100600000900009MA1101801999999MW1001REMMET052KPOE 300755Z VRB01KT 7SM SKC 15/10 A3006 RMK SLP177;EQDQ01+000000PRSWM2
0285722390999992000100601003+31040-093190FM-15+0100KPOE V0201501N001510360019N0112651N1+02401+02201101371ADDGA1999+012001091GD12991+0120019GD23991+0360019GF107991999999999999999999GP10060000002000000002000000002000GR100600000900009MA1101421999999MW1001REMMET110KPOE 060055Z 15003KT 7SM SCT040CB BKN120 24/22 A2995 RMK OCNL LTGCC CB DSNT SE AND SW SLP137 8/960 9/430 WR//;EQDQ01+000000PRSWM2
0390722390999992000100616003+31040-093190FM-15+0100KPOE V0203601N004610036019N0024141N1+02101+02001999999ADDGA1999+007501091GD12991+0021019GD23991+0036019GD34991+0075019GF108991999999999999999999GP10060009702008000002015009702008GQ100600513912899GR100600855913699MA1102001999999MW1821MW2971OC100931REMMET153KPOE 061555Z 36009G18KT 320V060 1SM +TSRA SCT007 BKN012 OVC025CB 21/20 A3012 RMK TS OHD MOV SE FRQ LTGICCCCG TWR VIS 1/2 WSHFT 14 FROPA 8/9// 9/8// WR//;EQDQ01+000003PRSWM1Q02    003PRSWM1
0217722390999992000101002003+31040-093190FM-15+0100KPOE V0203501N002110450019N0112651N1+01001+00201103041ADDGD14991+0450019GF108991999999999999999999GP10060000002000000002000000002000GR100600000900009MA1103051999999MW1001REMMET073KPOE 100155Z 35004KT 7SM OVC150 10/02 A3043 RMK SLP304 8/07/ 9/08/ RCRNR;EQDQ01+000000PRSWM2
0201722390999992000101303003+31040-093190FM-15+0100KPOE V02099999999992200019N0112651N1+01501+00701102491ADDGF100991999999999999999999GP10060000002000000002000000002000GR100600000900009MA1102511999999MD1110141+9999MW1001REMMET058KPOE 130255Z VRB02KT 7SM SKC 15/07 A3027 RMK SLP249 51014;EQDQ01+000000PRSWM2
0137722390999992000101615054+31040-093190FM-16+0100KPOE V02099999999990030019N0112651N1+02201+01901999999ADDGD13991+0030019GF107991999999999999999999MA1102031999999MW1001REMMET044KPOE 161505Z VRB06KT 7SM BKN010 22/19 A3013;EQDQ01+000000PRSWM2
