0165221650999992000051218004+68650+043300FM-12+004999999V0203601N011010075019N0270001N1-00231-00741100751ADDAA199000091GF107991071041008001001001KA1999M-00091MD1310041+9999REMSYN070AAXX  12181 22165 32577 73611 11023 21074 40075 53004 87400 333 11009;EQDQ01  00002PRCP99
0133221650999992000070400004+68640+043300FM-12+004999999V0200901N008010300019N0260001N1+00361+00071101761ADDGF106991021051008001031001MA1999999101151MD1810021+9999REMSYN066AAXX  04001 22165 42576 60908 10036 20007 30115 40176 58002 82530;
0152221650999992000070903004+68640+043300FM-12+004999999V0200701N005012200019N0280001N1+00671+00351100761ADDAA199000091GF103991031001999999031001MD1810091+9999REMSYN070AAXX  09031 22165 32978 30705 10067 20035 40076 58009 83030 333 55103;EQDQ01  00002PRCP99
0112221650999992000071115004+68640+043300FM-12+004999999V0202201N007012200019N0200001N1+01031+00781100511ADDGF102991001001999999001021MD1210221+9999REMSYN060AAXX  11151 22165 42970 22207 10103 20078 40051 52022 80002;
0140221650999992000072109004+68640+043300FM-12+004999999V0200801N006019999999N0090001N1+02341+01711102221ADDAY121031AY221031GF107991001001999999001011MD1310021+9999MW1101REMSYN066AAXX  21091 22165 42959 70806 10234 20171 40222 53002 71022 80001;
0112221650999992000072315004+68640+043300FM-12+004999999V0201401N003019999999N0190001N1+02501+01841101371ADDGF108991031001999999031071MD1710201+9999REMSYN060AAXX  23151 22165 42969 81403 10250 20184 40137 57020 83037;
0187221650999992000080218004+68640+043300FM-12+004999999V0200701N005010066019N0230001N1+00741+00271102031ADDAA199000091GA1071+006609059GF107991071051008001001001KA1120M+00961MD1310051+9999REMSYN076AAXX  02181 22165 32573 70705 10074 20027 40203 53005 87500 333 10096 87622;EQDQ01  00002PRCP99
0133221650999992000081000004+68640+043300FM-12+004999999V0201401N004019999999N0250001N1+01091+00991100601ADDGF108991081001999999031001MA1999999100001MD1410001+9999REMSYN066AAXX  10001 22165 42975 81404 10109 20099 30000 40060 54000 88030;
0166221650999992000081721004+68640+043300FM-12+004999999V0200501N005010048019N0200001N1+00611+00421101081ADDAY151031AY221031GA1071+004809059GF107991071051004501001001MD1610011+9999MW1021REMSYN076AAXX  17211 22165 41470 70505 10061 20042 40108 56001 70252 87500 333 87616;
0133221650999992000082312004+68640+043300FM-12+004999999V0201701N003019999999N0280001N1+01171+00851100771ADDGF107991071001999999031001MA1999999100181MD1810091+9999REMSYN066AAXX  23121 22165 42978 71703 10117 20085 30018 40077 58009 87030;
0159221650999992000082800004+68640+043300FM-12+004999999V0203001N003010054019N0190001N1+00851+00731101511ADDGA1071+005409059GF107991071051004501001001MA1999999100911MD1310051+9999REMSYN076AAXX  28001 22165 42469 73003 10085 20073 30091 40151 53005 87500 333 87618;
0190221650999992000090218004+68640+043300FM-12+004999999V0201801N003010001519N0001001N1+00951+00951099791ADDAA100002091AY181061AY241061GA1091+999999999GF109991091999999999999999KA1999M+01391MD1210021+9999MW1451REMSYN076AAXX  02181 22165 11/01 91803 10095 20095 49979 52002 60020 74584 333 10139;
0150221650999992000092315004+68640+043300FM-12+004999999V0201801N012010001519N0001001N1+00671+00651102131ADDAY141031AY221031GA1091+999999999GF109991091999999999999999MD1710241+9999MW1471REMSYN060AAXX  23151 22165 41/01 91812 10067 20065 40213 57024 74742;
0138221650999992000100621004+68640+043300FM-12+004999999V0202101N008010057019N0200001N1+00831+00731102311ADDGA1071+005709059GF107991071051004501001001MD1310011+9999REMSYN070AAXX  06211 22165 42470 72108 10083 20073 40231 53001 87500 333 87619;
0122221650999992000102321004+68640+043300FM-12+004999999V0203001N013012200019N0220001N1+00451+00201099531ADDGF102991021051008001001001MD1210101+9999REMSYN070AAXX  23211 22165 42572 23013 10045 20020 49953 52010 82500 333 91118;
0195221650999992000123103004+68640+043300FM-12+004999999V0201501N013010054019N0028001N1-01221-01281101231ADDAJ100099199999999AY181031AY231031GA1081+005409099GF108991081091004501999999IA1289MD1610021+9999MW1851REMSYN082AAXX  31031 22165 /1428 81513 11122 21128 40123 56002 78583 889// 333 44009 88918;
0166221930999992000010209004+68800+049150FM-12+001199999V0202201N010010051019N0042001N1-01121-01321102671ADDAY181031AY231031GA1071+005109099GF107991071091004501001001MD1610081+9999MW1851REMSYN076AAXX  02091 22193 41442 72210 11112 21132 40267 56008 78583 87900 333 87917;
0199221930999992000010806004+68800+049150FM-12+001199999V0201301N014019999999N0024001N1-02101-02281100521ADDAA106000091AY131061AY211061GF108991081001999999051999KA1120N-02401MD1610071+9999MW1381REMSYN082AAXX  08061 22193 31924 81314 11210 21228 40052 56007 73831 8805/ 333 21240 91118;EQDQ01  00002PRCP06
0161221930999992000010812004+68800+049150FM-12+001199999V0201301N011012200019N0035001N1-02211-02471100371ADDAY131061AY211061GF102991021061002501001001MA1999999100281MD1710101+9999MW1381REMSYN072AAXX  08121 22193 41335 21311 11221 21247 30028 40037 57010 73831 82600;
0166221930999992000032609004+68800+049150FM-12+001199999V0201101N005010024019N0220001N1-00591-00701100131ADDAY181031AY221031GA1081+002409069GF108991081061002501999999MD1310121+9999MW1021REMSYN076AAXX  26091 22193 41372 81105 11059 21070 40013 53012 70282 886// 333 88708;
0200222040999992000031706004+67570+030400FM-12+024799999V0202801N001012200019N0200001N1-01061-01191102551ADDAA199000091AJ100999199999999GF102991021051012501001001IA1239KA1120N-01151MD1210241+9999REMSYN082AAXX  17061 22204 32698 22801 11106 21119 40255 52024 82500 333 21115 47099 91001;EQDQ01  00002PRCP99
0214222130999992000013112004+67830+033750FM-12+013599999V0201301N004010042019N0100001N1-00141-00221096461ADDAY181061AY231061GA1061+004209079GF108991081091004501999999MA1999999094851MD1710061+9999MW1851OA140100701REMSYN098AAXX  31121 22213 41460 81304 11014 21022 39485 49646 57006 78583 889// 333 86714 91007 555 1/103;
0191222140999992000030312004+67420+032550FM-12+015199999V0202201N004010066019N0190001N1-00491-00851096762ADDAY171061AY221061GA1061+006609069GF107991061051008001041001MD1210121+9999MW1021REMSYN082AAXX  03121 22214 41569 72204 11049 21085 49676 52012 70272 86540 333 86622 91006;EQDQ01+096763APOSLP
0186222170999992000010518004+67150+032350FM-12+002699999V0203601N002012200019N0300001N1-01461-01591100311ADDAA112001091AY181061AY211061GF101991011091008001001001KA1120M-01051MD1210181+9999MW1261REMSYN088AAXX  05181 22217 11580 13602 11146 21159 40031 52018 60012 72681 81900 333 11105 91003;
0128222170999992000012221004+67150+032350FM-12+002699999V0203601N003012200019N0500001N1-02121-02301099861ADDGF104991021001999999031011MD1310041+9999REMSYN076AAXX  22211 22217 42984 43603 11212 21230 49986 53004 82031 333 91004 93501;
0198222170999992000012718004+67150+032350FM-12+002699999V0200201N002012200019N0500001N1-01891-02081098271ADDAA199000091GA1001+999999999GF100991001001999999001001KA1120M-00431MD1810071+9999OA140100301REMSYN076AAXX  27181 22217 32984 00202 11189 21208 49827 58007 333 11043 91003 93501;EQDQ01  00002PRCP99
0189222170999992000012915004+67150+032350FM-12+002699999V0200101N001010012019N0020001N1-02981-03211098811ADDAY141031AY241031GA1081+001209079GF108991081061001501999999MD1710081+9999MW1101OA140100201REMSYN088AAXX  29151 22217 41220 80101 11298 21321 49881 57008 71044 886// 333 88704 91002 93504;
0208222170999992000021418004+67150+032350FM-12+002699999V0201401N004010030019N0400001N1-00151-00231099731ADDAA112003091AY181061AY221061GA1051+003009079GF107991071091004501001001KA1120M-00111MD1210061+9999MW1021REMSYN094AAXX  14181 22217 11482 71404 11015 21023 49973 52006 60032 70282 87900 333 11011 85710 91007;
0193222170999992000021612004+67150+032350FM-12+002699999V0201501N003010018019N0100001N1-00361-00441100141ADDAY171061AY221061GA1081+001809079GF108991081061001501999999MA1999999099831MD1210081+9999MW1711REMSYN088AAXX  16121 22217 41297 81503 11036 21044 39983 40014 52008 77172 886// 333 88706 91005;
0225222170999992000031318004+67150+032350FM-12+002699999V0201501N006010048019N0140001N1-00331-00401098931ADDAA112002091AY181061AY231061GA1061+004809099GF108991081091004501999999KA1120M-00331MD1710251+9999MW1851OA140101001REMSYN100AAXX  13181 22217 11464 81506 11033 21040 49893 57025 60022 78583 889// 333 11033 86916 91010 91113;
0166222170999992000040903004+67150+032350FM-12+002699999V0202401N002012200019N0500001N1-00771-00911102441ADDAA199000091GF104991001001999999001011GJ107749MD1710151+9999REMSYN076AAXX  09031 22217 32999 42402 11077 21091 40244 57015 80001 333 55129 91003;EQDQ01  00002PRCP99
0143222170999992000042200004+67150+032350FM-12+002699999V0201901N003010300019N0500001N1+00181+00151100931ADDGF107991021051012501031001MA1999999100631MD1710161+9999REMSYN076AAXX  22001 22217 42684 71903 10018 20015 30063 40093 57016 82530 333 91005;
0139222170999992000042321004+67150+032350FM-12+002699999V0201501N004019999999N0500001N1+00171-00341101521ADDGF108991081001999999071999MD1810241+9999OA140100701REMSYN076AAXX  23211 22217 42984 81504 10017 21034 40152 58024 8807/ 333 91007 91110;
0158222170999992000052603004+67150+032350FM-12+002699999V0201301N002010120019N0200001N1+01041+00901100681ADDGA1061+012009069GF107991061051012501031001GJ106129MD1710061+9999REMSYN082AAXX  26031 22217 /2698 71302 10104 20090 40068 57006 86530 333 55102 86640 91003;
0150222170999992000062309004+67140+032340FM-12+002699999V0201401N003010300019N0500001N1+01241+00931100881ADDAY181031AY221031GF108991031091008001071999MD1610081+9999MW1251REMSYN076AAXX  23091 22217 41599 81403 10124 20093 40088 56008 72582 8397/ 333 91005;
0122222170999992000062621004+67140+032340FM-12+002699999V0200301N003019999999N0500001N1+01791+01111101111ADDGF108991081001999999071999MD1310031+9999REMSYN070AAXX  26211 22217 42999 80303 10179 20111 40111 53003 8807/ 333 91006;
0165222170999992000070300004+67140+032340FM-12+002699999V0200501N003010111019N0500001N1+00861+00301101651ADDGA1081+011109069GF108991081051012501999999MA1999999101351MD1810041+9999REMSYN082AAXX  03001 22217 42699 80503 10086 20030 30135 40165 58004 885// 333 88637 91006;
0143222170999992000073012004+67140+032340FM-12+002699999V0201801N004012200019N0500001N1+02101+01211101411ADDGF102991011021008001001011MA1999999101131MD1710061+9999REMSYN076AAXX  30121 22217 42599 21804 10210 20121 30113 40141 57006 81201 333 91007;
0171222170999992000080318004+67140+032340FM-12+002699999V0201701N002019999999N0200001N1+01271+00781101441ADDAA199000091GF108991081001999999021999KA1120M+01471MD1410001+9999REMSYN076AAXX  03181 22217 32998 81702 10127 20078 40144 54000 8802/ 333 10147 91003;EQDQ01  00002PRCP99
0203222170999992000080918004+67140+032340FM-12+002699999V0201401N002012200019N0500001N1+01401+01101100221ADDAA112000591AY181061AY211061GF103991021091004501001021KA1120M+01781MD1810011+9999MW1011OA140100401REMSYN094AAXX  09181 22217 11499 31402 10140 20110 40022 58001 69962 70181 82902 333 10178 91004 91111;
0166222170999992000081103004+67140+032340FM-12+002699999V0203501N001019999999N0500001N1+00901+00881100311ADDAA199000091GF107991071001999999031001GJ102889MD1210121+9999REMSYN076AAXX  11031 22217 32999 73501 10090 20088 40031 52012 87030 333 55048 91001;EQDQ01  00002PRCP99
0171222170999992000082706004+67140+032340FM-12+002699999V0201301N001019999999N0500001N1+01301+01071101781ADDAA199000091GF107991071001999999071001KA1120N+00761MD1210101+9999REMSYN076AAXX  27061 22217 32999 71301 10130 20107 40178 52010 87070 333 20076 91002;EQDQ01  00002PRCP99
0144222170999992000091909004+67140+032340FM-12+002699999V0202101N002010090019N0500001N1+01331+00741101351ADDGA1061+009009069GF107991061051008001001011MD1110011+9999REMSYN076AAXX  19091 22217 42599 72102 10133 20074 40135 51001 86501 333 86630 91004;
0167222170999992000092515004+67140+032340FM-12+002699999V0203501N004010300019N0500001N1+00631-00251102191ADDAY181031AY211031GF106991031091008001031001MD1210161+9999MW1021OA140101001REMSYN082AAXX  25151 22217 41599 63504 10063 21025 40219 52016 70281 83930 333 91010 91114;
0144222170999992000101715004+67140+032340FM-12+002699999V0201501N004010075019N0500001N1+00781+00531102481ADDGA1061+007509069GF108991081051004501999999MD1710091+9999REMSYN076AAXX  17151 22217 42499 81504 10078 20053 40248 57009 885// 333 86625 91007;
0150222170999992000102409004+67140+032340FM-12+002699999V0200201N001010300019N0500001N1+00031-00051100561ADDAY181031AY221031GF107991021091008001031001MD1710121+9999MW1261REMSYN076AAXX  24091 22217 41599 70201 10003 21005 40056 57012 72682 82930 333 91001;
0225222170999992000102506004+67140+032340FM-12+002699999V0200501N004010030019N0040001N1+00121+00071098651ADDAA112018091AY181061AY221061GA1061+003009079GF108991081091004501999999KA1120N+00101MD1710361+9999MW1841OA140100701REMSYN100AAXX  25061 22217 11496 80504 10012 20007 49865 57036 60182 78482 889// 333 20010 86710 91007 91111;
0191222170999992000102515004+67140+032340FM-12+002699999V0200201N004010027019N0130001N1+00191+00141098461ADDAY181031AY261031GA1071+002709079GF108991999071002501021999MD1610021+9999MW1611REMSYN082AAXX  25151 22217 41363 80204 10019 20014 49846 56002 76186 8872/ 333 87709 91007;EQDQ01+000082SCOTLC
0193222170999992000111612004+67140+032340FM-12+002699999V0203601N002010069019N0200001N1+00001-00081101001ADDAY181061AY221061GA1051+006909069GF107991061091004501001021MA1999999100691MD1210141+9999MW1021REMSYN088AAXX  16121 22217 41498 73602 10000 21008 30069 40100 52014 70282 86902 333 85623 91004;
0171222170999992000111800004+67140+032340FM-12+002699999V0200101N001012200019N0400001N1-00531-00601102271ADDAY171061AY211061GF104991021001999999031011MA1999999101951MD1810031+9999MW1021REMSYN082AAXX  18001 22217 41982 40101 11053 21060 30195 40227 58003 70271 82031 333 91002;
0132222170999992000111921004+67140+032340FM-12+002699999V0200101N002012200019N0500001N1-00711-00841102801ADDGA1001+999999999GF100991001001999999001001MD1210181+9999REMSYN064AAXX  19211 22217 42984 00102 11071 21084 40280 52018 333 91004;
0122222170999992000122809004+67140+032340FM-12+002699999V0203601N003019999999N0200001N1-02281-02601101571ADDGF107991001001999999001081MD1210101+9999REMSYN070AAXX  28091 22217 42998 73603 11228 21260 40157 52010 80008 333 91004;
0181222350999992000012603004+67370+037030FM-12+015599999V0202001N006010042019N0060001N1-01361-01631099961ADDAY181031AY231031GF108991081091004501999999GJ100009MD1710151+9999MW1851OA140100901REMSYN088AAXX  26031 22235 /1456 82006 11136 21163 49996 57015 78583 889// 333 55000 91009 91112;
0160222350999992000020500004+67370+037030FM-12+015599999V0200901N001012200019N0450001N1-01931-02121099141ADDGF103991001001999999001011MA1999999097071MD1310011+9999OA140100301REMSYN082AAXX  05001 22235 42983 30901 11193 21212 39707 49914 53001 80001 333 91003 93510;
0208222350999992000030215004+67370+037030FM-12+015599999V0201901N005010018019N0023001N1+00001-00031097621ADDAY171031AY221031GA1071+001809079GF108991999071001501021999MD1610131+9999MW1691OA140100801REMSYN088AAXX  02151 22235 41223 81905 10000 21003 49762 56013 76972 8872/ 333 87706 91008 91110;EQDQ01+000082SCOTLC
0172222350999992000041315004+67370+037030FM-12+015599999V0200701N004010054019N0300001N1-00051-00231100871ADDAY181031AY221031GA1081+005409069GF108991081051004501999999MD1110011+9999MW1021REMSYN082AAXX  13151 22235 41480 80704 11005 21023 40087 51001 70282 885// 333 88618 91007;
0208222350999992000050318004+67370+037030FM-12+015599999V0202601N002010033019N0120001N1+00161+00111100401ADDAA112001091AY181061AY221061GA1071+003309079GF108991081091004501999999KA1120M+00571MD1710051+9999MW1801REMSYN094AAXX  03181 22235 11462 82602 10016 20011 40040 57005 60012 78082 889// 333 10057 87711 91003;
0166222350999992000052103004+67370+037030FM-12+015599999V0201901N001012200019N0500001N1+00351-00501101541ADDAA199000091GF101991001001999999001011GJ110449MD1810031+9999REMSYN076AAXX  21031 22235 32984 11901 10035 21050 40154 58003 80001 333 55174 91002;EQDQ01  00002PRCP99
0133222350999992000060700004+67370+037030FM-12+015599999V0209999C000012200019N0400001N1-00041-00101101951ADDGF101991001001999999001011MA1999999099961MD1210021+9999REMSYN066AAXX  07001 22235 42982 10000 11004 21010 39996 40195 52002 80001;
0171222350999992000062818004+67360+037300FM-12+015599999V0200901N003012200019N0500001N1+02371+01321101391ADDAA199000091GF101991001001999999001011KA1120M+02741MD1310061+9999REMSYN076AAXX  28181 22235 32999 10903 10237 20132 40139 53006 80001 333 10274 91005;EQDQ01  00002PRCP99
0122222350999992000062821004+67360+037300FM-12+015599999V0200601N001012200019N0500001N1+01791+01331101531ADDGF101991001001999999001011MD1310111+9999REMSYN070AAXX  28211 22235 42984 10601 10179 20133 40153 53011 80001 333 91002;
0158222350999992000071106004+67360+037300FM-12+015599999V0202601N005012200019N0350001N1+01471+01031100051ADDAA112011991GF102991021021004501001001KA1120N+01241MD1310171+9999REMSYN082AAXX  11061 22235 12481 22605 10147 20103 40005 53017 60122 82200 333 20124 91006;
0208222350999992000072118004+67360+037030FM-12+015599999V0203401N00201007501CN0300001N1+02161+01841102141ADDAA112000591AY181061AY221061GA1041+009609099GF108991081091008001999999KA1120M+02671MD1810041+9999MW1251REMSYN094AAXX  21181 22235 11580 83402 10216 20184 40214 58004 69952 72582 889// 333 10267 84932 91003;
0171222350999992000082006004+67360+037030FM-12+015599999V0200901N001019999999N0450001N1+00971+00451100921ADDAA199000091GF105991011001999999031091KA1120N+00181MD1710091+9999REMSYN076AAXX  20061 22235 32983 50901 10097 20045 40092 57009 81039 333 20018 91002;EQDQ01  00002PRCP99
0112222350999992000082121004+67360+037030FM-12+015599999V0209999C000010075019N0270001N1+00871+00821101241ADDGF107991071051008001001001MD1410001+9999REMSYN060AAXX  21211 22235 42577 70000 10087 20082 40124 54000 87500;
0172222350999992000083015004+67360+037030FM-12+015599999V0200901N002010039019N0400001N1+01021+00761101801ADDAY181031AY221031GA1081+003909069GF108991081051004501999999MD1110011+9999MW1021REMSYN082AAXX  30151 22235 41482 80902 10102 20076 40180 51001 70282 885// 333 88613 91003;
0132222350999992000090421004+67360+037030FM-12+015599999V0203101N002012200019N0300001N1+00221+00121100771ADDGA1001+999999999GF100991001001999999001001MD1110041+9999REMSYN064AAXX  04211 22235 42980 03102 10022 20012 40077 51004 333 91002;
0221222350999992000091118004+67360+037030FM-12+015599999V0200201N001010024019N0210001N1+00441+00391100181ADDAA199000091AY141061AY221061GA1051+002409079GF107991051061002501031001KA1120M+00741MD1210041+9999MW1021REMSYN088AAXX  11181 22235 31371 70201 10044 20039 40018 52004 70242 85630 333 10074 85708 91002;EQDQ01  00002PRCP99
0150222350999992000101509004+67360+037030FM-12+015599999V0203201N003010075019N0350001N1+00721+00511101361ADDAY181031AY221031GF108991081051008001999999MD1210251+9999MW1021REMSYN076AAXX  15091 22235 41581 83203 10072 20051 40136 52025 70282 885// 333 91004;
0122222350999992000101821004+67360+037030FM-12+015599999V0202401N004010042019N0240001N1+00771+00651102071ADDGF108991081061004501999999MD1710021+9999REMSYN070AAXX  18211 22235 42474 82404 10077 20065 40207 57002 886// 333 91007;
0122222350999992000101921004+67360+037030FM-12+015599999V0202701N003010042019N0300001N1+00641+00601102131ADDGF107991071051004501001001MD1210011+9999REMSYN070AAXX  19211 22235 42480 72703 10064 20060 40213 52001 87500 333 91004;
0215222350999992000120906004+67360+037030FM-12+015599999V0200901N001010042019N0024001N1-00421-00471100811ADDAA112002091AJ100129199999999AY181061AY221061GF108991081091004501999999IA1239KA1120N-00681MD1110021+9999MW1861REMSYN094AAXX  09061 22235 11424 80901 11042 21047 40081 51002 60022 78682 889// 333 21068 47012 91002;
0150222710999992000010515004+67880+044130FM-12+001699999V0201401N005019999999N0080001N1-01811-02071100611ADDAY131031AY221031GF105991051001999999031001MD1210111+9999MW1021REMSYN076AAXX  05151 22271 41958 51405 11181 21207 40061 52011 70232 85030 333 96110;
0140222710999992000012309004+67880+044130FM-12+001699999V0201201N003019999999N0050001N1-02241-02491100561ADDAY121031AY221031GF107991071001999999071001MD1110281+9999MW1101REMSYN066AAXX  23091 22271 41950 71203 11224 21249 40056 51028 71022 87070;
0140222710999992000012521004+67880+044130FM-12+001699999V0201801N015012200019N0005001N1-01261-01261100521ADDAY131031AY231031GF102991001001999999001011MD1710071+9999MW1391REMSYN066AAXX  25211 22271 41905 21815 11126 21126 40052 57007 73933 80001;
0161222710999992000013000004+67880+044130FM-12+001699999V0201801N007012200019N0300001N1-01591-01651099241ADDAY131061AY211061GF102991001001999999001011MA1999999099131MD1610061+9999MW1021REMSYN072AAXX  30001 22271 41980 21807 11159 21165 39913 49924 56006 70231 80001;
0166222710999992000020621004+67880+044130FM-12+001699999V0202201N008010060019N0250001N1-00801-00861099551ADDAY131031AY231031GA1071+006009059GF107991071051008001001001MD1710141+9999MW1361REMSYN076AAXX  06211 22271 41575 72208 11080 21086 49955 57014 73633 87500 333 87620;
0161222710999992000020900004+67880+044130FM-12+001699999V0201901N006010042019N0070001N1-00211-00361098191ADDAY181061AY231061GF108991081031004501999999MA1999999098091MD1710061+9999MW1851REMSYN072AAXX  09001 22271 41457 81906 11021 21036 39809 49819 57006 78583 883//;
0159222710999992000021412004+67880+044130FM-12+001699999V0201301N006010033019N0300001N1-00751-00961100531ADDGA1071+003309059GF107991071061004501001001MA1999999100431MD1410001+9999REMSYN076AAXX  14121 22271 42480 71306 11075 21096 30043 40053 54000 87600 333 87611;
0169222710999992000031109004+67880+044130FM-12+001699999V0200401N021010042019N0008001N1-00651-00771098441ADDAY171031AY241031GF108991999071004501021999MD1610231+9999MW1851REMSYN076AAXX  11091 22271 41408 80421 11065 21077 49844 56023 78574 8872/ 333 92992;EQDQ01+000082SCOTLC
0174222710999992000032718004+67880+044130FM-12+001699999V0202801N007012200019N0300001N1-00611-00721100981ADDAA199000021AY181061AY221061GF103991021031004501001011KA1999M-00271MD1710071+9999MW1361REMSYN076AAXX  27181 22271 31480 32807 11061 21072 40098 57007 73682 82301 333 11027;
0131222710999992000040321004+67880+044130FM-12+001699999V0201801N004012200019N0300001N1-01751-01941102291ADDGF102991999031004501001001MD1210021+9999REMSYN060AAXX  03211 22271 42480 21804 11175 21194 40229 52002 83300;EQDQ01+000032SCOTLC
0173222710999992000050103004+67880+044130FM-12+001699999V0200301N004010042019N0070001N1-00821-00921103401ADDAJ100919199999999AY181031AY221031GF107991071031004501001001IA1249MD1310081+9999MW1851REMSYN076AAXX  01031 22271 /1457 70304 11082 21092 40340 53008 78582 87300 333 48091;
0112222710999992000060309004+67880+044130FM-12+001699999V0201501N003012200019N0350001N1+01481+00801101111ADDGF102991021011008001001001MD1710051+9999REMSYN060AAXX  03091 22271 42581 21503 10148 20080 40111 57005 82100;
0112222710999992000061021004+67880+044130FM-12+001699999V0202601N002012200019N0300001N1+00391+00271101401ADDGF102991021001999999031001MD1810041+9999REMSYN060AAXX  10211 22271 42980 22602 10039 20027 40140 58004 82030;
0161222710999992000061200004+67880+044130FM-12+001699999V0202901N005010075019N0350001N1+00271+00141100301ADDAY141061AY221061GF106991061051008001001001MA1999999100201MD1210091+9999MW1021REMSYN072AAXX  12001 22271 41581 62905 10027 20014 30020 40030 52009 70242 86500;
0140222710999992000062021004+67880+044130FM-12+001699999V0202001N006019999999N0170001N1+01041+00741100871ADDAY161031AY221031GF107991071001999999071001MD1710051+9999MW1611REMSYN066AAXX  20211 22271 41967 72006 10104 20074 40087 57005 76162 87070;
0142222710999992000062803004+67880+044130FM-12+001699999V0200801N005019999999N0400001N1+01501+01001101811ADDAA199000091GF106991001001999999001061MD1810021+9999REMSYN060AAXX  28031 22271 32982 60805 10150 20100 40181 58002 80006;EQDQ01  00002PRCP99
0165222710999992000070806004+67880+044130FM-12+001699999V0202001N002010300019N0300001N1+00811+00341101141ADDAA199000091GF107991021051008001071001KA1999N+00441MD1210021+9999REMSYN070AAXX  08061 22271 32580 72002 10081 20034 40114 52002 82570 333 20044;EQDQ01  00002PRCP99
0142222710999992000070903004+67880+044130FM-12+001699999V0200901N004012200019N0350001N1+00821+00711100701ADDAA199000091GF104991021001999999031011MD1710111+9999REMSYN060AAXX  09031 22271 32981 40904 10082 20071 40070 57011 82031;EQDQ01  00002PRCP99
0144222710999992000071106004+67880+044130FM-12+001699999V0201901N007019999999N0290001N1+01581+01181100131ADDAA100000891GF107991999999999999999999MD1310011+9999REMSYN081AAXX  11061 22271 11979 71907 10158 20118 40013 53001 69970 7022 87070 333 20107;
0131222710999992000071615004+67880+044130FM-12+001699999V0209999C000010075019N0400001N1+02451+01491101341ADDGF108991999011008001001001MD1810031+9999REMSYN060AAXX  16151 22271 42582 80000 10245 20149 40134 58003 87100;EQDQ01+000072SCOTLC
0140222710999992000090615004+67880+044130FM-12+001699999V0200301N008010042019N0300001N1+00781+00531100861ADDAY181031AY221031GF107991051031004501031001MD1210061+9999MW1071REMSYN066AAXX  06151 22271 41480 70308 10078 20053 40086 52006 70782 85330;
0170222710999992000091503004+67880+044130FM-12+001699999V0200501N005010120019N0280001N1+00351+00251102031ADDAA199000091AY181031AY211031GF106991051051012501031001MD1210071+9999MW1021REMSYN066AAXX  15031 22271 31678 60505 10035 20025 40203 52007 70281 85530;EQDQ01  00002PRCP99
0171222710999992000100200004+67880+044130FM-12+001699999V0209999C000010003019N0005001N1+00581+00531101781ADDAY141061AY211061GA1091+999999999GF109991091999999999999999MA1999999101681MD1210021+9999MW1451REMSYN066AAXX  02001 22271 41/05 90000 10058 20053 30168 40178 52002 74541;
0215222710999992000101718004+67880+044130FM-12+001699999V0202201N011010033019N0280001N1+00671+00461102491ADDAA199000091AY121061AY221061GA1081+003309069GF108991081061004501999999KA1120M+00711MD1710181+9999MW1071REMSYN082AAXX  17181 22271 31478 82211 10067 20046 40249 57018 70722 886// 333 10071 88711;EQDQ01  00002PRCP99
0150222710999992000102015004+67880+044130FM-12+001699999V0201401N002010003019N0005001N1+00641+00601102281ADDAY141031AY241031GA1091+999999999GF109991091999999999999999MD1210031+9999MW1451REMSYN060AAXX  20151 22271 41/05 91402 10064 20060 40228 52003 74544;
0199222710999992000111118004+67880+044130FM-12+001699999V0201701N005010042019N0090001N1-00111-00211101451ADDAA100000891AY171061AY271061GF108991999071004501021999KA1999M+00231MD1710131+9999MW1711REMSYN082AAXX  11181 22271 11459 81705 11011 21021 40145 57013 69980 77177 8872/ 333 10023;EQDQ01+000082SCOTLC
0138222710999992000112521004+67880+044130FM-12+001699999V0202801N002010063019N0350001N1+00131+00051101611ADDGA1081+006309059GF108991081051008001999999MD1210021+9999REMSYN070AAXX  25211 22271 42581 82802 10013 20005 40161 52002 885// 333 88621;
0202222710999992000112706004+67880+044130FM-12+001699999V0202901N004010057019N0290001N1+00161+00111100891ADDAA100001091AY181061AY221061GA1071+005709059GF107991071051004501001001KA1120N+00011MD1710061+9999MW1021REMSYN088AAXX  27061 22271 11479 72904 10016 20011 40089 57006 60010 70282 87500 333 20001 87619;
0133222710999992000120300004+67880+044130FM-12+001699999V0201801N006019999999N0350001N1-00991-01211101831ADDGF105991051001999999031001MA1999999101721MD1810171+9999REMSYN066AAXX  03001 22271 42981 51806 11099 21121 30172 40183 58017 85030;
0203222710999992000123103004+67880+044130FM-12+001699999V0201701N012019999999N0080001N1-01471-01671101511ADDAA199000091AJ100089199999999AY131031AY231031GF108991081001999999071999IA1249MD1710041+9999MW1381REMSYN076AAXX  31031 22271 31958 81712 11147 21167 40151 57004 73833 8807/ 333 48008;EQDQ01  00002PRCP99
0175222820999992000010106004+67800+046670FM-12+000699999V0201801N004012200019N0240001N1-01391-01741103041ADDAA106000091GA1001+999999999GF100991001001999999001001KA1999N-01641MD1210121+9999REMSYN064AAXX  01061 22282 32974 01804 11139 21174 40304 52012 333 21164;EQDQ01  00002PRCP06
0161222820999992000012500004+67800+046670FM-12+000699999V0202101N005012200019N0070001N1-02091-02281101401ADDAY111061AY211061GF101991001001999999001011MA1999999101311MD1710151+9999MW1101REMSYN072AAXX  25001 22282 41957 12105 11209 21228 30131 40140 57015 71011 80001;
0187222820999992000020300004+67800+046670FM-12+000699999V0202201N008010042019N0060001N1-00841-01031097771ADDAY181061AY231061GA1071+004209099GF107991071041004501001001MA1999999097691MD1810081+9999MW1851REMSYN082AAXX  03001 22282 41456 72208 11084 21103 39769 49777 58008 78583 87400 333 87914;
0180222820999992000021012004+67800+046670FM-12+000699999V0201801N005012200019N0230001N1-00431-00701099331ADDAY131061AY211061GF102991999041002501001001MA1999999099251MD1310181+9999MW1021REMSYN072AAXX  10121 22282 41373 21805 11043 21070 39925 49933 53018 70231 83400;EQDQ01+000032SCOTLC
0173222820999992000022203004+67800+046670FM-12+000699999V0202301N001012200019N0300001N1-01151-01351101221ADDAJ100289199999999AY181031AY221031GF107991031051008001001011IA1249MD1810071+9999MW1261REMSYN076AAXX  22031 22282 41580 72301 11115 21135 40122 58007 72682 83501 333 48028;
0166222820999992000030615004+67800+046670FM-12+000699999V0200301N005010072019N0120001N1-00771-00911100231ADDAY181031AY231031GA1081+007209059GF108991081041008001999999MD1310011+9999MW1851REMSYN076AAXX  06151 22282 41562 80305 11077 21091 40023 53001 78583 884// 333 88624;
0175222820999992000031718004+67800+046670FM-12+000699999V0201301N001012200019N0200001N1-00661-00781102731ADDAA199000091GA1001+999999999GF100991001001999999001001KA1999M-00241MD1810021+9999REMSYN064AAXX  17181 22282 32970 01301 11066 21078 40273 58002 333 11024;EQDQ01  00002PRCP99
0112222820999992000042115004+67800+046670FM-12+000699999V0201801N003012200019N0270001N1-00061-00241101861ADDGF102991011051008001001011MD1210101+9999REMSYN060AAXX  21151 22282 42577 21803 11006 21024 40186 52010 81501;
0187222820999992000111100004+67800+046670FM-12+000699999V0201801N011010021019N0041001N1+00221+00121101901ADDAY121061AY221061GA1081+002109069GF108991081061002501999999MA1999999101821MD1210021+9999MW1101REMSYN082AAXX  11001 22282 41341 81811 10022 20012 30182 40190 52002 71022 886// 333 88707;
0187222820999992000122000004+67800+046670FM-12+000699999V0200901N004010027019N0039001N1-00501-00601100951ADDAY121061AY221061GA1081+002709069GF108991081061002501999999MA1999999100871MD1310241+9999MW1101REMSYN082AAXX  20001 22282 41339 80904 11050 21060 30087 40095 53024 71022 886// 333 88709;
0161222920999992000012912004+67700+048770FM-12+000399999V0202101N008010300019N0210001N1-01301-01571099121ADDAY131061AY211061GF106991041051008001031011MA1999999099071MD1210081+9999MW1361REMSYN072AAXX  29121 22292 41571 62108 11130 21157 39907 49912 52008 73631 84531;
0161222920999992000021300004+67700+048770FM-12+000399999V0202101N006010042019N0080001N1-00161-00361099881ADDAY171061AY221061GF108991081051004501999999MA1999999099831MD1210091+9999MW1701REMSYN072AAXX  13001 22292 41458 82106 11016 21036 39983 49988 52009 77072 885//;
0180222920999992000030606004+67700+048770FM-12+000399999V0201101N003010042019N0060001N1-00521-00731100111ADDAA100000791AY181061AY271061GF108991081061004501999999KA1999N-00541MD1210041+9999MW1771REMSYN082AAXX  06061 22292 11456 81103 11052 21073 40011 52004 69900 77787 886// 333 21054;
0140222920999992000031415004+67700+048770FM-12+000399999V0201601N013019999999N0190001N1-00661-01031100981ADDAY131031AY221031GF106991001001999999001061MD1210031+9999MW1361REMSYN066AAXX  14151 22292 41969 61613 11066 21103 40098 52003 73632 80006;
0133222920999992000041000004+67700+048770FM-12+000399999V0202201N012010300019N0210001N1-00261-00521100951ADDGF106991021051012501091051MA1999999100901MD1710271+9999REMSYN066AAXX  10001 22292 42671 62212 11026 21052 30090 40095 57027 82595;
0133222920999992000041212004+67700+048770FM-12+000399999V0202501N002010042019N0220001N1+00131+00051101191ADDGF107991071051004501001001MA1999999101141MD1810051+9999REMSYN066AAXX  12121 22292 42472 72502 10013 20005 30114 40119 58005 87500;
0175222920999992000041603004+67700+048770FM-12+000399999V0201201N002010021019N0170001N1-00291+99999100241ADDAA199000091AJ100349199999999GF108991081061002501999999IA1249MD1810021+9999REMSYN070AAXX  16031 22292 32367 81202 11029 21025 40024 58002 886// 333 48034;EQDQ01  00002PRCP99
0175222920999992000051703004+67700+048770FM-12+000399999V0200101N009010075019N0210001N1-00071-00221100661ADDAA199000091AJ100009199999999GF108991081051008001999999IA1259MD1710041+9999REMSYN070AAXX  17031 22292 32571 80109 11007 21022 40066 57004 885// 333 41998;EQDQ01  00002PRCP99
0140222920999992000060603004+67700+048770FM-12+000399999V0200501N011010021019N0050001N1+00101+00051100741ADDAY121031AY221031GF108991081061002501999999MD1710031+9999MW1101REMSYN066AAXX  06031 22292 /1350 80511 10010 20005 40074 57003 71022 886//;
0112222920999992000062109004+67690+048760FM-12+000399999V0202701N010012200019N0290001N1+01321+00701101121ADDGF102991021011004501001001MD1210131+9999REMSYN060AAXX  21091 22292 42479 22710 10132 20070 40112 52013 82100;
0152222920999992000071803004+67690+048760FM-12+000399999V0202701N003012200019N0300001N1+01701+01301101991ADDAA199000091GA1001+999999999GF100991001001999999001001MD1210111+9999REMSYN054AAXX  18031 22292 32980 02703 10170 20130 40199 52011;EQDQ01  00002PRCP99
0133222920999992000101912004+67690+048760FM-12+000399999V0203101N008010042019N0230001N1+00721+00511101671ADDGF107991071031004501001001MA1999999101621MD1210071+9999REMSYN066AAXX  19121 22292 42473 73108 10072 20051 30162 40167 52007 87300;
0161222920999992000110912004+67690+048760FM-12+000399999V0202401N009010042019N0120001N1+00061-00021101591ADDAY181061AY221061GF108991081091004501999999MA1999999101541MD1710141+9999MW1801REMSYN072AAXX  09121 22292 41462 82409 10006 21002 30154 40159 57014 78082 889//;
0203222920999992000121803004+67690+048760FM-12+000399999V0202201N012010075019N0180001N1-01291-01641101191ADDAA199000091AJ100079199999999AY131031AY221031GF108991081031008001999999IA1249MD1710051+9999MW1361REMSYN076AAXX  18031 22292 31568 82212 11129 21164 40119 57005 73632 883// 333 48007;EQDQ01  00002PRCP99
0188223240999992000012600004+66670+034330FM-12+004099999V0201901N007010042019N0240001N1-01181-01311100171ADDAY181061AY231061GF108991081091004501999999MA1999999099651MD1810141+9999MW1851OA140101001REMSYN088AAXX  26001 22324 41474 81907 11118 21131 39965 40017 58014 78583 889// 333 91010 91115;
0188223240999992000020100004+66670+034330FM-12+004099999V0202401N007010300019N0500001N1-01071-01271097301ADDAY181061AY231061GF108991021091004501031011MA1999999096811MD1110171+9999MW1361OA140101201REMSYN088AAXX  01001 22324 41484 82407 11107 21127 39681 4973/ 51017 73683 82931 333 91012 91118;
0216223240999992000032818004+66670+034330FM-12+004099999V0203301N002010075019N0500001N1-00231-00811101701ADDAA199000091AY131061AY211061GF108991061051008001031011KA1120M+00211MD1210151+9999MW1021OA140100301REMSYN088AAXX  28181 22324 31584 83302 11023 21081 40170 52015 70231 86531 333 10021 91003 91114;EQDQ01  00002PRCP99
0162223240999992000033012004+66670+034330FM-12+004099999V0202101N004010075019N0500001N1+00371+00191099241ADDGF108991081051008001999999MA1999999999999MD1710131+9999REMSYN076AAXX  30121 22324 41599 82104 10037 20019 38876 49924 57013 885// 333 91006;EQDQ01 088763APOSP 
0188223240999992000052612004+66670+034330FM-12+004099999V0201201N005010075019N0400001N1+01181+00851100541ADDAY181061AY221061GF108991081091008001999999MA1999999100071MD1810141+9999MW1801OA140100801REMSYN088AAXX  26121 22324 41582 81205 10118 20085 30007 40054 58014 78082 889// 333 91008 91110;
0143223240999992000061500004+66670+034320FM-12+004099999V0202301N004012200019N0500001N1+01071+00501099011ADDGF108991041041012501001011MA1999999098541MD1410001+9999REMSYN076AAXX  15001 22324 42699 82304 10107 20050 39854 49901 54000 84401 333 91005;
0186223240999992000072406004+66670+034320FM-12+004099999V0203401N004010042019N0280001N1+01921+01761101181ADDAA112000791AY191061AY221061GF108991081091004501999999KA1120N+01711MD1310021+9999MW1251REMSYN088AAXX  24061 22324 11478 83404 10192 20176 40118 53002 69902 72592 889// 333 20171 91006;
0143223240999992000100900004+66670+034320FM-12+004099999V0201301N004012200019N0500001N1+00891+00771102821ADDGF102991021051008001001001MA1999999102331MD1710161+9999REMSYN076AAXX  09001 22324 42584 21304 10089 20077 30233 40282 57016 82500 333 91007;
0203223240999992000110906004+66670+034320FM-12+004099999V0201801N006010042019N0500001N1+00321+00271101201ADDAA112005191AY181061AY221061GF108991081091004501999999KA1120N+00221MD1710061+9999MW1801OA140101001REMSYN094AAXX  09061 22324 11499 81806 10032 20027 40120 57006 60052 78082 889// 333 20022 91010 91112;
0167223390999992000010212004+66100+037820FM-12+000799999V0202001N008010075019N0180001N1-00821-00921102501ADDAY181061AY231061GF107991071051008001001001MD1710091+9999MW1361OA140101001REMSYN082AAXX  02121 22339 41568 72008 11082 21092 40250 57009 73683 87500 333 91010 91112;
0147223490999992000011400004+66170+039530FM-12+000899999V0203001N003012200019N0500001N1-01151-01211100931ADDGF102991021001999999041001MA1999999100811MD1110021+9999REMSYN080    AAXX  14001 22349 42984 23003 11115 21121 30081 40093 51002 82040 333 91004;
0147223490999992000011412004+66170+039530FM-12+000899999V0203101N004010300019N0500001N1-00841-00991101221ADDGF107991011051008001031001MA1999999101101MD1210091+9999REMSYN080    AAXX  14121 22349 42599 73104 11084 21099 30110 40122 52009 81530 333 91005;
0175223490999992000011500004+66170+039530FM-12+000899999V0202701N002012200019N0500001N1-00991-01161101091ADDAY181061AY211061GF102991021051008001001001MA1999999100971MD1710081+9999MW1011REMSYN086    AAXX  15001 22349 41584 22702 11099 21116 30097 40109 57008 70181 82500 333 91003;
0211223490999992000011700004+66170+039530FM-12+000899999V0201401N012010042019N0030001N1-00451-00581098241ADDAY181061AY271061GF108991999071004501021999MA1999999098121MD1710421+9999MW1731OA140101401REMSYN092    AAXX  17001 22349 41430 81412 11045 21058 39812 49824 57042 77387 8872/ 333 91014 91116;EQDQ01+000082SCOTLC
0188223490999992000012612004+66170+039530FM-12+000899999V0201901N012019999999N0150001N1-01431-01701099721ADDAY131061AY221061GF108991081001999999051999MA1999999099601MD1710431+9999MW1361OA140101401REMSYN088AAXX  26121 22349 41965 81912 11143 21170 39960 49972 57043 73632 8805/ 333 91014 91117;
0222223490999992000013018004+66170+039530FM-12+000899999V0201701N013010042019N0022001N1-00181-00231097981ADDAA112000591AY171061AY231061GF108991999071004501021999KA1120M-00151MD1610051+9999MW1731OA140101501REMSYN094AAXX  30181 22349 11422 81713 11018 21023 49798 56005 69952 77373 8872/ 333 11015 91015 91117;EQDQ01+000082SCOTLC
0152223490999992000022406004+66170+039530FM-12+000899999V0203301N002010075019N0500001N1-00861-00991102081ADDAA199000091GF106991061051008001011001MD1810091+9999REMSYN070AAXX  24061 22349 32599 63302 11086 21099 40208 58009 86510 333 91003;EQDQ01  00002PRCP99
0203223490999992000030218004+66170+039530FM-12+000899999V0201901N013010075019N0300001N1-00011-00071097971ADDAA112002091AY131061AY221061GF108991081051008001999999KA1120M+00111MD1710171+9999MW1361OA140101501REMSYN094AAXX  02181 22349 11580 81913 11001 21007 49797 57017 60022 73632 885// 333 10011 91015 91117;
0199223490999992000042018004+66170+039530FM-12+000899999V0202501N002012200019N0070001N1-00151-00211101441ADDAA199000091AY111061AY211061GF101991011001999999031001KA1120M+00151MD1710151+9999MW1101REMSYN082AAXX  20181 22349 31957 12502 11015 21021 40144 57015 71011 81030 333 10015 91003;EQDQ01  00002PRCP99
0165223490999992000052418004+66170+039530FM-12+000899999V0209999C000012200019N0500001N1+00881+00581101071ADDAA199000091GF103991031051008001001001KA1999M+01491MD1710051+9999REMSYN070AAXX  24181 22349 32599 30000 10088 20058 40107 57005 83500 333 10149;EQDQ01  00002PRCP99
0160223490999992000053100004+66170+039530FM-12+000899999V0200401N002012200019N0500001N1+01111+01091100831ADDGF101991001001999999001011MA1999999100721MD1810041+9999OA140100301REMSYN082AAXX  31001 22349 42999 10402 10111 20109 30072 40083 58004 80001 333 91003 91110;
0160223490999992000060112004+66170+039530FM-12+000899999V0202101N007010750019N0500001N1+00901+00671101641ADDGF105991011011008001031011MA1999999101531MD1210111+9999OA140100801REMSYN082AAXX  01121 22349 42599 52107 10090 20067 30153 40164 52011 81131 333 91008 91112;
0160223490999992000062000004+66170+039530FM-12+000899999V0202001N007019999999N0500001N1+00801+00561101691ADDGF106991061001999999031001MA1999999101581MD1710071+9999OA140100801REMSYN082AAXX  20001 22349 42999 62007 10080 20056 30158 40169 57007 86030 333 91008 91110;
0143223490999992000081900004+66170+039530FM-12+000899999V0200401N004010075019N0300001N1+00511+00321101061ADDGF107991061051008001031001MA1999999100941MD1210031+9999REMSYN076AAXX  19001 22349 42580 70404 10051 20032 30094 40106 52003 86530 333 91005;
0160223490999992000092012004+66170+039530FM-12+000899999V0203601N008012200019N0500001N1+00751-00251102451ADDGF102991021011008001001001MA1999999102341MD1210391+9999OA140101101REMSYN082AAXX  20121 22349 42599 23608 10075 21025 30234 40245 52039 82100 333 91011 91119;
0207223490999992000110612004+66170+039530FM-12+000899999V0201801N013010042019N0060001N1+00471+00351101311ADDAY161061AY221061GF108991999071004501021999MA1999999101191MD1810151+9999MW1611OA140101501REMSYN088AAXX  06121 22349 41456 81813 10047 20035 30119 40131 58015 76162 8872/ 333 91015 91117;EQDQ01+000082SCOTLC
0203223490999992000111106004+66170+039530FM-12+000899999V0201801N006010042019N0032001N1+00111+00001101721ADDAA112000591AY181061AY221061GF108991081091004501999999KA1120N+00101MD1710061+9999MW1851OA140100801REMSYN094AAXX  11061 22349 11432 81806 10011 20000 40172 57006 69942 78582 889// 333 20010 91008 91110;
0188223490999992000111418004+66170+039530FM-12+000899999V0201601N009010075019N0500001N1+00161-00091102261ADDAA199000091GF108991081051008001999999KA1120M+00261MD1710041+9999OA140101101REMSYN082AAXX  14181 22349 32584 81609 10016 21009 40226 57004 885// 333 10026 91011 91112;EQDQ01  00002PRCP99
0171223490999992000113000004+66170+039530FM-12+000899999V0202701N002010075019N0280001N1-00151-00381100411ADDAY181061AY221061GF108991081051008001999999MA1999999100291MD1710031+9999MW1021REMSYN082AAXX  30001 22349 41578 82702 11015 21038 30029 40041 57003 70282 885// 333 91003;
0167223550999992000030306004+66480+040680FM-12+001699999V0202201N015010300019N0200001N1-00621-00851999999ADDAA112002091AY131061AY231061GF106991031091008001051021MD1210081+9999MW1361REMSYN082AAXX  03061 22355 11598 62215 11062 21085 498/1 52008 60022 73633 83952 333 91121;
0178223610999992000021303004+66750+042580FM-12+001599999V0202701N003019999999N0300001N1-00461-00661100411ADDAA112000391AJ100349199999999GF105991051001999999031001IA1289MD1210121+9999REMSYN092AAXX  13031 22361 /2980 52703 11046 21066 40041 52012 85030 333 44034 555 21046 69932 7.96/;
0161223650999992000010412004+66420+043250FM-12+002499999V0201801N010012200019N0270001N1-01801-01921100961ADDAY131061AY221061GF103991031001999999031001MA1999999100671MD1710181+9999MW1361REMSYN072AAXX  04121 22365 41977 31810 11180 21192 30067 40096 57018 73632 83030;
0161223650999992000010612004+66420+043250FM-12+002499999V0201801N003010300019N0200001N1-02021-02211101441ADDAY171061AY221061GF107991021081004501031091MA1999999101151MD1210141+9999MW1021REMSYN072AAXX  06121 22365 41498 71803 11202 21221 30115 40144 52014 70272 82839;
0184223650999992000011512004+66420+043250FM-12+002499999V0202301N006019999999N0220001N1-00751-00921100391ADDAY171061AY231061GF107991999001999999011011MA1999999100201MD1710161+9999MW1361REMSYN076    AAXX  15121 22365 41972 72306 11075 21092 3002/ 40039 57016 73673 88011;EQDQ01+000082SCOTLC
0140223650999992000031509004+66420+043250FM-12+002499999V0201601N010010090019N0190001N1-00421-00611100211ADDAY131031AY231031GF107991071081004501001001MD1310131+9999MW1381REMSYN066AAXX  15091 22365 41469 71610 11042 21061 40021 53013 73833 87800;
0161223650999992000032100004+66420+043250FM-12+002499999V0202501N009010750019N0200001N1-00301-00471098921ADDAY181061AY221061GF105991021081004501061021MA1999999098651MD1310361+9999MW1021REMSYN072AAXX  21001 22365 41498 52509 11030 21047 39865 49892 53036 70282 82862;
0140223650999992000040703004+66420+043250FM-12+002499999V0202301N013010090019N0039001N1-00231-00461099751ADDAY181031AY231031GF106991051081004501061001MD1310071+9999MW1391REMSYN066AAXX  07031 22365 /1439 62313 11023 21046 49975 53007 73983 85860;
0112223650999992000042115004+66420+043250FM-12+002499999V0201401N002010300019N0250001N1+00181-00071102091ADDGF107991021051004501031021MD1110041+9999REMSYN060AAXX  21151 22365 42475 71402 10018 21007 40209 51004 82532;
0161223650999992000053100004+66420+043250FM-12+002499999V0201801N006010300019N0250001N1+01431+01301100921ADDAY191061AY281061GF106991031021008001031091MA1999999100661MD1810101+9999MW1021REMSYN072AAXX  31001 22365 41575 61806 10143 20130 30066 40092 58010 70298 83239;
0165223650999992000062618004+66420+043250FM-12+002499999V0200501N008019999999N0280001N1+01401+01071101271ADDAA199000091GF107991001001999999001091KA1999M+01531MD1610031+9999REMSYN070AAXX  26181 22365 32978 70508 10140 20107 40127 56003 80009 333 10153;EQDQ01  00002PRCP99
0112223650999992000071315004+66420+043250FM-12+002499999V0201601N002012200019N0260001N1+02411+01701101141ADDGF104991021021004501001011MD1710101+9999REMSYN060AAXX  13151 22365 42476 41602 10241 20170 40114 57010 82201;
0161223650999992000111600004+66420+043250FM-12+002499999V0201401N005010021019N0020001N1-00391-00511100421ADDAY171061AY271061GF108991051071002501011999MA1999999100161MD1610141+9999MW1731REMSYN072AAXX  16001 22365 41395 81405 11039 21051 30016 40042 56014 77377 8571/;
0171223650999992000112300004+66420+043250FM-12+002499999V0202401N007012200019N0200001N1-00521-00771103161ADDAY131061AY201061GA1001+999999999GF100991001001999999001001MA1999999102891MD1810021+9999MW1021REMSYN066AAXX  23001 22365 41998 02407 11052 21077 30289 40316 58002 70230;
0180223650999992000113000004+66420+043250FM-12+002499999V0202301N006010042019N0020001N1-00271-00401100341ADDAY181061AY221061GF108991999091004501001001MA1999999100091MD1710061+9999MW1851REMSYN072AAXX  30001 22365 41495 82306 11027 21040 30009 40034 57006 78582 87900;EQDQ01+000072SCOTLC
0140223650999992000121309004+66420+043250FM-12+002499999V0202001N004010021019N0040001N1+00051-00061100831ADDAY181031AY221031GF108991081091002501999999MD1310011+9999MW1851REMSYN066AAXX  13091 22365 41396 82004 10005 21006 40083 53001 78582 889//;
0165223650999992000122306004+66420+043250FM-12+002499999V0201601N004012200019N0100001N1-02831-03131101171ADDAA199000091GF102991001001999999001011KA1999N-02821MD1610021+9999REMSYN070AAXX  23061 22365 32997 21604 11283 21313 40117 56002 80001 333 21282;EQDQ01  00002PRCP99
0165223650999992000122606004+66420+043250FM-12+002499999V0201801N001012200019N0100001N1-03351-03721100421ADDAA199000091GF103991001001999999001051KA1999N-03541MD1210071+9999REMSYN070AAXX  26061 22365 32997 31801 11335 21372 40042 52007 80005 333 21354;EQDQ01  00002PRCP99
0165223650999992000122718004+66420+043250FM-12+002499999V0201801N005010300019N0200001N1-02751-03061101321ADDAA199000091GF106991041051004501021071KA1999M-02621MD1210031+9999REMSYN070AAXX  27181 22365 32498 61805 11275 21306 40132 52003 84527 333 11262;EQDQ01  00002PRCP99
0161223830999992000022212004+66770+047780FM-12+000999999V0202601N006010300019N0100001N1-01031-01231101811ADDAY181061AY271061GF107991031091004501031001MA1999999101631MD1210121+9999MW1851REMSYN072AAXX  22121 22383 41497 72606 11103 21123 30163 40181 52012 78587 83930;
0187224080999992000010200004+65200+031170FM-12+011299999V0201501N001010033019N0080001N1-01271-01471102431ADDAY181061AY221061GA1081+003309099GF108991081031004501999999MA1999999100831MD1810011+9999MW1851REMSYN082AAXX  02001 22408 41458 81501 11127 21147 30083 40243 58001 78582 883// 333 88911;
0231224080999992000011206004+65200+031170FM-12+011299999V0202501N002010057019N0500001N1-00251-00381101111ADDAA112000791AJ100399199999999AY131061AY221061GA1071+005709059GF107991071051004501999999IA1239KA1120N-00291MD1210031+9999MW1021REMSYN094AAXX  12061 22408 11484 72502 11025 21038 40111 52003 69902 70232 875// 333 21029 47039 87619;
0112224080999992000012315004+65200+031170FM-12+011299999V0203401N001012200019N0450001N1-02041-02291101111ADDGF101991001001999999001011MD1210191+9999REMSYN060AAXX  23151 22408 42983 13401 11204 21229 40111 52019 80001;
0133224080999992000012712004+65200+031170FM-12+011299999V0202701N002019999999N0500001N1-00881-01071098761ADDGF106991061001999999031001MA1999999097241MD1810011+9999REMSYN066AAXX  27121 22408 42999 62702 11088 21107 39724 49876 58001 86030;
0171224080999992000030600004+65200+031170FM-12+011299999V0203401N003012200019N0500001N1-01031-01461100771ADDAY131061AY211061GA1001+999999999GF100991001001999999001001MA1999999099211MD1210061+9999MW1021REMSYN066AAXX  06001 22408 41984 03403 11103 21146 39921 40077 52006 70231;
0206224080999992000030712004+65200+031170FM-12+011299999V0200201N002010027019N0060001N1-00571-00871097651ADDAY171061AY221061GA1081+002709069GF108991999071002501021999MA1999999096161MD1310061+9999MW1711REMSYN082AAXX  07121 22408 41356 80202 11057 21087 39616 49765 53006 77172 8872/ 333 88709;EQDQ01+000082SCOTLC
0188224080999992000032012004+65200+031170FM-12+011299999V0202601N012012200019N0500001N1+00511-00461099001ADDAY181061AY211061GF104991041051004501001001MA1999999097551MD1310081+9999MW1021OA140101201REMSYN088AAXX  20121 22408 41499 42612 10051 21046 39755 49900 53008 70281 84500 333 91012 91126;
0132224080999992000032203004+65200+031170FM-12+011299999V0202301N001012200019N0500001N1-00771-01271099731ADDGA1001+999999999GF100991001001999999001001MD1710091+9999REMSYN064AAXX  22031 22408 42984 02301 11077 21127 49973 57009 333 55115;
0189224080999992000040609004+65200+031170FM-12+011299999V0202001N008010042019N0080001N1-00241-00841099451ADDAY181031AY231031GA1081+004209099GF108991081031004501999999MD1710041+9999MW1851OA149901601REMSYN088AAXX  06091 22408 41458 82008 11024 21084 49945 57004 78583 883// 333 88914 91116 92982;
0143224080999992000052000004+65200+031170FM-12+011299999V0209999C000012200019N0500001N1+00681+00041101431ADDGA1001+999999999GF100991001001999999001001MA1999999099961MD1210011+9999REMSYN060AAXX  20001 22408 42999 00000 10068 20004 39996 40143 52001;
0112224080999992000060209004+65200+031170FM-12+011299999V0201501N002012200019N0500001N1+01461+00091101561ADDGF106991041081008001001011MD1710141+9999REMSYN060AAXX  02091 22408 42599 61502 10146 20009 40156 57014 84801;
0158224080999992000061406004+65190+031170FM-12+011299999V0202501N005012200019N0500001N1+01331+00551099231ADDAA112007991GF102991021021012501001001KA1120N+00891MD1310071+9999REMSYN082AAXX  14061 22408 12699 22505 10133 20055 49923 53007 60082 82200 333 20089 91113;
0122224080999992000061803004+65190+031170FM-12+011299999V0209999C000012200019N0500001N1+00601+00231101831ADDGF102991001001999999001011MD1210151+9999REMSYN070AAXX  18031 22408 42999 20000 10060 20023 40183 52015 80001 333 55052;
0144224080999992000071703004+65190+031170FM-12+011299999V0209999C000010060019N0500001N1+01581+01381101621ADDGA1071+006009059GF107991071051008001999999MD1210101+9999REMSYN076AAXX  17031 22408 42599 70000 10158 20138 40162 52010 875// 333 35094 87620;
0133224080999992000071812004+65190+031170FM-12+011299999V0201101N003012200019N0500001N1+02641+01641101121ADDGF106991021021008001001011MA1999999099751MD1710101+9999REMSYN066AAXX  18121 22408 42599 61103 10264 20164 39975 40112 57010 82201;
0133224080999992000072012004+65190+031170FM-12+011299999V0201401N001010750019N0280001N1+02391+01491101621ADDGF107991041021008001001021MA1999999100241MD1210021+9999REMSYN066AAXX  20121 22408 42578 71401 10239 20149 30024 40162 52002 84202;
0138224080999992000072021004+65190+031170FM-12+011299999V0209999C000010069019N0400001N1+01721+01641101871ADDGA1081+006909099GF108991081031008001999999MD1210051+9999REMSYN070AAXX  20211 22408 42582 80000 10172 20164 40187 52005 883// 333 88923;
0161224080999992000072312004+65190+031170FM-12+011299999V0200701N002010300019N0300001N1+02101+01771101221ADDAY191061AY281061GF106991041091008001031001MA1999999099831MD1710051+9999MW1171REMSYN072AAXX  23121 22408 41580 60702 10210 20177 39983 40122 57005 71798 84930;
0206224080999992000080212004+65190+031170FM-12+011299999V0200501N002010018019N0045001N1+01021+00981101451ADDAY161061AY221061GA1081+001809069GF108991999071001501021999MA1999999100001MD1210051+9999MW1611REMSYN082AAXX  02121 22408 41245 80502 10102 20098 30000 40145 52005 76162 8872/ 333 88706;EQDQ01+000082SCOTLC
0150224080999992000083103004+65190+031170FM-12+011299999V0209999C000012200019N0080001N1+00591+00591101611ADDAY111031AY211031GF104991021051008001031011MD1710091+9999MW1101REMSYN076AAXX  31031 22408 41558 40000 10059 20059 40161 57009 71011 82531 333 55113;
0174224080999992000091206004+65190+031170FM-12+011299999V0203601N002010054019N0450001N1+00811+00781100521ADDAA112002091GA1081+005409099GF108991081031004501999999KA1120N+00651MD1210101+9999REMSYN082AAXX  12061 22408 12483 83602 10081 20078 40052 52010 60022 883// 333 20065 88918;
0187224080999992000092818004+65190+031170FM-12+011299999V0202401N003010072019N0500001N1+00871+00401101791ADDAA199000091GA1071+007209059GF107991071051008001999999KA1120M+01031MD1410001+9999REMSYN076AAXX  28181 22408 32584 72403 10087 20040 40179 54000 875// 333 10103 87624;EQDQ01  00002PRCP99
0206224080999992000092912004+65190+031170FM-12+011299999V0201801N001010030019N0060001N1+00841+00801101471ADDAY181061AY261061GA1081+003009069GF108991999071004501021999MA1999999100011MD1710161+9999MW1611REMSYN082AAXX  29121 22408 41456 81801 10084 20080 30001 40147 57016 76186 8872/ 333 88710;EQDQ01+000082SCOTLC
0152224080999992000100503004+65190+031170FM-12+011299999V0209999C000010042019N0450001N1+00661+00641102161ADDGA1071+004209059GF107991071051004501999999GJ100009MD1810041+9999REMSYN076AAXX  05031 22408 42483 70000 10066 20064 40216 58004 875// 333 55000 87614;
0159224080999992000100712004+65190+031170FM-12+011299999V0202201N001010024019N0200001N1+01021+00981103261ADDGA1081+002409069GF108991081061002501999999MA1999999101781MD1210061+9999REMSYN076AAXX  07121 22408 42370 82201 10102 20098 30178 40326 52006 886// 333 88708;
0152224080999992000102803004+65190+031170FM-12+011299999V0203601N004010036019N0500001N1-00121-00351100781ADDGA1071+003609059GF107991071051004501999999GJ100009MD1210181+9999REMSYN076AAXX  28031 22408 42484 73604 11012 21035 40078 52018 875// 333 55000 87612;
0187224080999992000110812004+65190+031170FM-12+011299999V0201201N004010018019N0060001N1+00361+00361101761ADDAY151061AY221061GA1081+001809069GF108991081061001501999999MA1999999100261MD1710161+9999MW1101REMSYN082AAXX  08121 22408 41256 81204 10036 20036 30026 40176 57016 71052 886// 333 88706;
0185224080999992000121021004+65190+031170FM-12+011299999V0201301N002010030019N0060001N1-00291-00361100311ADDAY171031AY221031GA1081+003009069GF108991999071004501021999MD1710151+9999MW1711REMSYN076AAXX  10211 22408 41456 81302 11029 21036 40031 57015 77172 8872/ 333 88710;EQDQ01+000082SCOTLC
0165224080999992000122818004+65190+031170FM-12+011299999V0209999C000012200019N0500001N1-02321-02441101621ADDAA199000091GF102991021001999999031001KA1999M-01511MD1210021+9999REMSYN070AAXX  28181 22408 32984 20000 11232 21244 40162 52002 82030 333 11151;EQDQ01  00002PRCP99
0166224220999992000010109004+65900+034770FM-12+001099999V0209999C000010033019N0060001N1-00951-01111102421ADDAY171031AY221031GA1071+003309059GF107991071051004501001001MD1210161+9999MW1711REMSYN076AAXX  01091 22422 41456 70000 11095 21111 40242 52016 77172 87500 333 87611;
0144224220999992000011803004+65900+034770FM-12+001099999V0200401N012010210019N0130001N1-00721-00931099041ADDAY131031AY221031GF108991081001022501021999MD1210061+9999MW1381REMSYN070    AAXX  18031 22422 41863 80412 11072 21093 49904 52006 73832 8802/;
0143224220999992000012812004+65900+034770FM-12+001099999V0202601N002012200019N0250001N1-01401-01751098461ADDGA1001+999999999GF100991001001999999001001MA1999999098301MD1210051+9999REMSYN060AAXX  28121 22422 42975 02602 11140 21175 39830 49846 52005;
0131224220999992000020715004+65900+034770FM-12+001099999V0202601N002019999999N0200001N1-00351-00531099001ADDGF106991001001999999001011MD1110011+9999REMSYN060AAXX  07151 22422 42970 62602 11035 21053 49900 51001 86001;EQDQ01+000062SCOTLC
0138224220999992000020906004+65900+034770FM-12+001099999V0202201N003010039019N0140001N1+00051-00091097991ADDGA1071+003909099GF107991071091008001001001MD1210141+9999REMSYN070AAXX  09061 22422 12564 72203 10005 21009 49799 52014 87900 333 87913;
0143224220999992000022500004+65900+034770FM-12+001099999V0202001N002012200019N0190001N1-01781-02111101821ADDGA1001+999999999GF100991001001999999001001MA1999999101661MD1710091+9999REMSYN060AAXX  25001 22422 42969 02002 11178 21211 30166 40182 57009;
0175224220999992000022518004+65900+034770FM-12+001099999V0202901N001012200019N0200001N1-01861-02191101621ADDAA199000091GA1001+999999999GF100991001001999999001001KA1999M-01351MD1410001+9999REMSYN064AAXX  25181 22422 32970 02901 11186 21219 40162 54000 333 11135;EQDQ01  00002PRCP99
0112224220999992000022609004+65900+034770FM-12+001099999V0203201N001019999999N0250001N1-01701-01891101691ADDGF106991061001022501001011MD1210081+9999REMSYN060AAXX  26091 22422 42875 63201 11170 21189 40169 52008 86001;
0131224220999992000032003004+65900+034770FM-12+001099999V0202101N007010210019N0190001N1-00181-00361099912ADDGF108991081001022501021999MD1610501+9999REMSYN060AAXX  20031 22422 42869 82107 11018 21036 49991 56050 8802/;EQDQ01+099913APOSLP
0174224220999992000041218004+65900+034770FM-12+001099999V0202601N001010039019N0150001N1+00361-00141100881ADDAA112001091GA1071+003909059GF107991071051004501001001KA1120M+00651MD1610011+9999REMSYN082AAXX  12181 22422 12465 72601 10036 21014 40088 56001 69992 87500 333 10065 87613;
0159224220999992000042812004+65900+034770FM-12+001099999V0203201N002010045019N0300001N1+00741-00821102641ADDGA1071+004509059GF107991071051004501001001MA1999999102491MD1710031+9999REMSYN076AAXX  28121 22422 42480 73202 10074 21082 30249 40264 57003 87500 333 87615;
0187224220999992000050818004+65900+034770FM-12+001099999V0203501N004012200019N0280001N1+00581+00011101111ADDAA199000091GA1041+003909099GF104991041091004501001001KA1120M+00631MD1210191+9999REMSYN076AAXX  08181 22422 32478 43504 10058 20001 40111 52019 84900 333 10063 84913;EQDQ01  00002PRCP99
0148224220999992000051806004+65900+034770FM-12+001099999V0201301N002010042019N0048001N1+00221-00121101851ADDAA199000091GA1071+004209059GF107991071051001501001001REMSYN064AAXX  18061 22422 3/248 71302 10022 21012 40185 87500 333 87614;EQDQ01  00002PRCP99
0152224220999992000072906004+65890+034760FM-12+001099999V02099999999992200019N0300001N1+01821+01281101271ADDAA199000091GA1001+999999999GF100991001001999999001001MD1210121+9999REMSYN054AAXX  29061 22422 32480 09501 10182 20128 40127 52012;EQDQ01  00002PRCP99
0159224220999992000081412004+65890+034760FM-12+001099999V0203601N008012200019N0300001N1+01431+00671101571ADDGA1041+003909099GF104991041091004501001001MA1999999101431MD1810021+9999REMSYN076AAXX  14121 22422 42480 43608 10143 20067 30143 40157 58002 84900 333 84913;
0166224220999992000100806004+65890+034760FM-12+001099999V0202401N001010039019N0034001N1+00921+00881103221ADDAY181061AY221061GA1071+003909059GF107991071051004501001001MD1410001+9999MW1101REMSYN076AAXX  08061 22422 11434 72401 10092 20088 40322 54000 71082 87500 333 87613;
0153224290999992000022512004+65030+035720FM-12+000799999V0202901N002012200019N0160001N1-00531-01141101511ADDAY181061GF102991021091004501001999MA1999999097411MD1810021+9999MW1851REMSYN072AAXX  25121 22429 41466 22902 11053 21114 30741 40151 58002 7858/ 8290/;
0140224380999992000010515004+65200+036820FM-12+001899999V0201301N003010042019N0049001N1-01081-01281099941ADDAY171031AY221031GF108991081001004501021999MD1210181+9999MW1701REMSYN066AAXX  05151 22438 41449 81303 11108 21128 49994 52018 77072 8802/;
0116224380999992000011521004+65200+036820FM-12+001899999V0202901N005019999999N0220001N1-00451-00681100741ADDGF108991081001999999021999MD1210041+9999REMSYN064    AAXX  15211 22438 42972 82905 11045 21068 40074 52004 8802/;
0135224380999992000021006004+65200+036820FM-12+001899999V0202101N005012200019N0300001N1-00751-00811099501ADDGF105991021051008001001011KA1999N-00751MD1210151+9999REMSYN070AAXX  10061 22438 42580 52105 11075 21081 49950 52015 82501 333 21075;
0161224380999992000021112004+65200+036820FM-12+001899999V0202001N016010042019N0040001N1-00111-00181098861ADDAY181061AY231061GF108991081031004501999999MA1999999098651MD1710131+9999MW1381REMSYN072AAXX  11121 22438 41440 82016 11011 21018 39865 49886 57013 73883 883//;
0161224380999992000021812004+65200+036820FM-12+001899999V0201501N006010042019N0042001N1-00131-00211100301ADDAY181061AY221061GF108991081031004501999999MA1999999100091MD1810071+9999MW1861REMSYN072AAXX  18121 22438 41442 81506 11013 21021 30009 40030 58007 78682 883//;
0161224380999992000031300004+65200+036820FM-12+001899999V0202701N010019999999N0210001N1-00761-01161100151ADDAY131061AY211061GF106991001001999999001041MA1999999099931MD1210081+9999MW1021REMSYN072AAXX  13001 22438 41971 62710 11076 21116 39993 40015 52008 70231 80004;
0161224380999992000033000004+65200+036820FM-12+001899999V0202401N008010042019N0050001N1-00221-00311100061ADDAY181061AY231061GF108991081091004501999999MA1999999099851MD1710251+9999MW1851REMSYN072AAXX  30001 22438 41450 82408 11022 21031 39985 40006 57025 78583 889//;
0112224380999992000051715004+65200+036820FM-12+001899999V0200201N004012200019N0250001N1+00111-00491101841ADDGF104991011011008001001051MD1110071+9999REMSYN060AAXX  17151 22438 42575 40204 10011 21049 40184 51007 81105;
0155224380999992000052612004+65200+036820FM-12+001899999V0201801N007010075019N0200001N1+01341+01111999999ADDAY181061AY221061GF107991061091008001071001MA1999999100451MD1810171+9999MW1021REMSYN066AAXX  26121 22438 41570 71807 10134 20111 30045 58017 70282 86970;
0112224380999992000052821004+65200+036820FM-12+001899999V0200901N006019999999N0270001N1+00621+00581101341ADDGF108991081001999999051999MD1310031+9999REMSYN060AAXX  28211 22438 42977 80906 10062 20058 40134 53003 8805/;
0112224380999992000061015004+65200+036820FM-12+001899999V0202001N008019999999N0300001N1+00831+00171101521ADDGF105991051001999999031001MD1710141+9999REMSYN060AAXX  10151 22438 42980 52008 10083 20017 40152 57014 85030;
0161224380999992000062500004+65190+036820FM-12+001899999V0202001N004019999999N0230001N1+01081+00801101031ADDAY181061AY221061GF106991041001999999071011MA1999999100831MD1410001+9999MW1021REMSYN072AAXX  25001 22438 41973 62004 10108 20080 30083 40103 54000 70282 84071;
0140224380999992000070221004+65190+036820FM-12+001899999V0200601N011010075019N0060001N1+00651+00441101511ADDAY181031AY221031GF107991061091008001081001MD1610041+9999MW1801REMSYN066AAXX  02211 22438 41556 70611 10065 20044 40151 56004 78082 86980;
0165224380999992000070406004+65190+036820FM-12+001899999V0200601N003010075019N0220001N1+00891+00731101161ADDAA199000091GF108991051051008001071999KA1999N+00581MD1210041+9999REMSYN070AAXX  04061 22438 32572 80603 10089 20073 40116 52004 8557/ 333 20058;EQDQ01  00002PRCP99
0133224380999992000070412004+65190+036820FM-12+001899999V0200801N005010300019N0250001N1+00981+00701101171ADDGF106991021051008001031001MA1999999100961MD1410001+9999REMSYN066AAXX  04121 22438 42575 60805 10098 20070 30096 40117 54000 82530;
0140224380999992000070821004+65190+036820FM-12+001899999V0201201N002010075019N0080001N1+01181+01091100171ADDAY181031AY221031GF107991071091008001001001MD1710181+9999MW1801REMSYN066AAXX  08211 22438 41558 71202 10118 20109 40017 57018 78082 87900;
0152224380999992000072318004+65190+036820FM-12+001899999V0201901N003010075019N0220001N1+01811+01611101271ADDAA100001091GF106991061091008001001001KA1999M+02061MD1710011+9999REMSYN076AAXX  23181 22438 13572 61903 10181 20161 40127 57001 60010 86900 333 10206;
0131224380999992000081115004+65190+036820FM-12+001899999V0202101N002019999999N0230001N1+01491+01361100691ADDGF107991999091008001031031MD1210131+9999REMSYN060AAXX  11151 22438 42573 72102 10149 20136 40069 52013 80933;EQDQ01+000002SCOTLC
0165224380999992000082618004+65190+036820FM-12+001899999V0200501N003010300019N0250001N1+01301+01071101811ADDAA199000091GF107991021051008001031011KA1999M+01451MD1310011+9999REMSYN070AAXX  26181 22438 32575 70503 10130 20107 40181 53001 82531 333 10145;EQDQ01  00002PRCP99
0112224380999992000082621004+65190+036820FM-12+001899999V0202401N003012200019N0250001N1+01181+01031101861ADDGF103991031001999999031001MD1310051+9999REMSYN060AAXX  26211 22438 42975 32403 10118 20103 40186 53005 83030;
0112224380999992000093009004+65190+036820FM-12+001899999V0202801N002010075019N0150001N1+01001+00901101451ADDGF108991061051008001071999MD1210071+9999REMSYN060AAXX  30091 22438 42565 82802 10100 20090 40145 52007 8657/;
0140224380999992000100109004+65190+036820FM-12+001899999V0202401N003010075019N9999999N1+01091+01051101801ADDAY121031AY221031GF107991071051008001001001MD1310111+9999MW1101REMSYN066AAXX  01091 22438 41552 72403 10109 20105 40180 53011 71022 87500;
0112224380999992000110921004+65190+036820FM-12+001899999V0202001N008010075019N0200001N1+00341+00241101581ADDGF108991061051008001071999MD1310021+9999REMSYN060AAXX  09211 22438 42570 82008 10034 20024 40158 53002 8657/;
0112224380999992000122915004+65190+036820FM-12+001899999V0201201N006019999999N0270001N1-01401-01651101381ADDGF105991051001999999071001MD1710101+9999REMSYN060AAXX  29151 22438 42977 51206 11140 21165 40138 57010 85070;
0175224460999992000011806004+65470+039730FM-12+008199999V0200201N002010300019N0250001N1-00941+99999099031ADDAA100000791GF107991031091004501061021KA1999N+99999MD1210201+9999REMSYN080    AAXX  18061 22446 12475 70202 11094 20124 49903 52020 69900 83962 333 21088;EQDQ01 -00882ATMN  
0166224460999992000020715004+65470+039730FM-12+008199999V0202301N004010024019N0300001N1-00481-00681099061ADDAY181031AY221031GA1051+002409069GF108991061091002501071999MD1210151+9999MW1021REMSYN076AAXX  07151 22446 41380 82304 11048 21068 49906 52015 70282 8697/ 333 85708;
0142224460999992000021103004+65470+039730FM-12+008199999V0201601N010010750019N0300001N1-00481-00881099691ADDAA199000091GF105991021031004501061021MD1810341+9999REMSYN060AAXX  11031 22446 32480 51610 11048 21088 49969 58034 82362;EQDQ01  00002PRCP99
0203224460999992000021406004+65470+039730FM-12+008199999V0200901N005010033019N0260001N1-00201-00481100242ADDAA199000091GA1051+003309059GF108991051051004501061021KA1120N-00511MD1710061+9999REMSYN076AAXX  14061 22446 32476 80905 11020 21048 40024 57006 85562 333 21051 85611;EQDQ01+100243APOSLPQ02  00002PRCP99
0202224460999992000022006004+65470+039730FM-12+008199999V0202501N009010021019N0090001N1-00501-00781101251ADDAA100002091AY181061AY221061GA1051+002109069GF108991081091002501999999KA1120N-00551MD1210041+9999MW1851REMSYN088AAXX  20061 22446 11359 82509 11050 21078 40125 52004 60020 78582 889// 333 21055 85707;
0202224460999992000030406004+65470+039730FM-12+008199999V0200901N014010021019N0060001N1-00431-00811098771ADDAA100000191AY181061AY231061GA1061+002109069GF108991081091002501999999KA1120N-00681MD1710211+9999MW1851REMSYN088AAXX  04061 22446 31356 80914 11043 21081 49877 57021 69920 78583 889// 333 21068 86707;
0165224460999992000032206004+65470+039730FM-12+008199999V0202501N008012200019N0400001N1-00301-00611099531ADDAA199000091GF102991021011008001001001KA1999N-00301MD1310011+9999REMSYN070AAXX  22061 22446 32582 22508 11030 21061 49953 53001 82100 333 21030;EQDQ01  00002PRCP99
0165224460999992000032306004+65470+039730FM-12+008199999V0202301N005012200019N0400001N1-00321-00561099301ADDAA199000091GF102991021051004501001001KA1999N-00361MD1610031+9999REMSYN070AAXX  23061 22446 32482 22305 11032 21056 49930 56003 82500 333 21036;EQDQ01  00002PRCP99
0165224460999992000032318004+65470+039730FM-12+008199999V0202301N006012200019N0450001N1-00231-00421099211ADDAA199000091GF101991011051004501001001KA1999M-00151MD1710031+9999REMSYN070AAXX  23181 22446 32483 12306 11023 21042 49921 57003 81500 333 11015;EQDQ01  00002PRCP99
0152224460999992000032418004+65470+039730FM-12+008199999V0201101N004010750019N0300001N1-00381-00641099601ADDAA100000791GF105991021091002501061021KA1999M-00161MD1810061+9999REMSYN076AAXX  24181 22446 12380 51104 11038 21064 49960 58006 69900 82962 333 11016;
0172224460999992000040209004+65470+039730FM-12+008199999V0202501N017010012019N0048001N1-00551-00761099431ADDAY181031AY231031GA1061+001209079GF108991071031001501061021MD1210191+9999MW1861REMSYN082AAXX  02091 22446 41248 82517 11055 21076 49943 52019 78683 87362 333 86704 91122;
0122224460999992000040303004+65470+039730FM-12+008199999V0203201N001012200019N0350001N1-00811-01131101831ADDGA1001+999999999GF100991001001999999001001MD1210331+9999REMSYN054AAXX  03031 22446 42981 03201 11081 21113 40183 52033;
0112224460999992000040321004+65470+039730FM-12+008199999V0200901N005019999999N0300001N1-00731-01371102211ADDGF106991001001999999001011MD1710031+9999REMSYN060AAXX  03211 22446 42980 60905 11073 21137 40221 57003 80001;
0165224460999992000042106004+65470+039730FM-12+008199999V0202301N003012200019N0220001N1+00281+00151101721ADDAA199000091GF107991021061001501001041KA1999N+00201MD1310151+9999REMSYN070AAXX  21061 22446 32272 72303 10028 20015 40172 53015 82604 333 20020;EQDQ01  00002PRCP99
0166224460999992000051509004+65470+039730FM-12+008199999V0202901N005010001519N0260001N1+00021-00251100211ADDAY181031AY231031GA1051+000159069GF108991061091002501061021MD1210061+9999MW1261REMSYN076AAXX  15091 22446 41376 82905 10002 21025 40021 52006 72683 86962 333 85700;
0133224460999992000052100004+65470+039730FM-12+008199999V0201101N003012200019N0350001N1+00561-01041101631ADDGF101991001001999999001011MA1999999100671MD1410001+9999REMSYN066AAXX  21001 22446 42981 11103 10056 21104 30067 40163 54000 80001;
0142224460999992000061803004+65470+039730FM-12+008199999V0203601N003010300019N0350001N1+00491+00081101461ADDAA199000091GF106991021051002501081011MD1310111+9999REMSYN060AAXX  18031 22446 32381 63603 10049 20008 40146 53011 82581;EQDQ01  00002PRCP99
0112224460999992000061809004+65470+039730FM-12+008199999V0203201N002012200019N0400001N1+00701+00191101751ADDGF103991031021004501001001MD1210141+9999REMSYN060AAXX  18091 22446 42482 33202 10070 20019 40175 52014 83200;
0138224460999992000082409004+65470+039730FM-12+008199999V0203501N003010045019N0350001N1+01321+00761100681ADDGA1061+004509029GF106991061011004501031001MD1310021+9999REMSYN070AAXX  24091 22446 42481 63503 10132 20076 40068 53002 86130 333 86815;
0165224460999992000100306004+65470+039730FM-12+008199999V0202001N002010300019N0160001N1+00881+00731102101ADDAA199000091GF106991021061001501061021KA1999N+00651MD1310051+9999REMSYN070AAXX  03061 22446 32266 62002 10088 20073 40210 53005 82662 333 20065;EQDQ01  00002PRCP99
0122224460999992000122515004+65470+039730FM-12+008199999V0200601N008012200019N0350001N1-02681-02931100131ADDGA1001+999999999GF100991001001999999001001MD1210181+9999REMSYN054AAXX  25151 22446 42981 00608 11268 21293 40013 52018;
0112224460999992000122915004+65470+039730FM-12+008199999V0201301N009012200019N0350001N1-01371-01721101711ADDGF103991011001999999031021MD1710131+9999REMSYN060AAXX  29151 22446 42981 31309 11137 21172 40171 57013 81032;
0187224560999992000011006004+65380+041830FM-12+007499999V0202601N005010051019N0200001N1+00011-00231099791ADDAA106000091GA1081+005109059GF108991081051004501999999KA1120N+00031MD1210201+9999REMSYN076AAXX  10061 22456 32498 82605 10001 21023 49979 52020 885// 333 20003 88617;EQDQ01  00002PRCP06
0112224560999992000032512004+65380+041830FM-12+007499999V0203601N001012200019N0400001N1+00051-00451100261ADDGF102991001001999999001011MD1210131+9999REMSYN060AAXX  25121 22456 42982 23601 10005 21045 40026 52013 80001;
0133224710999992000021112004+65870+044220FM-12+001499999V0202001N007019999999N0500001N1-00391-00681099611ADDGF107991071001999999031021MA1999999099371MD1710131+9999REMSYN066AAXX  11121 22471 42984 72007 11039 21068 39937 49961 57013 87032;
0175224710999992000032803004+65870+044220FM-12+001499999V0202301N003019999999N0500001N1-00731-01031101181ADDAA199000091AJ100699199999999GF108991051001999999031011IA1249MD1710141+9999REMSYN070AAXX  28031 22471 32984 82303 11073 21103 40118 57014 85031 333 48069;EQDQ01  00002PRCP99
0166224710999992000033009004+65870+044220FM-12+001499999V0201801N001010042019N0350001N1+00011-00221099541ADDAY171031AY221031GA1081+004209059GF108991081051004501999999MD1610131+9999MW1021REMSYN076AAXX  30091 22471 41481 81801 10001 21022 49954 56013 70272 885// 333 88614;
0133224710999992000061812004+65860+044210FM-12+001499999V0203401N009010300019N0500001N1+00831+00271101771ADDGF106991021051008001031011MA1999999101541MD1210191+9999REMSYN066AAXX  18121 22471 42584 63409 10083 20027 30154 40177 52019 82531;
0112224710999992000070409004+65860+044210FM-12+001499999V0200501N004012200019N0500001N1+01521+00191101281ADDGF103991031041017501001001MD1810051+9999REMSYN060AAXX  04091 22471 42784 30504 10152 20019 40128 58005 83400;
0161224710999992000071412004+65860+044210FM-12+001499999V0201801N004010300019N0500001N1+02341+01651101331ADDAY181061AY221061GF108991031091012501031999MA1999999101111MD1210021+9999MW1251REMSYN072AAXX  14121 22471 41684 81804 10234 20165 30111 40133 52002 72582 8393/;
0112224710999992000072109004+65860+044210FM-12+001499999V0201601N004012200019N0500001N1+03231+01651102171ADDGF104991001001999999001091MD1810031+9999REMSYN060AAXX  21091 22471 42984 41604 10323 20165 40217 58003 80009;
0174224710999992000081718004+65860+044210FM-12+001499999V0200201N002010063019N0500001N1+00931+00651100851ADDAA100000791GA1061+006309059GF108991061051008001031999KA1120M+01241MD1310041+9999REMSYN082AAXX  17181 22471 12584 80202 10093 20065 40085 53004 69900 8653/ 333 10124 86621;
0122224710999992000090903004+65860+044210FM-12+001499999V0201601N003019999999N0500001N1+00251+00121101701ADDGF107991041001999999031091MD1810121+9999REMSYN070AAXX  09031 22471 /2984 71603 10025 20012 40170 58012 84039 333 55060;
0186224710999992000110403004+65860+044210FM-12+001499999V0201801N004010009019N0090001N1-00081-00081102071ADDAY181031AY281031GA1071+000909069GF108991081091001501999999GJ100009MD1210041+9999MW1851REMSYN088AAXX  04031 22471 /1259 81804 11008 21008 40207 52004 78588 889// 333 53008 55000 87703;
0150225220999992000010103004+64980+034800FM-12+001099999V0201201N001010042019N0100001N1-01241-01371102131ADDAY181031AY221031GF108991081091004501999999MD1210141+9999MW1851REMSYN076AAXX  01031 22522 41460 81201 11124 21137 40213 52014 78582 889// 333 55000;
0165225220999992000010218004+64980+034800FM-12+001099999V0201701N004019999999N0300001N1-01771-01961102071ADDAA106000091GF108991081001999999021999KA1999M-01691MD1710171+9999REMSYN070AAXX  02181 22522 32980 81704 11177 21196 40207 57017 8802/ 333 11169;EQDQ01  00002PRCP06
0140225220999992000031215004+64980+034800FM-12+001099999V0202901N007019999999N0500001N1-00581-01201100161ADDAY131031AY231031GF106991021001999999041011MD1210191+9999MW1361REMSYN066AAXX  12151 22522 41999 62907 11058 21120 40016 52019 73633 82041;
0122225220999992000032109004+64980+034800FM-12+001099999V0202701N007012200019N0500001N1+00011-00881099771ADDGA1001+999999999GF100991001001999999001001MD1210081+9999REMSYN054AAXX  21091 22522 42999 02707 10001 21088 49977 52008;
0112225220999992000040315004+64980+034800FM-12+001099999V0200801N003019999999N0500001N1-00381-00961102131ADDGF107991001001999999001061MD1710081+9999REMSYN060AAXX  03151 22522 42999 70803 11038 21096 40213 57008 80006;
0132225220999992000040903004+64980+034800FM-12+001099999V0202001N001012200019N0500001N1-00841-00941102841ADDGA1001+999999999GF100991001001999999001001MD1710071+9999REMSYN064AAXX  09031 22522 42999 02001 11084 21094 40284 57007 333 55129;
0122225220999992000043003004+64980+034800FM-12+001099999V0203601N005012200019N0500001N1-00111-00301102701ADDGF101991011061004501001001MD1210111+9999REMSYN070AAXX  30031 22522 42499 13605 11011 21030 40270 52011 81600 333 55016;
0165225220999992000051418004+64980+034800FM-12+001099999V0203601N007012200019N0500001N1+00201-00451101021ADDAA199000091GF102991021011008001001011KA1999M+00381MD1710041+9999REMSYN070AAXX  14181 22522 32599 23607 10020 21045 40102 57004 82101 333 10038;EQDQ01  00002PRCP99
0161225220999992000051600004+64980+034800FM-12+001099999V0203401N006010300019N0400001N1+00021-00461101401ADDAY181061AY211061GF105991031091008001071001MA1999999101311MD1210061+9999MW1261REMSYN072AAXX  16001 22522 41582 53406 10002 21046 30131 40140 52006 72681 83970;
0122225220999992000060403004+64980+034800FM-12+001099999V0202401N005012200019N0500001N1+00771+00301100051ADDGF101991011001999999031001MD1210041+9999REMSYN070AAXX  04031 22522 42999 12405 10077 20030 40005 52004 81030 333 55052;
0122225220999992000062503004+64970+034800FM-12+001099999V0203001N002012200019N0500001N1+01491+01121101201ADDGF101991001001999999001011MD1210111+9999REMSYN070AAXX  25031 22522 42999 13002 10149 20112 40120 52011 80001 333 55101;
0161225220999992000070800004+64970+034800FM-12+001099999V0201301N007010300019N0500001N1+01261+00451100941ADDAY181061AY221061GF107991031091004501071001MA1999999100851MD1710081+9999MW1801REMSYN072AAXX  08001 22522 41499 71307 10126 20045 30085 40094 57008 78082 83970;
0150225220999992000082003004+64970+034800FM-12+001099999V0203501N001010075019N0350001N1+01091+01031100721ADDAY181031AY221031GF108991081091008001999999MD1710031+9999MW1251REMSYN076AAXX  20031 22522 41581 83501 10109 20103 40072 57003 72582 889// 333 55103;
0133225220999992000082500004+64970+034800FM-12+001099999V0209999C000012200019N0500001N1+00681+00591100621ADDGF101991011001999999051001MA1999999100531MD1410001+9999REMSYN066AAXX  25001 22522 42984 10000 10068 20059 30053 40062 54000 81050;
0150225220999992000102803004+64970+034800FM-12+001099999V0200301N011010042019N0025001N1+00161+00161100011ADDAY161031AY261031GF108991081001004501021999MD1210191+9999MW1631REMSYN076AAXX  28031 22522 41425 80311 10016 20016 40001 52019 76366 8802/ 333 55000;
0152225220999992000120703004+64970+034800FM-12+001099999V0202601N007010042019N0500001N1+00531+00411100351ADDGA1081+004209059GF108991081051004501999999GJ100009MD1610101+9999REMSYN076AAXX  07031 22522 41484 82607 10053 20041 40035 56010 885// 333 55000 88614;
0165225410999992000011006004+64830+038400FM-12+000599999V0202501N006012200019N0200001N1+00001-00111100111ADDAA106000091GF101991011051008001001001KA1999N+00021MD1210141+9999REMSYN070AAXX  10061 22541 32598 12506 10000 21011 40011 52014 81500 333 20002;EQDQ01  00002PRCP06
0216225500999992000010704004+64530+040470FM-15+0013ULAA V0201001N005010012019N0017001N1+99999+99999999999ADDED199U19009GA1081+001209999GF108991999999999999999999MA1100711999999MW1001MW2101REMMET105ULAA 070400Z 10005MPS 1700 R08/1900 BR OVC004 M15/16 Q1007 TEMPO 1100 BR RMK VV120 QFE754 SCO,4 0,45 0,4;EQDQ01+000003PRSWM1
0221225500999992000010818004+64530+040470FM-12+0013ULAA V0201701N004010042019N0120001N1+00031-00081099071ADDAA100000391AY181061AY221061GA1071+004209099GF107991071091004501001001KA1120M+99999MD1710411+9999MW1851REMSYN088AAXX  08181 22550 11462 71704 10003 21008 49907 57041 69930 78582 87900 333 11003 87914;EQDQ01 -00032ATMX  
0197225500999992000011216004+64530+040470FM-15+0013ULAA V0202101N003010018019N0112651N1-00301-00501999999ADDGA1071+001809099GF107991999999999999999999MA1100911999999MW1001REMMET103ULAA 121600Z 21003MPS 9999 BKN006CB M03/M05 Q1009 TEMPO 1000 BR SHSN RMK VV180 QFE755 SC0,37 0,38 0,37;EQDQ01+000000PRSWM2
0188225500999992000011217004+64530+040470FM-15+0013ULAA V0202301N004010018019N0112651N1-00301-00401999999ADDGA1081+001809999GF108991999999999999999999MA1100911999999MW1001REMMET094ULAA 121700Z 23004MPS 9999 OVC006 M03/M04 Q1009 TEMPO 1000 SN RMK VV200 QFE 755 SC037 038 037;EQDQ01+000000PRSWM2
0195225500999992000011711004+64530+040470FM-15+0013ULAA V0201201N005010039019N0080001N1-00501-00701999999ADDGA1081+003909999GF108991999999999999999999MA1097801999999MW1711REMMET085ULAA 171100Z 12005MPS 8000 -SN OVC013 M05/M07 Q0978 BECMG 2600 SN RMK QFE 732 SC 034;EQDQ01+000003PRSWM1Q02    003PRSWM1
0199225500999992000011809004+64530+040470FM-15+0013ULAA V0200501N003010024019N0060001N1-01101-01201999999ADDGA1081+002409099GF108991999999999999999999MA1099091999999MW1851REMMET089ULAA 180900Z 05003MPS 6000 -SHSN OVC008CB M11/M12 Q0991 NOSIG RMK QFE 741 SC 038 038 039;EQDQ01+000003PRSWM1Q02    003PRSWM1
0231225500999992000012011004+64530+040470FM-15+0013ULAA V02099999999990030019N0060001N1-01901-02001999999ADDGA1071+003009099GA2071+999999999GF107991999999999999999999MA1099091999999MW1101MW2861REMMET099ULAA 201100Z VRB01MPS 6000 BR SHSN BKN010CB BKN/// M19/M20 Q0991 NOSIG RMK QFE742 SC0,35 0,36 0,36;EQDQ01+000003PRSWM1Q02    003PRSWM1
0126225500999992000012213004+64530+040470FM-15+0013ULAA V0209999999999220001CN0099001N1-02401-02701999999ADDMA1099391999999MW1001REMMET074ULAA 221300Z VRB01MPS CAVOK M24/M27 Q0994 NOSIG RMK QFE 744 SC 039 04 039;EQDQ01+000000PRSWM2
0209225500999992000012302004+64530+040470FM-15+0013ULAA V0201401N004010057019N0112651N1-02201-02501999999ADDGA1071+005709999GA2081+999999999GF108991999999999999999999MA1099801999999MW1711REMMET083ULAA 230200Z 14004MPS 9999 -SN BKN019 OVC/// M22/M25 Q0998 NOSIG RMK QFE 747 SC 04;EQDQ01+000003PRSWM1Q02    003PRSWM1
0361225500999992000012403004+64530+040470SY-MT+0013ULAA V0203601N00101002401CN0080001N1-02321-02641101201ADDAJ100519199999999AY171031AY221031GA1081+002409099GF108991081999999999021999IA1239MA1101191999999MD1210041+9999MW1711MW2851REMSYN082AAXX  24031 22550 /1958 83601 11232 21264 40120 52004 77172 8802/ 333 47051 55007;MET104ULAA 240300Z 00000MPS 7000 -SHSN OVC008CB M22/M26 Q1012 TEMPO 0500 FZFG SHSN RMK QFE 757 SC 038 039 037;EQDQ01+000002SCOLCGQ02    003PRSWM1
0197225500999992000012608004+64530+040470FM-15+0013ULAA V0201501N003019999999N0112651N1-02801-03101999999ADDGA1021+007809999GA2071+999999999GF107991999999999999999999MA1100911999999MW1001REMMET087ULAA 260800Z 15003MPS 9999 SCT026 BKN/// M28/M31 Q1009 TEMPO 1100 BR RMK QFE 755 SC 04;EQDQ01+000000PRSWM2
0310225500999992000020212004+64530+040470SY-MT+0013ULAA V0202301N00301008101CN0100001N1-00601-00831098321ADDAY181061AY231061GA1081+008109099GF108991081091004501999999MA1098211098221MD1210091+9999MW1851OC100801REMSYN082AAXX  02121 22550 41497 82303 11060 21083 39822 49832 52009 78583 889// 333 88916;MET090ULAA 021200Z 23005G08MPS 9999 -SHSN OVC027CB M05/M07 Q0982 NOSIG RMK QFE735 SCO36 036 036;EQDQ01    003PRSWM1
0210225500999992000020510004+64530+040470FM-15+0013ULAA V0200801N003010033019N0112651N1-01201-01301999999ADDGA1081+003309099GF108991999999999999999999MA1099701999999MW1851REMMET100ULAA 051000Z 08003MPS 9999 -SHSN OVC011CB M12/M13 Q0997 BECMG 2000 SHSN RMK QFE746 SC0,36 0,35 0,35;EQDQ01+000003PRSWM1Q02    003PRSWM1
0112225500999992000021521004+64530+040470FM-12+0013ULAA V0201301N001010300019N0170001N1-00261-00321100191ADDGF106991031051008001031001MD1410001+9999REMSYN060AAXX  15211 22550 42567 61301 11026 21032 40019 54000 83530;
0184225500999992000021805004+64530+040470FM-15+0013ULAA V0201401N005010042019N0112651N1-00401-00501999999ADDGA1081+004209999GF108991999999999999999999MA1100911999999MW1001REMMET090ULAA 180500Z 14005MPS 9999 OVC014 M04/M05 Q1009 TEMPO 1000 SN RMK QFE755 SC0,43 0,43 0,43;EQDQ01+000000PRSWM2
0213225500999992000021911004+64530+040470FM-15+0013ULAA V0202401N006010042019N0112651N1-00201-00601999999ADDGA1071+004209099GA2081+999999999GF108991999999999999999999MA1100611999999MW1001OC101001REMMET095ULAA 191100Z 24006G10MPS 9999 BKN014CB OVC/// M02/M06 Q1006 TEMPO 0800 SHSN RMK QFE 753 SC 045;EQDQ01+000000PRSWM2
0262225500999992000022509004+64530+040470SY-MT+0013ULAA V0203601N003012200019N0100001N1-01191-01321101391ADDGA1071+003909999GF199999031061004501001001MA1101291999999MD1710071+9999MW1001REMSYN060AAXX  25091 22550 42497 33603 11119 21132 40139 57007 83600;MET072ULAA 250900Z 01004MPS 9999 BKN013 M12/M13 Q1013 NOSIG RMK QFE758 SC0,47;EQDQ01+000032SCOTCVQ02+000000PRSWM2
0118225500999992000022604004+64530+040470FM-15+0013ULAA V0203001N00201220001CN0099001N1-02401-02601999999ADDMA1101391999999MW1001REMMET066ULAA 260400Z 30002MPS CAVOK M24/M26 Q1014 NOSIG RMK QFE759 SC0,47;EQDQ01+000000PRSWM2
0283225500999992000031615004+64530+040470SY-MT+0013ULAA V0201501N004010750019N0100001N1+00141-00341101491ADDGA1021+007809999GA2071+999999999GF199999021051008001001021MA1101491999999MD1210181+9999MW1001REMSYN060AAXX  16151 22550 42597 61504 10014 21034 40149 52018 82502;MET077ULAA 161500Z 15006MPS 9999 SCT026 BKN///03/M03 Q1015 NOSIG RMK QFE759 SC0,55;EQDQ01+000062SCOTCVQ02+000000PRSWM2
0118225500999992000031808004+64530+040470FM-15+0013ULAA V0201601N00501220001CN0099001N1-00201-00501999999ADDMA1102611999999MW1001REMMET066ULAA 180800Z 16005MPS CAVOK M02/M05 Q1026 NOSIG RMK QFE 768 SC 06;EQDQ01+000000PRSWM2
0118225500999992000031811004+64530+040470FM-15+0013ULAA V0201601N00401220001CN0099001N1+00201-00601999999ADDMA1102611999999MW1001REMMET066ULAA 181100Z 16004MPS CAVOK 02/M06 Q1026 NOSIG RMK QFE 768 SC 065;EQDQ01+000000PRSWM2
0269225500999992000032218004+64530+040470SY-MT+0013ULAA V0201401N00201220001CN0200001N1-00441-01091099721ADDAA199000091GF100991001001999999001001KA1999M+00251MA1099591999999MD1710031+9999MW1001REMSYN064AAXX  22181 22550 32970 01402 11044 21109 49972 57003 333 10025;MET067ULAA 221800Z 19003MPS CAVOK M04/M11 Q0996 NOSIG RMK QFE 746 SC 065;EQDQ01+000000PRSWM2Q02  00002PRCP99
0188225500999992000032513004+64530+040470FM-15+0013ULAA V0203101N005010075019N0112651N1+00101-00901999999ADDGA1071+007509999GA2071+999999999GF107991999999999999999999MA1100201999999MW1001REMMET078ULAA 251300Z 31005MPS 9999 BKN025 BKN/// 01/M09 Q1002 NOSIG RMK QFE 750 SC 07;EQDQ01+000000PRSWM2
0318225500999992000032909004+64530+040470SY-MT+0013ULAA V0202401N00301003901CN0040001N1-00121-00191101501ADDAY181031AY271031GA1081+003909099GF108991999071002501021999MA1101391999999MD1710121+9999MW1731MW2861REMSYN076AAXX  29091 22550 41396 82403 11012 21019 40150 57012 77387 8872/ 333 88709;MET090ULAA 290900Z 22003MPS 1600 SHSN OVC013CB M02/M03 Q1014 TEMPO 1100 SHSN RMK QFE 759 SC 033;EQDQ01+000082SCOTLCQ02    003PRSWM1
0133225500999992000033100004+64530+040470FM-12+0013ULAA V0202501N005019999999N0220001N1+00251-00111099201ADDGF105991051001999999031001MA1999999099101MD1710071+9999REMSYN066AAXX  31001 22550 42972 52505 10025 21011 39910 49920 57007 85030;
0188225500999992000040608004+64530+040470FM-15+0013ULAA V0201601N005010060019N0112651N1+00301-00101999999ADDGA1081+006009999GF108991999999999999999999MA1100311999999MW1001OC100901REMMET086ULAA 060800Z 16005G09MPS 9999 OVC020 03/M01 Q1003 BECMG 5000 SHSNRA RMK QFE 750 SC 06;EQDQ01+000000PRSWM2
0307225500999992000040709004+64530+040470SY-MT+0013ULAA V0202901N005019999999N0100001N1+00221-00531101281ADDGA1021+007809999GA2071+999999999GF199999051001999999031011MA1101191999999MD1210381+9999MW1001OC101201REMSYN060AAXX  07091 22550 42997 62905 10022 21053 40128 52038 85031;MET093ULAA 070900Z 29008G12MPS 9999 SCT026 BKN/// 02/M05 Q1012 TEMPO 0500 SHSNRA RMK QFE 757 SC 06;EQDQ01+000062SCOTCVQ02+000000PRSWM2
0196225500999992000041606004+64530+040470FM-15+0013ULAA V0202601N004010033019N0112651N1+00201+00001999999ADDGA1071+003309999GA2081+999999999GF108991999999999999999999MA1100611999999MW1001REMMET086ULAA 160600Z 26004MPS 9999 BKN011 OVC/// 02/00 Q1006 BECMG 5000 BR RMK QFE 753 SC 065;EQDQ01+000000PRSWM2
0219225500999992000041904004+64530+040470FM-15+0013ULAA V02099999999999999999N0025001N1+00201+00201999999ADDGA1021+001809999GA2071+999999999GF107991999999999999999999MA1101801999999MW1101REMMET093ULAA 190400Z VRB01MPS 2500 BR SCT006 BKN/// 02/02 Q1018 BECMG 0300 FG RMK VV200 QFE762 SC0,7;EQDQ01+000003PRSWM1Q02    003PRSWM1
0161225500999992000042200004+64530+040470FM-12+0013ULAA V0201401N003010300019N0180001N1+00611+00561101551ADDAY181061AY221061GF108991031051008001031999MA1999999101451MD1710241+9999MW1021REMSYN072AAXX  22001 22550 41568 81403 10061 20056 30145 40155 57024 70282 8353/;
0127225500999992000050114004+64530+040470FM-15+0013ULAA V0200201N00801220001CN0099001N1+00101-01201999999ADDMA1103011999999MW1001OC101201REMMET067ULAA 011400Z 02008G12MPS CAVOK 01/M12 Q1030 NOSIG RMK QFE771 SC0,7;EQDQ01+000000PRSWM2
0224225500999992000050516004+64530+040470FM-15+0013ULAA V0201901N004010030019N0060001N1+00401+00301999999ADDGA1071+003009099GA2081+999999999GF108991999999999999999999MA1099801999999MW1811REMMET098ULAA 051600Z 19004MPS 6000 SHRA BKN010CB OVC/// 04/03 Q0998 TEMPO 1100 SHRA BR RMK QFE 747 SC 065;EQDQ01+000003PRSWM1Q02    003PRSWM1
0237225500999992000051012004+64530+040470SY-MT+0013ULAA V0202001N005019999999N0100001N1+01631+00231101031ADDGF105991021001999999031011MA1101021100931MD1710311+9999MW1001OC101101REMSYN066AAXX  10121 22550 42997 52005 10163 20023 30093 40103 57031 82031;MET065ULAA 101200Z 19007G11MPS CAVOK 16/02 Q1010 NOSIG RMK QFE756 SC07;EQDQ01+000000PRSWM2
0205225500999992000051214004+64530+040470FM-15+0013ULAA V0203601N01001000151CN0050001N1-00201-00201999999ADDGA1091+000159999GF109991999999000251999999MA1099901999999MW1391OC101601REMMET087ULAA 121400Z 36010G16MPS M100 +BLSN VV003 M02/M02 Q0999 NOSIG RMK VV090 QFE 747 SC0,33;EQDQ01+000003PRSWM1Q02    003PRSWM1
0214225500999992000051411004+64530+040470FM-15+0013ULAA V0203301N00601000151CN0003501N1-00101-00201999999ADDGA1091+000159999GF109991999999000251999999MA1099801999999MW1381MW2751OC101001REMMET090ULAA 141100Z 33006G10MPS 0350 +SN BLSN VV003 M01/M02 Q0998 NOSIG RMK VV110 QFE 747 SC 055;EQDQ01+000003PRSWM1Q02    003PRSWM1
0357225500999992000051706004+64530+040470SY-MT+0013ULAA V0203401N00401004201CN0100001N1-00161-00401101171ADDAA100000791AY181061AY221061GA1071+004209099GF107991071091004501001001KA1120N+99999MA1101081999999MD1710071+9999MW1261REMSYN088AAXX  17061 22550 11497 73404 11016 21040 40117 57007 69900 72682 87900 333 21004 87911;MET083ULAA 170600Z 32006MPS 9999 BKN014CB M01/M03 Q1011 TEMPO 0800 SHSN RMK QFE757 SC0,6;EQDQ01+000000PRSWM2Q02    003PRSWM1Q03 -00042ATMN  
0272225500999992000052018004+64530+040470SY-MT+0013ULAA V0200801N00101220001CN0100001N1+01071-00441101601ADDAA199000091GF101991001001999999001021KA1999M+01341MA1101491999999MD1310031+9999MW1001REMSYN070AAXX  20181 22550 32997 10801 10107 21044 40160 53003 80002 333 10134;MET064ULAA 201800 09002MPS CAVOK 11/M03 Q1015 NOSIG RMK QFE 760 SC0,7;EQDQ01+000000PRSWM2Q02  00002PRCP99
0199225500999992000052510004+64530+040470FM-15+0013ULAA V0202901N005019999999N0112651N1+01901+00701999999ADDGA1021+007809099GA2071+999999999GF107991999999999999999999MA1101021999999MW1001REMMET089ULAA 251000Z 29005MPS 9999 SCT026CB BKN/// 19/07 Q1010 TEMPO 5000 TSRA RMK QFE 756 SC 07;EQDQ01+000000PRSWM2
0222225500999992000060414004+64530+040470FM-15+0013ULAA V0202301N007010054019N0112651N1+01401+00201999999ADDGA1071+005409099GA2081+999999999GF108991999999999999999999MA1100311999999MW1801OC101001REMMET088ULAA 041400Z 23007G10MPS 9999 -SHRA BKN018CB OVC/// 14/02 Q1003 NOSIG RMK QFE 751 SC0,7;EQDQ01+000003PRSWM1Q02    003PRSWM1
0164225500999992000061007004+64530+040470FM-15+0013ULAA V0202901N005012200019N0112651N1+00901+00101999999ADDGA1021+003909999GF102991999999999999999999MA1101691999999MW1001REMMET070ULAA 100700Z 29005MPS 9999 FEW013 09/01 Q1017 NOSIG RMK QFE 761 SC0,7;EQDQ01+000000PRSWM2
0186225500999992000062108004+64520+040460FM-15+0013ULAA V0202501N002019999999N0112651N1+01901+01101999999ADDGA1021+007809999GA2071+999999999GF107991999999999999999999MA1101491999999MW1001REMMET076ULAA 210800Z 25002MPS 9999 FEW026 BKN/// 19/11 Q1015 NOSIG RMK QFE760 SC0,7;EQDQ01+000000PRSWM2
0115225500999992000062616004+64520+040460FM-15+0013ULAA V0200601N00501220001CN0099001N1+02701+01301999999ADDMA1101021999999MW1001REMMET063ULAA 261600Z 06005MPS CAVOK 27/13 Q1010 NOSIG RMK QFE 756 SC07;EQDQ01+000000PRSWM2
0188225500999992000070207004+64520+040460FM-15+0013ULAA V0200501N004019999999N0112651N1+00901+00801999999ADDGA1021+006009099GA2081+999999999GF108991999999999999999999MA1101491999999MW1001REMMET078ULAA 020700Z 05004MPS 9999 SCT020CB OVC/// 09/08 Q1015 NOSIG RMK QFE759 SCO65;EQDQ01+000000PRSWM2
0187225500999992000070214004+64520+040460FM-15+0013ULAA V0200601N004019999999N0112651N1+01101+00801999999ADDGA1021+006009099GA2081+999999999GF108991999999999999999999MA1101491999999MW1001REMMET077ULAA 021400Z 06004MPS 9999 SCT020CB OVC/// 11/08 Q1015 NOSIG RMK QFE759 SCO7;EQDQ01+000000PRSWM2
0282225500999992000070509004+64520+040460SY-MT+0013ULAA V0201401N003012200019N0100001N1+02041+01101101061ADDGA1021+007809999GA2071+999999999GF199999031011008001001011MA1101021999999MD1810041+9999MW1001REMSYN060AAXX  05091 22550 42597 61403 10204 20110 40106 58004 83101;MET076ULAA 050900Z 13005MPS 9999 FEW026 BKN/// 21/12 Q1010 NOSIG RMK QFE 756 SC07;EQDQ01+000062SCOTCVQ02+000000PRSWM2
0120225500999992000071619004+64520+040460FM-15+0013ULAA V0202201N00301220001CN0099001N1+02001+01101999999ADDMA1101801999999MW1001REMMET068ULAA 161900Z 22003MPS CAVOK 20/11 Q1018 NOSIG RMK QFE762/1016 SC070;EQDQ01+000000PRSWM2
0120225500999992000072816004+64520+040460FM-15+0013ULAA V0200601N00301220001CN0099001N1+02001+00801999999ADDMA1100711999999MW1001REMMET068ULAA 281600Z 06003MPS CAVOK 20/08 Q1007 NOSIG RMK QFE755/1006 SC070;EQDQ01+000000PRSWM2
0131225500999992000080116004+64520+040460FM-15+0013ULAA V0200501N00501220001CN0099001N1+01701+01001999999ADDMA1101391999999MW1001OC100801REMMET071ULAA 011600Z 05005G08MPS CAVOK 17/10 Q1014 NOSIG RMK QFE760/1013 SC070;EQDQ01+000000PRSWM2
0311225500999992000081106004+64520+040460SY-MT+0013ULAA V0201401N001010027019N0100001N1+01481+01261100381ADDAA100001091GA1071+002709999GA2071+999999999GF105991021011008001031001KA1999N+00631MA1100311999999MD1210021+9999MW1001REMSYN076AAXX  11061 22550 12597 51401 10148 20126 40038 52002 69990 82130 333 20063;MET081ULAA 110600Z VRB01MPS 9999 BKN009 BKN/// 14/12 Q1003 NOSIG RMK QFE751/1001 SC065;EQDQ01+000000PRSWM2
0191225500999992000081211004+64520+040460FM-15+0013ULAA V0202701N004012200019N0112651N1+01901+01201999999ADDGA1021+007809999GA2021+999999999GF104991999999999999999999MA1101191999999MW1001REMMET081ULAA 121100Z 27004MPS 9999 FEW026 SCT/// 19/12 Q1012 NOSIG RMK QFE757/1010 SC070;EQDQ01+000000PRSWM2
0199225500999992000081612004+64520+040460FM-15+0013ULAA V0202801N005010075019N0112651N1+01501+01001999999ADDGA1071+007509099GA2071+999999999GF107991999999999999999999MA1100611999999MW1001REMMET089ULAA 161200Z 28005MPS 9999 BKN025CB BKN/// 15/10 Q1006 TEMPO - SHRA RMK QFE753/1004 SC07;EQDQ01+000000PRSWM2
0200225500999992000081711004+64520+040460FM-15+0013ULAA V0202401N002010036019N0060001N1+01401+01201999999ADDGA1071+003609099GA2081+024009999GF108991999999999999999999MA1100711999999MW1001REMMET090ULAA 171100Z 24002MPS 6000 BKN012CB OVC083 14/12 Q1007 TEMPO 0500 FG RMK QFE754/1006 SC07;EQDQ01+000000PRSWM2
0190225500999992000082910004+64520+040460FM-15+0013ULAA V0202601N003012200019N0112651N1+02001+01201999999ADDGA1021+007809999GA2021+024009999GF102991999999999999999999MA1102101999999MW1001REMMET080ULAA 291000Z 26003MPS 9999 FEW026 FEW083 20/12 Q1021 NOSIG RMK QFE764/1019 SC07;EQDQ01+000000PRSWM2
0247225500999992000083115004+64520+040460SY-MT+0013ULAA V0201801N00101009001CN0100001N1+01861+01131101641ADDGA1071+009009999GF108991081001999999031999MA1101491999999MD1710121+9999MW1001REMSYN060AAXX  31151 22550 42997 81801 10186 20113 40164 57012 8803/;MET073ULAA 311500Z 15001MPS 9999 BKN030 18/13 Q1015 NOSIG RMK QFE760/1013 SC07;EQDQ01+000000PRSWM2
0188225500999992000090311004+64520+040460FM-15+0013ULAA V0201901N005010078019N0112651N1+01801+01201999999ADDGA1071+007809099GF107991999999999999999999MA1100811999999MW1001REMMET094ULAA 031100Z 19005MPS 160V230 9999 BKN026CB 18/12 Q1008 TEMPO 5000 SHRA RMK QFE755/1006 SC065;EQDQ01+000000PRSWM2
0197225500999992000090508004+64520+040460FM-15+0013ULAA V0203501N004010021019N0080001N1+00901+00901999999ADDGA1081+002109999GF108991999999999999999999MA1100001999999MW1631REMMET087ULAA 050800Z 35004MPS 8000 RA OVC007 09/09 Q1000 BECMG 1100 BR RA RMK QFE748/0998 SC06;EQDQ01+000003PRSWM1Q02    003PRSWM1
0202225500999992000090612004+64520+040460FM-15+0013ULAA V0203001N004010048019N0112651N1+00801+00701999999ADDGA1081+004809099GF108991999999999999999999MA1100811999999MW1801OC100701REMMET084ULAA 061200Z 30004G07MPS 9999 -SHRA OVC016CB 08/07 Q1008 NOSIG RMK QFE754/1006 SC06;EQDQ01+000003PRSWM1Q02    003PRSWM1
0177225500999992000090802004+64520+040460FM-15+0013ULAA V0209999C000010069019N0112651N1+00401+00401999999ADDGA1081+006909099GF108991999999999999999999MA1102001999999MW1001REMMET083ULAA 080200Z 00000MPS 9999 OVC023CB 04/04 Q1020 TEMPO 0600 FG RMK QFE763/1018 SC06;EQDQ01+000000PRSWM2
0180225500999992000090917004+64520+040460FM-15+0013ULAA V0201601N005010066019N0112651N1+00801+00501999999ADDGA1081+006609099GF108991999999999999999999MA1100611999999MW1001REMMET086ULAA 091700Z 16005MPS 9999 OVC022CB 08/05 Q1006 TEMPO 3000 SHRA RMK QFE754/1005 SC065;EQDQ01+000000PRSWM2
0202225500999992000091213004+64520+040460FM-15+0013ULAA V0200501N004010084019N0112651N1+01101+00501999999ADDGA1071+008409099GA2071+030009999GF107991999999999999999999MA1100311999999MW1001REMMET092ULAA 121300Z 05004MPS 9999 BKN028CB BKN100 11/05 Q1003 TEMPO 5000 SHRA RMK QFE751/1002 SC07;EQDQ01+000000PRSWM2
0190225500999992000092708004+64520+040460FM-15+0013ULAA V0201801N003010240019N0112651N1+00601+00201999999ADDGA1021+009009999GA2081+024009999GF108991999999999999999999MA1102001999999MW1001REMMET080ULAA 270800Z 18003MPS 9999 SCT030 OVC083 06/02 Q1020 NOSIG RMK QFE764/1018 SC07;EQDQ01+000000PRSWM2
0281225500999992000101715004+64520+040460SY-MT+0013ULAA V0201901N003010081019N0150001N1+00621+00531103401ADDGA1071+008109999GA2081+030009999GF108991081051008001999999MA1103291999999MD1810031+9999MW1001REMSYN070AAXX  17151 22550 42565 81903 10062 20053 40340 58003 885// 333 88629;MET081ULAA 171500Z 18003MPS 9999 BKN027 OVC100 06/05 Q1033 NOSIG RMK QFE773/1031 SC065;EQDQ01+000000PRSWM2
0187225500999992000101900004+64520+040460FM-12+0013ULAA V0202301N004010051019N0130001N1+00681+00551102741ADDAY181061AY221061GA1081+005109059GF108991081031004501999999MA1999999102641MD1710091+9999MW1021REMSYN082AAXX  19001 22550 41463 82304 10068 20055 30264 40274 57009 70282 883// 333 88617;
0179225500999992000102010004+64520+040460FM-15+0013ULAA V0202601N006010030019N0112651N1+00801+00701999999ADDGA1081+003009999GF108991999999999999999999MA1102511999999MW1001REMMET085ULAA 201000Z 26006MPS 9999 OVC010 08/07 Q1025 TEMPO 1100 BR RA RMK QFE768/1024 SC060;EQDQ01+000000PRSWM2
0335225500999992000102318004+64520+040460SY-MT+0013ULAA V0202801N00401005101CN0110001N1+00461+00261100831ADDAA100003091AY181061AY221061GA1071+005109099GF107991071091008001001001KA1120M+00761MA1100811999999MD1210051+9999MW1801OC101201REMSYN088AAXX  23181 22550 11561 72804 10046 20026 40083 52005 60030 78082 87900 333 10076 87929;MET085ULAA 231800Z 30009G12MPS 9999 -SHRA BKN017CB 04/02 Q1008 NOSIG RMK QFE754/1006 SC065;EQDQ01    003PRSWM1
0316225500999992000102609004+64520+040460SY-MT+0013ULAA V0202101N00401005101CN0100001N1+00801+00611099141ADDAY181031AY221031GA1071+005109099GA2071+030009999GF108991081051008001999999MD1310111+9999MW1021REMSYN076AAXX  26091 22550 41597 82104 10080 20061 49914 53011 70282 885// 333 88632;MET093ULAA 260900Z 19005MPS 9999 BKN017CB BKN100 08/06 Q 991 TEMPO 2000 SHRA RMK QFE742/0989 SC060;EQDQ01+000000PRSWM2Q02    003PRSWM1
0163225500999992000102617004+64520+040460FM-15+0013ULAA V0201601N004010030019N0112651N1+00601+00601999999ADDGA1071+003009099GF107991999999999999999999MW1001REMMET084ULAA 261700Z 16004MPS 9999 BKN010CB 06/06 Q 992 TEMPO 2000 BR RMK QFE742/0990 SC065;EQDQ01+000000PRSWM2
0368225500999992000110318004+64520+040460SY-MT+0013ULAA V0201201N00401001501CN0200001N1+00031-00031101841ADDAA100005191AY171061AY221061GA1081+001509999GF108991081061001501999999KA1120M+99999MA1101691999999MD1210121+9999MW1021REMSYN088AAXX  03181 22550 11270 81204 10003 21003 40184 52012 60050 70272 886// 333 11009 88704;MET094ULAA 031800Z 16003MPS 8000 OVC005 00/M00 Q1017 TEMPO 0500 SHSNRA RMK QFE762/1016 QBB150 SC034;EQDQ01+000000PRSWM2Q02    003PRSWM1Q03 -00092ATMX  
