0131946620999992000111810004-33050+137500FM-12+001199999V0201301N002119999999N9999999N1+02261+01521100971ADDAA199000091MA1999999098921MD1210281+9999REMSYN060AAXX  18104 94662 35/// /1304 10226 20152 39892 40097 52028;EQDQ01  00002PRCP99
0131946620999992000112510004-33050+137500FM-12+001199999V0201901N002119999999N9999999N1+02471+00911101321ADDAA199000091MA1999999099271MD1210211+9999REMSYN060AAXX  25104 94662 35/// /1904 10247 20091 39927 40132 52021;EQDQ01  00002PRCP99
0131946620999992000112922004-33050+137500FM-12+001199999V0202101N005119999999N9999999N1+01751+00871101601ADDAA199000091MA1999999099541MD1210111+9999REMSYN060AAXX  29224 94662 35/// /2110 10175 20087 39954 40160 52011;EQDQ01  00002PRCP99
0124946620999992000113013004-33050+137500FM-12+001199999V0202601N002119999999N9999999N1+01141+00681102061ADDKA1999M+02421MA1999999100001MD1210161+9999REMSYN070AAXX  30134 94662 45/// /2604 10114 20068 30000 40206 52016 333 10242;
0101946620999992000120207004-33050+137500FM-12+001199999V0203301N005119999999N9999999N1+03221-00191100981ADDMA1999999098941MD1710131+9999REMSYN060AAXX  02074 94662 45/// /3310 10322 21019 39894 40098 57013;
0131946620999992000120604004-33050+137500FM-12+001199999V0201401N006219999999N9999999N1+02461+00591101471ADDAA199000091MA1999999099421MD1710211+9999REMSYN060AAXX  06044 94662 35/// /1412 10246 20059 39942 40147 57021;EQDQ01  00002PRCP99
0161946630999992000010119004-34980+137400FM-12+005499999V0201301N001012200019N0500001N1+01261+00951101691ADDAY101999AY201999GF101991011051008001001001MA1999999101071MD1710011+9999MW1031REMSYN072AAXX  01194 94663 41584 11302 10126 20095 30107 40169 57001 70300 81500;
0178946630999992000012616004-34980+137400FM-12+005499999V0201801N005110120019N0400001N1+01591+00941101561ADDAA112000591AY181999AY221999GF106991061051012501001001MA1999999100941MD1710051+9999MW1011REMSYN078AAXX  26164 94663 11682 61810 10159 20094 30094 40156 57005 69962 70182 86500;
0171946630999992000030819004-34980+137400FM-12+005499999V0201301N001012200019N0500001N1+01751+01471101711ADDAY101999AY201999GA1001+999999999GF100991001001999999001001MA1999999101081MD1710071+9999MW1021REMSYN066AAXX  08194 94663 41984 01302 10175 20147 30108 40171 57007 70200;
0201946630999992000040217004-34980+137400FM-12+005499999V0203101N000512200019N0500001N1+01331+01181101531ADDAA199000091AY101999AY201999GA1001+999999999GF100991001001999999001001MA1999999100901MD1710101+9999MW1021REMSYN066AAXX  02174 94663 31984 03101 10133 20118 30090 40153 57010 70200;EQDQ01  00002PRCP99
0201946630999992000050917004-34980+137400FM-12+005499999V0200501N002112200019N0500001N1+01121+00861102541ADDAA199000091AY111999AY211999GA1001+999999999GF100991001001999999001001MA1999999101901MD1710051+9999MW1021REMSYN066AAXX  09174 94663 31984 00504 10112 20086 30190 40254 57005 70211;EQDQ01  00002PRCP99
0178946630999992000060423004-34980+137400FM-12+005499999V0202001N000510075019N0400001N1+01051+00581102711ADDAA124004191AY181999AY221999GF106991061051008001001001MA1999999102061MD1210201+9999MW1031REMSYN078AAXX  04234 94663 11582 62001 10105 20058 30206 40271 52020 60044 70382 86500;
0178946630999992000081905004-34980+137390FM-12+005499999V0202901N002110075019N0400001N1+01431+01111101541ADDAA106000891AY181999AY221999GF107991061051008001001021MA1999999100901MD1710111+9999MW1021REMSYN078AAXX  19054 94663 11582 72904 10143 20111 30090 40154 57011 69981 70282 86502;
0178946630999992000082805004-34980+137390FM-12+005499999V0202301N001010042019N0200001N1+01491+00771101011ADDAA106000791AY111999AY211999GF107991071031004501001001MA1999999100371MD1710101+9999MW1801REMSYN078AAXX  28054 94663 11470 72302 10149 20077 30037 40101 57010 69901 78011 87300;
0161946630999992000091720004-34980+137390FM-12+005499999V0202701N002110075019N0300001N1+01251+00851102131ADDAY121999AY221999GF108991081051008001999999MA1999999101491MD1210021+9999MW1021REMSYN072AAXX  17204 94663 41580 82704 10125 20085 30149 40213 52002 70222 885//;
0171946640999992000010604004-33020+137520FM-12+001599999V0201601N006212200019N0500001N1+02441+00791101751ADDAA106000091AY101999AY201999GF102991001001999999001021MA1999999101571MW1021REMSYN066AAXX  06044 94664 31/84 21612 10244 20079 30157 40175 70200 80002;EQDQ01  00002PRCP06
0151946640999992000021619004-33020+137520FM-12+001599999V0209999C000012200019N0500001N1+01951+01431101181ADDAY101999AY201999GA1001+999999999GF100991001001999999001001MA1999999101001MW1021REMSYN060AAXX  16194 94664 41984 00000 10195 20143 30100 40118 70200;
0171946640999992000022610004-33020+137520FM-12+001599999V0201801N003112200019N0500001N1+02501+01771101691ADDAA199000091AY101999AY201999GF103991031001999999071001MA1999999101511MW1021REMSYN066AAXX  26104 94664 31/84 31806 10250 20177 30151 40169 70200 83070;EQDQ01  00002PRCP99
0191946640999992000032811004-33020+137520FM-12+001599999V0201801N002612200019N0500001N1+01871+01421102211ADDAA199000091AY101999AY201999GF101991011011008001001001MA1999999102041MD1210241+9999MW1021REMSYN072AAXX  28114 94664 31584 11805 10187 20142 30204 40221 52024 70200 81100;EQDQ01  00002PRCP99
0191946640999992000040105004-33020+137520FM-12+001599999V0200901N004112200019N0500001N1+02421+01031101721ADDAA199000091AY101999AY201999GF103991031031008001001001MA1999999101551MD1710211+9999MW1031REMSYN072AAXX  01054 94664 31584 30908 10242 20103 30155 40172 57021 70300 83300;EQDQ01  00002PRCP99
0201946640999992000051711004-33020+137520FM-12+001599999V0201301N001012200019N0500001N1+01191+01021103211ADDAA199000091AY101999AY201999GA1001+999999999GF100991001001999999001001MA1999999103031MD1210071+9999MW1011REMSYN066AAXX  17114 94664 31984 01302 10119 20102 30303 40321 52007 70100;EQDQ01  00002PRCP99
0171946640999992000052620004-33020+137520FM-12+001599999V0202901N005112200019N0500001N1+00521+00171101291ADDAY101999AY201999GA1001+999999999GF100991001001999999001001MA1999999101111MD1210201+9999MW1011REMSYN066AAXX  26204 94664 41984 02910 10052 20017 30111 40129 52020 70100;
0161946640999992000060120004-33020+137520FM-12+001599999V0201301N002610075019N0500001N1+01161+00581102631ADDAY121999AY221999GF107991071051008001001001MA1999999102451MD1210101+9999MW1021REMSYN072AAXX  01204 94664 41584 71305 10116 20058 30245 40263 52010 70222 87500;
0201946640999992000080223004-33010+137520FM-12+001599999V0203601N001012200019N0500001N1+01021+00111102421ADDAA199000091AY101999AY201999GA1001+999999999GF100991001001999999001001MA1999999102241MD1210051+9999MW1021REMSYN066AAXX  02234 94664 31984 03602 10102 20011 30224 40242 52005 70200;EQDQ01  00002PRCP99
0191946640999992000081211004-33010+137520FM-12+001599999V0201801N002112200019N0500001N1+00871+00631102891ADDAA199000091AY111999AY211999GF104991021021008001001061MA1999999102711MD1210111+9999MW1011REMSYN072AAXX  12114 94664 31584 41804 10087 20063 30271 40289 52011 70111 82206;EQDQ01  00002PRCP99
0191946640999992000092805004-33010+137520FM-12+001599999V0203601N005112200019N0500001N1+03141+01651100471ADDAA199000091AY101999AY201999GF101991011001999999081001MA1999999100301MD1710371+9999MW1021REMSYN072AAXX  28054 94664 31/84 13610 10314 20165 30030 40047 57037 70200 81080;EQDQ01  00002PRCP99
0191946640999992000093023004-33010+137520FM-12+001599999V0201801N006212200019N0500001N1+01551+01041102221ADDAA199000091AY101999AY201999GF104991041081008001001001MA1999999102041MD1210211+9999MW1031REMSYN072AAXX  30234 94664 31584 41812 10155 20104 30204 40222 52021 70300 84800;EQDQ01  00002PRCP99
0201946640999992000102017004-33010+137520FM-12+001599999V0201801N002112200019N0500001N1+01201+01121101821ADDAA199000091AY101999AY201999GA1001+999999999GF100991001001999999001001MA1999999101641MD1710161+9999MW1021REMSYN066AAXX  20174 94664 31984 01804 10120 20112 30164 40182 57016 70200;EQDQ01  00002PRCP99
0201946640999992000102822004-33010+137520FM-12+001599999V0202301N001012200019N0500001N1+01681+00841102111ADDAA199000091AY101999AY201999GA1001+999999999GF100991001001999999001001MA1999999101931MD1210101+9999MW1021REMSYN066AAXX  28224 94664 31984 02302 10168 20084 30193 40211 52010 70200;EQDQ01  00002PRCP99
0191946640999992000120704004-33010+137520FM-12+001599999V0201301N004119999999N0500001N1+02461+00921101111ADDAA199000091AY121999AY221999GF108991081001999999071999MA1999999100941MD1710171+9999MW1031REMSYN072AAXX  07044 94664 31/84 81308 10246 20092 30094 40111 57017 70322 8807/;EQDQ01  00002PRCP99
0171946640999992000121819004-33010+137520FM-12+001599999V0209999C000012200019N0500001N1+02001+01581101161ADDAY101999AY201999GA1001+999999999GF100991001001999999001001MA1999999100991MD1210011+9999MW1021REMSYN066AAXX  18194 94664 41984 00000 10200 20158 30099 40116 52001 70200;
0191946650999992000010110004-34370+137670FM-12+018699999V0201301N004612200019N0400001N1+01321+00771101791ADDAA106000091AY111999AY211999GF103991031001999999071001MA1999999099641MD1210091+9999MW1011REMSYN072AAXX  01104 94665 31/82 31309 10132 20077 39964 40179 52009 70111 83070;EQDQ01  00002PRCP06
0191946650999992000011310004-34370+137670FM-12+018699999V0201301N001019999999N0400001N1+02921+01211101091ADDAA106000091AY121999AY221999GF107991071001999999091999MA1999999098961MD1210061+9999MW1021REMSYN072AAXX  13104 94665 31/82 71302 10292 20121 39896 40109 52006 70222 8709/;EQDQ01  00002PRCP06
0201946650999992000030410004-34370+137670FM-12+018699999V0201801N002612200019N0400001N1+01681+01111101911ADDAA199000091AY101999AY201999GA1001+999999999GF100991001001999999001001MA1999999099751MD1110061+9999MW1021REMSYN066AAXX  04104 94665 31982 01805 10168 20111 39975 40191 51006 70200;EQDQ01  00002PRCP99
0201946650999992000032611004-34370+137670FM-12+018699999V0201301N001012200019N0400001N1+01781+01341101491ADDAA199000091AY101999AY201999GA1001+999999999GF100991001001999999001001MA1999999099341MD1210111+9999MW1011REMSYN066AAXX  26114 94665 31982 01302 10178 20134 39934 40149 52011 70100;EQDQ01  00002PRCP99
0191946650999992000041305004-34370+137670FM-12+018699999V0203101N006719999999N0400001N1+02451+01671101061ADDAA199000091AY121999AY221999GF108991081001999999091999MA1999999098891MD1610091+9999MW1021REMSYN072AAXX  13054 94665 31/82 83113 10245 20167 39889 40106 56009 70222 8809/;EQDQ01  00002PRCP99
0191946650999992000041605004-34370+137670FM-12+018699999V0202301N002610075019N0400001N1+01821+01101101321ADDAA199000091AY121999AY221999GF107991071061008001001001MA1999999099151MD1610011+9999MW1031REMSYN072AAXX  16054 94665 31582 72305 10182 20110 39915 40132 56001 70322 87600;EQDQ01  00002PRCP99
0172946650999992000051211004-34370+137670FM-12+018699999V0202301N004610042019N0100001N1+01421+01041101091ADDAA199000021AY121999AY221999GF108991081051004501999999MA1999999098901MD1210201+9999MW1031REMSYN072AAXX  12114 94665 31460 82309 10142 20104 39890 40109 52020 70322 885//;
0161946650999992000051302004-34370+137670FM-12+018699999V0203101N006712200019N0400001N1+01581+00691101061ADDAY101999AY201999GF102991021031012501001001MA1999999098871MD1610031+9999MW1021REMSYN072AAXX  13024 94665 41682 23113 10158 20069 39887 40106 56003 70200 82300;
0191946650999992000060623004-34370+137670FM-12+018699999V0201301N001019999999N0400001N1+01161+01001103271ADDAA199000091AY121999AY221999GF108991081001999999071999MA1999999101011MD1210111+9999MW1021REMSYN072AAXX  06234 94665 31/82 81302 10116 20100 30101 40327 52011 70222 8807/;EQDQ01  00002PRCP99
0178946650999992000062911004-34360+137670FM-12+018699999V0201801N001019999999N0100001N1+00971+00911102561ADDAA106002091AY161999AY221999GF106991061001999999071001MA1999999100321MD1210131+9999MW1021REMSYN078AAXX  29114 94665 11/60 61802 10097 20091 30032 40256 52013 60021 70262 86070;
0161946650999992000071708004-34360+137670FM-12+018699999V0200501N001012200019N0400001N1+01541+00691102141ADDAY101999AY201999GF104991041051008001001001MA1999999099901MD1710101+9999MW1031REMSYN072AAXX  17084 94665 41582 40502 10154 20069 39990 40214 57010 70300 84500;
0161946650999992000081420004-34360+137670FM-12+018699999V0202301N001019999999N0400001N1+00641+00551101801ADDAY161999AY261999GF107991071001999999071001MA1999999099571MD1210061+9999MW1021REMSYN072AAXX  14204 94665 41/82 72302 10064 20055 39957 40180 52006 70266 87070;
0191946650999992000081523004-34360+137670FM-12+018699999V0200901N002612200019N0400001N1+00931+00441102471ADDAA199000091AY111999AY211999GF104991001001999999001041MA1999999100231MD1210161+9999MW1011REMSYN072AAXX  15234 94665 31/82 40905 10093 20044 30023 40247 52016 70111 80004;EQDQ01  00002PRCP99
0161946650999992000081902004-34360+137670FM-12+018699999V0202701N001012200019N0400001N1+01521+01091101701ADDAY111999AY211999GF102991001001999999001041MA1999999099471MD1610071+9999MW1011REMSYN072AAXX  19024 94665 41/82 22702 10152 20109 39947 40170 56007 70111 80004;
0161946650999992000082002004-34360+137670FM-12+018699999V0202301N002610075019N0400001N1+01521+00741101761ADDAY111999AY211999GF107991071051008001001001MA1999999099531MD1610051+9999MW1031REMSYN072AAXX  20024 94665 41582 72305 10152 20074 39953 40176 56005 70311 87500;
0161946650999992000082802004-34360+137670FM-12+018699999V0202301N003112200019N0400001N1+01441+00451101191ADDAY101999AY201999GF104991041021008001001001MA1999999098971MD1410001+9999MW1031REMSYN072AAXX  28024 94665 41582 42306 10144 20045 39897 40119 54000 70300 84200;
0191946650999992000090511004-34360+137670FM-12+018699999V0202301N001019999999N0400001N1+00991+00671101481ADDAA199000091AY121999AY221999GF108991081001999999071999MA1999999099271MD1210081+9999MW1021REMSYN072AAXX  05114 94665 31/82 82302 10099 20067 39927 40148 52008 70222 8807/;EQDQ01  00002PRCP99
0191946650999992000100123004-34360+137670FM-12+018699999V0202301N002619999999N0400001N1+01371+00651102561ADDAA199000091AY121999AY221999GF107991071001999999071999MA1999999100351MD1210091+9999MW1031REMSYN072AAXX  01234 94665 31/82 72305 10137 20065 30035 40256 52009 70322 8707/;EQDQ01  00002PRCP99
0171946650999992000100220004-34360+137670FM-12+018699999V0201801N001012200019N0400001N1+00651+00541102391ADDAY101999AY201999GA1001+999999999GF100991001001999999001001MA1999999100181MD1810131+9999MW1021REMSYN066AAXX  02204 94665 41982 01802 10065 20054 30018 40239 58013 70200;
0171946650999992000100908004-34360+137670FM-12+018699999V0202301N002612200019N0400001N1+01431+00471101941ADDAY101999AY201999GA1001+999999999GF100991001001999999001001MA1999999099741MD1210031+9999MW1011REMSYN066AAXX  09084 94665 41982 02305 10143 20047 39974 40194 52003 70100;
0191946650999992000102005004-34360+137670FM-12+018699999V0201301N001010075019N0400001N1+01941+01161102211ADDAA199000091AY121999AY221999GF106991061021008001001001MA1999999100011MD1610241+9999MW1021REMSYN072AAXX  20054 94665 31582 61302 10194 20116 30001 40221 56024 70222 86200;EQDQ01  00002PRCP99
0191946650999992000102311004-34360+137670FM-12+018699999V0201301N004619999999N0400001N1+01461+01161101381ADDAA199000091AY111999AY211999GF108991001001999999001071MA1999999099191MD1210201+9999MW1031REMSYN072AAXX  23114 94665 31/82 81309 10146 20116 39919 40138 52020 70311 80007;EQDQ01  00002PRCP99
0191946650999992000111104004-34360+137670FM-12+018699999V0201301N001019999999N0100001N1+01941+01351101651ADDAA199000091AY121999AY221999GF108991081001999999071999MA1999999099481MD1710141+9999MW1021REMSYN072AAXX  11044 94665 31/60 81302 10194 20135 39948 40165 57014 70222 8807/;EQDQ01  00002PRCP99
0171946650999992000112319004-34360+137670FM-12+018699999V0200901N002612200019N0400001N1+01531+01351101191ADDAY101999AY201999GA1001+999999999GF100991001001999999001001MA1999999099031MD1710011+9999MW1021REMSYN066AAXX  23194 94665 41982 00905 10153 20135 39903 40119 57001 70200;
0161946650999992000112701004-34360+137670FM-12+018699999V0203101N009312200019N0400001N1+03721+00321101141ADDAY101999AY201999GF103991031001999999081001MA1999999098981MD1610141+9999MW1011REMSYN072AAXX  27014 94665 41/82 33118 10372 20032 39898 40114 56014 70100 83080;
0161946650999992000120501004-34360+137670FM-12+018699999V0201301N002612200019N0400001N1+02771+00911101731ADDAY101999AY201999GF102991001001999999001041MA1999999099571MD1410001+9999MW1021REMSYN072AAXX  05014 94665 41/82 21305 10277 20091 39957 40173 54000 70200 80004;
0171946650999992000120907004-34360+137670FM-12+018699999V0201801N001012200019N0400001N1+03181+00801100881ADDAY101999AY201999GA1001+999999999GF100991001001999999001001MA1999999098741MD1710151+9999MW1021REMSYN066AAXX  09074 94665 41982 01802 10318 20080 39874 40088 57015 70200;
0144946670999992000022622004-33970+137720FM-12+004499999V0201301N004619999999N0400001N1+02061+01451999999ADDAA199000091AY121999AY221999GF108991081001999999061999MW1031REMSYN054AAXX  26224 94667 31/82 81309 10206 20145 70322 8806/;EQDQ01  00002PRCP99
0131946670999992000040405004-33970+137720FM-12+004499999V0202301N009310120019N0300001N1+02001+00951999999ADDAA106000591AY111999AY211999GF105991051011012501001001MW1031REMSYN060AAXX  04054 94667 11680 52318 10200 20095 69961 70311 85100;
0144946670999992000040605004-33970+137720FM-12+004499999V0200501N001012200019N0500001N1+02281+00751999999ADDAA199000091AY101999AY201999GF102991001001999999001041MW1031REMSYN054AAXX  06054 94667 31/84 20502 10228 20075 70300 80004;EQDQ01  00002PRCP99
0144946670999992000100523004-33960+137710FM-12+004499999V0209999C000019999999N0450001N1+01771+01351999999ADDAA199000091AY141999AY211999GF105991051001999999071001MW1031REMSYN054AAXX  05234 94667 31/83 50000 10177 20135 70341 85070;EQDQ01  00002PRCP99
0144946670999992000102505004-33960+137710FM-12+004499999V0202301N004612200019N0500001N1+02241+02211999999ADDAA199000091AY111999AY211999GF104991021001999999041011MW1031REMSYN054AAXX  25054 94667 31/84 42309 10224 20221 70311 82041;EQDQ01  00002PRCP99
0148946680999992000011722004-33150+136420FM-12+026399999V0209999C000010360019N0500001N1+02681+01901999999ADDAA199000091AY121999AY221999GF106991031021008001081001MW1031REMSYN058    AAXX  17224 94668 31584 60000 10268 20190 70322 83280;EQDQ01  00002PRCP99
0114946680999992000012319004-33150+136420FM-12+026399999V0209999C000010360019N0500001N1+01941+00111999999ADDAY161999AY211999GF107991021021008001071001MW1031REMSYN054AAXX  23194 94668 41584 70000 10194 20011 70361 82270;
0144946680999992000021322004-33150+136420FM-12+026399999V0200901N001019999999N0500001N1+02371+00911999999ADDAA199000091AY121999AY221999GF105991031001999999081041MW1021REMSYN054AAXX  13224 94668 31/84 50902 10237 20091 70222 83084;EQDQ01  00002PRCP99
0114946680999992000021819004-33150+136420FM-12+026399999V0203101N006212200019N0500001N1+02851+01741999999ADDAY111999AY211999GF102991021001999999081001MW1011REMSYN054AAXX  18194 94668 41/84 23112 10285 20174 70111 82080;
0144946680999992000031022004-33150+136420FM-12+026399999V0209999C000012200019N0500001N1+02341+01061999999ADDAA199000091AY101999AY201999GF102991001001999999001041MW1031REMSYN054AAXX  10224 94668 31/84 20000 10234 20106 70300 80004;EQDQ01  00002PRCP99
0144946680999992000060505004-33150+136420FM-12+026399999V0201801N002110075019N0500001N1+01281+00251999999ADDAA199000091AY111999AY211999GF108991081051008001999999MW1031REMSYN054AAXX  05054 94668 31584 81804 10128 20025 70311 885//;EQDQ01  00002PRCP99
0144946680999992000061905004-33150+136420FM-12+026399999V0203301N005112200019N0500001N1+01901+00361999999ADDAA199000091AY101999AY201999GF102991021021008001001001MW1031REMSYN054AAXX  19054 94668 31584 23310 10190 20036 70300 82200;EQDQ01  00002PRCP99
0124946680999992000071920004-33150+136420FM-12+026399999V0203101N001012200019N0500001N1+00581+00351999999ADDAY111999AY211999GA1001+999999999GF100991001001999999001001MW1011REMSYN048AAXX  19204 94668 41984 03102 10058 20035 70111;
0144946680999992000091005004-33150+136420FM-12+026399999V0202601N002110075019N0300001N1+01601+00941999999ADDAA199000091AY121999AY221999GF106991061061008001021999MW1031REMSYN054AAXX  10054 94668 31580 62604 10160 20094 70322 8662/;EQDQ01  00002PRCP99
0144946680999992000102805004-33150+136420FM-12+026399999V0209999C000012200019N0500001N1+01961+00081999999ADDAA199000091AY101999AY201999GF104991001001999999001021MW1031REMSYN054AAXX  28054 94668 31/84 40000 10196 20008 70300 80002;EQDQ01  00002PRCP99
0144946680999992000122922004-33150+136420FM-12+026399999V0209999C000012200019N0500001N1+02321+00741999999ADDAA199000091AY101999AY201999GF104991031001999999081041MW1031REMSYN054AAXX  29224 94668 31/84 40000 10232 20074 70300 83084;EQDQ01  00002PRCP99
0154946690999992000020522004-33180+138020FM-12+000399999V0201301N002612200019N0500001N1+01831+00671999999ADDAA199000091AY111999AY211999GA1001+999999999GF100991001001999999001001MW1021REMSYN048AAXX  05224 94669 31984 01305 10183 20067 70211;EQDQ01  00002PRCP99
0144946690999992000021404004-33180+138020FM-12+000399999V0203101N002610150019N0500001N1+03081+01571999999ADDAA199000091AY121999AY221999GF106991061051017501001001MW1031REMSYN054AAXX  14044 94669 31784 63105 10308 20157 70322 86500;EQDQ01  00002PRCP99
0144946690999992000032923004-33180+138020FM-12+000399999V0202301N001519999999N0500001N1+01801+01271999999ADDAA199000091AY121999AY221999GF107991071001999999091001MW1031REMSYN054AAXX  29234 94669 31/84 72303 10180 20127 70322 87090;EQDQ01  00002PRCP99
0131946690999992000041323004-33180+138020FM-12+000399999V0202301N002619999999N0400001N1+02031+01841999999ADDAA124001091AY121999AY221999GF107991071001999999071001MW1031REMSYN060AAXX  13234 94669 11/82 72305 10203 20184 60014 70322 87070;
0131946690999992000043023004-33180+138020FM-12+000399999V0201101N001012200019N0500001N1+01331+00981999999ADDAA124000191AY111999AY211999GF101991011021017501001001MW1011REMSYN060AAXX  30234 94669 11784 11102 10133 20098 69924 70111 81200;
0131946690999992000052905004-33180+138020FM-12+000399999V0202301N002610120019N0200001N1+01401+01121999999ADDAA106000891AY161999AY261999GF106991061021012501001001MW1031REMSYN060AAXX  29054 94669 11670 62305 10140 20112 69981 70366 86200;
0144946690999992000110204004-33170+138020FM-12+000399999V0202701N003110150019N0500001N1+02251+00961999999ADDAA199000091AY111999AY211999GF105991051021017501001001MW1011REMSYN054AAXX  02044 94669 31784 52706 10225 20096 70111 85200;EQDQ01  00002PRCP99
0191946700999992000012822004-33780+138220FM-12+010399999V0201801N006712200019N0500001N1+01701+01171102261ADDAA199000091AY101999AY201999GF101991011051008001001001MA1999999101061MD1210161+9999MW1021REMSYN072AAXX  28224 94670 31584 11813 10170 20117 30106 40226 52016 70200 81500;EQDQ01  00002PRCP99
0178946700999992000040323004-33780+138220FM-12+010399999V0202901N009310042019N0200001N1+01741+01521101581ADDAA124000591AY181999AY281999GF108991081021004501999999MA1999999100371MD1210221+9999MW1021REMSYN078AAXX  03234 94670 11470 82918 10174 20152 30037 40158 52022 69944 70288 882//;
0191946700999992000062405004-33780+138210FM-12+010399999V0203101N002610120019N0500001N1+01701+01051102131ADDAA199000091AY111999AY211999GF107991071051012501999999MA1999999100891MD1710081+9999MW1021REMSYN072AAXX  24054 94670 31684 73105 10170 20105 30089 40213 57008 70211 875//;EQDQ01  00002PRCP99
0201946700999992000080223004-33780+138210FM-12+010399999V0200201N004612200019N0500001N1+00981+00291102591ADDAA199000091AY101999AY201999GA1001+999999999GF100991001001999999001001MA1999999101341MD1210071+9999MW1021REMSYN066AAXX  02234 94670 31984 00209 10098 20029 30134 40259 52007 70200;EQDQ01  00002PRCP99
0191946700999992000112104004-33780+138210FM-12+010399999V0201601N006712200019N0500001N1+02791+01191101081ADDAA199000091AY111999AY211999GF104991011011012501001081MA1999999099881MD1710231+9999MW1021REMSYN072AAXX  21044 94670 31684 41613 10279 20119 39988 40108 57023 70211 81108;EQDQ01  00002PRCP99
0131946710999992000052505004-34650+138530FM-12+000399999V0202901N004610120019N0250001N1+01791+01071999999ADDAA106000791AY111999AY211999GF106991051081008001001011MW1031REMSYN060AAXX  25054 94671 11575 62909 10179 20107 69901 70311 85801;
0144946710999992000060905004-34650+138530FM-12+000399999V0201801N004612200019N0400001N1+01491+00841999999ADDAA199000091AY101999AY201999GF101991011081012501001001MW1031REMSYN054AAXX  09054 94671 31682 11809 10149 20084 70300 81800;EQDQ01  00002PRCP99
0186946720999992000010812004-34930+138520SY-MT+0004YPAD V0202301N001519999999Y0099001N1+02281+00831101321ADDMA1101291101271MW1001REMSYN054AAXX  08124 94672 46/// /2303 10228 20083 30127 40132;MET074YPAD 1200Z 23003KT CAVOK 23/08 Q1013 RMK RF00.0/000.0 BKN130 BKN200 NOSIG;EQDQ01+000000PRSWM2
0155946720999992000011014004-34930+138520FM-15+0004YPAD V0201301N00361220001CN0099001N1+02601+00701999999ADDMA1101191999999MW1001REMMET103YPAD 101400Z 13007KT CAVOK 26/07 Q1012 FM1400 SEV TURB BLW 3000FT TILL 1600 FM1600 MOD TURB BLW 3000FT;EQDQ01+000000PRSWM2
0172946720999992000011221004-34930+138520SY-MT+0004YPAD V0200401N003119999999Y0099001N1+02701+00641101271ADDMA1101191101221MW1001REMSYN054AAXX  12214 94672 46/// /0406 10270 20064 30122 40127;MET060YPAD 2100Z 04006KT CAVOK 27/06 Q1012 RMK RF00.0/000.0 NOSIG;EQDQ01+000000PRSWM2
0346946720999992000012213004-34930+138520SY-MT+0004YPAD V0201801N002112200019N0300001N1+01401+00681101911ADDAY121999AY221999GA1021+010509999GA2071+090009999GF199999031051008001999011KA1999M+02101MA1101901101861MD1210071+9999MW1031REMSYN082AAXX  22134 94672 41580 41804 10140 20068 30186 40191 52007 70322 835/1 333 10210;MET073YPAD 1300Z 18005KT 9999 FEW035 BKN300 14/06 Q1019 RMK RF00.0/000.0 NOSIG;EQDQ01+000042SCOTCVQ02+000000PRSWM2Q03    003PRSWM1
0226946720999992000012712004-34930+138520SY-MT+0004YPAD V0201801N005712200019N0112651N1+01591+00871102011ADDGA1021+010509999GF104991999999999999999999MA1102001101961MW1001REMSYN054AAXX  27124 94672 46/// /1811 10159 20087 30196 40201;MET072YPAD 271200Z 18011KT 9999 SCT035 16/09 Q1020 FM1200 MOD TURB BLW 5000FT;EQDQ01+000000PRSWM2
0097946720999992000013011004-34930+138520FM-15+0004YPAD V0201301N00311220001CN0099001N1+02301+01201999999ADDMA1101591999999MW1001REMMET045YPAD 301100Z 13006KT CAVOK 23/12 Q1016 NOSIG;EQDQ01+000000PRSWM2
0321946720999992000020519004-34930+138520SY-MT+0004YPAD V0201501N003112200019N0300001N1+01541+00941102331ADDAY101999AY201999GA1021+007809999GF199999011081008001001001MA1102301102281MD1210021+9999MW1021REMSYN072AAXX  05194 94672 41580 11506 10154 20094 30228 40233 52002 70200 81800;MET087YPAD 1900Z 14009KT 9999 FEW026 15/09 Q1023 RMK RF00.0/000.0 FM1900 MOD TURB BLW 3000FT;EQDQ01+000012SCOTCVQ02+000000PRSWM2Q03    003PRSWM1
0296946720999992000020804004-34930+138520SY-MT+0004YPAD V0202601N00311220001CN0300001N1+03441+01071101611ADDAA199000091AY121999AY221999GF106991011021022501071081MA1101591101561MD1710191+9999MW1011REMSYN072AAXX  08044 94672 31880 62606 10344 20107 30156 40161 57019 70122 81278;MET067YPAD 0400Z 27004KT CAVOK 33/11 Q1016 RMK RF00.0/000.0 BKN120 NOSIG;EQDQ01+000000PRSWM2Q02  00002PRCP99Q03    003PRSWM1
0172946720999992000021318004-34930+138520SY-MT+0004YPAD V0209999C000019999999Y0099001N1+01371+00831101521ADDMA1101491101471MW1001REMSYN054AAXX  13184 94672 46/// /0000 10137 20083 30147 40152;MET060YPAD 1800Z 00000KT CAVOK 14/08 Q1015 RMK RF00.0/000.0 NOSIG;EQDQ01+000000PRSWM2
0267946720999992000022223004-34930+138520FM-15+0004YPAD V0202301N003110030019N0112651N1+02101+01801999999ADDGA1071+003009999GA2071+005409999GF107991999999999999999999MA1101191999999MW1511REMMET141YPAD 2300Z 23006KT 9999 -DZ BKN010 BKN018 21/18 Q1012 RMK RF00.0/000.0 FM2300 23008KT 9999 -DZ SCT010 BKN020 INTER 2300/0001 6000 -DZ BKN010;EQDQ01+000003PRSWM1Q02    003PRSWM1
0296946720999992000022722004-34930+138520SY-MT+0004YPAD V0209999C000019999999N0300001N1+02361+01441101931ADDAA199000091AY121999AY221999GF107991071001999999031999MA1101901101881MD1210151+9999MW1031REMSYN072AAXX  27224 94672 31980 71500 10236 20144 30188 40193 52015 70322 8703/;MET067YPAD 2200Z 05001KT CAVOK 22/15 Q1019 RMK RF00.0/000.0 BKN100 NOSIG;EQDQ01+000000PRSWM2Q02  00002PRCP99Q03    003PRSWM1
0097946720999992000022805004-34930+138520FM-15+0004YPAD V0202301N00721220001CN0099001N1+03001+00901999999ADDMA1101691999999MW1001REMMET045YPAD 280500Z 23014KT CAVOK 30/09 Q1017 NOSIG;EQDQ01+000000PRSWM2
0241946720999992000030403004-34930+138520SY-MT+0004YPAD V0201701N003612200019N0112651N1+02261+00891102071ADDGA1021+009009999GF102991999999999999999999MA1102001102021MW1001REMSYN054AAXX  04034 94672 46/// /1707 10226 20089 30202 40207;MET087YPAD 0300Z 17007KT 9999 FEW030 23/09 Q1020 RMK RF00.0/000.0 FM0330 18015KT 9999 FEW030;EQDQ01+000000PRSWM2
0097946720999992000030902004-34930+138520FM-15+0004YPAD V0203601N00211220001CN0099001N1+02701+01301999999ADDMA1101591999999MW1001REMMET045YPAD 090200Z 36004KT CAVOK 27/13 Q1016 NOSIG;EQDQ01+000000PRSWM2
0112946720999992000031108004-34930+138520FM-15+0004YPAD V0201301N00721220001CN0099001N1+02901+00701999999ADDMA1101081999999MW1001REMMET060YPAD 0800Z 13014KT CAVOK 29/07 Q1011 RMK RF00.0/000.0 NOSIG;EQDQ01+000000PRSWM2
0112946720999992000032420004-34930+138520FM-15+0004YPAD V0209999C00001220001CN0099001N1+00901+00801999999ADDMA1101901999999MW1001REMMET060YPAD 2000Z 00000KT CAVOK 09/08 Q1019 RMK RF00.0/000.0 NOSIG;EQDQ01+000000PRSWM2
0160946720999992000032505004-34930+138520FM-15+0004YPAD V0202501N004612200019N0112651N1+02101+01001999999ADDGA1021+012009999GF102991999999999999999999MA1101691999999MW1001REMMET066YPAD 0500Z 25009KT 9999 FEW040 21/10 Q1017 RMK RF00.0/000.0 NOSIG;EQDQ01+000000PRSWM2
0157946720999992000032521004-34930+138520SY-MT+0004YPAD V0209999C000019999999Y0099001N1+01061+00841101691ADDMA1101591101641MW1001REMSYN054AAXX  25214 94672 46/// /0000 10106 20084 30164 40169;MET045YPAD 252100Z 00000KT CAVOK 11/08 Q1016 NOSIG;EQDQ01+000000PRSWM2
0266946720999992000032903004-34930+138520SY-MT+0004YPAD V0202401N005110870019N0112651N1+01961+01161102371ADDGA1021+009009999GA2021+039009999GA3071+087009999GF107991999999999999999999MA1102301102321MW1001REMSYN054AAXX  29034 94672 46/// /2410 10196 20116 30232 40237;MET080YPAD 0300Z 24010KT 9999 FEW030 SCT130 BKN290 20/12 Q1023 RMK RF00.0/000.0 NOSIG;EQDQ01+000000PRSWM2
0327946720999992000040205004-34930+138520SY-MT+0004YPAD V0202201N005712200019N0400001N1+02051+01331101571ADDAA199000091AY101999AY201999GA1021+012009999GF199999011081012501001001MA1101491101521MD1610121+9999MW1021REMSYN072AAXX  02054 94672 31682 12211 10205 20133 30152 40157 56012 70200 81800;MET066YPAD 0500Z 21010KT 9999 FEW040 21/12 Q1015 RMK RF00.0/000.0 NOSIG;EQDQ01+000012SCOTCVQ02+000000PRSWM2Q03  00002PRCP99Q04    003PRSWM1
0220946720999992000040300004-34930+138520SY-MT+0004YPAD V0200201N004612200019N0112651N1+01891+01181101721ADDGA1021+009009999GF102991999999999999999999MA1101691101671MW1001REMSYN054AAXX  03004 94672 46/// /0209 10189 20118 30167 40172;MET066YPAD 0000Z 02009KT 9999 FEW030 19/12 Q1017 RMK RF00.0/000.0 NOSIG;EQDQ01+000000PRSWM2
0193946720999992000040405514-34930+138520FM-15+0004YPAD V0202901N012912200019N0112651N1+01901+01001999999ADDGA1021+009009999GF104991999999999999999999MA1101191999999MW1001OC101901REMMET091YPAD 040551Z 29025G37KT 9999 SCT030 19/10 Q1012 FM0551 29022G35KT 9999 -SHRA FEW012 BKN030;EQDQ01+000000PRSWM2
0178946720999992000040417004-34930+138520FM-12+0004YPAD V0201901N008712200019N0200001N1+01491+01171101691ADDAA118006191AY181999AY211999GF103991031081004501001001MA1999999101641MD1210141+9999MW1011REMSYN078AAXX  04174 94672 11470 31917 10149 20117 30164 40169 52014 60063 70181 83800;
0189946720999992000040513004-34930+138520FM-15+0004YPAD V0201501N004110069019N0112651N1+01501+01001999999ADDGA1021+006009999GA2071+006909999GF107991999999999999999999MA1102511999999MW1001REMMET079YPAD 051300Z 15008KT 9999 FEW020 BKN023 15/10 Q1025 FM1300 MOD TURB BLW 3000FT;EQDQ01+000000PRSWM2
0172946720999992000041000004-34930+138520SY-MT+0004YPAD V0200501N003119999999Y0099001N1+02631+01221102481ADDMA1102401102431MW1001REMSYN054AAXX  10004 94672 46/// /0506 10263 20122 30243 40248;MET060YPAD 0000Z 05006KT CAVOK 26/12 Q1024 RMK RF00.0/000.0 NOSIG;EQDQ01+000000PRSWM2
0243946720999992000041612004-34930+138520SY-MT+0004YPAD V0202601N005110105019N0112651N1+01751+01141101541ADDGA1021+007509999GA2071+010509999GF107991999999999999999999MA1101491101491MW1001REMSYN054AAXX  16124 94672 46/// /2610 10175 20114 30149 40154;MET073YPAD 1200Z 26010KT 9999 FEW025 BKN035 17/11 Q1015 RMK RF00.0/000.0 NOSIG;EQDQ01+000000PRSWM2
0112946720999992000042119004-34930+138520FM-15+0004YPAD V0201201N00151220001CN0099001N1+01201+00201999999ADDMA1102711999999MW1001REMMET060YPAD 1900Z 12003KT CAVOK 12/02 Q1027 RMK RF00.0/000.0 NOSIG;EQDQ01+000000PRSWM2
0145946720999992000042204004-34930+138520FM-15+0004YPAD V0200401N002612200019N0112651N1+01701+00301999999ADDGA1021+012009999GF102991999999999999999999MA1102711999999MW1001REMMET051YPAD 220400Z 04005KT 9999 FEW040 17/03 Q1027 NOSIG;EQDQ01+000000PRSWM2
0220946720999992000043006004-34930+138520SY-MT+0004YPAD V0202401N006212200019N0112651N1+01731+00571101971ADDGA1021+010509999GF102991999999999999999999MA1101901101921MW1001REMSYN054AAXX  30064 94672 46/// /2412 10173 20057 30192 40197;MET066YPAD 0600Z 24012KT 9999 FEW035 17/06 Q1019 RMK RF00.0/000.0 NOSIG;EQDQ01+000000PRSWM2
0220946720999992000050121004-34930+138520SY-MT+0004YPAD V0200801N001012200019N0112651N1+00841+00671102631ADDGA1021+005409999GF102991999999999999999999MA1102611102581MW1001REMSYN054AAXX  01214 94672 46/// /0802 10084 20067 30258 40263;MET066YPAD 2100Z 08002KT 9999 FEW018 08/07 Q1026 RMK RF00.0/000.0 NOSIG;EQDQ01+000000PRSWM2
0157946720999992000050212004-34930+138520SY-MT+0004YPAD V0201301N001519999999Y0099001N1+01441+00721102531ADDMA1102511102481MW1001REMSYN054AAXX  02124 94672 46/// /1303 10144 20072 30248 40253;MET045YPAD 021200Z 13003KT CAVOK 14/07 Q1025 NOSIG;EQDQ01+000000PRSWM2
0308946720999992000050520004-34930+138520SY-MT+0004YPAD V0201601N003112200019N0300001N1+01241+00701102801ADDAY121999AY221999GA1021+009009999GA2071+012009999GF199999031081008001001001MA1102711102751MD1210101+9999MW1011REMSYN072AAXX  05204 94672 41580 31606 10124 20070 30275 40280 52010 70122 83800;MET058YPAD 052000Z 18009KT 9999 FEW030 BKN040 13/06 Q1027 NOSIG;EQDQ01+000032SCOTCVQ02+000000PRSWM2Q03    003PRSWM1
0247946720999992000050908004-34930+138520SY-MT+0004YPAD V0201801N002619999999Y0400001N1+01591+01191102711ADDAY121999AY221999GF105991001001999999001011MA1102711102661MD1710021+9999MW1021REMSYN072AAXX  09084 94672 41/82 51805 10159 20119 30266 40271 57002 70222 80001;MET045YPAD 090800Z 19004KT CAVOK 17/12 Q1027 NOSIG;EQDQ01+000000PRSWM2Q02    003PRSWM1
0270946720999992000051014004-34930+138520SY-MT+0004YPAD V0200401N003619999999N0400001N1+01561+00631102161ADDAY121999AY221999GF107991061001999999031011KA1999M+02131MA1102101102111MD1810061+9999MW1031REMSYN082AAXX  10144 94672 41982 70407 10156 20063 30211 40216 58006 70322 86031 333 10213;MET045YPAD 101400Z 05008KT CAVOK 16/06 Q1021 NOSIG;EQDQ01+000000PRSWM2Q02    003PRSWM1
0389946720999992000051300204-34930+138520FM-15+0004YPAD V0203101N009310075019N0112651N1+01601+01101999999ADDGA1021+003609999GA2021+006009999GA3071+007509999GF107991999999999999999999MA1101021999999MW1161OC101951REMMET239YPAD 130020Z 31018G38KT 9999 VCSH FEW012 SCT020 BKN025 16/11 Q1010 FM0020 29017G35KT 9999 -SHRA SCT012 BKN020 INTER 0020/0100 30025G42KT 4000 SHRA SCT010 BKN015 INTER 0100/0320 29023G35KT 5000 SHRA SCT012 BKN018 FM0020 MOD TURB BLW 4000FT;EQDQ01+000003PRSWM1Q02    003PRSWM1
0292946720999992000051700004-34930+138520SY-MT+0004YPAD V0200301N002610105019N0112651N1+01361+01211103251ADDGA1021+001509999GA2021+005409999GA3071+010509999GF107991999999999999999999MA1103181103201MW1001REMSYN054AAXX  17004 94672 46/// /0305 10136 20121 30320 40325;MET106YPAD 0000Z 03005KT 9999 FEW005 SCT018 BKN035 14/12 Q1032 RMK RF00.0/000.0 INTER 0001/0300 5000 -DZ BKN008;EQDQ01+000000PRSWM2
0319946720999992000051905004-34930+138520SY-MT+0004YPAD V0203101N00461013501CN0300001N1+01601+00991102901ADDAA199000091AY121999AY221999GA1021+009609999GA2071+013509999GF107991071081008001999999MA1102911102851MD1610201+9999MW1151REMSYN072AAXX  19054 94672 31580 73109 10160 20099 30285 40290 56020 71522 878//;MET058YPAD 190500Z 32008KT 9999 FEW032 BKN045 16/10 Q1029 NOSIG;EQDQ01+000000PRSWM2Q02  00002PRCP99Q03    003PRSWM1
0228946720999992000051912004-34930+138520SY-MT+0004YPAD V0202501N003110120019N0112651N1+01581+00961102861ADDGA1021+007509999GA2071+012009999GF107991999999999999999999MA1102811102811MW1001REMSYN054AAXX  19124 94672 46/// /2506 10158 20096 30281 40286;MET058YPAD 191200Z 25006KT 9999 FEW025 BKN040 16/10 Q1028 NOSIG;EQDQ01+000000PRSWM2
0205946720999992000052212004-34930+138520SY-MT+0004YPAD V0200701N001012200019N0112651N1+01051+00751102731ADDGA1021+013509999GF102991999999999999999999MA1102711102681MW1001REMSYN054AAXX  22124 94672 46/// /0702 10105 20075 30268 40273;MET051YPAD 221200Z 07002KT 9999 FEW045 11/07 Q1027 NOSIG;EQDQ01+000000PRSWM2
0228946720999992000052421004-34930+138520SY-MT+0004YPAD V0203301N002610150019N0112651N1+01291+01001101381ADDGA1021+006009999GA2071+015009999GF107991999999999999999999MA1101291101331MW1001REMSYN054AAXX  24214 94672 46/// /3305 10129 20100 30133 40138;MET058YPAD 242100Z 33005KT 9999 FEW020 BKN050 13/10 Q1013 NOSIG;EQDQ01+000000PRSWM2
0189946720999992000060607004-34930+138520FM-15+0004YPAD V0202101N004112200019N0112651N1+01501+00901999999ADDGA1021+007509999GA2021+018009999GF104991999999999999999999MA1103011999999MW1161REMMET063YPAD 060700Z 21008KT 9999 VCSH FEW025 SCT060 15/09 Q1030 NOSIG;EQDQ01+000003PRSWM1Q02    003PRSWM1
0117946720999992000061019004-34930+138520FM-15+0004YPAD V0209999C000012200019N0112651N1+00401+00301999999ADDMA1103181999999MW1121REMMET049YPAD 101900Z 00000KT 9999 MIFG 04/03 Q1032 NOSIG;EQDQ01+000003PRSWM1Q02    003PRSWM1
0305946720999992000061701304-34920+138520FM-15+0004YPAD V0200201N001510030019N0040001N1+01201+01001999999ADDGA1021+001509999GA2071+003009999GF107991999999999999999999MA1103181999999MW1101REMMET179YPAD 170130Z 02003KT 4000 BR SCT005 BKN010 12/10 Q1032 FM0130 02003KT 3000 BR BKN003 FM0200 32008KT 5000 BR BKN005 FM0300 30008KT 8000 HZ BKN008 FM0330 28010KT 9999 SCT010 SCT025;EQDQ01+000003PRSWM1Q02    003PRSWM1
0134946720999992000061710004-34920+138520FM-15+0004YPAD V0209999C000012200019N0112651N1+01001+00801999999ADDMA1103121999999MW1121REMMET066YPAD 171000Z 00000KT 9999 MIFG 10/08 Q1031 FM1100 03003KT 0800 FG;EQDQ01+000003PRSWM1Q02    003PRSWM1
0247946720999992000061820004-34920+138520SY-MT+0004YPAD V0200401N003112200019N0300001N1+01101+00401102121ADDAY121999AY221999GF101991011001999999031001MA1102101102071MD1710161+9999MW1011REMSYN072AAXX  18204 94672 41980 10406 10110 20040 30207 40212 57016 70122 81030;MET045YPAD 182000Z 04007KT CAVOK 10/04 Q1021 NOSIG;EQDQ01+000000PRSWM2Q02    003PRSWM1
0309946720999992000062105334-34920+138520FM-16+0004YPAD V0203001N010312200019N0112651N1+01501+00801999999ADDGA1021+007509099GA2021+007509999GA3021+013509999GF102991999999999999999999MA1100711999999MW1001OC101591REMMET175YPAD 210533Z 30020G31KT 9999 SCT025 SCT045 FEW025CB 15/08 Q1007 FM0531 30020G30KT 9999 SHRA SCT030 INTER 0531/0830 27025G45KT 4000 SHRA SCT012 FM0531 OCNL SEV TURB BLW 5000FT;EQDQ01+000000PRSWM2
0245946720999992000062618304-34920+138520FM-15+0004YPAD V0202801N005710105019N0112651N1+01201+01001999999ADDGA1021+002409999GA2021+006009999GA3071+010509999GF107991999999999999999999MA1100911999999MW1801REMMET103YPAD 261830Z 28011KT 9999 -SHRA FEW008 SCT020 BKN035 12/10 Q1009 RERA INTER 1830/2030 4000 SHRA BKN008;EQDQ01+000003PRSWM1Q02    003PRSWM1
0230946720999992000070600004-34920+138520SY-MT+0004YPAD V0203001N005712200019N0112651N1+01371+01191101381ADDGA1021+003009999GF102991999999999999999999MA1101291101331MW1001REMSYN054AAXX  06004 94672 46/// /3011 10137 20119 30133 40138;MET076YPAD 060000Z 30011KT 9999 FEW010 14/12 Q1013 INTER 0000/0200 6000 DZ BKN010;EQDQ01+000000PRSWM2
0232946720999992000070701304-34920+138520FM-15+0004YPAD V0203601N003110030019N0112651N1+01201+01001999999ADDGA1021+001809999GA2071+003009999GF107991999999999999999999MA1101391999999MW1001REMMET122YPAD 070130Z 36006KT 9999 FEW006 BKN010 12/10 Q1014 FM0130 36005KT 8000 DZ BKN005 FM0300 36005KT 9999 -SHRA FEW012 SCT025;EQDQ01+000000PRSWM2
0145946720999992000070810004-34920+138520FM-15+0004YPAD V0200301N002110075019N0112651N1+01001+00901999999ADDGA1071+007509999GF107991999999999999999999MA1100811999999MW1001REMMET051YPAD 081000Z 03004KT 9999 BKN025 10/09 Q1008 NOSIG;EQDQ01+000000PRSWM2
0235946720999992000071200304-34920+138520FM-15+0004YPAD V0201201N002112200019N0080001N1+01201+01001999999ADDGA1021+003609999GA2021+010509999GF104991999999999999999999MA1101291999999MW1001REMMET125YPAD 120030Z 12004KT 8000 FEW012 SCT035 12/10 Q1013 FM0030 22015KT 9999 -SHRA SCT012 BKN025 INTER 0030/0200 4000 SHRA BKN008;EQDQ01+000000PRSWM2
0179946720999992000071202414-34920+138520FM-16+0004YPAD V0202101N007712200019N0112651N1+01501+00901999999ADDGA1021+006009999GA2021+009009999GF104991999999999999999999MA1101291999999MW1001OC101291REMMET061YPAD 120241Z 21015G25KT 9999 FEW020 SCT030 15/09 Q1013 NOSIG;EQDQ01+000000PRSWM2
0190946720999992000071205064-34920+138520FM-16+0004YPAD V0202101N008710090019N0112651N1+01501+00801999999ADDGA1071+009009999GF107991999999999999999999MA1101391999999MW1001OC101391REMMET088YPAD 120506Z 21017G27KT 9999 BKN030 15/08 Q1014 FM0506 20016G28KT 9999 NO SIG WX SCT030;EQDQ01+000000PRSWM2
0227946720999992000071206244-34920+138520FM-16+0004YPAD V0202101N007710090019N0112651N1+01401+00701999999ADDGA1071+009009999GF107991999999999999999999MA1101491999999MW1001OC101291REMMET125YPAD 120624Z 21015G25KT 9999 BKN030 14/07 Q1015 FM0624 20016G28KT 9999 NO SIG WX SCT030 FM0830 19012KT 9999 NO SIG WX BKN030;EQDQ01+000000PRSWM2
0176946720999992000072410004-34920+138520FM-15+0004YPAD V0203301N005112200019N0112651N1+01101+00901999999ADDGA1021+006609999GF102991999999999999999999MA1101081999999MW1001REMMET082YPAD 241000Z 33010KT 9999 FEW022 11/09 Q1011 INTER 1230/1300 28022G35KT 6000 SHRA;EQDQ01+000000PRSWM2
0184946720999992000072702004-34920+138520FM-12+0004YPAD V0202201N002112200019N0300001N1+01191+00821102531ADDAY111999AY211999GF103991031081008001001001KA1999N+00561MA1999999102481MD1010051+9999MW1201REMSYN082AAXX  27024 94672 41580 32204 10119 20082 30248 40253 50005 72011 83800 333 20056;
0097946720999992000073010004-34920+138520FM-15+0004YPAD V0200701N00211220001CN0099001N1+01301+00701999999ADDMA1102401999999MW1001REMMET045YPAD 301000Z 07004KT CAVOK 13/07 Q1024 NOSIG;EQDQ01+000000PRSWM2
0195946720999992000080719004-34920+138520FM-15+0004YPAD V0200301N003110300019N0112651N1+01201+00801999999ADDGA1021+013509999GA2071+030009999GF107991999999999999999999MA1101021999999MW1001REMMET085YPAD 071900Z 03006KT 9999 SCT045 BKN100 12/08 Q1010 INTER 1900/2200 4000 SHRA BKN008;EQDQ01+000000PRSWM2
0228946720999992000081912004-34920+138520SY-MT+0004YPAD V0209999C000010300019N0112651N1+01161+00951101711ADDGA1021+007509999GA2071+030009999GF107991999999999999999999MA1101691101661MW1001REMSYN054AAXX  19124 94672 46/// /0000 10116 20095 30166 40171;MET058YPAD 191200Z 00000KT 9999 FEW025 BKN100 12/09 Q1017 NOSIG;EQDQ01+000000PRSWM2
0228946720999992000082009004-34920+138520SY-MT+0004YPAD V0201201N001010135019N0112651N1+01221+00991101521ADDGA1021+004509999GA2071+013509999GF107991999999999999999999MA1101491101471MW1001REMSYN054AAXX  20094 94672 46/// /1202 10122 20099 30147 40152;MET058YPAD 200900Z 12002KT 9999 FEW015 BKN045 12/10 Q1015 NOSIG;EQDQ01+000000PRSWM2
0291946720999992000082411404-34920+138520FM-16+0004YPAD V0202201N005110075019N0112651N1+01201+01001999999ADDGA1021+003009999GA2071+007509999GF107991999999999999999999MA1100511999999MW1001REMMET181YPAD 241140Z 22010KT 9999 FEW010 BKN025 12/10 Q1005 FM1140 23012KT 9999 -SHRA FEW010 FEW020 SCT030 INTER 1140/1300 4000 -SHRA SCT010 BKN020 INTER 1300/1440 4000 -SHRA BKN008 BKN020;EQDQ01+000000PRSWM2
0287946720999992000090701364-34920+138520FM-16+0004YPAD V0203001N011310045019N0050001N1+01401+01201999999ADDGA1021+001809999GA2071+004509999GF107991999999999999999999MA1099191999999MW1001OC101651REMMET169YPAD 070136Z 30022G32KT 5000 FEW006 BKN015 14/12 Q0992 FM0150 28022G35KT 9999 -SHRA FEW010 BKN018 FM0136 MOD TURB BLW 5000FT INTER 0150/0436 28026G42KT 4000 SHRA BKN010;EQDQ01+000000PRSWM2
0200946720999992000091001484-34920+138520FM-16+0004YPAD V0203201N006710036019N0112651N1+01401+01201999999ADDGA1071+003609999GA2071+010509999GF107991999999999999999999MA1102001999999MW1001REMMET090YPAD 100148Z 32013KT 9999 BKN012 BKN035 14/12 Q1020 FM0200 32015KT 9999 -DZ FEW015 BKN025;EQDQ01+000000PRSWM2
0321946720999992000091018184-34920+138520FM-16+0004YPAD V0202501N010310135019N0060001N1+01201+01101999999ADDGA1021+001809999GA2021+002409999GA3071+013509999GF107991999999999999999999MA1101291999999MW1161REMMET179YPAD 101818Z 25020KT 6000 VCSH FEW006 SCT008 BKN045 12/11 Q1013 RERA FM1818 31020G32KT 9999 -SHRA SCT015 SCT025 FM1818 MOD TURB BLW 6000FT INTER 1818/2118 4000 SHRA BKN008 BKN025;EQDQ01+000003PRSWM1Q02    003PRSWM1
0282946720999992000091302004-34920+138520SY-MT+0004YPAD V0203601N010312200019N0400001N1+01971+00571101851ADDAY101999AY201999GF100991001001999999001001KA1999N+00951MA1101901101801MD1810201+9999MW1021REMSYN076AAXX  13024 94672 41982 03620 10197 20057 30180 40185 58020 70200 333 20095;MET063YPAD 130200Z 36019KT CAVOK 19/05 Q1019 FM0200 35020G32KT CAVOK;EQDQ01+000000PRSWM2Q02    003PRSWM1
0228946720999992000091803004-34920+138520SY-MT+0004YPAD V0203101N005710120019N0112651N1+01581+00971102041ADDGA1021+010509999GA2071+012009999GF107991999999999999999999MA1102001101991MW1001REMSYN054AAXX  18034 94672 46/// /3111 10158 20097 30199 40204;MET058YPAD 180300Z 31011KT 9999 SCT035 BKN040 16/10 Q1020 NOSIG;EQDQ01+000000PRSWM2
0268946720999992000092211004-34920+138520SY-MT+0004YPAD V0200501N001012200019N0250001N1+01301+00971102331ADDAA199000091AY101999AY201999GF100991001001999999001001MA1102301102281MD1110091+9999MW1021REMSYN066AAXX  22114 94672 31975 00502 10130 20097 30228 40233 51009 70200;MET045YPAD 221100Z 06004KT CAVOK 14/10 Q1023 NOSIG;EQDQ01+000000PRSWM2Q02  00002PRCP99Q03    003PRSWM1
0196946720999992000092701004-34920+138520FM-15+0004YPAD V0202301N000510036019N0112651N1+01601+01301999999ADDGA1021+002109999GA2071+003609999GF107991999999999999999999MA1101081999999MW1001REMMET086YPAD 270100Z 23001KT 9999 FEW007 BKN012 16/13 Q1011 FM0100 25008KT 9999 FEW010 BKN015;EQDQ01+000000PRSWM2
0308946720999992000100302004-34920+138520SY-MT+0004YPAD V0202401N003612200019N0300001N1+01581+00921102431ADDAY101999AY201999GA1021+009009999GF199999011011008001001001KA1999N+00671MA1102401102381MD1610071+9999MW1011REMSYN082AAXX  03024 94672 41580 12407 10158 20092 30238 40243 56007 70100 81100 333 20067;MET051YPAD 030200Z 25006KT 9999 FEW030 16/09 Q1024 NOSIG;EQDQ01+000012SCOTCVQ02+000000PRSWM2Q03    003PRSWM1
0145946720999992000100710004-34920+138520FM-15+0004YPAD V0202301N006712200019N0112651N1+01401+00901999999ADDGA1021+009009999GF102991999999999999999999MA1101801999999MW1001REMMET051YPAD 071000Z 23013KT 9999 FEW030 14/09 Q1018 NOSIG;EQDQ01+000000PRSWM2
0232946720999992000100721004-34920+138520SY-MT+0004YPAD V0201601N001010090019N0112651N1+01131+00801102011ADDGA1071+009009999GF107991999999999999999999MA1102001101961MW1001REMSYN054AAXX  07214 94672 46/// /1602 10113 20080 30196 40201;MET078YPAD 072100Z 16002KT 9999 BKN030 11/08 Q1020 INTER 2100/2300 6000 SHRA BKN012;EQDQ01+000000PRSWM2
0191946720999992000101209004-34920+138520SY-MT+0004YPAD V0200501N002619999999Y0099001N1+01541+01311100401ADDMA1100411100351MW1001REMSYN054AAXX  12094 94672 46/// /0505 10154 20131 30035 40040;MET079YPAD 120900Z 05005KT CAVOK 15/13 Q1004 FM0900 03005KT 9999 -SHRA SCT012 OVC120;EQDQ01+000000PRSWM2
0157946720999992000101609004-34920+138520SY-MT+0004YPAD V0202201N002619999999Y0099001N1+01891+00741101621ADDMA1101591101571MW1001REMSYN054AAXX  16094 94672 46/// /2205 10189 20074 30157 40162;MET045YPAD 160900Z 22005KT CAVOK 19/07 Q1016 NOSIG;EQDQ01+000000PRSWM2
0309946720999992000101803304-34920+138520FM-15+0004YPAD V0203401N009810036019N0112651N1+01701+01401999999ADDGA1021+003009999GA2071+003609999GF107991999999999999999999MA1099901999999MW1511REMMET183YPAD 180330Z 34019KT 9999 -DZ FEW010 BKN012 17/14 Q0999 FM0330 32020KT 9999 -SHRA SCT010 BKN015 BKN020 FM0500 25020KT 9999 -SHRA SCT012 BKN025 INTER 0330/0630 3000 SHRA BKN010 BKN020;EQDQ01+000003PRSWM1Q02    003PRSWM1
0303946720999992000110110004-34920+138520SY-MT+0004YPAD V0202801N007712200019N0300001N1+01611+01201100441ADDAA199000021AY121999AY221999GA1021+007509999GA2021+018009999GF104991041081008001001001MA1100411100391MD1210181+9999MW1011REMSYN072AAXX  01104 94672 31580 42815 10161 20120 30039 40044 52018 70122 84800;MET058YPAD 011000Z 28015KT 9999 FEW025 SCT060 16/12 Q1004 NOSIG;EQDQ01+000000PRSWM2Q02    003PRSWM1
0296946720999992000110504004-34920+138520SY-MT+0004YPAD V0201601N005712200019N0300001N1+01961+00591101611ADDAA199000091AY101999AY201999GA1021+009009999GF102991021021008001001001MA1101591101561MD1710191+9999MW1021REMSYN072AAXX  05044 94672 31580 21611 10196 20059 30156 40161 57019 70200 82200;MET051YPAD 050400Z 18012KT 9999 FEW030 19/06 Q1016 NOSIG;EQDQ01+000000PRSWM2Q02  00002PRCP99Q03    003PRSWM1
0146946720999992000110720084-34920+138520FM-16+0004YPAD V0200401N01031220001CN0099001N1+02501-00301999999ADDMA1100311999999MW1001OC101591REMMET086YPAD 072008Z 04020G31KT CAVOK 25/M03 Q1003 FM2008 02022G32KT 9999 -SHRA SCT080 BKN120;EQDQ01+000000PRSWM2
0215946720999992000110814004-34920+138520FM-15+0004YPAD V0200501N001010270019N0112651N1+01701+01401999999ADDGA1021+009009999GA2071+027009999GF107991999999999999999999MA1100911999999MW1001REMMET105YPAD 081400Z 05002KT 9999 FEW030 BKN090 17/14 Q1009 INTER 1400/1700 34016G30KT 3000 TSRA SCT010 FEW060CB;EQDQ01+000000PRSWM2
0249946720999992000110903004-34920+138520SY-MT+0004YPAD V0201001N002110084019N0112651N1+02131+01201101121ADDGA1071+008409999GA2071+084009999GF107991999999999999999999MA1101081101071MW1001REMSYN054AAXX  09034 94672 46/// /1004 10213 20120 30107 40112;MET079YPAD 090300Z 10004KT 9999 BKN028 BKN280 21/12 Q1011 FM0400 20014KT 9999 SCT030;EQDQ01+000000PRSWM2
0313946720999992000111107004-34920+138520SY-MT+0004YPAD V0201501N00571007501CN0250001N1+01821+01291101641ADDAY121999AY221999GA1021+006009999GA2071+007509999GF107991071041004501999999MA1101591101591MD1710011+9999MW1021REMSYN072AAXX  11074 94672 41475 71511 10182 20129 30159 40164 57001 70222 874//;MET079YPAD 110700Z 15010KT 9999 FEW020 BKN025 19/13 Q1016 FM0900 MOD TURB BLW 3000FT;EQDQ01+000000PRSWM2Q02    003PRSWM1
0333946720999992000111916004-34920+138520SY-MT+0004YPAD V0201601N00621004501CN0300001N1+01721+01291101161ADDAA199000091AY121999AY221999GA1071+004509999GF199999051061004501001999MA1101081101111MD1810051+9999MW1011REMSYN072AAXX  19164 94672 31480 51612 10172 20129 30111 40116 58005 70122 8560/;MET072YPAD 191600Z 16011KT 9999 BKN015 17/13 Q1011 FM1600 MOD TURB BLW 4000FT;EQDQ01+000052SCOTCVQ02+000000PRSWM2Q03  00002PRCP99Q04    003PRSWM1
0229946720999992000112020004-34920+138520FM-15+0004YPAD V0201301N003610630019N0112651N1+01601+01001999999ADDGA1021+003609999GA2071+063009999GF107991999999999999999999MA1101291999999MW1001REMMET119YPAD 202000Z 13007KT 9999 FEW012 BKN210 16/10 Q1013 FM2000 14017G27KT 9999 NO SIG WX SCT020 FM2000 MOD TURB BLW 3000FT;EQDQ01+000000PRSWM2
0205946720999992000112206004-34920+138520SY-MT+0004YPAD V0201801N005112200019N0112651N1+02781+00771101301ADDGA1021+012009999GF102991999999999999999999MA1101291101251MW1001REMSYN054AAXX  22064 94672 46/// /1810 10278 20077 30125 40130;MET051YPAD 220600Z 18010KT 9999 FEW040 28/08 Q1013 NOSIG;EQDQ01+000000PRSWM2
0264946720999992000112713004-34920+138520SY-MT+0004YPAD V0200401N003612200019N0400001N1+02761+01141100581ADDAY101999AY201999GF100991001001999999001001KA1999M+03871MA1100611100531MD1810061+9999MW1021REMSYN076AAXX  27134 94672 41982 00407 10276 20114 30053 40058 58006 70200 333 10387;MET045YPAD 271300Z 05004KT CAVOK 28/12 Q1006 NOSIG;EQDQ01+000000PRSWM2Q02    003PRSWM1
0097946720999992000112802004-34920+138520FM-15+0004YPAD V0202301N00821220001CN0099001N1+02201+01601999999ADDMA1101081999999MW1001REMMET045YPAD 280200Z 23016KT CAVOK 22/16 Q1011 NOSIG;EQDQ01+000000PRSWM2
0081946720999992000120100004-34920+138520FM-12+0004YPAD V0202301N005119999999N9999999N1+01801+00831102251ADDMA1999999102201REMSYN054AAXX  01004 94672 46/// /2310 10180 20083 30220 40225;
0157946720999992000120221004-34920+138520SY-MT+0004YPAD V0202201N001019999999Y0099001N1+02181+00901101611ADDMA1101591101561MW1001REMSYN054AAXX  02214 94672 46/// /2202 10218 20090 30156 40161;MET045YPAD 022100Z 22002KT CAVOK 22/09 Q1016 NOSIG;EQDQ01+000000PRSWM2
0145946720999992000121305004-34920+138520FM-15+0004YPAD V0202201N009312200019N0112651N1+02101+01101999999ADDGA1021+009009999GF102991999999999999999999MA1101191999999MW1001REMMET051YPAD 130500Z 22018KT 9999 FEW030 21/11 Q1012 NOSIG;EQDQ01+000000PRSWM2
0118946720999992000121314004-34920+138520FM-15+0004YPAD V0201301N00361220001CN0099001N1+01501+00801999999ADDMA1101391999999MW1001REMMET066YPAD 131400Z 13007KT CAVOK 15/08 Q1014 FM1400 MOD TURB BLW 4000FT;EQDQ01+000000PRSWM2
0128946720999992000122820004-34920+138520FM-15+0004YPAD V0201101N00311220001CN0099001N1+01301+00301999999ADDMA1101591999999MW1001REMMET076YPAD 282000Z 11006KT CAVOK 13/03 Q1016 FM2000 MOD TURB BLW 3000FT TILL 2130;EQDQ01+000000PRSWM2
0118946720999992000122917004-34920+138520FM-15+0004YPAD V0201001N00311220001CN0099001N1+01901+00801999999ADDMA1101291999999MW1001REMMET066YPAD 291700Z 10006KT CAVOK 19/08 Q1013 FM1700 MOD TURB BLW 3000FT;EQDQ01+000000PRSWM2
0191946730999992000010404004-31880+138420FM-12+031699999V0201301N001512200019N0500001N1+02701+02411101591ADDAA106000091AY101999AY201999GF101991001001999999001051MA1999999098021MD1710101+9999MW1031REMSYN072AAXX  04044 94673 31/84 11303 10270 20241 39802 40159 57010 70300 80005;EQDQ01  00002PRCP06
0191946730999992000020904004-31880+138420FM-12+031699999V0203601N001012200019N0500001N1+03921+00931101151ADDAA199000091AY101999AY201999GF101991011001999999081001MA1999999097591MD1310271+9999MW1031REMSYN072AAXX  09044 94673 31/84 13602 10392 20093 39759 40115 53027 70300 81080;EQDQ01  00002PRCP99
0161946730999992000021019004-31880+138420FM-12+031699999V0209999C000019999999N0500001N1+02051+01891101031ADDAY121999AY221999GF108991081001999999021999MA1999999097481MD1210081+9999MW1611REMSYN072AAXX  10194 94673 41/84 80000 10205 20189 39748 40103 52008 76122 8802/;
0201946730999992000032122004-31880+138420FM-12+031699999V0209999C000012200019N0500001N1+02051+01331101501ADDAA199000091AY101999AY201999GA1001+999999999GF100991001001999999001001MA1999999097891MD1310021+9999MW1021REMSYN066AAXX  21224 94673 31984 00000 10205 20133 39789 40150 53002 70200;EQDQ01  00002PRCP99
0191946730999992000041205004-31880+138420FM-12+031699999V0201801N001012200019N0500001N1+02601+01551101441ADDAA199000091AY121999AY221999GF104991041021008001001001MA1999999097781MD1810211+9999MW1011REMSYN072AAXX  12054 94673 31584 41802 10260 20155 39778 40144 58021 70122 84200;EQDQ01  00002PRCP99
0201946730999992000051905004-31880+138420FM-12+031699999V0209999C000012200019N0500001N1+01701+01531102801ADDAA199000091AY101999AY201999GA1001+999999999GF100991001001999999001001MA1999999099041MD1310121+9999MW1011REMSYN066AAXX  19054 94673 31984 00000 10170 20153 39904 40280 53012 70100;EQDQ01  00002PRCP99
0191946730999992000062523004-31880+138420FM-12+031699999V0209999C000010360019N0300001N1+01201+01011101851ADDAA199000091AY121999AY221999GF108991011071012501021999MA1999999098081MD1210061+9999MW1021REMSYN072AAXX  25234 94673 31680 80000 10120 20101 39808 40185 52006 70222 8172/;EQDQ01  00002PRCP99
0161946730999992000062620004-31880+138420FM-12+031699999V0203401N001010075019N0100001N1+00901+00801101401ADDAY181999AY281999GF108991081031008001999999MA1999999097651MD1210071+9999MW1511REMSYN072AAXX  26204 94673 41560 83402 10090 20080 39765 40140 52007 75188 883//;
0171946730999992000072720004-31880+138420FM-12+031699999V0209999C000012200019N0500001N1+00301+00171102871ADDAY111999AY211999GA1001+999999999GF100991001001999999001001MA1999999099051MD1210061+9999MW1011REMSYN066AAXX  27204 94673 41984 00000 10030 20017 39905 40287 52006 70111;
0161946730999992000081620004-31880+138420FM-12+031699999V0200901N004619999999N0500001N1+00651-00301102131ADDAY121999AY221999GF108991081001999999021999MA1999999098361MD1710031+9999MW1021REMSYN072AAXX  16204 94673 41/84 80909 10065 21030 39836 40213 57003 70222 8802/;
0191946730999992000092705004-31880+138420FM-12+031699999V0209999C000010042019N0400001N1+02961+01091100571ADDAA199000091AY121999AY221999GF105991051011004501001001MA1999999096891MD1710311+9999MW1011REMSYN072AAXX  27054 94673 31482 50000 10296 20109 39689 40057 57031 70122 85100;EQDQ01  00002PRCP99
0178946730999992000102223004-31880+138420FM-12+031699999V0209999C000010360019N0400001N1+01611+01511101061ADDAA124031091AY161999AY261999GF108991041061001501031999MA1999999097411MD1210131+9999MW1531REMSYN078AAXX  22234 94673 11282 80000 10161 20151 39741 40106 52013 60314 75366 8463/;
0161946730999992000110119004-31880+138420FM-12+031699999V0209999C000012200019N0500001N1+01221+00781100701ADDAY111999AY211999GF102991021021012501001001MA1999999097101MD1210081+9999MW1011REMSYN072AAXX  01194 94673 41684 20000 10122 20078 39710 40070 52008 70111 82200;
0191946730999992000110422004-31880+138420FM-12+031699999V0209999C000010360019N0500001N1+01741+00821101591ADDAA199000091AY121999AY221999GF107991021021012501031091MA1999999097961MD1210131+9999MW1021REMSYN072AAXX  04224 94673 31684 70000 10174 20082 39796 40159 52013 70222 82239;EQDQ01  00002PRCP99
0201946730999992000113022004-31880+138420FM-12+031699999V0209999C000012200019N0500001N1+01741+01671102001ADDAA199000091AY101999AY201999GA1001+999999999GF100991001001999999001001MA1999999098391MD1210191+9999MW1011REMSYN066AAXX  30224 94673 31984 00000 10174 20167 39839 40200 52019 70100;EQDQ01  00002PRCP99
0188946730999992000121822004-31880+138420FM-12+031699999V0200501N001012200019N0500001N1+03001+00891101211ADDAA124000191AY101999AY201999GA1001+999999999GF100991001001999999001001MA1999999097631MD1210111+9999MW1021REMSYN072AAXX  18224 94673 11984 00502 10300 20089 39763 40121 52011 69924 70200;
0131946740999992000010222004-30600+138430FM-12+0262YPLC V0203101N001019999999N9999999N1+02601-00091101231ADDAA106000091MA1999999098311MD1210141+9999REMSYN060AAXX  02224 94674 35/// /3102 10260 21009 39831 40123 52014;EQDQ01  00002PRCP06
0131946740999992000010322004-30600+138430FM-12+0262YPLC V0201601N004119999999N9999999N1+02181+00801101481ADDAA106000091MA1999999098551MD1210221+9999REMSYN060AAXX  03224 94674 35/// /1608 10218 20080 39855 40148 52022;EQDQ01  00002PRCP06
0135946740999992000011822004-30600+138430FM-12+026299999V0202101N007219999999N9999999N1+02631+01341100941ADDAA199000091MA1999999098031MD1210111+9999REMSYN064    AAXX  18224 94674 35/// /2114 10263 20134 39803 40094 52011;EQDQ01  00002PRCP99
0107946740999992000021019004-30600+138430FM-12+0262YPLC V0200501N001519999999N9999999N1+02061+01941100951ADDMA1999999098041MD1210021+9999REMSYN066AAXX  10194 94674 4//// /0503 10206 20194 39804 40095 52002 74144;
0131946740999992000030510004-30600+138430FM-12+0262YPLC V0202001N005119999999N9999999N1+02701+00801101311ADDAA199000091MA1999999098361MD1210201+9999REMSYN060AAXX  05104 94674 35/// /2010 10270 20080 39836 40131 52020;EQDQ01  00002PRCP99
0131946740999992000032204004-30600+138430FM-12+0262YPLC V0203601N005119999999N9999999N1+02861+00981101081ADDAA199000091MA1999999098141MD1710281+9999REMSYN060AAXX  22044 94674 35/// /3610 10286 20098 39814 40108 57028;EQDQ01  00002PRCP99
0101946740999992000032620004-30600+138430FM-12+0262YPLC V0209999C000019999999N9999999N1+01931+00981101191ADDMA1999999098241MD1210111+9999REMSYN060AAXX  26204 94674 45/// /0000 10193 20098 39824 40119 52011;
0131946740999992000040305004-30600+138430FM-12+0262YPLC V0202001N005119999999N9999999N1+02971+00511101441ADDAA199000091MA1999999098431MD1710231+9999REMSYN060AAXX  03054 94674 35/// /2010 10297 20051 39843 40144 57023;EQDQ01  00002PRCP99
0101946740999992000040720004-30600+138430FM-12+0262YPLC V0201301N003619999999N9999999N1+01601+00621101651ADDMA1999999098631MD1710061+9999REMSYN060AAXX  07204 94674 45/// /1307 10160 20062 39863 40165 57006;
0124946740999992000041602004-30600+138430FM-12+0262YPLC V0202101N004619999999N9999999N1+02111+01231101371ADDKA1999N+01441MA1999999098361MD1710071+9999REMSYN070AAXX  16024 94674 45/// /2109 10211 20123 39836 40137 57007 333 20144;
0124946740999992000051502004-30600+138430FM-12+0262YPLC V0202101N004619999999N9999999N1+01631+00671102591ADDKA1999N+00681MA1999999099511MD1710081+9999REMSYN070AAXX  15024 94674 45/// /2109 10163 20067 39951 40259 57008 333 20068;
0124946740999992000053005004-30600+138430FM-12+0262YPLC V0201901N005719999999N9999999N1+01451+00271102461ADDAA106000191MA1999999099381MD1710121+9999REMSYN072AAXX  30054 94674 1//// /1911 10145 20027 39938 40246 57012 69921 7//44;
0131946740999992000060717004-30600+138430FM-12+0262YPLC V0201201N003119999999N9999999N1+00851+00311102851ADDAA199000091MA1999999099711MD1710051+9999REMSYN060AAXX  07174 94674 35/// /1206 10085 20031 39971 40285 57005;EQDQ01  00002PRCP99
0101946740999992000062020004-30590+138430FM-12+0262YPLC V0202201N000519999999N9999999N1+00801+00181101491ADDMA1999999098391MD1410001+9999REMSYN060AAXX  20204 94674 45/// /2201 10080 20018 39839 40149 54000;
0124946740999992000062314004-30590+138430FM-12+0262YPLC V0201401N002119999999N9999999N1+00751+00221102361ADDKA1999M+01791MA1999999099231MD1710051+9999REMSYN070AAXX  23144 94674 45/// /1404 10075 20022 39923 40236 57005 333 10179;
0124946740999992000072202004-30590+138430FM-12+0262YPLC V0203601N007219999999N9999999N1+01811+00391102001ADDKA1999N+00351MA1999999098881MD1710121+9999REMSYN070AAXX  22024 94674 45/// /3614 10181 20039 39888 40200 57012 333 20035;
0131946740999992000083017004-30590+138430FM-12+0262YPLC V0201701N002119999999N9999999N1+00861+00131101461ADDAA199000091MA1999999098381MD1210061+9999REMSYN060AAXX  30174 94674 35/// /1704 10086 20013 39838 40146 52006;EQDQ01  00002PRCP99
0101946740999992000090220004-30590+138430FM-12+0262YPLC V0201501N003119999999N9999999N1+00831+00251101861ADDMA1999999098811MD1210111+9999REMSYN060AAXX  02204 94674 45/// /1506 10083 20025 39881 40186 52011;
0124946740999992000091814004-30590+138430FM-12+0262YPLC V0201301N002619999999N9999999N1+01151+00301101761ADDKA1999M+02421MA1999999098711MD1710131+9999REMSYN070AAXX  18144 94674 45/// /1305 10115 20030 39871 40176 57013 333 10242;
0124946740999992000092402004-30590+138430FM-12+0262YPLC V0203501N007719999999N9999999N1+03241+00051101831ADDKA1999N+01811MA1999999098781MD1710151+9999REMSYN070AAXX  24024 94674 45/// /3515 10324 20005 39878 40183 57015 333 20181;
0124946740999992000100302004-30590+138430FM-12+0262YPLC V0201101N002119999999N9999999N1+02461-00291102141ADDKA1999N+00801MA1999999099111MD1710141+9999REMSYN070AAXX  03024 94674 45/// /1104 10246 21029 39911 40214 57014 333 20080;
0124946740999992000101414004-30590+138430FM-12+0262YPLC V0201601N002119999999N9999999N1+01201+00541101701ADDKA1999M+01931MA1999999098681MD1210021+9999REMSYN070AAXX  14144 94674 45/// /1604 10120 20054 39868 40170 52002 333 10193;
0131946740999992000101905004-30590+138430FM-12+0262YPLC V0201901N008219999999N9999999N1+02051+00191101961ADDAA199000091MA1999999098931MD1710121+9999REMSYN060AAXX  19054 94674 35/// /1916 10205 20019 39893 40196 57012;EQDQ01  00002PRCP99
0131946740999992000110222004-30590+138430FM-12+0262YPLC V0201001N005719999999N9999999N1+02221+00681101381ADDAA199000091MA1999999098411MD1210341+9999REMSYN060AAXX  02224 94674 35/// /1011 10222 20068 39841 40138 52034;EQDQ01  00002PRCP99
0124946740999992000111901004-30590+138430FM-12+0262YPLC V0201801N002619999999N9999999N1+03221+01341100921ADDKA1999N+02041MA1999999097961MD1710071+9999REMSYN070AAXX  19014 94674 45/// /1805 10322 20134 39796 40092 57007 333 20204;
0124946740999992000121013004-30590+138430FM-12+0262YPLC V0203501N001019999999N9999999N1+02801-00401100741ADDKA1999M+04001MA1999999097821MD1210051+9999REMSYN070AAXX  10134 94674 45/// /3502 10280 21040 39782 40074 52005 333 10400;
0124946740999992000122513004-30590+138430FM-12+0262YPLC V0202101N005719999999N9999999N1+02401+00761101031ADDKA1999M+03261MA1999999098101MD1210081+9999REMSYN070AAXX  25134 94674 45/// /2111 10240 20076 39810 40103 52008 333 10326;
0131946740999992000122516004-30590+138430FM-12+0262YPLC V0201701N002119999999N9999999N1+02121+00851100921ADDAA199000091MA1999999097991MD1710111+9999REMSYN060AAXX  25164 94674 35/// /1704 10212 20085 39799 40092 57011;EQDQ01  00002PRCP99
0184946750999992000010913004-34920+138620FM-12+005099999V0201301N002619999999N0300001N1+02281+00691101151ADDAY121999AY221999GF105991001001999999001021KA1999M+03091MA1999999100561MD1210041+9999MW1021REMSYN082AAXX  09134 94675 41/80 51305 10228 20069 30056 40115 52004 70222 80002 333 10309;
0161946750999992000011219004-34920+138620FM-12+005099999V0200501N003612200019N0400001N1+02581+00521101181ADDAY101999AY201999GF102991001001999999001011MA1999999100591MD1310121+9999MW1021REMSYN072AAXX  12194 94675 41/82 20507 10258 20052 30059 40118 53012 70200 80001;
0191946750999992000012122004-34920+138620FM-12+005099999V0201801N003610150019N0300001N1+01581+00831101861ADDAA199000091AY111999AY211999GF106991061081012501999999MA1999999101261MD1110191+9999MW1021REMSYN072AAXX  21224 94675 31680 61807 10158 20083 30126 40186 51019 70211 868//;EQDQ01  00002PRCP99
0161946750999992000020407004-34920+138620FM-12+005099999V0202201N004119999999N0200001N1+03601+01181100571ADDAY121999AY221999GF107991071001999999071999MA1999999099981MD1710131+9999MW1141REMSYN072AAXX  04074 94675 41970 72208 10360 20118 39998 40057 57013 71422 8707/;
0191946750999992000021816004-34920+138620FM-12+005099999V0200201N003612200019N0400001N1+03061+01131100681ADDAA199000091AY101999AY201999GF103991031001999999031001MA1999999100091MD1710191+9999MW1021REMSYN072AAXX  18164 94675 31982 30207 10306 20113 30009 40068 57019 70200 83030;EQDQ01  00002PRCP99
0171946750999992000040208004-34920+138620FM-12+005099999V0202401N003612200019N0400001N1+01881+01291101611ADDAY101999AY201999GA1001+999999999GF100991001001999999001001MA1999999101001MD1210051+9999MW1021REMSYN066AAXX  02084 94675 41982 02407 10188 20129 30100 40161 52005 70200;
0184946750999992000042302004-34920+138620FM-12+005099999V0201201N004612200019N0400001N1+01461+00571103141ADDAY121999AY221999GF107991011051012501001041KA1999N+01061MA1999999102521MD1410001+9999MW1031REMSYN082AAXX  23024 94675 41682 71209 10146 20057 30252 40314 54000 70322 81504 333 20106;
0191946750999992000042723004-34920+138620FM-12+005099999V0200101N005719999999N0400001N1+02171+01121101951ADDAA199000091AY111999AY211999GF107991071001017501999999MA1999999101341MD1210081+9999MW1031REMSYN072AAXX  27234 94675 31782 70111 10217 20112 30134 40195 52008 70311 870//;EQDQ01  00002PRCP99
0178946750999992000052023004-34920+138620FM-12+005099999V0209999C000012200019N0350001N1+01011+00691103301ADDAA124000591AY101999AY201999GF101991011041012501001001MA1999999102681MD1310131+9999MW1021REMSYN078AAXX  20234 94675 11681 10000 10101 20069 30268 40330 53013 69944 70200 81400;
0161946750999992000053108004-34920+138620FM-12+005099999V0201901N003610120019N0350001N1+01281+00771102631ADDAY121999AY221999GF107991071051012501001001MA1999999102021MD1210071+9999MW1021REMSYN072AAXX  31084 94675 41681 71907 10128 20077 30202 40263 52007 70222 87500;
0124946750999992000060502004-34920+138620FM-12+005099999V0202301N005119999999N9999999N1+01231+00661102701ADDKA1999N+00631MA1999999102081MD1210071+9999REMSYN070AAXX  05024 94675 419// /2310 10123 20066 30208 40270 52007 333 20063;
0178946750999992000062105004-34920+138620FM-12+005099999V0202901N007710360019N0400001N1+01551+00871100751ADDAA106003091AY121999AY221999GF105991041021004501021001MA1999999100141MD1210031+9999MW1151REMSYN078AAXX  21054 94675 11482 52915 10155 20087 30014 40075 52003 60031 71522 84220;
0172946750999992000062705004-34920+138620FM-12+005099999V0203101N006212200019N0400001N1+01471+00621101111ADDAA199000021AY101999AY201999GF101991011041004501041001MA1999999100501MD1710131+9999MW1011REMSYN072AAXX  27054 94675 31482 13112 10147 20062 30050 40111 57013 70100 81440;
0178946750999992000062723004-34920+138620FM-12+005099999V0202901N003610360019N0400001N1+01031+00651101011ADDAA124010991AY121999AY221999GF106991041081004501021011MA1999999100401MD1210141+9999MW1151REMSYN078AAXX  27234 94675 11482 62907 10103 20065 30040 40101 52014 60114 71522 84821;
0178946750999992000070623004-34920+138620FM-12+005099999V0209999C002110042019N0200001N1+01111+01091101511ADDAA124003091AY151999AY251999GF108991081051004501999999MA1999999100891MD1210091+9999MW1161REMSYN078AAXX  06234 94675 11470 80004 10111 20109 30089 40151 52009 60034 71655 885//;
0161946750999992000080820004-34920+138620FM-12+005099999V0202401N002610090019N0250001N1+00961+00731101541ADDAY181999AY281999GF106991061081004501001001MA1999999100921MD1210141+9999MW1151REMSYN072AAXX  08204 94675 41475 62405 10096 20073 30092 40154 52014 71588 86800;
0184946750999992000090114004-34920+138620FM-12+005099999V0202801N004110090019N0250001N1+01081+00751100911ADDAY181999AY221999GF105991051081004501999999KA1999M+01751MA1999999100301MD1210161+9999MW1021REMSYN082AAXX  01144 94675 41475 52808 10108 20075 30030 40091 52016 70282 858// 333 10175;
0184946750999992000090702004-34920+138620FM-12+005099999V0202901N009310042019N0200001N1+01511+01101099321ADDAY181999AY221999GF106991061051004501999999KA1999N+01131MA1999999098721MD1210081+9999MW1801REMSYN082AAXX  07024 94675 41470 62918 10151 20110 39872 49932 52008 78082 865// 333 20113;
0178946750999992000091123004-34920+138620FM-12+005099999V0203001N003110090019N0300001N1+01321+00861102711ADDAA124000891AY151999AY221999GF108991081081004501999999MA1999999102091MD1210201+9999MW1141REMSYN078AAXX  11234 94675 11480 83006 10132 20086 30209 40271 52020 69984 71452 888//;
0191946750999992000102211004-34920+138620FM-12+005099999V0200401N004110360019N0400001N1+02301+01191101181ADDAA199000091AY121999AY221999GF108991011051017501031071MA1999999100581MD1210131+9999MW1021REMSYN072AAXX  22114 94675 31782 80408 10230 20119 30058 40118 52013 70222 81537;EQDQ01  00002PRCP99
0184946750999992000102414004-34920+138620FM-12+005099999V0202101N002610042019N0300001N1+01351+01161101881ADDAY121999AY221999GF107991071051004501001001KA1999M+02001MA1999999101271MD1710071+9999MW1021REMSYN082AAXX  24144 94675 41480 72105 10135 20116 30127 40188 57007 70222 87500 333 10200;
0191946750999992000102523004-34920+138620FM-12+005099999V0202401N004112200019N0400001N1+01611+01131101481ADDAA199000091AY111999AY211999GF104991041041008001031091MA1999999100871MD1210041+9999MW1021REMSYN072AAXX  25234 94675 31582 42408 10161 20113 30087 40148 52004 70211 84439;EQDQ01  00002PRCP99
0161946750999992000103107004-34920+138620FM-12+005099999V0203601N005119999999N0300001N1+02401+00671100141ADDAY121999AY221999GF107991071001999999071999MA1999999099541MD1710201+9999MW1141REMSYN072AAXX  31074 94675 41980 73610 10240 20067 39954 40014 57020 71422 8707/;
0184946750999992000112813004-34920+138620FM-12+005099999V0202001N002112200019N0350001N1+01681+00931101341ADDAY101999AY201999GF101991011001999999031001KA1999M+03011MA1999999100741MD1210051+9999MW1021REMSYN082AAXX  28134 94675 41981 12004 10168 20093 30074 40134 52005 70200 81030 333 10301;
0201946750999992000121416004-34920+138620FM-12+005099999V0201201N003112200019N0300001N1+01641+00741101371ADDAA199000091AY101999AY201999GA1001+999999999GF100991001001999999001001MA1999999100781MD1710141+9999MW1021REMSYN066AAXX  14164 94675 31980 01206 10164 20074 30078 40137 57014 70200;EQDQ01  00002PRCP99
0161946750999992000122119004-34920+138620FM-12+005099999V0202501N005110012019N0200001N1+02081+01911100361ADDAY121999AY221999GF108991081051001501999999MA1999999099771MD1210061+9999MW1021REMSYN072AAXX  21194 94675 41270 82510 10208 20191 39977 40036 52006 70222 885//;
0144946760999992000052105004-30300+139330FM-12+034099999V0201001N001019999999N0500001N1+01701+01161999999ADDAA199000091AY121999AY221999GF107991071051999999999999MW1021REMSYN054AAXX  21054 94676 31/84 71002 10170 20116 70222 875//;EQDQ01  00002PRCP99
0144946760999992000070705004-30290+139320FM-12+034099999V0203201N004612200019N0500001N1+01841+00501999999ADDAA199000091AY111999AY211999GF104991001001999999999021MW1031REMSYN054AAXX  07054 94676 31/84 43209 10184 20050 70311 800/2;EQDQ01  00002PRCP99
0144946760999992000070805004-30290+139320FM-12+034099999V02099999999999999999N0400001N1+01691+00551999999ADDAA199000091AY121999AY221999GF107991051021999999001021MW1031REMSYN054AAXX  08054 94676 31/82 7//// 10169 20055 70322 85202;EQDQ01  00002PRCP99
0138946760999992000100623004-30290+139320FM-12+034099999V0202701N006719999999N0400001N1+03001+00231999999ADDAA199000091AY121999AY221999GF107991999999999999999999MW1021REMSYN048AAXX  06234 94676 31/82 72713 10300 20023 70222;EQDQ01  00002PRCP99
0119946760999992000101705004-30290+139320FM-12+034099999V0203601N015419999999N0500001N1+02521-00241999999ADDAA199000021AY121999AY221999GF108991999999999999999999MW1501REMSYN048AAXX  17054 94676 31/84 83630 10252 21024 75022;
0154946760999992000120822004-30290+139320FM-12+034099999V0200901N002612200019N0500001N1+02901-01171999999ADDAA199000091AY101999AY201999GA1001+999999999GF100991001001999999001001MW1021REMSYN048AAXX  08224 94676 31984 00905 10290 21117 70200;EQDQ01  00002PRCP99
0138946760999992000121604004-30290+139320FM-12+034099999V0203601N004612200019N0400001N1+03631+00401999999ADDAA199000091AY101999AY201999GF101991999999999999999999MW1021REMSYN048AAXX  16044 94676 31/82 13609 10363 20040 70200;EQDQ01  00002PRCP99
0154946770999992000042523004-35520+138800FM-12+000399999V0200901N001012200019N0300001N1+01361+00711999999ADDAA199000091AY101999AY201999GA1001+999999999GF100991001001999999001001MW1001REMSYN048AAXX  25234 94677 31980 00902 10136 20071 70000;EQDQ01  00002PRCP99
0144946770999992000052205004-35520+138800FM-12+000399999V0203101N000510360019N0250001N1+01761+00971999999ADDAA199000091AY121999AY221999GF105991041081008001041001MW1011REMSYN054AAXX  22054 94677 31575 53101 10176 20097 70122 84840;EQDQ01  00002PRCP99
0131946770999992000060505004-35520+138800FM-12+000399999V0202301N003110120019N0200001N1+01211+00961999999ADDAA106000891AY161999AY221999GF107991061031012501071999MW1031REMSYN060AAXX  05054 94677 11670 72306 10121 20096 69981 70362 8637/;
0114946770999992000061502004-35510+138790FM-12+000399999V0203401N006719999999N0350001N1+01541+00591999999ADDAY121999AY221999GF108991031001999999071061MW1031REMSYN054AAXX  15024 94677 41/81 83413 10154 20059 70322 83076;
0114946770999992000071002004-35510+138790FM-12+000399999V0200901N000510120019N0400001N1+01401+01061999999ADDAY151999AY221999GF107991051031012501041021MW1031REMSYN054AAXX  10024 94677 41682 70901 10140 20106 70352 85342;
0144946770999992000072305004-35510+138790FM-12+000399999V0203401N008212200019N0300001N1+01901+01241999999ADDAA199000091AY101999AY201999GF102991021001999999071001MW1031REMSYN054AAXX  23054 94677 31/80 23416 10190 20124 70300 82070;EQDQ01  00002PRCP99
0114946770999992000090902004-35510+138790FM-12+000399999V0202701N009810042019N0150001N1+01451+01091999999ADDAY161999AY221999GF107991071031004501001001MW1151REMSYN054AAXX  09024 94677 41465 72719 10145 20109 71562 87300;
0144946770999992000092023004-35510+138790FM-12+000399999V0202701N005119999999N0250001N1+01451+00971999999ADDAA199000091AY121999AY221999GF107991071001999999071001MW1031REMSYN054AAXX  20234 94677 31/75 72710 10145 20097 70322 87070;EQDQ01  00002PRCP99
0114946770999992000102002004-35510+138790FM-12+000399999V0201601N003610360019N0150001N1+01541+01211999999ADDAY151999AY221999GF107991041021008001071999MW1151REMSYN054AAXX  20024 94677 41565 71607 10154 20121 71552 8427/;
0114946770999992000111001004-35510+138790FM-12+000399999V0201801N003610075019N0050001N1+01701+01551999999ADDAY141999AY241999GF108991081061008001999999MW1121REMSYN054AAXX  10014 94677 41550 81807 10170 20155 71244 886//;
0124946770999992000121501004-35510+138790FM-12+000399999V0201801N006212200019N0350001N1+01811+01241999999ADDAY101999AY201999GA1001+999999999GF100991001001999999001001MW1001REMSYN048AAXX  15014 94677 41981 01812 10181 20124 70000;
0077946780999992000031813004-34730+138930FM-12+051599999V0201401N005119999999N9999999N1+01311+01261999999ADDKA1999M+02301REMSYN052AAXX  18134 94678 45/// /1410 10131 20126 333 10230;
0051946780999992000040820004-34730+138930FM-12+051599999V0200401N003119999999N9999999N1+01681+01041999999REMSYN042AAXX  08204 94678 45/// /0406 10168 20104;
0084946780999992000041811004-34730+138930FM-12+051599999V0202201N002119999999N9999999N1+01251+00801999999ADDAA199000091REMSYN042AAXX  18114 94678 35/// /2204 10125 20080;EQDQ01  00002PRCP99
0077946780999992000042814004-34730+138930FM-12+051599999V0200201N010319999999N9999999N1+02081+01171999999ADDKA1999M+02291REMSYN052AAXX  28144 94678 45/// /0220 10208 20117 333 10229;
0051946780999992000050317004-34730+138930FM-12+051599999V0202101N005119999999N9999999N1+01111+01111999999REMSYN042AAXX  03174 94678 45/// /2110 10111 20111;
0071946780999992000052923004-34730+138930FM-12+051599999V0202001N004119999999N9999999N1+00671+00601999999ADDAA124000591REMSYN048AAXX  29234 94678 15/// /2008 10067 20060 69944;
0084946780999992000060711004-34730+138930FM-12+051599999V0202801N003119999999N9999999N1+00851+00841999999ADDAA199000091REMSYN042AAXX  07114 94678 35/// /2806 10085 20084;EQDQ01  00002PRCP99
0077946780999992000061623004-34730+138930FM-12+051599999V0202901N002619999999N9999999N1+00811+00811999999ADDAA124001091REMSYN054AAXX  16234 94678 1//// /2905 10081 20081 60014 7//44;
0084946780999992000061917004-34730+138930FM-12+051599999V0200101N009319999999N9999999N1+01271+00741999999ADDAA199000091REMSYN042AAXX  19174 94678 35/// /0118 10127 20074;EQDQ01  00002PRCP99
0077946780999992000062914004-34730+138930FM-12+051599999V0202401N002119999999N9999999N1+00701+00701999999ADDKA1999M+01071REMSYN052AAXX  29144 94678 45/// /2404 10070 20070 333 10107;
0077946780999992000070314004-34730+138930FM-12+051599999V0200601N006719999999N9999999N1+00831+00801999999ADDKA1999M+01281REMSYN052AAXX  03144 94678 45/// /0613 10083 20080 333 10128;
0084946780999992000081805004-34730+138930FM-12+051599999V0200501N004119999999N9999999N1+01251+00321999999ADDAA199000091REMSYN042AAXX  18054 94678 35/// /0508 10125 20032;EQDQ01  00002PRCP99
0057946780999992000090108004-34730+138930FM-12+051599999V0202601N006719999999N9999999N1+00661+00661999999REMSYN048AAXX  01084 94678 4//// /2613 10066 20066 72144;
0077946780999992000090711004-34730+138930FM-12+051599999V0202401N013919999999N9999999N1+00941+00911999999ADDAA106000891REMSYN054AAXX  07114 94678 1//// /2427 10094 20091 69981 7//44;
0077946780999992000090805004-34730+138930FM-12+051599999V0202501N013419999999N9999999N1+01051+00701999999ADDKA1999N+00761REMSYN052AAXX  08054 94678 45/// /2526 10105 20070 333 20076;
0077946780999992000091314004-34730+138930FM-12+051599999V0203401N008719999999N9999999N1+01571+00141999999ADDKA1999M+01841REMSYN052AAXX  13144 94678 45/// /3417 10157 20014 333 10184;
0051946780999992000091508004-34730+138930FM-12+051599999V0200501N004619999999N9999999N1+01481+00901999999REMSYN042AAXX  15084 94678 45/// /0509 10148 20090;
0084946780999992000101611004-34730+138930FM-12+051599999V0200701N006719999999N9999999N1+01261+00481999999ADDAA199000091REMSYN042AAXX  16114 94678 35/// /0713 10126 20048;EQDQ01  00002PRCP99
0084946780999992000102305004-34730+138930FM-12+051599999V0201801N005119999999N9999999N1+01821+01391999999ADDAA199000091REMSYN042AAXX  23054 94678 35/// /1810 10182 20139;EQDQ01  00002PRCP99
0084946780999992000103116004-34730+138930FM-12+051599999V0202801N006219999999N9999999N1+01161+01141999999ADDAA199000091REMSYN042AAXX  31164 94678 35/// /2812 10116 20114;EQDQ01  00002PRCP99
0051946780999992000111519004-34730+138930FM-12+051599999V0201001N004619999999N9999999N1+01541+01521999999REMSYN042AAXX  15194 94678 45/// /1009 10154 20152;
0084946780999992000120716004-34730+138930FM-12+051599999V0201501N008219999999N9999999N1+01041+01041999999ADDAA199000091REMSYN042AAXX  07164 94678 35/// /1516 10104 20104;EQDQ01  00002PRCP99
0051946780999992000121819004-34730+138930FM-12+051599999V0202901N003119999999N9999999N1+02111+00291999999REMSYN042AAXX  18194 94678 45/// /2906 10211 20029;
0084946780999992000122310004-34730+138930FM-12+051599999V0202501N007219999999N9999999N1+01551+01531999999ADDAA199000091REMSYN042AAXX  23104 94678 35/// /2514 10155 20153;EQDQ01  00002PRCP99
0144946790999992000012904004-33020+138700FM-12+051599999V0202301N001512200019N0500001N1+02601+01151999999ADDAA199000091AY101999AY201999GF101991011001999999031001MW1031REMSYN054AAXX  29044 94679 31/84 12303 10260 20115 70300 81030;EQDQ01  00002PRCP99
0114946790999992000021119004-33020+138700FM-12+051599999V0201301N001512200019N0100001N1+01021+00941999999ADDAY101999AY201999GF101991001001999999001021MW1011REMSYN054AAXX  11194 94679 41/60 11303 10102 20094 70100 80002;
0144946790999992000032004004-33020+138700FM-12+051599999V0200901N002610075019N0500001N1+01751+00891999999ADDAA199000091AY121999AY221999GF108991081031008001999999MW1021REMSYN054AAXX  20044 94679 31584 80905 10175 20089 70222 883//;EQDQ01  00002PRCP99
0114946790999992000070102004-33190+138700FM-12+051599999V0201301N001519999999N0500001N1+00941+00611999999ADDAY121999AY221999GF108991081001999999021999MW1021REMSYN054AAXX  01024 94679 41/84 81303 10094 20061 70222 8802/;
0141946790999992000072023004-33010+138700FM-12+051599999V0202301N002112200019N0500001N1+00911+00571999999ADDAA124001091AY101999AY201999GA1001+999999999GF100991001001999999001001MW1021REMSYN054AAXX  20234 94679 11984 02304 10091 20057 60014 70200;
0114946790999992000072902004-33010+138700FM-12+051599999V0203101N000519999999N0500001N1+01041+00531999999ADDAY121999AY221999GF107991001001999999001041MW1021REMSYN054AAXX  29024 94679 41/84 73101 10104 20053 70222 80004;
0144946790999992000081111004-33010+138700FM-12+051599999V0209999C000010075019N0100001N1+00851+00281999999ADDAA199000091AY121999AY221999GF107991071041008001001001MW1021REMSYN054AAXX  11114 94679 31560 70000 10085 20028 70222 87400;EQDQ01  00002PRCP99
0124946790999992000082820004-33010+138700FM-12+051599999V0209999C000012200019N0100001N1+00031-00021999999ADDAY101999AY201999GA1001+999999999GF100991001001999999001001MW1021REMSYN048AAXX  28204 94679 41960 00000 10003 21002 70200;
0114946790999992000083020004-33010+138700FM-12+051599999V0202701N005712200019N0100001N1+00751+00601999999ADDAY101999AY201999GF103991011011008001041001MW1021REMSYN054AAXX  30204 94679 41560 32711 10075 20060 70200 81140;
0144946790999992000101523004-33010+138700FM-12+051599999V0200501N000512200019N0500001N1+01611+00711999999ADDAA199000091AY101999AY201999GF102991021011008001001001MW1011REMSYN054AAXX  15234 94679 31584 20501 10161 20071 70100 82100;EQDQ01  00002PRCP99
0154946790999992000110422004-33010+138700FM-12+051599999V0200901N002612200019N0500001N1+01461+00761999999ADDAA199000091AY101999AY201999GA1001+999999999GF100991001001999999001001MW1021REMSYN048AAXX  04224 94679 31984 00905 10146 20076 70200;EQDQ01  00002PRCP99
0114946790999992000111019004-33010+138700FM-12+051599999V0200901N003610075019N0100001N1+01351+01301999999ADDAY111999AY211999GF108991081031008001999999MW1031REMSYN054AAXX  10194 94679 41560 80907 10135 20130 70311 883//;
0114946790999992000120619004-33010+138700FM-12+051599999V0209999C000019999999N0500001N1+01281+00481999999ADDAY121999AY221999GF105991051001999999041001MW1031REMSYN054AAXX  06194 94679 41/84 50000 10128 20048 70322 85040;
0144946790999992000121204004-33010+138700FM-12+051599999V0202301N002112200019N0500001N1+03151+00721999999ADDAA199000091AY101999AY201999GF103991001001999999001091MW1021REMSYN054AAXX  12044 94679 31/84 32304 10315 20072 70200 80009;EQDQ01  00002PRCP99
0124946790999992000121801004-33010+138700FM-12+051599999V0200501N001012200019N0500001N1+02821+01301999999ADDAY101999AY201999GA1001+999999999GF100991001001999999001001MW1021REMSYN048AAXX  18014 94679 41984 00502 10282 20130 70200;
0154946790999992000122710004-33010+138700FM-12+051599999V0202001N000512200019N0200001N1+01441+00441999999ADDAA199000091AY101999AY201999GA1001+999999999GF100991001001999999001001MW1021REMSYN048AAXX  27104 94679 31970 02001 10144 20044 70200;EQDQ01  00002PRCP99
0161946800999992000012401004-34170+139080FM-12+041699999V0200901N003619999999N0400001N1+01501+00581101551ADDAY161999AY221999GF108991081001999999021999MA1999999096811MD1710031+9999MW1611REMSYN072AAXX  24014 94680 41/82 80907 10150 20058 39681 40155 57003 76162 8802/;
0201946800999992000021622004-34170+139080FM-12+041699999V0203601N001012200019N0400001N1+02511+00851101521ADDAA199000091AY101999AY201999GA1001+999999999GF100991001001999999001001MA1999999096791MD1210191+9999MW1021REMSYN066AAXX  16224 94680 31982 03602 10251 20085 39679 40152 52019 70200;EQDQ01  00002PRCP99
0161946800999992000022601004-34170+139080FM-12+041699999V0201301N002612200019N0400001N1+02401+01771101751ADDAY141999AY241999GF102991001001999999001011MA1999999097011MD1210101+9999MW1011REMSYN072AAXX  26014 94680 41/82 21305 10240 20177 39701 40175 52010 70144 80001;
0191946800999992000030304004-34170+139080FM-12+041699999V0201801N003612200019N0400001N1+02801+01771101671ADDAA199000091AY101999AY201999GF104991031051008001031001MA1999999096891MD1710011+9999MW1021REMSYN072AAXX  03044 94680 31582 41807 10280 20177 39689 40167 57001 70200 83530;EQDQ01  00002PRCP99
0161946800999992000030801004-34170+139080FM-12+041699999V0201301N005112200019N0400001N1+02211+01321102081ADDAY101999AY201999GF101991011001999999031001MA1999999097281MD1210021+9999MW1021REMSYN072AAXX  08014 94680 41/82 11310 10221 20132 39728 40208 52002 70200 81030;
0191946800999992000031510004-34170+139080FM-12+041699999V0202301N004612200019N0400001N1+01621+00921101771ADDAA199000091AY111999AY211999GF102991021001999999041001MA1999999096981MD1210111+9999MW1011REMSYN072AAXX  15104 94680 31/82 22309 10162 20092 39698 40177 52011 70111 82040;EQDQ01  00002PRCP99
0161946800999992000061102004-34170+139080FM-12+041699999V0200901N005112200019N0400001N1+01131+00561103291ADDAY101999AY201999GF101991011001999999041001MA1999999098281MD1710101+9999MW1011REMSYN072AAXX  11024 94680 41/82 10910 10113 20056 39828 40329 57010 70100 81040;
0171946800999992000061302004-34170+139080FM-12+041699999V0200901N004112200019N0400001N1+01121+00401103781ADDAY101999AY201999GA1001+999999999GF100991001001999999001001MA1999999098741MD1710061+9999MW1021REMSYN066AAXX  13024 94680 41982 00908 10112 20040 39874 40378 57006 70200;
0129946800999992000062620004-34170+139790FM-12+041699999V0202301N002619999999N0010001N1+00891+00831101081ADDAY151999AY221999MA1999999096171MD1210101+9999MW1511REMSYN066AAXX  26204 94680 41910 /2305 10089 20083 39617 40108 52010 75152;
0178946800999992000071905004-34170+139070FM-12+041699999V0202301N010312200019N0400001N1+00901+00361101101ADDAA106001091AY181999AY211999GF104991021031008001051001MA1999999096181MD1210111+9999MW1031REMSYN078AAXX  19054 94680 11582 42320 10090 20036 39618 40110 52011 60011 70381 82350;
0161946800999992000073102004-34170+139070FM-12+041699999V0209999C000012200019N0400001N1+01411+00561102541ADDAY101999AY201999GF101991011011017501001001MA1999999097551MD1710081+9999MW1021REMSYN072AAXX  31024 94680 41782 10000 10141 20056 39755 40254 57008 70200 81100;
0178946800999992000082723004-34170+139070FM-12+041699999V0202001N004610042019N0400001N1+00931+00771100961ADDAA124005191AY181999AY281999GF106991061031004501001001MA1999999096061MD1210251+9999MW1801REMSYN078AAXX  27234 94680 11482 62009 10093 20077 39606 40096 52025 60054 78088 86300;
0146946800999992000101711004-34170+139070FM-12+041699999V0203601N002619999999N0100001N1+01211+01191100731ADDAA106006191AY181999AY261999MA1999999095921MD1710141+9999MW1801REMSYN072AAXX  17114 94680 11960 /3605 10121 20119 39592 40073 57014 60061 78086;
0191946810999992000010604004-34470+139000FM-12+027699999V0201801N005112200019N0200001N1+02231+00471101791ADDAA106000091AY101999AY201999GF101991001001999999001051MA1999999098601MD1710231+9999MW1021REMSYN072AAXX  06044 94681 31998 11810 10223 20047 39860 40179 57023 70200 80005;EQDQ01  00002PRCP06
0135946810999992000011516004-34470+139000FM-12+027699999V0201201N005119999999N9999999N1+02311+01211101061ADDAA199000091MA1999999097901MD1710081+9999REMSYN064    AAXX  15164 94681 35/// /1210 10231 20121 39790 40106 57008;EQDQ01  00002PRCP99
0128946810999992000011713004-34470+139000FM-12+027699999V0200501N002619999999N9999999N1+03101+01871101011ADDKA1999M+03801MA1999999097851MD1210071+9999REMSYN074    AAXX  17134 94681 45/// /0505 10310 20187 39785 40101 52007 333 10380;
0124946810999992000021910004-34470+139000FM-12+027699999V0202701N003119999999N9999999N1+02331+02172100331ADDAA106001091MA1999999097191MD1210201+9999REMSYN072AAXX  19104 94681 1//// /2706 10233 20217 39719 40033 52020 60011 74144;
0191946810999992000022504004-34470+139000FM-12+027699999V0200401N003112200019N0200001N1+03091+01891101211ADDAA199000091AY111999AY211999GF105991041021004501001011MA1999999098041MD1710201+9999MW1021REMSYN072AAXX  25044 94681 31498 50406 10309 20189 39804 40121 57020 70211 84201;EQDQ01  00002PRCP99
0124946810999992000022913004-34470+139000FM-12+027699999V0201201N004119999999N9999999N1+02321+01021101591ADDKA1999M+03151MA1999999098391MD1710011+9999REMSYN070AAXX  29134 94681 45/// /1208 10232 20102 39839 40159 57001 333 10315;
0191946810999992000031704004-34470+139000FM-12+027699999V0203601N008212200019N0200001N1+03661+00801100851ADDAA199000091AY101999AY201999GF102991021011004501001001MA1999999097671MD1710291+9999MW1021REMSYN072AAXX  17044 94681 31498 23616 10366 20080 39767 40085 57029 70200 82100;EQDQ01  00002PRCP99
0101946810999992000032419004-34470+139000FM-12+027699999V0200801N002619999999N9999999N1+01151+00561101891ADDMA1999999098681MD1710031+9999REMSYN060AAXX  24194 94681 45/// /0805 10115 20056 39868 40189 57003;
0191946810999992000033005004-34470+139000FM-12+027699999V0202501N004110042019N0200001N1+01831+01001101771ADDAA199000091AY121999AY221999GF107991051021004501001021MA1999999098561MD1710201+9999MW1021REMSYN072AAXX  30054 94681 31498 72508 10183 20100 39856 40177 57020 70222 85202;EQDQ01  00002PRCP99
0191946810999992000041405004-34470+139000FM-12+027699999V0202501N005112200019N0200001N1+01931+01181101291ADDAA199000091AY111999AY211999GF102991021021012501999999MA1999999098061MD1710091+9999MW1021REMSYN072AAXX  14054 94681 31698 22510 10193 20118 39806 40129 57009 70211 822//;EQDQ01  00002PRCP99
0101946810999992000042708004-34470+139000FM-12+027699999V0200601N002619999999N9999999N1+01931+00961102041ADDMA1999999098781MD1710091+9999REMSYN060AAXX  27084 94681 45/// /0605 10193 20096 39878 40204 57009;
0191946810999992000042905004-34470+139000FM-12+027699999V0203401N01131036001CN0020001N1+02651+00831100671ADDAA199000091AY121999AY221999GF106991021021012501071999MA1999999097461MD1710361+9999MW1321REMSYN072AAXX  29054 94681 31695 63422 10265 20083 39746 40067 57036 73222 8227/;EQDQ01  00002PRCP99
0124946810999992000051402004-34470+139000FM-12+027699999V0202601N006719999999N9999999N1+01281+00711101961ADDKA1999N+00921MA1999999098671MD1210081+9999REMSYN070AAXX  14024 94681 45/// /2613 10128 20071 39867 40196 52008 333 20092;
0178946810999992000051523004-34470+139000FM-12+027699999V0203101N003610075019N0200001N1+01161+01131102861ADDAA124002091AY181999AY221999GF106991061021008001999999MA1999999099541MD1210101+9999MW1021REMSYN078AAXX  15234 94681 11598 63107 10116 20113 39954 40286 52010 60024 70282 862//;
0101946810999992000051608004-34470+139000FM-12+027699999V0202401N002619999999N9999999N1+01181+00991102761ADDMA1999999099441MD1210081+9999REMSYN060AAXX  16084 94681 45/// /2405 10118 20099 39944 40276 52008;
0124946810999992000051614004-34470+139000FM-12+027699999V0209999C000019999999N9999999N1+00791+00751102951ADDKA1999M+01611MA1999999099621MD1210041+9999REMSYN070AAXX  16144 94681 45/// /0000 10079 20075 39962 40295 52004 333 10161;
0124946810999992000053002004-34470+139000FM-12+027699999V0202201N006219999999N9999999N1+01031+00551102701ADDKA1999N+00501MA1999999099381MD1710041+9999REMSYN070AAXX  30024 94681 45/// /2212 10103 20055 39938 40270 57004 333 20050;
0124946810999992000061002004-34470+139000FM-12+027699999V0201101N003619999999N9999999N1+00971+00441103281ADDKA1999N+00451MA1999999099921MD1710161+9999REMSYN070AAXX  10024 94681 45/// /1107 10097 20044 39992 40328 57016 333 20045;
0124946810999992000061311004-34470+139000FM-12+027699999V0200601N003119999999N9999999N1+00541+00271103771ADDAA106000191MA1999999100391MD1210071+9999REMSYN072AAXX  13114 94681 1//// /0606 10054 20027 30039 40377 52007 69921 7//44;
0131946810999992000072917004-34460+139000FM-12+027699999V0200301N001519999999N9999999N1+00351+00281102541ADDAA199000091MA1999999099191MD1710081+9999REMSYN060AAXX  29174 94681 35/// /0303 10035 20028 39919 40254 57008;EQDQ01  00002PRCP99
0124946810999992000082411004-34460+139000FM-12+027699999V0202601N006719999999N9999999N1+00961+00901100511ADDAA106000191MA1999999097241MD1210081+9999REMSYN072AAXX  24114 94681 1//// /2613 10096 20090 39724 40051 52008 69921 74144;
0107946810999992000082508004-34460+139000FM-12+027699999V0202801N001519999999N9999999N1+00981+00881100751ADDMA1999999097471MD1210121+9999REMSYN066AAXX  25084 94681 4//// /2803 10098 20088 39747 40075 52012 72144;
0124946810999992000091502004-34460+139000FM-12+027699999V0200501N005119999999N9999999N1+01601+00821102331ADDKA1999N+00281MA1999999099021MD1710141+9999REMSYN070AAXX  15024 94681 45/// /0510 10160 20082 39902 40233 57014 333 20028;
0131946810999992000091811004-34460+139000FM-12+027699999V0209999C000019999999N9999999N1+00711+00651101831ADDAA199000091MA1999999098531MD1710021+9999REMSYN060AAXX  18114 94681 35/// /0000 10071 20065 39853 40183 57002;EQDQ01  00002PRCP99
0124946810999992000101417004-34460+139000FM-12+027699999V0202601N006719999999N9999999N1+01101+01061101381ADDAA106004191MA1999999098131MD1710071+9999REMSYN072AAXX  14174 94681 1//// /2613 10110 20106 39813 40138 57007 60041 72144;
0131946810999992000112016004-34460+139000FM-12+027699999V0201301N009819999999N9999999N1+01421+01121101161ADDAA199000091MA1999999097951MD1710011+9999REMSYN060AAXX  20164 94681 35/// /1319 10142 20112 39795 40116 57001;EQDQ01  00002PRCP99
0124946810999992000120213004-34460+139000FM-12+027699999V0202001N002119999999N9999999N1+02111+00271101401ADDKA1999M+03081MA1999999098201MD1210091+9999REMSYN070AAXX  02134 94681 45/// /2004 10211 20027 39820 40140 52009 333 10308;
0201946810999992000120722004-34460+139000FM-12+027699999V0201201N005712200019N0200001N1+01631+00721101301ADDAA199000091AY111999AY211999GA1001+999999999GF100991001001999999001001MA1999999098111MD1210151+9999MW1021REMSYN066AAXX  07224 94681 31998 01211 10163 20072 39811 40130 52015 70211;EQDQ01  00002PRCP99
0131946810999992000121410004-34460+139000FM-12+027699999V0201401N007719999999N9999999N1+01651+00671101381ADDAA199000091MA1999999098181MD1210131+9999REMSYN060AAXX  14104 94681 35/// /1415 10165 20067 39818 40138 52013;EQDQ01  00002PRCP99
0101946820999992000011919004-34430+140580FM-12+003099999V0202701N003619999999N9999999N1+01771+01271100851ADDMA1999999100501MD1210071+9999REMSYN060AAXX  19194 94682 45/// /2707 10177 20127 30050 40085 52007;
0131946820999992000012110004-34430+140580FM-12+003099999V0202101N004619999999N9999999N1+01761+00571101431ADDAA199000091MA1999999101081MD1210211+9999REMSYN060AAXX  21104 94682 35/// /2109 10176 20057 30108 40143 52021;EQDQ01  00002PRCP99
0131946820999992000012916004-34430+140580FM-12+003099999V0201901N003619999999N9999999N1+01401+00971101881ADDAA199000091MA1999999101521MD1710111+9999REMSYN060AAXX  29164 94682 35/// /1907 10140 20097 30152 40188 57011;EQDQ01  00002PRCP99
0101946820999992000020707004-34430+140580FM-12+003099999V0202001N001519999999N9999999N1+03441+00311101811ADDMA1999999101451MD1710231+9999REMSYN060AAXX  07074 94682 45/// /2003 10344 20031 30145 40181 57023;
0107946820999992000022119004-34430+140580FM-12+003099999V0200701N005119999999N9999999N1+01951+01851100041ADDMA1999999099691MD1710011+9999REMSYN066AAXX  21194 94682 4//// /0710 10195 20185 39969 40004 57001 7//44;
0131946820999992000030810004-34430+140580FM-12+003099999V0201101N002619999999N9999999N1+02091+01151101811ADDAA199000091MA1999999101451MD1210091+9999REMSYN060AAXX  08104 94682 35/// /1105 10209 20115 30145 40181 52009;EQDQ01  00002PRCP99
0131946820999992000031416004-34430+140580FM-12+003099999V0202001N002119999999N9999999N1+01181+00701101821ADDAA199000091MA1999999101461MD1710181+9999REMSYN060AAXX  14164 94682 35/// /2004 10118 20070 30146 40182 57018;EQDQ01  00002PRCP99
0101946820999992000032307004-34430+140580FM-12+003099999V0201801N004119999999N9999999N1+01801+00371102101ADDMA1999999101741MD1210051+9999REMSYN060AAXX  23074 94682 45/// /1808 10180 20037 30174 40210 52005;
0131946820999992000041211004-34430+140580FM-12+003099999V0201101N005119999999N9999999N1+01741+01621101791ADDAA199000091MA1999999101431MD1210011+9999REMSYN060AAXX  12114 94682 35/// /1110 10174 20162 30143 40179 52001;EQDQ01  00002PRCP99
0124946820999992000050514004-34430+140580FM-12+003099999V0202301N003619999999N9999999N1+01221+00921102491ADDKA1999M+01861MA1999999102121MD1210101+9999REMSYN070AAXX  05144 94682 45/// /2307 10122 20092 30212 40249 52010 333 10186;
0187946820999992000050723004-34430+140580FM-12+003099999V0203201N002612200019N0500001N1+01331+00961102941ADDAA199000091AY101999AY201999GA1001+999999999GF100991001001999999001001MA1999999102571MW1021REMSYN066AAXX  07234 94682 31999 03205 10133 20096 30257 40294 5//// 70200;EQDQ01  00002PRCP99
0101946820999992000051108004-34430+140580FM-12+003099999V0200801N002119999999N9999999N1+01351+00761101911ADDMA1999999101541MD1410001+9999REMSYN060AAXX  11084 94682 45/// /0804 10135 20076 30154 40191 54000;
0131946820999992000052317004-34430+140580FM-12+003099999V0209999C000019999999N9999999N1+00431+00301101581ADDAA199000091MA1999999101211MD1710121+9999REMSYN060AAXX  23174 94682 35/// /0000 10043 20030 30121 40158 57012;EQDQ01  00002PRCP99
0131946820999992000060123004-34430+140580FM-12+003099999V0201801N002119999999N9999999N1+00991+00811102671ADDAA199000091MA1999999102301MD1210151+9999REMSYN060AAXX  01234 94682 35/// /1804 10099 20081 30230 40267 52015;EQDQ01  00002PRCP99
0101946820999992000061520004-34420+140570FM-12+003099999V0203301N002619999999N9999999N1+01111+00281102451ADDMA1999999102081MD1410001+9999REMSYN060AAXX  15204 94682 45/// /3305 10111 20028 30208 40245 54000;
0183946820999992000070105004-34420+140570FM-12+003099999V0201701N002610120019N0500001N1+01191+00561102971ADDAA199000091AW1021AZ121999GF108991081051012501999999MA1999999102591MD1710131+9999REMSYN072AAXX  01054 94682 35699 81705 10119 20056 30259 40297 57013 70222 885//;EQDQ01  00002PRCP99
0131946820999992000070617004-34420+140570FM-12+003099999V0209999C000019999999N9999999N1+00671+00631101451ADDAA199000091MA1999999101081MD1710081+9999REMSYN060AAXX  06174 94682 35/// /0000 10067 20063 30108 40145 57008;EQDQ01  00002PRCP99
0131946820999992000072223004-34420+140570FM-12+003099999V0203501N005119999999N9999999N1+01461+00311101151ADDAA199000091MA1999999100781MD1710081+9999REMSYN060AAXX  22234 94682 35/// /3510 10146 20031 30078 40115 57008;EQDQ01  00002PRCP99
0131946820999992000072423004-34420+140570FM-12+003099999V0203301N006219999999N9999999N1+01211+00301100631ADDAA199000091MA1999999100261MD1710011+9999REMSYN060AAXX  24234 94682 35/// /3312 10121 20030 30026 40063 57001;EQDQ01  00002PRCP99
0124946820999992000082117004-34420+140570FM-12+003099999V0203401N004119999999N9999999N1+00861+00601100231ADDAA106000191MA1999999099861MD1710131+9999REMSYN072AAXX  21174 94682 1//// /3408 10086 20060 39986 40023 57013 69921 7//44;
0101946820999992000083120004-34420+140570FM-12+003099999V0200501N002619999999N9999999N1+00811+00351100511ADDMA1999999100151MD1710181+9999REMSYN060AAXX  31204 94682 45/// /0505 10081 20035 30015 40051 57018;
0124946820999992000101114004-34420+140570FM-12+003099999V0200701N001519999999N9999999N1+00881+00211101681ADDKA1999M+02301MA1999999101321MD1710131+9999REMSYN070AAXX  11144 94682 45/// /0703 10088 20021 30132 40168 57013 333 10230;
0131946820999992000101517004-34420+140570FM-12+003099999V0201501N003119999999N9999999N1+00931+00481101961ADDAA199000091MA1999999101601MD1210021+9999REMSYN060AAXX  15174 94682 35/// /1506 10093 20048 30160 40196 52002;EQDQ01  00002PRCP99
