0213408180999992000120606004+31180+052670FM-12+2004OISA V0203001N005012200019N0150001N1+00661+00051101861ADDAA124000091GA1011+012009029GF101991011021012501001001MA1999999080031MD1210101+9999REMSYN100AAXX  06061 40818 32665 13005 10066 20005 38003 40186 52010 81200 90550 333 30101 50181 70000 81840;EQDQ01  00002PRCP24
0240408180999992000122603004+31180+052670FM-12+2004OISA V0201901N00201036001CN0080001N1+00341-00011101521ADDAY181031AY201031GA1021+010509099GA2021+012009069GF107991041091012501071001KA1120N+00121MA1999999079721MD1310111+9999MW1801REMSYN106AAXX  26031 40818 41658 71902 10034 21001 37972 40152 53011 78080 84970 90250 333 20012 82935 82640 87460;
0184408210999992000011915004+31900+054400FM-12+1230OIYY V0202701N004012200019N0100001N1+00961-00361101301ADDGA1011+010509059GF102991011041012501031001KA1120M+01701MA1999999087371MD1310081+9999REMSYN088AAXX  19151 40821 42660 22704 10096 21036 38737 40130 53008 81430 91450 333 10170 81635;
0172408210999992000020103004+31900+054400FM-12+1230OIYY V0209999C000012200019N0100001N1-00161-00561102171ADDGA1001+999999999GF100991001001999999001001KA1999N-00221MA1999999088031MD1310021+9999REMSYN076AAXX  01031 40821 42960 00000 11016 21056 38803 40217 53002 90250 333 21022;
0190408210999992000042003004+31900+054400FM-12+1230OIYY V0209999C00001036001CN0100001N1+02121+00711100771ADDGA1031+010509069GF105991031041012501031001KA1120N+01861MA1999999087761MD1210061+9999REMSYN094AAXX  20031 40821 42660 50000 10212 20071 38776 40077 52006 83430 90250 333 20186 83635 83360;
0201408210999992000053006004+31900+054400FM-12+1230OIYY V0203201N004012200019N0100001N1+02981+00041100071ADDAA124000091GA1001+999999999GF100991001001999999001001MA1999999087341MD1210141+9999REMSYN088AAXX  30061 40821 32960 03204 10298 20004 38734 40007 52014 90550 333 30019 51601 70000;EQDQ01  00002PRCP24
0165408210999992000062909004+31900+054400FM-12+1230OIYY V0200301N003012200019N0100001N1+03941-00081099861ADDGA1021+030009079GF102991021001999999031001MA1999999087311MD1710061+9999REMSYN082AAXX  29091 40821 42960 20303 10394 21008 38731 49986 57006 82030 90850 333 82360;
0184408210999992000071103004+31900+054400FM-12+1230OIYY V0201401N004010105019N0100001N1+03201-00091099261ADDGA1051+010509059GF106991051041012501031001KA1120N+03141MA1999999086831MD1310081+9999REMSYN088AAXX  11031 40821 42660 61404 10320 21009 38683 49926 53008 85430 90250 333 20314 85635;
0172408210999992000080103004+31900+054400FM-12+1230OIYY V0203101N003012200019N0100001N1+02541+00021100331ADDGA1001+999999999GF100991001001999999001001KA1999N+02301MA1999999087551MD1210081+9999REMSYN076AAXX  01031 40821 42960 03103 10254 20002 38755 40033 52008 90250 333 20230;
0165408210999992000080509004+31900+054400FM-12+1230OIYY V0203001N002012200019N0100001N1+03701-00111100031ADDGA1021+060009019GF102991001001999999001011MA1999999087391MD1810111+9999REMSYN082AAXX  05091 40821 42960 23002 10370 21011 38739 40003 58011 80001 90850 333 82070;
0183408210999992000081612004+31900+054400FM-12+1230OIYY V0202701N002012200019N0100001N1+03781-00841099961ADDAA199000091GA1001+999999999GF100991001001999999001001MA1999999087171MD1710151+9999REMSYN070AAXX  16121 40821 32960 02702 10378 21084 38717 49996 57015 91150 333;EQDQ01  00002PRCP99
0183408210999992000083012004+31900+054400FM-12+1230OIYY V0201401N004012200019N0100001N1+03841-00791099351ADDAA199000091GA1001+999999999GF100991001001999999001001MA1999999086781MD1610191+9999REMSYN070AAXX  30121 40821 32960 01404 10384 21079 38678 49935 56019 91150 333;EQDQ01  00002PRCP99
0201408210999992000091506004+31900+054400FM-12+1230OIYY V0201501N003012200019N0100001N1+03121-00541100561ADDAA124000091GA1001+999999999GF100991001001999999001001MA1999999087691MD1110071+9999REMSYN088AAXX  15061 40821 32960 01503 10312 21054 38769 40056 51007 90550 333 30017 51281 70000;EQDQ01  00002PRCP24
0162408210999992000091512004+31900+054400FM-12+1230OIYY V0209999C000012200019N0100001N1+03701-00451100051ADDAA199000091GA1001+999999999GF100991001001999999001001MD1710201+9999REMSYN064AAXX  15121 40821 32960 00000 10370 21045 40005 57020 91150 333;EQDQ01  00002PRCP99
0189408210999992000100918004+31900+054400FM-12+1230OIYY V0202301N004012200019N0100001N1+01861-00361101151ADDAA199000091GA1001+999999999GF100991001001999999001001MA1999999087821MD1110051+9999REMSYN076AAXX  09181 40821 32960 02304 10186 21036 38782 40115 51005 91750 333 55107;EQDQ01  00002PRCP99
0183408210999992000101018004+31900+054400FM-12+1230OIYY V0202001N004012200019N0100001N1+02081-00601101121ADDAA199000091GA1001+999999999GF100991001001999999001001MA1999999087881MD1110131+9999REMSYN070AAXX  10181 40821 32960 02004 10208 21060 38788 40112 51013 91750 333;EQDQ01  00002PRCP99
0171408210999992000110809004+31900+054400FM-12+1230OIYY V0209999C00001090001CN0100001N1+01421+00451102141ADDGA1011+010509089GF105991011011012501031021MA1999999088281MD1710181+9999REMSYN088AAXX  08091 40821 42660 50000 10142 20045 38828 40214 57018 81132 90850 333 81835 84070;
0172408210999992000111303004+31900+054400FM-12+1230OIYY V0201401N003012200019N0100001N1+00481+00151102241ADDGA1001+999999999GF100991001001999999001001KA1999N+00461MA1999999088281MD1310041+9999REMSYN076AAXX  13031 40821 42960 01403 10048 20015 38828 40224 53004 90250 333 20046;
0184408210999992000112115004+31900+054400FM-12+1230OIYY V0203201N003012200019N0100001N1+01261+00131101541ADDGA1021+010509059GF102991011041012501001001KA1120M+01761MA1999999087671MD1310061+9999REMSYN088AAXX  21151 40821 42660 23203 10126 20013 38767 40154 53006 81400 91450 333 10176 82635;
0213408210999992000112206004+31900+054400FM-12+1230OIYY V0203101N004012200019N0100001N1+00981+00141101681ADDAA124000091GA1021+010509059GF102991021041012501001001MA1999999087921MD1110161+9999REMSYN100AAXX  22061 40821 32660 23104 10098 20014 38792 40168 51016 82400 90550 333 30004 50331 70000 82635;EQDQ01  00002PRCP24
0153408210999992000112521004+31900+054400FM-12+1230OIYY V0203001N004012200019N0100001N1+00581-00151102261ADDGA1001+999999999GF100991001001999999001001MA1999999088421MD1310051+9999REMSYN070AAXX  25211 40821 42960 03004 10058 21015 38842 40226 53005 92050 333;
0210408210999992000120500004+31900+054400FM-12+1230OIYY V0209999C00001036001CN0070001N1+00801+00121102301ADDAA199000021AY111061AY201061GA1021+010509069GF108991021041012501021999MA1999999088461MD1810121+9999MW1601REMSYN094AAXX  05001 40821 31657 80000 10080 20012 38846 40230 58012 76010 8242/ 92350 333 82635 88558;
0210408210999992000120512004+31900+054400FM-12+1230OIYY V0203401N002010900019N0100001N1+01221+00341102141ADDAA199000021AY121061AY211061GA1011+010509069GF105991011041012501031011MA1999999088281MD1610161+9999MW1051REMSYN094AAXX  05121 40821 32660 53402 10122 20034 38828 40214 56016 70521 81431 91150 333 81635 83360;
0210408270999992000022812004+31530+060030FM-12+121199999V0209999C000010105019N0100001N1+02001+00101101331ADDAA106000791GA1021+009009099GA2031+010509069GF108991051031008001021999MA1999999088031MD1510041+9999REMSYN100AAXX  28121 40827 12560 80000 10200 20010 38803 40133 55004 69901 8532/ 91150 333 82930 83635 88457;
0153408270999992000053009004+31530+060030FM-12+121199999V0209999C000012200019N0150001N1+03861-00341099821ADDGA1001+999999999GF100991001001999999001001MA1999999087401MD1810111+9999REMSYN070AAXX  30091 40827 42965 00000 10386 21034 38740 49982 58011 90850 333;
0181408270999992000061309004+31530+060030FM-12+121199999V0201601N004012200019N0080001N1+03501+00451099811ADDAY101031AY201031GA1001+999999999GF100991001001999999001001MA1999999087261MD1710081+9999MW1071REMSYN076AAXX  13091 40827 41958 01604 10350 20045 38726 49981 57008 70700 90850 333;
0172408270999992000091703004+31520+060030FM-12+121199999V0209999C000012200019N0120001N1+01881+00171100821ADDGA1001+999999999GF100991001001999999001001KA1999N+01821MA1999999087981MD1210061+9999REMSYN076AAXX  17031 40827 42962 00000 10188 20017 38798 40082 52006 90250 333 20182;
0183408270999992000101012004+31520+060030FM-12+121199999V0209999C000012200019N0200001N1+02701-00261101441ADDAA199000091GA1001+999999999GF100991001001999999001001MA1999999088161MD1710101+9999REMSYN070AAXX  10121 40827 32970 00000 10270 21026 38816 40144 57010 91150 333;EQDQ01  00002PRCP99
0184408270999992000120215004+31520+060030FM-12+121199999V0209999C000012200019N0150001N1+01301-00511102431ADDGA1041+060009019GF104991001001999999001011KA1120M+01841MA1999999088591MD1210161+9999REMSYN088AAXX  02151 40827 42965 40000 10130 21051 38859 40243 52016 80001 91450 333 10184 84070;
0190408270999992000120915004+31520+060030FM-12+121199999V0209999C00001036001CN0120001N1+01221+00261102551ADDGA1011+012009069GF108991011051012501011999KA1120M+01541MA1999999088711MD1210151+9999REMSYN094AAXX  09151 40827 42662 80000 10122 20026 38871 40255 52015 8151/ 91450 333 10154 81640 88459;
0153408270999992000123009004+31520+060030FM-12+121199999V0209999C000012200019N0150001N1+01261-00801102521ADDGA1001+999999999GF100991001001999999001001MA1999999088681MD1810191+9999REMSYN070AAXX  30091 40827 42965 00000 10126 21080 38868 40252 58019 90850 333;
0183408290999992000022500004+31330+061480FM-12+0489OIZB V0209999C000012200019N0100001N1+00661-00521101911ADDAA199000091GA1001+999999999GF100991001001999999001001MA1999999096221MD1610051+9999REMSYN070AAXX  25001 40829 32960 00000 10066 21052 39622 40191 56005 92350 333;EQDQ01  00002PRCP99
0241408290999992000041206004+31330+061480FM-12+0489OIZB V0203201N013012200019N0030001N1+03001+01101100551ADDAA124000091AY101061AY201061GA1011+060009019GF101991001001999999001011MA1999999095171MD1110121+9999MW1071REMSYN106AAXX  12061 40829 31930 13213 10300 20110 39517 40055 51012 70700 80001 90550 333 30019 51450 70000 81070;EQDQ01  00002PRCP24
0207408290999992000060400004+31330+061480FM-12+0489OIZB V0203201N013012200019N0050001N1+02501+00541100441ADDAA199000091AY101061AY201061GA1001+999999999GF100991001001999999001001MA1999999095141MD1410001+9999MW1071REMSYN072AAXX  04001 40829 31950 03213 10250 20054 39514 40044 54000 70700 92350;EQDQ01  00002PRCP99
0207408290999992000071306004+31320+061480FM-12+0489OIZB V0203301N018012200019N0006001N1+03621+01581099521ADDAA124000091GA1001+999999999GF100991001001999999001001MA1999999094331MD1110041+9999REMSYN094AAXX  13061 40829 3/906 03318 10362 20158 39433 49952 51004 73130 90550 333 30029 53700 70000;EQDQ01  00002PRCP24
0217408290999992000081718004+31320+061480FM-12+0489OIZB V0203401N013012200019N0070001N1+03321+00941100061ADDAA199000091AY101061AY201061GA1001+999999999GF100991001001999999001001MA1999999094801MD1310141+9999MW1071REMSYN082AAXX  17181 40829 31957 03413 10332 20094 39480 40006 53014 70700 91750 333 55044;EQDQ01  00002PRCP99
0179408290999992000090718004+31320+061480FM-12+0489OIZB V0203201N007012200019N0100001N1+03081+00211100121ADDAA199000091GA1001+999999999GF100991001001999999001001MA1999999094861MD1310151+9999REMSYN066AAXX  07181 40829 32960 03207 10308 20021 39486 40012 53015 91750;EQDQ01  00002PRCP99
0228408290999992000110706004+31320+061480FM-12+0489OIZB V0203401N010012200019N0100001N1+01501+00891101471ADDAA106000891AY161061AY221061GA1011+012009059GF101991011041012501001001MA1999999095821MD1210161+9999MW1011REMSYN112AAXX  07061 40829 11660 13410 10150 20089 39582 40147 52016 69971 70162 81400 90550 333 31010 51200 70032 81640;
0172408310999992000010203004+30370+048250FM-12+0011OIAA V0209999C000012200019N0100001N1+00721+00541101701ADDGA1001+999999999GF100991001001999999001001KA1999N+00721MA1999999101621MD1210051+9999REMSYN076AAXX  02031 40831 42960 00000 10072 20054 30162 40170 52005 90250 333 20072;
0184408310999992000011303004+30370+048250FM-12+0011OIAA V0209999C000010300019N0100001N1+00581+00401102241ADDGA1061+030009079GF106991061001999999031001KA1120N+00461MA1999999102161MD1310071+9999REMSYN088AAXX  13031 40831 42960 60000 10058 20040 30216 40224 53007 86030 90250 333 20046 86360;
0256408310999992000011518004+30370+048250FM-12+001199999V0209999C00001012001AN0080001N1+00881+00521101781ADDAA106000591AY181061AY261061GA1021+010509099GA2031+012009069GF108991051031012501021999GJ100609MA1999999101701MD1810071+9999MW1601REMSYN116    AAXX  15181 40831 11658 80000 10088 20052 30170 40178 58007 69951 76086 8532/ 91750 333 55010 82935 83640 88559;
0195408310999992000012212004+30370+048250FM-12+0011OIAA V0203401N004012200019N0100001N1+01741+00141102131ADDAA199000091GA1011+012009029GF101991011011012501001001MA1999999102051MD1610021+9999REMSYN082AAXX  22121 40831 32660 13404 10174 20014 30205 40213 56002 81100 91150 333 81840;EQDQ01  00002PRCP99
0190408310999992000021303004+30370+048250FM-12+0011OIAA V0209999C00001036001CN0100001N1+01421+00481101551ADDGA1031+012009069GF108991031041012501021999KA1120N+01361MA1999999101471MD1510221+9999REMSYN094AAXX  13031 40831 42660 80000 10142 20048 30147 40155 55022 8342/ 90250 333 20136 83640 88460;
0195408310999992000022212004+30370+048250FM-12+0011OIAA V0209999C000012200019N0100001N1+02401-00171101471ADDAA199000091GA1021+060009019GF102991001001999999001011MA1999999101391MD1710281+9999REMSYN082AAXX  22121 40831 32960 20000 10240 21017 30139 40147 57028 80001 91150 333 82070;EQDQ01  00002PRCP99
0217408310999992000030818004+30370+048250FM-12+0011OIAA V0203201N006012200019N0030001N1+01541-00391101851ADDAA199000091AY141061AY201061GA1001+999999999GF100991001001999999001001MA1999999101771MD1210311+9999MW1061REMSYN082AAXX  08181 40831 31930 03206 10154 21039 30177 40185 52031 70640 91750 333 55057;EQDQ01  00002PRCP99
0193408310999992000040521004+30370+048250FM-12+0011OIAA V0209999C000012200019N0080001N1+02521+01251101021ADDAY121031AY211031GA1031+012009059GF103991031041012501001001MA1999999100941MD1410001+9999MW1051REMSYN088AAXX  05211 40831 41658 30000 10252 20125 30094 40102 54000 70521 83400 92050 333 83640;
0200408310999992000051015004+30370+048250FM-12+0011OIAA V0203301N004012200019N0050001N1+03401+00191100991ADDAY101031AY201031GA1001+999999999GF100991001001999999001001KA1999M+03661MA1999999100911MD1610121+9999MW1061REMSYN082AAXX  10151 40831 41950 03304 10340 20019 30091 40099 56012 70600 91450 333 10366;
0189408310999992000051618004+30370+048250FM-12+0011OIAA V0209999C000012200019N0100001N1+03181+00931100471ADDAA199000091GA1001+999999999GF100991001001999999001001MA1999999100391MD1310101+9999REMSYN076AAXX  16181 40831 32960 00000 10318 20093 30039 40047 53010 91750 333 55120;EQDQ01  00002PRCP99
0172408310999992000051715004+30370+048250FM-12+0011OIAA V0209999C000012200019N0100001N1+04041+00781100171ADDGA1001+999999999GF100991001001999999001001KA1999M+04241MA1999999100091MD1610101+9999REMSYN076AAXX  17151 40831 42960 00000 10404 20078 30009 40017 56010 91450 333 10424;
0217408310999992000052000004+30370+048250FM-12+0011OIAA V0203601N003010006019N0008001N1+03021+01021100371ADDAA199000091AY141061AY241061GA1091+999999999GF109991091999999999999999MA1999999100291MD1810071+9999MW1061REMSYN082AAXX  20001 40831 31/08 93603 10302 20102 30029 40037 58007 70644 92350 333 89///;EQDQ01  00002PRCP99
0229408310999992000060506004+30370+048250FM-12+0011OIAA V0203201N008012200019N0015001N1+03581+00411100261ADDAA124000091AY101061AY201061GA1001+999999999GF100991001001999999001001MA1999999100181MD1010011+9999MW1061REMSYN094AAXX  05061 40831 31915 03208 10358 20041 30018 40026 50001 70600 90550 333 30028 52471 70000;EQDQ01  00002PRCP24
0229408310999992000060706004+30370+048250FM-12+0011OIAA V0203101N008012200019N0060001N1+03601+00871100041ADDAA124000091AY101061AY201061GA1001+999999999GF100991001001999999001001MA1999999099961MD1110101+9999MW1061REMSYN094AAXX  07061 40831 31956 03108 10360 20087 39996 40004 51010 70600 90550 333 30025 53101 70000;EQDQ01  00002PRCP24
0190408310999992000072615004+30360+048250FM-12+0011OIAA V0201201N006012200019N0100001N1+04241+01581099841ADDGA1011+012009069GF104991011041012501031001KA1120M+04661MA1999999099761MD1610031+9999REMSYN094AAXX  26151 40831 42660 41206 10424 20158 39976 49984 56003 81430 91450 333 10466 81640 84360;
0183408310999992000072803004+30360+048250FM-12+0011OIAA V0209999C000012200019N0100001N1+03121+02081099791ADDAA199000091GA1001+999999999GF100991001001999999001001MA1999999099711MD1610081+9999REMSYN070AAXX  28031 40831 32960 00000 10312 20208 39971 49979 56008 92350 333;EQDQ01  00002PRCP99
0184408310999992000073103004+30360+048250FM-12+0011OIAA V0209999C000012200019N0100001N1+02801+00981100181ADDGA1011+060009019GF101991001001999999001011KA1120N+02801MA1999999100101MD1310091+9999REMSYN088AAXX  31031 40831 42960 10000 10280 20098 30010 40018 53009 80001 90250 333 20280 81070;
0153408310999992000080221004+30360+048250FM-12+0011OIAA V0209999C000012200019N0100001N1+03221+01881099661ADDGA1001+999999999GF100991001001999999001001MA1999999099581MD1010021+9999REMSYN070AAXX  02211 40831 42960 00000 10322 20188 39958 49966 50002 92050 333;
0200408310999992000091115004+30360+048250FM-12+0011OIAA V0203101N004012200019N0080001N1+03701+01111100161ADDAY101031AY201031GA1001+999999999GF100991001001999999001001KA1999M+04241MA1999999100081MD1610031+9999MW1051REMSYN082AAXX  11151 40831 41958 03104 10370 20111 30008 40016 56003 70500 91450 333 10424;
0183408310999992000091800004+30360+048250FM-12+0011OIAA V0209999C000012200019N0100001N1+02581+01081100671ADDAA199000091GA1001+999999999GF100991001001999999001001MA1999999100591MD1610041+9999REMSYN070AAXX  18001 40831 32960 00000 10258 20108 30059 40067 56004 92350 333;EQDQ01  00002PRCP99
0199408310999992000121321004+30360+048250FM-12+0011OIAA V0209999C00001036001CN0015001N1+01261+01161101641ADDAY121031AY221031GA1021+010509069GF107991021041012501071001MA1999999101561MD1610051+9999MW1101REMSYN094AAXX  13211 40831 41615 70000 10126 20116 30156 40164 56005 71022 82470 92050 333 82635 87460;
0183408330999992000032100004+30770+049670FM-12+0029OIAG V0209999C000012200019N0100001N1+01521+00401101571ADDAA199000091GA1001+999999999GF100991001001999999001001MA1999999101241MD1110041+9999REMSYN070AAXX  21001 40833 32960 00000 10152 20040 30124 40157 51004 92350 333;EQDQ01  00002PRCP99
0257408330999992000051106004+30770+049670FM-12+0029OIAG V0203101N004012200019N0080001N1+03161+00441101201ADDAA124000091AY101061AY201061GA1021+060009089GF102991999001999999001061MA1999999100871MD1310051+9999MW1061REMSYN106AAXX  11061 40833 31958 23104 10316 20044 30087 40120 53005 70600 80006 90550 333 30019 51681 70000 82270;EQDQ01+000002SCOTLCQ02  00002PRCP24
0183408330999992000051812004+30770+049670FM-12+0029OIAG V0203401N007012200019N0100001N1+04201+00911100311ADDAA199000091GA1001+999999999GF100991001001999999001001MA1999999099981MD1710161+9999REMSYN070AAXX  18121 40833 32960 03407 10420 20091 39998 40031 57016 91150 333;EQDQ01  00002PRCP99
0189408330999992000082518004+30760+049670FM-12+0029OIAG V0209999C000012200019N0100001N1+03901+02491099891ADDAA199000091GA1001+999999999GF100991001001999999001001MA1999999099561MD1310171+9999REMSYN076AAXX  25181 40833 32960 00000 10390 20249 39956 49989 53017 91750 333 55109;EQDQ01  00002PRCP99
0183408330999992000121212004+30760+049670FM-12+0029OIAG V0209999C000012200019N0100001N1+01701+01151102001ADDAA199000091GA1001+999999999GF100991001001999999001001MA1999999101671MD1510051+9999REMSYN070AAXX  12121 40833 32960 00000 10170 20115 30167 40200 55005 91150 333;EQDQ01  00002PRCP99
0201408350999992000012506004+30350+050820FM-12+0738OIAH V0209999C000012200019N0100001N1+00721+00111102311ADDAA124000091GA1001+999999999GF100991001001999999001001MA1999999093981MD1210161+9999REMSYN088AAXX  25061 40835 32960 00000 10072 20011 39398 40231 52016 90550 333 30102 50230 70000;EQDQ01  00002PRCP24
0189408350999992000060318004+30350+050820FM-12+0738OIAH V0209999C000012200019N0100001N1+03261+00521099781ADDAA199000091GA1001+999999999GF100991001001999999001001MA1999999092341MD1210121+9999REMSYN076AAXX  03181 40835 32960 00000 10326 20052 39234 49978 52012 91750 333 55127;EQDQ01  00002PRCP99
0211408350999992000072000004+30340+050820FM-12+0738OIAH V0209999C000012200019N0030001N1+02741+00731099431ADDAA199000091AY101061AY201061GA1001+999999999GF100991001001999999001001MA1999999092031MD1510011+9999MW1051REMSYN076AAXX  20001 40835 31930 00000 10274 20073 39203 49943 55001 70500 92350 333;EQDQ01  00002PRCP99
0189408350999992000083118004+30340+050820FM-12+0738OIAH V0202701N002012200019N0100001N1+03141-00681099611ADDAA199000091GA1001+999999999GF100991001001999999001001MA1999999092101MD1310101+9999REMSYN076AAXX  31181 40835 32960 02702 10314 21068 39210 49961 53010 91750 333 55115;EQDQ01  00002PRCP99
0183408350999992000090500004+30340+050820FM-12+0738OIAH V0209999C000012200019N0100001N1+02281+00001099801ADDAA199000091GA1001+999999999GF100991001001999999001001MA1999999092301MD1710121+9999REMSYN070AAXX  05001 40835 32960 00000 10228 20000 39230 49980 57012 92350 333;EQDQ01  00002PRCP99
0189408350999992000092318004+30340+050820FM-12+0738OIAH V0202701N003012200019N0100001N1+02641+01441100611ADDAA199000091GA1001+999999999GF100991001001999999001001MA1999999092931MD1210131+9999REMSYN076AAXX  23181 40835 32960 02703 10264 20144 39293 40061 52013 91750 333 55099;EQDQ01  00002PRCP99
0183408350999992000101312004+30340+050820FM-12+0738OIAH V0202701N006012200019N0100001N1+03141-01541100621ADDAA199000091GA1001+999999999GF100991001001999999001001MA1999999092911MD1710171+9999REMSYN070AAXX  13121 40835 32960 02706 10314 21154 39291 40062 57017 91150 333;EQDQ01  00002PRCP99
0203408350999992000102712004+30340+050820FM-12+0738OIAH V0202601N006012200019N0100001N1+03041-00011101101ADDAA199000091GA1021+060009009GF102991001001999999001011MA1999999093311MD1710121+9999REMSYN090AAXX  27121 40835 32960 22606 10304 21001 39331 40110 57012 80001 91150 333 82070 MAX:31 ;EQDQ01  00002PRCP99
0225408350999992000110812004+30340+050820FM-12+0738OIAH V0200701N003010300019N0100001N1+02121+00711101321ADDAA199000091GA1021+012009069GA2081+030009049GF108991021041012501021999MA1999999093321MD1810071+9999REMSYN096AAXX  08121 40835 32660 80703 10212 20071 39332 40132 58007 8242/ 91150 333 82640 88460 MAX:23 ;EQDQ01  00002PRCP99
0189408360999992000030918004+30830+051680FM-12+188099999V0209999C000012200019N0100001N1+00541-00851101981ADDAA199000091GA1001+999999999GF100991001001999999001001MA1999999081911MD1210091+9999REMSYN076AAXX  09181 40836 32960 00000 10054 21085 38191 40198 52009 91750 333 55104;EQDQ01  00002PRCP99
0223408360999992000031406004+30830+051680FM-12+188099999V0209999C000012200019N0100001N1+00741-00981101721ADDAA124000091GA1011+027009079GF101991999001999999031001MA1999999081761MD1110091+9999REMSYN094AAXX  14061 40836 32960 10000 10074 21098 38176 40172 51009 80030 90550 333 30102 70000 81359;EQDQ01+000002SCOTLCQ02  00002PRCP24
0183408360999992000051212004+30830+051680FM-12+188099999V0202201N006012200019N0100001N1+02681-01211100881ADDAA199000091GA1001+999999999GF100991001001999999001001MA1999999081781MD1710131+9999REMSYN070AAXX  12121 40836 32960 02206 10268 21121 38178 40088 57013 91150 333;EQDQ01  00002PRCP99
0189408360999992000051612004+30830+051680FM-12+188099999V0202201N004012200019N0100001N1+02741-01761100501ADDAA199000091GA1001+999999999GF100991001001999999001001MA1999999081481MD1710171+9999REMSYN076AAXX  16121 40836 32960 02204 10274 21176 38148 40050 57017 91150 333 MAX29;EQDQ01  00002PRCP99
0191408360999992000062212004+30820+051670FM-12+188099999V0209999C000012200019N0100001N1+03681-00461099871ADDAA199000091GA1001+999999999GF100991001001999999001001MA1999999081481MD1710241+9999REMSYN078AAXX  22121 40836 32960 00000 10368 21046 38148 49987 57024 91150 333 MAX:37 ;EQDQ01  00002PRCP99
0184408360999992000072721004+30820+051670FM-12+188099999V0209999C000012200019N0100001N1+02401+00041100101ADDGA1021+027009079GF102991999001999999031001MA1999999081641MD1010011+9999REMSYN082AAXX  27211 40836 42960 20000 10240 20004 38164 40010 50001 80030 92050 333 82359;EQDQ01+000002SCOTLC
0213408360999992000081306004+30820+051670FM-12+188099999V0209999C000012200019N0100001N1+02581-00191100581ADDAA124000091GA1011+012009029GF101991011011012501001001MA1999999081951MD1210051+9999REMSYN100AAXX  13061 40836 32660 10000 10258 21019 38195 40058 52005 81100 90550 333 30014 50881 70000 81840;EQDQ01  00002PRCP24
0183408360999992000091612004+30820+051670FM-12+188099999V0201901N006012200019N0100001N1+02961-02491100581ADDAA199000091GA1001+999999999GF100991001001999999001001MA1999999081741MD1810061+9999REMSYN070AAXX  16121 40836 32960 01906 10296 21249 38174 40058 58006 91150 333;EQDQ01  00002PRCP99
0183408360999992000092300004+30820+051670FM-12+188099999V0209999C000012200019N0100001N1+01281+00121101161ADDAA199000091GA1001+999999999GF100991001001999999001001MA1999999082071MD1610031+9999REMSYN070AAXX  23001 40836 32960 00000 10128 20012 38207 40116 56003 92350 333;EQDQ01  00002PRCP99
0184408360999992000101503004+30820+051670FM-12+188099999V0209999C000012200019N0100001N1+01181-00141101331ADDGA1021+060009019GF102991001001999999001021KA1120N+01121MA1999999082081MD1310041+9999REMSYN088AAXX  15031 40836 42960 20000 10118 21014 38208 40133 53004 80002 90250 333 20112 82070;
0172408360999992000101803004+30820+051670FM-12+188099999V0209999C000012200019N0100001N1+01001+00311101601ADDGA1001+999999999GF100991001001999999001001KA1999N+01001MA1999999082161MD1310021+9999REMSYN076AAXX  18031 40836 42960 00000 10100 20031 38216 40160 53002 90250 333 20100;
0195408360999992000120112004+30820+051670FM-12+188099999V0202201N004010120019N0100001N1+01541-00671101981ADDAA199000091GA1051+012009059GF105991051041012501001001MA1999999082211MD1710121+9999REMSYN082AAXX  01121 40836 32660 52204 10154 21067 38221 40198 57012 85400 91150 333 85640;EQDQ01  00002PRCP99
0188408360999992000120606004+30820+051670FM-12+188099999V0209999C000012200019N0100001N1+00861+00521102151ADDAA124004191GA1021+012009029GF102991021021012501001001MA1999999082201MD1310021+9999REMSYN094AAXX  06061 40836 32660 20000 10086 20052 38220 40215 53002 82200 90550 333 31002 70040 82840;
0104408410999992000010305004+30250+056970FM-15+1754OIKK V0209999C00001220001CN0099001N1+00101-01201999999ADDMA1102201999999MW1001REMMET052OIKK 0500Z 00000MPS CAVOK 01/M12 Q1022 A30.21 827.7;EQDQ01+000000PRSWM2
0167408410999992000010719004+30250+056970FM-15+1754OIKK V0209999C000010240019N0112651N1+01001+00301999999ADDGA1021+012009999GA2071+024009999GF107991999999999999999999MA1101801999999MW1001REMMET057OIKK 1900Z 00000MPS 9999 SCT040 BKN080 10/03 Q1018 A3008;EQDQ01+000000PRSWM2
0270408410999992000010806004+30250+056970SY-MT+1754OIKK V0200301N00201220001CN0100001N1+00461-00121102151ADDAA106000091GF103991001001999999001021MA1102301082831MD1210251+9999MW1001REMSYN094AAXX  08061 40841 32960 30302 10046 21012 38283 40215 52025 80002 90550 333 30102 70000 83070;MET051OIKK 0600Z 03002MPS CAVOK 05/M01 Q1023 A3023 828.3;EQDQ01+000000PRSWM2Q02  00002PRCP06
0347408410999992000010812004+30250+056970SY-MT+1754OIKK V0203001N002010300019N0150001N1+00941-00261101691ADDAA106000091GA1021+012009099GA2021+013509999GA3071+030009999GF107991031031012501071011MA1101901082511MD1610111+9999MW1001REMSYN094AAXX  08121 40841 32665 73002 10094 21026 38251 40169 56011 83371 91150 333 81940 82645 87360;MET080OIKK 1200Z 30002MPS 9999 FEW040CB FEW045 BKN100 09/M03 Q1019 A30.12 825.1 NOSIG;EQDQ01+000000PRSWM2Q02  00002PRCP06
0161408410999992000010913004+30250+056970FM-15+1754OIKK V0209999C000010300019N0112651N1+00801+00601999999ADDGA1021+013509999GA2081+030009999GF108991999999999999999999MA1101691999999MW1001REMMET051OIKK 1300Z 00000MPS 9999 SCT045 OVC100 08/06 Q1017;EQDQ01+000000PRSWM2
0192408410999992000011017004+30250+056970FM-15+1754OIKK V0203601N003010240019N0112651N1+00101+00001999999ADDGA1021+009009099GA2021+010509999GA3081+024009999GF108991999999999999999999MA1101591999999MW1001REMMET066OIKK 1700Z 36003MPS 9999 FEW030CB SCT035 OVC080 01/00 Q1016 A3002;EQDQ01+000000PRSWM2
0256408410999992000011406004+30250+056970SY-MT+175499999V0209999C000012200019N0100001N1+00101-01261102421ADDAA124000091GF100991001001999999001001MA1102101082661MD1110191+9999MW1001REMSYN086    AAXX  14061 40841 32960 00000 10010 21126 38266 40242 51019 90550 333 30110 70000;MET045OIKK 0600Z 00000MPS CAVOK 01/M13 Q1021 A3017;EQDQ01+000000PRSWM2Q02  00002PRCP24
0211408410999992000011613004+30250+056970FM-15+1754OIKK V0202221N002010240019N0080001N1+00501+00501999999ADDGA1021+004509999GA2021+009009099GA3081+024009999GF108991999999999999999999MA1101591999999MW1631REMMET069OIKK 1300Z 22202MPS 8000 RA FEW015 SCT030CB OVC080 05/05 Q1016 A3000;EQDQ01+000003PRSWM1Q02    003PRSWM1
0219408410999992000011704004+30250+056970FM-15+1754OIKK V0203301N002010180019N0080001N1+00401+00301999999ADDGA1021+007509099GA2021+009009999GA3081+018009999GF108991999999999999999999MA1101391999999MW1611REMMET077OIKK 0400Z 33002MPS 8000 -RA FEW025CB SCT030 OVC060 04/03 Q1014 A32996 020.5;EQDQ01+000003PRSWM1Q02    003PRSWM1
0198408410999992000011709004+30250+056970FM-15+1754OIKK V02099999999990240019N0080001N1+00601+00501999999ADDGA1021+009009099GA2021+010509999GA3081+024009999GF108991999999999999999999MW1001REMMET087OIKK 0900Z 32002 8000 N,NW600 -RASH SCT030CB SCT035 OVC080 06/05 1012 2989 818.6 NOSIG;EQDQ01+000000PRSWM2
0105408410999992000021604004+30250+056970FM-15+1754OIKK V0209999C00001220001CN0099001N1-00201-00801999999ADDMA1102201999999MW1001REMMET053OIKK 0400Z 00000MPS CAVOK M02/M08 Q1022 A30.19 827.2;EQDQ01+000000PRSWM2
0226408410999992000022209004+30250+056970SY-MT+1754OIKK V0200301N00301220001CN0100001N1+01401-01001101901ADDGF100991001001999999001001MA1102001082521MD1710161+9999MW1001REMSYN070AAXX  22091 40841 42960 0//03 10140 21100 38252 40190 57016 90850 333;MET058OIKK 0900Z 03003MPS CAVOK 14/M10 Q1020 A30.12 825.2 NOSIG;EQDQ01+000000PRSWM2
0103408410999992000022309004+30250+056970FM-15+1754OIKK V0202701N00401220001CN0099001N1+01501-00601999999ADDMA1102101999999MW1001REMMET051OIKK 0900Z 27004MPS CAVOK 15/M06 Q1021 A3016 826.2;EQDQ01+000000PRSWM2
0195408410999992000022412004+30250+056970FM-12+1754OIKK V0202701N003012200019N0100001N1+01821-00441101811ADDAA199000091GA1011+060009019GF101991001001999999001011MA1999999082721MD1610161+9999REMSYN082AAXX  24121 40841 32960 12703 10182 21044 38272 40181 56016 80001 91150 333 81070;EQDQ01  00002PRCP99
0098408410999992000031115004+30250+056970FM-15+1754OIKK V0203601N00301220001CN0099001N1+01301-01701999999ADDMA1101391999999MW1001REMMET046OIKK 1500Z 36003MPS CAVOK 13/M17 Q1014 A29.96;EQDQ01+000000PRSWM2
0183408410999992000031400004+30250+056970FM-12+1754OIKK V0203101N005012200019N0100001N1+01101-01461100351ADDAA199000091GA1001+999999999GF100991001001999999001001MA1999999081931MD1310031+9999REMSYN070AAXX  14001 40841 32960 03105 10110 21146 38193 40035 53003 92350 333;EQDQ01  00002PRCP99
0096408410999992000032206004+30250+056970FM-15+1754OIKK V0209999C00001220001CN0099001N1+99999+99999999999ADDMW1001REMMET059OIKK 0600Z 00000MPS CAVOK FEW200 15/M08 Q1023 A30.23 828.4;EQDQ01+000000PRSWM2
0137408410999992000033018004+30250+056970FM-15+1754OIKK V02099999999992200019N0112651N1+01001-00601999999ADDGA1021+012009999GF102991999999999999999999MW1001REMMET058OIKK 1800Z 13004 9999 FEW040 10/M06 1019 3011 824.9 NOSIG;EQDQ01+000000PRSWM2
0201408410999992000040406004+30250+056970FM-12+1754OIKK V0202401N005012200019N0150001N1+02101-00421101101ADDAA124000091GA1001+999999999GF100991001001999999001001MA1999999082681MD1110071+9999REMSYN088AAXX  04061 40841 32965 02405 10210 21042 38268 40110 51007 90550 333 30003 51061 70000;EQDQ01  00002PRCP24
0299408410999992000040612004+30250+056970SY-MT+1754OIKK V0203301N00501012001CN0100001N1+02301-00501100391ADDAA199000091GA1021+012009999GA2021+013509999GF106991061041012501001011MA1999999082041MD1710171+9999MW1001REMSYN088AAXX  06121 40841 32660 63305 10230 21050 38204 40039 57017 86401 91150 333 82840 84645;MET054OIKK 1200Z 33005 9999 FEW040 SCT045 23/M05 1014 2995 ;EQDQ01+000000PRSWM2Q02  00002PRCP99
0145408410999992000041520004+30250+056970FM-15+1754OIKK V0200501N003012200019N0112651N1+02001-00501999999ADDGA1021+012009999GF104991999999999999999999MA1101901999999MW1001REMMET051OIKK 2000Z 05003MPS 9999 SCT040 20/M05 Q1019 A3009;EQDQ01+000000PRSWM2
0175408410999992000041703004+30250+056970FM-12+1754OIKK V0201401N003019999999N9999999N1+01701-00761999999ADDGF108991999999999999999999KA1999N+99999MA1999999082621MD1310181+9999REMSYN076AAXX  17031 40841 ///// 81403 10170 21076 38262 4//// 53018 90250 333 20194;EQDQ01 +01942ATMN  
0152408410999992000042008004+30250+056970FM-15+1754OIKK V0201801N003012200019N0112651N1+02701+00101999999ADDGA1021+012009999GF102991999999999999999999MA1101901999999MW1001REMMET058OIKK 200800Z 18003MPS 9999 FEW040 27/01 Q1019 A3009 824.4;EQDQ01+000000PRSWM2
0195408410999992000042500004+30250+056970FM-12+1754OIKK V0202701N005012200019N0100001N1+01801-00301100631ADDAA199000091GA1041+012009059GF104991041041012501001001MA1999999082521MD1710181+9999REMSYN082AAXX  25001 40841 32660 42705 10180 21030 38252 40063 57018 84400 92350 333 84640;EQDQ01  00002PRCP99
0111408410999992000043001004+30250+056970FM-15+1754OIKK V0209999C00001220001CN0099001N1+01201-00501999999ADDMA1101801999999MW1001REMMET059OIKK 300100Z 00000MPS CAVOK 12/M05 Q1018 A3009 824.3 NOSIG;EQDQ01+000000PRSWM2
0105408410999992000050101004+30250+056970FM-15+1754OIKK V0209999C00001220001CN0099001N1+01201-00701999999ADDMA1101901999999MW1001REMMET053OIKK 010100Z 00000MPS CAVOK 12/M07 Q1019 A3010 824.6;EQDQ01+000000PRSWM2
0157408410999992000050416004+30250+056970FM-15+1754OIKK V0202101N004012200019N0112651N1+02401+99999999999ADDGA1021+012009999GF102991999999999999999999MA1102001999999MW1001REMMET047OIKK 041600Z 21004MPS 9999 FEW040 24/M09 Q1020;EQDQ01-000903ATOD  Q02+000000PRSWM2
0173408410999992000051507004+30250+056970FM-15+1754OIKK V02099999999992200019N0112651N1+03101+00101999999ADDGA1021+012009999GA2021+060009999GF104991999999999999999999MA1101801999999MW1001REMMET063OIKK 150700Z 31004 9999 FEW040 SCT200 31/01 Q1018 A30-07,823.7;EQDQ01+000000PRSWM2
0189408410999992000052318004+30250+056970FM-12+1754OIKK V0200201N004012200019N0100001N1+02501-00161099731ADDAA199000091GA1001+999999999GF100991001001999999001001MA1999999082001MD1510001+9999REMSYN076AAXX  23181 40841 32960 00204 10250 21016 38200 49973 55000 91750 333 55120;EQDQ01  00002PRCP99
0111408410999992000052407004+30250+056970FM-15+1754OIKK V0200501N00301220001CN0099001N1+03001-00301999999ADDMA1101491999999MW1001REMMET059OIKK 240700Z 05003MPS CAVOK 30/M03 Q1015 A2999 821.4 NOSIG;EQDQ01+000000PRSWM2
0111408410999992000060119004+30250+056970FM-15+1754OIKK V0200101N00301220001CN0099001N1+02601-00301999999ADDMA1101291999999MW1001REMMET059OIKK 011900Z 01003MPS CAVOK 26/M03 Q1013 A2993 819.8 NOSIG;EQDQ01+000000PRSWM2
0110408410999992000060908004+30250+056970FM-15+1754OIKK V0201201N00201220001CN0099001N1+03501-00401999999ADDMA1101191999999MW1001REMMET058OIKK 090800Z 12002MPS CAVOK 35/M04 Q1012 A991 819.2 NOSIG;EQDQ01+000000PRSWM2
0284408410999992000062909004+30250+056960SY-MT+1754OIKK V0200701N00601036001CN0100001N1+03701+00721099631ADDGA1021+012009999GA2021+030009999GF105991021021012501031001MA1101491082161MD1810101+9999MW1001REMSYN088AAXX  29091 40841 42660 50706 10370 20072 38216 49963 58010 82230 90850 333 82640 83360;MET066OIKK 290900Z 07006MPS 9999 FEW040 SCT100 37/07 Q1015 A29.99 821.6;EQDQ01+000000PRSWM2
0104408410999992000070104004+30250+056960FM-15+1754OIKK V0203301N00601220001CN0099001N1+02601+00001999999ADDMA1101591999999MW1001REMMET052OIKK 010400Z 33006MPS CAVOK 26/00 Q1016 A3001 822.0;EQDQ01+000000PRSWM2
0171408410999992000070721004+30250+056960FM-12+1754OIKK V0209999C00001012001CN0100001N1+02781+00301099391ADDGA1021+012009099GF105991051031012501001001MA1999999081951MD1110011+9999REMSYN088AAXX  07211 40841 42660 50000 10278 20030 38195 49939 51001 85300 92050 333 82940 83645;
0105408410999992000070807004+30250+056960FM-15+1754OIKK V0203201N00301220001CN0099001N1+03501+00901999999ADDMA1101291999999MW1001REMMET053OIKK 080700Z 32003MPS CAVOK 35/09 Q1013 A29.92 819.2;EQDQ01+000000PRSWM2
0104408410999992000071004004+30250+056960FM-15+1754OIKK V0209999C00001220001CN0099001N1+02801+00301999999ADDMA1101191999999MW1001REMMET052OIKK 100400Z 00000MPS CAVOK 28/03 Q1012 A2991 819.2;EQDQ01+000000PRSWM2
0098408410999992000071419004+30250+056960FM-15+1754OIKK V0200301N00201220001CN0099001N1+02701+00101999999ADDMA1101291999999MW1001REMMET046OIKK 141900Z 03002MPS CAVOK 27/01 Q1013 A2993;EQDQ01+000000PRSWM2
0080408410999992000072911004+30250+056960FM-15+1754OIKK V0209999C00001220001CN0099001N1+03101+00301999999ADDMW1001REMMET043OIKK 291100 00000MPS CAVOK 31/03 1017 3005;EQDQ01+000000PRSWM2
0093408410999992000081211004+30250+056960FM-15+1754OIKK V0203301N00501220001CN0099001N1+03101-00401999999ADDMA1101491999999MW1001REMMET041OIKK 121100Z 33005MPS CAVOK 31/M04 Q1015;EQDQ01+000000PRSWM2
0105408410999992000081307004+30250+056960FM-15+1754OIKK V0209999C00001220001CN0099001N1+02801-00201999999ADDMA1102001999999MW1001REMMET053OIKK 130700Z 00000MPS CAVOK 28/M02 Q1020 A3014 NOSIG;EQDQ01+000000PRSWM2
0183408410999992000081700004+30250+056960FM-12+1754OIKK V0209999C000012200019N0100001N1+01301-00781100261ADDAA199000091GA1001+999999999GF100991001001999999001001MA1999999082231MD1310041+9999REMSYN070AAXX  17001 40841 32960 00000 10130 21078 38223 40026 53004 92350 333;EQDQ01  00002PRCP99
0255408410999992000082200004+30250+056960SY-MT+1754OIKK V0209999C000012200019N0100001N1+01561-00681100221ADDAA199000091GF100991001001999999001001MA1101691082271MD1610061+9999MW1001REMSYN070AAXX  22001 40841 32960 00000 10156 21068 38227 40022 56006 92350 333;MET060OIKK 220000Z 00000MPS CAVOK 16/M07 Q1017 A30.03 822.7 NOSIG;EQDQ01+000000PRSWM2Q02  00002PRCP99
0147408410999992000090311004+30250+056960FM-15+1754OIKK V0200601N004012200019N0112651N1+03301+00501999999ADDGA1021+012009999GF104991999999999999999999MA1101021999999MW1001REMMET053OIKK 031100Z 06004MPS 9999 SCT040 33/05 Q1010 A29.85;EQDQ01+000000PRSWM2
0073408410999992000091113004+30250+056960FM-15+1754OIKK V0209999999999220001CN0099001N1+03201-00401999999ADDMW1001REMMET036OIKK 111300 07007 CAVOK 32/M04 1014;EQDQ01+000000PRSWM2
0111408410999992000092405004+30250+056960FM-15+1754OIKK V0209999C00001220001CN0099001N1+02101-00101999999ADDMA1102301999999MW1001REMMET059OIKK 240500Z 00000MPS CAVOK 21/M01 Q1023 A3022 828.0 NOSIG;EQDQ01+000000PRSWM2
0106408410999992000092504004+30250+056960FM-15+1754OIKK V0209999C00001220001CN0099001N1+01801-00201999999ADDMA1102101999999MW1001REMMET054OIKK 250400Z 00000MPS CAVOK 18/M02 Q1021 A30.17 826.6;EQDQ01+000000PRSWM2
0112408410999992000092819004+30250+056960FM-15+1754OIKK V0209999C00001220001CN0099001N1+02101-00101999999ADDMA1102201999999MW1001REMMET060OIKK 281900Z 00000MPS CAVOK 21/M01 Q1022 A30.19 827.0 NOSIG;EQDQ01+000000PRSWM2
0192408410999992000100104004+30250+056960FM-15+1754OIKK V0202301N004012200019N0010001N1+01801+00401999999ADDGA1021+012009999GA2021+030009999GF102991999999999999999999MA1102101999999MW1051REMMET066OIKK 010400Z 23004MPS 1000MT HZ SCT040 FEW100 18/04 Q1021 A30.17 ;EQDQ01+000003PRSWM1Q02    003PRSWM1
0276408410999992000101515004+30250+056960SY-MT+1754OIKK V0203601N00201220001CN0100001N1+02101-00281101381ADDGF104991999001999999001051KA1120M+02741MA1999999082661MD1310031+9999MW1001REMSYN088AAXX  15151 40841 42960 43602 10210 21028 38266 40138 53003 80005 91450 333 10274 84270;MET061OIKK 151500Z 36002MPS CAVOK BKN200 21/M03 Q1021 A30.17 NOSIG;EQDQ01+000000PRSWM2Q02+000002SCOTLC
0237408410999992000101703004+30250+056960SY-MT+1754OIKK V0209999C000012200019N0100001N1+00641-00121101901ADDGF100991001001999999001001KA1999N+00641MA1102611083041MD1310061+9999MW1001REMSYN076AAXX  17031 40841 42960 00000 10064 21012 38304 40190 53006 90250 333 20064;MET050OIKK 170300Z 00000 CAVOK 07/M01 Q1026 A3031 830.4;EQDQ01+000000PRSWM2
0078408410999992000102604004+30250+056960FM-15+1754OIKK V0209999999999220001CN0099001N1+01101-00601999999ADDMW1001REMMET041OIKK 260400 12002 CAVOK 11/M06 1027 3035;EQDQ01+000000PRSWM2
0327408410999992000110603004+30250+056960SY-MT+1754OIKK V0201601N00301024001CN0100001N1+01101+00101101001ADDGA1021+010509099GA2021+012009999GA3021+024009999GF106991051031012501071001KA1120N+01101MA1101691082331MD1610061+9999MW1001REMSYN100AAXX  06031 40841 42660 61603 10110 20010 38233 40100 56006 85370 90250 333 20110 82935 83640 84358;MET068OIKK 060300Z 16003MPS 9999 FEW035CB SCT040 SCT080 11/01 Q1017 A3005;EQDQ01+000000PRSWM2
0202408410999992000111215004+30250+056960FM-12+1754OIKK V0209999C000012200019N0100001N1+00901-00601102401ADDAA199000091GA1001+999999999GF100991001001999999001001KA1999M+01401MA1999999082971MD1310071+9999REMSYN076AAXX  12151 40841 32960 00000 10090 21060 38297 40240 53007 91450 333 10140;EQDQ01  00002PRCP99
0343408410999992000111712004+30250+056960SY-MT+1754OIKK V0202301N00401024001CN0100001N1+00801-00261102791ADDAA199000091GA1021+010509099GA2021+012009999GA3081+024009999GF108991041031012501021999MA1102911083361MD1610091+9999MW1001REMSYN094AAXX  17121 40841 32660 82304 10080 21026 38336 40279 56009 8432/ 91150 333 82935 82640 8858/;MET076OIKK 171200Z 23004MPS 9999 FEW035CB FEW040 OVC080 08/M03 Q1029 A30.41 833.6;EQDQ01+000000PRSWM2Q02  00002PRCP99
0208408410999992000111910504+30250+056960FM-15+1754OIKK V0202301N005010600019N0112651N1+01601+00401999999ADDGA1021+009009999GA2021+010509029GA3071+060009999GF107991999999999999999999MA1102201999999MW1001REMMET082OIKK 191050Z 23005MPS 9999 FEW035TCU SCT030 BKN200 16/04 Q1022 A3019 827.2 NSOSIG;EQDQ01+000000PRSWM2
0105408410999992000112314004+30250+056960FM-15+1754OIKK V0209999C00001220001CN0099001N1+01501-01101999999ADDMA1101901999999MW1001REMMET053OIKK 231400Z 00000MPS CAVOK 15/M11 Q1019 A3012 825.1;EQDQ01+000000PRSWM2
0153408410999992000112721004+30250+056960FM-12+1754OIKK V0209999C000012200019N0100001N1+00161-00781102091ADDGA1001+999999999GF100991001001999999001001MA1999999082861MD1010001+9999REMSYN070AAXX  27211 40841 42960 00000 10016 21078 38286 40209 50000 92050 333;
0100408410999992000120108004+30250+056960FM-15+1754OIKK V0209999C00001220001CN0099001N1+01901-00701999999ADDMA1102611999999MW1001REMMET048OIKK 010800Z 00000MPS CAVOK 19/M07 Q1026 A30.32;EQDQ01+000000PRSWM2
0176408410999992000120905004+30250+056960FM-15+1754OIKK V0209999C000010360019N0112651N1+00801-00401999999ADDGA1021+012009999GA2071+036009999GF107991999999999999999999MA1102201999999MW1001REMMET066OIKK 090500Z 00000MPS 9999 FEW040 BKN120 08/M04 Q1022 A3020 827.6;EQDQ01+000000PRSWM2
0091408410999992000121408004+30250+056960FM-15+1754OIKK V0209999C00001220001CN0099001N1+99999+99999999999ADDMW1001REMMET054OIKK 140800Z 00000MPS CAVOK BKN200 12/M04 Q1017 A3005;EQDQ01+000000PRSWM2
0260408410999992000122806004+30250+056960SY-MT+1754OIKK V0209999C000012200019N0100001N1+00301-00101102721ADDAA124000091GF100991001001999999001001MA1102511083001MD1110081+9999MW1001REMSYN082AAXX  28061 40841 32960 00000 10030 21010 38300 40272 51008 90550 333 30108 70000;MET053OIKK 280600Z 00000MPS CAVOK 03/M01 Q1025 830.0 A3029;EQDQ01+000000PRSWM2Q02  00002PRCP24
0107408410999992000123104004+30250+056960FM-15+1754OIKK V0209999C00001220001CN0099001N1-00601-01001999999ADDMA1102511999999MW1001REMMET055OIKK 310400Z 00000MPS CAVOK M06/M10 Q1025 A30.28 829.9;EQDQ01+000000PRSWM2
0097408480999992000010203004+29530+052580FM-15+1491OISS V0209999C00001220001CN0099001N1+00101-00701999999ADDMA1102101999999MW1001REMMET045OISS 0300Z 00000MPS CAVOK 01/M07 Q1021 A3015;EQDQ01+000000PRSWM2
0144408480999992000010208504+29530+052580FM-15+1491OISS V0201901N002012200019N9999999N1+01501-00901999999ADDGF100991999999999999999999MA1102101999999MW1001REMMET050OISS 020850Z 19002MPS 6000 SKC 15/M09 Q1021 A3015;EQDQ01+060002VODIS Q02+000000PRSWM2
0234408480999992000010822004+29530+052580FM-15+1491OISS V0209999C00001012001CN0020001N1+00701+00601999999ADDGA1021+004509999GA2021+010509099GA3021+012009999GA4081+030009999GF108991999999999999999999MA1102001999999MW1631REMMET076OISS 2200Z 00000MPS 2000 RA FEW035CB FEW015 SCT040 OVC100 07/06 Q1020 A3012;EQDQ01+000003PRSWM1Q02    003PRSWM1
0315408480999992000011006004+29530+052580SY-MT+1491OISS V0202801N008012200019N0100001N1+01001+00101101331ADDAA106000191GA1021+009009099GA2021+010509029GF104991041091008001001001MA1101591084961MD1210131+9999MW1001REMSYN112AAXX  10061 40848 12560 42808 10100 20010 38496 40133 52013 69911 84900 90550 333 31005 50111 70074 81930 83835;MET062OISS 0600Z 28008MPS 9999 FEW030CB SCT035TCU 10/01 Q1016 A3001;EQDQ01+000000PRSWM2
0240408480999992000011312004+29530+052580SY-MT+1491OISS V0203001N006012200019N0100001N1+01201-00871101701ADDAA106000091GF100991001001999999001001MA1101691085071MD1610191+9999MW1001REMSYN070AAXX  13121 40848 32960 03006 10120 21087 38507 40170 56019 91150 333;MET045OISS 1200Z 30006MPS CAVOK 12/M09 Q1017 A3005;EQDQ01+000000PRSWM2Q02  00002PRCP06
0192408480999992000011713004+29530+052580FM-15+1491OISS V0201201N002012200019N0060001N1+00401+00101999999ADDGA1021+006009999GA2021+009009099GA3021+030009999GF104991999999999999999999MA1101391999999MW1001REMMET066OISS 1300Z 12002MPS 6000 FEW020 FEW030CB SCT100 04/01 Q1014 A2995;EQDQ01+000000PRSWM2
0163408480999992000011810004+29530+052580FM-15+1491OISS V0201901N002012200019N0040001N1+00701+00101999999ADDGA1021+060009999GF102991999999999999999999MA1101901999999MW1051REMMET053OISS 1000Z 19002MPS 4000 HZ FEW200 07/01 Q1019 A3009;EQDQ01+000003PRSWM1Q02    003PRSWM1
0106408480999992000012309504+29530+052580FM-15+1491OISS V0209999C00001220001CN0099001N1+01201-00601999999ADDMA1101801999999MW1001REMMET054OISS 230950Z 00000MPS CAVOK 12/M06 Q1018 A3008 FEW100;EQDQ01+000000PRSWM2
0097408480999992000012403004+29530+052580FM-15+1491OISS V0209999C00001220001CN0099001N1+00001-00501999999ADDMA1102101999999MW1001REMMET045OISS 0300Z 00000MPS CAVOK 00/M05 Q1021 A3016;EQDQ01+000000PRSWM2
0293408480999992000012606004+29530+052580SY-MT+1491OISS V0201001N002012200019N0070001N1+00581-00281102521ADDAA124000091AY101061AY201061GF100991001001999999001001MA1102511085721MD1210101+9999MW1051REMSYN088AAXX  26061 40848 31657 01002 10058 21028 38572 40252 52010 70500 90550 333 31106 70000;MET048OISS 0600Z 10002MPS 7000 SKC 06/M03 Q1025 A3027;EQDQ01+000000PRSWM2Q02  00002PRCP24Q03    003PRSWM1
0211408480999992000012909004+29530+052580FM-15+1491OISS V0200701N003010240019N0030001N1+01001+00801999999ADDGA1021+009009099GA2021+010509999GA3081+024009999GF108991999999999999999999MA1101591999999MW1631REMMET069OISS 0900Z 07003MPS 3000 RA FEW030CB SCT035 OVC080 10/08 Q1016 A3001;EQDQ01+000003PRSWM1Q02    003PRSWM1
0097408480999992000020320004+29530+052580FM-15+1491OISS V0209999C00001220001CN0099001N1+00201-00501999999ADDMA1102301999999MW1001REMMET045OISS 2000Z 00000MPS CAVOK 02/M05 Q1023 A3023;EQDQ01+000000PRSWM2
0240408480999992000021100004+29530+052580SY-MT+1491OISS V0209999C000012200019N0100001N1+00181-00501102331ADDAA199000091GF100991001001999999001001MA1102401085631MD1410001+9999MW1001REMSYN070AAXX  11001 40848 32960 00000 10018 21050 38563 40233 54000 92350 333;MET045OISS 0000Z 00000MPS CAVOK 02/M05 Q1024 A3024;EQDQ01+000000PRSWM2Q02  00002PRCP99
0104408480999992000021216004+29530+052580FM-15+1491OISS V0209999C00001220001CN0099001N1+01101-00501999999ADDMA1102001999999MW1001REMMET052OISS 1600Z 00000MPS CAVOK 11/M05 Q1020 A3012 FEW190;EQDQ01+000000PRSWM2
0317408480999992000021309004+29530+052580SY-MT+1491OISS V0209999C000010540019N0050001N1+01321-00441101841ADDAY121031AY221031GA1021+030009999GA2081+054009999GF108991999001999999031071MA1102101085391MD1810111+9999MW1051REMSYN094AAXX  13091 40848 41950 80000 10132 21044 38539 40184 58011 70522 80037 90850 333 83360 88268;MET061OISS 0900Z 00000MPS 5000 HZ SCT100 OVC180 13/M04 Q1021 A3015;EQDQ01+000002SCOTLCQ02    003PRSWM1
0183408480999992000021600004+29530+052580FM-12+1491OISS V0202901N002012200019N0100001N1+00361-00131101821ADDAA199000091GA1001+999999999GF100991001001999999001001MA1999999085361MD1610021+9999REMSYN070AAXX  16001 40848 32960 02902 10036 21013 38536 40182 56002 92350 333;EQDQ01  00002PRCP99
0097408480999992000021922004+29530+052580FM-15+1491OISS V0202901N00201220001CN0099001N1+00501-00501999999ADDMA1101801999999MW1001REMMET045OISS 2200Z 29002MPS CAVOK 05/M05 Q1018 A3007;EQDQ01+000000PRSWM2
0097408480999992000022023004+29530+052580FM-15+1491OISS V0203301N00301220001CN0099001N1+00801-01001999999ADDMA1101691999999MW1001REMMET045OISS 2300Z 33003MPS CAVOK 08/M10 Q1017 A3005;EQDQ01+000000PRSWM2
0113408480999992000022213004+29530+052580FM-15+1491OISS V0200901N00201220001CN0099001N1+01701+99999999999ADDMA1101591999999MW1001REMMET045OISS 1300Z 09002MPS CAVOK 17/M02 Q1016 A3001;EQDQ01-000203ATOD  Q02+000000PRSWM2
0145408480999992000022820004+29530+052580FM-15+1491OISS V0203001N004012200019N0112651N1+00901-00401999999ADDGA1021+012009999GF102991999999999999999999MA1102101999999MW1001REMMET051OISS 2000Z 30004MPS 9999 FEW040 09/M04 Q1021 A3016;EQDQ01+000000PRSWM2
0097408480999992000022902004+29530+052580FM-15+1491OISS V0209999C00001220001CN0099001N1+00601-00301999999ADDMA1102001999999MW1001REMMET045OISS 0200Z 00000MPS CAVOK 06/M03 Q1020 A3014;EQDQ01+000000PRSWM2
0097408480999992000030113004+29530+052580FM-15+1491OISS V0202801N00601220001CN0099001N1+01901-01301999999ADDMA1101691999999MW1001REMMET045OISS 1300Z 28006MPS CAVOK 19/M13 Q1017 A3003;EQDQ01+000000PRSWM2
0097408480999992000030116004+29530+052580FM-15+1491OISS V0202701N00501220001CN0099001N1+01501-00701999999ADDMA1101691999999MW1001REMMET045OISS 1600Z 27005MPS CAVOK 15/M07 Q1017 A3004;EQDQ01+000000PRSWM2
0240408480999992000030300004+29530+052580SY-MT+1491OISS V0209999C00001220001CN0100001N1+00501-00961101321ADDAA199000091GF100991001001999999001001MA1101591084981MD1410001+9999MW1001REMSYN070AAXX  03001 40848 32960 00000 10050 21096 38498 40132 54000 92350 333;MET045OISS 0000Z 00000MPS CAVOK 05/M10 Q1016 A3002;EQDQ01+000000PRSWM2Q02  00002PRCP99
0097408480999992000031408004+29530+052580FM-15+1491OISS V0209999C00001220001CN0099001N1+01601-00801999999ADDMA1101691999999MW1001REMMET045OISS 0800Z 00000MPS CAVOK 16/M08 Q1017 A3003;EQDQ01+000000PRSWM2
0099408480999992000031420504+29530+052580FM-15+1491OISS V0202901N00401220001CN0099001N1+01101-00801999999ADDMA1101691999999MW1001REMMET047OISS 142050Z 29004MPS CAVOK 11/M08 Q1017 A3003;EQDQ01+000000PRSWM2
0097408480999992000031610004+29530+052580FM-15+1491OISS V0209999C00001220001CN0099001N1+01801-00901999999ADDMA1101801999999MW1001REMMET045OISS 1000Z 00000MPS CAVOK 18/M09 Q1018 A3006;EQDQ01+000000PRSWM2
0097408480999992000032714004+29530+052580FM-15+1491OISS V0202701N00601220001CN0099001N1+02001-01401999999ADDMA1101491999999MW1001REMMET045OISS 1400Z 27006MPS CAVOK 20/M14 Q1015 A2999;EQDQ01+000000PRSWM2
0097408480999992000040217004+29530+052580FM-15+1491OISS V0209999C00001220001CN0099001N1+01701-00301999999ADDMA1101901999999MW1001REMMET045OISS 1700Z 00000MPS CAVOK 17/M03 Q1019 A3010;EQDQ01+000000PRSWM2
0105408480999992000040805504+29530+052580FM-15+1491OISS V0209999C00001220001CN0099001N1+01901+00201999999ADDMA1102101999999MW1001REMMET053OISS 080550Z 00000MPS CAVOK 19/02 Q1021 A3017 SCT200;EQDQ01+000000PRSWM2
0216408480999992000041214004+29530+052580FM-15+1491OISS V0201201N00301030001CN0112651N1+02701-00301999999ADDGA1021+010509099GA2021+012009999GA3021+030009999GA4071+060009999GF107991999999999999999999MA1101691999999MW1001REMMET074OISS 1400Z 12003MPS 9999 FEW035CB FEW040 SCT100 BKN200 27/M03 Q1017 A3005;EQDQ01+000000PRSWM2
0246408480999992000041518004+29530+052580SY-MT+1491OISS V0203001N002012200019N0100001N1+02441-00211100721ADDAA199000091GF100991001001999999001001MA1101801085181MD1210231+9999MW1001REMSYN076AAXX  15181 40848 32960 03002 10244 21021 38518 40072 52023 91750 333 55112;MET045OISS 1800Z 30002MPS CAVOK 24/M02 Q1018 A3008;EQDQ01+000000PRSWM2Q02  00002PRCP99
0169408480999992000041911504+29530+052580FM-15+1491OISS V0209999C000010540019N0112651N1+02901+00201999999ADDGA1021+012009999GA2071+054009999GF107991999999999999999999MA1101591999999MW1001REMMET059OISS 191150Z 00000MPS 9999 FEW040 BKN180 29/02 Q1016 A3000;EQDQ01+000000PRSWM2
0143408480999992000042301004+29530+052580FM-15+1491OISS V0203101N004012200019N9999999N1+01601+00601999999ADDGF100991999999999999999999MA1101801999999MW1001REMMET049OISS 230100Z 31004MPS 7000 SKC 16/06 Q1018 A3008;EQDQ01+070002VODIS Q02+000000PRSWM2
0154408480999992000042307004+29530+052580FM-15+1491OISS V0201201N003012200019N0060001N1+02601+00301999999ADDGF100991999999999999999999MA1102001999999MW1061REMMET060OISS 230700Z 12003MPS 6000 4000 SE DU SKC 26/03 Q1020 A3012;EQDQ01+000003PRSWM1Q02    003PRSWM1
0106408480999992000042714004+29530+052580FM-15+1491OISS V0203001N00801220001CN0099001N1+02701-00401999999ADDMA1101691999999MW1001REMMET054OISS 271400Z 30008MPS CAVOK 27/M04 Q1017 A3003 BKN200;EQDQ01+000000PRSWM2
0144408480999992000051117004+29530+052580FM-15+1491OISS V0203001N004012200019N9999999N1+02501-00201999999ADDGF100991999999999999999999MA1101801999999MW1001REMMET050OISS 111700Z 30004MPS 7000 SKC 25/M02 Q1018 A3007;EQDQ01+070002VODIS Q02+000000PRSWM2
0098408480999992000052110004+29530+052580FM-15+1491OISS V0202801N00301220001CN0099001N1+03301+00201999999ADDMA1101491999999MW1001REMMET046OISS 211000Z 28003MPS CAVOK 33/02 Q1015 A2998;EQDQ01+000000PRSWM2
0098408480999992000052319004+29530+052580FM-15+1491OISS V0202801N00301220001CN0099001N1+02401+00101999999ADDMA1101391999999MW1001REMMET046OISS 231900Z 28003MPS CAVOK 24/01 Q1014 A2994;EQDQ01+000000PRSWM2
0205408480999992000052815004+29530+052580SY-MT+1491OISS V0202901N005012200019N0100001N1+03441-00041099791ADDGF100991001001999999001001MA1101021084481MD1510001+9999MW1001REMSYN060AAXX  28151 40848 42960 02905 10344 21004 38448 49979 55000;MET047OISS 281500Z 29005MPS CAVOK 34/M00 Q1010 A2984;EQDQ01+000000PRSWM2
0098408480999992000060500504+29530+052580FM-15+1491OISS V0209999C00001220001CN0099001N1+02501+00401999999ADDMA1101291999999MW1001REMMET046OISS 050050Z 00000MPS CAVOK 25/04 Q1013 A2992;EQDQ01+000000PRSWM2
0128408480999992000060808004+29530+052580FM-15+1491OISS V0209999C000012200019N0080001N1+03501+00201999999ADDGF100991999999999999999999MA1101081999999MW1001REMMET050OISS 080800Z 00000MPS 8000 SKC 35/02 Q1011 A 2987;EQDQ01+000000PRSWM2
0146408480999992000061217504+29530+052580FM-15+1491OISS V0202801N004012200019N0030001N1+02701+00401999999ADDGF100991999999999999999999MA1101191999999MW1061REMMET052OISS 121750Z 28004MPS 3000 DU SKC 27/04 Q1012 A2989;EQDQ01+000003PRSWM1Q02    003PRSWM1
0149408480999992000061307004+29530+052580FM-15+1491OISS V0209999C000012200019N0020001N1+03001+00101999999ADDGF100991999999999999999999MA1101191999999MW1061REMMET055OISS 130700Z 00000MPS 2000MTS DU SKC 30/01 Q1012 A2988;EQDQ01+000003PRSWM1Q02    003PRSWM1
0128408480999992000061317004+29530+052580FM-15+1491OISS V0202501N003012200019N0080001N1+02601-00101999999ADDGF100991999999999999999999MA1101021999999MW1001REMMET050OISS 131700Z 25003MPS 8000 SKC 26/M01 Q1010 A2984;EQDQ01+000000PRSWM2
0098408480999992000061922004+29520+052570FM-15+1491OISS V0209999C00001220001CN0099001N1+02601+00101999999ADDMA1101081999999MW1001REMMET046OISS 192200Z 00000MPS CAVOK 26/01 Q1011 A2987;EQDQ01+000000PRSWM2
0143408480999992000062420004+29520+052570FM-15+1491OISS V0202801N002012200019N9999999N1+02801+00101999999ADDGF100991999999999999999999MA1100911999999MW1001REMMET049OISS 242000Z 28002MPS 7000 SKC 28/01 Q1009 A2981;EQDQ01+070002VODIS Q02+000000PRSWM2
0127408480999992000062702004+29520+052570FM-15+1491OISS V0209999C000012200019N0070001N1+02001+00001999999ADDGF100991999999999999999999MA1101021999999MW1001REMMET049OISS 270200Z 00000MPS 7000 SKC 20/00 Q1010 A2984;EQDQ01+000000PRSWM2
0334408480999992000062915004+29520+052570SY-MT+1491OISS V0202401N003012200019N0070001N1+03741+00321099601ADDAY111031AY201031GA1021+010509999GA2021+030009999GF103991011011012501031001KA1120M+03901MA1101081084501MD1610101+9999MW1051REMSYN100AAXX  29151 40848 41657 32403 10374 20032 38450 49960 56010 70510 81130 91450 333 10390 81840 83360;MET059OISS 291500Z 24003MPS 7000 FEW035 SCT100 37/03 Q1011 A2985;EQDQ01+000000PRSWM2Q02    003PRSWM1
0241408480999992000070400004+29520+052570SY-MT+1491OISS V0203101N003012200019N0100001N1+02641+00751099371ADDAA199000091GF100991001001999999001001MA1101021084451MD1510011+9999MW1001REMSYN070AAXX  04001 40848 32960 03103 10264 20075 38445 49937 55001 92350 333;MET046OISS 040000Z 31003MPS CAVOK 26/08 Q1010 A2983;EQDQ01+000000PRSWM2Q02  00002PRCP99
0223408480999992000071021004+29520+052570SY-MT+1491OISS V0209999C000012200019N9999999N1+02801+01201098991ADDAY101031AY201031GF100991001001999999001001MA1100611084121MW1051REMSYN058AAXX  10211 40848 4195/ 011// 20116 38412 49899 70500 333;MET049OISS 102100Z 00000MPS 6000 SKC 28/12 Q1006 A2972;EQDQ01+000000PRSWM2Q02    003PRSWM1
0289408480999992000071409004+29520+052570SY-MT+1491OISS V0209999C000010300019N0050001N1+03561+00861099381ADDAY121031AY211031GA1071+030009999GF199999001001999999031021MA1101021084441MD1810061+9999MW1061REMSYN088AAXX  14091 40848 41950 60000 10356 20086 38444 49938 58006 70621 80032 90850 333 86360;MET055OISS 140900Z 00000MPS 5000 DU BKN100 36/09 Q1010 A2983;EQDQ01+000062SCOTCVQ02    003PRSWM1
0193408480999992000071513004+29520+052570FM-15+1491OISS V0203101N006012200019N9999999N1+03501+00701999999ADDGA1021+010509099GA2021+012009029GF104991999999999999999999MA1100911999999MW1001REMMET067OISS 151300Z 31006MPS 5000 VC FEW035CB SCT040TCU 35/07 Q1009 A2980;EQDQ01+050002VODIS Q02+000000PRSWM2
0098408480999992000071907004+29520+052570FM-15+1491OISS V0209999C00001220001CN0099001N1+03001+00101999999ADDMA1101191999999MW1001REMMET046OISS 190700Z 00000MPS CAVOK 30/01 Q1012 A2989;EQDQ01+000000PRSWM2
0105408480999992000072420004+29520+052570FM-15+1491OISS V0201001N00201220001CN0099001N1+02501+00301999999ADDMA1101291999999MW1001REMMET053OISS 242000Z 10002MPS CAVOK 25/03 Q1013 A2992 FEW100;EQDQ01+000000PRSWM2
0099408480999992000072620004+29520+052570FM-15+1491OISS V0209999C00001220001CN0099001N1+02401-00301999999ADDMA1101491999999MW1001REMMET047OISS 262000Z 00000MPS CAVOK 24/M03 Q1015 A2999;EQDQ01+000000PRSWM2
0172408480999992000072803004+29520+052570FM-12+1491OISS V0203001N003012200019N0100001N1+02121+00241100131ADDGA1001+999999999GF100991001001999999001001KA1999N+02001MA1999999084841MD1210111+9999REMSYN076AAXX  28031 40848 42960 03003 10212 20024 38484 40013 52011 90250 333 20200;
0285408480999992000072903004+29520+052570SY-MT+1491OISS V0203001N003012200019N0100001N1+02101-00041100311ADDGA1021+030009079GF102991999001999999031001KA1120N+02061MA1101591085011MD1210191+9999MW1001REMSYN088AAXX  29031 40848 42960 23003 10210 21004 38501 40031 52019 80030 90250 333 20206 82360;MET054OISS 290300Z 30003MPS CAVOK 21/M00 Q1016 A3002 FEW100;EQDQ01+000002SCOTLCQ02+000000PRSWM2
0233408480999992000080203004+29520+052570SY-MT+1491OISS V0209999C00001220001CN0100001N1+02241+00251099901ADDGF100991001001999999001001KA1999N+02001MA1101291084691MD1210151+9999MW1001REMSYN076AAXX  02031 40848 42960 00000 10224 20025 38469 49990 52015 90250 333 20200;MET046OISS 020300Z 00000MPS CAVOK 22/03 Q1013 A2992;EQDQ01+000000PRSWM2
0127408480999992000080305004+29520+052570FM-15+1491OISS V0200301N002012200019N0080001N1+02901+00901999999ADDGF100991999999999999999999MA1101291999999MW1001REMMET049OISS 030500Z 03002MPS 8000 SKC 29/09 Q1013 A2992;EQDQ01+000000PRSWM2
0300408480999992000080406004+29520+052570SY-MT+1491OISS V0209999C000012200019N0070001N1+03061+01021099681ADDAA124000091AY101061AY201061GF100991001001999999001001MA1101191084641MD1210121+9999MW1051REMSYN094AAXX  04061 40848 31957 00000 10306 20102 38464 49968 52012 70500 90550 333 30016 51291 70000;MET049OISS 040600Z 00000MPS 7000 SKC 31/10 Q1012 A2990;EQDQ01+000000PRSWM2Q02  00002PRCP24Q03    003PRSWM1
0169408480999992000080522004+29520+052570FM-15+1491OISS V0209999C000012200019N0112651N1+02601+00801999999ADDGA1021+012009999GA2021+030009999GF104991999999999999999999MA1101391999999MW1001REMMET059OISS 052200Z 00000MPS 9999 FEW040 SCT100 26/08 Q1014 A2996;EQDQ01+000000PRSWM2
0149408480999992000080611004+29520+052570FM-15+1491OISS V0201101N006012200019N0080001N1+03701+00301999999ADDGA1021+012009029GF104991999999999999999999MA1101291999999MW1001REMMET055OISS 061100Z 11006MPS 8000 SCT040TCU 37/03 Q1013 A2991;EQDQ01+000000PRSWM2
0146408480999992000081703504+29520+052570FM-15+1491OISS V0209999C000012200019N0050001N1+02401+01301999999ADDGF100991999999999999999999MA1101491999999MW1051REMMET052OISS 170350Z 00000MPS 5000 HZ SKC 24/13 Q1015 A2997;EQDQ01+000003PRSWM1Q02    003PRSWM1
0099408480999992000090201504+29520+052570FM-15+1491OISS V0203101N00301220001CN0099001N1+01901-00201999999ADDMA1100811999999MW1001REMMET047OISS 020150Z 31003MPS CAVOK 19/M02 Q1008 A2977;EQDQ01+000000PRSWM2
0098408480999992000091422004+29520+052570FM-15+1491OISS V0209999C00001220001CN0099001N1+02001+00001999999ADDMA1101691999999MW1001REMMET046OISS 142200Z 00000MPS CAVOK 20/00 Q1017 A3005;EQDQ01+000000PRSWM2
0153408480999992000092004004+29520+052570FM-15+1491OISS V0209999C000012200019N0070001N1+02001+00501999999ADDGF100991999999999999999999MA1101801999999MW1051REMMET059OISS 200400Z 00000MPS 7000 4000SE HZ SKC 20/05 Q1018 A3006;EQDQ01+000003PRSWM1Q02    003PRSWM1
0099408480999992000092314004+29520+052570FM-15+1491OISS V0201201N00201220001CN0099001N1+02801-00201999999ADDMA1101691999999MW1001REMMET047OISS 231400Z 12002MPS CAVOK 28/M02 Q1017 A3004;EQDQ01+000000PRSWM2
0098408480999992000092421004+29520+052570FM-15+1491OISS V0209999C00001220001CN0099001N1+02001+00801999999ADDMA1101901999999MW1001REMMET046OISS 242100Z 00000MPS CAVOK 20/08 Q1019 A3011;EQDQ01+000000PRSWM2
0146408480999992000100417004+29520+052570FM-15+1491OISS V0209999C000012200019N0112651N1+01701+00801999999ADDGA1021+012009999GF102991999999999999999999MA1102001999999MW1001REMMET052OISS 041700Z 00000MPS 9999 FEW040 17/08 Q1020 A3012;EQDQ01+000000PRSWM2
0147408480999992000100616004+29520+052570FM-15+1491OISS V0209999C000012200019N0112651N1+02001+00801999999ADDGA1021+012009999GF102991999999999999999999MA1102001999999MW1001REMMET053OISS 061600Z 00000MPS 9999 FEW040 20/08 Q1020 A3013 ;EQDQ01+000000PRSWM2
0146408480999992000100714004+29520+052570FM-15+1491OISS V0209999C000012200019N0112651N1+02501+00301999999ADDGA1021+012009999GF102991999999999999999999MA1102001999999MW1001REMMET052OISS 071400Z 00000MPS 9999 FEW040 25/03 Q1020 A3014;EQDQ01+000000PRSWM2
0259408480999992000101006004+29520+052570SY-MT+1491OISS V0209999C000012200019N0100001N1+01981+00211101231ADDAA124000091GF100991001001999999001001MA1102101085401MD1010101+9999MW1001REMSYN088AAXX  10061 40848 32960 00000 10198 20021 38540 40123 50010 90550 333 30007 50701 70000;MET046OISS 100600Z 00000MPS CAVOK 20/02 Q1021 A3016;EQDQ01+000000PRSWM2Q02  00002PRCP24
0248408480999992000101318004+29520+052570SY-MT+1491OISS V0203001N006012200019N0100001N1+02121-00411100831ADDAA199000091GF100991001001999999001001MA1101691085101MD1110101+9999MW1001REMSYN076AAXX  13181 40848 32960 03006 10212 21041 38510 40083 51010 91750 333 55108;MET047OISS 131800Z 30006MPS CAVOK 21/M04 Q1017 A3005;EQDQ01+000000PRSWM2Q02  00002PRCP99
0169408480999992000101700504+29520+052570FM-15+1491OISS V0202701N002010300019N0112651N1+01501+00701999999ADDGA1021+012009999GA2071+030009999GF107991999999999999999999MA1102201999999MW1001REMMET059OISS 170050Z 27002MPS 9999 FEW040 BKN100 15/07 Q1022 A3019;EQDQ01+000000PRSWM2
0247408480999992000101718004+29520+052570SY-MT+1491OISS V0209999C000012200019N0100001N1+02021+00551101231ADDAA199000091GF100991001001999999001001MA1102201085471MD1110091+9999MW1001REMSYN076AAXX  17181 40848 32960 00000 10202 20055 38547 40123 51009 91750 333 55100;MET046OISS 171800Z 00000MPS CAVOK 20/06 Q1022 A3018;EQDQ01+000000PRSWM2Q02  00002PRCP99
0098408480999992000102105004+29520+052570FM-15+1491OISS V0209999C00001220001CN0099001N1+01801+00401999999ADDMA1102401999999MW1001REMMET046OISS 210500Z 00000MPS CAVOK 18/04 Q1024 A3025;EQDQ01+000000PRSWM2
0099408480999992000102304004+29520+052570FM-15+1491OISS V0209999C00001220001CN0099001N1+01401+00001999999ADDMA1102001999999MW1001REMMET047OISS 230400Z 00000MPS CAVOK 14/M00 Q1020 A3012;EQDQ01+000000PRSWM2
0259408480999992000102406004+29520+052570SY-MT+1491OISS V0209999C000012200019N0100001N1+02021+00251101281ADDAA124000091GF100991001001999999001001MA1102201085461MD1110131+9999MW1001REMSYN088AAXX  24061 40848 32960 00000 10202 20025 38546 40128 51013 90550 333 30005 50571 70000;MET046OISS 240600Z 00000MPS CAVOK 20/03 Q1022 A3018;EQDQ01+000000PRSWM2Q02  00002PRCP24
0172408480999992000102804004+29520+052570FM-15+1491OISS V0209999C000012200019N0080001N1+01101+00501999999ADDGA1021+060009999GF102991999999999999999999MA1102401999999MW1051REMMET062OISS 280400Z 00000MPS 8000 4000SE HZ FEW200 11/05 Q1024 A3025;EQDQ01+000003PRSWM1Q02    003PRSWM1
0241408480999992000110300004+29520+052570SY-MT+1491OISS V0209999C000012200019N0100001N1+01181+00251101451ADDAA199000091GF100991001001999999001001MA1102201085461MD1410001+9999MW1001REMSYN070AAXX  03001 40848 32960 00000 10118 20025 38546 40145 54000 92350 333;MET046OISS 030000Z 00000MPS CAVOK 12/03 Q1022 A3018;EQDQ01+000000PRSWM2Q02  00002PRCP99
0098408480999992000110722004+29520+052570FM-15+1491OISS V0209999C00001220001CN0099001N1+00901+00501999999ADDMA1101901999999MW1001REMMET046OISS 072200Z 00000MPS CAVOK 09/05 Q1019 A3011;EQDQ01+000000PRSWM2
0112408480999992000111419504+29520+052570FM-15+1491OISS V0209999C00001220001CN0099001N1+01001+00401999999ADDMA1102001999999MW1001REMMET060OISS 141950Z 00000MPS CAVOK 10/04 Q1020 A3012 FEW100 BKN190;EQDQ01+000000PRSWM2
0162408480999992000111507504+29520+052570FM-15+1491OISS V0209999C000010600019N9999999N1+01601+00401999999ADDGA1071+060009999GF107991999999999999999999MA1102101999999MW1001REMMET052OISS 150750Z 00000MPS 7000 BKN200 16/04 Q1021 A3017;EQDQ01+070002VODIS Q02+000000PRSWM2
0192408480999992000111614554+29520+052570FM-15+1491OISS V0209999C000010570019N0112651N1+01501+00601999999ADDGA1021+012009999GA2021+030009999GA3071+057009999GF107991999999999999999999MA1102101999999MW1001REMMET066OISS 161455Z 00000MPS 9999 FEW040 SCT100 BKN190 15/06 Q1021 A3017;EQDQ01+000000PRSWM2
0192408480999992000112013004+29520+052570FM-15+1491OISS V0202501N005010600019N0112651N1+01701+00601999999ADDGA1021+012009999GA2021+030009999GA3071+060009999GF107991999999999999999999MA1102001999999MW1001REMMET066OISS 201300Z 25005MPS 9999 FEW040 SCT100 BKN200 17/06 Q1020 A3012;EQDQ01+000000PRSWM2
0186408480999992000112405504+29520+052570FM-15+1491OISS V0209999C000010600019N9999999N1+00601-00101999999ADDGA1021+030009999GA2071+060009999GF107991999999999999999999MA1102511999999MW1001REMMET060OISS 240550Z 00000MPS 7000 SCT100 BKN200 06/M01 Q1025 A3028;EQDQ01+070002VODIS Q02+000000PRSWM2
0169408480999992000113013004+29520+052570FM-15+1491OISS V0209999C000010600019N0080001N1+01901+00101999999ADDGA1021+012009999GA2071+060009999GF107991999999999999999999MA1102511999999MW1001REMMET059OISS 301300Z 00000MPS 8000 FEW040 BKN200 19/01 Q1025 A3029;EQDQ01+000000PRSWM2
0099408480999992000120701004+29520+052570FM-15+1491OISS V0209999C00001220001CN0099001N1+00401-00201999999ADDMA1102101999999MW1001REMMET047OISS 070100Z 00000MPS CAVOK 04/M02 Q1021 A3016;EQDQ01+000000PRSWM2
0170408480999992000122020004+29520+052570FM-15+1491OISS V0209999C000010540019N0112651N1+00601-00101999999ADDGA1021+012009999GA2071+054009999GF107991999999999999999999MA1102101999999MW1001REMMET060OISS 202000Z 00000MPS 9999 FEW040 BKN180 06/M01 Q1021 A3016;EQDQ01+000000PRSWM2
0106408480999992000122100504+29520+052570FM-15+1491OISS V0202901N00301220001CN0099001N1+00501-00101999999ADDMA1102101999999MW1001REMMET054OISS 210050Z 29003MPS CAVOK 05/M01 Q1021 A3016 SCT200;EQDQ01+000000PRSWM2
0099408480999992000122123004+29520+052570FM-15+1491OISS V0209999C00001220001CN0099001N1+00401+00001999999ADDMA1102301999999MW1001REMMET047OISS 212300Z 00000MPS CAVOK 04/M00 Q1023 A3021;EQDQ01+000000PRSWM2
0146408480999992000122207504+29520+052570FM-15+1491OISS V0209999C000012200019N0112651N1+01301+00201999999ADDGA1021+012009999GF102991999999999999999999MA1102401999999MW1001REMMET052OISS 220750Z 00000MPS 9999 FEW040 13/02 Q1024 U3024;EQDQ01+000000PRSWM2
0215408480999992000122311454+29520+052570FM-15+1491OISS V0203001N005010300019N0070001N1+01301+00101999999ADDGA1021+010509099GA2021+012009999GA3071+030009999GF107991999999999999999999MA1102201999999MW1801REMMET073OISS 231145Z 30005MPS 7000-SHRA FEW035CB FEW040 BKN100 13/01 Q1022 A3018;EQDQ01+000003PRSWM1Q02    003PRSWM1
0146408480999992000122322004+29520+052570FM-15+1491OISS V0209999C000012200019N0112651N1+00701+00501999999ADDGA1021+012009999GF102991999999999999999999MA1102101999999MW1001REMMET052OISS 232200Z 00000MPS 9999 FEW040 07/05 Q1021 A3015;EQDQ01+000000PRSWM2
0165408510999992000010409004+29470+055720FM-12+173999999V0209999C000012200019N0100001N1+01401-01601101771ADDGA1021+060009019GF102991001001999999001011MA1999999082601MD1710191+9999REMSYN082AAXX  04091 40851 42960 20000 10140 21160 38260 40177 57019 80001 90850 333 82070;
0190408510999992000010715004+29470+055720FM-12+173999999V0209999C00001036001CN0100001N1+01221-00171101451ADDGA1031+012009069GF107991031041012501071001KA1120M+01361MA1999999082621MD1310071+9999REMSYN094AAXX  07151 40851 42660 70000 10122 21017 38262 40145 53007 83470 91450 333 10136 83640 87360;
0183408510999992000041500004+29470+055720FM-12+173999999V0209999C000012200019N0100001N1+01401-00351100481ADDAA199000091GA1001+999999999GF100991001001999999001001MA1999999082501MD1810081+9999REMSYN070AAXX  15001 40851 32960 00000 10140 21035 38250 40048 58008 92350 333;EQDQ01  00002PRCP99
0183408510999992000050400004+29470+055720FM-12+173999999V0209999C000012200019N0100001N1+01561-00021100381ADDAA199000091GA1001+999999999GF100991001001999999001001MA1999999082471MD1710061+9999REMSYN070AAXX  04001 40851 32960 00000 10156 21002 38247 40038 57006 92350 333;EQDQ01  00002PRCP99
0184408510999992000050615004+29470+055720FM-12+173999999V0202201N005012200019N0100001N1+03101+00141100351ADDGA1011+013509059GF101991011041012501001001KA1120M+03401MA1999999082531MD1310031+9999REMSYN088AAXX  06151 40851 42660 12205 10310 20014 38253 40035 53003 81400 91450 333 10340 81645;
0201408510999992000051206004+29470+055720FM-12+173999999V0203301N004012200019N0100001N1+02501-00751100521ADDAA124000091GA1001+999999999GF100991001001999999001001MA1999999082691MD1110091+9999REMSYN088AAXX  12061 40851 32960 03304 10250 21075 38269 40052 51009 90550 333 30009 51411 70000;EQDQ01  00002PRCP24
0189408510999992000052918004+29470+055720FM-12+173999999V0209999C000012200019N0100001N1+02701-00471099601ADDAA199000091GA1001+999999999GF100991001001999999001001MA1999999082151MD1310051+9999REMSYN076AAXX  29181 40851 32960 00000 10270 21047 38215 49960 53005 91750 333 55127;EQDQ01  00002PRCP99
0183408510999992000073000004+29470+055710FM-12+173999999V0209999C000012200019N0100001N1+01861-00341100251ADDAA199000091GA1001+999999999GF100991001001999999001001MA1999999082521MD1410001+9999REMSYN070AAXX  30001 40851 32960 00000 10186 21034 38252 40025 54000 92350 333;EQDQ01  00002PRCP99
0190408510999992000080515004+29470+055710FM-12+173999999V0200201N005012200019N0100001N1+03301+00101099671ADDGA1021+012009069GF103991021041012501001011KA1120M+03601MA1999999082201MD1310061+9999REMSYN094AAXX  05151 40851 42660 30205 10330 20010 38220 49967 53006 82401 91450 333 10360 82640 82070;
0183408510999992000080600004+29470+055710FM-12+173999999V0201301N004012200019N0100001N1+02401+00841099561ADDAA199000091GA1001+999999999GF100991001001999999001001MA1999999082241MD1810091+9999REMSYN070AAXX  06001 40851 32960 01304 10240 20084 38224 49956 58009 92350 333;EQDQ01  00002PRCP99
0183408510999992000090400004+29470+055710FM-12+173999999V0209999C000012200019N0100001N1+02001+00561099471ADDAA199000091GA1001+999999999GF100991001001999999001001MA1999999082011MD1810101+9999REMSYN070AAXX  04001 40851 32960 00000 10200 20056 38201 49947 58010 92350 333;EQDQ01  00002PRCP99
0213408510999992000090606004+29470+055710FM-12+173999999V0201801N003012200019N0100001N1+02661+00561100021ADDAA124000091GA1011+012009029GF101991011011012501001001MA1999999082341MD1210051+9999REMSYN100AAXX  06061 40851 32660 11803 10266 20056 38234 40002 52005 81100 90550 333 30015 51321 70000 81840;EQDQ01  00002PRCP24
0213408510999992000090706004+29470+055710FM-12+173999999V0209999C000010135019N0100001N1+02961+00911099791ADDAA124000091GA1051+013509059GF105991051051012501001001MA1999999082381MD1110051+9999REMSYN100AAXX  07061 40851 32660 50000 10296 20091 38238 49979 51005 85500 90550 333 30020 51501 70000 85645;EQDQ01  00002PRCP24
0169408510999992000092418004+29470+055710FM-12+173999999V0202101N003012200019N0100001N1+02121-00141100881ADDAA199000091GA1001+999999999GF100991001001999999001001MA1999999082661REMSYN070AAXX  24181 40851 32960 02103 10212 21014 38266 40088 91750 333 55109;EQDQ01  00002PRCP99
0189408510999992000101218004+29470+055710FM-12+173999999V0209999C000012200019N0100001N1+01541-00621101051ADDAA199000091GA1001+999999999GF100991001001999999001001MA1999999082771MD1310071+9999REMSYN076AAXX  12181 40851 32960 00000 10154 21062 38277 40105 53007 91750 333 55105;EQDQ01  00002PRCP99
0183408510999992000101900004+29470+055710FM-12+173999999V0209999C000012200019N0100001N1+00941-00421100891ADDAA199000091GA1001+999999999GF100991001001999999001001MA1999999082681MD1410001+9999REMSYN070AAXX  19001 40851 32960 00000 10094 21042 38268 40089 54000 92350 333;EQDQ01  00002PRCP99
0165408510999992000111409004+29470+055710FM-12+173999999V0201201N005012200019N0100001N1+01781-00681101331ADDGA1041+060009019GF104991001001999999001021MA1999999082681MD1810171+9999REMSYN082AAXX  14091 40851 42960 41205 10178 21068 38268 40133 58017 80002 90850 333 84070;
0207408510999992000122106004+29470+055710FM-12+173999999V0201501N004012200019N0100001N1+01021-00881101941ADDAA124000091GA1031+060009019GF103991001001999999001021MA1999999082981MD1210131+9999REMSYN094AAXX  21061 40851 32960 31504 10102 21088 38298 40194 52013 80002 90550 333 30000 70000 83070;EQDQ01  00002PRCP24
0207408510999992000122406004+29470+055710FM-12+173999999V0201001N005012200019N0100001N1+01281-00671101751ADDAA124000091GA1021+012009059GF102991021041012501001001MA1999999082951MD1110071+9999REMSYN094AAXX  24061 40851 32660 21005 10128 21067 38295 40175 51007 82400 90550 333 30004 70000 82640;EQDQ01  00002PRCP24
0183408510999992000123000004+29470+055710FM-12+173999999V0209999C000012200019N0100001N1-00501-01061102491ADDAA199000091GA1001+999999999GF100991001001999999001001MA1999999083091MD1810041+9999REMSYN070AAXX  30001 40851 32960 00000 11050 21106 38309 40249 58004 92350 333;EQDQ01  00002PRCP99
0139408530999992000022721004+29230+056580FM-12+225899999V0209999C000012200019N0100001N1+00941-00081100841ADDGF104991041041012501001001MA1999999077421MD1810081+9999REMSYN072AAXX  27211 40853 42660 40000 10094 21008 37742 40084 58008 84400 92050;
0195408530999992000042712004+29230+056580FM-12+225899999V0202701N008012200019N0100001N1+02401-00171100591ADDAA199000091GA1021+060009019GF102991001001999999001011MA1999999077561MD1610061+9999REMSYN082AAXX  27121 40853 32960 22708 10240 21017 37756 40059 56006 80001 91150 333 82070;EQDQ01  00002PRCP99
0183408530999992000050300004+29230+056580FM-12+225899999V0209999C000012200019N0100001N1+01521+00211100381ADDAA199000091GA1001+999999999GF100991001001999999001001MA1999999077611MD1410001+9999REMSYN070AAXX  03001 40853 32960 00000 10152 20021 37761 40038 54000 92350 333;EQDQ01  00002PRCP99
0183408530999992000051200004+29230+056580FM-12+225899999V0203601N004012200019N0100001N1+01641-00021100061ADDAA199000091GA1001+999999999GF100991001001999999001001MA1999999077501MD1710101+9999REMSYN070AAXX  12001 40853 32960 03604 10164 21002 37750 40006 57010 92350 333;EQDQ01  00002PRCP99
0162408530999992000070603004+29230+056570FM-12+225899999V0209999C000012200019N0100001N1+02361+01351099471ADDGF101991011011012501001001KA1999N+01901MA1999999077371MD1310041+9999REMSYN082AAXX  06031 40853 42660 10000 10236 20135 37737 49947 53004 81100 90250 333 20190;
0153408530999992000071221004+29230+056570FM-12+225899999V0200901N003012200019N0100001N1+02301+00981099011ADDGA1001+999999999GF100991001001999999001001MA1999999077061MD1810021+9999REMSYN070AAXX  12211 40853 42960 00903 10230 20098 37706 49901 58002 92050 333;
0153408530999992000071721004+29230+056570FM-12+225899999V0200301N008012200019N0100001N1+02141+00021099341ADDGA1001+999999999GF100991001001999999001001MA1999999077091MD1810031+9999REMSYN070AAXX  17211 40853 42960 00308 10214 20002 37709 49934 58003 92050 333;
0162408530999992000081003004+29230+056570FM-12+225899999V0209999C000012200019N0100001N1+02041+00641099701ADDGF101991011011012501001001KA1999N+01741MA1999999077341MD1310041+9999REMSYN082AAXX  10031 40853 42660 10000 10204 20064 37734 49970 53004 81100 90250 333 20174;
0209408530999992000100518004+29230+056570FM-12+225899999V0200601N004012200019N0100001N1+01401+00291101191ADDAA199000091GA1031+012009059GF103991031041012501001001GJ105829MA1999999077801MD1210141+9999REMSYN088AAXX  05181 40853 32660 30604 10140 20029 37780 40119 52014 83400 91750 333 55097 83640;EQDQ01  00002PRCP99
0221408530999992000110921004+29230+056570FM-12+225899999V0209999C000010120019N0060001N1+00561+00521101461ADDAY161031AY261031GA1011+010509099GA2041+012009069GF108991051031012501021999MA1999999077581MD1810031+9999MW1631REMSYN100AAXX  09211 40853 41656 80000 10056 20052 37758 40146 58003 76366 8532/ 92050 333 81935 84640 87557;
0172408530999992000112103004+29230+056570FM-12+225899999V0209999C000012200019N0100001N1+00341-00161101481ADDGA1001+999999999GF100991001001999999001001KA1999N+00281MA1999999077441MD1310041+9999REMSYN076AAXX  21031 40853 42960 00000 10034 21016 37744 40148 53004 90250 333 20028;
0153408530999992000112709004+29230+056570FM-12+225899999V0209999C000012200019N0100001N1+01121-00741102131ADDGA1001+999999999GF100991001001999999001001MA1999999077961MD1710141+9999REMSYN070AAXX  27091 40853 42960 00000 10112 21074 37796 40213 57014 90850 333;
0153408540999992000021303004+29100+058400FM-12+1067OIKM V0202801N006012200019N0100001N1+00521-01021102021ADDGA1001+999999999GF100991001001999999001001MA1999999089871MD1310071+9999REMSYN070AAXX  13031 40854 42960 02806 10052 21102 38987 40202 53007 90250 333;
0172408540999992000021615004+29100+058400FM-12+1067OIKM V0209999C000012200019N0100001N1+01541-00321101571ADDGA1001+999999999GF100991001001999999001001KA1999M+01881MA1999999089551MD1110011+9999REMSYN076AAXX  16151 40854 42960 00000 10154 21032 38955 40157 51001 91450 333 10188;
0172408540999992000022203004+29100+058400FM-12+1067OIKM V0209999C000012200019N0100001N1+00721-01001101831ADDGA1001+999999999GF100991001001999999001001KA1999N+00701MA1999999089761MD1210211+9999REMSYN076AAXX  22031 40854 42960 00000 10072 21100 38976 40183 52021 90250 333 20070;
0201408540999992000022406004+29100+058400FM-12+1067OIKM V0209999C000012200019N0100001N1+01801-00671101841ADDAA124000091GA1001+999999999GF100991001001999999001001MA1999999089931MD1210201+9999REMSYN088AAXX  24061 40854 32960 00000 10180 21067 38993 40184 52020 90550 333 30008 50621 70000;EQDQ01  00002PRCP24
0229408540999992000031706004+29100+058400FM-12+1067OIKM V0209999C000012200019N0080001N1+01601-00761101721ADDAA124000091AY101061AY201061GA1001+999999999GF100991001001999999001001MA1999999089771MD1210211+9999MW1061REMSYN094AAXX  17061 40854 31958 00000 10160 21076 38977 40172 52021 70600 90550 333 30006 50751 70000;EQDQ01  00002PRCP24
0215408540999992000042118004+29100+058400FM-12+1067OIKM V0209999C000012200019N0100001N1+02901+00641099991ADDAA199000091GA1011+010509099GF103991031031012501001001GJ105829MA1999999088861MD1210141+9999REMSYN094AAXX  21181 40854 32660 30000 10290 20064 38886 49999 52014 83300 91750 333 55097 81935 82640;EQDQ01  00002PRCP99
0201408540999992000050906004+29100+058400FM-12+1067OIKM V0200601N006012200019N0100001N1+03861+00161099901ADDAA124000091GA1001+999999999GF100991001001999999001001MA1999999088961MD1210091+9999REMSYN088AAXX  09061 40854 32960 00606 10386 20016 38896 49990 52009 90550 333 30027 51411 70000;EQDQ01  00002PRCP24
0183408540999992000052112004+29100+058400FM-12+1067OIKM V0203601N005012200019N0100001N1+03901-00121099501ADDAA199000091GA1001+999999999GF100991001001999999001001MA1999999088581MD1710141+9999REMSYN070AAXX  21121 40854 32960 03605 10390 21012 38858 4995/ 57014 91150 333;EQDQ01  00002PRCP99
0181408540999992000052209004+29100+058400FM-12+1067OIKM V0200601N004012200019N0070001N1+03701-00451099861ADDAY101031AY201031GA1001+999999999GF100991001001999999001001MA1999999088801MD1710131+9999MW1051REMSYN076AAXX  22091 40854 41957 00604 10370 21045 38880 49986 57013 70500 90850 333;
0201408540999992000060606004+29100+058400FM-12+1067OIKM V0200601N004012200019N0100001N1+03521-00411099571ADDAA124000091GA1001+999999999GF100991001001999999001001MA1999999088531MD1810021+9999REMSYN088AAXX  06061 40854 32960 00604 10352 21041 38853 49957 58002 90550 333 30022 51671 70000;EQDQ01  00002PRCP24
0220408540999992000061606004+29090+058400FM-12+1067OIKM V0209999C000012200019N0100001N1+03101-00281100361ADDAA124000091GA1011+012009069GF104991011041012501001021MD1210091+9999REMSYN106AAXX  16061 40854 32660 40000 10310 21028 38513 40036 52009 81402 91150 333 30022 51411 70000 81640 83070;EQDQ01+085133APOSP Q02  00002PRCP24
0172408540999992000061915004+29090+058400FM-12+1067OIKM V0209999C000012200019N0100001N1+03341-00661099741ADDGA1001+999999999GF100991001001999999001001KA1999M+03601MA1999999088531MD1410001+9999REMSYN076AAXX  19151 40854 42960 00000 10334 21066 38853 49974 54000 91450 333 10360;
0183408540999992000072512004+29090+058400FM-12+1067OIKM V0203601N007012200019N0100001N1+03501+00021099951ADDAA199000091GA1001+999999999GF100991001001999999001001MA1999999088751MD1710091+9999REMSYN070AAXX  25121 40854 32960 03607 10350 20002 38875 49995 57009 91150 333;EQDQ01  00002PRCP99
0219408540999992000090615004+29090+058400FM-12+1067OIKM V0203601N005012200019N0100001N1+03501+00021099631ADDGA1011+012009059GF101991011041012501001001KA1120M+03841MA1999999999999MD1810031+9999REMSYN088AAXX  06151 40854 42660 13605 10350 20002 38653 49963 58003 81400 91450 333 10384 81640;EQDQ01+086533APOSP Q02 086533APOSP 
0184408540999992000091215004+29090+058400FM-12+1067OIKM V0209999C000012200019N0100001N1+03381+00051099871ADDGA1021+012009059GF102991021041012501001001KA1120M+03741MA1999999088651MD1310051+9999REMSYN088AAXX  12151 40854 42660 20000 10338 20005 38865 49987 53005 82400 91450 333 10374 82640;
0165408540999992000100421004+29090+058400FM-12+1067OIKM V0203301N004012200019N0100001N1+01781+00861101241ADDGA1021+010509099GF102991021031012501001001MA1999999089651MD1210131+9999REMSYN082AAXX  04211 40854 42660 23304 10178 20086 38965 40124 52013 82300 92050 333 82935;
0153408540999992000100809004+29090+058400FM-12+1067OIKM V0209999C000012200019N0100001N1+02661-00211101391ADDGA1001+999999999GF100991001001999999001001MA1999999089771MD1710181+9999REMSYN070AAXX  08091 40854 42960 00000 10266 21021 38977 40139 57018 90850 333;
0153408540999992000101421004+29090+058400FM-12+1067OIKM V0209999C000012200019N0100001N1+02341+00281100451ADDGA1001+999999999GF100991001001999999001001MA1999999089191MD1110021+9999REMSYN070AAXX  14211 40854 42960 00000 10234 20028 38919 40045 51002 92050 333;
0183408540999992000101900004+29090+058400FM-12+1067OIKM V0203101N005012200019N0100001N1+01961+00331100741ADDAA199000091GA1001+999999999GF100991001001999999001001MA1999999089331MD1410001+9999REMSYN070AAXX  19001 40854 32960 03105 10196 20033 38933 40074 54000 92350 333;EQDQ01  00002PRCP99
0183408540999992000102012004+29090+058400FM-12+1067OIKM V0209999C000012200019N0100001N1+03181+00101100811ADDAA199000091GA1001+999999999GF100991001001999999001001MA1999999089351MD1610121+9999REMSYN070AAXX  20121 40854 32960 00000 10318 20010 38935 40081 56012 91150 333;EQDQ01  00002PRCP99
0172408540999992000102515004+29090+058400FM-12+1067OIKM V0209999C000012200019N0100001N1+02501-00021101221ADDGA1001+999999999GF100991001001999999001001KA1999M+03121MA1999999089601MD1410001+9999REMSYN076AAXX  25151 40854 42960 00000 10250 21002 38960 40122 54000 91450 333 10312;
0201408540999992000110700004+29090+058400FM-12+1067OIKM V0209999C000010120019N0100001N1+01181+00781100901ADDAA199000091GA1011+010509099GF105991051031012501001001MA1999999089181MD1310081+9999REMSYN088AAXX  07001 40854 32660 50000 10118 20078 38918 40090 53008 85300 92350 333 81935 84640;EQDQ01  00002PRCP99
0220408540999992000112503004+29090+058400FM-12+1067OIKM V0209999C00001036001CN0100001N1+01201+00131101921ADDAA199000091GA1031+012009069GF106991031041012501071001KA1120N+00121MA1999999089921MD1210101+9999REMSYN094AAXX  25031 40854 32660 60000 10120 20013 38992 40192 52010 83470 90250 333 20012 83640 84460;EQDQ01  00002PRCP99
0237408540999992000121018004+29090+058400FM-12+1067OIKM V0209999C00001036001CN0100001N1+01201+00441101991ADDAA199000091GA1011+010509099GA2031+012009069GF107991041031012501011001GJ100849MA1999999089901MD1210101+9999REMSYN100AAXX  10181 40854 32660 70000 10120 20044 38990 40199 52010 84310 91750 333 55014 81935 83640 87460;EQDQ01  00002PRCP99
0183408540999992000121912004+29090+058400FM-12+1067OIKM V0209999C000012200019N0100001N1+01561-00881102081ADDAA199000091GA1001+999999999GF100991001001999999001001MA1999999089911MD1410001+9999REMSYN070AAXX  19121 40854 32960 00000 10156 21088 38991 40208 54000 91150 333;EQDQ01  00002PRCP99
0084408560999992000010110004+29470+060880FM-15+1370OIZH V0209999C00001220001CN0099001N1+01601-00701999999ADDMA1102001999999MW1001REMMET051OIZH 1000Z 00000MPS CAVOK 16/M07 Q1020 A3013 NOSIG;
0192408560999992000011005004+29470+060880FM-15+1370OIZH V0200201N003010240019N0040001N1+00301+00201999999ADDGA1021+001809999GA2071+024009999GF107991999999999999999999MA1101691999999MW1101REMMET066OIZH 0500Z 02003MPS 4000 BR SCT006 BKN080 03/02 Q1017 A3005 NOSIG;EQDQ01+000003PRSWM1Q02    003PRSWM1
0252408560999992000012618004+29470+060880SY-MT+1370OIZH V0201901N003012200019N0100001N1+00461-01111102361ADDAA199000091GF100991001001999999001001MA1102301086781MD1110041+9999MW1001REMSYN076AAXX  26181 40856 32960 01903 10046 21111 38678 40236 51004 91750 333 55103;MET051OIZH 1800Z 19003MPS CAVOK 05/M11 Q1023 A3022 NOSIG;EQDQ01+000000PRSWM2Q02  00002PRCP99
0167408560999992000013019004+29470+060880FM-15+1370OIZH V0203401N005012200019N9999999N1+00801-01401999999ADDGA1021+012009999GF102991999999999999999999MA1102511999999MW1001REMMET057OIZH 1900Z 34005MPS 6000 FEW040 08/M14 Q1025 A3029 NOSIG;EQDQ01+060002VODIS Q02+000000PRSWM2
0103408560999992000013117004+29470+060880FM-15+1370OIZH V0209999C00001220001CN0099001N1+00501-00501999999ADDMA1102301999999MW1001REMMET051OIZH 1700Z 00000MPS CAVOK 05/M05 Q1023 A3023 NOSIG;EQDQ01+000000PRSWM2
0103408560999992000020119004+29470+060880FM-15+1370OIZH V0202101N00401220001CN0099001N1+00501-01101999999ADDMA1101191999999MW1001REMMET051OIZH 1900Z 21004MPS CAVOK 05/M11 Q1012 A2991 NOSIG;EQDQ01+000000PRSWM2
0151408560999992000021212004+29470+060880FM-15+1370OIZH V0203601N004012200019N0112651N1+01301-01501999999ADDGA1021+012009999GF102991999999999999999999MA1101801999999MW1001REMMET057OIZH 1200Z 36004MPS 9999 FEW040 13/M15 Q1018 A3007 NOSIG;EQDQ01+000000PRSWM2
0104408560999992000022102004+29470+060880FM-15+1370OIZH V0201801N00301220001CN0099001N1-00101-01201999999ADDMA1101491999999MW1001REMMET052OIZH 0200Z 18003MPS CAVOK M01/M12 Q1015 A2998 NOSIG;EQDQ01+000000PRSWM2
0103408560999992000030516004+29470+060880FM-15+1370OIZH V0200101N00401220001CN0099001N1+01101-00501999999ADDMA1101081999999MW1001REMMET051OIZH 1600Z 01004MPS CAVOK 11/M05 Q1011 A2986 NOSIG;EQDQ01+000000PRSWM2
0148408560999992000031007004+29470+060880FM-15+1370OIZH V0203501N005012200019N9999999N1+01801-00501999999ADDGF100991999999999999999999MA1101691999999MW1001REMMET054OIZH 0700Z 35005MPS 7000 SKC 18/M05 Q1017 A3006 NOSIG;EQDQ01+070002VODIS Q02+000000PRSWM2
0103408560999992000031117004+29470+060880FM-15+1370OIZH V0209999999999220001CN0099001N1+01201-01001999999ADDMA1101491999999MW1001REMMET051OIZH 1700Z 0,000MPS CAVOK 12/M10 Q1015 A3000 NOSIG;EQDQ01+000000PRSWM2
0157408560999992000031705004+29470+060880FM-15+1370OIZH V02099999999992200019N0099001N1+01101-00901999999ADDGF100991999999999999999999MA1102001999999MW1051REMMET063OIZH 0500Z 00000S 1300 HZ SKC 11/M09 Q1020 A3012 TEMPO HZ 1500;EQDQ01+000003PRSWM1Q02    003PRSWM1
0103408560999992000041107004+29470+060880FM-15+1370OIZH V0203501N00401220001CN0099001N1+03201-00201999999ADDMA1101591999999MW1001REMMET051OIZH 0700Z 35004MPS CAVOK 32/M02 Q1016 A3002 NOSIG;EQDQ01+000000PRSWM2
0103408560999992000041316004+29470+060880FM-15+1370OIZH V0203401N00601220001CN0099001N1+02601-00201999999ADDMA1101591999999MW1001REMMET051OIZH 1600Z 34006MPS CAVOK 26/M02 Q1016 A3003 NOSIG;EQDQ01+000000PRSWM2
0207408560999992000042103004+29470+060880SY-MT+1370OIZH V0209999C00001220001CN0100001N1+01801+00201100531ADDKA1999N+01461MA1101491086071MD1210151+9999MW1001REMSYN070AAXX  21031 40856 42960 /0000 10000 38607 40053 52015 90250 333 20146;MET052OIZH 210300Z 00000MPS CAVOK 18/02 Q1015 A2998 NOSIG;EQDQ01+000000PRSWM2
0176408560999992000042417004+29470+060880FM-15+1370OIZH V0203601N005012200019N0112651N1+02901+00501999999ADDGA1021+012009999GA2021+036009999GF104991999999999999999999MA1101391999999MW1001REMMET066OIZH 241700Z 36005MPS 9999 FEW040 SCT1200 29/05 Q1014 A2997 NOSIG;EQDQ01+000000PRSWM2
0243408560999992000042712004+29470+060880SY-MT+1370OIZH V0200401N008012200019N0100001N1+02901+00301100491ADDAA199000091GF100991001001999999001001MA1101491086141MD1610101+9999MW1001REMSYN066AAXX  27121 40856 32960 00408 10290 20030 38614 40049 56010 91150;MET052OIZH 271200Z 04008MPS CAVOK 29/03 Q1015 A3000 NOSIG;EQDQ01+000000PRSWM2Q02  00002PRCP99
0253408560999992000050918004+29470+060880SY-MT+1370OIZH V0202701N004012200019N0100001N1+03121+00561099821ADDAA199000091GF100991001001999999001001MA1101391085981MD1110141+9999MW1001REMSYN076AAXX  09181 40856 32960 02704 10312 20056 38598 49982 51014 91750 333 55120;MET052OIZH 091800Z 27004MPS CAVOK 31/06 Q1014 A2995 NOSIG;EQDQ01+000000PRSWM2Q02  00002PRCP99
0217408560999992000051421004+29470+060880SY-MT+1370OIZH V0201701N003012200019N0100001N1+01841-00781100421ADDGF100991001001999999001001MA1101491086081MD1810071+9999MW1001REMSYN066AAXX  14211 40856 42960 01703 10184 21078 38608 40042 58007 92050;MET053OIZH 142100Z 17003MPS CAVOK 18/M08 Q1015 A2998 NOSIG;EQDQ01+000000PRSWM2
0104408560999992000051701004+29470+060880FM-15+1370OIZH V0201301N00301220001CN0099001N1+02101+00501999999ADDMA1100911999999MW1001REMMET052OIZH 170100Z 13003MPS CAVOK 21/05 Q1009 A2981 NOSIG;EQDQ01+000000PRSWM2
0180408560999992000051814004+29470+060880FM-15+1370OIZH V0200401N006012200019N9999999N1+03201+00201999999ADDGA1021+010509099GA2021+012009999GF102991999999999999999999MA1100911999999MW1001REMMET070OIZH 181400Z 04006MPSA 9999 FEW035CB FEW040 32/02 Q1009 A2980 NOPSIG ;EQDQ01+000000PRSWM2
0183408560999992000051900004+29470+060880FM-12+1370OIZH V0201901N003012200019N0100001N1+01861+00141099951ADDAA199000091GA1001+999999999GF100991001001999999001001MA1999999085701MD1410001+9999REMSYN070AAXX  19001 40856 32960 01903 10186 20014 38570 49995 54000 92350 333;EQDQ01  00002PRCP99
0089408560999992000052207004+29470+060880FM-15+1370OIZH V02099999999992200019N0112651N1+99999+99999999999ADDMW1001REMMET052OIZH 220700Z 35007NPS CAVOK 33/04 Q1013 A2994 NOSIG;EQDQ01+000000PRSWM2
0253408560999992000053018004+29470+060880SY-MT+1370OIZH V0202201N002012200019N0100001N1+02761+00581099581ADDAA199000091GF100991001001999999001001MA1101021085661MD1210141+9999MW1001REMSYN076AAXX  30181 40856 32960 02202 10276 20058 38566 49958 52014 91750 333 55105;MET052OIZH 301800Z 22002MPS CAVOK 28/06 Q1010 A2984 NOSIG;EQDQ01+000000PRSWM2Q02  00002PRCP99
0152408560999992000060111004+29470+060880FM-15+1370OIZH V0202501N010012200019N0112651N1+03901+01301999999ADDGA1021+012009999GF102991999999999999999999MA1100711999999MW1001REMMET058OIZH 011100Z 25010MPS 9999 FEW040 39/13 Q1007 A2976 NOSIG;EQDQ01+000000PRSWM2
0104408560999992000060711004+29470+060880FM-15+1370OIZH V0200301N00601220001CN0099001N1+03401+00201999999ADDMA1100911999999MW1001REMMET052OIZH 071100Z 03006MPS CAVOK 34/02 Q1009 A2981 NOSIG;EQDQ01+000000PRSWM2
0104408560999992000061006004+29470+060880FM-15+1370OIZH V0200301N00501220001CN0099001N1+03101+00601999999ADDMA1101391999999MW1001REMMET052OIZH 100600Z 03005MPS CAVOK 31/06 Q1014 A2994 NOSIG;EQDQ01+000000PRSWM2
0213408560999992000061103004+29470+060880SY-MT+1370OIZH V0201101N011019999999Y0100001N1+02161+00121100241ADDKA1999N+01901MA1101391085981MD1210181+9999MW1001REMSYN076AAXX  11031 40856 42960 /1111 10216 20012 38598 40024 52018 90250 333 20190;MET052OIZH 110300Z 00000MPS CAVOK 22/01 Q1014 A2996 NOSIG;EQDQ01+000000PRSWM2
0105408560999992000061302004+29470+060880FM-15+1370OIZH V0202101N00301220001CN0099001N1+02701-00601999999ADDMA1100911999999MW1001REMMET053OIZH 130200Z 21003MPS CAVOK 27/M06 Q1009 A2981 NOSIG;EQDQ01+000000PRSWM2
0179408560999992000061800004+29470+060880FM-12+1370OIZH V0209999C000012200019N0100001N1+01601+00061100211ADDAA199000091GA1001+999999999GF100991001001999999001001MA1999999085881MD1610031+9999REMSYN066AAXX  18001 40856 32960 00000 10160 20006 38588 40021 56003 92350;EQDQ01  00002PRCP99
0104408560999992000061810004+29470+060880FM-15+1370OIZH V0203301N00901220001CN0099001N1+03201+00201999999ADDMA1101021999999MW1001REMMET052OIZH 181000Z 33009MPS CAVOK 32/02 Q1010 A2985 NOSIG;EQDQ01+000000PRSWM2
0090408560999992000062110004+29470+060880FM-15+1370OIZH V02099999999992200019N0099001N1+99999+99999999999ADDMW1001REMMET053OIZH 211000Z +6007MPS CAVOK 35/M08 Q1012 A2989 NOSIG;EQDQ01+000000PRSWM2
0201408560999992000062609004+29470+060880SY-MT+1370OIZH V0203401N005012200019N0100001N1+03921-00801099161ADDGF100991001001999999001001MA1100611085301MW1001REMSYN064AAXX  26091 40856 42960 03405 10392 2108/ 38530 49916 90850 333;MET053OIZH 260900Z 34005MPS CAVOK 39/M03 Q1006 A2972 NOSIG;EQDQ01+000000PRSWM2
0104408560999992000071305004+29470+060880FM-15+1370OIZH V0203601N00401220001CN0099001N1+03001+00701999999ADDMA1100911999999MW1001REMMET052OIZH 130500Z 36004MPS CAVOK 30/07 Q1009 A2981 NOSIG;EQDQ01+000000PRSWM2
0106408560999992000072610004+29470+060880FM-15+1370OIZH V0203301N00501220001CN0099001N1+03201-01501999999ADDMA1101191999999MW1001REMMET054OIZH 261000Z 33005MPS CAVOK 32/M15 Q1012 A2991 NOASIG;EQDQ01+000000PRSWM2
0104408560999992000080311004+29470+060880FM-15+1370OIZH V0203001N00501220001CN0099001N1+03601+00201999999ADDMA1100711999999MW1001REMMET052OIZH 031100Z 30005MPS CAVOK 36/02 Q1007 A2975 NOSIG;EQDQ01+000000PRSWM2
0104408560999992000080803004+29470+060880FM-15+1370OIZH V0209999C00001220001CN0099001N1+02301+00301999999ADDMA1101391999999MW1001REMMET052OIZH 080300Z 00000MPS CAVOK 23/03 Q1014 A2996 NOSIG;EQDQ01+000000PRSWM2
0248408560999992000081309004+29470+060880SY-MT+1370OIZH V0203601N007012200019N0100001N1+03461+00311100011ADDGA1031+060009019GF103991001001999999001021MA1101291085921MD1710171+9999MW1001REMSYN082AAXX  13091 40856 42960 33607 10346 20031 38592 40001 57017 80002 90850 333 83070;MET052OIZH 130900Z 36007MPS CAVOK 35/03 Q1013 A2993 NOSIG;EQDQ01+000000PRSWM2
0104408560999992000081410004+29470+060880FM-15+1370OIZH V0209999C00001220001CN0099001N1+03501+00201999999ADDMA1101081999999MW1001REMMET052OIZH 141000Z 00000MPS CAVOK 35/02 Q1011 A2988 NOSIG;EQDQ01+000000PRSWM2
0218408560999992000082009004+29470+060880SY-MT+1370OIZH V0203301N004012200019N0100001N1+03201+00391100271ADDGF100991001001999999001001MA1999999086001MD1710181+9999MW1001REMSYN066AAXX  20091 40856 42960 03304 10320 20039 38600 40027 57018 90850;MET054OIZH 200900Z 33004MPSD CAVOK 32/04 Q1014 A2995 NOSIGF;EQDQ01+000000PRSWM2
0127408560999992000082105004+29470+060880FM-15+1370OIZH V0209999C000012200019N0080001N1+02501+00201999999ADDGF100991999999999999999999MA1101491999999MW1001REMMET049OIZH 210500Z 00000MPS 8000 SKC 25/02 Q1015 A2998;EQDQ01+000000PRSWM2
0105408560999992000082214004+29470+060880FM-15+1370OIZH V0200201N00701220001CN0099001N1+03201+00001999999ADDMA1101081999999MW1001REMMET053OIZH 221400Z 02007MPS CAVOK 32/M00 Q1011 A2987 NOSIG;EQDQ01+000000PRSWM2
0105408560999992000082913004+29470+060880FM-15+1370OIZH V0202601N00801220001CN0099001N1+03601-00101999999ADDMA1100711999999MW1001REMMET053OIZH 291300Z 26008MPS CAVOK 36/M01 Q1007 A2974 NOSIG;EQDQ01+000000PRSWM2
0087408560999992000091504004+29470+060880FM-15+1370OIZH V02099999999992200019N0099001N1+99999+99999999999ADDMW1001REMMET050OIZH 150400Z 00000S CAVOK 23/02 Q1017 A3005 NOSIG;EQDQ01+000000PRSWM2
0273408560999992000092803004+29470+060880SY-MT+1370OIZH V0209999C000012200019N0100001N1+01601+00501101151ADDGA1021+012009999GF103991031011012501001001KA1120N+00921MA1102001086541MD1310101+9999MW1001REMSYN088AAXX  28031 40856 42660 30000 10160 20050 38654 40115 53010 83100 90250 333 20092 83840;MET058OIZH 280300Z 00000MPS 9999 SCT040 16/05 Q1020 A3014 NOSIG;EQDQ01+000000PRSWM2
0133408560999992000100217004+29470+060880FM-15+1370OIZH V0201701N002012200019N0080001N1+02201+00601999999ADDGF100991999999999999999999MA1101801999999MW1001REMMET055OIZH 021700Z 17002MPS 8000 SKC 22/06 Q1018 A3007 NOSIG;EQDQ01+000000PRSWM2
0104408560999992000100907004+29470+060880FM-15+1370OIZH V0203201N00401220001CN0099001N1+02401+00101999999ADDMA1101901999999MW1001REMMET052OIZH 090700Z 32004MPS CAVOK 24/01 Q1019 A3012 NOSIG;EQDQ01+000000PRSWM2
0184408560999992000101503004+29470+060880FM-12+1370OIZH V0209999C000012200019N0100001N1+01301-00171101341ADDGA1021+060009019GF102991001001999999001011KA1120N+01081MA1999999086581MD1210211+9999REMSYN088AAXX  15031 40856 42960 20000 10130 21017 38658 40134 52021 80001 90250 333 20108 82070;
0217408560999992000101809004+29470+060880SY-MT+1370OIZH V0201801N002012200019N0100001N1+03061-00731100831ADDGF100991001001999999001001MA1101691086271MD1710271+9999MW1001REMSYN066AAXX  18091 40856 42960 01802 10306 21073 38627 40083 57027 90850;MET053OIZH 180900Z 18002MPS CAVOK 31/M07 Q1017 A3004 NOSIG;EQDQ01+000000PRSWM2
0373408560999992000110918004+29470+060880SY-MT+1370OIZH V0209999C000010600019N0100001N1+01141-00361101921ADDAA199000091GA1021+010509999GA2021+030009999GA3071+060009999GF106991011041012501031061KA1120N+99999MA1102201086711MD1010021+9999MW1001REMSYN100AAXX  09181 40856 32660 60000 10114 21036 38671 40192 50002 81436 91750 333 21727 81640 83360 85270;MET071OIZH 091800Z 00000S 9999 FEW035 SCT100 BKN200 11/M04 Q1022 A3019 NOSIG;EQDQ01+000000PRSWM2Q02  00002PRCP99Q03 -07272ATMN  
0104408560999992000112519004+29470+060880FM-15+1370OIZH V0202401N00301220001CN0099001N1+01001+00201999999ADDMA1102201999999MW1001REMMET052OIZH 251900Z 24003MPS CAVOK 10/02 Q1022 A3018 NOSIG;EQDQ01+000000PRSWM2
0099408560999992000113014004+29470+060880FM-15+1370OIZH V0203401N00301220001CN0099001N1+01201-00701999999ADDMA1102711999999MW1001REMMET047OIZH 301400Z 34003MPS CAVOK 12/M07 Q1027 A3035;EQDQ01+000000PRSWM2
0294408560999992000120106004+29470+060880SY-MT+1370OIZH V0209999C000012200019N0100001N1+01301-01241102461ADDAA124000091GA1011+060009019GF101991001001999999001011MA1102711087181MD1110061+9999MW1001REMSYN100AAXX  01061 40856 32960 10000 10130 21124 38718 40246 51006 80001 90550 333 30105 50481 70000 81070;MET053OIZH 010600Z 00000MPS CAVOK 13/M12 Q1027 A3035 NOSIG;EQDQ01+000000PRSWM2Q02  00002PRCP24
0105408560999992000120120004+29470+060880FM-15+1370OIZH V0209999C00001220001CN0099001N1+00301-00801999999ADDMA1102101999999MW1001REMMET053OIZH 012000Z 00000MPS CAVOK 03/M08 Q1021 A3018 NOSIG;EQDQ01+000000PRSWM2
0189408560999992000120700004+29470+060880FM-12+1370OIZH V0202101N002012200019N0100001N1+00541-00111101761ADDAA199000091GA1011+030009079GF101991999999999999999999MA1999999086741MD1110391+9999REMSYN076AAXX  07001 40856 32960 12102 10054 21011 38674 40176 51039 92350 333 81360;EQDQ01  00002PRCP99
0105408560999992000120707004+29470+060880FM-15+1370OIZH V0201101N00401220001CN0099001N1+01401-00101999999ADDMA1102401999999MW1001REMMET053OIZH 070700Z 11004MPS CAVOK 14/M01 Q1024 A3025 NOSIG;EQDQ01+000000PRSWM2
0105408560999992000120814004+29470+060880FM-15+1370OIZH V0203501N00301220001CN0099001N1+01101+00001999999ADDMA1102101999999MW1001REMMET053OIZH 081400Z 35003MPS CAVOK 11/M00 Q1021 A3017 NOSIG;EQDQ01+000000PRSWM2
0090408560999992000121107004+29470+060880FM-15+1370OIZH V0201501N00701220001CN0099001N1+99999+99999999999ADDMW1001REMMET053OIZH 110700Z 15007MPS CCAVOK 13/00 Q1021 A3016 NOSIG;EQDQ01+000000PRSWM2
0105408560999992000121502004+29470+060880FM-15+1370OIZH V0201601N00601220001CN0099001N1+01101-00201999999ADDMA1101491999999MW1001REMMET053OIZH 150200Z 16006MPS CAVOK 11/M02 Q1015 A2999 NOSIG;EQDQ01+000000PRSWM2
