0374724650230652000061813003+39367-101700FM-15+1111GLD  V0202005N00675220005MN0144005N1+01115+00945101905ADDAA101000095GF100991999999999999999999GP10060007302008000002015007302008GQ100600786906899GR100600262913239MA1102075999999MW1001REMMET066KGLD 181256Z 20013KT 9SM CLR 11/09 A3014 RMK AO2 SLP190 T01110094;EQDQ01+000000PRSWM2N01 00000JPWTH 0QNNAA1D0 00000BA1 0 00000GA1U0 99999KA1D0 00049JA1 0 00094LA1 0 00900CA1 0 03014NA1 0 00000QA1 0 10190SA1D0 00052RA1 0 00111YA1 0 20013
0215724650230652000062923354+39360-101690FM-16+1124KGLD V0202101N010312200019N0160931N1+03001+01501999999ADDGD12991+0330019GF102991999999999999999999MA1100951999999MW1191OC101391REMMET098KGLD 292335Z 21020G27KT 10SM +FC FEW110 30/15 A2981 RMK TORNADO B33 N MOV E AO2 PK WND 20031/2320;EQDQ01+000003PRSWM1Q02    003PRSWM1
0395724650230652000070521003+39367-101700FM-15+1111GLD  V0209999V00155220005MN0160005N1+03785+01005100605ADDAA101000095GF100991999999999999999999GP10060090802008087902015012302008GQ100600268923829GR100601178913219MA1101195999999MD1810141+9999MW1001REMMET073KGLD 052056Z VRB03KT 10SM CLR 38/10 A2988 RMK AO2 SLP060 T03780100 58014;EQDQ01+000000PRSWM2N01 00000JPWTH 0QNNAA1D0 00000BA1 0 00000GA1U0 99999KA1D0 00050JA1 0 00100LA1 0 01000CA1 0 02988NA1 0 00000QA1 0 10060SA1D0 00100RA1 0 00378YA1 0 00003
0395724650230652000070815003+39367-101700FM-15+1111GLD  V0202105N00885220005MN0160005N1+02785+01335101045ADDAA101000095GF100991999999999999999999GP10060048802008071902015010002008GQ100600574908669GR100600711913219MA1101565999999MD1310021+9999MW1001REMMET073KGLD 081456Z 21017KT 10SM CLR 28/13 A2999 RMK AO2 SLP104 T02780133 53002;EQDQ01+000000PRSWM2N01 00000JPWTH 0QNNAA1D0 00000BA1 0 00000GA1U0 99999KA1D0 00056JA1 0 00133LA1 0 01000CA1 0 02999NA1 0 00000QA1 0 10104SA1D0 00082RA1 0 00278YA1 0 21017
0424724650230652000070821003+39367-101700FM-15+1111GLD  V0202105N01035220005MN0160005N1+03725+01005100675ADDAA101000095GF100991999999999999999999GP10060077302008055002015028302008GQ100600270923759GR100601176913219MA1101255999999MD1610201+9999MW1001OC101291REMMET094KGLD 082056Z 21020G25KT 10SM CLR 37/10 A2990 RMK AO2 PK WND 20027/2028 SLP067 T03720100 56020;EQDQ01+000000PRSWM2N01 00000JPWTH 0QNNAA1D0 00000BA1 0 00000GA1U0 99999KA1D0 00050JA1 0 00100LA1 0 01000CA1 0 02990NA1 0 00000QA1 0 10067SA1D0 00099RA1 0 00372YA1 0 21020
0358724650230652000071105003+39367-101700FM-15+1111GLD  V0201805N00315220005MN0160005N1+02005+01725100995ADDAA101000095GF100991999999999999999999GP10060000002000000002000000002000GR100600000900009MA1101465999999MW1001REMMET067KGLD 110456Z 18006KT 10SM CLR 20/17 A2996 RMK AO2 SLP099 T02000172;EQDQ01+000000PRSWM2N01 00000JPWTH 0QNNAA1D0 00000BA1 0 00000GA1U0 99999KA1D0 00063JA1 0 00172LA1 0 01000CA1 0 02996NA1 0 00000QA1 0 10099SA1D0 00068RA1 0 00200YA1 0 18006
0375724650230652000072314003+39367-101700FM-15+1111GLD  V0202305N00575220005MN0160005N1+02175+01445101935ADDAA101000095GF100991999999999999999999GP10060029102008063302015008002008GQ100600705907979GR100600440913249MA1102305999999MW1001REMMET067KGLD 231356Z 23011KT 10SM CLR 22/14 A3021 RMK AO2 SLP193 T02170144;EQDQ01+000000PRSWM2N01 00000JPWTH 0QNNAA1D0 00000BA1 0 00000GA1U0 99999KA1D0 00058JA1 0 00144LA1 0 01000CA1 0 03021NA1 0 00000QA1 0 10193SA1D0 00071RA1 0 00217YA1 0 23011
0395724650230652000072421003+39367-101700FM-15+1111GLD  V0202005N00365220005MN0160005N1+03505+01615100875ADDAA101000095GF100991999999999999999999GP10060087302008084302015013302008GQ100600287923319GR100601159913249MA1101395999999MD1610151+9999MW1001REMMET073KGLD 242056Z 20007KT 10SM CLR 35/16 A2994 RMK AO2 SLP087 T03500161 56015;EQDQ01+000000PRSWM2N01 00000JPWTH 0QNNAA1D0 00000BA1 0 00000GA1U0 99999KA1D0 00061JA1 0 00161LA1 0 01000CA1 0 02994NA1 0 00000QA1 0 10087SA1D0 00095RA1 0 00350YA1 0 20007
0395724650230652000080415003+39367-101700FM-15+1111GLD  V0201005N00525220005MN0160005N1+02505+01895101365ADDAA101000095GF100991999999999999999999GP10060031302008017302015022802008GQ100600606909159GR100600650913279MA1101795999999MD1010021+9999MW1001REMMET073KGLD 041456Z 10010KT 10SM CLR 25/19 A3006 RMK AO2 SLP136 T02500189 50002;EQDQ01+000000PRSWM2N01 00000JPWTH 0QNNAA1D0 00000BA1 0 00000GA1U0 99999KA1D0 00066JA1 0 00189LA1 0 01000CA1 0 03006NA1 0 00000QA1 0 10136SA1D0 00077RA1 0 00250YA1 0 10010
0375724650230652000080720003+39367-101700FM-15+1111GLD  V0202005N00725220005MN0160005N1+03395+01285100785ADDAA101000095GF100991999999999999999999GP10060092802008089302015011602008GQ100600249920179GR100601205913299MA1101325999999MW1001REMMET067KGLD 071956Z 20014KT 10SM CLR 34/13 A2992 RMK AO2 SLP078 T03390128;EQDQ01+000000PRSWM2N01 00000JPWTH 0QNNAA1D0 00000BA1 0 00000GA1U0 99999KA1D0 00055JA1 0 00128LA1 0 01000CA1 0 02992NA1 0 00000QA1 0 10078SA1D0 00093RA1 0 00339YA1 0 20014
0378724650230652000081209003+39367-101700FM-15+1111GLD  V0202005N00775220005MN0160005N1+02225+01285101025ADDAA101000095GF100991999999999999999999GP10060000002000000002000000002000GR100600000900009MA1101595999999MD1810071+9999MW1001REMMET073KGLD 120856Z 20015KT 10SM CLR 22/13 A3000 RMK AO2 SLP102 T02220128 58007;EQDQ01+000000PRSWM2N01 00000JPWTH 0QNNAA1D0 00000BA1 0 00000GA1U0 99999KA1D0 00055JA1 0 00128LA1 0 01000CA1 0 03000NA1 0 00000QA1 0 10102SA1D0 00072RA1 0 00222YA1 0 20015
0358724650230652000081505003+39367-101700FM-15+1111GLD  V0201805N00465220005MN0160005N1+02175+01445101255ADDAA101000095GF100991999999999999999999GP10060000002000000002000000002000GR100600000900009MA1101765999999MW1001REMMET067KGLD 150456Z 18009KT 10SM CLR 22/14 A3005 RMK AO2 SLP125 T02170144;EQDQ01+000000PRSWM2N01 00000JPWTH 0QNNAA1D0 00000BA1 0 00000GA1U0 99999KA1D0 00058JA1 0 00144LA1 0 01000CA1 0 03005NA1 0 00000QA1 0 10125SA1D0 00071RA1 0 00217YA1 0 18009
0464724650230652000081606003+39367-101700SY-MT+1111GLD  V0202205N00575220005MN0160005N1+02675+00895101555ADDAA101000095GA1001+999999999GD10995+9999999GF100991001001999999001001GP10060000002000000002000000002000GR100600000900009KA1240M+03501KA2240N+01671MA1102135089251MD1110081+9999REMSYN092AAXX  16064 72465 32966 02211 10267 20089 38925 40155 51008 90556 333 10350 20167 555 91606;EQDQ01  00002PRCP99Q02  00003PRCP99N01 00000JPWTH 0QNNAA1D0 00000BA1 0 00000GA1U0 99999KA1D0 00048JA1 0 00089LA1 0 01000CA1 0 03016NA1 0 00000QA1 0 10155SA1D0 00080RA1 0 00267YA1 0 22011
0200724650230652000082707374+39360-101690FM-16+1124KGLD V0201301N006710210019N0160931N1+01801+01701999999ADDGD13991+0210019GD23991+0330019GF107991999999999999999999MA1101461999999MW1611REMMET076KGLD 270737Z 13013KT 10SM -RA BKN075 BKN110 18/17 A2996 RMK AO2 TSE31 P0000;EQDQ01+000003PRSWM1Q02    003PRSWM1
0424724650230652000090101003+39367-101700FM-15+1111GLD  V0200905N00525220005MN0160005N1+02505+01445101205ADDAA101000095GD12995+0335359GF104991999999999999999999GP10060003102008000002015003102008GQ100600814927379GR100600200913429MA1101595999999MW1171MW2955REMMET079KGLD 010056Z 09010KT 10SM TS SCT110 25/14 A3000 RMK AO2 TSB44 SLP120 T02500144;EQDQ01+000003PRSWM1Q02    003PRSWM1N01 00010JPWTH 0QNNAA1D0 02110BA1 0 02110GA1U0 99999KA1D0 00058JA1 0 00144LA1 0 01000CA1 0 03000NA1 0 00010QA1 0 10120SA1D0 00077RA1 0 00250YA1 0 09010
0360724650230652000090205003+39367-101700FM-15+1111GLD  V0201505N00215220005MN0160005N1+01615+00835101085ADDAA101000095GF100991999999999999999999GP10060000002000000002000000002000GR100600000900009MA1101355999999MW1001REMMET069KGLD 020456Z 15004KT 10SM CLR 16/08 A2993 RMK AO2 SLP108 T01610083 $;EQDQ01+000000PRSWM2N01 00000JPWTH 0QNNAA1D0 00000BA1 0 00000GA1U0 99999KA1D0 00047JA1 0 00083LA1 0 01000CA1 0 02993NA1 0 00000QA1 0 10108SA1D0 00061RA1 0 00161YA1 0 15004
0205724650230652000090217564+39360-101690FM-15+1124KGLD V0203101N002612200019N0160931N1+02601+01401101301ADDGF100991999999999999999999KA1999M+02671KA2999N+01561MA1101691999999MD1110061+9999MW1001REMMET087KGLD 021756Z 31005KT 10SM CLR 26/14 A3003 RMK AO2 SLP130 T02610144 10267 20156 51006 $;EQDQ01+000000PRSWM2
0203724650230652000090723564+39360-101690FM-15+1124KGLD V0201201N005112200019N0160931N1+02601+00201101601ADDGF100991999999999999999999KA1999M+02671KA2999N+02281MA1101961999999MD1610151+9999MW1001REMMET085KGLD 072356Z 12010KT 10SM CLR 26/02 A3011 RMK AO2 SLP160 T02560022 10267 20228 56015;EQDQ01+000000PRSWM2
0358724650230652000091210003+39367-101700FM-15+1111GLD  V0201505N00315220005MN0160005N1+01285+00565101705ADDAA101000095GF100991999999999999999999GP10060000002000000002000000002000GR100600000900009MA1102075999999MW1001REMMET067KGLD 120956Z 15006KT 10SM CLR 13/06 A3014 RMK AO2 SLP170 T01280056;EQDQ01+000000PRSWM2N01 00000JPWTH 0QNNAA1D0 00000BA1 0 00000GA1U0 99999KA1D0 00042JA1 0 00056LA1 0 01000CA1 0 03014NA1 0 00000QA1 0 10170SA1D0 00055RA1 0 00128YA1 0 15006
0464724650230652000091506003+39367-101700SY-MT+1111GLD  V0201805N00365220005MN0160005N1+01225+00445102395ADDAA101000095GA1001+999999999GD10995+9999999GF100991001001999999001001GP10060000002000000002000000002000GR100600000900009KA1240M+02501KA2240N+01061MA1102715089771MD1110061+9999REMSYN092AAXX  15064 72465 32966 01807 10122 20044 38977 40239 51006 90556 333 10250 20106 555 91506;EQDQ01  00002PRCP99Q02  00003PRCP99N01 00000JPWTH 0QNNAA1D0 00000BA1 0 00000GA1U0 99999KA1D0 00040JA1 0 00044LA1 0 01000CA1 0 03033NA1 0 00000QA1 0 10239SA1D0 00054RA1 0 00122YA1 0 18007
0358724650230652000091511003+39367-101700FM-15+1111GLD  V0202005N00415220005MN0160005N1+01005+00335102265ADDAA101000095GF100991999999999999999999GP10060000002000000002000000002000GR100600000900009MA1102575999999MW1001REMMET067KGLD 151056Z 20008KT 10SM CLR 10/03 A3029 RMK AO2 SLP226 T01000033;EQDQ01+000000PRSWM2N01 00000JPWTH 0QNNAA1D0 00000BA1 0 00000GA1U0 99999KA1D0 00038JA1 0 00033LA1 0 01000CA1 0 03029NA1 0 00000QA1 0 10226SA1D0 00050RA1 0 00100YA1 0 20008
0393724650230652000091517003+39367-101700FM-15+1111GLD  V0202105N00885220005MN0160005N1+02395+00395102095ADDAA101000095GF100991999999999999999999GP10060065202008075202015014202008GQ100600474913259GR100600915913529MA1102405999999MW1001REMMET085KGLD 151656Z 21017KT 10SM CLR 24/04 A3024 RMK AO2 PK WND 20028/1629 SLP209 T02390039;EQDQ01+000000PRSWM2N01 00000JPWTH 0QNNAA1D0 00000BA1 0 00000GA1U0 99999KA1D0 00039JA1 0 00039LA1 0 01000CA1 0 03024NA1 0 00000QA1 0 10209SA1D0 00075RA1 0 00239YA1 0 21017
0411724650230652000092016003+39367-101700FM-15+1111GLD  V0203605N00935220005MN0160005N1+01115+00395101975ADDAA101000095GD11995+0088459GF102991999999999999999999GP10060049602008063202015016002008GQ100600580911969GR100600719913569MA1102135999999MW1001REMMET088KGLD 201556Z 36018KT 10SM FEW029 11/04 A3016 RMK AO2 PK WND 36027/1520 SLP197 T01110039;EQDQ01+000000PRSWM2N01 00000JPWTH 0QNNAA1D0 02029BA1 0 01029GA1U0 99999KA1D0 00039JA1 0 00039LA1 0 01000CA1 0 03016NA1 0 00000QA1 0 10197SA1D0 00052RA1 0 00111YA1 0 36018
0375724650230652000100101003+39367-101700FM-15+1111GLD  V0209999C00005220005MN0160005N1+02285+00445100775ADDAA101000095GF100991999999999999999999GP10060000002008000002015000002008GQ100600875926409GR100600029906489MA1101125999999MW1001REMMET067KGLD 010056Z 00000KT 10SM CLR 23/04 A2986 RMK AO2 SLP077 T02280044;EQDQ01+000000PRSWM2N01 00000JPWTH 0QNNAA1D0 00000BA1 0 00000GA1U0 99999KA1D0 00040JA1 0 00044LA1 0 01000CA1 0 02986NA1 0 00000QA1 0 10077SA1D0 00073RA1 0 00228YA1 0 00000
0244724650230652000100623564+39360-101690FM-15+1124KGLD V0202001N002110150019N0160931N1+00301-00201103271ADDGD12991+0087019GD24991+0150019GF108991999999999999999999KA1999M+00281KA2999N+00111MA1103081999999MD1310031+9999MW1001REMMET096KGLD 062356Z 20004KT 10SM SCT029 OVC050 03/M02 A3044 RMK AO2 SLP327 T00281017 10028 20011 53003;EQDQ01+000000PRSWM2
0396724650230652000100720003+39367-101700FM-15+1111GLD  V0200805N00315016765MN0160005N1+00725-00395103705ADDAA101000095GD14995+0167659GF108991999999999999999999GP10060031202008004802015027902008GQ100600471919909GR100600931913699MA1103565999999MW1001REMMET073KGLD 071956Z 08006KT 10SM OVC055 07/M04 A3058 RMK AO2 SLP370 T00721039 $;EQDQ01+000000PRSWM2N01 00000JPWTH 0QNNAA1D0 06055BA1 0 06055GA1 0 00055KA1D0 00025JA1 0-00039LA1 0 01000CA1 0 03058NA1 0 00000QA1 0 10370SA1D0 00045RA1 0 00072YA1 0 08006
0224724650230652000100923564+39360-101690FM-15+1124KGLD V0201801N009312200019N0160931N1+01101-00101102261ADDGF100991999999999999999999KA1999M+01501KA2999N+01111MA1102171999999MD1610121+9999MW1001REMMET106KGLD 092356Z 18018KT 10SM CLR 11/M01 A3017 RMK AO2 PK WND 19028/2259 SLP226 T01111006 10150 20111 56012 $;EQDQ01+000000PRSWM2
0203724650230652000101305564+39360-101690FM-15+1124KGLD V0202201N006712200019N0160931N1+01501+00801100891ADDGF100991999999999999999999KA1999M+02391KA2999N+01441MA1101251999999MD1310021+9999MW1001REMMET085KGLD 130556Z 22013KT 10SM CLR 15/08 A2990 RMK AO2 SLP089 T01500083 10239 20144 53002;EQDQ01+000000PRSWM2
0375724650230652000101617003+39367-101700FM-15+1111GLD  V0202605N00525220005MN0160005N1+01675+00835102015ADDAA101000095GF100991999999999999999999GP10060055602009077902021012302009GQ100600563914309GR100600763913779MA1102175999999MW1001REMMET067KGLD 161656Z 26010KT 10SM CLR 17/08 A3017 RMK AO2 SLP201 T01670083;EQDQ01+000000PRSWM2N01 00000JPWTH 0QNNAA1D0 00000BA1 0 00000GA1U0 99999KA1D0 00047JA1 0 00083LA1 0 01000CA1 0 03017NA1 0 00000QA1 0 10201SA1D0 00062RA1 0 00167YA1 0 26010
0174724650230652000102212434+39360-101690FM-16+1124KGLD V0201401N004110012019N0160931N1+01301+01301999999ADDGD14991+0012019GF108991999999999999999999MA1101461999999MW1611REMMET065KGLD 221243Z 14008KT 10SM -RA OVC004 13/13 A2996 RMK AO2 P0002 $;EQDQ01+000003PRSWM1Q02    003PRSWM1
0224724650230652000102407344+39360-101690FM-16+1124KGLD V0201101N003110180019N0064371N1+01201+01101999999ADDGD12991+0009019GD23991+0180019GD34991+0270019GF108991999999999999999999MA1102511999999MW1101MW2611REMMET079KGLD 240734Z 11006KT 4SM -RA BR FEW003 BKN065 OVC095 12/11 A3027 RMK AO2 P0001;EQDQ01+000003PRSWM1Q02    003PRSWM1
0504724650230652000102410003+39367-101700FM-15+1111GLD  V0201705N00465000915MN0080005N1+01335+01335102155ADDAA101001595GD13995+0009159GD23995+0021359GD34995+0036659GF108991999999999999999999GP10060000002000000002000000002000GR100600000900009MA1102305999999MW1101MW2455MW3615REMMET096KGLD 240956Z 17009KT 5SM -RA BR BKN003 BKN007 OVC012 13/13 A3021 RMK AO2 SLP215 P0006 T01330133;EQDQ01+000003PRSWM1Q02    003PRSWM1N01 02070JPWTH 0QNNAA1D0 04003BA1 0 04003AA1D0 04007BA1 0 04007AA1D0 06012BA1 0 06012GA1 0 00003KA1D0 00056JA1 0 00133LA1 0 00500CA1 0 03021NA1 0 02070QA1 0 10215SA1D0 00056RA1 0 00133YA1 0 17009
0146724650230652000102416254+39360-101690FM-15+1124KGLD V0201701N005112200019N0160931N1+01601+01301999999ADDGD12991+0018019GF104991999999999999999999MA1102201999999MW1001REMMET053KGLD 241625Z 17010KT 10SM SCT006 16/13 A3018 RMK AO2;EQDQ01+000000PRSWM2
0437724650230652000102423003+39367-101700FM-15+1111GLD  V0201805N00885220005MN0160005N1+01895+01395101445ADDAA101000095GD11995+0118959GD22995+0182959GF104991999999999999999999GP10060022002009055902021008102009GQ100600757924069GR100600342913839MA1101695999999MW1001REMMET077KGLD 242256Z 18017KT 10SM FEW039 SCT060 19/14 A3003 RMK AO2 SLP144 T01890139;EQDQ01+000000PRSWM2N01 00000JPWTH 0QNNAA1D0 02039BA1 0 01039AA1D0 02060BA1 0 02060GA1U0 99999KA1D0 00057JA1 0 00139LA1 0 01000CA1 0 03003NA1 0 00000QA1 0 10144SA1D0 00066RA1 0 00189YA1 0 18017
0882724650230652000103006596+39367-101693SOD  +1124KGLD V020999999999999999999999999999+99999+99999999999ADDAA124007495AJ100009599999999AL12400096AN1024000096AT1MW16RA  5AT2MW01FG  5AT3MW13BR  1GJ103455GK10545KA1240M+01565KA2240N+00615MG1088159999994OE11240134117023585OE22240111818023595OE33240048399999995REMSOD65224 HR PRECIPITATION (IN): 0.29 SNOW DEPTH (IN):0     24 HR SNOWFALL (IN):  .0 TOTAL SUNSHINE (MINUTES): 345 PERCENT POSSIBLE SUNSHINE: 54 24 HR MAX TEMP (F): 6024 HR MAX TEMP TIME (LST):1511 24 HR MIN TEMP (F): 4324 HR MIN TEMP TIME (LST):2126 AVERAGE STATION PRESSURE:26.03  PEAK WIND SPEED (MPH): 30 PEAK WIND DIR (DEG):170 PEAK WIND TIME (LST):2358  FASTEST 2MIN SPEED (MPH): 25FASTEST 2MIN DIR (DEG):180 FASTEST 2MIN TIME (LST):2359 AVERAGE WIND SPEED (MPH):10.8 24 HR AVG TEMP (F):52 HOURLY INCREMENTAL PRECIPITATION VALUES (IN):.00   T    T   .07  .07   T   .02  .12   T   .01  .00  .00  .00  .00  .00  .00  .00  .00  .00  .00  .00  .00  .00  .00EQDR01    .07ALS030
0358724650230652000103011003+39367-101700FM-15+1111GLD  V0202105N00525220005MN0160005N1+00785+00445101325ADDAA101000095GF100991999999999999999999GP10060000002000000002000000002000GR100600000900009MA1101465999999MW1001REMMET067KGLD 301056Z 21010KT 10SM CLR 08/04 A2996 RMK AO2 SLP132 T00780044;EQDQ01+000000PRSWM2N01 00000JPWTH 0QNNAA1D0 00000BA1 0 00000GA1U0 99999KA1D0 00040JA1 0 00044LA1 0 01000CA1 0 02996NA1 0 00000QA1 0 10132SA1D0 00046RA1 0 00078YA1 0 21010
0396724650230652000110315003+39367-101700FM-15+1111GLD  V0201405N00465220005MN0160005N1+00505-00395102755ADDAA101000095GF100991999999999999999999GP10060015502009041002021007102009GQ100600782912149GR100600285913919MA1102685999999MD1310091+9999MW1001REMMET074KGLD 031456Z 14009KT 10SM CLR 05/M04 A3032 RMK AO2 SLP275 T00501039 53009;EQDQ01+000000PRSWM2N01 00000JPWTH 0QNNAA1D0 00000BA1 0 00000GA1U0 99999KA1D0 00025JA1 0-00039LA1 0 01000CA1 0 03032NA1 0 00000QA1 0 10275SA1D0 00041RA1 0 00050YA1 0 14009
0224724650230652000110609424+39360-101690FM-16+1124KGLD V0203601N011810105019N0144841N1-00101-00401999999ADDGD12991+0054019GD24991+0105019GF108991999999999999999999MA1100371999999MW1711OC101491REMMET092KGLD 060942Z 36023G29KT 9SM -SN SCT018 OVC035 M01/M04 A2964 RMK AO2 PK WND 35029/0941 P0000;EQDQ01+000003PRSWM1Q02    003PRSWM1
001572465023065200011070659O+39367-101700SOD  +1111GLD  V020999999999999999999999999999+99999+99999999999ADDAT1MW18SN  5
0360724650230652000111002003+39367-101700FM-15+1111GLD  V0201405N00525220005MN0160005N1-00285-00895101455ADDAA101000095GF100991999999999999999999GP10060000002000000002000000002000GR100600000900009MA1101155999999MW1001REMMET069KGLD 100156Z 14010KT 10SM CLR M03/M09 A2987 RMK AO2 SLP145 T10281089;EQDQ01+000000PRSWM2N01 00000JPWTH 0QNNAA1D0 00000BA1 0 00000GA1U0 99999KA1D0 00016JA1 0-00089LA1 0 01000CA1 0 02987NA1 0 00000QA1 0 10145SA1D0 00027RA1 0-00028YA1 0 14010
0397724650230652000111415003+39367-101700FM-15+1111GLD  V0202405N00215220005MN0160005N1-00785-01285102655ADDAA101000095GF100991999999999999999999GP10060002902009000002021002902009GQ100600806912349GR100600229913989MA1102175999999MD1010041+9999MW1001REMMET075KGLD 141456Z 24004KT 10SM CLR M08/M13 A3017 RMK AO2 SLP265 T10781128 50004;EQDQ01+000000PRSWM2N01 00000JPWTH 0QNNAA1D0 00000BA1 0 00000GA1U0 99999KA1D0 00009JA1 0-00128LA1 0 01000CA1 0 03017NA1 0 00000QA1 0 10265SA1D0 00018RA1 0-00078YA1 0 24004
0378724650230652000111511003+39367-101700FM-15+1111GLD  V0203305N00265000915MN0160005N1-00785-00895100915ADDAA101000095GD14995+0009159GF108991999999999999999999GP10060000002000000002000000002000GR100600000900009MA1100615999999MW1001REMMET072KGLD 151056Z 33005KT 10SM OVC003 M08/M09 A2971 RMK AO2 SLP091 T10781089;EQDQ01+000000PRSWM2N01 00000JPWTH 0QNNAA1D0 06003BA1 0 06003GA1 0 00003KA1D0 00016JA1 0-00089LA1 0 01000CA1 0 02971NA1 0 00000QA1 0 10091SA1D0 00018RA1 0-00078YA1 0 33005
0376724650230652000111719003+39367-101700FM-15+1111GLD  V0200105N00775220005MN0160005N1+00065-00835102215ADDAA101000095GF100991999999999999999999GP10060046402009053502021018502009GQ100600587917959GR100600728914009MA1101865999999MW1001REMMET068KGLD 171856Z 01015KT 10SM CLR 01/M08 A3008 RMK AO2 SLP221 T00061083;EQDQ01+000000PRSWM2N01 00000JPWTH 0QNNAA1D0 00000BA1 0 00000GA1U0 99999KA1D0 00017JA1 0-00083LA1 0 01000CA1 0 03008NA1 0 00000QA1 0 10221SA1D0 00033RA1 0 00006YA1 0 01015
0377724650230652000111914003+39367-101700FM-15+1111GLD  V0203105N00525220005MN0160005N1-00445-00785102555ADDAA101000095GF100991999999999999999999GP10060000002009000002021000002009GQ100600882911719GR100600016905259MA1102205999999MW1001REMMET069KGLD 191356Z 31010KT 10SM CLR M04/M08 A3018 RMK AO2 SLP255 T10441078;EQDQ01+000000PRSWM2N01 00000JPWTH 0QNNAA1D0 00000BA1 0 00000GA1U0 99999KA1D0 00018JA1 0-00078LA1 0 01000CA1 0 03018NA1 0 00000QA1 0 10255SA1D0 00024RA1 0-00044YA1 0 31010
0360724650230652000112102003+39367-101700FM-15+1111GLD  V0202305N00365220005MN0160005N1-00335-00835103185ADDAA101000095GF100991999999999999999999GP10060000002000000002000000002000GR100600000900009MA1102815999999MW1001REMMET069KGLD 210156Z 23007KT 10SM CLR M03/M08 A3036 RMK AO2 SLP318 T10331083;EQDQ01+000000PRSWM2N01 00000JPWTH 0QNNAA1D0 00000BA1 0 00000GA1U0 99999KA1D0 00017JA1 0-00083LA1 0 01000CA1 0 03036NA1 0 00000QA1 0 10318SA1D0 00026RA1 0-00033YA1 0 23007
0362724650230652000112408003+39367-101700FM-15+1111GLD  V0202705N00365220005MN0160005N1-00505-00725102275ADDAA101000095GF100991999999999999999999GP10060000002000000002000000002000GR100600000900009MA1102075999999MW1001REMMET071KGLD 240756Z 27007KT 10SM CLR M05/M07 A3014 RMK AO2 SLP227 T10501072 $;EQDQ01+000000PRSWM2N01 00000JPWTH 0QNNAA1D0 00000BA1 0 00000GA1U0 99999KA1D0 00019JA1 0-00072LA1 0 01000CA1 0 03014NA1 0 00000QA1 0 10227SA1D0 00023RA1 0-00050YA1 0 27007
0376724650230652000112617003+39367-101700FM-15+1111GLD  V0203505N00625220005MN0160005N1+00675-00675101605ADDAA101000095GF100991999999999999999999GP10060040202009085502021006802009GQ100600671914869GR100600546914059MA1101465999999MW1001REMMET068KGLD 261656Z 35012KT 10SM CLR 07/M07 A2996 RMK AO2 SLP160 T00671067;EQDQ01+000000PRSWM2N01 00000JPWTH 0QNNAA1D0 00000BA1 0 00000GA1U0 99999KA1D0 00020JA1 0-00067LA1 0 01000CA1 0 02996NA1 0 00000QA1 0 10160SA1D0 00044RA1 0 00067YA1 0 35012
0205724650230652000112711564+39360-101690FM-15+1124KGLD V0203101N004112200019N0160931N1-00201-00401102161ADDGF100991999999999999999999KA1999M-00061KA2999N-00331MA1101931999999MD1310031+9999MW1001REMMET087KGLD 271156Z 31008KT 10SM CLR M02/M04 A3010 RMK AO2 SLP216 T10221039 11006 21033 53003;EQDQ01+000000PRSWM2
0177724650230652000120108484+39360-101690FM-16+1124KGLD V0200101N010312200019N0160931N1-00301-00701999999ADDGD12991+0087019GF104991999999999999999999MA1102441999999MW1001OC101291REMMET076KGLD 010848Z 01020G25KT 10SM SCT029 M03/M07 A3025 RMK AO2 PK WND 36026/0834;EQDQ01+000000PRSWM2
0374724650230652000121111564+39360-101690FM-15+1124KGLD V0200201N007710039019N0040231N1-01701-01901102511ADDAA101000021AA206000021GD12991+0030019GD23991+0039019GD34991+0180019GF108991999999999999999999KA1999M-01561KA2999N-01671MA1101831999999MD1310151+9999MW1101MW2711OC101181REMMET159KGLD 111156Z 02015G23KT 2 1/2SM -SN BR FEW010 BKN013 OVC060 M17/M19 A3007 RMK AO2 PK WND 01026/1107 VIS 1 1/4V5 SLP251 P0000 60000 T11671189 11156 21167 53015;EQDQ01+000003PRSWM1Q02    003PRSWM1
0204724650230652000121517564+39360-101690FM-15+1124KGLD V0200101N003612200019N0160931N1+00701-00501100651ADDGF100991999999999999999999KA1999M+00671KA2999N-00671MA1100581999999MD1610311+9999MW1001REMMET086KGLD 151756Z 01007KT 10SM CLR 07/M05 A2970 RMK AO2 SLP065 T00671050 10067 21067 56031;EQDQ01+000000PRSWM2
0396724650230652000122107003+39367-101700FM-15+1111GLD  V0203205N00525220005MN0160005N1-01005-01445102535ADDAA101000095GF100991999999999999999999GP10060000002000000002000000002000GR100600000900009KA1999M+01061KA2999N-01111MA1102175999999MW1001REMMET079KGLD 210656Z 32010KT 10SM CLR M10/M14 A3017 RMK AO2 SLP253 T11001144 401061111;EQDQ01+000000PRSWM2N01 00000JPWTH 0QNNAA1D0 00000BA1 0 00000GA1U0 99999KA1D0 00006JA1 0-00144LA1 0 01000CA1 0 03017NA1 0 00000QA1 0 10253SA1D0 00014RA1 0-00100YA1 0 32010
0160724650230652000122316464+39360-101690FM-16+1124KGLD V0209999999999002401CN0160931N1-00201-00401999999ADDGD13991+0027019GF107991999999999999999999MA1102401999999MW1001REMMET067KGLD 231646Z VRB03KT 10SM BKN009 M02/M04 A3024 RMK AO2 CIG 008V012;EQDQ01+000000PRSWM2
0186724650230652000122511044+39360-101690FM-16+1124KGLD V0201701N004610012019N0032181N1-01201-01301999999ADDGD14991+0012019GF108991999999999999999999MA1102471999999MW1101MW2561MW3731REMMET081KGLD 251104Z 17009KT 2SM -FZDZSN BR OVC004 M12/M13 A3026 RMK AO2 FZDZB1058 P0000;EQDQ01+000003PRSWM1
0186724650230652000122515154+39360-101690FM-16+1124KGLD V0201901N003110018019N0040231N1-01201-01301999999ADDGD14991+0018019GF108991999999999999999999MA1102681999999MW1101MW2711REMMET071KGLD 251515Z 19006KT 2 1/2SM -SN BR OVC006 M12/M13 A3032 RMK AO2 P0000;EQDQ01+000003PRSWM1Q02    003PRSWM1
0054724655939902000010311009+39383-099833NSRDB+066799999V020999999999999999999999999999+99999+99999999999ADDGP10060000002000000002000000002000GR100600000900009
0071724655939902000010415009+39383-099833NSRDB+066799999V020999999999999999999999999999+99999+99999999999ADDGP10060000002009000002021000002009GQ100600855912439GR100600107913809
0685724655939902000010705596+39376-099830SOD  +0677KHLC V020999999999999999999999999999+99999+99999999999ADDAA124000096KA1240M+00835KA2240N-00665MG1094519999994OE11240076029015335OE22240067128015415OE33240037199999995REMSOD54524 HR PRECIPITATION (IN): 0.00 24 HR MAX TEMP (F): 4724 HR MAX TEMP TIME (LST):1601 24 HR MIN TEMP (F): 2024 HR MIN TEMP TIME (LST):2344 AVERAGE STATION PRESSURE:27.91  PEAK WIND SPEED (MPH): 17 PEAK WIND DIR (DEG):290 PEAK WIND TIME (LST):1533  FASTEST 2MIN SPEED (MPH): 15FASTEST 2MIN DIR (DEG):280 FASTEST 2MIN TIME (LST):1541 AVERAGE WIND SPEED (MPH): 8.3 24 HR AVG TEMP (F):34 HOURLY INCREMENTAL PRECIPITATION VALUES (IN):.00  .00  .00  .00  .00  .00  .00  .00  .00  .00  .00  .00  .00  .00  .00  .00  .00  .00  .00  .00  .00  .00  .00  .00EQDR01  0.007AAP092
0071724655939902000011414009+39383-099833NSRDB+066799999V020999999999999999999999999999+99999+99999999999ADDGP10060000002000000002000000002000GQ100600900911769GR100600000900129
0151724655939902000011500534+39380-099830FM-15+0678KHLC V0201801N004112200019N0160931N1+00901-00701102261ADDGF100991999999999999999999MA1102171999999MW1001REMMET073KHLC 150053Z AUTO 18008KT 10SM CLR 09/M07 A3017 RMK AO2 SLP226 T00941067;EQDQ01+000000PRSWM2
0663724655939902000011605596+39376-099830SOD  +0677KHLC V020999999999999999999999999999+99999+99999999999ADDAA124000096KA1240M+02115KA2240N-00435MG1093679999994OE11240071531008365OE22240058131008375OE33240021599999995REMSOD52324 HR PRECIPITATION (IN): 0.00 24 HR MAX TEMP (F): 7024 HR MAX TEMP TIME (LST):1521 24 HR MIN TEMP (F): 2424 HR MIN TEMP TIME (LST):0815 AVERAGE STATION PRESSURE:27.66  PEAK WIND SPEED (MPH): 16 PEAK WIND DIR (DEG):310 PEAK WIND TIME (LST):0836  FASTEST 2MIN SPEED (MPH): 13FASTEST 2MIN DIR (DEG):310 FASTEST 2MIN TIME (LST):0837 AVERAGE WIND SPEED (MPH): 4.8 HOURLY INCREMENTAL PRECIPITATION VALUES (IN):.00  .00  .00  .00  .00  .00  .00  .00  .00  .00  .00  .00  .00  .00  .00  .00  .00  .00  .00  .00  .00  .00  .00  .00EQDR01  0.007AAP092
0054724655939902000011610009+39383-099833NSRDB+066799999V020999999999999999999999999999+99999+99999999999ADDGP10060000002000000002000000002000GR100600000900009
0071724655939902000011814009+39383-099833NSRDB+066799999V020999999999999999999999999999+99999+99999999999ADDGP10060000002008000002015000002008GQ100600898911679GR100600000900359
0685724655939902000011905596+39376-099830SOD  +0677KHLC V020999999999999999999999999999+99999+99999999999ADDAA124000096KA1240M+01115KA2240N-00165MG1094079999994OE11240089410012595OE22240076008012145OE33240027399999995REMSOD54524 HR PRECIPITATION (IN): 0.00 24 HR MAX TEMP (F): 5224 HR MAX TEMP TIME (LST):1434 24 HR MIN TEMP (F): 2924 HR MIN TEMP TIME (LST):0836 AVERAGE STATION PRESSURE:27.78  PEAK WIND SPEED (MPH): 20 PEAK WIND DIR (DEG):100 PEAK WIND TIME (LST):1259  FASTEST 2MIN SPEED (MPH): 17FASTEST 2MIN DIR (DEG):080 FASTEST 2MIN TIME (LST):1214 AVERAGE WIND SPEED (MPH): 6.1 24 HR AVG TEMP (F):41 HOURLY INCREMENTAL PRECIPITATION VALUES (IN):.00  .00  .00  .00  .00  .00  .00  .00  .00  .00  .00  .00  .00  .00  .00  .00  .00  .00  .00  .00  .00  .00  .00  .00EQDR01  0.007AAP092
0172724655939902000012008534+39380-099830FM-15+0678KHLC V0209999C000012200019N0160931N1-01101-01301102911ADDGF100991999999999999999999MA1102711999999MD1510021+9999MW1001REMMET080KHLC 200853Z AUTO 00000KT 10SM CLR M11/M13 A3033 RMK AO2 SLP291 T11111133 55002;EQDQ01+000000PRSWM2
0054724655939902000012108009+39383-099833NSRDB+066799999V020999999999999999999999999999+99999+99999999999ADDGP10060000002000000002000000002000GR100600000900009
0153724655939902000012116534+39380-099830FM-15+0678KHLC V0201701N003612200019N0160931N1+00201-00801101531ADDGF100991999999999999999999MA1101351999999MW1001REMMET075KHLC 211653Z AUTO 17007KT 10SM CLR 02/M08 A2993 RMK AO2 SLP153 T00171078 $;EQDQ01+000000PRSWM2
0054724655939902000012311009+39383-099833NSRDB+066799999V020999999999999999999999999999+99999+99999999999ADDGP10060000002000000002000000002000GR100600000900009
0169724655939902000012716534+39380-099830FM-15+0678KHLC V0201301N003610036019N0112651N1-00501-00801102801ADDGD14991+0036019GF108991999999999999999999MA1102511999999MW1001REMMET076KHLC 271653Z AUTO 13007KT 7SM OVC012 M05/M08 A3027 RMK AO2 SLP280 T10501078;EQDQ01+000000PRSWM2
0071724655939902000012721009+39383-099833NSRDB+066799999V020999999999999999999999999999+99999+99999999999ADDGP10060045602008079402015008602008GQ100600623920639GR100600656914119
0054724655939902000012807009+39383-099833NSRDB+066799999V020999999999999999999999999999+99999+99999999999ADDGP10060000002000000002000000002000GR100600000900009
0054724655939902000013012009+39383-099833NSRDB+066799999V020999999999999999999999999999+99999+99999999999ADDGP10060000002000000002000000002000GR100600000900009
0190724655939902000013020534+39380-099830FM-15+0678KHLC V0202501N002610066019N0160931N1-00201-00701102651ADDGD14991+0066019GF108991999999999999999999MA1102401999999MD1610291+9999MW1001REMMET083KHLC 302053Z AUTO 25005KT 10SM OVC022 M02/M07 A3024 RMK AO2 SLP265 T10221067 56029;EQDQ01+000000PRSWM2
0188724655939902000013115534+39380-099830FM-15+0678KHLC V0202401N003610021019N0064371N1-00301-00501102271ADDGD14991+0021019GF108991999999999999999999MA1102001999999MW1101REMMET079KHLC 311553Z AUTO 24007KT 4SM BR OVC007 M03/M05 A3012 RMK AO2 SLP227 T10281050;EQDQ01+000003PRSWM1Q02    003PRSWM1
0152724655939902000020101534+39380-099830FM-15+0678KHLC V0200301N001512200019N0160931N1-00101-00401102141ADDGF100991999999999999999999MA1101931999999MW1001REMMET074KHLC 010153Z AUTO 03003KT 10SM CLR M01/M04 A3010 RMK AO2 SLP214 T10061044;EQDQ01+000000PRSWM2
0151724655939902000020122534+39380-099830FM-15+0678KHLC V0201701N003612200019N0160931N1+00101-00401103021ADDGF100991999999999999999999MA1102741999999MW1001REMMET073KHLC 012253Z AUTO 17007KT 10SM CLR 01/M04 A3034 RMK AO2 SLP302 T00061044;EQDQ01+000000PRSWM2
0054724655939902000020213009+39383-099833NSRDB+066799999V020999999999999999999999999999+99999+99999999999ADDGP10060000002000000002000000002000GR100600000900009
0054724655939902000020311009+39383-099833NSRDB+066799999V020999999999999999999999999999+99999+99999999999ADDGP10060000002000000002000000002000GR100600000900009
0180724655939902000020322534+39380-099830FM-15+0678KHLC V0203401N009312200019N0160931N1+00901-00501102511ADDGF100991999999999999999999MA1102401999999MW1001OC101341REMMET094KHLC 032253Z AUTO 34018G26KT 10SM CLR 09/M05 A3024 RMK AO2 PK WND 33026/2250 SLP251 T00941050;EQDQ01+000000PRSWM2
0152724655939902000020407534+39380-099830FM-15+0678KHLC V0203201N006712200019N0160931N1-00101-00801103121ADDGF100991999999999999999999MA1103011999999MW1001REMMET074KHLC 040753Z AUTO 32013KT 10SM CLR M01/M08 A3042 RMK AO2 SLP312 T10111083;EQDQ01+000000PRSWM2
0071724655939902000021317009+39383-099833NSRDB+066799999V020999999999999999999999999999+99999+99999999999ADDGP10060014402008000002015014402008GQ100600626914019GR100600646914039
0054724655939902000021404009+39383-099833NSRDB+066799999V020999999999999999999999999999+99999+99999999999ADDGP10060000002000000002000000002000GR100600000900009
0151724655939902000021418534+39380-099830FM-15+0678KHLC V0201901N006712200019N0160931N1+01201-00201101261ADDGF100991999999999999999999MA1101121999999MW1001REMMET073KHLC 141853Z AUTO 19013KT 10SM CLR 12/M02 A2986 RMK AO2 SLP126 T01171022;EQDQ01+000000PRSWM2
0162724655939902000021506534+39380-099830FM-15+0678KHLC V0209999V003112200019N0160931N1+00801-00201100611ADDGF100991999999999999999999MA1100641999999MW1001OC100721REMMET076KHLC 150653Z AUTO VRB06G14KT 10SM CLR 08/M02 A2972 RMK AO2 SLP061 T00781022;EQDQ01+000000PRSWM2
0071724655939902000022514009+39383-099833NSRDB+066799999V020999999999999999999999999999+99999+99999999999ADDGP10060000802008019402015000202008GQ100600865910479GR100600056909199
0151724655939902000022716534+39380-099830FM-15+0678KHLC V0202101N005712200019N0160931N1+01101-00601102451ADDGF100991999999999999999999MA1102341999999MW1001REMMET073KHLC 271653Z AUTO 21011KT 10SM CLR 11/M06 A3022 RMK AO2 SLP245 T01111056;EQDQ01+000000PRSWM2
0054724655939902000022913009+39383-099833NSRDB+066799999V020999999999999999999999999999+99999+99999999999ADDGP10060000002000000002000000002000GR100600000900009
1233724655939902000030105596+39376-099830SOM  +0677KHLC V020999999999999999999999999999+99999+99999999999ADDAB10019396AD10019392929999999996AE1016016999036AH1005001092913065AH2010002092913065AH3015002892913035AH4020003892913035AH5030005192913135AH6045006492913205AI1060007492913205AI2080008692913255AI3100009792913255AI4120011792913205AI5150013292913405AI6180015092913335KB1696N-00395KB2696M+14395KB3696A+07005KD1696H02827KD2696C00005KE1016005085005MH1093464102104MK1103151922405099192509545REMSOM723PCP MTOT: 0.76 DEPNRM: 0.00 PCP GT 24HRS: 0.76 DATE(S):29 DAYS W/PCP >=.01: 1 DAYS W/PCP >=.10: 1 DAYS W/PCP >=1.00:  MSDP AMTS W/DATE-TIME TAGS:MIN:5  .04  29/1306 MIN:10  .08  29/1306 MIN:15  .11  29/1303 MIN:20  .15  29/1303 MIN:30  .20  29/1313 MIN:45  .25  29/1320 MIN:60  .29  29/1320 MIN:80  .34  29/1325 MIN:100  .38  29/1325 MIN:120  .46  29/1320 MIN:150  .52  29/1340 MIN:180  .59  29/1333 SN GT DP ON GRND:0 DATE(S):0  AVG DLY MIN: 31.3 AVG DLY MAX: 57.9 AVG MLY TMP: 44.6 DAYS MAX <=32:  DAYS MAX >=70: 0 DAYS MAX >=90: 0 DAYS MIN <=32: 8 DAYS MIN  <=0: 0 AVG STP:27.60  AVG SLP:30.15  LWST SLP:29.29 DATE/TIME:250954 HGST SLP:30.46 DATE/TIME:192240 HDD MTH TOT: 282 DEP NORM:-255 CDD MTH TOT:   0 DEP NORM:-255EQDR01  0.767ABP070R02  0.767ADP081R03     17AE1100R04      7AE2103R05     37AE4109R06   2827KDH015R07     17KE1032
0150724655939902000030707534+39380-099830FM-15+0678KHLC V0201901N004112200019N0160931N1+01401+01201101011ADDGF100991999999999999999999MA1101151999999MW1001REMMET072KHLC 070753Z AUTO 19008KT 10SM CLR 14/12 A2987 RMK AO2 SLP101 T01390122;EQDQ01+000000PRSWM2
0189724655939902000030713534+39380-099830FM-15+0678KHLC V0201501N003110039019N0112651N1+01401+01301101081ADDGD13991+0039019GD24991+0066019GF108991999999999999999999MA1101191999999MW1001REMMET081KHLC 071353Z AUTO 15006KT 7SM BKN013 OVC022 14/13 A2988 RMK AO2 SLP108 T01440128;EQDQ01+000000PRSWM2
0187724655939902000030714534+39380-099830FM-15+0678KHLC V0201601N004610027019N0112651N1+01601+01301101081ADDGD14991+0027019GF108991999999999999999999MA1101191999999MD1010031+9999MW1001REMMET080KHLC 071453Z AUTO 16009KT 7SM OVC009 16/13 A2988 RMK AO2 SLP108 T01560133 50003;EQDQ01+000000PRSWM2
0192724655939902000031016534+39380-099830FM-15+0678KHLC V0200701N004110132019N0160931N1-00101-00301102391ADDGD12991+0039019GD24991+0132019GF108991999999999999999999MA1102201999999MW1001REMMET084KHLC 101653Z AUTO 07008KT 10SM SCT013 OVC044 M01/M03 A3018 RMK AO2 SLP239 T10061033;EQDQ01+000000PRSWM2
0054724655939902000031104009+39383-099833NSRDB+066799999V020999999999999999999999999999+99999+99999999999ADDGP10060000002000000002000000002000GR100600000900009
0071724655939902000031122009+39383-099833NSRDB+066799999V020999999999999999999999999999+99999+99999999999ADDGP10060055902008085702015008602008GQ100600565923059GR100600763913859
0054724655939902000031211009+39383-099833NSRDB+066799999V020999999999999999999999999999+99999+99999999999ADDGP10060000002000000002000000002000GR100600000900009
0220724655939902000031305534+39380-099830FM-15+0678KHLC V0200301N003112200019N0160931N1-00201-00401102381ADDGF100991999999999999999999KA1999M+01001KA2999N-00171MA1102271999999MD1110091+9999MW1001REMMET102KHLC 130553Z AUTO 03006KT 10SM CLR M02/M04 A3020 RMK AO2 SLP238 T10171039 10100 21017 401171017 51009;EQDQ01+000000PRSWM2
0170724655939902000031402534+39380-099830FM-15+0678KHLC V0201701N003612200019N0160931N1+00701+00101101931ADDGF100991999999999999999999MA1101831999999MD1110061+9999MW1001REMMET078KHLC 140253Z AUTO 17007KT 10SM CLR 07/01 A3007 RMK AO2 SLP193 T00720011 51006;EQDQ01+000000PRSWM2
0150724655939902000031418534+39380-099830FM-15+0678KHLC V0209999V002112200019N0160931N1+01301+00401101561ADDGF100991999999999999999999MA1101561999999MW1001REMMET072KHLC 141853Z AUTO VRB04KT 10SM CLR 13/04 A2999 RMK AO2 SLP156 T01280039;EQDQ01+000000PRSWM2
0071724655939902000031421009+39383-099833NSRDB+066799999V020999999999999999999999999999+99999+99999999999ADDGP10060071202008078102015018602008GQ100600477921539GR100600929913839
0071724655939902000031718009+39383-099833NSRDB+066799999V020999999999999999999999999999+99999+99999999999ADDGP10060044602008013302015035102008GQ100600443915179GR100600988913809
0054724655939902000032008009+39383-099833NSRDB+066799999V020999999999999999999999999999+99999+99999999999ADDGP10060000002000000002000000002000GR100600000900009
0244724655939902000032111534+39380-099830FM-15+0678KHLC V0200401N005110024019N0080461N1+00201+00101102101ADDGD14991+0024019GF108991999999999999999999KA1999M+00391KA2999N+00221MA1102031999999MD1310171+9999MW1101REMMET095KHLC 211153Z AUTO 04010KT 5SM BR OVC008 02/01 A3013 RMK AO2 SLP210 T00220011 10039 20022 53017;EQDQ01+000003PRSWM1Q02    003PRSWM1
0150724655939902000032521534+39380-099830FM-15+0678KHLC V0209999V002612200019N0160931N1+01901+00601101811ADDGF100991999999999999999999MA1101831999999MW1001REMMET072KHLC 252153Z AUTO VRB05KT 10SM CLR 19/06 A3007 RMK AO2 SLP181 T01940061;EQDQ01+000000PRSWM2
0071724655939902000032522009+39383-099833NSRDB+066799999V020999999999999999999999999999+99999+99999999999ADDGP10060062402008087002015009702008GQ100600528923579GR100600830913749
0054724655939902000032607009+39383-099833NSRDB+066799999V020999999999999999999999999999+99999+99999999999ADDGP10060000002000000002000000002000GR100600000900009
0151724655939902000032722534+39380-099830FM-15+0678KHLC V0203001N007712200019N0160931N1+02201-00201100311ADDGF100991999999999999999999MA1100371999999MW1001REMMET073KHLC 272253Z AUTO 30015KT 10SM CLR 22/M02 A2964 RMK AO2 SLP031 T02221022;EQDQ01+000000PRSWM2
0071724655939902000032813009+39383-099833NSRDB+066799999V020999999999999999999999999999+99999+99999999999ADDGP10060000002008000002015000002008GQ100600875908779GR100600030906749
0071724655939902000032823009+39383-099833NSRDB+066799999V020999999999999999999999999999+99999+99999999999ADDGP10060043502008056702015017202008GQ100600624924989GR100600635913719
0071724655939902000033017009+39383-099833NSRDB+066799999V020999999999999999999999999999+99999+99999999999ADDGP10060072802008088502015011802008GQ100600466913109GR100600941913709
0168724655939902000033115534+39380-099830FM-15+0678KHLC V0200101N007710300019N0160931N1+00801+00201102511ADDGD13991+0300019GF107991999999999999999999MA1102441999999MW1001REMMET075KHLC 311553Z AUTO 01015KT 10SM BKN100 08/02 A3025 RMK AO2 SLP251 T00780017;EQDQ01+000000PRSWM2
0054724655939902000040305009+39383-099833NSRDB+066799999V020999999999999999999999999999+99999+99999999999ADDGP10060000002000000002000000002000GR100600000900009
0054724655939902000040309009+39383-099833NSRDB+066799999V020999999999999999999999999999+99999+99999999999ADDGP10060000002000000002000000002000GR100600000900009
0054724655939902000040412009+39383-099833NSRDB+066799999V020999999999999999999999999999+99999+99999999999ADDGP10060000002000000002000000002000GR100600000900009
0054724655939902000040607009+39383-099833NSRDB+066799999V020999999999999999999999999999+99999+99999999999ADDGP10060000002000000002000000002000GR100600000900009
0151724655939902000040807534+39380-099830FM-15+0678KHLC V0202501N002612200019N0160931N1-00201-00601999999ADDGF100991999999999999999999MA1103151999999MW1001REMMET073KHLC 080753Z AUTO 25005KT 10SM CLR M02/M06 A3046 RMK AO2 SLPNO T10221061;EQDQ01+000000PRSWM2
0071724655939902000041314009+39383-099833NSRDB+066799999V020999999999999999999999999999+99999+99999999999ADDGP10060024202008055502015009302008GQ100600744909079GR100600365913599
0054724655939902000041507009+39383-099833NSRDB+066799999V020999999999999999999999999999+99999+99999999999ADDGP10060000002000000002000000002000GR100600000900009
0071724655939902000042000009+39383-099833NSRDB+066799999V020999999999999999999999999999+99999+99999999999ADDGP10060030302008063002015008302008GQ100600695926839GR100600473913549
0172724655939902000042108534+39380-099830FM-15+0678KHLC V0202601N002112200019N0160931N1-00201-00401102431ADDGF100991999999999999999999MA1102371999999MD1110011+9999MW1001REMMET080KHLC 210853Z AUTO 26004KT 10SM CLR M02/M04 A3023 RMK AO2 SLP243 T10171039 51001;EQDQ01+000000PRSWM2
0071724655939902000042717009+39383-099833NSRDB+066799999V020999999999999999999999999999+99999+99999999999ADDGP10060083902008088302015014002008GQ100600377912369GR100601065913489
0071724655939902000050423009+39383-099833NSRDB+066799999V020999999999999999999999999999+99999+99999999999ADDGP10060054402008077202015010802008GQ100600556926289GR100600758913439
0071724655939902000050720009+39383-099833NSRDB+066799999V020999999999999999999999999999+99999+99999999999ADDGP10060061602008021602015042102008GQ100600255921129GR100601210913419
0054724655939902000050806009+39383-099833NSRDB+066799999V020999999999999999999999999999+99999+99999999999ADDGP10060000002000000002000000002000GR100600000900009
0054724655939902000051207009+39383-099833NSRDB+066799999V020999999999999999999999999999+99999+99999999999ADDGP10060000002000000002000000002000GR100600000900009
0071724655939902000051223009+39383-099833NSRDB+066799999V020999999999999999999999999999+99999+99999999999ADDGP10060053002008065502015014802008GQ100600544926509GR100600778913389
0204724655939902000051809534+39380-099830FM-15+0678KHLC V0202901N009310099019N0160931N1+01201+00801100141ADDGD13991+0099019GF107991999999999999999999MA1100341999999MW1001OC101231REMMET103KHLC 180953Z AUTO 29018G24KT 10SM BKN033 12/08 A2963 RMK AO2 PK WND 29026/0931 PRESRR SLP014 T01170083;EQDQ01+000000PRSWM2
0150724655939902000052816534+39380-099830FM-15+0678KHLC V0201901N005712200019N0160931N1+02801+01401101221ADDGF100991999999999999999999MA1101391999999MW1001REMMET072KHLC 281653Z AUTO 19011KT 10SM CLR 28/14 A2994 RMK AO2 SLP122 T02830139;EQDQ01+000000PRSWM2
0071724655939902000052902009+39383-099833NSRDB+066799999V020999999999999999999999999999+99999+99999999999ADDGP10060002402008006502015001902008GQ100600855929479GR100600098912529
0071724655939902000052912009+39383-099833NSRDB+066799999V020999999999999999999999999999+99999+99999999999ADDGP10060000602008006002015000402008GQ100600866906439GR100600056909429
0071724655939902000052918009+39383-099833NSRDB+066799999V020999999999999999999999999999+99999+99999999999ADDGP10060095402008084902015017102008GQ100600228913699GR100601224913299
0168724655939902000052922534+39380-099830FM-15+0678KHLC V0201701N006712200019N0160931N1+03601+01401100141ADDGF100991999999999999999999MA1100441999999MW1001REMMET090KHLC 292253Z AUTO 17013KT 10SM CLR 36/14 A2966 RMK AO2 PK WND 19026/2206 SLP014 T03560139;EQDQ01+000000PRSWM2
0071724655939902000053016009+39383-099833NSRDB+066799999V020999999999999999999999999999+99999+99999999999ADDGP10060070102008074602015015802008GQ100600433909989GR100600966913299
0071724655939902000053115009+39383-099833NSRDB+066799999V020999999999999999999999999999+99999+99999999999ADDGP10060025102008001802015024002008GQ100600547908939GR100600765913289
0170724655939902000060220534+39380-099830FM-15+0678KHLC V0200601N004112200019N0160931N1+02401+00601102401ADDGF100991999999999999999999MA1102541999999MD1810181+9999MW1001REMMET078KHLC 022053Z AUTO 06008KT 10SM CLR 24/06 A3028 RMK AO2 SLP240 T02440056 58018;EQDQ01+000000PRSWM2
0188724655939902000060314534+39380-099830FM-15+0678KHLC V0201701N005710078019N0160931N1+02001+01401102031ADDGD14991+0078019GF108991999999999999999999MA1102201999999MD1810051+9999MW1001REMMET081KHLC 031453Z AUTO 17011KT 10SM OVC026 20/14 A3018 RMK AO2 SLP203 T02000139 58005;EQDQ01+000000PRSWM2
0170724655939902000060902534+39380-099830FM-15+0678KHLC V0201501N006212200019N0160931N1+02601+01001100541ADDGF100991999999999999999999MA1100811999999MD1310041+9999MW1001REMMET078KHLC 090253Z AUTO 15012KT 10SM CLR 26/10 A2977 RMK AO2 SLP054 T02560100 53004;EQDQ01+000000PRSWM2
0071724655939902000061220009+39383-099833NSRDB+066799999V020999999999999999999999999999+99999+99999999999ADDGP10060095002008084502015015302008GQ100600197921649GR100601246913249
0054724655939902000061404009+39383-099833NSRDB+066799999V020999999999999999999999999999+99999+99999999999ADDGP10060000002000000002000000002000GR100600000900009
0054724655939902000061410009+39383-099833NSRDB+066799999V020999999999999999999999999999+99999+99999999999ADDGP10060000002000000002000000002000GR100600000900009
0772724655939902000061605596+39376-099830SOD  +0677KHLC V020999999999999999999999999999+99999+99999999999ADDAA124000096AT1MW08HZ  1GJ100005GK10005KA1240M+03895KA2240N+01335MG1092459999994OE11240192234019445OE22240165435019445OE33240058699999995REMSOD60524 HR PRECIPITATION (IN): 0.00 TOTAL SUNSHINE (MINUTES):   0 PERCENT POSSIBLE SUNSHINE:  0 24 HR MAX TEMP (F):10224 HR MAX TEMP TIME (LST):1658 24 HR MIN TEMP (F): 5624 HR MIN TEMP TIME (LST):0007 AVERAGE STATION PRESSURE:27.30  PEAK WIND SPEED (MPH): 43 PEAK WIND DIR (DEG):340 PEAK WIND TIME (LST):1944  FASTEST 2MIN SPEED (MPH): 37FASTEST 2MIN DIR (DEG):350 FASTEST 2MIN TIME (LST):1944 AVERAGE WIND SPEED (MPH):13.1 24 HR AVG TEMP (F):79 HOURLY INCREMENTAL PRECIPITATION VALUES (IN):.00  .00  .00  .00  .00  .00  .00  .00  .00  .00  .00  .00  .00  .00  .00  .00  .00  .00  .00  .00  .00  .00  .00  .00EQDR01  0.007AAP092
0170724655939902000062102534+39380-099820FM-15+0678KHLC V0203601N003112200019N0160931N1+01901+00701101061ADDGF100991999999999999999999MA1101251999999MD1310141+9999MW1001REMMET078KHLC 210253Z AUTO 36006KT 10SM CLR 19/07 A2990 RMK AO2 SLP106 T01940072 53014;EQDQ01+000000PRSWM2
0161724655939902000062122534+39380-099820FM-15+0678KHLC V0202301N005112200019N0160931N1+03101+00401101171ADDGF100991999999999999999999MA1101391999999MW1001OC100821REMMET075KHLC 212253Z AUTO 23010G16KT 10SM CLR 31/04 A2994 RMK AO2 SLP117 T03110044;EQDQ01+000000PRSWM2
0071724655939902000062203009+39383-099833NSRDB+066799999V020999999999999999999999999999+99999+99999999999ADDGP10060000002008000002015000002008GQ100600895930099GR100600002901879
0071724655939902000062723009+39383-099833NSRDB+066799999V020999999999999999999999999999+99999+99999999999ADDGP10060016802008000002015016802008GQ100600503926909GR100600843913229
0155724655939902000062910534+39380-099820FM-15+0678KHLC V0202501N001512200019N0160931N1+01101+01001101951ADDGF100991999999999999999999MA1102071999999MW1001REMMET077KHLC 291053Z AUTO 25003KT 10SM CLR 11/10 A3014 RMK AO2 SLP195 T01110100 TSNO;EQDQ01+000000PRSWM2
0054724655939902000070506009+39383-099833NSRDB+066799999V020999999999999999999999999999+99999+99999999999ADDGP10060000002000000002000000002000GR100600000900009
0071724655939902000070816009+39383-099833NSRDB+066799999V020999999999999999999999999999+99999+99999999999ADDGP10060069102008083202015009602008GQ100600444909789GR100600942913219
0071724655939902000071101009+39383-099833NSRDB+066799999V020999999999999999999999999999+99999+99999999999ADDGP10060003402008000002015003402008GQ100600734928539GR100600377913229
0155724655939902000071116534+39380-099820FM-15+0678KHLC V0201501N004612200019N0160931N1+02901+02001101251ADDGF100991999999999999999999MA1101491999999MW1001REMMET077KHLC 111653Z AUTO 15009KT 10SM CLR 29/20 A2997 RMK AO2 SLP125 T02890200 TSNO;EQDQ01+000000PRSWM2
0155724655939902000071203534+39380-099820FM-15+0678KHLC V0209999C000012200019N0160931N1+02601+02101101221ADDGF100991999999999999999999MA1101491999999MW1001REMMET077KHLC 120353Z AUTO 00000KT 10SM CLR 26/21 A2997 RMK AO2 SLP122 T02560211 TSNO;EQDQ01+000000PRSWM2
0071724655939902000071503009+39383-099833NSRDB+066799999V020999999999999999999999999999+99999+99999999999ADDGP10060000002008000002015000002008GQ100600897929859GR100600000900999
0203724655939902000071810534+39380-099820FM-15+0678KHLC V0202801N00361001501CN0064371N1+02101+02101101371ADDGD14991+0018019GF108991999999999999999999MA1101561999999MW1101REMMET094KHLC 181053Z AUTO 28007KT 4SM BR OVC006 21/21 A2999 RMK AO2 CIG 005V010 SLP137 T02110206 TSNO;EQDQ01+000003PRSWM1Q02    003PRSWM1
0284724655939902000072117534+39380-099820FM-15+0678KHLC V0200101N003612200019N0160931N1+02301+01701101831ADDAA101000021AA206000021GF100991999999999999999999KA1999M+02331KA2999N+01831MA1102001999999MD1810071+9999MW1001OC100931REMMET136KHLC 211753Z AUTO 01007G18KT 340V090 10SM CLR 23/17 A3012 RMK AO2 RAB1656E27 PRESRR SLP183 P0000 60000 T02280167 10233 20183 58007 TSNO;EQDQ01+000000PRSWM2
0071724655939902000072118009+39383-099833NSRDB+066799999V020999999999999999999999999999+99999+99999999999ADDGP10060055202008015702015041002008GQ100600252913479GR100601196913239
0155724655939902000072503534+39380-099820FM-15+0678KHLC V0201101N004112200019N0160931N1+02601+02101101041ADDGF100991999999999999999999MA1101291999999MW1001REMMET077KHLC 250353Z AUTO 11008KT 10SM CLR 26/21 A2991 RMK AO2 SLP104 T02560206 TSNO;EQDQ01+000000PRSWM2
0175724655939902000072614534+39380-099820FM-15+0678KHLC V0201701N003612200019N0160931N1+02501+01901101281ADDGF100991999999999999999999MA1101521999999MD1810011+9999MW1001REMMET083KHLC 261453Z AUTO 17007KT 10SM CLR 25/19 A2998 RMK AO2 SLP128 T02500194 58001 TSNO;EQDQ01+000000PRSWM2
0071724655939902000072814009+39383-099833NSRDB+066799999V020999999999999999999999999999+99999+99999999999ADDGP10060025802008038202015012602008GQ100600698908189GR100600458913259
0054724655939902000073008009+39383-099833NSRDB+066799999V020999999999999999999999999999+99999+99999999999ADDGP10060000002000000002000000002000GR100600000900009
0054724655939902000073106009+39383-099833NSRDB+066799999V020999999999999999999999999999+99999+99999999999ADDGP10060000002000000002000000002000GR100600000900009
0054724655939902000080204009+39383-099833NSRDB+066799999V020999999999999999999999999999+99999+99999999999ADDGP10060000002000000002000000002000GR100600000900009
0054724655939902000080511009+39383-099833NSRDB+066799999V020999999999999999999999999999+99999+99999999999ADDGP10060000002000000002000000002000GR100600000900009
0071724655939902000080618009+39383-099833NSRDB+066799999V020999999999999999999999999999+99999+99999999999ADDGP10060087802008086702015011402008GQ100600283913969GR100601168913289
0155724655939902000080809534+39380-099820FM-15+0678KHLC V0202001N003112200019N0160931N1+02301+01601100651ADDGF100991999999999999999999MA1100981999999MW1001REMMET077KHLC 080953Z AUTO 20006KT 10SM CLR 23/16 A2982 RMK AO2 SLP065 T02280161 TSNO;EQDQ01+000000PRSWM2
0071724655939902000080822009+39383-099833NSRDB+066799999V020999999999999999999999999999+99999+99999999999ADDGP10060070202008082102015010102008GQ100600430924859GR100600971913299
0054724655939902000080907009+39383-099833NSRDB+066799999V020999999999999999999999999999+99999+99999999999ADDGP10060000002000000002000000002000GR100600000900009
0071724655939902000081418009+39383-099833NSRDB+066799999V020999999999999999999999999999+99999+99999999999ADDGP10060082302008065702015025502008GQ100600302914269GR100601150913329
0175724655939902000081602534+39380-099820FM-15+0678KHLC V0201001N003112200019N0160931N1+02901+01301101571ADDGF100991999999999999999999MA1101861999999MD1310111+9999MW1001REMMET083KHLC 160253Z AUTO 10006KT 10SM CLR 29/13 A3008 RMK AO2 SLP157 T02890128 53011 TSNO;EQDQ01+000000PRSWM2
0071724655939902000082000009+39383-099833NSRDB+066799999V020999999999999999999999999999+99999+99999999999ADDGP10060030702008059802015008402008GQ100600681926839GR100600496913349
0054724655939902000082206009+39383-099833NSRDB+066799999V020999999999999999999999999999+99999+99999999999ADDGP10060000002000000002000000002000GR100600000900009
0054724655939902000082409009+39383-099833NSRDB+066799999V020999999999999999999999999999+99999+99999999999ADDGP10060000002000000002000000002000GR100600000900009
0175724655939902000082620534+39380-099820FM-15+0678KHLC V0200601N006212200019N0160931N1+03601+01401100851ADDGF100991999999999999999999MA1101191999999MD1610131+9999MW1001REMMET083KHLC 262053Z AUTO 06012KT 10SM CLR 36/14 A2988 RMK AO2 SLP085 T03560139 56013 TSNO;EQDQ01+000000PRSWM2
0224724655939902000083023534+39380-099820FM-15+0678KHLC V0201901N008712200019N0160931N1+03601+01201100481ADDGF100991999999999999999999KA1999M+04001KA2999N+03561MA1100781999999MD1810041+9999MW1001OC101181REMMET098KHLC 302353Z AUTO 19017G23KT 10SM CLR 36/12 A2976 RMK AO2 SLP048 T03560117 10400 20356 58004 TSNO;EQDQ01+000000PRSWM2
0155724655939902000090407534+39380-099820FM-15+0678KHLC V0203501N004112200019N0160931N1+02001+01201101191ADDGF100991999999999999999999MA1101461999999MW1001REMMET077KHLC 040753Z AUTO 35008KT 10SM CLR 20/12 A2996 RMK AO2 SLP119 T02000122 TSNO;EQDQ01+000000PRSWM2
0071724655939902000090516009+39383-099833NSRDB+066799999V020999999999999999999999999999+99999+99999999999ADDGP10060047602008034202015027202008GQ100600534911549GR100600800913459
0242724655939902000090623534+39380-099820FM-15+0678KHLC V0201401N010812200019N0160931N1+03601+01601100591ADDGF100991999999999999999999KA1999M+04061KA2999N+03501MA1100881999999MD1610161+9999MW1001OC101441REMMET116KHLC 062353Z AUTO 14021G28KT 10SM CLR 36/16 A2979 RMK AO2 PK WND 15029/2327 SLP059 T03560161 10406 20350 56016 TSNO;EQDQ01+000000PRSWM2
0223724655939902000090805534+39380-099820FM-15+0678KHLC V0209999C000012200019N0160931N1+01301+00801101641ADDGF100991999999999999999999KA1999M+02781KA2999N+01281MA1101801999999MD1510001+9999MW1001REMMET105KHLC 080553Z AUTO 00000KT 10SM CLR 13/08 A3006 RMK AO2 SLP164 T01280078 10278 20128 403000128 55000 TSNO;EQDQ01+000000PRSWM2
0071724655939902000091018009+39383-099833NSRDB+066799999V020999999999999999999999999999+99999+99999999999ADDGP10060079302008089202015008902008GQ100600380915279GR100601062913489
0155724655939902000091613534+39380-099820FM-15+0678KHLC V0201701N002612200019N0160931N1+01701+00301101861ADDGF100991999999999999999999MA1102031999999MW1001REMMET077KHLC 161353Z AUTO 17005KT 10SM CLR 17/03 A3013 RMK AO2 SLP186 T01720033 TSNO;EQDQ01+000000PRSWM2
0071724655939902000091923009+39383-099833NSRDB+066799999V020999999999999999999999999999+99999+99999999999ADDGP10060036802008069002015008702008GQ100600660925019GR100600550913559
0071724655939902000092014009+39383-099833NSRDB+066799999V020999999999999999999999999999+99999+99999999999ADDGP10060010202008004902015009202008GQ100600783909869GR100600273913569
0071724655939902000092321009+39383-099833NSRDB+066799999V020999999999999999999999999999+99999+99999999999ADDGP10060017802008000002015017802008GQ100600483922149GR100600904913589
0155724655939902000092603534+39380-099820FM-15+0678KHLC V0202801N001512200019N0160931N1+00401+00201102321ADDGF100991999999999999999999MA1102271999999MW1001REMMET077KHLC 260353Z AUTO 28003KT 10SM CLR 04/02 A3020 RMK AO2 SLP232 T00440017 TSNO;EQDQ01+000000PRSWM2
0155724655939902000092615534+39380-099820FM-15+0678KHLC V0202201N004612200019N0160931N1+01801+00001102091ADDGF100991999999999999999999MA1102101999999MW1001REMMET077KHLC 261553Z AUTO 22009KT 10SM CLR 18/00 A3015 RMK AO2 SLP209 T01780000 TSNO;EQDQ01+000000PRSWM2
0054724655939902000092712009+39383-099833NSRDB+066799999V020999999999999999999999999999+99999+99999999999ADDGP10060000002000000002000000002000GR100600000900009
0155724655939902000092721534+39380-099820FM-15+0678KHLC V0209999V002612200019N0160931N1+02801+00201101991ADDGF100991999999999999999999MA1102101999999MW1001REMMET077KHLC 272153Z AUTO VRB05KT 10SM CLR 28/02 A3015 RMK AO2 SLP199 T02830017 TSNO;EQDQ01+000000PRSWM2
0223724655939902000092805534+39380-099820FM-15+0678KHLC V0209999C000012200019N0160931N1+00801+00401102221ADDGF100991999999999999999999KA1999M+02501KA2999N+00721MA1102341999999MD1110041+9999MW1001REMMET105KHLC 280553Z AUTO 00000KT 10SM CLR 08/04 A3022 RMK AO2 SLP222 T00780039 10250 20072 402890044 51004 TSNO;EQDQ01+000000PRSWM2
0175724655939902000092902534+39380-099820FM-15+0678KHLC V0201501N005112200019N0160931N1+02001+00401101781ADDGF100991999999999999999999MA1101901999999MD1310011+9999MW1001REMMET083KHLC 290253Z AUTO 15010KT 10SM CLR 20/04 A3009 RMK AO2 SLP178 T02000039 53001 TSNO;EQDQ01+000000PRSWM2
0071724655939902000092914009+39383-099833NSRDB+066799999V020999999999999999999999999999+99999+99999999999ADDGP10060014202008032202015008602008GQ100600800910189GR100600236913639
0071724655939902000092915009+39383-099833NSRDB+066799999V020999999999999999999999999999+99999+99999999999ADDGP10060029602008055702015009602008GQ100600690911249GR100600487913639
0175724655939902000100102534+39380-099820FM-15+0678KHLC V0202701N002112200019N0160931N1+01601+00501100701ADDGF100991999999999999999999MA1100851999999MD1110091+9999MW1001REMMET083KHLC 010253Z AUTO 27004KT 10SM CLR 16/05 A2978 RMK AO2 SLP070 T01610050 51009 TSNO;EQDQ01+000000PRSWM2
0054724655939902000100404009+39383-099833NSRDB+066799999V020999999999999999999999999999+99999+99999999999ADDGP10060000002000000002000000002000GR100600000900009
0071724655939902000100413009+39383-099833NSRDB+066799999V020999999999999999999999999999+99999+99999999999ADDGP10060000002008000002015000002008GQ100600883909719GR100600013904449
0071724655939902000100500009+39383-099833NSRDB+066799999V020999999999999999999999999999+99999+99999999999ADDGP10060002602008000002015002602008GQ100600819925709GR100600193913679
0054724655939902000100507009+39383-099833NSRDB+066799999V020999999999999999999999999999+99999+99999999999ADDGP10060000002000000002000000002000GR100600000900009
0071724655939902000100701009+39383-099833NSRDB+066799999V020999999999999999999999999999+99999+99999999999ADDGP10060000002008000002015000002008GQ100600890926239GR100600005902629
0157724655939902000101112534+39380-099820FM-15+0678KHLC V0201501N005112200019N0160931N1+00701+00101101611ADDGF100991999999999999999999MA1101631999999MW1001REMMET079KHLC 111253Z AUTO 15010KT 10SM CLR 07/01 A3001 RMK AO2 SLP161 T00670006 TSNO $;EQDQ01+000000PRSWM2
0071724655939902000101518009+39383-099833NSRDB+066799999V020999999999999999999999999999+99999+99999999999ADDGP10060064702008082002015011802008GQ100600500916229GR100600884913769
0155724655939902000101715534+39380-099820FM-15+0678KHLC V0200401N002112200019N0160931N1+01901+00501102391ADDGF100991999999999999999999MA1102471999999MW1001REMMET077KHLC 171553Z AUTO 04004KT 10SM CLR 19/05 A3026 RMK AO2 SLP239 T01890050 TSNO;EQDQ01+000000PRSWM2
0760724655939902000102005596+39376-099830SOD  +0677KHLC V020999999999999999999999999999+99999+99999999999ADDAA124000096GJ100005GK10005KA1240M+02785KA2240N+00725MG1093639999994OE11240134118014095OE22240107317014105OE33240048399999995REMSOD60524 HR PRECIPITATION (IN): 0.00 TOTAL SUNSHINE (MINUTES):   0 PERCENT POSSIBLE SUNSHINE:  0 24 HR MAX TEMP (F): 8224 HR MAX TEMP TIME (LST):1451 24 HR MIN TEMP (F): 4524 HR MIN TEMP TIME (LST):0711 AVERAGE STATION PRESSURE:27.65  PEAK WIND SPEED (MPH): 30 PEAK WIND DIR (DEG):180 PEAK WIND TIME (LST):1409  FASTEST 2MIN SPEED (MPH): 24FASTEST 2MIN DIR (DEG):170 FASTEST 2MIN TIME (LST):1410 AVERAGE WIND SPEED (MPH):10.8 24 HR AVG TEMP (F):64 HOURLY INCREMENTAL PRECIPITATION VALUES (IN):.00  .00  .00  .00  .00  .00  .00  .00  .00  .00  .00  .00  .00  .00  .00  .00  .00  .00  .00  .00  .00  .00  .00  .00EQDR01  0.007AAP092
0155724655939902000102106534+39380-099820FM-15+0678KHLC V0209999C000012200019N0160931N1+00801+00201101461ADDGF100991999999999999999999MA1101561999999MW1001REMMET077KHLC 210653Z AUTO 00000KT 10SM CLR 08/02 A2999 RMK AO2 SLP146 T00780022 TSNO;EQDQ01+000000PRSWM2
0173724655939902000102318534+39380-099820FM-15+0678KHLC V0200201N003110048019N0160931N1+01701+01201102731ADDGD14991+0048019GF108991999999999999999999MA1102781999999MW1001REMMET080KHLC 231853Z AUTO 02006KT 10SM OVC016 17/12 A3035 RMK AO2 SLP273 T01670117 TSNO;EQDQ01+000000PRSWM2
0054724655939902000102503009+39383-099833NSRDB+066799999V020999999999999999999999999999+99999+99999999999ADDGP10060000002000000002000000002000GR100600000900009
0206724655939902000102506534+39380-099820FM-15+0678KHLC V0201801N007710057019N0160931N1+01701+01401101611ADDGD13991+0057019GD24991+0078019GF108991999999999999999999MA1101761999999MW1001OC101131REMMET090KHLC 250653Z AUTO 18015G22KT 10SM BKN019 OVC026 17/14 A3005 RMK AO2 SLP161 T01720144 TSNO;EQDQ01+000000PRSWM2
0071724655939902000102516009+39383-099833NSRDB+066799999V020999999999999999999999999999+99999+99999999999ADDGP10060023002008008002015019702008GQ100600656913279GR100600571913849
0175724655939902000102602534+39380-099820FM-15+0678KHLC V0201901N004612200019N0160931N1+01401+01301101181ADDGF100991999999999999999999MA1101291999999MD1310101+9999MW1001REMMET083KHLC 260253Z AUTO 19009KT 10SM CLR 14/13 A2991 RMK AO2 SLP118 T01440133 53010 TSNO;EQDQ01+000000PRSWM2
0071724655939902000103114009+39383-099833NSRDB+066799999V020999999999999999999999999999+99999+99999999999ADDGP10060000002008000002015000002008GQ100600857911249GR100600090911929
0234724655939902000103118534+39380-099820FM-15+0678KHLC V0201701N005710078019N0160931N1+02101+01601100961ADDAA101000891GD12991+0060019GD23991+0078019GD33991+0096019GF107991999999999999999999MA1101081999999MW1001REMMET100KHLC 311853Z AUTO 17011KT 10SM SCT020 BKN026 BKN032 21/16 A2985 RMK AO2 SLP096 P0003 T02060156 TSNO;EQDQ01+000000PRSWM2
0071724655939902000103119009+39383-099833NSRDB+066799999V020999999999999999999999999999+99999+99999999999ADDGP10060019802008000602015019402008GQ100600539918219GR100600818913889
0071724655939902000110217009+39383-099833NSRDB+066799999V020999999999999999999999999999+99999+99999999999ADDGP10060013502008000002015013502008GQ100600605914849GR100600684913909
0071724655939902000110300009+39383-099833NSRDB+066799999V020999999999999999999999999999+99999+99999999999ADDGP10060000202008000002015000202008GQ100600871924809GR100600040907999
0054724655939902000110510009+39383-099833NSRDB+066799999V020999999999999999999999999999+99999+99999999999ADDGP10060000002000000002000000002000GR100600000900009
0054724655939902000110813009+39383-099833NSRDB+066799999V020999999999999999999999999999+99999+99999999999ADDGP10060000002000000002000000002000GR100600000900009
0071724655939902000110918009+39383-099833NSRDB+066799999V020999999999999999999999999999+99999+99999999999ADDGP10060053802008081002015010702008GQ100600579916509GR100600740913959
0172724655939902000111222534+39380-099820FM-15+0678KHLC V0203001N003612200019N0160931N1-00701-01201102291ADDGF100991999999999999999999MA1101931999999MW1001REMMET094KHLC 122253Z AUTO 30007KT 10SM CLR M07/M12 A3010 RMK AO2 SLP229 T10721117 PWINO FZRANO TSNO $;EQDQ01+000000PRSWM2
0172724655939902000111615534+39380-099820FM-15+0678KHLC V0203401N006712200019N0160931N1-00301-00901102281ADDGF100991999999999999999999MA1102071999999MW1001REMMET094KHLC 161553Z AUTO 34013KT 10SM CLR M03/M09 A3014 RMK AO2 SLP228 T10281089 PWINO FZRANO TSNO $;EQDQ01+000000PRSWM2
0175724655939902000111806534+39380-099820FM-15+0678KHLC V0202701N003112200019N0160931N1-00801-01001102771ADDGD12991+0129019GF104991999999999999999999MA1102541999999MW1001REMMET082KHLC 180653Z AUTO 27006KT 10SM SCT043 M08/M10 A3028 RMK AO2 SLP277 T10781100 TSNO;EQDQ01+000000PRSWM2
0071724655939902000111819009+39383-099833NSRDB+066799999V020999999999999999999999999999+99999+99999999999ADDGP10060054102009088202021008402009GQ100600589918159GR100600723914009
0175724655939902000112006534+39380-099820FM-15+0678KHLC V0203101N003610300019N0160931N1-00201-00601103011ADDGD14991+0300019GF108991999999999999999999MA1102841999999MW1001REMMET082KHLC 200653Z AUTO 31007KT 10SM OVC100 M02/M06 A3037 RMK AO2 SLP301 T10171061 TSNO;EQDQ01+000000PRSWM2
0071724655939902000112422009+39383-099833NSRDB+066799999V020999999999999999999999999999+99999+99999999999ADDGP10060024002009064002021006202009GQ100600739922439GR100600390914049
0054724655939902000112805009+39383-099833NSRDB+066799999V020999999999999999999999999999+99999+99999999999ADDGP10060000002000000002000000002000GR100600000900009
0157724655939902000113009534+39380-099820FM-15+0678KHLC V0201101N004612200019N0160931N1-00301-00801102081ADDGF100991999999999999999999MA1101931999999MW1001REMMET079KHLC 300953Z AUTO 11009KT 10SM CLR M03/M08 A3010 RMK AO2 SLP208 T10331078 TSNO;EQDQ01+000000PRSWM2
0175724655939902000120216534+39380-099820FM-15+0678KHLC V0200801N003110054019N0160931N1-00201-00601103951ADDGD14991+0054019GF108991999999999999999999MA1103691999999MW1001REMMET082KHLC 021653Z AUTO 08006KT 10SM OVC018 M02/M06 A3062 RMK AO2 SLP395 T10171056 TSNO;EQDQ01+000000PRSWM2
0071724655939902000120300009+39383-099833NSRDB+066799999V020999999999999999999999999999+99999+99999999999ADDGP10060000002009000002021000002009GQ100600889924029GR100600006903409
0071724655939902000120514009+39383-099833NSRDB+066799999V020999999999999999999999999999+99999+99999999999ADDGP10060000002009000002021000002009GQ100600890912029GR100600006903179
0071724655939902000120715009+39383-099833NSRDB+066799999V020999999999999999999999999999+99999+99999999999ADDGP10060007602009019402021005402009GQ100600836912649GR100600156914109
0054724655939902000120809009+39383-099833NSRDB+066799999V020999999999999999999999999999+99999+99999999999ADDGP10060000002000000002000000002000GR100600000900009
0156724655939902000120921534+39380-099820FM-15+0678KHLC V0209999C000012200019N0160931N1+00901-00101101141ADDGF100991999999999999999999MA1101051999999MW1001REMMET078KHLC 092153Z AUTO 00000KT 10SM CLR 09/M01 A2984 RMK AO2 SLP114 T00891006 TSNO;EQDQ01+000000PRSWM2
0054724655939902000121109009+39383-099833NSRDB+066799999V020999999999999999999999999999+99999+99999999999ADDGP10060000002000000002000000002000GR100600000900009
0343724655939902000121111534+39380-099820FM-15+0678KHLC V0203601N009310150019N0080461N1-01601-02001102581ADDAA101000021AA206000021GD12991+0087019GD24991+0150019GF108991999999999999999999KA1999M-01391KA2999N-01611MA1102101999999MD1310201+9999MW1711REMMET157KHLC 111153Z AUTO 36018KT 5SM -SN SCT029 OVC050 M16/M20 A3015 RMK AO2 PK WND 35029/1122 UPB14E18SNE14B46 SLP258 P0000 60000 T11611200 11139 21161 53020 TSNO;EQDQ01+000003PRSWM1Q02    003PRSWM1
0071724655939902000121122009+39383-099833NSRDB+066799999V020999999999999999999999999999+99999+99999999999ADDGP10060023902009071902021005202009GQ100600749922169GR100600367914119
0054724655939902000121310009+39383-099833NSRDB+066799999V020999999999999999999999999999+99999+99999999999ADDGP10060000002000000002000000002000GR100600000900009
0180724655939902000121315404+39380-099820FM-15+0678KHLC V0209999C000010075019N0160931N1-00901-01201999999ADDGD13991+0075019GD24991+0330019GF108991999999999999999999MA1101801999999MW1001REMMET072KHLC 131540Z AUTO 00000KT 10SM BKN025 OVC110 M09/M12 A3006 RMK AO2 TSNO;EQDQ01+000000PRSWM2
0071724655939902000121619009+39383-099833NSRDB+066799999V020999999999999999999999999999+99999+99999999999ADDGP10060047802009088402021007202009GQ100600628917869GR100600645914139
0157724655939902000122403534+39380-099820FM-15+0678KHLC V0201001N002112200019N0160931N1-01101-01401103251ADDGF100991999999999999999999MA1102911999999MW1001REMMET079KHLC 240353Z AUTO 10004KT 10SM CLR M11/M14 A3039 RMK AO2 SLP325 T11111144 TSNO;EQDQ01+000000PRSWM2
0054724655939902000122606009+39383-099833NSRDB+066799999V020999999999999999999999999999+99999+99999999999ADDGP10060000002000000002000000002000GR100600000900009
0176724655939902000123115344+39380-099820FM-15+0678KHLC V0200801N003110009019N0048281N1-00901-01001999999ADDGD14991+0009019GF108991999999999999999999MA1102781999999MW1101REMMET067KHLC 311534Z AUTO 08006KT 3SM BR OVC003 M09/M10 A3035 RMK AO2 TSNO;EQDQ01+000003PRSWM1Q02    003PRSWM1
043372466093037200001030954C+38817-104717FM-15+1872COS  V0203405N00985018295MN0112005N1-00565-00945101015ADDAA101000025GD12995+0061059GD24995+0182959GF108991999999999999999999MA1100715999999MW1715OC101491REMMET117KCOS 030954Z 34019G29KT 7SM -SN SCT020 OVC060 M06/M09 A2974 RMK AO2 PK WND 35029/0947 SNB25 SLP101 P0000 T10561094 $;EQDQ01+000003PRSWM1Q02    003PRSWM1N01 00040JPWTH 0QNNAA1D0 02020BA1 0 02020AA1D0 06060BA1 0 06060GA1 0 00060KA1D0 00015JA1 0-00094LA1 0 00700CA1 0 02974NA1 0 00040QA1 0 10101SA1D0 00022RA1 0-00056YA1 0 34019
030972466093037200001041554C+38817-104717FM-15+1872COS  V0203605N00155220005MN0160005N1-00285-01335102925ADDAA101000095GF100991999999999999999999MA1102205999999MW1001REMMET069KCOS 041554Z 36003KT 10SM CLR M03/M13 A3018 RMK AO2 SLP292 T10281133;EQDQ01+000000PRSWM2N01 00000JPWTH 0QNNAA1D0 00000BA1 0 00000GA1U0 99999KA1D0 00008JA1 0-00133LA1 0 01000CA1 0 03018NA1 0 00000QA1 0 10292SA1D0 00027RA1 0-00028YA1 0 36003
033772466093037200001090954C+38817-104717FM-15+1872COS  V0203105N00935220005MN0160005N1+00065-01675100535ADDAA101000095GF100991999999999999999999MA1100515999999MW1001OC101591REMMET089KCOS 090954Z 31018G31KT 10SM CLR 01/M17 A2968 RMK AO2 PK WND 32034/0936 SLP053 T00061167;EQDQ01+000000PRSWM2N01 00000JPWTH 0QNNAA1D0 00000BA1 0 00000GA1U0 99999KA1D0 00002JA1 0-00167LA1 0 01000CA1 0 02968NA1 0 00000QA1 0 10053SA1D0 00033RA1 0 00006YA1 0 31018
032772466093037200001110454C+38817-104717FM-15+1872COS  V0201405N00315220005MN0160005N1-00565-00725101485ADDAA101000095GD12995+0027459GF104991999999999999999999MA1101295999999MW1001REMMET072KCOS 110454Z 14006KT 10SM SCT009 M06/M07 A2991 RMK AO2 SLP148 T10561072;EQDQ01+000000PRSWM2N01 00000JPWTH 0QNNAA1D0 02009BA1 0 02009GA1U0 99999KA1D0 00019JA1 0-00072LA1 0 01000CA1 0 02991NA1 0 00000QA1 0 10148SA1D0 00022RA1 0-00056YA1 0 14006
0054724660930372000011207009+38817-104717NSRDB+187299999V020999999999999999999999999999+99999+99999999999ADDGP10060000002000000002000000002000GR100600000900009
0054724660930372000011301009+38817-104717NSRDB+187299999V020999999999999999999999999999+99999+99999999999ADDGP10060000002000000002000000002000GR100600000900009
0685724660930372000011606596+38810-104688SOD  +1881KCOS V020999999999999999999999999999+99999+99999999999ADDAA124000096KA1240M+01565KA2240N-00055MG1081449999994OE11240107315012275OE22240098315012275OE33240043899999995REMSOD54524 HR PRECIPITATION (IN): 0.00 24 HR MAX TEMP (F): 6024 HR MAX TEMP TIME (LST):1151 24 HR MIN TEMP (F): 3124 HR MIN TEMP TIME (LST):2357 AVERAGE STATION PRESSURE:24.05  PEAK WIND SPEED (MPH): 24 PEAK WIND DIR (DEG):150 PEAK WIND TIME (LST):1227  FASTEST 2MIN SPEED (MPH): 22FASTEST 2MIN DIR (DEG):150 FASTEST 2MIN TIME (LST):1227 AVERAGE WIND SPEED (MPH): 9.8 24 HR AVG TEMP (F):46 HOURLY INCREMENTAL PRECIPITATION VALUES (IN):.00  .00  .00  .00  .00  .00  .00  .00  .00  .00  .00  .00  .00  .00  .00  .00  .00  .00  .00  .00  .00  .00  .00  .00EQDR01  0.007AAP092
037272466093037200001172154C+38817-104717FM-15+1872COS  V0201405N00675220005MN0160005N1+01395-00445101815ADDAA101000095GD11995+0259159GD22995+0365859GF104991999999999999999999MA1102135999999MW1001REMMET080KCOS 172154Z 14013KT 10SM FEW085 SCT120 14/M04 A3016 RMK AO2 SLP181 T01391044 $;EQDQ01+000000PRSWM2N01 00000JPWTH 0QNNAA1D0 02085BA1 0 01085AA1D0 02120BA1 0 02120GA1U0 99999KA1D0 00024JA1 0-00044LA1 0 01000CA1 0 03016NA1 0 00000QA1 0 10181SA1D0 00057RA1 0 00139YA1 0 14013
032072466093037200001201854C+38817-104717FM-15+1872COS  V0209999C00005220005MN0160005N1+01285-01565101765ADDAA101000095GF100991999999999999999999MA1101765999999MW1001REMMET080KCOS 201854Z 00000KT 10SM CLR 13/M16 A3005 RMK AO2 SLP176 BKN ABV 120 T01281156;EQDQ01+000000PRSWM2N01 00000JPWTH 0QNNAA1D0 00000BA1 0 00000GA1U0 99999KA1D0 00004JA1 0-00156LA1 0 01000CA1 0 03005NA1 0 00000QA1 0 10176SA1D0 00055RA1 0 00128YA1 0 00000
0071724660930372000012101009+38817-104717NSRDB+187299999V020999999999999999999999999999+99999+99999999999ADDGP10060000002008000002015000002008GQ100600896924409GR100600001901069
030872466093037200001220154C+38817-104717FM-15+1872COS  V0203605N00775220005MN0160005N1+00615-00565100925ADDAA101000095GF100991999999999999999999MA1100815999999MW1001REMMET068KCOS 220154Z 36015KT 10SM CLR 06/M06 A2977 RMK AO2 SLP092 T00611056;EQDQ01+000000PRSWM2N01 00000JPWTH 0QNNAA1D0 00000BA1 0 00000GA1U0 99999KA1D0 00022JA1 0-00056LA1 0 01000CA1 0 02977NA1 0 00000QA1 0 10092SA1D0 00043RA1 0 00061YA1 0 36015
034572466093037200001230654C+38817-104717FM-15+1872COS  V0203605N00315220005MN0160005N1-00285-00675101725ADDAA101000095GF100991999999999999999999KA1999M+00671KA2999N-00561MA1101525999999MW1001REMMET079KCOS 230654Z 36006KT 10SM CLR M03/M07 A2998 RMK AO2 SLP172 T10281067 400671056;EQDQ01+000000PRSWM2N01 00000JPWTH 0QNNAA1D0 00000BA1 0 00000GA1U0 99999KA1D0 00020JA1 0-00067LA1 0 01000CA1 0 02998NA1 0 00000QA1 0 10172SA1D0 00027RA1 0-00028YA1 0 36006
0212724660930372000012707474+38820-104720FM-16+1885KCOS V0201901N00211000301CN0064371N1-00401-00501999999ADDGD13991+0009019GD24991+0072019GF108991999999999999999999MA1101291999999MW1101REMMET088KCOS 270747Z 19004KT 4SM BR BKN003 OVC024 M04/M05 A2991 RMK AO2 SNE47 CIG 001V005 P0001;EQDQ01+000003PRSWM1Q02    003PRSWM1
0252724660930372000012815264+38820-104720FM-16+1885KCOS V0200401N002610042019N0028161N1-00701-00801999999ADDGD13991+0042019GD23991+0057019GD34991+0096019GF108991999999999999999999MA1102031999999MW1711REMMET097KCOS 281526Z 04005KT 3/4SM -SN BR BKN014 BKN019 OVC032 M07/M08 A3013 RMK AO2 SFC VIS 1 1/2 P0001;EQDQ01+000100PRSWM3Q02+000003PRSWM1Q03    003PRSWM1
031172466093037200001302254C+38817-104717FM-15+1872COS  V0201505N00155220005MN0160005N1-00285-01115102535ADDAA101000095GF100991999999999999999999MA1101765999999MW1001REMMET071KCOS 302254Z 15003KT 10SM CLR M03/M11 A3005 RMK AO2 SLP253 T10281111 $;EQDQ01+000000PRSWM2N01 00000JPWTH 0QNNAA1D0 00000BA1 0 00000GA1U0 99999KA1D0 00012JA1 0-00111LA1 0 01000CA1 0 03005NA1 0 00000QA1 0 10253SA1D0 00027RA1 0-00028YA1 0 15003
0071724660930372000020316009+38817-104717NSRDB+187299999V020999999999999999999999999999+99999+99999999999ADDGP10060024602008085002015003902008GQ100600760912549GR100600341914089
034572466093037200002050654C+38817-104717FM-15+1872COS  V0209999C00005220005MN0160005N1-00505-00945102885ADDAA101000095GF100991999999999999999999KA1999M+00111KA2999N-00501MA1102375999999MW1001REMMET079KCOS 050654Z 00000KT 10SM CLR M05/M09 A3023 RMK AO2 SLP288 T10501094 400111050;EQDQ01+000000PRSWM2N01 00000JPWTH 0QNNAA1D0 00000BA1 0 00000GA1U0 99999KA1D0 00015JA1 0-00094LA1 0 01000CA1 0 03023NA1 0 00000QA1 0 10288SA1D0 00023RA1 0-00050YA1 0 00000
030872466093037200002061254C+38817-104717FM-15+1872COS  V0203205N00315220005MN0160005N1+00065-00725102255ADDAA101000095GF100991999999999999999999MA1102245999999MW1001REMMET068KCOS 061254Z 32006KT 10SM CLR 01/M07 A3019 RMK AO2 SLP225 T00061072;EQDQ01+000000PRSWM2N01 00000JPWTH 0QNNAA1D0 00000BA1 0 00000GA1U0 99999KA1D0 00019JA1 0-00072LA1 0 01000CA1 0 03019NA1 0 00000QA1 0 10225SA1D0 00033RA1 0 00006YA1 0 32006
030872466093037200002082254C+38817-104717FM-15+1872COS  V0201605N00365220005MN0160005N1+01565-01005101945ADDAA101000095GF100991999999999999999999MA1102135999999MW1001REMMET068KCOS 082254Z 16007KT 10SM CLR 16/M10 A3016 RMK AO2 SLP194 T01561100;EQDQ01+000000PRSWM2N01 00000JPWTH 0QNNAA1D0 00000BA1 0 00000GA1U0 99999KA1D0 00014JA1 0-00100LA1 0 01000CA1 0 03016NA1 0 00000QA1 0 10194SA1D0 00060RA1 0 00156YA1 0 16007
0071724660930372000021014009+38817-104717NSRDB+187299999V020999999999999999999999999999+99999+99999999999ADDGP10060000002008000002015000002008GQ100600899910839GR100600000900599
041372466093037200002110354C+38817-104717FM-15+1872COS  V0202005N00675010365MN0160005N1+00285+00065101255ADDAA101000095GD13995+0103659GD23995+0143359GD34995+0167659GF108991999999999999999999MA1101295999999MW1001REMMET084KCOS 110354Z 20013KT 10SM BKN034 BKN047 OVC055 03/01 A2991 RMK AO2 SLP125 T00280006;EQDQ01+000000PRSWM2N01 00000JPWTH 0QNNAA1D0 04034BA1 0 04034AA1D0 04047BA1 0 04047AA1D0 06055BA1 0 06055GA1 0 00034KA1D0 00033JA1 0 00006LA1 0 01000CA1 0 02991NA1 0 00000QA1 0 10125SA1D0 00037RA1 0 00028YA1 0 20013
0071724660930372000021118009+38817-104717NSRDB+187299999V020999999999999999999999999999+99999+99999999999ADDGP10060011402008000002015011402008GQ100600582915039GR100600739914049
030972466093037200002121354C+38817-104717FM-15+1872COS  V0209999C00005220005MN0160005N1-00505-00565101145ADDAA101000095GF100991999999999999999999MA1100645999999MW1001REMMET069KCOS 121354Z 00000KT 10SM CLR M05/M06 A2972 RMK AO2 SLP114 T10501056;EQDQ01+000000PRSWM2N01 00000JPWTH 0QNNAA1D0 00000BA1 0 00000GA1U0 99999KA1D0 00022JA1 0-00056LA1 0 01000CA1 0 02972NA1 0 00000QA1 0 10114SA1D0 00023RA1 0-00050YA1 0 00000
0071724660930372000021623009+38817-104717NSRDB+187299999V020999999999999999999999999999+99999+99999999999ADDGP10060020002008012702015015402008GQ100600687923259GR100600508914019
036772466093037200002200554C+38817-104717FM-15+1872COS  V0200405N00265220005MN0160005N1-00395-01115103115ADDAA101000095GF100991999999999999999999KA1999M+00391KA2999N-00501MA1102715999999MD1010061+9999MW1001REMMET087KCOS 200554Z 04005KT 10SM CLR M04/M11 A3033 RMK AO2 SLP311 T10391111 10039 21050 50006;EQDQ01+000000PRSWM2N01 00000JPWTH 0QNNAA1D0 00000BA1 0 00000GA1U0 99999KA1D0 00012JA1 0-00111LA1 0 01000CA1 0 03033NA1 0 00000QA1 0 10311SA1D0 00025RA1 0-00039YA1 0 04005
0071724660930372000022023009+38817-104717NSRDB+187299999V020999999999999999999999999999+99999+99999999999ADDGP10060029102008040102015013902008GQ100600677923359GR100600530913999
0071724660930372000022221009+38817-104717NSRDB+187299999V020999999999999999999999999999+99999+99999999999ADDGP10060029102008006602015025102008GQ100600524920439GR100600853913989
035572466093037200002230354C+38817-104717FM-15+1872COS  V0203405N01135220005MN0160005N1+00395-00115101045ADDAA101000095GD11995+0304859GF102991999999999999999999MA1101225999999MW1001OC101391REMMET092KCOS 230354Z 34022G27KT 10SM FEW100 04/M01 A2989 RMK AO2 PK WND 35033/0306 SLP104 T00391011;EQDQ01+000000PRSWM2N01 00000JPWTH 0QNNAA1D0 02100BA1 0 01100GA1U0 99999KA1D0 00030JA1 0-00011LA1 0 01000CA1 0 02989NA1 0 00000QA1 0 10104SA1D0 00039RA1 0 00039YA1 0 34022
040672466093037200002242254C+38817-104717FM-15+1872COS  V0202105N00985220005MN0160005N1+01115-00725099955ADDAA101000095GD12995+0243859GD22995+0365859GF104991999999999999999999MA1100105999999MW1001REMMET114KCOS 242254Z 21019KT 10SM SCT080 SCT120 11/M07 A2956 RMK AO2 SLP995 VIRGA OHD SHSN OBSCG MTN TPS DSNT W T01111072;EQDQ01+000000PRSWM2N01 00000JPWTH 0QNNAA1D0 02080BA1 0 02080AA1D0 02120BA1 0 02120GA1U0 99999KA1D0 00019JA1 0-00072LA1 0 01000CA1 0 02956NA1 0 00000QA1 0 09995SA1D0 00052RA1 0 00111YA1 0 21019
040272466093037200002251154C+38817-104717FM-15+1872COS  V0203205N00725027435MN0160005N1+00175-01675099525ADDAA101000095GD13995+0274359GF107991999999999999999999KA1999M+00501KA2999N+00171MA1099735999999MD1310081+9999MW1001REMMET107KCOS 251154Z 32014KT 10SM BKN090 02/M17 A2945 RMK AO2 PK WND 32030/1127 SLP952 T00171167 10050 20017 53008;EQDQ01+000000PRSWM2N01 00000JPWTH 0QNNAA1D0 04090BA1 0 04090GA1 0 00090KA1D0 00002JA1 0-00167LA1 0 01000CA1 0 02945NA1 0 00000QA1 0 09952SA1D0 00035RA1 0 00017YA1 0 32014
0071724660930372000022601009+38817-104717NSRDB+187299999V020999999999999999999999999999+99999+99999999999ADDGP10060002202008029902015000802008GQ100600860925529GR100600073910589
030872466093037200002271654C+38817-104717FM-15+1872COS  V0201305N00315220005MN0160005N1+00505-01175102325ADDAA101000095GF100991999999999999999999MA1102205999999MW1001REMMET068KCOS 271654Z 13006KT 10SM CLR 05/M12 A3018 RMK AO2 SLP232 T00501117;EQDQ01+000000PRSWM2N01 00000JPWTH 0QNNAA1D0 00000BA1 0 00000GA1U0 99999KA1D0 00011JA1 0-00117LA1 0 01000CA1 0 03018NA1 0 00000QA1 0 10232SA1D0 00041RA1 0 00050YA1 0 13006
033772466093037200002282154C+38817-104717FM-15+1872COS  V0202305N00775220005MN0160005N1+01445-01395100185ADDAA101000095GD11995+0335359GF102991999999999999999999MA1100445999999MW1001OC100981REMMET074KCOS 282154Z 23015G19KT 10SM FEW110 14/M14 A2966 RMK AO2 SLP018 T01441139;EQDQ01+000000PRSWM2N01 00000JPWTH 0QNNAA1D0 02110BA1 0 01110GA1U0 99999KA1D0 00007JA1 0-00139LA1 0 01000CA1 0 02966NA1 0 00000QA1 0 10018SA1D0 00058RA1 0 00144YA1 0 23015
0054724660930372000022912009+38817-104717NSRDB+187299999V020999999999999999999999999999+99999+99999999999ADDGP10060000002000000002000000002000GR100600000900009
030872466093037200002291254C+38817-104717FM-15+1872COS  V0203405N00725220005MN0160005N1+00285-00445100945ADDAA101000095GF100991999999999999999999MA1101055999999MW1001REMMET068KCOS 291254Z 34014KT 10SM CLR 03/M04 A2984 RMK AO2 SLP094 T00281044;EQDQ01+000000PRSWM2N01 00000JPWTH 0QNNAA1D0 00000BA1 0 00000GA1U0 99999KA1D0 00024JA1 0-00044LA1 0 01000CA1 0 02984NA1 0 00000QA1 0 10094SA1D0 00037RA1 0 00028YA1 0 34014
030972466093037200003010954C+38817-104717FM-15+1872COS  V0200605N00215220005MN0160005N1-00175-00565101735ADDAA101000095GF100991999999999999999999MA1101735999999MW1001REMMET069KCOS 010954Z 06004KT 10SM CLR M02/M06 A3004 RMK AO2 SLP173 T10171056;EQDQ01+000000PRSWM2N01 00000JPWTH 0QNNAA1D0 00000BA1 0 00000GA1U0 99999KA1D0 00022JA1 0-00056LA1 0 01000CA1 0 03004NA1 0 00000QA1 0 10173SA1D0 00029RA1 0-00017YA1 0 06004
034672466093037200003070854C+38817-104717FM-15+1872COS  V0201205N00725220005MN0160005N1+00565-00725100755ADDAA101000095GD12995+0304859GF104991999999999999999999MA1101025999999MD1510081+9999MW1001REMMET077KCOS 070854Z 12014KT 10SM SCT100 06/M07 A2983 RMK AO2 SLP075 T00561072 55008;EQDQ01+000000PRSWM2N01 00000JPWTH 0QNNAA1D0 02100BA1 0 02100GA1U0 99999KA1D0 00019JA1 0-00072LA1 0 01000CA1 0 02983NA1 0 00000QA1 0 10075SA1D0 00042RA1 0 00056YA1 0 12014
046672466093037200003071354C+38817-104717FM-15+1872COS  V0201105N00525022865MN0160005N1+00615+00115100515ADDAA101000025GD12995+0152459GD23995+0228659GD33995+0274359GF107991999999999999999999MA1100855999999MW1001REMMET137KCOS 071354Z 11010KT 10SM SCT050 BKN075 BKN090 06/01 A2978 RMK AO2 RAB04E16B40E53 SLP051 OCNL LTG DSNT E S SHRA DSNT E-S P0000 T00610011;EQDQ01+000000PRSWM2N01 00000JPWTH 0QNNAA1D0 02050BA1 0 02050AA1D0 04075BA1 0 04075AA1D0 04090BA1 0 04090GA1 0 00075KA1D0 00034JA1 0 00011LA1 0 01000CA1 0 02978NA1 0 00000QA1 0 10051SA1D0 00043RA1 0 00061YA1 0 11010
046372466093037200003080554C+38817-104717FM-15+1872COS  V0203505N01295003355MN0112005N1+00225+00065099605ADDAA101002595AA206009791GD14995+0033559GF108991999999999999999999KA1999M+00941KA2999N+00171MA1099765999999MD1310051+9999MW1615OC101651REMMET133KCOS 080554Z 35025G32KT 7SM -RA OVC011 02/01 A2946 RMK AO2 PK WND 34035/0535 SNB33E39 SLP960 P0010 60038 T00220006 10094 20017 53005;EQDQ01+000003PRSWM1Q02    003PRSWM1N01 00020JPWTH 0QNNAA1D0 06011BA1 0 06011GA1 0 00011KA1D0 00033JA1 0 00006LA1 0 00700CA1 0 02946NA1 0 00020QA1 0 09960SA1D0 00036RA1 0 00022YA1 0 35025
0054724660930372000031002009+38817-104717NSRDB+187299999V020999999999999999999999999999+99999+99999999999ADDGP10060000002000000002000000002000GR100600000900009
0215724660930372000031114023+38820-104720FM-16+1885KCOS V0200701N001510036019N0144841N1-00601-00701999999ADDGD13991+0036019GF107991999999999999999999GP10060001002008011902015000502008GQ100600861909749GR100600066909819MA1102441999999MW1001REMMET054KCOS 111402Z 07003KT 9SM BKN012 M06/M07 A3025 RMK AO2;EQDQ01+000000PRSWM2
032972466093037200003120854C+38817-104717FM-15+1872COS  V0200205N00415220005MN0160005N1-00115-00725101865ADDAA101000095GF100991999999999999999999MA1101795999999MD1810091+9999MW1001REMMET075KCOS 120854Z 02008KT 10SM CLR M01/M07 A3006 RMK AO2 SLP186 T10111072 58009;EQDQ01+000000PRSWM2N01 00000JPWTH 0QNNAA1D0 00000BA1 0 00000GA1U0 99999KA1D0 00019JA1 0-00072LA1 0 01000CA1 0 03006NA1 0 00000QA1 0 10186SA1D0 00030RA1 0-00011YA1 0 02008
0071724660930372000031321009+38817-104717NSRDB+187299999V020999999999999999999999999999+99999+99999999999ADDGP10060077602008100302015007202008GQ100600456920929GR100600968913839
033772466093037200003141954C+38817-104717FM-15+1872COS  V0201705N00725220005MN0160005N1+01005-00445101425ADDAA101000095GD11995+0365859GF102991999999999999999999MA1101425999999MW1001OC101081REMMET074KCOS 141954Z 17014G21KT 10SM FEW120 10/M04 A2995 RMK AO2 SLP142 T01001044;EQDQ01+000000PRSWM2N01 00000JPWTH 0QNNAA1D0 02120BA1 0 01120GA1U0 99999KA1D0 00024JA1 0-00044LA1 0 01000CA1 0 02995NA1 0 00000QA1 0 10142SA1D0 00050RA1 0 00100YA1 0 17014
0203724660930372000031602404+38820-104720FM-16+1885KCOS V0200301N005110003019N0008051N1-00201-00301999999ADDGD14991+0003019GF108991999999999999999999MA1101831999999MW1731REMMET078KCOS 160240Z 03010KT 1/2SM SN FZFG OVC001 M02/M03 A3007 RMK AO2 P0003 RVRNO $;EQDQ01+000480PRSWM3Q02+000003PRSWM1Q03    003PRSWM1
050072466093037200003161154C+38817-104717FM-15+1872COS  V0209999C00005015245MN0160005N1-00895-01065102715ADDAA101000025AA206001091AA324009491AJ100209199999999GD11995+0030559GD23995+0152459GF107991999999999999999999KA1999M-00391KA2999N-01061MA1102135999999MD1310011+9999MW1001REMMET129KCOS 161154Z 00000KT 10SM FEW010 BKN050 M09/M11 A3016 RMK AO2 SNE11 SLP271 4/008 P0000 60004 70037 T10891106 11039 21106 53001 $;EQDQ01+000000PRSWM2N01 00000JPWTH 0QNNAA1D0 02010BA1 0 01010AA1D0 04050BA1 0 04050GA1 0 00050KA1D0 00013JA1 0-00106LA1 0 01000CA1 0 03016NA1 0 00000QA1 0 10271SA1D0 00016RA1 0-00089YA1 0 00000
0158724660930372000031922454+38820-104720FM-15+1885KCOS V0202201N005110300019N0160931N1+01201-00201999999ADDGD13991+0300019GF107991999999999999999999MA1100471999999MW1001REMMET065KCOS 192245Z 22010KT 10SM BKN100 12/M02 A2967 RMK AO2 WSHFT 2225;EQDQ01+000000PRSWM2
0685724660930372000032006596+38810-104688SOD  +1881KCOS V020999999999999999999999999999+99999+99999999999ADDAA124000096KA1240M+01445KA2240N-00665MG1080469999994OE11240111824019585OE22240107325019455OE33240036799999995REMSOD54524 HR PRECIPITATION (IN): 0.00 24 HR MAX TEMP (F): 5824 HR MAX TEMP TIME (LST):1659 24 HR MIN TEMP (F): 2024 HR MIN TEMP TIME (LST):0531 AVERAGE STATION PRESSURE:23.76  PEAK WIND SPEED (MPH): 25 PEAK WIND DIR (DEG):240 PEAK WIND TIME (LST):1958  FASTEST 2MIN SPEED (MPH): 24FASTEST 2MIN DIR (DEG):250 FASTEST 2MIN TIME (LST):1945 AVERAGE WIND SPEED (MPH): 8.2 24 HR AVG TEMP (F):39 HOURLY INCREMENTAL PRECIPITATION VALUES (IN):.00  .00  .00  .00  .00  .00  .00  .00  .00  .00  .00  .00  .00  .00  .00  .00  .00  .00  .00  .00  .00  .00  .00  .00EQDR01  0.007AAP092
0228724660930372000032023234+38820-104720FM-16+1885KCOS V0203501N012310042019N0020111N1-00301-00601999999ADDGD13991+0042019GD24991+0063019GF108991999999999999999999MA1101081999999MW1711OC101441REMMET096KCOS 202323Z 35024G28KT 1 1/4SM -SN BKN014 OVC021 M03/M06 A2985 RMK AO2 PK WND 34032/2308 P0000;EQDQ01+000003PRSWM1Q02    003PRSWM1
0236724660930372000032301013+38820-104720FM-16+1885KCOS V0209999C000010036019N0160931N1+00301+00201999999ADDGD12991+0018019GD24991+0036019GF108991999999999999999999GP10060001502008000002015001502008GQ100600823926529GR100600184913769MA1102101999999MW1001REMMET060KCOS 230101Z 00000KT 10SM SCT006 OVC012 03/02 A3015 RMK AO2;EQDQ01+000000PRSWM2
0054724660930372000032608009+38817-104717NSRDB+187299999V020999999999999999999999999999+99999+99999999999ADDGP10060000002000000002000000002000GR100600000900009
0054724660930372000032611009+38817-104717NSRDB+187299999V020999999999999999999999999999+99999+99999999999ADDGP10060000002000000002000000002000GR100600000900009
047572466093037200003290854C+38817-104717FM-15+1872COS  V0209999C00005008235MN0112005N1+00175+00115100505ADDAA101000895AA203001391GD11995+0051859GD23995+0082359GD34995+0109759GF108991999999999999999999MA1100685999999MD1110131+9999MW1615REMMET105KCOS 290854Z 00000KT 7SM -RA FEW017 BKN027 OVC036 02/01 A2973 RMK AO2 SLP050 P0003 60005 T00170011 51013;EQDQ01+000003PRSWM1Q02    003PRSWM1N01 00020JPWTH 0QNNAA1D0 02017BA1 0 01017AA1D0 04027BA1 0 04027AA1D0 06036BA1 0 06036GA1 0 00027KA1D0 00034JA1 0 00011LA1 0 00700CA1 0 02973NA1 0 00020QA1 0 10050SA1D0 00035RA1 0 00017YA1 0 00000
0237724660930372000033023474+38820-104720FM-16+1885KCOS V0203401N008210045019N0024141N1+00001-00301999999ADDGD13991+0045019GD24991+0075019GF108991999999999999999999MA1101931999999MW1711OC101181REMMET105KCOS 302347Z 34016G23KT 1SM -SN BKN015 OVC025 00/M03 A3010 RMK AO2 PK WND 35028/2308 SFC VIS 2 1/2 P0000;EQDQ01+000003PRSWM1Q02    003PRSWM1
0054724660930372000033109009+38817-104717NSRDB+187299999V020999999999999999999999999999+99999+99999999999ADDGP10060000002000000002000000002000GR100600000900009
042972466093037200003312154C+38817-104717FM-15+1872COS  V0200505N00625008535MN0160005N1-00065-00565102575ADDAA101000025GD13995+0085359GD24995+0121959GF108991999999999999999999MA1102205999999MW1001REMMET137KCOS 312154Z 05012KT 10SM BKN028 OVC040 M01/M06 A3018 RMK AO2 SLP257 SNE49 SHSN VC SW CLDS OBSCG MTN TPS VC SW-DSNT NW P0000 T10061056 $;EQDQ01+000000PRSWM2N01 00000JPWTH 0QNNAA1D0 04028BA1 0 04028AA1D0 06040BA1 0 06040GA1 0 00028KA1D0 00022JA1 0-00056LA1 0 01000CA1 0 03018NA1 0 00000QA1 0 10257SA1D0 00031RA1 0-00006YA1 0 05012
0071724660930372000040402009+38817-104717NSRDB+187299999V020999999999999999999999999999+99999+99999999999ADDGP10060000002008000002015000002008GQ100600880927609GR100600019905359
030872466093037200004041954C+38817-104717FM-15+1872COS  V0201705N00725220005MN0160005N1+02005-00615101905ADDAA101000095GF100991999999999999999999MA1102075999999MW1001REMMET068KCOS 041954Z 17014KT 10SM CLR 20/M06 A3014 RMK AO2 SLP190 T02001061;EQDQ01+000000PRSWM2N01 00000JPWTH 0QNNAA1D0 00000BA1 0 00000GA1U0 99999KA1D0 00021JA1 0-00061LA1 0 01000CA1 0 03014NA1 0 00000QA1 0 10190SA1D0 00068RA1 0 00200YA1 0 17014
0054724660930372000040506009+38817-104717NSRDB+187299999V020999999999999999999999999999+99999+99999999999ADDGP10060000002000000002000000002000GR100600000900009
030872466093037200004051354C+38817-104717FM-15+1872COS  V0201205N00465220005MN0160005N1+01445-00835100775ADDAA101000095GF100991999999999999999999MA1101355999999MW1001REMMET068KCOS 051354Z 12009KT 10SM CLR 14/M08 A2993 RMK AO2 SLP077 T01441083;EQDQ01+000000PRSWM2N01 00000JPWTH 0QNNAA1D0 00000BA1 0 00000GA1U0 99999KA1D0 00017JA1 0-00083LA1 0 01000CA1 0 02993NA1 0 00000QA1 0 10077SA1D0 00058RA1 0 00144YA1 0 12009
0054724660930372000041108009+38817-104717NSRDB+187299999V020999999999999999999999999999+99999+99999999999ADDGP10060000002000000002000000002000GR100600000900009
0054724660930372000041204009+38817-104717NSRDB+187299999V020999999999999999999999999999+99999+99999999999ADDGP10060000002000000002000000002000GR100600000900009
0071724660930372000041320009+38817-104717NSRDB+187299999V020999999999999999999999999999+99999+99999999999ADDGP10060092902008095302015010602008GQ100600305919509GR100601171913599
032872466093037200004140854C+38817-104717FM-15+1872COS  V0200405N00215220005MN0160005N1+01225-00565100505ADDAA101000095GF100991999999999999999999MA1101225999999MD1810121+9999MW1001REMMET074KCOS 140854Z 04004KT 10SM CLR 12/M06 A2989 RMK AO2 SLP050 T01221056 58012;EQDQ01+000000PRSWM2N01 00000JPWTH 0QNNAA1D0 00000BA1 0 00000GA1U0 99999KA1D0 00022JA1 0-00056LA1 0 01000CA1 0 02989NA1 0 00000QA1 0 10050SA1D0 00054RA1 0 00122YA1 0 04004
030872466093037200004171554C+38817-104717FM-15+1872COS  V0201705N00315220005MN0160005N1+01505-00225101565ADDAA101000095GF100991999999999999999999MA1102005999999MW1001REMMET068KCOS 171554Z 17006KT 10SM CLR 15/M02 A3012 RMK AO2 SLP156 T01501022;EQDQ01+000000PRSWM2N01 00000JPWTH 0QNNAA1D0 00000BA1 0 00000GA1U0 99999KA1D0 00028JA1 0-00022LA1 0 01000CA1 0 03012NA1 0 00000QA1 0 10156SA1D0 00059RA1 0 00150YA1 0 17006
032672466093037200004180154C+38817-104717FM-15+1872COS  V0202305N00265220005MN0160005N1+01395-00285101215ADDAA101000095GD11995+0274359GF102991999999999999999999MA1101595999999MW1001REMMET071KCOS 180154Z 23005KT 10SM FEW090 14/M03 A3000 RMK AO2 SLP121 T01391028;EQDQ01+000000PRSWM2N01 00000JPWTH 0QNNAA1D0 02090BA1 0 01090GA1U0 99999KA1D0 00027JA1 0-00028LA1 0 01000CA1 0 03000NA1 0 00000QA1 0 10121SA1D0 00057RA1 0 00139YA1 0 23005
0071724660930372000041818009+38817-104717NSRDB+187299999V020999999999999999999999999999+99999+99999999999ADDGP10060086502008087402015014002008GQ100600341913919GR100601121913559
030872466093037200004200754C+38817-104717FM-15+1872COS  V0203405N00265220005MN0160005N1+00285-00445101895ADDAA101000095GF100991999999999999999999MA1102035999999MW1001REMMET068KCOS 200754Z 34005KT 10SM CLR 03/M04 A3013 RMK AO2 SLP189 T00281044;EQDQ01+000000PRSWM2N01 00000JPWTH 0QNNAA1D0 00000BA1 0 00000GA1U0 99999KA1D0 00024JA1 0-00044LA1 0 01000CA1 0 03013NA1 0 00000QA1 0 10189SA1D0 00037RA1 0 00028YA1 0 34005
041572466093037200004222254C+38817-104717FM-15+1872COS  V0203105N01245220005MN0160005N1+01115+00175099775ADDAA101000025GD11995+0182959GD22995+0274359GF104991999999999999999999MA1100105999999MW1001OC101541REMMET115KCOS 222254Z 31024G30KT 10SM FEW060 SCT090 11/02 A2956 RMK AO2 PK WND 31035/2221 TSE20RAE04 SLP977 P0000 T01110017;EQDQ01+000000PRSWM2N01 00000JPWTH 0QNNAA1D0 02060BA1 0 01060AA1D0 02090BA1 0 02090GA1U0 99999KA1D0 00035JA1 0 00017LA1 0 01000CA1 0 02956NA1 0 00000QA1 0 09977SA1D0 00052RA1 0 00111YA1 0 31024
036972466093037200004241354C+38817-104717FM-15+1872COS  V0209999C00005220005MN0160005N1+00945+00565101305ADDAA101000095GD11995+0243859GD22995+0304859GF104991999999999999999999MA1101635999999MW1001REMMET077KCOS 241354Z 00000KT 10SM FEW080 SCT100 09/06 A3001 RMK AO2 SLP130 T00940056;EQDQ01+000000PRSWM2N01 00000JPWTH 0QNNAA1D0 02080BA1 0 01080AA1D0 02100BA1 0 02100GA1U0 99999KA1D0 00042JA1 0 00056LA1 0 01000CA1 0 03001NA1 0 00000QA1 0 10130SA1D0 00049RA1 0 00094YA1 0 00000
0071724660930372000042516009+38817-104717NSRDB+187299999V020999999999999999999999999999+99999+99999999999ADDGP10060054202008051302015022602008GQ100600520910469GR100600829913499
033772466093037200004251954C+38817-104717FM-15+1872COS  V0201905N00625220005MN0160005N1+01565-00445102085ADDAA101000095GD11995+0213459GF102991999999999999999999MA1102405999999MW1001OC100931REMMET074KCOS 251954Z 19012G18KT 10SM FEW070 16/M04 A3024 RMK AO2 SLP208 T01561044;EQDQ01+000000PRSWM2N01 00000JPWTH 0QNNAA1D0 02070BA1 0 01070GA1U0 99999KA1D0 00024JA1 0-00044LA1 0 01000CA1 0 03024NA1 0 00000QA1 0 10208SA1D0 00060RA1 0 00156YA1 0 19012
0071724660930372000043023009+38817-104717NSRDB+187299999V020999999999999999999999999999+99999+99999999999ADDGP10060023902008001802015022802008GQ100600524925859GR100600820913469
0071724660930372000050216009+38817-104717NSRDB+187299999V020999999999999999999999999999+99999+99999999999ADDGP10060065702008084802015011702008GQ100600505910269GR100600854913449
032772466093037200005050854C+38817-104717FM-15+1872COS  V0200305N00465220005MN0160005N1+00945+00615100715ADDAA101000095GF100991999999999999999999MA1101525999999MD1810081+9999MW1001REMMET073KCOS 050854Z 03009KT 10SM CLR 09/06 A2998 RMK AO2 SLP071 T00940061 58008;EQDQ01+000000PRSWM2N01 00000JPWTH 0QNNAA1D0 00000BA1 0 00000GA1U0 99999KA1D0 00043JA1 0 00061LA1 0 01000CA1 0 02998NA1 0 00000QA1 0 10071SA1D0 00049RA1 0 00094YA1 0 03009
030872466093037200005071054C+38817-104717FM-15+1872COS  V0209999V00265220005MN0160005N1+01615-00675100315ADDAA101000095GF100991999999999999999999MA1101225999999MW1001REMMET068KCOS 071054Z VRB05KT 10SM CLR 16/M07 A2989 RMK AO2 SLP031 T01611067;EQDQ01+000000PRSWM2N01 00000JPWTH 0QNNAA1D0 00000BA1 0 00000GA1U0 99999KA1D0 00020JA1 0-00067LA1 0 01000CA1 0 02989NA1 0 00000QA1 0 10031SA1D0 00061RA1 0 00161YA1 0 00005
0071724660930372000051322009+38817-104717NSRDB+187299999V020999999999999999999999999999+99999+99999999999ADDGP10060080402008090502015010102008GQ100600391924999GR100601036913379
0071724660930372000051514009+38817-104717NSRDB+187299999V020999999999999999999999999999+99999+99999999999ADDGP10060030402008069602015008302008GQ100600715908009GR100600423913369
0071724660930372000051516009+38817-104717NSRDB+187299999V020999999999999999999999999999+99999+99999999999ADDGP10060070502008083402015015002008GQ100600483909919GR100600887913369
0054724660930372000051611009+38817-104717NSRDB+187299999V020999999999999999999999999999+99999+99999999999ADDGP10060000002000000002000000002000GR100600000900009
030872466093037200005161254C+38817-104717FM-15+1872COS  V0200805N00365220005MN0160005N1+01615-00565100345ADDAA101000095GF100991999999999999999999MA1101255999999MW1001REMMET068KCOS 161254Z 08007KT 10SM CLR 16/M06 A2990 RMK AO2 SLP034 T01611056;EQDQ01+000000PRSWM2N01 00000JPWTH 0QNNAA1D0 00000BA1 0 00000GA1U0 99999KA1D0 00022JA1 0-00056LA1 0 01000CA1 0 02990NA1 0 00000QA1 0 10034SA1D0 00061RA1 0 00161YA1 0 08007
0054724660930372000051706009+38817-104717NSRDB+187299999V020999999999999999999999999999+99999+99999999999ADDGP10060000002000000002000000002000GR100600000900009
045572466093037200005172354C+38817-104717FM-15+1872COS  V0203305N01245220005MN0160005N1+00675+00115100155ADDAA101000095AA206001091GD12995+0143359GF104991999999999999999999KA1999M+01061KA2999N+00611MA1100345999999MD1310251+9999MW1001OC102111REMMET141KCOS 172354Z 33024G41KT 10SM SCT047 07/01 A2963 RMK AO2 PK WND 31045/2330 SLP015 SHSN OBSCG MTNS DSNT W-NW 60004 T00670011 10106 20061 53025;EQDQ01+000000PRSWM2N01 00000JPWTH 0QNNAA1D0 02047BA1 0 02047GA1U0 99999KA1D0 00034JA1 0 00011LA1 0 01000CA1 0 02963NA1 0 00000QA1 0 10015SA1D0 00044RA1 0 00067YA1 0 33024
0071724660930372000052018009+38817-104717NSRDB+187299999V020999999999999999999999999999+99999+99999999999ADDGP10060084302008057802015032402008GQ100600263912999GR100601194913349
0241724660930372000052021174+38820-104720FM-16+1885KCOS V0200201N007210240019N0160931N1+01601+00701999999ADDGD12991+0150019GD23991+0240019GF107991999999999999999999MA1102101999999MW1001REMMET133KCOS 202117Z 02014KT 10SM SCT055 BKN080 16/07 A3015 RMK AO2 PK WND 04030/2100 TSE17RAE17 OCNL LTG ICCG DSNT E TS DSNT E MOV SE P0000;EQDQ01+000000PRSWM2
036972466093037200005210054C+38817-104717FM-15+1872COS  V0201805N00315220005MN0160005N1+01675+00445101525ADDAA101000095GD11995+0243859GD22995+0335359GF104991999999999999999999MA1102075999999MW1001REMMET077KCOS 210054Z 18006KT 10SM FEW080 SCT110 17/04 A3014 RMK AO2 SLP152 T01670044;EQDQ01+000000PRSWM2N01 00000JPWTH 0QNNAA1D0 02080BA1 0 01080AA1D0 02110BA1 0 02110GA1U0 99999KA1D0 00040JA1 0 00044LA1 0 01000CA1 0 03014NA1 0 00000QA1 0 10152SA1D0 00062RA1 0 00167YA1 0 18006
0054724660930372000052210009+38817-104717NSRDB+187299999V020999999999999999999999999999+99999+99999999999ADDGP10060000002000000002000000002000GR100600000900009
035972466093037200005222054C+38817-104717FM-15+1872COS  V0201305N00415220005MN0160005N1+02615+00065100965ADDAA101000095GD11995+0304859GF102991999999999999999999MA1101695999999MD1610221+9999MW1001REMMET090KCOS 222054Z 13008KT 080V160 10SM FEW100 26/01 A3003 RMK AO2 SLP096 6//// T02610006 56022;EQDQ01+000000PRSWM2N01 00000JPWTH 0QNNAA1D0 02100BA1 0 01100GA1U0 99999KA1D0 00033JA1 0 00006LA1 0 01000CA1 0 03003NA1 0 00000QA1 0 10096SA1D0 00079RA1 0 00261YA1 0 13008
032572466093037200005240154C+38817-104717FM-15+1872COS  V0200305N00365220005MN0160005N1+02175+00835100405ADDAA101000095GD12995+0365859GF104991999999999999999999MA1101355999999MW1001REMMET070KCOS 240154Z 03007KT 10SM SCT120 22/08 A2993 RMK AO2 SLP040 T02170083;EQDQ01+000000PRSWM2N01 00000JPWTH 0QNNAA1D0 02120BA1 0 02120GA1U0 99999KA1D0 00047JA1 0 00083LA1 0 01000CA1 0 02993NA1 0 00000QA1 0 10040SA1D0 00071RA1 0 00217YA1 0 03007
030772466093037200005241054C+38817-104717FM-15+1872COS  V0203105N00215220005MN0160005N1+01615+00615100615ADDAA101000095GF100991999999999999999999MA1101595999999MW1001REMMET067KCOS 241054Z 31004KT 10SM CLR 16/06 A3000 RMK AO2 SLP061 T01610061;EQDQ01+000000PRSWM2N01 00000JPWTH 0QNNAA1D0 00000BA1 0 00000GA1U0 99999KA1D0 00043JA1 0 00061LA1 0 01000CA1 0 03000NA1 0 00000QA1 0 10061SA1D0 00061RA1 0 00161YA1 0 31004
032572466093037200005270154C+38817-104717FM-15+1872COS  V0200105N00675033535MN0160005N1+01565+00675100685ADDAA101000095GD13995+0335359GF107991999999999999999999MA1101255999999MW1001REMMET070KCOS 270154Z 01013KT 10SM BKN110 16/07 A2990 RMK AO2 SLP068 T01560067;EQDQ01+000000PRSWM2N01 00000JPWTH 0QNNAA1D0 04110BA1 0 04110GA1 0 00110KA1D0 00044JA1 0 00067LA1 0 01000CA1 0 02990NA1 0 00000QA1 0 10068SA1D0 00060RA1 0 00156YA1 0 01013
0071724660930372000052802009+38817-104717NSRDB+187299999V020999999999999999999999999999+99999+99999999999ADDGP10060006502008026702015003202008GQ100600828929209GR100600167913309
0054724660930372000053005009+38817-104717NSRDB+187299999V020999999999999999999999999999+99999+99999999999ADDGP10060000002000000002000000002000GR100600000900009
