0178128510999992000011116004+47870+020020FM-12+101599999V0200401N003010048019N0250001N1-00551-00771999999ADDGA1071+004809069GF107991071051004501999999MA1999999091521MD1210031+9999ME1209329REMSYN086AAXX  11161 12851 42475 70403 11055 21077 39152 42932 52003 875// 333 87616 555 10085;
0200128510999992000011403004+47870+020020FM-12+101599999V0202001N007010009019N0030001N1-00691-00781999999ADDAY171031AY241031GA1071+000909059GF107991071051000751999999MA1999999090521MD1010001+9999ME1208469MW1711REMSYN086    AAXX  14031 12851 41130 72007 11069 21078 39052 42846 50000 77174 875// 333 87603;
0210128510999992000011817004+47870+020020FM-12+101599999V0203501N007012200019N0750001N1-00631-00821999999ADDGA1011+002109089GA2011+006909089GF103991011021002501041021MA1999999087971MD1210331+9999ME1206239REMSYN102    AAXX  18171 12851 42389 33507 11063 21082 38797 42623 52033 81242 333 81807 81823 555 10087 55152;
0230128510999992000012006004+47870+020020FM-12+101599999V0203201N005012200019N0500001N1-00931-01261999999ADDAA199000091AJ100569199999999GF101991011001999999041001IA1289KA1120N-00951MA1999999089921MD1210191+9999ME1207979REMSYN088AAXX  20061 12851 32984 13205 11093 21126 38992 42797 52019 81040 333 21095 44056 55080;EQDQ01  00002PRCP99
0190128510999992000012011004+47870+020020FM-12+101599999V0202901N005010360019N0600001N1-00751-00911999999ADDGA1041+001509089GF106991041021001501041021MA1999999089971MD1710011+9999ME1207999REMSYN098AAXX  20111 12851 42286 62905 11075 21091 38997 42799 57001 84242 333 84805 555 10089 55112 /6748;
0184128510999992000012222004+47870+020020FM-12+101599999V0202201N005010360019N0220001N1-01161-01301999999ADDGA1031+002409069GF106991031051002501071021MA1999999089051MD1610071+9999ME1207249REMSYN092AAXX  22221 12851 42372 62205 11116 21130 38905 42724 56007 83572 333 83608 555 10089 55111;
0152128510999992000013021004+47870+020020FM-12+101599999V0203201N008012200019N0400001N1-00211-00561999999ADDGA1001+999999999GF100991001001999999001001MA1999999089591MD1110231+9999ME1207619REMSYN060AAXX  30211 12851 42982 03208 11021 21056 38959 42761 51023;
0218128510999992000020211004+47870+020020FM-12+101599999V0202601N005010360019N0600001N1+00591+00011999999ADDGA1011+003909069GF107991011051004501041081GG1049003009069049MA1999999089791MD1810081+9999ME1207729REMSYN108AAXX  02111 12851 42486 72605 10059 20001 38979 42772 58008 81548 333 81613 444 46034 555 10066 55102 /6735;
0184128510999992000020223004+47870+020020FM-12+101599999V0203101N008010360019N0500001N1+00291-00031999999ADDGA1011+006909069GF106991011051008001041021MA1999999089601MD1710011+9999ME1207599REMSYN092AAXX  02231 12851 42584 63108 10029 21003 38960 42759 57001 81542 333 81623 555 10079 55163;
0129128510999992000020402004+47870+020020FM-12+101599999V0203601N009012200019N0500001N1-00421-00661999999ADDGA1001+999999999GF100991001001999999001001REMSYN075AAXX  04021 12851 42984 03609 11042 21066 3907 42860 52009 555 10083 55193;
0142128510999992000020415004+47870+020020FM-12+101599999V0202401N006012200019N0500001N1-00241-01011999999ADDGF102991001001999999001011MA1999999091281MD1710121+9999ME1209109REMSYN066AAXX  04151 12851 42984 22406 11024 21101 39128 42910 57012 80001;
0186128510999992000020707004+47870+020020FM-12+101599999V0202001N007012200019N0150001N1+00251+00131999999ADDGF102991001001999999001021GG1059006009079049MA1999999090451MD1510031+9999ME1208349REMSYN092AAXX  07071 12851 42965 22007 10025 20013 39045 42834 55003 80002 444 57064 555 10091 55112;
0212128510999992000021110004+47870+020020FM-12+101599999V0202401N004010900019N0450001N1+00141-00381999999ADDGA1011+004809089GF105991011011004501081041GG1019004009079049MA1999999090551MD1210151+9999ME1208449REMSYN102AAXX  11101 12851 42483 52404 10014 21038 39055 42844 52015 81184 333 81816 444 17044 555 10069 55071;
0200128510999992000021207004+47870+020020FM-12+101599999V0200801N002010006019N0000001N1-00211-00241999999ADDAY141999AY241999GA1091+000609999GF109991091999999999999999MA1999999090761MD1510021+9999ME1208649MW1491REMSYN086AAXX  12071 12851 41/00 90802 11021 21024 39076 42864 55002 74944 333 89/02 555 10097;
0206128510999992000021301004+47870+020020FM-12+101599999V0202401N004010003019N0002001N1-00201-00241999999ADDAY141999AY241999GA1091+000309999GF109991091999999999999999MA1999999090311MD1710071+9999ME1208259MW1451REMSYN092AAXX  13011 12851 41/02 92404 11020 21024 39031 42825 57007 74544 333 89/01 555 10097 55074;
0184128510999992000021314004+47870+020020FM-12+101599999V0202401N004012200019N0350001N1+00021-00341999999ADDGA1021+003009089GF102991021021004501001001MA1999999089981MD1810131+9999ME1207949REMSYN092AAXX  13141 12851 42481 22404 10002 21034 38998 42794 58013 82200 333 82810 555 10077 55102;
0206128510999992000021701004+47870+020020FM-12+101599999V0201401N002010003019N0001001N1-00201-00251999999ADDAY171999AY241999GA1091+000309999GF109991091999999999999999MA1999999088251MD1610281+9999ME1206429MW1711REMSYN092AAXX  17011 12851 41/01 91402 11020 21025 38825 42642 56028 77174 333 89/01 555 10097 6020/;
0218128510999992000021704004+47870+020020FM-12+101599999V0201601N004010003019N0001001N1-00311-00361999999ADDAY171999AY241999GA1091+000309999GF109991091999999999999999MA1999999088051MD1610201+9999ME1206259MW1751REMSYN104AAXX  17041 12851 41/01 91604 11031 21036 38805 42625 56020 77574 333 89/01 555 10096 55101 6040/ /6604;
0174128510999992000021811004+47870+020020FM-12+101599999V0203401N003012200019N0600001N1-00221-00591999999ADDGA1001+999999999GF100991001001999999001001MA1999999089071MD1110061+9999ME1207159REMSYN082AAXX  18111 12851 42986 03403 11022 21059 38907 42715 51006 555 10076 55072 /6681;
0212128510999992000021920004+47870+020020FM-12+101599999V0202401N002010360019N0150001N1-00271-00341999999ADDAY171999AY241999GA1031+003309069GF108991031051004501041071MA1999999089011MD1310071+9999ME1207119MW1221REMSYN098AAXX  19201 12851 41465 82402 11027 21034 38901 42711 53007 72274 83547 333 83611 555 10095 6992/;
0168128510999992000022109004+47870+020020FM-12+101599999V0200301N004012200019N0300001N1-00721-00821999999ADDGA1011+002409029GF102991011021002501041001MA1999999090031MD1210171+9999ME1208049REMSYN076AAXX  21091 12851 42380 20304 11072 21082 39003 42804 52017 81240 333 81808;
0178128510999992000022401004+47870+020020FM-12+101599999V0203101N001010360019N0180001N1-00661-00761999999ADDGA1031+006009069GF106991031051008001081021MA1999999090471MD1210021+9999ME1208429REMSYN086AAXX  24011 12851 42568 63101 11066 21076 39047 42842 52002 83582 333 83620 555 10093;
0168128510999992000031102004+47870+020020FM-12+101599999V0202301N005012200019N0650001N1-00581-01201999999ADDGA1001+999999999GF100991001001999999001001MA1999999090211MD1810061+9999ME1208199REMSYN076AAXX  11021 12851 42987 02305 11058 21120 39021 42819 58006 555 10062 55064;
0206128510999992000031608004+47870+020020FM-12+101599999V0202301N003010045019N0040001N1-00501-00881999999ADDAY121999AY221999GA1081+004509059GF108991081001004501021999MA1999999089371MD1510101+9999ME1207459MW1711REMSYN092AAXX  16081 12851 41440 82303 11050 21088 38937 42745 55010 77122 8802/ 333 88515 555 10075;
0234128510999992000031820004+47870+020020FM-12+101599999V0200201N004010360019N0250001N1-00541-00671999999ADDAY181999AY221999GA1031+002109089GF107991031021002501061999GG1029009009069009MA1999999089991MD1110131+9999ME1207999MW1261REMSYN102AAXX  18201 12851 41375 70204 11054 21067 38999 42799 51013 72682 8326/ 333 83807 444 26090 555 10091;
0168128510999992000031922004+47870+020020FM-12+101599999V0200201N005012200019N0180001N1-00661-00741999999ADDGA1001+999999999GF100991001001999999001001MA1999999090061MD1210071+9999ME1208079REMSYN076AAXX  19221 12851 42968 00205 11066 21074 39006 42807 52007 555 10094 55092;
0152128510999992000032505004+47870+020020FM-12+101599999V0201401N004019999999N0200001N1+00221-00161999999ADDGF106991041001999999081021MA1999999089951MD1310081+9999ME1207909REMSYN076AAXX  25051 12851 42970 61404 10022 21016 38995 42790 53008 84082 555 10076;
0184128510999992000040610004+47870+020020FM-12+101599999V0203401N003010360019N0220001N1+00111-00231999999ADDGA1031+003009069GF107991031051004501071999MA1999999088901MD1110321+9999ME1206969REMSYN092AAXX  06101 12851 42472 73403 10011 21023 38890 42696 51032 8357/ 333 83610 555 10078 55091;
0200128510999992000040805004+47870+020020FM-12+101599999V0203501N001010090019N0750001N1-00121-00401999999ADDGA1011+006909069GA2061+009009069GF107991071051008001999999MA1999999089971MD1710021+9999ME1207949REMSYN092AAXX  08051 12851 42589 73501 11012 21040 38997 42794 57002 875// 333 81623 86630 555 10081;
0184128510999992000041514004+47870+020020FM-12+101599999V0202001N005010048019N0250001N1+01351+00501999999ADDGA1051+004809089GF107991051021004501081091MA1999999089081MD1810091+9999ME1206999REMSYN092AAXX  15141 12851 42475 72005 10135 20050 38908 42699 58009 85289 333 85816 555 10056 55114;
0158128510999992000042220004+47870+020020FM-12+101599999V0200701N005012200019N0450001N1+01391+00301999999ADDGF101991011001999999041001MA1999999090181MD1210071+9999ME1208029REMSYN082AAXX  22201 12851 42983 10705 10139 20030 39018 42802 52007 81040 555 10048 55103;
0152128510999992000042309004+47870+020020FM-12+101599999V0200701N002012200019N0400001N1+01781+00301999999ADDGA1001+999999999GF100991001001999999001001MA1999999090221MD1110051+9999ME1208039REMSYN060AAXX  23091 12851 42982 00702 10178 20030 39022 42803 51005;
0168128510999992000050202004+47870+020020FM-12+101599999V0200401N006012200019N0600001N1+01111+00721999999ADDGA1001+999999999GF100991001001999999001001MA1999999090011MD1610061+9999ME1207889REMSYN076AAXX  02021 12851 42986 00406 10111 20072 39001 42788 56006 555 10077 55123;
0162128510999992000050710004+47870+020020FM-12+101599999V0202401N002012200019N0350001N1+01921+00551999999ADDGA1001+999999999GF100991001001999999001001MA1999999090631MD1210081+9999ME1208409REMSYN070AAXX  07101 12851 42981 02402 10192 20055 39063 42840 52008 555 10040;
0184128510999992000051711004+47870+020020FM-12+101599999V0202201N003012200019N0500001N1+02051+00561999999ADDGA1021+009009089GF102991021021008001001001MA1999999090331MD1810051+9999ME1208129REMSYN092AAXX  17111 12851 42584 22203 10205 20056 39033 42812 58005 82200 333 82830 555 10037 /6775;
0152128510999992000052505004+47870+020020FM-12+101599999V0202001N002012200019N0300001N1+01121+00551999999ADDGF101991001001999999001021MA1999999090401MD1210031+9999ME1208249REMSYN076AAXX  25051 12851 42980 12002 10112 20055 39040 42824 52003 80002 555 10067;
0240128510999992000052914004+47870+020020FM-12+101599999V0203301N004010360019N0300001N1+01181+00801999999ADDAY121999AY221999GA1031+012009069GF107991031051012501071999GG1039010009069049MA1999999089621MD1710051+9999ME1207519MW1601REMSYN108AAXX  29141 12851 41680 73304 10118 20080 38962 42751 57005 76022 8357/ 333 83640 444 36104 555 10077 55074;
0187128510999992000060100004+47870+020020FM-12+101599999V0200101N005012200019N0350001N1+00631+00571999999ADDAA106000591AY181061AY241061GF101991011001999999041021MA1999999090251MD1110111+9999ME1208149MW1281REMSYN078AAXX  01001 12851 11981 10105 10063 20057 39025 42814 51011 69951 72884 81042;
0152128510999992000060202004+47870+020020FM-12+101599999V0200801N003012200019N0400001N1+00751+00211999999ADDGF101991011001999999041021MA1999999090991MD1710011+9999ME1208809REMSYN076AAXX  02021 12851 42982 10803 10075 20021 39099 42880 57001 81042 555 10069;
0152128510999992000060310004+47870+020020FM-12+101599999V0200501N001012200019N0450001N1+01801+00831999999ADDGF101991001001999999001021MA1999999090891MD1210031+9999ME1208659REMSYN076AAXX  03101 12851 42983 10501 10180 20083 39089 42865 52003 80002 555 10053;
0162128510999992000060317004+47870+020020FM-12+101599999V0201301N001012200019N0450001N1+01781+00781999999ADDGA1001+999999999GF100991001001999999001001MA1999999090741MD1710061+9999ME1208519REMSYN070AAXX  03171 12851 42983 01301 10178 20078 39074 42851 57006 555 10052;
0178128510999992000061510004+47860+020200FM-12+101599999V0200301N001012200019N0350001N1+02101+01391999999ADDGA1021+003009089GF104991021021004501081021MA1999999090401MD1410001+9999ME1208179REMSYN086AAXX  15101 12851 42481 40301 10210 20139 39040 42817 54000 82282 333 82810 555 10064;
0126128510999992000062101004+47860+020200FM-12+101599999V0202501N005019999999N9999999N1+01721+00711999999ADDMA1999999090511MD1710091+9999ME1208309REMSYN076AAXX  21011 12851 46/// /2505 10172 20071 39051 42830 57009 555 10052 55072;
0190128510999992000062521004+47860+020200FM-12+101599999V0203501N005010003019N0001001N1+00821+00761999999ADDAY141031AY241031GA1091+000309999GF109991091999999999999999MA1999999089721MD1210051+9999ME1207649MW1431REMSYN076AAXX  25211 12851 41/01 93505 10082 20076 38972 42764 52005 74344 333 89/01;
0168128510999992000062709004+47860+020200FM-12+101599999V0203101N003012200019N0750001N1+01201+00211999999ADDGA1041+003909029GF104991041021004501041021MA1999999090211MD1110041+9999ME1208069REMSYN076AAXX  27091 12851 42489 43103 10120 20021 39021 42806 51004 84242 333 84813;
0240128510999992000070104004+47860+020200FM-12+101599999V0202201N006010360019N0450001N1+00981+00881999999ADDAY191999AY221999GA1021+004809099GA2011+009009069GF107991031091004501081031MA1999999089961MD1310011+9999ME1207849MW1291REMSYN110AAXX  01041 12851 41483 72206 10098 20088 38996 42784 53001 72992 83983 333 82916 81630 555 10094 55083 /6748;
0164128510999992000070404004+47860+020200FM-12+101599999V0203301N003012200019N0300001N1+01771+01121999999ADDGF102991021001999999041001MA1999999089751MD1710061+9999ME1207589REMSYN088AAXX  04041 12851 42980 23303 10177 20112 38975 42758 57006 82040 555 10066 55091 /6732;
0206128510999992000070905004+47860+020200FM-12+101599999V0200301N002010030019N0170001N1+01031+00871999999ADDAY121999AY221999GA1051+003009089GF107991051021004501071999MA1999999088981MD1710061+9999ME1206939MW1801REMSYN092AAXX  09051 12851 41467 70302 10103 20087 38898 42693 57006 78022 8527/ 333 85810 555 10090;
0217128510999992000072818004+47860+020010FM-12+101599999V0200801N002010900019N0300001N1+01661+01111999999ADDAA199000091GA1021+006009059GF106991021041008001041061KA1120M+02011MA1999999089621MD1710161+9999ME1207479REMSYN082AAXX  28181 12851 32580 60802 10166 20111 38962 42747 57016 82446 333 10201 82620;EQDQ01  00002PRCP99
0168128510999992000073015004+47860+020010FM-12+101599999V0203201N003010360019N0400001N1+01501+00991999999ADDGA1031+003009029GF105991031021004501041021MA1999999090231MD1210061+9999ME1208069REMSYN076AAXX  30151 12851 42482 53203 10150 20099 39023 42806 52006 83242 333 83810;
0184128510999992000073020004+47860+020010FM-12+101599999V0203601N004012200019N0350001N1+01181+00751999999ADDGA1011+003909089GF103991011021004501041021MA1999999090431MD1310141+9999ME1208259REMSYN092AAXX  30201 12851 42481 33604 10118 20075 39043 42825 53014 81242 333 81813 555 10075 55091;
0211128510999992000080206004+47860+020010FM-12+101599999V0202601N001012200019N0250001N1+01461+00891999999ADDAA199000091GA1001+999999999GF100991001001999999001001KA1120N+01221MA1999999090771MD1310011+9999ME1208569REMSYN076AAXX  02061 12851 32975 02601 10146 20089 39077 42856 53001 333 20122 55118;EQDQ01  00002PRCP99
0205128510999992000080218004+47860+020010FM-12+101599999V0202001N004012200019N0250001N1+01751+00981999999ADDAA199000091GA1001+999999999GF100991001001999999001001KA1999M+02211MA1999999090621MD1710111+9999ME1208409REMSYN070AAXX  02181 12851 32975 02004 10175 20098 39062 42840 57011 333 10221;EQDQ01  00002PRCP99
0152128510999992000080607004+47860+020010FM-12+101599999V0201601N003012200019N0300001N1+02011+01421999999ADDGF103991021001999999081021MA1999999090301MD1210021+9999ME1208089REMSYN076AAXX  06071 12851 42980 31603 10201 20142 39030 42808 52002 82082 555 10069;
0164128510999992000081804004+47860+020010FM-12+101599999V0202901N003012200019N0400001N1+02031+01011999999ADDGF101991011001999999081021MA1999999090391MD1510011+9999ME1208179REMSYN088AAXX  18041 12851 42982 12903 10203 20101 39039 42817 55001 81082 555 10052 55071 /6780;
0217128510999992000081818004+47860+020010FM-12+101599999V0202401N002012200019N0280001N1+02331+01081999999ADDAA199000091GA1011+001209029GF102991011021001501001021KA1120M+02841MA1999999090581MD1210051+9999ME1208339REMSYN082AAXX  18181 12851 32278 22402 10233 20108 39058 42833 52005 81202 333 10284 81804;EQDQ01  00002PRCP99
0228128510999992000082520004+47860+020010FM-12+101599999V0203401N004012200019N0350001N1+01061+00481999999ADDGA1011+006009099GA2011+006009089GA3021+006009069GF104991041031008001061001MA1999999090151MD1210081+9999ME1208019REMSYN104AAXX  25201 12851 42581 43404 10106 20048 39015 42801 52008 84360 333 81920 81820 82620 555 10068 55094;
0158128510999992000082722004+47860+020010FM-12+101599999V0200501N005012200019N0500001N1+00981+00741999999ADDGF101991011001999999061021MA1999999090501MD1810041+9999ME1208349REMSYN082AAXX  27221 12851 42984 10505 10098 20074 39050 42834 58004 81062 555 10085 55072;
0158128510999992000082723004+47860+020010FM-12+101599999V0200501N004012200019N0500001N1+00971+00731999999ADDGF101991011001999999061021MA1999999090491MD1710061+9999ME1208339REMSYN082AAXX  27231 12851 42984 10504 10097 20073 39049 42833 57006 81062 555 10085 55083;
0178128510999992000090102004+47860+020010FM-12+101599999V0201501N003010360019N0250001N1+01251+00981999999ADDGA1021+003909069GF106991021051004501071001MA1999999089241MD1710181+9999ME1207159REMSYN086AAXX  01021 12851 42475 61503 10125 20098 38924 42715 57018 82570 333 82613 555 10084;
0178128510999992000092214004+47860+020010FM-12+101599999V0200301N003010012019N0350001N1+00851+00711999999ADDGA1081+001209079GF108991081061001501999999MA1999999090301MD1110111+9999ME1208179REMSYN086AAXX  22141 12851 42281 80303 10085 20071 39030 42817 51011 886// 333 88704 555 10091;
0206128510999992000092405004+47860+020010FM-12+101599999V0200701N003010006019N0002001N1+00401+00341999999ADDAY141999AY241999GA1091+000609999GF109991091999999999999999MA1999999090711MD1510001+9999ME1208579MW1431REMSYN092AAXX  24051 12851 41/02 90703 10040 20034 39071 42857 55000 74344 333 89/02 555 10096 55073;
0206128510999992000100301004+47860+020010FM-12+101599999V0201001N002010360019N0100001N1+01141+01071999999ADDGA1041+004809069GF108991041051004501071999GG1029009009079049MA1999999090151MD1210061+9999ME1208019REMSYN096AAXX  03011 12851 42460 81002 10114 20107 39015 42801 52006 8457/ 333 84616 444 27094 555 10096;
0168128510999992000100809004+47860+020010FM-12+101599999V0200701N003012200019N0300001N1+01301+00521999999ADDGA1011+009909029GF105991011011012501001041MA1999999090171MD1110021+9999ME1208019REMSYN076AAXX  08091 12851 42680 50703 10130 20052 39017 42801 51002 81104 333 81833;
0168128510999992000101209004+47860+020010FM-12+101599999V0202001N00601036001CN0450001N1+01311+00811999999ADDGA1041+015009059GF107991041051017501081021MA1999999089711MD1110151+9999ME1207589REMSYN076AAXX  12091 12851 42783 72006 10131 20081 38971 42758 51015 84582 333 84650;
0158128510999992000101407004+47860+020010FM-12+101599999V0202001N011012200019N0200001N1+01151+00931999999ADDGF103991001001999999001011MA1999999090601MD1310071+9999ME1208429REMSYN082AAXX  14071 12851 42970 32011 10115 20093 39060 42842 53007 80001 555 10086 55184;
0164128510999992000102611004+47860+020010FM-12+101599999V0202201N007012200019N0300001N1+01121+00521999999ADDGF102991021001999999031091MA1999999090031MD1710021+9999ME1207909REMSYN088AAXX  26111 12851 42980 22207 10112 20052 39003 42790 57002 82039 555 10067 55104 /6753;
0168128510999992000103009004+47860+020010FM-12+101599999V0202101N005010033019N0150001N1+00651+00501999999ADDGA1071+003309059GF107991071051004501999999MA1999999090151MD1810051+9999ME1208049REMSYN076AAXX  30091 12851 42465 72105 10065 20050 39015 42804 58005 875// 333 87611;
0184128510999992000103119004+47860+020010FM-12+101599999V0202101N007010360019N0350001N1+01211+00671999999ADDGA1041+003909069GF106991041051004501031001MA1999999089521MD1110021+9999ME1207429REMSYN092AAXX  31191 12851 42481 62107 10121 20067 38952 42742 51002 84530 333 84613 555 10069 55142;
0212128510999992000110120004+47860+020010FM-12+101599999V0202601N006012200019N0100001N1+00491+00401999999ADDAY161999AY211999GA1021+002409069GF104991021051002501071001MA1999999089411MD1210041+9999ME1207399MW1211REMSYN098AAXX  01201 12851 41360 42606 10049 20040 38941 42739 52004 72161 82570 333 82608 555 10094 55104;
0110128510999992000111203004+47860+020010FM-12+101599999V0202101N004019999999N9999999N1+00211+00131999999ADDMA1999999090781MD1710061+9999ME1208649REMSYN060AAXX  12031 12851 46/// /2104 10021 20013 39078 42864 57006;
0246128510999992000111211004+47860+020010FM-12+101599999V0202001N006010900019N0030001N1+00151+00091999999ADDAY141999AY241999GA1021+002109069GF105991021051002501041021GG1039008009079049MA1999999090621MD1810071+9999ME1208509MW1281REMSYN114AAXX  12111 12851 41330 52006 10015 20009 39062 42850 58007 72844 82542 333 82607 444 37084 555 10095 55121 /6797;
0158128510999992000112319004+47860+020010FM-12+101599999V0201801N007012200019N0600001N1+00431+00281999999ADDGF101991011001999999041021MA1999999089931MD1610041+9999ME1207869REMSYN082AAXX  23191 12851 42986 11807 10043 20028 38993 42786 56004 81042 555 10090 55142;
0196128510999992000112709004+47860+020010FM-12+101599999V0203501N003012200019N0350001N1+00131+00001999999ADDGA1031+002109069GF104991031051002501041021GG1079000009019999MA1999999089581MD1110331+9999ME1207589REMSYN086AAXX  27091 12851 42381 43503 10013 21000 38958 42758 51033 83542 333 83607 444 17100;
0186128510999992000113008004+47860+020010FM-12+101599999V0202001N004012200019N0750001N1+00421-01071999999ADDGF102991011001999999041021GG1049004009079049MA1999999090531MD1210101+9999ME1208409REMSYN092AAXX  30081 12851 42989 22004 10042 21107 39053 42840 52010 81042 444 47044 555 10033 55071;
0186128510999992000120110004+47860+020010FM-12+101599999V0202301N004019999999N0750001N1+00581-00281999999ADDGF107991021001999999041061GG1049006009079009MA1999999090551MD1010001+9999ME1208429REMSYN092AAXX  01101 12851 42989 72304 10058 21028 39055 42842 50000 82046 444 47060 555 10054 55082;
0186128510999992000120222004+47860+020010FM-12+101599999V0202501N007012200019N0500001N1+00411-00331999999ADDGF101991011001999999041001GG1079007009079049MA1999999090311MD1210041+9999ME1208219REMSYN092AAXX  02221 12851 42984 12507 10041 21033 39031 42821 52004 81040 444 77074 555 10059 55083;
0240128510999992000120910004+47860+020010FM-12+101599999V0202301N006010360019N0020001N1+00391+00331999999ADDAY121999AY221999GA1031+001809069GF107991031051001501071999GG1029010009079009MA1999999090181MD1210061+9999ME1208099MW1101REMSYN108AAXX  09101 12851 41220 72306 10039 20033 39018 42809 52006 71022 8357/ 333 83606 444 27100 555 10096 55081;
0212128510999992000121313004+47860+020010FM-12+101599999V0202801N006010360019N0400001N1+00841-00311999999ADDGA1021+004809069GF107991021051004501031091GG1079006009079049MA1999999090121MD1610141+9999ME1208019REMSYN102AAXX  13131 12851 42482 72806 10084 21031 39012 42801 56014 82539 333 82616 444 77064 555 10044 55102;
0164128510999992000122504004+47860+020010FM-12+101599999V0202201N008019999999N0200001N1-00481-00631999999ADDGF108991081001999999071999MA1999999088641MD1710121+9999ME1206809REMSYN088AAXX  25041 12851 42970 82208 11048 21063 38864 42680 57012 8807/ 555 10089 55162 /6649;
0164128510999992000123104004+47860+020010FM-12+101599999V0203201N007012200019N0450001N1-00581-00751999999ADDGF101991011001999999041001MA1999999088791MD1210281+9999ME1206949REMSYN088AAXX  31041 12851 42983 13207 11058 21075 38879 42694 52028 81040 555 10088 55151 /6660;
0144128600999992000010513454+47170+020230FM-15+0094LHSN V0202501N003112200019N0050001N1+00101-00201999999ADDGA1021+009009999GF102991999999999999999999MA1102301999999MW1001REMMET050LHSN 051345Z 25006KT 5000 FEW030 01/M02 Q1023 SCT;EQDQ01+000000PRSWM2
0203128600999992000011113004+47170+020230FM-12+0094LHSN V0200901N002010003019N0001001N1-00351-00391103931ADDAY141011AY241011GA1091+000309999GF109991091999999999999999MA1999999102751MD1810031+9999MW1491REMSYN098AAXX  11131 12860 41/01 90902 11035 21039 30275 40393 58003 74944 333 89/01 555 10097 69900 /7707;
0164128600999992000011412454+47170+020230FM-15+0094LHSN V0200701N002110138019N0026001N1-00201-00301999999ADDGA1071+013809999GF107991999999999999999999MA1102811999999MW1101REMMET054LHSN 141245Z 07004KT 2600 BR BKN046 M02/M03 Q1028 BKN;EQDQ01+000003PRSWM1Q02    003PRSWM1
0107128600999992000012018454+47170+020230FM-15+0094LHSN V0202601N00511220001CN0099001N1+00101-00401999999ADDMA1101801999999MW1001OC100931REMMET047LHSN 201845Z 26010G18KT CAVOK 01/M04 Q1018 OVC;EQDQ01+000000PRSWM2
0149128600999992000012305004+47170+020230FM-12+0094LHSN V0200701N004019999999N0350001N1-00791-01001101201ADDGF106991001001999999001021MA1999999100031MD1610181+9999REMSYN082AAXX  23051 12860 42981 60704 11079 21100 30003 40120 56018 80002 555 10085 /7503;
0108128600999992000012312454+47170+020230FM-15+0094LHSN V0200501N00311220001CN0099001N1-00401-00901999999ADDMA1100911999999MW1001OC100821REMMET048LHSN 231245Z 05006G16KT CAVOK M04/M09 Q1009 BKN;EQDQ01+000000PRSWM2
0097128600999992000012419454+47170+020230FM-15+0094LHSN V0200301N00621220001CN0099001N1-00901-01601999999ADDMA1102001999999MW1001REMMET045LHSN 241945Z 03012KT CAVOK M09/M16 Q1020 SKC;EQDQ01+000000PRSWM2
0097128600999992000012420454+47170+020230FM-15+0094LHSN V0200201N00621220001CN0099001N1-01001-01701999999ADDMA1102001999999MW1001REMMET045LHSN 242045Z 02012KT CAVOK M10/M17 Q1020 SKC;EQDQ01+000000PRSWM2
0159128600999992000012703004+47170+020230FM-12+0094LHSN V0202601N003010090019N0150001N1-00231-00601102681ADDGA1071+009009059GF107991071051008001999999MA1999999101501MD1710051+9999REMSYN076AAXX  27031 12860 42565 72603 11023 21060 30150 40268 57005 875// 333 87630;
0096128600999992000012815454+47170+020230FM-15+0094LHSN V0202501N00311220001CN0099001N1+00101-00601999999ADDMA1102101999999MW1001REMMET044LHSN 281545Z 25006KT CAVOK 01/M06 Q1021 FEW;EQDQ01+000000PRSWM2
0149128600999992000012822004+47170+020230FM-12+0094LHSN V0202501N003012200019N0080001N1-00081-00681102181ADDGF103991001001999999001021MA1999999101031MD1710021+9999REMSYN082AAXX  28221 12860 42958 32503 11008 21068 30103 40218 57002 80002 555 10064 /7578;
0149128600999992000012908004+47170+020230FM-12+0094LHSN V0202001N004019999999N0060001N1-00071-00371101901ADDGF107991061001999999071021MA1999999100751MD1710051+9999REMSYN082AAXX  29081 12860 42956 72004 11007 21037 30075 40190 57005 86072 555 10080 /7557;
0155128600999992000012914004+47170+020230FM-12+0094LHSN V0202001N005012200019N0080001N1+00501-00051101401ADDGF104991031001999999031021MA1999999100281MD1710301+9999REMSYN088AAXX  29141 12860 42958 42005 10050 21005 30028 40140 57030 83032 555 10067 55064 /7522;
0177128600999992000020220004+47170+020230FM-12+0094LHSN V0202401N004012200019N0050001N1+00591+00341101501ADDAY101999AY201999GF103991011001999999041021MA1999999100391MD1510041+9999MW1101REMSYN088AAXX  02201 12860 41950 32404 10059 20034 30039 40150 55004 71000 81042 555 10084 /7530;
0133128600999992000020515004+47170+020230FM-12+0094LHSN V0203001N005019999999N0200001N1+00941+00451102491ADDGF106991051001999999071021MA1999999101371MD1210021+9999REMSYN066AAXX  05151 12860 42970 63005 10094 20045 30137 40249 52002 85072;
0158128600999992000020717454+47170+020230FM-15+0094LHSN V0203401N00311000151CN0001001N1+00401+00401999999ADDGA1091+000159999GF109991999999000251999999MA1102001999999MW1511REMMET048LHSN 071745Z 34006KT 0100 -DZ VV001 04/04 Q1020;EQDQ01+000003PRSWM1Q02    003PRSWM1
0096128600999992000021000454+47170+020230FM-15+0094LHSN V0202601N00311220001CN0099001N1+00101-00201999999ADDMA1102001999999MW1001REMMET044LHSN 100045Z 26006KT CAVOK 01/M02 Q1020 FEW;EQDQ01+000000PRSWM2
0133128600999992000021003004+47170+020230FM-12+0094LHSN V0202801N003012200019N0250001N1+00161-00201102091ADDGF102991001001999999001021MA1999999100951MD1210011+9999REMSYN066AAXX  10031 12860 42975 22803 10016 21020 30095 40209 52001 80002;
0113128600999992000021108454+47170+020230FM-15+0094LHSN V0202201N002112200019N0020001N1+00301+00101999999ADDMA1102611999999MW1101REMMET045LHSN 110845Z 22004KT 2000 BR 03/01 Q1026 SCT;EQDQ01+000003PRSWM1Q02    003PRSWM1
0181128600999992000021411004+47170+020230FM-12+0094LHSN V0203001N006012200019N0350001N1+00671-00281101871ADDGA1031+012009089GF103991031011012501001001MA1999999100751MD1710051+9999REMSYN098AAXX  14111 12860 42681 33006 10067 21028 30075 40187 57005 83100 333 83840 555 10050 55121 /7557;
0237128600999992000021423004+47170+020230FM-12+0094LHSN V0203501N00501012001CN0070001N1+00011-00101102121ADDAY181999AY221999GA1021+009909089GA2031+012009069GF106991041081012501071001MA1999999100981MD1310251+9999MW1851REMSYN116AAXX  14231 12860 41657 63505 10001 21010 30098 40212 53025 78582 84870 333 82833 83640 555 10093 55131 69906 /7574;
0175128600999992000021501004+47170+020230FM-12+0094LHSN V0203201N002012200019N0200001N1-00091-00221102161ADDGA1021+014109069GF102991021051012501001001MA1999999101021MD1210151+9999REMSYN092AAXX  15011 12860 42670 23202 11009 21022 30102 40216 52015 82500 333 82647 555 10090 /7577;
0107128600999992000021721454+47170+020230FM-15+0094LHSN V0203101N00311220001CN0099001N1+00101-00201999999ADDMA1100611999999MW1001OC101441REMMET047LHSN 172145Z 31006G28KT CAVOK 01/M02 Q1006 FEW;EQDQ01+000000PRSWM2
0155128600999992000021722004+47170+020230FM-12+0094LHSN V0203101N003012200019N0150001N1+00121-00211100641ADDGF102991001001999999001021MA1999999099521MD1210131+9999REMSYN088AAXX  17221 12860 42965 23103 10012 21021 39952 40064 52013 80002 555 10079 55141 /7465;
0187128600999992000022003004+47170+020230FM-12+0094LHSN V0200601N001010123019N0025001N1+00061-00031101051ADDAY121031AY221031GA1071+012309059GF107991071051012501999999MA1999999099921MD1010011+9999MW1101REMSYN082AAXX  20031 12860 41625 70601 10006 21003 39992 40105 50001 71022 875// 333 87641;
0159128600999992000022015004+47170+020230FM-12+0094LHSN V0203601N002010360019N0090001N1+00441+00121101391ADDGA1041+006009029GF108991041021008001071999MA1999999100231MD1210051+9999REMSYN076AAXX  20151 12860 42559 83602 10044 20012 30023 40139 52005 8427/ 333 84820;
0177128600999992000022207004+47170+020230FM-12+0094LHSN V0203101N003012200019N0050001N1-00271-00491102801ADDAY101011AY201011GF102991011001999999081021MA1999999101631MD1310111+9999MW1101REMSYN088AAXX  22071 12860 41950 23103 11027 21049 30163 40280 53011 71000 81082 555 10085 /7623;
0149128600999992000022323004+47170+020230FM-12+0094LHSN V0202001N002019999999N0080001N1+00001-00451102831ADDGF107991071001999999071999MA1999999101671MD1210061+9999REMSYN082AAXX  23231 12860 42958 72002 10000 21045 30167 40283 52006 8707/ 555 10072 /7626;
0181128600999992000022520004+47170+020230FM-12+0094LHSN V0202501N004010099019N0100001N1+00741+00021101811ADDGA1071+009909069GF108991071051012501999999MA1999999100691MD1310021+9999REMSYN098AAXX  25201 12860 42660 82504 10074 20002 30069 40181 53002 875// 333 87633 555 10060 55091 /7552;
0158128600999992000022612454+47170+020230FM-15+0094LHSN V0203201N007212200019N0112651N1+00801-00401999999ADDGA1021+015009029GF104991999999999999999999MA1103011999999MW1001OC101231REMMET056LHSN 261245Z 32014G24KT 9999 SCT050TCU 08/M04 Q1030 BKN;EQDQ01+000000PRSWM2
0163128600999992000022700004+47170+020230FM-12+0094LHSN V0203001N002012200019N0100001N1+00051-00261103171ADDAA199000091GF101991011001999999041001MA1999999102011MD1210021+9999REMSYN066AAXX  27001 12860 32960 13002 10005 21026 30201 40317 52002 81040;EQDQ01  00002PRCP99
0107128600999992000030101454+47170+020230FM-15+0094LHSN V0201901N00621220001CN0099001N1+00101-00601999999ADDMA1101591999999MW1001OC100821REMMET047LHSN 010145Z 19012G16KT CAVOK 01/M06 Q1016 FEW;EQDQ01+000000PRSWM2
0174128600999992000030218454+47170+020230FM-15+0094LHSN V0203201N002110090019N0112651N1+00501+00201999999ADDGA1071+009009999GF107991999999999999999999MA1101691999999MW1611OC100821REMMET056LHSN 021845Z 32004G16KT 9999 -RA BKN030 05/02 Q1017 BKN;EQDQ01+000003PRSWM1Q02    003PRSWM1
0107128600999992000030410454+47170+020230FM-15+0094LHSN V0202601N00621220001CN0099001N1+01001-00101999999ADDMA1101021999999MW1001OC101441REMMET047LHSN 041045Z 26012G28KT CAVOK 10/M01 Q1010 BKN;EQDQ01+000000PRSWM2
0243128600999992000030906004+47170+020230FM-12+0094LHSN V0202601N006010105019N0120001N1+01001+00441101401ADDAA112000791AY161061AY221061GA1051+010509059GF107991051051012501071999GJ101749KA1120N+00951MA1999999100301MD1510071+9999MW1031REMSYN106AAXX  09061 12860 11662 72606 10100 20044 30030 40140 55007 69902 70362 8557/ 333 20095 55029 79999 85635;
0107128600999992000031012454+47170+020230FM-15+0094LHSN V0203201N01031220001CN0099001N1+00901-00601999999ADDMA1101691999999MW1001OC101541REMMET047LHSN 101245Z 32020G30KT CAVOK 09/M06 Q1017 SCT;EQDQ01+000000PRSWM2
0235128600999992000031706004+47170+020230FM-12+0094LHSN V0202501N001019999999N0150001N1-00201-00501101671ADDAA124004191AJ199992999999999GF105991001001999999001021GJ100009IA1309KA1120N-00291MA1999999100521MD1810211+9999REMSYN094AAXX  17061 12860 32965 52501 11020 21050 30052 40167 58021 80002 333 21029 42998 55000 70040;EQDQ01  09972SNDP  
0096128600999992000032107454+47170+020230FM-15+0094LHSN V0203101N00311220001CN0099001N1+00301-00201999999ADDMA1102201999999MW1001REMMET044LHSN 210745Z 31006KT CAVOK 03/M02 Q1022 FEW;EQDQ01+000000PRSWM2
0159128600999992000032119004+47170+020230FM-12+0094LHSN V0202101N001012200019N0100001N1+00381-00151102201ADDGA1001+999999999GF100991001001999999001001MA1999999101081MD1110101+9999REMSYN076AAXX  21191 12860 42960 02101 10038 21015 30108 40220 51010 555 10068 /7582;
0133128600999992000032415004+47170+020230FM-12+0094LHSN V0209999V001019999999N0100001N1+01581+00401101271ADDGF107991071001999999071999MA1999999100191MD1610061+9999REMSYN066AAXX  24151 12860 42960 79901 10158 20040 30019 40127 56006 8707/;
0187128600999992000032601004+47170+020230FM-12+0094LHSN V0202501N002012200019N0008001N1+00401+00301101851ADDAY141011AY241011GA1001+999999999GF100991001001999999001001MA1999999100721MD1410001+9999MW1421REMSYN082AAXX  26011 12860 41908 02502 10040 20030 30072 40185 54000 74244 555 10093 /7555;
0095128600999992000032818454+47170+020230FM-15+0094LHSN V0201801N00211220001CN0099001N1+01101+00601999999ADDMA1101391999999MW1001REMMET043LHSN 281845Z 18004KT CAVOK 11/06 Q1014 BKN;EQDQ01+000000PRSWM2
0209128600999992000032819004+47170+020230FM-12+0094LHSN V0201801N00201036001CN0300001N1+01071+00581101451ADDAY181011AY221011GA1041+018009069GF107991041051017501071999MA1999999100351MD1210171+9999MW1251REMSYN104AAXX  28191 12860 41780 71802 10107 20058 30035 40145 52017 72582 8457/ 333 84656 555 10071 69900 /7527;
0149128600999992000032907004+47170+020230FM-12+0094LHSN V0201001N004012200019N0130001N1+01051+00811101551ADDGF104991021001999999081021MA1999999100441MD1110031+9999REMSYN082AAXX  29071 12860 42963 41004 10105 20081 30044 40155 51003 82082 555 10085 /7534;
0155128600999992000032920004+47170+020230FM-12+0094LHSN V0200801N008019999999N0200001N1+01221+00901101031ADDGF107991071001999999071999MA1999999099941MD1810131+9999REMSYN088AAXX  29201 12860 42970 70808 10122 20090 39994 40103 58013 8707/ 555 10081 55122 /7496;
0237128600999992000033017004+47170+020230FM-12+0094LHSN V0202301N00401036001CN0300001N1+01191+00041100981ADDAY181999AY221999GA1011+012009099GA2031+015009089GF105991041091012501061031MA1999999099901MD1310031+9999MW1251REMSYN116AAXX  30171 12860 41680 52304 10119 20004 39990 40098 53003 72582 84963 333 81940 83850 555 10045 55113 69900 /7493;
0095128600999992000040316454+47170+020230FM-15+0094LHSN V0201201N00311220001CN0099001N1+01201+00901999999ADDMA1100411999999MW1001REMMET043LHSN 031645Z 12006KT CAVOK 12/09 Q1004 BKN;EQDQ01+000000PRSWM2
0223128600999992000040418004+47170+020230FM-12+0094LHSN V0201601N00101036001CN0150001N1+01551+00981100101ADDAA112000791AY181061AY221061GA1021+018009029GF107991021021017501071999KA1120M+02011MA1999999099021MD1310011+9999MW1801REMSYN094AAXX  04181 12860 11765 71601 10155 20098 39902 40010 53001 69902 78082 8227/ 333 10201 82856;
0106128600999992000040606454+47170+020230FM-15+0094LHSN V0203101N00931220001CN0099001N1+00701+00101999999ADDMA1100511999999MW1001OC101441REMMET046LHSN 060645Z 31018G28KT CAVOK 07/01 Q1005 OVC;EQDQ01+000000PRSWM2
0189128600999992000040712004+47170+020230FM-12+0094LHSN V0203201N004012200019N0400001N1+00991-00881102121ADDAA199000091GA1011+024009029GF103991011011022501001021MA1999999101011MD1810131+9999REMSYN076AAXX  07121 12860 32882 33204 10099 21088 30101 40212 58013 81102 333 81858;EQDQ01  00002PRCP99
0095128600999992000041118454+47170+020230FM-15+0094LHSN V0201701N00311220001CN0099001N1+00701+00301999999ADDMA1100511999999MW1001REMMET043LHSN 111845Z 17006KT CAVOK 07/03 Q1005 FEW;EQDQ01+000000PRSWM2
0106128600999992000041508454+47170+020230FM-15+0094LHSN V0201701N00511220001CN0099001N1+01901+00801999999ADDMA1100711999999MW1001OC100721REMMET046LHSN 150845Z 17010G14KT CAVOK 19/08 Q1007 BKN;EQDQ01+000000PRSWM2
0095128600999992000041822454+47170+020230FM-15+0094LHSN V0201201N00101220001CN0099001N1+01401+01001999999ADDMA1100611999999MW1001REMMET043LHSN 182245Z 12002KT CAVOK 14/10 Q1006 SKC;EQDQ01+000000PRSWM2
0149128600999992000041905004+47170+020230FM-12+0094LHSN V0200201N001012200019N0070001N1+01211+01011100621ADDGF101991001001999999001021MA1999999099541MD1310071+9999REMSYN082AAXX  19051 12860 42957 10201 10121 20101 39954 40062 53007 80002 555 10088 /7466;
0095128600999992000042215454+47170+020230FM-15+0094LHSN V0200301N00211220001CN0099001N1+02401+00601999999ADDMA1101391999999MW1001REMMET043LHSN 221545Z 03004KT CAVOK 24/06 Q1014 SKC;EQDQ01+000000PRSWM2
0159128600999992000042222004+47170+020230FM-12+0094LHSN V0203101N001012200019N0150001N1+01441+00891101531ADDGA1001+999999999GF100991001001999999001001MA1999999100441MD1210051+9999REMSYN076AAXX  22221 12860 42965 03101 10144 20089 30044 40153 52005 555 10069 /7534;
0231128600999992000042514004+47170+020230FM-12+0094LHSN V0203001N002010360019N0140001N1+01661+01331101051ADDAY191999AY281999GA1011+003909099GA2021+003909089GF107991021091004501061031MA1999999099981MD1810011+9999MW1291REMSYN110AAXX  25141 12860 41464 73002 10166 20133 39998 40105 58001 72998 82963 333 81913 82813 555 10081 69900 /7499;
0197128600999992000042716004+47170+020230FM-12+0094LHSN V0200601N003012200019N0250001N1+02241+01241101591ADDGA1011+015009099GA2011+015009089GF103991021091017501061021MA1999999100531MD1710081+9999REMSYN098AAXX  27161 12860 42775 30603 10224 20124 30053 40159 57008 82962 333 81950 81850 555 10053 /7540;
0095128600999992000042806454+47170+020230FM-15+0094LHSN V0200601N00211220001CN0099001N1+01701+01201999999ADDMA1101801999999MW1001REMMET043LHSN 280645Z 06004KT CAVOK 17/12 Q1018 FEW;EQDQ01+000000PRSWM2
0175128600999992000042811004+47170+020230FM-12+0094LHSN V0201101N003010900019N0150001N1+02221+01151101751ADDGA1021+012909089GF105991021021012501001021MA1999999100691MD1810031+9999REMSYN092AAXX  28111 12860 42665 51103 10222 20115 30069 40175 58003 82202 333 82843 555 10051 /7552;
0149128600999992000042820004+47170+020230FM-12+0094LHSN V0201301N001012200019N0250001N1+01641+01081101701ADDGF103991001001999999001021MA1999999100621MD1110121+9999REMSYN082AAXX  28201 12860 42975 31301 10164 20108 30062 40170 51012 80002 555 10069 /7547;
0149128600999992000050504004+47170+020230FM-12+0094LHSN V0202601N001012200019N0080001N1+01011+00791101971ADDGF102991001001999999001021MA1999999100861MD1210021+9999REMSYN082AAXX  05041 12860 42958 22601 10101 20079 30086 40197 52002 80002 555 10086 /7565;
0159128600999992000050601004+47170+020230FM-12+0094LHSN V0203201N002012200019N0200001N1+01361+00511101801ADDGA1001+999999999GF100991001001999999001001MA1999999100711MD1810011+9999REMSYN076AAXX  06011 12860 42970 03202 10136 20051 30071 40180 58001 555 10057 /7554;
0095128600999992000050605454+47170+020230FM-15+0094LHSN V0203101N00101220001CN0099001N1+01701+00801999999ADDMA1101901999999MW1001REMMET043LHSN 060545Z 31002KT CAVOK 17/08 Q1019 SKC;EQDQ01+000000PRSWM2
0095128600999992000051207454+47170+020230FM-15+0094LHSN V0201301N00311220001CN0099001N1+02501+01401999999ADDMA1101491999999MW1001REMMET043LHSN 120745Z 13006KT CAVOK 25/14 Q1015 SKC;EQDQ01+000000PRSWM2
0143128600999992000051721004+47170+020230FM-12+0094LHSN V0202301N002012200019N0300001N1+01931+00951101221ADDGA1001+999999999GF100991001001999999001001MA1999999100151MD1210011+9999REMSYN060AAXX  17211 12860 42980 02302 10193 20095 30015 40122 52001;
0095128600999992000052005454+47170+020230FM-15+0094LHSN V0203001N00311220001CN0099001N1+01301+00901999999ADDMA1100911999999MW1001REMMET043LHSN 200545Z 30006KT CAVOK 13/09 Q1009 FEW;EQDQ01+000000PRSWM2
0157128600999992000052308454+47170+020230FM-15+0094LHSN V0202801N006212200019N0112651N1+01501+00801999999ADDGA1021+009009029GF104991999999999999999999MA1101691999999MW1001OC101131REMMET055LHSN 230845Z 28012G22KT 9999 SCT030TCU 15/08 Q1017 BKN;EQDQ01+000000PRSWM2
0177128600999992000052314454+47170+020230FM-15+0094LHSN V0203501N001010120019N0112651N1+01701+00901999999ADDGA1021+009909999GA2071+012009999GF107991999999999999999999MA1101691999999MW1001OC100821REMMET059LHSN 231445Z 35002G16KT 9999 FEW033 BKN040 17/09 Q1017 BKN;EQDQ01+000000PRSWM2
0155128600999992000052319004+47170+020230FM-12+0094LHSN V0203601N001012200019N0300001N1+01341+00891101871ADDGF103991021001999999061021MA1999999100781MD1310131+9999REMSYN088AAXX  23191 12860 42980 33601 10134 20089 30078 40187 53013 82062 555 10074 55072 /7559;
0133128600999992000052703004+47170+020230FM-12+0094LHSN V0201401N001012200019N0150001N1+01361+01021101691ADDGF102991001001999999001021MA1999999100601MD1510041+9999REMSYN066AAXX  27031 12860 42965 21401 10136 20102 30060 40169 55004 80002;
0149128600999992000060302004+47170+020230FM-12+0094LHSN V0209999C000012200019N0150001N1+01171+00691102321ADDGF101991001001999999001021MA1999999101221MD1810081+9999REMSYN082AAXX  03021 12860 42965 10000 10117 20069 30122 40232 58008 80002 555 10072 /7592;
0192128600999992000060406004+47170+020230FM-12+0094LHSN V0209999C000012200019N0150001N1+02291+01061102021ADDAA199000091GF101991001001999999001021KA1120N+01301MA1999999100961MD1310011+9999REMSYN082AAXX  04061 12860 32965 10000 10229 20106 30096 40202 53001 80002 333 20130 55109;EQDQ01  00002PRCP99
0155128600999992000060717004+47170+020230FM-12+0094LHSN V0203301N006019999999N0250001N1+01941+00721101721ADDGF106991041001999999071021MA1999999100651MD1210221+9999REMSYN088AAXX  07171 12860 42975 63306 10194 20072 30065 40172 52022 84072 555 10045 55142 /7549;
0149128600999992000061311004+47170+020230FM-12+0094LHSN V0201001N002019999999N0150001N1+03231+01451102411ADDGF105991021001999999081021MA1999999101371MD1810051+9999REMSYN082AAXX  13111 12860 42965 51002 10323 20145 30137 40241 58005 82082 555 10034 /7603;
0149128600999992000061405004+47170+020230FM-12+0094LHSN V0200501N001012200019N0100001N1+02231+01721102081ADDGF103991021001999999081021MA1999999101021MD1510021+9999REMSYN082AAXX  14051 12860 42960 30501 10223 20172 30102 40208 55002 82082 555 10072 /7577;
0159128600999992000062020004+47170+020230FM-12+0094LHSN V0201901N001012200019N0300001N1+02211+00921101881ADDGA1001+999999999GF100991001001999999001001MA1999999100821MD1410001+9999REMSYN076AAXX  20201 12860 42980 01901 10221 20092 30082 40188 54000 555 10043 /7562;
0159128600999992000062223004+47170+020230FM-12+0094LHSN V0202301N002012200019N0300001N1+02331+01241101381ADDGA1001+999999999GF100991001001999999001001MA1999999100331MD1710011+9999REMSYN076AAXX  22231 12860 42980 02302 10233 20124 30033 40138 57001 555 10050 /7525;
0106128600999992000062415454+47170+020230FM-15+0094LHSN V0202801N00511220001CN0099001N1+02801+01001999999ADDMA1101021999999MW1001OC100931REMMET046LHSN 241545Z 28010G18KT CAVOK 28/10 Q1010 FEW;EQDQ01+000000PRSWM2
0095128600999992000062608454+47170+020230FM-15+0094LHSN V0202601N00101220001CN0099001N1+01901+01101999999ADDMA1101591999999MW1001REMMET043LHSN 260845Z 26002KT CAVOK 19/11 Q1016 SCT;EQDQ01+000000PRSWM2
0106128600999992000062705454+47170+020230FM-15+0094LHSN V0203101N00621220001CN0099001N1+01601+00501999999ADDMA1101901999999MW1001OC100931REMMET046LHSN 270545Z 31012G18KT CAVOK 16/05 Q1019 FEW;EQDQ01+000000PRSWM2
0197128600999992000062814004+47170+020230FM-12+0094LHSN V0202001N00401036001CN0350001N1+02321+00421101381ADDGA1011+021009089GA2031+021009069GF106991041041022501061021MA1999999100331MD1610211+9999REMSYN098AAXX  28141 12860 42881 62004 10232 20042 30033 40138 56021 84462 333 81857 83657 555 10029 /7525;
0175128600999992000062911004+47170+020230FM-12+0094LHSN V0203001N003012200019N0350001N1+02461+00211101351ADDGA1031+021009089GF104991031011022501041001MA1999999100301MD1810091+9999REMSYN092AAXX  29111 12860 42881 43003 10246 20021 30030 40135 58009 83140 333 83857 555 10023 /7523;
0143128600999992000070203004+47170+020230FM-12+0094LHSN V0202301N002012200019N0200001N1+01931+01291101331ADDGA1001+999999999GF100991001001999999001001MA1999999100261MD1710021+9999REMSYN060AAXX  02031 12860 42970 02302 10193 20129 30026 40133 57002;
0095128600999992000070223454+47170+020230FM-15+0094LHSN V0201501N00101220001CN0099001N1+01901+01501999999ADDMA1101291999999MW1001REMMET043LHSN 022345Z 15002KT CAVOK 19/15 Q1013 SKC;EQDQ01+000000PRSWM2
0095128600999992000070605454+47170+020230FM-15+0094LHSN V0202901N00311220001CN0099001N1+02201+01201999999ADDMA1101801999999MW1001REMMET043LHSN 060545Z 29006KT CAVOK 22/12 Q1018 BKN;EQDQ01+000000PRSWM2
0133128600999992000070621004+47170+020230FM-12+0094LHSN V0203001N002012200019N0350001N1+02261+00721101691ADDGF101991001001999999001021MA1999999100631MD1210121+9999REMSYN066AAXX  06211 12860 42981 13002 10226 20072 30063 40169 52012 80002;
0149128600999992000072607004+47170+020230FM-12+0094LHSN V0202301N004012200019N0200001N1+02531+01541100901ADDGF104991021001999999081021MA1999999099861MD1210021+9999REMSYN082AAXX  26071 12860 42970 42304 10253 20154 39986 40090 52002 82082 555 10054 /7490;
0181128600999992000072610004+47170+020230FM-12+0094LHSN V0202501N006012200019N0300001N1+03011+01311100791ADDGA1011+018009089GF103991011011017501081021MA1999999099771MD1810091+9999REMSYN098AAXX  26101 12860 42780 32506 10301 20131 39977 40079 58009 81182 333 81856 555 10035 55113 /7483;
0159128600999992000072623004+47170+020230FM-12+0094LHSN V0202901N004012200019N0160001N1+01841+01481101111ADDGA1001+999999999GF100991001001999999001001MA1999999100041MD1210131+9999REMSYN076AAXX  26231 12860 42966 02904 10184 20148 30004 40111 52013 555 10080 /7504;
0094128600999992000080101454+47170+020230FM-15+0094LHSN V0203101N002112200019N0060001N1+01401+01301999999ADDMA1102301999999MW1001REMMET042LHSN 010145Z 31004KT 6000 14/13 Q1023 SCT;EQDQ01+000000PRSWM2
0159128600999992000080413004+47170+020230FM-12+0094LHSN V0202701N003012200019N0300001N1+03051+01501101621ADDGA1001+999999999GF100991001001999999001001MA1999999100591MD1710061+9999REMSYN076AAXX  04131 12860 42980 02703 10305 20150 30059 40162 57006 555 10039 /7545;
0186128600999992000080518004+47170+020230FM-12+0094LHSN V0200201N004012200019N0300001N1+02571+01511101591ADDAA199000091GF103991011001999999081021KA1999M+03081MA1999999100541MD1510011+9999REMSYN076AAXX  05181 12860 32980 30204 10257 20151 30054 40159 55001 81082 333 10308;EQDQ01  00002PRCP99
0181128600999992000080714004+47170+020230FM-12+0094LHSN V0202801N004012200019N0150001N1+02651+01501101381ADDGA1021+009909089GF105991021021008001081091MA1999999100341MD1710081+9999REMSYN098AAXX  07141 12860 42565 52804 10265 20150 30034 40138 57008 82289 333 82833 555 10049 55084 /7526;
0163128600999992000081300004+47170+020230FM-12+0094LHSN V0209999C000012200019N0250001N1+02011+01341101541ADDAA199000091GF103991031001999999081021MA1999999100481MD1210081+9999REMSYN066AAXX  13001 12860 32975 30000 10201 20134 30048 40154 52008 83082;EQDQ01  00002PRCP99
0157128600999992000081306454+47170+020230FM-15+0094LHSN V0200901N004112200019N0112651N1+02401+01401999999ADDGA1021+018009029GF102991999999999999999999MA1101691999999MW1001OC100821REMMET055LHSN 130645Z 09008G16KT 9999 FEW060TCU 24/14 Q1017 BKN;EQDQ01+000000PRSWM2
0237128600999992000081317004+47170+020230FM-12+0094LHSN V0200701N00601036001CN0350001N1+02671+00921101621ADDAY191999AY281999GA1021+015009099GA2021+015009089GF105991031091017501061031MA1999999100581MD1310021+9999MW1291REMSYN116AAXX  13171 12860 41781 50706 10267 20092 30058 40162 53002 72998 83963 333 82950 82850 555 10033 55152 61060 /7544;
0143128600999992000081721004+47170+020230FM-12+0094LHSN V0202401N001012200019N0150001N1+02321+01521101471ADDGA1001+999999999GF100991001001999999001001MA1999999100421MD1210111+9999REMSYN060AAXX  17211 12860 42965 02401 10232 20152 30042 40147 52011;
0095128600999992000081813454+47170+020230FM-15+0094LHSN V0202301N00211220001CN0099001N1+03601+00901999999ADDMA1101591999999MW1001REMMET043LHSN 181345Z 23004KT CAVOK 36/09 Q1016 FEW;EQDQ01+000000PRSWM2
0095128600999992000082017454+47170+020230FM-15+0094LHSN V0201701N00211220001CN0099001N1+03101+00901999999ADDMA1101391999999MW1001REMMET043LHSN 201745Z 17004KT CAVOK 31/09 Q1014 SKC;EQDQ01+000000PRSWM2
0095128600999992000082110454+47170+020230FM-15+0094LHSN V0202001N00511220001CN0099001N1+03601+01001999999ADDMA1101391999999MW1001REMMET043LHSN 211045Z 20010KT CAVOK 36/10 Q1014 SKC;EQDQ01+000000PRSWM2
0165128600999992000082114004+47170+020230FM-12+0094LHSN V0202001N006012200019N0200001N1+03791+00801101121ADDGA1001+999999999GF100991001001999999001001MA1999999100121MD1710171+9999REMSYN082AAXX  21141 12860 42970 02006 10379 20080 30012 40112 57017 555 10016 55094 /7510;
0143128600999992000082203004+47170+020230FM-12+0094LHSN V0202001N003012200019N0180001N1+02201+01141101171ADDGA1001+999999999GF100991001001999999001001MA1999999100111MD1710011+9999REMSYN060AAXX  22031 12860 42968 02003 10220 20114 30011 40117 57001;
0159128600999992000082302004+47170+020230FM-12+0094LHSN V0200201N002012200019N0250001N1+01981+01451101731ADDGA1001+999999999GF100991001001999999001001MA1999999100671MD1310071+9999REMSYN076AAXX  23021 12860 42975 00202 10198 20145 30067 40173 53007 555 10071 /7551;
0133128600999992000083021004+47170+020230FM-12+0094LHSN V0202301N001012200019N0160001N1+01791+01141101351ADDGF102991001001999999001021MA1999999100281MD1710041+9999REMSYN066AAXX  30211 12860 42966 22301 10179 20114 30028 40135 57004 80002;
0199128600999992000083123454+47170+020230FM-15+0094LHSN V0203201N005112200019N0060001N1+01701+01501999999ADDGA1021+009009999GA2021+012009999GF104991999999999999999999MA1100511999999MW1801OC100931REMMET065LHSN 312345Z 32010G18KT 6000 -SHRA SCT030 SCT040 17/15 Q1005 OVC;EQDQ01+000003PRSWM1Q02    003PRSWM1
0095128600999992000090319454+47170+020230FM-15+0094LHSN V0202401N00211220001CN0099001N1+01501+01001999999ADDMA1101021999999MW1001REMMET043LHSN 031945Z 24004KT CAVOK 15/10 Q1010 SKC;EQDQ01+000000PRSWM2
0220128600999992000090906004+47170+020230FM-12+0094LHSN V0209999C000012200019N0050001N1+01091+00881102791ADDAA199000091AY101061AY201061GF103991001001999999001021KA1120N+00851MA1999999101681MD1210141+9999MW1101REMSYN088AAXX  09061 12860 31950 30000 10109 20088 30168 40279 52014 71000 80002 333 20085 55109;EQDQ01  00002PRCP99
0095128600999992000091008454+47170+020230FM-15+0094LHSN V0200401N00311220001CN0099001N1+02101+00801999999ADDMA1102611999999MW1001REMMET043LHSN 100845Z 04006KT CAVOK 21/08 Q1026 FEW;EQDQ01+000000PRSWM2
0095128600999992000091207454+47170+020230FM-15+0094LHSN V0200101N00211220001CN0099001N1+02101+01301999999ADDMA1101591999999MW1001REMMET043LHSN 120745Z 01004KT CAVOK 21/13 Q1016 SKC;EQDQ01+000000PRSWM2
0181128600999992000091916004+47170+020230FM-12+0094LHSN V0200501N005012200019N0300001N1+01741+00991101201ADDGA1031+021009069GF103991031051022501001021MA1999999100131MD1510031+9999REMSYN098AAXX  19161 12860 42880 30505 10174 20099 30013 40120 55003 83502 333 83657 555 10061 55074 /7510;
0175128600999992000092213004+47170+020230FM-12+0094LHSN V0200301N004010108019N0300001N1+01821+00961101801ADDGA1051+010809069GF107991051051012501071999MA1999999100731MD1210121+9999REMSYN092AAXX  22131 12860 42680 70304 10182 20096 30073 40180 52012 8557/ 333 85636 555 10057 /7555;
0166128600999992000092413454+47170+020230FM-15+0094LHSN V0203501N001010090019N0112651N1+01301+01001999999ADDGA1021+003909999GA2071+009009999GF107991999999999999999999MA1102511999999MW1001REMMET056LHSN 241345Z 35002KT 9999 SCT013 BKN030 13/10 Q1025 OVC;EQDQ01+000000PRSWM2
0178128600999992000092615004+47170+020230FM-12+0094LHSN V0200201N001012200019N0350001N1+01941+00571102461ADDGA1011+018009059GF102991011041017501999021MA1999999101381MD1610071+9999REMSYN076AAXX  26151 12860 42781 20201 10194 20057 30138 40246 56007 81402 333 81656;EQDQ01+000002SCOMCG
0149128600999992000092707004+47170+020230FM-12+0094LHSN V0209999C000012200019N0100001N1+01131+00701102611ADDGF103991001001999999001021MA1999999101501MD1110081+9999REMSYN082AAXX  27071 12860 42960 30000 10113 20070 30150 40261 51008 80002 555 10075 /7613;
0106128600999992000093012454+47170+020230FM-15+0094LHSN V0201601N00721220001CN0099001N1+02401+00701999999ADDMA1101491999999MW1001OC101031REMMET046LHSN 301245Z 16014G20KT CAVOK 24/07 Q1015 FEW;EQDQ01+000000PRSWM2
0124128600999992000100804454+47170+020230FM-15+0094LHSN V0203101N002112200019N0050001N1+01301+01101999999ADDMA1101591999999MW1101OC100721REMMET048LHSN 080445Z 31004G14KT 5000 BR 13/11 Q1016 BKN;EQDQ01+000003PRSWM1Q02    003PRSWM1
0187128600999992000101106004+47170+020230FM-12+0094LHSN V0201501N005019999999N0120001N1+01011+00651100621ADDAA124000791GF107991061001999999071021GJ100009KA1120N+00901MA1999999099531MD1710041+9999REMSYN088AAXX  11061 12860 32962 71505 10101 20065 39953 40062 57004 86072 333 20090 55000 79999;
0095128600999992000101902454+47170+020230FM-15+0094LHSN V0202001N00211220001CN0099001N1+01101+00801999999ADDMA1102301999999MW1001REMMET043LHSN 190245Z 20004KT CAVOK 11/08 Q1023 BKN;EQDQ01+000000PRSWM2
0175128600999992000101911004+47170+020230FM-12+0094LHSN V0201901N003010150019N0150001N1+01411+00601102531ADDGA1071+015009069GF107991071051017501999999MA1999999101431MD1010051+9999REMSYN092AAXX  19111 12860 42765 71903 10141 20060 30143 40253 50005 875// 333 87650 555 10058 /7608;
0143128600999992000103001454+47170+020230FM-15+0094LHSN V0201501N002110135019N0112651N1+00801+00401999999ADDGA1071+013509999GF107991999999999999999999MA1102001999999MW1001REMMET049LHSN 300145Z 15004KT 9999 BKN045 08/04 Q1020 BKN;EQDQ01+000000PRSWM2
0157128600999992000110308454+47170+020230FM-15+0094LHSN V0201701N00311000151CN0007001N1+00901+00901999999ADDGA1091+000159999GF109991999999000251999999MA1101391999999MW1451REMMET047LHSN 030845Z 17006KT 0700 FG VV001 09/09 Q1014;EQDQ01+000003PRSWM1Q02    003PRSWM1
0106128600999992000110717454+47170+020230FM-15+0094LHSN V0201901N00511220001CN0099001N1+01101+01001999999ADDMA1100001999999MW1001OC101131REMMET046LHSN 071745Z 19010G22KT CAVOK 11/10 Q1000 BKN;EQDQ01+000000PRSWM2
0094128600999992000111019454+47170+020230FM-15+0094LHSN V0202601N002112200019N0060001N1+00601+00401999999ADDMA1102301999999MW1001REMMET042LHSN 101945Z 26004KT 6000 06/04 Q1023 FEW;EQDQ01+000000PRSWM2
0171128600999992000111209004+47170+020230FM-12+0094LHSN V0201401N002012200019N0050001N1+00341+99999102781ADDAY141031AY241031GA1001+999999999GF100991001001999999001001MA1999999101641MD1810041+9999MW1281REMSYN066AAXX  12091 12860 41950 01402 10034 20036 30164 40278 58004 72844;
0155128600999992000111416004+47170+020230FM-12+0094LHSN V0201801N005019999999N0130001N1+01621+00811101321ADDGF105991021001999999041021MA1999999100241MD1710011+9999REMSYN088AAXX  14161 12860 42963 51805 10162 20081 30024 40132 57001 82042 555 10059 55073 /7519;
0095128600999992000111420454+47170+020230FM-15+0094LHSN V0202001N00311220001CN0099001N1+01201+00701999999ADDMA1101491999999MW1001REMMET043LHSN 142045Z 20006KT CAVOK 12/07 Q1015 FEW;EQDQ01+000000PRSWM2
0095128600999992000111509454+47170+020230FM-15+0094LHSN V0202101N00211220001CN0099001N1+01601+00801999999ADDMA1101801999999MW1001REMMET043LHSN 150945Z 21004KT CAVOK 16/08 Q1018 BKN;EQDQ01+000000PRSWM2
0161128600999992000111703004+47170+020230FM-12+0094LHSN V0200601N003012200019N0020001N1+00671+00591101721ADDAY101031AY201031GF104991031001999999031021MA1999999100601MD1510071+9999MW1101REMSYN072AAXX  17031 12860 41920 40603 10067 20059 30060 40172 55007 71000 83032;
0177128600999992000111822004+47170+020230FM-12+0094LHSN V0203201N003019999999N0030001N1+00651+00551101611ADDAY121999AY221999GF106991041001999999071021MA1999999100491MD1110071+9999MW1101REMSYN088AAXX  18221 12860 41930 63203 10065 20055 30049 40161 51007 71022 84072 555 10093 /7537;
0113128600999992000112106454+47170+020230FM-15+0094LHSN V0201401N002112200019N0040001N1+00601+00401999999ADDMA1101391999999MW1101REMMET045LHSN 210645Z 14004KT 4000 BR 06/04 Q1014 SCT;EQDQ01+000003PRSWM1Q02    003PRSWM1
0095128600999992000112319454+47170+020230FM-15+0094LHSN V0201801N00411220001CN0099001N1+00701+00401999999ADDMA1101691999999MW1001REMMET043LHSN 231945Z 18008KT CAVOK 07/04 Q1017 SKC;EQDQ01+000000PRSWM2
0094128600999992000112521454+47170+020230FM-15+0094LHSN V0200701N002112200019N0060001N1+00501+00301999999ADDMA1101081999999MW1001REMMET042LHSN 252145Z 07004KT 6000 05/03 Q1011 SCT;EQDQ01+000000PRSWM2
0094128600999992000112705454+47170+020230FM-15+0094LHSN V0203101N003112200019N0070001N1+00301+00201999999ADDMA1101081999999MW1001REMMET042LHSN 270545Z 31006KT 7000 03/02 Q1011 FEW;EQDQ01+000000PRSWM2
0105128600999992000120106454+47170+020230FM-15+0094LHSN V0203401N001012200019N0030001N1+99999+99999999999ADDMA1102511999999MW1001MW2101REMMET047LHSN 010645Z 34002KT 3000 BR M03/M03 Q1025 SCT;EQDQ01+000003PRSWM1
0160128600999992000120701454+47170+020230FM-15+0094LHSN V0201601N00101000151CN0002001N1-00101-00101999999ADDGA1091+000159999GF109991999999000251999999MA1102611999999MW1511REMMET050LHSN 070145Z 16002KT 0200 -DZ VV001 M01/M01 Q1026;EQDQ01+000003PRSWM1Q02    003PRSWM1
0237128600999992000121004004+47170+020230FM-12+0094LHSN V0201301N001010120019N0020001N1+00431+00431102131ADDAY181999AY261999GA1031+006909079GA2071+012009069GF108991081051008001999999MA1999999101001MD1710051+9999MW1611REMSYN116AAXX  10041 12860 41520 81301 10043 20043 30100 40213 57005 76186 885// 333 83723 87640 555 10100 60146 90200 /7576;
0149128600999992000121310004+47170+020230FM-12+0094LHSN V0202201N003019999999N0060001N1+00771+00711102121ADDGF107991051001999999071021MA1999999101001MD1010021+9999REMSYN082AAXX  13101 12860 42956 72203 10077 20071 30100 40212 50002 85072 555 10096 /7576;
0113128600999992000121507454+47170+020230FM-15+0094LHSN V0202001N001012200019N0020001N1+00601+00501999999ADDMA1100611999999MW1101REMMET045LHSN 150745Z 20002KT 2000 BR 06/05 Q1006 BKN;EQDQ01+000003PRSWM1Q02    003PRSWM1
0186128600999992000121511454+47170+020230FM-15+0094LHSN V0201901N002110150019N0010001N1+00801+00801999999ADDGA1021+009009999GA2081+015009999GF108991999999999999999999MA1100411999999MW1611REMMET060LHSN 151145Z 19004KT 1000 -RA SCT030 OVC050 08/08 Q1004 OVC;EQDQ01+000003PRSWM1Q02    003PRSWM1
0106128600999992000121608454+47170+020230FM-15+0094LHSN V0202801N00511220001CN0099001N1+00501+00101999999ADDMA1100611999999MW1001OC100931REMMET046LHSN 160845Z 28010G18KT CAVOK 05/01 Q1006 SCT;EQDQ01+000000PRSWM2
0203128600999992000121922004+47170+020230FM-12+0094LHSN V0203601N003010003019N0001001N1-00211-00261102411ADDAY141999AY241999GA1091+000309999GF109991091999999999999999MA1999999101211MD1110061+9999MW1471REMSYN098AAXX  19221 12860 41/01 93603 11021 21026 30121 40241 51006 74744 333 89/01 555 10097 99999 /7595;
0175128600999992000122016004+47170+020230FM-12+0094LHSN V0200401N002010120019N0150001N1-00131-00571103091ADDGA1071+012009069GF107991071051012501999999MA1999999101921MD1210101+9999REMSYN092AAXX  20161 12860 42665 70402 11013 21057 30192 40309 52010 875// 333 87640 555 10072 /7645;
0175128600999992000122113004+47170+020230FM-12+0094LHSN V0200601N004010099019N0240001N1-00191-00841103171ADDGA1071+009909069GF107991071051012501999999MA1999999102001MD1610101+9999REMSYN092AAXX  21131 12860 42674 70604 11019 21084 30200 40317 56010 875// 333 87633 555 10061 /7651;
0133128600999992000122715004+47170+020230FM-12+0094LHSN V0201201N002019999999N0090001N1+00661+99999099881ADDGF106991051001999999071021MA1999999098781MD1210011+9999REMSYN066AAXX  27151 12860 42959 61202 10066 20068 39878 49988 52001 85072;
0162128600999992000122916454+47170+020230FM-15+0094LHSN V0200701N002110042019N0030001N1+00301+00301999999ADDGA1071+004209999GF107991999999999999999999MA1100101999999MW1101REMMET052LHSN 291645Z 07004KT 3000 BR BKN014 03/03 Q1001 BKN;EQDQ01+000003PRSWM1Q02    003PRSWM1
0183128600999992000122920004+47170+020230FM-12+0094LHSN V0200501N003019999999N0020001N1+00291+00271100041ADDAY121999AY221999GF107991041001999999071021MA1999999098921MD1710081+9999MW1101REMSYN094AAXX  29201 12860 41920 70503 10029 20027 39892 40004 57008 71022 84072 555 10099 90200 /7420;
0181128600999992000123005454+47170+020230FM-15+0094LHSN V0200601N005110120019N0030001N1+00301+00301999999ADDGA1021+001209999GA2071+012009999GF107991999999999999999999MW1611OC100821REMMET062LHSN 300545Z 06010G16KT 3000 -RA SCT004 BKN040 03/03 Q993 OVC;EQDQ01+000003PRSWM1Q02    003PRSWM1
0107128600999992000123115454+47170+020230FM-15+0094LHSN V0203001N00411220001CN0099001N1+00101-00201999999ADDMA1101691999999MW1001OC100721REMMET047LHSN 311545Z 30008G14KT CAVOK 01/M02 Q1017 BKN;EQDQ01+000000PRSWM2
0158128603999992000010512454+47070+017980FM-15+0303LHSA V0202901N005112200019N0112651N1+00301-00201999999ADDGA1021+009909029GF102991999999999999999999MA1102201999999MW1001OC100621REMMET056LHSA 051245Z 29010G12KT 9999 FEW033TCU 03/M02 Q1022 BKN;EQDQ01+000000PRSWM2
0159128603999992000011220454+47070+017980FM-15+0303LHSA V0201101N00211000151CN0002001N1-00501-00601999999ADDGA1091+000159999GF109991999999000251999999MA1103491999999MW1451REMMET049LHSA 122045Z 11004KT 0200 FG VV002 M05/M06 Q1035;EQDQ01+000003PRSWM1Q02    003PRSWM1
0105128603999992000020813454+47070+017980FM-15+0303LHSA V0202301N006212200019N0080001N1+01001+00301999999ADDMA1101391999999MW1001OC100721REMMET045LHSA 081345Z 23012G14KT 8000 10/03 Q1014 OVC;EQDQ01+000000PRSWM2
0107128603999992000020919454+47070+017980FM-15+0303LHSA V0203201N00621220001CN0099001N1+00201-00201999999ADDMA1102101999999MW1001OC100821REMMET047LHSA 091945Z 32012G16KT CAVOK 02/M02 Q1021 FEW;EQDQ01+000000PRSWM2
0165128603999992000021213454+47070+017980FM-15+0303LHSA V0202301N001012200019N0050001N1+00501+00001999999ADDGA1021+007809029GF104991999999999999999999MA1102401999999MW1051REMMET055LHSA 121345Z 23002KT 5000 HZ SCT026TCU 05/00 Q1024 BKN;EQDQ01+000003PRSWM1Q02    003PRSWM1
0113128603999992000021216454+47070+017980FM-15+0303LHSA V0209999C000012200019N0050001N1+00201+00001999999ADDMA1102401999999MW1101REMMET045LHSA 121645Z 00000KT 5000 BR 02/00 Q1024 BKN;EQDQ01+000003PRSWM1Q02    003PRSWM1
0096128603999992000022806454+47070+017980FM-15+0303LHSA V0201801N00311220001CN0099001N1+00101-00301999999ADDMA1103491999999MW1001REMMET044LHSA 280645Z 18006KT CAVOK 01/M03 Q1035 SKC;EQDQ01+000000PRSWM2
0096128603999992000022816454+47070+017980FM-15+0303LHSA V0201801N00511220001CN0099001N1+00601-00501999999ADDMA1103121999999MW1001REMMET044LHSA 281645Z 18010KT CAVOK 06/M05 Q1031 SKC;EQDQ01+000000PRSWM2
0095128603999992000022907454+47070+017980FM-15+0303LHSA V0203601N002112200019N0080001N1+00201-00301999999ADDMA1102711999999MW1001REMMET043LHSA 290745Z 36004KT 8000 02/M03 Q1027 SKC;EQDQ01+000000PRSWM2
0148128603999992000030118454+47070+017980FM-15+0303LHSA V0202001N004112200019N0080001N1+00701+00401999999ADDGA1021+012009999GF104991999999999999999999MA1100511999999MW1001REMMET054LHSA 011845Z 20008KT 8000 RERA SCT040 07/04 Q1005 OVC;EQDQ01+000000PRSWM2
0174128603999992000030120454+47070+017980FM-15+0303LHSA V0202101N005112200019N0080001N1+00601+00401999999ADDGA1021+009009999GF104991999999999999999999MA1100511999999MW1611OC100721REMMET056LHSA 012045Z 21010G14KT 8000 -RA SCT030 06/04 Q1005 OVC;EQDQ01+000003PRSWM1Q02    003PRSWM1
0180128603999992000030510454+47070+017980FM-15+0303LHSA V0203201N010312200019N0112651N1+00301-00701999999ADDGA1021+012009099GA2021+012009999GF102991999999999999999999MA1102611999999MW1001OC101441REMMET062LHSA 051045Z 32020G28KT 9999 SCT040CB FEW040 03/M07 Q1026 BKN;EQDQ01+000000PRSWM2
0156128603999992000030518454+47070+017980FM-15+0303LHSA V0203201N007212200019N0112651N1-00101-00501999999ADDGA1021+012009999GF102991999999999999999999MA1102911999999MW1001OC100821REMMET054LHSA 051845Z 32014G16KT 9999 FEW040 M01/M05 Q1029 BKN;EQDQ01+000000PRSWM2
0096128603999992000030615454+47070+017980FM-15+0303LHSA V0202001N00311220001CN0099001N1+00601-00601999999ADDMA1103011999999MW1001REMMET044LHSA 061545Z 20006KT CAVOK 06/M06 Q1030 SCT;EQDQ01+000000PRSWM2
0157128603999992000030911454+47070+017980FM-15+0303LHSA V0202501N008210099019N0112651N1+01801+00501999999ADDGA1071+009909029GF107991999999999999999999MA1101081999999MW1001OC101441REMMET055LHSA 091145Z 25016G28KT 9999 BKN033TCU 18/05 Q1011 BKN;EQDQ01+000000PRSWM2
0095128603999992000031307454+47070+017980FM-15+0303LHSA V0201001N001012200019N0060001N1+00201-00101999999ADDMA1102811999999MW1001REMMET043LHSA 130745Z 10002KT 6000 02/M01 Q1028 BKN;EQDQ01+000000PRSWM2
0158128603999992000031511454+47070+017980FM-15+0303LHSA V0203301N013412200019N0112651N1+00601-00601999999ADDGA1021+009009029GF104991999999999999999999MA1101801999999MW1001OC101751REMMET056LHSA 151145Z 33026G34KT 9999 SCT030TCU 06/M06 Q1018 BKN;EQDQ01+000000PRSWM2
0095128603999992000032319454+47070+017980FM-15+0303LHSA V0202401N00311220001CN0099001N1+00901+00101999999ADDMA1101491999999MW1001REMMET043LHSA 231945Z 24006KT CAVOK 09/01 Q1015 BKN;EQDQ01+000000PRSWM2
0159128603999992000040203454+47070+017980FM-15+0303LHSA V0203401N007212200019N0040001N1+00701+00501999999ADDGA1021+006009999GF104991999999999999999999MA1100411999999MW1001OC101031REMMET057LHSA 020345Z 34014G20KT 4000 RERA SCT020 07/05 Q1004 OVC;EQDQ01+000000PRSWM2
0094128603999992000040319454+47070+017980FM-15+0303LHSA V0201301N002112200019N0080001N1+01001+00601999999ADDMA1100201999999MW1001REMMET042LHSA 031945Z 13004KT 8000 10/06 Q1002 OVC;EQDQ01+000000PRSWM2
0095128603999992000041107454+47070+017980FM-15+0303LHSA V0201101N00211220001CN0099001N1+00801+00201999999ADDMA1100411999999MW1001REMMET043LHSA 110745Z 11004KT CAVOK 08/02 Q1004 OVC;EQDQ01+000000PRSWM2
0146128603999992000042103454+47070+017980FM-15+0303LHSA V0203201N002112200019N0112651N1+01301+00801999999ADDGA1021+012009029GF102991999999999999999999MA1101391999999MW1001REMMET052LHSA 210345Z 32004KT 9999 FEW040TCU 13/08 Q1014 SCT;EQDQ01+000000PRSWM2
0154128603999992000042809454+47070+017980FM-15+0303LHSA V0201401N007212200019N0112651N1+02101+01201999999ADDGA1021+012009999GF102991999999999999999999MA1101591999999MW1001OC101031REMMET052LHSA 280945Z 14014G20KT 9999 FEW040 21/12 Q1016 FEW;EQDQ01+000000PRSWM2
0150128603999992000050106454+47070+017980FM-15+0303LHSA V0201001N002112200019N0112651N1+01601+01101999999ADDGA1021+007809099GF104991999999999999999999MA1101801999999MW1001REMMET056LHSA 010645Z 10004KT 9999 RETS SCT026CB 16/11 Q1018 BKN;EQDQ01+000000PRSWM2
0095128603999992000050612454+47070+017980FM-15+0303LHSA V0201901N00311220001CN0099001N1+02201+00101999999ADDMA1101901999999MW1001REMMET043LHSA 061245Z 19006KT CAVOK 22/01 Q1019 SKC;EQDQ01+000000PRSWM2
0143128603999992000050808454+47070+017980FM-15+0303LHSA V0201901N003112200019N0112651N1+02301+01201999999ADDGA1021+012009999GF102991999999999999999999MA1102101999999MW1001REMMET049LHSA 080845Z 19006KT 9999 FEW040 23/12 Q1021 SCT;EQDQ01+000000PRSWM2
0095128603999992000051218454+47070+017980FM-15+0303LHSA V0200101N00311220001CN0099001N1+02201+01101999999ADDMA1101591999999MW1001REMMET043LHSA 121845Z 01006KT CAVOK 22/11 Q1016 OVC;EQDQ01+000000PRSWM2
0095128603999992000051703454+47070+017980FM-15+0303LHSA V0209999C00001220001CN0099001N1+01301+01001999999ADDMA1101801999999MW1001REMMET043LHSA 170345Z 00000KT CAVOK 13/10 Q1018 FEW;EQDQ01+000000PRSWM2
0106128603999992000052513454+47070+017980FM-15+0303LHSA V0201701N00511220001CN0099001N1+02401+00801999999ADDMA1101691999999MW1001OC100721REMMET046LHSA 251345Z 17010G14KT CAVOK 24/08 Q1017 SCT;EQDQ01+000000PRSWM2
0106128603999992000053011454+47070+017980FM-15+0303LHSA V0203301N00511220001CN0099001N1+01701+00301999999ADDMA1101901999999MW1001OC100931REMMET046LHSA 301145Z 33010G18KT CAVOK 17/03 Q1019 BKN;EQDQ01+000000PRSWM2
0095128603999992000060416454+47070+017980FM-15+0303LHSA V0201601N00211220001CN0099001N1+02701+00701999999ADDMA1101901999999MW1001REMMET043LHSA 041645Z 16004KT CAVOK 27/07 Q1019 SCT;EQDQ01+000000PRSWM2
0095128603999992000062020454+47690+017980FM-15+0303LHSA V0202201N00311220001CN0099001N1+02201+00801999999ADDMA1102001999999MW1001REMMET043LHSA 202045Z 22006KT CAVOK 22/08 Q1020 SKC;EQDQ01+000000PRSWM2
0201128603999992000070821454+47690+017980FM-15+0303LHSA V0203301N012312200019N0112651N1+01301+01001999999ADDGA1021+012009099GA2021+012009999GF102991999999999999999999MA1100811999999MW1801OC101651REMMET067LHSA 082145Z 33024G32KT 9999 -SHRA FEW040CB FEW040 13/10 Q1008 BKN;EQDQ01+000003PRSWM1Q02    003PRSWM1
0154128603999992000071317454+47690+017980FM-15+0303LHSA V0203201N009312200019N0112651N1+01701+00401999999ADDGA1021+012009999GF102991999999999999999999MA1101191999999MW1001OC101231REMMET052LHSA 131745Z 32018G24KT 9999 FEW040 17/04 Q1012 SCT;EQDQ01+000000PRSWM2
0146128603999992000071912454+47070+017980FM-15+0303LHSA V0203001N004110150019N0112651N1+02101+00901999999ADDGA1071+015009029GF107991999999999999999999MA1101491999999MW1001REMMET052LHSA 191245Z 30008KT 9999 BKN050TCU 21/09 Q1015 OVC;EQDQ01+000000PRSWM2
0154128603999992000072006454+47070+017980FM-15+0303LHSA V0203401N009312200019N0112651N1+01701+01001999999ADDGA1021+009909999GF104991999999999999999999MA1101691999999MW1001OC101341REMMET052LHSA 200645Z 34018G26KT 9999 SCT033 17/10 Q1017 BKN;EQDQ01+000000PRSWM2
0095128603999992000072603454+47070+017980FM-15+0303LHSA V0209999C00001220001CN0099001N1+01801+01401999999ADDMA1100911999999MW1001REMMET043LHSA 260345Z 00000KT CAVOK 18/14 Q1009 BKN;EQDQ01+000000PRSWM2
0187128603999992000072616454+47070+017980FM-15+0303LHSA V0203301N007212200019N0112651N1+01901+01501999999ADDGA1021+012009099GA2021+012009029GF104991999999999999999999MA1101081999999MW1001OC101341REMMET069LHSA 261645Z 33014G26KT 9999 RETS FEW040CB SCT040TCU 19/15 Q1011 BKN;EQDQ01+000000PRSWM2
0209128603999992000072618454+47070+017980FM-15+0303LHSA V0203201N007212200019N0112651N1+01901+01501999999ADDGA1021+013809099GA2021+013809029GF104991999999999999999999MA1101191999999MW1811MW2951OC101031REMMET069LHSA 261845Z 32014G20KT 9999 TSRA FEW046CB SCT046TCU 19/15 Q1012 BKN;EQDQ01+000003PRSWM1Q02    003PRSWM1
0154128603999992000072903454+47070+017980FM-15+0303LHSA V0203101N008212200019N0112651N1+01501+01101999999ADDGA1021+012009999GF102991999999999999999999MA1101081999999MW1001OC101031REMMET052LHSA 290345Z 31016G20KT 9999 FEW040 15/11 Q1011 BKN;EQDQ01+000000PRSWM2
0106128603999992000073005454+47070+017980FM-15+0303LHSA V0203201N01341220001CN0099001N1+01801+01001999999ADDMA1101691999999MW1001OC101751REMMET046LHSA 300545Z 32026G34KT CAVOK 18/10 Q1017 SCT;EQDQ01+000000PRSWM2
0154128603999992000073007454+47070+017980FM-15+0303LHSA V0203201N011312200019N0112651N1+01901+01101999999ADDGA1021+008409999GF104991999999999999999999MA1101801999999MW1001OC101441REMMET052LHSA 300745Z 32022G28KT 9999 SCT028 19/11 Q1018 BKN;EQDQ01+000000PRSWM2
0157128603999992000073009454+47070+017980FM-15+0303LHSA V0203301N009310099019N0112651N1+02001+01101999999ADDGA1071+009909029GF107991999999999999999999MA1101801999999MW1001OC101341REMMET055LHSA 300945Z 33018G26KT 9999 BKN033TCU 20/11 Q1018 BKN;EQDQ01+000000PRSWM2
0146128603999992000080114454+47070+017980FM-15+0303LHSA V0201001N001012200019N0112651N1+02501+00901999999ADDGA1021+015009029GF104991999999999999999999MA1102301999999MW1001REMMET052LHSA 011445Z 10002KT 9999 SCT050TCU 25/09 Q1023 SCT;EQDQ01+000000PRSWM2
0146128603999992000080604454+47070+017980FM-15+0303LHSA V0201901N001012200019N0112651N1+01901+01401999999ADDGA1021+018009029GF102991999999999999999999MA1101591999999MW1001REMMET052LHSA 060445Z 19002KT 9999 FEW060TCU 19/14 Q1016 BKN;EQDQ01+000000PRSWM2
0157128603999992000080715454+47070+017980FM-15+0303LHSA V0203301N009312200019N0112651N1+02101+01201999999ADDGA1021+012009029GF104991999999999999999999MA1101691999999MW1001OC101231REMMET055LHSA 071545Z 33018G24KT 9999 SCT040TCU 21/12 Q1017 BKN;EQDQ01+000000PRSWM2
0095128603999992000082008454+47070+017980FM-15+0303LHSA V0202001N00621220001CN0099001N1+03301+01001999999ADDMA1101691999999MW1001REMMET043LHSA 200845Z 20012KT CAVOK 33/10 Q1017 SKC;EQDQ01+000000PRSWM2
0095128603999992000082014454+47070+017980FM-15+0303LHSA V0202301N00721220001CN0099001N1+03501+00901999999ADDMA1101491999999MW1001REMMET043LHSA 201445Z 23014KT CAVOK 35/09 Q1015 SKC;EQDQ01+000000PRSWM2
0095128603999992000082719454+47070+017980FM-15+0303LHSA V0209999C00001220001CN0099001N1+01501+00501999999ADDMA1102001999999MW1001REMMET043LHSA 271945Z 00000KT CAVOK 15/05 Q1020 SKC;EQDQ01+000000PRSWM2
0157128603999992000090408454+47070+017980FM-15+0303LHSA V0203201N009312200019N0112651N1+01801+00601999999ADDGA1021+009909029GF104991999999999999999999MA1101491999999MW1001OC101131REMMET055LHSA 040845Z 32018G22KT 9999 SCT033TCU 18/06 Q1015 BKN;EQDQ01+000000PRSWM2
0154128603999992000090503454+47070+017980FM-15+0303LHSA V0203101N006212200019N0112651N1+01001+00701999999ADDGA1021+009909999GF102991999999999999999999MA1101691999999MW1001OC100821REMMET052LHSA 050345Z 31012G16KT 9999 FEW033 10/07 Q1017 SCT;EQDQ01+000000PRSWM2
0157128603999992000090509454+47070+017980FM-15+0303LHSA V0203401N011312200019N0112651N1+01601+00401999999ADDGA1021+007809029GF104991999999999999999999MA1101691999999MW1001OC102061REMMET055LHSA 050945Z 34022G40KT 9999 SCT026TCU 16/04 Q1017 BKN;EQDQ01+000000PRSWM2
0095128603999992000091104454+47070+017980FM-15+0303LHSA V0203001N00101220001CN0099001N1+01301+00601999999ADDMA1101801999999MW1001REMMET043LHSA 110445Z 30002KT CAVOK 13/06 Q1018 BKN;EQDQ01+000000PRSWM2
0143128603999992000092010454+47070+017980FM-15+0303LHSA V0201301N003112200019N0060001N1+01801+01401999999ADDGA1021+004509999GF104991999999999999999999MA1101081999999MW1001REMMET049LHSA 201045Z 13006KT 6000 SCT015 18/14 Q1011 SCT;EQDQ01+000000PRSWM2
0157128603999992000092120454+47070+017980FM-15+0303LHSA V0203201N006210069019N0112651N1+01401+01101999999ADDGA1071+006909029GF107991999999999999999999MA1101391999999MW1001OC100931REMMET055LHSA 212045Z 32012G18KT 9999 BKN023TCU 14/11 Q1014 BKN;EQDQ01+000000PRSWM2
0143128603999992000092416454+47070+017980FM-15+0303LHSA V0209999C000010078019N0060001N1+01201+00901999999ADDGA1071+007809999GF107991999999999999999999MA1102511999999MW1001REMMET049LHSA 241645Z 00000KT 6000 BKN026 12/09 Q1025 OVC;EQDQ01+000000PRSWM2
0095128603999992000092709454+47070+017980FM-15+0303LHSA V0201601N00411220001CN0099001N1+01801+00701999999ADDMA1102511999999MW1001REMMET043LHSA 270945Z 16008KT CAVOK 18/07 Q1025 BKN;EQDQ01+000000PRSWM2
0094128603999992000100317454+47070+017980FM-15+0303LHSA V0200301N002112200019N0080001N1+01701+01401999999ADDMA1102001999999MW1001REMMET042LHSA 031745Z 03004KT 8000 17/14 Q1020 BKN;EQDQ01+000000PRSWM2
0095128603999992000100418454+47070+017980FM-15+0303LHSA V0203301N00101220001CN0099001N1+01601+01201999999ADDMA1102001999999MW1001REMMET043LHSA 041845Z 33002KT CAVOK 16/12 Q1020 SKC;EQDQ01+000000PRSWM2
0154128603999992000100721454+47070+017980FM-15+0303LHSA V0203401N008212200019N0080001N1+00901+00701999999ADDGA1021+015009999GF102991999999999999999999MA1101691999999MW1001OC101131REMMET052LHSA 072145Z 34016G22KT 8000 FEW050 09/07 Q1017 BKN;EQDQ01+000000PRSWM2
0106128603999992000101209454+47070+017980FM-15+0303LHSA V0202101N01031220001CN0099001N1+02201+01001999999ADDMA1100911999999MW1001OC101441REMMET046LHSA 120945Z 21020G28KT CAVOK 22/10 Q1009 BKN;EQDQ01+000000PRSWM2
0095128603999992000101516454+47070+017980FM-15+0303LHSA V0201101N00311220001CN0099001N1+01701+00901999999ADDMA1101691999999MW1001REMMET043LHSA 151645Z 11006KT CAVOK 17/09 Q1017 SKC;EQDQ01+000000PRSWM2
0146128603999992000101712454+47070+017980FM-15+0303LHSA V0201601N003112200019N0112651N1+02001+00901999999ADDGA1021+015009029GF102991999999999999999999MA1102201999999MW1001REMMET052LHSA 171245Z 16006KT 9999 FEW050TCU 20/09 Q1022 SCT;EQDQ01+000000PRSWM2
0110128603999992000101809454+47070+017980FM-15+0303LHSA V0200201N003112200019N9999999N1+01701+01101999999ADDMA1102301999999MW1001REMMET042LHSA 180945Z 02006KT 6000 17/11 Q1023 BKN;EQDQ01+060002VODIS Q02+000000PRSWM2
0094128603999992000102208454+47070+017980FM-15+0303LHSA V0209999C000012200019N0080001N1+00901+00301999999ADDMA1103491999999MW1001REMMET042LHSA 220845Z 00000KT 8000 09/03 Q1035 SKC;EQDQ01+000000PRSWM2
0154128603999992000110116454+47070+017980FM-15+0303LHSA V0203101N005112200019N0112651N1+00701+00501999999ADDGA1021+003909999GF102991999999999999999999MA1101191999999MW1001OC100621REMMET052LHSA 011645Z 31010G12KT 9999 FEW013 07/05 Q1012 SCT;EQDQ01+000000PRSWM2
0157128603999992000112308454+47070+017980FM-15+0303LHSA V0209999C00001000151CN0001001N1+00501+00501999999ADDGA1091+000159999GF109991999999000251999999MA1101691999999MW1451REMMET047LHSA 230845Z 00000KT 0100 FG VV001 05/05 Q1017;EQDQ01+000003PRSWM1Q02    003PRSWM1
0148128603999992000112612454+47070+017980FM-15+0303LHSA V0209999C000012200019N0112651N1+00901+00601999999ADDGA1021+003909999GF104991999999999999999999MA1100511999999MW1001REMMET054LHSA 261245Z 00000KT 9999 RERA SCT013 09/06 Q1005 BKN;EQDQ01+000000PRSWM2
0157128603999992000120507454+47070+017980FM-15+0303LHSA V0201101N00101000151CN0001001N1+00301+00301999999ADDGA1091+000159999GF109991999999000251999999MA1102511999999MW1531REMMET047LHSA 050745Z 11002KT 0100 DZ VV001 03/03 Q1025;EQDQ01+000003PRSWM1Q02    003PRSWM1
0090128603999992000122517454+47070+017980FM-15+0303LHSA V0202001N00621220001CN0099001N1+00701+00501999999ADDMW1001OC100821REMMET045LHSA 251745Z 20012G16KT CAVOK 07/05 Q997 BKN;EQDQ01+000000PRSWM2
0095128603999992000122910454+47070+017980FM-15+0303LHSA V0209999C00001220001CN0099001N1+00501+00001999999ADDMA1100001999999MW1001REMMET043LHSA 291045Z 00000KT CAVOK 05/00 Q1000 OVC;EQDQ01+000000PRSWM2
0187128700999992000010611004+47900+020380FM-12+021899999V0203101N001012200019N0270001N1-00211-00311102671ADDAY141999AY201999GA1001+999999999GF100991001001999999001001MA1999999099841MD1010001+9999MW1281REMSYN082AAXX  06111 12870 41977 03101 11021 21031 39984 40267 50000 72840 555 10093 /7489;
0115128700999992000011701004+47900+020380FM-12+021899999V0203401N004019999999N9999999N1-00791-00941102441ADDMA1999999099551MD1810331+9999REMSYN074    AAXX  17011 12870 46/// /3404 11079 21094 39955 40244 58033 555 10089;
0090128700999992000011803004+47900+020380FM-12+021899999V0202901N001019999999N9999999N1-00031-00201099821ADDMA1999999097091REMSYN063    AAXX  18031 12870 46/// /2901 11003 21020 39709 49982 0005;
0105128700999992000011903004+47900+020380FM-12+021899999V0202401N002019999999N9999999N1-00121-00471100481ADDMA1999999097721MD1310141+9999REMSYN064    AAXX  19031 12870 46/// /2402 11012 21047 39772 40048 53014;
0149128700999992000012407004+47900+020380FM-12+021899999V0203601N005012200019N0250001N1-00711-01801101391ADDGF104991041001999999041001MA1999999098541MD1310221+9999REMSYN082AAXX  24071 12870 42975 43605 11071 21180 39854 40139 53022 84040 555 10041 55094;
0117128700999992000012420004+47900+020380FM-12+021899999V0203401N004019999999N9999999N1-00971-01861102051ADDMA1999999099161MD1210181+9999REMSYN076AAXX  24201 12870 46/// /3404 11097 21186 39916 40205 52018 555 10049 55082;
0191128700999992000012714004+47900+020380FM-12+021899999V0200901N001010054019N0060001N1-00321-00661102631ADDGA1031+001809079GA2041+005409069GF107991071051001501999999MA1999999099791MD1510111+9999REMSYN092AAXX  27141 12870 42256 70901 11032 21066 39979 40263 55011 875// 333 83706 84618 555 10077;
0117128700999992000012904004+47900+020380FM-12+021899999V0203401N002019999999N9999999N1-00501-00791101951ADDMA1999999099111MD1710091+9999REMSYN076AAXX  29041 12870 46/// /3402 11050 21079 39911 40195 57009 555 10080 /7434;
0153128700999992000020119004+47900+020380FM-12+021899999V0201001N001012200019N0120001N1+00581+00341102231ADDGA1001+999999999GF100991001001999999001001MA1999999099511MD1710041+9999REMSYN070AAXX  01191 12870 42962 01001 10058 20034 39951 40223 57004 555 10084;
0171128700999992000020216004+47900+020380FM-12+021899999V0203301N003019999999N0040001N1+00321+00181101421ADDAY121999AY221999GF107991011001999999041081MA1999999098681MD1810051+9999MW1101REMSYN082AAXX  02161 12870 41940 73303 10032 20018 39868 40142 58005 71022 81048 555 10091;
0189128700999992000020312004+47900+020380FM-12+021899999V0202701N006012200019N0350001N1+00851-00231102031ADDAA199000091GA1021+012909029GF104991021021012501041081MA1999999099331MD1110091+9999REMSYN076AAXX  03121 12870 32681 42706 10085 21023 39933 40203 51009 82248 333 82843;EQDQ01  00002PRCP99
0189128700999992000020912004+47900+020380FM-12+021899999V0202901N007010360019N0400001N1+00931-00051101081ADDAA199000091GA1011+011709029GF108991011021012501071999MA1999999098411MD1210201+9999REMSYN076AAXX  09121 12870 32682 82907 10093 21005 39841 40108 52020 8127/ 333 81839;EQDQ01  00002PRCP99
0111128700999992000021201004+47900+020380FM-12+021899999V0201001N001019999999N9999999N1+00311+00011102971ADDMA1999999100191MD1210041+9999REMSYN070AAXX  12011 12870 46/// /1001 10031 20001 30019 40297 52004 555 10081;
0208128700999992000022018004+47900+020380FM-12+021899999V0200301N001010360019N0150001N1+00181-00101101611ADDAA199000091GA1011+003309029GF106991011011004501071001KA1120M+00631MA1999999098851MD1110221+9999REMSYN082AAXX  20181 12870 32465 60301 10018 21010 39885 40161 51022 81170 333 10063 81811;EQDQ01  00002PRCP99
0169128700999992000022208004+47900+020380FM-12+021899999V0203401N002012200019N0250001N1-00311-00741102781ADDGA1011+005109089GF102991011011004501031001MA1999999099941MD1210091+9999REMSYN086AAXX  22081 12870 42475 23402 11031 21074 39994 40278 52009 81130 333 81817 555 10072;
0209128700999992000022606004+47900+020380FM-12+021899999V0203401N003012200019N0350001N1+00011-00501102801ADDAA124000191GA1011+006009029GF101991011011008001001001GJ100009KA1120N-00011MA1999999099991MD1210211+9999REMSYN094AAXX  26061 12870 32581 13403 10001 21050 39999 40280 52021 81100 333 21001 55000 70001 81820;
0181128700999992000022611004+47900+020380FM-12+021899999V0202901N006012200019N0350001N1+00781-00301102871ADDGA1021+012909089GF102991021021012501001001MA1999999100151MD1010041+9999REMSYN098AAXX  26111 12870 42681 22906 10078 21030 30015 40287 50004 82200 333 82843 555 10046 55102 /7512;
0169128700999992000022710004+47900+020380FM-12+021899999V0201701N002012200019N0350001N1+00721-00311103341ADDGA1021+012309089GF104991021021012501041011MA1999999100591MD1210121+9999REMSYN086AAXX  27101 12870 42681 41702 10072 21031 30059 40334 52012 82241 333 82841 555 10048;
0169128700999992000022810004+47900+020380FM-12+021899999V0201901N002012200019N0300001N1+00731-00181103681ADDGA1011+010809089GF101991011011012501001001MA1999999100921MD1410001+9999REMSYN086AAXX  28101 12870 42680 11902 10073 21018 30092 40368 54000 81100 333 81836 555 10052;
0111128700999992000022820004+47900+020380FM-12+021899999V0201401N002019999999N9999999N1+00381-00331103351ADDMA1999999100571MD1810031+9999REMSYN070AAXX  28201 12870 46/// /1402 10038 21033 30057 40335 58003 555 10060;
0117128700999992000022920004+47900+020380FM-12+021899999V0201101N003019999999N9999999N1+00601-00421102151ADDMA1999999099411MD1810151+9999REMSYN076AAXX  29201 12870 46/// /1103 10060 21042 39941 40215 58015 555 10048 55074;
0175128700999992000030714004+47900+020380FM-12+021899999V0202801N007012200019N0250001N1+01151-00131101991ADDGA1011+015009089GF101991011011017501001001MA1999999099321MD1710151+9999REMSYN092AAXX  07141 12870 42775 12807 10115 21013 39932 40199 57015 81100 333 81850 555 10041 55122;
0111128700999992000031801004+47900+020380FM-12+021899999V0203301N003019999999N9999999N1-00151-00441101481ADDMA1999999098691MD1810141+9999REMSYN070AAXX  18011 12870 46/// /3303 11015 21044 39869 40148 58014 555 10080;
0111128700999992000031820004+47900+020380FM-12+021899999V0203601N001019999999N9999999N1-00051-00281102191ADDMA1999999099391MD1110171+9999REMSYN070AAXX  18201 12870 46/// /3601 11005 21028 39939 40219 51017 555 10084;
0111128700999992000032202004+47900+020380FM-12+021899999V0209999C000019999999N9999999N1+00371+00001102091ADDMA1999999099341MD1710031+9999REMSYN070AAXX  22021 12870 46/// /0000 10037 20000 39934 40209 57003 555 10077;
0117128700999992000032204004+47900+020380FM-12+021899999V0209999C000019999999N9999999N1+00371+00041102071ADDMA1999999099321MD1710031+9999REMSYN076AAXX  22041 12870 46/// /0000 10037 20004 39932 40207 57003 555 10079 /7450;
0183128700999992000032704004+47900+020380FM-12+021899999V0201601N001019999999N0040001N1+00911+00801100971ADDAY121999AY221999GF107991071001999999071999MA1999999098351MD1710281+9999MW1101REMSYN094AAXX  27041 12870 41940 71601 10091 20080 39835 40097 57028 71022 8707/ 555 10093 99999 /7378;
0123128700999992000040602004+47900+020380FM-12+021899999V0202901N007019999999N9999999N1+00801+00561099771ADDMA1999999097111MD1210221+9999REMSYN082AAXX  06021 12870 46/// /2907 10080 20056 39711 49977 52022 555 10084 55154 6992/;
0209128700999992000040604004+47900+020380FM-12+021899999V0203101N005010360019N0120001N1+00691+00331100041ADDAY161999AY261999GA1041+001509079GF108991041071001501071999MA1999999097371MD1210391+9999MW1601REMSYN104AAXX  06041 12870 41262 83105 10069 20033 39737 40004 52039 76066 8477/ 333 84705 555 10078 55141 /7303;
0111128700999992000041001004+47900+020380FM-12+021899999V0203401N002019999999N9999999N1-00021-00451101871ADDMA1999999099091MD1710031+9999REMSYN070AAXX  10011 12870 46/// /3402 11002 21045 39909 40187 57003 555 10073;
0111128700999992000041122004+47900+020380FM-12+021899999V0201201N002019999999N9999999N1+00831+00331100441ADDMA1999999097781MD1710031+9999REMSYN070AAXX  11221 12870 46/// /1202 10083 20033 39778 40044 57003 555 10071;
0111128700999992000041422004+47900+020380FM-12+021899999V0200701N001019999999N9999999N1+01411+00601100641ADDMA1999999098021MD1710031+9999REMSYN070AAXX  14221 12870 46/// /0701 10141 20060 39802 40064 57003 555 10058;
0225128700999992000041608004+47900+020380FM-12+021899999V0202401N003010060019N0300001N1+01421+00901100691ADDAY191999AY221999GA1021+005409069GA2041+006009089GF106991061081004501001001MA1999999098071MD1110121+9999MW1291REMSYN104AAXX  16081 12870 41480 62403 10142 20090 39807 40069 51012 72992 86800 333 82618 84820 555 10071 6991/;
0101128700999992000041621004+47900+020380FM-12+021899999V0209999C000019999999N9999999N1+01031+00321100991ADDMA1999999098331MD1210021+9999REMSYN060AAXX  16211 12870 46/// /0000 10103 20032 39833 40099 52002;
0153128700999992000041908004+47900+020380FM-12+021899999V0201601N001012200019N0260001N1+02051+00811100631ADDGA1001+999999999GF100991001001999999001001MA1999999098071MD1210061+9999REMSYN070AAXX  19081 12870 42976 01601 10205 20081 39807 40063 52006 555 10045;
0159128700999992000042115004+47900+020380FM-12+021899999V0200301N003012200019N0400001N1+02591+00391101141ADDGA1011+024009029GF102991011021022501001051MA1999999098611MD1610071+9999REMSYN076AAXX  21151 12870 42882 20303 10259 20039 39861 40114 56007 81205 333 81858;
0169128700999992000042214004+47900+020380FM-12+021899999V0203401N002012200019N0300001N1+02631+00321101291ADDGA1031+024009089GF103991031021022501001001MA1999999098751MD1710171+9999REMSYN086AAXX  22141 12870 42880 33402 10263 20032 39875 40129 57017 83200 333 83858 555 10022;
0111128700999992000042720004+47900+020380FM-12+021899999V0203401N002019999999N9999999N1+01511+01061101781ADDMA1999999099141MD1110131+9999REMSYN070AAXX  27201 12870 46/// /3402 10151 20106 39914 40178 51013 555 10075;
0111128700999992000050102004+47900+020380FM-12+021899999V0209999C000019999999N9999999N1+01381+00951101711ADDMA1999999099061MD1710111+9999REMSYN070AAXX  01021 12870 46/// /0000 10138 20095 39906 40171 57011 555 10075;
0149128700999992000050217004+47900+020380FM-12+021899999V0200501N003019999999N0400001N1+01651-00381101721ADDGF105991001001999999001021MA1999999099101MD1310101+9999REMSYN082AAXX  02171 12870 42982 50503 10165 21038 39910 40172 53010 80002 555 10025 55132;
0169128700999992000050613004+47900+020380FM-12+021899999V0202101N003012200019N0250001N1+02471+00361101641ADDGA1031+024009089GF105991031021022501001081MA1999999099091MD1710091+9999REMSYN086AAXX  06131 12870 42875 52103 10247 20036 39909 40164 57009 83208 333 83858 555 10025;
0111128700999992000050902004+47900+020380FM-12+021899999V0209999C000019999999N9999999N1+01371+00931101991ADDMA1999999099341MD1610031+9999REMSYN070AAXX  09021 12870 46/// /0000 10137 20093 39934 40199 56003 555 10075;
0111128700999992000051101004+47900+020380FM-12+021899999V0203501N002019999999N9999999N1+01471+01041101551ADDMA1999999098921MD1810031+9999REMSYN070AAXX  11011 12870 46/// /3502 10147 20104 39892 40155 58003 555 10075;
0143128700999992000051316004+47900+020380FM-12+021899999V0200701N003012200019N0500001N1+02031-00081102121ADDGF101991011001999999071001MA1999999099521MD1710031+9999REMSYN076AAXX  13161 12870 42984 10703 10203 21008 39952 40212 57003 81070 555 10024;
0143128700999992000051507004+47900+020380FM-12+021899999V0202501N001012200019N0500001N1+02011+00821102341ADDGF101991011001999999041001MA1999999099731MD1210061+9999REMSYN076AAXX  15071 12870 42984 12501 10201 20082 39973 40234 52006 81040 555 10046;
0111128700999992000051802004+47900+020380FM-12+021899999V0203401N001019999999N9999999N1+01361+00771101081ADDMA1999999098451MD1710111+9999REMSYN070AAXX  18021 12870 46/// /3401 10136 20077 39845 40108 57011 555 10068;
0193128700999992000051815004+47900+020380FM-12+021899999V0203601N002010144019N0450001N1+02471+00781100671ADDAY191031AY211031GA1061+014409099GF107991071091012501071999MA1999999098151MD1710111+9999MW1171REMSYN088AAXX  18151 12870 41683 73602 10247 20078 39815 40067 57011 71791 8797/ 333 86948 81856;
0195128700999992000052012004+47900+020380FM-12+021899999V0203001N002010210019N0350001N1+01981+00251100731ADDAA199000091GA1041+018009089GF106991061031022501001001MA1999999098161MD1710101+9999REMSYN082AAXX  20121 12870 32881 63002 10198 20025 39816 40073 57010 86300 333 84856 82957;EQDQ01  00002PRCP99
0133128700999992000052809004+47900+020380FM-12+021899999V0201701N003012200019N0300001N1+02591+01131101421ADDGF101991011001999999071001MA1999999098891MD1810061+9999REMSYN066AAXX  28091 12870 42980 11703 10259 20113 39889 40142 58006 81070;
0186128700999992000060118004+47900+020380FM-12+021899999V0200901N003012200019N0450001N1+01611+00581102481ADDAA199000091GF104991011001999999041061KA1999M+02031MA1999999099841MD1310111+9999REMSYN076AAXX  01181 12870 32983 40903 10161 20058 39984 40248 53011 81046 333 10203;EQDQ01  00002PRCP99
0153128700999992000060907004+47900+020380FM-12+021899999V0201101N002012200019N0450001N1+02041+00711102291ADDGA1001+999999999GF100991001001999999001001MA1999999099691MD1110061+9999REMSYN070AAXX  09071 12870 42983 01102 10204 20071 39969 40229 51006 555 10042;
0159128700999992000061010004+47900+020380FM-12+021899999V0201001N004012200019N0450001N1+02681+00631101901ADDGA1001+999999999GF100991001001999999001001MA1999999099361MD1710021+9999REMSYN076AAXX  10101 12870 42983 01004 10268 20063 39936 40190 57002 555 10027 55084;
0159128700999992000061304004+47900+020380FM-12+021899999V0209999C000012200019N0250001N1+02131+01501102481ADDGA1001+999999999GF100991001001999999001001MA1999999099881MD1310111+9999REMSYN076AAXX  13041 12870 42975 00000 10213 20150 39988 40248 53011 555 10068 /7492;
0169128700999992000061410004+47900+020380FM-12+021899999V0202001N003012200019N0180001N1+03301+01391101911ADDGA1011+021009089GF103991011011022501031001MA1999999099421MD1710101+9999REMSYN086AAXX  14101 12870 42868 32003 10330 20139 39942 40191 57010 81130 333 81857 555 10031;
0153128700999992000062307004+47900+020380FM-12+021899999V0201601N002012200019N0350001N1+02801+01261101331ADDGA1001+999999999GF100991001001999999001001MA1999999098821MD1110061+9999REMSYN070AAXX  23071 12870 42981 01602 10280 20126 39882 40133 51006 555 10039;
0181128700999992000062711004+47900+020380FM-12+021899999V0202801N007010150019N0500001N1+01691+00211101721ADDGA1071+015009089GF107991071021017501999999MA1999999099101MD1510051+9999REMSYN098AAXX  27111 12870 42784 72807 10169 20021 39910 40172 55005 872// 333 87850 555 10037 55131 /7433;
0223128700999992000071218004+47900+020380FM-12+021899999V0202901N004012200019N0550001N1+01931+01001100781ADDAA112002091AY191061AY211061GA1021+011109029GF104991021011012501001011KA1120M+02321MA1999999098211MD1110071+9999MW1021REMSYN094AAXX  12181 12870 11685 42904 10193 20100 39821 40078 51007 60022 70291 82101 333 10232 82837;
0112128700999992000071900004+47900+020380FM-12+021899999V0203401N002019999999N9999999N1+01331+01181101471ADDAA199000021MA1999999098831MD1810011+9999REMSYN060AAXX  19001 12870 36/// /3402 10133 20118 39883 40147 58001;
0111128700999992000080301004+47900+020380FM-12+021899999V0209999C000019999999N9999999N1+01661+01171101931ADDMA1999999099301MD1810041+9999REMSYN070AAXX  03011 12870 46/// /0000 10166 20117 39930 40193 58004 555 10073;
0101128700999992000080321004+47900+020380FM-12+021899999V0200801N003019999999N9999999N1+02371+01201101581ADDMA1999999099021MD1810021+9999REMSYN060AAXX  03211 12870 46/// /0803 10237 20120 39902 40158 58002;
0175128700999992000080811004+47900+020380FM-12+021899999V0202101N002010102019N0180001N1+02251+01391101741ADDGA1071+010209089GF107991071021012501999999MA1999999099171MD1810021+9999REMSYN092AAXX  08111 12870 42668 72102 10225 20139 39917 40174 58002 872// 333 87834 555 10058 /7438;
0111128700999992000080822004+47900+020380FM-12+021899999V0200701N002019999999N9999999N1+01751+01091101871ADDMA1999999099251MD1110081+9999REMSYN070AAXX  08221 12870 46/// /0702 10175 20109 39925 40187 51008 555 10065;
0169128700999992000081510004+47900+020380FM-12+021899999V0202801N002012200019N0250001N1+02721+01331101961ADDGA1011+015009089GF101991011011017501001011MA1999999099421MD1810011+9999REMSYN086AAXX  15101 12870 42775 12802 10272 20133 39942 40196 58001 81101 333 81850 555 10042;
0202128700999992000081806004+47900+020380FM-12+021899999V0209999C000012200019N0400001N1+02281+01321101561ADDAA199000091GA1001+999999999GF100991001001999999001001KA1120N+01921MA1999999099001MD1210121+9999REMSYN076AAXX  18061 12870 32982 00000 10228 20132 39900 40156 52012 333 20192 55123;EQDQ01  00002PRCP99
0196128700999992000082118004+47900+020380FM-12+021899999V0203001N001012200019N0400001N1+03181+00901101091ADDAA199000091GA1001+999999999GF100991001001999999001001KA1999M+03671MA1999999098611MD1610031+9999REMSYN070AAXX  21181 12870 32982 03001 10318 20090 39861 40109 56003 333 10367;EQDQ01  00002PRCP99
0111128700999992000082122004+47900+020380FM-12+021899999V0203601N001019999999N9999999N1+02381+01101101161ADDMA1999999098621MD1610041+9999REMSYN070AAXX  21221 12870 46/// /3601 10238 20110 39862 40116 56004 555 10044;
0101128700999992000091503004+47900+020380FM-12+021899999V0209999V001019999999N9999999N1+01391+01071101591ADDMA1999999098951MD1010001+9999REMSYN060AAXX  15031 12870 46/// /9901 10139 20107 39895 40159 50000;
0111128700999992000091919004+47900+020380FM-12+021899999V0200801N002019999999N9999999N1+01241+00881101271ADDMA1999999098621MD1010041+9999REMSYN070AAXX  19191 12870 46/// /0802 10124 20088 39862 40127 50004 555 10079;
0169128700999992000092013004+47900+020380FM-12+021899999V0201101N001010042019N0100001N1+01701+01331101111ADDGA1051+004209089GF107991051021004501071999MA1999999098501MD1710011+9999REMSYN086AAXX  20131 12870 42460 71101 10170 20133 39850 40111 57001 8527/ 333 85814 555 10079;
0191128700999992000092117004+47900+020380FM-12+021899999V0203601N002010360019N0300001N1+01631+00751101031ADDGA1011+006009069GA2011+010509089GF107991021081008001071081MA1999999098431MD1210021+9999REMSYN092AAXX  21171 12870 42580 73602 10163 20075 39843 40103 52002 82878 333 81620 81835 555 10056;
0221128700999992000092206004+47900+020380FM-12+021899999V0203501N002019999999N0450001N1+01211+00881101481ADDAA112000791AY161061AY211061GF106991031001999999041081GJ102289KA1120N+01111MA1999999098821MD1210121+9999MW1031REMSYN100AAXX  22061 12870 11983 63502 10121 20088 39882 40148 52012 69902 70361 83048 333 20111 55038 79999;
0117128700999992000100102004+47900+020380FM-12+021899999V0200901N003019999999N9999999N1+01561+00731101771ADDMA1999999099141MD1210061+9999REMSYN076AAXX  01021 12870 46/// /0903 10156 20073 39914 40177 52006 555 10058 55072;
0143128700999992000100415004+47900+020380FM-12+021899999V0200901N003012200019N0350001N1+02431+00781101851ADDGA1001+999999999GF100991001001999999001001MA1999999099291MD1710071+9999REMSYN060AAXX  04151 12870 42981 00903 10243 20078 39929 40185 57007;
0143128700999992000101710004+47900+020380FM-12+021899999V0201401N001019999999N0110001N1+01861+00871102241ADDGF107991051001999999031021MA1999999099621MD1210061+9999REMSYN076AAXX  17101 12870 42961 71401 10186 20087 39962 40224 52006 85032 555 10052;
0111128700999992000101920004+47900+020380FM-12+021899999V0200701N002019999999N9999999N1+01201+00641102811ADDMA1999999100121MD1210151+9999REMSYN070AAXX  19201 12870 46/// /0702 10120 20064 30012 40281 52015 555 10068;
0175128700999992000110111004+47900+020380FM-12+021899999V0201201N002010078019N0100001N1+01471+00821100881ADDGA1051+007809089GF108991051021008001071999MA1999999098261MD1810081+9999REMSYN092AAXX  01111 12870 42560 81202 10147 20082 39826 40088 58008 8527/ 333 85826 555 10065 /7370;
0204128700999992000111612004+47900+020380FM-12+021899999V0202601N001010360019N0120001N1+01301+00771101671ADDAA106000791AY161061AY221061GA1041+006309029GF108991041021008001071999MA1999999099021MD1010021+9999MW1611REMSYN088AAXX  16121 12870 11562 82601 10130 20077 39902 40167 50002 69901 76162 8427/ 333 84821;
0111128700999992000111802004+47900+020380FM-12+021899999V0201001N003019999999N9999999N1+01181+00101101281ADDMA1999999098631MD1710041+9999REMSYN070AAXX  18021 12870 46/// /1003 10118 20010 39863 40128 57004 555 10047;
0143128700999992000113010004+47900+020380FM-12+021899999V0201701N002012200019N0200001N1+00461+00111102551ADDGF103991021001999999071021MA1999999099781MD1110041+9999REMSYN076AAXX  30101 12870 42970 31702 10046 20011 39978 40255 51004 82072 555 10078;
0197128700999992000121919004+47900+020380FM-12+021899999V0203101N001010018019N0020001N1-00151-00231102391ADDAY121999AY221999GA1081+001809079GF108991081061001501999999MA1999999099581MD1210091+9999MW1101REMSYN092AAXX  19191 12870 41220 83101 11015 21023 39958 40239 52009 71022 886// 333 88706 555 10094;
0117128700999992000122104004+47900+020380FM-12+021899999V0203601N002019999999N9999999N1-00681-01011103241ADDMA1999999100341MD1710051+9999REMSYN076AAXX  21041 12870 46/// /3602 11068 21101 30034 40324 57005 555 10077 /7526;
0143128700999992000122108004+47900+020380FM-12+021899999V0203501N001019999999N0280001N1-00451-00901103301ADDGF107991071001999999071999MA1999999100431MD1210101+9999REMSYN076AAXX  21081 12870 42978 73501 11045 21090 30043 40330 52010 8707/ 555 10071;
0141128700999992000122806004+47900+020380FM-12+021899999V0201101N004019999999N9999999N1+00791+00681099201ADDAA112999999KA1999N+00531MA1999999096571MD1510131+9999REMSYN076AAXX  28061 12870 16/// /1104 10079 20068 39657 49920 55013 6///2 333 20053;
0175128700999992000122819004+47900+020380FM-12+021899999V0203101N005012200019N0150001N1+00431+00251099471ADDGA1041+002109089GF104991041011002501001001MA1999999096791MD1210171+9999REMSYN092AAXX  28191 12870 42365 43105 10043 20025 39679 49947 52017 84100 333 84807 555 10088 55084;
0203128700999992000123013004+47900+020380FM-12+021899999V0200901N003010015019N0050001N1+00521+00411099231ADDAY161999AY261999GA1051+001509089GF108991051011001501071999MA1999999096571MD1510031+9999MW1611REMSYN098AAXX  30131 12870 41250 80903 10052 20041 39657 49923 55003 76166 8517/ 333 85805 555 10092 6012/;
0145128820999992000010117454+47480+021600FM-15+0109LHDC V02099999999990030019N0015001N1-00701-00801999999ADDGA1071+003009999GF107991999999999999999999MA1102611999999MW1101REMMET051LHDC 011745Z VRB01MPS 1500 BR BKN010 M07/M08 Q1026;EQDQ01    003PRSWM1
