0133335060999992000070500004+49590+034550FM-12+015999999V0203301N001012200019N0100001N1+01681+01141100931ADDGF102991001001999999001011MA1999999099061MD1210031+9999REMSYN066AAXX  05001 33506 42997 23301 10168 20114 39906 40093 52003 80001;
0128335060999992000071103004+49590+034550FM-12+015999999V0202901N002019999999N0100001N1+01421+01341100691ADDGF107991071001999999031001MD1210221+9999REMSYN076AAXX  11031 33506 42960 72902 10142 20134 40069 52022 87030 555 20140 7993/;
0156335060999992000072403004+49590+034550FM-12+015999999V0202701N002010042019N0100001N1+01781+01751100541ADDAY121031AY221031GF107991071061004501001001MD1210051+9999MW1101REMSYN082AAXX  24031 33506 41460 72702 10178 20175 40054 52005 71022 87600 555 20173 7040/;
0128335060999992000080703004+49590+034550FM-12+015999999V0209999C000012200019N0200001N1+01541+01271101961ADDGF102991001001999999001011MD1410001+9999REMSYN076AAXX  07031 33506 42998 20000 10154 20127 40196 54000 80001 555 20152 7000/;
0122335060999992000081521004+49590+034550FM-12+015999999V0203201N001012200019N0100001N1+01691+01311101891ADDGA1001+999999999GF100991001001999999001001MD1310051+9999REMSYN054AAXX  15211 33506 42997 03201 10169 20131 40189 53005;
0112335060999992000091009004+49590+034550FM-12+015999999V0202401N002010075019N0200001N1+01801+01051102321ADDGF107991071051008001001001MD1710031+9999REMSYN060AAXX  10091 33506 42598 72402 10180 20105 40232 57003 87500;
0165335060999992000091218004+49590+034550FM-12+015999999V0203001N001012200019N0100001N1+01331+00761101161ADDAA199000091GF102991021051999999001001KA1999M+01961MD1310041+9999REMSYN070AAXX  12181 33506 32997 23001 10133 20076 40116 53004 82500 333 10196;EQDQ01  00002PRCP99
0140335060999992000092521004+49590+034550FM-12+015999999V0203401N002010075019N0100001N1+00941+00671102441ADDAY181031AY221031GF107991071051008001001001MD1710081+9999MW1021REMSYN066AAXX  25211 33506 41597 73402 10094 20067 40244 57008 70282 87500;
0209335060999992000100506004+49590+034550FM-12+015999999V0209999C000012200019N0120001N1+01221+00701102601ADDAA199000091GA1001+999999999GF100991001001999999001001IA1019IA2999+00409KA1120N+00711MD1410001+9999REMSYN080AAXX  05061 33506 32962 00000 10122 20070 40260 54000 333 20071 555 30004 52001;EQDQ01  00002PRCP99
0143335060999992000101600004+49590+034550FM-12+015999999V0203401N002012200019N0100001N1+00751+00301102201ADDGA1001+999999999GF100991001001999999001001MA1999999100241MD1310011+9999REMSYN060AAXX  16001 33506 42997 03402 10075 20030 30024 40220 53001;
0133335060999992000101712004+49590+034550FM-12+015999999V0200201N004010075019N0200001N1+00981+00451102961ADDGF108991051051008001031999MA1999999101001MD1810031+9999REMSYN066AAXX  17121 33506 42598 80204 10098 20045 30100 40296 58003 8553/;
0122335060999992000102221004+49590+034550FM-12+015999999V0203401N001012200019N0100001N1+00411+00041103461ADDGA1001+999999999GF100991001001999999001001MD1710051+9999REMSYN054AAXX  22211 33506 42997 03401 10041 20004 40346 57005;
0161335060999992000120300004+49590+034550FM-12+015999999V0203201N001010042019N0040001N1+00111+00001102591ADDAY121061AY221061GF108991081061004501999999MA1999999100571MD1210071+9999MW1101REMSYN072AAXX  03001 33506 41496 83201 10011 20000 30057 40259 52007 71022 886//;
0140335060999992000121609004+49590+034550FM-12+015999999V0201801N002010042019N0038001N1+00751+00711099831ADDAY181031AY261031GF108991081091004501999999MD1710171+9999MW1801REMSYN066AAXX  16091 33506 41438 81802 10075 20071 49983 57017 78086 889//;
0203335060999992000123018004+49590+034550FM-12+015999999V0200901N003012200019N0040001N1+00441+00321100581ADDAA199000091AY111061AY211061GA1001+999999999GF100991001001999999001001KA1999M+00881MD1210061+9999MW1101REMSYN070AAXX  30181 33506 31996 00903 10044 20032 40058 52006 71011 333 10088;EQDQ01  00002PRCP99
0187335260999992000011100004+48900+024700FM-12+027699999V0203001N004010033019N0025001N1+00061-00081103551ADDAY181061AY281061GA1071+003309099GF108991081031004501999999MA1999999100011MD1210151+9999MW1851REMSYN082AAXX  11001 33526 41425 83004 10006 21008 30001 40355 52015 78588 883// 333 87911;
0187335260999992000011112004+48900+024700FM-12+027699999V0203401N003010069019N0040001N1+00141-00181103861ADDAY181061AY221061GA1081+006909059GF108991081051008001999999MA1999999100321MD1210021+9999MW1101REMSYN082AAXX  11121 33526 41540 83403 10014 21018 30032 40386 52002 71082 885// 333 88623;
0170335260999992000011615004+48900+024700FM-12+027699999V0203001N002010090019N0060001N1-00411-00871102811ADDAY121031AY221031GA1081+009009059GF108991081051008001999999MD1310011+9999MW1101REMSYN080    AAXX  16151 33526 41556 83002 11041 21087 40281 53001 71022 885// 333 88630;
0206335260999992000011818004+48900+024700FM-12+027699999V0202901N008010039019N0050001N1-00131-00361099321ADDAA112000891AY181061AY221061GA1071+003909099GF108991081031004501999999KA1120M+00021MD1210151+9999MW1851REMSYN092    AAXX  18181 33526 11450 82908 11013 21036 49932 52015 69982 78582 883// 333 10002 87913;
0180335260999992000012418004+48900+024700FM-12+027699999V0202901N005012200019N0060001N1-01531-01801102161ADDAA112000391AY111061AY211061GF103991031001999999031001KA1999M-01101MD1210151+9999MW1101REMSYN082AAXX  24181 33526 11956 32905 11153 21180 40216 52015 69932 71011 83030 333 11110;
0166335260999992000022015004+48900+024700FM-12+027699999V0201601N003010069019N0060001N1+00191-00151101341ADDAY181031AY221031GA1061+006909099GF108991081031008001999999MD1210051+9999MW1851REMSYN076AAXX  20151 33526 41556 81603 10019 21015 40134 52005 78582 883// 333 86923;
0154335260999992000022303004+48900+024700FM-12+027699999V0202601N002010099019N0100001N1-00491-00811102671ADDGA1081+009909069GF108991081051012501999999MD1810091+9999REMSYN086AAXX  23031 33526 42660 82602 11049 21081 40267 58009 885// 333 88633 555 21050 7997/;
0175335260999992000022818004+48900+024700FM-12+027699999V0201801N003012200019N0100001N1+00091-00441103171ADDAA199000091GA1001+999999999GF100991001001999999001001KA1999M+00951MD1710081+9999REMSYN064AAXX  28181 33526 32960 01803 10009 21044 40317 57008 333 10095;EQDQ01  00002PRCP99
0112335260999992000031009004+48900+024700FM-12+027699999V0203001N006012200019N0100001N1+00151-00471101311ADDGF106991041051012501001011MD1210091+9999REMSYN060AAXX  10091 33526 42660 63006 10015 21047 40131 52009 84501;
0180335260999992000031218004+48900+024700FM-12+027699999V0202901N003012200019N0100001N1-00091-00661102541ADDAA112000391AY181061AY221061GF102991021001999999031001KA1999M+00361MD1210111+9999MW1021REMSYN082AAXX  12181 33526 11960 22903 11009 21066 40254 52011 69932 70282 82030 333 10036;
0187335260999992000033000004+48900+024700FM-12+027699999V0201101N004010012019N0014001N1+00631+00561101861ADDAY121061AY221061GA1061+001209069GF108991081061001501999999MA1999999098451MD1810081+9999MW1101REMSYN082AAXX  30001 33526 41214 81104 10063 20056 39845 40186 58008 71022 886// 333 86704;
0182335260999992000033003004+48900+024700FM-12+027699999V0201001N005010018019N0019001N1+00531+00461101651ADDAY181031AY221031GA1081+001809079GF108991081061002501999999MD1710211+9999MW1101REMSYN092AAXX  30031 33526 41319 81005 10053 20046 40165 57021 71082 886// 333 88706 555 20052 7007/;
0138335260999992000041721004+48900+024700FM-12+027699999V0209999C000010099019N0100001N1+01221+00681100921ADDGA1051+009909059GF105991051051012501001001MD1310021+9999REMSYN070AAXX  17211 33526 42660 50000 10122 20068 40092 53002 85500 333 85633;
0138335260999992000050403004+48900+024700FM-12+027699999V0209999C000012200019N0100001N1-00061-00271102461ADDGA1001+999999999GF100991001001999999001001MD1710041+9999REMSYN070AAXX  04031 33526 42960 00000 11006 21027 40246 57004 555 21010 7000/;
0209335260999992000050406004+48900+024700FM-12+027699999V0209999C000012200019N0100001N1+00681-00111102411ADDAA199000091GA1001+999999999GF100991001001999999001001IA1019IA2999-00209KA1120N-00101MD1310031+9999REMSYN080AAXX  04061 33526 32960 00000 10068 21011 40241 53003 333 21010 555 30102 52104;EQDQ01  00002PRCP99
0122335260999992000050609004+48900+024700FM-12+027699999V0209999C000012200019N0100001N1+01961+00291101791ADDGA1001+999999999GF100991001001999999001001MD1210011+9999REMSYN054AAXX  06091 33526 42960 00000 10196 20029 40179 52001;
0152335260999992000050812004+48900+024700FM-12+027699999V0201101N003012200019N0040001N1+02021-00021102251ADDGF102991001001999999001011MA1999999098991MD1710111+9999REMSYN066AAXX  08121 33526 /4296 21103 10202 21002 39899 40225 57011 80001;EQDQ01+001502SCOLCB
0156335260999992000051903004+48900+024700FM-12+027699999V0209999C000012200019N0100001N1+00921+00801100761ADDAY101031AY201031GF102991021001999999031001MD1710081+9999MW1111REMSYN082AAXX  19031 33526 41960 20000 10092 20080 40076 57008 71100 82030 555 20091 7014/;
0133335260999992000060900004+48900+024700FM-12+027699999V0202401N004019999999N0100001N1+01041+00681102391ADDGF106991061001999999031001MA1999999099021MD1210071+9999REMSYN066AAXX  09001 33526 42960 62404 10104 20068 39902 40239 52007 86030;
0128335260999992000071203004+48900+024700FM-12+027699999V0209999C000010360019N0100001N1+01631+01341100341ADDGF106991031051012501031001MD1310011+9999REMSYN076AAXX  12031 33526 42660 60000 10163 20134 40034 53001 83530 555 20158 7990/;
0193335260999992000090306004+48900+024700FM-12+027699999V0209999C000019999999N0100001N1+01261+01111100671ADDAA199000091AY141061AY211061GF107991071001999999031001KA1999N+00941MD1410001+9999MW1021REMSYN076AAXX  03061 33526 31960 70000 10126 20111 40067 54000 70241 87030 333 20094;EQDQ01  00002PRCP99
0138335260999992000101003004+48900+024700FM-12+027699999V0209999C000012200019N0100001N1+00041-00071101381ADDGA1001+999999999GF100991001001999999001001MD1710061+9999REMSYN070AAXX  10031 33526 42960 00000 10004 21007 40138 57006 555 20003 7000/;
0112335260999992000121421004+48900+024700FM-12+027699999V0209999C000019999999N0100001N1+00361+00151101041ADDGF105991051001999999031001MD1710071+9999REMSYN060AAXX  14211 33526 42960 50000 10036 20015 40104 57007 85030;
0187335260999992000122600004+48900+024700FM-12+027699999V0209999C000010360019N0060001N1-00231-00421100061ADDAY121061AY221061GA1031+009909059GF106991041051012501031031MA1999999096591MD1710041+9999MW1101REMSYN082AAXX  26001 33526 41656 60000 11023 21042 39659 40006 57004 71022 84533 333 83633;
0166335620999992000010715004+49230+028470FM-12+029899999V0201601N002010015019N0018001N1-00021-00081102781ADDAY141031AY221031GA1081+001509069GF108991081061001501999999MD1010011+9999MW1101REMSYN076AAXX  07151 33562 41218 81602 11002 21008 40278 50001 71042 886// 333 88705;
0187335620999992000010812004+49230+028470FM-12+029899999V0202101N003010015019N0030001N1-00221-00311102861ADDAY141061AY221061GA1081+001509069GF108991081061001501999999MA1999999099101MD1810021+9999MW1101REMSYN082AAXX  08121 33562 41230 82103 11022 21031 39910 40286 58002 71042 886// 333 88705;
0161335620999992000012200004+49230+028470FM-12+029899999V0203101N004019999999N0100001N1-01071-01351100421ADDAY131061AY221061GF106991061001999999031001MA1999999096621MD1210301+9999MW1021REMSYN072AAXX  22001 33562 41997 63104 11107 21135 39662 40042 52030 70232 86030;
0140335620999992000020709004+49230+028470FM-12+029899999V0202501N003019999999N0040001N1+00361+00231102071ADDAY121031AY221031GF106991061001999999031001MD1210051+9999MW1101REMSYN066AAXX  07091 33562 41996 62503 10036 20023 40207 52005 71022 86030;
0112335620999992000020815004+49230+028470FM-12+029899999V0202101N004019999999N0100001N1+00461+00071100991ADDGF106991061001999999031001MD1710171+9999REMSYN060AAXX  08151 33562 42997 62104 10046 20007 40099 57017 86030;
0165335620999992000021018004+49230+028470FM-12+029899999V0202801N003012200019N0100001N1+00081-00181102451ADDAA199000091GF103991031001999999031001KA1999M+00531MD1210151+9999REMSYN070AAXX  10181 33562 32997 32803 10008 21018 40245 52015 83030 333 10053;EQDQ01  00002PRCP99
0112335620999992000022009004+49230+028470FM-12+029899999V0202401N004019999999N0100001N1-00261-00561101311ADDGF108991081001999999051999MD1210091+9999REMSYN060AAXX  20091 33562 42997 82404 11026 21056 40131 52009 8805/;
0140335620999992000031015004+49230+028470FM-12+029899999V0202801N007010360019N0100001N1-00021-00491101061ADDAY181031AY221031GF106991031091008001051001MD1210131+9999MW1261REMSYN066AAXX  10151 33562 41597 62807 11002 21049 40106 52013 72682 83950;
0122335620999992000031721004+49230+028470FM-12+029899999V0202101N002012200019N0100001N1-00341-00701101351ADDGA1001+999999999GF100991001001999999001001MD1210041+9999REMSYN054AAXX  17211 33562 42997 02102 11034 21070 40135 52004;
0175335620999992000032418004+49230+028470FM-12+029899999V0203001N003012200019N0100001N1-00011-00731101661ADDAA199000091GA1001+999999999GF100991001001999999001001KA1999M+00661MD1210151+9999REMSYN064AAXX  24181 33562 32997 03003 11001 21073 40166 52015 333 10066;EQDQ01  00002PRCP99
0221335620999992000032818004+49230+028470FM-12+029899999V0200201N003010027019N0020001N1+00531+00481101751ADDAA112007191AY181061AY261061GA1081+002709069GF108991999071002501021999KA1120M+00551MD1210161+9999MW1611REMSYN088AAXX  28181 33562 11320 80203 10053 20048 40175 52016 60072 76186 8872/ 333 10055 88709;EQDQ01+000082SCOTLC
0169335620999992000041012004+49230+028470FM-12+029899999V0209999C000010057019N0100001N1+00481+00091101921ADDGA1061+005709069GF108991061051004501051999MA1999999098281MD1810031+9999REMSYN086AAXX  10121 33562 42497 80000 10048 20009 39828 40192 58003 8655/ 333 86619 555 11012;
0175335620999992000041218004+49230+028470FM-12+029899999V0201201N003012200019N0100001N1+00921+00091100671ADDAA199000091GA1001+999999999GF100991001001999999001001KA1999M+01391MD1310021+9999REMSYN064AAXX  12181 33562 32997 01203 10092 20009 40067 53002 333 10139;EQDQ01  00002PRCP99
0112335620999992000041421004+49230+028470FM-12+029899999V0201401N002019999999N0100001N1+01521+00731100891ADDGF105991051001999999031001MD1010011+9999REMSYN060AAXX  14211 33562 42997 51402 10152 20073 40089 50001 85030;
0204335620999992000042603004+49230+028470FM-12+029899999V0209999C000019999999N0040001N1+01001+00951101491ADDAA199000091AY121031AY221031GF107991071001999999031001GJ102529MD1810011+9999MW1101REMSYN092AAXX  26031 33562 31996 70000 10100 20095 40149 58001 71022 87030 333 55042 555 20098 7998/;EQDQ01  00002PRCP99
0165335620999992000052818004+49230+028470FM-12+029899999V0201001N003012200019N0100001N1+02201+01291101491ADDAA199000091GF104991041051012501001001KA1999M+02751MD1710101+9999REMSYN070AAXX  28181 33562 32697 41003 10220 20129 40149 57010 84500 333 10275;EQDQ01  00002PRCP99
0166335620999992000060115004+49230+028470FM-12+029899999V0203301N002010360019N0040001N1+01271+01101101961ADDAY181031AY281031GA1041+005409099GF108991041091004501051999MD1210061+9999MW1801REMSYN076AAXX  01151 33562 41496 83302 10127 20110 40196 52006 78088 8495/ 333 84918;
0165335620999992000061218004+49230+028470FM-12+029899999V0202001N002019999999N0100001N1+02501+01491102071ADDAA199000091GF106991041001999999031011KA1999M+02911MD1510011+9999REMSYN070AAXX  12181 33562 32997 62002 10250 20149 40207 55001 84031 333 10291;EQDQ01  00002PRCP99
0202335620999992000061818004+49230+028470FM-12+029899999V0203201N007010066019N0100001N1+00841+00621102201ADDAA112002091AY181061AY221061GA1051+006609059GF107991051051008001031001KA1120M+01191MD1210161+9999MW1021REMSYN088AAXX  18181 33562 11597 73207 10084 20062 40220 52016 60022 70282 85530 333 10119 85622;
0112335620999992000062409004+49230+028470FM-12+029899999V0202201N002019999999N0100001N1+02591+01201101221ADDGF105991001001999999001011MD1310031+9999REMSYN060AAXX  24091 33562 42997 52202 10259 20120 40122 53003 80001;
0133335620999992000072312004+49230+028470FM-12+029899999V0200201N006012200019N0100001N1+02371+01211101221ADDGF108991031021012501001011MA1999999097851MD1710141+9999REMSYN066AAXX  23121 33562 42697 80206 10237 20121 39785 40122 57014 83201;
0112335620999992000080615004+49230+028470FM-12+029899999V0201001N003012200019N0100001N1+02501+01561101791ADDGF102991021011017501001001MD1710091+9999REMSYN060AAXX  06151 33562 42797 21003 10250 20156 40179 57009 82100;
0159335620999992000092212004+49230+028470FM-12+029899999V0200301N002010090019N0100001N1+01161+00651102371ADDGA1071+009009059GF107991071051008001001001MA1999999098821MD1210081+9999REMSYN076AAXX  22121 33562 42597 70302 10116 20065 39882 40237 52008 87500 333 87630;
0133335620999992000092712004+49230+028470FM-12+029899999V0203401N003010360019N0100001N1+01271+00461102611ADDGF106991031011012501031001MA1999999099061MD1710051+9999REMSYN066AAXX  27121 33562 42697 63403 10127 20046 39906 40261 57005 83130;
0140335620999992000101321004+49230+028470FM-12+029899999V0201401N006012200019N0040001N1+00831+00771102791ADDAY111031AY211031GF102991021001999999031001MD1110011+9999MW1101REMSYN066AAXX  13211 33562 41996 21406 10083 20077 40279 51001 71011 82030;
0122335620999992000101615004+49230+028470FM-12+029899999V0200701N003012200019N0100001N1+01281+00431102581ADDGA1001+999999999GF100991001001999999001001MD1610031+9999REMSYN054AAXX  16151 33562 42997 00703 10128 20043 40258 56003;
0143335620999992000101700004+49230+028470FM-12+029899999V0200801N003012200019N0100001N1+00261+00131102911ADDGA1001+999999999GF100991001001999999001001MA1999999099211MD1110011+9999REMSYN060AAXX  17001 33562 42997 00803 10026 20013 39921 40291 51001;
0176335620999992000102603004+49230+028470FM-12+029899999V0202001N005019999999N0100001N1+00721+00451101661ADDAA199000091GF105991051001999999031001GJ101689MD1710051+9999REMSYN086AAXX  26031 33562 32997 52005 10072 20045 40166 57005 85030 333 55028 555 20064 7990/;EQDQ01  00002PRCP99
0112335620999992000103015004+49230+028470FM-12+029899999V0202001N003019999999N0100001N1+00951+00361101851ADDGF105991021001999999031011MD1710061+9999REMSYN060AAXX  30151 33562 42997 52003 10095 20036 40185 57006 82031;
0202335620999992000110718004+49230+028470FM-12+029899999V0201301N007010030019N0040001N1+01111+00971100951ADDAA112000791AY121061AY221061GA1061+003009059GF108991061051004501051999KA1120M+01111MD1710041+9999MW1101REMSYN088AAXX  07181 33562 11440 81307 10111 20097 40095 57004 69902 71022 8655/ 333 10111 86610;
0166335620999992000110921004+49230+028470FM-12+029899999V0201701N005010012019N0040001N1+00871+00851101781ADDAY151031AY221031GA1081+001209069GF108991081061001501999999MD1210041+9999MW1101REMSYN076AAXX  09211 33562 41240 81705 10087 20085 40178 52004 71052 886// 333 88704;
0193335620999992000111206004+49230+028470FM-12+029899999V0202101N002019999999N0040001N1+00151+00121102831ADDAA199000091AY111061AY211061GF106991061001999999031001KA1999N+00051MD1210071+9999MW1101REMSYN076AAXX  12061 33562 31940 62102 10015 20012 40283 52007 71011 86030 333 20005;EQDQ01  00002PRCP99
0209335620999992000120518004+49230+028470FM-12+029899999V0202601N002010003019N0002001N1-00041-00041102901ADDAA199000091AY141061AY241061GA1091+999999999GF109991091999999999999999KA1120M+00111MD1210081+9999MW1451REMSYN076AAXX  05181 33562 31/02 92602 11004 21004 40290 52008 74544 333 10011 93401;EQDQ01  00002PRCP99
0215335870999992000010718004+48770+030230FM-12+021699999V0209999C000010021019N0012001N1-00021-00081102881ADDAA106000091AY121061AY221061GA1081+002109069GF108991081061002501999999KA1120M-00021MD1210061+9999MW1101REMSYN082AAXX  07181 33587 31312 80000 11002 21008 40288 52006 71022 886// 333 11002 88707;EQDQ01  00002PRCP06
0221335870999992000012418004+48770+030230FM-12+021699999V0203601N012010024019N0018001N1-01051-01331101081ADDAA112007191AY171061AY221061GA1081+002409069GF108991081999002501021999KA1120M-00791MD1310041+9999MW1731REMSYN088AAXX  24181 33587 11318 83612 11105 21133 40108 53004 60072 77372 8802/ 333 11079 88708;EQDQ01+000002SCOLCG
0140335870999992000012421004+48770+030230FM-12+021699999V0203601N011019999999N0100001N1-01341-01611101261ADDAY171031AY221031GF108991001001999999001011MD1210151+9999MW1021REMSYN066AAXX  24211 33587 41960 83611 11134 21161 40126 52015 70272 80001;
0133335870999992000012600004+48770+030230FM-12+021699999V0203201N002019999999N0150001N1-01621-01891101961ADDGF108991001001999999001011MA1999999099091MD1710191+9999REMSYN066AAXX  26001 33587 42965 83202 11162 21189 39909 40196 57019 80001;
0138335870999992000021621004+48770+030230FM-12+021699999V0201801N004010075019N0160001N1-00141-00311101491ADDGA1081+007509059GF108991081051008001999999MD1710021+9999REMSYN070AAXX  16211 33587 42566 81804 11014 21031 40149 57002 885// 333 88625;
0182335870999992000030603004+48770+030230FM-12+021699999V0202901N001010042019N0032001N1-00191-00341102071ADDAY181031AY221031GA1081+004209099GF108991081031004501999999MD1210081+9999MW1851REMSYN092AAXX  06031 33587 41432 82901 11019 21034 40207 52008 78582 883// 333 88914 555 21025 7990/;
0187335870999992000030900004+48770+030230FM-12+021699999V0202301N002010096019N0100001N1+00611+00471100791ADDAY181061AY221061GA1081+009609099GF108991081031008001999999MA1999999098191MD1710171+9999MW1801REMSYN082AAXX  09001 33587 41560 82302 10061 20047 39819 40079 57017 78082 883// 333 88932;
0165335870999992000031418004+48770+030230FM-12+021699999V0201801N003019999999N0210001N1+00251-00421102171ADDAA199000091GF108991001001999999001011KA1999M+00861MD1710081+9999REMSYN070AAXX  14181 33587 32971 81803 10025 21042 40217 57008 80001 333 10086;EQDQ01  00002PRCP99
0112335870999992000031715004+48770+030230FM-12+021699999V0203201N002010360019N0100001N1+00191-00741101231ADDGF105991021011012501031001MD1210011+9999REMSYN060AAXX  17151 33587 42697 53202 10019 21074 40123 52001 82130;
0112335870999992000031821004+48770+030230FM-12+021699999V0203401N002019999999N0180001N1-00051-00461101451ADDGF108991001001999999001071MD1810051+9999REMSYN060AAXX  18211 33587 42968 83402 11005 21046 40145 58005 80007;
0212335870999992000040206004+48770+030230FM-12+021699999V0201401N002010060019N0100001N1+00651+00511101031ADDAA112002091AY181061AY221061GA1081+006009099GF108991081031008001999999KA1120N+00551MD1710121+9999MW1801REMSYN098AAXX  02061 33587 11597 81402 10065 20051 40103 57012 60022 78082 883// 333 20055 88920 555 32004;
0128335870999992000040403004+48770+030230FM-12+021699999V0209999C000019999999N0160001N1+00631+00351101231ADDGF108991081001999999031999MD1710061+9999REMSYN076AAXX  04031 33587 42966 80000 10063 20035 40123 57006 8803/ 555 20038 7990/;
0165335870999992000041118004+48770+030230FM-12+021699999V0209999C000019999999N0170001N1+00811+00001101031ADDAA199000091GF108991001001999999001011KA1999M+01421MD1710011+9999REMSYN070AAXX  11181 33587 32967 80000 10081 20000 40103 57001 80001 333 10142;EQDQ01  00002PRCP99
0175335870999992000042606004+48770+030230FM-12+021699999V0209999C000012200019N0100001N1+01761+00991101391ADDAA199000091GA1001+999999999GF100991001001999999001001KA1999N+01001MD1710041+9999REMSYN064AAXX  26061 33587 32997 00000 10176 20099 40139 57004 333 20100;EQDQ01  00002PRCP99
0122335870999992000051209004+48770+030230FM-12+021699999V0203201N012012200019N0100001N1+01601+00091101091ADDGA1001+999999999GF100991001001999999001001MD1210251+9999REMSYN054AAXX  12091 33587 42997 03212 10160 20009 40109 52025;
0217335870999992000052112004+48770+030230FM-12+021699999V0202501N004010081019N0100001N1+01491+01321100101ADDAA199000091AY191061AY281061GA1071+008109099GF107991071031008001001001MA1999999097601MD1710141+9999MW1291REMSYN082AAXX  21121 33587 31597 72504 10149 20132 39760 40010 57014 72998 87300 333 87927;EQDQ01  00002PRCP99
0112335870999992000061015004+48770+030230FM-12+021699999V0200701N001012200019N0100001N1+02281+00381102281ADDGF102991021011012501001001MD1710091+9999REMSYN060AAXX  10151 33587 42697 20701 10228 20038 40228 57009 82100;
0161335870999992000062512004+48760+030230FM-12+021699999V0203601N001012200019N0100001N1+02921+01211100801ADDAY191061AY281061GF102991001001999999001011MA1999999098391MD1710041+9999MW1021REMSYN072AAXX  25121 33587 41997 23601 10292 20121 39839 40080 57004 70298 80001;
0128335870999992000070103004+48760+030230FM-12+021699999V0209999C000019999999N0040001N1+01301+01191101531ADDGF106991061001999999031001MD1710021+9999REMSYN076AAXX  01031 33587 41996 60000 10130 20119 40153 57002 86030 555 20125 7002/;
0202335870999992000070618004+48760+030230FM-12+021699999V0203201N001010078019N0100001N1+01841+01211100941ADDAA112002091AY181061AY221061GA1061+007809099GF106991061031008001001001KA1120M+02591MD1310041+9999MW1021REMSYN088AAXX  06181 33587 11597 63201 10184 20121 40094 53004 60022 70282 86300 333 10259 86926;
0128335870999992000080803004+48760+030230FM-12+021699999V0209999C000019999999N0100001N1+01791+01551101431ADDGF108991001001999999001011MD1310041+9999REMSYN076AAXX  08031 33587 42997 80000 10179 20155 40143 53004 80001 555 20176 7003/;
0143335870999992000081000004+48760+030230FM-12+021699999V0203201N001012200019N0110001N1+01241+01111102001ADDGA1001+999999999GF100991001001999999001001MA1999999099421MD1210021+9999REMSYN060AAXX  10001 33587 42961 03201 10124 20111 39942 40200 52002;
0133335870999992000081312004+48760+030230FM-12+021699999V0203201N002012200019N0100001N1+02981+01511101551ADDGF102991021021008001001001MA1999999099141MD1810041+9999REMSYN066AAXX  13121 33587 42597 23202 10298 20151 39914 40155 58004 82200;
0175335870999992000081718004+48760+030230FM-12+021699999V0209999C000012200019N0100001N1+02061+01561101501ADDAA199000091GA1001+999999999GF100991001001999999001001KA1999M+02961MD1710031+9999REMSYN064AAXX  17181 33587 32997 00000 10206 20156 40150 57003 333 10296;EQDQ01  00002PRCP99
0122335870999992000082021004+48760+030230FM-12+021699999V0209999C000012200019N0150001N1+02081+01811101651ADDGA1001+999999999GF100991001001999999001001MD1210041+9999REMSYN054AAXX  20211 33587 42965 00000 10208 20181 40165 52004;
0113335870999992000092300004+48760+030230FM-12+021699999V0200901N001019999999N0180001N1+00941+00611999999ADDGF108991999999012501999999REMSYN075AAXX  23001 33587 42668 80901 10094 20061 3998 40261 52004 885// 333 88636;
0199335870999992000102406004+48760+030230FM-12+021699999V0209999C000019999999N0100001N1+00001-00171102611ADDAA199000091GF108991001001999999001011IA1019IA2999-00509KA1120N-00221MD1710091+9999REMSYN086AAXX  24061 33587 32997 80000 10000 21017 40261 57009 80001 333 21022 555 30105 52106;EQDQ01  00002PRCP99
0166335870999992000120909004+48760+030230FM-12+021699999V0201801N004010024019N0040001N1-00201-00351102841ADDAY121031AY221031GA1081+002409069GF108991081061002501999999MD1410001+9999MW1101REMSYN076AAXX  09091 33587 41396 81804 11020 21035 40284 54000 71022 886// 333 88708;
0202335870999992000121318004+48760+030230FM-12+021699999V0201801N002010021019N0014001N1+00521+00431101721ADDAA112000391AY121061AY221061GA1081+002109069GF108991081061002501999999KA1120M+00551MD1710111+9999MW1101REMSYN088AAXX  13181 33587 11314 81802 10052 20043 40172 57011 69932 71022 886// 333 10055 88707;
0133335870999992000121412004+48760+030230FM-12+021699999V0202501N001019999999N0100001N1+00851+00511101131ADDGF108991021001999999031011MA1999999098541MD1810071+9999REMSYN066AAXX  14121 33587 42997 82501 10085 20051 39854 40113 58007 82031;
0166335870999992000121915004+48760+030230FM-12+021699999V0203201N003010054019N0100001N1-00021-00291101731ADDAY181031AY221031GA1081+005409099GF108991081031004501999999MD1310081+9999MW1851REMSYN076AAXX  19151 33587 41497 83203 11002 21029 40173 53008 78582 883// 333 88918;
0187335870999992000122000004+48760+030230FM-12+021699999V0203201N005010042019N0050001N1-00231-00521101991ADDAY181061AY221061GA1081+004209099GF108991081031004501999999MA1999999099261MD1210091+9999MW1851REMSYN082AAXX  20001 33587 41450 83205 11023 21052 39926 40199 52009 78582 883// 333 88914;
0138335870999992000122321004+48760+030230FM-12+021699999V0202001N003010078019N0200001N1-00531-01131101351ADDGA1081+007809059GF108991081051999999999999MD1710121+9999REMSYN070AAXX  23211 33587 42970 82003 11053 21113 40135 57012 885// 333 88626;
0209336140999992000010306004+49050+033250FM-12+008499999V0203001N003010021019N0040001N1-00671-00721102501ADDAA112000391AJ100149199999999AY171061AY221061GF108991081061002501999999IA1239KA1120N-00691MD1710031+9999MW1101REMSYN088AAXX  03061 33614 11396 83003 11067 21072 40250 57003 69932 71072 886// 333 21069 47014;
0166336140999992000010603004+49050+033250FM-12+008499999V0201201N001010012019N0110001N1-00251-00311101731ADDAY171031AY221031GF108991081061001501999999MD1710021+9999MW1021REMSYN092AAXX  06031 33614 41261 81201 11025 21031 40173 57002 70272 886// 333 55000 555 21036 7003/;
0166336140999992000011203004+49050+033250FM-12+008499999V0202801N002010042019N0035001N1-00281-00321103721ADDAY121031AY221031GF108991081061004501999999MD1210041+9999MW1101REMSYN092AAXX  12031 33614 41435 82802 11028 21032 40372 52004 71022 886// 333 55000 555 21032 7000/;
0140336140999992000012012004+49050+033250FM-12+008499999V0202901N007010360019N0100001N1-00901-01151100561ADDAY171061AY231061GF106991021051008001031001MD1210031+9999MW1221REMSYN066AAXX  20121 33614 41597 62907 11090 21115 40056 52003 72273 82530;
0112336140999992000012800004+49050+033250FM-12+008499999V0202601N004019999999N0110001N1+00101+00021101391ADDGF108991081001999999051999MD1210111+9999REMSYN060AAXX  28001 33614 42961 82604 10010 20002 40139 52011 8805/;
0112336140999992000032409004+49050+033250FM-12+008499999V0202901N004010120019N0100001N1+00321+00061100781ADDGF107991071051012501001001MD1310071+9999REMSYN060AAXX  24091 33614 42697 72904 10032 20006 40078 53007 87500;
0140336140999992000033121004+49050+033250FM-12+008499999V0201301N002010021019N0042001N1+00551+00501101071ADDAY161031AY251031GF108991081061002501999999MD1710081+9999MW1511REMSYN066AAXX  31211 33614 41342 81302 10055 20050 40107 57008 75165 886//;
0138336140999992000040203004+49050+033250FM-12+008499999V0201401N002019999999N0180001N1+00761+00341101411ADDGF107991071001999999051001MD1210021+9999REMSYN086AAXX  02031 33614 42968 71402 10076 20034 40141 52002 87050 333 55085 555 20065 7000/;
0166336140999992000042203004+49050+033250FM-12+008499999V0200601N002010042019N0040001N1+01241+01191100371ADDAY161031AY251031GF108991081061004501999999MD1710051+9999MW1211REMSYN092AAXX  22031 33614 41496 80602 10124 20119 40037 57005 72165 886// 333 55037 555 20108 7008/;
0185336140999992000042303004+49050+033250FM-12+008499999V0202701N002010021019N0040001N1+01101+01101100771ADDAY161031AY261031GF108991999071002501021999MD1310031+9999MW1611REMSYN092AAXX  23031 33614 41396 82702 10110 20110 40077 53003 76166 8872/ 333 55000 555 20105 7004/;EQDQ01+000082SCOTLC
0122336140999992000060500004+49050+033250FM-12+008499999V0209999C000012200019N0180001N1+01751+01321101821ADDGA1001+999999999GF100991001001999999001001MD1210041+9999REMSYN054AAXX  05001 33614 42968 00000 10175 20132 40182 52004;
0122336140999992000071200004+49500+033250FM-12+008499999V0201701N002012200019N0200001N1+01721+01091101001ADDGA1001+999999999GF100991001001999999001001MD1210021+9999REMSYN054AAXX  12001 33614 42970 01702 10172 20109 40100 52002;
0112336140999992000071512004+49500+033250FM-12+008499999V0203001N002010075019N0200001N1+02361+00821100921ADDGF105991051011008001001001MD1210081+9999REMSYN060AAXX  15121 33614 42598 53002 10236 20082 40092 52008 85100;
0112336140999992000071815004+49050+033250FM-12+008499999V0203201N002010360019N0200001N1+02221+01321100791ADDGF107991021011008001031001MD1410001+9999REMSYN060AAXX  18151 33614 42598 73202 10222 20132 40079 54000 82130;
0122336140999992000080200004+49050+033250FM-12+008499999V0203501N005012200019N0200001N1+01781+01471101241ADDGA1001+999999999GF100991001001999999001001MD1810011+9999REMSYN054AAXX  02001 33614 42970 03505 10178 20147 40124 58001;
0112336140999992000080915004+49050+033250FM-12+008499999V0203201N006012200019N0100001N1+02271+01071101511ADDGF102991021011012501001001MD1210021+9999REMSYN060AAXX  09151 33614 42697 23206 10227 20107 40151 52002 82100;
0112336140999992000091200004+49050+033250FM-12+008499999V0200401N001019999999N0150001N1+01631+01151101251ADDGF108991081001999999071999MD1710031+9999REMSYN060AAXX  12001 33614 42965 80401 10163 20115 40125 57003 8807/;
0140336140999992000092509004+49050+033250FM-12+008499999V0200701N003019999999N0100001N1+00911+00481102611ADDAY161031AY221031GF108991081001999999071999MD1410001+9999MW1021REMSYN066AAXX  25091 33614 41997 80703 10091 20048 40261 54000 70262 8807/;
0112336140999992000111100004+49050+033250FM-12+008499999V0201301N001010042019N0120001N1+00421+00251102391ADDGF108991081061004501999999MD1710011+9999REMSYN060AAXX  11001 33614 42462 81301 10042 20025 40239 57001 886//;
0140336140999992000112209004+49050+033250FM-12+008499999V0200801N002010021019N0040001N1+00231+00041102321ADDAY121031AY221031GF108991081061002501999999MD1210031+9999MW1101REMSYN066AAXX  22091 33614 41396 80802 10023 20004 40232 52003 71022 886//;
0140336140999992000122009004+49050+033250FM-12+008499999V0203401N004010075019N0200001N1-00311-00771102201ADDAY121031AY221031GF105991051021008001001001MD1210151+9999MW1261REMSYN066AAXX  20091 33614 41598 53404 11031 21077 40220 52015 72622 85200;
0140336140999992000122109004+49050+033250FM-12+008499999V0203201N005010042019N0100001N1-00381-00711102551ADDAY181031AY221031GF108991081031004501999999MD1810031+9999MW1851REMSYN066AAXX  21091 33614 41497 83205 11038 21071 40255 58003 78582 883//;
0194336140999992000122406004+49050+033250FM-12+008499999V0202201N004019999999N0100001N1-00621-00931100971ADDAA199000091AJ100019199999999GF106991001001999999001011IA1229KA1120N-00641MD1710041+9999REMSYN076AAXX  24061 33614 32997 62204 11062 21093 40097 57004 80001 333 21064 46001;EQDQ01  00002PRCP99
0140336310999992000011215004+48630+022270FM-12+011899999V0209999C000019999999N0020001N1-00271-00571103791ADDAY121031AY221031GF107991071001999999031001MD1710031+9999MW1101REMSYN066AAXX  12151 33631 41995 70000 11027 21057 40379 57003 71022 87030;
0254336310999992000011706004+48630+022270FM-12+011899999V0201401N006010024019N0020001N1-00511-00681101671ADDAA112000791AJ199999999999999AY171061AY221061GA1081+002409069GF108991081061002501999999IA1179KA1120N-00801MD1710461+9999MW1101REMSYN098    AAXX  17061 33631 11395 81406 11051 21068 40167 57046 69902 71072 886// 333 21080 40730 88708;EQDQ01  07302SNDP  
0254336310999992000011806004+48630+022270FM-12+011899999V0203201N006010006019N0010001N1-00101-00141099581ADDAA112006191AJ100449199999999AY171061AY211061GA1071+000609069GF108991999071000751021999IA1239KA1120N-00431MD1410001+9999MW1751REMSYN098    AAXX  18061 33631 11194 83206 11010 21014 49958 54000 60062 77571 8872/ 333 21043 47044 87702;EQDQ01+000082SCOTLC
0142336310999992000011815004+48630+022270FM-12+011899999V0203001N006010120019N0200001N1-00091-00301099491ADDGA1081+012009059GF108991081051012501999999MD1310111+9999REMSYN074    AAXX  18151 33631 42698 83006 11009 21030 49949 53011 885// 333 88640;
0150336310999992000020809004+48630+022270FM-12+011899999V0201401N003010012019N0010001N1+00221+00171101761ADDAY151031AY221031GF108991081061001501999999MD1710041+9999MW1511REMSYN076AAXX  08091 33631 41294 81403 10022 20017 40176 57004 75152 886// 333 8873/;
0166336310999992000021003004+48630+022270FM-12+011899999V0201201N001019999999N0040001N1-00121-00191101891ADDAY111031AY211031GF105991051001999999031001MD1310131+9999MW1101REMSYN092AAXX  10031 33631 41996 51201 11012 21019 40189 53013 71011 85030 333 55000 555 21025 7993/;
0122336310999992000021903004+48630+022270FM-12+011899999V0209999C000019999999N0100001N1-00351-00431101061ADDGF107991071001999999031001MD1710051+9999REMSYN070AAXX  19031 33631 42997 70000 11035 21043 40106 57005 87030 333 55056;
0202336310999992000021918004+48630+022270FM-12+011899999V0201101N004010120019N0100001N1+00161-00281101061ADDAA112000791AY171061AY221061GA1081+012009059GF108991081051012501999999KA1120M+00241MD1310021+9999MW1711REMSYN088AAXX  19181 33631 11697 81104 10016 21028 40106 53002 69902 77172 885// 333 10024 88640;
0138336310999992000022309004+48630+022270FM-12+011899999V0201101N003010360019N0100001N1-00421-01011102861ADDGA1031+012909059GF107991031051012501031001MD1210111+9999REMSYN070AAXX  23091 33631 42697 71103 11042 21101 40286 52011 83530 333 83643;
0138336310999992000030315004+48630+022270FM-12+011899999V0202501N005010129019N0100001N1+00591-00141101541ADDGA1051+012909059GF107991061031012501031001MD1710161+9999REMSYN070AAXX  03151 33631 42697 72505 10059 21014 40154 57016 86330 333 85643;
0152336310999992000031518004+48630+022270FM-12+011899999V0203201N007010360019N0100001N1+00331-00531101591ADDAA112002091GF106991021031012501041001KA1999M+00701MD1210211+9999REMSYN076AAXX  15181 33631 12697 63207 10033 21053 40159 52021 60022 82340 333 10070;
0165336310999992000032318004+48630+022270FM-12+011899999V0201101N004010360019N0100001N1+01041+00191101451ADDAA199000091GF107991021051017501031001KA1999M+01321MD1710101+9999REMSYN070AAXX  23181 33631 32797 71104 10104 20019 40145 57010 82530 333 10132;EQDQ01  00002PRCP99
0112336310999992000041309004+48630+022270FM-12+011899999V0201301N004012200019N0100001N1+01541+00741100671ADDGF103991021051008001031001MD1210121+9999REMSYN060AAXX  13091 33631 42597 31304 10154 20074 40067 52012 82530;
0143336310999992000050300004+48630+022270FM-12+011899999V0200601N003012200019N0100001N1+00791-00601102331ADDGA1001+999999999GF100991001001999999001001MA1999999100881MD1210051+9999REMSYN060AAXX  03001 33631 42997 00603 10079 21060 30088 40233 52005;
0133336310999992000051912004+48630+022270FM-12+011899999V0202801N005012200019N0100001N1+02641+01061100461ADDGF106991041011012501001011MA1999999099141MD1710141+9999REMSYN066AAXX  19121 33631 42697 62805 10264 20106 39914 40046 57014 84101;
0166336310999992000053000004+48630+022270FM-12+011899999V0209999C000010099019N0100001N1+01291+01181101261ADDAY181061AY221061GA1071+009909099GF107991071031012501001001MD1410001+9999MW1021REMSYN076AAXX  30001 33631 41697 70000 10129 20118 40126 54000 70282 87300 333 87933;
0138336310999992000062603004+48630+022260FM-12+011899999V0202801N003010360019N0100001N1+01321+01031101331ADDGF106991041051012501031001MD1210151+9999REMSYN086AAXX  26031 33631 42697 62803 10132 20103 40133 52015 84530 333 55002 555 20130 7007/;
0180336310999992000062706004+48630+022260FM-12+011899999V0203301N002010360019N0100001N1+01581+00711101681ADDAA112000791AY161061AY211061GF107991031051012501031001KA1999N+01071MD1310031+9999MW1021REMSYN082AAXX  27061 33631 11697 73302 10158 20071 40168 53003 69902 70261 83530 333 20107;
0112336310999992000070115004+48630+022260FM-12+011899999V0201501N005012200019N0100001N1+02431+01331101321ADDGF103991031021017501001001MD1710151+9999REMSYN060AAXX  01151 33631 42797 31505 10243 20133 40132 57015 83200;
0187336310999992000073012004+48630+022260FM-12+011899999V0203001N003010360019N0100001N1+01701+01571101571ADDAY181061AY261061GA1041+002409069GF108991041071002501021999MA1999999100191MD1210221+9999MW1611REMSYN082AAXX  30121 33631 41397 83003 10170 20157 30019 40157 52022 76186 8472/ 333 84708;
0112336310999992000081009004+48630+022260FM-12+011899999V0202401N001012200019N0100001N1+02351+01461101961ADDGF103991021021012501031001MD1210011+9999REMSYN060AAXX  10091 33631 42697 32401 10235 20146 40196 52001 82230;
0165336310999992000081418004+48630+022260FM-12+011899999V0200301N002012200019N0100001N1+02371+01361101811ADDAA199000091GF102991001001999999001011KA1999M+02961MD1310031+9999REMSYN070AAXX  14181 33631 32997 20302 10237 20136 40181 53003 80001 333 10296;EQDQ01  00002PRCP99
0143336310999992000082500004+48630+022260FM-12+011899999V0209999C000012200019N0100001N1+01201+00841101761ADDGA1001+999999999GF100991001001999999001001MA1999999100351MD1710121+9999REMSYN060AAXX  25001 33631 42997 00000 10120 20084 30035 40176 57012;
0159336310999992000091212004+48630+022260FM-12+011899999V0203101N005010099019N0100001N1+02271+01101101491ADDGA1061+009909029GF106991061011012501001001MA1999999100131MD1210021+9999REMSYN076AAXX  12121 33631 42697 63105 10227 20110 30013 40149 52002 86100 333 86833;
0156336310999992000093003004+48630+022260FM-12+011899999V0200901N004012200019N0100001N1+01111+00761101681ADDGA1001+999999999GF100991001001999999001001GJ106069MD1810011+9999REMSYN080AAXX  30031 33631 42997 00904 10111 20076 40168 58001 333 55101 555 20081 7000/;
0112336310999992000100315004+48630+022260FM-12+011899999V0203301N001019999999N0100001N1+02341+01281101931ADDGF107991001001999999001011MD1310031+9999REMSYN060AAXX  03151 33631 42997 73301 10234 20128 40193 53003 80001;
0156336310999992000100403004+48630+022260FM-12+011899999V0209999C000012200019N0100001N1+01091+00971102111ADDGA1001+999999999GF100991001001999999001001GJ103009MD1810041+9999REMSYN080AAXX  04031 33631 42997 00000 10109 20097 40211 58004 333 55050 555 20102 7000/;
0156336310999992000101403004+48630+022260FM-12+011899999V0201001N002012200019N0100001N1+01411+01001102121ADDGA1001+999999999GF100991001001999999001001GJ105589MD1210011+9999REMSYN080AAXX  14031 33631 42997 01002 10141 20100 40212 52001 333 55093 555 20104 7000/;
0133336310999992000103112004+48630+022260FM-12+011899999V0201301N004012200019N0100001N1+01941+00731101101ADDGF103991021051012501031001MA1999999099731MD1810141+9999REMSYN066AAXX  31121 33631 42697 31304 10194 20073 39973 40110 58014 82530;
0138336310999992000110903004+48630+022260FM-12+011899999V0201301N002019999999N0100001N1+01141+00561101231ADDGF106991061001999999031001MD1810011+9999REMSYN086AAXX  09031 33631 42997 61302 10114 20056 40123 58001 86030 333 55007 555 20095 7003/;
0133336310999992000112000004+48630+022260FM-12+011899999V0201201N002019999999N0100001N1+00821+00251101241ADDGF106991061001999999031001MA1999999099821MD1210031+9999REMSYN066AAXX  20001 33631 42997 61202 10082 20025 39982 40124 52003 86030;
0196336310999992000120803004+48630+022260FM-12+011899999V0201301N003010036019N0020001N1-00011-00071102511ADDAY141031AY221031GA1081+003609069GF108991081051004501999999GJ100009MD1710101+9999MW1101REMSYN098AAXX  08031 33631 41495 81303 11001 21007 40251 57010 71042 885// 333 55000 88612 555 21007 7990/;
0122336310999992000122221004+48630+022260FM-12+011899999V0201201N002012200019N0100001N1-00541-00921102991ADDGA1001+999999999GF100991001001999999001001MD1310021+9999REMSYN054AAXX  22211 33631 42997 01202 11054 21092 40299 53002;
0161336580999992000010800004+48370+025900FM-12+024699999V0202001N001019999999N0020001N1-00251-00311102971ADDAY121061AY221061GF108991081001999999071999MA1999999099831MD1210031+9999MW1101REMSYN072AAXX  08001 33658 41920 82001 11025 21031 39983 40297 52003 71022 8807/;
0191336580999992000011400004+48370+025900FM-12+024699999V0200901N004010018019N0020001N1-00471-00531103311ADDAY121061AY221061GA1081+001809069GF108991081061001501999999MA1999999100141MD1710101+9999MW1101REMSYN086    AAXX  14001 33658 41220 80904 11047 21053 30014 40331 57010 71022 886// 333 88706;
0156336580999992000011518004+48370+025900FM-12+024699999V0203201N002019999999N0100001N1-00361-00651102731ADDAA112000191GF108991081001999999071999KA1999M-00351MD1410001+9999REMSYN080    AAXX  15181 33658 12997 83202 11036 21065 40273 54000 69922 8807/ 333 11035;
0215336580999992000021406004+48370+025900FM-12+024699999V0200501N00101036001CN0040001N1-00151-00241101441ADDAA199000091AY111061AY211061GA1031+015009059GF106991031051017501031001KA1120N-00231MD1710111+9999MW1101REMSYN082AAXX  14061 33658 31796 60501 11015 21024 40144 57011 71011 83530 333 21023 83650;EQDQ01  00002PRCP99
0160336580999992000022003004+48370+025900FM-12+024699999V0201801N003019999999N0130001N1+00231+00211100731ADDAY141031AY241031GA1091+999999999GF109991091999999999999999MD1210111+9999MW1451REMSYN070AAXX  20031 33658 42963 91803 10023 20021 40073 52011 74544 555 7002/;
0166336580999992000031209004+48370+025900FM-12+024699999V0202901N00601004201CN0100001N1+00181+00051101301ADDAY181031AY221031GA1041+003009069GF108991081091004501999999MD1210411+9999MW1261REMSYN076AAXX  12091 33658 41497 82906 10018 20005 40130 52041 72682 889// 333 84710;
0138336580999992000031609004+48370+025900FM-12+024699999V0202901N00501036001CN0100001N1+00191-00661101281ADDGA1031+015009059GF106991031051017501031001MD1310011+9999REMSYN070AAXX  16091 33658 42797 62905 10019 21066 40128 53001 83530 333 83650;
0165336580999992000040118004+48370+025900FM-12+024699999V0200701N003012200019N0100001N1+01321+00131100691ADDAA199000091GF103991031001999999031001KA1999M+01821MD1710051+9999REMSYN070AAXX  01181 33658 32997 30703 10132 20013 40069 57005 83030 333 10182;EQDQ01  00002PRCP99
0122336580999992000050209004+48370+025900FM-12+024699999V0200201N003012200019N0100001N1+01171+00151102171ADDGA1001+999999999GF100991001001999999001001MD1010081+9999REMSYN054AAXX  02091 33658 42997 00203 10117 20015 40217 50008;
0156336580999992000051403004+48370+025900FM-12+024699999V0202501N002012200019N0100001N1+00501+00201102431ADDGA1001+999999999GF100991001001999999001001GJ108229MD1710041+9999REMSYN080AAXX  14031 33658 42997 02502 10050 20020 40243 57004 333 55137 555 20046 7000/;
0196336580999992000052303004+48370+025900FM-12+024699999V0202701N00101012001CN0100001N1+01191+00991101101ADDAY181031AY221031GA1031+009909099GF106991061031012501031001GJ108409MD1410001+9999MW1801REMSYN098AAXX  23031 33658 41697 62701 10119 20099 40110 54000 78082 86330 333 55140 83933 555 20119 7990/;
0138336580999992000052803004+48370+025900FM-12+024699999V0200701N001012200019N0100001N1+01531+01141101731ADDGF103991031001999999031001MD1410001+9999REMSYN086AAXX  28031 33658 42997 30701 10153 20114 40173 54000 83030 333 55130 555 20153 7000/;
0122336580999992000060421004+48370+025900FM-12+024699999V0202001N002012200019N0100001N1+01861+00681101961ADDGA1001+999999999GF100991001001999999001001MD1210071+9999REMSYN054AAXX  04211 33658 42997 02002 10186 20068 40196 52007;
0202336580999992000062106004+48360+025900FM-12+024699999V0200501N003010360019N0100001N1+01641+01391101091ADDAA112006191AY191061AY281061GA1041+004809099GF108991041031004501071999KA1120N+01491MD1810261+9999MW1951REMSYN088AAXX  21061 33658 11497 80503 10164 20139 40109 58026 60062 79598 8437/ 333 20149 84916;
0112336580999992000062821004+48360+025900FM-12+024699999V0201801N002012200019N0100001N1+01331+00381101591ADDGF103991031001999999031001MD1210071+9999REMSYN060AAXX  28211 33658 42997 31802 10133 20038 40159 52007 83030;
0138336580999992000070715004+48360+025900FM-12+024699999V0202901N005012200019N0100001N1+02501+01141101161ADDGA1041+015009029GF104991041011017501001001MD1710051+9999REMSYN070AAXX  07151 33658 42797 42905 10250 20114 40116 57005 84100 333 84850;
0159336580999992000072412004+48360+025900FM-12+024699999V0200901N002010360019N0100001N1+02301+01211101181ADDGA1031+009909099GF106991031031012501031001MA1999999098371MD1710041+9999REMSYN076AAXX  24121 33658 42697 60902 10230 20121 39837 40118 57004 83330 333 83933;
0122336580999992000082021004+48360+025900FM-12+024699999V0202301N002012200019N0100001N1+02301+01771101581ADDGA1001+999999999GF100991001001999999001001MD1410001+9999REMSYN054AAXX  20211 33658 42997 02302 10230 20177 40158 54000;
0166336580999992000090121004+48360+025900FM-12+024699999V0203201N004010042019N0100001N1+01611+01541100441ADDAY181031AY221031GA1061+004209099GF108991061031004501071999MD1710031+9999MW1021REMSYN076AAXX  01211 33658 41497 83204 10161 20154 40044 57003 70282 8637/ 333 86914;
0133336580999992000091100004+48360+025900FM-12+024699999V0202901N002012200019N0100001N1+01241+01001101951ADDGF102991021001999999031001MA1999999099021MD1710081+9999REMSYN066AAXX  11001 33658 42997 22902 10124 20100 39902 40195 57008 82030;
0122336580999992000091321004+48360+025900FM-12+024699999V0201401N001012200019N0100001N1+01391+01091101431ADDGA1001+999999999GF100991001001999999001001MD1810011+9999REMSYN054AAXX  13211 33658 42997 01401 10139 20109 40143 58001;
0122336580999992000093015004+48360+025900FM-12+024699999V0201401N005012200019N0100001N1+01681+00641102161ADDGA1001+999999999GF100991001001999999001001MD1410001+9999REMSYN054AAXX  30151 33658 42997 01405 10168 20064 40216 54000;
0175336580999992000100418004+48360+025900FM-12+024699999V0201101N003012200019N0100001N1+01411+00741102271ADDAA199000091GA1001+999999999GF100991001001999999001001KA1999M+02341MD1310031+9999REMSYN064AAXX  04181 33658 32997 01103 10141 20074 40227 53003 333 10234;EQDQ01  00002PRCP99
0138336580999992000101009004+48360+025900FM-12+024699999V0201401N007010360019N0100001N1+00901+00631101301ADDGA1041+009909059GF106991041051012501031001MD1710051+9999REMSYN070AAXX  10091 33658 42697 61407 10090 20063 40130 57005 84530 333 84633;
0112336580999992000102521004+48360+025900FM-12+024699999V0201401N001012200019N0100001N1+00731+00321101751ADDGF103991031001999999031001MD1710081+9999REMSYN060AAXX  25211 33658 42997 31401 10073 20032 40175 57008 83030;
0140336580999992000110909004+48360+025900FM-12+024699999V0201101N004019999999N0020001N1+00921+00841101561ADDAY141031AY221031GF107991071001999999031001MD1410001+9999MW1281REMSYN066AAXX  09091 33658 41920 71104 10092 20084 40156 54000 72842 87030;
0165336580999992000111918004+48360+025900FM-12+024699999V0201401N005019999999N0100001N1+00671+00461101561ADDAA199000091GF107991071001999999031001KA1999M+00961MD1710021+9999REMSYN070AAXX  19181 33658 32997 71405 10067 20046 40156 57002 87030 333 10096;EQDQ01  00002PRCP99
0184336580999992000112103004+48360+025900FM-12+024699999V0202001N002010003019N0004001N1+00561+00561101671ADDAY141031AY241031GA1091+999999999GF109991091999999999999999GJ100369MD1210031+9999MW1451REMSYN086AAXX  21031 33658 41/04 92002 10056 20056 40167 52003 74544 333 55006 555 20047 7000/;
0181336580999992000120212004+48360+025900FM-12+024699999V0201401N002010003019N0002001N1-00071-00071102441ADDAY141061AY241061GA1091+999999999GF109991091999999999999999MA1999999099341MD1710081+9999MW1451REMSYN076AAXX  02121 33658 41/02 91402 11007 21007 39934 40244 57008 74544 333 93401;
0138336580999992000121703004+48360+025900FM-12+024699999V0202301N004019999999N0100001N1+00061-00171100551ADDGF107991071001999999031001MD1410001+9999REMSYN086AAXX  17031 33658 42997 72304 10006 21017 40055 54000 87030 333 55000 555 20003 7993/;
0161336580999992000122112004+48360+025900FM-12+024699999V0202901N005012200019N0100001N1-00491-01071103271ADDAY181061AY211061GF102991021001999999031001MA1999999100091MD1710121+9999MW1011REMSYN072AAXX  21121 33658 41997 22905 11049 21107 30009 40327 57012 70181 82030;
0122336580999992000122421004+48360+025900FM-12+024699999V0202501N002012200019N0100001N1-00571-00831101001ADDGA1001+999999999GF100991001001999999001001MD1210051+9999REMSYN054AAXX  24211 33658 42997 02502 11057 21083 40100 52005;
0138336580999992000122803004+48360+025900FM-12+024699999V0200901N003019999999N0100001N1+00281+00101100061ADDGF107991071001999999031001MD1710121+9999REMSYN086AAXX  28031 33658 42997 70903 10028 20010 40006 57012 87030 333 55035 555 20028 7990/;
0165336630999992000011512004+48450+027780FM-12+007999999V0202701N001010360019N0040001N1-00131-00391102671ADDAY171061AY221061GF108991031071004501021999MA1999999101671MD1810201+9999MW1711REMSYN076    AAXX  15121 33663 41496 82701 11013 21039 30167 40267 58020 77172 8372/;
0175336630999992000020218004+48450+027780FM-12+007999999V0209999C000012200019N0100001N1+00201+00041101091ADDAA199000091GA1001+999999999GF100991001001999999001001KA1999M+01121MD1710041+9999REMSYN064AAXX  02181 33663 32997 00000 10020 20004 40109 57004 333 10112;EQDQ01  00002PRCP99
0112336630999992000021115004+48450+027780FM-12+007999999V0201901N001012200019N0200001N1+00671-00031102561ADDGF102991001001999999001011MD1310011+9999REMSYN060AAXX  11151 33663 42998 21901 10067 21003 40256 53001 80001;
0143336630999992000032512004+48450+027780FM-12+007999999V0202501N001012200019N0200001N1+01221-00571102211ADDGA1001+999999999GF100991001001999999001001MA1999999101261MD1810081+9999REMSYN060AAXX  25121 33663 42998 02501 10122 21057 30126 40221 58008;
0190336630999992000040206004+48450+027780FM-12+007999999V0200701N001010360019N0200001N1+00871+00641100711ADDAA112001091AY181061AY221061GF108991041031008001021999KA1120N+00871MD1710051+9999MW1021REMSYN092AAXX  02061 33663 11598 80701 10087 20064 40071 57005 60012 70282 8432/ 333 20087 555 31007;
0140336630999992000042215004+48450+027780FM-12+007999999V0203101N002010075019N0100001N1+01481+01191100971ADDAY181031AY221031GF108991061031008001021999MD1310011+9999MW1021REMSYN066AAXX  22151 33663 41597 83102 10148 20119 40097 53001 70282 8632/;
0122336630999992000051703004+48450+027780FM-12+007999999V0209999C000012200019N0200001N1+00801+00651101821ADDGF102991001001999999001011MD1210071+9999REMSYN070AAXX  17031 33663 42998 20000 10080 20065 40182 52007 80001 555 7000/;
0165336630999992000051918004+48450+027780FM-12+007999999V0201101N001012200019N0100001N1+02181+01291100491ADDAA199000091GF103991021031008001031001KA1999M+03061MD1310061+9999REMSYN070AAXX  19181 33663 32597 31101 10218 20129 40049 53006 82330 333 10306;EQDQ01  00002PRCP99
0122336630999992000053003004+48450+027780FM-12+007999999V0202301N002010360019N0200001N1+01811+01271100961ADDGF106991031011012501031001MD1310021+9999REMSYN070AAXX  30031 33663 42698 62302 10181 20127 40096 53002 83130 555 7000/;
0166336630999992000061521004+48440+027770FM-12+007999999V0203101N003010081019N0100001N1+01771+01621101301ADDAY191031AY281031GA1061+008109099GF108991061031008001021999MD1310231+9999MW1951REMSYN076AAXX  15211 33663 41597 83103 10177 20162 40130 53023 79598 8632/ 333 86927;
0166336630999992000063021004+48440+027770FM-12+007999999V0203401N002010069019N0100001N1+01481+01371101561ADDAY191031AY281031GA1081+006909099GF108991031999008001999999MD1210141+9999MW1951REMSYN076AAXX  30211 33663 41597 83402 10148 20137 40156 52014 79598 83/// 333 88923;
0133336630999992000072712004+48440+027770FM-12+007999999V0202701N005010360019N0200001N1+02401+01501100821ADDGF106991021011012501031011MA1999999099931MD1210101+9999REMSYN066AAXX  27121 33663 42698 62705 10240 20150 39993 40082 52010 82131;
0175336630999992000081418004+48440+027770FM-12+007999999V0203401N001012200019N0100001N1+02191+01041101991ADDAA199000091GA1001+999999999GF100991001001999999001001KA1999M+02891MD1310021+9999REMSYN064AAXX  14181 33663 32997 03401 10219 20104 40199 53002 333 10289;EQDQ01  00002PRCP99
0175336630999992000082206004+48440+027770FM-12+007999999V0209999C000012200019N0200001N1+02081+01471101451ADDAA199000091GA1001+999999999GF100991001001999999001001KA1999N+01681MD1310051+9999REMSYN064AAXX  22061 33663 32998 00000 10208 20147 40145 53005 333 20168;EQDQ01  00002PRCP99
0203336630999992000091306004+48440+027770FM-12+007999999V0209999C000010003019N0005001N1+01011+00971101751ADDAA199000091AY141061AY211061GA1091+999999999GF109991091999999999999999KA1999N+00971MD1210081+9999MW1451REMSYN070AAXX  13061 33663 31/93 90000 10101 20097 40175 52008 74541 333 20097;EQDQ01  00002PRCP99
0112336630999992000092115004+48440+027770FM-12+007999999V0203201N002010075019N0200001N1+01441+00821101691ADDGF108991061051008001031999MD1310021+9999REMSYN060AAXX  21151 33663 42598 83202 10144 20082 40169 53002 8653/;
0175336630999992000100318004+48440+027770FM-12+007999999V0209999C000012200019N0100001N1+01351+01121102491ADDAA199000091GA1001+999999999GF100991001001999999001001KA1999M+02371MD1310021+9999REMSYN064AAXX  03181 33663 32997 00000 10135 20112 40249 53002 333 10237;EQDQ01  00002PRCP99
0132336630999992000101403004+48440+027770FM-12+007999999V0200901N001012200019N0100001N1+00811+00731102611ADDGA1001+999999999GF100991001001999999001001MD1810031+9999REMSYN064AAXX  14031 33663 42997 00901 10081 20073 40261 58003 555 7000/;
0171336630999992000102400004+48440+027770FM-12+007999999V0209999C000012200019N0020001N1-00181-00241102881ADDAY101061AY201061GA1001+999999999GF100991001001999999001001MA1999999101881MD1710081+9999MW1101REMSYN066AAXX  24001 33663 41995 00000 11018 21024 30188 40288 57008 71000;
0159336630999992000110200004+48440+027770FM-12+007999999V0200901N002010087019N0100001N1+01181+00881101371ADDGA1071+008709059GF107991071051008001999999MA1999999100431MD1710061+9999REMSYN076AAXX  02001 33663 42597 70902 10118 20088 30043 40137 57006 875// 333 87629;
0166336630999992000111721004+48440+027770FM-12+007999999V0201001N003010060019N0020001N1+00921+00771102241ADDAY121031AY221031GA1071+006009059GF107991071051008001999999MD1410001+9999MW1101REMSYN076AAXX  17211 33663 41595 71003 10092 20077 40224 54000 71022 875// 333 87620;
0133336630999992000112000004+48440+027770FM-12+007999999V0200901N003019999999N0100001N1+00991+00621101731ADDGF108991081001999999031001MA1999999100781MD1710011+9999REMSYN066AAXX  20001 33663 42997 80903 10099 20062 30078 40173 57001 88030;
0176336630999992000120103004+48440+027770FM-12+007999999V0209999C000010045019N0010001N1-00221-00311102681ADDAY141031AY221031GA1061+004509079GF108991081061004501999999MD1810021+9999MW1101REMSYN086AAXX  01031 33663 41494 80000 11022 21031 40268 58002 71042 886// 333 86715 555 7000/;
0122336630999992000121403004+48440+027770FM-12+007999999V0209999C000019999999N0100001N1+00701+00591101351ADDGF105991051001999999031001MD1710121+9999REMSYN070AAXX  14031 33663 42997 50000 10070 20059 40135 57012 85030 555 7003/;
0150336630999992000122721004+48440+027770FM-12+007999999V0209999C000012200019N0020001N1+00121+00041100321ADDAY111031AY211031GA1001+999999999GF100991001001999999001001MD1210031+9999MW1101REMSYN060AAXX  27211 33663 41995 00000 10012 20004 40032 52003 71011;
0209337110999992000013106004+48480+032250FM-12+017299999V0202601N006019999999N0200001N1-00021-00191101031ADDAA112000591AJ100279199999999AY181061AY211061GF107991071001999999031001IA1289KA1120N-00121MD1210231+9999MW1261REMSYN088AAXX  31061 33711 11998 72606 11002 21019 40103 52023 69952 72681 87030 333 21012 44027;
0193337110999992000020900004+48480+032250FM-12+017299999V0201401N002010018019N0026001N1+00011-00051100891ADDAY181061AY241061GA1081+001809079GF108991081061001501999999MA1999999098761MD1710091+9999MW1101REMSYN088AAXX  09001 33711 41226 81402 10001 21005 39876 40089 57009 71084 886// 333 88706 93400;
0138337110999992000021309004+48480+032250FM-12+017299999V0201701N002010051019N0200001N1-00161-00571102511ADDGA1081+005109059GF108991081051004501999999MD1710051+9999REMSYN070AAXX  13091 33711 42498 81702 11016 21057 40251 57005 885// 333 88617;
0140337110999992000022209004+48480+032250FM-12+017299999V0203101N009010120019N0200001N1-00391-00801101741ADDAY181031AY231031GF108991081031012501999999MD1210161+9999MW1261REMSYN066AAXX  22091 33711 41698 83109 11039 21080 40174 52016 72683 883//;
0140337110999992000022709004+48480+032250FM-12+017299999V0203201N004010120019N0200001N1+00111-00121102451ADDAY181031AY221031GF108991081031012501999999MD1210141+9999MW1021REMSYN066AAXX  27091 33711 41698 83204 10011 21012 40245 52014 70282 883//;
0187337110999992000030900004+48480+032250FM-12+017299999V0202201N003010105019N0100001N1+00461+00341100921ADDAY181061AY211061GA1081+010509099GF108991081031012501999999MA1999999098821MD1710091+9999MW1801REMSYN082AAXX  09001 33711 41660 82203 10046 20034 39882 40092 57009 78081 883// 333 88935;
0181337110999992000031106004+48480+032250FM-12+017299999V0202601N006019999999N0200001N1-00321-00531101511ADDAA112000591AJ100039199999999GF106991061001999999031001IA1239KA1120N-00501MD1210111+9999REMSYN082AAXX  11061 33711 12998 62606 11032 21053 40151 52011 69962 86030 333 21050 47003;
0202337110999992000033118004+48480+032250FM-12+017299999V0200901N004010030019N0013001N1+00621+00581101101ADDAA112004191AY181061AY221061GA1081+003009069GF108991081031004501999999KA1120M+00661MD1710051+9999MW1801REMSYN088AAXX  31181 33711 11413 80904 10062 20058 40110 57005 60042 78082 883// 333 10066 88710;
0140337110999992000041615004+48480+032250FM-12+017299999V0201801N005010360019N0100001N1+01701+00841101411ADDAY121031AY221031GF107991041031012501031001MD1710071+9999MW1801REMSYN066AAXX  16151 33711 41660 71805 10170 20084 40141 57007 78022 84330;
0166337110999992000052115004+48480+032250FM-12+017299999V0202201N005010060019N0060001N1+01361+01211100341ADDAY191031AY281031GA1081+006009099GF108991081091008001999999MD1310041+9999MW1951REMSYN076AAXX  21151 33711 41556 82205 10136 20121 40034 53004 79598 889// 333 88920;
0133337110999992000060312004+48480+032250FM-12+017299999V0200101N008012200019N0200001N1+02181+00901101961ADDGF102991021011012501001001MA1999999099971MD1710081+9999REMSYN066AAXX  03121 33711 42698 20108 10218 20090 39997 40196 57008 82100;
0180337110999992000063006004+48480+032250FM-12+017299999V0201501N004010120019N0100001N1+01341+01151101761ADDAA112001091AY181061AY221061GF108991061031012501071999KA1999N+01311MD1210051+9999MW1801REMSYN082AAXX  30061 33711 11660 81504 10134 20115 40176 52005 60012 78082 8637/ 333 20131;
0112337110999992000070121004+48480+032250FM-12+017299999V0209999C000012200019N0100001N1+01801+01281101481ADDGF103991001001999999001011MD1210091+9999REMSYN060AAXX  01211 33711 42960 30000 10180 20128 40148 52009 80001;
0187337110999992000070606004+48480+032250FM-12+017299999V0202701N004012200019N0200001N1+01961+01591100941ADDAA199000091GA1031+003909069GF103991031061004501001001KA1120N+01721MD1210041+9999REMSYN076AAXX  06061 33711 32498 32704 10196 20159 40094 52004 83600 333 20172 83713;EQDQ01  00002PRCP99
0140337110999992000072221004+48480+032250FM-12+017299999V0203301N003012200019N0100001N1+01681+01421101561ADDAY111031AY211031GF103991021031012501031001MD1710101+9999MW1131REMSYN066AAXX  22211 33711 41660 33303 10168 20142 40156 57010 71311 82330;
0112337110999992000081821004+48480+032250FM-12+017299999V0203001N002019999999N0100001N1+02281+01641101741ADDGF107991071001999999031001MD1210131+9999REMSYN060AAXX  18211 33711 42960 73002 10228 20164 40174 52013 87030;
0112337110999992000083021004+48480+032250FM-12+017299999V0202801N002019999999N0100001N1+01361+01181101301ADDGF107991071001999999031001MD1710021+9999REMSYN060AAXX  30211 33711 42960 72802 10136 20118 40130 57002 87030;
0159337110999992000083100004+48480+032250FM-12+017299999V0202601N003010036019N0100001N1+01361+01251101211ADDGA1081+003609069GF108991081061004501999999MA1999999099181MD1710081+9999REMSYN076AAXX  31001 33711 42460 82603 10136 20125 39918 40121 57008 886// 333 88712;
0128337110999992000091403004+48480+032250FM-12+017299999V0201301N004012200019N0100001N1+00841+00531101661ADDGF103991001001999999001011MD1710141+9999REMSYN076AAXX  14031 33711 42960 31304 10084 20053 40166 57014 80001 555 20081 7000/;
0133337110999992000091700004+48480+032250FM-12+017299999V0209999C000019999999N0100001N1+00911+00741101951ADDGF107991071001999999031001MA1999999099861MD1810021+9999REMSYN066AAXX  17001 33711 42960 70000 10091 20074 39986 40195 58002 87030;
0122337110999992000100715004+48480+032250FM-12+017299999V0200601N007012200019N0200001N1+01641+00341102501ADDGA1001+999999999GF100991001001999999001001MD1710021+9999REMSYN054AAXX  07151 33711 42998 00607 10164 20034 40250 57002;
0237337110999992000102706004+48480+032250FM-12+017299999V0201501N005010006019N0009001N1+00761+00761101601ADDAA199000091AY141061AY211061GA1091+999999999GF109991091999999999999999IA1019IA2999+00309KA1120N+00531MD1710051+9999MW1451REMSYN086AAXX  27061 33711 31/09 91505 10076 20076 40160 57005 74541 333 20053 555 30003 52003;EQDQ01  00002PRCP99
0209337110999992000102906004+48480+032250FM-12+017299999V0209999C000012200019N0100001N1+00301+00221102561ADDAA199000091GA1001+999999999GF100991001001999999001001IA1019IA2999-00409KA1120N+00251MD1210101+9999REMSYN080AAXX  29061 33711 32960 00000 10030 20022 40256 52010 333 20025 555 30104 52104;EQDQ01  00002PRCP99
0128337110999992000103103004+48480+032250FM-12+017299999V0201501N005010120019N0100001N1+00541+00401102171ADDGF105991051051012501001001MD1710021+9999REMSYN076AAXX  31031 33711 42660 51505 10054 20040 40217 57002 85500 555 20044 7000/;
0187337110999992000112112004+48480+032250FM-12+017299999V0200401N003010024019N0100001N1+00101+00021102031ADDAY151061AY221061GA1081+002409069GF108991081061002501999999MA1999999099881MD1710051+9999MW1021REMSYN082AAXX  21121 33711 41360 80403 10010 20002 39988 40203 57005 70252 886// 333 88708;
0187337110999992000123112004+48480+032250FM-12+017299999V0201501N005010042019N0200001N1+00881+00731100431ADDAY181061AY241061GA1051+004209069GF106991051061004501031001MA1999999098371MD1410001+9999MW1021REMSYN082AAXX  31121 33711 41498 61505 10088 20073 39837 40043 54000 70284 85630 333 85714;
0165337610999992000011612004+47850+030270FM-12+018299999V0203601N004019999999N0200001N1-00361-00801102511ADDAY171061AY221061GF108991081001999999071999MA1999999100181MD1810031+9999MW1021REMSYN076    AAXX  16121 33761 41998 83604 11036 21080 30018 40251 58003 70272 8807/;
0112337610999992000012315004+47850+030270FM-12+018299999V0201401N002019999999N0200001N1-00931-01571101751ADDGF108991001001999999001021MD1710021+9999REMSYN060AAXX  23151 33761 42998 81402 11093 21157 40175 57002 80002;
0165337610999992000030706004+47850+030270FM-12+018299999V0202301N003019999999N0200001N1-00241-00741102191ADDAA199000091GF108991081001999999071999KA1999N-00441MD1710171+9999REMSYN070AAXX  07061 33761 32998 82303 11024 21074 40219 57017 8807/ 333 21044;EQDQ01  00002PRCP99
0133337610999992000033012004+47850+030270FM-12+018299999V0201001N006010021019N0120001N1+00801+00461102031ADDGF108991081061002501999999MA1999999099801MD1710171+9999REMSYN066AAXX  30121 33761 42362 81006 10080 20046 39980 40203 57017 886//;
0143337610999992000040400004+47850+030270FM-12+018299999V0203201N003012200019N0280001N1+00781+00411101221ADDGA1001+999999999GF100991001001999999001001MA1999999099011MD1810071+9999REMSYN060AAXX  04001 33761 42978 03203 10078 20041 39901 40122 58007;
0150337610999992000041703004+47850+030270FM-12+018299999V0201701N002010042019N0050001N1+00701+00611101281ADDAY121031AY221031GF108991081061004501999999MD1310121+9999MW1101REMSYN076AAXX  17031 33761 41450 81702 10070 20061 40128 53012 71022 886// 555 7998/;
0122337610999992000051321004+47850+030270FM-12+018299999V0203001N001012200019N0500001N1+00621-00271102131ADDGA1001+999999999GF100991001001999999001001MD1210041+9999REMSYN054AAXX  13211 33761 42999 03001 10062 21027 40213 52004;
0122337610999992000052821004+47850+030270FM-12+018299999V0202101N002012200019N0400001N1+02081+01101101591ADDGA1001+999999999GF100991001001999999001001MD1410001+9999REMSYN054AAXX  28211 33761 42982 02102 10208 20110 40159 54000;
0112337610999992000060509004+47850+030270FM-12+018299999V0203401N004012200019N0200001N1+02831+01241101781ADDGF101991011011012501001001MD1710041+9999REMSYN060AAXX  05091 33761 42698 13404 10283 20124 40178 57004 81100;
0112337610999992000062521004+47840+030260FM-12+018299999V0201301N005012200019N0240001N1+02081+01581100751ADDGF101991011051008001001001MD1710011+9999REMSYN060AAXX  25211 33761 42574 11305 10208 20158 40075 57001 81500;
0133337610999992000062912004+47840+030260FM-12+018299999V0201801N004010075019N0200001N1+02201+00781101331ADDGF108991081041008001999999MA1999999099231MD1710171+9999REMSYN066AAXX  29121 33761 42598 81804 10220 20078 39923 40133 57017 884//;
0112337610999992000070809004+47840+030260FM-12+018299999V0202601N002010360019N0200001N1+02231+01351100871ADDGF107991011011012501031011MD1710051+9999REMSYN060AAXX  08091 33761 42698 72602 10223 20135 40087 57005 81131;
0140337610999992000081315004+47840+030260FM-12+018299999V0203301N002010075019N0200001N1+02941+01421101521ADDAY191031AY281031GF105991051051008001001001MD1610031+9999MW1021REMSYN066AAXX  13151 33761 41598 53302 10294 20142 40152 56003 70298 85500;
0193337610999992000092006004+47840+030260FM-12+018299999V0203601N004010042019N0070001N1+01361+01251101391ADDAA199000091AY121061AY221061GF108991081061004501999999KA1999N+01361MD1210011+9999MW1101REMSYN076AAXX  20061 33761 31457 83604 10136 20125 40139 52001 71022 886// 333 20136;EQDQ01  00002PRCP99
0215337610999992000092600004+47840+030260FM-12+018299999V0203601N004010075019N0130001N1+00731+00591102411ADDAY161061AY221061GF108991081051008001999999MA1999999100171MD1710031+9999MW1611REMSYN126AAXX  26001 33761 41563 83604 10073 20059 30017 40241 57003 76162 885// 33889 42598 83203 10090 20084 30202 40239 58006 885//;
0112337610999992000092621004+47840+030260FM-12+018299999V0203501N002019999999N0250001N1+00941+00511102411ADDGF108991081001999999051999MD1110081+9999REMSYN060AAXX  26211 33761 42975 83502 10094 20051 40241 51008 8805/;
0169337610999992000110303004+47840+030260FM-12+018299999V0201401N004010042019N0035001N1+01121+01101101641ADDAY161031AY261031GF108991999071004501021999MD1710011+9999MW1611REMSYN076AAXX  03031 33761 41435 81404 10112 20110 40164 57001 76166 8872/ 555 7009/;EQDQ01+000082SCOTLC
0161337610999992000110712004+47840+030260FM-12+018299999V0201201N004010042019N0050001N1+01281+01191101261ADDAY151061AY241061GF107991071061004501001001MA1999999099091MD1810071+9999MW1101REMSYN072AAXX  07121 33761 41450 71204 10128 20119 39909 40126 58007 71054 87600;
0150337610999992000112121004+47840+030260FM-12+018299999V0201201N001010003019N0005001N1+00341+00341102041ADDAY141031AY241031GA1091+999999999GF109991091999999999999999MD1210031+9999MW1451REMSYN060AAXX  21211 33761 41/05 91201 10034 20034 40204 52003 74544;
0166337610999992000112615004+47840+030260FM-12+018299999V0201201N006010042019N0050001N1-00391-00541102291ADDAY121031AY221031GA1081+004209069GF108991081061004501999999MD1710081+9999MW1101REMSYN076AAXX  26151 33761 41450 81206 11039 21054 40229 57008 71022 886// 333 88714;
0159337610999992000112709004+47840+030260FM-12+018299999V0201101N008010042019N0120001N1-00121-00191101751ADDAY161031AY261031GF108991999071004501021999MD1710031+9999MW1661REMSYN066AAXX  27091 33761 41462 81108 11012 21019 40175 57003 76666 8872/;EQDQ01+000082SCOTLC
0140337610999992000121621004+47840+030260FM-12+018299999V0202701N002010075019N0040001N1+00401+00281100211ADDAY121031AY221031GF107991071051008001999999MD1210081+9999MW1101REMSYN066AAXX  16211 33761 41596 72702 10040 20028 40021 52008 71022 875//;
0180337610999992000122118004+47840+030260FM-12+018299999V0203201N004010042019N0040001N1-00551-00731102861ADDAA112000191AY181061AY221061GF108991081091004501999999KA1999M-00421MD1310031+9999MW1861REMSYN082AAXX  21181 33761 11496 83204 11055 21073 40286 53003 69922 78682 889// 333 11042;
0140337770999992000120909004+47570+031320FM-12+003399999V0201301N002010042019N0100001N1-00081-00271103041ADDAY171031AY221031GF108991081061004501999999MD1710021+9999MW1771REMSYN066AAXX  09091 33777 41497 81302 11008 21027 40304 57002 77772 886//;
0166337910999992000010709004+43030+033220FM-12+012599999V0200501N004010030019N0040001N1-00241-00401102851ADDAY121031AY221031GA1081+003009069GF108991081061004501999999MD1110041+9999MW1101REMSYN076AAXX  07091 33791 41496 80504 11024 21040 40285 51004 71022 886// 333 88710;
0140337910999992000012121004+43030+033220FM-12+012599999V0203601N006019999999N0100001N1-00641-01001099421ADDAY131031AY221031GF108991081001999999051999MD1210121+9999MW1361REMSYN066AAXX  21211 33791 41997 83606 11064 21100 49942 52012 73632 8805/;
0143337910999992000021600004+43030+033220FM-12+012599999V0209999C000012200019N0100001N1-00401-00491101881ADDGA1001+999999999GF100991001001999999001001MA1999999100281MD1410001+9999REMSYN060AAXX  16001 33791 42997 00000 11040 21049 30028 40188 54000;
0133337910999992000022400004+43030+033220FM-12+012599999V0202501N003019999999N0100001N1-00701-00911102611ADDGF106991061001999999031001MA1999999100981MD1210061+9999REMSYN066AAXX  24001 33791 42997 62503 11070 21091 30098 40261 52006 86030;
0128337910999992000032403004+43030+033220FM-12+012599999V0202101N002012200019N0100001N1+00161-00051101021ADDGF102991021001999999031001MD1710131+9999REMSYN076AAXX  24031 33791 42997 22102 10016 21005 40102 57013 82030 555 20016 7000/;
0187337910999992000032912004+43030+033220FM-12+012599999V0200101N006010024019N0100001N1+00541+00301102101ADDAY151061AY221061GA1081+002409069GF108991081061002501999999MA1999999100561MD1210111+9999MW1021REMSYN082AAXX  29121 33791 41397 80106 10054 20030 30056 40210 52011 70252 886// 333 88708;
0112337910999992000040915004+43030+033220FM-12+012599999V0209999V002019999999N0100001N1+00641+00221101591ADDGF108991081001999999051999MD1210071+9999REMSYN060AAXX  09151 33791 42997 89902 10064 20022 40159 52007 8805/;
0112337910999992000041209004+43030+033220FM-12+012599999V0202101N003012200019N0100001N1+01461-00441101001ADDGF102991021011008001001001MD1810011+9999REMSYN060AAXX  12091 33791 42597 22103 10146 21044 40100 58001 82100;
0165337910999992000041218004+43030+033220FM-12+012599999V0202301N003019999999N0100001N1+01021-00021100931ADDAA199000091GF106991061001999999031001KA1999M+01681MD1010011+9999REMSYN070AAXX  12181 33791 32997 62303 10102 21002 40093 50001 86030 333 10168;EQDQ01  00002PRCP99
0175337910999992000042806004+43030+033220FM-12+012599999V0201001N005012200019N0100001N1+01861+00861101911ADDAA199000091GA1001+999999999GF100991001001999999001001KA1999N+01251MD1210111+9999REMSYN064AAXX  28061 33791 32997 01005 10186 20086 40191 52011 333 20125;EQDQ01  00002PRCP99
0112337910999992000050209004+43030+033220FM-12+012599999V0203301N006012200019N0100001N1+01061-00361101841ADDGF101991011011012501001001MD1210101+9999REMSYN060AAXX  02091 33791 42697 13306 10106 21036 40184 52010 81100;
0138337910999992000060209004+43030+033220FM-12+012599999V0203401N006010360019N0100001N1+01591+00951101721ADDGA1041+006909099GF108991041031008001051999MD1210071+9999REMSYN070AAXX  02091 33791 42597 83406 10159 20095 40172 52007 8435/ 333 84923;
0187337910999992000070518004+43300+033210FM-12+012599999V0203001N003010099019N0100001N1+02811+02201100551ADDAA199000091GA1051+009909099GF107991051031012501001011KA1120M+03061MD1510011+9999REMSYN076AAXX  05181 33791 32697 73003 10281 20220 40055 55001 85301 333 10306 85933;EQDQ01  00002PRCP99
0165337910999992000070806004+43300+033210FM-12+012599999V0209999C000019999999N0100001N1+02001+01571100881ADDAA199000091GF106991001001999999001011KA1999N+01251MD1410001+9999REMSYN070AAXX  08061 33791 32997 60000 10200 20157 40088 54000 80001 333 20125;EQDQ01  00002PRCP99
0122337910999992000080615004+43030+033210FM-12+012599999V0200401N005012200019N0100001N1+02611+01511101861ADDGA1001+999999999GF100991001001999999001001MD1810021+9999REMSYN054AAXX  06151 33791 42997 00405 10261 20151 40186 58002;
0112337910999992000081915004+43030+033210FM-12+012599999V0203601N003012200019N0100001N1+03051+01401101851ADDGF101991001001999999001011MD1710061+9999REMSYN060AAXX  19151 33791 42997 13603 10305 20140 40185 57006 80001;
0165337910999992000083018004+43030+033210FM-12+012599999V0203201N003019999999N0100001N1+01611+01231101241ADDAA199000091GF106991041001999999031011KA1999M+02081MD1310021+9999REMSYN070AAXX  30181 33791 32997 63203 10161 20123 40124 53002 84031 333 10208;EQDQ01  00002PRCP99
0112337910999992000091015004+43030+033210FM-12+012599999V0202701N003012200019N0100001N1+02301+01031102151ADDGF102991001001999999001011MD1710151+9999REMSYN060AAXX  10151 33791 42997 22703 10230 20103 40215 57015 80001;
0143337910999992000100200004+43030+033210FM-12+012599999V0200401N005012200019N0100001N1+00771+00341102921ADDGA1001+999999999GF100991001001999999001001MA1999999101381MD1610031+9999REMSYN060AAXX  02001 33791 42997 00405 10077 20034 30138 40292 56003;
0159337910999992000101212004+43030+033210FM-12+012599999V0200701N004010063019N0070001N1+01081+00771102381ADDGA1081+006309069GF108991081061008001999999MA1999999100861MD1310041+9999REMSYN076AAXX  12121 33791 42557 80704 10108 20077 30086 40238 53004 886// 333 88721;
0202337910999992000110718004+43030+033210FM-12+012599999V0200801N007010042019N0100001N1+00761+00621101861ADDAA112000791AY161061AY251061GA1081+004209069GF108991081061004501999999KA1120M+00811MD1110021+9999MW1021REMSYN088AAXX  07181 33791 11497 80807 10076 20062 40186 51002 69902 70265 886// 333 10081 88714;
0133337910999992000110912004+43030+033210FM-12+012599999V0201001N006019999999N0100001N1+00801+00381102441ADDGF108991031001999999031011MA1999999100911MD1810071+9999REMSYN066AAXX  09121 33791 42997 81006 10080 20038 30091 40244 58007 83031;
0122337910999992000111915004+43030+033210FM-12+012599999V0200901N002012200019N0100001N1+00441+00191102351ADDGA1001+999999999GF100991001001999999001001MD1710051+9999REMSYN054AAXX  19151 33791 42997 00902 10044 20019 40235 57005;
0128337910999992000112603004+43030+033210FM-12+012599999V0200701N006019999999N0100001N1-00831-01021102951ADDGF105991051001999999031001MD1310061+9999REMSYN076AAXX  26031 33791 42997 50706 11083 21102 40295 53006 85030 555 21083 7004/;
0166337910999992000121921004+43030+033210FM-12+012599999V0203001N002010012019N0005001N1-00031-00081101671ADDAY181031AY271031GA1061+001209069GF108991071071001501021999MD1310031+9999MW1701REMSYN076AAXX  19211 33791 41205 83002 11003 21008 40167 53003 77087 8772/ 333 86704;
0159337910999992000122712004+43030+033210FM-12+012599999V0201901N007010060019N0100001N1+01061+00161100301ADDGA1081+006009069GF108991081061004501999999MA1999999098811MD1810041+9999REMSYN076AAXX  27121 33791 42497 81907 10106 20016 39881 40030 58004 886// 333 88720;
0187337910999992000123112004+43030+033210FM-12+012599999V0201401N004010045019N0100001N1+00841+00731100541ADDAY161061AY251061GA1051+004509069GF105991051061004501001001MA1999999099041MD1410001+9999MW1101REMSYN082AAXX  31121 33791 41497 51404 10084 20073 39904 40054 54000 71065 85600 333 85715;
0175338150999992000011800004+47020+028870FM-12+018099999V0202601N004010075019N0100001N1-00311-00591098861ADDAY181061AY221061GF106991061031008001001001MA1999999096641MD1710171+9999MW1021REMSYN086    AAXX  18001 33815 41597 62604 11031 21059 39664 49886 57017 70282 86300 555 1/105;
0140338150999992000021209004+47020+028870FM-12+0180UKII V0209999C000019999999N0040001N1+00351+00061102871ADDAY111031AY211031GF105991051001999999031001MD1410001+9999MW1101REMSYN066AAXX  12091 33815 41996 50000 10035 20006 40287 54000 71011 85030;
0143338150999992000022512004+47020+028870FM-12+0180UKII V0203001N003019999999N0200001N1+00241-00761102041ADDGF108991081001999999051999MA1999999099801MD1710151+9999REMSYN076AAXX  25121 33815 42998 83003 10024 21076 39980 40204 57015 8805/ 555 11002;
0143338150999992000022700004+47020+028870FM-12+0180UKII V0203001N003019999999N0200001N1+00181-00071102601ADDGF107991071001999999031001MA1999999100341MD1210081+9999REMSYN076AAXX  27001 33815 42998 73003 10018 21007 30034 40260 52008 87030 555 1/000;
0140338150999992000022715004+47020+028870FM-12+0180UKII V0203301N002010042019N0100001N1+00171+00031103001ADDAY181031AY221031GF107991061031004501021001MD1210161+9999MW1851REMSYN066AAXX  27151 33815 41497 73302 10017 20003 40300 52016 78582 86320;
0122338150999992000033121004+47020+028870FM-12+0180UKII V0203401N001012200019N0200001N1+00761+00481101051ADDGA1001+999999999GF100991001001999999001001MD1210031+9999REMSYN054AAXX  31211 33815 42998 03401 10076 20048 40105 52003;
0153338150999992000050600004+47020+028870FM-12+0180UKII V0202001N001012200019N0200001N1+00991+00151101871ADDGA1001+999999999GF100991001001999999001001MA1999999099691MD1810021+9999REMSYN070AAXX  06001 33815 42998 02001 10099 20015 39969 40187 58002 555 10007;
0143338150999992000060912004+47020+028870FM-12+0180UKII V0203501N003010075019N0200001N1+02301+00641102211ADDGF105991051011008001001001MA1999999100121MD1710111+9999REMSYN076AAXX  09121 33815 42598 53503 10230 20064 30012 40221 57011 85100 555 19053;
0165338150999992000070118004+47190+028860FM-12+0180UKII V0203201N001012200019N0200001N1+02401+00931101431ADDAA199000091GF102991021001999999031001KA1999M+02681MD1310051+9999REMSYN070AAXX  01181 33815 32998 23201 10240 20093 40143 53005 82030 333 10268;EQDQ01  00002PRCP99
0180338150999992000071918004+47010+028860FM-12+0180UKII V0203201N002010120019N0200001N1+01791+01231101161ADDAA112008991AY181061AY221061GF107991051031012501031001KA1999M+02371MD1810051+9999MW1021REMSYN082AAXX  19181 33815 11698 73202 10179 20123 40116 58005 60092 70282 85330 333 10237;
0112338150999992000072409004+47010+028860FM-12+0180UKII V0202701N002012200019N0200001N1+02421+01381101281ADDGF102991021011012501001001MD1210051+9999REMSYN060AAXX  24091 33815 42698 22702 10242 20138 40128 52005 82100;
0143338150999992000080100004+47010+028860FM-12+0180UKII V0203201N002010360019N0200001N1+01621+01311101611ADDGF106991021051008001031001MA1999999099501MD1410001+9999REMSYN076AAXX  01001 33815 42598 63202 10162 20131 39950 40161 54000 82530 555 10017;
0122338150999992000081815004+47010+028860FM-12+0180UKII V0202601N001012200019N0200001N1+03241+01291101481ADDGA1001+999999999GF100991001001999999001001MD1810081+9999REMSYN054AAXX  18151 33815 42998 02601 10324 20129 40148 58008;
0175338150999992000082018004+47010+028860FM-12+0180UKII V0202401N001012200019N0200001N1+03131+01351101551ADDAA199000091GA1001+999999999GF100991001001999999001001KA1999M+03631MD1310021+9999REMSYN064AAXX  20181 33815 32998 02401 10313 20135 40155 53002 333 10363;EQDQ01  00002PRCP99
0180338150999992000082406004+47010+028860FM-12+0180UKII V0203301N002010075019N0200001N1+01761+01451101791ADDAA112007991AY191061AY281061GF107991061031008001071001KA1999N+01681MD1210201+9999MW1021REMSYN082AAXX  24061 33815 11598 73302 10176 20145 40179 52020 60082 70298 86370 333 20168;
0112338150999992000082815004+47010+028860FM-12+0180UKII V0200401N003010360019N0200001N1+02311+00921101721ADDGF106991041011008001031011MD1410001+9999REMSYN060AAXX  28151 33815 42598 60403 10231 20092 40172 54000 84131;
0203338150999992000083106004+47010+028860FM-12+0180UKII V0200401N001012200019N0040001N1+01591+01091101441ADDAA199000091AY101061AY201061GA1001+999999999GF100991001001999999001001KA1999N+01131MD1310021+9999MW1101REMSYN070AAXX  31061 33815 31996 00401 10159 20109 40144 53002 71000 333 20113;EQDQ01  00002PRCP99
0135338150999992000091118004+47010+028860FM-12+0180UKII V0203301N002019999999N0200001N1+02061+01141101251ADDGF107991051001999999031041KA1999M+02431MD1710051+9999REMSYN070AAXX  11181 33815 42998 73302 10206 20114 40125 57005 85034 333 10243;
0156338150999992000091403004+47010+028860FM-12+0180UKII V0201601N001012200019N0100001N1+01441+01351101461ADDGA1001+999999999GF100991001001999999001001GJ106369MD1710111+9999REMSYN080AAXX  14031 33815 42997 01601 10144 20135 40146 57011 333 55106 555 20140 7000/;
0112338150999992000091509004+47010+028860FM-12+0180UKII V0203001N002010075019N0100001N1+01891+01481101251ADDGF108991051031008001031999MD1210061+9999REMSYN060AAXX  15091 33815 42597 83002 10189 20148 40125 52006 8533/;
0112338150999992000101509004+47010+028860FM-12+0180UKII V0201601N002019999999N0200001N1+01501+00851102401ADDGF105991001001999999001051MD1210011+9999REMSYN060AAXX  15091 33815 42998 51602 10150 20085 40240 52001 80005;
0202338150999992000110606004+47010+028860FM-12+0180UKII V0203501N001010012019N0020001N1+01131+01091101591ADDAA112000791AY121061AY221061GA1081+001209069GF108991081061001501999999KA1120N+01121MD1710021+9999MW1101REMSYN088AAXX  06061 33815 11295 83501 10113 20109 40159 57002 69902 71022 886// 333 20112 88704;
0112338150999992000111015004+47010+028860FM-12+0180UKII V0200801N001010021019N0001001N1+01121+00981102111ADDGF108991081051002501999999MD1310071+9999REMSYN060AAXX  10151 33815 42391 80801 10112 20098 40211 53007 885//;
0191338150999992000111712004+47010+028860FM-12+0180UKII V0209999C000010001519N0001001N1+00761+00761102261ADDAY151061AY241061GA1091+999999999GF109991091999999999999999MA1999999100061MD1810041+9999MW1501REMSYN086AAXX  17121 33815 41/91 90000 10076 20076 30006 40226 58004 75054 333 96045 555 11009;
0143338150999992000121712004+47010+028860FM-12+0180UKII V0202601N006012200019N0200001N1+00741-00251101111ADDGF102991021011012501001001MA1999999098931MD1210081+9999REMSYN076AAXX  17121 33815 42698 22606 10074 21025 39893 40111 52008 82100 555 11009;
0143338150999992000122512004+47010+028860FM-12+0180UKII V0202001N002012200019N0100001N1+00181-00571100771ADDGF107991041021008001001041MA1999999098561MD1710161+9999REMSYN076AAXX  25121 33815 42597 72002 10018 21057 39856 40077 57016 84204 555 14000;
0202338150999992000123106004+47010+028860FM-12+0180UKII V0202201N002010036019N0100001N1+00441+00291100121ADDAA112000791AY181061AY221061GA1081+003609099GF108991081031004501999999KA1120N+00441MD1310271+9999MW1021REMSYN088AAXX  31061 33815 11497 82202 10044 20029 40012 53027 69902 70282 883// 333 20044 88912;
0202338370999992000010107004+46430+030770FM-15+0035UKOO V0200601N01301000151CN0021001N1-00101-00101999999ADDGA1091+000159999GF109991999999000251999999MA1101491999999MW1381MW2861OC101801REMMET094UKOO 010700Z 06013G18MPS M2000 +SHSN BLSN VV002 M01/M01 Q1015 TEMPO 0300 +SHSN VV001 34490537;EQDQ01    003PRSWM1
0294338370999992000010400004+46430+030770SY-MT+0035UKOO V0203101N003012200019N0110001N1-00581-00651102261ADDGA1071+030009999GF199999021001999999031001MA1102101101721MD1710011+9999MW1101REMSYN066AAXX  04001 33837 42961 23103 11058 21065 30172 40226 57001 82030;MET082UKOO 040000Z 32003MPS 3000 BR BKN100 M07/M08 Q1021 TEMPO 1000 SHSN VV003 34894032;EQDQ01+000022SCOTCVQ02+000003PRSWM1Q03    003PRSWM1
0208338370999992000010719004+46430+030770FM-15+0035UKOO V0200401N003010018019N0014001N1+00101+00001999999ADDED199U15009GA1081+001809999GF108991999999999999999999MA1102811999999MW1101REMMET087UKOO 071900Z 04003MPS 1400 R34/P1500 BR OVC006 01/M00 Q1028 BECMG 1200 BKN004 34853045;EQDQ01+000003PRSWM1Q02    003PRSWM1
0199338370999992000011119004+46430+030770FM-15+0035UKOO V0200101N004010129019N0030001N1-00201-00401999999ADDGA1021+002709999GA2081+012909999GF108991999999999999999999MA1103491999999MW1101REMMET073UKOO 111900Z 01004MPS 3000 BR SCT009 OVC043 M02/M04 Q1035 NOSIG 34090060;EQDQ01+000003PRSWM1Q02    003PRSWM1
0261338370999992000011315004+46430+030770SY-MT+0035UKOO V0200301N002012200019N0200001N1-00181-00491103661ADDGA1021+060009999GF102991001001999999001011MA1103491999999MD1810091+9999MW1101REMSYN060AAXX  13151 33837 42998 20302 11018 21049 40366 58009 80001;MET071UKOO 131500Z 06002MPS 4000 BR SCT200 M03/M05 Q1035 BECMG 2000 34090060;EQDQ01+000003PRSWM1Q02    003PRSWM1
0247338370999992000011612004+46430+030770SY-MT+003599999V0200401N002010360019N0200001N1+00031-00561102481ADDGA1021+003909999GF108991031061004501031011MA1102401101951MD1810031+9999MW1001REMSYN070    AAXX  16121 33837 42498 80402 10003 21056 30195 40248 58003 83631;MET063UKOO 161200Z 30004MPS 6000 SCT013 M01/M04 Q1024 NOSIG 34090065;EQDQ01+000000PRSWM2
0169338370999992000011920004+46430+030770FM-15+0035UKOO V0203101N005012200019N0112651N1-00401-00701999999ADDGA1021+060009999GF104991999999999999999999MA1100411999999MW1001OC101001REMMET067UKOO 192000Z 31005G10MPS P6000 SCT200 M04/M07 Q1004 NOSIG 34090070;EQDQ01+000000PRSWM2
0207338370999992000012201004+46430+030770FM-15+0035UKOO V0203401N008012200019N0060001N1-00801-01001999999ADDGA1021+030009999GF104991999999999999999999MA1100101999999MW1361OC101301REMMET089UKOO 220100Z 34008G13MPS 6000 -DRSN SCT100 M08/M10 Q1001 TEMPO 0500 +BLSN VV002 34498034;EQDQ01+000003PRSWM1Q02    003PRSWM1
0230338370999992000012909004+46430+030770SY-MT+0035UKOO V0201601N003019999999N0200001N1+00151-00231999999ADDGF108991081001999999031999MA1101801999999MD1310051+9999MW1001REMSYN060AAXX  29091 33837 42998 81603 10015 21023 40289 53005 8803/;MET056UKOO 290900Z 18003MPS CAVOK 01/M04 Q1018 NOSIG 16191047;EQDQ01+102893APOSLPQ02+000000PRSWM2
0304338370999992000013006004+46430+030770SY-MT+0035UKOO V0202401N003019999999N0200001N1+00241-00361100951ADDAA199000091AJ100099199999999GF108991051001999999031011IA1279KA1120N-00331MA1100911999999MD1710151+9999MW1001OC101101REMSYN076AAXX  30061 33837 32998 82403 10024 21036 40095 57015 85031 333 21033 43009;MET059UKOO 300600Z 21006G11MPS CAVOK 02/M02 Q1009 NOSIG 16190055;EQDQ01+000000PRSWM2Q02  00002PRCP99
0302338370999992000020103004+46430+030770SY-MT+0035UKOO V0202701N003012200019N0500001N1+00521-00131101281ADDGA1021+030009999GF199999001001999999001001GJ105049MA1101021999999MD1310171+9999MW1001OC101201REMSYN080AAXX  01031 33837 /2999 02703 10052 21013 40128 53017 333 55084 555 20020 7999/;MET076UKOO 010300Z 30007G12MPS 6000 SCT100 03/01 Q1010 TEMPO 28015G20MPS 16290250;EQDQ01+000002SCOTCVQ02+000000PRSWM2
0186338370999992000021910004+46430+030770FM-15+0035UKOO V0203501N006010024019N0040001N1+00101+00001999999ADDGA1081+002409999GF108991999999999999999999MA1100411999999MW1101OC101101REMMET068UKOO 191000Z 35006G11MPS 4000 BR OVC008 01/M00 Q1004 NOSIG 34290245;EQDQ01+000003PRSWM1Q02    003PRSWM1
0108338370999992000022414004+46430+030770FM-15+0035UKOO V0209999999999220001CN0099001N1+00001-00601999999ADDMA1102811999999MW1001REMMET056UKOO 241400Z VRB02MPS CAVOK 00/M06 Q1028 NOSIG 34090070;EQDQ01+000000PRSWM2
0157338370999992000022719004+46430+030770FM-15+0035UKOO V0203601N004012200019N0030001N1+00101-00101999999ADDGA1021+012009999GF104991999999999999999999MA1103181999999MW1001REMMET063UKOO 271900Z 36004MPS P6000 SCT040 01/M01 Q1032 NOSIG 34190057;EQDQ01+000000PRSWM2
0157338370999992000030116004+46430+030770FM-15+0035UKOO V0201901N007012200019N0300001N1+00201-00301999999ADDGA1021+009009999GF104991999999999999999999MA1101901999999MW1001REMMET063UKOO 011600Z 19007MPS P6000 SCT030 02/M03 Q1019 NOSIG 16090070;EQDQ01+000000PRSWM2
0263338370999992000031215004+46430+030770SY-MT+0035UKOO V0200301N00601012001CN0200001N1+00441-00171101281ADDGA1071+012009999GF199999061031008001001001MA1101191999999MD1310381+9999MW1001OC101501REMSYN060AAXX  12151 33837 42598 60306 10044 21017 40128 53038 86300;MET065UKOO 121500Z 34010G15MPS 9999 BKN040 04/M01 Q1012 NOSIG 34190060;EQDQ01+000062SCOTCVQ02+000000PRSWM2
0273338370999992000031403004+46430+030770SY-MT+0035UKOO V0203101N002012200019N0500001N1-00091-00511103001ADDAA199000091GF100991001001999999001001GJ104869MA1103011999999MD1810031+9999MW1001REMSYN080AAXX  14031 33837 32999 03102 11009 21051 40300 58003 333 55081 555 21011 7000/;MET060UKOO 140300Z 24002MPS 6000 SKC M04/M06 Q1030 NOSIG 34090070;EQDQ01+000000PRSWM2Q02  00002PRCP99
0287338370999992000031615004+46430+030770SY-MT+0035UKOO V0203501N002010360019N0200001N1+00641-00631101191ADDGA1021+013809099GA2071+013809999GF199999031041008001031001MA1101021999999MD1710021+9999MW1001REMSYN060AAXX  16151 33837 42598 63502 10064 21063 40119 57002 83430;MET081UKOO 161500Z 32006MPS 9999 BKN046 FEW046CB 06/M06 Q1010 TEMPO 1200 SHRA 34090070;EQDQ01+000062SCOTCVQ02+000000PRSWM2
0158338370999992000031901004+46430+030770FM-15+0035UKOO V0203201N004010600019N9999999N1-00301-00801999999ADDGA1071+060009999GF107991999999999999999999MA1101291999999MW1001REMMET064UKOO 190100Z 32004MPS P6000 BKN200 M03/M08 Q1013 NOSIG 34090070;EQDQ01+000000PRSWM2
0119338370999992000032411004+46430+030770FM-15+0035UKOO V0202801N00501220001CN0099001N1+01501-00201999999ADDMA1101191999999MW1001OC101001REMMET059UKOO 241100Z 28005G10MPS CAVOK 15/M02 Q1012 NOSIG 34090070;EQDQ01+000000PRSWM2
0193338370999992000033117004+46430+030770FM-15+0035UKOO V0201801N00201000151CN0000501N1+00601+00601999999ADDED199U01509GA1091+000159999GF109991999999000251999999MA1101021999999MW1451REMMET072UKOO 311700Z 18002MPS 0050 R34/0150 FG VV001 06/06 Q1010 NOSIG 34296054;EQDQ01+000003PRSWM1Q02    003PRSWM1
0163338370999992000040107004+46430+030770FM-15+0035UKOO V0202201N005012200019N0060001N1+01001+00801999999ADDGA1021+060009999GF104991999999999999999999MA1101291999999MW1001REMMET069UKOO 010700Z 22005MPS 6000 SCT200 10/08 Q1013 TEMPO 1000 BR 16290055;EQDQ01+000000PRSWM2
0129338370999992000041317004+46430+030770FM-15+0035UKOO V0201601N002012200019N0099001N1+01001+00401999999ADDGF100991999999999999999999MA1100911999999MW1001REMMET051UKOO 131700Z 16002MPS P6000 SKC 10/04 Q1009 NOSIG ;EQDQ01+000000PRSWM2
0155338370999992000041717004+46430+030770FM-15+0035UKOO V02099999999990600019N0060001N1+01101+00901999999ADDGA1071+060009999GF107991999999999999999999MA1101191999999MW1001REMMET061UKOO 171700Z VRB02MPS 6000 BKN200 11/09 Q1012 TEMPO 1400 BR ;EQDQ01+000000PRSWM2
0216338370999992000041909004+46430+030770SY-MT+0035UKOO V0200401N007019999999N0200001N1+01671+01031100691ADDGF108991001001999999001041MA1100611999999MD1810081+9999MW1001OC101501REMSYN060AAXX  19091 33837 42998 80407 10167 20103 40069 58008 80004;MET050UKOO 190900Z 06010G15MPS CAVOK 21/10 Q1006 NOSIG ;EQDQ01+000000PRSWM2
0216338370999992000041915004+46430+030770SY-MT+0035UKOO V0200501N007019999999N0200001N1+01541+01191100521ADDGF108991081001999999021999MA1100411999999MD1710061+9999MW1001OC101201REMSYN060AAXX  19151 33837 42998 80507 10154 20119 40052 57006 8802/;MET050UKOO 191500Z 09007G12MPS CAVOK 20/09 Q1004 NOSIG ;EQDQ01+000000PRSWM2
0307338370999992000042006004+46430+030770SY-MT+0035UKOO V0200201N007010075019N0100001N1+01421+01041100381ADDAA112001091AY181061AY221061GF108991051031008001031999KA1999N+01351MD1310051+9999MW1801OC101401REMSYN082AAXX  20061 33837 11597 80207 10142 20104 40038 53005 69992 78082 8533/ 333 20135;MET078UKOO 200600Z 05009G14MPS 600O -SHRA SCT050 SCT050CB OVC100 15/11 Q1003 NOSIG ;EQDQ01+000000PRSWM2Q02    003PRSWM1
0166338370999992000042102004+46430+030770FM-15+0035UKOO V0200401N006010300019N0099001N1+01401+01201999999ADDGA1071+030009999GF107991999999999999999999MA1100411999999MW1001OC101101REMMET064UKOO 210200Z 04006G11MPS P6000 BKN100 14/12 Q1004 TEMPO 2000 BR;EQDQ01+000000PRSWM2
0148338370999992000042802134+46430+030770FM-16+0035UKOO V02099999999992200019N0040001N1+99999+99999999999ADDGA1021+030009999GF104991999999999999999999MA1101691999999MW1001REMMET054UKOO 280213Z 012004MP 6000 SCT100 145/12 Q1017 NOSIG ;EQDQ01+000000PRSWM2
0099338370999992000050610004+46430+030770FM-15+0035UKOO V0201801N00501220001CN0099001N1+02101+00401999999ADDMA1101691999999MW1001REMMET047UKOO 061000Z 18005MPS CAVOK 21/04 Q1017 NOSIG ;EQDQ01+000000PRSWM2
0148338370999992000050702004+46430+030770FM-15+0035UKOO V0203101N004012200019N0250001N1+01201+00401999999ADDGA1021+030009999GF104991999999999999999999MA1101491999999MW1001REMMET054UKOO 070200Z 31004MPS P6000 SCT100 12/04 Q1015 NOSIG ;EQDQ01+000000PRSWM2
0143338370999992000050800004+46430+030770FM-12+0035UKOO V0203301N003012200019N0500001N1+00931+00111102391ADDGA1001+999999999GF100991001001999999001001MA1999999101871MD1110081+9999REMSYN060AAXX  08001 33837 42999 03303 10093 20011 30187 40239 51008;
0099338370999992000050805004+46430+030770FM-15+0035UKOO V0200201N00501220001CN0099001N1+01101+00101999999ADDMA1102511999999MW1001REMMET047UKOO 080500Z 02005MPS CAVOK 11/01 Q1025 NOSIG ;EQDQ01+000000PRSWM2
0099338370999992000051110004+46430+030770FM-15+0035UKOO V0202401N00501220001CN0099001N1+02501+01401999999ADDMA1101191999999MW1001REMMET047UKOO 111000Z 24005MPS CAVOK 25/14 Q1012 NOSIG ;EQDQ01+000000PRSWM2
0255338370999992000051506004+46430+030770SY-MT+0035UKOO V0202601N002019999999N0200001N1+01781+00821101821ADDAA199000091GF105991001001999999001011KA1999N+01091MA1101801999999MD1310021+9999MW1001REMSYN070AAXX  15061 33837 32998 52602 10178 20082 40182 53002 80001 333 20109;MET047UKOO 150600Z 32004MPS CAVOK 16/08 Q1018 NOSIG ;EQDQ01+000000PRSWM2Q02  00002PRCP99
0099338370999992000052214004+46430+030770FM-15+0035UKOO V0202901N00801220001CN0099001N1+02201+00701999999ADDMA1101191999999MW1001REMMET047UKOO 221400Z 29008MPS CAVOK 22/07 Q1012 NOSIG ;EQDQ01+000000PRSWM2
0148338370999992000052822004+46430+030770FM-15+0035UKOO V0209999C000012200019N0099001N1+01801+01301999999ADDGA1021+030009999GF104991999999999999999999MA1101491999999MW1001REMMET054UKOO 282200Z 00000MPS P6000 SCT100 18/13 Q1015 NOSIG ;EQDQ01+000000PRSWM2
0216338370999992000060815004+46430+030770SY-MT+0035UKOO V0203401N003012200019N0200001N1+02461+01021101601ADDGF102991021011008001001001MA1101591999999MD1110011+9999MW1001OC101301REMSYN060AAXX  08151 33837 42598 23403 10246 20102 40160 51001 82100;MET050UKOO 081500Z 35008G13MPS CAVOK 24/06 Q1016 NOSIG ;EQDQ01+000000PRSWM2
0148338370999992000061201004+46430+030770FM-15+0035UKOO V0209999C000012200019N0099001N1+01201+00501999999ADDGA1021+060009999GF104991999999999999999999MA1102301999999MW1001REMMET054UKOO 120100Z 00000MPS P6000 SCT200 12/05 Q1023 NOSIG ;EQDQ01+000000PRSWM2
0099338370999992000061308304+46430+030770FM-15+0035UKOO V0202501N00401220001CN0099001N1+03001+01101999999ADDMA1102201999999MW1001REMMET047UKOO 130930Z 25004MPS CAVOK 30/11 Q1022 NOSIG ;EQDQ01+000000PRSWM2
0165338370999992000061918004+46420+030760FM-12+0035UKOO V0203201N002010075019N0200001N1+01681+00211101811ADDAA199000091GF105991051041008001001001KA1999M+02021MD1810011+9999REMSYN070AAXX  19181 33837 32598 53202 10168 20021 40181 58001 85400 333 10202;EQDQ01  00002PRCP99
0152338370999992000070423004+46420+030760FM-15+0035UKOO V0201401N004012200019N0021001N1+02201+02101999999ADDGF100991999999999999999999MA1100911999999MW1101REMMET058UKOO 042300Z 14004MPS 2100 BR SKC 22/21 Q1009 BECMG 1000 ;EQDQ01+000003PRSWM1Q02    003PRSWM1
0099338370999992000070813004+46420+030760FM-15+0035UKOO V0201501N00601220001CN0099001N1+02401+01601999999ADDMA1100811999999MW1001REMMET047UKOO 081300Z 15006MPS CAVOK 24/16 Q1008 NOSIG ;EQDQ01+000000PRSWM2
0194338370999992000070822304+46420+030760FM-15+0035UKOO V0201601N005010300019N0060001N1+02201+01901999999ADDGA1021+015009099GA2071+030009999GF107991999999999999999999MA1100411999999MW1001OC101001REMMET076UKOO 082330Z 16005G10MPS 6000 SCT056CB BKN100 22/19 Q1004 TEMPO 1000 -TSRA ;EQDQ01+000000PRSWM2
0227338370999992000070902014+46420+030760FM-15+0035UKOO V0201801N005010300019N0060001N1+02101+01901999999ADDGA1021+015009099GA2071+030009999GF107991999999999999999999MA1100411999999MW1811MW2951OC101001REMMET087UKOO 090201Z 18005G10MPS 6000 TSRA SCT056CB BKN100 21/19 Q1004 TEMPO 0400 +TSRA VV002 ;EQDQ01+000003PRSWM1Q02    003PRSWM1
0158338370999992000071011004+46420+030760FM-15+0035UKOO V0203101N008010120019N0112651N1+02001+01201999999ADDGA1071+012009999GF107991999999999999999999MA1100411999999MW1001OC101301REMMET056UKOO 101100Z 31008G13MPS 9999 BKN040 20/12 Q1004 NOSIG ;EQDQ01+000000PRSWM2
0183338370999992000073016004+46420+030760FM-15+0035UKOO V0202901N004010300019N0112651N1+02501+01001999999ADDGA1021+015009099GA2071+030009999GF107991999999999999999999MA1101081999999MW1001REMMET073UKOO 301600Z 29004MPS 9999 SCT050CB BKN100 25/10 Q1011 TEMPO 0500 +TSRA ;EQDQ01+000000PRSWM2
0158338370999992000080107004+46420+030760FM-15+0035UKOO V0203301N005010060019N0112651N1+01901+01501999999ADDGA1071+006009999GF107991999999999999999999MA1101391999999MW1001OC101001REMMET056UKOO 010700Z 33005G10MPS 9999 BKN020 19/15 Q1014 NOSIG ;EQDQ01+000000PRSWM2
0266338370999992000080603004+46420+030760SY-MT+0035UKOO V0200101N002012200019N0200001N1+02021+01591101731ADDAA199000091GF102991001001999999001011GJ108349MA1101591999999MD1810071+9999MW1001REMSYN086AAXX  06031 33837 32998 20102 10202 20159 40173 58007 80001 333 55139 555 20202 7000/;MET047UKOO 060300Z 03004MPS CAVOK 19/15 Q1016 NOSIG ;EQDQ01+000000PRSWM2Q02  00002PRCP99
0159338370999992000080823004+46420+030760FM-15+0035UKOO V0203101N006012200019N0144841N1+02101+01701999999ADDGA1021+012009999GF104991999999999999999999MA1101291999999MW1001OC101101REMMET057UKOO 082300Z 31006G11MPS P6000 SCT040 21/17 Q1013 NOSIG ;EQDQ01+000000PRSWM2
0331338370999992000081318004+46420+030760SY-MT+0035UKOO V0202201N00201030001CN0500001N1+02541+01331101621ADDAA112000791AY181061AY211061GA1071+030009999GF199999051031008001031001KA1999M+03071MA1101591999999MD1310031+9999MW1021REMSYN082AAXX  13181 33837 11599 62202 10254 20133 40162 53003 69902 70281 85330 333 10307;MET063UKOO 131800Z 24004MPS P6000 BKN100 25/14 Q1016 TEMPO 1000 TSRA;EQDQ01+000062SCOTCVQ02+000000PRSWM2Q03    003PRSWM1
0099338370999992000081614004+46420+030760FM-15+0035UKOO V0201501N00301220001CN0099001N1+02801+01201999999ADDMA1101591999999MW1001REMMET047UKOO 161400Z 15003MPS CAVOK 28/12 Q1016 NOSIG ;EQDQ01+000000PRSWM2
0133338370999992000081712004+46420+030760FM-12+0035UKOO V0201501N003012200019N0200001N1+02721+01621101581ADDGF103991031001999999031001MA1999999101091MD1810041+9999REMSYN066AAXX  17121 33837 42998 31503 10272 20162 30109 40158 58004 83030;
0199338370999992000082209004+46420+030760SY-MT+0035UKOO V0202201N002012200019N0200001N1+03121+01661101601ADDGF100991001001999999001001MA1101491999999MD1310021+9999MW1001REMSYN054AAXX  22091 33837 42998 02202 10312 20166 40160 53002;MET047UKOO 220900Z VRB02MPS CAVOK 36/12 Q1015 NOSIG ;EQDQ01+000000PRSWM2
0210338370999992000082309004+46420+030760SY-MT+0035UKOO V0200101N003012200019N0100001N1+03041+01761101681ADDGF100991001001999999001001MA1101591999999MD1210111+9999MW1001OC101201REMSYN054AAXX  23091 33837 42997 00103 10304 20176 40168 52011;MET050UKOO 230900Z 01007G12MPS CAVOK 30/16 Q1016 NOSIG ;EQDQ01+000000PRSWM2
0147338370999992000090423004+46420+030760FM-15+0035UKOO V0200601N002010300019N0060001N1+01701+01301999999ADDGA1071+030009999GF107991999999999999999999MA1101191999999MW1001REMMET053UKOO 042300Z 06002MPS 6000 BKN100 17/13 Q1012 NOSIG ;EQDQ01+000000PRSWM2
