0167722920999992000100910514+33400-118420FM-15+0488KAVX V0209999C000010015019N0112651N1+01401+01301101371ADDGD14991+0015099GF108991999999999999999999MA1101461999999MW1001REMMET074KAVX 091051Z AUTO 00000KT 7SM OVC005 14/13 A2996 RMK AO2 SLP137 T01390128;EQDQ01+000000PRSWM2
0273722920999992000101008514+33400-118420FM-15+0488KAVX V0202701N005710006019N0004021N1+01401+01401101201ADDAA101000021AA203000021GD13991+0006099GD24991+0015099GF108991999999999999999999MA1101321999999MD1510021+9999MW1441REMMET113KAVX 100851Z AUTO 27011KT 1/4SM FG BKN002 OVC005 14/14 A2992 RMK AO2 RAB21E49 SLP120 P0000 60000 T01390139 55002;EQDQ01+000003PRSWM1Q02    003PRSWM1
0150722920999992000101309514+33400-118420FM-15+0488KAVX V0203001N003112200019N0160931N1+01201+01101102021ADDGF100991999999999999999999MA1102101999999MW1001REMMET072KAVX 130951Z AUTO 30006KT 10SM CLR 12/11 A3015 RMK AO2 SLP202 T01170111;EQDQ01+000000PRSWM2
0210722920999992000101505514+33400-118420FM-15+0488KAVX V0203101N003112200019N0160931N1+01901+00201101411ADDGF100991999999999999999999KA1999M+02061KA2999N+01721MA1101631999999MD1110051+9999MW1001REMMET092KAVX 150551Z AUTO 31006KT 10SM CLR 19/02 A3001 RMK AO2 SLP141 T01890017 10206 20172 51005 $;EQDQ01+000000PRSWM2
0172722920999992000101608514+33400-118420FM-15+0488KAVX V0209999C000012200019N0160931N1+01701+00201101531ADDGF100991999999999999999999MA1101691999999MD1510011+9999MW1001REMMET080KAVX 160851Z AUTO 00000KT 10SM CLR 17/02 A3003 RMK AO2 SLP153 T01720022 55001 $;EQDQ01+000000PRSWM2
0210722920999992000101705514+33400-118420FM-15+0488KAVX V0200101N002112200019N0160931N1+02101+00101101551ADDGF100991999999999999999999KA1999M+02221KA2999N+01891MA1101801999999MD1110071+9999MW1001REMMET092KAVX 170551Z AUTO 01004KT 10SM CLR 21/01 A3006 RMK AO2 SLP155 T02110011 10222 20189 51007 $;EQDQ01+000000PRSWM2
0172722920999992000101714514+33400-118420FM-15+0488KAVX V0200601N002612200019N0160931N1+02201+00301101531ADDGF100991999999999999999999MA1101761999999MD1310051+9999MW1001REMMET080KAVX 171451Z AUTO 06005KT 10SM CLR 22/03 A3005 RMK AO2 SLP153 T02220028 53005 $;EQDQ01+000000PRSWM2
0153722920999992000102106514+33400-118420FM-15+0488KAVX V0202101N001512200019N0160931N1+01401-00401101101ADDGF100991999999999999999999MA1101251999999MW1001REMMET075KAVX 210651Z AUTO 21003KT 10SM CLR 14/M04 A2990 RMK AO2 SLP110 T01391039 $;EQDQ01+000000PRSWM2
0246722920999992000102202514+33400-118420FM-15+0488KAVX V0203201N004110003019N0012071N1+01201+01201100621ADDGD13991+0003099GD24991+0015099GF108991999999999999999999MA1100681999999MD1410001+9999MW1101REMMET092KAVX 220251Z AUTO 32008KT 3/4SM BR BKN001 OVC005 12/12 A2973 RMK AO2 SLP062 T01220122 58000;EQDQ01+000082APCTENQ02+000003PRSWM1Q03    003PRSWM1
0203722920999992000102207514+33400-118420FM-15+0488KAVX V0200201N002610270019N0128741N1+01301+01101100501ADDGD13991+0270099GF107991999999999999999999KA1999M+01781KA2999N+01221MA1100641999999MW1001REMMET084KAVX 220751Z AUTO 02005KT 8SM BKN090 13/11 A2972 RMK AO2 SLP050 T01330106 401780122;EQDQ01+000000PRSWM2
0150722920999992000102415514+33400-118420FM-15+0488KAVX V0209999C000012200019N0160931N1+01701+00501102141ADDGF100991999999999999999999MA1102271999999MW1001REMMET072KAVX 241551Z AUTO 00000KT 10SM CLR 17/05 A3020 RMK AO2 SLP214 T01670050;EQDQ01+000000PRSWM2
0215722920999992000102811314+33400-118420FM-15+0488KAVX V0202401N002610003019N0012071N1+01201+01201999999ADDGD13991+0003099GD23991+0018099GD34991+0120099GF108991999999999999999999MA1101591999999MW1101REMMET076KAVX 281131Z AUTO 24005KT 3/4SM BR BKN001 BKN006 OVC040 12/12 A3000 RMK AO2;EQDQ01+000003PRSWM1Q02    003PRSWM1
0168722920999992000102916514+33400-118420FM-15+0488KAVX V0201801N002110108019N0160931N1+01301+01101101961ADDGD14991+0108099GF108991999999999999999999MA1102001999999MW1001REMMET075KAVX 291651Z AUTO 18004KT 10SM OVC036 13/11 A3012 RMK AO2 SLP196 T01280106;EQDQ01+000000PRSWM2
0263722920999992000102922514+33400-118420FM-15+0488KAVX V0202001N005110078019N0096561N1+01301+01201101641ADDAA101000021GD12991+0027099GD23991+0078099GD34991+0096099GF108991999999999999999999MA1101661999999MW1101MW2611REMMET107KAVX 292251Z AUTO 20010KT 6SM -RA BR FEW009 BKN026 OVC032 13/12 A3002 RMK AO2 RAB40 SLP164 P0000 T01280117;EQDQ01+000003PRSWM1Q02    003PRSWM1
0151722920999992000110303514+33400-118420FM-15+0488KAVX V0203201N003112200019N0160931N1+01501-00201101311ADDGF100991999999999999999999MA1101421999999MW1001REMMET073KAVX 030351Z AUTO 32006KT 10SM CLR 15/M02 A2995 RMK AO2 SLP131 T01501022;EQDQ01+000000PRSWM2
0151722920999992000110415514+33400-118420FM-15+0488KAVX V0203101N003112200019N0160931N1+01101-00101101551ADDGF100991999999999999999999MA1101591999999MW1001REMMET073KAVX 041551Z AUTO 31006KT 10SM CLR 11/M01 A3000 RMK AO2 SLP155 T01111011;EQDQ01+000000PRSWM2
0151722920999992000110418514+33400-118420FM-15+0488KAVX V0200301N002612200019N0160931N1+01401-00101101591ADDGF100991999999999999999999MA1101661999999MW1001REMMET073KAVX 041851Z AUTO 03005KT 10SM CLR 14/M01 A3002 RMK AO2 SLP159 T01391011;EQDQ01+000000PRSWM2
0150722920999992000110603374+33400-118420FM-16+0488KAVX V0200901N002110021019N0144841N1+00801+99999999999ADDGD13991+0021099GF107991999999999999999999MA1101291999999MW1001REMMET057KAVX 060337Z AUTO 09004KT 9SM BKN007 08/ A2991 RMK AO2 $;EQDQ01+000000PRSWM2
0163722920999992000110610514+33400-118420FM-16+0488KAVX V0209999C000010021019N0144841N1+00801+99999101131ADDGD13991+0021099GF107991999999999999999999MA1101081999999MW1001REMMET070KAVX 061051Z AUTO 00000KT 9SM BKN007 08/ A2985 RMK AO2 SLP113 T0078 $;EQDQ01+000000PRSWM2
0172722920999992000111820514+33400-118420FM-15+0488KAVX V0202701N002612200019N0160931N1+01601+00501102421ADDGF100991999999999999999999MA1102511999999MD1810141+9999MW1001REMMET080KAVX 182051Z AUTO 27005KT 10SM CLR 16/05 A3027 RMK AO2 SLP242 T01560050 58014 $;EQDQ01+000000PRSWM2
0171722920999992000112114514+33400-118420FM-15+0488KAVX V0202101N002112200019N0160931N1+01901-00201101611ADDGF100991999999999999999999MA1101831999999MD1310061+9999MW1001REMMET079KAVX 211451Z AUTO 21004KT 10SM CLR 19/M02 A3007 RMK AO2 SLP161 T01941022 53006;EQDQ01+000000PRSWM2
0150722920999992000112300514+33400-118420FM-15+0488KAVX V0202701N006212200019N0160931N1+01101+00901101851ADDGF100991999999999999999999MA1101861999999MW1001REMMET072KAVX 230051Z AUTO 27012KT 10SM CLR 11/09 A3008 RMK AO2 SLP185 T01060094;EQDQ01+000000PRSWM2
0226722920999992000112911514+33400-118420FM-15+0488KAVX V0201801N002612200019N0160931N1+01101+00801101721ADDGF100991999999999999999999KA1999M+01611KA2999N+00891MA1101801999999MD1610011+9999MW1001REMMET092KAVX 291151Z AUTO 18005KT 10SM CLR 11/08 A3006 RMK AO2 SLP172 T01060083 10161 20089 56000 $;EQDQ01+000002APC3  Q02+000000PRSWM2
0170722920999992000120106514+33400-118420FM-15+0488KAVX V0201101N002612200019N0096561N1+01201+00801101821ADDGF100991999999999999999999MA1101861999999MW1051REMMET076KAVX 010651Z AUTO 11005KT 6SM HZ CLR 12/08 A3008 RMK AO2 SLP182 T01220083 $;EQDQ01+000003PRSWM1Q02    003PRSWM1
0173722920999992000120402514+33400-118420FM-15+0488KAVX V0201001N003112200019N0160931N1+01501-00101101841ADDGF100991999999999999999999MA1101961999999MD1310071+9999MW1001REMMET081KAVX 040251Z AUTO 10006KT 10SM CLR 15/M01 A3011 RMK AO2 SLP184 T01501011 53007 $;EQDQ01+000000PRSWM2
0167722920999992000120822514+33400-118420FM-15+0488KAVX V0202701N004110009019N0112651N1+01101+01101101701ADDGD14991+0009099GF108991999999999999999999MA1101731999999MW1001REMMET074KAVX 082251Z AUTO 27008KT 7SM OVC003 11/11 A3004 RMK AO2 SLP170 T01110106;EQDQ01+000000PRSWM2
0150722920999992000121400334+33400-118420FM-15+0488KAVX V0202601N002612200019N0144841N1+00901+00701999999ADDGD12991+0024099GF102991999999999999999999MA1102031999999MW1001REMMET057KAVX 140033Z AUTO 26005KT 9SM FEW008 09/07 A3013 RMK AO2;EQDQ01+000000PRSWM2
0211722920999992000122123514+33400-118420FM-15+0488KAVX V0203001N002112200019N0160931N1+01801-00201101661ADDGF100991999999999999999999KA1999M+01941KA2999N+01671MA1101761999999MD1110021+9999MW1001REMMET093KAVX 212351Z AUTO 30004KT 10SM CLR 18/M02 A3005 RMK AO2 SLP166 T01781022 10194 20167 51002 $;EQDQ01+000000PRSWM2
0150722920999992000122315514+33400-118420FM-15+0488KAVX V0203501N003112200019N0160931N1+01101+00301101771ADDGF100991999999999999999999MA1101801999999MW1001REMMET072KAVX 231551Z AUTO 35006KT 10SM CLR 11/03 A3006 RMK AO2 SLP177 T01110033;EQDQ01+000000PRSWM2
0153722920999992000122509514+33400-118420FM-15+0488KAVX V0200701N003612200019N0160931N1+01301-00301101431ADDGF100991999999999999999999MA1101521999999MW1001REMMET075KAVX 250951Z AUTO 07007KT 10SM CLR 13/M03 A2998 RMK AO2 SLP143 T01331028 $;EQDQ01+000000PRSWM2
0169722925999992000010403004+33020-118580FM-15+0055KNUC V0203601N003612200019N0112651N1+01201+00801102811ADDGF100991999999999999999999MA1102811999999MD1310121+9999MW1001REMMET077KNUC 040255Z 36007KT 7SM 9999 SKC 12/08 A3036 RMK SLP281 T01220078 53012 A N;EQDQ01+000000PRSWM2
0158722925999992000011017004+33020-118580FM-15+0055KNUC V0202801N002612200019N0112651N1+01401+01101102171ADDGD12991+0600099GF104991999999999999999999MA1102201999999MW1001REMMET065KNUC 101655Z 28005KT 7SM SCT200 14/11 A3018 RMK SLP217 T01440111;EQDQ01+000000PRSWM2
0181722925999992000012620004+33020-118580FM-15+0055KNUC V0203101N007212200019N0112651N1+01601+01001102041ADDGD12991+0240099GD22991+0600099GF102991999999999999999999MA1102071999999MW1001REMMET073KNUC 261955Z 31014KT 7SM FEW080 FEW200 16/10 A3014 RMKS SLP204 T01610100;EQDQ01+000000PRSWM2
0244722925999992000012900004+33020-118580FM-15+0055KNUC V0202701N003610600019N0112651N1+01401+00901101941ADDGD12991+0360099GD23991+0600099GF107991999999999999999999KA1999M+01501KA2999N+01391MA1101961999999MD1510081+9999MW1001REMMET096KNUC 282355Z 27007KT 7SM SCT120 BKN200 14/09 A3011 RMK SLP194 8/051 T01440089 10150 20139 55008;EQDQ01+000000PRSWM2
0183722925999992000020100004+33020-118580FM-15+0055KNUC V0203201N006210600019N0112651N1+01601+01101102261ADDGD13991+0600099GF107991999999999999999999MA1102301999999MW1001REMMET090KNUC 312355Z 32012KT 7SM BKN200 16/11 A3021 RMKS SLP226 /8002 T01560106 10161 20150 56009;EQDQ01+000000PRSWM2
0199722925999992000022520004+33020-118580FM-15+0055KNUC V0201001N004610030019N0080461N1+01401+00901102371ADDGD13991+0030099GD24991+0045099GF108991999999999999999999MA1102401999999MW1101REMMET075KNUC 251955Z 10009KT 5SM BR BKN010 OVC015 14/09 A3024 RMK SLP237 T01390094;EQDQ01+000003PRSWM1Q02    003PRSWM1
0140722925999992000031320004+33020-118580FM-15+0055KNUC V02099999999992200019N0112651N1+01701+01001101701ADDGF100991999999999999999999MA1101731999999MW1001REMMET062KNUC 131955Z VRB03KT 7SM SKC 17/10 A3004 RMK SLP170 T01670100;EQDQ01+000000PRSWM2
0126722925999992000031617224+33020-118580FM-16+0055KNUC V02099999999992200019N0096561N1+01601+01001101701ADDMA1101731999999MW1101REMMET058KNUC 161722Z VRB05KT 6SM BR BNK025 16/10 A3004 RMK SLP170;EQDQ01+000003PRSWM1Q02    003PRSWM1
0154722925999992000032814304+33020-118580FM-15+0055KNUC V0203101N003612200019N0112651N1+01301+00801101271ADDGD12991+0060099GF104991999999999999999999MA1101291999999MW1001REMMET061KNUC 281430Z 31007KT 7SM SCT020 13/08 A2991 RMK SLP127 FIRST;EQDQ01+000000PRSWM2
0140722925999992000033123004+33020-118580FM-15+0055KNUC V0201901N005112200019N0112651N1+01801+01301101451ADDGF100991999999999999999999MA1101491999999MW1001REMMET062KNUC 312255Z 19010KT 7SM SKC 18/13 A2997 RMK SLP145 T01830128;EQDQ01+000000PRSWM2
0172722925999992000040815354+33020-118580FM-16+0055KNUC V0202901N003112200019N0112651N1+01401+01301101891ADDGD12991+0150099GD22991+0600099GF102991999999999999999999MA1101931999999MW1001REMMET064KNUC 081535Z 29006KT 7SM FEW050 FEW200 14/13 A3010 SLP189 FIRST;EQDQ01+000000PRSWM2
0177722925999992000042116004+33020-118580FM-15+0055KNUC V0202401N006210036019N0080461N1+01401+01101101431ADDGD14991+0036099GF108991999999999999999999MA1101461999999MW1101REMMET068KNUC 211555Z 24012KT 5SM BR OVC012 14/11 A2996 RMK SLP143 TO1390111;EQDQ01+000003PRSWM1Q02    003PRSWM1
0180722925999992000042123004+33020-118580FM-15+0055KNUC V0202601N003610036019N0112651N1+01601+01101101491ADDGD13991+0036099GD23991+0600099GF107991999999999999999999MA1101521999999MW1001REMMET072KNUC 212255Z 26007KT 7SM BKN012 BKN200 16/11 A2998 RMK SLP149 T01610106;EQDQ01+000000PRSWM2
0159722925999992000042421004+33020-118580FM-15+0055KNUC V0202401N002612200019N0112651N1+01801+01101101511ADDGF100991999999999999999999MA1101521999999MD1810101+9999MW1001REMMET067KNUC 242055Z 24005KT 7SM SKC 18/11 A2998 RMK SLP151 T0180111 58010;EQDQ01+000000PRSWM2
0140722925999992000042619004+33020-118580FM-15+0055KNUC V0203201N002612200019N0112651N1+02001+01401101511ADDGF100991999999999999999999MA1101561999999MW1001REMMET062KNUC 261855Z 32005KT 7SM SKC 20/14 A2999 RMK SLP151 T02000144;EQDQ01+000000PRSWM2
0140722925999992000050402004+33020-118580FM-15+0055KNUC V0202101N002112200019N0112651N1+01501+01201101181ADDGF100991999999999999999999MA1101221999999MW1001REMMET062KNUC 040155Z 21004KT 7SM SKC 15/12 A2989 RMK SLP118 T01500122;EQDQ01+000000PRSWM2
0138722925999992000051020004+33020-118580FM-15+0055KNUC V0202601N008212200019N0112651N1+01701+99999101501ADDGD12991+0045099GF102991999999999999999999MW1001REMMET060KNUC 101955Z 26016KT 7SM FEW015 17/M A2998 RMK SLP150 T0172;EQDQ01+000000PRSWM2
0140722925999992000051905004+33020-118580FM-15+0055KNUC V0209999C000012200019N0112651N1+01301+01101101721ADDGF100991999999999999999999MA1101761999999MW1001REMMET062KNUC 190455Z 00000KT 7SM SKC 13/11 A3005 RMK SLP172 T01330111;EQDQ01+000000PRSWM2
0177722925999992000060216004+33020-118580FM-15+0055KNUC V0209999C000010030019N0096561N1+01701+01301101831ADDGD14991+0030099GF108991999999999999999999MA1101861999999MW1101REMMET068KNUC 021555Z 00000KT 6SM BR OVC010 17/13 A3008 RMK SLP183 T01660133;EQDQ01+000003PRSWM1Q02    003PRSWM1
0140722925999992000061319004+33190-118570FM-15+0055KNUC V0201601N006212200019N0112651N1+02101+01701101281ADDGF100991999999999999999999MA1101321999999MW1001REMMET062KNUC 131855Z 16012KT 7SM SKC 21/17 A2992 RMK SLP128 T02110168;EQDQ01+000000PRSWM2
0158722925999992000062020004+33190-118570FM-15+0055KNUC V0202301N002612200019N0112651N1+02601+01801101481ADDGD12991+0045099GF104991999999999999999999MA1101421999999MW1001REMMET065KNUC 201955Z 23005KT 7SM SCT015 26/18 A2995 RMK SLP148 T02560182;EQDQ01+000000PRSWM2
0184722925999992000062121004+33190-118570FM-15+0055KNUC V02099999999990051019N0112651N1+02701+01901101301ADDGD13991+0051099GF107991999999999999999999MA1101291999999MD1810051+9999MW1001REMMET077KNUC 212055Z VRB06KT 7SM BKN017 27/19 A2991 RMK SLP130 8/500 T02670194 58005;EQDQ01+000000PRSWM2
0140722925999992000071301004+33190-118570FM-15+0055KNUC V0202601N005712200019N0112651N1+01801+01501101821ADDGF100991999999999999999999MA1101801999999MW1001REMMET062KNUC 130055Z 26011KT 7SM SKC 18/15 A3006 RMK SLP182 T01780153;EQDQ01+000000PRSWM2
0158722925999992000072020004+33010-118570FM-15+0055KNUC V0202801N009012200019N0112651N1+02301+01601101351ADDGD12991+0024099GF104991999999999999999999MA1101351999999MW1001REMMET065KNUC 201955Z 28009KT 7SM SCT008 23/16 A2993 RMK SLP135 T02280164;EQDQ01+000000PRSWM2
0177722925999992000081514004+33010-118570FM-15+0055KNUC V0201801N002110018019N0032181N1+01901+01801101521ADDGD13991+0018099GF107991999999999999999999MA1101521999999MW1101REMMET068KNUC 151355Z 18004KT 2SM BR BKN006 19/18 A2998 RMK SLP152 T01890184;EQDQ01+000003PRSWM1Q02    003PRSWM1
0238722925999992000091818004+33010-118570FM-15+0055KNUC V0202401N003610018019N0112651N1+02301+01701101401ADDGD13991+0018099GF107991999999999999999999KA1999M+99999KA2999N+01721MA1101391999999MD1110101+9999MW1001REMMET089KNUC 181755Z 24007KT 7SM BKN006 23/17 A2994 RMK SLP140 8/600 T02340166 10200 20172 51010;EQDQ01+000000PRSWM2Q02 +02002ATMX  
0184722925999992000092603004+33010-118570FM-15+0055KNUC V0202701N003612200019N0112651N1+01801+01701101401ADDGD12991+0030099GF102991999999999999999999MA1101391999999MD1510001+9999MW1001REMMET077KNUC 260255Z 27007KT 7SM FEW010 18/17 A2994 RMK SLP140 8/100 T01890174 55000;EQDQ01+000000PRSWM2
0158722925999992000101119004+33010-118570FM-15+0055KNUC V0203001N006212200019N0112651N1+01801+01501101661ADDGD12991+0102099GF104991999999999999999999MA1101661999999MW1001REMMET065KNUC 111855Z 30012KT 7SM SCT034 18/15 A3002 RMK SLP166 T01760150;EQDQ01+000000PRSWM2
0180722925999992000101417004+33010-118570FM-15+0055KNUC V0201801N004612200019N0112651N1+02001+01601101731ADDGD12991+0015099GD22991+0600099GF102991999999999999999999MA1101731999999MW1001REMMET072KNUC 141655Z 18009KT 7SM FEW005 FEW200 20/16 A3004 RMK SLP173 T01950160;EQDQ01+000000PRSWM2
0158722925999992000102516004+33010-118570FM-15+0055KNUC V0203301N001512200019N0112651N1+01601+01401101921ADDGD12991+0600099GF104991999999999999999999MA1101931999999MW1001REMMET065KNUC 251555Z 33003KT 7SM SCT200 16/14 A3010 RMK SLP192 T01560137;EQDQ01+000000PRSWM2
0222722925999992000111618004+33010-118570FM-15+0055KNUC V0202901N004112200019N0112651N1+01501+01301101981ADDGD12991+0045099GF104991999999999999999999KA1999M+01501KA2999N+01191MA1102001999999MD1310071+9999MW1001REMMET089KNUC 161755Z 29008KT 7SM SCT015 15/13 A3012 RMK SLP198 8/100 T01500132 10150 20119 53007;EQDQ01+000000PRSWM2
0177722925999992000112116004+33010-118570FM-15+0055KNUC V0202001N003112200019N0096561N1+01501+01401101861ADDGD12991+0360099GF104991999999999999999999MA1101861999999MW1101REMMET068KNUC 211555Z 20006KT 6SM BR SCT120 15/14 A3008 RMK SLP186 T01500139;EQDQ01+000003PRSWM1Q02    003PRSWM1
0180722925999992000113023004+33010-118570FM-15+0055KNUC V0202301N002112200019N0112651N1+01701+01301101831ADDGD12991+0036099GD22991+0600099GF104991999999999999999999MA1101831999999MW1001REMMET072KNUC 302255Z 23004KT 7SM SCT012 SCT200 17/13 A3007 RMK SLP183 T01720134;EQDQ01+000000PRSWM2
0206722925999992000122121004+33010-118570FM-15+0055KNUC V0202401N003110030019N0112651N1+01701+01401101831ADDGD13991+0030099GD23991+0300099GF107991999999999999999999MA1101831999999MD1810191+9999MW1001REMMET084KNUC 212055Z 24006KT 7SM BKN010 BKN100 17/14 A3007 RMK SLP183 8/530 T01720136 58019;EQDQ01+000000PRSWM2
0161722925999992000122200004+33010-118570SAO  +0055KNUC V0209999C000012200019N0000001N1+99999+99999999999ADDAA199000091MD1310041+9999MW1001REMAWY099KNUC SA 212355Z 28007KT 7SM BKN012 BKN100 14/13 A3006 RMK SLP179 8/130 T01390132 10175 20070 53004;EQDQ01  00002PRCP99
0455722926031542000010501003+33300-117350FM-15+0023NFG  V0209999999999220005MN0112005N1+01705-00105102045ADDGD12995+0365859GD22995+0457259GD32995+0609659GF104991999999999999999999GP10060003202008025102015001502008GQ100600855923919GR100600099912629MA1102075999999MW1001REMMET080KNFG 050055Z VRB03KT 7SM FEW120 FEW150 SCT200 17/M01 A3014 RMK SLP204 T01721011;EQDQ01+000000PRSWM2N01 00000JPWTH 0QNNAA1D0 02120BA1 0 02120AA1D0 02150BA1 0 02150AA1D0 02200BA1 0 02200GA1U0 99999KA1D0 00030JA1 0-00010LA1 0 00700CA1 0 03014NA1 0 00000QA1 0 10204SA1D0 00063RA1 0 00170
0403722926031542000010921003+33300-117350FM-15+0023NFG  V0202105N00365060965MN0112005N1+01805+00205101995ADDGD13995+0609659GF107991999999999999999999GP10060056702008080102015011902008GQ100600561918939GR100600789914159MA1102005999999MD1810321+9999MW1001REMMET077KNFG 092055Z 21007KT 7SM BKN200 18/02 A3012 RMK SLP199 8/001 T01830017 58032;EQDQ01+000000PRSWM2N01 00000JPWTH 0QNNAA1D0 04200BA1 0 04200GA1 0 00200KA1D0 00036JA1 0 00020LA1 0 00700CA1 0 03012NA1 0 00000QA1 0 10199SA1D0 00064RA1 0 00180YA1 0 21007
0404722926031542000011005003+33300-117350FM-15+0023NFG  V0203605N00215220005MN0112005N1+00605+00305102105ADDGD12995+0243859GD22995+0609659GF104991999999999999999999GP10060000002000000002000000002000GR100600000900009MA1102105999999MW1001REMMET072KNFG 100455Z 36004KT 7SM SCT080 SCT200 06/03 A3015 RMK SLP210 T00610033;EQDQ01+000000PRSWM2N01 00000JPWTH 0QNNAA1D0 02080BA1 0 02080AA1D0 02200BA1 0 02200GA1U0 99999KA1D0 00037JA1 0 00030LA1 0 00700CA1 0 03015NA1 0 00000QA1 0 10210SA1D0 00043RA1 0 00060YA1 0 36004
0458722926031542000011620003+33300-117350FM-15+0023NFG  V0200505N00415018295MN0112005N1+01305+01105102335ADDAA101000021GD13995+0182959GD24995+0609659GF108991999999999999999999GP10060008902008000002015008902008GQ100600548917179GR100600814914149MA1102345999999MW1615REMMET082KNFG 161955Z 05008KT 7SM -RA BKN060 OVC200 13/11 A3022 RMK SLP233 P0000 T01330111;EQDQ01+000003PRSWM1Q02    003PRSWM1N01 00020JPWTH 0QNNAA1D0 04060BA1 0 04060AA1D0 06200BA1 0 06200GA1 0 00060KA1D0 00052JA1 0 00110LA1 0 00700CA1 0 03022NA1 0 00020QA1 0 10233SA1D0 00055RA1 0 00130YA1 0 05008
0054722926031542000011707009+33300-117350NSRDB+002399999V020999999999999999999999999999+99999+99999999999ADDGP10060000002000000002000000002000GR100600000900009
0529722926031542000011918003+33300-117350FM-15+0023NFG  V0209999C00005060965MN0112005N1+01805+01105102125ADDGD12995+0182959GD22995+0304859GD33995+0609659GF107991999999999999999999GP10060032102008028802015019702008GQ100600646914099GR100600607914139KA1999M+01831KA2999N+00891MA1102135999999MD1110151+9999MW1001REMMET103KNFG 191755Z 00000KT 7SM FEW060 SCT100 BKN200 18/11 A3016 RMK SLP212 8/531 T01830106 10183 20089 51015;EQDQ01+000000PRSWM2N01 00000JPWTH 0QNNAA1D0 02060BA1 0 02060AA1D0 02100BA1 0 02100AA1D0 04200BA1 0 04200GA1 0 00200KA1D0 00052JA1 0 00110LA1 0 00700CA1 0 03016NA1 0 00000QA1 0 10212SA1D0 00064RA1 0 00180YA1 0 00000
0404722926031542000012205003+33300-117350FM-15+0023NFG  V0200305N00155060965MN0112005N1+01105+00805101885ADDGD12995+0121959GD23995+0609659GF107991999999999999999999GP10060000002000000002000000002000GR100600000900009MA1101905999999MW1001REMMET072KNFG 220455Z 03003KT 7SM SCT040 BKN200 11/08 A3009 RMK SLP188 T01060083;EQDQ01+000000PRSWM2N01 00000JPWTH 0QNNAA1D0 02040BA1 0 02040AA1D0 04200BA1 0 04200GA1 0 00200KA1D0 00046JA1 0 00080LA1 0 00700CA1 0 03009NA1 0 00000QA1 0 10188SA1D0 00052RA1 0 00110YA1 0 03003
0377722926031542000012617003+33300-117350FM-15+0023NFG  V0200605N00265220005MN0112005N1+01305+01105101905ADDGD12995+0061059GF102991999999999999999999GP10060026502008052002015010902008GQ100600725912779GR100600423914119MA1101935999999MW1001REMMET065KNFG 261655Z 06005KT 7SM FEW020 13/11 A3010 RMK SLP190 T01330111;EQDQ01+000000PRSWM2N01 00000JPWTH 0QNNAA1D0 02020BA1 0 02020GA1U0 99999KA1D0 00052JA1 0 00110LA1 0 00700CA1 0 03010NA1 0 00000QA1 0 10190SA1D0 00055RA1 0 00130YA1 0 06005
0484722926031542000020508003+33300-117350FM-15+0023NFG  V0209999C00005060965MN0112005N1+01205+01105102005ADDGD12995+0182959GD22995+0365859GD33995+0609659GF107991999999999999999999GP10060000002000000002000000002000GR100600000900009KA1999M+01891KA2999N+00281MA1102005999999MW1001REMMET089KNFG 050755Z 00000KT 7SM SCT060 SCT120 BKN200 12/11 A3012 RMK SLP200 T01170111 401890028;EQDQ01+000000PRSWM2N01 00000JPWTH 0QNNAA1D0 02060BA1 0 02060AA1D0 02120BA1 0 02120AA1D0 04200BA1 0 04200GA1 0 00200KA1D0 00052JA1 0 00110LA1 0 00700CA1 0 03012NA1 0 00000QA1 0 10200SA1D0 00054RA1 0 00120YA1 0 00000
0491722926031542000021215003+33300-117350FM-15+0023NFG  V0202505N00265018295MN0112005N1+01305+01105101705ADDGD12995+0021359GD22995+0045759GD33995+0182959GF107991999999999999999999GP10060000002008000002015000002008GQ100600881910779GR100600018905269MA1101735999999MD1310151+9999MW1001REMMET091KNFG 121455Z 25005KT 7SM FEW007 SCT015 BKN060 13/11 A3004 RMK SLP170 8/570 T01280111 53015;EQDQ01+000000PRSWM2N01 00000JPWTH 0QNNAA1D0 02007BA1 0 02007AA1D0 02015BA1 0 02015AA1D0 04060BA1 0 04060GA1 0 00060KA1D0 00052JA1 0 00110LA1 0 00700CA1 0 03004NA1 0 00000QA1 0 10170SA1D0 00055RA1 0 00130YA1 0 25005
0466722926031542000021501003+33300-117350FM-15+0023NFG  V0202105N00365060965MN0112005N1+01705+01405102025ADDGD12995+0018359GD22995+0094559GD33995+0609659GF107991999999999999999999GP10060019602008028902015013702008GQ100600784924589GR100600281914039MA1102035999999MW1001REMMET080KNFG 150055Z 21007KT 10SM FEW006 SCT030 BKN200 17/14 A3013 RMK SLP202 T01670144;EQDQ01+000000PRSWM2N01 00000JPWTH 0QNNAA1D0 02006BA1 0 02006AA1D0 02031BA1 0 02031AA1D0 04200BA1 0 04200GA1 0 00200KA1D0 00057JA1 0 00140LA1 0 00700CA1 0 03013NA1 0 00000QA1 0 10202SA1D0 00063RA1 0 00170YA1 0 21007
0422722926031542000021508003+33300-117350FM-15+0023NFG  V0200405N00155002445MN0032005N1+01305+01305102135ADDGD14995+0024459GF108991999999999999999999GP10060000002000000002000000002000GR100600000900009KA1999M+01721KA2999N+01221MA1102135999999MW1101MW2455REMMET079KNFG 150755Z 04003KT 2SM BR OVC008 13/13 A3016 RMK SLP213 T013330133 401720122;EQDQ01+000003PRSWM1Q02    003PRSWM1N01 00070JPWTH 0QNNAA1D0 06008BA1 0 06008GA1 0 00008KA1D0 00055JA1 0 00130LA1 0 00200CA1 0 03016NA1 0 00070QA1 0 10213SA1D0 00055RA1 0 00130YA1 0 04003
0242722926031542000022103294+33300-117350FM-16+0056KNFG V0201701N007710120019N0096561N1+01601+01401101251ADDGD12991+0060019GD23991+0120019GD34991+0210019GF108991999999999999999999MA1101251999999MW1611OC101181REMMET079KNFG 210329Z 17015G23KT 6SM -RA BR SCT020 BKN040 OVC070 16/14 A2990 RMK SLP125;EQDQ01+000100PRSWM3Q02+000003PRSWM1Q03    003PRSWM1
0483722926031542000022610003+33300-117350FM-15+0023NFG  V0209999C000052200019N0112005N1+00705+00705102465ADDGF100991999999999999999999GP10060000002000000002000000002000GR100600000900009MA1102475999999MW1001REMMET063KNFG 260955Z 00000KT 10SM SKC 07/07 A3026 RMK SLP246 T00670067;EQDQ01+000000PRSWM2N01 00000JALM1 3N02 09000JALC2D3N03 09000JALM2 3N04 09000JALC3D3N05 09000JALM3 3N06 99999CCLHTU3N07 00000JPWTH 0QNNAA1D0 00000BA1 3 00000AA1D3 09000BA1 3 09000AA1D3 09000BA1 3 09000GA1U3 99999KA1D0 00045JA1 0 00070LA1 0 00700CA1 0 03026NA1 0 00000QA1 0 10246SA1D0 00045RA1 0 00070YA1 0 00000
0427722926031542000030612003+33300-117350FM-15+0023NFG  V0209999C00005012195MN0112005N1+00605+00505100975ADDGD14995+0121959GF108991999999999999999999GP10060000002000000002000000002000GR100600000900009KA1999M+00611KA2999N+00441MA1100955999999MD1310041+9999MW1001REMMET092KNFG 061155Z 00000KT 7SM OVC040 06/05 A2981 RMK SLP097 T1 8/4// T00610005 10061 20044 53004;EQDQ01+000000PRSWM2N01 00000JPWTH 0QNNAA1D0 06040BA1 0 06040GA1 0 00040KA1D0 00041JA1 0 00050LA1 0 00700CA1 0 02981NA1 0 00000QA1 0 10097SA1D0 00043RA1 0 00060YA1 0 00000
0591722926031542000030818003+33300-117350FM-15+0023NFG  V0202205N00365004575MN0096005N1+01005+00905102085ADDAA101000021AA206000591GD12995+0015259GD23995+0045759GD34995+0121959GF108991999999999999999999GP10060009602008000002015009602008GQ100600520912979GR100600854913879KA1999M+01061KA2999N+01001MA1102105999999MD1010021+9999MW1805REMMET127KNFG 081755Z 22007KT 6SM -SHRA FEW005 BKN015 OVC040 10/09 A3015 RMK RAB47 SLP208 P0000 60002 8/4// T01000094 10106 20100 50002;EQDQ01+000003PRSWM1Q02    003PRSWM1N01 00023JPWTH 0QNNAA1D0 02005BA1 0 02005AA1D0 04015BA1 0 04015AA1D0 06040BA1 0 06040GA1 0 00015KA1D0 00048JA1 0 00090LA1 0 00600CA1 0 03015NA1 0 00023QA1 0 10208SA1D0 00050RA1 0 00100YA1 0 22007
0404722926031542000030904003+33300-117350FM-15+0023NFG  V0200505N00155220005MN0112005N1+01205+01005102215ADDGD12995+0121959GD22995+0548659GF104991999999999999999999GP10060000002000000002000000002000GR100600000900009MA1102245999999MW1001REMMET072KNFG 090355Z 05003KT 7SM FEW040 SCT180 12/10 A3019 RMK SLP221 T01170100;EQDQ01+000000PRSWM2N01 00000JPWTH 0QNNAA1D0 02040BA1 0 02040AA1D0 02180BA1 0 02180GA1U0 99999KA1D0 00050JA1 0 00100LA1 0 00700CA1 0 03019NA1 0 00000QA1 0 10221SA1D0 00054RA1 0 00120YA1 0 05003
0376722926031542000031116003+33300-117350FM-15+0023NFG  V0209999C00005220005MN0112005N1+00605+00605102215ADDGD12995+0609659GF102991999999999999999999GP10060023602008059302015006402008GQ100600732910599GR100600400913859MA1102245999999MW1001REMMET064KNFG 111555 00000KT 7SM FEW200 06/06 A3019 RMK SLP221 T00610061;EQDQ01+000000PRSWM2N01 00000JPWTH 0QNNAA1D0 02200BA1 0 02200GA1U0 99999KA1D0 00043JA1 0 00060LA1 0 00700CA1 0 03019NA1 0 00000QA1 0 10221SA1D0 00043RA1 0 00060YA1 0 00000
0385722926031542000031513003+33300-117350FM-15+0023NFG  V0209999C00005000615MN0032005N1+01105+01105101245ADDGD14995+0006159GF108991999999999999999999GP10060000002000000002000000002000GR100600000900009MA1101255999999MW1101MW2455REMMET068KNFG 151255Z 00000KT 2SM BR OVC002 11/11 A2990 RMK SLP124 T01110111;EQDQ01+000003PRSWM1Q02    003PRSWM1N01 00070JPWTH 0QNNAA1D0 06002BA1 0 06002GA1 0 00002KA1D0 00052JA1 0 00110LA1 0 00200CA1 0 02990NA1 0 00070QA1 0 10124SA1D0 00052RA1 0 00110YA1 0 00000
0499722926031542000031719003+33300-117350FM-15+0023NFG  V0202005N002152200019N0112005N1+01905+01305101835ADDGF100991999999999999999999GP10060079102008082602015015802008GQ100600402914489GR100601054913809MA1101865999999MW1001REMMET062KNFG 171855Z 20004KT 7SM SKC 19/13 A3008 RMK SLP183 T01940133;EQDQ01+000000PRSWM2N01 00000JALM1 3N02 09000JALC2D3N03 09000JALM2 3N04 09000JALC3D3N05 09000JALM3 3N06 99999CCLHTU3N07 00000JPWTH 0QNNAA1D0 00000BA1 3 00000AA1D3 09000BA1 3 09000AA1D3 09000BA1 3 09000GA1U3 99999KA1D0 00055JA1 0 00130LA1 0 00700CA1 0 03008NA1 0 00000QA1 0 10183SA1D0 00066RA1 0 00190YA1 0 20004
0557722926031542000031918003+33300-117350FM-15+0023NFG  V0201705N002152200019N0112005N1+02105+00905101595ADDGF100991999999999999999999GP10060061002008055902015023702008GQ100600482912679GR100600918913799KA1999M+02061KA2999N+00671MA1101595999999MD1810101+9999MW1001REMMET080KNFG 191755Z 17004KT 7SM SKC 21/09 A3000 RMK SLP159 T02060094 10206 20067 58010;EQDQ01+000000PRSWM2N01 00000JALM1 3N02 09000JALC2D3N03 09000JALM2 3N04 09000JALC3D3N05 09000JALM3 3N06 99999CCLHTU3N07 00000JPWTH 0QNNAA1D0 00000BA1 3 00000AA1D3 09000BA1 3 09000AA1D3 09000BA1 3 09000GA1U3 99999KA1D0 00048JA1 0 00090LA1 0 00700CA1 0 03000NA1 0 00000QA1 0 10159SA1D0 00070RA1 0 00210YA1 0 17004
0426722926031542000032100003+33300-117350FM-15+0023NFG  V0200105N00675220005MN0000005N1+02005-00705100665ADDGD12995+0609659GF104991999999999999999999GP10060049402008069202015014602008GQ100600599924799GR100600690913789KA1999M+02171KA2999N+01891MA1100715999999MD1310011+9999MW1001OC101291REMMET093KNFG 202355Z 01013G25KT 7SM SCT200 20/M07 A2973 RMK SLP066 8/005 T02001067 10217 20189 53001;EQDQ01+000000PRSWM2QNNAA1D0 02200BA1 0 02200GA1U0 99999KA1D0 00019JA1 0-00070LA1 0 00000CA1 0 02974QA1 0 10066SA1D0 00068RA1 0 00200YA1 0 01013
0500722926031542000032216003+33300-117350FM-15+0023NFG  V0201905N001552200019N0112005N1+01205+00305101905ADDGF100991999999999999999999GP10060029502008063602015007702008GQ100600700910279GR100600470913769MA1101935999999MW1001REMMET063KNFG 221555Z 19003KT 10SM SKC 12/03 A3010 RMK SLP190 T01170033;EQDQ01+000000PRSWM2N01 00000JALM1 3N02 09000JALC2D3N03 09000JALM2 3N04 09000JALC3D3N05 09000JALM3 3N06 99999CCLHTU3N07 00000JPWTH 0QNNAA1D0 00000BA1 3 00000AA1D3 09000BA1 3 09000AA1D3 09000BA1 3 09000GA1U3 99999KA1D0 00037JA1 0 00030LA1 0 00700CA1 0 03010NA1 0 00000QA1 0 10190SA1D0 00054RA1 0 00120YA1 0 19003
0403722926031542000032515003+33300-117350FM-15+0023NFG  V0200305N00155015245MN0112005N1+01105+01005101825ADDGD14995+0152459GF108991999999999999999999GP10060003102008000002015003102008GQ100600815909319GR100600203913749MA1101835999999MD1310201+9999MW1001REMMET077KNFG 251455Z 03003KT 7SM OVC050 11/10 A3007 RMK SLP182 8/5// T01060100 53020;EQDQ01+000000PRSWM2N01 00000JPWTH 0QNNAA1D0 06050BA1 0 06050GA1 0 00050KA1D0 00050JA1 0 00100LA1 0 00700CA1 0 03007NA1 0 00000QA1 0 10182SA1D0 00052RA1 0 00110YA1 0 03003
0482722926031542000032611003+33300-117350FM-15+0023NFG  V0209999C000052200019N0112005N1+00705+00705102155ADDGF100991999999999999999999GP10060000002000000002000000002000GR100600000900009MA1102175999999MW1001REMMET062KNFG 261055Z 00000KT 7SM SKC 07/07 A3017 RMK SLP215 T00670067;EQDQ01+000000PRSWM2N01 00000JALM1 3N02 09000JALC2D3N03 09000JALM2 3N04 09000JALC3D3N05 09000JALM3 3N06 99999CCLHTU3N07 00000JPWTH 0QNNAA1D0 00000BA1 3 00000AA1D3 09000BA1 3 09000AA1D3 09000BA1 3 09000GA1U3 99999KA1D0 00045JA1 0 00070LA1 0 00700CA1 0 03017NA1 0 00000QA1 0 10215SA1D0 00045RA1 0 00070YA1 0 00000
0071722926031542000032701009+33300-117350NSRDB+002399999V020999999999999999999999999999+99999+99999999999ADDGP10060031302008058502015012102008GQ100600709926029GR100600449913739
0403722926031542000040303003+33300-117350FM-15+0023NFG  V0201905N00215220005MN0112005N1+01405+01205101855ADDGD12995+0061059GF102991999999999999999999GP10060000002008000002015000002008GQ100600891927619GR100600003902169MA1101865999999MD1310211+9999MW1001REMMET077KNFG 030255Z 19004KT 7SM FEW020 14/12 A3008 RMK SLP185 8/100 T01440122 53021;EQDQ01+000000PRSWM2N01 00000JPWTH 0QNNAA1D0 02020BA1 0 02020GA1U0 99999KA1D0 00054JA1 0 00120LA1 0 00700CA1 0 03008NA1 0 00000QA1 0 10185SA1D0 00057RA1 0 00140YA1 0 19004
0429722926031542000040508003+33300-117350FM-15+0023NFG  V0200205N00265029875MN0064005N1+01205+01105101695ADDGD13995+0027459GF107991999999999999999999GP10060000002000000002000000002000GR100600000900009KA1999M+02171KA2999N+00721MA1101695999999MW1101MW2455REMMET086KNFG 050755Z 02005KT 4SM BR BKN009 12/11 A3003 RMK VIS S 2 SLP169 T01220111 402170072;EQDQ01+000003PRSWM1Q02    003PRSWM1N01 00070JPWTH 0QNNAA1D0 04009BA1 0 04009GA1 0 00098KA1D0 00052JA1 0 00110LA1 0 00400CA1 0 03003NA1 0 00070QA1 0 10169SA1D0 00054RA1 0 00120YA1 0 02005
0410722926031542000040920003+33300-117350FM-15+0023NFG  V0202205N004650750019N0112005N1+01905+01105101515ADDGD12995+0030559GD23995+0762059GF107991999999999999999999GP10060087302008061202015032202008GQ100600261916849GR100601222913629MA1101525999999MW1001REMMET072KNFG 091955Z 22009KT 7SM FEW010 BKN250 19/11 A2998 RMK SLP151 TO1940106;EQDQ01+000000PRSWM2N01 00000JPWTH 0QNNAA1D0 02010BA1 0 02010AA1D0 04250BA1 0 04250KA1D0 00052JA1 0 00110LA1 0 00700CA1 0 02998NA1 0 00000QA1 0 10151SA1D0 00066RA1 0 00190YA1 0 22009
0071722926031542000041503009+33300-117350NSRDB+002399999V020999999999999999999999999999+99999+99999999999ADDGP10060000002008000002015000002008GQ100600883928099GR100600012904199
0482722926031542000042104003+33300-117350FM-15+0023NFG  V0209999C000052200019N0112005N1+01405+01305101405ADDGF100991999999999999999999GP10060000002000000002000000002000GR100600000900009MA1101425999999MW1001REMMET062KNFG 210355Z 00000KT 7SM SKC 14/13 A2995 RMK SLP140 T01390128;EQDQ01+000000PRSWM2N01 00000JALM1 3N02 09000JALC2D3N03 09000JALM2 3N04 09000JALC3D3N05 09000JALM3 3N06 99999CCLHTU3N07 00000JPWTH 0QNNAA1D0 00000BA1 3 00000AA1D3 09000BA1 3 09000AA1D3 09000BA1 3 09000GA1U3 99999KA1D0 00055JA1 0 00130LA1 0 00700CA1 0 02995NA1 0 00000QA1 0 10140SA1D0 00057RA1 0 00140YA1 0 00000
0493722926031542000050506003+33300-117350FM-15+0023NFG  V0209999C00005003055MN0096005N1+01705+01405101295ADDGD13995+0030559GD23995+0076259GF107991999999999999999999GP10060000002000000002000000002000GR100600000900009KA1999M+01781KA2999N+01671MA1101295999999MD1010071+9999MW1101MW2455REMMET099KNFG 050555Z 00000KT 6SM BR BKN010 BKN025 17/14 A2991 RMK SLP129 8/800 T01670144 10178 20167 50007;EQDQ01+000003PRSWM1Q02    003PRSWM1N01 00070JPWTH 0QNNAA1D0 04010BA1 0 04010AA1D0 04025BA1 0 04025GA1 0 00010KA1D0 00057JA1 0 00140LA1 0 00600CA1 0 02991NA1 0 00070QA1 0 10129SA1D0 00063RA1 0 00170YA1 0 00000
0406722926031542000051408003+33300-117350FM-15+0023NFG  V0209999C00005220005MN0112005N1+01105+00905101495ADDGD12995+0609659GF104991999999999999999999GP10060000002000000002000000002000GR100600000900009KA1999M+02501KA2999N+00501MA1101525999999MW1001REMMET085KNFG 140755Z 00000KT 7SM SCT200 11/09 A2998 RMK SLP149 T01060094 402500050 T01060094;EQDQ01+000000PRSWM2N01 00000JPWTH 0QNNAA1D0 02200BA1 0 02200GA1U0 99999KA1D0 00048JA1 0 00090LA1 0 00700CA1 0 02998NA1 0 00000QA1 0 10149SA1D0 00052RA1 0 00110YA1 0 00000
0054722926031542000052011009+33300-117350NSRDB+002399999V020999999999999999999999999999+99999+99999999999ADDGP10060000002000000002000000002000GR100600000900009
0402722926031542000052216003+33300-117350FM-15+0023NFG  V0202205N00215002445MN0080005N1+01705+01405101285ADDGD14995+0024459GF108991999999999999999999GP10060012802008000002015012802008GQ100600576908549GR100600713913329MA1101295999999MW1101MW2455REMMET068KNFG 221555Z 22004KT 5SM BR OVC008 17/14 A2991 RMK SLP128 T01720144;EQDQ01+000003PRSWM1Q02    003PRSWM1N01 00070JPWTH 0QNNAA1D0 06008BA1 0 06008GA1 0 00008KA1D0 00057JA1 0 00140LA1 0 00500CA1 0 02991NA1 0 00070QA1 0 10128SA1D0 00063RA1 0 00170YA1 0 22004
0465722926031542000052607003+33300-117350FM-15+0023NFG  V0209999C00005002445MN0080005N1+01605+01405101105ADDGD13995+0024459GD23995+0061059GF107991999999999999999999GP10060000002000000002000000002000GR100600000900009KA1999M+01831KA2999N+01611MA1101125999999MW1101MW2455REMMET085KNFG 260655Z VRB04KT 5SM BR BKN008 BKN020 16/14 A2986 RMK SLP110 T01610139 401830161;EQDQ01+000003PRSWM1Q02    003PRSWM1N01 00070JPWTH 0QNNAA1D0 04008BA1 0 04008AA1D0 04020BA1 0 04020GA1 0 00008KA1D0 00057JA1 0 00140LA1 0 00500CA1 0 02986NA1 0 00070QA1 0 10110SA1D0 00061RA1 0 00160YA1 0 00000
0523722926031542000052918003+33300-117350FM-15+0023NFG  V0202005N00465220005MN0112005N1+02005+01605101255ADDGD12995+0015259GD22995+0030559GD32995+0609659GF104991999999999999999999GP10060034702008003602015031702008GQ100600323910249GR100601121913299KA1999M+02061KA2999N+01441MA1101255999999MD1110081+9999MW1001REMMET097KNFG 291755Z 20009KT 7SM FEW005 SCT010 SCT200 20/16 A2990 RMK SLP125 T02000161 10206 20144 51008;EQDQ01+000000PRSWM2N01 00000JPWTH 0QNNAA1D0 02005BA1 0 02005AA1D0 02010BA1 0 02010AA1D0 02200BA1 0 02200GA1U0 99999KA1D0 00061JA1 0 00160LA1 0 00700CA1 0 02990NA1 0 00000QA1 0 10125SA1D0 00068RA1 0 00200YA1 0 20009
0071722926031542000053000009+33300-117350NSRDB+002399999V020999999999999999999999999999+99999+99999999999ADDGP10060047702008027402015030102008GQ100600502927179GR100600850913299
0071722926031542000060500009+33300-117350NSRDB+002399999V020999999999999999999999999999+99999+99999999999ADDGP10060061102008069202015016402008GQ100600496927259GR100600858913279
0366722926031542000061917003+33300-117350FM-15+0023NFG  V0209999999999220005MN0112005N1+02305+01405101335ADDGD12995+0094559GF104991999999999999999999GP10060051702008027002015032502008GQ100600448908939GR100600936913239MA1101355999999MW1001REMMET065KNFG 191655Z VRB04KT 7SM SCT030 23/14 A2993 RMK SLP133 T02280139;EQDQ01+000000PRSWM2N01 00000JPWTH 0QNNAA1D0 02031BA1 0 02031GA1U0 99999KA1D0 00057JA1 0 00140LA1 0 00700CA1 0 02993NA1 0 00000QA1 0 10133SA1D0 00073RA1 0 00230
0377722926031542000062117003+33300-117350FM-15+0023NFG  V0209999C00005015245MN0112005N1+02305+01605101185ADDGD13995+0152459GF107991999999999999999999GP10060061802008059302015019802008GQ100600449908929GR100600935913229MA1101195999999MW1001REMMET065KNFG 211656Z VRB06KT 7SM BKN050 23/16 A2988 RMK SLP118 T02280161;EQDQ01+000000PRSWM2N01 00000JPWTH 0QNNAA1D0 04050BA1 0 04050GA1 0 00050KA1D0 00061JA1 0 00160LA1 0 00700CA1 0 02988NA1 0 00000QA1 0 10118SA1D0 00073RA1 0 00230YA1 0 00000
0071722926031542000062419009+33300-117350NSRDB+002399999V020999999999999999999999999999+99999+99999999999ADDGP10060094902008081802015018402008GQ100600206911449GR100601235913229
0421722926031542000062819003+33300-117350FM-15+0023NFG  V0202105N00575220005MN0112005N1+02505+01705101385ADDGD12995+0045759GD22995+0548659GF102991999999999999999999GP10060093702008076402015022302008GQ100600208911459GR100601233913229MA1101395999999MW1001REMMET072KNFG 281855Z 21011KT 7SM FEW015 FEW180 25/17 A2994 RMK SLP138 T02500167;EQDQ01+000000PRSWM2N01 00000JPWTH 0QNNAA1D0 02015BA1 0 02015AA1D0 02180BA1 0 02180GA1U0 99999KA1D0 00063JA1 0 00170LA1 0 00700CA1 0 02994NA1 0 00000QA1 0 10138SA1D0 00077RA1 0 00250YA1 0 21011
0421722926031542000070514003+33300-117350FM-15+0023NFG  V0200605N00215006105MN0112005N1+01605+01305101415ADDGD12995+0045759GD24995+0061059GF108991999999999999999999GP10060002002008000002015002002008GQ100600823906779GR100600177913219MA1101425999999MW1001REMMET072KNFG 051355Z 06004KT 7SM FEW015 OVC020 16/13 A2995 RMK SLP141 T01610128;EQDQ01+000000PRSWM2N01 00000JPWTH 0QNNAA1D0 02015BA1 0 02015AA1D0 06020BA1 0 06020GA1 0 00020KA1D0 00055JA1 0 00130LA1 0 00700CA1 0 02995NA1 0 00000QA1 0 10141SA1D0 00061RA1 0 00160YA1 0 06004
0071722926031542000070704009+33300-117350NSRDB+002399999V020999999999999999999999999999+99999+99999999999ADDGP10060000002000000002000000002000GQ100600899929769GR100600000900119
0421722926031542000071401003+33300-117350FM-15+0023NFG  V0202205N00465060965MN0112005N1+02205+01605101595ADDGD12995+0094559GD23995+0609659GF107991999999999999999999GP10060041202008047202015018302008GQ100600610927819GR100600641913229MA1101595999999MW1001REMMET072KNFG 140055Z 22009KT 7SM FEW030 BKN200 22/16 A3000 RMK SLP159 T02170156;EQDQ01+000000PRSWM2N01 00000JPWTH 0QNNAA1D0 02031BA1 0 02031AA1D0 04200BA1 0 04200GA1 0 00200KA1D0 00061JA1 0 00160LA1 0 00700CA1 0 03000NA1 0 00000QA1 0 10159SA1D0 00072RA1 0 00220YA1 0 22009
0377722926031542000071902003+33300-117350FM-15+0023NFG  V0202105N00365220005MN0112005N1+02305+01705101305ADDGD12995+0609659GF102991999999999999999999GP10060022202008036702015011802008GQ100600735928459GR100600374913239MA1101325999999MW1001REMMET065KNFG 190155Z 21007KT 7SM FEW200 23/17 A2992 RMK SLP130 T02280172;EQDQ01+000000PRSWM2N01 00000JPWTH 0QNNAA1D0 02200BA1 0 02200GA1U0 99999KA1D0 00063JA1 0 00170LA1 0 00700CA1 0 02992NA1 0 00000QA1 0 10130SA1D0 00073RA1 0 00230YA1 0 21007
0377722926031542000071923003+33300-117350FM-15+0023NFG  V0202105N00725220005MN0112005N1+02805+01605101145ADDGD12995+0076259GF102991999999999999999999GP10060077602008075202015017002008GQ100600364925949GR100601063913239MA1101155999999MW1001REMMET065KNFG 192255Z 21014KT 7SM FEW025 28/16 A2987 RMK SLP114 T02830161;EQDQ01+000000PRSWM2N01 00000JPWTH 0QNNAA1D0 02025BA1 0 02025GA1U0 99999KA1D0 00061JA1 0 00160LA1 0 00700CA1 0 02987NA1 0 00000QA1 0 10114SA1D0 00082RA1 0 00280YA1 0 21014
0189722926031542000072005114+33300-117350FM-16+0056KNFG V0202501N001510030019N0048281N1+01801+01801101271ADDGD12991+0021019GD23991+0030019GF107991999999999999999999MA1101291999999MW1101REMMET065KNFG 200511Z 25003KT 3SM BR SCT007 BKN010 18/18 A2991 RMK SLP127;EQDQ01+000003PRSWM1Q02    003PRSWM1
0071722926031542000072018009+33300-117350NSRDB+002399999V020999999999999999999999999999+99999+99999999999ADDGP10060077702008071702015018802008GQ100600347910259GR100601085913239
0402722926031542000072113003+33300-117350FM-15+0023NFG  V0209999C00005002445MN0048005N1+01805+01705101225ADDGD14995+0024459GF108991999999999999999999GP10060000002008000002015000002008GQ100600897906539GR100600000900779MA1101255999999MW1101MW2455REMMET068KNFG 211255Z 00000KT 3SM BR OVC008 18/17 A2990 RMK SLP122 T01780167;EQDQ01+000003PRSWM1Q02    003PRSWM1N01 00070JPWTH 0QNNAA1D0 06008BA1 0 06008GA1 0 00008KA1D0 00063JA1 0 00170LA1 0 00300CA1 0 02990NA1 0 00070QA1 0 10122SA1D0 00064RA1 0 00180YA1 0 00000
0385722926031542000072607003+33300-117350FM-15+0023NFG  V0200505N00155004575MN0096005N1+01905+01705101115ADDGD13995+0045759GF107991999999999999999999GP10060000002000000002000000002000GR100600000900009MA1101125999999MW1101MW2455REMMET068KNFG 250655Z 05003KT 6SM BR BKN015 19/17 A2986 RMK SLP111 T01890172;EQDQ01+000003PRSWM1Q02    003PRSWM1N01 00070JPWTH 0QNNAA1D0 04015BA1 0 04015GA1 0 00015KA1D0 00063JA1 0 00170LA1 0 00600CA1 0 02986NA1 0 00070QA1 0 10111SA1D0 00066RA1 0 00190YA1 0 05003
0405722926031542000072904003+33300-117350FM-15+0023NFG  V0202105N00215003055MN0040231N1+01905+01805101375ADDGD13995+0030559GF107991999999999999999999GP10060000002000000002000000002000GR100600000900009MA1101395999999MW1101MW2455REMMET072KNFG 290355Z VRB03KT 2 1/2SM BR BKN010 19/18 A2994 RMK SLP137 T01900178;EQDQ01+000003PRSWM1Q02    003PRSWM1N01 00050DHZVS 3N02 00070JPWTH 0QNNAA1D0 04010BA1 0 04010GA1 0 00010KA1D0 00064JA1 0 00180LA1 3 00050CA1 0 02994NA1 0 00070QA1 0 10137SA1D0 00066RA1 0 00190YA1 0 21004
0404722926031542000073004003+33300-117350FM-15+0023NFG  V0202105N00215220005MN0112005N1+01905+01805101135ADDGD12995+0304859GD22995+0609659GF104991999999999999999999GP10060000002000000002000000002000GR100600000900009MA1101155999999MW1001REMMET072KNFG 300355Z 21004KT 7SM SCT100 SCT200 19/18 A2987 RMK SLP113 T01940178;EQDQ01+000000PRSWM2N01 00000JPWTH 0QNNAA1D0 02100BA1 0 02100AA1D0 02200BA1 0 02200GA1U0 99999KA1D0 00064JA1 0 00180LA1 0 00700CA1 0 02987NA1 0 00000QA1 0 10113SA1D0 00066RA1 0 00190YA1 0 21004
0466722926031542000080419003+33300-117350FM-15+0023NFG  V0202405N00465220005MN0112005N1+02705+01905101395ADDGD12995+0030559GD22995+0121959GD32995+0182959GF102991999999999999999999GP10060087002008071002015022802008GQ100600253912589GR100601199913279MA1101395999999MW1001REMMET080KNFG 041855Z 24009KT 10SM FEW010 FEW040 FEW060 27/19 A2994 RMK SLP139 T02670194;EQDQ01+000000PRSWM2N01 00000JPWTH 0QNNAA1D0 02010BA1 0 02010AA1D0 02040BA1 0 02040AA1D0 02060BA1 0 02060GA1U0 99999KA1D0 00066JA1 0 00190LA1 0 00700CA1 0 02994NA1 0 00000QA1 0 10139SA1D0 00081RA1 0 00270YA1 0 24009
0071722926031542000080922009+33300-117350NSRDB+002399999V020999999999999999999999999999+99999+99999999999ADDGP10060087302008080102015016502008GQ100600280923579GR100601173913309
0499722926031542000081002003+33300-117350FM-15+0023NFG  V0201605N004152200019N0112005N1+02805+01405100945ADDGF100991999999999999999999GP10060018102008025902015012002008GQ100600764927999GR100600312913309MA1100955999999MW1001REMMET062KNFG 100155Z 16008KT 7SM SKC 28/14 A2981 RMK SLP094 T02780139;EQDQ01+000000PRSWM2N01 00000JALM1 3N02 09000JALC2D3N03 09000JALM2 3N04 09000JALC3D3N05 09000JALM3 3N06 99999CCLHTU3N07 00000JPWTH 0QNNAA1D0 00000BA1 3 00000AA1D3 09000BA1 3 09000AA1D3 09000BA1 3 09000GA1U3 99999KA1D0 00057JA1 0 00140LA1 0 00700CA1 0 02981NA1 0 00000QA1 0 10094SA1D0 00082RA1 0 00280YA1 0 16008
0482722926031542000081011003+33300-117350FM-15+0023NFG  V0209999C000052200019N0112005N1+01305+01205101155ADDGF100991999999999999999999GP10060000002000000002000000002000GR100600000900009MA1101155999999MW1001REMMET062KNFG 101055Z 00000KT 7SM SKC 13/12 A2987 RMK SLP115 T01330122;EQDQ01+000000PRSWM2N01 00000JALM1 3N02 09000JALC2D3N03 09000JALM2 3N04 09000JALC3D3N05 09000JALM3 3N06 99999CCLHTU3N07 00000JPWTH 0QNNAA1D0 00000BA1 3 00000AA1D3 09000BA1 3 09000AA1D3 09000BA1 3 09000GA1U3 99999KA1D0 00054JA1 0 00120LA1 0 00700CA1 0 02987NA1 0 00000QA1 0 10115SA1D0 00055RA1 0 00130YA1 0 00000
0499722926031542000081020003+33300-117350FM-15+0023NFG  V0202105N005252200019N0112005N1+03005+01705101095ADDGF100991999999999999999999GP10060094902008082702015016602008GQ100600192916209GR100601256913309MA1101465999999MW1001REMMET062KNFG 101955Z 21010KT 7SM SKC 30/17 A2996 RMK SLP109 T03000167;EQDQ01+000000PRSWM2N01 00000JALM1 3N02 09000JALC2D3N03 09000JALM2 3N04 09000JALC3D3N05 09000JALM3 3N06 99999CCLHTU3N07 00000JPWTH 0QNNAA1D0 00000BA1 3 00000AA1D3 09000BA1 3 09000AA1D3 09000BA1 3 09000GA1U3 99999KA1D0 00063JA1 0 00170LA1 0 00700CA1 0 02996NA1 0 00000QA1 0 10109SA1D0 00086RA1 0 00300YA1 0 21010
0482722926031542000081211003+33300-117350FM-15+0023NFG  V0200205N001552200019N0112005N1+01705+01705101125ADDGF100991999999999999999999GP10060000002000000002000000002000GR100600000900009MA1101155999999MW1001REMMET062KNFG 121055Z 02003KT 7SM SKC 17/17 A2987 RMK SLP112 T01720172;EQDQ01+000000PRSWM2N01 00000JALM1 3N02 09000JALC2D3N03 09000JALM2 3N04 09000JALC3D3N05 09000JALM3 3N06 99999CCLHTU3N07 00000JPWTH 0QNNAA1D0 00000BA1 3 00000AA1D3 09000BA1 3 09000AA1D3 09000BA1 3 09000GA1U3 99999KA1D0 00063JA1 0 00170LA1 0 00700CA1 0 02987NA1 0 00000QA1 0 10112SA1D0 00063RA1 0 00170YA1 0 02003
0441722926031542000082218003+33300-117350FM-15+0023NFG  V0202105N00415220005MN0112005N1+02405+01705101365ADDGD12995+0030559GF102991999999999999999999GP10060072202008065102015021702008GQ100600392911579GR100601034913369KA1999M+02391KA2999N+01721MA1101355999999MD1010011+9999MW1001REMMET089KNFG 221755Z 21008KT 7SM FEW010 24/17 A2993 RMK SLP136 8/500 T02390167 10239 20172 50001;EQDQ01+000000PRSWM2N01 00000JPWTH 0QNNAA1D0 02010BA1 0 02010GA1U0 99999KA1D0 00063JA1 0 00170LA1 0 00700CA1 0 02993NA1 0 00000QA1 0 10136SA1D0 00075RA1 0 00240YA1 0 21008
0054722926031542000082710009+33300-117350NSRDB+002399999V020999999999999999999999999999+99999+99999999999ADDGP10060000002000000002000000002000GR100600000900009
0054722926031542000082904009+33300-117350NSRDB+002399999V020999999999999999999999999999+99999+99999999999ADDGP10060000002000000002000000002000GR100600000900009
0465722926031542000082908003+33300-117350FM-15+0023NFG  V0209999C00005003055MN0096005N1+01905+01805101375ADDGD13995+0030559GD24995+0054959GF108991999999999999999999GP10060000002000000002000000002000GR100600000900009KA1999M+01941KA2999N+01831MA1101395999999MW1101MW2455REMMET085KNFG 290755Z 00000KT 6SM BR BKN010 OVC018 19/18 A2994 RMK SLP137 T01940183 401940183;EQDQ01+000003PRSWM1Q02    003PRSWM1N01 00070JPWTH 0QNNAA1D0 04010BA1 0 04010AA1D0 06018BA1 0 06018GA1 0 00010KA1D0 00064JA1 0 00180LA1 0 00600CA1 0 02994NA1 0 00070QA1 0 10137SA1D0 00066RA1 0 00190YA1 0 00000
0403722926031542000090221003+33300-117350FM-15+0023NFG  V0202305N00575220005MN0112005N1+02405+01405101455ADDGD12995+0094559GF102991999999999999999999GP10060090802008086902015013702008GQ100600277920229GR100601189913439MA1101465999999MD1810201+9999MW1001REMMET077KNFG 022058Z 23011KT 7SM FEW030 24/14 A2996 RMK SLP145 8/100 T02390139 58020;EQDQ01+000000PRSWM2N01 00000JPWTH 0QNNAA1D0 02031BA1 0 02031GA1U0 99999KA1D0 00057JA1 0 00140LA1 0 00700CA1 0 02996NA1 0 00000QA1 0 10145SA1D0 00075RA1 0 00240YA1 0 23011
0403722926031542000090303003+33300-117350FM-15+0023NFG  V0202005N00155220005MN0112005N1+01905+01305101405ADDGD12995+0548659GF102991999999999999999999GP10060000002008000002015000002008GQ100600890927869GR100600004902579MA1101425999999MD1310041+9999MW1001REMMET077KNFG 030255Z 20003KT 7SM FEW180 19/13 A2995 RMK SLP140 8/001 T01940128 53004;EQDQ01+000000PRSWM2N01 00000JPWTH 0QNNAA1D0 02180BA1 0 02180GA1U0 99999KA1D0 00055JA1 0 00130LA1 0 00700CA1 0 02995NA1 0 00000QA1 0 10140SA1D0 00066RA1 0 00190YA1 0 20003
0360722926031542000090411003+33300-117350FM-15+0023NFG  V0209999C00005220005MN0112005N1+01005+01005101335ADDGD12995+0609659GF102991999999999999999999GP10060000002000000002000000002000GR100600000900009MA1101355999999MW1001REMMET065KNFG 041055Z 00000KT 7SM FEW200 10/10 A2993 RMK SLP133 T01000100;EQDQ01+000000PRSWM2N01 00000JPWTH 0QNNAA1D0 02200BA1 0 02200GA1U0 99999KA1D0 00050JA1 0 00100LA1 0 00700CA1 0 02993NA1 0 00000QA1 0 10133SA1D0 00050RA1 0 00100YA1 0 00000
0377722926031542000090602003+33300-117350FM-15+0023NFG  V0202205N00315220005MN0112005N1+02105+01705101145ADDGD12995+0609659GF102991999999999999999999GP10060000002008000002015000002008GQ100600826927299GR100600172913459MA1101155999999MW1001REMMET065KNFG 060155Z 22006KT 7SM FEW200 21/17 A2987 RMK SLP114 T02060172;EQDQ01+000000PRSWM2N01 00000JPWTH 0QNNAA1D0 02200BA1 0 02200GA1U0 99999KA1D0 00063JA1 0 00170LA1 0 00700CA1 0 02987NA1 0 00000QA1 0 10114SA1D0 00070RA1 0 00210YA1 0 22006
0405722926031542000090911003+33300-117350FM-15+0023NFG  V0200505N00315001225MN0020111N1+01305+01305100855ADDGD14995+0012259GF108991999999999999999999GP10060000002000000002000000002000GR100600000900009MA1100885999999MW1101MW2455REMMET072KNFG 091055Z 05006KT 1 1/4SM BR OVC004 13/13 A2979 RMK SLP085 T01330133;EQDQ01+000003PRSWM1Q02    003PRSWM1N01 00025DHZVS 3N02 00070JPWTH 0QNNAA1D0 06004BA1 0 06004GA1 0 00004KA1D0 00055JA1 0 00130LA1 3 00025CA1 0 02979NA1 0 00070QA1 0 10085SA1D0 00055RA1 0 00130YA1 0 05006
0575722926031542000091018003+33300-117350FM-15+0023NFG  V0202005N003152200019N0112005N1+02405+01605101235ADDGF100991999999999999999999GP10060072002008079702015013402008GQ100600428912499GR100600988913489KA1999M+02391KA2999N+01001MA1101255999999MW1001REMMET080KNFG 101755Z 20006KT 7SM SKC 24/16 A2990 RMK SLP123 T02390156 10239 20100 58000;EQDQ01+000082APCTENQ02+000002APC3  Q03+000000PRSWM2N01 00000JALM1 3N02 09000JALC2D3N03 09000JALM2 3N04 09000JALC3D3N05 09000JALM3 3N06 99999CCLHTU3N07 00000JPWTH 0QNNAA1D0 00000BA1 3 00000AA1D3 09000BA1 3 09000AA1D3 09000BA1 3 09000GA1U3 99999KA1D0 00061JA1 0 00160LA1 0 00700CA1 0 02990NA1 0 00000QA1 0 10123SA1D0 00075RA1 0 00240YA1 0 20006
0441722926031542000092000003+33300-117350FM-15+0023NFG  V0202405N00365220005MN0112005N1+02305+02005100605ADDGD12995+0609659GF104991999999999999999999GP10060042302008063602015012502008GQ100600621925119GR100600633913559KA1999M+02671KA2999N+02331MA1100615999999MD1610151+9999MW1001REMMET089KNFG 192355Z 24007KT 7SM SCT200 23/20 A2971 RMK SLP060 8/001 T02330200 10267 20233 56015;EQDQ01+000000PRSWM2N01 00000JPWTH 0QNNAA1D0 02200BA1 0 02200GA1U0 99999KA1D0 00068JA1 0 00200LA1 0 00700CA1 0 02971NA1 0 00000QA1 0 10060SA1D0 00073RA1 0 00230YA1 0 24007
0447722926031542000100421003+33300-117350FM-15+0023NFG  V0202505N00315007625MN0112005N1+02105+01405101145ADDGD12995+0030559GD24995+0076259GF108991999999999999999999GP10060021502008000602015021002008GQ100600401920039GR100601045913679MA1101155999999MD1810101+9999MW1001REMMET084KNFG 042055Z 25006KT 7SM FEW010 OVC025 21/14 A2987 RMK SLP114 8/5// T02110139 58010;EQDQ01+000000PRSWM2N01 00000JPWTH 0QNNAA1D0 02010BA1 0 02010AA1D0 06025BA1 0 06025GA1 0 00025KA1D0 00057JA1 0 00140LA1 0 00700CA1 0 02987NA1 0 00000QA1 0 10114SA1D0 00070RA1 0 00210YA1 0 25006
0403722926031542000100515003+33300-117350FM-15+0023NFG  V0209999C00005004575MN0112005N1+01905+01605101175ADDGD14995+0045759GF108991999999999999999999GP10060004402008000902015004302008GQ100600818910159GR100600195913689MA1101195999999MD1110071+9999MW1001REMMET077KNFG 051455Z 00000KT 7SM OVC015 19/16 A2988 RMK SLP117 8/6// T01940161 51007;EQDQ01+000000PRSWM2N01 00000JPWTH 0QNNAA1D0 06015BA1 0 06015GA1 0 00015KA1D0 00061JA1 0 00160LA1 0 00700CA1 0 02988NA1 0 00000QA1 0 10117SA1D0 00066RA1 0 00190YA1 0 00000
0421722926031542000100607003+33300-117350FM-15+0023NFG  V0209999C00005003665MN0096005N1+01905+01705101175ADDGD14995+0036659GF108991999999999999999999GP10060000002000000002000000002000GR100600000900009KA1999M+02391KA2999N+01891MA1101195999999MW1101MW2455REMMET078KNFG 060655Z 00000KT 6SM BR OVC012 19/17 A2988 RMK SLP117 T01890167 402390189;EQDQ01+000003PRSWM1Q02    003PRSWM1N01 00070JPWTH 0QNNAA1D0 06012BA1 0 06012GA1 0 00012KA1D0 00063JA1 0 00170LA1 0 00600CA1 0 02988NA1 0 00070QA1 0 10117SA1D0 00066RA1 0 00190YA1 0 00000
0360722926031542000100808003+33300-117350FM-15+0023NFG  V0200405N00155220005MN0112005N1+01405+01305101405ADDGD12995+0061059GF104991999999999999999999GP10060000002000000002000000002000GR100600000900009MA1101425999999MW1001REMMET065KNFG 080755Z 04003KT 7SM SCT020 14/13 A2995 RMK SLP140 T01440133;EQDQ01+000000PRSWM2N01 00000JPWTH 0QNNAA1D0 02020BA1 0 02020GA1U0 99999KA1D0 00055JA1 0 00130LA1 0 00700CA1 0 02995NA1 0 00000QA1 0 10140SA1D0 00057RA1 0 00140YA1 0 04003
0377722926031542000101514003+33300-117350FM-15+0023NFG  V0200505N00265220005MN0112005N1+00805+00605101495ADDGD12995+0006159GF102991999999999999999999GP10060000002008000002015000002008GQ100600896910049GR100600001901039MA1101495999999MW1001REMMET065KNFG 151355Z 05005KT 7SM FEW002 08/06 A2997 RMK SLP149 T00780056;EQDQ01+000000PRSWM2N01 00000JPWTH 0QNNAA1D0 02002BA1 0 02002GA1U0 99999KA1D0 00043JA1 0 00060LA1 0 00700CA1 0 02997NA1 0 00000QA1 0 10149SA1D0 00046RA1 0 00080YA1 0 05005
0490722926031542000101614003+33300-117350FM-15+0023NFG  V0200305N00155220005MN0048005N1+00905+00805101625ADDGD12995+0003059GD22995+0045759GD32995+0609659GF104991999999999999999999GP10060000002008000002015000002008GQ100600897910089GR100600000900809MA1101635999999MW1101MW2455REMMET082KNFG 161355Z 03003KT 3SM BR FEW001 SCT015 SCT200 09/08 A3001 RMK SLP162 T00890078;EQDQ01+000003PRSWM1Q02    003PRSWM1N01 00070JPWTH 0QNNAA1D0 02001BA1 0 02001AA1D0 02015BA1 0 02015AA1D0 02200BA1 0 02200GA1U0 99999KA1D0 00046JA1 0 00080LA1 0 00300CA1 0 03001NA1 0 00070QA1 0 10162SA1D0 00048RA1 0 00090YA1 0 03003
0402722926031542000101817003+33300-117350FM-15+0023NFG  V0209999C00005004575MN0096005N1+01805+01505101715ADDGD14995+0045759GF108991999999999999999999GP10060031002008019602015021602008GQ100600616912639GR100600655913789MA1101735999999MW1101MW2455REMMET068KNFG 181655Z 00000KT 6SM BR OVC015 18/15 A3004 RMK SLP171 T01830150;EQDQ01+000003PRSWM1Q02    003PRSWM1N01 00070JPWTH 0QNNAA1D0 06015BA1 0 06015GA1 0 00015KA1D0 00059JA1 0 00150LA1 0 00600CA1 0 03004NA1 0 00070QA1 0 10171SA1D0 00064RA1 0 00180YA1 0 00000
0377722926031542000102417003+33300-117350FM-15+0023NFG  V0209999C00005220005MN0112005N1+01905+01405102195ADDGD12995+0094559GF104991999999999999999999GP10060041602008070602015009502008GQ100600630912819GR100600627913839MA1102205999999MW1001REMMET065KNFG 241655Z 00000KT 7SM SCT030 19/14 A3018 RMK SLP219 T01940139;EQDQ01+000000PRSWM2N01 00000JPWTH 0QNNAA1D0 02031BA1 0 02031GA1U0 99999KA1D0 00057JA1 0 00140LA1 0 00700CA1 0 03018NA1 0 00000QA1 0 10219SA1D0 00066RA1 0 00190YA1 0 00000
0189722926031542000102617254+33300-117350FM-15+0056KNFG V0202401N002110090019N0096561N1+01501+01401101311ADDGD12991+0060019GD23991+0090019GF107991999999999999999999MA1101351999999MW1101REMMET065KNFG 261725Z 24004KT 6SM BR SCT020 BKN030 15/14 A2993 RMK SLP131;EQDQ01+000003PRSWM1Q02    003PRSWM1
0377722926031542000102822003+33300-117350FM-15+0023NFG  V0202205N00465220005MN0112005N1+01905+01205101785ADDGD12995+0106759GF104991999999999999999999GP10060058302008072302015016202008GQ100600545921569GR100600804913869MA1101795999999MW1001REMMET065KNFG 282155Z 22009KT 7SM SCT035 19/12 A3006 RMK SLP178 T01890122;EQDQ01+000000PRSWM2N01 00000JPWTH 0QNNAA1D0 02035BA1 0 02035GA1U0 99999KA1D0 00054JA1 0 00120LA1 0 00700CA1 0 03006NA1 0 00000QA1 0 10178SA1D0 00066RA1 0 00190YA1 0 22009
0424722926031542000102906003+33300-117350FM-15+0023NFG  V0209999C00005012195MN0112005N1+01205+01105102015ADDGD13995+0121959GF107991999999999999999999GP10060000002000000002000000002000GR100600000900009KA1999M+01611KA2999N+01171MA1102035999999MD1010081+9999MW1001REMMET089KNFG 290555Z 00000KT 7SM BKN040 12/11 A3013 RMK SLP201 8/500 T01220111 10161 20117 50008;EQDQ01+000000PRSWM2N01 00000JPWTH 0QNNAA1D0 04040BA1 0 04040GA1 0 00040KA1D0 00052JA1 0 00110LA1 0 00700CA1 0 03013NA1 0 00000QA1 0 10201SA1D0 00054RA1 0 00120YA1 0 00000
0386722926031542000102909003+33300-117350FM-15+0023NFG  V0209999C00005012195MN0112005N1+01205+01105101925ADDGD13995+0121959GF107991999999999999999999GP10060000002000000002000000002000GR100600000900009MA1102005999999MD1810041+9999MW1001REMMET077KNFG 290855Z 00000KT 7SM BKN040 12/11 A3012 RMK SLP192 8/500 T01220111 58004;EQDQ01+000000PRSWM2N01 00000JPWTH 0QNNAA1D0 04040BA1 0 04040GA1 0 00040KA1D0 00052JA1 0 00110LA1 0 00700CA1 0 03012NA1 0 00000QA1 0 10192SA1D0 00054RA1 0 00120YA1 0 00000
0475722926031542000103003003+33300-117350FM-15+0023NFG  V0201805N00365012195MN0096005N1+01605+01305101585ADDAA101000591GD12995+0094559GD24995+0121959GF108991999999999999999999GP10060000002000000002000000002000GR100600000900009MA1101595999999MD1510041+9999MW1101MW2615REMMET096KNFG 300255Z 18007KT 6SM -RABR SCT030 OVC040 16/13 A3000 RMK SLP158 P0002 8/6// T01610133 55004;EQDQ01+000003PRSWM1Q02    003PRSWM1N01 00020JPWTH 0QNNAA1D0 02031BA1 0 02031AA1D0 06040BA1 0 06040GA1 0 00040KA1D0 00055JA1 0 00130LA1 0 00600CA1 0 03000NA1 0 00020QA1 0 10158SA1D0 00061RA1 0 00160YA1 0 18007
0360722926031542000103013003+33300-117350FM-15+0023NFG  V0200405N00215220005MN0112005N1+01105+01005101585ADDGD12995+0061059GF102991999999999999999999GP10060000002000000002000000002000GR100600000900009MA1101595999999MW1001REMMET065KNFG 301255Z 04004KT 7SM FEW020 11/10 A3000 RMK SLP158 T01060100;EQDQ01+000000PRSWM2N01 00000JPWTH 0QNNAA1D0 02020BA1 0 02020GA1U0 99999KA1D0 00050JA1 0 00100LA1 0 00700CA1 0 03000NA1 0 00000QA1 0 10158SA1D0 00052RA1 0 00110YA1 0 04004
0211722926031542000103112254+33300-117350FM-15+0056KNFG V0200701N002110075019N0112651N1+01101+00901101761ADDGD12991+0003019GD22991+0045019GD33991+0075019GF107991999999999999999999MA1101761999999MW1101REMMET072KNFG 311225Z 07004KT 7SM BR FEW001 FEW015 BKN025 11/09 A3005 RMK SLP176;EQDQ01+000003PRSWM1Q02    003PRSWM1
0421722926031542000110420003+33300-117350FM-15+0023NFG  V0202205N00415220005MN0112005N1+02305+00405101345ADDGD12995+0121959GD22995+0304859GF102991999999999999999999GP10060065502008075202015016102008GQ100600491917909GR100600911913919MA1101355999999MW1001REMMET072KNFG 041955Z 22008KT 7SM FEW040 FEW100 23/04 A2993 RMK SLP134 T02280039;EQDQ01+000000PRSWM2N01 00000JPWTH 0QNNAA1D0 02040BA1 0 02040AA1D0 02100BA1 0 02100GA1U0 99999KA1D0 00039JA1 0 00040LA1 0 00700CA1 0 02993NA1 0 00000QA1 0 10134SA1D0 00073RA1 0 00230YA1 0 22008
0482722926031542000110802003+33300-117350FM-15+0023NFG  V0201405N002152200019N0112005N1+01705+00505101445ADDGF100991999999999999999999GP10060000002000000002000000002000GR100600000900009MA1101465999999MW1001REMMET062KNFG 080155Z 14004KT 7SM SKC 17/05 A2996 RMK SLP144 T01560056;EQDQ01+000000PRSWM2N01 00000JALM1 3N02 09000JALC2D3N03 09000JALM2 3N04 09000JALC3D3N05 09000JALM3 3N06 99999CCLHTU3N07 00000JPWTH 0QNNAA1D0 00000BA1 3 00000AA1D3 09000BA1 3 09000AA1D3 09000BA1 3 09000GA1U3 99999KA1D0 00041JA1 0 00050LA1 0 00700CA1 0 02996NA1 0 00000QA1 0 10144SA1D0 00063RA1 0 00170YA1 0 14004
0421722926031542000111419003+33300-117350FM-15+0023NFG  V0202105N00315060965MN0112005N1+01405+00705101685ADDGD12995+0121959GD23995+0609659GF107991999999999999999999GP10060041802008025002015027102008GQ100600541916129GR100600820913989MA1101695999999MW1001REMMET072KNFG 141859Z 21006KT 7SM SCT040 BKN200 14/07 A3003 RMK SLP168 T01440067;EQDQ01+000000PRSWM2N01 00000JPWTH 0QNNAA1D0 02040BA1 0 02040AA1D0 04200BA1 0 04200GA1 0 00200KA1D0 00045JA1 0 00070LA1 0 00700CA1 0 03003NA1 0 00000QA1 0 10168SA1D0 00057RA1 0 00140YA1 0 21006
0551722926031542000111806003+33300-117350FM-15+0023NFG  V0209999C000052200019N0112005N1+00305-00605102185ADDGF100991999999999999999999GP10060000002000000002000000002000GR100600000900009KA1999M+01561KA2999N+00331MA1102205999999MD1310161+9999MW1001REMMET091KNFG 180555Z 00000KT 7SM SKC 03/M06 A3018 RMK SLP218 T00331061 10156 20033 402171005 53016;EQDQ01+000000PRSWM2N01 00000JALM1 3N02 09000JALC2D3N03 09000JALM2 3N04 09000JALC3D3N05 09000JALM3 3N06 99999CCLHTU3N07 00000JPWTH 0QNNAA1D0 00000BA1 3 00000AA1D3 09000BA1 3 09000AA1D3 09000BA1 3 09000GA1U3 99999KA1D0 00021JA1 0-00060LA1 0 00700CA1 0 03018NA1 0 00000QA1 0 10218SA1D0 00037RA1 0 00030YA1 0 00000
0054722926031542000112209009+33300-117350NSRDB+002399999V020999999999999999999999999999+99999+99999999999ADDGP10060000002000000002000000002000GR100600000900009
0441722926031542000112300003+33300-117350FM-15+0023NFG  V0202505N00315220005MN0112005N1+01605+01105101755ADDGD12995+0121959GF104991999999999999999999GP10060020702008036602015012702008GQ100600774923509GR100600306914039KA1999M+02221KA2999N+01561MA1101765999999MD1510021+9999MW1001REMMET089KNFG 222355Z 25006KT 7SM SCT040 16/11 A3005 RMK SLP175 8/500 T01560106 10222 20156 55002;EQDQ01+000000PRSWM2N01 00000JPWTH 0QNNAA1D0 02040BA1 0 02040GA1U0 99999KA1D0 00052JA1 0 00110LA1 0 00700CA1 0 03005NA1 0 00000QA1 0 10175SA1D0 00061RA1 0 00160YA1 0 25006
0546722926031542000112406003+33300-117350FM-15+0023NFG  V0209999C000052200019N0112005N1+00605+00605102305ADDGF100991999999999999999999GP10060000002000000002000000002000GR100600000900009KA1999M+01391KA2999N+00611MA1102305999999MD1110021+9999MW1001REMMET086KNFG 240555Z 00000KT 7SM SKC 06/06 A3021 RMK SLP230 8/000 T00610061 10139 20061 51002;EQDQ01+000000PRSWM2N01 00000JALM1 3N02 09000JALC2D3N03 09000JALM2 3N04 09000JALC3D3N05 09000JALM3 3N06 99999CCLHTU3N07 00000JPWTH 0QNNAA1D0 00000BA1 3 00000AA1D3 09000BA1 3 09000AA1D3 09000BA1 3 09000GA1U3 99999KA1D0 00043JA1 0 00060LA1 0 00700CA1 0 03021NA1 0 00000QA1 0 10230SA1D0 00043RA1 0 00060YA1 0 00000
0469722926031542000120306003+33300-117350FM-15+0023NFG  V0209999C00005220005MN0024141N1+00605+00505101795ADDGD12995+0021359GF104991999999999999999999GP10060000002000000002000000002000GR100600000900009KA1999M+01501KA2999N+00561MA1101795999999MD1110021+9999MW1101MW2455REMMET096KNFG 030555Z 00000KT 1 1/2SM BR SCT007 06/05 A3006 RMK SLP179 8/500 T00600050 10150 20056 51002;EQDQ01+000003PRSWM1Q02    003PRSWM1N01 00050DHZVS 3N02 00070JPWTH 0QNNAA1D0 02007BA1 0 02007GA1U0 99999KA1D0 00041JA1 0 00050LA1 3 00050CA1 0 03006NA1 0 00070QA1 0 10179SA1D0 00043RA1 0 00060YA1 0 00000
0054722926031542000120909009+33300-117350NSRDB+002399999V020999999999999999999999999999+99999+99999999999ADDGP10060000002000000002000000002000GR100600000900009
0203722926031542000121217064+33300-117350FM-16+0056KNFG V0209999C000010090019N0024141N1+01201+01001101491ADDGD12991+0057019GD24991+0090019GF108991999999999999999999MA1101521999999MW1101MW2611REMMET073KNFG 121706Z 00000KT 1 1/2SM -RA BR SCT019 OVC030 12/10 A2998 RMK SLP149;EQDQ01+000003PRSWM1Q02    003PRSWM1
0410722926031542000121419003+33300-117350FM-15+0023NFG  V0209999999999220005MN0112005N1+01505+00705102465ADDGD12995+0061059GD22995+0304859GF104991999999999999999999GP10060049602008076302015010502008GQ100600594916029GR100600719914129MA1102475999999MW1001REMMET072KNFG 141855Z VRB04KT 7SM FEW020 SCT100 15/07 A3026 RMK SLP246 T01500067;EQDQ01+000000PRSWM2N01 00000JPWTH 0QNNAA1D0 02020BA1 0 02020AA1D0 02100BA1 0 02100GA1U0 99999KA1D0 00045JA1 0 00070LA1 0 00700CA1 0 03026NA1 0 00000QA1 0 10246SA1D0 00059RA1 0 00150
0054722926031542000122111009+33300-117350NSRDB+002399999V020999999999999999999999999999+99999+99999999999ADDGP10060000002000000002000000002000GR100600000900009
0071722926031542000122316009+33300-117350NSRDB+002399999V020999999999999999999999999999+99999+99999999999ADDGP10060006002008029802015002702008GQ100600836912359GR100600158914149
0071722926031542000122320009+33300-117350NSRDB+002399999V020999999999999999999999999999+99999+99999999999ADDGP10060054402008070702015015702008GQ100600570917499GR100600770914149
0054722926031542000123103009+33300-117350NSRDB+002399999V020999999999999999999999999999+99999+99999999999ADDGP10060000002000000002000000002000GR100600000900009
0054722927999992000010304009+33133-117283NSRDB+010099999V020999999999999999999999999999+99999+99999999999ADDGP10060000002000000002000000002000GR100600000900009
0155722927999992000010801534+33130-117280FM-15+0100KCRQ V0201301N001512200019N0160931N1+01201+00901102161ADDGF100991999999999999999999MA1102171999999MW1001REMMET077KCRQ 080153Z AUTO 13003KT 10SM CLR 12/09 A3017 RMK AO2 SLP216 T01220094 TSNO;EQDQ01+000000PRSWM2
0235722927999992000011117534+33130-117280FM-15+0100KCRQ V0202501N002112200019N0040231N1+01201+00901102101ADDGF100991999999999999999999KA1999M+01171KA2999N+00501MA1102101999999MD1310221+9999MW1051REMMET101KCRQ 111753Z AUTO 25004KT 2 1/2SM HZ CLR 12/09 A3015 RMK AO2 SLP210 T01170089 10117 20050 53022 TSNO;EQDQ01+000003PRSWM1Q02    003PRSWM1
0173722927999992000011119534+33130-117280FM-15+0100KCRQ V0202801N003612200019N0064371N1+01301+00901101951ADDGF100991999999999999999999MA1101961999999MW1051REMMET079KCRQ 111953Z AUTO 28007KT 4SM HZ CLR 13/09 A3011 RMK AO2 SLP195 T01330094 TSNO;EQDQ01+000003PRSWM1Q02    003PRSWM1
0054722927999992000011508009+33133-117283NSRDB+010099999V020999999999999999999999999999+99999+99999999999ADDGP10060000002000000002000000002000GR100600000900009
0071722927999992000011516009+33133-117283NSRDB+010099999V020999999999999999999999999999+99999+99999999999ADDGP10060003002008001702015002802008GQ100600838912039GR100600153914149
0071722927999992000011522009+33133-117283NSRDB+010099999V020999999999999999999999999999+99999+99999999999ADDGP10060045302008044402015022002008GQ100600586920519GR100600737914149
0054722927999992000012008009+33133-117283NSRDB+010099999V020999999999999999999999999999+99999+99999999999ADDGP10060000002000000002000000002000GR100600000900009
0175722927999992000012008534+33130-117280FM-15+0100KCRQ V0209999C000012200019N0160931N1+01401+01201101841ADDGF100991999999999999999999MA1101861999999MD1610191+9999MW1001REMMET083KCRQ 200853Z AUTO 00000KT 10SM CLR 14/12 A3008 RMK AO2 SLP184 T01390122 56019 TSNO;EQDQ01+000000PRSWM2
0071722927999992000012117009+33133-117283NSRDB+010099999V020999999999999999999999999999+99999+99999999999ADDGP10060022902008046902015009102008GQ100600730912889GR100600411914139
0054722927999992000012207009+33133-117283NSRDB+010099999V020999999999999999999999999999+99999+99999999999ADDGP10060000002000000002000000002000GR100600000900009
0172722927999992000012412534+33130-117280FM-15+0100KCRQ V0209999C000010330019N0112651N1+01501+00901101841ADDGD14991+0330019GF108991999999999999999999MA1101861999999MW1001REMMET079KCRQ 241253Z AUTO 00000KT 7SM OVC110 15/09 A3008 RMK AO2 SLP184 T01500094 TSNO;EQDQ01+000000PRSWM2
0054722927999992000012505009+33133-117283NSRDB+010099999V020999999999999999999999999999+99999+99999999999ADDGP10060000002000000002000000002000GR100600000900009
0221722927999992000012518534+33130-117280FM-15+0100KCRQ V0209999C000010090019N0048281N1+01601+01301101901ADDAA101000391GD13991+0090019GD24991+0120019GF108991999999999999999999MA1101931999999MW1611REMMET086KCRQ 251853Z 00000KT 3SM -RA BKN030 OVC040 16/13 A3010 RMK AO2 SLP190 P0001 T01610128;EQDQ01+000003PRSWM1Q02    003PRSWM1
0054722927999992000020404009+33133-117283NSRDB+010099999V020999999999999999999999999999+99999+99999999999ADDGP10060000002000000002000000002000GR100600000900009
0202722927999992000020605534+33130-117280FM-15+0100KCRQ V0201601N002112200019N0128741N1+01201+01101102151ADDGF100991999999999999999999KA1999M+01561KA2999N+01221MA1102171999999MD1310061+9999MW1001REMMET084KCRQ 060553Z 16004KT 8SM CLR 12/11 A3017 RMK AO2 SLP215 T01220111 10156 20122 53006;EQDQ01+000000PRSWM2
0145722927999992000020701084+33130-117280FM-16+0100KCRQ V0202801N002610021019N0128741N1+01401+01301999999ADDGD13991+0021019GF107991999999999999999999MA1102071999999MW1001REMMET052KCRQ 070108Z 28005KT 8SM BKN007 14/13 A3014 RMK AO2;EQDQ01+000000PRSWM2
0225722927999992000020723534+33130-117280FM-15+0100KCRQ V0202401N002612200019N0028161N1+01401+01201102161ADDGF100991999999999999999999KA1999M+02331KA2999N+01391MA1102171999999MD1510031+9999MW1101REMMET091KCRQ 072353Z 24005KT 1 3/4SM BR CLR 14/12 A3017 RMK AO2 SLP216 T01390122 10233 20139 55003;EQDQ01+000003PRSWM1Q02    003PRSWM1
0256722927999992000021110534+33130-117280FM-15+0100KCRQ V0209999C000010117019N0160931N1+01201+01101101861ADDAA101000021GD12991+0060019GD23991+0117019GD34991+0150019GF108991999999999999999999MA1101861999999MW1611REMMET106KCRQ 111053Z 00000KT 10SM -RA FEW020 BKN039 OVC050 12/11 A3008 RMK AO2 RAB13E28B45 SLP186 P0000 T01170106;EQDQ01+000003PRSWM1Q02    003PRSWM1
0145722927999992000021121534+33130-117280FM-15+0100KCRQ V0202501N005112200019N0160931N1+01401+00901101901ADDGF100991999999999999999999MA1101901999999MW1001REMMET067KCRQ 112153Z 25010KT 10SM CLR 14/09 A3009 RMK AO2 SLP190 T01440094;EQDQ01+000000PRSWM2
0071722927999992000021402009+33133-117283NSRDB+010099999V020999999999999999999999999999+99999+99999999999ADDGP10060000002008001302015000002008GQ100600872925239GR100600035907139
0071722927999992000021518009+33133-117283NSRDB+010099999V020999999999999999999999999999+99999+99999999999ADDGP10060052102008078002015011502008GQ100600587913509GR100600727914029
0217722927999992000021610534+33130-117280FM-15+0100KCRQ V0209999C000010054019N0160931N1+01301+01201101851ADDGD12991+0033019GD22991+0042019GD33991+0054019GF107991999999999999999999MA1101861999999MW1001REMMET094KCRQ 161053Z AUTO 00000KT 10SM SCT011 SCT014 BKN018 13/12 A3008 RMK AO2 SLP185 T01330117 TSNO;EQDQ01+000000PRSWM2
0260722927999992000021703534+33130-117280FM-15+0100KCRQ V0202601N006710117019N0160931N1+01301+01001101731ADDAA101000021GD12991+0063019GD23991+0117019GD34991+0144019GF108991999999999999999999MA1101731999999MW1611REMMET110KCRQ 170353Z AUTO 26013KT 10SM -RA FEW021 BKN039 OVC048 13/10 A3004 RMK AO2 RAB53 SLP173 P0000 T01280100 TSNO;EQDQ01+000003PRSWM1Q02    003PRSWM1
0215722927999992000021714534+33130-117280FM-15+0100KCRQ V0209999V002110126019N0160931N1+01101+00601101881ADDGD12991+0096019GD23991+0126019GF107991999999999999999999MA1101901999999MD1310081+9999MW1001REMMET093KCRQ 171453Z AUTO VRB04KT 10SM SCT032 BKN042 11/06 A3009 RMK AO2 SLP188 T01110061 53008 TSNO;EQDQ01+000000PRSWM2
0071722927999992000021818009+33133-117283NSRDB+010099999V020999999999999999999999999999+99999+99999999999ADDGP10060016202008000602015015902008GQ100600579913439GR100600744914009
0145722927999992000022419534+33130-117280FM-15+0100KCRQ V0202701N005112200019N0160931N1+01301+00601101751ADDGF100991999999999999999999MA1101761999999MW1001REMMET067KCRQ 241953Z 27010KT 10SM CLR 13/06 A3005 RMK AO2 SLP175 T01280056;EQDQ01+000000PRSWM2
0155722927999992000022912534+33130-117280FM-15+0100KCRQ V0200401N001512200019N0160931N1+00901+00601101891ADDGF100991999999999999999999MA1101901999999MW1001REMMET077KCRQ 291253Z AUTO 04003KT 10SM CLR 09/06 A3009 RMK AO2 SLP189 T00890061 TSNO;EQDQ01+000000PRSWM2
0071722927999992000030318009+33133-117283NSRDB+010099999V020999999999999999999999999999+99999+99999999999ADDGP10060031302008006402015027502008GQ100600535913099GR100600827913919
0054722927999992000030408009+33133-117283NSRDB+010099999V020999999999999999999999999999+99999+99999999999ADDGP10060000002000000002000000002000GR100600000900009
0173722927999992000030409534+33130-117280FM-15+0100KCRQ V0201101N001512200019N0160931N1+01001+00801101371ADDGD12991+0180019GF104991999999999999999999MA1101391999999MW1001REMMET080KCRQ 040953Z AUTO 11003KT 10SM SCT060 10/08 A2994 RMK AO2 SLP137 T01000083 TSNO;EQDQ01+000000PRSWM2
0054722927999992000030808009+33133-117283NSRDB+010099999V020999999999999999999999999999+99999+99999999999ADDGP10060000002000000002000000002000GR100600000900009
0147722927999992000030912534+33130-117280FM-15+0100KCRQ V0201001N002112200019N0160931N1+00701+00501102271ADDGF100991999999999999999999MA1102271999999MW1001REMMET069KCRQ 091253Z 10004KT 10SM CLR 07/05 A3020 RMK AO2 SLP227 T00670050 $;EQDQ01+000000PRSWM2
0071722927999992000030919009+33133-117283NSRDB+010099999V020999999999999999999999999999+99999+99999999999ADDGP10060076502008086102015013402008GQ100600430914639GR100601013913869
0165722927999992000031102534+33130-117280FM-15+0100KCRQ V0201401N001512200019N0160931N1+01401+00901102181ADDGF100991999999999999999999MA1102201999999MD1110021+9999MW1001REMMET073KCRQ 110253Z 14003KT 10SM CLR 14/09 A3018 RMK AO2 SLP218 T01440089 51002;EQDQ01+000000PRSWM2
0213722927999992000031211534+33130-117280FM-15+0100KCRQ V0209999C000012200019N0160931N1+01101+00601101501ADDGF100991999999999999999999KA1999M+01331KA2999N+01001MA1101521999999MD1610121+9999MW1001REMMET095KCRQ 121153Z AUTO 00000KT 10SM CLR 11/06 A2998 RMK AO2 SLP150 T01060061 10133 20100 56012 TSNO;EQDQ01+000000PRSWM2
0071722927999992000031302009+33133-117283NSRDB+010099999V020999999999999999999999999999+99999+99999999999ADDGP10060003602008024302015001702008GQ100600847926329GR100600113912349
0071722927999992000031320009+33133-117283NSRDB+010099999V020999999999999999999999999999+99999+99999999999ADDGP10060082602008080302015017902008GQ100600365916819GR100601111913839
0249722927999992000031611534+33130-117280FM-15+0100KCRQ V0209999V001510021019N0064371N1+01201+01101101451ADDGD14991+0021019GF108991999999999999999999KA1999M+01281KA2999N+01221MA1101461999999MD1310031+9999MW1101REMMET100KCRQ 161153Z AUTO VRB03KT 4SM BR OVC007 12/11 A2996 RMK AO2 SLP145 T01220106 10128 20122 53003 TSNO;EQDQ01+000003PRSWM1Q02    003PRSWM1
0071722927999992000031914009+33133-117283NSRDB+010099999V020999999999999999999999999999+99999+99999999999ADDGP10060000002008000002015000002008GQ100600896909039GR100600001901269
0071722927999992000032120009+33133-117283NSRDB+010099999V020999999999999999999999999999+99999+99999999999ADDGP10060089902008088702015015602008GQ100600333916819GR100601150913779
0154722927999992000032418534+33130-117280FM-15+0100KCRQ V0202801N004612200019N0128741N1+01401+01001101541ADDGF100991999999999999999999MA1101561999999MW1001REMMET076KCRQ 241853Z AUTO 28009KT 8SM CLR 14/10 A2999 RMK AO2 SLP154 T01440100 TSNO;EQDQ01+000000PRSWM2
0071722927999992000032800009+33133-117283NSRDB+010099999V020999999999999999999999999999+99999+99999999999ADDGP10060014702008000002015014702008GQ100600586925099GR100600714913729
0071722927999992000032903009+33133-117283NSRDB+010099999V020999999999999999999999999999+99999+99999999999ADDGP10060000002008000002015000002008GQ100600895927419GR100600001901269
0054722927999992000033108009+33133-117283NSRDB+010099999V020999999999999999999999999999+99999+99999999999ADDGP10060000002000000002000000002000GR100600000900009
0147722927999992000040119534+33130-117280FM-15+0100KCRQ V0202801N004612200019N0160931N1+02201+00301101451ADDGF100991999999999999999999MA1101491999999MW1001REMMET069KCRQ 011953Z 28009KT 10SM CLR 22/03 A2997 RMK AO2 SLP145 T02220033 $;EQDQ01+000000PRSWM2
0158722927999992000040121534+33130-117280FM-15+0100KCRQ V0202901N005112200019N0160931N1+02301+00401101331ADDGF100991999999999999999999MA1101351999999MW1001OC100871REMMET072KCRQ 012153Z 29010G17KT 10SM CLR 23/04 A2993 RMK AO2 SLP133 T02280039 $;EQDQ01+000000PRSWM2
0054722927999992000040208009+33133-117283NSRDB+010099999V020999999999999999999999999999+99999+99999999999ADDGP10060000002000000002000000002000GR100600000900009
0054722927999992000040309009+33133-117283NSRDB+010099999V020999999999999999999999999999+99999+99999999999ADDGP10060000002000000002000000002000GR100600000900009
0221722927999992000040417534+33130-117280FM-15+0100KCRQ V0202801N002612200019N0080461N1+01601+01201102011ADDGF100991999999999999999999KA1999M+01611KA2999N+01061MA1102031999999MD1010021+9999MW1051REMMET087KCRQ 041753Z 28005KT 5SM HZ CLR 16/12 A3013 RMK AO2 SLP201 T01610122 10161 20106 50002;EQDQ01+000003PRSWM1Q02    003PRSWM1
0172722927999992000040609534+33130-117280FM-15+0100KCRQ V0201501N001510033019N0144841N1+01301+01001101741ADDGD14991+0033019GF108991999999999999999999MA1101761999999MW1001REMMET079KCRQ 060953Z AUTO 15003KT 9SM OVC011 13/10 A3005 RMK AO2 SLP174 T01280100 TSNO;EQDQ01+000000PRSWM2
0163722927999992000040822534+33130-117280FM-15+0100KCRQ V0202401N003112200019N0096561N1+01801+01301101551ADDGF100991999999999999999999MA1101561999999MW1051REMMET069KCRQ 082253Z 24006KT 6SM HZ CLR 18/13 A2999 RMK AO2 SLP155 T01780128;EQDQ01+000003PRSWM1Q02    003PRSWM1
0054722927999992000041506009+33133-117283NSRDB+010099999V020999999999999999999999999999+99999+99999999999ADDGP10060000002000000002000000002000GR100600000900009
0071722927999992000042117009+33133-117283NSRDB+010099999V020999999999999999999999999999+99999+99999999999ADDGP10060059602008053802015024802008GQ100600497910319GR100600874913529
0236722927999992000042221083+33130-117280FM-16+0100KCRQ V0202301N003610075019N0160931N1+01601+01101999999ADDGD13991+0075019GD23991+0093019GF107991999999999999999999GP10060065202008021702015045202008GQ100600231920709GR100601243913529MA1101901999999MW1001REMMET060KCRQ 222108Z 23007KT 10SM BKN025 BKN031 16/11 A3009 RMK AO2;EQDQ01+000000PRSWM2
0071722927999992000042301009+33133-117283NSRDB+010099999V020999999999999999999999999999+99999+99999999999ADDGP10060036802008060302015013202008GQ100600670927039GR100600527913529
0182722927999992000042818534+33130-117280FM-15+0100KCRQ V0202401N004110078019N0160931N1+01701+01201101581ADDGD14991+0078019GF108991999999999999999999MA1101591999999MW1051REMMET073KCRQ 281853Z 24008KT 10SM HZ OVC026 17/12 A3000 RMK AO2 SLP158 T01670122;EQDQ01+000003PRSWM1Q02    003PRSWM1
0154722927999992000050218534+33130-117280FM-15+0100KCRQ V0202601N005112200019N0144841N1+02101+01401101111ADDGF100991999999999999999999MA1101151999999MW1001REMMET076KCRQ 021853Z AUTO 26010KT 9SM CLR 21/14 A2987 RMK AO2 SLP111 T02110139 TSNO;EQDQ01+000000PRSWM2
0071722927999992000050420009+33133-117283NSRDB+010099999V020999999999999999999999999999+99999+99999999999ADDGP10060033002008001802015031302008GQ100600177916779GR100601279913439
0071722927999992000050521009+33133-117283NSRDB+010099999V020999999999999999999999999999+99999+99999999999ADDGP10060079502008040402015041302008GQ100600197921279GR100601263913429
0146722927999992000050619374+33130-117280FM-16+0100KCRQ V0202701N004612200019N0160931N1+01701+01401999999ADDGD12991+0051019GF104991999999999999999999MA1101561999999MW1001REMMET053KCRQ 061937Z 27009KT 10SM SCT017 17/14 A2999 RMK AO2;EQDQ01+000000PRSWM2
0054722927999992000050706009+33133-117283NSRDB+010099999V020999999999999999999999999999+99999+99999999999ADDGP10060000002000000002000000002000GR100600000900009
0145722927999992000050716534+33130-117280FM-15+0100KCRQ V02099999999992200019N0160931N1+01801+01301101701ADDGF100991999999999999999999MA1101731999999MW1001REMMET067KCRQ 071653Z VRB05KT 10SM CLR 18/13 A3004 RMK AO2 SLP170 T01830128;EQDQ01+000000PRSWM2
0054722927999992000050807009+33133-117283NSRDB+010099999V020999999999999999999999999999+99999+99999999999ADDGP10060000002000000002000000002000GR100600000900009
0191722927999992000051015534+33130-117280FM-15+0100KCRQ V0202001N004110051019N0096561N1+01701+01301101291ADDGD14991+0051019GF108991999999999999999999MA1101321999999MW1051REMMET082KCRQ 101553Z AUTO 20008KT 6SM HZ OVC017 17/13 A2992 RMK AO2 SLP129 T01670133 TSNO;EQDQ01+000003PRSWM1Q02    003PRSWM1
0071722927999992000051320009+33133-117283NSRDB+010099999V020999999999999999999999999999+99999+99999999999ADDGP10060101402008087602015016702008GQ100600154916649GR100601289913379
0054722927999992000051508009+33133-117283NSRDB+010099999V020999999999999999999999999999+99999+99999999999ADDGP10060000002000000002000000002000GR100600000900009
0145722927999992000051615534+33130-117280FM-15+0100KCRQ V02099999999992200019N0160931N1+01601+00901101611ADDGF100991999999999999999999MA1101631999999MW1001REMMET067KCRQ 161553Z VRB03KT 10SM CLR 16/09 A3001 RMK AO2 SLP161 T01610089;EQDQ01+000000PRSWM2
0054722927999992000051708009+33133-117283NSRDB+010099999V020999999999999999999999999999+99999+99999999999ADDGP10060000002000000002000000002000GR100600000900009
0071722927999992000051714009+33133-117283NSRDB+010099999V020999999999999999999999999999+99999+99999999999ADDGP10060007002008029402015003202008GQ100600824907159GR100600175913359
0145722927999992000051803534+33130-117280FM-15+0100KCRQ V0209999C000012200019N0160931N1+01601+01301101471ADDGF100991999999999999999999MA1101491999999MW1001REMMET067KCRQ 180353Z 00000KT 10SM CLR 16/13 A2997 RMK AO2 SLP147 T01560133;EQDQ01+000000PRSWM2
0071722927999992000051821009+33133-117283NSRDB+010099999V020999999999999999999999999999+99999+99999999999ADDGP10060095502008074202015024402008GQ100600169921789GR100601276913359
0144722927999992000052804534+33130-117280FM-15+0100KCRQ V0209999C000012200019N0128741N1+01801+01701101291ADDGF100991999999999999999999MA1101321999999MW1001REMMET066KCRQ 280453Z 00000KT 8SM CLR 18/17 A2992 RMK AO2 SLP129 T01780167;EQDQ01+000000PRSWM2
0250722927999992000052911534+33130-117280FM-15+0100KCRQ V0209999C00001000151CN0004021N1+01501+01501100991ADDGD15991+0001519GF109991999999000251999999KA1999M+01611KA2999N+01501MA1101021999999MD1610131+9999MW1451REMMET101KCRQ 291153Z AUTO 00000KT 1/4SM FG VV001 15/15 A2983 RMK AO2 SLP099 T01500150 10161 20150 56013 TSNO;EQDQ01+000003PRSWM1Q02    003PRSWM1
0172722927999992000053115534+33130-117280FM-15+0100KCRQ V0209999V001512200019N0112651N1+01701+01201101231ADDGD12991+0060019GF102991999999999999999999MA1101251999999MW1001REMMET079KCRQ 311553Z AUTO VRB03KT 7SM FEW020 17/12 A2990 RMK AO2 SLP123 T01720117 TSNO;EQDQ01+000000PRSWM2
0071722927999992000060421009+33133-117283NSRDB+010099999V020999999999999999999999999999+99999+99999999999ADDGP10060092202008061502015032602008GQ100600144922219GR100601284913279
0071722927999992000060716009+33133-117283NSRDB+010099999V020999999999999999999999999999+99999+99999999999ADDGP10060049102008069202015011502008GQ100600570908269GR100600721913269
0213722927999992000060805534+33130-117280FM-15+0100KCRQ V0209999C000012200019N0160931N1+01701+01401101361ADDGF100991999999999999999999KA1999M+02061KA2999N+01671MA1101391999999MD1310081+9999MW1001REMMET095KCRQ 080553Z AUTO 00000KT 10SM CLR 17/14 A2994 RMK AO2 SLP136 T01720144 10206 20167 53008 TSNO;EQDQ01+000000PRSWM2
0054722927999992000060908009+33133-117283NSRDB+010099999V020999999999999999999999999999+99999+99999999999ADDGP10060000002000000002000000002000GR100600000900009
0071722927999992000061122009+33133-117283NSRDB+010099999V020999999999999999999999999999+99999+99999999999ADDGP10060090302008074002015022902008GQ100600244925189GR100601204913259
0211722927999992000061314534+33130-117280FM-15+0100KCRQ V0209999C000010006019N0048281N1+01601+01501101161ADDGD14991+0006019GF108991999999999999999999MA1101191999999MD1110051+9999MW1101REMMET088KCRQ 131453Z AUTO 00000KT 3SM BR OVC002 16/15 A2988 RMK AO2 SLP116 T01610150 51005 TSNO;EQDQ01+000003PRSWM1Q02    003PRSWM1
0071722927999992000061422009+33133-117283NSRDB+010099999V020999999999999999999999999999+99999+99999999999ADDGP10060087702008061202015031802008GQ100600242925199GR100601205913249
0071722927999992000061500009+33133-117283NSRDB+010099999V020999999999999999999999999999+99999+99999999999ADDGP10060059402008058502015021002008GQ100600490927339GR100600867913249
0054722927999992000061508009+33133-117283NSRDB+010099999V020999999999999999999999999999+99999+99999999999ADDGP10060000002000000002000000002000GR100600000900009
0054722927999992000061712009+33133-117283NSRDB+010099999V020999999999999999999999999999+99999+99999999999ADDGP10060000002000000002000000002000GR100600000900009
0071722927999992000061823009+33133-117283NSRDB+010099999V020999999999999999999999999999+99999+99999999999ADDGP10060078302008074602015018102008GQ100600362926489GR100601065913239
0165722927999992000062522534+33130-117270FM-15+0100KCRQ V0202701N002612200019N0096561N1+02601+02001101281ADDGF100991999999999999999999MA1101321999999MW1101REMMET071KCRQ 252253Z 27005KT 6SM BR CLR 26/20 A2992 RMK AO2 SLP128 T02610200 $;EQDQ01+000003PRSWM1Q02    003PRSWM1
0214722927999992000062605534+33130-117270FM-15+0100KCRQ V0209999C000012200019N0128741N1+02001+01901101291ADDGF100991999999999999999999KA1999M+02831KA2999N+02001MA1101321999999MD1010101+9999MW1001REMMET096KCRQ 260553Z AUTO 00000KT 8SM CLR 20/19 A2992 RMK AO2 SLP129 T02000189 10283 20200 50010 TSNO $;EQDQ01+000000PRSWM2
0193722927999992000062709534+33130-117270FM-15+0100KCRQ V0209999C000010012019N0096561N1+01901+01801101091ADDGD14991+0012019GF108991999999999999999999MA1101121999999MW1101REMMET084KCRQ 270953Z AUTO 00000KT 6SM BR OVC004 19/18 A2986 RMK AO2 SLP109 T01940178 TSNO $;EQDQ01+000003PRSWM1Q02    003PRSWM1
0202722927999992000062717534+33130-117270FM-15+0100KCRQ V0202501N004112200019N0128741N1+02201+01801101271ADDGF100991999999999999999999KA1999M+02221KA2999N+01891MA1101321999999MD1110031+9999MW1001REMMET084KCRQ 271753Z 25008KT 8SM CLR 22/18 A2992 RMK AO2 SLP127 T02220178 10222 20189 51003;EQDQ01+000000PRSWM2
0171722927999992000062818534+33130-117270FM-15+0100KCRQ V0202601N004612200019N0112651N1+02201+01801101421ADDGD12991+0024019GF102991999999999999999999MA1101461999999MW1001REMMET078KCRQ 281853Z 26009KT 7SM FEW008 22/18 A2996 RMK AO2 SLP142 TOPS 014 T02220178;EQDQ01+000000PRSWM2
0213722927999992000062823534+33130-117270FM-15+0100KCRQ V0202401N003112200019N0160931N1+02101+01701101221ADDGF100991999999999999999999KA1999M+02281KA2999N+02061MA1101251999999MD1610121+9999MW1001REMMET095KCRQ 282353Z AUTO 24006KT 10SM CLR 21/17 A2990 RMK AO2 SLP122 T02060167 10228 20206 56012 TSNO;EQDQ01+000000PRSWM2
0193722927999992000063002534+33130-117270FM-15+0100KCRQ V0202601N002110030019N0160931N1+01801+01701101181ADDGD14991+0030019GF108991999999999999999999MA1101221999999MD1310011+9999MW1001REMMET086KCRQ 300253Z AUTO 26004KT 10SM OVC010 18/17 A2989 RMK AO2 SLP118 T01830167 53001 TSNO;EQDQ01+000000PRSWM2
0155722927999992000070104534+33130-117270FM-15+0100KCRQ V0202101N001512200019N0160931N1+01801+01601101341ADDGF100991999999999999999999MA1101391999999MW1001REMMET077KCRQ 010453Z AUTO 21003KT 10SM CLR 18/16 A2994 RMK AO2 SLP134 T01780161 TSNO;EQDQ01+000000PRSWM2
0071722927999992000070602009+33133-117283NSRDB+010099999V020999999999999999999999999999+99999+99999999999ADDGP10060022502008034002015012602008GQ100600730928649GR100600385913219
0054722927999992000070608009+33133-117283NSRDB+010099999V020999999999999999999999999999+99999+99999999999ADDGP10060000002000000002000000002000GR100600000900009
0181722927999992000070902534+33130-117270FM-15+0100KCRQ V0202701N002112200019N0160931N1+01801+01401101431ADDGF100991999999999999999999MA1101461999999MD1310021+9999MW1001REMMET073KCRQ 090253Z 27004KT 10SM CLR 18/14 A2996 RMK AO2 SLP143 T01780144 53000;EQDQ01+000002APC3  Q02+000000PRSWM2
0175722927999992000070908534+33130-117270FM-15+0100KCRQ V0200901N001512200019N0160931N1+01601+01301101431ADDGF100991999999999999999999MA1101461999999MD1810061+9999MW1001REMMET083KCRQ 090853Z AUTO 09003KT 10SM CLR 16/13 A2996 RMK AO2 SLP143 T01560128 58006 TSNO;EQDQ01+000000PRSWM2
0146722927999992000070920434+33130-117270FM-16+0100KCRQ V0202501N004112200019N0160931N1+02101+01401999999ADDGD12991+0072019GF104991999999999999999999MA1101491999999MW1001REMMET053KCRQ 092043Z 25008KT 10SM SCT024 21/14 A2997 RMK AO2;EQDQ01+000000PRSWM2
0193722927999992000071608534+33130-117270FM-15+0100KCRQ V0200801N001510036019N0160931N1+01701+01501101521ADDGD14991+0036019GF108991999999999999999999MA1101561999999MD1610091+9999MW1001REMMET086KCRQ 160853Z AUTO 08003KT 10SM OVC012 17/15 A2999 RMK AO2 SLP152 T01720150 56009 TSNO;EQDQ01+000000PRSWM2
0054722927999992000071611009+33133-117283NSRDB+010099999V020999999999999999999999999999+99999+99999999999ADDGP10060000002000000002000000002000GR100600000900009
0054722927999992000071810009+33133-117283NSRDB+010099999V020999999999999999999999999999+99999+99999999999ADDGP10060000002000000002000000002000GR100600000900009
0249722927999992000072005534+33130-117270FM-15+0100KCRQ V0202601N002110012019N0096561N1+01901+01801101261ADDGD14991+0012019GF108991999999999999999999KA1999M+02501KA2999N+01831MA1101291999999MD1110091+9999MW1101REMMET100KCRQ 200553Z AUTO 26004KT 6SM BR OVC004 19/18 A2991 RMK AO2 SLP126 T01940183 10250 20183 51009 TSNO;EQDQ01+000003PRSWM1Q02    003PRSWM1
0071722927999992000072114009+33133-117283NSRDB+010099999V020999999999999999999999999999+99999+99999999999ADDGP10060001202008000002015001202008GQ100600839906959GR100600140913239
0144722927999992000072304534+33130-117270FM-15+0100KCRQ V0209999C000012200019N0112651N1+01901+01801101461ADDGF100991999999999999999999MA1101491999999MW1001REMMET066KCRQ 230453Z 00000KT 7SM CLR 19/18 A2997 RMK AO2 SLP146 T01940178;EQDQ01+000000PRSWM2
0071722927999992000072517009+33133-117283NSRDB+010099999V020999999999999999999999999999+99999+99999999999ADDGP10060062602008073202015013202008GQ100600476909349GR100600892913249
0231722927999992000072807534+33130-117270FM-15+0100KCRQ V0209999C000010009019N0040231N1+01701+01701101331ADDGD14991+0009019GF108991999999999999999999KA1999M+02221KA2999N+01501MA1101351999999MW1101REMMET096KCRQ 280753Z AUTO 00000KT 2 1/2SM BR OVC003 17/17 A2993 RMK AO2 SLP133 T01720167 402220150 TSNO;EQDQ01+000003PRSWM1Q02    003PRSWM1
0054722927999992000073006009+33133-117283NSRDB+010099999V020999999999999999999999999999+99999+99999999999ADDGP10060000002000000002000000002000GR100600000900009
0154722927999992000080310534+33130-117270FM-15+0100KCRQ V0209999C000012200019N0128741N1+01901+01801101211ADDGF100991999999999999999999MA1101251999999MW1001REMMET076KCRQ 031053Z AUTO 00000KT 8SM CLR 19/18 A2990 RMK AO2 SLP121 T01940183 TSNO;EQDQ01+000000PRSWM2
0145722927999992000080600534+33130-117270FM-15+0100KCRQ V0202301N004112200019N0160931N1+02101+01801101131ADDGF100991999999999999999999MA1101151999999MW1001REMMET067KCRQ 060053Z 23008KT 10SM CLR 21/18 A2987 RMK AO2 SLP113 T02110178;EQDQ01+000000PRSWM2
0201722927999992000080720534+33130-117270FM-15+0100KCRQ V0202101N004612200019N0064371N1+02201+01701101311ADDGD12991+0033019GF104991999999999999999999MA1101351999999MD1810021+9999MW1051REMMET078KCRQ 072053Z 21009KT 4SM HZ SCT011 22/17 A2993 RMK AO2 SLP131 T02220172 58002;EQDQ01+000003PRSWM1Q02    003PRSWM1
0172722927999992000080810534+33130-117270FM-15+0100KCRQ V0209999C000010024019N0128741N1+01801+01701101321ADDGD14991+0024019GF108991999999999999999999MA1101351999999MW1001REMMET079KCRQ 081053Z AUTO 00000KT 8SM OVC008 18/17 A2993 RMK AO2 SLP132 T01830167 TSNO;EQDQ01+000000PRSWM2
0211722927999992000080908534+33130-117270FM-15+0100KCRQ V0209999C000010009019N0064371N1+01901+01801101271ADDGD14991+0009019GF108991999999999999999999MA1101291999999MD1810071+9999MW1101REMMET088KCRQ 090853Z AUTO 00000KT 4SM BR OVC003 19/18 A2991 RMK AO2 SLP127 T01890183 58007 TSNO;EQDQ01+000003PRSWM1Q02    003PRSWM1
0155722927999992000081022534+33130-117270FM-15+0100KCRQ V0202901N003612200019N0160931N1+02401+01801100961ADDGF100991999999999999999999MA1100981999999MW1001REMMET077KCRQ 102253Z AUTO 29007KT 10SM CLR 24/18 A2982 RMK AO2 SLP096 T02440178 TSNO;EQDQ01+000000PRSWM2
0054722927999992000081110009+33133-117283NSRDB+010099999V020999999999999999999999999999+99999+99999999999ADDGP10060000002000000002000000002000GR100600000900009
0154722927999992000081113534+33130-117270FM-15+0100KCRQ V0209999C000012200019N0128741N1+01901+01601101051ADDGF100991999999999999999999MA1101081999999MW1001REMMET076KCRQ 111353Z AUTO 00000KT 8SM CLR 19/16 A2985 RMK AO2 SLP105 T01890161 TSNO;EQDQ01+000000PRSWM2
0165722927999992000081209534+33130-117270FM-15+0100KCRQ V0203301N002112200019N0096561N1+01901+01801101091ADDGF100991999999999999999999MA1101121999999MW1101REMMET071KCRQ 120953Z 33004KT 6SM BR CLR 19/18 A2986 RMK AO2 SLP109 T01890178 $;EQDQ01+000003PRSWM1Q02    003PRSWM1
0054722927999992000081409009+33133-117283NSRDB+010099999V020999999999999999999999999999+99999+99999999999ADDGP10060000002000000002000000002000GR100600000900009
0071722927999992000082100009+33133-117283NSRDB+010099999V020999999999999999999999999999+99999+99999999999ADDGP10060054302008067902015014102008GQ100600538926029GR100600787913359
0144722927999992000082216534+33130-117270FM-15+0100KCRQ V0209999C000012200019N0128741N1+02101+01601101371ADDGF100991999999999999999999MA1101421999999MW1001REMMET066KCRQ 221653Z 00000KT 8SM CLR 21/16 A2995 RMK AO2 SLP137 T02110161;EQDQ01+000000PRSWM2
0172722927999992000082512534+33130-117270FM-15+0100KCRQ V0209999C000012200019N0112651N1+02001+01901101581ADDGD12991+0024019GF104991999999999999999999MA1101591999999MW1001REMMET079KCRQ 251253Z AUTO 00000KT 7SM SCT008 20/19 A3000 RMK AO2 SLP158 T02000189 TSNO;EQDQ01+000000PRSWM2
0054722927999992000082705009+33133-117283NSRDB+010099999V020999999999999999999999999999+99999+99999999999ADDGP10060000002000000002000000002000GR100600000900009
0071722927999992000082719009+33133-117283NSRDB+010099999V020999999999999999999999999999+99999+99999999999ADDGP10060043202008003602015040102008GQ100600300913759GR100601159913399
0054722927999992000082807009+33133-117283NSRDB+010099999V020999999999999999999999999999+99999+99999999999ADDGP10060000002000000002000000002000GR100600000900009
0172722927999992000083000534+33130-117270FM-15+0100KCRQ V0209999V002110039019N0144841N1+01901+01701101381ADDGD14991+0039019GF108991999999999999999999MA1101421999999MW1001REMMET079KCRQ 300053Z AUTO VRB04KT 9SM OVC013 19/17 A2995 RMK AO2 SLP138 T01890167 TSNO;EQDQ01+000000PRSWM2
0269722927999992000083011534+33130-117270FM-15+0100KCRQ V0201401N001510042019N0112651N1+01801+01701101401ADDAA124000591GD13991+0042019GD24991+0069019GF108991999999999999999999KA1999M+01891KA2999N+01831MA1101421999999MD1510021+9999MW1001REMMET110KCRQ 301153Z AUTO 14003KT 7SM BKN014 OVC023 18/17 A2995 RMK AO2 SLP140 70002 T01830172 10189 20183 55002 TSNO;EQDQ01+000000PRSWM2
0054722927999992000090104009+33133-117283NSRDB+010099999V020999999999999999999999999999+99999+99999999999ADDGP10060000002000000002000000002000GR100600000900009
0054722927999992000090105009+33133-117283NSRDB+010099999V020999999999999999999999999999+99999+99999999999ADDGP10060000002000000002000000002000GR100600000900009
0071722927999992000090216009+33133-117283NSRDB+010099999V020999999999999999999999999999+99999+99999999999ADDGP10060036902008067102015008202008GQ100600646909779GR100600574913439
0054722927999992000090610009+33133-117283NSRDB+010099999V020999999999999999999999999999+99999+99999999999ADDGP10060000002000000002000000002000GR100600000900009
0155722927999992000090801534+33130-117270FM-15+0100KCRQ V0202801N002112200019N0160931N1+02101+01601100851ADDGF100991999999999999999999MA1100881999999MW1001REMMET077KCRQ 080153Z AUTO 28004KT 10SM CLR 21/16 A2979 RMK AO2 SLP085 T02110156 TSNO;EQDQ01+000000PRSWM2
0205722927999992000090914534+33130-117270FM-15+0100KCRQ V02099999999990012019N0040231N1+01401+01301100921ADDGD14991+0012019GF108991999999999999999999MA1100951999999MD1310081+9999MW1101REMMET082KCRQ 091453Z VRB03KT 2 1/2SM BR OVC004 14/13 A2981 RMK AO2 SLP092 T01440133 53008;EQDQ01+000003PRSWM1Q02    003PRSWM1
0164722927999992000090915304+33130-117270FM-15+0100KCRQ V0209999C000010006019N0048281N1+01401+01301999999ADDGD14991+0006019GF108991999999999999999999MA1100951999999MW1101REMMET055KCRQ 091530Z 00000KT 3SM BR OVC002 14/13 A2981 RMK AO2;EQDQ01+000003PRSWM1Q02    003PRSWM1
0191722927999992000091010534+33130-117270FM-15+0100KCRQ V0200901N001510012019N0080461N1+01601+01401101081ADDGD14991+0012019GF108991999999999999999999MA1101121999999MW1101REMMET082KCRQ 101053Z AUTO 09003KT 5SM BR OVC004 16/14 A2986 RMK AO2 SLP108 T01560144 TSNO;EQDQ01+000003PRSWM1Q02    003PRSWM1
0203722927999992000091814534+33130-117270FM-15+0100KCRQ V0209999C00001000151CN0004021N1+01801+01801101141ADDGD15991+0001519GF109991999999000251999999MA1101191999999MD1310061+9999MW1451REMMET080KCRQ 181453Z 00000KT M1/4SM FG VV001 18/18 A2988 RMK AO2 SLP114 T01780178 53006;EQDQ01+000003PRSWM1Q02    003PRSWM1
0071722927999992000091817009+33133-117283NSRDB+010099999V020999999999999999999999999999+99999+99999999999ADDGP10060051702008060402015017202008GQ100600551911479GR100600773913549
0211722927999992000092215204+33130-117270FM-15+0100KCRQ V0201201N002110078019N0160931N1+01901+01401999999ADDAA101000021GD13991+0078019GD24991+0102019GF108991999999999999999999MA1100811999999MW1611REMMET076KCRQ 221520Z 12004KT 10SM -RA BKN026 OVC034 19/14 A2977 RMK AO2 RAB02 P0000;EQDQ01+000003PRSWM1Q02    003PRSWM1
0071722927999992000092301009+33133-117283NSRDB+010099999V020999999999999999999999999999+99999+99999999999ADDGP10060010802008000002015010802008GQ100600751925999GR100600348913579
0155722927999992000092412534+33130-117270FM-15+0100KCRQ V0200701N001512200019N0160931N1+01401+01201101581ADDGF100991999999999999999999MA1101591999999MW1001REMMET077KCRQ 241253Z AUTO 07003KT 10SM CLR 14/12 A3000 RMK AO2 SLP158 T01440122 TSNO;EQDQ01+000000PRSWM2
0054722927999992000092509009+33133-117283NSRDB+010099999V020999999999999999999999999999+99999+99999999999ADDGP10060000002000000002000000002000GR100600000900009
0071722927999992000092523009+33133-117283NSRDB+010099999V020999999999999999999999999999+99999+99999999999ADDGP10060056602008068602015015002008GQ100600527923789GR100600823913609
0164722927999992000092616234+33130-117270FM-16+0100KCRQ V02099999999990033019N0112651N1+01901+01701999999ADDGD13991+0033019GF107991999999999999999999MA1101421999999MW1101REMMET055KCRQ 261623Z VRB03KT 7SM BR BKN011 19/17 A2995 RMK AO2;EQDQ01+000003PRSWM1Q02    003PRSWM1
0189722927999992000092916104+33130-117270FM-16+0100KCRQ V0202501N003110060019N0128741N1+01901+01701999999ADDGD12991+0039019GD23991+0060019GD34991+0096019GF108991999999999999999999MA1101321999999MW1001REMMET066KCRQ 291610Z 25006KT 8SM SCT013 BKN020 OVC032 19/17 A2992 RMK AO2;EQDQ01+000000PRSWM2
0071722927999992000100221009+33133-117283NSRDB+010099999V020999999999999999999999999999+99999+99999999999ADDGP10060078902008082302015014902008GQ100600392920069GR100601057913659
0209722927999992000100407534+33130-117270FM-15+0100KCRQ V0209999C000010048019N0160931N1+01801+01601101171ADDGD14991+0048019GF108991999999999999999999KA1999M+02171KA2999N+01831MA1101191999999MW1001REMMET090KCRQ 040753Z AUTO 00000KT 10SM OVC016 18/16 A2988 RMK AO2 SLP117 T01830156 402170183 TSNO;EQDQ01+000000PRSWM2
0285722927999992000100414534+33130-117270FM-15+0100KCRQ V0209999C00001002101CN0048281N1+01701+01701101201ADDAA101000021AA203000891GD12991+0009019GD24991+0030019GF108991999999999999999999MA1101221999999MD1310081+9999MW1101REMMET125KCRQ 041453Z AUTO 00000KT 3SM BR SCT003 OVC010 17/17 A2989 RMK AO2 RAE24 CIG 007V013 SLP120 P0000 60003 T01670167 53008 TSNO;EQDQ01+000003PRSWM1Q02    003PRSWM1
0071722927999992000100620009+33133-117283NSRDB+010099999V020999999999999999999999999999+99999+99999999999ADDGP10060026602008000602015026102008GQ100600388917729GR100601066913699
