0245143080999992000033106004+45230+013930FM-12+029399999V0203601N001012200019N0200001N1+00401+00331101201ADDAA124000091GA1001+999999999GF100991001001999999001001IA1019IA2999+00109KA1999M+01281KA2999N+00331MA1999999097641MD1219999+9999REMSYN088AAXX  31061 14308 32970 03601 10040 20033 39764 40120 52/// 333 10128 20033 30001 70000;EQDQ01  00002PRCP24
0133143080999992000040810004+45230+013930FM-12+029399999V0201601N006012200019N0180001N1+01291-00041102201ADDGF102991021011012501001011MA1999999098711MD1710101+9999REMSYN066AAXX  08101 14308 42668 21606 10129 21004 39871 40220 57010 82101;
0133143080999992000041413004+45230+013930FM-12+029399999V0201601N005010150019N0150001N1+01571+00971100921ADDGF107991071081012501001001MA1999999097511MD1610101+9999REMSYN066AAXX  14131 14308 42665 71605 10157 20097 39751 40092 56010 87800;
0133143080999992000050905004+45230+013930FM-12+029399999V0201401N001010075019N0120001N1+01511+01381102091ADDGF107991051051008001061001MA1999999098641MD1619999+9999REMSYN066AAXX  09051 14308 42562 71401 10151 20138 39864 40209 56/// 85560;
0133143080999992000050911004+45230+013930FM-12+029399999V0201601N005012200019N0200001N1+02141+00921102091ADDGF103991021021012501001011MA1999999098711MD1410001+9999REMSYN066AAXX  09111 14308 42670 31605 10214 20092 39871 40209 54000 82201;
0133143080999992000052105004+45230+013930FM-12+029399999V0203201N001012200019N0200001N1+00551+00471101311ADDGF104991011041999999031011MA1999999097761MD1119999+9999REMSYN066AAXX  21051 14308 42970 43201 10055 20047 39776 40131 51/// 81431;
0247143080999992000061806004+45230+013920FM-12+029399999V0203601N002012200019N0300001N1+01541+00491102911ADDAA124000091GF101991011041012501001011IA1019IA2999+00709KA1999M+02651KA2999N+00921MA1999999099421MD1119999+9999MW1021REMSYN100AAXX  18061 14308 31680 13602 10154 20049 39942 40291 51/// 702// 81401 333 10265 20092 30007 70000;EQDQ01  00002PRCP24
0185143080999992000062112004+45230+013920FM-12+029399999V0202001N002012200019N0150001N1+03111+01141101591ADDAA124000091GF101991011021012501001001MA1999999098321MD1610081+9999MW1021REMSYN082AAXX  21121 14308 31665 12002 10311 20114 39832 40159 56008 702// 81200 333 70000;EQDQ01  00002PRCP24
0145143080999992000070611004+45230+013920FM-12+029399999V0202001N002012200019N0250001N1+02981+01021101581ADDGF102991021011012501001001MA1999999098301MD1410001+9999MW1021REMSYN072AAXX  06111 14308 41675 22002 10298 20102 39830 40158 54000 702// 82100;
0145143080999992000071205004+45230+013920FM-12+029399999V0201801N002010075019N0200001N1+01461+01131100631ADDGF106991061051008001001001MA1999999097221MD1119999+9999MW1021REMSYN072AAXX  12051 14308 41570 61802 10146 20113 39722 40063 51/// 702// 86500;
0247143080999992000072806004+45230+013920FM-12+029399999V0201801N001012200019N0200001N1+01611+01531101051ADDAA124000091GF101991011001999999061001IA1019IA2999+01009KA1999M+03101KA2999N+01401MA1999999097651MD1619999+9999MW1031REMSYN100AAXX  28061 14308 31970 11801 10161 20153 39765 40105 56/// 703// 81060 333 10310 20140 30010 70000;EQDQ01  00002PRCP24
0155143080999992000080605004+45230+013920FM-12+029399999V0201801N001012200019N0300001N1+01181+01131101491ADDGA1001+999999999GF100991001001999999001001MA1999999098011MD1119999+9999MW1011REMSYN066AAXX  06051 14308 41980 01801 10118 20113 39801 40149 51/// 701//;
0155143080999992000082304004+45230+013920FM-12+029399999V0209999C000012200019N0200001N1+01581+01451101511ADDGA1001+999999999GF100991001001999999001001MA1999999098091MD1119999+9999MW1001REMSYN066AAXX  23041 14308 41970 00000 10158 20145 39809 40151 51/// 700//;
0145143080999992000091908004+45230+013920FM-12+029399999V0201601N002010075019N0150001N1+01921+01511100911ADDGF108991051051008001071999MA1999999097551MD1210101+9999MW1031REMSYN072AAXX  19081 14308 41565 81602 10192 20151 39755 40091 52010 703// 8557/;
0145143080999992000100905004+45230+013920FM-12+029399999V0201801N001010075019N9999999N1+01151+01081101021ADDGF108991081061008001999999MA1999999097561MD1619999+9999MW1101REMSYN072AAXX  09051 14308 4156/ 81801 10115 20108 39756 40102 56/// 710// 886//;
0228143080999992000120906004+45230+013920FM-12+029399999V0201601N007010075019N0120001N1+01291+01151101691ADDAA124000091GF108991081051008001999999IA1099IA2999+00909KA1999N+01161MA1999999098421MD1119999+9999MW1001REMSYN094AAXX  09061 14308 31562 81607 10129 20115 39842 40169 51/// 700// 885// 333 20116 31009 70000;EQDQ01  00002PRCP24
0143143080999992000122210004+45230+013920FM-12+029399999V0209999C000012200019N0300001N1-00101-00751102401ADDGA1001+999999999GF100991001001999999001001MA1999999098721MD1110051+9999REMSYN060AAXX  22101 14308 42980 00000 11010 21075 39872 40240 51005;
0133143080999992000122707004+45230+013920FM-12+029399999V0200901N001010042019N0150001N1+00641+00601099621ADDGF108991081051004501999999MA1999999096221MD1119999+9999REMSYN066AAXX  27071 14308 41465 80901 10064 20060 39622 49962 51/// 885//;
0133143140999992000011017004+44530+014470FM-12+005399999V0200501N006012200019N0130001N1+00761+00021102931ADDGF104991021081012501071001MA1999999102271MD1219999+9999REMSYN066AAXX  10171 14314 42663 40506 10076 20002 30227 40293 52/// 82870;
0137143140999992000011910004+44530+014470FM-12+005399999V0200201N004012200019N0350001N1+00811-00441101791ADDGF101991011011012501001001MA1999999101141MD1210171+9999REMSYN070    AAXX  19101 14314 42681 10204 10081 21044 30114 40179 52017 81100;
0208143140999992000012618004+44530+014470FM-12+005399999V0202901N003012200019N0250001N1+00321-00371103131ADDAA199000091GA1001+999999999GF100991001001999999001001KA1999M+00551MA1999999102461MD1210081+9999REMSYN082AAXX  26181 14314 32975 02903 10032 21037 30246 40313 52008 333 10055 92312 92428;EQDQ01  00002PRCP99
0200143140999992000012912004+44530+014470FM-12+005399999V0202501N001010120019N0015001N1+00851+00711101911ADDAA106002091AY141061AY261061GF108991081051012501999999MA1999999101261MD1710181+9999MW1101REMSYN100AAXX  29121 14314 11615 82501 10085 20071 30126 40191 57018 60021 71046 885// 333 70061 92301 92414;
0133143140999992000013113004+44530+014470FM-12+005399999V0201601N003010150019N0120001N1+01301+01011102461ADDGF106991061081012501001001MA1999999101821MD1610031+9999REMSYN066AAXX  31131 14314 42662 61603 10130 20101 30182 40246 56003 86800;
0133143140999992000020108004+44530+014470FM-12+005399999V0200901N001010360019N0120001N1+00981+00871102941ADDGF105991021071012501071001MA1999999102291MD1210031+9999REMSYN066AAXX  01081 14314 42662 50901 10098 20087 30229 40294 52003 82770;
0161143140999992000020210004+44530+014470FM-12+005399999V0202001N004010120019N0050001N1+01181+01021102351ADDAY141999AY241999GF108991081071012501999999MA1999999101711MD1810011+9999MW1101REMSYN072AAXX  02101 14314 41650 82004 10118 20102 30171 40235 58001 71044 887//;
0133143140999992000020410004+44530+014470FM-12+005399999V0200301N004012200019N0450001N1+00981-00051103771ADDGF102991011041012501001011MA1999999103111MD1210251+9999REMSYN066AAXX  04101 14314 42683 20304 10098 21005 30311 40377 52025 81401;
0145143140999992000020605004+44530+014470FM-12+005399999V0202701N003012200019N0015001N1+00561+00391103071ADDGF103991011011012501071001MA1999999102411MD1719999+9999MW1101REMSYN072AAXX  06051 14314 41615 32703 10056 20039 30241 40307 57/// 710// 81170;
0133143140999992000022311004+44530+014470FM-12+005399999V0203601N002012200019N0350001N1+00801-00351102561ADDGF104991011021012501001081MA1999999101901MD1810011+9999REMSYN066AAXX  23111 14314 42681 43602 10080 21035 30190 40256 58001 81208;
0161143140999992000031411004+44530+014470FM-12+005399999V0200801N001010360019N0060001N1+01221+00891102441ADDAY141999AY241999GF105991031081012501071001MA1999999101801MD1110051+9999MW1101REMSYN072AAXX  14111 14314 41656 50801 10122 20089 30180 40244 51005 71044 83870;
0195143140999992000032212004+44530+014470FM-12+005399999V0202601N003012200019N0220001N1+01421-00031102231ADDAA124000091GA1001+999999999GF100991001001999999001001MA1999999101591MD1710071+9999REMSYN082AAXX  22121 14314 32972 02603 10142 21003 30159 40223 57007 333 70000 92312 92428;EQDQ01  00002PRCP24
0133143140999992000040307004+44530+014470FM-12+005399999V0201201N005010120019N0150001N1+01091+00891100531ADDGF108991081051012501999999MA1999999099901MD1810011+9999REMSYN066AAXX  03071 14314 42665 81205 10109 20089 39990 40053 58001 885//;
0133143140999992000042511004+44530+014470FM-12+005399999V0202801N001012200019N0350001N1+01841+01181101301ADDGF102991011021012501061001MA1999999100681MD1610031+9999REMSYN066AAXX  25111 14314 42681 22801 10184 20118 30068 40130 56003 81260;
0226143140999992000042606004+44530+014470FM-12+005399999V0209999C000012200019N0300001N1+01461+01291101481ADDAA124000091GA1001+999999999GF100991001001999999001001IA1019KA1999N+01291MA1999999100851MD1210081+9999REMSYN094AAXX  26061 14314 32980 00000 10146 20129 30085 40148 52008 333 20129 30/// 70000 92300 92408;EQDQ01  00002PRCP24
0133143140999992000042707004+44530+014470FM-12+005399999V0200801N001012200019N0250001N1+01801+01301101621ADDGF102991001001999999001021MA1999999100991MD1210121+9999REMSYN066AAXX  27071 14314 42975 20801 10180 20130 30099 40162 52012 80002;
0133143140999992000050120004+44530+014470FM-12+005399999V0209999C000010150019N0150001N1+01601+01321101301ADDGF106991061081012501001001MA1999999100671MD1219999+9999REMSYN066AAXX  01201 14314 42665 60000 10160 20132 30067 40130 52/// 86800;
0216143140999992000051306004+44530+014470FM-12+005399999V0203301N003012200019N0110001N1+02031+01641101731ADDAA124000091GF102991011011012501001011IA1019KA1999N+01751MA1999999101111MD1210051+9999REMSYN100AAXX  13061 14314 32661 23303 10203 20164 30111 40173 52005 81101 333 20175 30/// 70000 92312 92427;EQDQ01  00002PRCP24
0133143140999992000051319004+44530+014470FM-12+005399999V0203501N004012200019N0120001N1+01931+01341101781ADDGF103991011011012501071001MA1999999101161MD1410001+9999REMSYN066AAXX  13191 14314 42662 33504 10193 20134 30116 40178 54/// 81170;
0149143140999992000052303004+44530+014470FM-12+005399999V0200701N001010120019N0180001N1+01711+01401101691ADDGF106991061051012501001001MA1999999101061MD1219999+9999REMSYN082AAXX  23031 14314 42668 60701 10171 20140 30106 40169 52/// 86500 333 92311 92417;
0133143140999992000060513004+44530+014470FM-12+005399999V0201901N002012200019N0350001N1+02881+01471101711ADDGF101991011011012501001001MA1999999101111MD1710061+9999REMSYN066AAXX  05131 14314 42681 11902 10288 20147 30111 40171 57006 81100;
0133143140999992000060520004+44530+014470FM-12+005399999V0200601N001012200019N0300001N1+02351+01731101541ADDGF101991001001999999001011MA1999999100931MD1319999+9999REMSYN066AAXX  05201 14314 42980 10601 10235 20173 30093 40154 53/// 80001;
0133143140999992000060711004+44530+014470FM-12+005399999V0203601N003012200019N0300001N1+02781+01631101391ADDGF104991011021012501071011MA1999999100791MD1110071+9999REMSYN066AAXX  07111 14314 42680 43603 10278 20163 30079 40139 51007 81271;
0133143140999992000061708004+44530+014470FM-12+005399999V0200301N005012200019N0350001N1+02321+00831102191ADDGF101991011001999999031001MA1999999101571MD1210141+9999REMSYN066AAXX  17081 14314 42981 10305 10232 20083 30157 40219 52014 81030;
0161143140999992000062203004+44530+014470FM-12+005399999V0200901N002012200019N0130001N1+02211+02011101781ADDGF102991011001999999011011MA1999999101161MD1019999+9999MW1001REMSYN088AAXX  22031 14314 41963 20902 10221 20201 30116 40178 50/// 700// 81011 333 92311 92417;
0133143140999992000070310004+44530+014470FM-12+005399999V0201901N005012200019N0150001N1+02891+01741101471ADDGF101991001001999999001011MA1999999100871MD1710061+9999REMSYN066AAXX  03101 14314 42965 11905 10289 20174 30087 40147 57006 80001;
0133143140999992000072007004+44530+014470FM-12+005399999V0200201N003012200019N0300001N1+02291+01161101531ADDGF102991001001999999001011MA1999999100921MD1210091+9999REMSYN066AAXX  20071 14314 42980 20203 10229 20116 30092 40153 52009 80001;
0133143140999992000072413004+44530+014470FM-12+005399999V0201901N005010360019N0150001N1+02591+01931101371ADDGF106991031081012501071021MA1999999100771MD1010031+9999REMSYN066AAXX  24131 14314 42665 61905 10259 20193 30077 40137 50003 83872;
0226143140999992000072806004+44530+014470FM-12+005399999V0200201N001012200019N0250001N1+02421+01871101101ADDAA124000091GA1001+999999999GF100991001001999999001001IA1019KA1999N+02191MA1999999100491MD1810011+9999REMSYN094AAXX  28061 14314 32975 00201 10242 20187 30049 40110 58001 333 20219 30/// 70000 92311 92418;EQDQ01  00002PRCP24
0149143140999992000072909004+44530+014470FM-12+005399999V0200301N003012200019N0500001N1+02531+01211101281ADDGF101991011011012501001001MA1999999100671MD1210091+9999REMSYN082AAXX  29091 14314 42684 10303 10253 20121 30067 40128 52009 81100 333 92312 92428;
0133143140999992000072910004+44530+014470FM-12+005399999V0200801N002012200019N0500001N1+02701+01121101321ADDGF102991021011012501001001MA1999999100711MD1210091+9999REMSYN066AAXX  29101 14314 42684 20802 10270 20112 30071 40132 52009 82100;
0133143140999992000080505004+44530+014470FM-12+005399999V0200301N003010150019N0200001N1+02301+01981101401ADDGF107991071081012501001001MA1999999100791MD1519999+9999REMSYN066AAXX  05051 14314 42670 70303 10230 20198 30079 40140 55/// 87800;
0210143140999992000080618004+44530+014470FM-12+005399999V0203501N003012200019N0250001N1+02321+01281101571ADDAA199000091GF103991011021012501071011KA1999M+02511MA1999999100951MD1819999+9999MW1031REMSYN094AAXX  06181 14314 31675 33503 10232 20128 30095 40157 58/// 703// 81271 333 10251 92311 92418;EQDQ01  00002PRCP99
0133143140999992000083013004+44530+014470FM-12+005399999V0203201N003012200019N0250001N1+02931+01341101561ADDGF102991001001999999001021MA1999999100961MD1810131+9999REMSYN066AAXX  30131 14314 42975 23203 10293 20134 30096 40156 58013 80002;
0133143140999992000083107004+44530+014470FM-12+005399999V0200201N003010900019N0130001N1+02411+01961101141ADDGF105991021081012501001021MA1999999100531MD1010021+9999REMSYN066AAXX  31071 14314 42663 50203 10241 20196 30053 40114 50002 82802;
0133143140999992000090511004+44530+014470FM-12+005399999V0200401N005012200019N0400001N1+02191+00881101721ADDGF103991011021012501001021MA1999999101101MD1210071+9999REMSYN066AAXX  05111 14314 42682 30405 10219 20088 30110 40172 52007 81202;
0133143140999992000090607004+44530+014470FM-12+005399999V0200201N002012200019N0350001N1+01911+00841101891ADDGF104991031021012501001011MA1999999101261MD1110021+9999REMSYN066AAXX  06071 14314 42681 40202 10191 20084 30126 40189 51002 83201;
0133143140999992000092407004+44530+014470FM-12+005399999V0203501N002012200019N0300001N1+01801+01301102121ADDGF101991011011012501001001MA1999999101691MD1210131+9999REMSYN066AAXX  24071 14314 42680 13502 10180 20130 30169 40212 52013 81100;
0216143140999992000092906004+44530+014470FM-12+005399999V0201501N003012200019N0150001N1+01791+01631101321ADDAA124000091GF104991021081012501071001IA1019KA1999N+01701MA1999999100701MD1410001+9999REMSYN100AAXX  29061 14314 32665 41503 10179 20163 30070 40132 54000 82870 333 20170 30/// 70000 92311 92417;EQDQ01  00002PRCP24
0143143140999992000102305004+44530+014470FM-12+005399999V0203601N001012200019N0250001N1+01401+00891102911ADDGA1001+999999999GF100991001001999999001001MA1999999102271MD1619999+9999REMSYN060AAXX  23051 14314 42975 03601 10140 20089 30227 40291 56///;
0133143140999992000102720004+44530+014470FM-12+005399999V0200201N003012200019N0250001N1+01511+01091102041ADDGF103991031081012501001001MA1999999101411MD1219999+9999REMSYN066AAXX  27201 14314 42675 30203 10151 20109 30141 40204 52/// 83800;
0166143140999992000110512004+44530+014470FM-12+005399999V0202801N004012200019N0300001N1+01761+00611101771ADDAA124000191GF103991021081012501001011MA1999999101141MD1810021+9999REMSYN088AAXX  05121 14314 32680 32804 10176 20061 30114 40177 58002 82801 333 70001 92312 92428;
0133143140999992000111004004+44530+014470FM-12+005399999V0202901N001012200019N0300001N1+01171+00771102041ADDGF104991041081012501001001MA1999999101401MD1319999+9999REMSYN066AAXX  10041 14314 42680 42901 10117 20077 30140 40204 53/// 84800;
0133143140999992000111011004+44530+014470FM-12+005399999V0202501N003012200019N0400001N1+01681+00831102271ADDGF103991021021012501001011MA1999999101641MD1010031+9999REMSYN066AAXX  10111 14314 42682 32503 10168 20083 30164 40227 50003 82201;
0133143140999992000111108004+44530+014470FM-12+005399999V0200301N002012200019N0300001N1+01211+00961102751ADDGF103991021021012501001011MA1999999102101MD1210121+9999REMSYN066AAXX  11081 14314 42680 30302 10121 20096 30210 40275 52012 82201;
0191143140999992000111418004+44530+014470FM-12+005399999V0201501N007010360019N0120001N1+01831+01611101331ADDAA199000021GF108991041051012501071999KA1999M+01971MA1999999100711MD1219999+9999MW1021REMSYN094AAXX  14181 14314 31662 81507 10183 20161 30071 40133 52/// 702// 8457/ 333 10197 92323 92437;
0161143140999992000111703004+44530+014470FM-12+005399999V0201201N007012200019N0150001N1+01761+01171100951ADDGF104991021081012501071001MA1999999100331MD1719999+9999MW1011REMSYN088AAXX  17031 14314 41665 41207 10176 20117 30033 40095 57/// 701// 82870 333 92323 92437;
0133143140999992000112305004+44530+014470FM-12+005399999V0200901N001012200019N0120001N1+01101+00951101881ADDGF102991021021012501001001MA1999999101241MD1410001+9999REMSYN066AAXX  23051 14314 42662 20901 10110 20095 30124 40188 54/// 82200;
0133143140999992000112705004+44530+014470FM-12+005399999V0200201N009010150019N0250001N1+01221+00431101121ADDGF105991051081012501001001MA1999999100481MD1219999+9999REMSYN066AAXX  27051 14314 42675 50209 10122 20043 30048 40112 52/// 85800;
0133143140999992000112913004+44530+014470FM-12+005399999V0202701N004012200019N0350001N1+01531+00641102161ADDGF103991001001999999001081MA1999999101521MD1710141+9999REMSYN066AAXX  29131 14314 42981 32704 10153 20064 30152 40216 57014 80008;
0133143140999992000120320004+44530+014470FM-12+005399999V0202301N003012200019N0150001N1+01391+01061102141ADDGF102991011011012501071001MA1999999101501MD1219999+9999REMSYN066AAXX  03201 14314 42665 22303 10139 20106 30150 40214 52/// 81170;
0143143140999992000120607004+44530+014470FM-12+005399999V0203401N002012200019N0100001N1+01081+00911102351ADDGA1001+999999999GF100991001001999999001001MA1999999101701MD1310051+9999REMSYN060AAXX  06071 14314 42960 03402 10108 20091 30170 40235 53005;
0133143140999992000120913004+44530+014470FM-12+005399999V0202101N005010360019N0200001N1+01621+01231102101ADDGF106991041081012501071001MA1999999101471MD1710081+9999REMSYN066AAXX  09131 14314 42670 62105 10162 20123 30147 40210 57008 84870;
0145143140999992000121005004+44530+014470FM-12+005399999V0202501N004010120019N0150001N1+01531+01351102111ADDGF106991061051012501001001MA1999999101471MD1319999+9999MW1131REMSYN072AAXX  10051 14314 41665 62504 10153 20135 30147 40211 53/// 713// 86500;
0197143140999992000121012004+44530+014470FM-12+005399999V0202901N005012200019N0150001N1+01541+01011102291ADDAA124000091GF102991021021012501001011MA1999999101651MD1010001+9999MW1021REMSYN094AAXX  10121 14314 31665 22905 10154 20101 30165 40229 50000 702// 82201 333 70000 92312 92427;EQDQ01  00002PRCP24
0133143140999992000122007004+44530+014470FM-12+005399999V0200301N007010360019N0150001N1+00851+00291102291ADDGF106991041081012501071001MA1999999101641MD1210121+9999REMSYN066AAXX  20071 14314 42665 60307 10085 20029 30164 40229 52012 84870;
0223143140999992000123006004+44530+014470FM-12+005399999V0203301N007010150019N0080001N1+00771+00591099401ADDAA112023991AY161061GF108991081081012501999999IA1119KA1999N+00691MA1999999098771MD1210121+9999MW1651REMSYN112AAXX  30061 14314 11658 83307 10077 20059 39877 49940 52012 60242 7656/ 888// 333 20069 32/// 70262 92323 92436;
0133143170999992000012009004+45220+014580FM-12+008599999V0200901N002012200019N0300001N1+00721-01101102761ADDGF101991001001999999001021MA1999999101731MD1219999+9999REMSYN066AAXX  20091 14317 42980 10902 10072 21110 30173 40276 52/// 80002;
0143143170999992000012515004+45220+014580FM-12+008599999V0200301N006012200019N0300001N1+00011-01561102791ADDGA1001+999999999GF100991001001999999001001MA1999999101731MD1210031+9999REMSYN060AAXX  25151 14317 42980 00306 10001 21156 30173 40279 52003;
0143143170999992000032215004+45220+014580FM-12+008599999V0203201N002012200019N0200001N1+01461-00191102031ADDGA1001+999999999GF100991001001999999001001MA1999999101041MD1710131+9999REMSYN060AAXX  22151 14317 42970 03202 10146 21019 30104 40203 57013;
0143143170999992000080209004+45210+014580FM-12+008599999V0202801N001012200019N0300001N1+02681+01561102041ADDGA1001+999999999GF100991001001999999001001MA1999999101091MD1310051+9999REMSYN060AAXX  02091 14317 42980 02801 10268 20156 30109 40204 53005;
0163143170999992000081912004+45210+014580FM-12+008599999V0202701N001012200019N0200001N1+03441+01621101781ADDAA199000091GF101991011021017501001001MA1999999100851MD1210021+9999REMSYN066AAXX  19121 14317 32770 12701 10344 20162 30085 40178 52002 81200;EQDQ01  00002PRCP99
0133143170999992000090615004+45210+014580FM-12+008599999V0202201N003012200019N0300001N1+02261+00771101641ADDGF104991041021012501001001MA1999999100681MD1710231+9999REMSYN066AAXX  06151 14317 42680 42203 10226 20077 30068 40164 57023 84200;
0161143170999992000091715004+45210+014580FM-12+008599999V0202401N001010360019N0200001N1+02081+01731100811ADDAY191031AY221031GF106991031051012501031011MA1999999099851MD1710031+9999MW1291REMSYN072AAXX  17151 14317 41670 62401 10208 20173 39985 40081 57003 72992 83531;
0143143170999992000102309004+45210+014580FM-12+008599999V0202001N001012200019N0300001N1+01731+00421102991ADDGA1001+999999999GF100991001001999999001001MA1999999102001MD1210091+9999REMSYN060AAXX  23091 14317 42980 02001 10173 20042 30200 40299 52009;
0133143170999992000111315004+45210+014580FM-12+008599999V0201601N006012200019N0100001N1+01711+00991101421ADDGF105991041081008001001011MA1999999100441MD1710111+9999REMSYN066AAXX  13151 14317 42560 51606 10171 20099 30044 40142 57011 84801;
0133143170999992000113009004+45210+014580FM-12+008599999V0209999C000019999999N0300001N1+00921+00281102311ADDGF107991001001999999001061MA1999999101291MD1219999+9999REMSYN066AAXX  30091 14317 42980 70000 10092 20028 30129 40231 52/// 80006;
0163143170999992000120512004+45210+014580FM-12+008599999V0209999C000012200019N0200001N1+01561+00931102281ADDAA199000091GF101991011011012501001001MA1999999101291MD1810081+9999REMSYN066AAXX  05121 14317 32670 10000 10156 20093 30129 40228 58008 81100;EQDQ01  00002PRCP99
0161143170999992000122815004+45210+014580FM-12+008599999V0200801N001010042019N0030001N1+01051+00941099401ADDAY161031AY261031GF108991061071004501021999MA1999999098431MD1210301+9999MW1651REMSYN072AAXX  28151 14317 41430 80801 10105 20094 39843 49940 52030 76566 8672/;
0133143210999992000011110004+44750+014770FM-12+002099999V0203201N001010120019N0300001N1+00811-00341103311ADDGF107991051051012501071001MA1999999103061MD1310131+9999REMSYN066AAXX  11101 14321 42680 73201 10081 21034 30306 40331 53013 85570;
0137143210999992000011508004+44750+014770FM-12+002099999V0200701N001012200019N0250001N1+00521+00161102351ADDGF103991011041012501041011MA1999999102101MD1319999+9999REMSYN070    AAXX  15081 14321 42675 30701 10052 20016 30210 40235 53/// 81441;
0137143210999992000011608004+44750+014770FM-12+002099999V0200901N001010900019N0300001N1+00721-00591102461ADDGF105991011041012501031021MA1999999102211MD1319999+9999REMSYN070    AAXX  16081 14321 42680 50901 10072 21059 30221 40246 53/// 81432;
0143143210999992000012711004+44750+014770FM-12+002099999V0203401N002012200019N0200001N1+00721-00591103141ADDGA1001+999999999GF100991001001999999001001MA1999999102891MD1810081+9999REMSYN060AAXX  27111 14321 42970 03402 10072 21059 30289 40314 58008;
0143143210999992000020611004+44750+014770FM-12+002099999V0201801N001012200019N0100001N1+01191+00541102941ADDGA1001+999999999GF100991001001999999001001MA1999999102691MD1810041+9999REMSYN060AAXX  06111 14321 42960 01801 10119 20054 30269 40294 58004;
0133143210999992000022611004+44750+014770FM-12+002099999V0201401N001012200019N0150001N1+01211+00421103161ADDGF103991011011012501031001MA1999999102911MD1110031+9999REMSYN066AAXX  26111 14321 42665 31401 10121 20042 30291 40316 51003 81130;
0133143210999992000031813004+44750+014770FM-12+002099999V0200301N003012200019N0400001N1+01231-00811101811ADDGF101991011011012501001001MA1999999101571MD1810081+9999REMSYN066AAXX  18131 14321 42682 10303 10123 21081 30157 40181 58008 81100;
0133143210999992000050211004+44750+014770FM-12+002099999V0200501N002010150019N0300001N1+01921+01001101311ADDGF107991071081012501001001MA1999999101081MD1810041+9999REMSYN066AAXX  02111 14321 42680 70502 10192 20100 30108 40131 58004 87800;
0252143210999992000052306004+44750+014770FM-12+002099999V0201401N001010120019N0280001N1+01661+00801101791ADDAA106000791GF108991081051012501999999IA1019IA2999+01109KA1999M+02251KA2999N+01531MA1999999101561MD1319999+9999MW1611REMSYN124AAXX  23061 14321 11678 81401 10166 20080 30156 40179 53/// 69901 761// 885// 333 10225 20153 30011 70000 92301 92418 00204;
0133143210999992000052313004+44750+014770FM-12+002099999V0202301N003012200019N0300001N1+02381+00381101771ADDGF101991011011012501001001MA1999999101541MD1410001+9999REMSYN066AAXX  23131 14321 42680 12303 10238 20038 30154 40177 54000 81100;
0159143210999992000062009004+44750+014760FM-12+002099999V0201801N002012200019N0500001N1+02641+01821102021ADDGA1001+999999999GF100991001001999999001001MA1999999101791MD1110021+9999REMSYN076AAXX  20091 14321 42984 01802 10264 20182 30179 40202 51002 333 92311 92419;
0161143210999992000071909004+44750+014760FM-12+002099999V0202301N003012200019N0400001N1+02491+00921101431ADDGF103991011011012501041011MA1999999101201MD1210031+9999MW1021REMSYN088AAXX  19091 14321 41682 32303 10249 20092 30120 40143 52003 702// 81141 333 92312 92428;
0133143210999992000080707004+44750+014760FM-12+002099999V0203301N004012200019N0300001N1+02241+01641101551ADDGF103991001001999999001021MA1999999101321MD1710011+9999REMSYN066AAXX  07071 14321 42980 33304 10224 20164 30132 40155 57001 80002;
0143143210999992000081107004+44750+014760FM-12+002099999V0209999C000012200019N0300001N1+02641+01541101471ADDGA1001+999999999GF100991001001999999001001MA1999999101241MD1310041+9999REMSYN060AAXX  11071 14321 42980 00000 10264 20154 30124 40147 53004;
0145143210999992000090207004+44750+014760FM-12+002099999V0201501N006012200019N0150001N1+02331+01831100791ADDGF104991011081012501071011MA1999999100561MD1119999+9999MW1011REMSYN072AAXX  02071 14321 41665 41506 10233 20183 30056 40079 51/// 701// 81871;
0145143210999992000091004004+44750+014760FM-12+002099999V0201201N001012200019N0200001N1+01701+01101102051ADDGF102991001001999999001021MA1999999101811MD1719999+9999MW1021REMSYN072AAXX  10041 14321 41970 21201 10170 20110 30181 40205 57/// 702// 80002;
0178143210999992000091712004+44750+014760FM-12+002099999V0201501N006010120019N0140001N1+02331+01871100831ADDAA106010991GF108991081051012501999999MA1999999100601MD1810091+9999REMSYN100AAXX  17121 14321 12664 81506 10233 20187 30060 40083 58009 60111 885// 333 70106 92323 92437 00224;
0161143210999992000091809004+44750+014760FM-12+002099999V0201901N001010150019N0150001N1+02411+01561100941ADDGF105991051081012501001001MA1999999100711MD1110051+9999MW1031REMSYN088AAXX  18091 14321 41665 51901 10241 20156 30071 40094 51005 703// 85800 333 92301 92417;
0145143210999992000092610004+44750+014760FM-12+002099999V0201901N001012200019N0250001N1+02261+01161102341ADDGF102991001001999999001011MA1999999102101MD1110031+9999MW1021REMSYN072AAXX  26101 14321 41975 21901 10226 20116 30210 40234 51003 702// 80001;
0145143210999992000102805004+44750+014760FM-12+002099999V0200201N001012200019N0350001N1+01201+00931102171ADDGF102991011001999999071011MA1999999101931MD1319999+9999MW1021REMSYN072AAXX  28051 14321 41981 20201 10120 20093 30193 40217 53/// 702// 81071;
0133143210999992000110507004+44750+014760FM-12+002099999V0202501N005012200019N0250001N1+01631+00581101751ADDGF104991041081012501001001MA1999999101511MD1319999+9999REMSYN066AAXX  05071 14321 42675 42505 10163 20058 30151 40175 53/// 84800;
0228143210999992000111406004+44750+014760FM-12+002099999V0201401N011010360019N0140001N1+01831+01341101211ADDAA124000091GF106991041081012501041011IA1099IA2999+01509KA1999N+01761MA1999999100971MD1119999+9999REMSYN100AAXX  14061 14321 32664 61411 10183 20134 30097 40121 51/// 84841 333 20176 31015 70000 92334 92447;EQDQ01  00002PRCP24
0200143210999992000112012004+44750+014760FM-12+002099999V0201501N009010075019N0120001N1+01221+01081101071ADDAA106008991AY161061AY261061GF108991081071008001999999MA1999999100831MD1810121+9999MW1611REMSYN100AAXX  20121 14321 11562 81509 10122 20108 30083 40107 58012 60091 76166 887// 333 70201 92323 92437;
0198143210999992000112318004+44750+014760FM-12+002099999V0201601N004010120019N0150001N1+01521+01251101541ADDAA199000091GF107991071051012501001001KA1999M+01761MA1999999101301MD1719999+9999REMSYN088AAXX  23181 14321 32665 71604 10152 20125 30130 40154 57/// 87500 333 10176 92312 92427;EQDQ01  00002PRCP99
0200143210999992000112612004+44750+014760FM-12+002099999V0201201N001010075019N0080001N1+01061+00911100711ADDAA106003091AY161061AY261061GF108991081071008001999999MA1999999100471MD1810091+9999MW1611REMSYN100AAXX  26121 14321 11558 81201 10106 20091 30047 40071 58009 60031 76166 887// 333 70026 92301 92416;
0133143210999992000120111004+44750+014760FM-12+002099999V0203301N003012200019N0130001N1+01351+00641102521ADDGF101991001001999999001011MA1999999102281MD1810051+9999REMSYN066AAXX  01111 14321 42963 13303 10135 20064 30228 40252 58005 80001;
0133143210999992000122907004+44750+014760FM-12+002099999V0201301N003010150019N0180001N1+00971+00741099711ADDGF108991081081012501999999MA1999999099471MD1619999+9999REMSYN066AAXX  29071 14321 42668 81303 10097 20074 39947 49971 56/// 888//;
0143143230999992000010105004+44980+014900FM-12+002699999V0202301N001012200019N0450001N1+00171-00541102481ADDGA1001+999999999GF100991001001999999001001MA1999999102121MD1219999+9999REMSYN060AAXX  01051 14323 42983 02301 10017 21054 30212 40248 52///;
0133143230999992000010113004+44980+014900FM-12+002699999V0200801N004012200019N0450001N1+00741-00531102541ADDGF101991011001999999041011MA1999999102191MD1810141+9999REMSYN066AAXX  01131 14323 42983 10804 10074 21053 30219 40254 58014 81041;
0153143230999992000011415004+44980+014900FM-12+002699999V0200601N003010360019N0250001N1+01001+00251102241ADDGF107991031051012501071001MA1999999101891MD1710051+9999REMSYN086    AAXX  14151 14323 42675 70603 10100 20025 30189 40224 57005 83570 333 92322 92428;
0149143230999992000013109004+44980+014900FM-12+002699999V0203301N002010900019N0180001N1+01081+00711102491ADDGF106991021051012501001021MA1999999102151MD1110101+9999REMSYN082AAXX  31091 14323 42668 63302 10108 20071 30215 40249 51010 82502 333 92311 92417;
0133143230999992000020519004+44980+014900FM-12+002699999V0201401N001012200019N0080001N1+00881+00201103231ADDGF103991021001999999031021MA1999999102881MD1410001+9999REMSYN066AAXX  05191 14323 41958 31401 10088 20020 30288 40323 54/// 82032;
0133143230999992000021505004+44980+014900FM-12+002699999V0200601N008012200019N0250001N1+00681-00511101951ADDGF101991011041012501001001MA1999999101601MD1819999+9999REMSYN066AAXX  15051 14323 42675 10608 10068 21051 30160 40195 58/// 81400;
0161143230999992000021613004+44980+014900FM-12+002699999V0201501N005010120019N0100001N1+01201+00621100641ADDAY161999AY221999GF108991081051012501999999MA1999999100311MD1710351+9999MW1601REMSYN072AAXX  16131 14323 41660 81505 10120 20062 30031 40064 57035 76062 885//;
0216143230999992000021906004+44980+014900FM-12+002699999V0201701N001010360019N0300001N1+00971+00081100861ADDAA124000091GF108991041051012501071999IA1019KA1999N+00701MA1999999100521MD1710041+9999REMSYN100AAXX  19061 14323 32680 81701 10097 20008 30052 40086 57004 8457/ 333 20070 30/// 70000 92312 92428;EQDQ01  00002PRCP24
0133143230999992000030511004+44980+014900FM-12+002699999V0200601N004012200019N0500001N1+00901-00491102741ADDGF101991011011012501001001MA1999999102391MD1210211+9999REMSYN066AAXX  05111 14323 42684 10604 10090 21049 30239 40274 52021 81100;
0133143230999992000031007004+44980+014900FM-12+002699999V0200301N001012200019N0150001N1+01011+00771101871ADDGF101991011001012501031001MA1999999101531MD1210131+9999REMSYN066AAXX  10071 14323 42665 10301 10101 20077 30153 40187 52013 81030;
0133143230999992000031620004+44980+014900FM-12+002699999V0200801N005012200019N0300001N1+00601+00091102001ADDGF103991031041012501001001MA1999999101651MD1219999+9999REMSYN066AAXX  16201 14323 42680 30805 10060 20009 30165 40200 52/// 83400;
0149143230999992000040309004+44980+014900FM-12+002699999V0203201N002010120019N0350001N1+01261+00531100441ADDGF108991071051012501071999MA1999999100111MD1710291+9999REMSYN082AAXX  03091 14323 42681 83202 10126 20053 30011 40044 57029 8757/ 333 92322 92428;
0207143230999992000042206004+44980+014900FM-12+002699999V0209999C000012200019N0200001N1+01651+01211101681ADDAA124000891GA1001+999999999GF100991001001999999001001IA1019KA1999N+01621MA1999999101351MD1210141+9999REMSYN094AAXX  22061 14323 32970 00000 10165 20121 30135 40168 52014 333 20162 30/// 70008 92301 92418;
0216143230999992000042406004+44980+014900FM-12+002699999V0201101N001010360019N0200001N1+01731+01131100851ADDAA124000091GF106991011011012501071011IA1019KA1999N+01571MA1999999100521MD1010021+9999REMSYN100AAXX  24061 14323 32670 61101 10173 20113 30052 40085 50002 81171 333 20157 30/// 70000 92311 92418;EQDQ01  00002PRCP24
0133143230999992000061119004+44980+014900FM-12+002699999V0200301N001010120019N0250001N1+02661+01641101501ADDGF107991071051012501001001MA1999999101181MD1519999+9999REMSYN066AAXX  11191 14323 42675 70301 10266 20164 30118 40150 55/// 87500;
0143143230999992000061707004+44980+014890FM-12+002699999V0200601N006012200019N0300001N1+01951+00501102231ADDGA1001+999999999GF100991001001999999001001MA1999999101901MD1210161+9999REMSYN060AAXX  17071 14323 42980 00606 10195 20050 30190 40223 52016;
0171143230999992000062303004+44980+014890FM-12+002699999V0201101N001012200019N0250001N1+02101+01081101631ADDGA1001+999999999GF100991001001999999001001MA1999999101301MD1719999+9999MW1001REMSYN082AAXX  23031 14323 41975 01101 10210 20108 30130 40163 57/// 700// 333 92301 92418;
0161143230999992000072203004+44980+014890FM-12+002699999V0200601N003012200019N0300001N1+02021+00871101771ADDGF102991001001999999001021MA1999999101441MD1619999+9999MW1001REMSYN088AAXX  22031 14323 41980 20603 10202 20087 30144 40177 56/// 700// 80002 333 92312 92428;
0184143230999992000072212004+44980+014890FM-12+002699999V0201801N001012200019N0250001N1+02731+01121101651ADDAA124000091GF101991011021012501001001MA1999999101331MD1710071+9999REMSYN087AAXX  22121 14323 32675 11801 10273 20112 30133 40165 57007 81200 333 70000 92311 9248;EQDQ01  00002PRCP24
0133143230999992000082620004+44980+014890FM-12+002699999V0200601N008012200019N0400001N1+02341+00881101401ADDGF101991001001999999001011MA1999999101081MD1119999+9999REMSYN066AAXX  26201 14323 42982 10608 10234 20088 30108 40140 51/// 80001;
0133143230999992000082805004+44980+014890FM-12+002699999V0200601N009010120019N0250001N1+02041+00941101411ADDGF107991071051012501001001MA1999999101091MD1219999+9999REMSYN066AAXX  28051 14323 42675 70609 10204 20094 30109 40141 52/// 87500;
0133143230999992000091404004+44980+014890FM-12+002699999V0200301N001012200019N0200001N1+01861+01181101501ADDGF103991031001999999071001MA1999999101171MD1410001+9999REMSYN066AAXX  14041 14323 42970 30301 10186 20118 30117 40150 54/// 83070;
0149143230999992000091509004+44980+014890FM-12+002699999V0203501N001012200019N0180001N1+02331+01271101651ADDGF101991011001999999031001MA1999999101321MD1310021+9999REMSYN082AAXX  15091 14323 42968 13501 10233 20127 30132 40165 53002 81030 333 92311 92418;
0133143230999992000100420004+44980+014890FM-12+002699999V0201101N004012200019N0200001N1+01931+01301101621ADDGF101991011041012501001001MA1999999101301MD1019999+9999REMSYN066AAXX  04201 14323 42670 11104 10193 20130 30130 40162 50/// 81400;
0133143230999992000101205004+44980+014890FM-12+002699999V0201101N002010120019N0300001N1+01971+01161100541ADDGF106991061051012501001001MA1999999100221MD1519999+9999REMSYN066AAXX  12051 14323 42680 61102 10197 20116 30022 40054 55/// 86500;
0197143230999992000101718004+44980+014890FM-12+002699999V0200301N001012200019N0300001N1+01601+01151102251ADDAA112000191GF101991011001999999031001KA1999M+01891MA1999999101921MD1119999+9999MW1011REMSYN100AAXX  17181 14323 11980 10301 10160 20115 30192 40225 51/// 69922 701// 81030 333 10189 92311 92418;
0133143230999992000102511004+44980+014890FM-12+002699999V0203301N001010120019N0100001N1+01751+01261102261ADDGF107991071051012501001001MA1999999101931MD1810031+9999REMSYN066AAXX  25111 14323 42660 73301 10175 20126 30193 40226 58003 87500;
0133143230999992000102620004+44980+014890FM-12+002699999V0201701N003010120019N0100001N1+01821+01151101661ADDGF108991081051012501999999MA1999999101331MD1319999+9999REMSYN066AAXX  26201 14323 42660 81703 10182 20115 30133 40166 53/// 885//;
0161143230999992000111910004+44980+014890FM-12+002699999V0200801N006010120019N0120001N1+00841+00351100691ADDAY161999AY261999GF107991071051012501001001MA1999999100351MD1710141+9999MW1211REMSYN072AAXX  19101 14323 41662 70806 10084 20035 30035 40069 57014 72166 87500;
0216143230999992000121406004+44980+014890FM-12+002699999V0203601N001010120019N0200001N1+01321+01071101871ADDAA124000091GF108991081051012501999999IA1099KA1999N+01291MA1999999101531MD1710081+9999REMSYN100AAXX  14061 14323 32670 83601 10132 20107 30153 40187 57008 885// 333 20129 31/// 70000 92311 92418;EQDQ01  00002PRCP24
0133143230999992000121613004+44980+014890FM-12+002699999V0203001N001012200019N0500001N1+01221-00061101141ADDGF101991011011012501001001MA1999999100811MD1310051+9999REMSYN066AAXX  16131 14323 42684 13001 10122 21006 30081 40114 53005 81100;
0133143230999992000121720004+44980+014890FM-12+002699999V0200601N003012200019N0450001N1+00951+00341101531ADDGF103991031041012501001001MA1999999101191MD1219999+9999REMSYN066AAXX  17201 14323 42683 30603 10095 20034 30119 40153 52/// 83400;
0133143230999992000121807004+44980+014890FM-12+002699999V0200601N005012200019N0400001N1+00751+00091101831ADDGF101991011041012501001001MA1999999101481MD1210181+9999REMSYN066AAXX  18071 14323 42682 10605 10075 20009 30148 40183 52018 81400;
0161143230999992000123003004+44980+014890FM-12+002699999V0200601N004010120019N0080001N1+00671+00301099271ADDGF108991081061012501999999MA1999999098931MD1410001+9999MW1611REMSYN088AAXX  30031 14323 41658 80604 10067 20030 39893 49927 54/// 761// 886// 333 92322 92426;
0133143230999992000123107004+44980+014890FM-12+002699999V0200601N007010360019N0450001N1+00531-00161100881ADDGF108991031051012501071999MA1999999100541MD1210181+9999REMSYN066AAXX  31071 14323 42683 80607 10053 21016 30054 40088 52018 8357/;
0224143240999992000011612004+44820+014980FM-12+159499999V0200901N012010001519N0000001N1-01051-01151999999ADDAA124000091AY141061AY241061GA1091+999999999GF109991091999999999999999MA1999999084131MD1110031+9999ME1315129MW1491REMSYN080    AAXX  16121 14324 31/00 90912 11105 21115 38413 48512 51003 74944 333 70000;EQDQ01  00002PRCP24
0142143240999992000021513004+44820+014980FM-12+159499999V0202301N002019999999N0100001N1-00221-00251999999ADDGF105991021061999999071021MA1999999083941MD1610051+9999ME1314929REMSYN066AAXX  15131 14324 42/60 52302 11022 21025 38394 48492 56005 82672;
0142143240999992000022608004+44820+014980FM-12+159499999V0202701N001012200019N0200001N1-00111-00121999999ADDGF102991021001017501031001MA1999999084811MD1119999+9999ME1315779REMSYN066AAXX  26081 14324 42770 22701 11011 21012 38481 48577 51/// 82030;
0142143240999992000022610004+44820+014980FM-12+159499999V0202701N001012200019N0200001N1+00111+00111999999ADDGF102991021001017501031001MA1999999084861MD1210091+9999ME1315829REMSYN066AAXX  26101 14324 42770 22701 10011 20011 38486 48582 52009 82030;
0222143240999992000030118004+44820+014980FM-12+159499999V0201801N010010001519N0000001N1-00021-00021999999ADDAJ101259199999999GA1091+999999999GF109991091999999999999999IA1299KA1999M-00011MA1999999082991MD1619999+9999ME1314049MW1731REMSYN088AAXX  01181 14324 41/00 91810 11002 21002 38299 48404 56/// 773// 333 11001 49125 92828;
0152143240999992000031107004+44820+014980FM-12+159499999V0202001N004010900019N0200001N1+00201-00061999999ADDGF105991021061001501071021MA1999999084171MD1619999+9999ME1315169REMSYN076AAXX  11071 14324 42270 52004 10020 21006 38417 48516 56/// 82672 444 16100;
0170143240999992000040410004+44820+014980FM-12+159499999V0202301N006019999999N0150001N1+00261+00261999999ADDAY141999AY241999GF107991051081999999071001MA1999999082901MD1110071+9999ME1313959MW1281REMSYN072AAXX  04101 14324 41/65 72306 10026 20026 38290 48395 51007 72844 85870;
0197143240999992000040512004+44820+014980FM-12+159499999V0202901N006010001519N0001001N1+00181+00061999999ADDAA106003091AY141061AY221061GA1091+999999999GF109991091999999999999999MA1999999082631MD1110021+9999ME1313689MW1451REMSYN072AAXX  05121 14324 11/01 92906 10018 20006 38263 48368 51002 60031 74542;
0142143240999992000040905004+44820+014980FM-12+159499999V0201801N002010900019N0250001N1-00201-00401999999ADDGF106991021001017501051081MA1999999083901MD1819999+9999ME1314919REMSYN066AAXX  09051 14324 42775 61802 11020 21040 38390 48491 58/// 82058;
0142143240999992000040909004+44820+014980FM-12+159499999V0202301N003010360019N0300001N1+00131-00251999999ADDGF107991011011004501041081MA1999999083911MD1110031+9999ME1314929REMSYN066AAXX  09091 14324 42480 72303 10013 21025 38391 48492 51003 81148;
0152143240999992000042604004+44820+014980FM-12+159499999V0203201N002012200019N0250001N1+00541+00401999999ADDGA1001+999999999GF100991001001999999001001MA1999999083851MD1619999+9999ME1314869REMSYN060AAXX  26041 14324 42975 03202 10054 20040 38385 48486 56///;
0180143240999992000051910004+44820+014980FM-12+159499999V0202301N010010001519N0000001N1+00801+00801999999ADDAY161999AY241999GA1091+999999999GF109991091999999999999999MA1999999083501MD1610031+9999ME1314539MW1451REMSYN066AAXX  19101 14324 41/00 92310 10080 20080 38350 48453 56003 74564;
0201143240999992000052212004+44820+014980FM-12+159499999V0202701N009010001519N0000001N1+00681+00681999999ADDAA124002091AY141061AY241061GA1091+999999999GF109991091999999999999999MA1999999083801MD1310131+9999ME1314829MW1451REMSYN076AAXX  22121 14324 32/00 92709 10068 20068 38380 48482 53013 74544 333 70020;
0142143240999992000060804004+44820+014980FM-12+159499999V0200901N010012200019N0400001N1+00581+00181999999ADDGF101991001001999999001011MA1999999084411MD1619999+9999ME1315389REMSYN066AAXX  08041 14324 42982 10910 10058 20018 38441 48538 56/// 80001;
0152143240999992000060908004+44820+014980FM-12+159499999V0202701N001012200019N0300001N1+01621+00561999999ADDGA1001+999999999GF100991001001999999001001MA1999999084691MD1110071+9999ME1315659REMSYN060AAXX  09081 14324 42980 02701 10162 20056 38469 48565 51007;
0225143240999992000062706004+44820+014980FM-12+159499999V0200901N006010360019N0500001N1+00671+00411999999ADDAA124000091GF105991021041004501031001IA1099IA2999+00309KA1999N+00451MA1999999084411MD1119999+9999ME1315399REMSYN088AAXX  27061 14324 32484 50906 10067 20041 38441 48539 51/// 82430 333 20045 31003 70000;EQDQ01  00002PRCP24
0142143240999992000070313004+44820+014980FM-12+159499999V0202701N007012200019N0300001N1+02121+00741999999ADDGF102991001001999999001021MA1999999084501MD1410001+9999ME1315489REMSYN066AAXX  03131 14324 42980 22707 10212 20074 38450 48548 54000 80002;
0232143240999992000071806004+44820+014980FM-12+159499999V0201101N001019999999N0000001N1+00601+00381999999ADDAA112001091AY161061GF107991071051999999001001IA1099IA2999+00409KA1999N+00581MA1999999084221MD1619999+9999ME1315219MW1211REMSYN100AAXX  18061 14324 11/00 71101 10060 20038 38422 48521 56/// 60012 7216/ 87500 333 20058 31004 70011;
0142143240999992000080305004+44820+014980FM-12+159499999V0202701N003010150019N0400001N1+01421+00661999999ADDGF105991051001017501031001MA1999999084631MD1619999+9999ME1315609REMSYN066AAXX  03051 14324 42782 52703 10142 20066 38463 48560 56/// 85030;
0142143240999992000083109004+44820+014980FM-12+159499999V0202701N005010360019N0200001N1+01321+00561999999ADDGF106991031081004501071021MA1999999084011MD1410001+9999ME1315019REMSYN066AAXX  31091 14324 42470 62705 10132 20056 38401 48501 54000 83872;
0142143240999992000090605004+44820+014980FM-12+159499999V0200901N002012200019N0300001N1+00251-00121999999ADDGF104991031081004501071001MA1999999084231MD1619999+9999ME1315239REMSYN066AAXX  06051 14324 42480 40902 10025 21012 38423 48523 56/// 83870;
0142143240999992000091304004+44820+014980FM-12+159499999V0202701N002012200019N0300001N1+01051+00621999999ADDGF102991001001999999001021MA1999999084211MD1619999+9999ME1315209REMSYN066AAXX  13041 14324 42980 22702 10105 20062 38421 48520 56/// 80002;
0170143240999992000091910004+44820+014980FM-12+159499999V0202701N005019999999N0100001N1+01021+00981999999ADDAY121999AY241999GF106991061081999999001001MA1999999083841MD1110041+9999ME1314869MW1021REMSYN072AAXX  19101 14324 41/60 62705 10102 20098 38384 48486 51004 70224 86800;
0164143240999992000093020004+44820+014980FM-12+159499999V0201401N014010001519N0000001N1+01081+01081999999ADDGA1091+999999999GF109991091999999999999999MA1999999083621MD1119999+9999ME1314649MW1451REMSYN066AAXX  30201 14324 41/00 91414 10108 20108 38362 48464 51/// 745//;
0234143240999992000100206004+44820+014980FM-12+159499999V0202401N004010001519N0000001N1+00681+00681999999ADDAA112042991GA1091+999999999GF109991091999999999999999IA1099IA2999+00509KA1999N+00651MA1999999083611MD1119999+9999ME1314639MW1451REMSYN094AAXX  02061 14324 11/00 92404 10068 20068 38361 48463 51/// 60432 745// 333 20065 31005 70741;
0224143240999992000100306004+44820+014980FM-12+159499999V0201201N004019999999N0100001N1+00701+00661999999ADDAA112042991GF108991081081999999999999IA1099IA2999+00309KA1999N+00541MA1999999083611MD1119999+9999ME1314639MW1021REMSYN100AAXX  03061 14324 11/60 81204 10070 20066 38361 48463 51/// 60432 702// 888// 333 20054 31003 70443;
0152143240999992000101305004+44820+014980FM-12+159499999V0201801N005012200019N0200001N1+01131+00181999999ADDGA1001+999999999GF100991001001999999001001MA1999999084091MD1119999+9999ME1315099REMSYN060AAXX  13051 14324 42970 01805 10113 20018 38409 48509 51///;
0180143240999992000102707004+44820+014980FM-12+159499999V0202701N005010001519N0000001N1+00691+00691999999ADDAY161999AY241999GA1091+999999999GF109991091999999999999999MA1999999083991MD1410001+9999ME1315009MW1451REMSYN066AAXX  27071 14324 41/00 92705 10069 20069 38399 48500 54000 74564;
0180143240999992000102709004+44820+014980FM-12+159499999V0202701N004010001519N0000001N1+00611+00611999999ADDAY141031AY261031GA1091+999999999GF109991091999999999999999MA1999999084071MD1310081+9999ME1315079MW1601REMSYN066AAXX  27091 14324 41/00 92704 10061 20061 38407 48507 53008 76046;
0180143240999992000103009004+44820+014980FM-12+159499999V0202701N004010001519N0000001N1+00651+00651999999ADDAY141031AY241031GA1091+999999999GF109991091999999999999999MA1999999084291MD1410001+9999ME1315289MW1451REMSYN066AAXX  30091 14324 41/00 92704 10065 20065 38429 48528 54000 74544;
0217143240999992000112718004+44820+014980FM-12+159499999V0200901N006012200019N0300001N1-00361-00481999999ADDAA112000191AJ100369199999999GF102991001001999999001021IA1299KA1999M-00091MA1999999083871MD1119999+9999ME1314889REMSYN094AAXX  27181 14324 12980 20906 11036 21048 38387 48488 51/// 69922 80002 333 11009 49036 92805;
0142143240999992000120509004+44820+014980FM-12+159499999V0202701N001012200019N0300001N1+00401-00021999999ADDGF101991001001999999001011MA1999999084381MD1410001+9999ME1315389REMSYN066AAXX  05091 14324 42980 12701 10040 21002 38438 48538 54000 80001;
0142143240999992000120608004+44820+014980FM-12+159499999V0201801N004012200019N0250001N1+00411-00131999999ADDGF101991001001999999001021MA1999999084391MD1119999+9999ME1315389REMSYN066AAXX  06081 14324 42975 11804 10041 21013 38439 48538 51/// 80002;
0180143240999992000120711004+44820+014980FM-12+159499999V0202901N007010001519N0000001N1+00301+00301999999ADDAY141999AY241999GA1091+999999999GF109991091999999999999999MA1999999084341MD1810041+9999ME1315359MW1451REMSYN066AAXX  07111 14324 41/00 92907 10030 20030 38434 48535 58004 74544;
0142143240999992000123020004+44820+014980FM-12+159499999V0201101N003012200019N0300001N1-00601-00661999999ADDGF102991001001999999001021MA1999999082581MD1219999+9999ME1313649REMSYN066AAXX  30201 14324 42980 21103 11060 21066 38258 48364 52/// 80002;
0143143280999992000012710004+45270+015230FM-12+032899999V0202901N002012200019N0300001N1-00151-01051103121ADDGA1001+999999999GF100991001001999999001001MA1999999098971MD1010011+9999REMSYN060AAXX  27101 14328 42980 02902 11015 21105 39897 40312 50001;
0143143280999992000020108004+45270+015230FM-12+032899999V0209999C000012200019N0150001N1+00331+00311103111ADDGA1001+999999999GF100991001001999999001001MA1999999099041MD1210101+9999REMSYN060AAXX  01081 14328 42965 00000 10033 20031 39904 40311 52010;
0133143280999992000020119004+45270+015230FM-12+032899999V0202201N004012200019N0150001N1+01071+00661102511ADDGF104991041051012501001001MA1999999098571MD1810021+9999REMSYN066AAXX  01191 14328 42665 42204 10107 20066 39857 40251 58002 84500;
0196143280999992000020418004+45270+015230FM-12+032899999V0209999C000012200019N0100001N1+00061-00351103891ADDAA199000091GA1001+999999999GF100991001001999999001001KA1999M+00801MA1999999099751MD1319999+9999REMSYN070AAXX  04181 14328 32960 00000 10006 21035 39975 40389 53/// 333 10080;EQDQ01  00002PRCP99
0196143280999992000020518004+45270+015230FM-12+032899999V0202601N002012200019N0300001N1+01171-00391103111ADDAA199000091GA1001+999999999GF100991001001999999001001KA1999M+01651MA1999999099151MD1319999+9999REMSYN070AAXX  05181 14328 32980 02602 10117 21039 39915 40311 53/// 333 10165;EQDQ01  00002PRCP99
0201143280999992000020612004+45270+015230FM-12+032899999V0203101N001012200019N0080001N1+02061+00171102661ADDAA199000091AY101061AY201061GA1001+999999999GF100991001001999999001001MA1999999098841MD1810151+9999MW1051REMSYN066AAXX  06121 14328 31958 03101 10206 20017 39884 40266 58015 70500;EQDQ01  00002PRCP99
0145143280999992000022103004+45270+015230FM-12+032899999V0200801N002010042019N0060001N1+00071-00031102451ADDGF108991081051004501999999MA1999999098371MD1219999+9999MW1101REMSYN072AAXX  21031 14328 41456 80802 10007 21003 39837 40245 52/// 710// 885//;
0133143280999992000022309004+45270+015230FM-12+032899999V0203101N001019999999N0100001N1-00101-00471102861ADDGF107991001001999999001061MA1999999098731MD1110041+9999REMSYN066AAXX  23091 14328 42960 73101 11010 21047 39873 40286 51004 80006;
0145143280999992000022703004+45270+015230FM-12+032899999V0202701N001010120019N0080001N1+00291+00171103271ADDGF106991061051012501001001MA1999999099191MD1410001+9999MW1101REMSYN072AAXX  27031 14328 41658 62701 10029 20017 39919 40327 54/// 710// 86500;
0238143280999992000022706004+45270+015230FM-12+032899999V0209999C000012200019N0060001N1-00061-00111103311ADDAA199000091AY101061AY201061GF101991001001999999001021IA1149IA2999-00409KA1999N-00081MA1999999099171MD1810021+9999MW1101REMSYN088AAXX  27061 14328 31956 10000 11006 21011 39917 40331 58002 71000 80002 333 21008 34104;EQDQ01  00002PRCP99
0133143280999992000030513004+45270+015230FM-12+032899999V0203501N003012200019N0500001N1+00641-00831102751ADDGF102991021081008001001001MA1999999098741MD1810061+9999REMSYN066AAXX  05131 14328 42584 23503 10064 21083 39874 40275 58006 82800;
0145143280999992000040204004+45270+015230FM-12+032899999V0203201N001010075019N0080001N1+00441+00401101021ADDGF107991071051008001001001MA1999999097051MD1119999+9999MW1101REMSYN072AAXX  02041 14328 41558 73201 10044 20040 39705 40102 51/// 710// 87500;
0133143280999992000041703004+45270+015230FM-12+032899999V0202901N001010360019N0200001N1+00881+00771100771ADDGF107991021051012501031001MA1999999096871MD1619999+9999REMSYN066AAXX  17031 14328 42670 72901 10088 20077 39687 40077 56/// 82530;
0133143280999992000042719004+45270+015230FM-12+032899999V0209999C000010900019N0100001N1+01741+01431101431ADDGF106991041051012501001021MA1999999097631MD1319999+9999REMSYN066AAXX  27191 14328 42660 60000 10174 20143 39763 40143 53/// 84502;
0133143280999992000043003004+45270+015230FM-12+032899999V0202901N003019999999N0100001N1+01021+01011101941ADDGF107991061051999999041001MA1999999098021MD1519999+9999REMSYN066AAXX  30031 14328 42960 72903 10102 20101 39802 40194 55/// 86540;
0133143280999992000051011004+45270+015230FM-12+032899999V0202001N004012200019N0150001N1+02501+01061101721ADDGF101991011021012501001001MA1999999098001MD1710081+9999REMSYN066AAXX  10111 14328 42665 12004 10250 20106 39800 40172 57008 81200;
0133143280999992000051908004+45270+015230FM-12+032899999V0202601N003010120019N0150001N1+01741+01551100741ADDGF106991061081008001001001MA1999999096961MD1010011+9999REMSYN066AAXX  19081 14328 42565 62603 10174 20155 39696 40074 50001 86800;
0133143280999992000052007004+45270+015230FM-12+032899999V0200201N002010021019N0100001N1+01111+01091101031ADDGF108991061051002501071999MA1999999097151MD1510051+9999REMSYN066AAXX  20071 14328 42360 80202 10111 20109 39715 40103 55005 8657/;
0145143280999992000052519004+45270+015230FM-12+032899999V0203101N001012200019N0300001N1+02041+00831101571ADDGF102991001001999999001021MA1999999097791MD1319999+9999MW1021REMSYN072AAXX  25191 14328 41980 23101 10204 20083 39779 40157 53/// 702// 80002;
0143143280999992000052620004+45270+015230FM-12+032899999V0202901N001012200019N0200001N1+01861+01001101711ADDGA1001+999999999GF100991001001999999001001MA1999999097911MD1219999+9999REMSYN060AAXX  26201 14328 42970 02901 10186 20100 39791 40171 52///;
0133143280999992000061211004+45270+015230FM-12+032899999V0200201N002012200019N0100001N1+03021+01641101941ADDGF102991021021012501001001MA1999999098281MD1110021+9999REMSYN066AAXX  12111 14328 42660 20202 10302 20164 39828 40194 51002 82200;
0145143280999992000070505004+45260+015230FM-12+032899999V0209999C000012200019N0100001N1+02191+02061101091ADDGF101991011021008001001001MA1999999097371MD1219999+9999MW1021REMSYN072AAXX  05051 14328 41560 10000 10219 20206 39737 40109 52/// 702// 81200;
0133143280999992000070809004+45260+015230FM-12+032899999V0201101N002012200019N0300001N1+02471+01741100481ADDGF101991011021008001001001MA1999999096811MD1710051+9999REMSYN066AAXX  08091 14328 42580 11102 10247 20174 39681 40048 57005 81200;
0161143280999992000071109004+45260+015230FM-12+032899999V0202201N005010120019N0150001N1+02101+01911099891ADDAY191031AY281031GF107991071081008001001001MA1999999096201MD1810041+9999MW1611REMSYN072AAXX  11091 14328 41565 72205 10210 20191 39620 49989 58004 76198 87800;
0186143280999992000072318004+45260+015230FM-12+032899999V0202001N002010900019N0150001N1+02341+01181101421ADDAA199000091GF106991021021012501001031KA1999M+02631MA1999999097691MD1519999+9999REMSYN076AAXX  23181 14328 32665 62002 10234 20118 39769 40142 55/// 82203 333 10263;EQDQ01  00002PRCP99
0133143280999992000072404004+45260+015230FM-12+032899999V0202201N003010120019N0200001N1+02141+00981101451ADDGF106991061081008001001001MA1999999097691MD1319999+9999REMSYN066AAXX  24041 14328 42570 62203 10214 20098 39769 40145 53/// 86800;
0145143280999992000080619004+45260+015230FM-12+032899999V0203501N002012200019N0300001N1+02031+00861101511ADDGF101991011021012501041021MA1999999097741MD1319999+9999MW1021REMSYN072AAXX  06191 14328 41680 13502 10203 20086 39774 40151 53/// 702// 81242;
0133143280999992000080809004+45260+015230FM-12+032899999V0200901N002010075019N0150001N1+02141+01241102061ADDGF106991061021008001001001MA1999999098281MD1110011+9999REMSYN066AAXX  08091 14328 42565 60902 10214 20124 39828 40206 51001 86200;
0133143280999992000080811004+45260+015230FM-12+032899999V0200901N002012200019N0100001N1+02311+01331102051ADDGF104991041081008001001001MA1999999098291MD1010011+9999REMSYN066AAXX  08111 14328 42560 40902 10231 20133 39829 40205 50001 84800;
0133143280999992000081811004+45260+015230FM-12+032899999V0200401N001012200019N0100001N1+03211+01501101571ADDGF101991011021008001001001MA1999999097941MD1810021+9999REMSYN066AAXX  18111 14328 42560 10401 10321 20150 39794 40157 58002 81200;
0155143280999992000083004004+45260+015230FM-12+032899999V0202901N001012200019N0200001N1+01051+00961101971ADDGA1001+999999999GF100991001001999999001001MA1999999098051MD1819999+9999MW1021REMSYN066AAXX  30041 14328 41970 02901 10105 20096 39805 40197 58/// 702//;
0155143280999992000083005004+45260+015230FM-12+032899999V0202701N001012200019N0200001N1+01041+00951101961ADDGA1001+999999999GF100991001001999999001001MA1999999098041MD1619999+9999MW1021REMSYN066AAXX  30051 14328 41970 02701 10104 20095 39804 40196 56/// 702//;
0153143280999992000090813004+45260+015230FM-12+032899999V0200201N002010120019N0080001N1+01601+00951102301ADDAY121999GF108991051081008001071999MA1999999098441MD1610021+9999MW1101REMSYN072AAXX  08131 14328 41558 80202 10160 20095 39844 40230 56002 7102/ 8587/;
0145143280999992000091419004+45260+015230FM-12+032899999V0203201N002012200019N0080001N1+01991+01321101601ADDGF101991001001999999001021MA1999999097831MD1219999+9999MW1101REMSYN072AAXX  14191 14328 41958 13202 10199 20132 39783 40160 52/// 710// 80002;
0153143280999992000092509004+45260+015230FM-12+032899999V0209999C000010120019N0080001N1+01421+01011102471ADDAY121031GF107991071081008001001001MA1999999098591MD1210091+9999MW1101REMSYN072AAXX  25091 14328 41558 70000 10142 20101 39859 40247 52009 7102/ 87800;
0133143280999992000092913004+45260+015230FM-12+032899999V0202601N003012200019N0150001N1+02301+00681101141ADDGF104991011011017501041021MA1999999097411MD1610101+9999REMSYN066AAXX  29131 14328 42765 42603 10230 20068 39741 40114 56010 81142;
0153143280999992000101004004+45260+015230FM-12+032899999V0201501N001010042019N0040001N1+00861+00761100881ADDAY121999GF108991081051004501999999MA1999999096971MD1719999+9999MW1101REMSYN072AAXX  10041 14328 41440 81501 10086 20076 39697 40088 57/// 7102/ 885//;
0133143280999992000101207004+45260+015230FM-12+032899999V0201501N002010075019N0400001N1+01731+01061100731ADDGF106991051051008001071011MA1999999096951MD1210181+9999REMSYN066AAXX  12071 14328 42582 61502 10173 20106 39695 40073 52018 85571;
0170143280999992000102012004+45260+015230FM-12+032899999V0200401N001010042019N0010001N1+01011+00931102851ADDAA106000591AY151061GF108991081061004501999999MA1999999098891MD1810011+9999MW1501REMSYN078AAXX  20121 14328 11410 80401 10101 20093 39889 40285 58001 69961 7505/ 886//;
0153143280999992000102013004+45260+015230FM-12+032899999V0203501N001010042019N0010001N1+01001+00921102841ADDAY151999GF108991081061004501999999MA1999999098881MD1810041+9999MW1501REMSYN072AAXX  20131 14328 41410 83501 10100 20092 39888 40284 58004 7505/ 886//;
0145143280999992000102719004+45260+015230FM-12+032899999V0202901N001010042019N0040001N1+00821+00761102431ADDGF108991081051004501999999MA1999999098461MD1219999+9999MW1101REMSYN072AAXX  27191 14328 41440 82901 10082 20076 39846 40243 52/// 710// 885//;
0133143280999992000120811004+45260+015230FM-12+032899999V0202201N005010120019N0400001N1+01521+00591101811ADDGF107991051081008001041021MA1999999097951MD1810041+9999REMSYN066AAXX  08111 14328 42582 72205 10152 20059 39795 40181 58004 85842;
0133143280999992000121204004+45260+015230FM-12+032899999V0201901N001019999999N0300001N1+00651+00211102821ADDGF107991071001999999071001MA1999999098821MD1619999+9999REMSYN066AAXX  12041 14328 42980 71901 10065 20021 39882 40282 56/// 87070;
0153143280999992000122208004+45260+015230FM-12+032899999V0200401N002010075019N0060001N1-00471-01021103131ADDAY171999GF108991081051008001999999MA1999999098921MD1310051+9999MW1711REMSYN072AAXX  22081 14328 41556 80402 11047 21102 39892 40313 53005 7717/ 885//;
0161143280999992000122810004+45260+015230FM-12+032899999V0200701N001010042019N0008001N1+00571+00551099441ADDAY161999AY241999GF108991081071004501999999MA1999999095551MD1210211+9999MW1421REMSYN072AAXX  28101 14328 41408 80701 10057 20055 39555 49944 52021 74264 887//;
0153143280999992000122908004+45260+015230FM-12+032899999V0203301N001010042019N0040001N1+00481+00441099991ADDAY161999GF108991081051004501999999MA1999999096071MD1510021+9999MW1211REMSYN072AAXX  29081 14328 41440 83301 10048 20044 39607 49999 55002 7216/ 885//;
0137143300999992000011608004+44550+015370FM-12+056599999V0203601N001012200019N0100001N1-00381-00741103101ADDGF104991021051008001031011MA1999999096021MD1210081+9999REMSYN070    AAXX  16081 14330 42560 43601 11038 21074 39602 40310 52008 82531;
0188143300999992000012912004+44550+015370FM-12+056599999V0201101N001010075019N0100001N1+00231+00111101931ADDAA106005191AY161061AY261061GF108991081051008001999999MA1999999095091MD1710181+9999MW1601REMSYN088AAXX  29121 14330 11560 81101 10023 20011 39509 40193 57018 60051 76066 885// 333 70056;
0103143300999992000020811004+44550+015370FM-12+056599999V0201401N002019999999N0100001N1+00601+99999999999ADDGF107991999999008001999999REMSYN065AAXX  08111 14330 42560 71402 10060 0022 39541 40219 51001 87500;
0133143300999992000020820004+44550+015370FM-12+056599999V0202301N002010075019N0100001N1+00601+00271101861ADDGF106991061051008001001001MA1999999095121MD1619999+9999REMSYN066AAXX  08201 14330 42560 62302 10060 20027 39512 40186 56/// 86500;
0133143300999992000021314004+44550+015370FM-12+056599999V0202001N001012200019N0200001N1+00811-00241102091ADDGF104991021021012501031011MA1999999095361MD1710201+9999REMSYN066AAXX  13141 14330 42670 42001 10081 21024 39536 40209 57020 82231;
0133143300999992000022213004+44550+015370FM-12+056599999V0200301N005012200019N0300001N1+00111-01081102631ADDGF102991021021012501001001MA1999999095701MD1710151+9999REMSYN066AAXX  22131 14330 42680 20305 10011 21108 39570 40263 57015 82200;
0133143300999992000022611004+44550+015370FM-12+056599999V0202301N002010075019N0100001N1+00811+00011103211ADDGF105991051051008001001001MA1999999096431MD1110061+9999REMSYN066AAXX  26111 14330 42560 52302 10081 20001 39643 40321 51006 85500;
0161143300999992000030209004+44550+015370FM-12+056599999V0203201N001010075019N0100001N1+00221+00031101391ADDAY161031AY261031GF108991081051008001999999MA1999999094591MD1210561+9999MW1611REMSYN072AAXX  02091 14330 41560 83201 10022 20003 39459 40139 52056 76166 885//;
0133143300999992000030211004+44550+015370FM-12+056599999V0200201N001010120019N0200001N1+00421+00021101501ADDGF107991071051012501001001MA1999999094741MD1210351+9999REMSYN066AAXX  02111 14330 42670 70201 10042 20002 39474 40150 52035 87500;
0186143300999992000030718004+44550+015370FM-12+056599999V0202401N003012200019N0200001N1+00581-00331102781ADDAA199000091GF101991011011012501001001KA1999M+01021MA1999999095961MD1410001+9999REMSYN076AAXX  07181 14330 32670 12403 10058 21033 39596 40278 54000 81100 333 10102;EQDQ01  00002PRCP99
0133143300999992000032205004+44550+015370FM-12+056599999V0202401N001012200019N0200001N1-00471-00621102471ADDGF101991001001999999001021MA1999999095431MD1210101+9999REMSYN066AAXX  22051 14330 42970 12401 11047 21062 39543 40247 52010 80002;
0133143300999992000032314004+44550+015370FM-12+056599999V0202401N005012200019N0200001N1+01561-00451101581ADDGF101991001001999999001011MA1999999095061MD1710161+9999REMSYN066AAXX  23141 14330 42970 12405 10156 21045 39506 40158 57016 80001;
0178143300999992000032800004+44550+015370FM-12+056599999V0201401N003010075019N0100001N1+00381+00151101041ADDAA106008991AY161061AY261061GF108991081051008001999999MA1999999094311MD1110051+9999MW1601REMSYN078AAXX  28001 14330 11560 81403 10038 20015 39431 40104 51005 60091 76066 885//;
0161143300999992000032909004+44550+015370FM-12+056599999V0201201N007010075019N0100001N1+01081+00471100951ADDAY161031AY261031GF108991081051008001999999MA1999999094381MD1810081+9999MW1611REMSYN072AAXX  29091 14330 41560 81207 10108 20047 39438 40095 58008 76166 885//;
0133143300999992000033014004+44550+015370FM-12+056599999V0202301N004010150019N0200001N1+01041-00151101341ADDGF105991051081012501001001MA1999999094711MD1110071+9999REMSYN066AAXX  30141 14330 42670 52304 10104 21015 39471 40134 51007 85800;
0137143300999992000040810004+44550+015370FM-12+056599999V0200401N002012200019N0300001N1+01001-00311102181ADDGF104991041081012501001001MD1710201+9999REMSYN066AAXX  08101 14330 42680 40402 10100 21031 39651 40218 57020 84800;EQDQ01+096513APOSP 
0161143300999992000041107004+44550+015370FM-12+056599999V0201401N001010075019N0100001N1+00611+00511100461ADDAY161999AY261999GF108991081051008001999999MA1999999093821MD1410001+9999MW1601REMSYN072AAXX  11071 14330 41560 81401 10061 20051 39382 40046 54000 76066 885//;
0133143300999992000041520004+44550+015370FM-12+056599999V0200401N001012200019N0100001N1+01341+00471100691ADDGF103991031001999999071001MA1999999094191MD1519999+9999REMSYN066AAXX  15201 14330 42960 30401 10134 20047 39419 40069 55/// 83070;
0133143300999992000042709004+44550+015370FM-12+056599999V0202301N001012200019N0300001N1+01861+00771101611ADDGF102991021021012501001001MA1999999095171MD1210071+9999REMSYN066AAXX  27091 14330 42680 22301 10186 20077 39517 40161 52007 82200;
0133143300999992000042720004+44550+015370FM-12+056599999V0202201N001010360019N0100001N1+01541+00741101451ADDGF106991021051012501071001MA1999999094941MD1410001+9999REMSYN066AAXX  27201 14330 42660 62201 10154 20074 39494 40145 54/// 82570;
0244143300999992000050406004+44550+015370FM-12+056599999V0200401N001012200019N0050001N1+00711+00611102131ADDAA124000091AY111061AY201061GF101991011011012501001001IA1099IA2999+00309KA1999N+00491MA1999999095401MD1310041+9999MW1101REMSYN094AAXX  04061 14330 31650 10401 10071 20061 39540 40213 53004 71010 81100 333 20049 31003 70000;EQDQ01  00002PRCP24
0133143300999992000050415004+44550+015370FM-12+056599999V0200301N002010120019N0200001N1+02161+00741101551ADDGF105991051021012501001001MA1999999095181MD1710081+9999REMSYN066AAXX  04151 14330 42670 50302 10216 20074 39518 40155 57008 85200;
0186143300999992000051418004+44550+015370FM-12+056599999V0200101N002012200019N0300001N1+01681+00551102071ADDAA199000091GF103991011001999999031011KA1999M+02101MA1999999095561MD1310041+9999REMSYN076AAXX  14181 14330 32980 30102 10168 20055 39556 40207 53004 81031 333 10210;EQDQ01  00002PRCP99
0133143300999992000051507004+44550+015370FM-12+056599999V0200401N001012200019N0500001N1+01421+00541102291ADDGF101991011001999999031001MA1999999095711MD1310031+9999REMSYN066AAXX  15071 14330 42984 10401 10142 20054 39571 40229 53003 81030;
0133143300999992000051909004+44550+015370FM-12+056599999V0202301N004012200019N0200001N1+02041+00961100831ADDGF104991041081012501001001MA1999999094461MD1210061+9999REMSYN066AAXX  19091 14330 42670 42304 10204 20096 39446 40083 52006 84800;
0154143300999992000052012004+44550+015370FM-12+056599999V0202201N002010150019N0200001N1+02041+00901100531ADDAA124001091GF107991071081012501001001MA1999999094181MD1710101+9999REMSYN076AAXX  20121 14330 32670 72202 10204 20090 39418 40053 57010 87800 333 70009;
0216143300999992000052106004+44550+015370FM-12+056599999V0200201N001012200019N0500001N1+00891+00501101521ADDAA124000091GF103991031001999999031001IA1019IA2999+00109KA1999N+00561MA1999999094871MD1310031+9999REMSYN088AAXX  21061 14330 32984 30201 10089 20050 39487 40152 53003 83030 333 20056 30001 70000;EQDQ01  00002PRCP24
0145143300999992000052809004+44550+015370FM-12+056599999V0201401N001012200019N0300001N1+02201+00961101411ADDGF102991011001999999031021MA1999999095051MD1310021+9999MW1021REMSYN072AAXX  28091 14330 41980 21401 10220 20096 39505 40141 53002 702// 81032;
0145143300999992000060813004+44550+015370FM-12+056599999V0203601N002012200019N0300001N1+02481+00781101751ADDGF103991001001999999001021MA1999999095431MD1710141+9999MW1031REMSYN072AAXX  08131 14330 41980 33602 10248 20078 39543 40175 57014 703// 80002;
0143143300999992000060907004+44550+015370FM-12+056599999V0202101N001012200019N0250001N1+01711+01031102091ADDGA1001+999999999GF100991001001999999001001MA1999999095581MD1110091+9999REMSYN060AAXX  09071 14330 42975 02101 10171 20103 39558 40209 51009;
0173143300999992000062012004+44550+015370FM-12+056599999V0202801N001012200019N0400001N1+02881+00861101711ADDAA124000091GF101991011011012501001001MA1999999095471MD1710111+9999REMSYN076AAXX  20121 14330 32682 12801 10288 20086 39547 40171 57011 81100 333 70000;EQDQ01  00002PRCP24
0145143300999992000062421004+44550+015370FM-12+056599999V0201901N001010360019N0100001N1+01891+01281101091ADDGF105991031081012501071001MA1999999094711MD1410001+9999MW1031REMSYN072AAXX  24211 14330 41660 51901 10189 20128 39471 40109 54000 703// 83870;
0186143300999992000062518004+44550+015370FM-12+056599999V0203401N003010075019N0100001N1+01261+00811101631ADDAA199000091GF108991081051008001999999KA1999M+02131MA1999999095061MD1210141+9999REMSYN076AAXX  25181 14330 32560 83403 10126 20081 39506 40163 52014 885// 333 10213;EQDQ01  00002PRCP99
0143143300999992000062703004+44550+015370FM-12+056599999V0202901N001012200019N0200001N1+00701+00491102161ADDGA1001+999999999GF100991001001999999001001MA1999999095431MD1410001+9999REMSYN060AAXX  27031 14330 42970 02901 10070 20049 39543 40216 54000;
0133143300999992000062819004+44550+015370FM-12+056599999V0202801N001010120019N0200001N1+02011+00721101141ADDGF106991061051012501001001MA1999999094751MD1519999+9999REMSYN066AAXX  28191 14330 42670 62801 10201 20072 39475 40114 55/// 86500;
0145143300999992000070103004+44550+015370FM-12+056599999V0200901N001010120019N0200001N1+01071+00791101621ADDGF107991071051012501001001MA1999999095011MD1810061+9999MW1031REMSYN072AAXX  01031 14330 41670 70901 10107 20079 39501 40162 58006 703// 87500;
0143143300999992000070610004+44550+015370FM-12+056599999V0201801N002012200019N0300001N1+02671+01011101601ADDGA1001+999999999GF100991001001999999001001MA1999999095331MD1710131+9999REMSYN060AAXX  06101 14330 42980 01802 10267 20101 39533 40160 57013;
0145143300999992000070909004+44550+015370FM-12+056599999V0203601N002010075019N0100001N1+01161+00741101361ADDGF108991081051008001999999MA1999999094791MD1210281+9999MW1021REMSYN072AAXX  09091 14330 41560 83602 10116 20074 39479 40136 52028 702// 885//;
0143143300999992000072103004+44550+015370FM-12+056599999V0202901N001012200019N0200001N1+00821+00681102091ADDGA1001+999999999GF100991001001999999001001MA1999999095381MD1410001+9999REMSYN060AAXX  21031 14330 42970 02901 10082 20068 39538 40209 54000;
0198143300999992000072118004+44550+015370FM-12+056599999V0203601N001012200019N0200001N1+01841+00401101781ADDAA199000091GF102991021001999999041001KA1999M+02201MA1999999095321MD1410001+9999MW1011REMSYN082AAXX  21181 14330 31970 23601 10184 20040 39532 40178 54000 701// 82040 333 10220;EQDQ01  00002PRCP99
0133143300999992000072615004+44550+015370FM-12+056599999V0202401N002012200019N0300001N1+02721+01061100991ADDGF101991011011012501001001MA1999999094781MD1410001+9999REMSYN066AAXX  26151 14330 42680 12402 10272 20106 39478 40099 54000 81100;
0133143300999992000080320004+44550+015370FM-12+056599999V0201201N001012200019N0200001N1+02011+01031101751ADDGF102991021001999999031001MA1999999095331MD1519999+9999REMSYN066AAXX  03201 14330 42970 21201 10201 20103 39533 40175 55/// 82030;
0133143300999992000081813004+44550+015370FM-12+056599999V0203401N001012200019N0200001N1+03461+00391101251ADDGF102991021011012501001001MA1999999095181MD1710131+9999REMSYN066AAXX  18131 14330 42670 23401 10346 20039 39518 40125 57013 82100;
0173143300999992000082200004+44550+015370FM-12+056599999V0203201N001012200019N0100001N1+01541+00951101571ADDAA199000091GA1001+999999999GF100991001001999999001001MA1999999095101MD1410001+9999REMSYN060AAXX  22001 14330 32960 03201 10154 20095 39510 40157 54000;EQDQ01  00002PRCP99
0143143300999992000083007004+44550+015370FM-12+056599999V0202201N001012200019N0300001N1+01261+00921101831ADDGA1001+999999999GF100991001001999999001001MA1999999095281MD1610021+9999REMSYN060AAXX  30071 14330 42980 02201 10126 20092 39528 40183 56002;
0133143300999992000090515004+44550+015370FM-12+056599999V0200301N004010150019N0300001N1+01621+00171101671ADDGF106991061081012501001001MA1999999095201MD1510011+9999REMSYN066AAXX  05151 14330 42680 60304 10162 20017 39520 40167 55001 86800;
0154143300999992000092212004+44550+015370FM-12+056599999V0203601N004010120019N0200001N1+01571+00711101901ADDAA124005691GF106991061051012501001001MA1999999095411MD1210051+9999REMSYN076AAXX  22121 14330 32670 63604 10157 20071 39541 40190 52005 86500 333 70056;
0133143300999992000093011004+44550+015370FM-12+056599999V0201401N003010120019N0100001N1+01961+01371101061ADDGF106991061081008001001001MA1999999094721MD1110011+9999REMSYN066AAXX  30111 14330 42560 61403 10196 20137 39472 40106 51001 86800;
0153143300999992000093019004+44550+015370FM-12+056599999V0201401N006010075019N0100001N1+01641+01461100971ADDAY161999GF108991081051008001999999MA1999999094571MD1719999+9999MW1601REMSYN072AAXX  30191 14330 41560 81406 10164 20146 39457 40097 57/// 7606/ 885//;
0198143300999992000100518004+44550+015370FM-12+056599999V0201401N001012200019N0100001N1+01301+01021101511ADDAA199000091GF104991041081012501001001KA1999M+01991MA1999999094991MD1210151+9999MW1011REMSYN082AAXX  05181 14330 31660 41401 10130 20102 39499 40151 52015 701// 84800 333 10199;EQDQ01  00002PRCP99
0223143300999992000101106004+44550+015370FM-12+056599999V0202201N002010120019N0100001N1+01451+00741100221ADDAA112007991AY161061GF107991061081008001001021IA1119IA2999+01109KA1999N+01241MA1999999093811MD1310051+9999MW1211REMSYN100AAXX  11061 14330 11560 72202 10145 20074 39381 40022 53005 60082 7216/ 86802 333 20124 32011 70076;
0133143300999992000101319004+44550+015370FM-12+056599999V0201801N001012200019N0100001N1+01801+00961101551ADDGF102991011001999999031021MA1999999095141MD1219999+9999REMSYN066AAXX  13191 14330 42960 21801 10180 20096 39514 40155 52/// 81032;
0153143300999992000102508004+44550+015370FM-12+056599999V0203201N001012200019N0050001N1+00311+00151102501ADDAY141999GF103991021081012501071001MA1999999095681MD1110041+9999MW1101REMSYN072AAXX  25081 14330 41650 33201 10031 20015 39568 40250 51004 7104/ 82870;
0133143300999992000110114004+44550+015370FM-12+056599999V0202301N003012200019N0200001N1+01581+00531101001ADDGF102991021011012501001001MA1999999094571MD1210041+9999REMSYN066AAXX  01141 14330 42670 22303 10158 20053 39457 40100 52004 82100;
0145143300999992000110115004+44550+015370FM-12+056599999V0202801N003010150019N0200001N1+01381+00521101101ADDGF105991051081012501001001MA1999999094621MD1210091+9999MW1031REMSYN072AAXX  01151 14330 41670 52803 10138 20052 39462 40110 52009 703// 85800;
0133143300999992000110310004+44550+015370FM-12+056599999V0201501N006010120019N0100001N1+01461+00391101021ADDGF106991061081008001001001MA1999999094561MD1310031+9999REMSYN066AAXX  03101 14330 42560 61506 10146 20039 39456 40102 53003 86800;
0201143300999992000110718004+44550+015370FM-12+056599999V0202301N003010120019N0100001N1+00941+00261100021ADDAA112011991AY191061AY261061GF105991051081008001001001KA1999M+01501MA1999999093511MD1210221+9999MW1011REMSYN088AAXX  07181 14330 11560 52303 10094 20026 39351 40002 52022 60122 70196 85800 333 10150;
0153143300999992000110905004+44550+015370FM-12+056599999V0202801N001010075019N0100001N1+00881+00251101281ADDAY161999GF107991071051008001001001MA1999999094671MD1210141+9999MW1211REMSYN072AAXX  09051 14330 41560 72801 10088 20025 39467 40128 52014 7216/ 87500;
0153143300999992000111109004+44550+015370FM-12+056599999V0200601N001010075019N0007001N1+00341+00211102951ADDAY141031GF108991081061008001999999MA1999999096111MD1210171+9999MW1461REMSYN072AAXX  11091 14330 41507 80601 10034 20021 39611 40295 52017 7464/ 886//;
0153143300999992000112013004+44550+015370FM-12+056599999V0201501N001010075019N0100001N1+00991+00631101131ADDAY161999GF108991081051008001999999MA1999999094571MD1610061+9999MW1631REMSYN072AAXX  20131 14330 41560 81501 10099 20063 39457 40113 56006 7636/ 885//;
0133143300999992000112415004+44550+015370FM-12+056599999V0201501N003010150019N0200001N1+01381+00201100881ADDGF107991061081012501071001MA1999999094411MD1710071+9999REMSYN066AAXX  24151 14330 42670 71503 10138 20020 39441 40088 57007 86870;
0145143300999992000112813004+44550+015370FM-12+056599999V0202101N002012200019N0300001N1+00791-00531102301ADDGF104991031001999999071041MA1999999095591MD1710151+9999MW1031REMSYN072AAXX  28131 14330 41980 42102 10079 21053 39559 40230 57015 703// 83074;
0193143300999992000121312004+44550+015370FM-12+056599999V0202301N003010360019N0100001N1+00921+00501102221ADDAA124000091AY141061GF106991031081008001071001MA1999999095561MD1710341+9999MW1021REMSYN082AAXX  13121 14330 31560 62303 10092 20050 39556 40222 57034 7024/ 83870 333 70000;EQDQ01  00002PRCP24
0133143300999992000121709004+44550+015370FM-12+056599999V0201401N003010075019N0100001N1+00341+00041101671ADDGF107991071051008001001001MA1999999094911MD1110081+9999REMSYN066AAXX  17091 14330 42560 71403 10034 20004 39491 40167 51008 87500;
0163143300999992000121919004+44550+015370FM-12+056599999V0200301N001010001519N0001001N1+00001-00101102281ADDAY141999GA1091+999999999GF109991091999999999999999MA1999999095391MD1519999+9999MW1451REMSYN066AAXX  19191 14330 41/01 90301 10000 21010 39539 40228 55/// 7454/;
0193143300999992000122518004+44550+015370FM-12+056599999V0201401N004010075019N0100001N1+01131+00491099951ADDAA112027991AY161061GF108991081051008001999999KA1999M+01161MA1999999093491MD1610041+9999MW1021REMSYN088AAXX  25181 14330 11560 81404 10113 20049 39349 49995 56004 60282 7026/ 885// 333 10116;
0171143700999992000010108004+45170+018000FM-12+0089LDOR V0200701N003010006019N0008001N1-00281-00341102811ADDAY141999AY241999GA1091+999999999GF109991091999999999999999MA1999999101661MD1210091+9999MW1451REMSYN066AAXX  01081 14370 41/08 90703 11028 21034 30166 40281 52009 74544;
0171143700999992000010611004+45170+018000FM-12+0089LDOR V0202801N001010001519N0001001N1-00171-00221102631ADDAY141999AY241999GA1091+999999999GF109991091999999999999999MA1999999101491MD1810021+9999MW1451REMSYN066AAXX  06111 14370 41/01 92801 11017 21022 30149 40263 58002 74544;
0161143700999992000011215004+45170+018000FM-12+0089LDOR V0200601N003010120019N0020001N1+00041-00171103511ADDAY121031AY221031GF106991061051012501001001MA1999999102371MD1710101+9999MW1101REMSYN072AAXX  12151 14370 41620 60603 10004 21017 30237 40351 57010 71022 86500;
0143143700999992000012421004+45170+018000FM-12+0089LDOR V0202901N003012200019N0100001N1-01481-01601102261ADDGA1001+999999999GF100991001001999999001001MA1999999101061MD1210141+9999REMSYN060AAXX  24211 14370 42960 02903 11148 21160 30106 40226 52014;
0143143700999992000020115004+45170+018000FM-12+0089LDOR V0200601N001012200019N0100001N1+01401+00391102341ADDGA1001+999999999GF100991001001999999001001MA1999999101271MD1710231+9999REMSYN060AAXX  01151 14370 42960 00601 10140 20039 30127 40234 57023;
0161143700999992000021213004+45170+018000FM-12+0089LDOR V0200801N003010900019N0010001N1+00641+00241102411ADDAY121999AY221999GF107991031051012501001031MA1999999101311MD1710241+9999MW1101REMSYN072AAXX  12131 14370 41610 70803 10064 20024 30131 40241 57024 71022 83503;
0161143700999992000022405004+45170+018000FM-12+0089LDOR V0209999C000010075019N0040001N1-00201-00391102881ADDAY121999AY221999GF108991081001008001021999MA1999999101741MD1219999+9999MW1731REMSYN072AAXX  24051 14370 41540 80000 11020 21039 30174 40288 52/// 77322 8802/;
0190143700999992000022821004+45170+018000FM-12+0089LDOR V0200501N002012200019N0080001N1+00361-00261103132ADDAY101031AY201031GA1001+999999999GF100991001001999999001001MA1999999102011MD1710061+9999MW1101REMSYN066AAXX  28211 14370 41958 00502 10036 21026 30201 40313 57006 71000;EQDQ01+103133APOSLP
0171143700999992000022908004+45170+018000FM-12+0089LDOR V0202601N001012200019N0030001N1+00101-00101103001ADDAY101999AY201999GA1001+999999999GF100991001001999999001001MA1999999101861MD1310031+9999MW1101REMSYN066AAXX  29081 14370 41930 02601 10010 21010 30186 40300 53003 71000;
0171143700999992000022921004+45170+018000FM-12+0089LDOR V0209999C000012200019N0050001N1+00101-00361102151ADDAY101031AY201031GA1001+999999999GF100991001001999999001001MA1999999101021MD1710121+9999MW1101REMSYN066AAXX  29211 14370 41950 00000 10010 21036 30102 40215 57012 71000;
0133143700999992000031120004+45170+018000FM-12+0089LDOR V0209999C000012200019N0100001N1+00661+00191101241ADDGF103991031051012501001001MA1999999100151MD1619999+9999REMSYN066AAXX  11201 14370 42660 30000 10066 20019 30015 40124 56/// 83500;
0133143700999992000031909004+45170+018000FM-12+0089LDOR V0203201N004010120019N0200001N1+00361-00521102381ADDGF105991051081008001001001MA1999999101261MD1010031+9999REMSYN066AAXX  19091 14370 42570 53204 10036 21052 30126 40238 50003 85800;
0143143700999992000033109004+45170+018000FM-12+0089LDOR V0202701N006012200019N0300001N1+01481+00111101151ADDGA1001+999999999GF100991001001999999001001MA1999999100101MD1810021+9999REMSYN060AAXX  31091 14370 42980 02706 10148 20011 30010 40115 58002;
0133143700999992000040411004+45170+018000FM-12+0089LDOR V0202301N001010360019N0200001N1+01911+00911100181ADDGF106991021051008001031001MA1999999099151MD1810011+9999REMSYN066AAXX  04111 14370 42570 62301 10191 20091 39915 40018 58001 82530;
0171143700999992000042108004+45170+018000FM-12+0089LDOR V0202401N004012200019N0080001N1+01811+01281101321ADDAY141999AY201999GA1001+999999999GF100991001001999999001001MA1999999100271MD1210111+9999MW1101REMSYN066AAXX  21081 14370 41958 02404 10181 20128 30027 40132 52011 71040;
0133143700999992000042411004+45170+018000FM-12+0089LDOR V0202401N001012200019N0100001N1+02381+01081100401ADDGF102991011051008001031001MA1999999099381MD1710231+9999REMSYN066AAXX  24111 14370 42560 22401 10238 20108 39938 40040 57023 81530;
0133143700999992000043011004+45170+018000FM-12+0089LDOR V0202401N004012200019N0100001N1+02151+01481101831ADDGF103991021021012501001011MA1999999100791MD1810061+9999REMSYN066AAXX  30111 14370 42660 32404 10215 20148 30079 40183 58006 82201;
0143143700999992000050321004+45170+018000FM-12+0089LDOR V0203601N003012200019N0100001N1+01301+00771102001ADDGA1001+999999999GF100991001001999999001001MA1999999100931MD1210141+9999REMSYN060AAXX  03211 14370 42960 03603 10130 20077 30093 40200 52014;
0133143700999992000051005004+45170+018000FM-12+0089LDOR V0209999C000012200019N0100001N1+01301+01191101901ADDGF103991021081012501081001MA1999999100831MD1410001+9999REMSYN066AAXX  10051 14370 42660 30000 10130 20119 30083 40190 54000 82880;
0133143700999992000051705004+45170+018000FM-12+0089LDOR V0209999C000012200019N0100001N1+01161+01011101721ADDGF102991001001999999001021MA1999999100651MD1219999+9999REMSYN066AAXX  17051 14370 42960 20000 10116 20101 30065 40172 52/// 80002;
0144143700999992000053012004+45170+018000FM-12+0089LDOR V0202001N003010360019N0300001N1+01731+00601101951ADDAA199000021GF105991041081008001031001MA1999999100891MD1710131+9999REMSYN066AAXX  30121 14370 32580 52003 10173 20060 30089 40195 57013 84830;
0133143700999992000061603004+45170+018000FM-12+0089LDOR V0209999C000010120019N0200001N1+01681+01521101691ADDGF107991071051012501001001MA1999999100631MD1810031+9999REMSYN066AAXX  16031 14370 42670 70000 10168 20152 30063 40169 58003 87500;
0186143700999992000061618004+45170+018000FM-12+0089LDOR V0203601N001012200019N0300001N1+02201+00681101841ADDAA199000091GF101991001001999999001011KA1999M+02331MA1999999100801MD1610031+9999REMSYN076AAXX  16181 14370 32980 13601 10220 20068 30080 40184 56003 80001 333 10233;EQDQ01  00002PRCP99
0133143700999992000061810004+45170+018000FM-12+0089LDOR V0200801N003012200019N0300001N1+02051+00301102891ADDGF101991011011012501001001MA1999999101831MD1810091+9999REMSYN066AAXX  18101 14370 42680 10803 10205 20030 30183 40289 58009 81100;
0143143700999992000061919004+45170+018000FM-12+0089LDOR V0209999C000012200019N0300001N1+02141+00851102221ADDGA1001+999999999GF100991001001999999001001MA1999999101171MD1719999+9999REMSYN060AAXX  19191 14370 42980 00000 10214 20085 30117 40222 57///;
0143143700999992000062005004+45170+018000FM-12+0089LDOR V0209999C000012200019N0100001N1+01281+01121102171ADDGA1001+999999999GF100991001001999999001001MA1999999101101MD1219999+9999REMSYN060AAXX  20051 14370 42960 00000 10128 20112 30110 40217 52///;
0220143700999992000062206004+45170+018000FM-12+0089LDOR V0202301N001012200019N0300001N1+02301+01501101621ADDAA199000091GA1001+999999999GF100991001001999999001001IA1019IA2999+01309KA1999N+01521MA1999999100581MD1210091+9999REMSYN076AAXX  22061 14370 32980 02301 10230 20150 30058 40162 52009 333 20152 30013;EQDQ01  00002PRCP99
0207143700999992000072106004+45170+018000FM-12+0089LDOR V0202601N002012200019N0300001N1+01521+01191101881ADDAA124001591GA1001+999999999GF100991001001999999001001IA1099IA2999+00809KA1999N+01481MA1999999100811MD1110011+9999REMSYN082AAXX  21061 14370 32980 02602 10152 20119 30081 40188 51001 333 20148 31008 70016;
0133143700999992000080504004+45170+018000FM-12+0089LDOR V0202301N002012200019N0100001N1+01841+01601101641ADDGF103991031051008001001001MA1999999100591MD1519999+9999REMSYN066AAXX  05041 14370 42560 32302 10184 20160 30059 40164 55/// 83500;
0133143700999992000080707004+45170+018000FM-12+0089LDOR V0202401N003010360019N0200001N1+02081+01661101571ADDGF105991031051008001071001MA1999999100521MD1210081+9999REMSYN066AAXX  07071 14370 42570 52403 10208 20166 30052 40157 52008 83570;
0133143700999992000080810004+45170+018000FM-12+0089LDOR V0203601N003010120019N0100001N1+02421+01161101861ADDGF105991051011012501001001MA1999999100821MD1010001+9999REMSYN066AAXX  08101 14370 42660 53603 10242 20116 30082 40186 50000 85100;
0133143700999992000082221004+45170+018000FM-12+0089LDOR V0201601N002012200019N0100001N1+02501+01621101471ADDGF103991001001999999001021MA1999999100441MD1210121+9999REMSYN066AAXX  22211 14370 42960 31602 10250 20162 30044 40147 52012 80002;
0186143700999992000083018004+45170+018000FM-12+0089LDOR V0203601N002012200019N0100001N1+02461+00851101281ADDAA199000091GF102991001001999999001021KA1999M+02941MA1999999100261MD1710111+9999REMSYN076AAXX  30181 14370 32960 23602 10246 20085 30026 40128 57011 80002 333 10294;EQDQ01  00002PRCP99
0133143700999992000090515004+45170+018000FM-12+0089LDOR V0203301N004010150019N0300001N1+01821+00451101671ADDGF105991051081012501001001MA1999999100611MD1810031+9999REMSYN066AAXX  05151 14370 42680 53304 10182 20045 30061 40167 58003 85800;
0201143700999992000092118004+45170+018000FM-12+0089LDOR V0209999C000010360019N0001001N1+01721+01591101031ADDAA112007191AY161061AY241061GF106991021051008001031021KA1999M+02301MA1999999099981MD1210081+9999MW1461REMSYN088AAXX  21181 14370 11501 60000 10172 20159 39998 40103 52008 60072 74664 82532 333 10230;
0186143700999992000092218004+45170+018000FM-12+0089LDOR V0203601N004010075019N0300001N1+01581+00811102171ADDAA199000091GF108991081061008001999999KA1999M+01821MA1999999101101MD1210071+9999REMSYN076AAXX  22181 14370 32580 83604 10158 20081 30110 40217 52007 886// 333 10182;EQDQ01  00002PRCP99
0143143700999992000092619004+45170+018000FM-12+0089LDOR V0200601N002012200019N0100001N1+01341+00941102421ADDGA1001+999999999GF100991001001999999001001MA1999999101341MD1219999+9999REMSYN060AAXX  26191 14370 42960 00602 10134 20094 30134 40242 52///;
0163143700999992000100212004+45170+018000FM-12+0089LDOR V0200801N003010360019N0100001N1+02041+01651101021ADDAA199000091GF108991041081012501071999MA1999999099991MD1810011+9999REMSYN066AAXX  02121 14370 32660 80803 10204 20165 39999 40102 58001 8487/;EQDQ01  00002PRCP99
0238143700999992000100606004+45170+018000FM-12+0089LDOR V0201101N001012200019N0050001N1+01061+00931101501ADDAA199000091AY111061AY211061GF102991021001999999031001IA1099IA2999+00809KA1999N+01001MA1999999100421MD1310041+9999MW1101REMSYN088AAXX  06061 14370 31950 21101 10106 20093 30042 40150 53004 71011 82030 333 20100 31008;EQDQ01  00002PRCP99
0133143700999992000102703004+45170+018000FM-12+0089LDOR V0202001N001010120019N0100001N1+01101+00911101561ADDGF108991081051012501999999MA1999999100481MD1410001+9999REMSYN066AAXX  27031 14370 42660 82001 10110 20091 30048 40156 54000 885//;
0153143700999992000103005004+45170+018000FM-12+0089LDOR V0201701N001010075019N0050001N1+00841+00701101941ADDAY121999GF108991081051008001999999MA1999999100851MD1719999+9999MW1101REMSYN072AAXX  30051 14370 41550 81701 10084 20070 30085 40194 57/// 7102/ 885//;
0133143700999992000103114004+45170+018000FM-12+0089LDOR V0202001N005010150019N0200001N1+02361+00871100881ADDGF105991051081012501001001MA1999999099851MD1710111+9999REMSYN066AAXX  31141 14370 42670 52005 10236 20087 39985 40088 57011 85800;
0186143700999992000110218004+45170+018000FM-12+0089LDOR V0200501N002019999999N0100001N1+01081+00871101421ADDAA199000091GF107991071001999999071001KA1999M+01651MA1999999100341MD1410001+9999REMSYN076AAXX  02181 14370 32960 70502 10108 20087 30034 40142 54000 87070 333 10165;EQDQ01  00002PRCP99
0144143700999992000110812004+45170+018000FM-12+0089LDOR V0202201N005012200019N0300001N1+01781+00451100741ADDAA199000021GF103991031081012501001001MA1999999099691MD1210051+9999REMSYN066AAXX  08121 14370 32680 32205 10178 20045 39969 40074 52005 83800;
0193143700999992000120212004+45170+018000FM-12+0089LDOR V0202401N002012200019N0050001N1+01351+00571102301ADDAA199000091AY101061GA1001+999999999GF100991001001999999001001MA1999999101221MD1710131+9999MW1101REMSYN066AAXX  02121 14370 31950 02402 10135 20057 30122 40230 57013 7100/;EQDQ01  00002PRCP99
0224143700999992000121218004+45170+018000FM-12+0089LDOR V0209999C000012200019N0001001N1+00351+00241102601ADDAA199000091AY121061AY201061GA1001+999999999GF100991001001999999001001KA1999M+01341MA1999999101481MD1010031+9999MW1441REMSYN076AAXX  12181 14370 31901 00000 10035 20024 30148 40260 50003 74420 333 10134;EQDQ01  00002PRCP99
0201143700999992000121300004+45170+018000FM-12+0089LDOR V0202901N002012200019N0001001N1-00081-00161102461ADDAA199000091AY141061AY201061GA1001+999999999GF100991001001999999001001MA1999999101321MD1710101+9999MW1441REMSYN066AAXX  13001 14370 31901 02902 11008 21016 30132 40246 57010 74440;EQDQ01  00002PRCP99
0153143700999992000121315004+45170+018000FM-12+0089LDOR V0200401N001010360019N0050001N1+01101+00541102051ADDAY121031GF106991011051012501071011MA1999999100961MD1510041+9999MW1101REMSYN072AAXX  13151 14370 41650 60401 10110 20054 30096 40205 55004 7102/ 81571;
0153143700999992000121409004+45170+018000FM-12+0089LDOR V0209999C000010075019N0020001N1+00681+00531101791ADDAY121031GF107991051051008001031001MA1999999100691MD1810021+9999MW1101REMSYN072AAXX  14091 14370 41520 70000 10068 20053 30069 40179 58002 7102/ 85530;
0133143700999992000121508004+45170+018000FM-12+0089LDOR V0209999C000010120019N0200001N1+00951+00681100621ADDGF108991061051012501021999MA1999999099551MD1710101+9999REMSYN066AAXX  15081 14370 42670 80000 10095 20068 39955 40062 57010 8652/;
0171143700999992000122804004+45170+018000FM-12+0089LDOR V0201601N001010001519N0001001N1+00631+00551099121ADDAY141011AY241011GA1091+999999999GF109991091999999999999999MA1999999098051MD1410001+9999MW1451REMSYN066AAXX  28041 14370 41/01 91601 10063 20055 39805 49912 54/// 74544;
0201143700999992000122918004+45170+018000FM-12+0089LDOR V0200601N003010042019N0040001N1+00661+00471099861ADDAA112000191AY161061AY221061GF108991081061004501999999KA1999M+00721MA1999999098781MD1710071+9999MW1101REMSYN088AAXX  29181 14370 11440 80603 10066 20047 39878 49986 57007 69922 71062 886// 333 10072;
0171143820999992000010416004+45150+018700FM-12+009799999V0200501N001010001519N0001001N1-00301-00401102241ADDAY141999AY241999GA1091+999999999GF109991091999999999999999MA1999999101181MD1810021+9999MW1471REMSYN066AAXX  04161 14382 41/01 90501 11030 21040 30118 40224 58002 74744;
0161143820999992000010613004+45150+018700FM-12+009799999V0203201N001010075019N0050001N1+00221+00031102521ADDAY121999AY221999GF107991071051008001001001MA1999999101281MD1710071+9999MW1101REMSYN072AAXX  06131 14382 41550 73201 10022 20003 30128 40252 57007 71022 87500;
0143143820999992000012008004+45150+018700FM-12+009799999V0203001N003012200019N0200001N1+00001-00661102631ADDGA1001+999999999GF100991001001999999001001MA1999999101381MD1319999+9999REMSYN060AAXX  20081 14382 42970 03003 10000 21066 30138 40263 53///;
0161143820999992000012314004+45150+018700FM-12+009799999V0200601N004010075019N0003001N1-00321-00421100571ADDAY171999AY271999GF108991081001008001021999MA1999999099331MD1210091+9999MW1731REMSYN072AAXX  23141 14382 41503 80604 11032 21042 39933 40057 52009 77377 8802/;
0255143820999992000012906004+45150+018700FM-12+009799999V0202201N001012200019N0000001N1-01061-01111102221ADDAA199000091AJ100159199999999GA1001+999999999GF100991001001999999001001IA1249IA2999-02209KA1999N-01241MA1999999100931MD1410001+9999MW1461REMSYN088AAXX  29061 14382 31900 02201 11106 21111 30093 40222 54/// 746// 333 21124 3/122 48015;EQDQ01  00002PRCP99
0152143820999992000020513004+45150+018700FM-12+009799999V0202401N005019999999N0200001N1+00891-00221102821ADDGF106991999051008001999999MA1999999101621MD1710151+9999REMSYN066AAXX  05131 14382 42570 62405 10089 21022 30162 40282 57015 885//;EQDQ01+000082SCOTLC
0133143820999992000021809004+45150+018700FM-12+009799999V0203201N006012200019N0300001N1+00251-00181101301ADDGF101991011011008001001001MA1999999100081MD1210181+9999REMSYN066AAXX  18091 14382 42580 13206 10025 21018 30008 40130 52018 81100;
0161143820999992000022109004+45150+018700FM-12+009799999V0203201N006010075019N0060001N1+00191-00031102291ADDAY121031AY221031GF108991081051008001999999MA1999999101061MD1210211+9999MW1221REMSYN072AAXX  21091 14382 41556 83206 10019 21003 30106 40229 52021 72222 885//;
0133143820999992000022311004+45150+018700FM-12+009799999V0202001N002012200019N0100001N1+00361-00591102661ADDGF103991031011008001001001MA1999999101431MD1410001+9999REMSYN066AAXX  23111 14382 42560 32002 10036 21059 30143 40266 54000 83100;
0133143820999992000030407004+45150+018700FM-12+009799999V0201101N002012200019N0300001N1+00411-00251101171ADDGF102991011001999999041011MA1999999099951MD1719999+9999REMSYN066AAXX  04071 14382 42980 21102 10041 21025 39995 40117 57/// 81041;
0186143820999992000031018004+45150+018700FM-12+009799999V0203301N004010075019N0500001N1+00941+00201102221ADDAA199000091GF108991081061008001999999KA1999M+01291MA1999999101021MD1110261+9999REMSYN076AAXX  10181 14382 32584 83304 10094 20020 30102 40222 51026 886// 333 10129;EQDQ01  00002PRCP99
0133143820999992000031615004+45150+018700FM-12+009799999V0203001N009010120019N0300001N1+00761-00301101321ADDGF108991081081008001999999MA1999999100121MD1710081+9999REMSYN066AAXX  16151 14382 42580 83009 10076 21030 30012 40132 57008 888//;
0133143820999992000031814004+45150+018700FM-12+009799999V0203301N008010120019N0150001N1+00491-00151101731ADDGF106991061081008001001001MA1999999100521MD1110051+9999REMSYN066AAXX  18141 14382 42565 63308 10049 21015 30052 40173 51005 86800;
0133143820999992000031816004+45150+018700FM-12+009799999V0200301N005010120019N0120001N1+00341+00061101911ADDGF106991061081008001001001MA1999999100691MD1310171+9999REMSYN066AAXX  18161 14382 42562 60305 10034 20006 30069 40191 53017 86800;
0133143820999992000041414004+45150+018700FM-12+009799999V0202401N001012200019N0300001N1+02371+00521100631ADDGF102991011081012501001021MA1999999099501MD1710211+9999REMSYN066AAXX  14141 14382 42680 22401 10237 20052 39950 40063 57021 81802;
0133143820999992000050514004+45150+018700FM-12+009799999V0201101N003012200019N0400001N1+02251+00181101591ADDGF104991001001999999001091MA1999999100451MD1710131+9999REMSYN066AAXX  05141 14382 42982 41103 10225 20018 30045 40159 57013 80009;
0133143820999992000060711004+45150+018700FM-12+009799999V0203301N004010120019N0300001N1+02261+01201101611ADDGF107991071081008001001001MA1999999100481MD1210101+9999REMSYN066AAXX  07111 14382 42580 73304 10226 20120 30048 40161 52010 87800;
0143143820999992000060907004+45150+018700FM-12+009799999V0201101N003012200019N0150001N1+02121+01151102051ADDGA1001+999999999GF100991001001999999001001MA1999999100911MD1119999+9999REMSYN060AAXX  09071 14382 42965 01103 10212 20115 30091 40205 51///;
0143143820999992000061009004+45150+018700FM-12+009799999V0201301N001012200019N0200001N1+02811+01461101631ADDGA1001+999999999GF100991001001999999001001MA1999999100511MD1810031+9999REMSYN060AAXX  10091 14382 42970 01301 10281 20146 30051 40163 58003;
0210143820999992000061306004+45150+018700FM-12+009799999V0200301N001012200019N0100001N1+02351+01901102221ADDAA199000091GF103991031001999999031001IA1019IA2999+01709KA1999N+01811MA1999999101081MD1219999+9999REMSYN082AAXX  13061 14382 32960 30301 10235 20190 30108 40222 52/// 83030 333 20181 30017;EQDQ01  00002PRCP99
0133143820999992000062409004+45150+018700FM-12+009799999V0202401N003012200019N0200001N1+02481+01481101331ADDGF102991001001999999001021MA1999999100211MD1710091+9999REMSYN066AAXX  24091 14382 42970 22403 10248 20148 30021 40133 57009 80002;
0133143820999992000070416004+45150+018700FM-12+009799999V0202601N005010120019N0150001N1+03291+01241100711ADDGF108991081061012501999999MA1999999099621MD1310041+9999REMSYN066AAXX  04161 14382 42665 82605 10329 20124 39962 40071 53004 886//;
0133143820999992000071214004+45150+018700FM-12+009799999V0203001N003012200019N0300001N1+02711+01081100591ADDGF102991021081012501001011MA1999999099481MD1710081+9999REMSYN066AAXX  12141 14382 42680 23003 10271 20108 39948 40059 57008 82801;
0133143820999992000071813004+45150+018700FM-12+009799999V0203201N004010150019N0300001N1+02131+01021101521ADDGF107991071081012501001001MA1999999100381MD1710091+9999REMSYN066AAXX  18131 14382 42680 73204 10213 20102 30038 40152 57009 87800;
0143143820999992000072315004+45150+018700FM-12+009799999V0202601N004012200019N0100001N1+03071+01221101311ADDGA1001+999999999GF100991001001999999001001MA1999999100201MD1710141+9999REMSYN060AAXX  23151 14382 42960 02604 10307 20122 30020 40131 57014;
0222143820999992000072406004+45150+018700FM-12+009799999V0201501N001010360019N0100001N1+02201+01431101291ADDAA199000091GF106991021041012501031011IA1019IA2999+01709KA1999N+01821MA1999999100151MD1719999+9999MW1021REMSYN088AAXX  24061 14382 31660 61501 10220 20143 30015 40129 57/// 702// 82431 333 20182 30017;EQDQ01  00002PRCP99
0196143820999992000072918004+45150+018700FM-12+009799999V0203601N002012200019N0300001N1+02331+00901101221ADDAA199000091GA1001+999999999GF100991001001999999001001KA1999M+02621MA1999999100091MD1410001+9999REMSYN070AAXX  29181 14382 32980 03602 10233 20090 30009 40122 54001 333 10262;EQDQ01  00002PRCP99
0143143820999992000081109004+45150+018700FM-12+009799999V0202401N001012200019N0200001N1+02821+01371101551ADDGA1001+999999999GF100991001001999999001001MA1999999100431MD1210021+9999REMSYN060AAXX  11091 14382 42970 02401 10282 20137 30043 40155 52002;
0155143820999992000081307004+45150+018700FM-12+009799999V0209999C000012200019N0200001N1+02291+01371101591ADDGA1001+999999999GF100991001001999999001001MA1999999100461MD1219999+9999MW1001REMSYN066AAXX  13071 14382 41970 00000 10229 20137 30046 40159 52/// 700//;
0186143820999992000090518004+45150+018700FM-12+009799999V0202801N003012200019N0200001N1+01491+00721101651ADDAA199000091GF104991041051012501001001KA1999M+01821MA1999999100481MD1210071+9999REMSYN076AAXX  05181 14382 32670 42803 10149 20072 30048 40165 52007 84500 333 10182;EQDQ01  00002PRCP99
0132143820999992000091610004+45150+018700FM-12+009799999V0201501N002012200019N0150001N1+02591+01231101251ADDGF103991999999999999999999MA1999999100131MD1710141+9999REMSYN065AAXX  16101 14382 42965 31502 10259 20123 30013 40125 57014 0007;
0143143820999992000092016004+45150+018700FM-12+009799999V0201201N002012200019N0150001N1+02891+01741100761ADDGA1001+999999999GF100991001001999999001001MA1999999099651MD1710061+9999REMSYN060AAXX  20161 14382 42965 01202 10289 20174 39965 40076 57006;
0188143820999992000100712004+45150+018700FM-12+009799999V0200901N006012200019N0100001N1+02111+01201101251ADDAA106000791AY161061AY221061GF105991041021012501001011MA1999999100111MD1710151+9999MW1021REMSYN088AAXX  07121 14382 11660 50906 10211 20120 30011 40125 57015 69901 70262 84201 333 70006;
0186143820999992000100818004+45150+018700FM-12+009799999V0201001N004010120019N0200001N1+01641+00801101391ADDAA199000091GF108991081051012501999999KA1999M+02001MA1999999100231MD1210101+9999REMSYN076AAXX  08181 14382 32670 81004 10164 20080 30023 40139 52010 885// 333 10200;EQDQ01  00002PRCP99
