0096033540999992000072813004+53000-001250FM-12+011799999V0202701N003619999999N0240001N1+02121+01071101201ADDMD1710041+9999REMSYN070AAXX  28134 03354 46/74 /2707 10212 20107 40120 57004 555 7/092 82/60;
0096033540999992000072909004+53000-001250FM-12+011799999V0202701N001519999999N0190001N1+01691+01281101611ADDMD1210101+9999REMSYN070AAXX  29094 03354 46/69 /2703 10169 20128 40161 52010 555 7/097 87/50;
0136033540999992000080218004+53000-001250FM-12+011799999V0202601N004119999999N0260001N1+01981+00981100981ADDAA112000591KA1120M+02161MD1210051+9999REMSYN086AAXX  02184 03354 16/76 /2608 10198 20098 40098 52005 69942 333 10216 555 7/094 84/57;
0102033540999992000080519004+53000-001250FM-12+011799999V0203201N001519999999N0190001N1+02051+01361102351ADDMD1410001+9999REMSYN076AAXX  05194 03354 46/69 /3203 10205 20136 40235 54000 555 7/097 87/37 83/50;
0173033540999992000080706004+53000-001250FM-12+011799999V0202901N001519999999N0190001N1+01551+01341102491ADDAA199000091IA2999+01109KA1120N+01461MD1610041+9999REMSYN092AAXX  07064 03354 36/69 /2903 10155 20134 40249 56004 333 20146 3/011 555 7/096 86/13 82/61;EQDQ01  00002PRCP99
0173033540999992000081306004+53000-001250FM-12+011799999V0201601N002119999999N0110001N1+01681+01471101331ADDAA199000091IA2999+01309KA1120N+01651MD1610041+9999REMSYN092AAXX  13064 03354 36/61 /1604 10168 20147 40133 56004 333 20165 3/013 555 7/097 86/37 83/44;EQDQ01  00002PRCP99
0108033540999992000082111004+53000-001250FM-12+011799999V0202101N001519999999N0090001N1+01591+01131101391ADDMD1010001+9999REMSYN082AAXX  21114 03354 46/59 /2103 10159 20113 40139 50000 555 7/096 84/13 83/44 81/50;
0126033540999992000082400004+53000-001250FM-12+011799999V0200601N001519999999N0110001N1+01191+01091102581ADDAA199000091MD1210011+9999REMSYN070AAXX  24004 03354 36/61 /0603 10119 20109 40258 52001 555 7/090 80/99;EQDQ01  00002PRCP99
0096033540999992000082402004+53000-001250FM-12+011799999V0202101N001019999999N0090001N1+01081+01021102551ADDMD1710031+9999REMSYN070AAXX  24024 03354 46/59 /2102 10108 20102 40255 57003 555 7/090 80/99;
0126033540999992000083012004+53000-001250FM-12+011799999V0201201N001519999999N0240001N1+01821+01151102041ADDAA199000091MD1810111+9999REMSYN070AAXX  30124 03354 36/74 /1203 10182 20115 40204 58011 555 7/094 84/32;EQDQ01  00002PRCP99
0126033540999992000091100004+53000-001250FM-12+011799999V0200601N003119999999N0050001N1+01551+01431102001ADDAA199000091MD1810071+9999REMSYN070AAXX  11004 03354 36/50 /0606 10155 20143 40200 58007 555 7/098 88/47;EQDQ01  00002PRCP99
0096033540999992000092411004+53000-001250FM-12+011799999V0201301N002119999999N0060001N1+01491+01351101321ADDMD1410001+9999REMSYN070AAXX  24114 03354 46/56 /1304 10149 20135 40132 54000 555 7/097 87/08;
0096033540999992000092515004+53000-001250FM-12+011799999V0202101N004119999999N0270001N1+01661+00841101761ADDMD1610071+9999REMSYN070AAXX  25154 03354 46/77 /2108 10166 20084 40176 56007 555 7/092 82/36;
0096033540999992000092519004+53000-001250FM-12+011799999V0201801N003119999999N0070001N1+01221+01091101751ADDMD1610021+9999REMSYN070AAXX  25194 03354 46/57 /1806 10122 20109 40175 56002 555 7/095 83/21;
0096033540999992000092605004+53000-001250FM-12+011799999V0201001N004619999999N0025001N1+01161+01141101371ADDMD1610141+9999REMSYN070AAXX  26054 03354 46/25 /1009 10116 20114 40137 56014 555 7/098 88/01;
0113033540999992000100100004+53000-001250FM-12+011799999V0209999C000019999999N0013001N1+01281+01261100791ADDAA106002091MD1110071+9999REMSYN076AAXX  01004 03354 16/13 /0000 10128 20126 40079 51007 60021 555 7/098 88/02;
0102033540999992000100504004+53000-001250FM-12+011799999V0202101N005719999999N0250001N1+01051+00781101061ADDMD1610291+9999REMSYN076AAXX  05044 03354 46/75 /2111 10105 20078 40106 56029 555 7/098 87/14 84/57;
0096033540999992000101420004+53000-001250FM-12+011799999V0202101N003619999999N0070001N1+01131+01051101411ADDMD1110121+9999REMSYN070AAXX  14204 03354 46/57 /2107 10113 20105 40141 51012 555 7/097 87/09;
0096033540999992000101505004+53000-001250FM-12+011799999V0202301N002119999999N0026001N1+01121+01081101351ADDMD1610051+9999REMSYN070AAXX  15054 03354 46/26 /2304 10112 20108 40135 56005 555 7/098 88/01;
0096033540999992000101604004+53000-001250FM-12+011799999V0201901N000519999999N0003001N1+01001+01001100571ADDMD1810241+9999REMSYN070AAXX  16044 03354 46/03 /1901 10100 20100 40057 58024 555 7/097 87/00;
0096033540999992000110314004+53000-001250FM-12+011799999V0202601N005719999999N0300001N1+00911+00361099311ADDMD1310151+9999REMSYN070AAXX  03144 03354 46/80 /2611 10091 20036 49931 53015 555 7/093 81/24;
0089033540999992000110913004+53000-001250FM-12+011799999V0202701N003619999999N0130001N1+00821+00621100141ADDMD1110171+9999REMSYN063AAXX  09134 03354 46/63 /270710082 20062 40014 51017 555 79/0/;
0130033540999992000110918004+53000-001250FM-12+011799999V0202501N003619999999N0110001N1+00701+00591100471ADDAA112001091KA1120M+00891MD1310221+9999REMSYN080AAXX  09184 03354 16/61 /2507 10070 20059 40047 53022 60012 333 10089 555 79/0/;
0102033540999992000111208004+53000-001250FM-12+011799999V0202101N006719999999N0240001N1+00591+00431099091ADDMD1610051+9999REMSYN076AAXX  12084 03354 46/74 /2113 10059 20043 49909 56005 555 7/097 81/26 87/31;
0108033540999992000111517004+53000-001250FM-12+011799999V0202001N003619999999N0042001N1+00501+00431100491ADDMD1810121+9999REMSYN082AAXX  15174 03354 46/42 /2007 10050 20043 40049 58012 555 7/098 82/07 84/45 87/62;
0102033540999992000111621004+53000-001250FM-12+011799999V0202501N002619999999N0140001N1+00331+00201100481ADDMD1310201+9999REMSYN076AAXX  16214 03354 46/64 /2505 10033 20020 40048 53020 555 7/096 84/29 83/50;
0157033540999992000112600004+53000-001250FM-12+011799999V0202001N009319999999N0250001N1+00671+00411098001ADDAA106000591MD1610201+9999OA140101541OA240101961REMSYN098AAXX  26004 03354 16/75 /2018 10067 20041 49800 56020 69941 333 90710 91138 91030 555 7/097 87/21;
0113033540999992000112712004+53000-001250FM-12+011799999V0201601N001519999999N0070001N1+00591+00541100821ADDAA106000191MD1410001+9999REMSYN076AAXX  27124 03354 16/57 /1603 10059 20054 40082 54000 69921 555 7/096 84/36;
0119033540999992000120716004+53000-001250FM-12+011799999V0200701N005719999999N0026001N1+00751+00731099551ADDKA1120N+00101MD1810361+9999REMSYN080AAXX  07164 03354 46/26 /0711 10075 20073 49955 58036 333 20010 555 7/098 88/02;
0144033540999992000121416004+53000-001250FM-12+011799999V0202401N004119999999N0140001N1+00451+00381100011ADDKA1120N+99999MD1710031+9999REMSYN086AAXX  14164 03354 46/64 /2408 10045 20038 40001 57003 333 20055 555 7/094 81/10 83/17;EQDQ01 +00552ATMN  
0119033540999992000121519004+53000-001250FM-12+011799999V0202801N001519999999N0110001N1+00111-00061101151ADDKA1120N+00001MD1110051+9999REMSYN080AAXX  15194 03354 46/61 /2803 10011 21006 40115 51005 333 20000 555 7/094 84/50;
0165033540999992000122700004+53000-001250FM-12+011799999V0203601N003619999999N0060001N1-00101-00171099461ADDAA199000091KA1120N+99999MD1610031+9999REMSYN080AAXX  27004 03354 36/56 /3607 11010 21017 49946 56003 333 20263 555 7/090 80/99;EQDQ01  00002PRCP99Q02 +02632ATMN  
0138033540999992000122720004+53000-001250FM-12+011799999V0202501N002619999999N0050001N1-00151-00251099681ADDKA1120N+99999MD1110081+9999REMSYN080AAXX  27204 03354 46/50 /2505 11015 21025 49968 51008 333 20000 555 7/090 80/99;EQDQ01 +00002ATMN  
0166033550999992000010512004+53830-001200FM-12+0009EGXG V0201901N008710150019N0300001N1+00671+00361100681ADDGA1021+006009089GA2041+015009069GF107991051081008001031999MD1810241+9999REMSYN082AAXX  05124 03355 43580 71917 10067 20036 40068 58024 8583/ 333 82820 84650 87362;
0166033550999992000010607504+53830-001200FM-15+0009EGXG V0202201N007210135019N0112651N1+00901+00501999999ADDGA1021+006009999GA2071+013509999GF107991999999999999999999MA1100201999999MW1001REMMET056EGXG 060750Z 22014KT 9999 SCT020 BKN045 09/05 Q1002 WHT;EQDQ01+000000PRSWM2
0144033550999992000011015004+53830-001200FM-12+0009EGXG V0202001N00771030001CN0200001N1+00601+00341102761ADDGA1021+006609089GF107991031081008001071999MD1710121+9999REMSYN076AAXX  10154 03355 42570 72015 10060 20034 40276 57012 8387/ 333 82822 87362;
0166033550999992000012513504+53830-001200FM-15+0009EGXG V0203401N003610105019N0112651N1+00601+00301999999ADDGA1021+006009999GA2071+010509999GF107991999999999999999999MA1102811999999MW1001REMMET056EGXG 251350Z 34007KT 9999 FEW020 BKN035 06/03 Q1028 BLU;EQDQ01+000000PRSWM2
0144033550999992000013108004+53830-001200FM-12+0009EGXG V0202601N00211012001CN0200001N1+00931+00461101451ADDGA1021+006609089GF107991071081008001999999MD1210351+9999REMSYN076AAXX  31084 03355 42570 72604 10093 20046 40145 52035 878// 333 82822 87657;
0189033550999992000021110504+53830-001200FM-15+0009EGXG V0202401N007710750019N0112651N1+00901+00301999999ADDGA1021+006609999GA2021+010509999GA3071+075009999GF107991999999999999999999MA1102301999999MW1001REMMET063EGXG 111050Z 24015KT 9999 FEW022 SCT035 BKN250 09/03 Q1023 BLU;EQDQ01+000000PRSWM2
0166033550999992000021715504+53830-001200FM-15+0009EGXG V0202501N004610270019N0112651N1+00701+00101999999ADDGA1021+009009999GA2071+027009999GF107991999999999999999999MA1100911999999MW1001REMMET056EGXG 171550Z 25009KT 9999 FEW030 BKN090 07/01 Q1009 BLU;EQDQ01+000000PRSWM2
0200033550999992000021814004+53830-001200FM-12+0009EGXG V0202601N008710300019N0220001N1+00861+00431099601ADDAY181999AY221999GA1041+006609089GA2071+030009039GF107991041081008001071021MD1810171+9999MW1251REMSYN094AAXX  18144 03355 41572 72617 10086 20043 49960 58017 72582 84872 333 84822 87360 90710 91129;
0150033550999992000022111004+53830-001200FM-12+0009EGXG V0202601N010312200019N0450001N1+00771+00241102351ADDGA1011+005409089GF102991021081004501001001MD1210181+9999REMSYN082AAXX  21114 03355 42483 22620 10077 20024 40235 52018 82800 333 81818 90710 91131;
0169033550999992000030108504+53830-001200FM-15+0009EGXG V0203201N007212200019N0112651N1+00501+00001999999ADDGA1021+005409099GA2021+015009999GF104991999999999999999999MA1100411999999MW1001REMMET059EGXG 010850Z 32014KT 9999 FEW018CB SCT050 05/M00 Q1004 BLU;EQDQ01+000000PRSWM2
0144033550999992000030111504+53830-001200FM-15+0009EGXG V0203301N008712200019N0112651N1+00701-00201999999ADDGA1021+009009999GF104991999999999999999999MA1100811999999MW1001REMMET050EGXG 011150Z 33017KT 9999 SCT030 07/M02 Q1008 BLU;EQDQ01+000000PRSWM2
0189033550999992000030711504+53830-001200FM-15+0009EGXG V0202401N006210036019N0112651N1+01201+01001999999ADDGA1021+002409999GA2071+003609999GA3071+009009999GF107991999999999999999999MA1101591999999MW1001REMMET063EGXG 071150Z 24012KT 9999 FEW008 BKN012 BKN030 12/10 Q1016 GRN;EQDQ01+000000PRSWM2
0144033550999992000031610004+53830-001200FM-12+0009EGXG V0202801N004110120019N0300001N1+00941+00661103351ADDGA1011+006009089GF108991081081008001999999MD1210101+9999REMSYN076AAXX  16104 03355 42580 82808 10094 20066 40335 52010 888// 333 81820 88640;
0144033550999992000032017004+53830-001200FM-12+0009EGXG V0202601N002610120019N0300001N1+01131+00391102801ADDGA1011+008409089GF107991071081008001999999MD1610141+9999REMSYN076AAXX  20174 03355 42580 72605 10113 20039 40280 56014 878// 333 81828 87640;
0166033550999992000032411004+53830-001200FM-12+0009EGXG V0202001N004612200019N0060001N1+01141+00631100351ADDAY111999AY211999GA1021+004509029GF103991021011004501001011MD1810031+9999MW1041REMSYN076AAXX  24114 03355 41456 32009 10114 20063 40035 58003 70411 82101 333 82815;
0138033550999992000033012004+53830-001200FM-12+0009EGXG V0200201N004612200019N0400001N1+00941-00011101781ADDGA1011+010509029GF101991011011012501001001MD1710141+9999REMSYN070AAXX  30124 03355 42682 10209 10094 21001 40178 57014 81100 333 81835;
0172033550999992000041011004+53830-001200FM-12+0009EGXG V0203201N00101004201CN0070001N1+00651+00371101931ADDAY121999AY221999GA1041+003609079GF107991071051004501999999MD1810121+9999MW1041REMSYN082AAXX  10114 03355 41457 73202 10065 20037 40193 58012 70422 875// 333 84712 87616;
0185033550999992000041207504+53830-001200FM-15+0009EGXG V0200401N006710042019N0040001N1+00601+00401999999ADDGA1071+004209999GA2081+015009999GF108991999999999999999999MA1098511999999MW1041REMMET059EGXG 120750Z 04013KT 4000 FU BKN014 OVC050 06/04 Q0985 GRN;EQDQ01+000003PRSWM1Q02    003PRSWM1
0172033550999992000041308004+53830-001200FM-12+0009EGXG V0203501N00361002101CN0070001N1+00451+00381099011ADDAY161021AY261021GA1031+001809079GF108991081071002501999999MD1210081+9999MW1611REMSYN082AAXX  13084 03355 41357 83507 10045 20038 49901 52008 76166 887// 333 83706 88711;
0138033550999992000042710004+53830-001200FM-12+0009EGXG V0201801N007212200019N0250001N1+01301+00741100951ADDGA1031+006009029GF104991041081008001001011MD1210141+9999REMSYN070AAXX  27104 03355 42575 41814 10130 20074 40095 52014 84801 333 83820;
0186033550999992000050308504+53830-001200FM-15+0009EGXG V0200201N007210012019N0040001N1+00801+00801999999ADDGA1071+001209999GA2081+003009999GF108991999999999999999999MA1102811999999MW1511REMMET060EGXG 030850Z 02014KT 4000 -DZ BKN004 OVC010 08/08 Q1028 YLO;EQDQ01+000003PRSWM1Q02    003PRSWM1
0166033550999992000051512004+53830-001200FM-12+0009EGXG V0201801N00621030001CN0200001N1+02391+01681101581ADDGA1011+009009089GA2031+024009039GF106991021041012501031011MD1710181+9999REMSYN082AAXX  15124 03355 42670 61812 10239 20168 40158 57018 82431 333 81830 83358 85075;
0143033550999992000061306504+53830-001200FM-15+0009EGXG V0202701N003610051019N0112651N1+01501+01101999999ADDGA1071+005109999GF107991999999999999999999MA1101901999999MW1001REMMET049EGXG 130650Z 27007KT 9999 BKN017 15/11 Q1019 WHT;EQDQ01+000000PRSWM2
0143033550999992000070311504+53820-001200FM-15+0009EGXG V0200401N001510030019N0112651N1+01501+01301999999ADDGA1081+003009999GF108991999999999999999999MA1101081999999MW1001REMMET049EGXG 031150Z 04003KT 9999 OVC010 15/13 Q1011 GRN;EQDQ01+000000PRSWM2
0166033550999992000070515004+53820-001200FM-12+0009EGXG V0200301N00411004201CN0250001N1+01541+01191101581ADDGA1011+004209079GA2031+006309069GF108991081051004501999999MD1210101+9999REMSYN082AAXX  05154 03355 42475 80308 10154 20119 40158 52010 885// 333 81714 83621 88632;
0189033550999992000071107004+53820-001200FM-12+0009EGXG V0203401N007710150019N0400001N1+01061+00491100411ADDGA1011+006009089GA2071+015009069GF107991071081008001999999MD1310201+9999OA140101441REMSYN094AAXX  11074 03355 43582 73415 10106 20049 40041 53020 878// 333 81820 87650 90710 91128 91025;
0144033550999992000071214004+53820-001200FM-12+0009EGXG V0202601N00311030001CN0450001N1+01741+00651101291ADDGA1021+012009089GF107991031081012501041021MD1810041+9999REMSYN076AAXX  12144 03355 42683 72606 10174 20065 40129 58004 83842 333 82840 87075;
0138033550999992000082313004+53820-001200FM-12+0009EGXG V0200901N002112200019N0400001N1+01971+01011102611ADDGA1021+010509029GF103991031081012501001001MD1710081+9999REMSYN070AAXX  23134 03355 42682 30904 10197 20101 40261 57008 83800 333 82835;
0095033550999992000082510504+53820-001200FM-15+0009EGXG V0201501N00361220001CN0099001N1+02301+01301999999ADDMA1102101999999MW1001REMMET043EGXG 251050Z 15007KT CAVOK 23/13 Q1021 BLU;EQDQ01+000000PRSWM2
0166033550999992000090109504+53820-001200FM-15+0009EGXG V0202401N003610150019N0112651N1+01601+01201999999ADDGA1021+004509999GA2071+015009999GF107991999999999999999999MA1099801999999MW1001REMMET056EGXG 010950Z 24007KT 9999 FEW015 BKN050 16/12 Q0998 BLU;EQDQ01+000000PRSWM2
0167033550999992000090613004+53820-001200FM-12+0009EGXG V0203001N013412200019N0450001N1+01761+00521100461ADDGA1011+013509089GF101991011011012501031001MD1210161+9999OA140102061REMSYN088AAXX  06134 03355 42683 13026 10176 20052 40046 52016 81130 333 81845 90710 91140 91038;
0166033550999992000091411004+53820-001200FM-12+0009EGXG V0201901N003110030019N0150001N1+01651+01351101161ADDGA1011+002409079GA2061+003009079GF108991081051002501999999MD1310051+9999REMSYN082AAXX  14114 03355 42365 81906 10165 20135 40116 53005 885// 333 81708 86710 88615;
0209033550999992000092608014+53820-001200FM-16+0009EGXG V0201001N003110027019N0070001N1+01301+01201999999ADDGA1021+001509999GA2021+002109999GA3081+002709999GF108991999999999999999999MA1101391999999MW1611REMMET067EGXG 260801Z 10006KT 7000 -RA FEW005 SCT007 OVC009 13/12 Q1014 GRN;EQDQ01+000003PRSWM1Q02    003PRSWM1
0138033550999992000092807004+53820-001200FM-12+0009EGXG V0201901N004612200019N0140001N1+00911+00851099661ADDGA1031+018009059GF103991031051017501041001MD1410001+9999REMSYN070AAXX  28074 03355 42764 31909 10091 20085 49966 54000 83540 333 83656;
0166033550999992000092808504+53820-001200FM-15+0009EGXG V0201801N003610084019N0112651N1+01101+01001999999ADDGA1021+001809999GA2081+008409999GF108991999999999999999999MA1099591999999MW1001REMMET056EGXG 280850Z 18007KT 9999 FEW006 OVC028 11/10 Q0996 BLU;EQDQ01+000000PRSWM2
0158033550999992000100509004+53820-001200FM-12+0009EGXG V0202901N005712200019N0400001N1+01061+00541101161ADDAY181031GA1011+004509099GF102991021091004501001001MD1210151+9999MW1011REMSYN076AAXX  05094 03355 41482 22911 10106 20054 40116 52015 7018/ 82900 333 81915;
0168033550999992000100514504+53820-001200FM-15+0009EGXG V0203001N006212200019N0112651N1+01301+00401999999ADDGA1021+007509099GA2021+066009999GF104991999999999999999999MA1101391999999MW1001REMMET058EGXG 051450Z 30012KT 9999 FEW025CB SCT220 13/04 Q1014 BLU;EQDQ01+000000PRSWM2
0144033550999992000101715004+53820-001200FM-12+0009EGXG V0202101N006710750019N0400001N1+01321+00371101871ADDGA1011+013509089GF105991011011012501031021MD1610121+9999REMSYN076AAXX  17154 03355 42682 52113 10132 20037 40187 56012 81132 333 81845 85075;
0186033550999992000102415504+53820-001200FM-15+0009EGXG V0202401N005110240019N0112651N1+01101+00701999999ADDGA1021+006009999GA2081+024009999GF108991999999999999999999MA1101191999999MW1611REMMET060EGXG 241550Z 24010KT 9999 -RA FEW020 OVC080 11/07 Q1012 BLU;EQDQ01+000003PRSWM1Q02    003PRSWM1
0177033550999992000102508504+53820-001200FM-15+0009EGXG V0202701N012310054019N0112651N1+01301+00801999999ADDGA1021+004509999GA2071+005409999GF107991999999999999999999MA1099591999999MW1001OC101751REMMET059EGXG 250850Z 27024G34KT 9999 FEW015 BKN018 13/08 Q0996 WHT;EQDQ01+000000PRSWM2
0196033550999992000103016504+53820-001200FM-15+0009EGXG V0202501N008710084019N0112651N1+00801+00501999999ADDGA1021+005409999GA2081+008409999GF108991999999999999999999MA1097191999999MW1631OC101491REMMET062EGXG 301650Z 25017G29KT 9999 RA SCT018 OVC028 08/05 Q0972 WHT;EQDQ01+000003PRSWM1Q02    003PRSWM1
0172033550999992000110115004+53820-001200FM-12+0009EGXG V0203201N00311004201CN0060001N1+00451+00401098711ADDAY181031AY261031GA1021+004509079GF108991081051004501999999MD1310051+9999MW1631REMSYN082AAXX  01154 03355 41456 83206 10045 20040 49871 53005 76386 885// 333 82715 88620;
0172033550999992000110714004+53820-001200FM-12+0009EGXG V0200201N004110030019N0070001N1+00911+00831098071ADDAY161999AY261999GA1061+003009079GF108991081051004501999999MD1710041+9999MW1611REMSYN082AAXX  07144 03355 41457 80208 10091 20083 49807 57004 76166 885// 333 86710 88630;
0144033550999992000111012004+53820-001200FM-12+0009EGXG V0202501N00571030001CN0350001N1+00891+00251101121ADDGA1011+007809089GF106991011081008001081021MD1010031+9999REMSYN076AAXX  10124 03355 42581 62511 10089 20025 40112 50003 81882 333 81826 85070;
0166033550999992000111311504+53820-001200FM-15+0009EGXG V0202401N006710600019N0112651N1+01001+00401999999ADDGA1021+006009999GA2071+060009999GF107991999999999999999999MA1099291999999MW1001REMMET056EGXG 131150Z 24013KT 9999 FEW020 BKN200 10/04 Q0993 BLU;EQDQ01+000000PRSWM2
0131033550999992000111411004+53820-001200FM-12+0009EGXG V0201001N001019999999N0070001N1+00601+00491999999ADDGF107991999999004501999999REMSYN093AAXX  14114 03355 41457 71002 10060 20049 4012 52017 72162 878// 333 82615 86630 87650 96004;
0144033550999992000111708004+53820-001200FM-12+0009EGXG V0202301N003112200019N0350001N1+00371+00171100531ADDGA1011+006009089GF103991031081008001031011MD1310121+9999REMSYN076AAXX  17084 03355 42581 32306 10037 20017 40053 53012 83831 333 81820 83650;
0138033550999992000120509004+53820-001200FM-12+0009EGXG V0201701N007210048019N0250001N1+01231+00981099611ADDGA1081+004809059GF108991081051004501999999MD1510181+9999REMSYN070AAXX  05094 03355 42475 81714 10123 20098 49961 55018 885// 333 88616;
0189033550999992000120616504+53820-001200FM-15+0009EGXG V0201601N005710600019N0112651N1+01001+00801999999ADDGA1021+005409999GA2021+015009999GA3071+060009999GF107991999999999999999999MA1100001999999MW1001REMMET063EGXG 061650Z 16011KT 9999 FEW018 SCT050 BKN200 10/08 Q1000 BLU;EQDQ01+000000PRSWM2
0138033550999992000121108004+53820-001200FM-12+0009EGXG V0202501N002610084019N0250001N1+01311+00981100531ADDGA1071+008409059GF107991071051008001999999MD1310451+9999REMSYN070AAXX  11084 03355 42575 72505 10131 20098 40053 53045 875// 333 87628;
0262033550999992000121209004+53820-001200SY-MT+0009EGXG V0201901N00671075001CN0250001N1+01181+00861100341ADDGA1021+006609999GA2021+039009999GF105991011051008001031011MA1100311999999MD1510011+9999MW1001REMSYN076AAXX  12094 03355 42575 51913 10118 20086 40034 55001 81531 333 81625 84363;MET056EGXG 120900Z 18012KT 9999 SCT022 SCT130 12/09 Q1003 WHT;EQDQ01+000000PRSWM2
0166033550999992000121415504+53820-001200FM-15+0009EGXG V0202701N004610072019N0112651N1+00701+00301999999ADDGA1021+004809999GA2071+007209999GF107991999999999999999999MA1099801999999MW1001REMMET056EGXG 141550Z 27009KT 9999 FEW016 BKN024 07/03 Q0998 WHT;EQDQ01+000000PRSWM2
0089033723999992000021108504+52970-000570FM-16+0112EGYE V0202401N00821220001CN0099001N1+99999+99999999999ADDMA1102301999999MW1001REMMET037EGYE 110750Z 24016KT CAVOK Q1023 BLU;EQDQ01+000000PRSWM2
0171033723999992000030212504+52970-000570FM-16+0112EGYE V0202301N012910360019N0112651N1+99999+99999999999ADDGA1021+003909999GA2081+036009999GF108991999999999999999999MA1101021999999MW1001OC101801REMMET053EGYE 021150Z 23025G35KT 9999 SCT013 OVC120 Q1010 GRN;EQDQ01+000000PRSWM2
0160033723999992000030609504+52970-000570FM-16+0112EGYE V0202301N009312200019N0112651N1+99999+99999999999ADDGA1021+004509999GA2021+021009999GF104991999999999999999999MA1102201999999MW1001REMMET050EGYE 060850Z 23018KT 9999 SCT015 SCT070 Q1022 WHT;EQDQ01+000000PRSWM2
0160033723999992000031611504+52970-000570FM-16+0112EGYE V0203001N005110120019N0112651N1+99999+99999999999ADDGA1021+005109999GA2071+012009999GF107991999999999999999999MA1103291999999MW1001REMMET050EGYE 161050Z 30010KT 9999 FEW017 BKN040 Q1033 BLU;EQDQ01+000000PRSWM2
0146033723999992000032214504+52970-000570FM-16+0112EGYE V0209999C000012200019N0060001N1+99999+99999999999ADDGA1021+015009999GF104991999999999999999999MA1101491999999MW1001MW2051REMMET046EGYE 221350Z 00000KT 6000 HZ SCT050 Q1015 WHT;EQDQ01+000003PRSWM1
0197033723999992000032709504+52970-000570FM-16+0112EGYE V0203601N008212200019N0080001N1+99999+99999999999ADDGA1021+001809999GA2021+003009999GA3021+004509029GF102991999999999999999999MA1101491999999MW1001MW2161REMMET065EGYE 270850Z 36016KT 8000 VCSH SCT006 SCT010 FEW015TCU Q1015 YLO;EQDQ01+000003PRSWM1
0137033723999992000041812504+52970-000570FM-16+0112EGYE V0202001N007712200019N0112651N1+99999+99999999999ADDGA1021+008109999GF104991999999999999999999MA1100001999999MW1001REMMET043EGYE 181150Z 20015KT 9999 SCT027 Q1000 BLU;EQDQ01+000000PRSWM2
0169033723999992000051510504+52970-000570FM-16+0112EGYE V0201601N004110600019N0035001N1+99999+99999999999ADDGA1021+006009999GA2071+060009999GF107991999999999999999999MA1101691999999MW1001MW2051REMMET053EGYE 150950Z 16008KT 3500 HZ FEW020 BKN200 Q1017 YLO;EQDQ01+000003PRSWM1
0137033723999992000051614504+52970-000570FM-16+0112EGYE V0202101N007712200019N0112651N1+99999+99999999999ADDGA1021+009009999GF104991999999999999999999MA1100711999999MW1001REMMET043EGYE 161350Z 21015KT 9999 SCT030 Q1007 BLU;EQDQ01+000000PRSWM2
0160033723999992000051715504+52970-000570FM-16+0112EGYE V0202401N008210180019N0112651N1+99999+99999999999ADDGA1021+009009999GA2071+018009999GF107991999999999999999999MA1100611999999MW1001REMMET050EGYE 171450Z 24016KT 9999 SCT030 BKN060 Q1006 BLU;EQDQ01+000000PRSWM2
0160033723999992000061207504+52970-000570FM-15+0112EGYE V0202401N007710750019N0112651N1+99999+99999999999ADDGA1021+009009999GA2071+075009999GF107991999999999999999999MA1102001999999MW1001REMMET050EGYE 120750Z 24015KT 9999 FEW030 BKN250 Q1020 BLU;EQDQ01+000000PRSWM2
0160033723999992000061209504+52970-000570FM-15+0112EGYE V0202401N007210750019N0112651N1+99999+99999999999ADDGA1021+006009999GA2071+075009999GF107991999999999999999999MA1102101999999MW1001REMMET050EGYE 120950Z 24014KT 9999 FEW020 BKN250 Q1021 BLU;EQDQ01+000000PRSWM2
0146033723999992000062710504+52960-000570FM-15+0112EGYE V0209999C000010045019N0050001N1+99999+99999999999ADDGA1071+004509999GF107991999999999999999999MA1102301999999MW1001MW2051REMMET046EGYE 271050Z 00000KT 5000 HZ BKN015 Q1023 WHT;EQDQ01+000003PRSWM1
0137033723999992000092512504+52960-000570FM-15+0112EGYE V0202401N004112200019N0112651N1+99999+99999999999ADDGA1021+007509999GF104991999999999999999999MA1101801999999MW1001REMMET043EGYE 251250Z 24008KT 9999 SCT025 Q1018 BLU;EQDQ01+000000PRSWM2
0137033723999992000100206504+52960-000570FM-15+0112EGYE V0202301N004110060019N0112651N1+99999+99999999999ADDGA1071+006009999GF107991999999999999999999MA1099801999999MW1001REMMET043EGYE 020650Z 23008KT 9999 BKN020 Q0998 WHT;EQDQ01+000000PRSWM2
0160033723999992000102411504+52960-000570FM-15+0112EGYE V0202401N007710300019N0112651N1+99999+99999999999ADDGA1021+004809999GA2071+030009999GF107991999999999999999999MA1101491999999MW1001REMMET050EGYE 241150Z 24015KT 9999 FEW016 BKN100 Q1015 WHT;EQDQ01+000000PRSWM2
0159033723999992000110611504+52960-000570FM-15+0112EGYE V0201101N004110060019N0112651N1+99999+99999999999ADDGA1021+002109999GA2071+006009999GF107991999999999999999999MA1097391999999MW1001REMMET049EGYE 061150 11008KT 9999 SCT007 BKN020 Q0974 GRN;EQDQ01+000000PRSWM2
0160033723999992000111609504+52960-000570FM-15+0112EGYE V0202701N006710135019N0112651N1+99999+99999999999ADDGA1021+006009999GA2071+013509999GF107991999999999999999999MA1099801999999MW1001REMMET050EGYE 160950Z 27013KT 9999 FEW020 BKN045 Q0998 BLU;EQDQ01+000000PRSWM2
0089033723999992000121310504+52960-000570FM-15+0112EGYE V0202301N00931220001CN0099001N1+99999+99999999999ADDMA1100001999999MW1001REMMET037EGYE 131050Z 23018KT CAVOK Q1000 BLU;EQDQ01+000000PRSWM2
0139033735999992000011315504+53580-000350FM-15+0031EGNJ V0203101N003112200019N0112651N1+00301+00101999999ADDGA1021+007509999GF102991999999999999999999MA1101491999999MW1001REMMET045EGNJ 131550Z 31006KT 9999 FEW025 03/01 Q1015;EQDQ01+000000PRSWM2
0092033735999992000011318504+53580-000350FM-15+0031EGNJ V0203001N00361220001CN0099001N1+00201-00101999999ADDMA1101591999999MW1001REMMET040EGNJ 131850Z 30007KT CAVOK 02/M01 Q1016;EQDQ01+000000PRSWM2
0139033735999992000012319504+53580-000350FM-15+0031EGNJ V0203201N003112200019N0112651N1+00201+00101999999ADDGA1021+006009999GF104991999999999999999999MA1102611999999MW1001REMMET045EGNJ 231950Z 32006KT 9999 SCT020 02/01 Q1026;EQDQ01+000000PRSWM2
0158033735999992000020508504+53580-000350FM-15+0031EGNJ V0202101N006710024019N0040001N1+00901+00801999999ADDGA1071+002409999GF107991999999999999999999MA1102301999999MW1101REMMET048EGNJ 050850Z 21013KT 4000 BR BKN008 09/08 Q1023;EQDQ01+000003PRSWM1Q02    003PRSWM1
0169033735999992000020709504+53580-000350FM-15+0031EGNJ V0202001N008212200019N0070001N1+00501+00301999999ADDGA1021+009009999GF104991999999999999999999MA1100711999999MW1631OC101341REMMET051EGNJ 070950Z 20016G26KT 7000 RA SCT030 05/03 Q1007;EQDQ01+000003PRSWM1Q02    003PRSWM1
0139033735999992000020914504+53580-000350FM-15+0031EGNJ V0202401N009812200019N0112651N1+01001+00301999999ADDGA1021+007509999GF102991999999999999999999MA1101801999999MW1001REMMET045EGNJ 091450Z 24019KT 9999 FEW025 10/03 Q1018;EQDQ01+000000PRSWM2
0162033735999992000021209504+53580-000350FM-15+0031EGNJ V0202301N009812200019N0112651N1+00601+00201999999ADDGA1021+003009999GA2021+006009999GF104991999999999999999999MA1100811999999MW1001REMMET052EGNJ 120950Z 23019KT 9999 FEW010 SCT020 06/02 Q1008;EQDQ01+000000PRSWM2
0139033735999992000021716504+53580-000350FM-15+0031EGNJ V0202101N005712200019N0112651N1+00501+00401999999ADDGA1021+006009999GF104991999999999999999999MA1100911999999MW1001REMMET045EGNJ 171650Z 21011KT 9999 SCT020 05/04 Q1009;EQDQ01+000000PRSWM2
0183033735999992000021723504+53580-000350FM-15+0031EGNJ V0202001N008211800019N0080001N1+00301+00301999999ADDGA1081+180009999GF108991999999999999999999MA1100002999999MW1511MW2611REMMET051EGNJ 172350Z 20016KT 8000 -RADZ OVC600 03/03 Q1000;EQDQ01+100003APOA  Q02+000003PRSWM1Q03    003PRSWM1
0162033735999992000021818504+53580-000350FM-15+0031EGNJ V0202401N007212200019N0112651N1+00701+00601999999ADDGA1021+004509999GA2021+006009999GF104991999999999999999999MA1099591999999MW1001REMMET052EGNJ 181850Z 24014KT 9999 SCT015 SCT020 07/06 Q0996;EQDQ01+000000PRSWM2
0091033735999992000022509504+53580-000350FM-15+0031EGNJ V0202501N00821220001CN0099001N1+00501+00101999999ADDMA1102401999999MW1001REMMET039EGNJ 250950Z 25016KT CAVOK 05/01 Q1024;EQDQ01+000000PRSWM2
0140033735999992000022818504+53580-000350FM-15+0031EGNJ V0202201N007712200019N0112651N1+00501-00101999999ADDGA1021+008109999GF102991999999999999999999MA1100811999999MW1001REMMET046EGNJ 281850Z 22015KT 9999 FEW027 05/M01 Q1008;EQDQ01+000000PRSWM2
0173033735999992000032718504+53580-000350FM-15+0031EGNJ V0200301N008712200019N0112651N1+00501+00201999999ADDGA1021+004509999GA2021+007509999GF104991999999999999999999MA1102201999999MW1001OC101491REMMET055EGNJ 271850Z 03017G29KT 9999 FEW015 SCT025 05/02 Q1022;EQDQ01+000000PRSWM2
0139033735999992000032909504+53580-000350FM-15+0031EGNJ V0200501N007710039019N0080001N1+00501+00301999999ADDGA1071+003909999GF107991999999999999999999MA1102301999999MW1001REMMET045EGNJ 290950Z 05015KT 8000 BKN013 05/03 Q1023;EQDQ01+000000PRSWM2
0147033735999992000033112504+53580-000350FM-15+0031EGNJ V0202001N002612200019N0090001N1+00801+00301999999ADDGA1021+007509999GF104991999999999999999999MA1100611999999MW1001REMMET053EGNJ 311250Z 20005KT 170V240 9000 SCT025 08/03 Q1006;EQDQ01+000000PRSWM2
0139033735999992000040615504+53580-000350FM-15+0031EGNJ V0209999C000012200019N0112651N1+01101+00301999999ADDGA1021+007509999GF104991999999999999999999MA1103181999999MW1001REMMET045EGNJ 061550Z 00000KT 9999 SCT025 11/03 Q1032;EQDQ01+000000PRSWM2
0139033735999992000042311504+53580-000350FM-15+0031EGNJ V02099999999990105019N0112651N1+01401+00801999999ADDGA1071+010509999GF107991999999999999999999MA1100911999999MW1001REMMET045EGNJ 231150Z VRB02KT 9999 BKN035 14/08 Q1009;EQDQ01+000000PRSWM2
0139033735999992000042418504+53580-000350FM-15+0031EGNJ V0201701N001512200019N0112651N1+01201+00701999999ADDGA1021+006609999GF102991999999999999999999MA1100911999999MW1001REMMET045EGNJ 241850Z 17003KT 9999 FEW022 12/07 Q1009;EQDQ01+000000PRSWM2
0158033735999992000050620504+53580-000350FM-15+0031EGNJ V0200401N003612200019N0040001N1+00901+00801999999ADDGA1021+006009999GF102991999999999999999999MA1101691999999MW1051REMMET048EGNJ 062050Z 04007KT 4000 HZ FEW020 09/08 Q1017;EQDQ01+000003PRSWM1Q02    003PRSWM1
0162033735999992000052014504+53580-000350FM-15+0031EGNJ V0202201N004112200019N0112651N1+01401+00601999999ADDGA1021+006009999GA2021+007509999GF104991999999999999999999MA1101081999999MW1001REMMET052EGNJ 201450Z 22008KT 9999 FEW020 SCT025 14/06 Q1011;EQDQ01+000000PRSWM2
0185033735999992000052713504+53580-000350FM-15+0031EGNJ V0202501N007712200019N0112651N1+01401+00401999999ADDGA1021+004509099GA2021+010509999GF104991999999999999999999MA1100101999999MW1161REMMET059EGNJ 271350Z 25015KT 9999 VCSH SCT015CB SCT035 14/04 Q1001;EQDQ01+000003PRSWM1Q02    003PRSWM1
0162033735999992000053116504+53580-000350FM-15+0031EGNJ V0201801N004110084019N0112651N1+01601+00701999999ADDGA1021+006009999GA2071+008409999GF107991999999999999999999MA1101591999999MW1001REMMET052EGNJ 311650Z 18008KT 9999 FEW020 BKN028 16/07 Q1016;EQDQ01+000000PRSWM2
0139033735999992000060910504+53580-000350FM-15+0031EGNJ V0200701N005112200019N0050001N1+01901+01601999999ADDGA1021+010509999GF104991999999999999999999MA1100611999999MW1001REMMET045EGNJ 091050Z 07010KT 5000 SCT035 19/16 Q1006;EQDQ01+000000PRSWM2
0139033735999992000061518504+53570-000350FM-15+0031EGNJ V0200901N003612200019N0112651N1+01301+00601999999ADDGA1021+006009999GF102991999999999999999999MA1102611999999MW1001REMMET045EGNJ 151850Z 09007KT 9999 FEW020 13/06 Q1026;EQDQ01+000000PRSWM2
0099033735999992000061808504+53570-000350FM-15+0031EGNJ V0201101N00261220001CN0099001N1+02301+01701999999ADDMA1102301999999MW1001REMMET047EGNJ 180850Z 11005KT 080V140 CAVOK 23/17 Q1023;EQDQ01+000000PRSWM2
0162033735999992000062111504+53570-000350FM-15+0031EGNJ V0202201N010812200019N0112651N1+01901+01001999999ADDGA1021+004509999GA2021+006909999GF104991999999999999999999MA1100411999999MW1001REMMET052EGNJ 211150Z 22021KT 9999 FEW015 SCT023 19/10 Q1004;EQDQ01+000000PRSWM2
0158033735999992000070216504+53570-000350FM-15+0031EGNJ V0200601N003610009019N0018001N1+01401+01401999999ADDGA1071+000909999GF107991999999999999999999MA1101021999999MW1101REMMET048EGNJ 021650Z 06007KT 1800 BR BKN003 14/14 Q1010;EQDQ01+000003PRSWM1Q02    003PRSWM1
0184033735999992000070908504+53570-000350FM-15+0031EGNJ V0202401N003110039019N0040001N1+01501+01401999999ADDGA1021+002409999GA2071+003909999GF107991999999999999999999MA1099591999999MW1801REMMET058EGNJ 090850Z 24006KT 4000 -SHRA SCT008 BKN013 15/14 Q0996;EQDQ01+000003PRSWM1Q02    003PRSWM1
0139033735999992000071208504+53570-000350FM-15+0031EGNJ V02099999999992200019N0112651N1+01401+00901999999ADDGA1021+007509999GF104991999999999999999999MA1101291999999MW1001REMMET045EGNJ 120850Z VRB03KT 9999 SCT025 14/09 Q1013;EQDQ01+000000PRSWM2
0158033735999992000071906504+53570-000350FM-15+0031EGNJ V02099999999992200019N0030001N1+01301+01301999999ADDGA1021+000609999GF102991999999999999999999MA1102001999999MW1051REMMET048EGNJ 190650Z VRB02KT 3000 HZ FEW002 13/13 Q1020;EQDQ01+000003PRSWM1Q02    003PRSWM1
0158033735999992000072906504+53570-000350FM-15+0031EGNJ V0202401N001512200019N0070001N1+01501+01501999999ADDGA1021+013509999GF104991999999999999999999MA1101391999999MW1051REMMET048EGNJ 290650Z 24003KT 7000 HZ SCT045 15/15 Q1014;EQDQ01+000003PRSWM1Q02    003PRSWM1
0139033735999992000080613504+53570-000350FM-15+0031EGNJ V0203101N005712200019N0112651N1+02501+01601999999ADDGA1021+009009999GF104991999999999999999999MA1102301999999MW1001REMMET045EGNJ 061350Z 31011KT 9999 SCT030 25/16 Q1023;EQDQ01+000000PRSWM2
0162033735999992000080807504+53570-000350FM-15+0031EGNJ V0202801N002612200019N0080001N1+01701+01501999999ADDGA1021+006009999GA2021+010509999GF104991999999999999999999MA1102101999999MW1001REMMET052EGNJ 080750Z 28005KT 8000 SCT020 SCT035 17/15 Q1021;EQDQ01+000000PRSWM2
0162033735999992000081017204+53570-000350FM-15+0031EGNJ V0202701N006212200019N0112651N1+02001+01401999999ADDGA1021+005409999GA2021+007509999GF104991999999999999999999MA1101391999999MW1001REMMET052EGNJ 101720Z 27012KT 9999 FEW018 SCT025 20/14 Q1014;EQDQ01+000000PRSWM2
0147033735999992000081809504+53570-000350FM-15+0031EGNJ V0202301N003612200019N0112651N1+01801+01101999999ADDGA1021+004509999GF104991999999999999999999MA1101021999999MW1001REMMET053EGNJ 180950Z 23007KT 170V270 9999 SCT015 18/11 Q1010;EQDQ01+000000PRSWM2
0162033735999992000082713504+53570-000350FM-15+0031EGNJ V0202401N003112200019N0112651N1+02101+01201999999ADDGA1021+004509999GA2021+010509999GF104991999999999999999999MA1101291999999MW1001REMMET052EGNJ 271350Z 24006KT 9999 FEW015 SCT035 21/12 Q1013;EQDQ01+000000PRSWM2
0139033735999992000082715204+53570-000350FM-15+0031EGNJ V0202401N004112200019N0112651N1+02101+01001999999ADDGA1021+010509999GF104991999999999999999999MA1101291999999MW1001REMMET045EGNJ 271520Z 24008KT 9999 SCT035 21/10 Q1013;EQDQ01+000000PRSWM2
0162033735999992000082917504+53570-000350FM-15+0031EGNJ V0200701N003612200019N0112651N1+01501+01201999999ADDGA1021+006009999GA2021+007509999GF104991999999999999999999MA1102101999999MW1001REMMET052EGNJ 291750Z 07007KT 9999 SCT020 SCT025 15/12 Q1021;EQDQ01+000000PRSWM2
0147033735999992000083015504+53570-000350FM-15+0031EGNJ V0200901N003612200019N0112651N1+01701+01101999999ADDGA1021+006009999GF104991999999999999999999MA1101901999999MW1001REMMET053EGNJ 301550Z 09007KT 060V130 9999 SCT020 17/11 Q1019;EQDQ01+000000PRSWM2
0139033735999992000090921504+53570-000350FM-15+0031EGNJ V0200801N001012200019N0090001N1+01501+01401999999ADDGA1021+007509999GF102991999999999999999999MA1102301999999MW1001REMMET045EGNJ 092150Z 08002KT 9000 FEW025 15/14 Q1023;EQDQ01+000000PRSWM2
0139033735999992000091218504+53570-000350FM-15+0031EGNJ V0202701N005710090019N0112651N1+01801+01301999999ADDGA1071+009009999GF107991999999999999999999MA1100911999999MW1001REMMET045EGNJ 121850Z 27011KT 9999 BKN030 18/13 Q1009;EQDQ01+000000PRSWM2
0162033735999992000091612504+53570-000350FM-15+0031EGNJ V0203401N006710090019N0112651N1+01601+01101999999ADDGA1021+004509999GA2071+009009999GF107991999999999999999999MA1101021999999MW1001REMMET052EGNJ 161250Z 34013KT 9999 FEW015 BKN030 16/11 Q1010;EQDQ01+000000PRSWM2
0120033735999992000092107504+53570-000350FM-15+0031EGNJ V0201801N003112200019N0090001N1+01201+01101999999ADDGF100991999999999999999999MA1101191999999MW1001REMMET042EGNJ 210750Z 18006KT 9000 SKC 12/11 Q1012;EQDQ01+000000PRSWM2
0182033735999992000092717504+53570-000350FM-15+0031EGNJ V0201701N010810075019N0060001N1+01401+01201999999ADDGA1021+004509999GA2071+007509999GF107991999999999999999999MA1100001999999MW1611REMMET056EGNJ 271750Z 17021KT 6000 -RA SCT015 BKN025 14/12 Q1000;EQDQ01+000003PRSWM1Q02    003PRSWM1
0139033735999992000092820504+53570-000350FM-15+0031EGNJ V0201701N003112200019N0112651N1+01101+00801999999ADDGA1021+006009999GF102991999999999999999999MA1099701999999MW1001REMMET045EGNJ 282050Z 17006KT 9999 FEW020 11/08 Q0997;EQDQ01+000000PRSWM2
0184033735999992000101013504+53570-000350FM-15+0031EGNJ V0202301N009312200019N0080001N1+00901+00801999999ADDGA1021+003009999GA2021+004509999GF104991999999999999999999MA1097701999999MW1801REMMET058EGNJ 101350Z 23018KT 8000 -SHRA SCT010 SCT015 09/08 Q0977;EQDQ01+000003PRSWM1Q02    003PRSWM1
0139033735999992000101421504+53570-000350FM-15+0031EGNJ V0201901N005112200019N0090001N1+01101+01001999999ADDGA1021+006009999GF104991999999999999999999MA1101291999999MW1001REMMET045EGNJ 142150Z 19010KT 9000 SCT020 11/10 Q1013;EQDQ01+000000PRSWM2
0162033735999992000102313504+53570-000350FM-15+0031EGNJ V0202201N009810090019N0112651N1+01501+00901999999ADDGA1021+006009999GA2071+009009999GF107991999999999999999999MA1100811999999MW1001REMMET052EGNJ 231350Z 22019KT 9999 SCT020 BKN030 15/09 Q1008;EQDQ01+000000PRSWM2
0162033735999992000102412504+53570-000350FM-15+0031EGNJ V0202201N006212200019N0112651N1+01101+00801999999ADDGA1021+005409999GA2021+007509999GF104991999999999999999999MA1101391999999MW1001REMMET052EGNJ 241250Z 22012KT 9999 FEW018 SCT025 11/08 Q1014;EQDQ01+000000PRSWM2
0162033735999992000103010504+53570-000350FM-15+0031EGNJ V0202501N014910075019N0112651N1+00601+00301999999ADDGA1021+002709999GA2071+007509999GF107991999999999999999999MA1096821999999MW1001REMMET052EGNJ 301050Z 25029KT 9999 SCT009 BKN025 06/03 Q0968;EQDQ01+000000PRSWM2
0120033735999992000111305504+53570-000350FM-15+0031EGNJ V0202001N008212200019N0090001N1+00301+00301999999ADDGF100991999999999999999999MA1099091999999MW1001REMMET042EGNJ 130550Z 20016KT 9000 SKC 03/03 Q0991;EQDQ01+000000PRSWM2
0091033735999992000112006504+53570-000350FM-15+0031EGNJ V0202101N00411220001CN0099001N1+00101+00101999999ADDMA1099191999999MW1001REMMET039EGNJ 200650Z 21008KT CAVOK 01/01 Q0992;EQDQ01+000000PRSWM2
0139033735999992000112019504+53570-000350FM-15+0031EGNJ V0201801N003612200019N0112651N1+00201+00201999999ADDGA1021+006009999GF102991999999999999999999MA1099491999999MW1001REMMET045EGNJ 201950Z 18007KT 9999 FEW020 02/02 Q0995;EQDQ01+000000PRSWM2
0192033735999992000120408504+53570-000350FM-15+0031EGNJ V0201701N011810036019N0050001N1+00901+00801999999ADDGA1021+002409999GA2071+003609999GF107991999999999999999999MA1099591999999MW1631OC101751REMMET058EGNJ 040850Z 17023G34KT 5000 RA SCT008 BKN012 09/08 Q0996;EQDQ01+000003PRSWM1Q02    003PRSWM1
0139033735999992000121209504+53570-000350FM-15+0031EGNJ V0202001N009312200019N0112651N1+01201+01001999999ADDGA1021+009009999GF102991999999999999999999MA1100411999999MW1001REMMET045EGNJ 120950Z 20018KT 9999 FEW030 12/10 Q1004;EQDQ01+000000PRSWM2
0141033735999992000121709504+53570-000350FM-15+0031EGNJ V02099999999992200019N0060001N1-00101-00301999999ADDGA1021+012009999GF104991999999999999999999MA1101291999999MW1001REMMET047EGNJ 170950Z VRB03KT 6000 SCT040 M01/M03 Q1013;EQDQ01+000000PRSWM2
0158033735999992000122216504+53570-000350FM-15+0031EGNJ V0201001N002610021019N0090001N1+00501+00401999999ADDGA1081+002109999GF108991999999999999999999MA1101491999999MW1101REMMET048EGNJ 221650Z 10005KT 9000 BR OVC007 05/04 Q1015;EQDQ01+000003PRSWM1Q02    003PRSWM1
0166033770999992000010104004+53170-000520FM-12+0070EGXW V0202801N003612200019N0007001N1+00621+00601102041ADDAY141011AY201011GA1011+000309069GF101991011061000251001011MD1310201+9999MW1461REMSYN076AAXX  01044 03377 41007 12807 10062 20060 40204 53020 74640 81601 333 81701;
0100033770999992000010602504+53170-000520FM-15+0070EGXW V0202101N00721220001CN0099001N1+01001+00701999999ADDMA1100311999999MW1001REMMET048EGXW 060250Z 21014KT CAVOK 10/07 Q1003 RERA BLU;EQDQ01+000000PRSWM2
0183033770999992000010710504+53170-000520FM-15+0070EGXW V0202101N009810750019N0112651N1+00801+00401999999ADDGA1021+009009999GA2071+075009999GF107991999999999999999999MA1101191999999MW1001OC101541REMMET065EGXW 071050Z 21019G30KT 9999 FEW030 BKN250 08/04 Q1012 BLU NOSIG;EQDQ01+000000PRSWM2
0219033770999992000010712004+53170-000520FM-12+0070EGXW V0202101N010310750019N0200001N1+00811+00541101191ADDAA106000091GA1021+004209069GA2071+075009009GF107991031051004501031021MD1810191+9999OA140101751REMSYN094AAXX  07124 03377 32470 72120 10081 20054 40119 58019 83532 333 82614 87075 90710 91134 91034;EQDQ01  00002PRCP06
0132033770999992000010919004+53170-000520FM-12+0070EGXW V0202301N002612200019N0100001N1+00221+00001103091ADDGA1001+999999999GF100991001001999999001001MD1210221+9999REMSYN064AAXX  09194 03377 42960 02305 10022 20000 40309 52022 333 92600;
0180033770999992000011305504+53170-000520FM-15+0070EGXW V0203201N004610009019N0050001N1+00201+00101999999ADDGA1081+000909999GF108991999999999999999999MA1101191999999MW1611REMMET070EGXW 130550Z 32009KT 5000 -RA OVC003 02/01 Q1012 YLO BECMG SCT007 GRN;EQDQ01+000003PRSWM1Q02    003PRSWM1
0166033770999992000011314004+53170-000520FM-12+0070EGXW V0203201N004110750019N0200001N1+00361+00011101501ADDGA1011+006009089GA2031+027009039GF105991011011008001031021MD1410001+9999REMSYN082AAXX  13144 03377 42570 53208 10036 20001 40150 54000 81132 333 81820 83359 85075;
0170033770999992000011422004+53170-000520FM-12+007099999V0200201N007710054019N0070001N1+00431+00261103051ADDAY161011AY261011GA1081+005409059GF108991081051004501999999MD1210271+9999MW1611REMSYN080    AAXX  14224 03377 41457 80215 10043 20026 40305 52027 76166 885// 333 88618;
0138033770999992000012613004+53170-000520FM-12+0070EGXW V0202301N004610090019N0110001N1+00571+00001103091ADDGA1071+009009059GF107991071051012501999999MD1710041+9999REMSYN070AAXX  26134 03377 42661 72309 10057 20000 40309 57004 875// 333 87630;
0221033770999992000012718004+53170-000520FM-12+0070EGXW V0202401N00621012001CN0090001N1+00441+00021102361ADDAA199000091AY111061AY211061GA1011+009609069GF107991071051012501999999KA1120M+00631MD1810041+9999MW1051REMSYN088AAXX  27184 03377 31659 72412 10044 20002 40236 58004 70511 875// 333 10063 81632 87643;EQDQ01  00002PRCP99
0166033770999992000013009004+53170-000520FM-12+0070EGXW V0202401N004110090019N0300001N1+00791+00571100951ADDAY181031AY221031GA1081+009009059GF108991081051012501999999MD1210071+9999MW1031REMSYN076AAXX  30094 03377 41680 82408 10079 20057 40095 52007 70382 885// 333 88630;
0150033770999992000013014004+53170-000520FM-12+0070EGXW V0202501N009810066019N0450001N1+01251+00811100791ADDGA1071+006609069GF107991071051008001999999MD1610141+9999REMSYN082AAXX  30144 03377 42583 72519 10125 20081 40079 56014 875// 333 87622 90710 91128;
0166033770999992000020122004+53170-000520FM-12+0070EGXW V0202901N002610075019N0150001N1+00751+00531101111ADDAY161011AY221011GA1081+007509059GF108991081051008001999999MD1210141+9999MW1601REMSYN076AAXX  01224 03377 41565 82905 10075 20053 40111 52014 76062 885// 333 88625;
0166033770999992000020311004+53170-000520FM-12+0070EGXW V0202701N003110330019N0300001N1+00661+00331103171ADDGA1021+012009069GA2041+033009039GF107991021051012501031021MD1210131+9999REMSYN082AAXX  03114 03377 42680 72706 10066 20033 40317 52013 82532 333 82640 84361 86075;
0172033770999992000020516004+53170-000520FM-12+0070EGXW V0202301N00671075001CN0090001N1+00791+00471102041ADDAY121011AY221011GA1021+006009069GF107991021051008001001081MD1710221+9999MW1051REMSYN082AAXX  05164 03377 41559 72313 10079 20047 40204 57022 70522 82508 333 82620 87272;
0200033770999992000020517504+53170-000520FM-15+0070EGXW V0202101N005710660019N0070001N1+00701+00501999999ADDGA1021+051009999GA2071+066009999GF107991999999999999999999MA1101901999999MW1051REMMET074EGXW 051750Z 21011KT 7000 HZ FEW170 BKN220 07/05 Q1019 WHT TEMPO 9000 BLU;EQDQ01+000003PRSWM1Q02    003PRSWM1
0200033770999992000020521504+53170-000520FM-15+0070EGXW V0202101N005710750019N0090001N1+00701+00601999999ADDGA1021+009009999GA2071+075009999GF107991999999999999999999MA1101801999999MW1051REMMET074EGXW 052150Z 21011KT 9000 HZ FEW030 BKN250 07/06 Q1018 BLU BECMG 7000 WHT;EQDQ01+000003PRSWM1Q02    003PRSWM1
0183033770999992000020714504+53170-000520FM-15+0070EGXW V0202201N008712200019N0112651N1+01001+00701999999ADDGA1021+003909999GA2021+013509999GF104991999999999999999999MA1099901999999MW1001REMMET073EGXW 071450Z 22017KT 9999 FEW013 SCT045 10/07 Q0999 BLU TEMPO SCT020 WHT;EQDQ01+000000PRSWM2
0231033770999992000020809504+53170-000520FM-15+0070EGXW V0202301N008210060019N0112651N1+00801+00701999999ADDGA1021+002709999GA2021+003909999GA3071+006009999GF107991999999999999999999MA1099291999999MW1611REMMET089EGXW 080950Z 23016KT 9999 -RA FEW009 SCT013 BKN020 08/07 Q0993 GRN TEMPO 7000 BKN006 YLO;EQDQ01+000003PRSWM1Q02    003PRSWM1
0152033770999992000021100004+53170-000520FM-12+0070EGXW V0202301N005712200019N0300001N1+00231-00201102231ADDAA199000091GA1001+999999999GF100991001001999999001001MD1110231+9999REMSYN054AAXX  11004 03377 32980 02311 10023 21020 40223 51023;EQDQ01  00002PRCP99
0122033770999992000021321004+53170-000520FM-12+0070EGXW V0202701N003612200019N0170001N1+00311-00011102411ADDGA1001+999999999GF100991001001999999001001MD1110161+9999REMSYN054AAXX  13214 03377 42967 02707 10031 21001 40241 51016;
0101033770999992000021505504+53170-000520FM-15+0070EGXW V0202501N00511220001CN0099001N1+00301+00101999999ADDMA1101491999999MW1001REMMET049EGXW 150550Z 25010KT CAVOK 03/01 Q1015 BLU NOSIG;EQDQ01+000000PRSWM2
0149033770999992000021617504+53170-000520FM-15+0070EGXW V0202601N005112200019N0112651N1+00201+00001999999ADDGA1021+009009999GF102991999999999999999999MA1099901999999MW1001REMMET055EGXW 161750Z 26010KT 9999 FEW030 02/00 Q0999 BLU NOSIG;EQDQ01+000000PRSWM2
0138033770999992000021811004+53170-000520FM-12+0070EGXW V0202401N006710075019N0300001N1+00671+00291099911ADDGA1071+007509059GF107991071051008001999999MD1710071+9999REMSYN070AAXX  18114 03377 42580 72413 10067 20029 49991 57007 875// 333 87625;
0183033770999992000021816504+53170-000520FM-15+0070EGXW V0202601N007212200019N0112651N1+00701+00401999999ADDGA1021+007509999GA2021+012009999GF104991999999999999999999MA1099701999999MW1001REMMET073EGXW 181650Z 26014KT 9999 SCT025 SCT040 07/04 Q0997 BLU TEMPO SCT018 WHT;EQDQ01+000000PRSWM2
0143033770999992000021900504+53170-000520FM-15+0070EGXW V0203201N005710027019N0112651N1+00501+00401999999ADDGA1081+002709999GF108991999999999999999999MA1100201999999MW1001REMMET049EGXW 190050Z 32011KT 9999 OVC009 05/04 Q1002 GRN;EQDQ01+000000PRSWM2
0172033770999992000021913504+53170-000520FM-15+0070EGXW V0203201N005110135019N0112651N1+00601+00301999999ADDGA1021+004809999GA2071+013509999GF107991999999999999999999MA1101801999999MW1001REMMET062EGXW 191350Z 32010KT 9999 SCT016 BKN045 06/03 Q1018 WHT NOSIG;EQDQ01+000000PRSWM2
0096033770999992000022022504+53170-000520FM-15+0070EGXW V0201701N00511220001CN0099001N1+00201-00101999999ADDMA1102611999999MW1001REMMET044EGXW 202250Z 17010KT CAVOK 02/M01 Q1026 BLU;EQDQ01+000000PRSWM2
0230033770999992000022318004+53170-000520FM-12+0070EGXW V0202101N006710180019N0110001N1+00971+00781101531ADDAA112000791AY161061AY221061GA1041+004809069GA2041+018009069GF108991061051004501999071KA1120M+01041MD1710101+9999MW1011REMSYN100AAXX  23184 03377 11461 82113 10097 20078 40153 57010 69902 70162 865/7 333 10104 84616 84656 88270;
0102033770999992000022519504+53170-000520FM-15+0070EGXW V0202301N00511220001CN0099001N1+00601+00001999999ADDMA1102811999999MW1001REMMET050EGXW 251950Z 23010KT CAVOK 06/M00 Q1028 BLU NOSIG;EQDQ01+000000PRSWM2
0138033770999992000022602004+53170-000520FM-12+0070EGXW V0202201N004610750019N0220001N1+00271-00031102901ADDGA1071+075009019GF107991001001999999001021MD1710041+9999REMSYN070AAXX  26024 03377 42972 72209 10027 21003 40290 57004 80002 333 87075;
0226033770999992000022908504+53170-000520FM-15+0070EGXW V0202001N007210120019N0112651N1+00701+00601999999ADDGA1021+004209999GA2021+006009999GA3071+012009999GF107991999999999999999999MA1099491999999MW1611REMMET084EGXW 290850Z 20014KT 9999 -RA FEW014 SCT020 BKN040 07/06 Q0995 WHT TEMPO BKN012 GRN;EQDQ01+000003PRSWM1Q02    003PRSWM1
0194033770999992000022910004+53170-000520FM-12+0070EGXW V0202101N006210084019N0500001N1+00711+00481099461ADDAY161011AY221011GA1021+004509069GA2051+008409069GF107991071051004501999999MD1710291+9999MW1211REMSYN088AAXX  29104 03377 41484 72112 10071 20048 49946 57029 72162 875// 333 82615 85628 87650;
0138033770999992000030309004+53170-000520FM-12+0070EGXW V0202701N006712200019N0250001N1+00601+00031100201ADDGA1011+006009029GF101991011011008001001011MD1110301+9999REMSYN070AAXX  03094 03377 42575 12713 10060 20003 40020 51030 81101 333 81820;
0240033770999992000030312504+53170-000520FM-15+0070EGXW V0203101N005110135019N0070001N1+00601+00201999999ADDGA1021+006009029GA2021+009009999GA3071+013509999GF107991999999999999999999MA1100511999999MW1801REMMET098EGXW 031250Z 31010KT 7000 -SHRA SCT020TCU SCT030 BKN045 06/02 Q1005 WHT BECMG 9999 NSW SCT030 BLU;EQDQ01+000003PRSWM1Q02    003PRSWM1
0157033770999992000030419004+53170-000520FM-12+0070EGXW V0202801N002112200019N0500001N1+00331-00381102971ADDGA1011+018009059GF101991011041017501999011MD1310171+9999REMSYN070AAXX  04194 03377 42784 12804 10033 21038 40297 53017 81401 333 81656;EQDQ01+000002SCOMCG
0194033770999992000030717004+53170-000520FM-12+0070EGXW V0202501N006710036019N0280001N1+01181+01001101801ADDAY121999AY221999GA1051+003609079GA2051+006009069GF108991061061004501071999MD1210041+9999MW1211REMSYN088AAXX  07174 03377 41478 82513 10118 20100 40180 52004 72122 8667/ 333 85712 85620 86360;
0177033770999992000030818504+53170-000520FM-15+0070EGXW V0202501N010810060019N0050001N1+01301+01201999999ADDGA1081+006009999GF108991999999999999999999MA1101691999999MW1511MW2611REMMET061EGXW 081850Z 25021KT 5000 -RADZ OVC020 13/12 Q1017 WHT NOSIG;EQDQ01+000003PRSWM1Q02    003PRSWM1
0150033770999992000030913004+53170-000520FM-12+0070EGXW V0202801N008210090019N0200001N1+01161+00481102381ADDGA1071+009009069GF107991071051012501999999MD1110211+9999REMSYN082AAXX  09134 03377 42670 72816 10116 20048 40238 51021 875// 333 87630 90710 91128;
0144033770999992000031201004+53170-000520FM-12+0070EGXW V0202401N003112200019N0130001N1+00471+00271102571ADDGA1011+012909069GF104991011051012501001011MD1010021+9999REMSYN076AAXX  12014 03377 42663 42406 10047 20027 40257 50002 81501 333 81643 84075;
0138033770999992000031219004+53170-000520FM-12+0070EGXW V0202701N003612200019N0150001N1+00841+00351102511ADDGA1011+036009079GF101991011001999999031001MD1310081+9999REMSYN070AAXX  12194 03377 42965 12707 10084 20035 40251 53008 81030 333 81362;
0191033770999992000031316504+53170-000520FM-15+0070EGXW V0202301N003110480019N0090001N1+01201+00901999999ADDGA1021+036009999GA2081+048009999GF108991999999999999999999MA1102301999999MW1051REMMET065EGXW 131650Z 23006KT 9000 HZ FEW120 OVC160 12/09 Q1023 BLU NOSIG;EQDQ01+000003PRSWM1Q02    003PRSWM1
0101033770999992000031319504+53170-000520FM-15+0070EGXW V0202601N00361220001CN0099001N1+01201+00801999999ADDMA1102301999999MW1001REMMET049EGXW 131950Z 26007KT CAVOK 12/08 Q1023 BLU NOSIG;EQDQ01+000000PRSWM2
0183033770999992000031410504+53170-000520FM-15+0070EGXW V0203101N007210660019N0112651N1+00901+00101999999ADDGA1021+007509999GA2071+066009999GF107991999999999999999999MA1102101999999MW1001OC101441REMMET065EGXW 141050Z 31014G28KT 9999 FEW025 BKN220 09/01 Q1021 BLU NOSIG;EQDQ01+000000PRSWM2
0217033770999992000031411004+53170-000520FM-12+0070EGXW V0203101N007210660019N0500001N1+00891+00141102131ADDAY121999AY221999GA1011+007509089GA2061+066009009GF107991011011008001001021MD1210131+9999MW1251OA140101541REMSYN100AAXX  14114 03377 41584 73114 10089 20014 40213 52013 72522 81102 333 81825 86072 90710 91130 91028;
0200033770999992000031417004+53170-000520FM-12+0070EGXW V0203001N008210660019N0300001N1+00861+00101102381ADDAY181999AY221999GA1031+008409089GA2061+066009009GF107991051041008001001021MD1210211+9999MW1801REMSYN094AAXX  14174 03377 41580 73016 10086 20010 40238 52021 78082 85402 333 83828 86072 90710 91127;
0096033770999992000031501504+53170-000520FM-15+0070EGXW V0202901N00311220001CN0099001N1+00301-00101999999ADDMA1103011999999MW1001REMMET044EGXW 150150Z 29006KT CAVOK 03/M01 Q1030 BLU;EQDQ01+000000PRSWM2
0149033770999992000031515504+53170-000520FM-15+0070EGXW V0202701N007210075019N0112651N1+00901+00301999999ADDGA1071+007509999GF107991999999999999999999MA1103181999999MW1001REMMET055EGXW 151550Z 27014KT 9999 BKN025 09/03 Q1032 BLU NOSIG;EQDQ01+000000PRSWM2
0187033770999992000031618004+53170-000520FM-12+0070EGXW V0202901N002110135019N0150001N1+01031+00501103341ADDAA199000091GA1071+013509059GF107991071051012501999999KA1120M+01091MD1410001+9999REMSYN076AAXX  16184 03377 32665 72904 10103 20050 40334 54000 875// 333 10109 87645;EQDQ01  00002PRCP99
0177033770999992000032216504+53170-000520FM-15+0070EGXW V0202101N001012200019N0090001N1+01301+00201999999ADDGA1021+030009999GF102991999999999999999999MA1101391999999MW1051REMMET067EGXW 221650Z 21002KT 9000 HZ FEW100 13/02 Q1014 BLU BECMG 7000 WHT;EQDQ01+000003PRSWM1Q02    003PRSWM1
0207033770999992000032310504+53170-000520FM-15+0070EGXW V0201001N008210180019N0023001N1+00701+00601999999ADDGA1021+001509999GA2081+018009999GF108991999999999999999999MA1101291999999MW1101REMMET081EGXW 231050Z 10016KT 2300 BR FEW005 OVC060 07/06 Q1013 YLO BECMG 4000 BKN008 GRN;EQDQ01+000003PRSWM1Q02    003PRSWM1
0195033770999992000032401504+53170-000520FM-15+0070EGXW V0201101N003110030019N0007001N1+00601+00601999999ADDGA1021+000609999GA2081+003009999GF108991999999999999999999MA1100411999999MW1441MW2511REMMET063EGXW 240150Z 11006KT 0700 -DZ FG FEW002 OVC010 06/06 Q1004 RED;EQDQ01+000003PRSWM1Q02    003PRSWM1
0095033770999992000032505504+53170-000520FM-15+0070EGXW V0202101N00361220001CN0099001N1+00301+00201999999ADDMA1100711999999MW1001REMMET043EGXW 250550Z 21007KT CAVOK 03/02 Q1007 BLU;EQDQ01+000000PRSWM2
0205033770999992000032514504+53170-000520FM-15+0070EGXW V0202401N004110120019N0112651N1+00701+00401999999ADDGA1021+006009999GA2071+012009999GF107991999999999999999999MA1100711999999MW1801REMMET079EGXW 251450Z 24008KT 9999 -SHRA FEW020 BKN040 07/04 Q1007 BLU TEMPO SCT020 WHT;EQDQ01+000003PRSWM1Q02    003PRSWM1
0232033770999992000032706004+53170-000520FM-12+0070EGXW V0200101N004610075019N0200001N1+00341+00241101421ADDAA112001091AY181061AY261061GA1031+006009069GF107991071051008001999021IA1099IA2999+00209KA1120N+00301MD1310261+9999MW1031REMSYN100AAXX  27064 03377 11570 70109 10034 20024 40142 53026 60012 70386 875/2 333 20030 31002 83620 87625;
0172033770999992000033009504+53170-000520FM-15+0070EGXW V0200201N006710150019N0112651N1+00601+00201999999ADDGA1021+004809999GA2071+015009999GF107991999999999999999999MA1101691999999MW1001REMMET062EGXW 300950Z 02013KT 9999 FEW016 BKN050 06/02 Q1017 BLU NOSIG;EQDQ01+000000PRSWM2
0177033770999992000040107504+53170-000520FM-15+0070EGXW V0209999C000012200019N0030001N1+00401+00201999999ADDGA1021+030009999GF102991999999999999999999MA1100001999999MW1051REMMET067EGXW 010750Z 00000KT 3000 HZ FEW100 04/02 Q1000 YLO BECMG 6000 WHT;EQDQ01+000003PRSWM1Q02    003PRSWM1
0195033770999992000040321004+53170-000520FM-12+0070EGXW V0200101N011310018019N0090001N1+00181+00071099561ADDAY171031AY261031GA1081+001809079GF108991081071002501999999MD1210111+9999MW1681OA140101851REMSYN094AAXX  03214 03377 41359 80122 10018 20007 49956 52011 76876 887// 333 88706 90710 91136 91033;
0160033770999992000040512504+53170-000520FM-15+0070EGXW V0200301N008212200019N0112651N1+00901+00101999999ADDGA1021+008409999GF104991999999999999999999MA1101901999999MW1001REMMET066EGXW 051250Z 03016KT 9999 SCT028 09/01 Q1019 BLU TEMPO SCT020 WHT;EQDQ01+000000PRSWM2
0206033770999992000040814504+53170-000520FM-15+0070EGXW V0203401N004610300019N0080001N1+01201+00401999999ADDGA1021+024009999GA2071+030009999GF107991999999999999999999MA1102001999999MW1051REMMET080EGXW 081450Z 34009KT 8000 HZ FEW080 BKN100 12/04 Q1020 BLU TEMPO 6000 -SHRA WHT;EQDQ01+000003PRSWM1Q02    003PRSWM1
0172033770999992000041114504+53170-000520FM-15+0070EGXW V0209999C000010054019N0112651N1+00501+00301999999ADDGA1021+003609999GA2081+005409999GF108991999999999999999999MA1098711999999MW1001REMMET062EGXW 111450Z 00000KT 9999 SCT012 OVC018 05/03 Q0987 GRN NOSIG;EQDQ01+000000PRSWM2
0189033770999992000041200004+53170-000520FM-12+0070EGXW V0200101N004110012019N0045001N1+00441+00371098321ADDAA106000591AY161061AY251061GA1061+001209079GF108991081051001501999999MD1710151+9999MW1591REMSYN088AAXX  12004 03377 11245 80108 10044 20037 49832 57015 69941 75965 885// 333 86704 88617;
0206033770999992000042413504+53170-000520FM-15+0070EGXW V0201801N007212200019N0112651N1+01401+00601999999ADDGA1021+005409099GA2021+009009029GF102991999999999999999999MA1101021999999MW1001REMMET096EGXW 241350Z 18014KT 9999 FEW018CB FEW030TCU 14/06 Q1010 RETS BLU TEMPO 6000 -SHRA SCT018CB WHT;EQDQ01+000000PRSWM2
0095033770999992000042421504+53170-000520FM-15+0070EGXW V0201401N00361220001CN0099001N1+01001+00501999999ADDMA1100911999999MW1001REMMET043EGXW 242150Z 14007KT CAVOK 10/05 Q1009 BLU;EQDQ01+000000PRSWM2
0163033770999992000042603504+53170-000520FM-15+0070EGXW V0209999C000010006019N0035001N1+01001+00901999999ADDGA1081+000609999GF108991999999999999999999MA1100411999999MW1611REMMET053EGXW 260350Z 00000KT 3500 -RA OVC002 10/09 Q1004 AMB;EQDQ01+000003PRSWM1Q02    003PRSWM1
0166033770999992000042720004+53170-000520FM-12+0070EGXW V0201101N00511030001CN0200001N1+01181+00901101001ADDGA1011+009009089GA2031+024009039GF107991011021012501081999MD1110061+9999REMSYN082AAXX  27204 03377 42670 71110 10118 20090 40100 51006 8128/ 333 81830 83358 87463;
0162033770999992000050122504+53170-000520FM-15+0070EGXW V0201101N003110006019N0040001N1+00701+00701999999ADDGA1071+000609999GF107991999999999999999999MA1102711999999MW1101REMMET052EGXW 012250Z 11006KT 4000 BR BKN002 07/07 Q1027 AMB;EQDQ01+000003PRSWM1Q02    003PRSWM1
0168033770999992000050620504+53170-000520FM-15+0070EGXW V0200201N004612200019N0060001N1+01101+00901999999ADDGA1021+075009999GF102991999999999999999999MA1101591999999MW1051REMMET058EGXW 062050Z 02009KT 6000 HZ FEW250 11/09 Q1016 WHT NOSIG;EQDQ01+000003PRSWM1Q02    003PRSWM1
0166033770999992000050913004+53170-000520FM-12+0070EGXW V0209999C000010030019N0037001N1+01481+01171101961ADDAY121011AY221011GA1071+003009069GF107991071061004501999999MD1710061+9999MW1051REMSYN076AAXX  09134 03377 41437 70000 10148 20117 40196 57006 70522 876// 333 87710;
0144033770999992000051213004+53170-000520FM-12+0070EGXW V0200501N005719999999N0200001N1+01741+01161102271ADDGA1011+030009039GF105991011001999999041021MD1610061+9999REMSYN076AAXX  12134 03377 42970 50511 10174 20116 40227 56006 81042 333 81360 85075;
0149033770999992000051606504+53170-000520FM-15+0070EGXW V0209999C000012200019N0112651N1+01301+01001999999ADDGA1021+012009999GF102991999999999999999999MA1101081999999MW1001REMMET055EGXW 160650Z 00000KT 9999 FEW040 13/10 Q1011 BLU NOSIG;EQDQ01+000000PRSWM2
0172033770999992000051608504+53170-000520FM-15+0070EGXW V0201901N001512200019N0112651N1+01501+01001999999ADDGA1021+005409999GA2021+011109999GF104991999999999999999999MA1101021999999MW1001REMMET062EGXW 160850Z 19003KT 9999 FEW018 SCT037 15/10 Q1010 BLU NOSIG;EQDQ01+000000PRSWM2
0172033770999992000051720004+53170-000520FM-12+0070EGXW V0202201N005110120019N0048001N1+01021+00811100481ADDAY181999AY261999GA1031+006009089GF108991081081008001999999MD1610081+9999MW1631REMSYN082AAXX  17204 03377 41548 82210 10102 20081 40048 56008 76386 888// 333 83820 88640;
0144033770999992000051904004+53170-000520FM-12+0070EGXW V0202501N004110150019N0200001N1+00841+00621100511ADDGA1011+011109089GF105991051081012501001001MD1810101+9999REMSYN076AAXX  19044 03377 42670 52508 10084 20062 40051 58010 85800 333 81837 85650;
0166033770999992000052123504+53170-000520FM-15+0070EGXW V0201401N002110078019N0112651N1+00901+00801999999ADDGA1021+002409999GA2071+007809999GF107991999999999999999999MA1101021999999MW1001REMMET056EGXW 212350Z 14004KT 9999 FEW008 BKN026 09/08 Q1010 BLU;EQDQ01+000000PRSWM2
0168033770999992000052205504+53170-000520FM-15+0070EGXW V0202201N002612200019N0080001N1+00901+00701999999ADDGA1021+012009999GF102991999999999999999999MA1101191999999MW1051REMMET058EGXW 220550Z 22005KT 8000 HZ FEW040 09/07 Q1012 BLU NOSIG;EQDQ01+000003PRSWM1Q02    003PRSWM1
0138033770999992000052510004+53170-000520FM-12+0070EGXW V0202401N005112200019N0300001N1+01271+00691100741ADDGA1031+007509029GF104991041081008001001021MD1110051+9999REMSYN070AAXX  25104 03377 42580 42410 10127 20069 40074 51005 84802 333 83825;
0101033770999992000052520504+53170-000520FM-15+0070EGXW V0202001N00311220001CN0099001N1+00801+00601999999ADDMA1101191999999MW1001REMMET049EGXW 252050Z 20006KT CAVOK 08/06 Q1012 BLU NOSIG;EQDQ01+000000PRSWM2
0149033770999992000052607504+53170-000520FM-15+0070EGXW V0202101N005110030019N0112651N1+01101+00801999999ADDGA1071+003009999GF107991999999999999999999MA1101021999999MW1001REMMET055EGXW 260750Z 21010KT 9999 BKN010 11/08 Q1010 GRN NOSIG;EQDQ01+000000PRSWM2
0101033770999992000053111504+53170-000520FM-15+0070EGXW V0201901N00261220001CN0099001N1+01501+00601999999ADDMA1101801999999MW1001REMMET049EGXW 311150Z 19005KT CAVOK 15/06 Q1018 BLU NOSIG;EQDQ01+000000PRSWM2
0168033770999992000053112004+53170-000520FM-12+0070EGXW V0201901N002612200019N0500001N1+01541+00561101871ADDAA199000091GA1011+015009029GF102991011011017501001021MD1110041+9999REMSYN070AAXX  31124 03377 32784 21905 10154 20056 40187 51004 81102 333 81850;EQDQ01  00002PRCP99
0166033770999992000060304004+53170-000520FM-12+0070EGXW V0203301N002110001519N0004001N1+01091+01051101781ADDAY141011AY241011GA1081+000159069GF108991081061000251999999MD1310011+9999MW1461REMSYN076AAXX  03044 03377 41004 83304 10109 20105 40178 53001 74644 886// 333 88700;
0172033770999992000060707504+53170-000520FM-15+0070EGXW V0202701N004610750019N0112651N1+01301+00701999999ADDGA1021+006609999GA2071+075009999GF107991999999999999999999MA1102301999999MW1001REMMET062EGXW 070750Z 27009KT 9999 FEW022 BKN250 13/07 Q1023 BLU NOSIG;EQDQ01+000000PRSWM2
0230033770999992000060918004+53170-000520FM-12+0070EGXW V0202301N005110090019N0250001N1+01831+01261100831ADDAA112000791AY161061AY221061GA1011+006909089GA2061+009009069GF108991081081008001999999KA1120M+02101MD1310111+9999MW1211REMSYN100AAXX  09184 03377 11575 82310 10183 20126 40083 53011 69902 72162 888// 333 10210 81823 86630 88650;
0144033770999992000061023004+53170-000520FM-12+0070EGXW V0202001N005712200019N0400001N1+01271+00781101311ADDGA1011+015009069GF103991011051017501041011MD1810051+9999REMSYN076AAXX  10234 03377 42782 32011 10127 20078 40131 58005 81541 333 81650 83075;
0101033770999992000061709504+53170-000520FM-15+0070EGXW V0201701N00771220001CN0099001N1+02101+01401999999ADDMA1102611999999MW1001REMMET049EGXW 170950Z 17015KT CAVOK 21/14 Q1026 BLU NOSIG;EQDQ01+000000PRSWM2
0101033770999992000061911504+53170-000520FM-15+0070EGXW V0202201N00571220001CN0099001N1+02801+01501999999ADDMA1101191999999MW1001REMMET049EGXW 191150Z 22011KT CAVOK 28/15 Q1012 BLU NOSIG;EQDQ01+000000PRSWM2
0206033770999992000062508504+53170-000520FM-15+0070EGXW V0203201N003110105019N0112651N1+01201+00801999999ADDGA1021+005709999GA2071+010509999GA3081+015009999GF108991999999999999999999MA1102201999999MW1001REMMET080EGXW 250850Z 32006KT 9999 SCT019 BKN035 OVC050 12/08 Q1022 WHT BECMG BKN025 BLU;EQDQ01+000000PRSWM2
0166033770999992000070201004+53170-000520FM-12+0070EGXW V0209999C000010001519N0005001N1+01401+01401100971ADDAY141011AY241011GA1081+000159069GF108991081061000251999999MD1010001+9999MW1461REMSYN076AAXX  02014 03377 41005 80000 10140 20140 40097 50000 74644 886// 333 88700;
0166033770999992000070401004+53170-000520FM-12+0070EGXW V0200201N003110003019N0015001N1+01251+01181100991ADDAY121011AY221011GA1081+000309069GF108991081061000251999999MD1710061+9999MW1101REMSYN076AAXX  04014 03377 41015 80206 10125 20118 40099 57006 71022 886// 333 88701;
0166033770999992000070513004+53170-000520FM-12+0070EGXW V0200701N003110090019N0500001N1+01731+01041101451ADDGA1021+006909089GA2041+009009069GF107991051081008001001011MD1110091+9999REMSYN082AAXX  05134 03377 42584 70706 10173 20104 40145 51009 85801 333 82823 84630 85075;
0232033770999992000070604504+53170-000520FM-15+0070EGXW V0201101N004110006019N0040001N1+01201+01201999999ADDGA1021+000309999GA2071+000609999GA3081+006009999GF108991999999999999999999MA1101801999999MW1101REMMET090EGXW 060450Z 11008KT 4000 BR FEW001 BKN002 OVC020 12/12 Q1018 AMB BECMG FEW002 BKN004 YLO;EQDQ01+000003PRSWM1Q02    003PRSWM1
0172033770999992000070613004+53170-000520FM-12+0070EGXW V0200701N00461000601CN0045001N1+01401+01331102031ADDAY151011AY251011GA1021+000609079GF108991081071000751999999MD1110041+9999MW1511REMSYN082AAXX  06134 03377 41145 80709 10140 20133 40203 51004 75155 887// 333 82702 88703;
0138033770999992000070714004+53170-000520FM-12+0070EGXW V0203501N002112200019N0550001N1+01611+00561102041ADDGA1031+012009029GF104991041081012501001001MD1710031+9999REMSYN070AAXX  07144 03377 42685 43504 10161 20056 40204 57003 84800 333 83840;
0144033770999992000070807004+53170-000520FM-12+0070EGXW V0202501N00361002101CN0150001N1+01301+01071101661ADDGA1011+002409079GF106991061051002501999999MD1710051+9999REMSYN076AAXX  08074 03377 42365 62507 10130 20107 40166 57005 865// 333 81708 85625;
0209033770999992000070819504+53170-000520FM-15+0070EGXW V0202301N002110096019N0112651N1+01501+00801999999ADDGA1021+007509999GA2071+009609999GA3081+015009999GF108991999999999999999999MA1101021999999MW1611REMMET067EGXW 081950Z 23004KT 9999 -RA FEW025 BKN032 OVC050 15/08 Q1010 BLU;EQDQ01+000003PRSWM1Q02    003PRSWM1
0172033770999992000071002004+53170-000520FM-12+0070EGXW V0202401N003110105019N0200001N1+01181+01071098871ADDAY161999AY221999GA1051+010509069GF108991081051012501999999MD1710131+9999MW1211REMSYN082AAXX  10024 03377 41670 82406 10118 20107 49887 57013 72162 885// 333 85635 88650;
0149033770999992000071617504+53170-000520FM-15+0070EGXW V0200301N004612200019N0112651N1+01401+00601999999ADDGA1021+010509999GF102991999999999999999999MA1101901999999MW1001REMMET055EGXW 161750Z 03009KT 9999 FEW035 14/06 Q1019 BLU NOSIG;EQDQ01+000000PRSWM2
0144033770999992000071813004+53170-000520FM-12+0070EGXW V0200401N00261012001CN0140001N1+01761+01091102161ADDGA1011+007509089GF107991071081008001999999MD1210031+9999REMSYN076AAXX  18134 03377 42564 70405 10176 20109 40216 52003 878// 333 81825 87656;
0172033770999992000071816504+53170-000520FM-15+0070EGXW V0200501N002112200019N0112651N1+02001+01101999999ADDGA1021+012009999GA2021+075009999GF104991999999999999999999MA1102001999999MW1001REMMET062EGXW 181650Z 05004KT 9999 FEW040 SCT250 20/11 Q1020 BLU NOSIG;EQDQ01+000000PRSWM2
0149033770999992000072019504+53170-000520FM-15+0070EGXW V0200601N007012200019N0112651N1+01501+01101999999ADDGA1021+012009999GF102991999999999999999999MA1102511999999MW1001REMMET055EGXW 201950Z 06007KT 9999 FEW040 15/11 Q1025 BLU NOSIG;EQDQ01+000000PRSWM2
0172033770999992000072617504+53170-000520FM-15+0070EGXW V0201301N003612200019N0112651N1+01901+01301999999ADDGA1021+010509999GA2021+018009999GF104991999999999999999999MA1101021999999MW1001REMMET062EGXW 261750Z 13007KT 9999 FEW035 SCT060 19/13 Q1010 BLU NOSIG;EQDQ01+000000PRSWM2
0138033770999992000072901004+53170-000520FM-12+0070EGXW V0202501N001510270019N0150001N1+01531+01331101441ADDGA1071+027009079GF107991071001999999071999MD1210021+9999REMSYN070AAXX  29014 03377 42965 72503 10153 20133 40144 52002 8707/ 333 87359;
0160033770999992000072910504+53170-000520FM-15+0070EGXW V0202901N002112200019N0112651N1+02101+01301999999ADDGA1021+007509999GF104991999999999999999999MA1101591999999MW1001REMMET066EGXW 291050Z 29004KT 9999 SCT025 21/13 Q1016 BLU TEMPO SCT022 WHT;EQDQ01+000000PRSWM2
0101033770999992000073000504+53170-000520FM-15+0070EGXW V0202801N00211220001CN0099001N1+01501+01301999999ADDMA1101901999999MW1001REMMET049EGXW 300050Z 28004KT CAVOK 15/13 Q1019 BLU NOSIG;EQDQ01+000000PRSWM2
0166033770999992000073008004+53170-000520FM-12+0070EGXW V0202801N000510024019N0070001N1+01521+01301102131ADDAY121999AY221999GA1051+002409069GF105991051061002501001011MD1210121+9999MW1051REMSYN076AAXX  30084 03377 41357 52801 10152 20130 40213 52012 70522 85601 333 85708;
0168033770999992000073012004+53170-000520FM-12+0070EGXW V0202601N00151015001CN0200001N1+02071+01301102171ADDAA199000091GA1041+009609029GF105991051081012501001001MD1110041+9999REMSYN070AAXX  30124 03377 32670 52603 10207 20130 40217 51004 85800 333 84832;EQDQ01  00002PRCP99
0144033770999992000073016004+53170-000520FM-12+0070EGXW V0202101N00151030001CN0250001N1+02271+01151102131ADDGA1011+013509089GF106991011021012501031021MD1710021+9999REMSYN076AAXX  30164 03377 42675 62103 10227 20115 40213 57002 81232 333 81845 85075;
0221033770999992000080315504+53170-000520FM-15+0070EGXW V0200401N004110300019N0112651N1+01801+01101999999ADDGA1021+009009099GA2021+010809029GA3071+030009999GF107991999999999999999999MA1101391999999MW1001REMMET095EGXW 031550Z 04008KT 9999 FEW030CB FEW036TCU BKN100 18/11 Q1014 BLU TEMPO 7000 SHRA SCT020 WHT;EQDQ01+000000PRSWM2
0162033770999992000080611504+53170-000520FM-15+0070EGXW V0202801N00511220001CN0112651N1+02301+01401999999ADDGA1071+010209999GA2021+075009999MA1102301999999MW1001REMMET062EGXW 061150Z 28010KT 9999 BKN034 SCT250 23/14 Q1023 BLU NOSIG;EQDQ01+000042SCOTCVQ02+000000PRSWM2
0158033770999992000080819504+53170-000520FM-15+0070EGXW V0201201N002612200019N0112651N1+01801+01501999999ADDGA1021+010509999GF102991999999999999999999MA1102001999999MW1001REMMET064EGXW 081950Z 12005KT 9999 FEW035 18/15 Q1020 BLU BECMG 7000 WHT;EQDQ01+000000PRSWM2
0180033770999992000080921504+53170-000520FM-15+0070EGXW V0202301N006710060019N0112651N1+01801+01301999999ADDGA1081+006009999GF108991999999999999999999MA1101291999999MW1611REMMET070EGXW 092150Z 23013KT 9999 -RA OVC020 18/13 Q1013 WHT TEMPO SCT025 BLU;EQDQ01+000003PRSWM1Q02    003PRSWM1
0138033770999992000081104004+53170-000520FM-12+0070EGXW V0202901N003610102019N0300001N1+01531+01141101571ADDGA1071+010209059GF107991071051012501999999MD1610041+9999REMSYN070AAXX  11044 03377 42680 72907 10153 20114 40157 56004 875// 333 87634;
0185033770999992000081204004+53170-000520FM-12+0070EGXW V0209999C000012200019N0050001N1+01161+01111101311ADDAY101011AY201011GA1011+015009059GF101991011051017501999001MD1710091+9999MW1111REMSYN076AAXX  12044 03377 41750 10000 10116 20111 40131 57009 71100 81500 333 81650;EQDQ01    003SCOMCG
0232033770999992000081406004+53170-000520FM-12+0070EGXW V0201901N00571004201CN0220001N1+01751+01511101231ADDAA112000191AY151061AY221061GA1011+003909069GF107991071051004501999999IA1019IA2999+01609KA1120N+01641MD1410001+9999MW1031REMSYN100AAXX  14064 03377 11472 71911 10175 20151 40123 54000 69922 70352 875// 333 20164 30016 81613 87635;
0186033770999992000081419504+53170-000520FM-15+0070EGXW V0202301N002612200019N0112651N1+02001+01601999999ADDGA1021+007209029GA2021+018009999GF104991999999999999999999MA1101391999999MW1001REMMET076EGXW 141950Z 23005KT 9999 FEW024TCU SCT060 20/16 Q1014 BLU TEMPO SCT024 WHT;EQDQ01+000000PRSWM2
0144033770999992000081707004+53170-000520FM-12+0070EGXW V0202301N00411030001CN0500001N1+01421+01081100831ADDGA1011+007509089GF105991021081008001031001MD1310061+9999REMSYN076AAXX  17074 03377 42584 52308 10142 20108 40083 53006 82830 333 81825 85358;
0189033770999992000081800004+53170-000520FM-12+0070EGXW V0202501N002619999999N0400001N1+01341+01011101131ADDAA106000191AY181061AY211061GA1031+024009039GF107991071001999999071999MD1710021+9999MW1031REMSYN088AAXX  18004 03377 11982 72505 10134 20101 40113 57002 69921 70381 8707/ 333 83358 86363;
0138033770999992000082004004+53170-000520FM-12+0070EGXW V0202701N003110750019N0250001N1+01051+00851101341ADDGA1051+075009019GF105991001001999999001021MD1010001+9999REMSYN070AAXX  20044 03377 42975 52706 10105 20085 40134 50000 80002 333 85075;
0095033770999992000082201504+53170-000520FM-15+0070EGXW V0209999C00001220001CN0099001N1+01101+01001999999ADDMA1101691999999MW1001REMMET043EGXW 220150Z 00000KT CAVOK 11/10 Q1017 BLU;EQDQ01+000000PRSWM2
0166033770999992000082222004+53170-000520FM-12+0070EGXW V0200601N003612200019N0060001N1+01241+01161102381ADDAY101011AY201011GA1011+075009019GF101991001001999999001011MD1110151+9999MW1101REMSYN076AAXX  22224 03377 41956 10607 10124 20116 40238 51015 71000 80001 333 81075;
0111033770999992000082505504+53170-000520FM-15+0070EGXW V0201201N00151220001CN0099001N1+01101+01001999999ADDMA1102301999999MW1001REMMET059EGXW 250550Z 12003KT CAVOK 11/10 Q1023 BLU BECMG CAVOK BLU;EQDQ01+000000PRSWM2
0177033770999992000082705504+53170-000520FM-15+0070EGXW V0202301N004612200019N0037001N1+01301+01201999999ADDGA1021+018009999GF102991999999999999999999MA1101081999999MW1101REMMET067EGXW 270550Z 23009KT 3700 BR FEW060 13/12 Q1011 GRN BECMG 7000 WHT;EQDQ01+000003PRSWM1Q02    003PRSWM1
0138033770999992000082720004+53170-000520FM-12+0070EGXW V0202001N002610270019N0300001N1+01671+00901101511ADDGA1061+027009079GF106991061001999999031999MD1210091+9999REMSYN070AAXX  27204 03377 42980 62005 10167 20090 40151 52009 8603/ 333 86359;
0157033770999992000082823004+53170-000520FM-12+0070EGXW V0202701N002112200019N0250001N1+01281+01031101801ADDGA1011+024009079GF101991011999999999031001MD1210071+9999REMSYN070AAXX  28234 03377 42975 12704 10128 20103 40180 52007 81030 333 81358;EQDQ01    003SCOLCG
0194033770999992000083115004+53170-000520FM-12+0070EGXW V0201701N006710450019N0280001N1+01911+00831100671ADDGA1021+015009069GA2051+045009039GA3081+054009049GF108991021051017501071999MD1710281+9999REMSYN094AAXX  31154 03377 42778 81713 10191 20083 40067 57028 8257/ 333 82650 85365 88468 90710 91125;
0222033770999992000083121504+53170-000520FM-15+0070EGXW V0201401N004610060019N0028001N1+01401+01301999999ADDGA1021+001809999GA2071+006009999GA3081+015009999GF108991999999999999999999MA1100201999999MW1511MW2611REMMET074EGXW 312150Z 14009KT 2800 -RADZ FEW006 BKN020 OVC050 14/13 Q1002 RERA YLO;EQDQ01+000003PRSWM1Q02    003PRSWM1
0185033770999992000090202004+53170-000520FM-12+0070EGXW V0203001N002612200019N0080001N1+01131+01061100151ADDAY101999AY201999GA1031+024009079GF103991031999999999031001MD1210091+9999MW1101REMSYN076AAXX  02024 03377 41958 33005 10113 20106 40015 52009 71000 83030 333 83358;EQDQ01    003SCOLCG
0149033770999992000090305504+53170-000520FM-15+0070EGXW V0203101N004110135019N0112651N1+00901+00601999999ADDGA1071+013509999GF107991999999999999999999MA1101801999999MW1001REMMET055EGXW 030550Z 31008KT 9999 BKN045 09/06 Q1018 BLU NOSIG;EQDQ01+000000PRSWM2
0095033770999992000090621504+53170-000520FM-15+0070EGXW V0202501N00311220001CN0099001N1+01101+00701999999ADDMA1101081999999MW1001REMMET043EGXW 062150Z 25006KT CAVOK 11/07 Q1011 BLU;EQDQ01+000000PRSWM2
0101033770999992000090917504+53170-000520FM-15+0070EGXW V0209999C00001220001CN0099001N1+01801+01001999999ADDMA1102301999999MW1001REMMET049EGXW 091750Z 00000KT CAVOK 18/10 Q1023 BLU NOSIG;EQDQ01+000000PRSWM2
0172033770999992000091206504+53170-000520FM-15+0070EGXW V0202501N003112200019N0112651N1+01601+01301999999ADDGA1021+006009999GA2021+075009999GF104991999999999999999999MA1100811999999MW1001REMMET062EGXW 120650Z 25006KT 9999 FEW020 SCT250 16/13 Q1008 BLU NOSIG;EQDQ01+000000PRSWM2
0194033770999992000091417004+53170-000520FM-12+0070EGXW V0202101N001010105019N0100001N1+01631+01561101221ADDAY161021AY261021GA1011+001809079GA2051+010509069GF107991051081002501071999MD1710011+9999MW1611REMSYN088AAXX  14174 03377 41360 72102 10163 20156 40122 57001 76166 8587/ 333 81706 85635 87362;
0150033770999992000091822004+53170-000520FM-12+0070EGXW V0201601N001510003019N0004001N1+01041+01041100041ADDAY141011AY241011GA1091+999999999GF109991091999999999999999MD1110041+9999MW1451REMSYN060AAXX  18224 03377 41/04 91603 10104 20104 40004 51004 74544;
0150033770999992000092404004+53170-000520FM-12+0070EGXW V0201101N007212200019N0032001N1+01371+01301101301ADDAY101011AY201011GA1001+999999999GF100991001001999999001001MD1710131+9999MW1101REMSYN060AAXX  24044 03377 41932 01114 10137 20130 40130 57013 71000;
0200033770999992000092406504+53170-000520FM-15+0070EGXW V0201201N007712200019N0037001N1+01401+01301999999ADDGA1021+000909999GA2021+075009999GF104991999999999999999999MA1101291999999MW1101REMMET074EGXW 240650Z 12015KT 3700 BR FEW003 SCT250 14/13 Q1013 GRN BECMG 5000 WHT;EQDQ01+000003PRSWM1Q02    003PRSWM1
0149033770999992000092512504+53170-000520FM-15+0070EGXW V0202201N004112200019N0112651N1+01701+01001999999ADDGA1021+006909999GF104991999999999999999999MA1101801999999MW1001REMMET055EGXW 251250Z 22008KT 9999 SCT023 17/10 Q1018 WHT NOSIG;EQDQ01+000000PRSWM2
0101033770999992000092804504+53170-000520FM-15+0070EGXW V0202101N00411220001CN0099001N1+01001+00901999999ADDMA1099591999999MW1001REMMET049EGXW 280450Z 21008KT CAVOK 10/09 Q0996 BLU NOSIG;EQDQ01+000000PRSWM2
0216033770999992000093012504+53170-000520FM-15+0070EGXW V0200901N001510180019N0112651N1+01701+01301999999ADDGA1021+006009999GA2071+018009999GF107991999999999999999999MA1100411999999MW1801REMMET090EGXW 301250Z 09003KT 9999 -SHRA FEW020 BKN060 17/13 Q1004 BLU TEMPO 7000 -SHRA BKN020 WHT;EQDQ01+000003PRSWM1Q02    003PRSWM1
0185033770999992000093020504+53170-000520FM-15+0070EGXW V0200701N001510024019N0025001N1+01301+01301999999ADDGA1021+000609999GA2071+002409999GF107991999999999999999999MA1100711999999MW1101REMMET059EGXW 302050Z 07003KT 2500 BR SCT002 BKN008 13/13 Q1007 AMB;EQDQ01+000003PRSWM1Q02    003PRSWM1
0183033770999992000100100004+53170-000520FM-12+0070EGXW V0201601N00261000301CN0016001N1+01241+01221100791ADDAA199000021AY141061AY221061GA1031+000159079GF107991071051000251999999MD1110061+9999MW1281REMSYN082AAXX  01004 03377 31016 71605 10124 20122 40079 51006 72842 875// 333 83700 86623;
0195033770999992000100116504+53170-000520FM-15+0070EGXW V0201601N004610750019N0112651N1+01501+01001999999ADDGA1021+011409999GA2021+021009999GA3071+075009999GF107991999999999999999999MA1099901999999MW1001REMMET069EGXW 011650Z 16009KT 9999 FEW038 SCT070 BKN250 15/10 Q0999 BLU NOSIG;EQDQ01+000000PRSWM2
0144033770999992000100205004+53170-000520FM-12+0070EGXW V0202101N003612200019N0150001N1+01031+00931099771ADDGA1011+004509069GF103991031051004501001001MD1310061+9999REMSYN076AAXX  02054 03377 42465 32107 10103 20093 49977 53006 83500 333 81615 83640;
0160033770999992000100311504+53170-000520FM-15+0070EGXW V0202001N007710039019N0112651N1+01601+01301999999ADDGA1071+003909999GF107991999999999999999999MA1101391999999MW1001REMMET066EGXW 031150Z 20015KT 9999 BKN013 16/13 Q1014 GRN BECMG BKN018 WHT;EQDQ01+000000PRSWM2
0138033770999992000100421004+53170-000520FM-12+0070EGXW V0201801N003610144019N0300001N1+01081+00681101631ADDGA1061+014409059GF106991061051012501999999MD1710061+9999REMSYN070AAXX  04214 03377 42680 61807 10108 20068 40163 57006 865// 333 86648;
0095033770999992000100421504+53170-000520FM-15+0070EGXW V0202001N00511220001CN0099001N1+01201+00701999999ADDMA1101591999999MW1001REMMET043EGXW 042150Z 20010KT CAVOK 12/07 Q1016 BLU;EQDQ01+000000PRSWM2
0095033770999992000100821504+53170-000520FM-15+0070EGXW V0202101N00211220001CN0099001N1+00801+00501999999ADDMA1101291999999MW1001REMMET043EGXW 082150Z 21004KT CAVOK 08/05 Q1013 BLU;EQDQ01+000000PRSWM2
0095033770999992000100823504+53170-000520FM-15+0070EGXW V0202101N00211220001CN0099001N1+00601+00501999999ADDMA1101191999999MW1001REMMET043EGXW 082350Z 21004KT CAVOK 06/05 Q1012 BLU;EQDQ01+000000PRSWM2
0191033770999992000101801504+53170-000520FM-15+0070EGXW V0201601N009810135019N0112651N1+01001+00901999999ADDGA1021+005409999GA2081+013509999GF108991999999999999999999MA1101191999999MW1611REMMET065EGXW 180150Z 16019KT 9999 -RA FEW018 OVC045 10/09 Q1012 RERA BLU;EQDQ01+000003PRSWM1Q02    003PRSWM1
0095033770999992000102202504+53170-000520FM-15+0070EGXW V0209999C00001220001CN0099001N1+00701+00701999999ADDMA1102401999999MW1001REMMET043EGXW 220250Z 00000KT CAVOK 07/07 Q1024 BLU;EQDQ01+000000PRSWM2
0172033770999992000102214504+53170-000520FM-15+0070EGXW V0201701N004110135019N0112651N1+01201+01001999999ADDGA1021+002709999GA2071+013509999GF107991999999999999999999MA1102001999999MW1001REMMET062EGXW 221450Z 17008KT 9999 SCT009 BKN045 12/10 Q1020 GRN NOSIG;EQDQ01+000000PRSWM2
0143033770999992000102821504+53170-000520FM-15+0070EGXW V0202301N010312200019N0112651N1+00901+00401999999ADDGA1021+012009999GF102991999999999999999999MA1099291999999MW1001REMMET049EGXW 282150Z 23020KT 9999 FEW040 09/04 Q0993 BLU;EQDQ01+000000PRSWM2
0197033770999992000102912004+53170-000520FM-12+0070EGXW V0202201N011812200019N0450001N1+01031+00341099751ADDAA199000091GA1031+008409089GF104991031011008001001021MD1010021+9999OA140101751REMSYN088AAXX  29124 03377 32583 42223 10103 20034 49975 50002 83102 333 83828 90710 91134 91033;EQDQ01  00002PRCP99
0195033770999992000110514334+53170-000520FM-16+0070EGXW V0201001N005110420019N0112651N1+00801+00601999999ADDGA1021+003609999GA2071+042009999GA3081+060009999GF108991999999999999999999MA1099591999999MW1001REMMET069EGXW 051433Z 10010KT 9999 FEW012 BKN140 OVC200 08/06 Q0996 BLU NOSIG;EQDQ01+000000PRSWM2
0186033770999992000110623504+53170-000520FM-15+0070EGXW V0200401N005110135019N0112651N1+00801+00801999999ADDGA1021+002409999GA2081+013509999GF108991999999999999999999MA1097491999999MW1611REMMET060EGXW 062350Z 04010KT 9999 -RA FEW008 OVC045 08/08 Q0975 BLU;EQDQ01+000003PRSWM1Q02    003PRSWM1
0171033770999992000110702504+53170-000520FM-15+0070EGXW V0200301N006210120019N0112651N1+00901+00801999999ADDGA1021+006009999GA2071+012009999GF107991999999999999999999MA1097491999999MW1001REMMET061EGXW 070250Z 03012KT 9999 FEW020 BKN040 09/08 Q0975 RERA BLU;EQDQ01+000000PRSWM2
0149033770999992000111215504+53170-000520FM-15+0070EGXW V0202101N005710126019N0112651N1+00901+00301999999ADDGA1071+012609999GF107991999999999999999999MA1098981999999MW1001REMMET055EGXW 121550Z 21011KT 9999 BKN042 09/03 Q0990 BLU NOSIG;EQDQ01+000000PRSWM2
0172033770999992000111218504+53170-000520FM-15+0070EGXW V0202201N006210150019N0112651N1+00701+00201999999ADDGA1021+009609999GA2071+015009999GF107991999999999999999999MA1099091999999MW1001REMMET062EGXW 121850Z 22012KT 9999 FEW032 BKN050 07/02 Q0991 BLU NOSIG;EQDQ01+000000PRSWM2
0122033770999992000111305004+53170-000520FM-12+0070EGXW V0202101N005712200019N0250001N1+00371+00211099311ADDGA1001+999999999GF100991001001999999001001MD1210071+9999REMSYN054AAXX  13054 03377 42975 02111 10037 20021 49931 52007;
0095033770999992000111323504+53170-000520FM-15+0070EGXW V0202101N00461220001CN0099001N1+00401+00201999999ADDMA1099801999999MW1001REMMET043EGXW 132350Z 21009KT CAVOK 04/02 Q0998 BLU;EQDQ01+000000PRSWM2
0160033770999992000111423004+53170-000520FM-12+0070EGXW V0209999C000012200019N0007001N1+00301+00251100641ADDAY141999AY201999GA1001+999999999GF100991001001999999001001MD1210081+9999MW1411REMSYN070AAXX  14234 03377 41907 00000 10030 20025 40064 52008 74140 333 92600;
0143033770999992000111704504+53170-000520FM-15+0070EGXW V0202201N003112200019N0112651N1+00201+00101999999ADDGA1021+009009999GF102991999999999999999999MA1100611999999MW1001REMMET049EGXW 170450Z 22006KT 9999 FEW030 02/01 Q1006 BLU;EQDQ01+000000PRSWM2
0194033770999992000111708004+53170-000520FM-12+0070EGXW V0202301N005110150019N0250001N1+00291+00161100721ADDAY181999AY221999GA1011+007509089GA2041+015009069GF107991051081008001001021MD1210081+9999MW1251REMSYN088AAXX  17084 03377 41575 72310 10029 20016 40072 52008 72582 85802 333 81825 84650 86072;
0144033770999992000111810004+53170-000520FM-12+0070EGXW V0202101N006210150019N0250001N1+00611+00391100511ADDGA1061+015009069GF107991061051017501071999MD1710221+9999REMSYN076AAXX  18104 03377 42775 72112 10061 20039 40051 57022 8657/ 333 86650 86362;
0195033770999992000112600004+53170-000520FM-12+0070EGXW V0201901N012912200019N0300001N1+00691+00231098081ADDAA106000791AY181061AY211061GA1021+075009009GF102991001001999999001021MD1610261+9999MW1031REMSYN094AAXX  26004 03377 11980 21925 10069 20023 49808 56026 69901 70381 80002 333 82075 90710 91141;
0200033770999992000112608004+53170-000520FM-12+0070EGXW V0202401N011310066019N0400001N1+00741+00431098301ADDAY161999AY261999GA1051+006609069GA2071+009009069GF107991071051008001999999MD1310491+9999MW1611REMSYN094AAXX  26084 03377 41582 72422 10074 20043 49830 53049 76166 875// 333 85622 87630 90710 91132;
0200033770999992000120110004+53170-000520FM-12+0070EGXW V0201701N007710021019N0110001N1+01091+01011099881ADDAY161011AY261011GA1071+002109079GA2081+009009069GF108991081051002501999999MD1510031+9999MW1611REMSYN094AAXX  01104 03377 41361 81715 10109 20101 49988 55003 76166 885// 333 87707 88630 90710 91127;
0172033770999992000120508004+53170-000520FM-12+0070EGXW V0201601N010810390019N0150001N1+01111+00941099891ADDGA1011+003609069GA2071+039009049GF107991011051004501021999MD1710301+9999REMSYN088AAXX  05084 03377 42465 71621 10111 20094 49989 57030 8152/ 333 81612 87463 90710 91128;
0239033770999992000120518224+53170-000520FM-16+0070EGXW V0201601N008210150019N0112651N1+01101+01001999999ADDGA1021+003009999GA2021+005409999GA3081+015009999GF108991999999999999999999MA1099701999999MW1511MW2611REMMET091EGXW 051822Z 16016KT 9999 -RADZ SCT010 SCT018 OVC050 11/10 Q0997 RERA GRN TEMPO SCT018 WHT;EQDQ01+000003PRSWM1Q02    003PRSWM1
0234033770999992000120714364+53170-000520FM-16+0070EGXW V0200901N006210330019N0070001N1+00801+00801999999ADDGA1021+000609999GA2021+024009999GA3071+033009999GF107991999999999999999999MA1099701999999MW1101REMMET092EGXW 071436Z 09012KT 7000 BR FEW002 SCT080 BKN110 08/08 Q0997 WHT BECMG 4500 -RA BKN004 YLO;EQDQ01+000003PRSWM1Q02    003PRSWM1
0143033770999992000120821504+53170-000520FM-15+0070EGXW V0202001N008212200019N0112651N1+00801+00401999999ADDGA1021+012009999GF102991999999999999999999MA1099291999999MW1001REMMET049EGXW 082150Z 20016KT 9999 FEW040 08/04 Q0993 BLU;EQDQ01+000000PRSWM2
0149033770999992000121310504+53170-000520FM-15+0070EGXW V0202201N010312200019N0112651N1+00901+00501999999ADDGA1021+012009999GF102991999999999999999999MA1099901999999MW1001REMMET055EGXW 131050Z 22020KT 9999 FEW040 09/05 Q0999 BLU NOSIG;EQDQ01+000000PRSWM2
0143033770999992000121323504+53170-000520FM-15+0070EGXW V0202401N007212200019N0112651N1+00601+00301999999ADDGA1021+006909999GF102991999999999999999999MA1100201999999MW1001REMMET049EGXW 132350Z 24014KT 9999 FEW023 06/03 Q1002 BLU;EQDQ01+000000PRSWM2
0168033770999992000121412004+53170-000520FM-12+0070EGXW V0202301N005112200019N0150001N1+00621+00321100041ADDAA199000021GA1011+024009079GF101991011999999999031001MD1810081+9999REMSYN070AAXX  14124 03377 32965 12310 10062 20032 40004 58008 81030 333 81358;EQDQ01    003SCOLCG
0122033770999992000121511004+53170-000520FM-12+0070EGXW V0203101N004112200019N0400001N1+00311-00181100921ADDGA1001+999999999GF100991001001999999001001MD1110201+9999REMSYN054AAXX  15114 03377 42982 03108 10031 21018 40092 51020;
0172033770999992000122405004+53170-000520FM-12+0070EGXW V0200501N00461001201CN0040001N1+00381+00361100571ADDAY161999AY261999GA1031+000909079GF108991081051001501999999MD1610101+9999MW1611REMSYN082AAXX  24054 03377 41240 80509 10038 20036 40057 56010 76166 885// 333 83703 88615;
0189033770999992000122516334+53170-000520FM-16+0070EGXW V0200601N006212200019N0112651N1+00101-00101999999ADDGA1021+007509999GA2021+018009999GF104991999999999999999999MA1100311999999MW1851REMMET063EGXW 251633Z 06012KT 9999 -SHSN SCT025 SCT060 01/M01 Q1003 BLU;EQDQ01+000003PRSWM1Q02    003PRSWM1
0096033790999992000010120004+53030-000500FM-12+0067EGYD V0202001N004119999999N0047001N1+00211+00161102501ADDMD1010001+9999REMSYN070AAXX  01204 03379 46/47 /2008 10021 20016 40250 50000 555 7/090 80/99;
0138033790999992000010423004+53030-000500FM-12+0067EGYD V0202301N006712200019N0300001N1+00231-00111101481ADDGA1011+066009019GF101991001001999999001021MD1210201+9999REMSYN070AAXX  04234 03379 42980 12313 10023 21011 40148 52020 80002 333 81072;
0150033790999992000011017004+53030-000500FM-12+0067EGYD V0202101N009310180019N0250001N1+00501+00231103071ADDGA1061+018009069GF107991061051017501999021MD1610061+9999REMSYN082AAXX  10174 03379 42775 72118 10050 20023 40307 56006 865/2 333 86656 90710 91126;
0144033790999992000011023004+53030-000500FM-12+0067EGYD V0202101N008210081019N0250001N1+00631+00351103021ADDGA1051+008109069GF107991051051008001071999MD1210021+9999REMSYN076AAXX  10234 03379 42575 72116 10063 20035 40302 52002 8557/ 333 85627 87357;
0144033790999992000011109004+53030-000500FM-12+0067EGYD V0202301N00821004201CN0220001N1+00731+00551102991ADDGA1011+003009079GF107991061051004501031011MD1310021+9999REMSYN076AAXX  11094 03379 42472 72316 10073 20055 40299 53002 86531 333 81710 86625;
0172033790999992000011114004+53030-000500FM-12+0067EGYD V0202201N010310072019N0250001N1+01001+00591102771ADDGA1011+004209089GA2071+007209069GF107991071081004501999999MD1710191+9999REMSYN088AAXX  11144 03379 42475 72220 10100 20059 40277 57019 878// 333 81814 87624 90710 91128;
0172033790999992000011213004+53030-000500FM-12+0067EGYD V0202101N009310135019N0300001N1+00921+00521101831ADDGA1021+005409069GA2071+013509069GF107991071051004501031999MD1810171+9999REMSYN088AAXX  12134 03379 42480 72118 10092 20052 40183 58017 8753/ 333 82618 87645 90710 91129;
0194033790999992000011310004+53030-000500FM-12+0067EGYD V0203201N004610084019N0200001N1+00191+00081101521ADDAY161011AY251011GA1011+001809079GA2051+008409069GF107991071051002501999999MD1210171+9999MW1211REMSYN088AAXX  13104 03379 41370 73209 10019 20008 40152 52017 72165 875// 333 81706 85628 87643;
0226033790999992000011413004+53030-000500FM-12+006799999V0203201N007710015019N0070001N1+00351+00251102371ADDAY181011AY261011GA1051+001509079GA2051+002409079GA3081+003309079GF108991081071001501999999MD1810021+9999MW1611REMSYN104    AAXX  14134 03379 41257 83215 10035 20025 40237 58002 76186 887// 333 85705 85708 88711 90710 91125;
0100033790999992000011423004+53030-000500FM-12+006799999V0200201N008219999999N0090001N1+00471+00171103071ADDMD1210251+9999REMSYN074    AAXX  14234 03379 46/59 /0216 10047 20017 40307 52025 555 7/098 88/23;
0149033790999992000011910504+53030-000500FM-15+0067EGYD V0203301N005112200019N0112651N1+00501+00301999999ADDGA1021+005409999GF102991999999999999999999MA1103691999999MW1001REMMET055EGYD 191050Z 33010KT 9999 FEW018 05/03 Q1037 BLU NOSIG;EQDQ01+000000PRSWM2
0166033790999992000012520004+53030-000500FM-12+0067EGYD V0202901N002610114019N0050001N1+00381+00261103011ADDAY121999AY221999GA1071+011409059GF107991071051012501999999MD1210061+9999MW1051REMSYN076AAXX  25204 03379 41650 72905 10038 20026 40301 52006 70522 875// 333 87638;
0143033790999992000012816504+53030-000500FM-15+0067EGYD V0202201N010810075019N0112651N1+00701+00301999999ADDGA1081+007509999GF108991999999999999999999MA1100311999999MW1001REMMET049EGYD 281650Z 22021KT 9999 OVC025 07/03 Q1003 BLU;EQDQ01+000000PRSWM2
0198033790999992000020121504+53030-000500FM-15+0067EGYD V0203001N003610048019N0080001N1+00701+00601999999ADDGA1021+002109999GA2081+004809999GF108991999999999999999999MA1101081999999MW1511MW2611REMMET066EGYD 012150Z 30007KT 8000 -RADZ SCT007 OVC016 07/06 Q1011 RRA GRN;EQDQ01+000003PRSWM1Q02    003PRSWM1
0138033790999992000020303004+53030-000500FM-12+0067EGYD V0202601N006712200019N0300001N1+00561+00161102861ADDGA1011+013209059GF102991011051012501001011MD1210101+9999REMSYN070AAXX  03034 03379 42680 22613 10056 20016 40286 52010 81501 333 81644;
0138033790999992000020304004+53030-000500FM-12+0067EGYD V0202501N003112200019N0300001N1+00441+00191102931ADDGA1011+075009019GF101991001001999999001011MD1310121+9999REMSYN070AAXX  03044 03379 42980 12506 10044 20019 40293 53012 80001 333 81075;
0144033790999992000020309004+53030-000500FM-12+0067EGYD V0202601N00571030001CN0300001N1+00481+00181103111ADDGA1011+010509069GF107991011051012501071021MD1210121+9999REMSYN076AAXX  03094 03379 42680 72611 10048 20018 40311 52012 81572 333 81635 86367;
0150033790999992000020708004+53030-000500FM-12+0067EGYD V0202301N009810330019N0250001N1+00521+00051101031ADDGA1071+033009039GF107991071001999999071999MD1810091+9999REMSYN082AAXX  07084 03379 42975 72319 10052 20005 40103 58009 8707/ 333 87361 90710 91127;
0144033790999992000020909004+53030-000500FM-12+0067EGYD V0202501N00621030001CN0150001N1+00541+00021101961ADDGA1011+009009069GF107991011051012501031021MD1310341+9999REMSYN076AAXX  09094 03379 42665 72512 10054 20002 40196 53034 81532 333 81630 87072;
0096033790999992000021308004+53030-000500FM-12+0067EGYD V0202501N006219999999N0180001N1+00161+00021101581ADDMD1310191+9999REMSYN070AAXX  13084 03379 46/68 /2512 10016 20002 40158 53019 555 7/090 80/99;
0222033790999992000021813004+53030-000500FM-12+0067EGYD V0202501N007710090019N0250001N1+00841+00381099881ADDAY121011AY221011GA1021+005409089GA2041+009009069GA3061+021009039GF107991051081004501031999MD1710091+9999MW1801REMSYN100AAXX  18134 03379 41475 72515 10084 20038 49988 57009 78022 8583/ 333 82818 84630 86357 90710 91126;
0097033790999992000022202504+53030-000500FM-15+0067EGYD V0209999C00001220001CN0099001N1-00101-00201999999ADDMA1102401999999MW1001REMMET045EGYD 220250Z 00000KT CAVOK M01/M02 Q1024 BLU;EQDQ01+000000PRSWM2
0166033790999992000022304004+53030-000500FM-12+0067EGYD V0201501N003110024019N0030001N1+00201+00151102021ADDAY121011AY221011GA1081+002409069GF108991081061002501999999MD1610061+9999MW1101REMSYN076AAXX  23044 03379 41330 81506 10020 20015 40202 56006 71022 886// 333 88708;
0096033790999992000030409004+53030-000500FM-12+0067EGYD V0202701N004619999999N0450001N1+00101-00351102561ADDMD1210271+9999REMSYN070AAXX  04094 03379 46/83 /2709 10010 21035 40256 52027 555 7/090 80/99;
0093033790999992000030801504+53030-000500FM-15+0067EGYD V0202401N01391220001CN0099001N1+01201+00901999999ADDMA1101591999999MW1001REMMET041EGYD 0150Z 24027KT CAVOK 12/09 Q1016 BLU;EQDQ01+000000PRSWM2
0166033790999992000031309004+53030-000500FM-12+0067EGYD V0202601N005110051019N0070001N1+01001+00771102501ADDAY121031AY221031GA1071+005109059GF107991071051004501999999MD1210081+9999MW1051REMSYN076AAXX  13094 03379 41457 72610 10100 20077 40250 52008 70522 875// 333 87617;
0096033790999992000031502504+53030-000500FM-15+0067EGYD V0202901N00461220001CN0099001N1+00201-00101999999ADDMA1103121999999MW1001REMMET044EGYD 150250Z 29009KT CAVOK 02/M01 Q1031 BLU;EQDQ01+000000PRSWM2
0138033790999992000032101004+53030-000500FM-12+0067EGYD V0209999C000010120019N0120001N1+00841+00381102621ADDGA1071+012009059GF107991071051012501999999MD1710131+9999REMSYN070AAXX  21014 03379 42662 70000 10084 20038 40262 57013 875// 333 87640;
0143033790999992000032202504+53030-000500FM-15+0067EGYD V0209999C000012200019N0048001N1+00201+00201999999ADDGF100991999999999999999999MA1101691999999MW1101REMMET049EGYD 220250Z 00000KT 4800 BR SKC 02/02 Q1017 GRN;EQDQ01+000003PRSWM1Q02    003PRSWM1
0096033790999992000032615004+53030-000500FM-12+0067EGYD V0200101N000519999999N0270001N1+00911+00011100651ADDMD1710021+9999REMSYN070AAXX  26154 03379 46/77 /0101 10091 20001 40065 57002 555 7/092 82/56;
0095033790999992000033020504+53030-000500FM-15+0067EGYD V0200501N00151220001CN0099001N1+00301+00001999999ADDMA1101391999999MW1001REMMET043EGYD 302050Z 05003KT CAVOK 03/00 Q1014 BLU;EQDQ01+000000PRSWM2
0236033790999992000040418004+53030-000500FM-12+0067EGYD V0203601N007710150019N0400001N1+00341-00071100661ADDAA112000791AY181061AY221061GA1021+009009089GA2071+015009069GF107991071081012501999999KA1120M+00581MD1210271+9999MW1021REMSYN106AAXX  04184 03379 11682 73615 10034 21007 40066 52027 69902 70282 878// 333 10058 82830 87650 90710 91135;
0175033790999992000040507504+53030-000500FM-15+0067EGYD V0203301N006710066019N0112651N1+00301+00001999999ADDGA1021+003609999GA2071+006609999GF107991999999999999999999MA1101591999999MW1001REMMET065EGYD 050750Z 33013KT 9999 FEW012 BKN022 03/00 Q1016 TEMPO FEW022;EQDQ01+000000PRSWM2
0084033790999992000040910004+53030-000500FM-12+0067EGYD V0200501N007219999999N0090001N1+00851+00361999999REMSYN075AAXX  09104 03379 46/59 /0514 10085 20036 4018 52011 555 7/096 81/15 85/21;
0183033790999992000041407504+53030-000500FM-15+0067EGYD V0203401N006210180019N0112651N1+00501+00301999999ADDGA1021+002409999GA2071+018009999GF107991999999999999999999MA1100001999999MW1001REMMET073EGYD 140750Z 34012KT 9999 FEW008 BKN060 05/03 Q1000 BLU TEMPO SCT008 GRN;EQDQ01+000000PRSWM2
0172033790999992000041416504+53030-000500FM-15+0067EGYD V0200201N005110150019N0112651N1+00601+00201999999ADDGA1021+006609999GA2071+015009999GF107991999999999999999999MA1100101999999MW1001REMMET062EGYD 141650Z 02010KT 9999 FEW022 BKN050 06/02 Q1001 BLU NOSIG;EQDQ01+000000PRSWM2
0172033790999992000041721004+53030-000500FM-12+0067EGYD V0202301N008710600019N0350001N1+00631+00191099511ADDGA1021+009009069GA2071+060009009GF107991021051012501001021MD1210341+9999REMSYN088AAXX  17214 03379 42681 72317 10063 20019 49951 52034 82502 333 82630 87070 90710 91126;
0096033790999992000042022004+53030-000500FM-12+0067EGYD V0201901N005119999999N0250001N1+01011+00601100511ADDMD1210071+9999REMSYN070AAXX  20224 03379 46/75 /1910 10101 20060 40051 52007 555 7/090 80/99;
0191033790999992000042605504+53030-000500FM-15+0067EGYD V0201001N001510003019N0034001N1+00901+00901999999ADDGA1071+000309999GA2081+001509999GF108991999999999999999999MA1100411999999MW1631REMMET065EGYD 260550Z 10003KT 3400 RA BKN001 OVC005 09/09 Q1004 RED NOSIG;EQDQ01+000003PRSWM1Q02    003PRSWM1
0183033790999992000042814504+53030-000500FM-15+0067EGYD V0200201N004110042019N0112651N1+01301+00901999999ADDGA1071+004209999GA2081+013509999GF108991999999999999999999MA1100811999999MW1001REMMET073EGYD 281450Z 02008KT 9999 BKN014 OVC045 13/09 Q1008 GRN TEMPO SCT020 WHT;EQDQ01+000000PRSWM2
0126033790999992000043012004+53030-000500FM-12+0067EGYD V0200801N004619999999N0300001N1+01451+00741102361ADDAA199000091MD1210061+9999REMSYN070AAXX  30124 03379 36/80 /0809 10145 20074 40236 52006 555 7/097 87/47;EQDQ01  00002PRCP99
0096033790999992000050102004+53030-000500FM-12+0067EGYD V0209999C000019999999N0110001N1+00831+00661102541ADDMD1210051+9999REMSYN070AAXX  01024 03379 46/61 /0000 10083 20066 40254 52005 555 7/098 88/50;
0186033790999992000050303504+53030-000500FM-15+0067EGYD V0203601N005710012019N0060001N1+00801+00701999999ADDGA1071+001209999GA2081+004809999GF108991999999999999999999MA1102511999999MW1511REMMET060EGYD 030350Z 36011KT 6000 -DZ BKN004 OVC016 08/07 Q1025 YLO;EQDQ01+000003PRSWM1Q02    003PRSWM1
0096033790999992000050517004+53030-000500FM-12+0067EGYD V0200301N006219999999N0130001N1+01071+00711101771ADDMD1710171+9999REMSYN070AAXX  05174 03379 46/63 /0312 10107 20071 40177 57017 555 7/092 82/09;
0184033790999992000050807504+53030-000500FM-15+0067EGYD V0203601N006210006019N0025001N1+01001+00901999999ADDGA1081+000609999GF108991999999999999999999MA1101901999999MW1101REMMET074EGYD 080750Z 36012KT 2500 BR OVC002 10/09 Q1019 AMB BECMG 4000 OVC006 YLO;EQDQ01+000003PRSWM1Q02    003PRSWM1
