0359723095937192000021218543+35067-077050FM-15+0005EWN  V0200405N00575002445MN0160005N1+00505+00445101795ADDAA101000021GD14995+0024459GF108991999999999999999999MA1101795999999MW1001REMMET104KEWN 121854Z 04011KT 10SM OVC008 05/04 A3006 RMK AO2 RAB34E52 CIG 006V010 PRESFR SLP179 P0000 T00500044;EQDQ01+000000PRSWM2N01 00000JPWTH 0QNNAA1D0 06008BA1 0 06008GA1 0 00008KA1D0 00040JA1 0 00044LA1 0 01000CA1 0 03006NA1 0 00000QA1 0 10179SA1D0 00041RA1 0 00050YA1 0 04011
0054723095937192000021410009+35067-077050NSRDB+000599999V020999999999999999999999999999+99999+99999999999ADDGP10060000002000000002000000002000GR100600000900009
0071723095937192000021522009+35067-077050NSRDB+000599999V020999999999999999999999999999+99999+99999999999ADDGP10060020302009063502021004402009GQ100600755924279GR100600350914029
0354723095937192000021711543+35067-077050FM-15+0005EWN  V0200405N00675220005MN0160005N1+00675+00065102895ADDGF100991999999999999999999KA1999M+01111KA2999N+00671MA1102915999999MD1110411+9999MW1001REMMET085KEWN 171154Z 04013KT 10SM CLR 07/01 A3039 RMK AO2 SLP289 T00670006 10111 20067 51041;EQDQ01+000000PRSWM2N01 00000JPWTH 0QNNAA1D0 00000BA1 0 00000GA1U0 99999KA1D0 00033JA1 0 00006LA1 0 01000CA1 0 03039NA1 0 00000QA1 0 10289SA1D0 00044RA1 0 00067YA1 0 04013
0368723095937192000021807543+35067-077050FM-15+0005EWN  V0201005N00315021345MN0160005N1+00615+00335102775ADDGD13995+0213459GD24995+0274359GF108991999999999999999999MA1102785999999MW1001REMMET087KEWN 180754Z AUTO 10006KT 10SM BKN070 OVC090 06/03 A3035 RMK AO2 SLP277 T00610033 TSNO;EQDQ01+000000PRSWM2N01 00000JPWTH 0QNNAA1D0 04070BA1 0 04070AA1D0 06090BA1 0 06090GA1 0 00070KA1D0 00038JA1 0 00033LA1 0 01000CA1 0 03035NA1 0 00000QA1 0 10277SA1D0 00043RA1 0 00061YA1 0 10006
0307723095937192000021915543+35067-077050FM-15+0005EWN  V0202305N00775220005MN0160005N1+02335+01395101545ADDGF100991999999999999999999MA1101565999999MW1001OC101181REMMET070KEWN 191554Z 23015G23KT 10SM CLR 23/14 A2999 RMK AO2 SLP154 T02330139;EQDQ01+000000PRSWM2N01 00000JPWTH 0QNNAA1D0 00000BA1 0 00000GA1U0 99999KA1D0 00057JA1 0 00139LA1 0 01000CA1 0 02999NA1 0 00000QA1 0 10154SA1D0 00074RA1 0 00233YA1 0 23015
0306723095937192000022303543+35067-077050FM-15+0005EWN  V0200305N00215220005MN0160005N1+00615+00565103325ADDGF100991999999999999999999MA1103325999999MW1001REMMET077KEWN 230354Z AUTO 03004KT 10SM CLR 06/06 A3051 RMK AO2 SLP332 T00610056 TSNO;EQDQ01+000000PRSWM2N01 00000JPWTH 0QNNAA1D0 00000BA1 0 00000GA1U0 99999KA1D0 00042JA1 0 00056LA1 0 01000CA1 0 03051NA1 0 00000QA1 0 10332SA1D0 00043RA1 0 00061YA1 0 03004
0334723095937192000022520543+35067-077050FM-15+0005EWN  V0202205N00315220005MN0160005N1+02395+01225102455ADDGD11995+0137259GF102991999999999999999999MA1102475999999MD1610141+9999MW1001REMMET076KEWN 252054Z 22006KT 10SM FEW045 24/12 A3026 RMK AO2 SLP245 T02390122 56014;EQDQ01+000000PRSWM2N01 00000JPWTH 0QNNAA1D0 02045BA1 0 01045GA1U0 99999KA1D0 00054JA1 0 00122LA1 0 01000CA1 0 03026NA1 0 00000QA1 0 10245SA1D0 00075RA1 0 00239YA1 0 22006
0297723095937192000022915543+35067-077050FM-15+0005EWN  V0200205N00215220005MN0160005N1+01335-00175102695ADDGF100991999999999999999999MA1102715999999MW1001REMMET068KEWN 291554Z 02004KT 10SM CLR 13/M02 A3033 RMK AO2 SLP269 T01331017;EQDQ01+000000PRSWM2N01 00000JPWTH 0QNNAA1D0 00000BA1 0 00000GA1U0 99999KA1D0 00029JA1 0-00017LA1 0 01000CA1 0 03033NA1 0 00000QA1 0 10269SA1D0 00056RA1 0 00133YA1 0 02004
0255723095937192000030415003+35067-077050FM-15+0005EWN  V0202505N00675220005MN016000599+00615-00115101315ADDGD12995+0304859GP10060019102008000602015018802008GQ100600575912739GR100600747913909MA1101255999999EQDN01 00000JPWTH 0QNNAA1D0 02100BA1 0 02100GA1U0 99999KA1D0 00030JA1 0-00011LA1 0 01000CA1 0 02990NA1 0 00000QA1 0 10131SA1D0 00043RA1 0 00061YA1 0 25013
0238723095937192000030501003+35067-077050FM-15+0005EWN  V0200605N00155220005MN016000599+00395+00065101185ADDGD10995+9999999GP10060000002000000002000000002000GR100600000900009MA1101125999999EQDN01 00000JPWTH 0QNNAA1D0 00000BA1 0 00000GA1U0 99999KA1D0 00033JA1 0 00006LA1 0 01000CA1 0 02986NA1 0 00000QA1 0 10118SA1D0 00039RA1 0 00039YA1 0 06003
0364723095937192000030905543+35067-077050FM-15+0005EWN  V0202405N00215220005MN0160005N1+01725+01175101665ADDGF100991999999999999999999KA1999M+02171KA2999N+01611MA1101665999999MD1510011+9999MW1001REMMET095KEWN 090554Z AUTO 24004KT 10SM CLR 17/12 A3002 RMK AO2 SLP166 T01720117 10217 20161 55001 TSNO;EQDQ01+000000PRSWM2N01 00000JPWTH 0QNNAA1D0 00000BA1 0 00000GA1U0 99999KA1D0 00053JA1 0 00117LA1 0 01000CA1 0 03002NA1 0 00000QA1 0 10166SA1D0 00063RA1 0 00172YA1 0 24004
0387723095937192000031118543+35067-077050FM-15+0005EWN  V0201905N00675025915MN0160005N1+02565+01725101405ADDGD11995+0115859GD23995+0259159GF107991999999999999999999MA1101425999999MW1001OC101131REMMET098KEWN 111854Z 19013G22KT 10SM FEW038 BKN085 26/17 A2995 RMK AO2 PK WND 22027/1803 SLP140 T02560172;EQDQ01+000000PRSWM2N01 00000JPWTH 0QNNAA1D0 02038BA1 0 01038AA1D0 04085BA1 0 04085GA1 0 00085KA1D0 00063JA1 0 00172LA1 0 01000CA1 0 02995NA1 0 00000QA1 0 10140SA1D0 00078RA1 0 00256YA1 0 19013
0071723095937192000031417009+35067-077050NSRDB+000599999V020999999999999999999999999999+99999+99999999999ADDGP10060080802008075902015021702008GQ100600391916119GR100601073913839
0054723095937192000031502009+35067-077050NSRDB+000599999V020999999999999999999999999999+99999+99999999999ADDGP10060000002000000002000000002000GR100600000900009
0343723095937192000031509543+35067-077050FM-15+0005EWN  V0209999C00005000305MN0008005N1+00505+00505102645ADDGD15995+0003059GF109991999999000251999999MA1102645999999MW1455REMMET083KEWN 150954Z AUTO 00000KT 1/2SM FG VV001 05/05 A3031 RMK AO2 SLP264 T00500050 TSNO;EQDQ01+000003PRSWM1Q02    003PRSWM1N01 00070JPWTH 0QNNAA1D0 07001BA1 0 07001GA1 0 00001KA1D0 00041JA1 0 00050LA1 0 00050CA1 0 03031NA1 0 00070QA1 0 10264SA1D0 00041RA1 0 00050YA1 0 00000
0316723095937192000031514543+35067-077050FM-15+0005EWN  V0200305N00155220005MN0160005N1+01615+00445102805ADDGF100991999999999999999999MA1102815999999MD1110171+9999MW1001REMMET073KEWN 151454Z 03003KT 10SM CLR 16/04 A3036 RMK AO2 SLP280 T01610044 51017;EQDQ01+000000PRSWM2N01 00000JPWTH 0QNNAA1D0 00000BA1 0 00000GA1U0 99999KA1D0 00040JA1 0 00044LA1 0 01000CA1 0 03036NA1 0 00000QA1 0 10280SA1D0 00061RA1 0 00161YA1 0 03003
0071723095937192000031918009+35067-077050NSRDB+000599999V020999999999999999999999999999+99999+99999999999ADDGP10060040702008004202015037302008GQ100600357918619GR100601120913799
0402723095937192000032019543+35067-077050FM-15+0005EWN  V0200905N00525010975MN0160005N1+01445+01335101775ADDAA101001091GD13995+0109759GD23995+0274359GF107991999999999999999999MA1101765999999MW1615REMMET094KEWN 201954Z 09010KT 10SM -RA BKN036 BKN090 14/13 A3005 RMK AO2 PRESFR SLP177 P0004 T01440133;EQDQ01+000003PRSWM1Q02    003PRSWM1N01 00020JPWTH 0QNNAA1D0 04036BA1 0 04036AA1D0 04090BA1 0 04090GA1 0 00036KA1D0 00056JA1 0 00133LA1 0 01000CA1 0 03005NA1 0 00020QA1 0 10177SA1D0 00058RA1 0 00144YA1 0 09010
0296723095937192000032110003+35067-077050FM-15+0005EWN  V0200105N00265008235MN006400599+01305+99999101725ADDGD12995+0064059GD23995+0082359GD34995+0118959GP10060000002000000002000000002000GR100600000900009MA1101735999999MW1615EQDN01 00020JPWTH 0QNNAA1D0 02021BA1 0 02021AA1D0 04027BA1 0 04027AA1D0 06039BA1 0 06039GA1 0 00027LA1 0 00400CA1 0 03004NA1 0 00020QA1 0 10172SA1D0 00055RA1 0 00130YA1 0 01005
0336723095937192000032202543+35067-077050FM-15+0005EWN  V0203205N00525004885MN0160005N1+01005+00725102295ADDGD14995+0048859GF108991999999999999999999MA1102305999999MD1110111+9999MW1001REMMET078KEWN 220254Z 32010KT 10SM OVC016 10/07 A3021 RMK AO2 SLP229 T01000072 51011 $;EQDQ01+000000PRSWM2N01 00000JPWTH 0QNNAA1D0 06016BA1 0 06016GA1 0 00016KA1D0 00045JA1 0 00072LA1 0 01000CA1 0 03021NA1 0 00000QA1 0 10229SA1D0 00050RA1 0 00100YA1 0 32010
0071723095937192000032515009+35067-077050NSRDB+000599999V020999999999999999999999999999+99999+99999999999ADDGP10060051702008036502015028302008GQ100600504912189GR100600875913749
0296723095937192000032515543+35067-077050FM-15+0005EWN  V0202505N00365220005MN0160005N1+02065+00895102055ADDGF100991999999999999999999MA1102075999999MW1001REMMET067KEWN 251554Z 25007KT 10SM CLR 21/09 A3014 RMK AO2 SLP205 T02060089;EQDQ01+000000PRSWM2N01 00000JPWTH 0QNNAA1D0 00000BA1 0 00000GA1U0 99999KA1D0 00048JA1 0 00089LA1 0 01000CA1 0 03014NA1 0 00000QA1 0 10205SA1D0 00069RA1 0 00206YA1 0 25007
0366723095937192000032610543+35067-077050FM-15+0005EWN  V0209999C00005027435MN0160005N1+01445+01115101105ADDGD12995+0213459GD23995+0274359GF107991999999999999999999MA1101125999999MW1001REMMET085KEWN 261054Z 00000KT 10SM SCT070 BKN090 14/11 A2986 RMK AO2 RAE0955 SLP110 T01440111;EQDQ01+000000PRSWM2N01 00000JPWTH 0QNNAA1D0 02070BA1 0 02070AA1D0 04090BA1 0 04090GA1 0 00090KA1D0 00052JA1 0 00111LA1 0 01000CA1 0 02986NA1 0 00000QA1 0 10110SA1D0 00058RA1 0 00144YA1 0 00000
0325723095937192000032819543+35067-077050FM-15+0005EWN  V0201905N00825220005MN0160005N1+01945+00395099665ADDGF100991999999999999999999MA1099665999999MW1001OC101341REMMET088KEWN 281954Z 19016G26KT 10SM CLR 19/04 A2943 RMK AO2 PK WND 17027/1911 SLP966 T01940039;EQDQ01+000000PRSWM2N01 00000JPWTH 0QNNAA1D0 00000BA1 0 00000GA1U0 99999KA1D0 00039JA1 0 00039LA1 0 01000CA1 0 02943NA1 0 00000QA1 0 09966SA1D0 00067RA1 0 00194YA1 0 19016
0308723095937192000032912543+35067-077050FM-15+0005EWN  V0203105N00465220005MN0160005N1+01065-00175101235ADDGF100991999999999999999999MA1101255999999MW1001OC100771REMMET071KEWN 291254Z 31009G15KT 10SM CLR 11/M02 A2990 RMK AO2 SLP123 T01061017;EQDQ01+000000PRSWM2N01 00000JPWTH 0QNNAA1D0 00000BA1 0 00000GA1U0 99999KA1D0 00029JA1 0-00017LA1 0 01000CA1 0 02990NA1 0 00000QA1 0 10123SA1D0 00051RA1 0 00106YA1 0 31009
0071723095937192000032916009+35067-077050NSRDB+000599999V020999999999999999999999999999+99999+99999999999ADDGP10060079902008085802015013602008GQ100600395913739GR100601056913719
0054723095937192000033004009+35067-077050NSRDB+000599999V020999999999999999999999999999+99999+99999999999ADDGP10060000002000000002000000002000GR100600000900009
0071723095937192000033100009+35067-077050NSRDB+000599999V020999999999999999999999999999+99999+99999999999ADDGP10060000002008000002015000002008GQ100600875927359GR100600027906059
0297723095937192000040116543+35067-077050FM-15+0005EWN  V0200805N00315220005MN0160005N1+01835-00065102625ADDGF100991999999999999999999MA1102645999999MW1001REMMET068KEWN 011654Z 08006KT 10SM CLR 18/M01 A3031 RMK AO2 SLP262 T01831006;EQDQ01+000000PRSWM2N01 00000JPWTH 0QNNAA1D0 00000BA1 0 00000GA1U0 99999KA1D0 00031JA1 0-00006LA1 0 01000CA1 0 03031NA1 0 00000QA1 0 10262SA1D0 00065RA1 0 00183YA1 0 08006
0054723095937192000040703009+35067-077050NSRDB+000599999V020999999999999999999999999999+99999+99999999999ADDGP10060000002000000002000000002000GR100600000900009
0402723095937192000040809543+35067-077050FM-15+0005EWN  V0202005N00265010675MN0160005N1+01675+01445101325ADDGD13995+0106759GD23995+0140259GD34995+0182959GF108991999999999999999999MA1101325999999MW1001REMMET084KEWN 080954Z 20005KT 10SM BKN035 BKN046 OVC060 17/14 A2992 RMK AO2 SLP132 T01670144;EQDQ01+000000PRSWM2N01 00000JPWTH 0QNNAA1D0 04035BA1 0 04035AA1D0 04046BA1 0 04046AA1D0 06060BA1 0 06060GA1 0 00035KA1D0 00058JA1 0 00144LA1 0 01000CA1 0 02992NA1 0 00000QA1 0 10132SA1D0 00062RA1 0 00167YA1 0 20005
0452723095937192000041509543+35067-077050FM-15+0005EWN  V0200505N00155007325MN0080005N1+01785+01725101895ADDAA101001391GD13995+0073259GD23995+0118959GD34995+0213459GF108991999999999999999999MA1101905999999MW1101MW2455MW3635REMMET095KEWN 150954Z 05003KT 5SM RA BR BKN024 BKN039 OVC070 18/17 A3009 RMK AO2 SLP189 P0005 T01780172;EQDQ01+000003PRSWM1Q02    003PRSWM1N01 02170JPWTH 0QNNAA1D0 04024BA1 0 04024AA1D0 04039BA1 0 04039AA1D0 06070BA1 0 06070GA1 0 00024KA1D0 00063JA1 0 00172LA1 0 00500CA1 0 03009NA1 0 02170QA1 0 10189SA1D0 00064RA1 0 00178YA1 0 05003
0394723095937192000041707543+35067-077050FM-15+0005EWN  V0209999C00005000305MN0008005N1+01395+01395101475ADDGD13995+0003059GD24995+0024459GF108991999999999999999999MA1101495999999MW1441MW2455REMMET091KEWN 170754Z AUTO 00000KT 1/2SM FG BKN001 OVC008 14/14 A2997 RMK AO2 SLP147 T01390139 TSNO;EQDQ01+000003PRSWM1Q02    003PRSWM1N01 00070JPWTH 0QNNAA1D0 04001BA1 0 04001AA1D0 06008BA1 0 06008GA1 0 00001KA1D0 00057JA1 0 00139LA1 0 00050CA1 0 02997NA1 0 00070QA1 0 10147SA1D0 00057RA1 0 00139YA1 0 00000
0071723095937192000042123009+35067-077050NSRDB+000599999V020999999999999999999999999999+99999+99999999999ADDGP10060018802008047402015006902008GQ100600755927499GR100600338913529
0054723095937192000042204009+35067-077050NSRDB+000599999V020999999999999999999999999999+99999+99999999999ADDGP10060000002000000002000000002000GR100600000900009
0054723095937192000042408009+35067-077050NSRDB+000599999V020999999999999999999999999999+99999+99999999999ADDGP10060000002000000002000000002000GR100600000900009
0407723095937192000042506543+35067-077050FM-15+0005EWN  V0200305N00265000915MN0112005N1+01565+01445100355ADDAA101000591GD13995+0009159GD24995+0036659GF108991999999999999999999MA1100375999999MW1001REMMET115KEWN 250654Z AUTO 03005KT 7SM BKN003 OVC012 16/14 A2964 RMK AO2 RAB0557E35 CIG 003V006 SLP035 P0002 T01560144 TSNO;EQDQ01+000000PRSWM2N01 00000JPWTH 0QNNAA1D0 04003BA1 0 04003AA1D0 06012BA1 0 06012GA1 0 00003KA1D0 00058JA1 0 00144LA1 0 00700CA1 0 02964NA1 0 00000QA1 0 10035SA1D0 00060RA1 0 00156YA1 0 03005
0054723095937192000042803009+35067-077050NSRDB+000599999V020999999999999999999999999999+99999+99999999999ADDGP10060000002000000002000000002000GR100600000900009
0071723095937192000050215009+35067-077050NSRDB+000599999V020999999999999999999999999999+99999+99999999999ADDGP10060053202008021202015036902008GQ100600398910959GR100601032913449
0358723095937192000050222543+35067-077050FM-15+0005EWN  V0203505N00315011585MN0160005N1+02335+01675101765ADDGD13995+0115859GD24995+0152459GF108991999999999999999999MA1101765999999MW1001REMMET077KEWN 022254Z 35006KT 10SM BKN038 OVC050 23/17 A3005 RMK AO2 SLP176 T02330167;EQDQ01+000000PRSWM2N01 00000JPWTH 0QNNAA1D0 04038BA1 0 04038AA1D0 06050BA1 0 06050GA1 0 00038KA1D0 00062JA1 0 00167LA1 0 01000CA1 0 03005NA1 0 00000QA1 0 10176SA1D0 00074RA1 0 00233YA1 0 35006
0071723095937192000050314009+35067-077050NSRDB+000599999V020999999999999999999999999999+99999+99999999999ADDGP10060057702008068502015015102008GQ100600515909779GR100600835913449
0316723095937192000050320543+35067-077050FM-15+0005EWN  V0200905N00365220005MN0160005N1+02395+00895102405ADDGF100991999999999999999999MA1102405999999MD1610051+9999MW1001REMMET073KEWN 032054Z 09007KT 10SM CLR 24/09 A3024 RMK AO2 SLP240 T02390089 56005;EQDQ01+000000PRSWM2N01 00000JPWTH 0QNNAA1D0 00000BA1 0 00000GA1U0 99999KA1D0 00048JA1 0 00089LA1 0 01000CA1 0 03024NA1 0 00000QA1 0 10240SA1D0 00075RA1 0 00239YA1 0 09007
0071723095937192000050417009+35067-077050NSRDB+000599999V020999999999999999999999999999+99999+99999999999ADDGP10060095302008084202015016502008GQ100600207915609GR100601256913439
0071723095937192000050714009+35067-077050NSRDB+000599999V020999999999999999999999999999+99999+99999999999ADDGP10060058902008070202015014502008GQ100600508909659GR100600846913419
0071723095937192000051220009+35067-077050NSRDB+000599999V020999999999999999999999999999+99999+99999999999ADDGP10060074202008056602015028602008GQ100600363925199GR100601077913389
0071723095937192000051517009+35067-077050NSRDB+000599999V020999999999999999999999999999+99999+99999999999ADDGP10060095302008077502015021402008GQ100600181915329GR100601270913369
0054723095937192000051703009+35067-077050NSRDB+000599999V020999999999999999999999999999+99999+99999999999ADDGP10060000002000000002000000002000GR100600000900009
0296723095937192000051722543+35067-077050FM-15+0005EWN  V0201905N00465220005MN0160005N1+02225+01565102195ADDGF100991999999999999999999MA1102205999999MW1001REMMET067KEWN 172254Z 19009KT 10SM CLR 22/16 A3018 RMK AO2 SLP219 T02220156;EQDQ01+000000PRSWM2N01 00000JPWTH 0QNNAA1D0 00000BA1 0 00000GA1U0 99999KA1D0 00060JA1 0 00156LA1 0 01000CA1 0 03018NA1 0 00000QA1 0 10219SA1D0 00072RA1 0 00222YA1 0 19009
0295723095937192000052510543+35067-077050FM-15+0005EWN  V0202405N00265220005MN0128005N1+02335+02115100675ADDGF100991999999999999999999MA1100685999999MW1001REMMET066KEWN 251054Z 24005KT 8SM CLR 23/21 A2973 RMK AO2 SLP067 T02330211;EQDQ01+000000PRSWM2N01 00000JPWTH 0QNNAA1D0 00000BA1 0 00000GA1U0 99999KA1D0 00070JA1 0 00211LA1 0 00800CA1 0 02973NA1 0 00000QA1 0 10067SA1D0 00074RA1 0 00233YA1 0 24005
0313723095937192000052522543+35067-077050FM-15+0005EWN  V0209999C00005220005MN0112005N1+02565+02335100905ADDGD12995+0198159GF104991999999999999999999MA1100915999999MW1001REMMET069KEWN 252254Z 00000KT 7SM SCT065 26/23 A2980 RMK AO2 SLP090 T02560233;EQDQ01+000000PRSWM2N01 00000JPWTH 0QNNAA1D0 02065BA1 0 02065GA1U0 99999KA1D0 00074JA1 0 00233LA1 0 00700CA1 0 02980NA1 0 00000QA1 0 10090SA1D0 00078RA1 0 00256YA1 0 00000
0071723095937192000052701009+35067-077050NSRDB+000599999V020999999999999999999999999999+99999+99999999999ADDGP10060000002008000002015000002008GQ100600890929599GR100600004902559
0344723095937192000052808543+35067-077050FM-15+0005EWN  V0200605N00155008845MN0160005N1+02115+02005100895ADDGD13995+0088459GF107991999999999999999999MA1100885999999MD1610231+9999MW1001REMMET086KEWN 280854Z AUTO 06003KT 10SM BKN029 21/20 A2979 RMK AO2 SLP089 T02110200 56023 TSNO;EQDQ01+000000PRSWM2N01 00000JPWTH 0QNNAA1D0 04029BA1 0 04029GA1 0 00029KA1D0 00068JA1 0 00200LA1 0 01000CA1 0 02979NA1 0 00000QA1 0 10089SA1D0 00070RA1 0 00211YA1 0 06003
0054723095937192000053008009+35067-077050NSRDB+000599999V020999999999999999999999999999+99999+99999999999ADDGP10060000002000000002000000002000GR100600000900009
0314723095937192000053113543+35067-077050FM-15+0005EWN  V0203405N00525001835MN0160005N1+01565+01395102265ADDGD14995+0018359GF108991999999999999999999MA1102275999999MW1001REMMET070KEWN 311354Z 34010KT 10SM OVC006 16/14 A3020 RMK AO2 SLP226 T01560139;EQDQ01+000000PRSWM2N01 00000JPWTH 0QNNAA1D0 06006BA1 0 06006GA1 0 00006KA1D0 00057JA1 0 00139LA1 0 01000CA1 0 03020NA1 0 00000QA1 0 10226SA1D0 00060RA1 0 00156YA1 0 34010
0709723095937192000060204596+35068-077048SOD  +0007KEWN V020999999999999999999999999999+99999+99999999999ADDAA124000095AT1MW01FG  1AT2MW13BR  1KA1240M+03065KA2240N+01396MG1101799999994OE11240058128011585OE22240044729011575OE33240021599999995REMSOD54524 HR PRECIPITATION (IN): 0.00 24 HR MAX TEMP (F): 8724 HR MAX TEMP TIME (LST):1739 24 HR MIN TEMP (F): 5724 HR MIN TEMP TIME (LST):0414 AVERAGE STATION PRESSURE:30.06  PEAK WIND SPEED (MPH): 13 PEAK WIND DIR (DEG):280 PEAK WIND TIME (LST):1158  FASTEST 2MIN SPEED (MPH): 10FASTEST 2MIN DIR (DEG):290 FASTEST 2MIN TIME (LST):1157 AVERAGE WIND SPEED (MPH): 4.8 24 HR AVG TEMP (F):72 HOURLY INCREMENTAL PRECIPITATION VALUES (IN):.00  .00  .00  .00  .00  .00  .00  .00  .00  .00  .00  .00  .00  .00  .00  .00  .00  .00  .00  .00  .00  .00  .00  .00EQDR01    577KAN014
0071723095937192000060216009+35067-077050NSRDB+000599999V020999999999999999999999999999+99999+99999999999ADDGP10060079602008055502015029202008GQ100600246911559GR100601205913289
0071723095937192000060301009+35067-077050NSRDB+000599999V020999999999999999999999999999+99999+99999999999ADDGP10060000002008000002015000002008GQ100600887929699GR100600008903659
0358723095937192000060619543+35067-077050FM-15+0005EWN  V0203205N00365220005MN0160005N1+02615+01785101005ADDGD11995+0131159GD22995+0198159GF104991999999999999999999MA1101025999999MW1001REMMET077KEWN 061954Z 32007KT 10SM FEW043 SCT065 26/18 A2983 RMK AO2 SLP100 T02610178;EQDQ01+000000PRSWM2N01 00000JPWTH 0QNNAA1D0 02043BA1 0 01043AA1D0 02065BA1 0 02065GA1U0 99999KA1D0 00064JA1 0 00178LA1 0 01000CA1 0 02983NA1 0 00000QA1 0 10100SA1D0 00079RA1 0 00261YA1 0 32007
0071723095937192000060623009+35067-077050NSRDB+000599999V020999999999999999999999999999+99999+99999999999ADDGP10060023502008038802015010202008GQ100600698928439GR100600456913269
0342723095937192000060804543+35067-077050FM-15+0005EWN  V0209999C00005220005MN0160005N1+01445+01335102465ADDGF100991999999999999999999KA1999M+02331KA2999N+01441MA1102475999999MW1001REMMET087KEWN 080454Z AUTO 00000KT 10SM CLR 14/13 A3026 RMK AO2 SLP246 T01440133 402330144 TSNO;EQDQ01+000000PRSWM2N01 00000JPWTH 0QNNAA1D0 00000BA1 0 00000GA1U0 99999KA1D0 00056JA1 0 00133LA1 0 01000CA1 0 03026NA1 0 00000QA1 0 10246SA1D0 00058RA1 0 00144YA1 0 00000
0326723095937192000061002543+35067-077050FM-15+0005EWN  V0202105N00215220005MN0160005N1+01895+01565102315ADDGF100991999999999999999999MA1102305999999MD1310061+9999MW1001REMMET083KEWN 100254Z AUTO 21004KT 10SM CLR 19/16 A3021 RMK AO2 SLP231 T01890156 53006 TSNO;EQDQ01+000000PRSWM2N01 00000JPWTH 0QNNAA1D0 00000BA1 0 00000GA1U0 99999KA1D0 00060JA1 0 00156LA1 0 01000CA1 0 03021NA1 0 00000QA1 0 10231SA1D0 00066RA1 0 00189YA1 0 21004
0364723095937192000061105543+35067-077050FM-15+0005EWN  V0209999C00005220005MN0160005N1+01895+01725102285ADDGF100991999999999999999999KA1999M+02391KA2999N+01891MA1102305999999MD1110011+9999MW1001REMMET095KEWN 110554Z AUTO 00000KT 10SM CLR 19/17 A3021 RMK AO2 SLP228 T01890172 10239 20189 51001 TSNO;EQDQ01+000000PRSWM2N01 00000JPWTH 0QNNAA1D0 00000BA1 0 00000GA1U0 99999KA1D0 00063JA1 0 00172LA1 0 01000CA1 0 03021NA1 0 00000QA1 0 10228SA1D0 00066RA1 0 00189YA1 0 00000
0071723095937192000061118009+35067-077050NSRDB+000599999V020999999999999999999999999999+99999+99999999999ADDGP10060095002008076802015020202008GQ100600133920199GR100601289913259
0071723095937192000061321009+35067-077050NSRDB+000599999V020999999999999999999999999999+99999+99999999999ADDGP10060061502008064102015016202008GQ100600451926889GR100600933913249
0071723095937192000062023009+35067-077050NSRDB+000599999V020999999999999999999999999999+99999+99999999999ADDGP10060017702008007502015015002008GQ100600689928459GR100600475913229
0305723095937192000062107543+35067-077050FM-15+0005EWN  V0209999C00005220005MN0128005N1+01945+01835101975ADDGF100991999999999999999999MA1101965999999MW1001REMMET076KEWN 210754Z AUTO 00000KT 8SM CLR 19/18 A3011 RMK AO2 SLP197 T01940183 TSNO;EQDQ01+000000PRSWM2N01 00000JPWTH 0QNNAA1D0 00000BA1 0 00000GA1U0 99999KA1D0 00065JA1 0 00183LA1 0 00800CA1 0 03011NA1 0 00000QA1 0 10197SA1D0 00067RA1 0 00194YA1 0 00000
0296723095937192000062122543+35067-077050FM-15+0005EWN  V0202005N00415220005MN0160005N1+02835+02335101575ADDGF100991999999999999999999MA1101595999999MW1001REMMET067KEWN 212254Z 20008KT 10SM CLR 28/23 A3000 RMK AO2 SLP157 T02830233;EQDQ01+000000PRSWM2N01 00000JPWTH 0QNNAA1D0 00000BA1 0 00000GA1U0 99999KA1D0 00074JA1 0 00233LA1 0 01000CA1 0 03000NA1 0 00000QA1 0 10157SA1D0 00083RA1 0 00283YA1 0 20008
0295723095937192000062312543+35067-077050FM-15+0005EWN  V0203005N00215220005MN0112005N1+02335+02115101645ADDGF100991999999999999999999MA1101665999999MW1001REMMET066KEWN 231254Z 30004KT 7SM CLR 23/21 A3002 RMK AO2 SLP164 T02330211;EQDQ01+000000PRSWM2N01 00000JPWTH 0QNNAA1D0 00000BA1 0 00000GA1U0 99999KA1D0 00070JA1 0 00211LA1 0 00700CA1 0 03002NA1 0 00000QA1 0 10164SA1D0 00074RA1 0 00233YA1 0 30004
0320723095937192000062410543+35067-077050FM-15+0005EWN  V0209999C00005220005MN0048005N1+02175+02115102005ADDGF100991999999999999999999MA1102005999999MW1101MW2455REMMET069KEWN 241054Z 00000KT 3SM BR CLR 22/21 A3012 RMK AO2 SLP200 T02170211;EQDQ01+000003PRSWM1Q02    003PRSWM1N01 00070JPWTH 0QNNAA1D0 00000BA1 0 00000GA1U0 99999KA1D0 00070JA1 0 00211LA1 0 00300CA1 0 03012NA1 0 00070QA1 0 10200SA1D0 00071RA1 0 00217YA1 0 00000
0071723095937192000062523009+35067-077050NSRDB+000599999V020999999999999999999999999999+99999+99999999999ADDGP10060025302008035002015012702008GQ100600688928439GR100600478913229
0177723095937192000062918214+35690-077500FM-16+0006KEWN V0202401N003112200019N0128741N1+02401+02301999999ADDGD12991+0114019GF102991999999999999999999MA1101081999999MW1611REMMET068KEWN 291821Z 24006KT 8SM -RA FEW038 24/23 A2985 RMK AO2 TSE15 P0000;EQDQ01+000003PRSWM1Q02    003PRSWM1
0314723095937192000070119543+35067-077050FM-15+0005EWN  V0200205N00575220005MN0160005N1+02895+01445101695ADDGD11995+0182959GF102991999999999999999999MA1101695999999MW1001REMMET070KEWN 011954Z 02011KT 10SM FEW060 29/14 A3003 RMK AO2 SLP169 T02890144;EQDQ01+000000PRSWM2N01 00000JPWTH 0QNNAA1D0 02060BA1 0 01060GA1U0 99999KA1D0 00058JA1 0 00144LA1 0 01000CA1 0 03003NA1 0 00000QA1 0 10169SA1D0 00084RA1 0 00289YA1 0 02011
0238723095937192000070606003+35067-077050FM-15+0005EWN  V0200205N00365220005MN011200599+02335+02225101085ADDGD11995+0097559GP10060000002000000002000000002000GR100600000900009MA1101085999999EQDN01 00000JPWTH 0QNNAA1D0 02032BA1 0 01032GA1U0 99999KA1D0 00072JA1 0 00222LA1 0 00700CA1 0 02985NA1 0 00000QA1 0 10108SA1D0 00074RA1 0 00233YA1 0 02007
0330723095937192000070706543+35067-077050FM-15+0005EWN  V0200405N00155220005MN0080005N1+02175+02065101145ADDGF100991999999999999999999MA1101155999999MW1101MW2455REMMET079KEWN 070654Z AUTO 04003KT 5SM BR CLR 22/21 A2987 RMK AO2 SLP114 T02170206 TSNO;EQDQ01+000003PRSWM1Q02    003PRSWM1N01 00070JPWTH 0QNNAA1D0 00000BA1 0 00000GA1U0 99999KA1D0 00069JA1 0 00206LA1 0 00500CA1 0 02987NA1 0 00070QA1 0 10114SA1D0 00071RA1 0 00217YA1 0 04003
0314723095937192000070713543+35067-077050FM-15+0005EWN  V0200505N00315220005MN0160005N1+02615+02005101425ADDGD11995+0289659GF102991999999999999999999MA1101425999999MW1001REMMET070KEWN 071354Z 05006KT 10SM FEW095 26/20 A2995 RMK AO2 SLP142 T02610200;EQDQ01+000000PRSWM2N01 00000JPWTH 0QNNAA1D0 02095BA1 0 01095GA1U0 99999KA1D0 00068JA1 0 00200LA1 0 01000CA1 0 02995NA1 0 00000QA1 0 10142SA1D0 00079RA1 0 00261YA1 0 05006
0071723095937192000070901009+35067-077050NSRDB+000599999V020999999999999999999999999999+99999+99999999999ADDGP10060000002008000002015000002008GQ100600881929649GR100600017905189
0071723095937192000070919009+35067-077050NSRDB+000599999V020999999999999999999999999999+99999+99999999999ADDGP10060080702008053202015031002008GQ100600212923679GR100601231913229
0326723095937192000071102543+35067-077050FM-15+0005EWN  V0202005N00415220005MN0160005N1+02615+02395101305ADDGF100991999999999999999999MA1101325999999MD1210091+9999MW1001REMMET083KEWN 110254Z AUTO 20008KT 10SM CLR 26/24 A2992 RMK AO2 SLP130 T02610239 52009 TSNO;EQDQ01+000000PRSWM2N01 00000JPWTH 0QNNAA1D0 00000BA1 0 00000GA1U0 99999KA1D0 00075JA1 0 00239LA1 0 01000CA1 0 02992NA1 0 00000QA1 0 10130SA1D0 00079RA1 0 00261YA1 0 20008
0071723095937192000071215009+35067-077050NSRDB+000599999V020999999999999999999999999999+99999+99999999999ADDGP10060015202008000002015015202008GQ100600380909939GR100601039913229
0054723095937192000071310009+35067-077050NSRDB+000599999V020999999999999999999999999999+99999+99999999999ADDGP10060000002000000002000000002000GR100600000900009
0364723095937192000072005543+35067-077050FM-15+0005EWN  V0202105N00575220005MN0160005N1+02675+02395101065ADDGF100991999999999999999999KA1999M+02781KA2999N+02671MA1101055999999MD1810101+9999MW1001REMMET095KEWN 200554Z AUTO 21011KT 10SM CLR 27/24 A2984 RMK AO2 SLP106 T02670239 10278 20267 58010 TSNO;EQDQ01+000000PRSWM2N01 00000JPWTH 0QNNAA1D0 00000BA1 0 00000GA1U0 99999KA1D0 00075JA1 0 00239LA1 0 01000CA1 0 02984NA1 0 00000QA1 0 10106SA1D0 00080RA1 0 00267YA1 0 21011
0054723095937192000072108009+35067-077050NSRDB+000599999V020999999999999999999999999999+99999+99999999999ADDGP10060000002000000002000000002000GR100600000900009
0217723095937192000072114444+35070-077050FM-16+0006KEWN V0201501N009010063019N0032181N1+02301+02101999999ADDGD13991+0063019GD24991+0150019GF108991999999999999999999MA1101421999999MW1631REMMET077KEWN 211444Z 15009KT 2SM RA BR BKN021 OVC050 23/21 A2995 RMK AO2 RAB03 P0008;EQDQ01+000100PRSWM3Q02+000003PRSWM1Q03    003PRSWM1
0389723095937192000072117543+35067-077050FM-15+0005EWN  V0200605N00215220005MN0160005N1+02505+02225101415ADDAA106006491GD11995+0036659GF102991999999999999999999KA1999M+02501KA2999N+02171MA1101425999999MD1810031+9999MW1001REMMET094KEWN 211754Z 06004KT 10SM FEW012 25/22 A2995 RMK AO2 SLP141 60025 T02500222 10250 20217 58003;EQDQ01+000000PRSWM2N01 00000JPWTH 0QNNAA1D0 02012BA1 0 01012GA1U0 99999KA1D0 00072JA1 0 00222LA1 0 01000CA1 0 02995NA1 0 00000QA1 0 10141SA1D0 00077RA1 0 00250YA1 0 06004
0071723095937192000072123009+35067-077050NSRDB+000599999V020999999999999999999999999999+99999+99999999999ADDGP10060011002008000002015011002008GQ100600696928109GR100600460913239
0168723095937192000072212354+35070-077050FM-16+0006KEWN V0200501N003110006019N0040231N1+02301+02201999999ADDGD14991+0006019GF108991999999999999999999MA1101591999999MW1101REMMET059KEWN 221235Z 05006KT 2 1/2SM BR OVC002 23/22 A3000 RMK AO2;EQDQ01+000003PRSWM1Q02    003PRSWM1
0389723095937192000072214543+35067-077050FM-15+0005EWN  V0201105N00265003055MN0112005N1+02565+02285101625ADDGD13995+0030559GD24995+0042759GF108991999999999999999999MA1101635999999MD1110091+9999MW1001REMMET094KEWN 221454Z 11005KT 7SM BKN010 OVC014 26/23 A3001 RMK AO2 CIG 007V013 SLP162 T02560228 51009;EQDQ01+000000PRSWM2N01 00000JPWTH 0QNNAA1D0 04010BA1 0 04010AA1D0 06014BA1 0 06014GA1 0 00010KA1D0 00073JA1 0 00228LA1 0 00700CA1 0 03001NA1 0 00000QA1 0 10162SA1D0 00078RA1 0 00256YA1 0 11005
0465723095937192000072318543+35067-077050FM-15+0005EWN  V0201505N00365008535MN0020005N1+02285+02175101725ADDAA101019391GD11995+0021359GD23995+0085359GD34995+0103659GF108991999999999999999999MA1101735999999MW1101MW2455MW3655REMMET108KEWN 231854Z 15007KT 1 1/4SM +RA BR FEW007 BKN028 OVC034 23/22 A3004 RMK AO2 RAB26 SLP172 P0076 T02280217 $;EQDQ01+000003PRSWM1Q02    003PRSWM1N01 02270JPWTH 0QNNAA1D0 02007BA1 0 01007AA1D0 04028BA1 0 04028AA1D0 06034BA1 0 06034GA1 0 00028KA1D0 00071JA1 0 00217LA1 0 00125CA1 0 03004NA1 0 02270QA1 0 10172SA1D0 00073RA1 0 00228YA1 0 15007
0071723095937192000072519009+35067-077050NSRDB+000599999V020999999999999999999999999999+99999+99999999999ADDGP10060034702008003002015032002008GQ100600229923099GR100601218913249
0054723095937192000072704009+35067-077050NSRDB+000599999V020999999999999999999999999999+99999+99999999999ADDGP10060000002000000002000000002000GR100600000900009
0354723095937192000072823543+35067-077050FM-15+0005EWN  V0201805N00265220005MN0160005N1+02675+02285101595ADDGF100991999999999999999999KA1999M+03111KA2999N+02671MA1101595999999MD1310041+9999MW1001REMMET085KEWN 282354Z 18005KT 10SM CLR 27/23 A3000 RMK AO2 SLP159 T02670228 10311 20267 53004;EQDQ01+000000PRSWM2N01 00000JPWTH 0QNNAA1D0 00000BA1 0 00000GA1U0 99999KA1D0 00073JA1 0 00228LA1 0 01000CA1 0 03000NA1 0 00000QA1 0 10159SA1D0 00080RA1 0 00267YA1 0 18005
0071723095937192000072923009+35067-077050NSRDB+000599999V020999999999999999999999999999+99999+99999999999ADDGP10060024302008047202015008502008GQ100600705927949GR100600441913259
0071723095937192000080117009+35067-077050NSRDB+000599999V020999999999999999999999999999+99999+99999999999ADDGP10060088902008069202015023802008GQ100600202914829GR100601244913269
0296723095937192000080200543+35067-077050FM-15+0005EWN  V0202005N00315220005MN0160005N1+02675+02335101975ADDGF100991999999999999999999MA1101965999999MW1001REMMET067KEWN 020054Z 20006KT 10SM CLR 27/23 A3011 RMK AO2 SLP197 T02670233;EQDQ01+000000PRSWM2N01 00000JPWTH 0QNNAA1D0 00000BA1 0 00000GA1U0 99999KA1D0 00074JA1 0 00233LA1 0 01000CA1 0 03011NA1 0 00000QA1 0 10197SA1D0 00080RA1 0 00267YA1 0 20006
0071723095937192000080300009+35067-077050NSRDB+000599999V020999999999999999999999999999+99999+99999999999ADDGP10060005502008016002015003502008GQ100600830928669GR100600162913279
0306723095937192000080403543+35067-077050FM-15+0005EWN  V0201905N00265220005MN0160005N1+02505+02335101955ADDGF100991999999999999999999MA1101965999999MW1001REMMET077KEWN 040354Z AUTO 19005KT 10SM CLR 25/23 A3011 RMK AO2 SLP195 T02500233 TSNO;EQDQ01+000000PRSWM2N01 00000JPWTH 0QNNAA1D0 00000BA1 0 00000GA1U0 99999KA1D0 00074JA1 0 00233LA1 0 01000CA1 0 03011NA1 0 00000QA1 0 10195SA1D0 00077RA1 0 00250YA1 0 19005
0480723095937192000080416543+35067-077050FM-15+0005EWN  V0202105N00365064015MN0016005N1+02175+02065102075ADDAA101005691GD12995+0030559GD23995+0064059GD34995+0149459GF108991999999999999999999MA1102075999999MW1101MW2455MW3655OC101081REMMET115KEWN 041654Z 21007G21KT 1SM +RA BR SCT010 BKN021 OVC049 22/21 A3014 RMK AO2 RAE08B40 PRESRR SLP207 P0022 T02170206;EQDQ01+000003PRSWM1Q02    003PRSWM1N01 02270JPWTH 0QNNAA1D0 02010BA1 0 02010AA1D0 04021BA1 0 04021AA1D0 06049BA1 0 06049GA1 0 00210KA1D0 00069JA1 0 00206LA1 0 00100CA1 0 03014NA1 0 02270QA1 0 10207SA1D0 00071RA1 0 00217YA1 0 21007
0296723095937192000080800543+35067-077050FM-15+0005EWN  V0201905N00415220005MN0160005N1+02725+02565101875ADDGF100991999999999999999999MA1101905999999MW1001REMMET067KEWN 080054Z 19008KT 10SM CLR 27/26 A3009 RMK AO2 SLP187 T02720256;EQDQ01+000000PRSWM2N01 00000JPWTH 0QNNAA1D0 00000BA1 0 00000GA1U0 99999KA1D0 00078JA1 0 00256LA1 0 01000CA1 0 03009NA1 0 00000QA1 0 10187SA1D0 00081RA1 0 00272YA1 0 19008
0071723095937192000081114009+35067-077050NSRDB+000599999V020999999999999999999999999999+99999+99999999999ADDGP10060033102008009802015027202008GQ100600536909719GR100600788913309
0255723095937192000081312003+35067-077050FM-15+0005EWN  V0203205N00215220005MN016000599+02065+01785101205ADDGD10995+9999999GP10060013202008020502015009102008GQ100600782908049GR100600271913319MA1101225999999EQDN01 00000JPWTH 0QNNAA1D0 00000BA1 0 00000GA1U0 99999KA1D0 00064JA1 0 00178LA1 0 01000CA1 0 02989NA1 0 00000QA1 0 10120SA1D0 00069RA1 0 00206YA1 0 32004
0071723095937192000081417009+35067-077050NSRDB+000599999V020999999999999999999999999999+99999+99999999999ADDGP10060079102008057102015026602008GQ100600233915339GR100601223913329
0054723095937192000081610009+35067-077050NSRDB+000599999V020999999999999999999999999999+99999+99999999999ADDGP10060000002000000002000000002000GR100600000900009
0071723095937192000081713009+35067-077050NSRDB+000599999V020999999999999999999999999999+99999+99999999999ADDGP10060029502008039102015014002008GQ100600666909009GR100600529913339
0296723095937192000081718543+35067-077050FM-15+0005EWN  V0203505N00215220005MN0160005N1+02945+01835101755ADDGF100991999999999999999999MA1101765999999MW1001REMMET067KEWN 171854Z 35004KT 10SM CLR 29/18 A3005 RMK AO2 SLP175 T02940183;EQDQ01+000000PRSWM2N01 00000JPWTH 0QNNAA1D0 00000BA1 0 00000GA1U0 99999KA1D0 00065JA1 0 00183LA1 0 01000CA1 0 03005NA1 0 00000QA1 0 10175SA1D0 00085RA1 0 00294YA1 0 35004
0326723095937192000082002543+35067-077050FM-15+0005EWN  V0200905N00265220005MN0160005N1+02115+01785102035ADDGF100991999999999999999999MA1102035999999MD1110141+9999MW1001REMMET083KEWN 200254Z AUTO 09005KT 10SM CLR 21/18 A3013 RMK AO2 SLP203 T02110178 51014 TSNO;EQDQ01+000000PRSWM2N01 00000JPWTH 0QNNAA1D0 00000BA1 0 00000GA1U0 99999KA1D0 00064JA1 0 00178LA1 0 01000CA1 0 03013NA1 0 00000QA1 0 10203SA1D0 00070RA1 0 00211YA1 0 09005
0709723095937192000082004596+35068-077048SOD  +0007KEWN V020999999999999999999999999999+99999+99999999999ADDAA124000096AT1MW01FG  5AT2MW13BR  1KA1240M+02835KA2240N+02005MG1101639999994OE11240071503010575OE22240058105010595OE33240029599999995REMSOD54524 HR PRECIPITATION (IN): 0.00 24 HR MAX TEMP (F): 8324 HR MAX TEMP TIME (LST):1359 24 HR MIN TEMP (F): 6824 HR MIN TEMP TIME (LST):2353 AVERAGE STATION PRESSURE:30.01  PEAK WIND SPEED (MPH): 16 PEAK WIND DIR (DEG):030 PEAK WIND TIME (LST):1057  FASTEST 2MIN SPEED (MPH): 13FASTEST 2MIN DIR (DEG):050 FASTEST 2MIN TIME (LST):1059 AVERAGE WIND SPEED (MPH): 6.6 24 HR AVG TEMP (F):76 HOURLY INCREMENTAL PRECIPITATION VALUES (IN):.00  .00  .00  .00  .00  .00  .00  .00  .00  .00  .00  .00  .00  .00  .00  .00  .00  .00  .00  .00  .00  .00  .00  .00EQDR01  0.007AAP092
0685723095937192000082104596+35068-077048SOD  +0007KEWN V020999999999999999999999999999+99999+99999999999ADDAA124000096KA1240M+02675KA2240N+01785MG1101939999994OE11240089405011165OE22240067106016325OE33240031399999995REMSOD54524 HR PRECIPITATION (IN): 0.00 24 HR MAX TEMP (F): 8024 HR MAX TEMP TIME (LST):1427 24 HR MIN TEMP (F): 6424 HR MIN TEMP TIME (LST):0514 AVERAGE STATION PRESSURE:30.10  PEAK WIND SPEED (MPH): 20 PEAK WIND DIR (DEG):050 PEAK WIND TIME (LST):1116  FASTEST 2MIN SPEED (MPH): 15FASTEST 2MIN DIR (DEG):060 FASTEST 2MIN TIME (LST):1632 AVERAGE WIND SPEED (MPH): 7.0 24 HR AVG TEMP (F):72 HOURLY INCREMENTAL PRECIPITATION VALUES (IN):.00  .00  .00  .00  .00  .00  .00  .00  .00  .00  .00  .00  .00  .00  .00  .00  .00  .00  .00  .00  .00  .00  .00  .00EQDR01  0.007AAP092
0054723095937192000082308009+35067-077050NSRDB+000599999V020999999999999999999999999999+99999+99999999999ADDGP10060000002000000002000000002000GR100600000900009
0054723095937192000082309009+35067-077050NSRDB+000599999V020999999999999999999999999999+99999+99999999999ADDGP10060000002000000002000000002000GR100600000900009
0054723095937192000082404009+35067-077050NSRDB+000599999V020999999999999999999999999999+99999+99999999999ADDGP10060000002000000002000000002000GR100600000900009
0371723095937192000082517543+35067-077050FM-15+0005EWN  V0209999V00155220005MN0144005N1+02785+02285101605ADDGD11995+0070159GF102991999999999999999999KA1999M+02781KA2999N+02221MA1101635999999MD1810011+9999MW1001REMMET087KEWN 251754Z VRB03KT 9SM FEW023 28/23 A3001 RMK AO2 SLP160 T02780228 10278 20222 58001;EQDQ01+000000PRSWM2N01 00000JPWTH 0QNNAA1D0 02023BA1 0 01023GA1U0 99999KA1D0 00073JA1 0 00228LA1 0 00900CA1 0 03001NA1 0 00000QA1 0 10160SA1D0 00082RA1 0 00278YA1 0 00003
0071723095937192000082813009+35067-077050NSRDB+000599999V020999999999999999999999999999+99999+99999999999ADDGP10060023402008015202015017802008GQ100600681909389GR100600500913409
0254723095937192000090310394+35070-077050FM-16+0006KEWN V0202101N003610090019N0040231N1+02301+02201999999ADDGD12991+0018019GD22991+0057019GD33991+0090019GF107991999999999999999999MA1101421999999MW1631OC100931REMMET091KEWN 031039Z 21007G18KT 2 1/2SM RA BR FEW006 SCT019 BKN030 23/22 A2995 RMK AO2 RAB32 P0014;EQDQ01+000100PRSWM3Q02+000003PRSWM1Q03    003PRSWM1
0284723095937192000090311053+35070-077050FM-16+0006KEWN V0201701N002110210019N0160931N1+02301+02201999999ADDGD12991+0084019GD23991+0210019GD34991+0270019GF108991999999999999999999GP10060000002008000002015000002008GQ100600886908179GR100609999903699MA1101421999999MW1611REMMET077KEWN 031105Z 17004KT 10SM -RA SCT028 BKN070 OVC095 23/22 A2995 RMK AO2 P0000;EQDQ01+000003PRSWM1Q02    003PRSWM1
0296723095937192000090321543+35067-077050FM-15+0005EWN  V0201805N00465220005MN0160005N1+02835+02285101185ADDGF100991999999999999999999MA1101195999999MW1001REMMET067KEWN 032154Z 18009KT 10SM CLR 28/23 A2988 RMK AO2 SLP118 T02830228;EQDQ01+000000PRSWM2N01 00000JPWTH 0QNNAA1D0 00000BA1 0 00000GA1U0 99999KA1D0 00073JA1 0 00228LA1 0 01000CA1 0 02988NA1 0 00000QA1 0 10118SA1D0 00083RA1 0 00283YA1 0 18009
0071723095937192000090514009+35067-077050NSRDB+000599999V020999999999999999999999999999+99999+99999999999ADDGP10060007402008000002015007402008GQ100600572910679GR100600727913459
0071723095937192000090917009+35067-077050NSRDB+000599999V020999999999999999999999999999+99999+99999999999ADDGP10060057802008024102015037202008GQ100600314916309GR100601151913489
0364723095937192000091005543+35067-077050FM-15+0005EWN  V0209999C00005220005MN0160005N1+01835+01785102005ADDGF100991999999999999999999KA1999M+02221KA2999N+01831MA1102005999999MD1810041+9999MW1001REMMET095KEWN 100554Z AUTO 00000KT 10SM CLR 18/18 A3012 RMK AO2 SLP200 T01830178 10222 20183 58004 TSNO;EQDQ01+000000PRSWM2N01 00000JPWTH 0QNNAA1D0 00000BA1 0 00000GA1U0 99999KA1D0 00064JA1 0 00178LA1 0 01000CA1 0 03012NA1 0 00000QA1 0 10200SA1D0 00065RA1 0 00183YA1 0 00000
0296723095937192000091201543+35067-077050FM-15+0005EWN  V0200705N00215220005MN0160005N1+02335+02115101875ADDGF100991999999999999999999MA1101865999999MW1001REMMET067KEWN 120154Z 07004KT 10SM CLR 23/21 A3008 RMK AO2 SLP187 T02330211;EQDQ01+000000PRSWM2N01 00000JPWTH 0QNNAA1D0 00000BA1 0 00000GA1U0 99999KA1D0 00070JA1 0 00211LA1 0 01000CA1 0 03008NA1 0 00000QA1 0 10187SA1D0 00074RA1 0 00233YA1 0 07004
0305723095937192000091303543+35067-077050FM-15+0005EWN  V0209999C00005220005MN0128005N1+02225+02175101545ADDGF100991999999999999999999MA1101565999999MW1001REMMET076KEWN 130354Z AUTO 00000KT 8SM CLR 22/22 A2999 RMK AO2 SLP154 T02220217 TSNO;EQDQ01+000000PRSWM2N01 00000JPWTH 0QNNAA1D0 00000BA1 0 00000GA1U0 99999KA1D0 00071JA1 0 00217LA1 0 00800CA1 0 02999NA1 0 00000QA1 0 10154SA1D0 00072RA1 0 00222YA1 0 00000
0054723095937192000091306009+35067-077050NSRDB+000599999V020999999999999999999999999999+99999+99999999999ADDGP10060000002000000002000000002000GR100600000900009
0071723095937192000091321009+35067-077050NSRDB+000599999V020999999999999999999999999999+99999+99999999999ADDGP10060041002008038202015020302008GQ100600572924849GR100600731913519
0071723095937192000091720009+35067-077050NSRDB+000599999V020999999999999999999999999999+99999+99999999999ADDGP10060039702008012502015031302008GQ100600477923409GR100600909913549
0326723095937192000091820464+35070-077050FM-16+0006KEWN V0200601N006710018019N0040231N1+02101+02101999999ADDGA1999+006901091GD13991+0018019GD23991+0033019GD34991+0069019GF108991999999999999999999MA1101591999999MW1811MW2951OC100871REMMET157KEWN 182046Z 06013G17KT 2SM TSRA BR BKN006 BKN011 OVC023CB 21/21 A3000 RMK AO2 VIS 1 1/2V4 TSB46 OCNL LTG IC OHD MOV WSW TS OHD MOV WSW CB OHD MOV WSW P0019;EQDQ01+000100PRSWM4Q02+000003PRSWM1
0238723095937192000092007003+35067-077050FM-15+0005EWN  V0209999C00005220005MN014400599+02005+01945101835ADDGD10995+9999999GP10060000002000000002000000002000GR100600000900009MA1101835999999EQDN01 00000JPWTH 0QNNAA1D0 00000BA1 0 00000GA1U0 99999KA1D0 00067JA1 0 00194LA1 0 00900CA1 0 03007NA1 0 00000QA1 0 10183SA1D0 00068RA1 0 00200YA1 0 00000
0071723095937192000092012009+35067-077050NSRDB+000599999V020999999999999999999999999999+99999+99999999999ADDGP10060006702008003602015006302008GQ100600835909349GR100600153913569
0296723095937192000092118543+35067-077050FM-15+0005EWN  V0202505N00365220005MN0160005N1+02945+02285101405ADDGF100991999999999999999999MA1101425999999MW1001REMMET067KEWN 211854Z 25007KT 10SM CLR 29/23 A2995 RMK AO2 SLP140 T02940228;EQDQ01+000000PRSWM2N01 00000JPWTH 0QNNAA1D0 00000BA1 0 00000GA1U0 99999KA1D0 00073JA1 0 00228LA1 0 01000CA1 0 02995NA1 0 00000QA1 0 10140SA1D0 00085RA1 0 00294YA1 0 25007
0427723095937192000092304543+35067-077050FM-15+0005EWN  V0209999C00005004575MN0160005N1+02285+02225101835ADDAA101000391GD13995+0045759GD24995+0070159GF108991999999999999999999KA1999M+02721KA2999N+02111MA1101835999999MW1001REMMET109KEWN 230454Z AUTO 00000KT 10SM BKN015 OVC023 23/22 A3007 RMK AO2 RAE34 SLP183 P0001 T02280222 402720211 TSNO;EQDQ01+000000PRSWM2N01 00000JPWTH 0QNNAA1D0 04015BA1 0 04015AA1D0 06023BA1 0 06023GA1 0 00015KA1D0 00072JA1 0 00222LA1 0 01000CA1 0 03007NA1 0 00000QA1 0 10183SA1D0 00073RA1 0 00228YA1 0 00000
0344723095937192000092408543+35067-077050FM-15+0005EWN  V0203005N00265003355MN0160005N1+02175+02065101155ADDGD14995+0033559GF108991999999999999999999MA1101155999999MD1610011+9999MW1001REMMET086KEWN 240854Z AUTO 30005KT 10SM OVC011 22/21 A2987 RMK AO2 SLP115 T02170206 56001 TSNO;EQDQ01+000000PRSWM2N01 00000JPWTH 0QNNAA1D0 06011BA1 0 06011GA1 0 00011KA1D0 00069JA1 0 00206LA1 0 01000CA1 0 02987NA1 0 00000QA1 0 10115SA1D0 00071RA1 0 00217YA1 0 30005
0071723095937192000092419009+35067-077050NSRDB+000599999V020999999999999999999999999999+99999+99999999999ADDGP10060069802008065002015021202008GQ100600417921509GR100601014913599
0071723095937192000092423009+35067-077050NSRDB+000599999V020999999999999999999999999999+99999+99999999999ADDGP10060003002008002802015002802008GQ100600842926509GR100600137913599
0071723095937192000092513009+35067-077050NSRDB+000599999V020999999999999999999999999999+99999+99999999999ADDGP10060022602008036402015011502008GQ100600723910449GR100600412913609
0054723095937192000092806009+35067-077050NSRDB+000599999V020999999999999999999999999999+99999+99999999999ADDGP10060000002000000002000000002000GR100600000900009
0071723095937192000092818009+35067-077050NSRDB+000599999V020999999999999999999999999999+99999+99999999999ADDGP10060069602008058102015023902008GQ100600383919269GR100601069913629
0071723095937192000100120009+35067-077050NSRDB+000599999V020999999999999999999999999999+99999+99999999999ADDGP10060010102008000002015010102008GQ100600527923079GR100600827913659
0319723095937192000100210543+35067-077050FM-15+0005EWN  V0203405N00365003665MN0160005N1+01785+01615101435ADDGD14995+0036659GF108991999999999999999999MA1101425999999MW1001REMMET075KEWN 021054Z AUTO 34007KT 10SM OVC012 18/16 A2995 RMK AO2 SLP143 T01780161;EQDQ01+000000PRSWM2N01 00000JPWTH 0QNNAA1D0 06012BA1 0 06012GA1 0 00012KA1D0 00061JA1 0 00161LA1 0 01000CA1 0 02995NA1 0 00000QA1 0 10143SA1D0 00064RA1 0 00178YA1 0 34007
0054723095937192000100300009+35067-077050NSRDB+000599999V020999999999999999999999999999+99999+99999999999ADDGP10060000002000000002000000002000GR100600000900009
0071723095937192000100513009+35067-077050NSRDB+000599999V020999999999999999999999999999+99999+99999999999ADDGP10060022502008044202015010402008GQ100600741910819GR100600375913689
0054723095937192000101309009+35067-077050NSRDB+000599999V020999999999999999999999999999+99999+99999999999ADDGP10060000002000000002000000002000GR100600000900009
0071723095937192000101417009+35067-077050NSRDB+000599999V020999999999999999999999999999+99999+99999999999ADDGP10060069902008074002015016502008GQ100600440917159GR100600988913759
0347723095937192000102108543+35067-077050FM-15+0005EWN  V0209999C00005220005MN0012005N1+01005+00945102375ADDGF100991999999999999999999MA1102375999999MD1510061+9999MW1101MW2455REMMET082KEWN 210854Z AUTO 00000KT 3/4SM BR CLR 10/09 A3023 RMK AO2 SLP237 T01000094 55006;EQDQ01+000003PRSWM1Q02    003PRSWM1N01 00070JPWTH 0QNNAA1D0 00000BA1 0 00000GA1U0 99999KA1D0 00049JA1 0 00094LA1 0 00075CA1 0 03023NA1 0 00070QA1 0 10237SA1D0 00050RA1 0 00100YA1 0 00000
0319723095937192000102300543+35067-077050FM-15+0005EWN  V0200305N00575005495MN0160005N1+01725+01395103005ADDGD14995+0054959GF108991999999999999999999MA1103015999999MW1001REMMET075KEWN 230054Z AUTO 03011KT 10SM OVC018 17/14 A3042 RMK AO2 SLP300 T01720139;EQDQ01+000000PRSWM2N01 00000JPWTH 0QNNAA1D0 06018BA1 0 06018GA1 0 00018KA1D0 00057JA1 0 00139LA1 0 01000CA1 0 03042NA1 0 00000QA1 0 10300SA1D0 00063RA1 0 00172YA1 0 03011
0054723095937192000102307009+35067-077050NSRDB+000599999V020999999999999999999999999999+99999+99999999999ADDGP10060000002000000002000000002000GR100600000900009
0054723095937192000102609009+35067-077050NSRDB+000599999V020999999999999999999999999999+99999+99999999999ADDGP10060000002000000002000000002000GR100600000900009
0300723095937192000102709543+35067-077050FM-15+0005EWN  V0203605N00415220005MN0144005N1+01675+01565101655ADDGF100991999999999999999999MA1101665999999MW1001REMMET071KEWN 270954Z AUTO 36008KT 9SM CLR 17/16 A3002 RMK AO2 SLP165 T01670156;EQDQ01+000000PRSWM2N01 00000JPWTH 0QNNAA1D0 00000BA1 0 00000GA1U0 99999KA1D0 00060JA1 0 00156LA1 0 00900CA1 0 03002NA1 0 00000QA1 0 10165SA1D0 00062RA1 0 00167YA1 0 36008
0071723095937192000102822009+35067-077050NSRDB+000599999V020999999999999999999999999999+99999+99999999999ADDGP10060009202008027602015005202008GQ100600816924709GR100600203913869
0071723095937192000103112009+35067-077050NSRDB+000599999V020999999999999999999999999999+99999+99999999999ADDGP10060000002008000002015000002008GQ100600873910939GR100600032906839
0301723095937192000110100543+35067-077050FM-15+0005EWN  V0202105N00155220005MN0160005N1+00785+00505102135ADDGF100991999999999999999999MA1102135999999MW1001REMMET072KEWN 010054Z AUTO 21003KT 10SM CLR 08/05 A3016 RMK AO2 SLP213 T00780050;EQDQ01+000000PRSWM2N01 00000JPWTH 0QNNAA1D0 00000BA1 0 00000GA1U0 99999KA1D0 00041JA1 0 00050LA1 0 01000CA1 0 03016NA1 0 00000QA1 0 10213SA1D0 00046RA1 0 00078YA1 0 21003
0054723095937192000110211009+35067-077050NSRDB+000599999V020999999999999999999999999999+99999+99999999999ADDGP10060000002000000002000000002000GR100600000900009
0054723095937192000110401009+35067-077050NSRDB+000599999V020999999999999999999999999999+99999+99999999999ADDGP10060000002000000002000000002000GR100600000900009
0071723095937192000110921009+35067-077050NSRDB+000599999V020999999999999999999999999999+99999+99999999999ADDGP10060008402008000002015008402008GQ100600734923429GR100600397913959
0359723095937192000111117543+35067-077050FM-15+0005EWN  V0203605N00415220005MN0160005N1+01675+00395101395ADDGF100991999999999999999999KA1999M+01721KA2999N+00721MA1101395999999MD1810201+9999MW1001REMMET090KEWN 111754Z AUTO 36008KT 10SM CLR 17/04 A2994 RMK AO2 SLP139 T01670039 10172 20072 58020;EQDQ01+000000PRSWM2N01 00000JPWTH 0QNNAA1D0 00000BA1 0 00000GA1U0 99999KA1D0 00039JA1 0 00039LA1 0 01000CA1 0 02994NA1 0 00000QA1 0 10139SA1D0 00062RA1 0 00167YA1 0 36008
0054723095937192000111706009+35067-077050NSRDB+000599999V020999999999999999999999999999+99999+99999999999ADDGP10060000002000000002000000002000GR100600000900009
003972309593719200011200459O+35067-077050SOD  +000599999V020999999999999999999999999999+99999+99999999999ADDAT1MW16RA  5AT2MW01FG  5AT3MW13BR  1
0319723095937192000112703543+35067-077050FM-15+0005EWN  V0202005N00215011285MN0160005N1+01005+00785101305ADDGD14995+0112859GF108991999999999999999999MA1101325999999MW1001REMMET075KEWN 270354Z AUTO 20004KT 10SM OVC037 10/08 A2992 RMK AO2 SLP130 T01000078;EQDQ01+000000PRSWM2N01 00000JPWTH 0QNNAA1D0 06037BA1 0 06037GA1 0 00037KA1D0 00046JA1 0 00078LA1 0 01000CA1 0 02992NA1 0 00000QA1 0 10130SA1D0 00050RA1 0 00100YA1 0 20004
0321723095937192000120409543+35067-077050FM-15+0005EWN  V0203405N00415011585MN0160005N1-00175-00445102795ADDGD14995+0115859GF108991999999999999999999MA1102815999999MW1001REMMET077KEWN 040954Z AUTO 34008KT 10SM OVC038 M02/M04 A3036 RMK AO2 SLP279 T10171044;EQDQ01+000000PRSWM2N01 00000JPWTH 0QNNAA1D0 06038BA1 0 06038GA1 0 00038KA1D0 00024JA1 0-00044LA1 0 01000CA1 0 03036NA1 0 00000QA1 0 10279SA1D0 00029RA1 0-00017YA1 0 34008
0071723095937192000120521009+35067-077050NSRDB+000599999V020999999999999999999999999999+99999+99999999999ADDGP10060019302009057702021005502009GQ100600762922919GR100600336914099
0302723095937192000120612543+35067-077050FM-15+0005EWN  V0203605N00265220005MN0160005N1+00005-00395102365ADDGF100991999999999999999999MA1102375999999MW1001REMMET073KEWN 061254Z AUTO 36005KT 10SM CLR 00/M04 A3023 RMK AO2 SLP236 T00001039;EQDQ01+000000PRSWM2N01 00000JPWTH 0QNNAA1D0 00000BA1 0 00000GA1U0 99999KA1D0 00025JA1 0-00039LA1 0 01000CA1 0 03023NA1 0 00000QA1 0 10236SA1D0 00032RA1 0 00000YA1 0 36005
0325723095937192000120906543+35067-077050FM-15+0005EWN  V0209999C00005220005MN0096005N1+00115+00065102215ADDGF100991999999999999999999MA1102245999999MW1101MW2455REMMET074KEWN 090654Z AUTO 00000KT 6SM BR CLR 01/01 A3019 RMK AO2 SLP221 T00110006;EQDQ01+000003PRSWM1Q02    003PRSWM1N01 00070JPWTH 0QNNAA1D0 00000BA1 0 00000GA1U0 99999KA1D0 00033JA1 0 00006LA1 0 00600CA1 0 03019NA1 0 00070QA1 0 10221SA1D0 00034RA1 0 00011YA1 0 00000
0071723095937192000120914009+35067-077050NSRDB+000599999V020999999999999999999999999999+99999+99999999999ADDGP10060019902009043602021009702009GQ100600765913129GR100600330914119
0321723095937192000120920543+35067-077050FM-15+0005EWN  V0200405N00625220005MN0160005N1+00895+00115102665ADDGF100991999999999999999999MA1102685999999MD1310031+9999MW1001REMMET078KEWN 092054Z AUTO 04012KT 10SM CLR 09/01 A3032 RMK AO2 SLP266 T00890011 53003;EQDQ01+000000PRSWM2N01 00000JPWTH 0QNNAA1D0 00000BA1 0 00000GA1U0 99999KA1D0 00034JA1 0 00011LA1 0 01000CA1 0 03032NA1 0 00000QA1 0 10266SA1D0 00048RA1 0 00089YA1 0 04012
0054723095937192000121207009+35067-077050NSRDB+000599999V020999999999999999999999999999+99999+99999999999ADDGP10060000002000000002000000002000GR100600000900009
0071723095937192000121518009+35067-077050NSRDB+000599999V020999999999999999999999999999+99999+99999999999ADDGP10060051702009082602021008702009GQ100600588918719GR100600731914129
0054723095937192000121610009+35067-077050NSRDB+000599999V020999999999999999999999999999+99999+99999999999ADDGP10060000002000000002000000002000GR100600000900009
0071723095937192000122114009+35067-077050NSRDB+000599999V020999999999999999999999999999+99999+99999999999ADDGP10060018302009056502021006302009GQ100600778913059GR100600299914149
0054723095937192000122606009+35067-077050NSRDB+000599999V020999999999999999999999999999+99999+99999999999ADDGP10060000002000000002000000002000GR100600000900009
0343723095937192000122708543+35067-077050FM-15+0005EWN  V0209999C00005033535MN0160005N1-00115-01005102675ADDGD13995+0335359GF107991999999999999999999MA1102685999999MD1810121+9999MW1001REMMET085KEWN 270854Z AUTO 00000KT 10SM BKN110 M01/M10 A3032 RMK AO2 SLP267 T10111100 58012 $;EQDQ01+000000PRSWM2N01 00000JPWTH 0QNNAA1D0 04110BA1 0 04110GA1 0 00110KA1D0 00014JA1 0-00100LA1 0 01000CA1 0 03032NA1 0 00000QA1 0 10267SA1D0 00030RA1 0-00011YA1 0 00000
0213723096937272000011404596+34708-077440SOD  +0008KNCA V020999999999999999999999999999+99999+99999999999ADDOE11249999999999997OE22249999999999997REMSOD163HOURLY INCREMENTAL PRECIPITATION VALUES (IN):.00  .00  .00  .00  .00  .00  .00  .00  .00  .00  .00  .00  .00  .00  .00  .00  .00  .00  .00  .00  .00  .00  .00  .00
0425723096937272000011622003+34700-077383FM-15+0005NCA  V0202605N00525220005MN0112005N1+01505+00205102085ADDGD12995+0152459GD22995+0609659GF104991999999999999999999GP10060010902008054002015002702008GQ100600814923709GR100600212914149MA1102075999999MW1001REMMET076KNCA 162156Z 26010KT 7SM FEW050 SCT200 15/02 A3014 RMK RMK SLP208 T01500017;EQDQ01+000000PRSWM2N01 00000JPWTH 0QNNAA1D0 02050BA1 0 02050AA1D0 02200BA1 0 02200GA1U0 99999KA1D0 00036JA1 0 00020LA1 0 00700CA1 0 03014NA1 0 00000QA1 0 10208SA1D0 00059RA1 0 00150YA1 0 26010
0520723096937272000012805003+34700-077383FM-15+0005NCA  V0203005N002652200019N0112005N1-00705-01105103105ADDGF100991999999999999999999GP10060000002000000002000000002000GR100600000900009KA1999M+00001KA2999N-00671MA1103085999999MW1001REMMET074KNCA 280456Z 30005KT 7SM SKC M07/M11 A3044 RMK SLP310 T10671105 400001067;EQDQ01+000000PRSWM2N01 00000JALM1 3N02 09000JALC2D3N03 09000JALM2 3N04 09000JALC3D3N05 09000JALM3 3N06 99999CCLHTU3N07 00000JPWTH 0QNNAA1D0 00000BA1 3 00000AA1D3 09000BA1 3 09000AA1D3 09000BA1 3 09000GA1U3 99999KA1D0 00012JA1 0-00110LA1 0 00700CA1 0 03044NA1 0 00000QA1 0 10310SA1D0 00019RA1 0-00070YA1 0 30005
0504723096937272000012903003+34700-077383FM-15+0005NCA  V0209999C000052200019N0112005N1-00505-00805103585ADDGF100991999999999999999999GP10060000002000000002000000002000GR100600000900009MA1103595999999MD1310071+9999MW1001REMMET070KNCA 290256Z 00000KT 7SM SKC M05/M08 A3059 RMK SLP358 T10501083 53007;EQDQ01+000000PRSWM2N01 00000JALM1 3N02 09000JALC2D3N03 09000JALM2 3N04 09000JALC3D3N05 09000JALM3 3N06 99999CCLHTU3N07 00000JPWTH 0QNNAA1D0 00000BA1 3 00000AA1D3 09000BA1 3 09000AA1D3 09000BA1 3 09000GA1U3 99999KA1D0 00018JA1 0-00080LA1 0 00700CA1 0 03059NA1 0 00000QA1 0 10358SA1D0 00023RA1 0-00050YA1 0 00000
0505723096937272000013005003+34700-077383FM-15+0005NCA  V0200505N00365012195MN0112005N1+00105-00305103155ADDGD12995+0076259GD23995+0121959GD34995+0152459GF108991999999999999999999GP10060000002000000002000000002000GR100600000900009KA1999M+00441KA2999N-00611MA1103155999999MW1615REMMET094KNCA 300456Z 05007KT 7SM -RA SCT025 BKN040 OVC055 01/M03 A3046 RMK SLP315 T00111033 400441061;EQDQ01+000003PRSWM1Q02    003PRSWM1N01 00020JPWTH 0QNNAA1D0 02025BA1 0 02025AA1D0 04040BA1 0 04040AA1D0 06050BA1 0 06050GA1 0 00040KA1D0 00027JA1 0-00030LA1 0 00700CA1 0 03046NA1 0 00020QA1 0 10315SA1D0 00034RA1 0 00010YA1 0 05007
0506723096937272000013022003+34700-077383FM-15+0005NCA  V0201905N00935003055MN0080005N1+01505+01405101565ADDGD12995+0024459GD23995+0030559GD34995+0094559GF108991999999999999999999GP10060002702008000002015002702008GQ100600786923899GR100600279914109MA1101565999999MW1101MW2815OC101291REMMET090KNCA 302156Z 19018G25KT 5SM SHRA BR SCT008 BKN010 OVC030 15/14 A2999 RMK SLP156 T01500144;EQDQ01+000003PRSWM1Q02    003PRSWM1N01 00024JPWTH 0QNNAA1D0 02008BA1 0 02008AA1D0 04010BA1 0 04010AA1D0 06031BA1 0 06031GA1 0 00010KA1D0 00057JA1 0 00140LA1 0 00500CA1 0 02999NA1 0 00024QA1 0 10156SA1D0 00059RA1 0 00150YA1 0 19018
0353723096937272000020400563+34700-077383FM-15+0005NCA  V0202305N00415220005MN0112005N1+00705+00205101265ADDGD12995+0121959GD22995+0365859GF104991999999999999999999MA1101255999999MW1001REMMET072KNCA 030056Z 23008KT 7SM FEW040 SCT120 07/02 A2990 RMK SLP126 T00720022;EQDQ01+000000PRSWM2N01 00000JPWTH 0QNNAA1D0 02040BA1 0 02040AA1D0 02120BA1 0 02120GA1U0 99999KA1D0 00036JA1 0 00020LA1 0 00700CA1 0 02990NA1 0 00000QA1 0 10126SA1D0 00045RA1 0 00070YA1 0 23008
0468723096937272000020906003+34700-077383FM-15+0005NCA  V0200405N00415220005MN0112005N1+00505+00205102735ADDGD12995+0094559GD22995+0304859GF104991999999999999999999GP10060000002000000002000000002000GR100600000900009KA1999M+00721KA2999N+00501MA1102745999999MD1810251+9999MW1001REMMET096KNCA 090556Z 04008KT 7SM SCT030 SCT100 05/02 A3034 RMK SLP273 8/570 T00500017 10072 20050 58025;EQDQ01+000000PRSWM2N01 00000JPWTH 0QNNAA1D0 02031BA1 0 02031AA1D0 02100BA1 0 02100GA1U0 99999KA1D0 00036JA1 0 00020LA1 0 00700CA1 0 03034NA1 0 00000QA1 0 10273SA1D0 00041RA1 0 00050YA1 0 04008
0071723096937272000021914009+34700-077383NSRDB+000599999V020999999999999999999999999999+99999+99999999999ADDGP10060023402008034702015012602008GQ100600719911879GR100600434914009
0071723096937272000022015009+34700-077383NSRDB+000599999V020999999999999999999999999999+99999+99999999999ADDGP10060043402008049302015019902008GQ100600615913009GR100600667913999
0054723096937272000022201009+34700-077383NSRDB+000599999V020999999999999999999999999999+99999+99999999999ADDGP10060000002000000002000000002000GR100600000900009
0465723096937272000022316003+34700-077383FM-15+0005NCA  V0200505N00265220005MN0112005N1+01605+00905103385ADDGD12995+0061059GD22995+0121959GD32995+0609659GF104991999999999999999999GP10060059602008074102015014002008GQ100600521914399GR100600857913979MA1103395999999MW1001REMMET079KNCA 231556Z 05005KT 7SM FEW020 SCT040 SCT200 16/09 A3053 RMK SLP338 T01560089;EQDQ01+000000PRSWM2N01 00000JPWTH 0QNNAA1D0 02020BA1 0 02020AA1D0 02040BA1 0 02040AA1D0 02200BA1 0 02200GA1U0 99999KA1D0 00048JA1 0 00090LA1 0 00700CA1 0 03053NA1 0 00000QA1 0 10338SA1D0 00061RA1 0 00160YA1 0 05005
0456723096937272000022613003+34700-077383FM-15+0005NCA  V0209999C00005220005MN0016005N1+00905+00905102855ADDGD12995+0001519GD22995+0609659GF104991999999999999999999GP10060013002008046802015006002008GQ100600814910719GR100600208913959MA1102885999999MW1101MW2455REMMET085KNCA 261256Z 00000KT 1SM BR SCT000 SCT200 09/09 A3038 RMK FG SCT000 SLP285 T00940094;EQDQ01+000003PRSWM1Q02    003PRSWM1N01 00070JPWTH 0QNNAA1D0 02000BA1 0 02000AA1D0 02200BA1 0 02200GA1U0 99999KA1D0 00048JA1 0 00090LA1 0 00100CA1 0 03038NA1 0 00070QA1 0 10285SA1D0 00048RA1 0 00090YA1 0 00000
0397723096937272000022622563+34700-077383FM-15+0005NCA  V0201805N00365220005MN0112005N1+01805+01105102705ADDGD12995+0121959GD22995+0304859GD32995+0548659GF104991999999999999999999MA1102715999999MW1001REMMET079KNCA 262256Z 18007KT 7SM FEW040 SCT100 SCT180 18/11 A3033 RMK SLP270 T01830106;EQDQ01+000000PRSWM2N01 00000JPWTH 0QNNAA1D0 02040BA1 0 02040AA1D0 02100BA1 0 02100AA1D0 02180BA1 0 02180GA1U0 99999KA1D0 00052JA1 0 00110LA1 0 00700CA1 0 03033NA1 0 00000QA1 0 10270SA1D0 00064RA1 0 00180YA1 0 18007
0421723096937272000030416003+34700-077383FM-15+0005NCA  V0200805N00415024385MN0112005N1+01405+00605101195ADDGD13995+0243859GD23995+0365859GF107991999999999999999999GP10060051802008030302015031702008GQ100600486914209GR100600918913909MA1101195999999MW1001REMMET072KNCA 041556Z 08008KT 7SM BKN080 BKN120 14/06 A2988 RMK SLP119 T01440056;EQDQ01+000000PRSWM2N01 00000JPWTH 0QNNAA1D0 04080BA1 0 04080AA1D0 04120BA1 0 04120GA1 0 00080KA1D0 00043JA1 0 00060LA1 0 00700CA1 0 02988NA1 0 00000QA1 0 10119SA1D0 00057RA1 0 00140YA1 0 08008
0452723096937272000030918003+34700-077383FM-15+0005NCA  V0202305N00625060965MN0112005N1+02805+01105101505ADDGD13995+0609659GF107991999999999999999999GP10060079102008077402015018902008GQ100600391918409GR100601075913869KA1999M+02781KA2999N+01561MA1101495999999MD1710271+9999MW1001OC101081REMMET092KNCA 091756Z 23012G21KT 7SM BKN200 28/11 A2997 RMK SLP150 8/001 T02780106 10278 20156 57027;EQDQ01+000000PRSWM2N01 00000JPWTH 0QNNAA1D0 04200BA1 0 04200GA1 0 00200KA1D0 00052JA1 0 00110LA1 0 00700CA1 0 02997NA1 0 00000QA1 0 10150SA1D0 00082RA1 0 00280YA1 0 23012
0213723096937272000031208404+34700-077430FM-16+0008KNCA V0202201N003610090019N0112651N1+01601+01601100741ADDGD12991+0015019GD23991+0090019GD34991+0300019GF108991999999999999999999MA1100751999999MW1001REMMET090KNCA 120840Z 22007KT 7SM FEW005 BKN030 OVC100 16/16 A2975 RMK CB E MOVD NE SLP074 TS2 SET;EQDQ01+000000PRSWM2
0206723096937272000031313003+34700-077430FM-15+0008KNCA V0200201N005712200019N0112651N1+00401+99999102791ADDGF100991999999999999999999GP10060018802008050302015007402008GQ100600770910269GR100600311913839MA1102781999999MW1001REMMET060KNCA 131256Z 02011KT 7SM SKC 04/ A3035 RMK SLP279 T00391033;EQDQ01+000000PRSWM2
0465723096937272000031717003+34700-077383FM-15+0005NCA  V0202705N00625021345MN0112005N1+02105+01605101345ADDGD12995+0094559GD23995+0213459GD33995+0365859GF107991999999999999999999GP10060041602008008402015034902008GQ100600376916039GR100601093913809MA1101355999999MW1001REMMET079KNCA 171656Z 27012KT 7SM SCT030 BKN070 BKN120 21/16 A2993 RMK SLP134 T02110161;EQDQ01+000000PRSWM2N01 00000JPWTH 0QNNAA1D0 02031BA1 0 02031AA1D0 04070BA1 0 04070AA1D0 04120BA1 0 04120GA1 0 00070KA1D0 00061JA1 0 00160LA1 0 00700CA1 0 02993NA1 0 00000QA1 0 10134SA1D0 00070RA1 0 00210YA1 0 27012
0494723096937272000031805003+34700-077383FM-15+0005NCA  V0200205N007252200019N0112005N1+00805-00205102735ADDGF100991999999999999999999GP10060000002000000002000000002000GR100600000900009MA1102745999999MW1001OC101181REMMET066KNCA 180456Z 02014G23KT 7SM SKC 08/M02 A3034 RMK SLP273 T00781022;EQDQ01+000000PRSWM2N01 00000JALM1 3N02 09000JALC2D3N03 09000JALM2 3N04 09000JALC3D3N05 09000JALM3 3N06 99999CCLHTU3N07 00000JPWTH 0QNNAA1D0 00000BA1 3 00000AA1D3 09000BA1 3 09000AA1D3 09000BA1 3 09000GA1U3 99999KA1D0 00028JA1 0-00020LA1 0 00700CA1 0 03034NA1 0 00000QA1 0 10273SA1D0 00046RA1 0 00080YA1 0 02014
0499723096937272000032309003+34700-077383FM-15+0005NCA  V0200105N00725003055MN0096005N1+00905+00805102235ADDGD12995+0015259GD23995+0030559GD34995+0045759GF108991999999999999999999GP10060000002000000002000000002000GR100600000900009MA1102245999999MD1610081+9999MW1101MW2455REMMET094KNCA 230856Z 01014KT 6SM BR SCT005 BKN010 OVC015 09/08 A3019 RMK SLP223 8/6// T00890083 56008;EQDQ01+000003PRSWM1Q02    003PRSWM1N01 00070JPWTH 0QNNAA1D0 02005BA1 0 02005AA1D0 04010BA1 0 04010AA1D0 06015BA1 0 06015GA1 0 00010KA1D0 00046JA1 0 00080LA1 0 00600CA1 0 03019NA1 0 00070QA1 0 10223SA1D0 00048RA1 0 00090YA1 0 01014
0071723096937272000032522009+34700-077383NSRDB+000599999V020999999999999999999999999999+99999+99999999999ADDGP10060032902008059402015009902008GQ100600673925619GR100600530913749
0071723096937272000032523009+34700-077383NSRDB+000599999V020999999999999999999999999999+99999+99999999999ADDGP10060013202008046402015004602008GQ100600794926539GR100600253913749
0191723096937272000040102003+34700-077430FM-15+0008KNCA V0200901N003612200019N0112651N1+01301+00801102191ADDGF100991999999999999999999GP10060000002000000002000000002000GR100600000900009MA1102201999999MW1001REMMET062KNCA 010156Z 09007KT 7SM SKC 13/08 A3018 RMK SLP219 T01280078;EQDQ01+000000PRSWM2
0499723096937272000040713003+34700-077383FM-15+0005NCA  V0202305N004152200019N0112005N1+01805+01005101725ADDGF100991999999999999999999GP10060029302008053202015011002008GQ100600699909559GR100600469913639MA1101735999999MW1001REMMET062KNCA 071256Z 23008KT 7SM SKC 18/10 A3004 RMK SLP172 T01780100;EQDQ01+000000PRSWM2N01 00000JALM1 3N02 09000JALC2D3N03 09000JALM2 3N04 09000JALC3D3N05 09000JALM3 3N06 99999CCLHTU3N07 00000JPWTH 0QNNAA1D0 00000BA1 3 00000AA1D3 09000BA1 3 09000AA1D3 09000BA1 3 09000GA1U3 99999KA1D0 00050JA1 0 00100LA1 0 00700CA1 0 03004NA1 0 00000QA1 0 10172SA1D0 00064RA1 0 00180YA1 0 23008
0631723096937272000040901003+34700-077383FM-15+0005NCA  V0203205N01445002445MN0080005N1+01205+01105100415ADDGA1999+003001091GD12995+0015259GD23995+0024459GD33995+0030559GD44991+0150019GF108991999999999999999999GP10060000002000000002000000002000GR100600000900009KA1999M+02561KA2999N+01221MA1100415999999MD1310101+9999MW1815OC101851REMMET167KNCA 082356Z 32028G36KT 5SM SHRA BR FEW005 BKN008 BKN010CB OVC050 12/11 A2965 RMK PK WND 32037/2354 CB OHD MOV NE SLP041 SVR TS1 SET 8/9// T01220106 10256 20122 53010;EQDQ01+000003PRSWM1Q02    003PRSWM1N01 00024JPWTH 0QNNAA1D0 02005BA1 0 02005AA1D0 04008BA1 0 04008AA1D0 04010BA1 0 04010GA1 0 00008KA1D0 00052JA1 0 00110LA1 0 00500CA1 0 02965NA1 0 00024QA1 0 10041SA1D0 00054RA1 0 00120YA1 0 32028
0488723096937272000041014003+34700-077383FM-15+0005NCA  V02099999999992200019N0112005N1+01505+00105102615ADDGF100991999999999999999999GP10060050202008065202015014602008GQ100600569910429GR100600741913619MA1102615999999MW1001REMMET062KNCA 101356Z VRB03KT 7SM SKC 15/01 A3030 RMK SLP261 T01500011;EQDQ01+000000PRSWM2N01 00000JALM1 3N02 09000JALC2D3N03 09000JALM2 3N04 09000JALC3D3N05 09000JALM3 3N06 99999CCLHTU3N07 00000JPWTH 0QNNAA1D0 00000BA1 3 00000AA1D3 09000BA1 3 09000AA1D3 09000BA1 3 09000GA1U3 99999KA1D0 00034JA1 0 00010LA1 0 00700CA1 0 03030NA1 0 00000QA1 0 10261SA1D0 00059RA1 0 00150
0377723096937272000042919003+34700-077383FM-15+0005NCA  V0203505N00315220005MN0112005N1+02105+00805101495ADDGD12995+0106759GF104991999999999999999999GP10060089802008072902015025002008GQ100600275922789GR100601193913479MA1101495999999MW1001REMMET065KNCA 291856Z 35006KT 7SM SCT035 21/08 A2997 RMK SLP149 T02060083;EQDQ01+000000PRSWM2N01 00000JPWTH 0QNNAA1D0 02035BA1 0 02035GA1U0 99999KA1D0 00046JA1 0 00080LA1 0 00700CA1 0 02997NA1 0 00000QA1 0 10149SA1D0 00070RA1 0 00210YA1 0 35006
0557723096937272000050312003+34700-077383FM-15+0005NCA  V0200505N004652200019N0112005N1+01605+01405102275ADDGF100991999999999999999999GP10060018202008032702015010502008GQ100600762908009GR100600319913449KA1999M+01781KA2999N+01561MA1102275999999MD1210141+9999MW1001REMMET080KNCA 031156Z 05009KT 7SM SKC 16/14 A3020 RMK SLP227 T01610139 10178 20156 52014;EQDQ01+000000PRSWM2N01 00000JALM1 3N02 09000JALC2D3N03 09000JALM2 3N04 09000JALC3D3N05 09000JALM3 3N06 99999CCLHTU3N07 00000JPWTH 0QNNAA1D0 00000BA1 3 00000AA1D3 09000BA1 3 09000AA1D3 09000BA1 3 09000GA1U3 99999KA1D0 00057JA1 0 00140LA1 0 00700CA1 0 03020NA1 0 00000QA1 0 10227SA1D0 00061RA1 0 00160YA1 0 05009
0441723096937272000050500003+34700-077383FM-15+0005NCA  V0201505N00315220005MN0112005N1+01905+01305102525ADDGD12995+0548659GF102991999999999999999999GP10060003202008015302015002002008GQ100600849928649GR100600111912429KA1999M+02441KA2999N+01941MA1102515999999MD1210021+9999MW1001REMMET089KNCA 042356Z 15006KT 7SM FEW180 19/13 A3027 RMK SLP252 8/001 T01940133 10244 20194 52002;EQDQ01+000000PRSWM2N01 00000JPWTH 0QNNAA1D0 02180BA1 0 02180GA1U0 99999KA1D0 00055JA1 0 00130LA1 0 00700CA1 0 03027NA1 0 00000QA1 0 10252SA1D0 00066RA1 0 00190YA1 0 15006
0482723096937272000050801003+34700-077383FM-15+0005NCA  V0202005N003152200019N0112005N1+02205+01405101785ADDGF100991999999999999999999GP10060000002000000002000000002000GR100600000900009MA1101765999999MW1001REMMET062KNCA 080056Z 20006KT 7SM SKC 22/14 A3005 RMK SLP178 T02170144;EQDQ01+000000PRSWM2N01 00000JALM1 3N02 09000JALC2D3N03 09000JALM2 3N04 09000JALC3D3N05 09000JALM3 3N06 99999CCLHTU3N07 00000JPWTH 0QNNAA1D0 00000BA1 3 00000AA1D3 09000BA1 3 09000AA1D3 09000BA1 3 09000GA1U3 99999KA1D0 00057JA1 0 00140LA1 0 00700CA1 0 03005NA1 0 00000QA1 0 10178SA1D0 00072RA1 0 00220YA1 0 20006
0377723096937272000051123003+34700-077383FM-15+0005NCA  V0201905N00265060965MN0112005N1+02205+01305101555ADDGD13995+0609659GF107991999999999999999999GP10060017902008020302015011802008GQ100600725928049GR100600401913399MA1101525999999MW1001REMMET065KNCA 112256Z 19005KT 7SM BKN200 22/13 A2998 RMK SLP155 T02220128;EQDQ01+000000PRSWM2N01 00000JPWTH 0QNNAA1D0 04200BA1 0 04200GA1 0 00200KA1D0 00055JA1 0 00130LA1 0 00700CA1 0 02998NA1 0 00000QA1 0 10155SA1D0 00072RA1 0 00220YA1 0 19005
0421723096937272000051414003+34700-077383FM-15+0005NCA  V0200505N00675220005MN0112005N1+02505+01105101585ADDGD12995+0243859GD22995+0609659GF104991999999999999999999GP10060054202008050102015022102008GQ100600501909409GR100600856913379MA1101635999999MW1001REMMET072KNCA 141356Z 05013KT 7SM FEW080 SCT200 25/11 A3001 RMK SLP158 T00250111;EQDQ01+000000PRSWM2N01 00000JPWTH 0QNNAA1D0 02080BA1 0 02080AA1D0 02200BA1 0 02200GA1U0 99999KA1D0 00052JA1 0 00110LA1 0 00700CA1 0 03001NA1 0 00000QA1 0 10158SA1D0 00077RA1 0 00250YA1 0 05013
0360723096937272000051707003+34700-077383FM-15+0005NCA  V0209999C00005220005MN0112005N1+01405+01405102105ADDGD12995+0365859GF104991999999999999999999GP10060000002000000002000000002000GR100600000900009MA1102105999999MW1001REMMET065KNCA 170656Z 00000KT 7SM SCT120 14/14 A3015 RMK SLP210 T01440139;EQDQ01+000000PRSWM2N01 00000JPWTH 0QNNAA1D0 02120BA1 0 02120GA1U0 99999KA1D0 00057JA1 0 00140LA1 0 00700CA1 0 03015NA1 0 00000QA1 0 10210SA1D0 00057RA1 0 00140YA1 0 00000
0476723096937272000051722003+34700-077383FM-15+0005NCA  V0202005N00465060965MN0112005N1+02405+01605102175ADDGD12995+0121959GD22995+0243859GD33995+0609659GF107991999999999999999999GP10060042902008057302015013902008GQ100600596927389GR100600674913359MA1102175999999MW1001OC100871REMMET082KNCA 172156Z 20009G17KT 7SM FEW040 SCT080 BKN200 24/16 A3017 RMK SLP217 T02390156;EQDQ01+000000PRSWM2N01 00000JPWTH 0QNNAA1D0 02040BA1 0 02040AA1D0 02080BA1 0 02080AA1D0 04200BA1 0 04200GA1 0 00200KA1D0 00061JA1 0 00160LA1 0 00700CA1 0 03017NA1 0 00000QA1 0 10217SA1D0 00075RA1 0 00240YA1 0 20009
0512723096937272000053106003+34700-077383FM-15+0005NCA  V0200105N00525024385MN0112005N1+01505+01105102065ADDGD12995+0061059GD22995+0137259GD33995+0243859GF107991999999999999999999GP10060000002000000002000000002000GR100600000900009KA1999M+01671KA2999N+01501MA1102075999999MD1710051+9999MW1001REMMET103KNCA 310556Z 01010KT 7SM FEW020 SCT045 BKN080 15/11 A3014 RMK SLP206 8/570 T01500111 10167 20150 57005;EQDQ01+000000PRSWM2N01 00000JPWTH 0QNNAA1D0 02020BA1 0 02020AA1D0 02045BA1 0 02045AA1D0 04080BA1 0 04080GA1 0 00080KA1D0 00052JA1 0 00110LA1 0 00700CA1 0 03014NA1 0 00000QA1 0 10206SA1D0 00059RA1 0 00150YA1 0 01010
0403723096937272000060115003+34700-077383FM-15+0005NCA  V0202605N00465220005MN0112005N1+02605+02105102235ADDGD12995+0045759GF104991999999999999999999GP10060073202008068402015018202008GQ100600365909969GR100601065913289MA1102205999999MD1210031+9999MW1001REMMET077KNCA 011456Z 26009KT 7SM SCT015 26/21 A3018 RMK SLP223 8/100 T02560211 52003;EQDQ01+000000PRSWM2N01 00000JPWTH 0QNNAA1D0 02015BA1 0 02015GA1U0 99999KA1D0 00070JA1 0 00210LA1 0 00700CA1 0 03018NA1 0 00000QA1 0 10223SA1D0 00079RA1 0 00260YA1 0 26009
0360723096937272000060205003+34700-077383FM-15+0005NCA  V0209999C00005220005MN0112005N1+02105+01705101965ADDGD12995+0609659GF102991999999999999999999GP10060000002000000002000000002000GR100600000900009MA1101935999999MW1001REMMET065KNCA 020456Z 00000KT 7SM FEW200 21/17 A3010 RMK SLP196 T02110172;EQDQ01+000000PRSWM2N01 00000JPWTH 0QNNAA1D0 02200BA1 0 02200GA1U0 99999KA1D0 00063JA1 0 00170LA1 0 00700CA1 0 03010NA1 0 00000QA1 0 10196SA1D0 00070RA1 0 00210YA1 0 00000
0537723096937272000060618003+34700-077383FM-15+0005NCA  V0202905N00365012195MN0112005N1+02305+02205101025ADDGD12995+0094559GD23995+0121959GD33995+0182959GF107991999999999999999999GP10060018502008001802015016802008GQ100600133920159GR100601290913269KA1999M+02611KA2999N+02281MA1101025999999MD1510001+9999MW1001REMMET111KNCA 061756Z 29007KT 7SM SCT030 BKN040 BKN060 23/22 A2983 RMK SLP102 TS1 SET 8/800 T02280217 10261 20228 55000;EQDQ01+000000PRSWM2N01 00000JPWTH 0QNNAA1D0 02031BA1 0 02031AA1D0 04040BA1 0 04040AA1D0 04060BA1 0 04060GA1 0 00040KA1D0 00072JA1 0 00220LA1 0 00700CA1 0 02983NA1 0 00000QA1 0 10102SA1D0 00073RA1 0 00230YA1 0 29007
0403723096937272000061121003+34700-077383FM-15+0005NCA  V0201705N00575220005MN0112005N1+02805+01805102225ADDGD12995+0121959GF102991999999999999999999GP10060061502008062302015017402008GQ100600449926899GR100600936913259MA1102205999999MD1610051+9999MW1001REMMET077KNCA 112056Z 17011KT 7SM FEW040 28/18 A3018 RMK SLP222 8/100 T02780178 56005;EQDQ01+000000PRSWM2N01 00000JPWTH 0QNNAA1D0 02040BA1 0 02040GA1U0 99999KA1D0 00064JA1 0 00180LA1 0 00700CA1 0 03018NA1 0 00000QA1 0 10222SA1D0 00082RA1 0 00280YA1 0 17011
0465723096937272000061322003+34700-077383FM-15+0005NCA  V0201805N00525220005MN0112005N1+03105+02405101795ADDGD12995+0094559GD22995+0243859GD32995+0609659GF104991999999999999999999GP10060042902008047002015017402008GQ100600571927719GR100600718913249MA1101795999999MW1001REMMET079KNCA 132156Z 18010KT 7SM FEW030 SCT080 SCT200 31/24 A3006 RMK SLP179 T03060244;EQDQ01+000000PRSWM2N01 00000JPWTH 0QNNAA1D0 02031BA1 0 02031AA1D0 02080BA1 0 02080AA1D0 02200BA1 0 02200GA1U0 99999KA1D0 00075JA1 0 00240LA1 0 00700CA1 0 03006NA1 0 00000QA1 0 10179SA1D0 00088RA1 0 00310YA1 0 18010
0360723096937272000061507003+34700-077383FM-15+0005NCA  V0209999C00005220005MN0112005N1+02305+02305101905ADDGD12995+0213459GF102991999999999999999999GP10060000002000000002000000002000GR100600000900009MA1101905999999MW1001REMMET065KNCA 150656Z 00000KT 7SM FEW070 23/23 A3009 RMK SLP190 T02280228;EQDQ01+000000PRSWM2N01 00000JPWTH 0QNNAA1D0 02070BA1 0 02070GA1U0 99999KA1D0 00073JA1 0 00230LA1 0 00700CA1 0 03009NA1 0 00000QA1 0 10190SA1D0 00073RA1 0 00230YA1 0 00000
0473723096937272000062422003+34700-077383FM-15+0005NCA  V0201805N00465060965MN0112005N1+02805+02105101965ADDGD12995+0061059GD22995+0304859GD33995+0609659GF107991999999999999999999GP10060044102008047602015017802008GQ100600565927699GR100600728913229MA1101965999999MW1001REMMET087KNCA 242156Z 18009KT 7SM FEW020 SCT100 BKN200 28/21 A3011 RMK SLP196 TS2 SET T02830211;EQDQ01+000000PRSWM2N01 00000JPWTH 0QNNAA1D0 02020BA1 0 02020AA1D0 02100BA1 0 02100AA1D0 04200BA1 0 04200GA1 0 00200KA1D0 00070JA1 0 00210LA1 0 00700CA1 0 03011NA1 0 00000QA1 0 10196SA1D0 00082RA1 0 00280YA1 0 18009
0448723096937272000062602003+34700-077383FM-15+0005NCA  V0201905N00315220005MN0112005N1+02505+02305101925ADDGD12995+0061059GD22995+0365859GD32995+0609659GF104991999999999999999999GP10060000002000000002000000002000GR100600000900009MA1101935999999MW1001REMMET079KNCA 260156Z 19006KT 7SM FEW020 FEW120 SCT200 25/23 A3010 RMK SLP192 T02500228;EQDQ01+000000PRSWM2N01 00000JPWTH 0QNNAA1D0 02020BA1 0 02020AA1D0 02120BA1 0 02120AA1D0 02200BA1 0 02200GA1U0 99999KA1D0 00073JA1 0 00230LA1 0 00700CA1 0 03010NA1 0 00000QA1 0 10192SA1D0 00077RA1 0 00250YA1 0 19006
0269723096937272000062617044+34690-077430FM-16+0008KNCA V0202701N008710090019N0096561N1+03101+02301102031ADDGA1999+006001091GD12991+0030019GD22991+0060019GD33991+0090019GF107991999999999999999999MA1102031999999MW1611OC101231REMMET106KNCA 261704Z 27017G24KT 6SM -RA FEW010 SCT020CB BKN030 31/23 A3013 RMK VIS W 1 CB W MOV NE SLP203 TS2 SET;EQDQ01+000003PRSWM1Q02    003PRSWM1
0559723096937272000062923003+34700-077383FM-15+0005NCA  V0201705N00265009455MN0032005N1+02305+02305101125ADDAA101000891GD12995+0024459GD22995+0042759GD33995+0094559GD44991+0150019GF108991999999999999999999GP10060004602008000002015004602008GQ100600685928409GR100600483913219MA1101155999999MW1101MW2805REMMET125KNCA 292255Z 17005KT 2SM -SHRA BR FEW008 SCT014 BKN030 OVC050 23/23 A2987 RMKS TS E-SE MOVD SE SLP112 T1 SET P0003 T02330228;EQDQ01+000003PRSWM1Q02    003PRSWM1N01 00023JPWTH 0QNNAA1D0 02008BA1 0 02008AA1D0 02014BA1 0 02014AA1D0 04031BA1 0 04031GA1 0 00031KA1D0 00073JA1 0 00230LA1 0 00200CA1 0 02987NA1 0 00023QA1 0 10112SA1D0 00073RA1 0 00230YA1 0 17005
0261723096937272000063004596+34708-077440SOD  +0008KNCA V020999999999999999999999999999+99999+99999999999ADDAT1MW03TS  5AT2MW16RA  5AT3MW01FG  5AT4MW13BR  1OE11249999999999997OE22249999999999997REMSOD163HOURLY INCREMENTAL PRECIPITATION VALUES (IN):.00  .00  .00  .00  .00  .00  .00  .00  .00  .00  .00  .00  .00  .00  .00  .00  .00  .00  .00  .00  .00  .00  .00  .00
0377723096937272000070219003+34700-077383FM-15+0005NCA  V0201605N00265220005MN0112005N1+02905+01505101945ADDGD12995+0152459GF104991999999999999999999GP10060081302008061002015024102008GQ100600205923909GR100601236913219MA1101935999999MW1001REMMET065KNCA 021856Z 16005KT 7SM SCT050 29/15 A3010 RMK SLP194 T02890150;EQDQ01+000000PRSWM2N01 00000JPWTH 0QNNAA1D0 02050BA1 0 02050GA1U0 99999KA1D0 00059JA1 0 00150LA1 0 00700CA1 0 03010NA1 0 00000QA1 0 10194SA1D0 00084RA1 0 00290YA1 0 16005
0260723096937272000070404596+34708-077440SOD  +0008KNCA V020999999999999999999999999999+99999+99999999999ADDMG1101869999994OE11249999999999997OE22249999999999997REMSOD195AVERAGE STATION PRESSURE:30.08  HOURLY INCREMENTAL PRECIPITATION VALUES (IN):.00  .00  .00  .00  .00  .00  .00  .00  .00  .00  .00  .00  .00  .00  .00  .00  .00  .00  .00  .00  .00  .00  .00  .00
0419723096937272000071203003+34700-077383FM-15+0005NCA  V0203505N003150600019N0112005N1+02905+02305101215ADDGD12995+0243859GD23995+0609659GF107991999999999999999999GP10060000002000000002000000002000GR100600000900009MA1101225999999MD1110151+9999MW1001REMMET084KNCA 120256Z 35006KT 7SM SCT080 BKN200 29/23 A2989 RMK SLP121 8/071 T02890228 51015;EQDQ01+000000PRSWM2N01 00000JPWTH 0QNNAA1D0 02080BA1 0 02080AA1D0 04200BA1 0 04200KA1D0 00073JA1 0 00230LA1 0 00700CA1 0 02989NA1 0 00000QA1 0 10121SA1D0 00084RA1 0 00290YA1 0 35006
0410723096937272000071311003+34700-077383FM-15+0005NCA  V0200705N003650750019N0112005N1+02305+01905101545ADDGD12995+0365859GD23995+0762059GF107991999999999999999999GP10060000002008000002015000002008GQ100600855906649GR100600090911359MA1101525999999MW1001REMMET072KNCA 131056Z 07007KT 7SM SCT120 BKN250 23/19 A2998 RMK SLP154 T02280194;EQDQ01+000000PRSWM2N01 00000JPWTH 0QNNAA1D0 02120BA1 0 02120AA1D0 04250BA1 0 04250KA1D0 00066JA1 0 00190LA1 0 00700CA1 0 02998NA1 0 00000QA1 0 10154SA1D0 00073RA1 0 00230YA1 0 07007
0473723096937272000071422003+34700-077383FM-15+0005NCA  V0201505N00525154845MN0112005N1+02805+02005101075ADDGD12995+0061059GD22995+0106759GD33995+0152459GF107991999999999999999999GP10060019602008001802015018602008GQ100600567927459GR100600724913229MA1101055999999MW1001REMMET087KNCA 142156Z 15010KT 7SM FEW020 SCT035 BKN050 28/20 A2984 RMK SLP107 TS2 SET T02780200;EQDQ01+000000PRSWM2N01 00000JPWTH 0QNNAA1D0 02020BA1 0 02020AA1D0 02035BA1 0 02035AA1D0 04050BA1 0 04050GA1 0 00508KA1D0 00068JA1 0 00200LA1 0 00700CA1 0 02984NA1 0 00000QA1 0 10107SA1D0 00082RA1 0 00280YA1 0 15010
0256723096937272000071522003+34690-077430FM-15+0008KNCA V0201301N002112200019N0112651N1+02801+02101100451ADDGD12991+0120019GD22991+0240019GF104991999999999999999999GP10060045102008057602015013602008GQ100600568927439GR100600723913229MA1100441999999MW1001REMMET080KNCA 152156Z 13004KT 7SM FEW040 SCT080 28/21 A2966 RMK SLP045 TS2 SET T02780211;EQDQ01+000000PRSWM2
0431723096937272000080113003+34700-077383FM-15+0005NCA  V0202105N00365220005MN0112005N1+02805+02405102135ADDGD12995+0076259GD22995+0609659GF104991999999999999999999GP10060031202008037002015015502008GQ100600649908509GR100600561913269MA1102135999999MW1001REMMET082KNCA 011256Z 21007KT 7SM FEW025 SCT200 28/24 A3016 RMK SLP213 T02760244 T02800240;EQDQ01+000000PRSWM2N01 00000JPWTH 0QNNAA1D0 02025BA1 0 02025AA1D0 02200BA1 0 02200GA1U0 99999KA1D0 00075JA1 0 00240LA1 0 00700CA1 0 03016NA1 0 00000QA1 0 10213SA1D0 00082RA1 0 00280YA1 0 21007
0391723096937272000080916003+34700-077383FM-15+0005NCA  V0202305N00265220005MN0096005N1+03205+02605101805ADDGD12995+0094559GF104991999999999999999999GP10060077002008059102015025902008GQ100600304912299GR100601146913309MA1101795999999MW1055REMMET063KNCA 1556 VRB05KT 6SM HZ SCT030 32/26 A3006 SLP180 T03170261 .;EQDQ01+000003PRSWM1Q02    003PRSWM1N01 00081JPWTH 0QNNAA1D0 02031BA1 0 02031GA1U0 99999KA1D0 00079JA1 0 00260LA1 0 00600CA1 0 03006NA1 0 00081QA1 0 10180SA1D0 00090RA1 0 00320YA1 0 23005
0465723096937272000081620003+34700-077383FM-15+0005NCA  V0202705N00525067065MN0112005N1+03305+02105101635ADDGD12995+0094559GD22995+0304859GD33995+0670659GF107991999999999999999999GP10060073102008069102015018202008GQ100600374924369GR100601057913339MA1101635999999MW1001REMMET079KNCA 161956Z 27010KT 7SM FEW030 SCT100 BKN220 33/21 A3001 RMK SLP163 T03330206;EQDQ01+000000PRSWM2N01 00000JPWTH 0QNNAA1D0 02031BA1 0 02031AA1D0 02100BA1 0 02100AA1D0 04220BA1 0 04220GA1 0 00220KA1D0 00070JA1 0 00210LA1 0 00700CA1 0 03001NA1 0 00000QA1 0 10163SA1D0 00091RA1 0 00330YA1 0 27010
0421723096937272000082017003+34700-077383FM-15+0005NCA  V0200605N00525012195MN0112005N1+02705+01605102135ADDGD13995+0121959GD23995+0457259GF107991999999999999999999GP10060086502008071002015021902008GQ100600248915469GR100601212913359MA1102135999999MW1001REMMET072KNCA 201656Z 06010KT 7SM BKN040 BKN150 27/16 A3016 RMK SLP213 T02670161;EQDQ01+000000PRSWM2N01 00000JPWTH 0QNNAA1D0 04040BA1 0 04040AA1D0 04150BA1 0 04150GA1 0 00040KA1D0 00061JA1 0 00160LA1 0 00700CA1 0 03016NA1 0 00000QA1 0 10213SA1D0 00081RA1 0 00270YA1 0 06010
0572723096937272000082018003+34700-077383FM-15+0005NCA  V0200505N00675015245MN0112005N1+02705+01605102115ADDGD12995+0121959GD23995+0152459GD33995+0243859GD43991+0360019GF107991999999999999999999GP10060083802008065402015023502008GQ100600232919069GR100601227913359KA1999M+02831KA2999N+02001MA1102105999999MD1610071+9999MW1001REMMET131KNCA 201756Z COR 05013KT 7SM SCT040 BKN055 BKN080 BKN120 BKN200 27/16 A3015 RMK SLP211 8/838 T02670156 10283 20200 56007 COR 1758Z;EQDQ01+000000PRSWM2N01 00000JPWTH 0QNNAA1D0 02040BA1 0 02040AA1D0 04050BA1 0 04050AA1D0 04080BA1 0 04080GA1 0 00050KA1D0 00061JA1 0 00160LA1 0 00700CA1 0 03015NA1 0 00000QA1 0 10211SA1D0 00081RA1 0 00270YA1 0 05013
0421723096937272000082323003+34700-077383FM-15+0005NCA  V0202005N00365060965MN0112005N1+02605+02105102225ADDGD12995+0076259GD23995+0609659GF107991999999999999999999GP10060015702008029302015008102008GQ100600751927339GR100600343913379MA1102245999999MW1001REMMET072KNCA 232256Z 20007KT 7SM FEW025 BKN200 26/21 A3019 RMK SLP222 T02560200;EQDQ01+000000PRSWM2N01 00000JPWTH 0QNNAA1D0 02025BA1 0 02025AA1D0 04200BA1 0 04200GA1 0 00200KA1D0 00070JA1 0 00210LA1 0 00700CA1 0 03019NA1 0 00000QA1 0 10222SA1D0 00079RA1 0 00260YA1 0 20007
0430723096937272000091603003+34700-077383FM-15+0005NCA  V0203605N00415220005MN0112005N1+02105+01105101155ADDGD12995+0094559GD22995+0243859GF104991999999999999999999GP10060000002000000002000000002000GR100600000900009MA1101155999999MD1210341+9999MW1001REMMET084KNCA 160256Z 36008KT 7SM FEW030 SCT080 21/11 A2987 RMK SLP115 8/170 T02110106 52034;EQDQ01+000000PRSWM2N01 00000JPWTH 0QNNAA1D0 02031BA1 0 02031AA1D0 02080BA1 0 02080GA1U0 99999KA1D0 00052JA1 0 00110LA1 0 00700CA1 0 02987NA1 0 00000QA1 0 10115SA1D0 00070RA1 0 00210YA1 0 36008
0487723096937272000091912003+34700-077383FM-15+0005NCA  V0202405N00575006105MN0112005N1+02105+01805101415ADDGD13995+0061059GD24995+0094559GF108991999999999999999999GP10060006902008003702015006502008GQ100600836909289GR100600151913559KA1999M+02281KA2999N+02061MA1101425999999MD1210101+9999MW1001REMMET098KNCA 191156Z 24011KT 7SM BKN020 OVC030 21/18 A2995 RMK SLP141 TS2 SET T02060178 10228 20206 52010;EQDQ01+000000PRSWM2N01 00000JPWTH 0QNNAA1D0 04020BA1 0 04020AA1D0 06031BA1 0 06031GA1 0 00020KA1D0 00064JA1 0 00180LA1 0 00700CA1 0 02995NA1 0 00000QA1 0 10141SA1D0 00070RA1 0 00210YA1 0 24011
0548723096937272000092418003+34700-077383FM-15+0005NCA  V0201905N00365006105MN0096005N1+02905+02405100975ADDGD13995+0061059GD23995+0121959GD33995+0182959GF107991999999999999999999GP10060039302008013202015028702008GQ100600363919219GR100601095913599KA1999M+03171KA2999N+02221MA1100985999999MD1810221+9999MW1055REMMET106KNCA 241756Z 19007KT 6SM HZ BKN020 BKN040 BKN060 29/24 A2982 RMK SLP097 8/800 T02940239 10317 20222 58022;EQDQ01+000003PRSWM1Q02    003PRSWM1N01 00081JPWTH 0QNNAA1D0 04020BA1 0 04020AA1D0 04040BA1 0 04040AA1D0 04060BA1 0 04060GA1 0 00020KA1D0 00075JA1 0 00240LA1 0 00600CA1 0 02982NA1 0 00081QA1 0 10097SA1D0 00084RA1 0 00290YA1 0 19007
0420723096937272000092917003+34700-077383FM-15+0005NCA  V0200505N006750150019N1552005N1+02405+01605102395ADDGD19999+0090019GD23991+0150019GF107991999999999999999999GP10060071802008063102015022002008GQ100600383916809GR100601070913639MA1102405999999MW1001REMMET072KNCA 291656Z 05013KT 7SM SCT030 BKN050 24/16 A3024 RMK SLP239 T02440156;EQDQ01+000000PRSWM2N01 00999JALM1 3N02 00000JPWTH 0P01     03SCCGD1QNNAA1D0 00999BA1 3 00999KA1D0 00061JA1 0 00160LA1 0 09700CA1 0 03024NA1 0 00000QA1 0 10239SA1D0 00075RA1 0 00240YA1 0 05013
0500723096937272000100322003+34700-077383FM-15+0005NCA  V0201905N003652200019N0112005N1+02605+01805101695ADDGF100991999999999999999999GP10060019802008047402015007202008GQ100600746925339GR100600362913669MA1101695999999MW1001REMMET063KNCA 032156Z 19007KT 7SM SKC 26/18 A3003 RMK SLP169 T02610178 ;EQDQ01+000000PRSWM2N01 00000JALM1 3N02 09000JALC2D3N03 09000JALM2 3N04 09000JALC3D3N05 09000JALM3 3N06 99999CCLHTU3N07 00000JPWTH 0QNNAA1D0 00000BA1 3 00000AA1D3 09000BA1 3 09000AA1D3 09000BA1 3 09000GA1U3 99999KA1D0 00064JA1 0 00180LA1 0 00700CA1 0 03003NA1 0 00000QA1 0 10169SA1D0 00079RA1 0 00260YA1 0 19007
0284723096937272000100704596+34708-077440SOD  +0008KNCA V020999999999999999999999999999+99999+99999999999ADDAT1MW01FG  5AT2MW13BR  1MG1101089999994OE11249999999999997OE22249999999999997REMSOD195AVERAGE STATION PRESSURE:29.85  HOURLY INCREMENTAL PRECIPITATION VALUES (IN):.00  .00  .00  .00  .00  .00  .00  .00  .00  .00  .00  .00  .00  .00  .00  .00  .00  .00  .00  .00  .00  .00  .00  .00
0414723096937272000100815003+34700-077383FM-15+0005NCA  V0200105N00675024385MN0112005N1+01105+00205102265ADDGD14995+0243859GF108991999999999999999999GP10060009002008000002015009002008GQ100600536913259GR100600812913709MA1102275999999MD1310101+9999MW1001OC101031REMMET080KNCA 081456Z 01013G20KT 7SM OVC080 11/02 A3020 RMK SLP226 8/07/ T01060022 53010;EQDQ01+000000PRSWM2N01 00000JPWTH 0QNNAA1D0 06080BA1 0 06080GA1 0 00080KA1D0 00036JA1 0 00020LA1 0 00700CA1 0 03020NA1 0 00000QA1 0 10226SA1D0 00052RA1 0 00110YA1 0 01013
0488723096937272000101120003+34700-077383FM-15+0005NCA  V02099999999992200019N0112005N1+02305+00205102405ADDGF100991999999999999999999GP10060051502008067402015013402008GQ100600556922839GR100600774913739MA1102405999999MW1001REMMET062KNCA 111956Z VRB05KT 7SM SKC 23/02 A3024 RMK SLP240 T02280017;EQDQ01+000000PRSWM2N01 00000JALM1 3N02 09000JALC2D3N03 09000JALM2 3N04 09000JALC3D3N05 09000JALM3 3N06 99999CCLHTU3N07 00000JPWTH 0QNNAA1D0 00000BA1 3 00000AA1D3 09000BA1 3 09000AA1D3 09000BA1 3 09000GA1U3 99999KA1D0 00036JA1 0 00020LA1 0 00700CA1 0 03024NA1 0 00000QA1 0 10240SA1D0 00073RA1 0 00230
0582723096937272000101212003+34700-077383FM-15+0005NCA  V0209999C000052200019N0096005N1+00605+00405102745ADDGF100991999999999999999999GP10060000002008000002015000002008GQ100600857910229GR100600077910429KA1999M+00611KA2999N+00331MA1102745999999MD1210121+9999MW1101MW2455REMMET083KNCA 121156Z 00000KT 6SM BR SKC 06/04 A3034 RMK SLP274 T00560044 10061 20033 52012;EQDQ01+000003PRSWM1Q02    003PRSWM1N01 00000JALM1 3N02 09000JALC2D3N03 09000JALM2 3N04 09000JALC3D3N05 09000JALM3 3N06 99999CCLHTU3N07 00070JPWTH 0QNNAA1D0 00000BA1 3 00000AA1D3 09000BA1 3 09000AA1D3 09000BA1 3 09000GA1U3 99999KA1D0 00039JA1 0 00040LA1 0 00600CA1 0 03034NA1 0 00070QA1 0 10274SA1D0 00043RA1 0 00060YA1 0 00000
0386723096937272000102103003+34700-077383FM-15+0005NCA  V0209999C00005060965MN0112005N1+01305+01205102525ADDGD13995+0609659GF107991999999999999999999GP10060000002000000002000000002000GR100600000900009MA1102515999999MD1310051+9999MW1001REMMET077KNCA 210256Z 00000KT 7SM BKN200 13/12 A3027 RMK SLP252 8/007 T01280122 53005;EQDQ01+000000PRSWM2N01 00000JPWTH 0QNNAA1D0 04200BA1 0 04200GA1 0 00200KA1D0 00054JA1 0 00120LA1 0 00700CA1 0 03027NA1 0 00000QA1 0 10252SA1D0 00055RA1 0 00130YA1 0 00000
0424723096937272000102106003+34700-077383FM-15+0005NCA  V0209999C00005220005MN0112005N1+01205+01105102465ADDGD12995+0609659GF104991999999999999999999GP10060000002000000002000000002000GR100600000900009KA1999M+01391KA2999N+01171MA1102475999999MD1710101+9999MW1001REMMET089KNCA 210556Z 00000KT 7SM SCT200 12/11 A3026 RMK SLP246 8/001 T01170111 10139 20117 57010;EQDQ01+000000PRSWM2N01 00000JPWTH 0QNNAA1D0 02200BA1 0 02200GA1U0 99999KA1D0 00052JA1 0 00110LA1 0 00700CA1 0 03026NA1 0 00000QA1 0 10246SA1D0 00054RA1 0 00120YA1 0 00000
0385723096937272000102211003+34700-077383FM-15+0005NCA  V0209999C00005220005MN0080005N1+01105+01105102515ADDGD12995+0121959GF102991999999999999999999GP10060000002000000002000000002000GR100600000900009MA1102515999999MW1101MW2455REMMET068KNCA 211056Z 00000KT 5SM BR FEW040 11/11 A3027 RMK SLP251 T01110111;EQDQ01+000003PRSWM1Q02    003PRSWM1N01 00070JPWTH 0QNNAA1D0 02040BA1 0 02040GA1U0 99999KA1D0 00052JA1 0 00110LA1 0 00500CA1 0 03027NA1 0 00070QA1 0 10251SA1D0 00052RA1 0 00110YA1 0 00000
0284723096937272000102604596+34708-077440SOD  +0008KNCA V020999999999999999999999999999+99999+99999999999ADDAT1MW01FG  5AT2MW13BR  1MG1102209999994OE11249999999999997OE22249999999999997REMSOD195AVERAGE STATION PRESSURE:30.18  HOURLY INCREMENTAL PRECIPITATION VALUES (IN):.00  .00  .00  .00  .00  .00  .00  .00  .00  .00  .00  .00  .00  .00  .00  .00  .00  .00  .00  .00  .00  .00  .00  .00
0377723096937272000102819003+34700-077383FM-15+0005NCA  V0203605N00315220005MN0112005N1+02805+01405101595ADDGD12995+0121959GF102991999999999999999999GP10060053502008061902015016602008GQ100600534920979GR100600826913869MA1101595999999MW1001REMMET065KNCA 281856Z 36006KT 7SM FEW040 28/14 A3000 RMK SLP159 T02780139;EQDQ01+000000PRSWM2N01 00000JPWTH 0QNNAA1D0 02040BA1 0 02040GA1U0 99999KA1D0 00057JA1 0 00140LA1 0 00700CA1 0 03000NA1 0 00000QA1 0 10159SA1D0 00082RA1 0 00280YA1 0 36006
0447723096937272000102821003+34700-077383FM-15+0005NCA  V0203605N00155220005MN0112005N1+02705+01305101635ADDGD12995+0121959GD22995+0365859GF104991999999999999999999GP10060028102008060302015007802008GQ100600704923689GR100600465913869MA1101635999999MD1310021+9999MW1001REMMET084KNCA 282056Z 36003KT 7SM FEW040 SCT120 27/13 A3001 RMK SLP163 8/130 T02670133 53002;EQDQ01+000000PRSWM2N01 00000JPWTH 0QNNAA1D0 02040BA1 0 02040AA1D0 02120BA1 0 02120GA1U0 99999KA1D0 00055JA1 0 00130LA1 0 00700CA1 0 03001NA1 0 00000QA1 0 10163SA1D0 00081RA1 0 00270YA1 0 36003
0403723096937272000103115003+34700-077383FM-15+0005NCA  V0200105N00525220005MN0112005N1+01405+00205102315ADDGD12995+0609659GF102991999999999999999999GP10060044402008055102015016602008GQ100600597913919GR100600699913889MA1102305999999MD1110141+9999MW1001REMMET077KNCA 311456Z 01010KT 7SM FEW200 14/02 A3021 RMK SLP231 8/001 T01440022 51014;EQDQ01+000000PRSWM2N01 00000JPWTH 0QNNAA1D0 02200BA1 0 02200GA1U0 99999KA1D0 00036JA1 0 00020LA1 0 00700CA1 0 03021NA1 0 00000QA1 0 10231SA1D0 00057RA1 0 00140YA1 0 01010
0378723096937272000111222003+34700-077383FM-15+0005NCA  V0200405N00215220005MN0112005N1+01405+00705101705ADDGD12995+0609659GF104991999999999999999999GP10060005602008027202015002802008GQ100600839924329GR100600148913979MA1101695999999MW1001REMMET066KNCA 122156Z 04004KT 7SM SCT200 14/07 A3003 RMK SLP170 T01390072 ;EQDQ01+000000PRSWM2N01 00000JPWTH 0QNNAA1D0 02200BA1 0 02200GA1U0 99999KA1D0 00045JA1 0 00070LA1 0 00700CA1 0 03003NA1 0 00000QA1 0 10170SA1D0 00057RA1 0 00140YA1 0 04004
0483723096937272000112110003+34700-077383FM-15+0005NCA  V0202705N001552200019N0112005N1+00105-00305102065ADDGF100991999999999999999999GP10060000002000000002000000002000GR100600000900009MA1102075999999MW1001REMMET063KNCA 210956Z 27003KT 7SM SKC 01/M03 A3014 RMK SLP206 T00061028;EQDQ01+000000PRSWM2N01 00000JALM1 3N02 09000JALC2D3N03 09000JALM2 3N04 09000JALC3D3N05 09000JALM3 3N06 99999CCLHTU3N07 00000JPWTH 0QNNAA1D0 00000BA1 3 00000AA1D3 09000BA1 3 09000AA1D3 09000BA1 3 09000GA1U3 99999KA1D0 00027JA1 0-00030LA1 0 00700CA1 0 03014NA1 0 00000QA1 0 10206SA1D0 00034RA1 0 00010YA1 0 27003
0360723096937272000112701003+34700-077383FM-15+0005NCA  V0202805N00155220005MN0112005N1+00905+00805101275ADDGD12995+0152459GF102991999999999999999999GP10060000002000000002000000002000GR100600000900009MA1101295999999MW1001REMMET065KNCA 270056Z 28003KT 7SM FEW050 09/08 A2991 RMK SLP127 T00890078;EQDQ01+000000PRSWM2N01 00000JPWTH 0QNNAA1D0 02050BA1 0 02050GA1U0 99999KA1D0 00046JA1 0 00080LA1 0 00700CA1 0 02991NA1 0 00000QA1 0 10127SA1D0 00048RA1 0 00090YA1 0 28003
0541723096937272000120500003+34700-077383FM-15+0005NCA  V0203605N003652200019N0112005N1+00205-00105102745ADDGF100991999999999999999999GP10060000002000000002000000002000GR100600000900009KA1999M+01721KA2999N+00221MA1102745999999MD1610031+9999MW1001REMMET081KNCA 042356Z 36007KT 7SM SKC 02/M01 A3034 RMK SLP274 T00221011 10172 20022 56003;EQDQ01+000000PRSWM2N01 00000JALM1 3N02 09000JALC2D3N03 09000JALM2 3N04 09000JALC3D3N05 09000JALM3 3N06 99999CCLHTU3N07 00000JPWTH 0QNNAA1D0 00000BA1 3 00000AA1D3 09000BA1 3 09000AA1D3 09000BA1 3 09000GA1U3 99999KA1D0 00030JA1 0-00010LA1 0 00700CA1 0 03034NA1 0 00000QA1 0 10274SA1D0 00036RA1 0 00020YA1 0 36007
0378723096937272000120814003+34700-077383FM-15+0005NCA  V0202405N00365220005MN0112005N1+00805+00205101905ADDGD12995+0548659GF104991999999999999999999GP10060020702008054102015007802008GQ100600763913099GR100600334914109MA1101905999999MW1001REMMET066KNCA 081356Z 24007KT 7SM SCT180 08/02 A3009 RMK SLP190 T00830017 ;EQDQ01+000000PRSWM2N01 00000JPWTH 0QNNAA1D0 02180BA1 0 02180GA1U0 99999KA1D0 00036JA1 0 00020LA1 0 00700CA1 0 03009NA1 0 00000QA1 0 10190SA1D0 00046RA1 0 00080YA1 0 24007
0243723096937272000121404264+34690-077430FM-16+0008KNCA V0203601N001510300019N0048281N1+00901+00801102671ADDGD12991+0024019GD22991+0030019GD33991+0300019GD44991+0360019GF108991999999999999999999MA1102681999999MW1101MW2611REMMET083KNCA 140426Z 36003KT 3SM -RA BR FEW008 SCT010 BKN100 OVC120 09/08 A3032 RMK SLP267;EQDQ01+000003PRSWM1Q02    003PRSWM1
0516723096937272000121621003+34700-077383FM-15+0005NCA  V0201405N00155009455MN0080005N1+01305+01205101955ADDGD12995+0024459GD22995+0030559GD34995+0094559GF108991999999999999999999GP10060012202008005102015011002008GQ100600756922759GR100600350914139MA1101965999999MD1710191+9999MW1101MW2455REMMET094KNCA 162056Z 14003KT 5SM BR FEW008 SCT010 OVC030 13/12 A3011 RMK SLP195 8/8// T01280117 57019;EQDQ01+000003PRSWM1Q02    003PRSWM1N01 00070JPWTH 0QNNAA1D0 02008BA1 0 02008AA1D0 02010BA1 0 02010AA1D0 06031BA1 0 06031GA1 0 00031KA1D0 00054JA1 0 00120LA1 0 00500CA1 0 03011NA1 0 00070QA1 0 10195SA1D0 00055RA1 0 00130YA1 0 14003
0504723096937272000122609003+34700-077383FM-15+0005NCA  V0200105N003652200019N0112005N1-00605-01405103645ADDGF100991999999999999999999GP10060000002000000002000000002000GR100600000900009MA1103625999999MD1010001+9999MW1001REMMET070KNCA 260856Z 01007KT 7SM SKC M06/M14 A3060 RMK SLP364 T10551144 50000;EQDQ01+000000PRSWM2N01 00000JALM1 3N02 09000JALC2D3N03 09000JALM2 3N04 09000JALC3D3N05 09000JALM3 3N06 99999CCLHTU3N07 00000JPWTH 0QNNAA1D0 00000BA1 3 00000AA1D3 09000BA1 3 09000AA1D3 09000BA1 3 09000GA1U3 99999KA1D0 00007JA1 0-00140LA1 0 00700CA1 0 03060NA1 0 00000QA1 0 10364SA1D0 00021RA1 0-00060YA1 0 01007
0423723096937272000122613003+34700-077383FM-15+0005NCA  V0203605N00465220005MN0112005N1-00705-01305103665ADDGD12995+0609659GD22995+0762059GF104991999999999999999999GP10060001002008015802015000402008GQ100600865912159GR100600063910269MA1103665999999MW1001REMMET074KNCA 261256Z 36009KT 7SM FEW200 SCT250 M07/M13 A3061 RMK SLP366 T10671133;EQDQ01+000000PRSWM2N01 00000JPWTH 0QNNAA1D0 02200BA1 0 02200AA1D0 02250BA1 0 02250GA1U0 99999KA1D0 00009JA1 0-00130LA1 0 00700CA1 0 03061NA1 0 00000QA1 0 10366SA1D0 00019RA1 0-00070YA1 0 36009
0378723096937272000122619003+34700-077383FM-15+0005NCA  V0200105N00265220005MN0112005N1+00305-01505103255ADDGD12995+0609659GF102991999999999999999999GP10060043202008058202015015002008GQ100600611920099GR100600683914159MA1103255999999MW1001REMMET066KNCA 261856Z 01005KT 7SM FEW200 03/M15 A3049 RMK SLP325 T00281150;EQDQ01+000000PRSWM2N01 00000JPWTH 0QNNAA1D0 02200BA1 0 02200GA1U0 99999KA1D0 00005JA1 0-00150LA1 0 00700CA1 0 03049NA1 0 00000QA1 0 10325SA1D0 00037RA1 0 00030YA1 0 01005
003972309693727200012290459O+34700-077383SOD  +0005NCA  V020999999999999999999999999999+99999+99999999999ADDAT1MW16RA  5AT2MW01FG  5AT3MW13BR  1
0423723096937272000122920003+34700-077383FM-15+0005NCA  V0209999C00005015245MN0112005N1+00705-00505101265ADDGD12995+0094559GD23995+0152459GF107991999999999999999999GP10060022602008010602015018302008GQ100600666921459GR100600562914159MA1101255999999MW1001REMMET074KNCA 291956Z 00000KT 7SM SCT030 BKN050 07/M05 A2990 RMK SLP126 T00671050 ;EQDQ01+000000PRSWM2N01 00000JPWTH 0QNNAA1D0 02031BA1 0 02031AA1D0 04050BA1 0 04050GA1 0 00050KA1D0 00023JA1 0-00050LA1 0 00700CA1 0 02990NA1 0 00000QA1 0 10126SA1D0 00045RA1 0 00070YA1 0 00000
0449723096937272000122921003+34700-077383FM-15+0005NCA  V0200805N00155015245MN0112005N1+00705-00405101255ADDGD12995+0094559GD23995+0152459GF107991999999999999999999GP10060015002008010802015012102008GQ100600745922649GR100600377914159MA1101255999999MD1610151+9999MW1001REMMET086KNCA 292056Z 08003KT 7SM SCT030 BKN050 07/M04 A2990 RMK SLP125 8/800 T00671044 56015 ;EQDQ01+000000PRSWM2N01 00000JPWTH 0QNNAA1D0 02031BA1 0 02031AA1D0 04050BA1 0 04050GA1 0 00050KA1D0 00025JA1 0-00040LA1 0 00700CA1 0 02990NA1 0 00000QA1 0 10125SA1D0 00045RA1 0 00070YA1 0 08003
0212723097937432000010701564+34680-077030FM-15+0007KNJM V0200101N002110210019N0112651N1+01001+01001999999ADDGD12991+0150099GD23991+0210099GF107991999999999999999999MA1102981999999MW1001REMMET072KNJM 060156Z 01004KT 7SM FEW050 BKN070 10/10 A3041 RMK SLP032 T01020100;EQDQ01+100323APOSLPQ02+000000PRSWM2Q03 100323APOSLP
0193723097937432000020115005+34683-077033FM-15+0007NJM  V0202905N00265220005MN009600599+00305+00005102145ADDGD12995+0061059MA1102135999999MW1055EQDN01 00081JPWTH 0QNNAA1D0 02020BA1 0 02020GA1U0 99999KA1D0 00032JA1 0 00000LA1 0 00600CA1 0 03016NA1 0 00081QA1 0 10214SA1D0 00037RA1 0 00030YA1 0 29005
0193723097937432000020313005+34683-077033FM-15+0007NJM  V0209995C00005220005MN009600599-00205-00305102205ADDGD12995+0609659MA1102175999999MW1455EQDN01 00070JPWTH 0QNNAA1D0 02200BA1 0 02200GA1U0 99999KA1D0 00027JA1 0-00030LA1 0 00600CA1 0 03017NA1 0 00070QA1 0 10220SA1D0 00028RA1 0-00020YA1 0 00000
0249723097937432000030304596+34683-077033SOD  +0007KNJM V020999999999999999999999999999+99999+99999999999ADDAT1MW01FG  5AT2MW13BR  1AT3MW08HZ  5OE11249999999999997OE22249999999999997REMSOD163HOURLY INCREMENTAL PRECIPITATION VALUES (IN):.00  .00  .00  .00  .00  .00  .00  .00  .00  .00  .00  .00  .00  .00  .00  .00  .00  .00  .00  .00  .00  .00  .00  .00
0353723097937432000032122003+34683-077033FM-15+0007NJM  V0203405N00415007625MN0112005N1+01705+01305102015ADDGD13995+0076259GD23995+0152459GF107991999999999999999999MA1101965999999MW1001REMMET072KNJM 212156Z 34008KT 7SM BKN025 BKN050 17/13 A3011 RMK SLP201 T01650131;EQDQ01+000000PRSWM2N01 00000JPWTH 0QNNAA1D0 04025BA1 0 04025AA1D0 04050BA1 0 04050GA1 0 00025KA1D0 00055JA1 0 00130LA1 0 00700CA1 0 03011NA1 0 00000QA1 0 10201SA1D0 00063RA1 0 00170YA1 0 34008
0397723097937432000032717003+34683-077033FM-15+0007NJM  V0201605N00575015245MN0112005N1+02105+01505100415ADDGD12995+0076259GD23995+0152459GD34995+0304859GF108991999999999999999999MA1100415999999MW1001REMMET079KNJM 271656Z 16011KT 7SM FEW025 BKN050 OVC100 21/15 A2965 RMK SLP041 T02120150;EQDQ01+000000PRSWM2N01 00000JPWTH 0QNNAA1D0 02025BA1 0 02025AA1D0 04050BA1 0 04050AA1D0 06100BA1 0 06100GA1 0 00050KA1D0 00059JA1 0 00150LA1 0 00700CA1 0 02965NA1 0 00000QA1 0 10041SA1D0 00070RA1 0 00210YA1 0 16011
0213723097937432000051004596+34683-077033SOD  +0007KNJM V020999999999999999999999999999+99999+99999999999ADDOE11249999999999997OE22249999999999997REMSOD163HOURLY INCREMENTAL PRECIPITATION VALUES (IN):.00  .00  .00  .00  .00  .00  .00  .00  .00  .00  .00  .00  .00  .00  .00  .00  .00  .00  .00  .00  .00  .00  .00  .00
0387723097937432000052419003+34683-077033FM-15+0007NJM  V0202305N00465220005MN0112005N1+02905+02205100655ADDGD12995+0152459GD22995+0731559GF104991999999999999999999MA1100615999999MW1001REMMET106KNJM 241856Z 23009KT 7SM SCT050 SCT240 29/22 A2971 RMK SLP065 LOCAL WIND WARNING SET WBGTI 81.0 T02940222;EQDQ01+000000PRSWM2N01 00000JPWTH 0QNNAA1D0 02050BA1 0 02050AA1D0 02240BA1 0 02240GA1U0 99999KA1D0 00072JA1 0 00220LA1 0 00700CA1 0 02971NA1 0 00000QA1 0 10065SA1D0 00084RA1 0 00290YA1 0 23009
