0054724468999992000061903009+38850-094733NSRDB+033499999V020999999999999999999999999999+99999+99999999999ADDGP10060000002000000002000000002000GR100600000900009
0236724468999992000061912063+38840-094720FM-16+0334KOJC V0201401N002610009019N0040231N1+01701+01701999999ADDGD13991+0009019GF107991999999999999999999GP10060004902008000002015004902008GQ100600844906419GR100600129913239MA1101861999999MW1101REMMET059KOJC 191206Z 14005KT 2 1/2SM BR BKN003 17/17 A3008 RMK AO2;EQDQ01+000003PRSWM1Q02    003PRSWM1
0145724468999992000062116534+38840-094720FM-15+0334KOJC V0202301N002612200019N0160931N1+02301+01601101501ADDGF100991999999999999999999MA1101591999999MW1001REMMET067KOJC 211653Z 23005KT 10SM CLR 23/16 A3000 RMK AO2 SLP150 T02280156;EQDQ01+000000PRSWM2
0150724468999992000062203534+38840-094720FM-15+0334KOJC V0202001N003612200019N0160931N1+02001+01701101411ADDGF100991999999999999999999MA1101491999999MW1001REMMET072KOJC 220353Z AUTO 20007KT 10SM CLR 20/17 A2997 RMK AO2 SLP141 T02000167;EQDQ01+000000PRSWM2
0163724468999992000062700534+38840-094720FM-15+0334KOJC V0200101N003612200019N0160931N1+02401+01501101751ADDGD12991+0138019GF102991999999999999999999MA1101861999999MW1001REMMET070KOJC 270053Z 01007KT 10SM FEW046 24/15 A3008 RMK AO2 SLP175 T02390150;EQDQ01+000000PRSWM2
0054724468999992000062706009+38850-094733NSRDB+033499999V020999999999999999999999999999+99999+99999999999ADDGP10060000002000000002000000002000GR100600000900009
0243724468999992000062823534+38840-094720FM-15+0334KOJC V0203001N003610270019N0160931N1+02401+01501101631ADDGD12991+0180019GD23991+0270019GF107991999999999999999999KA1999M+02671KA2999N+02391MA1101731999999MD1610071+9999MW1001REMMET095KOJC 282353Z 30007KT 10SM FEW060 BKN090 24/15 A3004 RMK AO2 SLP163 T02440150 10267 20239 56007;EQDQ01+000000PRSWM2
0071724468999992000062912009+38850-094733NSRDB+033499999V020999999999999999999999999999+99999+99999999999ADDGP10060000002008000002015000002008GQ100600849906399GR100600117913219
0071724468999992000063012009+38850-094733NSRDB+033499999V020999999999999999999999999999+99999+99999999999ADDGP10060000002008000002015000002008GQ100600850906399GR100600116913219
0226724468999992000070417534+38840-094720FM-15+0334KOJC V0201301N005112200019N0160931N1+02401+02201101201ADDAA106011491GF100991999999999999999999KA1999M+02501KA2999N+02111MA1101321999999MD1810161+9999MW1001REMMET097KOJC 041753Z 13010KT 10SM CLR 24/22 A2992 RMK AO2 TSE03 SLP120 60045 T02390222 10250 20211 58016;EQDQ01+000000PRSWM2
0071724468999992000071221009+38850-094733NSRDB+033499999V020999999999999999999999999999+99999+99999999999ADDGP10060078402008067402015021002008GQ100600318924649GR100601122913229
0165724468999992000071320534+38840-094720FM-15+0334KOJC V0200201N002112200019N0160931N1+03301+01901101751ADDGF100991999999999999999999MA1101901999999MD1810081+9999MW1001REMMET073KOJC 132053Z 02004KT 10SM CLR 33/19 A3009 RMK AO2 SLP175 T03280189 58008;EQDQ01+000000PRSWM2
0071724468999992000071415009+38850-094733NSRDB+033499999V020999999999999999999999999999+99999+99999999999ADDGP10060053802008064802015014402008GQ100600526909139GR100600801913229
0071724468999992000071620009+38850-094733NSRDB+033499999V020999999999999999999999999999+99999+99999999999ADDGP10060083902008064702015024202008GQ100600227922229GR100601219913229
0185724468999992000071718534+38840-094720FM-15+0334KOJC V0202401N003112200019N0160931N1+02901+02301101601ADDGD12991+0078019GD22991+0108019GF104991999999999999999999MA1101731999999MW1001REMMET077KOJC 171853Z 24006KT 10SM SCT026 SCT036 29/23 A3004 RMK AO2 SLP160 T02890228;EQDQ01+000000PRSWM2
0168724468999992000071810534+38840-094720FM-15+0334KOJC V0200701N003112200019N0064371N1+02301+02301101501ADDGF100991999999999999999999MA1101631999999MW1101REMMET074KOJC 181053Z AUTO 07006KT 4SM BR CLR 23/23 A3001 RMK AO2 SLP150 T02330228;EQDQ01+000003PRSWM1Q02    003PRSWM1
0239724468999992000071917534+38840-094720FM-15+0334KOJC V0200201N002610042019N0080461N1+02301+01901101861ADDGD14991+0042019GF108991999999999999999999KA1999M+02441KA2999N+02111MA1101961999999MD1310021+9999MW1051REMMET090KOJC 191753Z 02005KT 5SM HZ OVC014 23/19 A3011 RMK AO2 SLP186 T02280194 10244 20211 53002;EQDQ01+000003PRSWM1Q02    003PRSWM1
0339724468999992000072011534+38840-094720FM-15+0334KOJC V0201701N005112200019N0048281N1+01801+01701101581ADDAA101000021AA206001891AA324001891GD12991+0210019GF102991999999999999999999KA1999M+01941KA2999N+01831MA1101661999999MD1510061+9999MW1101MW2611OC100721REMMET143KOJC 201153Z AUTO 17010G14KT 3SM -RA BR FEW075 18/17 A3002 RMK AO2 LTG DSNT S AND W RAB47 SLP158 P0000 60007 70007 T01830172 10194 20183 55006;EQDQ01+000003PRSWM1Q02    003PRSWM1
0144724468999992000072106534+38840-094720FM-15+0334KOJC V0202801N003012200019N0112651N1+02201+01901101671ADDGF100991999999999999999999MA1101801999999MW1001REMMET066KOJC 210653Z 28003KT 7SM CLR 22/19 A3006 RMK AO2 SLP167 T02170194;EQDQ01+000000PRSWM2
0145724468999992000072416534+38840-094720FM-15+0334KOJC V0201601N006212200019N0160931N1+02601+01501101921ADDGF100991999999999999999999MA1102031999999MW1001REMMET067KOJC 241653Z 16012KT 10SM CLR 26/15 A3013 RMK AO2 SLP192 T02560150;EQDQ01+000000PRSWM2
0054724468999992000072611009+38850-094733NSRDB+033499999V020999999999999999999999999999+99999+99999999999ADDGP10060000002000000002000000002000GR100600000900009
0260724468999992000072911534+38840-094720FM-15+0334KOJC V0203501N003112200019N0040231N1+01901+01801101281ADDAA124013791GD12991+0015019GF102991999999999999999999KA1999M+02111KA2999N+01941MA1101391999999MD1310091+9999MW1101REMMET100KOJC 291153Z 35006KT 2 1/2SM BR FEW005 19/18 A2994 RMK AO2 SLP128 70054 T01940183 10211 20194 53009;EQDQ01+000003PRSWM1Q02    003PRSWM1
0071724468999992000072914009+38850-094733NSRDB+033499999V020999999999999999999999999999+99999+99999999999ADDGP10060031902008046402015013102008GQ100600660908489GR100600537913259
0206724468999992000072915534+38840-094720FM-15+0334KOJC V0203501N004110102019N0112651N1+02301+01801101391ADDGD12991+0057019GD22991+0078019GD33991+0102019GF107991999999999999999999MA1101491999999MW1001REMMET083KOJC 291553Z 35008KT 7SM FEW019 SCT026 BKN034 23/18 A2997 RMK AO2 SLP139 T02280178;EQDQ01+000000PRSWM2
0167724468999992000073012534+38840-094720FM-15+0334KOJC V0203301N003112200019N0040231N1+01901+01801101531ADDGF100991999999999999999999MA1101631999999MW1101REMMET073KOJC 301253Z 33006KT 2 1/2SM BR CLR 19/18 A3001 RMK AO2 SLP153 T01940178;EQDQ01+000003PRSWM1Q02    003PRSWM1
0071724468999992000073014009+38850-094733NSRDB+033499999V020999999999999999999999999999+99999+99999999999ADDGP10060029802008042102015012802008GQ100600662908509GR100600535913269
0071724468999992000073102009+38850-094733NSRDB+033499999V020999999999999999999999999999+99999+99999999999ADDGP10060000002008000002015000002008GQ100600875929189GR100600028906529
0168724468999992000073109534+38840-094720FM-15+0334KOJC V0203301N003112200019N0064371N1+01901+01801101581ADDGF100991999999999999999999MA1101691999999MW1101REMMET074KOJC 310953Z AUTO 33006KT 4SM BR CLR 19/18 A3003 RMK AO2 SLP158 T01940183;EQDQ01+000003PRSWM1Q02    003PRSWM1
0203724468999992000073115534+38840-094720FM-15+0334KOJC V0203601N003110084019N0080461N1+02601+01901101751ADDGD12991+0063019GD23991+0084019GF107991999999999999999999MA1101861999999MW1051REMMET079KOJC 311553Z 36006KT 5SM HZ SCT021 BKN028 26/19 A3008 RMK AO2 SLP175 T02560189;EQDQ01+000003PRSWM1Q02    003PRSWM1
0259724468999992000080111534+38840-094720FM-15+0334KOJC V0202301N002112200019N0028161N1+01801+01801101691ADDAA106000391AA224000391GF100991999999999999999999KA1999M+02111KA2999N+01781MA1101801999999MD1310051+9999MW1101REMMET103KOJC 011153Z 23004KT 1 3/4SM BR CLR 18/18 A3006 RMK AO2 SLP169 60001 70001 T01830178 10211 20178 53005;EQDQ01+000003PRSWM1Q02    003PRSWM1
0071724468999992000080121009+38850-094733NSRDB+033499999V020999999999999999999999999999+99999+99999999999ADDGP10060076502008071602015017402008GQ100600344924079GR100601093913269
0054724468999992000080409009+38850-094733NSRDB+033499999V020999999999999999999999999999+99999+99999999999ADDGP10060000002000000002000000002000GR100600000900009
0163724468999992000080416534+38840-094720FM-15+0334KOJC V0201001N004612200019N0080461N1+02801+02301101601ADDGF100991999999999999999999MA1101731999999MW1051REMMET069KOJC 041653Z 10009KT 5SM HZ CLR 28/23 A3004 RMK AO2 SLP160 T02780228;EQDQ01+000003PRSWM1Q02    003PRSWM1
0174724468999992000080518534+38840-094720FM-15+0334KOJC V0202101N008712200019N0160931N1+03501+01901100681ADDGF100991999999999999999999MA1100851999999MW1001OC101341REMMET088KOJC 051853Z 21017G26KT 10SM CLR 35/19 A2978 RMK AO2 PK WND 20026/1852 SLP068 T03500189;EQDQ01+000000PRSWM2
0145724468999992000080621534+38840-094720FM-15+0334KOJC V0201901N004612200019N0160931N1+03001+02201100871ADDGF100991999999999999999999MA1101021999999MW1001REMMET067KOJC 062153Z 19009KT 10SM CLR 30/22 A2983 RMK AO2 SLP087 T03000217;EQDQ01+000000PRSWM2
0071724468999992000080623009+38850-094733NSRDB+033499999V020999999999999999999999999999+99999+99999999999ADDGP10060046802008070502015009102008GQ100600576926539GR100600711913289
0261724468999992000080711534+38840-094720FM-15+0334KOJC V0201101N003112200019N0064371N1+02301+02201101161ADDAA124003391GD12991+0270019GF102991999999999999999999KA1999M+02391KA2999N+02221MA1101321999999MD1310041+9999MW1101REMMET101KOJC 071153Z AUTO 11006KT 4SM BR FEW090 23/22 A2992 RMK AO2 SLP116 70013 T02280217 10239 20222 53004;EQDQ01+000003PRSWM1Q02    003PRSWM1
0071724468999992000081318009+38850-094733NSRDB+033499999V020999999999999999999999999999+99999+99999999999ADDGP10060086702008081202015014402008GQ100600274915099GR100601182913319
0054724468999992000081811009+38850-094733NSRDB+033499999V020999999999999999999999999999+99999+99999999999ADDGP10060000002000000002000000002000GR100600000900009
0054724468999992000082010009+38850-094733NSRDB+033499999V020999999999999999999999999999+99999+99999999999ADDGP10060000002000000002000000002000GR100600000900009
0071724468999992000082015009+38850-094733NSRDB+033499999V020999999999999999999999999999+99999+99999999999ADDGP10060044102008056002015014102008GQ100600576910109GR100600714913359
0176724468999992000082120534+38840-094720FM-15+0334KOJC V0202101N006212200019N0160931N1+03601+01501101531ADDGF100991999999999999999999MA1101691999999MD1810141+9999MW1001OC100871REMMET076KOJC 212053Z 21012G17KT 10SM CLR 36/15 A3003 RMK AO2 SLP153 T03610150 58014;EQDQ01+000000PRSWM2
0167724468999992000082221534+38840-094720FM-15+0334KOJC V0202001N005712200019N0160931N1+03801+01401101461ADDGD12991+0300019GF104991999999999999999999MA1101631999999MW1001REMMET074KOJC 222153Z COR 20011KT 10SM SCT100 38/14 A3001 RMK AO2 SLP146 T03830139;EQDQ01+000000PRSWM2
0071724468999992000082302009+38850-094733NSRDB+033499999V020999999999999999999999999999+99999+99999999999ADDGP10060000002008000002015000002008GQ100600898928509GR100600000900339
0203724468999992000082323534+38840-094720FM-15+0334KOJC V0202101N003612200019N0160931N1+03601+01401101491ADDGF100991999999999999999999KA1999M+03891KA2999N+03611MA1101661999999MD1510081+9999MW1001REMMET085KOJC 232353Z 21007KT 10SM CLR 36/14 A3002 RMK AO2 SLP149 T03610144 10389 20361 55008;EQDQ01+000000PRSWM2
0150724468999992000082603534+38840-094720FM-15+0334KOJC V0201701N002612200019N0160931N1+02701+01901101081ADDGF100991999999999999999999MA1101221999999MW1001REMMET072KOJC 260353Z AUTO 17005KT 10SM CLR 27/19 A2989 RMK AO2 SLP108 T02670189;EQDQ01+000000PRSWM2
0054724468999992000082810009+38850-094733NSRDB+033499999V020999999999999999999999999999+99999+99999999999ADDGP10060000002000000002000000002000GR100600000900009
0145724468999992000090216534+38840-094720FM-15+0334KOJC V0201901N003112200019N0160931N1+03601+01701101161ADDGF100991999999999999999999MA1101321999999MW1001REMMET067KOJC 021653Z 19006KT 10SM CLR 36/17 A2992 RMK AO2 SLP116 T03560172;EQDQ01+000000PRSWM2
0071724468999992000090219009+38850-094733NSRDB+033499999V020999999999999999999999999999+99999+99999999999ADDGP10060085102008080402015016402008GQ100600316918559GR100601144913439
0071724468999992000090312009+38850-094733NSRDB+033499999V020999999999999999999999999999+99999+99999999999ADDGP10060000002008000002015000002008GQ100600893908089GR100600002901909
0054724468999992000090702009+38850-094733NSRDB+033499999V020999999999999999999999999999+99999+99999999999ADDGP10060000002000000002000000002000GR100600000900009
0071724468999992000091415009+38850-094733NSRDB+033499999V020999999999999999999999999999+99999+99999999999ADDGP10060042302008072502015008302008GQ100600621911049GR100600632913519
0054724468999992000091709009+38850-094733NSRDB+033499999V020999999999999999999999999999+99999+99999999999ADDGP10060000002000000002000000002000GR100600000900009
0220724468999992000092111534+38840-094720FM-15+0334KOJC V0200601N002612200019N0160931N1+00901+00601101791ADDAA124006991GF100991999999999999999999KA1999M+01281KA2999N+00781MA1101831999999MD1010011+9999MW1001REMMET091KOJC 211153Z 06005KT 10SM CLR 09/06 A3007 RMK AO2 SLP179 70027 T00890056 10128 20078 50001;EQDQ01+000000PRSWM2
0071724468999992000092520009+38850-094733NSRDB+033499999V020999999999999999999999999999+99999+99999999999ADDGP10060069502008081202015011102008GQ100600442920929GR100600975913609
0071724468999992000092914009+38850-094733NSRDB+033499999V020999999999999999999999999999+99999+99999999999ADDGP10060017602008036302015008902008GQ100600761910519GR100600327913639
0054724468999992000093004009+38850-094733NSRDB+033499999V020999999999999999999999999999+99999+99999999999ADDGP10060000002000000002000000002000GR100600000900009
0054724468999992000100109009+38850-094733NSRDB+033499999V020999999999999999999999999999+99999+99999999999ADDGP10060000002000000002000000002000GR100600000900009
0203724468999992000100111534+38840-094720FM-15+0334KOJC V0201901N006712200019N0160931N1+01801+00801100821ADDGF100991999999999999999999KA1999M+02111KA2999N+01781MA1100911999999MD1610061+9999MW1001REMMET085KOJC 011153Z 19013KT 10SM CLR 18/08 A2980 RMK AO2 SLP082 T01780083 10211 20178 56006;EQDQ01+000000PRSWM2
0054724468999992000100211009+38850-094733NSRDB+033499999V020999999999999999999999999999+99999+99999999999ADDGP10060000002000000002000000002000GR100600000900009
0071724468999992000100514009+38850-094733NSRDB+033499999V020999999999999999999999999999+99999+99999999999ADDGP10060003502008000002015003502008GQ100600773910729GR100600301913689
0169724468999992000100609534+38840-094720FM-15+0334KOJC V0200101N006210090019N0160931N1+00401-00301102841ADDGD14991+0090019GF108991999999999999999999MA1102811999999MW1001REMMET076KOJC 060953Z AUTO 01012KT 10SM OVC030 04/M03 A3036 RMK AO2 SLP284 T00441028;EQDQ01+000000PRSWM2
0071724468999992000100700009+38850-094733NSRDB+033499999V020999999999999999999999999999+99999+99999999999ADDGP10060001902008005002015001602008GQ100600853925929GR100600095911759
0163724468999992000101212534+38840-094720FM-15+0334KOJC V0201701N005112200019N0160931N1+01201+00301102371ADDGD12991+0117019GF104991999999999999999999MA1102401999999MW1001REMMET070KOJC 121253Z 17010KT 10SM SCT039 12/03 A3024 RMK AO2 SLP237 T01220033;EQDQ01+000000PRSWM2
0054724468999992000101504009+38850-094733NSRDB+033499999V020999999999999999999999999999+99999+99999999999ADDGP10060000002000000002000000002000GR100600000900009
0145724468999992000101622534+38840-094720FM-15+0334KOJC V0200101N004112200019N0160931N1+01701+00901101951ADDGF100991999999999999999999MA1102001999999MW1001REMMET067KOJC 162253Z 01008KT 10SM CLR 17/09 A3012 RMK AO2 SLP195 T01670094;EQDQ01+000000PRSWM2
0203724468999992000101623534+38840-094720FM-15+0334KOJC V0200501N001512200019N0160931N1+01401+00901102001ADDGF100991999999999999999999KA1999M+01781KA2999N+01391MA1102031999999MD1310071+9999MW1001REMMET085KOJC 162353Z 05003KT 10SM CLR 14/09 A3013 RMK AO2 SLP200 T01440089 10178 20139 53007;EQDQ01+000000PRSWM2
0054724468999992000101703009+38850-094733NSRDB+033499999V020999999999999999999999999999+99999+99999999999ADDGP10060000002000000002000000002000GR100600000900009
0187724468999992000101710534+38840-094720FM-15+0334KOJC V0209999C00001000151CN0004021N1+00601+00601102241ADDGD15991+0001519GF109991999999000251999999MA1102241999999MW1451REMMET078KOJC 171053Z AUTO 00000KT 1/4SM FG VV001 06/06 A3019 RMK AO2 SLP224 T00610056;EQDQ01+000003PRSWM1Q02    003PRSWM1
0170724468999992000101808534+38840-094720FM-15+0334KOJC V0201901N001512200019N0160931N1+01101+00901102311ADDGF100991999999999999999999MA1102341999999MD1110041+9999MW1001REMMET078KOJC 180853Z AUTO 19003KT 10SM CLR 11/09 A3022 RMK AO2 SLP231 T01110089 51004;EQDQ01+000000PRSWM2
0054724468999992000102104009+38850-094733NSRDB+033499999V020999999999999999999999999999+99999+99999999999ADDGP10060000002000000002000000002000GR100600000900009
0054724468999992000102112009+38850-094733NSRDB+033499999V020999999999999999999999999999+99999+99999999999ADDGP10060000002000000002000000002000GR100600000900009
0168724468999992000102117214+38840-094720FM-16+0334KOJC V0201601N005110078019N0160931N1+02101+01401999999ADDGD13991+0078019GD23991+0099019GF107991999999999999999999MA1101931999999MW1001REMMET060KOJC 211721Z 16010KT 10SM BKN026 BKN033 21/14 A3010 RMK AO2;EQDQ01+000000PRSWM2
0186724468999992000102218144+38840-094720FM-16+0334KOJC V0201501N005110084019N0064371N1+01701+01401999999ADDGD13991+0084019GD24991+0099019GF108991999999999999999999MA1102341999999MW1051REMMET062KOJC 221814Z 15010KT 4SM HZ BKN028 OVC033 17/14 A3022 RMK AO2;EQDQ01+000003PRSWM1Q02    003PRSWM1
0071724468999992000102414009+38850-094733NSRDB+033499999V020999999999999999999999999999+99999+99999999999ADDGP10060004302008000002015004302008GQ100600812911329GR100600212913839
0071724468999992000102515009+38850-094733NSRDB+033499999V020999999999999999999999999999+99999+99999999999ADDGP10060005802008000002015005802008GQ100600713912439GR100600444913849
0071724468999992000102800009+38850-094733NSRDB+033499999V020999999999999999999999999999+99999+99999999999ADDGP10060000002008000002015000002008GQ100600882925179GR100600017905199
0220724468999992000102823534+38840-094720FM-15+0334KOJC V0200701N004112200019N0144841N1+01901+01401101981ADDGD12991+0123019GF102991999999999999999999KA1999M+02171KA2999N+01891MA1102031999999MD1810071+9999MW1001REMMET087KOJC 282353Z 07008KT 9SM FEW041 19/14 A3013 RMK AO2 SLP198 T01890144 10217 20189 58007;EQDQ01+000000PRSWM2
0054724468999992000103106009+38850-094733NSRDB+033499999V020999999999999999999999999999+99999+99999999999ADDGP10060000002000000002000000002000GR100600000900009
0150724468999992000110310534+38840-094720FM-15+0334KOJC V0203401N002612200019N0160931N1+00801+00101102461ADDGF100991999999999999999999MA1102471999999MW1001REMMET072KOJC 031053Z AUTO 34005KT 10SM CLR 08/01 A3026 RMK AO2 SLP246 T00780011;EQDQ01+000000PRSWM2
0071724468999992000110613009+38850-094733NSRDB+033499999V020999999999999999999999999999+99999+99999999999ADDGP10060000002008000002015000002008GQ100600895911109GR100600001901519
0152724468999992000110708404+38840-094720FM-15+0334KOJC V0202601N006210084019N0160931N1+00201-00101999999ADDGD14991+0084019GF108991999999999999999999MA1100811999999MW1001REMMET059KOJC 070840Z AUTO 26012KT 10SM OVC028 02/M01 A2977 RMK AO2;EQDQ01+000000PRSWM2
0243724468999992000110904414+38840-094720FM-15+0334KOJC V0200101N00461001501CN0040231N1-00201-00301999999ADDAA101000021GD14991+0018019GF108991999999999999999999MA1101081999999MW1101MW2661REMMET117KOJC 090441Z AUTO 01009KT 2 1/2SM -FZRA BR OVC006 M02/M03 A2985 RMK AO2 UPB0358E0359FZRAE0358B0359 CIG 005V012 P0000;EQDQ01+000003PRSWM1Q02    003PRSWM1
0071724468999992000111217009+38850-094733NSRDB+033499999V020999999999999999999999999999+99999+99999999999ADDGP10060016502008000002015016502008GQ100600609915459GR100600679913979
0071724468999992000111219009+38850-094733NSRDB+033499999V020999999999999999999999999999+99999+99999999999ADDGP10060049902008057502015018702008GQ100600572918769GR100600756913979
0071724468999992000111321009+38850-094733NSRDB+033499999V020999999999999999999999999999+99999+99999999999ADDGP10060021902008010602015017702008GQ100600666921819GR100600554913979
0175724468999992000111400534+38840-094720FM-15+0334KOJC V0202901N006710093019N0160931N1+00101-00501102151ADDGD14991+0093019GF108991999999999999999999MA1102031999999MW1001OC100931REMMET074KOJC 140053Z 29013G18KT 10SM OVC031 01/M05 A3013 RMK AO2 SLP215 T00061050;EQDQ01+000000PRSWM2
0169724468999992000112407534+38840-094720FM-15+0334KOJC V0200201N004110075019N0160931N1+00701-00401101881ADDGD14991+0075019GF108991999999999999999999MA1101861999999MW1001REMMET076KOJC 240753Z AUTO 02008KT 10SM OVC025 07/M04 A3008 RMK AO2 SLP188 T00671039;EQDQ01+000000PRSWM2
0054724468999992000120300009+38850-094733NSRDB+033499999V020999999999999999999999999999+99999+99999999999ADDGP10060000002000000002000000002000GR100600000900009
0165724468999992000120414534+38840-094720FM-15+0334KOJC V0202301N005712200019N0128741N1+00101-00401102791ADDGF100991999999999999999999MA1102681999999MD1110051+9999MW1001REMMET073KOJC 041453Z 23011KT 8SM CLR 01/M04 A3032 RMK AO2 SLP279 T00061039 51005;EQDQ01+000000PRSWM2
0157724468999992000120506534+38840-094720FM-15+0334KOJC V0203301N005712200019N0160931N1+00101-00701103151ADDGF100991999999999999999999MA1103081999999MW1001OC100871REMMET071KOJC 050653Z 33011G17KT 10SM CLR 01/M07 A3044 RMK AO2 SLP315 T00061067;EQDQ01+000000PRSWM2
0054724468999992000121103009+38850-094733NSRDB+033499999V020999999999999999999999999999+99999+99999999999ADDGP10060000002000000002000000002000GR100600000900009
0183724468999992000121419534+38840-094720FM-15+0334KOJC V0201601N002610024019N0080461N1-00801-01001102981ADDGD14991+0024019GF108991999999999999999999MA1102811999999MW1101REMMET074KOJC 141953Z 16005KT 5SM BR OVC008 M08/M10 A3036 RMK AO2 SLP298 T10781100;EQDQ01+000003PRSWM1Q02    003PRSWM1
0237724468999992000121817274+38840-094720FM-16+0334KOJC V0203201N011310063019N0008051N1-00801-01101999999ADDGD12991+0051019GD24991+0063019GF108991999999999999999999MA1101631999999MW1381MW2711OC101391REMMET099KOJC 181727Z 32022G27KT 1/2SM -SN BLSN FEW017 OVC021 M08/M11 A3001 RMK AO2 PK WND 33032/1712 P0000;EQDQ01+000003PRSWM1Q02    003PRSWM1
0239724468999992000121821534+38840-094720FM-15+0334KOJC V0203101N010310126019N0160931N1-00901-01601102291ADDAA101000021GD12991+0096019GD24991+0126019GF108991999999999999999999MA1102101999999MW1001OC101341REMMET112KOJC 182153Z 31020G26KT 10SM FEW032 OVC042 M09/M16 A3015 RMK AO2 PK WND 31036/2122 UPE00 SLP229 P0000 T10941161;EQDQ01+000000PRSWM2
0200724468999992000121902534+38840-094720FM-15+0334KOJC V0203101N007212200019N0160931N1-01401-02001102571ADDAA103000021GF100991999999999999999999MA1102371999999MD1010101+9999MW1001OC101181REMMET089KOJC 190253Z AUTO 31014G23KT 10SM CLR M14/M20 A3023 RMK AO2 SLP257 60000 T11391200 50010;EQDQ01+000000PRSWM2
0071724468999992000121921009+38850-094733NSRDB+033499999V020999999999999999999999999999+99999+99999999999ADDGP10060033302009067202021009902009GQ100600697921259GR100600489914139
0071724468999992000122121009+38850-094733NSRDB+033499999V020999999999999999999999999999+99999+99999999999ADDGP10060014802009003502021013502009GQ100600696921239GR100600492914149
0054724468999992000122512009+38850-094733NSRDB+033499999V020999999999999999999999999999+99999+99999999999ADDGP10060000002000000002000000002000GR100600000900009
0054724468999992000122604009+38850-094733NSRDB+033499999V020999999999999999999999999999+99999+99999999999ADDGP10060000002000000002000000002000GR100600000900009
0223724468999992000122717534+38840-094720FM-15+0334KOJC V0202001N003112200019N0080461N1-00901-01201102701ADDGF100991999999999999999999KA1999M-00891KA2999N-01561MA1102511999999MD1810121+9999MW1051REMMET089KOJC 271753Z 20006KT 5SM HZ CLR M09/M12 A3027 RMK AO2 SLP270 T10891122 11089 21156 58012;EQDQ01+000003PRSWM1Q02    003PRSWM1
0165724468999992000122718534+38840-094720FM-15+0334KOJC V0202201N002112200019N0080461N1-00801-01201102581ADDGF100991999999999999999999MA1102401999999MW1051REMMET071KOJC 271853Z 22004KT 5SM HZ CLR M08/M12 A3024 RMK AO2 SLP258 T10781117;EQDQ01+000003PRSWM1Q02    003PRSWM1
0071724468999992000123021009+38850-094733NSRDB+033499999V020999999999999999999999999999+99999+99999999999ADDGP10060022602009018802021015802009GQ100600689921159GR100600509914159
0168724468999992000123107534+38840-094720FM-15+0334KOJC V0209999C000010120019N0112651N1-01301-01501103011ADDGD13991+0120019GF107991999999999999999999MA1102811999999MW1001REMMET075KOJC 310753Z ATO 00000KT 7SM BKN040 M13/M15 A3036 RMK AO2 SLP301 T11331150;EQDQ01+000000PRSWM2
0189724468999992000123108534+38840-094720FM-15+0334KOJC V0203401N002610114019N0112651N1-01301-01501103031ADDGD13991+0114019GF107991999999999999999999MA1102841999999MD1310021+9999MW1001REMMET082KOJC 310853Z AUTO 34005KT 7SM BKN038 M13/M15 A3037 RMK AO2 SLP303 T11331150 53002;EQDQ01+000000PRSWM2
0071724468999992000123116009+38850-094733NSRDB+033499999V020999999999999999999999999999+99999+99999999999ADDGP10060027402009075102021006502009GQ100600739913929GR100600393914159
0685724475939092000041805596+38832-094890SOD  +0331KIXD V020999999999999999999999999999+99999+99999999999ADDAA124000096KA1240M+01675KA2240N+00285MG1097909999994OE11240102832002515OE22240089432002525OE33240033599999995REMSOD54524 HR PRECIPITATION (IN): 0.00 24 HR MAX TEMP (F): 6224 HR MAX TEMP TIME (LST):1659 24 HR MIN TEMP (F): 3724 HR MIN TEMP TIME (LST):0730 AVERAGE STATION PRESSURE:28.91  PEAK WIND SPEED (MPH): 23 PEAK WIND DIR (DEG):320 PEAK WIND TIME (LST):0251  FASTEST 2MIN SPEED (MPH): 20FASTEST 2MIN DIR (DEG):320 FASTEST 2MIN TIME (LST):0252 AVERAGE WIND SPEED (MPH): 7.5 24 HR AVG TEMP (F):50 HOURLY INCREMENTAL PRECIPITATION VALUES (IN):.00  .00  .00  .00  .00  .00  .00  .00  .00  .00  .00  .00  .00  .00  .00  .00  .00  .00  .00  .00  .00  .00  .00  .00EQDR01  0.007AAP092
0685724475939092000052105596+38832-094890SOD  +0331KIXD V020999999999999999999999999999+99999+99999999999ADDAA124000096KA1240M+02175KA2240N+00565MG1097739999994OE11240071521014315OE22240058117018105OE33240021099999995REMSOD54524 HR PRECIPITATION (IN): 0.00 24 HR MAX TEMP (F): 7124 HR MAX TEMP TIME (LST):1609 24 HR MIN TEMP (F): 4224 HR MIN TEMP TIME (LST):0542 AVERAGE STATION PRESSURE:28.86  PEAK WIND SPEED (MPH): 16 PEAK WIND DIR (DEG):210 PEAK WIND TIME (LST):1431  FASTEST 2MIN SPEED (MPH): 13FASTEST 2MIN DIR (DEG):170 FASTEST 2MIN TIME (LST):1810 AVERAGE WIND SPEED (MPH): 4.7 24 HR AVG TEMP (F):57 HOURLY INCREMENTAL PRECIPITATION VALUES (IN):.00  .00  .00  .00  .00  .00  .00  .00  .00  .00  .00  .00  .00  .00  .00  .00  .00  .00  .00  .00  .00  .00  .00  .00EQDR01  0.007AAP092
0666724475939092000100405596+38832-094890SOD  +0331KIXD V020999999999999999999999999999+99999+99999999999ADDAA124000095KA1240M+03175KA2240N+01505MG1096959999994OE11240111801023535OE22240093916014015OE33240046999999995REMSOD54524 HR PRECIPITATION (IN): 0.00 24 HR MAX TEMP (F): 8924 HR MAX TEMP TIME (LST):1559 24 HR MIN TEMP (F): 5924 HR MIN TEMP TIME (LST):0620 AVERAGE STATION PRESSURE:28.63  PEAK WIND SPEED (MPH): 25 PEAK WIND DIR (DEG):010 PEAK WIND TIME (LST):2353  FASTEST 2MIN SPEED (MPH): 21FASTEST 2MIN DIR (DEG):160 FASTEST 2MIN TIME (LST):1401 AVERAGE WIND SPEED (MPH):10.5 24 HR AVG TEMP (F):74 HOURLY INCREMENTAL PRECIPITATION VALUES (IN):.00  .00  .00  .00  .00  .00  .00  .00  .00  .00  .00  .00  .00  .00  .00  .00  .00  .00  .00  .00  .00  .00  .00  .00
0741724475939092000101705596+38832-094890SOD  +0331KIXD V020999999999999999999999999999+99999+99999999999ADDAA124003895GJ100005GK10005KA1240M+01725KA2240N+00785MG1097909999994OE11240089410010505OE22240071509010515OE33240032699999995REMSOD60524 HR PRECIPITATION (IN): 0.15 TOTAL SUNSHINE (MINUTES):   0 PERCENT POSSIBLE SUNSHINE:  0 24 HR MAX TEMP (F): 6324 HR MAX TEMP TIME (LST):1629 24 HR MIN TEMP (F): 4624 HR MIN TEMP TIME (LST):2359 AVERAGE STATION PRESSURE:28.91  PEAK WIND SPEED (MPH): 20 PEAK WIND DIR (DEG):100 PEAK WIND TIME (LST):1050  FASTEST 2MIN SPEED (MPH): 16FASTEST 2MIN DIR (DEG): 90 FASTEST 2MIN TIME (LST):1051 AVERAGE WIND SPEED (MPH): 7.3 24 HR AVG TEMP (F):55 HOURLY INCREMENTAL PRECIPITATION VALUES (IN):.00  .00  .00  .00   T   .00   T   .01  .04  .09  .01   T   .00  .00  .00  .00  .00  .00  .00  .00  .00  .00  .00  .00
0185724475999992000010316534+38830-094880FM-15+0331KIXD V0203601N006710009019N0028161N1+00201+00101100941ADDGD14991+0009099GF108991999999999999999999MA1100881999999MW1101REMMET076KIXD 031653Z 36013KT 1 3/4SM BR OVC003 02/01 A2979 RMK AO2 SLP094 T00170011;EQDQ01+000003PRSWM1Q02    003PRSWM1
0167724475999992000010812364+38830-094880FM-16+0331KIXD V0201901N004610150019N0144841N1+00401+00001999999ADDGD12991+0081099GD23991+0150099GF107991999999999999999999MA1101831999999MW1001REMMET059KIXD 081236Z 19009KT 9SM SCT027 BKN055 04/00 A3007 RMK AO2;EQDQ01+000000PRSWM2
0164724475999992000011101534+38830-094880FM-15+0331KIXD V0202801N006212200019N0160931N1+00801-00601100941ADDGD12991+0300099GF104991999999999999999999MA1100911999999MW1001REMMET071KIXD 110153Z 28012KT 10SM SCT100 08/M06 A2980 RMK AO2 SLP094 T00831061;EQDQ01+000000PRSWM2
0146724475999992000011319534+38830-094880FM-15+0331KIXD V0203501N003112200019N0160931N1+00301-00901103931ADDGF100991999999999999999999MA1103831999999MW1001REMMET068KIXD 131953Z 35006KT 10SM CLR 03/M09 A3066 RMK AO2 SLP393 T00281089;EQDQ01+000000PRSWM2
0157724475999992000012009534+38830-094880FM-15+0331KIXD V0203301N005112200019N0160931N1-01001-01301102731ADDGF100991999999999999999999MA1102681999999MW1001REMMET079KIXD 200953Z AUTO 33010KT 10SM CLR M10/M13 A3032 RMK AO2 SLP273 T11001128 TSNO;EQDQ01+000000PRSWM2
0157724475999992000012310534+38830-094880FM-15+0331KIXD V0200301N004112200019N0160931N1-00301-00701101871ADDGF100991999999999999999999MA1101831999999MW1001REMMET079KIXD 231053Z AUTO 03008KT 10SM CLR M03/M07 A3007 RMK AO2 SLP187 T10281067 TSNO;EQDQ01+000000PRSWM2
0176724475999992000012515534+38830-094880FM-15+0331KIXD V0203601N010312200019N0160931N1-00401-01201102781ADDGF100991999999999999999999MA1102681999999MW1001OC101291REMMET090KIXD 251553Z 36020G25KT 10SM CLR M04/M12 A3032 RMK AO2 PK WND 36026/1518 SLP278 T10391117;EQDQ01+000000PRSWM2
0228724475999992000012813534+38830-094880FM-15+0331KIXD V0200801N003110126019N0096561N1-00501-00601103191ADDAA101000391GD12991+0033099GD24991+0126099GF108991999999999999999999MA1103081999999MW1101REMMET093KIXD 281353Z 08006KT 6SM BR FEW011 OVC042 M05/M06 A3044 RMK AO2 SNE28 SLP319 P0001 T10501061;EQDQ01+000003PRSWM1Q02    003PRSWM1
0171724475999992000013113534+38830-094880FM-15+0331KIXD V0202201N004612200019N0040231N1-01101-01201102521ADDGF100991999999999999999999MA1102371999999MW1101REMMET077KIXD 311353Z 22009KT 2 1/2SM BR CLR M11/M12 A3023 RMK AO2 SLP252 T11061117 $;EQDQ01+000003PRSWM1Q02    003PRSWM1
0146724475999992000020121534+38830-094880FM-15+0331KIXD V0203401N003612200019N0160931N1+00001-00601103131ADDGF100991999999999999999999MA1103011999999MW1001REMMET068KIXD 012153Z 34007KT 10SM CLR 00/M06 A3042 RMK AO2 SLP313 T00001061;EQDQ01+000000PRSWM2
0146724475999992000020816534+38830-094880FM-15+0331KIXD V0201901N004612200019N0160931N1+00701-00201102861ADDGF100991999999999999999999MA1102811999999MW1001REMMET068KIXD 081653Z 19009KT 10SM CLR 07/M02 A3036 RMK AO2 SLP286 T00721022;EQDQ01+000000PRSWM2
0117724475999992000021419534+38830-094880FM-15+0331KIXD V0201901N003112200019N0128741N1+00501-00501101801ADDMA1101731999999MW1001REMMET065KIXD 141953Z 19006KT 8SM 05/M05 A3004 RMK AO2 SLP180 T00501050 $;EQDQ01+000000PRSWM2
0146724475999992000021616534+38830-094880FM-15+0331KIXD V0200501N003612200019N0160931N1+00201-00601103111ADDGF100991999999999999999999MA1103051999999MW1001REMMET068KIXD 161653Z 05007KT 10SM CLR 02/M06 A3043 RMK AO2 SLP311 T00171061;EQDQ01+000000PRSWM2
0146724475999992000021821004+38830-094880FM-15+0331KIXD V0203401N008210048019N0128741N1+00001-00201999999ADDGD14991+0048099GF108991999999999999999999MA1101901999999MW1001REMMET053KIXD 182100Z 34016KT 8SM OVC016 00/M02 A3009 RMK AO2;EQDQ01+000000PRSWM2
0130724475999992000022419534+38830-094880FM-16+0331KIXD V0201601N005712200019N0160931N1+99999+99999999999ADDGF100991999999999999999999MA1101251999999MW1001REMMET052KIXD 241853Z 16011KT 10SM CLR A2990 RMK AO2 SLPNO $;EQDQ01+000000PRSWM2
0174724475999992000022816534+38830-094880FM-15+0331KIXD V0201901N009312200019N0160931N1+01601+00201101981ADDGF100991999999999999999999MA1102001999999MW1001OC101441REMMET088KIXD 281653Z 19018G28KT 10SM CLR 16/02 A3012 RMK AO2 PK WND 18029/1625 SLP198 T01610017;EQDQ01+000000PRSWM2
0155724475999992000022909534+38830-094880FM-15+0331KIXD V0201601N007712200019N0160931N1+01101+00201100991ADDGF100991999999999999999999MA1101051999999MW1001REMMET077KIXD 290953Z AUTO 16015KT 10SM CLR 11/02 A2984 RMK AO2 SLP099 T01060022 TSNO;EQDQ01+000000PRSWM2
0146724475999992000030918534+38830-094880FM-15+0331KIXD V0203201N006712200019N0160931N1+00601-00401101911ADDGF100991999999999999999999MA1101901999999MW1001REMMET068KIXD 091853Z 32013KT 10SM CLR 06/M04 A3009 RMK AO2 SLP191 T00611039;EQDQ01+000000PRSWM2
0215724475999992000031011534+38830-094880FM-15+0331KIXD V0200201N003612200019N0160931N1-00301-00501102301ADDGF100991999999999999999999KA1999M-00061KA2999N-00331MA1102241999999MD1110091+9999MW1001REMMET097KIXD 101153Z AUTO 02007KT 10SM CLR M03/M05 A3019 RMK AO2 SLP230 T10281050 11006 21033 51009 TSNO;EQDQ01+000000PRSWM2
0186724475999992000031300534+38830-094880FM-15+0331KIXD V0201801N006210270019N0160931N1+00801-00101102161ADDGD13991+0270099GD24991+0330099GF108991999999999999999999MA1102101999999MW1001REMMET078KIXD 130053Z 18012KT 10SM BKN095 OVC110 08/M01 A3015 RMK AO2 SLP216 T00781006;EQDQ01+000000PRSWM2
0189724475999992000031517214+38830-094880FM-16+0331KIXD V0202201N004610084019N0112651N1+01401+01201999999ADDGD12991+0039099GD22991+0069099GD34991+0084099GF108991999999999999999999MA1101251999999MW1001REMMET066KIXD 151721Z 22009KT 7SM SCT013 SCT023 OVC028 14/12 A2990 RMK AO2;EQDQ01+000000PRSWM2
0239724475999992000031518094+38830-094880FM-16+0331KIXD V0202501N005710087019N0064371N1+01301+01201999999ADDGD12991+0054099GD23991+0087099GD34991+0144099GF108991999999999999999999MA1101291999999MW1801MW2951REMMET094KIXD 151809Z 25011KT 4SM -TSRA BR SCT018 BKN029 OVC048 13/12 A2991 RMK AO2 TSB03RAB1757 P0001;EQDQ01+000100PRSWM4Q02+000003PRSWM1
0262724475999992000031600034+38830-094880FM-16+0331KIXD V0200201N011310021019N0048281N1+01001+00901999999ADDGD13991+0021099GD23991+0048099GD34991+0180099GF108991999999999999999999MA1101321999999MW1631OC101491REMMET099KIXD 160003Z 02022G29KT 3SM RA BR BKN007 BKN016 OVC065 10/09 A2992 RMK AO2 PK WND 02029/0002 P0001;EQDQ01+000100PRSWM3Q02+000003PRSWM1Q03    003PRSWM1
0247724475999992000031601534+38830-094880FM-15+0331KIXD V0200101N01031002101CN0080461N1+00601+00501101651ADDAA101003091GD14991+0027099GF108991999999999999999999MA1101631999999MW1101MW2631OC101341REMMET113KIXD 160153Z 01020G26KT 5SM RA BR OVC009 06/05 A3001 RMK AO2 PK WND 01031/0120 CIG 007V012 SLP165 P0012 T0061050;EQDQ01+000003PRSWM1Q02    003PRSWM1
0164724475999992000032114414+38830-094880FM-16+0331KIXD V0201101N005710018019N0064371N1+00701+00601999999ADDGD13991+0018099GF107991999999999999999999MA1102441999999MW1101REMMET055KIXD 211441Z 11011KT 4SM BR BKN006 07/06 A3025 RMK AO2;EQDQ01+000003PRSWM1Q02    003PRSWM1
0163724475999992000032700534+38830-094880FM-15+0331KIXD V0203401N009812200019N0160931N1+01601+00301100561ADDGF100991999999999999999999MA1100581999999MW1001REMMET085KIXD 270053Z 34019KT 10SM CLR 16/03 A2970 RMK AO2 PK WND 34034/2355 SLP056 T01610028;EQDQ01+000000PRSWM2
0157724475999992000032806534+38830-094880FM-15+0331KIXD V0200101N009812200019N0160931N1+00601-00201100461ADDGF100991999999999999999999MA1100511999999MW1001OC101291REMMET071KIXD 280653Z 01019G25KT 10SM CLR 06/M02 A2968 RMK AO2 SLP046 T00611022;EQDQ01+000000PRSWM2
0156724475999992000032906534+38830-094880FM-15+0331KIXD V0200801N002612200019N0160931N1+00401-00101101031ADDGF100991999999999999999999MA1101021999999MW1001REMMET078KIXD 290653Z AUTO 08005KT 10SM CLR 04/M01 A2983 RMK AO2 SLP103 T00441011 TSNO;EQDQ01+000000PRSWM2
0163724475999992000040210534+38830-094880FM-15+0331KIXD V0203001N002112200019N0064371N1+00301+00301101321ADDGF100991999999999999999999MA1101291999999MW1101REMMET069KIXD 021053Z 30004KT 4SM BR CLR 03/03 A2991 RMK AO2 SLP132 T00330028;EQDQ01+000003PRSWM1Q02    003PRSWM1
0146724475999992000040213364+38830-094880FM-16+0331KIXD V0202301N001512200019N0048281N1+00601+00501999999ADDGF100991999999999999999999MA1101321999999MW1101REMMET052KIXD 021336Z 23003KT 3SM BR CLR 06/05 A2992 RMK AO2;EQDQ01+000003PRSWM1Q02    003PRSWM1
0176724475999992000040408534+38830-094880FM-15+0331KIXD V0203101N004612200019N0160931N1+00201-00601102111ADDGF100991999999999999999999MA1102101999999MD1310041+9999MW1001REMMET084KIXD 040853Z AUTO 31009KT 10SM CLR 02/M06 A3015 RMK AO2 SLP211 T00171056 53004 TSNO;EQDQ01+000000PRSWM2
0156724475999992000040806534+38830-094880FM-15+0331KIXD V0203201N006712200019N0160931N1+00101-00501102701ADDGF100991999999999999999999MA1102681999999MW1001REMMET078KIXD 080653Z AUTO 32013KT 10SM CLR 01/M05 A3032 RMK AO2 SLP270 T00061050 TSNO;EQDQ01+000000PRSWM2
0145724475999992000040904534+38830-094880FM-15+0331KIXD V0201901N003612200019N0144841N1+00301-00301102411ADDGF100991999999999999999999MA1102371999999MW1001REMMET067KIXD 090453Z 19007KT 9SM CLR 03/M03 A3023 RMK AO2 SLP241 T00331033;EQDQ01+000000PRSWM2
0174724475999992000041616534+38830-094880FM-15+0331KIXD V0202701N007710057019N0160931N1+00801+00301101551ADDGD14991+0057099GF108991999999999999999999MA1101561999999MW1001OC101081REMMET073KIXD 161653Z 27015G21KT 10SM OVC019 08/03 A2999 RMK AO2 SLP155 T00780033;EQDQ01+000000PRSWM2
0163724475999992000042104534+38830-094880FM-15+0331KIXD V0203301N007212200019N0160931N1+00901+00301101881ADDGF100991999999999999999999MA1101901999999MW1001REMMET085KIXD 210453Z 33014KT 10SM CLR 09/03 A3009 RMK AO2 PK WND 33027/0356 SLP188 T00890033;EQDQ01+000000PRSWM2
0155724475999992000042504534+38830-094880FM-15+0331KIXD V0209999C000012200019N0160931N1+01001+00701101791ADDGF100991999999999999999999MA1101831999999MW1001REMMET077KIXD 250453Z AUTO 00000KT 10SM CLR 10/07 A3007 RMK AO2 SLP179 T01000067 TSNO;EQDQ01+000000PRSWM2
0195724475999992000050204534+38830-094880FM-15+0331KIXD V0200701N001510210019N0128741N1+01701+01401101431ADDAA101000021GD14991+0210099GF108991999999999999999999MA1101521999999MW1001REMMET091KIXD 020453Z AUTO 07003KT 8SM OVC070 17/14 A2998 RMK AO2 RAE02 SLP143 P0000 T01670144 TSNO;EQDQ01+000000PRSWM2
0185724475999992000050513534+38830-094880FM-15+0331KIXD V0201901N003110066019N0160931N1+01901+01601101601ADDGD13991+0066099GD24991+0078099GF108991999999999999999999MA1101691999999MW1001REMMET077KIXD 051353Z 19006KT 10SM BKN022 OVC026 19/16 A3003 RMK AO2 SLP160 T01890156;EQDQ01+000000PRSWM2
0190724475999992000050609534+38830-094880FM-15+0331KIXD V0201501N004610114019N0160931N1+01701+01601101041ADDGD13991+0114099GD24991+0144099GF108991999999999999999999MA1101151999999MW1001REMMET082KIXD 060953Z AUTO 15009KT 10SM BKN038 OVC048 17/16 A2987 RMK AO2 SLP104 T01720156;EQDQ01+000000PRSWM2
0220724475999992000052405534+38830-094880FM-15+0331KIXD V0201401N001512200019N0160931N1+02201+01901100121ADDGF100991999999999999999999KA1999M+03001KA2999N+02221MA1100241999999MD1810041+9999MW1001REMMET102KIXD 240553Z AUTO 14003KT 10SM CLR 22/19 A2960 RMK AO2 SLP012 T02220194 10300 20222 403170178 58004 $;EQDQ01+000000PRSWM2
0205724475999992000052523534+38830-094880FM-15+0331KIXD V0201001N005712200019N0160931N1+02501+01001100931ADDGF100991999999999999999999KA1999M+02721KA2999N+02391MA1101021999999MD1510151+9999MW1001REMMET087KIXD 252353Z 10011KT 10SM CLR 25/10 A2983 RMK AO2 SLP093 T02500100 10272 20239 55015 $;EQDQ01+000000PRSWM2
0167724475999992000052914534+38830-094880FM-15+0331KIXD V0201901N006712200019N0160931N1+02501+01701101161ADDGF100991999999999999999999MA1101251999999MD1810101+9999MW1001REMMET075KIXD 291453Z 19013KT 10SM CLR 25/17 A2990 RMK AO2 SLP116 T02500172 58010 $;EQDQ01+000000PRSWM2
0150724475999992000060103534+38830-094880FM-15+0331KIXD V0201801N005112200019N0160931N1+02601+02101101321ADDGF100991999999999999999999MA1101461999999MW1001REMMET072KIXD 010353Z AUTO 18010KT 10SM CLR 26/21 A2996 RMK AO2 SLP132 T02560206;EQDQ01+000000PRSWM2
0150724475999992000060403534+38830-094880FM-15+0331KIXD V0201201N003612200019N0160931N1+02001+01601101611ADDGF100991999999999999999999MA1101691999999MW1001REMMET072KIXD 040353Z AUTO 12007KT 10SM CLR 20/16 A3003 RMK AO2 SLP161 T02000161;EQDQ01+000000PRSWM2
0145724475999992000060700534+38830-094880FM-15+0331KIXD V0201601N004112200019N0160931N1+02201+01101102141ADDGF100991999999999999999999MA1102201999999MW1001REMMET067KIXD 070053Z 16008KT 10SM CLR 22/11 A3018 RMK AO2 SLP214 T02170111;EQDQ01+000000PRSWM2
0218724475999992000060705534+38830-094880FM-15+0331KIXD V0201601N002612200019N0160931N1+01501+01101102181ADDGF100991999999999999999999KA1999M+02331KA2999N+01501MA1102271999999MD1010011+9999MW1001REMMET100KIXD 070553Z AUTO 16005KT 10SM CLR 15/11 A3020 RMK AO2 SLP218 T01500106 10233 20150 402440094 50001;EQDQ01+000000PRSWM2
0179724475999992000061013154+38830-094880FM-16+0331KIXD V0201901N009310111019N0160931N1+02301+02001999999ADDGD12991+0066099GD24991+0111099GF108991999999999999999999MA1101291999999MW1001OC101081REMMET063KIXD 101315Z 19018G21KT 10SM SCT022 OVC037 23/20 A2991 RMK AO2;EQDQ01+000000PRSWM2
0238724475999992000061401464+38820-094880FM-16+0331KIXD V0203101N005710135019N0160931N1+02301+01501999999ADDGD13991+0135099GD24991+0210099GF108991999999999999999999MA1100911999999MW1171REMMET114KIXD 140146Z 31011KT 10SM VCTS BKN045 OVC070 23/15 A2980 RMK AO2 PK WND 28039/0129 WSHFT 0123 LTG DSNT W-NE TSB40;EQDQ01+000003PRSWM1Q02    003PRSWM1
0084724475999992000061918534+38820-094880FM-16+0331KIXD V02099999999992200019N0112651N1+99999+99999999999ADDMW1001REMMET047KIXD 191853Z A3003 RMK AO2 RAEMM SLPNO P0000 $;EQDQ01+000000PRSWM2
0236724475999992000062105534+38820-094880FM-15+0331KIXD V0202101N002112200019N0096561N1+01901+01901101071ADDGF100991999999999999999999KA1999M+02061KA2999N+01941MA1101191999999MD1010071+9999MW1101REMMET102KIXD 210553Z AUTO 21004KT 6SM BR CLR 19/19 A2988 RMK AO2 SLP107 T01940194 10206 20194 402830178 50007;EQDQ01+000003PRSWM1Q02    003PRSWM1
0163724475999992000062619534+38820-094880FM-15+0331KIXD V0203601N007212200019N0160931N1+02401+01701101771ADDGD12991+0099099GF104991999999999999999999MA1101861999999MW1001REMMET070KIXD 261953Z 36014KT 10SM SCT033 24/17 A3008 RMK AO2 SLP177 T02440172;EQDQ01+000000PRSWM2
0120724475999992000070501024+38820-094880FM-15+0331KIXD V0201801N004612200019N0160931N1+02901+02401999999ADDGF100991999999999999999999MA1101081999999MW1001REMMET042KIXD 050102Z 18009KT 10SM CLR 29/24 A2985;EQDQ01+000000PRSWM2
0145724475999992000071213534+38820-094880FM-15+0331KIXD V0201701N003612200019N0160931N1+02601+02101101371ADDGF100991999999999999999999MA1101491999999MW1001REMMET067KIXD 121353Z 17007KT 10SM CLR 26/21 A2997 RMK AO2 SLP137 T02610211;EQDQ01+000000PRSWM2
0208724475999992000071720534+38820-094880FM-15+0331KIXD V02099999999992200019N0160931N1+02801+02101101581ADDAA101000021AA203000021GF100991999999999999999999MA1101691999999MD1610091+9999MW1001REMMET094KIXD 172053Z VRB03KT 10SM CLR 28/21 A3003 RMK AO2 RAB11E20 SLP158 P0000 60000 T02780211 56009;EQDQ01+000000PRSWM2
0187724475999992000072108534+38820-094880FM-15+0331KIXD V0209999V005010180019N0144841N1+02001+01901101641ADDGD13991+0180099GF107991999999999999999999MA1101761999999MD1010031+9999MW1001REMMET080KIXD 210853Z AUTO VRB05KT 9SM BKN060 20/19 A3005 RMK AO2 SLP164 T02000189 50003;EQDQ01+000000PRSWM2
0145724475999992000072218534+38820-094880FM-15+0331KIXD V0200701N004612200019N0160931N1+02401+01501102061ADDGF100991999999999999999999MA1102131999999MW1001REMMET067KIXD 221853Z 07009KT 10SM CLR 24/15 A3016 RMK AO2 SLP206 T02390150;EQDQ01+000000PRSWM2
0150724475999992000072403534+38820-094880FM-15+0331KIXD V0201501N002612200019N0160931N1+01801+01401102051ADDGF100991999999999999999999MA1102131999999MW1001REMMET072KIXD 240353Z AUTO 15005KT 10SM CLR 18/14 A3016 RMK AO2 SLP205 T01780139;EQDQ01+000000PRSWM2
0152724475999992000072418534+38820-094880FM-15+0331KIXD V02099999999992200019N0160931N1+02801+01401101781ADDGF100991999999999999999999MA1101861999999MW1001REMMET074KIXD 241853Z 1608KT 110V210 10SM CLR 28/14 A3008 RMK AO2 SLP178 T02780144;EQDQ01+000000PRSWM2
0163724475999992000080410534+38820-094880FM-15+0331KIXD V0201101N002112200019N0064371N1+02101+02101101511ADDGF100991999999999999999999MA1101631999999MW1101REMMET069KIXD 041053Z 11004KT 4SM BR CLR 21/21 A3001 RMK AO2 SLP151 T02110206;EQDQ01+000003PRSWM1Q02    003PRSWM1
0163724475999992000080412534+38820-094880FM-15+0331KIXD V0201301N003112200019N0080461N1+02301+02101101541ADDGF100991999999999999999999MA1101661999999MW1101REMMET069KIXD 041253Z 13006KT 5SM BR CLR 23/21 A3002 RMK AO2 SLP154 T02280211;EQDQ01+000003PRSWM1Q02    003PRSWM1
0149724475999992000080504534+38820-094880FM-15+0331KIXD V0201401N003112200019N0144841N1+02601+02301101281ADDGF100991999999999999999999MA1101421999999MW1001REMMET071KIXD 050453Z AUTO 14006KT 9SM CLR 26/23 A2995 RMK AO2 SLP128 T02560228;EQDQ01+000000PRSWM2
0149724475999992000080707534+38820-094880FM-15+0331KIXD V0200701N003112200019N0144841N1+02301+02201101131ADDGF100991999999999999999999MA1101251999999MW1001REMMET071KIXD 070753Z AUTO 07006KT 9SM CLR 23/22 A2990 RMK AO2 SLP113 T02280217;EQDQ01+000000PRSWM2
0300724475999992000080718354+38820-094880FM-16+0331KIXD V0202501N010310270019N0028161N1+02601+02101999999ADDGD12991+0129099GD22991+0180099GD33991+0270099GF107991999999999999999999MA1101491999999MW1801MW2951OC101701REMMET147KIXD 071835Z 25020G33KT 1 3/4SM -TSRA FEW043 SCT060 BKN095 26/21 A2997 RMK AO2 PK WND 23033/1830 WSHFT 1821 LTG DSNT S-W TSB1757RAB33 PRESRR P0008;EQDQ01+000003PRSWM1Q02    003PRSWM1
0145724475999992000081515534+38820-094880FM-15+0331KIXD V0202101N006712200019N0160931N1+03101+01801101881ADDGF100991999999999999999999MA1102031999999MW1001REMMET067KIXD 151553Z 21013KT 10SM CLR 31/18 A3013 RMK AO2 SLP188 T03060183;EQDQ01+000000PRSWM2
0163724475999992000081813534+38820-094880FM-15+0331KIXD V0200201N004110045019N0160931N1+01901+01601102221ADDGD13991+0045099GF107991999999999999999999MA1102301999999MW1001REMMET070KIXD 181353Z 02008KT 10SM BKN015 19/16 A3021 RMK AO2 SLP222 T01890161;EQDQ01+000000PRSWM2
0161724475999992000082010534+38820-094880FM-15+0331KIXD V0201301N007212200019N0160931N1+02101+01701101631ADDGF100991999999999999999999MA1101731999999MW1001OC100981REMMET075KIXD 201053Z AUTO 13014G19KT 10SM CLR 21/17 A3004 RMK AO2 SLP163 T02060172;EQDQ01+000000PRSWM2
0150724475999992000082307534+38820-094880FM-15+0331KIXD V0202101N006212200019N0160931N1+02801+01801101571ADDGF100991999999999999999999MA1101731999999MW1001REMMET072KIXD 230753Z AUTO 21012KT 10SM CLR 28/18 A3004 RMK AO2 SLP157 T02830183;EQDQ01+000000PRSWM2
0188724475999992000082508534+38820-094880FM-15+0331KIXD V0209999C000012200019N0064371N1+02201+02101101541ADDGF100991999999999999999999MA1101691999999MD1610021+9999MW1101REMMET080KIXD 250853Z AUTO 00000KT 4SM BR CLR 22/21 A3003 RMK AO2 SLP154 T02170211 56002;EQDQ01+000003PRSWM1Q02    003PRSWM1
0170724475999992000082602534+38820-094880FM-15+0331KIXD V0201601N002612200019N0160931N1+02901+01801101081ADDGF100991999999999999999999MA1101221999999MD1310081+9999MW1001REMMET078KIXD 260253Z AUTO 16005KT 10SM CLR 29/18 A2989 RMK AO2 SLP108 T02890183 53008;EQDQ01+000000PRSWM2
0218724475999992000082621564+38820-094880FM-16+0331KIXD V0202101N006710081019N0032181N1+02801+01901999999ADDGD13991+0081099GD23991+0300099GF107991999999999999999999MA1100981999999MW1611OC101341REMMET086KIXD 262156Z 21013G26KT 140V300 2SM -RA BKN027 BKN100 28/19 A2982 RMK AO2 TSE55 P0000;EQDQ01+000003PRSWM1Q02    003PRSWM1
0221724475999992000082622074+38820-094880FM-16+0331KIXD V02099999999990300019N0160931N1+02901+02001999999ADDGD12991+0099099GD23991+0300099GF107991999999999999999999MA1100951999999MW1171REMMET097KIXD 262207Z VRB03KT 10SM TS SCT033 BKN100 29/20 A2981 RMK AO2 LTG DSNT SE TSE2155B01RAE04 P0000;EQDQ01+000003PRSWM1Q02    003PRSWM1
0145724475999992000090116534+38820-094880FM-15+0331KIXD V0209999C000012200019N0160931N1+03301+01901101341ADDGF100991999999999999999999MA1101491999999MW1001REMMET067KIXD 011653Z 00000KT 10SM CLR 33/19 A2997 RMK AO2 SLP134 T03330189;EQDQ01+000000PRSWM2
0150724475999992000090203534+38820-094880FM-15+0331KIXD V0200801N003612200019N0160931N1+02801+02101101121ADDGF100991999999999999999999MA1101251999999MW1001REMMET072KIXD 020353Z AUTO 08007KT 10SM CLR 28/21 A2990 RMK AO2 SLP112 T02830211;EQDQ01+000000PRSWM2
0145724475999992000090612534+38820-094880FM-15+0331KIXD V0201301N003112200019N0160931N1+01401+01101102081ADDGF100991999999999999999999MA1102171999999MW1001REMMET067KIXD 061253Z 13006KT 10SM CLR 14/11 A3017 RMK AO2 SLP208 T01440111;EQDQ01+000000PRSWM2
0150724475999992000090807534+38820-094880FM-15+0331KIXD V0201801N003112200019N0160931N1+02101+01601101401ADDGF100991999999999999999999MA1101521999999MW1001REMMET072KIXD 080753Z AUTO 18006KT 10SM CLR 21/16 A2998 RMK AO2 SLP140 T02060161;EQDQ01+000000PRSWM2
0218724475999992000090905534+38820-094880FM-15+0331KIXD V0201801N004612200019N0160931N1+02301+01801101181ADDGF100991999999999999999999KA1999M+03061KA2999N+02331MA1101321999999MD1110051+9999MW1001REMMET100KIXD 090553Z AUTO 18009KT 10SM CLR 23/18 A2992 RMK AO2 SLP118 T02330178 10306 20233 403440178 51005;EQDQ01+000000PRSWM2
0174724475999992000090916534+38820-094880FM-15+0331KIXD V0202001N009312200019N0160931N1+02701+01901101111ADDGD12991+0126099GF104991999999999999999999MA1101221999999MW1001OC101131REMMET073KIXD 091653Z 20018G22KT 10SM SCT042 27/19 A2989 RMK AO2 SLP111 T02720189;EQDQ01+000000PRSWM2
0152724475999992000091309534+38820-094880FM-15+0331KIXD V0200901N001512200019N0160931N1+01201+00801101841ADDGF100991999999999999999999MA1101901999999MW1001REMMET074KIXD 130953Z AUTO 09003KT 10SM CLR 12/08 A3009 RMK AO2 SLP184 T01170083 $;EQDQ01+000000PRSWM2
0163724475999992000092000534+38820-094880FM-15+0331KIXD V0200101N009312200019N0160931N1+02101+01601100431ADDGF100991999999999999999999MA1100541999999MW1001REMMET085KIXD 200053Z 01018KT 10SM CLR 21/16 A2969 RMK AO2 PK WND 36026/0031 SLP043 T02060156;EQDQ01+000000PRSWM2
0168724475999992000092321464+38820-094880FM-16+0331KIXD V0200101N005110021019N0040231N1+01201+01201999999ADDGD14991+0021099GF108991999999999999999999MA1101351999999MW1101REMMET059KIXD 232146Z 01010KT 2 1/2SM BR OVC007 12/12 A2993 RMK AO2;EQDQ01+000003PRSWM1Q02    003PRSWM1
0208724475999992000092823534+38820-094880FM-15+0331KIXD V0201301N003612200019N0160931N1+02101+01001102161ADDGF100991999999999999999999KA1999M+02671KA2999N+02111MA1102201999999MD1610081+9999MW1001REMMET090KIXD 282353Z AUTO 13007KT 10SM CLR 21/10 A3018 RMK AO2 SLP216 T02110100 10267 20211 56008;EQDQ01+000000PRSWM2
0213724475999992000100514254+38820-094880FM-15+0331KIXD V0203501N006210015019N0096561N1+01301+01301999999ADDAA101000591GD13991+0015099GD24991+0210099GF108991999999999999999999MA1101291999999MW1101MW2611REMMET072KIXD 051425Z 35012KT 6SM -RA BR BKN005 OVC070 13/13 A2991 RMK AO2 P0002;EQDQ01+000003PRSWM1Q02    003PRSWM1
0157724475999992000100716534+38820-094880FM-15+0331KIXD V0203401N008712200019N0160931N1+00801-00801103841ADDGF100991999999999999999999MA1103791999999MW1001OC101081REMMET071KIXD 071653Z 34017G21KT 10SM CLR 08/M08 A3065 RMK AO2 SLP384 T00781083;EQDQ01+000000PRSWM2
0166724475999992000100914534+38820-094880FM-15+0331KIXD V0202301N002612200019N0160931N1+00601-00201103771ADDGF100991999999999999999999MA1103731999999MD1110061+9999MW1001REMMET074KIXD 091453Z 23005KT 10SM CLR 06/M02 A3063 RMK AO2 SLP377 T00561022 51006;EQDQ01+000000PRSWM2
0146724475999992000100915534+38820-094880FM-15+0331KIXD V0202101N003112200019N0160931N1+00801-00401103741ADDGF100991999999999999999999MA1103691999999MW1001REMMET068KIXD 091553Z 21006KT 10SM CLR 08/M04 A3062 RMK AO2 SLP374 T00781044;EQDQ01+000000PRSWM2
0186724475999992000101406534+38820-094880FM-15+0331KIXD V0203001N004110330019N0160931N1+01801+01101101631ADDGD14991+0330099GF108991999999999999999999MA1101731999999MW1001REMMET093KIXD 140653Z AUTO 30008KT 10SM OVC110 18/11 A3004 RMK AO2 LTG DSNT W PRESRR SLP163 T01780111;EQDQ01+000000PRSWM2
0267724475999992000101407534+38820-094880FM-15+0331KIXD V0202301N006210180019N0048281N1+01601+01601101651ADDAA101002391GD12991+0072099GD24991+0180099GF108991999999999999999999MA1101731999999MW1101MW2651REMMET126KIXD 140753Z AUTO 23012KT 3SM +RA BR SCT024 OVC060 16/16 A3004 RMK AO2 LTG DSNT SW TSB29E47RAB04E21B38 SLP165 P0009 T01610156;EQDQ01+000003PRSWM1Q02    003PRSWM1
0223724475999992000101514534+38820-094880FM-15+0331KIXD V0200101N004610051019N0048281N1+01601+01501101941ADDGD12991+0018099GD24991+0051099GF108991999999999999999999MA1102001999999MD1110141+9999MW1101REMMET085KIXD 151453Z 01009KT 3SM BR FEW006 OVC017 16/15 A3012 RMK AO2 SLP194 T01610150 51014;EQDQ01+000003PRSWM1Q02    003PRSWM1
0203724475999992000102017534+38820-094880FM-15+0331KIXD V0202201N005112200019N0160931N1+02301+01301101831ADDGF100991999999999999999999KA1999M+02331KA2999N+01001MA1101901999999MD1810051+9999MW1001REMMET085KIXD 201753Z 22010KT 10SM CLR 23/13 A3009 RMK AO2 SLP183 T02330128 10233 20100 58005;EQDQ01+000000PRSWM2
0208724475999992000102313114+38820-094880FM-16+0331KIXD V0201301N002110054019N0032181N1+01701+01701999999ADDGD12991+0033099GD23991+0054099GD34991+0069099GF108991999999999999999999MA1102681999999MW1101REMMET069KIXD 231311Z 13004KT 2SM BR SCT011 BKN018 OVC023 17/17 A3032 RMK AO2;EQDQ01+000003PRSWM1Q02    003PRSWM1
0168724475999992000102906534+38820-094880FM-15+0331KIXD V0201001N006212200019N0080461N1+01401+01301101821ADDGF100991999999999999999999MA1101861999999MW1101REMMET074KIXD 290653Z AUTO 10012KT 5SM BR CLR 14/13 A3008 RMK AO2 SLP182 T01390128;EQDQ01+000003PRSWM1Q02    003PRSWM1
0223724475999992000110811534+38820-094880FM-15+0331KIXD V0203201N003610210019N0160931N1-00101-00701101771ADDGD13991+0210099GF107991999999999999999999KA1999M+00001KA2999N-00221MA1101691999999MD1810071+9999MW1001REMMET090KIXD 081153Z 32007KT 10SM BKN070 M01/M07 A3003 RMK AO2 SLP177 T10111067 10000 21022 58007;EQDQ01+000000PRSWM2
0181724475999992000111119534+38820-094880FM-15+0331KIXD V0201001N005710009019N0064371N1+00001+00001101891ADDGD14991+0009099GF108991999999999999999999MA1101801999999MW1101REMMET072KIXD 111953Z 10011KT 4SM BR OVC003 00/00 A3006 RMK AO2 SLP189 T00000000;EQDQ01+000003PRSWM1Q02    003PRSWM1
0146724475999992000112216534+38820-094880FM-15+0331KIXD V02099999999992200019N0160931N1+00201-00601102791ADDGF100991999999999999999999MA1102711999999MW1001REMMET068KIXD 221653Z VRB03KT 10SM CLR 02/M06 A3033 RMK AO2 SLP279 T00221056;EQDQ01+000000PRSWM2
0151724475999992000112906534+38820-094880FM-15+0331KIXD V0202801N004112200019N0160931N1+00201-00201102281ADDGF100991999999999999999999MA1102271999999MW1001REMMET073KIXD 290653Z AUTO 28008KT 10SM CLR 02/M02 A3020 RMK AO2 SLP228 T00171022;EQDQ01+000000PRSWM2
0175724475999992000112919534+38820-094880FM-15+0331KIXD V0203101N006712200019N0160931N1+00701-00301102691ADDGD12991+0129099GF104991999999999999999999MA1102641999999MW1001OC100981REMMET074KIXD 291953Z 31013G19KT 10SM SCT043 07/M03 A3031 RMK AO2 SLP269 T00671033;EQDQ01+000000PRSWM2
0164724475999992000113019534+38820-094880FM-15+0331KIXD V0201301N006710240019N0160931N1+00601-00201102151ADDGD14991+0240099GF108991999999999999999999MA1102071999999MW1001REMMET071KIXD 301953Z 13013KT 10SM OVC080 06/M02 A3014 RMK AO2 SLP215 T00611022;EQDQ01+000000PRSWM2
0182724475999992000120118534+38820-094880FM-15+0331KIXD V0203301N006210045019N0080461N1+00101-00101102421ADDGD14991+0045099GF108991999999999999999999MA1102341999999MW1101REMMET073KIXD 011853Z 33012KT 5SM BR OVC015 01/M01 A3022 RMK AO2 SLP242 T00111006;EQDQ01+000003PRSWM1Q02    003PRSWM1
0248724475999992000120208454+38820-094880FM-15+0331KIXD V0203601N00511002101CN0080461N1+00001+00001999999ADDAA101000021GD13991+0024099GD23991+0051099GD34991+0087099GF108991999999999999999999MA1103351999999MW1101REMMET098KIXD 020845Z AUTO 36010KT 5SM BR BKN008 BKN017 OVC029 00/00 A3052 RMK AO2 SNE09 CIG 007V011 P0000;EQDQ01+000003PRSWM1Q02    003PRSWM1
0146724475999992000120318534+38820-094880FM-15+0331KIXD V0201701N006712200019N0160931N1+00201-00701103251ADDGF100991999999999999999999MA1103151999999MW1001REMMET068KIXD 031853Z 17013KT 10SM CLR 02/M07 A3046 RMK AO2 SLP325 T00221067;EQDQ01+000000PRSWM2
0146724475999992000120619534+38820-094880FM-15+0331KIXD V0202701N005712200019N0160931N1+00201-00401102141ADDGF100991999999999999999999MA1102071999999MW1001REMMET068KIXD 061953Z 27011KT 10SM CLR 02/M04 A3014 RMK AO2 SLP214 T00171044;EQDQ01+000000PRSWM2
0170724475999992000120906534+38820-094880FM-15+0331KIXD V0201301N005110300019N0160931N1-00101-00601102371ADDGD14991+0300099GF108991999999999999999999MA1102301999999MW1001REMMET077KIXD 090653Z AUTO 13010KT 10SM OVC100 M01/M06 A3021 RMK AO2 SLP237 T10061061;EQDQ01+000000PRSWM2
0147724475999992000121710534+38820-094880FM-15+0331KIXD V0202901N006212200019N0160931N1-01701-02201102661ADDGF100991999999999999999999MA1102441999999MW1001REMMET069KIXD 171053Z 29012KT 10SM CLR M17/M22 A3025 RMK AO2 SLP266 T11671217;EQDQ01+000000PRSWM2
0267724475999992000121811534+38820-094880FM-15+0331KIXD V0202601N002610147019N0160931N1-00801-01201101171ADDGD12991+0117099GD23991+0147099GD34991+0150099GF108991999999999999999999KA1999M-00781KA2999N-01001MA1101021999999MD1510061+9999MW1001REMMET104KIXD 181153Z 26005KT 10SM SCT039 BKN049 OVC055 M08/M12 A2983 RMK AO2 SLP117 T10831122 11078 21100 55006;EQDQ01+000000PRSWM2
0147724475999992000122400534+38820-094880FM-15+0331KIXD V0203301N005712200019N0160931N1-00901-01301103161ADDGF100991999999999999999999MA1103011999999MW1001REMMET069KIXD 240053Z 33011KT 10SM CLR M09/M13 A3042 RMK AO2 SLP316 T10941128;EQDQ01+000000PRSWM2
0170724475999992000122623394+38820-094880FM-16+0331KIXD V0203601N003610048019N0160931N1-00601-00701999999ADDGD13991+0048099GD24991+0087099GF108991999999999999999999MA1103011999999MW1001REMMET062KIXD 262339Z 36007KT 10SM BKN016 OVC029 M06/M07 A3042 RMK AO2;EQDQ01+000000PRSWM2
0170724475999992000122706534+38820-094880FM-15+0331KIXD V0203201N002112200019N0064371N1-01201-01301103111ADDGF100991999999999999999999MA1102951999999MW1101REMMET076KIXD 270653Z AUTO 32004KT 4SM BR CLR M12/M13 A3040 RMK AO2 SLP311 T11171128;EQDQ01+000003PRSWM1Q02    003PRSWM1
0666724490139932000022605596+39774-094923SOD  +0249KSTJ V020999999999999999999999999999+99999+99999999999ADDAA124011495KA1240M+02005KA2240N+00725MG1097299999994OE11240183321004515OE22240156521004525OE33240077399999995REMSOD54524 HR PRECIPITATION (IN): 0.45 24 HR MAX TEMP (F): 6824 HR MAX TEMP TIME (LST):1532 24 HR MIN TEMP (F): 4524 HR MIN TEMP TIME (LST):2359 AVERAGE STATION PRESSURE:28.73  PEAK WIND SPEED (MPH): 41 PEAK WIND DIR (DEG):210 PEAK WIND TIME (LST):0451  FASTEST 2MIN SPEED (MPH): 35FASTEST 2MIN DIR (DEG):210 FASTEST 2MIN TIME (LST):0452 AVERAGE WIND SPEED (MPH):17.3 24 HR AVG TEMP (F):57 HOURLY INCREMENTAL PRECIPITATION VALUES (IN):.00   T    T   .02  .14  .01   T    T   .14  .05  .09  .00  .00  .00  .00  .00  .00  .00  .00  .00  .00  .00  .00  .00
0666724490139932000061805596+39774-094923SOD  +0249KSTJ V020999999999999999999999999999+99999+99999999999ADDAA124000025KA1240M+02175KA2240N+01225MG1098819999994OE11240080509002105OE22240062609002335OE33240030899999995REMSOD54524 HR PRECIPITATION (IN):  T   24 HR MAX TEMP (F): 7124 HR MAX TEMP TIME (LST):1431 24 HR MIN TEMP (F): 5424 HR MIN TEMP TIME (LST):2359 AVERAGE STATION PRESSURE:29.18  PEAK WIND SPEED (MPH): 18 PEAK WIND DIR (DEG):090 PEAK WIND TIME (LST):0210  FASTEST 2MIN SPEED (MPH): 14FASTEST 2MIN DIR (DEG):090 FASTEST 2MIN TIME (LST):0233 AVERAGE WIND SPEED (MPH): 6.9 24 HR AVG TEMP (F):63 HOURLY INCREMENTAL PRECIPITATION VALUES (IN):.00  .00  .00  .00  .00  .00  .00  .00  .00  .00  .00  .00  .00  .00  .00  .00  .00  .00  .00   T   .00  .00  .00  .00
0225724490999992000010605534+39770-094920FM-15+0249KSTJ V0202001N001512200019N0160931N1-00101-00601101931ADDGF100991999999999999999999KA1999M+00441KA2999N-00221MA1101861999999MD1310201+9999MW1001REMMET107KSTJ 060553Z AUTO 20003KT 10SM CLR M01/M06 A3008 RMK AO2 SLP193 T10111061 10044 21022 400941089 53020 TSNO;EQDQ01+000000PRSWM2
0166724490999992000010714534+39770-094920FM-15+0249KSTJ V0209999C000012200019N0128741N1-00401-00601103121ADDGF100991999999999999999999MA1103011999999MD1810011+9999MW1001REMMET074KSTJ 071453Z 00000KT 8SM CLR M04/M06 A3042 RMK AO2 SLP312 T10391056 58001;EQDQ01+000000PRSWM2
0193724490999992000010815534+39770-094920FM-15+0249KSTJ V0201901N00411002401CN0096561N1+00401+00101101721ADDGD14991+0030099GF108991999999999999999999MA1101661999999MW1051REMMET084KSTJ 081553Z 19008KT 6SM HZ OVC010 04/01 A3002 RMK AO2 CIG 008V014 SLP172 T00440011;EQDQ01+000003PRSWM1Q02    003PRSWM1
0177724490999992000012410534+39770-094920FM-15+0249KSTJ V0201701N001512200019N0096561N1-01301-01501102521ADDGF100991999999999999999999MA1102401999999MW1101REMMET083KSTJ 241053Z AUTO 17003KT 6SM BR CLR M13/M15 A3024 RMK AO2 SLP252 T11281150 TSNO $;EQDQ01+000003PRSWM1Q02    003PRSWM1
0147724490999992000012522534+39770-094920FM-15+0249KSTJ V0203601N005712200019N0160931N1-00101-01301102651ADDGF100991999999999999999999MA1102571999999MW1001REMMET069KSTJ 252253Z 36011KT 10SM CLR M01/M13 A3029 RMK AO2 SLP265 T10111133;EQDQ01+000000PRSWM2
0128724490999992000020409534+39770-094920FM-16+0249KSTJ V02099999999992200019N9999999N1+99999+99999102581ADDMA1102541999999MW1001REMMET076KSTJ 040953Z AUTO 10SM OVC038 M02/M09 A3028 RMK AO2 SLP258 T10221094 TSNO $;EQDQ01+000000PRSWM2
0157724490999992000020707534+39770-094920FM-15+0249KSTJ V0209999C000012200019N0160931N1-00601-00801102461ADDGF100991999999999999999999MA1102401999999MW1001REMMET079KSTJ 070753Z AUTO 00000KT 10SM CLR M06/M08 A3024 RMK AO2 SLP246 T10561083 TSNO;EQDQ01+000000PRSWM2
0183724490999992000021219534+39770-094920FM-15+0249KSTJ V0201701N004110033019N0064371N1-00101-00301101571ADDGD14991+0033099GF108991999999999999999999MA1101491999999MW1101REMMET074KSTJ 121953Z 17008KT 4SM BR OVC011 M01/M03 A2997 RMK AO2 SLP157 T10061028;EQDQ01+000003PRSWM1Q02    003PRSWM1
0170724490999992000021415084+39770-094920FM-16+0249KSTJ V0202401N003112200019N0040231N1-00401-00701999999ADDGD12991+0030099GF102991999999999999999999MA1101931999999MW1051REMMET061KSTJ 141508Z 24006KT 2 1/2SM HZ FEW010 M04/M07 A3010 RMK AO2;EQDQ01+000003PRSWM1Q02    003PRSWM1
0194724490999992000022520534+39770-094920FM-15+0249KSTJ V0201801N010312200019N0160931N1+01901+01301099841ADDGF100991999999999999999999MA1099901999999MD1610341+9999MW1001OC101291REMMET094KSTJ 252053Z 18020G25KT 10SM CLR 19/13 A2950 RMK AO2 PK WND 18033/1954 SLP984 T01940128 56034;EQDQ01+000000PRSWM2
0176724490999992000022808534+39770-094920FM-15+0249KSTJ V0201301N001512200019N0160931N1+00001-00201102211ADDGF100991999999999999999999MA1102201999999MD1810101+9999MW1001REMMET084KSTJ 280853Z AUTO 13003KT 10SM CLR 00/M02 A3018 RMK AO2 SLP221 T00001022 58010 TSNO;EQDQ01+000000PRSWM2
0174724490999992000030708534+39770-094920FM-15+0249KSTJ V0201901N003612200019N0128741N1+01601+01301101411ADDGF100991999999999999999999MA1101461999999MD1010051+9999MW1001REMMET082KSTJ 070853Z AUTO 19007KT 8SM CLR 16/13 A2996 RMK AO2 SLP141 T01560128 50005 TSNO;EQDQ01+000000PRSWM2
0163724490999992000030719534+39770-094920FM-15+0249KSTJ V0202001N007212200019N0160931N1+02601+01301101211ADDGD12991+0141099GF102991999999999999999999MA1101291999999MW1001REMMET070KSTJ 071953Z 20014KT 10SM FEW047 26/13 A2991 RMK AO2 SLP121 T02560128;EQDQ01+000000PRSWM2
0185724490999992000031607534+39770-094920FM-15+0249KSTJ V0200101N009810330019N0160931N1+00101-00401102291ADDGD14991+0330099GF108991999999999999999999MA1102271999999MW1001OC101231REMMET084KSTJ 160753Z AUTO 01019G24KT 10SM OVC110 01/M04 A3020 RMK AO2 SLP229 T00111044 TSNO;EQDQ01+000000PRSWM2
0211724490999992000031819534+39770-094920FM-15+0249KSTJ V0201101N004110045019N0096561N1+00701+00401101581ADDAA101000021GD14991+0045099GF108991999999999999999999MA1101561999999MW1611REMMET091KSTJ 181953Z 11008KT 6SM -RA OVC015 07/04 A2999 RMK AO2 RAB05E20B38 SLP158 P0000 T00720039;EQDQ01+000003PRSWM1Q02    003PRSWM1
0191724490999992000032010534+39770-094920FM-15+0249KSTJ V0203501N002110027019N0064371N1+00101+00001101241ADDGD14991+0027099GF108991999999999999999999MA1101191999999MW1101REMMET082KSTJ 201053Z AUTO 35004KT 4SM BR OVC009 01/00 A2988 RMK AO2 SLP124 T00110000 TSNO;EQDQ01+000003PRSWM1Q02    003PRSWM1
0145724490999992000032521534+39770-094920FM-15+0249KSTJ V02099999999992200019N0160931N1+01901+00201101871ADDGF100991999999999999999999MA1101861999999MW1001REMMET067KSTJ 252153Z VRB04KT 10SM CLR 19/02 A3008 RMK AO2 SLP187 T01940022;EQDQ01+000000PRSWM2
0155724490999992000032610534+39770-094920FM-15+0249KSTJ V0201801N001512200019N0160931N1+00401+00301101391ADDGF100991999999999999999999MA1101391999999MW1001REMMET077KSTJ 261053Z AUTO 18003KT 10SM CLR 04/03 A2994 RMK AO2 SLP139 T00440033 TSNO;EQDQ01+000000PRSWM2
0212724490999992000032817534+39770-094920FM-15+0249KSTJ V0203401N004112200019N0160931N1+00701-00401101061ADDGF100991999999999999999999KA1999M+00781KA2999N-00331MA1101051999999MD1810071+9999MW1001REMMET094KSTJ 281753Z 34008KT 320V020 10SM CLR 07/M04 A2984 RMK AO2 SLP106 T00721039 10078 21033 58007;EQDQ01+000000PRSWM2
0156724490999992000040406534+39770-094920FM-15+0249KSTJ V0203001N004112200019N0160931N1+00201-00601102061ADDGF100991999999999999999999MA1102031999999MW1001REMMET078KSTJ 040653Z AUTO 30008KT 10SM CLR 02/M06 A3013 RMK AO2 SLP206 T00171061 TSNO;EQDQ01+000000PRSWM2
0145724490999992000040521534+39770-094920FM-15+0249KSTJ V0202201N008212200019N0160931N1+03101+00601099701ADDGF100991999999999999999999MA1099761999999MW1001REMMET067KSTJ 052153Z 22016KT 10SM CLR 31/06 A2946 RMK AO2 SLP970 T03060061;EQDQ01+000000PRSWM2
0213724490999992000041123534+39770-094920FM-15+0249KSTJ V0200201N004112200019N0160931N1+00901+00001102911ADDGF100991999999999999999999KA1999M+01331KA2999N+00891MA1102881999999MD1310101+9999MW1001REMMET095KSTJ 112353Z AUTO 02008KT 10SM CLR 09/00 A3038 RMK AO2 SLP291 T00940000 10133 20089 53010 TSNO;EQDQ01+000000PRSWM2
0157724490999992000041219534+39770-094920FM-15+0249KSTJ V0201301N008212200019N0160931N1+01401-00501102781ADDGF100991999999999999999999MA1102781999999MW1001OC100981REMMET071KSTJ 121953Z 13016G19KT 10SM CLR 14/M05 A3035 RMK AO2 SLP278 T01441050;EQDQ01+000000PRSWM2
0172724490999992000041707534+39770-094920FM-15+0249KSTJ V0203301N006710027019N0128741N1+00401+00201101971ADDGD14991+0027099GF108991999999999999999999MA1101931999999MW1001REMMET079KSTJ 170753Z AUTO 33013KT 8SM OVC009 04/02 A3010 RMK AO2 SLP197 T00390022 TSNO;EQDQ01+000000PRSWM2
0193724490999992000041902534+39770-094920FM-15+0249KSTJ V0201301N004610180019N0160931N1+02201+01401100501ADDGD13991+0180099GF107991999999999999999999MA1100541999999MD1310031+9999MW1001REMMET086KSTJ 190253Z AUTO 13009KT 10SM BKN060 22/14 A2969 RMK AO2 SLP050 T02220144 53003 TSNO;EQDQ01+000000PRSWM2
0155724490999992000042500534+39770-094920FM-15+0249KSTJ V0200901N002612200019N0160931N1+01501+00701101551ADDGF100991999999999999999999MA1101561999999MW1001REMMET077KSTJ 250053Z AUTO 09005KT 10SM CLR 15/07 A2999 RMK AO2 SLP155 T01500072 TSNO;EQDQ01+000000PRSWM2
0230724490999992000042515534+39770-094920FM-15+0249KSTJ V0200701N002110180019N0048281N1+01201+00901102061ADDAA101002091GD12991+0075099GD24991+0180099GF108991999999999999999999MA1102071999999MW1101MW2611REMMET089KSTJ 251553Z 07004KT 3SM -RA BR SCT025 OVC060 12/09 A3014 RMK AO2 SLP206 P0008 T01170094;EQDQ01+000003PRSWM1Q02    003PRSWM1
0155724490999992000042712534+39770-094920FM-15+0249KSTJ V0202901N008212200019N0160931N1+01201+00801101161ADDGF100991999999999999999999MA1101191999999MW1001REMMET077KSTJ 271253Z AUTO 29016KT 10SM CLR 12/08 A2988 RMK AO2 SLP116 T01170078 TSNO;EQDQ01+000000PRSWM2
0274724490999992000042811534+39770-094920FM-15+0249KSTJ V0209999C000010003019N0004021N1+00601+00601101811ADDGD13991+0003099GD24991+0015099GF108991999999999999999999KA1999M+01001KA2999N+00501MA1101801999999MD1310081+9999MW1441REMMET110KSTJ 281153Z AUTO 00000KT M1/4SM FG BKN001 OVC005 06/06 A3006 RMK AO2 SLP181 T00560056 10100 20050 53008 TSNO;EQDQ01+000003PRSWM1Q02    003PRSWM1
0185724490999992000050318534+39770-094920FM-15+0249KSTJ V0201401N004110144019N0160931N1+02301+01401101411ADDGD13991+0144099GD24991+0240099GF108991999999999999999999MA1101491999999MW1001REMMET077KSTJ 031853Z 14008KT 10SM BKN048 OVC080 23/14 A2997 RMK AO2 SLP141 T02330144;EQDQ01+000000PRSWM2
0149724490999992000050409534+39770-094920FM-15+0249KSTJ V0201801N002612200019N0144841N1+01401+01301101371ADDGF100991999999999999999999MA1101421999999MW1001REMMET071KSTJ 040953Z AUTO 18005KT 9SM CLR 14/13 A2995 RMK AO2 SLP137 T01390128;EQDQ01+000000PRSWM2
0295724490999992000051111534+39770-094920FM-15+0249KSTJ V0201901N008710087019N0096561N1+02301+01901099481ADDGD13991+0087099GD24991+0111099GF108991999999999999999999KA1999M+02331KA2999N+02111MA1099561999999MD1610261+9999MW1051OC101181REMMET123KSTJ 111153Z AUTO 19017G23KT 6SM HZ BKN029 OVC037 23/19 A2940 RMK AO2 PK WND 17027/1122 SLP948 T02330194 10233 20211 56026;EQDQ01+000003PRSWM1Q02    003PRSWM1
0204724490999992000051208534+39770-094920FM-15+0249KSTJ V0200101N005110096019N0144841N1+01901+01601099851ADDAA103001391GD14991+0096099GF108991999999999999999999MA1099931999999MD1010011+9999MW1001REMMET086KSTJ 120853Z AUTO 01010KT 9SM OVC032 19/16 A2951 RMK AO2 SLP985 60005 T01890161 50001;EQDQ01+000000PRSWM2
0218724490999992000051405534+39770-094920FM-15+0249KSTJ V0209999C000012200019N0160931N1+00601+00201102321ADDGF100991999999999999999999KA1999M+01721KA2999N+00561MA1102301999999MD1010011+9999MW1001REMMET100KSTJ 140553Z AUTO 00000KT 10SM CLR 06/02 A3021 RMK AO2 SLP232 T00560022 10172 20056 401780056 50001;EQDQ01+000000PRSWM2
0218724490999992000051505534+39770-094920FM-15+0249KSTJ V0201801N002612200019N0160931N1+01101+00601102231ADDGF100991999999999999999999KA1999M+02001KA2999N+01061MA1102271999999MD1810081+9999MW1001REMMET100KSTJ 150553Z AUTO 18005KT 10SM CLR 11/06 A3020 RMK AO2 SLP223 T01110061 10200 20106 402060039 58008;EQDQ01+000000PRSWM2
0168724490999992000052106534+39770-094920FM-15+0249KSTJ V0201901N003112200019N0160931N1+01601+00901101361ADDGD12991+0360099GF102991999999999999999999MA1101421999999MW1001REMMET075KSTJ 210653Z AUTO 19006KT 10SM FEW120 16/09 A2995 RMK AO2 SLP136 T01560094;EQDQ01+000000PRSWM2
0217724490999992000052605534+39770-094920FM-15+0249KSTJ V0201001N004112200019N0160931N1+02101+00801999999ADDGF100991999999999999999999KA1999M+02501KA2999N+02061MA1100911999999MD1610081+9999MW1001REMMET099KSTJ 260553Z AUTO 10008KT 10SM CLR 21/08 A2980 RMK AO2 SLPNO T02060078 10250 20206 402720128 56008;EQDQ01+000000PRSWM2
0170724490999992000052808534+39770-094920FM-15+0249KSTJ V0202501N003112200019N0160931N1+01401+01201101251ADDGF100991999999999999999999MA1101291999999MD1310051+9999MW1001REMMET078KSTJ 280853Z AUTO 25006KT 10SM CLR 14/12 A2991 RMK AO2 SLP125 T01390117 53005;EQDQ01+000000PRSWM2
0145724490999992000052816534+39770-094920FM-15+0249KSTJ V0203201N007212200019N0160931N1+02101+01301101531ADDGF100991999999999999999999MA1101591999999MW1001REMMET067KSTJ 281653Z 32014KT 10SM CLR 21/13 A3000 RMK AO2 SLP153 T02110128;EQDQ01+000000PRSWM2
0150724490999992000053101534+39770-094920FM-15+0249KSTJ V0201801N005112200019N0160931N1+03101+02101100671ADDGF100991999999999999999999MA1100781999999MW1001REMMET072KSTJ 310153Z AUTO 18010KT 10SM CLR 31/21 A2976 RMK AO2 SLP067 T03060211;EQDQ01+000000PRSWM2
0176724490999992000060620534+39770-094920FM-15+0249KSTJ V0201501N006212200019N0160931N1+02401+01101102191ADDGF100991999999999999999999MA1102241999999MD1810231+9999MW1001OC100871REMMET076KSTJ 062053Z 15012G17KT 10SM CLR 24/11 A3019 RMK AO2 SLP219 T02440106 58023;EQDQ01+000000PRSWM2
0218724490999992000060705534+39770-094920FM-15+0249KSTJ V0201701N004112200019N0160931N1+01801+01001102081ADDGF100991999999999999999999KA1999M+02441KA2999N+01781MA1102131999999MD1010021+9999MW1001REMMET100KSTJ 070553Z AUTO 17008KT 10SM CLR 18/10 A3016 RMK AO2 SLP208 T01780100 10244 20178 402560083 50002;EQDQ01+000000PRSWM2
0164724490999992000060914534+39770-094920FM-15+0249KSTJ V0202001N009312200019N0128741N1+02601+01701101221ADDGF100991999999999999999999MA1101291999999MD1310021+9999MW1001REMMET072KSTJ 091453Z 20018KT 8SM CLR 26/17 A2991 RMK AO2 SLP122 T02610172 53002;EQDQ01+000000PRSWM2
0190724490999992000061107534+39770-094920FM-15+0249KSTJ V0201801N003610063019N0160931N1+02301+02001101301ADDGD13991+0063099GD24991+0240099GF108991999999999999999999MA1101391999999MW1001REMMET082KSTJ 110753Z AUTO 18007KT 10SM BKN021 OVC085 23/20 A2994 RMK AO2 SLP130 T02280200;EQDQ01+000000PRSWM2
0248724490999992000062310534+39760-094920FM-15+0249KSTJ V0201801N002610150019N0064371N1+02301+02201101181ADDGD12991+0108099GD23991+0150099GD33991+0270099GF107991999999999999999999MA1101291999999MW1101REMMET109KSTJ 231053Z AUTO 18005KT 4SM BR FEW036 BKN050 BKN090 23/22 A2991 RMK AO2 LTG DSNT SW AND W SLP118 T02330222;EQDQ01+000003PRSWM1Q02    003PRSWM1
0260724490999992000062417534+39760-094920FM-15+0249KSTJ V0202701N003110066019N0160931N1+02401+02101100871ADDAA106002091GD12991+0048099GD23991+0066099GF107991999999999999999999KA1999M+02441KA2999N+02061MA1100951999999MD1010021+9999MW1001REMMET101KSTJ 241753Z 27006KT 10SM SCT016 BKN022 24/21 A2981 RMK AO2 SLP087 60008 T02440211 10244 20206 50002;EQDQ01+000000PRSWM2
0265724490999992000062517534+39760-094920FM-15+0249KSTJ V0201701N006712200019N0160931N1+03101+02401101121ADDGD12991+0084099GD22991+0102099GD32991+0123099GF104991999999999999999999KA1999M+03111KA2999N+02061MA1101221999999MD1810171+9999MW1001REMMET102KSTJ 251753Z 17013KT 10SM FEW028 SCT034 SCT041 31/24 A2989 RMK AO2 SLP112 T03110244 10311 20206 58017;EQDQ01+000000PRSWM2
0181724490999992000070118534+39760-094920FM-15+0249KSTJ V0201501N003612200019N0096561N1+02901+02201101241ADDGD12991+0075099GF104991999999999999999999MA1101321999999MW1051REMMET072KSTJ 011853Z 15007KT 6SM HZ SCT025 29/22 A2992 RMK AO2 SLP124 T02890222;EQDQ01+000003PRSWM1Q02    003PRSWM1
0184724490999992000070315534+39760-094920FM-15+0249KSTJ V0201601N002110072019N0128741N1+02801+02401101101ADDGD12991+0051099GD23991+0072099GF107991999999999999999999MA1101191999999MW1001REMMET076KSTJ 031553Z 16004KT 8SM SCT017 BKN024 28/24 A2988 RMK AO2 SLP110 T02830244;EQDQ01+000000PRSWM2
0226724490999992000070417534+39760-094920FM-15+0249KSTJ V0201901N005112200019N0160931N1+02501+02201101001ADDAA106013591GF100991999999999999999999KA1999M+02501KA2999N+02171MA1101081999999MD1810201+9999MW1001REMMET097KSTJ 041753Z 19010KT 10SM CLR 25/22 A2985 RMK AO2 TSE00 SLP100 60053 T02500217 10250 20217 58020;EQDQ01+000000PRSWM2
0162724490999992000070719534+39760-094920FM-15+0249KSTJ V0201901N005112200019N0144841N1+03201+02301101491ADDGD12991+0126099GF102991999999999999999999MA1101591999999MW1001REMMET069KSTJ 071953Z 19010KT 9SM FEW042 32/23 A3000 RMK AO2 SLP149 T03220233;EQDQ01+000000PRSWM2
0296724490999992000071311534+39760-094920FM-15+0249KSTJ V0209999C00001000151CN0004021N1+01901+01901101771ADDAA101000391AA206000391AA324000391GD15991+0001599GF109991999999000251999999KA1999M+02171KA2999N+01781MA1101831999999MD1310051+9999MW1451REMMET114KSTJ 131153Z AUTO 00000KT 1/4SM FG VV001 19/19 A3007 RMK AO2 SLP177 P0001 60001 70001 T01890189 10217 20178 53005;EQDQ01+000003PRSWM1Q02    003PRSWM1
0167724490999992000071710534+39760-094920FM-15+0249KSTJ V0203601N001510360019N0144841N1+02201+02101101311ADDGD14991+0360099GF108991999999999999999999MA1101391999999MW1001REMMET074KSTJ 171053Z AUTO 36003KT 9SM OVC120 22/21 A2994 RMK AO2 SLP131 T02170206;EQDQ01+000000PRSWM2
0162724490999992000072704534+39760-094920FM-15+0249KSTJ V0202101N002612200019N0160931N1+01701+01601101411ADDGF100991999999999999999999MA1101491999999MW1001REMMET084KSTJ 270453Z AUTO 21005KT 10SM CLR 17/16 A2997 RMK AO2 LTG DSNT SE SLP141 T01720156;EQDQ01+000000PRSWM2
0149724490999992000072810534+39760-094920FM-15+0249KSTJ V0202001N002112200019N0128741N1+02201+02001101291ADDGF100991999999999999999999MA1101391999999MW1001REMMET071KSTJ 281053Z AUTO 20004KT 8SM CLR 22/20 A2994 RMK AO2 SLP129 T02170200;EQDQ01+000000PRSWM2
0208724490999992000072819534+39760-094920FM-15+0249KSTJ V0209999C000010240019N0160931N1+02401+02101101371ADDAA101000021GD12991+0150099GD24991+0240099GF108991999999999999999999MA1101461999999MW1001REMMET089KSTJ 281953Z 00000KT 10SM SCT055 OVC080 24/21 A2996 RMK AO2 RAE45 SLP137 P0000 T02440206;EQDQ01+000000PRSWM2
0145724490999992000080815534+39760-094920FM-15+0249KSTJ V0202001N006212200019N0160931N1+03001+02201100881ADDGF100991999999999999999999MA1100981999999MW1001REMMET067KSTJ 081553Z 20012KT 10SM CLR 30/22 A2982 RMK AO2 SLP088 T03000222;EQDQ01+000000PRSWM2
0241724490999992000081916394+39760-094920FM-16+0249KSTJ V0201001N005110084019N0048281N1+01801+01701999999ADDGD13991+0084099GD23991+0180099GD34991+0270099GF108991999999999999999999MA1102031999999MW1611REMMET086KSTJ 191639Z 10010KT 3SM -RA BR BKN028 BKN060 OVC090 18/17 A3013 RMK AO2 PRESFR P0004;EQDQ01+000100PRSWM3Q02+000003PRSWM1Q03    003PRSWM1
0174724490999992000082600534+39760-094920FM-15+0249KSTJ V0201001N003612200019N0096561N1+02901+02201101011ADDGF100991999999999999999999MA1101081999999MW1051REMMET080KSTJ 260053Z AUTO 10007KT 6SM HZ CLR 29/22 A2985 RMK AO2 TSE06 SLP101 T02940222;EQDQ01+000003PRSWM1Q02    003PRSWM1
0150724490999992000082907534+39760-094920FM-15+0249KSTJ V0209999C000012200019N0160931N1+02201+01901101051ADDGF100991999999999999999999MA1101151999999MW1001REMMET072KSTJ 290753Z AUTO 00000KT 10SM CLR 22/19 A2987 RMK AO2 SLP105 T02170189;EQDQ01+000000PRSWM2
0203724490999992000083117534+39760-094920FM-15+0249KSTJ V0201701N003112200019N0160931N1+03401+02201100881ADDGF100991999999999999999999KA1999M+03441KA2999N+02221MA1100981999999MD1710011+9999MW1001REMMET085KSTJ 311753Z 17006KT 10SM CLR 34/22 A2982 RMK AO2 SLP088 T03390217 10344 20222 57001;EQDQ01+000000PRSWM2
0144724490999992000090221534+39760-094920FM-15+0249KSTJ V0201201N005712200019N0128741N1+03701+02101100771ADDGF100991999999999999999999MA1100881999999MW1001REMMET066KSTJ 022153Z 12011KT 8SM CLR 37/21 A2979 RMK AO2 SLP077 T03720211;EQDQ01+000000PRSWM2
0149724490999992000090900534+39760-094920FM-15+0249KSTJ V0201501N004612200019N0128741N1+02801+01701100951ADDGF100991999999999999999999MA1101021999999MW1001REMMET071KSTJ 090053Z AUTO 15009KT 8SM CLR 28/17 A2983 RMK AO2 SLP095 T02830172;EQDQ01+000000PRSWM2
0150724490999992000092200534+39760-094920FM-15+0249KSTJ V0201201N003612200019N0160931N1+01701+00501101071ADDGF100991999999999999999999MA1101081999999MW1001REMMET072KSTJ 220053Z AUTO 12007KT 10SM CLR 17/05 A2985 RMK AO2 SLP107 T01720050;EQDQ01+000000PRSWM2
0253724490999992000092318174+39760-094920FM-16+0249KSTJ V0200401N005710066019N0064371N1+01201+01201999999ADDGD12991+0024099GD23991+0066099GD34991+0138099GF108991999999999999999999MA1101461999999MW1611REMMET098KSTJ 231817Z 04011KT 4SM -RA BR FEW008 BKN022 OVC046 12/12 A2996 RMK AO2 LTG DSNT N-E TSE17 P0002;EQDQ01+000100PRSWM3Q02+000003PRSWM1Q03    003PRSWM1
0145724490999992000100115534+39760-094920FM-15+0249KSTJ V0202001N007712200019N0160931N1+02501+00901100621ADDGF100991999999999999999999MA1100711999999MW1001REMMET067KSTJ 011553Z 20015KT 10SM CLR 25/09 A2974 RMK AO2 SLP062 T02500094;EQDQ01+000000PRSWM2
0298724490999992000100523534+39760-094920FM-15+0249KSTJ V0203501N009810072019N0160931N1+01101+00801102161ADDAA106000391GD13991+0072099GD23991+0108099GD34991+0180099GF108991999999999999999999KA1999M+01331KA2999N+01111MA1102171999999MD1110311+9999MW1001OC101131REMMET116KSTJ 052353Z AUTO 35019G22KT 10SM BKN024 BKN036 OVC065 11/08 A3017 RMK AO2 SLP216 60001 T01110083 10133 20111 51031;EQDQ01+000000PRSWM2
0151724490999992000100613534+39760-094920FM-15+0249KSTJ V0203601N003612200019N0160931N1+00301-00301103181ADDGF100991999999999999999999MA1103151999999MW1001REMMET073KSTJ 061353Z AUTO 36007KT 10SM CLR 03/M03 A3046 RMK AO2 SLP318 T00331028;EQDQ01+000000PRSWM2
0222724490999992000100617534+39760-094920FM-15+0249KSTJ V0203601N004612200019N0160931N1+00901-00601103251ADDGD12991+0150099GF104991999999999999999999KA1999M+00941KA2999N+00111MA1103221999999MD1110051+9999MW1001REMMET089KSTJ 061753Z 36009KT 10SM SCT055 09/M06 A3048 RMK AO2 SLP325 T00891061 10094 20011 51005;EQDQ01+000000PRSWM2
0222724490999992000100717534+39760-094920FM-15+0249KSTJ V0203401N007210180019N0160931N1+00701-00701103841ADDGD14991+0180099GF108991999999999999999999KA1999M+00831KA2999N-00391MA1103791999999MD1810021+9999MW1001REMMET089KSTJ 071753Z 34014KT 10SM OVC065 07/M07 A3065 RMK AO2 SLP384 T00671067 10083 21039 58002;EQDQ01+000000PRSWM2
0160724490999992000100904534+39760-094920FM-15+0249KSTJ V0209999C000012200019N0128741N1-00301-00401103801ADDGF100991999999999999999999MA1103731999999MW1001REMMET082KSTJ 090453Z AUTO 00000KT 8SM CLR M03/M04 A3063 RMK AO2 SLP380 T10281044 FZRANO $;EQDQ01+000000PRSWM2
0145724490999992000101518534+39760-094920FM-15+0249KSTJ V0200701N002112200019N0160931N1+02201+01201101891ADDGF100991999999999999999999MA1101931999999MW1001REMMET067KSTJ 151853Z 07004KT 10SM CLR 22/12 A3010 RMK AO2 SLP189 T02220122;EQDQ01+000000PRSWM2
0188724490999992000101608534+39760-094920FM-15+0249KSTJ V0200701N002612200019N0160931N1+01401+00801101981ADDGD12991+0360099GF104991999999999999999999MA1102031999999MD1810031+9999MW1001REMMET081KSTJ 160853Z AUTO 07005KT 10SM SCT120 14/08 A3013 RMK AO2 SLP198 T01390083 58003;EQDQ01+000000PRSWM2
0168724490999992000101612534+39760-094920FM-15+0249KSTJ V0200901N002110300019N0160931N1+01301+00801102071ADDGD13991+0300099GF107991999999999999999999MA1102071999999MW1001REMMET075KSTJ 161253Z AUTO 09004KT 10SM BKN100 13/08 A3014 RMK AO2 SLP207 T01280078;EQDQ01+000000PRSWM2
0246724490999992000102215534+39760-094920FM-15+0249KSTJ V0201301N006210150019N0040231N1+01701+01501102241ADDAA101000391GD12991+0039099GD22991+0126099GD34991+0150099GF108991999999999999999999MA1102271999999MW1101REMMET096KSTJ 221553Z 13012KT 2 1/2SM BR FEW013 SCT042 OVC050 17/15 A3020 RMK AO2 SLP224 P0001 T01670150;EQDQ01+000003PRSWM1Q02    003PRSWM1
0152724490999992000110209534+39760-094920FM-15+0249KSTJ V0209999C000012200019N0160931N1+00901+00401101431ADDGF100991999999999999999999MA1101461999999MW1001REMMET074KSTJ 020953Z AUTO 00000KT 10SM CLR 09/04 A2996 RMK AO2 SLP143 T00890039 $;EQDQ01+000000PRSWM2
0173724490999992000110515534+39760-094920FM-15+0249KSTJ V0201601N004610039019N0144841N1+01301+01201100821ADDGD14991+0039099GF108991999999999999999999MA1100811999999MW1001OC100931REMMET072KSTJ 051553Z 16009G18KT 9SM OVC013 13/12 A2977 RMK AO2 SLP082 T01280117;EQDQ01+000000PRSWM2
0188724490999992000110521534+39760-094920FM-15+0249KSTJ V0201701N007710063019N0080001N1+01501+01301100241ADDAA101000391GD14991+0063099GF108991999999999999999999MA1100271999999MW1001REMMET084KSTJ 052153Z 17015KT 8M -RA OVC021 15/13 A2961 RMK AO2 RAB13 SLP024 P0001 T01500128;EQDQ01+000000PRSWM2
0152724490999992000110804534+39760-094920FM-15+0249KSTJ V0202301N003112200019N0160931N1-00101-00401101811ADDGF100991999999999999999999MA1101731999999MW1001REMMET074KSTJ 080453Z AUTO 23006KT 10SM CLR M01/M04 A3004 RMK AO2 SLP181 T10061044;EQDQ01+000000PRSWM2
0182724490999992000111118534+39760-094920FM-15+0249KSTJ V0200901N004110015019N0064371N1+00101-00101102091ADDGD14991+0015099GF108991999999999999999999MA1102001999999MW1101REMMET073KSTJ 111853Z 09008KT 4SM BR OVC005 01/M01 A3012 RMK AO2 SLP209 T00061011;EQDQ01+000003PRSWM1Q02    003PRSWM1
0165724490999992000111318534+39760-094920FM-15+0249KSTJ V0202701N007710084019N0160931N1-00101-00801101831ADDGD14991+0084099GF108991999999999999999999MA1101761999999MW1001REMMET072KSTJ 131853Z 27015KT 10SM OVC028 M01/M08 A3005 RMK AO2 SLP183 T10111078;EQDQ01+000000PRSWM2
0146724490999992000111421534+39760-094920FM-15+0249KSTJ V0202801N005112200019N0160931N1+00401-00701102171ADDGF100991999999999999999999MA1102101999999MW1001REMMET068KSTJ 142153Z 28010KT 10SM CLR 04/M07 A3015 RMK AO2 SLP217 T00441072;EQDQ01+000000PRSWM2
0202724490999992000111603534+39760-094920FM-15+0249KSTJ V0202101N009310300019N0160931N1+00901-00201100301ADDGD12991+0129099GD24991+0300099GF108991999999999999999999MA1100271999999MW1001OC101231REMMET086KSTJ 160353Z AUTO 21018G24KT 10SM FEW043 OVC100 09/M02 A2961 RMK AO2 SLP030 T00891022;EQDQ01+000000PRSWM2
0189724490999992000111608534+39760-094920FM-15+0249KSTJ V0203001N007212200019N0160931N1+00001-00501100881ADDGD12991+0069099GF102991999999999999999999MA1100851999999MD1310301+9999MW1001REMMET082KSTJ 160853Z AUTO 30014KT 10SM FEW023 00/M05 A2978 RMK AO2 SLP088 T00001050 53030;EQDQ01+000000PRSWM2
0130724490999992000111815534+39760-094920FM-16+0249KSTJ V0203001N004112200019N0160931N1+99999+99999999999ADDGF100991999999999999999999MA1102441999999MW1001REMMET052KSTJ 181553Z 30008KT 10SM CLR A3025 RMK AO2 SLPNO $;EQDQ01+000000PRSWM2
0193724490999992000112018534+39760-094920FM-15+0249KSTJ V0203201N008710141019N0160931N1-00201-01301999999ADDGD14991+0141099GF108991999999999999999999MA1103121999999MW1001OC101291REMMET092KSTJ 201853Z 32017G25KT 10SM OVC047 M02/M13 A3045 RMK AO2 PK WND 31028/1832 SLPNO T10171133;EQDQ01+000000PRSWM2
0208724490999992000112323534+39760-094920FM-15+0249KSTJ V0200101N003112200019N0160931N1+00001-00601999999ADDGF100991999999999999999999KA1999M+01111KA2999N+00001MA1102001999999MD1310081+9999MW1001REMMET090KSTJ 232353Z AUTO 01006KT 10SM CLR 00/M06 A3012 RMK AO2 SLPNO T00001056 10111 20000 53008;EQDQ01+000000PRSWM2
0171724490999992000112402534+39760-094920FM-15+0249KSTJ V0203101N001512200019N0160931N1-00201-00701999999ADDGF100991999999999999999999MA1102071999999MD1010071+9999MW1001REMMET079KSTJ 240253Z AUTO 31003KT 10SM CLR M02/M07 A3014 RMK AO2 SLPNO T10221067 50007;EQDQ01+000000PRSWM2
0166724490999992000120320534+39760-094920FM-15+0249KSTJ V0201701N006212200019N0160931N1+00301-00701102981ADDGF100991999999999999999999MA1102881999999MD1610361+9999MW1001REMMET074KSTJ 032053Z 17012KT 10SM CLR 03/M07 A3038 RMK AO2 SLP298 T00331072 56036;EQDQ01+000000PRSWM2
0168724490999992000121000534+39760-094920FM-15+0249KSTJ V0201701N003112200019N0112651N1+00101-00101101461ADDGD12991+0108099GF104991999999999999999999MA1101391999999MW1001REMMET075KSTJ 100053Z AUTO 17006KT 7SM SCT036 01/M01 A2994 RMK AO2 SLP146 T00111011;EQDQ01+000000PRSWM2
0248724490999992000121217534+39760-094920FM-15+0249KSTJ V0209999C000012200019N0160931N1-01501-02101103691ADDAA101000021AA206000021GF100991999999999999999999KA1999M-01501KA2999N-01891MA1103491999999MD1810221+9999MW1001REMMET108KSTJ 121753Z 00000KT 10SM CLR M15/M21 A3056 RMK AO2 UPB12E21 SLP369 P0000 60000 T11501206 11150 21189 58022;EQDQ01+000000PRSWM2
0154724490999992000121519074+39760-094920FM-16+0249KSTJ V0201301N004610018019N0024141N1+99999+99999999999ADDGD14991+0018099GF108991999999999999999999MA1101221999999MW1001MW2101REMMET055KSTJ 151907Z 13009KT 1 1/2SM BR OVC006 A2989 RMK AO2 $;EQDQ01+000003PRSWM1
0152724490999992000122003534+39760-094920FM-15+0249KSTJ V0201701N004112200019N0160931N1-01401-01801102141ADDGF100991999999999999999999MA1101961999999MW1001REMMET074KSTJ 200353Z AUTO 17008KT 10SM CLR M14/M18 A3011 RMK AO2 SLP214 T11441183;EQDQ01+000000PRSWM2
0147724490999992000123119534+39760-094920FM-15+0249KSTJ V0203101N004112200019N0160931N1-01201-01701103091ADDGF100991999999999999999999MA1102911999999MW1001REMMET069KSTJ 311953Z 31008KT 10SM CLR M12/M17 A3039 RMK AO2 SLP309 T11221172;EQDQ01+000000PRSWM2
0242724500039282000010319334+37650-097430FM-16+0408KICT V0203601N007710084019N0040231N1+00101-00101999999ADDGD12991+0027019GD24991+0084019GF108991999999999999999999MA1100911999999MW1711OC100981REMMET094KICT 031933Z 36015G19KT 2 1/2SM -SN BR SCT009 OVC028 01/M01 A2980 RMK AO2 UPB18E21SNB21 P0000;EQDQ01+000100PRSWM3Q02+000003PRSWM1Q03    003PRSWM1
0203724500039282000010322204+37650-097430FM-15+0408KICT V0203501N007210018019N0016091N1+00001-00101999999ADDGD13991+0018019GD24991+0036019GF108991999999999999999999MA1101291999999MW1101MW2711REMMET073KICT 032220Z 35014KT 1SM -SN BR BKN006 OVC012 00/M01 A2991 RMK AO2 RVRNO;EQDQ01+000003PRSWM1Q02    003PRSWM1
0173724500039282000010910104+37650-097430FM-16+0408KICT V0201701N00261000151CN0004021N1+00101+00001999999ADDGD15991+0001519GF109991999999000251999999MA1100611999999MW1451REMMET064KICT 091010Z 17005KT 1/4SM FG VV001 01/00 A2971 RMK AO2 RVRNO $;EQDQ01+000003PRSWM1Q02    003PRSWM1
0411724500039282000011717003+37650-097433FM-15+0402ICT  V0203605N00465003665MN0064005N1+00335+00005102325ADDAA101000095GD14995+0036659GF108991999999999999999999GP10060009202008000002015009202008GQ100600660914689GR100600575914149MA1102275999999MW1055REMMET072KICT 171656Z 36009KT 4SM HZ OVC012 03/00 A3020 RMK AO2 SLP232 T00330000;EQDQ01+000003PRSWM1Q02    003PRSWM1N01 00081JPWTH 0QNNAA1D0 06012BA1 0 06012GA1 0 00012KA1D0 00032JA1 0 00000LA1 0 00400CA1 0 03020NA1 0 00081QA1 0 10232SA1D0 00038RA1 0 00033YA1 0 36009
0447724500039282000011804003+37650-097433FM-15+0402ICT  V0203205N00265076205MN0096005N1+00175-00065102335ADDAA101000095GD12995+0457259GD24995+0762059GF108991999999999999999999GP10060000002000000002000000002000GR100600000900009MA1102245999999MW1101MW2455REMMET082KICT 180356Z 32005KT 6SM BR SCT150 OVC250 02/M01 A3019 RMK AO2 SLP233 T00171006 $;EQDQ01+000003PRSWM1Q02    003PRSWM1N01 00070JPWTH 0QNNAA1D0 02150BA1 0 02150AA1D0 06250BA1 0 06250GA1 0 00250KA1D0 00031JA1 0-00006LA1 0 00600CA1 0 03019NA1 0 00070QA1 0 10233SA1D0 00035RA1 0 00017YA1 0 32005
0411724500039282000011817003+37650-097433FM-15+0402ICT  V0200205N00365045725MN0064005N1+00395+00065102515ADDAA101000095GD14995+0457259GF108991999999999999999999GP10060021702008007402015018702008GQ100600658914669GR100600578914139MA1102445999999MW1055REMMET072KICT 181656Z 02007KT 4SM HZ OVC150 04/01 A3025 RMK AO2 SLP251 T00390006;EQDQ01+000003PRSWM1Q02    003PRSWM1N01 00081JPWTH 0QNNAA1D0 06150BA1 0 06150GA1 0 00150KA1D0 00033JA1 0 00006LA1 0 00400CA1 0 03025NA1 0 00081QA1 0 10251SA1D0 00039RA1 0 00039YA1 0 02007
0218724500039282000012709374+37650-097430FM-16+0408KICT V0200801N004610063019N0040231N1-00501-00701999999ADDGD13991+0063019GD24991+0108019GF108991999999999999999999MA1102471999999MW1711REMMET078KICT 270937Z 08009KT 2 1/2SM -SN BR BKN021 OVC036 M05/M07 A3026 RMK AO2 P0000;EQDQ01+000100PRSWM3Q02+000003PRSWM1Q03    003PRSWM1
0457724500039282000013017003+37650-097433FM-15+0402ICT  V0200105N00215009145MN0064005N1-00285-00675103075ADDAA101000095GD11995+0042759GD23995+0091459GF107991999999999999999999GP10060018302008000602015018102008GQ100600636914449GR100600625914109MA1102915999999MW1055REMMET081KICT 301656Z 01004KT 4SM HZ FEW014 BKN030 M03/M07 A3039 RMK AO2 SLP307 T10281067;EQDQ01+000003PRSWM1Q02    003PRSWM1N01 00081JPWTH 0QNNAA1D0 02014BA1 0 01014AA1D0 04030BA1 0 04030GA1 0 00030KA1D0 00020JA1 0-00067LA1 0 00400CA1 0 03039NA1 0 00081QA1 0 10307SA1D0 00027RA1 0-00028YA1 0 01004
0412724500039282000013111003+37650-097433FM-15+0402ICT  V0209999C00005220005MN0048005N1-01115-01225102675ADDAA101000095GD11995+0762059GF102991999999999999999999GP10060000002000000002000000002000GR100600000900009MA1102475999999MW1101MW2455REMMET084KICT 311056Z 00000KT 3SM BR FEW250 M11/M12 A3026 RMK AO2 TWR VIS 4 SLP267 T11111122;EQDQ01+000003PRSWM1Q02    003PRSWM1N01 00070JPWTH 0QNNAA1D0 02250BA1 0 01250GA1U0 99999KA1D0 00010JA1 0-00122LA1 0 00300CA1 0 03026NA1 0 00070QA1 0 10267SA1D0 00012RA1 0-00111YA1 0 00000
0465724500039282000020518003+37650-097433SY-MT+0402ICT  V0201805N00775220005MN0160005N1+00335-00395103015ADDAA101000095GD12995+0609659GF104991999999999999999999GP10060058102008085402015010802008GQ100600565915879GR100600777914079KA1120M+00391KA2240N-00671MA1102915098041MD1810161+9999REMSYN092AAXX  05184 72450 32966 41815 10033 21039 39804 40301 58016 91756 333 10039 21067 555 90518;EQDQ01  00002PRCP99Q02  00003PRCP99N01 00000JPWTH 0QNNAA1D0 02200BA1 0 02200GA1U0 99999KA1D0 00025JA1 0-00039LA1 0 01000CA1 0 03039NA1 0 00000QA1 0 10301SA1D0 00038RA1 0 00033YA1 0 18015
0358724500039282000020704003+37650-097433FM-15+0402ICT  V0201905N00215220005MN0112005N1+00115-00065102475ADDAA101000095GF100991999999999999999999GP10060000002000000002000000002000GR100600000900009MA1102375999999MW1001REMMET067KICT 070356Z 19004KT 7SM CLR 01/M01 A3023 RMK AO2 SLP247 T00111006;EQDQ01+000000PRSWM2N01 00000JPWTH 0QNNAA1D0 00000BA1 0 00000GA1U0 99999KA1D0 00031JA1 0-00006LA1 0 00700CA1 0 03023NA1 0 00000QA1 0 10247SA1D0 00034RA1 0 00011YA1 0 19004
0360724500039282000020811003+37650-097433FM-15+0402ICT  V0203105N00215220005MN0160005N1-00395-00615102995ADDAA101000095GF100991999999999999999999GP10060000002000000002000000002000GR100600000900009MA1102915999999MW1001REMMET069KICT 081056Z 31004KT 10SM CLR M04/M06 A3039 RMK AO2 SLP299 T10391061;EQDQ01+000000PRSWM2N01 00000JPWTH 0QNNAA1D0 00000BA1 0 00000GA1U0 99999KA1D0 00021JA1 0-00061LA1 0 01000CA1 0 03039NA1 0 00000QA1 0 10299SA1D0 00025RA1 0-00039YA1 0 31004
0377724500039282000021013003+37650-097433FM-15+0402ICT  V0209999C00005060965MN0160005N1+00225-00225100685ADDAA101000095GD13995+0609659GF107991999999999999999999GP10060000002000000002000000002000GR100600000900009MA1100685999999MW1001REMMET071KICT 101256Z 00000KT 10SM BKN200 02/M02 A2973 RMK AO2 SLP068 T00221022;EQDQ01+000000PRSWM2N01 00000JPWTH 0QNNAA1D0 04200BA1 0 04200GA1 0 00200KA1D0 00028JA1 0-00022LA1 0 01000CA1 0 02973NA1 0 00000QA1 0 10068SA1D0 00036RA1 0 00022YA1 0 00000
0285724500039282000021802404+37650-097430FM-16+0408KICT V0200201N005110012019N0028161N1+00501+00501999999ADDGA1999+001201091GD14991+0012019GF108991999999999999999999MA1100641999999MW1971REMMET144KICT 180240Z 02010KT 1SM +TSRA BR OVC004CB 05/05 A2972 RMK AO2 WSHFT 0213 TWR VIS 1 3/4 TSB29GSB35E38 PRESFR LTG TS VC SW-NW MOV NE P0046 RVRNO;EQDQ01+000820PRSWM3Q02+000100PRSWM4Q03+000003PRSWM1
0497724500039282000021809003+37650-097433FM-15+0402ICT  V0203505N00625001835MN0096005N1+00285+00225101055ADDAA101000025AA203000021GD14995+0018359GF108991999999999999999999GP10060000002000000002000000002000GR100600000900009MA1101025999999MD1310311+9999MW1101MW2455MW3615OC100981REMMET130KICT 180856Z 35012G19KT 6SM -RA BR OVC006 03/02 A2983 RMK AO2 RAE0758B15SNB0758E15 CIG 005V009 SLP105 P0000 60000 T00280022 53031;EQDQ01+000003PRSWM1Q02    003PRSWM1N01 02070JPWTH 0QNNAA1D0 06006BA1 0 06006GA1 0 00006KA1D0 00036JA1 0 00022LA1 0 00600CA1 0 02983NA1 0 02070QA1 0 10105SA1D0 00037RA1 0 00028YA1 0 35012
0393724500039282000030116003+37650-097433FM-15+0402ICT  V0200305N00415076205MN0160005N1+01005+00285102555ADDAA101000095GD13995+0762059GF107991999999999999999999GP10060044102008074302015010802008GQ100600634912469GR100600622913929MA1102545999999MW1001REMMET070KICT 011556Z 03008KT 10SM BKN250 10/03 A3028 RMK AO2 SLP255 T01000028;EQDQ01+000000PRSWM2N01 00000JPWTH 0QNNAA1D0 04250BA1 0 04250GA1 0 00250KA1D0 00037JA1 0 00028LA1 0 01000CA1 0 03028NA1 0 00000QA1 0 10255SA1D0 00050RA1 0 00100YA1 0 03008
0374724500039282000030514003+37650-097433FM-15+0402ICT  V0201805N00675220005MN0144005N1+00615+00285101445ADDAA101000095GF100991999999999999999999GP10060008402008022702015006002008GQ100600838910219GR100600149913899MA1101425999999MW1001REMMET066KICT 051356Z 18013KT 9SM CLR 06/03 A2995 RMK AO2 SLP144 T00610028;EQDQ01+000000PRSWM2N01 00000JPWTH 0QNNAA1D0 00000BA1 0 00000GA1U0 99999KA1D0 00037JA1 0 00028LA1 0 00900CA1 0 02995NA1 0 00000QA1 0 10144SA1D0 00043RA1 0 00061YA1 0 18013
0396724500039282000030603003+37650-097433FM-15+0402ICT  V0201505N00575013115MN0160005N1+01445+00725101095ADDAA101000095GD14995+0131159GF108991999999999999999999GP10060000002000000002000000002000GR100600000900009MA1101125999999MD1110101+9999MW1001REMMET076KICT 060256Z 15011KT 10SM OVC043 14/07 A2986 RMK AO2 SLP109 T01440072 51010;EQDQ01+000000PRSWM2N01 00000JPWTH 0QNNAA1D0 06043BA1 0 06043GA1 0 00043KA1D0 00045JA1 0 00072LA1 0 01000CA1 0 02986NA1 0 00000QA1 0 10109SA1D0 00058RA1 0 00144YA1 0 15011
0502724500039282000031400003+37650-097433SY-MT+0402ICT  V0201105N00315060965MN0160005N1+01285+00445101915ADDAA101000095GD12995+0304859GD24995+0609659GF108991999999999999999999GP10060007902008001602015007602008GQ100600779925729GR100600289913839KA1120M+01561KA2180N+00281MA1101865097031MD1610131+9999REMSYN092AAXX  14004 72450 32966 81106 10128 20044 39703 40191 56013 92356 333 10156 20028 555 91400;EQDQ01  00002PRCP99Q02  00003PRCP99N01 00000JPWTH 0QNNAA1D0 02100BA1 0 02100AA1D0 06200BA1 0 06200GA1 0 00200KA1D0 00040JA1 0 00044LA1 0 01000CA1 0 03008NA1 0 00000QA1 0 10191SA1D0 00055RA1 0 00128YA1 0 11006
0190724500039282000031511444+37650-097430FM-16+0408KICT V0201801N00461000601CN0028161N1+01101+01001999999ADDGD14991+0012019GF108991999999999999999999MA1101151999999MW1101REMMET081KICT 151144Z 18009KT 1 3/4SM BR OVC004 11/10 A2987 RMK AO2 TWR VIS 2 CIG 002V006;EQDQ01+000003PRSWM1Q02    003PRSWM1
0214724500039282000031617594+37650-097430FM-16+0408KICT V0200201N004110039019N0128741N1-00301-00401999999ADDGD13991+0039019GD24991+0054019GF108991999999999999999999MA1102341999999MW1791REMMET074KICT 161759Z 02008KT 8SM -PL BR BKN013 OVC018 M03/M04 A3022 RMK AO2 P0000;EQDQ01+000100PRSWM3Q02+000003PRSWM1Q03    003PRSWM1
0164724500039282000031809124+37650-097430FM-16+0408KICT V0201401N003610006019N0032181N1+00401+00401999999ADDGD14991+0006019GF108991999999999999999999MA1101561999999MW1101REMMET055KICT 180912Z 14007KT 2SM BR OVC002 04/04 A2999 RMK AO2;EQDQ01+000003PRSWM1Q02    003PRSWM1
0376724500039282000032107003+37650-097433FM-15+0402ICT  V0200805N00575045725MN0160005N1+00785+00505101535ADDAA101000095GD13995+0457259GF107991999999999999999999GP10060000002000000002000000002000GR100600000900009MA1101525999999MW1001REMMET070KICT 210656Z 08011KT 10SM BKN150 08/05 A2998 RMK AO2 SLP153 T00780050;EQDQ01+000000PRSWM2N01 00000JPWTH 0QNNAA1D0 04150BA1 0 04150GA1 0 00150KA1D0 00041JA1 0 00050LA1 0 01000CA1 0 02998NA1 0 00000QA1 0 10153SA1D0 00046RA1 0 00078YA1 0 08011
0376724500039282000032208003+37650-097433FM-15+0402ICT  V0202005N00215011585MN0160005N1+01065+00785102385ADDAA101000095GD14995+0115859GF108991999999999999999999GP10060000002000000002000000002000GR100600000900009MA1102405999999MW1001REMMET070KICT 220756Z 20004KT 10SM OVC038 11/08 A3024 RMK AO2 SLP238 T01060078;EQDQ01+000000PRSWM2N01 00000JPWTH 0QNNAA1D0 06038BA1 0 06038GA1 0 00038KA1D0 00046JA1 0 00078LA1 0 01000CA1 0 03024NA1 0 00000QA1 0 10238SA1D0 00051RA1 0 00106YA1 0 20004
0448724500039282000032506003+37650-097433SY-MT+0402ICT  V0200105N00465220005MN0160005N1+01285+00835101705ADDAA101000095GD11995+0609659GF102991999999999999999999GP10060000002000000002000000002000GR100600000900009KA1240M+02001KA2240N+00561MA1101765096931MD1010051+9999REMSYN092AAXX  25064 72450 32966 20109 10128 20083 39693 40170 50005 90556 333 10200 20056 555 92506;EQDQ01  00002PRCP99Q02  00003PRCP99N01 00000JPWTH 0QNNAA1D0 02200BA1 0 01200GA1U0 99999KA1D0 00047JA1 0 00083LA1 0 01000CA1 0 03005NA1 0 00000QA1 0 10170SA1D0 00055RA1 0 00128YA1 0 01009
0225724500039282000032923304+37650-097430FM-15+0408KICT V0200101N00461001801CN0064371N1+00601+00601999999ADDAA101000591GD13991+0024019GD24991+0045019GF108991999999999999999999MA1101191999999MW1101MW2611REMMET084KICT 292330Z 01009KT 4SM -RA BR BKN008 OVC015 06/06 A2988 RMK AO2 CIG 006V010 P0002;EQDQ01+000003PRSWM1Q02    003PRSWM1
0400724500039282000040605003+37650-097433FM-15+0402ICT  V0200605N00885220005MN0160005N1+02065+00675100565ADDAA101000095GD11995+0243859GF199999999999999999999999GP10060000002000000002000000002000GR100600000900009MA1100685999999MW1001REMMET078KICT 060356Z 04015KT 10SM CLR 21/08 A2971 RMK AO2 WSHFT 0246 SLP049 T02110078;EQDQ01+000000PRSWM2Q02    003SCOTCVN01 00000JPWTH 0QNNAA1D0 02080BA1 0 01080GA1U0 99999KA1D0 00044JA1 0 00067LA1 0 01000CA1 0 02973NA1 0 00000QA1 0 10056SA1D0 00069RA1 0 00206YA1 0 06017
0239724500039282000041423564+37650-097430FM-15+0408KICT V0201701N010312200019N0160931N1+02201+01301100601ADDGD12991+0600019GF102991999999999999999999KA1999M+02331KA2999N+01941MA1100641999999MD1610141+9999MW1001REMMET106KICT 142356Z 17020KT 10SM FEW200 22/13 A2972 RMK AO2 PK WND 17027/2314 SLP060 T02170133 10233 20194 56014;EQDQ01+000000PRSWM2
0216724500039282000041510294+37650-097430FM-16+0408KICT V0201401N005710009019N0024141N1+01301+01301999999ADDGD13991+0009019GD24991+0027019GF108991999999999999999999MA1100881999999MW1611REMMET076KICT 151029Z 14011KT 1 1/2SM -RA BR BKN003 OVC009 13/13 A2979 RMK AO2 P0000;EQDQ01+000100PRSWM3Q02+000003PRSWM1Q03    003PRSWM1
