0205037150999992000120406504+51400-003340FM-15+0067EGFF V0201801N008210105019N0112651N1+01201+01101999999ADDGA1021+004209999GA2021+006009999GA3071+010509999GF107991999999999999999999MA1099191999999MW1611REMMET063EGFF 040650Z 18016KT 9999 -RA FEW014 SCT020 BKN035 12/11 Q0992;EQDQ01+000003PRSWM1Q02    003PRSWM1
0162037150999992000120620504+51400-003340FM-15+0067EGFF V02099999999990150019N0112651N1+00901+00801999999ADDGA1021+006609999GA2071+015009999GF107991999999999999999999MA1100101999999MW1001REMMET052EGFF 062050Z VRB03KT 9999 SCT022 BKN050 09/08 Q1001;EQDQ01+000000PRSWM2
0139037150999992000120821504+51400-003340FM-15+0067EGFF V0202301N005112200019N0112651N1+00901+00701999999ADDGA1021+009009999GF104991999999999999999999MA1099591999999MW1001REMMET045EGFF 082150Z 23010KT 9999 SCT030 09/07 Q0996;EQDQ01+000000PRSWM2
0170037150999992000121023504+51400-003340FM-15+0067EGFF V0202301N007710135019N0112651N1+01301+01001999999ADDGA1071+013509999GF107991999999999999999999MA1100711999999MW1611OC101291REMMET052EGFF 102350Z 23015G25KT 9999 -RA BKN045 13/10 Q1007;EQDQ01+000003PRSWM1Q02    003PRSWM1
0139037150999992000121406504+51400-003340FM-15+0067EGFF V0202401N005112200019N0112651N1+00701+00501999999ADDGA1021+009009999GF102991999999999999999999MA1100311999999MW1001REMMET045EGFF 140650Z 24010KT 9999 FEW030 07/05 Q1003;EQDQ01+000000PRSWM2
0162037150999992000121714504+51400-003340FM-15+0067EGFF V0201201N004610450019N0112651N1+00501+00401999999ADDGA1021+004509999GA2071+045009999GF107991999999999999999999MA1101021999999MW1001REMMET052EGFF 171450Z 12009KT 9999 FEW015 BKN150 05/04 Q1010;EQDQ01+000000PRSWM2
0140037150999992000122609504+51400-003340FM-15+0067EGFF V0200701N006712200019N0112651N1+00001-00301999999ADDGA1021+008409999GF102991999999999999999999MA1099291999999MW1001REMMET046EGFF 260950Z 07013KT 9999 FEW028 00/M03 Q0993;EQDQ01+000000PRSWM2
0141037155999992000011315504+51400-003430FM-15+0050EGDX V0203101N001512200019N0112651N1+00501+00101999999ADDGA1021+009009999GF102991999999999999999999MA1101691999999MW1001REMMET047EGDX 1550Z 31003KT 9999 FEW030 05/01 Q1017 BLU;EQDQ01+000000PRSWM2
0198037155999992000020810504+51400-003430FM-15+0050EGDX V0202701N012910240019N0070001N1+01101+00801999999ADDGA1021+003609999GA2021+013509999GA3071+024009999GF107991999999999999999999MA1100311999999MW1001OC101801REMMET064EGDX 1050Z 27025G35KT 7000 FEW012 SCT045 BKN080 11/08 Q1003 WHT;EQDQ01+000000PRSWM2
0093037155999992000020812504+51400-003430FM-15+0050EGDX V0202801N01231220001CN0099001N1+01001+00501999999ADDMA1100511999999MW1001REMMET041EGDX 1250Z 28024KT CAVOK 10/05 Q1005 BLU;EQDQ01+000000PRSWM2
0093037155999992000021211504+51400-003430FM-15+0050EGDX V0202701N01181220001CN0099001N1+00801+00401999999ADDMA1101691999999MW1001REMMET041EGDX 1150Z 27023KT CAVOK 08/04 Q1017 BLU;EQDQ01+000000PRSWM2
0187037155999992000022812504+51400-003430FM-15+0050EGDX V0202501N009810150019N0112651N1+00901+00601999999ADDGA1021+007209099GA2071+015009999GF107991999999999999999999MA1101081999999MW1811REMMET061EGDX 1250Z 25019KT 9999 SHRA FEW024CB BKN050 09/06 Q1011 BLU;EQDQ01+000003PRSWM1Q02    003PRSWM1
0160037155999992000031310504+51400-003430FM-15+0050EGDX V0202801N005110012019N0045001N1+00901+00801999999ADDGA1081+001209999GF108991999999999999999999MA1102911999999MW1101REMMET050EGDX 1050Z 28010KT 4500 BR OVC004 09/08 Q1029 YLO;EQDQ01+000003PRSWM1Q02    003PRSWM1
0141037155999992000031714504+51400-003430FM-15+0050EGDX V0202801N004610090019N0112651N1+00901+00601999999ADDGA1081+009009999GF108991999999999999999999MA1103491999999MW1001REMMET047EGDX 1450Z 28009KT 9999 OVC030 09/06 Q1035 BLU;EQDQ01+000000PRSWM2
0164037155999992000041310504+51400-003430FM-15+0050EGDX V0203301N003610210019N0112651N1+00801+00201999999ADDGA1021+009609999GA2071+021009999GF107991999999999999999999MA1099391999999MW1001REMMET054EGDX 1050Z 33007KT 9999 FEW032 BKN070 08/02 Q0994 BLU;EQDQ01+000000PRSWM2
0162037155999992000051010504+51400-003430FM-15+0050EGDX V0200601N006712200019N0030001N1+02001+01701999999ADDGA1021+004509999GF104991999999999999999999MA1101691999999MW1101REMMET052EGDX 101050Z 06013KT 3000 BR SCT015 20/17 Q1017 YLO;EQDQ01+000003PRSWM1Q02    003PRSWM1
0185037155999992000070408504+51400-003430FM-15+0050EGDX V0200901N003610105019N0025001N1+01601+01501999999ADDGA1021+007509999GA2081+010509999GF108991999999999999999999MA1100711999999MW1531REMMET059EGDX 040850Z 09007KT 2500 DZ SCT025 OVC035 16/15 Q1007 YLO;EQDQ01+000003PRSWM1Q02    003PRSWM1
0143037155999992000070706504+51400-003430FM-15+0050EGDX V0200401N006710030019N0112651N1+01401+01201999999ADDGA1081+003009999GF108991999999999999999999MA1101801999999MW1001REMMET049EGDX 070650Z 04013KT 9999 OVC010 14/12 Q1018 GRN;EQDQ01+000000PRSWM2
0189037155999992000081413504+51400-003430FM-15+0050EGDX V0202601N005110039019N0112651N1+01901+01701999999ADDGA1021+002109999GA2071+003909999GA3071+024009999GF107991999999999999999999MA1101491999999MW1001REMMET063EGDX 141350Z 26010KT 9999 SCT007 BKN013 BKN080 19/17 Q1015 GRN;EQDQ01+000000PRSWM2
0095037155999992000083110504+51400-003430FM-15+0050EGDX V0201901N00571220001CN0099001N1+01901+01301999999ADDMA1100911999999MW1001REMMET043EGDX 311050Z 19011KT CAVOK 19/13 Q1009 BLU;EQDQ01+000000PRSWM2
0166037155999992000090112504+51400-003430FM-15+0050EGDX V0202501N006210135019N0112651N1+01701+01401999999ADDGA1021+004809999GA2071+013509999GF107991999999999999999999MA1100001999999MW1001REMMET056EGDX 011250Z 25012KT 9999 SCT016 BKN045 17/14 Q1000 WHT;EQDQ01+000000PRSWM2
0143037155999992000092610504+51400-003430FM-15+0050EGDX V0201701N005110066019N0112651N1+01801+01601999999ADDGA1071+006609999GF107991999999999999999999MA1100911999999MW1001REMMET049EGDX 261050Z 17010KT 9999 BKN022 18/16 Q1009 WHT;EQDQ01+000000PRSWM2
0168037155999992000092912504+51400-003430FM-15+0050EGDX V0201401N004610141019N0112651N1+01701+01201999999ADDGA1021+007809099GA2071+014109999GF107991999999999999999999MA1099391999999MW1001REMMET058EGDX 291250Z 14009KT 9999 SCT026CB BKN047 17/12 Q0994 BLU;EQDQ01+000000PRSWM2
0168037155999992000101114504+51400-003430FM-15+0050EGDX V0202401N002110090019N0112651N1+01001+00801999999ADDGA1021+004209099GA2071+009009999GF107991999999999999999999MA1097191999999MW1001REMMET058EGDX 111450Z 24004KT 9999 SCT014CB BKN030 10/08 Q0972 GRN;EQDQ01+000000PRSWM2
0095037155999992000110609504+51400-003430FM-15+0050EGDX V0200101N00261220001CN0099001N1+00601+00501999999ADDMA1097091999999MW1001REMMET043EGDX 060950Z 01005KT CAVOK 06/05 Q0971 BLU;EQDQ01+000000PRSWM2
0187037170999992000010506004+51480-003180FM-12+000999999V0202001N006710105019N0400001N1+00631+00291101371ADDAA106000091GA1071+010509059GF108991071051012501031999KA1120N+00451MD1810231+9999REMSYN076AAXX  05064 03717 32682 82013 10063 20029 40137 58023 8753/ 333 20045 87635;EQDQ01  00002PRCP06
0174037170999992000011312004+51480-003180FM-12+000999999V0203201N00211012001CN0400001N1+00451+00171101741ADDAA106000091GA1011+007509089GF106991051081008001001021MD1010041+9999REMSYN076AAXX  13124 03717 32582 63204 10045 20017 40174 50004 85802 333 81825 85645;EQDQ01  00002PRCP06
0172037170999992000012003004+51480-003180FM-12+000999999V0202401N00151004201CN0070001N1+00621+00331103791ADDAY121031AY221031GA1041+003009079GF107991071051004501999999MD1710141+9999MW1051REMSYN082AAXX  20034 03717 41457 72403 10062 20033 40379 57014 70522 875// 333 84710 87628;
0144037170999992000012414004+51480-003180FM-12+000999999V0200801N00361012001CN0250001N1+00461+00101102521ADDGA1041+006009089GF106991051081008001051999MD1710011+9999REMSYN076AAXX  24144 03717 42575 60807 10046 20010 40252 57001 8585/ 333 84820 83650;
0150037170999992000012701004+51480-003180FM-12+000999999V0203201N002112200019N0080001N1-00081-00241103381ADDAY101999AY201999GA1001+999999999GF100991001001999999001001MD1710051+9999MW1051REMSYN060AAXX  27014 03717 41958 03204 11008 21024 40338 57005 70500;
0144037170999992000020107004+51480-003180FM-12+000999999V0202201N00571004201CN0200001N1+00921+00471101501ADDGA1021+005409069GF107991071051004501999999MD1710201+9999REMSYN076AAXX  01074 03717 42470 72211 10092 20047 40150 57020 875// 333 82618 87645;
0138037170999992000021220004+51480-003180FM-12+000999999V0202401N005112200019N0150001N1+00761+00391101731ADDGA1011+006009029GF102991021081008001001001MD1010011+9999REMSYN070AAXX  12204 03717 42565 22410 10076 20039 40173 50001 82800 333 81820;
0194037170999992000021717004+51480-003180FM-12+000999999V0202201N003610021019N0040001N1+00681+00521101251ADDAY161999AY251999GA1021+000909079GA2051+002109079GF108991081051001501999999MD1810201+9999MW1581REMSYN088AAXX  17174 03717 41240 82207 10068 20052 40125 58020 75865 885// 333 82703 85707 88615;
0172037170999992000021721004+51480-003180FM-12+000999999V0202401N003610006019N0035001N1+00801+00761100781ADDAY161031AY251031GA1061+000609079GF108991081061000751999999MD1710361+9999MW1591REMSYN082AAXX  17214 03717 41135 82407 10080 20076 40078 57036 75965 886// 333 86702 88705;
0217037170999992000022712004+51480-003180FM-12+000999999V0202201N010810090019N0150001N1+01191+00761101191ADDAA106000791AY161061AY221061GA1041+005409069GA2061+009009069GF108991071051004501071999MD1710241+9999MW1211REMSYN100AAXX  27124 03717 11465 82221 10119 20076 40119 57024 69901 72162 8757/ 333 84618 86630 90710 91132;
0195037170999992000030812004+51480-003180FM-12+000999999V0202401N009310018019N0025001N1+01041+00921102521ADDAA106000891AY161061AY251061GA1081+001809079GF108991081061002501999999MD1210091+9999MW1201REMSYN094AAXX  08124 03717 11325 82418 10104 20092 40252 52009 69981 72065 886// 333 88706 90710 91133;
0174037170999992000031112004+51480-003180FM-12+000999999V0203401N00461030001CN0600001N1+01131+00471102451ADDAA199000091GA1011+009009089GF107991011011012501071999MD1210111+9999REMSYN076AAXX  11124 03717 32686 73409 10113 20047 40245 52011 8117/ 333 81830 87367;EQDQ01  00002PRCP99
0215037170999992000031306004+51480-003180FM-12+000999999V0202601N002110009019N0035001N1+00711+00641102761ADDAA199000091AY111061AY211061GA1071+000909069GF107991071061001501999999KA1120N+00651MD1210011+9999MW1101REMSYN082AAXX  13064 03717 31235 72604 10071 20064 40276 52001 71011 876// 333 20065 87703;EQDQ01  00002PRCP99
0138037170999992000031922004+51480-003180FM-12+000999999V0200101N002112200019N0130001N1+00801+00561103491ADDGA1021+075009019GF102991001001999999001011MD1710021+9999REMSYN070AAXX  19224 03717 42963 20104 10080 20056 40349 57002 80001 333 82075;
0172037170999992000032107004+51480-003180FM-12+000999999V0200601N003119999999N0070001N1+00801+00381102341ADDAY111999AY211999GA1011+045009039GF106991011001999999031011MD1710071+9999MW1051REMSYN082AAXX  21074 03717 41957 60606 10080 20038 40234 57007 70511 81031 333 81365 86075;
0166037170999992000032404004+51480-003180FM-12+000999999V0201701N004612200019N0080001N1+00721+00611100411ADDAY111999AY211999GA1031+012009059GF103991031051012501001001MD1710091+9999MW1051REMSYN076AAXX  24044 03717 41658 31709 10072 20061 40041 57009 70511 83500 333 83640;
0144037170999992000032820004+51480-003180FM-12+000999999V0200501N00621012001CN0250001N1+00601-00191102431ADDGA1031+007509089GF107991071081008001999999MD1210131+9999REMSYN076AAXX  28204 03717 42575 70512 10060 21019 40243 52013 878// 333 83825 87635;
0172037170999992000040202004+51480-003180FM-12+000999999V0200901N001510012019N0040001N1+00801+00691099741ADDAY151999AY221999GA1061+001209079GF108991081071001501999999MD1710071+9999MW1501REMSYN082AAXX  02024 03717 41240 80903 10080 20069 49974 57007 75052 887// 333 86704 88710;
0166037170999992000042004004+51480-003180FM-12+000999999V0201901N008712200019N0350001N1+01111+01071100031ADDAY161999AY251999GA1011+001809069GF103991031081002501001011MD1710071+9999MW1211REMSYN076AAXX  20044 03717 41381 31917 10111 20107 40003 57007 72165 83801 333 81706;
0172037170999992000042604004+51480-003180FM-12+000999999V0200801N002610021019N0070001N1+00901+00821100281ADDAY161011AY251011GA1061+002109079GF108991081051002501999999MD1810081+9999MW1581REMSYN082AAXX  26044 03717 41357 80805 10090 20082 40028 58008 75865 885// 333 86707 88615;
0138037170999992000050105004+51480-003180FM-12+000999999V0200501N004612200019N0120001N1+01031+00781102401ADDGA1021+036009079GF102991021001999999051011MD1210031+9999REMSYN070AAXX  01054 03717 42962 20509 10103 20078 40240 52003 82051 333 82362;
0138037170999992000050802004+51480-003180FM-12+000999999V0200501N005710075019N0120001N1+01531+01001101661ADDGA1061+007509059GF107991061051008001081999MD1210031+9999REMSYN070AAXX  08024 03717 42562 70511 10153 20100 40166 52003 8658/ 333 86625;
0172037170999992000050808004+51480-003180FM-12+000999999V0200601N00511004201CN0090001N1+01221+00861101791ADDAY121999AY221999GA1021+005409069GF108991081051004501999999MD1210091+9999MW1051REMSYN082AAXX  08084 03717 41459 80610 10122 20086 40179 52009 70522 885// 333 82618 88650;
0194037170999992000052017004+51480-003180FM-12+000999999V0201801N005710060019N0080001N1+01151+00911101041ADDAY161999AY261999GA1021+002409079GA2051+006009069GF108991081051002501999999MD1610151+9999MW1631REMSYN088AAXX  20174 03717 41358 81811 10115 20091 40104 56015 76366 885// 333 82708 85620 88630;
0201037170999992000052209004+51480-003180FM-12+000999999V0202101N00361004201CN0180001N1+01241+01011101521ADDAJ100009199999999AY161031AY221031GA1031+003009079GF108991081051004501999999IA1179MD1210071+9999MW1021REMSYN088AAXX  22094 03717 41468 82107 10124 20101 40152 52007 70262 885// 333 40000 83710 88620;
0172037170999992000052622004+51480-003180FM-12+000999999V0203101N00261030001CN0500001N1+00731+00531100501ADDAY161999AY221999GA1011+004509069GF107991011051004501021999MD1310181+9999MW1211REMSYN082AAXX  26224 03717 41484 73105 10073 20053 40050 53018 72162 8152/ 333 81615 87458;
0208037170999992000052706004+51480-003180FM-12+000999999V0202401N00621004201CN0250001N1+00861+00501100661ADDAA112002091AY181061AY211061GA1031+005409099GF106991051091004501001031KA1120N+00671MD1210091+9999MW1801REMSYN094AAXX  27064 03717 11475 62412 10086 20050 40066 52009 60022 78081 85903 333 20067 83918 83822;
0138037170999992000060522004+51480-003180FM-12+000999999V0202301N004112200019N0250001N1+01211+01021102101ADDGA1021+012009059GF102991021051012501001001MD1210131+9999REMSYN070AAXX  05224 03717 42675 22308 10121 20102 40210 52013 82500 333 82640;
0144037170999992000061515004+51480-003180FM-12+000999999V0202701N003112200019N0180001N1+02011+01451102651ADDGA1011+005409089GF104991031081004501001011MD1610031+9999REMSYN076AAXX  15154 03717 42468 42706 10201 20145 40265 56003 83801 333 81818 83640;
0200037170999992000062022004+51480-003180FM-12+000999999V0201901N005710300019N0180001N1+01651+01311100841ADDAY161999AY221999GA1031+006009069GA2041+009009069GF108991041051008001031021MD1710071+9999MW1611REMSYN094AAXX  20224 03717 41568 81911 10165 20131 40084 57007 76162 84532 333 83620 84630 90710 91125;
0144037170999992000070322004+51480-003180FM-12+000999999V0202001N002612200019N0200001N1+01821+01331100811ADDGA1011+006609089GF104991021081008001031021MD1210041+9999REMSYN076AAXX  03224 03717 42570 42005 10182 20133 40081 52004 82832 333 81822 83072;
0144037170999992000070517004+51480-003180FM-12+000999999V0202201N001510060019N0120001N1+02061+01331101471ADDGA1051+006009089GF107991071081008001999999MD1210061+9999REMSYN076AAXX  05174 03717 42562 72203 10206 20133 40147 52006 878// 333 85820 87650;
0172037170999992000070522004+51480-003180FM-12+000999999V0203401N00101009001CN0100001N1+01641+01431101711ADDAY121999AY221999GA1041+005409089GF107991051081004501001021MD1210161+9999MW1051REMSYN082AAXX  05224 03717 41460 73402 10164 20143 40171 52016 70522 85802 333 84818 83650;
0251037170999992000071109004+51480-003180FM-12+000999999V0203501N00771009001CN0150001N1+01171+00691100781ADDAJ100009199999999AY111031AY211031GA1011+001509079GA2041+005409089GA3061+009009069GF107991061081001501031999IA1179MD1310171+9999MW1801REMSYN106AAXX  11094 03717 41265 73515 10117 20069 40078 53017 78011 8683/ 333 40000 81705 84818 86630 90710 91125;
0155037170999992000071412004+51480-003180FM-12+000999999V0203301N00671012001CN0600001N1+01641+00701101491ADDAA199000021GA1011+008409089GF107991071081008001999021MD1310021+9999REMSYN076AAXX  14124 03717 32586 73313 10164 20070 40149 53002 878/2 333 81828 87642;
0215037170999992000071518004+51480-003180FM-12+000999999V0203401N00211030001CN0600001N1+02031+00951101821ADDAA199000091GA1011+012009089GA2031+015009069GF107991031081012501031011KA1120M+02121MD1510001+9999REMSYN088AAXX  15184 03717 32686 73404 10203 20095 40182 55000 83831 333 10212 81840 83650 87075;EQDQ01  00002PRCP99
0172037170999992000072220004+51480-003180FM-12+000999999V0200601N007710750019N0300001N1+01811+01281101841ADDGA1011+007509069GA2061+075009009GF106991021051008001001011MD1610061+9999REMSYN088AAXX  22204 03717 42580 60615 10181 20128 40184 56006 82501 333 81625 86075 90710 91126;
0166037170999992000080914004+51480-003180FM-12+000999999V0202401N005110090019N0600001N1+01981+01241101791ADDGA1021+006609089GA2041+009009069GF107991071081008001999999MD1810061+9999REMSYN082AAXX  09144 03717 42586 72410 10198 20124 40179 58006 878// 333 82822 84630 87640;
0144037170999992000081214004+51480-003180FM-12+000999999V0202301N00411015001CN0700001N1+02141+01351101371ADDGA1011+009009089GF107991071081012501999999MD1710041+9999REMSYN076AAXX  12144 03717 42688 72308 10214 20135 40137 57004 878// 333 81830 87635;
0144037170999992000081614004+51480-003180FM-12+000999999V0202301N00361030001CN0600001N1+02121+01141101231ADDGA1021+007509089GF107991021021008001031021MD1710151+9999REMSYN076AAXX  16144 03717 42586 72307 10212 20114 40123 57015 82232 333 82825 86070;
0194037170999992000081809004+51480-003180FM-12+000999999V0203601N000510036019N0060001N1+01421+01381101111ADDAY161031AY221031GA1021+000909079GA2051+003609079GF108991081051001501999999MD1210011+9999MW1611REMSYN088AAXX  18094 03717 41256 83601 10142 20138 40111 52001 76162 885// 333 82703 85712 88625;
0138037170999992000082017004+51480-003180FM-12+000999999V0202801N003612200019N0500001N1+01921+00871101321ADDGA1011+009009099GF102991011031012501001021MD1610021+9999REMSYN070AAXX  20174 03717 42684 22807 10192 20087 40132 56002 81302 333 81930;
0172037170999992000082709004+51480-003180FM-12+000999999V0202001N00261009001CN0180001N1+01721+01371101451ADDAY181031AY211031GA1041+005409089GF107991071081004501999999MD1210141+9999MW1801REMSYN082AAXX  27094 03717 41468 72005 10172 20137 40145 52014 78081 878// 333 84818 87656;
0172037170999992000082711004+51480-003180FM-12+000999999V0202301N00211012001CN0250001N1+01631+01091101521ADDAY181999AY221999GA1021+006609089GF107991071081008001999999MD1210131+9999MW1251REMSYN082AAXX  27114 03717 41575 72304 10163 20109 40152 52013 72582 878// 333 82822 87656;
0193037170999992000090406004+51480-003180FM-12+000999999V0200401N002112200019N0160001N1+01091+00891102361ADDAA199000091GA1011+007509069GF104991011051008001001011KA1120N+01071MD1210031+9999REMSYN082AAXX  04064 03717 32566 40404 10109 20089 40236 52003 81501 333 20107 81625 84075;EQDQ01  00002PRCP99
0194037170999992000090723004+51480-003180FM-12+000999999V0202401N007210009019N0025001N1+01761+01681101531ADDAY151999AY251999GA1011+000309079GA2071+000909079GF108991081051000251999999MD1210031+9999MW1531REMSYN088AAXX  07234 03717 41025 82414 10176 20168 40153 52003 75355 885// 333 81701 87703 88640;
0144037170999992000091122004+51480-003180FM-12+000999999V0202301N00311004201CN0250001N1+01741+01481101121ADDGA1021+004509069GF108991081051004501999999MD1210081+9999REMSYN076AAXX  11224 03717 42475 82306 10174 20148 40112 52008 885// 333 82615 88625;
0194037170999992000091501004+51480-003180FM-12+000999999V0201001N000510090019N0080001N1+01321+01281101001ADDAY161999AY221999GA1021+002409079GA2051+009009069GF108991081051002501999999MD1810211+9999MW1601REMSYN088AAXX  15014 03717 41358 81001 10132 20128 40100 58021 76062 885// 333 82708 85630 88650;
0172037170999992000091802004+51480-003180FM-12+000999999V0202001N007710036019N0080001N1+01441+01301100201ADDAY161999AY221999GA1051+003609079GF108991081051004501999999MD1610301+9999MW1621REMSYN082AAXX  18024 03717 41458 82015 10144 20130 40020 56030 76262 885// 333 85712 88620;
0138037170999992000091905004+51480-003180FM-12+000999999V0200301N002110600019N0250001N1+00811+00571099841ADDGA1071+060009019GF107991001001999999001021MD1710041+9999REMSYN070AAXX  19054 03717 42975 70304 10081 20057 49984 57004 80002 333 87070;
0222037170999992000092714004+51480-003180FM-12+000999999V0201901N010810030019N0070001N1+01441+01391100471ADDAY161999AY221999GA1041+001209079GA2061+003009079GA3081+007509069GF108991081051001501999999MD1810301+9999MW1631REMSYN100AAXX  27144 03717 41257 81921 10144 20139 40047 58030 76362 885// 333 84704 86710 88625 90710 91130;
0138037170999992000101317004+51480-003180FM-12+000999999V0202301N004112200019N0500001N1+01361+00711101251ADDGA1011+007509029GF101991011041008001031011MD1210141+9999REMSYN070AAXX  13174 03717 42584 12308 10136 20071 40125 52014 81431 333 81825;
0166037170999992000101517004+51480-003180FM-12+000999999V0201701N002610075019N0180001N1+01381+01141101071ADDGA1031+005409069GA2041+007509069GF108991081051004501999999MD1810051+9999REMSYN082AAXX  15174 03717 42468 81705 10138 20114 40107 58005 885// 333 83618 84625 88635;
0222037170999992000102820004+51480-003180FM-12+000999999V0202401N010310060019N0070001N1+01051+00501099711ADDAY181999AY221999GA1031+004509099GA2041+006009089GA3061+009009069GF107991071091004501999999MD1310361+9999MW1871REMSYN100AAXX  28204 03717 41457 72420 10105 20050 49971 53036 78782 879// 333 83915 84820 86630 90710 91139;
0200037170999992000103022004+51480-003180FM-12+000999999V0202201N010310054019N0080001N1+01051+00621097931ADDAY181999AY221999GA1051+005409089GA2061+012009069GF108991081081004501999999MD1710131+9999MW1801REMSYN094AAXX  30224 03717 41458 82220 10105 20062 49793 57013 78082 888// 333 85818 86640 90710 91136;
0172037170999992000103104004+51480-003180FM-12+000999999V0203101N004112200019N0300001N1+00881+00691098331ADDAY181999AY211999GA1011+005409089GF102991021091004501001001MD1310391+9999MW1251REMSYN082AAXX  31044 03717 41480 23108 10088 20069 49833 53039 72581 82900 333 81818 81920;
0222037170999992000110301004+51480-003180FM-12+000999999V0202401N00821012001CN0080001N1+00731+00461098531ADDAY181999AY221999GA1011+003009079GA2041+005409089GA3081+012009069GF108991081081004501999999MD1210131+9999MW1811REMSYN100AAXX  03014 03717 41458 82416 10073 20046 49853 52013 78182 888// 333 81710 84818 88640 90710 91126;
0189037170999992000110700004+51480-003180FM-12+000999999V0203201N003110300019N0180001N1+00881+00571097581ADDAA106000791AY181061AY211061GA1041+012009069GF106991041051012501031999MD1210081+9999MW1021REMSYN088AAXX  07004 03717 11668 63206 10088 20057 49758 52008 69901 70281 8453/ 333 84640 86360;
0200037170999992000112520004+51480-003180FM-12+000999999V0202201N012910105019N0180001N1+00831+00201098471ADDAY181999AY221999GA1021+005109069GA2071+010509069GF107991071051004501999999MD1610161+9999MW1251REMSYN094AAXX  25204 03717 41468 72225 10083 20020 49847 56016 72582 875// 333 82617 87635 90710 91159;
0138037170999992000120221004+51480-003180FM-12+000999999V0202301N004612200019N0200001N1+00891+00651101011ADDGA1011+006009029GF102991021081008001001001MD1210161+9999REMSYN070AAXX  02214 03717 42570 22309 10089 20065 40101 52016 82800 333 81820;
0200037170999992000121305004+51480-003180FM-12+000999999V0202401N00981009001CN0170001N1+00911+00581100241ADDAY181999AY221999GA1011+003009079GA2031+006009089GF105991051081004501001001MD1110341+9999MW1251REMSYN094AAXX  13054 03717 41467 52419 10091 20058 40024 51034 72582 85800 333 81710 83820 90710 91135;
0189037170999992000121412004+51480-003180FM-12+000999999V0202201N002112200019N0300001N1+00781+00311100311ADDAA106002091AY181061AY211061GA1011+005409089GF102991021091004501001001MD1710031+9999MW1011REMSYN088AAXX  14124 03717 11480 22204 10078 20031 40031 57003 60021 70181 82900 333 81818 82920;
0208037170999992000121606004+51480-003180FM-12+000999999V0200501N00051004201CN0130001N1+00321+00191101221ADDAA112000891AY161061AY211061GA1011+004509079GF108991081051004501999999KA1120N+00151MD1710101+9999MW1631REMSYN094AAXX  16064 03717 11463 80501 10032 20019 40122 57010 69982 76361 885// 333 20015 81715 88635;
0166037170999992000122023004+51480-003180FM-12+000999999V0200901N004110036019N0080001N1+00881+00711101261ADDAY121999AY221999GA1071+003609069GF107991071061004501999999MD1210061+9999MW1051REMSYN076AAXX  20234 03717 41458 70908 10088 20071 40126 52006 70522 876// 333 87712;
0166037170999992000122101004+51480-003180FM-12+000999999V0200801N005110036019N0070001N1+00851+00661101271ADDAY121999AY221999GA1071+003609069GF107991071061004501999999MD1210021+9999MW1051REMSYN076AAXX  21014 03717 41457 70810 10085 20066 40127 52002 70522 876// 333 87712;
0172037170999992000122221004+51480-003180FM-12+000999999V0200801N005110018019N0060001N1+00631+00401101201ADDAY121031AY221031GA1061+001809079GF108991081061002501999999MD1310081+9999MW1051REMSYN082AAXX  22214 03717 41356 80810 10063 20040 40120 53008 70522 886// 333 86706 88708;
0166037170999992000122809004+51480-003180FM-12+000999999V0203201N002612200019N0150001N1+00001-00341099421ADDAY101031AY201031GA1021+004509099GF102991021091004501001001MD1710041+9999MW1151REMSYN076AAXX  28094 03717 41465 23205 10000 21034 49942 57004 71500 82900 333 82915;
0185037243999992000010314504+51380-002720FM-15+0189EGGD V0202701N003610150019N0112651N1+00701+00401999999ADDGA1021+005409999GA2021+007509999GA3071+015009999GF107991999999999999999999MA1101591999999MW1001REMMET059EGGD 031450Z 27007KT 9999 FEW018 SCT025 BKN055 07/04 Q1016;EQDQ01+000000PRSWM2
0090037243999992000010322504+51380-002720FM-16+0189EGGD V0209999C000012200019N0112651N1+99999+99999999999ADDMW1001MW2401REMMET047EGGD 032150Z 00000KT 9999 VCFG 000 03/02 Q1017;EQDQ01+000003PRSWM1
0162037243999992000010414504+51380-002720FM-15+0189EGGD V0202801N006712200019N0112651N1+00501+00201999999ADDGA1021+003009999GA2021+005109999GF104991999999999999999999MA1101081999999MW1001REMMET052EGGD 041450Z 28013KT 9999 SCT010 SCT017 05/02 Q1011;EQDQ01+000000PRSWM2
0162037243999992000011408504+51380-002720FM-15+0189EGGD V0200301N004110030019N0060001N1+00201+00101999999ADDGA1021+001209999GA2071+003009999GF107991999999999999999999MA1102301999999MW1001REMMET052EGGD 140850Z 03008KT 6000 SCT004 BKN010 02/01 Q1023;EQDQ01+000000PRSWM2
0139037243999992000011410504+51380-002720FM-15+0189EGGD V0200201N006212200019N0112651N1+00301+00101999999ADDGA1021+003009999GF102991999999999999999999MA1102401999999MW1001REMMET045EGGD 141050Z 02012KT 9999 FEW010 03/01 Q1024;EQDQ01+000000PRSWM2
0162037243999992000011512504+51380-002720FM-15+0189EGGD V0200601N005110045019N0112651N1+00501+00301999999ADDGA1021+003009999GA2071+004509999GF107991999999999999999999MA1103691999999MW1001REMMET052EGGD 151250Z 06010KT 9999 SCT010 BKN015 05/03 Q1037;EQDQ01+000000PRSWM2
0139037243999992000012200504+51380-002720FM-15+0189EGGD V0202801N006212200019N0112651N1+00401+00201999999ADDGA1021+009009999GF104991999999999999999999MA1102811999999MW1001REMMET045EGGD 220050Z 28012KT 9999 SCT030 04/02 Q1028;EQDQ01+000000PRSWM2
0145037243999992000012818504+51380-002720FM-15+0189EGGD V0202601N009310027019N0112651N1+00601+00401999999ADDGA1071+002709999GF107991999999999999999999MA1100711999999MW1001REMMET051EGGD 281850Z 26018KT 9999 -FZDZ BKN009 06/04 Q1007;EQDQ01+000562PRSWM2
0187037243999992000013003204+51380-002720FM-15+0189EGGD V0202701N01291220001CN0003001N1+00901+00901999999ADDED199U03509GA1071+000159999GF107991999999999999999999MA1101081999999MW1441REMMET066EGGD 300320Z 27025KT 0300 R09/0350 R27/0550 FG BKN000 09/09 Q1011;EQDQ01+000003PRSWM1Q02    003PRSWM1
0197037243999992000020816504+51380-002720FM-15+0189EGGD V0202701N012912200019N0112651N1+00601+00301999999ADDGA1021+004509099GA2021+006009999GF104991999999999999999999MA1101021999999MW1801OC101801REMMET063EGGD 081650Z 27025G35KT 9999 -SHRA FEW015CB SCT020 06/03 Q1010;EQDQ01+000003PRSWM1Q02    003PRSWM1
0139037243999992000020901504+51380-002720FM-15+0189EGGD V0202801N009312200019N0112651N1+00501+00001999999ADDGA1021+009009999GF104991999999999999999999MA1101901999999MW1001REMMET045EGGD 090150Z 28018KT 9999 SCT030 05/00 Q1019;EQDQ01+000000PRSWM2
0094037243999992000020922504+51380-002720FM-15+0189EGGD V0202501N009312200019N0190001N1+99999+99999999999ADDMW1001REMMET057EGGD 092250Z 25018KT 190V 9999 FEW020 SCT040 07/04 Q1018;EQDQ01+000000PRSWM2
0192037243999992000021007504+51380-002720FM-15+0189EGGD V0201901N008710021019N0050001N1+00901+00801999999ADDGA1021+000909999GA2071+002109999GF107991999999999999999999MA1100411999999MW1631OC101391REMMET058EGGD 100750Z 19017G27KT 5000 RA SCT003 BKN007 09/08 Q1004;EQDQ01+000003PRSWM1Q02    003PRSWM1
0140037243999992000021600504+51380-002720FM-15+0189EGGD V0202801N007712200019N0112651N1+00101-00101999999ADDGA1021+006009999GF102991999999999999999999MA1100511999999MW1001REMMET046EGGD 160050Z 28015KT 9999 FEW020 01/M01 Q1005;EQDQ01+000000PRSWM2
0092037243999992000021707504+51380-002720FM-15+0189EGGD V0202901N00411220001CN0099001N1+00101-00301999999ADDMA1101081999999MW1001REMMET040EGGD 170750Z 29008KT CAVOK 01/M03 Q1011;EQDQ01+000000PRSWM2
0184037243999992000021807504+51380-002720FM-15+0189EGGD V0202601N005112200019N0060001N1+00601+00401999999ADDGA1021+003609999GA2021+006009999GF104991999999999999999999MA1100411999999MW1801REMMET058EGGD 180750Z 26010KT 6000 -SHRA FEW012 SCT020 06/04 Q1004;EQDQ01+000003PRSWM1Q02    003PRSWM1
0139037243999992000022822504+51380-002720FM-15+0189EGGD V0202101N005712200019N0112651N1+00501+00201999999ADDGA1021+006009999GF104991999999999999999999MA1101081999999MW1001REMMET045EGGD 282250Z 21011KT 9999 SCT020 05/02 Q1011;EQDQ01+000000PRSWM2
0092037243999992000030420504+51380-002720FM-15+0189EGGD V0209999C00001220001CN0099001N1+00101-00301999999ADDMA1103181999999MW1001REMMET040EGGD 042050Z 00000KT CAVOK 01/M03 Q1032;EQDQ01+000000PRSWM2
0162037243999992000030504504+51380-002720FM-15+0189EGGD V0202101N003110054019N0112651N1+00301+00201999999ADDGA1021+003309999GA2071+005409999GF107991999999999999999999MA1103121999999MW1001REMMET052EGGD 050450Z 21006KT 9999 FEW011 BKN018 03/02 Q1031;EQDQ01+000000PRSWM2
0139037243999992000031116504+51380-002720FM-15+0189EGGD V0203101N002612200019N0112651N1+01001+00501999999ADDGA1021+010509999GF102991999999999999999999MA1102301999999MW1001REMMET045EGGD 111650Z 31005KT 9999 FEW035 10/05 Q1023;EQDQ01+000000PRSWM2
0120037243999992000032000204+51380-002720FM-15+0189EGGD V0200501N002612200019N0060001N1+00401+00301999999ADDGF100991999999999999999999MA1103291999999MW1001REMMET042EGGD 200020Z 05005KT 6000 SKC 04/03 Q1033;EQDQ01+000000PRSWM2
0079037243999992000032115504+51380-002720FM-15+0189EGGD V0201101N002112200019N0080001N1+99999+99999999999ADDMW1001REMMET042EGGD 211550Z 11004KT 8000 000 12/02 Q1018;EQDQ01+000000PRSWM2
0201037243999992000032218504+51380-002720FM-15+0189EGGD V0201101N003110180019N9999999N1+01101+00501999999ADDGA1021+004809999GA2021+009009999GA3071+018009999GF107991999999999999999999MA1101291999999MW1001REMMET059EGGD 221850Z 11006KT 7000 FEW016 SCT030 BKN060 11/05 Q1013;EQDQ01+070002VODIS Q02+000000PRSWM2
0162037243999992000032404504+51380-002720FM-15+0189EGGD V0201501N002612200019N0060001N1+00501+00501999999ADDGA1021+001509999GA2021+004509999GF104991999999999999999999MA1100311999999MW1001REMMET052EGGD 240450Z 15005KT 6000 FEW005 SCT015 05/05 Q1003;EQDQ01+000000PRSWM2
0139037243999992000040712504+51380-002720FM-15+0189EGGD V0202101N003112200019N0112651N1+01101+00301999999ADDGA1021+003609999GF102991999999999999999999MA1103121999999MW1001REMMET045EGGD 071250Z 21006KT 9999 FEW012 11/03 Q1031;EQDQ01+000000PRSWM2
0139037243999992000040917504+51380-002720FM-15+0189EGGD V0200401N007212200019N0112651N1+01001+00401999999ADDGA1021+009009999GF104991999999999999999999MA1101291999999MW1001REMMET045EGGD 091750Z 04014KT 9999 SCT030 10/04 Q1013;EQDQ01+000000PRSWM2
0182037243999992000041105504+51380-002720FM-15+0189EGGD V0202101N004110030019N0040001N1+00401+00301999999ADDGA1021+000609999GA2071+003009999GF107991999999999999999999MA1099701999999MW1611REMMET056EGGD 110550Z 21008KT 4000 -RA SCT002 BKN010 04/03 Q0997;EQDQ01+000003PRSWM1Q02    003PRSWM1
0181037243999992000041815504+51380-002720FM-15+0189EGGD V0201001N002110015019N0045001N1+00801+00701999999ADDGA1071+001509999GA2081+003609999GF108991999999999999999999MA1099801999999MW1631REMMET055EGGD 181550Z 10004KT 4500 RA BKN005 OVC012 08/07 Q0998;EQDQ01+000003PRSWM1Q02    003PRSWM1
0162037243999992000042400204+51380-002720FM-15+0189EGGD V0202001N003112200019N0112651N1+00701+00601999999ADDGA1021+002409999GA2021+007509999GF104991999999999999999999MA1100911999999MW1001REMMET052EGGD 240020Z 20006KT 9999 FEW008 SCT025 07/06 Q1009;EQDQ01+000000PRSWM2
0139037243999992000050409504+51380-002720FM-15+0189EGGD V0200601N007210018019N0060001N1+00701+00601999999ADDGA1071+001809999GF107991999999999999999999MA1102201999999MW1001REMMET045EGGD 040950Z 06014KT 6000 BKN006 07/06 Q1022;EQDQ01+000000PRSWM2
0158037243999992000050607504+51380-002720FM-15+0189EGGD V0200601N005110012019N0025001N1+00901+00801999999ADDGA1071+001209999GF107991999999999999999999MA1101291999999MW1101REMMET048EGGD 060750Z 06010KT 2500 BR BKN004 09/08 Q1013;EQDQ01+000003PRSWM1Q02    003PRSWM1
0185037243999992000052107504+51380-002720FM-15+0189EGGD V0202801N003610090019N0112651N1+00901+00801999999ADDGA1021+002409999GA2021+004509999GA3071+009009999GF107991999999999999999999MA1100711999999MW1001REMMET059EGGD 210750Z 28007KT 9999 FEW008 SCT015 BKN030 09/08 Q1007;EQDQ01+000000PRSWM2
0181037243999992000052722204+51380-002720FM-15+0189EGGD V0200801N002610045019N0112651N1+00601+00501999999ADDGA1021+000609999GA2071+004509999GF107991999999999999999999MA1099901999999MW1631REMMET055EGGD 272220Z 08005KT 9999 RA SCT002 BKN015 06/05 Q0999;EQDQ01+000003PRSWM1Q02    003PRSWM1
0204037243999992000052803204+51380-002720FM-15+0189EGGD V0203201N005710015019N0112651N1+00401+00401999999ADDGA1021+000909999GA2021+001209999GA3071+001509999GF107991999999999999999999MA1099701999999MW1631REMMET062EGGD 280320Z 32011KT 9999 RA FEW003 SCT004 BKN005 04/04 Q0997;EQDQ01+000003PRSWM1Q02    003PRSWM1
0173037243999992000052811504+51380-002720FM-15+0189EGGD V0202701N009812200019N0112651N1+01101+00501999999ADDGA1021+005409999GA2021+010509999GF104991999999999999999999MA1100511999999MW1001OC101541REMMET055EGGD 281150Z 27019G30KT 9999 SCT018 SCT035 11/05 Q1005;EQDQ01+000000PRSWM2
0162037243999992000053115504+51380-002720FM-15+0189EGGD V0202001N007210660019N0112651N1+01401+00701999999ADDGA1021+009009999GA2071+066009999GF107991999999999999999999MA1101801999999MW1001REMMET052EGGD 311550Z 20014KT 9999 SCT030 BKN220 14/07 Q1018;EQDQ01+000000PRSWM2
0182037243999992000053119504+51380-002720FM-15+0189EGGD V0201801N005710045019N0050001N1+01001+00901999999ADDGA1021+002409999GA2071+004509999GF107991999999999999999999MA1101591999999MW1611REMMET056EGGD 311950Z 18011KT 5000 -RA SCT008 BKN015 10/09 Q1016;EQDQ01+000003PRSWM1Q02    003PRSWM1
0139037243999992000060614504+51380-002720FM-15+0189EGGD V0202801N009312200019N0112651N1+01601+00801999999ADDGA1021+004509999GF104991999999999999999999MA1102001999999MW1001REMMET045EGGD 061450Z 28018KT 9999 SCT015 16/08 Q1020;EQDQ01+000000PRSWM2
0162037243999992000061007504+51380-002720FM-15+0189EGGD V0202501N005112200019N0112651N1+01101+00801999999ADDGA1021+003609999GA2021+007509999GF104991999999999999999999MA1101801999999MW1001REMMET052EGGD 100750Z 25010KT 9999 FEW012 SCT025 11/08 Q1018;EQDQ01+000000PRSWM2
0139037243999992000061210504+51380-002720FM-15+0189EGGD V0202501N005110024019N0112651N1+01601+01301999999ADDGA1071+002409999GF107991999999999999999999MA1102511999999MW1001REMMET045EGGD 121050Z 25010KT 9999 BKN008 16/13 Q1025;EQDQ01+000000PRSWM2
0183037243999992000061404504+51380-002710FM-15+0189EGGD V0202201N005710006019N0040001N1+01401+01301999999ADDGA1021+000309999GA2081+000609999GF108991999999999999999999MA1102301999999MW1511REMMET057EGGD 140450Z 22011KT 4000 -DZ SCT001 OVC002 14/13 Q1023 ;EQDQ01+000003PRSWM1Q02    003PRSWM1
0091037243999992000061701504+51380-002710FM-15+0189EGGD V0201101N00621220001CN0099001N1+01301+01101999999ADDMA1102401999999MW1001REMMET039EGGD 170150Z 11012KT CAVOK 13/11 Q1024;EQDQ01+000000PRSWM2
0091037243999992000061716204+51380-002710FM-15+0189EGGD V0201901N00671220001CN0099001N1+02401+01401999999ADDMA1102401999999MW1001REMMET039EGGD 171620Z 19013KT CAVOK 24/14 Q1024;EQDQ01+000000PRSWM2
0162037243999992000062218504+51380-002710FM-15+0189EGGD V0202401N007710030019N0112651N1+01301+01101999999ADDGA1021+001509999GA2071+003009999GF107991999999999999999999MA1101081999999MW1001REMMET052EGGD 221850Z 24015KT 9999 FEW005 BKN010 13/11 Q1011;EQDQ01+000000PRSWM2
0162037243999992000070223504+51380-002710FM-15+0189EGGD V0209999C000010150019N0112651N1+01201+01101999999ADDGA1021+006009999GA2071+015009999GF107991999999999999999999MA1101021999999MW1001REMMET052EGGD 022350Z 00000KT 9999 SCT020 BKN050 12/11 Q1010;EQDQ01+000000PRSWM2
0195037243999992000070500504+51380-002710FM-15+0189EGGD V0201501N001510015019N0020001N1+01301+01301999999ADDGA1021+000909999GA2071+001509999GF107991999999999999999999MA1100911999999MW1101MW2631REMMET063EGGD 050050Z 15003KT 2000 RA BR SCT003 BKN005 13/13 Q1009 RERA;EQDQ01+000003PRSWM1Q02    003PRSWM1
0185037243999992000070804504+51380-002710FM-15+0189EGGD V0202601N003110300019N0112651N1+01201+01001999999ADDGA1021+003909999GA2021+012009999GA3071+030009999GF107991999999999999999999MA1101901999999MW1001REMMET059EGGD 080450Z 26006KT 9999 SCT013 SCT040 BKN100 12/10 Q1019;EQDQ01+000000PRSWM2
0162037243999992000070815204+51380-002710FM-15+0189EGGD V0202601N008712200019N0112651N1+01501+01101999999ADDGA1021+004509999GA2021+009009999GF104991999999999999999999MA1101691999999MW1001REMMET052EGGD 081520Z 26017KT 9999 FEW015 SCT030 15/11 Q1017;EQDQ01+000000PRSWM2
0183037243999992000070903504+51380-002710FM-15+0189EGGD V0202001N005110003019N0035001N1+01301+01201999999ADDGA1071+000309999GA2081+000909999GF108991999999999999999999MA1100311999999MW1101MW2511MW3611REMMET061EGGD 090350Z 20010KT 3500 BR -RADZ BKN001 OVC003 13/12 Q1003;EQDQ01+000003PRSWM1
0139037243999992000071205504+51380-002710FM-15+0189EGGD V0202301N001512200019N0112651N1+01201+00901999999ADDGA1021+010509999GF104991999999999999999999MA1101391999999MW1001REMMET045EGGD 120550Z 23003KT 9999 SCT035 12/09 Q1014;EQDQ01+000000PRSWM2
0139037243999992000071606504+51380-002710FM-15+0189EGGD V0200701N002612200019N0112651N1+01201+00901999999ADDGA1021+006009999GF102991999999999999999999MA1102001999999MW1001REMMET045EGGD 160650Z 07005KT 9999 FEW020 12/09 Q1020;EQDQ01+000000PRSWM2
0139037243999992000071622504+51380-002710FM-15+0189EGGD V0209999C000012200019N0112651N1+01301+01101999999ADDGA1021+012009999GF104991999999999999999999MA1101901999999MW1001REMMET045EGGD 162250Z 00000KT 9999 SCT040 13/11 Q1019;EQDQ01+000000PRSWM2
0139037243999992000072316504+51380-002710FM-15+0189EGGD V0200701N005712200019N0112651N1+01701+01201999999ADDGA1021+004809999GF104991999999999999999999MA1101291999999MW1001REMMET045EGGD 231650Z 07011KT 9999 SCT016 17/12 Q1013;EQDQ01+000000PRSWM2
0206037243999992000072909504+51380-002710FM-15+0189EGGD V0202601N004610045019N0112651N1+01701+01401999999ADDGA1021+002109999GA2021+003009999GA3071+004509999GF107991999999999999999999MA1101691999999MW1161REMMET064EGGD 290950Z 26009KT 9999 VCSH FEW007 SCT010 BKN015 17/14 Q1017;EQDQ01+000003PRSWM1Q02    003PRSWM1
0185037243999992000073106504+51380-002710FM-15+0189EGGD V0201901N003110450019N0112651N1+01501+01301999999ADDGA1021+001509999GA2021+007509999GA3071+045009999GF107991999999999999999999MA1102201999999MW1001REMMET059EGGD 310650Z 19006KT 9999 FEW005 SCT025 BKN150 15/13 Q1022;EQDQ01+000000PRSWM2
0162037243999992000073111504+51380-002710FM-15+0189EGGD V0201901N005712200019N0112651N1+02001+01301999999ADDGA1021+006909999GA2021+054009999GF104991999999999999999999MA1102101999999MW1001REMMET052EGGD 311150Z 19011KT 9999 FEW023 SCT180 20/13 Q1021;EQDQ01+000000PRSWM2
0162037243999992000073114504+51380-002710FM-15+0189EGGD V0201901N007212200019N0112651N1+02101+01401999999ADDGA1021+007509999GA2021+054009999GF104991999999999999999999MA1102001999999MW1001REMMET052EGGD 311450Z 19014KT 9999 FEW025 SCT180 21/14 Q1020;EQDQ01+000000PRSWM2
0177037243999992000080315204+51380-002710FM-15+0189EGGD V0209999C000010054019N0112651N1+01501+01301999999ADDGA1021+003609099GA2071+005409999GF107991999999999999999999MA1101591999999MW1001REMMET067EGGD 031520Z 00000KT 290V070 9999 SCT012CB BKN018 15/13 Q1016 RERA;EQDQ01+000000PRSWM2
0164037243999992000080315504+51380-002710FM-15+0189EGGD V0202901N001512200019N0112651N1+01701+01401999999ADDGA1021+003609099GA2021+005409999GF104991999999999999999999MA1101591999999MW1001REMMET054EGGD 031550Z 29003KT 9999 FEW012CB SCT018 17/14 Q1016;EQDQ01+000000PRSWM2
0162037243999992000080715504+51380-002710FM-15+0189EGGD V0203101N001512200019N0112651N1+02001+01601999999ADDGA1021+007509999GA2021+013509999GF104991999999999999999999MA1102401999999MW1001REMMET052EGGD 071550Z 31003KT 9999 SCT025 SCT045 20/16 Q1024;EQDQ01+000000PRSWM2
0162037243999992000081000504+51380-002710FM-15+0189EGGD V0202601N004110006019N0060001N1+01601+01501999999ADDGA1021+000309999GA2081+000609999GF108991999999999999999999MA1101591999999MW1001REMMET052EGGD 100050Z 26008KT 6000 SCT001 OVC002 16/15 Q1016;EQDQ01+000000PRSWM2
0139037243999992000081100504+51380-002710FM-15+0189EGGD V0203201N002610084019N0112651N1+01301+01001999999ADDGA1071+008409999GF107991999999999999999999MA1101691999999MW1001REMMET045EGGD 110050Z 32005KT 9999 BKN028 13/10 Q1017;EQDQ01+000000PRSWM2
0139037243999992000081610504+51380-002710FM-15+0189EGGD V0202001N003612200019N0112651N1+01601+01201999999ADDGA1021+004809999GF104991999999999999999999MA1101391999999MW1001REMMET045EGGD 161050Z 20007KT 9999 SCT016 16/12 Q1014;EQDQ01+000000PRSWM2
0162037243999992000081721504+51380-002710FM-15+0189EGGD V0202001N002612200019N0112651N1+01201+01101999999ADDGA1021+003009999GA2021+009009999GF104991999999999999999999MA1101191999999MW1001REMMET052EGGD 172150Z 20005KT 9999 FEW010 SCT030 12/11 Q1012;EQDQ01+000000PRSWM2
0184037243999992000090104504+51380-002710FM-15+0189EGGD V0201901N003110036019N0090001N1+01101+01101999999ADDGA1021+001209999GA2071+003609999GF107991999999999999999999MA1100101999999MW1801REMMET058EGGD 010450Z 19006KT 9000 -SHRA SCT004 BKN012 11/11 Q1001;EQDQ01+000003PRSWM1Q02    003PRSWM1
0162037243999992000090713504+51380-002710FM-15+0189EGGD V0202401N003610030019N0080001N1+01601+01501999999ADDGA1021+002409999GA2071+003009999GF107991999999999999999999MA1101391999999MW1001REMMET052EGGD 071350Z 24007KT 8000 SCT008 BKN010 16/15 Q1014;EQDQ01+000000PRSWM2
0091037243999992000091022204+51380-002710FM-15+0189EGGD V0201101N00311220001CN0099001N1+01601+01401999999ADDMA1101801999999MW1001REMMET039EGGD 102220Z 11006KT CAVOK 16/14 Q1018;EQDQ01+000000PRSWM2
0162037243999992000091401504+51380-002710FM-15+0189EGGD V0201801N002610150019N0112651N1+01301+01101999999ADDGA1021+009009999GA2071+015009999GF107991999999999999999999MA1101291999999MW1001REMMET052EGGD 140150Z 18005KT 9999 FEW030 BKN055 13/11 Q1013;EQDQ01+000000PRSWM2
0162037243999992000091513504+51380-002710FM-15+0189EGGD V0203301N003110045019N0112651N1+01601+01301999999ADDGA1021+003009999GA2071+004509999GF107991999999999999999999MA1100511999999MW1001REMMET052EGGD 151350Z 33006KT 9999 SCT010 BKN015 16/13 Q1005;EQDQ01+000000PRSWM2
0139037243999992000091606504+51380-002710FM-15+0189EGGD V0202701N007212200019N0112651N1+01101+01001999999ADDGA1021+007509999GF102991999999999999999999MA1101291999999MW1001REMMET045EGGD 160650Z 27014KT 9999 FEW025 11/10 Q1013;EQDQ01+000000PRSWM2
0168037243999992000091908504+51380-002710FM-15+0189EGGD V0200701N00261220001CN0004001N1+00801+00701999999ADDED199U15009GA1071+000159999GF107991999999999999999999MA1099701999999MW1001REMMET063EGGD 190850Z 07005KT 0400 R09/1500 R27/0450 BKN000 08/07 Q0997;EQDQ01+000000PRSWM2
0091037243999992000092103504+51380-002710FM-15+0189EGGD V0201401N00411220001CN0099001N1+01001+00801999999ADDMA1100911999999MW1001REMMET039EGGD 210350Z 14008KT CAVOK 10/08 Q1009;EQDQ01+000000PRSWM2
0207037243999992000092116204+51380-002710FM-15+0189EGGD V0201701N004610039019N0070001N1+01601+01401999999ADDGA1021+001509999GA2021+002709999GA3071+003909999GF107991999999999999999999MA1100911999999MW1801REMMET065EGGD 211620Z 17009KT 7000 -SHRA FEW005 SCT009 BKN013 16/14 Q1009;EQDQ01+000003PRSWM1Q02    003PRSWM1
0162037243999992000100508204+51380-002710FM-15+0189EGGD V0202601N004612200019N0112651N1+00901+00701999999ADDGA1021+007509999GA2021+009009999GF104991999999999999999999MA1101491999999MW1001REMMET052EGGD 050820Z 26009KT 9999 SCT025 SCT030 09/07 Q1015;EQDQ01+000000PRSWM2
0184037243999992000100813504+51380-002710FM-15+0189EGGD V0202401N004110105019N0112651N1+01001+00701999999ADDGA1021+003609999GA2071+010509999GF107991999999999999999999MA1101391999999MW1801REMMET058EGGD 081350Z 24008KT 9999 -SHRA FEW012 BKN035 10/07 Q1014;EQDQ01+000003PRSWM1Q02    003PRSWM1
0139037243999992000101617504+51380-002710FM-15+0189EGGD V0202601N006212200019N0112651N1+00901+00601999999ADDGA1021+007509999GF102991999999999999999999MA1100911999999MW1001REMMET045EGGD 161750Z 26012KT 9999 FEW025 09/06 Q1009;EQDQ01+000000PRSWM2
0091037243999992000101700504+51380-002710FM-15+0189EGGD V0202501N00151220001CN0099001N1+00701+00501999999ADDMA1101591999999MW1001REMMET039EGGD 170050Z 25003KT CAVOK 07/05 Q1016;EQDQ01+000000PRSWM2
0139037243999992000101712504+51380-002710FM-15+0189EGGD V0202001N005112200019N0112651N1+01201+00601999999ADDGA1021+009009999GF102991999999999999999999MA1102001999999MW1001REMMET045EGGD 171250Z 20010KT 9999 FEW030 12/06 Q1020;EQDQ01+000000PRSWM2
0139037243999992000101822204+51380-002710FM-15+0189EGGD V0202301N002612200019N0112651N1+00901+00801999999ADDGA1021+006009999GF104991999999999999999999MA1101391999999MW1001REMMET045EGGD 182220Z 23005KT 9999 SCT020 09/08 Q1014;EQDQ01+000000PRSWM2
0185037243999992000102413504+51380-002710FM-15+0189EGGD V0202101N004610075019N0112651N1+01101+00901999999ADDGA1021+002409999GA2021+004509999GA3071+007509999GF107991999999999999999999MA1101691999999MW1001REMMET059EGGD 241350Z 21009KT 9999 FEW008 SCT015 BKN025 11/09 Q1017;EQDQ01+000000PRSWM2
0193037243999992000102913504+51380-002710FM-15+0189EGGD V0202101N008210240019N0112651N1+00901+00501999999ADDGA1021+007209999GA2071+024009999GF107991999999999999999999MA1099801999999MW1611OC101341REMMET059EGGD 291350Z 21016G26KT 9999 -RA SCT024 BKN080 09/05 Q0998;EQDQ01+000003PRSWM1Q02    003PRSWM1
0139037243999992000111305504+51380-002710FM-15+0189EGGD V0202201N002612200019N0112651N1+00401+00401999999ADDGA1021+006009999GF102991999999999999999999MA1099491999999MW1001REMMET045EGGD 130550Z 22005KT 9999 FEW020 04/04 Q0995;EQDQ01+000000PRSWM2
0162037243999992000111316504+51380-002710FM-15+0189EGGD V0202301N002612200019N0112651N1+00401+00401999999ADDGA1021+005409999GA2021+007509999GF104991999999999999999999MA1099591999999MW1001REMMET052EGGD 131650Z 23005KT 9999 FEW018 SCT025 04/04 Q0996;EQDQ01+000000PRSWM2
0162037243999992000111914504+51380-002710FM-15+0189EGGD V0202801N005112200019N0112651N1+00601+00401999999ADDGA1021+006009999GA2021+024009999GF104991999999999999999999MA1099491999999MW1001REMMET052EGGD 191450Z 28010KT 9999 SCT020 SCT080 06/04 Q0995;EQDQ01+000000PRSWM2
0150037243999992000112907204+51380-002710FM-15+0189EGGD V0201701N011312200019N0112651N1+01201+00901999999ADDGA1021+007509999GF104991999999999999999999MA1099491999999MW1001OC101651REMMET048EGGD 290720Z 17022G32KT 9999 SCT025 12/09 Q0995;EQDQ01+000000PRSWM2
0091037243999992000120205504+51380-002710FM-15+0189EGGD V0202101N00671220001CN0099001N1+00801+00601999999ADDMA1100311999999MW1001REMMET039EGGD 020550Z 21013KT CAVOK 08/06 Q1003;EQDQ01+000000PRSWM2
0139037243999992000120218504+51380-002710FM-15+0189EGGD V0202001N004112200019N0112651N1+00701+00501999999ADDGA1021+009009999GF104991999999999999999999MA1100811999999MW1001REMMET045EGGD 021850Z 20008KT 9999 SCT030 07/05 Q1008;EQDQ01+000000PRSWM2
0182037243999992000120721504+51380-002710FM-15+0189EGGD V0201301N007210048019N0112651N1+01101+01001999999ADDGA1021+003009999GA2071+004809999GF107991999999999999999999MA1097901999999MW1611REMMET056EGGD 072150Z 13014KT 9999 -RA SCT010 BKN016 11/10 Q0979;EQDQ01+000003PRSWM1Q02    003PRSWM1
0159037243999992000121606504+51380-002710FM-15+0189EGGD V0201101N002110048019N0112651N1+00101+00001999999ADDGA1071+004809999GF107991999999999999999999MA1101081999999MW1611REMMET049EGGD 160650Z 11004KT 9999 -RA BKN016 01/00 Q1011;EQDQ01+000003PRSWM1Q02    003PRSWM1
0211037243999992000122200504+51380-002710FM-15+0189EGGD V0200801N005110003019N0005001N1+00601+00601999999ADDED199U11009GA1021+000159999GA2071+000309999GF107991999999999999999999MA1101391999999MW1441MW2511REMMET068EGGD 220050Z 08010KT 0500 R09/1100 -DZ FG SCT000 BKN001 06/06 Q1014;EQDQ01+000003PRSWM1Q02    003PRSWM1
0178037243999992000122206504+51380-002710FM-15+0189EGGD V0200701N00571220001CN0004501N1+00501+00501999999ADDED199U04009GA1071+000159999GF107991999999999999999999MA1101191999999MW1441REMMET057EGGD 220650Z 07011KT 0450 R09/0400 FG BKN000 05/05 Q1012;EQDQ01+000003PRSWM1Q02    003PRSWM1
0139037243999992000123117504+51380-002710FM-15+0189EGGD V0201401N012310021019N0112651N1+00301+00201999999ADDGA1071+002109999GF107991999999999999999999MA1099091999999MW1001REMMET045EGGD 311750Z 14024KT 9999 BKN007 03/02 Q0991;EQDQ01+000000PRSWM2
0172037260999992000010313004+51470-002600FM-12+001199999V0202501N00261002101CN0050001N1+00951+00831101771ADDAY161999AY251999GA1041+002109079GF108991081051002501999999MD1810051+9999MW1211REMSYN082AAXX  03134 03726 41350 82505 10095 20083 40177 58005 72165 885// 333 84707 88630;
0138037260999992000010416004+51470-002600FM-12+001199999V0202501N005112200019N0300001N1+00591+00271101291ADDGA1011+006009029GF101991011081008001001011MD1210271+9999REMSYN070AAXX  04164 03726 42580 12510 10059 20027 40129 52027 81801 333 81820;
0144037260999992000011211004+51470-002600FM-12+001199999V0202101N00571007501CN0200001N1+00951+00481102251ADDGA1031+006009069GF107991071051008001999999MD1710081+9999REMSYN076AAXX  12114 03726 42570 72111 10095 20048 40225 57008 875// 333 83620 87635;
0142037260999992000011514004+51470-002600FM-12+001199999V0200601N00411009001CN0090001N1+00701+00161103901ADDGA1031+004509029GF105991051081004501001001MD1110071+9999REMSYN074    AAXX  15144 03726 42459 50608 10070 20016 40390 51007 85800 333 83815;
0138037260999992000012307004+51470-002600FM-12+001199999V0203301N002610105019N0250001N1+00411-00051102541ADDGA1071+010509059GF107991071051012501999999MD1310011+9999REMSYN070AAXX  23074 03726 42675 73305 10041 21005 40254 53001 875// 333 87635;
0138037260999992000012407004+51470-002600FM-12+001199999V0209999C000010120019N0200001N1+00341+00051102421ADDGA1071+012009059GF107991071051012501999999MD1710101+9999REMSYN070AAXX  24074 03726 42670 70000 10034 20005 40242 57010 875// 333 87640;
0160037260999992000012611004+51470-002600FM-12+001199999V0209999C000010001519N0001001N1-00171-00251103421ADDAY141999AY241999GA1091+000159999GF109991091999999999999999MD1210081+9999MW1451REMSYN070AAXX  26114 03726 41/01 90000 11017 21025 40342 52008 74544 333 89/00;
0200037260999992000012815004+51470-002600FM-12+001199999V0202501N008210090019N0200001N1+00761+00341101151ADDAY161031AY221031GA1041+005409069GA2081+009009069GF108991081051004501999999MD1610291+9999MW1211REMSYN094AAXX  28154 03726 41470 82516 10076 20034 40115 56029 72162 885// 333 84618 88630 90710 91127;
0200037260999992000012908004+51470-002600FM-12+001199999V0202601N009810024019N0070001N1+00971+00781100151ADDAY151999AY221999GA1061+002409079GA2081+005409069GF108991081051002501999999MD1210031+9999MW1201REMSYN094AAXX  29084 03726 41357 82619 10097 20078 40015 52003 72052 885// 333 86708 88618 90710 91132;
0144037260999992000020905004+51470-002600FM-12+001199999V0202601N005112200019N0200001N1+00721+00031102211ADDGA1011+006009069GF103991031051008001001001MD1110241+9999REMSYN076AAXX  09054 03726 42570 32610 10072 20003 40221 51024 83500 333 81620 83640;
0138037260999992000021503004+51470-002600FM-12+001199999V0202901N004612200019N0200001N1+00661+00251102031ADDGA1011+007509059GF101991011051008001001001MD1210101+9999REMSYN070AAXX  15034 03726 42570 12909 10066 20025 40203 52010 81500 333 81625;
0172037260999992000021814004+51470-002600FM-12+001199999V0202701N007210075019N0160001N1+00941+00291100461ADDGA1051+007509089GA2031+012009069GF106991061081008001999999MD1310011+9999REMSYN088AAXX  18144 03726 42566 62714 10094 20029 40046 53001 868// 333 85825 83640 90710 91134;
0222037260999992000022723004+51470-002600FM-12+001199999V0202801N004110030019N0100001N1+00811+00721100491ADDAY161999AY261999GA1031+001509079GA2041+003009079GA3081+007509069GF108991081051001501999999MD1510141+9999MW1611REMSYN100AAXX  27234 03726 41260 82808 10081 20072 40049 55014 76166 885// 333 83705 84710 88625 90710 91128;
0184037260999992000030500004+51470-002600FM-12+001199999V0209999C000010150019N0250001N1+00331-00141103401ADDAA199000091GA1051+015009059GF105991051051017501999001MD1110061+9999REMSYN070AAXX  05004 03726 32775 50000 10033 21014 40340 51006 85500 333 85650;EQDQ01  00002PRCP99Q02    003SCOMCG
0189037260999992000030800004+51470-002600FM-12+001199999V0202501N00621002101CN0080001N1+01091+00851102421ADDAA106000791AY151061AY221061GA1021+002409079GF108991081061002501999999MD1810071+9999MW1051REMSYN088AAXX  08004 03726 11358 82512 10109 20085 40242 58007 69901 70552 886// 333 82708 88712;
0221037260999992000031106004+51470-002600FM-12+001199999V0202501N00261002101CN0050001N1+00981+00791102191ADDAA199000091AY121061AY221061GA1011+001809079GF105991051051002501031001KA1120N+00861MD1510011+9999MW1051REMSYN088AAXX  11064 03726 31350 52505 10098 20079 40219 55001 70522 85530 333 20086 81706 84640;EQDQ01  00002PRCP99
0122037260999992000031821004+51470-002600FM-12+001199999V0200601N002612200019N0120001N1+00891+00111103801ADDGA1001+999999999GF100991001001999999001001MD1210081+9999REMSYN054AAXX  18214 03726 42962 00605 10089 20011 40380 52008;
0167037260999992000031906004+51470-002600FM-12+001199999V0209999C000012200019N0080001N1+00401+00201103861ADDAA199000091GA1001+999999999GF100991001001999999001001MD1310051+9999REMSYN069AAXX  19064 03726 31958 00000 10040 20020 40386 53005 0500 333 20039;EQDQ01  00002PRCP99
0138037260999992000032702004+51470-002600FM-12+001199999V0200101N004112200019N0150001N1+00491+00111101321ADDGA1021+012009059GF102991021051012501001001MD1210151+9999REMSYN070AAXX  27024 03726 42665 20108 10049 20011 40132 52015 82500 333 82640;
0150037260999992000032801004+51470-002600FM-12+001199999V0200401N004610075019N0200001N1+00541-00071102231ADDGA1071+007509069GF107991071051008001999999MD1010011+9999REMSYN082AAXX  28014 03726 42570 70409 10054 21007 40223 50001 875// 333 87625 90710 91125;
0138037260999992000040501004+51470-002600FM-12+001199999V0200101N005710075019N0300001N1+00351-00361101291ADDGA1051+007509059GF105991051051008001001001MD1210191+9999REMSYN070AAXX  05014 03726 42580 50111 10035 21036 40129 52019 85500 333 85625;
0172037260999992000041920004+51470-002600FM-12+001199999V0201501N005110012019N0040001N1+01081+00981100371ADDAY161999AY251999GA1061+001209079GF108991081051001501999999MD1710151+9999MW1581REMSYN082AAXX  19204 03726 41240 81510 10108 20098 40037 57015 75865 885// 333 86704 88615;
0144037260999992000042317004+51470-002600FM-12+001199999V0202201N004112200019N0250001N1+01291+00621100961ADDGA1011+007509099GF104991031091008001001031MD1310021+9999REMSYN076AAXX  23174 03726 42575 42208 10129 20062 40096 53002 83903 333 81925 83072;
0144037260999992000042401004+51470-002600FM-12+001199999V0201501N000512200019N0150001N1+00841+00671101011ADDGA1011+006009089GF103991031081008001001001MD1710061+9999REMSYN076AAXX  24014 03726 42565 31501 10084 20067 40101 57006 83800 333 81820 83640;
0080037260999992000051317004+51470-002600FM-12+001199999V0209999C000019999999N9999999N1+02271+01281102121ADDMD1710081+9999REMSYN054AAXX  13174 03726 46/// /0000 10227 20128 40212 57008;
0215037260999992000051406004+51470-002600FM-12+001199999V0209999C000010750019N0035001N1+01371+01151102291ADDAA199000091AY111061AY211061GA1071+075009019GF107991001001999999001011KA1120N+01261MD1210031+9999MW1101REMSYN082AAXX  14064 03726 31935 70000 10137 20115 40229 52003 71011 80001 333 20126 87075;EQDQ01  00002PRCP99
0144037260999992000051601004+51470-002600FM-12+001199999V0202501N002110300019N0200001N1+01271+00981101411ADDGA1041+009009069GF106991041051012501031001MD1710141+9999REMSYN076AAXX  16014 03726 42670 62504 10127 20098 40141 57014 84530 333 84630 86360;
0222037260999992000051715004+51470-002600FM-12+001199999V0202501N007710090019N0150001N1+01051+00721101151ADDAY181031AY221031GA1021+002709079GA2051+009009089GA3081+036009049GF108991051021002501021999MD1710021+9999MW1801REMSYN100AAXX  17154 03726 41365 82515 10105 20072 40115 57002 78082 8522/ 333 82709 85830 88462 90710 91134;
0208037260999992000052018004+51470-002600FM-12+001199999V0201901N001510120019N0120001N1+01121+00841101081ADDAA112001091AY161061AY261061GA1061+012009069GF108991061051012501021999KA1120M+01521MD1710101+9999MW1631REMSYN094AAXX  20184 03726 11662 81903 10112 20084 40108 57010 60012 76366 8652/ 333 10152 86640 88556;
0187037260999992000053106004+51470-002600FM-12+001199999V0209999C000010900019N0100001N1+00931+00671101881ADDAA199000091GA1051+090009019GF105991001001999999001011KA1120N+00791MD1310131+9999REMSYN076AAXX  31064 03726 32960 50000 10093 20067 40188 53013 80001 333 20079 85080;EQDQ01  00002PRCP99
0144037260999992000061508004+51460-002590FM-12+001199999V0202501N00411001201CN0035001N1+01481+01301102641ADDGA1021+001209079GF108991081061001501999999MD1110101+9999REMSYN076AAXX  15084 03726 42235 82508 10148 20130 40264 51010 886// 333 82704 88710;
0138037260999992000061804004+51460-002590FM-12+001199999V0201301N000512200019N0090001N1+01711+01281102321ADDGA1011+036009079GF101991011001999999031011MD1710091+9999REMSYN070AAXX  18044 03726 42959 11301 10171 20128 40232 57009 81031 333 81362;
0200037260999992000062121004+51460-002590FM-12+001199999V0202301N003610120019N0300001N1+01381+01021100921ADDAY181031AY211031GA1041+007509089GA2061+012009069GF107991071081008001999999MD1310061+9999MW1021REMSYN094AAXX  21214 03726 41580 72307 10138 20102 40092 53006 70281 878// 333 84825 86640 90710 91126;
0168037260999992000062400004+51460-002590FM-12+001199999V0202801N003612200019N0250001N1+01201+00561102011ADDAA199000091GA1031+009009059GF103991031051012501001001MD1810041+9999REMSYN070AAXX  24004 03726 32675 32807 10120 20056 40201 58004 83500 333 83630;EQDQ01  00002PRCP99
0194037260999992000070316004+51460-002590FM-12+001199999V0209999C00001007501CN0110001N1+01831+01431100831ADDAY181999AY221999GA1011+007509099GA2031+009009089GF107991071031008001999999MD1710071+9999MW1251REMSYN088AAXX  03164 03726 41561 70000 10183 20143 40083 57007 72582 873// 333 81925 83830 86640;
0189037260999992000070412004+51460-002590FM-12+001199999V0201301N000510024019N0040001N1+01741+01451100761ADDAA106001091AY161061AY221061GA1051+002409079GF108991081051002501999999MD1210021+9999MW1211REMSYN088AAXX  04124 03726 11340 81301 10174 20145 40076 52002 60011 72162 885// 333 85708 88615;
0166037260999992000070805004+51460-002590FM-12+001199999V0202401N001510150019N0250001N1+01351+01001101991ADDGA1011+004509069GA2051+015009069GF107991051051004501031021MD1710151+9999REMSYN082AAXX  08054 03726 42475 72403 10135 20100 40199 57015 85532 333 81615 85650 85362;
0138037260999992000072005004+51460-002590FM-12+001199999V0209999C000012200019N0300001N1+01611+01211102341ADDGA1011+006009029GF102991021081008001001001MD1310061+9999REMSYN070AAXX  20054 03726 42580 20000 10161 20121 40234 53006 82800 333 81820;
0144037260999992000072415004+51460-002590FM-12+001199999V0200401N003110060019N0150001N1+01541+01011101041ADDGA1061+006009069GF108991081051008001999999MD1710071+9999REMSYN076AAXX  24154 03726 42565 80406 10154 20101 40104 57007 885// 333 86620 88630;
0166037260999992000072601004+51460-002590FM-12+001199999V0209999C000010150019N0070001N1+01601+01241100801ADDAY121999AY221999GA1071+015009059GF107991071051017501999999MD1710041+9999MW1051REMSYN076AAXX  26014 03726 41757 70000 10160 20124 40080 57004 70522 875// 333 87650;
0166037260999992000072702004+51460-002590FM-12+001199999V0209999C000010300019N0080001N1+01561+01311101301ADDAY121999AY221999GA1061+030009079GF106991061001999999031999MD1810041+9999MW1051REMSYN076AAXX  27024 03726 41958 60000 10156 20131 40130 58004 70522 8603/ 333 86360;
0172037260999992000081708004+51460-002590FM-12+001199999V0202201N00361006001CN0090001N1+01541+01401101151ADDAY181999AY221999GA1021+002409079GF106991061081002501999999MD1210151+9999MW1801REMSYN082AAXX  17084 03726 41359 62207 10154 20140 40115 52015 78082 868// 333 82708 84818;
0180037260999992000081806004+51460-002590FM-12+001199999V0209999C00001012001CN0220001N1+01431+01231101161ADDAA112004191GA1011+006009089GF108991071081008001071999KA1120N+01361MD1710031+9999REMSYN088AAXX  18064 03726 12572 80000 10143 20123 40116 57003 60042 8787/ 333 20136 81820 87650;
0144037260999992000082616004+51460-002590FM-12+001199999V0202701N00461015001CN0120001N1+01971+01291100961ADDGA1011+009009089GF108991081081012501999999MD1710011+9999REMSYN076AAXX  26164 03726 42662 82709 10197 20129 40096 57001 888// 333 81830 88640;
0138037260999992000090219004+51460-002590FM-12+001199999V0200201N002112200019N0250001N1+01751+01111101421ADDGA1031+012009059GF103991031051012501001001MD1210241+9999REMSYN070AAXX  02194 03726 42675 30204 10175 20111 40142 52024 83500 333 83640;
0187037260999992000090318004+51460-002590FM-12+001199999V0200501N003112200019N0400001N1+01781+00521102151ADDAA199000091GA1011+012009029GF101991011011012501001011KA1120M+01961MD1310021+9999REMSYN076AAXX  03184 03726 32682 10506 10178 20052 40215 53002 81101 333 10196 81840;EQDQ01  00002PRCP99
0144037260999992000090616004+51460-002590FM-12+001199999V0202901N005710750019N0500001N1+01751+00591101271ADDGA1011+009009089GF106991011011012501001021MD1210141+9999REMSYN076AAXX  06164 03726 42684 62911 10175 20059 40127 52014 81102 333 81830 86075;
0144037260999992000090709004+51460-002590FM-12+001199999V0202201N00461004201CN0150001N1+01511+01101101541ADDGA1041+004509069GF108991081051004501999999MD1210041+9999REMSYN076AAXX  07094 03726 42465 82209 10151 20110 40154 52004 885// 333 84615 88620;
0157037260999992000091222004+51460-002590FM-12+001199999V0202401N000512200019N0150001N1+01631+01381101421ADDGA1031+015009059GF103991031051017501999001MD1110121+9999REMSYN070AAXX  12224 03726 42765 32401 10163 20138 40142 51012 83500 333 83650;EQDQ01    003SCOMCG
0200037260999992000092416004+51460-002590FM-12+001199999V0203101N002610060019N0050001N1+01321+01171101351ADDAY191999AY221999GA1011+003009079GA2041+006009099GF107991071091004501999999MD1510001+9999MW1951REMSYN094AAXX  24164 03726 41450 73105 10132 20117 40135 55000 79592 879// 333 81710 84920 90710 91126;
0172037260999992000092613004+51460-002590FM-12+001199999V0202001N007210075019N0300001N1+01991+01391101011ADDGA1051+007509089GA2031+075009009GF106991051081008001001011MD1710151+9999REMSYN088AAXX  26134 03726 42580 62014 10199 20139 40101 57015 85801 333 85825 83075 90710 91129;
0144037260999992000092623004+51460-002590FM-12+001199999V0202401N00461007501CN0250001N1+01371+01151101311ADDGA1021+006009069GF106991061051008001001001MD1210071+9999REMSYN076AAXX  26234 03726 42575 62409 10137 20115 40131 52007 86500 333 82620 86635;
0172037260999992000100311004+51460-002590FM-12+001199999V0202001N00511004201CN0120001N1+01651+01421101551ADDAY151999AY221999GA1041+003609079GF107991071051004501999999MD1710041+9999MW1501REMSYN082AAXX  03114 03726 41462 72010 10165 20142 40155 57004 75052 875// 333 84712 87625;
0138037260999992000100410004+51460-002590FM-12+001199999V0202501N004112200019N0250001N1+01391+00651101981ADDGA1031+012009059GF103991031051012501001001MD1110101+9999REMSYN070AAXX  04104 03726 42675 32508 10139 20065 40198 51010 83500 333 83640;
0122037260999992000100602004+51460-002590FM-12+001199999V0202901N001512200019N0250001N1+00931+00581102561ADDGA1001+999999999GF100991001001999999001001MD1210081+9999REMSYN054AAXX  06024 03726 42975 02903 10093 20058 40256 52008;
0122037260999992000100603004+51460-002590FM-12+001199999V0202901N002612200019N0250001N1+00921+00571102571ADDGA1001+999999999GF100991001001999999001001MD1110071+9999REMSYN054AAXX  06034 03726 42975 02905 10092 20057 40257 51007;
0174037260999992000101400004+51460-002590FM-12+001199999V0202201N00151030001CN0250001N1+01051+00741101441ADDAA199000091GA1011+012009069GF107991011051012501071999MD1010021+9999REMSYN076AAXX  14004 03726 32675 72203 10105 20074 40144 50002 8157/ 333 81640 87362;EQDQ01  00002PRCP99
0144037260999992000101403004+51460-002590FM-12+001199999V0202301N00311030001CN0200001N1+01061+00681101391ADDGA1021+012009069GF108991021051012501071999MD1810051+9999REMSYN076AAXX  14034 03726 42670 82306 10106 20068 40139 58005 8257/ 333 82640 88362;
0174037260999992000101518004+51460-002590FM-12+001199999V0209999C000010105019N0150001N1+01411+01131101061ADDAA112000791GA1081+010509059GF108991081051012501999999KA1120M+01541MD1710121+9999REMSYN082AAXX  15184 03726 12665 80000 10141 20113 40106 57012 69902 885// 333 10154 88635;
0200037260999992000101801004+51460-002590FM-12+001199999V0201901N006710024019N0060001N1+01351+01161101291ADDAY161999AY261999GA1061+002409079GA2081+006009069GF108991081051002501999999MD1710341+9999MW1611REMSYN094AAXX  18014 03726 41356 81913 10135 20116 40129 57034 76166 885// 333 86708 88620 90710 91127;
0194037260999992000101817004+51460-002590FM-12+001199999V0202401N002110054019N0060001N1+01311+01181101411ADDAY161999AY221999GA1021+003009079GA2031+005409089GF106991051081004501001081MD1510021+9999MW1211REMSYN088AAXX  18174 03726 41456 62404 10131 20118 40141 55002 72162 85808 333 82710 83818 86272;
0157037260999992000102609004+51460-002590FM-12+001199999V0202601N003612200019N0250001N1+01121+00631101591ADDGA1011+018009059GF101991011051017501999011MD1210131+9999REMSYN070AAXX  26094 03726 42775 12607 10112 20063 40159 52013 81501 333 81656;EQDQ01+000002SCOMCG
0172037260999992000102704004+51460-002590FM-12+001199999V0202101N005110024019N0050001N1+01141+00961101041ADDAY161999AY251999GA1051+002409079GF108991081051002501999999MD1810281+9999MW1511REMSYN082AAXX  27044 03726 41350 82110 10114 20096 40104 58028 75165 885// 333 85708 88625;
0222037260999992000110103004+51460-002590FM-12+001199999V0202501N009810090019N0080001N1+00701+00421099201ADDAY181031AY221031GA1011+003009079GA2031+006009089GA3051+009009069GF107991071081004501999999MD1610131+9999MW1811REMSYN100AAXX  01034 03726 41458 72519 10070 20042 49920 56013 78182 878// 333 81710 83820 85630 90710 91131;
0215037260999992000110418004+51460-002590FM-12+001199999V0209999C000012200019N0090001N1+00851+00591100971ADDAA199000091AY101061AY201061GA1011+007509029GF104991021081008001031011KA1120M+01171MD1210131+9999MW1041REMSYN082AAXX  04184 03726 31559 40000 10085 20059 40097 52013 70400 82831 333 10117 81825;EQDQ01  00002PRCP99
0144037260999992000110822004+51460-002590FM-12+001199999V0202701N004110120019N0250001N1+00821+00531099631ADDGA1011+006009089GF107991071081008001999999MD1110191+9999REMSYN076AAXX  08224 03726 42575 72708 10082 20053 49963 51019 878// 333 81820 87640;
0144037260999992000110915004+51460-002590FM-12+001199999V0202501N005710120019N0350001N1+00961+00391100671ADDGA1031+007509089GF106991051081008001031011MD1310151+9999REMSYN076AAXX  09154 03726 42581 62511 10096 20039 40067 53015 85831 333 83825 84640;
0150037260999992000111507004+51460-002590FM-12+001199999V0209999C000012200019N0001001N1+00361+00341100851ADDAY141999AY201999GA1001+999999999GF100991001001999999001001MD1210041+9999MW1461REMSYN060AAXX  15074 03726 41901 00000 10036 20034 40085 52004 74640;
0150037260999992000111711004+51460-002590FM-12+001199999V0202901N005112200019N0300001N1+00831+00231101271ADDGA1011+009009089GF101991011081012501001001MD1210091+9999REMSYN082AAXX  17114 03726 42680 12910 10083 20023 40127 52009 81800 333 81830 90710 91125;
0138037260999992000112001004+51460-002590FM-12+001199999V0202701N002612200019N0280001N1+00591+00301099731ADDGA1011+007509059GF102991021051008001001001MD1710021+9999REMSYN070AAXX  20014 03726 42578 22705 10059 20030 49973 57002 82500 333 81625;
0144037260999992000112516004+51460-002590FM-12+001199999V0202301N005112200019N0150001N1+01041+00511098801ADDGA1011+012009069GF103991011051012501001021MD1710051+9999REMSYN076AAXX  25164 03726 42665 32310 10104 20051 49880 57005 81502 333 81640 83075;
0138037260999992000113010004+51460-002590FM-12+001199999V0201501N005110045019N0120001N1+01071+00831100841ADDGA1081+004509059GF108991081051004501999999MD1710061+9999REMSYN070AAXX  30104 03726 42462 81510 10107 20083 40084 57006 885// 333 88615;
0138037260999992000120116004+51460-002590FM-12+001199999V0202101N003612200019N0250001N1+01261+00751099901ADDGA1011+006009029GF102991011021008001001021MD1310261+9999REMSYN070AAXX  01164 03726 42575 22107 10126 20075 49990 53026 81202 333 81820;
0172037260999992000121301004+51460-002590FM-12+001199999V0202501N018510090019N0200001N1+01111+00341099641ADDGA1021+006009089GA2031+009009069GF105991051081008001001001MD1310321+9999REMSYN088AAXX  13014 03726 42570 52536 10111 20034 49964 53032 85800 333 82820 83630 90710 91157;
0166037260999992000122117004+51460-002590FM-12+001199999V0200901N002610024019N0040001N1+00771+00641101611ADDAY151999AY221999GA1081+002409069GF108991081061002501999999MD1210071+9999MW1501REMSYN076AAXX  21174 03726 41340 80905 10077 20064 40161 52007 75052 886// 333 88708;
0166037260999992000122203004+51460-002590FM-12+001199999V0200801N002610009019N0025001N1+00721+00561101561ADDAY151031AY221031GA1081+000909069GF108991081061001501999999MD1710081+9999MW1501REMSYN076AAXX  22034 03726 41225 80805 10072 20056 40156 57008 75052 886// 333 88703;
0166037260999992000122204004+51460-002590FM-12+001199999V0200801N003610015019N0040001N1+00691+00511101521ADDAY151999AY221999GA1081+001509069GF108991081061001501999999MD1810091+9999MW1201REMSYN076AAXX  22044 03726 41240 80807 10069 20051 40152 58009 72052 886// 333 88705;
0172037260999992000122409004+51460-002590FM-12+001199999V0200601N003110015019N0050001N1+00581+00511100141ADDAY161031AY261031GA1061+001509079GF108991081071001501999999MD1510041+9999MW1611REMSYN082AAXX  24094 03726 41250 80606 10058 20051 40014 55004 76166 887// 333 86705 88709;
0208037260999992000122418004+51460-002590FM-12+001199999V0200601N005110018019N0060001N1+00451+00281100001ADDAA112004191AY161061AY261061GA1061+001809079GF108991081071002501999999KA1120M+00601MD1110031+9999MW1631REMSYN094AAXX  24184 03726 11356 80610 10045 20028 40000 51003 60042 76366 887// 333 10060 86706 88710;
0138037260999992000123103004+51460-002590FM-12+001199999V0209999C000012200019N0200001N1-00121-00291101531ADDGA1031+066009019GF103991001001999999001021MD1810081+9999REMSYN070AAXX  31034 03726 42970 30000 11012 21029 40153 58008 80002 333 83072;
0172037400999992000010215004+51500-001980FM-12+0156EGDL V0201601N00211002101CN0300001N1+00751+00661102501ADDAY151031AY221031GA1031+001809079GF107991071061002501999999MD1610171+9999MW1201REMSYN082AAXX  02154 03740 41380 71604 10075 20066 40250 56017 72052 876// 333 83706 87710;
0144037400999992000010411004+51500-001980FM-12+0156EGDL V0201901N00361075001CN0110001N1+00391+00341101221ADDGA1011+002109079GF105991021061002501031021MD1810211+9999REMSYN076AAXX  04114 03740 42361 51907 10039 20034 40122 58021 82632 333 81707 83365;
0102037400999992000010501504+51500-001980FM-15+0156EGDL V0202101N00311220001CN0099001N1+00201-00101999999ADDMA1101591999999MW1001REMMET050EGDL 050150Z 21006KT CAVOK 02/M01 Q1016 BLU NOSIG;EQDQ01+000000PRSWM2
0172037400999992000010605004+51500-001980FM-12+0156EGDL V0202101N005110087019N0250001N1+00851+00611100741ADDAY161999AY221999GA1061+008709069GF108991061051008001021999MD1110081+9999MW1211REMSYN082AAXX  06054 03740 41575 82110 10085 20061 40074 51008 72162 8652/ 333 86629 88458;
0202037400999992000010618004+51500-001980FM-12+0156EGDL V0202301N003612200019N0200001N1+00521+00331101751ADDAA112000791AY181061AY211061GA1021+009009059GF103991021051012501001011KA1120M+01001MD1210281+9999MW1031REMSYN088AAXX  06184 03740 11670 32307 10052 20033 40175 52028 69902 70381 82501 333 10100 82630;
0101037400999992000010708504+51500-001980FM-15+0156EGDL V0202101N00361220001CN0099001N1+00601+00501999999ADDMA1101691999999MW1001REMMET049EGDL 070850Z 21007KT CAVOK 06/05 Q1017 BLU NOSIG;EQDQ01+000000PRSWM2
0142037400999992000011610004+51500-001980FM-12+015699999V0203501N002610054019N0120001N1+00091-00141104251ADDGA1061+005409059GF107991061051004501999021MD1310021+9999REMSYN074    AAXX  16104 03740 42462 73505 10009 21014 40425 53002 865/2 333 86618;
0170037400999992000011709004+51500-001980FM-12+015699999V0203201N003610009019N0080001N1+00351+00281103981ADDAY121031AY221031GA1081+000909069GF108991081061001501999999MD1310011+9999MW1101REMSYN080    AAXX  17094 03740 41258 83207 10035 20028 40398 53001 71022 886// 333 88703;
0166037400999992000012007004+51500-001980FM-12+0156EGDL V0202001N002110066019N0045001N1+00151+00011103621ADDAY121011AY221011GA1071+006609059GF107991071051008001999999MD1610131+9999MW1051REMSYN076AAXX  20074 03740 41545 72004 10015 20001 40362 56013 70522 875// 333 87622;
0168037400999992000012409504+51500-001980FM-15+0156EGDL V0209999C000010036019N0112651N1+00201+00001999999ADDGA1081+003609999GF108991999999999999999999MA1102401999999MW1001REMMET074EGDL 240950Z 00000KT 9999 OVC012 02/M00 Q1024 GRN BECMG FEW012 BKN030 BLU;EQDQ01+000000PRSWM2
0226037400999992000013118504+51500-001980FM-15+0156EGDL V0202201N004610030019N0112651N1+00901+00701999999ADDGA1021+002409999GA2071+003009999GA3081+004509999GF108991999999999999999999MA1102101999999MW1511REMMET084EGDL 311850Z 22009KT 9999 -DZ FEW008 BKN010 OVC015 09/07 Q1021 GRN TEMPO SCT006 YLO;EQDQ01+000003PRSWM1Q02    003PRSWM1
0138037400999992000020211004+51500-001980FM-12+0156EGDL V0202901N004112200019N0350001N1+00681+00221102351ADDGA1011+009009059GF101991011051012501001011MD1110331+9999REMSYN070AAXX  02114 03740 42681 12908 10068 20022 40235 51033 81501 333 81630;
0138037400999992000020301004+51500-001980FM-12+0156EGDL V0202701N005712200019N0250001N1+00561+00191103191ADDGA1021+010509059GF102991021051012501001001MD1210091+9999REMSYN070AAXX  03014 03740 42675 22711 10056 20019 40319 52009 82500 333 82635;
0149037400999992000020302504+51500-001980FM-15+0156EGDL V0202501N003110096019N0112651N1+00601+00301999999ADDGA1071+009609999GF107991999999999999999999MA1103121999999MW1001REMMET055EGDL 030250Z 25006KT 9999 BKN032 06/03 Q1031 BLU NOSIG;EQDQ01+000000PRSWM2
0172037400999992000020314004+51500-001980FM-12+0156EGDL V0202301N00311004201CN0150001N1+00701+00571103401ADDAY161999AY261999GA1041+003009079GF108991071051004501021999MD1810031+9999MW1611REMSYN082AAXX  03144 03740 41465 82306 10070 20057 40340 58003 76166 8752/ 333 84710 86628;
0166037400999992000020409004+51500-001980FM-12+0156EGDL V0202101N005110027019N0300001N1+00771+00641103241ADDAY161031AY221031GA1081+002709069GF108991081071002501999999MD1310051+9999MW1211REMSYN076AAXX  04094 03740 41380 82110 10077 20064 40324 53005 72162 887// 333 88709;
0194037400999992000020613504+51500-001980FM-15+0156EGDL V0202101N007710024019N0112651N1+01001+00901999999ADDGA1071+002409999GA2071+004809999GF107991999999999999999999MA1101191999999MW1001OC101541REMMET076EGDL 061350Z 21015G30KT 9999 BKN008 BKN016 10/09 Q1012 GRN TEMPO BKN015 WHT;EQDQ01+000000PRSWM2
0207037400999992000020618504+51500-001980FM-15+0156EGDL V0202501N005710015019N0112651N1+01001+00901999999ADDGA1071+001509999GA2071+004209999GF107991999999999999999999MA1100811999999MW1611REMMET081EGDL 061850Z 25011KT 9999 -RA BKN005 BKN014 10/09 Q1008 YLO BECMG NSW BKN015 WHT;EQDQ01+000003PRSWM1Q02    003PRSWM1
0172037400999992000020811004+51500-001980FM-12+0156EGDL V0202601N012310090019N0150001N1+01111+00801100161ADDGA1031+004509069GA2041+009009069GF105991051051004501001001MD1310121+9999REMSYN088AAXX  08114 03740 42465 52624 10111 20080 40016 53012 85500 333 83615 84630 90710 91136;
0144037400999992000020923004+51500-001980FM-12+0156EGDL V0202001N00571007501CN0200001N1+00771+00451101971ADDGA1031+006009069GF108991081051008001999999MD1710311+9999REMSYN076AAXX  09234 03740 42570 82011 10077 20045 40197 57031 885// 333 83620 88635;
0200037400999992000021008004+51500-001980FM-12+0156EGDL V0202001N008710024019N0100001N1+00801+00741100561ADDAY161999AY261999GA1061+002409079GA2081+004209079GF108991081071002501999999MD1710271+9999MW1631REMSYN094AAXX  10084 03740 41360 82017 10080 20074 40056 57027 76366 887// 333 86708 88714 90710 91136;
0150037400999992000021016504+51500-001980FM-15+0156EGDL V0202801N005112200019N0112651N1+00501-00301999999ADDGA1021+009009999GF102991999999999999999999MA1101801999999MW1001REMMET056EGDL 101650Z 28010KT 9999 FEW030 05/M03 Q1018 BLU NOSIG;EQDQ01+000000PRSWM2
0183037400999992000021112504+51500-001980FM-15+0156EGDL V0202401N006212200019N0112651N1+00901+00401999999ADDGA1021+006609999GA2021+009609999GF104991999999999999999999MA1102711999999MW1001REMMET073EGDL 111250Z 24012KT 9999 SCT022 SCT032 09/04 Q1027 WHT BECMG SCT025 BLU;EQDQ01+000000PRSWM2
0101037400999992000021309504+51500-001980FM-15+0156EGDL V0202901N00261220001CN0099001N1+00601+00101999999ADDMA1101901999999MW1001REMMET049EGDL 130950Z 29005KT CAVOK 06/01 Q1019 BLU NOSIG;EQDQ01+000000PRSWM2
0102037400999992000021401504+51500-001980FM-15+0156EGDL V0201701N00151220001CN0099001N1+00101-00201999999ADDMA1102401999999MW1001REMMET050EGDL 140150Z 17003KT CAVOK 01/M02 Q1024 BLU NOSIG;EQDQ01+000000PRSWM2
0150037400999992000021700504+51500-001980FM-15+0156EGDL V0202701N006712200019N0112651N1+00401+00001999999ADDGA1021+007809999GF104991999999999999999999MA1100611999999MW1001REMMET056EGDL 170050Z 27013KT 9999 SCT026 04/M00 Q1006 BLU NOSIG;EQDQ01+000000PRSWM2
0150037400999992000021703504+51500-001980FM-15+0156EGDL V0202801N006212200019N0112651N1+00301-00101999999ADDGA1021+010509999GF104991999999999999999999MA1100711999999MW1001REMMET056EGDL 170350Z 28012KT 9999 SCT035 03/M01 Q1007 BLU NOSIG;EQDQ01+000000PRSWM2
0149037400999992000021712004+51500-001980FM-12+0156EGDL V0202601N004112200019N0350001N1+00671-00031101471ADDAA199000021GA1011+009609029GF102991011011012501001021MD1110151+9999REMSYN070AAXX  17124 03740 32681 22608 10067 21003 40147 51015 81102 333 81832;
0196037400999992000022208504+51500-001980FM-15+0156EGDL V0201601N001510360019N0112651N1+00201+00001999999ADDGA1021+007509999GA2021+027009999GA3071+036009999GF107991999999999999999999MA1102301999999MW1001REMMET070EGDL 220850Z 16003KT 9999 FEW025 SCT090 BKN120 02/M00 Q1023 BLU NOSIG;EQDQ01+000000PRSWM2
0172037400999992000022309004+51500-001980FM-12+0156EGDL V0202001N00261030001CN0100001N1+00701+00631102141ADDAY141031AY221031GA1041+002709079GF107991041061002501031999MD1310081+9999MW1011REMSYN082AAXX  23094 03740 41360 72005 10070 20063 40214 53008 70142 8463/ 333 84709 86363;
0149037400999992000022512004+51500-001980FM-12+0156EGDL V0202601N003612200019N0300001N1+00731+00141103081ADDAA199000021GA1011+006609029GF101991011011008001001001MD1110161+9999REMSYN070AAXX  25124 03740 32580 12607 10073 20014 40308 51016 81100 333 81822;
0138037400999992000022513004+51500-001980FM-12+0156EGDL V0202701N004612200019N0350001N1+00811+00031103071ADDGA1011+008409029GF101991011011008001001001MD1010081+9999REMSYN070AAXX  25134 03740 42581 12709 10081 20003 40307 50008 81100 333 81828;
0216037400999992000022700504+51500-001980FM-15+0156EGDL V0201901N006210030019N0080001N1+00901+00701999999ADDGA1071+003009999GA2081+009009999GF108991999999999999999999MA1102101999999MW1511MW2611REMMET084EGDL 270050Z 19012KT 8000 -RADZ BKN010 OVC030 09/07 Q1021 GRN TEMPO 3000 SCT003 YLO;EQDQ01+000003PRSWM1Q02    003PRSWM1
0174037400999992000030112004+51500-001980FM-12+0156EGDL V0203301N007710150019N0350001N1+00661-00111101161ADDAA199000091GA1031+010509089GF106991061081012501999011MD1210301+9999REMSYN076AAXX  01124 03740 32681 63315 10066 21011 40116 52030 868/1 333 83835 83650;EQDQ01  00002PRCP99
0174037400999992000030400004+51500-001980FM-12+0156EGDL V0203101N005112200019N0300001N1+00171-00221102061ADDAA199000091GA1011+018009069GF103991011051017501001011MD1110281+9999REMSYN076AAXX  04004 03740 32780 33110 10017 21022 40206 51028 81501 333 81656 83075;EQDQ01  00002PRCP99
0186037400999992000030617504+51500-001980FM-15+0156EGDL V0202501N006210006019N0050001N1+00901+00901999999ADDGA1081+000609999GF108991999999999999999999MA1102511999999MW1511REMMET076EGDL 1750Z 25012KT 5000 -DZ OVC002 09/09 Q1025 AMB TEMPO 8000 HZ BKN005 YLO;EQDQ01+000003PRSWM1Q02    003PRSWM1
0189037400999992000030820504+51500-001980FM-15+0156EGDL V0202601N007710006019N0035001N1+01001+00901999999ADDGA1081+000609999GF108991999999999999999999MA1102511999999MW1511OC101341REMMET071EGDL 2050Z 26015G26KT 3500 -DZ OVC002 10/09 Q1025 AMB TEMPO SCT001 RED;EQDQ01+000003PRSWM1Q02    003PRSWM1
0167037400999992000030907504+51500-001980FM-15+0156EGDL V0202501N008710012019N0112651N1+00901+00801999999ADDGA1081+001209999GF108991999999999999999999MA1102511999999MW1001REMMET073EGDL 0750Z 25017KT 9999 OVC004 09/08 Q1025 YLO TEMPO 3000 -DZ BKN002 AMB;EQDQ01+000000PRSWM2
0203037400999992000031101504+51500-001980FM-15+0156EGDL V0202401N006710015019N0090001N1+00801+00701999999ADDGA1071+001509999GA2081+005409999GF108991999999999999999999MA1102101999999MW1101REMMET077EGDL 110150Z 24013KT 9000 BR BKN005 OVC018 08/07 Q1021 YLO TEMPO 4000 BR YLO;EQDQ01+000003PRSWM1Q02    003PRSWM1
0179037400999992000031300504+51500-001980FM-15+0156EGDL V0202501N002112200019N0050001N1+00601+00501999999ADDGA1021+075009999GF104991999999999999999999MA1102611999999MW1051REMMET069EGDL 130050Z 25004KT 5000 HZ SCT250 06/05 Q1026 WHTBECMG 4000 BR GRN;EQDQ01+000003PRSWM1Q02    003PRSWM1
0138037400999992000031817004+51500-001980FM-12+0156EGDL V0200201N004112200019N0150001N1+00931+00131103681ADDGA1041+075009019GF104991001001999999001011MD1510021+9999REMSYN070AAXX  18174 03740 42965 40208 10093 20013 40368 55002 80001 333 84075;
0170037400999992000031906504+51500-001980FM-15+0156EGDL V0200701N002112200019N0080001N1+00001-00101999999ADDGA1021+075009999GF102991999999999999999999MA1103691999999MW1051REMMET060EGDL 190650Z 07004KT 8000 HZ FEW250 M00/M01 Q1037 BLU NOSIG;EQDQ01+000003PRSWM1Q02    003PRSWM1
0203037400999992000032022504+51500-001980FM-15+0156EGDL V0200601N002610120019N0090001N1+00901+00601999999ADDGA1021+009009999GA2071+012009999GF107991999999999999999999MA1102611999999MW1051REMMET077EGDL 202250Z 06005KT 9000 HZ FEW030 BKN040 09/06 Q1026 BLU BECMG 5000 HZ WHT;EQDQ01+000003PRSWM1Q02    003PRSWM1
0239037400999992000032206004+51500-001980FM-12+0156EGDL V0209999C000019999999N0045001N1+00271+00001101711ADDAA199000091AY111061AY211061GA1021+033009039GF107991021001999999031011IA2999-00109KA1120N+00251MD1710031+9999MW1051REMSYN094AAXX  22064 03740 31945 70000 10027 20000 40171 57003 70511 82031 333 20025 3/101 82361 86075;EQDQ01  00002PRCP99
0168037400999992000032407504+51500-001980FM-15+0156EGDL V0201801N005110012019N0035001N1+00701+00701999999ADDGA1071+001209999GF107991999999999999999999MA1100411999999MW1101REMMET058EGDL 240750Z 18010KT 3500 BR BKN004 07/07 Q1004 YLO NOSIG;EQDQ01+000003PRSWM1Q02    003PRSWM1
0172037400999992000032609004+51500-001980FM-12+0156EGDL V0202701N00311030001CN0160001N1+00421+00301100771ADDAY161031AY211031GA1021+002709079GF106991031071002501021999MD1310071+9999MW1621REMSYN082AAXX  26094 03740 41366 62706 10042 20030 40077 53007 76261 8372/ 333 82709 86459;
0215037400999992000032903504+51500-001980FM-15+0156EGDL V0200201N009810033019N0112651N1+00201+00001999999ADDGA1021+002409999GA2081+003309999GF108991999999999999999999MA1101801999999MW1611REMMET089EGDL 290350Z 02019KT 9999 -RA SCT008 OVC011 02/M00 Q1018 GRN TEMPO 4000 -RADZ BKN004 YLO;EQDQ01+000003PRSWM1Q02    003PRSWM1
0226037400999992000040906004+51500-001980FM-12+0156EGDL V0200301N00721004201CN0120001N1+00431+00261101501ADDAA112002091AY161061AY221061GA1011+003009079GF106991061051004501999999IA2999+00409KA1120N+00431MD1710041+9999MW1211REMSYN100AAXX  09064 03740 11462 60314 10043 20026 40150 57004 60022 72162 865// 333 20043 3/004 81710 86625;
0157037400999992000041016004+51500-001980FM-12+0156EGDL V0200201N005112200019N0250001N1+01071-00121101341ADDGA1011+015009059GF101991011051017501999001MD1710221+9999REMSYN070AAXX  10164 03740 42775 10210 10107 21012 40134 57022 81500 333 81650;EQDQ01    003SCOMCG
0230037400999992000041218004+51500-001980FM-12+0156EGDL V0203001N002610009019N0030001N1+00391+00321098571ADDAA112007991AY161061AY221061GA1021+000609079GA2051+000909079GF108991081071000751999999KA1120M+00471MD1210051+9999MW1631REMSYN100AAXX  12184 03740 11130 83005 10039 20032 49857 52005 60082 76362 887// 333 10047 82702 85703 88710;
0215037400999992000041307504+51500-001980FM-15+0156EGDL V0203101N005710030019N0112651N1+00401+00201999999ADDGA1021+002409999GA2071+003009999GA3081+003909999GF108991999999999999999999MA1098981999999MW1511REMMET073EGDL 130750Z 31011KT 9999 -DZ FEW008 BKN010 OVC013 04/02 Q0990 GRN NOSIG;EQDQ01+000003PRSWM1Q02    003PRSWM1
0166037400999992000041510004+51500-001980FM-12+0156EGDL V0200201N007210015019N0080001N1+00261+00181099431ADDAY171011AY271011GA1081+001509069GF108991081071001501999999MD1710051+9999MW1691REMSYN076AAXX  15104 03740 41258 80214 10026 20018 49943 57005 76977 887// 333 88705;
0138037400999992000041605004+51500-001980FM-12+0156EGDL V0201701N001512200019N0100001N1+00131-00101099731ADDGA1011+042009079GF101991011001999999041001MD1610071+9999REMSYN070AAXX  16054 03740 42960 11703 10013 21010 49973 56007 81040 333 81364;
0252037400999992000042113504+51500-001980FM-15+0156EGDL V0201901N009310750019N0060001N1+01101+00701999999ADDGA1021+006009099GA2021+012009999GA3071+075009999GF107991999999999999999999MA1100811999999MW1821OC101591REMMET102EGDL 211350Z 19018G31KT 6000 +SHRA SCT020CB SCT040 BKN250 11/07 Q1008 WHT TEMPO 9999 NSW FEW020CB BLU;EQDQ01+000003PRSWM1Q02    003PRSWM1
0144037400999992000042122004+51500-001980FM-12+0156EGDL V0201601N004112200019N0200001N1+00851+00701100961ADDGA1031+013509069GF104991031051012501031001MD1810011+9999REMSYN076AAXX  21224 03740 42670 41608 10085 20070 40096 58001 83530 333 83645 83362;
0149037400999992000042218504+51500-001980FM-15+0156EGDL V0201901N002112200019N0112651N1+01101+00601999999ADDGA1021+006609999GF102991999999999999999999MA1100711999999MW1001REMMET055EGDL 221850Z 19004KT 9999 FEW022 11/06 Q1007 BLU NOSIG;EQDQ01+000000PRSWM2
0197037400999992000042319504+51500-001980FM-15+0156EGDL V0201901N003112200019N0112651N1+00901+00601999999ADDGA1021+006609999GA2021+007509099GA3021+069009999GF104991999999999999999999MA1101021999999MW1001REMMET071EGDL 231950Z 19006KT 9999 FEW022 FEW025CB SCT230 09/06 Q1010 BLU NOSIG;EQDQ01+000000PRSWM2
0199037400999992000042504504+51500-001980FM-15+0156EGDL V0201601N006710021019N0070001N1+01001+00901999999ADDGA1071+002109999GA2071+006009999GF107991999999999999999999MA1100101999999MW1511MW2631REMMET067EGDL 250450Z 16013KT 7000 RADZ BKN007 BKN020 10/09 Q1001 GRN NOSIG;EQDQ01+000003PRSWM1Q02    003PRSWM1
0166037400999992000042805004+51500-001980FM-12+0156EGDL V0209999C000010126019N0170001N1+00741+00511100801ADDGA1021+009909069GA2051+012609069GF107991051051012501071021MD1610081+9999REMSYN082AAXX  28054 03740 42667 70000 10074 20051 40080 56008 85572 333 82633 85642 86358;
0169037400999992000050305504+51500-001980FM-15+0156EGDL V0200401N008210030019N0112651N1+00801+00501999999ADDGA1081+003009999GF108991999999999999999999MA1102511999999MW1511REMMET059EGDL 030550Z 04016KT 9999 -DZ OVC010 08/05 Q1025 GRN NOSIG;EQDQ01+000003PRSWM1Q02    003PRSWM1
0188037400999992000050509504+51500-001980FM-15+0156EGDL V0200401N007710030019N0090001N1+01101+00701999999ADDGA1071+003009999GF107991999999999999999999MA1101691999999MW1051REMMET078EGDL 050950Z 04015KT 9000 HZ BKN010 11/07 Q1017 GRN BECMG 9999 NSW BKN015 WHT;EQDQ01+000003PRSWM1Q02    003PRSWM1
0172037400999992000050821004+51500-001980FM-12+0156EGDL V0200201N00151030001CN0025001N1+01241+01091101871ADDAY121031AY221031GA1011+003609079GF107991011061004501031011MD1310061+9999MW1051REMSYN082AAXX  08214 03740 41425 70203 10124 20109 40187 53006 70522 81631 333 81712 87075;
0144037400999992000051410004+51500-001980FM-12+0156EGDL V0201601N003112200019N0180001N1+01941+01331102351ADDGA1011+006009089GF104991011011008001031011MD1010041+9999REMSYN076AAXX  14104 03740 42568 41606 10194 20133 40235 50004 81131 333 81820 84075;
0144037400999992000051419004+51500-001980FM-12+0156EGDL V0201901N001510750019N0250001N1+02041+01331102091ADDGA1011+013509089GF106991011041012501001021MD1710061+9999REMSYN076AAXX  14194 03740 42675 61903 10204 20133 40209 57006 81402 333 81845 86075;
0149037400999992000051523504+51500-001980FM-15+0156EGDL V0201901N001510096019N0112651N1+01201+00901999999ADDGA1071+009609999GF107991999999999999999999MA1101391999999MW1001REMMET055EGDL 152350Z 19003KT 9999 BKN032 12/09 Q1014 BLU NOSIG;EQDQ01+000000PRSWM2
0138037400999992000051609004+51500-001980FM-12+0156EGDL V0202301N004112200019N0170001N1+01421+00931101141ADDGA1021+004809029GF103991021011004501001011MD1810071+9999REMSYN070AAXX  16094 03740 42467 32308 10142 20093 40114 58007 82101 333 82816;
0144037400999992000051807004+51500-001980FM-12+0156EGDL V0202501N00671075001CN0220001N1+00841+00621100761ADDGA1011+003609079GF105991011061004501031021MD1310051+9999REMSYN076AAXX  18074 03740 42472 52513 10084 20062 40076 53005 81632 333 81712 84359;
0138037400999992000051823004+51500-001980FM-12+0156EGDL V0202601N004610150019N0300001N1+00931+00631101021ADDGA1061+015009059GF106991061051017501999999MD1110071+9999REMSYN070AAXX  18234 03740 42780 62609 10093 20063 40102 51007 865// 333 86650;
0144037400999992000051919004+51500-001980FM-12+0156EGDL V0203001N003112200019N0500001N1+01141+00431101081ADDGA1011+011109089GF104991031081012501001011MD1210131+9999REMSYN076AAXX  19194 03740 42684 43006 10114 20043 40108 52013 83801 333 81837 83656;
0222037400999992000052114004+51500-001980FM-12+0156EGDL V0202601N002610075019N0450001N1+01141+00811100861ADDAY181021AY221021GA1021+006009099GA2031+007509089GA3051+015009069GF107991071031008001999021MD1210081+9999MW1251REMSYN100AAXX  21144 03740 41583 72605 10114 20081 40086 52008 72582 873/2 333 82920 83825 85650 90710 91126;
0180037400999992000052309504+51500-001980FM-15+0156EGDL V0202001N005710021019N0060001N1+01201+01101999999ADDGA1071+002109999GF107991999999999999999999MA1101081999999MW1611REMMET070EGDL 230950Z 20011KT 6000 -RA BKN007 12/11 Q1011 GRN TEMPO BKN005 YLO;EQDQ01+000003PRSWM1Q02    003PRSWM1
0172037400999992000052709004+51500-001980FM-12+0156EGDL V0202301N00771007501CN0300001N1+01001+00521100751ADDAY181031AY211031GA1011+006609099GF107991071091008001999011MD1010031+9999MW1031REMSYN082AAXX  27094 03740 41580 72315 10100 20052 40075 50003 70381 879/1 333 81922 85826;
0197037400999992000052818504+51500-001980FM-15+0156EGDL V0202501N006712200019N0112651N1+01001+00601999999ADDGA1021+006609999GA2021+008109099GF104991999999999999999999MA1100711999999MW1001REMMET087EGDL 281850Z 25013KT 9999 SCT022 SCT027CB 10/06 Q1007 WHT TEMPO 6000 SHRA SCT015CB WHT;EQDQ01+000000PRSWM2
0172037400999992000060416504+51500-001980FM-15+0156EGDL V0202401N003610150019N0112651N1+01601+01001999999ADDGA1021+009609999GA2071+015009999GF107991999999999999999999MA1101801999999MW1001REMMET062EGDL 041650Z 24007KT 9999 FEW032 BKN050 16/10 Q1018 BLU NOSIG;EQDQ01+000000PRSWM2
0149037400999992000061615504+51500-001980FM-15+0156EGDL V0201701N004612200019N0112651N1+02201+01501999999ADDGA1021+009609999GF102991999999999999999999MA1102611999999MW1001REMMET055EGDL 161550Z 17009KT 9999 FEW032 22/15 Q1026 BLU NOSIG;EQDQ01+000000PRSWM2
0144037400999992000061723004+51500-001980FM-12+0156EGDL V0201901N002612200019N0120001N1+01671+01221102501ADDGA1011+036009039GF104991011001999999081011MD1210051+9999REMSYN076AAXX  17234 03740 42962 41905 10167 20122 40250 52005 81081 333 81362 84075;
0101037400999992000061918504+51500-001980FM-15+0156EGDL V0202201N00411220001CN0099001N1+01901+01401999999ADDMA1101391999999MW1001REMMET049EGDL 191850Z 22008KT CAVOK 19/14 Q1014 BLU NOSIG;EQDQ01+000000PRSWM2
0194037400999992000062108504+51500-001980FM-15+0156EGDL V0202201N006710135019N0112651N1+01401+01001999999ADDGA1021+005409999GA2071+013509999GF107991999999999999999999MA1100811999999MW1001OC101181REMMET076EGDL 210850Z 22013G23KT 9999 SCT018 BKN045 14/10 Q1008 WHT BECMG SCT025 BLU;EQDQ01+000000PRSWM2
0202037400999992000062418004+51500-001980FM-12+0156EGDL V0203501N003110150019N0500001N1+01221+00701101921ADDAA112000191GA1011+009009089GA2061+015009069GF107991071081012501999999KA1120M+01591MD1310011+9999REMSYN094AAXX  24184 03740 12684 73506 10122 20070 40192 53001 69922 878// 333 10159 81830 86650 87657;
0144037400999992000062522004+51500-001980FM-12+0156EGDL V0209999C00001012001CN0150001N1+01401+00851102421ADDGA1031+009609069GF107991071051012501999999MD1310101+9999REMSYN076AAXX  25224 03740 42665 70000 10140 20085 40242 53010 875// 333 83632 87657;
0168037400999992000062800004+51500-001980FM-12+0156EGDL V0201901N001510750019N0100001N1+01351+00761102091ADDAA199000091GA1061+075009019GF106991001001999999001011MD1810031+9999REMSYN070AAXX  28004 03740 32960 61903 10135 20076 40209 58003 80001 333 86075;EQDQ01  00002PRCP99
0144037400999992000062913004+51500-001980FM-12+0156EGDL V0200301N00101030001CN0120001N1+02131+01131101971ADDGA1021+012009089GF107991021081012501031021MD1810101+9999REMSYN076AAXX  29134 03740 42662 70302 10213 20113 40197 58010 82832 333 82840 87075;
0202037400999992000063016504+51500-001980FM-15+0156EGDL V0201001N003112200019N0060001N1+01901+01301999999ADDGA1021+006009999GA2021+018009999GF104991999999999999999999MA1101191999999MW1051REMMET076EGDL 301650Z 10006KT 6000 HZ FEW020 SCT060 19/13 Q1012 WHT TEMPO SCT020 WHT;EQDQ01+000003PRSWM1Q02    003PRSWM1
0207037400999992000070322504+51500-001980FM-15+0156EGDL V0201401N001010330019N0060001N1+01501+01401999999ADDGA1021+009009999GA2071+033009999GF107991999999999999999999MA1100811999999MW1101REMMET081EGDL 032250Z 14002KT 6000 BR FEW030 BKN110 15/14 Q1008 WHT BECMG 4500 SCT006 YLO;EQDQ01+000003PRSWM1Q02    003PRSWM1
0191037400999992000070400504+51500-001980FM-15+0156EGDL V0201801N002110330019N0112651N1+01401+01301999999ADDGA1021+010509999GA2071+033009999GF107991999999999999999999MA1100811999999MW1001REMMET081EGDL 040050Z 18004KT 9999 FEW035 BKN110 14/13 Q1008 BLU TEMPO 6000 HZ SCT010 GRN;EQDQ01+000000PRSWM2
0215037400999992000070417504+51500-001980FM-15+0156EGDL V0200301N003610018019N0025001N1+01401+01401999999ADDGA1021+000909999GA2071+001809999GA3081+003609999GF108991999999999999999999MA1100811999999MW1611REMMET073EGDL 041750Z 03007KT 2500 -RA SCT003 BKN006 OVC012 14/14 Q1008 YLO NOSIG;EQDQ01+000003PRSWM1Q02    003PRSWM1
0195037400999992000070815504+51500-001980FM-15+0156EGDL V0202501N008210180019N0112651N1+01501+01001999999ADDGA1021+010509999GA2071+018009999GA3071+075009999GF107991999999999999999999MA1101591999999MW1001REMMET069EGDL 081550Z 25016KT 9999 SCT035 BKN060 BKN250 15/10 Q1016 BLU NOSIG;EQDQ01+000000PRSWM2
0138037400999992000071023004+51500-001980FM-12+0156EGDL V0202801N003612200019N0250001N1+01071+00891100281ADDGA1011+006009029GF104991031081008001031011MD1210211+9999REMSYN070AAXX  10234 03740 42575 42807 10107 20089 40028 52021 83831 333 81820;
0172037400999992000071115504+51500-001980FM-15+0156EGDL V0200101N004110210019N0112651N1+01501+00201999999ADDGA1021+013509999GA2071+021009999GF107991999999999999999999MA1100911999999MW1001REMMET062EGDL 111550Z 01008KT 9999 FEW045 BKN070 15/02 Q1009 BLU NOSIG;EQDQ01+000000PRSWM2
0166037400999992000071215004+51500-001980FM-12+0156EGDL V0202501N00621030001CN0250001N1+01581+00881101531ADDGA1011+009009089GA2031+021009069GF107991031081012501031011MD1710031+9999REMSYN082AAXX  12154 03740 42675 72512 10158 20088 40153 57003 83831 333 81830 83657 87075;
0174037400999992000071600004+51500-001980FM-12+0156EGDL V0203101N00211007501CN0170001N1+01231+00931102011ADDAA199000091GA1031+007509069GF108991081051008001999999MD1210061+9999REMSYN076AAXX  16004 03740 32567 83104 10123 20093 40201 52006 885// 333 83625 88635;EQDQ01  00002PRCP99
0149037400999992000071616504+51500-001980FM-15+0156EGDL V0203301N002612200019N0112651N1+01801+00701999999ADDGA1021+012009999GF102991999999999999999999MA1101801999999MW1001REMMET055EGDL 161650Z 33005KT 9999 FEW040 18/07 Q1018 BLU NOSIG;EQDQ01+000000PRSWM2
0145037400999992000072017504+51500-001980FM-15+0156EGDL V0200301N004012200019N0112651N1+02201+01101999999ADDGA1021+013509999GF102991999999999999999999MA1102401999999MW1001REMMET051EGDL 201750Z 03004KT 9999 FEW045 22/11 Q1024 NOSIG;EQDQ01+000000PRSWM2
0220037400999992000072306004+51500-001980FM-12+0156EGDL V0200601N006210024019N0130001N1+01171+00951101781ADDAA112000791AY151061AY221061GA1081+002409069GF108991081061002501999999IA2999+01109KA1120N+01161MD1610021+9999MW1501REMSYN094AAXX  23064 03740 11363 80612 10117 20095 40178 56002 69902 75052 886// 333 20116 3/011 88708;
0172037400999992000072316504+51500-001980FM-15+0156EGDL V0200501N006710096019N0112651N1+01701+01201999999ADDGA1021+006009999GA2071+009609999GF107991999999999999999999MA1101391999999MW1001REMMET062EGDL 231650Z 05013KT 9999 FEW020 BKN032 17/12 Q1014 BLU NOSIG;EQDQ01+000000PRSWM2
0172037400999992000072623004+51500-001980FM-12+0156EGDL V0202001N002612200019N0080001N1+01551+01141101341ADDAY111999AY211999GA1011+015009069GF104991011051017501031001MD1210101+9999MW1051REMSYN082AAXX  26234 03740 41758 42005 10155 20114 40134 52010 70511 81530 333 81650 84359;
0144037400999992000072803004+51500-001980FM-12+0156EGDL V0202101N00211030001CN0030001N1+01411+01341101321ADDGA1011+001509079GF105991011061001501031001MD1710021+9999REMSYN076AAXX  28034 03740 42230 52104 10141 20134 40132 57002 81630 333 81705 85359;
0101037400999992000073122504+51500-001980FM-15+0156EGDL V0201901N00361220001CN0099001N1+01501+01201999999ADDMA1101901999999MW1001REMMET049EGDL 312250Z 19007KT CAVOK 15/12 Q1019 BLU NOSIG;EQDQ01+000000PRSWM2
0144037400999992000080820004+51500-001980FM-12+0156EGDL V0202601N001012200019N0180001N1+01851+01511102051ADDGA1011+006609089GF104991011081008001001011MD1510011+9999REMSYN076AAXX  08204 03740 42568 42602 10185 20151 40205 55001 81801 333 81822 84075;
0138037400999992000081109004+51500-001980FM-12+0156EGDL V0202501N002112200019N0250001N1+01691+01061101721ADDGA1011+006609029GF104991021081008001001011MD1010021+9999REMSYN070AAXX  11094 03740 42575 42504 10169 20106 40172 50002 82801 333 81822;
0101037400999992000081214504+51500-001980FM-15+0156EGDL V0202101N00411220001CN0099001N1+02301+01201999999ADDMA1101291999999MW1001REMMET049EGDL 121450Z 21008KT CAVOK 23/12 Q1013 BLU NOSIG;EQDQ01+000000PRSWM2
0172037400999992000081501504+51500-001980FM-15+0156EGDL V0202201N004612200019N0112651N1+01301+01201999999ADDGA1021+004509999GA2021+054009999GF104991999999999999999999MA1101901999999MW1001REMMET062EGDL 150150Z 22009KT 9999 FEW015 SCT180 13/12 Q1019 BLU NOSIG;EQDQ01+000000PRSWM2
0172037400999992000081613504+51500-001980FM-15+0156EGDL V0202101N005110750019N0112651N1+01901+00901999999ADDGA1021+008409999GA2071+075009999GF107991999999999999999999MA1101291999999MW1001REMMET062EGDL 161350Z 21010KT 9999 FEW028 BKN250 19/09 Q1013 BLU NOSIG;EQDQ01+000000PRSWM2
0194037400999992000082017504+51500-001980FM-15+0156EGDL V0202901N001512200019N0112651N1+01901+00901999999ADDGA1021+012909999GA2021+014409999GF104991999999999999999999MA1101191999999MW1801REMMET068EGDL 201750Z 29003KT 9999 -SHRA FEW043 SCT048 19/09 Q1012 BLU NOSIG;EQDQ01+000003PRSWM1Q02    003PRSWM1
0138037400999992000082220004+51500-001980FM-12+0156EGDL V0200901N003110750019N0250001N1+01611+00981102021ADDGA1071+075009019GF107991001001999999001021MD1310121+9999REMSYN070AAXX  22204 03740 42975 70906 10161 20098 40202 53012 80002 333 87075;
0138037400999992000082602004+51500-001980FM-12+0156EGDL V0201701N003110750019N0200001N1+01961+01331100821ADDGA1061+075009019GF106991001001999999001021MD1510131+9999REMSYN070AAXX  26024 03740 42970 61706 10196 20133 40082 55013 80002 333 86075;
