0121113800999992000120709004+47690+015850FM-12+048599999V0202901N000519999999N9999999N1-00091-00091102381ADDAA199000091MA1999999096371REMSYN064AAXX  07094 11380 36/// /2901 11009 21009 39637 40238 333 55300;EQDQ01  00002PRCP99
0111113820999992000011000004+47780+015920FM-12+058699999V0202601N000519999999N9999999N1-00501-00601102991ADDAA106000091MA1999999095691REMSYN054AAXX  10004 11382 36/// /2601 11050 21060 39569 40299;EQDQ01  00002PRCP06
0111113820999992000011300004+47780+015920FM-12+058699999V0209999C000019999999N9999999N1-01481-01591103411ADDAA106000091MA1999999095811REMSYN054AAXX  13004 11382 36/// /0000 11148 21159 39581 40341;EQDQ01  00002PRCP06
0111113820999992000020703004+47780+015920FM-12+058699999V0202401N000519999999N9999999N1-00201-00221102311ADDAA199000091MA1999999095141REMSYN054AAXX  07034 11382 36/// /2401 11020 21022 39514 40231;EQDQ01  00002PRCP99
0194113820999992000022206004+47780+015920FM-12+058699999V0203301N000512200019N0500001N1-00381-00661102831ADDAA199000091GA1001+999999999GF100991001001999999001001IA2999-00209KA1120N-00401MA1999999095571REMSYN070AAXX  22064 11382 32884 03301 11038 21066 39557 40283 333 21040 3/102;EQDQ01  00002PRCP99
0151113820999992000031206004+47780+015920FM-12+058699999V0202701N002619999999N9999999N1+00571+00011101831ADDAA112007191IA2999+00109KA1120N+00411MA1999999094881REMSYN088AAXX  12064 11382 16/// /2705 10057 20001 39488 40183 60072 333 20041 3/001 90428 91121;
0111113820999992000050403004+47780+015920FM-12+058699999V0202701N000519999999N9999999N1+00181+00091102011ADDAA199000091MA1999999094961REMSYN054AAXX  04034 11382 36/// /2701 10018 20009 39496 40201;EQDQ01  00002PRCP99
0111113820999992000060800004+47780+015920FM-12+058699999V0203101N001019999999N9999999N1+01241+00651102291ADDAA199000091MA1999999095481REMSYN054AAXX  08004 11382 36/// /3102 10124 20065 39548 40229;EQDQ01  00002PRCP99
0121113820999992000061912004+47780+015910FM-12+058699999V0200501N001519999999N9999999N1+02511+01021102111ADDAA199000091MA1999999095591REMSYN064AAXX  19124 11382 36/// /0503 10251 20102 39559 40211 333 55310;EQDQ01  00002PRCP99
0133113820999992000070918004+47780+015910FM-12+058699999V0202601N001019999999N9999999N1+01641+00711100701ADDAA112000191KA1120M+01811MA1999999094081REMSYN082AAXX  09184 11382 16/// /2602 10164 20071 39408 40070 69912 333 10181 90449 91113;
0111113820999992000071221004+47780+015910FM-12+058699999V0202601N002119999999N9999999N1+01271+00591101291ADDAA199000091MA1999999094551REMSYN054AAXX  12214 11382 36/// /2604 10127 20059 39455 40129;EQDQ01  00002PRCP99
0121113820999992000072409004+47780+015910FM-12+058699999V0200401N000519999999N9999999N1+02421+01491100631ADDAA199000091MA1999999094201REMSYN064AAXX  24094 11382 36/// /0401 10242 20149 39420 40063 333 55309;EQDQ01  00002PRCP99
0121113820999992000090912004+47780+015910FM-12+058699999V0200701N001019999999N9999999N1+02061+01011102351ADDAA199000091MA1999999095721REMSYN064AAXX  09124 11382 36/// /0702 10206 20101 39572 40235 333 55310;EQDQ01  00002PRCP99
0111113820999992000091703004+47780+015910FM-12+058699999V0202801N002119999999N9999999N1+01151+00581100951ADDAA199000091MA1999999094211REMSYN054AAXX  17034 11382 36/// /2804 10115 20058 39421 40095;EQDQ01  00002PRCP99
0111113820999992000092000004+47780+015910FM-12+058699999V0202701N000519999999N9999999N1+00871+00781100911ADDAA199000091MA1999999094111REMSYN054AAXX  20004 11382 36/// /2701 10087 20078 39411 40091;EQDQ01  00002PRCP99
0111113820999992000093021004+47780+015910FM-12+058699999V0200901N001019999999N9999999N1+01661+01171100851ADDAA199000091MA1999999094241REMSYN054AAXX  30214 11382 36/// /0902 10166 20117 39424 40085;EQDQ01  00002PRCP99
0139113820999992000100106004+47780+015910FM-12+058699999V0200501N001019999999N9999999N1+01391+01241100801ADDAA112000591IA2999+01109KA1120N+01361MA1999999094131REMSYN076AAXX  01064 11382 16/// /0502 10139 20124 39413 40080 69962 333 20136 3/011;
0121113820999992000101615004+47780+015910FM-12+058699999V0201601N001019999999N9999999N1+01901+00781101351ADDAA199000091MA1999999094751REMSYN064AAXX  16154 11382 36/// /1602 10190 20078 39475 40135 333 55310;EQDQ01  00002PRCP99
0102113820999992000102713004+47780+015910FM-12+058699999V0202601N002119999999N9999999N1+00991+00421101891ADDAA199000021MA1999999095041REMSYN064AAXX  27134 11382 36/// /2604 10099 20042 39504 40189 333 55300;
0121113820999992000102808004+47780+015910FM-12+058699999V0200401N000519999999N9999999N1+00921+00651102251ADDAA199000091MA1999999095371REMSYN064AAXX  28084 11382 36/// /0401 10092 20065 39537 40225 333 55304;EQDQ01  00002PRCP99
0111113820999992000103019004+47780+015910FM-12+058699999V0202001N001019999999N9999999N1+01651+00351100161ADDAA199000091MA1999999093581REMSYN054AAXX  30194 11382 36/// /2002 10165 20035 39358 40016;EQDQ01  00002PRCP99
0127113820999992000110822004+47780+015910FM-12+058699999V0201701N002619999999N9999999N1+01091-00031100241ADDAA199000091MA1999999093521REMSYN070AAXX  08224 11382 36/// /1705 10109 21003 39352 40024 333 90403 91114;EQDQ01  00002PRCP99
0111113820999992000110904004+47780+015910FM-12+058699999V0201501N000519999999N9999999N1+00661+00231100521ADDAA199000091MA1999999093691REMSYN054AAXX  09044 11382 36/// /1501 10066 20023 39369 40052;EQDQ01  00002PRCP99
0102113820999992000111005004+47780+015910FM-12+058699999V0203101N000519999999N9999999N1+00571+00451101751ADDAA101000891MA1999999094811REMSYN064AAXX  10054 11382 26/// /3101 10057 20045 39481 40175 333 69985;
0104113820999992000111800004+47780+015910FM-12+058699999V0203101N001519999999N9999999N1+00681+00561101171ADDAA106002091MA1999999094301REMSYN066AAXX  18004 11382 1//// /3103 10068 20056 39430 40117 60021 7404/;
0111113820999992000112221004+47780+015910FM-12+058699999V0202601N000519999999N9999999N1+00281+00221101531ADDAA199000091MA1999999094541REMSYN054AAXX  22214 11382 36/// /2601 10028 20022 39454 40153;EQDQ01  00002PRCP99
0108113820999992000112510004+47780+015910FM-12+058699999V0209999C000019999999N9999999N1+00591+00581101031ADDAA101000191MA1999999094151REMSYN070AAXX  25104 11382 26/// /0000 10059 20058 39415 40103 333 55300 69925;
0121113820999992000120811004+47780+015910FM-12+058699999V0202501N000519999999N9999999N1+00481+00331101321ADDAA199000091MA1999999094391REMSYN064AAXX  08114 11382 36/// /2501 10048 20033 39439 40132 333 55303;EQDQ01  00002PRCP99
0121113820999992000121509004+47780+015910FM-12+058699999V0202201N000519999999N9999999N1+00551+00261100441ADDAA199000091MA1999999093591REMSYN064AAXX  15094 11382 36/// /2201 10055 20026 39359 40044 333 55300;EQDQ01  00002PRCP99
0090113840999992000010103004+47630+015820FM-12+132399999V0202501N001019999999N9999999N1-00701-00861999999ADDMA1999999086901ME1314919REMSYN054AAXX  01034 11384 46/// /2502 11070 21086 38690 48491;
0130113840999992000012515004+47630+015820FM-12+132399999V0203101N001019999999N9999999N1-01271-01421999999ADDAA199000091MA1999999086901ME1314879REMSYN064AAXX  25154 11384 36/// /3102 11127 21142 38690 48487 333 55310;EQDQ01  00002PRCP99
0130113840999992000012715004+47630+015820FM-12+132399999V0209999C000019999999N9999999N1-00111-00881999999ADDAA199000091MA1999999087121ME1315159REMSYN064AAXX  27154 11384 36/// /0000 11011 21088 38712 48515 333 55310;EQDQ01  00002PRCP99
0117113840999992000020815004+47630+015820FM-12+132399999V0201601N001019999999N9999999N1+00521-00311999999ADDAA103000191MA1999999086131ME1314269REMSYN070AAXX  08154 11384 26/// /1602 10052 21031 38613 48426 333 55304 69917;
0136113840999992000021421004+47630+015820FM-12+132399999V0202701N001019999999N9999999N1-00501-01031999999ADDAA199000091MA1999999086731ME1314779REMSYN070AAXX  14214 11384 36/// /2702 11050 21103 38673 48477 333 90428 91124;EQDQ01  00002PRCP99
0173113840999992000022806004+47630+015820FM-12+132399999V0201901N002119999999N9999999N1-00301-00381999999ADDAA199000091IA2999-00409KA1120N-00321MA1999999087451ME1315439REMSYN082AAXX  28064 11384 36/// /1904 11030 21038 38745 48543 333 21032 3/104 90434 91114;EQDQ01  00002PRCP99
0142113840999992000040715004+47630+015820FM-12+132399999V0203401N003119999999N9999999N1-00011-00651999999ADDAA199000091MA1999999087031ME1315079REMSYN076AAXX  07154 11384 36/// /3406 11001 21065 38703 48507 333 55300 90404 91113;EQDQ01  00002PRCP99
0111113840999992000041903004+47630+015820FM-12+132399999V0203501N000519999999N9999999N1+00821+00481999999ADDAA103000191MA1999999085811ME1313979REMSYN064AAXX  19034 11384 26/// /3501 10082 20048 38581 48397 333 69917;
0161113840999992000042606004+47630+015820FM-12+132399999V0209999C000019999999N9999999N1+00761+00721999999ADDAA199000091IA2999+00609KA1120N+00671MA1999999086541ME1314679REMSYN070AAXX  26064 11384 36/// /0000 10076 20072 38654 48467 333 20067 3/006;EQDQ01  00002PRCP99
0130113840999992000050515004+47630+015820FM-12+132399999V0203101N001519999999N9999999N1+01361+00531999999ADDAA199000091MA1999999086901ME1315059REMSYN064AAXX  05154 11384 36/// /3103 10136 20053 38690 48505 333 55308;EQDQ01  00002PRCP99
0120113840999992000051603004+47630+015820FM-12+132399999V0202101N001019999999N9999999N1+00981+00371999999ADDAA199000091MA1999999087181ME1315299REMSYN054AAXX  16034 11384 36/// /2102 10098 20037 38718 48529;EQDQ01  00002PRCP99
0161113840999992000051706004+47630+015820FM-12+132399999V0202401N002119999999N9999999N1+01151+00731999999ADDAA199000091IA2999+00909KA1120N+01051MA1999999086901ME1315039REMSYN070AAXX  17064 11384 36/// /2404 10115 20073 38690 48503 333 20105 3/009;EQDQ01  00002PRCP99
0120113840999992000061403004+47630+015820FM-12+132399999V0202301N001019999999N9999999N1+01611+01441999999ADDAA199000091MA1999999087571ME1315729REMSYN054AAXX  14034 11384 36/// /2302 10161 20144 38757 48572;EQDQ01  00002PRCP99
0130113840999992000061915004+47630+015820FM-12+132399999V0201401N000519999999N9999999N1+01951+00701999999ADDAA199000091MA1999999087601ME1315779REMSYN064AAXX  19154 11384 36/// /1401 10195 20070 38760 48577 333 55310;EQDQ01  00002PRCP99
0130113840999992000062015004+47630+015820FM-12+132399999V0202801N000519999999N9999999N1+02331+01071999999ADDAA199000091MA1999999087341ME1315559REMSYN064AAXX  20154 11384 36/// /2801 10233 20107 38734 48555 333 55310;EQDQ01  00002PRCP99
0117113840999992000070903004+47630+015820FM-12+132399999V0203301N001019999999N9999999N1+00421+00311999999ADDAA103000191MA1999999086131ME1314269REMSYN070AAXX  09034 11384 2//// /3302 10042 20031 38613 48426 7404/ 333 69927;
0120113840999992000070921004+47630+015820FM-12+132399999V0202401N000519999999N9999999N1+00801+00261999999ADDAA199000091MA1999999086101ME1314259REMSYN054AAXX  09214 11384 36/// /2401 10080 20026 38610 48425;EQDQ01  00002PRCP99
0143113840999992000071418004+47630+015820FM-12+132399999V0209999C000019999999N9999999N1+00971+00381999999ADDAA199000091KA1999M+01291MA1999999085861ME1314029REMSYN064AAXX  14184 11384 36/// /0000 10097 20038 38586 48402 333 10129;EQDQ01  00002PRCP99
0130113840999992000090912004+47630+015820FM-12+132399999V0203001N001019999999N9999999N1+01421+00711999999ADDAA199000091MA1999999087741ME1315869REMSYN064AAXX  09124 11384 36/// /3002 10142 20071 38774 48586 333 55310;EQDQ01  00002PRCP99
0130113840999992000091312004+47630+015820FM-12+132399999V0200401N000519999999N9999999N1+01831+01021999999ADDAA199000091MA1999999086731ME1314919REMSYN064AAXX  13124 11384 36/// /0401 10183 20102 38673 48491 333 55310;EQDQ01  00002PRCP99
0120113840999992000092303004+47630+015820FM-12+132399999V0200201N002619999999N9999999N1+00401+00341999999ADDAA199000091MA1999999087361ME1315419REMSYN054AAXX  23034 11384 36/// /0205 10040 20034 38736 48541;EQDQ01  00002PRCP99
0120113840999992000100403004+47630+015820FM-12+132399999V0201101N000519999999N9999999N1+00901+00831999999ADDAA199000091MA1999999087251ME1315359REMSYN054AAXX  04034 11384 36/// /1101 10090 20083 38725 48535;EQDQ01  00002PRCP99
0130113840999992000102814004+47630+015820FM-12+132399999V0202701N001019999999N9999999N1+01031+00241999999ADDAA199000091MA1999999087141ME1315259REMSYN064AAXX  28144 11384 36/// /2702 10103 20024 38714 48525 333 55310;EQDQ01  00002PRCP99
0143113840999992000102918004+47630+015820FM-12+132399999V0202401N001019999999N9999999N1+00781+00381999999ADDAA199000091KA1999M+01371MA1999999086931ME1315049REMSYN064AAXX  29184 11384 36/// /2402 10078 20038 38693 48504 333 10137;EQDQ01  00002PRCP99
0136113840999992000110620004+47630+015820FM-12+132399999V0203601N002119999999N9999999N1+00401+00351999999ADDAA199000091MA1999999084641ME1312849REMSYN070AAXX  06204 11384 36/// /3604 10040 20035 38464 48284 333 90403 91117;EQDQ01  00002PRCP99
0142113840999992000110718004+47630+015820FM-12+132399999V0202401N001019999999N9999999N1+00321+00151999999ADDAA112000891KA1120M+00521MA1999999084661ME1312869REMSYN082AAXX  07184 11384 16/// /2402 10032 20015 38466 48286 69982 333 10052 90450 91114;
0123113840999992000111216004+47630+015820FM-12+132399999V0202301N002119999999N9999999N1+00251-00321999999ADDAA101000191MA1999999086291ME1314409REMSYN076AAXX  12164 11384 26/// /2304 10025 21032 38629 48440 333 69925 90407 91113;
0120113840999992000111322004+47630+015820FM-12+132399999V0202501N001519999999N9999999N1+00831+00451999999ADDAA199000091MA1999999085931ME1314099REMSYN054AAXX  13224 11384 36/// /2503 10083 20045 38593 48409;EQDQ01  00002PRCP99
0117113840999992000112503004+47630+015820FM-12+132399999V0203501N001019999999N9999999N1+00441+00411999999ADDAA103001091MA1999999085981ME1314129REMSYN070AAXX  25034 11384 2//// /3502 10044 20041 38598 48412 7404/ 333 60017;
0134113850999992000011412004+47820+016030FM-12+093299999V0203501N001019999999N9999999N1+00271-00951999999ADDAA199000091MA1999999091151ME1315009REMSYN068    AAXX  14124 11385 36/// /3502 10027 21095 39115 48500 333 55310;EQDQ01  00002PRCP99
0135113850999992000012109004+47820+016030FM-12+093299999V0203401N003619999999N9999999N1-00281-00361999999ADDAA103002091MA1999999089411ME1313389REMSYN088AAXX  21094 11385 2//// /3407 11028 21036 38941 48338 74044 333 55300 60027 90418 91126;
0136113850999992000012600004+47820+016030FM-12+093299999V0203501N003619999999N9999999N1-01071-01351999999ADDAA199000091MA1999999091351ME1314899REMSYN070AAXX  26004 11385 36/// /3507 11107 21135 39135 48489 333 90400 91113;EQDQ01  00002PRCP99
0136113850999992000020503004+47820+016030FM-12+093299999V0203401N003119999999N9999999N1+00311-00261999999ADDAA199000091MA1999999091631ME1315439REMSYN070AAXX  05034 11385 36/// /3406 10031 21026 39163 48543 333 90406 91124;EQDQ01  00002PRCP99
0136113850999992000021303004+47820+016030FM-12+093299999V0203601N003119999999N9999999N1-00041-00581999999ADDAA199000091MA1999999091061ME1314869REMSYN070AAXX  13034 11385 36/// /3606 11004 21058 39106 48486 333 90424 91121;EQDQ01  00002PRCP99
0120113850999992000022721004+47820+016030FM-12+093299999V0202901N000519999999N9999999N1-00111-00251999999ADDAA199000091MA1999999092011ME1315679REMSYN054AAXX  27214 11385 36/// /2901 11011 21025 39201 48567;EQDQ01  00002PRCP99
0204113850999992000031006004+47820+016030FM-12+093299999V0203101N001010075019N0010001N1-00071-00071999999ADDAA112014091GF108991081071008001001001IA2999-00109KA1120N-00071MA1999999090791ME1314629MW1731REMSYN100AAXX  10064 11385 11510 83102 11007 21007 39079 48462 60142 773/7 88700 333 21007 3/101 90454 91119;
0120113850999992000032503004+47820+016030FM-12+093299999V0202901N001019999999N9999999N1+00491+00441999999ADDAA199000091MA1999999090631ME1314599REMSYN054AAXX  25034 11385 36/// /2902 10049 20044 39063 48459;EQDQ01  00002PRCP99
0130113850999992000051109004+47820+016030FM-12+093299999V0201201N001519999999N9999999N1+02251+01351999999ADDAA199000091MA1999999091021ME1315319REMSYN064AAXX  11094 11385 36/// /1203 10225 20135 39102 48531 333 55310;EQDQ01  00002PRCP99
0120113850999992000052121004+47820+016030FM-12+093299999V0202101N001019999999N9999999N1+01101+00401999999ADDAA199000091MA1999999090221ME1314339REMSYN054AAXX  21214 11385 36/// /2102 10110 20040 39022 48433;EQDQ01  00002PRCP99
0205113850999992000052206004+47820+016030FM-12+093299999V0202901N005110120019N0300001N1+00701+00441999999ADDAA199000091GF108991081071012501001001IA2999+00609KA1120N+00701MA1999999090201ME1314259REMSYN088AAXX  22064 11385 32680 82910 10070 20044 39020 48425 88700 333 20070 3/006 90402 91119;EQDQ01  00002PRCP99
0120113850999992000060903004+47820+016030FM-12+093299999V0202301N000519999999N9999999N1+01171+00961999999ADDAA199000091MA1999999091201ME1315259REMSYN054AAXX  09034 11385 36/// /2301 10117 20096 39120 48525;EQDQ01  00002PRCP99
0203113850999992000060906004+47820+016030FM-12+093299999V0201401N001012200019N0060001N1+01431+01031999999ADDAA199000091GA1001+999999999GF100991001001999999001001IA2999+00909KA1120N+01111MA1999999091241ME1315349REMSYN070AAXX  09064 11385 32956 01402 10143 20103 39124 48534 333 20111 3/009;EQDQ01  00002PRCP99
0130113850999992000062812004+47820+016290FM-12+093299999V0201101N002119999999N9999999N1+01881+00631999999ADDAA199000091MA1999999090691ME1314919REMSYN064AAXX  28124 11385 36/// /1104 10188 20063 39069 48491 333 55304;EQDQ01  00002PRCP99
0090113850999992000062821004+47820+016290FM-12+093299999V0203001N001519999999N9999999N1+01141+00191999999ADDMA1999999090791ME1314869REMSYN054AAXX  28214 11385 46/// /3003 10114 20019 39079 48486;
0113113850999992000062918004+47820+016290FM-12+093299999V0202801N001519999999N9999999N1+01291+00631999999ADDKA1999M+01721MA1999999090831ME1314939REMSYN064AAXX  29184 11385 46/// /2803 10129 20063 39083 48493 333 10172;
0120113850999992000082221004+47820+016020FM-12+093299999V0203001N002619999999N9999999N1+01571+01191999999ADDAA199000091MA1999999091341ME1315469REMSYN054AAXX  22214 11385 36/// /3005 10157 20119 39134 48546;EQDQ01  00002PRCP99
0187113850999992000082718004+47820+016020FM-12+093299999V0201501N003112200019N0100001N1+01421+00771999999ADDAA199000091GF101991001001999999001051KA1120M+02031MA1999999091121ME1315229REMSYN082AAXX  27184 11385 32960 11506 10142 20077 39112 48522 80005 333 10203 90444 91114;EQDQ01  00002PRCP99
0130113850999992000091609004+47820+016020FM-12+093299999V0201401N000519999999N9999999N1+01821+01281999999ADDAA199000091MA1999999090571ME1314809REMSYN064AAXX  16094 11385 36/// /1401 10182 20128 39057 48480 333 55310;EQDQ01  00002PRCP99
0120113850999992000092803004+47820+016020FM-12+093299999V0209999C000019999999N9999999N1+01121+00831999999ADDAA199000091MA1999999090941ME1315009REMSYN054AAXX  28034 11385 36/// /0000 10112 20083 39094 48500;EQDQ01  00002PRCP99
0123113850999992000100200004+47820+016020FM-12+093299999V0201501N002619999999N9999999N1+01171+01111999999ADDAA106000191MA1999999089991ME1314159REMSYN076AAXX  02004 11385 16/// /1505 10117 20111 38999 48415 69911 333 90443 91117;
0142113850999992000101209004+47820+016020FM-12+093299999V0201801N001519999999N9999999N1+01271+00921999999ADDAA199000091MA1999999089921ME1314099REMSYN076AAXX  12094 11385 36/// /1803 10127 20092 38992 48409 333 55300 90412 91114;EQDQ01  00002PRCP99
0130113850999992000102509004+47820+016020FM-12+093299999V0201201N001019999999N9999999N1+01381+00691999999ADDAA199000091MA1999999091151ME1315249REMSYN064AAXX  25094 11385 36/// /1202 10138 20069 39115 48524 333 55308;EQDQ01  00002PRCP99
0120113850999992000102907004+47820+016020FM-12+093299999V0202901N001019999999N9999999N1+01261+00381999999ADDAA199000091MA1999999090951ME1315039REMSYN054AAXX  29074 11385 36/// /2902 10126 20038 39095 48503;EQDQ01  00002PRCP99
0120113850999992000102920004+47820+016020FM-12+093299999V0200301N000519999999N9999999N1+00941+00651999999ADDAA199000091MA1999999091011ME1315029REMSYN054AAXX  29204 11385 36/// /0301 10094 20065 39101 48502;EQDQ01  00002PRCP99
0130113850999992000103010004+47820+016020FM-12+093299999V0201501N002119999999N9999999N1+01221+00731999999ADDAA199000091MA1999999090451ME1314579REMSYN064AAXX  30104 11385 36/// /1504 10122 20073 39045 48457 333 55309;EQDQ01  00002PRCP99
0142113850999992000110315004+47820+016020FM-12+093299999V0201801N002119999999N9999999N1+00981+00641999999ADDAA199000091MA1999999089811ME1313949REMSYN076AAXX  03154 11385 36/// /1804 10098 20064 38981 48394 333 55300 90417 91113;EQDQ01  00002PRCP99
0120113850999992000110522004+47820+016020FM-12+093299999V0201601N002119999999N9999999N1+00191+00161999999ADDAA199000091MA1999999090301ME1314249REMSYN054AAXX  05224 11385 36/// /1604 10019 20016 39030 48424;EQDQ01  00002PRCP99
0120113850999992000111703004+47820+016020FM-12+093299999V0201901N002119999999N9999999N1+00991+00681999999ADDAA199000091MA1999999090421ME1314509REMSYN054AAXX  17034 11385 36/// /1904 10099 20068 39042 48450;EQDQ01  00002PRCP99
0117113850999992000111817004+47820+016020FM-12+093299999V0202901N004119999999N9999999N1+00011-00061999999ADDAA199000021MA1999999090601ME1314479REMSYN070AAXX  18174 11385 36/// /2908 10001 21006 39060 48447 333 90402 91115;
0120113850999992000112101004+47820+016020FM-12+093299999V0201701N001519999999N9999999N1+00531+00341999999ADDAA199000091MA1999999090021ME1314069REMSYN054AAXX  21014 11385 36/// /1703 10053 20034 39002 48406;EQDQ01  00002PRCP99
0120113850999992000112307004+47820+016020FM-12+093299999V0202601N000519999999N9999999N1+00491-00091999999ADDAA199000091MA1999999090431ME1314419REMSYN054AAXX  23074 11385 36/// /2601 10049 21009 39043 48441;EQDQ01  00002PRCP99
0101113850999992000112616004+47820+016020FM-12+093299999V0202701N001519999999N9999999N1+00371+00001999999ADDAA199000021MA1999999089691ME1313739REMSYN054AAXX  26164 11385 36/// /2703 10037 20000 38969 48373;
0130113850999992000120713004+47820+016020FM-12+093299999V0201701N001019999999N9999999N1-00061-00091999999ADDAA199000091MA1999999090851ME1314689REMSYN064AAXX  07134 11385 36/// /1702 11006 21009 39085 48468 333 55300;EQDQ01  00002PRCP99
0120113850999992000120901004+47820+016020FM-12+093299999V0202501N000519999999N9999999N1+00771+00261999999ADDAA199000091MA1999999090651ME1314669REMSYN054AAXX  09014 11385 36/// /2501 10077 20026 39065 48466;EQDQ01  00002PRCP99
0120113850999992000120907004+47820+016020FM-12+093299999V0202901N002119999999N9999999N1+00631+00341999999ADDAA199000091MA1999999090891ME1314859REMSYN054AAXX  09074 11385 36/// /2904 10063 20034 39089 48485;EQDQ01  00002PRCP99
0120113850999992000121205004+47820+016020FM-12+093299999V0202701N001019999999N9999999N1+00981-00151999999ADDAA199000091MA1999999091641ME1315599REMSYN054AAXX  12054 11385 36/// /2702 10098 21015 39164 48559;EQDQ01  00002PRCP99
0135113850999992000122815004+47820+016020FM-12+093299999V0202901N004619999999N9999999N1+00051-00011999999ADDAA103000191MA1999999088511ME1312639REMSYN088AAXX  28154 11385 2//// /2909 10005 21001 38851 48263 740// 333 55300 69917 90404 91122;
0208114060999992000010218004+50080+012400FM-12+047199999V0209999C000010036019N0140001N1+00081-00201103161ADDAA106000091GA1081+003609059GF108991081051004501999999KA1120M+00461MA1999999097321MD1310061+9999REMSYN082AAXX  02181 11406 32464 80000 10008 21020 39732 40316 53006 885// 333 10046 88612;EQDQ01  00002PRCP06
0197114060999992000010911004+50080+012400FM-12+047199999V0202301N002010015019N0028001N1+00121+00011102491ADDAY171999AY271999GA1081+001509079GF108991081071001501999999MA1999999096691MD1010061+9999MW1711REMSYN092AAXX  09111 11406 41228 82302 10012 20001 39669 40249 50006 77177 887// 333 88705 555 392//;
0197114060999992000010917004+50080+012400FM-12+047199999V0209999C000010015019N0025001N1+00111+00011102601ADDAY161999AY221999GA1081+001509079GF108991081061001501999999MA1999999096801MD1310111+9999MW1211REMSYN092AAXX  09171 11406 41225 80000 10011 20001 39680 40260 53011 72162 886// 333 88705 555 393//;
0159114060999992000011109004+50080+012400FM-12+047199999V0201701N001012200019N0140001N1-00261-00441104041ADDGA1041+030009079GF104991041001999999031001MA1999999098071MD1110061+9999REMSYN076AAXX  11091 11406 42964 41701 11026 21044 39807 40404 51006 84030 333 84360;
0169114060999992000012204004+50080+012400FM-12+047199999V0202401N001010030019N0150001N1-00331-00521101901ADDGA1081+003009069GF108991081051004501999999MA1999999096041MD1710331+9999REMSYN086AAXX  22041 11406 42465 82401 11033 21052 39604 40190 57033 885// 333 88610 555 387//;
0197114060999992000012216004+50080+012400FM-12+047199999V0202201N004010030019N0060001N1+00001-00101100681ADDAY171999AY261999GA1081+003009069GF108991081051004501999999MA1999999094971MD1710141+9999MW1711REMSYN092AAXX  22161 11406 41456 82204 10000 21010 39497 40068 57014 77176 885// 333 88610 555 393//;
0199114060999992000012915004+50080+012400FM-12+047199999V0202401N005010030019N0100001N1+00311+00121100161ADDAY171031AY261031GA1081+003009069GF108991081051004501999999MA1999999094541MD1610071+9999MW1601REMSYN094AAXX  29151 11406 41460 82405 10031 20012 39454 40016 56007 76076 885// 333 88610 91014 91125;
0159114060999992000020515004+50080+012400FM-12+047199999V0202201N002010750019N0120001N1+00671+00391103111ADDGA1011+004809059GF105991011051004501031011MA1999999097391MD1710081+9999REMSYN076AAXX  05151 11406 42462 52202 10067 20039 39739 40311 57008 81531 333 81616;
0169114060999992000020923004+50080+012400FM-12+047199999V0202801N004010045019N0200001N1+00281-00051102421ADDGA1071+004509069GF107991071051004501001001MA1999999096661MD1210191+9999REMSYN086AAXX  09231 11406 42470 72804 10028 21005 39666 40242 52019 87500 333 87615 555 379//;
0169114060999992000021402004+50080+012400FM-12+047199999V0202201N003010078019N0200001N1+00021-00241102261ADDGA1071+007809069GF107991071051008001001001MA1999999096461MD1110071+9999REMSYN086AAXX  14021 11406 42570 72203 10002 21024 39646 40226 51007 87500 333 87626 555 383//;
0169114060999992000021723004+50080+012400FM-12+047199999V0202701N002010150019N0150001N1-00231-00521101441ADDGA1071+015009069GF107991071051017501001001MA1999999095631MD1110211+9999REMSYN086AAXX  17231 11406 42765 72702 11023 21052 39563 40144 51021 87500 333 87650 555 381//;
0187114060999992000021903004+50080+012400FM-12+047199999V0202201N001010024019N0070001N1+00091-00031100341ADDAY121031AY221031GA1081+002409069GF108991081061002501999999MA1999999094661MD1710041+9999MW1101REMSYN082AAXX  19031 11406 41357 82201 10009 21003 39466 40034 57004 71022 886// 333 88708;
0197114060999992000022107004+50080+012400FM-12+047199999V0202701N001012200019N0180001N1-00311-00541102991ADDAY181999AY211999GA1011+003009089GF101991011021004501001001MA1999999097081MD1210071+9999MW1261REMSYN092AAXX  21071 11406 41468 12701 11031 21054 39708 40299 52007 72681 81200 333 81810 555 384//;
0203114060999992000022413004+50080+012400FM-12+047199999V0202401N004010018019N0100001N1+00291+00071102461ADDAY161999AY261999GA1081+001809079GF108991081071002501999999MA1999999096701MD1710181+9999MW1681REMSYN098AAXX  24131 11406 41360 82404 10029 20007 39670 40246 57018 76866 887// 333 88706 91013 555 385//;
0197114060999992000022502004+50080+012400FM-12+047199999V0202101N003010015019N0060001N1+00401+00351102121ADDAY161999AY261999GA1081+001509079GF108991081071001501999999MA1999999096401MD1710251+9999MW1611REMSYN092AAXX  25021 11406 41256 82103 10040 20035 39640 40212 57025 76166 887// 333 88705 555 397//;
0187114060999992000022503004+50080+012400FM-12+047199999V0202201N004010012019N0050001N1+00421+00371102001ADDAY161031AY261031GA1081+001209069GF108991081071001501999999MA1999999096291MD1710321+9999MW1611REMSYN082AAXX  25031 11406 41250 82204 10042 20037 39629 40200 57032 76166 887// 333 88704;
0153114060999992000030220004+50080+012400FM-12+047199999V0202301N003012200019N0200001N1+00011-00211102121ADDGA1001+999999999GF100991001001999999001001MA1999999096321MD1810101+9999REMSYN070AAXX  02201 11406 42970 02303 10001 21021 39632 40212 58010 555 385//;
0197114060999992000030408004+50080+012400FM-12+047199999V0202801N003010012019N0010001N1+00021-00061101291ADDAY171999AY271999GA1081+001209079GF108991081071001501999999MA1999999095551MD1210381+9999MW1711REMSYN092AAXX  04081 11406 41210 82803 10002 21006 39555 40129 52038 77177 887// 333 88704 555 394//;
0187114060999992000030809004+50080+012400FM-12+047199999V0202601N004010030019N0070001N1+00701+00531102041ADDAY161031AY221031GA1081+003009059GF108991081051004501999999MA1999999096391MD1810041+9999MW1601REMSYN082AAXX  08091 11406 41457 82604 10070 20053 39639 40204 58004 76062 885// 333 88610;
0199114060999992000031022004+50080+012400FM-12+047199999V0202101N001010048019N0200001N1+00241-00131102291ADDAA199000091GA1081+004809069GF108991081051004501999999MA1999999096531MD1710241+9999REMSYN086AAXX  10221 11406 32470 82101 10024 21013 39653 40229 57024 885// 333 88616 555 376//;EQDQ01  00002PRCP99
0169114060999992000031311004+50080+012400FM-12+047199999V0201801N001010042019N0120001N1+00451+00201102681ADDGA1071+004209069GF107991071051004501999999MA1999999096951MD1810021+9999REMSYN086AAXX  13111 11406 42462 71801 10045 20020 39695 40268 58002 875// 333 87614 555 384//;
0169114060999992000032511004+50080+012400FM-12+047199999V0202401N002010054019N0150001N1+00931+00461101671ADDGA1081+005409069GF108991081051004501999999MA1999999096091MD1110071+9999REMSYN086AAXX  25111 11406 42465 82402 10093 20046 39609 40167 51007 885// 333 88618 555 372//;
0249114060999992000040108004+50080+012400FM-12+047199999V0202001N001010300019N0060001N1+00401+00181100721ADDAA199000091AY121999AY221999GA1021+001509079GA2061+030009039GF107991021061001501031001MA1999999095081MD1310061+9999MW1101REMSYN098AAXX  01081 11406 31256 72001 10040 20018 39508 40072 53006 71022 82630 333 82705 86360 555 385//;EQDQ01  00002PRCP99
0197114060999992000040514004+50080+012400FM-12+047199999V0203501N004010030019N0060001N1+00701+00401100471ADDAY121999AY221999GA1081+003009069GF108991081051004501999999MA1999999094911MD1210281+9999MW1101REMSYN092AAXX  05141 11406 41456 83504 10070 20040 39491 40047 52028 71022 885// 333 88610 555 381//;
0191114060999992000041414004+50080+012400FM-12+047199999V0202101N002010240019N0250001N1+01071+00451100261ADDGA1011+004809089GA2071+024009039GF107991011021004501071011MA1999999094771MD1710091+9999REMSYN092AAXX  14141 11406 42475 72102 10107 20045 39477 40026 57009 81271 333 81816 87358 555 366//;
0219114060999992000041722004+50080+012400FM-12+047199999V0202401N001010060019N0140001N1+00861+00471101081ADDAY161999AY261999GA1051+006009069GA2081+024009049GF108991051051008001021999MA1999999095511MD1210141+9999MW1611REMSYN098AAXX  17221 11406 41564 82401 10086 20047 39551 40108 52014 76166 8552/ 333 85620 88458 555 376//;
0244114060999992000042206004+50080+012400FM-12+047199999V0209999C000012200019N0200001N1+00921+00701101811ADDAA124000091GA1021+060009019GF102991001001999999001011IA1099IA2999+00209KA1120N+00661MA1999999096221MD1610031+9999REMSYN100AAXX  22061 11406 32970 20000 10092 20070 39622 40181 56003 80001 333 20066 31002 50262 70000 82070;EQDQ01  00002PRCP24
0195114060999992000042518004+50080+012400FM-12+047199999V0209999C000012200019N0250001N1+01521+00781101331ADDAA112000791GA1011+012009059GF102991011041012501001011KA1120M+01771MA1999999095881MD1710061+9999REMSYN088AAXX  25181 11406 12675 20000 10152 20078 39588 40133 57006 69902 81401 333 10177 81640;
0191114060999992000042820004+50080+012400FM-12+047199999V0200501N002010600019N0160001N1+01701+00961100911ADDGA1031+030009039GA2031+060009009GF105991031001999999031011MA1999999095511MD1110081+9999REMSYN092AAXX  28201 11406 42966 50502 10170 20096 39551 40091 51008 83031 333 83360 83070 555 362//;
0203114060999992000042900004+50080+012400FM-12+047199999V0200901N001010300019N0150001N1+01621+00941100971ADDAA199000091GA1051+030009079GF106991051001999999051011GJ100369MA1999999095561MD1310031+9999REMSYN082AAXX  29001 11406 32965 60901 10162 20094 39556 40097 53003 85051 333 55006 85360;EQDQ01  00002PRCP99
0191114060999992000042911004+50080+012400FM-12+047199999V0200901N001010300019N0200001N1+02321+01141101221ADDGA1011+012009089GA2031+030009039GF106991011021012501031011MA1999999095921MD1010071+9999REMSYN092AAXX  29111 11406 42670 60901 10232 20114 39592 40122 50007 81231 333 81840 83360 555 347//;
0187114060999992000050103004+50080+012400FM-12+047199999V0209999C000012200019N0035001N1+01051+00981101921ADDAY101031AY201031GA1011+003909059GF101991011051004501041001MA1999999096351MD1710031+9999MW1101REMSYN082AAXX  01031 11406 41435 10000 10105 20098 39635 40192 57003 71000 81540 333 81613;
0241114060999992000050116004+50080+012400FM-12+047199999V0201901N003010090019N0200001N1+01301+01021101861ADDAY191999AY281999GA1021+007809099GA2031+009009089GA3081+030009039GF108991051031008001071999MA1999999096341MD1010141+9999MW1291REMSYN104AAXX  01161 11406 41570 81903 10130 20102 39634 40186 50014 72998 8537/ 333 82926 83830 88360 555 383//;
0219114060999992000050916004+50080+012400FM-12+047199999V0203501N002010300019N0250001N1+01931+01191101691ADDAY191999AY281999GA1011+007809099GA2031+009909089GF105991041031008001071021MA1999999096301MD1810011+9999MW1291REMSYN098AAXX  09161 11406 41575 53502 10193 20119 39630 40169 58001 72998 84372 333 81926 83833 555 362//;
0153114060999992000051314004+50080+012400FM-12+047199999V0200801N002012200019N0250001N1+02141+00521102201ADDGA1001+999999999GF100991001001999999001001MA1999999096811MD1710051+9999REMSYN070AAXX  13141 11406 42975 00802 10214 20052 39681 40220 57005 555 335//;
0224114060999992000051800004+50080+012400FM-12+047199999V0202401N00201030001CN0150001N1+01411+01261101211ADDAA106001091AY181061AY221061GA1041+004509079GF108991041071004501021999GJ105709MA1999999095751MD1510001+9999MW1611REMSYN100AAXX  18001 11406 11465 82402 10141 20126 39575 40121 55000 60011 76182 8472/ 333 55095 84715 88458;
0219114060999992000051816004+50080+012400FM-12+047199999V0202301N002010300019N0200001N1+01261+00931100891ADDAY121999AY221999GA1041+004809089GA2081+030009039GF108991041021004501071999MA1999999095421MD1510101+9999MW1251REMSYN098AAXX  18161 11406 41470 82302 10126 20093 39542 40089 55010 72522 8427/ 333 84816 88360 555 380//;
0175114060999992000052514004+50080+012400FM-12+047199999V0202501N006010300019N0200001N1+01981+00961101191ADDGA1061+030009039GF106991061001999999071001MA1999999095831MD1210011+9999REMSYN092AAXX  25141 11406 42970 62506 10198 20096 39583 40119 52001 86070 333 86360 91015 555 352//;
0153114060999992000052723004+50080+012400FM-12+047199999V0201801N001012200019N0200001N1+00641+00541101841ADDGA1001+999999999GF100991001001999999001001MA1999999096191MD1810021+9999REMSYN070AAXX  27231 11406 42970 01801 10064 20054 39619 40184 58002 555 393//;
0203114060999992000060200004+50080+012400FM-12+047199999V0209999C000012200019N0200001N1+01081+00891102381ADDAA199000091GA1011+030009079GF101991011001999999041001GJ104029MA1999999096791MD1810021+9999REMSYN082AAXX  02001 11406 32970 10000 10108 20089 39679 40238 58002 81040 333 55067 81360;EQDQ01  00002PRCP99
0169114060999992000060202004+50080+012400FM-12+047199999V0209999C000012200019N0200001N1+00911+00791102401ADDGA1011+030009039GF101991011001999999041011MA1999999096771MD1710021+9999REMSYN086AAXX  02021 11406 42970 10000 10091 20079 39677 40240 57002 81041 333 81360 555 392//;
0191114060999992000060210004+50080+012400FM-12+047199999V0202401N003012200019N0250001N1+02271+01071102051ADDGA1011+013809089GA2031+060009009GF103991011011012501001011MA1999999096701MD1710091+9999REMSYN092AAXX  02101 11406 42675 32403 10227 20107 39670 40205 57009 81101 333 81846 83070 555 347//;
0159114060999992000060403004+50080+012400FM-12+047199999V0209999C000012200019N0200001N1+01351+01091101761ADDGA1011+030009079GF102991011001999999041011MA1999999096261MD1510001+9999REMSYN076AAXX  04031 11406 42970 20000 10135 20109 39626 40176 55000 81041 333 81360;
0219114060999992000060520004+50080+012400FM-12+047199999V0200701N005010069019N0150001N1+01611+01481101351ADDAY191999AY281999GA1031+006009099GA2041+006909089GF107991071091008001999999MA1999999095931MD1010131+9999MW1291REMSYN098AAXX  05201 11406 41565 70705 10161 20148 39593 40135 50013 72998 879// 333 83920 84823 555 392//;
0153114060999992000061004004+50080+012400FM-12+047199999V0200201N002012200019N0150001N1+01431+01171101551ADDGA1001+999999999GF100991001001999999001001MA1999999096071MD1510001+9999REMSYN070AAXX  10041 11406 42965 00202 10143 20117 39607 40155 55000 555 384//;
0193114060999992000061515004+50800+012390FM-12+047199999V0203001N002010300019N0150001N1+01401+01201102041ADDAY181031AY221031GA1031+003909089GF106991031021004501071001MA1999999096541MD1210061+9999MW1251REMSYN088AAXX  15151 11406 41465 63002 10140 20120 39654 40204 52006 72582 83270 333 83813 85360;
0159114060999992000062209004+50800+012390FM-12+047199999V0202701N002012200019N0300001N1+02861+01091101331ADDGA1011+030009079GF101991011001999999061011MA1999999096121MD1810041+9999REMSYN076AAXX  22091 11406 42980 12702 10286 20109 39612 40133 58004 81061 333 81360;
0218114060999992000062300004+50800+012390FM-12+047199999V0209999C000010090019N0100001N1+01751+01301101741ADDAA106000191AY181061AY221061GA1071+009009029GF108991071021008001999999GJ106309MA1999999096321MD1010011+9999MW1801REMSYN094AAXX  23001 11406 11560 80000 10175 20130 39632 40174 50001 69911 78082 872// 333 55105 87830;
0169114060999992000062916004+50800+012390FM-12+047199999V0203101N005012200019N0200001N1+01641+00281101601ADDGA1041+018009069GF104991041041017501001001MA1999999096151MD1510021+9999REMSYN086AAXX  29161 11406 42770 43105 10164 20028 39615 40160 55002 84400 333 84656 555 340//;
0169114060999992000070502004+50800+012390FM-12+047199999V0201801N005010060019N0250001N1+01331+01121100911ADDGA1071+006009069GF107991071051008001999999MA1999999095461MD1810011+9999REMSYN086AAXX  05021 11406 42575 71805 10133 20112 39546 40091 58001 875// 333 87620 555 387//;
0191114060999992000070904004+50800+012390FM-12+047199999V0201601N001010060019N0120001N1+00901+00811101261ADDGA1051+006009069GA2051+030009039GF107991051051008001071001MA1999999095701MD1710141+9999REMSYN092AAXX  09041 11406 42562 71601 10090 20081 39570 40126 57014 85570 333 85620 85360 555 394//;
0197114060999992000071402004+50800+012390FM-12+047199999V0201701N004010030019N0100001N1+01081+00971100791ADDAY161999AY261999GA1071+003009069GF108991071051004501071999MA1999999095291MD1710241+9999MW1601REMSYN092AAXX  14021 11406 41460 81704 10108 20097 39529 40079 57024 76066 8757/ 333 87610 555 393//;
0191114060999992000071616004+50800+012390FM-12+047199999V0202801N003010300019N0350001N1+01571+00611101191ADDGA1021+012009089GA2051+030009039GF107991021021012501061011MA1999999095751MD1510011+9999REMSYN092AAXX  16161 11406 42681 72803 10157 20061 39575 40119 55001 82261 333 82840 85360 555 353//;
0191114060999992000072010004+50070+012390FM-12+047199999V0202501N002010129019N0250001N1+01471+00841101911ADDGA1021+007509089GA2071+012909069GF107991071081008001999999MA1999999096421MD1010041+9999REMSYN092AAXX  20101 11406 42575 72502 10147 20084 39642 40191 50004 878// 333 82825 87643 555 366//;
0219114060999992000072422004+50070+012390FM-12+047199999V0201401N002010300019N0180001N1+01521+01451100591ADDAY181999AY221999GA1021+006009089GA2071+030009039GF108991021021008001071999MA1999999095201MD1810011+9999MW1251REMSYN098AAXX  24221 11406 41568 81402 10152 20145 39520 40059 58001 72582 8227/ 333 82820 87360 555 396//;
0191114060999992000072801004+50070+012390FM-12+047199999V0209999C000010006019N0008001N1+01361+01301101371ADDAY101999AY201999GA1091+000609999GF109991091999999999999999MA1999999095901MD1710141+9999MW1471REMSYN086AAXX  28011 11406 41/08 90000 10136 20130 39590 40137 57014 74700 333 89/02 555 396//;
0169114060999992000080507004+50070+012390FM-12+047199999V0203501N001012200019N0200001N1+01651+01151102081ADDGA1011+030009039GF101991011001999999041011MA1999999096621MD1110021+9999REMSYN086AAXX  05071 11406 42970 13501 10165 20115 39662 40208 51002 81041 333 81360 555 372//;
0169114060999992000080520004+50070+012390FM-12+047199999V0200201N001010150019N0200001N1+01821+01131101991ADDGA1061+015009069GF108991061041017501071999MA1999999096561MD1310031+9999REMSYN086AAXX  05201 11406 42770 80201 10182 20113 39656 40199 53003 8647/ 333 86650 555 364//;
0169114060999992000080607004+50070+012390FM-12+047199999V0203101N002010270019N0200001N1+01541+01131101891ADDGA1071+027009039GF107991071001999999071999MA1999999096421MD1310031+9999REMSYN086AAXX  06071 11406 42970 73102 10154 20113 39642 40189 53003 8707/ 333 87359 555 377//;
0169114060999992000081414004+50070+012390FM-12+047199999V0202201N001012200019N0300001N1+02991+00741101731ADDGA1011+015009089GF101991011011017501001001MA1999999096521MD1710071+9999REMSYN086AAXX  14141 11406 42780 12201 10299 20074 39652 40173 57007 81100 333 81850 555 324//;
0153114060999992000081422004+50070+012390FM-12+047199999V0209999C000012200019N0200001N1+01701+01061102061ADDGA1001+999999999GF100991001001999999001001MA1999999096611MD1210091+9999REMSYN070AAXX  14221 11406 42970 00000 10170 20106 39661 40206 52009 555 366//;
0187114060999992000081521004+50070+012390FM-12+047199999V0202001N001010300019N0080001N1+01841+01751101851ADDAY111031AY211031GA1051+030009079GF105991051001999999071001MA1999999096451MD1110041+9999MW1101REMSYN082AAXX  15211 11406 41958 52001 10184 20175 39645 40185 51004 71011 85070 333 85360;
0153114060999992000082404004+50070+012390FM-12+047199999V0203001N001012200019N0100001N1+00961+00871102471ADDGA1001+999999999GF100991001001999999001001MA1999999096851MD1610021+9999REMSYN070AAXX  24041 11406 42960 03001 10096 20087 39685 40247 56002 555 394//;
0169114060999992000082513004+50070+012390FM-12+047199999V0202801N002012200019N0300001N1+02021+00861102061ADDGA1011+012009089GF101991011011012501001011MA1999999096661MD1810031+9999REMSYN086AAXX  25131 11406 42680 12802 10202 20086 39666 40206 58003 81101 333 81840 555 347//;
0195114060999992000091318004+50070+012390FM-12+047199999V0202101N001012200019N0200001N1+01711+01291101291ADDAA112000191GA1021+006909059GF103991021041008001061001KA1120M+02101MA1999999095891MD1310041+9999REMSYN088AAXX  13181 11406 12570 32101 10171 20129 39589 40129 53004 69912 82460 333 10210 82623;
0218114060999992000092200004+50070+012390FM-12+047199999V0202701N001010012019N0030001N1+00851+00801101991ADDAA106000891AY151061AY251061GA1081+001209069GF108991081071001501999999GJ100009MA1999999096371MD1210121+9999MW1511REMSYN094AAXX  22001 11406 11230 82701 10085 20080 39637 40199 52012 69971 75155 887// 333 55000 88704;
0197114060999992000092201004+50070+012390FM-12+047199999V0202601N001010012019N0030001N1+00861+00771101991ADDAY151999AY251999GA1081+001209079GF108991081071001501999999MA1999999096381MD1110101+9999MW1511REMSYN092AAXX  22011 11406 41230 82601 10086 20077 39638 40199 51010 75155 887// 333 88704 555 394//;
0197114060999992000092214004+50070+012390FM-12+047199999V0202601N001010030019N0090001N1+01091+00871102541ADDAY121999AY221999GA1081+003009069GF108991081051004501999999MA1999999096951MD1210061+9999MW1101REMSYN092AAXX  22141 11406 41459 82601 10109 20087 39695 40254 52006 71022 885// 333 88610 555 386//;
0153114060999992000092908004+50070+012390FM-12+047199999V0200201N001012200019N0100001N1+01351+00901100961ADDGA1001+999999999GF100991001001999999001001MA1999999095501MD1610021+9999REMSYN070AAXX  29081 11406 42960 00201 10135 20090 39550 40096 56002 555 374//;
0187114060999992000101515004+50070+012390FM-12+047199999V0200201N002010600019N0090001N1+01961+01371100801ADDAY121031AY221031GA1051+060009019GF105991001001999999001011MA1999999095471MD1710181+9999MW1101REMSYN082AAXX  15151 11406 41959 50202 10196 20137 39547 40080 57018 71022 80001 333 85070;
0191114060999992000102108004+50070+012390FM-12+047199999V0200501N002012200019N0200001N1+00821+00511102721ADDGA1011+004809089GA2031+060009009GF103991011011004501001011MA1999999097061MD1210211+9999REMSYN092AAXX  21081 11406 42470 30502 10082 20051 39706 40272 52021 81101 333 81816 83070 555 381//;
0197114060999992000102319004+50070+012390FM-12+047199999V0201801N002010006019N0025001N1+00611+00541102641ADDAY121999AY221999GA1081+000609079GF108991081061000751999999MA1999999096941MD1610061+9999MW1101REMSYN092AAXX  23191 11406 41125 81802 10061 20054 39694 40264 56006 71022 886// 333 88702 555 395//;
0210114060999992000102412004+50070+012390FM-12+047199999V0202101N005012200019N0150001N1+01411+00971101981ADDAA106000191AY161061AY211061GA1021+003909089GF103991021021004501001011MA1999999096481MD1810081+9999MW1011REMSYN094AAXX  24121 11406 11465 32105 10141 20097 39648 40198 58008 69921 70161 82201 333 82813 83070;
0214114060999992000102518004+50070+012390FM-12+047199999V0202001N006010084019N0200001N1+01451+01001101131ADDAA199000091GA1071+008409069GF108991071051008001071999KA1120M+01581MA1999999095681MD1610071+9999REMSYN088AAXX  25181 11406 32570 82006 10145 20100 39568 40113 56007 8757/ 333 10158 87628 91012;EQDQ01  00002PRCP99
0191114060999992000103123004+50070+012390FM-12+047199999V0201801N004010120019N0200001N1+00691+00481100751ADDGA1041+003009089GA2071+012009069GF108991071081004501999999MA1999999095171MD1110091+9999REMSYN092AAXX  31231 11406 42470 81804 10069 20048 39517 40075 51009 878// 333 84810 87640 555 386//;
0213114060999992000110208004+50070+012390FM-12+047199999V0201501N002010300019N0250001N1+00711+00511100931ADDGA1011+003009079GA2041+006909069GA3051+030009039GF107991041051004501071999MA1999999095341MD1110041+9999REMSYN098AAXX  02081 11406 42475 71502 10071 20051 39534 40093 51004 8457/ 333 81710 84623 85360 555 387//;
0197114060999992000111704004+50070+012390FM-12+047199999V0202901N001010030019N0030001N1+00261+00201101331ADDAY161999AY261999GA1081+003009079GF108991081071004501999999MA1999999095631MD1510051+9999MW1611REMSYN092AAXX  17041 11406 41430 82901 10026 20020 39563 40133 55005 76166 887// 333 88710 555 396//;
0197114060999992000112120004+50070+012390FM-12+047199999V0201701N001010030019N0080001N1+00431+00271101131ADDAY121999AY221999GA1081+003009069GF108991081051004501999999MA1999999095481MD1210061+9999MW1101REMSYN092AAXX  21201 11406 41458 81701 10043 20027 39548 40113 52006 71022 885// 333 88610 555 389//;
0169114060999992000112716004+50070+012390FM-12+047199999V0209999C000012200019N0180001N1+00271+00011102081ADDGA1021+006009069GF102991021041008001001001MA1999999096341MD1210131+9999REMSYN086AAXX  27161 11406 42568 20000 10027 20001 39634 40208 52013 82400 333 82620 555 383//;
0197114060999992000112813004+50070+012390FM-12+047199999V0201801N001010021019N0030001N1+00401+00351101921ADDAY161999AY261999GA1081+002109079GF108991081071002501999999MA1999999096221MD1610141+9999MW1611REMSYN092AAXX  28131 11406 41330 81801 10040 20035 39622 40192 56014 76166 887// 333 88707 555 396//;
0208114060999992000120219004+50070+012390FM-12+047199999V0209999V002012200019N0030001N1+00351+00271102021ADDAA199000021AY111999AY211999GA1031+001809079GF103991031061001501001001MA1999999096311MD1710061+9999MW1101REMSYN092AAXX  02191 11406 31230 39902 10035 20027 39631 40202 57006 71011 83600 333 83706 555 394//;
0203114060999992000121200004+50070+012390FM-12+047199999V0202101N003010300019N0180001N1+00591+00281102411ADDAA199000091GA1071+030009079GF107991071001999999071001GJ100009MA1999999096501MD1510071+9999REMSYN082AAXX  12001 11406 32968 72103 10059 20028 39650 40241 55007 87070 333 55000 87360;EQDQ01  00002PRCP99
0208114060999992000121916004+50070+012390FM-12+047199999V0200101N001012200019N0070001N1-00111-00241102651ADDAA199000021AY101999AY201999GA1011+030009039GF101991011001999999071011MA1999999096571MD1210181+9999MW1101REMSYN092AAXX  19161 11406 31957 10101 11011 21024 39657 40265 52018 71000 81071 333 81360 555 391//;
0201114060999992000122221004+50070+012390FM-12+047199999V0200501N003012200019N0040001N1-00771-00931102471ADDAA199000091AY101031AY201031GA1001+999999999GF100991001001999999001001MA1999999096251MD1810091+9999MW1101REMSYN066AAXX  22211 11406 31940 00503 11077 21093 39625 40247 58009 71000;EQDQ01  00002PRCP99
0211114060999992000122223004+50070+012390FM-12+047199999V0200901N002012200019N0040001N1-00861-01041102371ADDAA199000091AY101999AY201999GA1001+999999999GF100991001001999999001001MA1999999096141MD1710161+9999MW1101REMSYN076AAXX  22231 11406 31940 00902 11086 21104 39614 40237 57016 71000 555 387//;EQDQ01  00002PRCP99
0216114060999992000122703004+50070+012390FM-12+047199999V0200801N00101075001CN0012001N1-00141-00201099511ADDAA199000091AY121031AY221031GA1081+999999009GF108991081061000751999999MA1999999093611MD1010041+9999MW1101REMSYN081AAXX  27031 11406 31112 80801 11014 21020 39361 49951 50004 71022 886// 333 8803;EQDQ01  00002PRCP99
0198114060999992000122903004+50070+012390FM-12+047199999V0201801N001012200019N0030001N1-00251-00401100051ADDAA199000021AY101031AY201031GA1021+003009059GF102991021051004501001001MA1999999094101MD1310021+9999MW1101REMSYN082AAXX  29031 11406 31430 21801 11025 21040 39410 40005 53002 71000 82500 333 82610;
0331114140999992000010121004+50200+012900SY-MT+0604LKKV V0202801N003010045019N0035001N1+00001-00061999999ADDAY171031AY221031GA1021+001509999GA2071+004509999GA3081+012009999GF108991081051001501999999MA1102001095001MD1210041+9999ME1208199MW1611MW2681REMSYN104AAXX  01211 11414 41235 82803 10000 21006 39500 42819 52004 76872 885// 333 84705 86615 88640 555 396//;MET069LKKV 012100Z 28007KT 3500 -RASN BR SCT005 BKN015 OVC040 00/M01 Q1020;
0262114140999992000010414004+50200+012900SY-MT+0604LKKV V0209999V002010024019N0120001N1+00181+00001999999ADDGA1081+002409999GF108991081061002501999999MA1101801094771MD1710171+9999ME1208019MW1001REMSYN086AAXX  04141 11414 42362 89902 10018 20000 39477 42801 57017 886// 333 88708 555 388//;MET053LKKV 041400Z 25004KT 160V350 9999 OVC008 02/00 Q1018;EQDQ01+000000PRSWM2
0218114140999992000010522004+50200+012900SY-MT+0604LKKV V0201001N001012200019N0150001N1-00291-00331999999ADDGF100991001001999999001001MA1102201095181MD1010001+9999ME1208319MW1001REMSYN070AAXX  05221 11414 42965 01001 11029 21033 39518 42831 50000 555 397//;MET041LKKV 052200Z 10002KT CAVOK M03/M03 Q1022;EQDQ01+000000PRSWM2
0244114140999992000010612004+50200+012900SY-MT+0604LKKV V0209999V002012200019N0400001N1+00481-00221999999ADDAA106000091GF100991001001999999001001MA1102001095001MD1710121+9999ME1208229MW1001REMSYN070AAXX  06121 11414 32982 09902 10048 21022 39500 42822 57012 555 360//;MET040LKKV 061200Z VRB03KT CAVOK 05/M01 Q1020;EQDQ01+000000PRSWM2Q02  00002PRCP06
0256114140999992000011104004+50200+012900SY-MT+0604LKKV V0209999C000010036019N0150001N1-00261-00551999999ADDGA1081+003609999GF108991081051004501999999MA1103491096401MD1210021+9999ME1209339MW1001REMSYN086AAXX  11041 11414 42465 80000 11026 21055 39640 42933 52002 885// 333 88612 555 380//;MET047LKKV 110400Z VRB01KT 9999 OVC012 M03/M05 Q1035;EQDQ01+000000PRSWM2
0250114140999992000012405004+50200+012900SY-MT+0604LKKV V0209999C000012200019N0200001N1-01751-01861999999ADDGA1011+030009039GF101991011001999999041001MA1101801094761MD1110091+9999ME1207869MW1001REMSYN086AAXX  24051 11414 42970 10000 11175 21186 39476 42786 51009 81040 333 81360 555 391//;MET041LKKV 240500Z VRB01KT CAVOK M17/M19 Q1018;EQDQ01+000000PRSWM2
0262114140999992000020221004+50200+012900SY-MT+0604LKKV V0203001N005012200019N0120001N1+00421+00191999999ADDGA1021+012009999GF103991031051012501001001MA1101591094621MD1210231+9999ME1207899MW1001REMSYN086AAXX  02211 11414 42662 33005 10042 20019 39462 42789 52023 83500 333 83640 555 385//;MET053LKKV 022100Z 30010KT 270V350 9999 SCT040 04/02 Q1016;EQDQ01+000000PRSWM2
0308114140999992000021222004+50200+012900SY-MT+0604LKKV V0202601N003010060019N0150001N1-00011-00361999999ADDAA199000091GA1081+006009999GF108991081051008001999999MA1101901094881MD1710091+9999ME1208089MW1001OC100821REMSYN092AAXX  12221 11414 32565 82603 11001 21036 39488 42808 57009 885// 333 88620 91008 555 377//;MET058LKKV 122200Z 26006G16KT 160V020 9999 OVC020 M00/M04 Q1019;EQDQ01+000000PRSWM2Q02  00002PRCP99
0279114140999992000022600004+50200+012900SY-MT+0604LKKV V0202801N003012200019N0180001N1-00091-00191999999ADDAA199000021GF100991001001999999001001GJ100249MA1102811095741MD1210101+9999ME1208809MW1001REMSYN104AAXX  26001 11414 32968 02803 11009 21019 39574 42880 52010 333 55004 555 393// 50017 60019 70021 80022;MET049LKKV 260000Z 28006KT 250V320 CAVOK M01/M02 Q1028;EQDQ01+000000PRSWM2
0351114140999992000022612004+50200+012900SY-MT+0604LKKV V0209999V003010600019N0300001N1+00211-00111999999ADDAA199000091GA1021+004809999GA2071+060009999GF199999031021004501001011MA1103011095901MD1010011+9999ME1208979MW1001REMSYN116AAXX  26121 11414 32480 69903 10021 21011 39590 42897 50001 83201 333 83816 85070 555 380// 50013 60014 70017 80022;MET053LKKV 261200Z 31005KT 9999 SCT016 BKN200 02/M01 Q1030;EQDQ01+000062SCOTCVQ02+000000PRSWM2Q03  00002PRCP99
0340114140999992000022920004+50200+012900SY-MT+0604LKKV V0201801N003010048019N0140001N1+00371+00301999999ADDAA101000191AY161999AY221999GA1071+004809999GA2071+018009999GF108991061051004501071999MA1100711093751MD1810221+9999ME1207149MW1601MW2611REMSYN104AAXX  29201 11414 21464 81803 10037 20030 39375 42714 58022 76062 8657/ 333 69915 86616 86356 555 395//;MET064LKKV 292000Z 18006KT 100V320 9999 -RA BKN016 BKN060 04/03 Q1007;EQDQ01    003PRSWM1
0290114140999992000030107004+50200+012900SY-MT+0604LKKV V0202401N003010054019N0250001N1+00441+00161999999ADDAA199000021GA1071+005409999GF107991071051004501999999MA1100001093051MD1310071+9999ME1206529MW1001OC100871REMSYN092AAXX  01071 11414 32475 72403 10044 20016 39305 42652 53007 875// 333 87618 91009 555 382//;MET056LKKV 010700Z 24006G17KT 160V350 9999 BKN018 04/02 Q1000;EQDQ01+000000PRSWM2
0288114140999992000030218004+50200+012900FM-12+0604LKKV V0202601N004010138019N0150001N1-00021-00271999999ADDAA112000791AY181061AY221061GA1031+005409089GA2051+013809069GF107991071081004501001011KA1120M+00161MA1999999094821MD1510001+9999ME1208039MW1851REMSYN134AAXX  02181 11414 11465 72604 11002 21027 39482 42803 55000 69902 78582 87801 333 10016 83818 85646 555 383// 50024 60025 70027 80030;
0364114140999992000031312004+50200+012900SY-MT+0604LKKV V0209999V002010039019N0100001N1+00361+00241999999ADDAA106000891AY171061AY261061GA1021+001809999GA2071+003909999GF108991081051002501999999MA1102401095331MD1810041+9999ME1208509MW1601MW2611REMSYN128AAXX  13121 11414 11360 89902 10036 20024 39533 42850 58004 69981 76076 885// 333 83706 87613 555 392// 50037 60034 70033 80035;MET064LKKV 131200Z 28004KT 230V320 9999 -RA SCT006 BKN013 04/02 Q1024;EQDQ01    003PRSWM1
0351114140999992000031711004+50200+012900SY-MT+0604LKKV V0203401N005010045019N0140001N1+00311+00091999999ADDAA101000491AY161999AY261999GA1021+002409999GA2071+004509999GF108991081051002501999999MA1101591094581MD1210111+9999ME1207859MW1611OC100981REMSYN110AAXX  17111 11414 21364 83405 10031 20009 39458 42785 52011 76166 885// 333 69945 83708 87615 91010 555 385//;MET067LKKV 171100Z 34010G19KT 310V010 9999 -RA SCT008 BKN015 03/01 Q1016;EQDQ01    003PRSWM1
0408114140999992000031806004+50200+012900SY-MT+0604LKKV V0203301N003010600019N0250001N1-00261-00581999999ADDAA124003391AJ100059199999999GA1021+007509999GA2071+060009999GF199999021021008001001021IA1309IA2999-00509KA1120N-00331MA1102101095041MD1110141+9999ME1208209MW1001REMSYN140AAXX  18061 11414 32575 53303 11026 21058 39504 42820 51014 82202 333 21033 3/105 42005 70034 82825 85070 555 378// 50013 60017 70022 80029;MET054LKKV 180600Z 33006KT 9999 FEW025 BKN200 M02/M06 Q1021;EQDQ01+000052SCOTCVQ02+000000PRSWM2
0351114140999992000032011004+50200+012900SY-MT+0604LKKV V0203001N003010300019N0300001N1+00481+00001999999ADDAA199000091GA1021+004509999GA2071+030009999GF199999011011004501071091MA1102511095481MD1810041+9999ME1208649MW1001REMSYN092AAXX  20111 11414 32480 63003 10048 20000 39548 42864 58004 81179 333 81815 85360 555 371//;MET077LKKV 201100Z 30006KT 260V350 9999 FEW015 BKN100 05/00 Q1025 RMK REG QNH 1023;EQDQ01+000062SCOTCVQ02+000000PRSWM2Q03  00002PRCP99
0298114140999992000032015004+50200+012900SY-MT+0604LKKV V0202901N004010270019N0400001N1+00521-00321999999ADDAA199000091GA1041+015009069GA2061+027009039GF107991041051017501071999MA1102301095281MD1710161+9999ME1208479MW1001REMSYN092AAXX  20151 11414 32782 72904 10052 21032 39528 42847 57016 8457/ 333 84650 86359 555 355//;MET040LKKV 201500Z 29008KT CAVOK 05/M03 Q1023;EQDQ01+000000PRSWM2Q02  00002PRCP99
0335114140999992000032513004+50200+012900SY-MT+0604LKKV V0202701N003010240019N0150001N1+00881+00551999999ADDAA199000021GA1021+004809999GA2071+024009999GF199999031021004501071001MA1101491094501MD1810031+9999ME1207829MW1001REMSYN092AAXX  25131 11414 32465 62703 10088 20055 39450 42782 58003 83270 333 83816 86358 555 380//;MET077LKKV 251300Z 27007KT 210V310 9999 SCT016 BKN083 09/06 Q1015 RMK REG QNH 1012;EQDQ01+000062SCOTCVQ02+000000PRSWM2
0361114140999992000032711004+50200+012900SY-MT+0604LKKV V0209999V00101004801CN0180001N1+00381+00281999999ADDAA101000191AY161999AY221999GA1021+001509999GA2021+003009999GA3071+004809999GF108991081051001501999999MA1100411093491MD1010031+9999ME1206919MW1601MW2611REMSYN110AAXX  27111 11414 21268 89901 10038 20028 39349 42691 50003 76062 885// 333 69915 82705 83710 87616 555 393//;MET063LKKV 271100Z VRB03KT 9999 -RA FEW005 SCT010 BKN016 04/03 Q1004;EQDQ01    003PRSWM1
0139114140999992000040804144+50200+012900FM-15+0604LKKV V0203101N002110120019N0112651N1+00201+00101999999ADDGA1071+012009999GF107991999999999999999999MA1102401999999MW1001REMMET045LKKV 080414Z 31004KT 9999 BKN040 02/01 Q1024;EQDQ01+000000PRSWM2
0284114140999992000041001004+50200+012900SY-MT+0604LKKV V0200501N003012200019N0200001N1+00131-00061999999ADDAA199000091GA1011+060009009GF101991001001999999001011MA1101081094081MD1810091+9999ME1207419MW1001REMSYN086AAXX  10011 11414 32970 10503 10013 21006 39408 42741 58009 80001 333 81070 555 387//;MET048LKKV 100100Z 05005KT 020V090 CAVOK 01/M01 Q1011;EQDQ01+000000PRSWM2Q02  00002PRCP99
0281114140999992000041604004+50200+012900SY-MT+0604LKKV V0209999V002010600019N0400001N1+00491+00131999999ADDAA199000021GA1011+039009039GA2071+060009029GF107991011001999999031081MA1100411093451MD1210061+9999ME1206889MW1001REMSYN092AAXX  16041 11414 32982 79902 10049 20013 39345 42688 52006 81038 333 81363 87270 555 377//;MET039LKKV 160400Z VRB03KT CAVOK 05/01 Q1004;EQDQ01+000000PRSWM2
0243114140999992000050523004+50200+012900SY-MT+0604LKKV V0201301N002012200019N0300001N1+01291+00421999999ADDAA199000091GF100991001001999999001001MA1101691094691MD1210031+9999ME1208029MW1001REMSYN070AAXX  05231 11414 32980 01302 10129 20042 39469 42802 52003 555 356//;MET039LKKV 052300Z 13003KT CAVOK 13/04 Q1017;EQDQ01+000000PRSWM2Q02  00002PRCP99
0243114140999992000050702004+50200+012900SY-MT+0604LKKV V0201001N002012200019N0300001N1+01101+00321999999ADDAA199000091GF100991001001999999001001MA1101691094671MD1510001+9999ME1207999MW1001REMSYN070AAXX  07021 11414 32980 01002 10110 20032 39467 42799 55000 555 359//;MET039LKKV 070200Z 10004KT CAVOK 11/03 Q1017;EQDQ01+000000PRSWM2Q02  00002PRCP99
0265114140999992000051901004+50200+012900SY-MT+0604LKKV V0209999V001010021019N0200001N1+00641+00601999999ADDAA199000021GA1081+002109999GF108991081061002501999999MA1100811093811MD1510021+9999ME1207239MW1001REMSYN086AAXX  19011 11414 32370 89901 10064 20060 39381 42723 55002 886// 333 88707 555 398//;MET045LKKV 190100Z VRB01KT 9999 OVC007 06/06 Q1008;EQDQ01+000000PRSWM2
0327114140999992000051902004+50200+012900SY-MT+0604LKKV V0201101N001010300019N0200001N1+00611+00581999999ADDAA199000021AY121999AY221999GA1021+002109999GA2081+030009999GF108991021061002501071999MA1100811093811MD1810061+9999ME1207239MW1111MW2121REMSYN098AAXX  19021 11414 31370 81101 10061 20058 39381 42723 58006 71122 8267/ 333 82707 88360 555 398//;MET057LKKV 190200Z 11002KT 9999 MIFG FEW007 OVC100 06/06 Q1008;EQDQ01    003PRSWM1
0281114140999992000052001004+50200+012900SY-MT+0604LKKV V0201201N001010600019N0250001N1+00381+00311999999ADDAA199000021GA1031+027009039GA2031+060009009GF105991031001999999071021MA1100811093771MD1710081+9999ME1207189MW1001REMSYN092AAXX  20011 11414 32975 51201 10038 20031 39377 42718 57008 83072 333 83359 83070 555 395//;MET039LKKV 200100Z 12002KT CAVOK 04/03 Q1008;EQDQ01+000000PRSWM2
0265114140999992000052022004+50200+012900SY-MT+0604LKKV V0209999V001012200019N0150001N1+00401+00351999999ADDAA199000021GA1021+009909999GF102991021051012501001001MA1101081094121MD1210051+9999ME1207499MW1001REMSYN086AAXX  20221 11414 32665 29901 10040 20035 39412 42749 52005 82500 333 82633 555 397//;MET045LKKV 202200Z VRB02KT 9999 FEW033 04/04 Q1011;EQDQ01+000000PRSWM2
0363114140999992000052409004+50200+012900SY-MT+0604LKKV V0202901N00301030001CN0250001N1+01501+00671999999ADDAA199000091GA1021+009009999GA2021+015009999GA3071+030009999GF199999051081008001031001MA1101801094731MD1710031+9999ME1208109MW1001REMSYN098AAXX  24091 11414 32575 62903 10150 20067 39473 42810 57003 85830 333 82830 84650 85360 555 358//;MET067LKKV 240900Z 29007KT 230V360 9999 FEW030 SCT056 BKN100 15/07 Q1018;EQDQ01+000062SCOTCVQ02+000000PRSWM2Q03  00002PRCP99
0352114140999992000052906004+50200+012900SY-MT+0604LKKV V0202701N004012200019N0300001N1+00911+00461999999ADDAA112000391GA1021+004809999GF102991021021004501001011IA1099IA2999+00009KA1120N+00551MA1101081094101MD1210051+9999ME1207509MW1001REMSYN134AAXX  29061 11414 12480 22704 10091 20046 39410 42750 52005 69932 82201 333 20055 31000 70003 82816 555 374// 50119 60125 70130 80129;MET053LKKV 290600Z 27007KT 220V320 9999 FEW016 09/05 Q1011;EQDQ01+000000PRSWM2
0298114140999992000060103004+50200+012900SY-MT+0604LKKV V0201201N001012200019N0250001N1+00411+00351999999ADDAA199000021AY101031AY201031GA1021+060009999GF102991001001999999001011MA1102401095321MD1810021+9999ME1208539MW1111MW2121REMSYN092AAXX  01031 11414 31975 21201 10041 20035 39532 42853 58002 71100 80001 333 82070 555 396//;MET050LKKV 010300Z 12001KT 9999 MIFG FEW200 04/04 Q1024;EQDQ01    003PRSWM1
0275114140999992000060121004+50200+012900SY-MT+0604LKKV V0209999V001010300019N0200001N1+01341+00831999999ADDAA199000091GA1061+030009039GF106991061001999999071001MA1102401095291MD1210061+9999ME1208599MW1001REMSYN086AAXX  01211 11414 32970 69901 10134 20083 39529 42859 52006 86070 333 86360 555 371//;MET039LKKV 012100Z VRB01KT CAVOK 13/08 Q1024;EQDQ01+000000PRSWM2Q02  00002PRCP99
0335114140999992000060209004+50200+012900SY-MT+0604LKKV V0209999V002012200019N0450001N1+02051+01031999999ADDAA199000091GA1021+013809999GA2021+060009999GF103991011011012501001041MA1102301095201MD1810051+9999ME1208569MW1001REMSYN092AAXX  02091 11414 32683 39902 10205 20103 39520 42856 58005 81104 333 81846 83070 555 352//;MET077LKKV 020900Z 21004KT 050V350 9999 FEW046 SCT200 21/10 Q1023 RMK REG QNH 1021;EQDQ01+000000PRSWM2Q02  00002PRCP99
0335114140999992000060408004+50200+012900SY-MT+0604LKKV V0203201N003012200019N0400001N1+02181+01301999999ADDAA199000091GA1021+010809999GA2021+030009999GF104991011021012501031011MA1101801094751MD1010041+9999ME1208179MW1001REMSYN092AAXX  04081 11414 32682 43203 10218 20130 39475 42817 50004 81231 333 81836 83360 555 357//;MET077LKKV 040800Z 32005KT 280V350 9999 FEW036 SCT100 22/13 Q1018 RMK REG QNH 1015;EQDQ01+000000PRSWM2Q02  00002PRCP99
0310114140999992000061420004+50190+012890SY-MT+0604LKKV V0209999C000010600019N0200001N1+01511+01421999999ADDAA199000021GA1021+013809999GA2071+060009999GF199999041041012501001061MA1102101095051MD1310061+9999ME1208399MW1001REMSYN092AAXX  14201 11414 32670 60000 10151 20142 39505 42839 53006 84406 333 84646 86270 555 395//;MET052LKKV 142000Z 00000KT 9999 SCT046 BKN200 15/14 Q1021;EQDQ01+000062SCOTCVQ02+000000PRSWM2
0289114140999992000061609004+50190+012890SY-MT+0604LKKV V0203101N005012200019N0400001N1+01091+00291999999ADDAA199000091GA1021+009909999GF104991031021012501001011MA1102401095331MD1210071+9999ME1208599MW1001REMSYN086AAXX  16091 11414 32682 43105 10109 20029 39533 42859 52007 83201 333 83833 555 358//;MET053LKKV 160900Z 31010KT 270V020 9999 SCT033 11/03 Q1024;EQDQ01+000000PRSWM2Q02  00002PRCP99
0243114140999992000062104004+50190+012890SY-MT+0604LKKV V0209999C000012200019N0400001N1+01671+00951999999ADDAA199000091GF100991001001999999001001MA1101801094691MD1510011+9999ME1208089MW1001REMSYN070AAXX  21041 11414 32982 00000 10167 20095 39469 42808 55001 555 363//;MET039LKKV 210400Z 00000KT CAVOK 17/10 Q1018;EQDQ01+000000PRSWM2Q02  00002PRCP99
0360114140999992000062605004+50190+012890SY-MT+0604LKKV V0203101N00301009001CN0030001N1+00781+00701999999ADDAA101000491AY161999AY221999GA1021+001809999GA2021+003909999GA3071+009009999GF107991071081002501001001MA1101801094731MD1210041+9999ME1208049MW1101MW2211REMSYN110AAXX  26051 11414 21330 73103 10078 20070 39473 42804 52004 72162 87800 333 69945 83706 84613 87630 555 395//;MET062LKKV 260500Z 31006KT 3000 BR SCT006 SCT013 BKN030 08/07 Q1018;EQDQ01    003PRSWM1
0273114140999992000062711004+50190+012890SY-MT+0604LKKV V0203001N00501015001CN0400001N1+01131+00021999999ADDAA199000021GA1021+012909999GF105991051081012501001001MA1102001094941MD1710071+9999ME1208269MW1001REMSYN086AAXX  27111 11414 32682 53005 10113 20002 39494 42826 57007 85800 333 84843 555 346//;MET053LKKV 271100Z 30010KT 260V340 9999 SCT043 11/00 Q1020;EQDQ01+000000PRSWM2
0300114140999992000062814004+50190+012890SY-MT+0604LKKV V0202901N005012200019N0500001N1+01661+00161999999ADDAA199000091GA1031+015009029GF103991031011017501001001MA1101491094441MD1510051+9999ME1207859MW1001OC100981REMSYN092AAXX  28141 11414 32784 32905 10166 20016 39444 42785 55005 83100 333 83850 91010 555 336//;MET050LKKV 281400Z 29009G19KT 230V340 CAVOK 17/01 Q1015;EQDQ01+000000PRSWM2Q02  00002PRCP99
0281114140999992000062905004+50190+012890SY-MT+0604LKKV V0209999C000010099019N0300001N1+00551+00301999999ADDAA199000091GA1081+009909999GF108991081051008001999999MA1101691094681MD1210021+9999ME1207999MW1001REMSYN086AAXX  29051 11414 32580 80000 10055 20030 39468 42799 52002 885// 333 88633 555 384//;MET045LKKV 290500Z 00000KT 9999 OVC033 06/03 Q1017;EQDQ01+000000PRSWM2Q02  00002PRCP99
0259114140999992000070322004+50190+012890SY-MT+0604LKKV V0203601N00101220001CN0150001N1+01711+01331999999ADDAA199000091GF102991021051017501001001MA1101021093971MD1310041+9999ME1207439MW1001REMSYN086AAXX  03221 11414 32765 23601 10171 20133 39397 42743 53004 82500 333 82650 555 378//;MET039LKKV 032200Z 23002KT CAVOK 17/13 Q1010;EQDQ01+000000PRSWM2Q02  00002PRCP99
0273114140999992000072002004+50190+012890SY-MT+0604LKKV V0202901N005010078019N0200001N1+01051+00871999999ADDAA199000021GA1071+007809999GF107991071051008001001001MA1101691094671MD1810011+9999ME1208029MW1001REMSYN086AAXX  20021 11414 32570 72905 10105 20087 39467 42802 58001 87500 333 87626 555 389//;MET053LKKV 200200Z 29010KT 260V340 9999 BKN026 10/09 Q1017;EQDQ01+000000PRSWM2
0386114140999992000072406004+50190+012890SY-MT+0604LKKV V0209999C000010240019N0350001N1+01401+01101999999ADDAA124000091GA1051+024009079GA2081+033009019GF108991081999999999071999IA1019IA2999+00709KA1120N+01141MA1101081094091MD1810051+9999ME1207529MW1001REMSYN134AAXX  24061 11414 32981 80000 10140 20110 39409 42752 58005 8807/ 333 20114 30007 70000 85358 88461 555 382// 50143 60145 70147 80143;MET039LKKV 240600Z 00000KT CAVOK 14/11 Q1011;EQDQ01+000000PRSWM2Q02  00002PRCP24Q03    003SCOLCG
0139114140999992000072621124+50190+012890FM-15+0604LKKV V0202801N002110054019N0112651N1+01401+01201999999ADDGA1071+005409999GF107991999999999999999999MA1101191999999MW1001REMMET045LKKV 262112Z 28004KT 9999 BKN018 14/12 Q1012;EQDQ01+000000PRSWM2
0351114140999992000080309004+50190+012890SY-MT+0604LKKV V0203101N003010600019N0250001N1+01811+01131999999ADDAA199000091GA1021+006909999GA2071+060009999GF199999021011008001001061MA1102101094981MD1010031+9999ME1208349MW1001REMSYN092AAXX  03091 11414 32575 53103 10181 20113 39498 42834 50003 82106 333 82823 85070 555 365//;MET077LKKV 030900Z 31005KT 230V010 9999 FEW023 BKN200 18/12 Q1021 RMK REG QNH 1018;EQDQ01+000052SCOTCVQ02+000000PRSWM2Q03  00002PRCP99
0294114140999992000080403004+50190+012890SY-MT+0604LKKV V0209999C00001030001CN0120001N1+01021+00961999999ADDAA199000021GA1021+001509999GA2021+027009999GF105991041061001501071011MA1102001094881MD1710031+9999ME1208209MW1001REMSYN092AAXX  04031 11414 32262 50000 10102 20096 39488 42820 57003 84671 333 82705 84359 555 396//;MET052LKKV 040300Z 00000KT 9999 FEW005 SCT090 10/10 Q1020;EQDQ01+000000PRSWM2
0305114140999992000080509004+50190+012890SY-MT+0604LKKV V0200801N004012200019N0450001N1+02061+00891999999ADDAA199000091GA1011+015009029GA2031+060009019GF103991011011017501031041MA1102201095131MD1210041+9999ME1208509MW1001REMSYN092AAXX  05091 11414 32783 30804 10206 20089 39513 42850 52004 81134 333 81850 83070 555 347//;MET047LKKV 050900Z 08008KT 360V120 CAVOK 21/09 Q1022;EQDQ01+000000PRSWM2Q02  00002PRCP99
0340114140999992000080518004+50190+012890SY-MT+0604LKKV V0209999V001010240019N0450001N1+01841+01081999999ADDAA199000091GA1031+015009059GA2061+024009079GF107991031041017501061001KA1120M+02271MA1102101095021MD1710011+9999ME1208399MW1001REMSYN122AAXX  05181 11414 32783 79901 10184 20108 39502 42839 57001 83460 333 10227 83650 86358 555 361// 50178 60174 70167 80158;MET039LKKV 051800Z 06002KT CAVOK 18/11 Q1021;EQDQ01+000000PRSWM2Q02  00002PRCP99
0259114140999992000080620004+50190+012890SY-MT+0604LKKV V0209999C000010210019N0150001N1+01341+01291999999ADDAA199000021GA1081+021009019GF108991081001022501071999MA1102001094911MD1310031+9999ME1208259MW1001REMSYN086AAXX  06201 11414 32865 80000 10134 20129 39491 42825 53003 8807/ 333 88457 555 397//;MET039LKKV 062000Z 00000KT CAVOK 13/13 Q1020;EQDQ01+000000PRSWM2
0243114140999992000081322004+50190+012890SY-MT+0604LKKV V0209999C000012200019N0200001N1+01751+00951999999ADDAA199000091GF100991001001999999001001MA1102101095041MD1210091+9999ME1208399MW1001REMSYN070AAXX  13221 11414 32970 00000 10175 20095 39504 42839 52009 555 359//;MET039LKKV 132200Z 00000KT CAVOK 18/09 Q1021;EQDQ01+000000PRSWM2Q02  00002PRCP99
0243114140999992000081402004+50190+012890SY-MT+0604LKKV V0209999C000012200019N0200001N1+01531+00831999999ADDAA199000091GF100991001001999999001001MA1102101095051MD1010001+9999ME1208399MW1001REMSYN070AAXX  14021 11414 32970 00000 10153 20083 39505 42839 50000 555 363//;MET039LKKV 140200Z 00000KT CAVOK 15/08 Q1021;EQDQ01+000000PRSWM2Q02  00002PRCP99
0275114140999992000081905004+50190+012890SY-MT+0604LKKV V0209999V001019999999N0300001N1+01421+01321999999ADDAA199000091GA1031+030009079GF105991031001999999031011MA1101591094521MD1510051+9999ME1207919MW1001REMSYN086AAXX  19051 11414 32980 59901 10142 20132 39452 42791 55005 83031 333 83360 555 393//;MET039LKKV 190500Z VRB02KT CAVOK 14/13 Q1016;EQDQ01+000000PRSWM2Q02  00002PRCP99
0275114140999992000081920004+50190+012890SY-MT+0604LKKV V0201201N001010300019N0300001N1+02171+01341999999ADDAA199000091GA1051+030009079GF105991051001999999071001MA1101691094671MD1310061+9999ME1208099MW1001REMSYN086AAXX  19201 11414 32980 51201 10217 20134 39467 42809 53006 85070 333 85360 555 359//;MET039LKKV 192000Z 12001KT CAVOK 22/13 Q1017;EQDQ01+000000PRSWM2Q02  00002PRCP99
0204114140999992000090117004+50190+012890FM-15+0604LKKV V0209999C000012200019N0112651N1+01801+01201999999ADDGA1021+009009099GA2021+012009999GA3021+030009999GF104991999999999999999999MA1100711999999MW1001REMMET078LKKV 011700Z 00000KT 9999 FEW030CB SCT040 SCT100 18/12 Q1007 RMK REG QNH 1006;EQDQ01+000000PRSWM2
0448114140999992000090706004+50190+012890SY-MT+0604LKKV V0202701N00301009901CN0100001N1+01041+00981999999ADDAA112006191AY161061AY211061GA1021+001509999GA2021+003009999GA3071+009909999GF108991081081001501999999IA1099IA2999+00909KA1120N+00951MA1100811093751MD1310081+9999ME1207209MW1021REMSYN152AAXX  07061 11414 11260 82703 10104 20098 39375 42720 53008 60062 70261 888// 333 20095 31009 70061 83705 83810 85633 555 396// 50134 60138 70142 80146;MET067LKKV 070600Z 27006KT 200V320 9999 SCT005 SCT010 BKN033 10/10 Q1008;EQDQ01+000000PRSWM2Q02    003PRSWM1
0281114140999992000091122004+50190+012890SY-MT+0604LKKV V0209999C000012200019N0100001N1+01341+01191999999ADDAA199000091GA1021+009909999GF103991031021012501001001MA1101901094801MD1210041+9999ME1208159MW1001REMSYN086AAXX  11221 11414 32660 30000 10134 20119 39480 42815 52004 83200 333 83833 555 390//;MET045LKKV 112200Z 00000KT 9999 SCT033 13/12 Q1019;EQDQ01+000000PRSWM2Q02  00002PRCP99
0350114140999992000091212004+50190+012890SY-MT+0604LKKV V0209999V002010600019N0300001N1+02321+01161999999ADDAA199000091GA1021+013809999GA2071+060009999GF199999011011012501001011MA1101591094541MD1710131+9999ME1207989MW1001REMSYN116AAXX  12121 11414 32680 59902 10232 20116 39454 42798 57013 81101 333 81846 85070 555 348// 50167 60157 70153 80152;MET052LKKV 121200Z VRB03KT 9999 FEW046 BKN200 23/12 Q1016;EQDQ01+000052SCOTCVQ02+000000PRSWM2Q03  00002PRCP99
0303114140999992000091702004+50190+012890SY-MT+0604LKKV V0209999V001010036019N0120001N1+00931+00891999999ADDAA101000391AY161999AY221999GA1081+003609999GF108991081051004501999999MA1100711093651MD1610161+9999ME1207119MW1601MW2611REMSYN098AAXX  17021 11414 21462 89901 10093 20089 39365 42711 56016 76062 885// 333 69935 88612 555 397//;MET049LKKV 170200Z 11002KT 9999 -RA OVC012 09/09 Q1007;EQDQ01    003PRSWM1
0275114140999992000091723004+50190+012890SY-MT+0604LKKV V0209999C000010240019N0120001N1+00961+00931999999ADDAA199000021GA1081+024009079GF108991081999999999071999MA1101191094211MD1210051+9999ME1207609MW1001REMSYN086AAXX  17231 11414 32962 80000 10096 20093 39421 42760 52005 8807/ 333 88358 555 398//;MET039LKKV 172300Z 00000KT CAVOK 10/09 Q1012;EQDQ01+000000PRSWM2Q02    003SCOLCG
0297114140999992000092504004+50190+012890SY-MT+0604LKKV V0209999V001012200019N0100001N1+00471+00441999999ADDAA199000091GA1011+030009079GA2031+060009019GF103991011001999999041011MA1102301095161MD1510001+9999ME1208409MW1001REMSYN092AAXX  25041 11414 32960 39901 10047 20044 39516 42840 55000 81041 333 81360 83070 555 398//;MET039LKKV 250400Z VRB01KT CAVOK 05/04 Q1023;EQDQ01+000000PRSWM2Q02  00002PRCP99
0333114140999992000100121004+50190+012890SY-MT+0604LKKV V0202801N004010009019N0050001N1+01161+01141999999ADDAA101006091AY161031AY261031GA1071+000909999GA2081+003009999GF108991081051000751999999MA1100611093571MD1510071+9999ME1207049MW1631REMSYN104AAXX  01211 11414 21150 82804 10116 20114 39357 42704 55007 76366 885// 333 60065 86703 88610 555 398//;MET063LKKV 012100Z 28008KT 230V310 5000 RA BKN003 OVC010 12/11 Q1006;EQDQ01    003PRSWM1
0334114140999992000100122004+50190+012890SY-MT+0604LKKV V0202901N004010078019N0080001N1+01121+01101999999ADDAA101001091AY161999AY261999GA1021+001509999GA2081+007809999GF108991081051001501999999MA1100511093521MD1710091+9999ME1207009MW1611REMSYN104AAXX  01221 11414 21258 82904 10112 20110 39352 42700 57009 76166 885// 333 60015 84705 88626 555 399//;MET064LKKV 012200Z 29007KT 250V320 8000 -RA SCT005 OVC026 11/11 Q1005;EQDQ01    003PRSWM1
0330114140999992000100302004+50190+012890SY-MT+0604LKKV V0201001N001010300019N0120001N1+00911+00881999999ADDAA199000091AY111999AY211999GA1071+030009999GF199999051001999999031001MA1101901094781MD1110161+9999ME1208109MW1111MW2121REMSYN092AAXX  03021 11414 31962 51001 10091 20088 39478 42810 51016 71111 85030 333 85360 555 398//;MET050LKKV 030200Z 11002KT 9999 MIFG BKN100 09/09 Q1019;EQDQ01+000052SCOTCVQ02  00002PRCP99Q03    003PRSWM1
0395114140999992000102206004+50190+012890SY-MT+0604LKKV V0201201N001012200019N0005001N1+00141+00111999999ADDAA124000091AY141061AY201061GA1021+060009999GF199999001001999999001011IA1099IA2999-00309KA1120N+00101MA1103121095921MD1310051+9999ME1209019MW1441REMSYN134AAXX  22061 11414 31905 11201 10014 20011 39592 42901 53005 74440 80001 333 20010 31103 70000 81070 555 398// 50094 60101 70108 80116;MET048LKKV 220600Z 12002KT 0500 FG FEW200 01/01 Q1031;EQDQ01+000012SCOTCVQ02  00002PRCP24Q03    003PRSWM1
0306114140999992000102401004+50190+012890SY-MT+0604LKKV V0209999V001010006019N0002001N1+00411+00401999999ADDAA199000091AY141999AY241999GA1081+000609999GF108991081061000751999999MA1102201095121MD1710111+9999ME1208359MW1441REMSYN092AAXX  24011 11414 31102 89901 10041 20040 39512 42835 57011 74444 886// 333 88702 555 399//;MET048LKKV 240100Z VRB01KT 0200 FG OVC002 04/04 Q1022;EQDQ01  00002PRCP99Q02    003PRSWM1
0319114140999992000102815004+50190+012890SY-MT+0604LKKV V0209999V002010039019N0120001N1+01001+00861999999ADDAA199000021GA1021+002409999GA2071+003909999GF107991061051002501031011MA1101801094691MD1710141+9999ME1208039MW1001REMSYN092AAXX  28151 11414 32362 79902 10100 20086 39469 42803 57014 86531 333 83708 85613 555 391//;MET077LKKV 281500Z 29004KT 260V330 9999 SCT008 BKN013 10/09 Q1018 RMK REG QNH 1016;EQDQ01+000000PRSWM2
0310114140999992000102908004+50190+012890SY-MT+0604LKKV V0209999C000010069019N0150001N1+00731+00661999999ADDAA199000091GA1071+006909999GA2071+033009999GF108991061051008001071999MA1101591094541MD1210201+9999ME1207889MW1001REMSYN092AAXX  29081 11414 32565 80000 10073 20066 39454 42788 52020 8657/ 333 86623 87461 555 395//;MET052LKKV 290800Z 00000KT 9999 BKN023 BKN110 07/07 Q1016;EQDQ01+000000PRSWM2Q02  00002PRCP99
0310114140999992000103107004+50190+012890SY-MT+0604LKKV V0209999V001010063019N0200001N1+00951+00671999999ADDAA199000091GA1021+004809999GA2071+006309999GF108991071051004501071999MA1100101093101MD1310091+9999ME1206619MW1001REMSYN092AAXX  31071 11414 32470 89901 10095 20067 39310 42661 53009 8757/ 333 83616 86621 555 383//;MET052LKKV 310700Z VRB01KT 9999 SCT016 BKN021 09/07 Q1001;EQDQ01+000000PRSWM2Q02  00002PRCP99
0162114140999992000110722004+50190+012890FM-15+0604LKKV V02099999999990600019N0112651N1+00501+00301999999ADDGA1021+013809999GA2071+060009999GF107991999999999999999999MA1099291999999MW1001REMMET052LKKV 072200Z VRB02KT 9999 FEW046 BKN200 05/03 Q0993;EQDQ01+000000PRSWM2
0326114140999992000110917004+50190+012890SY-MT+0604LKKV V0209999V001010120019N0200001N1+00591+00311999999ADDAA199000091GA1021+006309999GA2071+012009999GF199999061081008001001011MA1101081094091MD1310151+9999ME1207479MW1001REMSYN092AAXX  09171 11414 32570 69901 10059 20031 39409 42747 53015 86801 333 82821 85640 555 382//;MET052LKKV 091700Z VRB02KT 9999 FEW021 BKN040 06/03 Q1011;EQDQ01+000062SCOTCVQ02+000000PRSWM2Q03  00002PRCP99
0283114140999992000111309004+50190+012890SY-MT+0604LKKV V0201301N003010330019N0300001N1+00391+00121999999ADDAA199000091GA1081+033009079GF108991081001999999071999MA1100611093621MD1510001+9999ME1207059MW1001REMSYN086AAXX  13091 11414 32980 81303 10039 20012 39362 42705 55000 8807/ 333 88361 555 383//;MET047LKKV 130900Z 13005KT 100V190 CAVOK 04/01 Q1006;EQDQ01+000000PRSWM2Q02  00002PRCP99
0283114140999992000111314004+50190+012890SY-MT+0604LKKV V0201301N003010270019N0300001N1+00731+00271999999ADDAA199000091GA1071+027009079GF107991071001999999071001MA1100511093501MD1710101+9999ME1206969MW1001REMSYN086AAXX  13141 11414 32980 71303 10073 20027 39350 42696 57010 87070 333 87359 555 372//;MET047LKKV 131400Z 13005KT 100V180 CAVOK 07/03 Q1005;EQDQ01+000000PRSWM2Q02  00002PRCP99
0348114140999992000111409004+50190+012890SY-MT+0604LKKV V0209999V001010270019N0080001N1+00591+00571999999ADDAA199000091AY121031AY221031GA1021+001809999GA2071+027009999GF108991021061002501071999MA1100611093631MD1110141+9999ME1207089MW1101REMSYN098AAXX  14091 11414 31358 89901 10059 20057 39363 42708 51014 71022 8267/ 333 82706 87359 555 398//;MET052LKKV 140900Z VRB01KT 8000 FEW006 BKN090 06/06 Q1006;EQDQ01+000000PRSWM2Q02  00002PRCP99Q03    003PRSWM1
0340114140999992000111501004+50190+012890SY-MT+0604LKKV V0202801N003010039019N0060001N1+00481+00431999999ADDAA199000021AY121999AY221999GA1021+000909999GA2081+003909999GF108991081051000751999999MA1101191094171MD1210241+9999ME1207549MW1101REMSYN098AAXX  15011 11414 31156 82803 10048 20043 39417 42754 52024 71022 885// 333 83703 88613 555 397//;MET060LKKV 150100Z 28006KT 230V310 6000 SCT003 OVC013 05/04 Q1012;EQDQ01+000000PRSWM2Q02    003PRSWM1
0091114140999992000111519004+50190+012890FM-15+0604LKKV V0209999999999220001CN0099001N1+00401+00301999999ADDMA1101591999999MW1001REMMET039LKKV 151900Z VRB01KT CAVOK 04/03 Q1016;EQDQ01+000000PRSWM2
0431114140999992000111706004+50190+012890SY-MT+0604LKKV V0209999V001010078019N0009001N1+00271+00241999999ADDAA101001091AY161061AY241061GA1021+000309999GA2081+007809999GF108991081051000251999999IA1099IA2999-00109KA1120N+00061MA1101021093961MD1510061+9999ME1207349MW1601MW2611REMSYN152AAXX  17061 11414 /1009 89901 10027 20024 39396 42734 55006 60032 76064 885// 333 20006 31101 60015 70033 84701 88626 555 398// 50060 60064 70069 80079;MET076LKKV 170600Z VRB02KT 0900 -RA FG SCT001 OVC026 03/02 Q1010 RMK REG QNH 1007;EQDQ01    003PRSWM1
0294114140999992000111805004+50190+012890SY-MT+0604LKKV V0209999V002010300019N0120001N1+00151+00091999999ADDAA199000021GA1021+006009999GA2071+030009999GF107991031051008001071999MA1101291094251MD1210061+9999ME1207599MW1001REMSYN092AAXX  18051 11414 32562 79902 10015 20009 39425 42759 52006 8357/ 333 83620 85360 555 396//;MET052LKKV 180500Z VRB03KT 9999 SCT020 BKN100 01/01 Q1013;EQDQ01+000000PRSWM2
0378114140999992000112306004+50190+012890SY-MT+0604LKKV V0209999C00001000151CN0004001N1+00041+00011999999ADDAA124000091AY141061AY211061GA1091+000159999GF109991091999000151999999IA1099IA2999-00209KA1120N-00011MA1101081094111MD1510081+9999ME1207469MW1451MW2471REMSYN128AAXX  23061 11414 31/04 90000 10004 20001 39411 42746 55008 74741 333 21001 31102 70000 89/01 555 398// 50053 60057 70061 80069;MET047LKKV 230600Z 00000KT 0400 FG VV001 00/00 Q1011;EQDQ01  00002PRCP24Q02    003PRSWM1
0378114140999992000112414004+50190+012890SY-MT+0604LKKV V0209999V003010012019N0022001N1+00441+00421999999ADDAA199000091AY141999AY221999GA1021+000609999GA2071+001209999GA3081+002109999GF108991081061000751999999MA1100911093901MD1210061+9999ME1207309MW1101MW2281REMSYN104AAXX  24141 11414 31122 89903 10044 20042 39390 42730 52006 72842 886// 333 82702 85704 88707 555 398//;MET070LKKV 241400Z 27005KT 230V320 2200 BR FEW002 BKN004 OVC007 04/04 Q1009;EQDQ01  00002PRCP99Q02    003PRSWM1
0193114140999992000120606004+50190+012890FM-15+0604LKKV V0201301N00211000151CN0006001N1+00001+00001999999ADDGA1091+000159999GF109991999999000251999999MA1101901999999MW1451MW2511REMMET077LKKV 060600Z 13004KT 100V210 0600 -DZ FG VV001 00/M00 Q1019 RMK REG QNH 1018;EQDQ01+000003PRSWM1Q02    003PRSWM1
0305114140999992000120708004+50190+012890SY-MT+0604LKKV V0209999V002010003019N0006001N1+00001-00011999999ADDAA199000021AY141999AY241999GA1081+000309999GF108991081061000251999999MA1101801094711MD1510041+9999ME1207979MW1441MW2461REMSYN092AAXX  07081 11414 31006 89902 10000 21001 39471 42797 55004 74644 886// 333 88701 555 399//;MET057LKKV 070800Z 12004KT 090V160 0600 FG OVC001 00/M00 Q1018;EQDQ01    003PRSWM1
0345114140999992000120809004+50190+012890SY-MT+0604LKKV V0209999V001010270019N0015001N1+00091+00071999999ADDAA101999929AY151031AY241031GA1021+000909999GA2081+027009999GF108991031061000751071999MA1101081094041MD1110071+9999ME1207419MW1401REMSYN104AAXX  08091 11414 21115 89901 10009 20007 39404 42741 51007 74054 8367/ 333 69905 83703 88459 555 399//;MET075LKKV 080900Z VRB02KT 1500N VCFG SCT003 OVC090 01/01 Q1011 RMK REG QNH 1011;EQDQ01    003PRSWM1
0379114140999992000121409004+50190+012890SY-MT+0604LKKV V0202701N004010600019N0140001N1+00431+00321999999ADDAA101999929AY161031AY221031GA1021+004809999GA2071+060009999GF199999041021004501001061MA1101021093951MD1810021+9999ME1207359MW1211REMSYN104AAXX  14091 11414 21464 62704 10043 20032 39395 42735 58002 72162 84206 333 69905 84816 86270 555 392//;MET077LKKV 140900Z 27007KT 220V310 9999 SCT016 BKN200 04/03 Q1010 RMK REG QNH 1005;EQDQ01+000062SCOTCVQ02+000000PRSWM2Q03    003PRSWM1
0336114140999992000121812004+50190+012890SY-MT+0604LKKV V0203001N004012200019N0150001N1-00051-00351999999ADDAA199000091GA1021+003909999GA2021+060009999GF104991011011004501001011MA1101801094771MD1810011+9999ME1208029MW1001REMSYN116AAXX  18121 11414 32465 43004 11005 21035 39477 42802 58001 81101 333 81813 84070 555 380// 50033 60035 70041 80054;MET054LKKV 181200Z 30008KT 9999 FEW013 SCT200 M00/M03 Q1018;EQDQ01+000000PRSWM2Q02  00002PRCP99
0337114140999992000122404004+50190+012890SY-MT+0604LKKV V0200801N001012200019N0080001N1-00991-01081999999ADDAA199000091AY101999AY201999GA1021+060009999GF199999001001999999001011MA1100711093731MD1710111+9999ME1207109MW1101REMSYN092AAXX  24041 11414 31958 10801 11099 21108 39373 42710 57011 71000 80001 333 81070 555 393//;MET047LKKV 240400Z 08001KT 8000 FEW200 M10/M11 Q1007;EQDQ01+000012SCOTCVQ02+000000PRSWM2Q03  00002PRCP99Q04    003PRSWM1
0297114140999992000122821004+50190+012890SY-MT+0604LKKV V0209999V002010069019N0150001N1-00231-00431999999ADDAA199000021GA1071+006909999GF199999061051008001001001MA1099591092691MD1210081+9999ME1206249MW1001REMSYN092AAXX  28211 11414 32565 69902 11023 21043 39269 42624 52008 86500 333 86623 93601 555 386//;MET055LKKV 282100Z 26004KT 170V330 9999 BKN023 M02/M04 Q0996;EQDQ01+000062SCOTCVQ02+000000PRSWM2
0291114140999992000123010004+50190+012890SY-MT+0604LKKV V0209999V002010600019N0170001N1-00271-00381999999ADDAA199000021GA1031+030009019GA2071+060009089GF107991031001999999071061MA1099701092741MD1110071+9999ME1206289MW1001REMSYN092AAXX  30101 11414 32967 79902 11027 21038 39274 42628 51007 83076 333 83460 87270 555 392//;MET049LKKV 301000Z 27004KT 230V310 CAVOK M03/M04 Q0997;EQDQ01+000000PRSWM2
0206114230999992000010404004+49670+012670FM-12+074599999V0202501N007010006019N0005001N1-00231-00231999999ADDAY141999AY241999GA1091+000609999GF109991091999999999999999MA1999999093321MD1710111+9999ME1208189MW1491REMSYN092AAXX  04041 11423 41/05 92507 11023 21023 39332 42818 57011 74944 333 89/02 93524 555 300//;
0206114230999992000010714004+49670+012670FM-12+074599999V0202701N004010003019N0001001N1+00011+00011999999ADDAY141999AY241999GA1091+000309999GF109991091999999999999999MA1999999093591MD1510061+9999ME1208439MW1451REMSYN092AAXX  07141 11423 41/01 92704 10001 20001 39359 42843 55006 74544 333 89/01 93612 555 300//;
0212114230999992000010908004+49670+012670FM-12+074599999V0202701N003010003019N0008001N1-00061-00061999999ADDAY121999AY221999GA1081+000309079GF108991081061000251999999MA1999999093391MD1310051+9999ME1208259MW1481REMSYN098AAXX  09081 11423 41008 82703 11006 21006 39339 42825 53005 74822 886// 333 88701 93501 555 300//;
0279114230999992000012006004+49670+012670FM-12+074599999V0202601N009010006019N0020001N1-00621-00631999999ADDAA124000791AJ100199199999999AY121061AY221061GA1081+000609069GF108991081061000751999999IA1289IA2999-00909KA1120N-00741MA1999999093671MD1510171+9999ME1208479MW1101REMSYN106AAXX  20061 11423 31120 82609 11062 21063 39367 42847 55017 71022 886// 333 21074 3/109 44019 79999 88702;
0212114230999992000012208004+49670+012670FM-12+074599999V0202601N007010003019N0002001N1-00391-00391999999ADDAY171999AY241999GA1091+000309999GF109991091999999999999999MA1999999092381MD1610291+9999ME1207389MW1711REMSYN098AAXX  22081 11423 41/02 92607 11039 21039 39238 42738 56029 77174 333 89/01 93608 96049 555 300//;
0202114230999992000012309004+49670+012670FM-12+074599999V0203601N003010039019N0350001N1-00461-00471999999ADDAY171031AY221031GA1081+003909069GF108991081051004501999999MA1999999092141MD1210201+9999ME1207179MW1021REMSYN088AAXX  23091 11423 41481 83603 11046 21047 39214 42717 52020 70272 885// 333 88613 93613;
0210114230999992000012318004+49670+012670FM-12+074599999V0200601N005012200019N0400001N1-01181-01341999999ADDAA112000791GA1011+060009009GF101991001001999999001011KA1120M-00301MA1999999092581MD1210181+9999ME1207549REMSYN094AAXX  23181 11423 12982 10605 11118 21134 39258 42754 52018 69902 80001 333 11030 81070 93611;
0184114230999992000012411004+49670+012670FM-12+074599999V0202801N001012200019N0700001N1-00901-01131999999ADDGA1011+009009089GF101991011011008001041011MA1999999093191MD1210061+9999ME1208069REMSYN092AAXX  24111 11423 42588 12801 11090 21113 39319 42806 52006 81141 333 81830 93613 555 383//;
0212114230999992000012714004+49670+012670FM-12+074599999V0202601N005010045019N0080001N1-00521-00541999999ADDAY121999AY221999GA1081+004509079GF108991081061004501999999MA1999999093701MD1710141+9999ME1208509MW1101REMSYN098AAXX  27141 11423 41458 82605 11052 21054 39370 42850 57014 71022 886// 333 88715 93502 555 398//;
0223114230999992000013019004+49670+012670FM-12+074599999V0202601N005010009019N0040001N1+00251+00251999999ADDAA101999929AY161999AY261999GA1081+000909079GF108991081071000751999999MA1999999092761MD1210171+9999ME1207719MW1611REMSYN098AAXX  30191 11423 21140 82605 10025 20025 39276 42771 52017 76166 887// 333 69905 88703 555 300//;
0198114230999992000020203004+49670+012670FM-12+074599999V0202601N008010048019N0350001N1+00361+00321999999ADDAA199000091GA1071+004809059GF107991071051004501999999MA1999999092761MD1510091+9999ME1207719REMSYN076AAXX  02031 11423 32481 72608 10036 20032 39276 42771 55009 875// 333 87616;EQDQ01  00002PRCP99
0212114230999992000020600004+49670+012670FM-12+074599999V0202701N006012200019N0250001N1+00181+00181999999ADDAA199000091GA1011+036009079GF101991011001999999041001GJ100069MA1999999094031MD1810111+9999ME1208819REMSYN082AAXX  06001 11423 32975 12706 10018 20018 39403 42881 58011 81040 333 55001 81362;EQDQ01  00002PRCP99
0174114230999992000021415004+49670+012670FM-12+074599999V0202701N00501009001CN0350001N1-00101-00141999999ADDGA1011+003909089GF107991071081004501001001MA1999999093271MD1510001+9999ME1208149REMSYN082AAXX  14151 11423 42481 72705 11010 21014 39327 42814 55000 87800 333 81813 87626;
0292114230999992000022806004+49670+012670FM-12+074599999V0202001N003012200019N0400001N1+00321-00341999999ADDAA124000091AJ199992999999999GA1031+060009009GF103991001001999999001011IA1259IA2999+00009KA1120N+00241MA1999999093461MD1710141+9999ME1208329REMSYN106AAXX  28061 11423 32982 32003 10032 21034 39346 42832 57014 80001 333 20024 3/000 41998 70000 83070 91008;EQDQ01  00002PRCP24Q02  09972SNDP  
0178114230999992000030220004+49670+012670FM-12+074599999V0202501N006012200019N0300001N1-00261-00351999999ADDGA1021+060009009GF102991001001999999001011MA1999999093121MD1810071+9999ME1208019REMSYN086AAXX  02201 11423 42980 22506 11026 21035 39312 42801 58007 80001 333 82070 555 394//;
0184114230999992000030614004+49670+012670FM-12+074599999V0202601N006012200019N0450001N1+00451-00201999999ADDGA1041+006009089GF105991041011008001001011MA1999999093831MD1710181+9999ME1208659REMSYN092AAXX  06141 11423 42583 52606 10045 21020 39383 42865 57018 84101 333 84820 91012 555 363//;
0217114230999992000030618004+49670+012670FM-12+074599999V0202601N007012200019N0450001N1+00061-00291999999ADDAA199000091GA1011+060009019GF101991001001999999001011KA1120M+00531MA1999999093731MD1610031+9999ME1208559REMSYN082AAXX  06181 11423 32983 12607 10006 21029 39373 42855 56003 80001 333 10053 81070;EQDQ01  00002PRCP99
0229114230999992000030717004+49670+012670FM-12+074599999V0202601N008010060019N0300001N1+00401+00251999999ADDAA101999929AY121999AY221999GA1071+006009069GF107991071051008001999999MA1999999093391MD1510021+9999ME1208269MW1601REMSYN104AAXX  07171 11423 21580 72608 10040 20025 39339 42826 55002 76022 875// 333 69905 87620 91013 555 390//;
0179114230999992000031009004+49670+012670FM-12+074599999V0202901N005010024019N0400001N1+00051-00131999999ADDAA199000021GA1071+002409029GF107991071021002501001011MA1999999093491MD1210171+9999ME1208349REMSYN076AAXX  10091 11423 32382 72905 10005 21013 39349 42834 52017 87201 333 87808;
0206114230999992000031623004+49670+012670FM-12+074599999V0202701N004010024019N0120001N1-00111-00141999999ADDAY171999AY271999GA1071+002409069GF107991071051002501999999MA1999999093421MD1710121+9999ME1208279MW1711REMSYN092AAXX  16231 11423 41362 72704 11011 21014 39342 42827 57012 77177 875// 333 87608 555 398//;
0212114230999992000031701004+49670+012670FM-12+074599999V0202701N006010003019N0002001N1-00121-00121999999ADDAY171999AY241999GA1091+000309999GF109991091999999999999999MA1999999093231MD1810231+9999ME1208119MW1711REMSYN098AAXX  17011 11423 41/02 92706 11012 21012 39323 42811 58023 77174 333 89/01 93501 96049 555 300//;
0219114230999992000032809004+49670+012670FM-12+074599999V0202901N003010006019N0100001N1+00201+00201999999ADDAA101999929AY171031AY271031GA1081+000609069GF108991081071000751999999MA1999999092221MD1210131+9999ME1207239MW1711REMSYN094AAXX  28091 11423 21160 82903 10020 20020 39222 42723 52013 77177 887// 90914 333 69905 88702;
0207114230999992000033109004+49670+012670FM-12+074599999V0202601N005010003019N0001001N1+00001+00001999999ADDAA101999929AY171031AY241031GA1091+000309999GF109991091999999999999999MA1999999092031MD1210061+9999ME1207069MW1471REMSYN082AAXX  31091 11423 21/01 92605 10000 20000 39203 42706 52006 74774 333 69905 89/01;
0230114230999992000040514004+49670+012670FM-12+074599999V0203401N006012200019N0220001N1+01061+00531999999ADDAA199000091GA1021+006009089GA2031+060009009GF104991021021008001001011MA1999999091641MD1310151+9999ME1206699REMSYN092AAXX  05141 11423 32572 43406 10106 20053 39164 42669 53015 82201 333 82820 83070 555 370//;EQDQ01  00002PRCP99
0223114230999992000041210004+49670+012670FM-12+074599999V0202601N006010006019N0005001N1+00391+00391999999ADDAA101001091AY161999AY241999GA1081+000609079GF108991081071000751999999MA1999999090771MD1210101+9999ME1205929MW1611REMSYN098AAXX  12101 11423 21105 82606 10039 20039 39077 42592 52010 76164 887// 333 60015 88702 555 300//;
0214114230999992000041703004+49670+012670FM-12+074599999V0200901N004010600019N0600001N1+00621+00061999999ADDAA199000091GA1071+060009089GF107991999001999999001081MA1999999091421MD1610111+9999ME1206519REMSYN076AAXX  17031 11423 32986 70904 10062 20006 39142 42651 56011 80008 333 87270;EQDQ01+000002SCOTLCQ02  00002PRCP99
0226114230999992000041712004+49670+012670FM-12+074599999V0202601N006010600019N0700001N1+01511+00451999999ADDAA199000091GA1011+007809089GA2071+060009029GF107991011021008001031081MA1999999091781MD1210161+9999ME1206819REMSYN088AAXX  17121 11423 32588 72606 10151 20045 39178 42681 52016 81238 333 81826 87270 91011;EQDQ01  00002PRCP99
0245114230999992000041823004+49670+012670FM-12+074599999V0200801N005010030019N0250001N1+00701+00571999999ADDAA101000191AY161999AY221999GA1041+001809089GA2041+003009069GF108991081081001501999999MA1999999092201MD1810081+9999ME1207219MW1291REMSYN104AAXX  18231 11423 21275 80805 10070 20057 39220 42721 58008 72962 888// 333 69915 84806 84610 555 391//;
0192114230999992000042014004+49670+012670FM-12+074599999V0209999V002012200019N0300001N1+01571+00851999999ADDAA199000091GA1001+999999999GF100991001001999999001001MA1999999092931MD1710061+9999ME1207879REMSYN070AAXX  20141 11423 32980 09902 10157 20085 39293 42787 57006 555 362//;EQDQ01  00002PRCP99
0189114230999992000042510004+49670+012670FM-12+074599999V0209999V001010051019N0150001N1+00831+00731999999ADDAA199000021GA1081+005109069GF108991081051004501999999MA1999999092851MD1210061+9999ME1207799REMSYN086AAXX  25101 11423 32465 89901 10083 20073 39285 42779 52006 885// 333 88617 555 393//;
0179114230999992000050109004+49670+012670FM-12+074599999V0200801N003012200019N0200001N1+01681+01201999999ADDAA199000021GA1011+004809029GF101991011021004501071011MA1999999093221MD1210011+9999ME1208149REMSYN076AAXX  01091 11423 32470 10803 10168 20120 39322 42814 52001 81271 333 81816;
0234114230999992000050206004+49670+012670FM-12+074599999V0200701N003019999999N0200001N1+01271+01021999999ADDAA112000191GA1041+030009039GF107991041001999999031011IA1099IA2999+00909KA1120N+01011MA1999999093261MD1310121+9999ME1208179REMSYN100AAXX  02061 11423 12970 70703 10127 20102 39326 42817 53012 69922 84031 333 20101 31009 84360 86070;
0211114230999992000050414004+49670+012670FM-12+074599999V0200801N002010300019N0300001N1+01701+00901999999ADDAA199000021GA1011+009009089GA2051+030009039GF107991021081008001071011MA1999999093181MD1810071+9999ME1208109REMSYN092AAXX  04141 11423 32580 70802 10170 20090 39318 42810 58007 82871 333 81830 85360 555 359//;
0211114230999992000050416004+49670+012670FM-12+074599999V0209999V002010180019N0350001N1+01711+00781999999ADDAA199000021GA1011+009009089GA2051+018009069GF107991051081008001071011MA1999999093131MD1710091+9999ME1208069REMSYN092AAXX  04161 11423 32581 79902 10171 20078 39313 42806 57009 85871 333 81830 85656 555 354//;
0198114230999992000051415004+49670+012670FM-12+074599999V0200801N003012200019N0700001N1+01991+00281999999ADDAA199000091GA1011+018009029GF101991011011017501001001MA1999999093781MD1710081+9999ME1208679REMSYN076AAXX  14151 11423 32788 10803 10199 20028 39378 42867 57008 81100 333 81856;EQDQ01  00002PRCP99
0217114230999992000051823004+49670+012670FM-12+074599999V0202501N004010006019N0040001N1+00791+00791999999ADDAA199000021AY111999AY211999GA1081+000609079GF108991081061000751999999MA1999999092311MD1510011+9999ME1207319MW1101REMSYN092AAXX  18231 11423 31140 82504 10079 20079 39231 42731 55001 71011 886// 333 88702 555 300//;
0204114230999992000052115004+49670+012670FM-12+074599999V0202501N00301036001CN0650001N1+01331+00291999999ADDAA199000091GA1031+010809089GF107991031021012501071999MA1999999092291MD1710091+9999ME1207299REMSYN082AAXX  21151 11423 32687 72503 10133 20029 39229 42729 57009 8327/ 333 83836 87359;EQDQ01  00002PRCP99
0214114230999992000052404004+49670+012670FM-12+074599999V0202301N001012200019N0280001N1+00961+00561999999ADDAA199000091GA1031+060009009GF103991001001999999001011MA1999999093171MD1710061+9999ME1208089REMSYN092AAXX  24041 11423 32978 32301 10096 20056 39317 42808 57006 80001 333 83070 9512/ 555 376//;EQDQ01  00002PRCP99
0189114230999992000052907004+49670+012670FM-12+074599999V0202601N005010015019N0600001N1+00801+00651999999ADDAA199000021GA1061+001509089GF106991061021001501031001MA1999999092601MD1110081+9999ME1207579REMSYN086AAXX  29071 11423 32286 62605 10080 20065 39260 42757 51008 86230 333 86805 555 391//;
0192114230999992000060323004+49670+012670FM-12+074599999V0209999V002012200019N0500001N1+01781+00951999999ADDAA199000091GA1001+999999999GF100991001001999999001001MA1999999093271MD1610041+9999ME1208199REMSYN070AAXX  03231 11423 32984 09902 10178 20095 39327 42819 56004 555 358//;EQDQ01  00002PRCP99
0179114230999992000061421004+49670+012660FM-12+074599999V0209999V001012200019N0200001N1+01601+01371999999ADDAA199000021GA1031+030009079GF103991031001999999031001MA1999999093571MD1210121+9999ME1208479REMSYN076AAXX  14211 11423 32970 39901 10160 20137 39357 42847 52012 83030 333 83360;
0179114230999992000070615004+49670+012660FM-12+074599999V0202801N004012200019N0750001N1+02031+00961999999ADDAA199000021GA1021+012009029GF103991021021012501041011MA1999999093341MD1710051+9999ME1208269REMSYN076AAXX  06151 11423 32689 32804 10203 20096 39334 42826 57005 82241 333 82840;
0189114230999992000070620004+49670+012660FM-12+074599999V0209999V001012200019N0600001N1+01601+00941999999ADDAA199000021GA1011+060009009GF101991001001999999001011MA1999999093321MD1310011+9999ME1208239REMSYN086AAXX  06201 11423 32986 19901 10160 20094 39332 42823 53001 80001 333 81070 555 365//;
0219114230999992000070712004+49670+012660FM-12+074599999V0200801N00401036001CN0090001N1+01481+01461999999ADDAA106002091AY161061AY221061GA1011+000909079GF107991011061001501071999MA1999999092701MD1810131+9999ME1207669MW1101REMSYN094AAXX  07121 11423 11259 70804 10148 20146 39270 42766 58013 60021 71062 8167/ 333 81703 87358;
0245114230999992000070805004+49670+012660FM-12+074599999V0209999V002010039019N0090001N1+01121+01121999999ADDAA101002091AY161999AY261999GA1061+003909069GA2081+030009049GF108991061051004501021999MA1999999092141MD1510051+9999ME1207159MW1611REMSYN104AAXX  08051 11423 21459 89902 10112 20112 39214 42715 55005 76166 8652/ 333 60025 86613 88460 555 300//;
0207114230999992000070903004+49670+012660FM-12+074599999V0202601N004010012019N0003001N1+00761+00761999999ADDAA199000021AY141031AY221031GA1081+001209069GF108991081061001501999999MA1999999092631MD1710081+9999ME1207599MW1461REMSYN082AAXX  09031 11423 31203 82604 10076 20076 39263 42759 57008 74642 886// 333 88704;
0268114230999992000070906004+49670+012660FM-12+074599999V0202601N006010009019N0012001N1+00781+00781999999ADDAA112000791AY141061AY221061GA1081+000909069GF108991081061000751999999IA1099IA2999+00609KA1120N+00691MA1999999092521MD1610111+9999ME1207499MW1281REMSYN112AAXX  09061 11423 11112 82606 10078 20078 39252 42749 56011 69902 72842 886// 333 20069 31006 50122 70034 88703;
0233114230999992000071100004+49670+012660FM-12+074599999V0202401N004010027019N0200001N1+01111+01111999999ADDAA101999929AY161061AY221061GA1081+002709059GF108991081051002501999999GJ102829MA1999999091541MD1810031+9999ME1206609MW1211REMSYN100AAXX  11001 11423 /1370 82404 10111 20111 39154 42660 58003 69901 72162 885// 333 55047 69905 88609;
0207114230999992000072509004+49670+012660FM-12+074599999V0202401N004010030019N0450001N1+01641+01451999999ADDAA199000021AY141031AY221031GA1051+003009029GF106991051021004501041011MA1999999092291MD1110061+9999ME1207299MW1021REMSYN082AAXX  25091 11423 31483 62404 10164 20145 39229 42729 51006 70242 85241 333 85810;
