0134726562999992000072005004+99999+999999FM-15+9999KLVN V0209999C000010105019N0160931N1-00801-01001999999ADDGD14991+0105099GF108991999999999999999999MA1101761999999MW1001REMMET060KLVN 200455Z AUTO 00000KT 10SM OVC035 M08/M10 A3005 RMK AO2;
0134726562999992000072006154+99999+999999FM-15+9999KLVN V0209999C000010111019N0160931N1-00801-01001999999ADDGD14991+0111099GF108991999999999999999999MA1101731999999MW1001REMMET060KLVN 200615Z AUTO 00000KT 10SM OVC037 M08/M10 A3004 RMK AO2;
0156726562999992000072009004+99999+999999FM-15+9999KLVN V0202401N002610330019N0160931N1-00801-01001999999ADDGD12991+0123099GD24991+0330099GF108991999999999999999999MA1101661999999MW1001REMMET067KLVN 200855Z AUTO 24005KT 10SM SCT041 OVC110 M08/M10 A3002 RMK AO2;
0114726562999992000072108154+99999+999999FM-15+9999KLVN V0203001N004012200019N0160931N1+01001+00901999999ADDGF100991999999999999999999MA1101731999999MW1001REMMET055KLVN 210815Z AUTO 30004KT 10SM CLR 10/09 A3004 RMK AO2;
0114726562999992000072310354+99999+999999FM-15+9999KLVN V0209999C000012200019N0160931N1+01401+01301999999ADDGF100991999999999999999999MA1102341999999MW1001REMMET055KLVN 231135Z AUTO 00000KT 10SM CLR 14/13 A3022 RMK AO2;
0132726562999992000072406154+99999+999999FM-15+9999KLVN V0201701N002612200019N0160931N1+01801+01501999999ADDGD12991+0240099GF104991999999999999999999MA1102001999999MW1001REMMET058KLVN 240615Z AUTO 17005KT 10SM SCT085 18/15 A3012 RMK AO2;
0114726562999992000072411004+99999+999999FM-15+9999KLVN V0209999C000012200019N0160931N1+01601+01401999999ADDGF100991999999999999999999MA1101961999999MW1001REMMET055KLVN 241055Z AUTO 00000KT 10SM CLR 16/14 A3011 RMK AO2;
0113726562999992000072603354+99999+999999FM-15+9999KLVN V0209999C000012200019N0112651N1+02101+01901999999ADDGF100991999999999999999999MA1101081999999MW1001REMMET054KLVN 260435Z AUTO 00000KT 7SM CLR 21/19 A2985 RMK AO2;
0176726562999992000072617004+99999+999999FM-15+9999KLVN V0202801N002610087019N0160931N1+02201+01801999999ADDGD12991+0069099GD23991+0087099GD33991+0117099GF107991999999999999999999MA1101351999999MW1001REMMET072KLVN 261655Z AUTO 28005KT 10SM SCT023 BKN029 BKN039 22/18 A2993 RMK AO2;
0114726562999992000072621354+99999+999999FM-15+9999KLVN V0203001N004112200019N0160931N1+02401+01701999999ADDGF100991999999999999999999MA1101351999999MW1001REMMET055KLVN 262235Z AUTO 30008KT 10SM CLR 24/17 A2993 RMK AO2;
0176726562999992000072720354+99999+999999FM-15+9999KLVN V0200101N001512200019N0160931N1+02701+01701999999ADDGD12991+0141099GD22991+0180099GD32991+0210099GF104991999999999999999999MA1101561999999MW1001REMMET072KLVN 272135Z AUTO 01003KT 10SM SCT047 SCT065 SCT075 27/17 A2999 RMK AO2;
0114726562999992000073000154+99999+999999FM-15+9999KLVN V0200301N003112200019N0160931N1+02601+01701999999ADDGF100991999999999999999999MA1101731999999MW1001REMMET055KLVN 300015Z AUTO 03006KT 10SM CLR 26/17 A3004 RMK AO2;
0176726562999992000080108004+99999+999999FM-15+9999KLVN V0202701N00411030001CN0160931N1+02301+02001999999ADDGD12991+0180099GD23991+0180099GD34991+0300099GF108991999999999999999999MA1101421999999MW1001REMMET072KLVN 010755Z AUTO 27008KT 10SM SCT060 BKN065 OVC100 23/20 A2995 RMK AO2;
0132726562999992000080119154+99999+999999FM-15+9999KLVN V0202001N001512200019N0160931N1+02801+01901999999ADDGD12991+0132099GF104991999999999999999999MA1101081999999MW1001REMMET058KLVN 011915Z AUTO 20003KT 10SM SCT044 28/19 A2985 RMK AO2;
0132726562999992000080408004+99999+999999FM-15+9999KLVN V0209999C000012200019N0160931N1+01701+01501999999ADDGD12991+0210099GF104991999999999999999999MA1101961999999MW1001REMMET058KLVN 040755Z AUTO 00000KT 10SM SCT070 17/15 A3011 RMK AO2;
0114726562999992000080416004+99999+999999FM-15+9999KLVN V0201901N002612200019N0160931N1+02401+01701999999ADDGF100991999999999999999999MA1101961999999MW1001REMMET055KLVN 041555Z AUTO 19005KT 10SM CLR 24/17 A3011 RMK AO2;
0154726562999992000080514004+99999+999999FM-15+9999KLVN V0201301N002612200019N0160931N1+01701+01601999999ADDAA101000891GF100991999999999999999999MA1100751999999MW1611REMMET065KLVN 051355Z AUTO 13005KT 10SM -RA CLR 17/16 A2975 RMK AO2 P0003;EQDQ01    003PRSWM1
0131726562999992000080516004+99999+999999FM-15+9999KLVN V0209999C000010036019N0112651N1+01801+01701999999ADDGD14991+0036099GF108991999999999999999999MA1100811999999MW1001REMMET057KLVN 051555Z AUTO 00000KT 7SM OVC012 18/17 A2977 RMK AO2;
0216726562999992000080806354+99999+999999FM-15+9999KLVN V0201601N006210084019N0160931N1+01801+01801999999ADDAA101001891GD12991+0057099GD23991+0084099GD33991+0129099GF107991999999999999999999MA1100712999999MW1611REMMET082KLVN 080735Z AUTO 16012KT 10SM -RA SCT019 BKN028 BKN043 18/18 A2974 RMK AO2 P0007;EQDQ01    003PRSWM1
0114726562999992000081003154+99999+999999FM-15+9999KLVN V0202901N002112200019N0160931N1+01901+01701999999ADDGF100991999999999999999999MA1101831999999MW1001REMMET055KLVN 100315Z AUTO 29004KT 10SM CLR 19/17 A3007 RMK AO2;
0125726562999992000081121354+99999+999999FM-15+9999KLVN V0201601N004612200019N0160931N1+02801+02101999999ADDGF100991999999999999999999MA1101831999999MW1001OC100771REMMET058KLVN 112235Z AUTO 16009G15KT 10SM CLR 28/21 A3007 RMK AO2;
0114726562999992000081206154+99999+999999FM-15+9999KLVN V0201601N001512200019N0160931N1+02201+02001999999ADDGF100991999999999999999999MA1101731999999MW1001REMMET055KLVN 120615Z AUTO 16003KT 10SM CLR 22/20 A3004 RMK AO2;
0125726562999992000081523154+99999+999999FM-15+9999KLVN V0203201N004612200019N0160931N1+02401+00701999999ADDGF100991999999999999999999MA1102271999999MW1001OC100721REMMET058KLVN 152315Z AUTO 32009G14KT 10SM CLR 24/07 A3020 RMK AO2;
0132726562999992000082021154+99999+999999FM-15+9999KLVN V0201501N005710123019N0160931N1+02301+01501999999ADDGD13991+0123099GF107991999999999999999999MA1102001999999MW1001REMMET058KLVN 202115Z AUTO 15011KT 10SM BKN041 23/15 A3012 RMK AO2;
0153726562999992000082122154+99999+999999FM-15+9999KLVN V0201001N002110081019N0112651N1+02201+01901999999ADDGD12991+0066099GD23991+0081099GF107991999999999999999999MA1101861999999MW1001REMMET064KLVN 212215Z AUTO 10004KT 7SM SCT022 BKN027 22/19 A3008 RMK AO2;
0131726562999992000082123004+99999+999999FM-15+9999KLVN V0201301N001510075019N0112651N1+02201+01901999999ADDGD14991+0075099GF108991999999999999999999MA1101901999999MW1001REMMET057KLVN 212255Z AUTO 13003KT 7SM OVC025 22/19 A3009 RMK AO2;
0157726562999992000082206154+99999+999999FM-15+9999KLVN V0209999C000010132019N0028161N1+01901+01801999999ADDGD14991+0132099GF108991999999999999999999MA1101961999999MW1101REMMET064KLVN 220615Z AUTO 00000KT 1 3/4SM BR OVC044 19/18 A3011 RMK AO2;EQDQ01    003PRSWM1
0156726562999992000082308154+99999+999999FM-15+9999KLVN V0209999C000010003019N0004021N1+01501+01501999999ADDGD14991+0003099GF108991999999999999999999MA1101731999999MW1441REMMET063KLVN 230815Z AUTO 00000KT M1/4SM FG OVC001 15/15 A3004 RMK AO2;EQDQ01    003PRSWM1
0195726562999992000082609354+99999+999999FM-15+9999KLVN V0200201N003610240019N0160931N1+01801+01701999999ADDAA101000891GD13991+0240099GD23991+0330099GF107991999999999999999999MA1101121999999MW1171REMMET076KLVN 260935Z AUTO 02007KT 10SM VCTS BKN085 BKN110 18/17 A2986 RMK AO2 P0003;EQDQ01    003PRSWM1
0135726562999992000082612354+99999+999999FM-15+9999KLVN V0209999C000012200019N0064371N1+01801+01701999999ADDGF100991999999999999999999MA1101221999999MW1101REMMET057KLVN 261235Z AUTO 00000KT 4SM BR CLR 18/17 A2989 RMK AO2;EQDQ01    003PRSWM1
0153726562999992000082813004+99999+999999FM-15+9999KLVN V0201501N002610051019N0064371N1+01901+01801999999ADDGD13991+0051099GF107991999999999999999999MA1101151999999MW1101REMMET060KLVN 281255Z AUTO 15005KT 4SM BR BKN017 19/18 A2987 RMK AO2;EQDQ01    003PRSWM1
0153726562999992000082822354+99999+999999FM-15+9999KLVN V0202101N002110057019N0064371N1+02401+02201999999ADDGD14991+0057099GF108991999999999999999999MA1100881999999MW1101REMMET060KLVN 282235Z AUTO 21004KT 4SM BR OVC019 24/22 A2979 RMK AO2;EQDQ01    003PRSWM1
0114726562999992000082916354+99999+999999FM-15+9999KLVN V0203501N002112200019N0160931N1+02001+01201999999ADDGF100991999999999999999999MA1102071999999MW1001REMMET055KLVN 291635Z AUTO 35004KT 10SM CLR 20/12 A3014 RMK AO2;
0114726562999992000083117004+99999+999999FM-15+9999KLVN V0202701N002612200019N0160931N1+02801+02201999999ADDGF100991999999999999999999MA1100911999999MW1001REMMET055KLVN 311655Z AUTO 27005KT 10SM CLR 28/22 A2980 RMK AO2;
0132726562999992000083118004+99999+999999FM-15+9999KLVN V0202701N001510090019N0160931N1+02801+02201999999ADDGD13991+0090099GF107991999999999999999999MA1100951999999MW1001REMMET058KLVN 311755Z AUTO 27003KT 10SM BKN030 28/22 A2981 RMK AO2;
0132726562999992000090321004+99999+999999FM-15+9999KLVN V0200101N003610045019N0160931N1+01901+01801999999ADDGD14991+0045099GF108991999999999999999999MA1101661999999MW1001REMMET058KLVN 032055Z AUTO 01007KT 10SM OVC015 19/18 A3002 RMK AO2;
0114726562999992000090603154+99999+999999FM-15+9999KLVN V0201501N002612200019N0160931N1+01301+01101999999ADDGF100991999999999999999999MA1102371999999MW1001REMMET055KLVN 060315Z AUTO 15005KT 10SM CLR 13/11 A3023 RMK AO2;
0176726562999992000090711154+99999+999999FM-15+9999KLVN V0202201N002612200019N0160931N1+01801+01401999999ADDGD12991+0108099GD22991+0180099GD32991+0210099GF104991999999999999999999MA1101461999999MW1001REMMET072KLVN 071115Z AUTO 22005KT 10SM SCT036 SCT065 SCT075 18/14 A2996 RMK AO2;
0143726562999992000090718354+99999+999999FM-15+9999KLVN V0203001N006712200019N0160931N1+02301+01301999999ADDGD12991+0123099GF104991999999999999999999MA1101561999999MW1001OC100871REMMET061KLVN 071835Z AUTO 30013G17KT 10SM SCT041 23/13 A2999 RMK AO2;
0114726562999992000091205154+99999+999999FM-15+9999KLVN V0202801N001512200019N0160931N1+01201+00801999999ADDGF100991999999999999999999MA1101321999999MW1001REMMET055KLVN 120515Z AUTO 28003KT 10SM CLR 12/08 A2992 RMK AO2;
0114726562999992000091310004+99999+999999FM-15+9999KLVN V0202301N002612200019N0160931N1+01601+00501999999ADDGF100991999999999999999999MA1101321999999MW1001REMMET055KLVN 130955Z AUTO 23005KT 10SM CLR 16/05 A2992 RMK AO2;
0125726562999992000091617154+99999+999999FM-15+9999KLVN V0202101N004612200019N0160931N1+02201+00301999999ADDGF100991999999999999999999MA1101831999999MW1001OC100721REMMET058KLVN 161715Z AUTO 21009G14KT 10SM CLR 22/03 A3007 RMK AO2;
0125726562999992000091621004+99999+999999FM-15+9999KLVN V0202101N005712200019N0160931N1+02601+00301999999ADDGF100991999999999999999999MA1101461999999MW1001OC100721REMMET058KLVN 162055Z AUTO 21011G14KT 10SM CLR 26/03 A2996 RMK AO2;
0114726562999992000091709354+99999+999999FM-15+9999KLVN V0203201N003112200019N0160931N1+01201+01001999999ADDGF100991999999999999999999MA1101591999999MW1001REMMET055KLVN 170935Z AUTO 32006KT 10SM CLR 12/10 A3000 RMK AO2;
0125726562999992000091904004+99999+999999FM-15+9999KLVN V0201801N004612200019N0160931N1+02301+00701999999ADDGF100991999999999999999999MA1099971999999MW1001OC100771REMMET058KLVN 190355Z AUTO 18009G15KT 10SM CLR 23/07 A2952 RMK AO2;
0114726562999992000092008354+99999+999999FM-15+9999KLVN V0202301N001512200019N0160931N1+01101+00601999999ADDGF100991999999999999999999MA1100271999999MW1001REMMET055KLVN 200835Z AUTO 23003KT 10SM CLR 11/06 A2961 RMK AO2;
0114726562999992000092119154+99999+999999FM-15+9999KLVN V0202001N002612200019N0160931N1+01501+00101999999ADDGF100991999999999999999999MA1101631999999MW1001REMMET055KLVN 211915Z AUTO 20005KT 10SM CLR 15/01 A3001 RMK AO2;
0132726562999992000092218354+99999+999999FM-15+9999KLVN V0201101N005710048019N0160931N1+01001+00801999999ADDGD14991+0048099GF108991999999999999999999MA1100851999999MW1001REMMET058KLVN 221835Z AUTO 11011KT 10SM OVC016 10/08 A2978 RMK AO2;
0176726562999992000092301154+99999+999999FM-15+9999KLVN V0201201N001510018019N0032181N1+01001+00901999999ADDGD13991+0018099GD24991+0033099GF108991999999999999999999MA1100951999999MW1511REMMET068KLVN 230115Z AUTO 12003KT 2SM -DZ BKN006 OVC011 10/09 A2981 RMK AO2;EQDQ01    003PRSWM1
0158726562999992000092301354+99999+999999FM-15+9999KLVN V0200901N001510012019N0028161N1+01001+00901999999ADDGD14991+0012099GF108991999999999999999999MA1100911999999MW1511REMMET065KLVN 230135Z AUTO 09003KT 1 3/4SM -DZ OVC004 10/09 A2980 RMK AO2;EQDQ01    003PRSWM1
0132726562999992000092401004+99999+999999FM-15+9999KLVN V0200201N003112200019N0160931N1+00801+00401999999ADDGD12991+0360099GF104991999999999999999999MA1102131999999MW1001REMMET058KLVN 240055Z AUTO 02006KT 10SM SCT120 08/04 A3016 RMK AO2;
0114726562999992000092405354+99999+999999FM-15+9999KLVN V0200101N002612200019N0160931N1+00401+00201999999ADDGF100991999999999999999999MA1102271999999MW1001REMMET055KLVN 240535Z AUTO 01005KT 10SM CLR 04/02 A3020 RMK AO2;
0114726562999992000092415004+99999+999999FM-15+9999KLVN V0209999C000012200019N0160931N1+00701+00101999999ADDGF100991999999999999999999MA1102511999999MW1001REMMET055KLVN 241455Z AUTO 00000KT 10SM CLR 07/01 A3027 RMK AO2;
0114726562999992000092707354+99999+999999FM-15+9999KLVN V0209999C000012200019N0160931N1+01101+00801999999ADDGF100991999999999999999999MA1101931999999MW1001REMMET055KLVN 270735Z AUTO 00000KT 10SM CLR 11/08 A3010 RMK AO2;
0114726562999992000100112154+99999+999999FM-15+9999KLVN V0209999C000012200019N0160931N1+01201+01001999999ADDGF100991999999999999999999MA1100201999999MW1001REMMET055KLVN 011215Z AUTO 00000KT 10SM CLR 12/10 A2959 RMK AO2;
0114726562999992000100214154+99999+999999FM-15+9999KLVN V0203201N005112200019N0160931N1+01201+00701999999ADDGF100991999999999999999999MA1100681999999MW1001REMMET055KLVN 021415Z AUTO 32010KT 10SM CLR 12/07 A2973 RMK AO2;
0114726562999992000100303354+99999+999999FM-15+9999KLVN V0209999C000012200019N0160931N1+00801+00201999999ADDGF100991999999999999999999MA1101081999999MW1001REMMET055KLVN 030335Z AUTO 00000KT 10SM CLR 08/02 A2985 RMK AO2;
0115726562999992000100407354+99999+999999FM-15+9999KLVN V0203501N001512200019N0160931N1+00601-00201999999ADDGF100991999999999999999999MA1102001999999MW1001REMMET056KLVN 040735Z AUTO 35003KT 10SM CLR 06/M02 A3012 RMK AO2;
0115726562999992000101006354+99999+999999FM-15+9999KLVN V0209999C000012200019N0160931N1+00401-00701999999ADDGF100991999999999999999999MA1102401999999MW1001REMMET056KLVN 100635Z AUTO 00000KT 10SM CLR 04/M07 A3024 RMK AO2;
0125726562999992000101118154+99999+999999FM-15+9999KLVN V0201901N005712200019N0112651N1+01901-01301999999ADDGF100991999999999999999999MA1102201999999MW1001OC100721REMMET058KLVN 111815Z AUTO 19011G14KT 7SM CLR 19/M13 A3018 RMK AO2;
0114726562999992000101123004+99999+999999FM-15+9999KLVN V0201801N003112200019N0112651N1+01801-00701999999ADDGF100991999999999999999999MA1101961999999MW1001REMMET055KLVN 112255Z AUTO 18006KT 7SM CLR 18/M07 A3011 RMK AO2;
0114726562999992000101220354+99999+999999FM-15+9999KLVN V0201901N006712200019N0160931N1+02301+00601999999ADDGF100991999999999999999999MA1101461999999MW1001REMMET055KLVN 122035Z AUTO 19013KT 10SM CLR 23/06 A2996 RMK AO2;
0132726562999992000101309004+99999+999999FM-15+9999KLVN V0202001N003610180019N0160931N1+01801+01101999999ADDGD14991+0180099GF108991999999999999999999MA1101221999999MW1001REMMET058KLVN 130855Z AUTO 20007KT 10SM OVC065 18/11 A2989 RMK AO2;
0132726562999992000101500354+99999+999999FM-15+9999KLVN V0202901N003112200019N0160931N1+00901+00601999999ADDGD12991+0087099GF104991999999999999999999MA1101731999999MW1001REMMET058KLVN 150035Z AUTO 29006KT 10SM SCT029 09/06 A3004 RMK AO2;
0132726562999992000101506004+99999+999999FM-15+9999KLVN V0203301N003110057019N0160931N1+00901+00601999999ADDGD14991+0057099GF108991999999999999999999MA1101901999999MW1001REMMET058KLVN 150555Z AUTO 33006KT 10SM OVC019 09/06 A3009 RMK AO2;
0153726562999992000101714004+99999+999999FM-15+9999KLVN V0201901N001510150019N0080461N1+00801+00801999999ADDGD14991+0150099GF108991999999999999999999MA1102241999999MW1101REMMET060KLVN 171355Z AUTO 19003KT 5SM BR OVC050 08/08 A3019 RMK AO2;EQDQ01    003PRSWM1
0114726562999992000101822004+99999+999999FM-15+9999KLVN V0209999C000012200019N0160931N1+02101+00101999999ADDGF100991999999999999999999MA1101901999999MW1001REMMET055KLVN 182155Z AUTO 00000KT 10SM CLR 21/01 A3009 RMK AO2;
0124726562999992000101919354+99999+999999FM-15+9999KLVN V0202301N007212200019N0112651N1+02901+00301999999ADDGF100991999999999999999999MA1101051999999MW1001OC101031REMMET057KLVN 191935Z AUTO 23014G20KT 7SM CLR 29/03 A2984 RMK AO2;
0125726562999992000102001354+99999+999999FM-15+9999KLVN V0202001N005112200019N0160931N1+02201+00701999999ADDGF100991999999999999999999MA1100981999999MW1001OC100821REMMET058KLVN 200135Z AUTO 20010G16KT 10SM CLR 22/07 A2982 RMK AO2;
0157726562999992000102321154+99999+999999FM-15+9999KLVN V0203401N002110039019N0040231N1+01701+01701999999ADDGD14991+0039099GF108991999999999999999999MA1102611999999MW1101REMMET064KLVN 232115Z AUTO 34004KT 2 1/2SM BR OVC013 17/17 A3030 RMK AO2;EQDQ01    003PRSWM1
0153726562999992000102504004+99999+999999FM-15+9999KLVN V0201601N002610024019N0048281N1+01701+01601999999ADDGD14991+0024099GF108991999999999999999999MA1102241999999MW1101REMMET060KLVN 250355Z AUTO 16005KT 3SM BR OVC008 17/16 A3019 RMK AO2;EQDQ01    003PRSWM1
0197726562999992000102504154+99999+999999FM-15+9999KLVN V0201601N003110330019N0048281N1+01701+01601999999ADDGD12991+0024099GD22991+0150099GD33991+0330099GF107991999999999999999999MA1102241999999MW1101REMMET074KLVN 250415Z AUTO 16006KT 3SM BR SCT008 SCT055 BKN110 17/16 A3019 RMK AO2;EQDQ01    003PRSWM1
0132726562999992000102522004+99999+999999FM-15+9999KLVN V0201901N004112200019N0160931N1+02101+01701999999ADDGD12991+0300099GF104991999999999999999999MA1101391999999MW1001REMMET058KLVN 252155Z AUTO 19008KT 10SM SCT100 21/17 A2994 RMK AO2;
0113726562999992000102612354+99999+999999FM-15+9999KLVN V0201901N005112200019N0112651N1+01401+01401999999ADDGF100991999999999999999999MA1100951999999MW1001REMMET054KLVN 261235Z AUTO 19010KT 7SM CLR 14/14 A2981 RMK AO2;
0143726562999992000102705154+99999+999999FM-15+9999KLVN V0202701N004610036019N0160931N1+01301+01201999999ADDGD14991+0036099GF108991999999999999999999MA1101291999999MW1001OC100771REMMET061KLVN 270515Z AUTO 27009G15KT 10SM OVC012 13/12 A2991 RMK AO2;
0132726562999992000102708354+99999+999999FM-15+9999KLVN V0202801N004110033019N0160931N1+01001+00901999999ADDGD14991+0033099GF108991999999999999999999MA1101561999999MW1001REMMET058KLVN 270835Z AUTO 28008KT 10SM OVC011 10/09 A2999 RMK AO2;
0154726562999992000102816004+99999+999999FM-15+9999KLVN V0201401N005710093019N0160931N1+00801+00301999999ADDGD12991+0060099GD23991+0093099GF107991999999999999999999MA1103011999999MW1001REMMET065KLVN 281555Z AUTO 14011KT 10SM SCT020 BKN031 08/03 A3042 RMK AO2;
0132726562999992000102817004+99999+999999FM-15+9999KLVN V0201201N006712200019N0160931N1+00901+00401999999ADDGD12991+0066099GF104991999999999999999999MA1102951999999MW1001REMMET058KLVN 281655Z AUTO 12013KT 10SM SCT022 09/04 A3040 RMK AO2;
0115726562999992000110403004+99999+999999FM-15+9999KLVN V0202401N003612200019N0160931N1+00301-00101999999ADDGF100991999999999999999999MA1102171999999MW1001REMMET056KLVN 040255Z AUTO 24007KT 10SM CLR 03/M01 A3017 RMK AO2;
0115726562999992000110420154+99999+999999FM-15+9999KLVN V0202801N003112200019N0160931N1+01301-00101999999ADDGF100991999999999999999999MA1101421999999MW1001REMMET056KLVN 042015Z AUTO 28006KT 10SM CLR 13/M01 A2995 RMK AO2;
0132726562999992000110600004+99999+999999FM-15+9999KLVN V0201501N004610075019N0160931N1+00801+00801999999ADDGD14991+0075099GF108991999999999999999999MA1100511999999MW1001REMMET058KLVN 052355Z AUTO 15009KT 10SM OVC025 08/08 A2968 RMK AO2;
0153726562999992000110811004+99999+999999FM-15+9999KLVN V0202401N004610054019N0160931N1-00201-00401999999ADDGD14991+0054099GF108991999999999999999999MA1101081999999MW1001OC100771REMMET071KLVN 081055Z AUTO 24009G15KT 210V270 10SM OVC018 M02/M04 A2985 RMK AO2;
0134726562999992000110818154+99999+999999FM-15+9999KLVN V0202501N003610051019N0160931N1-00201-00401999999ADDGD14991+0051099GF108991999999999999999999MA1101251999999MW1001REMMET060KLVN 081815Z AUTO 25007KT 10SM OVC017 M02/M04 A2990 RMK AO2;
0134726562999992000111004004+99999+999999FM-15+9999KLVN V0202901N005710045019N0160931N1-00101-00301999999ADDGD14991+0045099GF108991999999999999999999MA1101321999999MW1001REMMET060KLVN 100355Z AUTO 29011KT 10SM OVC015 M01/M03 A2992 RMK AO2;
0170726562999992000111216154+99999+999999FM-15+9999KLVN V0201001N004610021019N0112651N1+00301+00201999999ADDAA101000591GD14991+0021099GF108991999999999999999999MA1101221999999MW1531REMMET066KLVN 121615Z AUTO 10009KT 7SM DZ OVC007 03/02 A2989 RMK AO2 P0002;EQDQ01    003PRSWM1
0171726562999992000111221154+99999+999999FM-15+9999KLVN V0201001N003610027019N0160931N1+00301+00301999999ADDAA101000391GD14991+0027099GF108991999999999999999999MA1100851999999MW1631REMMET067KLVN 122115Z AUTO 10007KT 10SM RA OVC009 03/03 A2978 RMK AO2 P0001;EQDQ01    003PRSWM1
0116726562999992000111501004+99999+999999FM-15+9999KLVN V0202601N003612200019N0160931N1-00601-00801999999ADDGF100991999999999999999999MA1101421999999MW1001REMMET057KLVN 150055Z AUTO 26007KT 10SM CLR M06/M08 A2995 RMK AO2;
0136726562999992000111607154+99999+999999FM-15+9999KLVN V0200201N003110063019N0048281N1-00201-00201999999ADDGD14991+0063099GF108991999999999999999999MA1100241999999MW1001REMMET062KLVN 160715Z AUTO 02006KT 3SM UP OVC021 M02/M02 A2960 RMK AO2;
0145726562999992000111615354+99999+999999FM-15+9999KLVN V0203201N007210147019N0160931N1-00401-00701999999ADDGD14991+0147099GF108991999999999999999999MA1100751999999MW1001OC100981REMMET063KLVN 161535Z AUTO 32014G19KT 10SM OVC049 M04/M07 A2975 RMK AO2;
0178726562999992000111701004+99999+999999FM-15+9999KLVN V0203001N004110093019N0160931N1-00401-00701999999ADDGD12991+0078099GD23991+0093099GD34991+0141099GF108991999999999999999999MA1101321999999MW1001REMMET074KLVN 170055Z AUTO 30008KT 10SM SCT026 BKN031 OVC047 M04/M07 A2992 RMK AO2;
0134726562999992000111714154+99999+999999FM-15+9999KLVN V0202801N002610069019N0160931N1-00601-00901999999ADDGD14991+0069099GF108991999999999999999999MA1101801999999MW1001REMMET060KLVN 171415Z AUTO 28005KT 10SM OVC023 M06/M09 A3006 RMK AO2;
0156726562999992000111810154+99999+999999FM-15+9999KLVN V0202601N001510150019N0112651N1-00901-01201999999ADDGD14991+0150099GF108991999999999999999999MA1101591999999MW1711REMMET063KLVN 181015Z AUTO 26003KT 7SM -SN OVC050 M09/M12 A3000 RMK AO2;EQDQ01    003PRSWM1
0179726562999992000111822004+99999+999999FM-15+9999KLVN V0202601N003610111019N0160931N1-00501-00801999999ADDGD12991+0060099GD24991+0111099GF108991999999999999999999MA1101321999999MW1711REMMET071KLVN 182155Z AUTO 26007KT 10SM -SN SCT020 OVC037 M05/M08 A2992 RMK AO2;EQDQ01    003PRSWM1
0167726562999992000112022004+99999+999999FM-15+9999KLVN V0203101N007210123019N0160931N1-00801-01401999999ADDGD13991+0123099GD24991+0141099GF108991999999999999999999MA1102541999999MW1001OC100931REMMET070KLVN 202155Z AUTO 31014G18KT 10SM BKN041 OVC047 M08/M14 A3028 RMK AO2;
0137726562999992000112506154+99999+999999FM-15+9999KLVN V0202001N002112200019N0064371N1-00301-00401999999ADDGF100991999999999999999999MA1101731999999MW1101REMMET059KLVN 250615Z AUTO 20004KT 4SM BR CLR M03/M04 A3004 RMK AO2;EQDQ01    003PRSWM1
0159726562999992000112708354+99999+999999FM-15+9999KLVN V0202301N001510009019N0020111N1-00301-00301999999ADDGD14991+0009099GF108991999999999999999999MA1101081999999MW1101REMMET066KLVN 270835Z AUTO 23003KT 1 1/4SM BR OVC003 M03/M03 A2985 RMK AO2;EQDQ01    003PRSWM1
0159726562999992000112818354+99999+999999FM-15+9999KLVN V0201001N004610003019N0020111N1-00201-00301999999ADDGD14991+0003099GF108991999999999999999999MA1101291999999MW1101REMMET066KLVN 281835Z AUTO 10009KT 1 1/4SM BR OVC001 M02/M03 A2991 RMK AO2;EQDQ01    003PRSWM1
0134726562999992000113010354+99999+999999FM-15+9999KLVN V0203001N002110117019N0160931N1-00201-00301999999ADDGD14991+0117099GF108991999999999999999999MA1102541999999MW1001REMMET060KLVN 301035Z AUTO 30004KT 10SM OVC039 M02/M03 A3028 RMK AO2;
0116726562999992000120200354+99999+999999FM-15+9999KLVN V0209999C000012200019N0160931N1-00401-00701999999ADDGF100991999999999999999999MA1103621999999MW1001REMMET057KLVN 020035Z AUTO 00000KT 10SM CLR M04/M07 A3060 RMK AO2;
0116726562999992000120600004+99999+999999FM-15+9999KLVN V0202701N002612200019N0160931N1-01701-02101999999ADDGF100991999999999999999999MA1102841999999MW1001REMMET057KLVN 052355Z AUTO 27005KT 10SM CLR M17/M21 A3037 RMK AO2;
0200726562999992000120705174+99999+999999FM-15+9999KLVN V0209999C000010099019N0112651N1-01001-01201999999ADDGD12991+0060099GD23991+0099099GD34991+0129099GF108991999999999999999999MA1100951999999MW1711REMMET077KLVN 070517Z AUTO 00000KT 7SM -SN SCT020 BKN033 OVC043 M10/M12 A2981 RMK AO2;EQDQ01    003PRSWM1
0178726562999992000120710154+99999+999999FM-15+9999KLVN V0201201N002610024019N0032181N1-00901-01001999999ADDGD13991+0024099GD24991+0039099GF108991999999999999999999MA1100471999999MW1711REMMET070KLVN 071015Z AUTO 12005KT 2SM -SN BKN008 OVC013 M09/M10 A2967 RMK AO2;EQDQ01    003PRSWM1
0133726562999992000120715154+99999+999999FM-15+9999KLVN V0201101N002110036019N0112651N1-00701-00801999999ADDGD14991+0036099GF108991999999999999999999MA1100411999999MW1001REMMET059KLVN 071515Z AUTO 11004KT 7SM OVC012 M07/M08 A2965 RMK AO2;
0155726562999992000120720154+99999+999999FM-15+9999KLVN V0203601N002610036019N0080461N1-00501-00701999999ADDGD13991+0036099GF107991999999999999999999MA1100611999999MW1101REMMET062KLVN 072015Z AUTO 36005KT 5SM BR BKN012 M05/M07 A2971 RMK AO2;EQDQ01    003PRSWM1
0134726562999992000120808354+99999+999999FM-15+9999KLVN V0203401N003110072019N0160931N1-01101-01401999999ADDGD14991+0072099GF108991999999999999999999MA1102071999999MW1001REMMET060KLVN 080835Z AUTO 34006KT 10SM OVC024 M11/M14 A3014 RMK AO2;
0134726562999992000120909004+99999+999999FM-15+9999KLVN V0201601N002110270019N0160931N1-01301-01501999999ADDGD14991+0270099GF108991999999999999999999MA1102201999999MW1001REMMET060KLVN 090855Z AUTO 16004KT 10SM OVC090 M13/M15 A3018 RMK AO2;
0155726562999992000121002004+99999+999999FM-15+9999KLVN V0209999C000010024019N0048281N1-00301-00401999999ADDGD14991+0024099GF108991999999999999999999MA1101251999999MW1101REMMET062KLVN 100155Z AUTO 00000KT 3SM BR OVC008 M03/M04 A2990 RMK AO2;EQDQ01    003PRSWM1
0211726562999992000121011004+99999+999999FM-15+9999KLVN V0203501N005110051019N0080461N1-01201-01401999999ADDGD12991+0033099GD23991+0051099GD34991+0072099GF108991999999999999999999MA1102031999999MW1711OC101031REMMET080KLVN 101055Z AUTO 35010G20KT 5SM -SN SCT011 BKN017 OVC024 M12/M14 A3013 RMK AO2;EQDQ01    003PRSWM1
0116726562999992000121211354+99999+999999FM-15+9999KLVN V0202701N002612200019N0160931N1-02501-02801999999ADDGF100991999999999999999999MA1102981999999MW1001REMMET057KLVN 121135Z AUTO 27005KT 10SM CLR M25/M28 A3041 RMK AO2;
0116726562999992000121221004+99999+999999FM-15+9999KLVN V0202601N002612200019N0160931N1-01901-02401999999ADDGF100991999999999999999999MA1103051999999MW1001REMMET057KLVN 122055Z AUTO 26005KT 10SM CLR M19/M24 A3043 RMK AO2;
0134726562999992000121406154+99999+999999FM-15+9999KLVN V0209999C000010180019N0160931N1-01901-02101999999ADDGD14991+0180099GF108991999999999999999999MA1102301999999MW1001REMMET060KLVN 140615Z AUTO 00000KT 10SM OVC060 M19/M21 A3021 RMK AO2;
0115726562999992000121414004+99999+999999FM-15+9999KLVN V0209999C000012200019N0112651N1-02101-02301999999ADDGF100991999999999999999999MA1102611999999MW1001REMMET056KLVN 141355Z AUTO 00000KT 7SM CLR M21/M23 A3030 RMK AO2;
0115726562999992000121415354+99999+999999FM-15+9999KLVN V0202201N001512200019N0112651N1-01901-02101999999ADDGF100991999999999999999999MA1102681999999MW1001REMMET056KLVN 141535Z AUTO 22003KT 7SM CLR M19/M21 A3032 RMK AO2;
0178726562999992000121604154+99999+999999FM-15+9999KLVN V0201101N003110069019N0064371N1-00801-00901999999ADDGD13991+0069099GD24991+0093099GF108991999999999999999999MA1101051999999MW1711REMMET070KLVN 160415Z AUTO 11006KT 4SM -SN BKN023 OVC031 M08/M09 A2984 RMK AO2;EQDQ01    003PRSWM1
0156726562999992000121608004+99999+999999FM-15+9999KLVN V0201001N002110150019N0064371N1-00801-00901999999ADDGD14991+0150099GF108991999999999999999999MA1100881999999MW1711REMMET063KLVN 160755Z AUTO 10004KT 4SM -SN OVC055 M08/M09 A2979 RMK AO2;EQDQ01    003PRSWM1
0134726562999992000121710004+99999+999999FM-15+9999KLVN V0203001N007710060019N0160931N1-02101-02401999999ADDGD13991+0060099GF107991999999999999999999MA1101491999999MW1001REMMET060KLVN 170955Z AUTO 30015KT 10SM BKN020 M21/M24 A2997 RMK AO2;
0116726562999992000121800154+99999+999999FM-15+9999KLVN V0209999C000012200019N0160931N1-01901-02301999999ADDGF100991999999999999999999MA1101491999999MW1001REMMET057KLVN 180015Z AUTO 00000KT 10SM CLR M19/M23 A2997 RMK AO2;
0116726562999992000122108174+99999+999999FM-15+9999KLVN V0203001N008212200019N0160931N1-01901-02201999999ADDGF100991999999999999999999MA1101321999999MW1001REMMET057KLVN 210817Z AUTO 30016KT 10SM CLR M19/M22 A2992 RMK AO2;
0116726562999992000122111004+99999+999999FM-15+9999KLVN V0203001N006712200019N0160931N1-02101-02401999999ADDGF100991999999999999999999MA1101421999999MW1001REMMET057KLVN 211057Z AUTO 30013KT 10SM CLR M21/M24 A2995 RMK AO2;
0116726562999992000122415354+99999+999999FM-15+9999KLVN V0202901N003112200019N0160931N1-02401-02701999999ADDGF100991999999999999999999MA1103621999999MW1001REMMET057KLVN 241535Z AUTO 29006KT 10SM CLR M24/M27 A3060 RMK AO2;
0156726562999992000122719154+99999+999999FM-15+9999KLVN V0200801N003110180019N0160931N1-01301-01801999999ADDGD12991+0117099GD24991+0180099GF108991999999999999999999MA1102471999999MW1001REMMET067KLVN 271915Z AUTO 08006KT 10SM SCT039 OVC060 M13/M18 A3026 RMK AO2;
0134726562999992000123106354+99999+999999FM-15+9999KLVN V0203001N002610084019N0160931N1-01201-01301999999ADDGD14991+0084099GF108991999999999999999999MA1102541999999MW1001REMMET060KLVN 310635Z AUTO 30005KT 10SM OVC028 M12/M13 A3028 RMK AO2;
0221726563999992000010418003+44330-093320FM-15+0322KFBL V0203101N006210030019N0160931N1-00801-01401999999ADDGD13991+0030019GF107991999999999999999999GP10060021802009010902021017702009GQ100600680916819GR100600529914159MA1101961999999MW1001REMMET060KFBL 041755Z AUTO 31012KT 10SM BKN010 M08/M14 A3011 RMK AO2;EQDQ01+000000PRSWM2
0186726563999992000010900003+44330-093320FM-15+0322KFBL V0201901N002612200019N0160931N1-00201-00501999999ADDGF100991999999999999999999GP10060000002000000002000000002000GR100600000900009MA1100781999999MW1001REMMET057KFBL 082355Z AUTO 19005KT 10SM CLR M02/M05 A2976 RMK AO2;EQDQ01+000000PRSWM2
0257726563999992000011107003+44330-093320FM-15+0322KFBL V0203201N007710069019N0112651N1+00001-00201999999ADDGD12991+0045019GD23991+0069019GD34991+0093019GF108991999999999999999999GP10060000002000000002000000002000GR100600000900009MA1099971999999MW1001OC101031REMMET075KFBL 110655Z AUTO 32015G20KT 7SM SCT015 BKN023 OVC031 00/M02 A2952 RMK AO2;EQDQ01+000000PRSWM2
0203726563999992000012100003+44330-093320FM-15+0322KFBL V0202401N001512200019N0160931N1-01601-02001999999ADDGF100991999999999999999999GP10060000002009000002021000002009GQ100600898924169GR100600000901069MA1102171999999MW1001REMMET057KFBL 202355Z AUTO 24003KT 10SM CLR M16/M20 A3017 RMK AO2;EQDQ01+000000PRSWM2
0204726563999992000012211003+44330-093320FM-15+0322KFBL V0201701N003110042019N0160931N1-01001-01201999999ADDGD14991+0042019GF108991999999999999999999GP10060000002000000002000000002000GR100600000900009MA1101021999999MW1001REMMET060KFBL 221055Z AUTO 17006KT 10SM OVC014 M10/M12 A2983 RMK AO2;EQDQ01+000000PRSWM2
0248726563999992000012501003+44330-093320FM-15+0322KFBL V0203001N003112200019N0160931N1-01001-01201999999ADDGD12991+0090019GD22991+0126019GD32991+0360019GF104991999999999999999999GP10060000002000000002000000002000GR100600000900009MA1101761999999MW1001REMMET074KFBL 250055Z AUTO 30006KT 10SM SCT030 SCT042 SCT120 M10/M12 A3005 RMK AO2;EQDQ01+000000PRSWM2
0186726563999992000012607003+44330-093320FM-15+0322KFBL V0209999C000012200019N0160931N1-02201-02501999999ADDGF100991999999999999999999GP10060000002000000002000000002000GR100600000900009MA1102681999999MW1001REMMET057KFBL 260655Z AUTO 00000KT 10SM CLR M22/M25 A3032 RMK AO2;EQDQ01+000000PRSWM2
0186726563999992000012809003+44330-093320FM-15+0322KFBL V0209999C000012200019N0160931N1-01801-02101999999ADDGF100991999999999999999999GP10060000002000000002000000002000GR100600000900009MA1103451999999MW1001REMMET057KFBL 280855Z AUTO 00000KT 10SM CLR M18/M21 A3055 RMK AO2;EQDQ01+000000PRSWM2
0226726563999992000013010003+44330-093320FM-15+0322KFBL V0203501N002610210019N0160931N1-00801-01201999999ADDGD13991+0210019GD24991+0240019GF108991999999999999999999GP10060000002000000002000000002000GR100600000900009MA1102611999999MW1001REMMET067KFBL 300955Z AUTO 35005KT 10SM BKN070 OVC080 M08/M12 A3030 RMK AO2;EQDQ01+000000PRSWM2
0242726563999992000013014003+44330-093320FM-15+0322KFBL V0203201N003110240019N0112651N1-01001-01301999999ADDGD13991+0240019GD24991+0330019GF108991999999999999999999GP10060000002009000002021000002009GQ100600883911679GR100600017905769MA1102511999999MW1001REMMET066KFBL 301355Z AUTO 32006KT 7SM BKN085 OVC110 M10/M13 A3027 RMK AO2;EQDQ01+000000PRSWM2
0164726563999992000020316164+44330-093320FM-15+0322KFBL V0203101N013412200019N0160931N1-00301-00801999999ADDGD12991+0084019GF104991999999999999999999MA1101051999999MW1001OC101651REMMET063KFBL 031616Z AUTO 31026G32KT 10SM SCT028 M03/M08 A2984 RMK AO2;EQDQ01+000000PRSWM2
0203726563999992000021121003+44330-093320FM-15+0322KFBL V0203101N002612200019N0160931N1-01001-01801999999ADDGF100991999999999999999999GP10060043202009080902021008602009GQ100600647921319GR100600599914049MA1102611999999MW1001REMMET057KFBL 112055Z AUTO 31005KT 10SM CLR M10/M18 A3030 RMK AO2;EQDQ01+000000PRSWM2
0204726563999992000021409003+44330-093320FM-15+0322KFBL V0209999C000010105019N0160931N1-00701-01101999999ADDGD14991+0105019GF108991999999999999999999GP10060000002000000002000000002000GR100600000900009MA1101461999999MW1001REMMET060KFBL 140858Z AUTO 00000KT 10SM OVC035 M07/M11 A2996 RMK AO2;EQDQ01+000000PRSWM2
0197726563999992000021606003+44330-093320FM-15+0322KFBL V0203401N005112200019N0160931N1-00801-01101999999ADDGF100991999999999999999999GP10060000002000000002000000002000GR100600000900009MA1102101999999MW1001OC100721REMMET060KFBL 160555Z AUTO 34010G14KT 10SM CLR M08/M11 A3015 RMK AO2;EQDQ01+000000PRSWM2
0202726563999992000022204003+44330-093320FM-15+0322KFBL V0201901N003112200019N0064371N1+00301+00101999999ADDGF100991999999999999999999GP10060000002000000002000000002000GR100600000900009MA1101291999999MW1441REMMET057KFBL 220355Z AUTO 19006KT 4SM FG CLR 03/01 A2991 RMK AO2;EQDQ01+000003PRSWM1Q02    003PRSWM1
0219726563999992000022216003+44330-093320FM-15+0322KFBL V0201901N004612200019N0048281N1+00401+00201999999ADDGF100991999999999999999999GP10060038102009067702021012402009GQ100600677913229GR100600530913989MA1101151999999MW1441REMMET057KFBL 221555Z AUTO 19009KT 3SM FG CLR 04/02 A2987 RMK AO2;EQDQ01+000003PRSWM1Q02    003PRSWM1
0242726563999992000022501003+44330-093320FM-15+0322KFBL V0201001N002110003019N0004021N1+00701+00601999999ADDGD14991+0003019GF108991999999999999999999GP10060000002000000002000000002000GR100600000900009MA1101251999999MW1441REMMET082KFBL 250059Z AUTO 10004KT 1/4SM FG OVC001 07/06 A2990 RMK AO2 PARTIAL OBSCURATION;EQDQ01+000003PRSWM1Q02    003PRSWM1
0229726563999992000022522003+44330-093320FM-15+0322KFBL V0201601N007212200019N0112651N1+01401+01301999999ADDGD12991+0210019GF104991999999999999999999GP10060030102009046602021012302009GQ100600676923009GR100600531913969MA1099901999999MW1001OC101131REMMET060KFBL 252155Z AUTO 16014G22KT 7SM SCT075 14/13 A2950 RMK AO2;EQDQ01+000000PRSWM2
0071726563999992000022821009+44333-093317NSRDB+032299999V020999999999999999999999999999+99999+99999999999ADDGP10060038002009030202021022602009GQ100600594921639GR100600709913949
0203726563999992000030213003+44330-093320FM-15+0322KFBL V0209999C000012200019N0160931N1-00301-00601999999ADDGF100991999999999999999999GP10060000002009000002021000002009GQ100600892910019GR100600003902449MA1102741999999MW1001REMMET057KFBL 021257Z AUTO 00000KT 10SM CLR M03/M06 A3034 RMK AO2;EQDQ01+000000PRSWM2
0202726563999992000030219003+44330-093320FM-15+0322KFBL V0200901N001512200019N0160931N1+00401-00501999999ADDGF100991999999999999999999GP10060065502009087602021010602009GQ100600513918159GR100600869913929MA1102641999999MW1001REMMET056KFBL 021855Z AUTO 09003KT 10SM CLR 04/M05 A3031 RMK AO2;EQDQ01+000000PRSWM2
0230726563999992000030817003+44330-093320FM-15+0322KFBL V0201701N005712200019N0160931N1+01801+01401999999ADDGD12991+0180019GF104991999999999999999999GP10060026602009004202021024202009GQ100600553914479GR100600790913879MA1100101999999MW1001OC100721REMMET061KFBL 081655Z AUTO 17011G14KT 10SM SCT060 18/14 A2956 RMK AO2;EQDQ01+000000PRSWM2
0242726563999992000031320003+44330-093320FM-15+0322KFBL V0202301N003610111019N0160931N1+00201-00201999999ADDGD12991+0045019GD23991+0111019GF107991999999999999999999GP10060065702009079402021013802009GQ100600494920249GR100600900913839MA1101901999999MW1001REMMET066KFBL 131955Z AUTO 23007KT 10SM SCT015 BKN037 02/M02 A3009 RMK AO2;EQDQ01+000000PRSWM2
0219726563999992000031400003+44330-093320FM-15+0322KFBL V0202801N004110057019N0160931N1+00401+00001999999ADDGD14991+0057019GF108991999999999999999999GP10060008702009039902021003402009GQ100600823925899GR100600185913839MA1101861999999MW1001REMMET058KFBL 132355Z AUTO 28008KT 10SM OVC019 04/00 A3008 RMK AO2;EQDQ01+000000PRSWM2
0203726563999992000031402003+44330-093320FM-15+0322KFBL V0209999C000012200019N0160931N1+00201-00101999999ADDGD12991+0051019GF104991999999999999999999GP10060000002000000002000000002000GR100600000900009MA1101831999999MW1001REMMET059KFBL 140155Z AUTO 00000KT 10SM SCT017 02/M01 A3007 RMK AO2;EQDQ01+000000PRSWM2
0241726563999992000032020003+44330-093320FM-15+0322KFBL V0200201N002610024019N0056331N1+00501+00301999999ADDGD14991+0024019GF108991999999999999999999GP10060011702008000002015011702008GQ100600469920419GR100600942913789MA1101591999999MW1441REMMET064KFBL 201955Z AUTO 02005KT 3 1/2SM FG OVC008 05/03 A3000 RMK AO2;EQDQ01+000003PRSWM1Q02    003PRSWM1
0185726563999992000032603003+44330-093320FM-15+0322KFBL V0209999C000012200019N0160931N1+00501-00301999999ADDGF100991999999999999999999GP10060000002000000002000000002000GR100600000900009MA1101491999999MW1001REMMET056KFBL 260255Z AUTO 00000KT 10SM CLR 05/M03 A2997 RMK AO2;EQDQ01+000000PRSWM2
0212726563999992000032618003+44330-093320FM-15+0322KFBL V0202101N007712200019N0160931N1+01701+00901999999ADDGF100991999999999999999999GP10060067302008053002015028602008GQ100600433916219GR100600999913739MA1099971999999MW1001OC101231REMMET058KFBL 261755Z AUTO 21015G24KT 10SM CLR 17/09 A2952 RMK AO2;EQDQ01+000000PRSWM2
0202726563999992000040101003+44330-093320FM-15+0322KFBL V0202701N004612200019N0160931N1+01201-00301999999ADDGF100991999999999999999999GP10060000602008008202015000502008GQ100600869927369GR100600048908789MA1102001999999MW1001REMMET056KFBL 010055Z AUTO 27009KT 10SM CLR 12/M03 A3012 RMK AO2;EQDQ01+000000PRSWM2
0231726563999992000041122003+44330-093320FM-15+0322KFBL V0203101N006210150019N0160931N1+00701-00701999999ADDGD13991+0150019GF107991999999999999999999GP10060051902008062002015016502008GQ100600553924509GR100600773913609MA1102781999999MW1001OC100931REMMET062KFBL 112155Z AUTO 31012G18KT 10SM BKN055 07/M07 A3035 RMK AO2;EQDQ01+000000PRSWM2
0236726563999992000041304003+44330-093320FM-15+0322KFBL V0201301N007210240019N0160931N1+00401-00101999999ADDGD12991+0210019GD24991+0240019GF108991999999999999999999GP10060000002000000002000000002000GR100600000900009MA1102241999999MW1001OC101081REMMET069KFBL 130355Z AUTO 13014G21KT 10SM SCT070 OVC085 04/M01 A3019 RMK AO2;EQDQ01+000000PRSWM2
0054726563999992000042808009+44333-093317NSRDB+032299999V020999999999999999999999999999+99999+99999999999ADDGP10060000002000000002000000002000GR100600000900009
0201726563999992000042915003+44330-093320FM-15+0322KFBL V0201001N005112200019N0160931N1+00901+00301999999ADDGF100991999999999999999999GP10060055002008070302015014702008GQ100600551910469GR100600770913479MA1102271999999MW1001REMMET055KFBL 291455Z AUTO 10010KT 10SM CLR 09/03 A3020 RMK AO2;EQDQ01+000000PRSWM2
0071726563999992000050115009+44333-093317NSRDB+032299999V020999999999999999999999999999+99999+99999999999ADDGP10060055602008075202015012002008GQ100600546910419GR100600778913459
0219726563999992000050813003+44330-093320FM-15+0322KFBL V0202601N004610036019N0160931N1+01701+01701999999ADDGD14991+0036019GF108991999999999999999999GP10060007102008000002015007102008GQ100600744908099GR100600360913419MA1099971999999MW1001REMMET058KFBL 081255Z AUTO 26009KT 10SM OVC012 17/17 A2952 RMK AO2;EQDQ01+000000PRSWM2
0201726563999992000051413003+44330-093320FM-15+0322KFBL V0203001N003612200019N0160931N1+00801+00201999999ADDGF100991999999999999999999GP10060023802008049302015009702008GQ100600734907979GR100600382913379MA1102171999999MW1001REMMET055KFBL 141255Z AUTO 30007KT 10SM CLR 08/02 A3017 RMK AO2;EQDQ01+000000PRSWM2
0071726563999992000051417009+44333-093317NSRDB+032299999V020999999999999999999999999999+99999+99999999999ADDGP10060084602008080802015016802008GQ100600330913329GR100601120913379
0184726563999992000051505003+44330-093320FM-15+0322KFBL V0201801N001512200019N0160931N1+00601+00301999999ADDGF100991999999999999999999GP10060000002000000002000000002000GR100600000900009MA1102131999999MW1001REMMET055KFBL 150455Z AUTO 18003KT 10SM CLR 06/03 A3016 RMK AO2;EQDQ01+000000PRSWM2
0281726563999992000051722003+44330-093320FM-15+0322KFBL V0200801N005710030019N0048281N1+01501+01501999999ADDGD13991+0030019GD24991+0039019GF108991999999999999999999GP10060015302008000002015015302008GQ100600482925579GR100600888913359MA1100411999999MW1441OC101031REMMET081KFBL 172155Z AUTO 08011G20KT 3SM FG BKN010 OVC013 15/15 A2965 RMK AO2 LTG DSNT W;EQDQ01+000003PRSWM1Q02    003PRSWM1
0133726563999992000052002554+44330-093320FM-15+0322KFBL V0209999C000012200019N0160931N1+00901+00701999999ADDGF100991999999999999999999MA1101831999999MW1001REMMET055KFBL 200255Z AUTO 00000KT 10SM CLR 09/07 A3007 RMK AO2;EQDQ01+000000PRSWM2
0222726563999992000052609003+44330-093320FM-15+0322KFBL V0200801N002110270019N0160931N1+01501+00901999999ADDGD14991+0270019GF108991999999999999999999GP10060000002000000002000000002000GR100600000900009MA1101251999999MW1511REMMET062KFBL 260855Z AUTO 08004KT 10SM -DZ OVC090 15/09 A2990 RMK AO2;EQDQ01+000003PRSWM1Q02    003PRSWM1
0263726563999992000060101003+44330-093320FM-15+0322KFBL V0201001N002110180019N0160931N1+01801+01601999999ADDGD12991+0099019GD23991+0180019GD33991+0270019GF107991999999999999999999GP10060002702008000002015002702008GQ100600779928929GR100600278913289MA1101491999999MW1001REMMET072KFBL 010055Z AUTO 10004KT 10SM SCT033 BKN060 BKN095 18/16 A2997 RMK AO2;EQDQ01+000000PRSWM2
0230726563999992000060121003+44330-093320FM-15+0322KFBL V0202701N004610051019N0160931N1+01901+01801999999ADDGD14991+0051019GF108991999999999999999999GP10060015702008000002015015702008GQ100600361924339GR100601072913289MA1101321999999MW1001OC100721REMMET061KFBL 012055Z AUTO 27009G14KT 10SM OVC017 19/18 A2992 RMK AO2;EQDQ01+000000PRSWM2
0265726563999992000060417003+44330-093320FM-15+0322KFBL V0200301N006710018019N0112651N1+01301+01301999999ADDAA101003391GD14991+0018019GF108991999999999999999999GP10060012302008000002015012302008GQ100600303912839GR100601145913279MA1101761999999MW1631OC100981REMMET069KFBL 041655Z AUTO 03013G19KT 7SM RA OVC006 13/13 A3005 RMK AO2 P0013;EQDQ01+000003PRSWM1Q02    003PRSWM1
0133726563999992000060615554+44330-093320FM-15+0322KFBL V0202101N003612200019N0160931N1+01901+01001999999ADDGF100991999999999999999999MA1102471999999MW1001REMMET055KFBL 061555Z AUTO 21007KT 10SM CLR 19/10 A3026 RMK AO2;EQDQ01+000000PRSWM2
0204726563999992000060623003+44330-093320FM-15+0322KFBL V0201801N003112200019N0160931N1+02201+01301999999ADDGF100991999999999999999999GP10060047402008060102015014102008GQ100600563926999GR100600735913269MA1102071999999MW1001REMMET058KFBL 062255Z AUTO 18006G09KT 10SM CLR 22/13 A3014 RMK AO2;EQDQ01+000000PRSWM2
0162726563999992000061009554+44330-093320FM-15+0322KFBL V0202001N006212200019N0160931N1+02301+02001999999ADDGD12991+0090019GF104991999999999999999999MA1100471999999MW1001OC101081REMMET061KFBL 100955Z AUTO 20012G21KT 10SM SCT030 23/20 A2967 RMK AO2;EQDQ01+000000PRSWM2
0252726563999992000061011003+44330-093320FM-15+0322KFBL V0201901N007210240019N0160931N1+02401+02001999999ADDGD12991+0090019GD23991+0240019GF107991999999999999999999GP10060000002008000002015000002008GQ100600880905879GR100600022906519MA1100471999999MW1001OC101031REMMET068KFBL 101055Z AUTO 19014G20KT 10SM SCT030 BKN080 24/20 A2967 RMK AO2;EQDQ01+000000PRSWM2
0151726563999992000061210554+44330-093320FM-15+0322KFBL V0200801N004110021019N0160931N1+01501+01501999999ADDGD13991+0021019GF107991999999999999999999MA1101801999999MW1001REMMET058KFBL 121055Z AUTO 08008KT 10SM BKN007 15/15 A3006 RMK AO2;EQDQ01+000000PRSWM2
0230726563999992000062021003+44320-093310FM-15+0322KFBL V0202601N009312200019N0160931N1+02601+01901999999ADDGD12991+0180019GF104991999999999999999999GP10060079602008070402015021602008GQ100600346924379GR100601087913229MA1100171999999MW1001OC101131REMMET061KFBL 202055Z AUTO 26018G22KT 10SM SCT060 26/19 A2958 RMK AO2;EQDQ01+000000PRSWM2
0201726563999992000062615003+44320-093310FM-15+0322KFBL V0202901N005112200019N0160931N1+02001+01701999999ADDGF100991999999999999999999GP10060059402008071902015013502008GQ100600503909539GR100600843913229MA1101591999999MW1001REMMET055KFBL 261455Z AUTO 29010KT 10SM CLR 20/17 A3000 RMK AO2;EQDQ01+000000PRSWM2
0230726563999992000062622003+44320-093310FM-15+0322KFBL V0202901N007212200019N0160931N1+02401+01301999999ADDGD12991+0210019GF104991999999999999999999GP10060065502008072502015013802008GQ100600446925819GR100600940913229MA1101591999999MW1001OC101031REMMET061KFBL 262155Z AUTO 29014G20KT 10SM SCT070 24/13 A3000 RMK AO2;EQDQ01+000000PRSWM2
0201726563999992000062916003+44320-093310FM-15+0322KFBL V0202801N003112200019N0160931N1+02101+01301999999ADDGF100991999999999999999999GP10060074302008079902015013102008GQ100600400910819GR100601011913219MA1101691999999MW1001REMMET055KFBL 291555Z AUTO 28006KT 10SM CLR 21/13 A3003 RMK AO2;EQDQ01+000000PRSWM2
0201726563999992000070101003+44320-093310FM-15+0322KFBL V0202201N001512200019N0160931N1+02501+01501999999ADDGF100991999999999999999999GP10060015502008041102015005702008GQ100600762928909GR100600315913219MA1101221999999MW1001REMMET055KFBL 010055Z AUTO 22003KT 10SM CLR 25/15 A2989 RMK AO2;EQDQ01+000000PRSWM2
0219726563999992000070400003+44320-093310FM-15+0322KFBL V0201401N003610075019N0160931N1+02301+02001999999ADDGD14991+0075019GF108991999999999999999999GP10060021102008007002015018202008GQ100600659927919GR100600539913219MA1101491999999MW1001REMMET058KFBL 032355Z AUTO 14007KT 10SM OVC025 23/20 A2997 RMK AO2;EQDQ01+000000PRSWM2
0201726563999992000070702003+44320-093310FM-15+0322KFBL V0200801N002112200019N0160931N1+02401+02201999999ADDGF100991999999999999999999GP10060002202008005702015001802008GQ100600858929819GR100600092912669MA1101661999999MW1001REMMET055KFBL 070155Z AUTO 08004KT 10SM CLR 24/22 A3002 RMK AO2;EQDQ01+000000PRSWM2
0071726563999992000070820009+44333-093317NSRDB+032299999V020999999999999999999999999999+99999+99999999999ADDGP10060088002008079602015016702008GQ100600266921929GR100601181913219
0201726563999992000071112003+44320-093310FM-15+0322KFBL V0209999C000012200019N0160931N1+01901+01901999999ADDGF100991999999999999999999GP10060008202008019602015005802008GQ100600828906599GR100600165913229MA1101521999999MW1001REMMET055KFBL 111155Z AUTO 00000KT 10SM CLR 19/19 A2998 RMK AO2;EQDQ01+000000PRSWM2
0201726563999992000071423003+44320-093310FM-15+0322KFBL V0203101N004112200019N0160931N1+02901+02201999999ADDGF100991999999999999999999GP10060049702008071302015009602008GQ100600558926759GR100600742913229MA1101421999999MW1001REMMET055KFBL 142255Z AUTO 31008KT 10SM CLR 29/22 A2995 RMK AO2;EQDQ01+000000PRSWM2
0201726563999992000071600003+44320-093310FM-15+0322KFBL V0200801N002112200019N0160931N1+02601+02001999999ADDGF100991999999999999999999GP10060030402008042902015013302008GQ100600666927769GR100600525913229MA1101191999999MW1001REMMET055KFBL 152357Z AUTO 08004KT 10SM CLR 26/20 A2988 RMK AO2;EQDQ01+000000PRSWM2
0241726563999992000072011003+44320-093310FM-15+0322KFBL V0202601N002610300019N0160931N1+01601+01501999999ADDGD12991+0114019GD23991+0300019GF107991999999999999999999GP10060000002008000002015000002008GQ100600893906099GR100600003902099MA1101561999999MW1001REMMET065KFBL 201058Z AUTO 26005KT 10SM SCT038 BKN100 16/15 A2999 RMK AO2;EQDQ01+000000PRSWM2
0071726563999992000072315009+44333-093317NSRDB+032299999V020999999999999999999999999999+99999+99999999999ADDGP10060052802008063502015014702008GQ100600531909809GR100600793913249
0054726563999992000072906009+44333-093317NSRDB+032299999V020999999999999999999999999999+99999+99999999999ADDGP10060000002000000002000000002000GR100600000900009
0071726563999992000073015009+44333-093317NSRDB+032299999V020999999999999999999999999999+99999+99999999999ADDGP10060053002008066002015014302008GQ100600542909959GR100600775913269
0151726563999992000080322554+44320-093310FM-15+0322KFBL V0200801N003110210019N0160931N1+02101+02001999999ADDGD14991+0210019GF108991999999999999999999MA1101831999999MW1001REMMET058KFBL 032255Z AUTO 08006KT 10SM OVC070 21/20 A3007 RMK AO2;EQDQ01+000000PRSWM2
0246726563999992000080509003+44320-093310FM-15+0322KFBL V0201701N004110144019N0160931N1+02001+01701999999ADDGD12991+0129019GD23991+0144019GD33991+0180019GF107991999999999999999999GP10060000002000000002000000002000GR100600000900009MA1101351999999MW1001REMMET072KFBL 050855Z AUTO 17008KT 10SM SCT043 BKN048 BKN060 20/17 A2993 RMK AO2;EQDQ01+000000PRSWM2
0263726563999992000080601003+44320-093310FM-15+0322KFBL V0209999C000010066019N0160931N1+02401+02301999999ADDGD13991+0066019GD23991+0093019GD33991+0141019GF107991999999999999999999GP10060005402008000002015005402008GQ100600802928399GR100600225913289MA1100441999999MW1001REMMET072KFBL 060055Z AUTO 00000KT 10SM BKN022 BKN031 BKN047 24/23 A2966 RMK AO2;EQDQ01+000000PRSWM2
0184726563999992000080711003+44320-093310FM-15+0322KFBL V0202201N001512200019N0160931N1+01701+01701999999ADDGF100991999999999999999999GP10060000002000000002000000002000GR100600000900009MA1101121999999MW1001REMMET055KFBL 071055Z AUTO 22003KT 10SM CLR 17/17 A2986 RMK AO2;EQDQ01+000000PRSWM2
0219726563999992000080814003+44320-093310FM-15+0322KFBL V0201801N001510021019N0160931N1+02101+02101999999ADDGD13991+0021019GF107991999999999999999999GP10060031502008048202015012102008GQ100600662909069GR100600535913299MA1101021999999MW1001REMMET058KFBL 081355Z AUTO 18003KT 10SM BKN007 21/21 A2983 RMK AO2;EQDQ01+000000PRSWM2
0054726563999992000082408009+44333-093317NSRDB+032299999V020999999999999999999999999999+99999+99999999999ADDGP10060000002000000002000000002000GR100600000900009
0206726563999992000082707003+44320-093310FM-15+0322KFBL V0209999C000012200019N0040231N1+01701+01701999999ADDGF100991999999999999999999GP10060000002000000002000000002000GR100600000900009MA1101321999999MW1441REMMET061KFBL 270655Z AUTO 00000KT 2 1/2SM FG CLR 17/17 A2992 RMK AO2;EQDQ01+000003PRSWM1Q02    003PRSWM1
0218726563999992000083013003+44320-093310FM-15+0322KFBL V0201301N004610069019N0112651N1+01801+01701999999ADDGD14991+0069019GF108991999999999999999999GP10060006202008000002015006202008GQ100600809908659GR100600212913419MA1101731999999MW1001REMMET057KFBL 301255Z AUTO 13009KT 7SM OVC023 18/17 A3004 RMK AO2;EQDQ01+000000PRSWM2
0219726563999992000090223003+44320-093310FM-15+0322KFBL V0201001N006212200019N0080461N1+02701+02401999999ADDGF100991999999999999999999GP10060032102008049902015012202008GQ100600665925699GR100600535913439MA1101081999999MW1051REMMET057KFBL 022255Z AUTO 10012KT 5SM HZ CLR 27/24 A2985 RMK AO2;EQDQ01+000003PRSWM1Q02    003PRSWM1
0195726563999992000090308003+44320-093310FM-15+0322KFBL V0201901N001512200019N0112651N1+02001+02001999999ADDGF100991999999999999999999GP10060000002000000002000000002000GR100600000900009MA1101051999999MW1001REMMET066KFBL 030755Z AUTO 19003KT 7SM CLR 20/20 A2984 RMK AO2 LTG DSNT SE;EQDQ01+000000PRSWM2
0218726563999992000090317003+44320-093310FM-15+0322KFBL V0203501N002610027019N0112651N1+01901+01901999999ADDGD14991+0027019GF108991999999999999999999GP10060024902008000602015024502008GQ100600434914159GR100600976913449MA1101631999999MW1001REMMET057KFBL 031655Z AUTO 35005KT 7SM OVC009 19/19 A3001 RMK AO2;EQDQ01+000000PRSWM2
0201726563999992000090815003+44320-093310FM-15+0322KFBL V0201901N004112200019N0160931N1+02101+01201999999ADDGF100991999999999999999999GP10060041702008061102015012802008GQ100600618911209GR100600636913479MA1101761999999MW1001REMMET055KFBL 081455Z AUTO 19008KT 10SM CLR 21/12 A3005 RMK AO2;EQDQ01+000000PRSWM2
0184726563999992000090904003+44320-093310FM-15+0322KFBL V0201401N004112200019N0160931N1+01801+01401999999ADDGF100991999999999999999999GP10060000002000000002000000002000GR100600000900009MA1101221999999MW1001REMMET055KFBL 090355Z AUTO 14008KT 10SM CLR 18/14 A2989 RMK AO2;EQDQ01+000000PRSWM2
0184726563999992000090909003+44320-093310FM-15+0322KFBL V0201801N005112200019N0160931N1+02001+01901999999ADDGF100991999999999999999999GP10060000002000000002000000002000GR100600000900009MA1100911999999MW1001REMMET055KFBL 090855Z AUTO 18010KT 10SM CLR 20/19 A2980 RMK AO2;EQDQ01+000000PRSWM2
0247726563999992000091107003+44320-093310FM-15+0322KFBL V0200401N004610150019N0160931N1+01901+01901999999ADDGD14991+0150019GF108991999999999999999999GP10060000002000000002000000002000GR100600000900009MA1100641999999MW1171MW2611REMMET081KFBL 110655Z AUTO 04009KT 10SM -VCTSRA OVC050 19/19 A2972 RMK AO2 LTG DSNT ALQDS;EQDQ01+000003PRSWM1Q02    003PRSWM1
0200726563999992000091600003+44320-093310FM-15+0322KFBL V0200601N001512200019N0112651N1+01701+00601999999ADDGF100991999999999999999999GP10060008402008024802015004602008GQ100600813926529GR100600205913529MA1102241999999MW1001REMMET054KFBL 152355Z AUTO 06003KT 7SM CLR 17/06 A3019 RMK AO2;EQDQ01+000000PRSWM2
0184726563999992000092406003+44320-093310FM-15+0322KFBL V0203601N002112200019N0160931N1+00401+00401999999ADDGF100991999999999999999999GP10060000002000000002000000002000GR100600000900009MA1102271999999MW1001REMMET055KFBL 240555Z AUTO 36004KT 10SM CLR 04/04 A3020 RMK AO2;EQDQ01+000000PRSWM2
0184726563999992000092407003+44320-093310FM-15+0322KFBL V0209999C000012200019N0160931N1+00301+00301999999ADDGF100991999999999999999999GP10060000002000000002000000002000GR100600000900009MA1102341999999MW1001REMMET055KFBL 240655Z AUTO 00000KT 10SM CLR 03/03 A3022 RMK AO2;EQDQ01+000000PRSWM2
0183726563999992000092509003+44320-093310FM-15+0322KFBL V0209999C000012200019N0112651N1+00001+00001999999ADDGF100991999999999999999999GP10060000002000000002000000002000GR100600000900009MA1102241999999MW1001REMMET054KFBL 250855Z AUTO 00000KT 7SM CLR 00/00 A3019 RMK AO2;EQDQ01+000000PRSWM2
0184726563999992000092703003+44320-093310FM-15+0322KFBL V0209999C000012200019N0160931N1+01001+00901999999ADDGF100991999999999999999999GP10060000002000000002000000002000GR100600000900009MA1101661999999MW1001REMMET055KFBL 270255Z AUTO 00000KT 10SM CLR 10/09 A3002 RMK AO2;EQDQ01+000000PRSWM2
0184726563999992000100112003+44320-093310FM-15+0322KFBL V0201701N003612200019N0160931N1+01401+01201999999ADDGF100991999999999999999999GP10060000002000000002000000002000GR100600000900009MA1100311999999MW1001REMMET055KFBL 011155Z AUTO 17007KT 10SM CLR 14/12 A2962 RMK AO2;EQDQ01+000000PRSWM2
0219726563999992000100214003+44320-093310FM-15+0322KFBL V0203301N003110030019N0160931N1+01101+01001999999ADDGD14991+0030019GF108991999999999999999999GP10060007602008000002015007602008GQ100600773910849GR100600300913659MA1100781999999MW1001REMMET058KFBL 021355Z AUTO 33006KT 10SM OVC010 11/10 A2976 RMK AO2;EQDQ01+000000PRSWM2
0224726563999992000100512003+44320-093310FM-15+0322KFBL V0200501N004610180019N0160931N1+00701+00301999999ADDGD13991+0180019GD24991+0210019GF108991999999999999999999GP10060000002000000002000000002000GR100600000900009MA1101901999999MW1001REMMET065KFBL 051155Z AUTO 05009KT 10SM BKN065 OVC070 07/03 A3009 RMK AO2;EQDQ01+000000PRSWM2
0202726563999992000100923003+44320-093310FM-15+0322KFBL V0202101N002112200019N0160931N1+01401-00501999999ADDGF100991999999999999999999GP10060012502008036302015005402008GQ100600789924919GR100600264913719MA1102741999999MW1001REMMET056KFBL 092255Z AUTO 21004KT 10SM CLR 14/M05 A3034 RMK AO2;EQDQ01+000000PRSWM2
0184726563999992000101208003+44320-093310FM-15+0322KFBL V0201701N003112200019N0160931N1+01001+00101999999ADDGF100991999999999999999999GP10060000002000000002000000002000GR100600000900009MA1102071999999MW1001REMMET055KFBL 120755Z AUTO 17006KT 10SM CLR 10/01 A3014 RMK AO2;EQDQ01+000000PRSWM2
0184726563999992000101503003+44320-093310FM-15+0322KFBL V0203101N003612200019N0160931N1+00701+00401999999ADDGF100991999999999999999999GP10060000002000000002000000002000GR100600000900009MA1101931999999MW1001REMMET055KFBL 150255Z AUTO 31007KT 10SM CLR 07/04 A3010 RMK AO2;EQDQ01+000000PRSWM2
0246726563999992000101703003+44320-093310FM-15+0322KFBL V0202801N002110144019N0160931N1+00901+00401999999ADDGD13991+0144019GD23991+0150019GD34991+0210019GF108991999999999999999999GP10060000002000000002000000002000GR100600000900009MA1102201999999MW1001REMMET072KFBL 170255Z AUTO 28004KT 10SM BKN048 BKN050 OVC075 09/04 A3018 RMK AO2;EQDQ01+000000PRSWM2
0184726563999992000102009003+44320-093310FM-15+0322KFBL V0202101N004112200019N0160931N1+01401+00801999999ADDGF100991999999999999999999GP10060000002000000002000000002000GR100600000900009MA1101251999999MW1001REMMET055KFBL 200855Z AUTO 21008KT 10SM CLR 14/08 A2990 RMK AO2;EQDQ01+000000PRSWM2
0071726563999992000102213009+44333-093317NSRDB+032299999V020999999999999999999999999999+99999+99999999999ADDGP10060000002009000002021000002009GQ100600884910719GR100600013904729
0054726563999992000102802009+44333-093317NSRDB+032299999V020999999999999999999999999999+99999+99999999999ADDGP10060000002000000002000000002000GR100600000900009
0162726563999992000102813354+44320-093310FM-15+0322KFBL V0201101N006210138019N0160931N1+00501+00301999999ADDGD14991+0138019GF108991999999999999999999MA1103011999999MW1001OC100771REMMET061KFBL 281335Z AUTO 11012G15KT 10SM OVC046 05/03 A3042 RMK AO2;EQDQ01+000000PRSWM2
0054726563999992000102906009+44333-093317NSRDB+032299999V020999999999999999999999999999+99999+99999999999ADDGP10060000002000000002000000002000GR100600000900009
0162726563999992000110207354+44320-093310FM-15+0322KFBL V0202101N007212200019N0160931N1+01101+00701999999ADDGD12991+0114019GF104991999999999999999999MA1100411999999MW1001OC101181REMMET061KFBL 020735Z AUTO 21014G23KT 10SM SCT038 11/07 A2965 RMK AO2;EQDQ01+000000PRSWM2
0054726563999992000110211009+44333-093317NSRDB+032299999V020999999999999999999999999999+99999+99999999999ADDGP10060000002000000002000000002000GR100600000900009
0054726563999992000110305009+44333-093317NSRDB+032299999V020999999999999999999999999999+99999+99999999999ADDGP10060000002000000002000000002000GR100600000900009
0103726563999992000110305354+44320-093310FM-15+0322KFBL V0202401N003612200019N0160931N1+00601+00001999999ADDMA1101661999999MW1001REMMET051KFBL 030535Z AUTO 24007KT 10SM 06/00 A3002 RMK AO2;EQDQ01+000000PRSWM2
0151726563999992000110610354+44320-093310FM-15+0322KFBL V0201301N009812200019N0160931N1+00801+00701999999ADDAA101000591MA1100141999999MW1611OC101341REMMET064KFBL 061035Z AUTO 13019G26KT 10SM -RA 08/07 A2957 RMK AO2 P0002;EQDQ01+000003PRSWM1Q02    003PRSWM1
0175726563999992000111004354+44320-093310FM-15+0322KFBL V0203001N004110054019N0160931N1-00201-00401999999ADDGD12991+0036019GD24991+0054019GF108991999999999999999999MA1101351999999MW1001REMMET067KFBL 100435Z AUTO 30008KT 10SM SCT012 OVC018 M02/M04 A2993 RMK AO2;EQDQ01+000000PRSWM2
0054726563999992000111307009+44333-093317NSRDB+032299999V020999999999999999999999999999+99999+99999999999ADDGP10060000002000000002000000002000GR100600000900009
0054726563999992000111402009+44333-093317NSRDB+032299999V020999999999999999999999999999+99999+99999999999ADDGP10060000002000000002000000002000GR100600000900009
0071726563999992000111617009+44333-093317NSRDB+032299999V020999999999999999999999999999+99999+99999999999ADDGP10060010902009000002021010902009GQ100600665915739GR100600559913999
0194726563999992000111912354+44320-093310FM-15+0322KFBL V0202201N002610069019N0064371N1-00201-00401999999ADDGD12991+0045019GD24991+0069019GF108991999999999999999999MA1100471999999MW1711REMMET070KFBL 191235Z AUTO 22005KT 4SM -SN SCT015 OVC023 M02/M04 A2967 RMK AO2;EQDQ01+000003PRSWM1Q02    003PRSWM1
0071726563999992000112015009+44333-093317NSRDB+032299999V020999999999999999999999999999+99999+99999999999ADDGP10060006002009000002021006002009GQ100600799913109GR100600245914029
0134726563999992000112301354+44320-093310FM-15+0322KFBL V0209999C000012200019N0112651N1-01101-01201999999ADDGF100991999999999999999999MA1102371999999MW1001REMMET056KFBL 230135Z AUTO 00000KT 7SM CLR M11/M12 A3023 RMK AO2;EQDQ01+000000PRSWM2
0157726563999992000112508354+44320-093310FM-15+0322KFBL V0209999C000012200019N0020111N1-00401-00601999999ADDGF100991999999999999999999MA1101661999999MW1101REMMET063KFBL 250835Z AUTO 00000KT 1 1/4SM BR CLR M04/M06 A3002 RMK AO2;EQDQ01+000003PRSWM1Q02    003PRSWM1
0054726563999992000112611009+44333-093317NSRDB+032299999V020999999999999999999999999999+99999+99999999999ADDGP10060000002000000002000000002000GR100600000900009
0152726563999992000112913354+44320-093310FM-15+0322KFBL V0203201N005110066019N0112651N1-00101-00301999999ADDGD14991+0066019GF108991999999999999999999MA1101461999999MW1001REMMET059KFBL 291335Z AUTO 32010KT 7SM OVC022 M01/M03 A2996 RMK AO2;EQDQ01+000000PRSWM2
0135726563999992000120222354+44320-093310FM-15+0322KFBL V0209999C000012200019N0160931N1-00601-01101999999ADDGF100991999999999999999999MA1103761999999MW1001REMMET057KFBL 022235Z AUTO 00000KT 10SM CLR M06/M11 A3064 RMK AO2;EQDQ01+000000PRSWM2
0071726563999992000120223009+44333-093317NSRDB+032299999V020999999999999999999999999999+99999+99999999999ADDGP10060000002009000002021000002009GQ100600878923609GR100600030907869
0146726563999992000120503354+44320-093310FM-15+0322KFBL V0203101N010812200019N0160931N1-01301-01801999999ADDGF100991999999999999999999MA1102571999999MW1001OC101491REMMET060KFBL 050335Z AUTO 31021G29KT 10SM CLR M13/M18 A3029 RMK AO2;EQDQ01+000000PRSWM2
0135726563999992000120507354+44320-093310FM-15+0322KFBL V0203101N007712200019N0160931N1-01701-02201999999ADDGF100991999999999999999999MA1102811999999MW1001REMMET057KFBL 050735Z AUTO 31015KT 10SM CLR M17/M22 A3036 RMK AO2;EQDQ01+000000PRSWM2
0175726563999992000120609354+44320-093310FM-15+0322KFBL V0202101N004110150019N0160931N1-01401-01901999999ADDGD13991+0150019GD24991+0210019GF108991999999999999999999MA1102131999999MW1001REMMET067KFBL 060935Z AUTO 21008KT 10SM BKN050 OVC075 M14/M19 A3016 RMK AO2;EQDQ01+000000PRSWM2
0071726563999992000120719009+44333-093317NSRDB+032299999V020999999999999999999999999999+99999+99999999999ADDGP10060005902009000002021005902009GQ100600674918629GR100600543914109
0071726563999992000120919009+44333-093317NSRDB+032299999V020999999999999999999999999999+99999+99999999999ADDGP10060005902009000002021005902009GQ100600675918609GR100600539914119
0071726563999992000120922009+44333-093317NSRDB+032299999V020999999999999999999999999999+99999+99999999999ADDGP10060010902009028202021006802009GQ100600818922639GR100600202914119
0071726563999992000121022009+44333-093317NSRDB+032299999V020999999999999999999999999999+99999+99999999999ADDGP10060008702009021302021005602009GQ100600818922619GR100600202914119
0054726563999992000121213009+44333-093317NSRDB+032299999V020999999999999999999999999999+99999+99999999999ADDGP10060000002000000002000000002000GR100600000900009
0054726563999992000121602009+44333-093317NSRDB+032299999V020999999999999999999999999999+99999+99999999999ADDGP10060000002000000002000000002000GR100600000900009
0216726563999992000122601354+44320-093310FM-15+0322KFBL V0202101N003610180019N0048281N1-01201-01601999999ADDGD12991+0081019GD23991+0180019GD34991+0210019GF108991999999999999999999MA1103351999999MW1711REMMET077KFBL 260135Z AUTO 21007KT 3SM -SN SCT027 BKN060 OVC070 M12/M16 A3052 RMK AO2;EQDQ01+000003PRSWM1Q02    003PRSWM1
0153726563999992000122603354+44320-093310FM-15+0322KFBL V0202101N004610210019N0160931N1-01201-01501999999ADDGD14991+0210019GF108991999999999999999999MA1103251999999MW1001REMMET060KFBL 260335Z AUTO 21009KT 10SM OVC075 M12/M15 A3049 RMK AO2;EQDQ01+000000PRSWM2
0153726563999992000122714354+44320-093310FM-15+0322KFBL V0209999C000010180019N0160931N1-01401-01901999999ADDGD14991+0180019GF108991999999999999999999MA1102541999999MW1001REMMET060KFBL 271435Z AUTO 00000KT 10SM OVC060 M14/M19 A3028 RMK AO2;EQDQ01+000000PRSWM2
0054726563999992000122801009+44333-093317NSRDB+032299999V020999999999999999999999999999+99999+99999999999ADDGP10060000002000000002000000002000GR100600000900009
0153726563999992000122811354+44320-093310FM-15+0322KFBL V0201501N006210150019N0160931N1-01201-01701999999ADDGD14991+0150019GF108991999999999999999999MA1102031999999MW1001REMMET060KFBL 281135Z AUTO 15012KT 10SM OVC055 M12/M17 A3013 RMK AO2;EQDQ01+000000PRSWM2
0197726563999992000123001354+44320-093310FM-15+0322KFBL V0203301N004610150019N0160931N1-01201-01401999999ADDGD12991+0117019GD22991+0135019GD34991+0150019GF108991999999999999999999MA1102371999999MW1001REMMET074KFBL 300135Z AUTO 33009KT 10SM SCT039 SCT045 OVC050 M12/M14 A3023 RMK AO2;EQDQ01+000000PRSWM2
0153726563999992000123007354+44320-093310FM-15+0322KFBL V0203301N003110090019N0160931N1-01501-01701999999ADDGD14991+0090019GF108991999999999999999999MA1102341999999MW1001REMMET060KFBL 300735Z AUTO 33006KT 10SM OVC030 M15/M17 A3022 RMK AO2;EQDQ01+000000PRSWM2
0166726564999992000010101003+44580-092480FM-15+0239KRGK V0201901N001512200019N0160931N1+00301-00301999999ADDGF100991999999999999999999GP10060000002000000002000000002000GR100600000900009MA1100751999999MW1001REMMET056KRGK 010057Z AUTO 19003KT 10SM CLR 03/M03 A2975 RMK AO2;
0221726564999992000010715003+44580-092480FM-15+0239KRGK V0201201N002112200019N0160931N1-01801-02101999999ADDGD12991+0018019GF104991999999999999999999GP10060001302009000002021001302009GQ100600844912939GR100600138914159MA1102641999999MW1001REMMET060KRGK 071457Z AUTO 12004KT 10SM SCT006 M18/M21 A3031 RMK AO2;EQDQ01+000000PRSWM2
0185726564999992000011402003+44580-092480FM-15+0239KRGK V0202901N002112200019N0112651N1-01601-01801999999ADDGF100991999999999999999999GP10060000002000000002000000002000GR100600000900009MA1103931999999MW1001REMMET056KRGK 140155Z AUTO 29004KT 7SM CLR M16/M18 A3069 RMK AO2;EQDQ01+000000PRSWM2
0203726564999992000011409003+44580-092480FM-15+0239KRGK V0209999C000012200019N0112651N1-02101-02301999999ADDGD12991+0006019GF104991999999999999999999GP10060000002000000002000000002000GR100600000900009MA1103931999999MW1001REMMET059KRGK 140857Z AUTO 00000KT 7SM SCT002 M21/M23 A3069 RMK AO2;EQDQ01+000000PRSWM2
0191726564999992000011911003+44580-092480FM-15+0239KRGK V0209999C000012200019N0160931N1-01301-01601999999ADDGF100991999999999999999999GP10060000002000000002000000002000GR100600000900009MA1101521999999MW1001REMMET062KRGK 191055Z AUTO 00000KT 10SM CLR M13/M16 A2998 RMK AO2 TSNO;EQDQ01+000000PRSWM2
0208726564999992000012023003+44580-092480FM-15+0239KRGK V0202801N001512200019N0160931N1-01601-02101999999ADDGF100991999999999999999999GP10060003302009016002021002202009GQ100600858923639GR100600103914019MA1102101999999MW1001REMMET062KRGK 202256Z AUTO 28003KT 10SM CLR M16/M21 A3015 RMK AO2 TSNO;EQDQ01+000000PRSWM2
0226726564999992000012915003+44580-092480FM-15+0239KRGK V0209999C000012200019N0064371N1-01801-02101999999ADDGF100991999999999999999999GP10060005002009000002021005002009GQ100600819912539GR100600198914109MA1103391999999MW1051REMMET064KRGK 291457Z AUTO 00000KT 4SM HZ CLR M18/M21 A3053 RMK AO2 TSNO;EQDQ01+000003PRSWM1Q02    003PRSWM1
0208726564999992000012923003+44580-092480FM-15+0239KRGK V0200301N001512200019N0160931N1-00501-01201999999ADDGF100991999999999999999999GP10060004002009004502021003602009GQ100600839923749GR100600150914109MA1103051999999MW1001REMMET062KRGK 292256Z AUTO 03003KT 10SM CLR M05/M12 A3043 RMK AO2 TSNO;EQDQ01+000000PRSWM2
0220726564999992000020109003+44580-092480FM-15+0239KRGK V0203501N003610087019N0160931N1-00301-00901999999ADDGD14991+0087019GF108991999999999999999999GP10060000002000000002000000002000GR100600000900009MA1102131999999MW1001OC100721REMMET068KRGK 010856Z AUTO 35007G14KT 10SM OVC029 M03/M09 A3016 RMK AO2 TSNO;EQDQ01+000000PRSWM2
0186726564999992000020605003+44580-092480FM-15+0239KRGK V0201101N001512200019N0160931N1-00901-01201999999ADDGF100991999999999999999999GP10060000002000000002000000002000GR100600000900009MA1102611999999MW1001REMMET057KRGK 060456Z AUTO 11003KT 10SM CLR M09/M12 A3030 RMK AO2;EQDQ01+000000PRSWM2
0232726564999992000021023003+44580-092480FM-15+0239KRGK V0200101N004110087019N0160931N1-00301-00801999999ADDGD14991+0087019GF108991999999999999999999GP10060003002009000002021003002009GQ100600810923959GR100600220914059MA1101391999999MW1001OC100721REMMET063KRGK 102256Z AUTO 01008G14KT 10SM OVC029 M03/M08 A2994 RMK AO2;EQDQ01+000000PRSWM2
0201726564999992000022117003+44580-092480FM-15+0239KRGK V0201301N004112200019N0112651N1+00201-00301999999ADDGF100991999999999999999999GP10060050502009064002021019402009GQ100600610914779GR100600678913989MA1101631999999MW1001REMMET055KRGK 211658Z AUTO 13008KT 7SM CLR 02/M03 A3001 RMK AO2;EQDQ01+000000PRSWM2
0135726564999992000030301404+44580-092480FM-15+0239KRGK V0209999C000012200019N0160931N1-00201-00701999999ADDGF100991999999999999999999MA1102341999999MW1001REMMET057KRGK 030240Z AUTO 00000KT 10SM CLR M02/M07 A3022 RMK AO2;EQDQ01+000000PRSWM2
0243726564999992000031413003+44580-092480FM-15+0239KRGK V0209999C000010180019N0028161N1-00301-00601999999ADDGD14991+0180019GF108991999999999999999999GP10060000202009008902021000102009GQ100600872909579GR100600040908189MA1101661999999MW1441REMMET066KRGK 141255Z AUTO 00000KT 1 3/4SM FG OVC060 M03/M06 A3002 RMK AO2;EQDQ01+000003PRSWM1Q02    003PRSWM1
0202726564999992000032306003+44580-092480FM-15+0239KRGK V0209999C000012200019N0032181N1+00601+00401999999ADDGF100991999999999999999999GP10060000002000000002000000002000GR100600000900009MA1102541999999MW1441REMMET057KRGK 230556Z AUTO 00000KT 2SM FG CLR 06/04 A3028 RMK AO2;EQDQ01+000003PRSWM1Q02    003PRSWM1
0185726564999992000032710003+44580-092480FM-15+0239KRGK V0202801N002112200019N0160931N1+00001-00201999999ADDGF100991999999999999999999GP10060000002000000002000000002000GR100600000900009MA1099861999999MW1001REMMET056KRGK 271000Z AUTO 28004KT 10SM CLR 00/M02 A2949 RMK AO2;EQDQ01+000000PRSWM2
0242726564999992000041301003+44580-092480FM-15+0239KRGK V0201101N005710240019N0160931N1+00101-00101999999ADDGD12991+0036019GD23991+0240019GF107991999999999999999999GP10060000702008000002015000702008GQ100600860927919GR100600080911449MA1102681999999MW1001REMMET066KRGK 130057Z AUTO 11011KT 10SM SCT012 BKN085 01/M01 A3032 RMK AO2;EQDQ01+000000PRSWM2
0237726564999992000041820003+44580-092480FM-15+0239KRGK V0209999C000012200019N0048281N1+01201+00701999999ADDGD12991+0066019GF104991999999999999999999GP10060015902008000002015015902008GQ100600378921359GR100601070913559MA1101321999999MW1051REMMET060KRGK 182000Z AUTO 00000KT 3SM HZ SCT022 12/07 A2992 RMK AO2;EQDQ01+000003PRSWM1Q02    003PRSWM1
0213726564999992000042819003+44580-092480FM-15+0239KRGK V0203501N005712200019N0160931N1+01701-00101999999ADDGF100991999999999999999999GP10060083102008063002015028802008GQ100600307919079GR100601158913479MA1101521999999MW1001OC100821REMMET059KRGK 281900Z AUTO 35011G16KT 10SM CLR 17/M01 A2998 RMK AO2;EQDQ01+000000PRSWM2
0144726564999992000042904594+44580-092480FM-15+0239KRGK V0200401N004612200019N0160931N1+00501+00101999999ADDGF100991999999999999999999MA1102031999999MW1001OC100821REMMET058KRGK 290459Z AUTO 04009G16KT 10SM CLR 05/01 A3013 RMK AO2;EQDQ01+000000PRSWM2
0201726564999992000043000003+44580-092480FM-15+0239KRGK V0201501N002612200019N0160931N1+01701+00201999999ADDGF100991999999999999999999GP10060024602008059402015007302008GQ100600731927439GR100600392913479MA1102031999999MW1001REMMET055KRGK 292358Z AUTO 15005KT 10SM CLR 17/02 A3013 RMK AO2;EQDQ01+000000PRSWM2
0071726564999992000050812009+44583-092483NSRDB+023999999V020999999999999999999999999999+99999+99999999999ADDGP10060002902008000002015002902008GQ100600840907149GR100600139913419
0202726564999992000051108043+44580-092480FM-15+0239KRGK V0201201N003612200019N0160931N1+01401+00901999999ADDGD12991+0180019GF104991999999999999999999GP10060000002000000002000000002000GR100600000900009MA1100141999999MW1001REMMET058KRGK 110804Z AUTO 12007KT 10SM SCT060 14/09 A2957 RMK AO2;EQDQ01+000000PRSWM2
0185726564999992000051908003+44580-092480FM-15+0239KRGK V0201201N001512200019N0160931N1+00401-00401999999ADDGF100991999999999999999999GP10060000002000000002000000002000GR100600000900009MA1102171999999MW1001REMMET056KRGK 190757Z AUTO 12003KT 10SM CLR 04/M04 A3017 RMK AO2;EQDQ01+000000PRSWM2
0202726564999992000051920003+44580-092480FM-15+0239KRGK V0201901N002612200019N0160931N1+01501-00101999999ADDGF100991999999999999999999GP10060089402008087302015013902008GQ100600302922169GR100601152913349MA1102031999999MW1001REMMET056KRGK 191957Z AUTO 19005KT 10SM CLR 15/M01 A3013 RMK AO2;EQDQ01+000000PRSWM2
0201726564999992000052411003+44580-092480FM-15+0239KRGK V0209999C000012200019N0160931N1+01101+00901999999ADDGF100991999999999999999999GP10060000002008000002015000002008GQ100600883906159GR100600017905669MA1100071999999MW1001REMMET055KRGK 241100Z AUTO 00000KT 10SM CLR 11/09 A2955 RMK AO2;EQDQ01+000000PRSWM2
0184726564999992000060706043+44580-092480FM-15+0239KRGK V0201801N004112200019N0160931N1+01701+01101999999ADDGF100991999999999999999999GP10060000002000000002000000002000GR100600000900009MA1102001999999MW1001REMMET055KRGK 070604Z AUTO 18008KT 10SM CLR 17/11 A3012 RMK AO2;EQDQ01+000000PRSWM2
0201726564999992000061308023+44580-092480FM-15+0239KRGK V0201201N003610045019N0112651N1+01601+01301999999ADDGD14991+0045019GF108991999999999999999999GP10060000002000000002000000002000GR100600000900009MA1101121999999MW1001REMMET057KRGK 130802Z AUTO 12007KT 7SM OVC015 16/13 A2986 RMK AO2;EQDQ01+000000PRSWM2
0212726564999992000061310043+44580-092480FM-15+0239KRGK V0201301N005110033019N0112651N1+01601+01301999999ADDGD14991+0033019GF108991999999999999999999GP10060000002000000002000000002000GR100600000900009MA1100851999999MW1001OC100771REMMET060KRGK 131004Z AUTO 13010G15KT 7SM OVC011 16/13 A2978 RMK AO2;EQDQ01+000000PRSWM2
0219726564999992000061613003+44570-092470FM-15+0239KRGK V0202801N006210078019N0160931N1+01401+01101999999ADDGD13991+0078019GF107991999999999999999999GP10060017502008008302015014702008GQ100600705907609GR100600442913239MA1100101999999MW1001REMMET058KRGK 161257Z AUTO 28012KT 10SM BKN026 14/11 A2956 RMK AO2;EQDQ01+000000PRSWM2
0246726564999992000061807003+44570-092470FM-15+0239KRGK V0209999C000010240019N0160931N1+01401+01101999999ADDGD12991+0144019GD22991+0210019GD33991+0240019GF107991999999999999999999GP10060000002000000002000000002000GR100600000900009MA1101861999999MW1001REMMET072KRGK 180700Z AUTO 00000KT 10SM SCT048 SCT070 BKN080 14/11 A3008 RMK AO2;EQDQ01+000000PRSWM2
0184726564999992000062405003+44570-092470FM-15+0239KRGK V0201901N002612200019N0160931N1+02201+01701999999ADDGF100991999999999999999999GP10060000002000000002000000002000GR100600000900009MA1100751999999MW1001REMMET055KRGK 240500Z AUTO 19005KT 10SM CLR 22/17 A2975 RMK AO2;EQDQ01+000000PRSWM2
0201726564999992000062822033+44570-092470FM-15+0239KRGK V0202901N004112200019N0160931N1+02101+01201999999ADDGF100991999999999999999999GP10060064302008058802015022802008GQ100600452925849GR100600930913229MA1101291999999MW1001REMMET055KRGK 282203Z AUTO 29008KT 10SM CLR 21/12 A2991 RMK AO2;EQDQ01+000000PRSWM2
0201726564999992000070100013+44570-092470FM-15+0239KRGK V0202601N002612200019N0160931N1+02801+01101999999ADDGF100991999999999999999999GP10060033102008060902015008702008GQ100600664927989GR100600528913219MA1101121999999MW1001REMMET055KRGK 010001Z AUTO 26005KT 10SM CLR 28/11 A2986 RMK AO2;EQDQ01+000000PRSWM2
0071726564999992000070717009+44583-092483NSRDB+023999999V020999999999999999999999999999+99999+99999999999ADDGP10060056202008021102015038102008GQ100600309912759GR100601133913219
0201726564999992000071123003+44570-092470FM-15+0239KRGK V0201301N003612200019N0160931N1+02701+01901999999ADDGF100991999999999999999999GP10060023202008002402015021902008GQ100600562926849GR100600734913229MA1101351999999MW1001REMMET055KRGK 112257Z AUTO 13007KT 10SM CLR 27/19 A2993 RMK AO2;EQDQ01+000000PRSWM2
0184726564999992000071604033+44570-092470FM-15+0239KRGK V0209999C000012200019N0160931N1+01801+01601999999ADDGF100991999999999999999999GP10060000002000000002000000002000GR100600000900009MA1101151999999MW1001REMMET055KRGK 160403Z AUTO 00000KT 10SM CLR 18/16 A2987 RMK AO2;EQDQ01+000000PRSWM2
0239726564999992000071823003+44570-092470FM-15+0239KRGK V0209999C000010210019N0160931N1+01301+01001999999ADDGD14991+0210019GF108991999999999999999999GP10060011602008000002015011602008GQ100600568926729GR100600723913239MA1101961999999MW1611REMMET062KRGK 182256Z AUTO 00000KT 10SM -RA OVC070 13/10 A3011 RMK AO2;EQDQ01+000003PRSWM1Q02    003PRSWM1
0240726564999992000072613003+44570-092470FM-15+0239KRGK V0202901N001510180019N0112651N1+02001+01801999999ADDGD12991+0144019GD23991+0180019GF107991999999999999999999GP10060013202008007802015011102008GQ100600742907829GR100600361913249MA1101121999999MW1001REMMET064KRGK 261259Z AUTO 29003KT 7SM SCT048 BKN060 20/18 A2986 RMK AO2;EQDQ01+000000PRSWM2
0183726564999992000073004003+44570-092470FM-15+0239KRGK V0200301N003112200019N0112651N1+02201+01801999999ADDGF100991999999999999999999GP10060000002000000002000000002000GR100600000900009MA1101631999999MW1001REMMET054KRGK 300400Z AUTO 03006KT 7SM CLR 22/18 A3001 RMK AO2;EQDQ01+000000PRSWM2
0223726564999992000073113033+44570-092470FM-15+0239KRGK V0202701N001512200019N0056331N1+02001+01801999999ADDGF100991999999999999999999GP10060019002008033502015010302008GQ100600749907929GR100600344913269MA1101591999999MW1441REMMET061KRGK 311303Z AUTO 27003KT 3 1/2SM FG CLR 20/18 A3000 RMK AO2;EQDQ01+000003PRSWM1Q02    003PRSWM1
0071726564999992000080417009+44583-092483NSRDB+023999999V020999999999999999999999999999+99999+99999999999ADDGP10060078702008077802015015202008GQ100600355913299GR100601080913279
0201726564999992000081423013+44570-092470FM-15+0239KRGK V0201801N004112200019N0160931N1+03101+02401999999ADDGF100991999999999999999999GP10060034002008034502015017602008GQ100600617926169GR100600631913329MA1100881999999MW1001REMMET055KRGK 142301Z AUTO 18008KT 10SM CLR 31/24 A2979 RMK AO2;EQDQ01+000000PRSWM2
0071726564999992000082013009+44583-092483NSRDB+023999999V020999999999999999999999999999+99999+99999999999ADDGP10060008002008000702015007902008GQ100600784908419GR100600268913359
0252726564999992000082014003+44570-092470FM-15+0239KRGK V0201301N004610048019N0160931N1+01801+01401999999ADDGD13991+0048019GD23991+0066019GF107991999999999999999999GP10060017802008001902015017002008GQ100600678909479GR100600504913359MA1102341999999MW1001OC100771REMMET068KRGK 201358Z AUTO 13009G15KT 10SM BKN016 BKN022 18/14 A3022 RMK AO2;EQDQ01+000000PRSWM2
0218726564999992000082719033+44570-092470FM-15+0239KRGK V0201301N005110060019N0112651N1+02201+01801999999ADDGD13991+0060019GF107991999999999999999999GP10060047802008013202015037002008GQ100600352918809GR100601094913399MA1101321999999MW1001REMMET057KRGK 271903Z AUTO 13010KT 7SM BKN020 22/18 A2992 RMK AO2;EQDQ01+000000PRSWM2
0201726564999992000090501003+44570-092470FM-15+0239KRGK V0200901N002612200019N0160931N1+01601+00901999999ADDGF100991999999999999999999GP10060000602008004802015000402008GQ100600869927679GR100600047908639MA1102611999999MW1001REMMET055KRGK 050059Z AUTO 09005KT 10SM CLR 16/09 A3030 RMK AO2;EQDQ01+000000PRSWM2
0212726564999992000090820023+44570-092470FM-15+0239KRGK V0201201N005712200019N0160931N1+02501+01001999999ADDGF100991999999999999999999GP10060070802008077102015014602008GQ100600433921079GR100600980913479MA1101391999999MW1001OC100771REMMET058KRGK 082002Z AUTO 12011G15KT 10SM CLR 25/10 A2994 RMK AO2;EQDQ01+000000PRSWM2
0212726564999992000090922003+44570-092470FM-15+0239KRGK V0201801N006212200019N0160931N1+03101+01901999999ADDGF100991999999999999999999GP10060045702008067102015011502008GQ100600594924369GR100600685913489MA1100341999999MW1001OC101181REMMET058KRGK 092200Z AUTO 18012G23KT 10SM CLR 31/19 A2963 RMK AO2;EQDQ01+000000PRSWM2
0219726564999992000091918003+44570-092470FM-15+0239KRGK V0202701N004110063019N0160931N1+01901+01601999999ADDGD13991+0063019GF107991999999999999999999GP10060012802008000002015012802008GQ100600442916809GR100600972913559MA1099931999999MW1001REMMET058KRGK 191757Z AUTO 27008KT 10SM BKN021 19/16 A2951 RMK AO2;EQDQ01+000000PRSWM2
0252726564999992000092018003+44570-092470FM-15+0239KRGK V0202801N008710150019N0160931N1+01601+00401999999ADDGD13991+0150019GD23991+0150019GF107991999999999999999999GP10060041402008009002015034902008GQ100600446916829GR100600966913569MA1100271999999MW1001OC101441REMMET068KRGK 201800Z AUTO 28017G28KT 10SM BKN050 BKN055 16/04 A2961 RMK AO2;EQDQ01+000000PRSWM2
0184726564999992000092602013+44570-092470FM-15+0239KRGK V0209999C000012200019N0160931N1+00701+00401999999ADDGF100991999999999999999999GP10060000002000000002000000002000GR100600000900009MA1101801999999MW1001REMMET055KRGK 260201Z AUTO 00000KT 10SM CLR 07/04 A3006 RMK AO2;EQDQ01+000000PRSWM2
0202726564999992000100310003+44570-092470FM-15+0239KRGK V0209999C000012200019N0160931N1+00901+00401999999ADDGD12991+0240019GF104991999999999999999999GP10060000002000000002000000002000GR100600000900009MA1101321999999MW1001REMMET058KRGK 031000Z AUTO 00000KT 10SM SCT085 09/04 A2992 RMK AO2;EQDQ01+000000PRSWM2
0224726564999992000101306003+44570-092470FM-15+0239KRGK V0201001N002110300019N0160931N1+01801+01101999999ADDGD12991+0210019GD23991+0300019GF107991999999999999999999GP10060000002000000002000000002000GR100600000900009MA1101461999999MW1001REMMET065KRGK 130558Z AUTO 10004KT 10SM SCT075 BKN100 18/11 A2996 RMK AO2;EQDQ01+000000PRSWM2
0244726564999992000101706003+44570-092470FM-15+0239KRGK V0201101N002110180019N0160931N1+00901+00601999999ADDGD13991+0180019GD24991+0210019GF108991999999999999999999GP10060000002000000002000000002000GR100600000900009MA1102101999999MW1611REMMET069KRGK 170600Z AUTO 11004KT 10SM -RA BKN060 OVC070 09/06 A3015 RMK AO2;EQDQ01+000003PRSWM1Q02    003PRSWM1
0151726564999992000102801384+44570-092470FM-15+0239KRGK V0200701N003610081019N0160931N1+00801+00301999999ADDGD14991+0081019GF108991999999999999999999MA1102711999999MW1001REMMET058KRGK 280138Z AUTO 07007KT 10SM OVC027 08/03 A3033 RMK AO2;EQDQ01+000000PRSWM2
0151726564999992000102805354+44570-092470FM-15+0239KRGK V0200701N004110087019N0160931N1+00601+00101999999ADDGD14991+0087019GF108991999999999999999999MA1102841999999MW1001REMMET058KRGK 280535Z AUTO 07008KT 10SM OVC029 06/01 A3037 RMK AO2;EQDQ01+000000PRSWM2
0195726564999992000103102354+44570-092470FM-15+0239KRGK V0201101N002610147019N0160931N1+01301+00801999999ADDGD12991+0108019GD23991+0147019GD34991+0180019GF108991999999999999999999MA1101901999999MW1001REMMET072KRGK 310235Z AUTO 11005KT 10SM SCT036 BKN049 OVC060 13/08 A3009 RMK AO2;EQDQ01+000000PRSWM2
0054726564999992000110107009+44583-092483NSRDB+023999999V020999999999999999999999999999+99999+99999999999ADDGP10060000002000000002000000002000GR100600000900009
0054726564999992000110311009+44583-092483NSRDB+023999999V020999999999999999999999999999+99999+99999999999ADDGP10060000002000000002000000002000GR100600000900009
0071726564999992000110313009+44583-092483NSRDB+023999999V020999999999999999999999999999+99999+99999999999ADDGP10060000002009000002021000002009GQ100600895911189GR100600002901749
0206726564999992000110313384+44570-092470FM-15+0239KRGK V0202801N006710087019N0160931N1+00601+00101999999ADDGD13991+0087019GD23991+0108019GD34991+0150019GF108991999999999999999999MA1101931999999MW1001OC101131REMMET075KRGK 031338Z AUTO 28013G22KT 10SM BKN029 BKN036 OVC050 06/01 A3010 RMK AO2;EQDQ01+000000PRSWM2
0071726564999992000110314009+44583-092483NSRDB+023999999V020999999999999999999999999999+99999+99999999999ADDGP10060001402009000002021001402009GQ100600844911789GR100600137913919
0134726564999992000110404344+44570-092470FM-15+0239KRGK V0209999C000012200019N0160931N1+00201-00101999999ADDGF100991999999999999999999MA1102101999999MW1001REMMET056KRGK 040434Z AUTO 00000KT 10SM CLR 02/M01 A3015 RMK AO2;EQDQ01+000000PRSWM2
0054726564999992000110503009+44583-092483NSRDB+023999999V020999999999999999999999999999+99999+99999999999ADDGP10060000002000000002000000002000GR100600000900009
0054726564999992000110909009+44583-092483NSRDB+023999999V020999999999999999999999999999+99999+99999999999ADDGP10060000002000000002000000002000GR100600000900009
0153726564999992000110913344+44570-092470FM-15+0239KRGK V0203501N003110039019N0160931N1-00101-00301999999ADDGD14991+0039019GF108991999999999999999999MA1100911999999MW1001REMMET060KRGK 091334Z AUTO 35006KT 10SM OVC013 M01/M03 A2980 RMK AO2;EQDQ01+000000PRSWM2
0153726564999992000111723344+44570-092470FM-15+0239KRGK V0202601N004610060019N0160931N1-00601-00901999999ADDGD14991+0060019GF108991999999999999999999MA1102001999999MW1001REMMET060KRGK 172334Z AUTO 26009KT 10SM OVC020 M06/M09 A3012 RMK AO2;EQDQ01+000000PRSWM2
0194726564999992000111916344+44570-092470FM-15+0239KRGK V0209999C000010039019N0048281N1-00201-00201999999ADDGD13991+0039019GD24991+0054019GF108991999999999999999999MA1100411999999MW1711REMMET070KRGK 191634Z AUTO 00000KT 3SM -SN BKN013 OVC018 M02/M02 A2965 RMK AO2;EQDQ01+000003PRSWM1Q02    003PRSWM1
0071726564999992000112519009+44583-092483NSRDB+023999999V020999999999999999999999999999+99999+99999999999ADDGP10060030102009031102021017402009GQ100600660918849GR100600571914049
0171726564999992000112710354+44570-092470FM-15+0239KRGK V0202601N003110012019N0064371N1-00201-00301999999ADDGD14991+0012019GF108991999999999999999999MA1101081999999MW1101REMMET062KRGK 271035Z AUTO 26006KT 4SM BR OVC004 M02/M03 A2985 RMK AO2;EQDQ01+000003PRSWM1Q02    003PRSWM1
0135726564999992000120316354+44570-092470FM-15+0239KRGK V0201901N004612200019N0160931N1-00201-00801999999ADDGF100991999999999999999999MA1102981999999MW1001REMMET057KRGK 031635Z AUTO 19009KT 10SM CLR M02/M08 A3041 RMK AO2;EQDQ01+000000PRSWM2
0194726564999992000120621354+44570-092470FM-15+0239KRGK V0203201N002610084019N0048281N1-00701-01101999999ADDGD13991+0084019GD24991+0105019GF108991999999999999999999MA1101391999999MW1711REMMET070KRGK 062135Z AUTO 32005KT 3SM -SN BKN028 OVC035 M07/M11 A2994 RMK AO2;EQDQ01+000003PRSWM1Q02    003PRSWM1
0175726564999992000120623384+44570-092470FM-15+0239KRGK V0203601N001510081019N0160931N1-00801-01201999999ADDGD13991+0081019GD24991+0096019GF108991999999999999999999MA1101421999999MW1001REMMET067KRGK 062338Z AUTO 36003KT 10SM BKN027 OVC032 M08/M12 A2995 RMK AO2;EQDQ01+000000PRSWM2
0054726564999992000121310009+44583-092483NSRDB+023999999V020999999999999999999999999999+99999+99999999999ADDGP10060000002000000002000000002000GR100600000900009
0071726564999992000121914009+44583-092483NSRDB+023999999V020999999999999999999999999999+99999+99999999999ADDGP10060000002009000002021000002009GQ100600890912469GR100600006903659
0071726564999992000122023009+44583-092483NSRDB+023999999V020999999999999999999999999999+99999+99999999999ADDGP10060000002009000002021000002009GQ100600880923409GR100600025907199
0205726564999992000122112354+44570-092470FM-15+0239KRGK V0202801N006210180019N0112651N1-02001-02301999999ADDGD12991+0150019GD24991+0180019GF108991999999999999999999MA1101421999999MW1711OC100931REMMET073KRGK 211235Z AUTO 28012G18KT 7SM -SN SCT050 OVC060 M20/M23 A2995 RMK AO2;EQDQ01+000003PRSWM1Q02    003PRSWM1
0054726564999992000122709009+44583-092483NSRDB+023999999V020999999999999999999999999999+99999+99999999999ADDGP10060000002000000002000000002000GR100600000900009
0153726564999992000122718354+44570-092470FM-15+0239KRGK V0209999C000010132019N0160931N1-01301-01801999999ADDGD14991+0132019GF108991999999999999999999MA1102571999999MW1001REMMET060KRGK 271835Z AUTO 00000KT 10SM OVC044 M13/M18 A3029 RMK AO2;EQDQ01+000000PRSWM2
0071726564999992000122720009+44583-092483NSRDB+023999999V020999999999999999999999999999+99999+99999999999ADDGP10060010202009000002021010202009GQ100600703919919GR100600477914159
0183726564999992000122816354+44570-092470FM-15+0239KRGK V0201201N005710027019N0016091N1-01401-01601999999ADDGD14991+0027019GF108991999999999999999999MA1102241999999MW1711OC100821REMMET066KRGK 281635Z AUTO 12011G16KT 1SM -SN OVC009 M14/M16 A3019 RMK AO2;EQDQ01+000003PRSWM1Q02    003PRSWM1
0194726564999992000122911384+44570-092470FM-15+0239KRGK V0203301N001510078019N0048281N1-01101-01301999999ADDGD13991+0078019GD24991+0150019GF108991999999999999999999MA1102241999999MW1711REMMET070KRGK 291138Z AUTO 33003KT 3SM -SN BKN026 OVC050 M11/M13 A3019 RMK AO2;EQDQ01+000003PRSWM1Q02    003PRSWM1
0172726564999992000123019354+44570-092470FM-15+0239KRGK V0203101N002610027019N0112651N1-01001-01201999999ADDGD14991+0027019GF108991999999999999999999MA1102401999999MW1711REMMET063KRGK 301935Z AUTO 31005KT 7SM -SN OVC009 M10/M12 A3024 RMK AO2;EQDQ01+000003PRSWM1Q02    003PRSWM1
0054726564999992000123105009+44583-092483NSRDB+023999999V020999999999999999999999999999+99999+99999999999ADDGP10060000002000000002000000002000GR100600000900009
0054726564999992000123111009+44583-092483NSRDB+023999999V020999999999999999999999999999+99999+99999999999ADDGP10060000002000000002000000002000GR100600000900009
0279726565999992000011106003+45570-095970FM-15+0344KMOX V0203101N010810078019N0160931N1-00801-00901999999ADDGD12991+0039019GD22991+0054019GD34991+0078019GF108991999999999999999999GP10060000002000000002000000002000GR100600000900009MA1100471999999MW1711OC101291REMMET081KMOX 110557Z AUTO 31021G25KT 10SM -SN SCT013 SCT018 OVC026 M08/M09 A2967 RMK AO2;EQDQ01+000003PRSWM1Q02    003PRSWM1
0223726565999992000011108003+45570-095970FM-15+0344KMOX V0203001N008210054019N0112651N1-01101-01201999999ADDGD14991+0054019GF108991999999999999999999GP10060000002000000002000000002000GR100600000900009MA1100711999999MW1711REMMET063KMOX 110757Z AUTO 30016KT 7SM -SN OVC018 M11/M12 A2974 RMK AO2;EQDQ01+000003PRSWM1Q02    003PRSWM1
0134726565999992000011304204+45570-095970FM-15+0344KMOX V0202801N002112200019N0112651N1-01601-01701999999ADDGF100991999999999999999999MA1102471999999MW1001REMMET056KMOX 130420Z AUTO 28004KT 7SM CLR M16/M17 A3026 RMK AO2;EQDQ01+000000PRSWM2
0186726565999992000011707003+45570-095970FM-15+0344KMOX V0201201N010812200019N0160931N1-01101-01301999999ADDGF100991999999999999999999GP10060000002000000002000000002000GR100600000900009MA1102611999999MW1001REMMET057KMOX 170656Z AUTO 12021KT 10SM CLR M11/M13 A3030 RMK AO2;EQDQ01+000000PRSWM2
0197726565999992000011806003+45570-095970FM-15+0344KMOX V0203101N008712200019N0160931N1-00701-00801999999ADDGF100991999999999999999999GP10060000002000000002000000002000GR100600000900009MA1101931999999MW1001OC101081REMMET060KMOX 180558Z AUTO 31017G21KT 10SM CLR M07/M08 A3010 RMK AO2;EQDQ01+000000PRSWM2
0251726565999992000011920003+45570-095970FM-15+0344KMOX V0203201N01291000151CN0012071N1-01501-01701999999ADDGD15991+0001519GF109991999999000251999999GP10060007002009000002021007002009GQ100600672919419GR100600548914139MA1101901999999MW1451OC101491REMMET066KMOX 191957Z AUTO 32025G29KT 3/4SM FG VV005 M15/M17 A3009 RMK AO2;EQDQ01+000003PRSWM1Q02    003PRSWM1
0186726565999992000012604003+45570-095970FM-15+0344KMOX V0203001N002612200019N0160931N1-02101-02201999999ADDGF100991999999999999999999GP10060000002000000002000000002000GR100600000900009MA1102681999999MW1001REMMET057KMOX 260356Z AUTO 30005KT 10SM CLR M21/M22 A3032 RMK AO2;EQDQ01+000000PRSWM2
0203726565999992000012619003+45570-095970FM-15+0344KMOX V0201301N004112200019N0160931N1-01501-01701999999ADDGF100991999999999999999999GP10060010302009000002021010302009GQ100600644917839GR100600609914119MA1102681999999MW1001REMMET057KMOX 261857Z AUTO 13008KT 10SM CLR M15/M17 A3032 RMK AO2;EQDQ01+000000PRSWM2
0254726565999992000020420003+45570-095970FM-15+0344KMOX V0203101N007710039019N0160931N1-00901-01101999999ADDGD12991+0024019GD24991+0039019GF108991999999999999999999GP10060045702009084702021007102009GQ100600630919419GR100600638914089MA1103011999999MW1001OC101031REMMET070KMOX 041958Z AUTO 31015G20KT 10SM SCT008 OVC013 M09/M11 A3042 RMK AO2;EQDQ01+000000PRSWM2
0203726565999992000020600003+45570-095970FM-15+0344KMOX V0203301N002112200019N0160931N1-00601-00801999999ADDGF100991999999999999999999GP10060000102009000002021000102009GQ100600876924459GR100600034907869MA1102371999999MW1001REMMET057KMOX 052356Z AUTO 33004KT 10SM CLR M06/M08 A3023 RMK AO2;EQDQ01+000000PRSWM2
0186726565999992000020707003+45570-095970FM-15+0344KMOX V0203201N007712200019N0160931N1-00801-00901999999ADDGF100991999999999999999999GP10060000002000000002000000002000GR100600000900009MA1102271999999MW1001REMMET057KMOX 070656Z AUTO 32015KT 10SM CLR M08/M09 A3020 RMK AO2;EQDQ01+000000PRSWM2
0202726565999992000021600003+45570-095970FM-15+0344KMOX V0203101N008712200019N0112651N1-01201-01201999999ADDGF100991999999999999999999GP10060001702009013502021001102009GQ100600864924809GR100600072911339MA1101661999999MW1001REMMET056KMOX 152357Z AUTO 31017KT 7SM CLR M12/M12 A3002 RMK AO2;EQDQ01+000000PRSWM2
0204726565999992000021909003+45570-095970FM-15+0344KMOX V0201701N002612200019N0064371N1-01701-01701999999ADDGF100991999999999999999999GP10060000002000000002000000002000GR100600000900009MA1102131999999MW1441REMMET059KMOX 190857Z AUTO 17005KT 4SM FG CLR M17/M17 A3016 RMK AO2;EQDQ01+000003PRSWM1Q02    003PRSWM1
0225726565999992000022206003+45570-095970FM-15+0344KMOX V0200801N002610003019N0004021N1-00401-00401999999ADDGD14991+0003019GF108991999999999999999999GP10060000002000000002000000002000GR100600000900009MA1100951999999MW1441REMMET065KMOX 220557Z AUTO 08005KT M1/4SM FG OVC001 M04/M04 A2981 RMK AO2;EQDQ01+000003PRSWM1Q02    003PRSWM1
0185726565999992000022705003+45570-095970FM-15+0344KMOX V0202801N006712200019N0160931N1+00001-00101999999ADDGF100991999999999999999999GP10060000002000000002000000002000GR100600000900009MA1100911999999MW1001REMMET056KMOX 270459Z AUTO 28013KT 10SM CLR 00/M01 A2980 RMK AO2;EQDQ01+000000PRSWM2
0204726565999992000030108003+45570-095970FM-15+0344KMOX V0203101N007210120019N0160931N1-00101-00201999999ADDGD14991+0120019GF108991999999999999999999GP10060000002000000002000000002000GR100600000900009MA1101351999999MW1001REMMET060KMOX 010758Z AUTO 31014KT 10SM OVC040 M01/M02 A2993 RMK AO2;EQDQ01+000000PRSWM2
0186726565999992000030213003+45570-095970FM-15+0344KMOX V0201101N002112200019N0160931N1-00601-00601999999ADDGF100991999999999999999999GP10060000002000000002000000002000GR100600000900009MA1102611999999MW1001REMMET057KMOX 021259Z AUTO 11004KT 10SM CLR M06/M06 A3030 RMK AO2;EQDQ01+000000PRSWM2
0144726565999992000030620164+45570-095970FM-15+0344KMOX V0201201N009312200019N0160931N1+01801+01001999999ADDGF100991999999999999999999MA1100171999999MW1001OC101391REMMET058KMOX 062016Z AUTO 12018G27KT 10SM CLR 18/10 A2958 RMK AO2;EQDQ01+000000PRSWM2
0221726565999992000030915003+45570-095970FM-15+0344KMOX V0203601N007210072019N0160931N1-00801-01201999999ADDGD13991+0072019GF107991999999999999999999GP10060015802009005802021014102009GQ100600734911459GR100600395913869MA1101961999999MW1001REMMET060KMOX 091455Z AUTO 36014KT 10SM BKN024 M08/M12 A3011 RMK AO2;EQDQ01+000000PRSWM2
0226726565999992000031311003+45570-095970FM-15+0344KMOX V0201901N003610210019N0160931N1-00601-00701999999ADDGD12991+0126019GD24991+0210019GF108991999999999999999999GP10060000002000000002000000002000GR100600000900009MA1101901999999MW1001REMMET067KMOX 131055Z AUTO 19007KT 10SM SCT042 OVC070 M06/M07 A3009 RMK AO2;EQDQ01+000000PRSWM2
0247726565999992000032323003+45570-095970FM-15+0344KMOX V0201201N008710042019N0048281N1+01101+01001999999ADDGD13991+0042019GF107991999999999999999999GP10060008902008000002015008902008GQ100600684924859GR100600506913759MA1101351999999MW1441MW2611REMMET064KMOX 232256Z AUTO 12017KT 3SM -RA FG BKN014 11/10 A2993 RMK AO2;EQDQ01+000003PRSWM1Q02    003PRSWM1
0195726565999992000032507003+45570-095970FM-15+0344KMOX V0202701N007212200019N0160931N1+00201+00101999999ADDGF100991999999999999999999GP10060000002000000002000000002000GR100600000900009MA1101081999999MW1001OC101081REMMET058KMOX 250656Z AUTO 27014G21KT 10SM CLR 02/01 A2985 RMK AO2;EQDQ01+000000PRSWM2
0054726565999992000040209009+45567-095967NSRDB+034499999V020999999999999999999999999999+99999+99999999999ADDGP10060000002000000002000000002000GR100600000900009
0252726565999992000040601003+45570-095970FM-15+0344KMOX V0203001N017510138019N0160931N1+00701+00101999999ADDGD12991+0117019GD24991+0138019GF108991999999999999999999GP10060000802008000002015000802008GQ100600855927499GR100600101912859MA1099901999999MW1001OC102521REMMET068KMOX 060058Z AUTO 30034G49KT 10SM SCT039 OVC046 07/01 A2950 RMK AO2;EQDQ01+000000PRSWM2
0214726565999992000041910003+45570-095970FM-15+0344KMOX V0200601N011312200019N0160931N1+00601-00501999999ADDGD12991+0126019GF104991999999999999999999GP10060000002000000002000000002000GR100600000900009MA1101051999999MW1001OC101441REMMET062KMOX 190956Z AUTO 06022G28KT 10SM SCT042 06/M05 A2984 RMK AO2;EQDQ01+000000PRSWM2
0201726565999992000042215003+45570-095970FM-15+0344KMOX V0201701N003612200019N0160931N1+01401+00601999999ADDGF100991999999999999999999GP10060050502008076202015011202008GQ100600590910489GR100600696913529MA1100611999999MW1001REMMET055KMOX 221458Z AUTO 17007KT 10SM CLR 14/06 A2971 RMK AO2;EQDQ01+000000PRSWM2
0184726565999992000042403003+45570-095970FM-15+0344KMOX V0200701N003612200019N0160931N1+01201+00201999999ADDGF100991999999999999999999GP10060000002000000002000000002000GR100600000900009MA1101291999999MW1001REMMET055KMOX 240255Z AUTO 07007KT 10SM CLR 12/02 A2991 RMK AO2;EQDQ01+000000PRSWM2
0201726565999992000042414003+45570-095970FM-15+0344KMOX V0201201N004112200019N0160931N1+01101+00501999999ADDGF100991999999999999999999GP10060032902008063702015009902008GQ100600688909289GR100600488913509MA1101801999999MW1001REMMET055KMOX 241400Z AUTO 12008KT 10SM CLR 11/05 A3006 RMK AO2;EQDQ01+000000PRSWM2
0184726565999992000042603003+45570-095970FM-15+0344KMOX V0202701N002612200019N0160931N1+01201+00401999999ADDGF100991999999999999999999GP10060000002000000002000000002000GR100600000900009MA1101831999999MW1001REMMET055KMOX 260256Z AUTO 27005KT 10SM CLR 12/04 A3007 RMK AO2;EQDQ01+000000PRSWM2
0268726565999992000042705003+45570-095970FM-15+0344KMOX V0202101N003110270019N0056331N1+01101+01101999999ADDGD12991+0090019GD22991+0180019GD33991+0270019GF107991999999999999999999GP10060000002000000002000000002000GR100600000900009MA1101221999999MW1441REMMET078KMOX 270456Z AUTO 21006KT 3 1/2SM FG SCT030 SCT065 BKN090 11/11 A2989 RMK AO2;EQDQ01+000003PRSWM1Q02    003PRSWM1
0283726565999992000042721003+45570-095970FM-15+0344KMOX V0203401N009810240019N0160931N1+01601+00801999999ADDGD12991+0210019GD23991+0240019GF107991999999999999999999GP10060012202008000002015012202008GQ100600416923109GR100601008913489MA1101491999999MW1611OC101231REMMET083KMOX 272057Z AUTO 34019G24KT 10SM -RA SCT075 BKN080 16/08 A2997 RMK AO2 LTG DSNT S;EQDQ01+000003PRSWM1Q02    003PRSWM1
0212726565999992000050420003+45570-095970FM-15+0344KMOX V0201201N003612200019N0160931N1+02701+01101999999ADDGF100991999999999999999999GP10060086802008086802015013802008GQ100600329921179GR100601127913439MA1100751999999MW1001OC100821REMMET058KMOX 042000Z AUTO 12007G16KT 10SM CLR 27/11 A2975 RMK AO2;EQDQ01+000000PRSWM2
0201726565999992000050601003+45570-095970FM-15+0344KMOX V0201701N008712200019N0160931N1+02701+01101999999ADDGF100991999999999999999999GP10060012002008041102015004702008GQ100600798928349GR100600238913429MA1100371999999MW1001REMMET055KMOX 060059Z AUTO 17017KT 10SM CLR 27/11 A2964 RMK AO2;EQDQ01+000000PRSWM2
0248726565999992000050820013+45570-095970FM-15+0344KMOX V0203301N009810108019N0080461N1+01501+01101999999ADDGD13991+0108019GF107991999999999999999999GP10060041902008004202015038302008GQ100600319921269GR100601138913419MA1100641999999MW1051OC101231REMMET063KMOX 082001Z AUTO 33019G24KT 5SM HZ BKN036 15/11 A2972 RMK AO2;EQDQ01+000003PRSWM1Q02    003PRSWM1
