0208725208999992000081823534+40610-083060FM-15+0303KMNN V0203601N002112200019N0160931N1+02001+01501101851ADDGF100991999999999999999999KA1999M+02171KA2999N+02001MA1101901999999MD1110031+9999MW1001REMMET090KMNN 182353Z AUTO 36004KT 10SM CLR 20/15 A3009 RMK AO2 SLP185 T02000150 10217 20200 51003;EQDQ01+000000PRSWM2
0054725208999992000081908009+40617-083067NSRDB+030399999V020999999999999999999999999999+99999+99999999999ADDGP10060000002000000002000000002000GR100600000900009
0071725208999992000081916009+40617-083067NSRDB+030399999V020999999999999999999999999999+99999+99999999999ADDGP10060038802008007302015033202008GQ100600394912689GR100601030913349
0054725208999992000082303009+40617-083067NSRDB+030399999V020999999999999999999999999999+99999+99999999999ADDGP10060000002000000002000000002000GR100600000900009
0054725208999992000082605009+40617-083067NSRDB+030399999V020999999999999999999999999999+99999+99999999999ADDGP10060000002000000002000000002000GR100600000900009
0054725208999992000083009009+40617-083067NSRDB+030399999V020999999999999999999999999999+99999+99999999999ADDGP10060000002000000002000000002000GR100600000900009
0226725208999992000090117534+40610-083060FM-15+0303KMNN V0200601N003112200019N0160931N1+02901+02201101661ADDGD12991+0096019GF104991999999999999999999KA1999M+02941KA2999N+02001MA1101731999999MD1610091+9999MW1001REMMET093KMNN 011753Z AUTO 06006KT 10SM SCT032 29/22 A3004 RMK AO2 SLP166 T02940217 10294 20200 56009;EQDQ01+000000PRSWM2
0054725208999992000090206009+40617-083067NSRDB+030399999V020999999999999999999999999999+99999+99999999999ADDGP10060000002000000002000000002000GR100600000900009
0071725208999992000090316009+40617-083067NSRDB+030399999V020999999999999999999999999999+99999+99999999999ADDGP10060046402008013302015036702008GQ100600430913289GR100600981913449
0054725208999992000090409009+40617-083067NSRDB+030399999V020999999999999999999999999999+99999+99999999999ADDGP10060000002000000002000000002000GR100600000900009
0071725208999992000090523009+40617-083067NSRDB+030399999V020999999999999999999999999999+99999+99999999999ADDGP10060020002008045902015007602008GQ100600743926499GR100600364913459
0178725208999992000090620534+40610-083060FM-15+0303KMNN V0201301N004112200019N0160931N1+02401+01201102481ADDGF100991999999999999999999MA1102471999999MD1810151+9999MW1001REMMET086KMNN 062053Z AUTO 13008KT 100V170 10SM CLR 24/12 A3026 RMK AO2 SLP248 T02390122 58015;EQDQ01+000000PRSWM2
0168725208999992000090903534+40610-083060FM-15+0303KMNN V0202001N002112200019N0064371N1+01901+01801101871ADDGF100991999999999999999999MA1101931999999MW1101REMMET074KMNN 090353Z AUTO 20004KT 4SM BR CLR 19/18 A3010 RMK AO2 SLP187 T01940183;EQDQ01+000003PRSWM1Q02    003PRSWM1
0054725208999992000091005009+40617-083067NSRDB+030399999V020999999999999999999999999999+99999+99999999999ADDGP10060000002000000002000000002000GR100600000900009
0071725208999992000091316009+40617-083067NSRDB+030399999V020999999999999999999999999999+99999+99999999999ADDGP10060066002008069602015017302008GQ100600457913689GR100600942913519
0168725208999992000091409534+40610-083060FM-15+0303KMNN V0209999C000012200019N0096561N1+01201+01101101451ADDGF100991999999999999999999MA1101491999999MW1101REMMET074KMNN 140953Z AUTO 00000KT 6SM BR CLR 12/11 A2997 RMK AO2 SLP145 T01170106;EQDQ01+000003PRSWM1Q02    003PRSWM1
0071725208999992000091419009+40617-083067NSRDB+030399999V020999999999999999999999999999+99999+99999999999ADDGP10060030002008001802015028702008GQ100600402920459GR100601031913519
0168725208999992000092115534+40610-083060FM-15+0303KMNN V0202601N005712200019N0160931N1+01501+00601101651ADDGD12991+0108019GF104991999999999999999999MA1101661999999MW1001REMMET075KMNN 211553Z AUTO 26011KT 10SM SCT036 15/06 A3002 RMK AO2 SLP165 T01500056;EQDQ01+000000PRSWM2
0071725208999992000092220009+40617-083067NSRDB+030399999V020999999999999999999999999999+99999+99999999999ADDGP10060058402008055902015022202008GQ100600497922299GR100600878913579
0071725208999992000092517009+40617-083067NSRDB+030399999V020999999999999999999999999999+99999+99999999999ADDGP10060011702008000002015011702008GQ100600437916049GR100600983913609
0054725208999992000092604009+40617-083067NSRDB+030399999V020999999999999999999999999999+99999+99999999999ADDGP10060000002000000002000000002000GR100600000900009
0172725208999992000093012534+40610-083060FM-15+0303KMNN V0201701N003612200019N0040231N1+00901+00801102381ADDGF100991999999999999999999MA1102341999999MW1101REMMET078KMNN 301253Z AUTO 17007KT 2 1/2SM BR CLR 09/08 A3022 RMK AO2 SLP238 T00940083;EQDQ01+000003PRSWM1Q02    003PRSWM1
0186725208999992000100112534+40610-083060FM-15+0303KMNN V0201601N003610150019N0080461N1+01301+01101101941ADDGD13991+0150019GF107991999999999999999999MA1101931999999MW1051REMMET077KMNN 011253Z AUTO 16007KT 5SM HZ BKN055 13/11 A3010 RMK AO2 SLP194 T01330106;EQDQ01+000003PRSWM1Q02    003PRSWM1
0054725208999992000100202009+40617-083067NSRDB+030399999V020999999999999999999999999999+99999+99999999999ADDGP10060000002000000002000000002000GR100600000900009
0071725208999992000100520009+40617-083067NSRDB+030399999V020999999999999999999999999999+99999+99999999999ADDGP10060009702008000002015009702008GQ100600546922089GR100600793913689
0170725208999992000101214534+40610-083060FM-15+0303KMNN V0209999C000012200019N0160931N1+01301+00201103071ADDGF100991999999999999999999MA1103051999999MD1110061+9999MW1001REMMET078KMNN 121453Z AUTO 00000KT 10SM CLR 13/02 A3043 RMK AO2 SLP307 T01330022 51006;EQDQ01+000000PRSWM2
0208725208999992000102322534+40610-083060FM-15+0303KMNN V0209999C000010135019N0096561N1+02101+01501103081ADDGD13991+0135019GD24991+0180019GF108991999999999999999999MA1103081999999MW1051REMMET084KMNN 232253Z AUTO 00000KT 6SM HZ BKN045 OVC060 21/15 A3044 RMK AO2 SLP308 T02060150;EQDQ01+000003PRSWM1Q02    003PRSWM1
0167725208999992000102619534+40610-083060FM-15+0303KMNN V0201901N005112200019N0112651N1+02301+01501101931ADDGD12991+0123019GF104991999999999999999999MA1101961999999MW1001REMMET074KMNN 261953Z AUTO 19010KT 7SM SCT041 23/15 A3011 RMK AO2 SLP193 T02330150;EQDQ01+000000PRSWM2
0071725208999992000102923009+40617-083067NSRDB+030399999V020999999999999999999999999999+99999+99999999999ADDGP10060000002009000002021000002009GQ100600875924979GR100600030907059
0150725208999992000103006534+40610-083060FM-15+0303KMNN V0200201N002612200019N0160931N1+00301+00001102721ADDGF100991999999999999999999MA1102681999999MW1001REMMET072KMNN 300653Z AUTO 02005KT 10SM CLR 03/00 A3032 RMK AO2 SLP272 T00330000;EQDQ01+000000PRSWM2
0150725208999992000110222534+40610-083060FM-15+0303KMNN V0201601N004612200019N0160931N1+01701+00301101971ADDGF100991999999999999999999MA1101961999999MW1001REMMET072KMNN 022253Z AUTO 16009KT 10SM CLR 17/03 A3011 RMK AO2 SLP197 T01720033;EQDQ01+000000PRSWM2
0224725208999992000110405534+40610-083060FM-15+0303KMNN V0203001N003112200019N0160931N1+00901+00201102081ADDGF100991999999999999999999KA1999M+01331KA2999N+00831MA1102071999999MD1410001+9999MW1001REMMET090KMNN 040553Z AUTO 30006KT 10SM CLR 09/02 A3014 RMK AO2 SLP208 T00890017 10133 20083 57000;EQDQ01+000072APCTENQ02+000000PRSWM2
0054725208999992000110601009+40617-083067NSRDB+030399999V020999999999999999999999999999+99999+99999999999ADDGP10060000002000000002000000002000GR100600000900009
0151725208999992000110610534+40610-083060FM-15+0303KMNN V0201101N004112200019N0160931N1+00201-00101101861ADDGF100991999999999999999999MA1101801999999MW1001REMMET073KMNN 061053Z AUTO 11008KT 10SM CLR 02/M01 A3006 RMK AO2 SLP186 T00221011;EQDQ01+000000PRSWM2
0228725208999992000110906534+40610-083060FM-15+0303KMNN V0201801N00361000901CN0040231N1+01701+01601100861ADDAA101000021GD14991+0012019GF108991999999999999999999MA1100881999999MW1101REMMET108KMNN 090653Z AUTO 18007KT 2 1/2SM BR OVC004 17/16 A2979 RMK AO2 RAB31E49 CIG 003V008 SLP086 P0000 T01670161;EQDQ01+000003PRSWM1Q02    003PRSWM1
0208725208999992000111211534+40610-083060FM-15+0303KMNN V0209999C000012200019N0160931N1+00201+00001102051ADDGF100991999999999999999999KA1999M+00611KA2999N+00061MA1101961999999MD1510041+9999MW1001REMMET090KMNN 121153Z AUTO 00000KT 10SM CLR 02/00 A3011 RMK AO2 SLP205 T00170000 10061 20006 55004;EQDQ01+000000PRSWM2
0054725208999992000111512009+40617-083067NSRDB+030399999V020999999999999999999999999999+99999+99999999999ADDGP10060000002000000002000000002000GR100600000900009
0054725208999992000111612009+40617-083067NSRDB+030399999V020999999999999999999999999999+99999+99999999999ADDGP10060000002000000002000000002000GR100600000900009
0190725208999992000111808534+40610-083060FM-15+0303KMNN V0202601N004610114019N0160931N1-00201-00801102441ADDGD14991+0114019GF108991999999999999999999MA1102301999999MD1110121+9999MW1001REMMET083KMNN 180853Z AUTO 26009KT 10SM OVC038 M02/M08 A3021 RMK AO2 SLP244 T10221083 51012;EQDQ01+000000PRSWM2
0054725208999992000112006009+40617-083067NSRDB+030399999V020999999999999999999999999999+99999+99999999999ADDGP10060000002000000002000000002000GR100600000900009
0054725208999992000112104009+40617-083067NSRDB+030399999V020999999999999999999999999999+99999+99999999999ADDGP10060000002000000002000000002000GR100600000900009
0210725208999992000112211534+40610-083060FM-15+0303KMNN V0202401N004612200019N0160931N1-01001-01401102461ADDGF100991999999999999999999KA1999M-00891KA2999N-01001MA1102271999999MD1810061+9999MW1001REMMET092KMNN 221153Z AUTO 24009KT 10SM CLR M10/M14 A3020 RMK AO2 SLP246 T11001139 11089 21100 58006;EQDQ01+000000PRSWM2
0054725208999992000112303009+40617-083067NSRDB+030399999V020999999999999999999999999999+99999+99999999999ADDGP10060000002000000002000000002000GR100600000900009
0071725208999992000112920009+40617-083067NSRDB+030399999V020999999999999999999999999999+99999+99999999999ADDGP10060006002009000002021006002009GQ100600692921209GR100600500914069
0211725208999992000120800534+40610-083060FM-15+0303KMNN V0201701N005110135019N0096561N1-00201-00401101041ADDAA101000021GD14991+0135019GF108991999999999999999999MA1100881999999MW1101REMMET091KMNN 080053Z AUTO 17010KT 6SM BR OVC045 M02/M04 A2979 RMK AO2 SNE50 SLP104 P0000 T10221039;EQDQ01+000003PRSWM1Q02    003PRSWM1
0054725208999992000120802009+40617-083067NSRDB+030399999V020999999999999999999999999999+99999+99999999999ADDGP10060000002000000002000000002000GR100600000900009
0054725208999992000120808009+40617-083067NSRDB+030399999V020999999999999999999999999999+99999+99999999999ADDGP10060000002000000002000000002000GR100600000900009
0071725208999992000120817009+40617-083067NSRDB+030399999V020999999999999999999999999999+99999+99999999999ADDGP10060006202009000002021006202009GQ100600647916629GR100600602914109
0071725208999992000121016009+40617-083067NSRDB+030399999V020999999999999999999999999999+99999+99999999999ADDGP10060005302009000002021005302009GQ100600691915179GR100600504914119
0213725208999992000121103424+40610-083060FM-15+0303KMNN V0209999C000010081019N0016091N1+00101+00101999999ADDGD12991+0054019GD23991+0081019GD34991+0105019GF108991999999999999999999MA1102101999999MW1101REMMET074KMNN 110342Z AUTO 00000KT 1SM BR SCT018 BKN027 OVC035 01/01 A3015 RMK AO2;EQDQ01+000003PRSWM1Q02    003PRSWM1
0207725208999992000121110334+40610-083060FM-15+0303KMNN V0200801N00211000601CN0028161N1+00101+00001999999ADDGD13991+0015019GD24991+0048019GF108991999999999999999999MA1101861999999MW1101REMMET083KMNN 111033Z AUTO 08004KT 1 3/4SM BR BKN005 OVC016 01/00 A3008 RMK AO2 CIG 002V006;EQDQ01+000003PRSWM1Q02    003PRSWM1
0238725208999992000121605534+40610-083060FM-15+0303KMNN V0201501N007710180019N0160931N1+00201-00101101881ADDGD14991+0180019GF108991999999999999999999KA1999M+00221KA2999N-00111MA1101761999999MD1610361+9999MW1001OC101031REMMET097KMNN 160553Z AUTO 15015G20KT 10SM OVC060 02/M01 A3005 RMK AO2 SLP188 T00221006 10022 21011 56036;EQDQ01+000000PRSWM2
0153725208999992000121812404+40610-083060FM-15+0303KMNN V0202201N004112200019N0160931N1-01401-01801999999ADDGD12991+0045019GF104991999999999999999999MA1102101999999MW1001REMMET060KMNN 181240Z AUTO 22008KT 10SM SCT015 M14/M18 A3015 RMK AO2;EQDQ01+000000PRSWM2
0242725208999992000122006334+40610-083060FM-15+0303KMNN V0202501N004110045019N0032181N1-01001-01201999999ADDAA101000021GD13991+0045019GD23991+0087019GD34991+0108019GF108991999999999999999999MA1101591999999MW1101MW2711REMMET086KMNN 200633Z AUTO 25008KT 2SM -SN BR BKN015 BKN029 OVC036 M10/M12 A3000 RMK AO2 P0000;EQDQ01+000003PRSWM1Q02    003PRSWM1
0170725208999992000122110534+40610-083060FM-15+0303KMNN V0201701N006210210019N0160931N1-00701-01201101661ADDGD14991+0210019GF108991999999999999999999MA1101491999999MW1001REMMET077KMNN 211053Z AUTO 17012KT 10SM OVC070 M07/M12 A2997 RMK AO2 SLP166 T10671117;EQDQ01+000000PRSWM2
0259725208999992000122113534+40610-083060FM-15+0303KMNN V0201901N006710105019N0032181N1-00601-00801101641ADDAA101000021GD12991+0048019GD23991+0105019GD34991+0150019GF108991999999999999999999MA1101491999999MW1101MW2711REMMET103KMNN 211353Z AUTO 19013KT 2SM -SN BR FEW016 BKN035 OVC055 M06/M08 A2997 RMK AO2 SLP164 P0000 T10611083;EQDQ01+000003PRSWM1Q02    003PRSWM1
0071725208999992000122422009+40617-083067NSRDB+030399999V020999999999999999999999999999+99999+99999999999ADDGP10060005602009019902021003702009GQ100600844923259GR100600138914149
0071725208999992000122919009+40617-083067NSRDB+030399999V020999999999999999999999999999+99999+99999999999ADDGP10060011602009000002021011602009GQ100600652919409GR100600594914159
0170725208999992000123106534+40610-083060FM-15+0303KMNN V0203101N005710033019N0160931N1-00701-00801101671ADDGD14991+0033019GF108991999999999999999999MA1101491999999MW1001REMMET077KMNN 310653Z AUTO 31011KT 10SM OVC011 M07/M08 A2997 RMK AO2 SLP167 T10671078;EQDQ01+000000PRSWM2
0190725210148952000010314144+40920-081430FM-16+0377KCAK V0201401N001510012019N0040231N1+01001+00901999999ADDGD14991+0012019GF108991999999999999999999MA1101521999999MW1101REMMET081KCAK 031414Z 14003KT 2 1/2SM BR OVC004 10/09 A2998 RMK AO2 SFC VIS 3 RAE10 P0000;EQDQ01+000003PRSWM1Q02    003PRSWM1
030972521014895200001060951C+40917-081433FM-15+0368CAK  V0201605N00415220005MN0160005N1-00395-00615102755ADDAA101000095GF100991999999999999999999MA1102575999999MW1001REMMET069KCAK 060951Z 16008KT 10SM CLR M04/M06 A3029 RMK AO2 SLP275 T10391061;EQDQ01+000000PRSWM2N01 00000JPWTH 0QNNAA1D0 00000BA1 0 00000GA1U0 99999KA1D0 00021JA1 0-00061LA1 0 01000CA1 0 03029NA1 0 00000QA1 0 10275SA1D0 00025RA1 0-00039YA1 0 16008
0071725210148952000010616009+40917-081433NSRDB+036899999V020999999999999999999999999999+99999+99999999999ADDGP10060015202009001902021014602009GQ100600695915029GR100600496914159
0492725210148952000010712003+40917-081433SY-MT+0368CAK  V0202705N00575030485MN0160005N1+00175-00175102245ADDAA101000095AA206000091GD12995+0079259GD24995+0304859GF108991999051008001021999GP10060000002000000002000000002000GR100600000900009KA1999M+00441KA2120N+00111MA1102135097651MD1310021+9999REMSYN104AAXX  07124 72521 32566 82711 10017 21017 39765 40224 53002 8/52/ 91151 333 10044 20011 91017 555 90712;EQDQ01  00002PRCP06N01 00000JPWTH 0QNNAA1D0 02026BA1 0 02026AA1D0 06100BA1 0 06100GA1 0 00100KA1D0 00029JA1 0-00017LA1 0 01000CA1 0 03016NA1 0 00000QA1 0 10224SA1D0 00035RA1 0 00017YA1 0 27011
0278725210148952000011109514+40920-081430FM-15+0377KCAK V0202501N010810099019N0144841N1+00401+00201099911ADDAA101000391GD12991+0063019GD23991+0099019GD34991+0132019GF108991999999999999999999MA1099861999999MW1611OC101541REMMET120KCAK 110951Z 25021G30KT 9SM -RA SCT021 BKN033 OVC044 04/02 A2949 RMK AO2 PK WND 25035/0941 RAB36 SLP991 P0001 T00440017;EQDQ01+000003PRSWM1Q02    003PRSWM1
0251725210148952000011205514+40920-081430FM-15+0377KCAK V0202601N006212200019N0160931N1-00101-00401102041ADDGD12991+0069019GD22991+0105019GF104991999999999999999999KA1999M+00111KA2999N-00111MA1101931999999MD1110231+9999MW1001REMMET103KCAK 120551Z 26012KT 10SM FEW023 SCT035 M01/M04 A3010 RMK AO2 SLP204 8/500 T10111039 10011 21011 51023;EQDQ01+000000PRSWM2
0054725210148952000011403009+40917-081433NSRDB+036899999V020999999999999999999999999999+99999+99999999999ADDGP10060000002000000002000000002000GR100600000900009
0071725210148952000011517009+40917-081433NSRDB+036899999V020999999999999999999999999999+99999+99999999999ADDGP10060043302009064302021014902009GQ100600640916319GR100600620914149
0054725210148952000011607009+40917-081433NSRDB+036899999V020999999999999999999999999999+99999+99999999999ADDGP10060000002000000002000000002000GR100600000900009
0054725210148952000011610009+40917-081433NSRDB+036899999V020999999999999999999999999999+99999+99999999999ADDGP10060000002000000002000000002000GR100600000900009
036972521014895200001161351C+40917-081433FM-15+0368CAK  V0202705N00885076205MN0160005N1+00395+00005101995ADDAA101000095GD12995+0518259GD24995+0762059GF108991999999999999999999MA1101905999999MW1001REMMET077KCAK 161351Z 27017KT 10SM SCT170 OVC250 04/00 A3009 RMK AO2 SLP199 T00390000;EQDQ01+000000PRSWM2N01 00000JPWTH 0QNNAA1D0 02170BA1 0 02170AA1D0 06250BA1 0 06250GA1 0 00250KA1D0 00032JA1 0 00000LA1 0 01000CA1 0 03009NA1 0 00000QA1 0 10199SA1D0 00039RA1 0 00039YA1 0 27017
0240725210148952000012012134+40920-081430FM-16+0377KCAK V0203201N003110096019N0040231N1-00601-00701999999ADDGD12991+0078019GD23991+0096019GD34991+0135019GF108991999999999999999999MA1100141999999MW1711REMMET085KCAK 201213Z 32006KT 2 1/2SM -SN BR SCT026 BKN032 OVC045 M06/M07 A2957 RMK AO2 P0000;EQDQ01+000100PRSWM3Q02+000003PRSWM1Q03    003PRSWM1
045972521014895200001201351C+40917-081433FM-15+0368CAK  V0203105N00465004275MN0032005N1-00565-00615100445ADDAA101000025GD13995+0042759GD23995+0073259GD34995+0100659GF108991999999999999999999MA1100275999999MW1101MW2455MW3715REMMET102KCAK 201351Z COR 31009KT 2SM -SN BR BKN014 BKN024 OVC033 M06/M06 A2961 RMK AO2 SLP044 P0000 T10561061;EQDQ01+000003PRSWM1Q02    003PRSWM1N01 04070JPWTH 0QNNAA1D0 04014BA1 0 04014AA1D0 04024BA1 0 04024AA1D0 06033BA1 0 06033GA1 0 00014KA1D0 00021JA1 0-00061LA1 0 00200CA1 0 02961NA1 0 04070QA1 0 10044SA1D0 00022RA1 0-00056YA1 0 31009
0227725210148952000012106084+40920-081430FM-16+0377KCAK V0202501N004110075019N0048281N1-01301-01601999999ADDGD13991+0075019GD23991+0096019GD34991+0123019GF108991999999999999999999MA1101391999999MW1711REMMET088KCAK 210608Z 25008KT 3SM -SN BKN025 BKN032 OVC041 M13/M16 A2994 RMK AO2 SNB0553 P0000 $;EQDQ01+000003PRSWM1Q02    003PRSWM1
042172521014895200001221451C+40917-081433FM-15+0368CAK  V0201505N00155220005MN0080005N1-01615-01785102405ADDAA101000095GD11995+0426759GD22995+0670659GF104991999999999999999999MA1102105999999MD1310021+9999MW1101MW2455REMMET093KCAK 221451Z 15003KT 5SM BR FEW140 SCT220 M16/M18 A3015 RMK AO2 SLP240 8/075 T11611178 53002;EQDQ01+000003PRSWM1Q02    003PRSWM1N01 00070JPWTH 0QNNAA1D0 02140BA1 0 01140AA1D0 02220BA1 0 02220GA1U0 99999KA1D0 00000JA1 0-00178LA1 0 00500CA1 0 03015NA1 0 00070QA1 0 10240SA1D0 00003RA1 0-00161YA1 0 15003
037172521014895200001230151C+40917-081433FM-15+0368CAK  V0201405N00525004575MN0028005N1-00945-01115101965ADDAA101000025GD14995+0045759GF108991999999999999999999MA1101695999999MW1101MW2455MW3715REMMET088KCAK 230151Z 14010KT 1 3/4SM -SN BR OVC015 M09/M11 A3003 RMK AO2 SLP196 P0000 T10941111;EQDQ01+000003PRSWM1Q02    003PRSWM1N01 04070JPWTH 0QNNAA1D0 06015BA1 0 06015GA1 0 00015KA1D0 00012JA1 0-00111LA1 0 00175CA1 0 03003NA1 0 04070QA1 0 10196SA1D0 00015RA1 0-00094YA1 0 14010
0147725210148952000012309354+40920-081430FM-16+0377KCAK V0201501N003610027019N0144841N1-00801-00901999999ADDGD14991+0027019GF108991999999999999999999MA1101391999999MW1001REMMET054KCAK 230935Z 15007KT 9SM OVC009 M08/M09 A2994 RMK AO2;EQDQ01+000000PRSWM2
0071725210148952000012321009+40917-081433NSRDB+036899999V020999999999999999999999999999+99999+99999999999ADDGP10060026702009064602021007202009GQ100600724922259GR100600425914129
046072521014895200001260851C+40917-081433FM-15+0368CAK  V0203105N00625003665MN0040005N1-00825-00965101185ADDAA101000025AA203000021GD13995+0036659GD24995+0112859GF108991999999999999999999MA1100985999999MD1310141+9999MW1101MW2455MW3715REMMET115KCAK 260851Z 31012KT 2 1/2SM -SN BR BKN012 OVC037 M08/M10 A2982 RMK AO2 SLP118 8/5// P0000 60000 T10821096 53014 $;EQDQ01+000003PRSWM1Q02    003PRSWM1N01 04070JPWTH 0QNNAA1D0 04012BA1 0 04012AA1D0 06037BA1 0 06037GA1 0 00012KA1D0 00015JA1 0-00096LA1 0 00250CA1 0 02982NA1 0 04070QA1 0 10118SA1D0 00017RA1 0-00082YA1 0 31012
0071725210148952000012621009+40917-081433NSRDB+036899999V020999999999999999999999999999+99999+99999999999ADDGP10060017402009011602021013702009GQ100600717922279GR100600442914119
0148725210148952000012818164+40920-081430FM-16+0377KCAK V0202601N005110087019N0160931N1-00701-01101999999ADDGD14991+0087019GF108991999999999999999999MA1103491999999MW1001REMMET055KCAK 281816Z 26010KT 10SM OVC029 M07/M11 A3056 RMK AO2;EQDQ01+000000PRSWM2
0054725210148952000020103009+40917-081433NSRDB+036899999V020999999999999999999999999999+99999+99999999999ADDGP10060000002000000002000000002000GR100600000900009
0347725210148952000020105514+40920-081430FM-15+0377KCAK V0202501N008210087019N0128741N1-00601-00901101391ADDAA101000021AA206000021AJ100089199999999GD14991+0087019GF108991999999999999999999KA1999M-00441KA2999N-00561MA1101221999999MD1810021+9999MW1711OC101231REMMET151KCAK 010551Z 25016G24KT 8SM -SN OVC029 M06/M09 A2989 RMK AO2 PK WND 25026/0514 SLP139 SNB07 931000 4/003 8/5// P0000 60000 T10561094 11044 21056 58002;EQDQ01+000003PRSWM1Q02    003PRSWM1
0054725210148952000020108009+40917-081433NSRDB+036899999V020999999999999999999999999999+99999+99999999999ADDGP10060000002000000002000000002000GR100600000900009
0220725210148952000020416514+40920-081430FM-15+0377KCAK V0202401N004610039019N0028161N1-00201-00301101071ADDAA101000021GD14991+0039019GF108991999999999999999999MA1100951999999MW1101MW2711REMMET094KCAK 041651Z 24009KT 1 3/4SM -SN BR OVC013 M02/M03 A2981 RMK AO2 SNB10 SLP107 P0000 T10171028;EQDQ01+000003PRSWM1Q02    003PRSWM1
037272521014895200002070151C+40917-081433FM-15+0368CAK  V0202205N00465030485MN0128005N1-00285-00615102295ADDAA101000095GD13995+0304859GD24995+0426759GF108991999999999999999999MA1102105999999MW1001REMMET080KCAK 070151Z 22009KT 8SM BKN100 OVC140 M03/M06 A3015 RMK AO2 SLP229 T10281061 $;EQDQ01+000000PRSWM2N01 00000JPWTH 0QNNAA1D0 04100BA1 0 04100AA1D0 06140BA1 0 06140GA1 0 00100KA1D0 00021JA1 0-00061LA1 0 00800CA1 0 03015NA1 0 00000QA1 0 10229SA1D0 00027RA1 0-00028YA1 0 22009
0185725210148952000021022334+40920-081430FM-16+0377KCAK V0202201N002110084019N0040231N1+00401+00101999999ADDGD14991+0084019GF108991999999999999999999MA1100581999999MW1611REMMET076KCAK 102233Z 22004KT 2 1/2SM -RA OVC028 04/01 A2970 RMK AO2 SFC VIS 3 P0005;EQDQ01+000003PRSWM1Q02    003PRSWM1
032772521014895200002120951C+40917-081433FM-15+0368CAK  V0200605N00265220005MN0160005N1-00945-01065102525ADDAA101000095GD12995+0762059GF104991999999999999999999MA1102345999999MW1001REMMET072KCAK 120951Z 06005KT 10SM SCT250 M09/M11 A3022 RMK AO2 SLP252 T10941106;EQDQ01+000000PRSWM2N01 00000JPWTH 0QNNAA1D0 02250BA1 0 02250GA1U0 99999KA1D0 00013JA1 0-00106LA1 0 01000CA1 0 03022NA1 0 00000QA1 0 10252SA1D0 00015RA1 0-00094YA1 0 06005
0071725210148952000021320009+40917-081433NSRDB+036899999V020999999999999999999999999999+99999+99999999999ADDGP10060008002009000002021008002009GQ100600601921129GR100600700914039
036972521014895200002240751C+40917-081433FM-15+0368CAK  V0201705N00415076205MN0160005N1+01005+00565102325ADDAA101000095GD12995+0365859GD24995+0762059GF108991999999999999999999MA1102305999999MW1001REMMET077KCAK 240751Z 17008KT 10SM SCT120 OVC250 10/06 A3021 RMK AO2 SLP232 T01000056;EQDQ01+000000PRSWM2N01 00000JPWTH 0QNNAA1D0 02120BA1 0 02120AA1D0 06250BA1 0 06250GA1 0 00250KA1D0 00042JA1 0 00056LA1 0 01000CA1 0 03021NA1 0 00000QA1 0 10232SA1D0 00050RA1 0 00100YA1 0 17008
0263725210148952000022503194+40920-081430FM-16+0377KCAK V0203101N008210150019N0080461N1+01301+01101999999ADDGD12991+0054019GD23991+0150019GD34991+0210019GF108991999999999999999999MA1101831999999MW1611OC101231REMMET100KCAK 250319Z 31016G24KT 5SM -RA BR FEW018 BKN055 OVC075 13/11 A3007 RMK AO2 WSHFT 0304 PRESRR P0007;EQDQ01+000100PRSWM3Q02+000003PRSWM1Q03    003PRSWM1
0765725210148952000022704596+40918-081444SOD  +0377KCAK V020999999999999999999999999999+99999+99999999999ADDAA124000096AJ100009599999999AL12400096AN1024000096KA1240M+02225KA2240N+01115MG1097269999994OE11240143118013365OE22240111819013415OE33240052899999995REMSOD57024 HR PRECIPITATION (IN): 0.00 SNOW DEPTH (IN):0     24 HR SNOWFALL (IN):  .0 24 HR MAX TEMP (F): 7224 HR MAX TEMP TIME (LST):1602 24 HR MIN TEMP (F): 5224 HR MIN TEMP TIME (LST):0733 AVERAGE STATION PRESSURE:28.72  PEAK WIND SPEED (MPH): 32 PEAK WIND DIR (DEG):180 PEAK WIND TIME (LST):1336  FASTEST 2MIN SPEED (MPH): 25FASTEST 2MIN DIR (DEG):190 FASTEST 2MIN TIME (LST):1341 AVERAGE WIND SPEED (MPH):11.8 HOURLY INCREMENTAL PRECIPITATION VALUES (IN):.00  .00  .00  .00  .00  .00  .00  .00  .00  .00  .00  .00  .00  .00  .00  .00  .00  .00  .00  .00  .00  .00  .00  .00EQDR01  0.007AAP092R02    .07ALS030
0265725210148952000022711514+40920-081430FM-15+0377KCAK V0201901N005110210019N0160931N1+01401+01101101281ADDGD12991+0144019GD22991+0150019GD34991+0210019GF108991999999999999999999KA1999M+01721KA2999N+01391MA1101321999999MD1010031+9999MW1001REMMET102KCAK 271151Z 19010KT 10SM FEW048 SCT055 OVC070 14/11 A2992 RMK AO2 SLP128 T01390106 10172 20139 50003;EQDQ01+000000PRSWM2
030872521014895200002281051C+40917-081433FM-15+0368CAK  V0202605N00215220005MN0160005N1+00115-00065102195ADDAA101000095GF100991999999999999999999MA1102105999999MW1001REMMET068KCAK 281051Z 26004KT 10SM CLR 01/M01 A3015 RMK AO2 SLP219 T00111006;EQDQ01+000000PRSWM2N01 00000JPWTH 0QNNAA1D0 00000BA1 0 00000GA1U0 99999KA1D0 00031JA1 0-00006LA1 0 01000CA1 0 03015NA1 0 00000QA1 0 10219SA1D0 00034RA1 0 00011YA1 0 26004
041472521014895200003010051C+40917-081433FM-15+0368CAK  V0201405N00365076205MN0160005N1+00895-00285101875ADDAA101000095GD12995+0396259GD22995+0609659GD33995+0762059GF107991999999999999999999MA1101795999999MW1001REMMET085KCAK 010051Z 14007KT 10SM SCT130 SCT200 BKN250 09/M03 A3006 RMK AO2 SLP187 T00891028;EQDQ01+000000PRSWM2N01 00000JPWTH 0QNNAA1D0 02130BA1 0 02130AA1D0 02200BA1 0 02200AA1D0 04250BA1 0 04250GA1 0 00250KA1D0 00027JA1 0-00028LA1 0 01000CA1 0 03006NA1 0 00000QA1 0 10187SA1D0 00048RA1 0 00089YA1 0 14007
0054725210148952000030209009+40917-081433NSRDB+036899999V020999999999999999999999999999+99999+99999999999ADDGP10060000002000000002000000002000GR100600000900009
038672521014895200003021251C+40917-081433FM-15+0368CAK  V0203105N00625011585MN0160005N1+00115-00285101725ADDAA101000025GD12995+0091459GD24995+0115859GF108991999999999999999999MA1101635999999MW1001REMMET094KCAK 021251Z COR 31012KT 10SM SCT030 OVC038 01/M03 A3001 RMK AO2 SNE08 SLP172 P0000 T00111028;EQDQ01+000000PRSWM2N01 00000JPWTH 0QNNAA1D0 02030BA1 0 02030AA1D0 06038BA1 0 06038GA1 0 00038KA1D0 00027JA1 0-00028LA1 0 01000CA1 0 03001NA1 0 00000QA1 0 10172SA1D0 00034RA1 0 00011YA1 0 31012
032672521014895200003030151C+40917-081433FM-15+0368CAK  V0203105N00415008845MN0160005N1+00005-00395102225ADDAA101000095GD14995+0088459GF108991999999999999999999MA1102105999999MW1001REMMET071KCAK 030151Z 31008KT 10SM OVC029 00/M04 A3015 RMK AO2 SLP222 T00001039;EQDQ01+000000PRSWM2N01 00000JPWTH 0QNNAA1D0 06029BA1 0 06029GA1 0 00029KA1D0 00025JA1 0-00039LA1 0 01000CA1 0 03015NA1 0 00000QA1 0 10222SA1D0 00032RA1 0 00000YA1 0 31008
0054725210148952000030403009+40917-081433NSRDB+036899999V020999999999999999999999999999+99999+99999999999ADDGP10060000002000000002000000002000GR100600000900009
037272521014895200003050051C+40917-081433FM-15+0368CAK  V0202705N00365220005MN0160005N1+00785-00225101155ADDAA101000095GD11995+0457259GD22995+0762059GF104991999999999999999999MA1101085999999MW1001REMMET080KCAK 050051Z 27007KT 10SM FEW150 SCT250 08/M02 A2985 RMK AO2 SLP115 T00781022 $;EQDQ01+000000PRSWM2N01 00000JPWTH 0QNNAA1D0 02150BA1 0 01150AA1D0 02250BA1 0 02250GA1U0 99999KA1D0 00028JA1 0-00022LA1 0 01000CA1 0 02985NA1 0 00000QA1 0 10115SA1D0 00046RA1 0 00078YA1 0 27007
0054725210148952000031002009+40917-081433NSRDB+036899999V020999999999999999999999999999+99999+99999999999ADDGP10060000002000000002000000002000GR100600000900009
035272521014895200003102051C+40917-081433FM-15+0368CAK  V0202905N00575005795MN0160005N1+00225-00115102175ADDAA101000095GD14995+0057959GF108991999999999999999999MA1102075999999MD1310071+9999MW1001REMMET083KCAK 102051Z 29011KT 10SM OVC019 02/M01 A3014 RMK AO2 SLP217 8/5// T00221011 53007;EQDQ01+000000PRSWM2N01 00000JPWTH 0QNNAA1D0 06019BA1 0 06019GA1 0 00019KA1D0 00030JA1 0-00011LA1 0 01000CA1 0 03014NA1 0 00000QA1 0 10217SA1D0 00036RA1 0 00022YA1 0 29011
0071725210148952000031219009+40917-081433NSRDB+036899999V020999999999999999999999999999+99999+99999999999ADDGP10060057802009033502021034402009GQ100600458919929GR100600965913849
0788725210148952000031304596+40918-081444SOD  +0377KCAK V020999999999999999999999999999+99999+99999999999ADDAA124002395AJ100059599999999AL12400195AN1024003395AT1MW18SN  5AT2MW01FG  5AT3MW13BR  1KA1240M+00225KA2240N-00385MG1097099999994OE11240107330014495OE22240089431014505OE33240046999999995REMSOD59224 HR PRECIPITATION (IN): 0.09 SNOW DEPTH (IN):2     24 HR SNOWFALL (IN): 1.3 24 HR MAX TEMP (F): 3624 HR MAX TEMP TIME (LST):1513 24 HR MIN TEMP (F): 2524 HR MIN TEMP TIME (LST):2359 AVERAGE STATION PRESSURE:28.67  PEAK WIND SPEED (MPH): 24 PEAK WIND DIR (DEG):300 PEAK WIND TIME (LST):1449  FASTEST 2MIN SPEED (MPH): 20FASTEST 2MIN DIR (DEG):310 FASTEST 2MIN TIME (LST):1450 AVERAGE WIND SPEED (MPH):10.5 24 HR AVG TEMP (F):31 HOURLY INCREMENTAL PRECIPITATION VALUES (IN):.01  .01  .01  .02  .02  .01  .01   T    T    T    T    T    T   .00  .00  .00  .00  .00  .00  .00  .00  .00  .00  .00
0054725210148952000031407009+40917-081433NSRDB+036899999V020999999999999999999999999999+99999+99999999999ADDGP10060000002000000002000000002000GR100600000900009
0054725210148952000031502009+40917-081433NSRDB+036899999V020999999999999999999999999999+99999+99999999999ADDGP10060000002000000002000000002000GR100600000900009
032972521014895200003180251C+40917-081433FM-15+0368CAK  V0200205N00365220005MN0160005N1-00565-00945103445ADDAA101000095GF100991999999999999999999MA1103255999999MD1110231+9999MW1001REMMET075KCAK 180251Z 02007KT 10SM CLR M06/M09 A3049 RMK AO2 SLP344 T10561094 51023;EQDQ01+000000PRSWM2N01 00000JPWTH 0QNNAA1D0 00000BA1 0 00000GA1U0 99999KA1D0 00015JA1 0-00094LA1 0 01000CA1 0 03049NA1 0 00000QA1 0 10344SA1D0 00022RA1 0-00056YA1 0 02007
032672521014895200003190951C+40917-081433FM-15+0368CAK  V0201205N00465027435MN0160005N1+00285-00565102255ADDAA101000095GD14995+0274359GF108991999999999999999999MA1102175999999MW1001REMMET071KCAK 190951Z 12009KT 10SM OVC090 03/M06 A3017 RMK AO2 SLP225 T00281056;EQDQ01+000000PRSWM2N01 00000JPWTH 0QNNAA1D0 06090BA1 0 06090GA1 0 00090KA1D0 00022JA1 0-00056LA1 0 01000CA1 0 03017NA1 0 00000QA1 0 10225SA1D0 00037RA1 0 00028YA1 0 12009
037772521014895200003210651C+40917-081433FM-15+0368CAK  V0201105N00525002445MN0080005N1+00395+00335102295ADDAA101000395GD14995+0024459GF108991999999999999999999MA1102245999999MW1101MW2455MW3615REMMET094KCAK 210651Z 11010KT 5SM -RA BR OVC008 04/03 A3019 RMK AO2 CIG 005V011 SLP229 P0001 T00390033;EQDQ01+000003PRSWM1Q02    003PRSWM1N01 02070JPWTH 0QNNAA1D0 06008BA1 0 06008GA1 0 00008KA1D0 00038JA1 0 00033LA1 0 00500CA1 0 03019NA1 0 02070QA1 0 10229SA1D0 00039RA1 0 00039YA1 0 11010
0054725210148952000032704009+40917-081433NSRDB+036899999V020999999999999999999999999999+99999+99999999999ADDGP10060000002000000002000000002000GR100600000900009
0071725210148952000032716009+40917-081433NSRDB+036899999V020999999999999999999999999999+99999+99999999999ADDGP10060011302008000002015011302008GQ100600469913659GR100600938913729
0054725210148952000040211009+40917-081433NSRDB+036899999V020999999999999999999999999999+99999+99999999999ADDGP10060000002000000002000000002000GR100600000900009
0250725210148952000040402374+40920-081430FM-16+0377KCAK V0209999C00001001501CN0012071N1+01201+01201999999ADDGD12991+0012019GD23991+0021019GD34991+0096019GF108991999999999999999999MA1100271999999MW1611REMMET095KCAK 040237Z 00000KT 3/4SM -RA BR SCT004 BKN007 OVC032 12/12 A2961 RMK AO2 CIG 005V008 P0007 $;EQDQ01+000100PRSWM3Q02+000003PRSWM1Q03    003PRSWM1
039872521014895200004061551C+40917-081433FM-15+0368CAK  V0202605N01035076205MN0160005N1+01445+00065100255ADDAA101000095GD11995+0457259GD23995+0762059GF107991999999999999999999MA1100245999999MW1001OC101651REMMET098KCAK 061551Z 26020G32KT 10SM FEW150 BKN250 14/01 A2960 RMK AO2 PK WND 25032/1546 SLP025 T01440006;EQDQ01+000000PRSWM2N01 00000JPWTH 0QNNAA1D0 02150BA1 0 01150AA1D0 04250BA1 0 04250GA1 0 00250KA1D0 00033JA1 0 00006LA1 0 01000CA1 0 02960NA1 0 00000QA1 0 10025SA1D0 00058RA1 0 00144YA1 0 26020
0249725210148952000040623514+40920-081430FM-15+0377KCAK V0202901N005110750019N0160931N1+01201+00201100911ADDGD12991+0600019GD23991+0750019GF107991999999999999999999KA1999M+01561KA2999N+01221MA1100881999999MD1310261+9999MW1001REMMET101KCAK 062351Z 29010KT 10SM SCT200 BKN250 12/02 A2979 RMK AO2 SLP091 8/008 T01220022 10156 20122 53026;EQDQ01+000000PRSWM2
0492725210148952000040716003+40917-081433FM-15+0368CAK  V0201205N00525008845MN0048005N1+00565+00565101345ADDAA101001895GD13995+0088459GD24995+0167659GF108991999999999999999999GP10060011902008000002015011902008GQ100600429913439GR100600998913639MA1101295999999MW1101MW2455MW3611MW4635REMMET098KCAK 071600Z 11009KT 2 1/2SM -RA BR OVC029 06/06 A2990 RMK AO2 SFC VIS 4 PRESFR CIG 027V032 P0001;EQDQ01+000003PRSWM1Q02    003PRSWM1N01 02170JPWTH 0QNNAA1D0 04029BA1 0 04029AA1D0 06055BA1 0 06055GA1 0 00029KA1D0 00042JA1 0 00056LA1 0 00300CA1 0 02991NA1 0 02170QA1 0 10134SA1D0 00042RA1 0 00056YA1 0 12010
0189725210148952000041807164+40920-081430FM-16+0377KCAK V0200301N003610150019N0128741N1+00901+00801999999ADDGD12991+0045019GD23991+0150019GD34991+0300019GF108991999999999999999999MA1101221999999MW1001REMMET066KCAK 180716Z 03007KT 8SM SCT015 BKN055 OVC100 09/08 A2989 RMK AO2;EQDQ01+000000PRSWM2
0262725210148952000041911514+40920-081430FM-15+0377KCAK V0202701N002110066019N0064371N1+00901+00801101931ADDAA124001391GD14991+0066019GF108991999999999999999999KA1999M+00891KA2999N+00831MA1101901999999MD1310081+9999MW1101REMMET102KCAK 191151Z 27004KT 4SM BR OVC022 09/08 A3009 RMK AO2 SLP193 8/5// 70005 T00890078 10089 20083 53008;EQDQ01+000003PRSWM1Q02    003PRSWM1
0227725210148952000042405514+40920-081430FM-15+0377KCAK V0203301N002112200019N0160931N1+00601+00401101361ADDGD12991+0600019GF104991999999999999999999KA1999M+01171KA2999N+00561MA1101321999999MD1010011+9999MW1001REMMET094KCAK 240551Z 33004KT 10SM SCT200 06/04 A2992 RMK AO2 SLP136 8/008 T00610039 10117 20056 50001;EQDQ01+000000PRSWM2
030872521014895200004261351C+40917-081433FM-15+0368CAK  V0200305N00725220005MN0160005N1+00895-00505101765ADDAA101000095GF100991999999999999999999MA1101735999999MW1001REMMET068KCAK 261351Z 03014KT 10SM CLR 09/M05 A3004 RMK AO2 SLP176 T00891050;EQDQ01+000000PRSWM2N01 00000JPWTH 0QNNAA1D0 00000BA1 0 00000GA1U0 99999KA1D0 00023JA1 0-00050LA1 0 01000CA1 0 03004NA1 0 00000QA1 0 10176SA1D0 00048RA1 0 00089YA1 0 03014
0227725210148952000042817514+40920-081430FM-15+0377KCAK V0201201N005710750019N0160931N1+01601+00301101181ADDGD13991+0750019GF107991999999999999999999KA1999M+01671KA2999N+00561MA1101151999999MD1610101+9999MW1001REMMET094KCAK 281751Z 12011KT 10SM BKN250 16/03 A2987 RMK AO2 SLP118 8/008 T01610033 10167 20056 56010;EQDQ01+000000PRSWM2
036972521014895200004282251C+40917-081433FM-15+0368CAK  V0209999C00005076205MN0160005N1+01785+00285101105ADDAA101000095GD11995+0457259GD23995+0762059GF107991999999999999999999MA1101085999999MW1001REMMET077KCAK 282251Z 00000KT 10SM FEW150 BKN250 18/03 A2985 RMK AO2 SLP110 T01780028;EQDQ01+000000PRSWM2N01 00000JPWTH 0QNNAA1D0 02150BA1 0 01150AA1D0 04250BA1 0 04250GA1 0 00250KA1D0 00037JA1 0 00028LA1 0 01000CA1 0 02985NA1 0 00000QA1 0 10110SA1D0 00064RA1 0 00178YA1 0 00000
0054725210148952000043007009+40917-081433NSRDB+036899999V020999999999999999999999999999+99999+99999999999ADDGP10060000002000000002000000002000GR100600000900009
0071725210148952000050119009+40917-081433NSRDB+036899999V020999999999999999999999999999+99999+99999999999ADDGP10060020702008000602015020102008GQ100600296921429GR100601169913459
0054725210148952000050605009+40917-081433NSRDB+036899999V020999999999999999999999999999+99999+99999999999ADDGP10060000002000000002000000002000GR100600000900009
0221725210148952000050605514+40920-081430FM-15+0377KCAK V0202101N002112200019N0080461N1+01801+01601102001ADDGF100991999999999999999999KA1999M+02281KA2999N+01781MA1102071999999MD1310011+9999MW1101REMMET087KCAK 060551Z 21004KT 5SM BR CLR 18/16 A3014 RMK AO2 SLP200 T01780161 10228 20178 53001;EQDQ01+000003PRSWM1Q02    003PRSWM1
037172521014895200005061051C+40917-081433FM-15+0368CAK  V0209999C00005220005MN0040005N1+01505+01505102115ADDAA101000095GD11995+0426759GF102991999999999999999999MA1102175999999MW1101MW2455REMMET094KCAK 061051Z 00000KT 2 1/2SM BR FEW140 15/15 A3017 RMK AO2 TWR VIS 3 SLP211 VIS S 2 T01500150;EQDQ01+000003PRSWM1Q02    003PRSWM1N01 00070JPWTH 0QNNAA1D0 02140BA1 0 01140GA1U0 99999KA1D0 00059JA1 0 00150LA1 0 00250CA1 0 03017NA1 0 00070QA1 0 10211SA1D0 00059RA1 0 00150YA1 0 00000
032572521014895200005090751C+40917-081433FM-15+0368CAK  V0202105N00525018295MN0160005N1+02225+01725100565ADDAA101000095GD14995+0182959GF108991999999999999999999MA1100685999999MW1001REMMET070KCAK 090751Z 21010KT 10SM OVC060 22/17 A2973 RMK AO2 SLP056 T02220172;EQDQ01+000000PRSWM2N01 00000JPWTH 0QNNAA1D0 06060BA1 0 06060GA1 0 00060KA1D0 00063JA1 0 00172LA1 0 01000CA1 0 02973NA1 0 00000QA1 0 10056SA1D0 00072RA1 0 00222YA1 0 21010
0270725210148952000051305514+40920-081430FM-15+0377KCAK V0202201N004610240019N0112651N1+02301+01801100401ADDGD12991+0099019GD22991+0138019GD33991+0240019GF107991999999999999999999KA1999M+02611KA2999N+02331MA1100511999999MD1810061+9999MW1001REMMET107KCAK 130551Z 22009KT 7SM SCT033 SCT046 BKN080 23/18 A2968 RMK AO2 SLP040 8/870 T02330183 10261 20233 58006;EQDQ01+000000PRSWM2
0234725210148952000051316124+40920-081430FM-16+0377KCAK V0202901N006710045019N0096561N1+01601+01401999999ADDGD12991+0027019GD23991+0045019GD34991+0150019GF108991999999999999999999MA1100811999999MW1611REMMET079KCAK 131612Z 29013KT 6SM -RA BR SCT009 BKN015 OVC050 16/14 A2977 RMK AO2 P0000;EQDQ01+000100PRSWM3Q02+000003PRSWM1Q03    003PRSWM1
039872521014895200005132251C+40917-081433FM-15+0368CAK  V0202805N00885220005MN0160005N1+01945+00285101045ADDAA101000095GD11995+0198159GD22995+0762059GF104991999999999999999999MA1101125999999MW1001OC101031REMMET098KCAK 132251Z 28017G20KT 10SM FEW065 SCT250 19/03 A2986 RMK AO2 PK WND 27026/2227 SLP104 T01940028;EQDQ01+000000PRSWM2N01 00000JPWTH 0QNNAA1D0 02065BA1 0 01065AA1D0 02250BA1 0 02250GA1U0 99999KA1D0 00037JA1 0 00028LA1 0 01000CA1 0 02986NA1 0 00000QA1 0 10104SA1D0 00067RA1 0 00194YA1 0 28017
0054725210148952000051404009+40917-081433NSRDB+036899999V020999999999999999999999999999+99999+99999999999ADDGP10060000002000000002000000002000GR100600000900009
036872521014895200005180051C+40917-081433FM-15+0368CAK  V0201805N00465060965MN0144005N1+01945+01565101355ADDAA101000095GD12995+0396259GD24995+0609659GF108991999999999999999999MA1101395999999MW1001REMMET076KCAK 180051Z 18009KT 9SM SCT130 OVC200 19/16 A2994 RMK AO2 SLP135 T01940156;EQDQ01+000000PRSWM2N01 00000JPWTH 0QNNAA1D0 02130BA1 0 02130AA1D0 06200BA1 0 06200GA1 0 00200KA1D0 00060JA1 0 00156LA1 0 00900CA1 0 02994NA1 0 00000QA1 0 10135SA1D0 00067RA1 0 00194YA1 0 18009
043472521014895200005182251C+40917-081433FM-15+0368CAK  V0203605N00575039625MN0112005N1+01785+01565101265ADDAA101000095GD11995+0033559GD23995+0396259GD34995+0609659GF108991999999999999999999MA1101325999999MW1001OC100981REMMET097KCAK 182251Z 36011G19KT 7SM FEW011 BKN130 OVC200 18/16 A2992 RMK AO2 WSHFT 2229 SLP126 T01780156;EQDQ01+000000PRSWM2N01 00000JPWTH 0QNNAA1D0 02011BA1 0 01011AA1D0 04130BA1 0 04130AA1D0 06200BA1 0 06200GA1 0 00130KA1D0 00060JA1 0 00156LA1 0 00700CA1 0 02992NA1 0 00000QA1 0 10126SA1D0 00064RA1 0 00178YA1 0 36011
0536725210148952000051909003+40917-081433FM-15+0368CAK  V0209999C00005003665MN0048005N1+01395+01395101425ADDAA101006695GA1999+009001091GD11995+0015259GD23995+0036659GD34995+0085359GF108991999999999999999999GP10060000002000000002000000002000GR100600000900009MA1101495999999MW1101MW2455MW3811MW4951REMMET122KCAK 190900Z 00000KT 3SM TSRA BR BKN018 BKN025 OVC030CB 14/14 A2997 RMK AO2 OCNL LTGIC OHD AND E TS OHD AND E MOV E P0004;EQDQ01+000003PRSWM1N01 00070JPWTH 0QNNAA1D0 02005BA1 0 01005AA1D0 04012BA1 0 04012AA1D0 06028BA1 0 06028GA1 0 00012KA1D0 00057JA1 0 00139LA1 0 00300CA1 0 02997NA1 0 00070QA1 0 10142SA1D0 00057RA1 0 00139YA1 0 00000
036972521014895200005211651C+40917-081433FM-15+0368CAK  V0202405N00155006715MN0160005N1+01395+00895101705ADDAA101000095GD13995+0067159GD24995+0152459GF108991999999999999999999MA1101695999999MW1001REMMET077KCAK 211651Z 24003KT 10SM BKN022 OVC050 14/09 A3003 RMK AO2 SLP170 T01390089;EQDQ01+000000PRSWM2N01 00000JPWTH 0QNNAA1D0 04022BA1 0 04022AA1D0 06050BA1 0 06050GA1 0 00022KA1D0 00048JA1 0 00089LA1 0 01000CA1 0 03003NA1 0 00000QA1 0 10170SA1D0 00057RA1 0 00139YA1 0 24003
0216725210148952000052311394+40920-081430FM-16+0377KCAK V0201901N003610021019N0028161N1+01401+01401999999ADDGD13991+0021019GD24991+0036019GF108991999999999999999999MA1100441999999MW1611REMMET076KCAK 231139Z 19007KT 1 3/4SM -RA BR BKN007 OVC012 14/14 A2966 RMK AO2 P0000;EQDQ01+000100PRSWM3Q02+000003PRSWM1Q03    003PRSWM1
0528725210148952000052312003+40917-081433SY-MT+0368CAK  V0201805N00415002135MN0032005N1+01445+01395100385ADDAA101000025AA206007991AA324008491GD13995+0021359GD24995+0036659GF108991999051002501021999GP10060008102008000002015008102008GQ100600752907529GR100600340913329KA1999M+02061KA2120N+01391MA1100445096021MD1510081+9999MW1101MW2455REMSYN116AAXX  23124 72521 11332 81808 10144 20139 39602 40038 55008 60081 710// 8/52/ 91151 333 10206 20139 70084 555 92312;EQDN01 00070JPWTH 0QNNAA1D0 04007BA1 0 04007AA1D0 06012BA1 0 06012GA1 0 00007KA1D0 00057JA1 0 00139LA1 0 00200CA1 0 02966NA1 0 00070QA1 0 10038SA1D0 00058RA1 0 00144YA1 0 18008
0178725210148952000052411314+40920-081430FM-16+0377KCAK V0202201N003110003019N0008051N1+01601+01601999999ADDGD14991+0003019GF108991999999999999999999MA1100171999999MW1441REMMET069KCAK 241131Z 22006KT 1/2SM FG OVC001 16/16 A2958 RMK AO2 TWR VIS 3/4;EQDQ01+000003PRSWM1Q02    003PRSWM1
0071725210148952000052523009+40917-081433NSRDB+036899999V020999999999999999999999999999+99999+99999999999ADDGP10060032302008048602015012902008GQ100600666927839GR100600528913319
033272521014895200005260951C+40917-081433FM-15+0368CAK  V0202805N00215220005MN0160005N1+00835+00675101435ADDAA101000095GD11995+0762059GF102991999999999999999999MA1101465999999MW1001REMMET077KCAK 260951Z 28004KT 10SM FEW250 08/07 A2996 RMK AO2 PRESRR SLP143 T00830067;EQDQ01+000000PRSWM2N01 00000JPWTH 0QNNAA1D0 02250BA1 0 01250GA1U0 99999KA1D0 00044JA1 0 00067LA1 0 01000CA1 0 02996NA1 0 00000QA1 0 10143SA1D0 00047RA1 0 00083YA1 0 28004
0292725210148952000052905514+40920-081430FM-15+0377KCAK V0200201N004110054019N0160931N1+01101+01001101011ADDAA101000021AA206001091GD12991+0027019GD24991+0054019GF108991999999999999999999KA1999M+01171KA2999N+01111MA1100981999999MD1010051+9999MW1001REMMET122KCAK 290551Z 02008KT 10SM FEW009 OVC018 11/10 A2982 RMK AO2 RAB18E27 SLP101 8/72/ P0000 60004 T01110100 10117 20111 50005;EQDQ01+000000PRSWM2
0071725210148952000060111009+40917-081433NSRDB+036899999V020999999999999999999999999999+99999+99999999999ADDGP10060000002008000002015000002008GQ100600849906479GR100600117913289
035172521014895200006030251C+40917-081433FM-15+0368CAK  V0203105N00415220005MN0160005N1+01565+01065101895ADDAA101000095GD12995+0609659GF104991999999999999999999MA1101965999999MD1110261+9999MW1001REMMET082KCAK 030251Z 31008KT 10SM SCT200 16/11 A3011 RMK AO2 SLP189 8/008 T01560106 51026;EQDQ01+000000PRSWM2N01 00000JPWTH 0QNNAA1D0 02200BA1 0 02200GA1U0 99999KA1D0 00051JA1 0 00106LA1 0 01000CA1 0 03011NA1 0 00000QA1 0 10189SA1D0 00060RA1 0 00156YA1 0 31008
0258725210148952000060605244+40920-081430FM-16+0377KCAK V0203601N006710009019N0016091N1+01301+01201999999ADDGD13991+0009019GD24991+0027019GF108991999999999999999999MA1101051999999MW1971OC100981REMMET110KCAK 060524Z 36013G19KT 1SM +TSRA BR BKN003 OVC009 13/12 A2984 RMK AO2 TSB17 OCNL LTGIC OHD T OHD MOV E P0002;EQDQ01+000820PRSWM3Q02+000100PRSWM4Q03+000003PRSWM1
0054725210148952000060902009+40917-081433NSRDB+036899999V020999999999999999999999999999+99999+99999999999ADDGP10060000002000000002000000002000GR100600000900009
0520725210148952000061018003+40917-081433SY-MT+0368CAK  V0202405N00415220005MN0096005N1+02895+01835101835ADDAA101000095GD11995+0115859GD21995+0762059GF102991999011012501001011GP10060095502008081602015017802008GQ100600182918349GR100601258913259KA1120M+02941KA2240N+02111MA1101935097461MD1810101+9999MW1055REMSYN104AAXX  10184 72521 31659 22408 10289 20183 39746 40183 58010 705// 8/101 91751 333 10294 20211 555 91018;EQDQ01  00002PRCP99Q02  00003PRCP99N01 00081JPWTH 0QNNAA1D0 02038BA1 0 01038AA1D0 02250BA1 0 01250GA1U0 99999KA1D0 00065JA1 0 00183LA1 0 00600CA1 0 03010NA1 0 00081QA1 0 10183SA1D0 00084RA1 0 00289YA1 0 24008
0071725210148952000061121009+40917-081433NSRDB+036899999V020999999999999999999999999999+99999+99999999999ADDGP10060031402008004202015028302008GQ100600424925969GR100600977913259
037572521014895200006120151C+40917-081433FM-15+0368CAK  V0202305N00155033535MN0144005N1+02285+02065101805ADDAA101000095GD11995+0121959GD24995+0335359GF108991999999999999999999MA1101905999999MW1001REMMET083KCAK 120151Z 23003KT 9SM FEW040 OVC110 23/21 A3009 RMK AO2 SLP180 BINOVC T02280206;EQDQ01+000000PRSWM2N01 00000JPWTH 0QNNAA1D0 02040BA1 0 01040AA1D0 06110BA1 0 06110GA1 0 00110KA1D0 00069JA1 0 00206LA1 0 00900CA1 0 03009NA1 0 00000QA1 0 10180SA1D0 00073RA1 0 00228YA1 0 23003
043772521014895200006130751C+40917-081433FM-15+0368CAK  V0201905N00155076205MN0064005N1+02065+02005101635ADDAA101000095GD11995+0015259GD22995+0335359GD33995+0762059GF107991999999999999999999MA1101695999999MW1101MW2455REMMET086KCAK 130751Z 19003KT 4SM BR FEW005 SCT110 BKN250 21/20 A3003 RMK AO2 SLP163 T02060200;EQDQ01+000003PRSWM1Q02    003PRSWM1N01 00070JPWTH 0QNNAA1D0 02005BA1 0 01005AA1D0 02110BA1 0 02110AA1D0 04250BA1 0 04250GA1 0 00250KA1D0 00068JA1 0 00200LA1 0 00400CA1 0 03003NA1 0 00070QA1 0 10163SA1D0 00069RA1 0 00206YA1 0 19003
0071725210148952000061515009+40917-081433NSRDB+036899999V020999999999999999999999999999+99999+99999999999ADDGP10060022202008000602015021702008GQ100600407910199GR100601002913249
0542725210148952000062100003+40917-081433SY-MT+0368CAK  V0201805N00415036585MN0160005N1+02445+01725101495ADDAA101000025AA206000791GD12995+0243859GD23995+0365859GD34995+0762059GF108991999001022501071071GP10060007102008000002015007102008GQ100600753928859GR100600336913229KA1120M+02781KA2180N+01391MA1101565097101MD1810101+9999MW1615REMSYN110AAXX  21004 72521 11866 81808 10244 20172 39710 40149 58010 69901 761// 8/077 92351 333 10278 20139 555 92100;EQDN01 00020JPWTH 0QNNAA1D0 02080BA1 0 02080AA1D0 04120BA1 0 04120AA1D0 06250BA1 0 06250GA1 0 00120KA1D0 00063JA1 0 00172LA1 0 01000CA1 0 02999NA1 0 00020QA1 0 10149SA1D0 00076RA1 0 00244YA1 0 18008
0220725210148952000062110444+40920-081430FM-16+0377KCAK V0202001N00571001501CN0048281N1+02201+02101999999ADDGD13991+0024019GD23991+0036019GD34991+0057019GF108991999999999999999999MA1101121999999MW1101REMMET081KCAK 211044Z 20011KT 3SM BR BKN008 BKN012 OVC019 22/21 A2986 RMK AO2 CIG 005V009;EQDQ01+000003PRSWM1Q02    003PRSWM1
032572521014895200006230751C+40917-081433FM-15+0368CAK  V0202605N00365220005MN0160005N1+01615+01395101375ADDAA101000095GD12995+0198159GF104991999999999999999999MA1101465999999MW1001REMMET070KCAK 230751Z 26007KT 10SM SCT065 16/14 A2996 RMK AO2 SLP137 T01610139;EQDQ01+000000PRSWM2N01 00000JPWTH 0QNNAA1D0 02065BA1 0 02065GA1U0 99999KA1D0 00057JA1 0 00139LA1 0 01000CA1 0 02996NA1 0 00000QA1 0 10137SA1D0 00061RA1 0 00161YA1 0 26007
0071725210148952000062322009+40917-081433NSRDB+036899999V020999999999999999999999999999+99999+99999999999ADDGP10060053302008061402015016302008GQ100600530927029GR100600795913229
039472521014895200006261451C+40917-081433FM-15+0368CAK  V0202305N00465076205MN0144005N1+02445+01945101505ADDAA101000095GD12995+0076259GD23995+0762059GF107991999999999999999999MA1101595999999MD1810061+9999MW1001REMMET088KCAK 261451Z 23009KT 9SM SCT025 BKN250 24/19 A3000 RMK AO2 SLP150 8/108 T02440194 58006;EQDQ01+000000PRSWM2N01 00000JPWTH 0QNNAA1D0 02025BA1 0 02025AA1D0 04250BA1 0 04250GA1 0 00250KA1D0 00067JA1 0 00194LA1 0 00900CA1 0 03000NA1 0 00000QA1 0 10150SA1D0 00076RA1 0 00244YA1 0 23009
0054725210148952000062705009+40917-081433NSRDB+036899999V020999999999999999999999999999+99999+99999999999ADDGP10060000002000000002000000002000GR100600000900009
043072521014895200007051051C+40917-081433FM-15+0368CAK  V0203605N00155039625MN0144841N1+01615+01505101525ADDAA101000095GD13995+0396259GD23995+0609659GF107991999999999999999999MA1101595999999MV1095MW1401REMMET089KCAK 051051Z 36003KT 9SM VCFG BKN130 BKN200 16/15 A3000 RMK AO2 SLP152 VCFG SW T01610150;EQDQ01+000003PRSWM1Q02    003PRSWM1N01 00900DHZVS 3N02 00000JPWTH 0QNNAA1D0 04130BA1 0 04130AA1D0 04200BA1 0 04200GA1 0 00130KA1D0 00059JA1 0 00150LA1 3 00900CA1 0 03000NA1 0 00000OA1 0 00009QA1 0 10152SA1D0 00061RA1 0 00161YA1 0 36003
0054725210148952000070807009+40917-081433NSRDB+036899999V020999999999999999999999999999+99999+99999999999ADDGP10060000002000000002000000002000GR100600000900009
043172521014895200007100751C+40917-081433FM-15+0368CAK  V0202605N00365008535MN0096005N1+02225+01945100955ADDAA101000095GD13995+0085359GD23995+0106759GD34995+0762059GF108991999999999999999999MA1101085999999MW1055REMMET086KCAK 100751Z 26007KT 6SM HZ BKN028 BKN035 OVC250 22/19 A2985 RMK AO2 SLP095 T02220194;EQDQ01+000003PRSWM1Q02    003PRSWM1N01 00081JPWTH 0QNNAA1D0 04028BA1 0 04028AA1D0 04035BA1 0 04035AA1D0 06250BA1 0 06250GA1 0 00028KA1D0 00067JA1 0 00194LA1 0 00600CA1 0 02985NA1 0 00081QA1 0 10095SA1D0 00072RA1 0 00222YA1 0 26007
032572521014895200007132151C+40917-081433FM-15+0368CAK  V0202605N00315220005MN0160005N1+02675+01395101275ADDAA101000095GD11995+0182959GF102991999999999999999999MA1101355999999MW1001REMMET070KCAK 132151Z 26006KT 10SM FEW060 27/14 A2993 RMK AO2 SLP127 T02670139;EQDQ01+000000PRSWM2N01 00000JPWTH 0QNNAA1D0 02060BA1 0 01060GA1U0 99999KA1D0 00057JA1 0 00139LA1 0 01000CA1 0 02993NA1 0 00000QA1 0 10127SA1D0 00080RA1 0 00267YA1 0 26006
0272725210148952000071605514+40920-081430FM-15+0377KCAK V0202701N002112200019N0112651N1+01601+01601100681ADDGD12991+0390019GD22991+0600019GD32991+0750019GF104991999999999999999999KA1999M+02061KA2999N+01501MA1100751999999MD1810031+9999MW1001REMMET109KCAK 160551Z 27004KT 7SM FEW130 SCT200 SCT250 16/16 A2975 RMK AO2 SLP068 8/078 T01610156 10206 20150 58003 $;EQDQ01+000000PRSWM2
042172521014895200007170251C+40917-081433FM-15+0368CAK  V0202905N00155220005MN0096005N1+01785+01615101245ADDAA101000095GD11995+0259159GD22995+0762059GF104991999999999999999999MA1101295999999MD1310161+9999MW1101MW2455REMMET093KCAK 170251Z 29003KT 6SM BR FEW085 SCT250 18/16 A2991 RMK AO2 SLP124 8/038 T01780161 53016 $;EQDQ01+000003PRSWM1Q02    003PRSWM1N01 00070JPWTH 0QNNAA1D0 02085BA1 0 01085AA1D0 02250BA1 0 02250GA1U0 99999KA1D0 00061JA1 0 00161LA1 0 00600CA1 0 02991NA1 0 00070QA1 0 10124SA1D0 00064RA1 0 00178YA1 0 29003
0054725210148952000071707009+40917-081433NSRDB+036899999V020999999999999999999999999999+99999+99999999999ADDGP10060000002000000002000000002000GR100600000900009
041372521014895200007181851C+40917-081433FM-15+0368CAK  V0203105N00465010065MN0160005N1+02285+01565101655ADDAA101000095GD13995+0100659GD23995+0609659GD33995+0762059GF107991999999999999999999MA1101735999999MW1001REMMET084KCAK 181851Z 31009KT 10SM BKN033 BKN200 BKN250 23/16 A3004 RMK AO2 SLP165 T02280156;EQDQ01+000000PRSWM2N01 00000JPWTH 0QNNAA1D0 04033BA1 0 04033AA1D0 04200BA1 0 04200AA1D0 04250BA1 0 04250GA1 0 00033KA1D0 00060JA1 0 00156LA1 0 01000CA1 0 03004NA1 0 00000QA1 0 10165SA1D0 00073RA1 0 00228YA1 0 31009
0288725210148952000071923514+40920-081430FM-15+0377KCAK V0203501N002612200019N0160931N1+01901+01301101421ADDAA106000021GD12991+0120019GD22991+0210019GD32991+0450019GF104991999999999999999999KA1999M+02001KA2999N+01561MA1101461999999MD1310021+9999MW1001REMMET114KCAK 192351Z 35005KT 10SM FEW040 SCT075 SCT150 19/13 A2996 RMK AO2 SLP142 8/170 60000 T01890128 10200 20156 53002;EQDQ01+000000PRSWM2
032772521014895200007200251C+40917-081433FM-15+0368CAK  V0200105N00265220005MN0160005N1+01335+01005101575ADDAA101000095GF100991999999999999999999MA1101595999999MD1110121+9999MW1001REMMET073KCAK 200251Z 01005KT 10SM CLR 13/10 A3000 RMK AO2 SLP157 T01330100 51012;EQDQ01+000000PRSWM2N01 00000JPWTH 0QNNAA1D0 00000BA1 0 00000GA1U0 99999KA1D0 00050JA1 0 00100LA1 0 01000CA1 0 03000NA1 0 00000QA1 0 10157SA1D0 00056RA1 0 00133YA1 0 01005
0071725210148952000072213009+40917-081433NSRDB+036899999V020999999999999999999999999999+99999+99999999999ADDGP10060031802008040102015015602008GQ100600662908339GR100600533913239
034572521014895200007270251C+40917-081433FM-15+0368CAK  V0201405N00365220005MN0096005N1+02065+01675101965ADDAA101000095GF100991999999999999999999MA1102035999999MD1310061+9999MW1055REMMET075KCAK 270251Z 14007KT 6SM HZ CLR 21/17 A3013 RMK AO2 SLP196 T02060167 53006;EQDQ01+000003PRSWM1Q02    003PRSWM1N01 00081JPWTH 0QNNAA1D0 00000BA1 0 00000GA1U0 99999KA1D0 00062JA1 0 00167LA1 0 00600CA1 0 03013NA1 0 00081QA1 0 10196SA1D0 00069RA1 0 00206YA1 0 14007
048272521014895200007280351C+40917-081433FM-15+0368CAK  V0201205N00415060965MN0096005N1+02005+01725101645ADDAA101000095GA1999+010501091GD12995+0106759GD22995+0243859GD34995+0609659GF108991999999999999999999MA1101735999999MW1055REMMET121KCAK 280351Z 12008KT 6SM HZ SCT035CB SCT080 OVC200 20/17 A3004 RMK AO2 SLP164 FRQ LTG DSNT SW-NW CB DSNT SW-NW T02000172;EQDQ01+000003PRSWM1Q02    003PRSWM1N01 00081JPWTH 0QNNAA1D0 02035BA1 0 02035AA1D0 02080BA1 0 02080AA1D0 06200BA1 0 06200GA1 0 00200KA1D0 00063JA1 0 00172LA1 0 00600CA1 0 03004NA1 0 00081QA1 0 10164SA1D0 00068RA1 0 00200YA1 0 12008
0054725210148952000072904009+40917-081433NSRDB+036899999V020999999999999999999999999999+99999+99999999999ADDGP10060000002000000002000000002000GR100600000900009
0071725210148952000073014009+40917-081433NSRDB+036899999V020999999999999999999999999999+99999+99999999999ADDGP10060035802008016602015026502008GQ100600560909489GR100600740913269
0071725210148952000073015009+40917-081433NSRDB+036899999V020999999999999999999999999999+99999+99999999999ADDGP10060059302008044902015027502008GQ100600449910649GR100600938913269
0071725210148952000073111009+40917-081433NSRDB+036899999V020999999999999999999999999999+99999+99999999999ADDGP10060000202008001502015000202008GQ100600871906819GR100600042908299
0071725210148952000080117009+40917-081433NSRDB+036899999V020999999999999999999999999999+99999+99999999999ADDGP10060080102008063202015023602008GQ100600269914599GR100601183913269
039472521014895200008020251C+40917-081433FM-15+0368CAK  V0202205N00365220005MN0144005N1+02115+01785101415ADDAA101000095GD11995+0213459GD22995+0762059GF104991999999999999999999MA1101495999999MD1310101+9999MW1001REMMET088KCAK 020251Z 22007KT 9SM FEW070 SCT250 21/18 A2997 RMK AO2 SLP141 8/038 T02110178 53010;EQDQ01+000000PRSWM2N01 00000JPWTH 0QNNAA1D0 02070BA1 0 01070AA1D0 02250BA1 0 02250GA1U0 99999KA1D0 00064JA1 0 00178LA1 0 00900CA1 0 02997NA1 0 00000QA1 0 10141SA1D0 00070RA1 0 00211YA1 0 22007
0455725210148952000080400003+40917-081433SY-MT+0368CAK  V0200105N00415004275MN0112005N1+01895+01615101695ADDAA101000095GD14995+0042759GF108991999051004501999999GP10060006602008000502015006402008GQ100600784928299GR100600267913279KA1120M+02561KA2180N+01781MA1101765097291MD1110141+9999REMSYN098AAXX  04004 72521 32461 80108 10189 20161 39729 40169 51014 8/5// 92351 333 10256 20178 555 90400;EQDQ01  00003PRCP99N01 00000JPWTH 0QNNAA1D0 06014BA1 0 06014GA1 0 00014KA1D0 00061JA1 0 00161LA1 0 00700CA1 0 03005NA1 0 00000QA1 0 10169SA1D0 00066RA1 0 00189YA1 0 01008
033772521014895200008060651C+40917-081433FM-15+0368CAK  V0201705N00575027435MN0160005N1+01675+01285101205ADDAA101000395GD14995+0274359GF108991999999999999999999MA1101255999999MW1001REMMET082KCAK 060651Z 17011KT 10SM OVC090 17/13 A2990 RMK AO2 RAE34 SLP120 P0001 T01670128;EQDQ01+000000PRSWM2N01 00000JPWTH 0QNNAA1D0 06090BA1 0 06090GA1 0 00090KA1D0 00055JA1 0 00128LA1 0 01000CA1 0 02990NA1 0 00000QA1 0 10120SA1D0 00062RA1 0 00167YA1 0 17011
0293725210148952000080608314+40920-081430FM-16+0377KCAK V0201701N004110150019N0096561N1+01701+01301999999ADDGA1999+011101091GD12991+0111019GD23991+0150019GD34991+0180019GF108991999999999999999999MA1101121999999MW1811MW2951REMMET132KCAK 060831Z 17008KT 6SM TSRA FEW037CB BKN050 OVC065 17/13 A2986 RMK AO2 TSB31 FRQ LTGICCC S-NW AND OHD TS S-NW AND OHD MOV E P0002;EQDQ01+000003PRSWM1Q02    003PRSWM1
0054725210148952000081210009+40917-081433NSRDB+036899999V020999999999999999999999999999+99999+99999999999ADDGP10060000002000000002000000002000GR100600000900009
039172521014895200008121351C+40917-081433FM-15+0368CAK  V0203205N00465220005MN0160005N1+02065+01565101725ADDAA101000095GD11995+0106759GD22995+0304859GF104991999999999999999999MA1101795999999MW1001REMMET099KCAK 121351Z 32009KT 10SM FEW035 SCT100 21/16 A3006 RMK AO2 SLP172 MDT CU DSNT NW AND SW T02060156;EQDQ01+000000PRSWM2N01 00000JPWTH 0QNNAA1D0 02035BA1 0 01035AA1D0 02100BA1 0 02100GA1U0 99999KA1D0 00060JA1 0 00156LA1 0 01000CA1 0 03006NA1 0 00000QA1 0 10172SA1D0 00069RA1 0 00206YA1 0 32009
0054725210148952000081702009+40917-081433NSRDB+036899999V020999999999999999999999999999+99999+99999999999ADDGP10060000002000000002000000002000GR100600000900009
041372521014895200008182151C+40917-081433FM-15+0368CAK  V0203405N00315012805MN0160005N1+01945+01445101755ADDAA101000095GD12995+0085359GD23995+0128059GD33995+0198159GF107991999999999999999999MA1101765999999MW1001REMMET084KCAK 182151Z 34006KT 10SM SCT028 BKN042 BKN065 19/14 A3005 RMK AO2 SLP175 T01940144;EQDQ01+000000PRSWM2N01 00000JPWTH 0QNNAA1D0 02028BA1 0 02028AA1D0 04042BA1 0 04042AA1D0 04065BA1 0 04065GA1 0 00042KA1D0 00058JA1 0 00144LA1 0 01000CA1 0 03005NA1 0 00000QA1 0 10175SA1D0 00067RA1 0 00194YA1 0 34006
0054725210148952000082110009+40917-081433NSRDB+036899999V020999999999999999999999999999+99999+99999999999ADDGP10060000002000000002000000002000GR100600000900009
0071725210148952000082311009+40917-081433NSRDB+036899999V020999999999999999999999999999+99999+99999999999ADDGP10060000002008000002015000002008GQ100600888907579GR100600007903239
0192725210148952000082416254+40920-081430FM-15+0377KCAK V0200701N001510045019N0096561N1+02201+01901999999ADDGD13991+0045019GD24991+0600019GF108991999999999999999999MA1102001999999MW1051REMMET068KCAK 241625Z 07003KT 6SM HZ BKN015 OVC200 22/19 A3012 RMK AO2 PNO $;EQDQ01+000003PRSWM1Q02    003PRSWM1
039372521014895200008241651C+40917-081433FM-15+0368CAK  V0209999V00155007325MN0096005N1+02335+01895101925ADDAA101000095GD13995+0073259GD24995+0609659GF108991999999999999999999MA1102005999999MW1055REMMET085KCAK 241651Z VRB03KT 6SM HZ BKN024 OVC200 23/19 A3012 RMK AO2 SLP192 T02330189 PNO $;EQDQ01+000003PRSWM1Q02    003PRSWM1N01 00081JPWTH 0QNNAA1D0 04024BA1 0 04024AA1D0 06200BA1 0 06200GA1 0 00024KA1D0 00066JA1 0 00189LA1 0 00600CA1 0 03012NA1 0 00081QA1 0 10192SA1D0 00074RA1 0 00233YA1 0 00003
0071725210148952000082520009+40917-081433NSRDB+036899999V020999999999999999999999999999+99999+99999999999ADDGP10060071102008071502015016902008GQ100600408922999GR100601012913389
032472521014895200008291951C+40917-081433FM-15+0368CAK  V0201205N00675220005MN0144005N1+02675+01785101745ADDAA101000095GD12995+0128059GF104991999999999999999999MA1101835999999MW1001REMMET069KCAK 291951Z 12013KT 9SM SCT042 27/18 A3007 RMK AO2 SLP174 T02670178;EQDQ01+000000PRSWM2N01 00000JPWTH 0QNNAA1D0 02042BA1 0 02042GA1U0 99999KA1D0 00064JA1 0 00178LA1 0 00900CA1 0 03007NA1 0 00000QA1 0 10174SA1D0 00080RA1 0 00267YA1 0 12013
043772521014895200009011351C+40917-081433FM-15+0368CAK  V0201405N00215009145MN0096005N1+02225+02115101835ADDAA101000095GD13995+0091459GD23995+0137259GD34995+0609659GF108991999999999999999999MA1101935999999MW1101MW2455REMMET086KCAK 011351Z 14004KT 6SM BR BKN030 BKN045 OVC200 22/21 A3010 RMK AO2 SLP183 T02220211;EQDQ01+000003PRSWM1Q02    003PRSWM1N01 00070JPWTH 0QNNAA1D0 04030BA1 0 04030AA1D0 04045BA1 0 04045AA1D0 06200BA1 0 06200GA1 0 00030KA1D0 00070JA1 0 00211LA1 0 00600CA1 0 03010NA1 0 00070QA1 0 10183SA1D0 00072RA1 0 00222YA1 0 14004
0054725210148952000090305009+40917-081433NSRDB+036899999V020999999999999999999999999999+99999+99999999999ADDGP10060000002000000002000000002000GR100600000900009
0071725210148952000090320009+40917-081433NSRDB+036899999V020999999999999999999999999999+99999+99999999999ADDGP10060059402008042902015028402008GQ100600438922809GR100600969913449
039572521014895200009051451C+40917-081433FM-15+0368CAK  V0200505N00825220005MN0160005N1+01335+00615102715ADDAA101000095GD11995+0106759GD22995+0609659GF104991999999999999999999MA1102715999999MD1110071+9999MW1001REMMET089KCAK 051451Z 05016KT 10SM FEW035 SCT200 13/06 A3033 RMK AO2 SLP271 8/108 T01330061 51007;EQDQ01+000000PRSWM2N01 00000JPWTH 0QNNAA1D0 02035BA1 0 01035AA1D0 02200BA1 0 02200GA1U0 99999KA1D0 00043JA1 0 00061LA1 0 01000CA1 0 03033NA1 0 00000QA1 0 10271SA1D0 00056RA1 0 00133YA1 0 05016
033372521014895200009061851C+40917-081433FM-15+0368CAK  V0201405N00365220005MN0160005N1+02065+00725102745ADDAA101000095GD11995+0609659GF102991999999999999999999MA1102745999999MW1001REMMET078KCAK 061851Z 14007KT 090V160 10SM FEW200 21/07 A3034 RMK AO2 SLP274 T02060072;EQDQ01+000000PRSWM2N01 00000JPWTH 0QNNAA1D0 02200BA1 0 01200GA1U0 99999KA1D0 00045JA1 0 00072LA1 0 01000CA1 0 03034NA1 0 00000QA1 0 10274SA1D0 00069RA1 0 00206YA1 0 14007
0771725210148952000090804596+40918-081444SOD  +0377KCAK V020999999999999999999999999999+99999+99999999999ADDAA124000096AJ100009599999999AL12400095AN1024000095KA1240M+02395KA2240N+00895MG1097739999994OE11240080516013285OE22240058118017135OE33240032699999995REMSOD59224 HR PRECIPITATION (IN): 0.00 SNOW DEPTH (IN):0     24 HR SNOWFALL (IN):  .0 24 HR MAX TEMP (F): 7524 HR MAX TEMP TIME (LST):1652 24 HR MIN TEMP (F): 4824 HR MIN TEMP TIME (LST):0622 AVERAGE STATION PRESSURE:28.86  PEAK WIND SPEED (MPH): 18 PEAK WIND DIR (DEG):160 PEAK WIND TIME (LST):1328  FASTEST 2MIN SPEED (MPH): 13FASTEST 2MIN DIR (DEG):180 FASTEST 2MIN TIME (LST):1713 AVERAGE WIND SPEED (MPH): 7.3 24 HR AVG TEMP (F):62 HOURLY INCREMENTAL PRECIPITATION VALUES (IN):.00  .00  .00  .00  .00  .00  .00  .00  .00  .00  .00  .00  .00  .00  .00  .00  .00  .00  .00  .00  .00  .00  .00  .00EQDR01  0.007AAP092
0054725210148952000090808009+40917-081433NSRDB+036899999V020999999999999999999999999999+99999+99999999999ADDGP10060000002000000002000000002000GR100600000900009
0054725210148952000090910009+40917-081433NSRDB+036899999V020999999999999999999999999999+99999+99999999999ADDGP10060000002000000002000000002000GR100600000900009
041272521014895200009091851C+40917-081433FM-15+0368CAK  V0202305N00155016765MN0112005N1+02505+01945101925ADDAA101000095GD11995+0088459GD23995+0167659GD33995+0198159GF107991999999999999999999MA1102005999999MW1001REMMET083KCAK 091851Z 23003KT 7SM FEW029 BKN055 BKN065 25/19 A3012 RMK AO2 SLP192 T02500194;EQDQ01+000000PRSWM2N01 00000JPWTH 0QNNAA1D0 02029BA1 0 01029AA1D0 04055BA1 0 04055AA1D0 04065BA1 0 04065GA1 0 00055KA1D0 00067JA1 0 00194LA1 0 00700CA1 0 03012NA1 0 00000QA1 0 10192SA1D0 00077RA1 0 00250YA1 0 23003
0071725210148952000090922009+40917-081433NSRDB+036899999V020999999999999999999999999999+99999+99999999999ADDGP10060023202008009302015019302008GQ100600657925449GR100600555913489
035172521014895200009140851C+40917-081433FM-15+0368CAK  V0201505N00265220005MN0160005N1+01285+01115101545ADDAA101000095GD11995+0304859GF102991999999999999999999MA1101595999999MD1610111+9999MW1001REMMET082KCAK 140851Z 15005KT 10SM FEW100 13/11 A3000 RMK AO2 SLP154 8/070 T01280111 56011;EQDQ01+000000PRSWM2N01 00000JPWTH 0QNNAA1D0 02100BA1 0 01100GA1U0 99999KA1D0 00052JA1 0 00111LA1 0 01000CA1 0 03000NA1 0 00000QA1 0 10154SA1D0 00055RA1 0 00128YA1 0 15005
042272521014895200009152251C+40917-081433FM-15+0368CAK  V0202905N00525014335MN0160005N1+01065+00895101335ADDAA101000895GA1999+014101091GD13995+0143359GD23995+0228659GF107991999999999999999999MA1101325999999MW1001REMMET114KCAK 152251Z 29010KT 10SM BKN047CB BKN075 11/09 A2992 RMK AO2 RAE48 SLP133 CB OHD AND E-NW MOV SE P0003 T01060089;EQDQ01+000000PRSWM2N01 00000JPWTH 0QNNAA1D0 04047BA1 0 04047AA1D0 04075BA1 0 04075GA1 0 00047KA1D0 00048JA1 0 00089LA1 0 01000CA1 0 02992NA1 0 00000QA1 0 10133SA1D0 00051RA1 0 00106YA1 0 29010
0282725210148952000091605514+40920-081430FM-15+0377KCAK V0202901N004112200019N0160931N1+00901+00801101471ADDAA106003891GD12991+0084019GD22991+0210019GF104991999999999999999999KA1999M+01001KA2999N+00891MA1101461999999MD1810011+9999MW1001REMMET107KCAK 160551Z 29008KT 10SM FEW028 SCT070 09/08 A2996 RMK AO2 SLP147 8/520 60015 T00890083 10100 20089 58000;EQDQ01+000002APC3  Q02+000000PRSWM2
030772521014895200009180351C+40917-081433FM-15+0368CAK  V0202005N00315220005MN0160005N1+01225+00785101775ADDAA101000095GF100991999999999999999999MA1101795999999MW1001REMMET067KCAK 180351Z 20006KT 10SM CLR 12/08 A3006 RMK AO2 SLP177 T01220078;EQDQ01+000000PRSWM2N01 00000JPWTH 0QNNAA1D0 00000BA1 0 00000GA1U0 99999KA1D0 00046JA1 0 00078LA1 0 01000CA1 0 03006NA1 0 00000QA1 0 10177SA1D0 00054RA1 0 00122YA1 0 20006
0054725210148952000091901009+40917-081433NSRDB+036899999V020999999999999999999999999999+99999+99999999999ADDGP10060000002000000002000000002000GR100600000900009
0054725210148952000091903009+40917-081433NSRDB+036899999V020999999999999999999999999999+99999+99999999999ADDGP10060000002000000002000000002000GR100600000900009
0203725210148952000092005514+40920-081430FM-15+0377KCAK V0201801N003112200019N0160931N1+01601+01301101041ADDGF100991999999999999999999KA1999M+01941KA2999N+01561MA1101121999999MD1810011+9999MW1001REMMET085KCAK 200551Z 18006KT 10SM CLR 16/13 A2986 RMK AO2 SLP104 T01560128 10194 20156 58001;EQDQ01+000000PRSWM2
0328725210148952000092102104+40920-081430FM-16+0377KCAK V0202401N010310021019N0012071N1+01901+01901999999ADDGA1999+013501091GD13991+0021019GD23991+0087019GD34991+0135019GF108991999999999999999999MA1100341999999MW1971OC101751REMMET149KCAK 210210Z 24020G34KT 3/4SM +TSRA BR BKN007 BKN029 OVC045CB 19/19 A2963 RMK AO2 PK WND 25034/0205 WSHFT 0153 FRQ LTGIC ALQDS TS ALQDS MOV NE P0044;EQDQ01+000820PRSWM3Q02+000100PRSWM4Q03+000003PRSWM1
0210725210148952000092407434+40920-081430FM-16+0377KCAK V0203401N004610012019N0040231N1+01501+01501999999ADDGD14991+0012019GF108991999999999999999999MA1101151999999MW1511REMMET085KCAK 240743Z 34009KT 2 1/2SM -DZ BR OVC004 15/15 A2987 RMK AO2 RAB41E42DZB42 P0000 $;EQDQ01+000100PRSWM3Q02+000003PRSWM1Q03    003PRSWM1
032772521014895200009280251C+40917-081433FM-15+0368CAK  V0202105N00215220005MN0160005N1+01225+00895102075ADDAA101000095GF100991999999999999999999MA1102075999999MD1010091+9999MW1001REMMET073KCAK 280251Z 21004KT 10SM CLR 12/09 A3014 RMK AO2 SLP207 T01220089 50009;EQDQ01+000000PRSWM2N01 00000JPWTH 0QNNAA1D0 00000BA1 0 00000GA1U0 99999KA1D0 00048JA1 0 00089LA1 0 01000CA1 0 03014NA1 0 00000QA1 0 10207SA1D0 00054RA1 0 00122YA1 0 21004
0477725210148952000092818003+40917-081433SY-MT+0368CAK  V0203505N00365010675MN0160005N1+01285+00505102635ADDAA101000095GD13995+0106759GF106991999011012501001001GP10060038302008005402015034402008GQ100600435918509GR100600988913629KA1120M+01391KA2240N+01001MA1102615098111MD1010031+9999REMSYN104AAXX  28184 72521 32666 63507 10128 20050 39811 40263 50003 8/100 91751 333 10139 20100 91015 555 92818;EQDQ01  00002PRCP99Q02  00003PRCP99N01 00000JPWTH 0QNNAA1D0 04035BA1 0 04035GA1 0 00035KA1D0 00041JA1 0 00050LA1 0 01000CA1 0 03030NA1 0 00000QA1 0 10263SA1D0 00055RA1 0 00128YA1 0 35007
032472521014895200009281851C+40917-081433FM-15+0368CAK  V0200105N00415011895MN0160005N1+01395+00395102565ADDAA101000095GD13995+0118959GF107991999999999999999999MA1102545999999MW1001REMMET069KCAK 281851Z 01008K 10SM BKN039 14/04 A3028 RMK AO2 SLP256 T01390039;EQDQ01+000000PRSWM2N01 00000JPWTH 0QNNAA1D0 04039BA1 0 04039GA1 0 00039KA1D0 00039JA1 0 00039LA1 0 01000CA1 0 03028NA1 0 00000QA1 0 10256SA1D0 00057RA1 0 00139YA1 0 01008
037372521014895200010032151C+40917-081433FM-15+0368CAK  V0202705N00155220005MN0160005N1+02225+01065101505ADDAA101000095GD11995+0457259GD21995+0762059GF102991999999999999999999MA1101595999999MW1001REMMET081KCAK 032151Z COR 27003KT 10SM FEW150 FEW250 22/11 A3000 RMK AO2 SLP150 T02220106;EQDQ01+000000PRSWM2N01 00000JPWTH 0QNNAA1D0 02150BA1 0 01150AA1D0 02250BA1 0 01250GA1U0 99999KA1D0 00051JA1 0 00106LA1 0 01000CA1 0 03000NA1 0 00000QA1 0 10150SA1D0 00072RA1 0 00222YA1 0 27003
0351725210148952000100611514+40920-081430FM-15+0377KCAK V0202401N002110012019N0016091N1+01201+01101101301ADDAA101000021AA206000021AA324012791GD14991+0012019GF108991999999999999999999KA1999M+01171KA2999N+01061MA1101291999999MD1110131+9999MW1101MW2511REMMET163KCAK 061151Z COR 24004KT 1SM -DZ BR OVC004 12/11 A2991 RMK AO2 SFC VIS 2 SLP130 DZB36 VIS S 1 1/4 SW 1 W 1 1/4 8/6// P0000 60000 70050 T01170111 10117 20106 51013;EQDQ01+000003PRSWM1Q02    003PRSWM1
042272521014895200010061451C+40917-081433FM-15+0368CAK  V0203305N00575001225MN0080005N1+01065+01065101475ADDAA101000025AA203000391GD14995+0012259GF108991999999999999999999MA1101465999999MD1310151+9999MW1101MW2455MW3515REMMET114KCAK 061451Z 33011KT 5SM -DZ BR OVC004 11/11 A2996 RMK AO2 SLP147 DZB1359E34B45 8/6// P0000 60001 T01060106 53015;EQDQ01+000003PRSWM1Q02    003PRSWM1N01 03370JPWTH 0QNNAA1D0 06004BA1 0 06004GA1 0 00004KA1D0 00051JA1 0 00106LA1 0 00500CA1 0 02996NA1 0 03370QA1 0 10147SA1D0 00051RA1 0 00106YA1 0 33011
0054725210148952000100707009+40917-081433NSRDB+036899999V020999999999999999999999999999+99999+99999999999ADDGP10060000002000000002000000002000GR100600000900009
0491725210148952000100800003+40917-081433SY-MT+0368CAK  V0202605N00415220005MN0160005N1+00285-00175102555ADDAA101000095GD11995+0152459GD22995+0243859GF104991999081017501011001GP10060000002000000002000000002000GR100600000900009KA1120M+00831KA2180N+00061MA1102445097951MD1310061+9999REMSYN098AAXX  08004 72521 32766 42608 10028 21017 39795 40255 53006 8/810 92351 333 10083 20006 555 90800;EQDQ01  00002PRCP99Q02  00003PRCP99N01 00000JPWTH 0QNNAA1D0 02050BA1 0 01050AA1D0 02080BA1 0 02080GA1U0 99999KA1D0 00029JA1 0-00017LA1 0 01000CA1 0 03025NA1 0 00000QA1 0 10255SA1D0 00037RA1 0 00028YA1 0 26008
0071725210148952000101020009+40917-081433NSRDB+036899999V020999999999999999999999999999+99999+99999999999ADDGP10060051402008075802015010502008GQ100600574922169GR100600738913729
0224725210148952000101712014+40920-081430FM-16+0377KCAK V0200401N002110240019N0028161N1+01101+01101999999ADDGD12991+0105019GD23991+0240019GD34991+0300019GF108991999999999999999999MA1102101999999MW1101REMMET085KCAK 171201Z 04004KT 1 3/4SM BR SCT035 BKN085 OVC100 11/11 A3015 RMK AO2 RAE00 P0000;EQDQ01+000003PRSWM1Q02    003PRSWM1
0071725210148952000101713009+40917-081433NSRDB+036899999V020999999999999999999999999999+99999+99999999999ADDGP10060002202009000002021002202009GQ100600816911039GR100600200913779
034372521014895200010191951C+40917-081433FM-15+0368CAK  V0203005N00415220005MN0096005N1+01895+01065102155ADDAA101000095GD11995+0167659GF102991999999999999999999MA1102175999999MW1055REMMET072KCAK 191951Z 30008KT 6SM HZ FEW055 19/11 A3017 RMK AO2 SLP215 T01890106;EQDQ01+000003PRSWM1Q02    003PRSWM1N01 00081JPWTH 0QNNAA1D0 02055BA1 0 01055GA1U0 99999KA1D0 00051JA1 0 00106LA1 0 00600CA1 0 03017NA1 0 00081QA1 0 10215SA1D0 00066RA1 0 00189YA1 0 30008
0054725210148952000102204009+40917-081433NSRDB+036899999V020999999999999999999999999999+99999+99999999999ADDGP10060000002000000002000000002000GR100600000900009
0464725210148952000102306003+40917-081433SY-MT+0368CAK  V0200805N00155220005MN0160005N1+00895+00615103225ADDAA101000095GA1001+999999999GD10995+9999999GF100991001001999999001001GP10060000002000000002000000002000GR100600000900009KA1240M+01441KA2240N+00781MA1103225098701MD1510001+9999REMSYN092AAXX  23064 72521 32966 00803 10089 20061 39870 40322 55000 90551 333 10144 20078 555 92306;EQDQ01  00002PRCP99Q02  00003PRCP99N01 00000JPWTH 0QNNAA1D0 00000BA1 0 00000GA1U0 99999KA1D0 00043JA1 0 00061LA1 0 01000CA1 0 03048NA1 0 00000QA1 0 10322SA1D0 00048RA1 0 00089YA1 0 08003
042272521014895200010241251C+40917-081433FM-15+0368CAK  V0202305N00155005185MN0008005N1+01395+01395102935ADDAA101002895GD13995+0051859GD24995+0085359GF108991999999999999999999MA1102955999999MW1441MW2455MW3635REMMET102KCAK 241251Z 23003KT 1/2SM RA FG BKN017 OVC028 14/14 A3040 RMK AO2 SLP293 CIG 014V021 P0011 T01390139;EQDQ01+000003PRSWM1Q02    003PRSWM1N01 02170JPWTH 0QNNAA1D0 04017BA1 0 04017AA1D0 06028BA1 0 06028GA1 0 00017KA1D0 00057JA1 0 00139LA1 0 00050CA1 0 03040NA1 0 02170QA1 0 10293SA1D0 00057RA1 0 00139YA1 0 23003
0071725210148952000102820009+40917-081433NSRDB+036899999V020999999999999999999999999999+99999+99999999999ADDGP10060041202009070702021009402009GQ100600634921879GR100600621913869
0071725210148952000102821009+40917-081433NSRDB+036899999V020999999999999999999999999999+99999+99999999999ADDGP10060027402009059202021008502009GQ100600714923199GR100600441913869
042072521014895200011031551C+40917-081433FM-15+0368CAK  V0202905N003650750019N0064005N1+01565+01285102035ADDAA101000095GD11995+0125059GD22995+0167659GD34995+0762059GF108991999999999999999999MA1102035999999MW1055REMMET086KCAK 031551Z 29007KT 4SM HZ FEW041 SCT055 OVC250 16/13 A3013 RMK AO2 SLP203 T01560128;EQDQ01+000003PRSWM1Q02    003PRSWM1N01 00081JPWTH 0QNNAA1D0 02041BA1 0 01041AA1D0 02055BA1 0 02055AA1D0 06250BA1 0 06250KA1D0 00055JA1 0 00128LA1 0 00400CA1 0 03013NA1 0 00081QA1 0 10203SA1D0 00060RA1 0 00156YA1 0 29007
032472521014895200011050751C+40917-081433FM-15+0368CAK  V0202805N00265220005MN0144005N1+00395+00175101725ADDAA101000095GD11995+0182959GF102991999999999999999999MA1101665999999MW1001REMMET069KCAK 050751Z 28005KT 9SM FEW060 04/02 A3002 RMK AO2 SLP172 T00390017;EQDQ01+000000PRSWM2N01 00000JPWTH 0QNNAA1D0 02060BA1 0 01060GA1U0 99999KA1D0 00035JA1 0 00017LA1 0 00900CA1 0 03002NA1 0 00000QA1 0 10172SA1D0 00039RA1 0 00039YA1 0 28005
0071725210148952000110520009+40917-081433NSRDB+036899999V020999999999999999999999999999+99999+99999999999ADDGP10060036502009057602021012602009GQ100600656921749GR100600575913929
032672521014895200011052151C+40917-081433FM-15+0368CAK  V0203505N00155220005MN0160005N1+00945-00065101865ADDAA101000095GD11995+0762059GF102991999999999999999999MA1101795999999MW1001REMMET071KCAK 052151Z 35003KT 10SM FEW250 09/M01 A3006 RMK AO2 SLP186 T00941006;EQDQ01+000000PRSWM2N01 00000JPWTH 0QNNAA1D0 02250BA1 0 01250GA1U0 99999KA1D0 00031JA1 0-00006LA1 0 01000CA1 0 03006NA1 0 00000QA1 0 10186SA1D0 00049RA1 0 00094YA1 0 35003
0071725210148952000110619009+40917-081433NSRDB+036899999V020999999999999999999999999999+99999+99999999999ADDGP10060045002009061902021014202009GQ100600602920239GR100600691913939
0244725210148952000110917103+40920-081430FM-16+0377KCAK V0201601N008210030019N0096561N1+01801+01701999999ADDGD14991+0030019GF108991999999999999999999GP10060012302009000002021012302009GQ100600588916899GR100600722913959MA1100201999999MW1101REMMET067KCAK 091710Z 16016KT 6SM BR OVC010 18/17 A2959 RMK AO2 RAE10 P0000;EQDQ01+000003PRSWM1Q02    003PRSWM1
0054725210148952000111011009+40917-081433NSRDB+036899999V020999999999999999999999999999+99999+99999999999ADDGP10060000002000000002000000002000GR100600000900009
0054725210148952000111307009+40917-081433NSRDB+036899999V020999999999999999999999999999+99999+99999999999ADDGP10060000002000000002000000002000GR100600000900009
0429725210148952000112011003+40917-081433FM-15+0368CAK  V0202305N00775084735MN0032005N1-00065-00175101045ADDAA101000025GD14995+0082359GD24991+0054019GF108991999999999999999999GP10060000002000000002000000002000GR100600000900009MA1100915999999MW1101MW2455MW3715REMMET080KCAK 201100Z 23015KT 1 1/4SM -SN BR FEW007 OVC018 M01/M01 A2980 RMK AO2 P0000 $;EQDQ01+000003PRSWM1Q02    003PRSWM1N01 04070JPWTH 0QNNAA1D0 06027BA1 0 06027GA1 0 00278KA1D0 00029JA1 0-00017LA1 0 00200CA1 0 02980NA1 0 04070QA1 0 10104SA1D0 00031RA1 0-00006YA1 0 23015
0536725210148952000112018003+40917-081433SY-MT+0368CAK  V0202605N01135011285MN0160005N1-00285-00835101325ADDAA101000025AA206000391GD11995+0070159GD23995+0112859GD34995+0213459GF108991999081008001021999GP10060013702009000002021013702009GQ100600610918509GR100600679914029KA1120M+00221KA2240N-00441MA1101195096741MD1010121+9999REMSYN110AAXX  20184 72521 12566 82622 11028 21083 39674 40132 50012 69931 8/82/ 91751 333 10022 21044 91029 555 92018;EQDN01 00000JPWTH 0QNNAA1D0 02023BA1 0 01023AA1D0 04037BA1 0 04037AA1D0 06070BA1 0 06070GA1 0 00037KA1D0 00017JA1 0-00083LA1 0 01000CA1 0 02988NA1 0 00000QA1 0 10132SA1D0 00027RA1 0-00028YA1 0 26022
0054725210148952000112705009+40917-081433NSRDB+036899999V020999999999999999999999999999+99999+99999999999ADDGP10060000002000000002000000002000GR100600000900009
0183725210148952000112705334+40920-081430FM-16+0377KCAK V0202401N00621001801CN0144841N1+00301+00301999999ADDGD14991+0024019GF108991999999999999999999MA1100581999999MW1611REMMET074KCAK 270533Z 24012KT 9SM -RA OVC008 03/03 A2970 RMK AO2 CIG 006V011 P0000;EQDQ01+000003PRSWM1Q02    003PRSWM1
005172521014895200011280459O+40917-081433SOD  +036899999V020999999999999999999999999999+99999+99999999999ADDAT1MW16RA  5AT2MW14DZ  1AT3MW01FG  5AT4MW13BR  1
005172521014895200012010459O+40917-081433SOD  +036899999V020999999999999999999999999999+99999+99999999999ADDAT1MW16RA  1AT2MW18SN  5AT3MW01FG  5AT4MW13BR  1
0230725210148952000120208103+40920-081430FM-16+0377KCAK V02099999999990078019N9999999N1-00401-00601999999ADDGD13991+0078019GD24991+0108019GF108991999999999999999999GP10060000002000000002000000002000GR100600000900009MA1102951999999MW1001REMMET071KCAK 020810Z 8SM -SN BKN026 OVC036 M04/M06 A3040 RMK AO2 SNB08 P0000 $;EQDQ01+000000PRSWM2
032972521014895200012021051C+40917-081433FM-15+0368CAK  V0200505N00265220005MN0160005N1-00505-00785103205ADDAA101000095GD11995+0137259GF102991999999999999999999MA1103055999999MW1001REMMET074KCAK 021051Z 05005KT 10SM FEW045 M05/M08 A3043 RMK AO2 SLP320 T10501078 $;EQDQ01+000000PRSWM2N01 00000JPWTH 0QNNAA1D0 02045BA1 0 01045GA1U0 99999KA1D0 00018JA1 0-00078LA1 0 01000CA1 0 03043NA1 0 00000QA1 0 10320SA1D0 00023RA1 0-00050YA1 0 05005
037172521014895200012022151C+40917-081433FM-15+0368CAK  V0200405N00365220005MN0160005N1-00395-01005103505ADDAA101000095GD11995+0091459GD22995+0609659GF104991999999999999999999MA1103325999999MW1001REMMET079KCAK 022151Z 04007KT 10SM FEW030 SCT200 M04/M10 A3051 RMK AO2 SLP350 T10391100;EQDQ01+000000PRSWM2N01 00000JPWTH 0QNNAA1D0 02030BA1 0 01030AA1D0 02200BA1 0 02200GA1U0 99999KA1D0 00014JA1 0-00100LA1 0 01000CA1 0 03051NA1 0 00000QA1 0 10350SA1D0 00025RA1 0-00039YA1 0 04007
0234725210148952000120514024+40920-081430FM-16+0377KCAK V0202901N010810075019N0004021N1-00201-00201999999ADDGD12991+0051019GD24991+0075019GF108991999999999999999999MA1101421999999MW1381MW2481MW3751OC101491REMMET106KCAK 051402Z 29021G29KT 1/4SM +SN BLSN FZFG FEW017 OVC025 M02/M02 A2995 RMK AO2 PK WND 28029/1400 P0001 $;EQDQ01+000003PRSWM1
040372521014895200012091551C+40917-081433FM-15+0368CAK  V0201905N001550750019N0144005N1-00615-01005103145ADDAA101000095GD11995+0121959GD22995+0609659GD33995+0762059GF107991999999999999999999MA1102955999999MW1001REMMET085KCAK 091551Z 19003KT 9SM FEW040 SCT200 BKN250 M06/M10 A3040 RMK AO2 SLP314 T10611100;EQDQ01+000000PRSWM2N01 00000JPWTH 0QNNAA1D0 02040BA1 0 01040AA1D0 02200BA1 0 02200AA1D0 04250BA1 0 04250KA1D0 00014JA1 0-00100LA1 0 00900CA1 0 03040NA1 0 00000QA1 0 10314SA1D0 00021RA1 0-00061YA1 0 19003
0523725210148952000121100003+40917-081433SY-MT+0368CAK  V0201905N00315001225MN0032005N1+00065+00065102095ADDAA101000395AA206000391AJ100059199999999GD13995+0012259GD24995+0088459GF108991999061001501999999GP10060000002000000002000000002000GR100600000900009KA1120M+00171KA2180N-00771MA1101935097461MD1310061+9999MW1455MW2615REMSYN122AAXX  11004 72521 11232 81906 10006 20006 39746 40209 53006 69931 761// 8/6// 92351 333 10017 21077 4/005 96010 555 91100;EQDN01 02070JPWTH 0QNNAA1D0 04004BA1 0 04004AA1D0 06029BA1 0 06029GA1 0 00004KA1D0 00033JA1 0 00006LA1 0 00200CA1 0 03010NA1 0 02070QA1 0 10209SA1D0 00033RA1 0 00006YA1 0 19006
0054725210148952000121102009+40917-081433NSRDB+036899999V020999999999999999999999999999+99999+99999999999ADDGP10060000002000000002000000002000GR100600000900009
0168725210148952000121113304+40920-081430FM-15+0377KCAK V0201001N004110003019N0008051N1+00101+00101999999ADDGD14991+0003019GF108991999999999999999999MA1101801999999MW1481REMMET059KCAK 111330Z 10008KT 1/2SM FZFG OVC001 01/01 A3006 RMK AO2;EQDQ01+000003PRSWM1Q02    003PRSWM1
0054725210148952000121307009+40917-081433NSRDB+036899999V020999999999999999999999999999+99999+99999999999ADDGP10060000002000000002000000002000GR100600000900009
0215725210148952000121416304+40920-081430FM-15+0377KCAK V0202701N005710024019N0032181N1-00301-00401999999ADDAA101000021GD13991+0024019GD24991+0042019GF108991999999999999999999MA1102241999999MW1101MW2711REMMET074KCAK 141630Z 27011KT 2SM -SN BR BKN008 OVC014 M03/M04 A3019 RMK AO2 P0000;EQDQ01+000003PRSWM1Q02    003PRSWM1
0071725210148952000121419009+40917-081433NSRDB+036899999V020999999999999999999999999999+99999+99999999999ADDGP10060008602009000002021008602009GQ100600662919749GR100600569914129
0298725210148952000121702003+40917-081433FM-15+0368CAK  V0201505N00365185325MN001600599+00835+00835100155ADDAA101001395GD11995+0006159GD24995+0182959GP10060000002000000002000000002000GR100600000900009MA1100105999999MW1455MW2615EQDN01 02070JPWTH 0QNNAA1D0 02002BA1 0 01002AA1D0 06060BA1 0 06060GA1 0 00608KA1D0 00047JA1 0 00083LA1 0 00100CA1 0 02956NA1 0 02070QA1 0 10015SA1D0 00047RA1 0 00083YA1 0 15007
0054725210148952000121803009+40917-081433NSRDB+036899999V020999999999999999999999999999+99999+99999999999ADDGP10060000002000000002000000002000GR100600000900009
039772521014895200012182051C+40917-081433FM-15+0368CAK  V0202005N00365220005MN0160005N1-00835-01335101975ADDAA101000095GD12995+0396259GD22995+0609659GF104991999999999999999999MA1101735999999MD1510101+9999MW1001REMMET091KCAK 182051Z 20007KT 10SM SCT130 SCT200 M08/M13 A3004 RMK AO2 SLP197 8/071 T10831133 55010;EQDQ01+000000PRSWM2N01 00000JPWTH 0QNNAA1D0 02130BA1 0 02130AA1D0 02200BA1 0 02200GA1U0 99999KA1D0 00008JA1 0-00133LA1 0 01000CA1 0 03004NA1 0 00000QA1 0 10197SA1D0 00017RA1 0-00083YA1 0 20007
0054725210148952000121907009+40917-081433NSRDB+036899999V020999999999999999999999999999+99999+99999999999ADDGP10060000002000000002000000002000GR100600000900009
036772521014895200012200951C+40917-081433FM-15+0368CAK  V0202605N00525035975MN0032005N1-01175-01335101735ADDAA101000025GD14995+0033559GF108991999999999999999999MA1101495999999MW1101MW2455MW3715REMMET084KCAK 200951Z 26010KT 2SM -SN BR OVC011 M12/M13 A2997 RMK AO2 SLP173 P0000 T11171133;EQDQ01+000003PRSWM1Q02    003PRSWM1N01 04070JPWTH 0QNNAA1D0 06011BA1 0 06011GA1 0 00118KA1D0 00008JA1 0-00133LA1 0 00200CA1 0 02997NA1 0 04070QA1 0 10173SA1D0 00011RA1 0-00117YA1 0 26010
0054725210148952000122409009+40917-081433NSRDB+036899999V020999999999999999999999999999+99999+99999999999ADDGP10060000002000000002000000002000GR100600000900009
035372521014895200012260251C+40917-081433FM-15+0368CAK  V0202805N00215220005MN0160005N1-01395-01835103995ADDAA101000095GD11995+0243859GF102991999999999999999999MA1103695999999MD1810011+9999MW1001REMMET084KCAK 260251Z 28004KT 10SM FEW080 M14/M18 A3062 RMK AO2 SLP399 8/030 T11391183 58001;EQDQ01+000000PRSWM2N01 00000JPWTH 0QNNAA1D0 02080BA1 0 01080GA1U0 99999KA1D0-00001JA1 0-00183LA1 0 01000CA1 0 03062NA1 0 00000QA1 0 10399SA1D0 00007RA1 0-00139YA1 0 28004
037072521014895200012281451C+40917-081433FM-15+0368CAK  V0203105N00525220005MN0160005N1-01335-01615102355ADDAA101000095AA203000021GD11995+0036659GF102991999999999999999999MA1102105999999MD1210081+9999MW1001REMMET090KCAK 281451Z 31010KT 10SM FEW012 M13/M16 A3015 RMK AO2 SLP235 8/100 60000 T11331161 52008;EQDQ01+000000PRSWM2N01 00000JPWTH 0QNNAA1D0 02012BA1 0 01012GA1U0 99999KA1D0 00003JA1 0-00161LA1 0 01000CA1 0 03015NA1 0 00000QA1 0 10235SA1D0 00008RA1 0-00133YA1 0 31010
0191725214999992000010212534+41350-082180FM-15+0242KLPR V0201801N005112200019N0064371N1+00801+00701101441ADDGD12991+0300019GF102991999999999999999999MA1101421999999MW1101REMMET082KLPR 021253Z AUTO 18010KT 4SM BR FEW100 08/07 A2995 RMK AO2 SLP144 T00830072 TSNO;EQDQ01+000003PRSWM1Q02    003PRSWM1
0071725214999992000011317009+41350-082183NSRDB+024299999V020999999999999999999999999999+99999+99999999999ADDGP10060023902009010302021019502009GQ100600649916279GR100600601914149
0157725214999992000011512534+41350-082180FM-15+0242KLPR V0201701N006212200019N0160931N1-00701-01101103251ADDGF100991999999999999999999MA1103121999999MW1001REMMET079KLPR 151253Z AUTO 17012KT 10SM CLR M07/M11 A3045 RMK AO2 SLP325 T10671111 TSNO;EQDQ01+000000PRSWM2
0071725214999992000011922009+41350-082183NSRDB+024299999V020999999999999999999999999999+99999+99999999999ADDGP10060008002009018402021005202009GQ100600815923329GR100600209914139
0071725214999992000012120009+41350-082183NSRDB+024299999V020999999999999999999999999999+99999+99999999999ADDGP10060024202009011202021019702009GQ100600664920829GR100600565914139
0193725214999992000012313534+41350-082180FM-15+0242KLPR V0201901N004110024019N0080461N1-00601-00701101601ADDGD14991+0024019GF108991999999999999999999MA1101491999999MW1101REMMET084KLPR 231353Z AUTO 19008KT 5SM BR OVC008 M06/M07 A2997 RMK AO2 SLP160 T10561067 TSNO;EQDQ01+000003PRSWM1Q02    003PRSWM1
0193725214999992000012319534+41350-082180FM-15+0242KLPR V0202101N007210042019N0096561N1-00201-00401101391ADDGD14991+0042019GF108991999999999999999999MA1101291999999MW1101REMMET084KLPR 231953Z AUTO 21014KT 6SM BR OVC014 M02/M04 A2991 RMK AO2 SLP139 T10221044 TSNO;EQDQ01+000003PRSWM1Q02    003PRSWM1
0071725214999992000012513009+41350-082183NSRDB+024299999V020999999999999999999999999999+99999+99999999999ADDGP10060000002009000002021000002009GQ100600891911629GR100600004902719
0054725214999992000012703009+41350-082183NSRDB+024299999V020999999999999999999999999999+99999+99999999999ADDGP10060000002000000002000000002000GR100600000900009
0280725214999992000020105534+41350-082180FM-15+0242KLPR V0202401N009810054019N0112651N1-00601-00801101391ADDAA101000021AA206000021GD14991+0054019GF108991999999999999999999KA1999M-00441KA2999N-00611MA1101291999999MD1810061+9999MW1001REMMET125KLPR 010553Z AUTO 24019KT 7SM OVC018 M06/M08 A2991 RMK AO2 SNE0459B22E34 SLP139 P0000 60000 T10611083 11044 21061 58006 TSNO;EQDQ01+000000PRSWM2
0071725214999992000020221009+41350-082183NSRDB+024299999V020999999999999999999999999999+99999+99999999999ADDGP10060024002009025002021015402009GQ100600699922289GR100600483914089
0197725214999992000020501534+41350-082180FM-15+0242KLPR V0203601N004110054019N0128741N1-00301-00701102011ADDAA101000021GD14991+0054019GF108991999999999999999999MA1101901999999MW1001REMMET093KLPR 050153Z AUTO 36008KT 8SM OVC018 M03/M07 A3009 RMK AO2 SNE52 SLP201 P0000 T10331067 TSNO;EQDQ01+000000PRSWM2
0054725214999992000021403009+41350-082183NSRDB+024299999V020999999999999999999999999999+99999+99999999999ADDGP10060000002000000002000000002000GR100600000900009
0071725214999992000021700009+41350-082183NSRDB+024299999V020999999999999999999999999999+99999+99999999999ADDGP10060000002009000002021000002009GQ100600899925399GR100600000900359
0220725214999992000021809534+41350-082180FM-15+0242KLPR V0201001N003610066019N0048281N1-00201-00301102151ADDAA101000021GD14991+0066019GF108991999999999999999999MA1102071999999MW1101MW2711REMMET094KLPR 180953Z AUTO 10007KT 3SM -SN BR OVC022 M02/M03 A3014 RMK AO2 SLP215 P0000 T10221028 TSNO;EQDQ01+000003PRSWM1Q02    003PRSWM1
0071725214999992000021813009+41350-082183NSRDB+024299999V020999999999999999999999999999+99999+99999999999ADDGP10060000302009000502021000202009GQ100600869910849GR100600048908989
0071725214999992000021819009+41350-082183NSRDB+024299999V020999999999999999999999999999+99999+99999999999ADDGP10060009402009000002021009402009GQ100600543919439GR100600818914009
0054725214999992000022008009+41350-082183NSRDB+024299999V020999999999999999999999999999+99999+99999999999ADDGP10060000002000000002000000002000GR100600000900009
0154725214999992000022606534+41350-082180FM-15+0242KLPR V0201501N003612200019N0128741N1+01201+01101102011ADDGF100991999999999999999999MA1102031999999MW1001REMMET076KLPR 260653Z AUTO 15007KT 8SM CLR 12/11 A3013 RMK AO2 SLP201 T01220106 TSNO;EQDQ01+000000PRSWM2
0054725214999992000022809009+41350-082183NSRDB+024299999V020999999999999999999999999999+99999+99999999999ADDGP10060000002000000002000000002000GR100600000900009
0157725214999992000030406534+41350-082180FM-15+0242KLPR V0209999C000012200019N0160931N1-00201-00701101441ADDGF100991999999999999999999MA1101391999999MW1001REMMET079KLPR 040653Z AUTO 00000KT 10SM CLR M02/M07 A2994 RMK AO2 SLP144 T10171067 TSNO;EQDQ01+000000PRSWM2
0264725214999992000031121534+41350-082180FM-15+0242KLPR V0200201N00871002401CN0024141N1-00101-00201101271ADDAA101000021GD14991+0027019GF108991999999999999999999MA1101191999999MW1101MW2711OC101081REMMET130KLPR 112153Z AUTO 02017G21KT 1 1/2SM -SN BR OVC009 M01/M02 A2988 RMK AO2 UPB09E33SNE01B33 CIG 008V011 SLP127 P0000 T10061022 TSNO;EQDQ01+000003PRSWM1Q02    003PRSWM1
0071725214999992000031222009+41350-082183NSRDB+024299999V020999999999999999999999999999+99999+99999999999ADDGP10060016102009002902021015102009GQ100600686924539GR100600504913849
0054725214999992000031601009+41350-082183NSRDB+024299999V020999999999999999999999999999+99999+99999999999ADDGP10060000002000000002000000002000GR100600000900009
0227725214999992000032114534+41350-082180FM-15+0242KLPR V0201401N00261000901CN0020111N1+00601+00501102641ADDGD14991+0018019GF108991999999999999999999MA1102611999999MD1310141+9999MW1101REMMET104KLPR 211453Z AUTO 14005KT 1 1/4SM BR OVC006 06/05 A3030 RMK AO2 CIG 003V010 SLP264 T00560050 53014 TSNO;EQDQ01+000003PRSWM1Q02    003PRSWM1
0071725214999992000032122009+41350-082183NSRDB+024299999V020999999999999999999999999999+99999+99999999999ADDGP10060015802008001702015015102008GQ100600665924849GR100600548913779
0213725214999992000032317534+41350-082180FM-15+0242KLPR V0200301N002112200019N0160931N1+01401+00601102871ADDGF100991999999999999999999KA1999M+01441KA2999N+00111MA1102841999999MD1810191+9999MW1001REMMET095KLPR 231753Z AUTO 03004KT 10SM CLR 14/06 A3037 RMK AO2 SLP287 T01440056 10144 20011 58019 TSNO;EQDQ01+000000PRSWM2
0071725214999992000032917009+41350-082183NSRDB+024299999V020999999999999999999999999999+99999+99999999999ADDGP10060036902008006002015032302008GQ100600404915529GR100601043913719
0214725214999992000033105534+41350-082180FM-15+0242KLPR V0201901N001512200019N0160931N1+00001-00301101971ADDGF100991999999999999999999KA1999M+00611KA2999N-00061MA1101901999999MD1110031+9999MW1001REMMET096KLPR 310553Z AUTO 19003KT 10SM CLR 00/M03 A3009 RMK AO2 SLP197 T00001033 10061 21006 51003 TSNO;EQDQ01+000000PRSWM2
0054725214999992000033108009+41350-082183NSRDB+024299999V020999999999999999999999999999+99999+99999999999ADDGP10060000002000000002000000002000GR100600000900009
0217725214999992000040204534+41350-082180FM-15+0242KLPR V0202301N004112200019N0160931N1+01301-00101101531ADDGD12991+0300019GF102991999999999999999999KA1999M+01891KA2999N-00111MA1101521999999MW1001REMMET098KLPR 020453Z AUTO 23008KT 10SM FEW100 13/M01 A2998 RMK AO2 PRESRR SLP153 T01281006 401891011 TSNO;EQDQ01+000000PRSWM2
0287725214999992000040211534+41350-082180FM-15+0242KLPR V0201701N005110300019N0112651N1+01001+00801101211ADDAA101000021AA206002091AA324002091GD13991+0300019GF107991999999999999999999KA1999M+01331KA2999N+01001MA1101221999999MD1810101+9999MW1001REMMET121KLPR 021153Z AUTO 17010KT 7SM BKN100 10/08 A2989 RMK AO2 RAE35 SLP121 P0000 60008 70008 T01000078 10133 20100 58010 TSNO;EQDQ01+000000PRSWM2
0071725214999992000040220009+41350-082183NSRDB+024299999V020999999999999999999999999999+99999+99999999999ADDGP10060013302008000002015013302008GQ100600447922409GR100600971913679
0168725214999992000041118534+41350-082180FM-15+0242KLPR V0200201N004110111019N0160931N1+00401+00001101911ADDGD14991+0111019GF108991999999999999999999MA1101861999999MW1001REMMET075KLPR 111853Z AUTO 02008KT 10SM OVC037 04/00 A3008 RMK AO2 SLP191 T00440000;EQDQ01+000000PRSWM2
0071725214999992000041314009+41350-082183NSRDB+024299999V020999999999999999999999999999+99999+99999999999ADDGP10060044802008064302015013902008GQ100600613910379GR100600650913599
0168725214999992000041403534+41350-082180FM-15+0242KLPR V0201301N003112200019N0160931N1+00501+00001102391ADDGD12991+0330019GF102991999999999999999999MA1102341999999MW1001REMMET075KLPR 140353Z AUTO 13006KT 10SM FEW110 05/00 A3022 RMK AO2 SLP239 T00500000;EQDQ01+000000PRSWM2
0071725214999992000041811009+41350-082183NSRDB+024299999V020999999999999999999999999999+99999+99999999999ADDGP10060000002008000002015000002008GQ100600888907599GR100600007903279
0274725214999992000042208534+41350-082180FM-15+0242KLPR V0203401N00621000601CN0040231N1+00601+00501100791ADDAA101000021AA203000021GD14991+0012019GF108991999999999999999999MA1100781999999MD1310041+9999MW1101MW2611REMMET123KLPR 220853Z AUTO 34012KT 2 1/2SM -RA BR OVC004 06/05 A2976 RMK AO2 RAB0757 CIG 002V006 SLP079 P0000 60000 T00610050 53004;EQDQ01+000003PRSWM1Q02    003PRSWM1
0225725214999992000042217534+41350-082180FM-15+0242KLPR V0203201N004610024019N0144841N1+00701+00501101051ADDGD14991+0024019GF108991999999999999999999KA1999M+00671KA2999N+00561MA1101021999999MD1110051+9999MW1001REMMET092KLPR 221753Z AUTO 32009KT 9SM OVC008 07/05 A2983 RMK AO2 SLP105 T00670050 10067 20056 51005;EQDQ01+000000PRSWM2
0171725214999992000042720534+41350-082180FM-15+0242KLPR V0200301N005112200019N0160931N1+01201-00101101361ADDGF100991999999999999999999MA1101321999999MD1610041+9999MW1001REMMET079KLPR 272053Z AUTO 03010KT 10SM CLR 12/M01 A2992 RMK AO2 SLP136 T01171006 56004;EQDQ01+000000PRSWM2
0054725214999992000050110009+41350-082183NSRDB+024299999V020999999999999999999999999999+99999+99999999999ADDGP10060000002000000002000000002000GR100600000900009
0212725214999992000050119534+41350-082180FM-15+0242KLPR V0203201N003610027019N0032181N1+01301+01201101081ADDAA101002091GD14991+0027019GF108991999999999999999999MA1101081999999MW1101MW2631REMMET086KLPR 011953Z AUTO 32007KT 2SM RA BR OVC009 13/12 A2985 RMK AO2 SLP108 P0008 T01330122;EQDQ01+000003PRSWM1Q02    003PRSWM1
0071725214999992000050300009+41350-082183NSRDB+024299999V020999999999999999999999999999+99999+99999999999ADDGP10060006902008005202015006102008GQ100600804928269GR100600224913449
0054725214999992000050305009+41350-082183NSRDB+024299999V020999999999999999999999999999+99999+99999999999ADDGP10060000002000000002000000002000GR100600000900009
0071725214999992000050323009+41350-082183NSRDB+024299999V020999999999999999999999999999+99999+99999999999ADDGP10060028002008048802015010702008GQ100600692927339GR100600477913449
0188725214999992000050420534+41350-082180FM-15+0242KLPR V0202501N005712200019N0160931N1+02601+01601101881ADDGD12991+0138019GF102991999999999999999999MA1101931999999MD1810181+9999MW1001REMMET081KLPR 042053Z AUTO 25011KT 10SM FEW046 26/16 A3010 RMK AO2 SLP188 T02560156 58018;EQDQ01+000000PRSWM2
0187725214999992000050514534+41350-082180FM-15+0242KLPR V0202601N005112200019N0112651N1+02401+01701102191ADDGD12991+0270019GF102991999999999999999999MA1102241999999MD1010031+9999MW1001REMMET080KLPR 051453Z AUTO 26010KT 7SM FEW090 24/17 A3019 RMK AO2 SLP219 T02390172 50003;EQDQ01+000000PRSWM2
0149725214999992000050601534+41350-082180FM-15+0242KLPR V0202201N003112200019N0112651N1+02001+01701101921ADDGF100991999999999999999999MA1101961999999MW1001REMMET071KLPR 060153Z AUTO 22006KT 7SM CLR 20/17 A3011 RMK AO2 SLP192 T02000167;EQDQ01+000000PRSWM2
0071725214999992000051000009+41350-082183NSRDB+024299999V020999999999999999999999999999+99999+99999999999ADDGP10060008502008006902015007302008GQ100600792928429GR100600250913409
0226725214999992000051423534+41350-082180FM-15+0242KLPR V0202901N006712200019N0064371N1+01301+00001102051ADDGF100991999999999999999999KA1999M+01671KA2999N+01331MA1102031999999MD1110091+9999MW1051REMMET092KLPR 142353Z AUTO 29013KT 4SM HZ CLR 13/00 A3013 RMK AO2 SLP205 T01330000 10167 20133 51009;EQDQ01+000003PRSWM1Q02    003PRSWM1
0171725214999992000051514534+41350-082180FM-15+0242KLPR V0203301N003612200019N0160931N1+01401-00101102311ADDGF100991999999999999999999MA1102301999999MD1110031+9999MW1001REMMET079KLPR 151453Z AUTO 33007KT 10SM CLR 14/M01 A3021 RMK AO2 SLP231 T01441006 51003;EQDQ01+000000PRSWM2
0170725214999992000051602534+41350-082180FM-15+0242KLPR V0202401N001512200019N0160931N1+00901+00301102161ADDGF100991999999999999999999MA1102171999999MD1310111+9999MW1001REMMET078KLPR 160253Z AUTO 24003KT 10SM CLR 09/03 A3017 RMK AO2 SLP216 T00890033 53011;EQDQ01+000000PRSWM2
0071725214999992000051720009+41350-082183NSRDB+024299999V020999999999999999999999999999+99999+99999999999ADDGP10060052902008017302015038602008GQ100600344923979GR100601101913359
0293725214999992000052223534+41350-082180FM-15+0242KLPR V0201801N003610270019N0160931N1+01901+01101100761ADDAA101000021AA206000021GD13991+0270019GD24991+0330019GF108991999999999999999999KA1999M+02111KA2999N+01891MA1100781999999MD1610051+9999MW1001REMMET123KLPR 222353Z AUTO 18007KT 10SM BKN090 OVC110 19/11 A2976 RMK AO2 RAB2257E19 SLP076 P0000 60000 T01940111 10211 20189 56005;EQDQ01+000000PRSWM2
0211725214999992000052303534+41350-082180FM-15+0242KLPR V0202001N005110270019N0144841N1+01601+01301100661ADDGD12991+0240019GD23991+0270019GD34991+0360019GF108991999999999999999999MA1100681999999MW1001REMMET088KLPR 230353Z AUTO 20010KT 9SM FEW080 BKN095 OVC120 16/13 A2973 RMK AO2 SLP066 T01610133;EQDQ01+000000PRSWM2
0150725214999992000052609534+41350-082180FM-15+0242KLPR V0202201N002612200019N0160931N1+00801+00701101471ADDGF100991999999999999999999MA1101491999999MW1001REMMET072KLPR 260953Z AUTO 22005KT 10SM CLR 08/07 A2997 RMK AO2 SLP147 T00780072;EQDQ01+000000PRSWM2
0071725214999992000052722009+41350-082183NSRDB+024299999V020999999999999999999999999999+99999+99999999999ADDGP10060018802008000602015018402008GQ100600545926839GR100600771913309
0071725214999992000052811009+41350-082183NSRDB+024299999V020999999999999999999999999999+99999+99999999999ADDGP10060000002008000002015000002008GQ100600854906499GR100600104912969
0187725214999992000052903534+41350-082180FM-15+0242KLPR V0200501N007710330019N0160931N1+01201+00901101121ADDAA101000591GD14991+0330019GF108991999999999999999999MA1101121999999MW1001REMMET083KLPR 290353Z AUTO 05015KT 10SM OVC110 12/09 A2986 RMK AO2 SLP112 P0002 T01220094 $;EQDQ01+000000PRSWM2
0157725214999992000053022534+41350-082180FM-15+0242KLPR V0201501N007212200019N0160931N1+02201+01301101631ADDGF100991999999999999999999MA1101661999999MW1001REMMET079KLPR 302253Z AUTO 15014KT 10SM CLR 22/13 A3002 RMK AO2 PRESFR SLP163 T02170133;EQDQ01+000000PRSWM2
0246725214999992000060111534+41350-082180FM-15+0242KLPR V0202801N00361000151CN0004021N1+01901+01801101971ADDGD15991+0001519GF109991999999000251999999KA1999M+02061KA2999N+01781MA1102031999999MD1110201+9999MW1451REMMET097KLPR 011153Z AUTO 28007KT M1/4SM FG VV001 19/18 A3013 RMK AO2 SLP197 T01890183 10206 20178 51020;EQDQ01+000003PRSWM1Q02    003PRSWM1
0071725214999992000060301009+41350-082183NSRDB+024299999V020999999999999999999999999999+99999+99999999999ADDGP10060002102008003402015001802008GQ100600858929669GR100600090912289
0054725214999992000060308009+41350-082183NSRDB+024299999V020999999999999999999999999999+99999+99999999999ADDGP10060000002000000002000000002000GR100600000900009
0071725214999992000060811009+41350-082183NSRDB+024299999V020999999999999999999999999999+99999+99999999999ADDGP10060000002008000002015000002008GQ100600849906359GR100600117913259
0270725214999992000061202534+41350-082180FM-15+0242KLPR V0202601N004110270019N0160931N1+02401+01901101881ADDAA101000021AA203000021GD12991+0150019GD23991+0270019GF107991999999999999999999MA1101961999999MD1310201+9999MW1611REMMET110KLPR 120253Z AUTO 26008KT 10SM -RA FEW050 BKN095 24/19 A3011 RMK AO2 RAB41 SLP188 P0000 60000 T02390194 53020;EQDQ01+000003PRSWM1Q02    003PRSWM1
