0314726088146062000041600533+44800-068817FM-15+0056BGR  V0201805N00315028965MN0160005N1+01395+01175101255ADDGD13995+0289659GF107991999999999999999999MA1101255999999MW1001REMMET070KBGR 160053Z 18006KT 10SM BKN095 14/12 A2990 RMK AO2 SLP125 T01390117;EQDQ01+000000PRSWM2N01 00000JPWTH 0QNNAA1D0 04095BA1 0 04095GA1 0 00095KA1D0 00053JA1 0 00117LA1 0 01000CA1 0 02990NA1 0 00000QA1 0 10125SA1D0 00057RA1 0 00139YA1 0 18006
0168726088146062000041613114+44800-068830FM-16+0059KBGR V0200101N007210081019N0160931N1+00701+00401999999ADDGD13991+0081019GD24991+0210019GF108991999999999999999999MA1101461999999MW1001REMMET060KBGR 161311Z 01014KT 10SM BKN027 OVC070 07/04 A2996 RMK AO2;EQDQ01+000000PRSWM2
0071726088146062000041821009+44800-068817NSRDB+005699999V020999999999999999999999999999+99999+99999999999ADDGP10060045802008063402015014302008GQ100600603925529GR100600671913559
0296726088146062000042107533+44800-068817FM-15+0056BGR  V0200305N00415220005MN0160005N1+00445+00225101655ADDGF100991999999999999999999MA1101665999999MW1001REMMET067KBGR 210753Z 03008KT 10SM CLR 04/02 A3002 RMK AO2 SLP165 T00440022;EQDQ01+000000PRSWM2N01 00000JPWTH 0QNNAA1D0 00000BA1 0 00000GA1U0 99999KA1D0 00036JA1 0 00022LA1 0 01000CA1 0 03002NA1 0 00000QA1 0 10165SA1D0 00040RA1 0 00044YA1 0 03008
0054726088146062000042108009+44800-068817NSRDB+005699999V020999999999999999999999999999+99999+99999999999ADDGP10060000002000000002000000002000GR100600000900009
0216726088146062000042207374+44800-068830FM-16+0059KBGR V0209999C000010018019N0024141N1+00101+00101999999ADDGD13991+0018019GD24991+0057019GF108991999999999999999999MA1101521999999MW1711REMMET076KBGR 220737Z 00000KT 1 1/2SM -SN BR BKN006 OVC019 01/01 A2998 RMK AO2 P0007;EQDQ01+000100PRSWM3Q02+000003PRSWM1Q03    003PRSWM1
0071726088146062000042310009+44800-068817NSRDB+005699999V020999999999999999999999999999+99999+99999999999ADDGP10060000002008000002015000002008GQ100600884907339GR100600014904849
0666726088146062000042704596+44798-068819SOD  +0059KBGR V020999999999999999999999999999+99999+99999999999ADDAA124000025KA1240M+01065KA2240N-00055MG1101129999994OE11240129605009055OE22240107306008355OE33240060899999995REMSOD54524 HR PRECIPITATION (IN):  T   24 HR MAX TEMP (F): 5124 HR MAX TEMP TIME (LST):1607 24 HR MIN TEMP (F): 3124 HR MIN TEMP TIME (LST):0442 AVERAGE STATION PRESSURE:29.86  PEAK WIND SPEED (MPH): 29 PEAK WIND DIR (DEG):050 PEAK WIND TIME (LST):0905  FASTEST 2MIN SPEED (MPH): 24FASTEST 2MIN DIR (DEG):060 FASTEST 2MIN TIME (LST):0835 AVERAGE WIND SPEED (MPH):13.6 24 HR AVG TEMP (F):41 HOURLY INCREMENTAL PRECIPITATION VALUES (IN):.00  .00  .00  .00  .00  .00  .00  .00  .00  .00  .00  .00  .00  .00  .00  .00  .00  .00  .00  .00  .00  .00  .00  .00
0194726088146062000042805254+44800-068830FM-15+0059KBGR V0209999C000010087019N0160931N1+00301+00301999999ADDAA101000021GD13991+0087019GD24991+0105019GF108991999999999999999999MA1101291999999MW1001REMMET075KBGR 280525Z 00000KT 10SM BKN029 OVC035 03/03 A2991 RMK AO2 RAB10E21 P0000;EQDQ01+000000PRSWM2
0355726088146062000050105533+44800-068817FM-15+0056BGR  V0209999C00005220005MN0160005N1+00005-00445101525ADDGF100991999999999999999999KA1999M+00891KA2999N-00061MA1101525999999MD1010011+9999MW1001REMMET086KBGR 010553Z 00000KT 10SM CLR 00/M04 A2998 RMK AO2 SLP152 T00001044 10089 21006 50001;EQDQ01+000000PRSWM2N01 00000JPWTH 0QNNAA1D0 00000BA1 0 00000GA1U0 99999KA1D0 00024JA1 0-00044LA1 0 01000CA1 0 02998NA1 0 00000QA1 0 10152SA1D0 00032RA1 0 00000YA1 0 00000
0071726088146062000050122009+44800-068817NSRDB+005699999V020999999999999999999999999999+99999+99999999999ADDGP10060023802008022502015015502008GQ100600682927039GR100600498913459
0422726088146062000050214533+44800-068817FM-15+0056BGR  V0200105N00625009145MN0160005N1+01065+00565100845ADDGD12995+0073259GD23995+0091459GD34995+0137259GF108991999999999999999999MA1100855999999MD1310111+9999MW1001REMMET090KBGR 021453Z 01012KT 10SM SCT024 BKN030 OVC045 11/06 A2978 RMK AO2 SLP084 T01060056 53011;EQDQ01+000000PRSWM2N01 00000JPWTH 0QNNAA1D0 02024BA1 0 02024AA1D0 04030BA1 0 04030AA1D0 06045BA1 0 06045GA1 0 00030KA1D0 00042JA1 0 00056LA1 0 01000CA1 0 02978NA1 0 00000QA1 0 10084SA1D0 00051RA1 0 00106YA1 0 01012
0071726088146062000050317009+44800-068817NSRDB+005699999V020999999999999999999999999999+99999+99999999999ADDGP10060091402008088802015013702008GQ100600291917909GR100601174913449
0417726088146062000050800533+44800-068817FM-15+0056BGR  V0202005N003150330019N0096005N1+01225+01225100315ADDAA101000891GD11995+0259159GD23995+0335359GF107991999999999999999999MA1100345999999MW1101MW2455REMMET114KBGR 080053Z COR 26006KT 6SM BR FEW085 BKN110 12/12 A2963 RMK AO2 TSE44RAB 2357 E41 PRESFR SLP031 P0003 T01220122;EQDQ01+000003PRSWM1Q02    003PRSWM1N01 00070JPWTH 0QNNAA1D0 02085BA1 0 01085AA1D0 04110BA1 0 04110KA1D0 00054JA1 0 00122LA1 0 00600CA1 0 02963NA1 0 00070QA1 0 10031SA1D0 00054RA1 0 00122YA1 0 20006
0244726088146062000050802003+44800-068817FM-15+0056BGR  V0202005N00265220005MN006400599+01225+01225100295ADDGD10995+9999999GP10060000002000000002000000002000GR100600000900009MA1100305999999MW1455EQDN01 00070JPWTH 0QNNAA1D0 00000BA1 0 00000GA1U0 99999KA1D0 00054JA1 0 00122LA1 0 00400CA1 0 02962NA1 0 00070QA1 0 10029SA1D0 00054RA1 0 00122YA1 0 20005
0358726088146062000051618533+44800-068817FM-15+0056BGR  V0209999V00215220005MN0160005N1+01615+00115101595ADDGD11995+0243859GD22995+0304859GF104991999999999999999999MA1101595999999MW1001REMMET077KBGR 161853Z VRB04KT 10SM FEW080 SCT100 16/01 A3000 RMK AO2 SLP159 T01610011;EQDQ01+000000PRSWM2N01 00000JPWTH 0QNNAA1D0 02080BA1 0 01080AA1D0 02100BA1 0 02100GA1U0 99999KA1D0 00034JA1 0 00011LA1 0 01000CA1 0 03000NA1 0 00000QA1 0 10159SA1D0 00061RA1 0 00161YA1 0 00004
0296726088146062000051918533+44800-068817FM-15+0056BGR  V0200305N00365220005MN0160005N1+01335+00065102175ADDGF100991999999999999999999MA1102175999999MW1001REMMET067KBGR 191853Z 03007KT 10SM CLR 13/01 A3017 RMK AO2 SLP217 T01330006;EQDQ01+000000PRSWM2N01 00000JPWTH 0QNNAA1D0 00000BA1 0 00000GA1U0 99999KA1D0 00033JA1 0 00006LA1 0 01000CA1 0 03017NA1 0 00000QA1 0 10217SA1D0 00056RA1 0 00133YA1 0 03007
0071726088146062000052112009+44800-068817NSRDB+005699999V020999999999999999999999999999+99999+99999999999ADDGP10060009702008000002015009702008GQ100600657908509GR100600549913339
0296726088146062000052601533+44800-068817FM-15+0056BGR  V0202405N00215220005MN0160005N1+01065+00945099785ADDGF100991999999999999999999MA1099805999999MW1001REMMET067KBGR 260153Z 24004KT 10SM CLR 11/09 A2947 RMK AO2 SLP978 T01060094;EQDQ01+000000PRSWM2N01 00000JPWTH 0QNNAA1D0 00000BA1 0 00000GA1U0 99999KA1D0 00049JA1 0 00094LA1 0 01000CA1 0 02947NA1 0 00000QA1 0 09978SA1D0 00051RA1 0 00106YA1 0 24004
0054726088146062000052606009+44800-068817NSRDB+005699999V020999999999999999999999999999+99999+99999999999ADDGP10060000002000000002000000002000GR100600000900009
0402726088146062000060212533+44800-068817FM-15+0056BGR  V0209999C00005220005MN0160005N1+01835+00895101355ADDGD11995+0304859GD22995+0457259GD32995+0762059GF104991999999999999999999MA1101395999999MW1001REMMET084KBGR 021253Z 00000KT 10SM FEW100 SCT150 SCT250 18/09 A2994 RMK AO2 SLP135 T01830089;EQDQ01+000000PRSWM2N01 00000JPWTH 0QNNAA1D0 02100BA1 0 01100AA1D0 02150BA1 0 02150AA1D0 02250BA1 0 02250GA1U0 99999KA1D0 00048JA1 0 00089LA1 0 01000CA1 0 02994NA1 0 00000QA1 0 10135SA1D0 00065RA1 0 00183YA1 0 00000
0071726088146062000060611009+44800-068817NSRDB+005699999V020999999999999999999999999999+99999+99999999999ADDGP10060005502008000002015005502008GQ100600748907289GR100600347913269
0666726088146062000061104596+44798-068819SOD  +0059KBGR V020999999999999999999999999999+99999+99999999999ADDAA124000025KA1240M+01445KA2240N+01115MG1100819999994OE11240093936022565OE22240071535022575OE33240020199999995REMSOD54524 HR PRECIPITATION (IN):  T   24 HR MAX TEMP (F): 5824 HR MAX TEMP TIME (LST):1246 24 HR MIN TEMP (F): 5224 HR MIN TEMP TIME (LST):2352 AVERAGE STATION PRESSURE:29.77  PEAK WIND SPEED (MPH): 21 PEAK WIND DIR (DEG):360 PEAK WIND TIME (LST):2256  FASTEST 2MIN SPEED (MPH): 16FASTEST 2MIN DIR (DEG):350 FASTEST 2MIN TIME (LST):2257 AVERAGE WIND SPEED (MPH): 4.5 24 HR AVG TEMP (F):55 HOURLY INCREMENTAL PRECIPITATION VALUES (IN):.00  .00  .00  .00  .00   T    T    T   .00  .00  .00  .00  .00  .00  .00  .00  .00  .00  .00  .00  .00  .00   T   .00
0054726088146062000061202009+44800-068817NSRDB+005699999V020999999999999999999999999999+99999+99999999999ADDGP10060000002000000002000000002000GR100600000900009
0213726088146062000061305534+44800-068830FM-15+0059KBGR V0209999C000010006019N0004021N1+00601+00601102341ADDGD13991+0006019GF107991999999999999999999MA1102341999999MW1441REMMET104KBGR 130553Z 00000KT 1/4SM FG BKN002 06/06 A3022 RMK AO2 SLP234 R33/P2000FT T00610061 10133 20061 58002;EQDQ01+000003PRSWM1Q02    003PRSWM1
0296726088146062000061415533+44800-068817FM-15+0056BGR  V0202005N00675220005MN0160005N1+01835+00615102415ADDGF100991999999999999999999MA1102445999999MW1001REMMET067KBGR 141553Z 20013KT 10SM CLR 18/06 A3025 RMK AO2 SLP241 T01830061;EQDQ01+000000PRSWM2N01 00000JPWTH 0QNNAA1D0 00000BA1 0 00000GA1U0 99999KA1D0 00043JA1 0 00061LA1 0 01000CA1 0 03025NA1 0 00000QA1 0 10241SA1D0 00065RA1 0 00183YA1 0 20013
0184726088146062000061719424+44800-068820FM-16+0059KBGR V0203201N003110180019N0048281N1+02101+02101999999ADDGD12991+0024019GD24991+0180019GF108991999999999999999999MA1100811999999MW1001REMMET076KBGR 171942Z 32006KT 3SM SCT008 OVC065 21/21 A2977 RMK AO2 TSE36RAE36 P0068;EQDQ01+000000PRSWM2
0416726088146062000062011533+44800-068817FM-15+0056BGR  V0209999C00005027435MN0160005N1+01675+01285101715ADDGD11995+0228659GD23995+0274359GF107991999999999999999999KA1999M+01671KA2999N+00941MA1101735999999MD1010061+9999MW1001REMMET095KBGR 201153Z 00000KT 10SM FEW075 BKN090 17/13 A3004 RMK AO2 SLP171 T01670128 10167 20094 50006;EQDQ01+000000PRSWM2N01 00000JPWTH 0QNNAA1D0 02075BA1 0 01075AA1D0 04090BA1 0 04090GA1 0 00090KA1D0 00055JA1 0 00128LA1 0 01000CA1 0 03004NA1 0 00000QA1 0 10171SA1D0 00062RA1 0 00167YA1 0 00000
0431726088146062000062202533+44800-068817FM-15+0056BGR  V0201805N00625018295MN0144005N1+01615+01505100525ADDAA101000021AA203000391GD13995+0182959GD24995+0259159GF108991999999999999999999MA1100545999999MD1810211+9999MW1615REMMET098KBGR 220253Z 18012KT 9SM -RA BKN060 OVC085 16/15 A2969 RMK AO2 SLP052 P0000 60001 T01610150 58021;EQDQ01+000003PRSWM1Q02    003PRSWM1N01 00020JPWTH 0QNNAA1D0 04060BA1 0 04060AA1D0 06085BA1 0 06085GA1 0 00060KA1D0 00059JA1 0 00150LA1 0 00900CA1 0 02969NA1 0 00020QA1 0 10052SA1D0 00061RA1 0 00161YA1 0 18012
0212726088146062000062206404+44800-068820FM-16+0059KBGR V0201901N005110018019N0096561N1+01601+01601999999ADDGD13991+0018019GD24991+0030019GF108991999999999999999999MA1100371999999MW1611REMMET072KBGR 220640Z 19010KT 6SM -RA BR BKN006 OVC010 16/16 A2964 RMK AO2 P0000;EQDQ01+000100PRSWM3Q02+000003PRSWM1Q03    003PRSWM1
0314726088146062000062216533+44800-068817FM-15+0056BGR  V0201405N00315011585MN0160005N1+02615+02005100255ADDGD13995+0115859GF107991999999999999999999MA1100305999999MW1001REMMET070KBGR 221653Z 14006KT 10SM BKN038 26/20 A2962 RMK AO2 SLP025 T02610200;EQDQ01+000000PRSWM2N01 00000JPWTH 0QNNAA1D0 04038BA1 0 04038GA1 0 00038KA1D0 00068JA1 0 00200LA1 0 01000CA1 0 02962NA1 0 00000QA1 0 10025SA1D0 00079RA1 0 00261YA1 0 14006
0071726088146062000062219009+44800-068817NSRDB+005699999V020999999999999999999999999999+99999+99999999999ADDGP10060063102008026302015040702008GQ100600314923609GR100601127913229
0334726088146062000062314533+44800-068817FM-15+0056BGR  V0203205N00525014335MN0160005N1+02225+01505100665ADDGD13995+0143359GF107991999999999999999999MA1100685999999MD1310211+9999MW1001REMMET076KBGR 231453Z 32010KT 10SM BKN047 22/15 A2973 RMK AO2 SLP066 T02220150 53021;EQDQ01+000000PRSWM2N01 00000JPWTH 0QNNAA1D0 04047BA1 0 04047GA1 0 00047KA1D0 00059JA1 0 00150LA1 0 01000CA1 0 02973NA1 0 00000QA1 0 10066SA1D0 00072RA1 0 00222YA1 0 32010
0316726088146062000062508533+44800-068817FM-15+0056BGR  V0201305N00155220005MN0160005N1+01335+01175101785ADDGF100991999999999999999999MA1101795999999MD1810071+9999MW1001REMMET073KBGR 250853Z 13003KT 10SM CLR 13/12 A3006 RMK AO2 SLP178 T01330117 58007;EQDQ01+000000PRSWM2N01 00000JPWTH 0QNNAA1D0 00000BA1 0 00000GA1U0 99999KA1D0 00053JA1 0 00117LA1 0 01000CA1 0 03006NA1 0 00000QA1 0 10178SA1D0 00056RA1 0 00133YA1 0 13003
0354726088146062000062608533+44800-068817FM-15+0056BGR  V0209999C00005000305MN0003005N1+01725+01725101305ADDGD15995+0003059GF109991999999000251999999MA1101325999999MD1310171+9999MW1455REMMET080KBGR 260853Z 00000KT M1/4SM FG VV001 17/17 A2992 RMK AO2 SLP130 T01720172 53017;EQDQ01+000003PRSWM1Q02    003PRSWM1N01 00070JPWTH 0QNNAA1D0 07001BA1 0 07001GA1 0 00001KA1D0 00063JA1 0 00172LA1 0 00019CA1 0 02992NA1 0 00070QA1 0 10130SA1D0 00063RA1 0 00172YA1 0 00000
0338726088146062000062707533+44800-068817FM-15+0056BGR  V0209999C00005000915MN0080005N1+01725+01725100885ADDGD14995+0009159GF108991999999999999999999MA1100915999999MW1101MW2455REMMET072KBGR 270753Z 00000KT 5SM BR OVC003 17/17 A2980 RMK AO2 SLP088 T01720172;EQDQ01+000003PRSWM1Q02    003PRSWM1N01 00070JPWTH 0QNNAA1D0 06003BA1 0 06003GA1 0 00003KA1D0 00063JA1 0 00172LA1 0 00500CA1 0 02980NA1 0 00070QA1 0 10088SA1D0 00063RA1 0 00172YA1 0 00000
0348726088146062000062713533+44800-068817FM-15+0056BGR  V0202105N00265001525MN0032005N1+02005+01895100795ADDGD14995+0015259GF108991999999999999999999MA1100815999999MW1101MW2455REMMET082KBGR 271353Z 21005KT 2SM BR OVC005 20/19 A2977 RMK AO2 SFC VIS 4 SLP079 T02000189;EQDQ01+000003PRSWM1Q02    003PRSWM1N01 00070JPWTH 0QNNAA1D0 06005BA1 0 06005GA1 0 00005KA1D0 00066JA1 0 00189LA1 0 00200CA1 0 02977NA1 0 00070QA1 0 10079SA1D0 00068RA1 0 00200YA1 0 21005
0071726088146062000070200009+44800-068817NSRDB+005699999V020999999999999999999999999999+99999+99999999999ADDGP10060007002008024502015003702008GQ100600822929519GR100600178913219
0296726088146062000071213533+44800-068817FM-15+0056BGR  V0203305N00365220005MN0160005N1+02285+01285101045ADDGF100991999999999999999999MA1101085999999MW1001REMMET067KBGR 121353Z 33007KT 10SM CLR 23/13 A2985 RMK AO2 SLP104 T02280128;EQDQ01+000000PRSWM2N01 00000JPWTH 0QNNAA1D0 00000BA1 0 00000GA1U0 99999KA1D0 00055JA1 0 00128LA1 0 01000CA1 0 02985NA1 0 00000QA1 0 10104SA1D0 00073RA1 0 00228YA1 0 33007
0354726088146062000071417533+44800-068817FM-15+0056BGR  V0201805N00525220005MN0160005N1+02615+01565101105ADDGF100991999999999999999999KA1999M+02781KA2999N+02061MA1101125999999MD1810041+9999MW1001REMMET085KBGR 141753Z 18010KT 10SM CLR 26/16 A2986 RMK AO2 SLP110 T02610156 10278 20206 58004;EQDQ01+000000PRSWM2N01 00000JPWTH 0QNNAA1D0 00000BA1 0 00000GA1U0 99999KA1D0 00060JA1 0 00156LA1 0 01000CA1 0 02986NA1 0 00000QA1 0 10110SA1D0 00079RA1 0 00261YA1 0 18010
0146726088146062000071704454+44800-068820FM-15+0059KBGR V0200101N003610045019N0160931N1+01301+01301999999ADDGD14991+0045019GF108991999999999999999999MA1101591999999MW1001REMMET053KBGR 170445Z 01007KT 10SM OVC015 13/13 A3000 RMK AO2;EQDQ01+000000PRSWM2
0071726088146062000072015009+44800-068817NSRDB+005699999V020999999999999999999999999999+99999+99999999999ADDGP10060069802008058002015023102008GQ100600365912129GR100601063913239
0344726088146062000072104533+44800-068817FM-15+0056BGR  V0209999C00005220005MN0160005N1+01065+01005100955ADDGF100991999999999999999999KA1999M+02391KA2999N+00721MA1100985999999MW1001REMMET089KBGR 210453Z AUTO 00000KT 10SM CLR 11/10 A2982 RMK AO2 SLP095 T01060100 402390072 TSNO $;EQDQ01+000000PRSWM2N01 00000JPWTH 0QNNAA1D0 00000BA1 0 00000GA1U0 99999KA1D0 00050JA1 0 00100LA1 0 01000CA1 0 02982NA1 0 00000QA1 0 10095SA1D0 00051RA1 0 00106YA1 0 00000
0071726088146062000072214009+44800-068817NSRDB+005699999V020999999999999999999999999999+99999+99999999999ADDGP10060026202008001802015024902008GQ100600465910619GR100600910913239
0178726088146062000072304164+44800-068820FM-16+0059KBGR V0202501N001510003019N0024141N1+01401+01401999999ADDGD14991+0003019GF108991999999999999999999MA1101391999999MW1101REMMET069KBGR 230416Z 25003KT 1SM BR OVC001 14/14 A2994 RMK AO2 SFC VIS 2 1/2;EQDQ01+000003PRSWM1Q02    003PRSWM1
0354726088146062000072417533+44800-068817FM-15+0056BGR  V0209999C00005220005MN0160005N1+02615+01395102015ADDGF100991999999999999999999KA1999M+02671KA2999N+01891MA1102035999999MD1810071+9999MW1001REMMET085KBGR 241753Z 00000KT 10SM CLR 26/14 A3013 RMK AO2 SLP201 T02610139 10267 20189 58007;EQDQ01+000000PRSWM2N01 00000JPWTH 0QNNAA1D0 00000BA1 0 00000GA1U0 99999KA1D0 00057JA1 0 00139LA1 0 01000CA1 0 03013NA1 0 00000QA1 0 10201SA1D0 00079RA1 0 00261YA1 0 00000
0296726088146062000072512533+44800-068817FM-15+0056BGR  V0209999C00005220005MN0160005N1+02175+01565102395ADDGF100991999999999999999999MA1102445999999MW1001REMMET067KBGR 251253Z 00000KT 10SM CLR 22/16 A3025 RMK AO2 SLP239 T02170156;EQDQ01+000000PRSWM2N01 00000JPWTH 0QNNAA1D0 00000BA1 0 00000GA1U0 99999KA1D0 00060JA1 0 00156LA1 0 01000CA1 0 03025NA1 0 00000QA1 0 10239SA1D0 00071RA1 0 00217YA1 0 00000
0054726088146062000072706009+44800-068817NSRDB+005699999V020999999999999999999999999999+99999+99999999999ADDGP10060000002000000002000000002000GR100600000900009
0358726088146062000072719533+44800-068817FM-15+0056BGR  V0201505N00365007015MN0160005N1+01895+01445102405ADDGD13995+0070159GD24995+0152459GF108991999999999999999999MA1102445999999MW1001REMMET077KBGR 271953Z 15007KT 10SM BKN023 OVC050 19/14 A3025 RMK AO2 SLP240 T01890144;EQDQ01+000000PRSWM2N01 00000JPWTH 0QNNAA1D0 04023BA1 0 04023AA1D0 06050BA1 0 06050GA1 0 00023KA1D0 00058JA1 0 00144LA1 0 01000CA1 0 03025NA1 0 00000QA1 0 10240SA1D0 00066RA1 0 00189YA1 0 15007
0314726088146062000072722533+44800-068817FM-15+0056BGR  V0201405N00315009755MN0160005N1+01785+01505102275ADDGD14995+0097559GF108991999999999999999999MA1102305999999MW1001REMMET070KBGR 272253Z 14006KT 10SM OVC032 18/15 A3021 RMK AO2 SLP227 T01780150;EQDQ01+000000PRSWM2N01 00000JPWTH 0QNNAA1D0 06032BA1 0 06032GA1 0 00032KA1D0 00059JA1 0 00150LA1 0 01000CA1 0 03021NA1 0 00000QA1 0 10227SA1D0 00064RA1 0 00178YA1 0 14006
0297726088146062000072803533+44800-068817FM-15+0056BGR  V0200505N00215001525MN0032005N1+01675+01565102095ADDGD14995+0015259GF108991999999999999999999MA1102105999999MW1001REMMET080KBGR 280353Z 05004KT 2SM OVC005 17/16 A3015 RMK AO2 SFC VIS 10 SLP209 T01670156;EQDQ01+000000PRSWM2QNNAA1D0 06005BA1 0 06005GA1 0 00005KA1D0 00060JA1 0 00156LA1 0 00200CA1 0 03015QA1 0 10209SA1D0 00062RA1 0 00167YA1 0 05004
0425726088146062000072811533+44800-068817FM-15+0056BGR  V0200405N00365001835MN0048005N1+01725+01675101925ADDAA124000391GD14995+0018359GF108991999999999999999999KA1999M+01721KA2999N+01611MA1101935999999MD1310041+9999MW1101MW2455REMMET108KBGR 281153Z 04007KT 3SM BR OVC006 17/17 A3010 RMK AO2 CIG 004V010 SLP192 70001 T01720167 10172 20161 53004;EQDQ01+000003PRSWM1Q02    003PRSWM1N01 00070JPWTH 0QNNAA1D0 06006BA1 0 06006GA1 0 00006KA1D0 00062JA1 0 00167LA1 0 00300CA1 0 03010NA1 0 00070QA1 0 10192SA1D0 00063RA1 0 00172YA1 0 04007
0314726088146062000072918533+44800-068817FM-15+0056BGR  V0203505N00465220005MN0160005N1+02725+01565101725ADDGD11995+0121959GF102991999999999999999999MA1101765999999MW1001REMMET070KBGR 291853Z 35009KT 10SM FEW040 27/16 A3005 RMK AO2 SLP172 T02720156;EQDQ01+000000PRSWM2N01 00000JPWTH 0QNNAA1D0 02040BA1 0 01040GA1U0 99999KA1D0 00060JA1 0 00156LA1 0 01000CA1 0 03005NA1 0 00000QA1 0 10172SA1D0 00081RA1 0 00272YA1 0 35009
0071726088146062000080213009+44800-068817NSRDB+005699999V020999999999999999999999999999+99999+99999999999ADDGP10060011302008000002015011302008GQ100600586909629GR100600691913279
0336726088146062000080304533+44800-068817FM-15+0056BGR  V0201805N00315014635MN0028005N1+01725+01675101405ADDGD14995+0012259GF108991999999999999999999KA1999M+02061KA2999N+01611MA1101425999999MW1001REMMET093KBGR 030453Z 18006KT 1 3/4SM OVC004 17/17 A2995 RMK AO2 SFC VIS 7 SLP140 T01720167 402060161;EQDQ01+000000PRSWM2QNNAA1D0 06004BA1 0 06004GA1 0 00048KA1D0 00062JA1 0 00167LA1 0 00175CA1 0 02995QA1 0 10140SA1D0 00063RA1 0 00172YA1 0 18006
0334726088146062000080320533+44800-068817FM-15+0056BGR  V0201805N00525220005MN0080005N1+02395+02065101015ADDGF100991999999999999999999MA1101055999999MD1610101+9999MW1055REMMET075KBGR 032053Z 18010KT 5SM HZ CLR 24/21 A2984 RMK AO2 SLP101 T02390206 56010;EQDQ01+000003PRSWM1Q02    003PRSWM1N01 00081JPWTH 0QNNAA1D0 00000BA1 0 00000GA1U0 99999KA1D0 00069JA1 0 00206LA1 0 00500CA1 0 02984NA1 0 00081QA1 0 10101SA1D0 00075RA1 0 00239YA1 0 18010
0205726088146062000080805464+44800-068820FM-16+0059KBGR V0201701N004110330019N0080461N1+01901+01901999999ADDGD12991+0006019GD24991+0330019GF108991999999999999999999MA1100851999999MW1101REMMET081KBGR 080546Z 17008KT 5SM BR FEW002 OVC110 19/19 A2978 RMK AO2 RAE25 PRESFR P0002;EQDQ01+000003PRSWM1Q02    003PRSWM1
0366726088146062000080904533+44800-068817FM-15+0056BGR  V0202605N00265022861MN0160005N1+02005+01565100995ADDGD13995+0228659GF107991999999999999999999KA1999M+03001KA2999N+01721MA1101055999999MW1001REMMET080KBGR 090453Z 26005KT 10SM BKN075 20/16 A2984 RMK AO2 SLP099 T02000156 403000172;EQDQ01+000000PRSWM2Q02 999993SCOCIGN01 00000JPWTH 0QNNAA1D0 04075BA1 0 04075GA1 0 00758KA1D0 00060JA1 0 00156LA1 0 01000CA1 0 02984NA1 0 00000QA1 0 10099SA1D0 00068RA1 0 00200YA1 0 26005
0196726088146062000081000124+44800-068820FM-16+0059KBGR V0201601N003112200019N0096561N1+02101+01901999999ADDGF100991999999999999999999MA1100511999999MW1171REMMET086KBGR 100012Z 16006KT 6SM TS BR CLR 21/19 A2968 RMK AO2 TSB12 OCNL LTGCC AT AP TSB0003;EQDQ01+000100PRSWM3Q02+000003PRSWM1Q03    003PRSWM1
0054726088146062000081007009+44800-068817NSRDB+005699999V020999999999999999999999999999+99999+99999999999ADDGP10060000002000000002000000002000GR100600000900009
0369726088146062000081018533+44800-068817FM-15+0056BGR  V0202505N00465170085MN0160005N1+02395+01505100775ADDGD11995+0131159GD23995+0167659GF107991999999999999999999MA1100815999999MW1001OC100771REMMET080KBGR 101853Z 25009G15KT 10SM FEW043 BKN055 24/15 A2977 RMK AO2 SLP077 T02390150;EQDQ01+000000PRSWM2N01 00000JPWTH 0QNNAA1D0 02043BA1 0 01043AA1D0 04055BA1 0 04055GA1 0 00558KA1D0 00059JA1 0 00150LA1 0 01000CA1 0 02977NA1 0 00000QA1 0 10077SA1D0 00075RA1 0 00239YA1 0 25009
0054726088146062000081306009+44800-068817NSRDB+005699999V020999999999999999999999999999+99999+99999999999ADDGP10060000002000000002000000002000GR100600000900009
0071726088146062000081415009+44800-068817NSRDB+005699999V020999999999999999999999999999+99999+99999999999ADDGP10060019402008000602015018902008GQ100600412912809GR100601001913329
0071726088146062000081500009+44800-068817NSRDB+005699999V020999999999999999999999999999+99999+99999999999ADDGP10060000402008000002015000402008GQ100600869928709GR100600049908999
0071726088146062000081521009+44800-068817NSRDB+005699999V020999999999999999999999999999+99999+99999999999ADDGP10060022602008001802015021602008GQ100600575925639GR100600714913329
0146726088146062000081523224+44800-068820FM-16+0059KBGR V0201901N003110039019N0160931N1+02101+01901999999ADDGD14991+0039019GF108991999999999999999999MA1101591999999MW1001REMMET053KBGR 152322Z 19006KT 10SM OVC013 21/19 A3000 RMK AO2;EQDQ01+000000PRSWM2
0071726088146062000081923009+44800-068817NSRDB+005699999V020999999999999999999999999999+99999+99999999999ADDGP10060011502008036702015004902008GQ100600796927749GR100600239913349
0071726088146062000082010009+44800-068817NSRDB+005699999V020999999999999999999999999999+99999+99999999999ADDGP10060000002008000002015000002008GQ100600889907339GR100600006903239
0314726088146062000082222533+44800-068817FM-15+0056BGR  V0202305N00215220005MN0160005N1+02175+01005102225ADDGD11995+0243859GF102991999999999999999999MA1102245999999MW1001REMMET070KBGR 222253Z 23004KT 10SM FEW080 22/10 A3019 RMK AO2 SLP222 T02170100;EQDQ01+000000PRSWM2N01 00000JPWTH 0QNNAA1D0 02080BA1 0 01080GA1U0 99999KA1D0 00050JA1 0 00100LA1 0 01000CA1 0 03019NA1 0 00000QA1 0 10222SA1D0 00071RA1 0 00217YA1 0 23004
0071726088146062000082617009+44800-068817NSRDB+005699999V020999999999999999999999999999+99999+99999999999ADDGP10060080702008081102015014102008GQ100600349917709GR100601098913389
0071726088146062000082720009+44800-068817NSRDB+005699999V020999999999999999999999999999+99999+99999999999ADDGP10060018102008000602015017702008GQ100600512924029GR100600839913399
0071726088146062000082813009+44800-068817NSRDB+005699999V020999999999999999999999999999+99999+99999999999ADDGP10060038902008062602015010702008GQ100600633910399GR100600601913409
0054726088146062000083002009+44800-068817NSRDB+005699999V020999999999999999999999999999+99999+99999999999ADDGP10060000002000000002000000002000GR100600000900009
0071726088146062000083023009+44800-068817NSRDB+005699999V020999999999999999999999999999+99999+99999999999ADDGP10060005502008014902015003602008GQ100600828927529GR100600168913419
0314726088146062000083116533+44800-068817FM-15+0056BGR  V0200405N00265220005MN0160005N1+02615+01565102135ADDGD12995+0213459GF104991999999999999999999MA1102175999999MW1001REMMET070KBGR 311653Z 04005KT 10SM SCT070 26/16 A3017 RMK AO2 SLP213 T02610156;EQDQ01+000000PRSWM2N01 00000JPWTH 0QNNAA1D0 02070BA1 0 02070GA1U0 99999KA1D0 00060JA1 0 00156LA1 0 01000CA1 0 03017NA1 0 00000QA1 0 10213SA1D0 00079RA1 0 00261YA1 0 04005
0071726088146062000090100009+44800-068817NSRDB+005699999V020999999999999999999999999999+99999+99999999999ADDGP10060000002008000002015000002008GQ100600891928129GR100600004902579
0146726088146062000090110294+44800-068820FM-16+0059KBGR V0202001N001512200019N0080461N1+01701+01601999999ADDGF100991999999999999999999MA1101731999999MW1101REMMET052KBGR 011029Z 20003KT 5SM BR CLR 17/16 A3004 RMK AO2;EQDQ01+000003PRSWM1Q02    003PRSWM1
0316726088146062000090202533+44800-068817FM-15+0056BGR  V0200405N00525220005MN0160005N1+02005+01395101765ADDGF100991999999999999999999MA1101795999999MD1110221+9999MW1001REMMET073KBGR 020253Z 04010KT 10SM CLR 20/14 A3006 RMK AO2 SLP176 T02000139 51022;EQDQ01+000000PRSWM2N01 00000JPWTH 0QNNAA1D0 00000BA1 0 00000GA1U0 99999KA1D0 00057JA1 0 00139LA1 0 01000CA1 0 03006NA1 0 00000QA1 0 10176SA1D0 00068RA1 0 00200YA1 0 04010
0296726088146062000090803533+44800-068817FM-15+0056BGR  V0202005N00215220005MN0160005N1+01225+01065101815ADDGF100991999999999999999999MA1101835999999MW1001REMMET067KBGR 080353Z 20004KT 10SM CLR 12/11 A3007 RMK AO2 SLP181 T01220106;EQDQ01+000000PRSWM2N01 00000JPWTH 0QNNAA1D0 00000BA1 0 00000GA1U0 99999KA1D0 00051JA1 0 00106LA1 0 01000CA1 0 03007NA1 0 00000QA1 0 10181SA1D0 00054RA1 0 00122YA1 0 20004
0357726088146062000091206533+44800-068817FM-15+0056BGR  V0201705N00465002445MN0144005N1+01675+01505101865ADDGD13995+0024459GD24995+0274359GF108991999999999999999999MA1101905999999MW1001REMMET076KBGR 120653Z 17009KT 9SM BKN008 OVC090 17/15 A3009 RMK AO2 SLP186 T01670150;EQDQ01+000000PRSWM2N01 00000JPWTH 0QNNAA1D0 04008BA1 0 04008AA1D0 06090BA1 0 06090GA1 0 00008KA1D0 00059JA1 0 00150LA1 0 00900CA1 0 03009NA1 0 00000QA1 0 10186SA1D0 00062RA1 0 00167YA1 0 17009
0436726088146062000091307533+44800-068817FM-15+0056BGR  V0202005N00315003965MN0080005N1+01835+01785100785ADDGD13995+0039659GD23995+0213459GD34995+0259159GF108991999999999999999999MA1100815999999MW1101MW2455REMMET096KBGR 130753Z AUTO 20006KT 5SM BR BKN013 BKN070 OVC085 18/18 A2977 RMK AO2 SLP078 T01830178 TSNO;EQDQ01+000003PRSWM1Q02    003PRSWM1N01 00070JPWTH 0QNNAA1D0 04013BA1 0 04013AA1D0 04070BA1 0 04070AA1D0 06085BA1 0 06085GA1 0 00013KA1D0 00064JA1 0 00178LA1 0 00500CA1 0 02977NA1 0 00070QA1 0 10078SA1D0 00065RA1 0 00183YA1 0 20006
0054726088146062000091410009+44800-068817NSRDB+005699999V020999999999999999999999999999+99999+99999999999ADDGP10060000002000000002000000002000GR100600000900009
0214726088146062000091606063+44800-068820FM-16+0059KBGR V0202201N00151000151CN0016091N1+01201+01201999999ADDGD15991+0001519GF109991999999000251999999GP10060000002000000002000000002000GR100600000900009MA1100101999999MW1101REMMET054KBGR 160606Z 22003KT 1SM BR VV001 12/12 A2956 RMK AO2;EQDQ01+000003PRSWM1Q02    003PRSWM1
0363726088146062000091816533+44800-068817FM-15+0056BGR  V0209999V00265220005MN0160005N1+02005+00725101585ADDGD11995+0152459GD22995+0762059GF104991999999999999999999MA1101595999999MW1001REMMET082KBGR 181653Z VRB05G14KT 10SM FEW050 SCT250 20/07 A3000 RMK AO2 SLP158 T02000072 $;EQDQ01+000000PRSWM2N01 00000JPWTH 0QNNAA1D0 02050BA1 0 01050AA1D0 02250BA1 0 02250GA1U0 99999KA1D0 00045JA1 0 00072LA1 0 01000CA1 0 03000NA1 0 00000QA1 0 10158SA1D0 00068RA1 0 00200YA1 0 00005
0158726088146062000091907214+44800-068820FM-16+0059KBGR V0209999C000012200019N0040231N1+01001+00901999999ADDGF100991999999999999999999MA1101801999999MW1101REMMET064KBGR 190721Z 00000KT 2SM BR CLR 10/09 A3006 RMK AO2 VIS 1/2V5 $;EQDQ01+000003PRSWM1Q02    003PRSWM1
0428726088146062000092010533+44800-068817FM-15+0056BGR  V0209999C00005011585MN0080005N1+01615+01505101025ADDGD11995+0030559GD23995+0115859GD34995+0335359GF108991999999999999999999MA1101055999999MW1101MW2455REMMET088KBGR 201053Z 00000KT 5SM BR FEW010 BKN038 OVC110 16/15 A2984 RMK AO2 SLP102 T01610150 $;EQDQ01+000003PRSWM1Q02    003PRSWM1N01 00070JPWTH 0QNNAA1D0 02010BA1 0 01010AA1D0 04038BA1 0 04038AA1D0 06110BA1 0 06110GA1 0 00038KA1D0 00059JA1 0 00150LA1 0 00500CA1 0 02984NA1 0 00070QA1 0 10102SA1D0 00061RA1 0 00161YA1 0 00000
0054726088146062000092105009+44800-068817NSRDB+005699999V020999999999999999999999999999+99999+99999999999ADDGP10060000002000000002000000002000GR100600000900009
0298726088146062000092212533+44800-068817FM-15+0056BGR  V0203205N00675220005MN0160005N1+01505+00785101465ADDGF100991999999999999999999MA1101495999999MW1001REMMET069KBGR 221253Z 32013KT 10SM CLR 15/08 A2997 RMK AO2 SLP146 T01500078 $;EQDQ01+000000PRSWM2N01 00000JPWTH 0QNNAA1D0 00000BA1 0 00000GA1U0 99999KA1D0 00046JA1 0 00078LA1 0 01000CA1 0 02997NA1 0 00000QA1 0 10146SA1D0 00059RA1 0 00150YA1 0 32013
0702726088146062000092504596+44798-068819SOD  +0059KBGR V020999999999999999999999999999+99999+99999999999ADDAA124000895AT1MW16RA  1AT2MW01FG  5AT3MW13BR  1KA1240M+01835KA2240N+00785MG1099839999994OE11240107332014495OE22240089432014505OE33240042999999995REMSOD54524 HR PRECIPITATION (IN): 0.03 24 HR MAX TEMP (F): 6524 HR MAX TEMP TIME (LST):1040 24 HR MIN TEMP (F): 4624 HR MIN TEMP TIME (LST):2359 AVERAGE STATION PRESSURE:29.48  PEAK WIND SPEED (MPH): 24 PEAK WIND DIR (DEG):320 PEAK WIND TIME (LST):1449  FASTEST 2MIN SPEED (MPH): 20FASTEST 2MIN DIR (DEG):320 FASTEST 2MIN TIME (LST):1450 AVERAGE WIND SPEED (MPH): 9.6 24 HR AVG TEMP (F):56 HOURLY INCREMENTAL PRECIPITATION VALUES (IN): T    T   .00  .00  .00  .00  .00  .00   T   .01  .02   T    T   .00  .00  .00  .00  .00  .00  .00  .00  .00  .00  .00
0071726088146062000092718009+44800-068817NSRDB+005699999V020999999999999999999999999999+99999+99999999999ADDGP10060061102008068702015015902008GQ100600490920139GR100600893913619
0184726088146062000100110364+44800-068820FM-16+0059KBGR V0209999C000010003019N0040231N1+00401+00301999999ADDGD13991+0003019GD23991+0024019GF107991999999999999999999MA1102131999999MW1411REMMET060KBGR 011036Z 00000KT 2 1/2SM BCFG BKN001 BKN008 04/03 A3016;EQDQ01+000003PRSWM1Q02    003PRSWM1
0071726088146062000100317009+44800-068817NSRDB+005699999V020999999999999999999999999999+99999+99999999999ADDGP10060051602008032402015030402008GQ100600492918199GR100600892913669
0071726088146062000100411009+44800-068817NSRDB+005699999V020999999999999999999999999999+99999+99999999999ADDGP10060000002008000002015000002008GQ100600884909779GR100600014904909
0431726088146062000100608533+44800-068817FM-15+0056BGR  V0200805N00525015245MN0144005N1+00785+00675101675ADDAA101001391AA203003391GD13995+0152459GD24995+0259159GF108991999999999999999999MA1101665999999MD1810221+9999MW1615REMMET098KBGR 060853Z 08010KT 9SM -RA BKN050 OVC085 08/07 A3002 RMK AO2 SLP167 P0005 60013 T00780067 58022;EQDQ01+000003PRSWM1Q02    003PRSWM1N01 00020JPWTH 0QNNAA1D0 04050BA1 0 04050AA1D0 06085BA1 0 06085GA1 0 00050KA1D0 00044JA1 0 00067LA1 0 00900CA1 0 03002NA1 0 00020QA1 0 10167SA1D0 00046RA1 0 00078YA1 0 08010
0297726088146062000100909533+44800-068817FM-15+0056BGR  V0209999C00005220005MN0160005N1+00005-00065102235ADDGF100991999999999999999999MA1102205999999MW1001REMMET068KBGR 090953Z 00000KT 10SM CLR 00/M01 A3018 RMK AO2 SLP223 T00001006;EQDQ01+000000PRSWM2N01 00000JPWTH 0QNNAA1D0 00000BA1 0 00000GA1U0 99999KA1D0 00031JA1 0-00006LA1 0 01000CA1 0 03018NA1 0 00000QA1 0 10223SA1D0 00032RA1 0 00000YA1 0 00000
0666726088146062000101504596+44798-068819SOD  +0059KBGR V020999999999999999999999999999+99999+99999999999ADDAA124000025KA1240M+02445KA2240N+00445MG1100449999994OE11240062619019075OE22240053618020305OE33240036799999995REMSOD54524 HR PRECIPITATION (IN):  T   24 HR MAX TEMP (F): 7624 HR MAX TEMP TIME (LST):1503 24 HR MIN TEMP (F): 4024 HR MIN TEMP TIME (LST):0035 AVERAGE STATION PRESSURE:29.66  PEAK WIND SPEED (MPH): 14 PEAK WIND DIR (DEG):190 PEAK WIND TIME (LST):1907  FASTEST 2MIN SPEED (MPH): 12FASTEST 2MIN DIR (DEG):180 FASTEST 2MIN TIME (LST):2030 AVERAGE WIND SPEED (MPH): 8.2 24 HR AVG TEMP (F):58 HOURLY INCREMENTAL PRECIPITATION VALUES (IN):.00  .00  .00  .00  .00  .00  .00  .00  .00  .00  .00  .00  .00  .00  .00  .00  .00  .00  .00  .00  .00   T   .00  .00
0316726088146062000101512533+44800-068817FM-15+0056BGR  V0200105N00625018295MN0160005N1+01395+00895101305ADDGD13995+0182959GF107991999999999999999999MA1101325999999MW1001REMMET072KBGR 151253Z 01012KT 10SM BKN060 14/09 A2992 RMK AO2 SLP130 T01390089 $;EQDQ01+000000PRSWM2N01 00000JPWTH 0QNNAA1D0 04060BA1 0 04060GA1 0 00060KA1D0 00048JA1 0 00089LA1 0 01000CA1 0 02992NA1 0 00000QA1 0 10130SA1D0 00057RA1 0 00139YA1 0 01012
0357726088146062000101605533+44800-068817FM-15+0056BGR  V0200305N00155220005MN0160005N1+00065-00565102605ADDGF100991999999999999999999KA1999M+00671KA2999N-00061MA1102575999999MD1310081+9999MW1001REMMET088KBGR 160553Z 03003KT 10SM CLR 01/M06 A3029 RMK AO2 SLP260 T00061056 10067 21006 53008 $;EQDQ01+000000PRSWM2N01 00000JPWTH 0QNNAA1D0 00000BA1 0 00000GA1U0 99999KA1D0 00022JA1 0-00056LA1 0 01000CA1 0 03029NA1 0 00000QA1 0 10260SA1D0 00033RA1 0 00006YA1 0 03003
0327726088146062000101719503+44800-068817FM-15+0056BGR  V0202505N999990210019N0240005N1+01205+00105999999ADDGD19999+0210019GF107991999999999999999999MA1102645999999MW1001REMMET046KBGR 171950Z 25009KT 15SM BKN075 12/M01 A3032;EQDQ01+000000PRSWM2N01 00999JALM1 3N02 00000DHZVS 2N03 00000JPWTH 0P01     03SCCGD1QNNAA1D0 00999BA1 3 00999KA1D0 00034JA1 0 00010LA1 2 00000LA1 0 01500CA1 0 03031NA1 0 00000SA1D0 00054RA1 0 00120YA1 0 25999
0314726088146062000102416533+44800-068817FM-15+0056BGR  V0202305N00265220005MN0160005N1+01615+00225102345ADDGD11995+0259159GF102991999999999999999999MA1102345999999MW1001REMMET070KBGR 241653Z 23005KT 10SM FEW085 16/02 A3022 RMK AO2 SLP234 T01610022;EQDQ01+000000PRSWM2N01 00000JPWTH 0QNNAA1D0 02085BA1 0 01085GA1U0 99999KA1D0 00036JA1 0 00022LA1 0 01000CA1 0 03022NA1 0 00000QA1 0 10234SA1D0 00061RA1 0 00161YA1 0 23005
0372726088146062000102617533+44800-068817FM-15+0056BGR  V0202105N00365220005MN0160005N1+02005+01115102225ADDGD12995+0609659GF104991999999999999999999KA1999M+02001KA2999N+00831MA1102245999999MD1610251+9999MW1001REMMET088KBGR 261753Z 21007KT 10SM SCT200 20/11 A3019 RMK AO2 SLP222 T02000111 10200 20083 56025;EQDQ01+000000PRSWM2N01 00000JPWTH 0QNNAA1D0 02200BA1 0 02200GA1U0 99999KA1D0 00052JA1 0 00111LA1 0 01000CA1 0 03019NA1 0 00000QA1 0 10222SA1D0 00068RA1 0 00200YA1 0 21007
0295726088146062000102701533+44800-068817FM-15+0056BGR  V0202005N00265220005MN0128005N1+01115+01005102345ADDGF100991999999999999999999MA1102345999999MW1001REMMET066KBGR 270153Z 20005KT 8SM CLR 11/10 A3022 RMK AO2 SLP234 T01110100;EQDQ01+000000PRSWM2N01 00000JPWTH 0QNNAA1D0 00000BA1 0 00000GA1U0 99999KA1D0 00050JA1 0 00100LA1 0 00800CA1 0 03022NA1 0 00000QA1 0 10234SA1D0 00052RA1 0 00111YA1 0 20005
0054726088146062000102706009+44800-068817NSRDB+005699999V020999999999999999999999999999+99999+99999999999ADDGP10060000002000000002000000002000GR100600000900009
0201726088146062000102707043+44800-068820FM-16+0059KBGR V0201901N002612200019N0040231N1+00901+00901999999ADDGF100991999999999999999999GP10060000002000000002000000002000GR100600000900009MA1102171999999MW1101REMMET056KBGR 270704Z 19005KT 2 1/2SM BR CLR 09/09 A3017 RMK AO2;EQDQ01+000003PRSWM1Q02    003PRSWM1
0071726088146062000102718009+44800-068817NSRDB+005699999V020999999999999999999999999999+99999+99999999999ADDGP10060017402009000602021017102009GQ100600601920009GR100600690913859
0496726088146062000102904533+44800-068817FM-15+0056BGR  V0203405N00675004575MN0080005N1+00065-00065100915ADDAA101000021GD11995+0003059GD23995+0045759GD34995+0097559GF108991999999999999999999KA1999M+01221KA2999N+00001MA1100915999999MW1101MW2455REMMET119KBGR 290453Z 34013KT 5SM UP BR FEW001 BKN015 OVC032 01/M01 A2980 RMK AO2 UPB53SNE53 SLP091 P0000 T00061006 401220000 $;EQDQ01+000003PRSWM1Q02    003PRSWM1N01 03970JPWTH 0QNNAA1D0 02001BA1 0 01001AA1D0 04015BA1 0 04015AA1D0 06032BA1 0 06032GA1 0 00015KA1D0 00031JA1 0-00006LA1 0 00500CA1 0 02980NA1 0 03970QA1 0 10091SA1D0 00033RA1 0 00006YA1 0 34013
0242726088146062000103001234+44800-068820FM-16+0059KBGR V0203501N007710003019N0024141N1+00101-00101999999ADDGD13991+0003019GD23991+0039019GD34991+0054019GF108991999999999999999999MA1100981999999MW1101MW2711OC101131REMMET089KBGR 300123Z 35015G22KT 1 1/2SM -SN BR BKN001 BKN013 OVC018 01/M01 A2982 RMK AO2 P0000 $;EQDQ01+000003PRSWM1Q02    003PRSWM1
0366726088146062000110119533+44800-068817FM-15+0056BGR  V0200105N00725008235MN0160005N1+00835+00335101515ADDGD13995+0082359GD24995+0118959GF108991999999999999999999MA1101495999999MW1001REMMET085KBGR 011953Z 01014KT 10SM BKN027 OVC039 08/03 A2997 RMK AO2 RAE1854 SLP151 T00830033;EQDQ01+000000PRSWM2N01 00000JPWTH 0QNNAA1D0 04027BA1 0 04027AA1D0 06039BA1 0 06039GA1 0 00027KA1D0 00038JA1 0 00033LA1 0 01000CA1 0 02997NA1 0 00000QA1 0 10151SA1D0 00047RA1 0 00083YA1 0 01014
0071726088146062000110216009+44800-068817NSRDB+005699999V020999999999999999999999999999+99999+99999999999ADDGP10060016702009000002021016702009GQ100600609916659GR100600676913909
0332726088146062000110304533+44800-068817FM-15+0056BGR  V0203505N00415220005MN0160005N1+00565+00065101765ADDGF100991999999999999999999KA1999M+01331KA2999N+00561MA1101765999999MW1001REMMET077KBGR 030453Z 35008KT 10SM CLR 06/01 A3005 RMK AO2 SLP176 T00560006 401330056;EQDQ01+000000PRSWM2N01 00000JPWTH 0QNNAA1D0 00000BA1 0 00000GA1U0 99999KA1D0 00033JA1 0 00006LA1 0 01000CA1 0 03005NA1 0 00000QA1 0 10176SA1D0 00042RA1 0 00056YA1 0 35008
0071726088146062000110422009+44800-068817NSRDB+005699999V020999999999999999999999999999+99999+99999999999ADDGP10060000002009000002021000002009GQ100600887924679GR100609999904069
0054726088146062000110501009+44800-068817NSRDB+005699999V020999999999999999999999999999+99999+99999999999ADDGP10060000002000000002000000002000GR100600000900009
0362726088146062000110614533+44800-068817FM-15+0056BGR  V0203605N00625003055MN0128005N1+00505+00395101055ADDAA103000021GD14995+0030559GF108991999999999999999999MA1101055999999MD1210061+9999MW1001REMMET093KBGR 061453Z 36012KT 8SM OVC010 05/04 A2984 RMK AO2 CIG 008V015 SLP105 60000 T00500039 52006;EQDQ01+000000PRSWM2N01 00000JPWTH 0QNNAA1D0 06010BA1 0 06010GA1 0 00010KA1D0 00039JA1 0 00039LA1 0 00800CA1 0 02984NA1 0 00000QA1 0 10105SA1D0 00041RA1 0 00050YA1 0 36012
0071726088146062000110620009+44800-068817NSRDB+005699999V020999999999999999999999999999+99999+99999999999ADDGP10060004102009000002021004102009GQ100600749922749GR100600363913939
0314726088146062000110706533+44800-068817FM-15+0056BGR  V0203605N00725004575MN0160005N1+00675+00505101375ADDGD14995+0045759GF108991999999999999999999MA1101355999999MW1001REMMET070KBGR 070653Z 36014KT 10SM OVC015 07/05 A2993 RMK AO2 SLP137 T00670050;EQDQ01+000000PRSWM2N01 00000JPWTH 0QNNAA1D0 06015BA1 0 06015GA1 0 00015KA1D0 00041JA1 0 00050LA1 0 01000CA1 0 02993NA1 0 00000QA1 0 10137SA1D0 00044RA1 0 00067YA1 0 36014
0427726088146062000110717533+44800-068817FM-15+0056BGR  V0200205N00775007925MN0160005N1+01115+00505101415ADDGD13995+0079259GD23995+0121959GF107991999999999999999999KA1999M+01171KA2999N+00721MA1101425999999MD1610051+9999MW1001OC101131REMMET098KBGR 071753Z 02015G22KT 10SM BKN026 BKN040 11/05 A2995 RMK AO2 SLP141 T01110050 10117 20072 56005;EQDQ01+000000PRSWM2N01 00000JPWTH 0QNNAA1D0 04026BA1 0 04026AA1D0 04040BA1 0 04040GA1 0 00026KA1D0 00041JA1 0 00050LA1 0 01000CA1 0 02995NA1 0 00000QA1 0 10141SA1D0 00052RA1 0 00111YA1 0 02015
0071726088146062000110720009+44800-068817NSRDB+005699999V020999999999999999999999999999+99999+99999999999ADDGP10060008102009000002021008102009GQ100600751922729GR100600357913939
0054726088146062000110903009+44800-068817NSRDB+005699999V020999999999999999999999999999+99999+99999999999ADDGP10060000002000000002000000002000GR100600000900009
0367726088146062000111217533+44800-068817FM-15+0056BGR  V0200105N00675220005MN0160005N1+01065+00335101385ADDGF100991999999999999999999KA1999M+01061KA2999N+00671MA1101395999999MD1810121+9999MW1001OC101131REMMET090KBGR 121753Z 01013G22KT 10SM CLR 11/03 A2994 RMK AO2 SLP138 T01060033 10106 20067 58012 $;EQDQ01+000000PRSWM2N01 00000JPWTH 0QNNAA1D0 00000BA1 0 00000GA1U0 99999KA1D0 00038JA1 0 00033LA1 0 01000CA1 0 02994NA1 0 00000QA1 0 10138SA1D0 00051RA1 0 00106YA1 0 01013
0462726088146062000111311533+44800-068817FM-15+0056BGR  V0200305N00415007015MN0160005N1+00565+00395101875ADDGD12995+0042759GD23995+0070159GD34995+0143359GF108991999999999999999999KA1999M+00611KA2999N+00561MA1101865999999MD1310091+9999MW1001REMMET104KBGR 131153Z 03008KT 10SM SCT014 BKN023 OVC047 06/04 A3008 RMK AO2 SLP187 T00560039 10061 20056 53009 $;EQDQ01+000000PRSWM2N01 00000JPWTH 0QNNAA1D0 02014BA1 0 02014AA1D0 04023BA1 0 04023AA1D0 06047BA1 0 06047GA1 0 00023KA1D0 00039JA1 0 00039LA1 0 01000CA1 0 03008NA1 0 00000QA1 0 10187SA1D0 00042RA1 0 00056YA1 0 03008
0392726088146062000111601533+44800-068817FM-15+0056BGR  V0202905N00465027435MN0160005N1+00445-00225100081ADDGD11995+0134159GD23995+0274359GD34995+0335359GF108991999999999999999999MA1100075999999MW1001REMMET085KBGR 160153Z 29009KT 10SM FEW044 BKN090 OVC110 04/M02 A2955 RMK AO2 SLP008 T00441022;EQDQ01+000000PRSWM2N01 00000JPWTH 0QNNAA1D0 02044BA1 0 01044AA1D0 04090BA1 0 04090AA1D0 06110BA1 0 06110GA1 0 00090KA1D0 00028JA1 0-00022LA1 0 01000CA1 0 02955NA1 0 00000SA1D0 00040RA1 0 00044YA1 0 29009
0238726088146062000112411003+44800-068817FM-15+0056BGR  V0202605N00215220005MN016000599-01065-01285102595ADDGD10995+9999999GP10060000002000000002000000002000GR100600000900009MA1102545999999EQDN01 00000JPWTH 0QNNAA1D0 00000BA1 0 00000GA1U0 99999KA1D0 00009JA1 0-00128LA1 0 01000CA1 0 03028NA1 0 00000QA1 0 10259SA1D0 00013RA1 0-00106YA1 0 26004
0168726088146062000112804214+44800-068820FM-16+0059KBGR V0203301N002110048019N0160931N1+00201+00201999999ADDGD13991+0048019GD24991+0069019GF108991999999999999999999MA1100311999999MW1001REMMET060KBGR 280421Z 33004KT 10SM BKN016 OVC023 02/02 A2962 RMK AO2;EQDQ01+000000PRSWM2
0054726088146062000113002009+44800-068817NSRDB+005699999V020999999999999999999999999999+99999+99999999999ADDGP10060000002000000002000000002000GR100600000900009
0238726088146062000120410003+44800-068817FM-15+0056BGR  V0209999C00005220005MN016000599-00945-01225102455ADDGD10995+9999999GP10060000002000000002000000002000GR100600000900009MA1102405999999EQDN01 00000JPWTH 0QNNAA1D0 00000BA1 0 00000GA1U0 99999KA1D0 00010JA1 0-00122LA1 0 01000CA1 0 03024NA1 0 00000QA1 0 10245SA1D0 00015RA1 0-00094YA1 0 00000
0071726088146062000121217009+44800-068817NSRDB+005699999V020999999999999999999999999999+99999+99999999999ADDGP10060014502009001802021013802009GQ100600680918029GR100600529914129
0054726088146062000121703009+44800-068817NSRDB+005699999V020999999999999999999999999999+99999+99999999999ADDGP10060000002000000002000000002000GR100600000900009
0054726088146062000121711009+44800-068817NSRDB+005699999V020999999999999999999999999999+99999+99999999999ADDGP10060000002000000002000000002000GR100600000900009
0226726088146062000122222214+44800-068820FM-16+0059KBGR V0203301N002610036019N0064371N1-00601-00701999999ADDGD13991+0036019GD23991+0105019GD34991+0129019GF108991999999999999999999MA1100981999999MW1101MW2711REMMET081KBGR 222221Z 33005KT 4SM -SN BR BKN012 BKN035 OVC043 M06/M07 A2982 RMK AO2 P0000;EQDQ01+000003PRSWM1Q02    003PRSWM1
0298726088146062000122307533+44800-068817FM-15+0056BGR  V0202805N00365220005MN0160005N1-00725-01175101225ADDGF100991999999999999999999MA1101195999999MW1001REMMET069KBGR 230753Z 28007KT 10SM CLR M07/M12 A2988 RMK AO2 SLP122 T10721117;EQDQ01+000000PRSWM2N01 00000JPWTH 0QNNAA1D0 00000BA1 0 00000GA1U0 99999KA1D0 00011JA1 0-00117LA1 0 01000CA1 0 02988NA1 0 00000QA1 0 10122SA1D0 00019RA1 0-00072YA1 0 28007
0054726088146062000122409009+44800-068817NSRDB+005699999V020999999999999999999999999999+99999+99999999999ADDGP10060000002000000002000000002000GR100600000900009
0347726088146062000122608533+44800-068817FM-15+0056BGR  V0202705N00415220005MN0160005N1-01725-02335101295ADDGF100991999999999999999999MA1101225999999MD1810281+9999MW1385REMMET088KBGR 260853Z 27008KT 220V290 10SM BLSN CLR M17/M23 A2989 RMK AO2 SLP129 T11721233 58028;EQDQ01+000003PRSWM1Q02    003PRSWM1N01 00084JPWTH 0QNNAA1D0 00000BA1 0 00000GA1U0 99999KA1D0-00010JA1 0-00233LA1 0 01000CA1 0 02989NA1 0 00084QA1 0 10129SA1D0 00001RA1 0-00172YA1 0 27008
0177726114999992000010815544+44530-072620FM-15+0223KMVL V0203601N001510129019N0160931N1-00501-01201102411ADDGD14991+0129099GF108991999999999999999999MA1102271999999MW1001REMMET084KMVL 081554Z AUTO 36003KT 10SM OVC043 M05/M12 A3020 RMK AO2 SLP241 T10501117 TSNO $;EQDQ01+000000PRSWM2
0257726114999992000011422544+44530-072620FM-15+0223KMVL V0203301N005110078019N0112651N1-01701-02301103231ADDAA101000021GD13991+0078099GD23991+0102099GD34991+0120099GF108991999999999999999999MA1103011999999MW1001OC100981REMMET115KMVL 142254Z AUTO 33010G19KT 7SM BKN026 BKN034 OVC040 M17/M23 A3042 RMK AO2 SNB2158E08 SLP323 P0000 T11721228 TSNO;EQDQ01+000000PRSWM2
0220726114999992000011610544+44530-072620FM-15+0223KMVL V0209999V003110102019N0080461N1-00901-01301101721ADDAA101000021GD14991+0102099GF108991999999999999999999MA1101561999999MW1711REMMET100KMVL 161054Z AUTO VRB06KT 5SM -SN OVC034 M09/M13 A2999 RMK AO2 PRESFR SLP172 P0000 T10941133 TSNO $;EQDQ01+000003PRSWM1Q02    003PRSWM1
0220726114999992000012421544+44530-072620FM-15+0223KMVL V0200201N002110057019N0016091N1-00401-00601102011ADDAA101000021GD14991+0057099GF108991999999999999999999MA1101861999999MW1101MW2711REMMET094KMVL 242154Z AUTO 02004KT 1SM -SN BR OVC019 M04/M06 A3008 RMK AO2 SLP201 P0000 T10441056 TSNO;EQDQ01+000003PRSWM1Q02    003PRSWM1
0265726114999992000012601544+44530-072620FM-15+0223KMVL V0200201N005110021019N0008051N1-00701-00801099801ADDAA101000591GD13991+0021099GD24991+0030099GF108991999999999999999999MA1099661999999MW1481MW2731REMMET124KMVL 260154Z AUTO 02010KT 1/2SM SN FZFG BKN007 OVC010 M07/M08 A2943 RMK AO2 UPB20E23SNB05E20B23 SLP980 P0002 T10721083 TSNO;EQDQ01+000003PRSWM1Q02    003PRSWM1
0156726114999992000013016544+44530-072620FM-15+0223KMVL V0209999C000012200019N0144841N1-00701-01601102911ADDGF100991999999999999999999MA1102711999999MW1001REMMET078KMVL 301654Z AUTO 00000KT 9SM CLR M07/M16 A3033 RMK AO2 SLP291 T10721156 TSNO;EQDQ01+000000PRSWM2
0222726114999992000021220544+44530-072620FM-15+0223KMVL V0200101N002112200019N0160931N1-00801-01801102651ADDAA101000021AA203000021GF100991999999999999999999MA1102471999999MD1510051+9999MW1001REMMET108KMVL 122054Z AUTO 01004KT 10SM CLR M08/M18 A3026 RMK AO2 SNB1958E07 SLP265 P0000 60000 T10831183 55005 TSNO;EQDQ01+000000PRSWM2
0268726114999992000021622544+44530-072620FM-15+0223KMVL V0200101N001510033019N0024141N1-00101-00101101131ADDAA101000021GD13991+0033099GD23991+0051099GD34991+0096099GF108991999999999999999999MA1101021999999MW1101MW2711REMMET112KMVL 162254Z AUTO 01003KT 1 1/2SM -SN BR BKN011 BKN017 OVC032 M01/M01 A2983 RMK AO2 SLP113 P0000 T10061011 TSNO;EQDQ01+000003PRSWM1Q02    003PRSWM1
0196726114999992000021813544+44530-072620FM-15+0223KMVL V0209999C000010210019N0112651N1-02101-02301103611ADDGD13991+0210099GD24991+0240099GF108991999999999999999999MA1103351999999MW1001REMMET088KMVL 181354Z AUTO 00000KT 7SM BKN070 OVC080 M21/M23 A3052 RMK AO2 SLP361 T12061233 TSNO;EQDQ01+000000PRSWM2
0208726114999992000022404544+44530-072620FM-15+0223KMVL V0209999C000010114019N0144841N1+00301+00201102441ADDGD14991+0114099GF108991999999999999999999KA1999M+00891KA2999N-00061MA1102371999999MW1001REMMET089KMVL 240454Z AUTO 00000KT 9SM OVC038 03/02 A3023 RMK AO2 SLP244 T00330017 400891006 TSNO;EQDQ01+000000PRSWM2
0172726114999992000022619544+44530-072620FM-15+0223KMVL V0202201N004610060019N0144841N1+00301+00001103081ADDGD14991+0060099GF108991999999999999999999MA1102981999999MW1001REMMET079KMVL 261954Z AUTO 22009KT 9SM OVC020 03/00 A3041 RMK AO2 SLP308 T00330000 TSNO;EQDQ01+000000PRSWM2
0177726114999992000030102544+44530-072620FM-15+0223KMVL V0209999C000012200019N0160931N1-00401-00601102441ADDGF100991999999999999999999MA1102341999999MD1010011+9999MW1001REMMET085KMVL 010254Z AUTO 00000KT 10SM CLR M04/M06 A3022 RMK AO2 SLP244 T10391056 50001 TSNO;EQDQ01+000000PRSWM2
0174726114999992000031418544+44530-072620FM-15+0223KMVL V0202201N004110129019N0160931N1+00501-00201102001ADDGD13991+0129099GF107991999999999999999999MA1101861999999MW1001REMMET081KMVL 141854Z AUTO 22008KT 10SM BKN043 05/M02 A3008 RMK AO2 SLP200 T00501022 TSNO;EQDQ01+000000PRSWM2
0280726114999992000033020544+44530-072620FM-15+0223KMVL V0202101N003110126019N0160931N1+00501+00201101171ADDAA101000021AA203000021GD12991+0063099GD23991+0126099GD34991+0150099GF108991999999999999999999MA1101081999999MD1310121+9999MW1001REMMET121KMVL 302054Z AUTO 21006KT 10SM SCT021 BKN042 OVC050 05/02 A2985 RMK AO2 RAB10E32 SLP117 P0000 60000 T00500017 53012 TSNO;EQDQ01+000000PRSWM2
0193726114999992000040306544+44530-072620FM-15+0223KMVL V0209999C000010039019N0080461N1+00601+00601101521ADDGD14991+0039099GF108991999999999999999999MA1101491999999MW1101REMMET084KMVL 030654Z AUTO 00000KT 5SM BR OVC013 06/06 A2997 RMK AO2 SLP152 T00610061 TSNO $;EQDQ01+000003PRSWM1Q02    003PRSWM1
0254726114999992000041012544+44530-072620FM-15+0223KMVL V0202901N006712200019N0096561N1+00101-00901100851ADDAA101000021GD12991+0240099GF104991999999999999999999MA1100781999999MW1611OC101131REMMET126KMVL 101254Z AUTO 29013G22KT 6SM -RA SCT080 01/M09 A2976 RMK AO2 PK WND 31030/1220 UPB32E36B53E54 SLP085 P0000 T00061089 TSNO;EQDQ01+000003PRSWM1Q02    003PRSWM1
0254726114999992000042113544+44530-072620FM-15+0223KMVL V0201301N002110057019N0160931N1+00501+00301101551ADDAA101000391GD13991+0057099GD23991+0072099GD34991+0096099GF108991999999999999999999MA1101491999999MW1611REMMET104KMVL 211354Z AUTO 13004KT 10SM -RA BKN019 BKN024 OVC032 05/03 A2997 RMK AO2 SLP155 P0001 T00500033 TSNO;EQDQ01+000003PRSWM1Q02    003PRSWM1
0218726114999992000042303544+44530-072620FM-15+0223KMVL V0200101N001510096019N0160931N1+00401+00301100761ADDAA101000021GD12991+0039099GD24991+0096099GF108991999999999999999999MA1100711999999MW1001REMMET099KMVL 230354Z AUTO 01003KT 10SM FEW013 OVC032 04/03 A2974 RMK AO2 RAE06 SLP076 P0000 T00390033 TSNO;EQDQ01+000000PRSWM2
0284726114999992000042323544+44530-072620FM-15+0223KMVL V0203501N004610057019N0128741N1+00301+00201100611ADDAA101000391AA206001391GD14991+0057099GF108991999999999999999999KA1999M+00501KA2999N+00331MA1100541999999MD1310051+9999MW1611REMMET113KMVL 232354Z AUTO 35009KT 8SM -RA OVC019 03/02 A2969 RMK AO2 SLP061 P0001 60005 T00330022 10050 20033 53005 TSNO;EQDQ01+000003PRSWM1Q02    003PRSWM1
0185726114999992000050218544+44530-072620FM-15+0223KMVL V0203601N006212200019N0160931N1+01101-00301101741ADDGD12991+0180099GF102991999999999999999999MA1101691999999MW1001OC101031REMMET084KMVL 021854Z AUTO 36012G20KT 10SM FEW060 11/M03 A3003 RMK AO2 SLP174 T01061033 TSNO;EQDQ01+000000PRSWM2
0156726114999992000050315544+44530-072620FM-15+0223KMVL V0200101N003112200019N0160931N1+01401-00101102671ADDGF100991999999999999999999MA1102611999999MW1001REMMET078KMVL 031554Z AUTO 01006KT 10SM CLR 14/M01 A3030 RMK AO2 SLP267 T01441011 TSNO;EQDQ01+000000PRSWM2
0190726114999992000051419544+44530-072620FM-15+0223KMVL V0209999V002112200019N0160931N1+01601+00501101181ADDGD12991+0150099GD22991+0210099GF104991999999999999999999MA1101151999999MW1001REMMET082KMVL 141954Z AUTO VRB04KT 10SM SCT050 SCT070 16/05 A2987 RMK AO2 SLP118 T01610050;EQDQ01+000000PRSWM2
0167726114999992000051706544+44530-072620FM-15+0223KMVL V0209999C000010210019N0144841N1+00601+00501102011ADDGD13991+0210099GF107991999999999999999999MA1101961999999MW1001REMMET074KMVL 170654Z AUTO 00000KT 9SM BKN075 06/05 A3011 RMK AO2 SLP201 T00560050;EQDQ01+000000PRSWM2
0169726114999992000052203544+44530-072620FM-15+0223KMVL V0209999C000010054019N0144841N1+00901+00801101631ADDGD13991+0054099GF107991999999999999999999MA1101591999999MW1001REMMET076KMVL 220354Z AUTO 00000KT 9SM BKN018 09/08 A3000 RMK AO2 SLP163 T00890078 $;EQDQ01+000000PRSWM2
0168726114999992000052712544+44530-072620FM-15+0223KMVL V0203201N004610072019N0160931N1+01001+00501101411ADDGD14991+0072099GF108991999999999999999999MA1101391999999MW1001REMMET075KMVL 271254Z AUTO 32009KT 10SM OVC024 10/05 A2994 RMK AO2 SLP141 T01000050;EQDQ01+000000PRSWM2
0226726114999992000060211544+44530-072620FM-15+0223KMVL V0209999C000010210019N0160931N1+01301+01101101361ADDGD13991+0210099GF107991999999999999999999KA1999M+01331KA2999N+01061MA1101351999999MD1810201+9999MW1001REMMET093KMVL 021154Z AUTO 00000KT 10SM BKN070 13/11 A2993 RMK AO2 SLP136 T01330106 10133 20106 58020;EQDQ01+000000PRSWM2
0216726114999992000060212544+44530-072620FM-15+0223KMVL V0209999C000010150019N0160931N1+01401+01101101331ADDAA101000021GD13991+0150099GD24991+0330099GF108991999999999999999999MA1101321999999MW1001REMMET097KMVL 021254Z AUTO 00000KT 10SM BKN055 OVC110 14/11 A2992 RMK AO2 RAB34E47 SLP133 P0000 T01390111;EQDQ01+000000PRSWM2
0188726114999992000060509544+44530-072620FM-15+0223KMVL V0209999C00001000151CN0004021N1+00301+00301102521ADDGD15991+0001599GF109991999999000251999999MA1102471999999MW1451REMMET079KMVL 050954Z AUTO 00000KT M1/4SM FG VV001 03/03 A3026 RMK AO2 SLP252 T00280028;EQDQ01+000003PRSWM1Q02    003PRSWM1
0196726114999992000060720544+44530-072620FM-15+0223KMVL V0203101N004112200019N0160931N1+01801+00601101571ADDGD12991+0150099GF102991999999999999999999MA1101561999999MD1210041+9999MW1001REMMET089KMVL 072054Z AUTO 31008KT 280V350 10SM FEW055 18/06 A2999 RMK AO2 SLP157 T01830056 52004;EQDQ01+000000PRSWM2
0207726114999992000061623544+44530-072610FM-15+0223KMVL V0202001N003612200019N0112651N1+02701+01901100811ADDGF100991999999999999999999KA1999M+02941KA2999N+02671MA1100851999999MD1810051+9999MW1001REMMET089KMVL 162354Z AUTO 20007KT 7SM CLR 27/19 A2978 RMK AO2 SLP081 T02670194 10294 20267 58005;EQDQ01+000000PRSWM2
0170726114999992000061814544+44530-072610FM-15+0223KMVL V0200401N002112200019N0160931N1+01701+00901102121ADDGF100991999999999999999999MA1102131999999MD1810081+9999MW1001REMMET078KMVL 181454Z AUTO 04004KT 10SM CLR 17/09 A3016 RMK AO2 SLP212 T01720089 58008;EQDQ01+000000PRSWM2
0168726114999992000061903544+44530-072610FM-15+0223KMVL V0209999C000010114019N0160931N1+01301+01201101991ADDGD14991+0114099GF108991999999999999999999MA1102001999999MW1001REMMET075KMVL 190354Z AUTO 00000KT 10SM OVC038 13/12 A3012 RMK AO2 SLP199 T01330117;EQDQ01+000000PRSWM2
0208726114999992000062405544+44530-072610FM-15+0223KMVL V0209999C000012200019N0160931N1+00801+00801101891ADDGF100991999999999999999999KA1999M+02001KA2999N+00831MA1101901999999MD1010081+9999MW1001REMMET090KMVL 240554Z AUTO 00000KT 10SM CLR 08/08 A3009 RMK AO2 SLP189 T00830078 10200 20083 50008;EQDQ01+000000PRSWM2
0218726114999992000063002544+44530-072610FM-15+0223KMVL V0209999C000010240019N0112651N1+01501+01401100991ADDAA101000391GD14991+0240099GF108991999999999999999999MA1100981999999MD1010121+9999MW1001REMMET100KMVL 300254Z AUTO 00000KT 7SM OVC080 15/14 A2982 RMK AO2 RAE36 SLP099 P0001 6//// T01500139 50012 $;EQDQ01+000000PRSWM2
0254726114999992000063012544+44530-072610FM-15+0223KMVL V0202001N001510105019N0112651N1+01501+01301101111ADDAA101000021GD12991+0021099GD23991+0105099GD34991+0180099GF108991999999999999999999MA1101121999999MW1001REMMET120KMVL 301254Z AUTO 20003KT 7SM SCT007 BKN035 OVC060 15/13 A2986 RMK AO2 LTG DSNT NE TSE02RAB24E34 SLP111 P0000 T01500133;EQDQ01+000000PRSWM2
0227726114999992000070811544+44530-072610FM-15+0223KMVL V0209999C000012200019N0160931N1+01201+01001102021ADDAA124001091GF100991999999999999999999KA1999M+01221KA2999N+00611MA1102001999999MD1110101+9999MW1001REMMET098KMVL 081154Z AUTO 00000KT 10SM CLR 12/10 A3012 RMK AO2 SLP202 70004 T01220100 10122 20061 51010 $;EQDQ01+000000PRSWM2
0276726114999992000071007544+44530-072610FM-15+0223KMVL V0209999C000010117019N0048281N1+01401+01401100371ADDAA101000021GD12991+0009099GD23991+0117099GD33991+0330099GF107991999999999999999999MA1100371999999MW1101MW2611REMMET120KMVL 100754Z AUTO 00000KT 3SM -RA BR FEW003 BKN039 BKN110 14/14 A2964 RMK AO2 LTG DSNT W RAB49 SLP037 P0000 T01440139 $;EQDQ01+000003PRSWM1Q02    003PRSWM1
0210726114999992000071211544+44530-072610FM-15+0223KMVL V0209999C000012200019N0160931N1+01401+01101101671ADDGF100991999999999999999999KA1999M+01391KA2999N+00781MA1101661999999MD1110091+9999MW1001REMMET092KMVL 121154Z AUTO 00000KT 10SM CLR 14/11 A3002 RMK AO2 SLP167 T01390111 10139 20078 51009 $;EQDQ01+000000PRSWM2
0228726114999992000071402544+44530-072610FM-15+0223KMVL V0209999C000012200019N0160931N1+01701+01701101341ADDAA101000391AA203000391GD12991+0180099GF104991999999999999999999MA1101351999999MD1010041+9999MW1001REMMET099KMVL 140254Z AUTO 00000KT 10SM SCT065 17/17 A2993 RMK AO2 RAE31 SLP134 P0001 60001 T01720167 50004;EQDQ01+000000PRSWM2
0169726114999992000071408544+44530-072610FM-15+0223KMVL V0209999C000012200019N0128741N1+01401+01401101191ADDGF100991999999999999999999MA1101221999999MD1610081+9999MW1001REMMET077KMVL 140854Z AUTO 00000KT 8SM CLR 14/14 A2989 RMK AO2 SLP119 T01390139 56008;EQDQ01+000000PRSWM2
0209726114999992000071518544+44530-072610FM-15+0223KMVL V0201701N003610210019N0160931N1+02301+01501101251ADDGD13991+0210099GD23991+0270099GF107991999999999999999999MA1101251999999MW1001OC100981REMMET093KMVL 151854Z AUTO 17007G19KT 140V210 10SM BKN070 BKN090 23/15 A2990 RMK AO2 SLP125 T02330150;EQDQ01+000000PRSWM2
0255726114999992000071703544+44530-072610FM-15+0223KMVL V0209999V001510066019N0160931N1+01801+01701101331ADDAA101000591GD13991+0066099GD23991+0117099GD34991+0240099GF108991999999999999999999MA1101351999999MW1611REMMET105KMVL 170354Z AUTO VRB03KT 10SM -RA BKN022 BKN039 OVC085 18/17 A2993 RMK AO2 RAB23 SLP133 P0002 T01830167;EQDQ01+000003PRSWM1Q02    003PRSWM1
0186726114999992000071813544+44530-072610FM-15+0223KMVL V0209999V002612200019N0096561N1+02301+01901100831ADDGD12991+0150099GF102991999999999999999999MA1100851999999MW1051REMMET077KMVL 181354Z AUTO VRB05KT 6SM HZ FEW055 23/19 A2978 RMK AO2 SLP083 T02330194;EQDQ01+000003PRSWM1Q02    003PRSWM1
0190726114999992000080514544+44530-072610FM-15+0223KMVL V0202601N003612200019N0160931N1+02001+00801101681ADDGD12991+0150099GF102991999999999999999999MA1101691999999MD1010011+9999MW1001REMMET083KMVL 051454Z AUTO 26007KT 10SM FEW050 20/08 A3003 RMK AO2 SLP168 T02000083 50001 $;EQDQ01+000000PRSWM2
0168726114999992000080813544+44530-072610FM-15+0223KMVL V0202601N005112200019N0128741N1+02401+01701101101ADDGF100991999999999999999999MA1101121999999MW1001OC100771REMMET082KMVL 081354Z AUTO 26010G15KT 210V290 8SM CLR 24/17 A2986 RMK AO2 SLP110 T02440167;EQDQ01+000000PRSWM2
0248726114999992000081223544+44530-072610FM-15+0223KMVL V0209999C000010240019N0160931N1+01901+01701101681ADDGD12991+0210099GD23991+0240099GF107991999999999999999999KA1999M+02501KA2999N+01941MA1101691999999MD1010021+9999MW1001REMMET100KMVL 122354Z AUTO 00000KT 10SM FEW070 BKN085 19/17 A3003 RMK AO2 SLP168 T01940167 10250 20194 50002;EQDQ01+000000PRSWM2
0238726114999992000081700544+44530-072610FM-15+0223KMVL V0203201N003110210019N0160931N1+01601+01301101231ADDAA101000891GD12991+0087099GD23991+0210099GD34991+0270099GF108991999999999999999999MA1101251999999MW1001REMMET104KMVL 170054Z AUTO 32006KT 10SM FEW029 BKN070 OVC090 16/13 A2990 RMK AO2 RAB12E41 SLP123 P0003 T01610128;EQDQ01+000000PRSWM2
0287726114999992000081705544+44530-072610FM-15+0223KMVL V0203101N004110096019N0160931N1+01401+01101101281ADDAA106000891GD12991+0078099GD23991+0096099GD33991+0240099GF107991999999999999999999KA1999M+01611KA2999N+01391MA1101291999999MD1010001+9999MW1001REMMET113KMVL 170554Z AUTO 31008KT 10SM SCT026 BKN032 BKN085 14/11 A2991 RMK AO2 SLP128 60003 T01440111 10161 20139 50000;EQDQ01+000000PRSWM2
0230726114999992000081910544+44530-072610FM-15+0223KMVL V0209999C000010150019N0096561N1+01301+01201101641ADDGD12991+0006099GD23991+0150099GD33991+0210099GF107991999999999999999999MA1101631999999MW1101REMMET091KMVL 191054Z AUTO 00000KT 6SM BR SCT002 BKN055 BKN075 13/12 A3001 RMK AO2 SLP164 T01280122;EQDQ01+000003PRSWM1Q02    003PRSWM1
0284726114999992000082017544+44530-072610FM-15+0223KMVL V0203401N003610150019N0160931N1+01501+00801102241ADDAA106000021GD12991+0132099GD24991+0150099GF108991999999999999999999KA1999M+01671KA2999N+01111MA1102201999999MD1310021+9999MW1001OC100931REMMET117KMVL 201754Z AUTO 34007G18KT 290V360 10SM SCT044 OVC055 15/08 A3018 RMK AO2 SLP224 60000 T01500083 10167 20111 53002;EQDQ01+000000PRSWM2
0150726114999992000082213544+44530-072610FM-15+0223KMVL V0209999C000012200019N0160931N1+01501+01101102711ADDGF100991999999999999999999MA1102711999999MW1001REMMET072KMVL 221354Z AUTO 00000KT 10SM CLR 15/11 A3033 RMK AO2 SLP271 T01500111;EQDQ01+000000PRSWM2
0226726114999992000082917544+44530-072610FM-15+0223KMVL V0202201N005112200019N0096561N1+02401+01701102361ADDGF100991999999999999999999KA1999M+02391KA2999N+00941MA1102371999999MD1610081+9999MW1051REMMET092KMVL 291754Z AUTO 22010KT 6SM HZ CLR 24/17 A3023 RMK AO2 SLP236 T02390167 10239 20094 56008;EQDQ01+000003PRSWM1Q02    003PRSWM1
0225726114999992000090323544+44530-072610FM-15+0223KMVL V0203401N002110075019N0128741N1+01701+01501101331ADDGD14991+0075099GF108991999999999999999999KA1999M+02001KA2999N+01671MA1101321999999MD1810031+9999MW1001REMMET092KMVL 032354Z AUTO 34004KT 8SM OVC025 17/15 A2992 RMK AO2 SLP133 T01670150 10200 20167 58003;EQDQ01+000000PRSWM2
0190726114999992000090916544+44530-072610FM-15+0223KMVL V0203601N004612200019N0160931N1+02201+01301102041ADDGD12991+0135099GD22991+0150099GF104991999999999999999999MA1102071999999MW1001REMMET082KMVL 091654Z AUTO 36009KT 10SM FEW045 SCT055 22/13 A3014 RMK AO2 SLP204 T02220128;EQDQ01+000000PRSWM2
0188726114999992000091010544+44530-072610FM-15+0223KMVL V0209999C00001000151CN0004021N1+00701+00701102511ADDGD15991+0001599GF109991999999000251999999MA1102471999999MW1451REMMET079KMVL 101054Z AUTO 00000KT M1/4SM FG VV001 07/07 A3026 RMK AO2 SLP251 T00670067;EQDQ01+000003PRSWM1Q02    003PRSWM1
0212726114999992000091600544+44530-072610FM-15+0223KMVL V0209999V002110114019N0160931N1+01201+01001100341ADDGD12991+0090099GD23991+0114099GD33991+0138099GF107991999999999999999999MA1100341999999MW1001REMMET089KMVL 160054Z AUTO VRB04KT 10SM FEW030 BKN038 BKN046 12/10 A2963 RMK AO2 SLP034 T01220100;EQDQ01+000000PRSWM2
0226726114999992000092505544+44530-072610FM-15+0223KMVL V0209999C000012200019N0160931N1+00301+00201101431ADDGD12991+0132099GF102991999999999999999999KA1999M+00941KA2999N+00221MA1101391999999MD1310051+9999MW1001REMMET093KMVL 250554Z AUTO 00000KT 10SM FEW044 03/02 A2994 RMK AO2 SLP143 T00280022 10094 20022 53005;EQDQ01+000000PRSWM2
0152726114999992000092903544+44530-072610FM-15+0223KMVL V0209999C000012200019N0160931N1-00201-00301102951ADDGF100991999999999999999999MA1102841999999MW1001REMMET074KMVL 290354Z AUTO 00000KT 10SM CLR M02/M03 A3037 RMK AO2 SLP295 T10221033;EQDQ01+000000PRSWM2
0215726114999992000100111544+44530-072610FM-15+0223KMVL V0209999C000012200019N0128741N1+00401+00301102301ADDGF100991999999999999999999KA1999M+00561KA2999N+00281MA1102241999999MD1310051+9999MW1001REMMET097KMVL 011154Z AUTO 00000KT 8SM CLR 04/03 A3019 RMK AO2 SLP230 7//// T00390028 10056 20028 53005 $;EQDQ01+000000PRSWM2
0248726114999992000100801544+44530-072610FM-15+0223KMVL V0209999C000010048019N0128741N1+00501+00401101771ADDAA101000591GD12991+0018099GD23991+0048099GD34991+0150099GF108991999999999999999999MA1101731999999MW1611REMMET098KMVL 080154Z AUTO 00000KT 8SM -RA SCT006 BKN016 OVC055 05/04 A3004 RMK AO2 SLP177 P0002 T00500044;EQDQ01+000003PRSWM1Q02    003PRSWM1
0220726114999992000101714544+44530-072610FM-15+0223KMVL V0209999C000010180019N0160931N1+00801+00501102741ADDGD13991+0180099GF107991999999999999999999MA1102681999999MD1710021+9999MW1001REMMET081KMVL 171454Z AUTO 00000KT 10SM BKN060 08/05 A3032 RMK AO2 SLP274 T00830050 58000;EQDQ01+000082APCTENQ02+000002APC3  Q03+000000PRSWM2
0213726114999992000101812544+44530-072610FM-15+0223KMVL V0209999C000010075019N0080461N1+00701+00601102161ADDAA101001391GD14991+0075099GF108991999999999999999999MA1102101999999MW1101MW2611REMMET087KMVL 181254Z AUTO 00000KT 5SM -RA BR OVC025 07/06 A3015 RMK AO2 SLP216 P0005 T00720061;EQDQ01+000003PRSWM1Q02    003PRSWM1
0170726114999992000102020544+44530-072610FM-15+0223KMVL V0202201N002612200019N0160931N1+01801+00101101871ADDGF100991999999999999999999MA1101831999999MD1610181+9999MW1001REMMET078KMVL 202054Z AUTO 22005KT 10SM CLR 18/01 A3007 RMK AO2 SLP187 T01780011 56018;EQDQ01+000000PRSWM2
0188726114999992000102514544+44530-072610FM-15+0223KMVL V0200101N002112200019N0048281N1+01201+00901102751ADDGF100991999999999999999999MA1102741999999MD1010021+9999MW1051REMMET080KMVL 251454Z AUTO 01004KT 3SM HZ CLR 12/09 A3034 RMK AO2 SLP275 T01220094 50002;EQDQ01+000003PRSWM1Q02    003PRSWM1
0187726114999992000102609544+44530-072610FM-15+0223KMVL V0209999C00001000151CN0004021N1+00301+00301102571ADDGD15991+0001599GF109991999999000251999999MA1102511999999MW1451REMMET078KMVL 260954Z AUTO 00000KT 1/4SM FG VV001 03/03 A3027 RMK AO2 SLP257 T00280028;EQDQ01+000003PRSWM1Q02    003PRSWM1
0246726114999992000102919334+44530-072610FM-15+0223KMVL V0203501N007210096019N0032181N1-00201-00501999999ADDAA101000021GD12991+0060099GD23991+0096099GD34991+0150099GF108991999999999999999999MA1101831999999MW1711OC100981REMMET088KMVL 291933Z AUTO 35014G19KT 2SM -SN SCT020 BKN032 OVC050 M02/M05 A3007 RMK AO2 P0000 $;EQDQ01+000003PRSWM1Q02    003PRSWM1
0244726114999992000110911544+44530-072610FM-15+0223KMVL V0209999C000010006019N0048281N1+00401+00401101711ADDGD14991+0006099GF108991999999999999999999KA1999M+00561KA2999N+00391MA1101661999999MD1810021+9999MW1101REMMET095KMVL 091154Z AUTO 00000KT 3SM BR OVC002 04/04 A3002 RMK AO2 SLP171 T00390039 10056 20039 58002;EQDQ01+000003PRSWM1Q02    003PRSWM1
0168726114999992000111303544+44530-072610FM-15+0223KMVL V0209999C000010069019N0160931N1+00301+00201101911ADDGD14991+0069099GF108991999999999999999999MA1101831999999MW1001REMMET075KMVL 130354Z AUTO 00000KT 10SM OVC023 03/02 A3007 RMK AO2 SLP191 T00280017;EQDQ01+000000PRSWM2
0259726114999992000111503544+44530-072610FM-15+0223KMVL V0209999C000010048019N0096561N1+00201+00101100651ADDAA101000591GD12991+0024099GD23991+0048099GD34991+0075099GF108991999999999999999999MA1100581999999MW1101MW2611REMMET103KMVL 150354Z AUTO 00000KT 6SM -RA BR FEW008 BKN016 OVC025 02/01 A2970 RMK AO2 SLP065 P0002 T00220011 $;EQDQ01+000003PRSWM1Q02    003PRSWM1
0216726114999992000111506364+44530-072610FM-15+0223KMVL V0209999C000010180019N0096561N1+00101+00101999999ADDAA101000021GD12991+0012099GD24991+0180099GF108991999999999999999999MA1100471999999MW1101REMMET081KMVL 150636Z AUTO 00000KT 6SM BR SCT004 OVC060 01/01 A2967 RMK AO2 RAE35 P0000 $;EQDQ01+000003PRSWM1Q02    003PRSWM1
0216726114999992000111521544+44530-072610FM-15+0223KMVL V0202901N003610108019N0144841N1+00301-00201100711ADDAA101000021GD13991+0108099GD24991+0141099GF108991999999999999999999MA1100641999999MW1001REMMET097KMVL 152154Z AUTO 29007KT 9SM UP BKN036 OVC047 03/M02 A2972 RMK AO2 UPB53 SLP071 P0000 T00281022;EQDQ01+000000PRSWM2
0227726114999992000111617544+44530-072610FM-15+0223KMVL V0209999V002610117019N0160931N1+00501-00301101051ADDGD14991+0117099GF108991999999999999999999KA1999M+00501KA2999N+00221MA1100981999999MD1810151+9999MW1001REMMET094KMVL 161754Z AUTO VRB05KT 10SM OVC039 05/M03 A2982 RMK AO2 SLP105 T00501028 10050 20022 58015;EQDQ01+000000PRSWM2
0203726114999992000111800544+44530-072610FM-15+0223KMVL V0203201N007210084019N0160931N1-00101-00601100781ADDGD13991+0084099GD24991+0108099GF108991999999999999999999MA1100711999999MW1001OC101181REMMET087KMVL 180054Z AUTO 32014G23KT 10SM BKN028 OVC036 M01/M06 A2974 RMK AO2 SLP078 T10061056;EQDQ01+000000PRSWM2
0233726114999992000112208544+44530-072610FM-15+0223KMVL V0209999C000010108019N0160931N1-00301-00701100891ADDAA101000021AA203000021GD14991+0108099GF108991999999999999999999MA1100781999999MD1210051+9999MW1001REMMET104KMVL 220854Z AUTO 00000KT 10SM OVC036 M03/M07 A2976 RMK AO2 SNB10E25 SLP089 P0000 60000 T10331067 52005;EQDQ01+000000PRSWM2
0269726114999992000112214544+44530-072610FM-15+0223KMVL V0202001N003610072019N0028161N1-00401-00701101171ADDAA101000021AA203000021GD12991+0054099GD24991+0072099GF108991999999999999999999MA1101051999999MD1110111+9999MW1711REMMET109KMVL 221454Z AUTO 20007KT 1 3/4SM -SN SCT018 OVC024 M04/M07 A2984 RMK AO2 SLP117 P0000 60000 T10441072 51011;EQDQ01+000003PRSWM1Q02    003PRSWM1
0189726114999992000112508544+44530-072610FM-15+0223KMVL V0200201N001510210019N0144841N1-01301-01601103251ADDGD14991+0210099GF108991999999999999999999MA1103081999999MD1010071+9999MW1001REMMET082KMVL 250854Z AUTO 02003KT 9SM OVC075 M13/M16 A3044 RMK AO2 SLP325 T11331156 50007;EQDQ01+000000PRSWM2
0268726114999992000112814544+44530-072610FM-15+0223KMVL V0209999C000010093019N0080461N1+00201+00201101291ADDAA101000021AA203000391GD12991+0063099GD24991+0093099GF108991999999999999999999MA1101221999999MD1110201+9999MW1101REMMET108KMVL 281454Z AUTO 00000KT 5SM BR FEW021 OVC031 02/02 A2989 RMK AO2 RAE11 SLP129 P0000 60001 T00220022 51020;EQDQ01+000003PRSWM1Q02    003PRSWM1
0232726114999992000112915544+44530-072610FM-15+0223KMVL V0202101N002110114019N0112651N1+00401+00201101611ADDAA101000021GD12991+0063099GD24991+0114099GF108991999999999999999999MA1101521999999MW1611REMMET097KMVL 291554Z AUTO 21004KT 7SM -RA FEW021 OVC038 04/02 A2998 RMK AO2 RAB54 SLP161 P0000 T00390017;EQDQ01+000003PRSWM1Q02    003PRSWM1
0242726114999992000120104414+44530-072610FM-15+0223KMVL V0203501N001510129019N0080461N1-00101-00201999999ADDAA101000021GD12991+0066099GD23991+0129099GD34991+0210099GF108991999999999999999999MA1101591999999MW1101MW2711REMMET086KMVL 010441Z AUTO 35003KT 5SM -SN BR FEW022 BKN043 OVC070 M01/M02 A3000 RMK AO2 P0000;EQDQ01+000003PRSWM1Q02    003PRSWM1
0153726114999992000120406544+44530-072610FM-15+0223KMVL V0209999C000012200019N0144841N1-01101-01301102941ADDGF100991999999999999999999MA1102811999999MW1001REMMET075KMVL 040654Z AUTO 00000KT 9SM CLR M11/M13 A3036 RMK AO2 SLP294 T11111133 $;EQDQ01+000000PRSWM2
0170726114999992000121018544+44530-072610FM-15+0223KMVL V0209999V001512200019N0160931N1-00301-01201102611ADDGD12991+0300099GF102991999999999999999999MA1102441999999MW1001REMMET077KMVL 101854Z AUTO VRB03KT 10SM FEW100 M03/M12 A3025 RMK AO2 SLP261 T10331117;EQDQ01+000000PRSWM2
0214726114999992000121506544+44530-072610FM-15+0223KMVL V0200101N003110063019N0112651N1-00801-01101103021ADDAA101000021GD13991+0063099GD24991+0084099GF108991999999999999999999MA1102881999999MW1001REMMET095KMVL 150654Z AUTO 01006KT 7SM BKN021 OVC028 M08/M11 A3038 RMK AO2 SNE09 SLP302 P0000 T10781111;EQDQ01+000000PRSWM2
0169726114999992000121616544+44530-072610FM-15+0223KMVL V0209999V002110066019N0144841N1-00201-00601103181ADDGD14991+0066099GF108991999999999999999999MA1103011999999MW1001REMMET076KMVL 161654Z AUTO VRB04KT 9SM OVC022 M02/M06 A3042 RMK AO2 SLP318 T10221056;EQDQ01+000000PRSWM2
0192726114999992000121821544+44530-072610FM-15+0223KMVL V0200501N004612200019N0160931N1-00501-00801101331ADDGD12991+0108099GD22991+0138099GF104991999999999999999999MA1101221999999MW1001REMMET084KMVL 182154Z AUTO 05009KT 10SM SCT036 SCT046 M05/M08 A2989 RMK AO2 SLP133 T10501083;EQDQ01+000000PRSWM2
0280726114999992000121902544+44530-072610FM-15+0223KMVL V0200401N002610087019N0096561N1-00901-01201101751ADDAA101000021AA203000021GD12991+0066099GD24991+0087099GF108991999999999999999999MA1101631999999MD1310191+9999MW1051REMMET120KMVL 190254Z AUTO 04005KT 6SM HZ FEW022 OVC029 M09/M12 A3001 RMK AO2 SNB04E54 PRESRR SLP175 P0000 60000 T10891117 53019;EQDQ01+000003PRSWM1Q02    003PRSWM1
0224726114999992000122502434+44530-072610FM-15+0223KMVL V0209999C000010111019N0028161N1-01001-01201999999ADDAA101000021GD13991+0111099GD24991+0150099GF108991999999999999999999MA1101491999999MW1101MW2711REMMET083KMVL 250243Z AUTO 00000KT 1 3/4SM -SN BR BKN037 OVC050 M10/M12 A2997 RMK AO2 P0000;EQDQ01+000003PRSWM1Q02    003PRSWM1
0325726115999992000010305544+43350-072520FM-15+0176KVSF V0209999C000010210019N0020111N1+00101+00101101031ADDAA101000021AA206000021GD12991+0027019GD23991+0210019GF107991999999999999999999KA1999M+00221KA2999N+00001MA1100981999999MD1610241+9999MW1101MW2611REMMET133KVSF 030554Z AUTO 00000KT 1 1/4SM -RA BR FEW009 BKN070 01/01 A2982 RMK AO2 RAB51 SLP103 P0000 60000 T00110006 10022 20000 56024 TSNO;EQDQ01+000003PRSWM1Q02    003PRSWM1
0054726115999992000010705009+43350-072517NSRDB+017699999V020999999999999999999999999999+99999+99999999999ADDGP10060000002000000002000000002000GR100600000900009
0071726115999992000010822009+43350-072517NSRDB+017699999V020999999999999999999999999999+99999+99999999999ADDGP10060000002009000002021000002009GQ100600880923679GR100600025906969
0071726115999992000011015009+43350-072517NSRDB+017699999V020999999999999999999999999999+99999+99999999999ADDGP10060006302009000002021006302009GQ100600736914469GR100600399914159
0182726115999992000011201544+43350-072520FM-15+0176KVSF V0202201N003610180019N0160931N1+00301-00301099901ADDGD14991+0180019GF108991999999999999999999MA1099861999999MW1001REMMET089KVSF 120154Z AUTO 22007KT 180V260 10SM OVC060 03/M03 A2949 RMK AO2 SLP990 T00281028 TSNO;EQDQ01+000000PRSWM2
0176726115999992000011221544+43350-072520FM-15+0176KVSF V0202701N004112200019N0160931N1-00101-01301101751ADDGF100991999999999999999999MA1101691999999MW1001REMMET098KVSF 122154Z AUTO 27008KT 230V310 10SM CLR M01/M13 A3003 RMK AO2 WSHFT 2040 SLP175 T10111128 TSNO;EQDQ01+000000PRSWM2
0177726115999992000011307544+43350-072520FM-15+0176KVSF V0209999V001510102019N0160931N1-00401-01201101761ADDGD14991+0102019GF108991999999999999999999MA1101661999999MW1001REMMET084KVSF 130754Z AUTO VRB03KT 10SM OVC034 M04/M12 A3002 RMK AO2 SLP176 T10441117 TSNO $;EQDQ01+000000PRSWM2
0054726115999992000011407009+43350-072517NSRDB+017699999V020999999999999999999999999999+99999+99999999999ADDGP10060000002000000002000000002000GR100600000900009
0246726115999992000011417544+43350-072520FM-15+0176KVSF V0203601N009312200019N0160931N1-01301-02601102651ADDGF100991999999999999999999KA1999M-01281KA2999N-01671MA1102511999999MD1610131+9999MW1001OC101341REMMET120KVSF 141754Z AUTO 36018G26KT 10SM CLR M13/M26 A3027 RMK AO2 PK WND 36031/1721 SLP265 T11281261 11128 21167 56013 TSNO $;EQDQ01+000000PRSWM2
0156726115999992000011521544+43350-072520FM-15+0176KVSF V0201201N001512200019N0160931N1-01101-02301999999ADDGF100991999999999999999999MA1103451999999MW1001REMMET078KVSF 152154Z AUTO 12003KT 10SM CLR M11/M23 A3055 RMK AO2 SLPNO T11061228 TSNO;EQDQ01+000000PRSWM2
0071726115999992000011919009+43350-072517NSRDB+017699999V020999999999999999999999999999+99999+99999999999ADDGP10060037602009076902021007402009GQ100600670920279GR100600552914139
0071726115999992000012014009+43350-072517NSRDB+017699999V020999999999999999999999999999+99999+99999999999ADDGP10060010302009012302021008102009GQ100600798913079GR100600250914139
0258726115999992000012014544+43350-072520FM-15+0176KVSF V0209999C000010051019N0028161N1-01401-01701100951ADDAA101000021AA203000021GD14991+0051019GF108991999999999999999999MA1100811999999MD1810061+9999MW1711REMMET113KVSF 201454Z AUTO 00000KT 1 3/4SM -SN OVC017 M14/M17 A2977 RMK AO2 SNB26 SLP095 P0000 60000 T11441172 58006 TSNO;EQDQ01+000003PRSWM1Q02    003PRSWM1
0054726115999992000012201009+43350-072517NSRDB+017699999V020999999999999999999999999999+99999+99999999999ADDGP10060000002000000002000000002000GR100600000900009
0168726115999992000012216544+43350-072520FM-15+0176KVSF V0203001N006712200019N0160931N1-01701-02801101551ADDGF100991999999999999999999MA1101391999999MW1001OC101081REMMET082KVSF 221654Z AUTO 30013G21KT 10SM CLR M17/M28 A2994 RMK AO2 SLP155 T11671278 TSNO;EQDQ01+000000PRSWM2
0175726115999992000012407544+43350-072520FM-15+0176KVSF V0209999C000010111019N0160931N1-00901-01301102041ADDGD14991+0111019GF108991999999999999999999MA1101931999999MW1001REMMET082KVSF 240754Z AUTO 00000KT 10SM OVC037 M09/M13 A3010 RMK AO2 SLP204 T10891128 TSNO;EQDQ01+000000PRSWM2
0054726115999992000012701009+43350-072517NSRDB+017699999V020999999999999999999999999999+99999+99999999999ADDGP10060000002000000002000000002000GR100600000900009
0071726115999992000020314009+43350-072517NSRDB+017699999V020999999999999999999999999999+99999+99999999999ADDGP10060019202009051002021007902009GQ100600774912809GR100600308914089
0286726115999992000020517544+43350-072520FM-15+0176KVSF V0202601N003612200019N0160931N1-00101-01401101011ADDAA101001591AA206001591GF100991999999999999999999KA1999M-00111KA2999N-01561MA1100911999999MD1810181+9999MW1001OC100721REMMET138KVSF 051754Z AUTO 26007G14KT 230V300 10SM CLR M01/M14 A2980 RMK AO2 PK WND 27026/1658 SLP101 P0006 60006 T10111144 11011 21156 58018 TSNO;EQDQ01+000000PRSWM2
0272726115999992000020609544+43350-072520FM-15+0176KVSF V0203201N003110090019N0064371N1-00801-01301101561ADDAA101000021GD12991+0060019GD23991+0090019GD34991+0102019GF108991999999999999999999MA1101491999999MW1711OC100871REMMET114KVSF 060954Z AUTO 32006G17KT 4SM -SN SCT020 BKN030 OVC034 M08/M13 A2997 RMK AO2 SNB31 SLP156 P0000 T10781128 TSNO;EQDQ01+000003PRSWM1Q02    003PRSWM1
0168726115999992000020615544+43350-072520FM-15+0176KVSF V0203001N005712200019N0160931N1-00601-01901101961ADDGF100991999999999999999999MA1101861999999MW1001OC101081REMMET082KVSF 061554Z AUTO 30011G21KT 10SM CLR M06/M19 A3008 RMK AO2 SLP196 T10561194 TSNO;EQDQ01+000000PRSWM2
0054726115999992000020810009+43350-072517NSRDB+017699999V020999999999999999999999999999+99999+99999999999ADDGP10060000002000000002000000002000GR100600000900009
0222726115999992000020919544+43350-072520FM-15+0176KVSF V0202301N004110129019N0160931N1+00301-00201101291ADDAA101000021GD13991+0129019GD23991+0300019GF107991999999999999999999MA1101191999999MW1001REMMET103KVSF 091954Z AUTO 23008KT 10SM BKN043 BKN100 03/M02 A2988 RMK AO2 SNB12E19 SLP129 P0000 T00331017 TSNO;EQDQ01+000000PRSWM2
0054726115999992000021201009+43350-072517NSRDB+017699999V020999999999999999999999999999+99999+99999999999ADDGP10060000002000000002000000002000GR100600000900009
0054726115999992000021508009+43350-072517NSRDB+017699999V020999999999999999999999999999+99999+99999999999ADDGP10060000002000000002000000002000GR100600000900009
0157726115999992000021803544+43350-072520FM-15+0176KVSF V0209999C000012200019N0160931N1-01801-02201103681ADDGF100991999999999999999999MA1103521999999MW1001REMMET079KVSF 180354Z AUTO 00000KT 10SM CLR M18/M22 A3057 RMK AO2 SLP368 T11781217 TSNO;EQDQ01+000000PRSWM2
0193726115999992000022007544+43350-072520FM-15+0176KVSF V0209999C000010072019N0096561N1-00301-00401101781ADDGD14991+0072019GF108991999999999999999999MA1101691999999MW1101REMMET084KVSF 200754Z AUTO 00000KT 6SM BR OVC024 M03/M04 A3003 RMK AO2 SLP178 T10331044 TSNO;EQDQ01+000003PRSWM1Q02    003PRSWM1
0202726115999992000022119544+43350-072520FM-15+0176KVSF V0202801N005110141019N0160931N1+00101-00801102831ADDAA101001591GD14991+0141019GF108991999999999999999999MA1102741999999MW1001OC100871REMMET090KVSF 211954Z AUTO 28010G17KT 10SM OVC047 01/M08 A3034 RMK AO2 SLP283 P0006 T00061078 TSNO;EQDQ01+000000PRSWM2
0185726115999992000022719544+43350-072520FM-15+0176KVSF V0201501N00211002401CN0160931N1+00701+00601101921ADDGD13991+0030019GF107991999999999999999999MA1101861999999MW1001REMMET092KVSF 271954Z AUTO 15004KT 10SM BKN010 07/06 A3008 RMK AO2 CIG 008V014 SLP192 T00670056 TSNO;EQDQ01+000000PRSWM2
0175726115999992000030709544+43350-072520FM-15+0176KVSF V0209999C000010300019N0160931N1-00601-00701102321ADDGD13991+0300019GF107991999999999999999999MA1102241999999MW1001REMMET082KVSF 070954Z AUTO 00000KT 10SM BKN100 M06/M07 A3019 RMK AO2 SLP232 T10561072 TSNO;EQDQ01+000000PRSWM2
0156726115999992000030900544+43350-072520FM-15+0176KVSF V0209999C000012200019N0160931N1+00201-00101101491ADDGF100991999999999999999999MA1101421999999MW1001REMMET078KVSF 090054Z AUTO 00000KT 10SM CLR 02/M01 A2995 RMK AO2 SLP149 T00171011 TSNO;EQDQ01+000000PRSWM2
0071726115999992000031823009+43350-072517NSRDB+017699999V020999999999999999999999999999+99999+99999999999ADDGP10060004402008023902015002402008GQ100600850926479GR100600118913459
0071726115999992000032022009+43350-072517NSRDB+017699999V020999999999999999999999999999+99999+99999999999ADDGP10060022402008055702015007102008GQ100600741925479GR100600377913789
0071726115999992000032717009+43350-072517NSRDB+017699999V020999999999999999999999999999+99999+99999999999ADDGP10060077002008071502015022902008GQ100600410917049GR100601036913729
0054726115999992000040102009+43350-072517NSRDB+017699999V020999999999999999999999999999+99999+99999999999ADDGP10060000002000000002000000002000GR100600000900009
0157726115999992000040610544+43350-072520FM-15+0176KVSF V0202701N002112200019N0160931N1-00101-00401100741ADDGF100991999999999999999999MA1100681999999MW1001REMMET079KVSF 061054Z AUTO 27004KT 10SM CLR M01/M04 A2973 RMK AO2 SLP074 T10111039 TSNO;EQDQ01+000000PRSWM2
0173726115999992000041916544+43350-072520FM-15+0176KVSF V0209999C000010045019N0160931N1+00601+00201102151ADDGD14991+0045019GF108991999999999999999999MA1102101999999MW1001REMMET080KVSF 191654Z AUTO 00000KT 10SM OVC015 06/02 A3015 RMK AO2 SLP215 T00610022 TSNO;EQDQ01+000000PRSWM2
0157726115999992000042510544+43350-072520FM-15+0176KVSF V0209999C000012200019N0160931N1-00101-00201101741ADDGF100991999999999999999999MA1101691999999MW1001REMMET079KVSF 251054Z AUTO 00000KT 10SM CLR M01/M02 A3003 RMK AO2 SLP174 T10111017 TSNO;EQDQ01+000000PRSWM2
0054726115999992000042709009+43350-072517NSRDB+017699999V020999999999999999999999999999+99999+99999999999ADDGP10060000002000000002000000002000GR100600000900009
0191726115999992000042912544+43350-072520FM-15+0176KVSF V0209999C000010003019N0080461N1+00201+00101101641ADDGD14991+0003019GF108991999999999999999999MA1101591999999MW1101REMMET082KVSF 291254Z AUTO 00000KT 5SM BR OVC001 02/01 A3000 RMK AO2 SLP164 T00170011 TSNO;EQDQ01+000003PRSWM1Q02    003PRSWM1
0155726115999992000042915544+43350-072520FM-15+0176KVSF V0209999V001512200019N0160931N1+01601+00201101411ADDGF100991999999999999999999MA1101391999999MW1001REMMET077KVSF 291554Z AUTO VRB03KT 10SM CLR 16/02 A2994 RMK AO2 SLP141 T01610022 TSNO;EQDQ01+000000PRSWM2
0174726115999992000050121544+43350-072520FM-15+0176KVSF V0209999C000010210019N0160931N1+01601-00301100881ADDGD14991+0210019GF108991999999999999999999MA1100851999999MW1001REMMET081KVSF 012154Z AUTO 00000KT 10SM OVC075 16/M03 A2978 RMK AO2 SLP088 T01561028 TSNO;EQDQ01+000000PRSWM2
0219726115999992000050203544+43350-072520FM-15+0176KVSF V0209999C000010180019N0160931N1+00901-00101100851ADDAA101000591GD14991+0180019GF108991999999999999999999MA1100851999999MW1611REMMET099KVSF 020354Z AUTO 00000KT 10SM -RA OVC060 09/M01 A2978 RMK AO2 RAB0257 SLP085 P0002 T00891006 TSNO;EQDQ01+000003PRSWM1Q02    003PRSWM1
0054726115999992000050204009+43350-072517NSRDB+017699999V020999999999999999999999999999+99999+99999999999ADDGP10060000002000000002000000002000GR100600000900009
0071726115999992000050315009+43350-072517NSRDB+017699999V020999999999999999999999999999+99999+99999999999ADDGP10060076502008078602015016202008GQ100600401912299GR100601028913449
0173726115999992000050518544+43350-072520FM-15+0176KVSF V0203001N004612200019N0160931N1+02401+01401101521ADDGD12991+0240019GF104991999999999999999999MA1101521999999MW1001REMMET080KVSF 051854Z AUTO 30009KT 10SM SCT080 24/14 A2998 RMK AO2 SLP152 T02390139 TSNO;EQDQ01+000000PRSWM2
0071726115999992000050600009+43350-072517NSRDB+017699999V020999999999999999999999999999+99999+99999999999ADDGP10060001802008001702015001702008GQ100600857928909GR100600094912429
0157726115999992000051806544+43350-072520FM-15+0176KVSF V0209999C000012200019N0160931N1+00801+00701101981ADDGF100991999999999999999999MA1101961999999MW1001REMMET079KVSF 180654Z AUTO 00000KT 10SM CLR 08/07 A3011 RMK AO2 SLP198 T00830072 TSNO $;EQDQ01+000000PRSWM2
0071726115999992000052221009+43350-072517NSRDB+017699999V020999999999999999999999999999+99999+99999999999ADDGP10060011702008000002015011702008GQ100600514926219GR100600830913329
0192726115999992000052508544+43350-072520FM-15+0176KVSF V0209999C000010330019N0128741N1+01201+01201099731ADDGD14991+0330019GF108991999999999999999999MA1099731999999MD1610161+9999MW1001REMMET085KVSF 250854Z AUTO 00000KT 8SM OVC110 12/12 A2945 RMK AO2 SLP973 T01220117 56016 TSNO;EQDQ01+000000PRSWM2
0231726115999992000052905544+43350-072520FM-15+0176KVSF V0209999C000010147019N0160931N1+01101+01001101611ADDGD14991+0147019GF108991999999999999999999KA1999M+01501KA2999N+01111MA1101591999999MD1110061+9999MW1001REMMET098KVSF 290554Z AUTO 00000KT 10SM OVC049 11/10 A3000 RMK AO2 SLP161 T01110100 10150 20111 51006 TSNO;EQDQ01+000000PRSWM2
0071726115999992000053022009+43350-072517NSRDB+017699999V020999999999999999999999999999+99999+99999999999ADDGP10060039402008048602015016002008GQ100600612927399GR100600638913299
0054726115999992000060109009+43350-072517NSRDB+017699999V020999999999999999999999999999+99999+99999999999ADDGP10060000002000000002000000002000GR100600000900009
0054726115999992000060304009+43350-072517NSRDB+017699999V020999999999999999999999999999+99999+99999999999ADDGP10060000002000000002000000002000GR100600000900009
0071726115999992000060323009+43350-072517NSRDB+017699999V020999999999999999999999999999+99999+99999999999ADDGP10060010502008000602015010302008GQ100600715928389GR100600420913279
0071726115999992000060511009+43350-072517NSRDB+017699999V020999999999999999999999999999+99999+99999999999ADDGP10060006902008000002015006902008GQ100600778907029GR100600280913269
0054726115999992000060703009+43350-072517NSRDB+017699999V020999999999999999999999999999+99999+99999999999ADDGP10060000002000000002000000002000GR100600000900009
0177726115999992000061003544+43350-072520FM-15+0176KVSF V0209999C000012200019N0040231N1+01601+01601101591ADDGF100991999999999999999999MA1101591999999MW1101REMMET083KVSF 100354Z AUTO 00000KT 2 1/2SM BR CLR 16/16 A3000 RMK AO2 SLP159 T01560156 TSNO;EQDQ01+000003PRSWM1Q02    003PRSWM1
0174726115999992000061108544+43350-072520FM-15+0176KVSF V0209999C000012200019N0112651N1+01401+01401101381ADDGF100991999999999999999999MA1101421999999MD1610011+9999MW1001REMMET082KVSF 110854Z AUTO 00000KT 7SM CLR 14/14 A2995 RMK AO2 SLP138 T01440139 56001 TSNO;EQDQ01+000000PRSWM2
0195726115999992000061201544+43350-072520FM-15+0176KVSF V0200601N003610099019N0160931N1+01501+01201101931ADDGD12991+0078019GD24991+0099019GF108991999999999999999999MA1101931999999MW1001REMMET087KVSF 120154Z AUTO 06007KT 10SM SCT026 OVC033 15/12 A3010 RMK AO2 SLP193 T01500122 TSNO;EQDQ01+000000PRSWM2
0191726115999992000061612544+43340-072520FM-15+0176KVSF V0209999V001510021019N0096561N1+02101+01901101311ADDGD14991+0021019GF108991999999999999999999MA1101321999999MW1101REMMET082KVSF 161254Z AUTO VRB03KT 6SM BR OVC007 21/19 A2992 RMK AO2 SLP131 T02060194 TSNO;EQDQ01+000003PRSWM1Q02    003PRSWM1
0173726115999992000061707544+43340-072520FM-15+0176KVSF V0202801N001512200019N0048281N1+01801+01801101071ADDGF100991999999999999999999MA1101081999999MW1101REMMET079KVSF 170754Z AUTO 28003KT 3SM BR CLR 18/18 A2985 RMK AO2 SLP107 T01830183 TSNO;EQDQ01+000003PRSWM1Q02    003PRSWM1
0071726115999992000061801009+43350-072517NSRDB+017699999V020999999999999999999999999999+99999+99999999999ADDGP10060000002008000002015000002008GQ100600878930119GR100600026906959
0173726115999992000062113544+43340-072520FM-15+0176KVSF V0201401N003110330019N0160931N1+01901+01401101501ADDGD13991+0330019GF107991999999999999999999MA1101521999999MW1001REMMET080KVSF 211354Z AUTO 14006KT 10SM BKN110 19/14 A2998 RMK AO2 SLP150 T01890139 TSNO;EQDQ01+000000PRSWM2
0071726115999992000062421009+43350-072517NSRDB+017699999V020999999999999999999999999999+99999+99999999999ADDGP10060061402008070502015014702008GQ100600486926399GR100600873913229
0155726115999992000062900544+43340-072520FM-15+0176KVSF V0209999C000012200019N0160931N1+02001+01301101401ADDGF100991999999999999999999MA1101421999999MW1001REMMET077KVSF 290054Z AUTO 00000KT 10SM CLR 20/13 A2995 RMK AO2 SLP140 T02000133 TSNO;EQDQ01+000000PRSWM2
0173726115999992000070306544+43340-072520FM-15+0176KVSF V0209999C000012200019N0096561N1+01501+01401101551ADDGF100991999999999999999999MA1101591999999MW1101REMMET079KVSF 030654Z AUTO 00000KT 6SM BR CLR 15/14 A3000 RMK AO2 SLP155 T01500144 TSNO;EQDQ01+000003PRSWM1Q02    003PRSWM1
0071726115999992000070501009+43350-072517NSRDB+017699999V020999999999999999999999999999+99999+99999999999ADDGP10060000002008000002015000002008GQ100600878930019GR100600027906949
0071726115999992000070519009+43350-072517NSRDB+017699999V020999999999999999999999999999+99999+99999999999ADDGP10060087502008083102015014402008GQ100600286923089GR100601159913219
0174726115999992000071016544+43340-072520FM-15+0176KVSF V0202801N004612200019N0160931N1+02801+01601100301ADDGF100991999999999999999999MA1100341999999MW1001OC100821REMMET088KVSF 101654Z AUTO 28009G16KT 250V310 10SM CLR 28/16 A2963 RMK AO2 SLP030 T02780161 TSNO;EQDQ01+000000PRSWM2
0071726115999992000071017009+43350-072517NSRDB+017699999V020999999999999999999999999999+99999+99999999999ADDGP10060087702008058302015033602008GQ100600221916439GR100601224913229
0213726115999992000071205544+43340-072520FM-15+0176KVSF V0209999C000012200019N0160931N1+01201+01101101451ADDGF100991999999999999999999KA1999M+02111KA2999N+01171MA1101461999999MD1110021+9999MW1001REMMET095KVSF 120554Z AUTO 00000KT 10SM CLR 12/11 A2996 RMK AO2 SLP145 T01170106 10211 20117 51002 TSNO;EQDQ01+000000PRSWM2
0071726115999992000071401009+43350-072517NSRDB+017699999V020999999999999999999999999999+99999+99999999999ADDGP10060000002008000002015000002008GQ100600880929889GR100600021906069
0054726115999992000071704009+43350-072517NSRDB+017699999V020999999999999999999999999999+99999+99999999999ADDGP10060000002000000002000000002000GR100600000900009
0054726115999992000071706009+43350-072517NSRDB+017699999V020999999999999999999999999999+99999+99999999999ADDGP10060000002000000002000000002000GR100600000900009
0071726115999992000072311009+43350-072517NSRDB+017699999V020999999999999999999999999999+99999+99999999999ADDGP10060010202008019802015007102008GQ100600809907099GR100600208913249
0071726115999992000073000009+43350-072517NSRDB+017699999V020999999999999999999999999999+99999+99999999999ADDGP10060002202008000002015002202008GQ100600831928919GR100600159913259
0287726115999992000080323544+43340-072520FM-15+0176KVSF V0201301N001510330019N0096561N1+02101+01901101241ADDAA101000021AA206000021GD13991+0330019GF107991999999999999999999KA1999M+02721KA2999N+02111MA1101251999999MD1310071+9999MW1101REMMET116KVSF 032354Z AUTO 13003KT 6SM BR BKN110 21/19 A2990 RMK AO2 RAB36E45 SLP124 P0000 60000 T02110194 10272 20211 53007;EQDQ01+000003PRSWM1Q02    003PRSWM1
0054726115999992000080408009+43350-072517NSRDB+017699999V020999999999999999999999999999+99999+99999999999ADDGP10060000002000000002000000002000GR100600000900009
0146726115999992000080619544+43340-072520FM-16+0176KVSF V0201801N004112200019N0160931N1+02301+99999101501ADDGF100991999999999999999999MA1101521999999MW1001REMMET068KVSF 061954Z AUTO 18008KT 10SM CLR 23/ A2998 RMK AO2 SLP150 T0233 $;EQDQ01+000000PRSWM2
0054726115999992000081102009+43350-072517NSRDB+017699999V020999999999999999999999999999+99999+99999999999ADDGP10060000002000000002000000002000GR100600000900009
0071726115999992000081311009+43350-072517NSRDB+017699999V020999999999999999999999999999+99999+99999999999ADDGP10060001602008000002015001602008GQ100600843907529GR100600132913319
0054726115999992000081606009+43350-072517NSRDB+017699999V020999999999999999999999999999+99999+99999999999ADDGP10060000002000000002000000002000GR100600000900009
0150726115999992000081706544+43340-072520FM-15+0176KVSF V0209999C000012200019N0160931N1+01401+01101101261ADDGF100991999999999999999999MA1101291999999MW1001REMMET072KVSF 170654Z AUTO 00000KT 10SM CLR 14/11 A2991 RMK AO2 SLP126 T01390111;EQDQ01+000000PRSWM2
0054726115999992000081807009+43350-072517NSRDB+017699999V020999999999999999999999999999+99999+99999999999ADDGP10060000002000000002000000002000GR100600000900009
0071726115999992000081816009+43350-072517NSRDB+017699999V020999999999999999999999999999+99999+99999999999ADDGP10060076402008060902015026802008GQ100600356914339GR100601085913349
0054726115999992000082009009+43350-072517NSRDB+017699999V020999999999999999999999999999+99999+99999999999ADDGP10060000002000000002000000002000GR100600000900009
0071726115999992000082416009+43350-072517NSRDB+017699999V020999999999999999999999999999+99999+99999999999ADDGP10060075202008067502015021302008GQ100600372914539GR100601065913379
0226726115999992000082917544+43340-072520FM-15+0176KVSF V0201301N004110111019N0160931N1+02401+01601102421ADDGD14991+0111019GF108991999999999999999999KA1999M+02391KA2999N+01441MA1102441999999MD1610141+9999MW1001REMMET093KVSF 291754Z AUTO 13008KT 10SM OVC037 24/16 A3025 RMK AO2 SLP242 T02390161 10239 20144 56014;EQDQ01+000000PRSWM2
0071726115999992000090711009+43350-072517NSRDB+017699999V020999999999999999999999999999+99999+99999999999ADDGP10060000202008000002015000202008GQ100600869908469GR100600045908419
0071726115999992000090713009+43350-072517NSRDB+017699999V020999999999999999999999999999+99999+99999999999ADDGP10060014902008001302015014402008GQ100600676910389GR100600513913469
0054726115999992000091003009+43350-072517NSRDB+017699999V020999999999999999999999999999+99999+99999999999ADDGP10060000002000000002000000002000GR100600000900009
0071726115999992000091214009+43350-072517NSRDB+017699999V020999999999999999999999999999+99999+99999999999ADDGP10060017802008000602015017502008GQ100600585911809GR100600704913509
0257726115999992000091307544+43340-072520FM-15+0176KVSF V0202901N001510123019N0032181N1+01901+01901101001ADDAA101000591GD12991+0003019GD22991+0078019GD33991+0123019GF107991999999999999999999MA1101021999999MW1101MW2611REMMET101KVSF 130754Z AUTO 29003KT 2SM -RA BR FEW001 SCT026 BKN041 19/19 A2983 RMK AO2 SLP100 P0002 T01890189;EQDQ01+000003PRSWM1Q02    003PRSWM1
0170726115999992000091320544+43340-072520FM-15+0176KVSF V0203101N004112200019N0160931N1+02301+01201101381ADDGF100991999999999999999999MA1101391999999MD1310011+9999MW1001REMMET078KVSF 132054Z AUTO 31008KT 10SM CLR 23/12 A2994 RMK AO2 SLP138 T02280117 53001;EQDQ01+000000PRSWM2
0071726115999992000091622009+43350-072517NSRDB+017699999V020999999999999999999999999999+99999+99999999999ADDGP10060010502008002802015009802008GQ100600749925869GR100600352913539
0071726115999992000091822009+43350-072517NSRDB+017699999V020999999999999999999999999999+99999+99999999999ADDGP10060015602008028902015008402008GQ100600756925819GR100600337913549
0220726115999992000092123544+43340-072520FM-16+0176KVSF V0202601N005112200019N0160931N1+01601+99999101031ADDGD12991+0180019GF104991999999999999999999KA1999M+02001KA2999N+01561MA1101021999999MD1310311+9999MW1001REMMET087KVSF 212354Z AUTO 26010KT 10SM SCT060 16/ A2983 RMK AO2 SLP103 T0156 10200 20156 53031;EQDQ01+000000PRSWM2
0054726115999992000092307009+43350-072517NSRDB+017699999V020999999999999999999999999999+99999+99999999999ADDGP10060000002000000002000000002000GR100600000900009
0223726115999992000092704544+43340-072520FM-15+0176KVSF V0209999C00001000151CN0004021N1+00301+00301101821ADDGD15991+0001519GF109991999999000251999999KA1999M+01221KA2999N+00281MA1101761999999MW1451REMMET088KVSF 270454Z AUTO 00000KT 1/4SM FG VV001 03/03 A3005 RMK AO2 SLP182 T00280028 401220028;EQDQ01+000003PRSWM1Q02    003PRSWM1
0191726115999992000100907544+43340-072520FM-15+0176KVSF V0209999C00001000151CN0004021N1-00201-00201102261ADDGD15991+0001519GF109991999999000251999999MA1102201999999MW1491REMMET082KVSF 090754Z AUTO 00000KT 1/4SM FZFG VV001 M02/M02 A3018 RMK AO2 SLP226 T10171017;EQDQ01+000003PRSWM1Q02    003PRSWM1
0054726115999992000101001009+43350-072517NSRDB+017699999V020999999999999999999999999999+99999+99999999999ADDGP10060000002000000002000000002000GR100600000900009
0150726115999992000101301544+43340-072520FM-15+0176KVSF V0209999V002612200019N0160931N1+00901+00501102081ADDGF100991999999999999999999MA1102071999999MW1001REMMET072KVSF 130154Z AUTO VRB05KT 10SM CLR 09/05 A3014 RMK AO2 SLP208 T00940050;EQDQ01+000000PRSWM2
0071726115999992000101319009+43350-072517NSRDB+017699999V020999999999999999999999999999+99999+99999999999ADDGP10060050802008069402015013602008GQ100600576921399GR100600735913749
0054726115999992000101709009+43350-072517NSRDB+017699999V020999999999999999999999999999+99999+99999999999ADDGP10060000002000000002000000002000GR100600000900009
0258726115999992000101723544+43340-072520FM-15+0176KVSF V0209999C000010081019N0160931N1+00801+00801102661ADDGD14991+0081019GF108991999999999999999999KA1999M+00941KA2999N+00781MA1102611999999MD1710011+9999MW1001REMMET093KVSF 172354Z AUTO 00000KT 10SM OVC027 08/08 A3030 RMK AO2 SLP266 T00830078 10094 20078 58000;EQDQ01+000082APCTENQ02+000002APC3  Q03+000000PRSWM2
0168726115999992000101921544+43340-072520FM-15+0176KVSF V0209999V002110240019N0160931N1+01201+00101101631ADDGD13991+0240019GF107991999999999999999999MA1101591999999MW1001REMMET075KVSF 192154Z AUTO VRB04KT 10SM BKN080 12/01 A3000 RMK AO2 SLP163 T01170011;EQDQ01+000000PRSWM2
0168726115999992000102109544+43340-072520FM-15+0176KVSF V0209999C000012200019N0160931N1+00001+00001101941ADDGD12991+0006019GF102991999999999999999999MA1101901999999MW1001REMMET075KVSF 210954Z AUTO 00000KT 10SM FEW002 00/00 A3009 RMK AO2 SLP194 T00000000;EQDQ01+000000PRSWM2
0151726115999992000102403544+43340-072520FM-15+0176KVSF V0209999C000012200019N0160931N1+00001-00101103301ADDGF100991999999999999999999MA1103251999999MW1001REMMET073KVSF 240354Z AUTO 00000KT 10SM CLR 00/M01 A3049 RMK AO2 SLP330 T00001006;EQDQ01+000000PRSWM2
0054726115999992000102404009+43350-072517NSRDB+017699999V020999999999999999999999999999+99999+99999999999ADDGP10060000002000000002000000002000GR100600000900009
0152726115999992000102601544+43340-072520FM-15+0176KVSF V0209999C000012200019N0160931N1+00701+00701102651ADDGF100991999999999999999999MA1102611999999MW1001REMMET074KVSF 260154Z AUTO 00000KT 10SM CLR 07/07 A3030 RMK AO2 SLP265 T00720067 $;EQDQ01+000000PRSWM2
0054726115999992000102710009+43350-072517NSRDB+017699999V020999999999999999999999999999+99999+99999999999ADDGP10060000002000000002000000002000GR100600000900009
0214726115999992000103108354+43340-072520FM-15+0176KVSF V0200101N004110270019N0160931N1+00401+00101999999ADDGD12991+0072019GD22991+0096019GD34991+0270019GF108991999999999999999999MA1101831999999MW1001OC100871REMMET083KVSF 310835Z AUTO 01008G17KT 340V040 10SM SCT024 SCT032 OVC090 04/01 A3007 RMK AO2;EQDQ01+000000PRSWM2
0054726115999992000110103009+43350-072517NSRDB+017699999V020999999999999999999999999999+99999+99999999999ADDGP10060000002000000002000000002000GR100600000900009
0054726115999992000110500009+43350-072517NSRDB+017699999V020999999999999999999999999999+99999+99999999999ADDGP10060000002000000002000000002000GR100600000900009
0071726115999992000110822009+43350-072517NSRDB+017699999V020999999999999999999999999999+99999+99999999999ADDGP10060000002009000002021000002009GQ100600877924449GR100600029907099
0071726115999992000111013009+43350-072517NSRDB+017699999V020999999999999999999999999999+99999+99999999999ADDGP10060002102009000002021002102009GQ100600823912269GR100600186913959
0071726115999992000111019009+43350-072517NSRDB+017699999V020999999999999999999999999999+99999+99999999999ADDGP10060006202009000002021006202009GQ100600664921039GR100600559913959
0168726115999992000111309544+43340-072520FM-15+0176KVSF V0209999C000010054019N0160931N1+00401+00201101871ADDGD14991+0054019GF108991999999999999999999MA1101831999999MW1001REMMET075KVSF 130954Z AUTO 00000KT 10SM OVC018 04/02 A3007 RMK AO2 SLP187 T00390017;EQDQ01+000000PRSWM2
