0150723627230812000041315484+35520-108780FM-15+1972KGUP V0203501N002112200019N0402331N1+01401-00201102051ADDGD12991+0660019GF102991999999999999999999MA1102571999999MW1001REMMET057KGUP 131548Z 35004KT 25SM FEW220 14/M02 A3029 RMK SLP205;EQDQ01+000000PRSWM2
0281723627230812000041402003+35517-108783FM-15+1971GUP  V0202405N003652200059N040000599+01705+99999101345ADDGD11995+9999999GF101995999999999999999999GP10060001902008028302015000602008GQ100600858927889GR100600076910309MA1999999080195EQDN01 00000JPWTH 0QNNE71D0 00299F71 0 00199G71U0 99999L71 0 02500M71 0 23680N71 0 00000Q71 0 10134S71D0 00063R71 0 00170V71D0 00199U71 0 00199X71 0 24007
0071723627230812000041514009+35517-108783NSRDB+197199999V020999999999999999999999999999+99999+99999999999ADDGP10060011202008047502015003902008GQ100600811908409GR100600210913579
0132723627230812000041807484+35520-108780FM-15+1972KGUP V0201601N004612200019N0241401N1+00901-01301101091ADDGF100991999999999999999999MA1101901999999MW1001REMMET054KGUP 180748Z 16009KT 15SM SKC 09/M13 A3009 RMK SLP109;EQDQ01+000000PRSWM2
0338723627230812000041911513+35517-108783FM-15+1971GUP  V0209999C000052200059N0240005N1-00501-01001101425ADDGD11995+0150019GF101995999999999999999999KA1999M+00321KA2999N-00541MA1101661080055MD1510001+9999MW1001REMMET076KGUP 191151Z 00000KT 15SM FEW050 M05/M10 A3002 RMK SLP142 10032 21054 55000;EQDQ01+000000PRSWM2N01 00000JPWTH 0QNNE71D0 00299F71 0 00199G71U0 99999L71 0 01500M71 0 23640N71 0 00000Q71 0 10142V71D0 00199U71 0 00199X71 0 00000
0054723627230812000042209009+35517-108783NSRDB+197199999V020999999999999999999999999999+99999+99999999999ADDGP10060000002000000002000000002000GR100600000900009
0172723627230812000042303484+35520-108780FM-15+1972KGUP V0202501N004112200019N0241401N1+01101-00201100831ADDGD12991+0240019GD22991+0360019GF102991999999999999999999MA1101391999999MW1001REMMET064KGUP 230348Z 25008KT 15SM FEW080 FEW120 11/M02 A2994 RMK SLP083;EQDQ01+000000PRSWM2
0071723627230812000050216009+35517-108783NSRDB+197199999V020999999999999999999999999999+99999+99999999999ADDGP10060061002008090102015006902008GQ100600531909719GR100600806913449
0264723627230812000050411003+35517-108783FM-15+1971GUP  V0209999C000052200059N024000599+00305+99999101245ADDGD10005+9999999GF100995999999999999999999GP10060000002000000002000000002000GR100600000900009MA1999999080365EQDN01 00000JPWTH 0QNNE71D0 00000F71 0 00000G71U0 99999L71 0 01500M71 0 23730N71 0 00000Q71 0 10124S71D0 00037R71 0 00030V71D0 00099U71 0 00099X71 0 00000
0132723627230812000050422484+35520-108780FM-15+1972KGUP V0202701N005712200019N0402331N1+02801-00701101061ADDGF100991999999999999999999MA1101831999999MW1001REMMET054KGUP 042248Z 27011KT 25SM SKC 28/M07 A3007 RMK SLP106;EQDQ01+000000PRSWM2
0177723627230812000050621484+35520-108780FM-15+1972KGUP V0202301N010310600019N0402331N1+02601-00801101041ADDGD13991+0600019GF107991999999999999999999MA1101861999999MW1001OC101391REMMET076KGUP 062148Z 23020G27KT 25SM BKN200 26/M08 A3008 RMK PK WND 24035/35 SLP104;EQDQ01+000000PRSWM2
0451723627230812000050817513+35517-108783FM-15+1971GUP  V0202505N013450670659N0400005N1+02205+00305100525ADDGD12995+0210019GD23995+0660019GF105995999999999999999999KA1999M+02181KA2999N+01151MA1101461079885MD1610051+9999MW1001OC101801REMMET100KGUP 081751Z 25026G35KT 25SM SCT070 BKN220 22/03 A2996 RMK PK WND 25040/24 SLP052 10218 20115 56005;EQDQ01+000000PRSWM2N01 00000JPWTH 0QNNE71D0 00299F71 0 00299E71D0 00499F71 0 00499G71 0 00220K71D0 00037J71 0 00030L71 0 02500M71 0 23590N71 0 00000Q71 0 10052S71D0 00072R71 0 00220V71D0 00699U71 0 00599X71 0 25026
0071723627230812000050818009+35517-108783NSRDB+197199999V020999999999999999999999999999+99999+99999999999ADDGP10060072502008046402015031902008GQ100600291912289GR100601170913419
0169723627230812000051008484+35520-108780FM-15+1972KGUP V0202101N003612200019N0241401N1+01301+00101100691ADDGD12991+0600019GF102991999999999999999999MA1101631999999MD1110021+9999MW1001REMMET062KGUP 100848Z 21007KT 15SM FEW200 13/01 A3001 RMK SLP069 51002;EQDQ01+000000PRSWM2
0359723627230812000051011513+35517-108783FM-15+1971GUP  V0201405N002152200059N0240005N1+00605-00101100865ADDGD11995+0540019GF101995999999999999999999KA1999M+01651KA2999N+00591MA1101631080025MD1410001+9999MW1001REMMET075KGUP 101151Z 14004KT 15SM FEW180 06/M01 A3001 RMK SLP086 10165 20059 54000;EQDQ01+000000PRSWM2N01 00000JPWTH 0QNNE71D0 00299F71 0 00199G71U0 99999L71 0 01500M71 0 23630N71 0 00000Q71 0 10086S71D0 00043R71 0 00060V71D0 00199U71 0 00199X71 0 14004
0177723627230812000051201484+35520-108780FM-15+1972KGUP V0202701N011812200019N0402331N1+01801-01901100291ADDGD12991+0600019GF102991999999999999999999MA1101121999999MW1001OC101801REMMET076KGUP 120148Z 27023G35KT 25SM FEW200 18/M19 A2986 RMK PK WND 25039/22 SLP029;EQDQ01+000000PRSWM2
0355723627230812000051420003+35517-108783FM-15+1971GUP  V0202205N006250487759N040000599+02505+99999101615ADDGD11995+9999999GD23995+9999999GD33995+9999999GF106995999999999999999999GP10060103902008089602015018202008GQ100600176919449GR100601274913379MA1999999080495EQDN01 00000JPWTH 0QNNE71D0 00299F71 0 00199E71D0 00499F71 0 00499E71D0 00499F71 0 00499G71 0 00160L71 0 02500M71 0 23770N71 0 00000Q71 0 10161S71D0 00077R71 0 00250V71D0 00899U71 0 00699X71 0 22012
0054723627230812000051506009+35517-108783NSRDB+197199999V020999999999999999999999999999+99999+99999999999ADDGP10060000002000000002000000002000GR100600000900009
0071723627230812000051917009+35517-108783NSRDB+197199999V020999999999999999999999999999+99999+99999999999ADDGP10060058702008027802015037102008GQ100600387910309GR100601040913349
0303723627230812000052114503+35517-108783FM-15+1971GUP  V0200305N002152200059N0400005N1+01605-00401101735ADDGF100995999999999999999999MA1102511080755MD1110081+9999MW1001REMMET060KGUP 211450Z 03004KT 25SM SKC 16/M04 A3027 RMK SLP173 51008;EQDQ01+000000PRSWM2N01 00000JPWTH 0QNNE71D0 00000F71 0 00000G71U0 99999L71 0 02500M71 0 23845N71 0 00000Q71 0 10173S71D0 00061R71 0 00160V71D0 00099U71 0 00099X71 0 03004
0132723627230812000052115484+35520-108780FM-15+1972KGUP V0200801N002112200019N0402331N1+02101-00501101791ADDGF100991999999999999999999MA1102511999999MW1001REMMET054KGUP 211548Z 08004KT 25SM SKC 21/M05 A3027 RMK SLP179;EQDQ01+000000PRSWM2
0348723627230812000052211503+35517-108783FM-15+1971GUP  V0209999C000052200059N0400005N1+00005-00801101605ADDGD11995+0420019GF101995999999999999999999KA1999M+00661KA2999N+00041MA1102301080585MD1110021+9999MW1001REMMET075KGUP 221150Z 00000KT 25SM FEW140 00/M08 A3021 RMK SLP160 10066 20004 51002;EQDQ01+000000PRSWM2N01 00000JPWTH 0QNNE71D0 00299F71 0 00199G71U0 99999L71 0 02500M71 0 23795N71 0 00000Q71 0 10160S71D0 00032V71D0 00199U71 0 00199X71 0 00000
0318723627230812000052219003+35517-108783FM-15+1971GUP  V0209999V003152200059N040000599+02805+99999101455ADDGD11995+9999999GD21995+9999999GF101995999999999999999999GP10060105302008101202015008802008GQ100600178914699GR100601268913329MA1999999080535EQDN01 00000JPWTH 0QNNE71D0 00299F71 0 00199E71D0 00299F71 0 00199G71U0 99999L71 0 02500M71 0 23780N71 0 00000Q71 0 10145S71D0 00082R71 0 00280V71D0 00199U71 0 00199X71 0 00006
0303723627230812000052322003+35517-108783FM-15+1971GUP  V0202905N006752200059N040000599+03305+00005100845ADDGD12995+9999999GF103995999999999999999999GP10060051302008015902015038102008GQ100600336925309GR100601107913329MA1999999080145EQDN01 00000JPWTH 0QNNE71D0 00299F71 0 00299G71U0 99999K71D0 00032J71 0 00000L71 0 02500M71 0 23665N71 0 00000Q71 0 10084S71D0 00091R71 0 00330V71D0 00499U71 0 00399X71 0 29013
0281723627230812000052613003+35517-108783FM-15+1971GUP  V0202205N003652200059N040000599+00605+99999100745ADDGD12995+9999999GF104995999999999999999999GP10060003202008025002015001402008GQ100600852906709GR100600102912319MA1999999079925EQDN01 00000JPWTH 0QNNE71D0 00299F71 0 00299G71U0 99999L71 0 02500M71 0 23600N71 0 00000Q71 0 10074S71D0 00043R71 0 00060V71D0 00599U71 0 00499X71 0 22007
0071723627230812000053100009+35517-108783NSRDB+197199999V020999999999999999999999999999+99999+99999999999ADDGP10060057202008087602015009502008GQ100600570927489GR100600722913299
0071723627230812000053101009+35517-108783NSRDB+197199999V020999999999999999999999999999+99999+99999999999ADDGP10060036902008081102015007902008GQ100600690928269GR100600475913299
0054723627230812000053106009+35517-108783NSRDB+197199999V020999999999999999999999999999+99999+99999999999ADDGP10060000002000000002000000002000GR100600000900009
0161723627230812000053118484+35520-108780FM-15+1972KGUP V0202501N006212200019N0402331N1+03001-00601100901ADDGD12991+0600019GF102991999999999999999999MA1101861999999MW1001OC100931REMMET060KGUP 311848Z 25012G18KT 25SM FEW200 30/M06 A3008 RMK SLP090;EQDQ01+000000PRSWM2
0160723627230812000060421484+35520-108780FM-15+1972KGUP V0202501N003612200019N0402331N1+03301-00101101341ADDGD12991+0360019GF102991999999999999999999MA1102271999999MW1001REMMET067KGUP 042148Z 25007KT 25SM FEW120 33/M01 A3020 RMK VIRGA E-W SLP134;EQDQ01+000000PRSWM2
0303723627230812000060813003+35517-108783FM-15+1971GUP  V0209999C000052200059N040000599+01205+00005100875ADDGD11995+9999999GF102995999999999999999999GP10060004202008034702015001302008GQ100600850906519GR100600115913149MA1999999080225EQDN01 00000JPWTH 0QNNE71D0 00299F71 0 00199G71U0 99999K71D0 00032J71 0 00000L71 0 02500M71 0 23690N71 0 00000Q71 0 10087S71D0 00054R71 0 00120V71D0 00299U71 0 00299X71 0 00000
0264723627230812000061207003+35517-108783FM-15+1971GUP  V0201605N002152200059N024000599+01005+99999101365ADDGD10005+9999999GF100995999999999999999999GP10060000002000000002000000002000GR100600000900009MA1999999080535EQDN01 00000JPWTH 0QNNE71D0 00000F71 0 00000G71U0 99999L71 0 01500M71 0 23780N71 0 00000Q71 0 10136S71D0 00050R71 0 00100V71D0 00099U71 0 00099X71 0 16004
0132723627230812000061209484+35520-108780FM-15+1972KGUP V0200801N002112200019N0241401N1+00801-00701101421ADDGF100991999999999999999999MA1102301999999MW1001REMMET054KGUP 120948Z 08004KT 15SM SKC 08/M07 A3021 RMK SLP142;EQDQ01+000000PRSWM2
0264723627230812000061211003+35517-108783FM-15+1971GUP  V0209999C000052200059N024000599+00505+99999101495ADDGD10005+9999999GF100995999999999999999999GP10060000002000000002000000002000GR100600000900009MA1999999080585EQDN01 00000JPWTH 0QNNE71D0 00000F71 0 00000G71U0 99999L71 0 01500M71 0 23795N71 0 00000Q71 0 10149S71D0 00041R71 0 00050V71D0 00099U71 0 00099X71 0 00000
0170723627230812000061420484+35510-108770FM-15+1972KGUP V02099999999992200019N0402331N1+03101-00301101261ADDGD12991+0660019GF102991999999999999999999MA1102171999999MD1710151+9999MW1001REMMET063KGUP 142048Z VRB06KT 25SM FEW220 31/M03 A3017 RMK SLP126 57015;EQDQ01+000000PRSWM2
0403723627230812000061611503+35517-108783FM-15+1971GUP  V0209999C000052200059N0320005N1+01105-00801100315ADDGD12995+0420019GD22995+0540019GF104995999999999999999999KA1999M+01451KA2999N+00961MA1101391079835MD1110031+9999MW1001REMMET082KGUP 161150Z 00000KT 20SM SCT140 SCT180 11/M08 A2994 RMK SLP031 10145 20096 51003;EQDQ01+000000PRSWM2N01 00000JPWTH 0QNNE71D0 00299F71 0 00299E71D0 00299F71 0 00299G71U0 99999L71 0 02000M71 0 23575N71 0 00000Q71 0 10031S71D0 00052R71 0 00110V71D0 00599U71 0 00499X71 0 00000
0193723627230812000061622484+35510-108770FM-15+1972KGUP V0202701N007710540019N0402331N1+03301-00501100061ADDGD12991+0360019GD24991+0540019GF108991999999999999999999MA1101121999999MW1001OC101131REMMET077KGUP 162248Z 27015G22KT 25SM SCT120 OVC180 33/M05 A2986 RMK VIRGA E-W SLP006;EQDQ01+000000PRSWM2
0365723627230812000062520503+35517-108783FM-15+1971GUP  V0203305N002652200059N0400005N1+03205-00101101115ADDGD11995+0300019GD21995+0660019GF101995999999999999999999MA1102201080495MD1710171+9999MW1001REMMET070KGUP 252050Z 33005KT 25SM FEW100 FEW220 32/M01 A3018 RMK SLP111 57017;EQDQ01+000000PRSWM2N01 00000JPWTH 0QNNE71D0 00299F71 0 00199E71D0 00299F71 0 00199G71U0 99999L71 0 02500M71 0 23770N71 0 00000Q71 0 10111S71D0 00090R71 0 00320V71D0 00199U71 0 00199X71 0 33005
0182723627230812000062709484+35510-108770FM-15+1972KGUP V0200501N003110300019N0241401N1+01901+01301101011ADDGD12991+0240019GD24991+0300019GF108991999999999999999999MA1102271999999MW1001REMMET074KGUP 270948Z 05006KT 15SM SCT080 OVC100 19/13 A3020 RMK SHRAB14E29 SLP101;EQDQ01+000000PRSWM2
0237723627230812000062821484+35510-108770FM-15+1972KGUP V0203601N006210660019N0402331N1+03001+00501101141ADDGA1999+030001021GD12991+0240019GD22991+0300019GD33991+0660019GF107991999999999999999999MA1102241999999MW1161REMMET082KGUP 282148Z 36012KT 25SM VCSH FEW080 SCT100TCU BKN220 30/05 A3019 TCU W-S SLP114;EQDQ01+000003PRSWM1Q02    003PRSWM1
0315723627230812000070203003+35517-108783FM-15+1971GUP  V0209999V002650304859N024000599+02205+01105101285ADDGD13995+9999999GD24995+9999999GP10060000102008000002015000102008GQ100600873929689GR100600034907169MA1999999080565MV1025MW1955EQDN01 00010JPWTH 0QNNE71D0 00499F71 0 00499E71D0 00699F71 0 00699G71 0 00100K71D0 00052J71 0 00110L71 0 01500M71 0 23790N71 0 00010O71 0 00002Q71 0 10128S71D0 00072R71 0 00220X71 0 00005
0171723627230812000070207494+35510-108770FM-15+1972KGUP V0202401N003110360019N0241401N1+01901+01101101011ADDGD14991+0360019GF108991999999999999999999MA1102201999999MW1801REMMET062KGUP 020749Z 24006KT 15SM -SHRA OVC120 19/11 A3018 RMK SLP101;EQDQ01+000003PRSWM1Q02    003PRSWM1
0071723627230812000070315009+35517-108783NSRDB+197199999V020999999999999999999999999999+99999+99999999999ADDGP10060041102008077802015005802008GQ100600630908009GR100600599913219
0172723627230812000070415484+35510-108770FM-15+1972KGUP V0202601N005112200019N0402331N1+02501-00301101281ADDGD12991+0360019GD22991+0660019GF102991999999999999999999MA1102371999999MW1001REMMET064KGUP 041548Z 26010KT 25SM FEW120 FEW220 25/M03 A3023 RMK SLP128;EQDQ01+000000PRSWM2
0171723627230812000070619484+35510-108770FM-15+1972KGUP V0202501N003612200019N0402331N1+03101+00401101201ADDGD12991+0360019GD22991+0660019GF102991999999999999999999MA1102201999999MW1001REMMET063KGUP 061948Z 25007KT 25SM FEW120 FEW220 31/04 A3018 RMK SLP120;EQDQ01+000000PRSWM2
0226723627230812000070801484+35510-108770FM-15+1972KGUP V0202501N005110240019N0321861N1+01601+01401101491ADDGD13991+0240019GD24991+0420019GF108991999999999999999999MA1102371999999MW1801REMMET102KGUP 080148Z 25010KT 20SM -SHRA BKN080 OVC140 16/14 A3023 RMK OCNL LTG DSNT NW TSE42 TS MOV NW SLP149;EQDQ01+000003PRSWM1Q02    003PRSWM1
0250723627230812000070821484+35510-108770FM-15+1972KGUP V0202201N006210540019N0402331N1+02801+00901101131ADDGA1999+021001021GD12991+0210019GD23991+0540019GF107991999999999999999999MA1102131999999MW1161OC101081REMMET102KGUP 082148Z 22012G21KT 190V250 25SM VCSH SCT070TCU BKN180 28/09 A3016 RMK VIRGA E-SW TCU N-SW SLP113;EQDQ01+000003PRSWM1Q02    003PRSWM1
0377723627230812000070920003+35517-108783FM-15+1971GUP  V0202305N003150304859N040000599+02705+01005101255ADDGD12995+9999999GD23995+9999999GD33995+9999999GF106995999999999999999999GP10060079002008039102015041002008GQ100600139918909GR100601283913229MA1999999080535EQDN01 00000JPWTH 0QNNE71D0 00299F71 0 00299E71D0 00499F71 0 00499E71D0 00499F71 0 00499G71 0 00100K71D0 00050J71 0 00100L71 0 02500M71 0 23780N71 0 00000Q71 0 10125S71D0 00081R71 0 00270V71D0 00899U71 0 00699X71 0 23006
0394723627230812000071203003+35517-108783FM-15+1971GUP  V0202005N002650487759N024000599+02505+00605101365ADDGD12995+9999999GD23995+9999999GD34995+9999999GF108995999999999999999999GP10060000002008006802015000002008GQ100600875929569GR100600030906729MA1999999080635MV1025EQDN01 00000JPWTH 0QNNE71D0 00299F71 0 00299E71D0 00499F71 0 00499E71D0 00699F71 0 00699G71 0 00160K71D0 00043J71 0 00060L71 0 01500M71 0 23810N71 0 00000O71 0 00002Q71 0 10136S71D0 00077R71 0 00250V71D0 01099U71 0 00899X71 0 20005
0149723627230812000071310484+35510-108770FM-15+1972KGUP V0203101N002112200019N0241401N1+01801+01101101541ADDGD12991+0420019GF104991999999999999999999MA1102711999999MW1001REMMET056KGUP 131048Z 31004KT 15SM SCT140 18/11 A3033 RMK SLP154;EQDQ01+000000PRSWM2
0187723627230812000071313484+35510-108770FM-16+1972KGUP V0201601N002612200019N0402331N1+99999+99999101751ADDGD12991+0360019GD22991+0480019GD32991+0660019GF104991999999999999999999MA1102781999999MW1001REMMET064KGUP 131348Z 16005KT 25SM FEW120 FEW160 SCT220 A3035 RMK SLP175;EQDQ01+000000PRSWM2
0216723627230812000071321494+35510-108770FM-15+1972KGUP V0200901N005710270019N0402331N1+02402+01101101511ADDGD13991+0270019GD24991+0540019GF108991999999999999999999MA1102571999999MW1801REMMET092KGUP 132149Z 09011KT 25SM -SHRA BKN090 OVC180 24/11 A3029 RMK SHRAB30 TSE41 TS DSIPT SLP151;EQDQ01+000003PRSWM1Q02    003PRSWM1
0171723627230812000071409484+35510-108770FM-15+1972KGUP V0201501N004610540019N0241401N1+01901+01301101741ADDGD12991+0300019GD24991+0540019GF108991999999999999999999MA1102741999999MW1001REMMET063KGUP 140948Z 15009KT 15SM SCT100 OVC180 19/13 A3034 RMK SLP174;EQDQ01+000000PRSWM2
0340723627230812000071616003+35517-108783FM-15+1971GUP  V0202505N005250426759N040000599+02405+01005101205ADDGD11995+9999999GD23995+9999999GF107995999999999999999999GP10060053602008061702015015602008GQ100600521908969GR100600812913229MA1999999080635EQDN01 00000JPWTH 0QNNE71D0 00299F71 0 00199E71D0 00499F71 0 00499G71 0 00140K71D0 00050J71 0 00100L71 0 02500M71 0 23810N71 0 00000Q71 0 10120S71D0 00075R71 0 00240V71D0 00999U71 0 00799X71 0 25010
0380723627230812000071717513+35517-108783FM-15+1971GUP  V0202405N003152200059N0400005N1+02905+00805101595ADDGD11995+0210019GF101995999999999999999999KA1999M+02861KA2999N+01001MA1102611080835MD1810031+9999MW1001REMMET074KGUP 171751Z 24006KT 25SM FEW070 29/08 A3030 RMK SLP159 10286 20100 58003;EQDQ01+000000PRSWM2N01 00000JPWTH 0QNNE71D0 00299F71 0 00199G71U0 99999K71D0 00046J71 0 00080L71 0 02500M71 0 23870N71 0 00000Q71 0 10159S71D0 00084R71 0 00290V71D0 00199U71 0 00199X71 0 24006
0380723627230812000071805513+35517-108783FM-15+1971GUP  V0209999C000052200059N0240005N1+01505+00605101495ADDGD11995+0300019GF101995999999999999999999KA1999M+03271KA2999N+01491MA1102511080755MD1110121+9999MW1001REMMET074KGUP 180551Z 00000KT 15SM FEW100 15/06 A3027 RMK SLP149 10327 20149 51012;EQDQ01+000000PRSWM2N01 00000JPWTH 0QNNE71D0 00299F71 0 00199G71U0 99999K71D0 00043J71 0 00060L71 0 01500M71 0 23845N71 0 00000Q71 0 10149S71D0 00059R71 0 00150V71D0 00199U71 0 00199X71 0 00000
0357723627230812000072602003+35517-108783FM-15+1971GUP  V0202605N002650289659N040000599+02505+00905101195ADDGD13995+9999999GD24995+9999999GF108995999999999999999999GP10060013002008019202015009802008GQ100600804928719GR100600221913249MA1999999080535MV1025EQDN01 00000JPWTH 0QNNE71D0 00499F71 0 00499E71D0 00699F71 0 00699G71 0 00095K71D0 00048J71 0 00090L71 0 02500M71 0 23780N71 0 00000O71 0 00002Q71 0 10119S71D0 00077R71 0 00250V71D0 01099U71 0 00899X71 0 26005
0286723627230812000072807003+35517-108783FM-15+1971GUP  V0201405N002652200059N024000599+01605+00105101295ADDGD11995+9999999GF101995999999999999999999GP10060000002000000002000000002000GR100600000900009MA1999999080705EQDN01 00000JPWTH 0QNNE71D0 00299F71 0 00199G71U0 99999K71D0 00034J71 0 00010L71 0 01500M71 0 23830N71 0 00000Q71 0 10129S71D0 00061R71 0 00160V71D0 00199U71 0 00199X71 0 14005
0071723627230812000080300009+35517-108783NSRDB+197199999V020999999999999999999999999999+99999+99999999999ADDGP10060048402008055302015018702008GQ100600575926909GR100600711913279
0331723627230812000080608503+35517-108783FM-15+1971GUP  V0209999C000052200059N0240005N1+01405+00805101165ADDGD11995+0540019GF102995999999999999999999MA1102271999999MD1410001+9999MW1001REMMET062KGUP 060850Z 00000KT 15SM FEW180 14/08 A3020 RMK SLP116 54000;EQDQ01+000000PRSWM2N01 00000JPWTH 0QNNE71D0 00299F71 0 00199G71U0 99999K71D0 00046J71 0 00080L71 0 01500N71 0 00000Q71 0 10116S71D0 00057R71 0 00140V71D0 00299U71 0 00299X71 0 00000
0071723627230812000080622009+35517-108783NSRDB+197199999V020999999999999999999999999999+99999+99999999999ADDGP10060084802008091402015009402008GQ100600345924459GR100601093913289
0131723627230812000080809484+35510-108770FM-15+1972KGUP V0201901N003112200019N0241401N1+01601+01001101151ADDGF100991999999999999999999MA1102301999999MW1001REMMET053KGUP 080948Z 19006KT 15SM SKC 16/10 A3021 RMK SLP115;EQDQ01+000000PRSWM2
0171723627230812000081009484+35510-108770FM-15+1972KGUP V0201901N002112200019N0241401N1+01901+01001101361ADDGD12991+0360019GD22991+0480019GF102991999999999999999999MA1102571999999MW1001REMMET063KGUP 100948Z 19004KT 15SM FEW120 FEW160 19/10 A3029 RMK SLP136;EQDQ01+000000PRSWM2
0171723627230812000081512484+35510-108770FM-15+1972KGUP V0200801N002612200019N0402331N1+01601+01101101901ADDGD12991+0360019GD22991+0600019GF102991999999999999999999MA1102881999999MW1001REMMET063KGUP 151248Z 08005KT 25SM FEW120 FEW200 16/11 A3038 RMK SLP190;EQDQ01+000000PRSWM2
0054723627230812000081808009+35517-108783NSRDB+197199999V020999999999999999999999999999+99999+99999999999ADDGP10060000002000000002000000002000GR100600000900009
0357723627230812000081901003+35517-108783FM-15+1971GUP  V0202605N004650243859N024000599+01705+01705101865ADDGD11995+9999999GD23995+9999999GD34995+9999999GF108995999999999999999999GP10060005602008000002015005602008GQ100600727927369GR100600395913349MW1805EQDN01 00023JPWTH 0QNNE71D0 00299F71 0 00199E71D0 00499F71 0 00499E71D0 00699F71 0 00699G71 0 00080K71D0 00063J71 0 00170L71 0 01500N71 0 00023Q71 0 10186S71D0 00063R71 0 00170V71D0 01099U71 0 00899X71 0 26009
0054723627230812000082203009+35517-108783NSRDB+197199999V020999999999999999999999999999+99999+99999999999ADDGP10060000002000000002000000002000GR100600000900009
0149723627230812000082604484+35510-108770FM-15+1972KGUP V0209999C000012200019N0241401N1+01301+01001101751ADDGD12991+0420019GF102991999999999999999999MA1102641999999MW1001REMMET056KGUP 260448Z 00000KT 15SM FEW140 13/10 A3031 RMK SLP175;EQDQ01+000000PRSWM2
0311723627230812000082607503+35517-108783FM-15+1971GUP  V0209999C000052200059N0240005N1+01005+00805101915ADDGD11995+0300019GF101995999999999999999999MA1102611999999MW1001REMMET056KGUP 260750Z 00000KT 15SM FEW100 10/08 A3030 RMK SLP191;EQDQ01+000000PRSWM2N01 00000JPWTH 0QNNE71D0 00299F71 0 00199G71U0 99999K71D0 00046J71 0 00080L71 0 01500N71 0 00000Q71 0 10191S71D0 00050R71 0 00100V71D0 00199U71 0 00199X71 0 00000
0200723627230812000082721484+35510-108770FM-15+1972KGUP V0202401N005110600019N0402331N1+03101+00901100751ADDGA1999+024001021GD12991+0240019GD23991+0600019GF107991999999999999999999MA1101761999999MW1001REMMET076KGUP 272148Z 24010KT 25SM SCT080TCU BKN200 31/09 A3005 RMK TCU ALQDS SLP075;EQDQ01+000000PRSWM2
0314723627230812000082722003+35517-108783FM-15+1971GUP  V0202405N005250609659N040000599+03105+00905100755ADDGD12995+9999999GD23995+9999999GF106995999999999999999999GP10060073302008067902015021202008GQ100600399923769GR100601026913399EQDN01 00000JPWTH 0QNNE71D0 00299F71 0 00299E71D0 00499F71 0 00499G71 0 00200K71D0 00048J71 0 00090L71 0 02500N71 0 00000Q71 0 10075S71D0 00088R71 0 00310V71D0 00899U71 0 00699X71 0 24010
0242723627230812000082918484+35510-108770FM-15+1972KGUP V0201401N006210660019N0402331N1+02601+01101101401ADDGA1999+018001021GD12991+0180019GD22991+0480019GD33991+0660019GF107991999999999999999999MA1102341999999MW1001OC101031REMMET095KGUP 291848Z 14012G20KT 25SM FEW065TCU FEW160 BKN220 26/11 A3022 RMK TCU N-SW ACSL SW-N SLP140;EQDQ01+000000PRSWM2
0374723627230812000082920003+35517-108783FM-15+1971GUP  V0201705N006250670659N040000599+02705+00905101255ADDGD12995+9999999GD22995+9999999GD33995+9999999GF107995999999999999999999GP10060014702008000002015014702008GQ100600270918779GR100601195913409MV1025MW1955EQDN01 00010JPWTH 0QNNE71D0 00299F71 0 00299E71D0 00299F71 0 00299E71D0 00499F71 0 00499G71 0 00220K71D0 00048J71 0 00090L71 0 02500N71 0 00010O71 0 00002Q71 0 10125S71D0 00081R71 0 00270V71D0 00999U71 0 00799X71 0 17012
0171723627230812000090215484+35510-108770FM-15+1972KGUP V02099999999990540019N0402331N1+02101+00601101561ADDGD12991+0300019GD23991+0540019GF107991999999999999999999MA1102511999999MW1001REMMET063KGUP 021548Z VRB04KT 25SM FEW100 BKN180 21/06 A3027 RMK SLP156;EQDQ01+000000PRSWM2
0369723627230812000090305503+35517-108783FM-15+1971GUP  V0209999C000052200059N0240005N1+01505+00305101415ADDGD12995+0420019GF103995999999999999999999KA1999M+02481KA2999N+01321MA1102341999999MD1110051+9999MW1001REMMET074KGUP 030550Z 00000KT 15SM SCT140 15/03 A3022 RMK SLP141 10248 20132 51005;EQDQ01+000000PRSWM2N01 00000JPWTH 0QNNE71D0 00299F71 0 00299G71U0 99999K71D0 00037J71 0 00030L71 0 01500N71 0 00000Q71 0 10141S71D0 00059R71 0 00150V71D0 00499U71 0 00399X71 0 00000
0260723627230812000090308003+35517-108783FM-15+1971GUP  V0209999C000052200059N024000599+01105+00205101495ADDGD12995+9999999GF103995999999999999999999GP10060000002000000002000000002000GR100600000900009EQDN01 00000JPWTH 0QNNE71D0 00299F71 0 00299G71U0 99999K71D0 00036J71 0 00020L71 0 01500N71 0 00000Q71 0 10149S71D0 00052R71 0 00110V71D0 00499U71 0 00399X71 0 00000
0071723627230812000090900009+35517-108783NSRDB+197199999V020999999999999999999999999999+99999+99999999999ADDGP10060027402008024102015017602008GQ100600661925899GR100600544913479
0071723627230812000090913009+35517-108783NSRDB+197199999V020999999999999999999999999999+99999+99999999999ADDGP10060000002008000002015000002008GQ100600896908379GR100600001901249
0292723627230812000091002503+35517-108783FM-15+1971GUP  V0209999C000052200059N0240005N1+01405-00101101205ADDGF100995999999999999999999MA1102001999999MD1310141+9999MW1001REMMET060KGUP 100250Z 00000KT 15SM SKC 14/M01 A3012 RMK SLP120 53014;EQDQ01+000000PRSWM2N01 00000JPWTH 0QNNE71D0 00000F71 0 00000G71U0 99999L71 0 01500N71 0 00000Q71 0 10120S71D0 00057R71 0 00140V71D0 00099U71 0 00099X71 0 00000
0071723627230812000091700009+35517-108783NSRDB+197199999V020999999999999999999999999999+99999+99999999999ADDGP10060010302008000002015010302008GQ100600686925679GR100600494913539
0260723627230812000091910003+35517-108783FM-15+1971GUP  V0209999C000052200059N024000599+00505+00405101525ADDGD10005+9999999GF100995999999999999999999GP10060000002000000002000000002000GR100600000900009EQDN01 00000JPWTH 0QNNE71D0 00000F71 0 00000G71U0 99999K71D0 00039J71 0 00040L71 0 01500N71 0 00000Q71 0 10152S71D0 00041R71 0 00050V71D0 00099U71 0 00099X71 0 00000
0238723627230812000092110003+35517-108783FM-15+1971GUP  V0201805N002652200059N024000599+01605+99999100505ADDGD12995+9999999GF104995999999999999999999GP10060000002000000002000000002000GR100600000900009EQDN01 00000JPWTH 0QNNE71D0 00299F71 0 00299G71U0 99999L71 0 01500N71 0 00000Q71 0 10050S71D0 00061R71 0 00160V71D0 00599U71 0 00499X71 0 18005
0071723627230812000092218009+35517-108783NSRDB+197199999V020999999999999999999999999999+99999+99999999999ADDGP10060078502008096202015007302008GQ100600423914229GR100601003913579
0196723627230812000092220484+35510-108770FM-15+1972KGUP V0202301N011312200019N0402331N1+02501+00301100191ADDGD12991+0270019GF102991999999999999999999MA1101151999999MD1710141+9999MW1001OC101851REMMET081KGUP 222048Z 23022/36KT 25SM FEW090 25/03 A2987 RMK PK WND 24036/40 SLP019 57014;EQDQ01+000000PRSWM2
0054723627230812000092403009+35517-108783NSRDB+197199999V020999999999999999999999999999+99999+99999999999ADDGP10060000002000000002000000002000GR100600000900009
0352723627230812000092722503+35517-108783FM-15+1971GUP  V0203605N007252200059N0400005N1+02405+00605101845ADDGA1999+024001021GD12995+0240019GF104995999999999999999999MA1102611999999MW1001REMMET081KGUP 272250Z 36014KT 25SM SCT080TCU 24/06 A3030 RMK VIRGA NE-SE TCU NE-NW SLP184;EQDQ01+000000PRSWM2N01 00000JPWTH 0QNNE71D0 00299F71 0 00299G71U0 99999K71D0 00043J71 0 00060L71 0 02500N71 0 00000Q71 0 10184S71D0 00075R71 0 00240V71D0 00599U71 0 00499X71 0 36014
0297723627230812000093011003+35517-108783FM-15+1971GUP  V0209999C000052200059N024000599+00705+00605101635ADDGD11995+9999999GD22995+9999999GF104995999999999999999999GP10060000002000000002000000002000GR100600000900009EQDN01 00000JPWTH 0QNNE71D0 00299F71 0 00199E71D0 00299F71 0 00299G71U0 99999K71D0 00043J71 0 00060L71 0 01500N71 0 00000Q71 0 10163S71D0 00045R71 0 00070V71D0 00599U71 0 00499X71 0 00000
0176723627230812000093019484+35510-108770FM-15+1972KGUP V0202601N005112200019N0402331N1+02601+00501101331ADDGA1999+021001021GD12991+0210019GF102991999999999999999999MA1102201999999MW1001REMMET067KGUP 301948Z 26010KT 25SM FEW070TCU 26/05 A3018 RMK TCU OHD SLP133;EQDQ01+000000PRSWM2
0071723627230812000100318009+35517-108783NSRDB+197199999V020999999999999999999999999999+99999+99999999999ADDGP10060076202008098502015007102008GQ100600456914639GR100600955913669
0251723627230812000100414484+35510-108770FM-15+1972KGUP V0200601N004110360019N0402331N1+01301+00701101391ADDAA103000021GD12991+0210019GD23991+0360019GD33991+0600019GF107991999999999999999999MA1102071999999MD1010001+9999MW1161REMMET087KGUP 041448Z 06008KT 25SM VCSH SCT070 BKN120 BKN200 13/07 A3014 RMK SLP139 60000 50000;EQDQ01+000003PRSWM1Q02    003PRSWM1
0271723627230812000100800484+35510-108770FM-15+1972KGUP V0200901N005110180019N0321861N1+01301+01001101912ADDGA1999+018001091GD12991+0060019GD23991+0180019GD34991+0300019GF108991999999999999999999MA1102401999999MW1801MW2951REMMET110KGUP 080048Z 09010KT 20SM -TSRA FEW020 BKN060CB OVC100 13/10 A3024 RMK OCNL LTGICCG ALQDS TS OHD MOV E SLP191;EQDQ01+000003PRSWM1Q02    003PRSWM1
0071723627230812000101001009+35517-108783NSRDB+197199999V020999999999999999999999999999+99999+99999999999ADDGP10060002102008032702015000502008GQ100600857925889GR100600077910409
0301723627230812000102015533+35517-108783FM-15+1971GUP  V0209999C00005220005MN0160005N1+00895+00115101875ADDGF100991999999999999999999MA1102375999999MW1001REMMET072KGUP 201553Z AUTO 00000KT 10SM CLR 09/01 A3023 RMK AO2 SLP187 T00890011;EQDQ01+000000PRSWM2N01 00000JPWTH 0QNNAA1D0 00000BA1 0 00000GA1U0 99999KA1D0 00034JA1 0 00011LA1 0 01000CA1 0 03023NA1 0 00000QA1 0 10187SA1D0 00048RA1 0 00089YA1 0 00000
0348723627230812000102216533+35517-108783FM-15+1971GUP  V0200705N00215014025MN0160005N1+01005+00725100885ADDAA101000021GD14995+0140259GF108991999999999999999999MA1101595999999MW1001REMMET093KGUP 221653Z AUTO 07004KT 10SM OVC046 10/07 A3000 RMK AO2 RAE06B34E44 SLP088 P0000 T01000072;EQDQ01+000000PRSWM2N01 00000JPWTH 0QNNAA1D0 06046BA1 0 06046GA1 0 00046KA1D0 00045JA1 0 00072LA1 0 01000CA1 0 03000NA1 0 00000QA1 0 10088SA1D0 00050RA1 0 00100YA1 0 07004
0492723627230812000102314533+35517-108783FM-15+1971GUP  V0200805N00525018295MN0160005N1+00895+00615101335ADDAA101002391AA203002591GD11995+0103659GD22995+0146359GD34995+0182959GF108991999999999999999999MA1101965999999MD1310071+9999MW1615OC100981REMMET114KGUP 231453Z AUTO 08010G19KT 10SM -RA FEW034 SCT048 OVC060 09/06 A3011 RMK AO2 SLP133 P0009 60010 T00890061 53007;EQDQ01+000003PRSWM1Q02    003PRSWM1N01 00020JPWTH 0QNNAA1D0 02034BA1 0 01034AA1D0 02048BA1 0 02048AA1D0 06060BA1 0 06060GA1 0 00060KA1D0 00043JA1 0 00061LA1 0 01000CA1 0 03011NA1 0 00020QA1 0 10133SA1D0 00048RA1 0 00089YA1 0 08010
0319723627230812000102407533+35517-108783FM-15+1971GUP  V0209999C00005014025MN0160005N1+00395+00285102055ADDGD13995+0140259GF107991999999999999999999MA1102405999999MW1001REMMET075KGUP 240753Z AUTO 00000KT 10SM BKN046 04/03 A3024 RMK AO2 SLP205 T00390028;EQDQ01+000000PRSWM2N01 00000JPWTH 0QNNAA1D0 04046BA1 0 04046GA1 0 00046KA1D0 00037JA1 0 00028LA1 0 01000CA1 0 03024NA1 0 00000QA1 0 10205SA1D0 00039RA1 0 00039YA1 0 00000
0054723627230812000102413009+35517-108783NSRDB+197199999V020999999999999999999999999999+99999+99999999999ADDGP10060000002000000002000000002000GR100600000900009
0365723627230812000110613533+35517-108783FM-15+1971GUP  V0209999C00005018295MN0160005N1-00225-02675100765ADDGD13995+0182959GD24995+0243859GF108991999999999999999999MA1100755999999MW1001REMMET084KGUP 061353Z AUTO 00000KT 10SM BKN060 OVC080 M02/M27 A2975 RMK AO2 SLP076 T10221267;EQDQ01+000000PRSWM2N01 00000JPWTH 0QNNAA1D0 04060BA1 0 04060AA1D0 06080BA1 0 06080GA1 0 00060KA1D0-00016JA1 0-00267LA1 0 01000CA1 0 02975NA1 0 00000QA1 0 10076SA1D0 00028RA1 0-00022YA1 0 00000
0071723627230812000110901009+35517-108783NSRDB+197199999V020999999999999999999999999999+99999+99999999999ADDGP10060000002009000002021000002009GQ100600890924869GR100600005902679
005172362723081200011110659O+35517-108783SOD  +197199999V020999999999999999999999999999+99999+99999999999ADDAT1MW16RA  5AT2MW18SN  1AT3MW01FG  5AT4MW13BR  1
0287723627230812000111204003+35517-108783FM-15+1971GUP  V0202505N00265003665MN000800599-00335-00445101845ADDGD12995+0003059GD24995+0036659GP10060000002000000002000000002000GR100600000900009MA1101495999999MW1455MW2735EQDN01 04171JPWTH 0QNNAA1D0 02001BA1 0 02001AA1D0 06012BA1 0 06012GA1 0 00012KA1D0 00024JA1 0-00044LA1 0 00050CA1 0 02997NA1 0 04171QA1 0 10184SA1D0 00026RA1 0-00033YA1 0 25005
0245723627230812000111204424+35510-108770FM-15+1972KGUP V0202301N002110027019N0008051N1-00301-00401999999ADDAA101001091GD12991+0003019GD23991+0027019GD34991+0078019GF108991999999999999999999MA1101491999999MW1481MW2731REMMET089KGUP 120442Z AUTO 23004KT 1/2SM SN FZFG SCT001 BKN009 OVC026 M03/M04 A2997 RMK AO2 P0004;EQDQ01+000003PRSWM1Q02    003PRSWM1
0260723627230812000111319003+35517-108783FM-15+1971GUP  V0209999C000059999999N016000599-00395-00945103125ADDGD10995+9999999GP10060065702009082602021017302009GQ100600543917149GR100600816913979MA1102205999999EQDN01 00999JALM1 3N02 00000JPWTH 0QNNAA1D0 00999BA1 3 00999KA1D0 00015JA1 0-00094LA1 0 01000CA1 0 03018NA1 0 00000QA1 0 10312SA1D0 00025RA1 0-00039YA1 0 00000
0054723627230812000111404009+35517-108783NSRDB+197199999V020999999999999999999999999999+99999+99999999999ADDGP10060000002000000002000000002000GR100600000900009
0339723627230812000111406533+35517-108783FM-15+1971GUP  V0200905N00155220005MN0160005N1-01065-01285102965ADDGF100991999999999999999999KA1999M+00001KA2999N-01671MA1102175999999MW1001REMMET084KGUP 140653Z AUTO 09003KT 10SM CLR M11/M13 A3017 RMK AO2 SLP296 T11061128 400001167;EQDQ01+000000PRSWM2N01 00000JPWTH 0QNNAA1D0 00000BA1 0 00000GA1U0 99999KA1D0 00009JA1 0-00128LA1 0 01000CA1 0 03017NA1 0 00000QA1 0 10296SA1D0 00013RA1 0-00106YA1 0 09003
0323723627230812000111714533+35517-108783FM-15+1971GUP  V0209999C00005220005MN0160005N1-01225-01445103255ADDGF100991999999999999999999MA1102135999999MD1310091+9999MW1001REMMET080KGUP 171453Z AUTO 00000KT 10SM CLR M12/M14 A3016 RMK AO2 SLP325 T11221144 53009;EQDQ01+000000PRSWM2N01 00000JPWTH 0QNNAA1D0 00000BA1 0 00000GA1U0 99999KA1D0 00006JA1 0-00144LA1 0 01000CA1 0 03016NA1 0 00000QA1 0 10325SA1D0 00010RA1 0-00122YA1 0 00000
0054723627230812000111907009+35517-108783NSRDB+197199999V020999999999999999999999999999+99999+99999999999ADDGP10060000002000000002000000002000GR100600000900009
0054723627230812000112010009+35517-108783NSRDB+197199999V020999999999999999999999999999+99999+99999999999ADDGP10060000002000000002000000002000GR100600000900009
0054723627230812000112211009+35517-108783NSRDB+197199999V020999999999999999999999999999+99999+99999999999ADDGP10060000002000000002000000002000GR100600000900009
0071723627230812000112416009+35517-108783NSRDB+197199999V020999999999999999999999999999+99999+99999999999ADDGP10060022702009083002021001602009GQ100600753912959GR100600355914049
0303723627230812000112707533+35517-108783FM-15+1971GUP  V0209999C00005220005MN0160005N1-00395-00565102245ADDGF100991999999999999999999MA1102305999999MW1001REMMET074KGUP 270753Z AUTO 00000KT 10SM CLR M04/M06 A3021 RMK AO2 SLP224 T10391056;EQDQ01+000000PRSWM2N01 00000JPWTH 0QNNAA1D0 00000BA1 0 00000GA1U0 99999KA1D0 00022JA1 0-00056LA1 0 01000CA1 0 03021NA1 0 00000QA1 0 10224SA1D0 00025RA1 0-00039YA1 0 00000
0302723627230812000112721533+35517-108783FM-15+1971GUP  V0202105N00415220005MN0160005N1+01335-00615101595ADDGF100991999999999999999999MA1101905999999MW1001REMMET073KGUP 272153Z AUTO 21008KT 10SM CLR 13/M06 A3009 RMK AO2 SLP159 T01331061;EQDQ01+000000PRSWM2N01 00000JPWTH 0QNNAA1D0 00000BA1 0 00000GA1U0 99999KA1D0 00021JA1 0-00061LA1 0 01000CA1 0 03009NA1 0 00000QA1 0 10159SA1D0 00056RA1 0 00133YA1 0 21008
0303723627230812000113009533+35517-108783FM-15+1971GUP  V0209999C00005220005MN0160005N1-00175-00565101865ADDGF100991999999999999999999MA1102305999999MW1001REMMET074KGUP 300953Z AUTO 00000KT 10SM CLR M02/M06 A3021 RMK AO2 SLP186 T10171056;EQDQ01+000000PRSWM2N01 00000JPWTH 0QNNAA1D0 00000BA1 0 00000GA1U0 99999KA1D0 00022JA1 0-00056LA1 0 01000CA1 0 03021NA1 0 00000QA1 0 10186SA1D0 00029RA1 0-00017YA1 0 00000
0322723627230812000120102533+35517-108783FM-15+1971GUP  V0209999C00005220005MN0160005N1+00065-00445102625ADDGF100991999999999999999999MA1102405999999MD1110161+9999MW1001REMMET079KGUP 010253Z AUTO 00000KT 10SM CLR 01/M04 A3024 RMK AO2 SLP262 T00061044 51016;EQDQ01+000000PRSWM2N01 00000JPWTH 0QNNAA1D0 00000BA1 0 00000GA1U0 99999KA1D0 00024JA1 0-00044LA1 0 01000CA1 0 03024NA1 0 00000QA1 0 10262SA1D0 00033RA1 0 00006YA1 0 00000
0361723627230812000120211533+35517-108783FM-15+1971GUP  V0209999C00005220005MN0160005N1-00285-00565102435ADDGF100991999999999999999999KA1999M-00221KA2999N-00501MA1102475999999MD1810021+9999MW1001REMMET092KGUP 021153Z AUTO 00000KT 10SM CLR M03/M06 A3026 RMK AO2 SLP243 T10281056 11022 21050 58002;EQDQ01+000000PRSWM2N01 00000JPWTH 0QNNAA1D0 00000BA1 0 00000GA1U0 99999KA1D0 00022JA1 0-00056LA1 0 01000CA1 0 03026NA1 0 00000QA1 0 10243SA1D0 00027RA1 0-00028YA1 0 00000
0303723627230812000120712533+35517-108783FM-15+1971GUP  V0209999C00005220005MN0160005N1-00615-00785102515ADDGF100991999999999999999999MA1102345999999MW1001REMMET074KGUP 071253Z AUTO 00000KT 10SM CLR M06/M08 A3022 RMK AO2 SLP251 T10611078;EQDQ01+000000PRSWM2N01 00000JPWTH 0QNNAA1D0 00000BA1 0 00000GA1U0 99999KA1D0 00018JA1 0-00078LA1 0 01000CA1 0 03022NA1 0 00000QA1 0 10251SA1D0 00021RA1 0-00061YA1 0 00000
0356723627230812000120806533+35517-108783FM-15+1971GUP  V0200705N00215033535MN0160005N1+00175-00505101655ADDGD14995+0335359GF108991999999999999999999KA1999M+01391KA2999N-00721MA1102075999999MW1001REMMET086KGUP 080653Z AUTO 07004KT 10SM OVC110 02/M05 A3014 RMK AO2 SLP165 T00171050 401391072;EQDQ01+000000PRSWM2N01 00000JPWTH 0QNNAA1D0 06110BA1 0 06110GA1 0 00110KA1D0 00023JA1 0-00050LA1 0 01000CA1 0 03014NA1 0 00000QA1 0 10165SA1D0 00035RA1 0 00017YA1 0 07004
0361723627230812000121205533+35517-108783FM-15+1971GUP  V0209999C00005220005MN0160005N1-00615-00945101905ADDGF100991999999999999999999KA1999M+00501KA2999N-00831MA1101735999999MD1810051+9999MW1001REMMET092KGUP 120553Z AUTO 00000KT 10SM CLR M06/M09 A3004 RMK AO2 SLP190 T10611094 10050 21083 58005;EQDQ01+000000PRSWM2N01 00000JPWTH 0QNNAA1D0 00000BA1 0 00000GA1U0 99999KA1D0 00015JA1 0-00094LA1 0 01000CA1 0 03004NA1 0 00000QA1 0 10190SA1D0 00021RA1 0-00061YA1 0 00000
0451723627230812000121217533+35517-108783FM-15+1971GUP  V0202005N00935220005MN0160005N1+00785-00725100915ADDGD12995+0149459GD22995+0335359GF104991999999999999999999KA1999M+00781KA2999N-00611MA1100915999999MD1810201+9999MW1001OC101291REMMET122KGUP 121753Z AUTO 20018G25KT 10SM SCT049 SCT110 08/M07 A2980 RMK AO2 PK WND 22030/1718 SLP091 T00781072 10078 21061 58020;EQDQ01+000000PRSWM2N01 00000JPWTH 0QNNAA1D0 02049BA1 0 02049AA1D0 02110BA1 0 02110GA1U0 99999KA1D0 00019JA1 0-00072LA1 0 01000CA1 0 02980NA1 0 00000QA1 0 10091SA1D0 00046RA1 0 00078YA1 0 20018
0331723627230812000121521533+35517-108783FM-15+1971GUP  V0202605N01495220005MN0160005N1+00895-00895101425ADDGF100991999999999999999999MA1101565999999MW1001OC101801REMMET094KGUP 152153Z AUTO 26029G35KT 10SM CLR 09/M09 A2999 RMK AO2 PK WND 27035/2149 SLP142 T00891089;EQDQ01+000000PRSWM2N01 00000JPWTH 0QNNAA1D0 00000BA1 0 00000GA1U0 99999KA1D0 00016JA1 0-00089LA1 0 01000CA1 0 02999NA1 0 00000QA1 0 10142SA1D0 00048RA1 0 00089YA1 0 26029
0313723627230812000121619533+35517-108783FM-15+1971GUP  V0202505N00725220005MN0160005N1+00945-01615102525ADDGF100991999999999999999999MA1102745999999MW1001OC101031REMMET076KGUP 161953Z AUTO 25014G20KT 10SM CLR 09/M16 A3034 RMK AO2 SLP252 T00941161;EQDQ01+000000PRSWM2N01 00000JPWTH 0QNNAA1D0 00000BA1 0 00000GA1U0 99999KA1D0 00003JA1 0-00161LA1 0 01000CA1 0 03034NA1 0 00000QA1 0 10252SA1D0 00049RA1 0 00094YA1 0 25014
0054723627230812000121807009+35517-108783NSRDB+197199999V020999999999999999999999999999+99999+99999999999ADDGP10060000002000000002000000002000GR100600000900009
0054723627230812000122008009+35517-108783NSRDB+197199999V020999999999999999999999999999+99999+99999999999ADDGP10060000002000000002000000002000GR100600000900009
0054723627230812000122009009+35517-108783NSRDB+197199999V020999999999999999999999999999+99999+99999999999ADDGP10060000002000000002000000002000GR100600000900009
0054723627230812000122011009+35517-108783NSRDB+197199999V020999999999999999999999999999+99999+99999999999ADDGP10060000002000000002000000002000GR100600000900009
0323723627230812000122308533+35517-108783FM-15+1971GUP  V0200705N00215220005MN0160005N1-00675-01505102015ADDGF100991999999999999999999MA1102175999999MD1310031+9999MW1001REMMET080KGUP 230853Z AUTO 07004KT 10SM CLR M07/M15 A3017 RMK AO2 SLP201 T10671150 53003;EQDQ01+000000PRSWM2N01 00000JPWTH 0QNNAA1D0 00000BA1 0 00000GA1U0 99999KA1D0 00005JA1 0-00150LA1 0 01000CA1 0 03017NA1 0 00000QA1 0 10201SA1D0 00020RA1 0-00067YA1 0 07004
0054723627230812000122505009+35517-108783NSRDB+197199999V020999999999999999999999999999+99999+99999999999ADDGP10060000002000000002000000002000GR100600000900009
0323723627230812000122508533+35517-108783FM-15+1971GUP  V0200505N00315220005MN0160005N1-00505-01225101175ADDGF100991999999999999999999MA1101395999999MD1610061+9999MW1001REMMET080KGUP 250853Z AUTO 05006KT 10SM CLR M05/M12 A2994 RMK AO2 SLP117 T10501122 56006;EQDQ01+000000PRSWM2N01 00000JPWTH 0QNNAA1D0 00000BA1 0 00000GA1U0 99999KA1D0 00010JA1 0-00122LA1 0 01000CA1 0 02994NA1 0 00000QA1 0 10117SA1D0 00023RA1 0-00050YA1 0 05006
0199723627230812000122702334+35510-108770FM-15+1972KGUP V0209999C000010042019N0004021N1-00901-01101999999ADDGD12991+0003019GD23991+0042019GF107991999999999999999999MA1102611999999MW1481REMMET075KGUP 270233Z AUTO 00000KT 1/4SM FZFG FEW001 BKN014 M09/M11 A3030 RMK AO2 $;EQDQ01+000003PRSWM1Q02    003PRSWM1
0299723630230472000010523003+35217-101700FM-15+1093AMA  V0200505N00525220005MN016000599+00945-00445101345ADDAA101000095GD10995+9999999GM1006001871590709149002014999999GP10060018402008049402015007402008GQ100600772923019GR100600313914159MA1101395999999EQDN01 00000JPWTH 0QNNAA1D0 00000BA1 0 00000GA1U0 99999KA1D0 00024JA1 0-00044LA1 0 01000CA1 0 02994NA1 0 00000QA1 0 10134SA1D0 00049RA1 0 00094YA1 0 05010
0423723630230472000011003003+35217-101700FM-15+1093AMA  V0202805N00935220005MN0160005N1+00675-01285100895ADDAA101000095GF100991999999999999999999GM1006000000190000019000001999999GP10060000002000000002000000002000GR100600000900009MA1100955999999MD1310151+9999MW1001OC101081REMMET077KAMA 100256Z 28018G21KT 10SM CLR 07/M13 A2981 RMK AO2 SLP089 T00671128 53015;EQDQ01+000000PRSWM2N01 00000JPWTH 0QNNAA1D0 00000BA1 0 00000GA1U0 99999KA1D0 00009JA1 0-00128LA1 0 01000CA1 0 02981NA1 0 00000QA1 0 10089SA1D0 00044RA1 0 00067YA1 0 28018
0409723630230472000011123003+35217-101700FM-15+1093AMA  V0202605N00825220005MN0160005N1+02115-01005101005ADDAA101000095GF100991999999999999999999GM1006002111590768149001614999999GP10060019702008048102015008202008GQ100600762923039GR100600337914149MA1101155999999MW1001REMMET068KAMA 112256Z 26016KT 10SM CLR 21/M10 A2987 RMK AO2 SLP100 T02111100;EQDQ01+000000PRSWM2N01 00000JPWTH 0QNNAA1D0 00000BA1 0 00000GA1U0 99999KA1D0 00014JA1 0-00100LA1 0 01000CA1 0 02987NA1 0 00000QA1 0 10100SA1D0 00070RA1 0 00211YA1 0 26016
0409723630230472000011220003+35217-101700FM-15+1093AMA  V0200305N00465220005MN0160005N1+01835-00785101155ADDAA101000095GF100991999999999999999999GM1006005830390908039008203999999GP10060054502008071802015015602008GQ100600573918949GR100600763914149MA1101495999999MW1001REMMET068KAMA 121956Z 03009KT 10SM CLR 18/M08 A2997 RMK AO2 SLP115 T01831078;EQDQ01+000000PRSWM2N01 00000JPWTH 0QNNAA1D0 00000BA1 0 00000GA1U0 99999KA1D0 00018JA1 0-00078LA1 0 01000CA1 0 02997NA1 0 00000QA1 0 10115SA1D0 00065RA1 0 00183YA1 0 03009
0497723630230472000012112003+35217-101700SY-MT+1093AMA  V0201605N00465220005MN0160005N1-00225-01005101485ADDAA101000095GA1001+999999999GD10995+9999999GF100991001001999999001001GM1006000000190000019000001999999GP10060000002000000002000000002000GR100600000900009KA1999M+01171KA2120N-00221MA1101495088951MD1710141+9999REMSYN092AAXX  21124 72363 32966 01609 11022 21100 38895 40148 57014 91156 333 10117 21022 555 92112;EQDQ01  00002PRCP99Q02  00003PRCP99N01 00000JPWTH 0QNNAA1D0 00000BA1 0 00000GA1U0 99999KA1D0 00014JA1 0-00100LA1 0 01000CA1 0 02997NA1 0 00000QA1 0 10148SA1D0 00028RA1 0-00022YA1 0 16009
0514723630230472000012400003+35217-101700SY-MT+1093AMA  V0200105N00575220005MN0160005N1+00725-00725102185ADDAA101000095GA1001+999999999GD10995+9999999GF100991001001999999001001GM1006000470190285019001001999999GP10060006402009024402021003802009GQ100600839924129GR100600149914129KA1120M+01281KA2180N-00211MA1102175089561MD1310231+9999REMSYN092AAXX  24004 72363 32966 00111 10072 21072 38956 40218 53023 92356 333 10128 21021 555 92400;EQDQ01  00002PRCP99Q02  00003PRCP99N01 00000JPWTH 0QNNAA1D0 00000BA1 0 00000GA1U0 99999KA1D0 00019JA1 0-00072LA1 0 01000CA1 0 03017NA1 0 00000QA1 0 10218SA1D0 00045RA1 0 00072YA1 0 01011
0204723630230472000020223564+35230-101700FM-15+1099KAMA V0202301N004612200019N0160931N1+01201-01101102271ADDGF100991999999999999999999KA1999M+01561KA2999N+01001MA1102301999999MD1610071+9999MW1001REMMET086KAMA 022356Z 23009KT 10SM CLR 12/M11 A3021 RMK AO2 SLP227 T01221106 10156 20100 56007;EQDQ01+000000PRSWM2
0165723630230472000021119254+35230-101700FM-15+1099KAMA V0201901N003612200019N0096561N1+00401-00201999999ADDGD12991+0036019GF104991999999999999999999MA1101391999999MW1051REMMET056KAMA 111925Z 19007KT 6SM HZ SCT012 04/M02 A2994 RMK AO2;EQDQ01+000003PRSWM1Q02    003PRSWM1
0623723630230472000021718003+35217-101700SY-MT+1093AMA  V0202105N01345220005MN0160005N1+01675+00725100795ADDAA101000095GF100991001001999999001001GM1006005560390562039019103999999GP10060055302008056302015020402008GQ100600519915129GR100600864914019KA1120M+01671KA2240N+00111MA1100985088491MD1810281+9999MW1001REMSYN098AAXX  17184 72363 32966 02126 10167 20072 38849 40079 58028 91756 333 10167 20011 91031 555 91718;MET106KAMA 171756Z 21026G31KT 10SM CLR 17/07 A2982 RMK AO2 PK WND 20031/1756 SLP079 T01670072 10167 20011 58028;EQDQ01+000000PRSWM2Q02  00002PRCP99Q03  00003PRCP99N01 00000JPWTH 0QNNAA1D0 00000BA1 0 00000GA1U0 99999KA1D0 00045JA1 0 00072LA1 0 01000CA1 0 02982NA1 0 00000QA1 0 10079SA1D0 00062RA1 0 00167YA1 0 21026
0409723630230472000021917003+35217-101700FM-15+1093AMA  V0202505N00365220005MN0160005N1+00565-00505102935ADDAA101000095GF100991999999999999999999GM1006005050390707039013003999999GP10060055002008091202015007402008GQ100600587913539GR100600727914009MA1102845999999MW1001REMMET068KAMA 191656Z 25007KT 10SM CLR 06/M05 A3037 RMK AO2 SLP293 T00561050;EQDQ01+000000PRSWM2N01 00000JPWTH 0QNNAA1D0 00000BA1 0 00000GA1U0 99999KA1D0 00023JA1 0-00050LA1 0 01000CA1 0 03037NA1 0 00000QA1 0 10293SA1D0 00042RA1 0 00056YA1 0 25007
0497723630230472000022206003+35217-101700SY-MT+1093AMA  V0202005N00985220005MN0160005N1+01395+01005101325ADDAA101000095GA1001+999999999GD10995+9999999GF100991001001999999001001GM1006000000190000019000001999999GP10060000002000000002000000002000GR100600000900009KA1240M+02111KA2240N+00331MA1101665089101MD1810021+9999REMSYN092AAXX  22064 72363 32966 02019 10139 20100 38910 40132 58002 90556 333 10211 20033 555 92206;EQDQ01  00002PRCP99Q02  00003PRCP99N01 00000JPWTH 0QNNAA1D0 00000BA1 0 00000GA1U0 99999KA1D0 00050JA1 0 00100LA1 0 01000CA1 0 03002NA1 0 00000QA1 0 10132SA1D0 00057RA1 0 00139YA1 0 20019
0429723630230472000022321003+35217-101700FM-15+1093AMA  V0203005N00415220005MN0160005N1+01945-00175100985ADDAA101000095GF100991999999999999999999GM1006006800390944039004403999999GP10060070702008094202015009602008GQ100600497920929GR100600904913979MA1101295999999MD1610071+9999MW1001REMMET074KAMA 232056Z 30008KT 10SM CLR 19/M02 A2991 RMK AO2 SLP098 T01941017 56007;EQDQ01+000000PRSWM2N01 00000JPWTH 0QNNAA1D0 00000BA1 0 00000GA1U0 99999KA1D0 00029JA1 0-00017LA1 0 01000CA1 0 02991NA1 0 00000QA1 0 10098SA1D0 00067RA1 0 00194YA1 0 30008
0392723630230472000022811003+35217-101700FM-15+1093AMA  V0202005N00775220005MN0160005N1+00725-00785101265ADDAA101000095GF100991999999999999999999GM1006000000190000019000001999999GP10060000002000000002000000002000GR100600000900009MA1101565999999MW1001REMMET068KAMA 281056Z 20015KT 10SM CLR 07/M08 A2999 RMK AO2 SLP126 T00721078;EQDQ01+000000PRSWM2N01 00000JPWTH 0QNNAA1D0 00000BA1 0 00000GA1U0 99999KA1D0 00018JA1 0-00078LA1 0 01000CA1 0 02999NA1 0 00000QA1 0 10126SA1D0 00045RA1 0 00072YA1 0 20015
0503723630230472000022912003+35217-101700SY-MT+1093AMA  V0202605N00985220005MN0160005N1+00675-00675100515ADDAA101000095GA1001+999999999GD10995+9999999GF100991001001999999001001GM1006000000190000019000001999999GP10060000002000000002000000002000GR100600000900009KA1999M+02111KA2120N+00501MA1100815088341MD1510021+9999REMSYN098AAXX  29124 72363 32966 02619 10067 21067 38834 40051 55002 91156 333 10211 20050 91029 555 92912;EQDQ01  00002PRCP99Q02  00003PRCP99N01 00000JPWTH 0QNNAA1D0 00000BA1 0 00000GA1U0 99999KA1D0 00020JA1 0-00067LA1 0 01000CA1 0 02977NA1 0 00000QA1 0 10051SA1D0 00044RA1 0 00067YA1 0 26019
0213723630230472000030212434+35230-101700FM-16+1099KAMA V0200801N009812200019N0080461N1+00601+00601999999ADDGD12991+0009019GD22991+0210019GF104991999999999999999999MA1100981999999MW1101REMMET089KAMA 021243Z 08019KT 5SM BR FEW003 SCT070 06/06 A2982 RMK AO2 TSB1159E37RAB18E31 P0000 $;EQDQ01+000003PRSWM1Q02    003PRSWM1
0502723630230472000030221003+35217-101700FM-15+1093AMA  V0202305N00885027435MN0160005N1+01335-00065100425ADDAA101000095GD12995+0198159GD24995+0274359GF108991999999999999999999GM1006004670390329039024303999999GP10060058602008041102015030502008GQ100600471921139GR100600947913929MA1100685999999MD1610311+9999MW1001OC101081REMMET087KAMA 022056Z 23017G21KT 10SM SCT065 OVC090 13/M01 A2973 RMK AO2 SLP042 T01331006 56031;EQDQ01+000000PRSWM2N01 00000JPWTH 0QNNAA1D0 02065BA1 0 02065AA1D0 06090BA1 0 06090GA1 0 00090KA1D0 00031JA1 0-00006LA1 0 01000CA1 0 02973NA1 0 00000QA1 0 10042SA1D0 00056RA1 0 00133YA1 0 23017
0394723630230472000030408003+35217-101700FM-15+1093AMA  V0202205N00465220005MN0160005N1+00005-00175102005ADDAA101000095GF100991999999999999999999GM1006000000190000019000001999999GP10060000002000000002000000002000GR100600000900009MA1102035999999MW1001REMMET070KAMA 040756Z 22009KT 10SM CLR 00/M02 A3013 RMK AO2 SLP200 T00001017 $;EQDQ01+000000PRSWM2N01 00000JPWTH 0QNNAA1D0 00000BA1 0 00000GA1U0 99999KA1D0 00029JA1 0-00017LA1 0 01000CA1 0 03013NA1 0 00000QA1 0 10200SA1D0 00032RA1 0 00000YA1 0 22009
0422723630230472000030423003+35217-101700FM-15+1093AMA  V0201905N00985220005MN0160005N1+02115-00225101045ADDAA101000095GF100991999999999999999999GM1006003971190783109004410999999GP10060041002008072202015009602008GQ100600643924139GR100600601913909MA1101255999999MW1001OC101291REMMET073KAMA 042256Z 19019G25KT 10SM CLR 21/M02 A2990 RMK AO2 SLP104 T02111022 $;EQDQ01+000000PRSWM2N01 00000JPWTH 0QNNAA1D0 00000BA1 0 00000GA1U0 99999KA1D0 00028JA1 0-00022LA1 0 01000CA1 0 02990NA1 0 00000QA1 0 10104SA1D0 00070RA1 0 00211YA1 0 19019
0394723630230472000030605003+35217-101700FM-15+1093AMA  V0202405N00315220005MN0160005N1+00895-00675100795ADDAA101000095GF100991999999999999999999GM1006000000190000019000001999999GP10060000002000000002000000002000GR100600000900009MA1101025999999MW1001REMMET070KAMA 060456Z 24006KT 10SM CLR 09/M07 A2983 RMK AO2 SLP079 T00891067 $;EQDQ01+000000PRSWM2N01 00000JPWTH 0QNNAA1D0 00000BA1 0 00000GA1U0 99999KA1D0 00020JA1 0-00067LA1 0 01000CA1 0 02983NA1 0 00000QA1 0 10079SA1D0 00048RA1 0 00089YA1 0 24006
0862723630230472000030705596+35230-101704SOD  +1098KAMA V020999999999999999999999999999+99999+99999999999ADDAA124000096AJ100009599999999AL12400096AN1024000096GJ106705GK10965KA1240M+02445KA2240N+00115MG1088629999994OE11240143115021095OE22240125214021135OE33240068499999995REMSOD65224 HR PRECIPITATION (IN): 0.00 SNOW DEPTH (IN):0     24 HR SNOWFALL (IN):  .0 TOTAL SUNSHINE (MINUTES): 670 PERCENT POSSIBLE SUNSHINE: 96 24 HR MAX TEMP (F): 7624 HR MAX TEMP TIME (LST):1600 24 HR MIN TEMP (F): 3424 HR MIN TEMP TIME (LST):0652 AVERAGE STATION PRESSURE:26.17  PEAK WIND SPEED (MPH): 32 PEAK WIND DIR (DEG):150 PEAK WIND TIME (LST):2109  FASTEST 2MIN SPEED (MPH): 28FASTEST 2MIN DIR (DEG):140 FASTEST 2MIN TIME (LST):2113 AVERAGE WIND SPEED (MPH):15.3 24 HR AVG TEMP (F):55 HOURLY INCREMENTAL PRECIPITATION VALUES (IN):.00  .00  .00  .00  .00  .00  .00  .00  .00  .00  .00  .00  .00  .00  .00  .00  .00  .00  .00  .00  .00  .00  .00  .00EQDR01  0.007AAP092R02    .07ALS030
0394723630230472000031102003+35217-101700FM-15+1093AMA  V0203605N00525220005MN0160005N1+00175-00115102365ADDAA101000095GF100991999999999999999999GM1006000000190000019000001999999GP10060000002000000002000000002000GR100600000900009MA1102305999999MW1001REMMET070KAMA 110156Z 36010KT 10SM CLR 02/M01 A3021 RMK AO2 SLP236 T00171011 $;EQDQ01+000000PRSWM2N01 00000JPWTH 0QNNAA1D0 00000BA1 0 00000GA1U0 99999KA1D0 00030JA1 0-00011LA1 0 01000CA1 0 03021NA1 0 00000QA1 0 10236SA1D0 00035RA1 0 00017YA1 0 36010
0411723630230472000031503003+35217-101700FM-15+1093AMA  V0201505N00725220005MN0160005N1+01225+00225101105ADDAA101000095GF100991999999999999999999GM1006000000190000019000001999999GP10060000002000000002000000002000GR100600000900009MA1101295999999MD1310081+9999MW1001REMMET073KAMA 150256Z 15014KT 10SM CLR 12/02 A2991 RMK AO2 SLP110 T01220022 53008;EQDQ01+000000PRSWM2N01 00000JPWTH 0QNNAA1D0 00000BA1 0 00000GA1U0 99999KA1D0 00036JA1 0 00022LA1 0 01000CA1 0 02991NA1 0 00000QA1 0 10110SA1D0 00054RA1 0 00122YA1 0 15014
0168723630230472000031507124+35230-101700FM-16+1099KAMA V0201701N008710003019N0040231N1+01101+01101999999ADDGD14991+0003019GF108991999999999999999999MA1101221999999MW1101REMMET059KAMA 150712Z 17017KT 2 1/2SM BR OVC001 11/11 A2989 RMK AO2;EQDQ01+000003PRSWM1Q02    003PRSWM1
0343723630230472000031617564+35230-101700FM-15+1099KAMA V0200101N008210036019N0028161N1-00301-00301102251ADDAA101000021AA206003891GD12991+0027019GD23991+0036019GD34991+0135019GF108991999999999999999999KA1999M-00281KA2999N-00391MA1102131999999MD1010101+9999MW1101MW2711REMMET136KAMA 161756Z 01016KT 1SM -SN BR SCT009 BKN012 OVC045 M03/M03 A3016 RMK AO2 SFC VIS 1 3/4 SLP225 60015 P0000 T10281033 11028 21039 50010;EQDQ01+000003PRSWM1Q02    003PRSWM1
033872363023047200003181553C+35217-101700FM-15+1093AMA  V0203305N00725220005MN0160005N1+00615+00115101405ADDAA101000095GD11995+0036659GF102991999999999999999999MA1101425999999MW1001OC100981REMMET075KAMA 181553Z 33014G19KT 10SM FEW012 06/01 A2995 RMK AO2 SLP140 T00610011 $;EQDQ01+000000PRSWM2N01 00000JPWTH 0QNNAA1D0 02012BA1 0 01012GA1U0 99999KA1D0 00034JA1 0 00011LA1 0 01000CA1 0 02995NA1 0 00000QA1 0 10140SA1D0 00043RA1 0 00061YA1 0 33014
0104723630230472000031914009+35217-101700NSRDB+109399999V020999999999999999999999999999+99999+99999999999ADDGM1006000900190509019001601999999GP10060010502008039002015005702008GQ100600829909539GR100600170913799
0104723630230472000032216009+35217-101700NSRDB+109399999V020999999999999999999999999999+99999+99999999999ADDGM1006000970390002039009603999999GP10060023502008003102015021802008GQ100600584911429GR100600719913769
032572363023047200003221653C+35217-101700FM-15+1093AMA  V0200805N00885000915MN0160005N1+00725+00675102145ADDAA101000095GD14995+0009159GF108991999999999999999999MA1102175999999MW1001REMMET070KAMA 221653Z 08017KT 10SM OVC003 07/07 A3017 RMK AO2 SLP214 T00720067;EQDQ01+000000PRSWM2N01 00000JPWTH 0QNNAA1D0 06003BA1 0 06003GA1 0 00003KA1D0 00044JA1 0 00067LA1 0 01000CA1 0 03017NA1 0 00000QA1 0 10214SA1D0 00045RA1 0 00072YA1 0 08017
0291723630230472000032313023+35230-101700FM-16+1099KAMA V0201101N007710036019N0160931N1+01001+00901999999ADDGD12991+0027019GD23991+0036019GD34991+0150019GF108991999999999999999999GM1006000000190000019000001999999GP10060000002008000002015000002008GQ100600889908899GR100600005902879MA1100851999999MW1001REMMET067KAMA 231302Z 11015KT 10SM SCT009 BKN012 OVC050 10/09 A2978 RMK AO2;EQDQ01+000000PRSWM2
0104723630230472000032322009+35217-101700NSRDB+109399999V020999999999999999999999999999+99999+99999999999ADDGM1006001870390019039017203999999GP10060057602008048602015026002008GQ100600495923589GR100600893913759
030772363023047200003250353C+35217-101700FM-15+1093AMA  V0200605N00265220005MN0160005N1+01395+00785101445ADDAA101000095GF100991999999999999999999MA1101735999999MW1001REMMET067KAMA 250353Z 06005KT 10SM CLR 14/08 A3004 RMK AO2 SLP144 T01390078;EQDQ01+000000PRSWM2N01 00000JPWTH 0QNNAA1D0 00000BA1 0 00000GA1U0 99999KA1D0 00046JA1 0 00078LA1 0 01000CA1 0 03004NA1 0 00000QA1 0 10144SA1D0 00057RA1 0 00139YA1 0 06005
0104723630230472000032622009+35217-101700NSRDB+109399999V020999999999999999999999999999+99999+99999999999ADDGM1006006710390912039005703999999GP10060070702008090802015010802008GQ100600488923719GR100600904913739
0104723630230472000033023009+35217-101700NSRDB+109399999V020999999999999999999999999999+99999+99999999999ADDGM1006004780390762039007503999999GP10060052602008079802015011402008GQ100600590925149GR100600705913709
0087723630230472000040208009+35217-101700NSRDB+109399999V020999999999999999999999999999+99999+99999999999ADDGM1006000000190000019000001999999GP10060000002000000002000000002000GR100600000900009
0149723630230472000040310264+35230-101700FM-16+1099KAMA V0203601N008712200019N0160931N1+00201-00101999999ADDGD12991+0057019GF104991999999999999999999MA1102001999999MW1001REMMET056KAMA 031026Z 36017KT 10SM SCT019 02/M01 A3012 RMK AO2 $;EQDQ01+000000PRSWM2
0104723630230472000040602009+35217-101700NSRDB+109399999V020999999999999999999999999999+99999+99999999999ADDGM1006000000190022019000001999999GP10060000002008000002015000002008GQ100600891927769GR100600004902629
030872363023047200004060453C+35217-101700FM-15+1093AMA  V0202505N00775220005MN0160005N1+01945-00285100315ADDAA101000095GF100991999999999999999999MA1100855999999MW1001REMMET068KAMA 060453Z 25015KT 10SM CLR 19/M03 A2978 RMK AO2 SLP031 T01941028;EQDQ01+000000PRSWM2N01 00000JPWTH 0QNNAA1D0 00000BA1 0 00000GA1U0 99999KA1D0 00027JA1 0-00028LA1 0 01000CA1 0 02978NA1 0 00000QA1 0 10031SA1D0 00067RA1 0 00194YA1 0 25015
0087723630230472000040807009+35217-101700NSRDB+109399999V020999999999999999999999999999+99999+99999999999ADDGM1006000000190000019000001999999GP10060000002000000002000000002000GR100600000900009
035672363023047200004111253C+35217-101700FM-15+1093AMA  V0200105N00575005795MN0144005N1+00785+00505102125ADDAA101000025GD14995+0057959GF108991999999999999999999MA1102375999999MW1615REMMET085KAMA 111253Z 01011KT 9SM -RA OVC019 08/05 A3023 RMK AO2 RAB49 SLP212 P0000 T00780050;EQDQ01+000003PRSWM1Q02    003PRSWM1N01 00020JPWTH 0QNNAA1D0 06019BA1 0 06019GA1 0 00019KA1D0 00041JA1 0 00050LA1 0 00900CA1 0 03023NA1 0 00020QA1 0 10212SA1D0 00046RA1 0 00078YA1 0 01011
0315723630230472000041201053+35230-101700FM-16+1099KAMA V0200801N011810270019N0128741N1+00701+00701999999ADDGD12991+0081019GD22991+0126019GD34991+0270019GF108991999999999999999999GM1006000000190000019000001999999GP10060001502008000002015001502008GQ100600811927469GR100600209913609MA1102371999999MW1001REMMET091KAMA 120105Z 08023KT 8SM SCT027 SCT042 OVC090 07/07 A3023 RMK AO2 PK WND 09026/0105 PRESFR;EQDQ01+000000PRSWM2
0104723630230472000041220009+35217-101700NSRDB+109399999V020999999999999999999999999999+99999+99999999999ADDGM1006005660390057039051603999999GP10060041002008003002015038302008GQ100600279920239GR100601201913599
0894723630230472000041305596+35230-101704SOD  +1098KAMA V020999999999999999999999999999+99999+99999999999ADDAA124000595AJ100009599999999AL12400096AN1024000096AT1MW16RA  1AT2MW01FG  5AT3MW13BR  1AT4MW08HZ  5GJ103805GK10495KA1240M+01445KA2240N+00675MG1089819999994OE11240071517023125OE22240062617023145OE33240027799999995REMSOD65224 HR PRECIPITATION (IN): 0.02 SNOW DEPTH (IN):0     24 HR SNOWFALL (IN):  .0 TOTAL SUNSHINE (MINUTES): 380 PERCENT POSSIBLE SUNSHINE: 49 24 HR MAX TEMP (F): 5824 HR MAX TEMP TIME (LST):1745 24 HR MIN TEMP (F): 4424 HR MIN TEMP TIME (LST):2354 AVERAGE STATION PRESSURE:26.52  PEAK WIND SPEED (MPH): 16 PEAK WIND DIR (DEG):170 PEAK WIND TIME (LST):2312  FASTEST 2MIN SPEED (MPH): 14FASTEST 2MIN DIR (DEG):170 FASTEST 2MIN TIME (LST):2314 AVERAGE WIND SPEED (MPH): 6.2 24 HR AVG TEMP (F):51 HOURLY INCREMENTAL PRECIPITATION VALUES (IN):.00  .00  .01   T   .00  .00  .01   T    T   .00  .00  .00  .00  .00  .00  .00  .00  .00  .00  .00  .00  .00  .00  .00EQDR01    .07ALS030
030772363023047200004141053C+35217-101700FM-15+1093AMA  V0201905N00525220005MN0160005N1+01005+00835100785ADDAA101000095GF100991999999999999999999MA1101195999999MW1001REMMET067KAMA 141053Z 19010KT 10SM CLR 10/08 A2988 RMK AO2 SLP078 T01000083;EQDQ01+000000PRSWM2N01 00000JPWTH 0QNNAA1D0 00000BA1 0 00000GA1U0 99999KA1D0 00047JA1 0 00083LA1 0 01000CA1 0 02988NA1 0 00000QA1 0 10078SA1D0 00050RA1 0 00100YA1 0 19010
0104723630230472000041519009+35217-101700NSRDB+109399999V020999999999999999999999999999+99999+99999999999ADDGM1006007850390442039036603999999GP10060082202008049302015037702008GQ100600255917019GR100601224913579
032772363023047200004170853C+35217-101700FM-15+1093AMA  V0201805N00625220005MN0160005N1+00835+00615101695ADDAA101000095GF100991999999999999999999MA1101965999999MD1810031+9999MW1001REMMET073KAMA 170853Z 18012KT 10SM CLR 08/06 A3011 RMK AO2 SLP169 T00830061 58003;EQDQ01+000000PRSWM2N01 00000JPWTH 0QNNAA1D0 00000BA1 0 00000GA1U0 99999KA1D0 00043JA1 0 00061LA1 0 01000CA1 0 03011NA1 0 00000QA1 0 10169SA1D0 00047RA1 0 00083YA1 0 18012
0204723630230472000042011534+35230-101700FM-15+1099KAMA V0203201N005712200019N0160931N1+00701-00401101881ADDGF100991999999999999999999KA1999M+01111KA2999N+00611MA1102171999999MD1310241+9999MW1001REMMET086KAMA 201153Z 32011KT 10SM CLR 07/M04 A3017 RMK AO2 SLP188 T00671039 10111 20061 53024;EQDQ01+000000PRSWM2
0104723630230472000042219009+35217-101700NSRDB+109399999V020999999999999999999999999999+99999+99999999999ADDGM1006005380390073039046503999999GP10060055602008009002015047302008GQ100600231917019GR100601243913529
030772363023047200004260953C+35217-101700FM-15+1093AMA  V0201705N00575220005MN0160005N1+01115+00615101755ADDAA101000095GF100991999999999999999999MA1102105999999MW1001REMMET067KAMA 260953Z 17011KT 10SM CLR 11/06 A3015 RMK AO2 SLP175 T01110061;EQDQ01+000000PRSWM2N01 00000JPWTH 0QNNAA1D0 00000BA1 0 00000GA1U0 99999KA1D0 00043JA1 0 00061LA1 0 01000CA1 0 03015NA1 0 00000QA1 0 10175SA1D0 00052RA1 0 00111YA1 0 17011
0104723630230472000042823009+35217-101700NSRDB+109399999V020999999999999999999999999999+99999+99999999999ADDGM1006005100390670039010903999999GP10060048902008042402015024102008GQ100600543926269GR100600785913479
032572363023047200004291853C+35217-101700FM-15+1093AMA  V0201705N00825220005MN0160005N1+02335+01225100915ADDAA101000095GD12995+0140259GF104991999999999999999999MA1101355999999MW1001REMMET070KAMA 291853Z 17016KT 10SM SCT046 23/12 A2993 RMK AO2 SLP091 T02330122;EQDQ01+000000PRSWM2N01 00000JPWTH 0QNNAA1D0 02046BA1 0 02046GA1U0 99999KA1D0 00054JA1 0 00122LA1 0 01000CA1 0 02993NA1 0 00000QA1 0 10091SA1D0 00074RA1 0 00233YA1 0 17016
0087723630230472000050111009+35217-101700NSRDB+109399999V020999999999999999999999999999+99999+99999999999ADDGM1006000000190000019000001999999GP10060000002000000002000000002000GR100600000900009
0221723630230472000050123534+35230-101700FM-15+1099KAMA V0200201N008212200019N0160931N1+01301+00301101701ADDGD12991+0360019GF102991999999999999999999KA1999M+01781KA2999N+01281MA1101861999999MD1310051+9999MW1001REMMET088KAMA 012353Z 02016KT 10SM FEW120 13/03 A3008 RMK AO2 SLP170 T01280033 10178 20128 53005;EQDQ01+000000PRSWM2
032572363023047200005020053C+35217-101700FM-15+1093AMA  V0200205N00725024385MN0160005N1+01065+00335101725ADDAA101000095GD14995+0243859GF108991999999999999999999MA1101865999999MW1001REMMET070KAMA 020053Z 02014KT 10SM OVC080 11/03 A3008 RMK AO2 SLP172 T01060033;EQDQ01+000000PRSWM2N01 00000JPWTH 0QNNAA1D0 06080BA1 0 06080GA1 0 00080KA1D0 00038JA1 0 00033LA1 0 01000CA1 0 03008NA1 0 00000QA1 0 10172SA1D0 00051RA1 0 00106YA1 0 02014
030772363023047200005042153C+35217-101700FM-15+1093AMA  V0201705N00675220005MN0160005N1+02785+01445100885ADDAA101000095GF100991999999999999999999MA1101325999999MW1001REMMET067KAMA 042153Z 17013KT 10SM CLR 28/14 A2992 RMK AO2 SLP088 T02780144;EQDQ01+000000PRSWM2N01 00000JPWTH 0QNNAA1D0 00000BA1 0 00000GA1U0 99999KA1D0 00058JA1 0 00144LA1 0 01000CA1 0 02992NA1 0 00000QA1 0 10088SA1D0 00082RA1 0 00278YA1 0 17013
033672363023047200005072153C+35217-101700FM-15+1093AMA  V0202405N00935220005MN0160005N1+03335+00175100305ADDAA101000095GF100991999999999999999999MA1100855999999MW1001OC101231REMMET088KAMA 072153Z 24018G24KT 10SM CLR 33/02 A2978 RMK AO2 PK WND 25029/2122 SLP030 T03330017;EQDQ01+000000PRSWM2N01 00000JPWTH 0QNNAA1D0 00000BA1 0 00000GA1U0 99999KA1D0 00035JA1 0 00017LA1 0 01000CA1 0 02978NA1 0 00000QA1 0 10030SA1D0 00092RA1 0 00333YA1 0 24018
0203723630230472000050917534+35230-101700FM-15+1099KAMA V0200401N004112200019N0160931N1+01801+00601101451ADDGF100991999999999999999999KA1999M+01831KA2999N+00831MA1101801999999MD1810011+9999MW1001REMMET085KAMA 091753Z 04008KT 10SM CLR 18/06 A3006 RMK AO2 SLP145 T01780061 10183 20083 58001;EQDQ01+000000PRSWM2
0104723630230472000051216009+35217-101700NSRDB+109399999V020999999999999999999999999999+99999+99999999999ADDGM1006006080390338039035903999999GP10060065802008062102015022602008GQ100600459909849GR100600929913389
0087723630230472000051710009+35217-101700NSRDB+109399999V020999999999999999999999999999+99999+99999999999ADDGM1006000000190000019000001999999GP10060000002000000002000000002000GR100600000900009
0104723630230472000051902009+35217-101700NSRDB+109399999V020999999999999999999999999999+99999+99999999999ADDGM1006000210190130019000701999999GP10060001602008008902015001202008GQ100600860929179GR100600070910129
0087723630230472000051907009+35217-101700NSRDB+109399999V020999999999999999999999999999+99999+99999999999ADDGM1006000000190000019000001999999GP10060000002000000002000000002000GR100600000900009
0104723630230472000051922009+35217-101700NSRDB+109399999V020999999999999999999999999999+99999+99999999999ADDGM1006006910390452039032103999999GP10060070802008060702015023902008GQ100600394925869GR100601029913349
030772363023047200005220153C+35217-101700FM-15+1093AMA  V0201605N00415220005MN0160005N1+02175+01175100985ADDAA101000095GF100991999999999999999999MA1101395999999MW1001REMMET067KAMA 220153Z 16008KT 10SM CLR 22/12 A2994 RMK AO2 SLP098 T02170117;EQDQ01+000000PRSWM2N01 00000JPWTH 0QNNAA1D0 00000BA1 0 00000GA1U0 99999KA1D0 00053JA1 0 00117LA1 0 01000CA1 0 02994NA1 0 00000QA1 0 10098SA1D0 00071RA1 0 00217YA1 0 16008
030772363023047200005220653C+35217-101700FM-15+1093AMA  V0201905N00525220005MN0160005N1+01725+01115101005ADDAA101000095GF100991999999999999999999MA1101525999999MW1001REMMET067KAMA 220653Z 19010KT 10SM CLR 17/11 A2998 RMK AO2 SLP100 T01720111;EQDQ01+000000PRSWM2N01 00000JPWTH 0QNNAA1D0 00000BA1 0 00000GA1U0 99999KA1D0 00052JA1 0 00111LA1 0 01000CA1 0 02998NA1 0 00000QA1 0 10100SA1D0 00063RA1 0 00172YA1 0 19010
0239723630230472000052423534+35230-101700FM-15+1099KAMA V0200501N009812200019N0160931N1+03201+01801099971ADDGF100991999999999999999999KA1999M+03781KA2999N+03111MA1100541999999MD1810011+9999MW1001OC101181REMMET113KAMA 242353Z 05019G23KT 10SM CLR 32/18 A2969 RMK AO2 PK WND 04031/2322 PRESFR SLP997 T03170178 10378 20311 58001;EQDQ01+000000PRSWM2
0087723630230472000052511009+35217-101700NSRDB+109399999V020999999999999999999999999999+99999+99999999999ADDGM1006000000190000019000001999999GP10060000002000000002000000002000GR100600000900009
0286723630230472000052611534+35230-101700FM-15+1099KAMA V0201901N003112200019N0040231N1+01301+01301100311ADDAA101000391AA206000391AA324020191GF100991999999999999999999KA1999M+01561KA2999N+01281MA1100711999999MD1010121+9999MW1101REMMET119KAMA 261153Z 19006KT 2 1/2SM BR CLR 13/13 A2974 RMK AO2 SFC VIS 4 SLP031 P0001 60001 70079 T01330128 10156 20128 50012;EQDQ01+000003PRSWM1Q02    003PRSWM1
0104723630230472000052620009+35217-101700NSRDB+109399999V020999999999999999999999999999+99999+99999999999ADDGM1006010000390925039008303999999GP10060096202008076102015023402008GQ100600172921769GR100601270913319
0882723630230472000052705596+35230-101704SOD  +1098KAMA V020999999999999999999999999999+99999+99999999999ADDAA124000395AJ100009599999999AL12400096AN1024000096AT1MW16RA  5AT2MW01FG  5AT3MW13BR  1GJ106895GK10805KA1240M+03225KA2240N+01285MG1088059999994OE11240107323016025OE22240093923016285OE33240051499999995REMSOD65224 HR PRECIPITATION (IN): 0.01 SNOW DEPTH (IN):0     24 HR SNOWFALL (IN):  .0 TOTAL SUNSHINE (MINUTES): 689 PERCENT POSSIBLE SUNSHINE: 80 24 HR MAX TEMP (F): 9024 HR MAX TEMP TIME (LST):1704 24 HR MIN TEMP (F): 5524 HR MIN TEMP TIME (LST):0609 AVERAGE STATION PRESSURE:26.00  PEAK WIND SPEED (MPH): 24 PEAK WIND DIR (DEG):230 PEAK WIND TIME (LST):1602  FASTEST 2MIN SPEED (MPH): 21FASTEST 2MIN DIR (DEG):230 FASTEST 2MIN TIME (LST):1628 AVERAGE WIND SPEED (MPH):11.5 24 HR AVG TEMP (F):73 HOURLY INCREMENTAL PRECIPITATION VALUES (IN): T   .00  .00  .00  .00  .01  .00  .00  .00  .00  .00  .00  .00  .00  .00  .00  .00  .00  .00  .00  .00  .00  .00  .00EQDR01    .07ALS030
030772363023047200005271253C+35217-101700FM-15+1093AMA  V0203605N00825220005MN0160005N1+01725+01065100955ADDAA101000095GF100991999999999999999999MA1101465999999MW1001REMMET067KAMA 271253Z 36016KT 10SM CLR 17/11 A2996 RMK AO2 SLP095 T01720106;EQDQ01+000000PRSWM2N01 00000JPWTH 0QNNAA1D0 00000BA1 0 00000GA1U0 99999KA1D0 00051JA1 0 00106LA1 0 01000CA1 0 02996NA1 0 00000QA1 0 10095SA1D0 00063RA1 0 00172YA1 0 36016
0087723630230472000052911009+35217-101700NSRDB+109399999V020999999999999999999999999999+99999+99999999999ADDGM1006000000190000019000001999999GP10060000002000000002000000002000GR100600000900009
042872363023047200006031453C+35217-101700FM-15+1093AMA  V0201105N00365001225MN0024005N1+01785+01725101965ADDAA101000395AA203001091GD14995+0012259GF108991999999999999999999MA1102345999999MD1310021+9999MW1101MW2455MW3515REMMET120KAMA 031453Z 11007KT 1 1/2SM -DZ BR OVC004 18/17 A3022 RMK AO2 SFC VIS 3 CIG 002V006 SLP196 P0001 60004 T01780172 53002;EQDQ01+000003PRSWM1Q02    003PRSWM1N01 03370JPWTH 0QNNAA1D0 06004BA1 0 06004GA1 0 00004KA1D0 00063JA1 0 00172LA1 0 00150CA1 0 03022NA1 0 03370QA1 0 10196SA1D0 00064RA1 0 00178YA1 0 11007
0087723630230472000060604009+35217-101700NSRDB+109399999V020999999999999999999999999999+99999+99999999999ADDGM1006000000190000019000001999999GP10060000002000000002000000002000GR100600000900009
030772363023047200006060953C+35217-101700FM-15+1093AMA  V0201505N00625220005MN0160005N1+01615+01395101855ADDAA101000095GF100991999999999999999999MA1102305999999MW1001REMMET067KAMA 060953Z 15012KT 10SM CLR 16/14 A3021 RMK AO2 SLP185 T01610139;EQDQ01+000000PRSWM2N01 00000JPWTH 0QNNAA1D0 00000BA1 0 00000GA1U0 99999KA1D0 00057JA1 0 00139LA1 0 01000CA1 0 03021NA1 0 00000QA1 0 10185SA1D0 00061RA1 0 00161YA1 0 15012
0212723630230472000061100334+35230-101700FM-16+1099KAMA V0201701N005710144019N0128741N1+02301+01601999999ADDGD13991+0144019GD23991+0270019GF107991999999999999999999MA1101291999999MW1801MW2951REMMET082KAMA 110033Z 17011KT 8SM -TSRA BKN048 BKN095 23/16 A2991 RMK AO2 TSB27RAB26 P0001;EQDQ01+000003PRSWM1Q02    003PRSWM1
0248723630230472000061105534+35230-101700FM-15+1099KAMA V0201001N004112200019N0160931N1+01801+01501101121ADDAA106000891GD12991+0120019GF104991999999999999999999KA1999M+02611KA2999N+01671MA1101591999999MD1310201+9999MW1001REMMET104KAMA 110553Z 10008KT 10SM SCT040 18/15 A3000 RMK AO2 SLP112 60003 T01780150 10261 20167 402890167 53020;EQDQ01+000000PRSWM2
033672363023047200006130353C+35217-101700FM-15+1093AMA  V0201805N01245220005MN0160005N1+02445+01725101055ADDAA101000095GF100991999999999999999999MA1101635999999MW1001OC101541REMMET088KAMA 130353Z 18024G30KT 10SM CLR 24/17 A3001 RMK AO2 PK WND 17030/0352 SLP105 T02440172;EQDQ01+000000PRSWM2N01 00000JPWTH 0QNNAA1D0 00000BA1 0 00000GA1U0 99999KA1D0 00063JA1 0 00172LA1 0 01000CA1 0 03001NA1 0 00000QA1 0 10105SA1D0 00076RA1 0 00244YA1 0 18024
0087723630230472000061308009+35217-101700NSRDB+109399999V020999999999999999999999999999+99999+99999999999ADDGM1006000000190000019000001999999GP10060000002000000002000000002000GR100600000900009
031872363023047200006142153C+35217-101700FM-15+1093AMA  V0200105N00465220005MN0160005N1+02675+00615101245ADDAA101000095GF100991999999999999999999MA1101735999999MW1001OC100981REMMET070KAMA 142153Z 01009G19KT 10SM CLR 27/06 A3004 RMK AO2 SLP124 T02670061;EQDQ01+000000PRSWM2N01 00000JPWTH 0QNNAA1D0 00000BA1 0 00000GA1U0 99999KA1D0 00043JA1 0 00061LA1 0 01000CA1 0 03004NA1 0 00000QA1 0 10124SA1D0 00080RA1 0 00267YA1 0 01009
033672363023047200006152253C+35217-101700FM-15+1093AMA  V0202105N00985220005MN0160005N1+03335+00945099855ADDAA101000095GF100991999999999999999999MA1100415999999MW1001OC101441REMMET088KAMA 152253Z 21019G28KT 10SM CLR 33/09 A2965 RMK AO2 PK WND 20029/2219 SLP985 T03330094;EQDQ01+000000PRSWM2N01 00000JPWTH 0QNNAA1D0 00000BA1 0 00000GA1U0 99999KA1D0 00049JA1 0 00094LA1 0 01000CA1 0 02965NA1 0 00000QA1 0 09985SA1D0 00092RA1 0 00333YA1 0 21019
0104723630230472000061723009+35217-101700NSRDB+109399999V020999999999999999999999999999+99999+99999999999ADDGM1006003160390008039030803999999GP10060022902008001202015022102008GQ100600490927199GR100600866913239
0482723630230472000061800003+35217-101700SY-MT+1093AMA  V0200705N00525007625MN0160005N1+01785+01225101745ADDAA101000095GD14995+0076259GF108991999999008001999999GM1006002040390016039019203999999GP10060026702008011702015021002008GQ100600612927979GR100600636913239KA1120M+01891KA2180N+01171MA1102035089431MD1510031+9999REMSYN092AAXX  18004 72363 32566 80710 10178 20122 38943 40174 55003 92353 333 10189 20117 555 91800;EQDQ01  00003PRCP99N01 00000JPWTH 0QNNAA1D0 06025BA1 0 06025GA1 0 00025KA1D0 00054JA1 0 00122LA1 0 01000CA1 0 03013NA1 0 00000QA1 0 10174SA1D0 00064RA1 0 00178YA1 0 07010
0104723630230472000061813009+35217-101700NSRDB+109399999V020999999999999999999999999999+99999+99999999999ADDGM1006000190190001019001801999999GP10060003102008000002015003102008GQ100600803906809GR100600223913239
032772363023047200006200253C+35217-101700FM-15+1093AMA  V0201805N01035220005MN0160005N1+02445+01835100665ADDAA101000095GF100991999999999999999999MA1101195999999MD1310031+9999MW1001REMMET073KAMA 200253Z 18020KT 10SM CLR 24/18 A2988 RMK AO2 SLP066 T02440183 53003;EQDQ01+000000PRSWM2N01 00000JPWTH 0QNNAA1D0 00000BA1 0 00000GA1U0 99999KA1D0 00065JA1 0 00183LA1 0 01000CA1 0 02988NA1 0 00000QA1 0 10066SA1D0 00076RA1 0 00244YA1 0 18020
030772363023047200006231353C+35217-101700FM-15+1093AMA  V0202105N00675220005MN0160005N1+02335+01835101045ADDAA101000095GF100991999999999999999999MA1101595999999MW1001REMMET067KAMA 231353Z 21013KT 10SM CLR 23/18 A3000 RMK AO2 SLP104 T02330183;EQDQ01+000000PRSWM2N01 00000JPWTH 0QNNAA1D0 00000BA1 0 00000GA1U0 99999KA1D0 00065JA1 0 00183LA1 0 01000CA1 0 03000NA1 0 00000QA1 0 10104SA1D0 00074RA1 0 00233YA1 0 21013
0104723630230472000062414009+35217-101700NSRDB+109399999V020999999999999999999999999999+99999+99999999999ADDGM1006003050390736039003103999999GP10060030202008059202015008902008GQ100600690907559GR100600474913229
033872363023047200006250853C+35217-101700FM-15+1093AMA  V0201005N00575220005MN0160005N1+02115+01725100865ADDAA101000095GF100991999999999999999999MA1101495999999MD1010061+9999MW1001REMMET084KAMA 250853Z 10011KT 10SM CLR 21/17 A2997 RMK AO2 WSHFT 0821 SLP086 T02110172 50006;EQDQ01+000000PRSWM2N01 00000JPWTH 0QNNAA1D0 00000BA1 0 00000GA1U0 99999KA1D0 00063JA1 0 00172LA1 0 01000CA1 0 02997NA1 0 00000QA1 0 10086SA1D0 00070RA1 0 00211YA1 0 10011
0087723630230472000062511009+35217-101700NSRDB+109399999V020999999999999999999999999999+99999+99999999999ADDGM1006000000190000019000001999999GP10060000002000000002000000002000GR100600000900009
0104723630230472000062622009+35217-101700NSRDB+109399999V020999999999999999999999999999+99999+99999999999ADDGM1006003350390003039033003999999GP10060031002008001802015029602008GQ100600364926219GR100601061913229
0087723630230472000062707009+35217-101700NSRDB+109399999V020999999999999999999999999999+99999+99999999999ADDGM1006000000190000019000001999999GP10060000002000000002000000002000GR100600000900009
0212723630230472000062715294+35230-101690FM-16+1099KAMA V0201801N00361001201CN0160931N1+01901+01801999999ADDGD13991+0018019GD24991+0030019GF108991999999999999999999MA1102401999999MW1611REMMET088KAMA 271529Z 18007KT 10SM -RA BKN006 OVC010 19/18 A3024 RMK AO2 RAB05 CIG 004V008 P0002;EQDQ01+000003PRSWM1Q02    003PRSWM1
0303723630230472000062817534+35230-101690FM-15+1099KAMA V0202601N001510141019N0160931N1+01901+01701102011ADDAA101000391AA206015591GD13991+0141019GD24991+0180019GF108991999999999999999999KA1999M+01941KA2999N+01671MA1102371999999MD1110111+9999MW1611REMMET117KAMA 281753Z 26003KT 10SM -RA BKN047 OVC060 19/17 A3023 RMK AO2 RAB08 SLP201 P0001 60061 T01890167 10194 20167 51011;EQDQ01+000003PRSWM1Q02    003PRSWM1
029672363023047200007021053C+35217-101700FM-15+1093AMA  V0201905N00575220005MN0160005N1+01945+01895100821ADDAA101000095GF100991999999999999999999MA1101325999999MW1001REMMET067KAMA 021053Z 19011KT 10SM CLR 19/19 A2992 RMK AO2 SLP082 T01940189;EQDQ01+000000PRSWM2N01 00000JPWTH 0QNNAA1D0 00000BA1 0 00000GA1U0 99999KA1D0 00066JA1 0 00189LA1 0 01000CA1 0 02992NA1 0 00000SA1D0 00067RA1 0 00194YA1 0 19011
0104723630230472000070321009+35217-101700NSRDB+109399999V020999999999999999999999999999+99999+99999999999ADDGM1006008671190819109008910999999GP10060090802008083102015015202008GQ100600246924649GR100601199913219
0104723630230472000070414009+35217-101700NSRDB+109399999V020999999999999999999999999999+99999+99999999999ADDGM1006001200390005039011603999999GP10060016302008005702015014302008GQ100600696907589GR100600459913219
030772363023047200007061053C+35217-101700FM-15+1093AMA  V0202105N00625220005MN0160005N1+01895+01065101095ADDAA101000095GF100991999999999999999999MA1101665999999MW1001REMMET067KAMA 061053Z 21012KT 10SM CLR 19/11 A3002 RMK AO2 SLP109 T01890106;EQDQ01+000000PRSWM2N01 00000JPWTH 0QNNAA1D0 00000BA1 0 00000GA1U0 99999KA1D0 00051JA1 0 00106LA1 0 01000CA1 0 03002NA1 0 00000QA1 0 10109SA1D0 00066RA1 0 00189YA1 0 21012
030772363023047200007110053C+35217-101700FM-15+1093AMA  V0201805N00625220005MN0160005N1+03285+01445100805ADDAA101000095GF100991999999999999999999MA1101425999999MW1001REMMET067KAMA 110053Z 18012KT 10SM CLR 33/14 A2995 RMK AO2 SLP080 T03280144;EQDQ01+000000PRSWM2N01 00000JPWTH 0QNNAA1D0 00000BA1 0 00000GA1U0 99999KA1D0 00058JA1 0 00144LA1 0 01000CA1 0 02995NA1 0 00000QA1 0 10080SA1D0 00091RA1 0 00328YA1 0 18012
034572363023047200007141453C+35217-101700FM-15+1093AMA  V0202405N00215220005MN0160005N1+02505+01785101885ADDAA101000095GD11995+0365859GF102991999999999999999999MA1102405999999MD1110141+9999MW1001REMMET076KAMA 141453Z 24004KT 10SM FEW120 25/18 A3024 RMK AO2 SLP188 T02500178 51014;EQDQ01+000000PRSWM2N01 00000JPWTH 0QNNAA1D0 02120BA1 0 01120GA1U0 99999KA1D0 00064JA1 0 00178LA1 0 01000CA1 0 03024NA1 0 00000QA1 0 10188SA1D0 00077RA1 0 00250YA1 0 24004
0087723630230472000072005009+35217-101700NSRDB+109399999V020999999999999999999999999999+99999+99999999999ADDGM1006000000190000019000001999999GP10060000002000000002000000002000GR100600000900009
030772363023047200007211853C+35217-101700FM-15+1093AMA  V0201805N00415220005MN0160005N1+03065+01395101475ADDAA101000095GF100991999999999999999999MA1102035999999MW1001REMMET067KAMA 211853Z 18008KT 10SM CLR 31/14 A3013 RMK AO2 SLP147 T03060139;EQDQ01+000000PRSWM2N01 00000JPWTH 0QNNAA1D0 00000BA1 0 00000GA1U0 99999KA1D0 00057JA1 0 00139LA1 0 01000CA1 0 03013NA1 0 00000QA1 0 10147SA1D0 00087RA1 0 00306YA1 0 18008
030772363023047200007220353C+35217-101700FM-15+1093AMA  V0201405N00465220005MN0160005N1+02395+01115101315ADDAA101000095GF100991999999999999999999MA1101865999999MW1001REMMET067KAMA 220353Z 14009KT 10SM CLR 24/11 A3008 RMK AO2 SLP131 T02390111;EQDQ01+000000PRSWM2N01 00000JPWTH 0QNNAA1D0 00000BA1 0 00000GA1U0 99999KA1D0 00052JA1 0 00111LA1 0 01000CA1 0 03008NA1 0 00000QA1 0 10131SA1D0 00075RA1 0 00239YA1 0 14009
0087723630230472000072211009+35217-101700NSRDB+109399999V020999999999999999999999999999+99999+99999999999ADDGM1006000000190000019000001999999GP10060000002000000002000000002000GR100600000900009
031372363023047200007240153C+35217-101700FM-15+1093AMA  V0201505N00625220005MN0160005N1+02835+01445101505ADDAA101000095GF100991999999999999999999MA1102035999999MW1001REMMET073KAMA 240153Z 15012KT 10SM CLR 28/14 A3013 RMK AO2 SLP150 T02830144 PNO $;EQDQ01+000000PRSWM2N01 00000JPWTH 0QNNAA1D0 00000BA1 0 00000GA1U0 99999KA1D0 00058JA1 0 00144LA1 0 01000CA1 0 03013NA1 0 00000QA1 0 10150SA1D0 00083RA1 0 00283YA1 0 15012
030772363023047200007251053C+35217-101700FM-15+1093AMA  V0201505N00725220005MN0160005N1+02175+01225100965ADDAA101000095GF100991999999999999999999MA1101595999999MW1001REMMET067KAMA 251053Z 15014KT 10SM CLR 22/12 A3000 RMK AO2 SLP096 T02170122;EQDQ01+000000PRSWM2N01 00000JPWTH 0QNNAA1D0 00000BA1 0 00000GA1U0 99999KA1D0 00054JA1 0 00122LA1 0 01000CA1 0 03000NA1 0 00000QA1 0 10096SA1D0 00071RA1 0 00217YA1 0 15014
0203723630230472000072523534+35230-101690FM-15+1099KAMA V0201401N006712200019N0160931N1+03101+01601100871ADDGF100991999999999999999999KA1999M+03391KA2999N+02941MA1101461999999MD1810091+9999MW1001REMMET085KAMA 252353Z 14013KT 10SM CLR 31/16 A2996 RMK AO2 SLP087 T03060156 10339 20294 58009;EQDQ01+000000PRSWM2
030772363023047200007310153C+35217-101700FM-15+1093AMA  V0201105N00465220005MN0160005N1+02615+01225101415ADDAA101000095GF100991999999999999999999MA1101935999999MW1001REMMET067KAMA 310153Z 11009KT 10SM CLR 26/12 A3010 RMK AO2 SLP141 T02610122;EQDQ01+000000PRSWM2N01 00000JPWTH 0QNNAA1D0 00000BA1 0 00000GA1U0 99999KA1D0 00054JA1 0 00122LA1 0 01000CA1 0 03010NA1 0 00000QA1 0 10141SA1D0 00079RA1 0 00261YA1 0 11009
038972363023047200007312053C+35217-101700FM-15+1093AMA  V0209999V00155220005MN0160005N1+02945+01225101565ADDAA101000095GD11995+0213459GD22995+0335359GF104991999999999999999999MA1102105999999MD1610181+9999MW1001REMMET083KAMA 312053Z VRB03KT 10SM FEW070 SCT110 29/12 A3015 RMK AO2 SLP156 T02940122 56018;EQDQ01+000000PRSWM2N01 00000JPWTH 0QNNAA1D0 02070BA1 0 01070AA1D0 02110BA1 0 02110GA1U0 99999KA1D0 00054JA1 0 00122LA1 0 01000CA1 0 03015NA1 0 00000QA1 0 10156SA1D0 00085RA1 0 00294YA1 0 00003
0514723630230472000080218003+35217-101700SY-MT+1093AMA  V0202405N00575220005MN0160005N1+03445+00945101195ADDAA101000095GA1001+999999999GD10995+9999999GF100991001001999999001001GM1006008950390832039011603999999GP10060088702008085002015012002008GQ100600257912849GR100601195913279KA1120M+03501KA2240N+01721MA1101835089251MD1810081+9999REMSYN092AAXX  02184 72363 32966 02411 10344 20094 38925 40119 58008 91753 333 10350 20172 555 90218;EQDQ01  00002PRCP99Q02  00003PRCP99N01 00000JPWTH 0QNNAA1D0 00000BA1 0 00000GA1U0 99999KA1D0 00049JA1 0 00094LA1 0 01000CA1 0 03007NA1 0 00000QA1 0 10119SA1D0 00094RA1 0 00344YA1 0 24011
0495723630230472000080418003+35217-101700SY-MT+1093AMA  V0202105N00725220005MN0160005N1+03675+00945101265ADDAA101000095GA1001+999999999GD10995+9999999GF100991001001999999001001GM1006008200390615039024403999999GP10060086902008074702015019702008GQ100600260912929GR100601192913279KA1240N+02501MA1101935089341MD1810031+9999REMSYN086AAXX  04184 72363 32966 02114 10367 20094 38934 40126 58003 91753 333 20250 555 90418;EQDQ01  00002PRCP99Q02  00003PRCP99N01 00000JPWTH 0QNNAA1D0 00000BA1 0 00000GA1U0 99999KA1D0 00049JA1 0 00094LA1 0 01000CA1 0 03010NA1 0 00000QA1 0 10126SA1D0 00098RA1 0 00367YA1 0 21014
030772363023047200008061253C+35217-101700FM-15+1093AMA  V0202405N00215220005MN0160005N1+02115+01335101075ADDAA101000095GF100991999999999999999999MA1101665999999MW1001REMMET067KAMA 061253Z 24004KT 10SM CLR 21/13 A3002 RMK AO2 SLP107 T02110133;EQDQ01+000000PRSWM2N01 00000JPWTH 0QNNAA1D0 00000BA1 0 00000GA1U0 99999KA1D0 00056JA1 0 00133LA1 0 01000CA1 0 03002NA1 0 00000QA1 0 10107SA1D0 00070RA1 0 00211YA1 0 24004
0214723630230472000081023534+35230-101690FM-15+1099KAMA V0201901N008212200019N0160931N1+03201+01101101331ADDGF100991999999999999999999KA1999M+03501KA2999N+03221MA1101931999999MD1610101+9999MW1001OC101231REMMET088KAMA 102353Z 19016G24KT 10SM CLR 32/11 A3010 RMK AO2 SLP133 T03220106 10350 20322 56010;EQDQ01+000000PRSWM2
0104723630230472000081102009+35217-101700NSRDB+109399999V020999999999999999999999999999+99999+99999999999ADDGM1006000120190085019000401999999GP10060000702008008002015000502008GQ100600864928639GR100600055908769
030772363023047200008160353C+35217-101700FM-15+1093AMA  V0201805N00525220005MN0160005N1+02675+01175101765ADDAA101000095GF100991999999999999999999MA1102405999999MW1001REMMET067KAMA 160353Z 18010KT 10SM CLR 27/12 A3024 RMK AO2 SLP176 T02670117;EQDQ01+000000PRSWM2N01 00000JPWTH 0QNNAA1D0 00000BA1 0 00000GA1U0 99999KA1D0 00053JA1 0 00117LA1 0 01000CA1 0 03024NA1 0 00000QA1 0 10176SA1D0 00080RA1 0 00267YA1 0 18010
0087723630230472000081710009+35217-101700NSRDB+109399999V020999999999999999999999999999+99999+99999999999ADDGM1006000000190000019000001999999GP10060000002000000002000000002000GR100600000900009
030772363023047200008240753C+35217-101700FM-15+1093AMA  V0201905N00575220005MN0160005N1+02285+01225101765ADDAA101000095GF100991999999999999999999MA1102375999999MW1001REMMET067KAMA 240753Z 19011KT 10SM CLR 23/12 A3023 RMK AO2 SLP176 T02280122;EQDQ01+000000PRSWM2N01 00000JPWTH 0QNNAA1D0 00000BA1 0 00000GA1U0 99999KA1D0 00054JA1 0 00122LA1 0 01000CA1 0 03023NA1 0 00000QA1 0 10176SA1D0 00073RA1 0 00228YA1 0 19011
0846723630230472000082505596+35230-101704SOD  +1098KAMA V020999999999999999999999999999+99999+99999999999ADDAA124000096AJ100009599999999AL12400095AN1024000095GJ104275GK10545KA1240M+03505KA2240N+01785MG1089649999994OE11240080517017395OE22240067116017405OE33240039899999995REMSOD65224 HR PRECIPITATION (IN): 0.00 SNOW DEPTH (IN):0     24 HR SNOWFALL (IN):  .0 TOTAL SUNSHINE (MINUTES): 427 PERCENT POSSIBLE SUNSHINE: 54 24 HR MAX TEMP (F): 9524 HR MAX TEMP TIME (LST):1719 24 HR MIN TEMP (F): 6424 HR MIN TEMP TIME (LST):0555 AVERAGE STATION PRESSURE:26.47  PEAK WIND SPEED (MPH): 18 PEAK WIND DIR (DEG):170 PEAK WIND TIME (LST):1739  FASTEST 2MIN SPEED (MPH): 15FASTEST 2MIN DIR (DEG):160 FASTEST 2MIN TIME (LST):1740 AVERAGE WIND SPEED (MPH): 8.9 24 HR AVG TEMP (F):80 HOURLY INCREMENTAL PRECIPITATION VALUES (IN):.00  .00  .00  .00  .00  .00  .00  .00  .00  .00  .00  .00  .00  .00  .00  .00  .00  .00  .00  .00  .00  .00  .00  .00EQDR01  0.007AAP092
0104723630230472000083101009+35217-101700NSRDB+109399999V020999999999999999999999999999+99999+99999999999ADDGM1006000360190044019002801999999GP10060009802008040002015003702008GQ100600813927459GR100600202913419
0104723630230472000083102009+35217-101700NSRDB+109399999V020999999999999999999999999999+99999+99999999999ADDGM1006000010190011019000001999999GP10060000002008000002015000002008GQ100600887927999GR100600008903469
0087723630230472000083103009+35217-101700NSRDB+109399999V020999999999999999999999999999+99999+99999999999ADDGM1006000000190000019000001999999GP10060000002000000002000000002000GR100600000900009
030772363023047200009030153C+35217-101700FM-15+1093AMA  V0201805N00525220005MN0160005N1+03005+00615100935ADDAA101000095GF100991999999999999999999MA1101565999999MW1001REMMET067KAMA 030153Z 18010KT 10SM CLR 30/06 A2999 RMK AO2 SLP093 T03000061;EQDQ01+000000PRSWM2N01 00000JPWTH 0QNNAA1D0 00000BA1 0 00000GA1U0 99999KA1D0 00043JA1 0 00061LA1 0 01000CA1 0 02999NA1 0 00000QA1 0 10093SA1D0 00086RA1 0 00300YA1 0 18010
0104723630230472000090413009+35217-101700NSRDB+109399999V020999999999999999999999999999+99999+99999999999ADDGM1006000160190037019001201999999GP10060000302008010502015000102008GQ100600866908379GR100600047907959
030772363023047200009061053C+35217-101700FM-15+1093AMA  V0201405N00415220005MN0160005N1+02065+01335101325ADDAA101000095GF100991999999999999999999MA1101965999999MW1001REMMET067KAMA 061053Z 14008KT 10SM CLR 21/13 A3011 RMK AO2 SLP132 T02060133;EQDQ01+000000PRSWM2N01 00000JPWTH 0QNNAA1D0 00000BA1 0 00000GA1U0 99999KA1D0 00056JA1 0 00133LA1 0 01000CA1 0 03011NA1 0 00000QA1 0 10132SA1D0 00069RA1 0 00206YA1 0 14008
0104723630230472000090823009+35217-101700NSRDB+109399999V020999999999999999999999999999+99999+99999999999ADDGM1006004230390600039011003999999GP10060045902008069702015010602008GQ100600596925369GR100600681913479
0104723630230472000090916009+35217-101700NSRDB+109399999V020999999999999999999999999999+99999+99999999999ADDGM1006004020390275039024703999999GP10060032902008008602015027802008GQ100600539911239GR100600792913489
030772363023047200009110753C+35217-101700FM-15+1093AMA  V0202105N00415220005MN0160005N1+01785+00225100615ADDAA101000095GF100991999999999999999999MA1101225999999MW1001REMMET067KAMA 110753Z 21008KT 10SM CLR 18/02 A2989 RMK AO2 SLP061 T01780022;EQDQ01+000000PRSWM2N01 00000JPWTH 0QNNAA1D0 00000BA1 0 00000GA1U0 99999KA1D0 00036JA1 0 00022LA1 0 01000CA1 0 02989NA1 0 00000QA1 0 10061SA1D0 00064RA1 0 00178YA1 0 21008
030772363023047200009141853C+35217-101700FM-15+1093AMA  V0209999V00265220005MN0160005N1+03335+01005101595ADDAA101000095GF100991999999999999999999MA1102205999999MW1001REMMET067KAMA 141853Z VRB05KT 10SM CLR 33/10 A3018 RMK AO2 SLP159 T03330100;EQDQ01+000000PRSWM2N01 00000JPWTH 0QNNAA1D0 00000BA1 0 00000GA1U0 99999KA1D0 00050JA1 0 00100LA1 0 01000CA1 0 03018NA1 0 00000QA1 0 10159SA1D0 00092RA1 0 00333YA1 0 00005
030972363023047200009151553C+35217-101700FM-15+1093AMA  V0201305N00675220005MN0160005N1+02285+00835102155ADDAA101000095GF100991999999999999999999MA1102645999999MW1001REMMET069KAMA 151553Z 13013KT 10SM CLR 23/08 A3031 RMK AO2 SLP215 T02280083 $;EQDQ01+000000PRSWM2N01 00000JPWTH 0QNNAA1D0 00000BA1 0 00000GA1U0 99999KA1D0 00047JA1 0 00083LA1 0 01000CA1 0 03031NA1 0 00000QA1 0 10215SA1D0 00073RA1 0 00228YA1 0 13013
0087723630230472000091804009+35217-101700NSRDB+109399999V020999999999999999999999999999+99999+99999999999ADDGM1006000000190000019000001999999GP10060000002000000002000000002000GR100600000900009
0071723630230472000092016009+35217-101700NSRDB+109399999V020999999999999999999999999999+99999+99999999999ADDGP10060046902008044102015022202008GQ100600560911709GR100600757913569
0071723630230472000092301009+35217-101700NSRDB+109399999V020999999999999999999999999999+99999+99999999999ADDGP10060001402008020502015000502008GQ100600860926729GR100600067909629
0104723630230472000100221009+35217-101700NSRDB+109399999V020999999999999999999999999999+99999+99999999999ADDGM1006006820390917039004303999999GP10060069602008087502015010102008GQ100600473922009GR100600926913659
0205723630230472000100311534+35230-101690FM-15+1099KAMA V0202201N005112200019N0160931N1+01401+00101100671ADDGF100991999999999999999999KA1999M+01891KA2999N+01281MA1101191999999MD1310071+9999MW1001REMMET087KAMA 031153Z 22010KT 10SM CLR 14/01 A2988 RMK AO2 SLP067 T01390006 10189 20128 53007 $;EQDQ01+000000PRSWM2
031772363023047200010050453C+35217-101700FM-15+1093AMA  V0201205N00525220005MN0160005N1+01785+00945100905ADDAA101000095GF100991999999999999999999MA1101325999999MW1001REMMET077KAMA 050453Z AUTO 12010KT 10SM CLR 18/09 A2992 RMK AO2 SLP090 T01780094 TSNO;EQDQ01+000000PRSWM2N01 00000JPWTH 0QNNAA1D0 00000BA1 0 00000GA1U0 99999KA1D0 00049JA1 0 00094LA1 0 01000CA1 0 02992NA1 0 00000QA1 0 10090SA1D0 00064RA1 0 00178YA1 0 12010
0498723630230472000100518003+35217-101700SY-MT+1093AMA  V0200205N01085003055MN0112005N1+01565+01175101485ADDAA101000095GD14995+0030559GF108991999999004501999999GM1006007300390750039016203999999GP10060078402008093502015009902008GQ100600431915579GR100600999913689KA1120M+02171KA2240N+01171MA1101835089251MD1310271+9999REMSYN092AAXX  05184 72363 32461 80221 10156 20117 38925 40148 53027 91753 333 10217 20117 555 90518;EQDQ01  00002PRCP99Q02  00003PRCP99N01 00000JPWTH 0QNNAA1D0 06010BA1 0 06010GA1 0 00010KA1D0 00053JA1 0 00117LA1 0 00700CA1 0 03007NA1 0 00000QA1 0 10148SA1D0 00060RA1 0 00156YA1 0 02021
0146723630230472000100604304+35230-101690FM-15+1099KAMA V0200401N008710018019N0160931N1+00901+00801999999ADDGD14991+0018019GF108991999999999999999999MA1102471999999MW1001REMMET053KAMA 060430Z 04017KT 10SM OVC006 09/08 A3026 RMK AO2;EQDQ01+000000PRSWM2
0167723630230472000100813204+35230-101690FM-15+1099KAMA V0202001N003610150019N0144841N1+00201+00201999999ADDGD12991+0021019GD24991+0150019GF108991999999999999999999MA1103691999999MW1001REMMET059KAMA 081320Z 20007KT 9SM FEW007 OVC055 02/02 A3062 RMK AO2;EQDQ01+000000PRSWM2
0104723630230472000101115009+35217-101700NSRDB+109399999V020999999999999999999999999999+99999+99999999999ADDGM1006002780390712039004303999999GP10060027902008055902015009902008GQ100600713911379GR100600440913739
0203723630230472000101411534+35230-101690FM-15+1099KAMA V0202701N002612200019N0160931N1+01201+00301101401ADDGF100991999999999999999999KA1999M+01721KA2999N+00891MA1101761999999MD1310051+9999MW1001REMMET085KAMA 141153Z 27005KT 10SM CLR 12/03 A3005 RMK AO2 SLP140 T01170033 10172 20089 53005;EQDQ01+000000PRSWM2
0148723630230472000101603234+35230-101690FM-16+1099KAMA V0201301N005712200019N0160931N1+01301+01201999999ADDGD12991+0018019GF104991999999999999999999MA1101931999999MW1001REMMET055KAMA 160323Z 13011KT 10SM SCT006 13/12 A3010 RMK AO2 $;EQDQ01+000000PRSWM2
0535723630230472000101718003+35217-101700SY-MT+1093AMA  V0201205N00465024385MN0160005N1+01835+01225102325ADDAA101000095GD11995+0064059GD23995+0243859GF106991999999008001999999GM1006004770390120039038603999999GP10060047002008019902015033402008GQ100600471915879GR100600937913779KA1120M+01831KA2240N+01171MA1102645089981MD1010091+9999REMSYN092AAXX  17184 72363 32566 61209 10183 20122 38998 40232 50009 91753 333 10183 20117 555 91718;EQDQ01  00002PRCP99Q02  00003PRCP99N01 00000JPWTH 0QNNAA1D0 02021BA1 0 01021AA1D0 04080BA1 0 04080GA1 0 00080KA1D0 00054JA1 0 00122LA1 0 01000CA1 0 03031NA1 0 00000QA1 0 10232SA1D0 00065RA1 0 00183YA1 0 12009
0248723630230472000102011063+35230-101690FM-16+1099KAMA V0202101N002112200019N0048281N1+00901+00901999999ADDGD12991+0009019GF104991999999999999999999GM1006000000190000019000001999999GP10060000002000000002000000002000GR100600000900009MA1101861999999MW1101REMMET055KAMA 201106Z 21004KT 3SM BR SCT003 09/09 A3008 RMK AO2;EQDQ01+000003PRSWM1Q02    003PRSWM1
0188723630230472000102011434+35230-101690FM-16+1099KAMA V0201901N002610021019N0004021N1+00901+00901999999ADDGD12991+0009019GD23991+0021019GF107991999999999999999999MA1101861999999MW1441REMMET064KAMA 201143Z 19005KT 1/4SM FG SCT003 BKN007 09/09 A3008 RMK AO2;EQDQ01+000003PRSWM1Q02    003PRSWM1
0210723630230472000102012324+35230-101690FM-16+1099KAMA V0201901N002110009019N0004021N1+00801+00801999999ADDGD13991+0009019GD23991+0021019GD34991+0240019GF108991999999999999999999MA1101901999999MW1441REMMET071KAMA 201232Z 19004KT 1/4SM FG BKN003 BKN007 OVC080 08/08 A3009 RMK AO2;EQDQ01+000003PRSWM1Q02    003PRSWM1
032772363023047200010210253C+35217-101700FM-15+1093AMA  V0201605N00465220005MN0160005N1+01395+01115101575ADDAA101000095GF100991999999999999999999MA1101835999999MD1110101+9999MW1001REMMET073KAMA 210253Z 16009KT 10SM CLR 14/11 A3007 RMK AO2 SLP157 T01390111 51010;EQDQ01+000000PRSWM2N01 00000JPWTH 0QNNAA1D0 00000BA1 0 00000GA1U0 99999KA1D0 00052JA1 0 00111LA1 0 01000CA1 0 03007NA1 0 00000QA1 0 10157SA1D0 00057RA1 0 00139YA1 0 16009
0285723630230472000102202103+35230-101690FM-16+1099KAMA V0201301N00671000601CN0096561N1+01501+01501999999ADDGD14991+0009019GF108991999999999999999999GM1006000000190000019000001999999GP10060000002000000002000000002000GR100600000900009MA1101221999999MW1171REMMET076KAMA 220210Z 13013KT 6SM TS BR OVC003 15/15 A2989 RMK AO2 TSB09 CIG 002V008;EQDQ01+000100PRSWM3Q02+000003PRSWM1Q03    003PRSWM1
033372363023047200010220653C+35217-101700FM-15+1093AMA  V0202305N00155007925MN0160005N1+01335+01175100925ADDAA101000095GD14995+0079259GF108991999999999999999999MA1101295999999MW1001REMMET078KAMA 220653Z 23003KT 10SM OVC026 13/12 A2991 RMK AO2 TSE0555 SLP092 T01330117;EQDQ01+000000PRSWM2N01 00000JPWTH 0QNNAA1D0 06026BA1 0 06026GA1 0 00026KA1D0 00053JA1 0 00117LA1 0 01000CA1 0 02991NA1 0 00000QA1 0 10092SA1D0 00056RA1 0 00133YA1 0 23003
045872363023047200010231853C+35217-101700FM-15+1093AMA  V0201405N00625005795MN0080005N1+01785+01675102235ADDAA101000395GD12995+0036659GD23995+0057959GD34995+0109759GF108991999999999999999999MA1102545999999MW1101MW2455MW3635REMMET101KAMA 231853Z 14012KT 5SM RA BR SCT012 BKN019 OVC036 18/17 A3028 RMK AO2 RAB46 SLP223 P0001 T01780167;EQDQ01+000003PRSWM1Q02    003PRSWM1N01 02170JPWTH 0QNNAA1D0 02012BA1 0 02012AA1D0 04019BA1 0 04019AA1D0 06036BA1 0 06036GA1 0 00019KA1D0 00062JA1 0 00167LA1 0 00500CA1 0 03028NA1 0 02170QA1 0 10223SA1D0 00064RA1 0 00178YA1 0 14012
0198723630230472000102406344+35230-101690FM-16+1099KAMA V0201401N00721000901CN0048281N1+01501+01401999999ADDGD13991+0021019GD24991+0045019GF108991999999999999999999MA1102401999999MW1101REMMET074KAMA 240634Z 14014KT 3SM BR BKN007 OVC015 15/14 A3024 RMK AO2 CIG 003V010;EQDQ01+000003PRSWM1Q02    003PRSWM1
0230723630230472000102905534+35230-101690FM-15+1099KAMA V0202101N009312200019N0160931N1+01001+00601100741ADDAA106000021GF100991999999999999999999KA1999M+01111KA2999N+00941MA1101051999999MD1810071+9999MW1001REMMET101KAMA 290553Z 21018KT 10SM CLR 10/06 A2984 RMK AO2 SLP074 60000 T01000061 10111 20094 402000094 58007;EQDQ01+000000PRSWM2
0203723630230472000102917534+35230-101690FM-15+1099KAMA V0202901N006712200019N0160931N1+01901+00501101081ADDGF100991999999999999999999KA1999M+01891KA2999N+00941MA1101391999999MD1010131+9999MW1001REMMET085KAMA 291753Z 29013KT 10SM CLR 19/05 A2994 RMK AO2 SLP108 T01890050 10189 20094 50013;EQDQ01+000000PRSWM2
0087723630230472000103002009+35217-101700NSRDB+109399999V020999999999999999999999999999+99999+99999999999ADDGM1006000000190000019000001999999GP10060000002000000002000000002000GR100600000900009
0104723630230472000110216009+35217-101700NSRDB+109399999V020999999999999999999999999999+99999+99999999999ADDGM1006003960390885039003103999999GP10060040402008079502015007902008GQ100600659913139GR100600566913909
0203723630230472000110223534+35230-101690FM-15+1099KAMA V0200301N003112200019N0160931N1+01301+00301101631ADDGF100991999999999999999999KA1999M+01891KA2999N+01331MA1101731999999MD1310081+9999MW1001REMMET085KAMA 022353Z 03006KT 10SM CLR 13/03 A3004 RMK AO2 SLP163 T01330028 10189 20133 53008;EQDQ01+000000PRSWM2
0168723630230472000110320454+35230-101690FM-15+1099KAMA V0200801N007210060019N0160931N1+01201+00701999999ADDGD13991+0060019GD24991+0099019GF108991999999999999999999MA1102241999999MW1001REMMET060KAMA 032045Z 08014KT 10SM BKN020 OVC033 12/07 A3019 RMK AO2;EQDQ01+000000PRSWM2
0087723630230472000110510009+35217-101700NSRDB+109399999V020999999999999999999999999999+99999+99999999999ADDGM1006000000190000019000001999999GP10060000002000000002000000002000GR100600000900009
0310723630230472000110717534+35230-101690FM-15+1099KAMA V0200301N007710018019N0008051N1-00301-00401101681ADDAA101000591AA206011491GD13991+0018019GD24991+0036019GF108991999999999999999999KA1999M-00061KA2999N-00331MA1101561999999MD1110141+9999MW1481MW2731REMMET118KAMA 071753Z 03015KT 1/2SM SN FZFG BKN006 OVC012 M03/M04 A2999 RMK AO2 SLP168 60045 P0002 T10331044 11006 21033 51014;EQDQ01+000003PRSWM1Q02    003PRSWM1
0216723630230472000110719404+35230-101690FM-16+1099KAMA V0200301N007210036019N0040231N1-00301-00401999999ADDGD13991+0036019GD24991+0063019GF108991999999999999999999MA1101461999999MW1101MW2711REMMET086KAMA 071940Z 03014KT 1/2SM -SN BR BKN012 OVC021 M03/M04 A2996 RMK AO2 SFC VIS 2 P0001;EQDQ01+000003PRSWM1Q02    003PRSWM1
0222723630230472000110811534+35230-101690FM-15+1099KAMA V0203401N005112200019N0160931N1-00501-00801101781ADDAA124005891GF100991999999999999999999KA1999M-00221KA2999N-00501MA1101561999999MD1810061+9999MW1001REMMET093KAMA 081153Z 34010KT 10SM CLR M05/M08 A2999 RMK AO2 SLP178 70023 T10501078 11022 21050 58006;EQDQ01+000000PRSWM2
033772363023047200011152153C+35217-101700FM-15+1093AMA  V0202605N00885220005MN0160005N1+01565-00225100385ADDAA101000095GF100991999999999999999999MA1100545999999MW1001OC101341REMMET089KAMA 152153Z 26017G26KT 10SM CLR 16/M02 A2969 RMK AO2 PK WND 26032/2132 SLP038 T01561022;EQDQ01+000000PRSWM2N01 00000JPWTH 0QNNAA1D0 00000BA1 0 00000GA1U0 99999KA1D0 00028JA1 0-00022LA1 0 01000CA1 0 02969NA1 0 00000QA1 0 10038SA1D0 00060RA1 0 00156YA1 0 26017
