0071702590265232000050522009+60583-151233NSRDB+002699999V020999999999999999999999999999+99999+99999999999ADDGP10060073901025089501028010101025GQ100600445916929GR100600957913429
0071702590265232000050602009+60583-151233NSRDB+002699999V020999999999999999999999999999+99999+99999999999ADDGP10060042601025052401028014401025GQ100600575924379GR100600721913429
0324702590265232000050707533+60583-151233FM-15+0026ENA  V0200105N00315033535MN0160005N1+00725+00005101325ADDGD14995+0335359GF108991999999999999999999MA1101325999999MW1001REMMET080PAEN 070753Z AUTO 01006KT 10SM OVC110 07/00 A2992 RMK AO2 SLP132 T00720000 TSNO;EQDQ01+000000PRSWM2N01 00000JPWTH 0QNNAA1D0 06110BA1 0 06110GA1 0 00110KA1D0 00032JA1 0 00000LA1 0 01000CA1 0 02992NA1 0 00000QA1 0 10132SA1D0 00045RA1 0 00072YA1 0 01006
0323702590265232000050921533+60583-151233FM-15+0026ENA  V0202905N00465220005MN0160005N1+01065-00065101725ADDGD12995+0182959GF104991999999999999999999MA1101695999999MW1001REMMET079PAEN 092153Z 29009KT 260V330 10SM SCT060 11/M01 A3003 RMK AO2 SLP172 T01061006;EQDQ01+000000PRSWM2N01 00000JPWTH 0QNNAA1D0 02060BA1 0 02060GA1U0 99999KA1D0 00031JA1 0-00006LA1 0 01000CA1 0 03003NA1 0 00000QA1 0 10172SA1D0 00051RA1 0 00106YA1 0 29009
0071702590265232000051600009+60583-151233NSRDB+002699999V020999999999999999999999999999+99999+99999999999ADDGP10060025701025000001028025701025GQ100600444921069GR100600954913369
0145702590265232000052016534+60570-151250FM-15+0029PAEN V0200601N001512200019N0160931N1+00601+00201101121ADDGF100991999999999999999999MA1101121999999MW1001REMMET067PAEN 201653Z 06003KT 10SM CLR 06/02 A2986 RMK AO2 SLP112 T00610017;EQDQ01+000000PRSWM2
0071702590265232000052116009+60583-151233NSRDB+002699999V020999999999999999999999999999+99999+99999999999ADDGP10060009601025004601028008401025GQ100600761907319GR100600321913339
0071702590265232000052215009+60583-151233NSRDB+002699999V020999999999999999999999999999+99999+99999999999ADDGP10060003701025002201028003401025GQ100600826906049GR100600172913329
0071702590265232000052219009+60583-151233NSRDB+002699999V020999999999999999999999999999+99999+99999999999ADDGP10060045601025026601028030101025GQ100600543911329GR100600776913329
0382702590265232000052411533+60583-151233FM-15+0026ENA  V0201705N00625220005MN0160005N1+00335-00115101985ADDAA124000391GF100991999999999999999999KA1999M+00611KA2999N+00221MA1101965999999MD1110091+9999MW1001REMMET102PAEN 241153Z AUTO 17012KT 10SM CLR 03/M01 A3011 RMK AO2 SLP198 70001 T00331011 10061 20022 51009 TSNO;EQDQ01+000000PRSWM2N01 00000JPWTH 0QNNAA1D0 00000BA1 0 00000GA1U0 99999KA1D0 00030JA1 0-00011LA1 0 01000CA1 0 03011NA1 0 00000QA1 0 10198SA1D0 00038RA1 0 00033YA1 0 17012
0324702590265232000052609533+60583-151233FM-15+0026ENA  V0209999C00005220005MN0160005N1+00225+00115101795ADDGD12995+0243859GF104991999999999999999999MA1101765999999MW1001REMMET080PAEN 260953Z AUTO 00000KT 10SM SCT080 02/01 A3005 RMK AO2 SLP179 T00220011 TSNO;EQDQ01+000000PRSWM2N01 00000JPWTH 0QNNAA1D0 02080BA1 0 02080GA1U0 99999KA1D0 00034JA1 0 00011LA1 0 01000CA1 0 03005NA1 0 00000QA1 0 10179SA1D0 00036RA1 0 00022YA1 0 00000
0054702590265232000052709009+60583-151233NSRDB+002699999V020999999999999999999999999999+99999+99999999999ADDGP10060000001000000001000000001000GR100600000900009
0297702590265232000052903533+60583-151233FM-15+0026ENA  V0202505N00465220005MN0160005N1+01445-00065101675ADDGF100991999999999999999999MA1101665999999MW1001REMMET068PAEN 290353Z 25009KT 10SM CLR 14/M01 A3002 RMK AO2 SLP167 T01441006;EQDQ01+000000PRSWM2N01 00000JPWTH 0QNNAA1D0 00000BA1 0 00000GA1U0 99999KA1D0 00031JA1 0-00006LA1 0 01000CA1 0 03002NA1 0 00000QA1 0 10167SA1D0 00058RA1 0 00144YA1 0 25009
0307702590265232000052912533+60583-151233FM-15+0026ENA  V0200705N00155220005MN0160005N1+00175-00065102065ADDGF100991999999999999999999MA1102035999999MW1001REMMET078PAEN 291253Z AUTO 07003KT 10SM CLR 02/M01 A3013 RMK AO2 SLP206 T00171006 TSNO;EQDQ01+000000PRSWM2N01 00000JPWTH 0QNNAA1D0 00000BA1 0 00000GA1U0 99999KA1D0 00031JA1 0-00006LA1 0 01000CA1 0 03013NA1 0 00000QA1 0 10206SA1D0 00035RA1 0 00017YA1 0 07003
0666702590265232000060808596+60580-151239SOD  +0028PAEN V020999999999999999999999999999+99999+99999999999ADDAA124000095KA1240M+01615KA2240N+00675MG1099769999994OE11240143111014345OE22240111811014345OE33240051499999995REMSOD54524 HR PRECIPITATION (IN): 0.00 24 HR MAX TEMP (F): 6124 HR MAX TEMP TIME (LST):1159 24 HR MIN TEMP (F): 4424 HR MIN TEMP TIME (LST):0317 AVERAGE STATION PRESSURE:29.46  PEAK WIND SPEED (MPH): 32 PEAK WIND DIR (DEG):110 PEAK WIND TIME (LST):1434  FASTEST 2MIN SPEED (MPH): 25FASTEST 2MIN DIR (DEG):110 FASTEST 2MIN TIME (LST):1434 AVERAGE WIND SPEED (MPH):11.5 24 HR AVG TEMP (F):53 HOURLY INCREMENTAL PRECIPITATION VALUES (IN):.00  .00  .00  .00  .00  .00  .00  .00  .00  .00  .00  .00  .00  .00  .00  .00  .00  .00  .00  .00  .00  .00  .00  .00
0071702590265232000060921009+60583-151233NSRDB+002699999V020999999999999999999999999999+99999+99999999999ADDGP10060066201025056801028023401025GQ100600411914609GR100600999913259
0438702590265232000061314533+60583-151233FM-15+0026ENA  V0200105N00155039625MN0160005N1+00615+00335100545ADDGD12995+0243859GD23995+0396259GD33995+0457259GF107991999999999999999999MA1100545999999MD1410001+9999MW1001REMMET090PAEN 131453Z 01003KT 10SM SCT080 BKN130 BKN150 06/03 A2969 RMK AO2 SLP054 T00610033 53000;EQDQ01+000032APCTENQ02+000000PRSWM2N01 00000JPWTH 0QNNAA1D0 02080BA1 0 02080AA1D0 04130BA1 0 04130AA1D0 04150BA1 0 04150GA1 0 00130KA1D0 00038JA1 0 00033LA1 0 01000CA1 0 02969NA1 0 00000QA1 0 10054SA1D0 00043RA1 0 00061YA1 0 01003
0397702590265232000061408533+60583-151233FM-15+0026ENA  V0202105N00465019815MN0160005N1+00835+00725100915ADDAA103000391GD13995+0198159GF107991999999999999999999KA1999M+01611KA2999N+00061MA1100885999999MD1110201+9999MW1001REMMET102PAEN 140853Z AUTO 21009KT 10SM BKN065 08/07 A2979 RMK AO2 SLP091 60001 T00830072 401610006 51020 TSNO;EQDQ01+000000PRSWM2N01 00000JPWTH 0QNNAA1D0 04065BA1 0 04065GA1 0 00065KA1D0 00045JA1 0 00072LA1 0 01000CA1 0 02979NA1 0 00000QA1 0 10091SA1D0 00047RA1 0 00083YA1 0 21009
0306702590265232000061809533+60583-151233FM-15+0026ENA  V0202205N00215220005MN0160005N1+00675+00565101115ADDGF100991999999999999999999MA1101085999999MW1001REMMET077PAEN 180953Z AUTO 22004KT 10SM CLR 07/06 A2985 RMK AO2 SLP111 T00670056 TSNO;EQDQ01+000000PRSWM2N01 00000JPWTH 0QNNAA1D0 00000BA1 0 00000GA1U0 99999KA1D0 00042JA1 0 00056LA1 0 01000CA1 0 02985NA1 0 00000QA1 0 10111SA1D0 00044RA1 0 00067YA1 0 22004
0314702590265232000061915533+60583-151233FM-15+0026ENA  V0200805N00465021345MN0160005N1+01115+00335100355ADDGD13995+0213459GF107991999999999999999999MA1100345999999MW1001REMMET070PAEN 191553Z 08009KT 10SM BKN070 11/03 A2963 RMK AO2 SLP035 T01110033;EQDQ01+000000PRSWM2N01 00000JPWTH 0QNNAA1D0 04070BA1 0 04070GA1 0 00070KA1D0 00038JA1 0 00033LA1 0 01000CA1 0 02963NA1 0 00000QA1 0 10035SA1D0 00052RA1 0 00111YA1 0 08009
0071702590265232000062013009+60583-151233NSRDB+002699999V020999999999999999999999999999+99999+99999999999ADDGP10060000001025000001028000001025GQ100600893903669GR100600006904969
0071702590265232000062201009+60583-151233NSRDB+002699999V020999999999999999999999999999+99999+99999999999ADDGP10060067801025067901028019501025GQ100600446922979GR100600940913229
0054702590265232000062612009+60583-151233NSRDB+002699999V020999999999999999999999999999+99999+99999999999ADDGP10060000001000000001000000001000GR100600000900009
0071702590265232000062800009+60583-151233NSRDB+002699999V020999999999999999999999999999+99999+99999999999ADDGP10060037301025012601028027601025GQ100600400920999GR100601012913229
0071702590265232000062915009+60583-151233NSRDB+002699999V020999999999999999999999999999+99999+99999999999ADDGP10060002801025000001028002801025GQ100600810905789GR100600208913219
0314702590265232000070315533+60583-151233FM-15+0026ENA  V0202105N00525003665MN0160005N1+01065+00945102015ADDGD13995+0036659GF107991999999999999999999MA1102005999999MW1001REMMET070PAEN 031553Z 21010KT 10SM BKN012 11/09 A3012 RMK AO2 SLP201 T01060094;EQDQ01+000000PRSWM2N01 00000JPWTH 0QNNAA1D0 04012BA1 0 04012GA1 0 00012KA1D0 00049JA1 0 00094LA1 0 01000CA1 0 03012NA1 0 00000QA1 0 10201SA1D0 00051RA1 0 00106YA1 0 21010
0071702590265232000070323009+60583-151233NSRDB+002699999V020999999999999999999999999999+99999+99999999999ADDGP10060056001025046401028019401025GQ100600380918779GR100601041913219
0372702590265232000070605533+60583-151233FM-15+0026ENA  V0202205N00315220005MN0160005N1+01115+00945101525ADDGD12995+0137259GF104991999999999999999999KA1999M+01441KA2999N+01111MA1101525999999MD1310081+9999MW1001REMMET088PAEN 060553Z 22006KT 10SM SCT045 11/09 A2998 RMK AO2 SLP152 T01110094 10144 20111 53008;EQDQ01+000000PRSWM2N01 00000JPWTH 0QNNAA1D0 02045BA1 0 02045GA1U0 99999KA1D0 00049JA1 0 00094LA1 0 01000CA1 0 02998NA1 0 00000QA1 0 10152SA1D0 00052RA1 0 00111YA1 0 22006
0362702590265232000070608533+60583-151233FM-15+0026ENA  V0202005N00415220005MN0160005N1+01005+00945101545ADDGF100991999999999999999999KA1999M+01501KA2999N+00941MA1101525999999MD1010021+9999MW1001REMMET093PAEN 060853Z AUTO 20008KT 10SM CLR 10/09 A2998 RMK AO2 SLP154 T01000094 401500094 50002 TSNO;EQDQ01+000000PRSWM2N01 00000JPWTH 0QNNAA1D0 00000BA1 0 00000GA1U0 99999KA1D0 00049JA1 0 00094LA1 0 01000CA1 0 02998NA1 0 00000QA1 0 10154SA1D0 00050RA1 0 00100YA1 0 20008
0071702590265232000070700009+60583-151233NSRDB+002699999V020999999999999999999999999999+99999+99999999999ADDGP10060029201025009001028022301025GQ100600406920919GR100601003913219
0402702590265232000070800533+60583-151233FM-15+0026ENA  V0202205N00575027435MN0160005N1+01285+01005101525ADDGD12995+0024459GD22995+0091459GD33995+0274359GF107991999999999999999999MA1101525999999MW1001REMMET084PAEN 080053Z 22011KT 10SM SCT008 SCT030 BKN090 13/10 A2998 RMK AO2 SLP152 T01280100;EQDQ01+000000PRSWM2N01 00000JPWTH 0QNNAA1D0 02008BA1 0 02008AA1D0 02030BA1 0 02030AA1D0 04090BA1 0 04090GA1 0 00090KA1D0 00050JA1 0 00100LA1 0 01000CA1 0 02998NA1 0 00000QA1 0 10152SA1D0 00055RA1 0 00128YA1 0 22011
0071702590265232000071102009+60583-151233NSRDB+002699999V020999999999999999999999999999+99999+99999999999ADDGP10060017201025000001028017201025GQ100600517924469GR100600819913229
0358702590265232000071119533+60583-151233FM-15+0026ENA  V0202005N00365027435MN0160005N1+01615+01115101645ADDGD11995+0106759GD23995+0274359GF107991999999999999999999MA1101635999999MW1001REMMET077PAEN 111953Z 20007KT 10SM FEW035 BKN090 16/11 A3001 RMK AO2 SLP164 T01610111;EQDQ01+000000PRSWM2N01 00000JPWTH 0QNNAA1D0 02035BA1 0 01035AA1D0 04090BA1 0 04090GA1 0 00090KA1D0 00052JA1 0 00111LA1 0 01000CA1 0 03001NA1 0 00000QA1 0 10164SA1D0 00061RA1 0 00161YA1 0 20007
0372702590265232000071223533+60583-151233FM-15+0026ENA  V0202105N00525220005MN0160005N1+01835+01225100995ADDGD12995+0167659GF104991999999999999999999KA1999M+01891KA2999N+01391MA1100985999999MD1810091+9999MW1001REMMET088PAEN 122353Z 21010KT 10SM SCT055 18/12 A2982 RMK AO2 SLP099 T01830122 10189 20139 58009;EQDQ01+000000PRSWM2N01 00000JPWTH 0QNNAA1D0 02055BA1 0 02055GA1U0 99999KA1D0 00054JA1 0 00122LA1 0 01000CA1 0 02982NA1 0 00000QA1 0 10099SA1D0 00065RA1 0 00183YA1 0 21010
0467702590265232000071706533+60583-151233FM-15+0026ENA  V0201305N00365007015MN0040005N1+01115+01065101175ADDAA101001891GD13995+0070159GD23995+0088459GD34995+0118959GF108991999999999999999999MA1101155999999MW1101MW2455MW3615REMMET110PAEN 170653Z AUTO 13007KT 2 1/2SM -RA BR BKN023 BKN029 OVC039 11/11 A2987 RMK AO2 SLP117 P0007 T01110106 TSNO;EQDQ01+000003PRSWM1Q02    003PRSWM1N01 02070JPWTH 0QNNAA1D0 04023BA1 0 04023AA1D0 04029BA1 0 04029AA1D0 06039BA1 0 06039GA1 0 00023KA1D0 00051JA1 0 00106LA1 0 00250CA1 0 02987NA1 0 02070QA1 0 10117SA1D0 00052RA1 0 00111YA1 0 13007
0071702590265232000071819009+60583-151233NSRDB+002699999V020999999999999999999999999999+99999+99999999999ADDGP10060057201025081801028010501025GQ100600551911079GR100600755913239
0207702590265232000072314354+60570-151250FM-16+0029PAEN V0201901N004610111019N0160931N1+01101+01001999999ADDGD12991+0036019GD23991+0111019GD34991+0135019GF108991999999999999999999MA1101251999999MW1001REMMET084PAEN 231435Z 19009KT 10SM SCT012 BKN037 OVC045 11/10 A2990 RMK AO2 RAB1354E18 P0001;EQDQ01+000000PRSWM2
0071702590265232000072404009+60583-151233NSRDB+002699999V020999999999999999999999999999+99999+99999999999ADDGP10060009901025005301028007901025GQ100600677927129GR100600501913249
0324702590265232000072509533+60583-151233FM-15+0026ENA  V0201405N00155022865MN0160005N1+00945+00835101165ADDGD13995+0228659GF107991999999999999999999MA1101155999999MW1001REMMET080PAEN 250953Z AUTO 14003KT 10SM BKN075 09/08 A2987 RMK AO2 SLP116 T00940083 TSNO;EQDQ01+000000PRSWM2N01 00000JPWTH 0QNNAA1D0 04075BA1 0 04075GA1 0 00075KA1D0 00047JA1 0 00083LA1 0 01000CA1 0 02987NA1 0 00000QA1 0 10116SA1D0 00049RA1 0 00094YA1 0 14003
0071702590265232000072922009+60583-151233NSRDB+002699999V020999999999999999999999999999+99999+99999999999ADDGP10060022501025000001028022501025GQ100600428916559GR100600972913259
0071702590265232000073004009+60583-151233NSRDB+002699999V020999999999999999999999999999+99999+99999999999ADDGP10060009901025000001028009901025GQ100600689927049GR100600477913259
0071702590265232000080100009+60583-151233NSRDB+002699999V020999999999999999999999999999+99999+99999999999ADDGP10060026901025000001028026901025GQ100600449920699GR100600939913269
0439702590265232000080400003+60583-151233FM-15+0026ENA  V0202305N00575010675MN0160005N1+01335+01115101765ADDGD12995+0064059GD23995+0106759GD33995+0304859GF107991999999999999999999GP10060044101025005201028040501025GQ100600457920689GR100600927913279MA1101765999999MW1001REMMET053PAEN 040000Z 22011KT 10SM BKN021 14/11 A3005 RMK AO2;EQDQ01+000000PRSWM2N01 00000JPWTH 0QNNAA1D0 02021BA1 0 02021AA1D0 04035BA1 0 04035AA1D0 04100BA1 0 04100GA1 0 00035KA1D0 00052JA1 0 00111LA1 0 01000CA1 0 03005NA1 0 00000QA1 0 10176SA1D0 00056RA1 0 00133YA1 0 23011
0071702590265232000080414009+60583-151233NSRDB+002699999V020999999999999999999999999999+99999+99999999999ADDGP10060000001025000001028000001025GQ100600897905289GR100600001901449
0296702590265232000080600533+60583-151233FM-15+0026ENA  V0202205N00465220005MN0160005N1+01445+00945102225ADDGF100991999999999999999999MA1102205999999MW1001REMMET067PAEN 060053Z 22009KT 10SM CLR 14/09 A3018 RMK AO2 SLP222 T01440094;EQDQ01+000000PRSWM2N01 00000JPWTH 0QNNAA1D0 00000BA1 0 00000GA1U0 99999KA1D0 00049JA1 0 00094LA1 0 01000CA1 0 03018NA1 0 00000QA1 0 10222SA1D0 00058RA1 0 00144YA1 0 22009
0316702590265232000080614533+60583-151233FM-15+0026ENA  V0209999C00005220005MN0160005N1+00285+00225102085ADDGF100991999999999999999999MA1102075999999MD1310031+9999MW1001REMMET073PAEN 061453Z 00000KT 10SM CLR 03/02 A3014 RMK AO2 SLP208 T00280022 53003;EQDQ01+000000PRSWM2N01 00000JPWTH 0QNNAA1D0 00000BA1 0 00000GA1U0 99999KA1D0 00036JA1 0 00022LA1 0 01000CA1 0 03014NA1 0 00000QA1 0 10208SA1D0 00037RA1 0 00028YA1 0 00000
0071702590265232000080701009+60583-151233NSRDB+002699999V020999999999999999999999999999+99999+99999999999ADDGP10060044201025040601028018601025GQ100600508922499GR100600839913289
0685702590265232000080708596+60580-151239SOD  +0028PAEN V020999999999999999999999999999+99999+99999999999ADDAA124000096KA1240M+01945KA2240N+00225MG1101599999994OE11240089405014215OE22240058130016275OE33240020699999995REMSOD54524 HR PRECIPITATION (IN): 0.00 24 HR MAX TEMP (F): 6724 HR MAX TEMP TIME (LST):1529 24 HR MIN TEMP (F): 3624 HR MIN TEMP TIME (LST):0602 AVERAGE STATION PRESSURE:30.00  PEAK WIND SPEED (MPH): 20 PEAK WIND DIR (DEG):050 PEAK WIND TIME (LST):1421  FASTEST 2MIN SPEED (MPH): 13FASTEST 2MIN DIR (DEG):300 FASTEST 2MIN TIME (LST):1627 AVERAGE WIND SPEED (MPH): 4.6 24 HR AVG TEMP (F):52 HOURLY INCREMENTAL PRECIPITATION VALUES (IN):.00  .00  .00  .00  .00  .00  .00  .00  .00  .00  .00  .00  .00  .00  .00  .00  .00  .00  .00  .00  .00  .00  .00  .00EQDR01  0.007AAP092
0296702590265232000080810533+60583-151233FM-15+0026ENA  V0209999C00005220005MN0160005N1+00945+00785101995ADDGF100991999999999999999999MA1101965999999MW1001REMMET067PAEN 081053Z 00000KT 10SM CLR 09/08 A3011 RMK AO2 SLP199 T00940078;EQDQ01+000000PRSWM2N01 00000JPWTH 0QNNAA1D0 00000BA1 0 00000GA1U0 99999KA1D0 00046JA1 0 00078LA1 0 01000CA1 0 03011NA1 0 00000QA1 0 10199SA1D0 00049RA1 0 00094YA1 0 00000
0316702590265232000080820533+60583-151233FM-15+0026ENA  V0202405N00365220005MN0160005N1+01785+00785102275ADDGF100991999999999999999999MA1102275999999MD1310021+9999MW1001REMMET073PAEN 082053Z 24007KT 10SM CLR 18/08 A3020 RMK AO2 SLP227 T01780078 53002;EQDQ01+000000PRSWM2N01 00000JPWTH 0QNNAA1D0 00000BA1 0 00000GA1U0 99999KA1D0 00046JA1 0 00078LA1 0 01000CA1 0 03020NA1 0 00000QA1 0 10227SA1D0 00064RA1 0 00178YA1 0 24007
0071702590265232000081117009+60583-151233NSRDB+002699999V020999999999999999999999999999+99999+99999999999ADDGP10060020101025053801028005701025GQ100600744908689GR100600357913309
0146702590265232000081209444+60570-151250FM-16+0029PAEN V0201001N001512200019N0048281N1+00801+00701999999ADDGF100991999999999999999999MA1102401999999MW1101REMMET052PAEN 120944Z 10003KT 3SM BR CLR 08/07 A3024 RMK AO2;EQDQ01+000003PRSWM1Q02    003PRSWM1
0054702590265232000081212009+60583-151233NSRDB+002699999V020999999999999999999999999999+99999+99999999999ADDGP10060000001000000001000000001000GR100600000900009
0071702590265232000081616009+60583-151233NSRDB+002699999V020999999999999999999999999999+99999+99999999999ADDGP10060007101025025701028003801025GQ100600828907499GR100600166913339
0071702590265232000081702009+60583-151233NSRDB+002699999V020999999999999999999999999999+99999+99999999999ADDGP10060046601025071301028010501025GQ100600596924019GR100600675913339
0054702590265232000081913009+60583-151233NSRDB+002699999V020999999999999999999999999999+99999+99999999999ADDGP10060000001000000001000000001000GR100600000900009
0071702590265232000081915009+60583-151233NSRDB+002699999V020999999999999999999999999999+99999+99999999999ADDGP10060000301025001801028000201025GQ100600885906599GR100600017906569
0071702590265232000081920009+60583-151233NSRDB+002699999V020999999999999999999999999999+99999+99999999999ADDGP10060030101025012701028023101025GQ100600561913159GR100600743913349
0071702590265232000082418009+60583-151233NSRDB+002699999V020999999999999999999999999999+99999+99999999999ADDGP10060007701025000001028007701025GQ100600704910299GR100600447913379
0071702590265232000082422009+60583-151233NSRDB+002699999V020999999999999999999999999999+99999+99999999999ADDGP10060033801025003801028031401025GQ100600504916829GR100600853913379
0382702590265232000082718533+60583-151233FM-15+0026ENA  V0200105N00215002135MN0048005N1+00945+00895101175ADDGD13995+0021359GD24995+0036659GF108991999999999999999999MA1101155999999MW1101MW2455REMMET079PAEN 271853Z 01004KT 3SM BR BKN007 OVC012 09/09 A2987 RMK AO2 SLP117 T00940089;EQDQ01+000003PRSWM1Q02    003PRSWM1N01 00070JPWTH 0QNNAA1D0 04007BA1 0 04007AA1D0 06012BA1 0 06012GA1 0 00007KA1D0 00048JA1 0 00089LA1 0 00300CA1 0 02987NA1 0 00070QA1 0 10117SA1D0 00049RA1 0 00094YA1 0 01004
0335702590265232000082815533+60583-151233FM-15+0026ENA  V0209999C00005011585MN0160005N1+00895+00895101665ADDGD13995+0115859GF107991999999999999999999MA1101635999999MW1415REMMET075PAEN 281553Z 00000KT 10SM BCFG BKN038 09/09 A3001 RMK AO2 SLP166 T00890089;EQDQ01+000003PRSWM1Q02    003PRSWM1N01 00096JPWTH 0QNNAA1D0 04038BA1 0 04038GA1 0 00038KA1D0 00048JA1 0 00089LA1 0 01000CA1 0 03001NA1 0 00096QA1 0 10166SA1D0 00048RA1 0 00089YA1 0 00000
0071702590265232000082906009+60583-151233NSRDB+002699999V020999999999999999999999999999+99999+99999999999ADDGP10060000101025003901028000101025GQ100600891928829GR100600006903919
0071702590265232000090618009+60583-151233NSRDB+002699999V020999999999999999999999999999+99999+99999999999ADDGP10060012201025003501028011301025GQ100600741910629GR100600369913469
0215702590265232000090620414+60570-151250FM-16+0029PAEN V0209999C000010096019N0144841N1+00901+00701999999ADDGD12991+0048019GD22991+0063019GD34991+0096019GF108991999999999999999999MA1099191999999MW1611REMMET076PAEN 062041Z 00000KT 9SM -RA SCT016 SCT021 OVC032 09/07 A2929 RMK AO2 P0009;EQDQ01+000003PRSWM1Q02    003PRSWM1
0071702590265232000090705009+60583-151233NSRDB+002699999V020999999999999999999999999999+99999+99999999999ADDGP10060001501025006801028001101025GQ100600872927789GR100600054911339
0318702590265232000090914533+60583-151233FM-15+0026ENA  V0209999C00005220005MN0160005N1-00115-00285100375ADDGF100991999999999999999999MA1100345999999MD1810051+9999MW1001REMMET075PAEN 091453Z 00000KT 10SM CLR M01/M03 A2963 RMK AO2 SLP037 T10111028 58005;EQDQ01+000000PRSWM2N01 00000JPWTH 0QNNAA1D0 00000BA1 0 00000GA1U0 99999KA1D0 00027JA1 0-00028LA1 0 01000CA1 0 02963NA1 0 00000QA1 0 10037SA1D0 00030RA1 0-00011YA1 0 00000
0071702590265232000090919009+60583-151233NSRDB+002699999V020999999999999999999999999999+99999+99999999999ADDGP10060033701025078401028004701025GQ100600683912119GR100600499913489
0054702590265232000091109009+60583-151233NSRDB+002699999V020999999999999999999999999999+99999+99999999999ADDGP10060000001000000001000000001000GR100600000900009
0445702590265232000091322533+60583-151233FM-15+0026ENA  V0200305N00885014635MN0160005N1+00785+00615100021ADDAA101000021GD11995+0121959GD23995+0146359GD33995+0198159GF107991999999999999999999MA1100005999999MW1615OC101231REMMET103PAEN 132253Z 03017G24KT 10SM -RA FEW040 BKN048 BKN065 08/06 A2953 RMK AO2 RAB52 SLP002 P0000 T00780061;EQDQ01+000003PRSWM1Q02    003PRSWM1N01 00020JPWTH 0QNNAA1D0 02040BA1 0 01040AA1D0 04048BA1 0 04048AA1D0 04065BA1 0 04065GA1 0 00048KA1D0 00043JA1 0 00061LA1 0 01000CA1 0 02953NA1 0 00020SA1D0 00046RA1 0 00078YA1 0 03017
0296702590265232000091500533+60583-151233FM-15+0026ENA  V0202205N00365220005MN0160005N1+01285+00615100255ADDGF100991999999999999999999MA1100245999999MW1001REMMET067PAEN 150053Z 22007KT 10SM CLR 13/06 A2960 RMK AO2 SLP025 T01280061;EQDQ01+000000PRSWM2N01 00000JPWTH 0QNNAA1D0 00000BA1 0 00000GA1U0 99999KA1D0 00043JA1 0 00061LA1 0 01000CA1 0 02960NA1 0 00000QA1 0 10025SA1D0 00055RA1 0 00128YA1 0 22007
0296702590265232000092000533+60583-151233FM-15+0026ENA  V0203605N00215220005MN0160005N1+01285+00335102355ADDGF100991999999999999999999MA1102345999999MW1001REMMET067PAEN 200053Z 36004KT 10SM CLR 13/03 A3022 RMK AO2 SLP235 T01280033;EQDQ01+000000PRSWM2N01 00000JPWTH 0QNNAA1D0 00000BA1 0 00000GA1U0 99999KA1D0 00038JA1 0 00033LA1 0 01000CA1 0 03022NA1 0 00000QA1 0 10235SA1D0 00055RA1 0 00128YA1 0 36004
0054702590265232000092006009+60583-151233NSRDB+002699999V020999999999999999999999999999+99999+99999999999ADDGP10060000001000000001000000001000GR100600000900009
0314702590265232000092101533+60583-151233FM-15+0026ENA  V0200105N00415015245MN0160005N1+01005+00675102435ADDGD14995+0152459GF108991999999999999999999MA1102405999999MW1001REMMET070PAEN 210153Z 01008KT 10SM OVC050 10/07 A3024 RMK AO2 SLP243 T01000067;EQDQ01+000000PRSWM2N01 00000JPWTH 0QNNAA1D0 06050BA1 0 06050GA1 0 00050KA1D0 00044JA1 0 00067LA1 0 01000CA1 0 03024NA1 0 00000QA1 0 10243SA1D0 00050RA1 0 00100YA1 0 01008
0071702590265232000100200009+60583-151233NSRDB+002699999V020999999999999999999999999999+99999+99999999999ADDGP10060028701025037401028014001025GQ100600669920619GR100600536913659
0071702590265232000100201009+60583-151233NSRDB+002699999V020999999999999999999999999999+99999+99999999999ADDGP10060012001025000001028012001025GQ100600710922159GR100600445913659
0071702590265232000101322009+60583-151233NSRDB+002699999V020999999999999999999999999999+99999+99999999999ADDGP10060031101025062801028008501025GQ100600689917449GR100600495913749
0500702590265232000101417533+60583-151233FM-15+0026ENA  V0200405N00465028965MN0160005N1+00445+00285098555ADDAA101000391AA206000391GD11995+0167659GD22995+0213459GD33995+0289659GF107991999999999999999999KA1999M+00611KA2999N+00441MA1098545999999MD1810071+9999MW1001REMMET120PAEN 141753Z 04009KT 10SM FEW055 SCT070 BKN095 04/03 A2910 RMK AO2 RAE21 SLP855 P0001 60001 T00440028 10061 20044 58007;EQDQ01+000000PRSWM2N01 00000JPWTH 0QNNAA1D0 02055BA1 0 01055AA1D0 02070BA1 0 02070AA1D0 04095BA1 0 04095GA1 0 00095KA1D0 00037JA1 0 00028LA1 0 01000CA1 0 02910NA1 0 00000QA1 0 09855SA1D0 00040RA1 0 00044YA1 0 04009
0071702590265232000101617009+60583-151233NSRDB+002699999V020999999999999999999999999999+99999+99999999999ADDGP10060000001025000101028000001025GQ100600896910889GR100600001901729
0296702590265232000101703533+60583-151233FM-15+0026ENA  V0200305N00365220005MN0160005N1+00395+00005099245ADDGF100991999999999999999999MA1099225999999MW1001REMMET067PAEN 170353Z 03007KT 10SM CLR 04/00 A2930 RMK AO2 SLP924 T00390000;EQDQ01+000000PRSWM2N01 00000JPWTH 0QNNAA1D0 00000BA1 0 00000GA1U0 99999KA1D0 00032JA1 0 00000LA1 0 01000CA1 0 02930NA1 0 00000QA1 0 09924SA1D0 00039RA1 0 00039YA1 0 03007
0417702590265232000101711533+60583-151233FM-15+0026ENA  V0200205N00315021345MN0160005N1+00115-00065099475ADDAA106000021AA224000391GD13995+0213459GF107991999999999999999999KA1999M+00611KA2999N+00111MA1099465999999MD1310111+9999MW1001REMMET111PAEN 171153Z AUTO 02006KT 10SM BKN070 01/M01 A2937 RMK AO2 SLP947 60000 70001 T00111006 10061 20011 53011 TSNO;EQDQ01+000000PRSWM2N01 00000JPWTH 0QNNAA1D0 04070BA1 0 04070GA1 0 00070KA1D0 00031JA1 0-00006LA1 0 01000CA1 0 02937NA1 0 00000QA1 0 09947SA1D0 00034RA1 0 00011YA1 0 02006
0071702590265232000101917009+60583-151233NSRDB+002699999V020999999999999999999999999999+99999+99999999999ADDGP10060000001000000001000000001000GQ100600900911029GR100600000900119
0054702590265232000102405009+60583-151233NSRDB+002699999V020999999999999999999999999999+99999+99999999999ADDGP10060000001000000001000000001000GR100600000900009
0071702590265232000102800009+60583-151233NSRDB+002699999V020999999999999999999999999999+99999+99999999999ADDGP10060019901025071501028003101025GQ100600765920539GR100600324913859
0071702590265232000102902009+60583-151233NSRDB+002699999V020999999999999999999999999999+99999+99999999999ADDGP10060004901025009301028004201025GQ100600859923339GR100600099913869
0054702590265232000102910009+60583-151233NSRDB+002699999V020999999999999999999999999999+99999+99999999999ADDGP10060000001000000001000000001000GR100600000900009
0440702590265232000102919533+60583-151233FM-15+0026ENA  V0200405N00525012505MN0080005N1-00285-00565101065ADDAA101000021GD11995+0103659GD23995+0125059GD34995+0182959GF108991999999999999999999MA1101055999999MW1715REMMET095PAEN 291953Z 04010KT 5SM -SN FEW034 BKN041 OVC060 M03/M06 A2984 RMK AO2 SLP106 P0000 T10281056;EQDQ01+000003PRSWM1Q02    003PRSWM1N01 00040JPWTH 0QNNAA1D0 02034BA1 0 01034AA1D0 04041BA1 0 04041AA1D0 06060BA1 0 06060GA1 0 00041KA1D0 00022JA1 0-00056LA1 0 00500CA1 0 02984NA1 0 00040QA1 0 10106SA1D0 00027RA1 0-00028YA1 0 04010
0071702590265232000103102009+60583-151233NSRDB+002699999V020999999999999999999999999999+99999+99999999999ADDGP10060000901025000001028000901025GQ100600865923309GR100600085913889
0316702590265232000110316533+60583-151233FM-15+0026ENA  V0200405N00265220005MN0160005N1-00895-00945100965ADDGD12995+0243859GF104991999999999999999999MA1100955999999MW1001REMMET072PAEN 031653Z 04005KT 10SM SCT080 M09/M09 A2981 RMK AO2 SLP096 T10891094;EQDQ01+000000PRSWM2N01 00000JPWTH 0QNNAA1D0 02080BA1 0 02080GA1U0 99999KA1D0 00015JA1 0-00094LA1 0 01000CA1 0 02981NA1 0 00000QA1 0 10096SA1D0 00016RA1 0-00089YA1 0 04005
0375702590265232000110403533+60583-151233FM-15+0026ENA  V0200405N00365220005MN9999999N1-00505-00505101825ADDGD12995+0003059GF104991999999999999999999MA1101795999999MW1455MW2481REMMET077PAEN 040353Z 04007KT 10SM FZFG SCT001 M05/M05 A3006 RMK AO2 SLP182 T10501050;EQDQ01+160932VODIS Q02+000003PRSWM1Q03    003PRSWM1N01 01000DHZVS 3N02 00071JPWTH 0QNNAA1D0 02001BA1 0 02001GA1U0 99999KA1D0 00023JA1 0-00050LA1 3 01000CA1 0 03006NA1 0 00071QA1 0 10182SA1D0 00023RA1 0-00050YA1 0 04007
0054702590265232000110408009+60583-151233NSRDB+002699999V020999999999999999999999999999+99999+99999999999ADDGP10060000001000000001000000001000GR100600000900009
0054702590265232000110417009+60583-151233NSRDB+002699999V020999999999999999999999999999+99999+99999999999ADDGP10060000001000000001000000001000GR100600000900009
0316702590265232000110419533+60583-151233FM-15+0026ENA  V0200305N00415042675MN0160005N1-00565-00785101125ADDGD14995+0426759GF108991999999999999999999MA1101085999999MW1001REMMET072PAEN 041953Z 03008KT 10SM OVC140 M06/M08 A2985 RMK AO2 SLP112 T10561078;EQDQ01+000000PRSWM2N01 00000JPWTH 0QNNAA1D0 06140BA1 0 06140GA1 0 00140KA1D0 00018JA1 0-00078LA1 0 01000CA1 0 02985NA1 0 00000QA1 0 10112SA1D0 00022RA1 0-00056YA1 0 03008
0071702590265232000110901009+60583-151233NSRDB+002699999V020999999999999999999999999999+99999+99999999999ADDGP10060003101025000001028003101025GQ100600839921859GR100600149913949
0414702590265232000110915533+60583-151233FM-15+0026ENA  V0200605N00155220005MN0160005N1-00225-00285102515ADDGD11995+0021359GD22995+0289659GD32995+0365859GF104991999999999999999999MA1102475999999MW1001REMMET096PAEN 091553Z AUTO 06003KT 10SM FEW007 SCT095 SCT120 M02/M03 A3026 RMK AO2 SLP251 T10221028 TSNO;EQDQ01+000000PRSWM2N01 00000JPWTH 0QNNAA1D0 02007BA1 0 01007AA1D0 02095BA1 0 02095AA1D0 02120BA1 0 02120GA1U0 99999KA1D0 00027JA1 0-00028LA1 0 01000CA1 0 03026NA1 0 00000QA1 0 10251SA1D0 00028RA1 0-00022YA1 0 06003
0373702590265232000111214533+60583-151233FM-15+0026ENA  V0200505N00265000305MN0004005N1-00175-00175101265ADDGD15995+0003059GF109991999999000251999999MA1101255999999MD1110161+9999MW1455MW2491REMMET093PAEN 121453Z AUTO 05005KT 1/4SM FZFG VV001 M02/M02 A2990 RMK AO2 SLP126 T10171017 51016 TSNO;EQDQ01+000003PRSWM1Q02    003PRSWM1N01 00071JPWTH 0QNNAA1D0 07001BA1 0 07001GA1 0 00001KA1D0 00029JA1 0-00017LA1 0 00025CA1 0 02990NA1 0 00071QA1 0 10126SA1D0 00029RA1 0-00017YA1 0 05005
0354702590265232000111423533+60583-151233FM-15+0026ENA  V0201705N00465220005MN0160005N1+00395+00115100945ADDGF100991999999999999999999KA1999M+00391KA2999N+00061MA1100915999999MD1110131+9999MW1001REMMET085PAEN 142353Z 17009KT 10SM CLR 04/01 A2980 RMK AO2 SLP094 T00390011 10039 20006 51013;EQDQ01+000000PRSWM2N01 00000JPWTH 0QNNAA1D0 00000BA1 0 00000GA1U0 99999KA1D0 00034JA1 0 00011LA1 0 01000CA1 0 02980NA1 0 00000QA1 0 10094SA1D0 00039RA1 0 00039YA1 0 17009
0433702590265232000112003003+60583-151233FM-15+0026ENA  V0203505N00155010975MN0160005N1+00225+00225100675ADDAA101000021GD12995+0064059GD24995+0109759GF108991999999999999999999GP10060000001000000001000000001000GR100600000900009MA1100645999999MW1615REMMET074PAEN 200300Z 35004KT 10SM BKN005 OVC042 02/02 A2972 RMK AO2 RAE0255 P0000;EQDQ01+000000PRSWM2Q02    003PRSWM1N01 00020JPWTH 0QNNAA1D0 02021BA1 0 02021AA1D0 06036BA1 0 06036GA1 0 00036KA1D0 00036JA1 0 00022LA1 0 01000CA1 0 02972NA1 0 00020QA1 0 10067SA1D0 00036RA1 0 00022YA1 0 35003
0054702590265232000112413009+60583-151233NSRDB+002699999V020999999999999999999999999999+99999+99999999999ADDGP10060000001000000001000000001000GR100600000900009
0054702590265232000112610009+60583-151233NSRDB+002699999V020999999999999999999999999999+99999+99999999999ADDGP10060000001000000001000000001000GR100600000900009
0071702590265232000112619009+60583-151233NSRDB+002699999V020999999999999999999999999999+99999+99999999999ADDGP10060000201025003101028000101025GQ100600892913809GR100600007905039
0326702590265232000112706533+60583-151233FM-15+0026ENA  V0200405N00215016765MN0160005N1-00505-00675099945ADDGD14995+0167659GF108991999999999999999999MA1099905999999MW1001REMMET082PAEN 270653Z AUTO 04004KT 10SM OVC055 M05/M07 A2950 RMK AO2 SLP994 T10501067 TSNO;EQDQ01+000000PRSWM2N01 00000JPWTH 0QNNAA1D0 06055BA1 0 06055GA1 0 00055KA1D0 00020JA1 0-00067LA1 0 01000CA1 0 02950NA1 0 00000QA1 0 09994SA1D0 00023RA1 0-00050YA1 0 04004
0326702590265232000120415533+60583-151233FM-15+0026ENA  V0200405N00365220005MN0160005N1-00445-00675101105ADDGD11995+0243859GF102991999999999999999999MA1101085999999MW1001REMMET082PAEN 041553Z AUTO 04007KT 10SM FEW080 M04/M07 A2985 RMK AO2 SLP110 T10441067 TSNO;EQDQ01+000000PRSWM2N01 00000JPWTH 0QNNAA1D0 02080BA1 0 01080GA1U0 99999KA1D0 00020JA1 0-00067LA1 0 01000CA1 0 02985NA1 0 00000QA1 0 10110SA1D0 00024RA1 0-00044YA1 0 04007
0377702590265232000120601533+60583-151233FM-15+0026ENA  V0202105N00625002445MN0160005N1+00175+00175099595ADDGD13995+0024459GD24995+0274359GF108991999999999999999999MA1099565999999MW1001REMMET096PAEN 060153Z 21012KT 10SM BKN008 OVC090 02/02 A2940 RMK AO2 CIG 006V011 PRESRR SLP959 T00170017;EQDQ01+000000PRSWM2N01 00000JPWTH 0QNNAA1D0 04008BA1 0 04008AA1D0 06090BA1 0 06090GA1 0 00008KA1D0 00035JA1 0 00017LA1 0 01000CA1 0 02940NA1 0 00000QA1 0 09959SA1D0 00035RA1 0 00017YA1 0 21012
0381702590265232000121609533+60583-151233FM-15+0026ENA  V0200405N00775027435MN0160005N1-00445-00895099825ADDGD11995+0243859GD24995+0274359GF108991999999999999999999MA1099805999999MW1001OC101031REMMET092PAEN 160953Z AUTO 04015G20KT 10SM FEW080 OVC090 M04/M09 A2947 RMK AO2 SLP982 T10441089 TSNO;EQDQ01+000000PRSWM2N01 00000JPWTH 0QNNAA1D0 02080BA1 0 01080AA1D0 06090BA1 0 06090GA1 0 00090KA1D0 00016JA1 0-00089LA1 0 01000CA1 0 02947NA1 0 00000QA1 0 09982SA1D0 00024RA1 0-00044YA1 0 04015
0316702590265232000121618533+60583-151233FM-15+0026ENA  V0200605N00315030485MN0160005N1-00615-01005099485ADDGD14995+0304859GF108991999999999999999999MA1099465999999MW1001REMMET072PAEN 161853Z 06006KT 10SM OVC100 M06/M10 A2937 RMK AO2 SLP948 T10611100;EQDQ01+000000PRSWM2N01 00000JPWTH 0QNNAA1D0 06100BA1 0 06100GA1 0 00100KA1D0 00014JA1 0-00100LA1 0 01000CA1 0 02937NA1 0 00000QA1 0 09948SA1D0 00021RA1 0-00061YA1 0 06006
0362702590265232000121809533+60583-151233FM-15+0026ENA  V0200505N00575002445MN0064005N1-00225-00285099345ADDGD14995+0024459GF108991999999999999999999MA1099325999999MW1101MW2455REMMET096PAEN 180953Z AUTO 05011KT 4SM BR OVC008 M02/M03 A2933 RMK AO2 CIG 005V010 SLP934 T10221028 TSNO;EQDQ01+000003PRSWM1Q02    003PRSWM1N01 00070JPWTH 0QNNAA1D0 06008BA1 0 06008GA1 0 00008KA1D0 00027JA1 0-00028LA1 0 00400CA1 0 02933NA1 0 00070QA1 0 09934SA1D0 00028RA1 0-00022YA1 0 05011
0054702590265232000122108009+60583-151233NSRDB+002699999V020999999999999999999999999999+99999+99999999999ADDGP10060000001000000001000000001000GR100600000900009
0308702590265232000122312533+60583-151233FM-15+0026ENA  V0200305N00525220005MN0160005N1-00395-00785100685ADDGF100991999999999999999999MA1100645999999MW1001REMMET079PAEN 231253Z AUTO 03010KT 10SM CLR M04/M08 A2972 RMK AO2 SLP068 T10391078 TSNO;EQDQ01+000000PRSWM2N01 00000JPWTH 0QNNAA1D0 00000BA1 0 00000GA1U0 99999KA1D0 00018JA1 0-00078LA1 0 01000CA1 0 02972NA1 0 00000QA1 0 10068SA1D0 00025RA1 0-00039YA1 0 03010
0335702590265232000122602533+60583-151233FM-15+0026ENA  V0200205N00625018295MN0160005N1+00175-00675098415ADDGD14995+0182959GF108991999999999999999999MA1098415999999MD1310061+9999MW1001REMMET077PAEN 260253Z 02012KT 10SM OVC060 02/M07 A2906 RMK AO2 SLP841 T00171067 53006;EQDQ01+000000PRSWM2N01 00000JPWTH 0QNNAA1D0 06060BA1 0 06060GA1 0 00060KA1D0 00020JA1 0-00067LA1 0 01000CA1 0 02906NA1 0 00000QA1 0 09841SA1D0 00035RA1 0 00017YA1 0 02012
0390702590265232000123111533+60583-151233FM-15+0026ENA  V0203105N00365028965MN0160005N1+00115-00065098745ADDAA124000391GD14995+0289659GF108991999999999999999999KA1999M+00221KA2999N+00001MA1098715999999MD1210091+9999MW1001REMMET095PAEN 311153Z 31007KT 10SM OVC095 01/M01 A2915 RMK AO2 SLP874 70001 T00111006 10022 20000 52009;EQDQ01+000000PRSWM2N01 00000JPWTH 0QNNAA1D0 06095BA1 0 06095GA1 0 00095KA1D0 00031JA1 0-00006LA1 0 01000CA1 0 02915NA1 0 00000QA1 0 09874SA1D0 00034RA1 0 00011YA1 0 31007
0209702595999992000010410003+60480-151030FM-15+0033PASX V0209999C000010039019N0160931N1-01201-01501999999ADDGD14991+0039019GF108991999999999999999999GP10060000001000000001000000001000GR100600000900009MA1099971999999MW1001REMMET065PASX 040955Z AUTO 00000KT 10SM OVC013 M12/M15 A2952 RMK AO1 TSNO;EQDQ01+000000PRSWM2
0226702595999992000010723003+60480-151030FM-15+0033PASX V0200901N002610039019N0160931N1-00601-00901999999ADDGD14991+0039019GF108991999999999999999999GP10060003701025000001028003701025GQ100600829918469GR100600175914159MA1098441999999MW1001REMMET065PASX 072255Z AUTO 09005KT 10SM OVC013 M06/M09 A2907 RMK AO1 TSNO;EQDQ01+000000PRSWM2
0209702595999992000010911003+60480-151030FM-15+0033PASX V0209999C000010003019N0160931N1-02101-02501999999ADDGD14991+0003019GF108991999999999999999999GP10060000001000000001000000001000GR100600000900009MA1099321999999MW1001REMMET065PASX 091055Z AUTO 00000KT 10SM OVC001 M21/M25 A2933 RMK AO1 TSNO;EQDQ01+000000PRSWM2
0191702595999992000011316003+60480-151030FM-15+0033PASX V0209999C000012200019N0160931N1-03301-03401999999ADDGF100991999999999999999999GP10060000001000000001000000001000GR100600000900009MA1103151999999MW1001REMMET062PASX 131555Z AUTO 00000KT 10SM CLR M33/M34 A3046 RMK AO1 TSNO;EQDQ01+000000PRSWM2
0191702595999992000011410003+60480-151030FM-15+0033PASX V0200801N002612200019N0160931N1-02501-03001999999ADDGF100991999999999999999999GP10060000001000000001000000001000GR100600000900009MA1103081999999MW1001REMMET062PASX 140955Z AUTO 08005KT 10SM CLR M25/M30 A3044 RMK AO1 TSNO;EQDQ01+000000PRSWM2
0208702595999992000011522003+60480-151030FM-15+0033PASX V0201201N001512200019N0160931N1-02201-02801999999ADDGF100991999999999999999999GP10060010601025053801028003201025GQ100600820916989GR100600196914149MA1102071999999MW1001REMMET062PASX 152155Z AUTO 12003KT 10SM CLR M22/M28 A3014 RMK AO1 TSNO;EQDQ01+000000PRSWM2
0208702595999992000011620003+60480-151030FM-15+0033PASX V0201001N001512200019N0160931N1-03101-03401999999ADDGF100991999999999999999999GP10060002301025032101028001001025GQ100600877914229GR100600058914149MA1102811999999MW1001REMMET062PASX 161955Z AUTO 10003KT 10SM CLR M31/M34 A3036 RMK AO1 TSNO;EQDQ01+000000PRSWM2
0267702595999992000011706003+60480-151030FM-15+0033PASX V0200601N001512200019N0160931N1-01901-02401999999ADDGD12991+0330019GF102991999999999999999999GP10060000001000000001000000001000GR100600000900009KA1999M-01801KA2999N-02201MA1102441999999MD1710101+9999MW1001REMMET083PASX 170555Z AUTO 06003KT 10SM FEW110 M19/M24 A3025 RMK AO1 11180 21220 57010 TSNO;EQDQ01+000000PRSWM2
0229702595999992000013015003+60480-151030FM-15+0033PASX V0209999C000010180019N0160931N1-01601-01901999999ADDGD14991+0180019GF108991999999999999999999GP10060000001000000001000000001000GR100600000900009MA1099831999999MD1710441+9999MW1001REMMET071PASX 301455Z AUTO 00000KT 10SM OVC060 M16/M19 A2948 RMK AO1 57044 TSNO;EQDQ01+000000PRSWM2
0190702595999992000020604003+60480-151030FM-15+0033PASX V0202601N001512200019N0160931N1+00101-00301999999ADDGF100991999999999999999999GP10060000001000000001000000001000GR100600000900009MA1100781999999MW1001REMMET061PASX 060355Z AUTO 26003KT 10SM CLR 01/M03 A2976 RMK AO1 TSNO;EQDQ01+000000PRSWM2
0225702595999992000021223003+60480-151030FM-15+0033PASX V0209999C000010108019N0160931N1+00101-00701999999ADDGD14991+0108019GF108991999999999999999999GP10060009401025000001028009401025GQ100600742918299GR100600382914049MA1101761999999MW1001REMMET064PASX 122255Z AUTO 00000KT 10SM OVC036 01/M07 A3005 RMK AO1 TSNO;EQDQ01+000000PRSWM2
0231702595999992000021717003+60480-151030FM-15+0033PASX V0200701N001512200019N0160931N1-00201-00601999999ADDGD12991+0144019GD22991+0150019GF102991999999999999999999GP10060000001000000001000000001000GR100600000900009MA1101151999999MW1001REMMET072PASX 171655Z AUTO 07003KT 10SM FEW048 FEW055 M02/M06 A2987 RMK AO1 TSNO;EQDQ01+000000PRSWM2
0293702595999992000021800003+60480-151030FM-15+0033PASX V0209999C000012200019N0160931N1+00101-00501999999ADDGD12991+0180019GF104991999999999999999999GP10060024201025033301028015001025GQ100600739919839GR100600390914019KA1999M+00201KA2999N-00201MA1100881999999MD1710201+9999MW1001REMMET092PASX 172355Z AUTO 00000KT 10SM SCT060 01/M05 A2979 RMK AO1 10020 21020 400201040 57020 TSNO;EQDQ01+000000PRSWM2
0201702595999992000022002154+60480-151030FM-15+0033PASX V0201101N003110240019N0160931N1+00301-00201999999ADDGD12991+0126019GD22991+0144019GD33991+0240019GF107991999999999999999999MA1098371999999MW1001REMMET078PASX 200215Z AUTO 11006KT 10SM FEW042 SCT048 BKN080 03/M02 A2905 RMK AO1 TSNO;EQDQ01+000000PRSWM2
0225702595999992000022202003+60480-151030FM-15+0033PASX V0209999C000012200019N0160931N1+00101-00601999999ADDGD12991+0270019GF102991999999999999999999GP10060011901025038301028005601025GQ100600804922789GR100600232913989MA1099761999999MW1001REMMET064PASX 220155Z AUTO 00000KT 10SM FEW090 01/M06 A2946 RMK AO1 TSNO;EQDQ01+000000PRSWM2
0228702595999992000022603003+60480-151030FM-15+0033PASX V0200501N003612200019N0160931N1-00201-01301999999ADDGF100991999999999999999999GP10060003901025006201028003301025GQ100600851924229GR100600120913969MA1099761999999MD1210031+9999MW1001REMMET068PASX 260255Z AUTO 05007KT 10SM CLR M02/M13 A2946 RMK AO1 52003 TSNO;EQDQ01+000000PRSWM2
0211702595999992000022815003+60480-151030FM-15+0033PASX V0200601N002112200019N0160931N1-00201-00801999999ADDGF100991999999999999999999GP10060000001000000001000000001000GR100600000900009MA1099191999999MD1710171+9999MW1001REMMET068PASX 281455Z AUTO 06004KT 10SM CLR M02/M08 A2929 RMK AO1 57017 TSNO;EQDQ01+000000PRSWM2
0191702595999992000030613003+60480-151030FM-15+0033PASX V0209999C000012200019N0160931N1-00101-00701999999ADDGF100991999999999999999999GP10060000001000000001000000001000GR100600000900009MA1101391999999MW1001REMMET062PASX 061255Z AUTO 00000KT 10SM CLR M01/M07 A2994 RMK AO1 TSNO;EQDQ01+000000PRSWM2
0208702595999992000030704003+60480-151030FM-15+0033PASX V0209999C000012200019N0160931N1-00201-00901999999ADDGF100991999999999999999999GP10060001201025009901028000801025GQ100600877925579GR100600040909849MA1101351999999MW1001REMMET062PASX 070355Z AUTO 00000KT 10SM CLR M02/M09 A2993 RMK AO1 TSNO;EQDQ01+000000PRSWM2
0207702595999992000030901003+60480-151030FM-15+0033PASX V0203001N002612200019N0160931N1+00101-00801999999ADDGF100991999999999999999999GP10060030001025061701028009001025GQ100600701921619GR100600472913879MA1101831999999MW1001REMMET061PASX 090055Z AUTO 30005KT 10SM CLR 01/M08 A3007 RMK AO1 TSNO;EQDQ01+000000PRSWM2
0267702595999992000032112003+60480-151030FM-15+0033PASX V0200801N001510147019N0160931N1-00101-00401999999ADDGD13991+0147019GF107991999999999999999999GP10060000001000000001000000001000GR100600000900009KA1999M+00001KA2999N-00101MA1099561999999MD1210031+9999MW1001REMMET083PASX 211155Z AUTO 08003KT 10SM BKN049 M01/M04 A2940 RMK AO1 10000 21010 52003 TSNO;EQDQ01+000000PRSWM2
0225702595999992000032402003+60480-151030FM-15+0033PASX V0200801N003612200019N0160931N1+00601-00601999999ADDGD12991+0180019GF102991999999999999999999GP10060030401025063201028008901025GQ100600701923439GR100600467913759MA1099561999999MW1001REMMET064PASX 240155Z AUTO 08007KT 10SM FEW065 06/M06 A2940 RMK AO1 TSNO;EQDQ01+000000PRSWM2
0231702595999992000032410003+60480-151030FM-15+0033PASX V0209999C000010210019N0160931N1-00101-00701999999ADDGD13991+0210019GD23991+0240019GF107991999999999999999999GP10060000001000000001000000001000GR100600000900009MA1099491999999MW1001REMMET072PASX 240955Z AUTO 00000KT 10SM BKN070 BKN080 M01/M07 A2938 RMK AO1 TSNO;EQDQ01+000000PRSWM2
0226702595999992000032417003+60480-151030FM-15+0033PASX V0209999C000010180019N0160931N1-00201-00601999999ADDGD14991+0180019GF108991999999999999999999GP10060001701025000001028001701025GQ100600859909359GR100600099913759MA1099291999999MW1001REMMET065PASX 241655Z AUTO 00000KT 10SM OVC060 M02/M06 A2932 RMK AO1 TSNO;EQDQ01+000000PRSWM2
0191702595999992000032807003+60480-151030FM-15+0033PASX V0209999C000012200019N0160931N1-01101-01901999999ADDGF100991999999999999999999GP10060000001000000001000000001000GR100600000900009MA1100001999999MW1001REMMET062PASX 280655Z AUTO 00000KT 10SM CLR M11/M19 A2953 RMK AO1 TSNO;EQDQ01+000000PRSWM2
0225702595999992000041104003+60480-151030FM-15+0033PASX V0200901N001512200019N0160931N1+00601-00501999999ADDGD12991+0180019GF102991999999999999999999GP10060012301025034301028005301025GQ100600783926659GR100600276913619MA1102201999999MW1001REMMET064PASX 110355Z AUTO 09003KT 10SM FEW060 06/M05 A3018 RMK AO1 TSNO;EQDQ01+000000PRSWM2
0191702595999992000042709003+60480-151030FM-15+0033PASX V0209999C000012200019N0160931N1-00101-00601999999ADDGF100991999999999999999999GP10060000001000000001000000001000GR100600000900009MA1101661999999MW1001REMMET062PASX 270855Z AUTO 00000KT 10SM CLR M01/M06 A3002 RMK AO1 TSNO;EQDQ01+000000PRSWM2
0207702595999992000042803003+60480-151030FM-15+0033PASX V0200101N001512200019N0160931N1+01001-00501999999ADDGF100991999999999999999999GP10060035501025070401028007401025GQ100600664925699GR100600539913489MA1100541999999MW1001REMMET061PASX 280255Z AUTO 01003KT 10SM CLR 10/M05 A2969 RMK AO1 TSNO;EQDQ01+000000PRSWM2
0139702595999992000042808154+60480-151030FM-15+0033PASX V0209999C000012200019N0160931N1+00001-00601999999ADDGF100991999999999999999999MA1100411999999MW1001REMMET061PASX 280815Z AUTO 00000KT 10SM CLR 00/M06 A2965 RMK AO1 TSNO;EQDQ01+000000PRSWM2
0190702595999992000050111003+60480-151030FM-15+0033PASX V0209999C000012200019N0160931N1+00001-00601999999ADDGF100991999999999999999999GP10060000001000000001000000001000GR100600000900009MA1100031999999MW1001REMMET061PASX 011055Z AUTO 00000KT 10SM CLR 00/M06 A2954 RMK AO1 TSNO;EQDQ01+000000PRSWM2
0157702595999992000050216154+60480-151030FM-15+0033PASX V0209999C000012200019N0160931N1+00101-00401999999ADDGD12991+0330019GF102991999999999999999999MA1100911999999MW1001REMMET064PASX 021615Z AUTO 00000KT 10SM FEW110 01/M04 A2980 RMK AO1 TSNO;EQDQ01+000000PRSWM2
0207702595999992000050317003+60480-151030FM-15+0033PASX V0209999C000012200019N0160931N1+00301-00201999999ADDGF100991999999999999999999GP10060023901025058901028006301025GQ100600726908839GR100600402913449MA1100641999999MW1001REMMET061PASX 031655Z AUTO 00000KT 10SM CLR 03/M02 A2972 RMK AO1 TSNO;EQDQ01+000000PRSWM2
0139702595999992000050609154+60480-151030FM-15+0033PASX V0209999C000012200019N0160931N1+00301-00701999999ADDGF100991999999999999999999MA1101521999999MW1001REMMET061PASX 060915Z AUTO 00000KT 10SM CLR 03/M07 A2998 RMK AO1 TSNO;EQDQ01+000000PRSWM2
0071702595999992000051422009+60467-151033NSRDB+003499999V020999999999999999999999999999+99999+99999999999ADDGP10060037001025007501028031501025GQ100600421916929GR100600993913379
0225702595999992000051607003+60480-151030FM-15+0033PASX V0200701N003112200019N0160931N1+00901-00301999999ADDGD12991+0270019GF102991999999999999999999GP10060000501025004501028000301025GQ100600884930909GR100600024908579MA1100911999999MW1001REMMET064PASX 160655Z AUTO 07006KT 10SM FEW090 09/M03 A2980 RMK AO1 TSNO;EQDQ01+000000PRSWM2
0071702595999992000051618009+60467-151033NSRDB+003499999V020999999999999999999999999999+99999+99999999999ADDGP10060022501025007101028019201025GQ100600623909989GR100600620913369
0157702595999992000051813154+60480-151030FM-15+0033PASX V0209999C000012200019N0160931N1+00101-00301999999ADDGD12991+0210019GF102991999999999999999999MA1101121999999MW1001REMMET064PASX 181315Z AUTO 00000KT 10SM FEW070 01/M03 A2986 RMK AO1 TSNO;EQDQ01+000000PRSWM2
0071702595999992000051902009+60467-151033NSRDB+003499999V020999999999999999999999999999+99999+99999999999ADDGP10060028101025018701028017301025GQ100600547924589GR100600771913359
0268702595999992000052008003+60480-151030FM-15+0033PASX V0209999C000010135019N0160931N1+00401+00001999999ADDAA101000591GD12991+0081019GD23991+0135019GD34991+0330019GF108991999999999999999999GP10060000001000000001000000001000GR100600000900009MA1101151999999MW1001REMMET083PASX 200755Z AUTO 00000KT 10SM FEW027 BKN045 OVC110 04/00 A2987 RMK AO1 P0002 TSNO;EQDQ01+000000PRSWM2
0207702595999992000052016003+60480-151030FM-15+0033PASX V0200901N002112200019N0160931N1+00201-00201999999ADDGF100991999999999999999999GP10060017401025051101028005201025GQ100600762907339GR100600319913349MA1101151999999MW1001REMMET061PASX 201555Z AUTO 09004KT 10SM CLR 02/M02 A2987 RMK AO1 TSNO;EQDQ01+000000PRSWM2
0071702595999992000052717009+60467-151033NSRDB+003499999V020999999999999999999999999999+99999+99999999999ADDGP10060031301025062301028007901025GQ100600679908519GR100600500913309
0210702595999992000052909003+60480-151030FM-15+0033PASX V0201801N001512200019N0160931N1+00801-00201999999ADDGF100991999999999999999999GP10060000001000000001000000001000GR100600000900009MA1101961999999MD1210141+9999MW1001REMMET067PASX 290855Z AUTO 18003KT 10SM CLR 08/M02 A3011 RMK AO1 52014 TSNO;EQDQ01+000000PRSWM2
0268702595999992000053114003+60480-151030FM-15+0033PASX V0209999C000010147019N0160931N1+00601+00201999999ADDGD12991+0003019GD22991+0057019GD34991+0147019GF108991999999999999999999GP10060001101025000001028001101025GQ100600871904709GR100600067913289MA1102951999999MW1001REMMET077PASX 311355Z AUTO 00000KT 10SM FEW001 SCT019 OVC049 06/02 A3040 RMK AO1 TSNO;EQDQ01+000000PRSWM2
0190702595999992000060310003+60480-151030FM-15+0033PASX V0202001N001512200019N0160931N1+00601-00101999999ADDGF100991999999999999999999GP10060000001000000001000000001000GR100600000900009MA1102541999999MW1001REMMET061PASX 030955Z AUTO 20003KT 10SM CLR 06/M01 A3028 RMK AO1 TSNO;EQDQ01+000000PRSWM2
0227702595999992000060315003+60480-151030FM-15+0033PASX V0201001N001512200019N0160931N1+00301-00201999999ADDGF100991999999999999999999GP10060008201025021401028004901025GQ100600811905949GR100600206913279MA1102571999999MD1410001+9999MW1001REMMET067PASX 031455Z AUTO 10003KT 10SM CLR 03/M02 A3029 RMK AO1 54000 TSNO;EQDQ01+000000PRSWM2
0206702595999992000060317003+60480-151030FM-15+0033PASX V0209999C000012200019N0160931N1+00801+00101999999ADDGF100991999999999999999999GP10060031001025054401028009901025GQ100600672908449GR100600514913279MA1102571999999MW1001REMMET060PASX 031655Z AUTO 00000KT 10SM CLR 08/01 A3029 RMK AO1 TSNO;EQDQ01+000000PRSWM2
0224702595999992000061614003+60480-151290FM-15+0033PASX V0209999C000012200019N0160931N1+00601+00201999999ADDGD12991+0240019GF104991999999999999999999GP10060003601025003001028003401025GQ100600862904589GR100600088913239MA1102341999999MW1001REMMET063PASX 161355Z AUTO 00000KT 10SM SCT080 06/02 A3022 RMK AO1 TSNO;EQDQ01+000000PRSWM2
0224702595999992000062901003+60480-151290FM-15+0033PASX V0202801N003612200019N0160931N1+01701+00901999999ADDGD12991+0240019GF104991999999999999999999GP10060049101025023601028032301025GQ100600447922959GR100600939913229MA1101021999999MW1001REMMET063PASX 290055Z AUTO 28007KT 10SM SCT085 17/09 A2983 RMK AO1 TSNO;EQDQ01+000000PRSWM2
0249702595999992000070309003+60480-151290FM-15+0033PASX V0202101N002610117019N0160931N1+01101+00601999999ADDGD13991+0117019GD24991+0330019GF108991999999999999999999GP10060000001000000001000000001000GR100600000900009MA1102001999999MD1210031+9999MW1001REMMET076PASX 030855Z AUTO 21005KT 10SM BKN039 OVC110 11/06 A3012 RMK AO1 52003 TSNO;EQDQ01+000000PRSWM2
0314702595999992000071100003+60480-151290FM-15+0033PASX V0202901N002110150019N0160931N1+01401+00701999999ADDGD12991+0111019GD23991+0150019GF107991999999999999999999GP10060029401025006201028024701025GQ100600410920909GR100600998913229KA1999M+01401KA2999N+01301MA1101731999999MD1710031+9999MW1001REMMET098PASX 102355Z AUTO 29004KT 10SM FEW037 BKN050 14/07 A3004 RMK AO1 10140 20130 401400070 57003 TSNO;EQDQ01+000000PRSWM2
0189702595999992000071511003+60480-151290FM-15+0033PASX V0209999C000012200019N0160931N1+00801+00401999999ADDGF100991999999999999999999GP10060000001000000001000000001000GR100600000900009MA1102201999999MW1001REMMET060PASX 151055Z AUTO 00000KT 10SM CLR 08/04 A3018 RMK AO1 TSNO;EQDQ01+000000PRSWM2
0266702595999992000071709003+60480-151290FM-15+0033PASX V0201401N001510108019N0160931N1+01201+00801999999ADDAA103000391GD13991+0108019GD23991+0240019GF107991999999999999999999GP10060000001000000001000000001000GR100600000900009MA1101221999999MD1410001+9999MW1001REMMET082PASX 170855Z AUTO 14003KT 10SM BKN036 BKN080 12/08 A2989 RMK AO1 60001 54000 TSNO;EQDQ01+000000PRSWM2
0263702595999992000072202003+60480-151030FM-15+0033PASX V0200301N002112200019N0160931N1+01101+00601999999ADDAA101000591GD12991+0105019GD22991+0129019GF104991999999999999999999GP10060047701025042901028022101025GQ100600532924359GR100600792913239MA1100611999999MW1001REMMET076PASX 220155Z AUTO 03004KT 10SM FEW035 SCT043 11/06 A2971 RMK AO1 P0002 TSNO;EQDQ01+000000PRSWM2
0071702595999992000072919009+60467-151033NSRDB+003499999V020999999999999999999999999999+99999+99999999999ADDGP10060035801025030501028019301025GQ100600571911219GR100600720913259
0071702595999992000073002009+60467-151033NSRDB+003499999V020999999999999999999999999999+99999+99999999999ADDGP10060025901025004001028023601025GQ100600548924259GR100600764913259
0265702595999992000073012003+60480-151030FM-15+0033PASX V0201001N002110180019N0160931N1+00901+00401999999ADDGD14991+0180019GF108991999999999999999999GP10060000001000000001000000001000GR100600000900009KA1999M+01101KA2999N+00801MA1101391999999MD1410001+9999MW1001REMMET081PASX 301155Z AUTO 10004KT 10SM OVC065 09/04 A2994 RMK AO1 10110 20080 54000 TSNO;EQDQ01+000000PRSWM2
0189702595999992000080613003+60480-151030FM-15+0033PASX V0209999C000012200019N0160931N1+00501+00101999999ADDGF100991999999999999999999GP10060000001000000001000000001000GR100600000900009MA1102101999999MW1001REMMET060PASX 061255Z AUTO 00000KT 10SM CLR 05/01 A3015 RMK AO1 TSNO;EQDQ01+000000PRSWM2
0138702595999992000080614354+60480-151030FM-15+0033PASX V0209999C000012200019N0160931N1+00401+00101999999ADDGF100991999999999999999999MA1102201999999MW1001REMMET060PASX 061535Z AUTO 00000KT 10SM CLR 04/01 A3018 RMK AO1 TSNO;EQDQ01+000000PRSWM2
0206702595999992000081015003+60480-151030FM-15+0033PASX V0200701N002112200019N0160931N1+00501+00101999999ADDGF100991999999999999999999GP10060001501025013701028001001025GQ100600875906199GR100600050911649MA1102131999999MW1001REMMET060PASX 101455Z AUTO 07004KT 10SM CLR 05/01 A3016 RMK AO1 TSNO;EQDQ01+000000PRSWM2
0274702595999992000081200003+60480-151030FM-15+0033PASX V0202501N003112200019N0160931N1+01901+00901999999ADDGF100991999999999999999999GP10060066901025086401028009001025GQ100600479920679GR100600892913309KA1999M+01901KA2999N+01401MA1102341999999MD1410001+9999MW1001REMMET088PASX 112355Z AUTO 25006KT 10SM CLR 19/09 A3022 RMK AO1 10190 20140 401900060 54000 TSNO;EQDQ01+000000PRSWM2
0138702595999992000081209154+60480-151030FM-15+0033PASX V0209999C000012200019N0160931N1+01001+00401999999ADDGF100991999999999999999999MA1102471999999MW1001REMMET060PASX 120915Z AUTO 00000KT 10SM CLR 10/04 A3026 RMK AO1 TSNO;EQDQ01+000000PRSWM2
0071702595999992000081705009+60467-151033NSRDB+003499999V020999999999999999999999999999+99999+99999999999ADDGP10060008501025022401028005001025GQ100600810928139GR100600209913339
0206702595999992000081916003+60480-151030FM-15+0033PASX V0209999C000012200019N0160931N1+00701+00201999999ADDGF100991999999999999999999GP10060006201025026601028003201025GQ100600835907579GR100600151913349MA1100471999999MW1001REMMET060PASX 191555Z AUTO 00000KT 10SM CLR 07/02 A2967 RMK AO1 TSNO;EQDQ01+000000PRSWM2
0206702595999992000082320003+60480-151030FM-15+0033PASX V0200801N003112200019N0160931N1+01301+00101999999ADDGF100991999999999999999999GP10060052601025081501028008401025GQ100600571913259GR100600725913379MA1101291999999MW1001REMMET060PASX 231955Z AUTO 08006KT 10SM CLR 13/01 A2991 RMK AO1 TSNO;EQDQ01+000000PRSWM2
0265702595999992000082412003+60480-151030FM-15+0033PASX V0209999C000010330019N0160931N1+00801+00301999999ADDGD13991+0330019GF107991999999999999999999GP10060000001000000001000000001000GR100600000900009KA1999M+01201KA2999N+00801MA1101291999999MD1210031+9999MW1001REMMET081PASX 241155Z AUTO 00000KT 10SM BKN110 08/03 A2991 RMK AO1 10120 20080 52003 TSNO;EQDQ01+000000PRSWM2
0156702595999992000083123154+60480-151030FM-15+0033PASX V0200501N001512200019N0160931N1+01601+00401999999ADDGD12991+0270019GF102991999999999999999999MA1102271999999MW1001REMMET063PASX 312315Z AUTO 05003KT 10SM FEW090 16/04 A3020 RMK AO1 TSNO;EQDQ01+000000PRSWM2
0224702595999992000090419003+60480-151030FM-15+0033PASX V0202101N002112200019N0160931N1+01101+00401999999ADDGD12991+0054019GF102991999999999999999999GP10060027801025037901028012801025GQ100600666912009GR100600533913449MA1100811999999MW1001REMMET063PASX 041855Z AUTO 21004KT 10SM FEW018 11/04 A2977 RMK AO1 TSNO;EQDQ01+000000PRSWM2
0177702595999992000092103154+60480-151030FM-15+0033PASX V0202901N001510150019N0080461N1+00901+00401999999ADDGD12991+0108019GD24991+0150019GF108991999999999999999999MA1102401999999MW1001REMMET069PASX 210315Z AUTO 29003KT 5SM FEW036 OVC050 09/04 A3024 RMK AO1 TSNO;EQDQ01+000000PRSWM2
0238702595999992000100503003+60480-151030FM-15+0033PASX V0200401N003112200019N0160931N1+00601-00301999999ADDGF100991999999999999999999GP10060006901025050501028001701025GQ100600841924969GR100600140913679MA1101221999999MD1710301+9999MW1001OC100721REMMET070PASX 050255Z AUTO 04006G14KT 10SM CLR 06/M03 A2989 RMK AO1 57030 TSNO;EQDQ01+000000PRSWM2
0191702595999992000101013003+60480-151030FM-15+0033PASX V0209999C000012200019N0160931N1-00301-00801999999ADDGF100991999999999999999999GP10060000001000000001000000001000GR100600000900009MA1100751999999MW1001REMMET062PASX 101255Z AUTO 00000KT 10SM CLR M03/M08 A2975 RMK AO1 TSNO;EQDQ01+000000PRSWM2
0268702595999992000101101003+60480-151030FM-15+0033PASX V0200401N003110039019N0128741N1+00101-00301999999ADDGD12991+0003019GD23991+0039019GD34991+0240019GF108991999999999999999999GP10060006501025000001028006501025GQ100600744922129GR100600369913729MA1099631999999MW1001REMMET077PASX 110055Z AUTO 04006KT 8SM FEW001 BKN013 OVC080 01/M03 A2942 RMK AO1 TSNO;EQDQ01+000000PRSWM2
0207702595999992000101301003+60480-151030FM-15+0033PASX V0202001N002112200019N0160931N1+00701-00301999999ADDGF100991999999999999999999GP10060020001025057201028005401025GQ100600751922119GR100600352913739MA1099861999999MW1001REMMET061PASX 130055Z AUTO 20004KT 10SM CLR 07/M03 A2949 RMK AO1 TSNO;EQDQ01+000000PRSWM2
0252702595999992000102210003+60480-151030FM-15+0033PASX V0200301N002610180019N0160931N1+00301-00801999999ADDGD12991+0093019GD22991+0141019GD33991+0180019GF107991999999999999999999GP10060000001000000001000000001000GR100600000900009MA1098101999999MW1001REMMET078PASX 220955Z AUTO 03005KT 10SM FEW031 SCT047 BKN065 03/M08 A2897 RMK AO1 TSNO;EQDQ01+000000PRSWM2
0209702595999992000102613003+60480-151030FM-15+0033PASX V0200901N002110210019N0160931N1-00301-00701999999ADDGD13991+0210019GF107991999999999999999999GP10060000001000000001000000001000GR100600000900009MA1101151999999MW1001REMMET065PASX 261255Z AUTO 09004KT 10SM BKN075 M03/M07 A2987 RMK AO1 TSNO;EQDQ01+000000PRSWM2
0054702595999992000102814009+60467-151033NSRDB+003499999V020999999999999999999999999999+99999+99999999999ADDGP10060000001000000001000000001000GR100600000900009
0221702595999992000103100354+60480-151030FM-15+0033PASX V0209999C000010033019N0028161N1+00001-00301999999ADDAA101000391GD12991+0003019GD23991+0033019GD34991+0042019GF108991999999999999999999MA1099051999999MW1001REMMET087PASX 310035Z AUTO 00000KT 1 3/4SM SCT001 BKN011 OVC014 00/M03 A2925 RMK AO1 P0001 TSNO;EQDQ01+000000PRSWM2
0054702595999992000103110009+60467-151033NSRDB+003499999V020999999999999999999999999999+99999+99999999999ADDGP10060000001000000001000000001000GR100600000900009
0054702595999992000111307009+60467-151033NSRDB+003499999V020999999999999999999999999999+99999+99999999999ADDGP10060000001000000001000000001000GR100600000900009
0202702595999992000111309354+60480-151030FM-15+0033PASX V0209999C000010180019N0160931N1-00201-00501999999ADDGD12991+0144019GD23991+0180019GD34991+0210019GF108991999999999999999999MA1101191999999MW1001REMMET079PASX 130935Z AUTO 00000KT 10SM SCT048 BKN065 OVC070 M02/M05 A2988 RMK AO1 TSNO;EQDQ01+000000PRSWM2
0071702595999992000111323009+60467-151033NSRDB+003499999V020999999999999999999999999999+99999+99999999999ADDGP10060006401028016201031003301028GQ100600791919009GR100600263913979
0201702595999992000111402354+60480-151030FM-15+0033PASX V0201101N004110360019N0160931N1+00401-00101999999ADDGD12991+0114019GD22991+0210019GD33991+0360019GF107991999999999999999999MA1099931999999MW1001REMMET078PASX 140235Z AUTO 11008KT 10SM FEW038 SCT070 BKN120 04/M01 A2951 RMK AO1 TSNO;EQDQ01+000000PRSWM2
0157702595999992000111610354+60480-151030FM-15+0033PASX V0200601N004112200019N0160931N1+00201-00401999999ADDGD12991+0078019GF102991999999999999999999MA1100881999999MW1001REMMET064PASX 161035Z AUTO 06008KT 10SM FEW026 02/M04 A2979 RMK AO1 TSNO;EQDQ01+000000PRSWM2
0157702595999992000111814354+60480-151030FM-15+0033PASX V0209999C000012200019N0160931N1+00101-00401999999ADDGD12991+0180019GF104991999999999999999999MA1100851999999MW1001REMMET064PASX 181435Z AUTO 00000KT 10SM SCT065 01/M04 A2978 RMK AO1 TSNO;EQDQ01+000000PRSWM2
0054702595999992000112118009+60467-151033NSRDB+003499999V020999999999999999999999999999+99999+99999999999ADDGP10060000001000000001000000001000GR100600000900009
0202702595999992000112318354+60480-151030FM-15+0033PASX V0209999C000010210019N0160931N1-00101-00601999999ADDGD12991+0123019GD22991+0147019GD33991+0210019GF107991999999999999999999MA1098921999999MW1001REMMET079PASX 231835Z AUTO 00000KT 10SM FEW041 SCT049 BKN070 M01/M06 A2921 RMK AO1 TSNO;EQDQ01+000000PRSWM2
0054702595999992000112617009+60467-151033NSRDB+003499999V020999999999999999999999999999+99999+99999999999ADDGP10060000001000000001000000001000GR100600000900009
0158702595999992000112811354+60480-151030FM-15+0033PASX V0209999C000012200019N0160931N1-00201-00601999999ADDGD12991+0180019GF102991999999999999999999MA1101051999999MW1001REMMET065PASX 281135Z AUTO 00000KT 10SM FEW060 M02/M06 A2984 RMK AO1 TSNO;EQDQ01+000000PRSWM2
0071702595999992000112823009+60467-151033NSRDB+003499999V020999999999999999999999999999+99999+99999999999ADDGP10060010001028014201031008101028GQ100600823918889GR100600189914069
0071702595999992000112923009+60467-151033NSRDB+003499999V020999999999999999999999999999+99999+99999999999ADDGP10060005301025001201028005201025GQ100600824918879GR100600185914069
0054702595999992000120217009+60467-151033NSRDB+003499999V020999999999999999999999999999+99999+99999999999ADDGP10060000001000000001000000001000GR100600000900009
0217702595999992000120717354+60480-151030FM-15+0033PASX V0201901N002110033019N0080461N1+00101-00201999999ADDAA101000591GD13991+0033019GD23991+0150019GD34991+0300019GF108991999999999999999999MA1102301999999MW1001REMMET083PASX 071735Z AUTO 19004KT 5SM BKN011 BKN050 OVC100 01/M02 A3021 RMK AO1 P0002 TSNO;EQDQ01+000000PRSWM2
0054702595999992000120915009+60467-151033NSRDB+003499999V020999999999999999999999999999+99999+99999999999ADDGP10060000001000000001000000001000GR100600000900009
0054702595999992000121808009+60467-151033NSRDB+003499999V020999999999999999999999999999+99999+99999999999ADDGP10060000001000000001000000001000GR100600000900009
0054702595999992000122006009+60467-151033NSRDB+003499999V020999999999999999999999999999+99999+99999999999ADDGP10060000001000000001000000001000GR100600000900009
0054702595999992000122207009+60467-151033NSRDB+003499999V020999999999999999999999999999+99999+99999999999ADDGP10060000001000000001000000001000GR100600000900009
0054702595999992000122305009+60467-151033NSRDB+003499999V020999999999999999999999999999+99999+99999999999ADDGP10060000001000000001000000001000GR100600000900009
0054702595999992000122313009+60467-151033NSRDB+003499999V020999999999999999999999999999+99999+99999999999ADDGP10060000001000000001000000001000GR100600000900009
0158702595999992000122401354+60480-151030FM-15+0033PASX V0200601N003110210019N0160931N1-00301-01101999999ADDGD13991+0210019GF107991999999999999999999MA1100471999999MW1001REMMET065PASX 240135Z AUTO 06006KT 10SM BKN070 M03/M11 A2967 RMK AO1 TSNO;EQDQ01+000000PRSWM2
0054702595999992000122908009+60467-151033NSRDB+003499999V020999999999999999999999999999+99999+99999999999ADDGP10060000001000000001000000001000GR100600000900009
0201702595999992000123121354+60480-151030FM-15+0033PASX V0209999C000010240019N0160931N1+00101-00301999999ADDGD12991+0111019GD22991+0132019GD33991+0240019GF107991999999999999999999MA1099531999999MW1001REMMET078PASX 312135Z AUTO 00000KT 10SM SCT037 SCT044 BKN085 01/M03 A2939 RMK AO1 TSNO;EQDQ01+000000PRSWM2
0512702600264352000010208596+64550-149071SOD  +0110PANN V020999999999999999999999999999+99999+99999999999ADDAA124000095MG1101529999994OE11240040209002405OE22240035809002415OE33240005899999995REMSOD41724 HR PRECIPITATION (IN): 0.00 AVERAGE STATION PRESSURE:29.98  PEAK WIND SPEED (MPH):  9 PEAK WIND DIR (DEG):090 PEAK WIND TIME (LST):0240  FASTEST 2MIN SPEED (MPH):  8FASTEST 2MIN DIR (DEG):090 FASTEST 2MIN TIME (LST):0241 AVERAGE WIND SPEED (MPH): 1.3 HOURLY INCREMENTAL PRECIPITATION VALUES (IN):.00  .00  .00  .00  .00  .00  .00  .00  .00  .00  .00  .00  .00  .00  .00  .00  .00  .00  .00  .00  .00  .00  .00  .00
0666702600264352000011008596+64550-149071SOD  +0110PANN V020999999999999999999999999999+99999+99999999999ADDAA124000025KA1240M-01935KA2240N-03825MG1099369999994OE11240040230008175OE22240035831008185OE33240007299999995REMSOD54524 HR PRECIPITATION (IN):  T   24 HR MAX TEMP (F): -324 HR MAX TEMP TIME (LST):0127 24 HR MIN TEMP (F):-3724 HR MIN TEMP TIME (LST):2359 AVERAGE STATION PRESSURE:29.34  PEAK WIND SPEED (MPH):  9 PEAK WIND DIR (DEG):300 PEAK WIND TIME (LST):0817  FASTEST 2MIN SPEED (MPH):  8FASTEST 2MIN DIR (DEG):310 FASTEST 2MIN TIME (LST):0818 AVERAGE WIND SPEED (MPH): 1.6 24 HR AVG TEMP (F):20 HOURLY INCREMENTAL PRECIPITATION VALUES (IN): T    T    T    T    T    T   .00  .00  .00  .00  .00  .00  .00  .00  .00  .00  .00  .00  .00  .00  .00  .00  .00  .00
0685702600264352000022808596+64550-149071SOD  +0110PANN V020999999999999999999999999999+99999+99999999999ADDAA124000096KA1240M-01105KA2240N-03105MG1098719999994OE11240053632017275OE22240040232018345OE33240008999999995REMSOD54524 HR PRECIPITATION (IN): 0.00 24 HR MAX TEMP (F): 1224 HR MAX TEMP TIME (LST):1536 24 HR MIN TEMP (F):-2424 HR MIN TEMP TIME (LST):0805 AVERAGE STATION PRESSURE:29.15  PEAK WIND SPEED (MPH): 12 PEAK WIND DIR (DEG):320 PEAK WIND TIME (LST):1727  FASTEST 2MIN SPEED (MPH):  9FASTEST 2MIN DIR (DEG):320 FASTEST 2MIN TIME (LST):1834 AVERAGE WIND SPEED (MPH): 2.0 24 HR AVG TEMP (F):-6 HOURLY INCREMENTAL PRECIPITATION VALUES (IN):.00  .00  .00  .00  .00  .00  .00  .00  .00  .00  .00  .00  .00  .00  .00  .00  .00  .00  .00  .00  .00  .00  .00  .00EQDR01  0.007AAP092
0666702600264352000060408596+64550-149071SOD  +0110PANN V020999999999999999999999999999+99999+99999999999ADDAA124000895KA1240M+02115KA2240N+00395MG1100619999994OE11240062618021225OE22240058118021225OE33240013999999995REMSOD54524 HR PRECIPITATION (IN): 0.03 24 HR MAX TEMP (F): 7024 HR MAX TEMP TIME (LST):1737 24 HR MIN TEMP (F): 3924 HR MIN TEMP TIME (LST):0434 AVERAGE STATION PRESSURE:29.71  PEAK WIND SPEED (MPH): 14 PEAK WIND DIR (DEG):180 PEAK WIND TIME (LST):2122  FASTEST 2MIN SPEED (MPH): 13FASTEST 2MIN DIR (DEG):180 FASTEST 2MIN TIME (LST):2122 AVERAGE WIND SPEED (MPH): 3.1 24 HR AVG TEMP (F):55 HOURLY INCREMENTAL PRECIPITATION VALUES (IN):.00  .00  .00  .00  .00  .00  .00  .00  .00  .00  .00  .00  .00   T   .00  .00  .00  .00  .00  .03   T   .00  .00  .00
0121702600999992000010112534+64550-149080FM-16+0110PANN V0201001N002112200019N0160931N1+99999+99999999999ADDGF100991999999999999999999MA1103121999999MW1001REMMET062PANN 011253Z AUTO 10004KT 10SM CLR A3045 RMK AO2 SLPNO TSNO $;
0190702600999992000010513534+64550-149080FM-16+0110PANN V0209999C000010270019N0160931N1-03501+99999101951ADDGD12991+0180099GD23991+0270099GF107991999999999999999999MA1101731999999MW1001REMMET082PANN 051353Z AUTO 00000KT 10SM SCT060 BKN090 M35/ A3004 RMK AO2 SLP195 T1350 TSNO;EQDQ01+000000PRSWM2
0170702600999992000011102534+64550-149080FM-16+0110PANN V0209999C000012200019N0160931N1-04201+99999102421ADDGF100991999999999999999999MA1102171999999MD1310101+9999MW1001REMMET078PANN 110253Z AUTO 00000KT 10SM CLR M42/ A3017 RMK AO2 SLP242 T1422 53010 TSNO;EQDQ01+000000PRSWM2
0140702600999992000011115534+64550-149080FM-16+0110PANN V0209999C000012200019N0160931N1+99999+99999999999ADDGF100991999999999999999999MA1102541999999MW1001REMMET062PANN 111553Z AUTO 00000KT 10SM CLR A3028 RMK AO2 SLPNO TSNO $;EQDQ01+000000PRSWM2
0193702600999992000012321534+64550-149080FM-15+0110PANN V0200901N004612200019N0160931N1+00201-00601099781ADDGD12991+0270099GF104991999999999999999999MA1099701999999MW1001OC100721REMMET092PANN 232153Z AUTO 09009G14KT 060V130 10SM SCT090 02/M06 A2944 RMK AO2 SLP978 T00221061 TSNO;EQDQ01+000000PRSWM2
0217702600999992000012602534+64550-149080FM-15+0110PANN V0209999C000010018019N0160931N1-01001-01101099371ADDGD13991+0018099GD24991+0210099GF108991999999999999999999MA1099261999999MD1310081+9999MW1001REMMET095PANN 260253Z AUTO 00000KT 10SM BKN006 OVC070 M10/M11 A2931 RMK AO2 SLP937 T11001106 53008 TSNO;EQDQ01+000000PRSWM2
0215702600999992000012617534+64550-149080FM-15+0110PANN V0200801N005112200019N0160931N1-00601-01001098731ADDGF100991999999999999999999KA1999M-00611KA2999N-00721MA1098611999999MD1610261+9999MW1001REMMET097PANN 261753Z AUTO 08010KT 10SM CLR M06/M10 A2912 RMK AO2 SLP873 T10611100 11061 21072 56026 TSNO;EQDQ01+000000PRSWM2
0177702600999992000012902534+64550-149080FM-15+0110PANN V0209999C000012200019N0160931N1-01801-02101099741ADDGF100991999999999999999999MA1099631999999MD1810201+9999MW1001REMMET085PANN 290253Z AUTO 00000KT 10SM CLR M18/M21 A2942 RMK AO2 SLP974 T11831206 58020 TSNO;EQDQ01+000000PRSWM2
0177702600999992000012914534+64550-149080FM-15+0110PANN V0202601N003112200019N0160931N1-01701-02101099491ADDGF100991999999999999999999MA1099361999999MD1310141+9999MW1001REMMET085PANN 291453Z AUTO 26006KT 10SM CLR M17/M21 A2934 RMK AO2 SLP949 T11721206 53014 TSNO;EQDQ01+000000PRSWM2
0186702600999992000020200534+64550-149080FM-15+0110PANN V0200801N007210300019N0160931N1-01701-02201099791ADDGD13991+0300099GF107991999999999999999999MA1099631999999MW1001OC101031REMMET085PANN 020053Z AUTO 08014G20KT 10SM BKN100 M17/M22 A2942 RMK AO2 SLP979 T11721222 TSNO;EQDQ01+000000PRSWM2
0177702600999992000021120534+64550-149080FM-15+0110PANN V0209999C000012200019N0160931N1-01301-01601101431ADDGF100991999999999999999999MA1101291999999MD1510011+9999MW1001REMMET085PANN 112053Z AUTO 00000KT 10SM CLR M13/M16 A2991 RMK AO2 SLP143 T11331161 55001 TSNO;EQDQ01+000000PRSWM2
0231702600999992000021311534+64550-149080FM-15+0110PANN V0209999C000012200019N0160931N1-01801-02001101741ADDGF100991999999999999999999KA1999M-01281KA2999N-01781MA1101591999999MD1310011+9999MW1001REMMET097PANN 131153Z AUTO 00000KT 10SM CLR M18/M20 A3000 RMK AO2 SLP174 T11781200 11128 21178 53000 TSNO;EQDQ01+000002APC3  Q02+000000PRSWM2
0157702600999992000021315534+64550-149080FM-15+0110PANN V0209999C000012200019N0160931N1-02001-02201101631ADDGF100991999999999999999999MA1101491999999MW1001REMMET079PANN 131553Z AUTO 00000KT 10SM CLR M20/M22 A2997 RMK AO2 SLP163 T12001222 TSNO;EQDQ01+000000PRSWM2
0157702600999992000021803534+64550-149080FM-15+0110PANN V0209999C000012200019N0160931N1-01301-01401100841ADDGF100991999999999999999999MA1100711999999MW1001REMMET079PANN 180353Z AUTO 00000KT 10SM CLR M13/M14 A2974 RMK AO2 SLP084 T11281144 TSNO;EQDQ01+000000PRSWM2
0177702600999992000021919534+64550-149080FM-15+0110PANN V0203101N004110270019N0160931N1-00901-01401098231ADDGD13991+0270099GF107991999999999999999999MA1098141999999MW1001REMMET084PANN 191953Z AUTO 31008KT 10SM BKN095 M09/M14 A2898 RMK AO2 SLP823 T10891139 TSNO $;EQDQ01+000000PRSWM2
0159702600999992000032009534+64550-149080FM-15+0110PANN V0209999C000012200019N0160931N1-01101-01401099271ADDGF100991999999999999999999MA1099151999999MW1001REMMET081PANN 200953Z AUTO 00000KT 10SM CLR M11/M14 A2928 RMK AO2 SLP927 T11111144 TSNO $;EQDQ01+000000PRSWM2
0227702600999992000033023534+64550-149080FM-15+0110PANN V0201901N008212200019N0160931N1+00601-00701100591ADDGF100991999999999999999999KA1999M+00721KA2999N-00061MA1100511999999MD1310221+9999MW1001OC101181REMMET101PANN 302353Z AUTO 19016G23KT 10SM CLR 06/M07 A2968 RMK AO2 SLP059 T00611072 10072 21006 53022 TSNO $;EQDQ01+000000PRSWM2
0158702600999992000033100534+64550-149080FM-15+0110PANN V0201901N005712200019N0160931N1+00601-00601100651ADDGF100991999999999999999999MA1100581999999MW1001REMMET080PANN 310053Z AUTO 19011KT 10SM CLR 06/M06 A2970 RMK AO2 SLP065 T00611061 TSNO $;EQDQ01+000000PRSWM2
0185702600999992000040112534+64550-149080FM-15+0110PANN V0202701N003610150019N0160931N1-00301-01101102961ADDGD14991+0150099GF108991999999999999999999MA1102841999999MW1001REMMET092PANN 011253Z AUTO 27007KT 230V290 10SM OVC055 M03/M11 A3037 RMK AO2 SLP296 T10331111 TSNO $;EQDQ01+000000PRSWM2
0159702600999992000040210534+64550-149080FM-15+0110PANN V0202801N001512200019N0160931N1-00701-01001102051ADDGF100991999999999999999999MA1101931999999MW1001REMMET081PANN 021053Z AUTO 28003KT 10SM CLR M07/M10 A3010 RMK AO2 SLP205 T10721100 TSNO $;EQDQ01+000000PRSWM2
0189702600999992000040302534+64550-149080FM-15+0110PANN V0203301N005112200019N0160931N1+00201-00901101471ADDGF100991999999999999999999MA1101351999999MD1610061+9999MW1001OC100721REMMET089PANN 030253Z AUTO 33010G14KT 10SM CLR 02/M09 A2993 RMK AO2 SLP147 T00221089 56006 TSNO $;EQDQ01+000000PRSWM2
0215702600999992000040911534+64550-149080FM-15+0110PANN V0209999C000012200019N0160931N1-01401-01701102721ADDGF100991999999999999999999KA1999M-00441KA2999N-01501MA1102611999999MD1110131+9999MW1001REMMET097PANN 091153Z AUTO 00000KT 10SM CLR M14/M17 A3030 RMK AO2 SLP272 T11391172 11044 21150 51013 TSNO;EQDQ01+000000PRSWM2
0214702600999992000042823534+64550-149080FM-15+0110PANN V0203601N006212200019N0160931N1+01101-00301100031ADDGF100991999999999999999999KA1999M+01171KA2999N+00611MA1099971999999MD1810161+9999MW1001REMMET096PANN 282353Z AUTO 36012KT 10SM CLR 11/M03 A2952 RMK AO2 SLP003 T01111028 10117 20061 58016 TSNO;EQDQ01+000000PRSWM2
0231702600999992000042911534+64550-149080FM-15+0110PANN V0209999C000012200019N0160931N1-00201-00401100081ADDGF100991999999999999999999KA1999M+00831KA2999N-00221MA1100001999999MD1310011+9999MW1001REMMET097PANN 291153Z AUTO 00000KT 10SM CLR M02/M04 A2953 RMK AO2 SLP008 T10221044 10083 21022 53000 TSNO;EQDQ01+000002APC3  Q02+000000PRSWM2
0250702600999992000050416534+64550-149080FM-15+0110PANN V0202501N005110075019N0144841N1-00101-00601100771ADDAA101000021GD13991+0075099GD24991+0180099GF108991999999999999999999MA1100711999999MW1711REMMET115PANN 041653Z AUTO 25010KT 210V280 9SM -SN BKN025 OVC060 M01/M06 A2974 RMK AO2 SNE13B47 SLP077 P0000 T10061056 TSNO;EQDQ01+000003PRSWM1Q02    003PRSWM1
0156702600999992000050615534+64550-149080FM-15+0110PANN V0201001N003612200019N0160931N1+00101-00901101621ADDGF100991999999999999999999MA1101521999999MW1001REMMET078PANN 061553Z AUTO 10007KT 10SM CLR 01/M09 A2998 RMK AO2 SLP162 T00111089 TSNO;EQDQ01+000000PRSWM2
0234702600999992000051817534+64550-149080FM-15+0110PANN V0202201N003110210019N0160931N1+01201-00101100711ADDGD14991+0210099GF108991999999999999999999KA1999M+01221KA2999N+00111MA1100641999999MD1310061+9999MW1001REMMET101PANN 181753Z AUTO 22006KT 10SM OVC070 12/M01 A2972 RMK AO2 SLP071 T01171011 10122 20011 53006 TSNO $;EQDQ01+000000PRSWM2
0175702600999992000052106534+64550-149080FM-15+0110PANN V0209999C000012200019N0160931N1+00601+00401100421ADDGD12991+0150099GF102991999999999999999999MA1100341999999MW1001REMMET082PANN 210653Z AUTO 00000KT 10SM FEW055 06/04 A2963 RMK AO2 SLP042 T00610039 TSNO $;EQDQ01+000000PRSWM2
0158702600999992000053007534+64550-149080FM-15+0110PANN V0209999C000012200019N0160931N1+00701-00101102121ADDGF100991999999999999999999MA1102071999999MW1001REMMET080PANN 300753Z AUTO 00000KT 10SM CLR 07/M01 A3014 RMK AO2 SLP212 T00721006 TSNO $;EQDQ01+000000PRSWM2
0213702600999992000060111534+64550-149080FM-15+0110PANN V0209999C000012200019N0160931N1+00301+00201102661ADDGF100991999999999999999999KA1999M+01331KA2999N+00281MA1102571999999MD1110041+9999MW1001REMMET095PANN 011153Z AUTO 00000KT 10SM CLR 03/02 A3029 RMK AO2 SLP266 T00330017 10133 20028 51004 TSNO;EQDQ01+000000PRSWM2
0173702600999992000060213534+64550-149080FM-15+0110PANN V0209999C000010330019N0160931N1+00801+00201102151ADDGD13991+0330099GF107991999999999999999999MA1102101999999MW1001REMMET080PANN 021353Z AUTO 00000KT 10SM BKN110 08/02 A3015 RMK AO2 SLP215 T00780022 TSNO;EQDQ01+000000PRSWM2
0173702600999992000060303534+64550-149080FM-15+0110PANN V0202001N003110180019N0160931N1+01501+00601102001ADDGD13991+0180099GF107991999999999999999999MA1101961999999MW1001REMMET080PANN 030353Z AUTO 20006KT 10SM BKN065 15/06 A3011 RMK AO2 SLP200 T01500061 TSNO;EQDQ01+000000PRSWM2
0184702600999992000060704534+64550-149080FM-15+0110PANN V0201501N008712200019N0160931N1+02201+00101100081ADDGF100991999999999999999999MA1100031999999MW1001OC101341REMMET098PANN 070453Z AUTO 15017G26KT 10SM CLR 22/01 A2954 RMK AO2 PK WND 15026/0446 SLP008 T02170006 TSNO;EQDQ01+000000PRSWM2
0155702600999992000061003534+64550-149080FM-15+0110PANN V0209999C000012200019N0160931N1+02101+00601100411ADDGF100991999999999999999999MA1100371999999MW1001REMMET077PANN 100353Z AUTO 00000KT 10SM CLR 21/06 A2964 RMK AO2 SLP041 T02110061 TSNO;EQDQ01+000000PRSWM2
0207702600999992000061512534+64550-149790FM-15+0110PANN V0202101N005110180019N0160931N1+01301+00801102011ADDAA101000021GD14991+0180099GF108991999999999999999999MA1101961999999MW1001OC100931REMMET095PANN 151253Z AUTO 21010G18KT 10SM OVC060 13/08 A3011 RMK AO2 RAE01 SLP201 P0000 T01280078 TSNO;EQDQ01+000000PRSWM2
0253702600999992000061623534+64550-149790FM-15+0110PANN V0203101N003610180019N0160931N1+01601+00301101511ADDGD13991+0180099GD24991+0240099GF108991999999999999999999KA1999M+01831KA2999N+01391MA1101461999999MD1610191+9999MW1001REMMET105PANN 162353Z AUTO 31007KT 10SM BKN065 OVC080 16/03 A2996 RMK AO2 SLP151 T01610028 10183 20139 56019 TSNO;EQDQ01+000000PRSWM2
0157702600999992000062419534+64550-149790FM-15+0110PANN V0209999V001512200019N0160931N1+02401+00401101821ADDGF100991999999999999999999MA1101761999999MW1001REMMET079PANN 241953Z AUTO VRB03KT 10SM CLR 24/04 A3005 RMK AO2 SLP182 T02390044 TSNO $;EQDQ01+000000PRSWM2
0231702600999992000071411534+64550-149790FM-15+0110PANN V0200601N003110210019N0160931N1+01201+00501101351ADDGD14991+0210099GF108991999999999999999999KA1999M+01501KA2999N+01171MA1101291999999MD1110021+9999MW1001REMMET098PANN 141153Z AUTO 06006KT 10SM OVC070 12/05 A2991 RMK AO2 SLP135 T01170050 10150 20117 51002 TSNO;EQDQ01+000000PRSWM2
0155702600999992000072007534+64550-149070FM-15+0110PANN V0209999C000012200019N0160931N1+01101+00901101011ADDGF100991999999999999999999MA1100951999999MW1001REMMET077PANN 200753Z AUTO 00000KT 10SM CLR 11/09 A2981 RMK AO2 SLP101 T01110094 TSNO;EQDQ01+000000PRSWM2
0155702600999992000072104534+64550-149070FM-15+0110PANN V0201801N008012200019N0160931N1+01901+00501100731ADDGF100991999999999999999999MA1100681999999MW1001REMMET077PANN 210453Z AUTO 18008KT 10SM CLR 19/05 A2973 RMK AO2 SLP073 T01890050 TSNO;EQDQ01+000000PRSWM2
0173702600999992000072703534+64550-149070FM-15+0110PANN V0201001N001510180019N0160931N1+01301+00601100771ADDGD14991+0180099GF108991999999999999999999MA1100711999999MW1001REMMET080PANN 270353Z AUTO 10003KT 10SM OVC065 13/06 A2974 RMK AO2 SLP077 T01280061 TSNO;EQDQ01+000000PRSWM2
0215702600999992000080405534+64550-149070FM-15+0110PANN V0209999C000012200019N0160931N1+01701+01001100961ADDGF100991999999999999999999KA1999M+02501KA2999N+01721MA1100911999999MD1110131+9999MW1001REMMET097PANN 040553Z AUTO 00000KT 10SM CLR 17/10 A2980 RMK AO2 SLP096 T01720100 10250 20172 51013 TSNO $;EQDQ01+000000PRSWM2
0193702600999992000080814534+64550-149070FM-15+0110PANN V0209999C000010180019N0160931N1+00801+00701102271ADDGD14991+0180099GF108991999999999999999999MA1102241999999MD1110101+9999MW1001REMMET086PANN 081453Z AUTO 00000KT 10SM OVC060 08/07 A3019 RMK AO2 SLP227 T00780067 51010 TSNO;EQDQ01+000000PRSWM2
0276702600999992000081202534+64550-149070FM-15+0110PANN V0209999V002110150019N0160931N1+01301+01101102271ADDAA101000021AA203000591GD12991+0123099GD24991+0150099GF108991999999999999999999MA1102201999999MD1410001+9999MW1001REMMET116PANN 120253Z AUTO VRB04KT 10SM FEW041 OVC055 13/11 A3018 RMK AO2 RAB22E32 SLP227 P0000 60002 T01280111 51000 TSNO $;EQDQ01+000012APCTENQ02+000000PRSWM2
0173702600999992000081918534+64550-149070FM-15+0110PANN V0209999V002610150019N0160931N1+00901+00401100661ADDGD14991+0150099GF108991999999999999999999MA1100611999999MW1001REMMET080PANN 191853Z AUTO VRB05KT 10SM OVC050 09/04 A2971 RMK AO2 SLP066 T00890039 TSNO;EQDQ01+000000PRSWM2
0155702600999992000082404534+64550-149070FM-15+0110PANN V0209999C000012200019N0160931N1+00901+00601101311ADDGF100991999999999999999999MA1101221999999MW1001REMMET077PANN 240453Z AUTO 00000KT 10SM CLR 09/06 A2989 RMK AO2 SLP131 T00890061 TSNO;EQDQ01+000000PRSWM2
0255702600999992000090714534+64550-149070FM-15+0110PANN V0202401N003610063019N0160931N1+00601+00501100121ADDAA101000021AA203000021GD14991+0063099GF108991999999999999999999MA1100071999999MD1110131+9999MW1611REMMET110PANN 071453Z AUTO 24007KT 210V280 10SM -RA OVC021 06/05 A2955 RMK AO2 SLP012 P0000 60000 T00610050 51013 TSNO;EQDQ01+000003PRSWM1Q02    003PRSWM1
0244702600999992000090718534+64550-149070FM-15+0110PANN V0209999V00311002401CN0160931N1+00701+00601100261ADDAA101000591GD13991+0027099GD24991+0051099GF108991999999999999999999MA1100201999999MW1611REMMET109PANN 071853Z AUTO VRB06KT 10SM -RA BKN009 OVC017 07/06 A2959 RMK AO2 CIG 008V012 SLP026 P0002 T00670056 TSNO;EQDQ01+000003PRSWM1Q02    003PRSWM1
0222702600999992000091721534+64550-149070FM-15+0110PANN V0203401N004610180019N0160931N1+00401-00401101181ADDAA101000021GD12991+0096099GD24991+0180099GF108991999999999999999999MA1101121999999MW1001REMMET103PANN 172153Z AUTO 34009KT 10SM SCT032 OVC060 04/M04 A2986 RMK AO2 SNB19E30 SLP118 P0000 T00391039 TSNO;EQDQ01+000000PRSWM2
0215702600999992000100105534+64550-149070FM-15+0110PANN V0202801N001512200019N0160931N1-00201-00901101771ADDGF100991999999999999999999KA1999M+00391KA2999N-00171MA1101661999999MD1110141+9999MW1001REMMET097PANN 010553Z AUTO 28003KT 10SM CLR M02/M09 A3002 RMK AO2 SLP177 T10171094 10039 21017 51014 TSNO;EQDQ01+000000PRSWM2
0174702600999992000100201534+64550-149070FM-15+0110PANN V0200601N002110300019N0160931N1+00201-00801101861ADDGD14991+0300099GF108991999999999999999999MA1101761999999MW1001REMMET081PANN 020153Z AUTO 06004KT 10SM OVC100 02/M08 A3005 RMK AO2 SLP186 T00171078 TSNO;EQDQ01+000000PRSWM2
0190702600999992000100412534+64550-149070FM-15+0110PANN V0200901N004110180019N0160931N1-00101-00901102191ADDGD14991+0180099GF108991999999999999999999MA1102101999999MW1001REMMET097PANN 041253Z AUTO 09008KT 10SM OVC060 M01/M09 A3015 RMK AO2 SLP219 T10111089 PWINO FZRANO TSNO $;EQDQ01+000000PRSWM2
0249702600999992000100708534+64550-149070FM-15+0110PANN V0209999C000010018019N0080461N1-00101-00201099541ADDGD14991+0018099GF108991999999999999999999KA1999M+00001KA2999N-00171MA1099461999999MD1110061+9999MW1101REMMET100PANN 070853Z AUTO 00000KT 5SM BR OVC006 M01/M02 A2937 RMK AO2 SLP954 T10111022 400001017 51006 TSNO;EQDQ01+000003PRSWM1Q02    003PRSWM1
0197702600999992000100901534+64550-149070FM-15+0110PANN V0202401N004110078019N0160931N1-00401-00801100961ADDGD12991+0060099GD23991+0078099GF107991999999999999999999MA1100851999999MW1001REMMET089PANN 090153Z AUTO 24008KT 10SM FEW020 BKN026 M04/M08 A2978 RMK AO2 SLP096 T10391078 TSNO;EQDQ01+000000PRSWM2
0157702600999992000101022534+64550-149070FM-15+0110PANN V0200701N005712200019N0160931N1-00301-01001100591ADDGF100991999999999999999999MA1100471999999MW1001REMMET079PANN 102253Z AUTO 07011KT 10SM CLR M03/M10 A2967 RMK AO2 SLP059 T10281100 TSNO;EQDQ01+000000PRSWM2
0215702600999992000101023534+64550-149070FM-15+0110PANN V0200801N004612200019N0160931N1-00201-00901100521ADDGF100991999999999999999999KA1999M-00221KA2999N-00721MA1100411999999MD1610201+9999MW1001REMMET097PANN 102353Z AUTO 08009KT 10SM CLR M02/M09 A2965 RMK AO2 SLP052 T10221089 11022 21072 56020 TSNO;EQDQ01+000000PRSWM2
0157702600999992000101119534+64550-149070FM-15+0110PANN V0202801N002612200019N0160931N1-00701-01101101461ADDGF100991999999999999999999MA1101351999999MW1001REMMET079PANN 111953Z AUTO 28005KT 10SM CLR M07/M11 A2993 RMK AO2 SLP146 T10721106 TSNO;EQDQ01+000000PRSWM2
0157702600999992000101209534+64550-149070FM-15+0110PANN V0209999C000012200019N0160931N1-01401-01701101641ADDGF100991999999999999999999MA1101521999999MW1001REMMET079PANN 120953Z AUTO 00000KT 10SM CLR M14/M17 A2998 RMK AO2 SLP164 T11441167 TSNO;EQDQ01+000000PRSWM2
0157702600999992000101518534+64550-149070FM-15+0110PANN V0209999C000012200019N0160931N1-00501-00601098811ADDGF100991999999999999999999MA1098711999999MW1001REMMET079PANN 151853Z AUTO 00000KT 10SM CLR M05/M06 A2915 RMK AO2 SLP881 T10501061 TSNO;EQDQ01+000000PRSWM2
0157702600999992000102204534+64550-149070FM-15+0110PANN V0200601N005112200019N0160931N1-00301-00801099371ADDGF100991999999999999999999MA1099261999999MW1001REMMET079PANN 220453Z AUTO 06010KT 10SM CLR M03/M08 A2931 RMK AO2 SLP937 T10331078 TSNO;EQDQ01+000000PRSWM2
0175702600999992000102521534+64550-149070FM-15+0110PANN V0202601N001510150019N0160931N1-00301-00701101121ADDGD14991+0150099GF108991999999999999999999MA1101021999999MW1001REMMET082PANN 252153Z AUTO 26003KT 10SM OVC050 M03/M07 A2983 RMK AO2 SLP112 T10281072 TSNO;EQDQ01+000000PRSWM2
0175702600999992000102619534+64550-149070FM-15+0110PANN V0200701N004110024019N0160931N1-00201-00401101061ADDGD14991+0024099GF108991999999999999999999MA1100951999999MW1001REMMET082PANN 261953Z AUTO 07008KT 10SM OVC008 M02/M04 A2981 RMK AO2 SLP106 T10171039 TSNO;EQDQ01+000000PRSWM2
0195702600999992000102620534+64550-149070FM-15+0110PANN V0200801N004610030019N0160931N1-00101-00401101031ADDGD14991+0030099GF108991999999999999999999MA1100951999999MD1810061+9999MW1001REMMET088PANN 262053Z AUTO 08009KT 10SM OVC010 M01/M04 A2981 RMK AO2 SLP103 T10111039 58006 TSNO;EQDQ01+000000PRSWM2
0169702600999992000102813374+64550-149070FM-15+0110PANN V0200801N00211000901CN0144841N1-00701-00801999999ADDGD14991+0018099GF108991999999999999999999MA1101631999999MW1001REMMET076PANN 281337Z AUTO 08004KT 9SM OVC006 M07/M08 A3001 RMK AO2 CIG 003V008 TSNO;EQDQ01+000000PRSWM2
0175702600999992000102904534+64550-149070FM-15+0110PANN V0200601N002110054019N0160931N1-00701-00901101271ADDGD14991+0054099GF108991999999999999999999MA1101151999999MW1001REMMET082PANN 290453Z AUTO 06004KT 10SM OVC018 M07/M09 A2987 RMK AO2 SLP127 T10671089 TSNO;EQDQ01+000000PRSWM2
0175702600999992000102906534+64550-149070FM-15+0110PANN V0209999C000010060019N0160931N1-00901-01101101221ADDGD14991+0060099GF108991999999999999999999MA1101121999999MW1001REMMET082PANN 290653Z AUTO 00000KT 10SM OVC020 M09/M11 A2986 RMK AO2 SLP122 T10891106 TSNO;EQDQ01+000000PRSWM2
0175702600999992000110409534+64550-149070FM-15+0110PANN V0200801N004610030019N0160931N1-00901-01201102251ADDGD14991+0030099GF108991999999999999999999MA1102131999999MW1001REMMET082PANN 040953Z AUTO 08009KT 10SM OVC010 M09/M12 A3016 RMK AO2 SLP225 T10891117 TSNO;EQDQ01+000000PRSWM2
0198702600999992000111204534+64550-149070FM-15+0110PANN V0202201N003610240019N0160931N1+00101-00301100371ADDGD13991+0240099GD24991+0270099GF108991999999999999999999MA1100271999999MW1001REMMET090PANN 120453Z AUTO 22007KT 10SM BKN080 OVC095 01/M03 A2961 RMK AO2 SLP037 T00111028 TSNO $;EQDQ01+000000PRSWM2
0159702600999992000111307534+64550-149070FM-15+0110PANN V0200701N006712200019N0160931N1-00601-00801101061ADDGF100991999999999999999999MA1100951999999MW1001REMMET081PANN 130753Z AUTO 07013KT 10SM CLR M06/M08 A2981 RMK AO2 SLP106 T10561078 TSNO $;EQDQ01+000000PRSWM2
0168702600999992000111613534+64550-149070FM-15+0110PANN V0200701N006712200019N0160931N1-00401-01101100831ADDGF100991999999999999999999MA1100711999999MW1001OC100981REMMET082PANN 161353Z AUTO 07013G19KT 10SM CLR M04/M11 A2974 RMK AO2 SLP083 T10441106 TSNO;EQDQ01+000000PRSWM2
0215702600999992000111623534+64550-149070FM-15+0110PANN V0200601N004612200019N0160931N1-00201-01001100581ADDGF100991999999999999999999KA1999M-00171KA2999N-00611MA1100471999999MD1810131+9999MW1001REMMET097PANN 162353Z AUTO 06009KT 10SM CLR M02/M10 A2967 RMK AO2 SLP058 T10171100 11017 21061 58013 TSNO;EQDQ01+000000PRSWM2
0233702600999992000111705534+64550-149070FM-15+0110PANN V0200701N005710300019N0160931N1-00201-00801100331ADDGD14991+0300099GF108991999999999999999999KA1999M-00111KA2999N-00281MA1100241999999MD1810101+9999MW1001REMMET100PANN 170553Z AUTO 07011KT 10SM OVC100 M02/M08 A2960 RMK AO2 SLP033 T10221083 11011 21028 58010 TSNO;EQDQ01+000000PRSWM2
0158702600999992000111913534+64550-149070FM-15+0110PANN V0200701N005712200019N0160931N1+00001-00701101031ADDGF100991999999999999999999MA1100911999999MW1001REMMET080PANN 191353Z AUTO 07011KT 10SM CLR 00/M07 A2980 RMK AO2 SLP103 T00001072 TSNO $;EQDQ01+000000PRSWM2
0159702600999992000112018534+64550-149070FM-15+0110PANN V0209999V001512200019N0160931N1-01001-01101100511ADDGF100991999999999999999999MA1100411999999MW1001REMMET081PANN 201853Z AUTO VRB03KT 10SM CLR M10/M11 A2965 RMK AO2 SLP051 T11001111 TSNO $;EQDQ01+000000PRSWM2
0157702600999992000112206534+64550-149070FM-15+0110PANN V0202801N002112200019N0160931N1-00701-00901099411ADDGF100991999999999999999999MA1099321999999MW1001REMMET079PANN 220653Z AUTO 28004KT 10SM CLR M07/M09 A2933 RMK AO2 SLP941 T10721089 TSNO;EQDQ01+000000PRSWM2
0177702600999992000112402534+64550-149070FM-15+0110PANN V0209999C000012200019N0160931N1-02101-02401099461ADDGF100991999999999999999999MA1099321999999MD1310021+9999MW1001REMMET085PANN 240253Z AUTO 00000KT 10SM CLR M21/M24 A2933 RMK AO2 SLP946 T12111239 53002 TSNO;EQDQ01+000000PRSWM2
0157702600999992000120713534+64550-149070FM-15+0110PANN V0200701N003612200019N0160931N1-00701-01001102081ADDGF100991999999999999999999MA1101961999999MW1001REMMET079PANN 071353Z AUTO 07007KT 10SM CLR M07/M10 A3011 RMK AO2 SLP208 T10721100 TSNO;EQDQ01+000000PRSWM2
0215702600999992000121117534+64550-149070FM-15+0110PANN V0209999V002112200019N0160931N1-01201-01401101881ADDGF100991999999999999999999KA1999M-01111KA2999N-01671MA1101761999999MD1310081+9999MW1001REMMET097PANN 111753Z AUTO VRB04KT 10SM CLR M12/M14 A3005 RMK AO2 SLP188 T11171144 11111 21167 53008 TSNO;EQDQ01+000000PRSWM2
0159702600999992000121819534+64550-149070FM-15+0110PANN V0203101N004112200019N0160931N1-01601-02101100181ADDGF100991999999999999999999MA1100071999999MW1001REMMET081PANN 181953Z AUTO 31008KT 10SM CLR M16/M21 A2955 RMK AO2 SLP018 T11561211 TSNO $;EQDQ01+000000PRSWM2
0264702600999992000121908534+64550-149070FM-15+0110PANN V0200701N008710210019N0160931N1-00901-01701100621ADDGD13991+0210099GD24991+0270099GF108991999999999999999999KA1999M-00941KA2999N-01721MA1100511999999MD1310101+9999MW1001OC101181REMMET108PANN 190853Z AUTO 07017G23KT 10SM BKN075 OVC095 M09/M17 A2968 RMK AO2 SLP062 T10941172 410941172 53010 TSNO;EQDQ01+000000PRSWM2
0215702600999992000121917534+64550-149070FM-15+0110PANN V0200801N006212200019N0160931N1-00301-01001101161ADDGF100991999999999999999999KA1999M-00281KA2999N-00831MA1101051999999MD1110201+9999MW1001REMMET097PANN 191753Z AUTO 08012KT 10SM CLR M03/M10 A2984 RMK AO2 SLP116 T10281100 11028 21083 51020 TSNO;EQDQ01+000000PRSWM2
0167702600999992000122001534+64550-149070FM-15+0110PANN V0200701N006712200019N0160931N1+00101-00801101391ADDGF100991999999999999999999MA1101291999999MW1001OC100981REMMET081PANN 200153Z AUTO 07013G19KT 10SM CLR 01/M08 A2991 RMK AO2 SLP139 T00061078 TSNO;EQDQ01+000000PRSWM2
0175702600999992000122119534+64550-149070FM-15+0110PANN V0209999C000010210019N0160931N1-00901-01301101291ADDGD14991+0210099GF108991999999999999999999MA1101191999999MW1001REMMET082PANN 211953Z AUTO 00000KT 10SM OVC070 M09/M13 A2988 RMK AO2 SLP129 T10891128 TSNO;EQDQ01+000000PRSWM2
0244702600999992000122405534+64550-149070FM-15+0110PANN V0200701N007212200019N0160931N1-01101-01601101161ADDGF100991999999999999999999KA1999M-01001KA2999N-01111MA1101051999999MD1510021+9999MW1001OC101181REMMET118PANN 240553Z AUTO 07014G23KT 10SM CLR M11/M16 A2984 RMK AO2 PK WND 07026/0528 SLP116 T11061161 11100 21111 55002 TSNO;EQDQ01+000000PRSWM2
0157702600999992000122415534+64550-149070FM-15+0110PANN V0200601N006212200019N0160931N1-00801-01601101291ADDGF100991999999999999999999MA1101151999999MW1001REMMET079PANN 241553Z AUTO 06012KT 10SM CLR M08/M16 A2987 RMK AO2 SLP129 T10831156 TSNO;EQDQ01+000000PRSWM2
0168702606999992000010306464+62880-149830FM-15+0381PAEC V0200401N005110180019N0128741N1-01801-02001999999ADDGD14991+0180019GF108991999999999999999999MA1100981999999MW1001REMMET075PAEC 030646Z 04010KT 8SM OVC060 M18/M20 A2982 RMK MAX:-17 M21 NOSPECI LAST;EQDQ01+000000PRSWM2
0163702606999992000010815464+62880-149830FM-15+0381PAEC V0200301N005110060019N0160931N1-00901-01001999999ADDGD14991+0060019GF108991999999999999999999MA1097361999999MW1001OC101031REMMET062PAEC 081546Z 03010G20KT 10SM OVC020 M09/M10 A2875 RMK NOSPECI;EQDQ01+000000PRSWM2
0223702606999992000011918023+62880-149830FM-15+0381PAEC V0209999C00001000151CN0002011N1-00501-00601999999ADDGD15991+0001519GF109991999999000251999999GP10060000001000000001000000001000GR100600000900009MA1101521999999MW1751REMMET063PAEC 191802Z 00000KT 1/8SM +SN VV001 M05/M06 A2998 RMK NOSPECI;EQDQ01+000003PRSWM1Q02    003PRSWM1
0054702606999992000012114009+62883-149833NSRDB+038199999V020999999999999999999999999999+99999+99999999999ADDGP10060000001000000001000000001000GR100600000900009
0071702606999992000020401009+62883-149833NSRDB+038199999V020999999999999999999999999999+99999+99999999999ADDGP10060002101025000001028002101025GQ100600837921289GR100600155914089
0054702606999992000020415009+62883-149833NSRDB+038199999V020999999999999999999999999999+99999+99999999999ADDGP10060000001000000001000000001000GR100600000900009
0054702606999992000020617009+62883-149833NSRDB+038199999V020999999999999999999999999999+99999+99999999999ADDGP10060000001000000001000000001000GR100600000900009
0071702606999992000020822009+62883-149833NSRDB+038199999V020999999999999999999999999999+99999+99999999999ADDGP10060016801025038501028009001025GQ100600783916939GR100600284914069
0071702606999992000021003009+62883-149833NSRDB+038199999V020999999999999999999999999999+99999+99999999999ADDGP10060000001025000001028000001025GQ100600893923599GR100600005904109
0054702606999992000022308009+62883-149833NSRDB+038199999V020999999999999999999999999999+99999+99999999999ADDGP10060000001000000001000000001000GR100600000900009
0054702606999992000022417009+62883-149833NSRDB+038199999V020999999999999999999999999999+99999+99999999999ADDGP10060000001000000001000000001000GR100600000900009
0054702606999992000022709009+62883-149833NSRDB+038199999V020999999999999999999999999999+99999+99999999999ADDGP10060000001000000001000000001000GR100600000900009
0071702606999992000030103009+62883-149833NSRDB+038199999V020999999999999999999999999999+99999+99999999999ADDGP10060003701025004001028003401025GQ100600854924399GR100600112913939
0071702606999992000030104009+62883-149833NSRDB+038199999V020999999999999999999999999999+99999+99999999999ADDGP10060000101025000101028000101025GQ100600892925269GR100600006904069
0174702606999992000030200524+62880-149830FM-15+0381PAEC V0200201N002610900019N0804671N1-00101-00601999999ADDGD12991+0690019GD23991+0900019GF107991999999999999999999MA1099531999999MW1001REMMET066PAEC 020052Z 02005KT 50SM SCT230 BKN300 M01/M06 A2939 RMK NOSPECI;EQDQ01+000000PRSWM2
0054702606999992000030716009+62883-149833NSRDB+038199999V020999999999999999999999999999+99999+99999999999ADDGP10060000001000000001000000001000GR100600000900009
0054702606999992000031009009+62883-149833NSRDB+038199999V020999999999999999999999999999+99999+99999999999ADDGP10060000001000000001000000001000GR100600000900009
0054702606999992000031210009+62883-149833NSRDB+038199999V020999999999999999999999999999+99999+99999999999ADDGP10060000001000000001000000001000GR100600000900009
0054702606999992000031311009+62883-149833NSRDB+038199999V020999999999999999999999999999+99999+99999999999ADDGP10060000001000000001000000001000GR100600000900009
0054702606999992000031314009+62883-149833NSRDB+038199999V020999999999999999999999999999+99999+99999999999ADDGP10060000001000000001000000001000GR100600000900009
0233702606999992000031617003+62880-149830FM-15+0381PAEC V0200201N006210450019N0643731N1-00401-00601999999ADDGD14991+0450019GF108991999999999999999999GP10060000801025000001028000801025GQ100600876909729GR100600043910479MA1098821999999MW1001REMMET072PAEC 161658Z 02012KT 40SM OVC150 M04/M06 A2918 RMK BINOVC ALQDS NOSPECI;EQDQ01+000000PRSWM2
0183702606999992000032100514+62880-149830FM-15+0381PAEC V0200101N003610069019N0241401N1+00101-00401999999ADDGD12991+0018019GD24991+0069019GF108991999999999999999999MA1099291999999MW1001REMMET075PAEC 210051Z 01007KT 15SM FEW006 OVC023 01/M04 A2932 RMK VISBY W 2 NOSPECI;EQDQ01+000000PRSWM2
0054702606999992000033013009+62883-149833NSRDB+038199999V020999999999999999999999999999+99999+99999999999ADDGP10060000001000000001000000001000GR100600000900009
0207702606999992000040517504+62880-149830FM-15+0381PAEC V0200801N005110300019N0482801N1-00501-01001999999ADDGD12991+0060019GD23991+0300019GD34991+0840019GF108991999999999999999999MA1100641999999MW1001REMMET084PAEC 051750Z 08010KT 30SM FEW020 BKN100 OVC280 M05/M10 A2972 RMK BINOVC OHD NOSPECI;EQDQ01+000000PRSWM2
0071702606999992000040605009+62883-149833NSRDB+038199999V020999999999999999999999999999+99999+99999999999ADDGP10060001001025000001028001001025GQ100600870927919GR100600070913319
0054702606999992000040609009+62883-149833NSRDB+038199999V020999999999999999999999999999+99999+99999999999ADDGP10060000001000000001000000001000GR100600000900009
0134702606999992000040715474+62880-149830FM-15+0381PAEC V0200701N005112200019N0804671N1-01101-01501999999ADDGF100991999999999999999999MA1100981999999MW1001REMMET056PAEC 071547Z 07010KT 50SM SKC M11/M15 A2982 RMK NOSPECI;EQDQ01+000000PRSWM2
0071702606999992000041315009+62883-149833NSRDB+038199999V020999999999999999999999999999+99999+99999999999ADDGP10060000101028000701031000101028GQ100600891907039GR100600007904649
0241702606999992000042423003+62880-149830FM-15+0381PAEC V0203601N002110240019N0804671N1+00301-00501999999ADDGD12991+0180019GD23991+0240019GF107991999999999999999999GP10060033401025009801028027001025GQ100600501919049GR100600866913509MA1101461999999MW1001REMMET065PAEC 242258Z 36004KT 50SM SCT060 BKN080 03/M05 A2996 RMK NOSPECI;EQDQ01+000000PRSWM2
0173702606999992000042816484+62880-149830FM-15+0381PAEC V0200301N005110480019N0804671N1+00101-00501999999ADDGD12991+0300019GD23991+0480019GF107991999999999999999999MA1100101999999MW1001REMMET065PAEC 281648Z 03010KT 50SM SCT100 BKN160 01/M05 A2956 RMK NOSPECI;EQDQ01+000000PRSWM2
0071702606999992000042915009+62883-149833NSRDB+038199999V020999999999999999999999999999+99999+99999999999ADDGP10060001401025000001028001401025GQ100600861906439GR100600090913479
0054702606999992000050511009+62883-149833NSRDB+038199999V020999999999999999999999999999+99999+99999999999ADDGP10060000001000000001000000001000GR100600000900009
0151702606999992000050517484+62880-149830FM-15+0381PAEC V0200401N007212200019N0804671N1+00001-00901999999ADDGD12991+0600019GF102991999999999999999999MA1101151999999MW1001REMMET058PAEC 051748Z 04014KT 50SM FEW200 00/M09 A2987 RMK NOSPECI;EQDQ01+000000PRSWM2
0133702606999992000050715494+62880-149830FM-15+0381PAEC V0200301N005112200019N0804671N1+00201-00301999999ADDGF100991999999999999999999MA1101461999999MW1001REMMET055PAEC 071549Z 03010KT 50SM SKC 02/M03 A2996 RMK NOSPECI;EQDQ01+000000PRSWM2
0071702606999992000051502009+62883-149833NSRDB+038199999V020999999999999999999999999999+99999+99999999999ADDGP10060014201025000001028014201025GQ100600570924519GR100600727913379
0151702606999992000051715464+62880-149830FM-15+0381PAEC V0200601N003110300019N0643731N1+00301-00301999999ADDGD13991+0300019GF107991999999999999999999MA1100811999999MW1001REMMET058PAEC 171546Z 06006KT 40SM BKN100 03/M03 A2977 RMK NOSPECI;EQDQ01+000000PRSWM2
0054702606999992000052210009+62883-149833NSRDB+038199999V020999999999999999999999999999+99999+99999999999ADDGP10060000001000000001000000001000GR100600000900009
0054702606999992000052411009+62883-149833NSRDB+038199999V020999999999999999999999999999+99999+99999999999ADDGP10060000001000000001000000001000GR100600000900009
0191702606999992000052506504+62880-149830FM-15+0381PAEC V0209999C000010180019N0482801N1+00401-00101999999ADDGD13991+0180019GD24991+0300019GF108991999999999999999999MA1102031999999MW1001REMMET083PAEC 250650Z 00000KT 30SM BKN060 OVC100 04/M01 A3013 RMK MAX:8 MIN:-1 NOSPECI LAST;EQDQ01+000000PRSWM2
0071702606999992000052908009+62883-149833NSRDB+038199999V020999999999999999999999999999+99999+99999999999ADDGP10060000101025000701028000101025GQ100600892932299GR100609999906549
