0133122000999992000121709004+53920+014230FM-12+000599999V0202601N001012200019N0200001N1+00401+00381100751ADDGF103991011051008001031001MA1999999100681MD1210281+9999REMSYN066AAXX  17091 12200 42570 32601 10040 20038 30068 40075 52028 81530;
0189122000999992000121720004+53920+014230FM-12+000599999V0202301N002010075019N0060001N1+00351+00301101301ADDAY121999AY221999GF106991061051008001001001MA1999999101231MD1210141+9999MW1101REMSYN100AAXX  17201 12200 41556 62302 10035 20030 30123 40130 52014 71022 86500 555 00047 10050 20042 31014;
0161122000999992000121817004+53920+014230FM-12+000599999V0201601N001010042019N0025001N1+00171+00151101991ADDAY121999AY221999GF107991071051004501999999MA1999999101921MD1110041+9999MW1101REMSYN072AAXX  18171 12200 41425 71601 10017 20015 30192 40199 51004 71022 875//;
0161122050999992000010803004+53400+014620FM-12+0003EPSC V0202301N005012200019N0050001N1+00251+00231101901ADDAY111031AY211031GF103991031051004501001001MA1999999101821MD1610111+9999MW1101REMSYN072AAXX  08031 12205 41450 32305 10025 20023 30182 40190 56011 71011 83500;
0290122050999992000011606004+53400+014620FM-12+000399999V0202201N00301001201SN0025001N1-00121-00141102881ADDAA124000791AJ199992999999999AY111061AY211061GF108991081061001501999999IA1259IA2999-00609KA1120M+00001KA2120N-00351MA1999999102791MD1810091+9999MW1281REMSYN110    AAXX  16061 12205 31225 82203 11012 21014 30279 40288 58009 72811 886// 333 10000 21035 3/106 41998 79999;EQDQ01  09972SNDP  
0153122050999992000011904004+53400+014620FM-12+000399999V0203301N00501220001SN0200001N1+00231-00301101611ADDGF101991011051008001001001MA1999999101531MD1210171+9999REMSYN086    AAXX  19041 12205 42570 13305 10023 21030 30153 40161 52017 81500 333 91011 91113;
0161122050999992000012009004+53400+014620FM-12+0003EPSC V0202601N004010042019N0060001N1+00261+00211101581ADDAY121031AY221031GF108991081051004501999999MA1999999101501MD1710171+9999MW1101REMSYN072AAXX  20091 12205 41456 82604 10026 20021 30150 40158 57017 71022 885//;
0161122050999992000012014004+53400+014620FM-12+0003EPSC V0202601N004010042019N0080001N1+00451+00411101111ADDAY161999AY221999GF107991071031004501999999MA1999999101031MD1710321+9999MW1801REMSYN072AAXX  20141 12205 41458 72604 10045 20041 30103 40111 57032 78062 873//;
0171122050999992000012015004+53400+014620FM-12+0003EPSC V0202701N005010021019N0050001N1+00381+00341100991ADDAY181031AY261031GF108991061071002501021999MA1999999100911MD1710311+9999MW1611REMSYN082AAXX  20151 12205 41350 82705 10038 20034 30091 40099 57031 76186 8672/ 333 91112;
0133122050999992000020316004+53400+014620FM-12+0003EPSC V0203101N005012200019N0150001N1+00371-00051102431ADDGF103991031051004501001001MA1999999102351MD1210471+9999REMSYN066AAXX  03161 12205 42465 33105 10037 21005 30235 40243 52047 83500;
0133122050999992000020804004+53400+014620FM-12+0003EPSC V0202101N007019999999N0150001N1+00691+00441100081ADDGF108991081001999999071999MA1999999100001MD1710301+9999REMSYN066AAXX  08041 12205 42965 82107 10069 20044 30000 40008 57030 8807/;
0211122050999992000020920004+53400+014620FM-12+0003EPSC V0203001N007010075019N0100001N1+00481+00351100921ADDAY121999AY221999GF107991071031008001999999MA1999999100841MD1110581+9999MW1251REMSYN122AAXX  09201 12205 41560 73007 10048 20035 30084 40092 51058 72522 873// 333 91014 91115 555 00042 10053 20036 30015 70080;
0161122050999992000021305004+53400+014620FM-12+0003EPSC V0202201N006012200019N0080001N1+00201+00101101191ADDAY111999AY211999GF104991041051004501001001MA1999999101111MD1710031+9999MW1101REMSYN072AAXX  13051 12205 41458 42206 10020 20010 30111 40119 57003 71011 84500;
0177122050999992000021405004+53400+014620FM-12+0003EPSC V0203101N005010042019N0030001N1+00101+00051101301ADDAY121999AY221999GF107991071031004501999999MA1999999101221MD1310021+9999MW1861REMSYN088AAXX  14051 12205 41430 73105 10010 20005 30122 40130 53002 78622 873// 333 91011 91111;
0177122050999992000021615004+53400+014620FM-12+0003EPSC V0202401N008010042019N0080001N1+00291+00241099321ADDAY161031AY261031GF107991071031004501999999MA1999999099241MD1310031+9999MW1801REMSYN088AAXX  16151 12205 41458 72408 10029 20024 39924 49932 53003 78066 873// 333 91014 91114;
0161122050999992000022102004+53400+014620FM-12+0003EPSC V0201901N001010075019N0070001N1-00101-00151102651ADDAY121999AY221999GF107991071051008001999999MA1999999102561MD1210031+9999MW1101REMSYN072AAXX  21021 12205 41557 71901 11010 21015 30256 40265 52003 71022 875//;
0161122050999992000022314004+53400+014620FM-12+0003EPSC V0201201N003010021019N0025001N1+00181+00131102581ADDAY121999AY221999GF108991081061002501999999MA1999999102491MD1210011+9999MW1101REMSYN072AAXX  23141 12205 41325 81203 10018 20013 30249 40258 52001 71022 886//;
0262122050999992000022906004+53400+014620FM-12+0003EPSC V0202101N006012200019N0070001N1+00371+00331101631ADDAA112003091AY161061AY211061GF103991001001999999001051IA1099IA2999+00109KA1120M+01231KA2120N+00371MA1999999101551MD1010041+9999MW1101REMSYN118AAXX  29061 12205 11957 32106 10037 20033 30155 40163 50004 60032 71061 80005 333 10123 20037 31001 55049 70030 91112;
0143122050999992000031313004+53400+014620FM-12+0003EPSC V0202301N004010075019N0200001N1+00931+00481102241ADDGF106991061021008001001001MA1999999102161MD1810131+9999REMSYN076AAXX  13131 12205 42570 62304 10093 20048 30216 40224 58013 86200 555 57024;
0161122050999992000032617004+53400+014620FM-12+0003EPSC V0202401N003010042019N0060001N1+01001+00751100841ADDAY121999AY221999GF107991071031004501999999MA1999999100761MD1310161+9999MW1101REMSYN072AAXX  26171 12205 41456 72403 10100 20075 30076 40084 53016 71022 873//;
0189122050999992000032820004+53400+014620FM-12+0003EPSC V0200201N004010021019N0030001N1+00541+00501101711ADDAY161999AY261999GF108991061071002501021999MA1999999101631MD1110191+9999MW1611REMSYN100AAXX  28201 12205 41330 80204 10054 20050 30163 40171 51019 76166 8672/ 555 00059 10066 20053 30041;
0171122050999992000033101004+53400+014620FM-12+0003EPSC V0200301N002010021019N0040001N1+00491+00471100511ADDAY161011AY261011GF108991061071002501021999MA1999999100431MD1710101+9999MW1611REMSYN082AAXX  31011 12205 41340 80302 10049 20047 30043 40051 57010 76166 8672/ 555 57001;
0171122050999992000040504004+53400+014620FM-12+0003EPSC V0209999C000012200019N0003001N1+00161+00161099611ADDAY141999AY241999GA1001+999999999GF100991001001999999001001MA1999999099531MD1310091+9999MW1441REMSYN066AAXX  05041 12205 41903 00000 10016 20016 39953 49961 53009 74444;
0171122050999992000041301004+53400+014620FM-12+0003EPSC V0202101N004012200019N0060001N1+00371+00351099591ADDAY101999AY201999GF102991021051004501001001MA1999999099511MD1010021+9999MW1101REMSYN082AAXX  13011 12205 41456 22104 10037 20035 39951 49959 50002 71000 82500 555 57001;
0133122050999992000042316004+53400+014620FM-12+0003EPSC V0201201N006012200019N0200001N1+02631+00941100771ADDGF103991001001999999001021MA1999999100691MD1610091+9999REMSYN066AAXX  23161 12205 42970 31206 10263 20094 30069 40077 56009 80002;
0163122050999992000050412004+53400+014620FM-12+0003EPSC V0200201N003012200019N0150001N1+02001+00211101971ADDAA199000091GF103991001001999999001021MA1999999101891MD1710061+9999REMSYN066AAXX  04121 12205 32965 30203 10200 20021 30189 40197 57006 80002;EQDQ01  00002PRCP99
0143122050999992000050421004+53400+014620FM-12+0003EPSC V0200301N003012200019N0200001N1+01251+00581102081ADDGA1001+999999999GF100991001001999999001001MA1999999102001MD1210131+9999REMSYN060AAXX  04211 12205 42970 00303 10125 20058 30200 40208 52013;
0133122050999992000050710004+53400+014620FM-12+0003EPSC V0200701N004012200019N0200001N1+02101+00641102221ADDGF102991001001999999001011MA1999999102141MD1810021+9999REMSYN066AAXX  07101 12205 42970 20704 10210 20064 30214 40222 58002 80001;
0153122050999992000051301004+53400+014620FM-12+0003EPSC V0200601N002012200019N0200001N1+00601+00291102861ADDGA1001+999999999GF100991001001999999001001MA1999999102781MD1110031+9999REMSYN070AAXX  13011 12205 42970 00602 10060 20029 30278 40286 51003 555 57027;
0153122050999992000051313004+53400+014620FM-12+0003EPSC V0201801N001012200019N0200001N1+01751+00271102711ADDGA1001+999999999GF100991001001999999001001MA1999999102631MD1710131+9999REMSYN070AAXX  13131 12205 42970 01801 10175 20027 30263 40271 57013 555 57117;
0153122050999992000051601004+53400+014620FM-12+0003EPSC V0200601N002012200019N0200001N1+01311+01081101831ADDGA1001+999999999GF100991001001999999001001MA1999999101751MD1810081+9999REMSYN070AAXX  16011 12205 42970 00602 10131 20108 30175 40183 58008 555 57019;
0173122050999992000051720004+53400+014620FM-12+0003EPSC V0203101N003010075019N0200001N1+01761+01361101031ADDGF107991071051008001999999MA1999999100951MD1210181+9999REMSYN106AAXX  17201 12205 42570 73103 10176 20136 30095 40103 52018 875// 555 00209 10264 20171 30044 55116 60228;
0163122050999992000052212004+53400+014620FM-12+0003EPSC V0203301N001010075019N0150001N1+01701+00851101001ADDAA199000091GF107991061021008001001021MA1999999100921MD1310021+9999REMSYN066AAXX  22121 12205 32565 73301 10170 20085 30092 40100 53002 86202;EQDQ01  00002PRCP99
0143122050999992000052213004+53400+014620FM-12+0003EPSC V0203401N001010075019N0150001N1+01701+00711101041ADDGF107991071021008001999999MA1999999100961MD1310071+9999REMSYN076AAXX  22131 12205 42565 73401 10170 20071 30096 40104 53007 872// 555 57083;
0179122050999992000060320004+53400+014620FM-12+0003EPSC V0200301N002012200019N0200001N1+01501+01191102041ADDGF104991011001999999031021MA1999999101961MD1210011+9999REMSYN112AAXX  03201 12205 42970 40302 10150 20119 30196 40204 52001 81032 555 00204 10245 20166 30055 55038 60271 70252;
0133122050999992000060916004+53400+014620FM-12+0003EPSC V0201201N005012200019N0300001N1+02411+00761101911ADDGF101991001001999999001011MA1999999101831MD1810181+9999REMSYN066AAXX  09161 12205 42980 11205 10241 20076 30183 40191 58018 80001;
0133122050999992000061811004+53400+014620FM-12+0003EPSC V0202301N002010300019N0200001N1+01801+00751102761ADDGF105991021011008001031001MA1999999102681MD1710041+9999REMSYN066AAXX  18111 12205 42570 52302 10180 20075 30268 40276 57004 82130;
0133122050999992000062605004+53400+014620FM-12+0003EPSC V0202501N005010075019N0200001N1+01181+00921101241ADDGF108991081051008001999999MA1999999101161MD1310031+9999REMSYN066AAXX  26051 12205 42570 82505 10118 20092 30116 40124 53003 885//;
0161122050999992000062917004+53400+014620FM-12+0003EPSC V0202401N002010042019N0150001N1+01231+01141101441ADDAY121999AY221999GF107991071031004501999999MA1999999101361MD1610021+9999MW1251REMSYN072AAXX  29171 12205 41465 72402 10123 20114 30136 40144 56002 72522 873//;
0250122050999992000063006004+53400+014620FM-12+0003EPSC V0202401N002010042019N0050001N1+01161+01121101071ADDAA112001091AY181061AY221061GF107991071031004501999999IA1099IA2999+00809KA1120M+01251KA2120N+00981MA1999999100991MD1610061+9999MW1251REMSYN106AAXX  30061 12205 11450 72402 10116 20112 30099 40107 56006 60012 72582 873// 333 10125 20098 31008 70042;
0153122050999992000070222004+53400+014620FM-12+0003EPSC V0200301N001012200019N0120001N1+01321+01181101341ADDGA1001+999999999GF100991001001999999001001MA1999999101261MD1010001+9999REMSYN070AAXX  02221 12205 42962 00301 10132 20118 30126 40134 50000 555 60151;
0143122050999992000070307004+53400+014620FM-12+0003EPSC V0200501N002010750019N0150001N1+01761+01291101231ADDGF105991031051012501001021MA1999999101151MD1010011+9999REMSYN076AAXX  03071 12205 42665 50502 10176 20129 30115 40123 50001 83502 555 57023;
0133122050999992000070621004+53400+014620FM-12+0003EPSC V0202401N001010075019N0100001N1+01441+01271101791ADDGF106991061051008001001001MA1999999101711MD1210051+9999REMSYN066AAXX  06211 12205 42560 62401 10144 20127 30171 40179 52005 86500;
0133122050999992000070909004+53400+014620FM-12+0003EPSC V0202101N005010042019N0150001N1+01451+01141100671ADDGF107991071021004501999999MA1999999100591MD1710081+9999REMSYN066AAXX  09091 12205 42465 72105 10145 20114 30059 40067 57008 872//;
0178122050999992000070912004+53400+014620FM-12+0003EPSC V0202001N003010075019N0120001N1+01761+01261100481ADDAA106000191AY121061AY221061GF106991061031008001001001MA1999999100401MD1710191+9999MW1251REMSYN078AAXX  09121 12205 11562 62003 10176 20126 30040 40048 57019 69921 72522 86300;
0143122050999992000080808004+53400+014620FM-12+0003EPSC V0202501N003010300019N0200001N1+01501+00961101811ADDGF106991041021004501031001MA1999999101731MD1110031+9999REMSYN076AAXX  08081 12205 42470 62503 10150 20096 30173 40181 51003 84230 333 96122;
0201122050999992000081300004+53400+014620FM-12+0003EPSC V0202101N001012200019N0100001N1+01081+01061101731ADDAA199000091AY101061AY201061GA1001+999999999GF100991001001999999001001MA1999999101651MD1210091+9999MW1111REMSYN066AAXX  13001 12205 31960 02101 10108 20106 30165 40173 52009 71100;EQDQ01  00002PRCP99
0171122050999992000081723004+53400+014620FM-12+0003EPSC V0202101N001012200019N0200001N1+01531+01511101321ADDAY101999AY201999GA1001+999999999GF100991001001999999001001MA1999999101241MD1110051+9999MW1111REMSYN066AAXX  17231 12205 41970 02101 10153 20151 30124 40132 51005 71100;
0205122050999992000082018004+53400+014620FM-12+0003EPSC V0200101N001010075019N0100001N1+01821+01411101441ADDAA199000091GF107991051051008001031021KA1120M+02501KA2999N+01821MA1999999101361MD1210121+9999REMSYN082AAXX  20181 12205 32560 70101 10182 20141 30136 40144 52012 85532 333 10250 20182;EQDQ01  00002PRCP99
0143122050999992000082921004+53400+014620FM-12+0003EPSC V0201201N001012200019N0150001N1+01381+01311101921ADDGA1001+999999999GF100991001001999999001001MA1999999101841MD1110051+9999REMSYN060AAXX  29211 12205 42965 01201 10138 20131 30184 40192 51005;
0133122050999992000083003004+53400+014620FM-12+0003EPSC V0202201N003010075019N0150001N1+01201+01161101761ADDGF106991051051008001031001MA1999999101681MD1710091+9999REMSYN066AAXX  30031 12205 42565 62203 10120 20116 30168 40176 57009 85530;
0171122050999992000092104004+53400+014620FM-12+0003EPSC V0200801N001012200019N0150001N1+00551+00531101921ADDAY101999AY201999GA1001+999999999GF100991001001999999001001MA1999999101841MD1410001+9999MW1111REMSYN066AAXX  21041 12205 41965 00801 10055 20053 30184 40192 54000 71100;
0133122050999992000092210004+53400+014620FM-12+0003EPSC V0200601N001019999999N0100001N1+01401+01161102721ADDGF105991051001999999051001MA1999999102641MD1110091+9999REMSYN066AAXX  22101 12205 42960 50601 10140 20116 30264 40272 51009 85050;
0143122050999992000092514004+53400+014620FM-12+0003EPSC V0201101N005012200019N0150001N1+01601+00891102351ADDGA1001+999999999GF100991001001999999001001MA1999999102271MD1710101+9999REMSYN060AAXX  25141 12205 42965 01105 10160 20089 30227 40235 57010;
0171122050999992000093009004+53400+014620FM-12+0003EPSC V0200901N007012200019N0080001N1+01521+01081101131ADDAY101031AY201031GA1001+999999999GF100991001001999999001001MA1999999101051MD1010031+9999MW1101REMSYN066AAXX  30091 12205 41958 00907 10152 20108 30105 40113 50003 71000;
0171122050999992000100419004+53400+014620FM-12+0003EPSC V0201201N002012200019N0050001N1+01351+01331102121ADDAY101999AY201999GF103991031051004501001001MA1999999102041MD1310021+9999MW1101REMSYN082AAXX  04191 12205 41450 31202 10135 20133 30204 40212 53002 71000 83500 555 57007;
0171122050999992000100723004+53400+014620FM-12+0003EPSC V0202801N001010003019N0004001N1+01231+01231102101ADDAY141999AY241999GA1091+999999999GF109991091999999999999999MA1999999102021MD1710071+9999MW1451REMSYN066AAXX  07231 12205 41/04 92801 10123 20123 30202 40210 57007 74544;
0161122050999992000101409004+53400+014620FM-12+0003EPSC V0200601N001012200019N0025001N1+01321+01301101821ADDAY141031AY211031GF103991031051004501001001MA1999999101741MD1110221+9999MW1101REMSYN072AAXX  14091 12205 41425 30601 10132 20130 30174 40182 51022 71041 83500;
0143122050999992000101413004+53400+014620FM-12+0003EPSC V0202201N001012200019N0120001N1+01801+01211101891ADDGF102991021021004501001001MA1999999101811MD1210041+9999REMSYN076AAXX  14131 12205 42462 22201 10180 20121 30181 40189 52004 82200 555 57057;
0133122050999992000101415004+53400+014620FM-12+0003EPSC V0209999C000012200019N0120001N1+01681+01151101901ADDGF102991011041008001001011MA1999999101821MD1210011+9999REMSYN066AAXX  14151 12205 42562 20000 10168 20115 30182 40190 52001 81401;
0161122050999992000101515004+53400+014620FM-12+0003EPSC V0200901N002012200019N0050001N1+01331+01211101531ADDAY111031AY211031GF104991001001999999001021MA1999999101451MD1710171+9999MW1101REMSYN072AAXX  15151 12205 41950 40902 10133 20121 30145 40153 57017 71011 80002;
0171122050999992000101523004+53400+014620FM-12+0003EPSC V0200601N003012200019N0080001N1+01161+01111101291ADDAY121999AY221999GA1001+999999999GF100991001001999999001001MA1999999101211MD1710131+9999MW1101REMSYN066AAXX  15231 12205 41958 00603 10116 20111 30121 40129 57013 71022;
0171122050999992000101611004+53400+014620FM-12+0003EPSC V0201501N008012200019N0080001N1+01911+01351101191ADDAY101999AY201999GA1001+999999999GF100991001001999999001001MA1999999101111MD1210051+9999MW1101REMSYN066AAXX  16111 12205 41958 01508 10191 20135 30111 40119 52005 71000;
0161122050999992000101917004+53400+014620FM-12+0003EPSC V0201201N006010042019N0040001N1+01101+01061102371ADDAY111999AY211999GF105991051051004501001001MA1999999102291MD1310101+9999MW1101REMSYN072AAXX  19171 12205 41440 51206 10110 20106 30229 40237 53010 71011 85500;
0161122050999992000102116004+53400+014620FM-12+0003EPSC V0201401N004019999999N0070001N1+01101+00731102731ADDAY111999AY211999GF105991021001999999031021MA1999999102651MD1210061+9999MW1101REMSYN072AAXX  21161 12205 41957 51404 10110 20073 30265 40273 52006 71011 82032;
0161122050999992000102716004+53400+014620FM-12+0003EPSC V0202201N005010075019N0150001N1+01071+00781101421ADDAY121999AY221999GF107991071031008001999999MA1999999101341MD1210111+9999MW1251REMSYN072AAXX  27161 12205 41565 72205 10107 20078 30134 40142 52011 72522 873//;
0133122050999992000111215004+53400+014620FM-12+0003EPSC V0201501N004019999999N0200001N1+00781+00301100981ADDGF107991051001999999031021MA1999999100901MD1810171+9999REMSYN066AAXX  12151 12205 42970 71504 10078 20030 30090 40098 58017 85032;
0161122050999992000111608004+53400+014620FM-12+0003EPSC V0202101N003010042019N0060001N1+00631+00551101431ADDAY121999AY221999GF106991061051004501001001MA1999999101351MD1310071+9999MW1101REMSYN072AAXX  16081 12205 41456 62103 10063 20055 30135 40143 53007 71022 86500;
0133122050999992000112223004+53400+014620FM-12+0003EPSC V0201501N003019999999N0100001N1+00661+00561101231ADDGF108991081001999999071999MA1999999101151MD1410001+9999REMSYN066AAXX  22231 12205 42960 81503 10066 20056 30115 40123 54000 8807/;
0161122050999992000120703004+53400+014620FM-12+0003EPSC V0201901N003010042019N0060001N1+00311+00261101531ADDAY121031AY221031GF107991071051004501999999MA1999999101451MD1710051+9999MW1101REMSYN072AAXX  07031 12205 41456 71903 10031 20026 30145 40153 57005 71022 875//;
0144122050999992000121200004+53400+014620FM-12+0003EPSC V0202101N005010075019N0100001N1+00851+00711101571ADDAA199000021GF107991071051008001999999MA1999999101491MD1710061+9999REMSYN066AAXX  12001 12205 32560 72105 10085 20071 30149 40157 57006 875//;
0143122050999992000121415004+53400+014620FM-12+0003EPSC V0202101N006012200019N0150001N1+00701+00421100151ADDGF104991041051008001001001MA1999999100071MD1810011+9999REMSYN076AAXX  14151 12205 42565 42106 10070 20042 30007 40015 58001 84500 333 91112;
0257122050999992000122006004+53400+014620FM-12+0003EPSC V0201001N002010012019N0025001N1+00071+00051103251ADDAA199000091AY121061AY221061GF108991081061001501999999IA1099IA2999-00109KA1120M+00071KA2120N+00001MA1999999103161MD1210051+9999MW1101REMSYN094AAXX  20061 12205 31225 81002 10007 20005 30316 40325 52005 71022 886// 333 10007 20000 31101;EQDQ01  00002PRCP99
0161122050999992000122321004+53400+014620FM-12+0003EPSC V0202301N005010042019N0050001N1-00341-00411100841ADDAY121031AY221031GF107991071051004501999999MA1999999100751MD1710031+9999MW1101REMSYN072AAXX  23211 12205 41450 72305 11034 21041 30075 40084 57003 71022 875//;
0133122050999992000122917004+53400+014620FM-12+0003EPSC V0201901N004019999999N0100001N1-00131-00251099901ADDGF106991061001999999071001MA1999999099821MD1210081+9999REMSYN066AAXX  29171 12205 42960 61904 11013 21025 39982 49990 52008 86070;
0133122100999992000021011004+53770+015420FM-12+005699999V0202301N003010075019N0200001N1+00641+00321101881ADDGF107991071051008001999999MA1999999101191MD1710071+9999REMSYN066AAXX  10111 12210 42598 72303 10064 20032 30119 40188 57007 875//;
0177122100999992000021616004+53770+015420FM-12+005699999V0201801N005010042019N0040001N1+00241+00111099231ADDAY181999AY281999GF108991081091004501999999MA1999999098551MD1510051+9999MW1801REMSYN088AAXX  16161 12210 41496 81805 10024 20011 39855 49923 55005 78088 889// 333 91012 91112;
0133122100999992000022509004+53770+015420FM-12+005699999V0202401N002010042019N0100001N1+00281+00131101511ADDGF108991081051004501999999MA1999999100811MD1510021+9999REMSYN066AAXX  25091 12210 42497 82402 10028 20013 30081 40151 55002 885//;
0149122100999992000022810004+53770+015420FM-12+005699999V0201801N005019999999N0200001N1+01091+00021101161ADDGF107991021001999999041081MA1999999100481MD1710251+9999REMSYN082AAXX  28101 12210 42998 71805 10109 20002 30048 40116 57025 82048 333 91012 91112;
0179122100999992000022812004+53770+015420FM-12+005699999V0201801N006019999999N0200001N1+01421+00111100921ADDAA199000091GF106991001001999999001081MA1999999100251MD1710291+9999REMSYN082AAXX  28121 12210 32998 61806 10142 20011 30025 40092 57029 80008 333 91014 91114;EQDQ01  00002PRCP99
0149122100999992000022814004+53770+015420FM-12+005699999V0201901N005019999999N0200001N1+01561+00071100771ADDGF105991001001999999001081MA1999999100111MD1710271+9999REMSYN082AAXX  28141 12210 42998 51905 10156 20007 30011 40077 57027 80008 333 91012 91114;
0177122100999992000030310004+53770+015420FM-12+005699999V0202001N002010042019N0040001N1+00491+00321099151ADDAY181999AY281999GF108991081091004501999999MA1999999098471MD1710341+9999MW1801REMSYN088AAXX  03101 12210 41496 82002 10049 20032 39847 49915 57034 78088 889// 333 91012 91112;
0149122100999992000030510004+53770+015420FM-12+005699999V0202601N005010075019N0200001N1+00171-00411101911ADDGF106991061021008001001001MA1999999101211MD1210181+9999REMSYN082AAXX  05101 12210 42598 62605 10017 21041 30121 40191 52018 86200 333 91011 91111;
0143122100999992000031307004+53770+015420FM-12+005699999V0202001N001010042019N0100001N1+00311+00211102351ADDGF108991081051004501999999MA1999999101651MD1410001+9999REMSYN076AAXX  13071 12210 42497 82001 10031 20021 30165 40235 54000 885// 555 57003;
0171122100999992000032307004+53770+015420FM-12+005699999V0202401N001010042019N0040001N1+00491+00341101501ADDAY121999AY221999GF108991081051004501999999MA1999999100811MD1210051+9999MW1101REMSYN082AAXX  23071 12210 41496 82401 10049 20034 30081 40150 52005 71022 885// 555 57007;
0171122100999992000040213004+53770+015420FM-12+005699999V0202101N003010075019N0200001N1+01151+00311100601ADDAY121999AY221999GF106991051031008001001011MA1999999099931MD1710091+9999MW1251REMSYN082AAXX  02131 12210 41598 62103 10115 20031 39993 40060 57009 72522 85301 555 57054;
0179122100999992000040512004+53770+015420FM-12+005699999V0202801N005010075019N0200001N1+00431-00021100421ADDAA199000091GF108991081051008001999999MA1999999099731MD1210311+9999REMSYN082AAXX  05121 12210 32598 82805 10043 21002 39973 40042 52031 885// 333 91010 91110;EQDQ01  00002PRCP99
0149122100999992000041411004+53770+015420FM-12+005699999V0202001N006010075019N0200001N1+01011-00051100001ADDGF106991061031008001001001MA1999999099331MD1210071+9999REMSYN082AAXX  14111 12210 42598 62006 10101 21005 39933 40000 52007 86300 333 91012 91112;
0133122100999992000041611004+53770+015420FM-12+005699999V0202201N003012200019N0200001N1+01221+00341100211ADDGF106991041021008001001011MA1999999099541MD1210091+9999REMSYN066AAXX  16111 12210 42598 62203 10122 20034 39954 40021 52009 84201;
0143122100999992000042013004+53770+015420FM-12+005699999V0202601N001010042019N0100001N1+01221+00861101791ADDGF108991081051004501999999MA1999999101111MD1010011+9999REMSYN076AAXX  20131 12210 42497 82601 10122 20086 30111 40179 50001 885// 555 57025;
0133122100999992000042316004+53770+015420FM-12+005699999V0201501N003019999999N0200001N1+02701+00841100841ADDGF105991001001999999001081MA1999999100201MD1610091+9999REMSYN066AAXX  23161 12210 42998 51503 10270 20084 30020 40084 56009 80008;
0133122100999992000042714004+53770+015420FM-12+005699999V0201101N002010075019N0200001N1+02411+01001101641ADDGF106991061021008001001001MA1999999100991MD1710111+9999REMSYN066AAXX  27141 12210 42598 61102 10241 20100 30099 40164 57011 86200;
0133122100999992000050310004+53770+015420FM-12+005699999V0201301N002012200019N0200001N1+01671-00271102341ADDGF102991001001999999001021MA1999999101671MD1710101+9999REMSYN066AAXX  03101 12210 42998 21302 10167 21027 30167 40234 57010 80002;
0235122100999992000050806004+53770+015420FM-12+005699999V0200801N001019999999N0200001N1+01461+00591102161ADDAA199000091GF105991001001999999001081IA1019IA2999+00509KA1120M+01771KA2120N+00811MA1999999101491MD1210031+9999REMSYN094AAXX  08061 12210 32998 50801 10146 20059 30149 40216 52003 80008 333 10177 20081 30005 55136;EQDQ01  00002PRCP99
0133122100999992000051415004+53770+015420FM-12+005699999V0203201N002012200019N0200001N1+02231+00821102511ADDGF103991001001999999001011MA1999999101851MD1610091+9999REMSYN066AAXX  14151 12210 42998 33202 10223 20082 30185 40251 56009 80001;
0133122100999992000051617004+53770+015420FM-12+005699999V0209999C000012200019N0200001N1+02651+00781101461ADDGF101991011041008001001001MA1999999100821MD1710101+9999REMSYN066AAXX  16171 12210 42598 10000 10265 20078 30082 40146 57010 81400;
0177122100999992000051717004+53770+015420FM-12+005699999V0203001N005010075019N0200001N1+02071+01441100731ADDAY191999AY291999GF107991071091008001999999MA1999999100081MD1310151+9999MW1171REMSYN088AAXX  17171 12210 41598 73005 10207 20144 30008 40073 53015 71799 879// 333 91011 91111;
0131122100999992000060404004+53770+015420FM-12+005699999V0209999V002019999999N9999999N1+00881+00621101981ADDAA199000091MA1999999101341MD1710051+9999REMSYN060AAXX  04041 12210 36/// /9902 10088 20062 30134 40198 57005;EQDQ01  00002PRCP99
0133122100999992000060511004+53770+015420FM-12+005699999V0203101N002010300019N0200001N1+02041+01231101861ADDGF107991021021008001031999MA1999999101201MD1610021+9999REMSYN066AAXX  05111 12210 42598 73102 10204 20123 30120 40186 56002 8223/;
0149122100999992000061211004+53770+015420FM-12+005699999V0202701N005010075019N0200001N1+01801+00641102321ADDGF107991061021008001001081MA1999999101651MD1210191+9999REMSYN082AAXX  12111 12210 42598 72705 10180 20064 30165 40232 52019 86208 333 91011 91111;
0131122100999992000061714004+53760+015410FM-12+005699999V0209999V004019999999N9999999N1+01821+00351102781ADDAA199000091MA1999999102161MD1210031+9999REMSYN060AAXX  17141 12210 36/// /9904 10182 20035 30216 40278 52003;EQDQ01  00002PRCP99
0101122100999992000062101004+53760+015410FM-12+005699999V0209999V001019999999N9999999N1+01631+01431101341ADDMA1999999100721MD1710031+9999REMSYN060AAXX  21011 12210 46/// /9901 10163 20143 30072 40134 57003;
0131122100999992000062403004+53760+015410FM-12+005699999V0209999C000019999999N9999999N1+01021+00951101441ADDAA199000091MA1999999100811MD1710041+9999REMSYN060AAXX  24031 12210 36/// /0000 10102 20095 30081 40144 57004;EQDQ01  00002PRCP99
0112122100999992000062716004+53760+015410FM-12+005699999V0209999V002019999999N9999999N1+01351+00711101331ADDAA199000021MA1999999100711MD1710021+9999REMSYN060AAXX  27161 12210 36/// /9902 10135 20071 30071 40133 57002;
0112122100999992000062821004+53760+015410FM-12+005699999V0209999V002019999999N9999999N1+01151+00781101401ADDAA199000021MA1999999100771MD1210031+9999REMSYN060AAXX  28211 12210 36/// /9902 10115 20078 30077 40140 52003;
0101122100999992000062919004+53760+015410FM-12+005699999V0209999V002019999999N9999999N1+01241+01021101361ADDMA1999999100741MD1410001+9999REMSYN060AAXX  29191 12210 46/// /9902 10124 20102 30074 40136 54000;
0143122100999992000063007004+53760+015410FM-12+005699999V0202501N003010075019N0200001N1+01251+01021100971ADDGF107991051021008001001081MA1999999100301MD1710081+9999REMSYN076AAXX  30071 12210 42598 72503 10125 20102 30030 40097 57008 85208 555 57015;
0163122100999992000070612004+53760+015410FM-12+005699999V0203401N003010075019N0200001N1+01711+01391101581ADDAA199000091GF108991061021008001071999MA1999999100921MD1210181+9999REMSYN066AAXX  06121 12210 32598 83403 10171 20139 30092 40158 52018 8627/;EQDQ01  00002PRCP99
0141122100999992000070820004+53760+015410FM-12+005699999V0209999V001019999999N9999999N1+01391+00931100941ADDAA199000091MA1999999100321MD1410001+9999REMSYN070AAXX  08201 12210 36/// /9901 10139 20093 30032 40094 54000 555 30056;EQDQ01  00002PRCP99
0101122100999992000071715004+53760+015410FM-12+005699999V0209999V003019999999N9999999N1+01941+01211101301ADDMA1999999100681MD1210031+9999REMSYN060AAXX  17151 12210 /6/// /9903 10194 20121 30068 40130 52003;
0101122100999992000071716004+53760+015410FM-12+005699999V0209999V004019999999N9999999N1+01901+01141101301ADDMA1999999100681MD1210031+9999REMSYN060AAXX  17161 12210 /6/// /9904 10190 20114 30068 40130 52003;
0101122100999992000071801004+53760+015410FM-12+005699999V0209999V002019999999N9999999N1+01191+01051101261ADDMA1999999100641MD1710091+9999REMSYN060AAXX  18011 12210 46/// /9902 10119 20105 30064 40126 57009;
0234122100999992000072106004+53760+015410FM-12+005699999V0202401N002010075019N0040001N1+01271+01211101411ADDAA112003091GF108991081091008001999999IA1119IA2999+01309KA1120M+01321KA2120N+01191MA1999999100741MD1410001+9999MW1801REMSYN106AAXX  21061 12210 11596 82402 10127 20121 30074 40141 54000 60032 780// 889// 333 10132 20119 32013 70043;
0101122100999992000072401004+53760+015410FM-12+005699999V0209999C000019999999N9999999N1+01101+01051101291ADDMA1999999100661MD1710091+9999REMSYN060AAXX  24011 12210 46/// /0000 10110 20105 30066 40129 57009;
0131122100999992000073111004+53760+015410FM-12+005699999V0209999V002019999999N9999999N1+01691+01311102101ADDAA199000091MA1999999101481MD1210051+9999REMSYN060AAXX  31111 12210 36/// /9902 10169 20131 30148 40210 52005;EQDQ01  00002PRCP99
0131122100999992000080321004+53760+015410FM-12+005699999V0209999V001019999999N9999999N1+01511+01271101671ADDAA199000091MA1999999101051MD1210021+9999REMSYN060AAXX  03211 12210 36/// /9901 10151 20127 30105 40167 52002;EQDQ01  00002PRCP99
0131122100999992000081311004+53760+015410FM-12+005699999V0209999V002019999999N9999999N1+02261+01301102001ADDAA199000091MA1999999101381MD1210061+9999REMSYN060AAXX  13111 12210 36/// /9902 10226 20130 30138 40200 52006;EQDQ01  00002PRCP99
0131122100999992000081323004+53760+015410FM-12+005699999V0209999C000019999999N9999999N1+01151+01041102171ADDAA199000091MA1999999101541MD1210051+9999REMSYN060AAXX  13231 12210 36/// /0000 10115 20104 30154 40217 52005;EQDQ01  00002PRCP99
0141122100999992000082320004+53760+015410FM-12+005699999V0209999C000019999999N9999999N1+01151+00921102351ADDAA199000091MA1999999101721MD1210061+9999REMSYN070AAXX  23201 12210 36/// /0000 10115 20092 30172 40235 52006 555 30061;EQDQ01  00002PRCP99
0131122100999992000091517004+53760+015410FM-12+005699999V0201101N001019999999N9999999N1+01431+00791102021ADDAA199000091MA1999999101401MD1710091+9999REMSYN060AAXX  15171 12210 36/// /1101 10143 20079 30140 40202 57009;EQDQ01  00002PRCP99
0131122100999992000092016004+53760+015410FM-12+005699999V0209999V002019999999N9999999N1+01241+00691101841ADDAA199000091MA1999999101211MD1410001+9999REMSYN060AAXX  20161 12210 36/// /9902 10124 20069 30121 40184 54000;EQDQ01  00002PRCP99
0141122100999992000092322004+53760+015410FM-12+005699999V0209999C000019999999N9999999N1+00451+00331103161ADDAA199000091MA1999999102511MD1210041+9999REMSYN070AAXX  23221 12210 36/// /0000 10045 20033 30251 40316 52004 555 60104;EQDQ01  00002PRCP99
0131122100999992000092417004+53760+015410FM-12+005699999V0209999V001019999999N9999999N1+01191+00471102731ADDAA199000091MA1999999102101MD1710061+9999REMSYN060AAXX  24171 12210 36/// /9901 10119 20047 30210 40273 57006;EQDQ01  00002PRCP99
0131122100999992000092817004+53760+015410FM-12+005699999V0209999V001019999999N9999999N1+01851+01481101221ADDAA199000091MA1999999100601MD1710021+9999REMSYN060AAXX  28171 12210 36/// /9901 10185 20148 30060 40122 57002;EQDQ01  00002PRCP99
0101122100999992000100113004+53760+015410FM-12+005699999V0209999V004019999999N9999999N1+02101+01211100701ADDMA1999999100091MD1710051+9999REMSYN060AAXX  01131 12210 46/// /9904 10210 20121 30009 40070 57005;
0112122100999992000100521004+53760+015410FM-12+005699999V0209999C000019999999N9999999N1+01531+01461101521ADDAA199000021MA1999999100901MD1710061+9999REMSYN060AAXX  05211 12210 36/// /0000 10153 20146 30090 40152 57006;
0131122100999992000101508004+53760+015410FM-12+005699999V0209999V002019999999N9999999N1+01271+00971102011ADDAA199000091MA1999999101381MD1410001+9999REMSYN060AAXX  15081 12210 36/// /9902 10127 20097 30138 40201 54000;EQDQ01  00002PRCP99
0101122100999992000102007004+53760+015410FM-12+005699999V0209999V001019999999N9999999N1+00921+00851102771ADDMA1999999102131MD1210091+9999REMSYN060AAXX  20071 12210 46/// /9901 10092 20085 30213 40277 52009;
0141122100999992000102122004+53760+015410FM-12+005699999V0209999V002019999999N9999999N1+00841+00421102861ADDAA199000091MA1999999102221MD1410001+9999REMSYN070AAXX  21221 12210 36/// /9902 10084 20042 30222 40286 54000 555 60102;EQDQ01  00002PRCP99
0131122100999992000102214004+53760+015410FM-12+005699999V0209999V002019999999N9999999N1+01681+00981102891ADDAA199000091MA1999999102271MD1710021+9999REMSYN060AAXX  22141 12210 36/// /9902 10168 20098 30227 40289 57002;EQDQ01  00002PRCP99
0222122100999992000102506004+53760+015410FM-12+005699999V0202201N002010042019N0200001N1+00981+00731101081ADDAA124000891GF108991081051004501999999IA1099IA2999+00909KA1120M+01091KA2120N+00921MA1999999100401MD1710111+9999REMSYN100AAXX  25061 12210 31498 82202 10098 20073 30040 40108 57011 7//// 885// 333 10109 20092 31009 70008;
0220122100999992000102518004+53760+015410FM-12+005699999V0202001N004010075019N0040001N1+01081+00811100251ADDAA112000891AY181061AY221061GF108991081091008001999999KA1120M+01141KA2999N+00931MA1999999099581MD1710141+9999MW1801REMSYN094AAXX  25181 12210 11596 82004 10108 20081 39958 40025 57014 69982 78082 889// 333 10114 20093;
0101122100999992000102613004+53760+015410FM-12+005699999V0203001N004019999999N9999999N1+01281+00601100521ADDMA1999999099901MD1710021+9999REMSYN060AAXX  26131 12210 46/// /3004 10128 20060 39990 40052 57002;
0228122100999992000111306004+53760+015410FM-12+005699999V0201701N002019999999N0200001N1+00681+00381100271ADDAA112000191GF108991081001999999071999IA1099IA2999+00609KA1120M+00871KA2120N+00611MA1999999099591MD1710061+9999REMSYN106AAXX  13061 12210 12998 81702 10068 20038 39959 40027 57006 69912 8807/ 333 10087 20061 31006 55023 70001;
0131122100999992000112116004+53760+015410FM-12+005699999V0209999V001019999999N9999999N1+00651+00581100731ADDAA199000091MA1999999100101MD1710161+9999REMSYN060AAXX  21161 12210 36/// /9901 10065 20058 30010 40073 57016;EQDQ01  00002PRCP99
0112122100999992000112202004+53760+015410FM-12+005699999V0209999V002019999999N9999999N1+00561+00411100981ADDAA199000021MA1999999100341MD1210071+9999REMSYN060AAXX  22021 12210 36/// /9902 10056 20041 30034 40098 52007;
0131122100999992000112315004+53760+015410FM-12+005699999V0209999V002019999999N9999999N1+00631+00461101171ADDAA199000091MA1999999100531MD1710101+9999REMSYN060AAXX  23151 12210 36/// /9902 10063 20046 30053 40117 57010;EQDQ01  00002PRCP99
0191122100999992000112512004+53760+015410FM-12+005699999V0209999C000010042019N0040001N1+00691+00581101301ADDAA199000091AY121061AY221061GF108991081051004501999999MA1999999100611MD1710061+9999MW1101REMSYN072AAXX  25121 12210 31440 80000 10069 20058 30061 40130 57006 71022 885//;EQDQ01  00002PRCP99
0112122100999992000112621004+53760+015410FM-12+005699999V0209999V002019999999N9999999N1+00551+00461100471ADDAA199000021MA1999999099841MD1210141+9999REMSYN060AAXX  26211 12210 36/// /9902 10055 20046 39984 40047 52014;
0101122100999992000120207004+53760+015410FM-12+005699999V0209999V002019999999N9999999N1+00361+00221101671ADDMA1999999101021MD1210051+9999REMSYN060AAXX  02071 12210 46/// /9902 10036 20022 30102 40167 52005;
0233122100999992000120318004+53760+015410FM-12+005699999V0201801N002019999999N0040001N1+00771+00671101711ADDAA199000091AY121061AY221061GF106991061001999999031001KA1120M+00941KA2999N+00671MA1999999101021MD1210031+9999MW1101REMSYN088AAXX  03181 12210 31996 61802 10077 20067 30102 40171 52003 71022 86030 333 10094 20067;EQDQ01  00002PRCP99
0131122100999992000120504004+53760+015410FM-12+005699999V0209999V002019999999N9999999N1+00381+00261101961ADDAA199000091MA1999999101311MD1210051+9999REMSYN060AAXX  05041 12210 36/// /9902 10038 20026 30131 40196 52005;EQDQ01  00002PRCP99
0131122100999992000121005004+53760+015410FM-12+005699999V0209999V002019999999N9999999N1+00601+00421101461ADDAA199000091MA1999999100821MD1710051+9999REMSYN060AAXX  10051 12210 36/// /9902 10060 20042 30082 40146 57005;EQDQ01  00002PRCP99
0131122100999992000121609004+53760+015410FM-12+005699999V0209999V002019999999N9999999N1+00111+00001099361ADDAA199000091MA1999999098721MD1410001+9999REMSYN060AAXX  16091 12210 36/// /9902 10011 21000 39872 49936 54000;EQDQ01  00002PRCP99
0226122150999992000020418004+53720+016680FM-12+014499999V0202801N005010042019N0060001N1+00541+00481101621ADDAA112005191AY171061AY221061GF108991061071004501021999KA1120M+00551KA2120N-00171MA1999999099841MD1610191+9999MW1611REMSYN100AAXX  04181 12215 11456 82805 10054 20048 39984 40162 56019 60052 76172 8672/ 333 10055 21017 91113;
0157122150999992000020607004+53720+016680FM-12+014499999V0202401N003012200019N0060001N1+00401+00261101851ADDAY101999AY201999GF104991021001999999041041MA1999999100061MW1101REMSYN082AAXX  06071 12215 41956 42403 10040 20026 30006 40185 5//// 71000 82044 555 57006;
0133122150999992000020911004+53720+016680FM-12+014499999V0202601N004010090019N0100001N1+00411-00061100221ADDGF107991071081004501999999MA1999999098461MD1110201+9999REMSYN066AAXX  09111 12215 42460 72604 10041 21006 39846 40022 51020 878//;
0147122150999992000021408004+53720+016680FM-12+014499999V0203101N003012200019N0100001N1+00051-00081101151ADDAY121999AY221999GF105991041091004501001011MA1999999099351MW1261REMSYN072AAXX  14081 12215 41460 53103 10005 21008 39935 40115 5//// 72622 84901;
0161122150999992000021611004+53720+016680FM-12+014499999V0201601N001010042019N0020001N1+00221+00171099591ADDAY161999AY261999GF108991061071004501021999MA1999999097831MD1710281+9999MW1611REMSYN072AAXX  16111 12215 41420 81601 10022 20017 39783 49959 57028 76166 8672/;
0133122150999992000021909004+53720+016680FM-12+014499999V0201601N002019999999N0100001N1+00021-00421100681ADDGF107991021001999999031081MA1999999098891MD1310081+9999REMSYN066AAXX  19091 12215 42960 71602 10002 21042 39889 40068 53008 82038;
0135122150999992000030607004+53720+016680FM-12+014499999V0202401N003010300019N0100001N1+00021-00161102281ADDGF108991021051004501071999MA1999999100461REMSYN082AAXX  06071 12215 42460 82403 10002 21016 30046 40228 5//// 8257/ 555 57007 80051;
0129122150999992000031607004+53720+016680FM-12+014499999V0203301N003010300019N0100001N1-00051-00241101601ADDGF105991031051008001031011MA1999999099791REMSYN076AAXX  16071 12215 42560 53303 11005 21024 39979 40160 5//// 83531 555 57007;
0133122150999992000031811004+53720+016680FM-12+014499999V0200601N003010120019N0100001N1+00331-00091102391ADDGF107991071081008001999999MA1999999100591MD1110061+9999REMSYN066AAXX  18111 12215 42560 70603 10033 21009 30059 40239 51006 878//;
0143122150999992000031913004+53720+016680FM-12+014499999V0200401N004010075019N0100001N1+00361-00171102741ADDGF107991071091008001999999MA1999999100931MD1210101+9999REMSYN076AAXX  19131 12215 42560 70404 10036 21017 30093 40274 52010 879// 555 57017;
0160122150999992000032711004+53720+016680FM-12+014499999V0201001N003010042019N0050001N1+00781+00621100761ADDAY121999AY221999GF108991081051004501999999MA1999999099011MD1610071+9999MW1101REMSYN071AAXX  27111 12215 41450 81003 10078 2006239901 40076 56007 71022 885//;
0161122150999992000040109004+53720+016680FM-12+014499999V0202801N002010042019N0060001N1+00561+00341100451ADDAY121031AY221031GF108991081051004501999999MA1999999098701MD1210141+9999MW1101REMSYN072AAXX  01091 12215 41456 82802 10056 20034 39870 40045 52014 71022 885//;
0226122150999992000041306004+53720+016680FM-12+014499999V0202401N004012200019N0080001N1+00431+00181099711ADDAA112005191GF101991011011004501001001IA1119IA2999+00109KA1120M+00981KA2120N+00321MA1999999097961MW1101REMSYN112AAXX  13061 12215 11458 12404 10043 20018 39796 49971 5//// 60052 710// 81100 333 10098 20032 32001 55035 70063;
0131122150999992000041713004+53720+016680FM-12+014499999V0201401N007019999999N9999999N1+01941+00401100461ADDAA199000091MA1999999098761MD1710081+9999REMSYN060AAXX  17131 12215 36/// /1407 10194 20040 39876 40046 57008;EQDQ01  00002PRCP99
0111122150999992000042513004+53720+016680FM-12+014499999V0209999V004019999999N9999999N1+01191+00891101571ADDAA199000091MA1999999099811REMSYN054AAXX  25131 12215 36/// /9904 10119 20089 39981 40157;EQDQ01  00002PRCP99
0131122150999992000042911004+53720+016680FM-12+014499999V0201501N007019999999N9999999N1+02621+00711101931ADDAA199000091MA1999999100241MD1710061+9999REMSYN060AAXX  29111 12215 36/// /1507 10262 20071 30024 40193 57006;EQDQ01  00002PRCP99
0111122150999992000050808004+53720+016680FM-12+014499999V0209999V004019999999N9999999N1+01991+00611102281ADDAA199000091MA1999999100561REMSYN054AAXX  08081 12215 36/// /9904 10199 20061 30056 40228;EQDQ01  00002PRCP99
0131122150999992000051913004+53720+016680FM-12+014499999V0209999V002019999999N9999999N1+01691+00711100711ADDAA199000091MA1999999098991MD1710071+9999REMSYN060AAXX  19131 12215 36/// /9902 10169 20071 39899 40071 57007;EQDQ01  00002PRCP99
0160122150999992000051918004+53720+016680FM-12+014499999V0209999V002019999999N9999999N1+01251+00881100761ADDAA112000191KA1120M+01701KA2999N+01041MA1999999099021MD1210051+9999REMSYN082AAXX  19181 12215 16/// /9902 10125 20088 39902 40076 52005 69912 333 10170 20104;
0131122150999992000052202004+53720+016680FM-12+014499999V0209999C000019999999N9999999N1+00811+00731100981ADDAA199000091MA1999999099211MD1410001+9999REMSYN060AAXX  22021 12215 36/// /0000 10081 20073 39921 40098 54000;EQDQ01  00002PRCP99
0131122150999992000052715004+53720+016680FM-12+014499999V0202701N007019999999N9999999N1+01731+01561100991ADDAA199000091MA1999999099281MD1210101+9999REMSYN060AAXX  27151 12215 36/// /2707 10173 20156 39928 40099 52010;EQDQ01  00002PRCP99
0131122150999992000060123004+53720+016680FM-12+014499999V0201901N005019999999N9999999N1+01451+00691102231ADDAA199000091MA1999999100481MD1710091+9999REMSYN060AAXX  01231 12215 36/// /1905 10145 20069 30048 40223 57009;EQDQ01  00002PRCP99
0118122150999992000060500004+53720+016680FM-12+014499999V0209999C000019999999N9999999N1+00991+00881101901ADDAA106002091MA1999999100121MD1210051+9999REMSYN066AAXX  05001 12215 36/// /0000 10099 20088 30012 40190 52005 60021;
0131122150999992000060812004+53720+016680FM-12+014499999V0203001N005019999999N9999999N1+01621+00511102161ADDAA199000091MA1999999100421MD1210071+9999REMSYN060AAXX  08121 12215 36/// /3005 10162 20051 30042 40216 52007;EQDQ01  00002PRCP99
0131122150999992000061312004+53720+016680FM-12+014499999V0202101N005019999999N9999999N1+02611+01281102291ADDAA199000091MA1999999100601MD1710161+9999REMSYN060AAXX  13121 12215 36/// /2105 10261 20128 30060 40229 57016;EQDQ01  00002PRCP99
0131122150999992000061602004+53710+016680FM-12+014499999V0209999C000019999999N9999999N1+00881+00751101691ADDAA199000091MA1999999099911MD1710031+9999REMSYN060AAXX  16021 12215 36/// /0000 10088 20075 39991 40169 57003;EQDQ01  00002PRCP99
0160122150999992000062318004+53710+016680FM-12+014499999V0201701N003019999999N9999999N1+01741+01541101471ADDAA112003091KA1120M+01791KA2999N+01391MA1999999099751MD1710071+9999REMSYN082AAXX  23181 12215 16/// /1703 10174 20154 39975 40147 57007 60032 333 10179 20139;
0160122150999992000062718004+53710+016680FM-12+014499999V0209999V004019999999N9999999N1+01151+00811101381ADDAA112001091KA1120M+01281KA2999N+00901MA1999999099621MD1210041+9999REMSYN082AAXX  27181 12215 16/// /9904 10115 20081 39962 40138 52004 60012 333 10128 20090;
0131122150999992000062807004+53710+016680FM-12+014499999V0209999V003019999999N9999999N1+01071+00561101321ADDAA199000091MA1999999099561MD1210021+9999REMSYN060AAXX  28071 12215 36/// /9903 10107 20056 39956 40132 52002;EQDQ01  00002PRCP99
0131122150999992000072905004+53710+016680FM-12+014499999V0209999V002019999999N9999999N1+01531+01441100911ADDAA199000091MA1999999099191MD1410001+9999REMSYN060AAXX  29051 12215 36/// /9902 10153 20144 39919 40091 54000;EQDQ01  00002PRCP99
0166122150999992000080306004+53710+016680FM-12+014499999V0209999V003019999999N9999999N1+01631+01411101651ADDAA112000391KA1120M+02551KA2120N+01441MA1999999099921MD1210111+9999REMSYN088AAXX  03061 12215 /6/// /9903 10163 20141 39992 40165 52011 69932 333 10255 20144 70018;
0131122150999992000081117004+53710+016680FM-12+014499999V0209999V002019999999N9999999N1+01711+01561101311ADDAA199000091MA1999999099591MD1210021+9999REMSYN060AAXX  11171 12215 36/// /9902 10171 20156 39959 40131 52002;EQDQ01  00002PRCP99
0131122150999992000090211004+53710+016680FM-12+014499999V0209999V004019999999N9999999N1+01631+01521100211ADDAA199000091MA1999999098491MD1410001+9999REMSYN060AAXX  02111 12215 36/// /9904 10163 20152 39849 40021 54000;EQDQ01  00002PRCP99
0131122150999992000090608004+53710+016680FM-12+014499999V0209999V001019999999N9999999N1+01281+00571101871ADDAA199000091MA1999999100111MD1710051+9999REMSYN060AAXX  06081 12215 36/// /9901 10128 20057 30011 40187 57005;EQDQ01  00002PRCP99
0131122150999992000090623004+53710+016680FM-12+014499999V0209999V003019999999N9999999N1+00921+00531101091ADDAA199000091MA1999999099321MD1710181+9999REMSYN060AAXX  06231 12215 36/// /9903 10092 20053 39932 40109 57018;EQDQ01  00002PRCP99
0131122150999992000091010004+53710+016680FM-12+014499999V0209999V002019999999N9999999N1+01601+01241102381ADDAA199000091MA1999999100631MD1410001+9999REMSYN060AAXX  10101 12215 36/// /9902 10160 20124 30063 40238 54000;EQDQ01  00002PRCP99
0131122150999992000091519004+53710+016680FM-12+014499999V0201101N003019999999N9999999N1+01041+00681102201ADDAA199000091MA1999999100421MD1410001+9999REMSYN060AAXX  15191 12215 36/// /1103 10104 20068 30042 40220 54000;EQDQ01  00002PRCP99
0173122150999992000091618004+53710+016680FM-12+014499999V0201301N006019999999N9999999N1+01231+00521101261ADDAA199000091KA1120M+01601KA2999N+00911MA1999999099511MD1210071+9999REMSYN076AAXX  16181 12215 36/// /1306 10123 20052 39951 40126 52007 333 10160 20091;EQDQ01  00002PRCP99
0131122150999992000091909004+53710+016680FM-12+014499999V0201001N005019999999N9999999N1+01021+00401101831ADDAA199000091MA1999999100061MD1410001+9999REMSYN060AAXX  19091 12215 36/// /1005 10102 20040 30006 40183 54000;EQDQ01  00002PRCP99
0131122150999992000092121004+53710+016680FM-12+014499999V0200701N002019999999N9999999N1+00851+00661102461ADDAA199000091MA1999999100671MD1210131+9999REMSYN060AAXX  21211 12215 36/// /0702 10085 20066 30067 40246 52013;EQDQ01  00002PRCP99
0131122150999992000092415004+53710+016680FM-12+014499999V0201101N004019999999N9999999N1+01411+00281102891ADDAA199000091MA1999999101121MD1710131+9999REMSYN060AAXX  24151 12215 36/// /1104 10141 20028 30112 40289 57013;EQDQ01  00002PRCP99
0179122150999992000092906004+53710+016680FM-12+014499999V0201301N004019999999N9999999N1+01151+00931101471ADDAA124000091KA1120M+02141KA2120N+01051MA1999999099711MD1210051+9999REMSYN082AAXX  29061 12215 36/// /1304 10115 20093 39971 40147 52005 333 10214 20105 70000;EQDQ01  00002PRCP24
0118122150999992000101512004+53710+016680FM-12+014499999V0201001N006019999999N9999999N1+01631+01131101981ADDAA106000191MA1999999100241MD1710151+9999REMSYN066AAXX  15121 12215 36/// /1006 10163 20113 30024 40198 57015 69911;
0141122150999992000101622004+53710+016680FM-12+014499999V0209999V002019999999N9999999N1+01351+01161101881ADDAA199000091MA1999999100131MD1210111+9999REMSYN070AAXX  16221 12215 36/// /9902 10135 20116 30013 40188 52011 555 60131;EQDQ01  00002PRCP99
0131122150999992000102807004+53710+016680FM-12+014499999V0201801N004019999999N9999999N1+00721+00621101661ADDAA199000091MA1999999099871MD1710021+9999REMSYN060AAXX  28071 12215 36/// /1804 10072 20062 39987 40166 57002;EQDQ01  00002PRCP99
0118122150999992000111800004+53710+016680FM-12+014499999V0209999V002019999999N9999999N1+00621+00601101011ADDAA106000191MA1999999099231MD1710041+9999REMSYN066AAXX  18001 12215 16/// /9902 10062 20060 39923 40101 57004 69911;
0131122150999992000112215004+53710+016680FM-12+014499999V0201301N003019999999N9999999N1+00571+00471101581ADDAA199000091MA1999999099781MD1210081+9999REMSYN060AAXX  22151 12215 36/// /1303 10057 20047 39978 40158 52008;EQDQ01  00002PRCP99
0131122150999992000113005004+53710+016680FM-12+014499999V0209999V004019999999N9999999N1+00571+00521101501ADDAA199000091MA1999999099701MD1710071+9999REMSYN060AAXX  30051 12215 36/// /9904 10057 20052 39970 40150 57007;EQDQ01  00002PRCP99
0131122150999992000120319004+53710+016680FM-12+014499999V0202001N003019999999N9999999N1+00731+00671101891ADDAA199000091MA1999999100101MD1410001+9999REMSYN060AAXX  03191 12215 36/// /2003 10073 20067 30010 40189 54000;EQDQ01  00002PRCP99
0131122150999992000120321004+53710+016680FM-12+014499999V0202101N003019999999N9999999N1+00671+00591101891ADDAA199000091MA1999999100091MD1410001+9999REMSYN060AAXX  03211 12215 36/// /2103 10067 20059 30009 40189 54000;EQDQ01  00002PRCP99
0131122150999992000120509004+53710+016680FM-12+014499999V0201701N004019999999N9999999N1+00341+00311102231ADDAA199000091MA1999999100411MD1210061+9999REMSYN060AAXX  05091 12215 36/// /1704 10034 20031 30041 40223 52006;EQDQ01  00002PRCP99
0131122150999992000122411004+53710+016680FM-12+014499999V0209999V002019999999N9999999N1-00191-00301100561ADDAA199000091MA1999999098731MD1710061+9999REMSYN060AAXX  24111 12215 36/// /9902 11019 21030 39873 40056 57006;EQDQ01  00002PRCP99
0161122300999992000010505004+53130+016750FM-12+007399999V0202701N003010021019N0060001N1+00511+00421100891ADDAY121999AY221999GF108991071061002501999999MA1999999099991MD1510061+9999MW1101REMSYN072AAXX  05051 12230 41356 82703 10051 20042 39999 40089 55006 71022 876//;
0161122300999992000012504004+53130+016750FM-12+007399999V0202301N001010075019N0020001N1-01151-01201102591ADDAY121999AY221999GF108991071051008001999999MA1999999101611MD1310031+9999MW1101REMSYN072AAXX  25041 12230 41520 82301 11115 21120 30161 40259 53003 71022 875//;
0161122300999992000012610004+53130+016750FM-12+007399999V0202601N003010012019N0020001N1-00021-00051102071ADDAY121999AY221999GF108991081061001501999999MA1999999101141MD1810021+9999MW1101REMSYN072AAXX  26101 12230 41220 82603 11002 21005 30114 40207 58002 71022 886//;
0161122300999992000020516004+53130+016750FM-12+007399999V0202901N004010012019N0020001N1+00851+00811102211ADDAY121999AY221999GF108991081061001501999999MA1999999101301MD1210111+9999MW1511REMSYN072AAXX  05161 12230 41220 82904 10085 20081 30130 40221 52011 75122 886//;
0143122300999992000021707004+53130+016750FM-12+007399999V0202101N002010042019N0150001N1-00101-00331099951ADDGF107991071051004501999999MA1999999099031MD1310051+9999REMSYN076AAXX  17071 12230 42465 72102 11010 21033 39903 49995 53005 875// 555 57011;
0171122300999992000022107004+53130+016750FM-12+007399999V0202901N002010042019N0030001N1-00101-00171102591ADDAY181999AY281999GF108991081091004501999999MA1999999101651MD1310051+9999MW1851REMSYN082AAXX  21071 12230 41430 82902 11010 21017 30165 40259 53005 78588 889// 555 57005;
0133122300999992000022914004+53130+016750FM-12+007399999V0202201N005010075019N0200001N1+00901+00141101361ADDGF107991051021008001001021MA1999999100461MD1710361+9999REMSYN066AAXX  29141 12230 42570 72205 10090 20014 30046 40136 57036 85202;
0143122300999992000030407004+53130+016750FM-12+007399999V0202701N005010042019N0180001N1+00181-00141100191ADDGF106991061051004501001001MA1999999099281MD1310211+9999REMSYN076AAXX  04071 12230 42468 62705 10018 21014 39928 40019 53021 86500 555 57008;
0153122300999992000031001004+53130+016750FM-12+007399999V0203001N002012200019N0100001N1-00051-00171101511ADDGA1001+999999999GF100991001001999999001001MA1999999100581MD1110201+9999REMSYN070AAXX  10011 12230 42960 03002 11005 21017 30058 40151 51020 555 57005;
0161122300999992000031503004+53130+016750FM-12+007399999V0202901N003010042019N0080001N1+00071-00021100571ADDAY161031AY221031GF107991071051004501999999MA1999999099651MD1210151+9999MW1101REMSYN072AAXX  15031 12230 41458 72903 10007 21002 39965 40057 52015 71062 875//;
0161122300999992000032623004+53130+016750FM-12+007399999V0200601N001010075019N0080001N1+00811+00651100881ADDAY121999AY221999GF108991071051008001999999MA1999999099991MD1810061+9999MW1101REMSYN072AAXX  26231 12230 41558 80601 10081 20065 39999 40088 58006 71022 875//;
0161122300999992000032716004+53130+016750FM-12+007399999V0203501N001019999999N0011001N1+01021+00921100611ADDAY121999AY221999GF107991071001999999031999MA1999999099721MD1610081+9999MW1101REMSYN072AAXX  27161 12230 41911 73501 10102 20092 39972 40061 56008 71022 8703/;
0133122300999992000040516004+53130+016750FM-12+007399999V0203401N005010750019N0180001N1+00571-00111100521ADDGF105991031011008001001021MA1999999099621MD1210251+9999REMSYN066AAXX  05161 12230 42568 53405 10057 21011 39962 40052 52025 83102;
0211122300999992000040618004+53130+016750FM-12+007399999V0203501N003012200019N0150001N1+00521-00151102431ADDAA199000091GF102991001001999999001011KA1120M+00861KA2120N+00071MA1999999101511MD1310181+9999REMSYN088AAXX  06181 12230 32965 23503 10052 21015 30151 40243 53018 80001 333 10086 20007 91113;EQDQ01  00002PRCP99
0161122300999992000041221004+53130+016750FM-12+007399999V0202801N003010042019N0060001N1+00741+00641099421ADDAY121031AY221031GF108991081091004501999999MA1999999098541MD1210191+9999MW1811REMSYN072AAXX  12211 12230 41456 82803 10074 20064 39854 49942 52019 78122 889//;
0177122300999992000041315004+53130+016750FM-12+007399999V0202501N007010120019N0200001N1+01061+00221099911ADDAY181031AY221031GF107991071091012501999999MA1999999099031MD1310021+9999MW1031REMSYN088AAXX  13151 12230 41670 72507 10106 20022 39903 49991 53002 70382 879// 333 91013 91113;
0133122300999992000041514004+53130+016750FM-12+007399999V0201701N004012200019N0150001N1+01461+00791100211ADDGF103991011041008001001021MA1999999099341MD1810141+9999REMSYN066AAXX  15141 12230 42565 31704 10146 20079 39934 40021 58014 81402;
0171122300999992000042303004+53130+016750FM-12+007399999V0200501N001012200019N0060001N1+01111+00941101451ADDAY101031AY201031GA1001+999999999GF100991001001999999001001MA1999999100561MD1610041+9999MW1101REMSYN066AAXX  23031 12230 41956 00501 10111 20094 30056 40145 56004 71000;
0143122300999992000042501004+53130+016750FM-12+007399999V0203401N003012200019N0100001N1+01331+01191100881ADDGF102991001001999999001021MA1999999100001MD1210071+9999REMSYN076AAXX  25011 12230 42960 23403 10133 20119 30000 40088 52007 80002 555 57017;
0183122300999992000042620004+53130+016750FM-12+007399999V0209999C000012200019N0100001N1+01301+01031101641ADDGA1001+999999999GF100991001001999999001001MA1999999100751MD1210141+9999REMSYN100AAXX  26201 12230 42960 00000 10130 20103 30075 40164 52014 555 00159 10196 20125 30084 55043 60168;
0133122300999992000050416004+53130+016750FM-12+007399999V0201301N003012200019N0250001N1+02101-00151101851ADDGF101991001001999999001011MA1999999100991MD1710061+9999REMSYN066AAXX  04161 12230 42975 11303 10210 21015 30099 40185 57006 80001;
0133122300999992000051114004+53130+016750FM-12+007399999V0203301N004012200019N0180001N1+02521+00651101531ADDGF102991011021022501001041MA1999999100681MD1710071+9999REMSYN066AAXX  11141 12230 42868 23304 10252 20065 30068 40153 57007 81204;
0143122300999992000051304004+53130+016750FM-12+007399999V0200501N001012200019N0120001N1+00261+00071102961ADDGA1001+999999999GF100991001001999999001001MA1999999102031MD1310021+9999REMSYN060AAXX  13041 12230 42962 00501 10026 20007 30203 40296 53002;
0173122300999992000051312004+53130+016750FM-12+007399999V0200601N003012200019N0250001N1+01641-00281102751ADDAA199000091GA1001+999999999GF100991001001999999001001MA1999999101861MD1710131+9999REMSYN060AAXX  13121 12230 32975 00603 10164 21028 30186 40275 57013;EQDQ01  00002PRCP99
0133122300999992000051711004+53130+016750FM-12+007399999V0202001N003012200019N0200001N1+02991+00481100951ADDGF103991031021022501001001MA1999999100121MD1710171+9999REMSYN066AAXX  17111 12230 42870 32003 10299 20048 30012 40095 57017 83200;
0171122300999992000051822004+53130+016750FM-12+007399999V0201801N001010075019N0040001N1+01201+01181100641ADDAY121999AY221999GF108991081091008001999999MA1999999099761MD1810131+9999MW1801REMSYN082AAXX  18221 12230 41540 81801 10120 20118 39976 40064 58013 78022 889// 555 60144;
0161122300999992000052009004+53130+016750FM-12+007399999V0202501N002010075019N0060001N1+01461+00981100661ADDAY141031AY221031GF107991071091008001999999MA1999999099791MD1810011+9999MW1951REMSYN072AAXX  20091 12230 41556 72502 10146 20098 39979 40066 58001 79542 879//;
0161122300999992000052403004+53130+016750FM-12+007399999V0202101N001010300019N0080001N1+00981+00811101781ADDAY121031AY221031GF107991021051004501031999MA1999999100881MD1710071+9999MW1101REMSYN072AAXX  24031 12230 41458 72101 10098 20081 30088 40178 57007 71022 8253/;
0163122300999992000052412004+53130+016750FM-12+007399999V0202401N003010120019N0180001N1+01941+00751101531ADDAA199000091GF107991051091012501031021MA1999999100661MD1710091+9999REMSYN066AAXX  24121 12230 32668 72403 10194 20075 30066 40153 57009 85932;EQDQ01  00002PRCP99
0161122300999992000060102004+53130+016750FM-12+007399999V0209999C000012200019N0060001N1+00061+00011102501ADDAY101999AY201999GF101991001001999999001021MA1999999101571MD1110111+9999MW1101REMSYN072AAXX  01021 12230 41956 10000 10006 20001 30157 40250 51011 71000 80002;
0163122300999992000060512004+53130+016750FM-12+007399999V0203401N002010120019N0200001N1+02301+01531101741ADDAA199000091GF107991071081008001999999MA1999999100881MD1810071+9999REMSYN066AAXX  05121 12230 32570 73402 10230 20153 30088 40174 58007 878//;EQDQ01  00002PRCP99
0143122300999992000060923004+53130+016750FM-12+007399999V0201301N001012200019N0150001N1+01501+00591102111ADDGA1001+999999999GF100991001001999999001001MA1999999101231MD1210021+9999REMSYN060AAXX  09231 12230 42965 01301 10150 20059 30123 40211 52002;
0143122300999992000061323004+53130+016750FM-12+007399999V0203601N002012200019N0120001N1+01761+01381102111ADDGA1001+999999999GF100991001001999999001001MA1999999101231MD1310061+9999REMSYN060AAXX  13231 12230 42962 03602 10176 20138 30123 40211 53006;
0143122300999992000062001004+53130+016750FM-12+007399999V0202201N001012200019N0150001N1+01401+01011101931ADDGF102991001001999999001021MA1999999101041MD1710041+9999REMSYN076AAXX  20011 12230 42965 22201 10140 20101 30104 40193 57004 80002 555 57040;
0205122300999992000062118004+53130+016750FM-12+007399999V0203201N002012200019N0250001N1+03371+00961101051ADDAA199000091GF101991011021022501001001KA1120M+03631KA2999N+02351MA1999999100231MD1610041+9999REMSYN082AAXX  21181 12230 32875 13202 10337 20096 30023 40105 56004 81200 333 10363 20235;EQDQ01  00002PRCP99
0143122300999992000062413004+53130+016750FM-12+007399999V0202101N002010300019N0250001N1+02281+00921101021ADDGF106991031021017501061021MA1999999100171MD1710221+9999REMSYN076AAXX  24131 12230 42775 62102 10228 20092 30017 40102 57022 83262 555 57149;
0133122300999992000062716004+53130+016750FM-12+007399999V0203001N004010300019N0250001N1+01401+00651101361ADDGF107991031021012501051999MA1999999100481MD1510011+9999REMSYN066AAXX  27161 12230 42675 73004 10140 20065 30048 40136 55001 8325/;
0161122300999992000070108004+53130+016750FM-12+007399999V0202501N003010042019N0120001N1+01051+00941100821ADDAY121999AY221999GF108991071051004501999999MA1999999099931MD1310011+9999MW1611REMSYN072AAXX  01081 12230 41462 82503 10105 20094 39993 40082 53001 76122 875//;
0161122300999992000070109004+53130+016750FM-12+007399999V0202601N004010042019N0150001N1+01081+00931100851ADDAY181031AY221031GF108991071051004501999999MA1999999099961MD1210061+9999MW1251REMSYN072AAXX  01091 12230 41465 82604 10108 20093 39996 40085 52006 72582 875//;
0205122300999992000070218004+53130+016750FM-12+007399999V0203001N001012200019N0200001N1+01881+01051101331ADDAA199000091GF104991021021012501031001KA1120M+02051KA2999N+01231MA1999999100461MD1510011+9999REMSYN082AAXX  02181 12230 32670 43001 10188 20105 30046 40133 55001 82230 333 10205 20123;EQDQ01  00002PRCP99
0171122300999992000071019004+53130+016750FM-12+007399999V0209999C000010750019N0150001N1+01591+01431099791ADDAY181999AY211999GF105991041021008001001021MA1999999098931MD1310141+9999MW1291REMSYN082AAXX  10191 12230 41565 50000 10159 20143 39893 49979 53014 72981 84202 555 57021;
0133122300999992000071715004+53130+016750FM-12+007399999V0203401N005010300019N0250001N1+02041+01061101101ADDGF107991041021012501031999MA1999999100241MD1010031+9999REMSYN066AAXX  17151 12230 42675 73405 10204 20106 30024 40110 50003 8423/;
0143122300999992000071804004+53130+016750FM-12+007399999V0202801N003019999999N0150001N1+01381+01211101231ADDGF107991071001999999031999MA1999999100351MD1610041+9999REMSYN076AAXX  18041 12230 42965 72803 10138 20121 30035 40123 56004 8703/ 333 96122;
0133122300999992000071816004+53130+016750FM-12+007399999V0202901N004010075019N0180001N1+01551+01061101241ADDGF107991071091008001999999MA1999999100371MD1010011+9999REMSYN066AAXX  18161 12230 42568 72904 10155 20106 30037 40124 50001 879//;
0172122300999992000072600004+53130+016750FM-12+007399999V0209999C000010042019N0020001N1+01471+01441100481ADDAA199000021AY141061AY211061GF107991071051004501999999MA1999999099611MD1810041+9999MW1101REMSYN072AAXX  26001 12230 31420 70000 10147 20144 39961 40048 58004 71041 875//;
0144122300999992000072900004+53130+016750FM-12+007399999V0201001N001019999999N0100001N1+01601+01501100821ADDAA199000021GF105991051001999999051001MA1999999099951MD1710041+9999REMSYN066AAXX  29001 12230 32960 51001 10160 20150 39995 40082 57004 85050;
0133122300999992000080714004+53130+016750FM-12+007399999V0203301N005010120019N0250001N1+01901+00791101551ADDGF105991051021012501001001MA1999999100681MD1610031+9999REMSYN066AAXX  07141 12230 42675 53305 10190 20079 30068 40155 56003 85200;
0193122300999992000080920004+53130+016750FM-12+007399999V0202701N001012200019N0150001N1+01021+00731102021ADDGA1001+999999999GF100991001001999999001001MA1999999101121MD1310021+9999REMSYN110AAXX  09201 12230 42965 02701 10102 20073 30112 40202 53002 333 96122 555 00174 10207 20145 30062 55049 60254;
0161122300999992000081015004+53130+016750FM-12+007399999V0202001N002010300019N0300001N1+02221+00951101551ADDAY181031AY211031GF107991021021012501031999MA1999999100691MD1710131+9999MW1011REMSYN072AAXX  10151 12230 41680 72002 10222 20095 30069 40155 57013 70181 8223/;
0143122300999992000081408004+53130+016750FM-12+007399999V0201101N001012200019N0200001N1+02121+01391102151ADDGA1001+999999999GF100991001001999999001001MA1999999101281MD1210021+9999REMSYN060AAXX  14081 12230 42970 01101 10212 20139 30128 40215 52002;
0133122300999992000082117004+53130+016750FM-12+007399999V0202501N001010300019N0200001N1+02341+01761101161ADDGF105991031021008001061021MA1999999100311MD1210071+9999REMSYN066AAXX  21171 12230 42570 52501 10234 20176 30031 40116 52007 83262;
0171122300999992000082304004+53130+016750FM-12+007399999V0209999C000019999999N0080001N1+00801+00721102251ADDAY111999AY211999GF105991031001999999051021MA1999999101341MD1310051+9999MW1101REMSYN082AAXX  23041 12230 41958 50000 10080 20072 30134 40225 53005 71011 83052 333 96122;
0153122300999992000082607004+53130+016750FM-12+007399999V0200701N002012200019N0150001N1+01381+01061102321ADDGA1001+999999999GF100991001001999999001001MA1999999101431MD1210031+9999REMSYN070AAXX  26071 12230 42965 00702 10138 20106 30143 40232 52003 555 57015;
0133122300999992000083117004+53130+016750FM-12+007399999V0200101N001010150019N0250001N1+01891+01021101061ADDGF107991071051017501999999MA1999999100201MD1710131+9999REMSYN066AAXX  31171 12230 42775 70101 10189 20102 30020 40106 57013 875//;
0171122300999992000090103004+53130+016750FM-12+007399999V0209999C000019999999N0040001N1+01021+00931101011ADDAY111031AY211031GF107991071001999999051999MA1999999100121MD1710031+9999MW1101REMSYN082AAXX  01031 12230 41940 70000 10102 20093 30012 40101 57003 71011 8705/ 333 96122;
0178122300999992000090400004+53130+016750FM-12+007399999V0203301N002012200019N0030001N1+01161+01111100511ADDAA106002091AY181061AY211061GF104991041051004501001001MA1999999099631MD1210131+9999MW1101REMSYN078AAXX  04001 12230 11430 43302 10116 20111 39963 40051 52013 60021 71081 84500;
0143122300999992000090705004+53130+016750FM-12+007399999V0201301N001019999999N0150001N1+00991+00651100831ADDGF107991071001999999031999MA1999999099941MD1510021+9999REMSYN076AAXX  07051 12230 42965 71301 10099 20065 39994 40083 55002 8703/ 333 96122;
0133122300999992000091103004+53130+016750FM-12+007399999V0203101N001010075019N0150001N1+01391+01151101991ADDGF108991081051008001999999MA1999999101101MD1710071+9999REMSYN066AAXX  11031 12230 42565 83101 10139 20115 30110 40199 57007 885//;
0161122300999992000091110004+53130+016750FM-12+007399999V0201001N002010021019N0035001N1+01211+01141101961ADDAY161999AY261999GF108991071071002501999999MA1999999101071MD1810011+9999MW1631REMSYN072AAXX  11101 12230 41335 81002 10121 20114 30107 40196 58001 76366 877//;
0181122300999992000091123004+53130+016750FM-12+007399999V0209999C000012200019N0040001N1+00781+00721101831ADDAY101999AY201999GA1001+999999999GF100991001001999999001001MA1999999100931MD1210041+9999MW1101REMSYN076AAXX  11231 12230 41940 00000 10078 20072 30093 40183 52004 71000 333 96122;
0233122300999992000091518004+53130+016750FM-12+007399999V0201201N001019999999N0080001N1+01151+00891102091ADDAA199000091AY111061AY211061GF105991011001999999051021KA1120M+01701KA2999N+00811MA1999999101201MD1610041+9999MW1101REMSYN088AAXX  15181 12230 31958 51201 10115 20089 30120 40209 56004 71011 81052 333 10170 20081;EQDQ01  00002PRCP99
0133122300999992000091903004+53130+016750FM-12+007399999V0201101N002010075019N0150001N1+00831+00481101651ADDGF108991081051008001999999MA1999999100751MD1710011+9999REMSYN066AAXX  19031 12230 42565 81102 10083 20048 30075 40165 57001 885//;
0133122300999992000092116004+53130+016750FM-12+007399999V0200901N003012200019N0180001N1+01541+00781102001ADDGF102991011041012501001021MA1999999101121MD1210061+9999REMSYN066AAXX  21161 12230 42668 20903 10154 20078 30112 40200 52006 81402;
0143122300999992000092201004+53130+016750FM-12+007399999V0200301N001012200019N0100001N1+00801+00741102411ADDGF103991031051008001001001MA1999999101501MD1210071+9999REMSYN076AAXX  22011 12230 42560 30301 10080 20074 30150 40241 52007 83500 555 57007;
0133122300999992000092215004+53130+016750FM-12+007399999V0200401N001010300019N0180001N1+01661+00881102771ADDGF107991011021012501031999MA1999999101891MD1110021+9999REMSYN066AAXX  22151 12230 42668 70401 10166 20088 30189 40277 51002 8123/;
0161122300999992000092708004+53130+016750FM-12+007399999V0201401N001012200019N0030001N1+01221+00911102251ADDAY101999AY201999GF103991031001999999031001MA1999999101361MD1810061+9999MW1101REMSYN072AAXX  27081 12230 41930 31401 10122 20091 30136 40225 58006 71000 83030;
0143122300999992000093011004+53130+016750FM-12+007399999V0201301N004012200019N0180001N1+01761+00881101341ADDGA1001+999999999GF100991001001999999001001MA1999999100471MD1810091+9999REMSYN060AAXX  30111 12230 42968 01304 10176 20088 30047 40134 58009;
0161122300999992000100414004+53130+016750FM-12+007399999V0201501N001010075019N0080001N1+01781+01441102231ADDAY121999AY221999GF107991071051008001999999MA1999999101351MD1710131+9999MW1101REMSYN072AAXX  04141 12230 41558 71501 10178 20144 30135 40223 57013 71022 875//;
0161122300999992000100511004+53130+016750FM-12+007399999V0202001N001010021019N0020001N1+01871+01651101801ADDAY121999AY221999GF107991071061002501999999MA1999999100931MD1710091+9999MW1101REMSYN072AAXX  05111 12230 41320 72001 10187 20165 30093 40180 57009 71022 876//;
0211122300999992000100720004+53130+016750FM-12+007399999V0209999C000010001519N0001001N1+01141+01141102151ADDAY141999AY241999GA1091+999999999GF109991091999999999999999MA1999999101251MD1110021+9999MW1471REMSYN106AAXX  07201 12230 41/01 90000 10114 20114 30125 40215 51002 74744 555 00141 10154 20133 30094 55007 60191;
0161122300999992000101011004+53130+016750FM-12+007399999V0201601N002010042019N0080001N1+01121+00841100131ADDAY121999AY221999GF108991071051004501999999MA1999999099251MD1710191+9999MW1101REMSYN072AAXX  10111 12230 41458 81602 10112 20084 39925 40013 57019 71022 875//;
0161122300999992000101708004+53130+016750FM-12+007399999V0200601N001019999999N0030001N1+01271+01171101941ADDAY121999AY221999GF108991081001999999071999MA1999999101051MD1210091+9999MW1101REMSYN072AAXX  17081 12230 41930 80601 10127 20117 30105 40194 52009 71022 8807/;
0161122300999992000101805004+53130+016750FM-12+007399999V0209999C000012200019N0015001N1+00601+00561102621ADDAY101999AY201999GF103991011001999999051021MA1999999101701MD1210091+9999MW1101REMSYN072AAXX  18051 12230 41915 30000 10060 20056 30170 40262 52009 71000 81052;
0133122300999992000102423004+53130+016750FM-12+007399999V0202601N003010075019N0150001N1+01001+00711101501ADDGF105991051051008001001001MA1999999100611MD1410001+9999REMSYN066AAXX  24231 12230 42565 52603 10100 20071 30061 40150 54000 85500;
0161122300999992000103023004+53130+016750FM-12+007399999V0202101N003010075019N0120001N1+01251+00761099801ADDAY121999AY221999GF108991071051008001999999MA1999999098931MD1310011+9999MW1611REMSYN072AAXX  30231 12230 41562 82103 10125 20076 39893 49980 53001 76122 875//;
0171122300999992000103119004+53130+016750FM-12+007399999V0202301N002010075019N0150001N1+00911+00751100241ADDAY121011AY221011GF108991071051008001999999MA1999999099351MD1210061+9999MW1211REMSYN082AAXX  31191 12230 41565 82302 10091 20075 39935 40024 52006 72122 875// 555 57010;
0133122300999992000110105004+53130+016750FM-12+007399999V0202101N001019999999N0150001N1+00501+00321100611ADDGF105991001001999999001021MA1999999099711MD1210111+9999REMSYN066AAXX  01051 12230 42965 52101 10050 20032 39971 40061 52011 80002;
0161122300999992000110517004+53130+016750FM-12+007399999V0201801N001010042019N0025001N1+00381+00291101471ADDAY111999AY211999GF105991051051004501001001MA1999999100561MD1810011+9999MW1101REMSYN072AAXX  05171 12230 41425 51801 10038 20029 30056 40147 58001 71011 85500;
0171122300999992000111507004+53130+016750FM-12+007399999V0202901N001010042019N0040001N1+00761+00701101351ADDAY121999AY221999GF107991071051004501999999MA1999999100451MD1210291+9999MW1101REMSYN082AAXX  15071 12230 41440 72901 10076 20070 30045 40135 52029 71022 875// 555 57004;
0233122300999992000111718004+53130+016750FM-12+007399999V0201301N002010012019N0015001N1+00621+00581101001ADDAA199000091AY121061AY221061GF108991081061001501999999KA1120M+00641KA2999N+00031MA1999999100101MD1710101+9999MW1101REMSYN088AAXX  17181 12230 31215 81302 10062 20058 30010 40100 57010 71022 886// 333 10064 20003;EQDQ01  00002PRCP99
0172122300999992000112212004+53130+016750FM-12+007399999V0202001N002019999999N0080001N1+00821+00551101421ADDAA199000021AY121061AY221061GF107991021001999999051021MA1999999100521MD1410001+9999MW1101REMSYN072AAXX  22121 12230 31958 72002 10082 20055 30052 40142 54000 71022 82052;
0161122300999992000112614004+53130+016750FM-12+007399999V0201201N002010012019N0020001N1+00591+00551100251ADDAY161999AY261999GF108991071071001501999999MA1999999099351MD1710071+9999MW1611REMSYN072AAXX  26141 12230 41220 81202 10059 20055 39935 40025 57007 76166 877//;
0201122300999992000120200004+53130+016750FM-12+007399999V0201801N001012200019N0015001N1+00381+00341101831ADDAA199000091AY111061AY211061GA1001+999999999GF100991001001999999001001MA1999999100911MD1610081+9999MW1101REMSYN066AAXX  02001 12230 31915 01801 10038 20034 30091 40183 56008 71011;EQDQ01  00002PRCP99
0161122300999992000120416004+53130+016750FM-12+007399999V0201601N001010012019N0030001N1+00521+00461102181ADDAY121999AY221999GF108991081061001501999999MA1999999101261MD1210021+9999MW1101REMSYN072AAXX  04161 12230 41230 81601 10052 20046 30126 40218 52002 71022 886//;
0161122300999992000121023004+53130+016750FM-12+007399999V0202101N002010042019N0030001N1+00651+00631101131ADDAY121999AY221999GF108991081091004501999999MA1999999100231MD1710081+9999MW1251REMSYN072AAXX  10231 12230 41430 82102 10065 20063 30023 40113 57008 72522 889//;
0161122300999992000122709004+53130+016750FM-12+007399999V0201301N003010012019N0020001N1-00151-00221099701ADDAY121031AY221031GF108991081061001501999999MA1999999098781MD1310071+9999MW1101REMSYN072AAXX  27091 12230 41220 81303 11015 21022 39878 49970 53007 71022 886//;
0161122300999992000122908004+53130+016750FM-12+007399999V0202301N002012200019N0060001N1-00251-00341099861ADDAY101999AY201999GF104991001001999999001021MA1999999098941MD1210141+9999MW1101REMSYN072AAXX  29081 12230 41956 42302 11025 21034 39894 49986 52014 71000 80002;
0161122300999992000123116004+53130+016750FM-12+007399999V0202801N003010042019N0030001N1-00071-00181101101ADDAY121999AY221999GF107991071051004501999999MA1999999100171MD1110201+9999MW1101REMSYN072AAXX  31161 12230 41430 72803 11007 21018 30017 40110 51020 71022 875//;
0161122350999992000010408004+53700+017550FM-12+017799999V0202401N005010042019N0100001N1+00441+00401101351ADDAY121999AY221999GF108991081091004501999999MA1999999099231MD1210081+9999MW1251REMSYN072AAXX  04081 12235 41497 82405 10044 20040 39923 40135 52008 72522 889//;
0171122350999992000010501004+53700+017550FM-12+017799999V0201801N005010021019N0040001N1+00201+00201101011ADDAY161999AY221999GF108991061071002501021999MA1999999098881MD1710301+9999MW1611REMSYN082AAXX  05011 12235 41396 81805 10020 20020 39888 40101 57030 76162 8672/ 555 57002;
0133122350999992000010617004+53700+017550FM-12+017799999V0201801N005019999999N0100001N1-00021-00071102031ADDGF108991001001999999001071MA1999999099861MD1610101+9999REMSYN066AAXX  06171 12235 42997 81805 11002 21007 39986 40203 56010 80007;
0171122350999992000010919004+53700+017550FM-12+017799999V0202701N002012200019N0040001N1+00281+00231102471ADDAY111999AY211999GF104991041051004501001001MA1999999100311MD1210111+9999MW1101REMSYN082AAXX  09191 12235 41496 42702 10028 20023 30031 40247 52011 71011 84500 555 57001;
0171122350999992000011205004+53700+017550FM-12+017799999V0202101N005010003019N0005001N1-00321-00331103391ADDAY121999AY221999GA1091+999999999GF109991091999999999999999MA1999999101171MD1810071+9999MW1491REMSYN066AAXX  12051 12235 41/05 92105 11032 21033 30117 40339 58007 74922;
0157122350999992000011401004+53700+017550FM-12+017799999V0201801N003012200019N0100001N1-00661-00781102411ADDGA1001+999999999GF100991001001999999001001MA1999999100181MD1210031+9999REMSYN074    AAXX  14011 12235 42997 01803 11066 21078 30018 40241 52003 555 57003;
0165122350999992000011508004+53700+017550FM-12+017799999V0202401N003010042019N0040001N1-00291-00471102811ADDAY121999AY221999GF108991081051004501999999MA1999999100601MD1410001+9999MW1101REMSYN076    AAXX  15081 12235 41496 82403 11029 21047 30060 40281 54000 71022 885//;
0245122350999992000012006004+53700+017550FM-12+017799999V0202601N005010042019N0100001N1-00141-00291101511ADDAA124000791AJ100039199999999GF106991061051004501999999IA1249IA2999-00609KA1120M-00121KA2120N-00291MA1999999099341MD1710221+9999REMSYN106AAXX  20061 12235 32497 62605 11014 21029 39934 40151 57022 865// 333 11012 21029 3/106 48003 55063 79999;
0143122350999992000012705004+53700+017550FM-12+017799999V0202701N007010042019N0100001N1+00311+00121101581ADDGF108991081051004501999999MA1999999099451MD1510021+9999REMSYN076AAXX  27051 12235 42497 82707 10031 20012 39945 40158 55002 885// 333 91115;
0143122350999992000020101004+53700+017550FM-12+017799999V0202401N006010042019N0100001N1+00061-00041101651ADDGF108991081051004501999999MA1999999099491MD1010011+9999REMSYN076AAXX  01011 12235 42497 82406 10006 21004 39949 40165 50001 885// 555 57004;
0232122350999992000020418004+53700+017550FM-12+017799999V0202401N009010021019N0040001N1+00341+00291101511ADDAA112004191AY171061AY261061GF108991061071002501021999KA1120M+00341KA2120N-00211MA1999999099381MD1710281+9999MW1611REMSYN106AAXX  04181 12235 11396 82409 10034 20029 39938 40151 57028 60042 76176 8672/ 333 10034 21021 91014 91116;
0187122350999992000020501004+53700+017550FM-12+017799999V0202701N009010021019N0040001N1+00701+00641101291ADDAY151999AY221999GF108991081061002501999999MA1999999099191MD1410001+9999MW1511REMSYN098AAXX  05011 12235 41396 82709 10070 20064 39919 40129 54000 75152 886// 333 91017 91117 555 57004;
0171122350999992000020521004+53700+017550FM-12+017799999V0202601N005010042019N0100001N1+00701+00601102091ADDAY151031AY221031GF108991081051004501999999MA1999999099971MD1510011+9999MW1201REMSYN082AAXX  05211 12235 41497 82605 10070 20060 39997 40209 55001 72052 885// 333 91111;
0161122350999992000021314004+53700+017550FM-12+017799999V0202301N003010042019N0020001N1+00071+00021100791ADDAY181999AY221999GF108991081091004501999999MA1999999098651MD1710201+9999MW1861REMSYN072AAXX  13141 12235 41420 82303 10007 20002 39865 40079 57020 78682 889//;
0220122350999992000021518004+53700+017550FM-12+017799999V0202501N004010021019N0020001N1+00161+00111100741ADDAA112000891AY171061AY221061GF108991081061002501999999KA1120M+00161KA2999N-00191MA1999999098611MD1310011+9999MW1281REMSYN094AAXX  15181 12235 11320 82504 10016 20011 39861 40074 53001 69972 72872 886// 333 10016 21019;
0133122350999992000021904004+53700+017550FM-12+017799999V0201101N004012200019N0100001N1-00281-00491100671ADDGF102991021001999999031001MA1999999098511MD1610011+9999REMSYN066AAXX  19041 12235 42997 21104 11028 21049 39851 40067 56001 82030;
0133122350999992000022010004+53700+017550FM-12+017799999V0203301N002010042019N0100001N1-00211-00381102011ADDGF108991081051004501999999MA1999999099831MD1210211+9999REMSYN066AAXX  20101 12235 42497 83302 11021 21038 39983 40201 52021 885//;
0133122350999992000022314004+53700+017550FM-12+017799999V0201701N002012200019N0100001N1+00201-00631102621ADDGF101991011011008001001001MA1999999100461MD1610021+9999REMSYN066AAXX  23141 12235 42597 11702 10020 21063 30046 40262 56002 81100;
0149122350999992000022810004+53700+017550FM-12+017799999V0202001N010019999999N0100001N1+00881+00031101501ADDGF106991001001999999001081MA1999999099411MD1710191+9999REMSYN082AAXX  28101 12235 42997 62010 10088 20003 39941 40150 57019 80008 333 91015 91118;
0143122350999992000022817004+53700+017550FM-12+017799999V0201901N008019999999N0100001N1+00941+00061100971ADDGF105991031001999999031081MA1999999098901MD1610151+9999REMSYN076AAXX  28171 12235 42997 51908 10094 20006 39890 40097 56015 83038 333 91113;
0133122350999992000031315004+53700+017550FM-12+017799999V0202101N005010042019N0100001N1+00341+00151102251ADDGF106991061051004501999999MA1999999100101MD1810081+9999REMSYN066AAXX  13151 12235 42497 62105 10034 20015 30010 40225 58008 865//;
0149122350999992000032310004+53700+017550FM-12+017799999V0202901N004010042019N0100001N1+00741+00231101371ADDGF108991081051004501999999MA1999999099271MD1110011+9999REMSYN082AAXX  23101 12235 42497 82904 10074 20023 39927 40137 51001 885// 333 91010 91110;
0149122350999992000040611004+53700+017550FM-12+017799999V0203301N009012200019N0100001N1+00641-00891101991ADDGF105991021021004501001081MA1999999099871MD1210111+9999REMSYN082AAXX  06111 12235 42497 53309 10064 21089 39987 40199 52011 82208 333 91016 91118;
0133122350999992000041016004+53700+017550FM-12+017799999V0201301N003012200019N0100001N1+00801-00441101201ADDGF104991041021008001001001MA1999999099111MD1710201+9999REMSYN066AAXX  10161 12235 42597 41303 10080 21044 39911 40120 57020 84200;
0153122350999992000041301004+53700+017550FM-12+017799999V0202401N006010042019N0100001N1+00401+00261099601ADDGF108991081051004501999999MA1999999097511MD1210281+9999REMSYN086AAXX  13011 12235 42497 82406 10040 20026 39751 49960 52028 885// 333 91113 555 57006;
0143122350999992000041521004+53700+017550FM-12+017799999V0201101N004012200019N0100001N1+00951+00611100161ADDGA1001+999999999GF100991001001999999001001MA1999999098101MD1710071+9999REMSYN060AAXX  15211 12235 42997 01104 10095 20061 39810 40016 57007;
0161122350999992000042123004+53700+017550FM-12+017799999V0202101N003010300019N0100001N1+01441+01031101631ADDAY191999AY291999GF106991041091004501031999MA1999999099581MD1410001+9999MW1171REMSYN072AAXX  21231 12235 41497 62103 10144 20103 39958 40163 54000 71799 8493/;
0133122350999992000042204004+53700+017550FM-12+017799999V0209999C000010300019N0100001N1+01121+00971101741ADDGF105991031021004501031001MA1999999099661MD1310071+9999REMSYN066AAXX  22041 12235 42497 50000 10112 20097 39966 40174 53007 83230;
0173122350999992000042420004+53700+017550FM-12+017799999V0201401N003012200019N0100001N1+02041+00781100711ADDGF104991041001999999031001MA1999999098721MD1110051+9999REMSYN106AAXX  24201 12235 42997 41403 10204 20078 39872 40071 51005 84030 555 00181 10241 20137 30104 55133 60431;
0179122350999992000042520004+53700+017550FM-12+017799999V0203301N003019999999N0100001N1+00991+00801101581ADDGF108991081001999999071999MA1999999099501MD1210131+9999REMSYN112AAXX  25201 12235 42997 83303 10099 20080 39950 40158 52013 8807/ 555 00160 10190 20139 30094 55025 60282 70221;
0211122350999992000042818004+53700+017550FM-12+017799999V0201201N004012200019N0100001N1+02271+01001101781ADDAA199000091GF101991001001999999001011KA1120M+02551KA2120N+01681MA1999999099781MD1310081+9999REMSYN088AAXX  28181 12235 32997 11204 10227 20100 39978 40178 53008 80001 333 10255 20168 91115;EQDQ01  00002PRCP99
0245122350999992000042906004+53700+017550FM-12+017799999V0201201N004012200019N0100001N1+01761+01021102041ADDAA199000091GA1001+999999999GF100991001001999999001001IA1019IA2999+01309KA1120M+02271KA2120N+01441MA1999999100001MD1210041+9999REMSYN088AAXX  29061 12235 32997 01204 10176 20102 30000 40204 52004 333 10227 20144 30013 55132;EQDQ01  00002PRCP99
0133122350999992000050105004+53700+017550FM-12+017799999V0203301N001012200019N0100001N1+01341+01071102121ADDGF102991021021008001001001MA1999999100051MD1310011+9999REMSYN066AAXX  01051 12235 42597 23301 10134 20107 30005 40212 53001 82200;
0183122350999992000050620004+53700+017550FM-12+017799999V0200401N006012200019N0100001N1+01061+00581102181ADDGF102991001001999999001011MA1999999100091MD1210201+9999REMSYN116AAXX  06201 12235 42997 20406 10106 20058 30009 40218 52020 80001 333 91111 555 00181 10250 20129 30020 55084 60233;
0153122350999992000050621004+53700+017550FM-12+017799999V0200401N004012200019N0100001N1+00901+00371102241ADDGA1001+999999999GF100991001001999999001001MA1999999100141MD1210211+9999REMSYN070AAXX  06211 12235 42997 00404 10090 20037 30014 40224 52021 333 91111;
0133122350999992000051405004+53700+017550FM-12+017799999V0203301N003019999999N0100001N1+01121+00581102511ADDGF105991001001999999001011MA1999999100421MD1110041+9999REMSYN066AAXX  14051 12235 42997 53303 10112 20058 30042 40251 51004 80001;
0133122350999992000051805004+53700+017550FM-12+017799999V0203201N003010042019N0100001N1+01221+00871101041ADDGF107991071051004501999999MA1999999098981MD1110071+9999REMSYN066AAXX  18051 12235 42497 73203 10122 20087 39898 40104 51007 875//;
0171122350999992000051919004+53700+017550FM-12+017799999V0200401N002010042019N0040001N1+01061+00891100751ADDAY181999AY221999GF108991081091004501999999MA1999999098691MD1210121+9999MW1801REMSYN082AAXX  19191 12235 41496 80402 10106 20089 39869 40075 52012 78082 889// 555 57017;
0133122350999992000052403004+53700+017550FM-12+017799999V0201801N002019999999N0200001N1+01001+00791101781ADDGF108991081001999999071999MA1999999099691MD1710101+9999REMSYN066AAXX  24031 12235 42998 81802 10100 20079 39969 40178 57010 8807/;
0133122350999992000052809004+53700+017550FM-12+017799999V0201501N004010075019N0100001N1+01381+00841101421ADDGF107991051021008001031999MA1999999099371MD1710171+9999REMSYN066AAXX  28091 12235 42597 71504 10138 20084 39937 40142 57017 8523/;
0143122350999992000060422004+53700+017550FM-12+017799999V0200901N001010042019N0100001N1+01201+00881101751ADDGF106991061051004501999999MA1999999099681MD1010081+9999REMSYN076AAXX  04221 12235 42497 60901 10120 20088 39968 40175 50008 865// 555 60123;
0177122350999992000061609004+53690+017540FM-12+017799999V0202701N005010042019N0040001N1+01041+00651101631ADDAY181031AY221031GF107991071091004501999999MA1999999099551MD1210101+9999MW1251REMSYN088AAXX  16091 12235 41496 72705 10104 20065 39955 40163 52010 72582 879// 333 91012 91114;
0173122350999992000061820004+53690+017540FM-12+017799999V0201301N001010750019N0200001N1+01361+00781102731ADDGF108991021051004501001071MA1999999100651MD1310061+9999REMSYN106AAXX  18201 12235 42498 81301 10136 20078 30065 40273 53006 82507 555 00163 10208 20113 30055 55053 60360;
0133122350999992000061921004+53690+017540FM-12+017799999V0201601N001019999999N0100001N1+01861+01221101991ADDGF105991001001999999001081MA1999999099961MD1810011+9999REMSYN066AAXX  19211 12235 42997 51601 10186 20122 39996 40199 58001 80008;
0180122350999992000070102004+53690+017540FM-12+017799999V0202001N006010021019N0040001N1+01001+00941100671ADDAY161999AY261999GF108991999071002501021999MA1999999098611MD1710151+9999MW1611REMSYN072AAXX  01021 12235 41396 82006 10100 20094 39861 40067 57015 76166 8872/;EQDQ01+000082SCOTLC
0133122350999992000070205004+53690+017540FM-12+017799999V0202801N003010300019N0100001N1+01161+01001101051ADDGF107991041051004501031999MA1999999098991MD1210141+9999REMSYN066AAXX  02051 12235 42497 72803 10116 20100 39899 40105 52014 8453/;
0133122350999992000070817004+53690+017540FM-12+017799999V0203101N002010300019N0100001N1+01541+00821100831ADDGF106991041021008001031999MA1999999098801MD1810011+9999REMSYN066AAXX  08171 12235 42597 63102 10154 20082 39880 40083 58001 8423/;
0161122350999992000071110004+53690+017540FM-12+017799999V0201501N003010021019N0040001N1+01581+01381100011ADDAY161999AY261999GF108991051071002501021999MA1999999098001MD1310031+9999MW1611REMSYN072AAXX  11101 12235 41396 81503 10158 20138 39800 40001 53003 76166 8572/;
0173122350999992000071620004+53690+017540FM-12+017799999V0200301N003010042019N0100001N1+01741+01341101031ADDGF108991051051004501001071MA1999999099011MD1210111+9999REMSYN106AAXX  16201 12235 42497 80303 10174 20134 39901 40103 52011 85507 555 00176 10228 20138 30109 55042 60258;
0171122350999992000071819004+53690+017540FM-12+017799999V0202401N003010042019N0040001N1+01341+01001101121ADDAY121999AY221999GF108991081091004501999999MA1999999099071MD1610011+9999MW1801REMSYN082AAXX  18191 12235 41496 82403 10134 20100 39907 40112 56001 78022 889// 555 57043;
0133122350999992000072309004+53690+017540FM-12+017799999V0201701N005010075019N0100001N1+01761+01401101511ADDGF106991061021008001999999MA1999999099481MD1310031+9999REMSYN066AAXX  23091 12235 42597 61705 10176 20140 39948 40151 53003 862//;
0143122350999992000072719004+53690+017540FM-12+017799999V0203201N001012200019N0100001N1+01761+01331101311ADDGF103991031001999999031001MA1999999099291MD1110021+9999REMSYN076AAXX  27191 12235 42997 33201 10176 20133 39929 40131 51002 83030 555 57073;
0143122350999992000080211004+53690+017540FM-12+017799999V0201801N006019999999N0100001N1+02591+01361101211ADDGF106991051001999999031081MA1999999099241MD1710251+9999REMSYN076AAXX  02111 12235 42997 61806 10259 20136 39924 40121 57025 85038 333 91113;
0171122350999992000080603004+53690+017540FM-12+017799999V0209999C000010750019N0100001N1+01041+00981102141ADDAY111031AY211031GF108991031021008001001071MA1999999100051MD1710071+9999MW1111REMSYN082AAXX  06031 12235 41597 80000 10104 20098 30005 40214 57007 71111 83207 333 96122;
0205122350999992000080618004+53690+017540FM-12+017799999V0203301N002012200019N0200001N1+02041+01351101651ADDAA199000091GF102991001001999999001011KA1120M+02371KA2999N+01441MA1999999099641MD1710061+9999REMSYN082AAXX  06181 12235 32998 23302 10204 20135 39964 40165 57006 80001 333 10237 20144;EQDQ01  00002PRCP99
0143122350999992000080822004+53690+017540FM-12+017799999V0202401N003010300019N0100001N1+01251+01031101711ADDGF106991041051004501031999MA1999999099641MD1410001+9999REMSYN076AAXX  08221 12235 42497 62403 10125 20103 39964 40171 54000 8453/ 555 60132;
0153122350999992000082222004+53690+017540FM-12+017799999V0202601N003012200019N0100001N1+01181+00901102101ADDGA1001+999999999GF100991001001999999001001MA1999999100021MD1110061+9999REMSYN070AAXX  22221 12235 42997 02603 10118 20090 30002 40210 51006 555 60150;
0205122350999992000082418004+53690+017540FM-12+017799999V0202401N004010300019N0100001N1+01441+00871101521ADDAA199000091GF108991031051004501071999KA1120M+01681KA2999N+01121MA1999999099471MD1610241+9999REMSYN082AAXX  24181 12235 32497 82404 10144 20087 39947 40152 56024 8357/ 333 10168 20112;EQDQ01  00002PRCP99
0171122350999992000082604004+53690+017540FM-12+017799999V0203201N001012200019N0040001N1+00921+00901102291ADDAY101999AY201999GA1001+999999999GF100991001001999999001001MA1999999100191MD1210051+9999MW1101REMSYN066AAXX  26041 12235 41940 03201 10092 20090 30019 40229 52005 71000;
0143122350999992000090219004+53690+017540FM-12+017799999V0201701N001012200019N0100001N1+01281+01161100311ADDGF104991021051004501001011MA1999999098271MD1110071+9999REMSYN076AAXX  02191 12235 42497 41701 10128 20116 39827 40031 51007 82501 555 57013;
0161122350999992000090308004+53690+017540FM-12+017799999V0201701N002010042019N0040001N1+01301+01231100161ADDAY121999AY221999GF108991081051004501999999MA1999999098131MD1310021+9999MW1101REMSYN072AAXX  03081 12235 41496 81702 10130 20123 39813 40016 53002 71022 885//;
0220122350999992000091218004+53690+017540FM-12+017799999V0201201N001010300019N0100001N1+01281+01121101491ADDAA112001091AY181061AY221061GF108991041051004501031999KA1120M+01791KA2999N+00931MA1999999099431MD1710141+9999MW1011REMSYN094AAXX  12181 12235 11497 81201 10128 20112 39943 40149 57014 60012 70182 8453/ 333 10179 20093;
0133122350999992000091609004+53690+017540FM-12+017799999V0201101N005019999999N0100001N1+01281+00641101661ADDGF108991041001999999031071MA1999999099601MD1610071+9999REMSYN066AAXX  16091 12235 42997 81105 10128 20064 39960 40166 56007 84037;
0183122350999992000092320004+53690+017540FM-12+017799999V0200601N002012200019N0100001N1+00661+00241103211ADDGA1001+999999999GF100991001001999999001001MA1999999101071MD1210041+9999REMSYN100AAXX  23201 12235 42997 00602 10066 20024 30107 40321 52004 555 00106 10174 20061 30003 55033 60250;
0263122350999992000092906004+53690+017540FM-12+017799999V0201101N003012200019N0020001N1+01061+00931101471ADDAA199000091AY101061AY201061GF103991031001999999031001IA1019IA2999+00909KA1120M+01731KA2120N+00981MA1999999099391MD1110031+9999MW1101REMSYN100AAXX  29061 12235 31920 31103 10106 20093 39939 40147 51003 71000 83030 333 10173 20098 30009 55055;EQDQ01  00002PRCP99
0183122350999992000093012004+53690+017540FM-12+017799999V0201201N006012200019N0100001N1+01751+00911101451ADDAA199000091GA1001+999999999GF100991001001999999001001MA1999999099421MD1810081+9999REMSYN070AAXX  30121 12235 32997 01206 10175 20091 39942 40145 58008 333 91112;EQDQ01  00002PRCP99
0133122350999992000100117004+53690+017540FM-12+017799999V0201201N005010042019N0100001N1+01681+01051100991ADDGF108991081051004501999999MA1999999098971MD1610051+9999REMSYN066AAXX  01171 12235 42497 81205 10168 20105 39897 40099 56005 885//;
0133122350999992000100815004+53690+017540FM-12+017799999V0201501N002010300019N0100001N1+01451+01021101841ADDGF106991041021008001031999MA1999999099781MD1810061+9999REMSYN066AAXX  08151 12235 42597 61502 10145 20102 39978 40184 58006 8423/;
0133122350999992000101204004+53690+017540FM-12+017799999V0201101N004012200019N0100001N1+01141+00901099981ADDGF105991031051004501001081MA1999999097941MD1710061+9999REMSYN066AAXX  12041 12235 42497 51104 10114 20090 39794 49998 57006 83508;
0133122350999992000101310004+53690+017540FM-12+017799999V0201101N004019999999N0100001N1+01741+01231101071ADDGF108991001001999999001071MA1999999099051MD1810011+9999REMSYN066AAXX  13101 12235 42997 81104 10174 20123 39905 40107 58001 80007;
0153122350999992000101419004+53690+017540FM-12+017799999V0200601N002012200019N0100001N1+01081+00871102141ADDGA1001+999999999GF100991001001999999001001MA1999999100051MD1310101+9999REMSYN070AAXX  14191 12235 42997 00602 10108 20087 30005 40214 53010 555 57020;
0133122350999992000101516004+53690+017540FM-12+017799999V0200901N004019999999N0100001N1+01261+00871101921ADDGF108991001001999999001071MA1999999099851MD1610071+9999REMSYN066AAXX  15161 12235 42997 80904 10126 20087 39985 40192 56007 80007;
0235122350999992000101606004+53690+017540FM-12+017799999V0201101N005010042019N0100001N1+00981+00851101751ADDAA199000091GF108991081051004501999999IA1019IA2999+00809KA1120M+01181KA2120N+00881MA1999999099661MD1510011+9999REMSYN094AAXX  16061 12235 32497 81105 10098 20085 39966 40175 55001 885// 333 10118 20088 30008 55072;EQDQ01  00002PRCP99
0161122350999992000101610004+53690+017540FM-12+017799999V0201301N005012200019N0040001N1+01341+00961101731ADDAY111999AY211999GF101991001001999999001011MA1999999099671MD1810011+9999MW1101REMSYN072AAXX  16101 12235 41996 11305 10134 20096 39967 40173 58001 71011 80001;
0143122350999992000101611004+53690+017540FM-12+017799999V0201101N005012200019N0100001N1+01501+01041101661ADDGA1001+999999999GF100991001001999999001001MA1999999099611MD1810071+9999REMSYN060AAXX  16111 12235 42997 01105 10150 20104 39961 40166 58007;
0158122350999992000102720004+53690+017540FM-12+017799999V0202401N004010042019N0100001N1+00821+00701101471ADDGF106991061051004501999999MD1210101+9999REMSYN106AAXX  27201 12235 42497 62404 10082 20070 40147 52010 865// 555 00078 10093 20061 30043 55012 60682 70096;
0171122350999992000110319004+53690+017540FM-12+017799999V0200901N005012200019N0040001N1+00821+00681100441ADDAY111999AY211999GF102991021001999999031001MA1999999098371MD1810061+9999MW1101REMSYN082AAXX  03191 12235 41996 20905 10082 20068 39837 40044 58006 71011 82030 555 57010;
0161122350999992000110510004+53690+017540FM-12+017799999V0202401N004010300019N0040001N1+00631+00551101331ADDAY121999AY221999GF108991031051004501031071MA1999999099221MD1110111+9999MW1101REMSYN072AAXX  05101 12235 41496 82404 10063 20055 39922 40133 51011 71022 83537;
0181122350999992000110522004+53690+017540FM-12+017799999V0201801N002012200019N0040001N1+00221+00171101391ADDAY101999AY201999GA1001+999999999GF100991001001999999001001MA1999999099251MD1810041+9999MW1101REMSYN076AAXX  05221 12235 41940 01802 10022 20017 39925 40139 58004 71000 555 60057;
0171122350999992000110710004+53690+017540FM-12+017799999V0201101N007010042019N0040001N1+00801+00661099361ADDAY181999AY281999GF108991081091004501999999MA1999999097311MD1010011+9999MW1811REMSYN082AAXX  07101 12235 41496 81107 10080 20066 39731 49936 50001 78188 889// 333 91113;
0161122350999992000111104004+53690+017540FM-12+017799999V0202101N005010021019N0040001N1+00281+00141101841ADDAY121999AY221999GF108991081061002501999999MA1999999099701MD1210051+9999MW1511REMSYN072AAXX  11041 12235 41396 82105 10028 20014 39970 40184 52005 75122 886//;
0161122350999992000111603004+53690+017540FM-12+017799999V0201501N002010042019N0008001N1+00551+00531101551ADDAY141031AY241031GF107991071051004501999999MA1999999099431MD1710081+9999MW1441REMSYN072AAXX  16031 12235 41408 71502 10055 20053 39943 40155 57008 74444 875//;
0171122350999992000111708004+53690+017540FM-12+017799999V0201001N003010003019N0002001N1+00241+00241101731ADDAY141999AY241999GA1091+999999999GF109991091999999999999999MA1999999099591MD1810041+9999MW1431REMSYN066AAXX  17081 12235 41/02 91003 10024 20024 39959 40173 58004 74344;
0171122350999992000120509004+53690+017540FM-12+017799999V0201801N005010001519N0001001N1+00321+00321102231ADDAY141031AY241031GA1091+999999999GF109991091999999999999999MA1999999100081MD1010081+9999MW1451REMSYN066AAXX  05091 12235 41/01 91805 10032 20032 30008 40223 50008 74544;
0178122350999992000121100004+53690+017540FM-12+017799999V0201501N004010042019N0100001N1+00521+00481101101ADDAA106002091AY181061AY211061GF108991081051004501999999MA1999999098991MD1710101+9999MW1211REMSYN078AAXX  11001 12235 11497 81504 10052 20048 39899 40110 57010 60021 72181 885//;
0171122350999992000121122004+53690+017540FM-12+017799999V0202301N006010021019N0100001N1+00861+00801101581ADDAY121999AY221999GF108991081061002501999999MA1999999099491MD1710011+9999MW1201REMSYN082AAXX  11221 12235 41397 82306 10086 20080 39949 40158 57001 72022 886// 555 60069;
0205122350999992000121220004+53690+017540FM-12+017799999V0202001N003010001519N0001001N1+00901+00901101531ADDAY141999AY241999GA1091+999999999GF109991091999999999999999MA1999999099441MD1410001+9999MW1451REMSYN100AAXX  12201 12235 41/01 92003 10090 20090 39944 40153 54000 74544 555 00072 10075 20065 30058 70087;
0161122350999992000121223004+53690+017540FM-12+017799999V0202101N004010021019N0040001N1+01061+01041101341ADDAY161999AY261999GF108991081061002501999999MA1999999099271MD1710171+9999MW1511REMSYN072AAXX  12231 12235 41396 82104 10106 20104 39927 40134 57017 75166 886//;
0161122350999992000121311004+53690+017540FM-12+017799999V0202201N007010042019N0100001N1+00981+00871100551ADDAY121999AY221999GF107991071051004501999999MA1999999098491MD1710131+9999MW1211REMSYN072AAXX  13111 12235 41497 72207 10098 20087 39849 40055 57013 72122 875//;
0133122350999992000121417004+53690+017540FM-12+017799999V0202201N005012200019N0100001N1+00411+00201100141ADDGF102991021051004501001001MA1999999098041MD1810031+9999REMSYN066AAXX  14171 12235 42497 22205 10041 20020 39804 40014 58003 82500;
0161122350999992000121515004+53690+017540FM-12+017799999V0202201N005010042019N0100001N1+00421+00241099391ADDAY181031AY221031GF105991051091004501001001MA1999999097311MD1610051+9999MW1011REMSYN072AAXX  15151 12235 41497 52205 10042 20024 39731 49939 56005 70182 85900;
0133122350999992000121803004+53690+017540FM-12+017799999V0203001N001010042019N0100001N1+00161+00111101471ADDGF108991081051004501999999MA1999999099331MD1210111+9999REMSYN066AAXX  18031 12235 42497 83001 10016 20011 39933 40147 52011 885//;
0144122350999992000122912004+53690+017540FM-12+017799999V0202101N006019999999N0100001N1-00141-00271099921ADDAA199000021GF105991001001999999001081MA1999999097791MD1210121+9999REMSYN066AAXX  29121 12235 32997 52106 11014 21027 39779 49992 52012 80008;
0161122350999992000123010004+53690+017540FM-12+017799999V0201101N002010042019N0020001N1-00231-00341100031ADDAY121999AY221999GF108991081051004501999999MA1999999097891MD1810011+9999MW1101REMSYN072AAXX  30101 12235 41420 81102 11023 21034 39789 40003 58001 71022 885//;
0161122350999992000123102004+53690+017540FM-12+017799999V0202501N004010021019N0040001N1-00191-00241100201ADDAY171999AY221999GF108991061071002501021999MA1999999098061MD1210101+9999MW1711REMSYN072AAXX  31021 12235 41340 82504 11019 21024 39806 40020 52010 77172 8672/;
0161122500999992000010109004+53030+018580FM-12+007299999V0202001N003010042019N0020001N1-00041-00091102511ADDAY121031AY221031GF108991081061004501999999MA1999999101591MD1410001+9999MW1101REMSYN072AAXX  01091 12250 41420 82003 11004 21009 30159 40251 54000 71022 886//;
0161122500999992000010305004+53030+018580FM-12+007299999V0202401N003010042019N0031001N1+00241+00191102081ADDAY151999AY251999GF108991081061004501999999MA1999999101171MD1510041+9999MW1511REMSYN072AAXX  03051 12250 41431 82403 10024 20019 30117 40208 55004 75155 886//;
0171122500999992000011209004+53030+018580FM-12+007299999V0201701N002012200019N0040001N1-00191-00331103551ADDAY101031AY201031GA1001+999999999GF100991001001999999001001MA1999999102611MD1510031+9999MW1101REMSYN066AAXX  12091 12250 41996 01702 11019 21033 30261 40355 55003 71000;
0143122500999992000013022004+53030+018580FM-12+007299999V0202701N002010075019N0100001N1+00181-00401100831ADDGF107991071051008001999999MA1999999099931MD1210281+9999REMSYN076AAXX  30221 12250 42597 72702 10018 21040 39993 40083 52028 875// 555 60041;
