0071727474999992000062120009+47400-092500NSRDB+042199999V020999999999999999999999999999+99999+99999999999ADDGP10060018302008000002015018302008GQ100600287921959GR100601159913229
0219727474999992000062203003+47400-092500FM-15+0421KEVM V0203001N005710036019N0160931N1+01401+01301999999ADDGD14991+0036019GF108991999999999999999999GP10060000002008000002015000002008GQ100600895930599GR100600002901879MA1099701999999MW1001REMMET058KEVM 220255Z AUTO 30011KT 10SM OVC012 14/13 A2944 RMK AO1;EQDQ01+000000PRSWM2
0201727474999992000062501003+47400-092500FM-15+0421KEVM V0203201N003112200019N0160931N1+02201+00801999999ADDGF100991999999999999999999GP10060018302008035202015009602008GQ100600757928939GR100600325913229MA1101051999999MW1001REMMET055KEVM 250055Z AUTO 32006KT 10SM CLR 22/08 A2984 RMK AO1;EQDQ01+000000PRSWM2
0071727474999992000062916009+47400-092500NSRDB+042199999V020999999999999999999999999999+99999+99999999999ADDGP10060074702008081702015012602008GQ100600405911239GR100601003913219
0201727474999992000070115003+47400-092500FM-15+0421KEVM V0202301N004612200019N0160931N1+02301+01701999999ADDGF100991999999999999999999GP10060060502008077302015011202008GQ100600504909869GR100600840913219MA1100711999999MW1001REMMET055KEVM 011455Z AUTO 23009KT 10SM CLR 23/17 A2974 RMK AO1;EQDQ01+000000PRSWM2
0202727474999992000070409003+47400-092500FM-15+0421KEVM V0209999C000012200019N0160931N1+01201+01101999999ADDGD12991+0150019GF104991999999999999999999GP10060000002000000002000000002000GR100600000900009MA1101631999999MW1001REMMET058KEVM 040855Z AUTO 00000KT 10SM SCT050 12/11 A3001 RMK AO1;EQDQ01+000000PRSWM2
0201727474999992000070415003+47400-092500FM-15+0421KEVM V0201401N002612200019N0160931N1+02301+01501999999ADDGF100991999999999999999999GP10060055402008056602015019502008GQ100600507909879GR100600836913219MA1101631999999MW1001REMMET055KEVM 041455Z AUTO 14005KT 10SM CLR 23/15 A3001 RMK AO1;EQDQ01+000000PRSWM2
0194727474999992000070417154+47400-092500FM-15+0421KEVM V0202201N002610108019N0112651N1+02201+01701999999ADDGD12991+0081019GD23991+0108019GD34991+0147019GF108991999999999999999999MA1101661999999MW1001REMMET071KEVM 041715Z AUTO 22005KT 7SM SCT027 BKN036 OVC049 22/17 A3002 RMK AO1;EQDQ01+000000PRSWM2
0219727474999992000070801003+47400-092500FM-15+0421KEVM V0202001N004610081019N0160931N1+01901+01701999999ADDGD14991+0081019GF108991999999999999999999GP10060006702008000002015006702008GQ100600760928829GR100600319913219MA1101521999999MW1001REMMET058KEVM 080055Z AUTO 20009KT 10SM OVC027 19/17 A2998 RMK AO1;EQDQ01+000000PRSWM2
0171727474999992000071315003+47400-092500FM-15+0421KEVM V0203001N006212200019N0160931N1+02501+01601999999ADDGP10060058102008075502015011202008GQ100600517909949GR100600819913229MA1101491999999MW1001REMMET051KEVM 131455Z AUTO 30012KT 10SM 25/16 A2997 RMK AO1;EQDQ01+000000PRSWM2
0201727474999992000072013003+47400-092500FM-15+0421KEVM V0203501N004112200019N0160931N1+01401+01101999999ADDGF100991999999999999999999GP10060023102008044902015009802008GQ100600727907819GR100600393913239MA1101561999999MW1001REMMET055KEVM 201255Z AUTO 35008KT 10SM CLR 14/11 A2999 RMK AO1;EQDQ01+000000PRSWM2
0071727474999992000072313009+47400-092500NSRDB+042199999V020999999999999999999999999999+99999+99999999999ADDGP10060023302008049602015008902008GQ100600732907869GR100600383913249
0071727474999992000072414009+47400-092500NSRDB+042199999V020999999999999999999999999999+99999+99999999999ADDGP10060031202008024102015020402008GQ100600633908949GR100600595913249
0071727474999992000072614009+47400-092500NSRDB+042199999V020999999999999999999999999999+99999+99999999999ADDGP10060037402008050802015014802008GQ100600636908979GR100600589913249
0071727474999992000072711009+47400-092500NSRDB+042199999V020999999999999999999999999999+99999+99999999999ADDGP10060000002008000002015000002008GQ100600890906199GR100600006903429
0242727474999992000072922003+47400-092500FM-15+0421KEVM V0202201N002112200019N0160931N1+02801+01601999999ADDGD12991+0150019GD22991+0180019GD32991+0240019GF104991999999999999999999GP10060048202008030302015028202008GQ100600487925069GR100600873913259MW1001REMMET066KEVM 292155Z AUTO 22004KT 10SM SCT050 SCT065 SCT080 28/16 RMK AO1;EQDQ01+000000PRSWM2
0274727474999992000080623003+47400-092500FM-15+0421KEVM V0203101N003110240019N0160931N1+01801+01701999999ADDGD12991+0084019GD22991+0135019GD34991+0240019GF108991999999999999999999GP10060019702008001202015019102008GQ100600602926189GR100600660913289MA1100341999999MW1001REMMET083KEVM 062255Z AUTO 31006KT 10SM SCT028 SCT045 OVC085 18/17 A2963 RMK AO1 LTG DSNT W;EQDQ01+000000PRSWM2
0071727474999992000080719009+47400-092500NSRDB+042199999V020999999999999999999999999999+99999+99999999999ADDGP10060031702008001802015030202008GQ100600316918659GR100601132913299
0071727474999992000080800009+47400-092500NSRDB+042199999V020999999999999999999999999999+99999+99999999999ADDGP10060023502008038402015010602008GQ100600705927299GR100600443913299
0187727474999992000081104003+47400-092500FM-15+0421KEVM V0209999C000012200019N0040231N1+01401+01401999999ADDGF100991999999999999999999GP10060000002000000002000000002000GR100600000900009MA1102001999999MW1001REMMET058KEVM 110355Z AUTO 00000KT 2 1/2SM CLR 14/14 A3012 RMK AO1;EQDQ01+000000PRSWM2
0184727474999992000081303003+47400-092500FM-15+0421KEVM V0202901N002612200019N0160931N1+02201+01801999999ADDGF100991999999999999999999GP10060000002000000002000000002000GR100600000900009MA1101251999999MW1001REMMET055KEVM 130255Z AUTO 29005KT 10SM CLR 22/18 A2990 RMK AO1;EQDQ01+000000PRSWM2
0219727474999992000081823003+47400-092500FM-15+0421KEVM V0209999C000012200019N0160931N1+02001+00701999999ADDGD12991+0150019GF104991999999999999999999GP10060037202008056102015011902008GQ100600632925939GR100600601913349MA1102341999999MW1001REMMET058KEVM 182255Z AUTO 00000KT 10SM SCT050 20/07 A3022 RMK AO1;EQDQ01+000000PRSWM2
0219727474999992000082118003+47400-092500FM-15+0421KEVM V0202201N004110030019N0160931N1+01801+01701999999ADDGD14991+0030019GF108991999999999999999999GP10060017002008000002015017002008GQ100600368916239GR100601069913369MA1101831999999MW1001REMMET058KEVM 211755Z AUTO 22008KT 10SM OVC010 18/17 A3007 RMK AO1;EQDQ01+000000PRSWM2
0133727474999992000082313154+47400-092500FM-15+0421KEVM V0209999C000012200019N0160931N1+01401+01301999999ADDGF100991999999999999999999MA1101901999999MW1001REMMET055KEVM 231315Z AUTO 00000KT 10SM CLR 14/13 A3009 RMK AO1;EQDQ01+000000PRSWM2
0201727474999992000082322003+47400-092500FM-15+0421KEVM V0202901N004612200019N0160931N1+02501+00801999999ADDGF100991999999999999999999GP10060053202008076302015009402008GQ100600550924549GR100600766913379MA1101931999999MW1001REMMET055KEVM 232155Z AUTO 29009KT 10SM CLR 25/08 A3010 RMK AO1;EQDQ01+000000PRSWM2
0054727474999992000082509009+47400-092500NSRDB+042199999V020999999999999999999999999999+99999+99999999999ADDGP10060000002000000002000000002000GR100600000900009
0165727474999992000082822154+47400-092500FM-15+0421KEVM V0202001N005110036019N0040231N1+02001+01901999999ADDGD14991+0036019GF108991999999999999999999MA1100681999999MW1001OC100821REMMET064KEVM 282215Z AUTO 20010G16KT 2 1/2SM OVC012 20/19 A2973 RMK AO1;EQDQ01+000000PRSWM2
0249727474999992000083107154+47400-092500FM-15+0421KEVM V0202301N002610096019N0112651N1+02001+01901999999ADDAA101002091GD12991+0012019GD23991+0096019GD34991+0123019GF108991999999999999999999MA1100711999999MW1171REMMET099KEVM 310715Z AUTO 23005KT 7SM TS SCT004 BKN032 OVC041 20/19 A2974 RMK AO1 LTG DSNT NE THRU S P0008;EQDQ01+000003PRSWM1Q02    003PRSWM1
0263727474999992000090401003+47400-092500FM-15+0421KEVM V0200501N002610066019N0160931N1+01101+01101999999ADDGD12991+0018019GD22991+0042019GD34991+0066019GF108991999999999999999999GP10060000502008000002015000502008GQ100600866927729GR100600057909749MA1102101999999MW1001REMMET072KEVM 040055Z AUTO 05005KT 10SM SCT006 SCT014 OVC022 11/11 A3015 RMK AO1;EQDQ01+000000PRSWM2
0183727474999992000090508003+47400-092500FM-15+0421KEVM V0209999C000012200019N0048281N1+00501+00501999999ADDGF100991999999999999999999GP10060000002000000002000000002000GR100600000900009MA1102951999999MW1001REMMET054KEVM 050755Z AUTO 00000KT 3SM CLR 05/05 A3040 RMK AO1;EQDQ01+000000PRSWM2
0213727474999992000090709003+47400-092500FM-15+0421KEVM V0202001N004110210019N0160931N1+01401+01101999999ADDGD13991+0210019GF107991999999999999999999GP10060000002000000002000000002000GR100600000900009MA1100881999999MW1001REMMET069KEVM 070855Z AUTO 20008KT 10SM BKN075 14/11 A2979 RMK AO1 LTG DSNT W;EQDQ01+000000PRSWM2
0184727474999992000091103003+47400-092500FM-15+0421KEVM V0209999C000012200019N0160931N1+00801+00801999999ADDGF100991999999999999999999GP10060000002000000002000000002000GR100600000900009MA1100881999999MW1001REMMET055KEVM 110255Z AUTO 00000KT 10SM CLR 08/08 A2979 RMK AO1;EQDQ01+000000PRSWM2
0219727474999992000092200003+47400-092500FM-15+0421KEVM V0202501N002112200019N0160931N1+01201+00401999999ADDGD12991+0210019GF104991999999999999999999GP10060004402008014402015002902008GQ100600841926419GR100600139913579MA1101491999999MW1001REMMET058KEVM 220000Z AUTO 25004KT 10SM SCT075 12/04 A2997 RMK AO2;EQDQ01+000000PRSWM2
0164727474999992000092404003+47400-092500FM-15+0421KEVM V0202301N001512200019N0160931N1+00101-00101999999ADDGF100991999999999999999999GP10060000002000000002000000002000GR100600000900009MW1001REMMET050KEVM 240357Z AUTO 23003KT 10SM CLR 01/M01 RMK AO2;EQDQ01+000000PRSWM2
0054727474999992000092608009+47400-092500NSRDB+042199999V020999999999999999999999999999+99999+99999999999ADDGP10060000002000000002000000002000GR100600000900009
0184727474999992000093006003+47400-092500FM-15+0421KEVM V0209999C000012200019N0160931N1+00801+00601999999ADDGF100991999999999999999999GP10060000002000000002000000002000GR100600000900009MA1100781999999MW1001REMMET055KEVM 300558Z AUTO 00000KT 10SM CLR 08/06 A2976 RMK AO2;EQDQ01+000000PRSWM2
0202727474999992000100209003+47400-092500FM-15+0421KEVM V0203501N003110036019N0160931N1+00901+00701999999ADDGD13991+0036019GF107991999999999999999999GP10060000002000000002000000002000GR100600000900009MA1100341999999MW1001REMMET058KEVM 020855Z AUTO 35006KT 10SM BKN012 09/07 A2963 RMK AO2;EQDQ01+000000PRSWM2
0134727474999992000100405174+47400-092500FM-15+0421KEVM V0209999C000012200019N0160931N1+00301-00401999999ADDGF100991999999999999999999MA1101831999999MW1001REMMET056KEVM 040517Z AUTO 00000KT 10SM CLR 03/M04 A3007 RMK AO2;EQDQ01+000000PRSWM2
0219727474999992000102814003+47400-092500FM-15+0421KEVM V0201301N003610063019N0160931N1+00501+00101999999ADDGD14991+0063019GF108991999999999999999999GP10060001302009000002021001302009GQ100600842911689GR100600140913869MA1103121999999MW1001REMMET058KEVM 281355Z AUTO 13007KT 10SM OVC021 05/01 A3045 RMK AO2;EQDQ01+000000PRSWM2
0133727474999992000103002354+47400-092500FM-15+0421KEVM V0200801N001512200019N0160931N1+00501+00401999999ADDGF100991999999999999999999MA1102301999999MW1001REMMET055KEVM 300235Z AUTO 08003KT 10SM CLR 05/04 A3021 RMK AO2;EQDQ01+000000PRSWM2
0071727474999992000103013009+47400-092500NSRDB+042199999V020999999999999999999999999999+99999+99999999999ADDGP10060000002009000002021000002009GQ100600896911099GR100600001901739
0054727474999992000103111009+47400-092500NSRDB+042199999V020999999999999999999999999999+99999+99999999999ADDGP10060000002000000002000000002000GR100600000900009
0237727474999992000110114354+47400-092500FM-15+0421KEVM V0201301N007210102019N0112651N1+01501+01301999999ADDAA101002391GD12991+0033019GD24991+0102019GF108991999999999999999999MA1101021999999MW1101OC101131REMMET094KEVM 011435Z AUTO 13014G22KT 7SM BR SCT011 OVC034 15/13 A2983 RMK AO2 LTG DSNT N AND SE P0009;EQDQ01+000003PRSWM1Q02    003PRSWM1
0054727474999992000110300009+47400-092500NSRDB+042199999V020999999999999999999999999999+99999+99999999999ADDGP10060000002000000002000000002000GR100600000900009
0205727474999992000110315344+47400-092500FM-15+0421KEVM V0202801N006710081019N0112651N1+00301+00101999999ADDGD12991+0027019GD22991+0045019GD34991+0081019GF108991999999999999999999MA1101521999999MW1001OC101031REMMET074KEVM 031534Z AUTO 28013G20KT 7SM SCT009 SCT015 OVC027 03/01 A2998 RMK AO2;EQDQ01+000000PRSWM2
0192727474999992000110805344+47400-092500FM-15+0421KEVM V0201501N005110027019N0048281N1+00101+00001999999ADDGD13991+0027019GD24991+0048019GF108991999999999999999999MA1100371999999MW1711REMMET068KEVM 080534Z AUTO 15010KT 3SM -SN BKN009 OVC016 01/00 A2964 RMK AO2;EQDQ01+000003PRSWM1Q02    003PRSWM1
0175727474999992000110913344+47400-092500FM-15+0421KEVM V0203301N002610132019N0160931N1-00101-00301999999ADDGD12991+0036019GD24991+0132019GF108991999999999999999999MA1100811999999MW1001REMMET067KEVM 091334Z AUTO 33005KT 10SM SCT012 OVC044 M01/M03 A2977 RMK AO2;EQDQ01+000000PRSWM2
0173727474999992000111017354+47400-092500FM-15+0421KEVM V0202701N002610030019N0160931N1+00101+00001999999ADDGD13991+0030019GD24991+0093019GF108991999999999999999999MA1101801999999MW1001REMMET065KEVM 101735Z AUTO 27005KT 10SM BKN010 OVC031 01/00 A3006 RMK AO2;EQDQ01+000000PRSWM2
0071727474999992000111019009+47400-092500NSRDB+042199999V020999999999999999999999999999+99999+99999999999ADDGP10060007102009000002021007102009GQ100600654918949GR100600582913959
0071727474999992000111118009+47400-092500NSRDB+042199999V020999999999999999999999999999+99999+99999999999ADDGP10060017702009001802021017002009GQ100600653917379GR100600582913969
0054727474999992000111207009+47400-092500NSRDB+042199999V020999999999999999999999999999+99999+99999999999ADDGP10060000002000000002000000002000GR100600000900009
0153727474999992000111410344+47400-092500FM-15+0421KEVM V0203301N004110036019N0160931N1-00301-00401999999ADDGD14991+0036019GF108991999999999999999999MA1101021999999MW1001REMMET060KEVM 141034Z AUTO 33008KT 10SM OVC012 M03/M04 A2983 RMK AO2;EQDQ01+000000PRSWM2
0153727474999992000111603354+47400-092500FM-15+0421KEVM V0203301N003610090019N0160931N1-00301-00601999999ADDGD14991+0090019GF108991999999999999999999MA1100641999999MW1001REMMET060KEVM 160335Z AUTO 33007KT 10SM OVC030 M03/M06 A2972 RMK AO2;EQDQ01+000000PRSWM2
0164727474999992000111619354+47400-092500FM-15+0421KEVM V0203401N004110063019N0160931N1-00301-00701999999ADDGD14991+0063019GF108991999999999999999999MA1100811999999MW1001OC100771REMMET063KEVM 161935Z AUTO 34008G15KT 10SM OVC021 M03/M07 A2977 RMK AO2;EQDQ01+000000PRSWM2
0195727474999992000111801344+47400-092500FM-15+0421KEVM V0202501N002610045019N0160931N1-00601-00901999999ADDGD13991+0045019GD24991+0063019GF108991999999999999999999MA1101591999999MW1711REMMET071KEVM 180134Z AUTO 25005KT 10SM -SN BKN015 OVC021 M06/M09 A3000 RMK AO2;EQDQ01+000003PRSWM1Q02    003PRSWM1
0216727474999992000111810344+47400-092500FM-15+0421KEVM V0202201N001510051019N0064371N1-00701-00801999999ADDGD12991+0030019GD23991+0051019GD34991+0108019GF108991999999999999999999MA1101191999999MW1711REMMET077KEVM 181034Z AUTO 22003KT 4SM -SN SCT010 BKN017 OVC036 M07/M08 A2988 RMK AO2;EQDQ01+000003PRSWM1Q02    003PRSWM1
0054727474999992000112204009+47400-092500NSRDB+042199999V020999999999999999999999999999+99999+99999999999ADDGP10060000002000000002000000002000GR100600000900009
0135727474999992000112209354+47400-092500FM-15+0421KEVM V0209999C000012200019N0160931N1-01401-01601999999ADDGF100991999999999999999999MA1102401999999MW1001REMMET057KEVM 220935Z AUTO 00000KT 10SM CLR M14/M16 A3024 RMK AO2;EQDQ01+000000PRSWM2
0153727474999992000112308344+47400-092500FM-15+0421KEVM V0201801N003610120019N0160931N1-00701-00901999999ADDGD14991+0120019GF108991999999999999999999MA1101931999999MW1001REMMET060KEVM 230834Z AUTO 18007KT 10SM OVC040 M07/M09 A3010 RMK AO2;EQDQ01+000000PRSWM2
0071727474999992000112622009+47400-092500NSRDB+042199999V020999999999999999999999999999+99999+99999999999ADDGP10060002002009000002021002002009GQ100600834922869GR100600162914059
0204727474999992000113010003+47400-092500FM-15+0421KEVM V0203401N002110069019N0160931N1-00301-00701999999ADDGD14991+0069019GF108991999999999999999999GP10060000002000000002000000002000GR100600000900009MA1102441999999MW1001REMMET060KEVM 300956Z AUTO 34004KT 10SM OVC023 M03/M07 A3025 RMK AO2;EQDQ01+000000PRSWM2
0054727474999992000120305009+47400-092500NSRDB+042199999V020999999999999999999999999999+99999+99999999999ADDGP10060000002000000002000000002000GR100600000900009
0071727474999992000120821009+47400-092500NSRDB+042199999V020999999999999999999999999999+99999+99999999999ADDGP10060017502009051802021006302009GQ100600777921459GR100600301914109
0054727474999992000120902009+47400-092500NSRDB+042199999V020999999999999999999999999999+99999+99999999999ADDGP10060000002000000002000000002000GR100600000900009
0170727474999992000120923354+47400-092500FM-15+0421KEVM V0209999C000010039019N0160931N1-00801-00901999999ADDAA101002391GD14991+0039019GF108991999999999999999999MA1101151999999MW1001REMMET066KEVM 092335Z AUTO 00000KT 10SM OVC013 M08/M09 A2987 RMK AO2 P0009;EQDQ01+000000PRSWM2
0216727474999992000121401344+47400-092500FM-15+0421KEVM V0209999C000010075019N0048281N1-01401-01701999999ADDGD12991+0060019GD23991+0075019GD34991+0102019GF108991999999999999999999MA1102171999999MW1711REMMET077KEVM 140134Z AUTO 00000KT 3SM -SN SCT020 BKN025 OVC034 M14/M17 A3017 RMK AO2;EQDQ01+000003PRSWM1Q02    003PRSWM1
0172727474999992000121407344+47400-092500FM-15+0421KEVM V0209999C000010129019N0112651N1-01401-01701999999ADDGD14991+0129019GF108991999999999999999999MA1102101999999MW1711REMMET063KEVM 140734Z AUTO 00000KT 7SM -SN OVC043 M14/M17 A3015 RMK AO2;EQDQ01+000003PRSWM1Q02    003PRSWM1
0203727474999992000121414003+47400-092500FM-15+0421KEVM V0209999C000012200019N0160931N1-02201-02401999999ADDGF100991999999999999999999GP10060000002009000002021000002009GQ100600895912579GR100600001901779MA1102241999999MW1001REMMET057KEVM 141355Z AUTO 00000KT 10SM CLR M22/M24 A3019 RMK AO2;EQDQ01+000000PRSWM2
0071727474999992000121621009+47400-092500NSRDB+042199999V020999999999999999999999999999+99999+99999999999ADDGP10060007202009000002021007202009GQ100600778921359GR100600298914139
0284727474999992000122020003+47400-092500FM-15+0421KEVM V0201601N003610093019N0080461N1-01101-01401999999ADDGD12991+0030019GD22991+0051019GD34991+0093019GF108991999999999999999999GP10060011302009001202021010902009GQ100600733919969GR100600407914149MA1100541999999MW1711REMMET077KEVM 201955Z AUTO 16007KT 5SM -SN SCT010 SCT017 OVC031 M11/M14 A2969 RMK AO2;EQDQ01+000003PRSWM1Q02    003PRSWM1
0071727474999992000122321009+47400-092500NSRDB+042199999V020999999999999999999999999999+99999+99999999999ADDGP10060011902009017702021008102009GQ100600776921279GR100600304914149
0054727474999992000122404009+47400-092500NSRDB+042199999V020999999999999999999999999999+99999+99999999999ADDGP10060000002000000002000000002000GR100600000900009
0135727474999992000122509354+47400-092500FM-15+0421KEVM V0209999C000012200019N0160931N1-03101-03401999999ADDGF100991999999999999999999MA1103591999999MW1001REMMET057KEVM 250935Z AUTO 00000KT 10SM CLR M31/M34 A3059 RMK AO2;EQDQ01+000000PRSWM2
0197727474999992000122607354+47400-092500FM-15+0421KEVM V0203101N003110240019N0160931N1-01401-01801999999ADDGD12991+0051019GD22991+0075019GD34991+0240019GF108991999999999999999999MA1102811999999MW1001REMMET074KEVM 260735Z AUTO 31006KT 10SM SCT017 SCT025 OVC080 M14/M18 A3036 RMK AO2;EQDQ01+000000PRSWM2
0221727474999992000122814003+47400-092500FM-15+0421KEVM V0209999C000010054019N0160931N1-01401-01601999999ADDGD13991+0054019GF107991999999999999999999GP10060000002000000002000000002000GQ100600899912519GR100600000900129MA1102271999999MW1001REMMET060KEVM 281356Z AUTO 00000KT 10SM BKN018 M14/M16 A3020 RMK AO2;EQDQ01+000000PRSWM2
0071727474999992000122817009+47400-092500NSRDB+042199999V020999999999999999999999999999+99999+99999999999ADDGP10060008702009000002021008702009GQ100600743915589GR100600383914159
0153727474999992000123103364+47400-092500FM-15+0421KEVM V0203601N002110240019N0160931N1-01301-01601999999ADDGD14991+0240019GF108991999999999999999999MA1102511999999MW1001REMMET060KEVM 310336Z AUTO 36004KT 10SM OVC080 M13/M16 A3027 RMK AO2;EQDQ01+000000PRSWM2
0071727475999992000010520009+45883-093267NSRDB+030999999V020999999999999999999999999999+99999+99999999999ADDGP10060008602009000002021008602009GQ100600705919759GR100600473914159
0151727475999992000010615154+45880-093270FM-15+0309KJMR V0202801N005712200019N0160931N1-01001-01601999999ADDGF100991999999999999999999MA1101491999999MW1001OC100821REMMET065KJMR 061515Z AUTO 28011G16KT 10SM CLR M10/M16 A2997 RMK AO1 TSNO;EQDQ01+000000PRSWM2
0243727475999992000010719003+45880-093270FM-15+0309KJMR V0201501N004110132019N0160931N1-00901-01501999999ADDGD13991+0132019GD23991+0210019GF107991999999999999999999GP10060021002009008402021017802009GQ100600684918279GR100600521914159MA1102071999999MW1001REMMET067KJMR 071855Z AUTO 15008KT 10SM BKN044 BKN075 M09/M15 A3014 RMK AO1;EQDQ01+000000PRSWM2
0220727475999992000011023003+45880-093270FM-15+0309KJMR V0202301N002110018019N0048281N1-00101-00201999999ADDGD14991+0018019GF108991999999999999999999GP10060001602009012002021001102009GQ100600870923409GR100600057910969MA1099121999999MW1001REMMET059KJMR 102255Z AUTO 23004KT 3SM OVC006 M01/M02 A2927 RMK AO1;EQDQ01+000000PRSWM2
0220727475999992000011720003+45880-093270FM-15+0309KJMR V0201601N003610039019N0064371N1-00701-00901999999ADDGD14991+0039019GF108991999999999999999999GP10060005802009000002021005802009GQ100600684919689GR100600520914149MA1102241999999MW1001REMMET059KJMR 171955Z AUTO 16007KT 4SM OVC013 M07/M09 A3019 RMK AO1;EQDQ01+000000PRSWM2
0186727475999992000012011003+45880-093270FM-15+0309KJMR V0202501N001512200019N0160931N1-02501-02801999999ADDGF100991999999999999999999GP10060000002000000002000000002000GR100600000900009MA1102071999999MW1001REMMET057KJMR 201055Z AUTO 25003KT 10SM CLR M25/M28 A3014 RMK AO1;EQDQ01+000000PRSWM2
0186727475999992000012109003+45880-093270FM-15+0309KJMR V0209999C000012200019N0160931N1-02501-02801999999ADDGF100991999999999999999999GP10060000002000000002000000002000GR100600000900009MA1102241999999MW1001REMMET057KJMR 210855Z AUTO 00000KT 10SM CLR M25/M28 A3019 RMK AO1;EQDQ01+000000PRSWM2
0243727475999992000012420003+45880-093270FM-15+0309KJMR V0209999C000012200019N0160931N1-00701-01401999999ADDGD12991+0210019GD22991+0270019GF104991999999999999999999GP10060028402009026202021018002009GQ100600668919669GR100600556914129MA1101221999999MW1001REMMET067KJMR 241955Z AUTO 00000KT 10SM SCT075 SCT090 M07/M14 A2989 RMK AO1;EQDQ01+000000PRSWM2
0186727475999992000013008003+45880-093270FM-15+0309KJMR V0209999C000012200019N0160931N1-01801-02201999999ADDGF100991999999999999999999GP10060000002000000002000000002000GR100600000900009MA1102811999999MW1001REMMET057KJMR 300755Z AUTO 00000KT 10SM CLR M18/M22 A3036 RMK AO1;EQDQ01+000000PRSWM2
0203727475999992000013016003+45880-093270FM-15+0309KJMR V0203601N001512200019N0160931N1-00601-01301999999ADDGF100991999999999999999999GP10060022502009056202021008002009GQ100600751913689GR100600363914109MA1102511999999MW1001REMMET057KJMR 301555Z AUTO 36003KT 10SM CLR M06/M13 A3027 RMK AO1;EQDQ01+000000PRSWM2
0202727475999992000021115003+45880-093270FM-15+0309KJMR V0203301N002612200019N0112651N1-01801-02301999999ADDGF100991999999999999999999GP10060013502009021002021009902009GQ100600802912229GR100600239914049MA1102641999999MW1001REMMET056KJMR 111455Z AUTO 33005KT 7SM CLR M18/M23 A3031 RMK AO1;EQDQ01+000000PRSWM2
0203727475999992000021314003+45880-093270FM-15+0309KJMR V0201301N001512200019N0160931N1-01501-01801999999ADDGF100991999999999999999999GP10060000602009013702021000302009GQ100600871911259GR100600046909009MA1101761999999MW1001REMMET057KJMR 131355Z AUTO 13003KT 10SM CLR M15/M18 A3005 RMK AO1;EQDQ01+000000PRSWM2
0226727475999992000021410003+45880-093270FM-15+0309KJMR V0209999C000010270019N0160931N1-01501-01701999999ADDGD12991+0210019GD23991+0270019GF107991999999999999999999GP10060000002000000002000000002000GR100600000900009MA1101461999999MW1001REMMET067KJMR 140955Z AUTO 00000KT 10SM SCT070 BKN090 M15/M17 A2996 RMK AO1;EQDQ01+000000PRSWM2
0203727475999992000021510003+45880-093270FM-15+0309KJMR V0201501N001512200019N0112651N1-01101-01301999999ADDGD12991+0210019GF104991999999999999999999GP10060000002000000002000000002000GR100600000900009MA1101291999999MW1001REMMET059KJMR 150955Z AUTO 15003KT 7SM SCT070 M11/M13 A2991 RMK AO1;EQDQ01+000000PRSWM2
0204727475999992000021803003+45880-093270FM-15+0309KJMR V0209999C000010087019N0160931N1-00601-00901999999ADDGD14991+0087019GF108991999999999999999999GP10060000002000000002000000002000GR100600000900009MA1102341999999MW1001REMMET060KJMR 180255Z AUTO 00000KT 10SM OVC029 M06/M09 A3022 RMK AO1;EQDQ01+000000PRSWM2
0205727475999992000022310003+45880-093270FM-15+0309KJMR V0209999C000010003019N0004021N1-00401-00501999999ADDGD14991+0003019GF108991999999999999999999GP10060000002000000002000000002000GR100600000900009MA1101391999999MW1001REMMET061KJMR 230955Z AUTO 00000KT 1/4SM OVC001 M04/M05 A2994 RMK AO1;EQDQ01+000000PRSWM2
0251727475999992000022623003+45880-093270FM-15+0309KJMR V0202901N006210018019N0064371N1+00401+00201999999ADDGD13991+0018019GD24991+0039019GF108991999999999999999999GP10060015202009022802021010102009GQ100600770924259GR100600314913959MA1100101999999MW1001OC101031REMMET067KJMR 262255Z AUTO 29012G20KT 4SM BKN006 OVC013 04/02 A2956 RMK AO1;EQDQ01+000000PRSWM2
0203727475999992000030919003+45880-093270FM-15+0309KJMR V0200501N002612200019N0160931N1-00301-01401999999ADDGF100991999999999999999999GP10060037802009011402021030502009GQ100600502918219GR100600888913869MA1102031999999MW1001REMMET057KJMR 091855Z AUTO 05005KT 10SM CLR M03/M14 A3013 RMK AO1;EQDQ01+000000PRSWM2
0247727475999992000031402003+45880-093270FM-15+0309KJMR V0202401N004110150019N0160931N1+00201-00301999999ADDGD12991+0120019GD23991+0150019GD34991+0240019GF108991999999999999999999GP10060000002000000002000000002000GR100600000900009MA1101631999999MW1001REMMET073KJMR 140155Z AUTO 24008KT 10SM SCT040 BKN050 OVC085 02/M03 A3001 RMK AO1;EQDQ01+000000PRSWM2
0241727475999992000032122003+45880-093270FM-15+0309KJMR V0202201N002110126019N0160931N1+00901+00201999999ADDGD12991+0081019GD24991+0126019GF108991999999999999999999GP10060021502008002902015020102008GQ100600615923709GR100600657913779MA1102401999999MW1001REMMET065KJMR 212155Z AUTO 22004KT 10SM SCT027 OVC042 09/02 A3024 RMK AO1;EQDQ01+000000PRSWM2
0202727475999992000032820003+45880-093270FM-15+0309KJMR V0200601N001512200019N0160931N1+00901-00601999999ADDGF100991999999999999999999GP10060074602008091402015010302008GQ100600455920569GR100600961913719MA1100811999999MW1001REMMET056KJMR 281955Z AUTO 06003KT 10SM CLR 09/M06 A2977 RMK AO1;EQDQ01+000000PRSWM2
0185727475999992000033002003+45880-093270FM-15+0309KJMR V0209999C000012200019N0160931N1+00301-00301999999ADDGF100991999999999999999999GP10060000002000000002000000002000GR100600000900009MA1101521999999MW1001REMMET056KJMR 300155Z AUTO 00000KT 10SM CLR 03/M03 A2998 RMK AO1;EQDQ01+000000PRSWM2
0145727475999992000040621154+45880-093270FM-15+0309KJMR V0203401N006212200019N0160931N1+00701-01301999999ADDGF100991999999999999999999MA1101021999999MW1001OC100871REMMET059KJMR 062115Z AUTO 34012G17KT 10SM CLR 07/M13 A2983 RMK AO1;EQDQ01+000000PRSWM2
0186727475999992000041209003+45880-093270FM-15+0309KJMR V0209999C000012200019N0160931N1-00601-00701999999ADDGF100991999999999999999999GP10060000002000000002000000002000GR100600000900009MA1103011999999MW1001REMMET057KJMR 120855Z AUTO 00000KT 10SM CLR M06/M07 A3042 RMK AO1;EQDQ01+000000PRSWM2
0159727475999992000041322003+45880-093270FM-15+0309KJMR V0202501N002112200019N0160931N1+99999+99999999999ADDGP10060056402008078002015012202008GQ100600555924489GR100600768913599MW1001REMMET054KJMR 132155Z AUTO 25004KT 10SM CR 18/01 A2990 RMK AO1;EQDQ01+000000PRSWM2
0202727475999992000042502003+45880-093270FM-15+0309KJMR V0200601N001512200019N0160931N1+01401-00101999999ADDGF100991999999999999999999GP10060000002008000002015000002008GQ100600892928899GR100600003902369MA1101831999999MW1001REMMET056KJMR 250155Z AUTO 06003KT 10SM CLR 14/M01 A3007 RMK AO1;EQDQ01+000000PRSWM2
0212727475999992000043015003+45880-093270FM-15+0309KJMR V0202201N004112200019N0160931N1+01601+00601999999ADDGF100991999999999999999999GP10060055502008074602015013002008GQ100600552910549GR100600767913469MA1102001999999MW1001OC100721REMMET058KJMR 301455Z AUTO 22008G14KT 10SM CLR 16/06 A3012 RMK AO1;EQDQ01+000000PRSWM2
0201727475999992000050113003+45880-093270FM-15+0309KJMR V0203001N003112200019N0160931N1+00901+00701999999ADDGF100991999999999999999999GP10060020902008047602015009002008GQ100600756908279GR100600334913459MA1101291999999MW1001REMMET055KJMR 011255Z AUTO 30006KT 10SM CLR 09/07 A2991 RMK AO1;EQDQ01+000000PRSWM2
0201727475999992000050420003+45880-093270FM-15+0309KJMR V0203301N003112200019N0160931N1+02901+01001999999ADDGF100991999999999999999999GP10060084702008081902015016802008GQ100600342921579GR100601110913439MA1100951999999MW1001REMMET055KJMR 041955Z AUTO 33006KT 10SM CLR 29/10 A2981 RMK AO1;EQDQ01+000000PRSWM2
0230727475999992000050621003+45880-093270FM-15+0309KJMR V0201901N005710210019N0160931N1+02901+01101999999ADDGD13991+0210019GF107991999999999999999999GP10060067602008057802015024102008GQ100600412923659GR100601008913429MA1100581999999MW1001OC100931REMMET061KJMR 062055Z AUTO 19011G18KT 10SM BKN070 29/11 A2970 RMK AO1;EQDQ01+000000PRSWM2
0201727475999992000051206003+45880-093270FM-15+0309KJMR V0209999C000010015019N0080461N1+01101+00901999999ADDGD14991+0015019GF108991999999999999999999GP10060000002000000002000000002000GR100600000900009MA1099971999999MW1001REMMET057KJMR 120555Z AUTO 00000KT 5SM OVC005 11/09 A2952 RMK AO1;EQDQ01+000000PRSWM2
0230727475999992000051620003+45880-093270FM-15+0309KJMR V0201301N003612200019N0160931N1+01901+00801999999ADDGD12991+0141019GF104991999999999999999999GP10060084802008070602015024502008GQ100600315921849GR100601139913369MA1101291999999MW1001OC100771REMMET061KJMR 161955Z AUTO 13007G15KT 10SM SCT047 19/08 A2991 RMK AO1;EQDQ01+000000PRSWM2
0184727475999992000051808003+45880-093270FM-15+0309KJMR V0203101N002612200019N0160931N1+00801+00201999999ADDGF100991999999999999999999GP10060000002000000002000000002000GR100600000900009MA1101191999999MW1001REMMET055KJMR 180755Z AUTO 31005KT 10SM CLR 08/02 A2988 RMK AO1;EQDQ01+000000PRSWM2
0219727475999992000052900003+45880-093270FM-15+0309KJMR V0201601N002112200019N0160931N1+01801+01001999999ADDGD12991+0150019GF104991999999999999999999GP10060021902008012702015017102008GQ100600677927869GR100600503913309MA1101421999999MW1001REMMET058KJMR 282355Z AUTO 16004KT 10SM SCT050 18/10 A2995 RMK AO1;EQDQ01+000000PRSWM2
0219727475999992000060119003+45880-093270FM-15+0309KJMR V0209999C000010030019N0160931N1+01401+01101999999ADDGD14991+0030019GF108991999999999999999999GP10060031702008003002015029002008GQ100600243919079GR100601210913289MA1101251999999MW1001REMMET058KJMR 011855Z AUTO 00000KT 10SM OVC010 14/11 A2990 RMK AO1;EQDQ01+000000PRSWM2
0224727475999992000060203003+45880-093270FM-15+0309KJMR V0203401N001510087019N0160931N1+01301+01001999999ADDGD12991+0063019GD23991+0087019GF107991999999999999999999GP10060000002000000002000000002000GR100600000900009MA1101591999999MW1001REMMET065KJMR 020255Z AUTO 34003KT 10SM SCT021 BKN029 13/10 A3000 RMK AO1;EQDQ01+000000PRSWM2
0133727475999992000060915154+45880-093270FM-15+0309KJMR V0201201N004112200019N0160931N1+02201+01501999999ADDGF100991999999999999999999MA1100681999999MW1001REMMET055KJMR 091515Z AUTO 12008KT 10SM CLR 22/15 A2973 RMK AO1;EQDQ01+000000PRSWM2
0071727475999992000061014009+45883-093267NSRDB+030999999V020999999999999999999999999999+99999+99999999999ADDGP10060016802008000002015016802008GQ100600604908659GR100600654913259
0071727475999992000061421009+45883-093267NSRDB+030999999V020999999999999999999999999999+99999+99999999999ADDGP10060056302008023902015036902008GQ100600356924219GR100601075913249
0071727475999992000061514009+45883-093267NSRDB+030999999V020999999999999999999999999999+99999+99999999999ADDGP10060041602008046202015018702008GQ100600604908619GR100600653913249
0054727475999992000061607009+45883-093267NSRDB+030999999V020999999999999999999999999999+99999+99999999999ADDGP10060000002000000002000000002000GR100600000900009
0262727475999992000061811003+45880-093270FM-15+0309KJMR V0202101N002610330019N0160931N1+01301+01101999999ADDGD12991+0210019GD24991+0330019GF108991999999999999999999GP10060000102008002802015000102008GQ100600876905779GR100600032907839MA1101631999999MW1171REMMET070KJMR 181055Z AUTO 21005KT 10SM VCTS SCT070 OVC110 13/11 A3001 RMK AO1;EQDQ01+000003PRSWM1Q02    003PRSWM1
0184727475999992000062022154+45880-093270FM-15+0309KJMR V0202601N007212200019N0160931N1+02201+01301999999ADDGD12991+0147019GD22991+0180019GF104991999999999999999999MA1100101999999MW1001OC101181REMMET068KJMR 202215Z AUTO 26014G23KT 10SM SCT049 SCT060 22/13 A2956 RMK AO1;EQDQ01+000000PRSWM2
0184727475999992000062310003+45880-093270FM-15+0309KJMR V0209999C000012200019N0160931N1+01601+01401999999ADDGF100991999999999999999999GP10060000002000000002000000002000GR100600000900009MA1101291999999MW1001REMMET055KJMR 230955Z AUTO 00000KT 10SM CLR 16/14 A2991 RMK AO1;EQDQ01+000000PRSWM2
0071727475999992000062800009+45883-093267NSRDB+030999999V020999999999999999999999999999+99999+99999999999ADDGP10060031202008040102015014702008GQ100600656927909GR100600545913229
0212727475999992000062920003+45880-093270FM-15+0309KJMR V0202301N002112200019N0160931N1+02401+00901999999ADDGF100991999999999999999999GP10060089802008086202015013102008GQ100600273921899GR100601174913219MA1101521999999MW1001OC100721REMMET058KJMR 291955Z AUTO 23004G14KT 10SM CLR 24/09 A2998 RMK AO1;EQDQ01+000000PRSWM2
0071727475999992000070112009+45883-093267NSRDB+030999999V020999999999999999999999999999+99999+99999999999ADDGP10060004902008000002015004902008GQ100600812906579GR100600202913219
0219727475999992000070316003+45880-093270FM-15+0309KJMR V0200901N002610024019N0160931N1+01801+01501999999ADDGD14991+0024019GF108991999999999999999999GP10060025202008000602015024702008GQ100600408911009GR100600999913219MA1101831999999MW1001REMMET058KJMR 031555Z AUTO 09005KT 10SM OVC008 18/15 A3007 RMK AO1;EQDQ01+000000PRSWM2
0219727475999992000070420003+45880-093270FM-15+0309KJMR V0201301N003110138019N0160931N1+02701+01701999999ADDGD14991+0138019GF108991999999999999999999GP10060074402008049702015030302008GQ100600275921819GR100601171913219MA1101521999999MW1001REMMET058KJMR 041955Z AUTO 13006KT 10SM OVC046 27/17 A2998 RMK AO1;EQDQ01+000000PRSWM2
0236727475999992000070813003+45880-093270FM-15+0309KJMR V0209999C000010039019N0064371N1+02501+02301999999ADDGD14991+0039019GF108991999999999999999999GP10060024502008050602015008902008GQ100600721907609GR100600406913219MA1101351999999MW1001REMMET075KJMR 081255Z AUTO 00000KT 4SM OVC013 25/23 A2993 RMK AO1 LTG DSNT N THRU E;EQDQ01+000000PRSWM2
0184727475999992000071104003+45880-093270FM-15+0309KJMR V0200501N001512200019N0160931N1+01701+01401999999ADDGF100991999999999999999999GP10060000002000000002000000002000GR100600000900009MA1101761999999MW1001REMMET055KJMR 110355Z AUTO 05003KT 10SM CLR 17/14 A3005 RMK AO1;EQDQ01+000000PRSWM2
0201727475999992000071514003+45880-093270FM-15+0309KJMR V0200401N002112200019N0160931N1+02201+01601999999ADDGF100991999999999999999999GP10060040002008066202015009602008GQ100600626908689GR100600608913229MA1101631999999MW1001REMMET055KJMR 151355Z AUTO 04004KT 10SM CLR 22/16 A3001 RMK AO1;EQDQ01+000000PRSWM2
0184727475999992000071805003+45880-093270FM-15+0309KJMR V0200101N002112200019N0160931N1+01201+00901999999ADDGF100991999999999999999999GP10060000002000000002000000002000GR100600000900009MA1102171999999MW1001REMMET055KJMR 180455Z AUTO 01004KT 10SM CLR 12/09 A3017 RMK AO1;EQDQ01+000000PRSWM2
0151727475999992000071904154+45880-093270FM-15+0309KJMR V0202901N001510240019N0160931N1+01301+01101999999ADDGD14991+0240019GF108991999999999999999999MA1102171999999MW1001REMMET058KJMR 190415Z AUTO 29003KT 10SM OVC080 13/11 A3017 RMK AO1;EQDQ01+000000PRSWM2
0202727475999992000072105003+45880-093270FM-15+0309KJMR V0209999C000010240019N0160931N1+01401+01001999999ADDGD14991+0240019GF108991999999999999999999GP10060000002000000002000000002000GR100600000900009MA1101731999999MW1001REMMET058KJMR 210455Z AUTO 00000KT 10SM OVC080 14/10 A3004 RMK AO1;EQDQ01+000000PRSWM2
0159727475999992000072122354+45880-093270FM-15+0309KJMR V0203501N003612200019N0160931N1+02401+00901999999ADDGD12991+0180019GF104991999999999999999999MA1101761999999MW1001REMMET066KJMR 212335Z AUTO 35007KT 330V030 10SM SCT065 24/09 A3005 RMK AO1;EQDQ01+000000PRSWM2
0218727475999992000072814003+45880-093270FM-15+0309KJMR V0209999C000012200019N0112651N1+02101+01701999999ADDGD12991+0024019GF104991999999999999999999GP10060029602008024902015018802008GQ100600644908889GR100600571913259MA1101901999999MW1001REMMET057KJMR 281355Z AUTO 00000KT 7SM SCT008 21/17 A3009 RMK AO1;EQDQ01+000000PRSWM2
0133727475999992000073003354+45880-093270FM-15+0309KJMR V0209999C000012200019N0160931N1+01801+01501999999ADDGF100991999999999999999999MA1101961999999MW1001REMMET055KJMR 300435Z AUTO 00000KT 10SM CLR 18/15 A3011 RMK AO1;EQDQ01+000000PRSWM2
0219727475999992000080112003+45880-093270FM-15+0309KJMR V0201101N002612200019N0160931N1+01901+01801999999ADDGD12991+0300019GF104991999999999999999999GP10060000002008000002015000002008GQ100600852906889GR100600110913269MA1101251999999MW1001REMMET058KJMR 011155Z AUTO 11005KT 10SM SCT100 19/18 A2990 RMK AO1;EQDQ01+000000PRSWM2
0241727475999992000080515003+45880-093270FM-15+0309KJMR V0201801N001510210019N0160931N1+01901+01701999999ADDGD13991+0210019GD23991+0270019GF107991999999999999999999GP10060014402008000002015014402008GQ100600554910219GR100600753913289MA1100851999999MW1001REMMET065KJMR 051455Z AUTO 18003KT 10SM BKN070 BKN090 19/17 A2978 RMK AO1;EQDQ01+000000PRSWM2
0071727475999992000080723009+45883-093267NSRDB+030999999V020999999999999999999999999999+99999+99999999999ADDGP10060044802008069902015009502008GQ100600597926189GR100600670913299
0144727475999992000081115354+45880-093270FM-15+0309KJMR V0201701N004612200019N0160931N1+02801+01901999999ADDGF100991999999999999999999MA1102101999999MW1001OC100721REMMET058KJMR 111635Z AUTO 17009G14KT 10SM CLR 28/19 A3015 RMK AO1;EQDQ01+000000PRSWM2
0133727475999992000081402154+45880-093270FM-15+0309KJMR V0201101N001512200019N0160931N1+01901+01601999999ADDGF100991999999999999999999MA1101561999999MW1001REMMET055KJMR 140215Z AUTO 11003KT 10SM CLR 19/16 A2999 RMK AO1;EQDQ01+000000PRSWM2
0133727475999992000081603154+45880-093270FM-15+0309KJMR V0200201N001512200019N0160931N1+01301+00901999999ADDGF100991999999999999999999MA1102401999999MW1001REMMET055KJMR 160315Z AUTO 02003KT 10SM CLR 13/09 A3024 RMK AO1;EQDQ01+000000PRSWM2
0071727475999992000081614009+45883-093267NSRDB+030999999V020999999999999999999999999999+99999+99999999999ADDGP10060031102008060902015008002008GQ100600677909359GR100600505913339
0201727475999992000081723003+45880-093270FM-15+0309KJMR V0203401N006712200019N0160931N1+02201+01301999999ADDGF100991999999999999999999GP10060040502008055002015014802008GQ100600621925979GR100600623913339MA1101761999999MW1001REMMET055KJMR 172255Z AUTO 34013KT 10SM CLR 22/13 A3005 RMK AO1;EQDQ01+000000PRSWM2
0151727475999992000082106154+45880-093270FM-15+0309KJMR V0201601N003110132019N0160931N1+01801+01401999999ADDGD14991+0132019GF108991999999999999999999MA1102031999999MW1001REMMET058KJMR 210615Z AUTO 16006KT 10SM OVC044 18/14 A3013 RMK AO1;EQDQ01+000000PRSWM2
0218727475999992000082517003+45880-093270FM-15+0309KJMR V0202001N001512200019N0112651N1+02301+02001999999ADDGD12991+0210019GF104991999999999999999999GP10060013002008000002015013002008GQ100600420913959GR100600994913389MA1101661999999MW1001REMMET057KJMR 251655Z AUTO 20003KT 7SM SCT070 23/20 A3002 RMK AO1;EQDQ01+000000PRSWM2
0203727475999992000082910003+45880-093270FM-15+0309KJMR V0209999C000010003019N0008051N1+00901+00801999999ADDGD13991+0003019GF107991999999999999999999GP10060000002000000002000000002000GR100600000900009MA1101761999999MW1001REMMET059KJMR 290955Z AUTO 00000KT 1/2SM BKN001 09/08 A3005 RMK AO1;EQDQ01+000000PRSWM2
0230727475999992000083021003+45880-093270FM-15+0309KJMR V0201501N006212200019N0160931N1+02701+01801999999ADDGD12991+0099019GF104991999999999999999999GP10060063802008067202015018202008GQ100600474922889GR100600907913419MA1101051999999MW1001OC100931REMMET061KJMR 302055Z AUTO 15012G18KT 10SM SCT033 27/18 A2984 RMK AO1;EQDQ01+000000PRSWM2
0212727475999992000090720003+45880-093270FM-15+0309KJMR V0203001N006712200019N0160931N1+02301+00701999999ADDGF100991999999999999999999GP10060072102008084802015010702008GQ100600438920919GR100600972913469MA1101421999999MW1001OC101031REMMET058KJMR 071955Z AUTO 30013G20KT 10SM CLR 23/07 A2995 RMK AO1;EQDQ01+000000PRSWM2
0071727475999992000091000009+45883-093267NSRDB+030999999V020999999999999999999999999999+99999+99999999999ADDGP10060008202008007502015006802008GQ100600794926629GR100600247913489
0184727475999992000091009003+45880-093270FM-15+0309KJMR V0203001N003112200019N0160931N1+01401+00601999999ADDGF100991999999999999999999GP10060000002000000002000000002000GR100600000900009MA1101021999999MW1001REMMET055KJMR 100855Z AUTO 30006KT 10SM CLR 14/06 A2983 RMK AO1;EQDQ01+000000PRSWM2
0184727475999992000091809003+45880-093270FM-15+0309KJMR V0209999C000012200019N0160931N1+01401+00801999999ADDGF100991999999999999999999GP10060000002000000002000000002000GR100600000900009MA1100541999999MW1001REMMET055KJMR 180859Z AUTO 00000KT 10SM CLR 14/08 A2969 RMK AO2;EQDQ01+000000PRSWM2
0201727475999992000092623023+45880-093270FM-15+0309KJMR V0203401N001512200019N0160931N1+02201+00401999999ADDGF100991999999999999999999GP10060020302008055002015006102008GQ100600751925159GR100600350913619MA1101251999999MW1001REMMET055KJMR 262302Z AUTO 34003KT 10SM CLR 22/04 A2990 RMK AO2;EQDQ01+000000PRSWM2
0133727475999992000092715204+45880-093270FM-15+0309KJMR V0209999C000012200019N0160931N1+00801+00201999999ADDGF100991999999999999999999MA1102441999999MW1001REMMET055KJMR 271520Z AUTO 00000KT 10SM CLR 08/02 A3025 RMK AO2;EQDQ01+000000PRSWM2
0054727475999992000100706009+45883-093267NSRDB+030999999V020999999999999999999999999999+99999+99999999999ADDGP10060000002000000002000000002000GR100600000900009
0201727475999992000101618003+45880-093270FM-15+0309KJMR V0209999C000012200019N0160931N1+01101+00401999999ADDGF100991999999999999999999GP10060053602009066802021015702009GQ100600555917159GR100600779913779MA1102201999999MW1001REMMET055KJMR 161757Z AUTO 00000KT 10SM CLR 11/04 A3018 RMK AO2;EQDQ01+000000PRSWM2
0202727475999992000101818003+45880-093270FM-15+0309KJMR V0200701N001512200019N0160931N1+01601-00101999999ADDGF100991999999999999999999GP10060056702009084902021009402009GQ100600563917179GR100600765913789MA1102071999999MW1001REMMET056KJMR 181758Z AUTO 07003KT 10SM CLR 16/M01 A3014 RMK AO2;EQDQ01+000000PRSWM2
0186727475999992000102107003+45880-093270FM-15+0309KJMR V0209999C000012200019N0160931N1-00201-00401999999ADDGF100991999999999999999999GP10060000002000000002000000002000GR100600000900009MA1101961999999MW1001REMMET057KJMR 210658Z AUTO 00000KT 10SM CLR M02/M04 A3011 RMK AO2;EQDQ01+000000PRSWM2
0202727475999992000102122003+45880-093270FM-15+0309KJMR V0201001N004112200019N0160931N1+01501-00301999999ADDGF100991999999999999999999GP10060023202009063202021005902009GQ100600742923469GR100600376913819MA1101961999999MW1001REMMET056KJMR 212158Z AUTO 10008KT 10SM CLR 15/M03 A3011 RMK AO2;EQDQ01+000000PRSWM2
0240727475999992000102313003+45880-093270FM-15+0309KJMR V0209999C000010003019N0004021N1+01201+01201999999ADDGD14991+0003019GF108991999999999999999999GP10060000002009000002021000002009GQ100600888910779GR100600008904039MA1102611999999MW1441REMMET063KJMR 231258Z AUTO 00000KT M1/4SM FG OVC001 12/12 A3030 RMK AO2;EQDQ01+000003PRSWM1Q02    003PRSWM1
0259727475999992000102316003+45880-093270FM-15+0309KJMR V0209999C000010042019N0048281N1+01401+01301999999ADDGD12991+0009019GD24991+0042019GF108991999999999999999999GP10060023202009008602021019702009GQ100600664914029GR100600552913829MA1102711999999MW1101REMMET067KJMR 231558Z AUTO 00000KT 3SM BR SCT003 OVC014 14/13 A3033 RMK AO2;EQDQ01+000003PRSWM1Q02    003PRSWM1
0237727475999992000102415003+45880-093270FM-15+0309KJMR V0209999C000010027019N0032181N1+01101+01101999999ADDGD14991+0027019GF108991999999999999999999GP10060004402009000002021004402009GQ100600742912709GR100600376913839MA1102781999999MW1101REMMET060KJMR 241458Z AUTO 00000KT 2SM BR OVC009 11/11 A3035 RMK AO2;EQDQ01+000003PRSWM1Q02    003PRSWM1
0152727475999992000102802384+45880-093270FM-15+0309KJMR V0200601N001510069019N0160931N1+00301-00101999999ADDGD14991+0069019GF108991999999999999999999MA1102881999999MW1001REMMET059KJMR 280238Z AUTO 06003KT 10SM OVC023 03/M01 A3038 RMK AO2;EQDQ01+000000PRSWM2
0184727475999992000102916384+45880-093270FM-15+0309KJMR V0201401N004612200019N0160931N1+00901+00401999999ADDGD12991+0057019GD22991+0072019GF104991999999999999999999MA1102401999999MW1001OC100771REMMET068KJMR 291638Z AUTO 14009G15KT 10SM SCT019 SCT024 09/04 A3024 RMK AO2;EQDQ01+000000PRSWM2
0195727475999992000110103384+45880-093270FM-15+0309KJMR V0201001N002110087019N0160931N1+01401+01101999999ADDGD13991+0087019GD23991+0105019GD34991+0141019GF108991999999999999999999MA1101461999999MW1001REMMET072KJMR 010338Z AUTO 10004KT 10SM BKN029 BKN035 OVC047 14/11 A2996 RMK AO2;EQDQ01+000000PRSWM2
0054727475999992000110312009+45883-093267NSRDB+030999999V020999999999999999999999999999+99999+99999999999ADDGP10060000002000000002000000002000GR100600000900009
0208727475999992000110615384+45880-093270FM-15+0309KJMR V0201101N003610024019N0048281N1+00701+00601999999ADDAA101001891GD13991+0024019GD24991+0036019GF108991999999999999999999MA1100311999999MW1631REMMET073KJMR 061538Z AUTO 11007KT 3SM RA BKN008 OVC012 07/06 A2962 RMK AO2 P0007;EQDQ01+000003PRSWM1Q02    003PRSWM1
0186727475999992000110706384+45880-093270FM-15+0309KJMR V0200701N002610018019N0064371N1+00601+00601999999ADDAA101001591GD14991+0018019GF108991999999999999999999MA1099701999999MW1631REMMET066KJMR 070638Z AUTO 07005KT 4SM RA OVC006 06/06 A2944 RMK AO2 P0006;EQDQ01+000003PRSWM1Q02    003PRSWM1
0194727475999992000110809374+45880-093270FM-15+0309KJMR V0202001N005110024019N0080461N1-00201-00301999999ADDGD13991+0024019GD24991+0042019GF108991999999999999999999MA1100641999999MW1711REMMET070KJMR 080937Z AUTO 20010KT 5SM -SN BKN008 OVC014 M02/M03 A2972 RMK AO2;EQDQ01+000003PRSWM1Q02    003PRSWM1
0054727475999992000111008009+45883-093267NSRDB+030999999V020999999999999999999999999999+99999+99999999999ADDGP10060000002000000002000000002000GR100600000900009
0071727475999992000111315009+45883-093267NSRDB+030999999V020999999999999999999999999999+99999+99999999999ADDGP10060002502009000002021002502009GQ100600793913059GR100600259913979
0071727475999992000111718009+45883-093267NSRDB+030999999V020999999999999999999999999999+99999+99999999999ADDGP10060008002009000002021008002009GQ100600655917279GR100600581914009
0071727475999992000112122009+45883-093267NSRDB+030999999V020999999999999999999999999999+99999+99999999999ADDGP10060007502009014502021005302009GQ100600814922909GR100600210914029
0054727475999992000112306009+45883-093267NSRDB+030999999V020999999999999999999999999999+99999+99999999999ADDGP10060000002000000002000000002000GR100600000900009
0054727475999992000112907009+45883-093267NSRDB+030999999V020999999999999999999999999999+99999+99999999999ADDGP10060000002000000002000000002000GR100600000900009
0054727475999992000113010009+45883-093267NSRDB+030999999V020999999999999999999999999999+99999+99999999999ADDGP10060000002000000002000000002000GR100600000900009
0153727475999992000120108384+45880-093270FM-15+0309KJMR V0209999C000010117019N0160931N1-00301-00601999999ADDGD14991+0117019GF108991999999999999999999MA1103011999999MW1001REMMET060KJMR 010838Z AUTO 00000KT 10SM OVC039 M03/M06 A3042 RMK AO2;EQDQ01+000000PRSWM2
0153727475999992000120115374+45880-093270FM-15+0309KJMR V0200401N001510123019N0160931N1-00301-00601999999ADDGD14991+0123019GF108991999999999999999999MA1103421999999MW1001REMMET060KJMR 011537Z AUTO 04003KT 10SM OVC041 M03/M06 A3054 RMK AO2;EQDQ01+000000PRSWM2
0135727475999992000120119384+45880-093270FM-15+0309KJMR V0209999C000012200019N0160931N1-00301-00801999999ADDGF100991999999999999999999MA1103491999999MW1001REMMET057KJMR 011938Z AUTO 00000KT 10SM CLR M03/M08 A3056 RMK AO2;EQDQ01+000000PRSWM2
0127727475999992000120210384+45880-093270FM-16+0309KJMR V0209999C000012200019N0160931N1+99999+99999999999ADDGF100991999999999999999999MA1103861999999MW1001REMMET049KJMR 021038Z AUTO 00000KT 10SM CLR A3067 RMK AO2;EQDQ01+000000PRSWM2
0071727475999992000120214009+45883-093267NSRDB+030999999V020999999999999999999999999999+99999+99999999999ADDGP10060000002009000002021000002009GQ100600886912409GR100600013905289
0071727475999992000120621009+45883-093267NSRDB+030999999V020999999999999999999999999999+99999+99999999999ADDGP10060009902009004002021009002009GQ100600760921439GR100600340914099
0054727475999992000121112009+45883-093267NSRDB+030999999V020999999999999999999999999999+99999+99999999999ADDGP10060000002000000002000000002000GR100600000900009
0194727475999992000121509394+45880-093270FM-15+0309KJMR V0201701N002110060019N0080461N1-01301-01501999999ADDGD12991+0039019GD24991+0060019GF108991999999999999999999MA1102071999999MW1711REMMET070KJMR 150939Z AUTO 17004KT 5SM -SN SCT013 OVC020 M13/M15 A3014 RMK AO2;EQDQ01+000003PRSWM1Q02    003PRSWM1
0071727475999992000121617009+45883-093267NSRDB+030999999V020999999999999999999999999999+99999+99999999999ADDGP10060015202009008602021012602009GQ100600728915639GR100600417914139
0071727475999992000122416009+45883-093267NSRDB+030999999V020999999999999999999999999999+99999+99999999999ADDGP10060013702009024802021008702009GQ100600785914249GR100600281914149
0071727475999992000122516009+45883-093267NSRDB+030999999V020999999999999999999999999999+99999+99999999999ADDGP10060011402009016302021008102009GQ100600785914239GR100600281914149
0175727475999992000122609374+45880-093270FM-15+0309KJMR V0202801N001510093019N0160931N1-01301-01401999999ADDGD12991+0072019GD24991+0093019GF108991999999999999999999MA1102981999999MW1001REMMET067KJMR 260937Z AUTO 28003KT 10SM SCT024 OVC031 M13/M14 A3041 RMK AO2;EQDQ01+000000PRSWM2
0054727475999992000122713009+45883-093267NSRDB+030999999V020999999999999999999999999999+99999+99999999999ADDGP10060000002000000002000000002000GR100600000900009
0135727475999992000122803384+45880-093270FM-15+0309KJMR V0209999C000012200019N0160931N1-02201-02401999999ADDGF100991999999999999999999MA1102401999999MW1001REMMET057KJMR 280338Z AUTO 00000KT 10SM CLR M22/M24 A3024 RMK AO2;EQDQ01+000000PRSWM2
0054727475999992000123106009+45883-093267NSRDB+030999999V020999999999999999999999999999+99999+99999999999ADDGP10060000002000000002000000002000GR100600000900009
0203727475999992000123120003+45880-093270FM-15+0309KJMR V0203301N002112200019N0160931N1-01001-01601999999ADDGF100991999999999999999999GP10060020502009023102021013002009GQ100600710919799GR100600461914159MA1102641999999MW1001REMMET057KJMR 311958Z AUTO 33004KT 10SM CLR M10/M16 A3031 RMK AO2;EQDQ01+000000PRSWM2
0370727476949612000010215533+48717-094600FM-15+0330BDE  V0203405N00265005185MN0160005N1-00895-01065101455ADDGD13995+0051859GD24995+0070159GF108991999999999999999999MA1101225999999MW1001REMMET089KBDE 021553Z AUTO 34005KT 10SM BKN017 OVC023 M09/M11 A2989 RMK AO2 SLP145 T10891106 TSNO;EQDQ01+000000PRSWM2N01 00000JPWTH 0QNNAA1D0 04017BA1 0 04017AA1D0 06023BA1 0 06023GA1 0 00017KA1D0 00013JA1 0-00106LA1 0 01000CA1 0 02989NA1 0 00000QA1 0 10145SA1D0 00016RA1 0-00089YA1 0 34005
0451727476949612000010608533+48717-094600FM-15+0330BDE  V0202905N00415016765MN0112005N1-01285-01505101035ADDAA101000021AA203000021GD12995+0051859GD24995+0167659GF108991999999999999999999MA1100785999999MD1310261+9999MW1715REMMET118KBDE 060853Z AUTO 29008KT 260V330 7SM -SN SCT017 OVC055 M13/M15 A2976 RMK AO2 SLP103 P0000 60000 T11281150 53026 TSNO;EQDQ01+000003PRSWM1Q02    003PRSWM1N01 00040JPWTH 0QNNAA1D0 02017BA1 0 02017AA1D0 06055BA1 0 06055GA1 0 00055KA1D0 00005JA1 0-00150LA1 0 00700CA1 0 02976NA1 0 00040QA1 0 10103SA1D0 00009RA1 0-00128YA1 0 29008
0308727476949612000010706533+48717-094600FM-15+0330BDE  V0209995C00005220005MN0160005N1-02445-02725102555ADDGF100991999999999999999999MA1102175999999MW1001REMMET079KBDE 070653Z AUTO 00000KT 10SM CLR M24/M27 A3017 RMK AO2 SLP255 T12441272 TSNO;EQDQ01+000000PRSWM2N01 00000JPWTH 0QNNAA1D0 00000BA1 0 00000GA1U0 99999KA1D0-00017JA1 0-00272LA1 0 01000CA1 0 03017NA1 0 00000QA1 0 10255SA1D0-00012RA1 0-00244YA1 0 00000
0416727476949612000011017533+48717-094600FM-15+0330BDE  V0203105N00215220005MN0160005N1-00675-00785099125ADDGD12995+0009159GF104991999999999999999999KA1999M-00561KA2999N-01001MA1098955999999MD1710011+9999MW1001REMMET100KBDE 101753Z AUTO 31004KT 10SM SCT003 M07/M08 A2922 RMK AO2 SLP912 T10671078 11056 21100 58000 TSNO;EQDQ01+000082APCTENQ02+000002APC3  Q03+000000PRSWM2N01 00000JPWTH 0QNNAA1D0 02003BA1 0 02003GA1U0 99999KA1D0 00018JA1 0-00078LA1 0 01000CA1 0 02922NA1 0 00000QA1 0 09912SA1D0 00020RA1 0-00067YA1 0 31004
0393727476949612000011405533+48717-094600FM-15+0330BDE  V0201305N00155220005MN0112005N1-02565-02785104085ADDGD11995+0003059GF102991999999999999999999KA1999M-01941KA2999N-02561MA1103695999999MD1310051+9999MW1001REMMET109KBDE 140553Z AUTO 13003KT 7SM FEW001 M26/M28 A3062 RMK AO2 SLP408 T12561278 11194 21256 411671278 53005 TSNO;EQDQ01+000000PRSWM2N01 00000JPWTH 0QNNAA1D0 02001BA1 0 01001GA1U0 99999KA1D0-00018JA1 0-00278LA1 0 00700CA1 0 03062NA1 0 00000QA1 0 10408SA1D0-00014RA1 0-00256YA1 0 13003
0375727476949612000012605533+48717-094600FM-15+0330BDE  V0209995C00005220005MN0144005N1-02065-02225102995ADDGF100991999999999999999999KA1999M-01671KA2999N-02391MA1102645999999MD1110041+9999MW1001REMMET106KBDE 260553Z AUTO 00000KT 9SM CLR M21/M22 A3031 RMK AO2 SLP299 T12061222 11167 21239 411331239 51004 TSNO;EQDQ01+000000PRSWM2N01 00000JPWTH 0QNNAA1D0 00000BA1 0 00000GA1U0 99999KA1D0-00008JA1 0-00222LA1 0 00900CA1 0 03031NA1 0 00000QA1 0 10299SA1D0-00005RA1 0-00206YA1 0 00000
0366727476949612000012623533+48717-094600FM-15+0330BDE  V0201905N00155220005MN0160005N1-01335-01895102935ADDGF100991999999999999999999KA1999M-00891KA2999N-01331MA1102575999999MD1110061+9999MW1001REMMET097KBDE 262353Z AUTO 19003KT 10SM CLR M13/M19 A3029 RMK AO2 SLP293 T11331189 11089 21133 51006 TSNO;EQDQ01+000000PRSWM2N01 00000JPWTH 0QNNAA1D0 00000BA1 0 00000GA1U0 99999KA1D0-00002JA1 0-00189LA1 0 01000CA1 0 03029NA1 0 00000QA1 0 10293SA1D0 00008RA1 0-00133YA1 0 19003
0308727476949612000012809533+48717-094600FM-15+0330BDE  V0201805N00265220005MN0160005N1-01335-01725103265ADDGF100991999999999999999999MA1103015999999MW1001REMMET079KBDE 280953Z AUTO 18005KT 10SM CLR M13/M17 A3042 RMK AO2 SLP326 T11331172 TSNO;EQDQ01+000000PRSWM2N01 00000JPWTH 0QNNAA1D0 00000BA1 0 00000GA1U0 99999KA1D0 00001JA1 0-00172LA1 0 01000CA1 0 03042NA1 0 00000QA1 0 10326SA1D0 00008RA1 0-00133YA1 0 18005
0394727476949612000020105533+48717-094600FM-15+0330BDE  V0203405N00465220005MN0160005N1-00895-01115102585ADDGD12995+0051859GF104991999999999999999999KA1999M-00561KA2999N-00891MA1102375999999MD1110201+9999MW1001REMMET110KBDE 010553Z AUTO 34009KT 10SM SCT017 M09/M11 A3023 RMK AO2 SLP258 T10891111 11056 21089 410331106 51020 TSNO;EQDQ01+000000PRSWM2N01 00000JPWTH 0QNNAA1D0 02017BA1 0 02017GA1U0 99999KA1D0 00012JA1 0-00111LA1 0 01000CA1 0 03023NA1 0 00000QA1 0 10258SA1D0 00016RA1 0-00089YA1 0 34009
0307727476949612000022218533+48717-094600FM-15+0330BDE  V0202605N00365220005MN0160005N1+00945-00065100775ADDGF100991999999999999999999MA1100685999999MW1001REMMET078KBDE 221853Z AUTO 26007KT 10SM CLR 09/M01 A2973 RMK AO2 SLP077 T00941006 TSNO;EQDQ01+000000PRSWM2N01 00000JPWTH 0QNNAA1D0 00000BA1 0 00000GA1U0 99999KA1D0 00031JA1 0-00006LA1 0 01000CA1 0 02973NA1 0 00000QA1 0 10077SA1D0 00049RA1 0 00094YA1 0 26007
0152727476949612000022309534+48730-094620FM-16+0330KBDE V0209999C000012200019N0024141N1+99999+99999999999ADDGF100991999999999999999999MA1101351999999MW1001MW2101REMMET068KBDE 230953Z AUTO 00000KT 1 1/2SM BR CLR A2993 RMK AO2 SLPNO TSNO $;EQDQ01+000003PRSWM1
0354727476949612000022314533+48717-094600FM-15+0330BDE  V0200605N00215220005MN0096005N1-00225-00225101775ADDGF100991999999999999999999MA1101635999999MD1110241+9999MW1101MW2455REMMET089KBDE 231453Z AUTO 06004KT 6SM BR CLR M02/M02 A3001 RMK AO2 SLP177 T10221022 51024 TSNO $;EQDQ01+000003PRSWM1Q02    003PRSWM1N01 00070JPWTH 0QNNAA1D0 00000BA1 0 00000GA1U0 99999KA1D0 00028JA1 0-00022LA1 0 00600CA1 0 03001NA1 0 00070QA1 0 10177SA1D0 00028RA1 0-00022YA1 0 06004
0337727476949612000030822533+48717-094600FM-15+0330BDE  V0200205N01035220005MN0160005N1-00225-01065101175ADDGF100991999999999999999999MA1101025999999MW1001OC101441REMMET100KBDE 082253Z AUTO 02020G28KT 10SM CLR M02/M11 A2983 RMK AO2 PK WND 01030/2232 SLP117 T10221106 TSNO;EQDQ01+000000PRSWM2N01 00000JPWTH 0QNNAA1D0 00000BA1 0 00000GA1U0 99999KA1D0 00013JA1 0-00106LA1 0 01000CA1 0 02983NA1 0 00000QA1 0 10117SA1D0 00028RA1 0-00022YA1 0 02020
0702727476949612000030905596+48717-094600SOD  +0330KBDE V020999999999999999999999999999+99999+99999999999ADDAA124000025AT1MW16RA  5AT2MW01FG  5AT3MW13BR  1KA1240M+00675KA2240N-00885MG1096999999994OE11240165402020195OE22240125202020205OE33240073399999995REMSOD54524 HR PRECIPITATION (IN):  T   24 HR MAX TEMP (F): 4424 HR MAX TEMP TIME (LST):0214 24 HR MIN TEMP (F): 1624 HR MIN TEMP TIME (LST):2359 AVERAGE STATION PRESSURE:28.64  PEAK WIND SPEED (MPH): 37 PEAK WIND DIR (DEG):020 PEAK WIND TIME (LST):2019  FASTEST 2MIN SPEED (MPH): 28FASTEST 2MIN DIR (DEG):020 FASTEST 2MIN TIME (LST):2020 AVERAGE WIND SPEED (MPH):16.4 24 HR AVG TEMP (F):30 HOURLY INCREMENTAL PRECIPITATION VALUES (IN):.00  .00   T    T    T    T   .00  .00  .00  .00  .00  .00  .00  .00  .00  .00  .00  .00  .00  .00  .00  .00  .00  .00
0393727476949612000031112533+48717-094600FM-15+0330BDE  V0203605N00365009145MN0160005N1-00445-00835102335ADDAA101000021GD13995+0091459GD24995+0125059GF108991999999999999999999MA1102135999999MW1001REMMET101KBDE 111253Z AUTO 36007KT 10SM BKN030 OVC041 M04/M08 A3016 RMK AO2 SNE46 SLP233 P0000 T10441083 TSNO;EQDQ01+000000PRSWM2N01 00000JPWTH 0QNNAA1D0 04030BA1 0 04030AA1D0 06041BA1 0 06041GA1 0 00030KA1D0 00017JA1 0-00083LA1 0 01000CA1 0 03016NA1 0 00000QA1 0 10233SA1D0 00024RA1 0-00044YA1 0 36007
0328727476949612000031120533+48717-094600FM-15+0330BDE  V0203405N00575220005MN0160005N1-00285-01445102365ADDGF100991999999999999999999MA1102175999999MD1610051+9999MW1001REMMET085KBDE 112053Z AUTO 34011KT 10SM CLR M03/M14 A3017 RMK AO2 SLP236 T10281144 56005 TSNO;EQDQ01+000000PRSWM2N01 00000JPWTH 0QNNAA1D0 00000BA1 0 00000GA1U0 99999KA1D0 00006JA1 0-00144LA1 0 01000CA1 0 03017NA1 0 00000QA1 0 10236SA1D0 00027RA1 0-00028YA1 0 34011
0308727476949612000031621533+48717-094600FM-15+0330BDE  V0200105N00465220005MN0160005N1-00335-01725102865ADDGF100991999999999999999999MA1102615999999MW1001REMMET079KBDE 162153Z AUTO 01009KT 10SM CLR M03/M17 A3030 RMK AO2 SLP286 T10331172 TSNO;EQDQ01+000000PRSWM2N01 00000JPWTH 0QNNAA1D0 00000BA1 0 00000GA1U0 99999KA1D0 00001JA1 0-00172LA1 0 01000CA1 0 03030NA1 0 00000QA1 0 10286SA1D0 00026RA1 0-00033YA1 0 01009
0375727476949612000032305533+48717-094600FM-15+0330BDE  V0209995C00005220005MN0160005N1+00065-00115102325ADDGF100991999999999999999999KA1999M+01171KA2999N+00001MA1102205999999MD1010031+9999MW1001REMMET106KBDE 230553Z AUTO 00000KT 10SM CLR 01/M01 A3018 RMK AO2 SLP232 T00061011 10117 20000 401560000 50003 TSNO;EQDQ01+000000PRSWM2N01 00000JPWTH 0QNNAA1D0 00000BA1 0 00000GA1U0 99999KA1D0 00030JA1 0-00011LA1 0 01000CA1 0 03018NA1 0 00000QA1 0 10232SA1D0 00033RA1 0 00006YA1 0 00000
0354727476949612000032320533+48717-094600FM-15+0330BDE  V0201705N00575019815MN0144005N1+01565+00785101815ADDGD14995+0198159GF108991999999999999999999MA1101735999999MD1610291+9999MW1001OC100931REMMET088KBDE 232053Z AUTO 17011G18KT 9SM OVC065 16/08 A3004 RMK AO2 SLP181 T01560078 56029 TSNO;EQDQ01+000000PRSWM2N01 00000JPWTH 0QNNAA1D0 06065BA1 0 06065GA1 0 00065KA1D0 00046JA1 0 00078LA1 0 00900CA1 0 03004NA1 0 00000QA1 0 10181SA1D0 00060RA1 0 00156YA1 0 17011
0324727476949612000032321533+48717-094600FM-15+0330BDE  V0201605N00575018295MN0160005N1+01505+00675101715ADDGD13995+0182959GF107991999999999999999999MA1101635999999MW1001REMMET080KBDE 232153Z AUTO 16011KT 10SM BKN060 15/07 A3001 RMK AO2 SLP171 T01500067 TSNO;EQDQ01+000000PRSWM2N01 00000JPWTH 0QNNAA1D0 04060BA1 0 04060GA1 0 00060KA1D0 00044JA1 0 00067LA1 0 01000CA1 0 03001NA1 0 00000QA1 0 10171SA1D0 00059RA1 0 00150YA1 0 16011
0506727476949612000032714533+48717-094600FM-15+0330BDE  V0203305N01035004885MN0160005N1-00395-00725099855ADDAA101000021AA203000021GD13995+0048859GD23995+0079259GD34995+0213459GF108991999999999999999999MA1099705999999MD1210141+9999MW1001OC101391REMMET144KBDE 271453Z AUTO 33020G27KT 10SM BKN016 BKN026 OVC070 M04/M07 A2944 RMK AO2 PK WND 33029/1441 SNB42E43 SLP985 P0000 60000 T10391072 52014 TSNO;EQDQ01+000000PRSWM2N01 00000JPWTH 0QNNAA1D0 04016BA1 0 04016AA1D0 04026BA1 0 04026AA1D0 06070BA1 0 06070GA1 0 00016KA1D0 00019JA1 0-00072LA1 0 01000CA1 0 02944NA1 0 00000QA1 0 09985SA1D0 00025RA1 0-00039YA1 0 33020
0308727476949612000032806533+48717-094600FM-15+0330BDE  V0203405N00415220005MN0160005N1-00285-00725101005ADDGF100991999999999999999999MA1100815999999MW1001REMMET079KBDE 280653Z AUTO 34008KT 10SM CLR M03/M07 A2977 RMK AO2 SLP100 T10281072 TSNO;EQDQ01+000000PRSWM2N01 00000JPWTH 0QNNAA1D0 00000BA1 0 00000GA1U0 99999KA1D0 00019JA1 0-00072LA1 0 01000CA1 0 02977NA1 0 00000QA1 0 10100SA1D0 00027RA1 0-00028YA1 0 34008
0389727476949612000033020533+48717-094600FM-15+0330BDE  V0202105N00415024385MN0160005N1+01445-00225101615ADDGD13995+0243859GD23995+0304859GF107991999999999999999999MA1101525999999MD1610101+9999MW1001REMMET094KBDE 302053Z AUTO 21008KT 10SM BKN080 BKN100 14/M02 A2998 RMK AO2 SLP161 T01441022 56010 TSNO;EQDQ01+000000PRSWM2N01 00000JPWTH 0QNNAA1D0 04080BA1 0 04080AA1D0 04100BA1 0 04100GA1 0 00080KA1D0 00028JA1 0-00022LA1 0 01000CA1 0 02998NA1 0 00000QA1 0 10161SA1D0 00058RA1 0 00144YA1 0 21008
0385727476949612000040500533+48717-094600FM-15+0330BDE  V0201505N00155022865MN0160005N1+00445-00675100955ADDGD13995+0228659GD24995+0274359GF108991999999999999999999MA1100815999999MW1001REMMET088KBDE 050053Z AUTO 15003KT 10SM BKN075 OVC090 04/M07 A2977 RMK AO2 SLP095 T00441067 TSNO;EQDQ01+000000PRSWM2N01 00000JPWTH 0P01 999993SCOCIGQNNAA1D0 04075BA1 0 04075AA1D0 06090BA1 0 06090GA1 0 00750KA1D0 00020JA1 0-00067LA1 0 01000CA1 0 02977NA1 0 00000QA1 0 10095SA1D0 00040RA1 0 00044YA1 0 15003
0187727476949612000041204005+48717-094600FM-15+0330BDE  V0202705N00265220005MN016000599-00335-00785102935ADDGD10995+9999999MA1102745999999EQDN01 00000JPWTH 0QNNAA1D0 00000BA1 0 00000GA1U0 99999KA1D0 00018JA1 0-00078LA1 0 01000CA1 0 03034NA1 0 00000QA1 0 10293SA1D0 00026RA1 0-00033YA1 0 27005
0307727476949612000041700533+48717-094600FM-15+0330BDE  V0200905N00265220005MN0160005N1+00445-00835102335ADDGF100991999999999999999999MA1102175999999MW1001REMMET078KBDE 170053Z AUTO 09005KT 10SM CLR 04/M08 A3017 RMK AO2 SLP233 T00441083 TSNO;EQDQ01+000000PRSWM2N01 00000JPWTH 0QNNAA1D0 00000BA1 0 00000GA1U0 99999KA1D0 00017JA1 0-00083LA1 0 01000CA1 0 03017NA1 0 00000QA1 0 10233SA1D0 00040RA1 0 00044YA1 0 09005
0365727476949612000042511533+48717-094600FM-15+0330BDE  V0201405N00215220005MN0160005N1+00445-00115102045ADDGF100991999999999999999999KA1999M+01171KA2999N+00391MA1102005999999MD1110081+9999MW1001REMMET096KBDE 251153Z AUTO 14004KT 10SM CLR 04/M01 A3012 RMK AO2 SLP204 T00441011 10117 20039 51008 TSNO;EQDQ01+000000PRSWM2N01 00000JPWTH 0QNNAA1D0 00000BA1 0 00000GA1U0 99999KA1D0 00030JA1 0-00011LA1 0 01000CA1 0 03012NA1 0 00000QA1 0 10204SA1D0 00040RA1 0 00044YA1 0 14004
0344727476949612000042520533+48717-094600FM-15+0330BDE  V0202005N00525220005MN0160005N1+02225+00115101815ADDGD11995+0289659GF102991999999999999999999MA1101795999999MD1710091+9999MW1001REMMET086KBDE 252053Z AUTO 20010KT 10SM FEW095 22/01 A3006 RMK AO2 SLP181 T02220011 57009 TSNO;EQDQ01+000000PRSWM2N01 00000JPWTH 0QNNAA1D0 02095BA1 0 01095GA1U0 99999KA1D0 00034JA1 0 00011LA1 0 01000CA1 0 03006NA1 0 00000QA1 0 10181SA1D0 00072RA1 0 00222YA1 0 20010
0383727476949612000042713533+48717-094600FM-15+0330BDE  V0203505N00365022865MN0160005N1+01005+00615101705ADDAA101000021GD14995+0228659GF108991999999999999999999MA1101635999999MW1615REMMET096KBDE 271353Z AUTO 35007KT 10SM -RA OVC075 10/06 A3001 RMK AO2 RAB40 SLP170 P0000 T01000061 TSNO;EQDQ01+000003PRSWM1Q02    003PRSWM1N01 00020JPWTH 0P01 999993SCOCIGQNNAA1D0 06075BA1 0 06075GA1 0 00750KA1D0 00043JA1 0 00061LA1 0 01000CA1 0 03001NA1 0 00020QA1 0 10170SA1D0 00050RA1 0 00100YA1 0 35007
0314727476949612000043006533+48717-094600FM-15+0330BDE  V0201805N003650330019N0160005N1+00895-00115101915ADDGD14995+0335359GF108991999999999999999999MA1101865999999MW1001REMMET081KBDE 300653Z AUTO 18007KT 10SM OVC110 09/M01 A3008 RMK AO2 SLP191 T00891011 TSNO;EQDQ01+000000PRSWM2N01 00000JPWTH 0QNNAA1D0 06110BA1 0 06110KA1D0 00030JA1 0-00011LA1 0 01000CA1 0 03008NA1 0 00000QA1 0 10191SA1D0 00048RA1 0 00089YA1 0 18007
0333727476949612000043008533+48717-094600FM-15+0330BDE  V0201705N002650300019N0160005N1+00895+00005101875ADDGD14995+0304859GF108991999999999999999999MA1101835999999MD1510051+9999MW1001REMMET086KBDE 300853Z AUTO 17005KT 10SM OVC100 09/00 A3007 RMK AO2 SLP187 T00890000 55005 TSNO;EQDQ01+000000PRSWM2N01 00000JPWTH 0QNNAA1D0 06100BA1 0 06100KA1D0 00032JA1 0 00000LA1 0 01000CA1 0 03007NA1 0 00000QA1 0 10187SA1D0 00048RA1 0 00089YA1 0 17005
0388727476949612000050114533+48717-094600FM-15+0330BDE  V0203505N00415004885MN0160005N1+00725+00445101565ADDGD13995+0048859GD24995+0073259GF108991999999999999999999MA1101495999999MD1110221+9999MW1001REMMET093KBDE 011453Z AUTO 35008KT 10SM BKN016 OVC024 07/04 A2997 RMK AO2 SLP156 T00720044 51022 TSNO;EQDQ01+000000PRSWM2N01 00000JPWTH 0QNNAA1D0 04016BA1 0 04016AA1D0 06024BA1 0 06024GA1 0 00016KA1D0 00040JA1 0 00044LA1 0 01000CA1 0 02997NA1 0 00000QA1 0 10156SA1D0 00045RA1 0 00072YA1 0 35008
0460727476949612000050820533+48717-094600FM-15+0330BDE  V0203405N00775007925MN0160005N1+01285+00895100395ADDAA103000021GD13995+0079259GD23995+0097559GD34995+0213459GF108991999999999999999999MA1100345999999MD1310181+9999MW1001OC101181REMMET109KBDE 082053Z AUTO 34015G23KT 10SM BKN026 BKN032 OVC070 13/09 A2963 RMK AO2 SLP039 60000 T01280089 53018 TSNO;EQDQ01+000000PRSWM2N01 00000JPWTH 0QNNAA1D0 04026BA1 0 04026AA1D0 04032BA1 0 04032AA1D0 06070BA1 0 06070GA1 0 00026KA1D0 00048JA1 0 00089LA1 0 01000CA1 0 02963NA1 0 00000QA1 0 10039SA1D0 00055RA1 0 00128YA1 0 34015
0367727476949612000051022533+48717-094600FM-15+0330BDE  V0201205N00155018295MN0160005N1+01445+00725100385ADDAA101000021GD13995+0182959GF107991999999999999999999MA1100305999999MW1615REMMET096KBDE 102253Z AUTO 12003KT 10SM -RA BKN060 14/07 A2962 RMK AO2 RAB07 SLP038 P0000 T01440072 TSNO;EQDQ01+000003PRSWM1Q02    003PRSWM1N01 00020JPWTH 0QNNAA1D0 04060BA1 0 04060GA1 0 00060KA1D0 00045JA1 0 00072LA1 0 01000CA1 0 02962NA1 0 00020QA1 0 10038SA1D0 00058RA1 0 00144YA1 0 12003
0313727476949612000051418533+48717-094600FM-15+0330BDE  V0209995V00315220005MN0160005N1+01065-00675102035ADDGF100991999999999999999999MA1101935999999MW1001OC100771REMMET076KBDE 141853Z AUTO VRB06G15KT 10SM CLR 11/M07 A3010 RMK AO2 SLP203 T01061067;EQDQ01+000000PRSWM2N01 00000JPWTH 0QNNAA1D0 00000BA1 0 00000GA1U0 99999KA1D0 00020JA1 0-00067LA1 0 01000CA1 0 03010NA1 0 00000QA1 0 10203SA1D0 00051RA1 0 00106YA1 0 00006
0319727476949612000051506533+48717-094600FM-15+0330BDE  V0209995C00005030485MN0160005N1+00335+00115101935ADDGD14995+0304859GF108991999999999999999999MA1101835999999MW1001REMMET075KBDE 150653Z AUTO 00000KT 10SM OVC100 03/01 A3007 RMK AO2 SLP193 T00330011;EQDQ01+000000PRSWM2N01 00000JPWTH 0QNNAA1D0 06100BA1 0 06100GA1 0 00100KA1D0 00034JA1 0 00011LA1 0 01000CA1 0 03007NA1 0 00000QA1 0 10193SA1D0 00038RA1 0 00033YA1 0 00000
0301727476949612000051603533+48717-094600FM-15+0330BDE  V0200705N00155220005MN0160005N1+00785+00115101455ADDGF100991999999999999999999MA1101395999999MW1001REMMET072KBDE 160353Z AUTO 07003KT 10SM CLR 08/01 A2994 RMK AO2 SLP145 T00780011;EQDQ01+000000PRSWM2N01 00000JPWTH 0QNNAA1D0 00000BA1 0 00000GA1U0 99999KA1D0 00034JA1 0 00011LA1 0 01000CA1 0 02994NA1 0 00000QA1 0 10145SA1D0 00046RA1 0 00078YA1 0 07003
0321727476949612000051708533+48717-094600FM-15+0330BDE  V0203605N00465220005MN0160005N1+00945+00675101195ADDGF100991999999999999999999MA1101155999999MD1310131+9999MW1001REMMET078KBDE 170853Z AUTO 36009KT 10SM CLR 09/07 A2987 RMK AO2 SLP119 T00940067 53013;EQDQ01+000000PRSWM2N01 00000JPWTH 0QNNAA1D0 00000BA1 0 00000GA1U0 99999KA1D0 00044JA1 0 00067LA1 0 01000CA1 0 02987NA1 0 00000QA1 0 10119SA1D0 00049RA1 0 00094YA1 0 36009
0301727476949612000051918533+48717-094600FM-15+0330BDE  V0201905N00625220005MN0160005N1+01725+00115101735ADDGF100991999999999999999999MA1101665999999MW1001REMMET072KBDE 191853Z AUTO 19012KT 10SM CLR 17/01 A3002 RMK AO2 SLP173 T01720011;EQDQ01+000000PRSWM2N01 00000JPWTH 0QNNAA1D0 00000BA1 0 00000GA1U0 99999KA1D0 00034JA1 0 00011LA1 0 01000CA1 0 03002NA1 0 00000QA1 0 10173SA1D0 00063RA1 0 00172YA1 0 19012
0356727476949612000052104533+48717-094600FM-15+0330BDE  V0201305N00365013115MN0160005N1+01175+01065101215ADDAA101000891GD14995+0131159GF108991999999999999999999MA1101155999999MW1615REMMET085KBDE 210453Z AUTO 13007KT 10SM -RA OVC043 12/11 A2987 RMK AO2 SLP121 P0003 T01170106;EQDQ01+000003PRSWM1Q02    003PRSWM1N01 00020JPWTH 0QNNAA1D0 06043BA1 0 06043GA1 0 00043KA1D0 00051JA1 0 00106LA1 0 01000CA1 0 02987NA1 0 00020QA1 0 10121SA1D0 00053RA1 0 00117YA1 0 13007
0291727476949612000053110533+48717-094600FM-15+0330BDE  V0203205N00155220005MN0160005N1+00445+00285999999ADDGF100991999999999999999999MA1101695999999MW1001REMMET073KBDE 311053Z AUTO 32003KT 10SM CLR 04/03 A3003 RMK AO2 SLPNO T00440028 $;EQDQ01+000000PRSWM2N01 00000JPWTH 0QNNAA1D0 00000BA1 0 00000GA1U0 99999KA1D0 00037JA1 0 00028LA1 0 01000CA1 0 03003NA1 0 00000SA1D0 00040RA1 0 00044YA1 0 32003
0301727476949612000060415533+48717-094600FM-15+0330BDE  V0200805N00625220005MN0160005N1+01615+00005102615ADDGF100991999999999999999999MA1102575999999MW1001REMMET072KBDE 041553Z AUTO 08012KT 10SM CLR 16/00 A3029 RMK AO2 SLP261 T01610000;EQDQ01+000000PRSWM2N01 00000JPWTH 0QNNAA1D0 00000BA1 0 00000GA1U0 99999KA1D0 00032JA1 0 00000LA1 0 01000CA1 0 03029NA1 0 00000QA1 0 10261SA1D0 00061RA1 0 00161YA1 0 08012
0321727476949612000060508533+48717-094600FM-15+0330BDE  V0209995C00005220005MN0160005N1+00445+00065102525ADDGF100991999999999999999999MA1102445999999MD1810041+9999MW1001REMMET078KBDE 050853Z AUTO 00000KT 10SM CLR 04/01 A3025 RMK AO2 SLP252 T00440006 58004;EQDQ01+000000PRSWM2N01 00000JPWTH 0QNNAA1D0 00000BA1 0 00000GA1U0 99999KA1D0 00033JA1 0 00006LA1 0 01000CA1 0 03025NA1 0 00000QA1 0 10252SA1D0 00040RA1 0 00044YA1 0 00000
0385727476949612000061014533+48717-094600FM-15+0330BDE  V0201105N01035003055MN0160005N1+01065+00895100125ADDAA103001091GD14995+0030559GF108991999999999999999999MA1100105999999MD1310031+9999MW1001OC101291REMMET108KBDE 101453Z AUTO 11020G25KT 10SM OVC010 11/09 A2956 RMK AO2 PK WND 11029/1408 SLP012 60004 T01060089 53003;EQDQ01+000000PRSWM2N01 00000JPWTH 0QNNAA1D0 06010BA1 0 06010GA1 0 00010KA1D0 00048JA1 0 00089LA1 0 01000CA1 0 02956NA1 0 00000QA1 0 10012SA1D0 00051RA1 0 00106YA1 0 11020
0235727476949612000061100534+48730-094620FM-15+0330KBDE V0201901N00261000601CN0040231N1+01201+01201100831ADDAA101000591GD14991+0018099GF108991999999999999999999MA1100781999999MW1101MW2611REMMET109KBDE 110053Z AUTO 19005KT 2 1/2SM -RA BR OVC006 12/12 A2976 RMK AO2 RAB10 CIG 002V008 SLP083 P0002 T01220117;EQDQ01+000003PRSWM1Q02    003PRSWM1
0400727476949612000062220533+48717-094600FM-15+0330BDE  V0209995V00265015245MN0160005N1+01945+01395101025ADDAA103000021GD11995+0073259GD24995+0152459GF108991999999999999999999MA1101025999999MD1110101+9999MW1001REMMET094KBDE 222053Z AUTO VRB05KT 10SM FEW024 OVC050 19/14 A2983 RMK AO2 SLP102 60000 T01940139 51010;EQDQ01+000000PRSWM2N01 00000JPWTH 0QNNAA1D0 02024BA1 0 01024AA1D0 06050BA1 0 06050GA1 0 00050KA1D0 00057JA1 0 00139LA1 0 01000CA1 0 02983NA1 0 00000QA1 0 10102SA1D0 00067RA1 0 00194YA1 0 00005
0319727476949612000062607533+48717-094600FM-15+0330BDE  V0202205N00215220005MN0160005N1+01065+01005101155ADDGD11995+0213459GF102991999999999999999999MA1101125999999MW1001REMMET075KBDE 260753Z AUTO 22004KT 10SM FEW070 11/10 A2986 RMK AO2 SLP115 T01060100;EQDQ01+000000PRSWM2N01 00000JPWTH 0QNNAA1D0 02070BA1 0 01070GA1U0 99999KA1D0 00050JA1 0 00100LA1 0 01000CA1 0 02986NA1 0 00000QA1 0 10115SA1D0 00051RA1 0 00106YA1 0 22004
0393727476949612000062611533+48717-094600FM-15+0330BDE  V0209995V00265220005MN0160005N1+01225+01005101145ADDAA106000391AA224001591GF100991999999999999999999KA1999M+01221KA2999N+01001MA1101125999999MD1310021+9999MW1001REMMET102KBDE 261153Z AUTO VRB05KT 10SM CLR 12/10 A2986 RMK AO2 SLP114 60001 70006 T01220100 10122 20100 53002;EQDQ01+000000PRSWM2N01 00000JPWTH 0QNNAA1D0 00000BA1 0 00000GA1U0 99999KA1D0 00050JA1 0 00100LA1 0 01000CA1 0 02986NA1 0 00000QA1 0 10114SA1D0 00054RA1 0 00122YA1 0 00005
0319727476949612000062801533+48717-094600FM-15+0330BDE  V0209995C00005220005MN0160005N1+01445+00725101555ADDGD11995+0198159GF102991999999999999999999MA1101525999999MW1001REMMET075KBDE 280153Z AUTO 00000KT 10SM FEW065 14/07 A2998 RMK AO2 SLP155 T01440072;EQDQ01+000000PRSWM2N01 00000JPWTH 0QNNAA1D0 02065BA1 0 01065GA1U0 99999KA1D0 00045JA1 0 00072LA1 0 01000CA1 0 02998NA1 0 00000QA1 0 10155SA1D0 00058RA1 0 00144YA1 0 00000
0301727476949612000062822533+48717-094600FM-15+0330BDE  V0203205N00525220005MN0160005N1+01895+00675101315ADDGF100991999999999999999999MA1101295999999MW1001REMMET072KBDE 282253Z AUTO 32010KT 10SM CLR 19/07 A2991 RMK AO2 SLP131 T01890067;EQDQ01+000000PRSWM2N01 00000JPWTH 0QNNAA1D0 00000BA1 0 00000GA1U0 99999KA1D0 00044JA1 0 00067LA1 0 01000CA1 0 02991NA1 0 00000QA1 0 10131SA1D0 00066RA1 0 00189YA1 0 32010
0301727476949612000062904533+48717-094600FM-15+0330BDE  V0202905N00215220005MN0160005N1+01225+00785101405ADDGF100991999999999999999999MA1101395999999MW1001REMMET072KBDE 290453Z AUTO 29004KT 10SM CLR 12/08 A2994 RMK AO2 SLP140 T01220078;EQDQ01+000000PRSWM2N01 00000JPWTH 0QNNAA1D0 00000BA1 0 00000GA1U0 99999KA1D0 00046JA1 0 00078LA1 0 01000CA1 0 02994NA1 0 00000QA1 0 10140SA1D0 00054RA1 0 00122YA1 0 29004
0321727476949612000070408533+48717-094600FM-15+0330BDE  V0209995C00005220005MN0160005N1+01505+01285101455ADDGF100991999999999999999999MA1101465999999MD1510051+9999MW1001REMMET078KBDE 040853Z AUTO 00000KT 10SM CLR 15/13 A2996 RMK AO2 SLP145 T01500128 55005;EQDQ01+000000PRSWM2N01 00000JPWTH 0QNNAA1D0 00000BA1 0 00000GA1U0 99999KA1D0 00055JA1 0 00128LA1 0 01000CA1 0 02996NA1 0 00000QA1 0 10145SA1D0 00059RA1 0 00150YA1 0 00000
0187727476949612000070421005+48717-094600FM-15+0330BDE  V0201205N00365220005MN016000599+02615+01895101325ADDGD11995+0213459MA1101325999999EQDN01 00000JPWTH 0QNNAA1D0 02070BA1 0 01070GA1U0 99999KA1D0 00066JA1 0 00189LA1 0 01000CA1 0 02992NA1 0 00000QA1 0 10132SA1D0 00079RA1 0 00261YA1 0 12007
0319727476949612000070621533+48717-094600FM-15+0330BDE  V0201205N00525007625MN0160005N1+02115+01615101815ADDGD14995+0076259GF108991999999999999999999MA1101835999999MW1001REMMET075KBDE 062153Z AUTO 12010KT 10SM OVC025 21/16 A3007 RMK AO2 SLP181 T02110161;EQDQ01+000000PRSWM2N01 00000JPWTH 0QNNAA1D0 06025BA1 0 06025GA1 0 00025KA1D0 00061JA1 0 00161LA1 0 01000CA1 0 03007NA1 0 00000QA1 0 10181SA1D0 00070RA1 0 00211YA1 0 12010
0319727476949612000071103533+48717-094600FM-15+0330BDE  V0201205N00215016765MN0160005N1+01945+01615101555ADDGD13995+0167659GF107991999999999999999999MA1101565999999MW1001REMMET075KBDE 110353Z AUTO 12004KT 10SM BKN055 19/16 A2999 RMK AO2 SLP155 T01940161;EQDQ01+000000PRSWM2N01 00000JPWTH 0QNNAA1D0 04055BA1 0 04055GA1 0 00055KA1D0 00061JA1 0 00161LA1 0 01000CA1 0 02999NA1 0 00000QA1 0 10155SA1D0 00067RA1 0 00194YA1 0 12004
0301727476949612000071107533+48717-094600FM-15+0330BDE  V0209995V00265220005MN0160005N1+01725+01505101625ADDGF100991999999999999999999MA1101635999999MW1001REMMET072KBDE 110753Z AUTO VRB05KT 10SM CLR 17/15 A3001 RMK AO2 SLP162 T01720150;EQDQ01+000000PRSWM2N01 00000JPWTH 0QNNAA1D0 00000BA1 0 00000GA1U0 99999KA1D0 00059JA1 0 00150LA1 0 01000CA1 0 03001NA1 0 00000QA1 0 10162SA1D0 00063RA1 0 00172YA1 0 00005
0301727476949612000071315533+48717-094600FM-15+0330BDE  V0203205N00525220005MN0160005N1+02565+01725101335ADDGF100991999999999999999999MA1101355999999MW1001REMMET072KBDE 131553Z AUTO 32010KT 10SM CLR 26/17 A2993 RMK AO2 SLP133 T02560172;EQDQ01+000000PRSWM2N01 00000JPWTH 0QNNAA1D0 00000BA1 0 00000GA1U0 99999KA1D0 00063JA1 0 00172LA1 0 01000CA1 0 02993NA1 0 00000QA1 0 10133SA1D0 00078RA1 0 00256YA1 0 32010
0378727476949612000071617533+48717-094600FM-15+0330BDE  V0202905N00415220005MN0160005N1+02335+01175100945ADDGF100991999999999999999999KA1999M+02331KA2999N+01831MA1100985999999MD1610051+9999MW1001OC100771REMMET101KBDE 161753Z AUTO 29008G15KT 260V330 10SM CLR 23/12 A2982 RMK AO2 SLP094 T02330117 10233 20183 56005;EQDQ01+000000PRSWM2N01 00000JPWTH 0QNNAA1D0 00000BA1 0 00000GA1U0 99999KA1D0 00053JA1 0 00117LA1 0 01000CA1 0 02982NA1 0 00000QA1 0 10094SA1D0 00074RA1 0 00233YA1 0 29008
0319727476949612000071719533+48717-094600FM-15+0330BDE  V0203505N00885220005MN0160005N1+01725+00615102095ADDGD12995+0140259GF104991999999999999999999MA1102035999999MW1001REMMET075KBDE 171953Z AUTO 35017KT 10SM SCT046 17/06 A3013 RMK AO2 SLP209 T01720061;EQDQ01+000000PRSWM2N01 00000JPWTH 0QNNAA1D0 02046BA1 0 02046GA1U0 99999KA1D0 00043JA1 0 00061LA1 0 01000CA1 0 03013NA1 0 00000QA1 0 10209SA1D0 00063RA1 0 00172YA1 0 35017
0359727476949612000071811533+48717-094600FM-15+0330BDE  V0209995C00005220005MN0160005N1+00895+00565102305ADDGF100991999999999999999999KA1999M+01001KA2999N+00831MA1102245999999MD1510001+9999MW1001REMMET090KBDE 181153Z AUTO 00000KT 10SM CLR 09/06 A3019 RMK AO2 SLP230 T00890056 10100 20083 55000;EQDQ01+000000PRSWM2N01 00000JPWTH 0QNNAA1D0 00000BA1 0 00000GA1U0 99999KA1D0 00042JA1 0 00056LA1 0 01000CA1 0 03019NA1 0 00000QA1 0 10230SA1D0 00048RA1 0 00089YA1 0 00000
0345727476949612000071817533+48717-094600FM-15+0330BDE  V0209995V00215220005MN0160005N1+01785+00615102205ADDGF100991999999999999999999KA1999M+01781KA2999N+00891MA1102175999999MW1001REMMET090KBDE 181753Z AUTO VRB04KT 10SM CLR 18/06 A3017 RMK AO2 SLP220 6//// T01780061 10178 20089;EQDQ01+000000PRSWM2N01 00000JPWTH 0QNNAA1D0 00000BA1 0 00000GA1U0 99999KA1D0 00043JA1 0 00061LA1 0 01000CA1 0 03017NA1 0 00000QA1 0 10220SA1D0 00064RA1 0 00178YA1 0 00004
0393727476949612000072311533+48717-094600FM-15+0330BDE  V0202205N00265220005MN0160005N1+01395+01175102065ADDAA106000391AA224000391GF100991999999999999999999KA1999M+01391KA2999N+01111MA1102075999999MD1110041+9999MW1001REMMET102KBDE 231153Z AUTO 22005KT 10SM CLR 14/12 A3014 RMK AO2 SLP206 60001 70001 T01390117 10139 20111 51004;EQDQ01+000000PRSWM2N01 00000JPWTH 0QNNAA1D0 00000BA1 0 00000GA1U0 99999KA1D0 00053JA1 0 00117LA1 0 01000CA1 0 03014NA1 0 00000QA1 0 10206SA1D0 00057RA1 0 00139YA1 0 22005
0359727476949612000072623533+48717-094600FM-15+0330BDE  V0203405N00365220005MN0160005N1+02675+01725101335ADDGF100991999999999999999999KA1999M+02781KA2999N+02611MA1101355999999MD1010011+9999MW1001REMMET090KBDE 262353Z AUTO 34007KT 10SM CLR 27/17 A2993 RMK AO2 SLP133 T02670172 10278 20261 50001;EQDQ01+000000PRSWM2N01 00000JPWTH 0QNNAA1D0 00000BA1 0 00000GA1U0 99999KA1D0 00063JA1 0 00172LA1 0 01000CA1 0 02993NA1 0 00000QA1 0 10133SA1D0 00080RA1 0 00267YA1 0 34007
0359727476949612000073117533+48717-094600FM-15+0330BDE  V0201705N00315220005MN0160005N1+02615+01675101305ADDGF100991999999999999999999KA1999M+02671KA2999N+01721MA1101325999999MD1310021+9999MW1001REMMET090KBDE 311753Z AUTO 17006KT 10SM CLR 26/17 A2992 RMK AO2 SLP130 T02610167 10267 20172 53002;EQDQ01+000000PRSWM2N01 00000JPWTH 0QNNAA1D0 00000BA1 0 00000GA1U0 99999KA1D0 00062JA1 0 00167LA1 0 01000CA1 0 02992NA1 0 00000QA1 0 10130SA1D0 00079RA1 0 00261YA1 0 17006
0301727476949612000080215533+48717-094600FM-15+0330BDE  V0200305N00265220005MN0160005N1+02115+01395101805ADDGF100991999999999999999999MA1101835999999MW1001REMMET072KBDE 021553Z AUTO 03005KT 10SM CLR 21/14 A3007 RMK AO2 SLP180 T02110139;EQDQ01+000000PRSWM2N01 00000JPWTH 0QNNAA1D0 00000BA1 0 00000GA1U0 99999KA1D0 00057JA1 0 00139LA1 0 01000CA1 0 03007NA1 0 00000QA1 0 10180SA1D0 00070RA1 0 00211YA1 0 03005
0339727476949612000080508533+48717-094600FM-15+0330BDE  V0201805N00315220005MN0160005N1+01945+01835100775ADDGD12995+0088459GF104991999999999999999999MA1100815999999MD1610261+9999MW1001REMMET081KBDE 050853Z AUTO 18006KT 10SM SCT029 19/18 A2977 RMK AO2 SLP077 T01940183 56026;EQDQ01+000000PRSWM2N01 00000JPWTH 0QNNAA1D0 02029BA1 0 02029GA1U0 99999KA1D0 00065JA1 0 00183LA1 0 01000CA1 0 02977NA1 0 00000QA1 0 10077SA1D0 00067RA1 0 00194YA1 0 18006
0321727476949612000080802533+48717-094600FM-15+0330BDE  V0200805N00415220005MN0160005N1+01675+01335101035ADDGF100991999999999999999999MA1101025999999MD1810081+9999MW1001REMMET078KBDE 080253Z AUTO 08008KT 10SM CLR 17/13 A2983 RMK AO2 SLP103 T01670133 58008;EQDQ01+000000PRSWM2N01 00000JPWTH 0QNNAA1D0 00000BA1 0 00000GA1U0 99999KA1D0 00056JA1 0 00133LA1 0 01000CA1 0 02983NA1 0 00000QA1 0 10103SA1D0 00062RA1 0 00167YA1 0 08008
0486727476949612000080813533+48717-094600FM-15+0330BDE  V0200305N00265018295MN0160005N1+01395+01335100905ADDAA101004391GD12995+0125059GD23995+0182959GD34995+0289659GF108991999999999999999999MA1100885999999MW1615MW2801MW3955REMMET129KBDE 081353Z AUTO 03005KT 10SM -TSRA SCT041 BKN060 OVC095 14/13 A2979 RMK AO2 LTG DSNT ALQDS TSB1257RAB20 SLP090 P0017 T01390133;EQDQ01+000003PRSWM1Q02    003PRSWM1N01 01020JPWTH 0QNNAA1D0 02041BA1 0 02041AA1D0 04060BA1 0 04060AA1D0 06095BA1 0 06095GA1 0 00060KA1D0 00056JA1 0 00133LA1 0 01000CA1 0 02979NA1 0 01020QA1 0 10090SA1D0 00057RA1 0 00139YA1 0 03005
0414727476949612000080814533+48717-094600FM-15+0330BDE  V0201305N00575014635MN0160005N1+01445+01395100805ADDAA101000391AA203004691GD14995+0146359GF108991999999999999999999MA1100785999999MD1810031+9999MW1001OC100821REMMET126KBDE 081453Z AUTO 13011G16KT 10SM OVC048 14/14 A2976 RMK AO2 LTG DSNT NE AND SE TSE47RAE38 SLP080 P0001 60018 T01440139 58003;EQDQ01+000000PRSWM2N01 00000JPWTH 0QNNAA1D0 06048BA1 0 06048GA1 0 00048KA1D0 00057JA1 0 00139LA1 0 01000CA1 0 02976NA1 0 00000QA1 0 10080SA1D0 00058RA1 0 00144YA1 0 13011
0301727476949612000081122533+48717-094600FM-15+0330BDE  V0201605N00525220005MN0160005N1+02895+01945101265ADDGF100991999999999999999999MA1101295999999MW1001REMMET072KBDE 112253Z AUTO 16010KT 10SM CLR 29/19 A2991 RMK AO2 SLP126 T02890194;EQDQ01+000000PRSWM2N01 00000JPWTH 0QNNAA1D0 00000BA1 0 00000GA1U0 99999KA1D0 00067JA1 0 00194LA1 0 01000CA1 0 02991NA1 0 00000QA1 0 10126SA1D0 00084RA1 0 00289YA1 0 16010
0369727476949612000081805533+48717-094600FM-15+0330BDE  V0203405N00415220005MN0160005N1+01505+01115102125ADDGF100991999999999999999999KA1999M+01941KA2999N+01441MA1102105999999MD1310101+9999MW1001REMMET100KBDE 180553Z AUTO 34008KT 10SM CLR 15/11 A3015 RMK AO2 SLP212 T01500111 10194 20144 402110133 53010;EQDQ01+000000PRSWM2N01 00000JPWTH 0QNNAA1D0 00000BA1 0 00000GA1U0 99999KA1D0 00052JA1 0 00111LA1 0 01000CA1 0 03015NA1 0 00000QA1 0 10212SA1D0 00059RA1 0 00150YA1 0 34008
0321727476949612000082208533+48717-094600FM-15+0330BDE  V0202205N00265220005MN0160005N1+01005+00895101875ADDGF100991999999999999999999MA1101865999999MD1110041+9999MW1001REMMET078KBDE 220853Z AUTO 22005KT 10SM CLR 10/09 A3008 RMK AO2 SLP187 T01000089 51004;EQDQ01+000000PRSWM2N01 00000JPWTH 0QNNAA1D0 00000BA1 0 00000GA1U0 99999KA1D0 00048JA1 0 00089LA1 0 01000CA1 0 03008NA1 0 00000QA1 0 10187SA1D0 00050RA1 0 00100YA1 0 22005
0335727476949612000083013533+48717-094600FM-15+0330BDE  V0201705N00315024385MN0160005N1+01675+00945101375ADDGD13995+0243859GF107991999999999999999999MA1101355999999MW1001REMMET075KBDE 301353Z AUTO 17006KT 10SM BKN080 17/09 A2993 RMK AO2 SLP137 T01670094;EQDQ01+000000PRSWM2N01 00000JPWTH 0P01 999993SCOCIGQNNAA1D0 04080BA1 0 04080GA1 0 00800KA1D0 00049JA1 0 00094LA1 0 01000CA1 0 02993NA1 0 00000QA1 0 10137SA1D0 00062RA1 0 00167YA1 0 17006
0339727476949612000090320533+48717-094600FM-15+0330BDE  V0201005N00415006715MN0160005N1+01395+01005102105ADDGD14995+0067159GF108991999999999999999999MA1102035999999MD1110031+9999MW1001REMMET081KBDE 032053Z AUTO 10008KT 10SM OVC022 14/10 A3013 RMK AO2 SLP210 T01390100 51003;EQDQ01+000000PRSWM2N01 00000JPWTH 0QNNAA1D0 06022BA1 0 06022GA1 0 00022KA1D0 00050JA1 0 00100LA1 0 01000CA1 0 03013NA1 0 00000QA1 0 10210SA1D0 00057RA1 0 00139YA1 0 10008
0320727476949612000090703533+48717-094600FM-15+0330BDE  V0201605N00465220005MN0160005N1+01615+01285100705ADDGF100991999999999999999999MA1100685999999MW1001OC100821REMMET083KBDE 070353Z AUTO 16009G16KT 130V200 10SM CLR 16/13 A2973 RMK AO2 SLP070 T01610128;EQDQ01+000000PRSWM2N01 00000JPWTH 0QNNAA1D0 00000BA1 0 00000GA1U0 99999KA1D0 00055JA1 0 00128LA1 0 01000CA1 0 02973NA1 0 00000QA1 0 10070SA1D0 00061RA1 0 00161YA1 0 16009
0407727476949612000090707533+48717-094600FM-15+0330BDE  V0202305N00675006105MN0160005N1+01785+01335100435ADDGD13995+0061059GD23995+0076259GD34995+0097559GF108991999999999999999999MA1100445999999MW1001REMMET089KBDE 070753Z AUTO 23013KT 10SM BKN020 BKN025 OVC032 18/13 A2966 RMK AO2 SLP043 T01780133;EQDQ01+000000PRSWM2N01 00000JPWTH 0QNNAA1D0 04020BA1 0 04020AA1D0 04025BA1 0 04025AA1D0 06032BA1 0 06032GA1 0 00020KA1D0 00056JA1 0 00133LA1 0 01000CA1 0 02966NA1 0 00000QA1 0 10043SA1D0 00064RA1 0 00178YA1 0 23013
0484727476949612000090717533+48717-094600FM-15+0330BDE  V0202905N00465016765MN0160005N1+01615+00945100955ADDGD11995+0091459GD23995+0167659GD34995+0198159GF108991999999999999999999KA1999M+01671KA2999N+01441MA1100955999999MD1110091+9999MW1001OC100931REMMET118KBDE 071753Z AUTO 29009G18KT 250V320 10SM FEW030 BKN055 OVC065 16/09 A2981 RMK AO2 SLP095 T01610094 10167 20144 51009;EQDQ01+000000PRSWM2N01 00000JPWTH 0QNNAA1D0 02030BA1 0 01030AA1D0 04055BA1 0 04055AA1D0 06065BA1 0 06065GA1 0 00055KA1D0 00049JA1 0 00094LA1 0 01000CA1 0 02981NA1 0 00000QA1 0 10095SA1D0 00061RA1 0 00161YA1 0 29009
0321727476949612000091000533+48717-094600FM-15+0330BDE  V0202505N00885220005MN0160005N1+02335+01335099395ADDGF100991999999999999999999MA1099425999999MW1001OC101081REMMET084KBDE 100053Z AUTO 25017G21KT 10SM CLR 23/13 A2936 RMK AO2 PRESRR SLP939 T02330133 $;EQDQ01+000000PRSWM2N01 00000JPWTH 0QNNAA1D0 00000BA1 0 00000GA1U0 99999KA1D0 00056JA1 0 00133LA1 0 01000CA1 0 02936NA1 0 00000QA1 0 09939SA1D0 00074RA1 0 00233YA1 0 25017
0323727476949612000091008533+48717-094600FM-15+0330BDE  V0202305N00725220005MN0160005N1+01115+00675100435ADDGF100991999999999999999999MA1100445999999MD1110181+9999MW1001REMMET080KBDE 100853Z AUTO 23014KT 10SM CLR 11/07 A2966 RMK AO2 SLP043 T01110067 51018 $;EQDQ01+000000PRSWM2N01 00000JPWTH 0QNNAA1D0 00000BA1 0 00000GA1U0 99999KA1D0 00044JA1 0 00067LA1 0 01000CA1 0 02966NA1 0 00000QA1 0 10043SA1D0 00052RA1 0 00111YA1 0 23014
0301727476949612000091309533+48717-094600FM-15+0330BDE  V0202705N00215220005MN0160005N1+00835+00505100945ADDGF100991999999999999999999MA1100915999999MW1001REMMET072KBDE 130953Z AUTO 27004KT 10SM CLR 08/05 A2980 RMK AO2 SLP094 T00830050;EQDQ01+000000PRSWM2N01 00000JPWTH 0QNNAA1D0 00000BA1 0 00000GA1U0 99999KA1D0 00041JA1 0 00050LA1 0 01000CA1 0 02980NA1 0 00000QA1 0 10094SA1D0 00047RA1 0 00083YA1 0 27004
0359727476949612000091723533+48717-094600FM-15+0330BDE  V0209995C00005220005MN0160005N1+01785+00835101015ADDGF100991999999999999999999KA1999M+02281KA2999N+01781MA1100955999999MD1610291+9999MW1001REMMET090KBDE 172353Z AUTO 00000KT 10SM CLR 18/08 A2981 RMK AO2 SLP101 T01780083 10228 20178 56029;EQDQ01+000000PRSWM2N01 00000JPWTH 0QNNAA1D0 00000BA1 0 00000GA1U0 99999KA1D0 00047JA1 0 00083LA1 0 01000CA1 0 02981NA1 0 00000QA1 0 10101SA1D0 00064RA1 0 00178YA1 0 00000
0370727476949612000092505533+48717-094600FM-15+0330BDE  V0209995V00155220005MN0160005N1+00005-00065102165ADDGF100991999999999999999999KA1999M+01171KA2999N+00001MA1102035999999MD1110061+9999MW1001REMMET101KBDE 250553Z AUTO VRB03KT 10SM CLR 00/M01 A3013 RMK AO2 SLP216 T00001006 10117 20000 401331022 51006;EQDQ01+000000PRSWM2N01 00000JPWTH 0QNNAA1D0 00000BA1 0 00000GA1U0 99999KA1D0 00031JA1 0-00006LA1 0 01000CA1 0 03013NA1 0 00000QA1 0 10216SA1D0 00032RA1 0 00000YA1 0 00003
0310727476949612000100102533+48717-094600FM-15+0330BDE  V0202305N00315220005MN0160005N1+01225+00725100011ADDGF100991999999999999999999MA1099975999999MD1110041+9999MW1001REMMET078KBDE 010253Z AUTO 23006KT 10SM CLR 12/07 A2952 RMK AO2 SLP001 T01220072 51004;EQDQ01+000000PRSWM2N01 00000JPWTH 0QNNAA1D0 00000BA1 0 00000GA1U0 99999KA1D0 00045JA1 0 00072LA1 0 01000CA1 0 02952NA1 0 00000SA1D0 00054RA1 0 00122YA1 0 23006
0301727476949612000100110533+48717-094600FM-15+0330BDE  V0201905N00155220005MN0160005N1+00785+00615099805ADDGF100991999999999999999999MA1099805999999MW1001REMMET072KBDE 011053Z AUTO 19003KT 10SM CLR 08/06 A2947 RMK AO2 SLP980 T00780061;EQDQ01+000000PRSWM2N01 00000JPWTH 0QNNAA1D0 00000BA1 0 00000GA1U0 99999KA1D0 00043JA1 0 00061LA1 0 01000CA1 0 02947NA1 0 00000QA1 0 09980SA1D0 00046RA1 0 00078YA1 0 19003
0505727476949612000100123533+48717-094600FM-15+0330BDE  V0203105N00415019815MN0160005N1+00945+00835100295ADDAA101000391AA206007991GD11995+0045759GD23995+0198159GD34995+0243859GF108991999999999999999999KA1999M+01391KA2999N+00941MA1100245999999MD1110241+9999MW1001REMMET125KBDE 012353Z AUTO 31008KT 10SM FEW015 BKN065 OVC080 09/08 A2960 RMK AO2 RAE47 SLP029 P0001 60031 T00940083 10139 20094 51024;EQDQ01+000000PRSWM2N01 00000JPWTH 0QNNAA1D0 02015BA1 0 01015AA1D0 04065BA1 0 04065AA1D0 06080BA1 0 06080GA1 0 00065KA1D0 00047JA1 0 00083LA1 0 01000CA1 0 02960NA1 0 00000QA1 0 10029SA1D0 00049RA1 0 00094YA1 0 31008
0338727476949612000100202533+48717-094600FM-15+0330BDE  V0202905N00315220005MN0160005N1+00725+00565100465ADDAA103000021GF100991999999999999999999MA1100415999999MD1110181+9999MW1001REMMET084KBDE 020253Z AUTO 29006KT 10SM CLR 07/06 A2965 RMK AO2 SLP046 60000 T00720056 51018;EQDQ01+000000PRSWM2N01 00000JPWTH 0QNNAA1D0 00000BA1 0 00000GA1U0 99999KA1D0 00042JA1 0 00056LA1 0 01000CA1 0 02965NA1 0 00000QA1 0 10046SA1D0 00045RA1 0 00072YA1 0 29006
0371727476949612000100512533+48717-094600FM-15+0330BDE  V0200505N00155000915MN0008005N1+00005+00005102055ADDAA101000021GD14995+0009159GF108991999999999999999999MA1101905999999MW1441MW2455MW3735REMMET088KBDE 051253Z AUTO 05003KT 1/2SM SN FG OVC003 00/00 A3009 RMK AO2 SLP205 P0000 T00000000;EQDQ01+000003PRSWM1Q02    003PRSWM1N01 04170JPWTH 0QNNAA1D0 06003BA1 0 06003GA1 0 00003KA1D0 00032JA1 0 00000LA1 0 00050CA1 0 03009NA1 0 04170QA1 0 10205SA1D0 00032RA1 0 00000YA1 0 05003
0373727476949612000100701533+48717-094600FM-15+0330BDE  V0200305N00675010065MN0112005N1+00065-00285103205ADDAA101000021GD14995+0100659GF108991999999999999999999MA1103055999999MW1715OC100931REMMET094KBDE 070153Z AUTO 03013G18KT 7SM -SN OVC033 01/M03 A3043 RMK AO2 SNB22 SLP320 P0000 T00061028;EQDQ01+000003PRSWM1Q02    003PRSWM1N01 00040JPWTH 0QNNAA1D0 06033BA1 0 06033GA1 0 00033KA1D0 00027JA1 0-00028LA1 0 00700CA1 0 03043NA1 0 00040QA1 0 10320SA1D0 00033RA1 0 00006YA1 0 03013
0337727476949612000100715533+48717-094600FM-15+0330BDE  V0200105N00215010975MN0160005N1+00065-00395103915ADDAA101000891GD14995+0109759GF108991999999999999999999MA1103735999999MW1001REMMET082KBDE 071553Z AUTO 01004KT 10SM OVC036 01/M04 A3063 RMK AO2 SLP391 P0003 T00061039;EQDQ01+000000PRSWM2N01 00000JPWTH 0QNNAA1D0 06036BA1 0 06036GA1 0 00036KA1D0 00025JA1 0-00039LA1 0 01000CA1 0 03063NA1 0 00000QA1 0 10391SA1D0 00033RA1 0 00006YA1 0 01004
0342727476949612000101502533+48717-094600FM-15+0330BDE  V0209995C00005013415MN0160005N1+00335-00065102135ADDGD13995+0134159GF107991999999999999999999MA1102005999999MD1110101+9999MW1001REMMET084KBDE 150253Z AUTO 00000KT 10SM BKN044 03/M01 A3012 RMK AO2 SLP213 T00331006 51010 $;EQDQ01+000000PRSWM2N01 00000JPWTH 0QNNAA1D0 04044BA1 0 04044GA1 0 00044KA1D0 00031JA1 0-00006LA1 0 01000CA1 0 03012NA1 0 00000QA1 0 10213SA1D0 00038RA1 0 00033YA1 0 00000
0304727476949612000101610533+48717-094600FM-15+0330BDE  V0201205N00215220005MN0112005N1-00175-00175102165ADDGF100991999999999999999999MA1102035999999MW1001REMMET075KBDE 161053Z AUTO 12004KT 7SM CLR M02/M02 A3013 RMK AO2 SLP216 T10171017 $;EQDQ01+000000PRSWM2N01 00000JPWTH 0QNNAA1D0 00000BA1 0 00000GA1U0 99999KA1D0 00029JA1 0-00017LA1 0 00700CA1 0 03013NA1 0 00000QA1 0 10216SA1D0 00029RA1 0-00017YA1 0 12004
0305727476949612000102107533+48717-094600FM-15+0330BDE  V0209995C00005220005MN0160005N1-00225-00285102195ADDGF100991999999999999999999MA1102075999999MW1001REMMET076KBDE 210753Z AUTO 00000KT 10SM CLR M02/M03 A3014 RMK AO2 SLP219 T10221028 $;EQDQ01+000000PRSWM2N01 00000JPWTH 0QNNAA1D0 00000BA1 0 00000GA1U0 99999KA1D0 00027JA1 0-00028LA1 0 01000CA1 0 03014NA1 0 00000QA1 0 10219SA1D0 00028RA1 0-00022YA1 0 00000
0374727476949612000102219533+48717-094600FM-15+0330BDE  V0202005N00935015245MN0160005N1+01835+01005102105ADDGD12995+0131159GD23995+0152459GF107991999999999999999999MA1102035999999MW1001OC101131REMMET085KBDE 221953Z AUTO 20018G22KT 10SM SCT043 BKN050 18/10 A3013 RMK AO2 SLP210 T01830100;EQDQ01+000000PRSWM2N01 00000JPWTH 0QNNAA1D0 02043BA1 0 02043AA1D0 04050BA1 0 04050GA1 0 00050KA1D0 00050JA1 0 00100LA1 0 01000CA1 0 03013NA1 0 00000QA1 0 10210SA1D0 00065RA1 0 00183YA1 0 20018
0422727476949612000102621533+48717-094600FM-15+0330BDE  V0200105N00725003055MN0128005N1+00945+00895100765ADDAA101001391GD13995+0030559GD24995+0048859GF108991999999999999999999MA1100715999999MW1615OC100931REMMET106KBDE 262153Z AUTO 01014G18KT 8SM -RA BKN010 OVC016 09/09 A2974 RMK AO2 CIG 007V013 SLP076 P0005 T00940089;EQDQ01+000003PRSWM1Q02    003PRSWM1N01 00020JPWTH 0QNNAA1D0 04010BA1 0 04010AA1D0 06016BA1 0 06016GA1 0 00010KA1D0 00048JA1 0 00089LA1 0 00800CA1 0 02974NA1 0 00020QA1 0 10076SA1D0 00049RA1 0 00094YA1 0 01014
0196727476949612000111109384+48730-094610FM-15+0330KBDE V0209999C000010060019N0144841N1-00301-00401999999ADDGD12991+0021099GD23991+0060099GD34991+0090099GF108991999999999999999999MA1102541999999MW1001REMMET073KBDE 110938Z AUTO 00000KT 9SM SCT007 BKN020 OVC030 M03/M04 A3028 RMK AO2;EQDQ01+000000PRSWM2
0349727476949612000111601533+48717-094600FM-15+0330BDE  V0203405N00365008845MN0160005N1-00395-00835100845ADDAA101000021GD14995+0088459GF108991999999999999999999MA1100645999999MW1001REMMET094KBDE 160153Z AUTO 34007KT 10SM OVC029 M04/M08 A2972 RMK AO2 SNB0058E11 SLP084 P0000 T10391083;EQDQ01+000000PRSWM2N01 00000JPWTH 0QNNAA1D0 06029BA1 0 06029GA1 0 00029KA1D0 00017JA1 0-00083LA1 0 01000CA1 0 02972NA1 0 00000QA1 0 10084SA1D0 00025RA1 0-00039YA1 0 34007
0175727476949612000111608374+48730-094610FM-15+0330KBDE V0203601N003110081019N0160931N1-00601-00901999999ADDGD13991+0081099GD24991+0150099GF108991999999999999999999MA1100811999999MW1001REMMET067KBDE 160837Z AUTO 36006KT 10SM BKN027 OVC050 M06/M09 A2977 RMK AO2;EQDQ01+000000PRSWM2
0321727476949612000111815533+48717-094600FM-15+0330BDE  V0202505N00365010065MN0160005N1-00895-01115101275ADDGD14995+0100659GF108991999999999999999999MA1101055999999MW1001REMMET077KBDE 181553Z AUTO 25007KT 10SM OVC033 M09/M11 A2984 RMK AO2 SLP127 T10891111;EQDQ01+000000PRSWM2N01 00000JPWTH 0QNNAA1D0 06033BA1 0 06033GA1 0 00033KA1D0 00012JA1 0-00111LA1 0 01000CA1 0 02984NA1 0 00000QA1 0 10127SA1D0 00016RA1 0-00089YA1 0 25007
0365727476949612000112306533+48717-094600FM-15+0330BDE  V0202105N00315006715MN0160005N1-00565-00895101915ADDGD13995+0067159GD24995+0146359GF108991999999999999999999MA1101695999999MW1001REMMET084KBDE 230653Z AUTO 21006KT 10SM BKN022 OVC048 M06/M09 A3003 RMK AO2 SLP191 T10561089;EQDQ01+000000PRSWM2N01 00000JPWTH 0QNNAA1D0 04022BA1 0 04022AA1D0 06048BA1 0 06048GA1 0 00022KA1D0 00016JA1 0-00089LA1 0 01000CA1 0 03003NA1 0 00000QA1 0 10191SA1D0 00022RA1 0-00056YA1 0 21006
0236727476949612000112714005+48717-094600FM-15+0330BDE  V0209995C00005006715MN002800599-00395-00445100785ADDGD11995+0039659GD24995+0067159MA1100585999999MW1455MW2715EQDN01 04070JPWTH 0QNNAA1D0 02013BA1 0 01013AA1D0 06022BA1 0 06022GA1 0 00022KA1D0 00024JA1 0-00044LA1 0 00175CA1 0 02970NA1 0 04070QA1 0 10078SA1D0 00025RA1 0-00039YA1 0 00000
0170727476949612000120203414+48730-094610FM-15+0330KBDE V0209999C00001000151CN0016091N1-01401-01601999999ADDGD15991+0001599GF109991999999000251999999MA1103791999999MW1101REMMET061KBDE 020341Z AUTO 00000KT 1SM BR VV001 M14/M16 A3065 RMK AO2;EQDQ01+000003PRSWM1Q02    003PRSWM1
0272727476949612000120415464+48730-094610FM-15+0330KBDE V0203201N009310057019N0040231N1-00701-01101999999ADDAA101000021GD13991+0057099GD23991+0078099GD34991+0108099GF108991999999999999999999MA1101631999999MW1711OC101291REMMET114KBDE 041546Z AUTO 32018G25KT 2 1/2SM -SN BKN019 BKN026 OVC036 M07/M11 A3001 RMK AO2 PK WND 33026/1454 SNB02 P0000;EQDQ01+000003PRSWM1Q02    003PRSWM1
0303727476949612000121010533+48717-094600FM-15+0330BDE  V0209995V00215220005MN0160005N1-03175-03445102865ADDGF100991999999999999999999MA1102445999999MW1001REMMET074KBDE 101053Z AUTO VRB04KT 10SM CLR M32/M34 A3025 RMK AO2 SLP286 T13171344;EQDQ01+000000PRSWM2N01 00000JPWTH 0QNNAA1D0 00000BA1 0 00000GA1U0 99999KA1D0-00030JA1 0-00344LA1 0 01000CA1 0 03025NA1 0 00000QA1 0 10286SA1D0-00025RA1 0-00317YA1 0 00004
0303727476949612000121021533+48717-094600FM-15+0330BDE  V0209995V00265220005MN0160005N1-02395-02945102825ADDGF100991999999999999999999MA1102375999999MW1001REMMET074KBDE 102153Z AUTO VRB05KT 10SM CLR M24/M29 A3023 RMK AO2 SLP282 T12391294;EQDQ01+000000PRSWM2N01 00000JPWTH 0QNNAA1D0 00000BA1 0 00000GA1U0 99999KA1D0-00021JA1 0-00294LA1 0 01000CA1 0 03023NA1 0 00000QA1 0 10282SA1D0-00011RA1 0-00239YA1 0 00005
0321727476949612000121109533+48717-094600FM-15+0330BDE  V0202805N00155006105MN0160005N1-02835-03115102975ADDGD14995+0061059GF108991999999999999999999MA1102545999999MW1001REMMET077KBDE 110953Z AUTO 28003KT 10SM OVC020 M28/M31 A3028 RMK AO2 SLP297 T12831311;EQDQ01+000000PRSWM2N01 00000JPWTH 0QNNAA1D0 06020BA1 0 06020GA1 0 00020KA1D0-00024JA1 0-00311LA1 0 01000CA1 0 03028NA1 0 00000QA1 0 10297SA1D0-00019RA1 0-00283YA1 0 28003
0361727476949612000121311533+48717-094600FM-15+0330BDE  V0209995C00005220005MN0160005N1-02835-03175102695ADDGF100991999999999999999999KA1999M-02561KA2999N-02941MA1102275999999MD1110021+9999MW1001REMMET092KBDE 131153Z AUTO 00000KT 10SM CLR M28/M32 A3020 RMK AO2 SLP269 T12831317 11256 21294 51002;EQDQ01+000000PRSWM2N01 00000JPWTH 0QNNAA1D0 00000BA1 0 00000GA1U0 99999KA1D0-00025JA1 0-00317LA1 0 01000CA1 0 03020NA1 0 00000QA1 0 10269SA1D0-00019RA1 0-00283YA1 0 00000
0406727476949612000121818533+48717-094600FM-15+0330BDE  V0203605N00365007625MN0080005N1-01615-01945102515ADDAA101000021GD13995+0076259GD24995+0103659GF108991999999999999999999MA1102175999999MW1055REMMET098KBDE 181853Z AUTO 36007KT 5SM HZ BKN025 OVC034 M16/M19 A3017 RMK AO2 SNE21 SLP251 P0000 T11611194;EQDQ01+000003PRSWM1Q02    003PRSWM1N01 00081JPWTH 0QNNAA1D0 04025BA1 0 04025AA1D0 06034BA1 0 06034GA1 0 00025KA1D0-00003JA1 0-00194LA1 0 00500CA1 0 03017NA1 0 00081QA1 0 10251SA1D0 00003RA1 0-00161YA1 0 36007
0376727476949612000121820533+48717-094600FM-15+0330BDE  V0200105N00525004885MN0096005N1-01615-01895102585ADDAA103000021GD14995+0048859GF108991999999999999999999MA1102275999999MD1310081+9999MW1055REMMET091KBDE 182053Z AUTO 01010KT 6SM HZ OVC016 M16/M19 A3020 RMK AO2 SLP258 60000 T11611189 53008;EQDQ01+000003PRSWM1Q02    003PRSWM1N01 00081JPWTH 0QNNAA1D0 06016BA1 0 06016GA1 0 00016KA1D0-00002JA1 0-00189LA1 0 00600CA1 0 03020NA1 0 00081QA1 0 10258SA1D0 00003RA1 0-00161YA1 0 01010
0199727476949612000122022005+48717-094600FM-15+0330BDE  V0200205N00365005495MN002000599-01395-01615101135ADDGD14995+0054959MA1100855999999MW1455MW2715EQDN01 04070JPWTH 0QNNAA1D0 06018BA1 0 06018GA1 0 00018KA1D0 00003JA1 0-00161LA1 0 00125CA1 0 02978NA1 0 04070QA1 0 10113SA1D0 00007RA1 0-00139YA1 0 02007
0321727476949612000123015533+48717-094600FM-15+0330BDE  V0203505N00265010675MN0160005N1-01785-01945103165ADDGD14995+0106759GF108991999999999999999999MA1102815999999MW1001REMMET077KBDE 301553Z AUTO 35005KT 10SM OVC035 M18/M19 A3036 RMK AO2 SLP316 T11781194;EQDQ01+000000PRSWM2N01 00000JPWTH 0QNNAA1D0 06035BA1 0 06035GA1 0 00035KA1D0-00003JA1 0-00194LA1 0 01000CA1 0 03036NA1 0 00000QA1 0 10316SA1D0 00000RA1 0-00178YA1 0 35005
0054727477999992000010511009+48850-095700NSRDB+032399999V020999999999999999999999999999+99999+99999999999ADDGP10060000002000000002000000002000GR100600000900009
