0054724210938142000010607009+39050-084667NSRDB+026599999V020999999999999999999999999999+99999+99999999999ADDGP10060000002000000002000000002000GR100600000900009
0222724210938142000011123514+39050-084670FM-16+0267KCVG V0202501N002110750019N0160931N1+00301-00601101931ADDGD13991+0750019GF107991999999999999999999KA1999M+00671KA2999N+00061MA1101901999999MD1310261+9999MW1001REMMET089KCVG 112351Z 25004KT 10SM BKN250 03/M06 A3009 RMK AO2 SLP193 T00281056 10067 20006 53026;EQDQ01+000000PRSWM2
0054724210938142000011309009+39050-084667NSRDB+026599999V020999999999999999999999999999+99999+99999999999ADDGP10060000002000000002000000002000GR100600000900009
036272421093814200001131251C+39050-084667FM-15+0265CVG  V0202905N01135220005MN0160005N1+00175-00225101785ADDAA101000095GD12995+0082359GF104991999999999999999999MA1101765999999MW1001OC101391REMMET099KCVG 131251Z 29022G27KT 10SM SCT027 02/M02 A3005 RMK AO2 PK WND 29027/1208 PRESRR SLP178 T00171022;EQDQ01+000000PRSWM2N01 00000JPWTH 0QNNAA1D0 02027BA1 0 02027GA1U0 99999KA1D0 00028JA1 0-00022LA1 0 01000CA1 0 03005NA1 0 00000QA1 0 10178SA1D0 00035RA1 0 00017YA1 0 29022
037172421093814200001170951C+39050-084667FM-15+0265CVG  V0200605N00575076205MN0160005N1-00615-01285103665ADDAA101000095GD12995+0396259GD24995+0762059GF108991999999999999999999MA1103595999999MW1001REMMET079KCVG 170951Z 06011KT 10SM SCT130 OVC250 M06/M13 A3059 RMK AO2 SLP366 T10611128;EQDQ01+000000PRSWM2N01 00000JPWTH 0QNNAA1D0 02130BA1 0 02130AA1D0 06250BA1 0 06250GA1 0 00250KA1D0 00009JA1 0-00128LA1 0 01000CA1 0 03059NA1 0 00000QA1 0 10366SA1D0 00021RA1 0-00061YA1 0 06011
0211724210938142000011813104+39050-084670FM-16+0267KCVG V0209999V002110009019N0028161N1-00501-00501999999ADDGD14991+0009019GF108991999999999999999999MA1101831999999MW1101REMMET102KCVG 181310Z COR VRB04KT 3/4SM BR OVC003 M05/M05 A3007 RMK AO2 SFC VIS 1 SNB1257E07 CIG 003V006 P0000;EQDQ01+000003PRSWM1Q02    003PRSWM1
0197724210938142000011912514+39050-084670FM-15+0267KCVG V0201701N001510750019N0020111N1-00901-01001101991ADDGD13991+0750019GF107991999999999999999999MA1101901999999MW1101REMMET088KCVG 191251Z 17003KT 1SM BR BKN250 M09/M10 A3009 RMK AO2 SFC VIS 1 1/4 SLP199 T10891100;EQDQ01+000003PRSWM1Q02    003PRSWM1
039172421093814200001220851C+39050-084667FM-15+0265CVG  V0200905N00315036585MN0160005N1-01225-01565102295ADDAA101000095GD12995+0274359GD24995+0365859GF108991999999999999999999MA1102175999999MD1010031+9999MW1001REMMET085KCVG 220851Z 09006KT 10SM SCT090 OVC120 M12/M16 A3017 RMK AO2 SLP229 T11221156 50003;EQDQ01+000000PRSWM2N01 00000JPWTH 0QNNAA1D0 02090BA1 0 02090AA1D0 06120BA1 0 06120GA1 0 00120KA1D0 00004JA1 0-00156LA1 0 01000CA1 0 03017NA1 0 00000QA1 0 10229SA1D0 00010RA1 0-00122YA1 0 09006
0054724210938142000012209009+39050-084667NSRDB+026599999V020999999999999999999999999999+99999+99999999999ADDGP10060000002000000002000000002000GR100600000900009
032772421093814200001221351C+39050-084667FM-15+0265CVG  V0201305N00365027435MN0160005N1-01005-01285102185ADDAA101000095GD14995+0274359GF108991999999999999999999MA1102035999999MW1001REMMET072KCVG 221351Z 13007KT 10SM OVC090 M10/M13 A3013 RMK AO2 SLP218 T11001128;EQDQ01+000000PRSWM2N01 00000JPWTH 0QNNAA1D0 06090BA1 0 06090GA1 0 00090KA1D0 00009JA1 0-00128LA1 0 01000CA1 0 03013NA1 0 00000QA1 0 10218SA1D0 00014RA1 0-00100YA1 0 13007
0195724210938142000012520114+39050-084670FM-16+0267KCVG V0203101N004110057019N0032181N1-00701-01001999999ADDGD12991+0042019GD24991+0057019GF108991999999999999999999MA1101121999999MW1711REMMET071KCVG 252011Z 31008KT 2SM -SN SCT014 OVC019 M07/M10 A2986 RMK AO2 P0000;EQDQ01+000003PRSWM1Q02    003PRSWM1
0054724210938142000012607009+39050-084667NSRDB+026599999V020999999999999999999999999999+99999+99999999999ADDGP10060000002000000002000000002000GR100600000900009
0246724210938142000012911514+39050-084670FM-15+0267KCVG V0200901N008710240019N0160931N1-00601-01101103131ADDAJ100059199999999GD14991+0240019GF108991999999999999999999KA1999M-00501KA2999N-00781MA1103011999999MD1810201+9999MW1001REMMET096KCVG 291151Z 09017KT 10SM OVC080 M06/M11 A3042 RMK AO2 SLP313 4/002 T10561111 11050 21078 58020;EQDQ01+000000PRSWM2
0071724210938142000020115009+39050-084667NSRDB+026599999V020999999999999999999999999999+99999+99999999999ADDGP10060025902008051302015011202008GQ100600734912979GR100600401914099
032772421093814200002031051C+39050-084667FM-15+0265CVG  V0202205N00415027435MN0160005N1-00065-00565101295ADDAA101000095GD14995+0274359GF108991999999999999999999MA1101225999999MW1001REMMET072KCVG 031051Z 22008KT 10SM OVC090 M01/M06 A2989 RMK AO2 SLP129 T10061056;EQDQ01+000000PRSWM2N01 00000JPWTH 0QNNAA1D0 06090BA1 0 06090GA1 0 00090KA1D0 00022JA1 0-00056LA1 0 01000CA1 0 02989NA1 0 00000QA1 0 10129SA1D0 00031RA1 0-00006YA1 0 22008
0246724210938142000020311514+39050-084670FM-15+0267KCVG V0202201N003110240019N0160931N1-00101-00601101251ADDAJ100059199999999GD14991+0240019GF108991999999999999999999KA1999M+00001KA2999N-00111MA1101191999999MD1610151+9999MW1001REMMET096KCVG 031151Z 22006KT 10SM OVC080 M01/M06 A2988 RMK AO2 SLP125 4/002 T10061056 10000 21011 56015;EQDQ01+000000PRSWM2
036472421093814200002050851C+39050-084667FM-15+0265CVG  V0203005N00215220005MN0160005N1-00565-00675102605ADDAA101000095AA203000021GD11995+0048859GF102991999999999999999999MA1102515999999MD1110091+9999MW1001REMMET084KCVG 050851Z 30004KT 10SM FEW016 M06/M07 A3027 RMK AO2 SLP260 60000 T10561067 51009;EQDQ01+000000PRSWM2N01 00000JPWTH 0QNNAA1D0 02016BA1 0 01016GA1U0 99999KA1D0 00020JA1 0-00067LA1 0 01000CA1 0 03027NA1 0 00000QA1 0 10260SA1D0 00022RA1 0-00056YA1 0 30004
0245724210938142000020511514+39050-084670FM-15+0267KCVG V0202701N003612200019N0160931N1-00701-00801102761ADDAA106000021AJ100059199999999GF100991999999999999999999KA1999M-00281KA2999N-00891MA1102681999999MD1310171+9999MW1001REMMET099KCVG 051151Z 27007KT 10SM CLR M07/M08 A3032 RMK AO2 SLP276 4/002 60000 T10721078 11028 21089 53017;EQDQ01+000000PRSWM2
034472421093814200002080951C+39050-084667FM-15+0265CVG  V0200705N00415220005MN0040005N1-00285-00395102935ADDAA101000095GF100991999999999999999999MA1102885999999MW1101MW2455REMMET082KCVG 080951Z 07008KT 2 1/2SM BR CLR M03/M04 A3038 RMK AO2 SLP293 VIS E2 T10281039;EQDQ01+000003PRSWM1Q02    003PRSWM1N01 00070JPWTH 0QNNAA1D0 00000BA1 0 00000GA1U0 99999KA1D0 00025JA1 0-00039LA1 0 00250CA1 0 03038NA1 0 00070QA1 0 10293SA1D0 00027RA1 0-00028YA1 0 07008
0201724210938142000021817534+39050-084670FM-16+0267KCVG V0202501N003110021019N0160931N1+00901+00701999999ADDGD13991+0021019GD23991+0129019GD34991+0180019GF108991999999999999999999MA1100911999999MW1001REMMET078KCVG 181753Z COR 25006KT 10SM BKN007 BKN043 OVC065 09/07 A2980 RMK AO2 PRESRR;EQDQ01+000000PRSWM2
032572421093814200002230351C+39050-084667FM-15+0265CVG  V0201905N00465022865MN0160005N1+01115+00175102465ADDAA101000095GD14995+0228659GF108991999999999999999999MA1102475999999MW1001REMMET070KCVG 230351Z 19009KT 10SM OVC075 11/02 A3026 RMK AO2 SLP246 T01110017;EQDQ01+000000PRSWM2N01 00000JPWTH 0QNNAA1D0 06075BA1 0 06075GA1 0 00075KA1D0 00035JA1 0 00017LA1 0 01000CA1 0 03026NA1 0 00000QA1 0 10246SA1D0 00052RA1 0 00111YA1 0 19009
042772421093814200002232351C+39050-084667FM-15+0265CVG  V0201605N00415076205MN0160005N1+01395+00395102235ADDAA101000095GD11995+0365859GD23995+0762059GF107991999999999999999999KA1999M+02001KA2999N+01391MA1102275999999MD1610091+9999MW1001REMMET095KCVG 232351Z 16008KT 10SM FEW120 BKN250 14/04 A3020 RMK AO2 SLP223 T01390039 10200 20139 56009;EQDQ01+000000PRSWM2N01 00000JPWTH 0QNNAA1D0 02120BA1 0 01120AA1D0 04250BA1 0 04250GA1 0 00250KA1D0 00039JA1 0 00039LA1 0 01000CA1 0 03020NA1 0 00000QA1 0 10223SA1D0 00057RA1 0 00139YA1 0 16008
0071724210938142000022413009+39050-084667NSRDB+026599999V020999999999999999999999999999+99999+99999999999ADDGP10060000502008004802015000402008GQ100600866910519GR100600055909199
0481724210938142000022900003+39050-084667SY-MT+0265CVG  V0209999C00005220005MN0160005N1+01005-00565102605ADDAA101000095GA1001+999999999GD10995+9999999GF100991001001999999001001GP10060000002008000002015000002008GQ100600876925809GR100600028906629KA1120M+01331KA2180N-00211MA1102575099341MD1510041+9999REMSYN092AAXX  29004 72421 32966 00000 10100 21056 39934 40260 55004 92351 333 10133 21021 555 92900;EQDQ01  00002PRCP99Q02  00003PRCP99N01 00000JPWTH 0QNNAA1D0 00000BA1 0 00000GA1U0 99999KA1D0 00022JA1 0-00056LA1 0 01000CA1 0 03029NA1 0 00000QA1 0 10260SA1D0 00050RA1 0 00100YA1 0 00000
0071724210938142000030223009+39050-084667NSRDB+026599999V020999999999999999999999999999+99999+99999999999ADDGP10060014302008046702015005302008GQ100600789925179GR100600267913929
0071724210938142000030620009+39050-084667NSRDB+026599999V020999999999999999999999999999+99999+99999999999ADDGP10060064102008078602015013602008GQ100600502921329GR100600889913899
0243724210938142000030823514+39050-084670FM-15+0267KCVG V0201901N005110750019N0160931N1+02201+00801101081ADDGD12991+0390019GD23991+0750019GF107991999999999999999999KA1999M+02501KA2999N+02171MA1101151999999MD1610181+9999MW1001REMMET095KCVG 082351Z 19010KT 10SM FEW130 BKN250 22/08 A2987 RMK AO2 SLP108 T02170078 10250 20217 56018;EQDQ01+000000PRSWM2
0502724210938142000031018003+39050-084667SY-MT+0265CVG  V0200205N00365220005MN0160005N1+00945+00115101955ADDAA101000095GD11995+0097559GD22995+0243859GF104991999999008001999999GP10060076302008086002015013502008GQ100600432917329GR100601010913869KA1120M+01001KA2240N+00111MA1101935098711MD1810121+9999REMSYN092AAXX  10184 72421 32566 40207 10094 20011 39871 40195 58012 91751 333 10100 20011 555 91018;EQDQ01  00002PRCP99Q02  00003PRCP99N01 00000JPWTH 0QNNAA1D0 02032BA1 0 01032AA1D0 02080BA1 0 02080GA1U0 99999KA1D0 00034JA1 0 00011LA1 0 01000CA1 0 03010NA1 0 00000QA1 0 10195SA1D0 00049RA1 0 00094YA1 0 02007
0054724210938142000031103009+39050-084667NSRDB+026599999V020999999999999999999999999999+99999+99999999999ADDGP10060000002000000002000000002000GR100600000900009
044572421093814200003111351C+39050-084667FM-15+0265CVG  V0200505N00675002445MN0064005N1+00065-00065101455ADDAA101000395GD13995+0024459GD24995+0100659GF108991999999999999999999MA1101425999999MW1101MW2455MW3615REMMET125KCVG 111351Z 05013KT 4SM -RA BR BKN008 OVC033 01/M01 A2995 RMK AO2 VIS 2 1/2 36R UPB21E25 CIG 007V011 SLP145 P0001 T00061006;EQDQ01+000003PRSWM1Q02    003PRSWM1N01 02070JPWTH 0QNNAA1D0 04008BA1 0 04008AA1D0 06033BA1 0 06033GA1 0 00008KA1D0 00031JA1 0-00006LA1 0 00400CA1 0 02995NA1 0 02070QA1 0 10145SA1D0 00033RA1 0 00006YA1 0 05013
032672421093814200003122151C+39050-084667FM-15+0265CVG  V0209999V00155220005MN0160005N1+00395-00725102405ADDAA101000095GD11995+0106759GF102991999999999999999999MA1102345999999MW1001REMMET071KCVG 122151Z VRB03KT 10SM FEW035 04/M07 A3022 RMK AO2 SLP240 T00391072;EQDQ01+000000PRSWM2N01 00000JPWTH 0QNNAA1D0 02035BA1 0 01035GA1U0 99999KA1D0 00019JA1 0-00072LA1 0 01000CA1 0 03022NA1 0 00000QA1 0 10240SA1D0 00039RA1 0 00039YA1 0 00003
0205724210938142000031305514+39050-084670FM-15+0267KCVG V0209999C000012200019N0160931N1-00301-00601102591ADDGF100991999999999999999999KA1999M+00221KA2999N-00281MA1102541999999MD1610041+9999MW1001REMMET087KCVG 130551Z 00000KT 10SM CLR M03/M06 A3028 RMK AO2 SLP259 T10281061 10022 21028 56004;EQDQ01+000000PRSWM2
0422724210938142000031306003+39050-084667SY-MT+0265CVG  V0209999C00005220005MN0160005N1-00285-00615102595ADDAA101000095GA1001+999999999GD10995+9999999GF100991001001999999001001GP10060000002000000002000000002000GR100600000900009MA1102545099301MD1610041+9999REMSYN076AAXX  13064 72421 32966 00000 11028 21061 39930 40259 56004 90551 555 91306;EQDQ01  00002PRCP99Q02  00003PRCP99N01 00000JPWTH 0QNNAA1D0 00000BA1 0 00000GA1U0 99999KA1D0 00021JA1 0-00061LA1 0 01000CA1 0 03028NA1 0 00000QA1 0 10259SA1D0 00027RA1 0-00028YA1 0 00000
0071724210938142000031415009+39050-084667NSRDB+026599999V020999999999999999999999999999+99999+99999999999ADDGP10060039002008036402015021502008GQ100600614912029GR100600662913839
0071724210938142000031517009+39050-084667NSRDB+026599999V020999999999999999999999999999+99999+99999999999ADDGP10060073102008082702015014202008GQ100600447915209GR100600981913829
0221724210938142000031605514+39050-084670FM-15+0267KCVG V0202301N002610180019N0160931N1+01601+00701101651ADDGD14991+0180019GF108991999999999999999999KA1999M+01781KA2999N+01391MA1101731999999MD1010041+9999MW1001REMMET088KCVG 160551Z 23005KT 10SM OVC060 16/07 A3004 RMK AO2 SLP165 T01560072 10178 20139 50004;EQDQ01+000000PRSWM2
034772421093814200003170851C+39050-084667FM-15+0265CVG  V0203605N00525007325MN0160005N1-00065-00445102165ADDAA101000095GD14995+0073259GF108991999999999999999999MA1102135999999MD1110221+9999MW1001REMMET078KCVG 170851Z 36010KT 10SM OVC024 M01/M04 A3016 RMK AO2 SLP216 T10061044 51022;EQDQ01+000000PRSWM2N01 00000JPWTH 0QNNAA1D0 06024BA1 0 06024GA1 0 00024KA1D0 00024JA1 0-00044LA1 0 01000CA1 0 03016NA1 0 00000QA1 0 10216SA1D0 00031RA1 0-00006YA1 0 36010
034672421093814200003172051C+39050-084667FM-15+0265CVG  V0200205N00365220005MN0160005N1+00395-00725102965ADDAA101000095GD12995+0146359GF104991999999999999999999MA1102915999999MD1310021+9999MW1001REMMET077KCVG 172051Z 02007KT 10SM SCT048 04/M07 A3039 RMK AO2 SLP296 T00391072 53002;EQDQ01+000000PRSWM2N01 00000JPWTH 0QNNAA1D0 02048BA1 0 02048GA1U0 99999KA1D0 00019JA1 0-00072LA1 0 01000CA1 0 03039NA1 0 00000QA1 0 10296SA1D0 00039RA1 0 00039YA1 0 02007
034572421093814200003180451C+39050-084667FM-15+0265CVG  V0200805N00465220005MN0160005N1-00175-00785103025ADDAA101000095GF100991999999999999999999KA1999M+00441KA2999N-00221MA1102955999999MW1001REMMET079KCVG 180451Z 08009KT 10SM CLR M02/M08 A3040 RMK AO2 SLP302 T10171078 400441022;EQDQ01+000000PRSWM2N01 00000JPWTH 0QNNAA1D0 00000BA1 0 00000GA1U0 99999KA1D0 00018JA1 0-00078LA1 0 01000CA1 0 03040NA1 0 00000QA1 0 10302SA1D0 00029RA1 0-00017YA1 0 08009
0233724210938142000031918514+39050-084670FM-15+0267KCVG V0201901N007210042019N0040231N1+01101+01001101401ADDAA101001091GD14991+0042019GF108991999999999999999999MA1101421999999MW1101MW2611OC101031REMMET099KCVG 191851Z 19014G20KT 2 1/2SM -RA BR OVC014 11/10 A2995 RMK AO2 SFC VIS 4 SLP140 P0004 T01110100;EQDQ01+000003PRSWM1Q02    003PRSWM1
0071724210938142000032022009+39050-084667NSRDB+026599999V020999999999999999999999999999+99999+99999999999ADDGP10060006402008000002015006402008GQ100600641924719GR100600601913789
0071724210938142000032413009+39050-084667NSRDB+026599999V020999999999999999999999999999+99999+99999999999ADDGP10060013502008031702015008002008GQ100600801909599GR100600236913759
030872421093814200003261051C+39050-084667FM-15+0265CVG  V0202305N00155220005MN0160005N1+00335-00175101565ADDAA101000095GF100991999999999999999999MA1101595999999MW1001REMMET068KCVG 261051Z 23003KT 10SM CLR 03/M02 A3000 RMK AO2 SLP156 T00331017;EQDQ01+000000PRSWM2N01 00000JPWTH 0QNNAA1D0 00000BA1 0 00000GA1U0 99999KA1D0 00029JA1 0-00017LA1 0 01000CA1 0 03000NA1 0 00000QA1 0 10156SA1D0 00038RA1 0 00033YA1 0 23003
030772421093814200003261251C+39050-084667FM-15+0265CVG  V0209999C00005220005MN0160005N1+00785+00005101605ADDAA101000095GF100991999999999999999999MA1101635999999MW1001REMMET067KCVG 261251Z 00000KT 10SM CLR 08/00 A3001 RMK AO2 SLP160 T00780000;EQDQ01+000000PRSWM2N01 00000JPWTH 0QNNAA1D0 00000BA1 0 00000GA1U0 99999KA1D0 00032JA1 0 00000LA1 0 01000CA1 0 03001NA1 0 00000QA1 0 10160SA1D0 00046RA1 0 00078YA1 0 00000
0244724210938142000032823514+39050-084670FM-15+0267KCVG V0202901N006210108019N0160931N1+00401-00101100521ADDGD13991+0108019GD24991+0150019GF108991999999999999999999KA1999M+00721KA2999N+00391MA1100511999999MD1110311+9999MW1001REMMET096KCVG 282351Z 29012KT 10SM BKN036 OVC050 04/M01 A2968 RMK AO2 SLP052 T00391011 10072 20039 51031;EQDQ01+000000PRSWM2
032672421093814200003311851C+39050-084667FM-15+0265CVG  V0209999V00215076205MN0160005N1+01395-00065102225ADDAA101000095GD13995+0762059GF107991999999999999999999MA1102245999999MW1001REMMET071KCVG 311851Z VRB04KT 10SM BKN250 14/M01 A3019 RMK AO2 SLP222 T01391006;EQDQ01+000000PRSWM2N01 00000JPWTH 0QNNAA1D0 04250BA1 0 04250GA1 0 00250KA1D0 00031JA1 0-00006LA1 0 01000CA1 0 03019NA1 0 00000QA1 0 10222SA1D0 00057RA1 0 00139YA1 0 00004
0409724210938142000040218003+39050-084667SY-MT+0265CVG  V0202405N00365001835MN0040005N1+01565+01505101125ADDAA101000095GD14995+0018359GF108991999999001501999999GP10060016302008000002015016302008GQ100600341917479GR100601132913679MA1101195097981MW1455MW2611REMSYN080AAXX  02184 72421 31224 82406 10160 20150 39798 761// 91759 333 96010 555 90218;EQDQ01  00003PRCP99N01 00070JPWTH 0QNNAA1D0 06006BA1 0 06006GA1 0 00006KA1D0 00059JA1 0 00150LA1 0 00250CA1 0 02988NA1 0 00070QA1 0 10112SA1D0 00060RA1 0 00156YA1 0 24007
0213724210938142000040222394+39050-084670FM-16+0267KCVG V0202101N00151000901CN0144841N1+01501+01501999999ADDGD13991+0012019GD23991+0111019GD34991+0180019GF108991999999999999999999MA1101151999999MW1001REMMET090KCVG 022239Z 21003KT 9SM BKN004 BKN037 OVC060 15/15 A2987 RMK AO2 RAE32 CIG 003V010 P0001;EQDQ01+000000PRSWM2
046672421093814200004040351C+39050-084667FM-15+0265CVG  V0202905N00575019815MN0080005N1+00945+00835100615ADDAA101000025GD11995+0048859GD22995+0137259GD34995+0198159GF108991999999999999999999MA1100645999999MW1101MW2455MW3615REMMET109KCVG 040351Z 29011KT 5SM -RA BR FEW016 SCT045 OVC065 09/08 A2972 RMK AO2 RAB03 PRESRR SLP061 P0000 T00940083;EQDQ01+000003PRSWM1Q02    003PRSWM1N01 02070JPWTH 0QNNAA1D0 02016BA1 0 01016AA1D0 02045BA1 0 02045AA1D0 06065BA1 0 06065GA1 0 00065KA1D0 00047JA1 0 00083LA1 0 00500CA1 0 02972NA1 0 02070QA1 0 10061SA1D0 00049RA1 0 00094YA1 0 29011
0301724210938142000040418144+39050-084670FM-16+0267KCVG V0203101N009310075019N0020111N1+00201+00101999999ADDGD12991+0033019GD23991+0075019GD33991+0120019GF107991999999999999999999MA1101221999999MW1711OC101541REMMET138KCVG 041814Z 31018G30KT 1SM -SN BR FEW011 BKN025 BKN040 02/01 A2989 RMK AO2 PK WND 28030/1805 WSHFT 1755 SFC VIS 1 1/4 SNB09 PRESRR P0001;EQDQ01+000100PRSWM3Q02+000003PRSWM1Q03    003PRSWM1
050372421093814200004042051C+39050-084667FM-15+0265CVG  V0203005N00935015245MN0160005N1+00565-00225101265ADDAA101000025AA203000591GD12995+0131159GD23995+0152459GD33995+0182959GF107991999999999999999999MA1101255999999MD1110121+9999MW1001OC101291REMMET141KCVG 042051Z 30018G25KT 10SM SCT043 BKN050 BKN060 06/M02 A2990 RMK AO2 PK WND 30028/2041 WSHFT 2021 RAE12 SLP126 P0000 60002 T00561022 51012;EQDQ01+000000PRSWM2N01 00000JPWTH 0QNNAA1D0 02043BA1 0 02043AA1D0 04050BA1 0 04050AA1D0 04060BA1 0 04060GA1 0 00050KA1D0 00028JA1 0-00022LA1 0 01000CA1 0 02990NA1 0 00000QA1 0 10126SA1D0 00042RA1 0 00056YA1 0 30018
033772421093814200004090051C+39050-084667FM-15+0265CVG  V0203105N00625014635MN0160005N1+00335-00395102015ADDAA101000095GD13995+0146359GF107991999999999999999999MA1101965999999MW1001OC101081REMMET074KCVG 090051Z 31012G21KT 10SM BKN048 03/M04 A3011 RMK AO2 SLP201 T00331039;EQDQ01+000000PRSWM2N01 00000JPWTH 0QNNAA1D0 04048BA1 0 04048GA1 0 00048KA1D0 00025JA1 0-00039LA1 0 01000CA1 0 03011NA1 0 00000QA1 0 10201SA1D0 00038RA1 0 00033YA1 0 31012
032672421093814200004110351C+39050-084667FM-15+0265CVG  V0200805N00415030485MN0160005N1+00945-00065102095ADDAA101000095GD14995+0304859GF108991999999999999999999MA1102105999999MW1001REMMET071KCVG 110351Z 08008KT 10SM OVC100 09/M01 A3015 RMK AO2 SLP209 T00941006;EQDQ01+000000PRSWM2N01 00000JPWTH 0QNNAA1D0 06100BA1 0 06100GA1 0 00100KA1D0 00031JA1 0-00006LA1 0 01000CA1 0 03015NA1 0 00000QA1 0 10209SA1D0 00049RA1 0 00094YA1 0 08008
0071724210938142000041123009+39050-084667NSRDB+026599999V020999999999999999999999999999+99999+99999999999ADDGP10060004502008000002015004502008GQ100600710926589GR100600442913609
037072421093814200004121351C+39050-084667FM-15+0265CVG  V0200205N00525006105MN0160005N1+00395-00065103155ADDAA101000095GD13995+0061059GD23995+0115859GF107991999999999999999999MA1103155999999MW1001REMMET078KCVG 121351Z 02010KT 10SM BKN020 BKN038 04/M01 A3046 RMK AO2 SLP315 T00391006;EQDQ01+000000PRSWM2N01 00000JPWTH 0QNNAA1D0 04020BA1 0 04020AA1D0 04038BA1 0 04038GA1 0 00020KA1D0 00031JA1 0-00006LA1 0 01000CA1 0 03046NA1 0 00000QA1 0 10315SA1D0 00039RA1 0 00039YA1 0 02010
0054724210938142000041509009+39050-084667NSRDB+026599999V020999999999999999999999999999+99999+99999999999ADDGP10060000002000000002000000002000GR100600000900009
0160724210938142000041510434+39050-084670FM-16+0267KCVG V0201401N001512200019N0028161N1+00801+00801999999ADDGF100991999999999999999999MA1101631999999MW1101REMMET066KCVG 151043Z 14003KT 1 3/4SM BR CLR 08/08 A3001 RMK AO2 VIS 3/4V5;EQDQ01+000003PRSWM1Q02    003PRSWM1
040772421093814200004161251C+39050-084667FM-15+0265CVG  V0202105N00155015245MN0040005N1+01395+01285101865ADDAA101000095GD11995+0125059GD24995+0152459GF108991999999999999999999MA1101935999999MW1101MW2455REMMET093KCVG 161251Z 21003KT 2 1/2SM BR FEW041 OVC050 14/13 A3010 RMK AO2 SFC VIS 3 SLP186 T01390128;EQDQ01+000003PRSWM1Q02    003PRSWM1N01 00070JPWTH 0QNNAA1D0 02041BA1 0 01041AA1D0 06050BA1 0 06050GA1 0 00050KA1D0 00055JA1 0 00128LA1 0 00250CA1 0 03010NA1 0 00070QA1 0 10186SA1D0 00057RA1 0 00139YA1 0 21003
0483724210938142000041700003+39050-084667SY-MT+0265CVG  V0201905N00315039625MN0160005N1+01835+01285101425ADDAA101000095GD13995+0396259GD24995+0609659GF108991999999999999999999GP10060001902008000002015001902008GQ100600817927699GR100600196913569KA1120M+02221MA1101465098251MD1810141+9999REMSYN086AAXX  17004 72421 32966 81906 10183 20128 39825 40142 58014 92351 333 10222 555 91700;EQDQ01  00002PRCP99Q02  00003PRCP99N01 00000JPWTH 0QNNAA1D0 04130BA1 0 04130AA1D0 06200BA1 0 06200GA1 0 00130KA1D0 00055JA1 0 00128LA1 0 01000CA1 0 02996NA1 0 00000QA1 0 10142SA1D0 00065RA1 0 00183YA1 0 19006
0071724210938142000041822009+39050-084667NSRDB+026599999V020999999999999999999999999999+99999+99999999999ADDGP10060031602008012302015025102008GQ100600583925799GR100600711913559
0054724210938142000042205009+39050-084667NSRDB+026599999V020999999999999999999999999999+99999+99999999999ADDGP10060000002000000002000000002000GR100600000900009
0071724210938142000042222009+39050-084667NSRDB+026599999V020999999999999999999999999999+99999+99999999999ADDGP10060050802008074102015011102008GQ100600576925939GR100600723913529
0054724210938142000042509009+39050-084667NSRDB+026599999V020999999999999999999999999999+99999+99999999999ADDGP10060000002000000002000000002000GR100600000900009
032772421093814200004271051C+39050-084667FM-15+0265CVG  V0209999C00005220005MN0160005N1+00285+00065101445ADDAA101000095GD11995+0762059GF102991999999999999999999MA1101465999999MW1001REMMET072KCVG 271051Z 00000KT 10SM FEW250 03/01 A2996 RMK AO2 SLP144 T00280006 $;EQDQ01+000000PRSWM2N01 00000JPWTH 0QNNAA1D0 02250BA1 0 01250GA1U0 99999KA1D0 00033JA1 0 00006LA1 0 01000CA1 0 02996NA1 0 00000QA1 0 10144SA1D0 00037RA1 0 00028YA1 0 00000
0071724210938142000042919009+39050-084667NSRDB+026599999V020999999999999999999999999999+99999+99999999999ADDGP10060093602008085002015017802008GQ100600273920949GR100601196913479
0054724210938142000043007009+39050-084667NSRDB+026599999V020999999999999999999999999999+99999+99999999999ADDGP10060000002000000002000000002000GR100600000900009
032572421093814200004302151C+39050-084667FM-15+0265CVG  V0202205N00265220005MN0160005N1+02285+00395102055ADDAA101000095GD12995+0762059GF104991999999999999999999MA1102105999999MW1001REMMET070KCVG 302151Z 22005KT 10SM SCT250 23/04 A3015 RMK AO2 SLP205 T02280039;EQDQ01+000000PRSWM2N01 00000JPWTH 0QNNAA1D0 02250BA1 0 02250GA1U0 99999KA1D0 00039JA1 0 00039LA1 0 01000CA1 0 03015NA1 0 00000QA1 0 10205SA1D0 00073RA1 0 00228YA1 0 22005
032572421093814200005021551C+39050-084667FM-15+0265CVG  V0200705N00415220005MN0160005N1+01725+00895102035ADDAA101000095GD11995+0304859GF102991999999999999999999MA1102105999999MW1001REMMET070KCVG 021551Z 07008KT 10SM FEW100 17/09 A3015 RMK AO2 SLP203 T01720089;EQDQ01+000000PRSWM2N01 00000JPWTH 0QNNAA1D0 02100BA1 0 01100GA1U0 99999KA1D0 00048JA1 0 00089LA1 0 01000CA1 0 03015NA1 0 00000QA1 0 10203SA1D0 00063RA1 0 00172YA1 0 07008
032772421093814200005030251C+39050-084667FM-15+0265CVG  V0200705N00465220005MN0160005N1+01615+00785102035ADDAA101000095GF100991999999999999999999MA1102105999999MD1310091+9999MW1001REMMET073KCVG 030251Z 07009KT 10SM CLR 16/08 A3015 RMK AO2 SLP203 T01610078 53009;EQDQ01+000000PRSWM2N01 00000JPWTH 0QNNAA1D0 00000BA1 0 00000GA1U0 99999KA1D0 00046JA1 0 00078LA1 0 01000CA1 0 03015NA1 0 00000QA1 0 10203SA1D0 00061RA1 0 00161YA1 0 07009
0203724210938142000050305514+39050-084670FM-15+0267KCVG V0200801N003612200019N0160931N1+01201+00801102061ADDGF100991999999999999999999KA1999M+01891KA2999N+01221MA1102101999999MD1010031+9999MW1001REMMET085KCVG 030551Z 08007KT 10SM CLR 12/08 A3015 RMK AO2 SLP206 T01220078 10189 20122 50003;EQDQ01+000000PRSWM2
037772421093814200005062151C+39050-084667FM-15+0265CVG  V0202305N00365220005MN0160005N1+02675+01725101815ADDAA101000095GD11995+0457259GD22995+0762059GF104991999999999999999999MA1101905999999MW1001REMMET085KCVG 062151Z 23007KT 190V260 10SM FEW150 SCT250 27/17 A3009 RMK AO2 SLP181 T02670172;EQDQ01+000000PRSWM2N01 00000JPWTH 0QNNAA1D0 02150BA1 0 01150AA1D0 02250BA1 0 02250GA1U0 99999KA1D0 00063JA1 0 00172LA1 0 01000CA1 0 03009NA1 0 00000QA1 0 10181SA1D0 00080RA1 0 00267YA1 0 23007
0071724210938142000051014009+39050-084667NSRDB+026599999V020999999999999999999999999999+99999+99999999999ADDGP10060050002008065702015014002008GQ100600567909369GR100600733913399
0265724210938142000051123514+39050-084670FM-15+0267KCVG V0201901N005112200019N0160931N1+02501+01901100551ADDGD12991+0144019GD22991+0180019GD32991+0750019GF104991999999999999999999KA1999M+02721KA2999N+02441MA1100641999999MD1810221+9999MW1001REMMET102KCVG 112351Z 19010KT 10SM FEW048 SCT065 SCT250 25/19 A2972 RMK AO2 SLP055 T02500189 10272 20244 58022;EQDQ01+000000PRSWM2
033672421093814200005120151C+39050-084667FM-15+0265CVG  V0202005N00625220005MN0160005N1+02505+01945100525ADDAA101000095GD11995+0762059GF102991999999999999999999MA1100615999999MW1001OC100821REMMET073KCVG 120151Z 20012G16KT 10SM FEW250 25/19 A2971 RMK AO2 SLP052 T02500194;EQDQ01+000000PRSWM2N01 00000JPWTH 0QNNAA1D0 02250BA1 0 01250GA1U0 99999KA1D0 00067JA1 0 00194LA1 0 01000CA1 0 02971NA1 0 00000QA1 0 10052SA1D0 00077RA1 0 00250YA1 0 20012
032572421093814200005120751C+39050-084667FM-15+0265CVG  V0202205N00365016765MN0160005N1+02335+01895100525ADDAA101000095GD14995+0167659GF108991999999999999999999MA1100645999999MW1001REMMET070KCVG 120751Z 22007KT 10SM OVC055 23/19 A2972 RMK AO2 SLP052 T02330189;EQDQ01+000000PRSWM2N01 00000JPWTH 0QNNAA1D0 06055BA1 0 06055GA1 0 00055KA1D0 00066JA1 0 00189LA1 0 01000CA1 0 02972NA1 0 00000QA1 0 10052SA1D0 00074RA1 0 00233YA1 0 22007
030772421093814200005140651C+39050-084667FM-15+0265CVG  V0203405N00265220005MN0160005N1+00895+00565101975ADDAA101000095GF100991999999999999999999MA1102035999999MW1001REMMET067KCVG 140651Z 34005KT 10SM CLR 09/06 A3013 RMK AO2 SLP197 T00890056;EQDQ01+000000PRSWM2N01 00000JPWTH 0QNNAA1D0 00000BA1 0 00000GA1U0 99999KA1D0 00042JA1 0 00056LA1 0 01000CA1 0 03013NA1 0 00000QA1 0 10197SA1D0 00048RA1 0 00089YA1 0 34005
0071724210938142000051521009+39050-084667NSRDB+026599999V020999999999999999999999999999+99999+99999999999ADDGP10060068902008070102015017302008GQ100600426925479GR100600982913369
032572421093814200005160151C+39050-084667FM-15+0265CVG  V0200205N00265220005MN0160005N1+01505+00175102125ADDAA101000095GD12995+0762059GF104991999999999999999999MA1102175999999MW1001REMMET070KCVG 160151Z 02005KT 10SM SCT250 15/02 A3017 RMK AO2 SLP212 T01500017;EQDQ01+000000PRSWM2N01 00000JPWTH 0QNNAA1D0 02250BA1 0 02250GA1U0 99999KA1D0 00035JA1 0 00017LA1 0 01000CA1 0 03017NA1 0 00000QA1 0 10212SA1D0 00059RA1 0 00150YA1 0 02005
0054724210938142000051708009+39050-084667NSRDB+026599999V020999999999999999999999999999+99999+99999999999ADDGP10060000002000000002000000002000GR100600000900009
0297724210938142000051811514+39050-084670FM-15+0267KCVG V0202101N004110390019N0128741N1+02101+01601101181ADDAA124011791GD12991+0240019GD23991+0390019GD33991+0750019GF107991999999999999999999KA1999M+02111KA2999N+01891MA1101251999999MD1310151+9999MW1001REMMET123KCVG 181151Z 21008KT 8SM SCT085 BKN130 BKN250 21/16 A2990 RMK AO2 SLP118 CBMAM OHD MOV E 70046 T02110161 10211 20189 53015;EQDQ01+000000PRSWM2
042572421093814200005191951C+39050-084667FM-15+0265CVG  V0202805N00415013115MN0160005N1+02445+01835101235ADDAA101000095GD11995+0103659GD23995+0131159GD34995+0213459GF108991999999999999999999MA1101325999999MW1001REMMET096KCVG 191951Z 28008KT 10SM FEW034 BKN043 OVC070 24/18 A2992 RMK AO2 CIG 035 36R SLP123 T02440183;EQDQ01+000000PRSWM2N01 00000JPWTH 0QNNAA1D0 02034BA1 0 01034AA1D0 04043BA1 0 04043AA1D0 06070BA1 0 06070GA1 0 00043KA1D0 00065JA1 0 00183LA1 0 01000CA1 0 02992NA1 0 00000QA1 0 10123SA1D0 00076RA1 0 00244YA1 0 28008
0246724210938142000052811224+39050-084670FM-16+0267KCVG V0202201N00311000901CN0028161N1+01801+01801999999ADDGD13991+0015019GD24991+0033019GF108991999999999999999999MA1100711999999MW1611REMMET106KCVG 281122Z 22006KT 1 3/4SM -RA BR BKN005 OVC011 18/18 A2974 RMK AO2 TWR VIS 2 RAB1059 CIG 003V008 P0000;EQDQ01+000100PRSWM3Q02+000003PRSWM1Q03    003PRSWM1
0146724210938142000052911204+39050-084670FM-15+0267KCVG V0203601N004610048019N0160931N1+01201+01101999999ADDGD14991+0048019GF108991999999999999999999MA1101291999999MW1001REMMET053KCVG 291120Z 36009KT 10SM OVC016 12/11 A2991 RMK AO2;EQDQ01+000000PRSWM2
036072421093814200005310451C+39050-084667FM-15+0265CVG  V0201805N00215220005MN0128005N1+01725+01565101815ADDAA101000095GD11995+0396259GF102991999999999999999999KA1999M+02221KA2999N+01001MA1101905999999MW1001REMMET079KCVG 310451Z 18004KT 8SM FEW130 17/16 A3009 RMK AO2 SLP181 T01720156 402220100;EQDQ01+000000PRSWM2N01 00000JPWTH 0QNNAA1D0 02130BA1 0 01130GA1U0 99999KA1D0 00060JA1 0 00156LA1 0 00800CA1 0 03009NA1 0 00000QA1 0 10181SA1D0 00063RA1 0 00172YA1 0 18004
0440724210938142000053106003+39050-084667SY-MT+0265CVG  V0201805N00265220005MN0128005N1+01725+01565101785ADDAA101000095GA1001+999999999GD10995+9999999GF100991001001999999001001GP10060000002000000002000000002000GR100600000900009MA1101865098641REMSYN076AAXX  31064 72421 32962 01805 10172 20156 39864 40178 58000 90551 555 93106;EQDQ01+000082APCTENQ02+000002APC3  Q03  00002PRCP99Q04  00003PRCP99N01 00000JPWTH 0QNNAA1D0 00000BA1 0 00000GA1U0 99999KA1D0 00060JA1 0 00156LA1 0 00800CA1 0 03008NA1 0 00000QA1 0 10178SA1D0 00063RA1 0 00172YA1 0 18005
0220724210938142000053111514+39050-084670FM-15+0267KCVG V0202001N003110330019N0144841N1+01901+01601101931ADDGD13991+0330019GF107991999999999999999999KA1999M+01891KA2999N+01611MA1102001999999MD1110141+9999MW1001REMMET087KCVG 311151Z 20006KT 9SM BKN110 19/16 A3012 RMK AO2 SLP193 T01890156 10189 20161 51014;EQDQ01+000000PRSWM2
034372421093814200006021251C+39050-084667FM-15+0265CVG  V0202305N00365220005MN0096005N1+02335+01895101815ADDAA101000095GD12995+0762059GF104991999999999999999999MA1101935999999MW1055REMMET072KCVG 021251Z 23007KT 6SM HZ SCT250 23/19 A3010 RMK AO2 SLP181 T02330189;EQDQ01+000003PRSWM1Q02    003PRSWM1N01 00081JPWTH 0QNNAA1D0 02250BA1 0 02250GA1U0 99999KA1D0 00066JA1 0 00189LA1 0 00600CA1 0 03010NA1 0 00081QA1 0 10181SA1D0 00074RA1 0 00233YA1 0 23007
0054724210938142000060403009+39050-084667NSRDB+026599999V020999999999999999999999999999+99999+99999999999ADDGP10060000002000000002000000002000GR100600000900009
0071724210938142000060614009+39050-084667NSRDB+026599999V020999999999999999999999999999+99999+99999999999ADDGP10060051502008066802015012702008GQ100600544908829GR100600770913269
0450724210938142000060812003+39050-084667SY-MT+0265CVG  V0202005N00265028965MN0160005N1+01565+01065102025ADDAA101000095AA206000791GD14995+0289659GF108991999999999999999999GP10060015502008029902015008802008GQ100600771907079GR100600295913259KA1999M+02441KA2120N+01331MA1102105098871MD1310101+9999REMSYN098AAXX  08124 72421 12966 82005 10156 20106 39887 40202 53010 69901 91151 333 10244 20133 555 90812;EQDN01 00000JPWTH 0QNNAA1D0 06095BA1 0 06095GA1 0 00095KA1D0 00051JA1 0 00106LA1 0 01000CA1 0 03015NA1 0 00000QA1 0 10202SA1D0 00060RA1 0 00156YA1 0 20005
0071724210938142000060813009+39050-084667NSRDB+026599999V020999999999999999999999999999+99999+99999999999ADDGP10060033202008051402015012302008GQ100600659907929GR100600539913259
039272421093814200006121751C+39050-084667FM-15+0265CVG  V0209999V00265220005MN0112651N1+03005+02005101925ADDAA101000095GD11995+0121959GD22995+0762059GF104991999999999999999999KA1999M+03001KA2999N+02221MA1102035999999MD1810091+9999MW1001REMMET098KCVG 121751Z COR VRB05KT 7SM FEW040 SCT250 30/20 A3013 RMK AO2 SLP192 T03000200 10300 20222 58009;EQDQ01+000000PRSWM2QNNAA1D0 02040BA1 0 01040AA1D0 02250BA1 0 02250GA1U0 99999KA1D0 00068JA1 0 00200CA1 0 03013QA1 0 10192SA1D0 00086RA1 0 00300YA1 0 00005
0464724210938142000061306003+39050-084667SY-MT+0265CVG  V0201905N00265220005MN0144005N1+02225+01725101615ADDAA101000095GA1001+999999999GD10995+9999999GF100991001001999999001001GP10060000002000000002000000002000GR100600000900009KA1240M+02941KA2240N+02171MA1101735098511MD1810051+9999REMSYN092AAXX  13064 72421 32964 01905 10222 20172 39851 40161 58005 90551 333 10294 20217 555 91306;EQDQ01  00002PRCP99Q02  00003PRCP99N01 00000JPWTH 0QNNAA1D0 00000BA1 0 00000GA1U0 99999KA1D0 00063JA1 0 00172LA1 0 00900CA1 0 03004NA1 0 00000QA1 0 10161SA1D0 00072RA1 0 00222YA1 0 19005
048272421093814200006151451C+39050-084667FM-15+0265CVG  V0202205N00265007015MN0160005N1+02175+01945101065ADDAA101000025AA203000021GD12995+0042759GD23995+0070159GD34995+0152459GF108991999999999999999999MA1101155999999MD1210021+9999MW1615REMMET112KCVG 151451Z 22005KT 10SM -RA SCT014 BKN023 OVC050 22/19 A2987 RMK AO2 RAB40 SLP106 P0000 60000 T02170194 52002;EQDQ01+000003PRSWM1Q02    003PRSWM1N01 00020JPWTH 0QNNAA1D0 02014BA1 0 02014AA1D0 04023BA1 0 04023AA1D0 06050BA1 0 06050GA1 0 00023KA1D0 00067JA1 0 00194LA1 0 01000CA1 0 02987NA1 0 00020QA1 0 10106SA1D0 00071RA1 0 00217YA1 0 22005
0243724210938142000061605514+39500-084670FM-15+0267KCVG V0201901N003110180019N0160931N1+02101+02101100881ADDGD12991+0099019GD23991+0180019GF107991999999999999999999KA1999M+02501KA2999N+02111MA1100981999999MD1610021+9999MW1001REMMET095KCVG 160551Z 19006KT 10SM FEW033 BKN060 21/21 A2982 RMK AO2 SLP088 T02110206 10250 20211 56002;EQDQ01+000000PRSWM2
036172421093814200006181651C+39050-084667FM-15+0265CVG  V0203205N00265002445MN0080005N1+01945+01835101955ADDAA101000095GD14995+0024459GF108991999999999999999999MA1102035999999MW1101MW2455REMMET084KCVG 181651Z 32005KT 5SM BR OVC008 19/18 A3013 RMK AO2 CIG 005V012 SLP195 T01940183;EQDQ01+000003PRSWM1Q02    003PRSWM1N01 00070JPWTH 0QNNAA1D0 06008BA1 0 06008GA1 0 00008KA1D0 00065JA1 0 00183LA1 0 00500CA1 0 03013NA1 0 00070QA1 0 10195SA1D0 00067RA1 0 00194YA1 0 32005
032472421093814200006191251C+39050-084667FM-15+0265CVG  V0200505N00415076205MN0144005N1+01785+01445102165ADDAA101000095GD13995+0762059GF107991999999999999999999MA1102245999999MW1001REMMET069KCVG 191251Z 05008KT 9SM BKN250 18/14 A3019 RMK AO2 SLP216 T01780144;EQDQ01+000000PRSWM2N01 00000JPWTH 0QNNAA1D0 04250BA1 0 04250GA1 0 00250KA1D0 00058JA1 0 00144LA1 0 00900CA1 0 03019NA1 0 00000QA1 0 10216SA1D0 00064RA1 0 00178YA1 0 05008
0795724210938142000062004596+39044-084672SOD  +0269KCVG V020999999999999999999999999999+99999+99999999999ADDAA124000096AJ100009599999999AL12400095AN1024000095AT1MW01FG  5AT2MW13BR  1KA1240M+02565KA2240N+01615MG1098859999994OE11240076006008335OE22240062605008365OE33240025099999995REMSOD59224 HR PRECIPITATION (IN): 0.00 SNOW DEPTH (IN):0.0   24 HR SNOWFALL (IN):0    24 HR MAX TEMP (F): 7824 HR MAX TEMP TIME (LST):1716 24 HR MIN TEMP (F): 6124 HR MIN TEMP TIME (LST):0617 AVERAGE STATION PRESSURE:29.19  PEAK WIND SPEED (MPH): 17 PEAK WIND DIR (DEG):060 PEAK WIND TIME (LST):0833  FASTEST 2MIN SPEED (MPH): 14FASTEST 2MIN DIR (DEG):050 FASTEST 2MIN TIME (LST):0836 AVERAGE WIND SPEED (MPH): 5.6 24 HR AVG TEMP (F):70 HOURLY INCREMENTAL PRECIPITATION VALUES (IN):.00  .00  .00  .00  .00  .00  .00  .00  .00  .00  .00  .00  .00  .00  .00  .00  .00  .00  .00  .00  .00  .00  .00  .00EQDR01  0.007AAP092
0071724210938142000062317009+39050-084667NSRDB+026599999V020999999999999999999999999999+99999+99999999999ADDGP10060090602008074602015021302008GQ100600219913179GR100601226913229
0071724210938142000062322009+39050-084667NSRDB+026599999V020999999999999999999999999999+99999+99999999999ADDGP10060056302008069202015012302008GQ100600505926969GR100600840913229
0258724210938142000062513063+39500-084670FM-16+0267KCVG V0202501N003110045019N0160931N1+02301+02101999999ADDGD13991+0045019GD23991+0120019GD34991+0210019GF108991999999999999999999GP10060032602008041402015016002008GQ100600664907839GR100600529913229MA1101421999999MW1001REMMET067KCVG 251306Z 25006KT 10SM BKN015 BKN040 OVC070 23/21 A2995 RMK AO2;EQDQ01+000000PRSWM2
047972421093814200006251451C+39050-084667FM-15+0265CVG  V0203205N00415021345MN0160005N1+02335+02115101405ADDAA101000025AA203000021GD12995+0030559GD22995+0057959GD34995+0213459GF108991999999999999999999MA1101495999999MD1210141+9999MW1001REMMET125KCVG 251451Z 32008KT 10SM SCT010 SCT019 OVC070 23/21 A2997 RMK AO2 RAB1358E08 CIG 011 36R SLP140 P0000 60000 T02330211 52014;EQDQ01+000000PRSWM2N01 00000JPWTH 0QNNAA1D0 02010BA1 0 02010AA1D0 02019BA1 0 02019AA1D0 06070BA1 0 06070GA1 0 00070KA1D0 00070JA1 0 00211LA1 0 01000CA1 0 02997NA1 0 00000QA1 0 10140SA1D0 00074RA1 0 00233YA1 0 32008
037772421093814200006281651C+39050-084667FM-15+0265CVG  V0209999V00215033535MN0160005N1+02335+01445101675ADDAA101000095GD11995+0106759GD23995+0335359GF107991999999999999999999MA1101765999999MW1001REMMET085KCVG 281651Z VRB04KT 10SM FEW035 BKN110 23/14 A3005 RMK AO2 SLP167 ACC E-S T02330144;EQDQ01+000000PRSWM2N01 00000JPWTH 0QNNAA1D0 02035BA1 0 01035AA1D0 04110BA1 0 04110GA1 0 00110KA1D0 00058JA1 0 00144LA1 0 01000CA1 0 03005NA1 0 00000QA1 0 10167SA1D0 00074RA1 0 00233YA1 0 00004
036972421093814200006281851C+39050-084667FM-15+0265CVG  V0203305N00315036585MN0160005N1+02395+01895101585ADDAA101000095GD12995+0140259GD23995+0365859GF107991999999999999999999MA1101665999999MW1001REMMET077KCVG 281851Z 33006KT 10SM SCT046 BKN120 24/19 A3002 RMK AO2 SLP158 T02390189;EQDQ01+000000PRSWM2N01 00000JPWTH 0QNNAA1D0 02046BA1 0 02046AA1D0 04120BA1 0 04120GA1 0 00120KA1D0 00066JA1 0 00189LA1 0 01000CA1 0 03002NA1 0 00000QA1 0 10158SA1D0 00075RA1 0 00239YA1 0 33006
036972421093814200006290051C+39050-084667FM-15+0265CVG  V0203305N00265220005MN0160005N1+02175+01285101445ADDAA101000095GD12995+0457259GD22995+0762059GF104991999999999999999999MA1101525999999MW1001REMMET077KCVG 290051Z 33005KT 10SM SCT150 SCT250 22/13 A2998 RMK AO2 SLP144 T02170128;EQDQ01+000000PRSWM2N01 00000JPWTH 0QNNAA1D0 02150BA1 0 02150AA1D0 02250BA1 0 02250GA1U0 99999KA1D0 00055JA1 0 00128LA1 0 01000CA1 0 02998NA1 0 00000QA1 0 10144SA1D0 00071RA1 0 00217YA1 0 33005
0071724210938142000070102009+39050-084667NSRDB+026599999V020999999999999999999999999999+99999+99999999999ADDGP10060000002008000002015000002008GQ100600895930039GR100600001901439
0464724210938142000070106003+39050-084667SY-MT+0265CVG  V0209999C00005220005MN0160005N1+01615+01335101755ADDAA101000095GA1001+999999999GD10995+9999999GF100991001001999999001001GP10060000002000000002000000002000GR100600000900009KA1240M+02331KA2240N+01561MA1101835098611MD1110041+9999REMSYN092AAXX  01064 72421 32966 00000 10161 20133 39861 40175 51004 90551 333 10233 20156 555 90106;EQDQ01  00002PRCP99Q02  00003PRCP99N01 00000JPWTH 0QNNAA1D0 00000BA1 0 00000GA1U0 99999KA1D0 00056JA1 0 00133LA1 0 01000CA1 0 03007NA1 0 00000QA1 0 10175SA1D0 00061RA1 0 00161YA1 0 00000
034572421093814200007030251C+39050-084667FM-15+0265CVG  V0202005N00265220005MN0160005N1+02445+02005101505ADDAA101000095GD11995+0365859GF102991999999999999999999MA1101635999999MD1210061+9999MW1001REMMET076KCVG 030251Z 20005KT 10SM FEW120 24/20 A3001 RMK AO2 SLP150 T02440200 52006;EQDQ01+000000PRSWM2N01 00000JPWTH 0QNNAA1D0 02120BA1 0 01120GA1U0 99999KA1D0 00068JA1 0 00200LA1 0 01000CA1 0 03001NA1 0 00000QA1 0 10150SA1D0 00076RA1 0 00244YA1 0 20005
0054724210938142000070310009+39050-084667NSRDB+026599999V020999999999999999999999999999+99999+99999999999ADDGP10060000002000000002000000002000GR100600000900009
036872421093814200007031551C+39050-084667FM-15+0265CVG  V0202505N00265021345MN0112005N1+02565+02115101535ADDAA101000095GD12995+0097559GD24995+0213459GF108991999999999999999999MA1101635999999MW1001REMMET076KCVG 031551Z 25005KT 7SM SCT032 OVC070 26/21 A3001 RMK AO2 SLP153 T02560211;EQDQ01+000000PRSWM2N01 00000JPWTH 0QNNAA1D0 02032BA1 0 02032AA1D0 06070BA1 0 06070GA1 0 00070KA1D0 00070JA1 0 00211LA1 0 00700CA1 0 03001NA1 0 00000QA1 0 10153SA1D0 00078RA1 0 00256YA1 0 25005
0218724210938142000070413514+39500-084670FM-15+0267KCVG V0202601N003610075019N0128741N1+02601+02301101561ADDGD12991+0039019GD22991+0078019GD33991+0180019GF107991999999999999999999MA1101691999999MW1001REMMET095KCVG 041351Z 26007KT 8SM SCT013 SCT026 BKN065 26/23 A3003 RMK AO2 CIG 025 36R SLP156 T02560233;EQDQ01+000000PRSWM2
045072421093814200007042251C+39050-084667FM-15+0265CVG  V0202105N00155042675MN0112005N1+02895+02395101235ADDAA101000095GA1999+009901091GD12995+0100659GD23995+0426759GD33995+0914459GF107991999999999999999999MA1101355999999MW1001REMMET105KCVG 042251Z 21003KT 7SM SCT033CB BKN140 BKN300 29/24 A2993 RMK AO2 SLP123 CB SW MOV ESE TCU E T02890239;EQDQ01+000000PRSWM2N01 00000JPWTH 0QNNAA1D0 02033BA1 0 02033AA1D0 04140BA1 0 04140AA1D0 04300BA1 0 04300GA1 0 00140KA1D0 00075JA1 0 00239LA1 0 00700CA1 0 02993NA1 0 00000QA1 0 10123SA1D0 00084RA1 0 00289YA1 0 21003
0071724210938142000070702009+39050-084667NSRDB+026599999V020999999999999999999999999999+99999+99999999999ADDGP10060000002008000002015000002008GQ100600896929979GR100600001901219
0220724210938142000071217514+39500-084670FM-15+0267KCVG V0200801N003610210019N0128741N1+02601+02001101431ADDGD13991+0210019GF107991999999999999999999KA1999M+02611KA2999N+01941MA1101561999999MD1010001+9999MW1001REMMET087KCVG 121751Z 08007KT 8SM BKN075 26/20 A2999 RMK AO2 SLP143 T02610200 10261 20194 50000;EQDQ01+000000PRSWM2
0168724210938142000071920154+39050-084670FM-16+0267KCVG V0200101N005710090019N0160931N1+02001+01701999999ADDGD12991+0057019GD24991+0090019GF108991999999999999999999MA1101491999999MW1001REMMET060KCVG 192015Z 01011KT 10SM SCT019 OVC030 20/17 A2997 RMK AO2;EQDQ01+000000PRSWM2
0448724210938142000072106003+39050-084667SY-MT+0265CVG  V0203605N00265015245MN0160005N1+01835+01615101375ADDAA101000095GD14995+0152459GF108991999999017501999999GP10060000002000000002000000002000GR100600000900009KA1240M+02331KA2240N+01561MA1101465098251MD1010021+9999REMSYN092AAXX  21064 72421 32766 83605 10183 20161 39825 40137 50002 90551 333 10233 20156 555 92106;EQDQ01  00002PRCP99Q02  00003PRCP99N01 00000JPWTH 0QNNAA1D0 06050BA1 0 06050GA1 0 00050KA1D0 00061JA1 0 00161LA1 0 01000CA1 0 02996NA1 0 00000QA1 0 10137SA1D0 00065RA1 0 00183YA1 0 36005
0071724210938142000072120009+39050-084667NSRDB+026599999V020999999999999999999999999999+99999+99999999999ADDGP10060040302008006002015035102008GQ100600294923749GR100601151913239
0071724210938142000072201009+39050-084667NSRDB+026599999V020999999999999999999999999999+99999+99999999999ADDGP10060003102008011502015002202008GQ100600852929259GR100600107912689
032572421093814200007220351C+39050-084667FM-15+0265CVG  V0203505N00315220005MN0160005N1+01835+01335101555ADDAA101000095GD12995+0182959GF104991999999999999999999MA1101635999999MW1001REMMET070KCVG 220351Z 35006KT 10SM SCT060 18/13 A3001 RMK AO2 SLP155 T01830133;EQDQ01+000000PRSWM2N01 00000JPWTH 0QNNAA1D0 02060BA1 0 02060GA1U0 99999KA1D0 00056JA1 0 00133LA1 0 01000CA1 0 03001NA1 0 00000QA1 0 10155SA1D0 00065RA1 0 00183YA1 0 35006
0071724210938142000072216009+39050-084667NSRDB+026599999V020999999999999999999999999999+99999+99999999999ADDGP10060076902008070102015019202008GQ100600347911369GR100601087913239
0054724210938142000072509009+39050-084667NSRDB+026599999V020999999999999999999999999999+99999+99999999999ADDGP10060000002000000002000000002000GR100600000900009
044472421093814200007310151C+39050-084667FM-15+0265CVG  V0201505N00155024385MN0112005N1+02225+02065101355ADDAA101000395GD12995+0152459GD22995+0182959GD34995+0243859GF108991999999999999999999MA1101425999999MW1615REMMET099KCVG 310151Z 15003KT 7SM -RA SCT050 SCT060 OVC080 22/21 A2995 RMK AO2 RAB49 SLP135 P0001 T02220206;EQDQ01+000003PRSWM1Q02    003PRSWM1N01 00020JPWTH 0QNNAA1D0 02050BA1 0 02050AA1D0 02060BA1 0 02060AA1D0 06080BA1 0 06080GA1 0 00080KA1D0 00069JA1 0 00206LA1 0 00700CA1 0 02995NA1 0 00020QA1 0 10135SA1D0 00072RA1 0 00222YA1 0 15003
032472421093814200007311851C+39050-084667FM-15+0265CVG  V0201805N00415220005MN0112005N1+02725+02065101415ADDAA101000095GD12995+0088459GF104991999999999999999999MA1101525999999MW1001REMMET069KCVG 311851Z 18008KT 7SM SCT029 27/21 A2998 RMK AO2 SLP141 T02720206;EQDQ01+000000PRSWM2N01 00000JPWTH 0QNNAA1D0 02029BA1 0 02029GA1U0 99999KA1D0 00069JA1 0 00206LA1 0 00700CA1 0 02998NA1 0 00000QA1 0 10141SA1D0 00081RA1 0 00272YA1 0 18008
0071724210938142000080122009+39050-084667NSRDB+026599999V020999999999999999999999999999+99999+99999999999ADDGP10060052702008066702015012402008GQ100600529926309GR100600799913269
047972421093814200008060051C+39050-084667FM-15+0265CVG  V0201805N00415016765MN0160005N1+02115+01675101425ADDAA101000025GD11995+0128059GD23995+0167659GD33995+0274359GD44991+0750019GF108991999999999999999999MA1101495999999MW1615REMMET119KCVG 060051Z 18008KT 10SM -RA FEW042 BKN055 BKN090 OVC250 21/17 A2997 RMK AO2 RAB04 CIG 047 36R SLP142 P0000 T02110167;EQDQ01+000003PRSWM1Q02    003PRSWM1N01 00020JPWTH 0QNNAA1D0 02042BA1 0 01042AA1D0 04055BA1 0 04055AA1D0 04090BA1 0 04090GA1 0 00055KA1D0 00062JA1 0 00167LA1 0 01000CA1 0 02997NA1 0 00020QA1 0 10142SA1D0 00070RA1 0 00211YA1 0 18008
039272421093814200008061951C+39050-084667FM-15+0265CVG  V0202105N00575076205MN0160005N1+03005+02395101065ADDAA101000025GD12995+0335359GD23995+0762059GF107991999999999999999999MA1101195999999MW1001OC100771REMMET092KCVG 061951Z 21011G15KT 10SM SCT110 BKN250 30/24 A2988 RMK AO2 RAE19 SLP106 P0000 T03000239;EQDQ01+000000PRSWM2N01 00000JPWTH 0QNNAA1D0 02110BA1 0 02110AA1D0 04250BA1 0 04250GA1 0 00250KA1D0 00075JA1 0 00239LA1 0 01000CA1 0 02988NA1 0 00000QA1 0 10106SA1D0 00086RA1 0 00300YA1 0 21011
038072421093814200008071651C+39050-084667FM-15+0265CVG  V0202205N00675030485MN0160005N1+02615+02175101515ADDAA101000095GD11995+0121959GD23995+0304859GF107991999999999999999999MA1101635999999MW1001OC100871REMMET080KCVG 071651Z 22013G17KT 10SM FEW040 BKN100 26/22 A3001 RMK AO2 SLP151 T02610217;EQDQ01+000000PRSWM2N01 00000JPWTH 0QNNAA1D0 02040BA1 0 01040AA1D0 04100BA1 0 04100GA1 0 00100KA1D0 00071JA1 0 00217LA1 0 01000CA1 0 03001NA1 0 00000QA1 0 10151SA1D0 00079RA1 0 00261YA1 0 22013
048972421093814200008091451C+39050-084667FM-15+0265CVG  V0202605N00315009755MN0128005N1+02565+02335101495ADDAA101000395AA203000591GD13995+0097559GD24995+0198159GF108991999999999999999999MA1101595999999MD1310041+9999MW1171MW2955REMMET150KCVG 091451Z 26006KT 8SM TS BKN032 OVC065 26/23 A3000 RMK AO2 TSB23RAB27E46 PRESRR SLP149 OCNL LTGCCCG NW-NE TS NW MOV SE P0001 60002 T02560233 53004;EQDQ01+000003PRSWM1Q02    003PRSWM1N01 00010JPWTH 0QNNAA1D0 04032BA1 0 04032AA1D0 06065BA1 0 06065GA1 0 00032KA1D0 00074JA1 0 00233LA1 0 00800CA1 0 03000NA1 0 00010QA1 0 10149SA1D0 00078RA1 0 00256YA1 0 26006
0071724210938142000081314009+39050-084667NSRDB+026599999V020999999999999999999999999999+99999+99999999999ADDGP10060040802008051902015015102008GQ100600603909539GR100600658913319
0054724210938142000081503009+39050-084667NSRDB+026599999V020999999999999999999999999999+99999+99999999999ADDGP10060000002000000002000000002000GR100600000900009
035172421093814200008152051C+39050-084667FM-15+0265CVG  V0202305N00465220005MN0144005N1+03175+02115101815ADDAA101000095GD11995+0274359GF102991999999999999999999MA1101935999999MD1610161+9999MW1001REMMET082KCVG 152051Z 23009KT 9SM FEW090 32/21 A3010 RMK AO2 SLP181 ACC NE T03170211 56016;EQDQ01+000000PRSWM2N01 00000JPWTH 0QNNAA1D0 02090BA1 0 01090GA1U0 99999KA1D0 00070JA1 0 00211LA1 0 00900CA1 0 03010NA1 0 00000QA1 0 10181SA1D0 00089RA1 0 00317YA1 0 23009
036972421093814200008171551C+39050-084667FM-15+0265CVG  V0201605N00365022865MN0160005N1+02285+01675101675ADDAA101000095GD13995+0228659GD23995+0762059GF107991999999999999999999MA1101765999999MW1001REMMET077KCVG 171551Z 16007KT 10SM BKN075 BKN250 23/17 A3005 RMK AO2 SLP167 T02280167;EQDQ01+000000PRSWM2N01 00000JPWTH 0QNNAA1D0 04075BA1 0 04075AA1D0 04250BA1 0 04250GA1 0 00075KA1D0 00062JA1 0 00167LA1 0 01000CA1 0 03005NA1 0 00000QA1 0 10167SA1D0 00073RA1 0 00228YA1 0 16007
0261724210938142000081803194+39050-084670FM-16+0267KCVG V0202501N005110084019N0040231N1+02101+02001999999ADDGA1999+008401091GD14991+0084019GF108991999999999999999999MA1101351999999MW1811MW2951REMMET130KCVG 180319Z 25010KT 210V280 2 1/2SM TSRA OVC028CB 21/20 A2993 RMK AO2 WSHFT 0237 PRESFR CONS LTGICACCG ALQDS TS S-W MOV SE P0022;EQDQ01+000003PRSWM1Q02    003PRSWM1
0054724210938142000081908009+39050-084667NSRDB+026599999V020999999999999999999999999999+99999+99999999999ADDGP10060000002000000002000000002000GR100600000900009
032572421093814200008200951C+39050-084667FM-15+0265CVG  V0200505N00465016765MN0160005N1+01445+00945102265ADDAA101000095GD13995+0167659GF107991999999999999999999MA1102345999999MW1001REMMET070KCVG 200951Z 05009KT 10SM BKN055 14/09 A3022 RMK AO2 SLP226 T01440094;EQDQ01+000000PRSWM2N01 00000JPWTH 0QNNAA1D0 04055BA1 0 04055GA1 0 00055KA1D0 00049JA1 0 00094LA1 0 01000CA1 0 03022NA1 0 00000QA1 0 10226SA1D0 00058RA1 0 00144YA1 0 05009
032572421093814200008201951C+39050-084667FM-15+0265CVG  V0200505N00365220005MN0160005N1+02285+01445102165ADDAA101000095GD12995+0121959GF104991999999999999999999MA1102245999999MW1001REMMET070KCVG 201951Z 05007KT 10SM SCT040 23/14 A3019 RMK AO2 SLP216 T02280144;EQDQ01+000000PRSWM2N01 00000JPWTH 0QNNAA1D0 02040BA1 0 02040GA1U0 99999KA1D0 00058JA1 0 00144LA1 0 01000CA1 0 03019NA1 0 00000QA1 0 10216SA1D0 00073RA1 0 00228YA1 0 05007
0220724210938142000082205514+39050-084670FM-15+0267KCVG V0209999C000012200019N0112651N1+01901+01801102221ADDGD12991+0750019GF102991999999999999999999KA1999M+02391KA2999N+01891MA1102301999999MD1810041+9999MW1001REMMET087KCVG 220551Z 00000KT 7SM FEW250 19/18 A3021 RMK AO2 SLP222 T01940178 10239 20189 58004;EQDQ01+000000PRSWM2
0278724210938142000082219033+39050-084670FM-16+0267KCVG V0202001N004110057019N0056331N1+02501+02201999999ADDGD13991+0057019GD23991+0330019GF107991999999999999999999GP10060043902008004802015039702008GQ100600298920449GR100601159913369MA1102341999999MW1051REMMET086KCVG 221903Z 20008KT 3SM HZ BKN019 BKN110 25/22 A3022 RMK AO2 SFC VIS 4 VIS 2 1/2 36R;EQDQ01+000003PRSWM1Q02    003PRSWM1
0235724210938142000082419063+39050-084670FM-16+0267KCVG V0202501N004610081019N0128741N1+02501+02201999999ADDGD12991+0069019GD23991+0081019GF107991999999999999999999GP10060065202008029902015039302008GQ100600305920429GR100601152913379MA1101901999999MW1001REMMET059KCVG 241906Z 25009KT 8SM SCT023 BKN027 25/22 A3009 RMK AO2;EQDQ01+000000PRSWM2
0071724210938142000082423009+39050-084667NSRDB+026599999V020999999999999999999999999999+99999+99999999999ADDGP10060015102008002302015014302008GQ100600695926739GR100600467913379
0502724210938142000082518003+39050-084667SY-MT+0265CVG  V0200805N00315076205MN0160005N1+02565+01505101925ADDAA101000095GD12995+0085359GD23995+0762059GF106991999999008001999999GP10060082002008066102015024102008GQ100600289917479GR100601171913389KA1120M+02611KA2240N+01721MA1102035098811MD1810041+9999REMSYN092AAXX  25184 72421 32566 60806 10256 20150 39881 40192 58004 91751 333 10261 20172 555 92518;EQDQ01  00002PRCP99Q02  00003PRCP99N01 00000JPWTH 0QNNAA1D0 02028BA1 0 02028AA1D0 04250BA1 0 04250GA1 0 00250KA1D0 00059JA1 0 00150LA1 0 01000CA1 0 03013NA1 0 00000QA1 0 10192SA1D0 00078RA1 0 00256YA1 0 08006
032572421093814200008272251C+39050-084667FM-15+0265CVG  V0203605N00265220005MN0160005N1+02615+02115101155ADDAA101000095GD12995+0112859GF104991999999999999999999MA1101255999999MW1001REMMET070KCVG 272251Z 36005KT 10SM SCT037 26/21 A2990 RMK AO2 SLP115 T02610211;EQDQ01+000000PRSWM2N01 00000JPWTH 0QNNAA1D0 02037BA1 0 02037GA1U0 99999KA1D0 00070JA1 0 00211LA1 0 01000CA1 0 02990NA1 0 00000QA1 0 10115SA1D0 00079RA1 0 00261YA1 0 36005
0220724210938142000082723514+39050-084670FM-15+0267KCVG V0203601N002612200019N0128741N1+02501+02101101191ADDGD12991+0135019GF102991999999999999999999KA1999M+02721KA2999N+02501MA1101291999999MD1310071+9999MW1001REMMET087KCVG 272351Z 36005KT 8SM FEW045 25/21 A2991 RMK AO2 SLP119 T02500206 10272 20250 53007;EQDQ01+000000PRSWM2
0071724210938142000082814009+39050-084667NSRDB+026599999V020999999999999999999999999999+99999+99999999999ADDGP10060033102008029802015019402008GQ100600627910049GR100600613913409
032472421093814200008301051C+39050-084667FM-15+0265CVG  V0200805N00155220005MN0144005N1+02115+01945101635ADDAA101000095GD11995+0762059GF102991999999999999999999MA1101735999999MW1001REMMET069KCVG 301051Z 08003KT 9SM FEW250 21/19 A3004 RMK AO2 SLP163 T02110194;EQDQ01+000000PRSWM2N01 00000JPWTH 0QNNAA1D0 02250BA1 0 01250GA1U0 99999KA1D0 00067JA1 0 00194LA1 0 00900CA1 0 03004NA1 0 00000QA1 0 10163SA1D0 00070RA1 0 00211YA1 0 08003
0787724210938142000083104596+39044-084672SOD  +0269KCVG V020999999999999999999999999999+99999+99999999999ADDAA124000096AJ100009599999999AL12400096AN1024000096KA1240M+03115KA2240N+02065MG1098319999994OE11240093908013395OE22240058109018205OE33240032299999995REMSOD59224 HR PRECIPITATION (IN): 0.00 SNOW DEPTH (IN):0.0   24 HR SNOWFALL (IN):0    24 HR MAX TEMP (F): 8824 HR MAX TEMP TIME (LST):1550 24 HR MIN TEMP (F): 6924 HR MIN TEMP TIME (LST):0638 AVERAGE STATION PRESSURE:29.03  PEAK WIND SPEED (MPH): 21 PEAK WIND DIR (DEG):080 PEAK WIND TIME (LST):1339  FASTEST 2MIN SPEED (MPH): 13FASTEST 2MIN DIR (DEG):090 FASTEST 2MIN TIME (LST):1820 AVERAGE WIND SPEED (MPH): 7.2 24 HR AVG TEMP (F):79 HOURLY INCREMENTAL PRECIPITATION VALUES (IN):.00  .00  .00  .00  .00  .00  .00  .00  .00  .00  .00  .00  .00  .00  .00  .00  .00  .00  .00  .00  .00  .00  .00  .00EQDR01  0.007AAP092R02     07ALS030
040772421093814200009041051C+39050-084667FM-15+0265CVG  V0201605N00215030485MN0160005N1+01945+01945101255ADDAA101000895GD12995+0243859GD23995+0304859GF107991999999999999999999MA1101355999999MW1615REMMET099KCVG 041051Z 16004KT 10SM -RA SCT080 BKN100 19/19 A2993 RMK AO2 CIG 080 36R SLP125 P0003 T01940194;EQDQ01+000003PRSWM1Q02    003PRSWM1N01 00020JPWTH 0QNNAA1D0 02080BA1 0 02080AA1D0 04100BA1 0 04100GA1 0 00100KA1D0 00067JA1 0 00194LA1 0 01000CA1 0 02993NA1 0 00020QA1 0 10125SA1D0 00067RA1 0 00194YA1 0 16004
041372421093814200009042151C+39050-084667FM-15+0265CVG  V0203605N00625009755MN0160005N1+02445+02005101495ADDAA101000095GD11995+0070159GD23995+0097559GD33995+0274359GF107991999999999999999999MA1101595999999MW1001REMMET084KCVG 042151Z 36012KT 10SM FEW023 BKN032 BKN090 24/20 A3000 RMK AO2 SLP149 T02440200;EQDQ01+000000PRSWM2N01 00000JPWTH 0QNNAA1D0 02023BA1 0 01023AA1D0 04032BA1 0 04032AA1D0 04090BA1 0 04090GA1 0 00032KA1D0 00068JA1 0 00200LA1 0 01000CA1 0 03000NA1 0 00000QA1 0 10149SA1D0 00076RA1 0 00244YA1 0 36012
032772421093814200009060251C+39050-084667FM-15+0265CVG  V0200805N00725220005MN0160005N1+01725+00675102395ADDAA101000095GF100991999999999999999999MA1102445999999MD1110121+9999MW1001REMMET073KCVG 060251Z 08014KT 10SM CLR 17/07 A3025 RMK AO2 SLP239 T01720067 51012;EQDQ01+000000PRSWM2N01 00000JPWTH 0QNNAA1D0 00000BA1 0 00000GA1U0 99999KA1D0 00044JA1 0 00067LA1 0 01000CA1 0 03025NA1 0 00000QA1 0 10239SA1D0 00063RA1 0 00172YA1 0 08014
0071724210938142000090817009+39050-084667NSRDB+026599999V020999999999999999999999999999+99999+99999999999ADDGP10060014802008000002015014802008GQ100600370915209GR100601076913479
0265724210938142000090917514+39050-084670FM-15+0267KCVG V0201801N004610150019N0160931N1+02701+02101101851ADDGD12991+0081019GD23991+0150019GD33991+0240019GF107991999999999999999999KA1999M+02831KA2999N+02001MA1101961999999MD1810091+9999MW1001REMMET102KCVG 091751Z 18009KT 10SM FEW027 BKN050 BKN080 27/21 A3011 RMK AO2 SLP185 T02720211 10283 20200 58009;EQDQ01+000000PRSWM2
0243724210938142000091205514+39050-084670FM-15+0267KCVG V0201501N003110300019N0160931N1+01901+01901101291ADDGD12991+0210019GD23991+0300019GF107991999999999999999999KA1999M+02061KA2999N+01831MA1101391999999MD1610061+9999MW1001REMMET095KCVG 120551Z 15006KT 10SM SCT075 BKN100 19/19 A2994 RMK AO2 SLP129 T01940189 10206 20183 56006;EQDQ01+000000PRSWM2
037872421093814200009121251C+39050-084667FM-15+0265CVG  V0201905N00265007925MN0024005N1+01945+01945101295ADDAA101002095GD14995+0079259GF108991999999999999999999MA1101355999999MW1101MW2455MW3635REMMET095KCVG 121251Z 19005KT 1 1/2SM RA BR OVC026 19/19 A2993 RMK AO2 TWR VIS 3 SLP129 P0008 T01940194;EQDQ01+000003PRSWM1Q02    003PRSWM1N01 02170JPWTH 0QNNAA1D0 06026BA1 0 06026GA1 0 00026KA1D0 00067JA1 0 00194LA1 0 00150CA1 0 02993NA1 0 02170QA1 0 10129SA1D0 00067RA1 0 00194YA1 0 19005
0054724210938142000091401009+39050-084667NSRDB+026599999V020999999999999999999999999999+99999+99999999999ADDGP10060000002000000002000000002000GR100600000900009
0054724210938142000091511009+39050-084667NSRDB+026599999V020999999999999999999999999999+99999+99999999999ADDGP10060000002000000002000000002000GR100600000900009
032572421093814200009181351C+39050-084667FM-15+0265CVG  V0202005N00215076205MN0160005N1+01565+01225102015ADDAA101000095GD13995+0762059GF107991999999999999999999MA1102075999999MW1001REMMET070KCVG 181351Z 20004KT 10SM BKN250 16/12 A3014 RMK AO2 SLP201 T01560122;EQDQ01+000000PRSWM2N01 00000JPWTH 0QNNAA1D0 04250BA1 0 04250GA1 0 00250KA1D0 00054JA1 0 00122LA1 0 01000CA1 0 03014NA1 0 00000QA1 0 10201SA1D0 00060RA1 0 00156YA1 0 20004
034572421093814200009181551C+39050-084667FM-15+0265CVG  V0209999V00155220005MN0160005N1+02115+01065101935ADDAA101000095GD19999+0750019GF107991999999999999999999MA1102005999999MW1001REMMET074KCVG 181551Z COR VRB03KT 10SM BKN250 21/11 A3012 RMK AO2 SLP193 T02110106;EQDQ01+000000PRSWM2N01 00000JPWTH 0P01     03SCCGD1QNNAA1D0 00000BA1 0 00000GA1U0 99999KA1D0 00051JA1 0 00106LA1 0 01000CA1 0 03012NA1 0 00000QA1 0 10193SA1D0 00070RA1 0 00211YA1 0 00003
0481724210938142000092218003+39050-084667SY-MT+0265CVG  V0201505N00525220005MN0160005N1+02395+01445101535ADDAA101000095GA1001+999999999GD10995+9999999GF100991001001999999001001GP10060075802008075602015017102008GQ100600392917959GR100601051913579KA1120M+02391KA2240N+01061MA1101595098381MD1810231+9999REMSYN092AAXX  22184 72421 32966 01510 10239 20144 39838 40153 58023 91751 333 10239 20106 555 92218;EQDQ01  00002PRCP99Q02  00003PRCP99N01 00000JPWTH 0QNNAA1D0 00000BA1 0 00000GA1U0 99999KA1D0 00058JA1 0 00144LA1 0 01000CA1 0 03000NA1 0 00000QA1 0 10153SA1D0 00075RA1 0 00239YA1 0 15010
037572421093814200009240751C+39050-084667FM-15+0265CVG  V0203305N00215001525MN0016005N1+01945+01945101155ADDAA101000095GD14995+0015259GF108991999999999999999999MA1101255999999MW1101MW2455REMMET098KCVG 240751Z 33004KT 1SM BR OVC005 19/19 A2990 RMK AO2 SFC VIS 2 1/2 CIG 002V006 SLP115 T01940194;EQDQ01+000003PRSWM1Q02    003PRSWM1N01 00070JPWTH 0QNNAA1D0 06005BA1 0 06005GA1 0 00005KA1D0 00067JA1 0 00194LA1 0 00100CA1 0 02990NA1 0 00070QA1 0 10115SA1D0 00067RA1 0 00194YA1 0 33004
033672421093814200009251251C+39050-084667FM-15+0265CVG  V0200705N00885005185MN0160005N1+01285+01065101135ADDAA101000095GD14995+0051859GF108991999999999999999999MA1101195999999MW1001OC101291REMMET073KCVG 251251Z 07017G25KT 10SM OVC017 13/11 A2988 RMK AO2 SLP113 T01280106;EQDQ01+000000PRSWM2N01 00000JPWTH 0QNNAA1D0 06017BA1 0 06017GA1 0 00017KA1D0 00051JA1 0 00106LA1 0 01000CA1 0 02988NA1 0 00000QA1 0 10113SA1D0 00055RA1 0 00128YA1 0 07017
0071724210938142000092615009+39050-084667NSRDB+026599999V020999999999999999999999999999+99999+99999999999ADDGP10060048702008065602015013802008GQ100600578912359GR100600723913619
0054724210938142000092701009+39050-084667NSRDB+026599999V020999999999999999999999999999+99999+99999999999ADDGP10060000002000000002000000002000GR100600000900009
0261724210938142000092711514+39050-084670FM-15+0267KCVG V0209999C000012200019N0080461N1+00601+00601102361ADDGD12991+0450019GD22991+0750019GF104991999999999999999999KA1999M+00721KA2999N+00391MA1102371999999MD1310081+9999MW1101REMMET097KCVG 271151Z 00000KT 5SM BR FEW150 SCT250 06/06 A3023 RMK AO2 SLP236 T00560056 10072 20039 53008;EQDQ01+000003PRSWM1Q02    003PRSWM1
030772421093814200009290651C+39050-084667FM-15+0265CVG  V0200705N00465220005MN0160005N1+00945+00565102645ADDAA101000095GF100991999999999999999999MA1102685999999MW1001REMMET067KCVG 290651Z 07009KT 10SM CLR 09/06 A3032 RMK AO2 SLP264 T00940056;EQDQ01+000000PRSWM2N01 00000JPWTH 0QNNAA1D0 00000BA1 0 00000GA1U0 99999KA1D0 00042JA1 0 00056LA1 0 01000CA1 0 03032NA1 0 00000QA1 0 10264SA1D0 00049RA1 0 00094YA1 0 07009
0221724210938142000100223514+39050-084670FM-15+0267KCVG V0202001N002612200019N0160931N1+02201+01701101111ADDGD12991+0150019GF102991999999999999999999KA1999M+02671KA2999N+02221MA1101191999999MD1010051+9999MW1001REMMET088KCVG 022351Z 20005KT 10SM FEW050 22/17 A2988 RMK AO2 SLP111 T02220167 10267 20222 50005;EQDQ01+000000PRSWM2
0243724210938142000100423514+39050-084670FM-15+0267KCVG V0200501N004610210019N0160931N1+02201+01601101341ADDGD13991+0210019GD24991+0750019GF108991999999999999999999KA1999M+02721KA2999N+02171MA1101421999999MD1310051+9999MW1001REMMET095KCVG 042351Z 05009KT 10SM BKN070 OVC250 22/16 A2995 RMK AO2 SLP134 T02170161 10272 20217 53005;EQDQ01+000000PRSWM2
036872421093814200010060051C+39050-084667FM-15+0265CVG  V0202605N00215039625MN0112005N1+01945+01835100985ADDAA101000095GD12995+0243859GD23995+0396259GF107991999999999999999999MA1101055999999MW1001REMMET076KCVG 060051Z 26004KT 7SM SCT080 BKN130 19/18 A2984 RMK AO2 SLP098 T01940183;EQDQ01+000000PRSWM2N01 00000JPWTH 0QNNAA1D0 02080BA1 0 02080AA1D0 04130BA1 0 04130GA1 0 00130KA1D0 00065JA1 0 00183LA1 0 00700CA1 0 02984NA1 0 00000QA1 0 10098SA1D0 00067RA1 0 00194YA1 0 26004
0464724210938142000101006003+39050-084667SY-MT+0265CVG  V0202705N00365220005MN0160005N1+00395-00065102595ADDAA101000095GA1001+999999999GD10995+9999999GF100991001001999999001001GP10060000002000000002000000002000GR100600000900009KA1240M+00781KA2240N+00061MA1102575099341MD1610061+9999REMSYN092AAXX  10064 72421 32966 02707 10039 21006 39934 40259 56006 90551 333 10078 20006 555 91006;EQDQ01  00002PRCP99Q02  00003PRCP99N01 00000JPWTH 0QNNAA1D0 00000BA1 0 00000GA1U0 99999KA1D0 00031JA1 0-00006LA1 0 01000CA1 0 03029NA1 0 00000QA1 0 10259SA1D0 00039RA1 0 00039YA1 0 27007
0054724210938142000101403009+39050-084667NSRDB+026599999V020999999999999999999999999999+99999+99999999999ADDGP10060000002000000002000000002000GR100600000900009
0071724210938142000101922009+39050-084667NSRDB+026599999V020999999999999999999999999999+99999+99999999999ADDGP10060019102008049702015006602008GQ100600755924339GR100600345913799
0202724210938142000102011514+39050-084670FM-15+0267KCVG V0209999C000012200019N0144841N1+01001+00801102301ADDGF100991999999999999999999KA1999M+01061KA2999N+00721MA1102341999999MD1110051+9999MW1001REMMET084KCVG 201151Z 00000KT 9SM CLR 10/08 A3022 RMK AO2 SLP230 T01000078 10106 20072 51005;EQDQ01+000000PRSWM2
0071724210938142000102115009+39050-084667NSRDB+026599999V020999999999999999999999999999+99999+99999999999ADDGP10060006702008000002015006702008GQ100600642913179GR100600599913819
0071724210938142000102313009+39050-084667NSRDB+026599999V020999999999999999999999999999+99999+99999999999ADDGP10060000002008000002015000002008GQ100600845910979GR100600132913829
0071724210938142000102322009+39050-084667NSRDB+026599999V020999999999999999999999999999+99999+99999999999ADDGP10060009302008002802015008702008GQ100600766924249GR100600320913829
0503724210938142000102406003+39050-084667SY-MT+0265CVG  V0209999C00005039625MN0080005N1+01675+01505102885ADDAA101000095GD13995+0396259GD24995+0762059GF108991999999999999999999GP10060000002000000002000000002000GR100600000900009KA1240M+02111KA2240N+01171MA1102955099701MD1510071+9999MW1101MW2455REMSYN098AAXX  24064 72421 31958 80000 10167 20150 39970 40288 55007 710// 90551 333 10211 20117 555 92406;EQDQ01  00002PRCP99Q02  00003PRCP99N01 00070JPWTH 0QNNAA1D0 04130BA1 0 04130AA1D0 06250BA1 0 06250GA1 0 00130KA1D0 00059JA1 0 00150LA1 0 00500CA1 0 03040NA1 0 00070QA1 0 10288SA1D0 00062RA1 0 00167YA1 0 00000
030872421093814200010300151C+39050-084667FM-15+0265CVG  V0200905N00365220005MN0160005N1+00895-00065102685ADDAA101000095GF100991999999999999999999MA1102685999999MW1001REMMET068KCVG 300151Z 09007KT 10SM CLR 09/M01 A3032 RMK AO2 SLP268 T00891006;EQDQ01+000000PRSWM2N01 00000JPWTH 0QNNAA1D0 00000BA1 0 00000GA1U0 99999KA1D0 00031JA1 0-00006LA1 0 01000CA1 0 03032NA1 0 00000QA1 0 10268SA1D0 00048RA1 0 00089YA1 0 09007
0244724210938142000103011514+39050-084670FM-15+0267KCVG V0200801N003610600019N0160931N1+00401-00101102631ADDGD12991+0420019GD23991+0600019GF107991999999999999999999KA1999M+00721KA2999N+00331MA1102641999999MD1010001+9999MW1001REMMET096KCVG 301151Z 08007KT 10SM FEW140 BKN200 04/M01 A3031 RMK AO2 SLP263 T00391006 10072 20033 50000;EQDQ01+000000PRSWM2
0448724210938142000103100003+39050-084667SY-MT+0265CVG  V0209999C00005220005MN0160005N1+00945+00005102415ADDAA101000095GD12995+0762059GF104991999999999999999999GP10060000002000000002000000002000GR100600000900009KA1120M+01781KA2180N+00331MA1102405099171MD1510021+9999REMSYN092AAXX  31004 72421 32966 40000 10094 20000 39917 40241 55002 92351 333 10178 20033 555 93100;EQDQ01  00002PRCP99Q02  00003PRCP99N01 00000JPWTH 0QNNAA1D0 02250BA1 0 02250GA1U0 99999KA1D0 00032JA1 0 00000LA1 0 01000CA1 0 03024NA1 0 00000QA1 0 10241SA1D0 00049RA1 0 00094YA1 0 00000
0464724210938142000103106003+39050-084667SY-MT+0265CVG  V0201005N00215220005MN0160005N1+00785+00005102395ADDAA101000095GA1001+999999999GD10995+9999999GF100991001001999999001001GP10060000002000000002000000002000GR100600000900009KA1240M+01221KA2240N+00331MA1102405099171MD1610031+9999REMSYN092AAXX  31064 72421 32966 01004 10078 20000 39917 40239 56003 90551 333 10122 20033 555 93106;EQDQ01  00002PRCP99Q02  00003PRCP99N01 00000JPWTH 0QNNAA1D0 00000BA1 0 00000GA1U0 99999KA1D0 00032JA1 0 00000LA1 0 01000CA1 0 03024NA1 0 00000QA1 0 10239SA1D0 00046RA1 0 00078YA1 0 10004
005172421093814200011030459O+39050-084667SOD  +026599999V020999999999999999999999999999+99999+99999999999ADDAT1MW16RA  1AT2MW01FG  5AT3MW13BR  1AT4MW08HZ  5
0448724210938142000110500003+39050-084667SY-MT+0265CVG  V0202605N00265220005MN0160005N1+00895+00175101855ADDAA101000095GD11995+0396259GF102991999999999999999999GP10060000002000000002000000002000GR100600000900009KA1120M+01391KA2180N+00891MA1101865098641MD1310031+9999REMSYN092AAXX  05004 72421 32966 22605 10089 20017 39864 40185 53003 92351 333 10139 20089 555 90500;EQDQ01  00002PRCP99Q02  00003PRCP99N01 00000JPWTH 0QNNAA1D0 02130BA1 0 01130GA1U0 99999KA1D0 00035JA1 0 00017LA1 0 01000CA1 0 03008NA1 0 00000QA1 0 10185SA1D0 00048RA1 0 00089YA1 0 26005
032472421093814200011071651C+39050-084667FM-15+0265CVG  V0201805N00315004275MN0128005N1+01725+01565101275ADDAA101000095GD14995+0042759GF108991999999999999999999MA1101325999999MW1001REMMET069KCVG 071651Z 18006KT 8SM OVC014 17/16 A2992 RMK AO2 SLP127 T01720156;EQDQ01+000000PRSWM2N01 00000JPWTH 0QNNAA1D0 06014BA1 0 06014GA1 0 00014KA1D0 00060JA1 0 00156LA1 0 00800CA1 0 02992NA1 0 00000QA1 0 10127SA1D0 00063RA1 0 00172YA1 0 18006
0071724210938142000110723009+39050-084667NSRDB+026599999V020999999999999999999999999999+99999+99999999999ADDGP10060000002008000002015000002008GQ100600876924669GR100600029906859
040272421093814200011090051C+39050-084667FM-15+0265CVG  V0209999C00005000615MN0003005N1+01395+01395101045ADDAA101000025GD14995+0006159GF108991999999999999999999MA1101085999999MW1441MW2455MW3615REMMET119KCVG 090051Z 00000KT M1/4SM -RA FG OVC002 14/14 A2985 RMK AO2 SFC VIS 1/2 RAE12B39 SLP104 PCPN VRY LGT P0000 T01390139;EQDQ01+000003PRSWM1Q02    003PRSWM1N01 02070JPWTH 0QNNAA1D0 06002BA1 0 06002GA1 0 00002KA1D0 00057JA1 0 00139LA1 0 00019CA1 0 02985NA1 0 02070QA1 0 10104SA1D0 00057RA1 0 00139YA1 0 00000
0281724210938142000110921264+39050-084670FM-16+0267KCVG V0201801N004610150019N0064371N1+01901+01601999999ADDGA1999+010501091GD12991+0105019GD23991+0150019GD34991+0240019GF108991999999999999999999MA1099391999999MW1801MW2951REMMET120KCVG 092126Z 18009KT 4SM -TSRA SCT035CB BKN050 OVC080 19/16 A2935 RMK AO2 TSB25RAB10 OCNL LTGICCA TS S-SW MOV ENE P0001;EQDQ01+000003PRSWM1Q02    003PRSWM1
033172421093814200011111351C+39050-084667FM-15+0265CVG  V0203605N00315220005MN0096005N1+00445+00335102635ADDAA101000095GF100991999999999999999999MA1102615999999MW1101MW2455REMMET069KCVG 111351Z 36006KT 6SM BR CLR 04/03 A3030 RMK AO2 SLP263 T00440033;EQDQ01+000003PRSWM1Q02    003PRSWM1N01 00070JPWTH 0QNNAA1D0 00000BA1 0 00000GA1U0 99999KA1D0 00038JA1 0 00033LA1 0 00600CA1 0 03030NA1 0 00070QA1 0 10263SA1D0 00040RA1 0 00044YA1 0 36006
0221724210938142000111123514+39050-084670FM-15+0267KCVG V0200901N007710750019N0160931N1+00701+00301102231ADDGD13991+0750019GF107991999999999999999999KA1999M+01061KA2999N+00721MA1102201999999MD1510031+9999MW1001REMMET088KCVG 112351Z 09015KT 10SM BKN250 07/03 A3018 RMK AO2 SLP223 T00720028 10106 20072 55003;EQDQ01+000000PRSWM2
0071724210938142000111219009+39050-084667NSRDB+026599999V020999999999999999999999999999+99999+99999999999ADDGP10060047702008063802015014902008GQ100600592919869GR100600715913979
0054724210938142000111901009+39050-084667NSRDB+026599999V020999999999999999999999999999+99999+99999999999ADDGP10060000002000000002000000002000GR100600000900009
032972421093814200011220251C+39050-084667FM-15+0265CVG  V0202505N00265220005MN0160005N1-00675-01335102855ADDAA101000095GF100991999999999999999999MA1102745999999MD1210041+9999MW1001REMMET075KCVG 220251Z 25005KT 10SM CLR M07/M13 A3034 RMK AO2 SLP285 T10671133 52004;EQDQ01+000000PRSWM2N01 00000JPWTH 0QNNAA1D0 00000BA1 0 00000GA1U0 99999KA1D0 00008JA1 0-00133LA1 0 01000CA1 0 03034NA1 0 00000QA1 0 10285SA1D0 00020RA1 0-00067YA1 0 25005
0054724210938142000112611009+39050-084667NSRDB+026599999V020999999999999999999999999999+99999+99999999999ADDGP10060000002000000002000000002000GR100600000900009
0071724210938142000112622009+39050-084667NSRDB+026599999V020999999999999999999999999999+99999+99999999999ADDGP10060003902009000502021003802009GQ100600827923529GR100600177914059
036372421093814200011272151C+39050-084667FM-15+0265CVG  V0202405N00465002445MN0064005N1+00285+00065101405ADDAA101000095GD14995+0024459GF108991999999999999999999MA1101355999999MW1101MW2455REMMET086KCVG 272151Z 24009KT 4SM BR OVC008 03/01 A2993 RMK AO2 VIS 1 3/4 36R SLP140 T00280006;EQDQ01+000003PRSWM1Q02    003PRSWM1N01 00070JPWTH 0QNNAA1D0 06008BA1 0 06008GA1 0 00008KA1D0 00033JA1 0 00006LA1 0 00400CA1 0 02993NA1 0 00070QA1 0 10140SA1D0 00037RA1 0 00028YA1 0 24009
0071724210938142000112921009+39050-084667NSRDB+026599999V020999999999999999999999999999+99999+99999999999ADDGP10060008702009000002021008702009GQ100600742922379GR100600382914069
0071724210938142000120216009+39050-084667NSRDB+026599999V020999999999999999999999999999+99999+99999999999ADDGP10060015702009000602021015502009GQ100600671915039GR100600547914089
032772421093814200012061351C+39050-084667FM-15+0265CVG  V0202205N00215076205MN0160005N1-00785-01115102475ADDAA101000095GD14995+0762059GF108991999999999999999999MA1102345999999MW1001REMMET072KCVG 061351Z 22004KT 10SM OVC250 M08/M11 A3022 RMK AO2 SLP247 T10781111;EQDQ01+000000PRSWM2N01 00000JPWTH 0QNNAA1D0 06250BA1 0 06250GA1 0 00250KA1D0 00012JA1 0-00111LA1 0 01000CA1 0 03022NA1 0 00000QA1 0 10247SA1D0 00018RA1 0-00078YA1 0 22004
0485724210938142000120912003+39050-084667SY-MT+0265CVG  V0200905N00465060965MN0144005N1-00675-00945102895ADDAA101000095GD11995+0426759GD23995+0609659GF106991999999999999999999GP10060000002000000002000000002000GR100600000900009KA1999M+00441KA2120N-00781MA1102815099571MD1310041+9999REMSYN092AAXX  09124 72421 32964 60909 11067 21094 39957 40289 53004 91151 333 10044 21078 555 90912;EQDQ01  00002PRCP99Q02  00003PRCP99N01 00000JPWTH 0QNNAA1D0 02140BA1 0 01140AA1D0 04200BA1 0 04200GA1 0 00200KA1D0 00015JA1 0-00094LA1 0 00900CA1 0 03036NA1 0 00000QA1 0 10289SA1D0 00020RA1 0-00067YA1 0 09009
0191724210938142000121122114+39050-084670FM-16+0267KCVG V0201801N005710096019N0048281N1+00901+00801999999ADDGD14991+0096019GF108991999999999999999999MA1100171999999MW1101REMMET082KCVG 112211Z 18011KT 3SM BR OVC032 09/08 A2958 RMK AO2 SFC VIS 5 RAB2154E04 P0000;EQDQ01+000003PRSWM1Q02    003PRSWM1
032772421093814200012130051C+39050-084667FM-15+0265CVG  V0202505N00155004885MN0160005N1-00675-00945103475ADDAA101000095GD14995+0048859GF108991999999999999999999MA1103355999999MW1001REMMET072KCVG 130051Z 25003KT 10SM OVC016 M07/M09 A3052 RMK AO2 SLP347 T10671094;EQDQ01+000000PRSWM2N01 00000JPWTH 0QNNAA1D0 06016BA1 0 06016GA1 0 00016KA1D0 00015JA1 0-00094LA1 0 01000CA1 0 03052NA1 0 00000QA1 0 10347SA1D0 00020RA1 0-00067YA1 0 25003
035172421093814200012141351C+39050-084667FM-15+0265CVG  V0202805N00575002135MN0096005N1-00065-00225102515ADDAA101000095GD14995+0021359GF108991999999999999999999MA1102445999999MW1101MW2455REMMET074KCVG 141351Z 28011KT 6SM BR OVC007 M01/M02 A3025 RMK AO2 SLP251 T10061022;EQDQ01+000003PRSWM1Q02    003PRSWM1N01 00070JPWTH 0QNNAA1D0 06007BA1 0 06007GA1 0 00007KA1D0 00028JA1 0-00022LA1 0 00600CA1 0 03025NA1 0 00070QA1 0 10251SA1D0 00031RA1 0-00006YA1 0 28011
0054724210938142000121601009+39050-084667NSRDB+026599999V020999999999999999999999999999+99999+99999999999ADDGP10060000002000000002000000002000GR100600000900009
0452724210938142000121619003+39050-084667FM-15+0265CVG  V0201705N00415002135MN0064005N1+01065+01005100365ADDAA101000895GD14995+0021359GF108991999999999999999999GP10060014002009000002021014002009GQ100600638919419GR100600623914139MA1100375999999MW1101MW2455MW3615REMMET101KCVG 161855Z 18007KT 2SM -RA BR OVC007 11/10 A2964 RMK AO2 SFC VIS 3 VIS 1 1/2 36R CIG 004V010 P0000;EQDQ01+000003PRSWM1Q02    003PRSWM1N01 02070JPWTH 0QNNAA1D0 06007BA1 0 06007GA1 0 00007KA1D0 00050JA1 0 00100LA1 0 00400CA1 0 02964NA1 0 02070QA1 0 10036SA1D0 00051RA1 0 00106YA1 0 17008
0208724210938142000121900214+39050-084670FM-16+0267KCVG V0201601N005710045019N0040231N1-00501-00601999999ADDGD13991+0045019GD24991+0090019GF108991999999999999999999MA1101081999999MW1101MW2711REMMET078KCVG 190021Z 16011KT 2 1/2SM -SN BR BKN015 OVC030 M05/M06 A2985 RMK AO2 P0000;EQDQ01+000003PRSWM1Q02    003PRSWM1
044472421093814200012190751C+39050-084667FM-15+0265CVG  V0202705N00675003665MN0040005N1-00725-01005101245ADDAA101000025GD13995+0036659GD23995+0064059GD34995+0112859GF108991999999999999999999MA1101155999999MW1715REMMET099KCVG 190751Z 27013KT 2 1/2SM -SN BKN012 BKN021 OVC037 M07/M10 A2987 RMK AO2 SLP124 P0000 T10721100;EQDQ01+000003PRSWM1Q02    003PRSWM1N01 00040JPWTH 0QNNAA1D0 04012BA1 0 04012AA1D0 04021BA1 0 04021AA1D0 06037BA1 0 06037GA1 0 00012KA1D0 00014JA1 0-00100LA1 0 00250CA1 0 02987NA1 0 00040QA1 0 10124SA1D0 00019RA1 0-00072YA1 0 27013
0071724210938142000122015009+39050-084667NSRDB+026599999V020999999999999999999999999999+99999+99999999999ADDGP10060017502009026602021011102009GQ100600762913679GR100600337914149
037172421093814200012210151C+39050-084667FM-15+0265CVG  V0201405N00415014025MN0160005N1-00785-01175102145ADDAA101000095GD13995+0140259GD24995+0396259GF108991999999999999999999MA1102005999999MW1001REMMET079KCVG 210151Z 14008KT 10SM BKN046 OVC130 M08/M12 A3012 RMK AO2 SLP214 T10781117;EQDQ01+000000PRSWM2N01 00000JPWTH 0QNNAA1D0 04046BA1 0 04046AA1D0 06130BA1 0 06130GA1 0 00046KA1D0 00011JA1 0-00117LA1 0 01000CA1 0 03012NA1 0 00000QA1 0 10214SA1D0 00018RA1 0-00078YA1 0 14008
0270724210938142000122123514+39050-084670FM-15+0267KCVG V0203201N003612200019N0160931N1-00901-01301102241ADDAA106000021AJ100089199999999GD12991+0069019GF104991999999999999999999KA1999M-00221KA2999N-00891MA1102131999999MD1110291+9999MW1001REMMET109KCVG 212351Z 32007KT 10SM SCT023 M09/M13 A3016 RMK AO2 SLP224 931004 4/003 60000 T10891128 11022 21089 51029;EQDQ01+000000PRSWM2
036372421093814200012220451C+39050-084667FM-15+0265CVG  V0202805N00465220005MN0160005N1-01445-01895102505ADDAA101000095GD11995+0061059GF102991999999999999999999KA1999M-00221KA2999N-01441MA1102375999999MW1001REMMET082KCVG 220451Z 28009KT 10SM FEW020 M14/M19 A3023 RMK AO2 SLP250 T11441189 410221144;EQDQ01+000000PRSWM2N01 00000JPWTH 0QNNAA1D0 02020BA1 0 01020GA1U0 99999KA1D0-00002JA1 0-00189LA1 0 01000CA1 0 03023NA1 0 00000QA1 0 10250SA1D0 00006RA1 0-00144YA1 0 28009
0054724210938142000122208009+39050-084667NSRDB+026599999V020999999999999999999999999999+99999+99999999999ADDGP10060000002000000002000000002000GR100600000900009
0054724210938142000122303009+39050-084667NSRDB+026599999V020999999999999999999999999999+99999+99999999999ADDGP10060000002000000002000000002000GR100600000900009
0071724210938142000122520009+39050-084667NSRDB+026599999V020999999999999999999999999999+99999+99999999999ADDGP10060025702009022402021017202009GQ100600677920749GR100600537914149
0071724210938142000122721009+39050-084667NSRDB+026599999V020999999999999999999999999999+99999+99999999999ADDGP10060013502009008602021011102009GQ100600739922019GR100600391914159
0054724210938142000122810009+39050-084667NSRDB+026599999V020999999999999999999999999999+99999+99999999999ADDGP10060000002000000002000000002000GR100600000900009
032772421093814200012291051C+39050-084667FM-15+0265CVG  V0201305N00215033535MN0160005N1-00785-01445101525ADDAA101000095GD14995+0335359GF108991999999999999999999MA1101425999999MW1001REMMET072KCVG 291051Z 13004KT 10SM OVC110 M08/M14 A2995 RMK AO2 SLP152 T10781144;EQDQ01+000000PRSWM2N01 00000JPWTH 0QNNAA1D0 06110BA1 0 06110GA1 0 00110KA1D0 00006JA1 0-00144LA1 0 01000CA1 0 02995NA1 0 00000QA1 0 10152SA1D0 00018RA1 0-00078YA1 0 13004
0071724210938142000122915009+39050-084667NSRDB+026599999V020999999999999999999999999999+99999+99999999999ADDGP10060003902009000002021003902009GQ100600766913579GR100600328914159
0071724210938142000122920009+39050-084667NSRDB+026599999V020999999999999999999999999999+99999+99999999999ADDGP10060005602009000002021005602009GQ100600673920719GR100600546914159
0203724210938142000122920134+39050-084670FM-16+0267KCVG V0202501N002110111019N0048281N1-00701-01201999999ADDGD13991+0111019GD24991+0180019GF108991999999999999999999MA1101081999999MW1711REMMET079KCVG 292013Z 25004KT 3SM -SN BKN037 OVC060 M07/M12 A2985 RMK AO2 SNB1957 P0000;EQDQ01+000003PRSWM1Q02    003PRSWM1
035872421093814200012311451C+39050-084667FM-15+0265CVG  V0202705N00415005795MN0112005N1-00565-00675102435ADDAA101000095GD14995+0057959GF108991999999999999999999MA1102345999999MD1110211+9999MW1001REMMET089KCVG 311451Z 27008KT 7SM OVC019 M06/M07 A3022 RMK AO2 CIG 013 36R SLP243 T10561067 51021;EQDQ01+000000PRSWM2N01 00000JPWTH 0QNNAA1D0 06019BA1 0 06019GA1 0 00019KA1D0 00020JA1 0-00067LA1 0 00700CA1 0 03022NA1 0 00000QA1 0 10243SA1D0 00022RA1 0-00056YA1 0 27008
033672422093820200001021554C+38033-084600FM-15+0294LEX  V0202005N01295220005MN0160005N1+01725+01065101615ADDAA101000095GF100991999999999999999999MA1101635999999MW1001OC101701REMMET088KLEX 021554Z 20025G33KT 10SM CLR 17/11 A3001 RMK AO2 PK WND 21033/1553 SLP161 T01720106;EQDQ01+000000PRSWM2N01 00000JPWTH 0QNNAA1D0 00000BA1 0 00000GA1U0 99999KA1D0 00051JA1 0 00106LA1 0 01000CA1 0 03001NA1 0 00000QA1 0 10161SA1D0 00063RA1 0 00172YA1 0 20025
0071724220938202000010313009+38033-084600NSRDB+029499999V020999999999999999999999999999+99999+99999999999ADDGP10060000002009000002021000002009GQ100600897911939GR100600000900839
033772422093820200001031554C+38033-084600FM-15+0294LEX  V0201205N00725007925MN0160005N1+01285+01175101455ADDAA101000025GD14995+0079259GF108991999999999999999999MA1101465999999MW1001REMMET082KLEX 031554Z 12014KT 10SM OVC026 13/12 A2996 RMK AO2 RAE22 SLP145 P0000 T01280117;EQDQ01+000000PRSWM2N01 00000JPWTH 0QNNAA1D0 06026BA1 0 06026GA1 0 00026KA1D0 00053JA1 0 00117LA1 0 01000CA1 0 02996NA1 0 00000QA1 0 10145SA1D0 00055RA1 0 00128YA1 0 12014
0457724220938202000010400003+38033-084600SY-MT+0294LEX  V0201805N01135033535MN0160005N1+01895+01285100515ADDAA101000095AA206000791GD11995+0137259GD23995+0335359GF106991999999012501999999GP10060000002000000002000000002000GR100600000900009KA1120M+02001MA1100545097001MD1810191+9999REMSYN098AAXX  04004 72422 12666 61822 10189 20128 39700 40051 58019 69901 92354 333 10200 91026 555 90400;EQDN01 00000JPWTH 0QNNAA1D0 02045BA1 0 01045AA1D0 04110BA1 0 04110GA1 0 00110KA1D0 00055JA1 0 00128LA1 0 01000CA1 0 02969NA1 0 00000QA1 0 10051SA1D0 00066RA1 0 00189YA1 0 18022
035072422093820200001040754C+38033-084600FM-15+0294LEX  V0202405N00575014335MN0160005N1+01285+00945100565ADDAA101000025GD14995+0143359GF108991999999999999999999MA1100585999999MW1635REMMET079KLEX 040754Z 24011KT 10SM RA OVC047 13/09 A2970 RMK AO2 SLP056 P0000 T01280094;EQDQ01+000003PRSWM1Q02    003PRSWM1N01 00021JPWTH 0QNNAA1D0 06047BA1 0 06047GA1 0 00047KA1D0 00049JA1 0 00094LA1 0 01000CA1 0 02970NA1 0 00021QA1 0 10056SA1D0 00055RA1 0 00128YA1 0 24011
0054724220938202000010501009+38033-084600NSRDB+029499999V020999999999999999999999999999+99999+99999999999ADDGP10060000002000000002000000002000GR100600000900009
0223724220938202000010611544+38050-084600FM-15+0301KLEX V0201801N003612200019N0160931N1-00301-00601102871ADDGD12991+0240019GF102991999999999999999999KA1999M-00331KA2999N-00501MA1102741999999MD1310031+9999MW1001REMMET090KLEX 061154Z 18007KT 10SM FEW080 M03/M06 A3034 RMK AO2 SLP287 T10331061 11033 21050 53003;EQDQ01+000000PRSWM2
0054724220938202000010705009+38033-084600NSRDB+029499999V020999999999999999999999999999+99999+99999999999ADDGP10060000002000000002000000002000GR100600000900009
034772422093820200001080854C+38033-084600FM-15+0294LEX  V0201505N00155220005MN0160005N1-00285-00945102875ADDAA101000095GD11995+0259159GF102991999999999999999999MA1102785999999MD1610111+9999MW1001REMMET078KLEX 080854Z 15003KT 10SM FEW085 M03/M09 A3035 RMK AO2 SLP287 T10281094 56011;EQDQ01+000000PRSWM2N01 00000JPWTH 0QNNAA1D0 02085BA1 0 01085GA1U0 99999KA1D0 00015JA1 0-00094LA1 0 01000CA1 0 03035NA1 0 00000QA1 0 10287SA1D0 00027RA1 0-00028YA1 0 15003
032772422093820200001080954C+38033-084600FM-15+0294LEX  V0209999C00005220005MN0160005N1-00225-01005102865ADDAA101000095GD11995+0243859GF102991999999999999999999MA1102745999999MW1001REMMET072KLEX 080954Z 00000KT 10SM FEW080 M02/M10 A3034 RMK AO2 SLP286 T10221100;EQDQ01+000000PRSWM2N01 00000JPWTH 0QNNAA1D0 02080BA1 0 01080GA1U0 99999KA1D0 00014JA1 0-00100LA1 0 01000CA1 0 03034NA1 0 00000QA1 0 10286SA1D0 00028RA1 0-00022YA1 0 00000
0054724220938202000011204009+38033-084600NSRDB+029499999V020999999999999999999999999999+99999+99999999999ADDGP10060000002000000002000000002000GR100600000900009
0266724220938202000011323544+38050-084600FM-15+0301KLEX V0203201N004610081019N0160931N1+00101-00401103401ADDGD13991+0081019GD23991+0102019GD34991+0150019GF108991999999999999999999KA1999M+00171KA2999N+00061MA1103321999999MD1110381+9999MW1001REMMET103KLEX 132354Z 32009KT 10SM BKN027 BKN034 OVC050 01/M04 A3051 RMK AO2 SLP340 T00061044 10017 20006 51038;EQDQ01+000000PRSWM2
032972422093820200001142054C+38033-084600FM-15+0294LEX  V0202705N00155220005MN0160005N1-00065-01005104145ADDAA101000095GF100991999999999999999999MA1104005999999MD1610171+9999MW1001REMMET075KLEX 142054Z 27003KT 10SM CLR M01/M10 A3071 RMK AO2 SLP414 T10061100 56017;EQDQ01+000000PRSWM2N01 00000JPWTH 0QNNAA1D0 00000BA1 0 00000GA1U0 99999KA1D0 00014JA1 0-00100LA1 0 01000CA1 0 03071NA1 0 00000QA1 0 10414SA1D0 00031RA1 0-00006YA1 0 27003
032772422093820200001161454C+38033-084600FM-15+0294LEX  V0202405N00525220005MN0160005N1+01005+00335102595ADDAA101000095GF100991999999999999999999MA1102575999999MD1110141+9999MW1001REMMET073KLEX 161454Z 24010KT 10SM CLR 10/03 A3029 RMK AO2 SLP259 T01000033 51014;EQDQ01+000000PRSWM2N01 00000JPWTH 0QNNAA1D0 00000BA1 0 00000GA1U0 99999KA1D0 00038JA1 0 00033LA1 0 01000CA1 0 03029NA1 0 00000QA1 0 10259SA1D0 00050RA1 0 00100YA1 0 24010
0250724220938202000011802304+38050-084600FM-15+0301KLEX V0201001N006710078019N0028161N1-00401-00601999999ADDAA101001391GD13991+0078019GD23991+0114019GD34991+0150019GF108991999999999999999999MA1102371999999MW1101MW2711REMMET094KLEX 180230Z 10013KT 1 3/4SM -SN BR BKN026 BKN038 OVC050 M04/M06 A3023 RMK AO2 PRESFR P0005 $;EQDQ01+000003PRSWM1Q02    003PRSWM1
037072422093820200001190354C+38033-084600FM-15+0294LEX  V0203005N00525003665MN0144005N1-00175-00285102235ADDAA101000095GD13995+0036659GD24995+0054959GF108991999999999999999999MA1102105999999MW1001REMMET078KLEX 190354Z 30010KT 9SM BKN012 OVC018 M02/M03 A3015 RMK AO2 SLP223 T10171028;EQDQ01+000000PRSWM2N01 00000JPWTH 0QNNAA1D0 04012BA1 0 04012AA1D0 06018BA1 0 06018GA1 0 00012KA1D0 00027JA1 0-00028LA1 0 00900CA1 0 03015NA1 0 00000QA1 0 10223SA1D0 00029RA1 0-00017YA1 0 30010
034772422093820200001221454C+38033-084600FM-15+0294LEX  V0201805N00415016765MN0160005N1-00505-00835102185ADDAA101000095GD13995+0167659GF107991999999999999999999MA1102035999999MD1010041+9999MW1001REMMET078KLEX 221454Z 18008KT 10SM BKN055 M05/M08 A3013 RMK AO2 SLP218 T10501083 50004;EQDQ01+000000PRSWM2N01 00000JPWTH 0QNNAA1D0 04055BA1 0 04055GA1 0 00055KA1D0 00017JA1 0-00083LA1 0 01000CA1 0 03013NA1 0 00000QA1 0 10218SA1D0 00023RA1 0-00050YA1 0 18008
0196724220938202000012216154+38050-084600FM-16+0301KLEX V0201501N004110039019N0020111N1-00401-00601999999ADDGD14991+0039019GF108991999999999999999999MA1101961999999MW1711REMMET071KLEX 221615Z 15008KT 1 1/4SM -SN BR OVC013 M04/M06 A3011 RMK AO2 P0000;EQDQ01+000100PRSWM3Q02+000003PRSWM1Q03    003PRSWM1
0178724220938202000012312234+38050-084600FM-16+0301KLEX V0209999C00001000301CN0032181N1-00101-00101999999ADDGD14991+0009019GF108991999999999999999999MA1101561999999MW1101REMMET069KLEX 231223Z 00000KT 2SM BR OVC003 M01/M01 A2999 RMK AO2 CIG 001V006;EQDQ01+000003PRSWM1Q02    003PRSWM1
0054724220938202000012511009+38033-084600NSRDB+029499999V020999999999999999999999999999+99999+99999999999ADDGP10060000002000000002000000002000GR100600000900009
035872422093820200001262054C+38033-084600FM-15+0294LEX  V0202905N00525012505MN0160005N1-00505-01225102315ADDAA101000095GD14995+0125059GF108991999999999999999999MA1102135999999MD1310041+9999MW1001OC100871REMMET081KLEX 262054Z 29010G17KT 10SM OVC041 M05/M12 A3016 RMK AO2 SLP231 T10501122 53004;EQDQ01+000000PRSWM2N01 00000JPWTH 0QNNAA1D0 06041BA1 0 06041GA1 0 00041KA1D0 00010JA1 0-00122LA1 0 01000CA1 0 03016NA1 0 00000QA1 0 10231SA1D0 00023RA1 0-00050YA1 0 29010
0054724220938202000013107009+38033-084600NSRDB+029499999V020999999999999999999999999999+99999+99999999999ADDGP10060000002000000002000000002000GR100600000900009
0054724220938202000020110009+38033-084600NSRDB+029499999V020999999999999999999999999999+99999+99999999999ADDGP10060000002000000002000000002000GR100600000900009
042672422093820200002011654C+38033-084600FM-15+0294LEX  V0202905N00625008535MN0128005N1-00225-00675102355ADDAA101000025GD12995+0073259GD23995+0085359GD34995+0106759GF108991999999999999999999MA1102205999999MW1001REMMET097KLEX 011654Z 29012KT 8SM SCT024 BKN028 OVC035 M02/M07 A3018 RMK AO2 SNE25 SLP235 P0000 T10221067;EQDQ01+000000PRSWM2N01 00000JPWTH 0QNNAA1D0 02024BA1 0 02024AA1D0 04028BA1 0 04028AA1D0 06035BA1 0 06035GA1 0 00028KA1D0 00020JA1 0-00067LA1 0 00800CA1 0 03018NA1 0 00000QA1 0 10235SA1D0 00028RA1 0-00022YA1 0 29012
0481724220938202000020818003+38033-084600SY-MT+0294LEX  V0201405N00215220005MN0128005N1+00615-00065102925ADDAA101000095GA1001+999999999GD10995+9999999GF100991001001999999001001GP10060062102008087902015009602008GQ100600535917329GR100600837914069KA1120M+00611KA2240N-00441MA1102815099201MD1810131+9999REMSYN092AAXX  08184 72422 32962 01404 10061 21006 39920 40292 58013 91754 333 10061 21044 555 90818;EQDQ01  00002PRCP99Q02  00003PRCP99N01 00000JPWTH 0QNNAA1D0 00000BA1 0 00000GA1U0 99999KA1D0 00031JA1 0-00006LA1 0 00800CA1 0 03036NA1 0 00000QA1 0 10292SA1D0 00043RA1 0 00061YA1 0 14004
030772422093820200002091554C+38033-084600FM-15+0294LEX  V0202205N00575220005MN0160005N1+00785+00065102385ADDAA101000095GF100991999999999999999999MA1102305999999MW1001REMMET067KLEX 091554Z 22011KT 10SM CLR 08/01 A3021 RMK AO2 SLP238 T00780006;EQDQ01+000000PRSWM2N01 00000JPWTH 0QNNAA1D0 00000BA1 0 00000GA1U0 99999KA1D0 00033JA1 0 00006LA1 0 01000CA1 0 03021NA1 0 00000QA1 0 10238SA1D0 00046RA1 0 00078YA1 0 22011
0071724220938202000020922009+38033-084600NSRDB+029499999V020999999999999999999999999999+99999+99999999999ADDGP10060024502008063102015006302008GQ100600733923519GR100600404914059
035672422093820200002121454C+38033-084600FM-15+0294LEX  V0200505N00465027435MN0160005N1+00005-00335102155ADDAA101000095GD13995+0274359GF107991999999999999999999MA1102035999999MD1110211+9999MW1001REMMET087KLEX 121454Z AUTO 05009KT 10SM BKN090 00/M03 A3013 RMK AO2 SLP215 T00001033 51021 TSNO;EQDQ01+000000PRSWM2N01 00000JPWTH 0QNNAA1D0 04090BA1 0 04090GA1 0 00090KA1D0 00026JA1 0-00033LA1 0 01000CA1 0 03013NA1 0 00000QA1 0 10215SA1D0 00032RA1 0 00000YA1 0 05009
032572422093820200002150154C+38033-084600FM-15+0294LEX  V0202905N00365004575MN0112005N1+00175-00065102005ADDAA101000095GD14995+0045759GF108991999999999999999999MA1101905999999MW1001REMMET070KLEX 150154Z 29007KT 7SM OVC015 02/M01 A3009 RMK AO2 SLP200 T00171006;EQDQ01+000000PRSWM2N01 00000JPWTH 0QNNAA1D0 06015BA1 0 06015GA1 0 00015KA1D0 00031JA1 0-00006LA1 0 00700CA1 0 03009NA1 0 00000QA1 0 10200SA1D0 00035RA1 0 00017YA1 0 29007
0054724220938202000021602009+38033-084600NSRDB+029499999V020999999999999999999999999999+99999+99999999999ADDGP10060000002000000002000000002000GR100600000900009
0071724220938202000021816009+38033-084600NSRDB+029499999V020999999999999999999999999999+99999+99999999999ADDGP10060009102008000002015009102008GQ100600599913899GR100600701914009
032772422093820200002201254C+38033-084600FM-15+0294LEX  V0202105N00315007015MN0160005N1-00065-00335103075ADDAA101000095GD14995+0070159GF108991999999999999999999MA1102955999999MW1001REMMET072KLEX 201254Z 21006KT 10SM OVC023 M01/M03 A3040 RMK AO2 SLP307 T10061033;EQDQ01+000000PRSWM2N01 00000JPWTH 0QNNAA1D0 06023BA1 0 06023GA1 0 00023KA1D0 00026JA1 0-00033LA1 0 01000CA1 0 03040NA1 0 00000QA1 0 10307SA1D0 00031RA1 0-00006YA1 0 21006
0430724220938202000022218003+38033-084600SY-MT+0294LEX  V0201905N00725018295MN0160005N1+01175+00225102765ADDAA101000095GD14995+0182959GF108991999999017501999999GP10060045002008020402015031402008GQ100600487917289GR100600922913989KA1240N+00611MA1102715099101MD1810111+9999REMSYN086AAXX  22184 72422 32766 81914 10117 20022 39910 40276 58011 91754 333 20061 555 92218;EQDQ01  00003PRCP99N01 00000JPWTH 0QNNAA1D0 06060BA1 0 06060GA1 0 00060KA1D0 00036JA1 0 00022LA1 0 01000CA1 0 03033NA1 0 00000QA1 0 10276SA1D0 00053RA1 0 00117YA1 0 19014
032572422093820200002230054C+38033-084600FM-15+0294LEX  V0201705N00575022865MN0160005N1+01115+00175102575ADDAA101000095GD14995+0228659GF108991999999999999999999MA1102545999999MW1001REMMET070KLEX 230054Z 17011KT 10SM OVC075 11/02 A3028 RMK AO2 SLP257 T01110017;EQDQ01+000000PRSWM2N01 00000JPWTH 0QNNAA1D0 06075BA1 0 06075GA1 0 00075KA1D0 00035JA1 0 00017LA1 0 01000CA1 0 03028NA1 0 00000QA1 0 10257SA1D0 00052RA1 0 00111YA1 0 17011
032772422093820200002250854C+38033-084600FM-15+0294LEX  V0201805N00525220005MN0160005N1+01335+00945102135ADDAA101000095GF100991999999999999999999MA1102135999999MD1010011+9999MW1001REMMET073KLEX 250854Z 18010KT 10SM CLR 13/09 A3016 RMK AO2 SLP213 T01330094 50001;EQDQ01+000000PRSWM2N01 00000JPWTH 0QNNAA1D0 00000BA1 0 00000GA1U0 99999KA1D0 00049JA1 0 00094LA1 0 01000CA1 0 03016NA1 0 00000QA1 0 10213SA1D0 00056RA1 0 00133YA1 0 18010
0054724220938202000030205009+38033-084600NSRDB+029499999V020999999999999999999999999999+99999+99999999999ADDGP10060000002000000002000000002000GR100600000900009
039572422093820200003031954C+38033-084600FM-15+0294LEX  V0203405N00365018295MN0160005N1+00445-00065101705ADDAA101000025GD12995+0128059GD24995+0182959GF108991999999999999999999MA1101635999999MW1001REMMET103KLEX 031954Z AUTO 34007KT 10SM SCT042 OVC060 04/M01 A3001 RMK AO2 RAB33E53 SLP170 P0000 T00441006 TSNO;EQDQ01+000000PRSWM2N01 00000JPWTH 0QNNAA1D0 02042BA1 0 02042AA1D0 06060BA1 0 06060GA1 0 00060KA1D0 00031JA1 0-00006LA1 0 01000CA1 0 03001NA1 0 00000QA1 0 10170SA1D0 00040RA1 0 00044YA1 0 34007
0261724220938202000030323544+38050-084600FM-15+0301KLEX V0200701N003110330019N0160931N1+00301-00101101471ADDAA106000021GD12991+0240019GD23991+0330019GF107991999999999999999999KA1999M+00501KA2999N+00331MA1101391999999MD1810071+9999MW1001REMMET102KLEX 032354Z 07006KT 10SM FEW080 BKN110 03/M01 A2994 RMK AO2 SLP147 60000 T00331011 10050 20033 58007;EQDQ01+000000PRSWM2
030772422093820200003070154C+38033-084600FM-15+0294LEX  V0201405N00155220005MN0160005N1+01395+00285102285ADDAA101000095GF100991999999999999999999MA1102275999999MW1001REMMET067KLEX 070154Z 14003KT 10SM CLR 14/03 A3020 RMK AO2 SLP228 T01390028;EQDQ01+000000PRSWM2N01 00000JPWTH 0QNNAA1D0 00000BA1 0 00000GA1U0 99999KA1D0 00037JA1 0 00028LA1 0 01000CA1 0 03020NA1 0 00000QA1 0 10228SA1D0 00057RA1 0 00139YA1 0 14003
034372422093820200003110754C+38033-084600FM-15+0294LEX  V0200205N00625010065MN0160005N1+00395+00065101555ADDAA101000095GD14995+0100659GF108991999999999999999999MA1101525999999MW1001OC100871REMMET080KLEX 110754Z 02012G17KT 10SM OVC033 04/01 A2998 RMK AO2 PRESRR SLP155 T00390006;EQDQ01+000000PRSWM2N01 00000JPWTH 0QNNAA1D0 06033BA1 0 06033GA1 0 00033KA1D0 00033JA1 0 00006LA1 0 01000CA1 0 02998NA1 0 00000QA1 0 10155SA1D0 00039RA1 0 00039YA1 0 02012
0475724220938202000031115003+38033-084600FM-15+0294LEX  V0200605N00365004575MN0040005N1+00285+00175101295ADDAA101000025GD14995+0045759GD23991+0024019GD34991+0045019GF108991999999999999999999GP10060007402008000002015007402008GQ100600618912059GR100600653913859MA1101225999999MW1101MW2455MW3611REMMET094KLEX 111459Z 06008KT 1 1/4SM -RA BR SCT004 BKN008 OVC015 03/02 A2989 RMK AO2 UPE57RAB57 P0000;EQDQ01+000003PRSWM1Q02    003PRSWM1N01 03970JPWTH 0QNNAA1D0 06015BA1 0 06015GA1 0 00015KA1D0 00035JA1 0 00017LA1 0 00250CA1 0 02989NA1 0 03970QA1 0 10129SA1D0 00037RA1 0 00028YA1 0 06007
030872422093820200003172154C+38033-084600FM-15+0294LEX  V0200505N00575220005MN0160005N1+00565-00445102855ADDAA101000095GF100991999999999999999999MA1102745999999MW1001REMMET068KLEX 172154Z 05011KT 10SM CLR 06/M04 A3034 RMK AO2 SLP285 T00561044;EQDQ01+000000PRSWM2N01 00000JPWTH 0QNNAA1D0 00000BA1 0 00000GA1U0 99999KA1D0 00024JA1 0-00044LA1 0 01000CA1 0 03034NA1 0 00000QA1 0 10285SA1D0 00042RA1 0 00056YA1 0 05011
0054724220938202000032501009+38033-084600NSRDB+029499999V020999999999999999999999999999+99999+99999999999ADDGP10060000002000000002000000002000GR100600000900009
043372422093820200003271454C+38033-084600FM-15+0294LEX  V0203005N00885010675MN0160005N1+01005+00565100061ADDAA101000095GD11995+0054959GD22995+0070159GD34995+0106759GF108991999999999999999999MA1100035999999MD1310161+9999MW1001OC101131REMMET093KLEX 271454Z 30017G22KT 10SM FEW018 SCT023 OVC035 10/06 A2954 RMK AO2 SLP006 T01000056 53016;EQDQ01+000000PRSWM2N01 00000JPWTH 0QNNAA1D0 02018BA1 0 01018AA1D0 02023BA1 0 02023AA1D0 06035BA1 0 06035GA1 0 00035KA1D0 00042JA1 0 00056LA1 0 01000CA1 0 02954NA1 0 00000SA1D0 00050RA1 0 00100YA1 0 30017
0054724220938202000032803009+38033-084600NSRDB+029499999V020999999999999999999999999999+99999+99999999999ADDGP10060000002000000002000000002000GR100600000900009
032672422093820200003290054C+38033-084600FM-15+0294LEX  V0202805N00625016765MN0160005N1+00445-00285100775ADDAA101000095GD14995+0167659GF108991999999999999999999MA1100715999999MW1001REMMET071KLEX 290054Z 28012KT 10SM OVC055 04/M03 A2974 RMK AO2 SLP077 T00441028;EQDQ01+000000PRSWM2N01 00000JPWTH 0QNNAA1D0 06055BA1 0 06055GA1 0 00055KA1D0 00027JA1 0-00028LA1 0 01000CA1 0 02974NA1 0 00000QA1 0 10077SA1D0 00040RA1 0 00044YA1 0 28012
0071724220938202000032914009+38033-084600NSRDB+029499999V020999999999999999999999999999+99999+99999999999ADDGP10060037802008070502015010102008GQ100600669910439GR100600538913719
035372422093820200004021954C+38033-084600FM-15+0294LEX  V0202205N00675003355MN0160005N1+01675+01615101245ADDAA101000395GD14995+0033559GF108991999999999999999999MA1101255999999MW1001OC100981REMMET090KLEX 021954Z 22013G19KT 10SM OVC011 17/16 A2990 RMK AO2 RAB1857E46 SLP124 P0001 T01670161;EQDQ01+000000PRSWM2N01 00000JPWTH 0QNNAA1D0 06011BA1 0 06011GA1 0 00011KA1D0 00061JA1 0 00161LA1 0 01000CA1 0 02990NA1 0 00000QA1 0 10124SA1D0 00062RA1 0 00167YA1 0 22013
0282724220938202000040320093+38050-084600FM-16+0301KLEX V0202501N005110036019N0128741N1+01501+01401999999ADDGD12991+0024019GD23991+0036019GD34991+0102019GF108991999999999999999999GP10060012202008000002015012202008GQ100600408922399GR100601034913679MA1100851999999MW1631REMMET075KLEX 032009Z 25010KT 8SM RA FEW008 BKN012 OVC034 15/14 A2978 RMK AO2 P0002;EQDQ01+000003PRSWM1Q02    003PRSWM1
0702724220938202000040404596+38041-084606SOD  +0301KLEX V020999999999999999999999999999+99999+99999999999ADDAA124029095AT1MW16RA  5AT2MW01FG  5AT3MW13BR  1KA1240M+01785KA2240N+00895MG1097329999994OE11240107329020425OE22240098330020435OE33240043899999995REMSOD54524 HR PRECIPITATION (IN): 1.14 24 HR MAX TEMP (F): 6424 HR MAX TEMP TIME (LST):1156 24 HR MIN TEMP (F): 4824 HR MIN TEMP TIME (LST):2353 AVERAGE STATION PRESSURE:28.74  PEAK WIND SPEED (MPH): 24 PEAK WIND DIR (DEG):290 PEAK WIND TIME (LST):2042  FASTEST 2MIN SPEED (MPH): 22FASTEST 2MIN DIR (DEG):300 FASTEST 2MIN TIME (LST):2043 AVERAGE WIND SPEED (MPH): 9.8 24 HR AVG TEMP (F):56 HOURLY INCREMENTAL PRECIPITATION VALUES (IN): T   .00  .03  .25  .11  .07   T    T   .00  .00  .00   T   .01  .04  .06  .14  .16  .08  .04  .02  .05  .03  .02  .03
035572422093820200004042254C+38033-084600FM-15+0294LEX  V0202805N00675021345MN0160005N1+00565-00395101595ADDAA101000095GD13995+0213459GF107991999999999999999999MA1101525999999MW1001OC101031REMMET092KLEX 042254Z 28013G20KT 10SM BKN070 06/M04 A2998 RMK AO2 PK WND 29030/2210 SLP159 T00561039;EQDQ01+000000PRSWM2N01 00000JPWTH 0QNNAA1D0 04070BA1 0 04070GA1 0 00070KA1D0 00025JA1 0-00039LA1 0 01000CA1 0 02998NA1 0 00000QA1 0 10159SA1D0 00042RA1 0 00056YA1 0 28013
033272422093820200004070854C+38033-084600FM-15+0294LEX  V0201005N00365220005MN0160005N1+01285+00285101065ADDAA101000095GF100991999999999999999999MA1101085999999MD1810171+9999MW1001REMMET078KLEX 070854Z 10007KT 10SM CLR 13/03 A2985 RMK AO2 SLP106 T01280028 58017 TSNO;EQDQ01+000000PRSWM2N01 00000JPWTH 0QNNAA1D0 00000BA1 0 00000GA1U0 99999KA1D0 00037JA1 0 00028LA1 0 01000CA1 0 02985NA1 0 00000QA1 0 10106SA1D0 00055RA1 0 00128YA1 0 10007
0397724220938202000040718003+38033-084600SY-MT+0294LEX  V0201905N00675008845MN0160005N1+01895+01395100885ADDAA101000095GD14995+0088459GF108991999999008001999999GP10060019302008000002015019302008GQ100600312917519GR100601166913639MA1100915097321REMSYN064AAXX  07184 72422 32566 81914 10190 20140 39732 91801 555 90718;EQDQ01  00002PRCP99Q02  00003PRCP99N01 00000JPWTH 0QNNAA1D0 06029BA1 0 06029GA1 0 00029KA1D0 00057JA1 0 00139LA1 0 01000CA1 0 02980NA1 0 00000QA1 0 10088SA1D0 00066RA1 0 00189YA1 0 19013
0071724220938202000040913009+38033-084600NSRDB+029499999V020999999999999999999999999999+99999+99999999999ADDGP10060021702008046902015009802008GQ100600753909159GR100600345913629
0071724220938202000040916009+38033-084600NSRDB+029499999V020999999999999999999999999999+99999+99999999999ADDGP10060075602008081702015014902008GQ100600421912779GR100601009913629
032572422093820200004101954C+38033-084600FM-15+0294LEX  V0201705N00365220005MN0160005N1+01835+00565102075ADDAA101000095GD11995+0335359GF102991999999999999999999MA1102035999999MW1001REMMET070KLEX 101954Z 17007KT 10SM FEW110 18/06 A3013 RMK AO2 SLP207 T01830056;EQDQ01+000000PRSWM2N01 00000JPWTH 0QNNAA1D0 02110BA1 0 01110GA1U0 99999KA1D0 00042JA1 0 00056LA1 0 01000CA1 0 03013NA1 0 00000QA1 0 10207SA1D0 00065RA1 0 00183YA1 0 17007
0391724220938202000041206003+38033-084600SY-MT+0294LEX  V0203305N00265007925MN0144005N1+00725+00565102605ADDAA101000095AA206000391GD14995+0079259GF108991999999008001999999GP10060000002000000002000000002000GR100600000900009MA1102575098971MD1110191+9999REMSYN082AAXX  12064 72422 12564 83305 10072 20056 39897 40260 51019 69931 90554 555 91206;EQDN01 00000JPWTH 0QNNAA1D0 06026BA1 0 06026GA1 0 00026KA1D0 00042JA1 0 00056LA1 0 00900CA1 0 03029NA1 0 00000QA1 0 10260SA1D0 00045RA1 0 00072YA1 0 33005
