0300718700999992000021200004+50280-107680SY-MT+0818CYYN V0201601N004110240019N0140001N1-01671-02081102031ADDAA124000091GD13991+0240099KA1120M-01401KA2180N-03031MA1101151091721MD1610141+9999MW1001REMSYN082AAXX  12004 71870 36964 61608 11167 21208 39172 40203 56014 333 11140 21303 70000;MET062CYYN 120000Z AUTO 16007KT 9SM BKN089 M17/M21 A2987 RMK SLP203;EQDQ01+000062SCOTCVQ02+000000PRSWM2Q03  00002PRCP24
0295718700999992000021500004+50280-107680SY-MT+0818CYYN V0201901N003112200019N0140001N1-01661-01991101361ADDAA124000021GF100991001001999999001001KA1120M-01231KA2180N-02181MA1100611091221MD1110011+9999MW1001REMSYN082AAXX  15004 71870 36964 01906 11166 21199 39122 40136 51001 333 11123 21218 70000;MET078CYYN 161800Z AUTO 21004KT 9SM CLR M14/M17 A3015 RMK PCPN 1.0MM PAST HR SLP283;EQDQ01+000000PRSWM2
0276718700999992000021912004+50280-107680SY-MT+0818CYYN V0202701N005112200019N0140001N1-00981-01351102371ADDAA124000591GF100991001001999999001001KA1999M-00541KA2120N-01261MA1101801092311MD1510001+9999MW1001REMSYN082AAXX  19124 71870 36964 02710 11098 21135 39231 40237 55000 333 11054 21126 70005;MET059CYYN 191200Z AUTO 27009KT 9SM CLR M10/M13 A3006 RMK SLP237;EQDQ01+000000PRSWM2
0137718700999992000021923004+50280-107680FM-15+0818CYYN V0202401N004612200019N0144841N1-00201-00701102161ADDGF100991999999999999999999MA1101631999999MW1001REMMET059CYYN 192300Z AUTO 24009KT 9SM CLR M02/M07 A3001 RMK SLP216;EQDQ01+000000PRSWM2
0137718700999992000022019004+50280-107680FM-15+0818CYYN V0202201N009312200019N0144841N1-00101-00601101421ADDGF100991999999999999999999MA1100951999999MW1001REMMET059CYYN 201900Z AUTO 22018KT 9SM CLR M01/M06 A2981 RMK SLP142;EQDQ01+000000PRSWM2
0135718700999992000022405004+50280-107680FM-15+0818CYYN V0201901N005712200019N0144841N1+00301+00001100711ADDGF100991999999999999999999MA1100411999999MW1001REMMET057CYYN 240500Z AUTO 19011KT 9SM CLR 03/00 A2965 RMK SLP071;EQDQ01+000000PRSWM2
0176718700999992000022417004+50280-107680FM-15+0818CYYN V0203401N001512200019N0144841N1+00101+00001100561ADDGD12991+0105099GD22991+0138099GF102991999999999999999999MA1100241999999MW1001REMMET068CYYN 241700Z AUTO 34003KT 9SM FEW035 FEW046 01/M00 A2960 RMK SLP056;EQDQ01+000000PRSWM2
0171718700999992000022505004+50280-107680FM-15+0818CYYN V0202901N008710006019N0028161N1-00201-00301100651ADDGD14991+0006099GF108991999999999999999999MA1100271999999MW1001REMMET078CYYN 250500Z AUTO 29017KT 1 3/4SM OVC002 M02/M03 A2961 RMK ICG PAST HR SLP065;EQDQ01+000000PRSWM2
0137718700999992000022713004+50280-107680FM-15+0818CYYN V0201901N004112200019N0144841N1-00801-01001101611ADDGF100991999999999999999999MA1101121999999MW1001REMMET059CYYN 271300Z AUTO 19008KT 9SM CLR M08/M10 A2986 RMK SLP161;EQDQ01+000000PRSWM2
0171718700999992000030623004+50280-107680FM-15+0818CYYN V0202401N00671000151CN0008051N1+00101+00101100711ADDGD14991+0001599GF108991999999999999999999MA1100341999999MW1001REMMET062CYYN 062300Z AUTO 24013KT 1/2SM OVC000 01/01 A2963 RMK SLP071;EQDQ01+000000PRSWM2Q02 220003SCOCIG
0137718700999992000030902004+50280-107680FM-15+0818CYYN V0200801N005712200019N0144841N1-01101-01601103081ADDGF100991999999999999999999MA1102441999999MW1001REMMET059CYYN 090200Z AUTO 08011KT 9SM CLR M11/M16 A3025 RMK SLP308;EQDQ01+000000PRSWM2
0155718700999992000030920004+50280-107680FM-15+0818CYYN V0201701N007212200019N0144841N1-00201-01001102231ADDGD12991+0081099GF102991999999999999999999MA1101661999999MW1001REMMET062CYYN 092000Z AUTO 17014KT 9SM FEW027 M02/M10 A3002 RMK SLP223;EQDQ01+000000PRSWM2
0219718700999992000031501004+50280-107680FM-15+0818CYYN V0200601N002110045019N0048281N1-01001-01201102001ADDGD13991+0045099GD24991+0075099GD34991+0099099GF108991999999999999999999MA1101391999999MW1711REMMET080CYYN 150100Z AUTO 06004KT 3SM -SN BKN015 OVC025 OVC033 M10/M12 A2994 RMK SLP200;EQDQ01+000003PRSWM1Q02    003PRSWM1
0284718700999992000031503004+50280-107680SY-MT+0818CYYN V0203101N002610105019N0140001N1-01101-01221102221ADDAA199000021GD12991+0060099GD23991+0105099GF199999999999008001999999MA1101591092121MD1310251+9999MW1001REMSYN060AAXX  15034 71870 35564 63105 11110 21122 39212 40222 53025;MET069CYYN 150300Z AUTO 33005KT 9SM FEW020 BKN035 M11/M12 A3000 RMK SLP222;EQDQ01+000062SCOTCVQ02+000000PRSWM2
0137718700999992000032507004+50280-107680FM-15+0818CYYN V0202301N004112200019N0144841N1-00401-00801101701ADDGF100991999999999999999999MA1101321999999MW1001REMMET059CYYN 250700Z AUTO 23008KT 9SM CLR M04/M08 A2992 RMK SLP170;EQDQ01+000000PRSWM2
0147718700999992000040408004+50280-107680FM-15+0818CYYN V0201901N009312200019N0144841N1+00301-00501100891ADDGF100991999999999999999999MA1100611999999MW1001OC101231REMMET061CYYN 040800Z AUTO 19018G24KT 9SM CLR 03/M05 A2971 RMK SLP089;EQDQ01+000000PRSWM2
0261718700999992000040815004+50280-107680SY-MT+0818CYYN V0202801N004612200019N0140001N1+00371-00221102091ADDAA199000091GD12991+0240099GF103991999999999999999999MA1101731092261MD1110121+9999MW1001REMSYN060AAXX  08154 71870 35964 32809 10037 21022 39226 40209 51012;MET061CYYN 081500Z AUTO 27009KT 9SM FEW084 04/M02 A3004 RMK SLP209;EQDQ01+000000PRSWM2Q02  00002PRCP99
0136718700999992000040913004+50280-107680FM-15+0818CYYN V0201401N002112200019N0144841N1+00101-00201102181ADDGF100991999999999999999999MA1101831999999MW1001REMMET058CYYN 091300Z AUTO 14004KT 9SM CLR 01/M02 A3007 RMK SLP218;EQDQ01+000000PRSWM2
0168718700999992000041214064+50280-107680FM-15+0818CYYN V0202801N002110051019N0040231N1+00301+00301999999ADDGD12991+0024099GD24991+0051099GF108991999999999999999999MA1101251999999MW1001REMMET060CYYN 121406Z AUTO 28004KT 2 1/2SM FEW008 OVC017 03/03 A2990;EQDQ01+000000PRSWM2
0135718700999992000041919004+50280-107680FM-15+0818CYYN V0201901N007712200019N0144841N1+01601+00101101631ADDGF100991999999999999999999MA1101421999999MW1001REMMET057CYYN 191900Z AUTO 19015KT 9SM CLR 16/01 A2995 RMK SLP163;EQDQ01+000000PRSWM2
0136718700999992000042011004+50280-107680FM-15+0818CYYN V0202201N005712200019N0144841N1+00501-00101101781ADDGF100991999999999999999999MA1101591999999MW1001REMMET058CYYN 201100Z AUTO 22011KT 9SM CLR 05/M01 A3000 RMK SLP178;EQDQ01+000000PRSWM2
0153718700999992000042323004+50280-107680FM-15+0818CYYN V0202901N011312200019N0144841N1+01601+00301100901ADDGD12991+0150099GF104991999999999999999999MA1100781999999MW1001REMMET060CYYN 232300Z AUTO 29022KT 9SM SCT053 16/03 A2976 RMK SLP090;EQDQ01+000000PRSWM2
0164718700999992000042904004+50280-107680FM-15+0818CYYN V0201601N009310240019N0144841N1+01501+00101100851ADDGD13991+0240099GF107991999999999999999999MA1100751999999MW1001OC101231REMMET063CYYN 290400Z AUTO 16018G24KT 9SM BKN083 15/01 A2975 RMK SLP085;EQDQ01+000000PRSWM2
0136718700999992000050516004+50280-107680FM-15+0818CYYN V0202901N004612200019N0144841N1+01101-00401101041ADDGF100991999999999999999999MA1100881999999MW1001REMMET058CYYN 051600Z AUTO 29009KT 9SM CLR 11/M04 A2979 RMK SLP104;EQDQ01+000000PRSWM2
0331718700999992000050518004+50280-107680SY-MT+0818CYYN V0202701N003112200019N0140001N1+01291-00611101021ADDAA124000091GD12991+0132099GD22991+0150099GF103991999999012501999999KA1120M+01351KA2240N+00541MA1100851091451MD1010001+9999MW1001REMSYN082AAXX  05184 71870 36664 32706 10129 21061 39145 40102 50000 333 10135 20054 70000;MET068CYYN 051800Z AUTO 27005KT 9SM FEW044 FEW055 13/M06 A2978 RMK SLP102;EQDQ01+000000PRSWM2Q02  00002PRCP24
0136718700999992000050708004+50280-107680FM-15+0818CYYN V0202801N005712200019N0144841N1+00501-00201101241ADDGF100991999999999999999999MA1101051999999MW1001REMMET058CYYN 070800Z AUTO 28011KT 9SM CLR 05/M02 A2984 RMK SLP124;EQDQ01+000000PRSWM2
0291718700999992000050818004+50280-107680SY-MT+0818CYYN V0203201N003112200019N0140001N1+01141-00261101581ADDAA124000091GF100991001001999999001001KA1120M+01191KA2240N-00101MA1101321091891MD1810091+9999MW1001REMSYN082AAXX  08184 71870 36964 03206 10114 21026 39189 40158 58009 333 10119 21010 70000;MET058CYYN 081800Z AUTO 34007KT 9SM CLR 11/M03 A2992 RMK SLP158;EQDQ01+000000PRSWM2Q02  00002PRCP24
0166718700999992000051202034+50280-107680FM-15+0818CYYN V0200301N01231000151CN0006041N1-00101-00101999999ADDGD14991+0001599GF108991999999999999999999MA1100711999999MW1001REMMET057CYYN 120203Z AUTO 03024KT 3/8SM -UP OVC000 M01/M01 A2974;EQDQ01+000000PRSWM2Q02 220003SCOCIG
0135718700999992000051307004+50280-107680FM-15+0818CYYN V0202701N004612200019N0144841N1+00201+00001102151ADDGF100991999999999999999999MA1101801999999MW1001REMMET057CYYN 130700Z AUTO 27009KT 9SM CLR 02/00 A3006 RMK SLP215;EQDQ01+000000PRSWM2
0135718700999992000051608004+50280-107680FM-15+0818CYYN V0202201N004112200019N0144841N1+00601+00601101431ADDGF100991999999999999999999MA1101221999999MW1001REMMET057CYYN 160800Z AUTO 22008KT 9SM CLR 06/06 A2989 RMK SLP143;EQDQ01+000000PRSWM2
0136718700999992000052410004+50280-107680FM-15+0818CYYN V0202701N005712200019N0144841N1+00401-00201101581ADDGF100991999999999999999999MA1101351999999MW1001REMMET058CYYN 241000Z AUTO 27011KT 9SM CLR 04/M02 A2993 RMK SLP158;EQDQ01+000000PRSWM2
0136718700999992000052507004+50280-107680FM-15+0818CYYN V0201401N006212200019N0144841N1+00801-00501100861ADDGF100991999999999999999999MA1100711999999MW1001REMMET058CYYN 250700Z AUTO 14012KT 9SM CLR 08/M05 A2974 RMK SLP086;EQDQ01+000000PRSWM2
0282718700999992000052615004+50280-107680SY-MT+0818CYYN V0200701N001012200019N0140001N1+01271+00591100471ADDAA199000091GD12991+0240099GD22991+0270099GF103991999999022501999999MA1100441091081MD1110071+9999MW1001REMSYN060AAXX  26154 71870 35864 30702 10127 20059 39108 40047 51007;MET067CYYN 261500Z AUTO 06003KT 9SM FEW081 FEW093 13/06 A2966 RMK SLP047;EQDQ01+000000PRSWM2Q02  00002PRCP99
0197718700999992000052914004+50280-107680FM-15+0818CYYN V0202701N004110150019N0144841N1+00701+00501101691ADDGD12991+0072099GD23991+0150099GD34991+0210099GF108991999999999999999999MA1101561999999MW1001REMMET074CYYN 291400Z AUTO 27008KT 9SM SCT024 BKN057 OVC077 07/05 A2999 RMK SLP169;EQDQ01+000000PRSWM2
0236718700999992000060316004+50280-107680FM-15+0818CYYN V0200701N007210018019N0080461N1+01101+01101102231ADDGD13991+0018099GD23991+0150099GD33991+0240099GF107991999999999999999999MA1102131999999MW1611REMMET097CYYN 031600Z AUTO 07014KT 5SM -RA BKN006 BKN055 BKN086 11/11 A3016 RMK PCPN 0.5MM PAST HR SLP223;EQDQ01+000003PRSWM1Q02    003PRSWM1
0208718700999992000060322004+50280-107680FM-15+0818CYYN V0201101N006212200019N0144841N1+01301+00601102561ADDGD12991+0078099GD22991+0210099GD32991+0270099GF104991999999999999999999MA1102441999999MW1001OC101031REMMET077CYYN 032200Z AUTO 11012G20KT 9SM SCT026 SCT078 SCT097 13/06 A3025 RMK SLP256;EQDQ01+000000PRSWM2
0135718700999992000060608004+50280-107680FM-15+0818CYYN V0201301N005712200019N0144841N1+01401+00901101261ADDGF100991999999999999999999MA1101321999999MW1001REMMET057CYYN 060800Z AUTO 13011KT 9SM CLR 14/09 A2992 RMK SLP126;EQDQ01+000000PRSWM2
0374718700999992000060618004+50280-107680SY-MT+0818CYYN V0202401N002112200019N0140001N1+02381+01151101051ADDAA124000091GD12991+0108099GD22991+0144099GD32991+0210099GD42991+0270099GF103991999999012501999999KA1120M+02431KA2240N+01241MA1101121091701MD1610041+9999MW1001REMSYN082AAXX  06184 71870 36664 32404 10238 20115 39170 40105 56004 333 10243 20124 70000;MET081CYYN 061800Z AUTO 24003KT 9SM FEW036 FEW048 FEW072 FEW092 24/12 A2986 RMK SLP105;EQDQ01+000000PRSWM2Q02  00002PRCP24
0242718700999992000060621004+50280-107680SY-MT+0818CYYN V0202801N003612200019N0140001N1+02471+00731101021ADDAA199000091GF100991001001999999001001MA1101081091671MD1810031+9999MW1001REMSYN060AAXX  06214 71870 35964 02807 10247 20073 39167 40102 58003;MET057CYYN 062100Z AUTO 28007KT 9SM CLR 25/07 A2985 RMK SLP102;EQDQ01+000000PRSWM2Q02  00002PRCP99
0260718700999992000061009004+50280-107680SY-MT+0818CYYN V0200901N004610001519N0140001N1+01111+01111100401ADDAA199000091GD14991+0001599GF108991999999000251999999MA1100411091051MD1310041+9999MW1001REMSYN060AAXX  10094 71870 35064 80909 10111 20111 39105 40040 53004;MET060CYYN 100900Z AUTO 10008KT 9SM OVC000 11/11 A2965 RMK SLP040;EQDQ01+000000PRSWM2Q02  00002PRCP99
0183718700999992000061119004+50280-107680FM-15+0818CYYN V0202501N011312200019N0144841N1+01601+00201101031ADDGD12991+0180099GF102991999999999999999999MA1100981999999MW1001OC101441REMMET082CYYN 111900Z AUTO 25022G28KT 9SM FEW061 16/02 A2982 RMK PCPN 0.5MM PAST HR SLP103;EQDQ01+000000PRSWM2
0186718700999992000061219004+50280-107680FM-15+0818CYYN V0202401N005712200019N0144841N1+02001+00401100911ADDGD12991+0150099GD22991+0270099GF102991999999999999999999MA1100881999999MW1001OC100871REMMET070CYYN 121900Z AUTO 24011G17KT 9SM FEW056 FEW092 20/04 A2979 RMK SLP091;EQDQ01+000000PRSWM2
0197718700999992000061610004+50280-107680FM-15+0818CYYN V0203201N007210012019N0144841N1+00801+00801101301ADDGD14991+0012099GD24991+0054099GD34991+0075099GF108991999999999999999999MA1101191999999MW1001REMMET074CYYN 161000Z AUTO 32014KT 9SM OVC004 OVC018 OVC025 08/08 A2988 RMK SLP130;EQDQ01+000000PRSWM2
0242718700999992000061809004+50280-107680SY-MT+0818CYYN V0201901N005712200019N0140001N1+00731+00471101291ADDAA199000091GF100991001001999999001001MA1101191091761MD1810131+9999MW1001REMSYN060AAXX  18094 71870 35964 01911 10073 20047 39176 40129 58013;MET057CYYN 180900Z AUTO 18010KT 9SM CLR 07/05 A2988 RMK SLP129;EQDQ01+000000PRSWM2Q02  00002PRCP99
0135718700999992000061811004+50280-107680FM-15+0818CYYN V0201801N006212200019N0144841N1+00601+00401101151ADDGF100991999999999999999999MA1101081999999MW1001REMMET057CYYN 181100Z AUTO 18012KT 9SM CLR 06/04 A2985 RMK SLP115;EQDQ01+000000PRSWM2
0260718700999992000061915004+50280-107680SY-MT+0818CYYN V0202701N006212200019N0140001N1+01401+01041100331ADDAA199000091GD12991+0141099GF103991999999012501999999MA1100371091001MD1310071+9999MW1001REMSYN060AAXX  19154 71870 35664 32712 10140 20104 39100 40033 53007;MET060CYYN 191500Z AUTO 26012KT 9SM FEW047 14/10 A2964 RMK SLP033;EQDQ01+000000PRSWM2Q02  00002PRCP99
0135718700999992000070805004+50280-107680FM-15+0818CYYN V0202101N004612200019N0144841N1+01401+01201101101ADDGF100991999999999999999999MA1101121999999MW1001REMMET057CYYN 080500Z AUTO 21009KT 9SM CLR 14/12 A2986 RMK SLP110;EQDQ01+000000PRSWM2
0135718700999992000070817004+50280-107680FM-15+0818CYYN V0203001N003112200019N0144841N1+02201+01301101351ADDGF100991999999999999999999MA1101391999999MW1001REMMET057CYYN 081700Z AUTO 30006KT 9SM CLR 22/13 A2994 RMK SLP135;EQDQ01+000000PRSWM2
0135718700999992000071416004+50280-107680FM-15+0818CYYN V0201801N005112200019N0144841N1+02701+01601101241ADDGF100991999999999999999999MA1101421999999MW1001REMMET057CYYN 141600Z AUTO 18010KT 9SM CLR 27/16 A2995 RMK SLP124;EQDQ01+000000PRSWM2
0146718700999992000071516004+50280-107680FM-15+0818CYYN V0202801N012912200019N0144841N1+02101+00901100981ADDGF100991999999999999999999MA1101081999999MW1001OC101901REMMET060CYYN 151600Z AUTO 28025G37KT 9SM CLR 21/09 A2985 RMK SLP098;EQDQ01+000000PRSWM2
0405718700999992000071818004+50280-107680SY-MT+0818CYYN V0203501N002610051019N0140001N1+01601+01301101931ADDAA106000591GD13991+0051099GD23991+0150099GD33991+0240099GD43991+0270099GF199999999999004501999999KA1120M+01611KA2240N+01141MA1101901092431MD1010001+9999MW1001REMSYN094AAXX  18184 71870 1/464 63505 10160 20130 39243 40193 50000 69951 7//4/ 333 10161 20114 70030;MET100CYYN 181800Z AUTO 01005KT 9SM BKN017 BKN056 BKN083 BKN097 16/13 A3009 RMK PCPN 0.5MM PAST HR SLP193;EQDQ01+000062SCOTCVQ02+000000PRSWM2
0242718700999992000072609004+50280-107680SY-MT+0818CYYN V0201801N007212200019N0140001N1+01621+01281101091ADDAA199000091GF100991001001999999001001MA1101191091761MD1610021+9999MW1001REMSYN060AAXX  26094 71870 35964 01814 10162 20128 39176 40109 56002;MET057CYYN 260900Z AUTO 18013KT 9SM CLR 16/13 A2988 RMK SLP109;EQDQ01+000000PRSWM2Q02  00002PRCP99
0135718700999992000072923004+50280-107680FM-15+0818CYYN V0203301N004112200019N0144841N1+02901+01501101411ADDGF100991999999999999999999MA1101521999999MW1001REMMET057CYYN 292300Z AUTO 33008KT 9SM CLR 29/15 A2998 RMK SLP141;EQDQ01+000000PRSWM2
0135718700999992000073023004+50280-107680FM-15+0818CYYN V0200801N002112200019N0144841N1+03101+01701101201ADDGF100991999999999999999999MA1101351999999MW1001REMMET057CYYN 302300Z AUTO 08004KT 9SM CLR 31/17 A2993 RMK SLP120;EQDQ01+000000PRSWM2
0242718700999992000081103004+50280-107680SY-MT+0818CYYN V0200301N005112200019N0140001N1+02351+01761100741ADDAA199000091GF100991001001999999001001MA1100951091551MD1310091+9999MW1001REMSYN060AAXX  11034 71870 35964 00310 10235 20176 39155 40074 53009;MET057CYYN 110300Z AUTO 03010KT 9SM CLR 24/18 A2981 RMK SLP074;EQDQ01+000000PRSWM2Q02  00002PRCP99
0153718700999992000082517004+50280-107680FM-15+0818CYYN V0202701N004612200019N0096561N1+02701+00701101341ADDGD12991+0240099GF102991999999999999999999MA1101491999999MW1001REMMET060CYYN 251700Z AUTO 27009KT 6SM FEW087 27/07 A2997 RMK SLP134;EQDQ01+000000PRSWM2
0135718700999992000082710004+50280-107680FM-15+0818CYYN V0202701N005112200019N0144841N1+00801+00501100641ADDGF100991999999999999999999MA1100751999999MW1001REMMET057CYYN 271000Z AUTO 27010KT 9SM CLR 08/05 A2975 RMK SLP064;EQDQ01+000000PRSWM2
0242718700999992000082803004+50280-107680SY-MT+0818CYYN V0200201N004112200019N0140001N1+01501+00461100851ADDAA199000091GF100991001001999999001001MA1100851091451MD1110211+9999MW1001REMSYN060AAXX  28034 71870 35964 00208 10150 20046 39145 40085 51021;MET057CYYN 280300Z AUTO 03007KT 9SM CLR 15/05 A2978 RMK SLP085;EQDQ01+000000PRSWM2Q02  00002PRCP99
0146718700999992000090822004+50280-107680FM-15+0818CYYN V0202401N010312200019N0144841N1+02501+00201099411ADDGF100991999999999999999999MA1099491999999MW1001OC101391REMMET060CYYN 082200Z AUTO 24020G27KT 9SM CLR 25/02 A2938 RMK SLP941;EQDQ01+000000PRSWM2
0260718700999992000091303004+50280-107680SY-MT+0818CYYN V0200601N002110270019N0140001N1+01461+00341101221ADDAA199000091GD14991+0270099GF108991999999999999999999MA1101151091741MD1310051+9999MW1001REMSYN060AAXX  13034 71870 35964 80604 10146 20034 39174 40122 53005;MET060CYYN 130300Z AUTO 07003KT 9SM OVC093 15/03 A2987 RMK SLP122;EQDQ01+000000PRSWM2Q02  00002PRCP99
0242718700999992000091715004+50280-107680SY-MT+0818CYYN V0202401N004112200019N0140001N1+02031+00671100961ADDAA199000091GF100991001001999999001001MA1101021091601MD1810091+9999MW1001REMSYN060AAXX  17154 71870 35964 02408 10203 20067 39160 40096 58009;MET057CYYN 171500Z AUTO 24008KT 9SM CLR 20/07 A2983 RMK SLP096;EQDQ01+000000PRSWM2Q02  00002PRCP99
0291718700999992000092009004+50280-107680SY-MT+0818CYYN V0203301N004610084019N9999999N1+00591+00571101961ADDAA199000021GD14991+0084099GD24991+0114099GD34991+0141099GF108991999999002501999999MA1101801092321MD1310041+9999MW1001REMSYN060AAXX  20094 71870 353// 83309 10059 20057 39232 40196 53004;MET077CYYN 200900Z AUTO 32008KT OVC009 OVC028 OVC038 OVC047 06/06 A3006 RMK SLP196;EQDQ01+000000PRSWM2
0157718700999992000092222004+50280-107680FM-15+0818CYYN V0203501N004610210019N9999999N1+00101-00501102721ADDGD14991+0210099GF108991999999999999999999MA1102371999999MW1001REMMET064CYYN 222200Z AUTO 35009KT OVC026 OVC073 01/M05 A3023 RMK SLP272;EQDQ01+000000PRSWM2
0146718700999992000092923004+50280-107680FM-15+0818CYYN V0202901N005112200019N0144841N1+02101+00301100421ADDGF100991999999999999999999MA1100411999999MW1001OC100871REMMET060CYYN 292300Z AUTO 29010G17KT 9SM CLR 21/03 A2965 RMK SLP042;EQDQ01+000000PRSWM2
0177718700999992000100311004+50280-107680FM-15+0818CYYN V0203201N005110180019N0144841N1-00201-00701102221ADDGD14991+0180099GD24991+0270099GF108991999999999999999999MA1101931999999MW1001REMMET069CYYN 031100Z AUTO 32010KT 9SM OVC066 OVC099 M02/M07 A3010 RMK SLP222;EQDQ01+000000PRSWM2
0244718700999992000100709004+50280-107680SY-MT+0818CYYN V0201901N006212200019N0140001N1-00541-01021103701ADDAA199000091GF100991001001999999001001MA1103321093721MD1810031+9999MW1001REMSYN060AAXX  07094 71870 35964 01912 11054 21102 39372 40370 58003;MET059CYYN 070900Z AUTO 19012KT 9SM CLR M05/M10 A3051 RMK SLP370;EQDQ01+000000PRSWM2Q02  00002PRCP99
0135718700999992000101116004+50280-107680FM-15+0818CYYN V0203301N002112200019N0128741N1+00401+00001101241ADDGF100991999999999999999999MA1101081999999MW1001REMMET057CYYN 111600Z AUTO 33004KT 8SM CLR 04/00 A2985 RMK SLP124;EQDQ01+000000PRSWM2
0135718700999992000101117004+50280-107680FM-15+0818CYYN V0202901N003112200019N0144841N1+00601+00101101301ADDGF100991999999999999999999MA1101121999999MW1001REMMET057CYYN 111700Z AUTO 29006KT 9SM CLR 06/01 A2986 RMK SLP130;EQDQ01+000000PRSWM2
0135718700999992000101716004+50280-107680FM-15+0818CYYN V0202601N005712200019N0144841N1+00901+00301101801ADDGF100991999999999999999999MA1101631999999MW1001REMMET057CYYN 171600Z AUTO 26011KT 9SM CLR 09/03 A3001 RMK SLP180;EQDQ01+000000PRSWM2
0136718700999992000102007004+50280-107680FM-15+0818CYYN V0209999C000012200019N0144841N1+00201-00401101841ADDGF100991999999999999999999MA1101661999999MW1001REMMET058CYYN 200700Z AUTO 00000KT 9SM CLR 02/M04 A3002 RMK SLP184;EQDQ01+000000PRSWM2
0291718700999992000102100004+50280-107680SY-MT+0818CYYN V0201801N006212200019N0140001N1+01391-00101100471ADDAA124000091GF100991001001999999001001KA1120M+01731KA2180N-00241MA1100311090951MD1610251+9999MW1001REMSYN082AAXX  21004 71870 36964 01812 10139 21010 39095 40047 56025 333 10173 21024 70000;MET058CYYN 210000Z AUTO 18013KT 9SM CLR 14/M01 A2962 RMK SLP047;EQDQ01+000000PRSWM2Q02  00002PRCP24
0186718700999992000102204004+50280-107680FM-15+0818CYYN V0203001N007212200019N0144841N1+00501+00001101551ADDGD12991+0147099GD22991+0150099GF102991999999999999999999MA1101391999999MW1001OC101031REMMET070CYYN 220400Z AUTO 30014G20KT 9SM FEW049 FEW059 05/00 A2994 RMK SLP155;EQDQ01+000000PRSWM2
0135718700999992000102523004+50280-107680FM-15+0818CYYN V0200201N003612200019N0144841N1+01101+00101101681ADDGF100991999999999999999999MA1101491999999MW1001REMMET057CYYN 252300Z AUTO 02007KT 9SM CLR 11/01 A2997 RMK SLP168;EQDQ01+000000PRSWM2
0242718700999992000102609004+50280-107680SY-MT+0818CYYN V0203601N003112200019N0140001N1+00301+00171101851ADDAA199000091GF100991001001999999001001MA1101661092211MD1310101+9999MW1001REMSYN060AAXX  26094 71870 35964 03606 10030 20017 39221 40185 53010;MET057CYYN 260900Z AUTO 36006KT 9SM CLR 03/02 A3002 RMK SLP185;EQDQ01+000000PRSWM2Q02  00002PRCP99
0164718700999992000103017004+50280-107680FM-15+0818CYYN V0203101N004610018019N0128741N1+00401+00301101761ADDGD14991+0018099GF108991999999999999999999MA1101561999999MW1001OC100771REMMET063CYYN 301700Z AUTO 31009G15KT 8SM OVC006 04/03 A2999 RMK SLP176;EQDQ01+000000PRSWM2
0154718700999992000110316004+50280-107680FM-15+0818CYYN V0202501N003610150019N0144841N1+00101-00601101991ADDGD13991+0150099GF107991999999999999999999MA1101661999999MW1001REMMET061CYYN 031600Z AUTO 25007KT 9SM BKN051 01/M06 A3002 RMK SLP199;EQDQ01+000000PRSWM2
0142718700999992000110508394+50280-107680FM-15+0818CYYN V0203101N008710036019N0144841N1+00201+00001999999ADDGD13991+0036099GF107991999999999999999999MA1099631999999MW1001REMMET049CYYN 050839Z AUTO 31017KT 9SM BKN012 02/00 A2942;EQDQ01+000000PRSWM2
0302718700999992000112406004+50280-107680SY-MT+0818CYYN V0202301N008212200019N0140001N1+00061-00691100951ADDAA124000091GF100991001001999999001001KA1240M+00611KA2240N-00201MA1100711091311MD1810071+9999MW1001OA132401391REMSYN098AAXX  24064 71870 36964 02316 10006 21069 39131 40095 58007 333 10061 21020 70000 555 32227 40161;MET058CYYN 240600Z AUTO 23015KT 9SM CLR 01/M07 A2974 RMK SLP095;EQDQ01+000000PRSWM2
0137718700999992000120213004+50280-107680FM-15+0818CYYN V0201901N010812200019N0144841N1-00601-00801101701ADDGF100991999999999999999999MA1101251999999MW1001REMMET059CYYN 021300Z AUTO 19021KT 9SM CLR M06/M08 A2990 RMK SLP170;EQDQ01+000000PRSWM2
0137718700999992000120523004+50280-107680FM-15+0818CYYN V0202801N007212200019N0144841N1-00601-00801102581ADDGF100991999999999999999999MA1102101999999MW1001REMMET059CYYN 052300Z AUTO 28014KT 9SM CLR M06/M08 A3015 RMK SLP258;EQDQ01+000000PRSWM2
0299718700999992000120618004+50280-107680SY-MT+0818CYYN V0202701N006210270019N0140001N1+00371-00141101191ADDAA124000091GD13991+0270099KA1120M+00391KA2240N-00901MA1100881091471MD1810091+9999MW1001REMSYN082AAXX  06184 71870 36964 62712 10037 21014 39147 40119 58009 333 10039 21090 70000;MET061CYYN 061800Z AUTO 27012KT 9SM BKN094 04/M01 A2979 RMK SLP119;EQDQ01+000062SCOTCVQ02+000000PRSWM2Q03  00002PRCP24
0144718700999992000120921494+50280-107680FM-15+0818CYYN V0203501N006212200019N0144841N1-02301-02701999999ADDGD12991+0054099GF102991999999999999999999MA1102271999999MW1001REMMET051CYYN 092149Z AUTO 35012KT 9SM FEW018 M23/M27 A3020;EQDQ01+000000PRSWM2
0137718700999992000121201004+50280-107680FM-15+0818CYYN V0202501N002112200019N0144841N1-02401-03001103251ADDGF100991999999999999999999MA1102341999999MW1001REMMET059CYYN 120100Z AUTO 25004KT 9SM CLR M24/M30 A3022 RMK SLP325;EQDQ01+000000PRSWM2
0137718700999992000121317004+50280-107680FM-15+0818CYYN V0202601N002612200019N0112651N1-02301-02701102331ADDGF100991999999999999999999MA1101491999999MW1001REMMET059CYYN 131700Z AUTO 26005KT 7SM CLR M23/M27 A2997 RMK SLP233;EQDQ01+000000PRSWM2
0244718700999992000121403004+50280-107680SY-MT+0818CYYN V0200901N001512200019N0110001N1-02351-02741102101ADDAA199000091GF100991001001999999001001MA1101251091811MD1810111+9999MW1001REMSYN060AAXX  14034 71870 35961 00903 11235 21274 39181 40210 58011;MET059CYYN 140300Z AUTO 09004KT 7SM CLR M23/M27 A2990 RMK SLP210;EQDQ01+000000PRSWM2Q02  00002PRCP99
0144718700999992000121605354+50280-107680FM-15+0818CYYN V0203101N008710012019N0016091N1-02501-02901999999ADDGD14991+0012099GF108991999999999999999999MA1102471999999MW1001REMMET051CYYN 160535Z AUTO 31017KT 1SM OVC004 M25/M29 A3026;EQDQ01+000000PRSWM2
0137718700999992000121817004+50280-107680FM-15+0818CYYN V0202701N005712200019N0144841N1-02101-02501103591ADDGF100991999999999999999999MA1102841999999MW1001REMMET059CYYN 181700Z AUTO 27011KT 9SM CLR M21/M25 A3037 RMK SLP359;EQDQ01+000000PRSWM2
0332718700999992000122518004+50280-107680SY-MT+0818CYYN V0201601N001510150019N0090001N1-01331-01491103361ADDAA124000091GD12991+0135099GD24991+0150099GF108991999999012501999999KA1120M-01331KA2240N-02231MA1102681093131MD1010011+9999MW1001REMSYN082AAXX  25184 71870 36659 81603 11133 21149 39313 40336 50001 333 11133 21223 70000;MET069CYYN 251800Z AUTO 16002KT 5SM FEW045 OVC054 M13/M15 A3032 RMK SLP336;EQDQ01+000000PRSWM2Q02  00002PRCP24
0308718700999992000122612004+50280-107680SY-MT+0818CYYN V0202101N008712200019N0140001N1-00781-01061102551ADDAA124000091GF100991001001999999001001KA1999M+99999KA2120N-01431MA1102001092501MD1610211+9999MW1001REMSYN082AAXX  26124 71870 36964 02117 11078 21106 39250 40255 56021 333 11092 21143 70000;MET059CYYN 261200Z AUTO 21017KT 9SM CLR M08/M11 A3012 RMK SLP255;EQDQ01+000000PRSWM2Q02  00002PRCP24Q03 -00922ATMX  
0307718700999992000122818004+50280-107680SY-MT+0818CYYN V0203001N008212200019N0140001N1-00581-00711103151ADDAA106000591GF100991001001999999001001KA1120M-00491KA2240N-00841MA1102681093131MD1110081+9999MW1001REMSYN094AAXX  28184 71870 1/964 03016 11058 21071 39313 40315 51008 69951 7//4/ 333 11049 21084 70055;MET078CYYN 281800Z AUTO 30016KT 9SM CLR M06/M07 A3032 RMK PCPN 0.5MM PAST HR SLP315;EQDQ01+000000PRSWM2
0137718700999992000123013004+50280-107680FM-15+0818CYYN V0202001N006212200019N0144841N1-01401-01701102831ADDGF100991999999999999999999MA1102201999999MW1001REMMET059CYYN 301300Z AUTO 20012KT 9SM CLR M14/M17 A3018 RMK SLP283;EQDQ01+000000PRSWM2
0175718710999992000010208004+53320-110070FM-15+0669CYLL V0200401N005110075019N0160931N1-02001-02401102061ADDGD14991+0075099GF108991999999999999999999MA1101421999999MW1711REMMET066CYLL 020800Z 04010KT 10SM -SN OVC025 M20/M24 A2995 RMK SC8 SLP206;EQDQ01+000003PRSWM1Q02    003PRSWM1
0131718710999992000010420574+53320-110070FM-16+0669CYLL V0200801N003610030019N0016091N1+99999+99999999999ADDGD14991+0030099GF108991999999999999999999MW1001MW2711REMMET047CYLL 042057Z 08007KT 1SM -SN OVC010 RMK SN3ST5;EQDQ01+000003PRSWM1
0180718710999992000010919004+53320-110070FM-15+0669CYLL V0202401N005712200019N0241401N1-00901-01301099641ADDGD12991+0300099GD22991+0720099GF104991999999999999999999MA1099291999999MW1001REMMET072CYLL 091900Z 24011KT 15SM FEW100 SCT240 M09/M13 A2932 RMK AC1CI3 SLP964;EQDQ01+000000PRSWM2
0180718710999992000011123004+53320-110070FM-15+0669CYLL V0201001N003610720019N0241401N1-02201-02701101821ADDGD12991+0300099GD23991+0720099GF107991999999999999999999MA1101081999999MW1001REMMET072CYLL 112300Z 10007KT 15SM FEW100 BKN240 M22/M27 A2985 RMK AC1CI2 SLP182;EQDQ01+000000PRSWM2
0419718710999992000011400004+53320-110070SY-MT+066999999V0203101N00261027001CN0240001N1-02141-02511103541ADDAA106000791AA224999929AJ100069199999999AY121061AY221061GD13991+0270099GD24991+0750099GF108991061001999999021021IA1289KA1120M-02141KA2180N-02721MA1102741094881MD1310061+9999MW1761REMSYN116    AAXX  14004 71871 11974 83105 11214 21251 39488 40354 53006 69901 77622 86022 333 11214 21272 44006 79999 90951;MET072CYLL 140000Z 31005KT 15SM BKN090 OVC250 M21/M25 A3034 RMK AS6CS2 SLP354;EQDQ01+000000PRSWM2Q02    003PRSWM1
0175718710999992000011405004+53320-110070FM-15+0669CYLL V0203601N005110150019N0160931N1-02101-02501103551ADDGD14991+0150099GF108991999999999999999999MA1102781999999MW1711REMMET066CYLL 140500Z 36010KT 10SM -SN OVC050 M21/M25 A3035 RMK SC8 SLP355;EQDQ01+000003PRSWM1Q02    003PRSWM1
0175718710999992000011407004+53320-110070FM-15+0669CYLL V0200201N003110120019N0193121N1-02101-02601103541ADDGD14991+0120099GF108991999999999999999999MA1102781999999MW1711REMMET066CYLL 140700Z 02006KT 12SM -SN OVC040 M21/M26 A3035 RMK SC8 SLP354;EQDQ01+000003PRSWM1Q02    003PRSWM1
0426718710999992000011506004+53320-110070SY-MT+0669CYLL V0200601N004110150019N0240001N1-02481-02891102621ADDAA106000792AA224000692AC11C9AJ100089199999999AL12400191AY171061AY271061GD14991+0150099GF108991081051017501999999IA1289KA1240M-02121KA2240N-02531MA1101861094031MD1810151+9999MW1021REMSYN132    AAXX  15064 71871 11774 80608 11248 21289 39403 40262 58015 69901 70277 885// 333 11212 21253 44008 70006 90913 555 10006 20006;MET062CYLL 150600Z 06008KT 15SM OVC050 M25/M29 A3008 RMK SC8 SLP262;EQDQ01+000000PRSWM2Q02    003PRSWM1
0221718710999992000012122004+53320-110070FM-15+0669CYLL V0203101N008710048019N0096561N1-01001-01201100811ADDGD13991+0048099GD24991+0114099GF108991999999999999999999MA1100241999999MW1361MW2711OC101391REMMET083CYLL 212200Z 31017G27KT 6SM -SN DRSN BKN016 OVC038 M10/M12 A2960 RMK SC3SC5 SLP081;EQDQ01+000003PRSWM1Q02    003PRSWM1
0155718710999992000012722004+53320-110070FM-15+0669CYLL V0202801N003612200019N0241401N1-00801-01201102511ADDGD12991+0720099GF102991999999999999999999MA1102001999999MW1001REMMET062CYLL 272200Z 28007KT 15SM FEW240 M08/M12 A3012 RMK CI1 SLP251;EQDQ01+000000PRSWM2
0180718710999992000020114004+53320-110070FM-15+0669CYLL V0202001N006210720019N0241401N1-01001-01201100711ADDGD12991+0300099GD23991+0720099GF107991999999999999999999MA1100241999999MW1001REMMET072CYLL 011400Z 20012KT 15SM SCT100 BKN240 M10/M12 A2960 RMK AC3CI2 SLP071;EQDQ01+000000PRSWM2
0155718710999992000020317004+53320-110070FM-15+0669CYLL V0202501N005112200019N0241401N1-01201-01401103841ADDGD12991+0720099GF102991999999999999999999MA1103351999999MW1001REMMET062CYLL 031700Z 25010KT 15SM FEW240 M12/M14 A3052 RMK CI1 SLP384;EQDQ01+000000PRSWM2
0133718710999992000020417004+53320-110070FM-15+0669CYLL V0202301N005112200019N0241401N1-00901-01301102931ADDGF100991999999999999999999MA1102401999999MW1001REMMET055CYLL 041700Z 23010KT 15SM SKC M09/M13 A3024 RMK SLP293;EQDQ01+000000PRSWM2
0235718710999992000020915004+53320-110070SY-MT+0669CYLL V0200601N004610270019N0240001N1-01921-02551102781ADDGD13991+0270099GF107991999999999999999999MA1102201094351MD1210121+9999MW1001REMSYN060AAXX  09154 71871 42974 70609 11192 21255 39435 40278 52012;MET062CYLL 091500Z 06009KT 15SM BKN090 M19/M25 A3018 RMK AC7 SLP278;EQDQ01+000000PRSWM2
0180718710999992000021011004+53320-110070FM-15+0669CYLL V0202701N002612200019N0241401N1-02301-03001103131ADDGD12991+0360099GD22991+0720099GF104991999999999999999999MA1102401999999MW1001REMMET072CYLL 101100Z 27005KT 15SM FEW120 SCT240 M23/M30 A3024 RMK AC1CI1 SLP313;EQDQ01+000000PRSWM2
0166718710999992000021823004+53320-110070FM-15+0669CYLL V0202901N007712200019N0241401N1-00501-00901101641ADDGD12991+0750099GF104991999999999999999999MA1101121999999MW1001OC101181REMMET065CYLL 182300Z 29015G23KT 15SM SCT250 M05/M09 A2986 RMK CI2 SLP164;EQDQ01+000000PRSWM2
0133718710999992000021905004+53320-110070FM-15+0669CYLL V0202801N006212200019N0241401N1-00701-01101101911ADDGF100991999999999999999999MA1101421999999MW1001REMMET055CYLL 190500Z 28012KT 15SM SKC M07/M11 A2995 RMK SLP191;EQDQ01+000000PRSWM2
0133718710999992000022605004+53320-110070FM-15+0669CYLL V0202401N004612200019N0241401N1-00801-01001101301ADDGF100991999999999999999999MA1100911999999MW1001REMMET055CYLL 260500Z 24009KT 15SM SKC M08/M10 A2980 RMK SLP130;EQDQ01+000000PRSWM2
0180718710999992000022922004+53320-110070FM-15+0669CYLL V0202301N001510720019N0241401N1-00201-00501101911ADDGD12991+0024099GD23991+0720099GF107991999999999999999999MA1101521999999MW1001REMMET072CYLL 292200Z 23003KT 15SM FEW008 BKN240 M02/M05 A2998 RMK SF1CI2 SLP191;EQDQ01+000000PRSWM2
0179718710999992000030305004+53320-110070FM-15+0669CYLL V0202701N005110270019N0241401N1+00001-00301101431ADDGD13991+0270099GD24991+0720099GF108991999999999999999999MA1101051999999MW1001REMMET071CYLL 030500Z 27010KT 15SM BKN090 OVC240 00/M03 A2984 RMK AC5CI3 SLP143;EQDQ01+000000PRSWM2
0180718710999992000030822004+53320-110070FM-15+0669CYLL V0201201N003610360019N0241401N1-01501-02301103621ADDGD13991+0360099GD23991+0750099GF107991999999999999999999MA1102951999999MW1001REMMET072CYLL 082200Z 12007KT 15SM BKN120 BKN250 M15/M23 A3040 RMK AC5CI1 SLP362;EQDQ01+000000PRSWM2
0119718710999992000031117474+53320-110070FM-16+0669CYLL V0201201N002610210019N0241401N1+99999+99999999999ADDGD14991+0210099GF108991999999999999999999MW1001REMMET041CYLL 111747Z 12005KT 15SM OVC070 RMK AC7;EQDQ01+000000PRSWM2
0155718710999992000031505004+53320-110070FM-15+0669CYLL V0202701N004112200019N0241401N1-01601-02201102621ADDGD12991+0720099GF104991999999999999999999MA1101961999999MW1001REMMET062CYLL 150500Z 27008KT 15SM SCT240 M16/M22 A3011 RMK CI2 SLP262;EQDQ01+000000PRSWM2
0186718710999992000031816004+53320-110070FM-15+0669CYLL V0202501N004610750019N0241401N1-00301-00801101441ADDGD12991+0300099GD23991+0750099GF107991999999999999999999MA1101081999999MW1001REMMET078CYLL 181600Z 25009KT 15SM FEW100 BKN250 M03/M08 A2985 RMK AC1CI1 TR AC SLP144;EQDQ01+000000PRSWM2
0179718710999992000031902004+53320-110070FM-15+0669CYLL V0201601N004110750019N0241401N1+00001-00301100481ADDGD12991+0240099GD23991+0750099GF107991999999999999999999MA1100141999999MW1001REMMET071CYLL 190200Z 16008KT 15SM FEW080 BKN250 00/M03 A2957 RMK AC2CI3 SLP048;EQDQ01+000000PRSWM2
0236718710999992000032109004+53320-110070SY-MT+0669CYLL V0201801N006210720019N0240001N1-00471-00611101411ADDGD13991+0720099MA1101051093291MD1810281+9999MW1001OC100931REMSYN060AAXX  21094 71871 42974 61812 11047 21061 39329 40141 58028;MET065CYLL 210900Z 18012G18KT 15SM BKN240 M05/M06 A2984 RMK CI2 SLP141;EQDQ01+000062SCOTCVQ02+000000PRSWM2
0234718710999992000032203004+53320-110070SY-MT+0669CYLL V0202401N006212200019N0240001N1+00281-00151101081ADDGD12991+0300099GF102991999999999999999999MA1100751093011MD1310171+9999MW1001REMSYN060AAXX  22034 71871 42974 22412 10028 21015 39301 40108 53017;MET061CYLL 220300Z 24012KT 15SM FEW100 03/M01 A2975 RMK AC2 SLP108;EQDQ01+000000PRSWM2
0154718710999992000032804004+53320-110070FM-15+0669CYLL V0201101N004110210019N0241401N1+00201-00101100441ADDGD13991+0210099GF107991999999999999999999MA1100171999999MW1001REMMET061CYLL 280400Z 11008KT 15SM BKN075 02/M01 A2958 RMK AC6 SLP044;EQDQ01+000000PRSWM2
0132718710999992000033105004+53320-110070FM-15+0669CYLL V0202401N004112200019N0241401N1+00001-00301102391ADDGF100991999999999999999999MA1102071999999MW1001REMMET054CYLL 310500Z 24008KT 15SM SKC 00/M03 A3014 RMK SLP239;EQDQ01+000000PRSWM2
0372718710999992000040212004+53320-110070SY-MT+0669CYLL V0203401N008712200019N0240001N1-00191-00511102501ADDAA106000792AA224000392AY171061AY221061GD12991+0240099GF102991021001022501071001KA1999M+00841KA2120N-00201MA1102201094361MD1210361+9999MW1021OC101081REMSYN106AAXX  02124 71871 11874 23417 11019 21051 39436 40250 52036 69901 70272 82070 333 10084 21020 70003 90942;MET065CYLL 021200Z 34015G21KT 15SM FEW080 M02/M05 A3018 RMK AC2 SLP250;EQDQ01+000000PRSWM2Q02    003PRSWM1
0165718710999992000040805004+53320-110070FM-15+0669CYLL V0202501N006712200019N0241401N1+00401-00701101681ADDGD12991+0210099GF104991999999999999999999MA1101321999999MW1001OC100931REMMET064CYLL 080500Z 25013G18KT 15SM SCT075 04/M07 A2992 RMK AC3 SLP168;EQDQ01+000000PRSWM2
0175718710999992000041602004+53320-110070FM-15+0669CYLL V0201501N004110060019N0241401N1-00201-00601102051ADDGD14991+0060099GF108991999999999999999999MA1101631999999MW1711REMMET066CYLL 160200Z 15008KT 15SM -SN OVC020 M02/M06 A3001 RMK SC8 SLP205;EQDQ01+000003PRSWM1Q02    003PRSWM1
0155718710999992000041610004+53320-110070FM-15+0669CYLL V0201401N001010072019N0241401N1-00201-00401101921ADDGD14991+0072099GF108991999999999999999999MA1101561999999MW1001REMMET062CYLL 161000Z 14002KT 15SM OVC024 M02/M04 A2999 RMK SC8 SLP192;EQDQ01+000000PRSWM2
0153718710999992000042717004+53320-110070FM-15+0669CYLL V0201001N006212200019N0241401N1+01101+00201102841ADDGD12991+0720099GF104991999999999999999999MA1102611999999MW1001REMMET060CYLL 271700Z 10012KT 15SM SCT240 11/02 A3030 RMK CI1 SLP284;EQDQ01+000000PRSWM2
0339718710999992000050318004+53320-110070SY-MT+0669CYLL V0201501N00411075001CN0240001N1+01441+00611100881ADDAA124000391GD12991+0108099GD23991+0750099GF199999031011012501001011KA1120M+01461KA2240N+00031MA1100751093001MD1810091+9999MW1001REMSYN088AAXX  03184 71871 32674 61508 10144 20061 39300 40088 58009 83101 333 10146 20003 70002;MET070CYLL 031800Z 15008KT 15SM SCT036 BKN250 14/06 A2975 RMK CU3CU1 SLP088;EQDQ01+000062SCOTCVQ02+000000PRSWM2
0303718710999992000050621004+53320-110070SY-MT+0669CYLL V0200901N005710150019N0240001N1+01351+00101100451ADDGA1999+015009099GD13991+0150099GD23991+0720099GF199999999999017501999999MA1100271092561MD1710101+9999MW1001REMSYN060AAXX  06214 71871 42774 60911 10135 20010 39256 40045 57010;MET083CYLL 062100Z 09011KT 15SM BKN050CB BKN240 14/01 A2961 RMK CB5CI1 CB S MVG E SLP045;EQDQ01+000062SCOTCVQ02+000000PRSWM2
0140718710999992000050712444+53320-110070FM-16+0669CYLL V0202901N005110033019N0160931N1+99999+99999999999ADDGD14991+0033099GF108991999999999999999999MW1001MW2611OC100931REMMET048CYLL 071244Z 29010G18KT 10SM -RA OVC011 RMK SC8;EQDQ01+000003PRSWM1
0178718710999992000050902004+53320-110070FM-15+0669CYLL V0202201N003110720019N0241401N1+00801+00201101381ADDGD12991+0090099GD23991+0720099GF107991999999999999999999MA1101121999999MW1001REMMET070CYLL 090200Z 22006KT 15SM SCT030 BKN240 08/02 A2986 RMK CU3CI2 SLP138;EQDQ01+000000PRSWM2
0163718710999992000051620004+53320-110070FM-15+0669CYLL V0200401N002110060019N0241401N1+00901+00201101921ADDGD13991+0060099GF107991999999999999999999MA1101731999999MW1001REMMET070CYLL 162000Z 04004KT 15SM BKN020 09/02 A3004 RMK SC7 CU ASOCTD SLP192;EQDQ01+000000PRSWM2
0270718710999992000053021004+53320-110070SY-MT+0669CYLL V0203301N005112200019N0240001N1+01311-00311102061ADDGD12991+0150099GD22991+0750099GF103991999999017501999999MA1101861094061MD1810011+9999MW1001OC100771REMSYN060AAXX  30214 71871 42774 33310 10131 21031 39406 40206 58001;MET074CYLL 302100Z 33010G15KT 15SM FEW050 SCT250 13/M03 A3008 RMK CU2CI1 SLP206;EQDQ01+000000PRSWM2
0342718710999992000060318004+53320-110070SY-MT+0669CYLL V0203501N00151018001CN0240001N1+01881-00091102381ADDAA124000091GD13991+0180099GF199999061021017501001001KA1120M+02041KA2240N+00331MA1102271094441MD1110021+9999MW1001REMSYN088AAXX  03184 71871 32774 63503 10188 21009 39444 40238 51002 86200 333 10204 20033 70000;MET072CYLL 031800Z 35003KT 15SM BKN060 19/M01 A3020 RMK CU6 TCU ASOCTD SLP238;EQDQ01+000062SCOTCVQ02+000000PRSWM2Q03  00002PRCP24
0196718710999992000060320004+53320-110070FM-15+0669CYLL V0202601N002110180019N0241401N1+02101+00001102381ADDGD13991+0180099GD23991+0300099GF107991999999999999999999MA1102271999999MW1001REMMET088CYLL 032000Z 26004KT 15SM BKN060 BKN100 21/M00 A3020 RMK CU5AC1 TCU ASOCTD/VIRGA SLP238;EQDQ01+000000PRSWM2
0223718710999992000060409004+53320-110070SY-MT+0669CYLL V0202101N006212200019N0240001N1+01201+00341102361ADDGD12991+0720099MA1102271094441MD1010011+9999MW1001REMSYN060AAXX  04094 71871 42974 12112 10120 20034 39444 40236 50001;MET060CYLL 040900Z 21012KT 15SM FEW240 12/03 A3020 RMK CI1 SLP236;EQDQ01+000012SCOTCVQ02+000000PRSWM2
0164718710999992000060419004+53320-110070FM-15+0669CYLL V0202301N008712200019N0241401N1+02401+00201102101ADDGD12991+0360099GF102991999999999999999999MA1102031999999MW1001OC101391REMMET063CYLL 041900Z 23017G27KT 15SM FEW120 24/02 A3013 RMK AC1 SLP210;EQDQ01+000000PRSWM2
0364718710999992000060712004+53320-110070SY-MT+0669CYLL V0203201N00411027001CN0240001N1+00971+00771101301ADDAA124000091GD12991+0150099GD23991+0270099GD34991+0750099GF108991031051017501071011KA1999M+02351KA2120N+00831MA1101251093461MD1010051+9999MW1001REMSYN088AAXX  07124 71871 32774 83208 10097 20077 39346 40130 50005 83571 333 10235 20083 70000;MET080CYLL 071200Z 32008KT 15SM SCT050 BKN090 OVC250 10/08 A2990 RMK SC3AC2CI1 SLP130;EQDQ01+000000PRSWM2Q02  00002PRCP24
0189718710999992000061111004+53320-110070FM-15+0669CYLL V0201101N005110024019N0096561N1+00501+00401101461ADDGD14991+0024099GF108991999999999999999999MA1101251999999MW1101MW2511REMMET074CYLL 111100Z 11010KT 6SM -DZ BR OVC008 05/04 A2990 RMK SF8 CIG RGD SLP146;EQDQ01+000003PRSWM1Q02    003PRSWM1
0174718710999992000061617004+53320-110690FM-15+0669CYLL V0203501N004110060019N0241401N1+01101+00701101951ADDGD13991+0060099GF107991999999999999999999MA1101761999999MW1161REMMET065CYLL 161700Z 35008KT 15SM VCSH BKN020 11/07 A3005 RMK CU7 SLP195;EQDQ01+000003PRSWM1Q02    003PRSWM1
0189718710999992000062322004+53320-110690FM-15+0669CYLL V0202801N007710150019N0241401N1+01701+00301101211ADDGD13991+0150099GD23991+0810099GF107991999999999999999999MA1101081999999MW1001OC101131REMMET073CYLL 232200Z 28015G22KT 15SM BKN050 BKN270 17/03 A2985 RMK CU6CI1 SLP121;EQDQ01+000000PRSWM2
0178718710999992000062405004+53320-110690FM-15+0669CYLL V0202501N003612200019N0241401N1+00901+00301101201ADDGD12991+0150099GD22991+0810099GF102991999999999999999999MA1101121999999MW1001REMMET070CYLL 240500Z 25007KT 15SM FEW050 FEW270 09/03 A2986 RMK CU1CI1 SLP120;EQDQ01+000000PRSWM2
0203718710999992000062417004+53320-110690FM-15+0669CYLL V0203501N003110090019N0241401N1+01501+00701101491ADDGD13991+0090099GD23991+0300099GD33991+0750099GF107991999999999999999999MA1101391999999MW1001REMMET080CYLL 241700Z 35006KT 15SM BKN030 BKN100 BKN250 15/07 A2994 RMK CU5AC1CI0 SLP149;EQDQ01+000000PRSWM2
0159718710999992000062702004+53320-110690FM-15+0669CYLL V0203301N003612200019N0241401N1+01601+00501102481ADDGD12991+0120099GF102991999999999999999999MA1102341999999MW1001REMMET066CYLL 270200Z 33007KT 15SM FEW040 16/05 A3022 RMK CU1 TR CU SLP248;EQDQ01+000000PRSWM2
0223718710999992000062709004+53320-110690SY-MT+0669CYLL V0202401N003612200019N0240001N1+00691+00461102411ADDGD12991+0300099MA1102271094421MD1810031+9999MW1001REMSYN060AAXX  27094 71871 42974 12407 10069 20046 39442 40241 58003;MET060CYLL 270900Z 24007KT 15SM FEW100 07/05 A3020 RMK AC1 SLP241;EQDQ01+000012SCOTCVQ02+000000PRSWM2
0224718710999992000062723004+53320-110690FM-15+0669CYLL V0200201N009310180019N0241401N1+01801+00701102111ADDGA1999+018009029GD13991+0180099GF107991999999999999999999MA1102001999999MW1161MW2171OC101541REMMET085CYLL 272300Z 02018G30KT 15SM TS VCSH BKN060TCU 18/07 A3012 RMK TCU6 CB ASOCTD SLP211;EQDQ01+000003PRSWM1Q02    003PRSWM1
0339718710999992000062906004+53320-110690SY-MT+0669CYLL V0201801N003612200019N0240001N1+01491+00861101161ADDAA124000091GD12991+0300099GD22991+0720099GF104991011001999999071011KA1240M+02651KA2240N+00891MA1101151093391MD1610031+9999MW1001REMSYN088AAXX  29064 71871 32974 41807 10149 20086 39339 40116 56003 81071 333 10265 20089 70000;MET070CYLL 290600Z 18007KT 15SM FEW100 SCT240 15/09 A2987 RMK AC1CI1 SLP116;EQDQ01+000000PRSWM2Q02  00002PRCP24
0164718710999992000070214004+53320-110690FM-15+0669CYLL V0201001N005110012019N0241401N1+01301+01201101081ADDGD14991+0012099GF108991999999999999999999MA1100981999999MW1001OC100871REMMET063CYLL 021400Z 10010G17KT 15SM OVC004 13/12 A2982 RMK ST8 SLP108;EQDQ01+000000PRSWM2
0214718710999992000070713004+53320-110690FM-15+0669CYLL V0202001N001510300019N0241401N1+01201+01201100741ADDGD12991+0150099GD23991+0300099GD33991+0780099GF107991999999999999999999MA1100641999999MW1001REMMET091CYLL 071300Z 20003KT 15SM FEW050 BKN100 BKN260 12/12 A2972 RMK SC1AC5CI1 ACC ASOCTD SLP074;EQDQ01+000000PRSWM2
0153718710999992000070808004+53320-110690FM-15+0669CYLL V0202601N004112200019N0241401N1+01301+01101101001ADDGD12991+0300099GF102991999999999999999999MA1100981999999MW1001REMMET060CYLL 080800Z 26008KT 15SM FEW100 13/11 A2982 RMK AC1 SLP100;EQDQ01+000000PRSWM2
0350718710999992000070900004+53320-110690SY-MT+0669CYLL V0203401N002112200019N0240001N1+02321+01361101381ADDAA124000091GD12991+0150099GD22991+0810099GF103991021021017501001011KA1120M+02391KA2180N+01191MA1101351093561MD1110041+9999MW1001REMSYN088AAXX  09004 71871 32774 33404 10232 20136 39356 40138 51004 82201 333 10239 20119 70000;MET081CYLL 090000Z 34004KT 15SM FEW050 SCT270 23/14 A2993 RMK CU2CI1 TCU ASOCTD SLP138;EQDQ01+000000PRSWM2Q02  00002PRCP24
0155718710999992000071021534+53320-110690FM-16+0669CYLL V0200701N004110060019N0241401N1+99999+99999999999ADDGA1999+006009099GD13991+0060099GF107991999999999999999999MW1001MW2801MW3951REMMET049CYLL 102153Z 07008KT 15SM -TSRA BKN020CB RMK CB7;EQDQ01+000003PRSWM1
0295718710999992000071109004+53320-110690SY-MT+0669CYLL V0202001N001510150019N0240001N1+01181+01131100741ADDGD13991+0150099GD23991+0300099GD33991+0750099GF107991999999017501999999MA1100681092941MD1810061+9999MW1001REMSYN060AAXX  11094 71871 42774 72003 10118 20113 39294 40074 58006;MET092CYLL 110900Z 20003KT 15SM BKN050 BKN100 BKN250 12/11 A2973 RMK SC5AC2CI0 LTG DSTNT E SLP074;EQDQ01+000000PRSWM2
0203718710999992000071902004+53320-110060FM-15+0669CYLL V0200901N002110780019N0241401N1+01401+01001102121ADDGD12991+0060099GD22991+0300099GD33991+0780099GF107991999999999999999999MA1101961999999MW1001REMMET080CYLL 190200Z 09004KT 15SM FEW020 FEW100 BKN260 14/10 A3011 RMK SC2AC1CI2 SLP212;EQDQ01+000000PRSWM2
0258718710999992000071909004+53320-110060SY-MT+0669CYLL V0209999C000010300019N0240001N1+01001+00941102201ADDGD13991+0300099GD23991+0750099GF107991999999999999999999MA1102071094241MD1110021+9999MW1001REMSYN060AAXX  19094 71871 42974 70000 10100 20094 39424 40220 51002;MET070CYLL 190900Z 00000KT 15SM BKN100 BKN250 10/09 A3014 RMK AC5CI2 SLP220;EQDQ01+000000PRSWM2
0274718710999992000072121004+53320-110060SY-MT+0669CYLL V0202101N002610300019N0240001N1+02301+01621101491ADDGD12991+0084099GD23991+0300099GF199999999999008001999999MA1101461093671MD1610081+9999MW1001REMSYN060AAXX  21214 71871 42574 52105 10230 20162 39367 40149 56008;MET070CYLL 212100Z 21005KT 15SM SCT028 BKN100 23/16 A2996 RMK CU3AC1 SLP149;EQDQ01+000052SCOTCVQ02+000000PRSWM2
0131718710999992000072708004+53320-110060FM-15+0669CYLL V0209999C000012200019N0241401N1+01501+01301101171ADDGF100991999999999999999999MA1101151999999MW1001REMMET053CYLL 270800Z 00000KT 15SM SKC 15/13 A2987 RMK SLP117;EQDQ01+000000PRSWM2
0258718710999992000072921004+53320-110060SY-MT+0669CYLL V0202901N005712200019N0240001N1+02371+01401101551ADDGD12991+0105099GD22991+0750099GF102991999999012501999999MA1101561093761MD1310031+9999MW1001REMSYN060AAXX  29214 71871 42674 22911 10237 20140 39376 40155 53003;MET070CYLL 292100Z 29011KT 15SM FEW035 FEW250 24/14 A2999 RMK CU1CI0 SLP155;EQDQ01+000000PRSWM2
0339718710999992000080112004+53320-110060SY-MT+0669CYLL V0201301N005110150019N0240001N1+01661+01191101611ADDAA124000091GD13991+0150099GD23991+0300099GF107991051051017501071001KA1999M+02561KA2120N+01611MA1101631093821MD1610041+9999MW1001REMSYN088AAXX  01124 71871 32774 71310 10166 20119 39382 40161 56004 85570 333 10256 20161 70000;MET070CYLL 011200Z 13010KT 15SM BKN050 BKN100 17/12 A3001 RMK SC5AC2 SLP161;EQDQ01+000000PRSWM2Q02  00002PRCP24
0314718710999992000080121004+53320-110060SY-MT+0669CYLL V0201101N006212200019N0240001N1+02151+01611101601ADDGA1999+015009029GD12991+0150099GD22991+0270099GD32991+0750099GF104991999999017501999999MA1101591093791MD1410001+9999MW1001OC100931REMSYN060AAXX  01214 71871 42774 41112 10215 20161 39379 40160 54000;MET087CYLL 012100Z 11012G18KT 15SM FEW050TCU FEW090 SCT250 22/16 A3000 RMK TCU1AC2CI1 SLP160;EQDQ01+000000PRSWM2
0257718710999992000080202004+53320-110060FM-15+0669CYLL V0200601N005110135019N0241401N1+01801+01501101371ADDGA1999+013509099GD13991+0135099GD23991+0240099GD33991+0720099GF107991999999999999999999MA1101321999999MW1161MW2171REMMET096CYLL 020200Z 06010KT 15SM TS VCSH BKN045CB BKN080 BKN240 18/15 A2992 RMK CB5AC1CI2 LTGCG SLP137;EQDQ01+000003PRSWM1Q02    003PRSWM1
0155718710999992000080414004+53320-110060FM-15+0669CYLL V0203001N002112200019N0004021N1+01501+01501101571ADDGF100991999999999999999999MA1101521999999MW1441REMMET061CYLL 041400Z 30004KT 1/4SM FG SKC 15/15 A2998 RMK FG7 SLP157;EQDQ01+000003PRSWM1Q02    003PRSWM1
0208718710999992000081117004+53320-110060FM-15+0669CYLL V0200101N003110036019N0160931N1+01401+01301101261ADDGD13991+0036099GD24991+0270099GF108991999999999999999999MA1101191999999MW1801REMMET084CYLL 111700Z 01006KT 10SM -SHRA BKN012 OVC090 14/13 A2988 RMK SF6AC2 CIG RGD SLP126;EQDQ01+000003PRSWM1Q02    003PRSWM1
0323718710999992000081306004+53320-110060SY-MT+0669CYLL V0202101N001512200019N0240001N1+01071+00831101731ADDAA124000791GD12991+0105099GD22991+0720099GF102991011051012501001011KA1240M+01871KA2240N+00751MA1101591093801MD1410001+9999MW1001REMSYN088AAXX  13064 71871 32674 22103 10107 20083 39380 40173 54000 81501 333 10187 20075 79999;MET070CYLL 130600Z 21003KT 15SM FEW035 FEW240 11/08 A3000 RMK SC1CI0 SLP173;EQDQ01+000000PRSWM2
0171718710999992000081620004+53320-110060FM-15+0669CYLL V0203501N005110060019N0241401N1+01701+01201102231ADDGD13991+0060099GF107991999999999999999999MA1102131999999MW1001REMMET078CYLL 162000Z 35010KT 15SM BKN020 17/12 A3016 RMK CU6 TCU SHWRS DSNT NE SLP223;EQDQ01+000000PRSWM2
0198718710999992000082102004+53320-110060FM-15+0669CYLL V0203001N001512200019N0241401N1+01601+00701101381ADDGA1999+012009029GD12991+0120099GD22991+0300099GF102991999999999999999999MA1101291999999MW1001REMMET074CYLL 210200Z 30003KT 15SM FEW040TCU FEW100 16/07 A2991 RMK TCU1AC1 SLP138;EQDQ01+000000PRSWM2
0189718710999992000082717004+53320-110060FM-15+0669CYLL V0202801N007712200019N0241401N1+01501+00401100601ADDGD12991+0120099GD22991+0780099GF102991999999999999999999MA1100471999999MW1001OC101131REMMET073CYLL 271700Z 28015G22KT 15SM FEW040 FEW260 15/04 A2967 RMK CU1CI1 SLP060;EQDQ01+000000PRSWM2
0153718710999992000082923004+53320-110060FM-15+0669CYLL V0200401N003110120019N0241401N1+01101+00101101821ADDGD13991+0120099GF107991999999999999999999MA1101661999999MW1001REMMET060CYLL 292300Z 04006KT 15SM BKN040 11/01 A3002 RMK SC7 SLP182;EQDQ01+000000PRSWM2
0153718710999992000090516004+53320-110060FM-15+0669CYLL V0202201N002612200019N0241401N1+01201+01001101511ADDGD12991+0300099GF102991999999999999999999MA1101351999999MW1001REMMET060CYLL 051600Z 22005KT 15SM FEW100 12/10 A2993 RMK AC1 SLP151;EQDQ01+000000PRSWM2
0209718710999992000091016004+53320-110060FM-15+0669CYLL V0203001N002110270019N0241401N1+00701+00501100351ADDGD12991+0045099GD23991+0270099GD33991+0750099GF107991999999999999999999MA1100171999999MW1001REMMET086CYLL 101600Z 30004KT 15SM FEW015 BKN090 BKN250 07/05 A2958 RMK SC2AC4CI2 VIRGA SLP035;EQDQ01+000000PRSWM2
0366718710999992000091300004+53320-110060SY-MT+0669CYLL V0203001N00821081001CN0240001N1+01671+00511101031ADDAA124000091GD12991+0150099GD23991+0810099GF199999031041017501001011KA1120M+01801KA2180N+00591MA1100911093151MD1010051+9999MW1001OC101181REMSYN088AAXX  13004 71871 32774 53016 10167 20051 39315 40103 50005 83401 333 10180 20059 70000;MET073CYLL 130000Z 30016G23KT 15SM SCT050 BKN270 17/05 A2980 RMK SC3CI0 SLP103;EQDQ01+000052SCOTCVQ02+000000PRSWM2Q03  00002PRCP24
0178718710999992000091313004+53320-110060FM-15+0669CYLL V0202601N004112200019N0241401N1+00401+00301101731ADDGD12991+0300099GD22991+0750099GF102991999999999999999999MA1101591999999MW1001REMMET070CYLL 131300Z 26008KT 15SM FEW100 FEW250 04/03 A3000 RMK AC2CI1 SLP173;EQDQ01+000000PRSWM2
0178718710999992000091401004+53320-110060FM-15+0669CYLL V0202901N001512200019N0241401N1+01401+00401102171ADDGD12991+0150099GD22991+0810099GF102991999999999999999999MA1102001999999MW1001REMMET070CYLL 140100Z 29003KT 15SM FEW050 FEW270 14/04 A3012 RMK CU1CI0 SLP217;EQDQ01+000000PRSWM2
0350718710999992000091500004+53320-110060SY-MT+0669CYLL V0201701N00621072001CN0240001N1+02261+00521101511ADDAA124000091GD12991+0420099GD23991+0720099GF107991021001999999071021KA1120M+02311KA2180N+00541MA1101461093651MD1810251+9999MW1001OC100871REMSYN088AAXX  15004 71871 32974 71712 10226 20052 39365 40151 58025 82072 333 10231 20054 70000;MET073CYLL 150000Z 17010G17KT 15SM FEW140 BKN240 23/05 A2996 RMK AC2CI4 SLP151;EQDQ01+000000PRSWM2Q02  00002PRCP24
0132718710999992000092010004+53320-110060FM-15+0669CYLL V0202601N003612200019N0241401N1+00001+00001102061ADDGF100991999999999999999999MA1101831999999MW1001REMMET054CYLL 201000Z 26007KT 15SM SKC 00/M00 A3007 RMK SLP206;EQDQ01+000000PRSWM2
0133718710999992000092311004+53320-110060FM-15+0669CYLL V0201801N005112200019N0241401N1-00401-00701102141ADDGF100991999999999999999999MA1101801999999MW1001REMMET055CYLL 231100Z 18010KT 15SM SKC M04/M07 A3006 RMK SLP214;EQDQ01+000000PRSWM2
0314718710999992000093006004+53320-110060SY-MT+0669CYLL V0202501N004612200019N0240001N1+00901+00471100201ADDAA124000091GD12991+0300099GF102991021001999999071001KA1240M+02011KA2240N+00521MA1100101092411MD1610031+9999MW1001REMSYN088AAXX  30064 71871 32974 22509 10090 20047 39241 40020 56003 82070 333 10201 20052 70000;MET060CYLL 300600Z 25009KT 15SM FEW100 09/05 A2956 RMK AC2 SLP020;EQDQ01+000000PRSWM2Q02  00002PRCP24
0154718710999992000100210004+53320-110060FM-15+0669CYLL V0203201N004610300019N0241401N1+00201-00101100931ADDGD14991+0300099GF108991999999999999999999MA1100751999999MW1001REMMET061CYLL 021000Z 32009KT 15SM OVC100 02/M01 A2975 RMK AC8 SLP093;EQDQ01+000000PRSWM2
0213718710999992000100609004+53320-110060SY-MT+0669CYLL V0202601N004112200019N0240001N1-00931-01411103491ADDGF100991001001999999001001MA1103051095171MD1310081+9999MW1001REMSYN060AAXX  06094 71871 42974 02608 11093 21141 39517 40349 53008;MET055CYLL 060900Z 26008KT 15SM SKC M09/M14 A3043 RMK SLP349;EQDQ01+000000PRSWM2
0287718710999992000100700004+53320-110060SY-MT+0669CYLL V0201701N004612200019N0240001N1+00351-01351103571ADDAA124000091GF100991001001999999001001KA1120M+00511KA2180N-01031MA1103151095261MD1610051+9999MW1001REMSYN082AAXX  07004 71871 32974 01709 10035 21135 39526 40357 56005 333 10051 21103 70000;MET054CYLL 070000Z 17009KT 15SM SKC 04/M13 A3046 RMK SLP357;EQDQ01+000000PRSWM2Q02  00002PRCP24
0315718710999992000101000004+53320-110060SY-MT+0669CYLL V0201001N00311072001CN0240001N1+01491-00241101061ADDAA124000091GD13991+0720099GF107991001001999999001011KA1120M+01911KA2180N-00081MA1100911093151MD1610071+9999MW1001REMSYN088AAXX  10004 71871 32974 71006 10149 21024 39315 40106 56007 80001 333 10191 21008 70000;MET061CYLL 100000Z 10006KT 15SM BKN240 15/M02 A2980 RMK CI6 SLP106;EQDQ01+000000PRSWM2Q02  00002PRCP24
0189718710999992000101116004+53320-110060FM-15+0669CYLL V0203601N006710750019N0241401N1+00601+00401101801ADDGD12991+0015099GD23991+0750099GF107991999999999999999999MA1101591999999MW1001OC100931REMMET073CYLL 111600Z 36013G18KT 15SM SCT005 BKN250 06/04 A3000 RMK SF3CI1 SLP180;EQDQ01+000000PRSWM2
0185718710999992000101914004+53320-110060FM-15+0669CYLL V0202801N006712200019N0241401N1+00201-00401101191ADDGD12991+0360099GD22991+0720099GF102991999999999999999999MA1101021999999MW1001REMMET077CYLL 191400Z 28013KT 15SM FEW120 FEW240 02/M04 A2983 RMK AC1CI1 AC TR SLP119;EQDQ01+000000PRSWM2
0155718710999992000102008004+53320-110060FM-15+0669CYLL V0200901N002112200019N0241401N1-00201-00401101881ADDGD12991+0750099GF102991999999999999999999MA1101591999999MW1001REMMET062CYLL 200800Z 09004KT 15SM FEW250 M02/M04 A3000 RMK CI0 SLP188;EQDQ01+000000PRSWM2
0351718710999992000102200004+53320-110060SY-MT+0669CYLL V0202901N00721027001CN0240001N1+00711-00321100951ADDAA124000091GD13991+0270099GD23991+0720099GF107991061001999999071011KA1120M+00801KA2180N+00371MA1100751093001MD1310391+9999MW1001OC101031REMSYN088AAXX  22004 71871 32974 72914 10071 21032 39300 40095 53039 86071 333 10080 20037 70000;MET074CYLL 220000Z 29014G20KT 15SM BKN090 BKN240 07/M03 A2975 RMK AC6CI0 SLP095;EQDQ01+000000PRSWM2Q02  00002PRCP24
0213718710999992000102209004+53320-110060SY-MT+0669CYLL V0202701N005112200019N0240001N1-00011-00511101941ADDGF100991001001999999001001MA1101661093861MD1110241+9999MW1001REMSYN060AAXX  22094 71871 42974 02710 11001 21051 39386 40194 51024;MET055CYLL 220900Z 27010KT 15SM SKC M00/M05 A3002 RMK SLP194;EQDQ01+000000PRSWM2
0339718710999992000102400004+53320-110060SY-MT+0669CYLL V0201301N00211072001CN0240001N1+01321+00141101751ADDAA124000091GD12991+0300099GD23991+0720099GF107991021001999999071011KA1120M+01851KA2180N+00231MA1101591093781MD1610061+9999MW1001REMSYN088AAXX  24004 71871 32974 71304 10132 20014 39378 40175 56006 82071 333 10185 20023 70000;MET070CYLL 240000Z 13004KT 15SM FEW100 BKN240 13/01 A3000 RMK AC2CI2 SLP175;EQDQ01+000000PRSWM2Q02  00002PRCP24
0271718710999992000102715004+53320-110060SY-MT+0669CYLL V0201301N007210090019N0240001N1-00181-00381101401ADDGD13991+0090099GD23991+0750099GF107991999999008001999999MA1101081093331MD1810191+9999MW1001OC101031REMSYN060AAXX  27154 71871 42574 71314 11018 21038 39333 40140 58019;MET075CYLL 271500Z 13014G20KT 15SM BKN030 BKN250 M02/M04 A2985 RMK SC6CI1 SLP140;EQDQ01+000000PRSWM2
0378718710999992000110612004+53320-110060SY-MT+0669CYLL V0200501N00101002701CN0160001N1-01131-01281102641ADDAA106000792AA224000692AJ100039199999999AY171061AY271061GD14991+0027099GF108991081051002501999999IA1249KA1999M-00191KA2120N-01131MA1102131094291MD1210121+9999MW1711REMSYN112AAXX  06124 71871 11366 80502 11113 21128 39429 40264 52012 69901 77177 885// 333 11019 21113 48003 70006 90983;MET066CYLL 061200Z 05002KT 10SM -SN OVC009 M11/M13 A3016 RMK SC8 SLP264;EQDQ01    003PRSWM1
0155718710999992000111305004+53320-110060FM-15+0669CYLL V0202401N003112200019N0241401N1-00701-00801102081ADDGD12991+0720099GF102991999999999999999999MA1101591999999MW1001REMMET062CYLL 130500Z 24006KT 15SM FEW240 M07/M08 A3000 RMK CI0 SLP208;EQDQ01+000000PRSWM2
0133718710999992000111308004+53320-110060FM-15+0669CYLL V0202501N004112200019N0241401N1-00901-00901102061ADDGF100991999999999999999999MA1101631999999MW1001REMMET055CYLL 130800Z 25008KT 15SM SKC M09/M09 A3001 RMK SLP206;EQDQ01+000000PRSWM2
0155718710999992000111508004+53320-110060FM-15+0669CYLL V0203401N005712200019N0241401N1-01001-01301101801ADDGD12991+0720099GF104991999999999999999999MA1101391999999MW1001REMMET062CYLL 150800Z 34011KT 15SM SCT240 M10/M13 A2994 RMK CI1 SLP180;EQDQ01+000000PRSWM2
0205718710999992000111623004+53320-110060FM-15+0669CYLL V0202801N006212200019N0241401N1-00601-00901101661ADDGD12991+0075099GD22991+0210099GD32991+0750099GF104991999999999999999999MA1101191999999MW1001REMMET082CYLL 162300Z 28012KT 15SM FEW025 FEW070 SCT250 M06/M09 A2988 RMK SC1AC1CI1 SLP166;EQDQ01+000000PRSWM2
0155718710999992000112010004+53320-110060FM-15+0669CYLL V0202401N003112200019N0241401N1-01301-01301102871ADDGD12991+0750099GF102991999999999999999999MA1102371999999MW1001REMMET062CYLL 201000Z 24006KT 15SM FEW250 M13/M13 A3023 RMK CI1 SLP287;EQDQ01+000000PRSWM2
0180718710999992000120216004+53320-110060FM-15+0669CYLL V0201401N002110720019N0241401N1-00901-01001101101ADDGD12991+0240099GD23991+0720099GF107991999999999999999999MA1100641999999MW1001REMMET072CYLL 021600Z 14004KT 15SM FEW080 BKN240 M09/M10 A2972 RMK AC2CI3 SLP110;EQDQ01+000000PRSWM2
0200718710999992000120323004+53320-110060FM-15+0669CYLL V0203501N006710039019N0241401N1-00801-01001102451ADDGD13991+0039099GD24991+0150099GF108991999999999999999999MA1102101999999MW1711REMMET076CYLL 032300Z 35013KT 15SM -SN BKN013 OVC050 M08/M10 A3015 RMK SC6SC2 SLP245;EQDQ01+000003PRSWM1Q02    003PRSWM1
0332718710999992000121500004+53320-110060SY-MT+0669CYLL V0202201N001012200019N0240001N1-02831-03231102311ADDAA124000091GD12991+0300099GF199999011001999999071001KA1120M-02411KA2180N-03231MA1101461093661MD1810081+9999MW1001REMSYN088AAXX  15004 71871 32974 12202 11283 21323 39366 40231 58008 81070 333 11241 21323 70000;MET062CYLL 150000Z 22002KT 15SM FEW100 M28/M32 A2996 RMK AC1 SLP231;EQDQ01+000012SCOTCVQ02+000000PRSWM2Q03  00002PRCP24
0196718710999992000121602004+53320-110060FM-15+0669CYLL V0203001N005110240019N0128741N1-02501-03001103391ADDGD13991+0240099GF107991999999999999999999MA1102611999999MW1361MW2711OC100981REMMET073CYLL 160200Z 30010G19KT 8SM -SN DRSN BKN080 M25/M30 A3030 RMK AC6 SLP339;EQDQ01+000003PRSWM1Q02    003PRSWM1
0133718710999992000121810004+53320-110060FM-15+0669CYLL V0202801N004112200019N0241401N1-02301-02801103561ADDGF100991999999999999999999MA1102811999999MW1001REMMET055CYLL 181000Z 28008KT 15SM SKC M23/M28 A3036 RMK SLP356;EQDQ01+000000PRSWM2
0175718710999992000122214004+53320-110060FM-15+0669CYLL V0203601N001510030019N0160931N1-01701-01901102591ADDGD14991+0030099GF108991999999999999999999MA1101931999999MW1711REMMET066CYLL 221400Z 36003KT 10SM -SN OVC010 M17/M19 A3010 RMK ST8 SLP259;EQDQ01+000003PRSWM1Q02    003PRSWM1
0155718710999992000122714004+53320-110060FM-15+0669CYLL V0202301N001510300019N0241401N1-00901-01001101901ADDGD13991+0300099GF107991999999999999999999MA1101351999999MW1001REMMET062CYLL 271400Z 23003KT 15SM BKN100 M09/M10 A2993 RMK AC6 SLP190;EQDQ01+000000PRSWM2
0144718720999992000010507254+50020-110720FM-16+0716CYXH V0203001N005710150019N0241401N1+99999+99999999999ADDGD12991+0012099GD24991+0150099GF108991999999999999999999MW1001REMMET051CYXH 050725Z 30011KT 15SM FEW004 OVC050 RMK SF2SC6;EQDQ01+000000PRSWM2
0155718720999992000011204004+50020-110720FM-15+0716CYXH V0201901N003610090019N0482801N1-00601-00901100721ADDGD14991+0090099GF108991999999999999999999MA1100241999999MW1001REMMET062CYXH 120400Z 19007KT 30SM OVC030 M06/M09 A2960 RMK SC8 SLP072;EQDQ01+000000PRSWM2
0238718720999992000011909004+50020-110720SY-MT+071699999V0202501N002610075019N0120001N1-01591-01861102991ADDGD14991+0075099GF108991999999008001999999MA1102401094021MD1310191+9999MW1001REMSYN064    AAXX  19094 71872 42562 82505 11159 21186 39402 40299 53019;MET061CYXH 190900Z 25005KT 8SM OVC025 M16/M19 A3024 RMK SC8 SLP299;EQDQ01+000000PRSWM2
0133718720999992000012913004+50020-110720FM-15+0716CYXH V0201801N001012200019N0482801N1-01401-01601102581ADDGF100991999999999999999999MA1102131999999MW1001REMMET055CYXH 291300Z 18002KT 30SM SKC M14/M16 A3016 RMK SLP258;EQDQ01+000000PRSWM2
0133718720999992000020320004+50020-110720FM-15+0716CYXH V0202301N003612200019N0482801N1-00301-00601104021ADDGF100991999999999999999999MA1103621999999MW1001REMMET055CYXH 032000Z 23007KT 30SM SKC M03/M06 A3060 RMK SLP402;EQDQ01+000000PRSWM2
0155718720999992000020510004+50020-110720FM-15+0716CYXH V0209999C000012200019N0482801N1-01101-01201102381ADDGD12991+0012099GF102991999999999999999999MA1102001999999MW1001REMMET062CYXH 051000Z 00000KT 30SM FEW004 M11/M12 A3012 RMK SF2 SLP238;EQDQ01+000000PRSWM2
0220718720999992000021100004+50020-110720SY-MT+0716CYXH V0200101N00151075001CN0300001N1-01551-01921103141ADDAA106000791AJ100039199999999AY171061AY221061GD12991+0060099GD22991+0360099GD33991+0750099GF107991021051008001071011IA1239KA1999M-01381KA2999N-01741MA1102541094141MD1710071+9999MW1021EQDQ01+000000PRSWM2Q02    003PRSWM1
0142718720999992000021712194+50020-110720FM-16+0716CYXH V0202001N00101000151CN0012071N1+99999+99999999999ADDGD15991+0001599GF109991999999000251999999MW1001MW2101REMMET058CYXH 171219Z 20002KT 3/4SM BR VV003 RMK FG8 VSBY NW-N 1/4;EQDQ01+000003PRSWM1
0155718720999992000021808004+50020-110720FM-15+0716CYXH V0202201N005712200019N0482801N1-01401-01701102801ADDGD12991+0750099GF102991999999999999999999MA1102171999999MW1001REMMET062CYXH 180800Z 22011KT 30SM FEW250 M14/M17 A3017 RMK CI2 SLP280;EQDQ01+000000PRSWM2
0153718720999992000022507374+50020-110720FM-16+0716CYXH V0203101N004110027019N0064371N1+99999+99999999999ADDGD13991+0027099GD24991+0075099GF108991999999999999999999MW1001MW2711REMMET054CYXH 250737Z 31008KT 4SM -SN BKN009 OVC025 RMK SF5SC3;EQDQ01+000003PRSWM1
0365718720999992000030518004+50020-110720SY-MT+0716CYXH V0203501N00361012001CN0300001N1+00221-00301101211ADDAA124000091GD12991+0054099GD23991+0120099GD34991+0270099GF108991061051004501071999KA1120M+00251KA2240N-00071MA1100981092681MD1210101+9999MW1001REMSYN088AAXX  05184 71872 32480 83507 10022 21030 39268 40121 52010 8657/ 333 10025 21007 70000;MET081CYXH 051800Z 35007KT 20SM SCT018 BKN040 OVC090 02/M03 A2982 RMK CF2SC5AC2 SLP121;EQDQ01+000000PRSWM2Q02  00002PRCP24
0155718720999992000031616004+50020-110720FM-15+0716CYXH V0200901N005110750019N0482801N1-00501-01001102131ADDGD13991+0750099GF107991999999999999999999MA1101691999999MW1001REMMET062CYXH 161600Z 09010KT 30SM BKN250 M05/M10 A3003 RMK CI6 SLP213;EQDQ01+000000PRSWM2
0438718720999992000032000004+50020-110720SY-MT+0716CYXH V0203201N00621027001CN0450001N1+00471-00781100541ADDAA106002091AA224002491AY181061AY281061GD12991+0045099GD22991+0120099GD33991+0270099GD44991+0750099GF108991031041004501071021KA1120M+00571KA2180N+00001MA1100371092101MD1310181+9999MW1021REMSYN106AAXX  20004 71872 11483 83212 10047 21078 39210 40054 53018 60021 70288 83472 333 10057 20000 70024 90943;MET094CYXH 200000Z 32012KT 30SM FEW015 SCT040 BKN090 OVC250 05/M08 A2964 RMK SC1SC2AC2CI1 CU SLP054;EQDQ01+000000PRSWM2Q02    003PRSWM1
0270718720999992000032321004+50020-110720SY-MT+0716CYXH V0202901N005110300019N0450001N1+00801-00021100631ADDGD13991+0300099GD24991+0750099GF108991999999999999999999MA1100511092241MD1310031+9999MW1001OC100771REMSYN060AAXX  23214 71872 42983 82910 10080 21002 39224 40063 53003;MET074CYXH 232100Z 29010G15KT 30SM BKN100 OVC250 08/M00 A2968 RMK AS6CS2 SLP063;EQDQ01+000000PRSWM2
0179718720999992000033007004+50020-110720FM-15+0716CYXH V0203201N004112200019N0482801N1+00201-00501102211ADDGD12991+0300099GD22991+0750099GF102991999999999999999999MA1102001999999MW1001REMMET071CYXH 300700Z 32008KT 30SM FEW100 FEW250 02/M05 A3012 RMK AC1CI1 SLP221;EQDQ01+000000PRSWM2
0132718720999992000033102004+50020-110720FM-15+0716CYXH V0203301N001512200019N0482801N1+00701-01001102431ADDGF100991999999999999999999MA1102241999999MW1001REMMET054CYXH 310200Z 33003KT 30SM SKC 07/M10 A3019 RMK SLP243;EQDQ01+000000PRSWM2
0212718720999992000040809004+50020-110720SY-MT+0716CYXH V0202401N003112200019N0450001N1+00301-00341101921ADDGF100991001001999999001001MA1101731093391MD1810051+9999MW1001REMSYN060AAXX  08094 71872 42983 02406 10030 21034 39339 40192 58005;MET054CYXH 080900Z 24006KT 30SM SKC 03/M03 A3004 RMK SLP192;EQDQ01+000000PRSWM2
0441718720999992000041006004+50020-110720SY-MT+0716CYXH V0200101N00511006001CN0060001N1+00031-00051102191ADDAA106000891AA224000891AC13C9AL12400191AY111061AY211061GD12991+0018099GD24991+0060099GF108991081051001501999999KA1240M+01641KA2240N-00021MA1102001093641MD1210391+9999MW1851OA132401181REMSYN140AAXX  10064 71872 11256 80110 10003 21005 39364 40219 52039 69981 78511 885// 333 10164 21002 70008 90931 93101 555 10008 20008 30423 40040;MET082CYXH 100600Z 01010KT 4SM -SHSN SCT006 OVC020 00/M00 A3012 RMK SF3SC5 /S01/ SLP219;EQDQ01    003PRSWM1
0228718720999992000041314004+50020-110720FM-15+0716CYXH V0200401N006210036019N0024141N1-00701-01001102471ADDGD13991+0036099GD24991+0060099GF108991999999999999999999MA1102271999999MW1361MW2711OC101031REMMET090CYXH 131400Z 04012G20KT 1 1/2SM -SN DRSN BKN012 OVC020 M07/M10 A3020 RMK SN2SC3SC3 SLP247;EQDQ01+000003PRSWM1Q02    003PRSWM1
0177718720999992000041416004+50020-110720FM-15+0716CYXH V0201001N005110054019N0032181N1-00801-01101102581ADDGD14991+0054099GF108991999999999999999999MA1102131999999MW1711REMMET068CYXH 141600Z 10010KT 2SM -SN OVC018 M08/M11 A3016 RMK SN3SC5 SLP258;EQDQ01+000003PRSWM1Q02    003PRSWM1
0179718720999992000042310004+50020-110720FM-15+0716CYXH V0202101N006710750019N0482801N1+01001-00201100581ADDGD12991+0210099GD23991+0750099GF107991999999999999999999MA1100611999999MW1001REMMET071CYXH 231000Z 21013KT 30SM SCT070 BKN250 10/M02 A2971 RMK AC3CI2 SLP058;EQDQ01+000000PRSWM2
0203718720999992000042316004+50020-110720FM-15+0716CYXH V0203001N006210270019N0482801N1+01201+00101100811ADDGD12991+0105099GD23991+0270099GD33991+0750099GF107991999999999999999999MA1100781999999MW1001REMMET080CYXH 231600Z 30012KT 30SM FEW035 BKN090 BKN250 12/01 A2976 RMK SC1AC4CI2 SLP081;EQDQ01+000000PRSWM2
0215718720999992000042917004+50020-110720FM-15+0716CYXH V0203001N007210720019N0482801N1+01301-00401101751ADDGD12991+0135099GD22991+0240099GD33991+0720099GF107991999999999999999999MA1101661999999MW1001OC100981REMMET084CYXH 291700Z 30014G19KT 30SM FEW045 SCT080 BKN240 13/M04 A3002 RMK CU2AC2CI2 SLP175;EQDQ01+000000PRSWM2
0325718720999992000050206004+50020-110720SY-MT+0716CYXH V0200801N002112200019N0450001N1+01441+00031100991ADDAA124000091GD12991+0750099GF102991001001999999001021KA1240M+02831KA2240N+00641MA1101051092751MD1210101+9999MW1001OA132401601REMSYN104AAXX  02064 71872 32983 20804 10144 20003 39275 40099 52010 80002 333 10283 20064 70000 555 32631 40211;MET060CYXH 020600Z 08004KT 30SM FEW250 14/00 A2984 RMK CI2 SLP099;EQDQ01+000000PRSWM2
0194718720999992000051423004+50020-110720FM-15+0716CYXH V0201301N006710750019N0482801N1+01901-00301101431ADDGD12991+0240099GD23991+0750099GF107991999999999999999999MA1101351999999MW1001REMMET086CYXH 142300Z CCA13013KT 30SM SCT080 BKN250 19/M03 A2993 RMK CU4CI3 VIRGA ALQDS SLP143;EQDQ01+000000PRSWM2
0178718720999992000051701004+50020-110720FM-15+0716CYXH V0200701N007710300019N0482801N1+01801+00301101381ADDGD12991+0180099GD23991+0300099GF107991999999999999999999MA1101291999999MW1001REMMET070CYXH 170100Z 07015KT 30SM FEW060 BKN100 18/03 A2991 RMK SC2AC4 SLP138;EQDQ01+000000PRSWM2
0200718720999992000052303204+50020-110720FM-16+0716CYXH V0203501N006210330019N0482801N1+99999+99999999999ADDGD12991+0180099GD23991+0330099GD34991+0750099GF108991999999999999999999MW1001REMMET092CYXH 230320Z 35012KT 30SM SCT065 BKN110 OVC250 RMK SC3AC2CI2 WND SHFT ACC EMBDD VIRGA ALQDS;EQDQ01+000000PRSWM2
0258718720999992000052703004+50020-110720SY-MT+0716CYXH V0203001N007712200019N0450001N1+01611+00271100591ADDGD12991+0210099GD22991+0750099GF103991999999022501999999MA1100581092301MD1310081+9999MW1001REMSYN060AAXX  27034 71872 42883 33015 10161 20027 39230 40059 53008;MET070CYXH 270300Z 30015KT 30SM FEW070 SCT250 16/03 A2970 RMK CU1CI1 SLP059;EQDQ01+000000PRSWM2
0361718720999992000052806004+50020-110720SY-MT+0716CYXH V0202401N007210300019N0450001N1+01671+00201100181ADDAA124000091GD12991+0120099GD23991+0300099GF107991041051012501071001KA1240M+02531KA2240N+00551MA1100241091991MD1810021+9999MW1001OA132401541OC100821REMSYN104AAXX  28064 71872 32683 72414 10167 20020 39199 40018 58002 84570 333 10253 20055 70000 555 32430 40001;MET073CYXH 280600Z 24010G16KT 30SM SCT040 BKN100 17/02 A2960 RMK SC4AC2 SLP018;EQDQ01+000000PRSWM2
0260718720999992000052904004+50020-110720FM-15+0716CYXH V0209999C000010090019N0482801N1+01201+00501101441ADDGA1999+009009029GD13991+0090099GD23991+0180099GD33991+0810099GF107991999999999999999999MA1101421999999MW1801REMMET105CYXH 290400Z 00000KT 30SM -SHRA BKN030TCU BKN065 BKN270 12/05 A2995 RMK TCU6SC1CI0 MDT-HVY SHRA S SLP144;EQDQ01+000003PRSWM1Q02    003PRSWM1
0150718720999992000052904174+50020-110720FM-16+0716CYXH V0200201N001012200019N0482801N1+99999+99999999999ADDGA1999+009009029GD12991+0090099GF102991999999999999999999MW1001MW2161REMMET050CYXH 290417Z 02002KT 30SM VCSH FEW030TCU RMK TCU2;EQDQ01+000003PRSWM1
0233718720999992000053121004+50020-110720SY-MT+0716CYXH V0200301N006210105019N0450001N1+00821+00001102371ADDGD14991+0105099GF108991999999012501999999MA1102201093831MD1310041+9999MW1001REMSYN060AAXX  31214 71872 42683 80312 10082 20000 39383 40237 53004;MET060CYXH 312100Z 03012KT 30SM OVC035 08/00 A3018 RMK SC8 SLP237;EQDQ01+000000PRSWM2
0223718720999992000060503004+50020-110720SY-MT+0716CYXH V0201701N003110750019N0450001N1+01771+00811101921ADDGD13991+0750099MA1101901093541MD1710131+9999MW1001REMSYN060AAXX  05034 71872 42983 51706 10177 20081 39354 40192 57013;MET060CYXH 050300Z 17006KT 30SM BKN250 18/08 A3009 RMK CI2 SLP192;EQDQ01+000052SCOTCVQ02+000000PRSWM2
0384718720999992000060812004+50020-110720SY-MT+0716CYXH V0200701N009310750019N0450001N1+01351+00521100601ADDAA106000791AY181061AY211061GD12991+0240099GD23991+0750099GF107991041001022501071011GJ106489KA1999M+02681KA2120N+01351MA1100681092391MD1510061+9999MW1021REMSYN106AAXX  08124 71872 11883 70718 10135 20052 39239 40060 55006 69901 70281 84071 333 10268 20135 55108 79999;MET073CYXH 081200Z 07016G23KT 30SM SCT080 BKN250 14/05 A2973 RMK AC4CI2 SLP060;EQDQ01+000000PRSWM2Q02    003PRSWM1
0300718720999992000061103004+50020-110720SY-MT+0716CYXH V0200601N006712200019N0450001N1+01621+99999100781ADDGD12991+0180099GD22991+0750099GF102991999999017501999999MA1100781092481MD1310121+9999MW1001REMSYN060AAXX  11034 71872 42783 20613 10162 20000 39248 40078 53012;MET080CYXH 110300Z 06013KT 30SM FEW060 FEW250 16/00 A2976 RMK SC1CI1 SHWRS S-W SLP078;EQDQ01+000003ATOD  Q02+000000PRSWM2Q03 +00003ATOD  
0392718720999992000061306004+50020-110720SY-MT+0716CYXH V0201201N002610210019N0450001N1+01231+00961100701ADDAA106000592AA224000492AC12C9AY181061AY221061GD14991+0210099GF108991081001022501071999KA1240M+02211KA2240N+00501MA1100711092421MD1310101+9999MW1251OA132401031REMSYN122AAXX  13064 71872 11883 81205 10123 20096 39242 40070 53010 69941 72582 8807/ 333 10221 20050 70004 90921 555 32220 40171;MET060CYXH 130600Z 12005KT 30SM OVC070 12/10 A2974 RMK AC8 SLP070;EQDQ01+000000PRSWM2Q02    003PRSWM1
0258718720999992000061403004+50190-110720SY-MT+0716CYXH V0209999C000012200019N0450001N1+01841+00821101461ADDGD12991+0120099GD22991+0810099GF102991999999012501999999MA1101461093111MD1710071+9999MW1001REMSYN060AAXX  14034 71872 42683 20000 10184 20082 39311 40146 57007;MET070CYXH 140300Z 00000KT 30SM FEW040 FEW270 18/08 A2996 RMK SC1CI0 SLP146;EQDQ01+000000PRSWM2
0258718720999992000061615004+50190-110720SY-MT+0716CYXH V0203501N005110045019N0450001N1+01131+00641101971ADDGD13991+0045099GD24991+0210099GF108991999999004501999999MA1101901093531MD1110051+9999MW1001REMSYN060AAXX  16154 71872 42483 83510 10113 20064 39353 40197 51005;MET070CYXH 161500Z 35010KT 30SM BKN015 OVC075 11/06 A3009 RMK SC6AC2 SLP197;EQDQ01+000000PRSWM2
0412718720999992000062306004+50190-110720SY-MT+0716CYXH V0200701N005112200019N0220001N1+01221+00811101131ADDAA106000792AA224000292AC11C9AY111061AY211061GD12991+0240099GF103991031031022501061001KA1240M+02391KA2240N+01001MA1101121092811MD1010151+9999MW1251OA132401031REMSYN122AAXX  23064 71872 /1872 30710 10122 20081 39281 40113 50015 69901 72511 83360 333 10239 20100 70002 90910 555 30220 40060;MET080CYXH 230600Z 07010KT 30SM SCT080 12/08 A2986 RMK AC3 CB EMBDD LTGIC W+SE SLP113;EQDQ01+000000PRSWM2Q02    003PRSWM1
0155718720999992000062503424+50190-110720FM-16+0716CYXH V0202901N005110150019N0225301N1+99999+99999999999ADDGD12991+0060099GD23991+0150099GF107991999999999999999999MW1001MW2161REMMET056CYXH 250342Z 29010KT 14SM VCSH FEW020 BKN050 RMK SC2SC5;EQDQ01+000003PRSWM1
0233718720999992000062515004+50190-110720SY-MT+0716CYXH V0202501N005112200019N0450001N1+01321+00841102401ADDGD12991+0300099GF102991999999999999999999MA1102341093931MD1010041+9999MW1001REMSYN060AAXX  25154 71872 42983 22510 10132 20084 39393 40240 50004;MET060CYXH 251500Z 25010KT 30SM FEW100 13/08 A3022 RMK AC2 SLP240;EQDQ01+000000PRSWM2
0258718720999992000070621004+50190-110720SY-MT+0716CYXH V0202701N005112200019N0450001N1+01941+00901100961ADDGD12991+0120099GD22991+0240099GF104991999999012501999999MA1100981092691MD1010021+9999MW1001REMSYN060AAXX  06214 71872 42683 42710 10194 20090 39269 40096 50002;MET070CYXH 062100Z 27010KT 30SM FEW040 SCT080 19/09 A2982 RMK SC2AC2 SLP096;EQDQ01+000000PRSWM2
0178718720999992000070720004+50190-110720FM-15+0716CYXH V0202801N007710750019N0482801N1+02501+00401100991ADDGD12991+0210099GD23991+0750099GF107991999999999999999999MA1101021999999MW1001REMMET070CYXH 072000Z 28015KT 30SM FEW070 BKN250 25/04 A2983 RMK CU1CI2 SLP099;EQDQ01+000000PRSWM2
0127718720999992000070921004+50190-110720FM-12+0716CYXH V0203601N001019999999N0450001N1+02251+01121101181ADDGF106991999999012501999999MA1999999092941MD1810071+9999REMSYN060AAXX  09214 71872 42683 63602 10225 20112 39294 40118 58007;
0153718720999992000071620004+50190-110720FM-15+0716CYXH V0202101N003112200019N0482801N1+02301+00601101921ADDGD12991+0150099GF104991999999999999999999MA1101931999999MW1001REMMET060CYXH 162000Z 21006KT 30SM SCT050 23/06 A3010 RMK CU3 SLP192;EQDQ01+000000PRSWM2
0164718720999992000071920004+50010-110720FM-15+0716CYXH V0200601N003112200019N0482801N1+02501+01001101851ADDGD12991+0180099GF102991999999999999999999MA1101931999999MW1001REMMET071CYXH 192000Z 06006KT 30SM FEW064 25/10 A3010 RMK CU2 TCU ASOCTD SLP185;EQDQ01+000000PRSWM2
0205718720999992000072023004+50010-110720FM-15+0716CYXH V0200401N005010135019N0482801N1+02301+01201101571ADDGA1999+013509099GD13991+0135099GF107991999999999999999999MA1101661999999MW1801MW2951REMMET074CYXH 202300Z 04005KT 30SM -TSRA BKN045CB 23/12 A3002 RMK CB6 LTGCG SLP157;EQDQ01+000003PRSWM1Q02    003PRSWM1
0153718720999992000072216004+50010-110720FM-15+0716CYXH V0200601N002612200019N0482801N1+02601+01201101621ADDGD12991+0270099GF102991999999999999999999MA1101731999999MW1001REMMET060CYXH 221600Z 06005KT 30SM FEW090 26/12 A3004 RMK AC1 SLP162;EQDQ01+000000PRSWM2
0131718720999992000072705004+50010-110720FM-15+0716CYXH V0200901N003112200019N0482801N1+02501+00501100721ADDGF100991999999999999999999MA1100881999999MW1001REMMET053CYXH 270500Z 09006KT 30SM SKC 25/05 A2979 RMK SLP072;EQDQ01+000000PRSWM2
0178718720999992000073123004+50010-110720FM-15+0716CYXH V0209999C000010360019N0482801N1+02901+01101101641ADDGD13991+0360099GD23991+0840099GF107991999999999999999999MA1101761999999MW1001REMMET070CYXH 312300Z 00000KT 30SM BKN120 BKN280 29/11 A3005 RMK AC6CI1 SLP164;EQDQ01+000000PRSWM2
0228718720999992000080522004+50010-110720FM-15+0716CYXH V0202901N006710210019N0482801N1+02901+01001101071ADDGA1999+021009029GD13991+0210099GD23991+0750099GF107991999999999999999999MA1101151999999MW1001OC101031REMMET096CYXH 052200Z 29013G20KT 30SM BKN070TCU BKN250 29/10 A2987 RMK TCU5CI2 CB ASOCTD SHWRS SE SLP107;EQDQ01+000000PRSWM2
0153718720999992000080613004+50010-110720FM-15+0716CYXH V0209999C000012200019N0482801N1+01401+01001100961ADDGD12991+0240099GF102991999999999999999999MA1101051999999MW1001REMMET060CYXH 061300Z 00000KT 30SM FEW080 14/10 A2984 RMK AC1 SLP096;EQDQ01+000000PRSWM2
0249718720999992000080821004+50010-110720SY-MT+0716CYXH V0201701N004112200019N0450001N1+02631+00981101221ADDGD12991+0180099GF199999999999022501999999MA1101291092971MD1610131+9999MW1001REMSYN060AAXX  08214 71872 42883 11708 10263 20098 39297 40122 56013;MET060CYXH 082100Z 17008KT 30SM FEW068 26/10 A2991 RMK CU1 SLP122;EQDQ01+000012SCOTCVQ02+000000PRSWM2
0153718720999992000081513004+50010-110720FM-15+0716CYXH V0200801N004612200019N0482801N1+01301+00301102011ADDGD12991+0720099GF102991999999999999999999MA1102031999999MW1001REMMET060CYXH 151300Z 08009KT 30SM FEW240 13/03 A3013 RMK CI1 SLP201;EQDQ01+000000PRSWM2
0189718720999992000082008004+50010-110720FM-15+0716CYXH V0202701N007210750019N0321861N1+01701+00201101231ADDGD12991+0360099GD23991+0750099GF107991999999999999999999MA1101291999999MW1001OC101031REMMET073CYXH 200800Z 27014G20KT 20SM SCT120 BKN250 17/02 A2991 RMK AC4CI2 SLP123;EQDQ01+000000PRSWM2
0258718720999992000082009004+50010-110720SY-MT+0716CYXH V0203001N005110750019N0300001N1+01541+00201101291ADDGD12991+0360099GD23991+0750099GF107991999999999999999999MA1101351093031MD1110081+9999MW1001REMSYN060AAXX  20094 71872 42980 73010 10154 20020 39303 40129 51008;MET070CYXH 200900Z 30010KT 20SM SCT120 BKN250 15/02 A2993 RMK AC3CI2 SLP129;EQDQ01+000000PRSWM2
0131718720999992000082314004+50010-110720FM-15+0716CYXH V0202401N003612200019N0241401N1+01401+00101101341ADDGF100991999999999999999999MA1101421999999MW1001REMMET053CYXH 231400Z 24007KT 15SM SKC 14/01 A2995 RMK SLP134;EQDQ01+000000PRSWM2
0197718720999992000083017004+50010-110720FM-15+0716CYXH V0200601N005110021019N0096561N1+00801+00601101811ADDGD13991+0021099GD24991+0033099GF108991999999999999999999MA1101731999999MW1611REMMET073CYXH 301700Z 06010KT 6SM -RA BKN007 OVC011 08/06 A3004 RMK SF6SC2 SLP181;EQDQ01+000003PRSWM1Q02    003PRSWM1
0203718720999992000090417004+50010-110720FM-15+0716CYXH V0200301N004610135019N0482801N1+01501+00801102011ADDGD12991+0036099GD23991+0135099GD33991+0240099GF107991999999999999999999MA1101931999999MW1001REMMET080CYXH 041700Z 03009KT 30SM FEW012 BKN045 BKN080 15/08 A3010 RMK SC2SC4AC1 SLP201;EQDQ01+000000PRSWM2
0178718720999992000090611004+50010-110720FM-15+0716CYXH V0202601N003610780019N0482801N1+00801+00501101441ADDGD12991+0210099GD23991+0780099GF107991999999999999999999MA1101421999999MW1001REMMET070CYXH 061100Z 26007KT 30SM SCT070 BKN260 08/05 A2995 RMK AC3CI2 SLP144;EQDQ01+000000PRSWM2
0214718720999992000090823004+50010-110720FM-15+0716CYXH V0202701N007710330019N0482801N1+02201+00101099281ADDGD12991+0180099GD23991+0330099GD34991+0750099GF108991999999999999999999MA1099361999999MW1001OC101031REMMET083CYXH 082300Z 27015G20KT 30SM FEW065 BKN110 OVC250 22/01 A2934 RMK SC2AC3CI2 SLP928;EQDQ01+000000PRSWM2
0179718720999992000091004004+50010-110720FM-15+0716CYXH V0202401N008710750019N0482801N1+01201-00101100171ADDGD12991+0300099GD23991+0750099GF107991999999999999999999MA1100101999999MW1001REMMET071CYXH 100400Z 24017KT 30SM FEW100 BKN250 12/M01 A2956 RMK AC2CI2 SLP017;EQDQ01+000000PRSWM2
0178718720999992000091205004+50010-110720FM-15+0716CYXH V0202301N002112200019N0482801N1+01001+00001101021ADDGD12991+0270099GD22991+0750099GF102991999999999999999999MA1100951999999MW1001REMMET070CYXH 120500Z 23004KT 30SM FEW090 FEW250 10/00 A2981 RMK AC2CI0 SLP102;EQDQ01+000000PRSWM2
0258718720999992000091515004+50010-110720SY-MT+0716CYXH V0202201N005712200019N0450001N1+01851+00641101161ADDGD12991+0270099GD22991+0780099GF102991999999999999999999MA1101221092891MD1310011+9999MW1001REMSYN060AAXX  15154 71872 42983 22211 10185 20064 39289 40116 53001;MET070CYXH 151500Z 22011KT 30SM FEW090 FEW260 19/06 A2989 RMK AC1CI0 SLP116;EQDQ01+000000PRSWM2
0350718720999992000091606004+50010-110720SY-MT+0716CYXH V0200701N006210210019N0450001N1+02011+00661101481ADDAA124000091GD13991+0210099GD23991+0750099GF107991061001022501071021KA1240M+03161KA2240N+01221MA1101561093231MD1010081+9999MW1001OA132400881REMSYN104AAXX  16064 71872 32883 70712 10201 20066 39323 40148 50008 86072 333 10316 20122 70000 555 32417 40171;MET070CYXH 160600Z 07012KT 30SM BKN070 BKN250 20/07 A2999 RMK AC6CI1 SLP148;EQDQ01+000000PRSWM2
0131718720999992000091710004+50010-110720FM-15+0716CYXH V0202401N004112200019N0482801N1+01401+00501101141ADDGF100991999999999999999999MA1101221999999MW1001REMMET053CYXH 171000Z 24008KT 30SM SKC 14/05 A2989 RMK SLP114;EQDQ01+000000PRSWM2
0234718720999992000092121004+50010-110720SY-MT+0716CYXH V0200101N007710105019N0450001N1+00161-00711102581ADDGD14991+0105099GF108991999999012501999999MA1102341093951MD1210071+9999MW1001REMSYN060AAXX  21214 71872 42683 80115 10016 21071 39395 40258 52007;MET061CYXH 212100Z 01015KT 30SM OVC035 02/M07 A3022 RMK SC8 SLP258;EQDQ01+000000PRSWM2
0131718720999992000092717004+50010-110720FM-15+0716CYXH V0202201N006712200019N0482801N1+01601+00301101921ADDGF100991999999999999999999MA1101831999999MW1001REMMET053CYXH 271700Z 22013KT 30SM SKC 16/03 A3007 RMK SLP192;EQDQ01+000000PRSWM2
0155718720999992000100407004+50010-110720FM-15+0716CYXH V0200501N002610150019N0482801N1-00101-00301102001ADDGD13991+0150099GF107991999999999999999999MA1101731999999MW1001REMMET062CYXH 040700Z 05005KT 30SM BKN050 M01/M03 A3004 RMK SC7 SLP200;EQDQ01+000000PRSWM2
0213718720999992000100603004+50010-110720SY-MT+0716CYXH V0209999C000012200019N0450001N1-00301-00831103441ADDGF100991001001999999001001MA1103051094621MD1410001+9999MW1001REMSYN060AAXX  06034 71872 42983 00000 11030 21083 39462 40344 54000;MET055CYXH 060300Z 00000KT 30SM SKC M03/M08 A3043 RMK SLP344;EQDQ01+000000PRSWM2
0153718720999992000101111004+50010-110720FM-15+0716CYXH V0202401N004112200019N0482801N1+00401+00001101251ADDGD12991+0750099GF104991999999999999999999MA1101191999999MW1001REMMET060CYXH 111100Z 24008KT 30SM SCT250 04/00 A2988 RMK CI2 SLP125;EQDQ01+000000PRSWM2
0126718720999992000101313254+50010-110720FM-16+0716CYXH V0200301N00261000151CN0032181N1+99999+99999999999ADDGD15991+0001599GF109991999999000251999999MW1001MW2101REMMET042CYXH 131325Z 03005KT 2SM BR VV004 RMK FG8;EQDQ01+000003PRSWM1
0310718720999992000102021004+50010-110720SY-MT+0716CYXH V0202001N008210750019N0450001N1+02111+00011100211ADDGD12991+0240099GD22991+0360099GD33991+0750099GF199999999999022501999999MA1100141091901MD1710341+9999MW1001OC101231REMSYN060AAXX  20214 71872 42883 62016 10211 20001 39190 40021 57034;MET083CYXH 202100Z 20016G24KT 30SM FEW080 FEW120 BKN250 21/00 A2957 RMK AC1AC1CI2 SLP021;EQDQ01+000062SCOTCVQ02+000000PRSWM2
0179718720999992000102419004+50010-110720FM-15+0716CYXH V0202301N005112200019N0482801N1+01701-00101101431ADDGD12991+0270099GD22991+0780099GF104991999999999999999999MA1101351999999MW1001REMMET071CYXH 241900Z 23010KT 30SM FEW090 SCT260 17/M01 A2993 RMK AC1CI2 SLP143;EQDQ01+000000PRSWM2
0287718720999992000102506004+50010-110720SY-MT+0716CYXH V0209999C000012200019N0450001N1+00351-00411101491ADDAA124000091GF100991001001999999001001KA1240M+01961KA2240N+00071MA1101351093041MD1110061+9999MW1001REMSYN082AAXX  25064 71872 32983 00000 10035 21041 39304 40149 51006 333 10196 20007 70000;MET054CYXH 250600Z 00000KT 30SM SKC 04/M04 A2993 RMK SLP149;EQDQ01+000000PRSWM2Q02  00002PRCP24
0154718720999992000102613004+50010-110720FM-15+0716CYXH V0202301N001010270019N0482801N1+00201-00201101931ADDGD13991+0270099GF107991999999999999999999MA1101761999999MW1001REMMET061CYXH 261300Z 23002KT 30SM BKN090 02/M02 A3005 RMK AC6 SLP193;EQDQ01+000000PRSWM2
0154718720999992000110320004+50010-110720FM-15+0716CYXH V0202201N005112200019N0482801N1+01201-00301101741ADDGD12991+0810099GF102991999999999999999999MA1101521999999MW1001REMMET061CYXH 032000Z 22010KT 30SM FEW270 12/M03 A2998 RMK CI0 SLP174;EQDQ01+000000PRSWM2
0190718720999992000110417004+50010-110720FM-15+0716CYXH V0202301N007712200019N0482801N1+01101+00001099951ADDGD12991+0300099GD22991+0750099GF104991999999999999999999MA1099831999999MW1001OC101031REMMET074CYXH 041700Z 23015G20KT 30SM FEW100 SCT250 11/M00 A2948 RMK AC2CI1 SLP995;EQDQ01+000000PRSWM2
0260718720999992000110921004+50010-110720SY-MT+0716CYXH V0202801N003610180019N0240001N1-00601-01141102631ADDGD12991+0075099GD24991+0180099GF108991999999008001999999MA1102131093771MD1710071+9999MW1001REMSYN060AAXX  09214 71872 42574 82807 11060 21114 39377 40263 57007;MET072CYXH 092100Z 28007KT 15SM SCT025 OVC060 M06/M11 A3016 RMK SC3SC4 SLP263;EQDQ01+000000PRSWM2
0224718720999992000111721004+50010-110720SY-MT+0716CYXH V0202401N005110810019N0450001N1+00081-00691102351ADDGD13991+0810099MA1102071093681MD1710311+9999MW1001REMSYN060AAXX  17214 71872 42983 52410 10008 21069 39368 40235 57031;MET061CYXH 172100Z 24010KT 30SM BKN270 01/M07 A3014 RMK CI1 SLP235;EQDQ01+000052SCOTCVQ02+000000PRSWM2
0155718720999992000112011004+50010-110720FM-15+0716CYXH V0202301N002112200019N0321861N1-01301-01401102951ADDGD12991+0750099GF102991999999999999999999MA1102541999999MW1001REMMET062CYXH 201100Z 23004KT 20SM FEW250 M13/M14 A3028 RMK CI0 SLP295;EQDQ01+000000PRSWM2
0155718720999992000112019004+50010-110720FM-15+0716CYXH V0201201N001512200019N0482801N1-00101-00701102561ADDGD12991+0750099GF102991999999999999999999MA1102101999999MW1001REMMET062CYXH 201900Z 12003KT 30SM FEW250 M01/M07 A3015 RMK CI1 SLP256;EQDQ01+000000PRSWM2
0390718720999992000112412004+50010-110720SY-MT+0716CYXH V0202701N007710150019N0450001N1+00531-00361101261ADDAA124000091AJ199993999999999GD13991+0150099GF199999061051017501001001GJ104869IA1259KA1999M+01231KA2120N-00011MA1101121092801MD1210151+9999MW1001REMSYN100AAXX  24124 71872 32783 62715 10053 21036 39280 40126 52015 86500 333 10123 21001 41997 55081 70000;MET061CYXH 241200Z 27015KT 30SM BKN050 05/M04 A2986 RMK SC6 SLP126;EQDQ01+000062SCOTCVQ02+000000PRSWM2Q03  00002PRCP24Q04  09982SNDP  
0179718720999992000112419004+50010-110720FM-15+0716CYXH V0202201N004110045019N0241401N1+00101+00001102111ADDGD13991+0045099GD23991+0750099GF107991999999999999999999MA1101831999999MW1001REMMET071CYXH 241900Z 22008KT 15SM BKN015 BKN250 01/M00 A3007 RMK SC5CI1 SLP211;EQDQ01+000000PRSWM2
0180718720999992000112914004+50010-110720FM-15+0716CYXH V0200901N002110300019N0482801N1-00701-01001102601ADDGD13991+0300099GD23991+0750099GF107991999999999999999999MA1102241999999MW1001REMMET072CYXH 291400Z 09004KT 30SM BKN100 BKN250 M07/M10 A3019 RMK AC5CI2 SLP260;EQDQ01+000000PRSWM2
0133718720999992000120202004+50010-110720FM-15+0716CYXH V0202101N006712200019N0482801N1-00101-00701102261ADDGF100991999999999999999999MA1101831999999MW1001REMMET055CYXH 020200Z 21013KT 30SM SKC M01/M07 A3007 RMK SLP226;EQDQ01+000000PRSWM2
0180718720999992000120817004+50010-110720FM-15+0716CYXH V0202101N002112200019N0482801N1-00501-00701101551ADDGD12991+0300099GD22991+0780099GF104991999999999999999999MA1101191999999MW1001REMMET072CYXH 081700Z 21004KT 30SM FEW100 SCT260 M05/M07 A2988 RMK AC2CI2 SLP155;EQDQ01+000000PRSWM2
0155718720999992000121323004+50010-110720FM-15+0716CYXH V0200801N002112200019N0193121N1-02101-02701102131ADDGD12991+0750099GF102991999999999999999999MA1101461999999MW1001REMMET062CYXH 132300Z 08004KT 12SM FEW250 M21/M27 A2996 RMK CI1 SLP213;EQDQ01+000000PRSWM2
0155718720999992000122201004+50010-110720FM-15+0716CYXH V0200601N001010750019N0482801N1-01801-02301102211ADDGD13991+0750099GF107991999999999999999999MA1101491999999MW1001REMMET062CYXH 220100Z 06002KT 30SM BKN250 M18/M23 A2997 RMK CI2 SLP221;EQDQ01+000000PRSWM2
0213718720999992000123121004+50010-110720SY-MT+0716CYXH V0202101N002112200019N0450001N1-00361-00791101861ADDGF100991001001999999001001MA1101461093111MD1710231+9999MW1001REMSYN060AAXX  31214 71872 42983 02104 11036 21079 39311 40186 57023;MET055CYXH 312100Z 21004KT 30SM SKC M04/M08 A2996 RMK SLP186;EQDQ01+000000PRSWM2
0143718730999992000030500004+52070-111450FM-12+0791CYCT V0203501N006219999999N0140001N1+00021-00431100901ADDKA1120M+00141KA2999N-00851MA1999999091391MD1110091+9999REMSYN076AAXX  05004 71873 46/64 /3512 10002 21043 39139 40090 51009 333 10014 21085;
0143718730999992000030706004+52070-111450FM-12+0791CYCT V0203401N002119999999N0140001N1-00371-00501101031ADDKA1240M-00301KA2999N-00501MA1999999091481MD1810031+9999REMSYN076AAXX  07064 71873 46/64 /3404 11037 21050 39148 40103 58003 333 11030 21050;
0143718730999992000031100004+52070-111450FM-12+0791CYCT V0201501N001019999999N0140001N1-00951-01451103171ADDKA1120M-00721KA2999N-01311MA1999999093291MD1510021+9999REMSYN076AAXX  11004 71873 46/64 /1502 11095 21145 39329 40317 55002 333 11072 21131;
0143718730999992000032706004+52070-111450FM-12+0791CYCT V0202101N002619999999N0140001N1+00011-00541101291ADDKA1240M+00681KA2999N-00431MA1999999091811MD1810141+9999REMSYN076AAXX  27064 71873 46/64 /2105 10001 21054 39181 40129 58014 333 10068 21043;
0179718730999992000050106004+52070-111450FM-12+0791CYCT V0202201N003119999999N0140001N1+00771+00011101451ADDAA124000091KA1240M+01821KA2240N-00211MA1999999092131MD1810061+9999REMSYN082AAXX  01064 71873 36/64 /2206 10077 20001 39213 40145 58006 333 10182 21021 70000;EQDQ01  00002PRCP24
0179718730999992000051300004+52070-111450FM-12+0791CYCT V0203501N002119999999N0140001N1+01141-00391102091ADDAA124000091KA1120M+01301KA2180N-00111MA1999999092601MD1510001+9999REMSYN082AAXX  13004 71873 36/64 /3504 10114 21039 39260 40209 55000 333 10130 21011 70000;EQDQ01  00002PRCP24
0179718730999992000051712004+52070-111450FM-12+0791CYCT V0201401N004619999999N0140001N1+00551+00011101741ADDAA124000091KA1999M+01461KA2120N+00491MA1999999092351MD1810041+9999REMSYN082AAXX  17124 71873 36/64 /1409 10055 20001 39235 40174 58004 333 10146 20049 70000;EQDQ01  00002PRCP24
0172718730999992000052812004+52070-111450FM-12+0791CYCT V0203101N007219999999N0140001N1+00671+00671100511ADDAA106002091KA1999M+02061KA2120N+00671MA1999999091281MD1110211+9999REMSYN094AAXX  28124 71873 1//64 /3114 10067 20067 39128 40051 51021 60021 7//4/ 333 10206 20067 70018;
0160718730999992000071200004+52690-111440FM-12+0791CYCT V0203101N007219999999N0140001N1+02401+01061101281ADDAA124000391KA1120M+02401KA2180N+01151MA1999999092081MD1110061+9999REMSYN082AAXX  12004 71873 36/64 /3114 10240 20106 39208 40128 51006 333 10240 20115 70002;
0172718730999992000080212004+52070-111440FM-12+0791CYCT V0203301N004119999999N0140001N1+01001+00981101771ADDAA106000191KA1999M+03041KA2120N+01001MA1999999092561MD1310041+9999REMSYN094AAXX  02124 71873 1//64 /3308 10100 20098 39256 40177 53004 69921 7//4/ 333 10304 20100 70004;
0166718730999992000092018004+52070-111440FM-12+0791CYCT V0201201N005119999999N0140001N1+00781+00321101701ADDAA106000191KA1120M+00781KA2999N-00131MA1999999092261MD1610181+9999REMSYN088AAXX  20184 71873 1//64 /1210 10078 20032 39226 40170 56018 69921 7//4/ 333 10078 21013;
0143718730999992000121212004+52070-111440FM-12+0791CYCT V0203401N004119999999N0140001N1-02621-03051102961ADDKA1999M-01951KA2999N-02781MA1999999092811MD1310061+9999REMSYN076AAXX  12124 71873 46/64 /3408 11262 21305 39281 40296 53006 333 11195 21278;
0086718735999992000061408004+52690-111470SAO  +0791CWCT V0209999C000019999999N0144841N1+01001+01001999999ADDMW1001REMAWY068WCT SA 0800 AUTO2 CLR BLO 100 9.+ M 148/10/10/0000/M/0004 8017 00MM;
0086718735999992000061502004+52690-111470SAO  +0791CWCT V0202701N001519999999N0144841N1+01201+01101999999ADDMW1001REMAWY068WCT SA 0200 AUTO2 CLR BLO 100 9.+ M 078/12/11/2703/M/0006 6005 82MM;
0082718735999992000062205004+52690-111470SAO  +0791CWCT V0201901N003019999999N0144841N1+01201+00701999999ADDMW1001REMAWY064WCT SA 0500 AUTO2 CLR BLO 100 9.+ M 115/12/07/1906/M/ 0008 30MM;
0082718735999992000062303004+52690-111470SAO  +0791CWCT V0200201N002519999999N0144841N1+01601+00601999999ADDMW1001REMAWY064WCT SA 0300 AUTO2 CLR BLO 100 9.+ M 119/16/06/0205/M/ 5001 82MM;
0082718735999992000070305004+52690-111470SAO  +0791CWCT V0200801N000519999999N0144841N1+01401+01101999999ADDMW1001REMAWY064WCT SA 0500 AUTO2 CLR BLO 100 9.+ M 100/14/11/0801/M/ 0004 59MM;
0082718735999992000070503004+52690-111470SAO  +0791CWCT V0202501N004119999999N0144841N1+01301+00601999999ADDMW1001REMAWY064WCT SA 0300 AUTO2 CLR BLO 100 9.+ M 095/13/06/2508/M/ 1020 68MM;
0082718735999992000070710004+52690-111470SAO  +0791CWCT V0202501N003019999999N0144841N1+00901+00901999999ADDMW1001REMAWY064WCT SA 1000 AUTO2 CLR BLO 100 9.+ M 098/09/09/2506/M/ 8007 36MM;
0086718735999992000071109004+52690-111470SAO  +0791CWCT V0202501N003619999999N0144841N1+01201+01201999999ADDMW1001REMAWY068WCT SA 0900 AUTO2 CLR BLO 100 9.+ M 108/12/12/2507/M/0002 5001 55MM;
0082718735999992000071621004+52690-111470SAO  +0791CWCT V0203401N004619999999N0144841N1+02001+00901999999ADDMW1001REMAWY064WCT SA 2100 AUTO2 CLR BLO 100 9.+ M 219/20/09/3409/M/ 8005 06MM;
0072718735999992000071908004+52070-111470SAO  +0791CWCT V0201401N001519999999N0144841N1+01201+00901999999ADDMW1001REMAWY054WCT SA 0800 AUTO2 M 9.+ M 222/12/09/1403/M/ 3007 94MM;
0112718735999992000072700004+52070-111470SAO  +0791CWCT V0200101N003019999999N0144841N1+02601+01301999999ADDAA199000091MW1001REMAWY064WCT SA 0000 AUTO2 CLR BLO 100 9.+ M 112/26/13/0106/M/ 6005 60MM;EQDQ01  00002PRCP99
0082718735999992000072910004+52070-111470SAO  +0791CWCT V0203501N006619999999N0144841N1+01501+01401999999ADDMW1001REMAWY064WCT SA 1000 AUTO2 CLR BLO 100 9.+ M 131/15/14/3513/M/ 3015 45MM;
0082718735999992000072913004+52070-111470SAO  +0791CWCT V0203401N004119999999N0144841N1+01501+01401999999ADDMW1001REMAWY064WCT SA 1300 AUTO2 CLR BLO 100 9.+ M 156/15/14/3408/M/ 1021 75MM;
0082718735999992000073007004+52070-111470SAO  +0791CWCT V0200801N003019999999N0144841N1+01601+01101999999ADDMW1001REMAWY064WCT SA 0700 AUTO2 CLR BLO 100 9.+ M 176/16/11/0806/M/ 1010 63MM;
0082718735999992000081222004+52070-111470SAO  +0791CWCT V0201201N000519999999N0144841N1+01901+00501999999ADDMW1001REMAWY064WCT SA 2200 AUTO2 CLR BLO 100 9.+ M 186/19/05/1201/M/ 6011 40MM;
0082718735999992000082415004+52070-111470SAO  +0791CWCT V0203201N002019999999N0144841N1+01901+00901999999ADDMW1001REMAWY064WCT SA 1500 AUTO2 CLR BLO 100 9.+ M 173/19/09/3204/M/ 3006 17MM;
0082718735999992000082503004+52070-111470SAO  +0791CWCT V0200601N003019999999N0144841N1+02101+01201999999ADDMW1001REMAWY064WCT SA 0300 AUTO2 CLR BLO 100 9.+ M 164/21/12/0606/M/ 5001 34MM;
0082718735999992000082523004+52070-111470SAO  +0791CWCT V0202701N003619999999N0144841N1+02901+00401999999ADDMW1001REMAWY064WCT SA 2300 AUTO2 CLR BLO 100 9.+ M 105/29/04/2707/M/ 6013 52MM;
0082718735999992000082705004+52070-111470SAO  +0791CWCT V0202201N002519999999N0144841N1+01001+00701999999ADDMW1001REMAWY064WCT SA 0500 AUTO2 CLR BLO 100 9.+ M 089/10/07/2205/M/ 3018 20MM;
0112718735999992000090806004+52070-111470SAO  +0791CWCT V0201901N005119999999N0144841N1+01101+00501999999ADDAA199000091MW1001REMAWY064WCT SA 0600 AUTO2 CLR BLO 100 9.+ M 978/11/05/1910/M/ 6014 02MM;EQDQ01  00002PRCP99
0082718735999992000090916004+52070-111470SAO  +0791CWCT V0202701N006619999999N0144841N1+01001+00501999999ADDMW1001REMAWY064WCT SA 1600 AUTO2 CLR BLO 100 9.+ M 019/10/05/2713/M/ 1005 21MM;
0120718735999992000092220004+52070-111470SAO  +0791CWCT V0202201N00201008101EN0144841N1+00101-00801999999ADDGD14991+0081099GF108991081999008001999999MW1001REMAWY061WCT SA 2000 AUTO2 E27 OVC 9.+ M 297/01/-08/2204/M/ 8009 52MM;
0082718735999992000092414004+52070-111470SAO  +0791CWCT V0202201N002019999999N0144841N1+00201+00101999999ADDMW1001REMAWY064WCT SA 1400 AUTO2 CLR BLO 100 9.+ M 234/02/01/2204/M/ 4000 08MM;
0082718735999992000092507004+52070-111470SAO  +0791CWCT V0203201N003019999999N0144841N1+00601+00301999999ADDMW1001REMAWY064WCT SA 0700 AUTO2 CLR BLO 100 9.+ M 208/06/03/3206/M/ 1002 66MM;
0113718735999992000100100004+52070-111470SAO  +0791CWCT V0203201N004119999999N0144841N1+01001-00201999999ADDAA199000091MW1001REMAWY065WCT SA 0000 AUTO2 CLR BLO 100 9.+ M 030/10/-02/3208/M/ 3016 49MM;EQDQ01  00002PRCP99
0083718735999992000100620004+52070-111470SAO  +0791CWCT V0201501N005119999999N0144841N1+00401-01201999999ADDMW1001REMAWY065WCT SA 2000 AUTO2 CLR BLO 100 9.+ M 365/04/-12/1510/M/ 8005 64MM;
0084718735999992000100709004+52070-111470SAO  +0791CWCT V0201701N005619999999N0144841N1-00501-01101999999ADDMW1001REMAWY066WCT SA 0900 AUTO2 CLR BLO 100 9.+ M 327/-05/-11/1711/M/ 6010 38MM;
0083718735999992000100821004+52070-111470SAO  +0791CWCT V0202101N005119999999N0144841N1+02001-00301999999ADDMW1001REMAWY065WCT SA 2100 AUTO2 CLR BLO 100 9.+ M 122/20/-03/2110/M/ 8013 28MM;
0093718735999992000101120004+52070-111470SAO  +0791CWCT V0203601N006119999999N0144841N1+01001+00401999999ADDMW1001OC100971REMAWY067WCT SA 2000 AUTO2 CLR BLO 100 9.+ M 195/10/04/3612+19/M/ 0002 65MM;
0084718735999992000102911004+52070-111470SAO  +0791CWCT V0201801N004119999999N0144841N1+00001-00201999999ADDMW1001REMAWY066WCT SA 1100 AUTO2 CLR BLO 100 9.+ M 061/00/-02/1808/M/ 3009 -31MM;
0096718735999992000111621004+52070-111470SAO  +0791CWCT V0203201N011319999999N0144841N1-00301-00701999999ADDMW1001OC101591REMAWY070WCT SA 2100 AUTO2 CLR BLO 100 9.+ M 186/-03/-07/3222+31/M/M 6015 12MM;
0085718735999992000112008004+52070-111470SAO  +0791CWCT V0202101N003019999999N0144841N1-01501-01601999999ADDMW1001REMAWY067WCT SA 0800 AUTO2 CLR BLO 100 9.+ M 308/-15/-16/2106/M/M 8005 11MM;
0085718735999992000112019004+52070-111470SAO  +0791CWCT V0202601N001519999999N0144841N1-00601-00801999999ADDMW1001REMAWY067WCT SA 1900 AUTO2 CLR BLO 100 9.+ M 266/-06/-08/2603/M/M 6007 23MM;
