0054701486999992000010809009+67733-164550NSRDB+000399999V020999999999999999999999999999+99999+99999999999ADDGP10060000001000000001000000001000GR100600000900009
0157701486999992000011103534+67730-164550FM-15+0003PAVL V0203101N005112200019N0160931N1-01401-02301103141ADDGF100991999999999999999999MA1103151999999MW1001REMMET079PAVL 110353Z AUTO 31010KT 10SM CLR M14/M23 A3046 RMK AO2 SLP314 T11391233 TSNO;EQDQ01+000000PRSWM2
0175701486999992000011422534+67730-164550FM-15+0003PAVL V0202901N005112200019N0160931N1-01601-02301101661ADDGD12991+0210019GF102991999999999999999999MA1101661999999MW1001REMMET082PAVL 142253Z AUTO 29010KT 10SM FEW075 M16/M23 A3002 RMK AO2 SLP166 T11611233 TSNO;EQDQ01+000000PRSWM2
0233701486999992000011511534+67730-164550FM-15+0003PAVL V0209999C000010210019N0160931N1-02301-03101102271ADDGD14991+0210019GF108991999999999999999999KA1999M-01891KA2999N-03001MA1102271999999MD1110101+9999MW1001REMMET100PAVL 151153Z AUTO 00000KT 10SM OVC075 M23/M31 A3020 RMK AO2 SLP227 T12281306 11189 21300 51010 TSNO;EQDQ01+000000PRSWM2
0237701486999992000011514534+67730-164550FM-15+0003PAVL V0209999C000010330019N0112651N1-01801-02701102271ADDAA101000021AA203000021GD14991+0330019GF108991999999999999999999MA1102271999999MD1410001+9999MW1001REMMET108PAVL 151453Z AUTO 00000KT 7SM OVC110 M18/M27 A3020 RMK AO2 SNB10E48 SLP227 P0000 60000 T11781272 54000 TSNO;EQDQ01+000000PRSWM2
0054701486999992000011807009+67733-164550NSRDB+000399999V020999999999999999999999999999+99999+99999999999ADDGP10060000001000000001000000001000GR100600000900009
0233701486999992000011822534+67730-164550FM-15+0003PAVL V0200301N006710066019N0032181N1-00801-01401100271ADDAA101000021GD13991+0066019GD24991+0090019GF108991999999999999999999MA1100271999999MW1711REMMET098PAVL 182253Z AUTO 03013KT 2SM -SN BKN022 OVC030 M08/M14 A2961 RMK AO2 SLP027 P0000 T10781144 TSNO;EQDQ01+000003PRSWM1Q02    003PRSWM1
0185701486999992000012015534+67730-164550FM-15+0003PAVL V0203601N008712200019N0128741N1-02201-02801101681ADDGF100991999999999999999999MA1101691999999MW1001OC101181REMMET099PAVL 201553Z AUTO 36017G23KT 8SM CLR M22/M28 A3003 RMK AO2 PK WND 01026/1514 SLP168 T12221278 TSNO;EQDQ01+000000PRSWM2
0054701486999992000012606009+67733-164550NSRDB+000399999V020999999999999999999999999999+99999+99999999999ADDGP10060000001000000001000000001000GR100600000900009
0054701486999992000012618009+67733-164550NSRDB+000399999V020999999999999999999999999999+99999+99999999999ADDGP10060000001000000001000000001000GR100600000900009
0071701486999992000013001009+67733-164550NSRDB+000399999V020999999999999999999999999999+99999+99999999999ADDGP10060001701025000001028001701025GQ100600867919879GR100600082914109
0054701486999992000013003009+67733-164550NSRDB+000399999V020999999999999999999999999999+99999+99999999999ADDGP10060000001000000001000000001000GR100600000900009
0054701486999992000013113009+67733-164550NSRDB+000399999V020999999999999999999999999999+99999+99999999999ADDGP10060000001000000001000000001000GR100600000900009
0159701486999992000020221534+67730-164550FM-15+0003PAVL V0200101N006212200019N0160931N1-01801-02901098811ADDGF100991999999999999999999MA1098821999999MW1001REMMET081PAVL 022153Z AUTO 01012KT 10SM CLR M18/M29 A2918 RMK AO2 SLP881 T11781294 TSNO $;EQDQ01+000000PRSWM2
0157701486999992000020506534+67730-164550FM-15+0003PAVL V0200701N004612200019N0160931N1-00301-01301101701ADDGF100991999999999999999999MA1101691999999MW1001REMMET079PAVL 050653Z AUTO 07009KT 10SM CLR M03/M13 A3003 RMK AO2 SLP170 T10331128 TSNO;EQDQ01+000000PRSWM2
0159701486999992000020512534+67730-164550FM-15+0003PAVL V0200501N004112200019N0160931N1-00201-01301101731ADDGF100991999999999999999999MA1101731999999MW1001REMMET081PAVL 051253Z AUTO 05008KT 10SM CLR M02/M13 A3004 RMK AO2 SLP173 T10221133 TSNO $;EQDQ01+000000PRSWM2
0054701486999992000020712009+67733-164550NSRDB+000399999V020999999999999999999999999999+99999+99999999999ADDGP10060000001000000001000000001000GR100600000900009
0054701486999992000020814009+67733-164550NSRDB+000399999V020999999999999999999999999999+99999+99999999999ADDGP10060000001000000001000000001000GR100600000900009
0241701486999992000021011534+67730-164550FM-15+0003PAVL V0200801N007210060019N0160931N1-00101-00901101781ADDGD13991+0060019GF107991999999999999999999KA1999M+00501KA2999N-00111MA1101801999999MD1810151+9999MW1001REMMET108PAVL 101153Z AUTO 08014KT 10SM BKN020 M01/M09 A3006 RMK AO2 SLP178 7//// T10111094 10050 21011 58015 TSNO $;EQDQ01+000000PRSWM2
0275701486999992000021106534+67730-164550FM-15+0003PAVL V0201301N011810084019N0012071N1-00301-00401100591ADDAA101000391GD13991+0084019GD24991+0111019GF108991999999999999999999MA1100581999999MW1101MW2711OC101441REMMET126PAVL 110653Z AUTO 13023G28KT 3/4SM -SN BR BKN028 OVC037 M03/M04 A2970 RMK AO2 PK WND 13029/0634 SLP059 P0001 T10281039 TSNO $;EQDQ01+000003PRSWM1Q02    003PRSWM1
0054701486999992000021213009+67733-164550NSRDB+000399999V020999999999999999999999999999+99999+99999999999ADDGP10060000001000000001000000001000GR100600000900009
0054701486999992000021308009+67733-164550NSRDB+000399999V020999999999999999999999999999+99999+99999999999ADDGP10060000001000000001000000001000GR100600000900009
0253701486999992000021312534+67730-164550FM-15+0003PAVL V0201601N008210147019N0160931N1-00101-00201101271ADDAA101000021GD12991+0120019GD23991+0147019GD34991+0180019GF108991999999999999999999MA1101291999999MW1001REMMET119PAVL 131253Z AUTO 16016KT 10SM UP SCT040 BKN049 OVC060 M01/M02 A2991 RMK AO2 UPB28SNB17E28 SLP127 P0000 T10111022 TSNO;EQDQ01+000000PRSWM2
0177701486999992000021414534+67730-164550FM-15+0003PAVL V0200301N004612200019N0160931N1-00901-01001101221ADDGF100991999999999999999999MA1101221999999MD1610091+9999MW1001REMMET085PAVL 141453Z AUTO 03009KT 10SM CLR M09/M10 A2989 RMK AO2 SLP122 T10941100 56009 TSNO;EQDQ01+000000PRSWM2
0177701486999992000021519534+67730-164550FM-15+0003PAVL V0200601N002110138019N0160931N1-00901-01201100891ADDGD14991+0138019GF108991999999999999999999MA1100881999999MW1001REMMET084PAVL 151953Z AUTO 06004KT 10SM OVC046 M09/M12 A2979 RMK AO2 SLP089 T10941117 TSNO $;EQDQ01+000000PRSWM2
0157701486999992000021919534+67730-164550FM-15+0003PAVL V0200201N007712200019N0160931N1-01601-01801099021ADDGF100991999999999999999999MA1099021999999MW1001REMMET079PAVL 191953Z AUTO 02015KT 10SM CLR M16/M18 A2924 RMK AO2 SLP902 T11561183 TSNO;EQDQ01+000000PRSWM2
0071701486999992000022002009+67733-164550NSRDB+000399999V020999999999999999999999999999+99999+99999999999ADDGP10060008801025042101028003501025GQ100600827921409GR100600178914009
0216701486999992000022209534+67730-164550FM-15+0003PAVL V0200201N01651000151CN0008051N1-02201-02301100591ADDGD15991+0001519GF109991999999000251999999MA1100611999999MW1491REMMET107PAVL 220953Z AUTO 02032KT 1/2SM FZFG VV001 M22/M23 A2971 RMK AO2 PK WND 01037/0946 SLP059 T12171233 TSNO $;EQDQ01+000003PRSWM1Q02    003PRSWM1
0054701486999992000022313009+67733-164550NSRDB+000399999V020999999999999999999999999999+99999+99999999999ADDGP10060000001000000001000000001000GR100600000900009
0071701486999992000022720009+67733-164550NSRDB+000399999V020999999999999999999999999999+99999+99999999999ADDGP10060003901025010501028003001025GQ100600853912549GR100600113913949
0054701486999992000022915009+67733-164550NSRDB+000399999V020999999999999999999999999999+99999+99999999999ADDGP10060000001000000001000000001000GR100600000900009
0071701486999992000030903009+67733-164550NSRDB+000399999V020999999999999999999999999999+99999+99999999999ADDGP10060012901025052001028004001025GQ100600802923119GR100600237913879
0054701486999992000031017009+67733-164550NSRDB+000399999V020999999999999999999999999999+99999+99999999999ADDGP10060000001000000001000000001000GR100600000900009
0177701486999992000031202534+67730-164550FM-15+0003PAVL V0200401N005712200019N0160931N1-01301-01901101631ADDGF100991999999999999999999MA1101631999999MD1610261+9999MW1001REMMET085PAVL 120253Z AUTO 04011KT 10SM CLR M13/M19 A3001 RMK AO2 SLP163 T11331189 56026 TSNO;EQDQ01+000000PRSWM2
0213701486999992000031808534+67730-164550FM-15+0003PAVL V0200501N006712200019N0160931N1-01501-02001100421ADDGF100991999999999999999999KA1999M-00721KA2999N-01671MA1100411999999MD1310071+9999MW1001REMMET095PAVL 180853Z AUTO 05013KT 10SM CLR M15/M20 A2965 RMK AO2 SLP042 T11501200 410721167 53007 TSNO;EQDQ01+000000PRSWM2
0054701486999992000032012009+67733-164550NSRDB+000399999V020999999999999999999999999999+99999+99999999999ADDGP10060000001000000001000000001000GR100600000900009
0071701486999992000032018009+67733-164550NSRDB+000399999V020999999999999999999999999999+99999+99999999999ADDGP10060002101025015201028001401025GQ100600873909569GR100600066913789
0258701486999992000032123534+67730-164550FM-15+0003PAVL V0200701N003112200019N0160931N1-01301-01801100571ADDAA101000021AA206000021GF100991999999999999999999KA1999M-01281KA2999N-02281MA1100581999999MD1310071+9999MW1001REMMET118PAVL 212353Z AUTO 07006KT 10SM UP CLR M13/M18 A2970 RMK AO2 UPB38 SLP057 P0000 60000 T11281178 11128 21228 53007 TSNO;EQDQ01+000000PRSWM2
0156701486999992000032210534+67730-164550FM-15+0003PAVL V0200101N009812200019N0144841N1-01901-02201100601ADDGF100991999999999999999999MA1100611999999MW1001REMMET078PAVL 221053Z AUTO 01019KT 9SM CLR M19/M22 A2971 RMK AO2 SLP060 T11891222 TSNO;EQDQ01+000000PRSWM2
0253701486999992000032414534+67730-164550FM-16+0003PAVL V0200101N018510015019N0004021N1-02301+99999100421ADDGD14991+0015019GF108991999999999999999999MA1100441999999MD1810061+9999MW1751OC102161REMMET122PAVL 241453Z AUTO 01036G42KT M1/4SM +SN OVC005 M23/ A2966 RMK AO2 PK WND 01042/1448 SLP042 P0000 60000 T1233 58006 TSNO $;EQDQ01+000003PRSWM1Q02    003PRSWM1
0161701486999992000032623534+67730-164550FM-16+0003PAVL V0203601N002112200019N0160931N1+99999+99999100251ADDGF100991999999999999999999MA1100241999999MD1810141+9999MW1001REMMET069PAVL 262353Z AUTO 36004KT 10SM CLR A2960 RMK AO2 SLP025 58014 TSNO $;EQDQ01+000000PRSWM2
0221701486999992000033112534+67730-164550FM-15+0003PAVL V0202001N00361000151CN0012071N1-01001-01101101301ADDAA101000591GD15991+0001519GF109991999999000251999999MA1101291999999MW1101MW2711REMMET095PAVL 311253Z AUTO 20007KT 3/4SM -SN BR VV008 M10/M11 A2991 RMK AO2 SLP130 P0002 T11001111 TSNO;EQDQ01+000003PRSWM1Q02    003PRSWM1
0279701486999992000033114534+67730-164550FM-15+0003PAVL V0202001N002110081019N0032181N1-01201-01301101431ADDAA101000391AA203000891GD12991+0036019GD24991+0081019GF108991999999999999999999MA1101421999999MD1110201+9999MW1101MW2711REMMET113PAVL 311453Z AUTO 20004KT 2SM -SN BR SCT012 OVC027 M12/M13 A2995 RMK AO2 SLP143 P0001 60003 T11171133 51020 TSNO;EQDQ01+000003PRSWM1Q02    003PRSWM1
0159701486999992000040212534+67730-164550FM-15+0003PAVL V0200101N002112200019N0160931N1-02601-02701103121ADDGF100991999999999999999999MA1103121999999MW1001REMMET081PAVL 021253Z AUTO 01004KT 10SM CLR M26/M27 A3045 RMK AO2 SLP312 T12561272 TSNO $;EQDQ01+000000PRSWM2
0071701486999992000040302009+67733-164550NSRDB+000399999V020999999999999999999999999999+99999+99999999999ADDGP10060035201025064201028010301025GQ100600672922069GR100600529913679
0054701486999992000040615009+67733-164550NSRDB+000399999V020999999999999999999999999999+99999+99999999999ADDGP10060000001000000001000000001000GR100600000900009
0054701486999992000040910009+67733-164550NSRDB+000399999V020999999999999999999999999999+99999+99999999999ADDGP10060000001000000001000000001000GR100600000900009
0157701486999992000041522534+67730-164550FM-15+0003PAVL V0200701N006712200019N0160931N1-00201-00701102811ADDGF100991999999999999999999MA1102811999999MW1001REMMET079PAVL 152253Z AUTO 07013KT 10SM CLR M02/M07 A3036 RMK AO2 SLP281 T10221072 TSNO;EQDQ01+000000PRSWM2
0231701486999992000041708534+67730-164550FM-15+0003PAVL V0200201N010312200019N0160931N1-01101-01501101861ADDGF100991999999999999999999KA1999M-00501KA2999N-01441MA1101861999999MD1010031+9999MW1001REMMET113PAVL 170853Z AUTO 02020KT 10SM CLR M11/M15 A3008 RMK AO2 PK WND 02026/0812 SLP186 T11061150 410501144 50003 TSNO;EQDQ01+000000PRSWM2
0054701486999992000042111009+67733-164550NSRDB+000399999V020999999999999999999999999999+99999+99999999999ADDGP10060000001000000001000000001000GR100600000900009
0071701486999992000042521009+67733-164550NSRDB+000399999V020999999999999999999999999999+99999+99999999999ADDGP10060015501025000001028015501025GQ100600592913779GR100600691913499
0213701486999992000043008534+67730-164550FM-15+0003PAVL V0203501N002112200019N0160931N1-01001-01301100241ADDGF100991999999999999999999KA1999M-00281KA2999N-01721MA1100241999999MD1810061+9999MW1001REMMET095PAVL 300853Z AUTO 35004KT 10SM CLR M10/M13 A2960 RMK AO2 SLP024 T11001128 410281172 58006 TSNO;EQDQ01+000000PRSWM2
0071701486999992000050408009+67733-164550NSRDB+000399999V020999999999999999999999999999+99999+99999999999ADDGP10060001201025003801028001001025GQ100600880931159GR100600047913449
0197701486999992000051116534+67730-164550FM-15+0003PAVL V0203101N005110051019N0160931N1-00101-00201102781ADDGD12991+0015019GD24991+0051019GF108991999999999999999999MA1102781999999MW1001REMMET089PAVL 111653Z AUTO 31010KT 10SM FEW005 OVC017 M01/M02 A3035 RMK AO2 SLP278 T10111017 TSNO;EQDQ01+000000PRSWM2
0156701486999992000051422534+67730-164550FM-15+0003PAVL V0200201N004112200019N0160931N1+00101-00601102591ADDGF100991999999999999999999MA1102611999999MW1001REMMET078PAVL 142253Z AUTO 02008KT 10SM CLR 01/M06 A3030 RMK AO2 SLP259 T00111056 TSNO;EQDQ01+000000PRSWM2
0156701486999992000051503534+67730-164550FM-15+0003PAVL V0200301N006712200019N0160931N1+00201-00301102291ADDGF100991999999999999999999MA1102301999999MW1001REMMET078PAVL 150353Z AUTO 03013KT 10SM CLR 02/M03 A3021 RMK AO2 SLP229 T00171033 TSNO;EQDQ01+000000PRSWM2
0071701486999992000051820009+67733-164550NSRDB+000399999V020999999999999999999999999999+99999+99999999999ADDGP10060053501025080601028010301025GQ100600576911989GR100600715913359
0157701486999992000052121534+67730-164550FM-15+0003PAVL V0203601N006712200019N0160931N1-00401-01001100601ADDGF100991999999999999999999MA1100611999999MW1001REMMET079PAVL 212153Z AUTO 36013KT 10SM CLR M04/M10 A2971 RMK AO2 SLP060 T10391100 TSNO;EQDQ01+000000PRSWM2
0157701486999992000052316534+67730-164550FM-15+0003PAVL V0201901N004612200019N0160931N1-00601-00801101271ADDGF100991999999999999999999MA1101291999999MW1001REMMET079PAVL 231653Z AUTO 19009KT 10SM CLR M06/M08 A2991 RMK AO2 SLP127 T10611078 TSNO;EQDQ01+000000PRSWM2
0071701486999992000052420009+67733-164550NSRDB+000399999V020999999999999999999999999999+99999+99999999999ADDGP10060051901025068001028014401025GQ100600565911919GR100600735913319
0176701486999992000052501534+67730-164550FM-15+0003PAVL V0201301N003610108019N0160931N1+00101-00401101931ADDGD14991+0108019GF108991999999999999999999MA1101931999999MW1001REMMET083PAVL 250153Z AUTO 13007KT 10SM OVC036 01/M04 A3010 RMK AO2 SLP193 T00111044 TSNO $;EQDQ01+000000PRSWM2
0071701486999992000052808009+67733-164550NSRDB+000399999V020999999999999999999999999999+99999+99999999999ADDGP10060002701025000001028002701025GQ100600830931309GR100600163913309
0071701486999992000053114009+67733-164550NSRDB+000399999V020999999999999999999999999999+99999+99999999999ADDGP10060003001025006101028002601025GQ100600856903549GR100600101913289
0071701486999992000060121009+67733-164550NSRDB+000399999V020999999999999999999999999999+99999+99999999999ADDGP10060014301025000001028014301025GQ100600509913489GR100600838913289
0195701486999992000060209534+67730-164550FM-15+0003PAVL V0200201N003110180019N0160931N1+00201+00101102361ADDGD12991+0105019GD24991+0180019GF108991999999999999999999MA1102371999999MW1001REMMET087PAVL 020953Z AUTO 02006KT 10SM SCT035 OVC065 02/01 A3023 RMK AO2 SLP236 T00170006 TSNO;EQDQ01+000000PRSWM2
0214701486999992000060311534+67730-164550FM-15+0003PAVL V0200301N004612200019N0160931N1+00101-00101102371ADDGF100991999999999999999999KA1999M+00441KA2999N+00111MA1102371999999MD1110061+9999MW1001REMMET096PAVL 031153Z AUTO 03009KT 10SM CLR 01/M01 A3023 RMK AO2 SLP237 T00111011 10044 20011 51006 TSNO;EQDQ01+000000PRSWM2
0229701486999992000060808534+67730-164550FM-15+0003PAVL V0200501N003110270019N0160931N1+00801+00601100241ADDGD14991+0270019GF108991999999999999999999KA1999M+01001KA2999N+00391MA1100241999999MD1310111+9999MW1001REMMET096PAVL 080853Z AUTO 05006KT 10SM OVC095 08/06 A2960 RMK AO2 SLP024 T00830061 401000039 53011 TSNO;EQDQ01+000000PRSWM2
0173701486999992000060921534+67730-164550FM-15+0003PAVL V0202701N006212200019N0160931N1+00301+00101101231ADDGD12991+0036019GF102991999999999999999999MA1101251999999MW1001REMMET080PAVL 092153Z AUTO 27012KT 10SM FEW012 03/01 A2990 RMK AO2 SLP123 T00330011 TSNO;EQDQ01+000000PRSWM2
0071701486999992000061206009+67733-164550NSRDB+000399999V020999999999999999999999999999+99999+99999999999ADDGP10060007701025000001028007701025GQ100600715928649GR100600419913259
0071701486999992000061701009+67733-164550NSRDB+000399999V020999999999999999999999999999+99999+99999999999ADDGP10060019601025000001028019601025GQ100600466920929GR100600910913239
0071701486999992000062203009+67733-164550NSRDB+000399999V020999999999999999999999999999+99999+99999999999ADDGP10060017001025000001028017001025GQ100600546924329GR100600766913229
0071701486999992000062221009+67733-164550NSRDB+000399999V020999999999999999999999999999+99999+99999999999ADDGP10060018901025000001028018901025GQ100600500913319GR100600850913229
0071701486999992000062708009+67733-164550NSRDB+000399999V020999999999999999999999999999+99999+99999999999ADDGP10060003301025000001028003301025GQ100600809931229GR100600209913229
0071701486999992000062717009+67733-164550NSRDB+000399999V020999999999999999999999999999+99999+99999999999ADDGP10060005801025000001028005801025GQ100600714907379GR100600422913229
0071701486999992000062912009+67733-164550NSRDB+000399999V020999999999999999999999999999+99999+99999999999ADDGP10060000801025008501028000601025GQ100600885901559GR100600034913219
0155701486999992000063007534+67720-164540FM-15+0003PAVL V0200201N003112200019N0160931N1+01101+00401101171ADDGF100991999999999999999999MA1101191999999MW1001REMMET077PAVL 300753Z AUTO 02006KT 10SM CLR 11/04 A2988 RMK AO2 SLP117 T01110044 TSNO;EQDQ01+000000PRSWM2
0071701486999992000070319009+67733-164550NSRDB+000399999V020999999999999999999999999999+99999+99999999999ADDGP10060009501025000001028009501025GQ100600606910139GR100600647913219
0071701486999992000070522009+67733-164550NSRDB+000399999V020999999999999999999999999999+99999+99999999999ADDGP10060064701025072401028015601025GQ100600473915049GR100600895913219
0250701486999992000071211534+67720-164540FM-15+0003PAVL V0201401N00211000151CN0004021N1+00301+00301101711ADDGD15991+0001519GF109991999999000251999999KA1999M+00391KA2999N+00281MA1101731999999MD1810021+9999MW1451REMMET101PAVL 121153Z AUTO 14004KT 1/4SM FG VV001 03/03 A3004 RMK AO2 SLP171 T00330028 10039 20028 58002 TSNO;EQDQ01+000003PRSWM1Q02    003PRSWM1
0213701486999992000071223534+67720-164540FM-15+0003PAVL V0200801N006212200019N0160931N1+01801+00101101531ADDGF100991999999999999999999KA1999M+01831KA2999N+00501MA1101521999999MD1810051+9999MW1001REMMET095PAVL 122353Z AUTO 08012KT 10SM CLR 18/01 A2998 RMK AO2 SLP153 T01830011 10183 20050 58005 TSNO;EQDQ01+000000PRSWM2
0173701486999992000071316534+67720-164540FM-15+0003PAVL V0200701N010812200019N0160931N1+01001+00001101481ADDGF100991999999999999999999MA1101491999999MW1001REMMET095PAVL 131653Z AUTO 07021KT 10SM CLR 10/00 A2997 RMK AO2 PK WND 07028/1644 SLP148 T01000000 TSNO;EQDQ01+000000PRSWM2
0071701486999992000072206009+67733-164550NSRDB+000399999V020999999999999999999999999999+99999+99999999999ADDGP10060022401025054601028007101025GQ100600736928379GR100600372913239
0211701486999992000072408534+67720-164540FM-15+0003PAVL V0202201N004112200019N0160931N1+00701+00301100951ADDGF100991999999999999999999KA1999M+00721KA2999N+00281MA1100951999999MD1310041+9999MW1001REMMET093PAVL 240853Z AUTO 22008KT 10SM CLR 07/03 A2981 RMK AO2 SLP095 T00670028 400720028 53004 TSNO;EQDQ01+000000PRSWM2
0264701486999992000072616534+67720-164540FM-15+0003PAVL V0202601N011810045019N0032181N1+00601+00401100401ADDGD12991+0024019GD23991+0045019GD34991+0072019GF108991999999999999999999MA1100411999999MW1101MW2631REMMET119PAVL 261653Z AUTO 26023KT 2SM RA BR FEW008 BKN015 OVC024 06/04 A2965 RMK AO2 PK WND 26032/1557 SLP040 T00560044 TSNO $;EQDQ01+000003PRSWM1Q02    003PRSWM1
0071701486999992000072822009+67733-164550NSRDB+000399999V020999999999999999999999999999+99999+99999999999ADDGP10060054501025053401028021101025GQ100600513915099GR100600829913259
0054701486999992000072911009+67733-164550NSRDB+000399999V020999999999999999999999999999+99999+99999999999ADDGP10060000001000000001000000001000GR100600000900009
0071701486999992000080207009+67733-164550NSRDB+000399999V020999999999999999999999999999+99999+99999999999ADDGP10060002601025000001028002601025GQ100600813929629GR100600201913269
0231701486999992000080300534+67720-164540FM-15+0003PAVL V0201201N005110180019N0128741N1+01401+01101100071ADDAA101000891GD12991+0111019GD24991+0180019GF108991999999999999999999MA1100071999999MW1611REMMET096PAVL 030053Z AUTO 12010KT 8SM -RA FEW037 OVC060 14/11 A2955 RMK AO2 SLP007 P0003 T01390106 TSNO;EQDQ01+000003PRSWM1Q02    003PRSWM1
0269701486999992000080905534+67720-164540FM-15+0003PAVL V0201601N006710240019N0144841N1+00901+00801101871ADDAA106000021GD12991+0150019GD24991+0240019GF108991999999999999999999KA1999M+01001KA2999N+00891MA1101861999999MD1810051+9999MW1001REMMET110PAVL 090553Z AUTO 16013KT 9SM FEW050 OVC080 09/08 A3008 RMK AO2 SLP187 60000 T00890083 10100 20089 58005 TSNO;EQDQ01+000000PRSWM2
0071701486999992000081005009+67733-164550NSRDB+000399999V020999999999999999999999999999+99999+99999999999ADDGP10060005501025000001028005501025GQ100600725926829GR100600400913309
0218701486999992000081009534+67720-164540FM-15+0003PAVL V0202001N006710012019N0080461N1+00801+00801101061ADDAA101000591GD14991+0012019GF108991999999999999999999MA1101051999999MW1101MW2611REMMET092PAVL 100953Z AUTO 20013KT 5SM -RA BR OVC004 08/08 A2984 RMK AO2 SLP106 P0002 T00830078 TSNO;EQDQ01+000003PRSWM1Q02    003PRSWM1
0071701486999992000081105009+67733-164550NSRDB+000399999V020999999999999999999999999999+99999+99999999999ADDGP10060017301025015101028012901025GQ100600728926829GR100600394913309
0054701486999992000081310009+67733-164550NSRDB+000399999V020999999999999999999999999999+99999+99999999999ADDGP10060000001000000001000000001000GR100600000900009
0155701486999992000081421534+67720-164540FM-15+0003PAVL V0200701N006212200019N0160931N1+01101+00101102791ADDGF100991999999999999999999MA1102811999999MW1001REMMET077PAVL 142153Z AUTO 07012KT 10SM CLR 11/01 A3036 RMK AO2 SLP279 T01060011 TSNO;EQDQ01+000000PRSWM2
0071701486999992000081717009+67733-164550NSRDB+000399999V020999999999999999999999999999+99999+99999999999ADDGP10060003501025000001028003501025GQ100600807907769GR100600215913339
0054701486999992000082415009+67733-164550NSRDB+000399999V020999999999999999999999999999+99999+99999999999ADDGP10060000001000000001000000001000GR100600000900009
0155701486999992000082710534+67720-164540FM-15+0003PAVL V0200601N006212200019N0160931N1+00401+00101101151ADDGF100991999999999999999999MA1101151999999MW1001REMMET077PAVL 271053Z AUTO 06012KT 10SM CLR 04/01 A2987 RMK AO2 SLP115 T00440011 TSNO;EQDQ01+000000PRSWM2
0213701486999992000090209534+67720-164540FM-15+0003PAVL V0202101N012310018019N0128741N1+00501+00401100561ADDAA101000021GD14991+0018019GF108991999999999999999999MA1100581999999MW1001REMMET109PAVL 020953Z AUTO 21024KT 8SM OVC006 05/04 A2970 RMK AO2 PK WND 21027/0952 RAE53 SLP056 P0000 T00500044 TSNO;EQDQ01+000000PRSWM2
0054701486999992000090610009+67733-164550NSRDB+000399999V020999999999999999999999999999+99999+99999999999ADDGP10060000001000000001000000001000GR100600000900009
0071701486999992000090903009+67733-164550NSRDB+000399999V020999999999999999999999999999+99999+99999999999ADDGP10060028001025079101028003601025GQ100600720923749GR100600416913479
0054701486999992000090912009+67733-164550NSRDB+000399999V020999999999999999999999999999+99999+99999999999ADDGP10060000001000000001000000001000GR100600000900009
0314701486999992000091520534+67720-164540FM-15+0003PAVL V0200401N002610108019N0080461N1+00101-00101101281ADDAA101000021AA203000021GD12991+0048019GD23991+0108019GD34991+0129019GF108991999999999999999999MA1101291999999MD1210101+9999MW1101MW2711REMMET133PAVL 152053Z AUTO 04005KT 5SM -SN BR FEW016 BKN036 OVC043 01/M01 A2991 RMK AO2 RAB22E31SNB48 SLP128 P0000 60000 T00111006 52010 TSNO;EQDQ01+000003PRSWM1Q02    003PRSWM1
0218701486999992000092013534+67720-164540FM-15+0003PAVL V0200701N006710150019N0160931N1+00301+00201101761ADDAA101000391GD13991+0150019GD24991+0270019GF108991999999999999999999MA1101761999999MW1001REMMET099PAVL 201353Z AUTO 07013KT 10SM BKN055 OVC090 03/02 A3005 RMK AO2 RAE43 SLP176 P0001 T00280017 TSNO;EQDQ01+000000PRSWM2
0071701486999992000092118009+67733-164550NSRDB+000399999V020999999999999999999999999999+99999+99999999999ADDGP10060001701025000001028001701025GQ100600858909899GR100600100913579
0054701486999992000092307009+67733-164550NSRDB+000399999V020999999999999999999999999999+99999+99999999999ADDGP10060000001000000001000000001000GR100600000900009
0054701486999992000092607009+67733-164550NSRDB+000399999V020999999999999999999999999999+99999+99999999999ADDGP10060000001000000001000000001000GR100600000900009
0054701486999992000092610009+67733-164550NSRDB+000399999V020999999999999999999999999999+99999+99999999999ADDGP10060000001000000001000000001000GR100600000900009
0200701486999992000092810534+67720-164540FM-15+0003PAVL V0200701N003110066019N0144841N1-00201-00401101871ADDAA101000021GD14991+0066019GF108991999999999999999999MA1101861999999MW1001REMMET096PAVL 281053Z AUTO 07006KT 9SM OVC022 M02/M04 A3008 RMK AO2 SNB42E52 SLP187 P0000 T10221044 TSNO;EQDQ01+000000PRSWM2
0256701486999992000092907534+67720-164540FM-15+0003PAVL V02099999999990096019N9999999N1+00201+00101101351ADDAA101000021GD12991+0051019GD23991+0096019GD34991+0117019GF108991999999999999999999MA1101351999999MW1101REMMET106PAVL 290753Z AUTO 6SM -RA BR FEW017 BKN032 OVC039 02/01 A2993 RMK AO2 RAB49 SLP135 P0000 T00220006 TSNO $;EQDQ01+000003PRSWM1Q02    003PRSWM1
0174701486999992000093004534+67720-164540FM-15+0003PAVL V0203401N006210081019N0160931N1+00101-00201101561ADDGD14991+0081019GF108991999999999999999999MA1101561999999MW1001REMMET081PAVL 300453Z AUTO 34012KT 10SM OVC027 01/M02 A2999 RMK AO2 SLP156 T00061017 TSNO;EQDQ01+000000PRSWM2
0054701486999992000100217009+67733-164550NSRDB+000399999V020999999999999999999999999999+99999+99999999999ADDGP10060000001000000001000000001000GR100600000900009
0054701486999992000100407009+67733-164550NSRDB+000399999V020999999999999999999999999999+99999+99999999999ADDGP10060000001000000001000000001000GR100600000900009
0071701486999992000100800009+67733-164550NSRDB+000399999V020999999999999999999999999999+99999+99999999999ADDGP10060024501025072301028004701025GQ100600741919149GR100600376913699
0250701486999992000100922534+67720-164540FM-15+0003PAVL V0209999V002110123019N0160931N1-00101-00301100671ADDAA101000391GD12991+0027019GD23991+0123019GD34991+0144019GF108991999999999999999999MA1100681999999MW1001REMMET116PAVL 092253Z AUTO VRB04KT 10SM FEW009 BKN041 OVC048 M01/M03 A2973 RMK AO2 UPB47E49SNE47 SLP067 P0001 T10111028 TSNO;EQDQ01+000000PRSWM2
0054701486999992000101015009+67733-164550NSRDB+000399999V020999999999999999999999999999+99999+99999999999ADDGP10060000001000000001000000001000GR100600000900009
0071701486999992000101020009+67733-164550NSRDB+000399999V020999999999999999999999999999+99999+99999999999ADDGP10060003401025000001028003401025GQ100600821913119GR100600187913729
0194701486999992000101102534+67720-164540FM-15+0003PAVL V0202001N005712200019N0160931N1+00101-00401100461ADDGD12991+0096019GF104991999999999999999999MA1100471999999MD1310021+9999MW1001REMMET087PAVL 110253Z AUTO 20011KT 10SM SCT032 01/M04 A2967 RMK AO2 SLP046 T00111044 53002 TSNO;EQDQ01+000000PRSWM2
0071701486999992000101122009+67733-164550NSRDB+000399999V020999999999999999999999999999+99999+99999999999ADDGP10060007001025000001028007001025GQ100600763916099GR100600325913739
0054701486999992000101607009+67733-164550NSRDB+000399999V020999999999999999999999999999+99999+99999999999ADDGP10060000001000000001000000001000GR100600000900009
0071701486999992000102722009+67733-164550NSRDB+000399999V020999999999999999999999999999+99999+99999999999ADDGP10060004401025000001028004401025GQ100600818916239GR100600197913859
0054701486999992000110604009+67733-164550NSRDB+000399999V020999999999999999999999999999+99999+99999999999ADDGP10060000001000000001000000001000GR100600000900009
0054701486999992000110707009+67733-164550NSRDB+000399999V020999999999999999999999999999+99999+99999999999ADDGP10060000001000000001000000001000GR100600000900009
0071701486999992000110722009+67733-164550NSRDB+000399999V020999999999999999999999999999+99999+99999999999ADDGP10060005701025038301028002501025GQ100600852916279GR100600116913939
0071701486999992000110723009+67733-164550NSRDB+000399999V020999999999999999999999999999+99999+99999999999ADDGP10060007001025046401028002301025GQ100600843917719GR100600139913939
0215701486999992000110817534+67720-164540FM-15+0003PAVL V0200701N006212200019N0160931N1-01201-01701101831ADDGF100991999999999999999999KA1999M-01221KA2999N-01561MA1101831999999MD1610091+9999MW1001REMMET097PAVL 081753Z AUTO 07012KT 10SM CLR M12/M17 A3007 RMK AO2 SLP183 T11221172 11122 21156 56009 TSNO;EQDQ01+000000PRSWM2
0341701486999992000110911534+67720-164540FM-15+0003PAVL V0201101N007210009019N0012071N1-00401-00501100951ADDAA101000021AA206000021GD13991+0009019GD23991+0045019GD34991+0105019GF108991999999999999999999KA1999M-00441KA2999N-00721MA1100951999999MD1510071+9999MW1101MW2711REMMET134PAVL 091153Z AUTO 11014KT 3/4SM -SN BR BKN003 BKN015 OVC035 M04/M05 A2981 RMK AO2 SLP095 P0000 60000 T10441050 11044 21072 55007 TSNO;EQDQ01+000003PRSWM1Q02    003PRSWM1
0215701486999992000111007534+67720-164540FM-15+0003PAVL V0200701N011310210019N0160931N1-00101-00201099631ADDGD13991+0210019GD23991+0300019GF107991999999999999999999MA1099631999999MW1001REMMET107PAVL 100753Z AUTO 07022KT 10SM BKN070 BKN100 M01/M02 A2942 RMK AO2 PK WND 07031/0657 SLP963 T10061022 TSNO;EQDQ01+000000PRSWM2
0054701486999992000111019009+67733-164550NSRDB+000399999V020999999999999999999999999999+99999+99999999999ADDGP10060000001000000001000000001000GR100600000900009
0245701486999992000111217534+67720-164540FM-15+0003PAVL V0202601N005110054019N0160931N1-00301-00401100371ADDGD14991+0054019GF108991999999999999999999KA1999M-00171KA2999N-00391MA1100371999999MD1310351+9999MW1001REMMET112PAVL 121753Z AUTO 26010KT 10SM OVC018 M03/M04 A2964 RMK AO2 SLP037 6//// T10281039 11017 21039 53035 TSNO PNO $;EQDQ01+000000PRSWM2
0054701486999992000111503009+67733-164550NSRDB+000399999V020999999999999999999999999999+99999+99999999999ADDGP10060000001000000001000000001000GR100600000900009
0275701486999992000111908534+67720-164540FM-15+0003PAVL V0200801N007210117019N0160931N1-00201-00401100781ADDGD13991+0117019GD23991+0150019GD34991+0180019GF108991999999999999999999KA1999M-00061KA2999N-00441MA1100781999999MD1310111+9999MW1001REMMET112PAVL 190853Z AUTO 08014KT 10SM BKN039 BKN050 OVC065 M02/M04 A2976 RMK AO2 SLP078 T10221044 410061044 53011 TSNO;EQDQ01+000000PRSWM2
0213701486999992000112108534+67720-164540FM-15+0003PAVL V0203601N009312200019N0160931N1-01101-01301100711ADDGF100991999999999999999999KA1999M-00111KA2999N-01221MA1100711999999MD1810021+9999MW1001REMMET095PAVL 210853Z AUTO 36018KT 10SM CLR M11/M13 A2974 RMK AO2 SLP071 T11061133 410111122 58002 TSNO;EQDQ01+000000PRSWM2
0071701486999992000112323009+67733-164550NSRDB+000399999V020999999999999999999999999999+99999+99999999999ADDGP10060000701025000001028000701025GQ100600881917659GR100600047914039
0277701486999992000112611534+67720-164540FM-15+0003PAVL V0200201N008710270019N0160931N1-01801-02101100271ADDGD12991+0180019GD23991+0270019GD34991+0330019GF108991999999999999999999KA1999M-01721KA2999N-01891MA1100271999999MD1010011+9999MW1001REMMET114PAVL 261153Z AUTO 02017KT 10SM SCT060 BKN090 OVC110 M18/M21 A2961 RMK AO2 SLP027 T11781206 11172 21189 50001 TSNO;EQDQ01+000000PRSWM2
0157701486999992000112910534+67720-164540FM-15+0003PAVL V0203501N002112200019N0160931N1-02701-03101102731ADDGF100991999999999999999999MA1102741999999MW1001REMMET079PAVL 291053Z AUTO 35004KT 10SM CLR M27/M31 A3034 RMK AO2 SLP273 T12721306 TSNO;EQDQ01+000000PRSWM2
0157701486999992000120106534+67720-164540FM-15+0003PAVL V0200301N007212200019N0160931N1-02301-02801102251ADDGF100991999999999999999999MA1102271999999MW1001REMMET079PAVL 010653Z AUTO 03014KT 10SM CLR M23/M28 A3020 RMK AO2 SLP225 T12331278 TSNO;EQDQ01+000000PRSWM2
0222701486999992000120321454+67720-164540FM-15+0003PAVL V0200701N01291000151CN0012071N1-01401-01601999999ADDAA101000021GD15991+0001519GF109991999999000251999999MA1101121999999MW1101MW2711REMMET096PAVL 032145Z AUTO 07025KT 3/4SM -SN BR VV010 M14/M16 A2986 RMK AO2 PK WND 08029/2059 P0000 TSNO;EQDQ01+000003PRSWM1Q02    003PRSWM1
0267701486999992000120506414+67720-164540FM-15+0003PAVL V0200901N007210039019N0032181N1-00601-00801999999ADDAA101000021GD13991+0039019GD23991+0087019GD34991+0141019GF108991999999999999999999MA1100311999999MW1101MW2711REMMET111PAVL 050641Z AUTO 09014KT 2SM -SN BR BKN013 BKN029 OVC047 M06/M08 A2962 RMK AO2 UPB20E22SNB10E20B30 P0000 TSNO;EQDQ01+000003PRSWM1Q02    003PRSWM1
0251701486999992000120815414+67720-164540FM-15+0003PAVL V0200801N006710099019N0028161N1-00301-00301999999ADDAA101000021GD12991+0042019GD22991+0072019GD34991+0099019GF108991999999999999999999MA1102681999999MW1101MW2711REMMET095PAVL 081541Z AUTO 08013KT 1 3/4SM -SN BR FEW014 SCT024 OVC033 M03/M03 A3032 RMK AO2 P0000 TSNO;EQDQ01+000003PRSWM1Q02    003PRSWM1
0159701486999992000121515534+67720-164540FM-15+0003PAVL V0203101N003612200019N0160931N1-01001-01401101451ADDGF100991999999999999999999MA1101461999999MW1001REMMET081PAVL 151553Z AUTO 31007KT 10SM CLR M10/M14 A2996 RMK AO2 SLP145 T11001144 TSNO $;EQDQ01+000000PRSWM2
0054701486999992000121600009+67733-164550NSRDB+000399999V020999999999999999999999999999+99999+99999999999ADDGP10060000001000000001000000001000GR100600000900009
0277701486999992000121915534+67720-164540FM-15+0003PAVL V0200701N011810018019N0012071N1-00801-00901099861ADDAA101000021GD13991+0018019GD24991+0063019GF108991999999999999999999MA1099861999999MW1101MW2711REMMET136PAVL 191553Z AUTO 07023KT 3/4SM -SN BR BKN006 OVC021 M08/M09 A2949 RMK AO2 PK WND 07032/1506 UPE1454SNB1458 SLP986 P0000 T10831094 TSNO;EQDQ01+000003PRSWM1Q02    003PRSWM1
0277701486999992000123020534+67720-164540FM-15+0003PAVL V0200701N01491000151CN0004021N1-01001-01101099851ADDAA101000021AA203000021GD15991+0001519GF109991999999000251999999MA1099861999999MD1110071+9999MW1491MW2731REMMET126PAVL 302053Z AUTO 07029KT 1/4SM SN FZFG VV005 M10/M11 A2949 RMK AO2 PK WND 07040/2025 SLP985 P0000 60000 T11001106 51007 TSNO;EQDQ01+000003PRSWM1Q02    003PRSWM1
0180701620999992000011717404+69370-152130FM-16+0085PAUM V0209999C000012200019N0241401N1-04201+99999999999ADDAJ100389199999999GD12991+0120099GF102991999999999999999999MA1101931999999MW1001REMMET070PAUM 171840Z 00000KT 15SM FEW040 M42/ A3010 RMK MIN M42 4/015 NOSPECI;EQDQ01+000000PRSWM2
0176701620999992000012121534+69370-152130FM-15+0085PAUM V0201001N005710081019N0036201N1-02601-03301999999ADDGD14991+0081099GF108991999999999999999999MA1100641999999MW1381REMMET067PAUM 212153Z 10011KTS 21/4SM BLSN OVC027 M26/M33 A2972 RMK NOSPECI;EQDQ01+000003PRSWM1Q02    003PRSWM1
0169701620999992000012423494+69370-152130FM-15+0085PAUM V0201801N002110060019N0010001N1-01401-01801999999ADDGD14991+0060099GF108991999999999999999999MA1098781999999MW1711REMMET060PAUM 242349Z 18004KT 1 -SN OVC020 M14/M18 A2917 RMK NOSPECI;EQDQ01+000003PRSWM1Q02    003PRSWM1
0162701620999992000012506514+69370-152130FM-15+0085PAUM V0209999C000010060019N0112651N1-02101-02401999999ADDGD14991+0060099GF108991999999999999999999MA1099051999999MW1001REMMET069PAUM 250651Z 00000KT 7SM OVC020 M21/M24 A2925 RMK MAX M13 7//// LAST;EQDQ01+000000PRSWM2
0152701620999992000020417524+69370-152130FM-15+0085PAUM V0201001N004110054019N0160931N1-01201-01601999999ADDGD14991+0054099GF108991999999999999999999MA1100781999999MW1001REMMET059PAUM 041752Z 10008KT 10SM OVC018 M12/M16 A2976 RMK NOSPECI;EQDQ01+000000PRSWM2
0173701620999992000021603504+69370-152130FM-15+0085PAUM V0209999C00001000151CN0040231N1-02101-02301999999ADDGD15991+0001599GF109991999999000251999999MA1101421999999MW1101REMMET064PAUM 160350Z 00000KT 2 1/2SM BR VV003 M21/M23 A2995 RMK NOSPECI;EQDQ01+000003PRSWM1Q02    003PRSWM1
0150701620999992000031220404+69370-152130FM-15+0085PAUM V0201201N004112200019N0321861N1-02001+99999999999ADDGF100991999999999999999999MA1102811999999MW1001REMMET056PAUM 122140Z 12008KT 20SM SKC M20/M51 A3036 RMK NOSPECI;EQDQ01-005103ATOD  Q02+000000PRSWM2
0148701620999992000040818404+69370-152130FM-15+0085PAUM V0202901N003612200019N0321861N1-02101-03201999999ADDGD12991+0540099GF104991999999999999999999MA1102401999999MW1001REMMET055PAUM 081940Z 29007KT 20SM SCT180 M21/M32 A3024 NOSPECI;EQDQ01+000000PRSWM2
0152701620999992000040823404+69370-152130FM-15+0085PAUM V0202801N005110120019N0321861N1-01401-02101999999ADDGD13991+0120099GF107991999999999999999999MA1102471999999MW1001REMMET059PAUM 090040Z 28010KT 20SM BKN040 M14/M21 A3026 RMK NOSPECI;EQDQ01+000000PRSWM2
0152701620999992000041803454+69370-152130FM-15+0085PAUM V0209999C000010270019N0241401N1-01601-02001999999ADDGD14991+0270099GF108991999999999999999999MA1101421999999MW1001REMMET059PAUM 180345Z 00000KT 15SM OVC095 M16/M20 A2995 RMK NOSPECI;EQDQ01+000000PRSWM2
0183701620999992000042916404+69370-152130FM-15+0085PAUM V0209999C000010060019N0160931N1-01001-01201999999ADDAJ100569199999999GD14991+0060099GF108991999999999999999999MA1101221999999MW1001REMMET073PAUM 291740Z 00000KT 10SM OVC020 M10/M12 A2989 RMK MIN M18 4/022 NOSPECI;EQDQ01+000000PRSWM2
0152701620999992000042923404+69370-152130FM-15+0085PAUM V0200501N003110075019N0241401N1-01001-01601999999ADDGD14991+0075099GF108991999999999999999999MA1101021999999MW1001REMMET059PAUM 300040Z 05006KT 15SM OVC025 M10/M16 A2983 RMK NOSPECI;EQDQ01+000000PRSWM2
0174701620999992000043000404+69370-152130FM-15+0085PAUM V0200501N002610030019N0241401N1-01001-01501999999ADDGD13991+0030099GD24991+0075099GF108991999999999999999999MA1100981999999MW1001REMMET066PAUM 300140Z 05005KT 15SM BKN010 OVC025 M10/M15 A2982 RMK NOSPECI;EQDQ01+000000PRSWM2
0152701620999992000051900454+69370-152130FM-15+0085PAUM V0203501N002110042019N0160931N1-00401-01001999999ADDGD14991+0042099GF108991999999999999999999MA1101491999999MW1001REMMET059PAUM 190045Z 35004KT 10SM OVC014 M04/M10 A2997 RMK NOSPECI;EQDQ01+000000PRSWM2
0139701620999992000051914404+69370-152130FM-15+0085PAUM V0201001N003610027019N0112651N1-00901-01101999999ADDGD14991+0027099GF108991999999999999999999MA1101021999999MW1001REMMET046PAUM 191540Z 10007KT 7SM OVC009 M09/M11 A2983;EQDQ01+000000PRSWM2
0151701620999992000052901504+69370-152130FM-15+0085PAUM V0209999C000010300019N0321861N1+00101-00401999999ADDGD13991+0300099GF107991999999999999999999MA1102131999999MW1001REMMET058PAUM 290150Z 00000KT 20SM BKN100 01/M04 A3016 RMK NOSPECI;EQDQ01+000000PRSWM2
0157701620999992000062405454+69360-152120FM-15+0085PAUM V0202801N002610120019N0321861N1+02001+01101999999ADDGD13991+0120099GF107991999999999999999999MA1101521999999MW1001REMMET064PAUM 240545Z 28005KT 20SM BKN040 20/11 A2998 RMK MAX 25 NOSPECI;EQDQ01+000000PRSWM2
0194701620999992000062619504+69360-152120FM-15+0085PAUM V0202301N004110240019N0321861N1+02101+01001999999ADDGD12991+0060099GD23991+0240099GD34991+0600099GF108991999999999999999999MA1101421999999MW1001REMMET071PAUM 261950Z 23008KT 20SM SCT020 BKN080 OVC200 21/10 A2995 RMK NOSPECI;EQDQ01+000000PRSWM2
0162701620999992000070502504+69360-152120FM-15+0085PAUM V0202601N004110150019N0241401N1+01401+01101999999ADDGD14991+0150099GF108991999999999999999999MA1100471999999MW1001REMMET069PAUM 050250Z 26008KT 15SM OVC050 14/11 A2967 RMK VIRGA ALQDS NOSPECI;EQDQ01+000000PRSWM2
0172701620999992000072505504+69360-152120FM-15+0085PAUM V0202001N005110120019N0321861N1+01301+00901999999ADDGD12991+0045099GD23991+0120099GF107991999999999999999999MA1100541999999MW1001REMMET064PAUM 250550Z 20010KT 20SM SCT015 BKN040 13/09 A2969 RMK NOSPECI;EQDQ01+000000PRSWM2
0153701620999992000082806454+69360-152120FM-15+0085PAUM V0201001N004112200019N0112651N1+00201+00201999999ADDGD12991+0600099GF102991999999999999999999MA1101421999999MW1001REMMET060PAUM 280645Z 10008KT 7SM FEW200 02/02 A2995 RMK MAX 09 LAST;EQDQ01+000000PRSWM2
0172701620999992000090221004+69360-152120FM-15+0085PAUM V0202201N002610135019N0321861N1+00701+00401999999ADDGD12991+0105099GD24991+0135099GF108991999999999999999999MA1101121999999MW1001REMMET064PAUM 022059Z 22005KT 20SM FEW035 OVC045 07/04 A2986 RMK NOSPECI;EQDQ01+000000PRSWM2
0150701620999992000090523404+69360-152120FM-15+0085PAUM V0202001N007210120019N0321861N1+01401+00201999999ADDGD14991+0120099GF108991999999999999999999MA1100001999999MW1001REMMET057PAUM 052340Z 20014KT 20SM OVC040 14/02 A2953 RMK NOSPECI;EQDQ01+000000PRSWM2
0168701620999992000090820504+69360-152120FM-15+0085PAUM V0203401N003110015019N0080461N1+00301+00101999999ADDGD14991+0015099GF108991999999999999999999MA1100781999999MW1101REMMET059PAUM 082050Z 34006KT 5SM BR OVC005 03/01 A2976 RMK NOSPECI;EQDQ01+000003PRSWM1Q02    003PRSWM1
0171701620999992000091304474+69360-152120FM-15+0085PAUM V0203101N002110030019N0128741N1+00101+00001999999ADDGD13991+0030099GD24991+0039099GF108991999999999999999999MA1100411999999MW1001REMMET063PAUM 130447Z 31004KT 8SM BKN010 OVC013 01/00 A2965 RMK NOSPECI;EQDQ01+000000PRSWM2
0212701620999992000092200504+69360-152120FM-15+0085PAUM V0201101N002610060019N0080461N1+00401+00401999999ADDGD12991+0027099GD23991+0060099GD34991+0075099GF108991999999999999999999MA1099831999999MW1101REMMET073PAUM 220050Z 11005KT 5SM BR FEW009 BKN020 OVC025 04/04 A2948 RMK NOSPECI;EQDQ01+000003PRSWM1Q02    003PRSWM1
0178701620999992000092601404+69360-152120FM-15+0085PAUM V0203101N007710027019N0048281N1+00201+00101999999ADDGD14991+0027099GF108991999999999999999999MA1101191999999MW1101MW2511REMMET063PAUM 260140Z 31015KT 3SM -DZ BR OVC009 02/01 A2988 RMK NOSPL 2;EQDQ01+000003PRSWM1Q02    003PRSWM1
0098701620999992000100206454+69360-152120FM-15+0085PAUM V0202601N002612200019N0030001N1+99999+99999999999ADDMW1001REMMET061PAUM 020645Z 26005KT 1/2 -SN BR VV001 M04/M04 A3014 RMK LAST;EQDQ01+000000PRSWM2
0152701620999992000100622454+69360-152120FM-15+0085PAUM V0202701N002110090019N0321861N1-00701-01301999999ADDGD13991+0090099GF107991999999999999999999MA1100751999999MW1001REMMET059PAUM 062245Z 27004KT 20SM BKN030 M07/M13 A2975 RMK NOSPECI;EQDQ01+000000PRSWM2
0155701620999992000100706004+69360-152120FM-15+0085PAUM V0203101N002110075019N0112651N1-00901-01001999999ADDGD13991+0075099GF107991999999999999999999MA1100911999999MW1001REMMET062PAUM 070558Z 31004KT 7SM BKN025 M09/M10 A2980 RMK MAXM06 LAST;EQDQ01+000000PRSWM2
0174701620999992000100921464+69360-152120FM-15+0085PAUM V0202301N003610300019N0321861N1-00301-00801999999ADDGD12991+0084099GD23991+0300099GF107991999999999999999999MA1100681999999MW1001REMMET066PAUM 092146Z 23007KT 20SM SCT028 BKN100 M03/M08 A2973 RMK NOSPECI;EQDQ01+000000PRSWM2
0080701620999992000101022524+69360-152120SAOSP+0085PAUM V0209999C000012200019N0112651N1+99999+99999999999ADDMW1001REMAWY062PAUM SA 102252Z 31004KT 2OSM BKN040 M05/M11 A2975 RMK NOSPECI;
0170701620999992000101504484+69360-152120FM-15+0085PAUM V0202801N003110015019N0016091N1-00901-01001999999ADDGD14991+0015099GF108991999999999999999999MA1100001999999MW1101REMMET061PAUM 150448Z 28006KT 1SM BR OVC005 M09/M10 A2953 RMK NOSPECI;EQDQ01+000003PRSWM1Q02    003PRSWM1
0169701620999992000101803464+69360-152120FM-16+0085PAUM V0209999C000010015019N0008051N1-01101+99999999999ADDGD14991+0015099GF108991999999999999999999MA1100711999999MW1441REMMET060PAUM 180346Z 00000KT 1/2SM FG OVC005 M11/ A2974 RMK NOSPECI;EQDQ01+000003PRSWM1Q02    003PRSWM1
0201701620999992000102317504+69360-152120FM-15+0085PAUM V0200701N002610030019N0032181N1-01201-01401999999ADDAJ100289199999999GD14991+0030099GF108991999999999999999999MA1101081999999MW1101REMMET075PAUM 231750Z 07005KT 2SM BR OVC010 M12/M14 A2985 RMK MIN M16 4/011 NOSPECI;EQDQ01+000003PRSWM1Q02    003PRSWM1
0147701620999992000102718404+69360-152120FM-15+0085PAUM V0200601N002610045019N0112651N1-01101-01301999999ADDGD14991+0045099GF108991999999999999999999MA1101861999999MW1001REMMET054PAUM 271840Z 06005KT 7SM OVC015 M11/M13 A3008 NOSPECI;EQDQ01+000000PRSWM2
0153701620999992000111320504+69360-152120FM-15+0085PAUM V0201001N002610045019N0160931N1-01501-01701999999ADDGD13991+0045099GF107991999999999999999999MA1100471999999MW1001REMMET060PAUM 132050Z 10005KTS 10SM BKN015 M15/M17 A2967 RMK NOSPECI;EQDQ01+000000PRSWM2
0147701620999992000112001504+69360-152120FM-15+0085PAUM V0209999C000010180019N0112651N1-01301-01701999999ADDGD14991+0180099GF108991999999999999999999MA1100951999999MW1001REMMET054PAUM 200150Z 00000KT 7SM OVC060 M13/M17 A2981 NOSPECI;EQDQ01+000000PRSWM2
0178701620999992000112006504+69360-152120FM-15+0085PAUM V0201001N004110105019N0064371N1-01601-01801999999ADDGD14991+0105099GF108991999999999999999999MA1100581999999MW1101REMMET069PAUM 200650Z 10008KT 4SM BR OVC035 M16/M18 A2970 RMK MAX M13 NOSPECI;EQDQ01+000003PRSWM1Q02    003PRSWM1
0100701620999992000121823404+69360-152120FM-16+0085PAUM V0209999C000012200019N0010001N1+99999+99999999999ADDMW1001REMMET063PAUM 182340Z 00000KT 1 1/2 BR VVV002 M21/M23 A2990 RMK NOSPECI;EQDQ01+000000PRSWM2
0151701620999992000122005504+69360-152120FM-15+0085PAUM V0200701N003110180019N0112651N1-01901-02201999999ADDGD14991+0180099GF108991999999999999999999MA1101901999999MW1001REMMET058PAUM 200550Z 07006KT 7SM OVC060 M19/M22 A3009 RMK NOSPECI;EQDQ01+000000PRSWM2
0235701625999992000010813003+68130-151730FM-15+0643PAKP V0200701N009312200019N9999999N1-02601-03301999999ADDGD12991+0096019GF102991999999999999999999GP10060000001000000001000000001000GR100600000900009MA1100071999999MW1001OC101341REMMET067PAKP 081255Z AUTO 07018G26KT 3SM FEW032 M26/M33 A2955 RMK AO1 TSNO;EQDQ01+048282VODIS Q02+000000PRSWM2
0244701625999992000010819003+68130-151730FM-15+0643PAKP V0200601N008210075019N9999999N1-02601-03301999999ADDGD13991+0075019GD24991+0129019GF108991999999999999999999GP10060000001000000001000000001000GR100600000900009MA1100141999999MW1001OC101131REMMET077PAKP 081855Z AUTO 06016G22KT FEW020 BKN025 OVC043 M26/M33 A2957 RMK AO1 TSNO;EQDQ01+000000PRSWM2
0195701625999992000010907154+68130-151730FM-15+0643PAKP V0200501N005110150019N9999999N1-02401-03301999999ADDGD12991+0093019GD24991+0150019GF108991999999999999999999MA1100581999999MW1001REMMET071PAKP 090715Z AUTO 05010KT 4SM SCT031 OVC050 M24/M33 A2970 RMK AO1 TSNO;EQDQ01+064372VODIS Q02+000000PRSWM2
0191701625999992000011217003+68130-151730FM-15+0643PAKP V0200101N002112200019N0160931N1-03101-03301999999ADDGF100991999999999999999999GP10060000001000000001000000001000GR100600000900009MA1102571999999MW1001REMMET062PAKP 121655Z AUTO 01004KT 10SM CLR M31/M33 A3029 RMK AO1 TSNO;EQDQ01+000000PRSWM2
0207701625999992000011303003+68130-151730FM-15+0643PAKP V0209999C000012200019N0128741N1-03401+99999999999ADDGF100991999999999999999999GP10060000001000000001000000001000GR100600000900009MA1102881999999MD1210101+9999MW1001REMMET064PAKP 130255Z AUTO 00000KT 8SM CLR M34/ A3038 RMK AO1 52010 TSNO;EQDQ01+000000PRSWM2
0208701625999992000011309003+68130-151730FM-15+0643PAKP V0201801N007712200019N0160931N1-02901+99999999999ADDGF100991999999999999999999GP10060000001000000001000000001000GR100600000900009MA1102911999999MD1210031+9999MW1001REMMET065PAKP 130855Z AUTO 18015KT 10SM CLR M29/ A3039 RMK AO1 52003 TSNO;EQDQ01+000000PRSWM2
0219701625999992000011315003+68130-151730FM-15+0643PAKP V0201801N006712200019N0160931N1-02901+99999999999ADDGF100991999999999999999999GP10060000001000000001000000001000GR100600000900009MA1102881999999MD1710071+9999MW1001OC100871REMMET068PAKP 131455Z AUTO 18013G17KT 10SM CLR M29/ A3038 RMK AO1 57007 TSNO;EQDQ01+000000PRSWM2
0206701625999992000011913003+68130-151730FM-15+0643PAKP V0202001N006210096019N0160931N1-01401+99999999999ADDGD14991+0096019GF108991999999999999999999GP10060000001000000001000000001000GR100600000900009MA1100341999999MW1001REMMET062PAKP 191255Z AUTO 20012KT 10SM OVC032 M14/ A2963 RMK AO1 TSNO;EQDQ01+000000PRSWM2
0227701625999992000012019003+68130-151730FM-15+0643PAKP V0200401N007210036019N0048281N1-02501+99999999999ADDGD13991+0036019GD24991+0051019GF108991999999999999999999GP10060000001000000001000000001000GR100600000900009MA1100881999999MW1001REMMET068PAKP 201855Z AUTO 04014KT 3SM BKN012 OVC017 M25/ A2979 RMK AO1 TSNO;EQDQ01+000000PRSWM2
0208701625999992000012116003+68130-151730FM-15+0643PAKP V0202001N004110027019N9999999N1-01801+99999999999ADDGD14991+0027019GF108991999999999999999999GP10060000001000000001000000001000GR100600000900009MA1100241999999MW1001REMMET064PAKP 211555Z AUTO 20008KT BKN005 OVC009 M18/ A2960 RMK AO1 TSNO;EQDQ01+000000PRSWM2
0250701625999992000012209003+68130-151730FM-15+0643PAKP V0202101N005710063019N9999999N1-00901+99999999999ADDGD13991+0063019GD24991+0075019GF108991999999999999999999GP10060000001000000001000000001000GR100600000900009MA1099221999999MD1410001+9999MW1001REMMET077PAKP 220855Z AUTO 21011KT SCT014 BKN021 OVC025 M09/ A2930 RMK AO1 54000 TSNO;EQDQ01+000000PRSWM2
0266701625999992000012223003+68130-151730FM-15+0643PAKP V0202201N004610078019N0128741N1-00701+99999999999ADDGD12991+0060019GD23991+0078019GD34991+0114019GF108991999999999999999999GP10060001101025000001028001101025GQ100600876918279GR100600059914129MA1099461999999MW1001REMMET075PAKP 222255Z AUTO 22009KT 8SM FEW020 BKN026 OVC038 M07/ A2937 RMK AO1 TSNO;EQDQ01+000000PRSWM2
0250701625999992000012611003+68130-151730FM-15+0643PAKP V0202001N005110114019N0160931N1-01001+99999999999ADDGD12991+0090019GD23991+0114019GD34991+0141019GF108991999999999999999999GP10060000001000000001000000001000GR100600000900009MA1098611999999MW1001REMMET076PAKP 261055Z AUTO 20010KT 10SM SCT030 BKN038 OVC047 M10/ A2912 RMK AO1 TSNO;EQDQ01+000000PRSWM2
0248701625999992000020623003+68130-151730FM-15+0643PAKP V0202001N006710135019N0160931N1-00901-01301999999ADDGD12991+0099019GD24991+0135019GF108991999999999999999999GP10060003401025000001028003401025GQ100600837918229GR100600155914079MA1101081999999MW1001REMMET072PAKP 062255Z AUTO 20013KT 10SM FEW033 OVC045 M09/M13 A2985 RMK AO1 TSNO;EQDQ01+000000PRSWM2
0230701625999992000020809003+68130-151730FM-15+0643PAKP V0209999C000010003019N0012071N1-02101-02501999999ADDGD14991+0003019GF108991999999999999999999GP10060000001000000001000000001000GR100600000900009MA1101801999999MD1210031+9999MW1001REMMET072PAKP 080855Z AUTO 00000KT 3/4SM OVC001 M21/M25 A3006 RMK AO1 52003 TSNO;EQDQ01+000000PRSWM2
0191701625999992000021811003+68130-151730FM-15+0643PAKP V0209999C000012200019N0160931N1-01801-02301999999ADDGF100991999999999999999999GP10060000001000000001000000001000GR100600000900009MA1100511999999MW1001REMMET062PAKP 181055Z AUTO 00000KT 10SM CLR M18/M23 A2968 RMK AO1 TSNO;EQDQ01+000000PRSWM2
0247701625999992000022001003+68130-151730FM-15+0643PAKP V0200301N003610075019N0144841N1-02901-03301999999ADDGD13991+0075019GD24991+0090019GF108991999999999999999999GP10060004101025000001028004101025GQ100600826921199GR100600181914009MA1099051999999MW1001REMMET071PAKP 200055Z AUTO 03007KT 9SM BKN025 OVC030 M29/M33 A2925 RMK AO1 TSNO;EQDQ01+000000PRSWM2
0226701625999992000022422003+68130-151730FM-15+0643PAKP V0200301N004110180019N0160931N1-02701-03101999999ADDGD14991+0180019GF108991999999999999999999GP10060006401025000001028006401025GQ100600781916749GR100600288913969MA1099761999999MW1001REMMET065PAKP 242155Z AUTO 03008KT 10SM OVC060 M27/M31 A2946 RMK AO1 TSNO;EQDQ01+000000PRSWM2
0191701625999992000022714003+68130-151730FM-15+0643PAKP V0200201N002612200019N0160931N1-03201-03201999999ADDGF100991999999999999999999GP10060000001000000001000000001000GR100600000900009MA1100641999999MW1001REMMET062PAKP 271355Z AUTO 02005KT 10SM CLR M32/M32 A2972 RMK AO1 TSNO;EQDQ01+000000PRSWM2
0266701625999992000022718003+68130-151730FM-15+0643PAKP V0200101N002112200019N0160931N1-03201-03201999999ADDGF100991999999999999999999GP10060000101025004101028000101025GQ100600893911399GR100600006904769KA1999M-03101KA2999N-03301MA1100541999999MD1710071+9999MW1001REMMET080PAKP 271755Z AUTO 01004KT 10SM CLR M32/M32 A2969 RMK AO1 11310 21330 57007 TSNO;EQDQ01+000000PRSWM2
0178701625999992000030121003+68130-151730FM-15+0643PAKP V0202201N003112200019N0160931N1+99999+99999999999ADDGP10060018401025069601028003701025GQ100600778915239GR100600295913929MA1099901999999MW1001REMMET058PAKP 012055Z AUTO 22006KT 10SM M16/M21 A2950 RMK AO1 TSNO;EQDQ01+000000PRSWM2
0208701625999992000030322003+68130-151730FM-15+0643PAKP V0209999C000012200019N0160931N1-01601-02201999999ADDGF100991999999999999999999GP10060023801025077301028003801025GQ100600751916759GR100600358913919MA1098921999999MW1001REMMET062PAKP 032155Z AUTO 00000KT 10SM CLR M16/M22 A2921 RMK AO1 TSNO;EQDQ01+000000PRSWM2
0191701625999992000030410003+68130-151730FM-15+0643PAKP V0200201N004112200019N0160931N1-02701-03101999999ADDGF100991999999999999999999GP10060000001000000001000000001000GR100600000900009MA1099391999999MW1001REMMET062PAKP 040955Z AUTO 02008KT 10SM CLR M27/M31 A2935 RMK AO1 TSNO;EQDQ01+000000PRSWM2
0208701625999992000030707003+68130-151730FM-15+0643PAKP V0202001N005712200019N0048281N1-01801-02201999999ADDGD12991+0003019GF104991999999999999999999GP10060000001000000001000000001000GR100600000900009MA1101321999999MW1001REMMET064PAKP 070655Z AUTO 20011KT 3SM SCT001 M18/M22 A2992 RMK AO1 TSNO;EQDQ01+000000PRSWM2
0191701625999992000031105003+68130-151730FM-15+0643PAKP V0209999C000012200019N0160931N1-02101-02901999999ADDGF100991999999999999999999GP10060000001000000001000000001000GR100600000900009MA1102811999999MW1001REMMET062PAKP 110455Z AUTO 00000KT 10SM CLR M21/M29 A3036 RMK AO1 TSNO;EQDQ01+000000PRSWM2
0208701625999992000031604003+68130-151730FM-15+0643PAKP V0200401N004112200019N0160931N1-02801-03201999999ADDGF100991999999999999999999GP10060002101025008501028001601025GQ100600871925889GR100600071913829MA1099971999999MW1001REMMET062PAKP 160355Z AUTO 04008KT 10SM CLR M28/M32 A2952 RMK AO1 TSNO;EQDQ01+000000PRSWM2
0228701625999992000031703003+68130-151730FM-15+0643PAKP V0200301N004112200019N0160931N1-02701-03101999999ADDGF100991999999999999999999GP10060011101025055401028003001025GQ100600816924499GR100600202913819MA1099661999999MD1210071+9999MW1001REMMET068PAKP 170255Z AUTO 03008KT 10SM CLR M27/M31 A2943 RMK AO1 52007 TSNO;EQDQ01+000000PRSWM2
0230701625999992000032510003+68130-151730FM-15+0643PAKP V0200401N007710042019N0112651N1-03101-03401999999ADDGD13991+0042019GD24991+0102019GF108991999999999999999999GP10060000001000000001000000001000GR100600000900009MA1099731999999MW1001REMMET071PAKP 250955Z AUTO 04015KT 7SM BKN014 OVC034 M31/M34 A2945 RMK AO1 TSNO;EQDQ01+000000PRSWM2
0228701625999992000032801003+68130-151730FM-15+0643PAKP V0200301N006210144019N9999999N1-02601-02901999999ADDGD14991+0144019GF108991999999999999999999GP10060012501025000001028012501025GQ100600692921729GR100600488913729MA1099121999999MW1001REMMET067PAKP 280055Z AUTO 03012KT FEW036 OVC048 M26/M29 A2927 RMK AO1 TSNO;EQDQ01+000000PRSWM2
0212701625999992000032817154+68130-151730FM-15+0643PAKP V0201801N008710060019N0032181N1-01901-02401999999ADDGD12991+0042019GD23991+0060019GD33991+0081019GF107991999999999999999999MA1099461999999MW1001OC101131REMMET081PAKP 281715Z AUTO 18017G22KT 2SM SCT014 BKN020 BKN027 M19/M24 A2937 RMK AO1 TSNO;EQDQ01+000000PRSWM2
0181701625999992000033009003+68130-151730FM-15+0643PAKP V0202101N004112200019N0160931N1+99999+99999999999ADDGP10060000001000000001000000001000GR100600000900009MA1099761999999MD1210031+9999MW1001REMMET064PAKP 300855Z AUTO 21008KT 10SM M16/M23 A2946 RMK AO1 52003 TSNO;EQDQ01+000000PRSWM2
0191701625999992000040810003+68130-151730FM-15+0643PAKP V0202201N001512200019N0160931N1-01901-02601999999ADDGF100991999999999999999999GP10060000001000000001000000001000GR100600000900009MA1101831999999MW1001REMMET062PAKP 080955Z AUTO 22003KT 10SM CLR M19/M26 A3007 RMK AO1 TSNO;EQDQ01+000000PRSWM2
0215701625999992000041018003+68130-151730FM-15+0643PAKP V0201901N002119999999N9999999N1+99999+99999999999ADDGP10060024001025075101028004301025GQ100600748910619GR100600358913619KA1999M-01901KA2999N-02301MA1102781999999MW1001REMMET069PAKP 101755Z AUTO 19004KT CLR M19/M25 A3035 RMK AO1 11190 21230 TSNO;EQDQ01+000000PRSWM2
0211701625999992000041109003+68130-151730FM-15+0643PAKP V0202101N005112200019N0160931N1-01301-02201999999ADDGF100991999999999999999999GP10060000001000000001000000001000GR100600000900009MA1102711999999MD1410001+9999MW1001REMMET068PAKP 110855Z AUTO 21010KT 10SM CLR M13/M22 A3033 RMK AO1 54000 TSNO;EQDQ01+000000PRSWM2
0208701625999992000041204003+68130-151730FM-15+0643PAKP V0201801N007212200019N0160931N1-00901-01801999999ADDGF100991999999999999999999GP10060016701025064001028003801025GQ100600783926459GR100600276913609MA1102301999999MW1001REMMET062PAKP 120355Z AUTO 18014KT 10SM CLR M09/M18 A3021 RMK AO1 TSNO;EQDQ01+000000PRSWM2
0209701625999992000041410003+68130-151730FM-15+0643PAKP V0209999C000010300019N0160931N1-00901-01601999999ADDGD14991+0300019GF108991999999999999999999GP10060000001000000001000000001000GR100600000900009MA1102271999999MW1001REMMET065PAKP 140955Z AUTO 00000KT 10SM OVC100 M09/M16 A3020 RMK AO1 TSNO;EQDQ01+000000PRSWM2
0294701625999992000041503003+68130-151730FM-15+0643PAKP V0203201N006210105019N0080461N1-00601-01301999999ADDGD13991+0105019GD24991+0129019GF108991999999999999999999GP10060010801025000001028010801025GQ100600720925089GR100600420913589MA1102611999999MD1210141+9999MW1001OC101081REMMET080PAKP 150255Z AUTO 32012G21KT 3SM BKN035 OVC043 M06/M13 A3030 RMK AO1 52014 TSNO;EQDQ01+048282VODIS Q02+000000PRSWM2
0225701625999992000041717003+68130-151730FM-15+0643PAKP V0200301N005710003019N0032181N1-02201-02501999999ADDGD14991+0003019GF108991999999999999999999GP10060004801025000001028004801025GQ100600778909149GR100600287913559MA1101391999999MW1001REMMET064PAKP 171655Z AUTO 03011KT 2SM OVC001 M22/M25 A2994 RMK AO1 TSNO;EQDQ01+000000PRSWM2
0208701625999992000042023003+68130-151730FM-15+0643PAKP V0200401N004612200019N0160931N1-01501-01901999999ADDGF100991999999999999999999GP10060055601025076801028013201025GQ100600565918719GR100600748913539MA1099491999999MW1001REMMET062PAKP 202255Z AUTO 04009KT 10SM CLR M15/M19 A2938 RMK AO1 TSNO;EQDQ01+000000PRSWM2
0209701625999992000042313003+68130-151730FM-15+0643PAKP V0200401N003110090019N0160931N1-01801-02101999999ADDGD14991+0090019GF108991999999999999999999GP10060000001000000001000000001000GR100600000900009MA1100311999999MW1001REMMET065PAKP 231255Z AUTO 04006KT 10SM OVC030 M18/M21 A2962 RMK AO1 TSNO;EQDQ01+000000PRSWM2
0208701625999992000042620003+68130-151730FM-15+0643PAKP V0201701N004612200019N0160931N1-00701-01201999999ADDGF100991999999999999999999GP10060051501025082601028009901025GQ100600598913549GR100600679913499MA1101761999999MW1001REMMET062PAKP 261955Z AUTO 17009KT 10SM CLR M07/M12 A3005 RMK AO1 TSNO;EQDQ01+000000PRSWM2
0253701625999992000042713003+68130-151730FM-15+0643PAKP V0209999C000010129019N0160931N1-01101-01401999999ADDGD12991+0105019GD23991+0129019GD34991+0150019GF108991999999999999999999GP10060000001000000001000000001000GR100600000900009MA1101631999999MW1001REMMET079PAKP 271255Z AUTO 00000KT 10SM FEW035 BKN043 OVC050 M11/M14 A3001 RMK AO1 TSNO;EQDQ01+000000PRSWM2
0269701625999992000042723003+68130-151730FM-15+0643PAKP V0200401N004610051019N0080461N1-00901-01201999999ADDGD12991+0027019GD23991+0051019GD34991+0075019GF108991999999999999999999GP10060020701025000001028020701025GQ100600542918769GR100600789913489MA1101461999999MW1001REMMET078PAKP 272255Z AUTO 04009KT 5SM SCT009 BKN017 OVC025 M09/M12 A2996 RMK AO1 TSNO;EQDQ01+000000PRSWM2
0208701625999992000042908003+68130-151730FM-15+0643PAKP V0200401N005710006019N0048281N1-01301-01601999999ADDGD14991+0006019GF108991999999999999999999GP10060000001000000001000000001000GR100600000900009MA1100781999999MW1001REMMET064PAKP 290755Z AUTO 04011KT 3SM OVC002 M13/M16 A2976 RMK AO1 TSNO;EQDQ01+000000PRSWM2
0208701625999992000050302003+68130-151730FM-15+0643PAKP V0200401N002612200019N0160931N1-00301-00801999999ADDGF100991999999999999999999GP10060044101025072701028009701025GQ100600617923899GR100600638913449MA1100781999999MW1001REMMET062PAKP 030155Z AUTO 04005KT 10SM CLR M03/M08 A2976 RMK AO1 TSNO;EQDQ01+000000PRSWM2
0270701625999992000050417003+68130-151730FM-15+0643PAKP V0200601N006710075019N0160931N1-01401-01801999999ADDGD12991+0057019GD23991+0075019GD34991+0105019GF108991999999999999999999GP10060008201025000001028008201025GQ100600725908999GR100600404913439MA1100611999999MW1001REMMET079PAKP 041655Z AUTO 06013KT 10SM FEW019 BKN025 OVC035 M14/M18 A2971 RMK AO1 TSNO;EQDQ01+000000PRSWM2
0253701625999992000051010003+68130-151730FM-15+0643PAKP V0202101N002110099019N0160931N1-00701-01201999999ADDGD13991+0099019GD23991+0126019GD34991+0144019GF108991999999999999999999GP10060000001000000001000000001000GR100600000900009MA1101831999999MW1001REMMET079PAKP 100955Z AUTO 21004KT 10SM BKN033 BKN042 OVC048 M07/M12 A3007 RMK AO1 TSNO;EQDQ01+000000PRSWM2
0284701625999992000052212003+68130-151730FM-15+0643PAKP V0200401N005710003019N0160931N1-01301-01701999999ADDGD14991+0003019GF108991999999999999999999GP10060000101025000001028000101025GQ100600893902139GR100600013911229KA1999M-01201KA2999N-01301MA1100201999999MD1710031+9999MW1001REMMET083PAKP 221155Z AUTO 04011KT 10SM OVC001 M13/M17 A2959 RMK AO1 11120 21130 57003 TSNO;EQDQ01+000000PRSWM2
0266701625999992000052312003+68130-151730FM-15+0643PAKP V0200301N002112200019N0160931N1-01401-01701999999ADDGF100991999999999999999999GP10060000201025004701028000101025GQ100600893902029GR100600017913219KA1999M-00901KA2999N-01401MA1100681999999MD1210071+9999MW1001REMMET080PAKP 231155Z AUTO 03004KT 10SM CLR M14/M17 A2973 RMK AO1 11090 21140 52007 TSNO;EQDQ01+000000PRSWM2
0071701625999992000052718009+68133-151733NSRDB+065799999V020999999999999999999999999999+99999+99999999999ADDGP10060042301025070201028009601025GQ100600622910189GR100600620913309
0140701625999992000052808504+68130-151730FM-15+0643PAKP V0203501N001512200019N0160931N1-00201-00601999999ADDGF100991999999999999999999MA1101521999999MW1001REMMET062PAKP 280850Z AUTO 35003KT 10SM CLR M02/M06 A2998 RMK AO1 TSNO;EQDQ01+000000PRSWM2
0071701625999992000052809009+68133-151733NSRDB+065799999V020999999999999999999999999999+99999+99999999999ADDGP10060000701025003001028000601025GQ100600883933829GR100600039913309
0246701625999992000060517003+68130-151730FM-15+0643PAKP V0202101N004112200019N0160931N1+01101+00101999999ADDGD12991+0150019GD22991+0210019GF104991999999999999999999GP10060021001025033701028007701025GQ100600668908689GR100600523913269MA1101591999999MW1001REMMET070PAKP 051655Z AUTO 21008KT 10SM FEW050 SCT070 11/01 A3000 RMK AO1 TSNO;EQDQ01+000000PRSWM2
0206701625999992000061016003+68130-151730FM-15+0643PAKP V0209999C000012200019N0160931N1+01301+00301999999ADDGF100991999999999999999999GP10060026201025070101028004401025GQ100600719907289GR100600411913259MA1100811999999MW1001REMMET060PAKP 101555Z AUTO 00000KT 10SM CLR 13/03 A2977 RMK AO1 TSNO;EQDQ01+000000PRSWM2
0206701625999992000061417003+68130-151720FM-15+0643PAKP V0200601N005112200019N0160931N1+01301+00301999999ADDGF100991999999999999999999GP10060032801025057101028009901025GQ100600663908619GR100600531913249MA1100511999999MW1001REMMET060PAKP 141655Z AUTO 06010KT 10SM CLR 13/03 A2968 RMK AO1 TSNO;EQDQ01+000000PRSWM2
0241701625999992000061704003+68130-151720FM-15+0643PAKP V0209999C000010135019N0160931N1+01201+00501999999ADDAA101000391GD14991+0135019GF108991999999999999999999GP10060012001025000001028012001025GQ100600648927059GR100600562913239MA1101221999999MW1001REMMET069PAKP 170355Z AUTO 00000KT 10SM OVC045 12/05 A2989 RMK AO1 P0001 TSNO;EQDQ01+000000PRSWM2
0338701625999992000070412003+68130-151720FM-15+0643PAKP V0202101N005110105019N0160931N1+01001+00601999999ADDAA106000391AA224000591GD12991+0081019GD24991+0105019GF108991999999999999999999GP10060000801025000001028000801025GQ100600876901819GR100600056913219KA1999M+01101KA2999N+00901MA1101051999999MD1210071+9999MW1001REMMET100PAKP 041155Z AUTO 21010KT 10SM SCT027 OVC035 10/06 A2984 RMK AO1 60001 70002 10110 20090 52007 TSNO;EQDQ01+000000PRSWM2
0268701625999992000072201003+68130-151720FM-15+0643PAKP V0201701N005710270019N0160931N1+01501+00301999999ADDGD12991+0135019GD22991+0180019GD33991+0270019GF107991999999999999999999GP10060035901025004701028033101025GQ100600524922169GR100600807913239MA1100911999999MW1001REMMET077PAKP 220055Z AUTO 17011KT 10SM FEW045 SCT065 BKN090 15/03 A2980 RMK AO1 TSNO;EQDQ01+000000PRSWM2
0244701625999992000072203003+68130-151720FM-15+0643PAKP V0209999C000010270019N0160931N1+01701+00301999999ADDGD14991+0270019GF108991999999999999999999GP10060013401025000001028013401025GQ100600617925349GR100600626913239MA1100811999999MD1710101+9999MW1001REMMET069PAKP 220255Z AUTO 00000KT 10SM OVC090 17/03 A2977 RMK AO1 57010 TSNO;EQDQ01+000000PRSWM2
0257701625999992000072322003+68130-151720FM-15+0643PAKP V0202101N005110102019N0160931N1+01301+00601999999ADDGD13991+0102019GD24991+0138019GF108991999999999999999999GP10060019801025000001028019801025GQ100600488916649GR100600872913249MA1100411999999MW1001OC100821REMMET073PAKP 232155Z AUTO 21010G16KT 10SM BKN034 OVC046 13/06 A2965 RMK AO1 TSNO;EQDQ01+000000PRSWM2
0288701625999992000072803003+68130-151720FM-15+0643PAKP V0201801N001510135019N0160931N1+00901+00001999999ADDGD12991+0105019GD23991+0135019GD33991+0150019GF107991999999999999999999GP10060018201025005801028015501025GQ100600629925299GR100600603913259MA1099831999999MD1410001+9999MW1001REMMET083PAKP 280255Z AUTO 18003KT 10SM FEW035 BKN045 BKN055 09/00 A2948 RMK AO1 54000 TSNO;EQDQ01+000000PRSWM2
0235701625999992000080917003+68130-151720FM-15+0643PAKP V0202301N005710129019N0160931N1+00501+00101999999ADDGD13991+0129019GF107991999999999999999999GP10060011301025003701028010301025GQ100600738908819GR100600370913309MA1102001999999MW1001OC100771REMMET066PAKP 091655Z AUTO 23011G15KT 10SM BKN043 05/01 A3012 RMK AO1 TSNO;EQDQ01+000000PRSWM2
0277701625999992000081015003+68130-151720FM-15+0643PAKP V0202001N007210108019N0160931N1+00601+00101999999ADDGD13991+0108019GD24991+0126019GF108991999999999999999999GP10060002301025000001028002301025GQ100600846906099GR100600125913309MA1101351999999MD1710101+9999MW1001OC100931REMMET079PAKP 101455Z AUTO 20014G18KT 10SM BKN036 OVC042 06/01 A2993 RMK AO1 57010 TSNO;EQDQ01+000000PRSWM2
0100701625999992000081604554+68130-151720FM-15+0643PAKP V02099999999992200019N0100001N1+99999+99999999999ADDMA1102741999999MW1001REMMET048PAKP 160455Z AUTO CLR 10/M03 A3034 RMK AO1 TSNO;EQDQ01+000000PRSWM2
0270701625999992000082404003+68130-151720FM-15+0643PAKP V0200501N004110129019N0160931N1-00101-00501999999ADDGD12991+0111019GD23991+0129019GD34991+0210019GF108991999999999999999999GP10060006001025000001028006001025GQ100600761926509GR100600322913379MA1101391999999MW1001REMMET079PAKP 240355Z AUTO 05008KT 10SM SCT037 BKN043 OVC070 M01/M05 A2994 RMK AO1 TSNO;EQDQ01+000000PRSWM2
0288701625999992000082712003+68130-151720FM-15+0643PAKP V0209999C000010150019N0128741N1-00301-00701999999ADDGD12991+0003019GD23991+0150019GF107991999999999999999999GP10060000001000000001000000001000GR100600000900009KA1999M+00001KA2999N-00301MA1101461999999MD1710071+9999MW1001REMMET089PAKP 271155Z AUTO 00000KT 8SM FEW001 BKN050 M03/M07 A2996 RMK AO1 10000 21030 57007 TSNO;EQDQ01+000000PRSWM2
0247701625999992000090219003+68130-151720FM-15+0643PAKP V0201701N004610081019N0160931N1+00701-00101999999ADDGD13991+0081019GD24991+0099019GF108991999999999999999999GP10060010601025000001028010601025GQ100600702912149GR100600456913439MA1101151999999MW1001REMMET071PAKP 021855Z AUTO 17009KT 10SM BKN027 OVC033 07/M01 A2987 RMK AO1 TSNO;EQDQ01+000000PRSWM2
0348701625999992000090300003+68130-151720FM-15+0643PAKP V0202301N005110240019N0160931N1+00701-00201999999ADDGD12991+0093019GD22991+0117019GD33991+0240019GF107991999999999999999999GP10060018901025006901028015701025GQ100600622920369GR100600626913439KA1999M+00801KA2999N+00601MA1101151999999MD1710031+9999MW1001OC100821REMMET109PAKP 022355Z AUTO 23010G16KT 10SM FEW031 SCT039 BKN080 07/M02 A2987 RMK AO1 10080 20060 401000050 57003 TSNO;EQDQ01+000000PRSWM2
0269701625999992000090602003+68130-151720FM-15+0643PAKP V0201901N005110150019N0160931N1+00601-00101999999ADDGD12991+0066019GD22991+0099019GD33991+0150019GF107991999999999999999999GP10060018501025006201028016401025GQ100600704923529GR100600451913459MA1100031999999MW1001REMMET078PAKP 060155Z AUTO 19010KT 10SM FEW022 SCT033 BKN050 06/M01 A2954 RMK AO1 TSNO;EQDQ01+000000PRSWM2
0229701625999992000090710003+68130-151720FM-15+0643PAKP V0200301N001510087019N0160931N1+00401+00001999999ADDGD13991+0087019GD24991+0105019GF108991999999999999999999GP10060000001000000001000000001000GR100600000900009MA1099661999999MW1001REMMET070PAKP 070955Z AUTO 03003KT 10SM BKN029 OVC035 04/00 A2943 RMK AO1 TSNO;EQDQ01+000000PRSWM2
0247701625999992000091604003+68130-151720FM-15+0643PAKP V0202101N001512200019N0160931N1+00101-00801999999ADDGD12991+0141019GD22991+0240019GF102991999999999999999999GP10060006001025034401028002701025GQ100600845926369GR100600129913529MA1100911999999MW1001REMMET071PAKP 160355Z AUTO 21003KT 10SM FEW047 FEW080 01/M08 A2980 RMK AO1 TSNO;EQDQ01+000000PRSWM2
0344701625999992000092212003+68130-151720FM-15+0643PAKP V0202101N004110144019N0160931N1+00201-00201999999ADDAA106001391AA224001391GD12991+0015019GD22991+0123019GD33991+0144019GF107991999999999999999999GP10060000001000000001000000001000GR100600000900009KA1999M+00301KA2999N+00201MA1099801999999MD1210141+9999MW1001REMMET108PAKP 221155Z AUTO 21008KT 10SM FEW005 SCT041 BKN048 02/M02 A2947 RMK AO1 60005 70005 10030 20020 52014 TSNO;EQDQ01+000000PRSWM2
0269701625999992000092922003+68130-151720FM-15+0643PAKP V0201901N002110093019N0128741N1-00601-01201999999ADDGD12991+0048019GD22991+0069019GD33991+0093019GF107991999999999999999999GP10060023801025024701028015801025GQ100600711917299GR100600441913639MA1100511999999MW1001REMMET078PAKP 292155Z AUTO 19004KT 8SM FEW016 SCT023 BKN031 M06/M12 A2968 RMK AO1 TSNO;EQDQ01+000000PRSWM2
0208701625999992000100322003+68130-151720FM-15+0643PAKP V0202201N004612200019N0160931N1-00901-01501999999ADDGF100991999999999999999999GP10060028701025082801028004001025GQ100600726917339GR100600408913669MA1101761999999MW1001REMMET062PAKP 032155Z AUTO 22009KT 10SM CLR M09/M15 A3005 RMK AO1 TSNO;EQDQ01+000000PRSWM2
0261701625999992000100617003+68130-151720FM-15+0643PAKP V0200501N005110060019N9999999N1-01201-01601999999ADDGD13991+0060019GD24991+0093019GF108991999999999999999999GP10060000001025000001028000001025GQ100600894910529GR100600004903769MA1099971999999MW1001OC100821REMMET077PAKP 061655Z AUTO 05010G16KT FEW014 BKN020 OVC031 M12/M16 A2952 RMK AO1 TSNO;EQDQ01+000000PRSWM2
0226701625999992000100920003+68130-151720FM-15+0643PAKP V0201901N005712200019N0160931N1-01501-02101999999ADDGD12991+0093019GF102991999999999999999999GP10060016601025055601028005901025GQ100600789914359GR100600265913719MA1100581999999MW1001REMMET065PAKP 091955Z AUTO 19011KT 10SM FEW031 M15/M21 A2970 RMK AO1 TSNO;EQDQ01+000000PRSWM2
0191701625999992000101305003+68130-151720FM-15+0643PAKP V0209999C000012200019N0160931N1-01101-01801999999ADDGF100991999999999999999999GP10060000001000000001000000001000GR100600000900009MA1100241999999MW1001REMMET062PAKP 130455Z AUTO 00000KT 10SM CLR M11/M18 A2960 RMK AO1 TSNO;EQDQ01+000000PRSWM2
0211701625999992000101415003+68130-151720FM-15+0643PAKP V0202201N004112200019N0160931N1-01101-01701999999ADDGF100991999999999999999999GP10060000001000000001000000001000GR100600000900009MA1099531999999MD1710101+9999MW1001REMMET068PAKP 141455Z AUTO 22008KT 10SM CLR M11/M17 A2939 RMK AO1 57010 TSNO;EQDQ01+000000PRSWM2
0210701625999992000101816003+68130-151720FM-15+0643PAKP V0203601N002610003019N0008051N1-01701-02101999999ADDGD14991+0003019GF108991999999999999999999GP10060000001000000001000000001000GR100600000900009MA1100511999999MW1001REMMET066PAKP 181555Z AUTO 36005KT 1/2SM OVC001 M17/M21 A2968 RMK AO1 TSNO;EQDQ01+000000PRSWM2
0163701625999992000101911003+68130-151720FM-15+0643PAKP V0200401N002612200019N9999999N1+99999+99999999999ADDGP10060000001000000001000000001000GR100600000900009MA1100781999999MW1001REMMET060PAKP 191055Z AUTO 04005KT OVC003 M13/M16 A2976 RMK AO1 TSNO;EQDQ01+000000PRSWM2
0226701625999992000102301003+68130-151720FM-15+0643PAKP V0209999C000010012019N0160931N1-02101-02401999999ADDGD13991+0012019GF107991999999999999999999GP10060006001025003701028005601025GQ100600843921899GR100600136913819MA1099761999999MW1001REMMET065PAKP 230055Z AUTO 00000KT 10SM BKN004 M21/M24 A2946 RMK AO1 TSNO;EQDQ01+000000PRSWM2
0054701625999992000102816009+68133-151733NSRDB+065799999V020999999999999999999999999999+99999+99999999999ADDGP10060000001000000001000000001000GR100600000900009
0071701625999992000110322009+68133-151733NSRDB+065799999V020999999999999999999999999999+99999+99999999999ADDGP10060008501028036901031004401028GQ100600835917509GR100600157913919
0179701625999992000110407354+68130-151720FM-15+0643PAKP V0202101N001510150019N0128741N1-02001-02501999999ADDGD12991+0111019GD24991+0150019GF108991999999999999999999MA1101491999999MW1001REMMET071PAKP 040735Z AUTO 21003KT 8SM FEW037 OVC050 M20/M25 A2997 RMK AO1 TSNO;EQDQ01+000000PRSWM2
0180701625999992000111105354+68130-151720FM-15+0643PAKP V0202401N007212200019N0160931N1-00401-00901999999ADDGD12991+0129019GD22991+0150019GF102991999999999999999999MA1098881999999MW1001REMMET072PAKP 110535Z AUTO 24014KT 10SM FEW043 FEW050 M04/M09 A2920 RMK AO1 TSNO;EQDQ01+000000PRSWM2
0054701625999992000111217009+68133-151733NSRDB+065799999V020999999999999999999999999999+99999+99999999999ADDGP10060000001000000001000000001000GR100600000900009
0054701625999992000111318009+68133-151733NSRDB+065799999V020999999999999999999999999999+99999+99999999999ADDGP10060000001000000001000000001000GR100600000900009
0054701625999992000111704009+68133-151733NSRDB+065799999V020999999999999999999999999999+99999+99999999999ADDGP10060000001000000001000000001000GR100600000900009
0071701625999992000112322009+68133-151733NSRDB+065799999V020999999999999999999999999999+99999+99999999999ADDGP10060001301028002201031001301028GQ100600885917459GR100600037914039
0071701625999992000112323009+68133-151733NSRDB+065799999V020999999999999999999999999999+99999+99999999999ADDGP10060000901028002101031000901028GQ100600886918859GR100600033914039
0054701625999992000112510009+68133-151733NSRDB+065799999V020999999999999999999999999999+99999+99999999999ADDGP10060000001000000001000000001000GR100600000900009
0054701625999992000112608009+68133-151733NSRDB+065799999V020999999999999999999999999999+99999+99999999999ADDGP10060000001000000001000000001000GR100600000900009
0054701625999992000113002009+68133-151733NSRDB+065799999V020999999999999999999999999999+99999+99999999999ADDGP10060000001000000001000000001000GR100600000900009
0054701625999992000120719009+68133-151733NSRDB+065799999V020999999999999999999999999999+99999+99999999999ADDGP10060000001000000001000000001000GR100600000900009
0054701625999992000120906009+68133-151733NSRDB+065799999V020999999999999999999999999999+99999+99999999999ADDGP10060000001000000001000000001000GR100600000900009
0140701625999992000121306354+68130-151720FM-15+0643PAKP V0202101N003612200019N0160931N1-01201-01601999999ADDGF100991999999999999999999MA1102301999999MW1001REMMET062PAKP 130635Z AUTO 21007KT 10SM CLR M12/M16 A3021 RMK AO1 TSNO;EQDQ01+000000PRSWM2
0054701625999992000121400009+68133-151733NSRDB+065799999V020999999999999999999999999999+99999+99999999999ADDGP10060000001000000001000000001000GR100600000900009
0213701625999992000121704354+68130-151720FM-15+0643PAKP V0200301N006210018019N0160931N1-02201-02701999999ADDGD12991+0003019GD23991+0018019GD34991+0030019GF108991999999999999999999MA1101221999999MW1001OC100771REMMET082PAKP 170435Z AUTO 03012G15KT 10SM FEW001 BKN006 OVC010 M22/M27 A2989 RMK AO1 TSNO;EQDQ01+000000PRSWM2
0054701625999992000121822009+68133-151733NSRDB+065799999V020999999999999999999999999999+99999+99999999999ADDGP10060000001000000001000000001000GR100600000900009
0140701625999992000121907354+68130-151720FM-15+0643PAKP V0200301N003112200019N0160931N1-02701-03101999999ADDGF100991999999999999999999MA1100441999999MW1001REMMET062PAKP 190735Z AUTO 03006KT 10SM CLR M27/M31 A2966 RMK AO1 TSNO;EQDQ01+000000PRSWM2
0054701625999992000122212009+68133-151733NSRDB+065799999V020999999999999999999999999999+99999+99999999999ADDGP10060000001000000001000000001000GR100600000900009
0136701625999992000122601354+68130-151720FM-16+0643PAKP V0209999C000012200019N0080461N1-03201+99999999999ADDGF100991999999999999999999MA1100441999999MW1001REMMET058PAKP 260135Z AUTO 00000KT 5SM CLR M32/ A2966 RMK AO1 TSNO;EQDQ01+000000PRSWM2
0054701625999992000122817009+68133-151733NSRDB+065799999V020999999999999999999999999999+99999+99999999999ADDGP10060000001000000001000000001000GR100600000900009
0054701625999992000122902009+68133-151733NSRDB+065799999V020999999999999999999999999999+99999+99999999999ADDGP10060000001000000001000000001000GR100600000900009
0155701625999992000122918354+68130-151720FM-16+0643PAKP V0209999C000012200019N0160931N1-02901+99999999999ADDGD12991+0240019GF102991999999999999999999MA1100911999999MW1001REMMET062PAKP 291835Z AUTO 00000KT 10SM FEW085 M29/ A2980 RMK AO1 TSNO;EQDQ01+000000PRSWM2
0159701625999992000123011354+68130-151720FM-15+0643PAKP V0200401N008710003019N0012071N1-02701-03101999999ADDGD14991+0003019GF108991999999999999999999MA1100341999999MW1001REMMET066PAKP 301135Z AUTO 04017KT 3/4SM OVC001 M27/M31 A2963 RMK AO1 TSNO;EQDQ01+000000PRSWM2
0172701718999992000010117003+67100-157850FM-15+0088PAFM V0200201N002612200019N0160931N1-03701-04401999999ADDGF100991999999999999999999GP10060000001000000001000000001000GR100600000900009MA1103321999999MW1001REMMET062PAFM 011655Z AUTO 02005KT 10SM CLR M37/M44 A3051 RMK AO1 TSNO;
0248701718999992000010418003+67100-157850FM-15+0088PAFM V0200301N002112200019N0160931N1+99999+99999999999ADDGF100991999999999999999999GP10060000001000000001000000001000GR100600000900009KA1999M-04101KA2999N-04301MA1101491999999MD1710031+9999MW1001REMMET079PAFM 041755Z AUTO 03004KT 10SM CLR M42/11 A2997 RMK AO1 11410 21430 57003 TSNO;EQDQ01+000000PRSWM2
0054701718999992000010517009+67100-157850NSRDB+008899999V020999999999999999999999999999+99999+99999999999ADDGP10060000001000000001000000001000GR100600000900009
0191701718999992000010813003+67100-157850FM-15+0088PAFM V0209999C000012200019N0160931N1-03201+99999999999ADDGF100991999999999999999999GP10060000001000000001000000001000GR100600000900009MA1100271999999MW1001REMMET062PAFM 081255Z AUTO 00000KT 10SM CLR M32/M96 A2961 RMK AO1 TSNO;EQDQ01+000000PRSWM2
0273701718999992000011200003+67100-157850FM-15+0088PAFM V0200301N001512200019N0160931N1-03601+99999999999ADDGF100991999999999999999999GP10060000601025016701028000301025GQ100600890919189GR100600024914149KA1999M-03201KA2999N-03701MA1103351999999MD1210101+9999MW1001REMMET087PAFM 112355Z AUTO 03003KT 10SM CLR M36/ A3052 RMK AO1 11320 21370 413101370 52010 TSNO;EQDQ01+000000PRSWM2
0258701718999992000012121003+67100-157850FM-15+0088PAFM V0201401N008210003019N0008051N1-00701-00801999999ADDGD14991+0003019GF108991999999999999999999GP10060000001025000001028000001025GQ100600893915229GR100609999907659MA1099901999999MD1710241+9999MW1001OC101231REMMET075PAFM 212055Z AUTO 14016G24KT 1/2SM OVC001 M07/M08 A2950 RMK AO1 57024 TSNO;EQDQ01+000000PRSWM2
0158701718999992000012804554+67100-157850FM-15+0088PAFM V0200701N002112200019N0160931N1-00901-01301999999ADDGD12991+0105019GF104991999999999999999999MA1097661999999MW1001REMMET065PAFM 280455Z AUTO 07004KT 10SM SCT035 M09/M13 A2884 RMK AO1 TSNO;EQDQ01+000000PRSWM2
0054701718999992000013005009+67100-157850NSRDB+008899999V020999999999999999999999999999+99999+99999999999ADDGP10060000001000000001000000001000GR100600000900009
0054701718999992000020114009+67100-157850NSRDB+008899999V020999999999999999999999999999+99999+99999999999ADDGP10060000001000000001000000001000GR100600000900009
0158701718999992000020500554+67100-157850FM-15+0088PAFM V0209999C000010057019N0160931N1-00601-00801999999ADDGD13991+0057019GF107991999999999999999999MA1101831999999MW1001REMMET065PAFM 050055Z AUTO 00000KT 10SM BKN019 M06/M08 A3007 RMK AO1 TSNO;EQDQ01+000000PRSWM2
0140701718999992000020501554+67100-157850FM-15+0088PAFM V0202001N002612200019N0160931N1-00801-01001999999ADDGF100991999999999999999999MA1101901999999MW1001REMMET062PAFM 050155Z AUTO 20005KT 10SM CLR M08/M10 A3009 RMK AO1 TSNO;EQDQ01+000000PRSWM2
0071701718999992000020601009+67100-157850NSRDB+008899999V020999999999999999999999999999+99999+99999999999ADDGP10060004501025017501028003001025GQ100600851920529GR100600121914079
0251701718999992000020609003+67100-157850FM-15+0088PAFM V0209999C000010210019N0160931N1-00501-01001999999ADDGD13991+0210019GD24991+0270019GF108991999999999999999999GP10060000001000000001000000001000GR100600000900009MA1101191999999MD1210071+9999MW1001REMMET078PAFM 060855Z AUTO 00000KT 10SM BKN070 OVC090 M05/M10 A2988 RMK AO1 52007 TSNO;EQDQ01+000000PRSWM2
0140701718999992000020807554+67100-157850FM-15+0088PAFM V0200301N004112200019N0160931N1-01001-01401999999ADDGF100991999999999999999999MA1101861999999MW1001REMMET062PAFM 080755Z AUTO 03008KT 10SM CLR M10/M14 A3008 RMK AO1 TSNO;EQDQ01+000000PRSWM2
0173701718999992000021114554+67100-157850FM-15+0088PAFM V0201301N004110105019N0160931N1-00401-00801999999ADDGD14991+0105019GF108991999999999999999999MA1101191999999MW1001REMMET080PAFM 111455Z AUTO 13008KT 090V160 10SM OVC035 M04/M08 A2988 RMK AO1 665535 TSNO;EQDQ01+000000PRSWM2
0054701718999992000021305009+67100-157850NSRDB+008899999V020999999999999999999999999999+99999+99999999999ADDGP10060000001000000001000000001000GR100600000900009
0228701718999992000021503003+67100-157850FM-15+0088PAFM V0200401N004612200019N0160931N1-00801-01201999999ADDGF100991999999999999999999GP10060000701025014001028000401025GQ100600886923179GR100600023909479MA1101051999999MD1710101+9999MW1001REMMET068PAFM 150255Z AUTO 04009KT 10SM CLR M08/M12 A2984 RMK AO1 57010 TSNO;EQDQ01+000000PRSWM2
0226701718999992000021622003+67100-157850FM-15+0088PAFM V0200301N002610123019N0160931N1-00901-01301999999ADDGD14991+0123019GF108991999999999999999999GP10060005401025000001028005401025GQ100600806916139GR100600229914019MA1101321999999MW1001REMMET065PAFM 162155Z AUTO 03005KT 10SM OVC041 M09/M13 A2992 RMK AO1 TSNO;EQDQ01+000000PRSWM2
0054701718999992000021713009+67100-157850NSRDB+008899999V020999999999999999999999999999+99999+99999999999ADDGP10060000001000000001000000001000GR100600000900009
0179701718999992000021714154+67100-157850FM-15+0088PAFM V0200301N002110039019N0144841N1-00701-00901999999ADDGD12991+0003019GD24991+0039019GF108991999999999999999999MA1100981999999MW1001REMMET071PAFM 171415Z AUTO 03004KT 9SM FEW001 OVC013 M07/M09 A2982 RMK AO1 TSNO;EQDQ01+000000PRSWM2
0054701718999992000021913009+67100-157850NSRDB+008899999V020999999999999999999999999999+99999+99999999999ADDGP10060000001000000001000000001000GR100600000900009
0158701718999992000030209554+67100-157850FM-15+0088PAFM V0201401N003112200019N0160931N1-00601-01301999999ADDGD12991+0300019GF102991999999999999999999MA1099831999999MW1001REMMET065PAFM 020955Z AUTO 14006KT 10SM FEW100 M06/M13 A2948 RMK AO1 TSNO;EQDQ01+000000PRSWM2
0054701718999992000030508009+67100-157850NSRDB+008899999V020999999999999999999999999999+99999+99999999999ADDGP10060000001000000001000000001000GR100600000900009
0198701718999992000031405554+67100-157850FM-15+0088PAFM V0200201N004112200019N0160931N1-01101-02301999999ADDGF100991999999999999999999KA1999M-00801KA2999N-01201MA1101491999999MD1710071+9999MW1001REMMET080PAFM 140555Z AUTO 02008KT 10SM CLR M11/M23 A2997 RMK AO1 11080 21120 57007 TSNO;EQDQ01+000000PRSWM2
0140701718999992000031521554+67100-157850FM-15+0088PAFM V0200401N005712200019N0160931N1-00901-01901999999ADDGF100991999999999999999999MA1100371999999MW1001REMMET062PAFM 152155Z AUTO 04011KT 10SM CLR M09/M19 A2964 RMK AO1 TSNO;EQDQ01+000000PRSWM2
0158701718999992000032622554+67100-157850FM-15+0088PAFM V0209999C000012200019N0160931N1-01701-02301999999ADDGD12991+0150019GF104991999999999999999999MA1099901999999MW1001REMMET065PAFM 262255Z AUTO 00000KT 10SM SCT055 M17/M23 A2950 RMK AO1 TSNO;EQDQ01+000000PRSWM2
0208701718999992000032922003+67100-157850FM-15+0088PAFM V0200501N006212200019N0160931N1-01101-02201999999ADDGF100991999999999999999999GP10060043901025085601028006901025GQ100600644916179GR100600592913719MA1099861999999MW1001REMMET062PAFM 292155Z AUTO 05012KT 10SM CLR M11/M22 A2949 RMK AO1 TSNO;EQDQ01+000000PRSWM2
0249701718999992000040712003+67100-157850FM-15+0088PAFM V0200301N004112200019N0160931N1-01401-02901999999ADDGF100991999999999999999999GP10060000001000000001000000001000GR100600000900009KA1999M-01101KA2999N-01401MA1102571999999MD1210101+9999MW1001REMMET080PAFM 071155Z AUTO 03008KT 10SM CLR M14/M29 A3029 RMK AO1 11110 21140 52010 TSNO;EQDQ01+000000PRSWM2
0071701718999992000041100009+67100-157850NSRDB+008899999V020999999999999999999999999999+99999+99999999999ADDGP10060048801025065801028015501025GQ100600596919659GR100600689913619
0246701718999992000041821003+67100-157850FM-15+0088PAFM V0201201N003610099019N0160931N1-00701-01601999999ADDGD14991+0099019GF108991999999999999999999GP10060018001025000001028018001025GQ100600595914519GR100600688913559MA1099861999999MD1710141+9999MW1001REMMET071PAFM 182055Z AUTO 12007KT 10SM OVC033 M07/M16 A2949 RMK AO1 57014 TSNO;EQDQ01+000000PRSWM2
0356701718999992000042000003+67100-157850FM-15+0088PAFM V0200701N006210081019N0144841N1-00801-01401999999ADDGD12991+0060019GD23991+0081019GD34991+0240019GF108991999999999999999999GP10060020601025000001028020601025GQ100600565919769GR100600747913549KA1999M-00801KA2999N-01101MA1099631999999MD1210071+9999MW1001OC100871REMMET117PAFM 192355Z AUTO 07012G17KT 030V090 9SM SCT020 BKN027 OVC085 M08/M14 A2942 RMK AO1 11080 21110 410401120 52007 TSNO;EQDQ01+000000PRSWM2
0277701718999992000042106003+67100-157850FM-15+0088PAFM V0200401N009812200019N0160931N1-00601-01301999999ADDGF100991999999999999999999GP10060006101025038701028002301025GQ100600845928849GR100600129913539KA1999M-00301KA2999N-00601MA1099051999999MD1710101+9999MW1001OC101231REMMET083PAFM 210555Z AUTO 04019G24KT 10SM CLR M06/M13 A2925 RMK AO1 11030 21060 57010 TSNO;EQDQ01+000000PRSWM2
0191701718999992000042214003+67100-157850FM-15+0088PAFM V0209999C000012200019N0160931N1-01401-01901999999ADDGF100991999999999999999999GP10060000001000000001000000001000GR100600000900009MA1099901999999MW1001REMMET062PAFM 221355Z AUTO 00000KT 10SM CLR M14/M19 A2950 RMK AO1 TSNO;EQDQ01+000000PRSWM2
0166701718999992000042720003+67100-157850FM-15+0088PAFM V02099999999992200019N9999999N1+99999+99999999999ADDGP10060050101025082901028009301025GQ100600605912849GR100600664913489MW1001REMMET061PAFM 27195Z AUTO 25003KT 10SM CLR M11/M17 A3015 RMK AO1 TSNO;EQDQ01+000000PRSWM2
0160701718999992000043020554+67100-157850FM-15+0088PAFM V0201601N002612200019N0160931N1-00401-01101999999ADDGF100991999999999999999999MA1100071999999MD1710031+9999MW1001REMMET068PAFM 302055Z AUTO 16005KT 10SM CLR M04/M11 A2955 RMK AO1 57003 TSNO;EQDQ01+000000PRSWM2
0229701718999992000050309003+67100-157850FM-15+0088PAFM V0209999C000010330019N0160931N1-01101-01301999999ADDGD14991+0330019GF108991999999999999999999GP10060000001000000001000000001000GR100600000900009MA1101421999999MD1710031+9999MW1001REMMET071PAFM 030855Z AUTO 00000KT 10SM OVC110 M11/M13 A2995 RMK AO1 57003 TSNO;EQDQ01+000000PRSWM2
0071701718999992000050818009+67100-157850NSRDB+008899999V020999999999999999999999999999+99999+99999999999ADDGP10060030301025052601028010701025GQ100600680909749GR100600501913419
0157701718999992000051206554+67100-157850FM-15+0088PAFM V0200201N005110138019N0160931N1+00201-00601999999ADDGD13991+0138019GF107991999999999999999999MA1103081999999MW1001REMMET064PAFM 120655Z AUTO 02010KT 10SM BKN046 02/M06 A3044 RMK AO1 TSNO;EQDQ01+000000PRSWM2
0071701718999992000052204009+67100-157850NSRDB+008899999V020999999999999999999999999999+99999+99999999999ADDGP10060036801028075201031005701028GQ100600656926499GR100600551913339
0245701718999992000052421003+67100-157850FM-15+0088PAFM V0202401N003110057019N0160931N1+00101-00301999999ADDGD14991+0057019GF108991999999999999999999GP10060020101025000001028020101025GQ100600499914309GR100600858913319MA1102241999999MD1210101+9999MW1001REMMET070PAFM 242055Z AUTO 24006KT 10SM OVC019 01/M03 A3019 RMK AO1 52010 TSNO;EQDQ01+000000PRSWM2
0283701718999992000052500003+67100-157850FM-15+0088PAFM V0202101N004612200019N0160931N1+00301-00701999999ADDGF100991999999999999999999GP10060069701025087801028010101025GQ100600472919989GR100600904913319KA1999M+00301KA2999N-00101MA1102341999999MD1210101+9999MW1001REMMET097PAFM 242355Z AUTO 21009KT 190V250 10SM CLR 03/M07 A3022 RMK AO1 10030 21010 400701050 52010 TSNO;EQDQ01+000000PRSWM2
0225701718999992000052923003+67100-157850FM-15+0088PAFM V0201401N002110066019N0160931N1+00601-00101999999ADDGD14991+0066019GF108991999999999999999999GP10060021801025000001028021801025GQ100600454918049GR100600933913299MA1102541999999MW1001REMMET064PAFM 292255Z AUTO 14004KT 10SM OVC022 06/M01 A3028 RMK AO1 TSNO;EQDQ01+000000PRSWM2
0071701718999992000060516009+67100-157850NSRDB+008899999V020999999999999999999999999999+99999+99999999999ADDGP10060020901025063001028004301025GQ100600748906759GR100600348913269
0288701718999992000060703003+67100-157850FM-15+0088PAFM V0203001N003110270019N0160931N1+01601+00701999999ADDGD12991+0072019GD22991+0210019GD33991+0270019GF107991999999999999999999GP10060018501025004801028015901025GQ100600576925109GR100600711913269MA1100141999999MD1710141+9999MW1001REMMET083PAFM 070255Z AUTO 30006KT 10SM FEW024 SCT075 BKN095 16/07 A2957 RMK AO1 57014 TSNO;EQDQ01+000000PRSWM2
0071701718999992000061100009+67100-157850NSRDB+008899999V020999999999999999999999999999+99999+99999999999ADDGP10060060401025051301028024201025GQ100600450919939GR100600936913259
0263701718999992000061211003+67100-157850FM-15+0088PAFM V0203501N001510240019N0160931N1+01301+01101999999ADDAA101000391GD12991+0210019GD23991+0240019GF107991999999999999999999GP10060000201025000601028000201025GQ100600892918879GR100600018913249MA1100641999999MW1001REMMET076PAFM 121055Z AUTO 35003KT 10SM SCT070 BKN085 13/11 A2972 RMK AO1 P0001 TSNO;EQDQ01+000000PRSWM2
0243701718999992000061915003+67100-157850FM-15+0088PAFM V0200201N002112200019N0144841N1+01101+00201999999ADDGD12991+0360019GF104991999999999999999999GP10060010301025025401028005601025GQ100600793905349GR100600246913239MA1100071999999MD1710031+9999MW1001REMMET068PAFM 191455Z AUTO 02004KT 9SM SCT120 11/02 A2955 RMK AO1 57003 TSNO;EQDQ01+000000PRSWM2
0246701718999992000062222003+67100-157850FM-15+0088PAFM V0201901N004612200019N0160931N1+01801+00601999999ADDGD12991+0141019GD22991+0150019GF102991999999999999999999GP10060065001025077101028010301025GQ100600449915929GR100600937913229MA1102071999999MW1001REMMET070PAFM 222155Z AUTO 19009KT 10SM FEW047 FEW055 18/06 A3014 RMK AO1 TSNO;EQDQ01+000000PRSWM2
0138701718999992000062413554+67100-157850FM-15+0088PAFM V0200501N001512200019N0160931N1+01101+00101999999ADDGF100991999999999999999999MA1101931999999MW1001REMMET060PAFM 241355Z AUTO 05003KT 10SM CLR 11/01 A3010 RMK AO1 TSNO;EQDQ01+000000PRSWM2
0282701718999992000062506003+67100-157850FM-15+0088PAFM V0200101N002112200019N0160931N1+01701+00801999999ADDGD12991+0300019GF104991999999999999999999GP10060014001025013701028010101025GQ100600737929199GR100600371913229KA1999M+02501KA2999N+01701MA1101561999999MD1710071+9999MW1001REMMET081PAFM 250555Z AUTO 01004KT 10SM SCT100 17/08 A2999 RMK AO1 10250 20170 57007 TSNO;EQDQ01+000000PRSWM2
0224701718999992000062513003+67100-157850FM-15+0088PAFM V0209999C000012200019N0160931N1+01401+00801999999ADDGD12991+0270019GF104991999999999999999999GP10060002301025003301028002101025GQ100600867902649GR100600076913229MA1101561999999MW1001REMMET063PAFM 251255Z AUTO 00000KT 10SM SCT090 14/08 A2999 RMK AO1 TSNO;EQDQ01+000000PRSWM2
0267701718999992000070222003+67100-157850FM-15+0088PAFM V0202201N002110012019N0080461N1+01001+00801999999ADDGD13991+0012019GD23991+0027019GD34991+0066019GF108991999999999999999999GP10060015101025000001028015101025GQ100600454915869GR100600928913219MA1101121999999MW1001REMMET076PAFM 022155Z AUTO 22004KT 5SM BKN004 BKN009 OVC022 10/08 A2986 RMK AO1 TSNO;EQDQ01+000000PRSWM2
0158701718999992000070608554+67100-157850FM-15+0088PAFM V0209999C000012200019N0160931N1+01101+00401999999ADDGF100991999999999999999999MA1101151999999MD1210031+9999MW1001REMMET066PAFM 060855Z AUTO 00000KT 10SM CLR 11/04 A2987 RMK AO1 52003 TSNO;EQDQ01+000000PRSWM2
0205701718999992000070716003+67100-157850FM-15+0088PAFM V0200401N004112200019N0144841N1+01301+00701999999ADDGF100991999999999999999999GP10060017501025043601028006601025GQ100600754906619GR100600332913219MA1101491999999MW1001REMMET059PAFM 071555Z AUTO 04008KT 9SM CLR 13/07 A2997 RMK AO1 TSNO;EQDQ01+000000PRSWM2
0071701718999992000071005009+67100-157850NSRDB+008899999V020999999999999999999999999999+99999+99999999999ADDGP10060030101025067601028005801025GQ100600689927759GR100600475913229
0265701718999992000071221003+67100-157850FM-15+0088PAFM V0201001N002110069019N0144841N1+01301+00801999999ADDGD13991+0069019GD24991+0090019GF108991999999999999999999GP10060019001025000001028019001025GQ100600495914009GR100600858913229MA1101661999999MD1410001+9999MW1001REMMET075PAFM 122055Z AUTO 10004KT 9SM BKN023 OVC030 13/08 A3002 RMK AO1 54000 TSNO;EQDQ01+000000PRSWM2
0216701718999992000072304554+67100-157850FM-15+0088PAFM V0209999C000010135019N0112651N1+01401+01101999999ADDAA101001591GD12991+0081019GD23991+0135019GD34991+0300019GF108991999999999999999999MA1100271999999MW1001REMMET082PAFM 230455Z AUTO 00000KT 7SM FEW027 BKN045 OVC100 14/11 A2961 RMK AO1 P0006 TSNO;EQDQ01+000000PRSWM2
0200701718999992000072410554+67100-157850FM-15+0088PAFM V0209999C000010138019N0160931N1+00701+00301999999ADDGD12991+0099019GD23991+0138019GD34991+0180019GF108991999999999999999999MA1100911999999MW1001REMMET077PAFM 241055Z AUTO 00000KT 10SM SCT033 BKN046 OVC065 07/03 A2980 RMK AO1 TSNO;EQDQ01+000000PRSWM2
0156701718999992000072418554+67100-157850FM-15+0088PAFM V0201701N002112200019N0160931N1+00801+00301999999ADDGD12991+0270019GF104991999999999999999999MA1101021999999MW1001REMMET063PAFM 241855Z AUTO 17004KT 10SM SCT095 08/03 A2983 RMK AO1 TSNO;EQDQ01+000000PRSWM2
0054701718999992000073011009+67100-157850NSRDB+008899999V020999999999999999999999999999+99999+99999999999ADDGP10060000001000000001000000001000GR100600000900009
0186701718999992000080120554+67100-157850FM-15+0088PAFM V0201201N006712200019N0144841N1+01301+00401999999ADDGD12991+0360019GF104991999999999999999999MA1101631999999MD1210101+9999MW1001OC101181REMMET071PAFM 012055Z AUTO 12013G23KT 9SM SCT120 13/04 A3001 RMK AO1 52010 TSNO;EQDQ01+000000PRSWM2
0071701718999992000080401009+67100-157850NSRDB+008899999V020999999999999999999999999999+99999+99999999999ADDGP10060018101025000001028018101025GQ100600531921429GR100600796913279
0071701718999992000080516009+67100-157850NSRDB+008899999V020999999999999999999999999999+99999+99999999999ADDGP10060002401025000001028002401025GQ100600808906819GR100600212913289
0194701718999992000081022554+67100-157850FM-15+0088PAFM V0202201N002610021019N0128741N1+01001+00801999999ADDAA101001391GD13991+0021019GD24991+0039019GF108991999999999999999999MA1101561999999MW1001REMMET075PAFM 102255Z AUTO 22005KT 8SM BKN007 OVC013 10/08 A2999 RMK AO1 P0005 TSNO;EQDQ01+000000PRSWM2
0156701718999992000081200554+67100-157850FM-15+0088PAFM V0209999C000010102019N0160931N1+00801+00301999999ADDGD13991+0102019GF107991999999999999999999MA1102371999999MW1001REMMET063PAFM 120055Z AUTO 00000KT 10SM BKN034 08/03 A3023 RMK AO1 TSNO;EQDQ01+000000PRSWM2
0223701718999992000082902003+67100-157850FM-15+0088PAFM V0201101N004610150019N0144841N1+01501+00601999999ADDGD14991+0150019GF108991999999999999999999GP10060013001025000001028013001025GQ100600650922969GR100600567913409MA1101491999999MW1001REMMET062PAFM 290155Z AUTO 11009KT 9SM OVC050 15/06 A2997 RMK AO1 TSNO;EQDQ01+000000PRSWM2
0229701718999992000083010003+67100-157850FM-15+0088PAFM V0201101N003110150019N0160931N1+00901+00501999999ADDGD13991+0150019GD24991+0180019GF108991999999999999999999GP10060000001000000001000000001000GR100600000900009MA1101021999999MW1001REMMET070PAFM 300955Z AUTO 11006KT 10SM BKN050 OVC060 09/05 A2983 RMK AO1 TSNO;EQDQ01+000000PRSWM2
0224701718999992000083022003+67100-157850FM-15+0088PAFM V0202001N002110150019N0160931N1+00901+00401999999ADDGD14991+0150019GF108991999999999999999999GP10060015001025000001028015001025GQ100600594916229GR100600682913419MA1102001999999MW1001REMMET063PAFM 302155Z AUTO 20004KT 10SM OVC050 09/04 A3012 RMK AO1 TSNO;EQDQ01+000000PRSWM2
0054701718999992000083111009+67100-157850NSRDB+008899999V020999999999999999999999999999+99999+99999999999ADDGP10060000001000000001000000001000GR100600000900009
0343701718999992000090212003+67100-157850FM-15+0088PAFM V0202001N002610045019N0160931N1+00601+00401999999ADDAA106002591AA224006691GD13991+0045019GD23991+0066019GD34991+0126019GF108991999999999999999999GP10060000001000000001000000001000GR100600000900009KA1999M+00801KA2999N+00601MA1101461999999MD1210171+9999MW1001REMMET107PAFM 021155Z AUTO 20005KT 10SM BKN015 BKN022 OVC042 06/04 A2996 RMK AO1 60010 70026 10080 20060 52017 TSNO;EQDQ01+000000PRSWM2
0245701718999992000090313003+67100-157850FM-15+0088PAFM V0201401N002610069019N0112651N1+00601+00401999999ADDAA101000391GD13991+0069019GD24991+0087019GF108991999999999999999999GP10060000001000000001000000001000GR100600000900009MA1101151999999MW1001REMMET075PAFM 031255Z AUTO 14005KT 7SM BKN023 OVC029 06/04 A2987 RMK AO1 P0001 TSNO;EQDQ01+000000PRSWM2
0206701718999992000090922003+67100-157850FM-15+0088PAFM V0200701N001512200019N0160931N1+00501+00101999999ADDGF100991999999999999999999GP10060044501025086901028005001025GQ100600630916369GR100600612913489MA1100641999999MW1001REMMET060PAFM 092155Z AUTO 07003KT 10SM CLR 05/01 A2972 RMK AO1 TSNO;EQDQ01+000000PRSWM2
0285701718999992000091202003+67100-157850FM-15+0088PAFM V0209999C000010033019N0160931N1+00501+00201999999ADDAA101000591GD13991+0033019GD23991+0051019GD34991+0120019GF108991999999999999999999GP10060008801025000001028008801025GQ100600703922929GR100600456913499MA1099731999999MW1001REMMET083PAFM 120155Z AUTO 00000KT 10SM BKN011 BKN017 OVC040 05/02 A2945 RMK AO1 P0002 TSNO;EQDQ01+000000PRSWM2
0247701718999992000091520003+67100-157850FM-15+0088PAFM V0200301N002110027019N0160931N1+00101-00101999999ADDGD12991+0003019GD24991+0027019GF108991999999999999999999GP10060008601025000001028008601025GQ100600712913289GR100600436913529MA1101491999999MW1001REMMET071PAFM 151955Z AUTO 03004KT 10SM FEW001 OVC009 01/M01 A2997 RMK AO1 TSNO;EQDQ01+000000PRSWM2
0228701718999992000100303003+67100-157850FM-15+0088PAFM V0209999C000012200019N0160931N1-00101-01001999999ADDGF100991999999999999999999GP10060008301025050501028002401025GQ100600833924289GR100600159913659MA1102271999999MD1710071+9999MW1001REMMET068PAFM 030255Z AUTO 00000KT 10SM CLR M01/M10 A3020 RMK AO1 57007 TSNO;EQDQ01+000000PRSWM2
0207701718999992000100323003+67100-157850FM-15+0088PAFM V0200401N002612200019N0144841N1-00201-00901999999ADDGF100991999999999999999999GP10060028801025072801028005701025GQ100600715918269GR100600434913669MA1102241999999MW1001REMMET061PAFM 032255Z AUTO 04005KT 9SM CLR M02/M09 A3019 RMK AO1 TSNO;EQDQ01+000000PRSWM2
0054701718999992000100707009+67100-157850NSRDB+008899999V020999999999999999999999999999+99999+99999999999ADDGP10060000001000000001000000001000GR100600000900009
0071701718999992000100802009+67100-157850NSRDB+008899999V020999999999999999999999999999+99999+99999999999ADDGP10060007201028000101031007201028GQ100600805922839GR100600227913699
0209701718999992000101008003+67100-157850FM-15+0088PAFM V0200301N002610048019N0160931N1-00401-00701999999ADDGD14991+0048019GF108991999999999999999999GP10060000001000000001000000001000GR100600000900009MA1100981999999MW1001REMMET065PAFM 100755Z AUTO 03005KT 10SM OVC016 M04/M07 A2982 RMK AO1 TSNO;EQDQ01+000000PRSWM2
