0271074710999992000101911004+45070+003770SY-MT+0833LFHP V0200801N002110120019N0500001N1+01211+00951999999ADDAA199000091GA1071+012009999GF108991071051012501999999MA1102201092581MD1110011+9999ME1315449MW1001REMSYN076AAXX  19114 07471 32684 80804 10121 20095 39258 48544 51001 875// 333 87640;MET045LFHP 191100Z 08003KT 9999 BKN040 12/10 Q1022;EQDQ01+000000PRSWM2Q02  00002PRCP99
0140074710999992000102200004+45070+003770FM-12+0833LFHP V0200801N001019999999N9999999N1+00991+00731999999ADDAA199000091MA1999999093091MD1310051+9999ME1315839REMSYN060AAXX  22004 07471 36/// /0802 10099 20073 39309 48583 53005;EQDQ01  00002PRCP99
0121074710999992000110403004+45070+003770FM-12+0833LFHP V0202101N001019999999N9999999N1+00301+00091999999ADDAA199000021MA1999999091491MD1010051+9999ME1314269REMSYN060AAXX  04034 07471 36/// /2102 10030 20009 39149 48426 50005;
0301074710999992000112415004+45070+003770SY-MT+0833LFHP V0203201N003110060019N0400001N1+00471-00011999999ADDAA199000091GA1021+004509999GA2071+006009999GF107991071081004501001001MA1101081091551MD1610151+9999ME1314349MW1001REMSYN082AAXX  24154 07471 32482 73206 10047 21001 39155 48434 56015 87800 333 81815 87620;MET053LFHP 241500Z 32007KT 9999 FEW015 BKN020 05/M00 Q1011;EQDQ01+000000PRSWM2Q02  00002PRCP99
0336074710999992000112611004+45070+003770SY-MT+0833LFHP V0202701N00511009001CN0400001N1+00461+00201999999ADDAA101000291AY121999AY221999GA1021+005409999GA2021+007809999GF107991061081004501001011MA1101291091681MD1110341+9999ME1314469MW1251REMSYN094AAXX  26114 07471 21482 72710 10046 20020 39168 48446 51034 72522 86801 333 69925 83818 83626;MET060LFHP 261100Z 27009KT 250V320 9999 SCT018 SCT026 05/02 Q1013;EQDQ01+000000PRSWM2Q02    003PRSWM1
0354074710999992000112812004+45070+003770SY-MT+0833LFHP V0201601N005110750019N0300001N1+01311+00951999999ADDAA199000091AY141061AY211061GA1021+004809999GA2071+075009999GF199999011051004501001021MA1101901092251MD1810211+9999ME1315179MW1011REMSYN088AAXX  28124 07471 31480 61610 10131 20095 39225 48517 58021 70141 81502 333 81616 86075;MET052LFHP 281200Z 16010KT 9999 FEW016 BKN250 13/10 Q1019;EQDQ01+000062SCOTCVQ02+000000PRSWM2Q03  00002PRCP99Q04    003PRSWM1
0279074710999992000112905004+45070+003770SY-MT+0833LFHP V0201501N006210048019N0250001N1+00981+00741999999ADDAA199000091GA1071+004809999GF107991071051004501999999MA1101491091921MD1610101+9999ME1314809MW1001REMSYN076AAXX  29054 07471 32475 71512 10098 20074 39192 48480 56010 875// 333 87616;MET053LFHP 290500Z 16012KT 120V190 9999 BKN016 10/07 Q1015;EQDQ01+000000PRSWM2Q02  00002PRCP99
0294074710999992000112915004+45070+003770SY-MT+0833LFHP V0201801N008710069019N0280001N1+01061+00771999999ADDAA199000091GA1071+006909999GF107991071051008001999999MA1101291091771MD1510061+9999ME1314689MW1001OC101541REMSYN088AAXX  29154 07471 32578 71817 10106 20077 39177 48468 55006 875// 333 87623 91031 91133;MET048LFHP 291500Z 18017G30KT 9999 BKN023 11/08 Q1013;EQDQ01+000000PRSWM2Q02  00002PRCP99
0294074710999992000120113004+45070+003770SY-MT+0833LFHP V0201501N009810069019N0300001N1+01011+00611999999ADDAA199000091GA1071+006909999GF107991071051008001999999MA1101591091971MD1710091+9999ME1314849MW1001OC101491REMSYN088AAXX  01134 07471 32580 71519 10101 20061 39197 48484 57009 875// 333 87623 91031 91131;MET048LFHP 011300Z 15018G29KT 9999 BKN023 10/06 Q1016;EQDQ01+000000PRSWM2Q02  00002PRCP99
0140074710999992000120204004+45070+003770FM-12+0833LFHP V0201601N004119999999N9999999N1+00891+00651999999ADDAA199000091MA1999999092121MD1810091+9999ME1314959REMSYN060AAXX  02044 07471 36/// /1608 10089 20065 39212 48495 58009;EQDQ01  00002PRCP99
0314074710999992000120614004+45070+003770SY-MT+0833LFHP V0201501N006210300019N0300001N1+01051+00701999999ADDAA199000021GA1021+007809999GA2071+030009999GF199999041051008001071001MA1101491091911MD1310061+9999ME1314809MW1001REMSYN088AAXX  06144 07471 32580 61512 10105 20070 39191 48480 53006 84570 333 84626 85360 91129;MET060LFHP 061400Z 15012KT 120V190 9999 SCT026 BKN100 10/07 Q1015;EQDQ01+000062SCOTCVQ02+000000PRSWM2
0121074710999992000121720004+45070+003770FM-12+0833LFHP V0202901N001019999999N9999999N1-00071-00171999999ADDAA199000021MA1999999092061MD1310061+9999ME1314669REMSYN060AAXX  17204 07471 36/// /2902 11007 21017 39206 48466 53006;
0121074710999992000121723004+45070+003770FM-12+0833LFHP V0203201N001019999999N9999999N1+00001-00071999999ADDAA199000021MA1999999092091MD1110031+9999ME1314719REMSYN060AAXX  17234 07471 36/// /3202 10000 21007 39209 48471 51003;
0140074710999992000121921004+45070+003770FM-12+0833LFHP V0202301N001019999999N9999999N1+00091-00021999999ADDAA199000091MA1999999091991MD1810071+9999ME1314649REMSYN060AAXX  19214 07471 36/// /2302 10009 21002 39199 48464 58007;EQDQ01  00002PRCP99
0271074710999992000122112004+45070+003770SY-MT+0833LFHP V0201601N004110075019N0250001N1+00801+00441999999ADDAA199000091GA1071+007509999GF107991071051008001999999MA1101491091951MD1810041+9999ME1314789MW1001REMSYN076AAXX  21124 07471 32575 71608 10080 20044 39195 48478 58004 875// 333 87625;MET045LFHP 211200Z 16008KT 9999 BKN025 08/04 Q1015;EQDQ01+000000PRSWM2Q02  00002PRCP99
0279074710999992000122213004+45070+003770SY-MT+0833LFHP V0201601N003110069019N0250001N1+00761+00461999999ADDAA199000091GA1071+006909999GF107991071051008001999999MA1101191091631MD1810151+9999ME1314489MW1001REMSYN076AAXX  22134 07471 32575 71606 10076 20046 39163 48448 58015 875// 333 87623;MET053LFHP 221300Z 16007KT 110V200 9999 BKN023 08/05 Q1012;EQDQ01+000000PRSWM2Q02  00002PRCP99
0140074710999992000122222004+45070+003770FM-12+0833LFHP V0201601N005119999999N9999999N1+00581-00551999999ADDAA199000091MA1999999091651MD1110051+9999ME1314459REMSYN060AAXX  22224 07471 36/// /1610 10058 21055 39165 48445 51005;EQDQ01  00002PRCP99
0140074710999992000122822004+45070+003770FM-12+0833LFHP V0202001N001019999999N9999999N1-00151-00321999999ADDAA199000091MA1999999089941MD1610181+9999ME1312819REMSYN060AAXX  28224 07471 36/// /2002 11015 21032 38994 48281 56018;EQDQ01  00002PRCP99
0262074750999992000010216004+45530+004300SY-MT+0402LFMH V0200301N001010060019N0200001N1+00681+00391102961ADDAA106000091GA1071+006009999GF107991071051008001999999MA1102811098071MD1310041+9999MW1001REMSYN076AAXX  02164 07475 32570 70302 10068 20039 39807 40296 53004 875// 333 87620;MET045LFMH 021600Z 03004KT 9999 BKN020 07/05 Q1028;EQDQ01+000000PRSWM2Q02  00002PRCP06
0293074750999992000011616004+45530+004300SY-MT+040299999V0203401N00211003001MN0040001N1-00031-00221103161ADDAA199000091AY121999AY221999GA1081+003009999GF108991081061004501999999MA1102911098131MD1610011+9999MW1101REMSYN086    AAXX  16164 07475 31440 83404 11003 21022 39813 40316 56001 71022 886// 333 88710;MET050LFMH 161600Z 34004KT 4000 BR OVC010 M00/M02 Q1029;EQDQ01  00002PRCP99Q02    003PRSWM1
0131074750999992000013019004+45530+004300FM-12+0402LFMH V0201601N001019999999N9999999N1+00711+00531103131ADDAA199000091MA1999999098241MD1310181+9999REMSYN060AAXX  30194 07475 36/// /1602 10071 20053 39824 40313 53018;EQDQ01  00002PRCP99
0131074750999992000021302004+45530+004300FM-12+0402LFMH V0201401N001019999999N9999999N1+00181-00211103091ADDAA199000091MA1999999098101MD1810151+9999REMSYN060AAXX  13024 07475 36/// /1402 10018 21021 39810 40309 58015;EQDQ01  00002PRCP99
0112074750999992000021622004+45530+004300FM-12+0402LFMH V0209999C000019999999N9999999N1+00041-00031101571ADDAA199000021MA1999999096631MD1310211+9999REMSYN060AAXX  16224 07475 36/// /0000 10004 21003 39663 40157 53021;
0319074750999992000021911004+45530+004300SY-MT+0402LFMH V0203001N005110099019N0150001N1+00801+00201101651ADDAA101999929AY181999AY261999GA1021+005409999GA2071+009909999GF107991071081004501999999MA1101491096841MD1010101+9999MW1251REMSYN094AAXX  19114 07475 21465 73010 10080 20020 39684 40165 50010 72586 878// 333 69905 83818 86633;MET052LFMH 191100Z 30010KT 9999 SCT018 BKN033 08/02 Q1015;EQDQ01+000000PRSWM2Q02    003PRSWM1
0128074750999992000030200004+45530+004300FM-12+0402LFMH V0203601N001019999999N9999999N1+00171+00081102271ADDAA103000191MA1999999097321MD1110241+9999REMSYN076AAXX  02004 07475 /6/// /3602 10017 20008 39732 40227 51024 60021 333 69927;
0292074750999992000031413004+45530+004300SY-MT+0402LFMH V0203501N004112200019N0100001N1+01411+00601102611ADDAA199000091GA1021+012009999GF199999011011012501001001MA1102611097861MD1810171+9999MW1001REMSYN076AAXX  14134 07475 32660 13508 10141 20060 39786 40261 58017 81100 333 81840;MET059LFMH 141300Z 36006KT 310V030 9999 FEW040 14/05 Q1026 NOSIG;EQDQ01+000012SCOTCVQ02+000000PRSWM2Q03  00002PRCP99
0270074750999992000031613004+45530+004300SY-MT+0402LFMH V0203501N005110099019N0100001N1+00921+00141103111ADDAA199000091GA1071+009909999GF107991051051012501001011MA1103011098251MD1610151+9999MW1001REMSYN076AAXX  16134 07475 32660 73510 10092 20014 39825 40311 56015 85501 333 85633;MET053LFMH 161300Z 35009KT 310V020 9999 BKN033 09/01 Q1030;EQDQ01+000000PRSWM2Q02  00002PRCP99
0162074750999992000031715004+45530+004300FM-15+0402LFMH V0203501N007210120019N0112651N1+01101+00401999999ADDGA1021+009909999GA2071+012009999GF107991999999999999999999MA1102511999999MW1001REMMET052LFMH 171500Z 35014KT 9999 FEW033 BKN040 11/04 Q1025;EQDQ01+000000PRSWM2
0131074750999992000031920004+45530+004300FM-12+0402LFMH V0209999C000019999999N9999999N1+00591+00321102541ADDAA199000091MA1999999097661MD1710061+9999REMSYN060AAXX  19204 07475 36/// /0000 10059 20032 39766 40254 57006;EQDQ01  00002PRCP99
0131074750999992000032302004+45530+004300FM-12+0402LFMH V0202601N001019999999N9999999N1+00991-00151101571ADDAA199000091MA1999999096791MD1610131+9999REMSYN060AAXX  23024 07475 36/// /2602 10099 21015 39679 40157 56013;EQDQ01  00002PRCP99
0131074750999992000032304004+45530+004300FM-12+0402LFMH V0202101N003119999999N9999999N1+01081-00191101451ADDAA199000091MA1999999096691MD1810111+9999REMSYN060AAXX  23044 07475 36/// /2106 10108 21019 39669 40145 58011;EQDQ01  00002PRCP99
0195074750999992000032707004+45530+004300FM-12+0402LFMH V0201501N001010120019N0250001N1+00411+00261101001ADDAA199000091GA1011+006909089GF107991071081008001999999MA1999999096161MD1310011+9999REMSYN082AAXX  27074 07475 32575 71502 10041 20026 39616 40100 53001 878// 333 81823 86640;EQDQ01  00002PRCP99
0271074750999992000032711004+45530+004300SY-MT+0402LFMH V0203201N00311015001CN0500001N1+00841-00371100851ADDAA199000091GA1021+009909999GF105991051081012501001011MA1100711096081MD1810071+9999MW1001REMSYN076AAXX  27114 07475 32684 53206 10084 21037 39608 40085 58007 85801 333 83833;MET054LFMH 271100Z 32006KT 250V020 9999 SCT033 08/M04 Q1007;EQDQ01+000000PRSWM2Q02  00002PRCP99
0278074750999992000032905004+45530+004300SY-MT+0402LFMH V0203401N003110018019N0035001N1+00351+00281100661ADDAA101000491AY161999AY261999GA1071+001809999GF108991071071001501999999MA1100511095821MD1510041+9999MW1611REMSYN088AAXX  29054 07475 21235 83406 10035 20028 39582 40066 55004 76166 877// 333 69945 87706;MET049LFMH 290500Z 34005KT 3500 -RA BKN006 04/03 Q1005;EQDQ01    003PRSWM1
0131074750999992000040217004+45530+004300FM-12+0402LFMH V0201801N005119999999N9999999N1+01431+00251099521ADDAA199000091MA1999999094911MD1610271+9999REMSYN060AAXX  02174 07475 36/// /1810 10143 20025 39491 49952 56027;EQDQ01  00002PRCP99
0345074750999992000040414004+45530+004300SY-MT+0402LFMH V0201801N00821075001CN0300001N1+01231+00611099211ADDAA101000291AY181999AY261999GA1021+009909099GA2021+012009999GA3071+075009999GF107991051091012501001021MA1099191094591MD1310071+9999MW1251MW2811REMSYN100AAXX  04144 07475 21680 71816 10123 20061 39459 49921 53007 72586 85902 333 69925 82933 83840 87075;MET066LFMH 041400Z 18015KT 9999 SHRA FEW033CB SCT040 BKN250 12/07 Q0992;EQDQ01    003PRSWM1
0122074750999992000040602004+45530+004300FM-12+0402LFMH V0203501N003119999999N9999999N1+00391+00331101771ADDAA101000791MA1999999096891MD1110041+9999REMSYN070AAXX  06024 07475 26/// /3506 10039 20033 39689 40177 51004 333 69905;
0291074750999992000040604004+45530+004300SY-MT+0402LFMH V0203501N003110024019N0040001N1+00361+00241101801ADDAA101999929AY121999AY221999GA1071+002409999GF108991081061002501999999MA1101591096911MD1310021+9999MW1101REMSYN088AAXX  06044 07475 21340 83506 10036 20024 39691 40180 53002 71022 886// 333 69905 87708;MET062LFMH 060400Z 35006KT 310V020 4000 BR BKN008 04/02 Q1016 NOSIG;EQDQ01    003PRSWM1
0291074750999992000040913004+45530+004300SY-MT+0402LFMH V0201801N005110240019N0400001N1+01161+00261100711ADDAA199000091GA1021+012009999GA2071+024009999GF108991031051012501031999MA1100711096011MD1610131+9999MW1001REMSYN082AAXX  09134 07475 32682 81810 10116 20026 39601 40071 56013 8353/ 333 83640 87358;MET052LFMH 091300Z 18010KT 9999 SCT040 BKN080 12/03 Q1007;EQDQ01+000000PRSWM2Q02  00002PRCP99
0131074750999992000042301004+45530+004300FM-12+0402LFMH V0201601N002119999999N9999999N1+01321+00631101111ADDAA199000091MA1999999096421MD1810021+9999REMSYN060AAXX  23014 07475 36/// /1604 10132 20063 39642 40111 58002;EQDQ01  00002PRCP99
0166074750999992000042918004+45530+004300FM-12+0402LFMH V0201901N002119999999N9999999N1+01251+00861101671ADDAA103000591KA1999M+01631KA2999N+00761MA1999999096941MD1310131+9999REMSYN088AAXX  29184 07475 /6/// /1904 10125 20086 39694 40167 53013 69942 333 10163 20076 69947;
0225074750999992000050915004+45530+004300FM-15+0402LFMH V0202901N003610300019N0112651N1+02101+01401999999ADDGA1021+012009099GA2021+012909029GA3071+030009999GF107991999999999999999999MA1101391999999MW1171REMMET083LFMH 091500Z 29007KT 9999 TS FEW040CB SCT043TCU BKN100 21/14 Q1014 TEMPO 4000 TSSH;EQDQ01+000003PRSWM1Q02    003PRSWM1
0122074750999992000050923004+45530+004300FM-12+0402LFMH V0201001N002119999999N9999999N1+01351+01321101781ADDAA101002091MA1999999097071MD1110131+9999REMSYN070AAXX  09234 07475 26/// /1004 10135 20132 39707 40178 51013 333 60025;
0272074750999992000051216004+45530+004300SY-MT+0402LFMH V0200601N004112200019N0112651N1+02301+01201101691ADDAA199000091GA1021+010809029GA2021+010809999GF102991999999999999999999MA1101801097131MD1610101+9999MW1001REMSYN060AAXX  12164 07475 36/// /0608 10230 20120 39713 40169 56010;MET055LFMH 121600Z 07008KT 9999 FEW036TCU FEW036 22/12 Q1018;EQDQ01+000000PRSWM2Q02  00002PRCP99
0343074750999992000051313004+45530+004300SY-MT+0402LFMH V0200801N00211027001CN0100001N1+01511+01171102201ADDAA101003091AY191999AY291999GA1021+006609029GA2021+009009099GA3071+027009999GF108991051091008001081031MA1102201097491MD1310081+9999MW1951REMSYN100AAXX  13134 07475 21560 80804 10151 20117 39749 40220 53008 79599 85983 333 60035 83822 84930 85359;MET070LFMH 131300Z 08003KT 9999 -TSRA SCT022TCU SCT030CB BKN090 15/12 Q1022;EQDQ01    003PRSWM1
0112074750999992000051800004+45530+004300FM-12+0402LFMH V0201801N001019999999N0006001N1+01071+01021101671ADDAA199000021MA1999999096921MD1810121+9999REMSYN060AAXX  18004 07475 36/06 /1802 10107 20102 39692 40167 58012;
0284074750999992000052405004+45530+004300SY-MT+0402LFMH V0201701N001012200019N0250001N1+00881+00741102031ADDAA199000091GA1021+006909999GF199999011011008001001011MA1101901097221MD1310011+9999MW1001REMSYN076AAXX  24054 07475 32575 11702 10088 20074 39722 40203 53001 81101 333 81823;MET051LFMH 240500Z 00000KT 9999 FEW023 09/07 Q1019 NOSIG;EQDQ01+000012SCOTCVQ02+000000PRSWM2Q03  00002PRCP99
0162074750999992000052715004+45530+004300FM-15+0402LFMH V0203101N001512200019N0112651N1+01701+00701999999ADDGA1021+012609999GA2021+075009999GF104991999999999999999999MA1101691999999MW1001REMMET052LFMH 271500Z 31003KT 9999 SCT042 SCT250 17/07 Q1017;EQDQ01+000000PRSWM2
0131074750999992000053020004+45530+004300FM-12+0402LFMH V0202601N005119999999N9999999N1+01921+00761101631ADDAA199000091MA1999999097011MD1310061+9999REMSYN060AAXX  30204 07475 36/// /2610 10192 20076 39701 40163 53006;EQDQ01  00002PRCP99
0131074750999992000053123004+45530+004300FM-12+0402LFMH V0209999C000019999999N9999999N1+01511+01281102321ADDAA199000091MA1999999097611MD1110081+9999REMSYN060AAXX  31234 07475 36/// /0000 10151 20128 39761 40232 51008;EQDQ01  00002PRCP99
0299074750999992000060510004+45530+004300SY-MT+0402LFMH V0202301N00511036001CN0500001N1+02431+01131101401ADDAA199000091GA1021+013809999GA2021+030009999GF105991021081012501031001MA1101591096871MD1210061+9999MW1001REMSYN082AAXX  05104 07475 32684 52310 10243 20113 39687 40140 52006 82830 333 82846 84360;MET060LFMH 051000Z 25009KT 200V290 9999 FEW046 SCT100 24/10 Q1016;EQDQ01+000000PRSWM2Q02  00002PRCP99
0131074750999992000060520004+45530+004300FM-12+0402LFMH V0200101N006219999999N9999999N1+01481+01141101901ADDAA199000091MA1999999097201MD1310201+9999REMSYN060AAXX  05204 07475 36/// /0112 10148 20114 39720 40190 53020;EQDQ01  00002PRCP99
0159074750999992000061012004+45530+004300FM-15+0402LFMH V0203401N002610039019N0112651N1+01801+01501999999ADDGA1071+003909999GF107991999999999999999999MA1101491999999MW1001REMMET065LFMH 101200Z 34005KT 9999 BKN013 18/15 Q1015 BECMG BKN018 BKN100;EQDQ01+000000PRSWM2
0170074750999992000062309004+45530+004300FM-15+0402LFMH V0203601N002110120019N0112651N1+01701+00701999999ADDGA1021+009909999GA2071+012009999GF107991999999999999999999MA1102401999999MW1001REMMET060LFMH 230900Z 36004KT 310V040 9999 FEW033 BKN040 17/07 Q1024;EQDQ01+000000PRSWM2
0131074750999992000062701004+45530+004300FM-12+0402LFMH V0201301N001019999999N9999999N1+00911+00651102321ADDAA199000091MA1999999097501MD1310071+9999REMSYN060AAXX  27014 07475 36/// /1302 10091 20065 39750 40232 53007;EQDQ01  00002PRCP99
0299074750999992000070107004+45530+004300SY-MT+0402LFMH V0201801N003110780019N0300001N1+02151+01391101171ADDAA199000091GA1021+012909999GA2071+078009999GF107991021021012501081021MA1101291096611MD1310011+9999MW1001REMSYN082AAXX  01074 07475 32680 71806 10215 20139 39661 40117 53001 82282 333 82843 86076;MET060LFMH 010700Z 18007KT 130V220 9999 FEW043 BKN260 22/14 Q1013;EQDQ01+000000PRSWM2Q02  00002PRCP99
0162074750999992000070815004+45530+004300FM-15+0402LFMH V0203601N005712200019N0112651N1+01701+00901999999ADDGA1021+011709999GA2021+015009999GF104991999999999999999999MA1101901999999MW1001REMMET052LFMH 081500Z 36011KT 9999 FEW039 SCT050 17/09 Q1019;EQDQ01+000000PRSWM2
0299074750999992000071716004+45530+004300SY-MT+0402LFMH V0200101N00211015001CN0500001N1+01921+00821101681ADDAA199000091GA1021+012009999GA2021+013809999GF106991061081012501001001MA1101801097061MD1610041+9999MW1001REMSYN082AAXX  17164 07475 32684 60104 10192 20082 39706 40168 56004 86800 333 83840 84646;MET060LFMH 171600Z 01004KT 320V050 9999 FEW040 SCT046 19/08 Q1018;EQDQ01+000000PRSWM2Q02  00002PRCP99
0185074750999992000080312004+45530+004300FM-15+0402LFMH V0201701N002610150019N0112651N1+01901+01101999999ADDGA1021+012909999GA2071+015009999GA3071+030009999GF107991999999999999999999MA1102101999999MW1001REMMET059LFMH 031200Z 17005KT 9999 FEW043 BKN050 BKN100 19/11 Q1021;EQDQ01+000000PRSWM2
0131074750999992000080720004+45530+004300FM-12+0402LFMH V0209999C000019999999N9999999N1+01941+01461102191ADDAA199000091MA1999999097561MD1310101+9999REMSYN060AAXX  07204 07475 36/// /0000 10194 20146 39756 40219 53010;EQDQ01  00002PRCP99
0291074750999992000080904004+45530+004300SY-MT+0402LFMH V0201401N001010750019N0090001N1+01441+01341102091ADDAA199000091GA1021+027009999GA2071+075009999GF107991021001999999031011MA1102101097381MD1810021+9999MW1001REMSYN082AAXX  09044 07475 33959 71402 10144 20134 39738 40209 58002 82031 333 82359 85075;MET052LFMH 090400Z 15001KT 9000 FEW090 BKN250 15/14 Q1021;EQDQ01+000000PRSWM2Q02  00002PRCP99
0224074750999992000081005004+45530+004300SY-MT+0402LFMH V0209999C000012200019N0400001N1+01441+01231101991ADDAA199000091GF100991001001999999001001MA1102001097281MD1510031+9999MW1001REMSYN060AAXX  10054 07475 32982 00000 10144 20123 39728 40199 55003;MET039LFMH 100500Z 00000KT CAVOK 14/12 Q1020;EQDQ01+000000PRSWM2Q02  00002PRCP99
0256074750999992000081307004+45530+004300SY-MT+0402LFMH V0201701N001012200019N0200001N1+01731+01491101841ADDAA199000091GA1011+030009079GF101991011001999999031001MA1101901097191MD1210091+9999MW1001REMSYN076AAXX  13074 07475 32970 11702 10173 20149 39719 40184 52009 81030 333 81360;MET039LFMH 130700Z 17002KT CAVOK 17/15 Q1019;EQDQ01+000000PRSWM2Q02  00002PRCP99
0262074750999992000081313004+45530+004300SY-MT+0402LFMH V0201101N001012200019N0300001N1+02851+01201101551ADDAA199000091GA1021+012009999GF102991011021012501031001MA1101801097081MD1810111+9999MW1001REMSYN076AAXX  13134 07475 32680 21102 10285 20120 39708 40155 58011 81230 333 82840;MET045LFMH 131300Z 10003KT 9999 FEW040 29/12 Q1018;EQDQ01+000000PRSWM2Q02  00002PRCP99
0352074750999992000081808004+45530+004300SY-MT+0402LFMH V0201801N003110300019N0150001N1+02301+01791101281ADDAA199000091GA1021+015009999GA2071+030009999GA3071+069009999GF107991021051017501071021MA1101391096751MD1810121+9999MW1001REMSYN088AAXX  18084 07475 32765 71806 10230 20179 39675 40128 58012 82572 333 82650 86360 86073;MET091LFMH 180800Z 19005KT 9999 FEW050 BKN100 BKN230 23/18 Q1014 TEMPO TSRA 4000 FEW005 SCT040CB;EQDQ01+000000PRSWM2Q02  00002PRCP99
0141074750999992000081917004+45530+004300FM-12+0402LFMH V0202001N006219999999N9999999N1+03181+00871100991ADDAA199000091MA1999999096581MD1810021+9999REMSYN070AAXX  19174 07475 36/// /2012 10318 20087 39658 40099 58002 333 91127;EQDQ01  00002PRCP99
0141074750999992000081920004+45530+004300FM-12+0402LFMH V0202101N006219999999N9999999N1+02671+01041101211ADDAA199000091MA1999999096721MD1310141+9999REMSYN070AAXX  19204 07475 36/// /2112 10267 20104 39672 40121 53014 333 91131;EQDQ01  00002PRCP99
0223074750999992000082115004+45530+004300FM-15+0402LFMH V02099999999990078019N0035001N1+01701+01501999999ADDGA1021+001809999GA2071+007809099GA3071+012009999GF107991999999999999999999MA1101691999999MW1821MW2971REMMET075LFMH 211500Z VRB06KT 010V360 3500 +TSRA SCT006 BKN026CB BKN040 17/15 Q1017;EQDQ01+000003PRSWM1Q02    003PRSWM1
0139074750999992000082706004+45530+004300FM-15+0402LFMH V0202601N001012200019N0112651N1+01501+01501999999ADDGA1021+007809999GF102991999999999999999999MA1101801999999MW1001REMMET045LFMH 270600Z 26002KT 9999 FEW026 15/15 Q1018;EQDQ01+000000PRSWM2
0131074750999992000082922004+45530+004300FM-12+0402LFMH V0201401N001019999999N9999999N1+01481+01081101741ADDAA199000091MA1999999097051MD1810021+9999REMSYN060AAXX  29224 07475 36/// /1402 10148 20108 39705 40174 58002;EQDQ01  00002PRCP99
0278074750999992000090104004+45530+004300SY-MT+0402LFMH V0201501N002112200019N0100001N1+01191+01131101251ADDAA199000091GA1021+003009999GF199999011061004501001001MA1101291096541MD1610071+9999MW1001REMSYN076AAXX  01044 07475 32460 11504 10119 20113 39654 40125 56007 81600 333 81710;MET045LFMH 010400Z 15003KT 9999 FEW010 12/11 Q1013;EQDQ01+000012SCOTCVQ02+000000PRSWM2Q03  00002PRCP99
0091074750999992000091012004+45530+004300FM-15+0402LFMH V0209999999999220001CN0099001N1+02601+01101999999ADDMA1102101999999MW1001REMMET039LFMH 101200Z VRB02KT CAVOK 26/11 Q1021;EQDQ01+000000PRSWM2
0334074750999992000092007004+45530+004300SY-MT+0402LFMH V0202601N001010009019N0070001N1+01131+01081100461ADDAA199000091GA1071+000909999GA2071+013809999GA3071+030009999GF107991061051001501071999MA1100411095771MD1310041+9999MW1001REMSYN088AAXX  20074 07475 32257 72602 10113 20108 39577 40046 53004 8657/ 333 86703 85646 87360;MET073LFMH 200700Z 00000KT 7000 BKN003 BKN046 BKN100 11/11 Q1004 TEMPO 5000 BR;EQDQ01+000000PRSWM2Q02  00002PRCP99
0224074750999992000092304004+45530+004300SY-MT+0402LFMH V0201601N002112200019N0150001N1+01111+00981102121ADDAA199000091GF100991001001999999001001MA1102101097351MD1610081+9999MW1001REMSYN060AAXX  23044 07475 33965 01604 10111 20098 39735 40212 56008;MET039LFMH 230400Z 16004KT CAVOK 11/10 Q1021;EQDQ01+000000PRSWM2Q02  00002PRCP99
0122074750999992000092617004+45530+004300FM-12+0402LFMH V0201401N002119999999N9999999N1+02091+01591101721ADDAA101000591MA1999999097131MD1510021+9999REMSYN070AAXX  26174 07475 26/// /1404 10209 20159 39713 40172 55002 333 69945;
0131074750999992000092619004+45530+004300FM-12+0402LFMH V0201601N003119999999N9999999N1+01751+01551101821ADDAA199000091MA1999999097181MD1010071+9999REMSYN060AAXX  26194 07475 36/// /1606 10175 20155 39718 40182 50007;EQDQ01  00002PRCP99
0131074750999992000100119004+45530+004300FM-12+0402LFMH V0201501N002119999999N9999999N1+01161+00931100911ADDAA199000091MA1999999096201MD1110051+9999REMSYN060AAXX  01194 07475 36/// /1504 10116 20093 39620 40091 51005;EQDQ01  00002PRCP99
0224074750999992000100404004+45530+004300SY-MT+0402LFMH V0201401N001012200019N0120001N1+00571+00471102311ADDAA199000091GF100991001001999999001001MA1102101097431MD1510011+9999MW1001REMSYN060AAXX  04044 07475 32962 01402 10057 20047 39743 40231 55001;MET039LFMH 040400Z 14002KT CAVOK 06/05 Q1021;EQDQ01+000000PRSWM2Q02  00002PRCP99
0131074750999992000100419004+45530+004300FM-12+0402LFMH V0202101N001019999999N9999999N1+01221+00991102061ADDAA199000091MA1999999097311MD1010051+9999REMSYN060AAXX  04194 07475 36/// /2102 10122 20099 39731 40206 50005;EQDQ01  00002PRCP99
0131074750999992000101201004+45530+004300FM-12+0402LFMH V0201701N003119999999N9999999N1+00791+00391099811ADDAA199000091MA1999999095091MD1310051+9999REMSYN060AAXX  12014 07475 36/// /1706 10079 20039 39509 49981 53005;EQDQ01  00002PRCP99
0189074750999992000101315004+45530+004300FM-15+0402LFMH V0203501N002610012019N0030001N1+00901+00901999999ADDGA1071+001209999GA2071+003009999GF107991999999999999999999MA1101191999999MW1631REMMET063LFMH 131500Z 35005KT 300V050 3000 RA BKN004 BKN010 09/09 Q1012;EQDQ01+000003PRSWM1Q02    003PRSWM1
0145074750999992000102312004+45530+004300FM-15+0402LFMH V0201901N005112200019N0112651N1+02101+01101999999ADDGA1021+012009999GF102991999999999999999999MA1102511999999MW1001REMMET051LFMH 231200Z 19010KT 9999 FEW040 21/11 Q1025 NOSIG;EQDQ01+000000PRSWM2
0131074750999992000103019004+45530+004300FM-12+0402LFMH V0201801N007219999999N9999999N1+01681+00951100101ADDAA199000091MA1999999095511MD1810071+9999REMSYN060AAXX  30194 07475 36/// /1814 10168 20095 39551 40010 58007;EQDQ01  00002PRCP99
0297074750999992000110413004+45530+004300SY-MT+0402LFMH V0201701N001010108019N0200001N1+01051+00331101291ADDAA199000091GA1021+008409999GA2071+010809999GF107991071081008001001001MA1101291096541MD1710011+9999MW1001REMSYN082AAXX  04134 07475 32570 71702 10105 20033 39654 40129 57001 87800 333 82828 85636;MET058LFMH 041300Z 17002KT 9999 FEW028 BKN036 11/03 Q1013 NOSIG;EQDQ01+000000PRSWM2Q02  00002PRCP99
0097074750999992000110506004+45530+004300FM-15+0402LFMH V0201601N00151220001CN0099001N1+00201+00001999999ADDMA1101491999999MW1001REMMET045LFMH 050600Z 16003KT CAVOK 02/00 Q1015 NOSIG;EQDQ01+000000PRSWM2
0246074750999992000111911004+45530+004300SY-MT+0402LFMH V0201701N004110138019N0300001N1+01051+00721100741ADDAA199000021GA1071+013809999GF107991071051012501999999MA1100711096021MD1810191+9999MW1001REMSYN076AAXX  19114 07475 32680 71708 10105 20072 39602 40074 58019 875// 333 87646;MET045LFMH 191100Z 17007KT 9999 BKN046 11/07 Q1007;EQDQ01+000000PRSWM2
0168074750999992000112009004+45530+004300FM-15+0402LFMH V0201501N001010780019N0112651N1+00701+00501999999ADDGA1021+009009999GA2071+078009999GF107991999999999999999999MA1100611999999MW1001REMMET058LFMH 200900Z 15002KT 9999 SCT030 BKN260 07/05 Q1006 NOSIG;EQDQ01+000000PRSWM2
0326074750999992000112214004+45530+004300SY-MT+0402LFMH V0201901N00721075001CN0200001N1+01301+00661101041ADDAA199000091GA1021+009009999GA2021+012009999GA3071+075009999GF108991051081008001031021MA1101021096351MD1610071+9999MW1001REMSYN094AAXX  22144 07475 32570 81914 10130 20066 39635 40104 56007 85832 333 82830 83640 87075 91127;MET059LFMH 221400Z 19013KT 9999 FEW030 SCT040 BKN250 13/07 Q1010;EQDQ01+000000PRSWM2Q02  00002PRCP99
0342074750999992000112317004+45530+004300SY-MT+0402LFMH V0203401N002110108019N0050001N1+00661+00521100441ADDAA101003091AY161999AY261999GA1021+001809999GA2071+010809999GA3081+027009999GF108991071081002501071999MA1100311095671MD1310501+9999MW1611REMSYN100AAXX  23174 07475 21350 83404 10066 20052 39567 40044 53050 76166 8787/ 333 60035 82806 86636 88359;MET069LFMH 231700Z 34004KT 5000 -RA FEW006 BKN036 OVC090 07/05 Q1003 NOSIG;EQDQ01    003PRSWM1
0122074750999992000112320004+45530+004300FM-12+0402LFMH V0201601N002119999999N0012001N1+00601+00431100781ADDAA101000791MA1999999095981MD1310311+9999REMSYN070AAXX  23204 07475 26/12 /1604 10060 20043 39598 40078 53031 333 69905;
0122074750999992000112322004+45530+004300FM-12+0402LFMH V0201601N001019999999N0012001N1+00561+00441100921ADDAA101000191MA1999999096111MD1110221+9999REMSYN070AAXX  23224 07475 26/12 /1602 10056 20044 39611 40092 51022 333 69925;
0211074750999992000112712004+45530+004300FM-15+0402LFMH V0201701N002610150019N0112651N1+01001+00501999999ADDGA1021+009009999GA2071+015009999GA3071+027009999GF107991999999999999999999MA1101801999999MW1611REMMET069LFMH 271200Z 17005KT 9999 -RA FEW030 BKN050 BKN090 10/05 Q1018 NOSIG;EQDQ01+000003PRSWM1Q02    003PRSWM1
0210074750999992000112912004+45530+004300FM-15+0402LFMH V0202001N007210330019N0112651N1+01501+00801999999ADDGA1021+006009999GA2071+033009999GA3071+069009999GF107991999999999999999999MA1101291999999MW1001REMMET084LFMH 291200Z 20014KT 160V230 9999 FEW020 BKN110 BKN230 15/08 Q1013 TEMPO 18025G35KT;EQDQ01+000000PRSWM2
0112074750999992000120823004+45530+004300FM-12+0402LFMH V0202501N002119999999N0013001N1+00721+00521101611ADDAA199000021MA1999999096791MD1110171+9999REMSYN060AAXX  08234 07475 36/13 /2504 10072 20052 39679 40161 51017;
0326074750999992000121307004+45530+004300SY-MT+0402LFMH V0202001N004110270019N0300001N1+01291+00271102551ADDAA199000091GA1021+015009999GA2071+027009999GA3071+075009999GF108991031051017501031021MA1102511097781MD1310091+9999MW1001REMSYN088AAXX  13074 07475 32780 82008 10129 20027 39778 40255 53009 83532 333 83650 85359 87075;MET065LFMH 130700Z 20009KT 9999 SCT050 BKN090 BKN250 13/03 Q1025 NOSIG;EQDQ01+000000PRSWM2Q02  00002PRCP99
0122074750999992000121701004+45530+004300FM-12+0402LFMH V0201801N003119999999N0011001N1+00421+00221101771ADDAA101000191MA1999999096891MD1510001+9999REMSYN070AAXX  17014 07475 26/11 /1806 10042 20022 39689 40177 55000 333 69925;
0131074750999992000121823004+45530+004300FM-12+0402LFMH V0201601N002119999999N0012001N1+00861+00361102111ADDAA199000091MA1999999097291MD1310061+9999REMSYN060AAXX  18234 07475 36/12 /1604 10086 20036 39729 40211 53006;EQDQ01  00002PRCP99
0131074750999992000122604004+45530+004300FM-12+0402LFMH V0209999C000019999999N0012001N1+00061-00051099451ADDAA199000091MA1999999094621MD1810151+9999REMSYN060AAXX  26044 07475 36/12 /0000 10006 21005 39462 49945 58015;EQDQ01  00002PRCP99
0262074800999992000010505004+45720+004950SY-MT+0201LFLY V0209999C000010099019N0050001N1+00571+00321102581ADDAA106000091GA1081+009909999GF108991081051012501999999MA1102511100091MD1610061+9999MW1001REMSYN076AAXX  05054 07480 33650 80000 10057 20032 30009 40258 56006 885// 333 88633;MET045LFLY 050500Z 00000KT 5000 OVC033 06/03 Q1025;EQDQ01+000000PRSWM2Q02  00002PRCP06
0291074800999992000010507004+45720+004950SY-MT+0201LFLY V0200101N001010099019N0060001N1+00571+00341102611ADDAA106000091GA1021+003009999GA2071+009909999GF107991071081004501999999MA1102511100121MD1210031+9999MW1001REMSYN082AAXX  05074 07480 32456 70102 10057 20034 30012 40261 52003 878// 333 81810 87633;MET052LFLY 050700Z 01003KT 6000 FEW010 BKN033 06/03 Q1025;EQDQ01+000000PRSWM2Q02  00002PRCP06
0308074800999992000011514004+45720+004950SY-MT+020199999V0200101N004110018019N0020001N1+00091-00121102781ADDAA199000091AY111999AY211999GA1071+001809999GF108991999061001501001001MA1102611100241MD1510041+9999MW1101REMSYN086    AAXX  15144 07480 31220 80108 10009 21012 30024 40278 55004 71011 87600 333 87706;MET049LFLY 151400Z 02009KT 2000 BR BKN006 01/M01 Q1026;EQDQ01+000072SCOTLCQ02  00002PRCP99Q03    003PRSWM1
0268074800999992000011610004+45720+004950SY-MT+020199999V0203601N003110039019N0050001N1-00031-00371103231ADDAA199000091GA1081+003909999GF108991081051004501999999MA1103011100661MD1010071+9999MW1001REMSYN080    AAXX  16104 07480 32450 83606 11003 21037 30066 40323 50007 885// 333 88613;MET047LFLY 161000Z 35006KT 5000 OVC013 M00/M04 Q1030;EQDQ01+000000PRSWM2Q02  00002PRCP99
0159074800999992000012109004+45720+004950FM-15+0201LFLY V0209999C000010120019N0035001N1+00001-00201999999ADDGA1071+012009999GF107991999999999999999999MA1103011999999MW1101REMMET049LFLY 210900Z 00000KT 3500 BR BKN040 00/M02 Q1030;EQDQ01+000003PRSWM1Q02    003PRSWM1
0122074800999992000012220004+45720+004950FM-12+0201LFLY V0202901N004119999999N0300001N1+00451+00031101341ADDAA101000791MA1999999098871MD1610211+9999REMSYN070AAXX  22204 07480 26/80 /2908 10045 20003 39887 40134 56021 333 69905;
0282074800999992000012305004+45720+004950SY-MT+0201LFLY V0203401N007210129019N0150001N1+00311-00111101621ADDAA101999929GA1021+009909999GA2071+012909999GF107991071051012501999999MA1101491099131MD1110051+9999MW1001REMSYN088AAXX  23054 07480 22665 73414 10031 21011 39913 40162 51005 875// 333 69905 82633 86643;MET053LFLY 230500Z 34015KT 9999 FEW033 BKN043 03/M01 Q1015;EQDQ01+000000PRSWM2
0131074800999992000020201004+45720+004950FM-12+0201LFLY V0209999C000019999999N0060001N1+00491+00371102331ADDAA199000091MA1999999099841MD1810081+9999REMSYN060AAXX  02014 07480 36/56 /0000 10049 20037 39984 40233 58008;EQDQ01  00002PRCP99
0307074800999992000021316004+45720+004950SY-MT+0201LFLY V0200901N002110078019N0050001N1+00731+00591102601ADDAA101999929AY161999AY221999GA1021+003009999GA2071+007809999GF108991071051004501999999MA1102511100121MD1610101+9999MW1611REMSYN094AAXX  13164 07480 21450 80904 10073 20059 30012 40260 56010 76162 875// 333 69905 81610 87626;MET056LFLY 131600Z 08004KT 5000 -RA FEW010 BKN026 07/06 Q1025;EQDQ01    003PRSWM1
0284074800999992000021611004+45720+004950SY-MT+0201LFLY V0202901N00411220001CN0300001N1+00921-00271101601ADDAA199000021GA1021+012009999GA2021+075009999GF105991041011012501001011MA1101491099161MD1810011+9999MW1001REMSYN082AAXX  16114 07480 32680 52908 10092 21027 39916 40160 58001 84101 333 84840 84075;MET061LFLY 161100Z 29008KT 260V330 9999 SCT040 SCT250 09/M03 Q1015;EQDQ01+000000PRSWM2
0189074800999992000022114004+45720+004950FM-12+0201LFLY V0200101N004112200019N0250001N1+00691-00391102851ADDAA199000091GA1011+069009019GF101991001001999999001011MA1999999100361MD1610141+9999REMSYN076AAXX  21144 07480 32975 10108 10069 21039 30036 40285 56014 80001 333 81073;EQDQ01  00002PRCP99
0140074800999992000022315004+45720+004950FM-15+0201LFLY V0200101N004612200019N0112651N1+00901-00301999999ADDGA1021+013809999GF102991999999999999999999MA1102611999999MW1001REMMET046LFLY 231500Z 01009KT 9999 FEW046 09/M03 Q1026;EQDQ01+000000PRSWM2
0283074800999992000022405004+45720+004950SY-MT+0201LFLY V0201501N001012200019N0040001N1-00151-00311103141ADDAA199000091GA1021+033009999GF104991031001999999031011MA1103011100571MD1310021+9999MW1101REMSYN076AAXX  24054 07480 33940 41502 11015 21031 30057 40314 53002 83031 333 83361;MET050LFLY 240500Z 15001KT 4000 BR SCT110 M01/M03 Q1030;EQDQ01+000003PRSWM1Q02  00002PRCP99Q03    003PRSWM1
0271074800999992000030311004+45720+004950SY-MT+0201LFLY V0201501N002119999999N0150001N1+00961-00031102371ADDAA199000091GA1021+033009039GF107991021001999999031011MA1102301099911MD1810121+9999MW1001REMSYN082AAXX  03114 07480 32965 71504 10096 21003 39991 40237 58012 82031 333 82361 86075;MET048LFLY 031100Z 17005KT 140V220 CAVOK 09/M01 Q1023;EQDQ01+000000PRSWM2Q02  00002PRCP99
0225074800999992000030508004+45720+004950SY-MT+0201LFLY V0203601N004112200019N0400001N1+00231-00651103481ADDAA199000091GF100991001001999999001001MA1103291100931MD1310121+9999MW1001REMSYN060AAXX  05084 07480 32982 03608 10023 21065 30093 40348 53012;MET040LFLY 050800Z 35009KT CAVOK 02/M06 Q1033;EQDQ01+000000PRSWM2Q02  00002PRCP99
0279074800999992000031613004+45720+004950SY-MT+0201LFLY V0203501N011812200019N0120001N1+01141+00081103091ADDAA199000091GA1021+015009999GF103991021051017501001011MA1103011100631MD1710091+9999MW1001OC101651REMSYN082AAXX  16134 07480 32762 33523 10114 20008 30063 40309 57009 82501 333 82650 91133;MET048LFLY 161300Z 34022G32KT 9999 FEW050 12/01 Q1030;EQDQ01+000000PRSWM2Q02  00002PRCP99
0131074800999992000031620004+45720+004950FM-12+0201LFLY V0203401N007219999999N0140001N1+00851+00231103001ADDAA199000091MA1999999100521MD1510021+9999REMSYN060AAXX  16204 07480 36/64 /3414 10085 20023 30052 40300 55002;EQDQ01  00002PRCP99
0179074800999992000031818004+45720+004950FM-12+0201LFLY V0203501N008219999999N0300001N1+00901+00191102561ADDAA199000091KA1999M+01131KA2999N+00781MA1999999100101MD1310021+9999REMSYN082AAXX  18184 07480 36/80 /3516 10090 20019 30010 40256 53002 333 10113 20078 91133;EQDQ01  00002PRCP99
0327074800999992000032416004+45720+004950SY-MT+0201LFLY V0202001N003110129019N0120001N1+01101+00861101531ADDAA101000891AY181999AY261999GA1021+009009999GA2071+012909999GF107991071081008001001001MA1101491099111MD1510011+9999MW1801REMSYN094AAXX  24164 07480 21562 72006 10110 20086 39911 40153 55001 78086 87800 333 69985 83830 86643;MET060LFLY 241600Z 20007KT 090V250 9999 SCT030 BKN043 11/09 Q1015;EQDQ01+000000PRSWM2Q02    003PRSWM1
0291074800999992000032516004+45720+004950SY-MT+0201LFLY V0201901N00821090001CN0250001N1+01621+00461101351ADDAA199000091GA1021+013809999GA2021+075009999GF105991011021012501081011MA1101291098981MD1610141+9999MW1001REMSYN082AAXX  25164 07480 32675 51916 10162 20046 39898 40135 56014 81281 333 81846 83075;MET052LFLY 251600Z 19015KT 9999 FEW046 SCT250 16/05 Q1013;EQDQ01+000000PRSWM2Q02  00002PRCP99
0269074800999992000033113004+45720+004950SY-MT+0201LFLY V0201601N007210690019N0500001N1+01221+00241100721ADDAA199000091GA1021+007809999GA2071+069009999GF107991999999999999999999MA1100711098331MD1710221+9999MW1001REMSYN060AAXX  31134 07480 36/84 /1614 10122 20024 39833 40072 57022;MET052LFLY 311300Z 17011KT 9999 FEW026 BKN230 12/03 Q1007;EQDQ01+000000PRSWM2Q02  00002PRCP99
0298074800999992000040312004+45720+004950SY-MT+0201LFLY V0201901N004110150019N0200001N1+01621+00741098921ADDAA199000091GA1071+015009999GA2071+030009999GF107991061051017501071999MA1098921096601MD1810141+9999MW1001REMSYN081AAXX  03124 07480 32770 71908 10162 20074 39660 49892 58014 8657/ 333 86650 7360;MET060LFLY 031200Z 19010KT 150V250 9999 BKN050 BKN100 16/07 Q0989;EQDQ01+000000PRSWM2Q02  00002PRCP99
0345074800999992000040416004+45720+004950SY-MT+0201LFLY V0201701N008710078019N0040001N1+01091+00761099391ADDAA101000891AY191999AY281999GA1071+007809099GA2071+015009999GF107991071081008001999999MA1099291097021MD1310111+9999MW1821MW2951OC101491REMSYN100AAXX  04164 07480 21540 71717 10109 20076 39702 49939 53011 79598 878// 333 69985 86926 87650 91029;MET074LFLY 041600Z 20012G29KT 170V250 4000 +SHRA BR BKN026CB BKN050 12/07 Q0993;EQDQ01    003PRSWM1
0353074800999992000041406004+45720+004950SY-MT+0201LFLY V0201801N005119999999N0250001N1+01171+00531100171ADDAA112000591AA224000691GA1011+030009039GF107991011001999999041021GJ100489IA1099IA2999+00809KA1999M+01481KA2999N+01081MA1100101097791MD1510041+9999MW1001REMSYN118AAXX  14064 07480 12975 71810 10117 20053 39779 40017 55004 69942 81042 333 10148 20108 31008 55008 70006 81360 87072;MET047LFLY 140600Z 18011KT 140V210 CAVOK 12/06 Q1001;EQDQ01+000000PRSWM2
0173074800999992000050118004+45720+004950FM-12+0201LFLY V0203601N003119999999N0400001N1+02221+01271101271ADDAA199000091KA1999M+02441KA2999N+01311MA1999999098951MD1610041+9999REMSYN076AAXX  01184 07480 36/82 /3606 10222 20127 39895 40127 56004 333 10244 20131;EQDQ01  00002PRCP99
0131074800999992000050312004+45720+004950FM-12+0201LFLY V0201301N002119999999N0350001N1+02421+01401101551ADDAA199000091MA1999999099241MD1810151+9999REMSYN060AAXX  03124 07480 36/81 /1304 10242 20140 39924 40155 58015;EQDQ01  00002PRCP99
0164074800999992000050515004+45720+004950FM-15+0201LFLY V0201801N006210300019N0112651N1+02301+00901999999ADDGA1021+007809099GA2071+030009999GF107991999999999999999999MA1101081999999MW1001REMMET054LFLY 051500Z 18012KT 9999 FEW026CB BKN100 23/09 Q1011;EQDQ01+000000PRSWM2
0322074800999992000050916004+45720+004950SY-MT+0201LFLY V0201001N001010300019N0200001N1+02511+01361101321ADDAA199000091GA1021+015009099GA2071+030009999GA3071+075009999GF107991011091017501081011MA1101391099021MD1510081+9999MW1001REMSYN088AAXX  09164 07480 32770 71002 10251 20136 39902 40132 55008 81981 333 81950 85360 87075;MET061LFLY 091600Z 07002KT 9999 FEW050CB BKN100 BKN250 25/13 Q1014;EQDQ01+000000PRSWM2Q02  00002PRCP99
0131074800999992000051108004+45720+004950FM-12+0201LFLY V0201401N003119999999N0150001N1+01851+01561101551ADDAA199000091MA1999999099201MD1110091+9999REMSYN060AAXX  11084 07480 36/65 /1406 10185 20156 39920 40155 51009;EQDQ01  00002PRCP99
0131074800999992000051620004+45720+004950FM-12+0201LFLY V0201701N006219999999N0600001N1+02261+00831101511ADDAA199000091MA1999999099191MD1310061+9999REMSYN060AAXX  16204 07480 36/86 /1712 10226 20083 39919 40151 53006;EQDQ01  00002PRCP99
0240074800999992000052104004+45720+004950SY-MT+0201LFLY V0202001N002112200019N0100001N1+00811+00641101331ADDAA199000091GF101991001001999999001011MA1101291098891MD1510011+9999MW1001REMSYN076AAXX  21044 07480 32960 12004 10081 20064 39889 40133 55001 80001 333 81073;MET039LFLY 210400Z 20003KT CAVOK 08/06 Q1013;EQDQ01+000000PRSWM2Q02  00002PRCP99
0270074800999992000052110004+45720+004950SY-MT+0201LFLY V0202201N002112200019N0400001N1+01941+00781101181ADDAA199000091GA1021+012909999GF104991041021012501001001MA1101191098841MD1810061+9999MW1001REMSYN076AAXX  21104 07480 32682 42204 10194 20078 39884 40118 58006 84200 333 84843;MET053LFLY 211000Z VRB04KT 110V330 9999 SCT043 19/06 Q1012;EQDQ01+000000PRSWM2Q02  00002PRCP99
0299074800999992000052908004+45720+004950SY-MT+0201LFLY V0203601N00211036001CN0300001N1+01311+00671101971ADDAA199000091GA1021+012909999GA2021+030009999GF106991041051012501071001MA1101901099561MD1110281+9999MW1001REMSYN082AAXX  29084 07480 32680 63604 10131 20067 39956 40197 51028 84570 333 84643 84360;MET060LFLY 290800Z 35004KT 320V040 9999 SCT043 SCT100 13/07 Q1019;EQDQ01+000000PRSWM2Q02  00002PRCP99
0131074800999992000061601004+45710+004940FM-12+0201LFLY V0203401N004119999999N0350001N1+01871+01461102351ADDAA199000091MA1999999099981MD1810021+9999REMSYN060AAXX  16014 07480 36/81 /3408 10187 20146 39998 40235 58002;EQDQ01  00002PRCP99
0224074800999992000062008004+45710+004940SY-MT+0201LFLY V0201601N008712200019N0400001N1+02341+00901101871ADDAA199000091GF100991001001999999001001MA1101901099541MD1710011+9999MW1001REMSYN060AAXX  20084 07480 32982 01617 10234 20090 39954 40187 57001;MET039LFLY 200800Z 16017KT CAVOK 24/10 Q1019;EQDQ01+000000PRSWM2Q02  00002PRCP99
0131074800999992000062320004+45710+004940FM-12+0201LFLY V0203301N003119999999N0600001N1+01861+00801102201ADDAA199000091MA1999999099831MD1110041+9999REMSYN060AAXX  23204 07480 36/86 /3306 10186 20080 39983 40220 51004;EQDQ01  00002PRCP99
0262074800999992000070608004+45710+004940SY-MT+0201LFLY V0200101N001019999999N0200001N1+02231+01281101871ADDAA199000091GA1031+030009039GF106991031001999999031011MA1101901099541MD1810021+9999MW1001REMSYN082AAXX  06084 07480 32970 60102 10223 20128 39954 40187 58002 83031 333 83360 84073;MET039LFLY 060800Z VRB03KT CAVOK 22/13 Q1019;EQDQ01+000000PRSWM2Q02  00002PRCP99
0099074800999992000070712004+45710+004940FM-15+0201LFLY V0202401N00571220001CN0099001N1+03101+01501999999ADDMA1101021999999MW1001REMMET047LFLY 071200Z 24011KT 180V280 CAVOK 31/15 Q1010;EQDQ01+000000PRSWM2
0131074800999992000070819004+45710+004940FM-12+0201LFLY V0203401N006219999999N0350001N1+01811+00781101831ADDAA199000091MA1999999099461MD1310061+9999REMSYN060AAXX  08194 07480 36/81 /3412 10181 20078 39946 40183 53006;EQDQ01  00002PRCP99
0162074800999992000071612004+45710+004940FM-15+0201LFLY V0203601N006712200019N0112651N1+01801+00701999999ADDGA1021+009909999GA2021+015009999GF104991999999999999999999MA1101691999999MW1001REMMET052LFLY 161200Z 36013KT 9999 SCT033 SCT050 18/07 Q1017;EQDQ01+000000PRSWM2
0131074800999992000072207004+45710+004940FM-12+0201LFLY V0203501N001019999999N0120001N1+02041+01261101671ADDAA199000091MA1999999099331MD1010001+9999REMSYN060AAXX  22074 07480 36/62 /3502 10204 20126 39933 40167 50000;EQDQ01  00002PRCP99
0321074800999992000072311004+45710+004940SY-MT+0201LFLY V0201601N008210750019N0200001N1+02551+01091101161ADDAA199000091AY191999AY221999GA1031+027009079GA2031+075009019GF105991031001999999081021MA1101291098871MD1010001+9999MW1291REMSYN088AAXX  23114 07480 31970 51616 10255 20109 39887 40116 50000 72992 83082 333 83359 83075;MET044LFLY 231100Z 17016KT CAVOK 26/11 Q1013 RETS;EQDQ01+000000PRSWM2Q02  00002PRCP99Q03    003PRSWM1
0091074800999992000080115004+45710+004940FM-15+0201LFLY V0201801N00571220001CN0099001N1+03301+01001999999ADDMA1101801999999MW1001REMMET039LFLY 011500Z 18011KT CAVOK 33/10 Q1018;EQDQ01+000000PRSWM2
0122074800999992000080122004+45710+004940FM-12+0201LFLY V0202001N007219999999N0450001N1+02331+01591101831ADDAA101000591MA1999999099511MD1310071+9999REMSYN070AAXX  01224 07480 26/83 /2014 10233 20159 39951 40183 53007 333 69945;
0320074800999992000080507004+45710+004940SY-MT+0201LFLY V0203401N006210150019N0250001N1+01691+01161101981ADDAA199000091GA1021+010809999GA2071+015009999GA3071+027009999GF107991051081012501021999MA1102001099601MD1310071+9999MW1001REMSYN088AAXX  05074 07480 32675 73412 10169 20116 39960 40198 53007 8582/ 333 81836 85650 85459;MET059LFLY 050700Z 34012KT 9999 FEW036 BKN050 BKN090 17/12 Q1020;EQDQ01+000000PRSWM2Q02  00002PRCP99
0112074800999992000080601004+45710+004940FM-12+0201LFLY V0203401N003119999999N0240001N1+01721+01331102101ADDAA199000021MA1999999099721MD1810021+9999REMSYN060AAXX  06014 07480 36/74 /3406 10172 20133 39972 40210 58002;
0131074800999992000081819004+45710+004940FM-12+0201LFLY V0202001N005119999999N0500001N1+02941+00901101081ADDAA199000091MA1999999098821MD1310081+9999REMSYN060AAXX  18194 07480 36/84 /2010 10294 20090 39882 40108 53008;EQDQ01  00002PRCP99
0256074800999992000082516004+45710+004940SY-MT+0201LFLY V0200701N001012200019N0200001N1+03271+01731101361ADDAA199000091GA1041+075009019GF104991001001999999001011MA1101491099121MD1610181+9999MW1001REMSYN076AAXX  25164 07480 33970 40702 10327 20173 39912 40136 56018 80001 333 84075;MET039LFLY 251600Z 08002KT CAVOK 33/17 Q1015;EQDQ01+000000PRSWM2Q02  00002PRCP99
0131074800999992000090417004+45710+004940FM-12+0201LFLY V0203601N008219999999N0600001N1+01801+00681102091ADDAA199000091MA1999999099711MD1310031+9999REMSYN060AAXX  04174 07480 36/86 /3616 10180 20068 39971 40209 53003;EQDQ01  00002PRCP99
0193074800999992000090709004+45710+004940FM-15+0201LFLY V0203301N003610690019N0112651N1+02001+01301999999ADDGA1021+006309999GA2021+012909999GA3071+069009999GF107991999999999999999999MA1101691999999MW1001REMMET067LFLY 070900Z 33007KT 280V360 9999 FEW021 SCT043 BKN230 20/13 Q1017;EQDQ01+000000PRSWM2
0291074800999992000091605004+45710+004940SY-MT+0201LFLY V0209999C000019999999N0080001N1+01801+01601101511ADDAA199000091GA1021+030009999GA2021+075009999GF106991041001999999071011MA1101491099161MD1310091+9999MW1001REMSYN082AAXX  16054 07480 32958 60000 10180 20160 39916 40151 53009 84071 333 84360 84075;MET052LFLY 160500Z 00000KT 8000 SCT100 SCT250 18/16 Q1015;EQDQ01+000000PRSWM2Q02  00002PRCP99
0286074800999992000091616004+45710+004940SY-MT+0201LFLY V0200501N003110750019N0400001N1+02011+01021101551ADDAA199000091GA1021+030009079GA2051+075009019GF105991021001999999071011MA1101591099211MD1710081+9999MW1001REMSYN082AAXX  16164 07480 33982 50506 10201 20102 39921 40155 57008 82071 333 82360 85075;MET047LFLY 161600Z 05007KT 360V110 CAVOK 20/10 Q1016;EQDQ01+000000PRSWM2Q02  00002PRCP99
0313074800999992000092014004+45710+004940SY-MT+0201LFLY V0203601N004110090019N0150001N1+01461+01281100691ADDAA101999929AY161999AY261999GA1071+009009999GA2071+030009999GF108991051021008001071999MA1100711098321MD1010091+9999MW1601MW2611REMSYN094AAXX  20144 07480 21565 83608 10146 20128 39832 40069 50009 76066 8527/ 333 69905 85830 85360;MET056LFLY 201400Z 36006KT 9999 -RA BKN030 BKN100 15/13 Q1007;EQDQ01    003PRSWM1
0131074800999992000092202004+45710+004940FM-12+0201LFLY V0201201N002119999999N0140001N1+01041+00901102301ADDAA199000091MA1999999099861MD1210021+9999REMSYN060AAXX  22024 07480 36/64 /1204 10104 20090 39986 40230 52002;EQDQ01  00002PRCP99
0120074800999992000092306004+45710+004940FM-15+0201LFLY V0209999C000012200019N0080001N1+01101+01101999999ADDGF100991999999999999999999MA1102101999999MW1001REMMET042LFLY 230600Z 00000KT 8000 SKC 11/11 Q1021;EQDQ01+000000PRSWM2
0131074800999992000100419004+45710+004940FM-12+0201LFLY V0203401N002119999999N0160001N1+01391+01011102051ADDAA199000091MA1999999099641MD1010031+9999REMSYN060AAXX  04194 07480 36/66 /3404 10139 20101 39964 40205 50003;EQDQ01  00002PRCP99
0112074800999992000101122004+45710+004940FM-12+0201LFLY V0201701N006219999999N0600001N1+01131+00851099741ADDAA199000021MA1999999097371MD1110211+9999REMSYN060AAXX  11224 07480 36/86 /1712 10113 20085 39737 49974 51021;
0122074800999992000101522004+45710+004940FM-12+0201LFLY V0201701N005119999999N0500001N1+01241+01051100941ADDAA101000191MA1999999098551MD1110161+9999REMSYN070AAXX  15224 07480 26/84 /1710 10124 20105 39855 40094 51016 333 69925;
0240074800999992000101914004+45710+004940SY-MT+0201LFLY V0200201N001010300019N0100001N1+01571+00891102071ADDAA199000021GA1071+030009079GF107991071001999999071001MA1102001099681MD1810081+9999MW1001REMSYN076AAXX  19144 07480 32960 70202 10157 20089 39968 40207 58008 87070 333 87360;MET039LFLY 191400Z 01002KT CAVOK 16/09 Q1020;EQDQ01+000000PRSWM2
0299074800999992000102711004+45710+004940SY-MT+0201LFLY V0203501N00311220001CN0400001N1+01441+00671102371ADDAA199000091GA1021+009909999GA2021+075009999GF105991031011012501001011MA1102301099961MD1110021+9999MW1001REMSYN082AAXX  27114 07480 32682 53506 10144 20067 39996 40237 51002 83101 333 83833 84075;MET060LFLY 271100Z 36007KT 320V040 9999 SCT033 SCT250 15/07 Q1023;EQDQ01+000000PRSWM2Q02  00002PRCP99
0314074800999992000103014004+45710+004940SY-MT+0201LFLY V0201801N01391024001CN0150001N1+01671+01161100421ADDAA199000091GA1021+006009999GA2081+024009999GF108991021081008001021999MA1100411098081MD1810391+9999MW1001OC101951REMSYN094AAXX  30144 07480 32565 81827 10167 20116 39808 40042 58039 8282/ 333 82820 88460 91045 91145;MET055LFLY 301400Z 17025G38KT 9999 FEW020 OVC083 17/12 Q1004;EQDQ01+000000PRSWM2Q02  00002PRCP99
0134074800999992000110604004+45710+004940FM-12+0201LFLY V0201701N008719999999N0350001N1+01111+00881098771ADDAA101000891MA1999999096421MD1610391+9999REMSYN082AAXX  06044 07480 26/81 /1717 10111 20088 39642 49877 56039 333 69985 91029 91139;
0291074800999992000110907004+45710+004940SY-MT+0201LFLY V0201801N005110900019N0300001N1+00771+00501101161ADDAA199000091GA1021+009909999GA2021+024009999GF105991021081012501031011MA1101081098721MD1210211+9999MW1001REMSYN082AAXX  09074 07480 32680 51810 10077 20050 39872 40116 52021 82831 333 81833 83358;MET052LFLY 090700Z 19009KT 9999 FEW033 SCT083 08/05 Q1011;EQDQ01+000000PRSWM2Q02  00002PRCP99
0131074800999992000112016004+45710+004940FM-12+0201LFLY V0201901N005119999999N0230001N1+00921+00661100521ADDAA199000091MA1999999098111MD1510021+9999REMSYN060AAXX  20164 07480 36/73 /1910 10092 20066 39811 40052 55002;EQDQ01  00002PRCP99
0147074800999992000112213004+45710+004940FM-12+0201LFLY V0201901N009819999999N0350001N1+01351+00751101151ADDAA199000091MA1999999098761MD1710131+9999REMSYN076AAXX  22134 07480 36/81 /1919 10135 20075 39876 40115 57013 333 91031 91131;EQDQ01  00002PRCP99
0291074800999992000112705004+45710+004940SY-MT+0201LFLY V0200301N001010150019N0200001N1+00481+00361101981ADDAA199000091GA1071+015009999GA2071+030009999GF107991051051017501071999MA1101901099491MD1110101+9999MW1001REMSYN082AAXX  27054 07480 32770 70302 10048 20036 39949 40198 51010 8557/ 333 85650 85360;MET052LFLY 270500Z 05002KT 9999 BKN050 BKN100 05/04 Q1019;EQDQ01+000000PRSWM2Q02  00002PRCP99
0162074800999992000112712004+45710+004940FM-15+0201LFLY V0201401N001010300019N0112651N1+00901+00501999999ADDGA1021+015009999GA2071+030009999GF107991999999999999999999MA1101901999999MW1001REMMET052LFLY 271200Z 14002KT 9999 SCT050 BKN100 09/05 Q1019;EQDQ01+000000PRSWM2
0291074800999992000113017004+45710+004940SY-MT+0201LFLY V0201501N004112200019N0100001N1+01321+00981101741ADDAA199000091GA1021+015009999GA2021+030009999GF104991021051017501071001MA1101691099341MD1110061+9999MW1001REMSYN082AAXX  30174 07480 33760 41508 10132 20098 39934 40174 51006 82570 333 82650 83360;MET052LFLY 301700Z 14008KT 9999 FEW050 SCT100 14/10 Q1017;EQDQ01+000000PRSWM2Q02  00002PRCP99
0360074800999992000120117004+45710+004940SY-MT+0201LFLY V0201901N009810270019N0300001N1+01521+00801101711ADDAA101999929AY161999AY221999GA1021+009909999GA2021+018009999GA3071+027009999GF107991031081012501031021MA1101691099321MD1310201+9999MW1211REMSYN112AAXX  01174 07480 21680 71919 10152 20080 39932 40171 53020 72162 83832 333 69905 81633 83656 86359 91031 91135;MET059LFLY 011700Z 19020KT 9999 FEW033 SCT060 BKN090 15/08 Q1017;EQDQ01+000000PRSWM2Q02    003PRSWM1
0256074800999992000121405004+45710+004940SY-MT+0201LFLY V0200101N001010300019N0150001N1+00621+00421101971ADDAA199000091GA1071+030009079GF107991071001999999031999MA1101801099501MD1710151+9999MW1001REMSYN076AAXX  14054 07480 32965 70102 10062 20042 39950 40197 57015 8703/ 333 87360;MET039LFLY 140500Z 36002KT CAVOK 06/04 Q1018;EQDQ01+000000PRSWM2Q02  00002PRCP99
0168074800999992000121909004+45710+004940FM-15+0201LFLY V0201801N001012200019N0112651N1+00701+00401999999ADDGA1021+015009999GA2021+030009999GF104991999999999999999999MA1102101999999MW1001REMMET058LFLY 190900Z 18002KT 9999 FEW050 SCT100 07/04 Q1021 NOSIG;EQDQ01+000000PRSWM2
0131074800999992000122320004+45710+004940FM-12+0201LFLY V0200101N001019999999N0018001N1-00091-00151101281ADDAA199000091MA1999999098761MD1510021+9999REMSYN060AAXX  23204 07480 36/18 /0102 11009 21015 39876 40128 55002;EQDQ01  00002PRCP99
0307074800999992000122505004+45710+004940SY-MT+0201LFLY V0209999C000010054019N0060001N1+00601+00531099411ADDAA101000891AY161999AY221999GA1071+005409999GA2081+027009999GF108991051051004501071999MA1099291097001MD1710121+9999MW1611REMSYN094AAXX  25054 07480 21456 80000 10060 20053 39700 49941 57012 76162 8557/ 333 69985 85618 88459;MET056LFLY 250500Z 00000KT 6000 -RA BKN018 OVC090 06/05 Q0993;EQDQ01    003PRSWM1
0169074800999992000122815004+45710+004940FM-15+0201LFLY V0200601N002612200019N0112651N1+00601-00101999999ADDGA1021+010809999GA2021+069009999GF104991999999999999999999MA1100001999999MW1001REMMET059LFLY 281500Z 06005KT 9999 FEW036 SCT230 06/M01 Q1000 NOSIG;EQDQ01+000000PRSWM2
0296074810999992000010509004+45730+005080SY-MT+0240LFLL V0203201N001012200019N0090001N1+00541+00391102641ADDAA103999929AY161031AY211031GA1021+010209999GF102991021051012501001011MA1102511099681MD1310041+9999MW1011REMSYN088AAXX  05094 07481 21659 23202 10054 20039 39968 40264 53004 70161 82501 333 69907 82634;MET051LFLL 050900Z VRB02KT 9000 FEW034 05/04 Q1025 NOSIG;EQDQ01+000000PRSWM2Q02    003PRSWM1
0297074810999992000010609004+45730+005080SY-MT+0240LFLL V0201601N004110690019N0150001N1+00781+00461102351ADDAA106000091GA1021+009009999GA2071+069009999GF107991011051008001001021MA1102201099431MD1310161+9999MW1001REMSYN082AAXX  06094 07481 32565 71608 10078 20046 39943 40235 53016 81502 333 81630 86073;MET058LFLL 060900Z 16009KT 9999 FEW030 BKN230 08/05 Q1022 NOSIG;EQDQ01+000000PRSWM2Q02  00002PRCP06
0289074810999992000010921004+45730+005080SY-MT+0240LFLL V0203401N005110030019N0120001N1+00391+00301102791ADDAA103002091AY161031AY261031GA1071+003009999GF108991071071004501999999MA1102611099811MD1110201+9999MW1611MW2631REMSYN088AAXX  09214 07481 21462 83410 10039 20030 39981 40279 51020 76166 877// 333 60027 87710;MET054LFLL 092100Z 34010KT 9999 RA BKN010 04/03 Q1026 NOSIG;EQDQ01    003PRSWM1
0289074810999992000010922004+45730+005080SY-MT+0240LFLL V0203301N004110024019N0120001N1+00391+00331102831ADDAA101000491AY161999AY261999GA1071+002409999GF108991071071002501999999MA1102711099851MD1110161+9999MW1611MW2631REMSYN088AAXX  09224 07481 21362 83308 10039 20033 39985 40283 51016 76166 877// 333 69945 87708;MET054LFLL 092200Z 33008KT 9999 RA BKN008 04/03 Q1027 NOSIG;EQDQ01    003PRSWM1
0252074810999992000011007004+45730+005080SY-MT+0240LFLL V0203501N004110036019N0120001N1+00401+00241103141ADDAA106000021GA1071+003609999GF108991071071004501999999MA1103011100151MD1310131+9999MW1001REMSYN076AAXX  10074 07481 32462 83508 10040 20024 30015 40314 53013 877// 333 87712;MET051LFLL 100700Z 35009KT 9999 BKN012 04/03 Q1030 NOSIG;EQDQ01+000000PRSWM2
0336074810999992000012106004+45730+005080SY-MT+0240LFLL V0201401N002110108019N0070001N1-00171-00311103121ADDAA124000091GA1071+010809999GF107991071051012501001001GJ102109IA1099IA2999-00509KA1999M-00071KA2999N-00261MA1102911100071MD1610081+9999MW1001REMSYN106AAXX  21064 07481 32657 71404 11017 21031 30007 40312 56008 87500 333 11007 21026 31105 55035 70000 87636;MET053LFLL 210600Z 14004KT 7000 BKN036 M02/M03 Q1029 NOSIG;EQDQ01+000000PRSWM2
0298074810999992000012412004+45730+005080SY-MT+0240LFLL V0203501N005110120019N0150001N1+00181-00161101921ADDAA199000091GA1021+004209999GA2071+012009999GF107991071081004501999999MA1101691098941MD1010011+9999MW1001REMSYN082AAXX  24124 07481 32465 73510 10018 21016 39894 40192 50001 878// 333 83814 86640;MET059LFLL 241200Z 35010KT 9999 SCT014 BKN040 02/M01 Q1017 NOSIG;EQDQ01+000000PRSWM2Q02  00002PRCP99
0252074810999992000020223004+45730+005080SY-MT+0240LFLL V0203501N007210033019N0150001N1+00851+00701102871ADDAA199000021GA1071+003309999GF107991071071004501999999MA1102811099941MD1110301+9999MW1001REMSYN076AAXX  02234 07481 32465 73514 10085 20070 39994 40287 51030 877// 333 87711;MET051LFLL 022300Z 35015KT 9999 BKN011 09/07 Q1028 NOSIG;EQDQ01+000000PRSWM2
0325074810999992000020707004+45730+005080SY-MT+0240LFLL V0201701N004110108019N0080001N1+00851+00601102641ADDAA101000491AY161999AY221999GA1021+003909999GA2071+010809999GF107991071051004501999999MA1102511099721MD1310101+9999MW1211REMSYN094AAXX  07074 07481 21458 71708 10085 20060 39972 40264 53010 72162 875// 333 69945 82613 87636;MET058LFLL 070700Z 17006KT 8000 FEW013 BKN036 08/06 Q1025 NOSIG;EQDQ01+000000PRSWM2Q02    003PRSWM1
0325074810999992000020709004+45730+005080SY-MT+0240LFLL V0200301N002110108019N0070001N1+00841+00621102801ADDAA103000491AY161031AY221031GA1021+003009999GA2071+010809999GF107991071081004501001001MA1102711099871MD1310191+9999MW1031REMSYN094AAXX  07094 07481 21457 70304 10084 20062 39987 40280 53019 70362 87800 333 69947 81810 87636;MET058LFLL 070900Z VRB03KT 7000 FEW010 BKN036 09/06 Q1027 NOSIG;EQDQ01+000000PRSWM2Q02    003PRSWM1
0325074810999992000021315004+45730+005080SY-MT+0240LFLL V0201301N002110081019N0060001N1+00651+00581102611ADDAA103001091AY161031AY221031GA1021+001209999GA2071+008109999GF108991071051001501999999MA1102511099671MD1610151+9999MW1211REMSYN094AAXX  13154 07481 21256 81304 10065 20058 39967 40261 56015 72162 875// 333 60017 81704 87627;MET058LFLL 131500Z 13003KT 6000 FEW004 BKN027 07/06 Q1025 NOSIG;EQDQ01+000000PRSWM2Q02    003PRSWM1
0281074810999992000021517004+45730+005080SY-MT+0240LFLL V0201201N003110150019N0150001N1+00951+00661102111ADDAA199000021GA1021+012009999GA2071+015009999GF107991071081012501999999MA1102001099211MD1610251+9999MW1001REMSYN082AAXX  15174 07481 32665 71206 10095 20066 39921 40211 56025 878// 333 81840 87650;MET058LFLL 151700Z 12005KT 9999 FEW040 BKN050 10/07 Q1020 NOSIG;EQDQ01+000000PRSWM2
0289074810999992000021810004+45730+005080SY-MT+0240LFLL V0201401N005110072019N0080001N1+00321+00231101801ADDAA101000791GA1021+003009999GA2081+007209999GF108991999999999999999999MA1101591098841MD1810051+9999MW1611REMSYN070AAXX  18104 07481 26/// /1410 10032 20023 39884 40180 58005 333 69905;MET062LFLL 181000Z 14009KT 8000 -RA FEW010 OVC024 03/02 Q1016 NOSIG;EQDQ01+000003PRSWM1Q02    003PRSWM1
0269074810999992000022214004+45730+005080SY-MT+0240LFLL V0203201N001019999999N0300001N1+00671-00381102501ADDAA199000091GA1021+030009039GF105991021001999999031021MA1102401099561MD1710131+9999MW1001REMSYN082AAXX  22144 07481 32980 53202 10067 21038 39956 40250 57013 82032 333 82360 85075;MET046LFLL 221400Z 00000KT CAVOK 07/M03 Q1024 NOSIG;EQDQ01+000000PRSWM2Q02  00002PRCP99
0319074810999992000030105004+45730+005080SY-MT+0240LFLL V0202001N005110108019N0100001N1+00901+00701101011ADDAA101000491AY161999AY221999GA1021+004809999GA2081+010809999GF108991081081004501999999MA1100911098141MD1610201+9999MW1601MW2611REMSYN094AAXX  01054 07481 21460 82010 10090 20070 39814 40101 56020 76062 888// 333 69945 83816 88636;MET062LFLL 010500Z 20009KT 9999 -RA SCT016 OVC036 09/07 Q1009 NOSIG;EQDQ01    003PRSWM1
0354074810999992000030409004+45730+005080SY-MT+0240LFLL V0203601N005110150019N0250001N1+00621+00351102341ADDAA103000691AY161031AY221031GA1021+003009999GA2021+004809999GA3071+015009999GF107991041081004501031001MA1102201099401MD1110481+9999MW1031REMSYN100AAXX  04094 07481 21475 73610 10062 20035 39940 40234 51048 70362 84830 333 69967 82810 84816 85650;MET065LFLL 040900Z 35009KT 9999 FEW010 SCT016 BKN050 06/04 Q1022 NOSIG;EQDQ01+000000PRSWM2Q02    003PRSWM1
0213074810999992000030701004+45730+005080SY-MT+0240LFLL V0201701N003119999999Y0099001N1+00831-00101103021ADDAA199000091MA1102911100081MD1010011+9999MW1001REMSYN060AAXX  07014 07481 36/// /1706 10083 21010 30008 40302 50001;MET054LFLL 070100Z 17006KT 140V210 CAVOK 08/M01 Q1029 NOSIG;EQDQ01+000000PRSWM2Q02  00002PRCP99
0097074810999992000030716304+45730+005080FM-15+0240LFLL V0203601N00211220001CN0099001N1+01401+00201999999ADDMA1102811999999MW1001REMMET045LFLL 071730Z 36004KT CAVOK 14/02 Q1028 NOSIG;EQDQ01+000000PRSWM2
0230074810999992000030723004+45730+005080SY-MT+0240LFLL V0202401N001012200019N0200001N1+00651+00161103111ADDAA199000091GF100991001001999999001001MA1103011100151MD1110091+9999MW1001REMSYN060AAXX  07234 07481 32970 02402 10065 20016 30015 40311 51009;MET045LFLL 072300Z 24002KT CAVOK 07/02 Q1030 NOSIG;EQDQ01+000000PRSWM2Q02  00002PRCP99
0284074810999992000031015004+45730+005080SY-MT+0240LFLL V0203501N007212200019N0150001N1+01461+00671102791ADDAA199000091GA1021+009009999GF199999011011008001001001MA1102711099921MD1610101+9999MW1001REMSYN076AAXX  10154 07481 32565 13514 10146 20067 39992 40279 56010 81100 333 81830;MET051LFLL 101500Z 34013KT 9999 FEW030 15/06 Q1027 NOSIG;EQDQ01+000012SCOTCVQ02+000000PRSWM2Q03  00002PRCP99
0269074810999992000031419004+45730+005080SY-MT+0240LFLL V0203101N00101220001CN0112651N1+01331+00711102521ADDAA199000021GA1071+030009999GA2021+069009999MA1102511099651MD1110021+9999MW1611REMSYN060AAXX  14194 07481 36/// /3102 10133 20071 39965 40252 51002;MET062LFLL 141900Z VRB02KT 9999 -RA BKN100 SCT230 13/07 Q1025 NOSIG;EQDQ01+000042SCOTCVQ02+000003PRSWM1Q03    003PRSWM1
0230074810999992000032103004+45730+005080SY-MT+0240LFLL V0201901N002112200019N0200001N1+00401+00151102231ADDAA199000091GF100991001001999999001001MA1102101099271MD1710011+9999MW1001REMSYN060AAXX  21034 07481 32970 01904 10040 20015 39927 40223 57001;MET045LFLL 210300Z 19004KT CAVOK 04/01 Q1021 NOSIG;EQDQ01+000000PRSWM2Q02  00002PRCP99
0152074810999992000032808514+45730+005080FM-16+0240LFLL V0203301N001510027019N0060001N1+00301+00201999999ADDGA1081+002709999GF108991999999999999999999MA1100911999999MW1001REMMET058LFLL 280851Z 33003KT 6000 OVC009 03/02 Q1009 NOSIG RMK B2;EQDQ01+000000PRSWM2
0354074810999992000040413004+45730+005080SY-MT+0240LFLL V0202101N002110150019N0250001N1+01311+00861099261ADDAA101999929AY161999AY221999GA1021+009009999GA2071+015009999GA3071+030009999GF107991051081008001071999MA1099191096481MD1010011+9999MW1211REMSYN100AAXX  04134 07481 21575 72104 10131 20086 39648 49926 50001 72162 8587/ 333 69905 81830 85650 86360;MET065LFLL 041300Z 20003KT 9999 FEW030 BKN050 BKN100 13/08 Q0992 NOSIG;EQDQ01+000000PRSWM2Q02    003PRSWM1
0334074810999992000041605004+45730+005080SY-MT+0240LFLL V0201201N004110300019N0300001N1+00941+00521100181ADDAA199000091GA1021+012009999GA2071+030009999GA3071+069009999GF108991031051012501071021MA1100101097331MD1610181+9999MW1001REMSYN088AAXX  16054 07481 32680 81208 10094 20052 39733 40018 56018 83572 333 83640 85360 87073;MET073LFLL 160500Z 12007KT 080V150 9999 SCT040 BKN100 BKN230 09/05 Q1001 NOSIG;EQDQ01+000000PRSWM2Q02  00002PRCP99
0343074810999992000041622004+45730+005080SY-MT+0240LFLL V0202601N006210129019N0040001N1+01051+00881099981ADDAA101004091AY181999AY261999GA1021+006009999GA2071+012909999GA3081+027009999GF108991061071008001071999MA1099901097151MD1310301+9999MW1811REMSYN100AAXX  16224 07481 21540 82612 10105 20088 39715 49998 53030 78186 8677/ 333 60045 84720 86643 88359;MET070LFLL 162200Z 24013KT 4000 SHRA SCT020 BKN043 OVC090 11/09 Q0999 NOSIG;EQDQ01    003PRSWM1
0351074810999992000041718004+45730+005080SY-MT+0240LFLL V0201401N003110300019N0150001N1+01191+00551101061ADDAA199000091GA1021+013809999GA2071+030009999GF199999021011012501051999KA1999M+01341KA2999N+00761MA1101021098211MD1310091+9999MW1001REMSYN094AAXX  17184 07481 32665 61406 10119 20055 39821 40106 53009 8215/ 333 10134 20076 82846 85360;MET058LFLL 171800Z 14007KT 9999 FEW046 BKN100 12/05 Q1010 NOSIG;EQDQ01+000062SCOTCVQ02+000000PRSWM2Q03  00002PRCP99
0297074810999992000041912004+45730+005080SY-MT+0240LFLL V0203301N00411036001CN0400001N1+01421+00531101361ADDAA199000091GA1021+009909999GA2021+027009999GF106991041081012501031999MA1101291098531MD1110061+9999MW1001REMSYN082AAXX  19124 07481 32682 63308 10142 20053 39853 40136 51006 8483/ 333 83833 84359;MET058LFLL 191200Z 33009KT 9999 SCT033 SCT090 14/05 Q1013 NOSIG;EQDQ01+000000PRSWM2Q02  00002PRCP99
0284074810999992000042019004+45730+005080SY-MT+0240LFLL V0200801N001010690019N0300001N1+01681+00901101251ADDAA199000091GA1011+039009079GA2061+069009019GF106991011001999999041021MA1101291098451MD1310031+9999MW1001REMSYN082AAXX  20194 07481 32980 60802 10168 20090 39845 40125 53003 81042 333 81363 86073;MET045LFLL 201900Z VRB02KT CAVOK 17/08 Q1013 NOSIG;EQDQ01+000000PRSWM2Q02  00002PRCP99
0320074810999992000042214004+45730+005080SY-MT+0240LFLL V0202001N009812200019N0450001N1+02441+00881100941ADDAA199000091GA1021+015009999GA2021+069009999GF103991011011017501001021MA1101021098221MD1810191+9999MW1001OC101651REMSYN094AAXX  22144 07481 32783 32019 10244 20088 39822 40094 58019 81102 333 81850 83073 91035 91135;MET061LFLL 221400Z 20019G32KT 9999 FEW050 SCT230 24/09 Q1010 NOSIG;EQDQ01+000000PRSWM2Q02  00002PRCP99
0298074810999992000042722004+45730+005080SY-MT+0240LFLL V0201901N003110270019N0112651N1+01571+01091100541ADDAA199000091GA1021+015009999GA2071+027009999GA3071+060009999GF107991999999999999999999MA1100511097751MD1010091+9999MW1001REMSYN060AAXX  27224 07481 36/// /1906 10157 20109 39775 40054 50009;MET065LFLL 272200Z 19007KT 9999 FEW050 BKN090 BKN200 16/11 Q1005 NOSIG;EQDQ01+000000PRSWM2Q02  00002PRCP99
0312074810999992000042918004+45730+005080SY-MT+0240LFLL V0200401N003112200019N0400001N1+01501+00981101671ADDAA112000191GA1021+009009999GF199999011021008001031021KA1999M+01631KA2999N+00931MA1101591098841MD1310061+9999MW1001REMSYN094AAXX  29184 07481 12582 10406 10150 20098 39884 40167 53006 69922 81232 333 10163 20093 81830;MET051LFLL 291800Z 04005KT 9999 FEW030 15/10 Q1016 NOSIG;EQDQ01+000012SCOTCVQ02+000000PRSWM2
0246074810999992000050105004+45730+005080SY-MT+0240LFLL V0201801N002112200019N0200001N1+01251+00991101701ADDAA199000091GF102991011001999999081021MA1101691098851MD1310021+9999MW1001REMSYN076AAXX  01054 07481 32970 21804 10125 20099 39885 40170 53002 81082 333 81359;MET045LFLL 010500Z 18004KT CAVOK 13/10 Q1017 NOSIG;EQDQ01+000000PRSWM2Q02  00002PRCP99
0307074810999992000050213004+45730+005080SY-MT+0240LFLL V0203501N004112200019N0100001N1+02151+01511101351ADDAA199000091GA1021+006009999GA2021+009009099GF102991021091008001001001MA1101391098601MD1810131+9999MW1001REMSYN082AAXX  02134 07481 32560 23508 10215 20151 39860 40135 58013 82900 333 81820 81930;MET068LFLL 021300Z 35007KT 310V030 9999 FEW020 FEW030CB 21/15 Q1014 NOSIG;EQDQ01+000000PRSWM2Q02  00002PRCP99
0307074810999992000050801004+45730+005080SY-MT+0240LFLL V0201601N001010270019N0250001N1+01641+01241101621ADDAA101999929AY161999AY221999GA1021+018009999GA2071+027009999GF107991021051017501031001MA1101591098811MD1410001+9999MW1611REMSYN094AAXX  08014 07481 21775 71602 10164 20124 39881 40162 54000 76162 82530 333 69905 82656 87359;MET056LFLL 080100Z VRB01KT 9999 -RA FEW060 BKN090 16/12 Q1016;EQDQ01    003PRSWM1
0297074810999992000051307004+45730+005080SY-MT+0240LFLL V0203601N00101036001CN0060001N1+01691+01451102061ADDAA199000091GA1021+001809999GA2021+030009999GF106991011061002501051021MA1102001099241MD1210131+9999MW1001REMSYN082AAXX  13074 07481 32356 63602 10169 20145 39924 40206 52013 81652 333 83706 84360;MET058LFLL 130700Z VRB02KT 6000 SCT006 SCT100 17/14 Q1020 NOSIG;EQDQ01+000000PRSWM2Q02  00002PRCP99
0173074810999992000051807154+45730+005080FM-16+0240LFLL V0203401N00211220001CN0060001N1+01401+01301999999ADDGA1071+003609999GA2021+009909999MA1101491999999MW1001REMMET073LFLL 180715Z 34004KT 310V070 6000 BKN012 SCT033 14/13 Q1015 NOSIG RMK B2;EQDQ01+000042SCOTCVQ02+000000PRSWM2
0268074810999992000051819004+45730+005080SY-MT+0240LFLL V0203401N001012200019N0300001N1+01531+00811101291ADDAA199000091GA1021+010809999GF102991011011012501031001MA1101291098471MD1510021+9999MW1001REMSYN076AAXX  18194 07481 32680 23402 10153 20081 39847 40129 55002 81130 333 81836;MET051LFLL 181900Z 33003KT 9999 FEW036 15/08 Q1013 NOSIG;EQDQ01+000000PRSWM2Q02  00002PRCP99
0321074810999992000052910004+45730+005080SY-MT+0240LFLL V0200301N002110078019N0400001N1+01491+00771101941ADDAA199000091GA1071+007809999GA2021+012909999GF199999061081008001001001MA1101901099101MD1110071+9999MW1001REMSYN082AAXX  29104 07481 32582 60304 10149 20077 39910 40194 51007 86800 333 85826 83643;MET066LFLL 291000Z 03005KT 330V100 9999 BKN026 SCT043 15/09 Q1019 NOSIG;EQDQ01+000062SCOTCVQ02+000000PRSWM2Q03  00002PRCP99
0313074810999992000053104004+45730+005080SY-MT+0240LFLL V0201601N004110120019N0100001N1+01371+01241101791ADDAA101000291AY161999AY261999GA1071+012009999GA2071+030009999GF108991051051012501071999MA1101691098951MD1310081+9999MW1611REMSYN094AAXX  31044 07481 21660 81608 10137 20124 39895 40179 53008 76166 8557/ 333 69925 85640 87460;MET062LFLL 310400Z 16008KT 9999 -RA BKN040 BKN100 14/13 Q1017 NOSIG;EQDQ01    003PRSWM1
0284074810999992000060307004+45730+005080SY-MT+0240LFLL V0201701N003112200019N0300001N1+02151+01321101861ADDAA199000091GA1021+030009079GA2031+069009019GF103991021001999999081021MA1101901099091MD1310081+9999MW1001REMSYN082AAXX  03074 07481 32980 31706 10215 20132 39909 40186 53008 82082 333 82360 83073;MET045LFLL 030700Z 17006KT CAVOK 22/13 Q1019 NOSIG;EQDQ01+000000PRSWM2Q02  00002PRCP99
0305074810999992000061223004+45730+005080SY-MT+0240LFLL V0203401N003110150019N0400001N1+01851+01271102501ADDAA199000091GA1021+012009999GA2071+015009999GF107991071051012501999999MA1102511099681MD1810011+9999MW1001REMSYN082AAXX  12234 07481 32682 73406 10185 20127 39968 40250 58001 875// 333 81640 87650;MET066LFLL 122300Z 34007KT 310V020 9999 FEW040 BKN050 19/13 Q1025 NOSIG;EQDQ01+000000PRSWM2Q02  00002PRCP99
0284074810999992000061612004+45730+005800SY-MT+0240LFLL V0203301N007212200019N0300001N1+02431+01471102291ADDAA199000091GA1021+007809999GF199999011021008001001011MA1102301099531MD1810061+9999MW1001REMSYN076AAXX  16124 07481 32580 13314 10243 20147 39953 40229 58006 81201 333 81826;MET051LFLL 161200Z 33013KT 9999 FEW026 25/15 Q1023 NOSIG;EQDQ01+000012SCOTCVQ02+000000PRSWM2Q03  00002PRCP99
0312074810999992000062306004+45730+005800SY-MT+0240LFLL V0200101N004110150019N0300001N1+01691+01181102331ADDAA124999929GF107991071051017501001001GJ103069IA1019IA2999+01509KA1999M+01911KA2999N+01641MA1102301099501MD1310111+9999MW1001REMSYN106AAXX  23064 07481 32780 70108 10169 20118 39950 40233 53011 87500 333 10191 20164 30015 55051 79999 87650;MET045LFLL 230600Z 01008KT CAVOK 17/12 Q1023 NOSIG;EQDQ01+000000PRSWM2
0246074810999992000062322004+45730+005800SY-MT+0240LFLL V0203401N001012200019N0300001N1+01511+00921102221ADDAA199000091GF101991001001999999001011MA1102201099371MD1810011+9999MW1001REMSYN076AAXX  23224 07481 32980 13402 10151 20092 39937 40222 58001 80001 333 81073;MET045LFLL 232200Z VRB02KT CAVOK 15/09 Q1022 NOSIG;EQDQ01+000000PRSWM2Q02  00002PRCP99
0276074810999992000062412004+45730+005800SY-MT+0240LFLL V0203201N004110360019N0350001N1+01991+00861101871ADDAA199000091GA1021+012609999GF105991041081012501031011MA1101901099081MD1610091+9999MW1001REMSYN076AAXX  24124 07481 32681 53208 10199 20086 39908 40187 56009 84831 333 84842;MET059LFLL 241200Z 33009KT 290V010 9999 SCT042 20/09 Q1019 NOSIG;EQDQ01+000000PRSWM2Q02  00002PRCP99
0168074810999992000070222304+45730+005800FM-15+0240LFLL V0201801N003610750019N0112651N1+02601+01401999999ADDGA1021+015009999GA2071+075009999GF107991999999999999999999MA1101081999999MW1001REMMET058LFLL 022330Z 18007KT 9999 SCT050 BKN250 26/14 Q1011 NOSIG;EQDQ01+000000PRSWM2
0281074810999992000070807004+45730+005800SY-MT+0240LFLL V0203501N005110060019N0180001N1+01461+01161101771ADDAA199000021GA1071+006009999GA2081+009909999GF108991081081008001999999MA1101691098931MD1110141+9999MW1001REMSYN082AAXX  08074 07481 32568 83510 10146 20116 39893 40177 51014 888// 333 85820 88633;MET058LFLL 080700Z 35010KT 9999 BKN020 OVC033 15/12 Q1017 NOSIG;EQDQ01+000000PRSWM2
0318074810999992000071211004+45730+005800SY-MT+0240LFLL V0203301N005110048019N0300001N1+01471+01071101831ADDAA199000021GA1021+003009999GA2071+004809999GA3071+015009999GF107991071081004501999999MA1101801098991MD1310201+9999MW1001REMSYN088AAXX  12114 07481 32480 73310 10147 20107 39899 40183 53020 878// 333 81810 85816 85650;MET073LFLL 121100Z 34009KT 290V030 9999 FEW010 BKN016 BKN053 15/11 Q1018 NOSIG;EQDQ01+000000PRSWM2
0246074810999992000072005004+45730+005070SY-MT+0240LFLL V0200101N001019999999N0400001N1+01291+01081101881ADDAA199000091GF106991051001999999051091MA1101801099021MD1010051+9999MW1001REMSYN076AAXX  20054 07481 32982 60102 10129 20108 39902 40188 50005 85059 333 85359;MET045LFLL 200500Z 02002KT CAVOK 13/11 Q1018 NOSIG;EQDQ01+000000PRSWM2Q02  00002PRCP99
0325074810999992000072600004+45730+005070SY-MT+0240LFLL V0202601N00211036001CN0150001N1+01771+01501100971ADDAA103999929AY161061AY221061GA1021+013809999GA2021+030009999GF105991031051012501031001MA1101021098191MD1110051+9999MW1011REMSYN100AAXX  26004 07481 /1665 52604 10177 20150 39819 40097 51005 60021 70162 83530 333 69907 83646 84360;MET052LFLL 260000Z 24003KT 9999 SCT046 SCT100 18/15 Q1010;EQDQ01+000000PRSWM2Q02    003PRSWM1
0260074810999992000073009004+45730+005070SY-MT+0240LFLL V0200101N004112200019N0500001N1+02031+01251102341ADDAA199000021GA1021+009009999GF103991031011008001001001MA1102401099541MD1110051+9999MW1001REMSYN076AAXX  30094 07481 32584 30108 10203 20125 39954 40234 51005 83100 333 83830;MET059LFLL 300900Z 02008KT 330V050 9999 SCT030 20/12 Q1024 NOSIG;EQDQ01+000000PRSWM2
0284074810999992000080503004+45730+005070SY-MT+0240LFLL V0203401N004110750019N0300001N1+01551+01231101911ADDAA199000091GA1041+030009079GA2051+075009019GF106991041001999999031021MA1101901099081MD1810081+9999MW1001REMSYN082AAXX  05034 07481 32980 63408 10155 20123 39908 40191 58008 84032 333 84360 85075;MET045LFLL 050300Z 34008KT CAVOK 16/12 Q1019 NOSIG;EQDQ01+000000PRSWM2Q02  00002PRCP99
0408074810999992000080506004+45730+005070SY-MT+0240LFLL V0203401N004110300019N0300001N1+01501+01211101931ADDAA124000091GA1021+003009999GA2071+030009999GA3071+075009999GF199999021011004501081021GJ104749IA1099IA2999+01509KA1999M+02081KA2999N+01481MA1101901099091MD1110011+9999MW1001REMSYN118AAXX  05064 07481 32480 63408 10150 20121 39909 40193 51001 82182 333 10208 20148 31015 55079 70000 82810 85360 85075;MET065LFLL 050600Z 34007KT 9999 FEW010 BKN100 BKN250 15/12 Q1019 NOSIG;EQDQ01+000062SCOTCVQ02+000000PRSWM2
0364074810999992000080516004+45730+005070SY-MT+0240LFLL V0203301N00621024001CN0300001N1+01921+01361101981ADDAA199000021AY121999AY221999GA1021+004809999GA2021+015009999GA3071+024009999GF199999051081004501071999MA1102001099181MD1510001+9999MW1211REMSYN094AAXX  05164 07481 31480 63312 10192 20136 39918 40198 55000 72122 8587/ 333 82816 84650 86358;MET065LFLL 051600Z 33012KT 9999 FEW016 SCT050 BKN083 19/14 Q1020 NOSIG;EQDQ01+000062SCOTCVQ02+000000PRSWM2Q03    003PRSWM1
0097074810999992000081321304+45730+005070FM-15+0240LFLL V0202201N00151220001CN0099001N1+02401+01601999999ADDMA1101901999999MW1001REMMET045LFLL 132230Z 22003KT CAVOK 24/16 Q1019 NOSIG;EQDQ01+000000PRSWM2
0284074810999992000081417004+45730+005070SY-MT+0240LFLL V0200201N004112200019N0350001N1+03041+01681101831ADDAA199000091GA1021+015009999GF199999011021017501001021MA1102001099141MD1610061+9999MW1001REMSYN076AAXX  14174 07481 32781 10208 10304 20168 39914 40183 56006 81202 333 81850;MET051LFLL 141700Z 02007KT 9999 FEW050 30/17 Q1020 NOSIG;EQDQ01+000012SCOTCVQ02+000000PRSWM2Q03  00002PRCP99
0230074810999992000081523004+45730+005070SY-MT+0240LFLL V0201201N001012200019N0300001N1+02111+01691102041ADDAA199000091GF100991001001999999001001MA1102101099261MD1110041+9999MW1001REMSYN060AAXX  15234 07481 32980 01202 10211 20169 39926 40204 51004;MET045LFLL 152300Z VRB01KT CAVOK 21/17 Q1021 NOSIG;EQDQ01+000000PRSWM2Q02  00002PRCP99
0115074810999992000081913024+45730+005070FM-16+0240LFLL V0201901N00871220001CN0099001N1+03401+00901999999ADDMA1101291999999MW1001OC101441REMMET055LFLL 191302Z 19017/28KT CAVOK 34/09 Q1013 NOSIG RMK M0;EQDQ01+000000PRSWM2
0252074810999992000082301004+45730+005070SY-MT+0240LFLL V0209999C000012200019N0250001N1+01571+01461101771ADDAA101000291GA1011+075009019GF101991001001999999001021MA1101801098951MD1110011+9999MW1001REMSYN082AAXX  23014 07481 22975 10000 10157 20146 39895 40177 51001 80002 333 69925 81075;MET045LFLL 230100Z 00000KT CAVOK 16/15 Q1018 NOSIG;EQDQ01+000000PRSWM2
0199074810999992000083111304+45730+005070FM-15+0240LFLL V0202901N002110240019N0112651N1+01901+01401999999ADDGA1021+007809999GA2021+012909999GA3071+024009999GF107991999999999999999999MA1101191999999MW1001REMMET073LFLL 311130Z 29004KT 230V330 9999 FEW026 SCT043 BKN083 19/14 Q1012 NOSIG;EQDQ01+000000PRSWM2
0297074810999992000090404004+45730+005070SY-MT+0240LFLL V0203401N004112200019N0200001N1+01271+01111101801ADDAA199000091GA1021+004809999GA2021+030009999GF103991011081004501031001MA1101801098941MD1510001+9999MW1001REMSYN082AAXX  04044 07481 32470 33408 10127 20111 39894 40180 55000 81830 333 81816 83360;MET058LFLL 040400Z 34007KT 9999 FEW016 SCT100 13/11 Q1018 NOSIG;EQDQ01+000000PRSWM2Q02  00002PRCP99
0230074810999992000090723004+45730+005070SY-MT+0240LFLL V0200901N002112200019N0300001N1+01331+01011102031ADDAA199000091GF100991001001999999001001MA1102001099171MD1110111+9999MW1001REMSYN060AAXX  07234 07481 32980 00904 10133 20101 39917 40203 51011;MET045LFLL 072300Z 09003KT CAVOK 13/10 Q1020 NOSIG;EQDQ01+000000PRSWM2Q02  00002PRCP99
0262074810999992000090909004+45730+005070SY-MT+0240LFLL V0201901N002112200019N0250001N1+01951+01131102391ADDAA199000091GA1041+075009019GF104991001001999999001011MA1102401099581MD1110071+9999MW1001REMSYN076AAXX  09094 07481 32975 41904 10195 20113 39958 40239 51007 80001 333 84075;MET045LFLL 090900Z 16002KT CAVOK 20/11 Q1024 NOSIG;EQDQ01+000000PRSWM2Q02  00002PRCP99
0301074810999992000091607004+45730+005070SY-MT+0240LFLL V0200401N001010240019N0060001N1+01861+01731101551ADDAA199000091AY121999AY221999GA1071+024009999GF107991071001022501031999MA1101591098761MD1110091+9999MW1111MW2121REMSYN082AAXX  16074 07481 31856 70402 10186 20173 39876 40155 51009 71122 8703/ 333 87358;MET056LFLL 160700Z VRB02KT 6000 MIFG BKN080 19/17 Q1016 NOSIG;EQDQ01  00002PRCP99Q02    003PRSWM1
0213074810999992000091919524+45730+005070FM-16+0240LFLL V0202701N004110270019N0112651N1+01601+01401999999ADDGA1021+004509999GA2021+008109099GA3071+027009999GF107991999999999999999999MA1100311999999MW1001REMMET087LFLL 191952Z 27008KT 220V330 9999 SCT015 FEW027CB BKN090 16/14 Q1003 RETS NOSIG RMK B8;EQDQ01+000000PRSWM2
0278074810999992000092416004+45730+005070SY-MT+0240LFLL V0202001N005112200019N0750001N1+02491+00801101731ADDAA199000091GA1011+024009079GF102991011999022501081021MA1101801098991MD1310021+9999MW1001REMSYN076AAXX  24164 07481 32889 22010 10249 20080 39899 40173 53002 81082 333 81358;MET045LFLL 241600Z 20010KT CAVOK 25/08 Q1018 NOSIG;EQDQ01+000000PRSWM2Q02  00002PRCP99Q03    003SCOLCG
0292074810999992000092701004+45730+005070SY-MT+0240LFLL V0201901N002110750019N0150001N1+01931+01481102031ADDAA199000091GA1031+030009079GA2031+075009019GF105991031001999999081021MA1102001099231MD1110091+9999MW1001REMSYN082AAXX  27014 07481 32965 51904 10193 20148 39923 40203 51009 83082 333 83360 83075;MET053LFLL 270100Z 18004KT 150V220 CAVOK 19/15 Q1020 NOSIG;EQDQ01+000000PRSWM2Q02  00002PRCP99
0300074810999992000092718004+45730+005070SY-MT+0240LFLL V0201701N003112200019N0150001N1+02101+01371101741ADDAA199000091GA1021+075009019GF102991001001999999001021KA1999M+02371KA2999N+01591MA1101801098971MD1410001+9999MW1001REMSYN088AAXX  27184 07481 32/65 21706 10210 20137 39897 40174 54000 80002 333 10237 20159 82075;MET045LFLL 271800Z 17006KT CAVOK 21/14 Q1018 NOSIG;EQDQ01+000000PRSWM2Q02  00002PRCP99
0175074810999992000100403264+45730+005070FM-16+0240LFLL V0200501N001012200019N0112651N1+00901+00801999999ADDGA1021+003309999GA2021+069009999GF104991999999999999999999MA1102101999999MW1001REMMET065LFLL 040326Z 05002KT 9999 SCT011 SCT230 09/08 Q1021 NOSIG RMK B3;EQDQ01+000000PRSWM2
0386074810999992000101001004+45730+005070SY-MT+0240LFLL V0201901N008710180019N0100001N1+01171+00911100191ADDAA101003091AY161999AY261999GA1021+013809999GA2071+018009999GA3081+027009999GF108991031051012501071999MA1100101097371MD1610271+9999MW1601REMSYN112AAXX  10014 07481 21660 81917 10117 20091 39737 40019 56027 76066 8357/ 333 60035 83646 85656 88359 91029 91133;MET085LFLL 100100Z 19018KT 9999 R36L/1400VP1500 -RA SCT046 BKN060 OVC090 12/09 Q1001 NOSIG;EQDQ01+000000PRSWM2Q02    003PRSWM1
0262074810999992000101202004+45730+005070SY-MT+0240LFLL V0201901N004110240019N0250001N1+01021+00741099871ADDAA199000021GA1051+024009079GF105991051999022501031001MA1099801097041MD1110081+9999MW1001REMSYN076AAXX  12024 07481 32875 51908 10102 20074 39704 49987 51008 85030 333 85358;MET045LFLL 120200Z 19007KT CAVOK 10/07 Q0998 NOSIG;EQDQ01+000000PRSWM2Q02    003SCOLCG
0276074810999992000102410004+45730+005070SY-MT+0240LFLL V0202001N002110300019N0120001N1+01821+01241102541ADDAA199000021GA1011+018009059GA2061+030009079GF106991011051017501031001MA1102611099721MD1010031+9999MW1001REMSYN082AAXX  24104 07481 32762 62004 10182 20124 39972 40254 50003 81530 333 81656 86360;MET053LFLL 241000Z 20005KT 160V230 CAVOK 18/13 Q1026 NOSIG;EQDQ01+000000PRSWM2
0262074810999992000102420004+45730+005070SY-MT+0240LFLL V0201601N003112200019N0150001N1+01521+01201102311ADDAA199000091GA1031+069009019GF103991001001999999001021MA1102301099461MD1310041+9999MW1001REMSYN076AAXX  24204 07481 32/65 31606 10152 20120 39946 40231 53004 80002 333 83073;MET045LFLL 242000Z 15005KT CAVOK 15/12 Q1023 NOSIG;EQDQ01+000000PRSWM2Q02  00002PRCP99
0325074810999992000103109004+45730+005070SY-MT+0240LFLL V0201501N005110240019N0120001N1+00971+00781100721ADDAA103000691AY161031AY221031GA1021+004809999GA2071+024009999GF107991021081004501071999MA1100611097861MD1110231+9999MW1211REMSYN094AAXX  31094 07481 21462 71510 10097 20078 39786 40072 51023 72162 8287/ 333 69967 81816 87358;MET058LFLL 310900Z 16009KT 9999 FEW016 BKN080 10/08 Q1006 NOSIG;EQDQ01+000000PRSWM2Q02    003PRSWM1
0284074810999992000110206004+45730+005070SY-MT+0240LFLL V0201401N004119999999Y0099001N1+00921+00661999999ADDAA124000091GJ102529IA2999+00809KA1999M+01361KA2999N+00921MA1100611097821MD1810201+9999MW1001REMSYN094AAXX  02064 07481 36/// /1408 10092 20066 39782 4//// 58020 333 10136 20092 3/008 55042 70000;MET045LFLL 020600Z 15007KT CAVOK 09/07 Q1006 NOSIG;EQDQ01+000000PRSWM2Q02  00002PRCP24
0281074810999992000110401004+45730+005070SY-MT+0240LFLL V0202201N00101036001CN0250001N1+00841+00381101131ADDAA199000021GA1021+009909999GA2021+030009999GF107991041051012501031021MA1101021098241MD1110131+9999MW1001REMSYN082AAXX  04014 07481 32675 72202 10084 20038 39824 40113 51013 84532 333 84633 83360;MET058LFLL 040100Z VRB02KT 9999 SCT033 SCT100 08/04 Q1010 NOSIG;EQDQ01+000000PRSWM2
0252074810999992000110621004+45730+005070SY-MT+0240LFLL V0201901N008210180019N0300001N1+01161+00431098731ADDAA199000021GA1071+018009059GF107991071051017501999999MA1098711095941MD1310091+9999MW1001REMSYN082AAXX  06214 07481 32780 71916 10116 20043 39594 49873 53009 875// 333 87656 91129;MET045LFLL 062100Z 19015KT CAVOK 12/04 Q0987 NOSIG;EQDQ01+000000PRSWM2
0298074810999992000111302004+45730+005070SY-MT+0240LFLL V0202001N005110690019N0112651N1+01541+00951100421ADDAA199000091GA1021+015009999GA2021+030009999GA3071+069009999GF107991999999999999999999MA1100411097631MD1810061+9999MW1001REMSYN060AAXX  13024 07481 36/// /2010 10154 20095 39763 40042 58006;MET065LFLL 130200Z 20007KT 9999 FEW050 SCT100 BKN230 15/09 Q1004 NOSIG;EQDQ01+000000PRSWM2Q02  00002PRCP99
0284074810999992000112116004+45730+005070SY-MT+0240LFLL V0201801N005110750019N0500001N1+00961+00081100991ADDAA199000091GA1021+030009079GA2061+075009019GF106991021001999999031021MA1100911098121MD1510021+9999MW1001REMSYN082AAXX  21164 07481 32984 61810 10096 20008 39812 40099 55002 82032 333 82360 86075;MET045LFLL 211600Z 18009KT CAVOK 10/01 Q1009 NOSIG;EQDQ01+000000PRSWM2Q02  00002PRCP99
0310074810999992000112603004+45730+005070SY-MT+0240LFLL V0201501N00411075001CN0200001N1+00701+00591100861ADDAA199000021GA1021+015009999GA2021+030009999GA3071+075009999GF108991021051017501071021MA1100811097971MD1810081+9999MW1001REMSYN088AAXX  26034 07481 32770 81508 10070 20059 39797 40086 58008 82572 333 82650 83360 87075;MET065LFLL 260300Z 15008KT 9999 FEW050 SCT100 BKN250 07/06 Q1008 NOSIG;EQDQ01+000000PRSWM2
0354074810999992000112607004+45730+005070SY-MT+0240LFLL V0202001N005110138019N0250001N1+00901+00711100801ADDAA101000291AY161999AY221999GA1021+005109999GA2071+013809999GA3071+027009999GF108991061081004501071999MA1100711097931MD1310021+9999MW1211REMSYN100AAXX  26074 07481 21475 82010 10090 20071 39793 40080 53002 72162 8687/ 333 69925 82817 86646 87359;MET065LFLL 260700Z 20009KT 9999 FEW017 BKN046 BKN090 09/07 Q1007 NOSIG;EQDQ01+000000PRSWM2Q02    003PRSWM1
0326074810999992000112614004+45730+005070SY-MT+0240LFLL V0202601N005110750019N0400001N1+01221+00151101361ADDAA199000021GA1021+010809999GA2021+015009999GA3071+075009999GF199999041081012501081021MA1101291098501MD1010121+9999MW1001REMSYN088AAXX  26144 07481 32682 62610 10122 20015 39850 40136 50012 84882 333 83836 83650 85075;MET065LFLL 261400Z 26010KT 9999 SCT036 SCT050 BKN250 12/02 Q1013 NOSIG;EQDQ01+000062SCOTCVQ02+000000PRSWM2
0303074810999992000112909004+45730+005070SY-MT+0240LFLL V0201801N008710630019N0300001N1+01471+00861101481ADDAA199000091GA1021+009909999GA2071+063009999GF107991011051012501001021MA1101491098651MD1610041+9999MW1001REMSYN088AAXX  29094 07481 32680 71817 10147 20086 39865 40148 56004 81502 333 81633 87071 91129;MET058LFLL 290900Z 18017KT 9999 FEW033 BKN210 15/09 Q1015 NOSIG;EQDQ01+000000PRSWM2Q02  00002PRCP99
0305074810999992000113014004+45730+005070SY-MT+0240LFLL V0201901N003112200019N0250001N1+01691+00861101661ADDAA199000091GA1021+012009999GA2021+030009999GF103991021051012501031001MA1101691098851MD1510051+9999MW1001REMSYN082AAXX  30144 07481 32675 31906 10169 20086 39885 40166 55005 82530 333 82640 83360;MET066LFLL 301400Z 19007KT 160V250 9999 FEW040 SCT100 17/09 Q1017 NOSIG;EQDQ01+000000PRSWM2Q02  00002PRCP99
0310074810999992000120119004+45730+005070SY-MT+0240LFLL V0202001N007210300019N0300001N1+01481+00781101831ADDAA199000021GA1021+006009999GA2021+015009999GA3071+030009999GF108991031081008001041021MA1101801098991MD1110241+9999MW1001REMSYN088AAXX  01194 07481 32580 82014 10148 20078 39899 40183 51024 83842 333 81820 83650 85360;MET065LFLL 011900Z 20014KT 9999 FEW020 SCT053 BKN100 15/08 Q1018 NOSIG;EQDQ01+000000PRSWM2
0131074810999992000122115004+45730+005070FM-12+0240LFLL V0201301N003119999999N9999999N1+00841+00381101771ADDAA199000091MA1999999098871MD1610051+9999REMSYN060AAXX  21154 07481 36/// /1306 10084 20038 39887 40177 56005;EQDQ01  00002PRCP99
0233074810999992000122123004+45730+005070SY-MT+0240LFLL V0200501N001012200019N0080001N1+00171+00051101911ADDAA199000091GF100991001001999999001001MA1101691098931MD1010011+9999MW1001REMSYN060AAXX  21234 07481 32958 00502 10017 20005 39893 40191 50001;MET048LFLL 212300Z VRB01KT 8000 SKC 02/01 Q1017 NOSIG;EQDQ01+000000PRSWM2Q02  00002PRCP99
0363074810999992000122418004+45730+005070SY-MT+0240LFLL V0201201N001010150019N0200001N1+00601+00401099991ADDAA103000291AY161061AY221061GA1071+015009999GA2081+027009999GF108991051051017501071999KA1999M+00931KA2999N+00171MA1099901097111MD1810151+9999MW1601MW2611REMSYN112AAXX  24184 07481 /1770 81202 10060 20040 39711 49999 58015 69922 76062 8557/ 333 10093 20017 69927 85650 88359;MET062LFLL 241800Z 12003KT 9999 -RA BKN050 OVC090 06/04 Q0999 NOSIG;EQDQ01    003PRSWM1
0310074810999992000122517004+45730+005070SY-MT+0240LFLL V0201201N003110240019N0090001N1+00711+00641099631ADDAA199000021GA1021+006009999GA2021+012009999GA3071+024009999GF107991041081008001071999MA1099491096781MD1110041+9999MW1001REMSYN088AAXX  25174 07481 32559 71206 10071 20064 39678 49963 51004 8487/ 333 81820 84640 86358;MET065LFLL 251700Z 13004KT 9000 FEW020 SCT040 BKN080 07/06 Q0995 NOSIG;EQDQ01+000000PRSWM2
0285074810999992000122905004+45730+005070SY-MT+0240LFLL V0203001N001010300019N0130001N1+00131-00031099931ADDAA199000091GA1021+018009059GA2081+030009079GF108991021051017501071999MA1099801097001MD1310181+9999MW1001REMSYN082AAXX  29054 07481 32763 83002 10013 21003 39700 49993 53018 8257/ 333 82656 88360;MET046LFLL 290500Z 00000KT CAVOK 01/M00 Q0998 NOSIG;EQDQ01+000000PRSWM2Q02  00002PRCP99
0131074820999992000010404004+45980+005330FM-12+0257LFXA V0202001N003119999999N9999999N1+00341+00131102801ADDAA106000091MA1999999099671MD1810071+9999REMSYN060AAXX  04044 07482 36/// /2006 10034 20013 39967 40280 58007;EQDQ01  00002PRCP06
0246074820999992000011105004+45980+005330SY-MT+0257LFXA V0200101N004110015019N0050001N1+00241+00181103661ADDAA106000091GA1081+001509999GF108991999999999999999999MA1103491100491MD1310041+9999MW1001REMSYN060AAXX  11054 07482 36/// /0108 10024 20018 30049 40366 53004;MET045LFXA 110500Z 36008KT 5000 OVC005 02/02 Q1035;EQDQ01+000000PRSWM2Q02  00002PRCP06
0287074820999992000011208004+45980+005330SY-MT+0257LFXA V0209999C000010018019N0040001N1+00251+00241103301ADDAA106000091AY121999AY221999GA1081+001809999GF108991081051002501999999MA1103121100141MD1510001+9999MW1101REMSYN082AAXX  12084 07482 31340 80000 10025 20024 30014 40330 55000 71022 885// 333 88606;MET048LFXA 120800Z 00000KT 4000 BR OVC006 03/02 Q1031;EQDQ01  00002PRCP06Q02    003PRSWM1
0131074820999992000020323004+45980+005330FM-12+0257LFXA V0200601N003119999999N9999999N1-00061-00121103951ADDAA199000091MA1999999100741MD1110061+9999REMSYN060AAXX  03234 07482 36/// /0606 11006 21012 30074 40395 51006;EQDQ01  00002PRCP99
0240074820999992000021012004+45980+005330SY-MT+0257LFXA V0202101N005112200019N0150001N1+00931+00391102681ADDAA199000091GF102991001001999999001021MA1102611099621MD1810181+9999MW1001REMSYN076AAXX  10124 07482 32965 22110 10093 20039 39962 40268 58018 80002 333 82075;MET039LFXA 101200Z 21010KT CAVOK 09/04 Q1026;EQDQ01+000000PRSWM2Q02  00002PRCP99
0313074820999992000021115004+45980+005330SY-MT+0257LFXA V0203601N006210030019N0050001N1+00351+00281102831ADDAA103999929AY151031AY221031GA1071+003009999GA2021+006009999GF108991071071004501999999MA1102711099701MD1810041+9999MW1501MW2511REMSYN094AAXX  11154 07482 21450 83612 10035 20028 39970 40283 58004 75052 877// 333 69907 85710 83620;MET056LFXA 111500Z 36012KT 5000 -DZ BKN010 SCT020 04/03 Q1027;EQDQ01    003PRSWM1
0122074820999992000021122004+45980+005330FM-12+0257LFXA V0200301N003119999999N9999999N1+00331+00131102831ADDAA101000791MA1999999099701MD1710041+9999REMSYN070AAXX  11224 07482 26/// /0306 10033 20013 39970 40283 57004 333 69905;
0292074820999992000022016004+45980+005330SY-MT+0257LFXA V0200401N005110138019N0250001N1+00401-00181102811ADDAA199000091GA1021+006909999GA2071+013809999GF107991071081008001001001MA1102711099681MD1510011+9999MW1001REMSYN082AAXX  20164 07482 32575 70410 10040 21018 39968 40281 55001 87800 333 81823 87646;MET053LFXA 201600Z 04009KT 9999 FEW023 BKN046 04/M02 Q1027;EQDQ01+000000PRSWM2Q02  00002PRCP99
0131074820999992000022902004+45980+005330FM-12+0257LFXA V0201901N005119999999N9999999N1+01061+00451102531ADDAA199000091MA1999999099491MD1810111+9999REMSYN060AAXX  29024 07482 36/// /1910 10106 20045 39949 40253 58011;EQDQ01  00002PRCP99
0131074820999992000031321004+45980+005330FM-12+0257LFXA V0200201N002119999999N9999999N1+00681+00411102651ADDAA199000091MA1999999099561MD1310091+9999REMSYN060AAXX  13214 07482 36/// /0204 10068 20041 39956 40265 53009;EQDQ01  00002PRCP99
0253074820999992000031514004+45980+005330SY-MT+0257LFXA V0200101N011812200019N0300001N1+01031-00411102871ADDAA199000021GA1021+013809999GF104991041041012501001001MA1102811099811MD1310051+9999MW1001REMSYN082AAXX  15144 07482 32680 40123 10103 21041 39981 40287 53005 84400 333 84646 91137;MET046LFXA 151400Z 01024KT 9999 SCT046 10/M04 Q1028;EQDQ01+000000PRSWM2
0131074820999992000031522004+45980+005330FM-12+0257LFXA V0200101N006219999999N9999999N1+00261-00481103141ADDAA199000091MA1999999099991MD1210021+9999REMSYN060AAXX  15224 07482 36/// /0112 10026 21048 39999 40314 52002;EQDQ01  00002PRCP99
0131074820999992000031817004+45980+005330FM-12+0257LFXA V0203601N007219999999N9999999N1+00821+00241102551ADDAA199000091MA1999999099481MD1310011+9999REMSYN060AAXX  18174 07482 36/// /3614 10082 20024 39948 40255 53001;EQDQ01  00002PRCP99
0278074820999992000032207004+45980+005330SY-MT+0257LFXA V0201801N007212200019N0090001N1+00751+00361102081ADDAA199000091GA1021+009009999GF199999011051008001001001MA1102001099021MD1310011+9999MW1001REMSYN076AAXX  22074 07482 32559 11814 10075 20036 39902 40208 53001 81500 333 81630;MET045LFXA 220700Z 18012KT 9000 FEW030 08/04 Q1020;EQDQ01+000012SCOTCVQ02+000000PRSWM2Q03  00002PRCP99
0291074820999992000032905004+45980+005330SY-MT+0257LFXA V0203301N002110039019N0070001N1+00341+00211100581ADDAA199000091GA1021+001209999GA2071+003909999GF108991071051001501999999MA1100511097521MD1510041+9999MW1001REMSYN082AAXX  29054 07482 32257 83304 10034 20021 39752 40058 55004 875// 333 83704 87613;MET052LFXA 290500Z 33004KT 7000 SCT004 BKN013 03/02 Q1005;EQDQ01+000000PRSWM2Q02  00002PRCP99
0122074820999992000032917004+45980+005330FM-12+0257LFXA V0209999C000019999999N9999999N1+00401+00271101191ADDAA101000191MA1999999098111MD1310141+9999REMSYN070AAXX  29174 07482 26/// /0000 10040 20027 39811 40119 53014 333 69925;
0291074820999992000033115004+45980+005330SY-MT+0257LFXA V0202001N007210270019N0300001N1+01101+00351100641ADDAA199000091GA1021+012909999GA2071+027009999GF108991021051012501071999MA1100611097661MD1610161+9999MW1001REMSYN082AAXX  31154 07482 32680 82014 10110 20035 39766 40064 56016 8257/ 333 82643 87359;MET052LFXA 311500Z 20013KT 9999 FEW043 BKN090 11/04 Q1006;EQDQ01+000000PRSWM2Q02  00002PRCP99
0112074820999992000040122004+45980+005330FM-12+0257LFXA V0200801N001019999999N9999999N1+00391+00131100801ADDAA199000021MA1999999097731MD1810041+9999REMSYN060AAXX  01224 07482 36/// /0802 10039 20013 39773 40080 58004;
0291074820999992000040605004+45980+005330SY-MT+0257LFXA V0203501N006210039019N0070001N1+00491+00371101751ADDAA199000091GA1021+001809999GA2071+003909999GF108991071051002501999999MA1101591098671MD1310061+9999MW1001REMSYN082AAXX  06054 07482 32357 83512 10049 20037 39867 40175 53006 875// 333 82706 85613;MET052LFXA 060500Z 35011KT 7000 FEW006 BKN013 05/04 Q1016;EQDQ01+000000PRSWM2Q02  00002PRCP99
0112074820999992000041320004+45980+005330FM-12+0257LFXA V0201801N004119999999N9999999N1+01371+00611100351ADDAA199000021MA1999999097401MD1310131+9999REMSYN060AAXX  13204 07482 36/// /1808 10137 20061 39740 40035 53013;
0278074820999992000041807004+45980+005330SY-MT+0257LFXA V0200201N001012200019N0300001N1+00391+00301101351ADDAA199000091GA1021+012009999GF199999011051012501031021MA1101191098271MD1010061+9999MW1001REMSYN076AAXX  18074 07482 32680 10202 10039 20030 39827 40135 50006 81532 333 81640;MET045LFXA 180700Z 02002KT 9999 FEW040 04/03 Q1012;EQDQ01+000012SCOTCVQ02+000000PRSWM2Q03  00002PRCP99
0173074820999992000041918004+45980+005330FM-12+0257LFXA V0200101N004119999999N9999999N1+01261+00601101451ADDAA199000091KA1999M+01501KA2999N+00901MA1999999098461MD1310021+9999REMSYN076AAXX  19184 07482 36/// /0108 10126 20060 39846 40145 53002 333 10150 20090;EQDQ01  00002PRCP99
0189074820999992000043012004+45980+005330FM-12+0257LFXA V0203401N002112200019N0150001N1+01961+01161101831ADDAA199000091GA1021+009009029GF102991021021008001001011MA1999999098901MD1710131+9999REMSYN076AAXX  30124 07482 32565 23404 10196 20116 39890 40183 57013 82201 333 82830;EQDQ01  00002PRCP99
0189074820999992000050114004+45980+005330FM-12+0257LFXA V0200101N003112200019N0200001N1+02331+01231101371ADDAA199000091GA1031+009909029GF103991031021012501001001MA1999999098491MD1610151+9999REMSYN076AAXX  01144 07482 32670 30106 10233 20123 39849 40137 56015 83200 333 83833;EQDQ01  00002PRCP99
0312074820999992000050514004+45980+005330SY-MT+0257LFXA V0201901N00311069001CN0170001N1+02461+01011101041ADDAA199000021GA1021+012009999GA2021+024009999GA3071+069009999GF107991021021012501081021MA1101081098181MD1710161+9999MW1001REMSYN088AAXX  05144 07482 32667 71906 10246 20101 39818 40104 57016 82282 333 82840 84358 86073;MET067LFXA 051400Z 19007KT 100V240 9999 FEW040 SCT083 BKN230 25/09 Q1011;EQDQ01+000000PRSWM2
0160074820999992000050618004+45980+005330FM-12+0257LFXA V0209999C000019999999N9999999N1+01681+01371101161ADDAA112002091KA1999M+02081KA2999N+01251MA1999999098231MD1510031+9999REMSYN082AAXX  06184 07482 16/// /0000 10168 20137 39823 40116 55003 60022 333 10208 20125;
0368074820999992000050706004+45980+005330SY-MT+0257LFXA V0201601N002112200019N0170001N1+01251+01071101561ADDAA124002491GA1011+024009079GA2031+075009019GF103991011999022501081011GJ101269IA1099IA2999+00909KA1999M+01681KA2999N+01041MA1101491098571MD1310111+9999MW1001REMSYN112AAXX  07064 07482 32867 31604 10125 20107 39857 40156 53011 81081 333 10168 20104 31009 55021 70024 81358 83075;MET047LFXA 070600Z 16004KT 100V200 CAVOK 13/11 Q1015;EQDQ01+000000PRSWM2Q02    003SCOLCG
0278074820999992000051105004+45980+005330SY-MT+0257LFXA V0201201N001012200019N0100001N1+01131+01071101561ADDAA199000091GA1021+012009999GF199999011051012501031001MA1101491098561MD1110061+9999MW1001REMSYN076AAXX  11054 07482 32660 11202 10113 20107 39856 40156 51006 81530 333 81640;MET045LFXA 110500Z 13003KT 9999 FEW040 11/11 Q1015;EQDQ01+000012SCOTCVQ02+000000PRSWM2Q03  00002PRCP99
0262074820999992000052214004+45980+005330SY-MT+0257LFXA V0203401N004112200019N0500001N1+01681+00691101931ADDAA199000091GA1021+009909999GF102991021021012501001001MA1101901098971MD1810031+9999MW1001REMSYN076AAXX  22144 07482 32684 23408 10168 20069 39897 40193 58003 82200 333 82833;MET045LFXA 221400Z 34008KT 9999 FEW033 17/07 Q1019;EQDQ01+000000PRSWM2Q02  00002PRCP99
0305074820999992000052404004+45980+005330SY-MT+0257LFXA V0200201N002112200019N0150001N1+00801+00711101991ADDAA199000091AY101999AY201999GA1021+024009999GF199999011001022501081001MA1101901098941MD1610021+9999MW1121REMSYN082AAXX  24044 07482 31865 10204 10080 20071 39894 40199 56002 71200 81080 333 81358;MET050LFXA 240400Z 02003KT 9999 MIFG FEW080 08/07 Q1019;EQDQ01+000012SCOTCVQ02  00002PRCP99Q03    003PRSWM1
0131074820999992000052522004+45980+005330FM-12+0257LFXA V0200401N002119999999N9999999N1+01351+01141101921ADDAA199000091MA1999999098931MD1010041+9999REMSYN060AAXX  25224 07482 36/// /0404 10135 20114 39893 40192 50004;EQDQ01  00002PRCP99
0256074820999992000060305004+45980+005330SY-MT+0257LFXA V0209999C000012200019N0150001N1+01661+01191101871ADDAA199000091GA1011+030009079GF101991011001999999081011MA1101901098911MD1510001+9999MW1001REMSYN076AAXX  03054 07482 32965 10000 10166 20119 39891 40187 55000 81081 333 81360;MET039LFXA 030500Z 00000KT CAVOK 17/12 Q1019;EQDQ01+000000PRSWM2Q02  00002PRCP99
0131074820999992000060720004+45980+005330FM-12+0257LFXA V0200101N004119999999N9999999N1+01491+00861102101ADDAA199000091MA1999999099121MD1310011+9999REMSYN060AAXX  07204 07482 36/// /0108 10149 20086 39912 40210 53001;EQDQ01  00002PRCP99
