0203585060999992000021418004+29580+115980FM-12+116599999V0203601N005010003019N0005001N1+00051+00001102831ADDAA199000091AY141061AY241061GA1091+999999999GF109991091999999999999999KA1999M+00231MD1710021+9999MW1431REMSYN070AAXX  14181 58506 31/05 93605 10005 20000 40283 57002 74344 333 10023;EQDQ01  00002PRCP99
0190585060999992000031018004+29580+115980FM-12+116599999V0209999C000010001519N0000001N1+00061+00061101931ADDAA106000891AY161061AY241061GA1091+999999999GF109991091999999999999999KA1999M+00501MD1710091+9999MW1451REMSYN076AAXX  10181 58506 11/00 90000 10006 20006 40193 57009 69971 74564 333 10050;
0162585060999992000031312004+29580+115980FM-12+116599999V0209999C000010150019N0150001N1+00421+00281102031ADDAA199000091AY141061GF108991081051017501999999MD1210041+9999MW1001REMSYN066AAXX  13121 58506 31765 80000 10042 20028 40203 52004 70040 885//;EQDQ01  00002PRCP99
0193585060999992000032000004+29580+115980FM-12+116599999V0201401N011010090019N0150001N1+00881+00551101671ADDAA199000091GF107991071081004501999999IA2999+00439MD1210031-0301OA130601701REMSYN088AAXX  20001 58506 32465 71411 10088 20055 40167 52003 878// 333 05301 30043 91117 91516;EQDQ01  00002PRCP99
0112585060999992000050509004+29580+115980FM-12+116599999V0202501N001019999999N0300001N1+02231+01041101301ADDGF107991001001999999001021MD1710031+9999REMSYN060AAXX  05091 58506 42980 72501 10223 20104 40130 57003 80002;
0167585060999992000050912004+29580+115980FM-12+116599999V0203601N004010001519N0000001N1+01381+01381101031ADDAA106008991AY161061AY241061GA1091+999999999GF109991091999999999999999MD1210161+9999MW1451REMSYN066AAXX  09121 58506 11/00 93604 10138 20138 40103 52016 60091 74564;
0122585060999992000051021004+29580+115980FM-12+116599999V0201401N001012200019N0150001N1+01571+00401101061ADDGA1001+999999999GF100991001001999999001001MD1710011+9999REMSYN054AAXX  10211 58506 42965 01401 10157 20040 40106 57001;
0190585060999992000052518004+29580+115980FM-12+116599999V0202701N005010001519N0000001N1+01871+01871100151ADDAA106004191AY181061AY241061GA1091+999999999GF109991091999999999999999KA1999M+01971MD1210051+9999MW1601REMSYN076AAXX  25181 58506 11/00 92705 10187 20187 40015 52005 60041 76084 333 10197;
0175585060999992000053118004+29580+115980FM-12+116599999V0202001N004012200019N0200001N1+01901+01791100731ADDAA199000091GA1001+999999999GF100991001001999999001001KA1999M+02211MD1710041+9999REMSYN064AAXX  31181 58506 32970 02004 10190 20179 40073 57004 333 10221;EQDQ01  00002PRCP99
0112585060999992000053121004+29580+115980FM-12+116599999V0202501N003012200019N0220001N1+01991+01781100731ADDGF101991011001999999041001MD1210041+9999REMSYN060AAXX  31211 58506 42972 12503 10199 20178 40073 52004 81040;
0161585060999992000060321004+29580+115980FM-12+116599999V0203201N001019999999N0080001N1+01821+01791100571ADDAA124011991AY191031AY281031GF108991081091999999999999MD1710031+9999MW1951REMSYN076AAXX  03211 58506 41/58 83201 10182 20179 40057 57003 79598 889// 333 70119;
0112585060999992000061209004+29580+115980FM-12+116599999V0200201N008012200019N0150001N1+01671+00991101061ADDGF101991001001999999001021MD1710071+9999REMSYN060AAXX  12091 58506 42965 10208 10167 20099 40106 57007 80002;
0112585060999992000062721004+29570+115970FM-12+116599999V0202001N004012200019N0300001N1+02201+01741100661ADDGF102991001001999999001021MD1410001+9999REMSYN060AAXX  27211 58506 42980 22004 10220 20174 40066 54000 80002;
0112585060999992000072121004+29570+115970FM-12+116599999V0202001N002012200019N0300001N1+02171+01691100681ADDGF101991011001999999041001MD1710031+9999REMSYN060AAXX  21211 58506 42980 12002 10217 20169 40068 57003 81040;
0142585060999992000080112004+29570+115970FM-12+116599999V0200701N004012200019N0230001N1+02141+01811100641ADDAA199000091GF102991001001999999001021MD1210041+9999REMSYN060AAXX  01121 58506 32973 20704 10214 20181 40064 52004 80002;EQDQ01  00002PRCP99
0153585060999992000080521004+29570+115970FM-12+116599999V0201601N003010075019N0160001N1+02021+01961100881ADDAA124004391AY181031GF108991081041008001999999MD1710011+9999MW1251REMSYN076AAXX  05211 58506 41566 81603 10202 20196 40088 57001 72580 884// 333 70044;
0134585060999992000081609004+29570+115970FM-12+116599999V0200201N002010003019N0005001N1+02311+02201100341ADDGA1091+999999999GF109991091999999999999999MD1710011+9999MW1471REMSYN060AAXX  16091 58506 41/05 90202 10231 20220 40034 57001 74700;
0167585060999992000082412004+29570+115970FM-12+116599999V0203601N007010001519N0000001N1+02041+02041100141ADDAA106021191AY181061AY241061GA1091+999999999GF109991091999999999999999MD1210041+9999MW1801REMSYN066AAXX  24121 58506 11/00 93607 10204 20204 40014 52004 60211 78084;
0205585060999992000082718004+29570+115970FM-12+116599999V0201101N003010003019N0005001N1+01951+01951100791ADDAA106001091AY141061GA1091+999999999GF109991091999999999999999KA1240M+02051MD1710081+9999MW1801OA130601801REMSYN088AAXX  27181 58506 11/05 91103 10195 20195 40079 57008 60011 78040 333 10205 91118 91507;
0183585060999992000090800004+29570+115970FM-12+116599999V0200701N005010006019N0009001N1+01051+01051101851ADDAA106000191AY161061AY241061GA1091+999999999GF109991091999999999999999MD1210081+0201MW1431REMSYN082AAXX  08001 58506 11/09 90705 10105 20105 40185 52008 69921 74364 333 00251 70099;
0150585060999992000120203004+29570+115970FM-12+116599999V0209999C000010001519N0000001N1+00391+00391102771ADDAY161031AY241031GA1091+999999999GF109991091999999999999999MD1210111+9999MW1601REMSYN060AAXX  02031 58506 41/00 90000 10039 20039 40277 52011 76064;
0112585060999992000120909004+29570+115970FM-12+116599999V0202001N004019999999N0250001N1+01381+00711101511ADDGF107991071001999999041999MD1210021+9999REMSYN060AAXX  09091 58506 42975 72004 10138 20071 40151 52002 8704/;
0158585190999992000010900004+29080+116880FM-12+003199999V0203601N001019999999N0120001N1+00581+00501102111ADDAA106000091GF108991081001999999071999MD1210201+0101REMSYN076AAXX  09001 58519 32962 83601 10058 20050 40211 52020 8807/ 333 00151 70211;EQDQ01  00002PRCP06
0172585190999992000012206004+29080+116880FM-12+003199999V0200401N001010150019N0110001N1+00721+00621102471ADDAA106000591AY161061GF108991081051017501999999KA1999N+00411MD1710191+9999MW1211REMSYN082AAXX  22061 58519 11761 80401 10072 20062 40247 57019 69941 72160 885// 333 20041;
0112585190999992000012721004+29080+116880FM-12+003199999V0203601N002012200019N0180001N1-00281-00591103481ADDGF102991021001999999041001MD1710061+9999REMSYN060AAXX  27211 58519 42968 23602 11028 21059 40348 57006 82040;
0165585190999992000033006004+29080+116880FM-12+003199999V0200901N002010360019N0180001N1+02031+01021101161ADDAA199000091GF107991011011008001071999KA1999N+01351MD1710251+9999REMSYN070AAXX  30061 58519 32568 70902 10203 20102 40116 57025 8117/ 333 20135;EQDQ01  00002PRCP99
0134585270999992000010303004+29300+117200FM-12+006099999V0200401N001012200019N0020001N1+00951+00551101941ADDGA1001+999999999GF100991001001999999001001MD1710081+9999MW1101REMSYN060AAXX  03031 58527 41920 00401 10095 20055 40194 57008 71000;
0198585270999992000010406004+29300+117200FM-12+006099999V0203201N002010360019N0040001N1+01981+00951101321ADDAA106000091GF106991011011008001041001KA1999N+00641MA1999999100561MD1710321+9999MW1041REMSYN082AAXX  04061 58527 31540 63202 10198 20095 30056 40132 57032 70400 81140 333 20064;EQDQ01  00002PRCP06
0124585270999992000010409004+29300+117200FM-12+006099999V0209999C000010120019N0040001N1+01741+01141101271ADDGF107991071051012501041999MD1710051+9999MW1041REMSYN066AAXX  04091 58527 41640 70000 10174 20114 40127 57005 70400 8754/;
0166585270999992000012818004+29300+117200FM-12+006099999V0209999C000019999999N0100001N1+00191-00161103161ADDAA199000091GF108991081001999999071999KA1999M+00551MA1999999102361REMSYN070AAXX  28181 58527 32960 80000 10019 21016 30236 40316 8807/ 333 10055;EQDQ01  00002PRCP99
0124585270999992000012903004+29300+117200FM-12+006099999V0209999C000019999999N0020001N1+00251-00221103521ADDGF108991081001999999071999MD1210121+9999MW1101REMSYN066AAXX  29031 58527 41920 80000 10025 21022 40352 52012 71000 8807/;
0167585270999992000030506004+29300+117200FM-12+006099999V0209999C000010120019N0200001N1+01441+01161101591ADDAA199000021GF108991071081008001071999KA1999N+01161MA1999999100831MD1710131+9999REMSYN076AAXX  05061 58527 32570 80000 10144 20116 30083 40159 57013 8787/ 333 20116;
0124585270999992000032509004+29300+117200FM-12+006099999V0209999C000019999999N0060001N1+01421+00751102241ADDGF108991081001999999071999MD1710071+9999MW1061REMSYN066AAXX  25091 58527 41956 80000 10142 20075 40224 57007 70600 8807/;
0193585270999992000040818004+29300+117200FM-12+006099999V0200201N001010042019N0080001N1+01581+01401101321ADDAA106002091AY161061GF108991071071004501021999KA1999M+02131MA1999999100581MD1410001+9999MW1611REMSYN088AAXX  08181 58527 11458 80201 10158 20140 30058 40132 54000 60021 76160 8772/ 333 10213;
0132585270999992000041409004+29300+117200FM-12+006099999V0203201N006010075019N0300001N1+01331+01081100871ADDAY161031GF108991071051008001071999MD1210351+9999MW1001REMSYN066AAXX  14091 58527 41580 83206 10133 20108 40087 52035 70060 8757/;
0132585270999992000041915004+29300+117200FM-12+006099999V0200701N002010021019N0080001N1+02031+01951100941ADDAY161031GF108991071071002501021999MD1210021+9999MW1601REMSYN066AAXX  19151 58527 41358 80702 10203 20195 40094 52002 76060 8772/;
0124585270999992000042303004+29300+117200FM-12+006099999V0200201N002019999999N0070001N1+02301+01541101281ADDGF107991071001999999041021MD1710081+9999MW1041REMSYN066AAXX  23031 58527 41957 70202 10230 20154 40128 57008 70400 87042;
0134585270999992000051303004+29300+117200FM-12+006099999V0203401N002012200019N0060001N1+02881+01941100771ADDGA1001+999999999GF100991001001999999001001MD1710061+9999MW1041REMSYN060AAXX  13031 58527 41956 03402 10288 20194 40077 57006 70400;
0198585270999992000053118004+29300+117200FM-12+006099999V0209999C000019999999N0060001N1+02211+02131100591ADDAA199000091GF107991071001999999041001KA1999M+02761MA1999999099871MD1410001+9999MW1101REMSYN082AAXX  31181 58527 31956 70000 10221 20213 39987 40059 54000 71000 87040 333 10276;EQDQ01  00002PRCP99
0112585270999992000060109004+29300+117200FM-12+006099999V0202201N001010360019N0150001N1+03321+02531100511ADDGF107991021021008001041001MD1710121+9999REMSYN060AAXX  01091 58527 42565 72201 10332 20253 40051 57012 82240;
0112585270999992000061615004+29290+117190FM-12+006099999V0209999C000012200019N0180001N1+02601+02191100811ADDGF104991041051012501001001MD1210191+9999REMSYN060AAXX  16151 58527 42668 40000 10260 20219 40081 52019 84500;
0193585270999992000070206004+29290+117190FM-12+006099999V0209999C000010360019N0200001N1+03091+02271100721ADDAA106000791AY161061GF107991011051017501041999KA1999N+02391MA1999999100001MD1710191+9999MW1001REMSYN088AAXX  02061 58527 11770 70000 10309 20227 30000 40072 57019 69901 70060 8154/ 333 20239;
0112585270999992000071403004+29290+117190FM-12+006099999V0202201N002012200019N0300001N1+03521+02141100451ADDGF101991011011008001001001MD1210011+9999REMSYN060AAXX  14031 58527 42580 12202 10352 20214 40045 52001 81100;
0201585270999992000072906004+29290+117190FM-12+006099999V0202201N003010120019N0080001N1+02701+02571099861ADDAA106002091AY191061AY281061GF108991071091012501071999KA1999N+02611MA1999999099151MD1710121+9999MW1171REMSYN088AAXX  29061 58527 11658 82203 10270 20257 39915 49986 57012 60021 71798 8797/ 333 20261;
0194585270999992000073000004+29290+117190FM-12+006099999V0202501N001010360019N0050001N1+02541+02481100281ADDAA106003091AY181061AY261061GF107991031051012501041999MA1999999099561MD1210151+0301MW1101REMSYN094AAXX  30001 58527 11650 72501 10254 20248 39956 40028 52015 60031 71086 8354/ 333 00354 70234;
0163585270999992000073012004+29290+117190FM-12+006099999V0202201N002019999999N0100001N1+02841+02321100161ADDAA199000091GF107991071001999999041999MA1999999099451MD1210111+9999REMSYN066AAXX  30121 58527 32960 72202 10284 20232 39945 40016 52011 8704/;EQDQ01  00002PRCP99
0178585270999992000081012004+29290+117190FM-12+006099999V0203201N001019999999N0100001N1+02781+02511100141ADDAA106000891AY191061AY281061GF107991001001999999001021MA1999999099431MD1210021+9999MW1001REMSYN078AAXX  10121 58527 11960 73201 10278 20251 39943 40014 52002 69981 70098 80002;
0163585270999992000081312004+29290+117190FM-12+006099999V0209999C000019999999N0120001N1+02941+02611100291ADDAA199000091GF106991021001999999041021MA1999999099581MD1210141+9999REMSYN066AAXX  13121 58527 32962 60000 10294 20261 39958 40029 52014 82042;EQDQ01  00002PRCP99
0185585270999992000081500004+29290+117190FM-12+006099999V0209999C000019999999N0050001N1+02721+02481100481ADDAA199000091GF107991071001999999041999MA1999999099761MD1210181+0011MW1101REMSYN082AAXX  15001 58527 31950 70000 10272 20248 39976 40048 52018 71000 8704/ 333 00100;EQDQ01  00002PRCP99
0161585270999992000102121004+29290+117190FM-12+006099999V0209999C000010150019N0080001N1+02001+01971101251ADDAA124010291AY161031AY261031GF108991081051017501999999MD1710111+9999MW1601REMSYN076AAXX  21211 58527 41758 80000 10200 20197 40125 57011 76066 885// 333 70101;
0201585270999992000102606004+29290+117190FM-12+006099999V0203601N002010012019N0040001N1+01701+01651102071ADDAA106001091AY161061AY261061GF108991071071001501021999KA1999N+01621MA1999999101321MD1710151+9999MW1611REMSYN088AAXX  26061 58527 11240 83602 10170 20165 30132 40207 57015 60011 76166 8772/ 333 20162;
0134585270999992000110415004+29290+117190FM-12+006099999V0209999C000012200019N0080001N1+01251+01101101991ADDGA1001+999999999GF100991001001999999001001MD1710011+9999MW1101REMSYN060AAXX  04151 58527 41958 00000 10125 20110 40199 57001 71000;
0208585270999992000112118004+29290+117190FM-12+006099999V0200201N002012200019N0060001N1+00361+00211102701ADDAA199000091GA1001+999999999GF100991001001999999001001KA1999M+01301MA1999999101921MD1710131+9999MW1101REMSYN076AAXX  21181 58527 31956 00202 10036 20021 30192 40270 57013 71000 333 10130;EQDQ01  00002PRCP99
0112585270999992000121009004+29290+117190FM-12+006099999V0203601N003010120019N0150001N1+01171+00971102481ADDGF108991081051012501999999MD1210161+9999REMSYN060AAXX  10091 58527 42665 83603 10117 20097 40248 52016 885//;
0186585270999992000122106004+29290+117190FM-12+006099999V0201401N002012200019N0150001N1+01001+00191102511ADDAA199000091GF101991011011008001001001KA1999N+00281MA1999999101731MD1710331+9999REMSYN076AAXX  21061 58527 32565 11402 10100 20019 30173 40251 57033 81100 333 20028;EQDQ01  00002PRCP99
0165585310999992000010500004+29750+118250FM-12+006199999V0202001N002019999999N0080001N1+01021+00981101461ADDAA106000591AY161061GF107991071001999999041999MD1210061-0401MW1211REMSYN088AAXX  05001 58531 11958 72002 10102 20098 40146 52006 69951 72160 8704/ 333 05408 70005;
0195585310999992000021506004+29750+118250FM-12+006199999V0201101N002012200019N0250001N1+01221-00451102491ADDAA199000091AY141061GA1001+999999999GF100991001001999999001001KA1999N+00031MD1710281+9999MW1001REMSYN070AAXX  15061 58531 31975 01102 10122 21045 40249 57028 70040 333 20003;EQDQ01  00002PRCP99
0156585490999992000012318004+29150+119630FM-12+003599999V0201101N005010120019N0100001N1+00511+00371102691ADDGF108991081051012501999999KA1999M+00871REMSYN070AAXX  23181 58549 11660 81105 10051 20037 40269 57777 885// 333 10087;EQDQ01+000077APCTENQ02+007777APC3  
0152585490999992000012612004+29150+119630FM-12+003599999V0200901N004012200019N0130001N1+00011-00771103831ADDAA199000091GA1001+999999999GF100991001001999999001001MD1210121+9999REMSYN054AAXX  26121 58549 32963 00904 10001 21077 40383 52012;EQDQ01  00002PRCP99
0136585490999992000022912004+29150+119630FM-12+003599999V02099999999999999999N0140001N1+99999+99999102951ADDAA199000091GF107991071001999999041999MD1210101+9999REMSYN054AAXX  29121 58549 32964 711/9 21015 40295 52010 8704/;EQDQ01  00002PRCP99
0124585560999992000010509004+29600+120820FM-12+010899999V0200201N005010150019N0070001N1+01651+00991101291ADDGF106991061051017501001001MD1210051+9999MW1061REMSYN066AAXX  05091 58556 41757 60205 10165 20099 40129 52005 70600 86500;
0165585560999992000011321004+29600+120820FM-12+010899999V0200401N006010120019N0070001N1+00251+00091102331ADDAA124000591AY161031AY261031GF108991081051012501999999MD1710011+9999MW1211REMSYN080    AAXX  13211 58556 41657 80406 10025 20009 40233 57001 72166 885// 333 70005;
0142585560999992000020912004+29600+120820FM-12+010899999V0209999C000019999999N0120001N1+00421-00131102341ADDAA199000091GF108991081001999999071999MD1210021+9999REMSYN060AAXX  09121 58556 32962 80000 10042 21013 40234 52002 8807/;EQDQ01  00002PRCP99
0165585560999992000021900004+29600+120820FM-12+010899999V0200201N003010075019N0150001N1+00951+00871101241ADDAA106003091AY161061GF108991081051008001999999MD1210231-0901MW1001REMSYN088AAXX  19001 58556 11565 80203 10095 20087 40124 52023 60031 70060 885// 333 05904 70366;
0152585560999992000030900004+29600+120820FM-12+010899999V0201801N002019999999N0300001N1+00791-00031102741ADDAA199000091GF108991081001999999071999MD1210141+0011REMSYN070AAXX  09001 58556 32980 81802 10079 21003 40274 52014 8807/ 333 00105;EQDQ01  00002PRCP99
0140585560999992000031009004+29600+120820FM-12+010899999V0209999C000010075019N0100001N1+00661+00621102111ADDAY161031AY261031GF108991081051008001999999MD1710131+9999MW1601REMSYN066AAXX  10091 58556 41560 80000 10066 20062 40211 57013 76066 885//;
0142585560999992000042812004+29600+120820FM-12+010899999V0201801N003019999999N0100001N1+01921+01081101471ADDAA199000091GF107991071001999999041999MD1210121+9999REMSYN060AAXX  28121 58556 32960 71803 10192 20108 40147 52012 8704/;EQDQ01  00002PRCP99
0112585560999992000060303004+29600+120820FM-12+010899999V0202001N003019999999N0200001N1+03141+02281100541ADDGF107991071001999999041999MD1710071+9999REMSYN060AAXX  03031 58556 42970 72003 10314 20228 40054 57007 8704/;
0139585560999992000070200004+29590+120810FM-12+010899999V0209999C000019999999N0170001N1+02661+02341100951ADDAA124000191GF107991071001999999041999MD1210141+0001REMSYN076AAXX  02001 58556 32967 70000 10266 20234 40095 52014 8704/ 333 00001 70001;
0124585560999992000070919004+29590+120810FM-12+010899999V0200401N006010075019N0100001N1+02401+02331099601ADDGF108991081041008001999999MD1710491+9999MW1801REMSYN066AAXX  09191 58556 41560 80406 10240 20233 49960 57049 780// 884//;
0165585560999992000072718004+29590+120810FM-12+010899999V0209999C000012200019N0120001N1+02701+02391100021ADDAA199000091GF101991001001999999001021KA1999M+03471MD1710071+9999REMSYN070AAXX  27181 58556 32962 10000 10270 20239 40002 57007 80002 333 10347;EQDQ01  00002PRCP99
0112585560999992000091103004+29590+120810FM-12+010899999V0200401N002010120019N0100001N1+02291+01931100991ADDGF108991081051012501999999MD1210021+9999REMSYN060AAXX  11031 58556 42660 80402 10229 20193 40099 52002 885//;
0172585560999992000102006004+29590+120810FM-12+010899999V0200401N004010120019N0060001N1+02061+01901101691ADDAA106000191AY161061GF108991081051012501999999KA1999N+01831MD1710121+9999MW1101REMSYN082AAXX  20061 58556 11656 80404 10206 20190 40169 57012 69911 71060 885// 333 20183;
0161585560999992000111021004+29590+120810FM-12+010899999V0209999C000010075019N0100001N1+00801+00741102941ADDAA124001391AY161031AY261031GF108991081051008001999999MD1710101+9999MW1601REMSYN076AAXX  10211 58556 41560 80000 10080 20074 40294 57010 76066 885// 333 70012;
0152585560999992000112312004+29590+120810FM-12+010899999V0201401N002012200019N0170001N1+01201+00631102511ADDAA199000091GA1001+999999999GF100991001001999999001001MD1210161+9999REMSYN054AAXX  23121 58556 32967 01402 10120 20063 40251 52016;EQDQ01  00002PRCP99
0152585560999992000120812004+29590+120810FM-12+010899999V0201401N002012200019N0170001N1+01351+00851102051ADDAA199000091GA1001+999999999GF100991001001999999001001MD1210071+9999REMSYN054AAXX  08121 58556 32967 01402 10135 20085 40205 52007;EQDQ01  00002PRCP99
0153585620999992000021021004+29920+121470FM-12+000699999V0202201N001010120019N0060001N1+00591+00351101971ADDAA124000791AY161031GF108991081051012501999999MD1710051+9999MW1101REMSYN076AAXX  10211 58562 41656 82201 10059 20035 40197 57005 71060 885// 333 79999;
0142585690999992000011312004+29200+121950FM-12+012799999V0203401N005010042019N0120001N1+00441+00161102161ADDAA106000091GF108991061011004501071999MD1210121+9999REMSYN060AAXX  13121 58569 32462 83405 10044 20016 40216 52012 8617/;EQDQ01  00002PRCP06
0138585690999992000011809004+29200+121950FM-12+012799999V0203601N005012200019N0080001N1+00351-00221102521ADDGA1001+999999999GF100991001001999999001001MD1210111+9999MW1051REMSYN064    AAXX  18091 58569 41958 03605 10035 21022 40252 52011 70500;
0168585690999992000011812004+29200+121950FM-12+012799999V0203401N002012200019N0080001N1+00201-00171102691ADDAA199000091GA1001+999999999GF100991001001999999001001MD1210161+9999MW1051REMSYN064    AAXX  18121 58569 31958 03402 10020 21017 40269 52016 70500;EQDQ01  00002PRCP99
0165585690999992000030306004+29200+121950FM-12+012799999V0201601N003012200019N0300001N1+01481+00901101681ADDAA199000091GF101991011001999999031001KA1999N+00651MD1710361+9999REMSYN070AAXX  03061 58569 32980 11603 10148 20090 40168 57036 81030 333 20065;EQDQ01  00002PRCP99
0180585690999992000030418004+29200+121950FM-12+012799999V0203401N003010042019N0120001N1+00821+00671101761ADDAA106002091AY161061AY261061GF108991071071004501071999KA1999M+01301MD1710071+9999MW1601REMSYN082AAXX  04181 58569 11462 83403 10082 20067 40176 57007 60021 76066 8777/ 333 10130;
0175585690999992000032818004+29200+121950FM-12+012799999V0202901N003012200019N0120001N1+01201-00241102161ADDAA199000091GA1001+999999999GF100991001001999999001001KA1999M+02071MD1210071+9999REMSYN064AAXX  28181 58569 32962 02903 10120 21024 40216 52007 333 10207;EQDQ01  00002PRCP99
0122585690999992000032903004+29200+121950FM-12+012799999V0200401N008012200019N0200001N1+01501-00091102411ADDGA1001+999999999GF100991001001999999001001MD1710021+9999REMSYN054AAXX  29031 58569 42970 00408 10150 21009 40241 57002;
0190585690999992000040118004+29200+121950FM-12+012799999V0203401N002010006019N0007001N1+01281+01261101351ADDAA106006191AY161061AY241061GA1091+999999999GF109991091999999999999999KA1999M+01441MD1710071+9999MW1611REMSYN076AAXX  01181 58569 11/07 93402 10128 20126 40135 57007 60061 76164 333 10144;
0149585690999992000040712004+29200+121950FM-12+012799999V0202501N003019999999N0180001N1+01281+00481101961ADDAA106000791AY161061GF108991081001999999071999MD1210051+9999MW1601REMSYN072AAXX  07121 58569 11968 82503 10128 20048 40196 52005 69901 76060 8807/;
0112585690999992000041809004+29200+121950FM-12+012799999V0202001N006010360019N0180001N1+02061+01371101011ADDGF107991011011008001031999MD1710161+9999REMSYN060AAXX  18091 58569 42568 72006 10206 20137 40101 57016 8113/;
0122585690999992000050221004+29200+121950FM-12+012799999V0209999C000012200019N0200001N1+01351+01221101531ADDGA1001+999999999GF100991001001999999001001MD1410001+9999REMSYN054AAXX  02211 58569 42970 00000 10135 20122 40153 54000;
0161585690999992000050921004+29200+121950FM-12+012799999V0202501N003010042019N0120001N1+01791+01721100761ADDAA124007991AY161031AY261031GF108991051071004501071999MD1410001+9999MW1601REMSYN076AAXX  09211 58569 41462 82503 10179 20172 40076 54000 76066 8577/ 333 70080;
0165585690999992000051206004+29200+121950FM-12+012799999V0202201N006019999999N0100001N1+02491+01751100461ADDAA199000091GF107991001001999999001081KA1999N+01721MD1710201+9999REMSYN070AAXX  12061 58569 32960 72206 10249 20175 40046 57020 80008 333 20172;EQDQ01  00002PRCP99
0122585690999992000051321004+29200+121950FM-12+012799999V0200401N003012200019N0150001N1+01591+01431101141ADDGA1001+999999999GF100991001001999999001001MD1210071+9999REMSYN054AAXX  13211 58569 42965 00403 10159 20143 40114 52007;
0112585690999992000051421004+29200+121950FM-12+012799999V0202501N005012200019N0100001N1+02061+02031100811ADDGF101991011011004501001001MD1210031+9999REMSYN060AAXX  14211 58569 42460 12505 10206 20203 40081 52003 81100;
0165585690999992000051718004+29200+121950FM-12+012799999V0203601N002019999999N0150001N1+01611+01471101111ADDAA199000091GF107991071001999999031999KA1999M+02261MD1710091+9999REMSYN070AAXX  17181 58569 32965 73602 10161 20147 40111 57009 8703/ 333 10226;EQDQ01  00002PRCP99
0146585690999992000052406004+29200+121950FM-12+012799999V0201401N005010360019N0300001N1+02391+02061101131ADDAA199000021GF106991041011004501031021KA1999N+02051MD1710131+9999REMSYN070AAXX  24061 58569 32480 61405 10239 20206 40113 57013 84132 333 20205;
0140585690999992000061609004+29200+121940FM-12+012799999V0203601N004010042019N0120001N1+01951+01921100881ADDAY161031AY261031GF108991061071004501071999MD1210011+9999MW1601REMSYN066AAXX  16091 58569 41462 83604 10195 20192 40088 52001 76066 8677/;
0152585690999992000061800004+29200+121940FM-12+012799999V0202201N003010360019N0120001N1+02121+02071101251ADDAA199000091GF107991011011004501031999MD1210091+0021REMSYN070AAXX  18001 58569 32462 72203 10212 20207 40125 52009 8113/ 333 00200;EQDQ01  00002PRCP99
0112585690999992000062803004+29200+121940FM-12+012799999V0200701N003019999999N0200001N1+02991+02571100641ADDGF107991071001999999031001MD1210041+9999REMSYN060AAXX  28031 58569 42970 70703 10299 20257 40064 52004 87030;
0142585690999992000071912004+29200+121940FM-12+012799999V0202001N009012200019N0180001N1+02691+02401100631ADDAA199000091GF102991021011004501001001MD1210131+9999REMSYN060AAXX  19121 58569 32468 22009 10269 20240 40063 52013 82100;EQDQ01  00002PRCP99
0133585690999992000090221004+29200+121940FM-12+012799999V0201801N003012200019N0200001N1+02551+02451100921ADDAA124000191GF101991011011004501001001MD1210021+9999REMSYN070AAXX  02211 58569 42470 11803 10255 20245 40092 52002 81100 333 70001;
0132585690999992000091503004+29200+121940FM-12+012799999V0203201N006010075019N0300001N1+02071+01801100081ADDAY161031GF107991071041008001031999MD1210221+9999MW1601REMSYN066AAXX  15031 58569 41580 73206 10207 20180 40008 52022 76060 8743/;
0143585690999992000091521004+29200+121940FM-12+012799999V0202701N003012200019N0250001N1+01891+01331100741ADDAA124000591GA1001+999999999GF100991001001999999001001MD1210051+9999REMSYN064AAXX  15211 58569 42975 02703 10189 20133 40074 52005 333 70006;
0190585690999992000102218004+29200+121940FM-12+012799999V0202701N004010006019N0008001N1+02041+02041101211ADDAA106003091AY161061AY241061GA1091+999999999GF109991091999999999999999KA1999M+02241MD1710111+9999MW1601REMSYN076AAXX  22181 58569 11/08 92704 10204 20204 40121 57011 60031 76064 333 10224;
0112585690999992000102509004+29200+121940FM-12+012799999V0200401N003010360019N0200001N1+02191+01891101801ADDGF107991021011004501071999MD1210091+9999REMSYN060AAXX  25091 58569 42470 70403 10219 20189 40180 52009 8217/;
0112585690999992000112509004+29200+121940FM-12+012799999V0201401N003012200019N0300001N1+01721+01521101931ADDGF102991021001999999031001MD1210131+9999REMSYN060AAXX  25091 58569 42980 21403 10172 20152 40193 52013 82030;
0170586060999992000010712004+28600+115920FM-12+0050ZSCN V0200401N002010150019N0050001N1+00511+00461102131ADDAA106000791AY161061GF108991081051017501999999MA1999999101561MD1210021+9999MW1601REMSYN078AAXX  07121 58606 11750 80402 10051 20046 30156 40213 52002 69901 76060 885//;
0112586060999992000012503004+28600+115920FM-12+0050ZSCN V0200401N005010150019N0140001N1-00101-00501103951ADDGF108991081051017501999999MD1210121+9999REMSYN060AAXX  25031 58606 42764 80405 11010 21050 40395 52012 885//;
0112586060999992000013103004+28600+115920FM-12+0050ZSCN V0200201N005010150019N0100001N1+00151-00891104111ADDGF107991051051017501041999MD1210021+9999REMSYN060AAXX  31031 58606 42760 70205 10015 21089 40411 52002 8554/;
0178586060999992000020412004+28600+115920FM-12+0050ZSCN V0203601N002010150019N0030001N1+00191+00111102641ADDAA106002091AY161061AY261061GF108991081051017501999999MA1999999102061MD1210131+9999MW1601REMSYN078AAXX  04121 58606 11730 83602 10019 20011 30206 40264 52013 60021 76066 885//;
0172586060999992000030500004+28600+115920FM-12+0050ZSCN V0200201N002010150019N0050001N1+01131+00891101791ADDAA124002091GF108991081051017501999999MA1999999101231MD1210071+0001MW1101REMSYN088AAXX  05001 58606 31750 80202 10113 20089 30123 40179 52007 71000 885// 333 00001 70020;
0112586060999992000042715004+28600+115920FM-12+0050ZSCN V0209999C000010150019N0100001N1+02051+01381101231ADDGF108991081051017501999999MD1210021+9999REMSYN060AAXX  27151 58606 42760 80000 10205 20138 40123 52002 885//;
0134586060999992000050621004+28600+115920FM-12+0050ZSCN V0200401N003012200019N0060001N1+01711+01451101511ADDGA1001+999999999GF100991001001999999001001MD1710011+9999MW1101REMSYN060AAXX  06211 58606 41956 00403 10171 20145 40151 57001 71000;
0186586060999992000051906004+28600+115920FM-12+0050ZSCN V0202201N002010120019N0140001N1+02371+01771100991ADDAA199000091GF107991071081008001999999KA1999N+01721MA1999999100451MD1710171+9999REMSYN076AAXX  19061 58606 32564 72202 10237 20177 30045 40099 57017 878// 333 20172;EQDQ01  00002PRCP99
0163586060999992000052012004+28600+115920FM-12+0050ZSCN V0201101N001019999999N0100001N1+02541+02091100921ADDAA199000091GF107991001001999999001021MA1999999100391MD1210041+9999REMSYN066AAXX  20121 58606 32960 71101 10254 20209 30039 40092 52004 80002;EQDQ01  00002PRCP99
0186586060999992000052318004+28600+115920FM-12+0050ZSCN V0200901N002019999999N0140001N1+02741+01811100711ADDAA199000091GF107991071001999999041999KA1999M+03401MA1999999100191MD1710071+9999REMSYN076AAXX  23181 58606 32964 70902 10274 20181 30019 40071 57007 8704/ 333 10340;EQDQ01  00002PRCP99
0112586060999992000060503004+28600+115920FM-12+0050ZSCN V0202201N001010120019N0150001N1+02671+02071100861ADDGF107991071081008001999999MD1710021+9999REMSYN060AAXX  05031 58606 42565 72201 10267 20207 40086 57002 878//;
0145586060999992000061121004+28600+115920FM-12+0050ZSCN V0203601N001010150019N0070001N1+02001+01821100821ADDAA124000391GF108991081051017501999999MD1210071+9999MW1101REMSYN076AAXX  11211 58606 41757 83601 10200 20182 40082 52007 71000 885// 333 70003;
0201586060999992000062206004+28590+115920FM-12+0050ZSCN V0201401N002010042019N0060001N1+02231+02191100581ADDAA106027991AY181061AY261061GF108991081091004501999999KA1999N+02201MA1999999100051MD1710041+9999MW1951REMSYN088AAXX  22061 58606 11456 81402 10223 20219 30005 40058 57004 60281 79586 889// 333 20220;
0112586060999992000062903004+28590+115920FM-12+0050ZSCN V0202501N004019999999N0180001N1+03191+02471100401ADDGF106991001001999999001021MD1210051+9999REMSYN060AAXX  29031 58606 42968 62504 10319 20247 40040 52005 80002;
0186586060999992000071506004+28590+115920FM-12+0050ZSCN V0202701N002010360019N0250001N1+03731+02161100251ADDAA199000091GF107991011011008001041021KA1999N+02791MA1999999099741MD1710151+9999REMSYN076AAXX  15061 58606 32575 72702 10373 20216 39974 40025 57015 81142 333 20279;EQDQ01  00002PRCP99
0173586060999992000071600004+28590+115920FM-12+0050ZSCN V0200901N003012200019N0250001N1+03101+02341100431ADDAA199000091GF102991001001999999001021MA1999999099921MD1210081+0011REMSYN076AAXX  16001 58606 32975 20903 10310 20234 39992 40043 52008 80002 333 00101;EQDQ01  00002PRCP99
0112586060999992000071715004+28590+115920FM-12+0050ZSCN V0202201N002019999999N0200001N1+02851+02351100121ADDGF106991061001999999041001MD1210111+9999REMSYN060AAXX  17151 58606 42970 62202 10285 20235 40012 52011 86040;
0112586060999992000072521004+28590+115920FM-12+0050ZSCN V0209999C000010150019N0150001N1+02871+02551099981ADDGF107991071051017501999999MD1710041+9999REMSYN060AAXX  25211 58606 42765 70000 10287 20255 49998 57004 875//;
0196586060999992000073118004+28590+115920FM-12+0050ZSCN V0202501N002012200019N0160001N1+02631+02341100421ADDAA199000091GA1001+999999999GF100991001001999999001001KA1999M+03301MA1999999099901MD1210011+9999REMSYN070AAXX  31181 58606 32966 02502 10263 20234 39990 40042 52001 333 10330;EQDQ01  00002PRCP99
0163586060999992000080112004+28590+115920FM-12+0050ZSCN V0209999C000019999999N0120001N1+03001+02361100381ADDAA199000091GF107991001001999999001021MA1999999099861MD1210041+9999REMSYN066AAXX  01121 58606 32962 70000 10300 20236 39986 40038 52004 80002;EQDQ01  00002PRCP99
0112586060999992000080215004+28590+115920FM-12+0050ZSCN V0209999C000010150019N0100001N1+02951+02571100361ADDGF107991071051017501999999MD1210091+9999REMSYN060AAXX  02151 58606 42760 70000 10295 20257 40036 52009 875//;
0143586060999992000080921004+28590+115920FM-12+0050ZSCN V0202201N002012200019N0120001N1+02641+02501100421ADDAA124000791GA1001+999999999GF100991001001999999001001MD1710021+9999REMSYN064AAXX  09211 58606 42962 02202 10264 20250 40042 57002 333 79999;
0145586060999992000081921004+28590+115920FM-12+0050ZSCN V0209999C000010150019N0070001N1+02561+02501100521ADDAA124009491GF108991081051017501999999MD1210081+9999MW1801REMSYN076AAXX  19211 58606 41757 80000 10256 20250 40052 52008 78000 885// 333 70094;
0112586060999992000101609004+28590+115920FM-12+0050ZSCN V0203601N003010150019N0120001N1+01801+01321102081ADDGF108991081051017501999999MD1710051+9999REMSYN060AAXX  16091 58606 42762 83603 10180 20132 40208 57005 885//;
0172586060999992000120300004+28590+115920FM-12+0050ZSCN V0203401N002010150019N0070001N1+00911+00431102821ADDAA124003691GF108991081051017501999999MA1999999102251MD1210181+0301MW1101REMSYN088AAXX  03001 58606 31757 83402 10091 20043 30225 40282 52018 71000 885// 333 00351 70035;
0124586060999992000120909004+28590+115920FM-12+0050ZSCN V0200901N002010150019N0020001N1+01881+01401101431ADDGF107991071051017501999999MD1710041+9999MW1101REMSYN066AAXX  09091 58606 41720 70902 10188 20140 40143 57004 71000 875//;
0185586060999992000121700004+28590+115920FM-12+0050ZSCN V0200401N001010150019N0020001N1+00901+00681102661ADDAA199000091GF107991071051017501999999MA1999999102091MD1210021+0011MW1101REMSYN082AAXX  17001 58606 31720 70401 10090 20068 30209 40266 52002 71000 875// 333 05101;EQDQ01  00002PRCP99
0152586260999992000033000004+28480+117980FM-12+009099999V0200901N002019999999N0200001N1+01581+00451101541ADDAA199000091GF107991051001999999041021MD1210151+0091REMSYN070AAXX  30001 58626 32970 70902 10158 20045 40154 52015 85042 333 05903;EQDQ01  00002PRCP99
0208586330999992000010218004+28970+118870FM-12+007199999V0200701N005012200019N0025001N1+00501+00361102171ADDAA106000091GA1001+999999999GF100991001001999999001001KA1999M+01981MA1999999101161MD1710091+9999MW1101REMSYN076AAXX  02181 58633 31925 00705 10050 20036 30116 40217 57009 71000 333 10198;EQDQ01  00002PRCP06
0185586330999992000010312004+28970+118870FM-12+007199999V0209999C000012200019N0040001N1+00831+00561101831ADDAA106000091GA1001+999999999GF100991001001999999001001MA1999999100811MD1210081+9999MW1101REMSYN066AAXX  03121 58633 31940 00000 10083 20056 30081 40183 52008 71000;EQDQ01  00002PRCP06
0202586330999992000011718004+28970+118870FM-12+007199999V0200701N002010075019N0040001N1+00421+00271102781ADDAA199000091GF108991081051008001999999KA1999M+00511MA1999999101741MD1210011+9999MW1101REMSYN086    AAXX  17181 58633 31540 80702 10042 20027 30174 40278 52001 71000 885// 333 10051;EQDQ01  00002PRCP99
0198586330999992000020406004+28970+118870FM-12+007199999V0200401N006010120019N0050001N1+00541-00141102531ADDAA199000091GF108991081051012501999999KA1999N+00261MA1999999101491MD1710351+9999MW1101REMSYN082AAXX  04061 58633 31650 80406 10054 21014 30149 40253 57035 71000 885// 333 20026;EQDQ01  00002PRCP99
0153586330999992000020921004+28970+118870FM-12+007199999V0200401N001010120019N0100001N1+00401+00141102061ADDAA124000391AY161031GF107991071051012501999999MD1710121+9999MW1001REMSYN076AAXX  09211 58633 41660 70401 10040 20014 40206 57012 70060 875// 333 70002;
0122586330999992000030121004+28970+118870FM-12+007199999V0200201N001012200019N0100001N1+00511+00421102461ADDGA1001+999999999GF100991001001999999001001MD1710061+9999REMSYN054AAXX  01211 58633 42960 00201 10051 20042 40246 57006;
0178586330999992000030712004+28970+118870FM-12+007199999V0200701N004010120019N0030001N1+00641+00601102361ADDAA106003091AY161061AY261061GF108991081051012501999999MA1999999101341MD1210231+9999MW1601REMSYN078AAXX  07121 58633 11630 80704 10064 20060 30134 40236 52023 60031 76066 885//;
0186586330999992000030900004+28970+118870FM-12+007199999V0200401N004010360019N0200001N1+00791+00541102591ADDAA106000891AY161061GF108991021051017501071999MA1999999101571MD1210071+0101MW1001REMSYN094AAXX  09001 58633 11770 80404 10079 20054 30157 40259 52007 69971 70060 8257/ 333 00103 70025;
0196586330999992000032618004+28970+118870FM-12+007199999V0202201N003012200019N0120001N1+01151+00621101821ADDAA199000091GA1001+999999999GF100991001001999999001001KA1999M+02161MA1999999100831MD1710041+9999REMSYN070AAXX  26181 58633 32962 02203 10115 20062 30083 40182 57004 333 10216;EQDQ01  00002PRCP99
0193586330999992000040106004+28970+118870FM-12+007199999V0200401N005019999999N0040001N1+01571+01251101201ADDAA106000191AY161061GF108991081001999999071999KA1999N+01501MA1999999100221MD1710211+9999MW1601REMSYN088AAXX  01061 58633 11940 80405 10157 20125 30022 40120 57021 69921 76060 8807/ 333 20150;
0193586330999992000040818004+28970+118870FM-12+007199999V0200701N003019999999N0120001N1+01461+01301101451ADDAA106000591AY161061GF108991081001999999071999KA1999M+01891MA1999999100471MD1710061+9999MW1601REMSYN088AAXX  08181 58633 11962 80703 10146 20130 30047 40145 57006 69961 76060 8807/ 333 10189;
0196586330999992000041618004+28970+118870FM-12+007199999V0200701N001012200019N0150001N1+01071+00971101651ADDAA199000091GA1001+999999999GF100991001001999999001001KA1999M+02131MA1999999100661MD1710031+9999REMSYN070AAXX  16181 58633 32965 00701 10107 20097 30066 40165 57003 333 10213;EQDQ01  00002PRCP99
0124586330999992000042303004+28970+118870FM-12+007199999V0200401N005019999999N0040001N1+01951+01441101361ADDGF107991071001999999041999MD1710181+9999MW1101REMSYN066AAXX  23031 58633 41940 70405 10195 20144 40136 57018 71000 8704/;
0133586330999992000042321004+28970+118870FM-12+007199999V0200401N004019999999N0120001N1+01611+00801101041ADDAA124000791GF107991071001999999041001MD1710081+9999REMSYN070AAXX  23211 58633 42962 70404 10161 20080 40104 57008 87040 333 79999;
0186586330999992000051906004+28970+118870FM-12+007199999V0202501N006019999999N0100001N1+02321+01491100891ADDAA199000091GF108991081001999999011999KA1999N+01681MA1999999099921MD1710181+9999REMSYN076AAXX  19061 58633 32960 82506 10232 20149 39992 40089 57018 8801/ 333 20168;EQDQ01  00002PRCP99
0163586330999992000052312004+28970+118870FM-12+007199999V0203601N004019999999N0300001N1+02811+01321100831ADDAA199000091GF106991031001999999041021MA1999999099881MD1210051+9999REMSYN066AAXX  23121 58633 32980 63604 10281 20132 39988 40083 52005 83042;EQDQ01  00002PRCP99
0132586330999992000052609004+28970+118870FM-12+007199999V0202501N006010120019N0200001N1+02521+02301100121ADDAY181031GF108991081041012501999999MD1410001+9999MW1801REMSYN066AAXX  26091 58633 41670 82506 10252 20230 40012 54000 78080 884//;
0163586330999992000052712004+28970+118870FM-12+007199999V0201101N005010120019N0150001N1+02911+01871100621ADDAA199000091GF107991071041012501999999MA1999999099681MD1210201+9999REMSYN066AAXX  27121 58633 32665 71105 10291 20187 39968 40062 52020 874//;EQDQ01  00002PRCP99
0112586330999992000061503004+28970+118860FM-12+007199999V0201401N002019999999N0150001N1+02561+01511100811ADDGF107991071001999999041001MD1710011+9999REMSYN060AAXX  15031 58633 42965 71402 10256 20151 40081 57001 87040;
0144586330999992000061612004+28970+118860FM-12+007199999V0200701N003012200019N0300001N1+02351+02031100801ADDAA199000021GF101991011001999999041011MA1999999099841MD1210101+9999REMSYN066AAXX  16121 58633 32980 10703 10235 20203 39984 40080 52010 81041;
0186586330999992000062806004+28970+118860FM-12+007199999V0202201N005010900019N0300001N1+03531+02311100411ADDAA199000091GF107991021011008001001081KA1999N+02641MA1999999099481MD1710191+9999REMSYN076AAXX  28061 58633 32580 72205 10353 20231 39948 40041 57019 82108 333 20264;EQDQ01  00002PRCP99
0112586330999992000070603004+28970+118860FM-12+007199999V0200901N007010900019N0300001N1+02921+02151100651ADDGF105991021011008001001021MD1710041+9999REMSYN060AAXX  06031 58633 42580 50907 10292 20215 40065 57004 82102;
0112586330999992000080109004+28970+118860FM-12+007199999V0200901N005012200019N0120001N1+03411+02021100251ADDGF101991011001999999041001MD1710121+9999REMSYN060AAXX  01091 58633 42962 10905 10341 20202 40025 57012 81040;
0186586330999992000081200004+28970+118860FM-12+007199999V0209999C000010120019N0030001N1+02431+02401100361ADDAA106021191AY181061GF108991081041012501999999MA1999999099421MD1210141+0401MW1801REMSYN094AAXX  12001 58633 11630 80000 10243 20240 39942 40036 52014 60211 78080 884// 333 00454 70213;
0178586330999992000081512004+28970+118860FM-12+007199999V0200401N001010075019N0060001N1+02761+02551100141ADDAA106000191AY191061AY281061GF108991081091008001999999MA1999999099201MD1210171+9999MW1951REMSYN078AAXX  15121 58633 11556 80401 10276 20255 39920 40014 52017 69911 79598 889//;
0201586330999992000092618004+28970+118860FM-12+007199999V0200401N004010120019N0100001N1+02401+02101101301ADDAA106000791AY191061AY281061GF108991081041012501999999KA1999M+03191MA1999999100351MD1410001+9999MW1801REMSYN088AAXX  26181 58633 11660 80404 10240 20210 30035 40130 54000 69901 78098 884// 333 10319;
0132586330999992000093015004+28970+118860FM-12+007199999V0200401N002019999999N0060001N1+02271+02211101661ADDAY161031GF108991081001999999071999MD1210051+9999MW1601REMSYN066AAXX  30151 58633 41956 80402 10227 20221 40166 52005 76060 8807/;
0132586330999992000100209004+28970+118860FM-12+007199999V0202501N010010075019N0080001N1+02901+02431100871ADDAY181031GF108991081091008001999999MD1210071+9999MW1951REMSYN066AAXX  02091 58633 41558 82510 10290 20243 40087 52007 79580 889//;
0170586330999992000100512004+28970+118860FM-12+007199999V0200901N004010120019N0100001N1+01831+01701101721ADDAA106000791AY161061GF108991081051012501999999MA1999999100741MD1210111+9999MW1001REMSYN078AAXX  05121 58633 11660 80904 10183 20170 30074 40172 52011 69901 70060 885//;
0124586330999992000101715004+28970+118860FM-12+007199999V0200901N003019999999N0080001N1+01731+01511101991ADDGF108991081001999999071999MD1210091+9999MW1101REMSYN066AAXX  17151 58633 41958 80903 10173 20151 40199 52009 71000 8807/;
0161586330999992000101721004+28970+118860FM-12+007199999V0201101N004010150019N0030001N1+01551+01501101981ADDAA124001591AY161031AY261031GF108991081051017501999999MD1710021+9999MW1211REMSYN076AAXX  17211 58633 41730 81104 10155 20150 40198 57002 72166 885// 333 70015;
0132586330999992000110103004+28970+118860FM-12+007199999V0200701N004010120019N0080001N1+01701+00821101911ADDAY161031GF107991071051012501999999MD1710011+9999MW1601REMSYN066AAXX  01031 58633 41658 70704 10170 20082 40191 57001 76060 875//;
0203586330999992000110500004+28970+118860FM-12+007199999V0200901N003012200019N0020001N1+01131+01011101941ADDAA199000091AY141061GA1001+999999999GF100991001001999999001001MA1999999100941MD1210041+0051MW1101REMSYN076AAXX  05001 58633 31920 00903 10113 20101 30094 40194 52004 71040 333 05502;EQDQ01  00002PRCP99
0193586330999992000120206004+28970+118860FM-12+007199999V0209999C000010042019N0018001N1+01161+01141102271ADDAA106001091AY161061GF108991081051004501999999KA1999N+01061MA1999999101261MD1710161+9999MW1601REMSYN088AAXX  02061 58633 11418 80000 10116 20114 30126 40227 57016 60011 76060 885// 333 20106;
0122586330999992000120415004+28970+118860FM-12+007199999V0203401N001012200019N0120001N1+00641+00551102311ADDGA1001+999999999GF100991001001999999001001MD1210061+9999REMSYN054AAXX  04151 58633 42962 03401 10064 20055 40231 52006;
0198586330999992000121906004+28970+118860FM-12+007199999V0200701N005019999999N0030001N1+01231+00781102261ADDAA199000091GF108991081001999999071999KA1999N+01021MA1999999101251MD1710271+9999MW1101REMSYN082AAXX  19061 58633 31930 80705 10123 20078 30125 40226 57027 71000 8807/ 333 20102;EQDQ01  00002PRCP99
0175586340999992000032906004+28680+118250FM-12+009499999V0201401N002012200019N0200001N1+02251-00251102041ADDAA199000091GA1001+999999999GF100991001001999999001001KA1999N+00801MD1710371+9999REMSYN064AAXX  29061 58634 32970 01402 10225 21025 40204 57037 333 20080;EQDQ01  00002PRCP99
0173586460999992000011300004+28450+119920FM-12+006299999V0200701N005010120019N0100001N1+00681+00541102021ADDAA106003091AY161061AY261061GF108991081051012501999999MD1710041+0401MW1601REMSYN088AAXX  13001 58646 11660 80705 10068 20054 40202 57004 60031 76066 885// 333 00457 70072;
0152586460999992000020312004+28450+119920FM-12+006299999V0200701N004012200019N0100001N1+00711+00041102891ADDAA199000091GA1001+999999999GF100991001001999999001001MD1210171+9999REMSYN054AAXX  03121 58646 32960 00704 10071 20004 40289 52017;EQDQ01  00002PRCP99
0112586460999992000021103004+28450+119920FM-12+006299999V0209999C000010120019N0100001N1+01151+00671102111ADDGF108991081051012501999999MD1710051+9999REMSYN060AAXX  11031 58646 42660 80000 10115 20067 40211 57005 885//;
0172586460999992000022006004+28450+119920FM-12+006299999V0200701N005010120019N0200001N1+00761+00441101931ADDAA106000891AY161061GF108991081051012501999999KA1999N+00751MD1710141+9999MW1211REMSYN082AAXX  20061 58646 11670 80705 10076 20044 40193 57014 69971 72160 885// 333 20075;
0172586460999992000030706004+28450+119920FM-12+006299999V0200901N005010120019N0030001N1+01151+00801101981ADDAA106000791AY161061GF108991081051012501999999KA1999N+00981MD1710161+9999MW1211REMSYN082AAXX  07061 58646 11630 80905 10115 20080 40198 57016 69901 72160 885// 333 20098;
0161586460999992000031421004+28450+119920FM-12+006299999V0209999C000010120019N0040001N1+01131+01071101491ADDAA124006191AY161031AY261031GF108991081051012501999999MD1710141+9999MW1601REMSYN076AAXX  14211 58646 41640 80000 10113 20107 40149 57014 76066 885// 333 70061;
0165586460999992000042000004+28450+119920FM-12+006299999V0200901N003010120019N0100001N1+01861+01711101041ADDAA106003091AY161061GF108991081051012501999999MD1210091-0301MW1601REMSYN088AAXX  20001 58646 11660 80903 10186 20171 40104 52009 60031 76060 885// 333 05351 70025;
0124586460999992000051721004+28450+119920FM-12+006299999V0200901N002010120019N0050001N1+01851+01701100991ADDGF108991081051012501999999MD1210011+9999MW1101REMSYN066AAXX  17211 58646 41650 80902 10185 20170 40099 52001 71000 885//;
0112586460999992000060609004+28450+119920FM-12+006299999V0201401N002012200019N0300001N1+02641+02021100921ADDGF102991021051012501001001MD1210031+9999REMSYN060AAXX  06091 58646 42680 21402 10264 20202 40092 52003 82500;
0152586460999992000072000004+28450+119920FM-12+006299999V0200901N003010900019N0200001N1+03051+02241100921ADDAA199000091GF107991011011012501001021MD1210121+0041REMSYN070AAXX  20001 58646 32670 70903 10305 20224 40092 52012 81102 333 00400;EQDQ01  00002PRCP99
0112586460999992000072809004+28450+119920FM-12+006299999V0200901N002012200019N0120001N1+03671+02651099741ADDGF104991001001999999001021MD1710071+9999REMSYN060AAXX  28091 58646 42962 40902 10367 20265 49974 57007 80002;
0112586460999992000073109004+28450+119920FM-12+006299999V0200701N003012200019N0150001N1+03391+02221100171ADDGF101991001001999999001021MD1710051+9999REMSYN060AAXX  31091 58646 42965 10703 10339 20222 40017 57005 80002;
0139586460999992000081600004+28450+119920FM-12+006299999V0201601N002010360019N0150001N1+02721+02411100491ADDAA124002391GF106991021051012501041001MD1210261+0001REMSYN076AAXX  16001 58646 32665 61602 10272 20241 40049 52026 82540 333 00000 70023;
0173586460999992000082500004+28450+119920FM-12+006299999V0200901N001010120019N0200001N1+02571+02471100421ADDAA106000591AY161061AY261061GF108991081051012501999999MD1210101+0001MW1601REMSYN088AAXX  25001 58646 11670 80901 10257 20247 40042 52010 69961 76066 885// 333 00001 70095;
0172586460999992000092018004+28450+119920FM-12+006299999V0200701N002010120019N0100001N1+01931+01831101891ADDAA106000791AY161061GF106991061051012501001001KA1999M+02821MD1710031+9999MW1001REMSYN082AAXX  20181 58646 11660 60702 10193 20183 40189 57003 69901 70060 86500 333 10282;
0112586460999992000101503004+28450+119920FM-12+006299999V0202701N002010150019N0100001N1+01991+01461102501ADDGF107991051051017501041999MD1710081+9999REMSYN060AAXX  15031 58646 42760 72702 10199 20146 40250 57008 8554/;
0165586460999992000101506004+28450+119920FM-12+006299999V0200401N004010120019N0120001N1+02111+01351102371ADDAA199000091GF108991081051012501999999KA1999N+01581MD1710131+9999REMSYN070AAXX  15061 58646 32662 80404 10211 20135 40237 57013 885// 333 20158;EQDQ01  00002PRCP99
0142586460999992000103012004+28450+119920FM-12+006299999V0200401N002012200019N0150001N1+01571+00801101881ADDAA199000091GF104991041001999999041001MD1210181+9999REMSYN060AAXX  30121 58646 32965 40402 10157 20080 40188 52018 84040;EQDQ01  00002PRCP99
0172586460999992000110106004+28450+119920FM-12+006299999V0203601N002010120019N0060001N1+01431+01091101481ADDAA106002091AY161061GF108991081051012501999999KA1999N+01321MD1710411+9999MW1601REMSYN082AAXX  01061 58646 11656 83602 10143 20109 40148 57041 60021 76060 885// 333 20132;
0158586460999992000111506004+28450+119920FM-12+006299999V0200701N003010075019N0050001N1+01711+01431102191ADDAA199000021GF108991081051008001999999KA1999N+01341MD1710141+9999MW1101REMSYN076AAXX  15061 58646 31550 80703 10171 20143 40219 57014 71000 885// 333 20134;
0146586460999992000112006004+28450+119920FM-12+006299999V0203601N002010120019N0200001N1+01161+00451102531ADDAA199000021GF108991081051012501999999KA1999N+01101MD1710141+9999REMSYN070AAXX  20061 58646 32670 83602 10116 20045 40253 57014 885// 333 20110;
0161586460999992000120221004+28450+119920FM-12+006299999V0200701N002010120019N0050001N1+01181+01021102391ADDAA124003391AY161031AY261031GF108991081051012501999999MD1710061+9999MW1211REMSYN076AAXX  02211 58646 41650 80702 10118 20102 40239 57006 72166 885// 333 70033;
0112586460999992000120609004+28450+119920FM-12+006299999V0209999C000012200019N0100001N1+01551+01021102131ADDGF102991021001999999041001MD1710041+9999REMSYN060AAXX  06091 58646 42960 20000 10155 20102 40213 57004 82040;
0142586460999992000121812004+28450+119920FM-12+006299999V0203201N002019999999N0100001N1+01611+01171102071ADDAA199000091GF105991051001999999041001MD1210261+9999REMSYN060AAXX  18121 58646 32960 53202 10161 20117 40207 52026 85040;EQDQ01  00002PRCP99
0195586460999992000122506004+28450+119920FM-12+006299999V0209999C000012200019N0100001N1+01561+00391102571ADDAA199000091AY141061GA1001+999999999GF100991001001999999001001KA1999N+00161MD1710291+9999MW1001REMSYN070AAXX  25061 58646 31960 00000 10156 20039 40257 57029 70040 333 20016;EQDQ01  00002PRCP99
0183586470999992000020300004+28100+119080FM-12+018099999V0209999C000010120019N0070001N1+00511+00421102861ADDAA106000191AY161061GF108991081051012501999999IA2999+00429MD1210121-0301MW1101REMSYN094AAXX  03001 58647 11657 80000 10051 20042 40286 52012 69921 71060 885// 333 05305 30042 70006;
0134586470999992000032621004+28100+119080FM-12+018099999V0209999C000012200019N0090001N1+00491+00471101981ADDGA1001+999999999GF100991001001999999001001MD1710011+9999MW1101REMSYN060AAXX  26211 58647 41959 00000 10049 20047 40198 57001 71000;
0165586470999992000033006004+28100+119080FM-12+018099999V0209999C000010120019N0200001N1+02491+00961101231ADDAA199000091GF107991071051012501999999KA1999N+00901MD1710381+9999REMSYN070AAXX  30061 58647 32670 70000 10249 20096 40123 57038 875// 333 20090;EQDQ01  00002PRCP99
0112586590999992000012109004+28020+120670FM-12+000799999V0201101N003010150019N0250001N1+01021+00151103291ADDGF108991081051017501999999MD1710041+9999REMSYN060AAXX  21091 58659 42775 81103 10102 20015 40329 57004 885//;
0143586590999992000020712004+28020+120670FM-12+000799999V0209999C000012200019N0120001N1+99999+99999999999ADDAA199000091GA1001+999999999GF100991001001999999001001REMSYN059AAXX  07121 58659 32962 00000 1009 20032 30176 40212 52018;EQDQ01  00002PRCP99
0153586590999992000020921004+28020+120670FM-12+000799999V0209999C000010150019N0150001N1+00551+00091102241ADDAA124000791AY161031GF108991081051017501999999MD1710111+9999MW1001REMSYN076AAXX  09211 58659 41765 80000 10055 20009 40224 57011 70060 885// 333 79999;
0167586590999992000021006004+28020+120670FM-12+000799999V0200901N002010150019N0250001N1+01081+00291101871ADDAA199000021GF108991081051017501999999KA1999N+00511MA1999999101511MD1710271+9999REMSYN076AAXX  10061 58659 32775 80902 10108 20029 30151 40187 57027 885// 333 20051;
0186586590999992000021318004+28020+120670FM-12+000799999V0202901N002010150019N0120001N1+01241+00941101471ADDAA199000091GF108991081051017501999999KA1999M+01521MA1999999101121MD1210051+9999REMSYN076AAXX  13181 58659 32762 82902 10124 20094 30112 40147 52005 885// 333 10152;EQDQ01  00002PRCP99
0193586590999992000022418004+28020+120670FM-12+000799999V0200201N001010150019N0200001N1+00671+00111102611ADDAA106000791AY161061GF108991081051017501999999KA1999M+01201MA1999999102251MD1710061+9999MW1001REMSYN088AAXX  24181 58659 11770 80201 10067 20011 30225 40261 57006 69901 70060 885// 333 10120;
0124586590999992000030509004+28020+120670FM-12+000799999V0200901N003010150019N0040001N1+01181+01041101531ADDGF108991081051017501999999MD1710031+9999MW1101REMSYN066AAXX  05091 58659 41740 80903 10118 20104 40153 57003 71000 885//;
0140586590999992000040903004+28020+120670FM-12+000799999V0209999C000010120019N0150001N1+01661+01401101341ADDAY161031AY261031GF108991081051012501999999MD1710141+9999MW1601REMSYN066AAXX  09031 58659 41665 80000 10166 20140 40134 57014 76066 885//;
0177586590999992000042218004+28020+120670FM-12+000799999V0209999C000012200019N0110001N1+01481+01361101361ADDAA199000021GA1001+999999999GF100991001001999999001001KA1999M+02131MA1999999101011MD1710021+9999REMSYN070AAXX  22181 58659 32961 00000 10148 20136 30101 40136 57002 333 10213;
0161586590999992000042521004+28020+120670FM-12+000799999V0209999C000010120019N0040001N1+01981+01931100501ADDAA124032091AY181031AY281031GF108991081051012501999999MD1210171+9999MW1801REMSYN076AAXX  25211 58659 41640 80000 10198 20193 40050 52017 78088 885// 333 70321;
0183586590999992000051600004+28020+120670FM-12+000799999V0209999C000012200019N0100001N1+02561+02141100921ADDAA199000091GA1001+999999999GF100991001001999999001001MA1999999100591MD1210061+0011REMSYN070AAXX  16001 58659 32960 00000 10256 20214 30059 40092 52006 333 05102;EQDQ01  00002PRCP99
0175586590999992000051612004+28020+120670FM-12+000799999V0201101N004010360019N0060001N1+02321+01961100991ADDAA199000091GF107991031011008001041999MA1999999100651MD1210211+9999MW1101REMSYN072AAXX  16121 58659 31556 71104 10232 20196 30065 40099 52021 71000 8314/;EQDQ01  00002PRCP99
0112586590999992000051909004+28020+120670FM-12+000799999V0200901N003010120019N0130001N1+02561+01451100791ADDGF107991071081008001999999MD1210011+9999REMSYN060AAXX  19091 58659 42563 70903 10256 20145 40079 52001 878//;
0132586590999992000070403004+28200+120670FM-12+000799999V0203601N001010075019N0300001N1+02851+02441100661ADDAY181031GF107991061021008001001021MD1710031+9999MW1251REMSYN066AAXX  04031 58659 41580 73601 10285 20244 40066 57003 72580 86202;
0112586590999992000071509004+28200+120670FM-12+000799999V0200901N003010075019N0300001N1+03071+02481100751ADDGF106991061021008001001021MD1710071+9999REMSYN060AAXX  15091 58659 42580 60903 10307 20248 40075 57007 86202;
0186586590999992000080506004+28010+120670FM-12+000799999V0201101N003010900019N0200001N1+03251+02271100811ADDAA199000091GF106991031021008001001021KA1999N+02411MA1999999100481MD1710151+9999REMSYN076AAXX  05061 58659 32570 61103 10325 20227 30048 40081 57015 83202 333 20241;EQDQ01  00002PRCP99
0132586590999992000082215004+28010+120670FM-12+000799999V0200701N005010075019N0150001N1+02751+02511100981ADDAY181031GF107991071021008001001001MD1410001+9999MW1801REMSYN066AAXX  22151 58659 41565 70705 10275 20251 40098 54000 78080 87200;
0201586590999992000082306004+28010+120670FM-12+000799999V0200901N009010042019N0120001N1+02661+02551100541ADDAA106052191AY191061AY281061GF108991081071004501999999KA1999N+02431MA1999999100211MD1710111+9999MW1801REMSYN088AAXX  23061 58659 11462 80909 10266 20255 30021 40054 57011 60521 78098 887// 333 20243;
0112586590999992000090403004+28010+120670FM-12+000799999V0203201N002012200019N0200001N1+03141+02311100731ADDGF101991011011008001001001MD1710141+9999REMSYN060AAXX  04031 58659 42570 13202 10314 20231 40073 57014 81100;
0173586590999992000090812004+28010+120670FM-12+000799999V0202901N002012200019N0150001N1+02461+01781101291ADDAA199000091GA1001+999999999GF100991001001999999001001MA1999999100951MD1210151+9999REMSYN060AAXX  08121 58659 32965 02902 10246 20178 30095 40129 52015;EQDQ01  00002PRCP99
0112586590999992000092615004+28010+120670FM-12+000799999V0200901N002010150019N0100001N1+02481+02151101621ADDGF108991081051017501999999MD1210031+9999REMSYN060AAXX  26151 58659 42760 80902 10248 20215 40162 52003 885//;
0124586590999992000100103004+28010+120670FM-12+000799999V0200901N002010120019N0070001N1+02721+02401101601ADDGF107991071081008001999999MD1710051+9999MW1101REMSYN066AAXX  01031 58659 41557 70902 10272 20240 40160 57005 71000 878//;
0134586590999992000100821004+28010+120670FM-12+000799999V0203601N002012200019N0080001N1+02111+02001101441ADDGA1001+999999999GF100991001001999999001001MD1210031+9999MW1101REMSYN060AAXX  08211 58659 41958 03602 10211 20200 40144 52003 71000;
0124586590999992000101203004+28010+120670FM-12+000799999V0209999C000010150019N0090001N1+02591+02161101741ADDGF107991071051017501999999MD1410001+9999MW1101REMSYN066AAXX  12031 58659 41759 70000 10259 20216 40174 54000 71000 875//;
0167586590999992000111006004+28010+120670FM-12+000799999V0203201N001010120019N0250001N1+01901+01581102161ADDAA199000021GF108991081081008001999999KA1999N+01741MA1999999101811MD1710141+9999REMSYN076AAXX  10061 58659 32575 83201 10190 20158 30181 40216 57014 888// 333 20174;
0140586590999992000111009004+28010+120670FM-12+000799999V0209999C000010120019N0120001N1+01761+01661102271ADDAY161031AY261031GF108991081051012501999999MD1210111+9999MW1601REMSYN066AAXX  10091 58659 41662 80000 10176 20166 40227 52011 76066 885//;
0196586590999992000120418004+28010+120670FM-12+000799999V0209999C000012200019N0120001N1+00951+00781102251ADDAA199000091GA1001+999999999GF100991001001999999001001KA1999M+01841MA1999999101901MD1710041+9999REMSYN070AAXX  04181 58659 32962 00000 10095 20078 30190 40225 57004 333 10184;EQDQ01  00002PRCP99
0173586590999992000120712004+28010+120670FM-12+000799999V0201401N003012200019N0150001N1+01521+01001102311ADDAA199000091GA1001+999999999GF100991001001999999001001MA1999999101961MD1210161+9999REMSYN060AAXX  07121 58659 32965 01403 10152 20100 30196 40231 52016;EQDQ01  00002PRCP99
0186586590999992000121818004+28010+120670FM-12+000799999V0209999C000010150019N0110001N1+01531+01371102131ADDAA199000091GF108991081051017501999999KA1999M+02231MA1999999101781MD1410001+9999REMSYN076AAXX  18181 58659 32761 80000 10153 20137 30178 40213 54000 885// 333 10223;EQDQ01  00002PRCP99
0122586590999992000122415004+28010+120670FM-12+000799999V0203201N001012200019N0100001N1+00961+00791102361ADDGA1001+999999999GF100991001001999999001001MD1210101+9999REMSYN054AAXX  24151 58659 42960 03201 10096 20079 40236 52010;
0165586600999992000011200004+28850+121130FM-12+000999999V0209999C000010090019N0200001N1+01321+01131101561ADDAA106000591AY161061GF108991081081004501999999MD1210221-0501MW1211REMSYN088AAXX  12001 58660 11470 80000 10132 20113 40156 52022 69961 72160 888// 333 05502 70009;
0174586600999992000011800004+28850+121130FM-12+000999999V0202701N002019999999N0120001N1+00381-00331102681ADDAA199000091GF107991071001999999041999IA2999+00209MD1210141+0201REMSYN080    AAXX  18001 58660 32962 72702 10038 21033 40268 52014 8704/ 333 00251 30024;EQDQ01  00002PRCP99
0112586600999992000021303004+28850+121130FM-12+000999999V0200701N002010210019N0100001N1+01121+00531101861ADDGF108991081051022501999999MD1410001+9999REMSYN060AAXX  13031 58660 42860 80702 10112 20053 40186 54000 885//;
0172586600999992000022218004+28850+121130FM-12+000999999V0202901N001010042019N0100001N1+00581+00461102141ADDAA106003091AY161061GF108991081051004501999999KA1999M+00651MD1710071+9999MW1601REMSYN082AAXX  22181 58660 11460 82901 10058 20046 40214 57007 60031 76060 885// 333 10065;
0172586600999992000022306004+28850+121130FM-12+000999999V0202701N002010042019N0050001N1+00641+00481102181ADDAA106000191AY161061GF108991081051004501999999KA1999N+00561MD1710071+9999MW1601REMSYN082AAXX  23061 58660 11450 82702 10064 20048 40218 57007 69921 76060 885// 333 20056;
0132586600999992000030103004+28850+121130FM-12+000999999V0201601N001010120019N0100001N1+00581+00311102991ADDAY161031GF108991081051012501999999MD1710041+9999MW1601REMSYN066AAXX  01031 58660 41660 81601 10058 20031 40299 57004 76060 885//;
0175586600999992000031906004+28850+121130FM-12+000999999V0203201N002012200019N0300001N1+02071+00881101691ADDAA199000091GA1001+999999999GF100991001001999999001001KA1999N+01021MD1710101+9999REMSYN064AAXX  19061 58660 32980 03202 10207 20088 40169 57010 333 20102;EQDQ01  00002PRCP99
0142586600999992000032012004+28850+121130FM-12+000999999V0201401N003019999999N0200001N1+01151+00641101831ADDAA199000091GF107991071001999999041999MD1710011+9999REMSYN060AAXX  20121 58660 32970 71403 10115 20064 40183 57001 8704/;EQDQ01  00002PRCP99
0162586600999992000050300004+28850+121130FM-12+000999999V0200701N002012200019N0150001N1+01491+01011101641ADDAA199000091GA1001+999999999GF100991001001999999001001MD1210061+0021REMSYN064AAXX  03001 58660 32965 00702 10149 20101 40164 52006 333 00252;EQDQ01  00002PRCP99
0124586600999992000051721004+28850+121130FM-12+000999999V0200701N002012200019N0080001N1+01671+01521101091ADDGF101991011001999999041001MD1710031+9999MW1101REMSYN066AAXX  17211 58660 41958 10702 10167 20152 40109 57003 71000 81040;
0112586600999992000052103004+28850+121130FM-12+000999999V0202001N002019999999N0100001N1+02651+01801101361ADDGF106991061001999999041001MD1710051+9999REMSYN060AAXX  21031 58660 42960 62002 10265 20180 40136 57005 86040;
0142586600999992000052312004+28850+121130FM-12+000999999V0202201N002012200019N0250001N1+02351+01901101381ADDAA199000091GF101991011011008001001001MD1210241+9999REMSYN060AAXX  23121 58660 32575 12202 10235 20190 40138 52024 81100;EQDQ01  00002PRCP99
0140586600999992000060903004+28850+121130FM-12+000999999V0200401N001010042019N0050001N1+02071+01911100991ADDAY181031AY281031GF108991081071004501999999MD1210081+9999MW1801REMSYN066AAXX  09031 58660 41450 80401 10207 20191 40099 52008 78088 887//;
0177586600999992000061218004+28850+121130FM-12+000999999V0200701N001010120019N0080001N1+01651+01571100871ADDAA199000091GF107991071051012501999999KA1999M+02301MD1710121+9999MW1101REMSYN076AAXX  12181 58660 31658 70701 10165 20157 40087 57012 71000 875// 333 10230;EQDQ01  00002PRCP99
0152586600999992000080700004+28840+121130FM-12+000999999V0200401N001012200019N0120001N1+02731+02411101051ADDAA199000091GF101991011011008001001001MD1210031+0001REMSYN070AAXX  07001 58660 32562 10401 10273 20241 40105 52003 81100 333 00000;EQDQ01  00002PRCP99
0165586600999992000082400004+28840+121130FM-12+000999999V0200901N003010075019N0250001N1+02721+02401100621ADDAA106009991AY181061GF108991081071008001999999MD1210081-0201MW1801REMSYN088AAXX  24001 58660 11575 80903 10272 20240 40062 52008 60101 78080 887// 333 05252 70898;
0165586600999992000091018004+28840+121130FM-12+000999999V0203401N003012200019N0150001N1+02321+01801100741ADDAA199000091GF102991021001999999041001KA1999M+02901MD1710181+9999REMSYN070AAXX  10181 58660 32965 23403 10232 20180 40074 57018 82040 333 10290;EQDQ01  00002PRCP99
0172586600999992000091318004+28840+121130FM-12+000999999V0203401N009010120019N0200001N1+02221+01581099941ADDAA106000791AY161061GF107991071041012501999999KA1999M+02421MD1710251+9999MW1601REMSYN082AAXX  13181 58660 11670 73409 10222 20158 49994 57025 69901 76060 874// 333 10242;
0172586600999992000100706004+28840+121130FM-12+000999999V0202901N002010120019N0300001N1+02511+01991101351ADDAA106000791AY161061GF107991071081008001999999KA1999N+02001MD1710261+9999MW1001REMSYN082AAXX  07061 58660 11580 72902 10251 20199 40135 57026 69901 70060 878// 333 20200;
0175586600999992000100918004+28840+121130FM-12+000999999V0209999C000012200019N0250001N1+01871+01671101521ADDAA199000091GA1001+999999999GF100991001001999999001001KA1999M+02921MD1710111+9999REMSYN064AAXX  09181 58660 32975 00000 10187 20167 40152 57011 333 10292;EQDQ01  00002PRCP99
0146586600999992000120306004+28840+121130FM-12+000999999V0202901N003010120019N0120001N1+01351+00511102221ADDAA199000021GF108991081051012501999999KA1999N+01181MD1710191+9999REMSYN070AAXX  03061 58660 32662 82903 10135 20051 40222 57019 885// 333 20118;
0175586600999992000120518004+28840+121130FM-12+000999999V0209999C000012200019N0200001N1+00671+00491102541ADDAA199000091GA1001+999999999GF100991001001999999001001KA1999M+01801MD1710021+9999REMSYN064AAXX  05181 58660 32970 00000 10067 20049 40254 57002 333 10180;EQDQ01  00002PRCP99
0124586600999992000121609004+28840+121130FM-12+000999999V0209999C000010150019N0080001N1+01351+00921102381ADDGF108991081051017501999999MD1210121+9999MW1101REMSYN066AAXX  16091 58660 41758 80000 10135 20092 40238 52012 71000 885//;
0175586650999992000010106004+28650+120080FM-12+000999999V0209999C000012200019N0120001N1+01981+00881101571ADDAA106000091GA1001+999999999GF100991001001999999001001KA1999N+00651MD1710301+9999REMSYN064AAXX  01061 58665 32962 00000 10198 20088 40157 57030 333 20065;EQDQ01  00002PRCP06
0172586650999992000011206004+28650+120080FM-12+000999999V0203201N003019999999N0120001N1+01351+00851101371ADDAA106002091AY161061GF108991081001999999071999KA1999N+01221MD1710231+9999MW1001REMSYN082AAXX  12061 58665 11962 83203 10135 20085 40137 57023 60021 70060 8807/ 333 20122;
0216586660999992000010118004+28450+121880FM-12+008499999V0203201N003010001519N0000001N1+01091+01091101871ADDAA106000091AY141061GA1091+999999999GF109991091999999999999999KA1999M+01601MA1999999100851MD1710071+9999MW1451REMSYN076AAXX  01181 58666 31/00 93203 10109 20109 30085 40187 57007 74540 333 10160;EQDQ01  00002PRCP06
0112586660999992000011003004+28450+121880FM-12+008499999V0200201N009010090019N0100001N1+01001+00791102331ADDGF108991081081004501999999MD1210041+9999REMSYN060AAXX  10031 58666 42460 80209 10100 20079 40233 52004 888//;
0136586660999992000011615004+28450+121880FM-12+008499999V0200201N010010042019N0120001N1+00661+00551102291ADDAY161031GF108991081071004501999999MD1210081+9999MW1601REMSYN070    AAXX  16151 58666 41462 80210 10066 20055 40229 52008 76060 887//;
0209586660999992000012618004+28450+121880FM-12+008499999V0203601N010010090019N0150001N1-00121-00781103651ADDAA199000091GF107991071081004501999999KA1240M+00201MA1999999102561MD1710021+9999OA130601901REMSYN088AAXX  26181 58666 32465 73610 11012 21078 30256 40365 57002 878// 333 10020 91119 91536;EQDQ01  00002PRCP99
0209586660999992000013118004+28450+121880FM-12+008499999V0200201N010010120019N0120001N1+00111-00391103591ADDAA199000091GF108991081051012501999999KA1240M+00311MA1999999102511MD1710121+9999OA130601801REMSYN088AAXX  31181 58666 32662 80210 10011 21039 30251 40359 57012 885// 333 10031 91118 91502;EQDQ01  00002PRCP99
0124586660999992000020603004+28450+121880FM-12+008499999V0203601N012010120019N0090001N1+00461+00041102391ADDGF108991081051012501999999MD1210071+9999MW1101REMSYN066AAXX  06031 58666 41659 83612 10046 20004 40239 52007 71000 885//;
0186586660999992000031800004+28450+121880FM-12+008499999V0202701N004010042019N0150001N1+00901+00641101781ADDAA106000191AY161061GF108991081071004501999999MA1999999100751MD1210171-0401MW1601REMSYN094AAXX  18001 58666 11465 82704 10090 20064 30075 40178 52017 69911 76060 887// 333 05400 70001;
0173586660999992000032612004+28450+121880FM-12+008499999V0202001N004012200019N0100001N1+01261+00971102071ADDAA199000091GA1001+999999999GF100991001001999999001001MA1999999101051MD1210171+9999REMSYN060AAXX  26121 58666 32960 02004 10126 20097 30105 40207 52017;EQDQ01  00002PRCP99
0112586660999992000033003004+28450+121880FM-12+008499999V0202001N005019999999N0200001N1+01381+00891101831ADDGF107991001001999999001021MD1710171+9999REMSYN060AAXX  30031 58666 42970 72005 10138 20089 40183 57017 80002;
0112586660999992000050203004+28450+121880FM-12+008499999V0203601N003010150019N0150001N1+01711+01431101551ADDGF108991081051017501999999MD1210161+9999REMSYN060AAXX  02031 58666 42765 83603 10171 20143 40155 52016 885//;
0122586660999992000050403004+28450+121880FM-12+008499999V0201601N003012200019N0220001N1+01951+01441101661ADDGA1001+999999999GF100991001001999999001001MD1210031+9999REMSYN054AAXX  04031 58666 42972 01603 10195 20144 40166 52003;
0198586660999992000050618004+28450+121880FM-12+008499999V0200201N006010090019N0070001N1+01671+01481101641ADDAA199000091GF107991071081004501999999KA1999M+02431MA1999999100651MD1710111+9999MW1101REMSYN082AAXX  06181 58666 32457 70206 10167 20148 30065 40164 57011 71000 878// 333 10243;EQDQ01  00002PRCP99
0173586660999992000051600004+28450+121880FM-12+008499999V0209999C000010042019N0150001N1+02331+02231100991ADDAA199000091GF106991061011004501001001MA1999999100011MD1210111+0001REMSYN076AAXX  16001 58666 32465 60000 10233 20223 30001 40099 52011 86100 333 00003;EQDQ01  00002PRCP99
0186586660999992000051718004+28450+121880FM-12+008499999V0200401N002010360019N0150001N1+01731+01491101131ADDAA199000091GF107991011011004501041999KA1999M+02061MA1999999100141MD1710081+9999REMSYN076AAXX  17181 58666 32465 70402 10173 20149 30014 40113 57008 8114/ 333 10206;EQDQ01  00002PRCP99
0112586660999992000052603004+28450+121880FM-12+008499999V0202001N012010060019N0150001N1+02411+02321100411ADDGF108991081081002501999999MD1410001+9999REMSYN060AAXX  26031 58666 42365 82012 10241 20232 40041 54000 888//;
0112586660999992000060615004+28450+121880FM-12+008499999V0201101N002010120019N0120001N1+02101+02051101091ADDGF108991081051012501999999MD1210131+9999REMSYN060AAXX  06151 58666 42662 81102 10210 20205 40109 52013 885//;
0140586660999992000070909004+28450+121880FM-12+008499999V0200401N013010021019N0100001N1+02511+02421100041ADDAY181031AY281031GF108991081071002501999999MD1710131+9999MW1801REMSYN066AAXX  09091 58666 41360 80413 10251 20242 40004 57013 78088 887//;
0112586660999992000071003004+28450+121880FM-12+008499999V0202201N011019999999N0170001N1+02711+02401100261ADDGF106991011001999999041021MD1210261+9999REMSYN060AAXX  10031 58666 42967 62211 10271 20240 40026 52026 81042;
0186586660999992000080606004+28450+121880FM-12+008499999V0201601N003012200019N0300001N1+02891+02521100991ADDAA199000091GF102991021021004501001001KA1999N+02601MA1999999100031MD1710071+9999REMSYN076AAXX  06061 58666 32480 21603 10289 20252 30003 40099 57007 82200 333 20260;EQDQ01  00002PRCP99
0173586660999992000080900004+28450+121880FM-12+008499999V0203401N005010900019N0250001N1+02781+02481100811ADDAA199000091GF106991011011008001001021MA1999999099851MD1210041+0021REMSYN076AAXX  09001 58666 32575 63405 10278 20248 39985 40081 52004 81102 333 05200;EQDQ01  00002PRCP99
0151586660999992000081022004+28450+121880FM-12+008499999V0202001N012010120019N0060001N1+02711+02631100011ADDGF108991081051012501999999MD1210121+9999MW1101OA130601801REMSYN082AAXX  10221 58666 41656 82012 10271 20263 40001 52012 710// 885// 333 91118 91520;
0173586660999992000082000004+28450+121880FM-12+008499999V0202001N008010090019N0180001N1+02621+02541100431ADDAA199000091GF107991071081004501999999MA1999999099471MD1210031+0021REMSYN076AAXX  20001 58666 32468 72008 10262 20254 39947 40043 52003 878// 333 05251;EQDQ01  00002PRCP99
0112586660999992000090303004+28450+121880FM-12+008499999V0201401N004010042019N0200001N1+02911+02601101061ADDGF106991061021004501001001MD1210031+9999REMSYN060AAXX  03031 58666 42470 61404 10291 20260 40106 52003 86200;
0112586660999992000101809004+28450+121880FM-12+008499999V0200201N008010090019N0150001N1+02081+01561101821ADDGF108991081081004501999999MD1210031+9999REMSYN060AAXX  18091 58666 42465 80208 10208 20156 40182 52003 888//;
0197586660999992000110112004+28450+121880FM-12+008499999V0203401N014010090019N0100001N1+01541+01111101491ADDAA106004191AY161061GF108991081081004501999999MA1999999100481MD1210171+9999MW1001OA130603001REMSYN094AAXX  01121 58666 11460 83414 10154 20111 30048 40149 52017 60041 70060 888// 333 91130 91536;
0209586660999992000111718004+28450+121880FM-12+008499999V0203401N011010120019N0120001N1+01011+00711102741ADDAA199000091GF107991071051012501999999KA1240M+01271MA1999999101701MD1710071+9999OA130601801REMSYN088AAXX  17181 58666 32662 73411 10101 20071 30170 40274 57007 875// 333 10127 91118 91536;EQDQ01  00002PRCP99
0173586660999992000120400004+28450+121880FM-12+008499999V0203601N010010075019N0120001N1+01031+00571102381ADDAA199000091GF105991051011008001001001MA1999999101351MD1210201+0001REMSYN076AAXX  04001 58666 32562 53610 10103 20057 30135 40238 52020 85100 333 00052;EQDQ01  00002PRCP99
0162586660999992000121912004+28450+121880FM-12+008499999V0203601N009010090019N0080001N1+01251+01061102411ADDAA106000791GF108991081081004501999999MA1999999101381MD1210081+9999MW1211REMSYN078AAXX  19121 58666 11458 83609 10125 20106 30138 40241 52008 69901 72100 888//;
0185586660999992000122212004+28450+121880FM-12+008499999V0203601N003012200019N0080001N1+01121+00861102161ADDAA199000091GA1001+999999999GF100991001001999999001001MA1999999101121MD1210201+9999MW1101REMSYN066AAXX  22121 58666 31958 03603 10112 20086 30112 40216 52020 71000;EQDQ01  00002PRCP99
0176586670999992000011506004+28130+121220FM-12+010099999V0203601N006010042019N0050001N1+00811+00751101821ADDAA106002091AY161061GF108991081051004501999999KA1999N+00511MD1710251+9999MW1601REMSYN086    AAXX  15061 58667 11450 83606 10081 20075 40182 57025 60021 76060 885// 333 20051;
0145586670999992000021221004+28130+121220FM-12+010099999V0200401N004010075019N0200001N1+00951+00561101841ADDAA124000791GF108991081071008001999999MD1710041+9999MW1601REMSYN076AAXX  12211 58667 41570 80404 10095 20056 40184 57004 76000 887// 333 79999;
0165586670999992000033018004+28130+121220FM-12+010099999V0209999C000019999999N0200001N1+01511+01041101091ADDAA199000091GF108991081001999999071999KA1999M+01751MD1710201+9999REMSYN070AAXX  30181 58667 32970 80000 10151 20104 40109 5702/ 8807/ 333 10175;EQDQ01  00002PRCP99
0124587150999992000011021004+27580+116650FM-12+008299999V0209999C000019999999N0015001N1+00971+00951101511ADDGF108991081001999999071999MD1710051+9999MW1101REMSYN066AAXX  10211 58715 41915 80000 10097 20095 40151 57005 71000 8807/;
0134587150999992000012003004+27580+116650FM-12+008299999V0200201N003012200019N0040001N1+00421-00071103361ADDGA1001+999999999GF100991001001999999001001MD1210171+9999MW1101REMSYN060AAXX  20031 58715 41940 00203 10042 21007 40336 52017 71000;
0180587150999992000012700004+27580+116650FM-12+008299999V0203401N004012200019N0180001N1-00331-00861104021ADDAA199000091GA1001+999999999GF100991001001999999001001IA2999-00409MD1210161+0101REMSYN070AAXX  27001 58715 32968 03404 11033 21086 40402 52016 333 00152 31047;EQDQ01  00002PRCP99
0180587150999992000020418004+27580+116650FM-12+008299999V0203601N003010021019N0020001N1+00261+00231102671ADDAA106000791AY161061AY261061GF108991071071002501071999KA1999M+00411MD1710011+9999MW1601REMSYN082AAXX  04181 58715 11320 83603 10026 20023 40267 57001 69901 76066 8777/ 333 10041;
0132587150999992000021203004+27580+116650FM-12+008299999V0203601N002010150019N0020001N1+00921+00861101891ADDAY161031GF108991061051017501071999MD1210071+9999MW1601REMSYN066AAXX  12031 58715 41720 83602 10092 20086 40189 52007 76060 8657/;
0165587150999992000022606004+27580+116650FM-12+008299999V0203601N003019999999N0150001N1+01101-00151102651ADDAA199000091GF106991061001999999041001KA1999N+00261MD1710441+9999REMSYN070AAXX  26061 58715 32965 63603 10110 21015 40265 57044 86040 333 20026;EQDQ01  00002PRCP99
0112587150999992000031203004+27580+116650FM-12+008299999V0209999C000010150019N0150001N1+00941+00661101831ADDGF108991051051017501071999MD1210111+9999REMSYN060AAXX  12031 58715 42765 80000 10094 20066 40183 52011 8557/;
0149587150999992000032512004+27580+116650FM-12+008299999V0209999C000010150019N0060001N1+01181+01041102421ADDAA106000191AY161061GF108991051051017501071999MD1210061+9999MW1101REMSYN072AAXX  25121 58715 11756 80000 10118 20104 40242 52006 69911 71060 8557/;
0173587150999992000033100004+27580+116650FM-12+008299999V0201801N003010021019N0080001N1+01531+01431101201ADDAA106005191AY161061AY261061GF108991071071002501071999MD1210201-0401MW1601REMSYN088AAXX  31001 58715 11358 81803 10153 20143 40120 52020 60051 76066 8777/ 333 05401 70046;
0132587150999992000042909004+27580+116650FM-12+008299999V0209999C000010021019N0060001N1+01921+01841101031ADDAY161031GF108991071071002501071999MD1710111+9999MW1601REMSYN066AAXX  29091 58715 41356 80000 10192 20184 40103 57011 76060 8777/;
0153587150999992000050121004+27580+116650FM-12+008299999V0203601N003010021019N0030001N1+01791+01711101211ADDAA124003391AY161031GF108991071051002501071999MD1210071+9999MW1601REMSYN076AAXX  01211 58715 41330 83603 10179 20171 40121 52007 76060 8757/ 333 70032;
0112587150999992000051909004+27580+116650FM-12+008299999V0209999C000019999999N0300001N1+02321+01711100951ADDGF107991071001999999041999MD1710101+9999REMSYN060AAXX  19091 58715 42980 70000 10232 20171 40095 57010 8704/;
0165587150999992000052206004+27580+116650FM-12+008299999V0201801N001019999999N0300001N1+03121+01291101051ADDAA199000091GF107991001001999999001021KA1999N+01881MD1710161+9999REMSYN070AAXX  22061 58715 32980 71801 10312 20129 40105 57016 80002 333 20188;EQDQ01  00002PRCP99
0157587150999992000052612004+27580+116650FM-12+008299999V0209999C000010150019N0180001N1+02401+02271100381ADDAA106003091AY191061AY281061GF108991051051017501071999MD1210131+9999MW1001REMSYN072AAXX  26121 58715 11768 80000 10240 20227 40038 52013 60031 70098 8557/;
0112587150999992000062909004+27570+116640FM-12+008299999V0209999C000010900019N0300001N1+03561+02391100191ADDGF107991041021008001001021MD1710171+9999REMSYN060AAXX  29091 58715 42580 70000 10356 20239 40019 57017 84202;
0112587150999992000072303004+27570+116640FM-12+008299999V0201601N003010900019N0300001N1+03271+02331100321ADDGF105991011011008001001021MD1710041+9999REMSYN060AAXX  23031 58715 42580 51603 10327 20233 40032 57004 81102;
0112587150999992000072709004+27570+116640FM-12+008299999V0209999C000010360019N0150001N1+03571+02611099691ADDGF106991011011008001041021MD1710171+9999REMSYN060AAXX  27091 58715 42565 60000 10357 20261 49969 57017 81142;
0112587150999992000080803004+27570+116640FM-12+008299999V0201401N005010360019N0300001N1+03001+02401100951ADDGF106991021021008001041021MD1210021+9999REMSYN060AAXX  08031 58715 42580 61405 10300 20240 40095 52002 82242;
0142587150999992000090312004+27570+116640FM-12+008299999V0203201N002012200019N0250001N1+03021+02681100691ADDAA199000091GF104991001001999999001021MD1210111+9999REMSYN060AAXX  03121 58715 32975 43202 10302 20268 40069 52011 80002;EQDQ01  00002PRCP99
0164587150999992000091600004+27570+116640FM-12+008299999V0201401N002019999999N0040001N1+01691+01521101341ADDAA199000091GF106991001001999999001021MD1210251+0041MW1101REMSYN076AAXX  16001 58715 31940 61402 10169 20152 40134 52025 71000 80002 333 00453;EQDQ01  00002PRCP99
0134587150999992000092421004+27570+116640FM-12+008299999V0201801N003012200019N0080001N1+02401+02241100981ADDGA1001+999999999GF100991001001999999001001MD1410001+9999MW1101REMSYN060AAXX  24211 58715 41958 01803 10240 20224 40098 54000 71000;
0112587150999992000092603004+27570+116640FM-12+008299999V0201401N003019999999N0280001N1+02991+02031101281ADDGF106991041001999999041021MD1210031+9999REMSYN060AAXX  26031 58715 42978 61403 10299 20203 40128 52003 84042;
0164587150999992000101700004+27570+116640FM-12+008299999V0203601N003010360019N0020001N1+01671+01481102001ADDAA199000091GF108991021051017501071999MD1210141+0041MW1101REMSYN076AAXX  17001 58715 31720 83603 10167 20148 40200 52014 71000 8257/ 333 05400;EQDQ01  00002PRCP99
0154587150999992000111712004+27570+116640FM-12+008299999V0203401N003010150019N0080001N1+00901+00711102811ADDAA199000091GF108991061051017501071999MD1210101+9999MW1101REMSYN066AAXX  17121 58715 31758 83403 10090 20071 40281 52010 71000 8657/;EQDQ01  00002PRCP99
0172587150999992000121118004+27570+116640FM-12+008299999V0203201N004010150019N0030001N1+00651+00561102961ADDAA106000791AY161061GF108991071051017501071999KA1999M+01111MD1710021+9999MW1601REMSYN082AAXX  11181 58715 11730 83204 10065 20056 40296 57002 69901 76060 8757/ 333 10111;
0135587150999992000122912004+27570+116640FM-12+008299999V0203201N002010150019N0030001N1+01041+00771102271ADDAA199000021GF108991061051017501071999MD1210101+9999MW1101REMSYN066AAXX  29121 58715 31730 83202 10104 20077 40227 52010 71000 8657/;
0196587250999992000020806004+27330+117430FM-12+019299999V0203201N002012200019N0300001N1+01351-00391102201ADDAA199000091GA1001+999999999GF100991001001999999001001KA1999N-00071MA1999999099521MD1710351+9999REMSYN070AAXX  08061 58725 32980 03202 10135 21039 39952 40220 57035 333 21007;EQDQ01  00002PRCP99
0145587250999992000021221004+27330+117430FM-12+019299999V0209999C000010120019N0100001N1+01231+01211101601ADDAA124004891GF108991081051012501999999MD1710071+9999MW1601REMSYN076AAXX  12211 58725 41660 80000 10123 20121 40160 57007 76000 885// 333 70048;
0160587250999992000022100004+27330+117430FM-12+019299999V0209999C000019999999N0250001N1+00641+00601102151ADDAA124005191GF108991081001999999071999MA1999999099461MD1210081+0401REMSYN082AAXX  21001 58725 32975 80000 10064 20060 39946 40215 52008 8807/ 333 00400 70050;
0140587250999992000022215004+27330+117430FM-12+019299999V0209999C000010120019N0090001N1+00831+00791101861ADDAY161031AY261031GF108991081051012501999999MD1210071+9999MW1601REMSYN066AAXX  22151 58725 41659 80000 10083 20079 40186 52007 76066 885//;
0185587250999992000032118004+27330+117430FM-12+019299999V0209999C000010150019N0150001N1+01681+01611101321ADDAA106000191GF108991081051017501999999KA1999M+02661MA1999999098781MD1710051+9999MW1601REMSYN088AAXX  21181 58725 11765 80000 10168 20161 39878 40132 57005 69911 76000 885// 333 10266;
0122587250999992000032409004+27330+117430FM-12+019299999V0201401N001012200019N0300001N1+02071+00351101991ADDGA1001+999999999GF100991001001999999001001MD1710181+9999REMSYN054AAXX  24091 58725 42980 01401 10207 20035 40199 57018;
0170587250999992000040812004+27330+117430FM-12+019299999V0209999C000010120019N0100001N1+01561+01491101581ADDAA106003091AY161061GF108991081051012501999999MA1999999098991MD1410001+9999MW1601REMSYN078AAXX  08121 58725 11660 80000 10156 20149 39899 40158 54000 60031 76060 885//;
0140587250999992000041309004+27330+117430FM-12+019299999V0209999C000010120019N0060001N1+01741+01671100961ADDAY191031AY261031GF108991081091012501999999MD1710081+9999MW1951REMSYN066AAXX  13091 58725 41656 80000 10174 20167 40096 57008 79596 889//;
0160587250999992000041500004+27330+117430FM-12+019299999V0203201N002010120019N0300001N1+01161+00881101931ADDAA124020391GF108991081051012501999999MA1999999099321MD1210171+1301REMSYN082AAXX  15001 58725 32680 83202 10116 20088 39932 40193 52017 885// 333 01356 70203;
0161587250999992000041921004+27330+117430FM-12+019299999V0201101N001010120019N0120001N1+02001+01941100801ADDAA124016591AY181031AY261031GF108991081091012501999999MD1710121+9999MW1291REMSYN076AAXX  19211 58725 41662 81101 10200 20194 40080 57012 72986 889// 333 70166;
0112587250999992000051003004+27330+117430FM-12+019299999V0203201N002012200019N0300001N1+02631+01721100941ADDGF102991011011012501001011MD1710011+9999REMSYN060AAXX  10031 58725 42680 23202 10263 20172 40094 57001 81101;
0173587250999992000051200004+27330+117430FM-12+019299999V0209999C000019999999N0150001N1+01861+01661100941ADDAA199000091GF107991001001999999001021MA1999999098411MD1210101+0021REMSYN076AAXX  12001 58725 32965 70000 10186 20166 39841 40094 52010 80002 333 05203;EQDQ01  00002PRCP99
0122587250999992000051221004+27330+117430FM-12+019299999V0209999C000012200019N0100001N1+01621+01551100871ADDGA1001+999999999GF100991001001999999001001MD1210071+9999REMSYN054AAXX  12211 58725 42960 00000 10162 20155 40087 52007;
0112587250999992000052503004+27330+117430FM-12+019299999V0201401N002010150019N0300001N1+02681+02001100631ADDGF108991081051017501999999MD1710061+9999REMSYN060AAXX  25031 58725 42780 81402 10268 20200 40063 57006 885//;
0170587250999992000062012004+27320+117430FM-12+019299999V0209999C000010150019N0080001N1+02421+02361100801ADDAA106008991AY161061GF108991081051017501999999MA1999999098301MD1210101+9999MW1601REMSYN078AAXX  20121 58725 11758 80000 10242 20236 39830 40080 52010 60091 76060 885//;
0170587250999992000070512004+27320+117430FM-12+019299999V0201601N001019999999N0300001N1+02681+02321100511ADDAA106000791AY161061GF107991061001999999041021MA1999999098041MD1210141+9999MW1001REMSYN078AAXX  05121 58725 11980 71601 10268 20232 39804 40051 52014 69901 70060 86042;
0112587250999992000071203004+27320+117430FM-12+019299999V0200201N003012200019N0300001N1+03281+02251101081ADDGF102991011011012501001021MD1710111+9999REMSYN060AAXX  12031 58725 42680 20203 10328 20225 40108 57011 81102;
0112587250999992000072615004+27320+117430FM-12+019299999V0202001N001019999999N0100001N1+02401+02341100241ADDGF107991071001999999041999MD1710021+9999REMSYN060AAXX  26151 58725 42960 72001 10240 20234 40024 57002 8704/;
0112587250999992000080309004+27320+117430FM-12+019299999V0201101N002010360019N0300001N1+03191+02261100371ADDGF107991011011012501041001MD1710111+9999REMSYN060AAXX  03091 58725 42680 71102 10319 20226 40037 57011 81140;
0173587250999992000080600004+27320+117430FM-12+019299999V0200701N002012200019N0200001N1+02821+02271100971ADDAA199000091GF101991001001999999001021MA1999999098501MD1210091+0011REMSYN076AAXX  06001 58725 32970 10702 10282 20227 39850 40097 52009 80002 333 00101;EQDQ01  00002PRCP99
0173587250999992000092512004+27320+117430FM-12+019299999V0209999C000012200019N0250001N1+02501+02211101131ADDAA199000091GA1001+999999999GF100991001001999999001001MA1999999098611MD1210241+9999REMSYN060AAXX  25121 58725 32975 00000 10250 20221 39861 40113 52024;EQDQ01  00002PRCP99
0112587250999992000100709004+27320+117430FM-12+019299999V0203201N002012200019N0300001N1+02961+01931101161ADDGF101991011011012501001001MD1710101+9999REMSYN060AAXX  07091 58725 42680 13202 10296 20193 40116 57010 81100;
0140587250999992000102103004+27320+117430FM-12+019299999V0209999C000010150019N0120001N1+02081+01941101771ADDAY161031AY261031GF108991081051017501999999MD1710071+9999MW1601REMSYN066AAXX  21031 58725 41762 80000 10208 20194 40177 57007 76066 885//;
0186587250999992000102200004+27320+117430FM-12+019299999V0209999C000010150019N0100001N1+02081+02021101451ADDAA106001091AY161061GF108991081051017501999999MA1999999098901MD1210091-0401MW1001REMSYN094AAXX  22001 58725 11760 80000 10208 20202 39890 40145 52009 60011 70060 885// 333 05402 70267;
0122587250999992000110203004+27320+117430FM-12+019299999V0209999C000012200019N0120001N1+01621+00841102331ADDGA1001+999999999GF100991001001999999001001MD1710101+9999REMSYN054AAXX  02031 58725 42962 00000 10162 20084 40233 57010;
0163587250999992000110512004+27320+117430FM-12+019299999V0209999C000019999999N0300001N1+01841+01521101561ADDAA199000091GF107991071001999999041999MA1999999098951MD1210091+9999REMSYN066AAXX  05121 58725 32980 70000 10184 20152 39895 40156 52009 8704/;EQDQ01  00002PRCP99
0112587250999992000110621004+27320+117430FM-12+019299999V0209999C000019999999N0150001N1+01671+01621101561ADDGF108991081001999999071999MD1210021+9999REMSYN060AAXX  06211 58725 42965 80000 10167 20162 40156 52002 8807/;
0112587250999992000111503004+27320+117430FM-12+019299999V0203401N002010150019N0200001N1+01651+01281102271ADDGF108991081051017501999999MD1210011+9999REMSYN060AAXX  15031 58725 42770 83402 10165 20128 40227 52001 885//;
0193587250999992000120306004+27320+117430FM-12+019299999V0202501N002010150019N0250001N1+01101+00821102431ADDAA106000391AY161061GF108991081051017501999999KA1999N+01051MA1999999099781MD1710181+9999MW1001REMSYN088AAXX  03061 58725 11775 82502 10110 20082 39978 40243 57018 69931 70060 885// 333 20105;
0112587250999992000122103004+27320+117430FM-12+019299999V0203201N002010120019N0250001N1+00741+00441102751ADDGF108991081051012501999999MD1710041+9999REMSYN060AAXX  21031 58725 42675 83202 10074 20044 40275 57004 885//;
0122587250999992000122209004+27320+117430FM-12+019299999V0209999C000012200019N0300001N1+01411+00501102091ADDGA1001+999999999GF100991001001999999001001MD1210021+9999REMSYN054AAXX  22091 58725 42980 00000 10141 20050 40209 52002;
0112587300999992000020909004+27370+118850FM-12+045699999V0202201N002019999999N0280001N1+01361+00081101991ADDGF108991081001999999071999MD1410001+9999REMSYN060AAXX  09091 58730 42978 82202 10136 20008 40199 54000 8807/;
0149587300999992000021212004+27370+118850FM-12+045699999V0209999C000010150019N0200001N1+01371+01221101661ADDAA106000791AY161061GF108991081051017501999999MD1210061+9999MW1001REMSYN072AAXX  12121 58730 11770 80000 10137 20122 40166 52006 69901 70060 885//;
0152587300999992000021600004+27370+118850FM-12+045699999V0200401N001019999999N0250001N1+00851+00341102371ADDAA199000091GF108991081001999999071999MD1210181+0021REMSYN070AAXX  16001 58730 32975 80401 10085 20034 40237 52018 8807/ 333 05202;EQDQ01  00002PRCP99
0133587300999992000030121004+27370+118850FM-12+045699999V0209999C000010042019N0120001N1+00621+00581102411ADDAA124000891GF108991071051004501071999MD1710121+9999REMSYN070AAXX  01211 58730 42462 80000 10062 20058 40241 57012 8757/ 333 70008;
0122587300999992000032403004+27370+118850FM-12+045699999V0203601N002012200019N0200001N1+01541+00131102551ADDGA1001+999999999GF100991001001999999001001MD1710071+9999REMSYN054AAXX  24031 58730 42970 03602 10154 20013 40255 57007;
0149587300999992000042312004+27370+118850FM-12+045699999V0202501N002010042019N0110001N1+01641+01541101351ADDAA106007991AY161061GF108991061051004501071999MD1210161+9999MW1211REMSYN072AAXX  23121 58730 11461 82502 10164 20154 40135 52016 60081 72160 8657/;
0172587300999992000050118004+27370+118850FM-12+045699999V0209999C000019999999N0110001N1+01781+01711101081ADDAA106003091AY161061GF106991061001999999041001KA1999M+02241MD1710131+9999MW1001REMSYN082AAXX  01181 58730 11961 60000 10178 20171 40108 57013 60031 70060 86040 333 10224;
0172587300999992000053006004+27370+118850FM-12+045699999V0202201N002012200019N0300001N1+02981+02341100531ADDAA106000191AY161061GF104991041011012501041001KA1999N+02181MD1710321+9999MW1001REMSYN082AAXX  30061 58730 11680 42202 10298 20234 40053 57032 69911 70060 84140 333 20218;
0165587300999992000080418004+27360+118850FM-12+045699999V0203601N001019999999N0150001N1+02621+02301100761ADDAA199000091GF107991071001999999041999KA1999M+03321MD1710011+9999REMSYN070AAXX  04181 58730 32965 73601 10262 20230 40076 57001 8704/ 333 10332;EQDQ01  00002PRCP99
0172587300999992000081718004+27360+118850FM-12+045699999V0202201N001010150019N0180001N1+02431+02311100831ADDAA106000191AY161061GF108991061051017501071999KA1999M+03151MD1710111+9999MW1001REMSYN082AAXX  17181 58730 11768 82201 10243 20231 40083 57011 69911 70060 8657/ 333 10315;
0112587300999992000090303004+27360+118850FM-12+045699999V0200901N001012200019N0300001N1+03161+02241100921ADDGF102991021021012501001001MD1710061+9999REMSYN060AAXX  03031 58730 42680 20901 10316 20224 40092 57006 82200;
0112587300999992000092621004+27360+118850FM-12+045699999V0203601N001019999999N0100001N1+02291+02131101351ADDGF105991051001999999041001MD1710011+9999REMSYN060AAXX  26211 58730 42960 53601 10229 20213 40135 57001 85040;
0172587300999992000100618004+27360+118850FM-12+045699999V0200201N001019999999N0150001N1+01941+01781101511ADDAA106000791AY161061GF106991061001999999041001KA1999M+02461MD1710121+9999MW1211REMSYN082AAXX  06181 58730 11965 60201 10194 20178 40151 57012 69901 72160 86040 333 10246;
0112587300999992000100709004+27360+118850FM-12+045699999V0202701N001012200019N0300001N1+02771+01951101161ADDGF103991031031012501061001MD1710081+9999REMSYN060AAXX  07091 58730 42680 32701 10277 20195 40116 57008 83360;
0112587300999992000121803004+27360+118850FM-12+045699999V0202001N001010360019N0150001N1+01691+01201102071ADDGF106991021051017501041001MD1710091+9999REMSYN060AAXX  18031 58730 42765 62001 10169 20120 40207 57009 82540;
0195587300999992000122406004+27360+118850FM-12+045699999V0202201N001012200019N0300001N1+01561+00491102271ADDAA199000091AY141061GA1001+999999999GF100991001001999999001001KA1999N+00171MD1710321+9999MW1001REMSYN070AAXX  24061 58730 31980 02201 10156 20049 40227 57032 70040 333 20017;EQDQ01  00002PRCP99
0175587310999992000010106004+27920+118530FM-12+027599999V0203201N001012200019N0200001N1+01851+00591101831ADDAA106000091GA1001+999999999GF100991001001999999001001KA1999N+00241MD1710321+9999REMSYN064AAXX  01061 58731 32970 03201 10185 20059 40183 57032 333 20024;EQDQ01  00002PRCP06
0122587310999992000010221004+27920+118530FM-12+027599999V0209999C000012200019N0110001N1+00431+00381102031ADDGA1001+999999999GF100991001001999999001001MD1710021+9999REMSYN054AAXX  02211 58731 42961 00000 10043 20038 40203 57002;
0140587310999992000012403004+27920+118530FM-12+027599999V0203601N003010120019N0070001N1+00801+00761102581ADDAY161031AY261031GF108991081051012501999999MD1210151+9999MW1601REMSYN066AAXX  24031 58731 41657 83603 10080 20076 40258 52015 76066 885//;
0180587310999992000021618004+27920+118530FM-12+027599999V0209999C000019999999N0130001N1+00441+00341102581ADDAA106002091AY161061AY261061GF108991081001999999071999KA1999M+00891MD1710021+9999MW1211REMSYN082AAXX  16181 58731 11963 80000 10044 20034 40258 57002 60021 72166 8807/ 333 10089;
0132587310999992000031103004+27920+118530FM-12+027599999V0203601N005010021019N0130001N1+00861+00781101551ADDAY161031GF108991081051002501999999MD1710061+9999MW1601REMSYN066AAXX  11031 58731 41363 83605 10086 20078 40155 57006 76060 885//;
0112587310999992000040621004+27920+118530FM-12+027599999V0209999C000019999999N0200001N1+01341+01271101811ADDGF108991081001999999071999MD1710061+9999REMSYN060AAXX  06211 58731 42970 80000 10134 20127 40181 57006 8807/;
0153587310999992000042321004+27920+118530FM-12+027599999V0201601N002019999999N0130001N1+01371+01301101261ADDAA124004891AY161031GF108991081001999999071999MD1210011+9999MW1211REMSYN076AAXX  23211 58731 41963 81602 10137 20130 40126 52001 72160 8807/ 333 70049;
0140587310999992000060409004+27920+118530FM-12+027599999V0200201N003010150019N0240001N1+02621+02411100521ADDAY191031AY281031GF107991071091017501999999MD1210111+9999MW1291REMSYN066AAXX  04091 58731 41774 70203 10262 20241 40052 52011 72998 879//;
0149587310999992000062312004+27920+118520FM-12+027599999V0200401N001010360019N0230001N1+02501+02401100611ADDAA106000791AY161061GF108991021051017501071999MD1210051+9999MW1001REMSYN072AAXX  23121 58731 11773 80401 10250 20240 40061 52005 69901 70060 8257/;
0146587310999992000071006004+27920+118520FM-12+027599999V0201401N001012200019N0300001N1+03121+02191100411ADDAA199000021GF104991041021017501041001KA1999N+02191MD1710041+9999REMSYN070AAXX  10061 58731 32780 41401 10312 20219 40041 57004 84240 333 20219;
0112587310999992000073109004+27920+118520FM-12+027599999V0202001N003010360019N0280001N1+03121+02201100281ADDGF105991031021017501041001MD1710061+9999REMSYN060AAXX  31091 58731 42778 52003 10312 20220 40028 57006 83240;
0172587310999992000080618004+27920+118520FM-12+027599999V0200701N001019999999N0210001N1+03521+02411100881ADDAA106000791AY161061GF107991071001999999041999KA1999M+03521MD1710021+9999MW1001REMSYN082AAXX  06181 58731 11971 70701 10352 20241 40088 57002 69901 70060 8704/ 333 10352;
0112587310999992000080703004+27920+118520FM-12+027599999V0202501N003012200019N0300001N1+03161+02291100931ADDGF101991011011012501001001MD1710091+9999REMSYN060AAXX  07031 58731 42680 12503 10316 20229 40093 57009 81100;
0173587310999992000080800004+27920+118520FM-12+027599999V0209999C000019999999N0210001N1+02531+02341101081ADDAA106000191AY191061AY281061GF107991071001999999041999MD1210141+0001MW1001REMSYN088AAXX  08001 58731 11971 70000 10253 20234 40108 52014 69911 70098 8704/ 333 00051 70054;
0165587310999992000081018004+27920+118520FM-12+027599999V0202501N002019999999N0160001N1+02521+02381100091ADDAA199000091GF107991071001999999041999KA1999M+03251MD1710091+9999REMSYN070AAXX  10181 58731 32966 72502 10252 20238 40009 57009 8704/ 333 10325;EQDQ01  00002PRCP99
0112587310999992000091003004+27920+118520FM-12+027599999V0203601N005019999999N0260001N1+02421+01711101161ADDGF107991071001999999041999MD1710061+9999REMSYN060AAXX  10031 58731 42976 73605 10242 20171 40116 57006 8704/;
0149587310999992000092112004+27920+118520FM-12+027599999V0202701N002019999999N0180001N1+02101+01911101941ADDAA106000391AY161061GF108991081001999999071999MD1210181+9999MW1601REMSYN072AAXX  21121 58731 11968 82702 10210 20191 40194 52018 69931 76060 8807/;
0172587310999992000092300004+27920+118520FM-12+027599999V0209999C000012200019N0005001N1+01861+01801101731ADDAA199000091AY141061GF101991011061002501001001MD1210131+0021MW1421REMSYN076AAXX  23001 58731 31305 10000 10186 20180 40173 52013 74240 81600 333 05200;EQDQ01  00002PRCP99
0152587310999992000101700004+27920+118520FM-12+027599999V0209999C000019999999N0200001N1+01761+01471101981ADDAA199000091GF107991071001999999041999MD1210061+0061REMSYN070AAXX  17001 58731 32970 70000 10176 20147 40198 52006 8704/ 333 05601;EQDQ01  00002PRCP99
0142587310999992000102912004+27920+118520FM-12+027599999V0200201N004010150019N0300001N1+01431+01071102161ADDAA199000091GF108991081051017501999999MD1210181+9999REMSYN060AAXX  29121 58731 32780 80204 10143 20107 40216 52018 885//;EQDQ01  00002PRCP99
0165587310999992000111600004+27920+118520FM-12+027599999V0200201N005010360019N0180001N1+01181+01101102511ADDAA106006191AY161061GF108991021071004501071999MD1210201+0201MW1601REMSYN088AAXX  16001 58731 11468 80205 10118 20110 40251 52020 60061 76060 8277/ 333 00253 70055;
0133587310999992000111721004+27920+118520FM-12+027599999V0201101N001019999999N0220001N1+00961+00421102711ADDAA124000791GF108991081001999999071999MD1710011+9999REMSYN070AAXX  17211 58731 42972 81101 10096 20042 40271 57001 8807/ 333 79999;
0165587310999992000121118004+27920+118520FM-12+027599999V0200401N001019999999N0130001N1+00801+00561102881ADDAA199000091GF108991081001999999071999KA1999M+01201MD1710151+9999REMSYN070AAXX  11181 58731 32963 80401 10080 20056 40288 57015 8807/ 333 10120;EQDQ01  00002PRCP99
0172587370999992000020606004+27050+118320FM-12+011299999V0209999C000010120019N0200001N1+01101+00591101961ADDAA106000791AY161061GF108991081051012501999999KA1999N+00661MD1710411+9999MW1001REMSYN082AAXX  06061 58737 11670 80000 10110 20059 40196 57041 69901 70060 885// 333 20066;
0152587370999992000020900004+27050+118320FM-12+011299999V0201601N003019999999N0180001N1+00901+00241102371ADDAA199000091GF108991081001999999071999MD1210141+0011REMSYN070AAXX  09001 58737 32968 81603 10090 20024 40237 52014 8807/ 333 05107;EQDQ01  00002PRCP99
0149587540999992000011312004+27330+120200FM-12+003899999V0200701N001010075019N0120001N1+00891+00741102051ADDAA106004191AY161061GF108991081051008001999999MD1210151+9999MW1601REMSYN072AAXX  13121 58754 11562 80701 10089 20074 40205 52015 60041 76060 885//;
0161587540999992000011800004+27330+120200FM-12+003899999V0209999C000019999999N0200001N1+00581+00061102601ADDAA124000791GF107991071001999999031999IA2999+00439MD1210141+0201REMSYN086    AAXX  18001 58754 32970 70000 10058 20006 40260 52014 8703/ 333 00252 30043 79999;
0112587540999992000012209004+27330+120200FM-12+003899999V0200901N001010120019N0160001N1+01621+01161102251ADDGF107991071051012501999999MD1710031+9999REMSYN060AAXX  22091 58754 42666 70901 10162 20116 40225 57003 875//;
0180587540999992000012406004+27330+120200FM-12+003899999V0203601N001010042019N0120001N1+01121+00981102461ADDAA106000591AY161061AY261061GF108991081051004501999999KA1999N+01101MD1710211+9999MW1601REMSYN082AAXX  24061 58754 11462 83601 10112 20098 40246 57021 69941 76066 885// 333 20110;
0146587540999992000012918004+27330+120200FM-12+003899999V0200201N001019999999N0100001N1+00841+00321103421ADDAA199000021GF108991081001999999071999KA1999M+01141MD1710011+9999REMSYN070AAXX  29181 58754 32960 80201 10084 20032 40342 57001 8807/ 333 10114;
0139587540999992000013000004+27330+120200FM-12+003899999V0200201N004019999999N0150001N1+00791-00221103671ADDAA124000791GF107991071001999999031999MD1210221+0501REMSYN076AAXX  30001 58754 32965 70204 10079 21022 40367 52022 8703/ 333 00502 79999;
