0054725327999992000111010009+41450-087000NSRDB+024199999V020999999999999999999999999999+99999+99999999999ADDGP10060000002000000002000000002000GR100600000900009
0071725327999992000111122009+41450-087000NSRDB+024199999V020999999999999999999999999999+99999+99999999999ADDGP10060003002009000002021003002009GQ100600806923629GR100600227913969
0217725327999992000111411534+41440-087000FM-15+0234KVPZ V0202501N005719999999N9999999N1+00101-00101101281ADDAA106000021AA224001091KA1999M+00061KA2999N-00111MA1101221999999MD1310061+9999MW1001REMMET103KVPZ 141153Z AUTO 25011KT OVC010 01/M01 A2989 RMK AO2 SLP128 60000 70004 T00061011 10006 21011 53006 $;EQDQ01+000000PRSWM2
0196725327999992000111718374+41440-087000FM-15+0234KVPZ V0202901N005110084019N0160931N1+00101-00601999999ADDGD13991+0084019GD23991+0105019GD34991+0150019GF108991999999999999999999MA1101831999999MW1001REMMET073KVPZ 171837Z AUTO 29010KT 10SM BKN028 BKN035 OVC050 01/M06 A3007 RMK AO2;EQDQ01+000000PRSWM2
0172725327999992000111809534+41440-087000FM-15+0234KVPZ V0202401N005710084019N0160931N1-00301-00901102341ADDGD14991+0084019GF108991999999999999999999MA1102241999999MW1001REMMET079KVPZ 180953Z AUTO 24011KT 10SM OVC028 M03/M09 A3019 RMK AO2 SLP234 T10331094 $;EQDQ01+000000PRSWM2
0071725327999992000111918009+41450-087000NSRDB+024199999V020999999999999999999999999999+99999+99999999999ADDGP10060039802009037302021021802009GQ100600612917919GR100600675914019
0054725327999992000112304009+41450-087000NSRDB+024199999V020999999999999999999999999999+99999+99999999999ADDGP10060000002000000002000000002000GR100600000900009
0071725327999992000112318009+41450-087000NSRDB+024199999V020999999999999999999999999999+99999+99999999999ADDGP10060039302009042102021019502009GQ100600621917889GR100600657914039
0054725327999992000112511009+41450-087000NSRDB+024199999V020999999999999999999999999999+99999+99999999999ADDGP10060000002000000002000000002000GR100600000900009
0071725327999992000112523009+41450-087000NSRDB+024199999V020999999999999999999999999999+99999+99999999999ADDGP10060000002009000002021000002009GQ100600886924049GR100600011904569
0071725327999992000112716009+41450-087000NSRDB+024199999V020999999999999999999999999999+99999+99999999999ADDGP10060012002009000002021012002009GQ100600692914879GR100600499914059
0054725327999992000112910009+41450-087000NSRDB+024199999V020999999999999999999999999999+99999+99999999999ADDGP10060000002000000002000000002000GR100600000900009
0189725327999992000120120534+41440-087000FM-15+0234KVPZ V0200601N003610111019N0160931N1+00101-00201102921ADDGD14991+0111019GF108991999999999999999999MA1102841999999MD1310071+9999MW1001REMMET082KVPZ 012053Z AUTO 06007KT 10SM OVC037 01/M02 A3037 RMK AO2 SLP292 T00111022 53007;EQDQ01+000000PRSWM2
0054725327999992000120212009+41450-087000NSRDB+024199999V020999999999999999999999999999+99999+99999999999ADDGP10060000002000000002000000002000GR100600000900009
0170725327999992000120415534+41440-087000FM-15+0234KVPZ V0202001N007210270019N0160931N1-00101-00401102541ADDGD14991+0270019GF108991999999999999999999MA1102441999999MW1001REMMET077KVPZ 041553Z AUTO 20014KT 10SM OVC095 M01/M04 A3025 RMK AO2 SLP254 T10111039;EQDQ01+000000PRSWM2
0152725327999992000120606534+41440-087000FM-15+0234KVPZ V0202701N003112200019N0160931N1-01201-01701102761ADDGF100991999999999999999999MA1102611999999MW1001REMMET074KVPZ 060653Z AUTO 27006KT 10SM CLR M12/M17 A3030 RMK AO2 SLP276 T11171167;EQDQ01+000000PRSWM2
0054725327999992000120908009+41450-087000NSRDB+024199999V020999999999999999999999999999+99999+99999999999ADDGP10060000002000000002000000002000GR100600000900009
0071725327999992000121815009+41450-087000NSRDB+024199999V020999999999999999999999999999+99999+99999999999ADDGP10060005702009000002021005702009GQ100600790913549GR100600270914139
0241725327999992000122021424+41440-087000FM-15+0234KVPZ V0201601N004610087019N0096561N1-01101-01501999999ADDAA101000021GD13991+0087019GD23991+0108019GD34991+0150019GF108991999999999999999999MA1101831999999MW1711REMMET091KVPZ 202142Z AUTO 16009KT 6SM -SN BKN029 BKN036 OVC050 M11/M15 A3007 RMK AO2 SNB36 P0000 $;EQDQ01+000003PRSWM1Q02    003PRSWM1
0274725327999992000122211534+41440-087000FM-15+0234KVPZ V0202501N006210114019N0160931N1-02301-02601102371ADDGD12991+0057019GD23991+0114019GD34991+0138019GF108991999999999999999999KA1999M-02001KA2999N-02281MA1102131999999MD1310091+9999MW1001REMMET111KVPZ 221153Z AUTO 25012KT 10SM FEW019 BKN038 OVC046 M23/M26 A3016 RMK AO2 SLP237 T12281256 11200 21228 53009 $;EQDQ01+000000PRSWM2
0071725327999992000122414009+41450-087000NSRDB+024199999V020999999999999999999999999999+99999+99999999999ADDGP10060000002009000002021000002009GQ100600867912539GR100600061910739
0174725327999992000122520534+41440-087000FM-15+0234KVPZ V0201901N002112200019N0160931N1-01301-01801104121ADDGF100991999999999999999999MA1103931999999MD1510111+9999MW1001REMMET082KVPZ 252053Z AUTO 19004KT 10SM CLR M13/M18 A3069 RMK AO2 SLP412 T11281178 55011 $;EQDQ01+000000PRSWM2
0071725327999992000122521009+41450-087000NSRDB+024199999V020999999999999999999999999999+99999+99999999999ADDGP10060013502009010302021010802009GQ100600749921809GR100600369914149
0191725327999992000122608534+41440-087000FM-15+0234KVPZ V0201801N001510300019N0128741N1-01601-01801103781ADDGD14991+0300019GF108991999999999999999999MA1103591999999MD1610131+9999MW1001REMMET084KVPZ 260853Z AUTO 18003KT 8SM OVC100 M16/M18 A3059 RMK AO2 SLP378 T11611183 56013 $;EQDQ01+000000PRSWM2
0071725327999992000123019009+41450-087000NSRDB+024199999V020999999999999999999999999999+99999+99999999999ADDGP10060007102009000002021007102009GQ100600653918999GR100600592914159
0267725327999992000123104534+41440-087000FM-15+0234KVPZ V0203101N003110099019N0080461N1-00401-00401102031ADDAA101000021GD12991+0060019GD23991+0099019GD34991+0120019GF108991999999999999999999MA1101931999999MW1101MW2711REMMET111KVPZ 310453Z AUTO 31006KT 5SM -SN BR FEW020 BKN033 OVC040 M04/M04 A3010 RMK AO2 SNB49 SLP203 P0000 T10391044 $;EQDQ01+000003PRSWM1Q02    003PRSWM1
0054725327999992000123110009+41450-087000NSRDB+024199999V020999999999999999999999999999+99999+99999999999ADDGP10060000002000000002000000002000GR100600000900009
029572533014827200001010754C+41000-085200FM-15+0241FWA  V0202005N00365220005MN0160005N1-00285-00445101915ADDAA101000095GF100991999999999999999999MA1101835999999MW1001REMMET071KFWA 010754Z 20007KT 10SM CLR M03/M04 A3007 RMK AO2 SLP191 T10281044 $;EQDN01 00000JPWTH 0QNNAA1D0 00000BA1 0 00000GA1U0 99999KA1D0 00024JA1 0-00044LA1 0 01000CA1 0 03007NA1 0 00000QA1 0 10191SA1D0 00027RA1 0-00028YA1 0 20007
0146725330148272000010120544+41000-085200FM-15+0252KFWA V0202201N001512200019N0160931N1+01201+00001101761ADDGF100991999999999999999999MA1101691999999MD1510121+9999MW1001REMMET073KFWA 012054Z 22003KT 10SM CLR 12/00 A3003 RMK AO2 SLP176 T01170000 55012;
0407725330148272000010403003+41000-085200SY-MT+0241FWA  V0200705N00155000305MN0008005N1+00285+00285100061ADDAA101000095GA1091+999999999GD15995+0003059GF109991091999999999999999GP10060000002000000002000000002000GR100600000900009MA1100035097071MD1810231+9999MW1455REMSYN082AAXX  04034 72533 3/008 90703 10028 20028 39707 40006 58023 730// 90254 555 90403;EQDQ01  00002PRCP06N01 00070JPWTH 0QNNAA1D0 07001BA1 0 07001GA1 0 00001KA1D0 00037JA1 0 00028LA1 0 00050CA1 0 02954NA1 0 00070SA1D0 00037RA1 0 00028YA1 0 07003
040772533014827200001041954C+41000-085200FM-15+0241FWA  V0202805N00935005495MN0128005N1-00065-00335101305ADDAA101000025GD13995+0054959GD24995+0076259GF108991999999999999999999MA1101255999999MW1715OC101231REMMET091KFWA 041954Z 28018G24KT 8SM -SN BKN018 OVC025 M01/M03 A2990 RMK AO2 SLP130 P0000 T10061033;EQDQ01+000003PRSWM1Q02    003PRSWM1N01 00040JPWTH 0QNNAA1D0 04018BA1 0 04018AA1D0 06025BA1 0 06025GA1 0 00018KA1D0 00026JA1 0-00033LA1 0 00800CA1 0 02990NA1 0 00040QA1 0 10130SA1D0 00031RA1 0-00006YA1 0 28018
045572533014827200001050154C+41000-085200FM-15+0241FWA  V0202805N00675006405MN0096005N1-00225-00395101895ADDAA101000025GD12995+0048859GD23995+0064059GD34995+0106759GF108991999999999999999999MA1101795999999MW1101MW2455MW3715REMMET098KFWA 050154Z 28013KT 6SM -SN BR SCT016 BKN021 OVC035 M02/M04 A3006 RMK AO2 SLP189 P0000 T10221039;EQDQ01+000003PRSWM1Q02    003PRSWM1N01 04070JPWTH 0QNNAA1D0 02016BA1 0 02016AA1D0 04021BA1 0 04021AA1D0 06035BA1 0 06035GA1 0 00021KA1D0 00025JA1 0-00039LA1 0 00600CA1 0 03006NA1 0 04070QA1 0 10189SA1D0 00028RA1 0-00022YA1 0 28013
0842725330148272000010504596+40971-085206SOD  +0252KFWA V020999999999999999999999999999+99999+99999999999ADDAA124000025AJ100009599999999AL12400096AN1024001096AT1MW16RA  1AT2MW14DZ  5AT3MW18SN  5AT4MW01FG  5AT5MW13BR  1AT6MW09BLSN5KA1240M+01005KA2240N-00325MG1097979999994OE11240169923002455OE22240147523002465OE33240090399999995REMSOD59124 HR PRECIPITATION (IN):  T   SNOW DEPTH (IN):0.0   24 HR SNOWFALL (IN):.4   24 HR MAX TEMP (F): 5024 HR MAX TEMP TIME (LST):0230 24 HR MIN TEMP (F): 2624 HR MIN TEMP TIME (LST):2353 AVERAGE STATION PRESSURE:28.93  PEAK WIND SPEED (MPH): 38 PEAK WIND DIR (DEG):230 PEAK WIND TIME (LST):0245  FASTEST 2MIN SPEED (MPH): 33FASTEST 2MIN DIR (DEG):230 FASTEST 2MIN TIME (LST):0246 AVERAGE WIND SPEED (MPH):20.2 24 HR AVG TEMP (F):38 HOURLY INCREMENTAL PRECIPITATION VALUES (IN): T    T   .00   T    T    T   .00  .00  .00   T    T    T    T    T    T    T    T    T    T    T    T    T    T    TEQDR01    .47ALS031
0054725330148272000010902009+41000-085200NSRDB+024199999V020999999999999999999999999999+99999+99999999999ADDGP10060000002000000002000000002000GR100600000900009
0249725330148272000011013434+41000-085200FM-16+0252KFWA V0202201N00721002101CN0040231N1+00701+00601999999ADDGD13991+0030019GD24991+0045019GF108991999999999999999999MA1099291999999MW1611OC101131REMMET101KFWA 101343Z 22014G22KT 2 1/2SM -RA BR BKN010 OVC015 07/06 A2932 RMK AO2 SFC VIS 3 CIG 007V013 P0002;EQDQ01+000100PRSWM3Q02+000003PRSWM1Q03    003PRSWM1
0167725330148272000011214544+41000-085200FM-15+0252KFWA V0201201N003112200019N0160931N1-00201-00601102301ADDGF100991999999999999999999MA1102201999999MD1810091+9999MW1001REMMET075KFWA 121454Z 12006KT 10SM CLR M02/M06 A3018 RMK AO2 SLP230 T10171056 58009;EQDQ01+000000PRSWM2
0166725330148272000011220544+41000-085200FM-15+0252KFWA V0200601N005112200019N0160931N1+00301-00401101861ADDGF100991999999999999999999MA1101761999999MD1510221+9999MW1001REMMET074KFWA 122054Z 06010KT 10SM CLR 03/M04 A3005 RMK AO2 SLP186 T00331039 55022;EQDQ01+000000PRSWM2
0205725330148272000011511544+41000-085200FM-15+0252KFWA V0202101N004612200019N0160931N1-00301-00701102971ADDGF100991999999999999999999KA1999M-00281KA2999N-00501MA1102881999999MD1610151+9999MW1001REMMET087KFWA 151154Z 21009KT 10SM CLR M03/M07 A3038 RMK AO2 SLP297 T10331067 11028 21050 56015;EQDQ01+000000PRSWM2
0206725330148272000011722544+41000-085200FM-15+0252KFWA V0201001N00621000151CN0016091N1-00601-01101103291ADDAA101000021GD15991+0001519GF109991999999000251999999MA1103151999999MW1711REMMET086KFWA 172254Z 10012KT 1SM -SN VV017 M06/M11 A3046 RMK AO2 SNB28 SLP329 P0000 T10561106;EQDQ01+000003PRSWM1Q02    003PRSWM1
035172533014827200001191554C+41000-085200FM-15+0241FWA  V0202105N00215220005MN0080005N1-00675-00785101875ADDAA101000095GD11995+0335359GF102991999999999999999999MA1101765999999MW1101MW2455REMMET074KFWA 191554Z 21004KT 5SM BR FEW110 M07/M08 A3005 RMK AO2 SLP187 T10671078;EQDQ01+000003PRSWM1Q02    003PRSWM1N01 00070JPWTH 0QNNAA1D0 02110BA1 0 01110GA1U0 99999KA1D0 00018JA1 0-00078LA1 0 00500CA1 0 03005NA1 0 00070QA1 0 10187SA1D0 00020RA1 0-00067YA1 0 21004
0788725330148272000012004596+40971-085206SOD  +0252KFWA V020999999999999999999999999999+99999+99999999999ADDAA124005895AJ100059599999999AL12400395AN1024009195AT1MW18SN  5AT2MW01FG  5AT3MW13BR  1KA1240M-00275KA2240N-01435MG1098279999994OE11240058127001195OE22240049227001225OE33240023799999995REMSOD59224 HR PRECIPITATION (IN): 0.23 SNOW DEPTH (IN):2.0   24 HR SNOWFALL (IN):3.6  24 HR MAX TEMP (F): 2724 HR MAX TEMP TIME (LST):1711 24 HR MIN TEMP (F):  624 HR MIN TEMP TIME (LST):0714 AVERAGE STATION PRESSURE:29.02  PEAK WIND SPEED (MPH): 13 PEAK WIND DIR (DEG):270 PEAK WIND TIME (LST):0119  FASTEST 2MIN SPEED (MPH): 11FASTEST 2MIN DIR (DEG):270 FASTEST 2MIN TIME (LST):0122 AVERAGE WIND SPEED (MPH): 5.3 24 HR AVG TEMP (F):17 HOURLY INCREMENTAL PRECIPITATION VALUES (IN):.00  .00  .00  .00  .00  .00  .00  .00  .00  .00  .00  .00  .00  .00  .00  .00  .00   T   .02  .05  .04  .05  .05  .02
0214725330148272000012007344+41000-085200FM-16+0252KFWA V0203401N002610090019N0048281N1-00501-00601999999ADDGD13991+0090019GD24991+0117019GF108991999999999999999999MA1100441999999MW1711REMMET074KFWA 200734Z 34005KT 3SM -SN BR BKN030 OVC039 M05/M06 A2966 RMK AO2 P0000;EQDQ01+000100PRSWM3Q02+000003PRSWM1Q03    003PRSWM1
0242725330148272000012213043+41000-085200FM-16+0252KFWA V0201001N00311000151CN0016091N1-01601-01801999999ADDGD15991+0001519GF109991999999000251999999GP10060000002000000002000000002000GR100600000900009MA1102071999999MW1711REMMET066KFWA 221304Z 10006KT 1SM -SN BR VV014 M16/M18 A3014 RMK AO2 P0000;EQDQ01+000100PRSWM3Q02+000003PRSWM1Q03    003PRSWM1
031172533014827200001240654C+41000-085200FM-15+0241FWA  V0202605N00465220005MN0160005N1-01725-02005102285ADDAA101000095GF100991999999999999999999MA1102135999999MW1001REMMET071KFWA 240654Z 26009KT 10SM CLR M17/M20 A3016 RMK AO2 SLP228 T11721200 $;EQDQ01+000000PRSWM2N01 00000JPWTH 0QNNAA1D0 00000BA1 0 00000GA1U0 99999KA1D0-00004JA1 0-00200LA1 0 01000CA1 0 03016NA1 0 00000QA1 0 10228SA1D0 00001RA1 0-00172YA1 0 26009
030972533014827200001280354C+41000-085200FM-15+0241FWA  V0209999C00005220005MN0160005N1-01945-02225103895ADDAA101000095GF100991999999999999999999MA1103665999999MW1001REMMET069KFWA 280354Z 00000KT 10SM CLR M19/M22 A3061 RMK AO2 SLP389 T11941222;EQDQ01+000000PRSWM2N01 00000JPWTH 0QNNAA1D0 00000BA1 0 00000GA1U0 99999KA1D0-00008JA1 0-00222LA1 0 01000CA1 0 03061NA1 0 00000QA1 0 10389SA1D0-00003RA1 0-00194YA1 0 00000
0071725330148272000012813009+41000-085200NSRDB+024199999V020999999999999999999999999999+99999+99999999999ADDGP10060000002009000002021000002009GQ100600898911439GR100600000900599
036172533014827200002041654C+41000-085200FM-15+0241FWA  V0203405N00525005185MN0096005N1+00005-00285101535ADDAA101000025GD14995+0051859GF108991999999999999999999MA1101465999999MW1715REMMET090KFWA 041654Z COR 34010KT 6SM -SN OVC017 00/M03 A2996 RMK AO2 SNB40 SLP153 P0000 T00001028;EQDQ01+000003PRSWM1Q02    003PRSWM1N01 00040JPWTH 0QNNAA1D0 06017BA1 0 06017GA1 0 00017KA1D0 00027JA1 0-00028LA1 0 00600CA1 0 02996NA1 0 00040QA1 0 10153SA1D0 00032RA1 0 00000YA1 0 34010
0179725330148272000020604344+41000-085200FM-16+0252KFWA V0202801N004610087019N0144841N1-00601-00701999999ADDGD14991+0087019GF108991999999999999999999MA1102781999999MW1711REMMET070KFWA 060434Z 28009KT 9SM -SN OVC029 M06/M07 A3035 RMK AO2 SNB34 P0000;EQDQ01+000003PRSWM1Q02    003PRSWM1
0260725330148272000020613083+41000-085200FM-16+0252KFWA V0209999C000010009019N0004021N1-01201-01301999999ADDGD13991+0009019GD24991+0024019GF108991999999999999999999GP10060000002009000002021000002009GQ100600891911159GR100600004902709MA1102951999999MW1481REMMET068KFWA 061308Z 00000KT 1/4SM FZFG BKN003 OVC008 M12/M13 A3040 RMK AO2;EQDQ01+000003PRSWM1Q02    003PRSWM1
030972533014827200002081054C+41000-085200FM-15+0241FWA  V0200905N00215220005MN0160005N1-00895-01115103205ADDAA101000095GF100991999999999999999999MA1103085999999MW1001REMMET069KFWA 081054Z 09004KT 10SM CLR M09/M11 A3044 RMK AO2 SLP320 T10891111;EQDQ01+000000PRSWM2N01 00000JPWTH 0QNNAA1D0 00000BA1 0 00000GA1U0 99999KA1D0 00012JA1 0-00111LA1 0 01000CA1 0 03044NA1 0 00000QA1 0 10320SA1D0 00016RA1 0-00089YA1 0 09004
030872533014827200002081354C+41000-085200FM-15+0241FWA  V0200905N00215220005MN0144005N1-01065-01285103305ADDAA101000095GF100991999999999999999999MA1103185999999MW1001REMMET068KFWA 081354Z 09004KT 9SM CLR M11/M13 A3047 RMK AO2 SLP330 T11061128;EQDQ01+000000PRSWM2N01 00000JPWTH 0QNNAA1D0 00000BA1 0 00000GA1U0 99999KA1D0 00009JA1 0-00128LA1 0 00900CA1 0 03047NA1 0 00000QA1 0 10330SA1D0 00013RA1 0-00106YA1 0 09004
034672533014827200002090454C+41000-085200FM-15+0241FWA  V0202005N00525220005MN0144005N1-00395-00615102245ADDAA101000095GF100991999999999999999999KA1999M+00001KA2999N-01061MA1102135999999MW1001REMMET080KFWA 090454Z 20010KT 9SM CLR M04/M06 A3016 RMK AO2 SLP224 T10391061 400001106 $;EQDQ01+000000PRSWM2N01 00000JPWTH 0QNNAA1D0 00000BA1 0 00000GA1U0 99999KA1D0 00021JA1 0-00061LA1 0 00900CA1 0 03016NA1 0 00000QA1 0 10224SA1D0 00025RA1 0-00039YA1 0 20010
0426725330148272000021015003+41000-085200SY-MT+0241FWA  V0200705N00315220005MN0080005N1+00115+00005100875ADDAA101000025AA203000791GD12995+0167659GF104991999999017501999999GP10060026402009046002021012902009GQ100600729912799GR100600412914059MA1100815097831MD1810111+9999MW1455MW2615REMSYN088AAXX  10154 72533 1/758 40706 10011 20000 39783 40087 58011 69907 761// 91454 555 91015;EQDN01 02070JPWTH 0QNNAA1D0 02055BA1 0 02055GA1U0 99999KA1D0 00032JA1 0 00000LA1 0 00500CA1 0 02977NA1 0 02070QA1 0 10087SA1D0 00034RA1 0 00011YA1 0 07006
0071725330148272000021120009+41000-085200NSRDB+024199999V020999999999999999999999999999+99999+99999999999ADDGP10060009802009000002021009802009GQ100600594920699GR100600715914049
030972533014827200002130354C+41000-085200FM-15+0241FWA  V0200905N00315220005MN0160005N1-00395-00675101895ADDAA101000095GF100991999999999999999999MA1101795999999MW1001REMMET069KFWA 130354Z 09006KT 10SM CLR M04/M07 A3006 RMK AO2 SLP189 T10391067;EQDQ01+000000PRSWM2N01 00000JPWTH 0QNNAA1D0 00000BA1 0 00000GA1U0 99999KA1D0 00020JA1 0-00067LA1 0 01000CA1 0 03006NA1 0 00000QA1 0 10189SA1D0 00025RA1 0-00039YA1 0 09006
0071725330148272000021323009+41000-085200NSRDB+024199999V020999999999999999999999999999+99999+99999999999ADDGP10060005402009006402021004602009GQ100600833924599GR100600164914039
0249725330148272000021411204+41000-085200FM-15+0252KFWA V0203501N004110021019N0028161N1-00301-00401999999ADDAA101000021GD13991+0021019GD23991+0039019GD34991+0096019GF108991999999999999999999MA1100711999999MW1101MW2711REMMET093KFWA 141120Z 35008KT 3/4SM -SN BR BKN007 BKN013 OVC032 M03/M04 A2974 RMK AO2 TWR VIS 1 P0000;EQDQ01+000003PRSWM1Q02    003PRSWM1
0183725330148272000021602544+41000-085200FM-15+0252KFWA V0202001N005110180019N0160931N1+00301+00101101211ADDGD14991+0180019GF108991999999999999999999MA1101121999999MD1010021+9999MW1001REMMET076KFWA 160254Z 20010KT 10SM OVC060 03/01 A2986 RMK AO2 SLP121 T00280006 50002;EQDQ01+000000PRSWM2
0071725330148272000021620009+41000-085200NSRDB+024199999V020999999999999999999999999999+99999+99999999999ADDGP10060053502009062402021020102009GQ100600578920779GR100600746914019
0071725330148272000021713009+41000-085200NSRDB+024199999V020999999999999999999999999999+99999+99999999999ADDGP10060000002009000002021000002009GQ100600880910779GR100600021905959
0193725330148272000021812074+41000-085200FM-16+0252KFWA V0200801N005110018019N0064371N1-00101-00101999999ADDGD14991+0018019GF108991999999999999999999MA1101521999999MW1671REMMET068KFWA 181207Z 08010KT 4SM FZRA BR OVC006 M01/M01 A2998 RMK AO2 P0004;EQDQ01+000100PRSWM3Q02+000003PRSWM1Q03    003PRSWM1
0269725330148272000022014544+41000-085200FM-15+0252KFWA V0202701N003610081019N0080461N1-00201-00201102801ADDAA101000021AA203000021GD12991+0039019GD24991+0081019GF108991999999999999999999MA1102711999999MD1310121+9999MW1101MW2711REMMET103KFWA 201454Z 27007KT 5SM -SN BR FEW013 OVC027 M02/M02 A3033 RMK AO2 SLP280 P0000 60000 T10171022 53012;EQDQ01+000003PRSWM1Q02    003PRSWM1
037372533014827200002240454C+41000-085200FM-15+0241FWA  V0201705N00415022865MN0160005N1+01175+00675102045ADDAA101000025GD14995+0228659GF108991999999999999999999KA1999M+01781KA2999N+00561MA1102035999999MW1001REMMET092KFWA 240454Z 17008KT 10SM OVC075 12/07 A3013 RMK AO2 RAE11 SLP204 P0000 T01170067 401780056;EQDQ01+000000PRSWM2N01 00000JPWTH 0QNNAA1D0 06075BA1 0 06075GA1 0 00075KA1D0 00044JA1 0 00067LA1 0 01000CA1 0 03013NA1 0 00000QA1 0 10204SA1D0 00053RA1 0 00117YA1 0 17008
0167725330148272000022417474+41000-085200FM-16+0252KFWA V0202101N009310072019N0128741N1+01301+01201999999ADDGD13991+0072019GD23991+0270019GF107991999999999999999999MA1101491999999MW1001REMMET059KFWA 241747Z 21018KT 8SM BKN024 BKN095 13/12 A2997 RMK AO2;EQDQ01+000000PRSWM2
0071725330148272000022520009+41000-085200NSRDB+024199999V020999999999999999999999999999+99999+99999999999ADDGP10060058802009082102021011502009GQ100600549920949GR100600803913969
0203725330148272000022605544+41000-085200FM-15+0252KFWA V0201801N006212200019N0160931N1+01501+01201101681ADDGF100991999999999999999999KA1999M+01721KA2999N+01441MA1101691999999MD1810061+9999MW1001REMMET085KFWA 260554Z 18012KT 10SM CLR 15/12 A3003 RMK AO2 SLP168 T01500117 10172 20144 58006;EQDQ01+000000PRSWM2
0054725330148272000022706009+41000-085200NSRDB+024199999V020999999999999999999999999999+99999+99999999999ADDGP10060000002000000002000000002000GR100600000900009
0181725330148272000022715324+41000-085200FM-16+0252KFWA V0202601N006210072019N0160931N1+00701+00501999999ADDGD13991+0072019GD24991+0090019GF108991999999999999999999MA1101691999999MW1001OC101081REMMET065KFWA 271532Z 26012G21KT 10SM BKN024 OVC030 07/05 A3003 RMK AO2 $;EQDQ01+000000PRSWM2
030972533014827200003031254C+41000-085200FM-15+0241FWA  V0201105N00155220005MN0160005N1-00395-00565102235ADDAA101000095GF100991999999999999999999MA1102135999999MW1001REMMET069KFWA 031254Z 11003KT 10SM CLR M04/M06 A3016 RMK AO2 SLP223 T10391056;EQDQ01+000000PRSWM2N01 00000JPWTH 0QNNAA1D0 00000BA1 0 00000GA1U0 99999KA1D0 00022JA1 0-00056LA1 0 01000CA1 0 03016NA1 0 00000QA1 0 10223SA1D0 00025RA1 0-00039YA1 0 11003
035472533014827200003092254C+41000-085200FM-15+0241FWA  V0202905N00775008235MN0160005N1+00725+00285101315ADDAA101000095GD14995+0082359GF108991999999999999999999MA1101295999999MW1001OC101081REMMET091KFWA 092254Z 29015G21KT 10SM OVC027 07/03 A2991 RMK AO2 PK WND 29028/2200 SLP131 T00720028;EQDQ01+000000PRSWM2N01 00000JPWTH 0QNNAA1D0 06027BA1 0 06027GA1 0 00027KA1D0 00037JA1 0 00028LA1 0 01000CA1 0 02991NA1 0 00000QA1 0 10131SA1D0 00045RA1 0 00072YA1 0 29015
0054725330148272000031404009+41000-085200NSRDB+024199999V020999999999999999999999999999+99999+99999999999ADDGP10060000002000000002000000002000GR100600000900009
0164725330148272000031415164+41000-085200FM-16+0252KFWA V0202501N003112200019N0032181N1+00301+00301999999ADDGD12991+0009019GF102991999999999999999999MA1102371999999MW1101REMMET055KFWA 141516Z 25006KT 2SM BR FEW003 03/03 A3023 RMK AO2;EQDQ01+000003PRSWM1Q02    003PRSWM1
048672533014827200003200254C+41000-085200FM-15+0241FWA  V0201405N00465018295MN0128005N1+00945+00895101365ADDAA101000395AA203000891GD11995+0146359GD23995+0182959GD34995+0243859GF108991999999999999999999MA1101325999999MD1510001+9999MW1515REMMET116KFWA 200254Z 14009KT 8SM -DZ FEW048 BKN060 OVC080 09/09 A2992 RMK AO2 RAE45DZB52 SLP136 P0001 60003 T00940089 55000;EQDQ01+000003PRSWM1Q02    003PRSWM1N01 00033JPWTH 0QNNAA1D0 02048BA1 0 01048AA1D0 04060BA1 0 04060AA1D0 06080BA1 0 06080GA1 0 00060KA1D0 00048JA1 0 00089LA1 0 00800CA1 0 02992NA1 0 00033QA1 0 10136SA1D0 00049RA1 0 00094YA1 0 14009
0301725330148272000032105544+41000-085200FM-15+0252KFWA V0202801N002110018019N0048281N1+00701+00701102011ADDAA101000021AA206000591GD13991+0018019GD24991+0111019GF108991999999999999999999KA1999M+00941KA2999N+00721MA1101961999999MD1110101+9999MW1101REMMET115KFWA 210554Z 28004KT 3SM BR BKN006 OVC037 07/07 A3011 RMK AO2 DZE48 SLP201 P0000 60002 T00720072 10094 20072 51010;EQDQ01+000003PRSWM1Q02    003PRSWM1
0309725330148272000032212003+41000-085200FM-15+0241FWA  V0200105N00155000915MN000800599+00615+00615103115ADDAA101000095GD13995+0009159GD24995+0042759GP10060000002008000002015000002008GQ100600885908999GR100600011904249MA1103085999999MW1455EQDN01 00070JPWTH 0QNNAA1D0 04003BA1 0 04003AA1D0 06014BA1 0 06014GA1 0 00003KA1D0 00043JA1 0 00061LA1 0 00050CA1 0 03044NA1 0 00070QA1 0 10311SA1D0 00043RA1 0 00061YA1 0 01003
0054725330148272000032510009+41000-085200NSRDB+024199999V020999999999999999999999999999+99999+99999999999ADDGP10060000002000000002000000002000GR100600000900009
036972533014827200003282254C+41000-085200FM-15+0241FWA  V0202905N00825018295MN0160005N1+00505+00115100255ADDAA101000095GD11995+0097559GD23995+0182959GF107991999999999999999999MA1100205999999MW1001REMMET077KFWA 282254Z 29016KT 10SM FEW032 BKN060 05/01 A2959 RMK AO2 SLP025 T00500011;EQDQ01+000000PRSWM2N01 00000JPWTH 0QNNAA1D0 02032BA1 0 01032AA1D0 04060BA1 0 04060GA1 0 00060KA1D0 00034JA1 0 00011LA1 0 01000CA1 0 02959NA1 0 00000QA1 0 10025SA1D0 00041RA1 0 00050YA1 0 29016
034472533014827200004010454C+41000-085200FM-15+0241FWA  V0201805N00155220005MN0160005N1+00335-00065102235ADDAA101000095GF100991999999999999999999KA1999M+01501KA2999N-00281MA1102205999999MW1001REMMET078KFWA 010454Z 18003KT 10SM CLR 03/M01 A3018 RMK AO2 SLP223 T00331006 401501028;EQDQ01+000000PRSWM2N01 00000JPWTH 0QNNAA1D0 00000BA1 0 00000GA1U0 99999KA1D0 00031JA1 0-00006LA1 0 01000CA1 0 03018NA1 0 00000QA1 0 10223SA1D0 00038RA1 0 00033YA1 0 18003
034572533014827200004031454C+41000-085200FM-15+0241FWA  V0202705N00365220005MN0064005N1+01335+01065100865ADDAA101000095GF100991999999999999999999MA1100855999999MD1510021+9999MW1055REMMET075KFWA 031454Z 27007KT 4SM HZ CLR 13/11 A2978 RMK AO2 SLP086 T01330106 55002;EQDQ01+000003PRSWM1Q02    003PRSWM1N01 00081JPWTH 0QNNAA1D0 00000BA1 0 00000GA1U0 99999KA1D0 00051JA1 0 00106LA1 0 00400CA1 0 02978NA1 0 00081QA1 0 10086SA1D0 00056RA1 0 00133YA1 0 27007
0054725330148272000040405009+41000-085200NSRDB+024199999V020999999999999999999999999999+99999+99999999999ADDGP10060000002000000002000000002000GR100600000900009
030772533014827200004062254C+41000-085200FM-15+0241FWA  V0203005N00525220005MN0160005N1+01505+00285101035ADDAA101000095GF100991999999999999999999MA1101055999999MW1001REMMET067KFWA 062254Z 30010KT 10SM CLR 15/03 A2984 RMK AO2 SLP103 T01500028;EQDQ01+000000PRSWM2N01 00000JPWTH 0QNNAA1D0 00000BA1 0 00000GA1U0 99999KA1D0 00037JA1 0 00028LA1 0 01000CA1 0 02984NA1 0 00000QA1 0 10103SA1D0 00059RA1 0 00150YA1 0 30010
0071725330148272000040623009+41000-085200NSRDB+024199999V020999999999999999999999999999+99999+99999999999ADDGP10060019802008018202015014102008GQ100600717926319GR100600427913649
036972533014827200004071354C+41000-085200FM-15+0241FWA  V0201105N00525025915MN0160005N1+00945+00565101035ADDAA101000095GD12995+0140259GD23995+0259159GF107991999999999999999999MA1101025999999MW1001REMMET077KFWA 071354Z 11010KT 10SM SCT046 BKN085 09/06 A2983 RMK AO2 SLP103 T00940056;EQDQ01+000000PRSWM2N01 00000JPWTH 0QNNAA1D0 02046BA1 0 02046AA1D0 04085BA1 0 04085GA1 0 00085KA1D0 00042JA1 0 00056LA1 0 01000CA1 0 02983NA1 0 00000QA1 0 10103SA1D0 00049RA1 0 00094YA1 0 11010
0054725330148272000040804009+41000-085200NSRDB+024199999V020999999999999999999999999999+99999+99999999999ADDGP10060000002000000002000000002000GR100600000900009
048272533014827200004081254C+41000-085200FM-15+0241FWA  V0203505N00985004885MN0016005N1+00005+00005101095ADDAA101000025GD11995+0030559GD23995+0048859GD34995+0067159GF108991999999999999999999MA1101055999999MW1101MW2455MW3715OC101341REMMET117KFWA 081254Z 35019G26KT 1SM -SN BR FEW010 BKN016 OVC022 00/00 A2984 RMK AO2 PK WND 36027/1236 SLP109 P0000 T00000000;EQDQ01+000003PRSWM1Q02    003PRSWM1N01 04070JPWTH 0QNNAA1D0 02010BA1 0 01010AA1D0 04016BA1 0 04016AA1D0 06022BA1 0 06022GA1 0 00016KA1D0 00032JA1 0 00000LA1 0 00100CA1 0 02984NA1 0 04070QA1 0 10109SA1D0 00032RA1 0 00000YA1 0 35019
0472725330148272000040918003+41000-085200SY-MT+0241FWA  V0202905N01135220005MN0160005N1+01005+00335101585ADDAA101000095AA206000791GA1001+999999999GD10995+9999999GF100991001001999999001001GP10060088102008070902015028802008GQ100600334917459GR100601136913629KA1120M+01001KA2240N-00171MA1101525098521MD1610121+9999REMSYN104AAXX  09184 72533 12966 02922 10100 20033 39852 40158 56012 69901 91754 333 10100 21017 91029 555 90918;EQDN01 00000JPWTH 0QNNAA1D0 00000BA1 0 00000GA1U0 99999KA1D0 00038JA1 0 00033LA1 0 01000CA1 0 02998NA1 0 00000QA1 0 10158SA1D0 00050RA1 0 00100YA1 0 29022
0071725330148272000041815009+41000-085200NSRDB+024199999V020999999999999999999999999999+99999+99999999999ADDGP10060031702008003002015029802008GQ100600512911209GR100600847913559
0054725330148272000042002009+41000-085200NSRDB+024199999V020999999999999999999999999999+99999+99999999999ADDGP10060000002000000002000000002000GR100600000900009
044972533014827200004201954C+41000-085200FM-15+0241FWA  V0200305N00675010065MN0096005N1+01395+01335099905ADDAA101001095GD11995+0057959GD23995+0100659GD33995+0143359GF107991999999999999999999MA1099935999999MW1101MW2455REMMET098KFWA 201954Z 03013KT 6SM BR FEW019 BKN033 BKN047 14/13 A2951 RMK AO2 RAE41 SLP990 P0004 T01390133;EQDQ01+000003PRSWM1Q02    003PRSWM1N01 00070JPWTH 0QNNAA1D0 02019BA1 0 01019AA1D0 04033BA1 0 04033AA1D0 04047BA1 0 04047GA1 0 00033KA1D0 00056JA1 0 00133LA1 0 00600CA1 0 02951NA1 0 00070QA1 0 09990SA1D0 00057RA1 0 00139YA1 0 03013
0054725330148272000042404009+41000-085200NSRDB+024199999V020999999999999999999999999999+99999+99999999999ADDGP10060000002000000002000000002000GR100600000900009
030772533014827200004270954C+41000-085200FM-15+0241FWA  V0209999C00005220005MN0160005N1+00335+00285101455ADDAA101000095GF100991999999999999999999MA1101425999999MW1001REMMET067KFWA 270954Z 00000KT 10SM CLR 03/03 A2995 RMK AO2 SLP145 T00330028;EQDQ01+000000PRSWM2N01 00000JPWTH 0QNNAA1D0 00000BA1 0 00000GA1U0 99999KA1D0 00037JA1 0 00028LA1 0 01000CA1 0 02995NA1 0 00000QA1 0 10145SA1D0 00038RA1 0 00033YA1 0 00000
039472533014827200005052154C+41000-085200FM-15+0241FWA  V0202205N00525220005MN0160005N1+02725+01835101825ADDAA101000095GA1999+015001021GD11995+0167659GD22995+0259159GF104991999999999999999999MA1101865999999MW1001REMMET086KFWA 052154Z 22010KT 10SM FEW055TCU SCT085 27/18 A3008 RMK AO2 SLP182 TCU E T02720183;EQDQ01+000000PRSWM2N01 00000JPWTH 0QNNAA1D0 02055BA1 0 01055AA1D0 02085BA1 0 02085GA1U0 99999KA1D0 00065JA1 0 00183LA1 0 01000CA1 0 03008NA1 0 00000QA1 0 10182SA1D0 00081RA1 0 00272YA1 0 22010
0071725330148272000050622009+41000-085200NSRDB+024199999V020999999999999999999999999999+99999+99999999999ADDGP10060048002008047202015021102008GQ100600552926209GR100600765913429
046072533014827200005100154C+41000-085200FM-15+0241FWA  V0202005N00625024385MN0096005N1+01725+01725100235ADDAA101000095GA1999+008101091GD12995+0082359GD24995+0243859GF108991999999999999999999MA1100275999999MW1101MW2455MW3615REMMET124KFWA 100154Z COR 20012KT 6SM -RA BR SCT027CB OVC080 17/17 A2961 RMK AO2 TSE38 SLP023 LTGIC DSNT S CB DSNT S PNO T01720172 $;EQDQ01+000003PRSWM1Q02    003PRSWM1N01 02070JPWTH 0QNNAA1D0 02027BA1 0 02027AA1D0 06080BA1 0 06080GA1 0 00080KA1D0 00063JA1 0 00172LA1 0 00600CA1 0 02961NA1 0 02070QA1 0 10023SA1D0 00063RA1 0 00172YA1 0 20012
0307725330148272000051002103+41000-085200FM-16+0252KFWA V0202301N006710105019N0080461N1+01701+01701999999ADDGA1999+010501091GD13991+0105019GD24991+0240019GF108991999999999999999999GP10060000002000000002000000002000GR100600000900009MA1100271999999MW1811MW2951REMMET110KFWA 100210Z 23013KT 5SM TSRA BR BKN035CB OVC080 17/17 A2961 RMK AO2 TSB07 OCNL LTGICCC S-SW TS S-SW MOV NE $;EQDQ01+000100PRSWM4Q02+000003PRSWM1
0225725330148272000051009094+41000-085200FM-16+0252KFWA V0203101N008210045019N0064371N1+01101+01001999999ADDGD12991+0024019GD24991+0045019GF108991999999999999999999MA1100371999999MW1511OC101231REMMET077KFWA 100909Z 31016G24KT 4SM -DZ BR SCT008 OVC015 11/10 A2964 RMK AO2 P0000 $;EQDQ01+000100PRSWM3Q02+000003PRSWM1Q03    003PRSWM1
0054725330148272000051209009+41000-085200NSRDB+024199999V020999999999999999999999999999+99999+99999999999ADDGP10060000002000000002000000002000GR100600000900009
034372533014827200005122154C+41000-085200FM-15+0241FWA  V0202205N00825015245MN0096005N1+02565+02285100165ADDAA101000095GD14995+0152459GF108991999999999999999999MA1100245999999MW1055REMMET072KFWA 122154Z 22016KT 6SM HZ OVC050 26/23 A2960 RMK AO2 SLP016 T02560228;EQDQ01+000003PRSWM1Q02    003PRSWM1N01 00081JPWTH 0QNNAA1D0 06050BA1 0 06050GA1 0 00050KA1D0 00073JA1 0 00228LA1 0 00600CA1 0 02960NA1 0 00081QA1 0 10016SA1D0 00078RA1 0 00256YA1 0 22016
042572533014827200005130354C+41000-085200FM-15+0241FWA  V0202605N006252200019N0160005N1+02065+01725100375ADDAA101000095GD12995+0289659GF102991999999999999999999MA1100445999999MW1615REMMET122KFWA 130354Z 26012KT 10SM -RA FEW095 21/17 A2966 RMK AO2 TSE0255B0257E0259RAE19B46 SLP037 OCNL LTG DSNT SE-SW T02060172 $;EQDQ01+000003PRSWM1Q02    003PRSWM1N01 01095JALM1 3N02 99999CCLHTU3N03 00020JPWTH 0QNNAA1D0 02095BA1 3 01095GA1U3 99999KA1D0 00063JA1 0 00172LA1 0 01000CA1 0 02966NA1 0 00020QA1 0 10037SA1D0 00069RA1 0 00206YA1 0 26012
0402725330148272000051306003+41000-085200SY-MT+0241FWA  V0202605N00825220005MN0160005N1+01895+01835100345ADDAA101000395AA299000021GD11995+0054959GD22995+0182959GF108991999999004501999999GP10060000002000000002000000002000GR100600000900009MA1100415097501MW1615REMSYN064AAXX  13064 72533 32464 82614 10180 20180 39750 90614 555 91306;EQDN01 00020JPWTH 0QNNAA1D0 02018BA1 0 01018AA1D0 02060BA1 0 02060GA1U0 99999KA1D0 00065JA1 0 00183LA1 0 01000CA1 0 02965NA1 0 00020QA1 0 10034SA1D0 00066RA1 0 00189YA1 0 26016
0204725330148272000051307224+41000-085200FM-16+0252KFWA V0203101N005710036019N0160931N1+01701+01701999999ADDGD12991+0018019GD23991+0036019GD34991+0057019GF108991999999999999999999MA1100541999999MW1001REMMET081KFWA 130722Z 31011KT 10SM SCT006 BKN012 OVC019 17/17 A2969 RMK AO2 DZE14 P0000 $;EQDQ01+000000PRSWM2
035472533014827200005141654C+41000-085200FM-15+0241FWA  V0202905N00985018295MN0160005N1+01335+00285102375ADDAA101000095GD13995+0182959GF107991999999999999999999MA1102375999999MW1001OC101291REMMET091KFWA 141654Z 29019G25KT 10SM BKN060 13/03 A3023 RMK AO2 PK WND 28029/1615 SLP237 T01330028;EQDQ01+000000PRSWM2N01 00000JPWTH 0QNNAA1D0 04060BA1 0 04060GA1 0 00060KA1D0 00037JA1 0 00028LA1 0 01000CA1 0 03023NA1 0 00000QA1 0 10237SA1D0 00056RA1 0 00133YA1 0 29019
0071725330148272000051517009+41000-085200NSRDB+024199999V020999999999999999999999999999+99999+99999999999ADDGP10060087502008068602015026002008GQ100600264914249GR100601196913369
030772533014827200005160354C+41000-085200FM-15+0241FWA  V0201605N00265220005MN0160005N1+00945+00445102145ADDAA101000095GF100991999999999999999999MA1102135999999MW1001REMMET067KFWA 160354Z 16005KT 10SM CLR 09/04 A3016 RMK AO2 SLP214 T00940044;EQDQ01+000000PRSWM2N01 00000JPWTH 0QNNAA1D0 00000BA1 0 00000GA1U0 99999KA1D0 00040JA1 0 00044LA1 0 01000CA1 0 03016NA1 0 00000QA1 0 10214SA1D0 00049RA1 0 00094YA1 0 16005
034372533014827200005160454C+41000-085200FM-15+0241FWA  V0201605N00265220005MN0160005N1+01005+00285102135ADDAA101000095GF100991999999999999999999KA1999M+01941KA2999N+00331MA1102135999999MW1001REMMET077KFWA 160454Z 16005KT 10SM CLR 10/03 A3016 RMK AO2 SLP213 T01000028 401940033;EQDQ01+000000PRSWM2N01 00000JPWTH 0QNNAA1D0 00000BA1 0 00000GA1U0 99999KA1D0 00037JA1 0 00028LA1 0 01000CA1 0 03016NA1 0 00000QA1 0 10213SA1D0 00050RA1 0 00100YA1 0 16005
0290725330148272000051904284+41000-085200FM-16+0252KFWA V0200901N006710120019N0096561N1+01201+01201999999ADDGA1999+012001091GD13991+0120019GD23991+0240019GD34991+0300019GF108991999999999999999999MA1101151999999MW1811MW2951REMMET129KFWA 190428Z COR 09013KT 6SM TSRA BR BKN040CB BKN080 OVC100 12/12 A2987 RMK AO2 TSE0355B22 OCNL LTGICCC ALQDS TS OHD MOV E P0007;EQDQ01+000100PRSWM4Q02+000003PRSWM1
0239725330148272000052105544+41000-085200FM-15+0252KFWA V0203001N002110135019N0096561N1+01101+01001101761ADDGD14991+0135019GF108991999999999999999999KA1999M+01281KA2999N+01061MA1101761999999MD1510041+9999MW1101REMMET090KFWA 210554Z 30004KT 6SM BR OVC045 11/10 A3005 RMK AO2 SLP176 T01110100 10128 20106 55004;EQDQ01+000003PRSWM1Q02    003PRSWM1
0502725330148272000052118003+41000-085200SY-MT+0241FWA  V0202605N00265016765MN0160005N1+01505+01005101705ADDAA101000095GD11995+0070159GD24995+0167659GF108991999999008001999999GP10060056002008012602015044202008GQ100600210917529GR100601244913339KA1120M+01561KA2240N+01111MA1101695098691MD1810081+9999REMSYN092AAXX  21184 72533 32566 82605 10150 20100 39869 40170 58008 91754 333 10156 20111 555 92118;EQDQ01  00002PRCP99Q02  00003PRCP99N01 00000JPWTH 0QNNAA1D0 02023BA1 0 01023AA1D0 06055BA1 0 06055GA1 0 00055KA1D0 00050JA1 0 00100LA1 0 01000CA1 0 03003NA1 0 00000QA1 0 10170SA1D0 00059RA1 0 00150YA1 0 26005
0276725330148272000052305124+41000-085200FM-16+0252KFWA V0202301N004110066019N0064371N1+01601+01601999999ADDGA1999+006601091GD13991+0066019GD23991+0150019GD34991+0240019GF108991999999999999999999MA1100471999999MW1811MW2951REMMET115KFWA 230512Z 23008KT 4SM TSRA BR BKN022CB BKN050 OVC085 16/16 A2967 RMK AO2 FRQ LTGICCG ALQDS TS ALQDS MOV E P0004;EQDQ01+000100PRSWM4Q02+000003PRSWM1
030772533014827200005291354C+41000-085200FM-15+0241FWA  V0200805N00315220005MN0160005N1+01445+01065101695ADDAA101000095GF100991999999999999999999MA1101695999999MW1001REMMET067KFWA 291354Z 08006KT 10SM CLR 14/11 A3003 RMK AO2 SLP169 T01440106;EQDQ01+000000PRSWM2N01 00000JPWTH 0QNNAA1D0 00000BA1 0 00000GA1U0 99999KA1D0 00051JA1 0 00106LA1 0 01000CA1 0 03003NA1 0 00000QA1 0 10169SA1D0 00058RA1 0 00144YA1 0 08006
0054725330148272000053003009+41000-085200NSRDB+024199999V020999999999999999999999999999+99999+99999999999ADDGP10060000002000000002000000002000GR100600000900009
030672533014827200005311054C+41000-085200FM-15+0241FWA  V0202105N00465220005MN0112005N1+01785+01615101665ADDAA101000095GF100991999999999999999999MA1101695999999MW1001REMMET066KFWA 311054Z 21009KT 7SM CLR 18/16 A3003 RMK AO2 SLP166 T01780161;EQDQ01+000000PRSWM2N01 00000JPWTH 0QNNAA1D0 00000BA1 0 00000GA1U0 99999KA1D0 00061JA1 0 00161LA1 0 00700CA1 0 03003NA1 0 00000QA1 0 10166SA1D0 00064RA1 0 00178YA1 0 21009
0071725330148272000060113009+41000-085200NSRDB+024199999V020999999999999999999999999999+99999+99999999999ADDGP10060031702008045702015013302008GQ100600662908069GR100600535913289
0054725330148272000060507009+41000-085200NSRDB+024199999V020999999999999999999999999999+99999+99999999999ADDGP10060000002000000002000000002000GR100600000900009
0248725330148272000060514334+41000-085200FM-16+0252KFWA V0200801N008210072019N0024141N1+01301+01201999999ADDGD12991+0033019GD23991+0072019GD34991+0129019GF108991999999999999999999MA1101351999999MW1631OC101231REMMET085KFWA 051433Z 08016G24KT 1 1/2SM RA BR SCT011 BKN024 OVC043 13/12 A2993 RMK AO2 P0026;EQDQ01+000100PRSWM3Q02+000003PRSWM1Q03    003PRSWM1
0516725330148272000060516003+41000-085200FM-15+0241FWA  V0200705N00825005495MN0064005N1+01335+01285101285ADDAA101002895GD12995+0027459GD23995+0054959GD34995+0112859GF108991999999999999999999GP10060013702008000002015013702008GQ100600328911459GR100601113913269MA1101295999999MW1101MW2455MW3615REMMET091KFWA 051559Z 07016KT 5SM -RA BR BKN009 BKN018 OVC037 13/13 A2991 RMK AO2 CIG 006V014 P0000;EQDQ01+000003PRSWM1Q02    003PRSWM1N01 02070JPWTH 0QNNAA1D0 02009BA1 0 02009AA1D0 04018BA1 0 04018AA1D0 06037BA1 0 06037GA1 0 00018KA1D0 00055JA1 0 00128LA1 0 00400CA1 0 02991NA1 0 02070QA1 0 10128SA1D0 00056RA1 0 00133YA1 0 07016
0235725330148272000060517304+41000-085200FM-15+0252KFWA V0200901N006710036019N0048281N1+01301+01301999999ADDAA101000591GD12991+0024019GD23991+0036019GD34991+0138019GF108991999999999999999999MA1101321999999MW1101MW2611REMMET079KFWA 051730Z 09013KT 3SM -RA BR FEW008 BKN012 OVC046 13/13 A2992 RMK AO2 P0002;EQDQ01+000003PRSWM1Q02    003PRSWM1
0766725330148272000060604596+40971-085206SOD  +0252KFWA V020999999999999999999999999999+99999+99999999999ADDAA124048095AJ100009599999999AL12400095AN1024000095AT1MW16RA  5AT2MW01FG  5AT3MW13BR  1KA1240M+01395KA2240N+01005MG1098449999994OE11240138603018315OE22240111803018555OE33240066299999995REMSOD57024 HR PRECIPITATION (IN): 1.89 SNOW DEPTH (IN):0     24 HR SNOWFALL (IN):0.0  24 HR MAX TEMP (F): 5724 HR MAX TEMP TIME (LST):1201 24 HR MIN TEMP (F): 5024 HR MIN TEMP TIME (LST):2244 AVERAGE STATION PRESSURE:29.07  PEAK WIND SPEED (MPH): 31 PEAK WIND DIR (DEG):030 PEAK WIND TIME (LST):1831  FASTEST 2MIN SPEED (MPH): 25FASTEST 2MIN DIR (DEG):030 FASTEST 2MIN TIME (LST):1855 AVERAGE WIND SPEED (MPH):14.8 HOURLY INCREMENTAL PRECIPITATION VALUES (IN):.02   T    T    T   .07  .16  .10  .57  .16  .35  .11  .21  .04  .05   T   .05   T   .00  .00  .00  .00   T    T   .00
0054725330148272000060708009+41000-085200NSRDB+024199999V020999999999999999999999999999+99999+99999999999ADDGP10060000002000000002000000002000GR100600000900009
0203725330148272000060723544+41000-085200FM-15+0252KFWA V0202201N004112200019N0160931N1+02201+01101101911ADDGF100991999999999999999999KA1999M+02441KA2999N+02171MA1101931999999MD1610181+9999MW1001REMMET085KFWA 072354Z 22008KT 10SM CLR 22/11 A3010 RMK AO2 SLP191 T02170111 10244 20217 56018;EQDQ01+000000PRSWM2
0433725330148272000060806003+41000-085200SY-MT+0241FWA  V0202205N00365028965MN0160005N1+01675+01335101805ADDAA101000025AA206001091GD14995+0289659GF108991999999999999999999GP10060000002000000002000000002000GR100600000900009KA1240M+02171KA2240N+00891MA1101835098821MD1610221+9999REMSYN098AAXX  08064 72533 12966 82207 10167 20133 39882 40180 56022 60011 90554 333 10217 20089 555 90806;EQDN01 00000JPWTH 0QNNAA1D0 06095BA1 0 06095GA1 0 00095KA1D0 00056JA1 0 00133LA1 0 01000CA1 0 03007NA1 0 00000QA1 0 10180SA1D0 00062RA1 0 00167YA1 0 22007
0054725330148272000061003009+41000-085200NSRDB+024199999V020999999999999999999999999999+99999+99999999999ADDGP10060000002000000002000000002000GR100600000900009
051472533014827200006131854C+41000-085200FM-15+0241FWA  V0200905N00465010365MN0160005N1+02115+02005101435ADDAA101006495GA1999+010201091GD11995+0057959GD23995+0103659GD34995+0125059GF108991999999999999999999MA1101495999999MW1171MW2955REMMET147KFWA 131854Z COR 09009KT 10SM TS FEW019 BKN034CB OVC041 21/20 A2997 RMK AO2 WSHFT 1819 TSB19RAE48 SLP143 FRQ LTGICCG E TS E MOV NE P0025 T02110200;EQDQ01+000003PRSWM1Q02    003PRSWM1N01 00010JPWTH 0QNNAA1D0 02019BA1 0 01019AA1D0 04034BA1 0 04034AA1D0 06041BA1 0 06041GA1 0 00034KA1D0 00068JA1 0 00200LA1 0 01000CA1 0 02997NA1 0 00010QA1 0 10143SA1D0 00070RA1 0 00211YA1 0 09009
042272533014827200006142254C+41000-085200FM-15+0241FWA  V0201805N00825220005MN0160005N1+02615+02225100585ADDAA101000095GA1999+015001091GD11995+0167659GD22995+0335359GF104991999999999999999999MA1100645999999MW1001OC101131REMMET106KFWA 142254Z 18016G22KT 10SM FEW055CB SCT110 26/22 A2972 RMK AO2 SLP058 CB DSNT SW-N TCU DSNT N T02610222;EQDQ01+000000PRSWM2N01 00000JPWTH 0QNNAA1D0 02055BA1 0 01055AA1D0 02110BA1 0 02110GA1U0 99999KA1D0 00072JA1 0 00222LA1 0 01000CA1 0 02972NA1 0 00000QA1 0 10058SA1D0 00079RA1 0 00261YA1 0 18016
046372533014827200006150054C+41000-085200FM-15+0241FWA  V0202005N00675220005MN0160005N1+02065+01945100775ADDAA101000595GA1999+008701091GD11995+0088459GD22995+0228659GF104991999999999999999999MA1100815999999MW1615REMMET139KFWA 150054Z COR 20013KT 10SM -RA FEW029CB SCT075 21/19 A2977 RMK AO2 TSE54 SLP077 OCNL LTGICCC OHD-S CBMAM OHD-S MOV NE P0002 T02060194 $;EQDQ01+000003PRSWM1Q02    003PRSWM1N01 00020JPWTH 0QNNAA1D0 02029BA1 0 01029AA1D0 02075BA1 0 02075GA1U0 99999KA1D0 00067JA1 0 00194LA1 0 01000CA1 0 02977NA1 0 00020QA1 0 10077SA1D0 00069RA1 0 00206YA1 0 20013
0702725330148272000061804596+40971-085206SOD  +0252KFWA V020999999999999999999999999999+99999+99999999999ADDAA124005395AT1MW16RA  5AT2MW01FG  5AT3MW13BR  1KA1240M+02445KA2240N+01615MG1098789999994OE11240058102023525OE22240044701023535OE33240020699999995REMSOD54524 HR PRECIPITATION (IN): 0.21 24 HR MAX TEMP (F): 7624 HR MAX TEMP TIME (LST):1409 24 HR MIN TEMP (F): 6124 HR MIN TEMP TIME (LST):2359 AVERAGE STATION PRESSURE:29.17  PEAK WIND SPEED (MPH): 13 PEAK WIND DIR (DEG):020 PEAK WIND TIME (LST):2352  FASTEST 2MIN SPEED (MPH): 10FASTEST 2MIN DIR (DEG):010 FASTEST 2MIN TIME (LST):2353 AVERAGE WIND SPEED (MPH): 4.6 24 HR AVG TEMP (F):69 HOURLY INCREMENTAL PRECIPITATION VALUES (IN):.00  .00  .00  .00  .00  .00  .00  .00  .00  .00  .00  .00  .00  .00  .00  .00  .00  .00  .00   T   .01  .04  .11  .04
0242725330148272000061809023+41000-085190FM-16+0252KFWA V0200201N005710075019N0112651N1+01501+01501999999ADDGD12991+0021019GD23991+0075019GD34991+0144019GF108991999999999999999999GP10060000002000000002000000002000GR100600000900009MA1101831999999MW1001REMMET068KFWA 180902Z 02011KT 7SM SCT007 BKN025 OVC048 15/15 A3007 RMK AO2 $;EQDQ01+000000PRSWM2
037172533014827200006181554C+41000-085200FM-15+0241FWA  V0200805N00525012505MN0160005N1+01505+01395102175ADDAA101000095GD12995+0036659GD24995+0125059GF108991999999999999999999MA1102205999999MW1001REMMET079KFWA 181554Z 08010KT 10SM SCT012 OVC041 15/14 A3018 RMK AO2 SLP217 T01500139 $;EQDQ01+000000PRSWM2N01 00000JPWTH 0QNNAA1D0 02012BA1 0 02012AA1D0 06041BA1 0 06041GA1 0 00041KA1D0 00057JA1 0 00139LA1 0 01000CA1 0 03018NA1 0 00000QA1 0 10217SA1D0 00059RA1 0 00150YA1 0 08010
0071725330148272000061914009+41000-085200NSRDB+024199999V020999999999999999999999999999+99999+99999999999ADDGP10060050802008060602015015902008GQ100600549908819GR100600759913239
032772533014827200006191454C+41000-085200FM-15+0241FWA  V0201405N00265220005MN0160005N1+02065+01505102365ADDAA101000095GF100991999999999999999999MA1102405999999MD1110041+9999MW1001REMMET073KFWA 191454Z 14005KT 10SM CLR 21/15 A3024 RMK AO2 SLP236 T02060150 51004;EQDQ01+000000PRSWM2N01 00000JPWTH 0QNNAA1D0 00000BA1 0 00000GA1U0 99999KA1D0 00059JA1 0 00150LA1 0 01000CA1 0 03024NA1 0 00000QA1 0 10236SA1D0 00069RA1 0 00206YA1 0 14005
0250725330148272000062405544+41000-085190FM-15+0252KFWA V0202201N002610300019N0160931N1+02101+01801101351ADDGD12991+0210019GD23991+0300019GF107991999999999999999999KA1999M+02611KA2999N+02111MA1101421999999MD1810071+9999MW1001REMMET102KFWA 240554Z 22005KT 10SM SCT075 BKN100 21/18 A2995 RMK AO2 PRESFR SLP135 T02110178 10261 20211 58007;EQDQ01+000000PRSWM2
0054725330148272000070209009+41000-085200NSRDB+024199999V020999999999999999999999999999+99999+99999999999ADDGP10060000002000000002000000002000GR100600000900009
0054725330148272000070305009+41000-085200NSRDB+024199999V020999999999999999999999999999+99999+99999999999ADDGP10060000002000000002000000002000GR100600000900009
0263725330148272000070311314+41000-085190FM-16+0252KFWA V0203301N003110060019N0028161N1+02101+02101999999ADDGD13991+0060019GD23991+0126019GD34991+0180019GF108991999999999999999999MA1101421999999MW1971REMMET108KFWA 031131Z 33006KT 1 3/4SM +TSRA BR BKN020 BKN042 OVC060 21/21 A2995 RMK AO2 TWR VIS 2 1/2 TSE13B26 P0016;EQDQ01+000820PRSWM3Q02+000100PRSWM4Q03+000003PRSWM1
0213725330148272000070417063+41000-085190FM-16+0252KFWA V0200901N004112200019N0128741N1+02601+02201999999ADDGD12991+0111019GF104991999999999999999999GP10060055202008013202015043102008GQ100600243913399GR100601204913219MA1101591999999MW1001REMMET052KFWA 041706Z 09008KT 8SM SCT037 26/22 A3000 RMK AO2;EQDQ01+000000PRSWM2
0145725330148272000070417364+41000-085190FM-16+0252KFWA V02099999999990072019N0144841N1+02601+02201999999ADDGD13991+0072019GF107991999999999999999999MA1101631999999MW1001REMMET052KFWA 041736Z VRB03KT 9SM BKN024 26/22 A3001 RMK AO2;EQDQ01+000000PRSWM2
036872533014827200007100054C+41000-085200FM-15+0241FWA  V0202605N00625220005MN0128005N1+02675+02225101115ADDAA101000095GD11995+0152459GD22995+0365859GF104991999999999999999999MA1101195999999MW1001REMMET076KFWA 100054Z 26012KT 8SM FEW050 SCT120 27/22 A2988 RMK AO2 SLP111 T02670222;EQDQ01+000000PRSWM2N01 00000JPWTH 0QNNAA1D0 02050BA1 0 01050AA1D0 02120BA1 0 02120GA1U0 99999KA1D0 00072JA1 0 00222LA1 0 00800CA1 0 02988NA1 0 00000QA1 0 10111SA1D0 00080RA1 0 00267YA1 0 26012
041372533014827200007101854C+41000-085200FM-15+0241FWA  V0202605N00215007625MN0160005N1+02505+02175101225ADDAA101000095GD12995+0057959GD23995+0076259GD33995+0213459GF107991999999999999999999MA1101295999999MW1001REMMET084KFWA 101854Z 26004KT 10SM SCT019 BKN025 BKN070 25/22 A2991 RMK AO2 SLP122 T02500217;EQDQ01+000000PRSWM2N01 00000JPWTH 0QNNAA1D0 02019BA1 0 02019AA1D0 04025BA1 0 04025AA1D0 04070BA1 0 04070GA1 0 00025KA1D0 00071JA1 0 00217LA1 0 01000CA1 0 02991NA1 0 00000QA1 0 10122SA1D0 00077RA1 0 00250YA1 0 26004
0465725330148272000071400003+41000-085200SY-MT+0241FWA  V0203105N00415220005MN0160005N1+02725+01895101375ADDAA101000095GD11995+0152459GF102991999999017501999999GP10060019602008033902015009602008GQ100600729928429GR100600388913229KA1120M+02891KA2180N+01501MA1101425098421MD1510081+9999REMSYN092AAXX  14004 72533 32766 23108 10272 20189 39842 40137 55008 92354 333 10289 20150 555 91400;EQDQ01  00002PRCP99Q02  00003PRCP99N01 00000JPWTH 0QNNAA1D0 02050BA1 0 01050GA1U0 99999KA1D0 00066JA1 0 00189LA1 0 01000CA1 0 02995NA1 0 00000QA1 0 10137SA1D0 00081RA1 0 00272YA1 0 31008
030772533014827200007141354C+41000-085200FM-15+0241FWA  V0202605N00575220005MN0160005N1+02445+02115100935ADDAA101000095GF100991999999999999999999MA1100985999999MW1001REMMET067KFWA 141354Z 26011KT 10SM CLR 24/21 A2982 RMK AO2 SLP093 T02440211;EQDQ01+000000PRSWM2N01 00000JPWTH 0QNNAA1D0 00000BA1 0 00000GA1U0 99999KA1D0 00070JA1 0 00211LA1 0 01000CA1 0 02982NA1 0 00000QA1 0 10093SA1D0 00076RA1 0 00244YA1 0 26011
0789725330148272000071504596+40971-085206SOD  +0252KFWA V020999999999999999999999999999+99999+99999999999ADDAA124000895AT1MW03TS  1AT2MW16RA  5AT3MW01FG  5AT4MW13BR  1GJ100005GK10005KA1240M+03005KA2240N+01895MG1097979999994OE11240156533016545OE22240111832016485OE33240054199999995REMSOD60524 HR PRECIPITATION (IN): 0.03 TOTAL SUNSHINE (MINUTES):   0 PERCENT POSSIBLE SUNSHINE:  0 24 HR MAX TEMP (F): 8624 HR MAX TEMP TIME (LST):1525 24 HR MIN TEMP (F): 6624 HR MIN TEMP TIME (LST):0218 AVERAGE STATION PRESSURE:28.93  PEAK WIND SPEED (MPH): 35 PEAK WIND DIR (DEG):330 PEAK WIND TIME (LST):1654  FASTEST 2MIN SPEED (MPH): 25FASTEST 2MIN DIR (DEG):320 FASTEST 2MIN TIME (LST):1648 AVERAGE WIND SPEED (MPH):12.1 24 HR AVG TEMP (F):76 HOURLY INCREMENTAL PRECIPITATION VALUES (IN):.00  .00  .00  .00  .00  .02  .01  .00  .00  .00  .00  .00  .00  .00  .00  .00  .00  .00  .00  .00  .00  .00  .00  .00
034572533014827200007161454C+41000-085200FM-15+0241FWA  V0203605N00365220005MN0160005N1+02335+01725101135ADDAA101000095GD12995+0070159GF104991999999999999999999MA1101195999999MD1110081+9999MW1001REMMET076KFWA 161454Z 36007KT 10SM SCT023 23/17 A2988 RMK AO2 SLP113 T02330172 51008;EQDQ01+000000PRSWM2N01 00000JPWTH 0QNNAA1D0 02023BA1 0 02023GA1U0 99999KA1D0 00063JA1 0 00172LA1 0 01000CA1 0 02988NA1 0 00000QA1 0 10113SA1D0 00074RA1 0 00233YA1 0 36007
043872533014827200007161654C+41000-085200FM-15+0241FWA  V0203205N00465025915MN0160005N1+02505+01725101135ADDAA101000095GA1999+010801021GD12995+0109759GD22995+0152459GD33995+0259159GF107991999999999999999999MA1101195999999MW1001REMMET093KFWA 161654Z 32009KT 10SM SCT036TCU SCT050 BKN085 25/17 A2988 RMK AO2 SLP113 TCU W T02500172;EQDQ01+000000PRSWM2N01 00000JPWTH 0QNNAA1D0 02036BA1 0 02036AA1D0 02050BA1 0 02050AA1D0 04085BA1 0 04085GA1 0 00085KA1D0 00063JA1 0 00172LA1 0 01000CA1 0 02988NA1 0 00000QA1 0 10113SA1D0 00077RA1 0 00250YA1 0 32009
0221725330148272000071817544+41000-085190FM-15+0252KFWA V02099999999992200019N0160931N1+02401+01601101751ADDGD12991+0105019GF102991999999999999999999KA1999M+02441KA2999N+01781MA1101831999999MD1610091+9999MW1001REMMET088KFWA 181754Z VRB05KT 10SM FEW035 24/16 A3007 RMK AO2 SLP175 T02390161 10244 20178 56009;EQDQ01+000000PRSWM2
0071725330148272000071823009+41000-085200NSRDB+024199999V020999999999999999999999999999+99999+99999999999ADDGP10060038502008053102015013702008GQ100600622927439GR100600616913239
045172533014827200007190654C+41000-085200FM-15+0241FWA  V0200705N00315030485MN0160005N1+01835+01565101605ADDAA101000025GD11995+0243859GD23995+0304859GD33995+0365859GF107991999999999999999999MA1101665999999MW1615REMMET106KFWA 190654Z 07006KT 10SM -RA FEW080 BKN100 BKN120 18/16 A3002 RMK AO2 RAB07E22B40 SLP160 P0000 T01830156;EQDQ01+000003PRSWM1Q02    003PRSWM1N01 00020JPWTH 0QNNAA1D0 02080BA1 0 01080AA1D0 04100BA1 0 04100AA1D0 04120BA1 0 04120GA1 0 00100KA1D0 00060JA1 0 00156LA1 0 01000CA1 0 03002NA1 0 00020QA1 0 10160SA1D0 00065RA1 0 00183YA1 0 07006
033672533014827200007212154C+41000-085200FM-15+0241FWA  V0203205N00675220005MN0160005N1+02285+01115101505ADDAA101000095GD11995+0198159GF102991999999999999999999MA1101565999999MW1001OC100981REMMET073KFWA 212154Z 32013G19KT 10SM FEW065 23/11 A2999 RMK AO2 SLP150 T02280111;EQDQ01+000000PRSWM2N01 00000JPWTH 0QNNAA1D0 02065BA1 0 01065GA1U0 99999KA1D0 00052JA1 0 00111LA1 0 01000CA1 0 02999NA1 0 00000QA1 0 10150SA1D0 00073RA1 0 00228YA1 0 32013
030772533014827200007220154C+41000-085200FM-15+0241FWA  V0203205N00265220005MN0160005N1+01785+01065101635ADDAA101000095GF100991999999999999999999MA1101665999999MW1001REMMET067KFWA 220154Z 32005KT 10SM CLR 18/11 A3002 RMK AO2 SLP163 T01780106;EQDQ01+000000PRSWM2N01 00000JPWTH 0QNNAA1D0 00000BA1 0 00000GA1U0 99999KA1D0 00051JA1 0 00106LA1 0 01000CA1 0 03002NA1 0 00000QA1 0 10163SA1D0 00064RA1 0 00178YA1 0 32005
034572533014827200007221454C+41000-085200FM-15+0241FWA  V0202705N00265016765MN0160005N1+01945+01225101955ADDAA101000095GD13995+0167659GF107991999999999999999999MA1101965999999MD1110071+9999MW1001REMMET076KFWA 221454Z 27005KT 10SM BKN055 19/12 A3011 RMK AO2 SLP195 T01940122 51007;EQDQ01+000000PRSWM2N01 00000JPWTH 0QNNAA1D0 04055BA1 0 04055GA1 0 00055KA1D0 00054JA1 0 00122LA1 0 01000CA1 0 03011NA1 0 00000QA1 0 10195SA1D0 00067RA1 0 00194YA1 0 27005
0071725330148272000072321009+41000-085200NSRDB+024199999V020999999999999999999999999999+99999+99999999999ADDGP10060050502008022602015033202008GQ100600404925089GR100601006913249
0054725330148272000072903009+41000-085200NSRDB+024199999V020999999999999999999999999999+99999+99999999999ADDGP10060000002000000002000000002000GR100600000900009
0202725330148272000072923544+41000-085190FM-15+0252KFWA V0201401N004112200019N0144841N1+02201+02001101211ADDGF100991999999999999999999KA1999M+02721KA2999N+02221MA1101251999999MD1310031+9999MW1001REMMET084KFWA 292354Z 14008KT 9SM CLR 22/20 A2990 RMK AO2 SLP121 T02220200 10272 20222 53003;EQDQ01+000000PRSWM2
042072533014827200007300254C+41000-085200FM-15+0241FWA  V0201305N00315024385MN0144005N1+02005+02005101275ADDAA101000025AA203000021GD12995+0182959GD23995+0243859GF107991999999999999999999MA1101325999999MD1310061+9999MW1001REMMET103KFWA 300254Z 13006KT 9SM SCT060 BKN080 20/20 A2992 RMK AO2 RAB22E54 SLP127 P0000 60000 T02000200 53006;EQDQ01+000000PRSWM2N01 00000JPWTH 0QNNAA1D0 02060BA1 0 02060AA1D0 04080BA1 0 04080GA1 0 00080KA1D0 00068JA1 0 00200LA1 0 00900CA1 0 02992NA1 0 00000QA1 0 10127SA1D0 00068RA1 0 00200YA1 0 13006
0054725330148272000080504009+41000-085200NSRDB+024199999V020999999999999999999999999999+99999+99999999999ADDGP10060000002000000002000000002000GR100600000900009
0157725330148272000080617364+41000-085190FM-16+0252KFWA V0202601N007710072019N0160931N1+02701+02601999999ADDGD13991+0072019GF107991999999999999999999MA1100881999999MW1001OC101031REMMET056KFWA 061736Z 26015G20KT 10SM BKN024 27/26 A2979 RMK AO2;EQDQ01+000000PRSWM2
0054725330148272000080903009+41000-085200NSRDB+024199999V020999999999999999999999999999+99999+99999999999ADDGP10060000002000000002000000002000GR100600000900009
0071725330148272000081811009+41000-085200NSRDB+024199999V020999999999999999999999999999+99999+99999999999ADDGP10060000002008000002015000002008GQ100600896907269GR100600001901009
0071725330148272000082315009+41000-085200NSRDB+024199999V020999999999999999999999999999+99999+99999999999ADDGP10060028502008003702015026302008GQ100600517911119GR100600827913379
034172533014827200008270654C+41000-085200FM-15+0241FWA  V0200105N00155220005MN0112005N1+01725+01725101115ADDAA101000395GD11995+0304859GF102991999999999999999999MA1101155999999MW1001REMMET086KFWA 270654Z 01003KT 7SM FEW100 17/17 A2987 RMK AO2 TSE14RAE13 SLP111 P0001 T01720172;EQDQ01+000000PRSWM2N01 00000JPWTH 0QNNAA1D0 02100BA1 0 01100GA1U0 99999KA1D0 00063JA1 0 00172LA1 0 00700CA1 0 02987NA1 0 00000QA1 0 10111SA1D0 00063RA1 0 00172YA1 0 01003
0164725330148272000082717474+41000-085190FM-16+0252KFWA V0200701N002110033019N0096561N1+02001+01801999999ADDGD14991+0033019GF108991999999999999999999MA1101421999999MW1101REMMET055KFWA 271747Z 07004KT 6SM BR OVC011 20/18 A2995 RMK AO2;EQDQ01+000003PRSWM1Q02    003PRSWM1
034472533014827200008272054C+41000-085200FM-15+0241FWA  V0209999C00005220005MN0112005N1+02505+01895101325ADDAA101000095GD12995+0076259GF104991999999999999999999MA1101355999999MD1810071+9999MW1001REMMET075KFWA 272054Z 00000KT 7SM SCT025 25/19 A2993 RMK AO2 SLP132 T02500189 58007;EQDQ01+000000PRSWM2N01 00000JPWTH 0QNNAA1D0 02025BA1 0 02025GA1U0 99999KA1D0 00066JA1 0 00189LA1 0 00700CA1 0 02993NA1 0 00000QA1 0 10132SA1D0 00077RA1 0 00250YA1 0 00000
030672533014827200008310154C+41000-085200FM-15+0241FWA  V0201005N00265220005MN0144005N1+02285+02115101765ADDAA101000095GF100991999999999999999999MA1101835999999MW1001REMMET066KFWA 310154Z 10005KT 9SM CLR 23/21 A3007 RMK AO2 SLP176 T02280211;EQDQ01+000000PRSWM2N01 00000JPWTH 0QNNAA1D0 00000BA1 0 00000GA1U0 99999KA1D0 00070JA1 0 00211LA1 0 00900CA1 0 03007NA1 0 00000QA1 0 10176SA1D0 00073RA1 0 00228YA1 0 10005
0071725330148272000090601009+41000-085200NSRDB+024199999V020999999999999999999999999999+99999+99999999999ADDGP10060000002008000002015000002008GQ100600896927869GR100600001901019
0180725330148272000091219194+41000-085190FM-16+0252KFWA V0203601N003110087019N0160931N1+01901+01701999999ADDGD12991+0054019GD24991+0087019GF108991999999999999999999MA1101421999999MW1001REMMET072KFWA 121919Z 36006KT 10SM FEW018 OVC029 19/17 A2995 RMK AO2 DZE06 P0000;EQDQ01+000000PRSWM2
0054725330148272000091401009+41000-085200NSRDB+024199999V020999999999999999999999999999+99999+99999999999ADDGP10060000002000000002000000002000GR100600000900009
036972533014827200009142154C+41000-085200FM-15+0241FWA  V0203605N00525030485MN0160005N1+01725+01445101285ADDAA101000095GD11995+0073259GD23995+0304859GF107991999999999999999999MA1101295999999MW1001REMMET077KFWA 142154Z 36010KT 10SM FEW024 BKN100 17/14 A2991 RMK AO2 SLP128 T01720144;EQDQ01+000000PRSWM2N01 00000JPWTH 0QNNAA1D0 02024BA1 0 01024AA1D0 04100BA1 0 04100GA1 0 00100KA1D0 00058JA1 0 00144LA1 0 01000CA1 0 02991NA1 0 00000QA1 0 10128SA1D0 00063RA1 0 00172YA1 0 36010
034372533014827200009170454C+41000-085200FM-15+0241FWA  V0202205N00265220005MN0160005N1+00835+00675101965ADDAA101000095GF100991999999999999999999KA1999M+01831KA2999N+00501MA1101965999999MW1001REMMET077KFWA 170454Z 22005KT 10SM CLR 08/07 A3011 RMK AO2 SLP196 T00830067 401830050;EQDQ01+000000PRSWM2N01 00000JPWTH 0QNNAA1D0 00000BA1 0 00000GA1U0 99999KA1D0 00044JA1 0 00067LA1 0 01000CA1 0 03011NA1 0 00000QA1 0 10196SA1D0 00047RA1 0 00083YA1 0 22005
0286725330148272000092023544+41000-085190FM-15+0252KFWA V0203001N005110270019N0160931N1+01301+01301100651ADDAA101000391AA206022691GD12991+0033019GD24991+0270019GF108991999999999999999999KA1999M+02891KA2999N+01331MA1100681999999MD1110521+9999MW1001REMMET116KFWA 202354Z 30010KT 10SM FEW011 OVC090 13/13 A2973 RMK AO2 RAB04E29 SLP065 P0001 60089 T01330128 10289 20133 51052;EQDQ01+000000PRSWM2
0301725330148272000092308384+41000-085190FM-16+0252KFWA V0202501N003110300019N0032181N1+02201+02101999999ADDGA1999+003901091GD12991+0039019GD22991+0141019GD34991+0300019GF108991999999999999999999MA1100951999999MW1801MW2951OC100871REMMET132KFWA 230838Z 25006G17KT 2SM -TSRA BR FEW013CB SCT047 OVC100 22/21 A2981 RMK AO2 TSB37RAB33 OCNL LTGICCG ALQDS TS ALQDS MOV NE P0007;EQDQ01+000100PRSWM4Q02+000003PRSWM1
036272533014827200009231854C+41000-085200FM-15+0241FWA  V0202405N00465006105MN0128005N1+02395+02285100875ADDAA101000025GD14995+0061059GF108991999999999999999999MA1100915999999MW1615REMMET091KFWA 231854Z 24009KT 8SM -RA OVC020 24/23 A2980 RMK AO2 RAB02E25B48 SLP087 P0000 T02390228;EQDQ01+000003PRSWM1Q02    003PRSWM1N01 00020JPWTH 0QNNAA1D0 06020BA1 0 06020GA1 0 00020KA1D0 00073JA1 0 00228LA1 0 00800CA1 0 02980NA1 0 00020QA1 0 10087SA1D0 00075RA1 0 00239YA1 0 24009
0071725330148272000092420009+41000-085200NSRDB+024199999V020999999999999999999999999999+99999+99999999999ADDGP10060033302008008902015027502008GQ100600497921999GR100600879913599
0054725330148272000092502009+41000-085200NSRDB+024199999V020999999999999999999999999999+99999+99999999999ADDGP10060000002000000002000000002000GR100600000900009
032772533014827200009260254C+41000-085200FM-15+0241FWA  V0203505N00415220005MN0160005N1+00895+00675101875ADDAA101000095GF100991999999999999999999MA1101835999999MD1110071+9999MW1001REMMET073KFWA 260254Z 35008KT 10SM CLR 09/07 A3007 RMK AO2 SLP187 T00890067 51007;EQDQ01+000000PRSWM2N01 00000JPWTH 0QNNAA1D0 00000BA1 0 00000GA1U0 99999KA1D0 00044JA1 0 00067LA1 0 01000CA1 0 03007NA1 0 00000QA1 0 10187SA1D0 00048RA1 0 00089YA1 0 35008
030772533014827200009271654C+41000-085200FM-15+0241FWA  V0202705N00575220005MN0160005N1+01945+00895102195ADDAA101000095GF100991999999999999999999MA1102205999999MW1001REMMET067KFWA 271654Z 27011KT 10SM CLR 19/09 A3018 RMK AO2 SLP219 T01940089;EQDQ01+000000PRSWM2N01 00000JPWTH 0QNNAA1D0 00000BA1 0 00000GA1U0 99999KA1D0 00048JA1 0 00089LA1 0 01000CA1 0 03018NA1 0 00000QA1 0 10219SA1D0 00067RA1 0 00194YA1 0 27011
030772533014827200009281354C+41000-085200FM-15+0241FWA  V0200705N00465220005MN0160005N1+01005+00505102825ADDAA101000095GF100991999999999999999999MA1102815999999MW1001REMMET067KFWA 281354Z 07009KT 10SM CLR 10/05 A3036 RMK AO2 SLP282 T01000050;EQDQ01+000000PRSWM2N01 00000JPWTH 0QNNAA1D0 00000BA1 0 00000GA1U0 99999KA1D0 00041JA1 0 00050LA1 0 01000CA1 0 03036NA1 0 00000QA1 0 10282SA1D0 00050RA1 0 00100YA1 0 07009
0071725330148272000092913009+41000-085200NSRDB+024199999V020999999999999999999999999999+99999+99999999999ADDGP10060011502008025202015007402008GQ100600806910189GR100600222913639
0150725330148272000100219304+41000-085190FM-15+0252KFWA V0202201N008712200019N0160931N1+02601+01401999999ADDGF100991999999999999999999MA1100681999999MW1001OC101181REMMET064KFWA 021930Z 22017G23KT 10SM CLR 26/14 A2973 RMK AO2 WSHFT 1910;EQDQ01+000000PRSWM2
032672533014827200010070054C+41000-085200FM-15+0241FWA  V0202905N00415220005MN0160005N1+00505-00065102505ADDAA101000095GD11995+0167659GF102991999999999999999999MA1102475999999MW1001REMMET071KFWA 070054Z 29008KT 10SM FEW055 05/M01 A3026 RMK AO2 SLP250 T00501006;EQDQ01+000000PRSWM2N01 00000JPWTH 0QNNAA1D0 02055BA1 0 01055GA1U0 99999KA1D0 00031JA1 0-00006LA1 0 01000CA1 0 03026NA1 0 00000QA1 0 10250SA1D0 00041RA1 0 00050YA1 0 29008
0788725330148272000100704596+40971-085206SOD  +0252KFWA V020999999999999999999999999999+99999+99999999999ADDAA124000595AJ100009599999999AL12400095AN1024000095AT1MW16RA  1AT2MW01FG  5AT3MW13BR  1KA1240M+01225KA2240N+00285MG1098859999994OE11240111833016075OE22240093932013445OE33240043899999995REMSOD59224 HR PRECIPITATION (IN): 0.02 SNOW DEPTH (IN):0     24 HR SNOWFALL (IN):  .0 24 HR MAX TEMP (F): 5424 HR MAX TEMP TIME (LST):1244 24 HR MIN TEMP (F): 3724 HR MIN TEMP TIME (LST):2207 AVERAGE STATION PRESSURE:29.19  PEAK WIND SPEED (MPH): 25 PEAK WIND DIR (DEG):330 PEAK WIND TIME (LST):1607  FASTEST 2MIN SPEED (MPH): 21FASTEST 2MIN DIR (DEG):320 FASTEST 2MIN TIME (LST):1344 AVERAGE WIND SPEED (MPH): 9.8 24 HR AVG TEMP (F):46 HOURLY INCREMENTAL PRECIPITATION VALUES (IN): T   .00  .01   T   .01  .00  .00   T   .00  .00  .00  .00  .00  .00  .00  .00  .00  .00  .00  .00  .00  .00  .00  .00
0054725330148272000101003009+41000-085200NSRDB+024199999V020999999999999999999999999999+99999+99999999999ADDGP10060000002000000002000000002000GR100600000900009
0071725330148272000101121009+41000-085200NSRDB+024199999V020999999999999999999999999999+99999+99999999999ADDGP10060039202008064402015010802008GQ100600640923209GR100600601913739
0071725330148272000101220009+41000-085200NSRDB+024199999V020999999999999999999999999999+99999+99999999999ADDGP10060054002008076502015011602008GQ100600564921739GR100600760913739
0071725330148272000101417009+41000-085200NSRDB+024199999V020999999999999999999999999999+99999+99999999999ADDGP10060038202008012702015030302008GQ100600513916209GR100600861913759
0160725330148272000101812364+41000-085190FM-16+0252KFWA V0202901N002112200019N0040231N1+00601+00601999999ADDGF100991999999999999999999MA1102401999999MW1101REMMET066KFWA 181236Z 29004KT 2 1/2SM BR CLR 06/06 A3024 RMK AO2 TWR VIS 3;EQDQ01+000003PRSWM1Q02    003PRSWM1
030772533014827200010181654C+41000-085200FM-15+0241FWA  V0203005N00315220005MN0160005N1+01565+00835102415ADDAA101000095GF100991999999999999999999MA1102405999999MW1001REMMET067KFWA 181654Z 30006KT 10SM CLR 16/08 A3024 RMK AO2 SLP241 T01560083;EQDQ01+000000PRSWM2N01 00000JPWTH 0QNNAA1D0 00000BA1 0 00000GA1U0 99999KA1D0 00047JA1 0 00083LA1 0 01000CA1 0 03024NA1 0 00000QA1 0 10241SA1D0 00060RA1 0 00156YA1 0 30006
034572533014827200010182054C+41000-085200FM-15+0241FWA  V0202805N00465220005MN0160005N1+01785+00945102225ADDAA101000095GD12995+0137259GF104991999999999999999999MA1102205999999MD1610111+9999MW1001REMMET076KFWA 182054Z 28009KT 10SM SCT045 18/09 A3018 RMK AO2 SLP222 T01780094 56011;EQDQ01+000000PRSWM2N01 00000JPWTH 0QNNAA1D0 02045BA1 0 02045GA1U0 99999KA1D0 00049JA1 0 00094LA1 0 01000CA1 0 03018NA1 0 00000QA1 0 10222SA1D0 00064RA1 0 00178YA1 0 28009
038772533014827200010271654C+41000-085200FM-15+0241FWA  V0202705N00525220005MN0096005N1+02225+01615101885ADDAA101000095GD11995+0076259GD22995+0335359GF104991999999999999999999MA1101935999999MW1055REMMET079KFWA 271654Z 27010KT 6SM HZ FEW025 SCT110 22/16 A3010 RMK AO2 SLP188 T02220161;EQDQ01+000003PRSWM1Q02    003PRSWM1N01 00081JPWTH 0QNNAA1D0 02025BA1 0 01025AA1D0 02110BA1 0 02110GA1U0 99999KA1D0 00061JA1 0 00161LA1 0 00600CA1 0 03010NA1 0 00081QA1 0 10188SA1D0 00072RA1 0 00222YA1 0 27010
0054725330148272000110107009+41000-085200NSRDB+024199999V020999999999999999999999999999+99999+99999999999ADDGP10060000002000000002000000002000GR100600000900009
032772533014827200011020254C+41000-085200FM-15+0241FWA  V0201405N00365220005MN0160005N1+01395+00115101985ADDAA101000095GF100991999999999999999999MA1101965999999MD1610021+9999MW1001REMMET073KFWA 020254Z 14007KT 10SM CLR 14/01 A3011 RMK AO2 SLP198 T01390011 56002;EQDQ01+000000PRSWM2N01 00000JPWTH 0QNNAA1D0 00000BA1 0 00000GA1U0 99999KA1D0 00034JA1 0 00011LA1 0 01000CA1 0 03011NA1 0 00000QA1 0 10198SA1D0 00057RA1 0 00139YA1 0 14007
032472533014827200011022254C+41000-085200FM-15+0241FWA  V0202205N00155220005MN0112005N1+01785+01175101875ADDAA101000095GD11995+0243859GF102991999999999999999999MA1101865999999MW1001REMMET069KFWA 022254Z 22003KT 7SM FEW080 18/12 A3008 RMK AO2 SLP187 T01780117;EQDQ01+000000PRSWM2N01 00000JPWTH 0QNNAA1D0 02080BA1 0 01080GA1U0 99999KA1D0 00053JA1 0 00117LA1 0 00700CA1 0 03008NA1 0 00000QA1 0 10187SA1D0 00064RA1 0 00178YA1 0 22003
0071725330148272000110416009+41000-085200NSRDB+024199999V020999999999999999999999999999+99999+99999999999ADDGP10060039902009050702021016502009GQ100600626914889GR100600641913919
0071725330148272000110614009+41000-085200NSRDB+024199999V020999999999999999999999999999+99999+99999999999ADDGP10060013902009025402021008902009GQ100600787912339GR100600272913939
0071725330148272000110717009+41000-085200NSRDB+024199999V020999999999999999999999999999+99999+99999999999ADDGP10060018002009000602021017702009GQ100600590916479GR100600718913939
039172533014827200011102054C+41000-085200FM-15+0241FWA  V0202905N00675011285MN0160005N1+00565+00335101875ADDAA101000095GD11995+0067159GD24995+0112859GF108991999999999999999999MA1101835999999MD1310161+9999MW1001REMMET085KFWA 102054Z 29013KT 10SM FEW022 OVC037 06/03 A3007 RMK AO2 SLP187 T00560033 53016 $;EQDQ01+000000PRSWM2N01 00000JPWTH 0QNNAA1D0 02022BA1 0 01022AA1D0 06037BA1 0 06037GA1 0 00037KA1D0 00038JA1 0 00033LA1 0 01000CA1 0 03007NA1 0 00000QA1 0 10187SA1D0 00042RA1 0 00056YA1 0 29013
0215725330148272000111222053+41000-085190FM-16+0252KFWA V0200901N003112200019N0112651N1+00701+00301999999ADDGD12991+0084019GF104991999999999999999999GP10060007302009012502021005502009GQ100600817923749GR100600201913979MA1101521999999MW1001REMMET054KFWA 122205Z 09006KT 7SM SCT028 07/03 A2998 RMK AO2 $;EQDQ01+000000PRSWM2
042172533014827200011131354C+41000-085200FM-15+0241FWA  V0203005N00465002135MN0048005N1+00675+00615101135ADDAA101001595GD13995+0021359GD24995+0036659GF108991999999999999999999MA1101085999999MW1101MW2455MW3615REMMET101KFWA 131354Z 30009KT 3SM -RA BR BKN007 OVC012 07/06 A2985 RMK AO2 CIG 004V008 SLP113 P0006 T00670061;EQDQ01+000003PRSWM1Q02    003PRSWM1N01 02070JPWTH 0QNNAA1D0 04007BA1 0 04007AA1D0 06012BA1 0 06012GA1 0 00007KA1D0 00043JA1 0 00061LA1 0 00300CA1 0 02985NA1 0 02070QA1 0 10113SA1D0 00044RA1 0 00067YA1 0 30009
0071725330148272000111421009+41000-085200NSRDB+024199999V020999999999999999999999999999+99999+99999999999ADDGP10060004102009000002021004102009GQ100600733922559GR100600402913989
0071725330148272000111620009+41000-085200NSRDB+024199999V020999999999999999999999999999+99999+99999999999ADDGP10060006102009000002021006102009GQ100600666921219GR100600556913999
0054725330148272000111701009+41000-085200NSRDB+024199999V020999999999999999999999999999+99999+99999999999ADDGP10060000002000000002000000002000GR100600000900009
0054725330148272000111802009+41000-085200NSRDB+024199999V020999999999999999999999999999+99999+99999999999ADDGP10060000002000000002000000002000GR100600000900009
0432725330148272000111906003+41000-085200SY-MT+0241FWA  V0202605N00575014635MN0160005N1-00115-00565101975ADDAA101000095GD14995+0146359GF108991999999012501999999GP10060000002000000002000000002000GR100600000900009KA1240M-00111KA2240N-00331MA1101905098891MD1010011+9999REMSYN092AAXX  19064 72533 32666 82611 11011 21056 39889 40197 50001 90554 333 11011 21033 555 91906;EQDQ01  00003PRCP99N01 00000JPWTH 0QNNAA1D0 06048BA1 0 06048GA1 0 00048KA1D0 00022JA1 0-00056LA1 0 01000CA1 0 03009NA1 0 00000QA1 0 10197SA1D0 00030RA1 0-00011YA1 0 26011
032772533014827200011230354C+41000-085200FM-15+0241FWA  V0200505N00265220005MN0160005N1-00445-00835102705ADDAA101000095GD11995+0100659GF102991999999999999999999MA1102615999999MW1001REMMET072KFWA 230354Z 05005KT 10SM FEW033 M04/M08 A3030 RMK AO2 SLP270 T10441083;EQDQ01+000000PRSWM2N01 00000JPWTH 0QNNAA1D0 02033BA1 0 01033GA1U0 99999KA1D0 00017JA1 0-00083LA1 0 01000CA1 0 03030NA1 0 00000QA1 0 10270SA1D0 00024RA1 0-00044YA1 0 05005
030872533014827200011231954C+41000-085200FM-15+0241FWA  V0201505N00365220005MN0160005N1+00065-00835102625ADDAA101000095GF100991999999999999999999MA1102515999999MW1001REMMET068KFWA 231954Z 15007KT 10SM CLR 01/M08 A3027 RMK AO2 SLP262 T00061083;EQDQ01+000000PRSWM2N01 00000JPWTH 0QNNAA1D0 00000BA1 0 00000GA1U0 99999KA1D0 00017JA1 0-00083LA1 0 01000CA1 0 03027NA1 0 00000QA1 0 10262SA1D0 00033RA1 0 00006YA1 0 15007
0054725330148272000112510009+41000-085200NSRDB+024199999V020999999999999999999999999999+99999+99999999999ADDGP10060000002000000002000000002000GR100600000900009
0489725330148272000112818003+41000-085200SY-MT+0241FWA  V0202605N00825003965MN0048005N1+00335+00115101775ADDAA101000095GD13995+0039659GF106991999999004501999999GP10060007202009000002021007202009GQ100600625918039GR100600648914069KA1120M+00331KA2240N+00061MA1101695098691MD1010051+9999MW1101MW2455REMSYN104AAXX  28184 72533 31448 62616 10033 20011 39869 40177 50005 710// 91754 333 10033 20006 91021 555 92818;EQDQ01  00002PRCP99Q02  00003PRCP99N01 00070JPWTH 0QNNAA1D0 04013BA1 0 04013GA1 0 00013KA1D0 00034JA1 0 00011LA1 0 00300CA1 0 03003NA1 0 00070QA1 0 10177SA1D0 00038RA1 0 00033YA1 0 26016
033472533014827200011281854C+41000-085200FM-15+0241FWA  V0202905N00725005495MN0112005N1+00395+00115101785ADDAA101000095GD13995+0054959GF107991999999999999999999MA1101695999999MW1001REMMET079KFWA 281854Z 29014KT 7SM BKN018 04/01 A3003 RMK AO2 SLP178 BKN V OVC T00390011;EQDQ01+000000PRSWM2N01 00000JPWTH 0QNNAA1D0 04018BA1 0 04018GA1 0 00018KA1D0 00034JA1 0 00011LA1 0 00700CA1 0 03003NA1 0 00000QA1 0 10178SA1D0 00039RA1 0 00039YA1 0 29014
0222725330148272000112823544+41000-085190FM-15+0252KFWA V0202701N002612200019N0112651N1-00101-00201102041ADDGD12991+0072019GF104991999999999999999999KA1999M+00441KA2999N-00061MA1101961999999MD1310101+9999MW1001REMMET089KFWA 282354Z 27005KT 7SM SCT024 M01/M02 A3011 RMK AO2 SLP204 T10061017 10044 21006 53010;EQDQ01+000000PRSWM2
036972533014827200011292254C+41000-085200FM-15+0241FWA  V0202705N00625002445MN0028005N1+00005+00005101735ADDAA101000595GD14995+0024459GF108991999999999999999999MA1101665999999MW1101MW2455MW3715REMMET086KFWA 292254Z 27012KT 1 3/4SM -SN BR OVC008 00/00 A3002 RMK AO2 SLP173 P0002 T00000000;EQDQ01+000003PRSWM1Q02    003PRSWM1N01 04070JPWTH 0QNNAA1D0 06008BA1 0 06008GA1 0 00008KA1D0 00032JA1 0 00000LA1 0 00175CA1 0 03002NA1 0 04070QA1 0 10173SA1D0 00032RA1 0 00000YA1 0 27012
041572533014827200011300054C+41000-085200FM-15+0241FWA  V0202805N00575002445MN0112005N1+00065+00005101845ADDAA101000025GD13995+0024459GD24995+0042759GF108991999999999999999999MA1101765999999MW1715REMMET107KFWA 300054Z 28011KT 7SM -SN BKN008 OVC014 01/00 A3005 RMK AO2 SNE05B34 CIG 007V012 SLP184 P0000 T00060000;EQDQ01+000003PRSWM1Q02    003PRSWM1N01 00040JPWTH 0QNNAA1D0 04008BA1 0 04008AA1D0 06014BA1 0 06014GA1 0 00008KA1D0 00032JA1 0 00000LA1 0 00700CA1 0 03005NA1 0 00040QA1 0 10184SA1D0 00033RA1 0 00006YA1 0 28011
0249725330148272000120121364+41000-085190FM-16+0252KFWA V0200501N005710048019N0024141N1+00001-00101999999ADDGD13991+0048019GD23991+0069019GD34991+0084019GF108991999999999999999999MA1102881999999MW1101MW2711REMMET104KFWA 012136Z 05011KT 1 1/2SM -SN BR BKN016 BKN023 OVC028 00/M01 A3038 RMK AO2 SFC VIS 2 1/2 SNB01 P0000;EQDQ01+000003PRSWM1Q02    003PRSWM1
037172533014827200012020654C+41000-085200FM-15+0241FWA  V0200405N00675139605MN0160005N1-00285-00675103335ADDAA101000095GD11995+0106759GD24995+0137259GF108991999999999999999999MA1103225999999MW1001REMMET079KFWA 020654Z 04013KT 10SM FEW035 OVC045 M03/M07 A3048 RMK AO2 SLP333 T10281067;EQDQ01+000000PRSWM2N01 00000JPWTH 0QNNAA1D0 02035BA1 0 01035AA1D0 06045BA1 0 06045GA1 0 00458KA1D0 00020JA1 0-00067LA1 0 01000CA1 0 03048NA1 0 00000QA1 0 10333SA1D0 00027RA1 0-00028YA1 0 04013
0233725330148272000120622404+41000-085190FM-16+0252KFWA V0202501N008210150019N0048281N1-00601-00901999999ADDGD12991+0087019GD23991+0150019GD34991+0180019GF108991999999999999999999MA1101521999999MW1711REMMET094KFWA 062240Z 25016KT 3SM -SN SCT029 BKN050 OVC060 M06/M09 A2998 RMK AO2 SFC VIS 4 SNB03 P0000;EQDQ01+000003PRSWM1Q02    003PRSWM1
035372533014827200012070654C+41000-085200FM-15+0241FWA  V0202705N00675130455MN0160005N1-00615-00785101445ADDAA101000025GD14995+0128059GF108991999999999999999999MA1101325999999MW1715REMMET082KFWA 070654Z 27013KT 10SM -SN OVC042 M06/M08 A2992 RMK AO2 SLP144 P0000 T10611078;EQDQ01+000003PRSWM1Q02    003PRSWM1N01 00040JPWTH 0QNNAA1D0 06042BA1 0 06042GA1 0 00428KA1D0 00018JA1 0-00078LA1 0 01000CA1 0 02992NA1 0 00040QA1 0 10144SA1D0 00021RA1 0-00061YA1 0 27013
0146725330148272000120807274+41000-085190FM-16+0252KFWA V0203101N003110033019N0112651N1+00101-00101999999ADDGD14991+0033019GF108991999999999999999999MA1101081999999MW1001REMMET053KFWA 080727Z 31006KT 7SM OVC011 01/M01 A2985 RMK AO2;EQDQ01+000000PRSWM2
0071725330148272000121420009+41000-085200NSRDB+024199999V020999999999999999999999999999+99999+99999999999ADDGP10060005602009000002021005602009GQ100600696920799GR100600493914129
0071725330148272000121523009+41000-085200NSRDB+024199999V020999999999999999999999999999+99999+99999999999ADDGP10060000002009000002021000002009GQ100600892923799GR100600004902719
0192725330148272000121620244+41000-085190FM-16+0252KFWA V0202701N003110009019N0008051N1+00301+00201999999ADDGD14991+0009019GF108991999999999999999999MA1100311999999MW1441MW2511REMMET077KFWA 162024Z 27006KT 1/2SM -DZ FG OVC003 03/02 A2962 RMK AO2 DZB1959 P0000 $;EQDQ01+000003PRSWM1Q02    003PRSWM1
035172533014827200012170154C+41000-085200FM-15+0241FWA  V0203305N00365011585MN0048005N1+00065+00065100115ADDAA101000095GD14995+0009159GF108991999999999999999999MA1100035999999MW1101MW2455REMMET074KFWA 170154Z 33007KT 3SM BR OVC003 01/01 A2954 RMK AO2 SLP011 T00060006 $;EQDQ01+000003PRSWM1Q02    003PRSWM1N01 00070JPWTH 0QNNAA1D0 06003BA1 0 06003GA1 0 00038KA1D0 00033JA1 0 00006LA1 0 00300CA1 0 02954NA1 0 00070QA1 0 10011SA1D0 00033RA1 0 00006YA1 0 33007
033172533014827200012250854C+41000-085200FM-15+0241FWA  V0202705N00215220005MN0160005N1-02115-02335104065ADDAA101000095GF100991999999999999999999MA1103835999999MD1310181+9999MW1001REMMET077KFWA 250854Z 27004KT 10SM CLR M21/M23 A3066 RMK AO2 SLP406 T12111233 53018 $;EQDQ01+000000PRSWM2N01 00000JPWTH 0QNNAA1D0 00000BA1 0 00000GA1U0 99999KA1D0-00010JA1 0-00233LA1 0 01000CA1 0 03066NA1 0 00000QA1 0 10406SA1D0-00006RA1 0-00211YA1 0 27004
0071725330148272000122514009+41000-085200NSRDB+024199999V020999999999999999999999999999+99999+99999999999ADDGP10060002902009000002021002902009GQ100600861912579GR100600087912859
0263725330148272000122705544+41000-085190FM-15+0252KFWA V0202601N005710051019N0160931N1-00801-00901102771ADDAA101000021AA206000021GD14991+0051019GF108991999999999999999999KA1999M-00781KA2999N-00831MA1102641999999MD1810161+9999MW1001REMMET108KFWA 270554Z 26011KT 10SM OVC017 M08/M09 A3031 RMK AO2 SNE15 SLP277 P0000 60000 T10781094 11078 21083 58016;EQDQ01+000000PRSWM2
037772533014827200012272254C+41000-085200FM-15+0241FWA  V0202805N00415025911MN0096005N1-00725-01005102255ADDAA101000025GD14995+0259159GF108991999999999999999999MA1102105999999MW1715REMMET090KFWA 272254Z 28008KT 6SM -SN OVC085 M07/M10 A3015 RMK AO2 SNE03B46 SLP225 P0000 T10721100;EQDQ01+000003PRSWM1Q02 999993SCOCIGQ03    003PRSWM1N01 00040JPWTH 0QNNAA1D0 06085BA1 0 06085GA1 0 00858KA1D0 00014JA1 0-00100LA1 0 00600CA1 0 03015NA1 0 00040QA1 0 10225SA1D0 00019RA1 0-00072YA1 0 28008
003972533014827200012300459O+41000-085200SOD  +024199999V020999999999999999999999999999+99999+99999999999ADDAT1MW18SN  5AT2MW01FG  5AT3MW13BR  1
0274725335999992000010916003+40650-086150FM-15+0247KGUS V0201501N004110090019N0080461N1+00301+00301101221ADDGD13991+0090019GD24991+0240019GF108991999999999999999999GP10060004802009000002021004802009GQ100600709914559GR100600462914159MA1101151999999MW1101REMMET082KGUS 091557Z 15008KT 5SM BR BKN030 OVC080 03/03 A2987 RMK SLP122 8/57/ 9/62/ WR//;EQDQ01+000003PRSWM1Q02    003PRSWM1
0235725335999992000011202003+40650-086150FM-15+0247KGUS V0202701N006210750019N0112651N1-00101-00401102071ADDGD12991+0360019GD23991+0750019GF107991999999999999999999GP10060000002000000002000000002000GR100600000900009MA1102001999999MW1001REMMET076KGUS 120155Z 27012KT 7SM SCT120 BKN250 M01/M04 A3012 RMK SLP207 8/078 9/033;EQDQ01+000000PRSWM2
0284725335999992000011314003+40650-086150FM-15+0247KGUS V0203201N005710024019N0064371N1-00101-00101102191ADDGD13991+0024019GD24991+0045019GF108991999999999999999999GP10060000002009000002021000002009GQ100600862912269GR100600080912149MA1102101999999MW1711REMMET092KGUS 131355Z 32011KT 4SM -SN BKN008 OVC015 M01/M01 A3015 RMK PRESRR SLP219 8/6// 9/8// WR//;EQDQ01+000003PRSWM1Q02    003PRSWM1
0071725335999992000011718009+40650-086150NSRDB+025399999V020999999999999999999999999999+99999+99999999999ADDGP10060025102009007202021021602009GQ100600618917359GR100600668914149
0193725335999992000011904003+40650-086150FM-15+0247KGUS V0202701N004612200019N0112651N1-00501-00501101971ADDGF100991999999999999999999GP10060000002000000002000000002000GR100600000900009MA1101861999999MW1001REMMET064KGUS 190355Z 27009KT 7SM SKC M05/M05 A3008 RMK SLP197 WR// LAST;EQDQ01+000000PRSWM2
0054725335999992000012606009+40650-086150NSRDB+025399999V020999999999999999999999999999+99999+99999999999ADDGP10060000002000000002000000002000GR100600000900009
0241725335999992000012613003+40650-086150FM-15+0247KGUS V0202901N003610105019N0112651N1-01101-01201102221ADDGD13991+0105019GD24991+0135019GF108991999999999999999999GP10060000002000000002000000002000GR100600000900009MA1102101999999MW1001REMMET082KGUS 261255Z 29007KT 7SM BKN035 OVC045 M11/M12 A3015 RMK SLP222 8/5// 9/8// RCRNR;EQDQ01+000000PRSWM2
0249725335999992000012816003+40650-086150FM-15+0247KGUS V0201101N003610810019N0096561N1-01301-01701103941ADDGD14991+0810019GF108991999999999999999999GP10060009402009000002021009402009GQ100600682914229GR100600524914109MA1103761999999MW1101REMMET072KGUS 281555Z 11007KT 6SM BR OVC270 M13/M17 A3064 RMK SLP394 8/007 9/008;EQDQ01+000003PRSWM1Q02    003PRSWM1
0054725335999992000013110009+40650-086150NSRDB+025399999V020999999999999999999999999999+99999+99999999999ADDGP10060000002000000002000000002000GR100600000900009
0201725335999992000022812003+40650-086150FM-15+0247KGUS V0202201N002112200019N0112651N1-00201-00301102651ADDGF100991999999999999999999GP10060000002000000002000000002000GR100600000900009MA1102571999999MW1001REMMET072KGUS 281159Z 22004KT 7SM SKC M02/M03 A3029 RMK SLP265 5//// RCRNR FIRST;EQDQ01+000000PRSWM2
0208725335999992000030522003+40650-086150FM-15+0247KGUS V0202701N006712200019N0112651N1+02001+00301101571ADDGF100991999999999999999999GP10060034802009065602021009502009GQ100600674924009GR100600533913899MA1101521999999MW1001REMMET062KGUS 052155Z 27013KT 7SM SKC 20/03 A2998 RMK SLP157 ESTMD SLP;EQDQ01+000000PRSWM2
0229725335999992000031023003+40650-086150FM-15+0247KGUS V0203501N005110081019N0112651N1+00201-00301102321ADDGD14991+0081019GF108991999999999999999999GP10060006002009000002021006002009GQ100600766925309GR100600321913869MA1102241999999MW1001REMMET068KGUS 102255Z 35010KT 7SM OVC027 02/M03 A3019 RMK SLP232 8/5// 9/8//;EQDQ01+000000PRSWM2
0166725335999992000031320114+40650-086150FM-16+0247KGUS V0202001N006210120019N0096561N1+00401+00101999999ADDGD14991+0120019GF108991999999999999999999MA1102101999999MW1611REMMET057KGUS 132011Z 20012KT 6SM -RA OVC040 04/01 A3015 RMK WR//;EQDQ01+000003PRSWM1Q02    003PRSWM1
0211725335999992000032402003+40650-086150FM-15+0247KGUS V0200901N003612200019N0112651N1+01201+00801102381ADDGD12991+0750019GF104991999999999999999999GP10060000002000000002000000002000GR100600000900009MA1102301999999MW1001REMMET067KGUS 240155Z 09007KT 7SM SCT250 12/08 A3021 RMK SLP238 8/008 9/003;EQDQ01+000000PRSWM2
0054725335999992000032809009+40650-086150NSRDB+025399999V020999999999999999999999999999+99999+99999999999ADDGP10060000002000000002000000002000GR100600000900009
0238725335999992000032917003+40650-086150FM-15+0247KGUS V0202901N005110105019N0112651N1+00701+00101101541ADDGD13991+0105019GF107991999999999999999999GP10060063102008035602015036202008GQ100600412914929GR100601031913719MA1101461999999MW1001REMMET077KGUS 291655Z 29010KT 7SM BKN035 07/01 A2996 RMK SLP154 ESTMD SLP 8/400 9/600;EQDQ01+000000PRSWM2
0321725335999992000040318003+40650-086150FM-15+0247KGUS V0202401N005110600019N0080461N1+01501+00701100761ADDGD12991+0120019GD22991+0300019GD34991+0600019GF108991999999999999999999GP10060023602008000602015023102008GQ100600354917249GR100601113913679MA1100711999999MD1810141+9999MW1051REMMET100KGUS 031755Z 24010KT 5SM HZ FEW040 SCT100 OVC200 15/07 A2974 RMK SLP076 ESTMD SLP 8/577 9/224 58014;EQDQ01+000003PRSWM1Q02    003PRSWM1
0181725335999992000040718014+40650-086150FM-16+0247KGUS V0201701N006210060019N0080461N1+01301+01101999999ADDGD13991+0060019GD24991+0300019GF108991999999999999999999MA1100441999999MW1801REMMET057KGUS 071801Z 17012KT 5SM -SHRA BKN020 OVC100 13/11 A2966;EQDQ01+000003PRSWM1Q02    003PRSWM1
0229725335999992000041301003+40650-086150FM-15+0247KGUS V0201401N001512200019N0112651N1+00701-00501103131ADDGD12991+0750019GF104991999999999999999999GP10060000002008000002015000002008GQ100600884928099GR100600013904429MA1103051999999MW1001REMMET068KGUS 130055Z 14003KT 7SM SCT250 07/M05 A3043 RMK SLP313 8/005 9/003;EQDQ01+000000PRSWM2
0247725335999992000042001003+40650-086150FM-15+0247KGUS V0201201N006710300019N0064371N1+01601+01201101251ADDGD13991+0300019GF107991999999999999999999GP10060000002008000002015000002008GQ100600878928379GR100600024906219MA1101221999999MW1101REMMET070KGUS 200055Z 12013KT 4SM BR BKN100 16/12 A2989 RMK SLP125 8/070 9/060;EQDQ01+000003PRSWM1Q02    003PRSWM1
0054725335999992000042208009+40650-086150NSRDB+025399999V020999999999999999999999999999+99999+99999999999ADDGP10060000002000000002000000002000GR100600000900009
0296725335999992000042418003+40650-086150FM-15+0247KGUS V0200601N007210600019N0112651N1+01901+00401101351ADDGD12991+0090019GD24991+0600019GF108991999999999999999999GP10060085702008065502015027702008GQ100600279917359GR100601193913509MA1101321999999MD1810051+9999MW1001REMMET106KGUS 241755Z 06014KT 7SM FEW030 OVC200 19/04 A2992 RMK PK WND 07026/39 SLP135 ESTMD SLP 8/107 9/107 58005;EQDQ01+000000PRSWM2
0229725335999992000042614003+40650-086150FM-15+0247KGUS V02099999999992200019N0112651N1+01001-00201102111ADDGD12991+0750019GF104991999999999999999999GP10060044802008062402015014302008GQ100600608909719GR100600658913499MA1102071999999MW1001REMMET068KGUS 261355Z VRB02KT 7SM SCT250 10/M02 A3014 RMK SLP211 8/001 9/003;EQDQ01+000000PRSWM2
0229725335999992000042621003+40650-086150FM-15+0247KGUS V0200101N003112200019N0112651N1+01801-00301101801ADDGF100991999999999999999999GP10060067202008069502015018202008GQ100600453924589GR100600947913499MA1101761999999MD1610151+9999MW1001REMMET069KGUS 262058Z 01006KT 7SM SKC 18/M03 A3005 RMK SLP180 ESTMD SLP 56015;EQDQ01+000000PRSWM2
0054725335999992000050105009+40650-086150NSRDB+025399999V020999999999999999999999999999+99999+99999999999ADDGP10060000002000000002000000002000GR100600000900009
0238725335999992000050222003+40650-086150FM-15+0247KGUS V0201101N004112200019N0112651N1+02101+00801102081ADDGD12991+0180019GF104991999999999999999999GP10060049102008063102015013002008GQ100600551926049GR100600769913449MA1102031999999MW1001REMMET077KGUS 022155Z 11008KT 7SM SCT060 21/08 A3013 RMK SLP208 ESTMD SLP 8/100 9/400;EQDQ01+000000PRSWM2
0237725335999992000050319003+40650-086150FM-15+0247KGUS V0201801N004112200019N0112651N1+02301+00901102111ADDGD12991+0750019GF102991999999999999999999GP10060089002008076102015021102008GQ100600271920629GR100601196913449MA1102071999999MW1001REMMET076KGUS 031855Z 18008KT 7SM FEW250 23/09 A3014 RMK SLP211 ESTMD SLP 8/001 9/00;EQDQ01+000000PRSWM2
0250725335999992000050901003+40650-086150FM-15+0247KGUS V0202101N007212200019N0112651N1+02401+01801100611ADDGD12991+0150019GD22991+0750019GF104991999999999999999999GP10060001302008002302015001202008GQ100600862929009GR100600069910399MA1100611999999MW1001REMMET074KGUS 090055Z 21014KT 7SM SCT055 SCT250 24/18 A2971 RMK SLP061 8/502 9/301;EQDQ01+000000PRSWM2
0054725335999992000051007009+40650-086150NSRDB+025399999V020999999999999999999999999999+99999+99999999999ADDGP10060000002000000002000000002000GR100600000900009
0349725335999992000051302003+40650-086150FM-15+0247KGUS V0202101N007710075019N0064371N1+01901+01801100371ADDGA1999+007501091GD13991+0075019GD24991+0750019GF108991999999999999999999GP10060000002000000002000000002000GR100600000900009MA1100411999999MW1801MW2951OC101591REMMET144KGUS 130157Z COR 21015G31KT 4SM -TSRA BKN025CB OVC250 19/18 A2965 RMK PK WND 23041/31 FRQ LTGCCCG TS OVHD MOV E SLP037 8/903 9/503 WR/ COR 0203;EQDQ01+000003PRSWM1Q02    003PRSWM1
0274725335999992000051916003+40650-086150FM-15+0247KGUS V0203201N005110012019N0064371N1+01301+01301101581ADDGD13991+0012019GD24991+0054019GF108991999999999999999999GP10060015002008000002015015002008GQ100600348911709GR100601094913349MA1101521999999MW1101REMMET082KGUS 191559Z 32010KT 4SM BR BKN004 OVC018 13/13 A2998 RMK SLP158 8/6// 9/8// WR//;EQDQ01+000003PRSWM1Q02    003PRSWM1
0054725335999992000052210009+40650-086150NSRDB+025399999V020999999999999999999999999999+99999+99999999999ADDGP10060000002000000002000000002000GR100600000900009
0263725335999992000052313404+40650-086150FM-16+0247KGUS V0202601N005110045019N0112651N1+01901+01601999999ADDGA1999+004501091GD13991+0045019GD23991+0300019GD33991+0750019GF107991999999999999999999MA1100201999999MW1171REMMET108KGUS 221340Z 26010KT 7SM VCTS BKN015CB BKN100 BKN250 19/16 A2959 RMK OCNL LTGIC TS 8 SW MOV E CB SW-W MOV E;EQDQ01+000003PRSWM1Q02    003PRSWM1
0054725335999992000052610009+40650-086150NSRDB+025399999V020999999999999999999999999999+99999+99999999999ADDGP10060000002000000002000000002000GR100600000900009
0181725335999992000052718524+40650-086150FM-16+0247KGUS V0200601N004610075019N0112651N1+02101+01801999999ADDGD13991+0075019GD24991+0750019GF108991999999999999999999MA1100951999999MW1801REMMET057KGUS 271852Z 06009KT 7SM -SHRA BKN025 OVC250 21/18 A2981;EQDQ01+000003PRSWM1Q02    003PRSWM1
0260725335999992000060217003+40650-086150FM-15+0247KGUS V0203201N007210750019N0112651N1+02301+01601101971ADDGD12991+0072019GD23991+0750019GF107991999999999999999999GP10060053902008012602015042302008GQ100600241913539GR100601211913289MA1101961999999MW1001REMMET084KGUS 021655Z 32014KT 7SM SCT024 BKN250 23/16 A3011 RMK SLP197 ESTMD SLP 8/508 9/304;EQDQ01+000000PRSWM2
0054725335999992000060307009+40650-086150NSRDB+025399999V020999999999999999999999999999+99999+99999999999ADDGP10060000002000000002000000002000GR100600000900009
0238725335999992000060822003+40650-086150FM-15+0247KGUS V0202401N009310750019N0112651N1+02901+01201101501ADDGD13991+0750019GF107991999999999999999999GP10060055402008059802015017202008GQ100600503926739GR100600846913259MA1101561999999MW1001REMMET077KGUS 082155Z 24018KT 7SM BKN250 29/12 A2999 RMK SLP150 ESTMD SLP 8/008 9/007;EQDQ01+000000PRSWM2
0208725335999992000060922003+40650-086150FM-15+0247KGUS V0202101N006712200019N0112651N1+03001+01301101661ADDGF100991999999999999999999GP10060057602008068102015014002008GQ100600502926749GR100600847913259MA1101661999999MW1001REMMET062KGUS 092155Z 21013KT 7SM SKC 30/13 A3002 RMK SLP166 ESTMD SLP;EQDQ01+000000PRSWM2
0198725335999992000060923003+40650-086150FM-15+0247KGUS V0202101N006712200019N0112651N1+02901+01301101611ADDGF100991999999999999999999GP10060040202008062002015010702008GQ100600615927699GR100600631913259MA1101631999999MW1001REMMET052KGUS 092255Z 21013KT 7SM SKC 29/13 A3001 RMK SLP161;EQDQ01+000000PRSWM2
0258725335999992000061521003+40650-086140FM-15+0247KGUS V0202501N005710150019N0112651N1+02401+01401100821ADDGD13991+0150019GF107991999999999999999999GP10060070602008053602015028702008GQ100600385925599GR100601034913249MA1100811999999MD1610151+9999MW1001REMMET083KGUS 152055Z 25011KT 7SM BKN050 24/14 A2977 RMK SLP082 ESTMD SLP 8/500 9/500 56015;EQDQ01+000000PRSWM2
0253725335999992000061703003+40650-086140FM-15+0247KGUS V0202101N002610084019N0112651N1+02001+01801101251ADDAA103000021GD14991+0084019GF108991999999999999999999GP10060000002000000002000000002000GR100600000900009MA1101251999999MD1310201+9999MW1001REMMET084KGUS 170255Z 21005KT 7SM OVC028 20/18 A2990 RMK SLP125 60000 8/5// 9/8// 53020 WR//;EQDQ01+000000PRSWM2
0159725335999992000061817104+40650-086140FM-16+0247KGUS V0200601N005110060019N0112651N1+01901+01401999999ADDGD13991+0060019GD24991+0450019GF108991999999999999999999MA1102201999999MW1001REMMET051KGUS 181710Z 06010KT 7SM BKN020 OVC150 19/14 A3018;EQDQ01+000000PRSWM2
0258725335999992000061921003+40650-086140FM-15+0247KGUS V0201601N003612200019N0112651N1+02601+01301102201ADDGD12991+0750019GF102991999999999999999999GP10060074702008075002015015802008GQ100600383925599GR100601036913239MA1102171999999MD1710141+9999MW1001REMMET083KGUS 192055Z 16007KT 7SM FEW250 26/13 A3017 RMK SLP220 ESTMD SLP 8/002 9/002 57014;EQDQ01+000000PRSWM2
0054725335999992000062107009+40650-086150NSRDB+025399999V020999999999999999999999999999+99999+99999999999ADDGP10060000002000000002000000002000GR100600000900009
0054725335999992000062207009+40650-086150NSRDB+025399999V020999999999999999999999999999+99999+99999999999ADDGP10060000002000000002000000002000GR100600000900009
0228725335999992000062316003+40650-086140FM-15+0247KGUS V0202801N002612200019N0112651N1+02601+01601101721ADDGD12991+0750019GF104991999999999999999999GP10060079902008073702015018402008GQ100600335911089GR100601101913229MA1101731999999MW1001REMMET067KGUS 231555Z 28005KT 7SM SCT250 26/16 A3004 RMK SLP172 8/002 9/004;EQDQ01+000000PRSWM2
0238725335999992000062523003+40650-086140FM-15+0247KGUS V0202601N002612200019N0112651N1+02801+01701101561ADDGD12991+0090019GF102991999999999999999999GP10060040902008060302015011402008GQ100600607927679GR100600646913229MA1101561999999MW1001REMMET077KGUS 252255Z 26005KT 7SM FEW030 28/17 A2999 RMK SLP156 ESTMD SLP 8/100 9/100;EQDQ01+000000PRSWM2
0312725335999992000062701003+40650-086140FM-15+0247KGUS V0203501N005110090019N0112651N1+02201+02101101481ADDGD13991+0090019GD23991+0300019GD33991+0750019GF107991999999999999999999GP10060006802008014102015004902008GQ100600824929459GR100600175913229MA1101461999999MW1801REMMET105KGUS 270055Z COR 35010KT 7SM -SHRA BKN030 BKN100 BKN250 22/21 A2996 RMK SLP148 8/238 9/511 WR// COR 0059;EQDQ01+000003PRSWM1Q02    003PRSWM1
0054725335999992000070205009+40650-086150NSRDB+025399999V020999999999999999999999999999+99999+99999999999ADDGP10060000002000000002000000002000GR100600000900009
0071725335999992000070611009+40650-086150NSRDB+025399999V020999999999999999999999999999+99999+99999999999ADDGP10060000202008000002015000202008GQ100600871906209GR100600042908269
0238725335999992000071104003+40650-086140FM-15+0247KGUS V0200601N002110300019N0112651N1+02201+02101101331ADDGD12991+0120019GD23991+0300019GF107991999999999999999999GP10060000002000000002000000002000GR100600000900009MA1101321999999MW1001REMMET079KGUS 110355Z 06004KT 7SM SCT040 BKN100 22/21 A2992 RMK SLP133 8/150 9/340 LAST;EQDQ01+000000PRSWM2
0054725335999992000071110009+40650-086150NSRDB+025399999V020999999999999999999999999999+99999+99999999999ADDGP10060000002000000002000000002000GR100600000900009
0250725335999992000071114003+40650-086140FM-15+0247KGUS V0200901N006210036019N0112651N1+02301+02001101531ADDGD13991+0036019GD24991+0210019GF108991999999999999999999GP10060027302008006102015024002008GQ100600572908809GR100600714913229MA1101521999999MW1001REMMET074KGUS 111355Z 09012KT 7SM BKN012 OVC070 23/20 A2998 RMK SLP153 8/67/ 9/71/;EQDQ01+000000PRSWM2
0250725335999992000071123003+40650-086140FM-15+0247KGUS V0200701N005110300019N0112651N1+02701+01801101421ADDGD12991+0090019GD23991+0300019GF107991999999999999999999GP10060026902008010502015021802008GQ100600610927509GR100600640913229MA1101421999999MW1001REMMET074KGUS 112255Z 07010KT 7SM SCT030 BKN100 27/18 A2995 RMK SLP142 8/530 9/340;EQDQ01+000000PRSWM2
0054725335999992000071207009+40650-086150NSRDB+025399999V020999999999999999999999999999+99999+99999999999ADDGP10060000002000000002000000002000GR100600000900009
0258725335999992000071221003+40650-086140FM-15+0247KGUS V0200601N003612200019N0112651N1+02701+01701101541ADDGD12991+0750019GF104991999999999999999999GP10060073602008074402015015302008GQ100600385925289GR100601032913229MA1101521999999MD1810121+9999MW1001REMMET083KGUS 122055Z 06007KT 7SM SCT250 27/17 A2998 RMK SLP154 ESTMD SLP 8/008 9/004 58012;EQDQ01+000000PRSWM2
0054725335999992000071805009+40650-086150NSRDB+025399999V020999999999999999999999999999+99999+99999999999ADDGP10060000002000000002000000002000GR100600000900009
0054725335999992000071807009+40650-086150NSRDB+025399999V020999999999999999999999999999+99999+99999999999ADDGP10060000002000000002000000002000GR100600000900009
0277725335999992000071913003+40650-086140FM-15+0247KGUS V0200101N003610150019N0112651N1+01601+01501101621ADDGD12991+0030019GD22991+0105019GD34991+0150019GF108991999999999999999999GP10060011702008000002015011702008GQ100600694907999GR100600465913239MA1101591999999MW1001REMMET086KGUS 191255Z 01007KT 7SM FEW010 SCT035 OVC050 16/15 A3000 RMK SLP162 8/8// 9/8// WR//;EQDQ01+000000PRSWM2
0186725335999992000072204003+40650-086140FM-15+0247KGUS V0201101N001012200019N0112651N1+01601+01001101771ADDGF100991999999999999999999GP10060000002000000002000000002000GR100600000900009MA1101731999999MW1001REMMET057KGUS 220355Z 11002KT 7SM SKC 16/10 A3004 RMK SLP177 LAST;EQDQ01+000000PRSWM2
0228725335999992000072314003+40650-086140FM-15+0247KGUS V0200501N002612200019N0112651N1+01701+01401102301ADDGD12991+0750019GF102991999999999999999999GP10060043602008053602015015702008GQ100600586908999GR100600688913249MA1102271999999MW1001REMMET067KGUS 231355Z 05005KT 7SM FEW250 17/14 A3020 RMK SLP230 8/001 9/001;EQDQ01+000000PRSWM2
0054725335999992000072503009+40650-086150NSRDB+025399999V020999999999999999999999999999+99999+99999999999ADDGP10060000002000000002000000002000GR100600000900009
0269725335999992000072613003+40650-086140FM-15+0247KGUS V0201601N002110750019N0064371N1+02001+01701102061ADDGD12991+0300019GD24991+0750019GF108991999999999999999999GP10060024402008037702015011702008GQ100600703908109GR100600446913249MA1102031999999MW1101REMMET077KGUS 261255Z 16004KT 4SM BR SCT100 OVC250 20/17 A3013 RMK SLP206 8/057 9/035;EQDQ01+000003PRSWM1Q02    003PRSWM1
0181725335999992000080521374+40650-086140FM-16+0247KGUS V0201801N004110300019N0112651N1+02001+01701999999ADDGD12991+0105019GD23991+0300019GD34991+0750019GF108991999999999999999999MA1101421999999MW1001REMMET058KGUS 052137Z 18008KT 7SM SCT035 BKN100 OVC250 20/17 A2995;EQDQ01+000000PRSWM2
0294725335999992000080523003+40650-086140FM-15+0247KGUS V0201501N007210360019N0112651N1+02001+01701101231ADDGD12991+0270019GD23991+0360019GD34991+0750019GF108991999999999999999999GP10060006302008000002015006302008GQ100600640927029GR100600580913289MA1101221999999MW1001REMMET103KGUS 052255Z 15014KT 7SM SCT090 BKN120 OVC250 20/17 A2989 RMK PRESFR SLP123 ESTMD SLP 8/077 9/062 WR//;EQDQ01+000000PRSWM2
0272725335999992000080814003+40650-086140FM-15+0247KGUS V0202301N005710750019N0112651N1+02401+02201101571ADDGD12991+0150019GD22991+0360019GD34991+0750019GF108991999999999999999999GP10060032602008016102015024802008GQ100600608909379GR100600646913299MA1101561999999MW1001REMMET081KGUS 081355Z 23011KT 7SM FEW050 SCT120 OVC250 24/22 A2999 RMK SLP157 8/577 9/125;EQDQ01+000000PRSWM2
0269725335999992000080919134+40650-086140FM-16+0247KGUS V0202801N003610300019N0080461N1+02601+02401999999ADDGA1999+007501091GD12991+0075019GD23991+0300019GD33991+0750019GF107991999999999999999999MA1101421999999MW1171REMMET098KGUS 091913Z 28007KT 5SM TS BR SCT025CB BKN100 BKN250 26/24 A2995 RMK OCNL LTGCCIC TS OVHD MOV SE;EQDQ01+000100PRSWM3Q02+000003PRSWM1Q03    003PRSWM1
0201725335999992000081903003+40650-086140FM-15+0247KGUS V0203101N002612200019N0112651N1+01701+01501102191ADDGF100991999999999999999999GP10060000002000000002000000002000GR100600000900009MA1102171999999MD1310141+9999MW1001REMMET058KGUS 180255Z 31005KT 7SM SKC 17/15 A3017 RMK SLP219 53014;EQDQ01+000000PRSWM2
0271725335999992000081919003+40650-086140FM-15+0247KGUS V0200101N005110750019N0112651N1+02201+01001102441ADDGD12991+0090019GD23991+0750019GF107991999999999999999999GP10060077202008055702015028802008GQ100600298920089GR100601157913349MA1102401999999MW1001OC100771REMMET087KGUS 191859Z 01010G15KT 7SM FEW030 BKN250 22/10 A3024 RMK SLP244 ESTMD SLP 8/108 9/205;EQDQ01+000000PRSWM2
0071725335999992000082200009+40650-086150NSRDB+025399999V020999999999999999999999999999+99999+99999999999ADDGP10060008102008006402015006902008GQ100600790927629GR100600255913369
0294725335999992000082415003+40650-086140FM-15+0247KGUS V0203601N003110009019N0016091N1+01901+01901102081ADDGD13991+0009019GD24991+0750019GF108991999999999999999999GP10060016902008000002015016902008GQ100600525911049GR100600814913379MA1102071999999MD1310121+9999MW1101REMMET088KGUS 241455Z 36006KT 1SM BR BKN003 OVC250 19/19 A3014 RMK SLP208 8/607 9/701 53012 WR//;EQDQ01+000003PRSWM1Q02    003PRSWM1
0301725335999992000082812003+40650-086140FM-15+0247KGUS V0201001N002112200019N0024141N1+01701+01701101681ADDGD12991+0001519GD22991+0750019GF104991999999999999999999GP10060000002008000002015000002008GQ100600856908109GR100600085911289MA1101661999999MW1101REMMET109KGUS 281155Z 10004KT 1 1/2SM BR FEW000 SCT250 17/17 A3002 RMK SLP168 BR FEW000 8/001 9/003 5//// RCRNR FIRST;EQDQ01+000003PRSWM1Q02    003PRSWM1
0270725335999992000082900003+40650-086140FM-15+0247KGUS V0201501N002612200019N0112651N1+02501+01801101541ADDGD12991+0420019GD22991+0750019GF104991999999999999999999GP10060007902008010902015006202008GQ100600809927469GR100600212913409MA1101491999999MD1310031+9999MW1001REMMET080KGUS 282355Z 15005KT 7SM SCT140 SCT250 25/18 A2997 RMK SLP154 8/078 9/031 53003;EQDQ01+000000PRSWM2
0266725335999992000082918003+40650-086140FM-15+0247KGUS V0201401N005112200019N0112651N1+03101+02101101531ADDGD12991+0450019GF102991999999999999999999GP10060080302008068502015022102008GQ100600320917299GR100601137913409MA1101521999999MD1610031+9999MW1001REMMET091KGUS 291757Z 14010KT 120V190 7SM FEW150 31/21 A2998 RMK SLP153 ESTMD SLP 8/070 9/020 56003;EQDQ01+000000PRSWM2
