0231992780999992000040518004+43530-070080FM-18+0003DB27 V0202701N009019999999N9999999N1+00671-00251099621ADDMD1110051+9999OA159901101OA249901101REMSYN183BBXX  44007 05181 99435 70701 46/// /2709 10067 21025 49962 51005 91750 22200 00052 10902 70011 333 91211 555 11096 22105 31734 42611 61749 269089 265090 264085 261079 267087 261092 ;
0231992780999992000042505004+43530-070080FM-18+0003DB27 V0203501N009019999999N9999999N1+00591-00041101251ADDMD1110141+9999OA159901101OA249901101REMSYN183BBXX  44007 25051 99435 70701 46/// /3509 10059 21004 40125 51014 90450 22200 00058 10802 70009 333 91211 555 11096 22103 30430 43511 60449 347088 348082 343073 349063 356074 358085 ;
0231992780999992000050202004+43530-070080FM-18+0003DB27 V0201801N010019999999N9999999N1+00871+00351100801ADDMD1510001+9999OA159901201OA249901201REMSYN183BBXX  44007 02021 99435 70701 46/// /1810 10087 20035 40080 55000 90150 22200 00071 10603 70017 333 91212 555 11109 22119 30119 41912 60149 183100 186101 187102 187099 187095 191102 ;
0231992780999992000051121004+43530-070080FM-18+0003DB27 V0202201N003019999999N9999999N1+00861+00711100631ADDMD1310061+9999OA159900401OA249900601REMSYN183BBXX  44007 11211 99435 70701 46/// /2203 10086 20071 40063 53006 92050 22200 00078 10802 70010 333 91204 555 11038 22044 32024 42206 62049 224034 224039 226047 224041 224043 218044 ;
0220992780999992000051210004+43530-070080FM-18+0003DB27 V0203501N003019999999N9999999N1+00901+00521101111ADDMD1210051+9999OA159900301REMSYN183BBXX  44007 12101 99435 70701 46/// /3503 10090 20052 40111 52005 90950 22200 00082 10701 70007 333 91203 555 11029 22034 30946 43503 60949 352024 343021 335020 340013 315011 316015 ;
0231992780999992000051807004+43530-070080FM-18+0003DB27 V0201901N006019999999N9999999N1+01101+00881101951ADDMD1410001+9999OA159900701OA249900701REMSYN183BBXX  44007 18071 99435 70701 46/// /1906 10110 20088 40195 54000 90650 22200 00094 10502 70008 333 91207 555 11070 22078 30649 41907 60649 195062 195058 194057 195055 190048 194052 ;
0231992780999992000051912004+43530-070080FM-18+0003DB27 V0200101N006019999999N9999999N1+00741+00181102121ADDMD1110251+9999OA159900801OA249900901REMSYN183BBXX  44007 19121 99435 70701 46/// /0106 10074 20018 40212 51025 91150 22200 00074 10802 70011 333 91208 555 11068 22073 31126 43609 61149 007065 012072 006074 002065 358062 357064 ;
0231992780999992000053104004+43530-070080FM-18+0003DB27 V0202001N007019999999N9999999N1+01051+00811102501ADDMD1210071+9999OA159900801OA249900901REMSYN183BBXX  44007 31041 99435 70701 46/// /2007 10105 20081 40250 52007 90350 22200 00113 10402 70009 333 91208 555 11072 22076 30310 41909 60349 196066 192069 186074 186074 187071 191071 ;
0231992780999992000060102004+43530-070080FM-18+0003DB27 V0202001N007019999999N9999999N1+01311+01091101581ADDMD1810071+9999OA159900901OA249900901REMSYN183BBXX  44007 01021 99435 70701 46/// /2007 10131 20109 40158 58007 90150 22200 00117 10502 70011 333 91209 555 11081 22089 30136 41909 60149 195073 193075 186074 187070 188063 190053 ;
0231992780999992000060505004+43530-070080FM-18+0003DB27 V0200201N004019999999N9999999N1+01101+00861102121ADDMD1310031+9999OA159900501OA249900501REMSYN183BBXX  44007 05051 99435 70701 46/// /0204 10110 20086 40212 53003 90450 22200 00113 10801 70004 333 91205 555 11040 22042 30426 40105 60449 022037 015040 007045 002040 355039 344038 ;
0231992780999992000061014004+43530-070080FM-18+0003DB27 V0200701N003019999999N9999999N1+01261+01031101441ADDMD1010001+9999OA159900401OA249900501REMSYN183BBXX  44007 10141 99435 70701 46/// /0703 10126 20103 40144 50000 91350 22200 00117 10601 70005 333 91204 555 11038 22045 31252 40305 61349 070034 047034 061031 077029 068032 040038 ;
0231992780999992000061119004+43530-070080FM-18+0003DB27 V0200601N008019999999N9999999N1+00901+00591101831ADDMD1110121+9999OA159900901OA249901001REMSYN183BBXX  44007 11191 99435 70701 46/// /0608 10090 20059 40183 51012 91850 22200 00109 10502 70010 333 91209 555 11081 22085 31811 40510 61849 056076 050080 050082 049085 047083 048083 ;
0231992780999992000061213004+43530-070080FM-18+0003DB27 V0200501N004019999999N9999999N1+00911+00601102281ADDMD1310171+9999OA159900501OA249900501REMSYN183BBXX  44007 12131 99435 70701 46/// /0504 10091 20060 40228 53017 91250 22200 00097 10601 70007 333 91205 555 11044 22046 31228 40605 61249 054041 052043 059044 059037 059038 059037 ;
0231992780999992000061523004+43530-070800FM-18+0003DB27 V0201701N006019999999N9999999N1+01281+01151101301ADDMD1610161+9999OA159900701OA249900801REMSYN183BBXX  44007 15231 99435 70701 46/// /1706 10128 20115 40130 56016 92250 22200 00118 10802 70009 333 91207 555 11060 22067 32221 41708 62249 166055 168060 168061 162061 157056 155060 ;
0231992780999992000061612004+43530-070800FM-18+0003DB27 V0201901N005019999999N9999999N1+01261+01251101191ADDMD1110041+9999OA159900501OA249900601REMSYN183BBXX  44007 16121 99435 70701 46/// /1905 10126 20125 40119 51004 91150 22200 00114 10802 70010 333 91205 555 11053 22060 31139 41806 61149 185047 182044 176026 161026 161028 164032 ;
0231992780999992000062223004+43530-070800FM-18+0003DB27 V0202301N009019999999N9999999N1+01731+01411100251ADDMD1510001+9999OA159901201OA249901201REMSYN183BBXX  44007 22231 99435 70701 46/// /2309 10173 20141 40025 55000 92250 22200 00136 10602 70009 333 91212 555 11100 22112 32240 42212 62249 230092 196081 182081 180082 176083 178083 ;
0220992780999992000062412004+43530-070800FM-18+0003DB27 V0203401N001019999999N9999999N1+01601+01141101911ADDMD1110181+9999OA159900101REMSYN183BBXX  44007 24121 99435 70701 46/// /3401 10160 20114 40191 51018 91150 22200 00141 10701 70005 333 91201 555 11009 22011 31128 43502 61149 338007 344012 334014 346006 019007 057009 ;
0220992780999992000070212004+43530-070800FM-18+0003DB27 V0202201N002019999999N9999999N1+01601+01451101591ADDMD1110111+9999OA159900201REMSYN183BBXX  44007 02121 99435 70701 46/// /2202 10160 20145 40159 51011 91150 22200 00155 10801 70005 333 91202 555 11021 22025 31059 41302 61149 215017 213015 224013 215012 197014 154015 ;
0220992780999992000070310004+43530-070800FM-18+0003DB27 V0202101N004019999999N9999999N1+01521+01371101411ADDMD1310071+9999OA159900401REMSYN183BBXX  44007 03101 99435 70701 46/// /2104 10152 20137 40141 53007 90950 22200 00137 10401 70005 333 91204 555 11044 22051 30925 42104 60949 209038 215039 213039 226036 228032 241027 ;
0231992780999992000070509004+43530-070800FM-18+0003DB27 V0202701N003019999999N9999999N1+01601+01461100551ADDMD1510001+9999OA159900401OA249900501REMSYN183BBXX  44007 05091 99435 70701 46/// /2703 10160 20146 40055 55000 90850 22200 00160 10501 70006 333 91204 555 11036 22038 30827 42805 60849 274034 277040 277042 278040 284040 293025 ;
0220992780999992000070716004+43530-070800FM-18+0003DB27 V0200901N001019999999N9999999N1+01791+01251101261ADDMD1210061+9999OA159900201REMSYN183BBXX  44007 07161 99435 70701 46/// /0901 10179 20125 40126 52006 91550 22200 00172 10801 70004 333 91202 555 11015 22017 31452 43603 61549 082012 046012 033015 011017 010020 000025 ;
0208992780999992000071717004+43530-070800FM-18+0003DB27 V0201501N002019999999N9999999N1+01571+01361101481ADDMD1310051+9999REMSYN182BBXX  44007 17171 99435 70701 46/// /1502 10157 20136 40148 53005 91650 22200 00145 10803 70014 333 1202 555 11022 22026 31634 41502 61649 152018 149019 154013 149008 109013 105016 ;
0231992780999992000072320004+43530-070070FM-18+0003DB27 V0201801N005019999999N9999999N1+01801+01471101711ADDMD1310061+9999OA159900501OA249900701REMSYN183BBXX  44007 23201 99435 70701 46/// /1805 10180 20147 40171 53006 91950 22200 00167 10801 70005 333 91205 555 11051 22058 31905 41807 61949 183044 178040 177043 180052 182057 180048 ;
0231992780999992000080114004+43530-070070FM-18+0003DB27 V0200801N004019999999N9999999N1+01601+01521102121ADDMD1810081+9999OA159900401OA249900501REMSYN183BBXX  44007 01141 99435 70701 46/// /0804 10160 20152 40212 58008 91350 22200 00157 10801 70006 333 91204 555 11041 22045 31324 40905 61349 085037 090040 089039 081035 079038 074034 ;
0231992780999992000081011004+43530-070070FM-18+0003DB27 V0202501N003019999999N9999999N1+01881+01661100631ADDMD1310071+9999OA159900401OA249900501REMSYN183BBXX  44007 10111 99435 70701 46/// /2503 10188 20166 40063 53007 91050 22200 00164 10602 70009 333 91204 555 11040 22048 31024 42905 61049 249033 271032 281043 270032 260030 278031 ;
0220992780999992000081302004+43530-070070FM-18+0003DB27 V0203201N002019999999N9999999N1+01731+01421101601ADDMD1410001+9999OA159900301REMSYN183BBXX  44007 13021 99435 70701 46/// /3202 10173 20142 40160 54000 90150 22200 00173 11403 70016 333 91203 555 11022 22023 30109 43303 60149 321021 325019 342013 328019 334022 353023 ;
0231992780999992000081420004+43530-070070FM-18+0003DB27 V0200501N009019999999N9999999N1+01601+01541101541ADDMD1810051+9999OA159901101OA249901101REMSYN183BBXX  44007 14201 99435 70701 46/// /0509 10160 20154 40154 58005 91950 22200 00165 11003 70013 333 91211 555 11091 22096 31947 40511 61949 050085 052083 048085 051088 050087 050080 ;
0231992780999992000081719004+43530-070070FM-18+0003DB27 V0203101N003019999999N9999999N1+01911+01191101051ADDMD1410001+9999OA159900401OA249900601REMSYN183BBXX  44007 17191 99435 70701 46/// /3103 10191 20119 40105 54000 91850 22200 00167 10701 70007 333 91204 555 11038 22045 31814 42906 61849 308030 298025 308037 299040 297038 306046 ;
0231992780999992000082106004+43530-070070FM-18+0003DB27 V0202701N005019999999N9999999N1+01411+00971101951ADDMD1410001+9999OA159900601OA249900701REMSYN183BBXX  44007 21061 99435 70701 46/// /2705 10141 20097 40195 54000 90550 22200 00165 11101 70006 333 91206 555 11055 22057 30510 42807 60549 267051 267049 271053 275056 276055 274052 ;
0231992780999992000082107004+43530-070070FM-18+0003DB27 V0202701N007019999999N9999999N1+01401+01051101941ADDMD1710031+9999OA159900801OA249900801REMSYN183BBXX  44007 21071 99435 70701 46/// /2707 10140 20105 40194 57003 90650 22200 00165 11101 70006 333 91208 555 11068 22071 30622 42808 60649 274063 279067 281066 276065 277066 275059 ;
0220992780999992000082811004+43530-070070FM-18+0003DB27 V0203501N002019999999N9999999N1+01591+01401101901ADDMD1310241+9999OA159900201REMSYN183BBXX  44007 28111 99435 70701 46/// /3502 10159 20140 40190 53024 91050 22200 00150 10701 70004 333 91202 555 11022 22026 30953 40103 61049 346016 334013 331016 356016 012023 008027 ;
0220992780999992000090303004+43530-070070FM-18+0003DB27 V0200601N003019999999N9999999N1+01561+01401101431ADDMD1810041+9999OA159900301REMSYN183BBXX  44007 03031 99435 70701 46/// /0603 10156 20140 40143 58004 90250 22200 00167 10502 70009 333 91203 555 11027 22028 30155 40604 60249 064026 058026 042031 053030 054032 059037 ;
0231992780999992000090409004+43530-070070FM-18+0003DB27 V0203301N004019999999N9999999N1+01671+01671100811ADDMD1610161+9999OA159900501OA249900501REMSYN183BBXX  44007 04091 99435 70701 46/// /3304 10167 20167 40081 56016 90850 22200 00173 10701 70005 333 91205 555 11039 22040 30843 43205 60849 331037 316032 005014 109012 104013 103017 ;
0231992780999992000090909004+43530-070070FM-18+0003DB27 V0202701N004019999999N9999999N1+01781+01501101441ADDMD1210041+9999OA159900501OA249900701REMSYN183BBXX  44007 09091 99435 70701 46/// /2704 10178 20150 40144 52004 90850 22200 00152 10802 70008 333 91205 555 11049 22058 30810 42707 60849 270042 260041 273048 275052 269040 266029 ;
0231992780999992000091220004+43530-070070FM-18+0003DB27 V0201701N007019999999N9999999N1+01801+01641101241ADDMD1810281+9999OA159900801OA249900901REMSYN183BBXX  44007 12201 99435 70701 46/// /1707 10180 20164 40124 58028 91950 22200 00160 10502 70009 333 91208 555 11074 22084 31929 41609 61949 166067 166072 166073 159062 147058 154061 ;
0231992780999992000091223004+43530-070070FM-18+0003DB27 V0201701N007019999999N9999999N1+01801+01641101031ADDMD1710211+9999OA159900901OA249900901REMSYN183BBXX  44007 12231 99435 70701 46/// /1707 10180 20164 40103 57021 92250 22200 00163 10502 70010 333 91209 555 11079 22088 32249 41709 62249 168072 169073 172071 170073 170074 169071 ;
0231992780999992000091505004+43530-070070FM-18+0003DB27 V0201701N004019999999N9999999N1+01671+01511101061ADDMD1810131+9999OA159900401OA249900601REMSYN183BBXX  44007 15051 99435 70701 46/// /1704 10167 20151 40106 58013 90450 22200 00159 10702 70008 333 91204 555 11039 22045 30355 41606 60449 167035 163039 164038 167039 169043 165050 ;
0231992780999992000092116004+43530-070070FM-18+0003DB27 V0202401N006019999999N9999999N1+01771+01531100021ADDMD1310041+9999OA159900701OA249900801REMSYN183BBXX  44007 21161 99435 70701 46/// /2406 10177 20153 40002 53004 91550 22200 00142 10402 70010 333 91207 555 11065 22076 31503 42108 61549 239056 219057 208056 208056 204067 199067 ;
0231992780999992000093006004+43530-070070FM-18+0003DB27 V0202301N007019999999N9999999N1+00941+00501102761ADDMD1810071+9999OA159900801OA249900801REMSYN183BBXX  44007 30061 99435 70701 46/// /2307 10094 20050 40276 58007 90550 22200 00126 11302 70008 333 91208 555 11073 22076 30531 42308 60549 233068 235067 236066 239065 237065 238064 ;
0220992780999992000100213004+43530-070070FM-18+0003DB27 V0202701N001019999999N9999999N1+01211+01151101741ADDMD1410001+9999OA159900201REMSYN183BBXX  44007 02131 99435 70701 46/// /2701 10121 20115 40174 54000 91250 22200 00128 11102 70008 333 91202 555 11008 22008 31152 41904 61249 279009 313024 290019 234024 221027 202033 ;
0231992780999992000100604004+43530-070070FM-18+0003DB27 V0200901N007019999999N9999999N1+01101+00931101741ADDMD1510051+9999OA159900801OA249900901REMSYN183BBXX  44007 06041 99435 70701 46/// /0907 10110 20093 40174 55005 90350 22200 00128 10402 70008 333 91208 555 11070 22073 30301 40909 60349 094065 095057 093061 099070 093073 090072 ;
0231992780999992000101419004+43530-070070FM-18+0003DB27 V0201901N007019999999N9999999N1+01491+01041101061ADDMD1610281+9999OA159900801OA249901001REMSYN183BBXX  44007 14191 99435 70701 46/// /1907 10149 20104 40106 56028 91850 22200 00121 10401 70005 333 91208 555 11075 22086 31754 42010 61849 190069 195078 193072 188059 188070 196083 ;
0231992780999992000103003004+43530-070070FM-18+0003DB27 V0203301N010019999999N9999999N1+00281-00161101111ADDMD1710051+9999OA159901401OA249901401REMSYN183BBXX  44007 30031 99435 70701 46/// /3310 10028 21016 40111 57005 90250 22200 00098 10402 70008 333 91214 555 11103 22108 30222 43114 60249 327098 328104 325109 326106 327108 327107 ;
0243992780999992000110303004+43530-070070FM-18+0003DB27 V0203501N008019999999N9999999N1+01211+00411101651ADDMD1210081+9999OA159900901OA249901001REMSYN195BBXX  44007 03031 99435 70701 46/// /3508 10121 20041 40165 52008 90250 22200 00098 10802 20601 40801 70009 333 91209 555 11084 22094 30206 43410 60249 349075 347076 344081 343082 343082 343076 ;
0237992780999992000111407004+43530-070070FM-18+0003DB27 V0201401N004019999999N9999999N1+00891+00591101581ADDMD1010001+9999OA159900501OA249900501REMSYN189BBXX  44007 14071 99435 70701 46/// /1404 10089 20059 40158 50000 90650 22200 00098 11301 41301 70005 333 91205 555 11036 22038 30645 41405 60649 142034 155030 157026 168030 166032 176037 ;
0231992780999992000112416004+43530-070070FM-18+0003DB27 V0203001N004019999999N9999999N1-00471-01261102701ADDMD1210041+9999OA159900601OA249900801REMSYN183BBXX  44007 24161 99435 70701 46/// /3004 11047 21126 40270 52004 91550 22200 00087 10301 70004 333 91206 555 11040 22041 31507 43308 61549 303040 316046 323052 333053 331059 334061 ;
0220992780999992000112612004+43530-070070FM-18+0003DB27 V0200101N002019999999N9999999N1+00271-00391102491ADDMD1610191+9999OA159900301REMSYN183BBXX  44007 26121 99435 70701 46/// /0102 10027 21039 40249 56019 91150 22200 00079 10401 70004 333 91203 555 11021 22022 31139 43603 61149 004019 006020 357019 352021 003020 003024 ;
0220992780999992000112718004+43530-070070FM-18+0003DB27 V0202501N003019999999N9999999N1+00671+00431099811ADDMD1710131+9999OA159900401REMSYN183BBXX  44007 27181 99435 70701 46/// /2503 10067 20043 49981 57013 91750 22200 00082 11004 70020 333 91204 555 11031 22032 31749 42504 61749 253028 250020 257019 262022 261025 271029 ;
0231992780999992000112903004+43530-070070FM-18+0003DB27 V0201501N003019999999N9999999N1+00711+00271101351ADDMD1410001+9999OA159900401OA249900501REMSYN183BBXX  44007 29031 99435 70701 46/// /1503 10071 20027 40135 54000 90250 22200 00082 11001 70007 333 91204 555 11030 22031 30237 41805 60249 162030 182036 168038 168035 167034 163033 ;
0231992780999992000112904004+43530-070070FM-18+0003DB27 V0201801N004019999999N9999999N1+00681+00391101341ADDMD1410001+9999OA159900501OA249900601REMSYN183BBXX  44007 29041 99435 70701 46/// /1804 10068 20039 40134 54000 90350 22200 00082 11001 70007 333 91205 555 11042 22043 30338 41806 60349 176040 175043 183035 165036 161037 157030 ;
0231992780999992000120522004+43530-070070FM-18+0003DB27 V0202001N012019999999N9999999N1+00821-00121100551ADDMD1810231+9999OA159901401OA249901501REMSYN183BBXX  44007 05221 99435 70701 46/// /2012 10082 21012 40055 58023 92150 22200 00074 10603 70017 333 91214 555 11132 22142 32139 41915 62149 197122 198115 198112 196105 194095 192100 ;
0231992780999992000121413004+43530-070070FM-18+0003DB27 V0200301N008019999999N9999999N1-00181-00261102861ADDMD1610441+9999OA159900901OA249901101REMSYN183BBXX  44007 14131 99435 70701 46/// /0308 11018 21026 40286 56044 91250 22200 00082 10902 70008 333 91209 555 11082 22085 31159 40111 61249 030078 026084 018088 014087 008090 003087 ;
0231992780999992000121802004+43530-070070FM-18+0003DB27 V0201501N015019999999N9999999N1+01201+01131098401ADDMD1810991+9999OA159901801OA249902201REMSYN183BBXX  44007 18021 99435 70701 46/// /1515 10120 20113 49840 58099 90150 22200 00079 10908 70039 333 91218 555 11161 22176 30124 41522 60149 149145 154165 150175 144160 140131 142107 ;
0231992780999992000121812004+43530-070070FM-18+0003DB27 V0202401N016019999999N9999999N1+00351-00401099371ADDMD1110481+9999OA159902001OA249902101REMSYN183BBXX  44007 18121 99435 70701 46/// /2416 10035 21040 49937 51048 91150 22200 00071 11108 70039 333 91220 555 11169 22179 31124 42521 61149 241159 243167 242164 242166 243164 244159 ;
0231992780999992000122018004+43530-070070FM-18+0003DB27 V0202701N013019999999N9999999N1-00041-00521099631ADDMD1310361+9999OA159901701OA249901701REMSYN183BBXX  44007 20181 99435 70701 46/// /2713 11004 21052 49963 53036 91750 22200 00071 10402 70010 333 91217 555 11142 22150 31749 42917 61749 274133 273125 275120 277114 280106 275102 ;
0231992780999992000122307004+43530-070070FM-18+0003DB27 V0203001N008019999999N9999999N1-00381-00991101411ADDMD1310311+9999OA159900901OA249901201REMSYN183BBXX  44007 23071 99435 70701 46/// /3008 11038 21099 40141 53031 90650 22200 00056 10901 70005 333 91209 555 11082 22085 30634 43012 60649 296080 293094 292092 298084 296082 298089 ;
0231992780999992000123015004+43530-070070FM-18+0003DB27 V0200201N008019999999N9999999N1+00021-00351101361ADDMD1010001+9999OA159900901OA249901001REMSYN183BBXX  44007 30151 99435 70701 46/// /0208 10002 21035 40136 50000 91450 22200 00059 10301 70006 333 91209 555 11080 22083 31434 40310 61449 016077 026083 022072 021075 018080 017076 ;
0231992780999992000123106004+43530-070070FM-18+0003DB27 V0201801N010019999999N9999999N1+00481+00151098891ADDMD1610401+9999OA159901201OA249901201REMSYN183BBXX  44007 31061 99435 70701 46/// /1810 10048 20015 49889 56040 90550 22200 00057 11009 70045 333 91212 555 11101 22107 30531 42112 60549 182096 186101 192094 193084 194082 193073 ;
0231992790999992000010308004+40500-069470FM-18+0003DB27 V0201901N007019999999N9999999N1+01171+00951101811ADDMD1610081+9999OA159900901OA249900901REMSYN183BBXX  44008 03081 99405 70694 46/// /1907 10117 20095 40181 56008 90750 22200 00084 10703 70015 333 91209 555 11083 22095 30743 42009 60749 194074 198076 198071 198068 196065 199060 ;
0231992790999992000010709004+40500-069470FM-18+0003DB27 V0201701N005019999999N9999999N1+01021+00721102591ADDMD1810251+9999OA159900601OA249900901REMSYN183BBXX  44008 07091 99405 70694 46/// /1705 10102 20072 40259 58025 90850 22200 00078 10603 70017 333 91206 555 11058 22068 30758 41709 60849 167051 175054 172062 176068 175073 175065 ;
0231992790999992000011015004+40500-069470FM-18+0003DB27 V0200901N007019999999N9999999N1+00861+00561101641ADDMD1810031+9999OA159900801OA249900801REMSYN183BBXX  44008 10151 99405 70694 46/// /0907 10086 20056 40164 58003 91450 22200 00070 11102 70010 333 91208 555 11079 22088 31443 40908 61449 086072 092066 087066 085065 084061 085058 ;
0231992790999992000012200004+40500-069470FM-18+0003DB27 V0202901N016019999999N9999999N1-00531-00671099661ADDMD1310251+9999OA159902101OA249902101REMSYN183BBXX  44008 22001 99405 70694 46/// /2916 11053 21067 49966 53025 92350 22200 00060 11111 70056 333 91221 555 11175 22184 32315 42921 62349 293163 295155 294161 289160 289157 288158 ;
0231992790999992000012411004+40500-069470FM-18+0003DB27 V0200101N012019999999N9999999N1+00361+00161101391ADDMD1110121+9999OA159901401OA249901401REMSYN183BBXX  44008 24111 99405 70694 46/// /0112 10036 20016 40139 51012 91050 22200 00048 10606 70028 333 91214 555 11123 22130 31022 40114 61049 012115 012114 012119 008113 006109 010106 ;
0211992790999992000012717004+40500-069470FM-18+0003DB27 V0202801N009019999999N9999999N1-00261-00691100911ADDOA159901201OA249901201REMSYN177BBXX  44008 27171 99405 70694 46/// /2809 11026 21069 40091 91650 22200 00054 10604 70022 333 91212 555 11098 22102 31554 42812 61649 279093 274094 278092 277098 281099 282101 ;
0231992790999992000020208004+40500-069470FM-18+0003DB27 V0202901N012019999999N9999999N1+00171-00481100531ADDMD1610031+9999OA159901501OA249901601REMSYN183BBXX  44008 02081 99405 70694 46/// /2912 10017 21048 40053 56003 90750 22200 00044 10805 70027 333 91215 555 11129 22136 30703 42916 60749 288120 286116 288121 283116 282126 282124 ;
0231992790999992000020221004+40500-069470FM-18+0003DB27 V0202901N014019999999N9999999N1-00191-00761100801ADDMD1210081+9999OA159901801OA249901801REMSYN183BBXX  44008 02211 99405 70694 46/// /2914 11019 21076 40080 52008 92050 22200 00039 10908 70040 333 91218 555 11148 22156 32006 42818 62049 292139 289134 294135 290140 283144 283138 ;
0231992790999992000020407004+40500-069470FM-18+0003DB27 V0200801N007019999999N9999999N1+00131-00181100951ADDMD1610181+9999OA159900901OA249900901REMSYN183BBXX  44008 04071 99405 70694 46/// /0807 10013 21018 40095 56018 90650 22200 00039 10702 70009 333 91209 555 11073 22076 30638 40809 60649 081069 079071 073071 079069 078070 074070 ;
0231992790999992000020418004+40500-069470FM-18+0003DB27 V0203601N006019999999N9999999N1+00241-00061100871ADDMD1110071+9999OA159900701OA249900701REMSYN183BBXX  44008 04181 99405 70694 46/// /3606 10024 21006 40087 51007 91750 22200 00037 10803 70014 333 91207 555 11062 22065 31713 43607 61749 000058 000055 348058 350060 349058 350055 ;
0220992790999992000020506004+40500-069470FM-18+0003DB27 V0203001N003019999999N9999999N1+00171-00121101111ADDMD1610061+9999OA159900401REMSYN183BBXX  44008 05061 99405 70694 46/// /3003 10017 21012 40111 56006 90550 22200 00039 10803 70013 333 91204 555 11031 22032 30516 43104 60549 304029 309028 304031 297029 284021 278020 ;
0220992790999992000020507004+40500-069470FM-18+0003DB27 V0203001N003019999999N9999999N1+00171-00131101101ADDMD1410001+9999OA159900301REMSYN183BBXX  44008 05071 99405 70694 46/// /3003 10017 21013 40110 54000 90650 22200 00036 10803 70013 333 91203 555 11028 22029 30608 43004 60649 298027 309027 315028 311034 309029 309029 ;
0208992790999992000021111004+40500-069470FM-18+0003DB27 V0209999C000019999999N9999999N1+00421+00311101101ADDMD1010001+9999OA159900001REMSYN171BBXX  44008 11111 99405 70694 46/// /0000 10042 20031 40110 50000 91050 22200 00029 10703 70017 333 91200 555 31000 41800 61049 180000 180000 180000 180000 180000 180000 ;
0143992790999992000021214004+40500-069470FM-18+0003DB27 V02099999999999999999N9999999N1-00151-00801102291ADDMD1110351+9999SA1+0299UA1I070259999REMSYN096BBXX  44008 12141 99405 70694 46/// ///// 11015 21080 40229 51035 91350 22200 00029 10705 70024;
0143992790999992000021314004+40500-069470FM-18+0003DB27 V02099999999999999999N9999999N1+00171-00451102631ADDMD1310211+9999SA1+0299UA1I090159999REMSYN096BBXX  44008 13141 99405 70694 46/// ///// 10017 21045 40263 53021 91350 22200 00029 10903 70014;
0143992790999992000021719004+40500-069470FM-18+0003DB27 V02099999999999999999N9999999N1-00221-01031103031ADDMD1210211+9999SA1+0439UA1I080259999REMSYN096BBXX  44008 17191 99405 70694 46/// ///// 11022 21103 40303 52021 91850 22200 00043 10805 70027;
0143992790999992000022102004+40500-069470FM-18+0003DB27 V02099999999999999999N9999999N1+00271-00381102101ADDMD1110161+9999SA1+0599UA1I060209999REMSYN096BBXX  44008 21021 99405 70694 46/// ///// 10027 21038 40210 51016 90150 22200 00059 10604 70022;
0143992790999992000022316004+40500-069470FM-18+0003DB27 V02099999999999999999N9999999N1+00741+00381103491ADDMD1710111+9999SA1+0539UA1I090059999REMSYN096BBXX  44008 23161 99405 70694 46/// ///// 10074 20038 40349 57011 91550 22200 00053 10901 70006;
0143992790999992000022901004+40500-069470FM-18+0003DB27 V02099999999999999999N9999999N1+00631+00191101241ADDMD1110151+9999SA1+0599UA1I090259999REMSYN096BBXX  44008 29011 99405 70694 46/// ///// 10063 20019 40124 51015 90050 22200 00059 10905 70024;
0231992790999992000031104004+40500-069470FM-18+0003DB27 V0200701N005019999999N9999999N1+00341-00051102421ADDMD1110151+9999OA159900601OA249900701REMSYN183BBXX  44008 11041 99405 70694 46/// /0705 10034 21005 40242 51015 90350 22200 00052 10904 70021 333 91206 555 11051 22053 30340 40607 60349 068049 068051 071050 059044 059048 052045 ;
0231992790999992000031301004+40500-069470FM-18+0003DB27 V0203001N008019999999N9999999N1+00581+00471100471ADDMD1310451+9999OA159901101OA249901301REMSYN183BBXX  44008 13011 99405 70694 46/// /3008 10058 20047 40047 53045 90050 22200 00052 11007 70037 333 91211 555 11086 22093 32354 42713 60049 293082 284086 285094 280099 270091 273096 ;
0220992790999992000031510004+40500-069470FM-18+0003DB27 V0201101N002019999999N9999999N1+00611+00331102661ADDMD1510001+9999OA159900301REMSYN183BBXX  44008 15101 99405 70694 46/// /1102 10061 20033 40266 55000 90950 22200 00055 10502 70009 333 91203 555 11026 22031 30924 41303 60949 110024 120024 128026 122022 117022 107017 ;
0231992790999992000031607004+40500-069470FM-18+0003DB27 V0201701N008019999999N9999999N1+00901+00651102351ADDMD1810221+9999OA159900801OA249900901REMSYN183BBXX  44008 16071 99405 70694 46/// /1708 10090 20065 40235 58022 90650 22200 00055 10502 70011 333 91208 555 11084 22096 30614 41709 60649 168075 167074 167075 167077 166071 164066 ;
0231992790999992000031801004+40500-069470FM-18+0003DB27 V0203601N016019999999N9999999N1+00121-00161101531ADDMD1310511+9999OA159902101OA249902201REMSYN183BBXX  44008 18011 99405 70694 46/// /3616 10012 21016 40153 53051 90050 22200 00055 11312 70061 333 91221 555 11167 22177 30034 43522 60049 356155 357163 356164 357166 354156 354160 ;
0231992790999992000031911004+40500-069470FM-18+0003DB27 V0200301N011019999999N9999999N1+00171-00311103281ADDMD1010001+9999OA159901301OA249901401REMSYN183BBXX  44008 19111 99405 70694 46/// /0311 10017 21031 40328 50000 91050 22200 00055 11106 70030 333 91213 555 11113 22119 31028 40414 61049 028107 028108 032110 028106 028100 029096 ;
0231992790999992000032119004+40500-069470FM-18+0003DB27 V0200401N010019999999N9999999N1+00471+00331102931ADDMD1710051+9999OA159901201OA249901201REMSYN183BBXX  44008 21191 99405 70694 46/// /0410 10047 20033 40293 57005 91850 22200 00052 11007 70033 333 91212 555 11106 22112 31831 40412 61849 041098 041099 041093 045095 045092 044090 ;
0231992790999992000032613004+40500-069470FM-18+0003DB27 V0202301N004019999999N9999999N1+00751+00651100461ADDMD1610071+9999OA159900501OA249900601REMSYN183BBXX  44008 26131 99405 70694 46/// /2304 10075 20065 40046 56007 91250 22200 00059 10704 70021 333 91205 555 11043 22050 31200 42306 61249 231037 224038 224038 228043 235045 236048 ;
0231992790999992000040501004+40500-069470FM-18+0003DB27 V0201801N008019999999N9999999N1+01061+00921100081ADDMD1210081+9999OA159901001OA249901101REMSYN183BBXX  44008 05011 99405 70694 46/// /1808 10106 20092 40008 52008 90050 22200 00067 10907 70035 333 91210 555 11092 22104 32354 42011 60049 184082 190081 199086 197088 196090 195095 ;
0231992790999992000040810004+40500-069470FM-18+0003DB27 V0201301N009019999999N9999999N1+00981+00791101331ADDMD1810171+9999OA159901001OA249901101REMSYN183BBXX  44008 08101 99405 70694 46/// /1309 10098 20079 40133 58017 90950 22200 00067 10803 70017 333 91210 555 11094 22106 30900 41311 60949 134085 133090 136087 136091 135092 135097 ;
0231992790999992000041015004+40500-069470FM-18+0003DB27 V0202701N010019999999N9999999N1+00631-00011101671ADDMD1310171+9999OA159901301OA249901401REMSYN183BBXX  44008 10151 99405 70694 46/// /2710 10063 21001 40167 53017 91450 22200 00067 11008 70039 333 91213 555 11111 22118 31434 42614 61449 266105 261111 261106 261107 261102 263106 ;
0231992790999992000041101004+40500-069470FM-18+0003DB27 V0202601N009019999999N9999999N1+00751+00171102361ADDMD1310391+9999OA159901101OA249901301REMSYN183BBXX  44008 11011 99405 70694 46/// /2609 10075 20017 40236 53039 90050 22200 00071 10805 70025 333 91211 555 11101 22108 30022 42613 60049 264093 266095 267103 264102 261097 261101 ;
0231992790999992000041316004+40500-069470FM-18+0003DB27 V0203201N005019999999N9999999N1+00391-00651103301ADDMD1210061+9999OA159900701OA249900801REMSYN183BBXX  44008 13161 99405 70694 46/// /3205 10039 21065 40330 52006 91550 22200 00067 10603 70017 333 91207 555 11053 22055 31521 43208 61549 324052 331057 329062 323058 327058 320054 ;
0220992790999992000050118004+40500-069470FM-18+0003DB27 V0201901N003019999999N9999999N1+00941+00421102071ADDMD1810121+9999OA159900401REMSYN183BBXX  44008 01181 99405 70694 46/// /1903 10094 20042 40207 58012 91750 22200 00086 10702 70008 333 91204 555 11035 22041 31742 41904 61749 188030 190027 196023 199025 200026 195025 ;
0231992790999992000050200004+40500-069470FM-18+0003DB27 V0201801N007019999999N9999999N1+00971+00641101581ADDMD1610171+9999OA159900801OA249900801REMSYN183BBXX  44008 02001 99405 70694 46/// /1807 10097 20064 40158 56017 92350 22200 00082 10801 70007 333 91208 555 11073 22081 32347 41808 62349 178065 175062 173062 176066 176063 178064 ;
0220992790999992000050321004+40500-069470FM-18+0003DB27 V0200901N003019999999N9999999N1+00871+00531102811ADDMD1510001+9999OA159900401REMSYN183BBXX  44008 03211 99405 70694 46/// /0903 10087 20053 40281 55000 92050 22200 00082 10802 70010 333 91204 555 11035 22040 31952 41104 62049 093031 092029 093028 095027 098031 101031 ;
0231992790999992000050507004+40500-069470FM-18+0003DB27 V0201901N005019999999N9999999N1+00981+00711102261ADDMD1810171+9999OA159900701OA249900701REMSYN183BBXX  44008 05071 99405 70694 46/// /1905 10098 20071 40226 58017 90650 22200 00087 10802 70008 333 91207 555 11058 22066 30644 41907 60649 193053 190055 185050 187050 186048 184047 ;
0231992790999992000050803004+40500-069470FM-18+0003DB27 V0202301N007019999999N9999999N1+01291+01091100971ADDMD1010001+9999OA159900801OA249900901REMSYN183BBXX  44008 08031 99405 70694 46/// /2307 10129 20109 40097 50000 90250 22200 00083 10302 70008 333 91208 555 11084 22097 30241 42309 60249 231074 230074 231071 231069 232071 232067 ;
0231992790999992000050904004+40500-069470FM-18+0003DB27 V0201501N005019999999N9999999N1+01191+01081101041ADDMD1810051+9999OA159900601OA249900601REMSYN183BBXX  44008 09041 99405 70694 46/// /1505 10119 20108 40104 58005 90350 22200 00087 10502 70008 333 91206 555 11056 22067 30311 41606 60349 153046 151044 158051 163059 164053 169051 ;
0231992790999992000051309004+40500-069470FM-18+0003DB27 V0201001N010019999999N9999999N1+01101+01001100871ADDMD1810101+9999OA159901101OA249901101REMSYN183BBXX  44008 13091 99405 70694 46/// /1010 10110 20100 40087 58010 90850 22200 00090 10302 70008 333 91211 555 11105 22115 30849 41011 60849 100096 099088 097088 099084 101082 108086 ;
0231992790999992000051418004+40500-069470FM-18+0003DB27 V0203001N004019999999N9999999N1+00971+00921101121ADDMD1710031+9999OA159900501OA249900701REMSYN183BBXX  44008 14181 99405 70694 46/// /3004 10097 20092 40112 57003 91750 22200 00095 10602 70008 333 91205 555 11038 22041 31702 43107 61749 299034 294041 293033 297044 303055 307052 ;
0220992790999992000051618004+40500-069470FM-18+0003DB27 V0202901N002019999999N9999999N1+00971+00611102101ADDMD1610081+9999OA159900301REMSYN183BBXX  44008 16181 99405 70694 46/// /2902 10097 20061 40210 56008 91750 22200 00089 11101 70006 333 91203 555 11020 22024 31711 42904 61749 284018 285023 286025 286035 288033 289032 ;
0231992790999992000051719004+40500-069470FM-18+0003DB27 V0202001N004019999999N9999999N1+01211+00951102281ADDMD1810061+9999OA159900501OA249900601REMSYN183BBXX  44008 17191 99405 70694 46/// /2004 10121 20095 40228 58006 91850 22200 00097 11101 70005 333 91205 555 11051 22060 31805 41906 61849 196044 197048 197049 195045 196046 196044 ;
0231992790999992000052204004+40500-069470FM-18+0003DB27 V0200401N005019999999N9999999N1+00861+00781101631ADDMD1210051+9999OA159900501OA249900601REMSYN183BBXX  44008 22041 99405 70694 46/// /0405 10086 20078 40163 52005 90350 22200 00087 10802 70012 333 91205 555 11048 22050 30257 40406 60349 035045 037044 035042 038041 036044 031050 ;
0231992790999992000052801004+40500-069470FM-18+0003DB27 V0202401N005019999999N9999999N1+01101+00911100961ADDMD1810061+9999OA159900601OA249900701REMSYN183BBXX  44008 28011 99405 70694 46/// /2405 10110 20091 40096 58006 90050 22200 00090 10802 70009 333 91206 555 11054 22063 30025 42307 60049 239046 235048 236053 236053 233052 232046 ;
0231992790999992000060222004+40500-069470FM-18+0003DB27 V0202101N007019999999N9999999N1+01441+01371101031ADDMD1810241+9999OA159900801OA249900801REMSYN183BBXX  44008 02221 99405 70694 46/// /2107 10144 20137 40103 58024 92150 22200 00102 10802 70009 333 91208 555 11076 22089 32137 42108 62149 206067 207066 204062 203058 206059 203054 ;
0231992790999992000061011004+40500-069470FM-18+0003DB27 V0202401N008019999999N9999999N1+01331+01151101751ADDMD1210031+9999OA159900901OA249900901REMSYN183BBXX  44008 10111 99405 70694 46/// /2408 10133 20115 40175 52003 91050 22200 00102 10703 70015 333 91209 555 11086 22097 31038 42409 61049 237077 236072 235070 237073 237070 236067 ;
0231992790999992000061512004+40500-069470FM-18+0003DB27 V0201201N004019999999N9999999N1+01251+01161101961ADDMD1710091+9999OA159900401OA249900701REMSYN183BBXX  44008 15121 99405 70694 46/// /1204 10125 20116 40196 57009 91150 22200 00094 10802 70011 333 91204 555 11046 22055 31131 41207 61149 119039 123053 112052 109047 118043 121039 ;
0231992790999992000061904004+40500-069470FM-18+0003DB27 V0202001N004019999999N9999999N1+01481+01461101731ADDMD1010001+9999OA159900401OA249900501REMSYN183BBXX  44008 19041 99405 70694 46/// /2004 10148 20146 40173 50000 90350 22200 00106 10702 70010 333 91204 555 11047 22056 30324 42005 60349 201039 202040 202043 197043 196043 192045 ;
0231992790999992000061921004+40500-069470FM-18+0003DB27 V0200101N003019999999N9999999N1+01141+01121101901ADDMD1210031+9999OA159900401OA249900501REMSYN183BBXX  44008 19211 99405 70694 46/// /0103 10114 20112 40190 52003 92050 22200 00114 10702 70009 333 91204 555 11035 22037 32000 43505 62049 005032 358035 354036 354037 350035 346040 ;
0143992790999992000062904004+40500-069470FM-18+0003DB27 V02099999999999999999N9999999N1+01641+01621101351ADDMD1810131+9999SA1+1569UA1I080109999REMSYN096BBXX  44008 29041 99405 70694 46/// ///// 10164 20162 40135 58013 90350 22200 00156 10802 70010;
0143992790999992000070217004+40500-069470FM-18+0003DB27 V02099999999999999999N9999999N1+01881+01611101811ADDMD1610071+9999SA1+1759UA1I080059999REMSYN096BBXX  44008 02171 99405 70694 46/// ///// 10188 20161 40181 56007 91650 22200 00175 10801 70005;
0143992790999992000070218004+40500-069470FM-18+0003DB27 V02099999999999999999N9999999N1+01891+01611101801ADDMD1610051+9999SA1+1649UA1I080059999REMSYN096BBXX  44008 02181 99405 70694 46/// ///// 10189 20161 40180 56005 91750 22200 00164 10801 70006;
0143992790999992000071415004+40500-069470FM-18+0003DB27 V02099999999999999999N9999999N1+01871+01641101481ADDMD1510001+9999SA1+1679UA1I080059999REMSYN096BBXX  44008 14151 99405 70694 46/// ///// 10187 20164 40148 55000 91450 22200 00167 10801 70006;
0143992790999992000071515004+40500-069470FM-18+0003DB27 V02099999999999999999N9999999N1+01801+01621101241ADDMD1710031+9999SA1+1679UA1I050109999REMSYN096BBXX  44008 15151 99405 70694 46/// ///// 10180 20162 40124 57003 91450 22200 00167 10502 70011;
0143992790999992000071708004+40500-069470FM-18+0003DB27 V02099999999999999999N9999999N1+01681+01661101261ADDMD1210031+9999SA1+1679UA1I080209999REMSYN096BBXX  44008 17081 99405 70694 46/// ///// 10168 20166 40126 52003 90750 22200 00167 10804 70018;
0143992790999992000071819004+40500-069470FM-18+0003DB27 V02099999999999999999N9999999N1+01991+01971101191ADDMD1810101+9999SA1+1889UA1I080159999REMSYN096BBXX  44008 18191 99405 70694 46/// ///// 10199 20197 40119 58010 91850 22200 00188 10803 70013;
0143992790999992000071923004+40500-069470FM-18+0003DB27 V02099999999999999999N9999999N1+01751+01511101401ADDMD1510031+9999SA1+1839UA1I080109999REMSYN096BBXX  44008 19231 99405 70694 46/// ///// 10175 20151 40140 55003 92250 22200 00183 10802 70012;
0143992790999992000072100004+40500-069470FM-18+0003DB27 V02099999999999999999N9999999N1+01441+01371100721ADDMD1310071+9999SA1+1609UA1I040109999REMSYN096BBXX  44008 21001 99405 70694 46/// ///// 10144 20137 40072 53007 92350 22200 00160 10402 70012;
0122992790999992000072220004+40500-069470FM-18+0003DB27 V02099999999999999999N9999999N1+01871+01721101451ADDMD1810121+9999REMSYN096BBXX  44008 22201 99405 70694 46/// ///// 10187 20172 40145 58012 91950 22200 00168 10802 70012;
0143992790999992000072607004+40500-069470FM-18+0003DB27 V02099999999999999999N9999999N1+01601+01581102301ADDMD1210031+9999SA1+1609UA1I060159999REMSYN096BBXX  44008 26071 99405 70694 46/// ///// 10160 20158 40230 52003 90650 22200 00160 10603 70014;
0143992790999992000072618004+40500-069470FM-18+0003DB27 V02099999999999999999N9999999N1+01721+01701102411ADDMD1810081+9999SA1+1649UA1I070109999REMSYN096BBXX  44008 26181 99405 70694 46/// ///// 10172 20170 40241 58008 91750 22200 00164 10702 70012;
0143992790999992000072622004+40500-069470FM-18+0003DB27 V02099999999999999999N9999999N1+01751+01731102351ADDMD1810081+9999SA1+1609UA1I070109999REMSYN096BBXX  44008 26221 99405 70694 46/// ///// 10175 20173 40235 58008 92150 22200 00160 10702 70012;
0143992790999992000072901004+40500-069470FM-18+0003DB27 V02099999999999999999N9999999N1+01591+01571101601ADDMD1310091+9999SA1+1739UA1I060109999REMSYN096BBXX  44008 29011 99405 70694 46/// ///// 10159 20157 40160 53009 90050 22200 00173 10602 70009;
0143992790999992000072923004+40500-069470FM-18+0003DB27 V02099999999999999999N9999999N1+01891+01741101941ADDMD1210031+9999SA1+1809UA1I090109999REMSYN096BBXX  44008 29231 99405 70694 46/// ///// 10189 20174 40194 52003 92250 22200 00180 10902 70011;
0231992790999992000080320004+40500-069470FM-18+0003DB27 V0202001N006019999999N9999999N1+02191+02121101591ADDMD1610141+9999OA159900701OA249900801REMSYN183BBXX  44008 03201 99405 70694 46/// /2006 10219 20212 40159 56014 91950 22200 00191 10602 70012 333 91207 555 11071 22082 31908 42008 61949 201063 204064 205063 205065 204069 199065 ;
0231992790999992000080416004+40500-069470FM-18+0003DB27 V0202201N005019999999N9999999N1+01891+01851101571ADDMD1510001+9999OA159900601OA249900701REMSYN183BBXX  44008 04161 99405 70694 46/// /2205 10189 20185 40157 55000 91550 22200 00147 10703 70015 333 91206 555 11059 22070 31511 42207 61549 220049 213054 210051 214057 219056 217051 ;
0220992790999992000080601004+40500-069470FM-18+0003DB27 V0209999C000019999999N9999999N1+01531+01511101501ADDMD1110081+9999OA159900101REMSYN183BBXX  44008 06011 99405 70694 46/// /0000 10153 20151 40150 51008 90050 22200 00133 10802 70009 333 91201 555 11001 22001 30010 40201 60049 022005 031006 028008 014009 010007 016006 ;
0231992790999992000080815004+40500-069470FM-18+0003DB27 V0201801N005019999999N9999999N1+02041+01951101401ADDMD1010051+9999OA159900501OA249900501REMSYN183BBXX  44008 08151 99405 70694 46/// /1805 10204 20195 40140 50005 91450 22200 00180 10703 70016 333 91205 555 11054 22064 31355 42105 61449 177046 180043 193039 198038 204045 212047 ;
0220992790999992000081021004+40500-069470FM-18+0003DB27 V0202401N003019999999N9999999N1+01961+01941101241ADDMD1310131+9999OA159900401REMSYN183BBXX  44008 10211 99405 70694 46/// /2403 10196 20194 40124 53013 92050 22200 00167 10804 70021 333 91204 555 11036 22043 32030 42604 62049 237029 246032 232031 231033 234030 257030 ;
0231992790999992000081316004+40500-069470FM-18+0003DB27 V0200401N008019999999N9999999N1+01591+01571101211ADDMD1210031+9999OA159901001OA249901101REMSYN183BBXX  44008 13161 99405 70694 46/// /0408 10159 20157 40121 52003 91550 22200 00160 10604 70018 333 91210 555 11088 22093 31517 40411 61549 038083 038087 041089 042090 038090 036083 ;
0231992790999992000081614004+40500-069470FM-18+0003DB27 V0201901N005019999999N9999999N1+02191+02031101351ADDMD1010001+9999OA159900601OA249900601REMSYN183BBXX  44008 16141 99405 70694 46/// /1905 10219 20203 40135 50000 91350 22200 00205 10603 70013 333 91206 555 11058 22066 31328 41806 61349 185052 184053 190053 190052 187051 194051 ;
0231992790999992000081820004+40500-069470FM-18+0003DB27 V0201101N004019999999N9999999N1+02061+01651101481ADDMD1610161+9999OA159900501OA249900501REMSYN183BBXX  44008 18201 99405 70694 46/// /1104 10206 20165 40148 56016 91950 22200 00199 10902 70008 333 91205 555 11047 22053 31925 41205 61949 110043 115041 120043 111042 108042 111039 ;
0231992790999992000081913004+40500-069470FM-18+0003DB27 V0200101N009019999999N9999999N1+01601+01581101161ADDMD1210211+9999OA159901001OA249901001REMSYN183BBXX  44008 19131 99405 70694 46/// /0109 10160 20158 40116 52021 91250 22200 00175 10902 70009 333 91210 555 11093 22098 31237 40110 61249 013087 005085 357080 355078 000067 006053 ;
0231992790999992000082114004+40500-069470FM-18+0003DB27 V0203201N004019999999N9999999N1+01691+01221102411ADDMD1110141+9999OA159900501OA249900601REMSYN183BBXX  44008 21141 99405 70694 46/// /3204 10169 20122 40241 51014 91350 22200 00191 11102 70009 333 91205 555 11043 22044 31255 43206 61349 322041 322043 319042 322043 322048 325051 ;
0220992790999992000082308004+40500-069470FM-18+0003DB27 V0201901N001019999999N9999999N1+01801+01651102541ADDMD1010001+9999OA159900201REMSYN183BBXX  44008 23081 99405 70694 46/// /1901 10180 20165 40254 50000 90750 22200 00172 11302 70008 333 91202 555 11017 22020 30655 42003 60749 190013 196013 196017 213017 178018 195022 ;
0231992790999992000082411004+40500-069470FM-18+0003DB27 V0202001N006019999999N9999999N1+01981+01931101641ADDMD1510031+9999OA159900801OA249901201REMSYN183BBXX  44008 24111 99405 70694 46/// /2006 10198 20193 40164 55003 91050 22200 00167 10704 70019 333 91208 555 11070 22082 31026 41912 61049 201061 208060 195086 194074 192070 190078 ;
0220992790999992000083108004+40500-069470FM-18+0003DB27 V0201501N002019999999N9999999N1+02101+02081102231ADDMD1710031+9999OA159900201REMSYN183BBXX  44008 31081 99405 70694 46/// /1502 10210 20208 40223 57003 90750 22200 00199 10802 70009 333 91202 555 11022 22026 30737 41502 60749 148018 151020 147016 141015 135014 135014 ;
0220992790999992000090202004+40500-069470FM-18+0003DB27 V0201601N002019999999N9999999N1+02351+02331101941ADDMD1210051+9999OA159900201REMSYN183BBXX  44008 02021 99405 70694 46/// /1602 10235 20233 40194 52005 90150 22200 00230 10802 70008 333 91202 555 11020 22024 30137 41602 60149 156017 150015 147012 131009 155010 169012 ;
0220992790999992000090419004+40500-069470FM-18+0003DB27 V0200401N001019999999N9999999N1+02141+02131100731ADDMD1610131+9999OA159900101REMSYN183BBXX  44008 04191 99405 70694 46/// /0401 10214 20213 40073 56013 91850 22200 00220 10602 70009 333 91201 555 11010 22011 31757 41002 61849 051009 093014 103016 113015 116014 098018 ;
0231992790999992000090808004+40500-069470FM-18+0003DB27 V0202201N004019999999N9999999N1+01801+01461102201ADDMD1610071+9999OA159900501OA249900601REMSYN183BBXX  44008 08081 99405 70694 46/// /2204 10180 20146 40220 56007 90750 22200 00184 10802 70009 333 91205 555 11046 22048 30706 42306 60749 220044 221046 219048 216050 215051 214051 ;
0231992790999992000090913004+40500-069470FM-18+0003DB27 V0202501N006019999999N9999999N1+01961+01781101891ADDMD1110091+9999OA159900701OA249900701REMSYN183BBXX  44008 09131 99405 70694 46/// /2506 10196 20178 40189 51009 91250 22200 00183 10603 70013 333 91207 555 11065 22073 31237 42507 61249 245059 244058 242059 240058 242057 243052 ;
0231992790999992000091307004+40500-069470FM-18+0003DB27 V0202001N004019999999N9999999N1+02031+01921101411ADDMD1610161+9999OA159900501OA249900501REMSYN183BBXX  44008 13071 99405 70694 46/// /2004 10203 20192 40141 56016 90650 22200 00191 10702 70010 333 91205 555 11044 22051 30634 41805 60649 196039 186041 187039 184040 182041 182041 ;
0231992790999992000091515004+40500-069470FM-18+0003DB27 V0201601N008019999999N9999999N1+02101+02041100471ADDMD1610191+9999OA159900901OA249900901REMSYN183BBXX  44008 15151 99405 70694 46/// /1608 10210 20204 40047 56019 91450 22200 00184 10902 70010 333 91209 555 11088 22099 31449 41609 61449 164078 164064 165063 170066 167063 167055 ;
0231992790999992000091806004+40500-069470FM-18+0003DB27 V0202401N008019999999N9999999N1+01841+01381101731ADDMD1110071+9999OA159900901OA249901001REMSYN183BBXX  44008 18061 99405 70694 46/// /2408 10184 20138 40173 51007 90550 22200 00180 10704 70018 333 91209 555 11084 22090 30503 42410 60549 236079 239078 241076 241077 242084 241083 ;
0220992790999992000092321004+40500-069470FM-18+0003DB27 V0201501N003019999999N9999999N1+01721+01611101791ADDMD1610151+9999OA159900301REMSYN183BBXX  44008 23211 99405 70694 46/// /1503 10172 20161 40179 56015 92050 22200 00160 11401 70007 333 91203 555 11035 22041 32010 41304 62049 149029 144030 142031 132030 131033 130034 ;
0159992790999992000100307004+40500-069470FM-18+0003DB27 V0203401N010019999999N9999999N1+01561+01481100431ADDMD1310031+9999OA159901301REMSYN122BBXX  44008 03071 99405 70694 46/// /3410 10156 20148 40043 53003 90650 22200 00152 11106 70031 333 91213 555 11112 22120;
0231992790999992000100601004+40500-069470FM-18+0003DB27 V0200901N007019999999N9999999N1+01571+01521101581ADDMD1810071+9999OA159900801OA249901001REMSYN183BBXX  44008 06011 99405 70694 46/// /0907 10157 20152 40158 58007 90050 22200 00157 11002 70010 333 91208 555 11075 22080 30001 40910 60049 088070 084069 084074 085079 085083 083081 ;
0231992790999992000100612004+40500-069470FM-18+0003DB27 V0201801N004019999999N9999999N1+01751+01731101271ADDMD1410001+9999OA159900401OA249900501REMSYN183BBXX  44008 06121 99405 70694 46/// /1804 10175 20173 40127 54000 91150 22200 00157 10602 70009 333 91204 555 11042 22050 31131 41905 61149 183036 186040 188038 188036 186038 184037 ;
0231992790999992000100908004+40500-069470FM-18+0003DB27 V0200301N006019999999N9999999N1+00981+00471101751ADDMD1710111+9999OA159900801OA249900901REMSYN183BBXX  44008 09081 99405 70694 46/// /0306 10098 20047 40175 57011 90750 22200 00151 10802 70011 333 91208 555 11067 22069 30740 40309 60749 032064 035059 028052 013035 356041 350050 ;
0231992790999992000101302004+40500-069470FM-18+0003DB27 V0202201N006019999999N9999999N1+01411+01071102201ADDMD1410001+9999OA159900701OA249900701REMSYN183BBXX  44008 13021 99405 70694 46/// /2206 10141 20107 40220 54000 90150 22200 00141 10601 70007 333 91207 555 11063 22067 30108 42207 60149 222058 221058 224059 224059 221057 221057 ;
0231992790999992000101502004+40500-069470FM-18+0003DB27 V0202201N006019999999N9999999N1+01671+01361101591ADDMD1810071+9999OA159900701OA249900701REMSYN183BBXX  44008 15021 99405 70694 46/// /2206 10167 20136 40159 58007 90150 22200 00148 10901 70006 333 91207 555 11067 22076 30058 42207 60149 224059 225055 222051 221055 226060 218061 ;
0231992790999992000101615004+40500-069470FM-18+0003DB27 V0200601N009019999999N9999999N1+01331+00941102271ADDMD1110101+9999OA159901101OA249901101REMSYN183BBXX  44008 16151 99405 70694 46/// /0609 10133 20094 40227 51010 91450 22200 00136 10704 70018 333 91211 555 11096 22102 31400 40611 61449 061087 062089 062086 061088 066091 063095 ;
0231992790999992000102023004+40500-069470FM-18+0003DB27 V0202601N005019999999N9999999N1+01371+00831102391ADDMD1310031+9999OA159900601OA249900601REMSYN183BBXX  44008 20231 99405 70694 46/// /2605 10137 20083 40239 53003 92250 22200 00144 10702 70010 333 91206 555 11050 22053 32230 42606 62249 260048 261046 260042 262044 258042 257043 ;
0231992790999992000102116004+40500-069470FM-18+0003DB27 V0202201N004019999999N9999999N1+01531+01161102211ADDMD1810071+9999OA159900501OA249900501REMSYN183BBXX  44008 21161 99405 70694 46/// /2204 10153 20116 40221 58007 91550 22200 00145 10902 70008 333 91205 555 11047 22053 31543 42305 61549 222041 225041 224038 223037 225037 228036 ;
0231992790999992000102317004+40500-069470FM-18+0003DB27 V0200201N005019999999N9999999N1+01131+00491103611ADDMD1810041+9999OA159900701OA249900701REMSYN183BBXX  44008 23171 99405 70694 46/// /0205 10113 20049 40361 58004 91650 22200 00141 10603 70014 333 91207 555 11055 22057 31615 40107 61649 024051 029050 021054 019053 023055 014050 ;
0220992790999992000102613004+40500-069470FM-18+0003DB27 V0209999C000019999999N9999999N1+01411+01371102721ADDMD1310071+9999OA159900101REMSYN183BBXX  44008 26131 99405 70694 46/// /0000 10141 20137 40272 53007 91250 22200 00137 10901 70007 333 91201 555 11003 22004 31201 41601 61249 162005 168007 167008 154008 155011 156008 ;
0220992790999992000102616004+40500-069470FM-18+0003DB27 V0209999C000019999999N9999999N1+01591+01451102681ADDMD1810041+9999OA159900101REMSYN183BBXX  44008 26161 99405 70694 46/// /0000 10159 20145 40268 58004 91550 22200 00145 11002 70008 333 91201 555 11005 22005 31528 40401 61549 105005 077005 055005 089005 089005 083005 ;
0243992790999992000110319004+40500-069470FM-18+0003DB27 V0203601N011019999999N9999999N1+01101+00831101401ADDMD1610051+9999OA159901301OA249901301REMSYN195BBXX  44008 03191 99405 70694 46/// /3611 10110 20083 40140 56005 91850 22200 00136 10906 20605 40903 70029 333 91213 555 11115 22121 31837 43513 61849 356109 353112 355105 000107 354107 357107 ;
0243992790999992000110523004+40500-069470FM-18+0003DB27 V0203201N010019999999N9999999N1+00971+00561100511ADDMD1310121+9999OA159901201OA249901201REMSYN195BBXX  44008 05231 99405 70694 46/// /3210 10097 20056 40051 53012 92250 22200 00136 10704 20704 41002 70021 333 91212 555 11106 22111 32228 43112 62249 316100 316096 316100 315096 315092 316091 ;
0237992790999992000110713004+40500-069470FM-18+0003DB27 V0203301N013019999999N9999999N1+00911+00631101191ADDMD1310051+9999OA159901601OA249901601REMSYN189BBXX  44008 07131 99405 70694 46/// /3313 10091 20063 40119 53005 91250 22200 00118 10806 20806 70030 333 91216 555 11137 22144 31243 43316 61249 330127 327127 325124 328121 329120 324124 ;
0232992790999992000111112004+40500-069470FM-18+0003DB27 V0203201N003019999999N9999999N1+01211+00981100171ADDMD1310081+9999OA159900401REMSYN195BBXX  44008 11121 99405 70694 46/// /3203 10121 20098 40017 53008 91150 22200 00121 10904 20401 40904 70020 333 91204 555 11030 22031 31128 43004 61149 315028 305028 294029 295025 304024 307024 ;
0237992790999992000111212004+40500-069470FM-18+0003DB27 V0200101N010019999999N9999999N1+01051+00921101091ADDMD1310151+9999OA159901201OA249901301REMSYN189BBXX  44008 12121 99405 70694 46/// /0110 10105 20092 40109 53015 91150 22200 00126 10805 20805 70024 333 91212 555 11110 22116 31104 43613 61149 010103 005097 010090 011098 006103 007107 ;
0243992790999992000111912004+40500-069470FM-18+0003DB27 V0202801N008019999999N9999999N1+00821+00041101791ADDMD1310171+9999OA159901001OA249901101REMSYN195BBXX  44008 19121 99405 70694 46/// /2808 10082 20004 40179 53017 91150 22200 00114 10503 20502 40901 70013 333 91210 555 11089 22093 31055 42911 61149 280083 276075 282075 280078 282082 282091 ;
0231992790999992000120611004+40500-069470FM-18+0003DB27 V0202901N013019999999N9999999N1+00251-00551101581ADDMD1310281+9999OA159901701OA249901701REMSYN183BBXX  44008 06111 99405 70694 46/// /2913 10025 21055 40158 53028 91050 22200 00097 10807 70033 333 91217 555 11136 22143 31005 42817 61049 293127 290125 294124 289126 289123 288126 ;
0231992790999992000121700004+40500-069470FM-18+0003DB27 V0201201N007019999999N9999999N1+00971+00851102711ADDMD1610141+9999OA159900901OA249900901REMSYN183BBXX  44008 17001 99405 70694 46/// /1207 10097 20085 40271 56014 92350 22200 00075 10603 70014 333 91209 555 11082 22092 32341 41209 62349 123075 126075 122066 116066 109064 115070 ;
0225992790999992000121922004+40500-069470FM-18+0003DB27 V0201101N006019999999N9999999N1+00891+99999101121ADDMD1810231+9999OA159900801OA249900801REMSYN177BBXX  44008 19221 99405 70694 46/// /1106 10089 40112 58023 92150 22200 00075 10903 70016 333 91208 555 11069 22077 32132 41108 62149 110062 107063 105061 105058 102056 096054 ;
0225992790999992000122913004+40500-069470FM-18+0003DB27 V0203301N008019999999N9999999N1+00161+99999101031ADDMD1210081+9999OA159900901OA249900901REMSYN177BBXX  44008 29131 99405 70694 46/// /3308 10016 40103 52008 91250 22200 00060 10804 70018 333 91209 555 11080 22083 31234 43409 61249 329074 327063 325056 326056 333060 342061 ;
0205992820999992000010219004+57100-177700FM-18+0003DB28 V0200401N012019999999N9999999N1-00581+99999102291ADDOA159901501OA249901701REMSYN171BBXX  46035 02191 99569 71778 46/// /0412 11058 40229 91850 22200 00016 11110 70051 333 91215 555 11120 22126 31831 40417 61849 044120 041131 040126 046128 044130 048123 ;
0225992820999992000010512004+57100-177700FM-18+0003DB28 V0200201N010019999999N9999999N1-00731+99999102161ADDMD1410001+9999OA159901301OA249901401REMSYN177BBXX  46035 05121 99569 71778 46/// /0210 11073 40216 54000 91150 22200 00016 10704 70021 333 91213 555 11100 22104 31134 40214 61149 024101 013108 005105 006109 013114 006111 ;
0205992820999992000010704004+57100-177700FM-18+0003DB28 V0203601N012019999999N9999999N1-00751+99999101711ADDOA159901501OA249901901REMSYN171BBXX  46035 07041 99569 71778 46/// /3612 11075 40171 90350 22200 00016 10907 70035 333 91215 555 11118 22123 30307 43419 60349 357118 345118 346143 345123 338146 357114 ;
0229992820999992000011812004+57100-177700FM-18+000399999V0201901N011019999999N9999999N1+00321+99999099291ADDMD1710081+9999OA159901401OA249901501REMSYN181    BBXX  46035 18121 99569 71778 46/// /1911 10032 49929 57008 91150 22200 00016 10907 70034 333 91214 555 11109 22119 31116 41915 61149 186109 186112 190114 190121 184117 186114 ;
0225992820999992000012023004+57100-177700FM-18+0003DB28 V0201501N014019999999N9999999N1+00121+99999097391ADDMD1710581+9999OA159901601OA249901901REMSYN177BBXX  46035 20231 99569 71778 46/// /1514 10012 49739 57058 92250 22200 00015 11111 70053 333 91216 555 11135 22144 32156 41319 62249 150135 145137 140137 136140 138144 136153 ;
0225992820999992000012615004+57100-177700FM-18+0003DB28 V0203501N011019999999N9999999N1-00591+99999097901ADDMD1210061+9999OA159901301OA249901401REMSYN177BBXX  46035 26151 99569 71778 46/// /3511 11059 49790 52006 91450 22200 00013 11105 70025 333 91213 555 11106 22111 31406 43514 61449 350108 346110 349110 347110 345120 347110 ;
0225992820999992000022219004+57100-177700FM-18+0003DB28 V0200601N011019999999N9999999N1-00581+99999100071ADDMD1810231+9999OA159901301OA249901401REMSYN177BBXX  46035 22191 99569 71778 46/// /0611 11058 40007 58023 91850 22200 00012 10804 70018 333 91213 555 11108 22113 31807 40514 61849 058105 068097 047098 056104 055111 052110 ;
0205992820999992000022816004+57100-177700FM-18+0003DB28 V0202901N010019999999N9999999N1+00001+99999097621ADDOA159901201OA249901301REMSYN171BBXX  46035 28161 99569 71778 46/// /2910 10000 49762 91550 22200 00012 11006 70030 333 91212 555 11098 22104 31520 42913 61549 286096 292099 290089 297080 293092 292069 ;
0225992820999992000030218004+57100-177700FM-18+0003DB28 V0200401N014019999999N9999999N1-00071+99999097661ADDMD1510001+9999OA159901701OA249901901REMSYN177BBXX  46035 02181 99569 71778 46/// /0414 11007 49766 55000 91750 22200 00012 11311 70057 333 91217 555 11137 22145 31656 40319 61749 042135 040131 041141 035146 031153 030151 ;
0141992820999992000030815004+57100-177700FM-18+0003DB28 V0201001N006019999999N9999999N1+00091+99999098341ADDMD1310191+9999OA159900701REMSYN104BBXX  46035 08151 99569 71778 46/// /1006 10009 49834 53019 91450 22200 00012 333 91207 555 11055 22058;
0225992820999992000031402004+57100-177700FM-18+0003DB28 V0200601N008019999999N9999999N1+00171+99999099921ADDMD1810031+9999OA159901001OA249901101REMSYN177BBXX  46035 14021 99569 71778 46/// /0608 10017 49992 58003 90150 22200 00013 10805 70026 333 91210 555 11084 22090 30108 40711 60149 057083 059081 067079 072084 073089 073091 ;
0205992820999992000031817004+57100-177700FM-18+0003DB28 V0200901N009019999999N9999999N1+00081+99999099431ADDOA159901101OA249901201REMSYN171BBXX  46035 18171 99569 71778 46/// /0909 10008 49943 91650 22200 00013 11103 70013 333 91211 555 11091 22096 31631 41012 61649 093090 094094 097094 092093 092088 096090 ;
0225992820999992000032105004+57100-177700FM-18+0003DB28 V0203601N012019999999N9999999N1-00351+99999100201ADDMD1310271+9999OA159901401OA249901501REMSYN177BBXX  46035 21051 99569 71778 46/// /3612 11035 40020 53027 90450 22200 00013 11008 70039 333 91214 555 11117 22123 30356 43515 60449 356115 354112 353113 355111 358109 354118 ;
0225992820999992000032710004+57100-177700FM-18+0003DB28 V0200501N007019999999N9999999N1-00651+99999101001ADDMD1410001+9999OA159900801OA249900901REMSYN177BBXX  46035 27101 99569 71778 46/// /0507 11065 40100 54000 90950 22200 00016 11703 70013 333 91208 555 11065 22067 30906 40509 60949 044065 045069 048069 049065 049071 045070 ;
0079992820999992000033116004+57100-177700FM-18+0003DB28 V0201601N009019999999N9999999N1+00091+99999999999REMSYN070BBXX  46035 31161 99569 71778 46/// /1609 10009 91550 555 11088 22094;
0225992820999992000041103004+57100-177700FM-18+0003DB28 V0200801N010019999999N9999999N1+00121+99999098971ADDMD1310061+9999OA159901201OA249901601REMSYN177BBXX  46035 11031 99569 71778 46/// /0810 10012 49897 53006 90250 22200 00014 11008 70042 333 91212 555 11098 22104 30202 40816 60249 084101 082104 084102 082122 078128 076128 ;
0225992820999992000041315004+57100-177700FM-18+0003DB28 V0200501N006019999999N9999999N1+00161+99999100681ADDMD1810091+9999OA159900701OA249900701REMSYN177BBXX  46035 13151 99569 71778 46/// /0506 10016 40068 58009 91450 22200 00016 10702 70012 333 91207 555 11060 22064 31359 40407 61449 045059 040052 037051 047053 047061 044055 ;
0225992820999992000041406004+57100-177700FM-18+0003DB28 V0200301N010019999999N9999999N1+00131+99999099671ADDMD1410001+9999OA159901201OA249901501REMSYN177BBXX  46035 14061 99569 71778 46/// /0310 10013 49967 54000 90550 22200 00016 10907 70033 333 91212 555 11103 22110 30523 40515 60549 035105 036112 040119 042110 045108 050121 ;
0225992820999992000042117004+57100-177700FM-18+0003DB28 V0203401N011019999999N9999999N1-00301+99999101291ADDMD1310161+9999OA159901301OA249901501REMSYN177BBXX  46035 21171 99569 71778 46/// /3411 11030 40129 53016 91650 22200 00016 10906 70032 333 91213 555 11106 22111 31601 43215 61649 337106 340110 338104 335108 329117 343113 ;
0205992820999992000050202004+57100-177700FM-18+0003DB28 V0202401N009019999999N9999999N1+00131+99999101601ADDOA159901001OA249901101REMSYN171BBXX  46035 02021 99569 71778 46/// /2409 10013 40160 90150 22200 00020 11302 70012 333 91210 555 11089 22094 30136 42411 60149 238090 231080 233081 233084 233084 235080 ;
0225992820999992000050220004+57100-177700FM-18+0003DB28 V0202401N005019999999N9999999N1+00121+99999101791ADDMD1210091+9999OA159900601OA249900901REMSYN177BBXX  46035 02201 99569 71778 46/// /2405 10012 40179 52009 91950 22200 00020 10803 70014 333 91206 555 11054 22056 31858 42409 61949 242054 247056 240053 234059 236072 238066 ;
0225992820999992000050800004+57100-177700FM-18+0003DB28 V0203501N004019999999N9999999N1+00181+99999102471ADDMD1310101+9999OA159900501OA249900501REMSYN177BBXX  46035 08001 99569 71778 46/// /3504 10018 40247 53010 92350 22200 00032 10901 70005 333 91205 555 11039 22040 32343 43505 62349 349038 338034 336030 340028 346030 341030 ;
0225992820999992000051517004+57100-177700FM-18+0003DB28 V0200501N009019999999N9999999N1+00241+99999100461ADDMD1310171+9999OA159901201OA249901301REMSYN177BBXX  46035 15171 99569 71778 46/// /0509 10024 40046 53017 91650 22200 00025 10705 70023 333 91212 555 11094 22100 31624 40513 61649 049091 049092 049104 044100 047099 047101 ;
0225992820999992000052217004+57100-177700FM-18+0003DB28 V0203201N009019999999N9999999N1+00051+99999101691ADDMD1210091+9999OA159901101OA249901201REMSYN177BBXX  46035 22171 99569 71778 46/// /3209 10005 40169 52009 91650 22200 00031 10703 70015 333 91211 555 11085 22089 31606 43212 61649 322085 329082 334073 327087 329086 329089 ;
0205992820999992000052518004+57100-177700FM-18+0003DB28 V0202701N006019999999N9999999N1+00191+99999102641ADDOA159900801OA249900801REMSYN171BBXX  46035 25181 99569 71778 46/// /2706 10019 40264 91750 22200 00032 10803 70013 333 91208 555 11060 22063 31748 42708 61749 274056 289051 290049 277052 270053 287061 ;
0141992820999992000060205004+57100-177700FM-18+0003DB28 V0201401N010019999999N9999999N1+00321+99999099511ADDMD1610081+9999OA159901201REMSYN104BBXX  46035 02051 99569 71778 46/// /1410 10032 49951 56008 90450 22200 00036 333 91212 555 11102 22108;
0225992820999992000060405004+57100-177700FM-18+0003DB28 V0200401N003019999999N9999999N1+00361+99999100671ADDMD1710101+9999OA159900401OA249900501REMSYN177BBXX  46035 04051 99569 71778 46/// /0403 10036 40067 57010 90450 22200 00041 10703 70013 333 91204 555 11032 22033 30358 40605 60449 039031 042033 047035 052036 051038 053040 ;
0225992820999992000060920004+57100-177700FM-18+0003DB28 V0201001N005019999999N9999999N1+00351+99999100911ADDMD1810081+9999OA159900601OA249900701REMSYN177BBXX  46035 09201 99569 71778 46/// /1005 10035 40091 58008 91950 22200 00043 11702 70012 333 91206 555 11051 22053 31933 41007 61949 102052 101054 098053 095052 097054 097054 ;
0225992820999992000061116004+57100-177700FM-18+0003DB28 V0200201N006019999999N9999999N1+00401+99999100281ADDMD1410001+9999OA159900701OA249900801REMSYN177BBXX  46035 11161 99569 71778 46/// /0206 10040 40028 54000 91550 22200 00044 10603 70013 333 91207 555 11062 22065 31455 40408 61549 016062 022064 025064 029066 032067 035070 ;
0225992820999992000061616004+57090-177700FM-18+0003DB28 V0200601N008019999999N9999999N1+00511+99999101131ADDMD1710111+9999OA159901001OA249901101REMSYN177BBXX  46035 16161 99569 71778 46/// /0608 10051 40113 57011 91550 22200 00051 10502 70009 333 91210 555 11084 22089 31520 40611 61549 061084 063080 062086 060077 068070 073064 ;
0214992820999992000070712004+57090-177700FM-18+0003DB28 V0202101N001019999999N9999999N1+00821+99999101001ADDMD1210031+9999OA159900101REMSYN177BBXX  46035 07121 99569 71778 46/// /2101 10082 40100 52003 91150 22200 00087 11001 70007 333 91201 555 11007 22007 31111 41401 61149 201007 160007 152007 140011 136009 158005 ;
0225992820999992000071121004+57090-177700FM-18+0003DB28 V0201701N006019999999N9999999N1+00741+99999100931ADDMD1110081+9999OA159900701OA249900801REMSYN177BBXX  46035 11211 99569 71778 46/// /1706 10074 40093 51008 92050 22200 00082 11705 70023 333 91207 555 11059 22062 32021 41808 62049 173058 176061 178065 180060 177058 180060 ;
0133992820999992000071720004+57090-177700FM-18+0003DB28 V0203001N005019999999N9999999N1+00711+99999101391ADDOA159900601REMSYN110BBXX  46035 17201 99569 71778 46/// /3005 10071 40139 91950 22200 00086 10703 70015 333 91206 555 11047 22049;
0202992820999992000072023004+57090-177700FM-18+0003DB28 V0202601N002019999999N9999999N1+00871+99999101351ADDMD1310041+9999OA159900301REMSYN165BBXX  46035 20231 99569 71778 46/// /2602 10087 40135 53004 92250 22200 00094 333 91203 555 11024 22025 32248 42503 62249 260023 257021 257019 256019 259019 270019 ;
0225992820999992000072320004+57090-177700FM-18+0003DB28 V0200301N004019999999N9999999N1+00861+99999101401ADDMD1310171+9999OA159900401OA249900501REMSYN177BBXX  46035 23201 99569 71778 46/// /0304 10086 40140 53017 91950 22200 00094 10602 70009 333 91204 555 11037 22038 31914 40305 61949 028036 030034 024039 031041 056027 063030 ;
0225992820999992000072420004+57090-177700FM-18+0003DB28 V0202101N005019999999N9999999N1+00831+99999101841ADDMD1410001+9999OA159900601OA249900701REMSYN177BBXX  46035 24201 99569 71778 46/// /2105 10083 40184 54000 91950 22200 00094 10601 70007 333 91206 555 11054 22056 31906 42207 61949 211053 205058 199057 205053 213060 207056 ;
0225992820999992000072500004+57090-177700FM-18+0003DB28 V0202401N007019999999N9999999N1+00871+99999101781ADDMD1710051+9999OA159900801OA249900901REMSYN177BBXX  46035 25001 99569 71778 46/// /2407 10087 40178 57005 92350 22200 00094 10802 70008 333 91208 555 11072 22076 32339 42309 62349 236071 229068 224066 222063 219061 215060 ;
0214992820999992000072601004+57090-177700FM-18+0003DB28 V0202701N001019999999N9999999N1+01021+99999102331ADDMD1210031+9999OA159900101REMSYN177BBXX  46035 26011 99569 71778 46/// /2701 10102 40233 52003 90050 22200 00095 10702 70011 333 91201 555 11008 22009 30023 42902 60049 275008 283012 287014 264011 258008 265008 ;
0225992820999992000073103004+57090-177700FM-18+0003DB28 V0200501N008019999999N9999999N1+00911+99999100761ADDMD1210141+9999OA159901001OA249901001REMSYN177BBXX  46035 31031 99569 71778 46/// /0508 10091 40076 52014 90250 22200 00097 10804 70022 333 91210 555 11083 22088 30158 40610 60249 049080 051082 053081 053083 059082 057084 ;
0153992820999992000080104004+57090-177700FM-18+0003DB28 V0200801N013019999999N9999999N1+00761+99999100061ADDMD1810151+9999OA159901501REMSYN116BBXX  46035 01041 99569 71778 46/// /0813 10076 40006 58015 90350 22200 00095 10503 70016 333 91215 555 11127 22134;
0225992820999992000080413004+57090-177700FM-18+0003DB28 V0202201N006019999999N9999999N1+00841+99999101381ADDMD1110071+9999OA159900701OA249900801REMSYN177BBXX  46035 04131 99569 71778 46/// /2206 10084 40138 51007 91250 22200 00087 10803 70016 333 91207 555 11060 22063 31226 42308 61249 220060 224059 227064 228068 230069 234066 ;
0225992820999992000080523004+57090-177700FM-18+0003DB28 V0202301N010019999999N9999999N1+00791+99999101691ADDMD1110071+9999OA159901201OA249901201REMSYN177BBXX  46035 05231 99569 71778 46/// /2310 10079 40169 51007 92250 22200 00086 10603 70015 333 91212 555 11099 22105 32244 42312 62249 231098 228094 227093 226091 229093 231094 ;
0225992820999992000080820004+57090-177700FM-18+0003DB28 V0202001N005019999999N9999999N1+00831+99999102781ADDMD1310091+9999OA159900601OA249900601REMSYN177BBXX  46035 08201 99569 71778 46/// /2005 10083 40278 53009 91950 22200 00087 10802 70008 333 91206 555 11048 22050 31854 42106 61949 196048 193049 194045 196050 196050 203052 ;
0153992820999992000081012004+57090-177700FM-18+0003DB28 V0201601N008019999999N9999999N1+00971+99999102321ADDMD1710031+9999OA159900901REMSYN116BBXX  46035 10121 99569 71778 46/// /1608 10097 40232 57003 91150 22200 00090 10603 70014 333 91209 555 11082 22089;
0225992820999992000081422004+57090-177700FM-18+0003DB28 V0201601N010019999999N9999999N1+00901+99999102731ADDMD1410001+9999OA159901201OA249901401REMSYN177BBXX  46035 14221 99569 71778 46/// /1610 10090 40273 54000 92150 22200 00094 11005 70023 333 91212 555 11096 22102 32113 41614 62149 159097 157099 157106 159113 155103 156101 ;
0128992820999992000081715004+57090-177700FM-18+0003DB28 V0202201N007019999999N9999999N1+00941+99999102841ADDMD1710101+9999SA1+0989REMSYN094BBXX  46035 17151 99569 71778 46/// /2207 10094 40284 57010 91450 22200 00098 555 11066 22070;
0205992820999992000081720004+57090-177700FM-18+0003DB28 V0202201N006019999999N9999999N1+00951+99999102791ADDOA159900801OA249900801REMSYN171BBXX  46035 17201 99569 71778 46/// /2206 10095 40279 91950 22200 00098 11403 70013 333 91208 555 11063 22066 31855 42208 61949 222064 220063 220060 224057 220062 219066 ;
0115992820999992000082203004+57090-177700FM-18+0003DB28 V0201901N006019999999N9999999N1+00941+99999999999ADDOA159900701REMSYN092BBXX  46035 22031 99569 71778 46/// /1906 10094 90250 22200 00102 333 91207 555 11058 22061;
0141992820999992000082216004+57090-177700FM-18+0003DB28 V0202801N004019999999N9999999N1+00951+99999101311ADDMD1710081+9999OA159900501REMSYN104BBXX  46035 22161 99569 71778 46/// /2804 10095 40131 57008 91550 22200 00102 333 91205 555 11040 22042;
0213992820999992000082403004+57090-177700FM-18+0003DB28 V0203101N004019999999N9999999N1+00971+99999101601ADDMD1110061+9999OA159900501OA249900501REMSYN165BBXX  46035 24031 99569 71778 46/// /3104 10097 40160 51006 90250 22200 00105 333 91205 555 11041 22043 30235 43105 60249 312040 306036 306012 310019 306021 296014 ;
0225992820999992000082514004+57090-177700FM-18+0003DB28 V0202301N012019999999N9999999N1+00971+99999100521ADDMD1410001+9999OA159901401OA249901401REMSYN177BBXX  46035 25141 99569 71778 46/// /2312 10097 40052 54000 91350 22200 00102 10906 70029 333 91214 555 11120 22128 31344 42314 61349 225117 221108 218107 217104 216110 212110 ;
0213992820999992000082617004+57090-177700FM-18+0003DB28 V0202601N008019999999N9999999N1+00811+99999100371ADDMD1610091+9999OA159901001OA249901201REMSYN165BBXX  46035 26171 99569 71778 46/// /2608 10081 40037 56009 91650 22200 00102 333 91210 555 11084 22088 31636 42712 61649 260086 263095 268090 266096 268080 265088 ;
0225992820999992000092218004+57090-177700FM-18+0003DB28 V0203201N004019999999N9999999N1+00731+99999102531ADDMD1110141+9999OA159900501OA249900601REMSYN177BBXX  46035 22181 99569 71778 46/// /3204 10073 40253 51014 91750 22200 00078 11106 70030 333 91205 555 11038 22040 31735 43306 61749 320038 320046 320043 318041 317044 310043 ;
0214992820999992000092222004+57090-177700FM-18+0003DB28 V0203001N001019999999N9999999N1+00891+99999102641ADDMD1110101+9999OA159900201REMSYN177BBXX  46035 22221 99569 71778 46/// /3001 10089 40264 51010 92150 22200 00079 11105 70023 333 91202 555 11010 22012 32054 43302 62149 301010 312010 320011 325011 335015 329018 ;
0199992820999992000092616004+57090-177700FM-18+0003DB28 V0200601N014019999999N9999999N1+00741+99999999999ADDOA159901801OA249901801REMSYN165BBXX  46035 26161 99569 71778 46/// /0614 10074 91550 22200 00078 10909 70043 333 91218 555 11144 22154 31519 40618 61549 056142 061145 061140 058149 061142 061144 ;
0199992820999992000092907004+57090-177700FM-18+0003DB28 V0202601N006019999999N9999999N1+00591+99999999999ADDOA159900701OA249900801REMSYN165BBXX  46035 29071 99569 71778 46/// /2606 10059 90650 22200 00078 10602 70010 333 91207 555 11055 22057 30629 42608 60649 262054 257060 254053 266051 243058 265049 ;
0199992820999992000093005004+57090-177700FM-18+0003DB28 V0202001N007019999999N9999999N1+00631+99999999999ADDOA159900801OA249900901REMSYN165BBXX  46035 30051 99569 71778 46/// /2007 10063 90450 22200 00075 10603 70013 333 91208 555 11069 22072 30409 42009 60449 195070 197061 202062 202075 195081 195078 ;
0199992820999992000100102004+57090-177700FM-18+0003DB28 V0202201N008019999999N9999999N1+00791+99999999999ADDOA159900901OA249900901REMSYN165BBXX  46035 01021 99569 71778 46/// /2208 10079 90150 22200 00078 11005 70023 333 91209 555 11077 22082 30147 42209 60149 224076 221073 220074 222070 223068 220068 ;
0225992820999992000101009004+57090-177700FM-18+0003DB28 V0203001N009019999999N9999999N1+00551+99999100641ADDMD1610061+9999OA159901201OA249901301REMSYN177BBXX  46035 10091 99569 71778 46/// /3009 10055 40064 56006 90850 22200 00074 10603 70015 333 91212 555 11093 22098 30815 42913 60849 298092 296102 294105 292103 294105 298103 ;
0225992820999992000101400004+57090-177700FM-18+0003DB28 V0202901N012019999999N9999999N1+00711+99999097131ADDMD1210341+9999OA159901401OA249901501REMSYN177BBXX  46035 14001 99569 71778 46/// /2912 10071 49713 52034 92350 22200 00070 11410 70052 333 91214 555 11116 22124 32303 42915 62349 291115 294117 291120 287112 287114 286114 ;
0225992820999992000101413004+57090-177700FM-18+0003DB28 V0202901N019019999999N9999999N1+00551+99999099121ADDMD1110401+9999OA159902401OA249902501REMSYN177BBXX  46035 14131 99569 71778 46/// /2919 10055 49912 51040 91250 22200 00067 11314 70068 333 91224 555 11189 22202 31228 42925 61249 285188 288183 285189 290188 288194 287189 ;
0225992820999992000101701004+57090-177700FM-18+0003DB28 V0203301N007019999999N9999999N1+00351+99999100751ADDMD1610091+9999OA159901001OA249901101REMSYN177BBXX  46035 17011 99569 71778 46/// /3307 10035 40075 56009 90050 22200 00059 11006 70030 333 91210 555 11071 22074 30004 43011 60049 326069 327071 306068 282079 294075 322043 ;
0132992820999992000101818004+57090-177700FM-18+0003DB28 V0203401N009019999999N9999999N1+00281+99999100921ADDMD1210041+9999REMSYN106BBXX  46035 18181 99569 71778 46/// /3409 10028 40092 52004 91750 22200 00059 11107 70035 555 11092 22096;
0225992820999992000101921004+57090-177700FM-18+0003DB28 V0201001N005019999999N9999999N1+00321+99999100351ADDMD1210051+9999OA159900801OA249900801REMSYN177BBXX  46035 19211 99569 71778 46/// /1005 10032 40035 52005 92050 22200 00063 10803 70017 333 91208 555 11052 22054 32043 41008 62049 100052 099052 102048 096051 104050 095053 ;
0205992820999992000102500004+57090-177700FM-18+0003DB28 V0201701N013019999999N9999999N1+00511+99999097521ADDOA159901601OA249901601REMSYN171BBXX  46035 25001 99569 71778 46/// /1713 10051 49752 92350 22200 00063 11110 70048 333 91216 555 11127 22135 32347 41716 62349 172125 177115 175117 180116 177121 174122 ;
0108992820999992000102607004+57090-177700FM-18+0003DB28 V0203201N014019999999N9999999N1+00321+99999100751ADDMD1110451+9999REMSYN082BBXX  46035 26071 99569 71778 46/// /3214 10032 40075 51045 90650 555 11140 22150;
0205992820999992000103010004+57090-177700FM-18+0003DB28 V0202401N008019999999N9999999N1+00321+99999099951ADDOA159901001OA249901301REMSYN171BBXX  46035 30101 99569 71778 46/// /2408 10032 49995 90950 22200 00059 11105 70025 333 91210 555 11079 22083 30856 42513 60949 240077 241071 254056 270069 265099 236099 ;
0225992820999992000103012004+57090-177700FM-18+0003DB28 V0202501N008019999999N9999999N1+00361+99999099951ADDMD1410001+9999OA159900901OA249901101REMSYN177BBXX  46035 30121 99569 71778 46/// /2508 10036 49995 54000 91150 22200 00059 11105 70025 333 91209 555 11078 22082 31102 42411 61149 253076 256088 255078 252082 246090 248086 ;
0165992820999992000110507004+57090-177700FM-18+0003DB28 V0200901N010019999999N9999999N1+00471+99999096991ADDMD1210231+9999OA159901301REMSYN128BBXX  46035 05071 99569 71778 46/// /0910 10047 49699 52023 90650 22200 00051 11413 20405 41412 70064 333 91213 555 11104 22111;
0217992820999992000110519004+57090-177700FM-18+0003DB28 V0200901N012019999999N9999999N1+00431+99999097581ADDOA159901501OA249902101REMSYN183BBXX  46035 05191 99569 71778 46/// /0912 10043 49758 91850 22200 00051 11311 20506 41309 70053 333 91215 555 11117 22124 31752 40821 61849 089116 083127 083142 081151 081164 083167 ;
0237992820999992000110600004+57090-177700FM-18+0003DB28 V0201201N011019999999N9999999N1+00481+99999097921ADDMD1310131+9999OA159901301OA249901401REMSYN189BBXX  46035 06001 99569 71778 46/// /1211 10048 49792 53013 92350 22200 00048 11109 20505 41108 70047 333 91213 555 11109 22116 32259 41214 62349 115108 111110 107103 107103 113116 112118 ;
0237992820999992000111423004+57090-177700FM-18+0003DB28 V0200101N004019999999N9999999N1+00131+99999099101ADDMD1610101+9999OA159900501OA249900601REMSYN189BBXX  46035 14231 99569 71778 46/// /0104 10013 49910 56010 92250 22200 00038 11107 20301 41107 70034 333 91205 555 11037 22038 32229 43606 62249 004036 348039 000038 352037 030031 040041 ;
0237992820999992000111509004+57090-177700FM-18+0003DB28 V0203301N011019999999N9999999N1+00081+99999098761ADDMD1810081+9999OA159901301OA249901401REMSYN189BBXX  46035 15091 99569 71778 46/// /3311 10008 49876 58008 90850 22200 00036 11106 20504 41105 70032 333 91213 555 11110 22116 30837 43414 60849 333110 338113 337109 335114 342108 339102 ;
0231992820999992000111521004+57090-177700FM-18+0003DB28 V0203201N015019999999N9999999N1+00031+99999098511ADDMD1210031+9999OA159901901OA249901901REMSYN183BBXX  46035 15211 99569 71778 46/// /3215 10003 49851 52003 92050 22200 00036 10908 20908 70039 333 91219 555 11149 22158 32041 43119 62049 316149 320153 318137 319138 315146 318147 ;
0231992820999992000111608004+57090-177700FM-18+0003DB28 V0202601N012019999999N9999999N1-00041+99999098561ADDMD1410001+9999OA159901401OA249901601REMSYN183BBXX  46035 16081 99569 71778 46/// /2612 11004 49856 54000 90750 22200 00036 10908 20908 70041 333 91214 555 11121 22127 30706 42616 60749 260122 263111 255124 254131 259133 260123 ;
0260992820999992000111800004+57090-177700FM-18+0003DB28 V0200101N005019999999N9999999N1+00281+99999097191ADDMD1110281+9999OA159900601OA259902881OA349900801UA1M999999019REMSYN188BBXX  46035 18001 99569 71778 46/// /0105 10028 49719 51028 92350 22200 00035 11408 20402 41408 70042 333 91206 555 11054 22056 32313 40308 62349 007052 006052 011055 01056 010054 014056 ;
0226992820999992000111919004+57090-177700FM-18+0003DB28 V0200901N001019999999N9999999N1+00171+99999098761ADDMD1610131+9999OA159900201REMSYN189BBXX  46035 19191 99569 71778 46/// /0901 10017 49876 56013 91850 22200 00035 11106 20301 41106 70032 333 91202 555 11009 22009 31828 40203 61849 070011 038015 047014 050011 055009 059008 ;
0225992820999992000120203004+57090-177700FM-18+0003DB28 V0200801N018019999999N9999999N1+00241+99999098611ADDMD1710471+9999OA159902301OA249902301REMSYN177BBXX  46035 02031 99569 71778 46/// /0818 10024 49861 57047 90250 22200 00036 11110 70050 333 91223 555 11182 22194 30243 40723 60249 076180 076166 077163 078154 078162 076171 ;
0225992820999992000120802004+57090-177700FM-18+0003DB28 V0201201N012019999999N9999999N1+00391+99999098751ADDMD1810121+9999OA159901401OA249901601REMSYN177BBXX  46035 08021 99569 71778 46/// /1212 10039 49875 58012 90150 22200 00031 11110 70049 333 91214 555 11119 22128 30103 41116 60149 119120 114120 114122 111126 114127 117125 ;
0115992820999992000120921004+57090-177700FM-18+0003DB28 V0201901N007019999999N9999999N1+00281+99999999999ADDOA159900801REMSYN092BBXX  46035 09211 99569 71778 46/// /1907 10028 92050 22200 00031 333 91208 555 11066 22070;
0225992820999992000121117004+57090-177700FM-18+0003DB28 V0202801N005019999999N9999999N1+00091+99999098841ADDMD1110061+9999OA159900601OA249900801REMSYN177BBXX  46035 11171 99569 71778 46/// /2805 10009 49884 51006 91650 22200 00031 11106 70028 333 91206 555 11048 22050 31601 42708 61649 280048 279047 271055 270055 272057 277053 ;
0214992820999992000121611004+57090-177700FM-18+0003DB28 V0200901N001019999999N9999999N1+00041+99999097841ADDMD1710081+9999OA159900201REMSYN177BBXX  46035 16111 99569 71778 46/// /0901 10004 49784 57008 91050 22200 00029 11107 70037 333 91202 555 11013 22013 30956 40303 61049 090014 077017 068017 048019 040023 016025 ;
0225992820999992000121814004+57090-177700FM-18+0003DB28 V0200201N014019999999N9999999N1+00011+99999097841ADDMD1610161+9999OA159901701OA249901701REMSYN177BBXX  46035 18141 99569 71778 46/// /0214 10001 49784 56016 91350 22200 00031 11008 70040 333 91217 555 11138 22146 31301 40317 61349 020136 023129 023129 025129 029135 022134 ;
0225992820999992000122323004+57090-177700FM-18+0003DB28 V0200501N009019999999N9999999N1+00241+99999098871ADDMD1010001+9999OA159901101OA249901201REMSYN177BBXX  46035 23231 99569 71778 46/// /0509 10024 49887 50000 92250 22200 00029 10906 70028 333 91211 555 11094 22100 32238 40612 62249 052094 056093 062085 052081 058089 063088 ;
0213992820999992000122617004+57090-177700FM-18+0003DB28 V0200801N007019999999N9999999N1+00241+99999098681ADDMD1310031+9999OA159900901OA249900901REMSYN165BBXX  46035 26171 99569 71778 46/// /0807 10024 49868 53003 91650 22200 00032 333 91209 555 11072 22076 31648 40809 61649 076070 073065 067066 063063 053061 042058 ;
0225992820999992000122717004+57090-177700FM-18+0003DB28 V0200501N005019999999N9999999N1+00091+99999098841ADDMD1610051+9999OA159900601OA249900801REMSYN177BBXX  46035 27171 99569 71778 46/// /0505 10009 49884 56005 91650 22200 00032 11406 70028 333 91206 555 11048 22050 31602 40408 61649 049047 030047 031051 031055 037062 033057 ;
0141992820999992000122903004+57090-177700FM-18+0003DB28 V0200901N014019999999N9999999N1+00331+99999097641ADDMD1310151+9999OA159901601REMSYN104BBXX  46035 29031 99569 71778 46/// /0914 10033 49764 53015 90250 22200 00032 333 91216 555 11135 22144;
0193992820999992000123122004+57090-177700FM-18+0003DB28 V0200201N010019999999N9999999N1-00091+99999099561ADDOA159901301OA249901301REMSYN159BBXX  46035 31221 99569 71778 46/// /0210 11009 49956 92150 22200 00029 333 91213 555 11104 22109 32110 40213 62149 021103 020099 019099 019104 024101 020105 ;
0318992880999992000010711004+50600-002700FM-18+0003DB28 V0202301N030019999999N9999999N1+01211+01021101261ADDMD1710161+9999OA159999999UA1M999999059REMSYN249BBXX  62029 07114 99487 70124 46/// /2330 10121 20102 40126 57016 22200 00121 10810 70053 555 1//42 05351 07227 10148 11208 12421 13421 14806 15562 18006 19017 22135 23999 35076 36210 50048 51435 52012 53259 80015 05352 07204 10151 11224 12422 13420EQDQ01  02632WGOSPD
0299992880999992000010811004+50600-002700FM-18+0003DB28 V0202901N015019999999N9999999N1+00881+00501102281ADDMD1210201+9999OA159902631UA1M999999059REMSYN249BBXX  62029 08114 99487 70124 46/// /2915 10088 20050 40228 52020 22200 00120 11317 70088 555 1//31 05351 07285 10074 11155 12388 13420 14628 15613 18002 19020 22159 23999 35128 36351 50048 51435 52012 53259 90253 05352 07264 10077 11151 12391 13421
0299992880999992000011000004+50600-002700FM-18+0003DB28 V0202201N015019999999N9999999N1+01121+00651103261ADDMD1710061+9999OA159902631UA1M999999059REMSYN249BBXX  62029 10004 99487 70124 46/// /2215 10112 20065 40326 57006 22200 00119 10907 70036 555 05351 07216 10077 11110 12412 13419 14564 15662 18007 19007 22032 23999 35085 36143 50048 51424 52012 53256 70001 71000 72695 73131 74012 75419 76900 80080
0299992880999992000011016004+50600-002700FM-18+0003DB28 V0202301N018019999999N9999999N1+01181+01011103001ADDMD1710101+9999OA159902631UA1M999999059REMSYN249BBXX  62029 10164 99487 70124 46/// /2318 10118 20101 40300 57010 22200 00120 10908 70041 555 05351 07231 10088 11122 12418 13420 14828 15649 18005 19009 22125 23022 35084 36162 50048 51434 52012 53258 90401 05352 07210 10089 11135 12421 13420 14871
0300992880999992000011809004+50600-002700FM-18+000399999V0200801N010019999999N9999999N1+00941+00681103781ADDMD1210021+9999OA159902631UA1M999999059REMSYN250    BBXX  62029 18094 99487 70124 46/// /0810 10094 20068 40378 52002 22200 00118 10604 70019 555 05351 07077 10049 11086 12394 13418 14739 15688 18002 19003 22075 23023 35059 36073 50048 51431 52012 53263 80073 05352 07079 10053 11090 12395 13416 14
0299992880999992000012712004+50600-002700FM-18+0003DB28 V0200401N009019999999N9999999N1+00871-00041103041ADDMD1210121+9999OA159902631UA1M999999059REMSYN249BBXX  62029 27124 99487 70124 46/// /0409 10087 21004 40304 52012 22200 00116 10603 70018 555 05351 07035 10044 11062 12387 13416 14247 15651 18002 19012 22115 23024 35059 36071 50048 51433 52012 53267 70001 71000 72115 73141 74012 75410 76900 91121
0299992880999992000012903004+50600-002700FM-18+0003DB28 V0202701N025019999999N9999999N1+01191+00971101841ADDMD1710041+9999OA159902631UA1M999999059REMSYN249BBXX  62029 29034 99487 70124 46/// /2725 10119 20097 40184 57004 22200 00115 10708 70040 555 1//36 05351 07273 10124 11179 12419 13415 14779 15591 18005 19003 35068 36159 50048 51431 52012 53253 80134 05352 07274 10123 11175 12421 13416 14771 15593
0318992880999992000013019004+50600-002700FM-18+0003DB28 V0202301N019019999999N9999999N1+01201+01001102461ADDMD1210902+9999OA159902631UA1M999999059REMSYN249BBXX  62029 30194 99487 70124 46/// /2319 10120 20100 40246 52090 22200 00115 10909 70045 555 1//27 05351 07234 10096 11135 12420 13415 14800 15622 18003 19003 35082 36177 50048 51434 52012 53258 80129 05352 07233 10096 11139 12419 13416 14793 15625EQDQ01+000902APC3  
0299992880999992000013021004+50600-002700FM-18+0003DB28 V0202201N018019999999N9999999N1+01181+01001102421ADDMD1710021+9999OA159902631UA1M999999059REMSYN249BBXX  62029 30214 99487 70124 46/// /2218 10118 20100 40242 57002 22200 00116 10908 70043 555 05351 07223 10090 11122 12418 13416 14818 15620 18008 19001 35083 36170 50048 51434 52012 53258 80131 05352 07225 10093 11135 12418 13416 14812 15623 18008
0299992880999992000020711004+50600-002700FM-18+0003DB28 V0202601N019019999999N9999999N1+01241+01001101481ADDMD1210381+9999OA159902631UA1M999999059REMSYN249BBXX  62029 07114 99487 70124 46/// /2619 10124 20100 40148 52038 22200 00114 11012 70061 555 1//29 05351 07258 10097 11143 12424 13414 14758 15573 18002 19037 35091 36243 50048 51432 90418 05352 07259 10093 11151 12426 13415 14755 15576 18002 19039
0299992880999992000021117004+50600-002700FM-18+0003DB28 V0202301N021019999999N9999999N1+01061+00781102781ADDMD1710141+9999OA159902631UA1M999999059REMSYN249BBXX  62029 11174 99487 70124 46/// /2321 10106 20078 40278 57014 22200 00113 10911 70054 555 1//30 05351 07225 10106 11151 12406 13413 14726 15638 18006 19014 35087 36212 50048 51427 52012 53256 90281 05352 07227 10107 11155 12406 13413 14729 15641
0299992880999992000021411004+50600-002700FM-18+0003DB28 V0202601N013019999999N9999999N1+01201+01171102481ADDMD1210201+9999OA159902631UA1M999999059REMSYN249BBXX  62029 14114 99487 70124 46/// /2613 10120 20117 40248 52020 22200 00114 10908 70041 555 05351 07256 10066 11110 12420 13414 14961 15623 18001 19019 35082 36162 50048 51433 52012 53265 91090 05352 07260 10063 12421 13414 14955 15625 18001 19017
0299992880999992000021521004+50600-002700FM-18+0003DB28 V0202901N026019999999N9999999N1+00941+00281102121ADDMD1210061+9999OA159902631UA1M999999059REMSYN249BBXX  62029 15214 99487 70124 46/// /2926 10094 20028 40212 52006 22200 00116 11014 70069 555 1//42 05351 07289 10128 11212 12394 13416 14413 15605 18000 19005 35097 36274 50048 51426 52012 53249 80132 05352 07287 10127 11200 12394 18001 19010 35097
0299992880999992000022911004+50600-002700FM-18+0003DB28 V0202801N022019999999N9999999N1+01121+00981101161ADDMD1210101+9999OA159902631UA1M999999059REMSYN249BBXX  62029 29114 99487 70124 46/// /2822 10112 20098 40116 52010 22200 00115 10911 70056 555 1//33 05351 07279 10110 11167 12412 13415 14855 15557 18002 19011 35086 36223 50048 51428 52012 53268 90068 05352 07279 10108 11155 12412 13415 14852 15560
0299992880999992000030812004+50600-002700FM-18+0003DB28 V0202301N012019999999N9999999N1+01181+01131103161ADDMD1210101+9999OA159902631UA1M999999059REMSYN249BBXX  62029 08124 99487 70124 46/// /2312 10118 20113 40316 52010 22200 00115 10705 70025 555 05351 07228 10058 11082 12418 13415 14944 15657 18002 19011 22115 23024 35068 36099 50048 51434 52012 53263 70001 71000 72099 73139 74012 75433 76900 90292
0299992880999992000030817004+50600-002700FM-18+0003DB28 V0202501N010019999999N9999999N1+01171+01091103121ADDMD1710041+9999OA159902631UA1M999999059REMSYN249BBXX  62029 08174 99487 70124 46/// /2510 10117 20109 40312 57004 22200 00116 10906 70029 555 05351 07245 10048 11070 12417 13416 14916 15655 18005 19006 35080 36112 50048 51432 52012 53261 90218 05352 07245 10044 11074 12416 13416 14898 15657 18005
0299992880999992000031700004+50600-002700FM-18+0003DB28 V0201101N007019999999N9999999N1+01111+00781103581ADDMD1410001+9999OA159902631UA1M999999059REMSYN249BBXX  62029 17004 99487 70124 46/// /1107 10111 20078 40358 54000 22200 00118 10603 70015 555 05351 07107 10033 11078 12411 13418 14679 15678 18005 19000 22235 23025 35056 36056 50048 51434 52012 53262 70001 71999 72303 73130 74012 75424 76900 80135
0299992880999992000032316004+50600-002700FM-18+0003DB28 V0202701N018019999999N9999999N1+01061+00751100081ADDMD1710161+9999OA159902631UA1M999999059REMSYN249BBXX  62029 23164 99487 70124 46/// /2718 10106 20075 40008 57016 22200 00117 10605 70024 555 1//27 05351 07266 10092 11135 12406 13417 14692 15503 18006 19016 35054 36095 50048 51434 52012 53258 90093 05352 07268 10084 11139 12407 13417 14687 15506
0299992880999992000032318004+50600-002700FM-18+0003DB28 V0202501N019019999999N9999999N1+01091+00611100101ADDMD1210021+9999OA159902631UA1M999999059REMSYN249BBXX  62029 23184 99487 70124 46/// /2519 10109 20061 40010 52002 22200 00118 10605 70026 555 1//25 05351 07251 10094 11127 12409 13418 14553 15504 18003 19002 22175 23023 35056 36101 50048 51434 52012 53261 70001 71000 72465 73145 74012 75428 76900
0299992880999992000032616004+50600-002700FM-18+0003DB28 V0202801N016019999999N9999999N1+01211+01121101981ADDMD1710061+9999OA159902631UA1M999999059REMSYN249BBXX  62029 26164 99487 70124 46/// /2816 10121 20112 40198 57006 22200 00117 10807 70036 555 05351 07281 10078 11110 12421 13417 14903 15598 18008 19006 35073 36143 50048 51432 52012 53250 90110 05352 07281 10078 11118 12421 13417 14891 15602 18007
0299992880999992000040118004+50600-002700FM-18+0003DB28 V0203201N013019999999N9999999N1+00881+00461099441ADDMD1710061+9999OA159902631UA1M999999059REMSYN249BBXX  62029 01184 99487 70124 46/// /3213 10088 20046 49944 57006 22200 00117 10908 70040 555 05351 07323 10067 11102 12388 13417 14599 15471 18007 19006 22175 23023 35088 36157 50048 51429 52012 53263 70001 71000 72681 73140 74012 75426 76900 90243
0318992880999992000040307004+50600-002700FM-18+0003DB28 V0200101N030019999999N9999999N1+00841+00551099921ADDMD1210101+9999OA159999999UA1M999999059REMSYN249BBXX  62029 03074 99487 70124 46/// /0130 10084 20055 49992 52010 22200 00115 10913 70064 555 1//42 05351 07010 10150 11208 12384 13415 14715 15495 18003 19010 35087 36254 50048 51426 52012 53270 80125 05352 07004 10149 11216 12386 13415 14716 15499EQDQ01  02632WGOSPD
0299992880999992000041621004+50600-002700FM-18+0003DB28 V0202601N015019999999N9999999N1+00991+00641099101ADDMD1210101+9999OA159902631UA1M999999059REMSYN249BBXX  62029 16214 99487 70124 46/// /2615 10099 20064 49910 52010 22200 00116 10907 70036 555 05351 07258 10073 11110 12399 13416 14659 15454 18003 19010 35081 36142 50048 51425 52012 53262 80120 05352 07263 10074 11122 12401 13416 14662 15458 18002
0299992880999992000042017004+50600-002700FM-18+0003DB28 V0202301N024019999999N9999999N1+01141+00921099141ADDMD1210061+9999OA159902631UA1M999999059REMSYN249BBXX  62029 20174 99487 70124 46/// /2324 10114 20092 49914 52006 22200 00115 10810 70051 555 1//39 05351 07225 10121 11195 12414 13415 14774 15456 18003 19007 35079 36201 50048 51424 52012 53252 90159 07224 10119 11208 12415 13415 14765 15458 18003
0318992880999992000042616004+50600-002700FM-18+0003DB28 V02099999999999999999N9999999N1+01001+00801101061ADDMD1710101+9999OA159999999UA1M999999059REMSYN249BBXX  62029 26164 99487 70124 46/// /34// 10100 20080 40106 57010 22200 00114 10808 70043 555 1//33 05351 07335 11163 12400 13414 14794 15552 18008 19008 35073 36171 50048 51422 52012 53257 90233 05352 07334 10102 11155 12401 13415 15557 18007 19008EQDQ01  02632WGOSPD
0299992880999992000042812004+50600-002700FM-18+0003DB28 V0201601N018019999999N9999999N1+01071+00881100441ADDMD1710141+9999OA159902631UA1M999999059REMSYN249BBXX  62029 28124 99487 70124 46/// /1618 10107 20088 40044 57014 22200 00114 10503 70017 555 05351 07159 10088 11122 12407 13414 14802 15521 18007 19014 22115 23024 35049 36066 50048 51425 52012 53261 70001 71000 72323 73139 74012 75352 76900 90437
0299992880999992000050204004+50600-002700FM-18+0003DB28 V0200601N016019999999N9999999N1+01221+01151102401ADDMD1210021+9999OA159902631UA1M999999059REMSYN249BBXX  62029 02044 99487 70124 46/// /0616 10122 20115 40240 52002 22200 00118 10503 70016 555 05351 07056 10080 11110 12422 13418 14925 15619 18003 19003 35048 36063 50048 51431 52012 53269 80134 05352 07051 10080 11110 12424 13420 14890 15622 18003
0299992880999992000051800004+50600-002700FM-18+0003DB28 V0203301N015019999999N9999999N1+01221+01081101981ADDMD1210061+9999OA159902631UA1M999999059REMSYN249BBXX  62029 18004 99487 70124 46/// /3315 10122 20108 40198 52006 22200 10806 70032 555 1//25 05351 07333 10073 11127 12422 14855 15598 18082 19005 22235 23023 35070 36124 50048 51425 52012 53251 70001 71999 73132 74012 75440 80131 05352 07328 10076
0299992880999992000051910004+50600-002700FM-18+0003DB28 V0202801N013019999999N9999999N1+01291+01221102021ADDMD1210041+9999OA159902631UA1M999999059REMSYN249BBXX  62029 19104 99487 70124 46/// /2813 10129 20122 40202 52004 22200 00126 10805 70028 555 05351 07281 10063 11082 12429 13426 14920 15600 18001 19002 35072 36108 50048 51427 52012 53257 91236 05352 07281 10065 11094 12430 13427 14857 15602 18002
0299992880999992000052318004+50600-002700FM-18+0003DB28 V0203001N005019999999N9999999N1+01251+00871101681ADDMD1210021+9999OA159902631UA1M999999059REMSYN249BBXX  62029 23184 99487 70124 46/// /3005 10125 20087 40168 52002 22200 00129 10906 70033 555 05351 07295 10027 11045 12425 13429 14641 15583 18000 19003 22175 23023 35083 36129 50048 51425 52012 53265 70001 71000 72929 73139 74012 75446 76900 90739
0299992880999992000052522004+50600-002700FM-18+0003DB28 V0202001N007019999999N9999999N1+01071+00931101321ADDMD1710161+9999OA159902631UA1M999999059REMSYN249BBXX  62029 25224 99487 70124 46/// /2007 10107 20093 40132 57016 22200 00128 10806 70031 555 05351 07195 10036 11054 12407 13428 14856 15565 18006 19014 35077 36120 50048 51427 52012 53265 80122 05352 07195 10038 11058 12408 13429 14811 15567 18007
0299992880999992000060502004+50600-002700FM-18+0003DB28 V0201701N007019999999N9999999N1+01361+01261102141ADDMD1710061+9999OA159902631UA1M999999059REMSYN249BBXX  62029 05024 99487 70124 46/// /1707 10136 20126 40214 57006 22200 00135 10702 70013 555 05351 07173 10036 11062 12436 13435 14898 15606 18008 19006 35063 36048 50048 51424 52012 53262 80131 05352 07178 10038 11074 12437 13435 14849 15608 18007
0299992880999992000060616004+50600-002700FM-18+0003DB28 V0202801N007019999999N9999999N1+01371+01171103121ADDMD1210021+9999OA159902631UA1M999999059REMSYN249BBXX  62029 06164 99487 70124 46/// /2807 10137 20117 40312 52002 22200 00139 11107 70037 555 05351 07284 10037 11062 12437 13439 14796 15655 18002 19003 35102 36144 50048 51424 52012 53260 90235 05352 07283 10037 11066 12439 13440 14763 15655 18002
0299992880999992000061009004+50600-002700FM-18+0003DB28 V0202601N014019999999N9999999N1+01341+01221101621ADDMD1210161+9999OA159902631UA1M999999059REMSYN249BBXX  62029 10094 99487 70124 46/// /2614 10134 20122 40162 52016 22200 00137 10705 70026 555 05351 07255 10071 11098 12434 13437 14877 15580 18002 19014 35062 36100 50048 51429 52012 53263 90365 05352 07256 10071 11094 12435 13438 14831 15580 18002
0299992880999992000061308004+50600-002700FM-18+0003DB28 V0202201N012019999999N9999999N1+01431+01351102641ADDMD1210081+9999OA159902631UA1M999999059REMSYN249BBXX  62029 13084 99487 70124 46/// /2212 10143 20135 40264 52008 22200 00140 10806 70031 555 05351 07216 10062 11086 12443 13440 14915 15631 18002 19007 35077 36120 50048 51435 52012 53256 80031 05352 07216 10062 11082 12445 13439 14861 15631 18001
0299992880999992000061509004+50590-002690FM-18+0003DB28 V0201301N007019999999N9999999N1+01351+01261102721ADDMD1210021+9999OA159902631UA1M999999059REMSYN249BBXX  62029 15094 99487 70124 46/// /1307 10135 20126 40272 52002 22200 00142 10804 70019 555 05351 07130 10036 11054 12435 13442 14900 15635 18002 19001 35070 36073 50048 51434 52012 53261 90153 05352 07131 10038 11062 12435 13442 14847 15635 18002
0299992880999992000061617004+50590-002690FM-18+0003DB28 V0202101N007019999999N9999999N1+01481+01381101801ADDMD1710021+9999OA159902631UA1M999999059REMSYN249BBXX  62029 16174 99487 70124 46/// /2107 10148 20138 40180 57002 22200 00146 10603 70014 555 05351 07214 10033 11045 12448 13446 14892 15589 18008 19003 35056 36054 50048 51435 52012 53266 90695 05352 07209 10034 11050 12449 13445 14842 15588 18008
0299992880999992000062011004+50590-002690FM-18+0003DB28 V0201701N021019999999N9999999N1+01441+01341100201ADDMD1710181+9999OA159902631UA1M999999059REMSYN249BBXX  62029 20114 99487 70124 46/// /1721 10144 20134 40020 57018 22200 00149 10504 70021 555 1//27 05351 07172 10103 11135 12444 13449 14896 15509 18007 19017 35048 36082 50048 51436 52012 53261 90418 05352 07173 10102 11151 13450 14856 15508 18007
0299992880999992000062109004+50590-002690FM-18+0003DB28 V0202401N018019999999N9999999N1+01461+01231100881ADDMD1210141+9999OA159902631UA1M999999059REMSYN249BBXX  62029 21094 99487 70124 46/// /2418 10146 20123 40088 52014 22200 00145 10707 70038 555 1//33 05351 07244 10091 11163 12446 13445 14776 15543 18002 19014 35068 36150 50048 51434 52012 53253 90311 05352 07250 10098 11163 12446 13445 14762 15542
0318992880999992000062113004+50590-002690FM-18+0003DB28 V0202601N028019999999N9999999N1+01321+01141101001ADDMD1210101+9999OA159999999UA1M999999059REMSYN249BBXX  62029 21134 99487 70124 46/// /2628 10132 20114 40100 52010 22200 00145 10808 70040 555 1//35 05351 07264 10138 11175 12432 13445 14821 15549 18003 19010 35071 36159 50048 51432 52012 53250 90164 05352 07262 10136 11191 12433 13445 14806 15549EQDQ01  02632WGOSPD
0299992880999992000062419004+50590-002690FM-18+0003DB28 V0203001N016019999999N9999999N1+01451+01351102541ADDMD1710061+9999OA159902631UA1M999999059REMSYN249BBXX  62029 24194 99487 70124 46/// /3016 10145 20135 40254 57006 22200 00143 10704 70022 555 05351 07297 10078 11102 12445 13443 14899 15626 18008 19004 35061 36086 50048 51423 52012 53257 90140 05352 07291 10079 11106 12446 13445 14857 15626 18008
0299992880999992000062720004+50590-002690FM-18+0003DB28 V0201401N016019999999N9999999N1+01541+01431101521ADDMD1410001+9999OA159902631UA1M999999059REMSYN249BBXX  62029 27204 99487 70124 46/// /1416 10154 20143 40152 54000 22200 00154 10503 70017 555 05351 07138 10079 11118 12454 13454 14891 15575 18003 19002 35045 36064 50048 51429 52012 53268 80054 05352 07139 10081 11122 12455 13454 14857 15575 18003
0299992880999992000063000004+50590-002690FM-18+0003DB28 V0201601N016019999999N9999999N1+01621+01501101561ADDMD1710141+9999OA159902631UA1M999999059REMSYN249BBXX  62029 30004 99487 70124 46/// /1616 10162 20150 40156 57014 22200 00160 10503 70015 555 05351 07162 10078 11102 12462 13460 14873 15577 18008 19015 22235 23023 35048 36057 50048 51435 52012 53263 70001 71999 72823 73131 74012 75479 76900 80131
0299992880999992000070114004+50590-002690FM-18+0003DB28 V0202101N016019999999N9999999N1+01581+01421100341ADDMD1210021+9999OA159902631UA1M999999059REMSYN249BBXX  62029 01144 99487 70124 46/// /2116 10158 20142 40034 52002 22200 00158 10605 70024 555 05351 07205 10079 11110 12458 13458 14838 15516 18000 19002 35057 36092 50048 51433 52012 53264 90749 05352 07205 10081 11114 12459 13459 14818 15515 18001
0299992880999992000070206004+50590-002690FM-18+0003DB28 V0201401N009019999999N9999999N1+01581+01451100401ADDMD1210021+9999OA159902631UA1M999999059REMSYN249BBXX  62029 02064 99487 70124 46/// /1409 10158 20145 40040 52002 22200 00159 10603 70017 555 05351 07141 10046 11066 12458 13459 14866 15519 18003 19003 22055 23023 35059 36064 50048 51435 52012 53269 70001 71000 72877 73130 74012 75472 76900 80110
0299992880999992000070810004+50590-002690FM-18+0003DB28 V0203001N013019999999N9999999N1+01501+01201102961ADDMD1710041+9999OA159902631UA1M999999059REMSYN249BBXX  62029 08104 99487 70124 46/// /3013 10150 20120 40296 57004 22200 00164 10503 70015 555 05351 07301 10065 11094 12450 13464 14717 15647 18008 19005 35047 36056 50048 51432 52012 53266 90575 05352 10066 11094 12451 13463 14710 15646 18008 19006
0299992880999992000070903004+50590-002690FM-18+0003DB28 V0202601N023019999999N9999999N1+01601+01501101881ADDMD1710321+9999OA159902631UA1M999999059REMSYN249BBXX  62029 09034 99487 70124 46/// /2623 10160 20150 40188 57032 22200 00161 10706 70033 555 1//31 05351 07262 10115 11155 12460 13461 14896 15593 18008 19033 35064 36129 50048 51436 52012 53259 80133 05352 07266 10119 11167 12461 13461 14849 15592
