0219726480999992000072323003+45750-087020FM-15+0187KESC V0201701N003612200019N0160931N1+01901+01401999999ADDGD12991+0300019GF104991999999999999999999GP10060034102008029302015020002008GQ100600613926969GR100600635913249MA1102241999999MW1001REMMET058KESC 232255Z AUTO 17007KT 10SM SCT100 19/14 A3019 RMK AO1;EQDQ01+000000PRSWM2
0299726480999992000081000003+45750-087020FM-15+0187KESC V0201301N001510150019N0160931N1+02101+01701999999ADDGD12991+0129019GD23991+0150019GF107991999999999999999999GP10060008602008001102015008402008GQ100600748927699GR100600348913309KA1999M+02401KA2999N+02101MA1101491999999MD1210071+9999MW1001REMMET083KESC 092355Z AUTO 13003KT 10SM SCT043 BKN050 21/17 A2997 RMK AO1 10240 20210 52007;EQDQ01+000000PRSWM2
0133726480999992000081216154+45750-087020FM-15+0187KESC V0202001N004612200019N0160931N1+02301+01601999999ADDGF100991999999999999999999MA1101901999999MW1001REMMET055KESC 121615Z AUTO 20009KT 10SM CLR 23/16 A3009 RMK AO1;EQDQ01+000000PRSWM2
0252726480999992000081517003+45750-087020FM-15+0187KESC V0203301N004612200019N0160931N1+02701+01901999999ADDGD12991+0099019GD22991+0126019GF104991999999999999999999GP10060057902008030102015033602008GQ100600365914509GR100601070913329MA1101351999999MW1001OC100821REMMET068KESC 151655Z AUTO 33009G16KT 10SM FEW033 SCT042 27/19 A2993 RMK AO1;EQDQ01+000000PRSWM2
0204726480999992000081903003+45750-087020FM-15+0187KESC V0203401N001512200019N0160931N1+01101+00701999999ADDGF100991999999999999999999GP10060000002000000002000000002000GR100600000900009MA1102401999999MD1210171+9999MW1001REMMET061KESC 190255Z AUTO 34003KT 10SM CLR 11/07 A3024 RMK AO1 52017;EQDQ01+000000PRSWM2
0219726480999992000082616003+45750-087020FM-15+0187KESC V0200101N003110018019N0160931N1+01901+01801999999ADDGD14991+0018019GF108991999999999999999999GP10060029602008001802015028402008GQ100600465912919GR100600921913389MA1101321999999MW1001REMMET058KESC 261555Z AUTO 01006KT 10SM OVC006 19/18 A2992 RMK AO1;EQDQ01+000000PRSWM2
0293726480999992000090212003+45750-087020FM-15+0187KESC V0200501N002610009019N0112651N1+01301+01301999999ADDAA124004391GD14991+0009019GF108991999999999999999999GP10060000002008000002015000002008GQ100600862908269GR100600070910639KA1999M+01401KA2999N+01301MA1101931999999MD1410001+9999MW1001REMMET081KESC 021155Z AUTO 05005KT 7SM OVC003 13/13 A3010 RMK AO1 70017 10140 20130 54000;EQDQ01+000000PRSWM2
0202726480999992000090302003+45750-087020FM-15+0187KESC V0200801N003610039019N0160931N1+01701+01501999999ADDGD14991+0039019GF108991999999999999999999GP10060000002000000002000000002000GR100600000900009MA1101661999999MW1001REMMET058KESC 030155Z AUTO 08007KT 10SM OVC013 17/15 A3002 RMK AO1;EQDQ01+000000PRSWM2
0295726480999992000090309003+45750-087020FM-15+0187KESC V0201801N002610012019N0032181N1+01601+01601999999ADDAA101006691AA203006691GD14991+0012019GF108991999999999999999999GP10060000002000000002000000002000GR100600000900009MA1101251999999MD1710171+9999MW1171REMMET099KESC 030855Z AUTO 18005KT 2SM TS OVC004 16/16 A2990 RMK AO1 LTG DSNT ALQDS TSB36 P0026 60026 57017;EQDQ01+000003PRSWM1Q02    003PRSWM1
0224726480999992000091013003+45750-087020FM-15+0187KESC V0201901N002612200019N0080461N1+02101+02001999999ADDGD12991+0117019GF102991999999999999999999GP10060005402008000002015005402008GQ100600787909489GR100600264913489MA1101051999999MW1001REMMET063KESC 101255Z AUTO 19005KT 5SM FEW039 21/20 A2984 RMK AO1 TSE11;EQDQ01+000000PRSWM2
0184726480999992000091604003+45750-087020FM-15+0187KESC V0203001N002112200019N0160931N1+00401+00201999999ADDGF100991999999999999999999GP10060000002000000002000000002000GR100600000900009MA1102101999999MW1001REMMET055KESC 160355Z AUTO 30004KT 10SM CLR 04/02 A3015 RMK AO1;EQDQ01+000000PRSWM2
0232726480999992000091821003+45750-087020FM-15+0187KESC V0202001N008712200019N0160931N1+02301+01501999999ADDGF100991999999999999999999GP10060049302008062102015016002008GQ100600576923249GR100600726913549MA1100441999999MD1710301+9999MW1001OC101341REMMET064KESC 182055Z AUTO 20017G26KT 10SM CLR 23/15 A2966 RMK AO1 57030;EQDQ01+000000PRSWM2
0204726480999992000091903003+45750-087020FM-15+0187KESC V0202001N003112200019N0160931N1+02001+01601999999ADDGF100991999999999999999999GP10060000002000000002000000002000GR100600000900009MA1100411999999MD1710031+9999MW1001REMMET061KESC 190255Z AUTO 20006KT 10SM CLR 20/16 A2965 RMK AO1 57003;EQDQ01+000000PRSWM2
0310726480999992000092400003+45750-087020FM-15+0187KESC V0203301N005110150019N0160931N1+00801+00401999999ADDGD12991+0078019GD23991+0150019GF107991999999999999999999GP10060000602008000002015000602008GQ100600867926629GR100600054909399KA1999M+01601KA2999N+00801MA1101691999999MD1210271+9999MW1001OC100871REMMET086KESC 232355Z AUTO 33010G17KT 10SM FEW026 BKN055 08/04 A3003 RMK AO1 10160 20080 52027;EQDQ01+000000PRSWM2
0184726480999992000092507003+45750-087020FM-15+0187KESC V0202801N001512200019N0160931N1+00101+00101999999ADDGF100991999999999999999999GP10060000002000000002000000002000GR100600000900009MA1101901999999MW1001REMMET055KESC 250655Z AUTO 28003KT 10SM CLR 01/01 A3009 RMK AO1;EQDQ01+000000PRSWM2
0219726480999992000092520003+45750-087020FM-15+0187KESC V0201601N001510180019N0160931N1+01501+00301999999ADDGD13991+0180019GF107991999999999999999999GP10060045502008032702015025802008GQ100600530921549GR100600818913609MA1101901999999MW1001REMMET058KESC 251955Z AUTO 16003KT 10SM BKN060 15/03 A3009 RMK AO1;EQDQ01+000000PRSWM2
0201726480999992000092617003+45750-087020FM-15+0187KESC V0202601N006212200019N0160931N1+01901+00501999999ADDGF100991999999999999999999GP10060059302008065202015017102008GQ100600498915719GR100600878913619MA1101321999999MW1001REMMET055KESC 261655Z AUTO 26012KT 10SM CLR 19/05 A2992 RMK AO1;EQDQ01+000000PRSWM2
0195726480999992000093001003+45750-087020FM-15+0187KESC V0202001N006212200019N0160931N1+01601+01201999999ADDGF100991999999999999999999GP10060000002000000002000000002000GR100600000900009MA1101321999999MW1001OC100931REMMET058KESC 300055Z AUTO 20012G18KT 10SM CLR 16/12 A2992 RMK AO1;EQDQ01+000000PRSWM2
0213726480999992000100101003+45750-087020FM-15+0187KESC V0202101N005112200019N0160931N1+01601+01301999999ADDGD12991+0330019GF102991999999999999999999GP10060000002000000002000000002000GR100600000900009MA1101021999999MW1001OC100771REMMET061KESC 010055Z AUTO 21010G15KT 10SM FEW110 16/13 A2983 RMK AO1;EQDQ01+000000PRSWM2
0202726480999992000100319003+45750-087020FM-15+0187KESC V0202601N003612200019N0160931N1+01801-00101999999ADDGF100991999999999999999999GP10060030102008006602015026002008GQ100600515919699GR100600850913669MA1101351999999MW1001REMMET056KESC 031855Z AUTO 26007KT 10SM CLR 18/M01 A2993 RMK AO1;EQDQ01+000000PRSWM2
0202726480999992000101507003+45750-087020FM-15+0187KESC V0200301N003110045019N0160931N1+00701+00401999999ADDGD14991+0045019GF108991999999999999999999GP10060000002000000002000000002000GR100600000900009MA1101931999999MW1001REMMET058KESC 150655Z AUTO 03006KT 10SM OVC015 07/04 A3010 RMK AO1;EQDQ01+000000PRSWM2
0253726480999992000102000003+45750-087020FM-15+0187KESC V0201901N005112200019N0160931N1+01301+01101999999ADDGF100991999999999999999999GP10060000002000000002000000002000GR100600000900009KA1999M+01501KA2999N+01301MA1101491999999MD1710141+9999MW1001OC100721REMMET076KESC 192355Z AUTO 19010G14KT 10SM CLR 13/11 A2997 RMK AO1 10150 20130 57014;EQDQ01+000000PRSWM2
0204726480999992000102003003+45750-087020FM-15+0187KESC V0202101N004612200019N0160931N1+01301+01101999999ADDGF100991999999999999999999GP10060000002000000002000000002000GR100600000900009MA1101321999999MD1710171+9999MW1001REMMET061KESC 200255Z AUTO 21009KT 10SM CLR 13/11 A2992 RMK AO1 57017;EQDQ01+000000PRSWM2
0244726480999992000102322003+45750-087020FM-15+0187KESC V0209999C000010180019N0040231N1+01401+01301999999ADDGD12991+0018019GD23991+0180019GF107991999999999999999999GP10060008402009005002021007402009GQ100600783923939GR100600280913829MA1102681999999MW1001REMMET068KESC 232155Z AUTO 00000KT 2 1/2SM SCT006 BKN060 14/13 A3032 RMK AO1;EQDQ01+000000PRSWM2
0221726480999992000102603003+45750-087020FM-15+0187KESC V0201901N003110006019N0080461N1+01301+01201999999ADDGD14991+0006019GF108991999999999999999999GP10060000002000000002000000002000GR100600000900009MA1101931999999MD1710071+9999MW1001REMMET063KESC 260255Z AUTO 19006KT 5SM OVC002 13/12 A3010 RMK AO1 57007;EQDQ01+000000PRSWM2
0135726480999992000103007354+45750-087020FM-15+0187KESC V0209999C000012200019N0160931N1-00401-00401999999ADDGF100991999999999999999999MA1102741999999MW1001REMMET057KESC 300735Z AUTO 00000KT 10SM CLR M04/M04 A3034 RMK AO1;EQDQ01+000000PRSWM2
0098726480999992000110106354+45750-087020FM-15+0187KESC V02099999999992200019N9999999N1+00601+00501999999ADDMA1102101999999MW1001REMMET046KESC 010635Z AUTO 5SM CLR 06/05 A3015 RMK AO1;EQDQ01+000000PRSWM2
0102726480999992000110120354+45750-087020FM-15+0187KESC V02099999999992200019N9999999N1+01401+00801999999ADDMA1101731999999MW1001REMMET050KESC 012035Z AUTO 10SM OVC036 14/08 A3004 RMK AO1;EQDQ01+000000PRSWM2
0099726480999992000110305354+45750-087020FM-15+0187KESC V02099999999992200019N9999999N1+01001+00201999999ADDMA1101461999999MW1001REMMET047KESC 030535Z AUTO 10SM CLR 10/02 A2996 RMK AO1;EQDQ01+000000PRSWM2
0100726480999992000110313354+45750-087020FM-15+0187KESC V02099999999992200019N9999999N1+00601-00201999999ADDMA1101591999999MW1001REMMET048KESC 031335Z AUTO 10SM CLR 06/M02 A3000 RMK AO1;EQDQ01+000000PRSWM2
0054726480999992000110612009+45750-087033NSRDB+018799999V020999999999999999999999999999+99999+99999999999ADDGP10060000002000000002000000002000GR100600000900009
0054726480999992000110805009+45750-087033NSRDB+018799999V020999999999999999999999999999+99999+99999999999ADDGP10060000002000000002000000002000GR100600000900009
0151726480999992000111208354+45750-087020FM-15+0187KESC V0200301N003610063019N0160931N1+00201+00001999999ADDGD14991+0063019GF108991999999999999999999MA1102471999999MW1001REMMET058KESC 120835Z AUTO 03007KT 10SM OVC021 02/00 A3026 RMK AO1;EQDQ01+000000PRSWM2
0054726480999992000111402009+45750-087033NSRDB+018799999V020999999999999999999999999999+99999+99999999999ADDGP10060000002000000002000000002000GR100600000900009
0207726480999992000111419354+45750-087020FM-15+0187KESC V0202801N007212200019N0160931N1+00101-00201999999ADDGD12991+0054019GD22991+0075019GD32991+0210019GF104991999999999999999999MA1100611999999MW1001OC100871REMMET076KESC 141935Z AUTO 28014G17KT 10SM FEW018 FEW025 SCT070 01/M02 A2971 RMK AO1;EQDQ01+000000PRSWM2
0135726480999992000111703354+45750-087020FM-15+0187KESC V0202901N005712200019N0160931N1-00301-00601999999ADDGF100991999999999999999999MA1100681999999MW1001REMMET057KESC 170335Z AUTO 29011KT 10SM CLR M03/M06 A2973 RMK AO1;EQDQ01+000000PRSWM2
0175726480999992000111722354+45750-087020FM-15+0187KESC V0202801N004610108019N0160931N1-00201-00601999999ADDGD12991+0084019GD24991+0108019GF108991999999999999999999MA1101631999999MW1001REMMET067KESC 172235Z AUTO 28009KT 10SM SCT028 OVC036 M02/M06 A3001 RMK AO1;EQDQ01+000000PRSWM2
0153726480999992000111900354+45750-087020FM-15+0187KESC V0202601N003110096019N0160931N1-00401-00701999999ADDGD13991+0096019GF107991999999999999999999MA1101191999999MW1001REMMET060KESC 190035Z AUTO 26006KT 10SM BKN032 M04/M07 A2988 RMK AO1;EQDQ01+000000PRSWM2
0054726480999992000111904009+45750-087033NSRDB+018799999V020999999999999999999999999999+99999+99999999999ADDGP10060000002000000002000000002000GR100600000900009
0153726480999992000111907354+45750-087020FM-15+0187KESC V0202401N004610084019N0160931N1-00601-01001999999ADDGD14991+0084019GF108991999999999999999999MA1101251999999MW1001REMMET060KESC 190735Z AUTO 24009KT 10SM OVC028 M06/M10 A2990 RMK AO1;EQDQ01+000000PRSWM2
0153726480999992000112315354+45750-087020FM-15+0187KESC V0202701N002112200019N0160931N1-00601-01201999999ADDGD12991+0240019GF102991999999999999999999MA1102571999999MW1001REMMET060KESC 231535Z AUTO 27004KT 10SM FEW080 M06/M12 A3029 RMK AO1;EQDQ01+000000PRSWM2
0134726480999992000112418354+45750-087020FM-15+0187KESC V0202401N004112200019N0160931N1+00201-00501999999ADDGF100991999999999999999999MA1101831999999MW1001REMMET056KESC 241835Z AUTO 24008KT 10SM CLR 02/M05 A3007 RMK AO1;EQDQ01+000000PRSWM2
0071726480999992000112620009+45750-087033NSRDB+018799999V020999999999999999999999999999+99999+99999999999ADDGP10060022602009035702021011402009GQ100600718920809GR100600440914059
0054726480999992000112803009+45750-087033NSRDB+018799999V020999999999999999999999999999+99999+99999999999ADDGP10060000002000000002000000002000GR100600000900009
0054726480999992000112806009+45750-087033NSRDB+018799999V020999999999999999999999999999+99999+99999999999ADDGP10060000002000000002000000002000GR100600000900009
0071726480999992000112814009+45750-087033NSRDB+018799999V020999999999999999999999999999+99999+99999999999ADDGP10060000002009000002021000002009GQ100600865912579GR100600075912309
0071726480999992000113019009+45750-087033NSRDB+018799999V020999999999999999999999999999+99999+99999999999ADDGP10060012202009000002021012202009GQ100600687919329GR100600512914079
0071726480999992000113023009+45750-087033NSRDB+018799999V020999999999999999999999999999+99999+99999999999ADDGP10060000002009000002021000002009GQ100600897923819GR100600000900829
0071726480999992000120117009+45750-087033NSRDB+018799999V020999999999999999999999999999+99999+99999999999ADDGP10060027202009041402021012602009GQ100600694916339GR100600494914079
0071726480999992000120221009+45750-087033NSRDB+018799999V020999999999999999999999999999+99999+99999999999ADDGP10060014402009045002021005202009GQ100600783922029GR100600286914089
0054726480999992000120402009+45750-087033NSRDB+018799999V020999999999999999999999999999+99999+99999999999ADDGP10060000002000000002000000002000GR100600000900009
0207726480999992000120412354+45750-087020FM-15+0187KESC V0202201N004610024019N0048281N1-00301-00401999999ADDGD12991+0003019GD23991+0024019GD34991+0036019GF108991999999999999999999MA1101761999999MW1001OC100821REMMET076KESC 041235Z AUTO 22009G16KT 3SM SCT001 BKN008 OVC012 M03/M04 A3005 RMK AO1;EQDQ01+000000PRSWM2
0135726480999992000120608354+45750-087020FM-15+0187KESC V0202701N005112200019N0160931N1-01501-01901999999ADDGF100991999999999999999999MA1102131999999MW1001REMMET057KESC 060835Z AUTO 27010KT 10SM CLR M15/M19 A3016 RMK AO1;EQDQ01+000000PRSWM2
0201726480999992000121404354+45750-087020FM-15+0187KESC V0203501N002610033019N0048281N1-01101-01301999999ADDGD12991+0003019GD23991+0033019GD34991+0063019GF108991999999999999999999MA1102511999999MW1001REMMET078KESC 140435Z AUTO 35005KT 3SM FEW001 BKN011 OVC021 M11/M13 A3027 RMK AO1 TSNO;EQDQ01+000000PRSWM2
0054726480999992000121807009+45750-087033NSRDB+018799999V020999999999999999999999999999+99999+99999999999ADDGP10060000002000000002000000002000GR100600000900009
0196726480999992000122103354+45750-087020FM-15+0187KESC V0200401N002110033019N0048281N1-00801-00901999999ADDGD12991+0003019GD23991+0033019GD34991+0045019GF108991999999999999999999MA1101321999999MW1001REMMET073KESC 210335Z AUTO 04004KT 3SM FEW001 BKN011 OVC015 M08/M09 A2992 RMK AO1;EQDQ01+000000PRSWM2
0215726480999992000122720354+45750-087020FM-15+0187KESC V0203301N006210093019N0144841N1-00901-01501999999ADDGD12991+0066019GD23991+0093019GD33991+0210019GF107991999999999999999999MA1102401999999MW1001OC100821REMMET084KESC 272035Z AUTO 33012G16KT 300V360 9SM SCT022 BKN031 BKN075 M09/M15 A3024 RMK AO1;EQDQ01+000000PRSWM2
0153726480999992000122923354+45750-087020FM-15+0187KESC V0200201N003610033019N0160931N1-00501-00701999999ADDGD14991+0033019GF108991999999999999999999MA1102031999999MW1001REMMET060KESC 292335Z AUTO 02007KT 10SM OVC011 M05/M07 A3013 RMK AO1;EQDQ01+000000PRSWM2
0054726480999992000123004009+45750-087033NSRDB+018799999V020999999999999999999999999999+99999+99999999999ADDGP10060000002000000002000000002000GR100600000900009
0164726480999992000123019354+45750-087020FM-15+0187KESC V0203601N007210066019N0160931N1-00201-00701999999ADDGD14991+0066019GF108991999999999999999999MA1102001999999MW1001OC100981REMMET063KESC 301935Z AUTO 36014G19KT 10SM OVC022 M02/M07 A3012 RMK AO1;EQDQ01+000000PRSWM2
0244726487999992000010512003+45130-087630FM-15+0191KMNM V0203001N002112200019N0160931N1-01801-02101999999ADDGF100991999999999999999999GP10060000002000000002000000002000GR100600000900009KA1999M-01301KA2999N-01801MA1102401999999MD1210071+9999MW1001REMMET075KMNM 051155Z AUTO 30004KT 10SM CLR M18/M21 A3024 RMK AO1 11130 21180 52007;EQDQ01+000000PRSWM2
0316726487999992000011018003+45130-087630FM-15+0191KMNM V0202601N003610024019N0160931N1+00301+00101999999ADDAA106001891GD13991+0024019GD24991+0036019GF108991999999999999999999GP10060008002009000002021008002009GQ100600675917309GR100600542914159KA1999M+00401KA2999N+00201MA1098511999999MD1710171+9999MW1001REMMET089KMNM 101755Z AUTO 26007KT 10SM BKN008 OVC012 03/01 A2909 RMK AO1 60007 10040 20020 57017;EQDQ01+000000PRSWM2
0244726487999992000011200003+45130-087630FM-15+0191KMNM V0203301N004612200019N0160931N1-00601-01401999999ADDGF100991999999999999999999GP10060000002000000002000000002000GR100600000900009KA1999M+00101KA2999N-00601MA1101421999999MD1210411+9999MW1001REMMET075KMNM 112355Z AUTO 33009KT 10SM CLR M06/M14 A2995 RMK AO1 10010 21060 52041;EQDQ01+000000PRSWM2
0203726487999992000012014003+45130-087630FM-15+0191KMNM V0203101N003112200019N0160931N1-01701-02001999999ADDGF100991999999999999999999GP10060000302009011502021000102009GQ100600876912189GR100600035908369MA1101691999999MW1001REMMET057KMNM 201355Z AUTO 31006KT 10SM CLR M17/M20 A3003 RMK AO1;EQDQ01+000000PRSWM2
0214726487999992000012019003+45130-087630FM-15+0191KMNM V0203001N005112200019N0160931N1-01101-01901999999ADDGF100991999999999999999999GP10060026702009019702021018502009GQ100600657918739GR100600582914139MA1101661999999MW1001OC100721REMMET060KMNM 201855Z AUTO 30010G14KT 10SM CLR M11/M19 A3002 RMK AO1;EQDQ01+000000PRSWM2
0254726487999992000012406003+45130-087630FM-15+0191KMNM V0202601N002112200019N0160931N1-01801-02401999999ADDGF100991999999999999999999GP10060000002000000002000000002000GR100600000900009KA1999M-01401KA2999N-01801MA1101801999999MD1210071+9999MW1001REMMET085KMNM 240555Z AUTO 26004KT 10SM CLR M18/M24 A3006 RMK AO1 11140 21180 410701180 52007;EQDQ01+000000PRSWM2
0203726487999992000012422003+45130-087630FM-15+0191KMNM V0202201N005712200019N0160931N1-01001-01601999999ADDGF100991999999999999999999GP10060012002009035002021005702009GQ100600797922909GR100600252914129MA1101291999999MW1001REMMET057KMNM 242155Z AUTO 22011KT 10SM CLR M10/M16 A2991 RMK AO1;EQDQ01+000000PRSWM2
0276726487999992000012519003+45130-087630FM-15+0191KMNM V0200101N007210099019N0160931N1-00601-01301999999ADDGD12991+0078019GD23991+0099019GD33991+0132019GF107991999999999999999999GP10060031402009029302021018802009GQ100600645918719GR100600607914119MA1101831999999MW1001OC100981REMMET077KMNM 251855Z AUTO 01014G19KT 10SM SCT026 BKN033 BKN044 M06/M13 A3007 RMK AO1;EQDQ01+000000PRSWM2
0296726487999992000012521003+45130-087630FM-15+0191KMNM V0203501N006710090019N0160931N1-00701-01501999999ADDGD12991+0063019GD23991+0090019GD34991+0105019GF108991999999999999999999GP10060009702009000002021009702009GQ100600723921649GR100600428914119MA1101861999999MD1210031+9999MW1001OC101031REMMET083KMNM 252055Z AUTO 35013G20KT 10SM FEW021 BKN030 OVC035 M07/M15 A3008 RMK AO1 52003;EQDQ01+000000PRSWM2
0204726487999992000020113003+45130-087630FM-15+0191KMNM V0203301N003610117019N0160931N1-00401-01101999999ADDGD14991+0117019GF108991999999999999999999GP10060000002000000002000000002000GR100600000900009MA1102001999999MW1001REMMET060KMNM 011255Z AUTO 33007KT 10SM OVC039 M04/M11 A3012 RMK AO1;EQDQ01+000000PRSWM2
0186726487999992000020211003+45130-087630FM-15+0191KMNM V0209999C000012200019N0160931N1-01401-01601999999ADDGF100991999999999999999999GP10060000002000000002000000002000GR100600000900009MA1102441999999MW1001REMMET057KMNM 021055Z AUTO 00000KT 10SM CLR M14/M16 A3025 RMK AO1;EQDQ01+000000PRSWM2
0228726487999992000021013003+45130-087630FM-15+0191KMNM V0200401N006210030019N9999999N1-00701-00901999999ADDGD13991+0030019GD24991+0051019GF108991999999999999999999GP10060000002000000002000000002000GR100600000900009MA1101561999999MW1001REMMET069KMNM 101255Z AUTO 04012KT BKN002 BKN010 OVC017 M07/M09 A2999 RMK AO1;EQDQ01+000000PRSWM2
0220726487999992000021517003+45130-087630FM-15+0191KMNM V0201601N003610003019N0016091N1-00301-00601999999ADDGD14991+0003019GF108991999999999999999999GP10060008902009000002021008902009GQ100600618915379GR100600662914029MA1101521999999MW1001REMMET059KMNM 151655Z AUTO 16007KT 1SM OVC001 M03/M06 A2998 RMK AO1;EQDQ01+000000PRSWM2
0221726487999992000021814003+45130-087630FM-15+0191KMNM V0203501N002110051019N0160931N1-00701-00801999999ADDGD14991+0051019GF108991999999999999999999GP10060006702009006602021005902009GQ100600837911359GR100600153914009MA1102371999999MW1001REMMET060KMNM 181355Z AUTO 35004KT 10SM OVC017 M07/M08 A3023 RMK AO1;EQDQ01+000000PRSWM2
0204726487999992000021902003+45130-087630FM-15+0191KMNM V0203501N002110093019N0160931N1-00301-00701999999ADDGD14991+0093019GF108991999999999999999999GP10060000002000000002000000002000GR100600000900009MA1102171999999MW1001REMMET060KMNM 190155Z AUTO 35004KT 10SM OVC031 M03/M07 A3017 RMK AO1;EQDQ01+000000PRSWM2
0203726487999992000022016003+45130-087630FM-15+0191KMNM V0202501N003612200019N0160931N1-00201-01001999999ADDGF100991999999999999999999GP10060024602009016002021018102009GQ100600661913809GR100600567913999MA1102401999999MW1001REMMET057KMNM 201555Z AUTO 25007KT 10SM CLR M02/M10 A3024 RMK AO1;EQDQ01+000000PRSWM2
0238726487999992000022415003+45130-087630FM-15+0191KMNM V0200601N004610111019N0128741N1+00301+00101999999ADDGD14991+0111019GF108991999999999999999999GP10060006602009000002021006602009GQ100600728912409GR100600413913969MA1101491999999MD1710031+9999MW1001REMMET063KMNM 241455Z AUTO 06009KT 8SM OVC037 03/01 A2997 RMK AO1 57003;EQDQ01+000000PRSWM2
0260726487999992000022607003+45130-087630FM-15+0191KMNM V0201601N005710003019N0028161N1+00701+00601999999ADDGD13991+0003019GD23991+0066019GD34991+0102019GF108991999999999999999999GP10060000002000000002000000002000GR100600000900009MA1100811999999MW1001OC100931REMMET078KMNM 260655Z AUTO 16011G18KT 1 3/4SM BKN001 BKN022 OVC034 07/06 A2977 RMK AO1;EQDQ01+000000PRSWM2
0221726487999992000030213003+45130-087630FM-15+0191KMNM V0203501N003610093019N0160931N1-00101-00901999999ADDGD14991+0093019GF108991999999999999999999GP10060000102009007902021000002009GQ100600875910229GR100600033907549MA1102541999999MW1001REMMET060KMNM 021255Z AUTO 35007KT 10SM OVC031 M01/M09 A3028 RMK AO1;EQDQ01+000000PRSWM2
0205726487999992000030403003+45130-087630FM-15+0191KMNM V0202201N003612200019N0160931N1+00301-00601999999ADDGF100991999999999999999999GP10060000002000000002000000002000GR100600000900009MA1101191999999MD1710101+9999MW1001REMMET062KMNM 040255Z AUTO 22007KT 10SM CLR 03/M06 A2988 RMK AO1 57010;EQDQ01+000000PRSWM2
0185726487999992000030504003+45130-087630FM-15+0191KMNM V0200401N001512200019N0160931N1+00001-00401999999ADDGF100991999999999999999999GP10060000002000000002000000002000GR100600000900009MA1101121999999MW1001REMMET056KMNM 050355Z AUTO 04003KT 10SM CLR 00/M04 A2986 RMK AO1;EQDQ01+000000PRSWM2
0203726487999992000031020003+45130-087630FM-15+0191KMNM V0200901N004612200019N0160931N1-00401-01101999999ADDGF100991999999999999999999GP10060062102009068502021020702009GQ100600529920839GR100600836913869MA1102471999999MW1001REMMET057KMNM 101955Z AUTO 09009KT 10SM CLR M04/M11 A3026 RMK AO1;EQDQ01+000000PRSWM2
0071726487999992000031718009+45133-087633NSRDB+019199999V020999999999999999999999999999+99999+99999999999ADDGP10060072402008089002015011202008GQ100600467917019GR100600946913809
0223726487999992000032109003+45130-087630FM-15+0191KMNM V0209999C000010003019N0012071N1+00401+00201999999ADDGD14991+0003019GF108991999999999999999999GP10060000002000000002000000002000GR100600000900009MA1102341999999MD1210071+9999MW1001REMMET065KMNM 210855Z AUTO 00000KT 3/4SM OVC001 04/02 A3022 RMK AO1 52007;EQDQ01+000000PRSWM2
0231726487999992000032917003+45130-087630FM-15+0191KMNM V0202901N004110093019N0160931N1+00401-00501999999ADDGD13991+0093019GF107991999999999999999999GP10060052702008025402015034902008GQ100600456914969GR100600959913719MA1101421999999MW1001OC100721REMMET062KMNM 291655Z AUTO 29008G14KT 10SM BKN031 04/M05 A2995 RMK AO1;EQDQ01+000000PRSWM2
0176726487999992000040309003+45130-087630FM-15+0191KMNM V0201701N002612200019N9999999N1+00701+00201999999ADDGP10060000002000000002000000002000GR100600000900009MA1100541999999MD1710201+9999MW1001REMMET059KMNM 030855Z AUTO 17005KT SCT090 07/02 A2969 RMK AO1 57020;EQDQ01+000000PRSWM2
0254726487999992000040506003+45130-087630FM-15+0191KMNM V0202601N001512200019N0160931N1-00501-00901999999ADDGF100991999999999999999999GP10060000002000000002000000002000GR100600000900009KA1999M+00301KA2999N-00501MA1101251999999MD1410001+9999MW1001REMMET085KMNM 050555Z AUTO 26003KT 10SM CLR M05/M09 A2990 RMK AO1 10030 21050 400501050 54000;EQDQ01+000000PRSWM2
0245726487999992000041309003+45130-087630FM-15+0191KMNM V0201601N003610240019N0160931N1+00201-00301999999ADDGD12991+0180019GD23991+0240019GF107991999999999999999999GP10060000002000000002000000002000GR100600000900009MA1102911999999MD1710141+9999MW1001REMMET072KMNM 130855Z AUTO 16007KT 10SM FEW065 BKN080 02/M03 A3039 RMK AO1 57014;EQDQ01+000000PRSWM2
0071726487999992000041500009+45133-087633NSRDB+019199999V020999999999999999999999999999+99999+99999999999ADDGP10060011602008030502015006002008GQ100600794927339GR100600250913589
0054726487999992000041506009+45133-087633NSRDB+019199999V020999999999999999999999999999+99999+99999999999ADDGP10060000002000000002000000002000GR100600000900009
0242726487999992000041520003+45130-087630FM-15+0191KMNM V0200101N005710075019N0160931N1+00501-00201999999ADDGD13991+0075019GD24991+0117019GF108991999999999999999999GP10060046102008014902015034802008GQ100600412921899GR100601021913579MA1101931999999MW1001REMMET066KMNM 151955Z AUTO 01011KT 10SM BKN025 OVC039 05/M02 A3010 RMK AO1;EQDQ01+000000PRSWM2
0201726487999992000042713003+45130-087630FM-15+0191KMNM V0201101N003112200019N0160931N1+00901+00001999999ADDGF100991999999999999999999GP10060026502008058702015009102008GQ100600727908739GR100600400913489MA1101521999999MW1001REMMET055KMNM 271255Z AUTO 11006KT 10SM CLR 09/00 A2998 RMK AO1;EQDQ01+000000PRSWM2
0230726487999992000051314003+45130-087630FM-15+0191KMNM V0202601N005710180019N0160931N1+00901+00101999999ADDGD13991+0180019GF107991999999999999999999GP10060038002008029502015022702008GQ100600589909469GR100600690913379MA1100371999999MW1001OC101131REMMET061KMNM 131355Z AUTO 26011G22KT 10SM BKN060 09/01 A2964 RMK AO1;EQDQ01+000000PRSWM2
0283726487999992000051611003+45130-087630FM-15+0191KMNM V0209999C000010045019N0024141N1+00901+00701999999ADDAA101004391GD12991+0003019GD23991+0045019GD34991+0087019GF108991999999999999999999GP10060000102008000002015000102008GQ100600872906509GR100600042908579MA1101631999999MW1001REMMET081KMNM 161055Z AUTO 00000KT 1 1/2SM SCT001 BKN015 OVC029 09/07 A3001 RMK AO1 P0017;EQDQ01+000000PRSWM2
0081726487999992000051703154+45130-087630FM-15+0191KMNM V02099999999992200019N9999999N1+00801+00601999999ADDMW1001REMMET044KMNM 170315Z AUTO 10SM SCT014 08/06 RMK AO1;EQDQ01+000000PRSWM2
0173726487999992000051717003+45130-087630FM-15+0191KMNM V0201401N003612200019N9999999N1+01101+00701999999ADDGP10060022702008000002015022702008GQ100600303914229GR100601152913359MA1101421999999MW1001REMMET053KMNM 171655Z AUTO 14007KT OVC005 11/07 A2995 RMK AO1;EQDQ01+000000PRSWM2
0253726487999992000051906003+45130-087630FM-15+0191KMNM V0200101N004112200019N0160931N1+00201-00601999999ADDGF100991999999999999999999GP10060000002000000002000000002000GR100600000900009KA1999M+00901KA2999N+00201MA1102301999999MD1210101+9999MW1001REMMET084KMNM 190555Z AUTO 01008KT 10SM CLR 02/M06 A3021 RMK AO1 10090 20020 401200020 52010;EQDQ01+000000PRSWM2
0305726487999992000052205003+45130-087630FM-15+0191KMNM V0201201N003110105019N0096561N1+01101+00801999999ADDAA101009791GD13991+0105019GD23991+0138019GD33991+0150019GF107991999999999999999999GP10060000002000000002000000002000GR100600000900009MA1100951999999MW1171REMMET104KMNM 220455Z AUTO 12006KT 6SM TS BKN035 BKN046 BKN055 11/08 A2981 RMK AO1 LTG DSNT NE AND E TSB09 P0038;EQDQ01+000003PRSWM1Q02    003PRSWM1
0071726487999992000053113009+45133-087633NSRDB+019199999V020999999999999999999999999999+99999+99999999999ADDGP10060030302008039502015015102008GQ100600674908109GR100600511913289
0201726487999992000060101003+45130-087630FM-15+0191KMNM V0209999C000012200019N0160931N1+01801+00801999999ADDGF100991999999999999999999GP10060006502008011502015004802008GQ100600813929299GR100600200913289MA1101761999999MW1001REMMET055KMNM 010055Z AUTO 00000KT 10SM CLR 18/08 A3005 RMK AO1;EQDQ01+000000PRSWM2
0240726487999992000060321003+45130-087630FM-15+0191KMNM V0202001N005712200019N0160931N1+01801+00501999999ADDGF100991999999999999999999GP10060015502008000002015015502008GQ100600399924879GR100601017913279MA1102371999999MD1710271+9999MW1001OC100721REMMET072KMNM 032055Z AUTO 20011G14KT 190V250 10SM CLR 18/05 A3023 RMK AO1 57027;EQDQ01+000000PRSWM2
0200726487999992000060616003+45130-087630FM-15+0191KMNM V0202601N002612200019N0128741N1+02101+00801999999ADDGF100991999999999999999999GP10060078002008078502015014502008GQ100600361911699GR100601070913269MA1102371999999MW1001REMMET054KMNM 061555Z AUTO 26005KT 8SM CLR 21/08 A3023 RMK AO1;EQDQ01+000000PRSWM2
0337726487999992000060800003+45130-087630FM-15+0191KMNM V0201801N002110240019N0128741N1+01701+01101999999ADDAA106000391GD12991+0081019GD22991+0138019GD33991+0240019GF107991999999999999999999GP10060004602008000002015004602008GQ100600706928349GR100600439913269KA1999M+02201KA2999N+01701MA1101561999999MD1710071+9999MW1001REMMET095KMNM 072355Z AUTO 18004KT 8SM FEW027 FEW046 BKN080 17/11 A2999 RMK AO1 60001 10220 20170 57007;EQDQ01+000000PRSWM2
0274726487999992000061417003+45130-087630FM-15+0191KMNM V0202101N010310087019N0160931N1+02201+01601999999ADDGD12991+0072019GD23991+0087019GD33991+0132019GF107991999999999999999999GP10060064402008027102015040302008GQ100600275913679GR100601174913249MA1100441999999MW1001OC101231REMMET075KMNM 141655Z AUTO 21020G24KT 10SM SCT024 BKN029 BKN044 22/16 A2966 RMK AO1;EQDQ01+000000PRSWM2
0259726487999992000062000003+45130-087630FM-15+0191KMNM V0201501N005112200019N0160931N1+02001+01201999999ADDGF100991999999999999999999GP10060028202008058002015008202008GQ100600698928349GR100600456913239KA1999M+02301KA2999N+01901MA1101831999999MD1710171+9999MW1001REMMET073KMNM 192355Z AUTO 15010KT 10SM CLR 20/12 A3007 RMK AO1 10230 20190 57017;EQDQ01+000000PRSWM2
0201726487999992000062313003+45130-087630FM-15+0191KMNM V0209999C000012200019N0160931N1+01901+01401999999ADDGF100991999999999999999999GP10060032302008052602015012002008GQ100600672907919GR100600511913229MA1101561999999MW1001REMMET055KMNM 231255Z AUTO 00000KT 10SM CLR 19/14 A2999 RMK AO1;EQDQ01+000000PRSWM2
0201726487999992000062608003+45130-087630FM-15+0191KMNM V0201501N003110330019N0096561N1+01801+01501999999ADDGD13991+0330019GF107991999999999999999999GP10060000002000000002000000002000GR100600000900009MA1101021999999MW1001REMMET057KMNM 260755Z AUTO 15006KT 6SM BKN110 18/15 A2983 RMK AO1;EQDQ01+000000PRSWM2
0277726487999992000070318003+45130-087630FM-15+0191KMNM V0200901N005112200019N0160931N1+01801+01301999999ADDGD12991+0048019GF102991999999999999999999GP10060070702008034202015039202008GQ100600231916549GR100601216913219KA1999M+01801KA2999N+01101MA1101861999999MD1210031+9999MW1001REMMET076KMNM 031755Z AUTO 09010KT 10SM FEW016 18/13 A3008 RMK AO1 10180 20110 52003;EQDQ01+000000PRSWM2
0201726487999992000070402003+45130-087630FM-15+0191KMNM V0201701N002112200019N0160931N1+01601+00901999999ADDGF100991999999999999999999GP10060000202008000002015000202008GQ100600873930069GR100600040908489MA1101691999999MW1001REMMET055KMNM 040155Z AUTO 17004KT 10SM CLR 16/09 A3003 RMK AO1;EQDQ01+000000PRSWM2
0314726487999992000071323003+45130-087630FM-15+0191KMNM V0209999C000012200019N0160931N1+02201+01801999999ADDAA101001591GD12991+0012019GD22991+0180019GD32991+0240019GF104991999999999999999999GP10060015802008000602015015502008GQ100600598927129GR100600664913229MA1101151999999MW1001REMMET112KMNM 132255Z AUTO 00000KT 10SM FEW004 SCT060 SCT085 22/18 A2987 RMK AO1 LTG DSNT NE AND SE AND W TSB38E53 P0006;EQDQ01+000000PRSWM2
0201726487999992000072213003+45130-087630FM-15+0191KMNM V0203401N002112200019N0160931N1+01201+00801999999ADDGF100991999999999999999999GP10060027602008052002015009902008GQ100600701908109GR100600450913239MA1102171999999MW1001REMMET055KMNM 221255Z AUTO 34004KT 10SM CLR 12/08 A3017 RMK AO1;EQDQ01+000000PRSWM2
0236726487999992000072720003+45130-087630FM-15+0191KMNM V0201401N005112200019N0112651N1+02301+01701999999ADDGD12991+0150019GF104991999999999999999999GP10060046902008009602015038902008GQ100600326922379GR100601115913259MA1101421999999MW1001REMMET075KMNM 271955Z AUTO 14010KT 7SM SCT050 23/17 A2995 RMK AO1 LTG DSNT N AND NW;EQDQ01+000000PRSWM2
0200726487999992000073022003+45130-087630FM-15+0191KMNM V0200501N005112200019N0144841N1+02401+01601999999ADDGF100991999999999999999999GP10060034202008011202015027202008GQ100600515925659GR100600824913269MA1101661999999MW1001REMMET054KMNM 302155Z AUTO 05010KT 9SM CLR 24/16 A3002 RMK AO1;EQDQ01+000000PRSWM2
0184726487999992000082102003+45130-087630FM-15+0191KMNM V0209999C000012200019N0160931N1+01401+00801999999ADDGF100991999999999999999999GP10060000002000000002000000002000GR100600000900009MA1102541999999MW1001REMMET055KMNM 210155Z AUTO 00000KT 10SM CLR 14/08 A3028 RMK AO1;EQDQ01+000000PRSWM2
0221726487999992000083015003+45130-087630FM-15+0191KMNM V0201201N006212200019N0160931N1+02101+01201999999ADDGF100991999999999999999999GP10060049102008065402015012802008GQ100600564911439GR100600741913419MA1102171999999MD1210031+9999MW1001REMMET061KMNM 301455Z AUTO 12012KT 10SM CLR 21/12 A3017 RMK AO1 52003;EQDQ01+000000PRSWM2
0150726487999992000090301154+45130-087630FM-15+0191KMNM V0200701N004610030019N0128741N1+01801+01401999999ADDGD14991+0030019GF108991999999999999999999MA1101661999999MW1001REMMET057KMNM 030115Z AUTO 07009KT 8SM OVC010 18/14 A3002 RMK AO1;EQDQ01+000000PRSWM2
0241726487999992000090323003+45130-087630FM-15+0191KMNM V0200101N006710087019N0160931N1+01901+01301999999ADDGD12991+0063019GD24991+0087019GF108991999999999999999999GP10060011102008000602015011002008GQ100600709926079GR100600439913449MA1101561999999MW1001REMMET065KMNM 032255Z AUTO 01013KT 10SM SCT021 OVC029 19/13 A2999 RMK AO1;EQDQ01+000000PRSWM2
0184726487999992000090507003+45130-087630FM-15+0191KMNM V0203601N002112200019N0160931N1+00701+00401999999ADDGF100991999999999999999999GP10060000002000000002000000002000GR100600000900009MA1103011999999MW1001REMMET055KMNM 050655Z AUTO 36004KT 10SM CLR 07/04 A3042 RMK AO1;EQDQ01+000000PRSWM2
0219726487999992000090617003+45130-087630FM-15+0191KMNM V0202201N004112200019N0160931N1+01801+01001999999ADDGD12991+0096019GF102991999999999999999999GP10060071002008074802015015902008GQ100600427915059GR100600989913469MA1102711999999MW1001REMMET058KMNM 061655Z AUTO 22008KT 10SM FEW032 18/10 A3033 RMK AO1;EQDQ01+000000PRSWM2
0184726487999992000090711003+45130-087630FM-15+0191KMNM V0202001N004112200019N0160931N1+01801+01401999999ADDGF100991999999999999999999GP10060000002000000002000000002000GR100600000900009MA1101661999999MW1001REMMET055KMNM 071055Z AUTO 20008KT 10SM CLR 18/14 A3002 RMK AO1;EQDQ01+000000PRSWM2
0252726487999992000092323003+45130-087630FM-15+0191KMNM V0203601N007210093019N0160931N1+01301+00601999999ADDGD13991+0093019GD24991+0114019GF108991999999999999999999GP10060006402008000002015006402008GQ100600776925659GR100600291913589MA1101561999999MW1001OC101081REMMET068KMNM 232255Z AUTO 36014G21KT 10SM BKN031 OVC038 13/06 A2999 RMK AO1;EQDQ01+000000PRSWM2
0233726487999992000092403003+45130-087630FM-15+0191KMNM V0203501N005710150019N0160931N1+00801+00201999999ADDGD14991+0150019GF108991999999999999999999GP10060000002000000002000000002000GR100600000900009MA1101901999999MD1210271+9999MW1001OC100871REMMET067KMNM 240255Z AUTO 35011G17KT 10SM OVC055 08/02 A3009 RMK AO1 52027;EQDQ01+000000PRSWM2
0184726487999992000092501003+45130-087630FM-15+0191KMNM V0203001N002112200019N0160931N1+00701+00301999999ADDGF100991999999999999999999GP10060000002000000002000000002000GR100600000900009MA1101861999999MW1001REMMET055KMNM 250055Z AUTO 30004KT 10SM CLR 07/03 A3008 RMK AO1;EQDQ01+000000PRSWM2
0204726487999992000092603003+45130-087630FM-15+0191KMNM V0202101N004612200019N0160931N1+00901+00501999999ADDGF100991999999999999999999GP10060000002000000002000000002000GR100600000900009MA1101801999999MD1410001+9999MW1001REMMET061KMNM 260255Z AUTO 21009KT 10SM CLR 09/05 A3006 RMK AO1 54000;EQDQ01+000000PRSWM2
0253726487999992000100619003+45130-087630FM-15+0191KMNM V0202801N004110180019N0160931N1+00601-00401999999ADDGD12991+0150019GD23991+0180019GF107991999999999999999999GP10060030102008006002015026402008GQ100600520919639GR100600843913699MA1102031999999MW1001OC100771REMMET069KMNM 061855Z AUTO 28008G15KT 10SM FEW050 BKN060 06/M04 A3013 RMK AO1;EQDQ01+000000PRSWM2
0275726487999992000100716003+45130-087630FM-15+0191KMNM V0203301N009810099019N0160931N1+00301-00201999999ADDGD12991+0078019GD23991+0099019GD33991+0210019GF107991999999999999999999GP10060012202008000002015012202008GQ100600585914189GR100600715913699MA1102571999999MW1001OC101341REMMET076KMNM 071555Z AUTO 33019G26KT 10SM SCT026 BKN033 BKN070 03/M02 A3029 RMK AO1;EQDQ01+000000PRSWM2
0185726487999992000101202003+45130-087630FM-15+0191KMNM V0202301N003112200019N0160931N1+01201-00401999999ADDGF100991999999999999999999GP10060000002000000002000000002000GR100600000900009MA1102301999999MW1001REMMET056KMNM 120155Z AUTO 23006KT 10SM CLR 12/M04 A3021 RMK AO1;EQDQ01+000000PRSWM2
0185726487999992000101207003+45130-087630FM-15+0191KMNM V0202501N002112200019N0160931N1+00701-00301999999ADDGF100991999999999999999999GP10060000002000000002000000002000GR100600000900009MA1102371999999MW1001REMMET056KMNM 120655Z AUTO 25004KT 10SM CLR 07/M03 A3023 RMK AO1;EQDQ01+000000PRSWM2
0184726487999992000101302003+45130-087630FM-15+0191KMNM V0202101N004112200019N0160931N1+01601+00801999999ADDGF100991999999999999999999GP10060000002000000002000000002000GR100600000900009MA1101801999999MW1001REMMET055KMNM 130155Z AUTO 21008KT 10SM CLR 16/08 A3006 RMK AO1;EQDQ01+000000PRSWM2
0232726487999992000101921003+45130-087630FM-15+0191KMNM V0201501N005112200019N0160931N1+01701+00901999999ADDGF100991999999999999999999GP10060033502009066502021008502009GQ100600680922709GR100600516913799MA1101661999999MD1710241+9999MW1001OC100771REMMET064KMNM 192055Z AUTO 15010G15KT 10SM CLR 17/09 A3002 RMK AO1 57024;EQDQ01+000000PRSWM2
0276726487999992000102518003+45130-087630FM-15+0191KMNM V0202101N003610009019N0048281N1+01301+01101999999ADDGD14991+0009019GF108991999999999999999999GP10060009702009000002021009702009GQ100600576917879GR100600741913849KA1999M+01301KA2999N+01201MA1102271999999MD1710171+9999MW1001REMMET075KMNM 251755Z AUTO 21007KT 3SM OVC003 13/11 A3020 RMK AO1 10130 20120 57017;EQDQ01+000000PRSWM2
0184726487999992000102707003+45130-087630FM-15+0191KMNM V0202301N002612200019N0160931N1+01601+01101999999ADDGF100991999999999999999999GP10060000002000000002000000002000GR100600000900009MA1101251999999MW1001REMMET055KMNM 270655Z AUTO 23005KT 10SM CLR 16/11 A2990 RMK AO1;EQDQ01+000000PRSWM2
0054726487999992000110607009+45133-087633NSRDB+019199999V020999999999999999999999999999+99999+99999999999ADDGP10060000002000000002000000002000GR100600000900009
0211726487999992000110706354+45130-087630FM-15+0191KMNM V0201201N006210030019N0032181N1+00701+00401999999ADDAA101002591GD12991+0006019GD23991+0030019GD34991+0048019GF108991999999999999999999MA1100781999999MW1001REMMET077KMNM 070635Z AUTO 12012KT 2SM SCT002 BKN010 OVC016 07/04 A2976 RMK AO1 P0010;EQDQ01+000000PRSWM2
0054726487999992000110810009+45133-087633NSRDB+019199999V020999999999999999999999999999+99999+99999999999ADDGP10060000002000000002000000002000GR100600000900009
0054726487999992000111002009+45133-087633NSRDB+019199999V020999999999999999999999999999+99999+99999999999ADDGP10060000002000000002000000002000GR100600000900009
0054726487999992000111003009+45133-087633NSRDB+019199999V020999999999999999999999999999+99999+99999999999ADDGP10060000002000000002000000002000GR100600000900009
0071726487999992000111316009+45133-087633NSRDB+019199999V020999999999999999999999999999+99999+99999999999ADDGP10060005302009000002021005302009GQ100600694914839GR100600491913979
0071726487999992000111422009+45133-087633NSRDB+019199999V020999999999999999999999999999+99999+99999999999ADDGP10060006402009014402021004602009GQ100600829923479GR100600173913989
0071726487999992000112019009+45133-087633NSRDB+019199999V020999999999999999999999999999+99999+99999999999ADDGP10060030302009036902021015402009GQ100600662919389GR100600565914029
0153726487999992000112115354+45130-087630FM-15+0191KMNM V0203001N004110120019N0160931N1-00801-01401999999ADDGD14991+0120019GF108991999999999999999999MA1102241999999MW1001REMMET060KMNM 211535Z AUTO 30008KT 10SM OVC040 M08/M14 A3019 RMK AO1;EQDQ01+000000PRSWM2
0071726487999992000112116009+45133-087633NSRDB+019199999V020999999999999999999999999999+99999+99999999999ADDGP10060015402009006202021013402009GQ100600713914879GR100600449914029
0135726487999992000112123354+45130-087630FM-15+0191KMNM V0202501N001512200019N0160931N1-00801-01701999999ADDGF100991999999999999999999MA1102101999999MW1001REMMET057KMNM 212335Z AUTO 25003KT 10SM CLR M08/M17 A3015 RMK AO1;EQDQ01+000000PRSWM2
0071726487999992000112418009+45133-087633NSRDB+019199999V020999999999999999999999999999+99999+99999999999ADDGP10060032702009046302021013702009GQ100600659917819GR100600572914049
0054726487999992000112700009+45133-087633NSRDB+019199999V020999999999999999999999999999+99999+99999999999ADDGP10060000002000000002000000002000GR100600000900009
0071726487999992000120120009+45133-087633NSRDB+019199999V020999999999999999999999999999+99999+99999999999ADDGP10060026602009050402021010602009GQ100600717920689GR100600443914079
0135726487999992000120314354+45130-087630FM-15+0191KMNM V0202401N002112200019N0160931N1-00701-01101999999ADDGF100991999999999999999999MA1103391999999MW1001REMMET057KMNM 031435Z AUTO 24004KT 10SM CLR M07/M11 A3053 RMK AO1;EQDQ01+000000PRSWM2
0154726487999992000120413354+45130-087630FM-15+0191KMNM V0202201N005110003019N0012071N1-00301-00601999999ADDGD14991+0003019GF108991999999999999999999MA1101761999999MW1001REMMET061KMNM 041335Z AUTO 22010KT 3/4SM OVC001 M03/M06 A3005 RMK AO1;EQDQ01+000000PRSWM2
0135726487999992000120604354+45130-087630FM-15+0191KMNM V0202601N002612200019N0160931N1-01601-02001999999ADDGF100991999999999999999999MA1102401999999MW1001REMMET057KMNM 060435Z AUTO 26005KT 10SM CLR M16/M20 A3024 RMK AO1;EQDQ01+000000PRSWM2
0196726487999992000120720354+45130-087630FM-15+0191KMNM V0200101N002110105019N0048281N1-00801-01301999999ADDGD12991+0003019GD22991+0042019GD34991+0105019GF108991999999999999999999MA1100851999999MW1001REMMET073KMNM 072035Z AUTO 01004KT 3SM FEW001 FEW014 OVC035 M08/M13 A2978 RMK AO1;EQDQ01+000000PRSWM2
0071726487999992000120817009+45133-087633NSRDB+019199999V020999999999999999999999999999+99999+99999999999ADDGP10060017802009009202021014702009GQ100600700916229GR100600483914109
0175726487999992000121000354+45130-087630FM-15+0191KMNM V0202201N002112200019N0160931N1-00501-01001999999ADDGD12991+0141019GD22991+0180019GF104991999999999999999999MA1101761999999MW1001REMMET067KMNM 100035Z AUTO 22004KT 10SM SCT047 SCT065 M05/M10 A3005 RMK AO1;EQDQ01+000000PRSWM2
0071726487999992000121119009+45133-087633NSRDB+019199999V020999999999999999999999999999+99999+99999999999ADDGP10060015802009002402021014902009GQ100600691919139GR100600504914119
0164726487999992000121509354+45130-087630FM-15+0191KMNM V0202201N005110018019N0160931N1-01201-01501999999ADDGD14991+0018019GF108991999999999999999999MA1102681999999MW1001OC100821REMMET063KMNM 150935Z AUTO 22010G16KT 10SM OVC006 M12/M15 A3032 RMK AO1;EQDQ01+000000PRSWM2
0152726487999992000121511354+45130-087630FM-15+0191KMNM V0202401N002610018019N0080461N1-01001-01301999999ADDGD14991+0018019GF108991999999999999999999MA1102641999999MW1001REMMET059KMNM 151135Z AUTO 24005KT 5SM OVC006 M10/M13 A3031 RMK AO1;EQDQ01+000000PRSWM2
0071726487999992000121514009+45133-087633NSRDB+019199999V020999999999999999999999999999+99999+99999999999ADDGP10060000102009000002021000102009GQ100600877912669GR100600033908369
0175726487999992000121816354+45130-087630FM-15+0191KMNM V0209999C000012200019N0160931N1-01001-01401999999ADDGD12991+0099019GD22991+0180019GF104991999999999999999999MA1101801999999MW1001REMMET067KMNM 181635Z AUTO 00000KT 10SM FEW033 SCT060 M10/M14 A3006 RMK AO1;EQDQ01+000000PRSWM2
0175726487999992000121917354+45130-087630FM-15+0191KMNM V0203501N006210084019N0160931N1-00601-01201999999ADDGD13991+0084019GD24991+0099019GF108991999999999999999999MA1101461999999MW1001REMMET067KMNM 191735Z AUTO 35012KT 10SM BKN028 OVC033 M06/M12 A2996 RMK AO1;EQDQ01+000000PRSWM2
0054726487999992000122008009+45133-087633NSRDB+019199999V020999999999999999999999999999+99999+99999999999ADDGP10060000002000000002000000002000GR100600000900009
0153726487999992000122008354+45130-087630FM-15+0191KMNM V0203201N002110108019N0160931N1-01001-01501999999ADDGD14991+0108019GF108991999999999999999999MA1101691999999MW1001REMMET060KMNM 200835Z AUTO 32004KT 10SM OVC036 M10/M15 A3003 RMK AO1;EQDQ01+000000PRSWM2
0054726487999992000122011009+45133-087633NSRDB+019199999V020999999999999999999999999999+99999+99999999999ADDGP10060000002000000002000000002000GR100600000900009
0175726487999992000122012354+45130-087630FM-15+0191KMNM V0209999C000010330019N0160931N1-01301-01601999999ADDGD12991+0108019GD24991+0330019GF108991999999999999999999MA1101691999999MW1001REMMET067KMNM 201235Z AUTO 00000KT 10SM FEW036 OVC110 M13/M16 A3003 RMK AO1;EQDQ01+000000PRSWM2
0054726487999992000122101009+45133-087633NSRDB+019199999V020999999999999999999999999999+99999+99999999999ADDGP10060000002000000002000000002000GR100600000900009
0146726487999992000122215354+45130-087630FM-15+0191KMNM V0203101N006212200019N0160931N1-01101-01701999999ADDGF100991999999999999999999MA1102001999999MW1001OC100931REMMET060KMNM 221535Z AUTO 31012G18KT 10SM CLR M11/M17 A3012 RMK AO1;EQDQ01+000000PRSWM2
0054726487999992000122302009+45133-087633NSRDB+019199999V020999999999999999999999999999+99999+99999999999ADDGP10060000002000000002000000002000GR100600000900009
0071726487999992000122318009+45133-087633NSRDB+019199999V020999999999999999999999999999+99999+99999999999ADDGP10060015902009001802021015202009GQ100600688917519GR100600512914149
0054726487999992000122507009+45133-087633NSRDB+019199999V020999999999999999999999999999+99999+99999999999ADDGP10060000002000000002000000002000GR100600000900009
0146726487999992000122717354+45130-087630FM-15+0191KMNM V0203401N006212200019N0160931N1-01101-01901999999ADDGF100991999999999999999999MA1102401999999MW1001OC100821REMMET060KMNM 271735Z AUTO 34012G16KT 10SM CLR M11/M19 A3024 RMK AO1;EQDQ01+000000PRSWM2
0146726487999992000122719354+45130-087630FM-15+0191KMNM V0203301N006212200019N0160931N1-00901-01901999999ADDGF100991999999999999999999MA1102371999999MW1001OC100821REMMET060KMNM 271935Z AUTO 33012G16KT 10SM CLR M09/M19 A3023 RMK AO1;EQDQ01+000000PRSWM2
0135726487999992000122822354+45130-087630FM-15+0191KMNM V0200501N002112200019N0160931N1-01001-01201999999ADDGF100991999999999999999999MA1102401999999MW1001REMMET057KMNM 282235Z AUTO 05004KT 10SM CLR M10/M12 A3024 RMK AO1;EQDQ01+000000PRSWM2
0054726498999992000010707009+41050-091983NSRDB+024499999V020999999999999999999999999999+99999+99999999999ADDGP10060000002000000002000000002000GR100600000900009
0150726498999992000011000454+41050-091980FM-15+0244KFFL V0201501N003610111019N0080461N1+00701+00401999999ADDGD14991+0111019GF108991999999999999999999MA1100071999999MW1001REMMET057KFFL 100045Z AUTO 15007KT 5SM OVC037 07/04 A2955 RMK AO1;EQDQ01+000000PRSWM2
0134726498999992000011223454+41050-091980FM-15+0244KFFL V0200801N003612200019N0160931N1+00201-00401999999ADDGF100991999999999999999999MA1101291999999MW1001REMMET056KFFL 122345Z AUTO 08007KT 10SM CLR 02/M04 A2991 RMK AO1;EQDQ01+000000PRSWM2
0071726498999992000011319009+41050-091983NSRDB+024499999V020999999999999999999999999999+99999+99999999999ADDGP10060048402009088102021007902009GQ100600627918359GR100600648914149
0135726498999992000011319454+41050-091980FM-15+0244KFFL V0203201N004612200019N0160931N1-00301-00901999999ADDGF100991999999999999999999MA1103731999999MW1001REMMET057KFFL 131945Z AUTO 32009KT 10SM CLR M03/M09 A3063 RMK AO1;EQDQ01+000000PRSWM2
0134726498999992000011521454+41050-091980FM-15+0244KFFL V0202201N004112200019N0160931N1+01101-00101999999ADDGF100991999999999999999999MA1101491999999MW1001REMMET056KFFL 152145Z AUTO 22008KT 10SM CLR 11/M01 A2997 RMK AO1;EQDQ01+000000PRSWM2
0071726498999992000011617009+41050-091983NSRDB+024499999V020999999999999999999999999999+99999+99999999999ADDGP10060007802009000002021007802009GQ100600669915279GR100600554914149
0134726498999992000012423454+41050-091980FM-15+0244KFFL V0202401N003612200019N0160931N1+00001-00601999999ADDGF100991999999999999999999MA1101591999999MW1001REMMET056KFFL 242345Z AUTO 24007KT 10SM CLR 00/M06 A3000 RMK AO1;EQDQ01+000000PRSWM2
0135726498999992000012723454+41050-091980FM-15+0244KFFL V0200701N003112200019N0160931N1-00801-01301999999ADDGF100991999999999999999999MA1103421999999MW1001REMMET057KFFL 272345Z AUTO 07006KT 10SM CLR M08/M13 A3054 RMK AO1;EQDQ01+000000PRSWM2
0054726498999992000012811009+41050-091983NSRDB+024499999V020999999999999999999999999999+99999+99999999999ADDGP10060000002000000002000000002000GR100600000900009
0153726498999992000013019454+41050-091980FM-15+0244KFFL V0203001N006710045019N0160931N1-00301-00701999999ADDGD14991+0045019GF108991999999999999999999MA1102101999999MW1001REMMET060KFFL 301945Z AUTO 30013KT 10SM OVC015 M03/M07 A3015 RMK AO1;EQDQ01+000000PRSWM2
0153726498999992000020213454+41050-091980FM-15+0244KFFL V0202101N004110039019N0160931N1-00501-00901999999ADDGD14991+0039019GF108991999999999999999999MA1102741999999MW1001REMMET060KFFL 021345Z AUTO 21008KT 10SM OVC013 M05/M09 A3034 RMK AO1;EQDQ01+000000PRSWM2
0071726498999992000020322009+41050-091983NSRDB+024499999V020999999999999999999999999999+99999+99999999999ADDGP10060008302009000002021008302009GQ100600722922749GR100600430914089
0071726498999992000020720009+41050-091983NSRDB+024499999V020999999999999999999999999999+99999+99999999999ADDGP10060053602009084602021009402009GQ100600586919929GR100600732914069
0054726498999992000020912009+41050-091983NSRDB+024499999V020999999999999999999999999999+99999+99999999999ADDGP10060000002000000002000000002000GR100600000900009
0170726498999992000021017454+41050-091980FM-15+0244KFFL V0200101N005710024019N0032181N1+00401+00001999999ADDGD14991+0024019GF108991999999999999999999MA1100751999999MW1001REMMET077KFFL 101745Z AUTO 01011KT 2SM OVC008 04/00 A2975 RMK AO1 PARTIAL OBSCURATION;EQDQ01+000000PRSWM2
0153726498999992000021109454+41050-091980FM-15+0244KFFL V0203601N006710060019N0160931N1-00201-00701999999ADDGD14991+0060019GF108991999999999999999999MA1102031999999MW1001REMMET060KFFL 110945Z AUTO 36013KT 10SM OVC020 M02/M07 A3013 RMK AO1;EQDQ01+000000PRSWM2
0071726498999992000021219009+41050-091983NSRDB+024499999V020999999999999999999999999999+99999+99999999999ADDGP10060033602009012002021026702009GQ100600549918239GR100600806914049
0071726498999992000021619009+41050-091983NSRDB+024499999V020999999999999999999999999999+99999+99999999999ADDGP10060062402009087602021010202009GQ100600536918249GR100600832914019
0152726498999992000021907454+41050-091980FM-15+0244KFFL V0203601N001010210019N0080461N1-00301-00601999999ADDGD14991+0210019GF108991999999999999999999MA1102541999999MW1001REMMET059KFFL 190745Z AUTO 36002KT 5SM OVC075 M03/M06 A3028 RMK AO1;EQDQ01+000000PRSWM2
0054726498999992000022703009+41050-091983NSRDB+024499999V020999999999999999999999999999+99999+99999999999ADDGP10060000002000000002000000002000GR100600000900009
0071726498999992000022813009+41050-091983NSRDB+024499999V020999999999999999999999999999+99999+99999999999ADDGP10060000002009000002021000002009GQ100600888910159GR100600006903149
0071726498999992000030319009+41050-091983NSRDB+024499999V020999999999999999999999999999+99999+99999999999ADDGP10060037202009008402021031502009GQ100600477918349GR100600935913919
0054726498999992000030412009+41050-091983NSRDB+024499999V020999999999999999999999999999+99999+99999999999ADDGP10060000002000000002000000002000GR100600000900009
0054726498999992000030506009+41050-091983NSRDB+024499999V020999999999999999999999999999+99999+99999999999ADDGP10060000002000000002000000002000GR100600000900009
0071726498999992000030913009+41050-091983NSRDB+024499999V020999999999999999999999999999+99999+99999999999ADDGP10060000002009000002021000002009GQ100600875909769GR100600030906829
0071726498999992000031023009+41050-091983NSRDB+024499999V020999999999999999999999999999+99999+99999999999ADDGP10060014902009007402021012702009GQ100600726924879GR100600415913869
0071726498999992000031113009+41050-091983NSRDB+024499999V020999999999999999999999999999+99999+99999999999ADDGP10060000102009006402021000102009GQ100600872909689GR100600037907739
0054726498999992000031312009+41050-091983NSRDB+024499999V020999999999999999999999999999+99999+99999999999ADDGP10060000002000000002000000002000GR100600000900009
0071726498999992000031513009+41050-091983NSRDB+024499999V020999999999999999999999999999+99999+99999999999ADDGP10060000502009007602021000302009GQ100600866909539GR100600054909109
0071726498999992000031923009+41050-091983NSRDB+024499999V020999999999999999999999999999+99999+99999999999ADDGP10060004602008000002015004602008GQ100600705925189GR100600459913799
0175726498999992000032003454+41050-091980FM-15+0244KFFL V0200101N005710012019N0040231N1+00201-00101999999ADDGD14991+0012019GF108991999999999999999999MA1101051999999MW1001REMMET082KFFL 200345Z AUTO 01011KT 2 1/2SM OVC004 02/M01 A2984 RMK AO1 PARTIAL OBSCURATION;EQDQ01+000000PRSWM2
0173726498999992000032010454+41050-091980FM-15+0244KFFL V0203601N004110006019N0004021N1+00201-00101999999ADDGD14991+0006019GF108991999999999999999999MA1100981999999MW1001REMMET080KFFL 201045Z AUTO 36008KT 1/4SM OVC002 02/M01 A2982 RMK AO1 PARTIAL OBSCURATION;EQDQ01+000000PRSWM2
0150726498999992000032210454+41050-091980FM-15+0244KFFL V0201301N002110036019N0112651N1+00901+00601999999ADDGD14991+0036019GF108991999999999999999999MA1102881999999MW1001REMMET057KFFL 221045Z AUTO 13004KT 7SM OVC012 09/06 A3038 RMK AO1;EQDQ01+000000PRSWM2
0133726498999992000032219454+41050-091980FM-15+0244KFFL V0203601N000512200019N0160931N1+01601+00801999999ADDGF100991999999999999999999MA1102881999999MW1001REMMET055KFFL 221945Z AUTO 36001KT 10SM CLR 16/08 A3038 RMK AO1;EQDQ01+000000PRSWM2
0054726498999992000032307009+41050-091983NSRDB+024499999V020999999999999999999999999999+99999+99999999999ADDGP10060000002000000002000000002000GR100600000900009
0162726498999992000032403454+41050-091980FM-15+0244KFFL V0201201N007212200019N0160931N1+01601+00901999999ADDGD12991+0300019GF104991999999999999999999MA1101561999999MW1001OC101031REMMET061KFFL 240345Z AUTO 12014G20KT 10SM SCT100 16/09 A2999 RMK AO1;EQDQ01+000000PRSWM2
0071726498999992000032417009+41050-091983NSRDB+024499999V020999999999999999999999999999+99999+99999999999ADDGP10060050002008024802015032702008GQ100600459914259GR100600956913759
0054726498999992000032708009+41050-091983NSRDB+024499999V020999999999999999999999999999+99999+99999999999ADDGP10060000002000000002000000002000GR100600000900009
0071726498999992000032818009+41050-091983NSRDB+024499999V020999999999999999999999999999+99999+99999999999ADDGP10060083002008086702015015602008GQ100600391916309GR100601064913719
0135726498999992000032909454+41050-091980FM-15+0244KFFL V0200301N002612200019N0160931N1-00101-00601999999ADDGF100991999999999999999999MA1101291999999MW1001REMMET057KFFL 290945Z AUTO 03005KT 10SM CLR M01/M06 A2991 RMK AO1;EQDQ01+000000PRSWM2
0054726498999992000033104009+41050-091983NSRDB+024499999V020999999999999999999999999999+99999+99999999999ADDGP10060000002000000002000000002000GR100600000900009
0134726498999992000040404454+41050-091980FM-15+0244KFFL V0203001N005112200019N0160931N1+00401-00601999999ADDGF100991999999999999999999MA1101491999999MW1001REMMET056KFFL 040445Z AUTO 30010KT 10SM CLR 04/M06 A2997 RMK AO1;EQDQ01+000000PRSWM2
0144726498999992000040521454+41050-091980FM-15+0244KFFL V0202201N007212200019N0160931N1+02901+00801999999ADDGF100991999999999999999999MA1099591999999MW1001OC101081REMMET058KFFL 052145Z AUTO 22014G21KT 10SM CLR 29/08 A2941 RMK AO1;EQDQ01+000000PRSWM2
0054726498999992000040605009+41050-091983NSRDB+024499999V020999999999999999999999999999+99999+99999999999ADDGP10060000002000000002000000002000GR100600000900009
0134726498999992000040613454+41050-091980FM-15+0244KFFL V0203101N007712200019N0160931N1+00901-00101999999ADDGF100991999999999999999999MA1101291999999MW1001REMMET056KFFL 061345Z AUTO 31015KT 10SM CLR 09/M01 A2991 RMK AO1;EQDQ01+000000PRSWM2
0145726498999992000041018454+41050-091980FM-15+0244KFFL V0200801N008212200019N0160931N1+01101-00101999999ADDGF100991999999999999999999MA1101931999999MW1001OC101131REMMET059KFFL 101845Z AUTO 08016G22KT 10SM CLR 11/M01 A3010 RMK AO1;EQDQ01+000000PRSWM2
0054726498999992000041207009+41050-091983NSRDB+024499999V020999999999999999999999999999+99999+99999999999ADDGP10060000002000000002000000002000GR100600000900009
0071726498999992000041520009+41050-091983NSRDB+024499999V020999999999999999999999999999+99999+99999999999ADDGP10060082702008077102015020202008GQ100600360921599GR100601097913579
0133726498999992000041520454+41050-091980FM-15+0244KFFL V0201701N003612200019N0160931N1+02401+01201999999ADDGF100991999999999999999999MA1101191999999MW1001REMMET055KFFL 152045Z AUTO 17007KT 10SM CLR 24/12 A2988 RMK AO1;EQDQ01+000000PRSWM2
0054726498999992000041710009+41050-091983NSRDB+024499999V020999999999999999999999999999+99999+99999999999ADDGP10060000002000000002000000002000GR100600000900009
0151726498999992000042000454+41050-091980FM-15+0244KFFL V0201201N005112200019N0160931N1+02301+01701999999ADDGD12991+0210019GF104991999999999999999999MA1100201999999MW1001REMMET058KFFL 200045Z AUTO 12010KT 10SM SCT070 23/17 A2959 RMK AO1;EQDQ01+000000PRSWM2
0071726498999992000042301009+41050-091983NSRDB+024499999V020999999999999999999999999999+99999+99999999999ADDGP10060001802008000902015001702008GQ100600854928299GR100600098912289
0151726498999992000042707454+41050-091980FM-15+0244KFFL V0201201N001510300019N0160931N1+01501+00401999999ADDGD14991+0300019GF108991999999999999999999MA1101351999999MW1001REMMET058KFFL 270745Z AUTO 12003KT 10SM OVC100 15/04 A2993 RMK AO1;EQDQ01+000000PRSWM2
0071726498999992000042819009+41050-091983NSRDB+024499999V020999999999999999999999999999+99999+99999999999ADDGP10060094402008086302015017502008GQ100600274919309GR100601196913479
0054726498999992000042904009+41050-091983NSRDB+024499999V020999999999999999999999999999+99999+99999999999ADDGP10060000002000000002000000002000GR100600000900009
0054726498999992000043006009+41050-091983NSRDB+024499999V020999999999999999999999999999+99999+99999999999ADDGP10060000002000000002000000002000GR100600000900009
0071726498999992000050218009+41050-091983NSRDB+024499999V020999999999999999999999999999+99999+99999999999ADDGP10060089802008081802015016702008GQ100600268916129GR100601200913449
0071726498999992000050517009+41050-091983NSRDB+024499999V020999999999999999999999999999+99999+99999999999ADDGP10060073502008048202015032602008GQ100600320913379GR100601137913429
0223726498999992000050907053+41050-091980FM-15+0244KFFL V0203201N004110210019N0080461N1+01601+01301999999ADDGD12991+0036019GD24991+0210019GF108991999999999999999999GP10060000002000000002000000002000GR100600000900009MA1100641999999MW1001REMMET064KFFL 090705Z AUTO 32008KT 5SM SCT012 OVC075 16/13 A2972 RMK AO1;EQDQ01+000000PRSWM2
0154726498999992000051213454+41050-091980FM-15+0244KFFL V0203501N003110033019N0056331N1+01901+01501999999ADDGD14991+0033019GF108991999999999999999999MA1100171999999MW1001REMMET061KFFL 121345Z AUTO 35006KT 3 1/2SM OVC011 19/15 A2958 RMK AO1;EQDQ01+000000PRSWM2
0071726498999992000051400009+41050-091983NSRDB+024499999V020999999999999999999999999999+99999+99999999999ADDGP10060025302008055202015007802008GQ100600715927909GR100600424913379
0054726498999992000051505009+41050-091983NSRDB+024499999V020999999999999999999999999999+99999+99999999999ADDGP10060000002000000002000000002000GR100600000900009
0071726498999992000051520009+41050-091983NSRDB+024499999V020999999999999999999999999999+99999+99999999999ADDGP10060071102008037702015038002008GQ100600287922579GR100601171913369
0151726498999992000051605454+41050-091980FM-15+0244KFFL V0201901N004110240019N0160931N1+01801+00801999999ADDGD14991+0240019GF108991999999999999999999MA1101521999999MW1001REMMET058KFFL 160545Z AUTO 19008KT 10SM OVC085 18/08 A2998 RMK AO1;EQDQ01+000000PRSWM2
0151726498999992000052323454+41050-091980FM-15+0244KFFL V0203601N001012200019N0160931N1+02501+01701999999ADDGD12991+0360019GF104991999999999999999999MA1100171999999MW1001REMMET058KFFL 232345Z AUTO 36002KT 10SM SCT120 25/17 A2958 RMK AO1;EQDQ01+000000PRSWM2
0195726498999992000052801454+41050-091980FM-15+0244KFFL V0202701N003610114019N0160931N1+01801+01301999999ADDGD12991+0093019GD23991+0114019GD34991+0141019GF108991999999999999999999MA1100851999999MW1001REMMET072KFFL 280145Z AUTO 27007KT 10SM SCT031 BKN038 OVC047 18/13 A2978 RMK AO1;EQDQ01+000000PRSWM2
0071726498999992000060202009+41050-091983NSRDB+024499999V020999999999999999999999999999+99999+99999999999ADDGP10060000002008000002015000002008GQ100600876929809GR100600031907199
0054726498999992000060206009+41050-091983NSRDB+024499999V020999999999999999999999999999+99999+99999999999ADDGP10060000002000000002000000002000GR100600000900009
0144726498999992000061418454+41500-091970FM-15+0244KFFL V0202101N008212200019N0160931N1+02401+01901999999ADDGF100991999999999999999999MA1100371999999MW1001OC101031REMMET058KFFL 141845Z AUTO 21016G20KT 10SM CLR 24/19 A2964 RMK AO1;EQDQ01+000000PRSWM2
0133726498999992000061722454+41500-091970FM-15+0244KFFL V0200401N003112200019N0160931N1+02201+01001999999ADDGF100991999999999999999999MA1101931999999MW1001REMMET055KFFL 172245Z AUTO 04006KT 10SM CLR 22/10 A3010 RMK AO1;EQDQ01+000000PRSWM2
0054726498999992000061803009+41050-091983NSRDB+024499999V020999999999999999999999999999+99999+99999999999ADDGP10060000002000000002000000002000GR100600000900009
0133726498999992000061903454+41500-091970FM-15+0244KFFL V0201701N002612200019N0160931N1+01801+01301999999ADDGF100991999999999999999999MA1101961999999MW1001REMMET055KFFL 190345Z AUTO 17005KT 10SM CLR 18/13 A3011 RMK AO1;EQDQ01+000000PRSWM2
0151726498999992000062023454+41500-091970FM-15+0244KFFL V0201901N002612200019N0160931N1+02501+02201999999ADDGD12991+0072019GF104991999999999999999999MA1100641999999MW1001REMMET058KFFL 202345Z AUTO 19005KT 10SM SCT024 25/22 A2972 RMK AO1;EQDQ01+000000PRSWM2
0151726498999992000062522454+41500-091970FM-15+0244KFFL V0201401N003112200019N0160931N1+02801+02301999999ADDGD12991+0240019GF104991999999999999999999MA1101251999999MW1001REMMET058KFFL 252245Z AUTO 14006KT 10SM SCT085 28/23 A2990 RMK AO1;EQDQ01+000000PRSWM2
0195726498999992000063019454+41500-091970FM-15+0244KFFL V0201801N003110210019N0160931N1+02601+01701999999ADDGD12991+0150019GD22991+0180019GD33991+0210019GF107991999999999999999999MA1101561999999MW1001REMMET072KFFL 301945Z AUTO 18006KT 10SM SCT050 SCT060 BKN075 26/17 A2999 RMK AO1;EQDQ01+000000PRSWM2
0133726498999992000070105454+41500-091970FM-15+0244KFFL V0201801N002112200019N0160931N1+01801+01501999999ADDGF100991999999999999999999MA1101631999999MW1001REMMET055KFFL 010545Z AUTO 18004KT 10SM CLR 18/15 A3001 RMK AO1;EQDQ01+000000PRSWM2
0151726498999992000070308454+41500-091970FM-15+0244KFFL V0203601N000512200019N0160931N1+02101+01801999999ADDGD12991+0015019GF104991999999999999999999MA1101081999999MW1001REMMET058KFFL 030845Z AUTO 36001KT 10SM SCT005 21/18 A2985 RMK AO1;EQDQ01+000000PRSWM2
0151726498999992000070322454+41500-091970FM-15+0244KFFL V0200601N004112200019N0160931N1+02801+02201999999ADDGD12991+0084019GF104991999999999999999999MA1101391999999MW1001REMMET058KFFL 032245Z AUTO 06008KT 10SM SCT028 28/22 A2994 RMK AO1;EQDQ01+000000PRSWM2
0151726498999992000070522454+41500-091970FM-15+0244KFFL V0202901N003612200019N0160931N1+02701+02301999999ADDGD12991+0210019GF104991999999999999999999MA1101421999999MW1001REMMET058KFFL 052245Z AUTO 29007KT 10SM SCT075 27/23 A2995 RMK AO1;EQDQ01+000000PRSWM2
0133726498999992000071414454+41500-091970FM-15+0244KFFL V0203401N002612200019N0160931N1+02701+02101999999ADDGF100991999999999999999999MA1101561999999MW1001REMMET055KFFL 141445Z AUTO 34005KT 10SM CLR 27/21 A2999 RMK AO1;EQDQ01+000000PRSWM2
0133726498999992000071523454+41050-091970FM-15+0244KFFL V0203601N001012200019N0160931N1+02901+02001999999ADDGF100991999999999999999999MA1101121999999MW1001REMMET055KFFL 152345Z AUTO 36002KT 10SM CLR 29/20 A2986 RMK AO1;EQDQ01+000000PRSWM2
0133726498999992000071608454+41500-091970FM-15+0244KFFL V0203601N001012200019N0160931N1+02001+01701999999ADDGF100991999999999999999999MA1101151999999MW1001REMMET055KFFL 160845Z AUTO 36002KT 10SM CLR 20/17 A2987 RMK AO1;EQDQ01+000000PRSWM2
0071726498999992000071914009+41050-091983NSRDB+024499999V020999999999999999999999999999+99999+99999999999ADDGP10060016502008000602015016202008GQ100600625908579GR100600610913239
0133726498999992000072205454+41050-091970FM-15+0244KFFL V0203101N002612200019N0160931N1+01401+01101999999ADDGF100991999999999999999999MA1101901999999MW1001REMMET055KFFL 220545Z AUTO 31005KT 10SM CLR 14/11 A3009 RMK AO1;EQDQ01+000000PRSWM2
0173726498999992000072719454+41050-091970FM-15+0244KFFL V0203601N001012200019N0160931N1+03001+02101999999ADDGD12991+0117019GD22991+0240019GF104991999999999999999999MA1101561999999MW1001REMMET065KFFL 271945Z AUTO 36002KT 10SM SCT039 SCT080 30/21 A2999 RMK AO1;EQDQ01+000000PRSWM2
0054726498999992000072806009+41050-091983NSRDB+024499999V020999999999999999999999999999+99999+99999999999ADDGP10060000002000000002000000002000GR100600000900009
0132726498999992000072811454+41050-091970FM-15+0244KFFL V0203601N001012200019N0080461N1+01901+01601999999ADDGF100991999999999999999999MA1101351999999MW1001REMMET054KFFL 281145Z AUTO 36002KT 5SM CLR 19/16 A2993 RMK AO1;EQDQ01+000000PRSWM2
0172726498999992000073016454+41050-091970FM-15+0244KFFL V0203501N004110042019N0064371N1+02401+02001999999ADDGD13991+0042019GD24991+0057019GF108991999999999999999999MA1101561999999MW1001REMMET064KFFL 301645Z AUTO 35008KT 4SM BKN014 OVC019 24/20 A2999 RMK AO1;EQDQ01+000000PRSWM2
0071726498999992000080221009+41050-091983NSRDB+024499999V020999999999999999999999999999+99999+99999999999ADDGP10060075702008079902015012302008GQ100600375924109GR100601051913279
0173726498999992000080404454+41050-091970FM-15+0244KFFL V0201001N001510240019N0160931N1+02001+01701999999ADDGD13991+0240019GD24991+0270019GF108991999999999999999999MA1101901999999MW1001REMMET065KFFL 040445Z AUTO 10003KT 10SM BKN085 OVC090 20/17 A3009 RMK AO1;EQDQ01+000000PRSWM2
0151726498999992000080420454+41050-091970FM-15+0244KFFL V0201001N005112200019N0160931N1+02801+01701999999ADDGD12991+0270019GF104991999999999999999999MA1101861999999MW1001REMMET058KFFL 042045Z AUTO 10010KT 10SM SCT090 28/17 A3008 RMK AO1;EQDQ01+000000PRSWM2
0071726498999992000080914009+41050-091983NSRDB+024499999V020999999999999999999999999999+99999+99999999999ADDGP10060022502008010002015018302008GQ100600654909039GR100600552913309
0054726498999992000081004009+41050-091983NSRDB+024499999V020999999999999999999999999999+99999+99999999999ADDGP10060000002000000002000000002000GR100600000900009
0054726498999992000081505009+41050-091983NSRDB+024499999V020999999999999999999999999999+99999+99999999999ADDGP10060000002000000002000000002000GR100600000900009
0071726498999992000081723009+41050-091983NSRDB+024499999V020999999999999999999999999999+99999+99999999999ADDGP10060007002008000002015007002008GQ100600623926329GR100600619913339
0054726498999992000082010009+41050-091983NSRDB+024499999V020999999999999999999999999999+99999+99999999999ADDGP10060000002000000002000000002000GR100600000900009
0150726498999992000082323454+41050-091970FM-15+0244KFFL V0203201N001512200019N0080461N1+02501+02301999999ADDGD12991+0270019GF104991999999999999999999MA1101801999999MW1001REMMET057KFFL 232345Z AUTO 32003KT 5SM SCT095 25/23 A3006 RMK AO1;EQDQ01+000000PRSWM2
0150726498999992000082415454+41050-091970FM-15+0244KFFL V0203601N001010021019N0048281N1+02301+02001999999ADDGD14991+0021019GF108991999999999999999999MA1102071999999MW1001REMMET057KFFL 241545Z AUTO 36002KT 3SM OVC007 23/20 A3014 RMK AO1;EQDQ01+000000PRSWM2
0054726498999992000082711009+41050-091983NSRDB+024499999V020999999999999999999999999999+99999+99999999999ADDGP10060000002000000002000000002000GR100600000900009
0071726498999992000082714009+41050-091983NSRDB+024499999V020999999999999999999999999999+99999+99999999999ADDGP10060020902008011402015016702008GQ100600684909599GR100600493913399
0054726498999992000082903009+41050-091983NSRDB+024499999V020999999999999999999999999999+99999+99999999999ADDGP10060000002000000002000000002000GR100600000900009
0071726498999992000083019009+41050-091983NSRDB+024499999V020999999999999999999999999999+99999+99999999999ADDGP10060077102008062402015024602008GQ100600329918989GR100601126913419
0126726498999992000083111254+41050-091970FM-15+0244KFFL V0201601N004112200019N0028161N1+02501+02401999999ADDMA1101221999999MW1001REMMET074KFFL 311125Z AUTO 16008KT 1 3/4SM 25/24 A2989 RMK AO1 PARTIAL OBSCURATION;EQDQ01+000000PRSWM2
0136726498999992000083113454+41050-091970FM-15+0244KFFL V0201701N004612200019N0040231N1+02701+02501999999ADDGF100991999999999999999999MA1101221999999MW1001REMMET058KFFL 311345Z AUTO 17009KT 2 1/2SM CLR 27/25 A2989 RMK AO1;EQDQ01+000000PRSWM2
0071726498999992000090500009+41050-091983NSRDB+024499999V020999999999999999999999999999+99999+99999999999ADDGP10060008702008007002015007302008GQ100600786926919GR100600266913449
0071726498999992000090516009+41050-091983NSRDB+024499999V020999999999999999999999999999+99999+99999999999ADDGP10060063202008075902015013402008GQ100600490912409GR100600881913459
0054726498999992000090910009+41050-091983NSRDB+024499999V020999999999999999999999999999+99999+99999999999ADDGP10060000002000000002000000002000GR100600000900009
0071726498999992000091016009+41050-091983NSRDB+024499999V020999999999999999999999999999+99999+99999999999ADDGP10060033302008008502015027802008GQ100600503912609GR100600861913489
0144726498999992000091119454+41050-091970FM-15+0244KFFL V0202001N007712200019N0160931N1+03701+02301999999ADDGF100991999999999999999999MA1100471999999MW1001OC101181REMMET058KFFL 111945Z AUTO 20015G23KT 10SM CLR 37/23 A2967 RMK AO1;EQDQ01+000000PRSWM2
0133726498999992000091212454+41050-091970FM-15+0244KFFL V0203301N004112200019N0160931N1+01301+01001999999ADDGF100991999999999999999999MA1101631999999MW1001REMMET055KFFL 121245Z AUTO 33008KT 10SM CLR 13/10 A3001 RMK AO1;EQDQ01+000000PRSWM2
0133726498999992000091511454+41050-091970FM-15+0244KFFL V0203501N002612200019N0160931N1+00801+00701999999ADDGF100991999999999999999999MA1102341999999MW1001REMMET055KFFL 151145Z AUTO 35005KT 10SM CLR 08/07 A3022 RMK AO1;EQDQ01+000000PRSWM2
0148726498999992000091702454+41050-091970FM-15+0244KFFL V0201801N002112200019N9999999N1+01501+00901999999ADDGF100991999999999999999999MA1101931999999MW1001REMMET054KFFL 170245Z AUTO 18004KT 4SM CLR 15/09 A3010 RMK AO1;EQDQ01+064372VODIS Q02+000000PRSWM2
0054726498999992000091706009+41050-091983NSRDB+024499999V020999999999999999999999999999+99999+99999999999ADDGP10060000002000000002000000002000GR100600000900009
0071726498999992000091817009+41050-091983NSRDB+024499999V020999999999999999999999999999+99999+99999999999ADDGP10060064102008063402015018902008GQ100600447914649GR100600962913549
0054726498999992000092011009+41050-091983NSRDB+024499999V020999999999999999999999999999+99999+99999999999ADDGP10060000002000000002000000002000GR100600000900009
0172726498999992000092210454+41050-091970FM-15+0244KFFL V0201301N005710180019N0080461N1+01401+01001999999ADDGD12991+0150019GD24991+0180019GF108991999999999999999999MA1101151999999MW1001REMMET064KFFL 221045Z AUTO 13011KT 5SM SCT050 OVC060 14/10 A2987 RMK AO1;EQDQ01+000000PRSWM2
0071726498999992000092515009+41050-091983NSRDB+024499999V020999999999999999999999999999+99999+99999999999ADDGP10060016302008000602015016002008GQ100600634911789GR100600608913609
0133726498999992000092523454+41050-091970FM-15+0244KFFL V0203401N001512200019N0160931N1+01401+00501999999ADDGF100991999999999999999999MA1102071999999MW1001REMMET055KFFL 252345Z AUTO 34003KT 10SM CLR 14/05 A3014 RMK AO1;EQDQ01+000000PRSWM2
0133726498999992000092707454+41050-091970FM-15+0244KFFL V0202001N002112200019N0160931N1+00801+00701999999ADDGF100991999999999999999999MA1101901999999MW1001REMMET055KFFL 270745Z AUTO 20004KT 10SM CLR 08/07 A3009 RMK AO1;EQDQ01+000000PRSWM2
0144726498999992000100111454+41050-091970FM-15+0244KFFL V0201801N007712200019N0160931N1+01701+01101999999ADDGF100991999999999999999999MA1100811999999MW1001OC100931REMMET058KFFL 011145Z AUTO 18015G18KT 10SM CLR 17/11 A2977 RMK AO1;EQDQ01+000000PRSWM2
0135726498999992000100709454+41050-091970FM-15+0244KFFL V0202901N003612200019N0160931N1-00301-00401999999ADDGF100991999999999999999999MA1103291999999MW1001REMMET057KFFL 070945Z AUTO 29007KT 10SM CLR M03/M04 A3050 RMK AO1;EQDQ01+000000PRSWM2
0054726498999992000101104009+41050-091983NSRDB+024499999V020999999999999999999999999999+99999+99999999999ADDGP10060000002000000002000000002000GR100600000900009
0054726498999992000101201009+41050-091983NSRDB+024499999V020999999999999999999999999999+99999+99999999999ADDGP10060000002000000002000000002000GR100600000900009
0133726498999992000101222454+41050-091970FM-15+0244KFFL V0201701N004612200019N0160931N1+02301+01301999999ADDGF100991999999999999999999MA1102001999999MW1001REMMET055KFFL 122245Z AUTO 17009KT 10SM CLR 23/13 A3012 RMK AO1;EQDQ01+000000PRSWM2
0054726498999992000101304009+41050-091983NSRDB+024499999V020999999999999999999999999999+99999+99999999999ADDGP10060000002000000002000000002000GR100600000900009
0054726498999992000101507009+41050-091983NSRDB+024499999V020999999999999999999999999999+99999+99999999999ADDGP10060000002000000002000000002000GR100600000900009
0054726498999992000101510009+41050-091983NSRDB+024499999V020999999999999999999999999999+99999+99999999999ADDGP10060000002000000002000000002000GR100600000900009
0151726498999992000101512454+41050-091970FM-15+0244KFFL V0203601N003610090019N0160931N1+01101+01001999999ADDGD13991+0090019GF107991999999999999999999MA1101931999999MW1001REMMET058KFFL 151245Z AUTO 36007KT 10SM BKN030 11/10 A3010 RMK AO1;EQDQ01+000000PRSWM2
0152726498999992000110920454+41050-091970FM-15+0244KFFL V0203201N004610048019N0160931N1+00001-00101999999ADDGD14991+0048019GF108991999999999999999999MA1100681999999MW1001REMMET059KFFL 092045Z AUTO 32009KT 10SM OVC016 00/M01 A2973 RMK AO1;EQDQ01+000000PRSWM2
0163726498999992000111407454+41050-091970FM-15+0244KFFL V0202701N006710036019N0160931N1+00001-00101999999ADDGD14991+0036019GF108991999999999999999999MA1101661999999MW1001OC100981REMMET062KFFL 140745Z AUTO 27013G19KT 10SM OVC012 00/M01 A3002 RMK AO1;EQDQ01+000000PRSWM2
0054726498999992000112209009+41050-091983NSRDB+024499999V020999999999999999999999999999+99999+99999999999ADDGP10060000002000000002000000002000GR100600000900009
0196726498999992000112517454+41050-091970FM-15+0244KFFL V0200201N005110210019N0160931N1+00701-00301999999ADDGD12991+0150019GD23991+0210019GD33991+0240019GF107991999999999999999999MA1101221999999MW1001REMMET073KFFL 251745Z AUTO 02010KT 10SM SCT055 BKN070 BKN080 07/M03 A2989 RMK AO1;EQDQ01+000000PRSWM2
0071726498999992000112623009+41050-091983NSRDB+024499999V020999999999999999999999999999+99999+99999999999ADDGP10060000302009000002021000302009GQ100600870923879GR100600049909489
0054726498999992000112905009+41050-091983NSRDB+024499999V020999999999999999999999999999+99999+99999999999ADDGP10060000002000000002000000002000GR100600000900009
0071726498999992000112922009+41050-091983NSRDB+024499999V020999999999999999999999999999+99999+99999999999ADDGP10060010002009017902021006802009GQ100600798922929GR100600248914069
0151726498999992000120120454+41050-091970FM-15+0244KFFL V0200401N006210027019N0160931N1+00001+00001999999ADDGD14991+0027019GF108991999999999999999999MA1102811999999MW1001REMMET058KFFL 012045Z AUTO 04012KT 10SM OVC009 00/00 A3036 RMK AO1;EQDQ01+000000PRSWM2
0071726498999992000120516009+41050-091983NSRDB+024499999V020999999999999999999999999999+99999+99999999999ADDGP10060016602009008102021014102009GQ100600723914429GR100600428914099
0133726498999992000120719454+41050-091970FM-15+0244KFFL V0202401N006212200019N0160931N1+00901+00201999999ADDGF100991999999999999999999MA1100441999999MW1001REMMET055KFFL 071945Z AUTO 24012KT 10SM CLR 09/02 A2966 RMK AO1;EQDQ01+000000PRSWM2
0071726498999992000121522009+41050-091983NSRDB+024499999V020999999999999999999999999999+99999+99999999999ADDGP10060002702009000002021002702009GQ100600802922699GR100600241914129
0171726498999992000121609454+41050-091970FM-15+0244KFFL V0201701N002610009019N0032181N1+00001-00101999999ADDGD14991+0009019GF108991999999999999999999MA1100611999999MW1001REMMET078KFFL 160945Z AUTO 17005KT 2SM OVC003 00/M01 A2971 RMK AO1 PARTIAL OBSCURATION;EQDQ01+000000PRSWM2
0054726498999992000122403009+41050-091983NSRDB+024499999V020999999999999999999999999999+99999+99999999999ADDGP10060000002000000002000000002000GR100600000900009
0054726498999992000122408009+41050-091983NSRDB+024499999V020999999999999999999999999999+99999+99999999999ADDGP10060000002000000002000000002000GR100600000900009
0135726498999992000122410454+41050-091970FM-15+0244KFFL V0202901N004112200019N0160931N1-02201-02501999999ADDGF100991999999999999999999MA1103321999999MW1001REMMET057KFFL 241045Z AUTO 29008KT 10SM CLR M22/M25 A3051 RMK AO1;EQDQ01+000000PRSWM2
0054726498999992000122801009+41050-091983NSRDB+024499999V020999999999999999999999999999+99999+99999999999ADDGP10060000002000000002000000002000GR100600000900009
0152726498999992000123103454+41050-091970FM-15+0244KFFL V0203001N007210030019N0112651N1-01201-01301999999ADDGD14991+0030019GF108991999999999999999999MA1102571999999MW1001REMMET059KFFL 310345Z AUTO 30014KT 7SM OVC010 M12/M13 A3029 RMK AO1;EQDQ01+000000PRSWM2
0071726499999992000010715009+43400-094750NSRDB+040199999V020999999999999999999999999999+99999+99999999999ADDGP10060001502009000002021001502009GQ100600849912759GR100600125914159
0071726499999992000010917009+43400-094750NSRDB+040199999V020999999999999999999999999999+99999+99999999999ADDGP10060005302009000002021005302009GQ100600708915179GR100600465914159
0071726499999992000010922009+43400-094750NSRDB+040199999V020999999999999999999999999999+99999+99999999999ADDGP10060016202009039202021007902009GQ100600779922299GR100600296914159
0233726499999992000011117524+43400-094750FM-15+0401KEST V0203101N004110330019N0160931N1-00901-01401101961ADDGD13991+0330019GF107991999999999999999999KA1999M-00941KA2999N-01281MA1101731999999MD1110251+9999MW1001REMMET100KEST 111752Z AUTO 31008KT 10SM BKN110 M09/M14 A3004 RMK AO2 SLP196 T10941139 11094 21128 51025 TSNO;EQDQ01+000000PRSWM2
0195726499999992000011408524+43400-094750FM-15+0401KEST V0202001N003110330019N0160931N1-00901-01101103901ADDGD14991+0330019GF108991999999999999999999MA1103661999999MD1510141+9999MW1001REMMET088KEST 140852Z AUTO 20006KT 10SM OVC110 M09/M11 A3061 RMK AO2 SLP390 T10891106 55014 TSNO;EQDQ01+000000PRSWM2
0071726499999992000011817009+43400-094750NSRDB+040199999V020999999999999999999999999999+99999+99999999999ADDGP10060023102009024102021014702009GQ100600697915039GR100600491914139
0071726499999992000012320009+43400-094750NSRDB+040199999V020999999999999999999999999999+99999+99999999999ADDGP10060018002009001202021017502009GQ100600644919559GR100600610914129
0071726499999992000012616009+43400-094750NSRDB+040199999V020999999999999999999999999999+99999+99999999999ADDGP10060012402009005802021010902009GQ100600748913589GR100600369914119
0071726499999992000012621009+43400-094750NSRDB+040199999V020999999999999999999999999999+99999+99999999999ADDGP10060022302009011802021017902009GQ100600679921039GR100600531914119
0215726499999992000012723524+43400-094750FM-15+0401KEST V0201301N004612200019N0160931N1-01101-01401103521ADDGF100991999999999999999999KA1999M-00781KA2999N-01111MA1103181999999MD1110081+9999MW1001REMMET097KEST 272352Z AUTO 13009KT 10SM CLR M11/M14 A3047 RMK AO2 SLP352 T11111139 11078 21111 51008 TSNO;EQDQ01+000000PRSWM2
0054726499999992000012809009+43400-094750NSRDB+040199999V020999999999999999999999999999+99999+99999999999ADDGP10060000002000000002000000002000GR100600000900009
0157726499999992000012900524+43400-094750FM-15+0401KEST V0201201N004112200019N0160931N1-00901-01201103591ADDGF100991999999999999999999MA1103291999999MW1001REMMET079KEST 290052Z AUTO 12008KT 10SM CLR M09/M12 A3050 RMK AO2 SLP359 T10891117 TSNO;EQDQ01+000000PRSWM2
0173726499999992000020222524+43400-094750FM-15+0401KEST V0202501N007710330019N0144841N1+00201-00101101181ADDGD13991+0330019GF107991999999999999999999MA1101021999999MW1001REMMET080KEST 022252Z AUTO 25015KT 9SM BKN110 02/M01 A2983 RMK AO2 SLP118 T00221011 TSNO;EQDQ01+000000PRSWM2
0192726499999992000020312524+43400-094750FM-15+0401KEST V0203001N009310081019N0160931N1+00001-00401101241ADDGD14991+0081019GF108991999999999999999999MA1101121999999MW1001REMMET099KEST 031252Z AUTO 30018KT 10SM OVC027 00/M04 A2986 RMK AO2 PK WND 29029/1201 SLP124 T00001039 TSNO;EQDQ01+000000PRSWM2
0054726499999992000020912009+43400-094750NSRDB+040199999V020999999999999999999999999999+99999+99999999999ADDGP10060000002000000002000000002000GR100600000900009
0192726499999992000020918524+43400-094750FM-15+0401KEST V0200601N006210030019N0096561N1+00201-00101101491ADDGD14991+0030019GF108991999999999999999999MA1101391999999MW1051REMMET083KEST 091852Z AUTO 06012KT 6SM HZ OVC010 02/M01 A2994 RMK AO2 SLP149 T00221006 TSNO;EQDQ01+000003PRSWM1Q02    003PRSWM1
0071726499999992000020919009+43400-094750NSRDB+040199999V020999999999999999999999999999+99999+99999999999ADDGP10060053702009083502021009602009GQ100600582917919GR100600740914059
0071726499999992000021221009+43400-094750NSRDB+040199999V020999999999999999999999999999+99999+99999999999ADDGP10060012402009000002021012402009GQ100600631921209GR100600635914049
0054726499999992000021312009+43400-094750NSRDB+040199999V020999999999999999999999999999+99999+99999999999ADDGP10060000002000000002000000002000GR100600000900009
0054726499999992000021412009+43400-094750NSRDB+040199999V020999999999999999999999999999+99999+99999999999ADDGP10060000002000000002000000002000GR100600000900009
0071726499999992000021522009+43400-094750NSRDB+040199999V020999999999999999999999999999+99999+99999999999ADDGP10060017702009007602021015002009GQ100600691922679GR100600500914029
0157726499999992000021701524+43400-094750FM-15+0401KEST V0201101N005112200019N0160931N1-00501-00801103111ADDGF100991999999999999999999MA1102881999999MW1001REMMET079KEST 170152Z AUTO 11010KT 10SM CLR M05/M08 A3038 RMK AO2 SLP311 T10501083 TSNO;EQDQ01+000000PRSWM2
0243726499999992000021705524+43400-094750FM-15+0401KEST V0201401N005110270019N0160931N1-00601-00801102951ADDGD14991+0270019GF108991999999999999999999KA1999M-00391KA2999N-00611MA1102741999999MD1810061+9999MW1001REMMET110KEST 170552Z AUTO 14010KT 10SM OVC095 M06/M08 A3034 RMK AO2 SLP295 T10561083 11039 21061 410281117 58006 TSNO;EQDQ01+000000PRSWM2
0071726499999992000021718009+43400-094750NSRDB+040199999V020999999999999999999999999999+99999+99999999999ADDGP10060009302009000002021009302009GQ100600574916179GR100600755914019
0228726499999992000021718524+43400-094750FM-15+0401KEST V0201201N00571000151CN0008051N1-00401-00501102391ADDAA101000021GD15991+0001519GF109991999999000251999999MA1102201999999MW1491MW2731REMMET102KEST 171852Z AUTO 12011KT 1/2SM SN FZFG VV006 M04/M05 A3018 RMK AO2 SNB13 SLP239 P0000 T10391050 TSNO;EQDQ01+000003PRSWM1Q02    003PRSWM1
0238726499999992000021806524+43400-094750FM-15+0401KEST V0200301N005110066019N0048281N1-00401-00501102071ADDAA101000021GD13991+0066019GD24991+0087019GF108991999999999999999999MA1101901999999MW1101REMMET103KEST 180652Z AUTO 03010KT 3SM BR BKN022 OVC029 M04/M05 A3009 RMK AO2 SNE35 SLP207 P0000 T10391050 TSNO;EQDQ01+000003PRSWM1Q02    003PRSWM1
0071726499999992000022518009+43400-094750NSRDB+040199999V020999999999999999999999999999+99999+99999999999ADDGP10060010502009000002021010502009GQ100600545916119GR100600810913969
0193726499999992000022902524+43400-094750FM-15+0401KEST V0201701N009312200019N0160931N1+01101+00301100721ADDGF100991999999999999999999MA1100681999999MD1110061+9999MW1001REMMET101KEST 290252Z AUTO 17018KT 10SM CLR 11/03 A2973 RMK AO2 PK WND 16026/0236 SLP072 T01110028 51006 TSNO;EQDQ01+000000PRSWM2
0054726499999992000030208009+43400-094750NSRDB+040199999V020999999999999999999999999999+99999+99999999999ADDGP10060000002000000002000000002000GR100600000900009
0156726499999992000030221524+43400-094750FM-15+0401KEST V0209999V002612200019N0160931N1+00801-00601102451ADDGF100991999999999999999999MA1102301999999MW1001REMMET078KEST 022152Z AUTO VRB05KT 10SM CLR 08/M06 A3021 RMK AO2 SLP245 T00781056 TSNO;EQDQ01+000000PRSWM2
0071726499999992000030701009+43400-094750NSRDB+040199999V020999999999999999999999999999+99999+99999999999ADDGP10060000002009000002021000002009GQ100600890926229GR100600006903129
0155726499999992000030709524+43400-094750FM-15+0401KEST V0201701N004112200019N0160931N1+00701+00401101071ADDGF100991999999999999999999MA1101081999999MW1001REMMET077KEST 070952Z AUTO 17008KT 10SM CLR 07/04 A2985 RMK AO2 SLP107 T00670039 TSNO;EQDQ01+000000PRSWM2
0154726499999992000031413524+43400-094750FM-15+0401KEST V0203001N003112200019N0128741N1+00201+00101101861ADDGF100991999999999999999999MA1101761999999MW1001REMMET076KEST 141352Z AUTO 30006KT 8SM CLR 02/01 A3005 RMK AO2 SLP186 T00220006 TSNO;EQDQ01+000000PRSWM2
0175726499999992000031414524+43400-094750FM-15+0401KEST V0203201N003612200019N0160931N1+00401+00101101871ADDGF100991999999999999999999MA1101761999999MD1310031+9999MW1001REMMET083KEST 141452Z AUTO 32007KT 10SM CLR 04/01 A3005 RMK AO2 SLP187 T00390006 53003 TSNO;EQDQ01+000000PRSWM2
0071726499999992000032015009+43400-094750NSRDB+040199999V020999999999999999999999999999+99999+99999999999ADDGP10060008502008000002015008502008GQ100600680911239GR100600516913789
0323726499999992000032323524+43400-094750FM-15+0401KEST V0201401N005110138019N0048281N1+01301+01101101581ADDAA101002591AA206002591GD12991+0087019GD24991+0138019GF108991999999999999999999KA1999M+01721KA2999N+01281MA1101561999999MD1610141+9999MW1101MW2611REMMET131KEST 232352Z AUTO 14010KT 3SM -RA BR FEW029 OVC046 13/11 A2999 RMK AO2 RAB2253 SLP158 P0010 60010 T01280106 10172 20128 56014 TSNO;EQDQ01+000003PRSWM1Q02    003PRSWM1
0185726499999992000032519524+43400-094750FM-15+0401KEST V0202901N012312200019N0160931N1+01401-00301101751ADDGF100991999999999999999999MA1101691999999MW1001OC101441REMMET099KEST 251952Z AUTO 29024G28KT 10SM CLR 14/M03 A3003 RMK AO2 PK WND 29029/1940 SLP175 T01441028 TSNO;EQDQ01+000000PRSWM2
0156726499999992000032712524+43400-094750FM-15+0401KEST V0202601N005712200019N0160931N1+00301-00301100311ADDGF100991999999999999999999MA1100241999999MW1001REMMET078KEST 271252Z AUTO 26011KT 10SM CLR 03/M03 A2960 RMK AO2 SLP031 T00281028 TSNO;EQDQ01+000000PRSWM2
0054726499999992000033110009+43400-094750NSRDB+040199999V020999999999999999999999999999+99999+99999999999ADDGP10060000002000000002000000002000GR100600000900009
0176726499999992000040508524+43400-094750FM-15+0401KEST V0201701N006712200019N0160931N1+00201-00801100461ADDGF100991999999999999999999MA1100411999999MD1810401+9999MW1001REMMET084KEST 050852Z AUTO 17013KT 10SM CLR 02/M08 A2965 RMK AO2 SLP046 T00221078 58040 TSNO;EQDQ01+000000PRSWM2
0169726499999992000040904524+43400-094750FM-15+0401KEST V0202201N006712200019N0160931N1+00601-00201101561ADDGF100991999999999999999999MA1101461999999MW1001OC101031REMMET083KEST 090452Z AUTO 22013G20KT 10SM CLR 06/M02 A2996 RMK AO2 SLP156 T00611022 TSNO $;EQDQ01+000000PRSWM2
0071726499999992000040917009+43400-094750NSRDB+040199999V020999999999999999999999999999+99999+99999999999ADDGP10060041802008009702015034702008GQ100600431913799GR100600994913629
0127726499999992000041000524+43400-094750FM-15+0401KEST V02099999999992200019N9999999N1+00701-00101101931ADDMA1101831999999MW1001REMMET075KEST 100052Z AUTO 10SM BKN120 07/M01 A3007 RMK AO2 SLP193 T00721011 TSNO $;EQDQ01+000000PRSWM2
0176726499999992000041010524+43400-094750FM-15+0401KEST V0200701N005710240019N0160931N1+00301-00201102091ADDGD14991+0240019GF108991999999999999999999MA1102031999999MW1001REMMET083KEST 101052Z AUTO 07011KT 10SM OVC085 03/M02 A3013 RMK AO2 SLP209 T00281022 TSNO $;EQDQ01+000000PRSWM2
0232726499999992000041511524+43400-094750FM-15+0401KEST V0203601N008210024019N0160931N1+00001-00201101561ADDGD14991+0024019GF108991999999999999999999KA1999M+00221KA2999N+00001MA1101491999999MD1310251+9999MW1001REMMET099KEST 151152Z AUTO 36016KT 10SM OVC008 00/M02 A2997 RMK AO2 SLP156 T00001022 10022 20000 53025 TSNO;EQDQ01+000000PRSWM2
0293726499999992000041705524+43400-094750FM-15+0401KEST V0200201N00461000901CN0064371N1+00101+00101102011ADDGD13991+0021019GD24991+0030019GF108991999999999999999999KA1999M+00171KA2999N+00111MA1101901999999MD1010021+9999MW1101REMMET129KEST 170552Z AUTO 02009KT 4SM BR BKN007 OVC010 01/01 A3009 RMK AO2 CIG 003V008 SLP201 T00110006 10017 20011 400170006 50002 TSNO;EQDQ01+000003PRSWM1Q02    003PRSWM1
0071726499999992000042500009+43400-094750NSRDB+040199999V020999999999999999999999999999+99999+99999999999ADDGP10060025702008061802015007002008GQ100600724927189GR100600407913509
0215726499999992000042700524+43400-094750FM-15+0401KEST V0202401N005110150019N0128741N1+01301+01001101651ADDAA101000021GD14991+0150019GF108991999999999999999999MA1101631999999MW1611REMMET095KEST 270052Z AUTO 24010KT 8SM -RA OVC055 13/10 A3001 RMK AO2 RAB13 SLP165 P0000 T01330100 TSNO;EQDQ01+000003PRSWM1Q02    003PRSWM1
0071726499999992000042816009+43400-094750NSRDB+040199999V020999999999999999999999999999+99999+99999999999ADDGP10060071202008083702015012802008GQ100600459911649GR100600937913479
0176726499999992000042902524+43400-094750FM-15+0401KEST V0203601N003112200019N0160931N1+00901-00301101851ADDGF100991999999999999999999MA1101831999999MD1310161+9999MW1001REMMET084KEST 290252Z AUTO 36006KT 10SM CLR 09/M03 A3007 RMK AO2 SLP185 T00891033 53016 TSNO;EQDQ01+000000PRSWM2
0071726499999992000050320009+43400-094750NSRDB+040199999V020999999999999999999999999999+99999+99999999999ADDGP10060081302008056802015032902008GQ100600318921539GR100601141913449
0071726499999992000051000009+43400-094750NSRDB+040199999V020999999999999999999999999999+99999+99999999999ADDGP10060029002008061402015007802008GQ100600698927569GR100600462913409
0054726499999992000051204009+43400-094750NSRDB+040199999V020999999999999999999999999999+99999+99999999999ADDGP10060000002000000002000000002000GR100600000900009
0254726499999992000051214524+43400-094750FM-15+0401KEST V0202801N006212200019N0160931N1+01401+00601100551ADDAA101000021AA203000021GD12991+0300019GF104991999999999999999999MA1100581999999MD1310061+9999MW1611REMMET109KEST 121452Z AUTO 28012KT 10SM -RA SCT100 14/06 A2970 RMK AO2 RAB23E32B48 SLP055 P0000 60000 T01390061 53006;EQDQ01+000003PRSWM1Q02    003PRSWM1
0071726499999992000051219009+43400-094750NSRDB+040199999V020999999999999999999999999999+99999+99999999999ADDGP10060093402008086402015015302008GQ100600255918809GR100601208913389
0054726499999992000051604009+43400-094750NSRDB+040199999V020999999999999999999999999999+99999+99999999999ADDGP10060000002000000002000000002000GR100600000900009
0198726499999992000051716524+43400-094750FM-15+0401KEST V0200801N00671001501CN0032181N1+01601+01501100381ADDGD14991+0024019GF108991999999999999999999MA1100411999999MW1101REMMET089KEST 171652Z AUTO 08013KT 2SM BR OVC008 16/15 A2965 RMK AO2 CIG 005V012 SLP038 T01560150;EQDQ01+000003PRSWM1Q02    003PRSWM1
0071726499999992000052218009+43400-094750NSRDB+040199999V020999999999999999999999999999+99999+99999999999ADDGP10060093702008074602015025902008GQ100600250915429GR100601207913329
0054726499999992000052506009+43400-094750NSRDB+040199999V020999999999999999999999999999+99999+99999999999ADDGP10060000002000000002000000002000GR100600000900009
0071726499999992000052520009+43400-094750NSRDB+040199999V020999999999999999999999999999+99999+99999999999ADDGP10060082602008058002015030902008GQ100600273922019GR100601183913319
0071726499999992000052622009+43400-094750NSRDB+040199999V020999999999999999999999999999+99999+99999999999ADDGP10060015902008000002015015902008GQ100600457925699GR100600928913319
0168726499999992000052909524+43400-094750FM-15+0401KEST V0201201N004112200019N0096561N1+01101+01001101381ADDGF100991999999999999999999MA1101391999999MW1101REMMET074KEST 290952Z AUTO 12008KT 6SM BR CLR 11/10 A2994 RMK AO2 SLP138 T01060100;EQDQ01+000003PRSWM1Q02    003PRSWM1
0071726499999992000053013009+43400-094750NSRDB+040199999V020999999999999999999999999999+99999+99999999999ADDGP10060015202008007102015013102008GQ100600728907599GR100600393913299
0281726499999992000053114524+43400-094750FM-15+0401KEST V0200801N009312200019N0112651N1+01501+01401101351ADDAA101000891AA203003391GD12991+0069019GF102991999999999999999999MA1101391999999MD1810121+9999MW1611OC101131REMMET128KEST 311452Z AUTO 08018G22KT 7SM -RA FEW023 15/14 A2994 RMK AO2 PK WND 07031/1432 LTG DSNT W SLP135 P0003 60013 T01500139 58012;EQDQ01+000003PRSWM1Q02    003PRSWM1
0071726499999992000060213009+43400-094750NSRDB+040199999V020999999999999999999999999999+99999+99999999999ADDGP10060024202008047702015009902008GQ100600726907559GR100600397913289
0225726499999992000061123524+43400-094750FM-15+0401KEST V0200901N006212200019N0160931N1+02701+00901101641ADDAA106000021GF100991999999999999999999KA1999M+02891KA2999N+02611MA1101691999999MD1310031+9999MW1001REMMET096KEST 112352Z AUTO 09012KT 10SM CLR 27/09 A3003 RMK AO2 SLP164 60000 T02720094 10289 20261 53003;EQDQ01+000000PRSWM2
0071726499999992000061402009+43400-094750NSRDB+040199999V020999999999999999999999999999+99999+99999999999ADDGP10060003102008010602015002302008GQ100600857929869GR100600097912919
0071726499999992000061620009+43400-094750NSRDB+040199999V020999999999999999999999999999+99999+99999999999ADDGP10060085702008058102015032902008GQ100600249922099GR100601200913239
0071726499999992000061718009+43400-094750NSRDB+040199999V020999999999999999999999999999+99999+99999999999ADDGP10060077902008045102015036202008GQ100600227914939GR100601220913239
0150726499999992000061912524+43400-094750FM-15+0401KEST V0201801N006212200019N0160931N1+01601+01201101531ADDGF100991999999999999999999MA1101591999999MW1001REMMET072KEST 191252Z AUTO 18012KT 10SM CLR 16/12 A3000 RMK AO2 SLP153 T01610122;EQDQ01+000000PRSWM2
0150726499999992000062104524+43400-094750FM-15+0401KEST V0202501N004612200019N0160931N1+01601+00901100711ADDGF100991999999999999999999MA1100781999999MW1001REMMET072KEST 210452Z AUTO 25009KT 10SM CLR 16/09 A2976 RMK AO2 SLP071 T01560094;EQDQ01+000000PRSWM2
0071726499999992000062112009+43400-094750NSRDB+040199999V020999999999999999999999999999+99999+99999999999ADDGP10060008002008017802015005702008GQ100600826906449GR100600171913229
0071726499999992000062501009+43400-094750NSRDB+040199999V020999999999999999999999999999+99999+99999999999ADDGP10060009002008001702015008602008GQ100600755928889GR100600330913229
0071726499999992000062514009+43400-094750NSRDB+040199999V020999999999999999999999999999+99999+99999999999ADDGP10060040102008057502015013102008GQ100600620908339GR100600619913229
0054726499999992000062810009+43400-094750NSRDB+040199999V020999999999999999999999999999+99999+99999999999ADDGP10060000002000000002000000002000GR100600000900009
0213726499999992000062820524+43400-094750FM-15+0401KEST V0202701N007712200019N0160931N1+02201+01201101661ADDAA101000021AA203001091GF100991999999999999999999MA1101691999999MD1810191+9999MW1001REMMET099KEST 282052Z AUTO 27015KT 10SM CLR 22/12 A3003 RMK AO2 RAB07E17 SLP166 P0000 60004 T02220117 58019;EQDQ01+000000PRSWM2
0150726499999992000062916524+43400-094750FM-15+0401KEST V0209999V003112200019N0160931N1+02201+01101101751ADDGF100991999999999999999999MA1101801999999MW1001REMMET072KEST 291652Z AUTO VRB06KT 10SM CLR 22/11 A3006 RMK AO2 SLP175 T02220106;EQDQ01+000000PRSWM2
0172726499999992000070114524+43400-094750FM-15+0401KEST V0201801N005712200019N0160931N1+02401+01801101281ADDGF100991999999999999999999MA1101351999999MD1610011+9999MW1001REMMET080KEST 011452Z AUTO 18011KT 10SM CLR 24/18 A2993 RMK AO2 SLP128 T02390183 56001 $;EQDQ01+000000PRSWM2
0152726499999992000070200524+43400-094750FM-15+0401KEST V0201701N007212200019N0160931N1+02701+01701100921ADDGF100991999999999999999999MA1101021999999MW1001REMMET074KEST 020052Z AUTO 17014KT 10SM CLR 27/17 A2983 RMK AO2 SLP092 T02720167 $;EQDQ01+000000PRSWM2
0205726499999992000070220524+43400-094750FM-15+0401KEST V0200201N007212200019N0160931N1+02701+02201100691ADDGD12991+0066019GF104991999999999999999999MA1100781999999MD1010001+9999MW1001REMMET098KEST 022052Z AUTO 02014KT 10SM SCT022 27/22 A2976 RMK AO2 LTG DSNT SE-SW SLP069 T02720222 50000 $;EQDQ01+000000PRSWM2
0168726499999992000070401524+43400-094750FM-15+0401KEST V0201001N002110087019N0160931N1+02201+02001101421ADDGD14991+0087019GF108991999999999999999999MA1101491999999MW1001REMMET075KEST 040152Z AUTO 10004KT 10SM OVC029 22/20 A2997 RMK AO2 SLP142 T02220200;EQDQ01+000000PRSWM2
0393726499999992000070411524+43400-094750FM-15+0401KEST V0200601N00211001501CN0064371N1+02101+02001101221ADDAA101000891AA206000891AA324000891GD13991+0018019GD23991+0030019GD34991+0045019GF108991999999999999999999KA1999M+02111KA2999N+02061MA1101291999999MD1510021+9999MW1101MW2171REMMET175KEST 041152Z AUTO 06004KT 4SM TS BR BKN006 BKN010 OVC015 21/20 A2991 RMK AO2 LTG DSNT ALQDS TSB1054RAB17E34 CIG 005V009 SLP122 P0003 60003 70003 T02060200 10211 20206 55002 $;EQDQ01+000003PRSWM1Q02    003PRSWM1
0160726499999992000070718524+43400-094750FM-15+0401KEST V0201601N009812200019N0112651N1+02801+02401101391ADDGF100991999999999999999999MA1101491999999MW1001OC101181REMMET074KEST 071852Z AUTO 16019G23KT 7SM CLR 28/24 A2997 RMK AO2 SLP139 T02830244;EQDQ01+000000PRSWM2
0071726499999992000070722009+43400-094750NSRDB+040199999V020999999999999999999999999999+99999+99999999999ADDGP10060056502008035702015030602008GQ100600436925659GR100600956913219
0054726499999992000070804009+43400-094750NSRDB+040199999V020999999999999999999999999999+99999+99999999999ADDGP10060000002000000002000000002000GR100600000900009
0054726499999992000070806009+43400-094750NSRDB+040199999V020999999999999999999999999999+99999+99999999999ADDGP10060000002000000002000000002000GR100600000900009
0054726499999992000071709009+43400-094750NSRDB+040199999V020999999999999999999999999999+99999+99999999999ADDGP10060000002000000002000000002000GR100600000900009
0188726499999992000072014524+43400-094750FM-15+0401KEST V0203401N006710033019N0160931N1+01701+01401101811ADDGD13991+0033019GF107991999999999999999999MA1101831999999MD1110081+9999MW1001REMMET081KEST 201452Z AUTO 34013KT 10SM BKN011 17/14 A3007 RMK AO2 SLP181 T01720144 51008;EQDQ01+000000PRSWM2
0168726499999992000072521524+43400-094750FM-15+0401KEST V0201901N005110099019N0160931N1+02501+01901101181ADDGD14991+0099019GF108991999999999999999999MA1101251999999MW1001REMMET075KEST 252152Z AUTO 19010KT 10SM OVC033 25/19 A2990 RMK AO2 SLP118 T02500194;EQDQ01+000000PRSWM2
0071726499999992000072802009+43400-094750NSRDB+040199999V020999999999999999999999999999+99999+99999999999ADDGP10060000502008000002015000502008GQ100600866929339GR100600058909839
0054726499999992000072804009+43400-094750NSRDB+040199999V020999999999999999999999999999+99999+99999999999ADDGP10060000002000000002000000002000GR100600000900009
0190726499999992000073021524+43400-094750FM-15+0401KEST V0200101N003612200019N0160931N1+02701+01801101711ADDGD12991+0135019GD22991+0150019GF104991999999999999999999MA1101761999999MW1001REMMET082KEST 302152Z AUTO 01007KT 10SM SCT045 SCT055 27/18 A3005 RMK AO2 SLP171 T02720178;EQDQ01+000000PRSWM2
0071726499999992000073122009+43400-094750NSRDB+040199999V020999999999999999999999999999+99999+99999999999ADDGP10060062502008062402015019402008GQ100600463925159GR100600915913269
