0221844440999992000040612004-06220-077830FM-12+2435SPPY V0201101N004610042019N0120001N1+01101+01011999999ADDAA124000791AY121061GA1051+004209079GF108991051061004501021999KA1240N+01051MA1999999075441MD1999999+0001MW1021REMSYN100AAXX  06124 84444 21462 81109 10110 20101 37544 7022/ 8562/ 333 20105 5600/ 58000 69974 85714 83460;
0223844440999992000041821004-06220-077830FM-12+2435SPPY V0203301N00511045001CN0200001N1+01651+00971999999ADDAA199000091AY121031AY221031GA1031+006009069GF106991031041008001011999MA1999999075191MD1999999-0061MW1021REMSYN088AAXX  18214 84444 31570 63310 10165 20097 37519 70222 8341/ 333 5600/ 59006 83620 83460;EQDQ01  00002PRCP99
0223844440999992000060921004-06220-077830FM-12+2435SPPY V0200201N00511045001CN0120001N1+01301+01131999999ADDAA199000091AY121031AY221031GA1041+004509069GF108991041041004501021999MA1999999075351MD1999999+0061MW1021REMSYN088AAXX  09214 84444 31462 80210 10130 20113 37535 70222 8442/ 333 5600/ 58006 84615 84460;EQDQ01  00002PRCP99
0203844440999992000061221004-06220-077830FM-12+2435SPPY V0200301N00311045001CN0160001N1+01701+01021999999ADDAA199000091AY121031AY221031GA1031+030009019GF106991031041008001011999MA1999999075271MW1021REMSYN082AAXX  12214 84444 31566 60306 10170 20102 37527 70222 8341/ 333 5600/ 58/// 83460;EQDQ01  00002PRCP99
0215844440999992000061715004-06220-077820FM-12+2435SPPY V0209999V001010039019N0040001N1+01201+01111999999ADDAA199000091AY151031GA1051+003909079GF108991051061004501011999MA1999999075621MD1999999+0141MW1101REMSYN088AAXX  17154 84444 31440 89902 10120 20111 37562 7105/ 8561/ 333 5600/ 58014 85713 83460;EQDQ01  00002PRCP99
0191844440999992000090915004-06220-077820FM-12+2435SPPY V0209999C000012200019N0120001N1+01621+00741999999ADDAA199000091AY101031GA1001+999999999GF100991001001999999001001MA1999999075431MD1999999+0151MW1021REMSYN064AAXX  09154 84444 31962 00000 10162 20074 37543 7020/ 333 58015;EQDQ01  00002PRCP99
0193844440999992000121815004-06220-077820FM-12+2435SPPY V0201101N00571045001CN0120001N1+01551+00861999999ADDAA199000091GA1031+006009069GF105991031041004501011999MA1999999075461MW1021REMSYN088AAXX  18154 84444 31462 51111 10155 20086 37546 702// 8341/ 333 5600/ 58/// 83620 82460;EQDQ01  00002PRCP99
0179844520999992000010722004-06780-079830FM-15+0034SPHI V0201901N008112200019N0112651N1+02501+01901999999ADDGA1021+009009999GA2021+030009999GF104991999999999999999999MA1101021999999MW1001REMMET069SPHI 072200Z 19029KMH 9999 FEW030 SCT100 25/19 Q1010 TMAX 27.0 PP000;EQDQ01+000000PRSWM2
0098844520999992000011101004-06780-079830FM-15+0034SPHI V0201701N00561220001CN0099001N1+02201+01801999999ADDMA1101081999999MW1001REMMET046SPHI 110100Z 17020KMH CAVOK 22/18 Q1011 PP000;EQDQ01+000000PRSWM2
0105844520999992000011103004-06780-079830FM-15+0034SPHI V0201701N00441220001CN0099001N1+02101+01801999999ADDMA1101291999999MW1001REMMET053SPHI 110300Z 17016KMH CAVOK 21/18 Q1013 PP000 TZS/FS;EQDQ01+000000PRSWM2
0098844520999992000011515004-06780-079830FM-15+0034SPHI V0201701N00391220001CN0099001N1+02401+01801999999ADDMA1101191999999MW1001REMMET046SPHI 151500Z 17014KMH CAVOK 24/18 Q1012 PP000;EQDQ01+000000PRSWM2
0108844520999992000011522004-06780-079830FM-15+0034SPHI V0201901N00781220001CN0099001N1+02601+01801999999ADDMA1100911999999MW1001REMMET056SPHI 152200Z 19028KMH CAVOK 26/18 Q1009 TMAX 27.7 PP000;EQDQ01+000000PRSWM2
0098844520999992000011719004-06780-079830FM-15+0034SPHI V0202001N00781220001CN0099001N1+02801+01901999999ADDMA1101021999999MW1001REMMET046SPHI 171900Z 20028KMH CAVOK 28/19 Q1010 PP000;EQDQ01+000000PRSWM2
0098844520999992000011820004-06780-079830FM-15+0034SPHI V0201901N00891220001CN0099001N1+02801+01801999999ADDMA1101021999999MW1001REMMET046SPHI 182000Z 19032KMH CAVOK 28/18 Q1010 PP000;EQDQ01+000000PRSWM2
0169844520999992000012220004-06780-079830FM-15+0034SPHI V0201901N008312200019N0112651N1+03001+01801999999ADDGA1021+009009999GA2021+030009999GF104991999999999999999999MA1100811999999MW1001REMMET059SPHI 222000Z 19030KMH 9999 FEW030 SCT100 30/18 Q1008 PP000;EQDQ01+000000PRSWM2
0169844520999992000012300004-06780-079830FM-15+0034SPHI V0201701N006710300019N0112651N1+02401+01801999999ADDGA1021+009009999GA2071+030009999GF107991999999999999999999MA1100911999999MW1001REMMET059SPHI 230000Z 17024KMH 9999 SCT030 BKN100 24/18 Q1009 PP000;EQDQ01+000000PRSWM2
0159844520999992000012301004-06780-079830FM-15+0034SPHI V0201501N00611220001CN0112651N1+02301+01801999999ADDGA1071+007509999GA2021+030009999MA1101021999999MW1001REMMET059SPHI 230100Z 15022KMH 9999 BKN025 SCT100 23/18 Q1010 PP000;EQDQ01+000042SCOTCVQ02+000000PRSWM2
0098844520999992000020116004-06780-079830FM-15+0034SPHI V0202501N00221220001CN0099001N1+02901+01701999999ADDMA1101291999999MW1001REMMET046SPHI 011600Z 25008KMH CAVOK 29/17 Q1013 PP000;EQDQ01+000000PRSWM2
0169844520999992000020808004-06780-079830FM-15+0034SPHI V0201801N005010300019N0112651N1+02201+01901999999ADDGA1021+009009999GA2071+030009999GF107991999999999999999999MA1101081999999MW1001REMMET059SPHI 080800Z 18018KMH 9999 SCT030 BKN100 22/19 Q1011 PP000;EQDQ01+000000PRSWM2
0146844520999992000020810004-06780-079830FM-15+0034SPHI V0201701N005012200019N0112651N1+02201+01901999999ADDGA1021+007509999GF104991999999999999999999MA1101081999999MW1001REMMET052SPHI 081000Z 17018KMH 9999 SCT025 22/19 Q1011 PP000;EQDQ01+000000PRSWM2
0169844520999992000020913004-06780-079830FM-15+0034SPHI V0201901N002212200019N0112651N1+02201+01701999999ADDGA1021+012009999GA2021+030009999GF104991999999999999999999MA1101291999999MW1001REMMET059SPHI 091300Z 19008KMH 9999 SCT040 SCT100 22/17 Q1013 PP000;EQDQ01+000000PRSWM2
0098844520999992000021110004-06780-079830FM-15+0034SPHI V0201801N00331220001CN0099001N1+02101+01701999999ADDMA1101081999999MW1001REMMET046SPHI 111000Z 18012KMH CAVOK 21/17 Q1011 PP000;EQDQ01+000000PRSWM2
0098844520999992000021304004-06780-079830FM-15+0034SPHI V0201901N00391220001CN0099001N1+02301+01701999999ADDMA1101191999999MW1001REMMET046SPHI 130400Z 19014KMH CAVOK 23/17 Q1012 PP000;EQDQ01+000000PRSWM2
0169844520999992000021602004-06780-079830FM-15+0034SPHI V0201701N005612200019N0112651N1+02401+01801999999ADDGA1021+012009999GA2021+030009999GF104991999999999999999999MA1101291999999MW1001REMMET059SPHI 160200Z 17020KMH 9999 FEW040 SCT100 24/18 Q1013 PP000;EQDQ01+000000PRSWM2
0098844520999992000022506004-06780-079830FM-15+0034SPHI V0202001N00281220001CN0099001N1+02401+02001999999ADDMA1101021999999MW1001REMMET046SPHI 250600Z 20010KMH CAVOK 24/20 Q1010 PP000;EQDQ01+000000PRSWM2
0098844520999992000022507004-06780-079830FM-15+0034SPHI V0201901N00281220001CN0099001N1+02401+02101999999ADDMA1101021999999MW1001REMMET046SPHI 250700Z 19010KMH CAVOK 24/21 Q1010 PP000;EQDQ01+000000PRSWM2
0098844520999992000022803004-06780-079830FM-15+0034SPHI V0201701N00611220001CN0099001N1+02301+02001999999ADDMA1101191999999MW1001REMMET046SPHI 280300Z 17022KMH CAVOK 23/20 Q1012 PP000;EQDQ01+000000PRSWM2
0098844520999992000030308004-06780-079830FM-15+0034SPHI V0201901N00141220001CN0099001N1+02201+01901999999ADDMA1100911999999MW1001REMMET046SPHI 030800Z 19005KMH CAVOK 22/19 Q1009 PP000;EQDQ01+000000PRSWM2
0146844520999992000030609004-06780-079830FM-15+0034SPHI V0209999C000010120019N0112651N1+02501+01901999999ADDGA1081+012009999GF108991999999999999999999MA1101021999999MW1001REMMET052SPHI 060900Z 00000KMH 9999 OVC040 25/19 Q1010 PP000;EQDQ01+000000PRSWM2
0146844520999992000031105004-06780-079830FM-15+0034SPHI V0201901N003310090019N0112651N1+02601+02001999999ADDGA1071+009009999GF107991999999999999999999MA1101081999999MW1001REMMET052SPHI 110500Z 19012KMH 9999 BKN030 26/20 Q1011 PP000;EQDQ01+000000PRSWM2
0098844520999992000032216004-06780-079830FM-15+0034SPHI V0202101N00391220001CN0099001N1+02701+02001999999ADDMA1101021999999MW1001REMMET046SPHI 221600Z 21014KMH CAVOK 27/20 Q1010 PP000;EQDQ01+000000PRSWM2
0098844520999992000032401004-06780-079830FM-15+0034SPHI V0201801N00781220001CN0099001N1+02101+01801999999ADDMA1101021999999MW1001REMMET046SPHI 240100Z 18028KMH CAVOK 21/18 Q1010 PP000;EQDQ01+000000PRSWM2
0109844520999992000032722004-06780-079830FM-15+0034SPHI V0202101N00561220001CN0099001N1+02701+01601999999ADDMA1100711999999MW1001REMMET057SPHI 272200Z 21020KMH CAVOK 27/16 Q1007 T.MAX 31.5 PP000;EQDQ01+000000PRSWM2
0098844520999992000032819004-06780-079830FM-15+0034SPHI V0202101N00561220001CN0099001N1+02901+01901999999ADDMA1100811999999MW1001REMMET046SPHI 281900Z 21020KMH CAVOK 29/19 Q1008 PP000;EQDQ01+000000PRSWM2
0098844520999992000040120004-06780-079830FM-15+0034SPHI V0202101N00611220001CN0099001N1+03001+01901999999ADDMA1100711999999MW1001REMMET046SPHI 012000Z 21022KMH CAVOK 30/19 Q1007 PP000;EQDQ01+000000PRSWM2
0098844520999992000040317004-06780-079830FM-15+0034SPHI V0201901N00671220001CN0099001N1+02901+01801999999ADDMA1101191999999MW1001REMMET046SPHI 031700Z 19024KMH CAVOK 29/18 Q1012 PP000;EQDQ01+000000PRSWM2
0168844520999992000041203004-06780-079830FM-15+0034SPHI V0201701N004112200019N0112651N1+02201+01901999999ADDGA1021+009009999GA2021+030009999GF104991999999999999999999MA1101291999999MW1001REMMET058SPHI 120300Z 17008KT 9999 SCT030 SCT100 22/19 Q1013 PP000;EQDQ01+000000PRSWM2
0290844520999992000041303004-06780-079830SY-MT+0034SPHI V0201801N005119999999N0100001N1+02301+01861101491ADDAA199000091AY101031AY201031GF106991061001999999011999MA1101291101181MD1999999+0151MW1031REMSYN088AAXX  13034 84452 31960 61810 10230 20186 30118 40149 70300 8601/ 333 5600/ 58015 86460;MET045SPHI 130300Z 18010KT CAVOK 23/19 Q1013 PP000;EQDQ01+000000PRSWM2Q02  00002PRCP99Q03    003PRSWM1
0168844520999992000041808004-06780-079830FM-15+0034SPHI V0201601N002112200019N0112651N1+02201+01901999999ADDGA1021+012009999GA2021+030009999GF104991999999999999999999MA1101191999999MW1001REMMET058SPHI 180800Z 16004KT 9999 SCT040 SCT100 22/19 Q1012 PP000;EQDQ01+000000PRSWM2
0272844520999992000041909004-06780-079830SY-MT+0034SPHI V0201901N003612200019N0100001N1+02051+01851101311ADDAA199000091AY101031AY221031GF100991001001999999001001MA1101081101001MD1999999+0051MW1021REMSYN070AAXX  19094 84452 31960 01907 10205 20185 30100 40131 70202 333 58005;MET045SPHI 190900Z 19007KT CAVOK 21/19 Q1011 PP000;EQDQ01+000000PRSWM2Q02  00002PRCP99Q03    003PRSWM1
0290844520999992000042521004-06780-079830SY-MT+0034SPHI V0201901N008712200019N0100001N1+02601+01701101201ADDAA199000091AY121031AY211031GF102991021001999999031001MA1100911100901MD1999999+0201MW1011REMSYN088AAXX  25214 84452 31960 21917 10260 20170 30090 40120 70121 82030 333 56000 58020 82360;MET045SPHI 252100Z 19017KT CAVOK 26/17 Q1009 PP000;EQDQ01+000000PRSWM2Q02  00002PRCP99Q03    003PRSWM1
0325844520999992000042700004-06780-079830SY-MT+0034SPHI V0201801N008212200019N0100001N1+02151+01691101061ADDAA199000091AY101061AY201061GA1011+030009079GF101991011001999999031001KA1240M+02771MA1100911100751MD1999999-0061MW1021REMSYN094AAXX  27004 84452 31960 11816 10215 20169 30075 40106 70200 81030 333 10277 56000 59006 81360;MET045SPHI 270000Z 18016KT CAVOK 22/17 Q1009 PP000;EQDQ01+000000PRSWM2Q02  00002PRCP99Q03    003PRSWM1
0158844520999992000043004004-06780-079830FM-15+0034SPHI V0201801N00411220001CN0112651N1+02101+01701999999ADDGA1071+009009999GA2021+030009999MA1101191999999MW1001REMMET058SPHI 300400Z 18008KT 9999 BKN030 SCT100 21/17 Q1012 PP000;EQDQ01+000042SCOTCVQ02+000000PRSWM2
0272844520999992000043018004-06780-079830SY-MT+0034SPHI V0202001N006212200019N0100001N1+02861+01801101351ADDAA199000091AY121061AY201061GF100991001001999999001001MA1101081101051MD1999999+0151MW1011REMSYN070AAXX  30184 84452 31960 02012 10286 20180 30105 40135 70120 333 58015;MET045SPHI 301800Z 20012KT CAVOK 29/18 Q1011 PP000;EQDQ01+000000PRSWM2Q02  00002PRCP99Q03    003PRSWM1
0158844520999992000050505004-06780-079830FM-15+0034SPHI V0201801N00511220001CN0112651N1+01901+01701999999ADDGA1071+006609999GA2021+027009999MA1101191999999MW1001REMMET058SPHI 050500Z 18010KT 9999 BKN022 SCT090 19/17 Q1012 PP000;EQDQ01+000042SCOTCVQ02+000000PRSWM2
0102844520999992000050914004-06780-079830FM-15+0034SPHI V0201901N00261220001CN0099001N1+02301+01801999999ADDMA1101391999999MW1001REMMET050SPHI 091400Z 19005KT CAVOK 23/18 Q1014 PP000 BRSO;EQDQ01+000000PRSWM2
0097844520999992000051017004-06780-079830FM-15+0034SPHI V0202101N00411220001CN0099001N1+02601+01901999999ADDMA1101291999999MW1001REMMET045SPHI 101700Z 21008KT CAVOK 26/19 Q1013 PP000;EQDQ01+000000PRSWM2
0145844520999992000052412304-06780-079830FM-15+0034SPHI V0201601N005110120019N0112651N1+01901+01601999999ADDGA1081+012009999GF108991999999999999999999MA1101391999999MW1001REMMET051SPHI 241230Z 16010KT 9999 OVC040 19/16 Q1014 PP000;EQDQ01+000000PRSWM2
0272844520999992000052515004-06780-079830SY-MT+0034SPHI V0201701N00511220001CN0100001N1+02221+01571101411ADDAA199000091AY121031AY221031GF100991001001999999001001MA1101291101101MD1999999-0361MW1011REMSYN070AAXX  25154 84452 31960 01710 10222 20157 30110 40141 70122 333 59036;MET045SPHI 251500Z 17010KT CAVOK 22/16 Q1013 PP000;EQDQ01+000000PRSWM2Q02  00002PRCP99Q03    003PRSWM1
0106844520999992000060222004-06780-079830FM-15+0034SPHI V0201701N00871220001CN0099001N1+02301+01701999999ADDMA1101021999999MW1001REMMET054SPHI 022200Z 17017KT CAVOK 23/17 Q1010 PP000 TMX 28.5;EQDQ01+000000PRSWM2
0177844520999992000060622004-06780-079830FM-15+0034SPHI V0201701N007712200019N0112651N1+02101+01501999999ADDGA1021+009009999GA2021+030009999GF104991999999999999999999MA1101291999999MW1001REMMET067SPHI 062200Z 17015KT 9999 SCT030 SCT100 21/15 Q1013 PP000 TMX 23.0;EQDQ01+000000PRSWM2
0145844520999992000061423004-06770-079820FM-15+0034SPHI V0201901N006712200019N0112651N1+02001+01501999999ADDGA1021+012009999GF104991999999999999999999MA1101191999999MW1001REMMET051SPHI 142300Z 19013KT 9999 SCT040 20/15 Q1012 PP000;EQDQ01+000000PRSWM2
0158844520999992000061516004-06770-079820FM-15+0034SPHI V0201701N00461220001CN0112651N1+02201+01601999999ADDGA1071+007509999GA2021+030009999MA1101391999999MW1001REMMET058SPHI 151600Z 17009KT 9999 BKN025 SCT100 22/16 Q1014 PP000;EQDQ01+000042SCOTCVQ02+000000PRSWM2
0168844520999992000062118004-06770-079820FM-15+0034SPHI V0201701N004110060019N0112651N1+02201+01001999999ADDGA1071+006009999GA2081+009009999GF108991999999999999999999MA1101291999999MW1001REMMET058SPHI 211800Z 17008KT 9999 BKN020 OVC030 22/10 Q1013 PP000;EQDQ01+000000PRSWM2
0168844520999992000062213004-06770-079820FM-15+0034SPHI V0201701N003612200019N0112651N1+01901+01701999999ADDGA1021+002409999GA2021+003009999GF104991999999999999999999MA1101491999999MW1001REMMET058SPHI 221300Z 17007KT 9999 SCT008 SCT010 19/17 Q1015 PP000;EQDQ01+000000PRSWM2
0158844520999992000062311004-06770-079820FM-15+0034SPHI V0209999999999220001CN0112651N1+01901+01601999999ADDGA1071+003609999GA2021+021009999MA1101291999999MW1001REMMET058SPHI 231100Z VRB02KT 9999 BKN012 SCT070 19/16 Q1013 PP000;EQDQ01+000042SCOTCVQ02+000000PRSWM2
0168844520999992000062515004-06770-079820FM-15+0034SPHI V0201701N006210036019N0112651N1+02001+01601999999ADDGA1071+003609999GA2081+009009999GF108991999999999999999999MA1101391999999MW1001REMMET058SPHI 251500Z 17012KT 9999 BKN012 OVC030 20/16 Q1014 PP000;EQDQ01+000000PRSWM2
0168844520999992000070114004-06770-079820FM-15+0034SPHI V0201701N003610030019N0070001N1+01901+01701999999ADDGA1021+002409999GA2071+003009999GF107991999999999999999999MA1101291999999MW1001REMMET058SPHI 011400Z 17007KT 7000 SCT008 BKN010 19/17 Q1013 PP000;EQDQ01+000000PRSWM2
0145844520999992000070310004-06770-079820FM-15+0034SPHI V0201701N004110045019N0112651N1+01801+01601999999ADDGA1081+004509999GF108991999999999999999999MA1101191999999MW1001REMMET051SPHI 031000Z 17008KT 9999 OVC015 18/16 Q1012 PP000;EQDQ01+000000PRSWM2
0176844520999992000070617004-06770-079820FM-15+0034SPHI V0201701N004110021019N0112651N1+02101+01701999999ADDGA1071+002109999GA2081+003609999GF108991999999999999999999MA1101191999999MW1001REMMET066SPHI 061700Z 17008KT 9999 BKN007 OVC012 21/17 Q1012 FU N/NE PP000;EQDQ01+000000PRSWM2
0145844520999992000071611004-06770-079820FM-15+0034SPHI V0201801N003110039019N0112651N1+01701+01601999999ADDGA1081+003909999GF108991999999999999999999MA1101291999999MW1001REMMET051SPHI 161100Z 18006KT 9999 OVC013 17/16 Q1013 PP000;EQDQ01+000000PRSWM2
0097844520999992000072708004-06770-079820FM-15+0034SPHI V0201701N00211220001CN0099001N1+01801+01601999999ADDMA1101191999999MW1001REMMET045SPHI 270800Z 17004KT CAVOK 18/16 Q1012 PP000;EQDQ01+000000PRSWM2
0347844520999992000072918004-06770-079820SY-MT+0034SPHI V0201901N00361045001CN0100001N1+02001+01451101441ADDAA199000091AY121061AY221061GA1021+004809999GA2021+027009999GF108991041011004501011999MA1101391101131MD1999999-0221MW1021REMSYN100AAXX  29184 84452 31460 81907 10200 20145 30113 40144 70222 8411/ 333 5600/ 59022 84616 84616 84459;MET058SPHI 291800Z 19007KT 9999 SCT016 SCT090 20/15 Q1014 PP000;EQDQ01+000000PRSWM2Q02  00002PRCP99Q03    003PRSWM1
0168844520999992000072920004-06770-079820FM-15+0034SPHI V0202301N003610060019N0112651N1+02001+01401999999ADDGA1071+006009999GA2081+012009999GF108991999999999999999999MA1101291999999MW1001REMMET058SPHI 292000Z 23007KT 9999 BKN020 OVC040 20/14 Q1013 PP000;EQDQ01+000000PRSWM2
0151844520999992000080310004-06770-079820FM-15+0034SPHI V0201701N003110030019N0070001N1+01701+01501999999ADDGA1081+003009999GF108991999999999999999999MA1101291999999MW1001REMMET057SPHI 031000Z 17006KT 7000S OVC010 17/15 Q1013 PP000 VBLE;EQDQ01+000000PRSWM2
0145844520999992000080404004-06770-079820FM-15+0034SPHI V0201701N004110090019N0112651N1+01901+01501999999ADDGA1081+009009999GF108991999999999999999999MA1101491999999MW1001REMMET051SPHI 040400Z 17008KT 9999 OVC030 19/15 Q1015 PP000;EQDQ01+000000PRSWM2
0145844520999992000080901004-06770-079820FM-15+0034SPHI V0201701N006210042019N0112651N1+01801+01601999999ADDGA1081+004209999GF108991999999999999999999MA1101291999999MW1001REMMET051SPHI 090100Z 17012KT 9999 OVC014 18/16 Q1013 PP000;EQDQ01+000000PRSWM2
0364844520999992000082312004-06770-079820SY-MT+0034SPHI V0201601N002610039019N0100001N1+01841+01541101231ADDAA199000091AY121061AY221061GA1071+003909999GA2021+030009999GF108991051051004501011999KA1240N+01601MA1101191100921MD1999999+0001MW1021REMSYN094AAXX  23124 84452 31460 81605 10184 20154 30092 40123 70222 8551/ 333 20160 58000 85613 83460;MET068SPHI 231200Z 16005KT 9999 BKN013 SCT100 18/15 Q1012 PP000 NIEB/S-SW;EQDQ01+000000PRSWM2Q02  00002PRCP99Q03    003PRSWM1
0145844520999992000082913004-06770-079820FM-15+0034SPHI V0201701N004110036019N0112651N1+01801+01501999999ADDGA1071+003609999GF107991999999999999999999MA1101291999999MW1001REMMET051SPHI 291300Z 17008KT 9999 BKN012 18/15 Q1013 PP000;EQDQ01+000000PRSWM2
0168844520999992000083116004-06770-079820FM-15+0034SPHI V0201901N002610060019N0112651N1+02201+01601999999ADDGA1021+004509999GA2071+006009999GF107991999999999999999999MA1101291999999MW1001REMMET058SPHI 311600Z 19005KT 9999 FEW015 BKN020 22/16 Q1013 PP000;EQDQ01+000000PRSWM2
0107844520999992000090410004-06770-079820FM-15+0034SPHI V0201601N00571220001CN0099001N1+01701+01501999999ADDMA1101291999999MW1001REMMET055SPHI 041000Z 16011KT CAVOK 17/15 Q1013 PP000 NIEB/S-SW;EQDQ01+000000PRSWM2
0168844520999992000090505004-06770-079820FM-15+0034SPHI V0201701N005112200019N0112651N1+01801+01501999999ADDGA1021+004509999GA2021+030009999GF104991999999999999999999MA1101391999999MW1001REMMET058SPHI 050500Z 17010KT 9999 FEW015 SCT100 18/15 Q1014 PP000;EQDQ01+000000PRSWM2
0097844520999992000090815004-06770-079820FM-15+0034SPHI V0209999999999220001CN0099001N1+02201+01501999999ADDMA1101291999999MW1001REMMET045SPHI 081500Z VRB03KT CAVOK 22/15 Q1013 PP000;EQDQ01+000000PRSWM2
0306844520999992000090818004-06770-079820SY-MT+0034SPHI V0202101N006212200019N0100001N1+02401+01461101201ADDAA199000091AY121061AY221061GA1041+045009079GF104991041001999999031001MA1101081100901MD1999999+0021MW1011REMSYN088AAXX  08184 84452 31960 42112 10240 20146 30090 40120 70122 84030 333 56000 58002 84365;MET045SPHI 081800Z 31012KT CAVOK 24/15 Q1011 PP000;EQDQ01+000000PRSWM2Q02  00002PRCP99Q03    003PRSWM1
0145844520999992000090905004-06770-079820FM-15+0034SPHI V0201701N005710045019N0112651N1+01801+01501999999ADDGA1081+004509999GF108991999999999999999999MA1101291999999MW1001REMMET051SPHI 090500Z 17011KT 9999 OVC015 18/15 Q1013 PP000;EQDQ01+000000PRSWM2
0248844520999992000091000004-06770-079820FM-12+0034SPHI V0201701N00821045001CN0100001N1+01801+01421101301ADDAA199000091AY121061AY211061GA1031+004509069GF107991031051004501031999KA1240M+02441MA1999999100991MD1999999-0031MW1021REMSYN100AAXX  10004 84452 31460 71716 10180 20142 30099 40130 70221 8353/ 333 10244 5600/ 59003 83615 84360;EQDQ01  00002PRCP99
0097844520999992000091308004-06770-079820FM-15+0034SPHI V0201701N00571220001CN0099001N1+01801+01301999999ADDMA1101191999999MW1001REMMET045SPHI 130800Z 17011KT CAVOK 18/13 Q1012 PP000;EQDQ01+000000PRSWM2
0168844520999992000091615004-06770-079820FM-15+0034SPHI V0201701N007212200019N0112651N1+02001+01401999999ADDGA1021+003909999GA2021+030009999GF104991999999999999999999MA1101391999999MW1001REMMET058SPHI 161500Z 17014KT 9999 SCT013 SCT100 20/14 Q1014 PP000;EQDQ01+000000PRSWM2
0145844520999992000092213004-06770-079820FM-15+0034SPHI V0201701N006212200019N0080001N1+01701+01401999999ADDGA1021+030009999GF102991999999999999999999MA1101291999999MW1001REMMET051SPHI 221300Z 17012KT 8000 FEW100 17/14 Q1013 PP000;EQDQ01+000000PRSWM2
0097844520999992000092602004-06770-079820FM-15+0034SPHI V0201701N00511220001CN0099001N1+01801+01401999999ADDMA1101191999999MW1001REMMET045SPHI 260200Z 17010KT CAVOK 18/14 Q1012 PP000;EQDQ01+000000PRSWM2
0272844520999992000092918004-06770-079820SY-MT+0034SPHI V0202001N005112200019N0100001N1+02441+01681101541ADDAA199000091AY101061AY241061GF100991001001999999001001MA1101291101241MD1999999+0041MW1011REMSYN070AAXX  29184 84452 31960 02010 10244 20168 30124 40154 70104 333 58004;MET045SPHI 291800Z 20010KT CAVOK 24/17 Q1013 PP000;EQDQ01+000000PRSWM2Q02  00002PRCP99Q03    003PRSWM1
0328844520999992000093021004-06770-079820SY-MT+0034SPHI V0201901N007210600019N0100001N1+02271+01541101191ADDAA199000091AY101031AY221031GA1021+030009079GA2031+060009089GF105991021001999999031081MA1101081100881MD1999999-0101MW1031REMSYN094AAXX  30214 84452 31960 51914 10227 20154 30088 40119 70302 82038 333 56000 59010 82360 83270;MET045SPHI 302100Z 19014KT CAVOK 23/15 Q1011 PP000;EQDQ01+000000PRSWM2Q02  00002PRCP99Q03    003PRSWM1
0097844520999992000100319004-06770-079820FM-15+0034SPHI V0201801N01031220001CN0099001N1+02301+01401999999ADDMA1101191999999MW1001REMMET045SPHI 031900Z 18020KT CAVOK 23/14 Q1012 PP000;EQDQ01+000000PRSWM2
0145844520999992000100409004-06770-079820FM-15+0034SPHI V0201701N003612200019N0112651N1+01701+01401999999ADDGA1021+006009999GF102991999999999999999999MA1101191999999MW1001REMMET051SPHI 040900Z 17007KT 9999 FEW020 17/14 Q1012 PP000;EQDQ01+000000PRSWM2
0097844520999992000101005004-06770-079820FM-15+0034SPHI V0201701N00571220001CN0099001N1+01701+01401999999ADDMA1101021999999MW1001REMMET045SPHI 100500Z 17011KT CAVOK 17/14 Q1010 PP000;EQDQ01+000000PRSWM2
0272844520999992000101015004-06770-079820SY-MT+0034SPHI V0201801N00361220001CN0100001N1+02301+01601101371ADDAA199000091AY141031AY221031GF100991001001999999001001MA1101191101071MD1999999+0121MW1021REMSYN070AAXX  10154 84452 31960 01807 10230 20160 30107 40137 70242 333 58012;MET045SPHI 101500Z 18007KT CAVOK 23/16 Q1012 PP000;EQDQ01+000000PRSWM2Q02  00002PRCP99Q03    003PRSWM1
0145844520999992000101114004-06770-079820FM-15+0034SPHI V0201801N002112200019N0112651N1+02001+01501999999ADDGA1021+006009999GF104991999999999999999999MA1101291999999MW1001REMMET051SPHI 111400Z 18004KT 9999 SCT020 20/15 Q1013 PP000;EQDQ01+000000PRSWM2
0097844520999992000101517004-06770-079820FM-15+0034SPHI V0202001N00621220001CN0099001N1+02401+01501999999ADDMA1101291999999MW1001REMMET045SPHI 151700Z 20012KT CAVOK 24/15 Q1013 PP000;EQDQ01+000000PRSWM2
0097844520999992000102717004-06770-079820FM-15+0034SPHI V0202101N00511220001CN0099001N1+02501+01701999999ADDMA1101291999999MW1001REMMET045SPHI 271700Z 21010KT CAVOK 25/17 Q1013 PP000;EQDQ01+000000PRSWM2
0104844520999992000103004004-06770-079820FM-15+0034SPHI V0201701N00571220001CN0099001N1+01801+01401999999ADDMA1101391999999MW1001REMMET052SPHI 300400Z 17011KT CAVOK 18/14 Q1014 PP000 TRZ/FS;EQDQ01+000000PRSWM2
0145844520999992000110611004-06770-079820FM-15+0034SPHI V0201701N002112200019N0060001N1+01501+01401999999ADDGA1021+003309999GF104991999999999999999999MA1101191999999MW1001REMMET051SPHI 061100Z 17004KT 6000 SCT011 15/14 Q1012 PP000;EQDQ01+000000PRSWM2
0097844520999992000111216004-06770-079820FM-15+0034SPHI V0201901N00721220001CN0099001N1+02301+01501999999ADDMA1101291999999MW1001REMMET045SPHI 121600Z 19014KT CAVOK 23/15 Q1013 PP000;EQDQ01+000000PRSWM2
0242844520999992000112012004-06770-079820FM-12+0034SPHI V0201701N003612200019N0060001N1+01601+01431101321ADDAA199000091AY101061AY221061GA1041+003009069GF104991041071002501999999KA1240N+01601MA1999999101111MD1999999+0061MW1101REMSYN094AAXX  20124 84452 31356 41707 10160 20143 30111 40132 71002 847// 333 20160 564// 58006 84710;EQDQ01  00002PRCP99
0261844550999992000011318004-06450-076380FM-12+0282SPST V0200201N99999045001CN0160001N1+03141+02481101071ADDAA106000091AY121061AY201061GA1031+009009089GF106991031011008001031999MA1999999097671MD1999999+0051MW1021REMSYN094AAXX  13184 84455 31566 60279 10314 20248 39767 40107 70220 8313/ 333 5600/ 58005 83830 83363;EQDQ01+004063WOSPD Q02  00002PRCP06Q030004063WOSPD 
0242844550999992000021400004-06450-076380FM-12+0282SPST V0209999C000012200019N0180001N1+03001+02321100901ADDAA199000091AY101061AY201061GA1041+039009079GF104991041001999999031001KA1240M+03831MA1999999097401MD1999999+0001MW1021REMSYN094AAXX  14004 84455 31968 40000 10300 20232 39740 40090 70200 84030 333 10383 56000 58000 84363;EQDQ01  00002PRCP99
0223844550999992000070821004-06440-076380FM-12+0282SPST V0209999C000012200019N0160001N1+03021+02471101321ADDAA199000091AY121031AY221031GA1031+009009029GF103991031011008001999999MA1999999097801MD1999999+0101MW1011REMSYN088AAXX  08214 84455 31566 30000 10302 20247 39780 40132 70122 831// 333 560// 58010 83830;EQDQ01  00002PRCP99
0223844550999992000071915004-06440-076380FM-12+0282SPST V0209999C000010090019N0150001N1+02571+02191101941ADDAA199000091AY101031AY201031GA1051+009009029GF105991051021008001999999MA1999999098401MD1999999+0101MW1031REMSYN088AAXX  19154 84455 31565 50000 10257 20219 39840 40194 70300 852// 333 5600/ 58010 85830;EQDQ01  00002PRCP99
0162844550999992000072021304-06440-076380FM-15+0282SPST V0209999C000010300019N0080001N1+02301+02201999999ADDGA1021+005109999GA2071+030009999GF107991999999999999999999MA1101391999999MW1001REMMET052SPST 202130Z 00000KT 8000 SCT017 BKN100 23/22 Q1014;EQDQ01+000000PRSWM2
0204844550999992000080415004-06440-076380FM-12+0282SPST V0209999C000010045019N0060001N1+02301+02161102061ADDAA199000021AY161031AY261031GA1081+004509059GF108991081051004501999999MA1999999098521MD1999999+0311MW1021REMSYN088AAXX  04154 84455 31456 80000 10230 20216 39852 40206 70266 885// 333 5600/ 58031 88615;
0224844550999992000091000004-06440-076380FM-12+0282SPST V0209999C000012200019N0120001N1+02601+02321101021ADDAA199000091AY101061AY211061GA1001+999999999GF100991001001999999001001KA1240M+03561MA1999999097521MD1999999+0021MW1011REMSYN076AAXX  10004 84455 31962 00000 10260 20232 39752 40102 70101 333 10356 58002;EQDQ01  00002PRCP99
0223844550999992000102415004-06440-076380FM-12+0282SPST V0209999C000012200019N0160001N1+03181+02441101221ADDAA199000091AY101031AY211031GA1031+009009029GF103991031011008001999999MA1999999097801MD1999999-0221MW1011REMSYN088AAXX  24154 84455 31566 30000 10318 20244 39780 40122 70101 831// 333 560// 59022 83830;EQDQ01  00002PRCP99
0248844550999992000110400004-06440-076380FM-12+0282SPST V0201601N00211045001CN0150001N1+02801+02241100701ADDAA199000091AY121061AY221061GA1031+009009069GF108991031051008001031999KA1240M+03601MA1999999097201MD1999999-0151MW1031REMSYN100AAXX  04004 84455 31565 81604 10280 20224 39720 40070 70322 8353/ 333 10360 5600/ 59015 83630 85360;EQDQ01  00002PRCP99
0245844550999992000112721004-06440-076380FM-12+0282SPST V0209999C00001045001CN0180001N1+03021+02381999999ADDAA199000091AY111031AY221031GA1031+009009089GF106991031011008001031999MA1999999097501MD1999999+0101MW1021REMSYN094AAXX  27214 84455 31568 60000 10302 20238 39750 40010 70212 8313/ 333 5600/ 58010 83830 83363;EQDQ01+100103APOSLPQ02  00002PRCP99
0216844550999992000120818004-06440-076380FM-12+0282SPST V0209999C00001045001CN0070001N1+02431+02221101721ADDAA106008091AY161061AY261061GA1041+004809069GF108991041051002501021999MA1999999098201MD1999999-0011MW1021REMSYN100AAXX  08184 84455 21357 80000 10243 20222 39820 40172 70266 8452/ 333 5600/ 59001 60081 84616 85460;
0215844720999992000021012004-07130-078470FM-12+2622SPJR V0209999C000010129019N0140001N1+00981+00951999999ADDAA124066091AY121061GA1081+012909069GF108991081071012501999999KA1240N+00901MA1999999074231MD1999999+0091MW1021REMSYN094AAXX  10124 84472 21664 80000 10098 20095 37423 7022/ 887// 333 20090 560// 58009 60664 88743;
0228844720999992000041312004-07130-078470FM-12+2622SPJR V0209999C000010129019N0150001N1+01081+00951999999ADDAA199000091AY121061GA1051+012909059GF105991051051012501999999KA1240N+00801MA1999999074161MD1999999+0051MW1021REMSYN088AAXX  13124 84472 31665 50000 10108 20095 37416 7022/ 855// 333 20080 560// 58005 85643;EQDQ01  00002PRCP99
0204844720999992000042015004-07130-078470FM-12+2622SPJR V0201501N00311007501CN0120001N1+01361+01101999999ADDAA199000021AY151031AY221031GA1031+009009079GF108991081071008001999999MA1999999074351MD1999999+0071MW1011REMSYN088AAXX  20154 84472 31562 81506 10136 20110 37435 70152 887// 333 560// 58007 83730 85750;
0217844720999992000052318004-07130-078470FM-12+2622SPJR V0200201N002112200019N0150001N1+02131+00521999999ADDAA199000091AY101061AY201061GA1031+012009029GF103991031081012501001001MA1999999074161MD1999999+0011MW1021REMSYN082AAXX  23184 84472 31665 30204 10213 20052 37416 70200 83800 333 56000 58001 83840;EQDQ01  00002PRCP99
0199844720999992000071515004-07120-078470FM-12+2622SPJR V0209999C000012200019N0150001N1+01621+00141999999ADDAA199000091AY101031AY201031GA1001+999999999GF100991001001999999001001MA1999999074311MD1999999+0061MW1021REMSYN064AAXX  15154 84472 31965 00000 10162 20014 37431 70200 333 58006;EQDQ01  00002PRCP99
0199844720999992000082918004-07120-078470FM-12+2622SPJR V0201201N002612200019N0150001N1+02131+00761999999ADDAA199000091AY101061AY201061GA1001+999999999GF100991001001999999001001MA1999999073921MD1999999-0111MW1021REMSYN064AAXX  29184 84472 31965 01205 10213 20076 37392 70200 333 59011;EQDQ01  00002PRCP99
0199844720999992000101315004-07120-078470FM-12+2622SPJR V0201801N002612200019N0150001N1+01801+00831999999ADDAA199000091AY101031AY201031GA1001+999999999GF100991001001999999001001MA1999999074221MD1999999+0061MW1021REMSYN064AAXX  13154 84472 31965 01805 10180 20083 37422 70200 333 58006;EQDQ01  00002PRCP99
0199844720999992000102518004-07120-078470FM-12+2622SPJR V0202101N005112200019N0150001N1+02181+00961999999ADDAA199000091AY101061AY201061GA1001+999999999GF100991001001999999001001MA1999999073701MD1999999-0131MW1021REMSYN064AAXX  25184 84472 31965 02110 10218 20096 37370 70200 333 59013;EQDQ01  00002PRCP99
0217844740999992000042715004-07220-076720FM-12+0363SPJI V0209999C000010060019N0120001N1+02651+02301999999ADDAA199000091AY121031AY241031GA1071+006009029GF107991071021004501001001MA1999999098111MD1999999+0091MW1011REMSYN082AAXX  27154 84474 31462 70000 10265 20230 39811 70124 87200 333 56000 58009 87820;EQDQ01  00002PRCP99
0217844740999992000042815004-07220-076720FM-12+0363SPJI V0209999C000010060019N0100001N1+02601+02321999999ADDAA199000091AY121031AY221031GA1061+006009029GF108991061021004501031999MA1999999098211MD1999999+0101MW1021REMSYN082AAXX  28154 84474 31460 80000 10260 20232 39821 70222 8623/ 333 5600/ 58010 86820;EQDQ01  00002PRCP99
0217844740999992000050118004-07220-076720FM-12+0363SPJI V0209999C000010060019N0100001N1+03001+02311999999ADDAA199000091AY121061AY221061GA1061+006009029GF106991061071004501001001MA1999999097821MD1999999-0051MW1021REMSYN082AAXX  01184 84474 31460 60000 10300 20231 39782 70222 86700 333 56000 59005 86820;EQDQ01  00002PRCP99
0217844740999992000051315004-07220-076720FM-12+0363SPJI V0209999C000010060019N0100001N1+02651+02301999999ADDAA199000091AY121031AY241031GA1061+006009029GF106991061011004501001001MA1999999098111MD1999999+0001MW1011REMSYN082AAXX  13154 84474 31460 60000 10265 20230 39811 70124 86100 333 56000 58000 86820;EQDQ01  00002PRCP99
0217844740999992000060715004-07220-076720FM-12+0363SPJI V0209999C000010060019N0100001N1+02601+02321999999ADDAA199000091AY121031AY241031GA1061+006009029GF106991061021004501001001MA1999999098311MD1999999+0101MW1011REMSYN082AAXX  07154 84474 31460 60000 10260 20232 39831 70124 86200 333 56000 58010 86820;EQDQ01  00002PRCP99
0204844740999992000073000004-07220-076720FM-12+0363SPJI V0209999C000012200019N0150001N1+02801+02321999999ADDAA199000091AY101061AY201061GA1001+999999999GF100991001001999999001001KA1240M+03181MA1999999097631MW1021REMSYN070AAXX  30004 84474 31965 00000 10280 20232 39763 70200 333 10318 56021;EQDQ01  00002PRCP99
0217844740999992000073118004-07220-076720FM-12+0363SPJI V0209999C000012200019N0120001N1+03001+02311999999ADDAA199000091AY101061AY201061GA1011+009009029GF101991011011008001001001MA1999999098021MD1999999+0001MW1011REMSYN082AAXX  31184 84474 31562 10000 10300 20231 39802 70100 81100 333 56000 58000 81830;EQDQ01  00002PRCP99
0220844740999992000092212004-07220-076720FM-12+0363SPJI V0200201N012912200019N0005001N1+99999+99999999999ADDAA124002091GA1081+002109069GF199999081071001501999999KA1240N+01851MA1999999098051MD1999999+0031MW1111REMSYN088AAXX  22124 84474 21205 10225 20218 39805 711// 887// 333 20185 560// 58003 60024 88707;EQDQ01+000012SCOTCV
0223844740999992000101915004-07220-076720FM-12+0363SPJI V0209999C00001045001CN0100001N1+02561+02371999999ADDAA199000091AY141031AY241031GA1031+005109089GF108991031011004501031999MA1999999098341MD1999999+0001MW1021REMSYN088AAXX  19154 84474 31460 80000 10256 20237 39834 70244 8313/ 333 56000 58000 83817 88359;EQDQ01  00002PRCP99
0223844740999992000122621004-07220-076720FM-12+0363SPJI V0209999C00001105001CN0120001N1+03251+02441999999ADDAA199000091AY121031AY201031GA1011+009009089GF108991011011008001001071MA1999999097341MD1999999+0051MW1031REMSYN088AAXX  26214 84474 31562 80000 10325 20244 39734 70320 81107 333 56000 58005 81830 88270;EQDQ01  00002PRCP99
0239845010999992000011018004-08100-079030FM-12+0030SPRU V0201601N005112200019N0120001N1+02351+01661101341ADDAA106000091AY121061AY221061GA1031+030009079GF103991999001999999031001MA1999999100921MD1999999-0051MW1011REMSYN088AAXX  10184 84501 31962 31610 10235 20166 30092 40134 70122 80030 333 56000 59005 83360;EQDQ01+000002SCOTLCQ02  00002PRCP06
0243845010999992000011406004-08100-079030FM-12+003099999V0201501N00211030001RN0120001N1+01901+01411101351ADDAA199000091AY121061AY221061GA1081+030009079GF108991999001999999031999MA1999999100931MD1999999+0101MW1021REMSYN092    AAXX  14064 84501 31962 81504 10190 20141 30093 40135 70222 8003/ 333 5600/ 58010 88360;EQDQ01+000002SCOTLCQ02  00002PRCP99
0223845010999992000021006004-08100-079030FM-12+0030SPRU V0201101N001010300019N0120001N1+01981+01671101421ADDAA199000091AY121061AY211061GA1051+030009079GF105991051001999999031999MA1999999101021MD1999999+0031MW1011REMSYN088AAXX  10064 84501 31962 51102 10198 20167 30102 40142 70121 8503/ 333 5600/ 58003 85360;EQDQ01  00002PRCP99
0245845010999992000030206004-08100-079030FM-12+0030SPRU V0201501N002610030019N0100001N1+01901+01671101361ADDAA199000091AY121061AY221061GA1051+003009039GF108991999061002501031999MA1999999100951MD1999999-0051MW1031REMSYN094AAXX  02064 84501 31360 81505 10190 20167 30095 40136 70322 8863/ 333 5600/ 59005 85310 84360;EQDQ01+000082SCOTLCQ02  00002PRCP99
0242845010999992000032800004-08100-079030FM-12+0030SPRU V0201401N002610300019N0120001N1+02121+01701101061ADDAA199000091AY141061AY241061GA1061+030009079GF106991061001999999031999KA1240M+02441MA1999999100661MD1999999-0201MW1011REMSYN094AAXX  28004 84501 31962 61405 10212 20170 30066 40106 70144 8603/ 333 10244 5600/ 59020 86360;EQDQ01  00002PRCP99
0223845010999992000041006004-08100-079030FM-12+0030SPRU V0201401N001510300019N0120001N1+02081+01721101191ADDAA199000091AY111061AY211061GA1081+030009079GF108991081001022501031999MA1999999100791MD1999999-0161MW1031REMSYN088AAXX  10064 84501 31862 81403 10208 20172 30079 40119 70311 8803/ 333 5600/ 59016 88360;EQDQ01  00002PRCP99
0248845010999992000041700004-08100-079030FM-12+0030SPRU V0201301N004110009019N0030001N1+01971+01861101411ADDAA199000091AY141061AY221061GA1051+000909079GF108991081061000751999999KA1240M+02301MA1999999101011MD1999999-0051MW1101REMSYN100AAXX  17004 84501 31130 81308 10197 20186 30101 40141 71042 886// 333 10230 569// 59005 85703 84704;EQDQ01  00002PRCP99
0229845010999992000041721004-08100-079030FM-12+0030SPRU V0201601N005712200019N0100001N1+02131+01781101241ADDAA199000091AY101031AY201031GA1011+003009079GF104991041061002501031001MA1999999100841MD1999999+0071MW1021REMSYN094AAXX  17214 84501 31360 41611 10213 20178 30084 40124 70200 84630 333 56000 58007 81710 83360;EQDQ01  00002PRCP99
0229845010999992000042609004-08100-079030FM-12+0030SPRU V0209999C000010018019N0060001N1+01831+01631101241ADDAA199000091AY111031AY211031GA1051+001809079GF108991051061001501031999MA1999999100841MD1999999-0121MW1101REMSYN094AAXX  26094 84501 31256 80000 10183 20163 30084 40124 71011 8563/ 333 5600/ 59012 85706 83358;EQDQ01  00002PRCP99
0165845010999992000050614104-08100-079030FM-16+0030SPRU V0201601N002610012019N0020001N1+01801+01601999999ADDGA1071+001209999GF107991999999999999999999MA1101491999999MW1101REMMET055SPRU 061410Z 16005KT 2000S 8000N BR BKN004 18/16 Q1015;EQDQ01+000003PRSWM1Q02    003PRSWM1
0229845010999992000061606004-08100-079300FM-12+0030SPRU V0201301N00211045001CN0120001N1+01801+01641101611ADDAA199000091AY121061AY221061GA1031+006009069GF108991031051004501031999MA1999999101201MD1999999+0051MW1021REMSYN094AAXX  16064 84501 31462 81304 10180 20164 30120 40161 70222 8353/ 333 5600/ 58005 83620 86358;EQDQ01  00002PRCP99
0229845010999992000062603004-08100-079300FM-12+0030SPRU V0201501N00311004201CN0120001N1+01801+01641101471ADDAA199000091AY121031AY221031GA1031+006009079GF108991081061004501999999MA1999999101061MD1999999-0221MW1021REMSYN094AAXX  26034 84501 31462 81506 10180 20164 30106 40147 70222 886// 333 560// 59022 83720 86630;EQDQ01  00002PRCP99
0229845010999992000070818004-08100-079300FM-12+0030SPRU V0201801N00411004201CN0120001N1+01921+01661101531ADDAA199000091AY141061AY221061GA1031+003609079GF108991081051004501999999MA1999999101131MD1999999+0121MW1021REMSYN094AAXX  08184 84501 31462 81808 10192 20166 30113 40153 70242 885// 333 560// 58012 83712 87623;EQDQ01  00002PRCP99
0221845010999992000081709004-08100-079020FM-12+0030SPRU V0209999C00001004201CN0100001N1+01701+01621101501ADDAA199000091AY121031GA1041+003909079GF108991081061004501999999MA1999999101081MD1999999-0031MW1021REMSYN094AAXX  17094 84501 31460 80000 10170 20162 30108 40150 7022/ 886// 333 560// 59003 84713 86620;EQDQ01  00002PRCP99
0242845010999992000090200004-08100-079020FM-12+0030SPRU V0201501N003112200019N0120001N1+01751+01511101491ADDAA199000091AY101061AY221061GA1031+006009069GF103991031061004501001001KA1240M+02181MA1999999101071MD1999999-0101MW1021REMSYN094AAXX  02004 84501 31462 31506 10175 20151 30107 40149 70202 83600 333 10218 56000 59010 83720;EQDQ01  00002PRCP99
0205845010999992000091415004-08100-079020FM-12+0030SPRU V0201701N004112200019N0120001N1+01901+01501101911ADDAA199000091AY101031AY221031GA1001+999999999GF100991001001999999001001MA1999999101491MD1999999+0001MW1011REMSYN070AAXX  14154 84501 31962 01708 10190 20150 30149 40191 70102 333 58000;EQDQ01  00002PRCP99
0205845010999992000092409004-08100-079020FM-12+0030SPRU V0201401N002112200019N0120001N1+01551+01471101671ADDAA199000091AY101031AY201031GA1001+999999999GF100991001001999999001001MA1999999101251MD1999999-0011MW1021REMSYN070AAXX  24094 84501 31962 01404 10155 20147 30125 40167 70200 333 59001;EQDQ01  00002PRCP99
0229845010999992000103015004-08100-079020FM-12+0030SPRU V0201901N00211004201CN0120001N1+01901+01531101761ADDAA199000091AY121031AY221031GA1031+004209079GF108991081051004501999999MA1999999101351MD1999999-0051MW1021REMSYN094AAXX  30154 84501 31462 81904 10190 20153 30135 40176 70222 885// 333 560// 59005 83714 86630;EQDQ01  00002PRCP99
0224845010999992000111500004-08100-079020FM-12+0030SPRU V0201401N003112200019N0120001N1+01701+01481101441ADDAA199000091AY101061AY201061GA1001+999999999GF100991001001999999001001KA1240M+02151MA1999999101031MD1999999-0201MW1021REMSYN076AAXX  15004 84501 31962 01406 10170 20148 30103 40144 70200 333 10215 59020;EQDQ01  00002PRCP99
0158845010999992000112212404-08100-079020FM-16+0030SPRU V0201401N003610009019N0005001N1+01501+01401999999ADDGA1081+000909999GF108991999999999999999999MA1101491999999MW1441REMMET048SPRU 221240Z 14007KT 0500 FG OVC003 15/14 Q1015;EQDQ01+000003PRSWM1Q02    003PRSWM1
0223845010999992000121015004-08100-079020FM-12+0030SPRU V0202101N002110009019N0009001N1+01801+01711101751ADDAA199000091AY141031AY241031GA1081+000909069GF108991081061000751999999MA1999999101341MD1999999+0091MW1461REMSYN088AAXX  10154 84501 31109 82104 10180 20171 30134 40175 74644 886// 333 560// 58009 88703;EQDQ01  00002PRCP99
0205845010999992000121418004-08100-079020FM-12+0030SPRU V0201701N004612200019N0130001N1+02321+01681101531ADDAA199000091AY101061AY201061GA1001+999999999GF100991001001999999001001MA1999999101121MD1999999-0061MW1021REMSYN070AAXX  14184 84501 31963 01709 10232 20168 30112 40153 70200 333 59006;EQDQ01  00002PRCP99
0229845010999992000121815004-08100-079020FM-12+0030SPRU V0201501N00361004201CN0110001N1+02041+01711101471ADDAA199000091AY141031AY241031GA1021+003609079GF108991081051004501999999MA1999999101061MD1999999-0101MW1021REMSYN094AAXX  18154 84501 31461 81507 10204 20171 30106 40147 70244 885// 333 560// 59010 82712 87625;EQDQ01  00002PRCP99
0229845010999992000121821004-08100-079020FM-12+0030SPRU V0201601N002610042019N0100001N1+01951+01551101401ADDAA199000091AY121031AY221031GA1051+004209079GF108991081061004501999999MA1999999100981MD1999999-0111MW1021REMSYN094AAXX  18214 84501 31460 81605 10195 20155 30098 40140 70222 886// 333 560// 59011 85714 84628;EQDQ01  00002PRCP99
0239845150999992000012406004-08420-074600FM-12+0149SPCL V0209999C000012200019N0100001N1+02501+02291100981ADDAA199000091AY121061AY201061GA1041+030009019GF104991999001999999031999MA1999999099211MD1999999-0021MW1031REMSYN088AAXX  24064 84515 31960 40000 10250 20229 39921 40098 70320 8503/ 333 5690/ 59002 84460;EQDQ01+000052SCOTLCQ02  00002PRCP99
0159845150999992000021413404-08420-074600FM-16+0149SPCL V0200601N005010018019N0001001N1+02201+02201999999ADDGA1081+001809999GF108991999999999999999999MA1101591999999MW1651REMMET049SPCL 141340 06018KMH 0100 +RA OVC006 22/22 Q1016;EQDQ01+000003PRSWM1Q02    003PRSWM1
0205845150999992000022406004-08420-074600FM-12+0149SPCL V0209999C000012200019N0100001N1+02381+02261101061ADDAA199000091AY101061AY201061GA1001+999999999GF100991001001999999001001MA1999999099291MD1999999-0011MW1021REMSYN070AAXX  24064 84515 31960 00000 10238 20226 39929 40106 70200 333 59001;EQDQ01  00002PRCP99
0229845150999992000030518004-08420-074600FM-12+0149SPCL V0200101N00311045001CN0100001N1+02701+02281101301ADDAA199000091AY121061AY221061GA1041+007509069GF108991041051008001021999MA1999999099551MD1999999+0151MW1021REMSYN094AAXX  05184 84515 31560 80106 10270 20228 39955 40130 70222 8452/ 333 5600/ 58015 84625 88459;EQDQ01  00002PRCP99
0239845150999992000041403004-08420-074600FM-12+0149SPCL V02099999999992200019N0100001N1+02601+02401101001ADDAA199000091AY121031AY211031GA1041+039009019GF104991041001999999011999MA1999999099241MD1999999-0141MW1021REMSYN088AAXX  14034 84515 31960 4//// 10260 20240 39924 40100 70221 84010 333 56090 59014 84463;EQDQ01+000002SCOHCGQ02  00002PRCP99
0242845150999992000042300004-08420-074600FM-12+0149SPCL V0209999C000012200019N0100001N1+02701+02401100851ADDAA199000091AY121061AY221061GA1021+036009079GF102991021001999999031001KA1240M+03031MA1999999099101MD1999999-0081MW1011REMSYN094AAXX  23004 84515 31960 20000 10270 20240 39910 40085 70122 82030 333 10303 56090 59008 82362;EQDQ01  00002PRCP99
0235845150999992000051512004-08420-074600FM-12+0149SPCL V0209999C000010045019N0100001N1+02391+02261101391ADDAA124007091AY161061AY221061GA1051+004509089GF108991051011004501021999KA1240N+02001MA1999999099601MD1999999+0001MW1021REMSYN106AAXX  15124 84515 21460 80000 10239 20226 39960 40139 70262 8512/ 333 20200 5699/ 58000 60074 85815 88458;
0223845150999992000051806004-08420-074600FM-12+0149SPCL V0209999C000010390019N0100001N1+02441+02341101391ADDAA199000091AY121061AY221061GA1051+039009079GF105991051001999999031999MA1999999099601MD1999999+0221MW1021REMSYN088AAXX  18064 84515 31960 50000 10244 20234 39960 40139 70222 8503/ 333 5609/ 58022 85363;EQDQ01  00002PRCP99
0223845150999992000051809004-08420-074600FM-12+0149SPCL V0209999C000010390019N0100001N1+02341+02241101361ADDAA199000091AY121031AY221031GA1051+039009079GF105991051001999999031999MA1999999099571MD1999999+0241MW1021REMSYN088AAXX  18094 84515 31960 50000 10234 20224 39957 40136 70222 8503/ 333 5609/ 58024 85363;EQDQ01  00002PRCP99
0223845150999992000052121004-08420-074600FM-12+0149SPCL V0201201N003112200019N0100001N1+02911+02181101461ADDAA199000091AY121031AY221031GA1041+006009029GF104991041011004501001001MA1999999099711MD1999999+0111MW1011REMSYN088AAXX  21214 84515 31460 41206 10291 20218 39971 40146 70122 84100 333 56900 58011 84820;EQDQ01  00002PRCP99
0224845150999992000052412004-08420-074600FM-12+0149SPCL V0209999C000012200019N0100001N1+02321+02231101701ADDAA199000091AY101061AY201061GA1001+999999999GF100991001001999999001001KA1240N+02151MA1999999099901MD1999999-0091MW1021REMSYN076AAXX  24124 84515 31960 00000 10232 20223 39990 40170 70200 333 20215 59009;EQDQ01  00002PRCP99
0224845150999992000052600004-08420-074600FM-12+0149SPCL V0209999C000012200019N0100001N1+02881+02201101081ADDAA199000091AY101061AY221061GA1001+999999999GF100991001001999999001001KA1240M+03501MA1999999099331MD1999999-0131MW1021REMSYN076AAXX  26004 84515 31960 00000 10288 20220 39933 40108 70202 333 10350 59013;EQDQ01  00002PRCP99
0223845150999992000060403004-08420-074600FM-12+0149SPCL V0209999C000010300019N0100001N1+02551+02271101431ADDAA199000091AY101031AY201031GA1051+030009019GF105991051001022501021999MA1999999099661MD1999999+0101MW1031REMSYN088AAXX  04034 84515 31860 50000 10255 20227 39966 40143 70300 8502/ 333 5609/ 58010 85460;EQDQ01  00002PRCP99
0229845150999992000061715004-08410-074600FM-12+0149SPCL V0209999C000010039019N0100001N1+02601+02371101701ADDAA199000091AY141031AY221031GA1051+003909069GF108991051051004501021999MA1999999099821MD1999999+0161MW1021REMSYN094AAXX  17154 84515 31460 80000 10260 20237 39982 40170 70242 8552/ 333 569// 58016 85613 84457;EQDQ01  00002PRCP99
0229845150999992000061815004-08410-074600FM-12+0149SPCL V0209999C000012200019N0100001N1+02741+02321101711ADDAA199000091AY121031AY241031GA1031+005109089GF104991031011004501031001MA1999999100001MD1999999+0181MW1011REMSYN094AAXX  18154 84515 31460 40000 10274 20232 30000 40171 70124 83130 333 56990 58018 83817 81365;EQDQ01  00002PRCP99
0224845150999992000082412004-08410-074600FM-12+0149SPCL V0209999C000010024019N0030001N1+02341+02261101301ADDAA199000091AY121061AY201061GA1091+999999999GF109991091999999999999999KA1240N+02201MA1999999099531MD1999999-0031MW1101REMSYN076AAXX  24124 84515 31930 90000 10234 20226 39953 40130 71020 333 20220 59003;EQDQ01  00002PRCP99
0205845150999992000090115004-08410-074600FM-12+0149SPCL V0209999C000012200019N0100001N1+03101+02271101381ADDAA199000091AY101031AY201031GA1001+999999999GF100991001001999999001001MA1999999099631MD1999999+0091MW1021REMSYN070AAXX  01154 84515 31960 00000 10310 20227 39963 40138 70200 333 58009;EQDQ01  00002PRCP99
0224845150999992000090300004-08410-074600FM-12+0149SPCL V0209999C000012200019N0100001N1+03001+02381100831ADDAA199000091AY101061AY201061GA1001+999999999GF100991001001999999001001KA1240M+03601MA1999999098961MD1999999-0121MW1021REMSYN076AAXX  03004 84515 31960 00000 10300 20238 39896 40083 70200 333 10360 59012;EQDQ01  00002PRCP99
0229845150999992000091015004-08410-074600FM-12+0149SPCL V0209999C00001045001CN0100001N1+03101+02321101341ADDAA199000091AY121031AY241031GA1021+005109089GF105991021011004501031999MA1999999099601MD1999999+0231MW1021REMSYN094AAXX  10154 84515 31460 50000 10310 20232 39960 40134 70224 8213/ 333 5699/ 58023 82817 83363;EQDQ01  00002PRCP99
0224845150999992000092000004-08410-074600FM-12+0149SPCL V0209999C000012200019N0100001N1+03001+02311101061ADDAA199000091AY101061AY221061GA1001+999999999GF100991001001999999001001KA1240M+03501MA1999999099201MD1999999-0221MW1011REMSYN076AAXX  20004 84515 31960 00000 10300 20231 39920 40106 70102 333 10350 59022;EQDQ01  00002PRCP99
0205845150999992000093003004-08410-074600FM-12+0149SPCL V0209999C000012200019N0100001N1+02551+02271101191ADDAA199000091AY101031AY201031GA1001+999999999GF100991001001999999001001MA1999999099421MD1999999-0041MW1021REMSYN070AAXX  30034 84515 31960 00000 10255 20227 39942 40119 70200 333 59004;EQDQ01  00002PRCP99
0224845150999992000101212004-08410-074600FM-12+0149SPCL V0209999C000012200019N0100001N1+02441+02281101351ADDAA199000091AY101061AY221061GA1001+999999999GF100991001001999999001001KA1240N+02241MA1999999099581MD1999999-0051MW1021REMSYN076AAXX  12124 84515 31960 00000 10244 20228 39958 40135 70202 333 20224 59005;EQDQ01  00002PRCP99
0232845150999992000110212004-08410-074600FM-12+0149SPCL V0209999C00001045001CN0100001N1+02441+02341101041ADDAA199000091GA1021+004509079GF108991021061004501021999KA1240N+02401MA1999999099261MD1999999-0021MW1021REMSYN100AAXX  02124 84515 31460 80000 10244 20234 39926 40104 702// 8262/ 333 20240 5699/ 59002 82715 88460;EQDQ01  00002PRCP99
0204845150999992000110718004-08410-074600FM-12+0149SPCL V0209999C000010051019N0100001N1+03101+02421100631ADDAA199000021AY121061AY221061GA1071+005109029GF107991071021004501999999MA1999999098911MD1999999+0041MW1011REMSYN088AAXX  07184 84515 31460 70000 10310 20242 39891 40063 70122 872// 333 569// 58004 87817;
0205845150999992000121903004-08410-074600FM-12+0149SPCL V0209999C000012200019N0100001N1+02541+02441101151ADDAA199000091AY101031AY201031GA1001+999999999GF100991001001999999001001MA1999999099371MD1999999-0161MW1021REMSYN070AAXX  19034 84515 31960 00000 10254 20244 39937 40115 70200 333 59016;EQDQ01  00002PRCP99
0208845150999992000122112004-08410-074600FM-12+0149SPCL V0209999C000012200019N0100001N1+02401+02251101341ADDAA199000091GA1001+999999999GF100991001001999999001001KA1240N+02351MA1999999099561MD1999999+0061MW1021REMSYN076AAXX  21124 84515 31960 00000 10240 20225 39956 40134 702// 333 20235 58006;EQDQ01  00002PRCP99
0223845310999992000020118004-09170-078520FM-12+0011SPEO V0201901N008712200019N0140001N1+02581+01841101201ADDAA199000091AY121061AY201061GA1041+072009019GF104991001001999999001011MA1999999101081MD1999999-0111MW1011REMSYN088AAXX  01184 84531 31964 41917 10258 20184 30108 40120 70120 80001 333 56009 59011 84074;EQDQ01  00002PRCP99
0234845310999992000030812004-09170-078520FM-12+0011SPEO V0202601N001010300019N0130001N1+02011+01721101171ADDAA199000091AY121061GA1081+030009019GF108991081001999999021999KA1240N+01891MA1999999101051MD1999999-0071MW1021REMSYN094AAXX  08124 84531 31963 82602 10201 20172 30105 40117 7022/ 8802/ 333 20189 5609/ 59007 88460;EQDQ01  00002PRCP99
0223845310999992000031818004-09170-078520FM-12+0011SPEO V02099999999992200019N0140001N1+02511+01841101071ADDAA199000091AY121061AY221061GA1041+039009079GF104991041001999999031999MA1999999100951MD1999999-0031MW1011REMSYN088AAXX  18184 84531 31964 4///1 10251 20184 30095 40107 70122 8403/ 333 5609/ 59003 84363;EQDQ01  00002PRCP99
0205845310999992000042918004-09170-078520FM-12+0011SPEO V0202701N003612200019N0110001N1+02331+01691101141ADDAA199000091AY141061AY241061GA1001+999999999GF100991001001999999001001MA1999999101021MD1999999+0041MW1011REMSYN070AAXX  29184 84531 31961 02707 10233 20169 30102 40114 70144 333 58004;EQDQ01  00002PRCP99
0229845310999992000051315004-09170-078520FM-12+0011SPEO V0201801N00571002101CN0100001N1+01991+01631101381ADDAA199000091AY141031AY241031GA1031+002109079GF108991081061002501999999MA1999999101261MD1999999-0031MW1021REMSYN094AAXX  13154 84531 31360 81811 10199 20163 30126 40138 70244 886// 333 564// 59003 83707 85715;EQDQ01  00002PRCP99
0223845310999992000060915004-09170-078520FM-12+0011SPEO V0201901N002110042019N0100001N1+01961+01571101551ADDAA199000091AY141031AY221031GA1081+004209069GF108991081061004501999999MA1999999101431MD1999999+0071MW1021REMSYN088AAXX  09154 84531 31460 81904 10196 20157 30143 40155 70242 886// 333 564// 58007 88714;EQDQ01  00002PRCP99
0223845310999992000080118004-09160-078520FM-12+0011SPEO V0201801N006212200019N0120001N1+02031+01461101431ADDAA199000091AY121061AY221061GA1021+005409069GF102991021061004501999999MA1999999101311MD1999999-0041MW1021REMSYN088AAXX  01184 84531 31462 21812 10203 20146 30131 40143 70222 826// 333 569// 59004 82718;EQDQ01  00002PRCP99
0242845310999992000092000004-09160-078520FM-12+0011SPEO V0201701N008710036019N0050001N1+01701+01441101371ADDAA199000091AY141061AY241061GA1051+003609059GF105991051051004501999999KA1240M+02051MA1999999101251MD1999999+0021MW1101REMSYN094AAXX  20004 84531 31450 51717 10170 20144 30125 40137 71044 855// 333 10205 569// 58002 85612;EQDQ01  00002PRCP99
0223845310999992000092718004-09160-078520FM-12+0011SPEO V0201901N010312200019N0100001N1+01971+01411101351ADDAA199000091AY141061AY241061GA1031+006009059GF103991031061008001999999MA1999999101231MD1999999+0021MW1011REMSYN088AAXX  27184 84531 31560 31920 10197 20141 30123 40135 70144 836// 333 569// 58002 83620;EQDQ01  00002PRCP99
0223845310999992000100321004-09160-078520FM-12+0011SPEO V0201801N008210045019N0060001N1+01961+01481101221ADDAA199000091AY141031AY241031GA1061+004509059GF106991061051004501999999MA1999999101101MD1999999-0171MW1051REMSYN088AAXX  03214 84531 31456 61816 10196 20148 30110 40122 70544 865// 333 569// 59017 86615;EQDQ01  00002PRCP99
0223845310999992000101121004-09160-078520FM-12+0011SPEO V02099999999990060019N9999999N1+02011+01381100921ADDAA199000091AY141031AY241031GA1061+006009059GF108991061051008001999999MA1999999100701MD1999999+0081MW1051REMSYN088AAXX  11214 84531 31551 8//14 10201 20138 30070 40092 70544 865// 333 569// 58008 86620;EQDQ01  00002PRCP99
0210845310999992000120418004-09160-078520FM-12+0011SPEO V0201901N007710030019N0060001N1+02131+01651101221ADDAA199000091AY141061AY241061GA1081+003009059GF108991081051004501999999MW1021REMSYN088AAXX  04184 84531 31456 81915 10213 20165 30010 40122 70244 885// 333 569// 58/// 88610;EQDQ01+100103APOSP Q02  00002PRCP99
0223845310999992000121621004-09160-078520FM-12+0011SPEO V0201901N008212200019N0120001N1+02251+01621101151ADDAA199000091AY101031AY201031GA1041+007509059GF104991041051008001001001MA1999999101031MD1999999-0081MW1021REMSYN088AAXX  16214 84531 31562 41916 10225 20162 30103 40115 70200 84500 333 56900 59008 84625;EQDQ01  00002PRCP99
0226845310999992000122312004-09160-078520FM-12+0011SPEO V0201701N004110030019N0020001N1+01901+01751101061ADDAA199000091GA1081+003009069GF108991081061002501999999KA1240N+01701MA1999999100941MD1999999-0071MW1101REMSYN094AAXX  23124 84531 31320 81708 10190 20175 30094 40106 710// 886// 333 20170 569// 59007 88710;EQDQ01  00002PRCP99
0242845310999992000122700004-09160-078520FM-12+0011SPEO V0201901N006210045019N0120001N1+02141+01781100991ADDAA199000091AY121061AY201061GA1061+004509059GF106991061051004501999999KA1240M+02481MA1999999100871MD1999999+0051MW1031REMSYN094AAXX  27004 84531 31462 61912 10214 20178 30087 40099 70320 865// 333 10248 569// 58005 86615;EQDQ01  00002PRCP99
0216845340999992000022218004-09130-075950FM-12+0665SPGM V0209999C00001045001CN0100001N1+02901+02061100861ADDAA106002091AY121061AY261061GA1031+006009089GF108991031021008001031999MA1999999093801MD1999999-0201MW1021REMSYN100AAXX  22184 84534 21560 80000 10290 20206 39380 40086 70226 8323/ 333 5699/ 59020 60021 83820 86358;
0229845340999992000042418004-09130-075950FM-12+0665SPGM V0209999C00001045001CN0080001N1+02501+02151101051ADDAA199000091AY121061AY221061GA1021+007509089GF108991021071008001021999MA1999999093901MD1999999+0001MW1031REMSYN094AAXX  24184 84534 31558 80000 10250 20215 39390 40105 70322 8272/ 333 5699/ 58000 82825 88459;EQDQ01  00002PRCP99
0201845340999992000042815004-09130-075950FM-12+0665SPGM V0209999C000012200019N0100001N1+02701+02071101201ADDAA199000091GA1021+009009029GF102991021021008001001001MA1999999094101MD1999999-0101REMSYN088AAXX  28154 84534 31560 20000 10270 20207 39410 40120 7/211 82200 333 56900 59010 82830;EQDQ01  00002PRCP99
0223845340999992000062215004-09120-075940FM-12+0665SPGM V0209999C000012200019N0100001N1+02401+02121101271ADDAA199000091AY141031AY221031GA1021+009009029GF102991021021008001001001MA1999999094101MD1999999-0101MW1011REMSYN088AAXX  22154 84534 31560 20000 10240 20212 39410 40127 70142 82200 333 56900 59010 82830;EQDQ01  00002PRCP99
0223845340999992000072721004-09120-075940FM-12+0665SPGM V0209999C000012200019N0100001N1+03121+02121100821ADDAA199000091AY111031AY221031GA1011+012009029GF101991011021012501001001MA1999999093801MD1999999-0101MW1011REMSYN088AAXX  27214 84534 31660 10000 10312 20212 39380 40082 70112 81200 333 56900 59010 81840;EQDQ01  00002PRCP99
0232845340999992000100312004-09120-075940FM-12+0665SPGM V0209999C000010060019N0050001N1+02221+02051101321ADDAA199000091GA1051+006009089GF108991051021008001031999KA1240N+02001MA1999999094101MD1999999-0101MW1041REMSYN100AAXX  03124 84534 31550 80000 10222 20205 39410 40132 704// 8523/ 333 20200 5699/ 59010 85820 83358;EQDQ01  00002PRCP99
0239845340999992000101715004-09120-075940FM-12+0665SPGM V0209999C000012200019N0100001N1+02801+02101101411ADDAA199000091AY101031AY201031GA1021+009009029GF102991021021008001001001MA1999999094302MD1999999+0001MW1021REMSYN088AAXX  17154 84534 31560 20000 10280 20210 39430 40141 70200 82200 333 56900 58000 82830;EQDQ01+094303APOSP Q02  00002PRCP99
0245845340999992000101815004-09120-075940FM-12+0665SPGM V0209999C00001045001CN0100001N1+02401+02051101611ADDAA199000091AY121031AY221031GA1021+012009089GF107991021021012501031999MA1999999094402MD1999999+0101MW1011REMSYN094AAXX  18154 84534 31660 70000 10240 20205 39440 40161 70122 8223/ 333 5699/ 58010 82840 85360;EQDQ01+094403APOSP Q02  00002PRCP99
0216845340999992000120718004-09120-075940FM-12+0665SPGM V0209999C00001045001CN0100001N1+02601+02061100931ADDAA106004091AY161061AY261061GA1031+004509089GF108991031071004501021999MA1999999093801MD1999999+0001MW1021REMSYN100AAXX  07184 84534 21460 80000 10260 20206 39380 40093 70266 8372/ 333 5699/ 58000 60041 83815 88457;
0199845340999992000123015004-09120-075940FM-12+0665SPGM V0209999C00001045001CN0010001N1+02081+01991101591ADDAY161031AY261031GA1031+001509079GF108991031071001501021999MA1999999094301MD1999999+0201MW1651REMSYN094AAXX  30154 84534 41210 80000 10208 20199 39430 40159 76566 8372/ 333 5699/ 58020 83705 88457;
0223845420999992000031518004-09350-077600FM-12+2760SPHZ V0203601N00411045001CN0200001N1+01901+01291999999ADDAA199000091AY121061AY221061GA1041+013509069GF107991041051012501031999MA1999999073421MD1999999+0121MW1011REMSYN088AAXX  15184 84542 31670 73608 10190 20129 37342 70122 8453/ 333 5699/ 58012 84645 83363;EQDQ01  00002PRCP99
0193845420999992000041012004-09350-077600FM-12+2760SPHZ V0209999C000012200019N0200001N1+00901+00901999999ADDAA124008091GA1021+014109059GF102991021051012501001001KA1240N+00901MA1999999073821MW1021REMSYN094AAXX  10124 84542 21670 20000 10090 20090 37382 702// 82500 333 20090 569// 58/// 60084 82647;
0223845420999992000051621004-09350-077600FM-12+2760SPHZ V0203401N00621045001CN0200001N1+02301+01071999999ADDAA199000091AY101031AY201031GA1031+013509089GF105991031081012501031999MA1999999073421MD1999999-0021MW1031REMSYN088AAXX  16214 84542 31670 53412 10230 20107 37342 70300 8383/ 333 5699/ 59002 83845 82362;EQDQ01  00002PRCP99
0217845420999992000051718004-09350-077600FM-12+2760SPHZ V0203401N004112200019N0200001N1+02301+00991999999ADDAA199000091AY101061AY201061GA1041+013509029GF104991041081012501999999MA1999999073721MD1999999+0021MW1031REMSYN082AAXX  17184 84542 31670 43408 10230 20099 37372 70300 848// 333 5699/ 58002 84845;EQDQ01  00002PRCP99
0199845420999992000052318004-09350-077600FM-12+2760SPHZ V0203401N002612200019N0200001N1+02101+01011999999ADDAA199000091AY101061AY201061GA1001+999999999GF100991001001999999001001MA1999999073641MD1999999-0041MW1021REMSYN064AAXX  23184 84542 31970 03405 10210 20101 37364 70200 333 59004;EQDQ01  00002PRCP99
0183845420999992000101115004-09350-077600FM-12+2760SPHZ V0209999C000012200019N0200001N1+01801+00821999999ADDAA199000091GA1001+999999999GF100991001001999999001001MA1999999073821MD1999999+0021MW1021REMSYN064AAXX  11154 84542 31970 00000 10180 20082 37382 702// 333 58002;EQDQ01  00002PRCP99
0191845420999992000110318004-09350-077600FM-12+2760SPHZ V0203501N006212200019N0200001N1+02401+00621999999ADDAA199000091AY101061GA1001+999999999GF100991001001999999001001MA1999999073341MD1999999+0121MW1021REMSYN064AAXX  03184 84542 31970 03512 10240 20062 37334 7020/ 333 58012;EQDQ01  00002PRCP99
0217845640999992000020218004-09900-075750FM-12+1860SPNC V0200601N009312200019N0100001N1+02501+01591999999ADDAA199000091AY101061AY201061GA1031+009009029GF103991031021008001001001MA1999999081611MD1999999+0311MW1011REMSYN082AAXX  02184 84564 31560 30618 10250 20159 38161 70100 83200 333 56100 58031 83830;EQDQ01  00002PRCP99
0220845640999992000020612004-09900-075750FM-12+1860SPNC V0209999C000010060019N0100001N1+01701+01531999999ADDAA199000091GA1081+006009069GF108991081071008001999999KA1240N+01581MA1999999081801MD1999999+0001MW1021REMSYN088AAXX  06124 84564 31560 80000 10170 20153 38180 702// 887// 333 20158 560// 58000 88720;EQDQ01  00002PRCP99
0223845640999992000031318004-09900-075750FM-12+1860SPNC V0200601N00511045001CN0100001N1+02351+01621999999ADDAA199000091AY121061AY221061GA1021+009009089GF106991021021008001031999MA1999999081351MD1999999-0271MW1011REMSYN088AAXX  13184 84564 31560 60610 10235 20162 38135 70122 8223/ 333 5611/ 59027 82830 84364;EQDQ01  00002PRCP99
0223845640999992000032518004-09900-075750FM-12+1860SPNC V0200601N00771007501CN0070001N1+01831+01521999999ADDAA199000091AY121061AY221061GA1011+005409079GF107991071051008001999999MA1999999081891MD1999999+0341MW1011REMSYN088AAXX  25184 84564 31557 70615 10183 20152 38189 70122 875// 333 561// 58034 81718 86628;EQDQ01  00002PRCP99
0223845640999992000041515004-09900-075750FM-12+1860SPNC V0209999C000012200019N0100001N1+02051+01471999999ADDAA199000091AY101031AY201031GA1011+006009089GF104991011021008001031001MA1999999081901MD1999999+0061MW1031REMSYN088AAXX  15154 84564 31560 40000 10205 20147 38190 70300 81230 333 56110 58006 81820 83365;EQDQ01  00002PRCP99
0218845640999992000052200004-09900-075750FM-12+1860SPNC V0200601N005112200019N0100001N1+02101+01581999999ADDAA199000091AY101061AY201061GA1001+999999999GF100991001001999999001001KA1240M+02701MA1999999081601MD1999999+0031MW1021REMSYN070AAXX  22004 84564 31960 00610 10210 20158 38160 70200 333 10270 58003;EQDQ01  00002PRCP99
0218845640999992000091200004-09890-075750FM-12+1860SPNC V0200601N002612200019N0100001N1+02001+01511999999ADDAA199000091AY121061AY201061GA1001+999999999GF100991001001999999001001KA1240M+02751MA1999999081391MD1999999-0031MW1011REMSYN070AAXX  12004 84564 31960 00605 10200 20151 38139 70120 333 10275 59003;EQDQ01  00002PRCP99
0223845640999992000100615004-09890-075750FM-12+1860SPNC V0200601N00411045001CN0100001N1+02221+01671999999ADDAA199000091AY101031AY201031GA1011+008109089GF107991011021008001031001MA1999999081701MD1999999-0201MW1031REMSYN088AAXX  06154 84564 31560 70608 10222 20167 38170 70300 81230 333 56000 59020 81827 86362;EQDQ01  00002PRCP99
0202845640999992000101212004-09890-075750FM-12+1860SPNC V0209999C000012200019N0100001N1+01501+01281999999ADDAA199000091GA1001+999999999GF100991001001999999001001KA1240N+01301MA1999999081931MD1999999+0031MW1021REMSYN070AAXX  12124 84564 31960 00000 10150 20128 38193 702// 333 20130 58003;EQDQ01  00002PRCP99
0236845640999992000101300004-09890-075750FM-12+1860SPNC V0200601N006210090019N0100001N1+01901+01611999999ADDAA199000091AY121061AY221061GA1061+009009059GF106991061051008001999999KA1240M+02851MA1999999081601MD1999999+0031MW1021REMSYN088AAXX  13004 84564 31560 60612 10190 20161 38160 70222 865// 333 10285 560// 58003 86630;EQDQ01  00002PRCP99
0223845640999992000102815004-09890-075750FM-12+1860SPNC V0209999C000010450019N0100001N1+01841+01531999999ADDAA199000091AY121031AY221031GA1031+009009069GF108991031051008001031999MA1999999081791MD1999999-0011MW1021REMSYN088AAXX  28154 84564 31560 80000 10184 20153 38179 70222 8353/ 333 561// 59001 83630 85365;EQDQ01  00002PRCP99
0175846280999992000011010004-12000-077120FM-15+0013SPIM V02099999999990150019N0112651N1+02001+01901999999ADDGA1021+006009999GA2071+015009999GF107991999999999999999999MA1101081999999MW1001REMMET065SPIM 101000Z VRB06KMH 9999 FEW020 BKN050 20/19 Q1011 NOSIG PP000;EQDQ01+000000PRSWM2
0104846280999992000011111004-12000-077120FM-15+0013SPIM V0201701N00191220001CN0099001N1+02001+01801999999ADDMA1101191999999MW1001REMMET052SPIM 111100Z 17007KMH CAVOK 20/18 Q1012 NOSIG PP000;EQDQ01+000000PRSWM2
0152846280999992000011304004-12000-077120FM-15+0013SPIM V0201601N005610030019N0112651N1+02101+01901999999ADDGA1071+003009999GF107991999999999999999999MA1101191999999MW1001REMMET058SPIM 130400Z 16020KMH 9999 BKN010 21/19 Q1012 NOSIG PP000;EQDQ01+000000PRSWM2
0183846280999992000011316004-12000-077120FM-15+0013SPIM V0202201N002510810019N0112651N1+02301+01901999999ADDGA1021+003009999GA2071+081009999GF107991999999999999999999MA1101291999999MW1001REMMET073SPIM 131600Z 22009KMH 170V240 9999 SCT010 BKN270 23/19 Q1013 NOSIG PP000;EQDQ01+000000PRSWM2
0104846280999992000011716004-12000-077120FM-15+0013SPIM V0201901N00471220001CN0099001N1+02401+01901999999ADDMA1101191999999MW1001REMMET052SPIM 171600Z 19017KMH CAVOK 24/19 Q1012 NOSIG PP000;EQDQ01+000000PRSWM2
0159846280999992000012009154-12000-077120FM-16+0013SPIM V0209999999999220001CN0080001N1+02001+01901999999ADDGA1071+002109999GA2021+030009999MA1101021999999MW1001REMMET059SPIM 200915Z VRB05KMH 8000 BKN007 SCT100 20/19 Q1010 NOSIG;EQDQ01+000042SCOTCVQ02+000000PRSWM2
0187846280999992000012512004-12000-077120FM-15+0013SPIM V0209999C000010006019N0012001N1+01901+01901999999ADDGA1081+000609999GF108991999999999999999999MA1101191999999MW1101REMMET077SPIM 251200Z 00000KMH 1200 R15/0800VP1500U BR OVC002 19/19 Q1012 NOSIG PP000;EQDQ01+000003PRSWM1Q02    003PRSWM1
0175846280999992000013004004-12000-077120FM-15+0013SPIM V0201701N003110300019N0112651N1+02201+01901999999ADDGA1021+012009999GA2071+030009999GF107991999999999999999999MA1101391999999MW1001REMMET065SPIM 300400Z 17011KMH 9999 FEW040 BKN100 22/19 Q1014 NOSIG PP000;EQDQ01+000000PRSWM2
0104846280999992000013102004-12000-077120FM-15+0013SPIM V0201801N00171220001CN0099001N1+02201+01801999999ADDMA1101491999999MW1001REMMET052SPIM 310200Z 18006KMH CAVOK 22/18 Q1015 NOSIG PP000;EQDQ01+000000PRSWM2
0323846280999992000021412004-12000-077120SY-MT+0013SPIM V0209999C000010300019N0030001N1+01951+01881101171ADDAA199000091AW1101AZ141061GA1071+030009999GF107991071001022501031999KA1240N+01961MA1101191101011MD1999999-0011MW1101REMSYN094AAXX  14124 84628 34830 70000 10195 20188 30101 40117 71044 8703/ 333 20196 56011 59001 87360;MET061SPIM 141200Z 00000KMH 3000 BR BKN100 20/19 Q1012 NOSIG PP000;EQDQ01+000000PRSWM2Q02  00002PRCP99
0104846280999992000022123004-12000-077120FM-15+0013SPIM V0201801N00311220001CN0099001N1+02401+01901999999ADDMA1101081999999MW1001REMMET052SPIM 212300Z 18011KMH CAVOK 24/19 Q1011 NOSIG PP000;EQDQ01+000000PRSWM2
0282846280999992000030200004-12000-077120SY-MT+0013SPIM V0201801N00311220001CN0100001N1+02141+01861101231ADDAA199000021AW1021AZ121061GF108991001001999999001011KA1240M+02491MA1101191101071MD1999999+0041MW1001REMSYN094AAXX  02004 84628 34960 81806 10214 20186 30107 40123 70222 80001 333 10249 56//1 58004 88076;MET052SPIM 020000Z 18011KMH CAVOK 22/19 Q1012 NOSIG PP000;EQDQ01+000000PRSWM2
0104846280999992000030202004-12000-077120FM-15+0013SPIM V0201901N00391220001CN0099001N1+02101+01801999999ADDMA1101291999999MW1001REMMET052SPIM 020200Z 19014KMH CAVOK 21/18 Q1013 NOSIG PP000;EQDQ01+000000PRSWM2
0175846280999992000030409004-12000-077120FM-15+0013SPIM V02099999999992200019N0060001N1+01901+01801999999ADDGA1021+002709999GA2021+081009999GF104991999999999999999999MA1101021999999MW1001REMMET065SPIM 040900Z VRB06KMH 6000 FEW009 SCT270 19/18 Q1010 NOSIG PP000;EQDQ01+000000PRSWM2
0152846280999992000030502004-12000-077120FM-15+0013SPIM V0201801N003310390019N0080001N1+02101+01801999999ADDGA1071+039009999GF107991999999999999999999MA1101081999999MW1001REMMET058SPIM 050200Z 18012KMH 8000 BKN130 21/18 Q1011 NOSIG PP000;EQDQ01+000000PRSWM2
0152846280999992000030513004-12000-077120FM-15+0013SPIM V0201801N001110810019N0060001N1+02101+01901999999ADDGA1071+081009999GF107991999999999999999999MA1101191999999MW1001REMMET058SPIM 051300Z 18004KMH 6000 BKN270 21/19 Q1012 NOSIG PP000;EQDQ01+000000PRSWM2
0179846280999992000031711004-12000-077120FM-15+0013SPIM V02099999999992200019N0030001N1+01701+01601999999ADDGA1021+039009999GF104991999999999999999999MA1101291999999MW1101REMMET069SPIM 171100Z VRB06KMH 3000 BR SCT130 17/16 Q1013 PP000 TEMPO 1200 BR;EQDQ01+000003PRSWM1Q02    003PRSWM1
0336846280999992000032000004-12000-077120SY-MT+0013SPIM V0201801N002619999999N0120001N1+02121+01741100971ADDAA199000091AW1021AZ121061GA1021+030009079GA2031+078009019GF105991021001999999031011KA1240M+02631MA1100911100801MD1999999-0071MW1001REMSYN100AAXX  20004 84628 34962 51805 10212 20174 30080 40097 70221 82031 333 10263 56011 59007 82360 83076;MET052SPIM 200000Z 18010KMH CAVOK 21/17 Q1009 PP000 NOSIG;EQDQ01+000000PRSWM2Q02  00002PRCP99
0320846280999992000040200004-12000-077120SY-MT+0013SPIM V0201701N003619999999N0120001N1+02141+01841101021ADDAA199000091AW1021AZ111061GA1021+048009039GF107991021001999999031011KA1240M+02761MA1101021100861MD1999999+0051MW1001REMSYN100AAXX  02004 84628 34962 71707 10214 20184 30086 40102 70211 82031 333 10276 56011 58005 82366 85076;MET052SPIM 020000Z 17013KMH CAVOK 21/18 Q1010 NOSIG PP000;EQDQ01+000000PRSWM2Q02  00002PRCP99
0133846280999992000040602004-12000-077120FM-15+0013SPIM V02099999999992200019N0070001N1+02101+01801999999ADDGF100991999999999999999999MA1101191999999MW1001REMMET055SPIM 060200Z VRB05KMH 7000 SKC 21/18 Q1012 NOSIG PP000;EQDQ01+000000PRSWM2
0133846280999992000040701004-12000-077120FM-15+0013SPIM V0201701N002812200019N0080001N1+02001+01701999999ADDGF100991999999999999999999MA1101021999999MW1001REMMET055SPIM 070100Z 17010KMH 8000 SKC 20/17 Q1010 NOSIG PP000;EQDQ01+000000PRSWM2
0158846280999992000041608324-12000-077120FM-16+0013SPIM V0201701N003610006019N0025001N1+01901+01801999999ADDGA1081+000609999GF108991999999999999999999MA1101291999999MW1101REMMET048SPIM 160832Z 17007KT 2500 BR OVC002 19/18 Q1013;EQDQ01+000003PRSWM1Q02    003PRSWM1
0303846280999992000041609004-12000-077120SY-MT+0013SPIM V0201701N003110006019N0018001N1+01861+01811101291ADDAA199000091AW1101AZ141031GA1081+000609999GF108991081061000751999999MA1101291101131MD1999999+0181MW1101REMSYN088AAXX  16094 84628 34118 81706 10186 20181 30113 40129 71044 886// 333 563// 58018 88702;MET060SPIM 160900Z 17006KT 1800 BR OVC002 19/18 Q1013 NOSIG PP000;EQDQ01+000000PRSWM2Q02  00002PRCP99
0111846280999992000041920004-12000-077120FM-15+0013SPIM V0202001N00311220001CN0099001N1+02201+01701999999ADDMA1101021999999MW1001REMMET059SPIM 192000Z 20006KT 150V220 CAVOK 22/17 Q1010 NOSIG/PP000;EQDQ01+000000PRSWM2
0319846280999992000042312004-12000-077120SY-MT+0013SPIM V0201601N002112200019N0050001N1+01771+01601101251ADDAA199000091AW1101AZ141061GA1021+030009999GF102991021001999999031001KA1240N+01741MA1101191101091MD1999999+0101MW1001REMSYN094AAXX  23124 84628 34950 21604 10177 20160 30109 40125 71044 82030 333 20174 5601/ 58010 82360;MET057SPIM 231200Z 16004KT 5000 FEW100 18/16 Q1012 PP000 NOSIG;EQDQ01+000000PRSWM2Q02  00002PRCP99
0132846280999992000042422004-12000-077120FM-15+0013SPIM V0201701N006212200019N0080001N1+02101+01701999999ADDGF100991999999999999999999MA1101081999999MW1001REMMET054SPIM 242200Z 17012KT 8000 SKC 21/17 Q1011 PP000 NOSIG;EQDQ01+000000PRSWM2
0103846280999992000042604004-12000-077120FM-15+0013SPIM V0201701N00361220001CN0099001N1+01901+01701999999ADDMA1101191999999MW1001REMMET051SPIM 260400Z 17007KT CAVOK 19/17 Q1012 PP000 NOSIG;EQDQ01+000000PRSWM2
0151846280999992000042901004-12000-077120FM-15+0013SPIM V0201801N002612200019N0070001N1+01901+01701999999ADDGA1021+081009999GF104991999999999999999999MA1101081999999MW1001REMMET057SPIM 290100Z 18005KT 7000 SCT270 19/17 Q1011 PP000 NOSIG;EQDQ01+000000PRSWM2
0132846280999992000042916004-12000-077120FM-15+0013SPIM V0202801N002112200019N0090001N1+02201+01701999999ADDGF100991999999999999999999MA1101191999999MW1001REMMET054SPIM 291600Z 28004KT 9000 SKC 22/17 Q1012 PP000 NOSIG;EQDQ01+000000PRSWM2
0271846280999992000050115004-12000-077120SY-MT+0013SPIM V0201701N002612200019N0070001N1+02121+01721101441ADDAA199000091AW1051AZ141031GF100991001001999999001001MA1101391101281MD1999999-0121MW1001REMSYN070AAXX  01154 84628 34957 01705 10212 20172 30128 40144 70544 333 59012;MET062SPIM 011500Z 17005KT 140V230 7000 SKC 21/17 Q1014 PP000 NOSIG;EQDQ01+000000PRSWM2Q02  00002PRCP99
0132846280999992000050304004-12000-077120FM-15+0013SPIM V0201701N003112200019N0080001N1+01801+01601999999ADDGF100991999999999999999999MA1101191999999MW1001REMMET054SPIM 030400Z 17006KT 8000 SKC 18/16 Q1012 PP000 NOSIG;EQDQ01+000000PRSWM2
0151846280999992000050522004-12000-077120FM-15+0013SPIM V0201901N003612200019N0080001N1+02001+01701999999ADDGA1021+081009999GF102991999999999999999999MA1101081999999MW1001REMMET057SPIM 052200Z 19007KT 8000 FEW270 20/17 Q1011 PP000 NOSIG;EQDQ01+000000PRSWM2
0151846280999992000050705004-12000-077120FM-15+0013SPIM V0201701N002110300019N0050001N1+01801+01701999999ADDGA1071+030009999GF107991999999999999999999MA1101391999999MW1001REMMET057SPIM 070500Z 17004KT 5000 BKN100 18/17 Q1014 PP000 NOSIG;EQDQ01+000000PRSWM2
0151846280999992000052021004-12000-077120FM-15+0013SPIM V0202701N002112200019N0060001N1+01901+01501999999ADDGA1021+081009999GF102991999999999999999999MA1101291999999MW1001REMMET057SPIM 202100Z 27004KT 6000 FEW270 19/15 Q1013 PP000 NOSIG;EQDQ01+000000PRSWM2
0170846280999992000052607004-12000-077120FM-15+0013SPIM V0202601N002110048019N0040001N1+01701+01501999999ADDGA1081+004809999GF108991999999999999999999MA1101391999999MW1101REMMET060SPIM 260700Z 26004KT 4000 BR OVC016 17/15 Q1014 PP000 NOSIG;EQDQ01+000003PRSWM1Q02    003PRSWM1
0318846280999992000052703004-12000-077120SY-MT+0013SPIM V0209999C000012200019N0080001N1+01631+01451101441ADDAA199000091AY141031AY211031GA1021+003609999GF102991021061002501999999MA1101391101281MD1999999+0031MW1101REMSYN088AAXX  27034 84628 31358 20000 10163 20145 30128 40144 71041 826// 333 563// 58003 82712;MET057SPIM 270300Z 00000KT 8000 FEW012 16/15 Q1014 PP000 NOSIG;EQDQ01+000000PRSWM2Q02  00002PRCP99Q03    003PRSWM1
0322846280999992000052712004-12000-077120SY-MT+0013SPIM V0201901N000510066019N0040001N1+01661+01481101411ADDAA199000091AW1101AZ141061GA1081+006609999GF108991081051008001999999KA1240N+01571MA1101391101251MD1999999-0111MW1101REMSYN094AAXX  27124 84628 34540 81901 10166 20148 30125 40141 71044 885// 333 20157 563// 59011 88622;MET060SPIM 271200Z VRB01KT 4000 BR OVC022 17/15 Q1014 PP000 NOSIG;EQDQ01+000000PRSWM2Q02  00002PRCP99
0170846280999992000060502004-12000-077120FM-15+0013SPIM V0201601N002610036019N0035001N1+01701+01501999999ADDGA1081+003609999GF108991999999999999999999MA1101391999999MW1101REMMET060SPIM 050200Z 16005KT 3500 BR OVC012 17/15 Q1014 PP000 NOSIG;EQDQ01+000003PRSWM1Q02    003PRSWM1
0172846280999992000062316004-12000-077110FM-15+0013SPIM V02099999999990051019N0112651N1+01701+01401999999ADDGA1021+003609999GA2081+005109999GF108991999999999999999999MA1101691999999MW1001REMMET062SPIM 231600Z VRB03 9999 SCT012 OVC017 17/14 Q1017 NOSIG PP000;EQDQ01+000000PRSWM2
0303846280999992000062609004-12000-077110SY-MT+0013SPIM V0209999C000010039019N0040001N1+01501+01341101191ADDAA199000091AW1101AZ141031GA1081+003909999GF108991081061004501999999MA1101191101031MD1999999-0321MW1101REMSYN088AAXX  26094 84628 34440 80000 10150 20134 30103 40119 71044 886// 333 56010 59032 88713;MET060SPIM 260900Z 00000KT 4000 BR OVC013 15/13 Q1012 PP000 NOSIG;EQDQ01+000000PRSWM2Q02  00002PRCP99
0180846280999992000062822004-12000-077110FM-15+0013SPIM V0201801N004610045019N0050001N1+01601+01401999999ADDGA1081+004509999GF108991999999999999999999MA1101191999999MW1101REMMET070SPIM 282200Z 18009KT 5000 BR OVC015 16/14 Q1012 TMAX 17.8 PP000 NOSIG;EQDQ01+000003PRSWM1Q02    003PRSWM1
0151846280999992000063001004-12000-077110FM-15+0013SPIM V0201701N004110075019N0060001N1+01601+01401999999ADDGA1081+007509999GF108991999999999999999999MA1101291999999MW1001REMMET057SPIM 300100Z 17008KT 6000 OVC025 16/14 Q1013 NOSIG PP000;EQDQ01+000000PRSWM2
0301846280999992000070121004-12000-077110SY-MT+0013SPIM V0201701N005110069019N0100001N1+01811+01391101241ADDAA199000091AW1021AZ141031GA1081+006909999GF108991081051008001999999MA1101191101081MD1999999-0071MW1001REMSYN088AAXX  01214 84628 34560 81710 10181 20139 30108 40124 70242 885// 333 563// 59007 88623;MET058SPIM 012100Z 17010KT 9999 OVC023 18/14 Q1012 NOSIG PP000 ;EQDQ01+000000PRSWM2Q02  00002PRCP99
0151846280999992000071109004-12000-077110FM-15+0013SPIM V02099999999990042019N0060001N1+01601+01401999999ADDGA1081+004209999GF108991999999999999999999MA1101191999999MW1001REMMET057SPIM 110900Z VRB02KT 6000 OVC014 16/14 Q1012 PP000 NOSIG;EQDQ01+000000PRSWM2
0151846280999992000071501004-12000-077110FM-15+0013SPIM V0201701N005110048019N0112651N1+01601+01401999999ADDGA1081+004809999GF108991999999999999999999MA1101591999999MW1001REMMET057SPIM 150100Z 17010KT 9999 OVC016 16/14 Q1016 NOSIG PP000;EQDQ01+000000PRSWM2
0300846280999992000071506004-12000-077110SY-MT+0013SPIM V0201501N004110036019N0100001N1+01621+01361101581ADDAA199000091AW1021AZ141061GA1081+003609999GF108991081061004501999999MA1101591101421MD1999999-0071MW1001REMSYN088AAXX  15064 84628 34460 81508 10162 20136 30142 40158 70242 886// 333 563// 59007 88712;MET057SPIM 150600Z 15007KT 9999 OVC012 16/14 Q1016 NOSIG PP000;EQDQ01+000000PRSWM2Q02  00002PRCP99
0303846280999992000071806004-12000-077110SY-MT+0013SPIM V0201601N002110066019N0035001N1+01601+01361101711ADDAA199000091AW1101AZ141061GA1081+006609999GF108991081051008001999999MA1101691101551MD1999999+0101MW1101REMSYN088AAXX  18064 84628 34535 81604 10160 20136 30155 40171 71044 885// 333 563// 58010 88622;MET060SPIM 180600Z 16004KT 3500 BR OVC022 16/14 Q1017 NOSIG PP000;EQDQ01+000000PRSWM2Q02  00002PRCP99
0174846280999992000071816004-12000-077110FM-15+0013SPIM V02099999999990084019N0112651N1+01801+01301999999ADDGA1021+003609999GA2081+008409999GF108991999999999999999999MA1101801999999MW1001REMMET064SPIM 181600Z VRB01KT 9999 SCT012 OVC028 18/13 Q1018 NOSIG PP000;EQDQ01+000000PRSWM2
0170846280999992000071823004-12000-077110FM-15+0013SPIM V0201701N003110081019N0050001N1+01701+01301999999ADDGA1081+008109999GF108991999999999999999999MA1101691999999MW1051REMMET060SPIM 182300Z 17006KT 5000 HZ OVC027 17/13 Q1017 NOSIG PP000;EQDQ01+000003PRSWM1Q02    003PRSWM1
0193846280999992000072020004-12000-077110FM-15+0013SPIM V0202701N004010075019N0040001N1+01801+01401999999ADDGA1021+003609999GA2081+007509999GF108991999999999999999999MA1101391999999MW1051REMMET067SPIM 202000Z 27004KT 4000 HZ FEW012 OVC025 18/14 Q1014 NOSIG PP000;EQDQ01+000003PRSWM1Q02    003PRSWM1
0179846280999992000072808004-12000-077110FM-15+0013SPIM V0201601N004110081019N0045001N1+01601+01301999999ADDGA1081+008109999GF108991999999999999999999MA1101391999999MW1101REMMET069SPIM 280800Z 16008KT 4500 BR OVC027 16/13 Q1014 PP000 TEMPO 3000 BR ;EQDQ01+000003PRSWM1Q02    003PRSWM1
0300846280999992000072815004-12000-077110SY-MT+0013SPIM V0201701N003110078019N0100001N1+01741+01261101641ADDAA199000091AW1021AZ141031GA1081+007809999GF108991081051008001999999MA1101591101481MD1999999+0011MW1001REMSYN088AAXX  28154 84628 34560 81706 10174 20126 30148 40164 70244 885// 333 563// 58001 88626;MET057SPIM 281500Z 17006KT 9999 OVC026 17/13 Q1016 NOSIG PP000;EQDQ01+000000PRSWM2Q02  00002PRCP99
0193846280999992000080608004-12000-077110FM-15+0013SPIM V0209999C000010060019N0035001N1+01601+01401999999ADDGA1021+003009999GA2081+006009999GF108991999999999999999999MA1101491999999MW1101REMMET067SPIM 060800Z 00000KT 3500 BR FEW010 OVC020 16/14 Q1015 NOSIG PP000;EQDQ01+000003PRSWM1Q02    003PRSWM1
0193846280999992000080610004-12000-077110FM-15+0013SPIM V0209999C000010054019N0030001N1+01601+01401999999ADDGA1021+003009999GA2081+005409999GF108991999999999999999999MA1101491999999MW1101REMMET067SPIM 061000Z 00000KT 3000 BR FEW010 OVC018 16/14 Q1015 NOSIG PP000;EQDQ01+000003PRSWM1Q02    003PRSWM1
0154846280999992000081102004-12000-077110FM-15+0013SPIM V0201601N002610024019N0040001N1+01601+01501999999ADDGA1081+002409999GF108991999999999999999999MW1101REMMET059SPIM 110200Z 16005KT 4000 BR OVC008 16/15 1016 NOSIG PP000;EQDQ01+000003PRSWM1Q02    003PRSWM1
0319846280999992000081318004-12000-077110SY-MT+0013SPIM V0209999C000010045019N0080001N1+01701+01441101631ADDAA106999929AW1101AZ151061GA1021+002709999GA2081+004509999GF108991081061002501999999MA1101591101471MD1999999+0241MW1001REMSYN100AAXX  13184 84628 34358 80000 10170 20144 30147 40163 71054 886// 333 563// 58024 69901 83709 88715;MET064SPIM 131800Z 00000KT 8000 SCT009 OVC015 17/14 Q1016 NOSIG PP000;EQDQ01+000000PRSWM2
0313846280999992000081918004-12000-077110SY-MT+0013SPIM V0201901N003610066019N0100001N1+01811+01441101491ADDAA199000021AW1021AZ141061GA1021+003609999GA2081+006609999GF108991081061004501999999MA1101491101331MD1999999+0081MW1001REMSYN094AAXX  19184 84628 34460 81907 10181 20144 30133 40149 70242 886// 333 563// 58008 82712 88722;MET064SPIM 191800Z 19007KT 9999 FEW012 OVC022 18/14 Q1015 NOSIG PP000;EQDQ01+000000PRSWM2
0335846280999992000082100004-12000-077110SY-MT+0013SPIM V0201801N004112200019N0090001N1+01631+01401101141ADDAA199000091AW1101AZ121061GA1071+004509999GF199999001001999999001001KA1240M+01921MA1101191100981MD1999999-0171MW1001REMSYN094AAXX  21004 84628 34459 01808 10163 20140 30098 40114 71022 866// 333 10192 563// 59017 88715;MET057SPIM 210000Z 19006KT 9000 BKN015 16/14 Q1012 NOSIG PP000;EQDQ01+000002SCOTCVQ02+000000PRSWM2Q03  00002PRCP99
0151846280999992000082719004-12000-077110FM-15+0013SPIM V0201901N005110048019N0070001N1+01801+01401999999ADDGA1081+004809999GF108991999999999999999999MA1101291999999MW1001REMMET057SPIM 271900Z 19010KT 7000 OVC016 18/14 Q1013 PPOOO NOSIG;EQDQ01+000000PRSWM2
0151846280999992000082904004-12000-077110FM-15+0013SPIM V0201801N002610066019N0060001N1+01601+01401999999ADDGA1081+006609999GF108991999999999999999999MA1101491999999MW1001REMMET057SPIM 290400Z 18005KT 6000 OVC022 16/14 Q1015 NOSIG PP000;EQDQ01+000000PRSWM2
0170846280999992000090708004-12000-077110FM-15+0013SPIM V02099999999990042019N0045001N1+01601+01401999999ADDGA1081+004209999GF108991999999999999999999MA1101291999999MW1101REMMET060SPIM 070800Z VRB02KT 4500 BR OVC014 16/14 Q1013 NOSIG PP000;EQDQ01+000003PRSWM1Q02    003PRSWM1
0329846280999992000090921004-12000-077110SY-MT+0013SPIM V0201701N004110066019N0100001N1+01771+01311101361ADDAA199000091AW1021AZ141031GA1021+004509999GA2081+006609999GF108991081051004501999999MA1101291101201MD1999999+0111MW1001REMSYN094AAXX  09214 84628 34460 81708 10177 20131 30120 40136 70244 885// 333 563// 58011 82715 88622;MET064SPIM 092100Z 17008KT 9999 FEW015 OVC022 18/13 Q1013 NOSIG PP000;EQDQ01+000000PRSWM2Q02  00002PRCP99
0203846280999992000091022004-12000-077110FM-15+0013SPIM V0201601N002110045019N0050001N1+01701+01401999999ADDGA1021+003009999GA2081+004509999GF108991999999999999999999MA1101291999999MW1101REMMET077SPIM 102200Z 16004KT 5000 BR SCT010 OVC015 17/14 Q1013 NOSIG PP000 TMAX 18.6;EQDQ01+000003PRSWM1Q02    003PRSWM1
0300846280999992000092206004-12000-077110SY-MT+0013SPIM V0201901N001510054019N0080001N1+01531+01341101301ADDAA199000091AW1101AZ141061GA1081+005409999GF108991081061004501999999MA1101291101141MD1999999-0161MW1001REMSYN088AAXX  22064 84628 34458 81903 10153 20134 30114 40130 71044 886// 333 563// 59016 88718;MET057SPIM 220600Z 19004KT 8000 OVC018 15/13 Q1013 PP000 NOSIG;EQDQ01+000000PRSWM2Q02  00002PRCP99
0151846280999992000092617004-12000-077110FM-15+0013SPIM V0202701N003112200019N0080001N1+01801+01401999999ADDGA1021+069009999GF104991999999999999999999MA1101491999999MW1001REMMET057SPIM 261700Z 27006KT 8000 SCT230 18/14 Q1015 NOSIG PP000;EQDQ01+000000PRSWM2
0322846280999992000092700004-12000-077110SY-MT+0013SPIM V0201901N003612200019N0035001N1+01571+01381101471ADDAA199000091AW1101AZ141061GA1021+039009999GF102991021001999999031999KA1240M+01961MA1101491101311MD1999999+0151MW1101REMSYN094AAXX  27004 84628 34935 21907 10157 20138 30131 40147 71044 8203/ 333 10196 5601/ 58015 82363;MET060SPIM 270000Z 19007KT 3500 BR FEW130 16/14 Q1015 NOSIG PP000;EQDQ01+000000PRSWM2Q02  00002PRCP99
0170846280999992000100202004-12000-077110FM-15+0013SPIM V0201701N006210039019N0050001N1+01701+01401999999ADDGA1081+003909999GF108991999999999999999999MA1101491999999MW1101REMMET060SPIM 020200Z 17012KT 5000 BR OVC013 17/14 Q1015 NOSIG PP000;EQDQ01+000003PRSWM1Q02    003PRSWM1
0184846280999992000100222004-12000-077110FM-15+0013SPIM V0201701N004110081019N0050001N1+01701+01401999999ADDGA1081+008109999GF108991999999999999999999MA1101691999999MW1101REMMET074SPIM 022200Z 17008KT 5000 BR OVC027 17/14 Q1017 NOSIG PP000 TEMP MAX 18.1;EQDQ01+000003PRSWM1Q02    003PRSWM1
0151846280999992000100323004-12000-077110FM-15+0013SPIM V0201801N005712200019N0080001N1+01701+01401999999ADDGA1021+081009999GF104991999999999999999999MA1101491999999MW1001REMMET057SPIM 032300Z 18011KT 8000 SCT270 17/14 Q1015 NOSIG PP000;EQDQ01+000000PRSWM2
0170846280999992000100614004-12000-077110FM-15+0013SPIM V0203001N002110021019N0035001N1+01601+01401999999ADDGA1081+002109999GF108991999999999999999999MA1101491999999MW1101REMMET060SPIM 061400Z 30004KT 3500 BR OVC007 16/14 Q1015 NOSIG PP000;EQDQ01+000003PRSWM1Q02    003PRSWM1
0260846280999992000100718004-12000-077110SY-MT+0013SPIM V0202001N004112200019N0100001N1+01951+01481101281ADDAA199000091AW1011AZ141061GF100991001001999999001001MA1101291101121MD1999999-0021MW1001REMSYN070AAXX  07184 84628 34960 02008 10195 20148 30112 40128 70144 333 59002;MET051SPIM 071800Z 20007KT CAVOK 20/15 Q1013 NOSIG PP000;EQDQ01+000000PRSWM2Q02  00002PRCP99
0300846280999992000101215004-12000-077110SY-MT+0013SPIM V0203001N002610045019N0080001N1+01731+01471101591ADDAA199000091AW1101AZ141031GA1081+004509999GF108991081061004501999999MA1101591101431MD1999999+0251MW1001REMSYN088AAXX  12154 84628 34458 83005 10173 20147 30143 40159 71044 886// 333 567// 58025 88715;MET057SPIM 121500Z 30005KT 8000 OVC015 17/15 Q1016 NOSIG PP000;EQDQ01+000000PRSWM2Q02  00002PRCP99
0156846280999992000101308004-12000-077110FM-15+0013SPIM V0202201N002110036019N0080001N1+01601+01401999999ADDGA1081+003609999GF108991999999999999999999MA1101291999999MW1001REMMET062SPIM 130800Z AUTO 22004KT 8000 OVC012 16/14 Q1013 NOSIG PP000;EQDQ01+000000PRSWM2
0151846280999992000101713004-12000-077110FM-15+0013SPIM V0202201N002110033019N0060001N1+01601+01401999999ADDGA1081+003309999GF108991999999999999999999MA1101391999999MW1001REMMET057SPIM 171300Z 22004KT 6000 OVC011 16/14 Q1014 NOSIG PP000;EQDQ01+000000PRSWM2
0329846280999992000102518004-12000-077110SY-MT+0013SPIM V0203201N001510054019N0060001N1+01801+01441101391ADDAA199000091AW1051AZ141061GA1021+003609999GA2081+005409999GF108991081061004501999999MA1101391101321MD1999999+0011MW1001REMSYN094AAXX  25184 84628 34456 83203 10180 20144 30132 40139 70544 886// 333 567// 58001 83712 88718;MET064SPIM 251800Z VRB03KT 6000 FEW012 OVC018 18/14 Q1014 NOSIG PP000;EQDQ01+000000PRSWM2Q02  00002PRCP99
0303846280999992000102606004-12000-077110SY-MT+0013SPIM V0209999C000012200019N0045001N1+01551+01431101341ADDAA199000091AW1101AZ141061GA1021+003009999GF102991021061999999999999MA1101291101181MD1999999+0011MW1101REMSYN088AAXX  26064 84628 34945 20000 10155 20143 30118 40134 71044 826// 333 564// 58001 82710;MET060SPIM 260600Z 00000KT 4500 BR FEW010 16/14 Q1013 NOSIG PP000;EQDQ01+000000PRSWM2Q02  00002PRCP99
0170846280999992000102808004-12000-077110FM-15+0013SPIM V02099999999990033019N0040001N1+01601+01401999999ADDGA1081+003309999GF108991999999999999999999MA1101391999999MW1101REMMET060SPIM 280800Z VRB03KT 4000 BR OVC011 16/14 Q1014 NOSIG PP000;EQDQ01+000003PRSWM1Q02    003PRSWM1
0174846280999992000102914004-12000-077110FM-15+0013SPIM V0201901N002610060019N0090001N1+01701+01401999999ADDGA1021+003909999GA2081+006009999GF108991999999999999999999MA1101491999999MW1001REMMET064SPIM 291400Z 19005KT 9000 FEW013 OVC020 17/14 Q1015 NOSIG PP000;EQDQ01+000000PRSWM2
0132846280999992000103105004-12000-077110FM-15+0013SPIM V0201701N002612200019N0070001N1+01601+01301999999ADDGF100991999999999999999999MA1101591999999MW1001REMMET054SPIM 310500Z 17005KT 7000 SKC 16/13 Q1016 NOSIG PP000;EQDQ01+000000PRSWM2
0132846280999992000110304004-12000-077110FM-15+0013SPIM V0201601N002612200019N0070001N1+01601+01401999999ADDGF100991999999999999999999MA1101391999999MW1001REMMET054SPIM 030400Z 16005KT 7000 SKC 16/14 Q1014 NOSIG PP000;EQDQ01+000000PRSWM2
0282846280999992000111400004-12000-077110SY-MT+0013SPIM V0201701N002612200019N0070001N1+01641+01441101451ADDAA199000091AW1101AZ141061GF100991001001999999001001KA1240M+01961MA1101391101291MD1999999+0111MW1001REMSYN076AAXX  14004 84628 34957 01705 10164 20144 30129 40145 71040 333 10196 58011;MET054SPIM 140000Z 17005KT 7000 SKC 16/14 Q1014 NOSIG PP000;EQDQ01+000000PRSWM2Q02  00002PRCP99
0300846280999992000112515004-12000-077110SY-MT+0013SPIM V0202001N003612200019N0100001N1+01941+01571101271ADDAA199000091AW1011AZ141031GA1021+003609999GF102991021061004501999999MA1101291101111MD1999999-0141MW1001REMSYN088AAXX  25154 84628 34460 22007 10194 20157 30111 40127 70142 826// 333 564// 59014 82712;MET057SPIM 251500Z 20007KT 9999 FEW012 19/16 Q1013 NOSIG PP000;EQDQ01+000000PRSWM2Q02  00002PRCP99
0174846280999992000120714004-12000-077110FM-15+0013SPIM V0201801N003110051019N0112651N1+02101+01701999999ADDGA1021+003609999GA2081+005109999GF108991999999999999999999MA1101391999999MW1001REMMET064SPIM 071400Z 18006KT 9999 SCT012 OVC017 21/17 Q1014 NOSIG PP000;EQDQ01+000000PRSWM2
0193846280999992000121120004-12000-077110FM-15+0013SPIM V0203301N002610090019N0080001N1+02001+01701999999ADDGA1021+003309999GA2081+009009999GF108991999999999999999999MA1101081999999MW1001REMMET083SPIM 112000Z 33005KT 8000 FEW011 OVC030 20/17 Q1011 NOSIG PP000 BIRD HAZARD RWY 15;EQDQ01+000000PRSWM2
0260846280999992000121421004-12000-077110SY-MT+0013SPIM V0201901N005112200019N0120001N1+02221+01851101331ADDAA199000091AW1001AZ101031GF100991001001999999001001MA1101291101171MD1999999-0021MW1001REMSYN070AAXX  14214 84628 34962 01910 10222 20185 30117 40133 70001 333 59002;MET051SPIM 142100Z 19010KT CAVOK 22/18 Q1013 NOSIG PP000;EQDQ01+000000PRSWM2Q02  00002PRCP99
0114846280999992000121722004-12000-077110FM-15+0013SPIM V0201601N00511220001CN0099001N1+02101+01801999999ADDMA1101191999999MW1001REMMET062SPIM 172200Z 16010KT CAVOK 21/18 Q1012 PP000 T.MAX 21.3 NOSIG;EQDQ01+000000PRSWM2
0151846280999992000121911004-12000-077110FM-15+0013SPIM V02099999999990069019N0112651N1+01901+01701999999ADDGA1081+006909999GF108991999999999999999999MA1101291999999MW1001REMMET057SPIM 191100Z VRB03KT 9999 OVC023 19/17 Q1013 PP000 NOSIG;EQDQ01+000000PRSWM2
0181846280999992000122622004-12000-077110FM-15+0013SPIM V0201801N004112200019N0112651N1+02201+01901999999ADDGA1021+002109999GF102991999999999999999999MA1101021999999MW1001REMMET087SPIM 262200Z 18008KT 9999 FEW007 22/19 Q1010 NOSIG PP000 T.MAX 25.1 BIRD HAZARD RWY-15;EQDQ01+000000PRSWM2
0329846280999992000122806004-12000-077110SY-MT+0013SPIM V0201701N003610390019N0090001N1+01991+01871101281ADDAA199000091AW1101AZ141061GA1021+002109999GA2071+039009999GF107991021061002501031999MA1101291101121MD1999999-0081MW1001REMSYN094AAXX  28064 84628 34359 71707 10199 20187 30112 40128 71044 8263/ 333 5643/ 59008 82707 85363;MET064SPIM 280600Z 17007KT 9000 FEW007 BKN130 20/19 Q1013 NOSIG PP000;EQDQ01+000000PRSWM2Q02  00002PRCP99
0223846580999992000011912004-12630-069200FM-12+026699999V0209999C000010012019N0020001N1+02341+02251101051ADDAA124018091GA1051+001209059GF108991081071001501999999KA1240N+02201MA1999999098781MD1999999-0081MW1631REMSYN110    AAXX  19124 84658 21220 80000 10234 20225 39878 40105 763// 887// 333 20220 569// 59008 60184 85504 83712;
0223846580999992000020818004-12630-069200FM-12+0266SPTU V0203101N003110048019N0120001N1+03131+02381100781ADDAA199000091AY121061AY221061GA1051+004809029GF105991051011004501999999MA1999999098581MD1999999-0151MW1031REMSYN088AAXX  08184 84658 31462 53106 10313 20238 39858 40078 70322 851// 333 569// 59015 85816;EQDQ01  00002PRCP99
0223846580999992000021918004-12630-069200FM-12+0266SPTU V0202301N002110045019N0120001N1+02931+02351100761ADDAA199000091AY121061AY221061GA1051+004509029GF105991051011004501999999MA1999999098551MD1999999-0071MW1011REMSYN088AAXX  19184 84658 31462 52304 10293 20235 39855 40076 70122 851// 333 560// 59007 85815;EQDQ01  00002PRCP99
0229846580999992000040618004-12630-069200FM-12+0266SPTU V0200901N00261045001CN0120001N1+03101+02281100981ADDAA199000091AY121061AY221061GA1031+006009089GF105991031021008001031001MA1999999098691MD1999999+0101MW1021REMSYN094AAXX  06184 84658 31562 50905 10310 20228 39869 40098 70222 83230 333 56220 58010 83820 82360;EQDQ01  00002PRCP99
0229846580999992000042000004-12630-069200FM-12+0266SPTU V0209999C00001045001CN0100001N1+02001+01861101041ADDAA199000021AY121061AY221061GA1031+006009069GF106991031051008001011999KA1240M+02601MA1999999098751MD1999999+0501MW1021REMSYN100AAXX  20004 84658 31560 60000 10200 20186 39875 40104 70222 8351/ 333 10260 5699/ 58050 83620 83460;
0231846580999992000042415004-12630-069200FM-12+0266SPTU V0209999C000012200019N0120001N1+02871+02221101141ADDAA199000091AY121031GA1041+075009019GF104991001001999999001021MA1999999098931MD1999999-0021MW1011REMSYN088AAXX  24154 84658 31962 40000 10287 20222 39893 40114 7012/ 84002 333 56000 59002 84075;EQDQ01+000042SCOTLCQ02  00002PRCP99
0229846580999992000050700004-12630-069200FM-12+0266SPTU V0200901N002610090019N0100001N1+01801+01641101191ADDAA199000021AY121061AY221061GA1051+009009069GF108991051051008001021999KA1240M+02701MA1999999098881MD1999999+0561MW1021REMSYN100AAXX  07004 84658 31560 80905 10180 20164 39888 40119 70222 8552/ 333 10270 5699/ 58056 85630 83460;
0223846580999992000051215004-12630-069200FM-12+0266SPTU V0202401N001512200019N0120001N1+02801+02251101141ADDAA199000091AY111031AY241031GA1021+006009029GF102991021011008001001001MA1999999098921MD1999999-0281MW1011REMSYN088AAXX  12154 84658 31562 22403 10280 20225 39892 40114 70114 82100 333 56500 59028 82820;EQDQ01  00002PRCP99
0224846580999992000052400004-12630-069200FM-12+0266SPTU V0209999C000012200019N0100001N1+02301+02091101131ADDAA199000091AY121061AY221061GA1001+999999999GF100991001001999999001001KA1240M+03301MA1999999098871MD1999999-0181MW1021REMSYN076AAXX  24004 84658 31960 00000 10230 20209 39887 40113 70222 333 10330 59018;EQDQ01  00002PRCP99
0242846580999992000083012004-12620-069190FM-12+0266SPTU V0209999C000010120019N0120001N1+02341+02201100801ADDAA199000091AY121061AY221061GA1081+012009059GF108991081021012501999999KA1240N+02321MA1999999098541MD1999999+0101MW1021REMSYN094AAXX  30124 84658 31662 80000 10234 20220 39854 40080 70222 882// 333 20232 56099 58010 88640;EQDQ01  00002PRCP99
0223846580999992000102318004-12620-069190FM-12+0266SPTU V0202601N006710060019N0120001N1+03501+02261100461ADDAA199000091AY101061AY201061GA1051+006009029GF105991051021008001999999MA1999999098311MD1999999-0041MW1031REMSYN088AAXX  23184 84658 31562 52613 10350 20226 39831 40046 70300 852// 333 565// 59004 85820;EQDQ01  00002PRCP99
0229846580999992000110118004-12620-069190FM-12+0266SPTU V0202401N004110060019N0120001N1+03001+02321100671ADDAA199000091AY121061AY221061GA1061+006009089GF108991061021008001021999MA1999999098471MD1999999+0261MW1021REMSYN094AAXX  01184 84658 31562 82408 10300 20232 39847 40067 70222 8622/ 333 5655/ 58026 86820 82460;EQDQ01  00002PRCP99
0202846730999992000050512004-13130-074220FM-12+2749SPHO V0209999C000012200019N0180001N1+01101+00921999999ADDAA199000091GA1001+999999999GF100991001001999999001001KA1240N+00201MA1999999073421MD1999999-0131MW1021REMSYN070AAXX  05124 84673 31968 00000 10110 20092 37342 702// 333 20020 59013;EQDQ01  00002PRCP99
0226846730999992000061012004-13130-074220FM-12+2749SPHO V0209999C00001045001CN0180001N1+01121+00841999999ADDAA199000091GA1031+015009089GF106991031051017501021999KA1240N+01011MA1999999073511MD1999999-0091MW1021REMSYN094AAXX  10124 84673 31768 60000 10112 20084 37351 702// 8352/ 333 20101 5600/ 59009 83850 83458;EQDQ01  00002PRCP99
0191846730999992000073015004-13120-074220FM-12+2749SPHO V0200401N001512200019N0180001N1+01551+00301999999ADDAA199000091AY101031GA1001+999999999GF100991001001999999001001MA1999999073641MD1999999-0031MW1021REMSYN064AAXX  30154 84673 31968 00403 10155 20030 37364 7020/ 333 59003;EQDQ01  00002PRCP99
0209846730999992000080915004-13120-074220FM-12+2749SPHO V0209999C000012200019N0180001N1+01821+00811999999ADDAA199000091AY121031GA1021+015009029GF102991021081017501999999MA1999999073781MD1999999+0171MW1011REMSYN082AAXX  09154 84673 31768 20000 10182 20081 37378 7012/ 828// 333 560// 58017 82850;EQDQ01  00002PRCP99
0226846730999992000082112004-13120-074220FM-12+2749SPHO V0209999C000010150019N0180001N1+00981+00931999999ADDAA199000091GA1051+015009089GF108991051081017501031999KA1240N+00891MA1999999073661MD1999999-0061MW1021REMSYN094AAXX  21124 84673 31768 80000 10098 20093 37366 702// 8583/ 333 20089 5600/ 59006 85850 83360;EQDQ01  00002PRCP99
0196846730999992000102512004-13120-074220FM-12+2749SPHO V0209999C00001045001CN0180001N1+99999+99999999999ADDGA1031+015009089GF106991021081017501031999KA1240N+01291MA1999999073181MD1999999-0101MW1021REMSYN094AAXX  25124 84673 /1768 60000 19150 20046 37318 702// 8283/ 333 20129 5600/ 59010 83850 83360;
0189846730999992000103112004-13120-074220FM-12+2749SPHO V0209999C000012200019N0180001N1+01321+01001999999ADDAA124019191GA1001+999999999GF100991001001999999001001KA1240N+00951MA1999999073451MD1999999+0061MW1021REMSYN076AAXX  31124 84673 21968 00000 10132 20100 37345 702// 333 20095 58006 60194;
0223846730999992000120818004-13120-074220FM-12+2749SPHO V0200401N00211045001CN0180001N1+02241+00811999999ADDAA199000091AY121061AY221061GA1031+015009089GF107991031081017501031999MA1999999073361MD1999999+0031MW1021REMSYN088AAXX  08184 84673 31768 70404 10224 20081 37336 70222 8383/ 333 5600/ 58003 83850 84360;EQDQ01  00002PRCP99
0342846860999992000010118004-13550-071980SY-MT+3249SPZO V0202701N002610180019N0120001N1+01651+00801999999ADDAA106000091AY141061AY221061GA1071+018009999GA2021+030009999GF108991051051017501011999MA1102101068501MD1999999-0041MW1021REMSYN088AAXX  01184 84686 31762 82705 10165 20080 36850 70242 8551/ 333 5699/ 59004 85656 83460;MET081SPZO 011800Z 27010KMH 9999 BKN060 SCT100 17/08 Q1021 PP000 PASOS ABIERTOS. NOSIG;EQDQ01  00002PRCP06Q02    003PRSWM1
0188846860999992000010605004-13550-071980FM-15+3249SPZO V0202601N003310120019N0050001N1+01101+00701999999ADDGA1021+009009999GA2071+012009999GF107991999999999999999999MA1102301999999MW1631REMMET062SPZO 060500Z 26012KMH 5000 RA SCT030 BKN040 11/07 Q1023 PP050;EQDQ01+000003PRSWM1Q02    003PRSWM1
0191846860999992000010817004-13550-071980FM-15+3249SPZO V0202601N003912200019N0112651N1+01501+00701999999ADDGA1021+012009999GA2021+015009999GF104991999999999999999999MA1102401999999MW1001REMMET081SPZO 081700Z 26014KMH 9999 SCT040 SCT050 15/07 Q1024 PP000 PASOS ABIERTOS. NOSIG;EQDQ01+000000PRSWM2
0205846860999992000010913004-13550-071980FM-15+3249SPZO V0209999C000010120019N0090001N1+01001+00501999999ADDGA1081+012009999GF108991999999999999999999MA1102511999999MW1001REMMET111SPZO 091300Z 00000KMH 9000 OVC040 10/05 Q1025 PP000 NOSIG PASOS ANTA/URCOS PARCIAL CERRADOS POR NUBOSIDAD BAJA;EQDQ01+000000PRSWM2
