0195107880999992000091500004+48820+012570FM-12+035999999V0202201N001012200019N0050001N1+01211+01201101751ADDAA199000091GA1041+027009079GF104991041001999999031001MA1999999097501MD1110011+9999REMSYN082AAXX  15004 10788 31950 42202 10121 20120 39750 40175 51001 84030 333 55300 84359;EQDQ01  00002PRCP99
0193107880999992000092620004+48820+012570FM-12+035999999V0201401N000512200019N0070001N1+01251+01191102181ADDAY101999AY201999GA1021+078009019GF102991001001999999001011MA1999999097921MD1010031+9999MW1101REMSYN088AAXX  26204 10788 41957 21401 10125 20119 39792 40218 50003 71000 80001 333 55300 82076;
0181107880999992000092807004+48820+012570FM-12+035999999V0201201N001510001519N0000001N1+01171+01171101581ADDAY141999AY241999GA1091+999999999GF109991091999999999999999MA1999999097331MD1610041+9999MW1471REMSYN076AAXX  28074 10788 41/00 91203 10117 20117 39733 40158 56004 74744 333 55300;
0199107880999992000093023004+48820+012570FM-12+035999999V0201301N002619999999N0300001N1+01631+01161100311ADDAY121999AY221999GA1031+030009039GF108991071001999999071999MA1999999096181MD1310011+9999MW1601REMSYN094AAXX  30234 10788 41980 81305 10163 20116 39618 40031 53001 76022 8707/ 333 55300 83360 87463;
0199107880999992000100711004+48820+012570FM-12+035999999V0203301N00151036001CN0030001N1+00711+00611102371ADDAY161999AY261999GA1041+003009079GF108991041071004501021999MA1999999098021MD1610031+9999MW1631REMSYN094AAXX  07114 10788 41430 83303 10071 20061 39802 40237 56003 76366 8472/ 333 55300 84710 88530;
0199107880999992000100803004+48820+012570FM-12+035999999V0202701N001010090019N0050001N1+00581+00571102361ADDAY161031AY221031GA1061+009009069GF108991061051008001071999MA1999999097991MD1810071+9999MW1211REMSYN094AAXX  08034 10788 41550 82702 10058 20057 39799 40236 58007 72162 8657/ 333 55300 86630 88358;
0309107880999992000100806004+48820+012570FM-12+035999999V0209999C00001007501CN0050001N1+00601+00591102381ADDAA112004191AA224019791AY161061AY221061GA1041+006009069GF108991081051008001999999GJ100009IA1119IA2999+00609KA1120M+00601KA2120N+00581MA1999999098011MD1210021+9999MW1101REMSYN130AAXX  08064 10788 11550 80000 10060 20059 39801 40238 52002 60042 71062 885// 333 10060 20058 32006 55000 55300 70197 84620 88634;
0223107880999992000101500004+48820+012570FM-12+035999999V0201901N001010420019N0040001N1+00921+00911101301ADDAA199000091AY121061AY221061GA1071+042009079GF107991071001999999031999MA1999999097021MD1610061+9999MW1101REMSYN088AAXX  15004 10788 31940 71902 10092 20091 39702 40130 56006 71022 8703/ 333 55300 87364;EQDQ01  00002PRCP99
0221107880999992000101807004+48820+012570FM-12+035999999V0202101N000510180019N0070001N1+00981+00971102551ADDAY161999AY221999GA1021+009009069GA2041+018009069GF107991051051008001021081MA1999999098231MD1310011+9999MW1211REMSYN100AAXX  18074 10788 41557 72101 10098 20097 39823 40255 53001 72162 85528 333 55300 82630 84656 86557;
0171107880999992000101814004+48820+012570FM-12+035999999V0201401N00051036001CN0230001N1+01311+00991102371ADDGA1041+004809089GF107991041021004501071999MA1999999098111MD1810121+9999REMSYN088AAXX  18144 10788 42473 71401 10131 20099 39811 40237 58012 8427/ 333 55300 84816 87360;
0165107880999992000110211004+48820+012570FM-12+035999999V0201201N002112200019N0600001N1+00961+00621100821ADDGA1021+033009079GF103991021001999999031021MA1999999096571MD1810171+9999REMSYN082AAXX  02114 10788 42986 31204 10096 20062 39657 40082 58017 82032 333 55310 82361;
0171107880999992000110610004+48820+012570FM-12+035999999V0201101N003610270019N0500001N1+00561+00261099351ADDGA1061+027009039GF108991061001999999071011MA1999999095111MD1810251+9999REMSYN088AAXX  06104 10788 42984 81107 10056 20026 39511 49935 58025 86071 333 55300 86359 87075;
0199107880999992000111207004+48820+012570FM-12+035999999V0201201N001012200019N0070001N1-00081-00091101901ADDAY101999AY201999GA1011+018009069GF104991011051017501031001MA1999999097441MD1810131+9999MW1101REMSYN094AAXX  12074 10788 41757 41202 11008 21009 39744 40190 58013 71000 81530 333 55301 81656 84363;
0193107880999992000111209004+48820+012570FM-12+035999999V0200901N001010390019N0550001N1+00141+00121101791ADDAY111031AY211031GA1061+039009079GF107991061001999999031021MA1999999097371MD1610121+9999MW1401REMSYN088AAXX  12094 10788 41985 70902 10014 20012 39737 40179 56012 74011 86032 333 55300 86363;
0171107880999992000111210004+48820+012570FM-12+035999999V0201401N001519999999N0300001N1+00401+00181101711ADDGA1041+039009039GF106991041001999999031021MA1999999097341MD1610101+9999REMSYN088AAXX  12104 10788 42980 61403 10040 20018 39734 40171 56010 84032 333 55307 84363 83075;
0171107880999992000111517004+48820+012570FM-12+035999999V0209999C000019999999N0120001N1+00601+00581101751ADDGA1011+030009039GF108991071001999999071999MA1999999097401MD1610011+9999REMSYN088AAXX  15174 10788 42962 80000 10060 20058 39740 40175 56001 8707/ 333 55300 81360 87465;
0193107880999992000111520004+48820+012570FM-12+035999999V0201901N001010390019N0070001N1+00471+00461101741ADDAY121999AY221999GA1071+039009019GF108991081001999999071999MA1999999097371MD1610031+9999MW1101REMSYN088AAXX  15204 10788 41957 81902 10047 20046 39737 40174 56003 71022 8807/ 333 55300 87463;
0221107880999992000111701004+48820+012570FM-12+035999999V0202801N00101036001CN0100001N1+00501+00491101131ADDAY161999AY221999GA1011+015009069GA2031+030009039GF108991011051017501071999MA1999999096791MD1610111+9999MW1601REMSYN100AAXX  17014 10788 41760 82802 10050 20049 39679 40113 56011 76062 8157/ 333 55300 81650 83360 88463;
0204107880999992000112012004+48820+012570FM-12+035999999V0201201N002110330019N0090001N1+00431+00411100751ADDAA199000021GA1041+003009069GA2051+033009039GF107991041051004501031021MA1999999096421MD1810051+9999REMSYN094AAXX  20124 10788 32459 71204 10043 20041 39642 40075 58005 84532 333 55300 84610 85361 87076;
0193107880999992000112416004+48820+012570FM-12+035999999V0202701N000510036019N0019001N1+00561+00561101181ADDAY161999AY221999GA1081+003609059GF108991081051004501999999MA1999999096851MD1110071+9999MW1211REMSYN088AAXX  24164 10788 41419 82701 10056 20056 39685 40118 51007 72162 885// 333 55300 88612;
0254107880999992000112418004+48820+012570FM-12+035999999V0202901N00051001201CN0020001N1+00591+00591101221ADDAA112000891AY161061AY221061GA1021+001509079GF108991081051001501999999KA1120M+00601KA2120N+00271MA1999999096891MD1110061+9999MW1611REMSYN112AAXX  24184 10788 11220 82901 10059 20059 39689 40122 51006 69972 76162 885// 333 10060 20027 55300 82705 88628;
0309107880999992000112606004+48820+012570FM-12+035999999V0201301N001510021019N0120001N1+00221+00211100501ADDAA112000391AA224000791AY161061AY221061GA1051+002109079GF108991081051002501999999GJ100009IA1119IA2999+00009KA1120M+00441KA2120N+00221MA1999999096151MD1810061+9999MW1611REMSYN130AAXX  26064 10788 11362 81303 10022 20021 39615 40050 58006 69932 76162 885// 333 10044 20022 32000 55000 55300 70007 85707 88623;
0181107880999992000120108004+48820+012570FM-12+035999999V0201201N001510001519N0001001N1+00261+00261102121ADDAY141999AY241999GA1091+999999999GF109991091999999999999999MA1999999097701MD1310011+9999MW1451REMSYN076AAXX  01084 10788 41/01 91203 10026 20026 39770 40212 53001 74544 333 55300;
0193107880999992000120207004+48820+012570FM-12+035999999V0201401N002110009019N0012001N1+00141+00141102371ADDAY121999AY221999GA1081+000909069GF108991081061001501999999MA1999999097921MD1310031+9999MW1101REMSYN088AAXX  02074 10788 41212 81404 10014 20014 39792 40237 53003 71022 886// 333 55300 88703;
0199107880999992000120319004+48820+012570FM-12+035999999V0200901N00101001201CN0030001N1+00331+00331102391ADDAY121999AY221999GA1031+001209079GF108991081061001501999999MA1999999097971MD1310071+9999MW1211REMSYN094AAXX  03194 10788 41230 80902 10033 20033 39797 40239 53007 72122 886// 333 55300 83704 88710;
0193107880999992000121421004+48820+012570FM-12+035999999V0202301N003110120019N0300001N1+00751+00351100691ADDAY161031AY221031GA1081+012009059GF108991081051012501999999MA1999999096411MD1710061+9999MW1601REMSYN088AAXX  14214 10788 41680 82306 10075 20035 39641 40069 57006 76062 885// 333 55300 88640;
0193107880999992000121422004+48820+012570FM-12+035999999V0202201N003110180019N0300001N1+00711+00371100651ADDAY161999AY261999GA1081+018009059GF108991081051017501999999MA1999999096371MD1810071+9999MW1601REMSYN088AAXX  14224 10788 41780 82206 10071 20037 39637 40065 58007 76066 885// 333 55300 88656;
0210107880999992000121500004+48820+012570FM-12+035999999V0202401N002610180019N0200001N1+00691+00351100521ADDAA106000191AY161061AY221061GA1081+018009059GF108991081051017501999999MA1999999096241MD1810171+9999MW1601REMSYN094AAXX  15004 10788 11770 82405 10069 20035 39624 40052 58017 69911 76062 885// 333 55300 88656;
0165107880999992000121920004+48820+012570FM-12+035999999V0200501N000510054019N0120001N1-00021-00121102611ADDGA1061+005409059GF106991061051004501001001MA1999999098131MD1110171+9999REMSYN082AAXX  19204 10788 42462 60501 11002 21012 39813 40261 51017 86500 333 55300 86618;
0221107880999992000122509004+48820+012570FM-12+035999999V0201001N00101036001CN0035001N1-00401-00621099781ADDAY161031AY221031GA1011+009009089GA2031+027009039GF108991011011008001071999MA1999999095361MD1510001+9999MW1031REMSYN100AAXX  25094 10788 41535 81002 11040 21062 39536 49978 55000 70362 8117/ 333 55300 81830 83359 88464;
0199108050999992000010103004+48370+007830FM-12+0156EDTL V0201901N001010096019N0026001N1+00291+00171102581ADDAY121031AY221031GA1071+009609069GF108991071051008001999999MA1999999100621MD1110011+9999MW1111REMSYN094AAXX  01034 10805 41526 81902 10029 20017 30062 40258 51001 71122 875// 333 55300 87632 96010;
0165108050999992000010109504+48370+007830FM-15+0156EDTL V0202001N004110105019N0112651N1+00401+00301999999ADDGA1021+003309999GA2071+010509999GF107991999999999999999999MA1102611999999MW1611REMMET055EDTL 0950Z 20008KT 9999 -RA FEW011 BKN035 04/03 Q1026 ;EQDQ01    003PRSWM1
0138108050999992000010221504+48370+007830FM-15+0156EDTL V0200601N001010027019N0070001N1+00201+00101999999ADDGA1071+002709999GF107991999999999999999999MA1103011999999MW1001REMMET044EDTL 2150Z 06002KT 7000 BKN009 02/01 Q1030 ;EQDQ01+000000PRSWM2
0138108050999992000010303504+48370+007830FM-15+0156EDTL V0202101N002110045019N0112651N1+00301+00101999999ADDGA1081+004509999GF108991999999999999999999MA1103011999999MW1001REMMET044EDTL 0350Z 21004KT 9999 OVC015 03/01 Q1030 ;EQDQ01+000000PRSWM2
0157108050999992000010800504+48370+007830FM-15+0156EDTL V0202001N002110099019N0040001N1+00601+00501999999ADDGA1071+009909999GF107991999999999999999999MA1102301999999MW1101REMMET047EDTL 0050Z 20004KT 4000 BR BKN033 06/05 Q1023 ;EQDQ01+000003PRSWM1Q02    003PRSWM1
0221108050999992000011023004+48370+007830FM-12+0156EDTL V0200101N000510090019N0120001N1+00231+00141103621ADDAY161999AY221999GA1021+002709079GA2051+009009069GF108991051051002501071999MA1999999101631MD1010031+9999MW1211REMSYN100AAXX  10234 10805 41362 80101 10023 20014 30163 40362 50003 72162 8557/ 333 55300 82709 85630 88358;
0139108050999992000011223504+48370+007830FM-15+0156EDTL V0201601N002110066019N0112651N1+00201-00201999999ADDGA1071+006609999GF107991999999999999999999MA1102511999999MW1001REMMET045EDTL 2350Z 16004KT 9999 BKN022 02/M02 Q1025 ;EQDQ01+000000PRSWM2
0120108050999992000011319504+48370+007830FM-15+0156EDTL V0201901N002112200019N0060001N1+00101-00101999999ADDGF100991999999999999999999MA1101901999999MW1001REMMET042EDTL 1950Z 19004KT 6000 SKC 01/M01 Q1019 ;EQDQ01+000000PRSWM2
0191108050999992000011401004+48370+007830FM-12+015699999V0201901N001012200019N0048001N1-00061-00181102041ADDAY101011AY201011GA1001+999999999GF100991001001999999001001MA1999999100061MD1510011+9999MW1101REMSYN086    AAXX  14014 10805 41948 01902 11006 21018 30006 40204 55001 71000 333 55300 92700;
0120108050999992000011416504+48370+007830FM-15+0156EDTL V0200301N002112200019N0080001N1+00201+00001999999ADDGF100991999999999999999999MA1102101999999MW1001REMMET042EDTL 1650Z 03004KT 8000 SKC 02/M00 Q1021 ;EQDQ01+000000PRSWM2
0159108050999992000011601504+48370+007830FM-15+0156EDTL V0200101N001010150019N0027001N1-00101-00201999999ADDGA1071+015009999GF107991999999999999999999MA1103181999999MW1101REMMET049EDTL 0150Z 01002KT 2700 BR BKN050 M01/M02 Q1032 ;EQDQ01+000003PRSWM1Q02    003PRSWM1
0197108050999992000011610004+48370+007830FM-12+015699999V0200301N002110114019N0070001N1+00021-00271103571ADDAY121011AY221011GA1061+011409059GF106991061051012501999999MA1999999101571MD1110111+9999MW1101REMSYN092    AAXX  16104 10805 41657 60304 10002 21027 30157 40357 51011 71022 865// 333 55300 86638;
0162108050999992000011914504+48370+007830FM-15+0156EDTL V0200301N001010150019N0112651N1+00401-00101999999ADDGA1021+007509999GA2071+015009999GF107991999999999999999999MA1102911999999MW1001REMMET052EDTL 1450Z 03002KT 9999 FEW025 BKN058 04/M01 Q1029 ;EQDQ01+000000PRSWM2
0248108050999992000012118004+48370+007830FM-12+0156EDTL V0202001N002610072019N0090001N1+00291+00061102791ADDAA112000791AY161061AY251061GA1071+007209059GF107991071051008001999999KA1120M+00431KA2120N+00191MA1999999100821MD1310031+9999MW1601REMSYN106AAXX  21184 10805 11559 72005 10029 20006 30082 40279 53003 69902 76065 875// 333 10043 20019 55300 87624;
0199108050999992000012211004+48370+007830FM-12+0156EDTL V0202301N00211009001CN0045001N1+00331+00181101551ADDAY161999AY251999GA1021+003309089GF107991071081004501999999MA1999999099611MD1610261+9999MW1591REMSYN094AAXX  22114 10805 41445 72304 10033 20018 39961 40155 56026 75965 878// 333 55300 82811 87622;
0165108050999992000013120004+48370+007830FM-12+0156EDTL V0201701N001012200019N0300001N1+00691+00451103001ADDGA1011+030009079GF101991011001999999031011MA1999999101061MD1010061+9999REMSYN082AAXX  31204 10805 42980 11702 10069 20045 30106 40300 50006 81031 333 55300 81360;
0090108050999992000020116504+48370+007830FM-15+0156EDTL V0209999C00001220001CN0099001N1+00901+00601999999ADDMA1101901999999MW1001REMMET038EDTL 1650Z 00000KT CAVOK 09/06 Q1019 ;EQDQ01+000000PRSWM2
0261108050999992000020118004+48370+007830FM-12+0156EDTL V0202001N001510720019N0400001N1+00871+00561101921ADDAA199000091GA1011+039009039GA2051+072009009GF105991011001999999031011KA1120M+01241KA2120N-00011MA1999999100021MD1610161+9999REMSYN106AAXX  01184 10805 32982 52003 10087 20056 30002 40192 56016 81031 333 10124 21001 55300 81363 85074 96211;EQDQ01  00002PRCP99
0190108050999992000020216204+48370+007830FM-15+0156EDTL V0202601N001010018019N0030001N1+00801+00701999999ADDGA1071+001809999GA2071+011409999GF107991999999999999999999MA1101901999999MW1101MW2611REMMET058EDTL 1620Z 26002KT 3000 -RA BR BKN006 BKN038 08/07 Q1019 ;EQDQ01+000003PRSWM1Q02    003PRSWM1
0212108050999992000020216504+48370+007830FM-15+0156EDTL V0203401N001010114019N0020001N1+00801+00701999999ADDGA1021+001509999GA2021+004209999GA3071+011409999GF107991999999999999999999MA1102001999999MW1101MW2631REMMET064EDTL 1650Z 34002KT 2000 RA BR SCT005 SCT014 BKN038 08/07 Q1020 ;EQDQ01+000003PRSWM1Q02    003PRSWM1
0221108050999992000020821004+48370+007830FM-12+0156EDTL V0202501N002610090019N0100001N1+01081+00991101321ADDAY161031AY261031GA1021+005409079GA2031+009009069GF108991071051004501999999MA1999999099441MD1310191+9999MW1631REMSYN100AAXX  08214 10805 41460 82505 10108 20099 39944 40132 53019 76366 875// 333 55300 82718 83630 86642;
0092108050999992000020922504+48370+007830FM-15+0156EDTL V0201901N00511220001CN0099001N1+00401+00101999999ADDMA1103011999999MW1001REMMET040EDTL 092250Z 19010KT CAVOK 04/01 Q1030 ;EQDQ01+000000PRSWM2
0165108050999992000021010004+48370+007830FM-12+0156EDTL V0201901N002610690019N0300001N1+00741+00151102691ADDGA1061+069009019GF106991001001999999001011MA1999999100761MD1810191+9999REMSYN082AAXX  10104 10805 42980 61905 10074 20015 30076 40269 58019 80001 333 55310 86073;
0183108050999992000021304504+48370+007830FM-15+0156EDTL V0201901N006210090019N0112651N1+00401+00101999999ADDGA1071+009009999GA2071+015009999GF107991999999999999999999MA1102301999999MW1611REMMET057EDTL 130450Z 19012KT 9999 -RA BKN030 BKN055 04/01 Q1023 ;EQDQ01+000003PRSWM1Q02    003PRSWM1
0162108050999992000021314504+48370+007830FM-15+0156EDTL V0202001N007210084019N0112651N1+00701+00401999999ADDGA1021+003609999GA2071+008409999GF107991999999999999999999MA1101901999999MW1001REMMET052EDTL 131450 20014KT 9999 FEW012 BKN028 07/04 Q1019 ;EQDQ01+000000PRSWM2
0199108050999992000021820004+48370+007830FM-12+0156EDTL V0201901N00261012001CN0300001N1+00741+00601100631ADDAY161999AY221999GA1011+012009069GF107991071051012501999999MA1999999098741MD1510001+9999MW1211REMSYN094AAXX  18204 10805 41680 71905 10074 20060 39874 40063 55000 72162 875// 333 55300 81640 86650;
0182108050999992000021909504+48370+007830FM-15+0156EDTL V0202501N007210078019N0112651N1+00601+00301999999ADDGA1021+005409999GA2071+007809999GF107991999999999999999999MA1100811999999MW1631REMMET056EDTL 190950Z 25014KT 9999 RA SCT018 BKN026 06/03 Q1008 ;EQDQ01+000003PRSWM1Q02    003PRSWM1
0094108050999992000022107504+48370+007830FM-15+0156EDTL V0201801N00211220001CN0099001N1-00201-00301999999ADDMA1103011999999MW1001REMMET042EDTL 210750Z 18004KT CAVOK M02/M03 Q1030 ;EQDQ01+000000PRSWM2
0187108050999992000022115504+48370+007830FM-15+0156EDTL V0201301N002110660019N0112651N1+00501-00201999999ADDGA1021+010509999GA2021+014709999GA3071+066009999GF107991999999999999999999MA1102811999999MW1001REMMET061EDTL 211550Z 13004KT 9999 FEW035 SCT049 BKN220 05/M02 Q1028 ;EQDQ01+000000PRSWM2
0165108050999992000022401004+48370+007830FM-12+0156EDTL V0202001N002110180019N0250001N1+00481-00051102921ADDGA1071+018009059GF107991071051017501999999MA1999999100961MD1110011+9999REMSYN082AAXX  24014 10805 42775 72004 10048 21005 30096 40292 51001 875// 333 55300 87656;
0199108050999992000022609004+48370+007830FM-12+0156EDTL V0200701N00051001201CN0023001N1+00361+00361103291ADDAY141031AY221031GA1041+001209079GF107991071051001501999999MA1999999101321MD1010021+9999MW1101REMSYN094AAXX  26094 10805 41223 70701 10036 20036 30132 40329 50002 71042 875// 333 55300 84704 87650;
0163108050999992000022908504+48370+007830FM-15+0156EDTL V0202001N006210360019N0112651N1+00901+00501999999ADDGA1021+006609999GA2071+036009999GF107991999999999999999999MA1101901999999MW1001REMMET053EDTL 290850Z 20012KT 9999 FEW022 BKN120 09/05 Q1019 ;EQDQ01+000000PRSWM2
0209108050999992000022911504+48370+007830FM-15+0156EDTL V0202101N005110390019N0080001N1+00901+00601999999ADDGA1021+004509999GA2021+009009029GA3081+039009999GF108991999999999999999999MA1101691999999MW1611REMMET067EDTL 291150Z 21010KT 8000 -RA FEW015 SCT030TCU OVC130 09/06 Q1017 ;EQDQ01+000003PRSWM1Q02    003PRSWM1
0199108050999992000022913004+48370+007830FM-12+0156EDTL V0202301N00151036001CN0100001N1+00801+00601101681ADDAY181011AY261011GA1011+002409089GF108991021081002501021999MA1999999099771MD1610251+9999MW1611REMSYN094AAXX  29134 10805 41360 82303 10080 20060 39977 40168 56025 76186 8282/ 333 55300 81808 87540;
0140108050999992000030202504+48370+007830FM-15+0156EDTL V0202901N002110126019N0112651N1+00401+00001999999ADDGA1081+012609999GF108991999999999999999999MA1101901999999MW1001REMMET046EDTL 020250Z 29004KT 9999 OVC042 04/00 Q1019 ;EQDQ01+000000PRSWM2
0171108050999992000030301004+48370+007830FM-12+0156EDTL V0201901N00311012001CN0250001N1+00491-00091102141ADDGA1021+014109069GF107991071051012501999999MA1999999100201MD1610221+9999REMSYN088AAXX  03014 10805 42675 71906 10049 21009 30020 40214 56022 875// 333 55300 82647 87656;
0199108050999992000030407004+48370+007830FM-12+0156EDTL V0202801N00211012001CN0160001N1+00351+00081101881ADDAY121011AY221011GA1031+007509089GF106991061081008001001011MA1999999099941MD1310381+9999MW1801REMSYN094AAXX  04074 10805 41566 62804 10035 20008 39994 40188 53038 78022 86801 333 55300 83825 83650;
0093108050999992000030422504+48370+007830FM-15+0156EDTL V0202001N00211220001CN0099001N1+00001-00101999999ADDMA1103121999999MW1001REMMET041EDTL 042250Z 20004KT CAVOK 00/M01 Q1031 ;EQDQ01+000000PRSWM2
0094108050999992000030503504+48370+007830FM-15+0156EDTL V0201801N00311220001CN0099001N1-00101-00401999999ADDMA1103181999999MW1001REMMET042EDTL 050350Z 18006KT CAVOK M01/M04 Q1032 ;EQDQ01+000000PRSWM2
0094108050999992000030604504+48370+007830FM-15+0156EDTL V0202101N00211220001CN0099001N1-00201-00501999999ADDMA1103291999999MW1001REMMET042EDTL 060450Z 21004KT CAVOK M02/M05 Q1033 ;EQDQ01+000000PRSWM2
0093108050999992000030708504+48370+007830FM-15+0156EDTL V0202001N00411220001CN0099001N1+00501-00101999999ADDMA1102811999999MW1001REMMET041EDTL 070850Z 20008KT CAVOK 05/M01 Q1028 ;EQDQ01+000000PRSWM2
0171108050999992000031017004+48370+007830FM-12+0156EDTL V0202201N00151012001CN0200001N1+01251+00571102681ADDGA1011+009009089GF107991071081008001999999MA1999999100781MD1610131+9999REMSYN088AAXX  10174 10805 42570 72203 10125 20057 30078 40268 56013 878// 333 55300 81830 87650;
0184108050999992000031505004+48370+007830FM-12+0156EDTL V0203001N001010240019N0250001N1+00421+00041102671ADDGA1071+024009079GF107991071999999999071999MA1999999100721MD1310191+9999REMSYN082AAXX  15054 10805 42975 73002 10042 20004 30072 40267 53019 8707/ 333 55300 87358;EQDQ01    003SCOLCG
0193108050999992000031710004+48370+007830FM-12+0156EDTL V0202401N001010099019N0060001N1+00801+00651102861ADDAY161011AY221011GA1071+009909059GF107991071051012501999999MA1999999100931MD1310031+9999MW1601REMSYN088AAXX  17104 10805 41656 72402 10080 20065 30093 40286 53003 76062 875// 333 55300 87633;
0165108050999992000032009004+48370+007830FM-12+0156EDTL V0200401N002612200019N0400001N1+00591+00061102821ADDGA1011+036009079GF102991011001999999031021MA1999999100881MD1810051+9999REMSYN082AAXX  20094 10805 42982 20405 10059 20006 30088 40282 58005 81032 333 55310 81362;
0092108050999992000032207504+48370+007830FM-15+0156EDTL V0202001N00211220001CN0099001N1+00601+00201999999ADDMA1102001999999MW1001REMMET040EDTL 220750Z 20004KT CAVOK 06/02 Q1020 ;EQDQ01+000000PRSWM2
0092108050999992000032313504+48370+007830FM-15+0156EDTL V0203601N00211220001CN0099001N1+01701+00501999999ADDMA1101291999999MW1001REMMET040EDTL 231350Z 36004KT CAVOK 17/05 Q1013 ;EQDQ01+000000PRSWM2
0163108050999992000032616504+48370+007830FM-15+0156EDTL V0201901N004110600019N0112651N1+01101+00301999999ADDGA1021+012009999GA2071+060009999GF107991999999999999999999MA1100811999999MW1001REMMET053EDTL 261650Z 19008KT 9999 FEW040 BKN200 11/03 Q1008 ;EQDQ01+000000PRSWM2
0193108050999992000032619004+48370+007830FM-12+0156EDTL V0201901N00151036001CN0400001N1+00991+00151100851ADDGA1011+018009069GA2031+024009039GF107991011051017501031021MA1999999098971MD1610061+9999REMSYN094AAXX  26194 10805 42782 71903 10099 20015 39897 40085 56006 81532 333 55300 81656 83358 85070;
0221108050999992000032813004+48370+007830FM-12+0156EDTL V0200301N001510132019N0050001N1+00771+00401101181ADDAY161011AY221011GA1031+004809089GA2071+013209069GF108991071081004501999999MA1999999099281MD1810031+9999MW1601REMSYN100AAXX  28134 10805 41450 80303 10077 20040 39928 40118 58003 76062 878// 333 55300 83816 87644 96010;
0165108050999992000040223004+48370+007830FM-12+0156EDTL V0202501N000510780019N0450001N1+01011+00001099691ADDGA1071+078009019GF107991001001999999001011MA1999999097831MD1610161+9999REMSYN082AAXX  02234 10805 42983 72501 10101 20000 39783 49969 56016 80001 333 55300 87076;
0092108050999992000040419504+48370+007830FM-15+0156EDTL V0200701N00101220001CN0099001N1+01001+00801999999ADDMA1099591999999MW1001REMMET040EDTL 041950Z 07002KT CAVOK 10/08 Q0996 ;EQDQ01+000000PRSWM2
0165108050999992000040815004+48370+007830FM-12+0156EDTL V0200201N002110780019N0350001N1+01571+00291101881ADDGA1061+078009019GF106991001001999999001021MA1999999100021MD1810311+9999REMSYN082AAXX  08154 10805 42981 60204 10157 20029 30002 40188 58031 80002 333 55310 86076;
0171108050999992000041102004+48370+007830FM-12+0156EDTL V0203501N00051036001CN0250001N1+00761+00231100201ADDGA1011+018009069GF106991011051017501031021MA1999999098311MD1810161+9999REMSYN088AAXX  11024 10805 42775 63501 10076 20023 39831 40020 58016 81532 333 55300 81656 85072;
0171108050999992000041302004+48370+007830FM-12+0156EDTL V0201901N00261036001CN0300001N1+00581+00341099981ADDGA1011+006909089GF107991011081008001031081MA1999999098091MD1010001+9999REMSYN088AAXX  13024 10805 42580 71905 10058 20034 39809 49998 50000 81838 333 55300 81823 86273;
0142108050999992000041517504+48370+007830FM-15+0156EDTL V0202401N005112200019N0112651N1+01301+00301999999ADDGA1021+009009099GF102991999999999999999999MA1100101999999MW1001REMMET048EDTL 151750Z 24010KT 9999 FEW030CB 13/03 Q1001 ;EQDQ01+000000PRSWM2
0165108050999992000042303004+48370+007830FM-12+0156EDTL V0201601N001510690019N0400001N1+01611+00951101011ADDGA1051+069009019GF105991001001999999001011MA1999999099171MD1110151+9999REMSYN082AAXX  23034 10805 42982 51603 10161 20095 39917 40101 51015 80001 333 55300 85073;
0254108050999992000042318004+48370+007830FM-12+0156EDTL V0202101N00101012001CN0080001N1+01411+01081101081ADDAA112000591AY161061AY221061GA1021+006609089GF108991071081008001999999KA1120M+02241KA2120N+01411MA1999999099221MD1110151+9999MW1631REMSYN112AAXX  23184 10805 11558 82102 10141 20108 39922 40108 51015 69952 76362 878// 333 10224 20141 55300 82822 87650;
0163108050999992000042416504+48370+007830FM-15+0156EDTL V0200301N001012200019N0112651N1+01501+00801999999ADDGA1021+012009999GA2021+021009999GF104991999999999999999999MA1101391999999MW1001REMMET053EDTL 241650Z 03002KT 9999 FEW040 SCT070 15/08 Q1014 ;EQDQ01+000000PRSWM2
0092108050999992000042508504+48370+007830FM-15+0156EDTL V0203101N00101220001CN0099001N1+01301+00901999999ADDMA1101391999999MW1001REMMET040EDTL 250850Z 31002KT CAVOK 13/09 Q1014 ;EQDQ01+000000PRSWM2
0165108050999992000042822004+48370+007830FM-12+0156EDTL V0201901N002110111019N0250001N1+01421+00951101161ADDGA1071+011109059GF107991071051012501999999MA1999999099301MD1110221+9999REMSYN082AAXX  28224 10805 42675 71904 10142 20095 39930 40116 51022 875// 333 55300 87637;
0163108050999992000042922504+48370+007830FM-15+0156EDTL V0202701N001010147019N0112651N1+01401+01101999999ADDGA1021+007509999GA2071+014709999GF107991999999999999999999MA1101901999999MW1001REMMET053EDTL 292250Z 27002KT 9999 SCT025 BKN049 14/11 Q1019 ;EQDQ01+000000PRSWM2
0092108050999992000043015504+48370+007830FM-15+0156EDTL V0203601N00411220001CN0099001N1+02201+01401999999ADDMA1101801999999MW1001REMMET040EDTL 301550Z 36008KT CAVOK 22/14 Q1018 ;EQDQ01+000000PRSWM2
0219108050999992000050216504+48370+007830FM-15+0156EDTL V0202001N002110090019N0112651N1+01701+01501999999ADDGA1021+006009999GA2071+009009099GA3071+036009999GF107991999999999999999999MA1101391999999MW1611REMMET077METAR EDTL 021650Z 20004KT 9999 -RA FEW020 BKN030CB BKN120 17/15 Q1014 RETS ;EQDQ01+000003PRSWM1Q02    003PRSWM1
0161108050999992000050321504+48370+007830FM-15+0156EDTL V0201301N002112200019N0112651N1+01501+01301999999ADDGA1021+033009999GF102991999999999999999999MA1101691999999MW1121REMMET051EDTL 032150Z 13004KT 9999 MIFG FEW110 15/13 Q1017 ;EQDQ01+000003PRSWM1Q02    003PRSWM1
0165108050999992000050508004+48370+007830FM-12+0156EDTL V0203301N000512200019N0300001N1+01611+01381101501ADDGA1011+033009079GF101991011001999999031011MA1999999099651MD1510001+9999REMSYN082AAXX  05084 10805 42980 13301 10161 20138 39965 40150 55000 81031 333 55310 81361;
0163108050999992000050604504+48370+007830FM-15+0156EDTL V0202301N002110750019N0112651N1+01201+01101999999ADDGA1021+013509999GA2071+075009999GF107991999999999999999999MA1101291999999MW1001REMMET053EDTL 060450Z 23004KT 9999 FEW045 BKN250 12/11 Q1013 ;EQDQ01+000000PRSWM2
0165108050999992000051014004+48370+007830FM-12+0156EDTL V0203401N001512200019N0250001N1+02601+01481101361ADDGA1011+018009029GF101991011021017501001001MA1999999099581MD1610161+9999REMSYN082AAXX  10144 10805 42775 13403 10260 20148 39958 40136 56016 81200 333 55310 81856;
0142108050999992000051112504+48370+007830FM-15+0156EDTL V0202501N002112200019N0112651N1+02701+01501999999ADDGA1021+015009099GF102991999999999999999999MA1101391999999MW1001REMMET048EDTL 111250Z 25004KT 9999 FEW050CB 27/15 Q1014 ;EQDQ01+000000PRSWM2
0254108050999992000051118004+48370+007830FM-12+0156EDTL V0201801N00051090001CN0250001N1+02391+01631101331ADDAA112000791AY191061AY281061GA1011+021009069GF105991011051022501081021KA1120M+02801KA2120N+01761MA1999999099531MD1510021+9999MW1011REMSYN112AAXX  11184 10805 11875 51801 10239 20163 39953 40133 55002 69902 70198 81582 333 10280 20176 55304 81657 84073;
0183108050999992000051500004+48370+007830FM-12+0156EDTL V0200501N000512200019N0350001N1+01321+01081102141ADDAA199000091GA1001+999999999GF100991001001999999001001MA1999999100261MD1010011+9999REMSYN070AAXX  15004 10805 32981 00501 10132 20108 30026 40214 50001 333 55300;EQDQ01  00002PRCP99
0165108050999992000051507004+48370+007830FM-12+0156EDTL V0202501N000512200019N0400001N1+01541+01081102141ADDGA1011+075009019GF101991001001999999001011MA1999999100281MD1210041+9999REMSYN082AAXX  15074 10805 42982 12501 10154 20108 30028 40214 52004 80001 333 55310 81075;
0142108050999992000051612504+48370+007830FM-15+0156EDTL V0202201N004112200019N0112651N1+02901+01301999999ADDGA1021+018009099GF102991999999999999999999MA1101491999999MW1001REMMET048EDTL 161250Z 22008KT 9999 FEW060CB 29/13 Q1015 ;EQDQ01+000000PRSWM2
0163108050999992000051805504+48370+007830FM-15+0156EDTL V0202101N002110690019N0112651N1+01301+01101999999ADDGA1021+003309999GA2071+069009999GF107991999999999999999999MA1101191999999MW1001REMMET053EDTL 180550Z 21004KT 9999 FEW011 BKN230 13/11 Q1012 ;EQDQ01+000000PRSWM2
0199108050999992000051923004+48370+007830FM-12+0156EDTL V0202901N002610090019N0080001N1+01111+00571101291ADDAY161999AY221999GA1021+005409089GF107991071081004501999999MA1999999099401MD1310131+9999MW1631REMSYN094AAXX  19234 10805 41458 72905 10111 20057 39940 40129 53013 76362 878// 333 55300 82818 87630;
0331108050999992000052206004+48370+007830FM-12+0156EDTL V0202201N00211012001CN0250001N1+00991+00731101591ADDAA112004191AA224004991AY161061AY221061GA1011+006609089GA2031+009609069GF107991061081008001031999GJ101689IA1099IA2999+00809KA1120M+01321KA2120N+00931MA1999999099701MD1310161+9999MW1011REMSYN136AAXX  22064 10805 11575 72204 10099 20073 39970 40159 53016 60042 70162 8683/ 333 10132 20093 31008 55028 55300 70049 81822 83632 85656;
0092108050999992000052420504+48370+007830FM-15+0156EDTL V0201201N00101220001CN0099001N1+01701+01201999999ADDMA1101391999999MW1001REMMET040EDTL 242050Z 12002KT CAVOK 17/12 Q1014 ;EQDQ01+000000PRSWM2
0092108050999992000052501504+48370+007830FM-15+0156EDTL V0202301N00211220001CN0099001N1+01301+01001999999ADDMA1101291999999MW1001REMMET040EDTL 250150Z 23004KT CAVOK 13/10 Q1013 ;EQDQ01+000000PRSWM2
0165108050999992000052615004+48370+007830FM-12+0156EDTL V0200201N001012200019N0300001N1+02321+01281101171ADDGA1011+018009029GF102991011021017501031021MA1999999099371MD1610271+9999REMSYN082AAXX  26154 10805 42780 20202 10232 20128 39937 40117 56027 81232 333 55310 81856;
0182108050999992000052700504+48370+007830FM-15+0156EDTL V0201901N005110270019N0080001N1+01701+01601999999ADDGA1021+012009999GA2081+027009999GF108991999999999999999999MA1101081999999MW1631REMMET056EDTL 270050Z 19010KT 8000 RA SCT040 OVC090 17/16 Q1011 ;EQDQ01+000003PRSWM1Q02    003PRSWM1
0163108050999992000052713504+48370+007830FM-15+0156EDTL V0201901N007212200019N0112651N1+01601+00901999999ADDGA1021+008409999GA2021+036009999GF104991999999999999999999MA1101801999999MW1001REMMET053EDTL 271350Z 19014KT 9999 FEW028 SCT120 16/09 Q1018 ;EQDQ01+000000PRSWM2
0171108050999992000052807004+48370+007830FM-12+0156EDTL V0202301N001010360019N0400001N1+01181+00901100861ADDGA1011+018009069GF107991011051017501071021MA1999999098991MD1610171+9999REMSYN088AAXX  28074 10805 42782 72302 10118 20090 39899 40086 56017 81572 333 55300 81656 85362;
0092108050999992000060222504+48370+007830FM-15+0156EDTL V0203001N00211220001CN0099001N1+01901+01501999999ADDMA1101901999999MW1001REMMET040EDTL 022250Z 30004KT CAVOK 19/15 Q1019 ;EQDQ01+000000PRSWM2
0186108050999992000060614504+48370+007830FM-15+0156EDTL V0203401N003110240019N0112651N1+01801+01101999999ADDGA1021+012009999GA2021+015009999GA3071+024009999GF107991999999999999999999MA1102101999999MW1001REMMET060EDTL 061450Z 34006KT 9999 SCT040 SCT050 BKN080 18/11 Q1021 ;EQDQ01+000000PRSWM2
0165108050999992000060905004+48370+007830FM-12+0156EDTL V0209999C000012200019N0350001N1+01401+01321101551ADDGA1011+018009059GF101991011051017501031001MA1999999099691MD1310031+9999REMSYN082AAXX  09054 10805 42781 10000 10140 20132 39969 40155 53003 81530 333 55301 81656;
0191108050999992000061113504+48370+007830FM-15+0156EDTL V0203501N003110054019N0038001N1+01901+01701999999ADDGA1021+003609999GA2081+005409999GF108991999999999999999999MA1101591999999MW1101MW2631REMMET059EDTL 111350Z 35006KT 3800 RA BR FEW012 OVC018 19/17 Q1016 ;EQDQ01+000003PRSWM1Q02    003PRSWM1
0092108050999992000061617504+48360+007820FM-15+0156EDTL V0200201N00311220001CN0099001N1+02001+00801999999ADDMA1102511999999MW1001REMMET040EDTL 161750Z 02006KT CAVOK 20/08 Q1025 ;EQDQ01+000000PRSWM2
0239108050999992000061618004+48360+007820FM-12+0156EDTL V0200201N00151220001CN0400001N1+02011+00791102511ADDAA199000091GA1011+018009089GF107991011041017501001011KA1120M+02131KA2120N+01501MA1999999100671MD1610061+9999REMSYN100AAXX  16184 10805 32782 70203 10201 20079 30067 40251 56006 81401 333 10213 20150 55310 81856 87080;EQDQ01  00002PRCP99
0092108050999992000061823504+48360+007820FM-15+0156EDTL V0202401N00211220001CN0099001N1+01501+01301999999ADDMA1102301999999MW1001REMMET040EDTL 182350Z 24004KT CAVOK 15/13 Q1023 ;EQDQ01+000000PRSWM2
0092108050999992000062000504+48360+007820FM-15+0156EDTL V0209999C00001220001CN0099001N1+01801+01301999999ADDMA1101801999999MW1001REMMET040EDTL 200050Z 00000KT CAVOK 18/13 Q1018 ;EQDQ01+000000PRSWM2
0165108050999992000062122004+48360+007820FM-12+0156EDTL V0201701N001512200019N0450001N1+02391+01051101561ADDGA1011+033009079GF101991011001999999031001MA1999999099761MD1110191+9999REMSYN082AAXX  21224 10805 42983 11703 10239 20105 39976 40156 51019 81030 333 55300 81361;
0221108050999992000062517004+48360+007820FM-12+0156EDTL V0201101N001010150019N0400001N1+01481+00991101991ADDAY181999AY221999GA1031+012009089GA2031+015009069GF107991051081012501031999MA1999999100121MD1110021+9999MW1251REMSYN100AAXX  25174 10805 41682 71102 10148 20099 30012 40199 51002 72582 8583/ 333 55300 83840 83650 86358;
0303108050999992000062606004+48360+007820FM-12+0156EDTL V0200201N001012200019N0250001N1+01251+01021102211ADDAA112000791AA224999929AY161061AY211061GA1011+006009029GF102991011081008001031011GJ101269IA1099IA2999+00809KA1120M+01601KA2120N+01021MA1999999100321MD1310071+9999MW1031REMSYN124AAXX  26064 10805 11575 20202 10125 20102 30032 40221 53007 69902 70361 81831 333 10160 20102 31008 55021 55309 79999 81820;
0165108050999992000062709004+48360+007820FM-12+0156EDTL V0200101N001512200019N0350001N1+01521+00781102301ADDGA1011+012009029GF101991011011012501001001MA1999999100431MD1810101+9999REMSYN082AAXX  27094 10805 42681 10103 10152 20078 30043 40230 58010 81100 333 55310 81840;
0140108050999992000063010504+48360+007820FM-15+0156EDTL V0203201N002112200019N0112651N1+02201+01101999999ADDGA1021+013509999GF102991999999999999999999MA1101591999999MW1001REMMET046EDTL 301050Z 32004KT 9999 FEW045 22/11 Q1016 ;EQDQ01+000000PRSWM2
0092108050999992000070216504+48360+007820FM-15+0156EDTL V0200301N00211220001CN0099001N1+02901+01901999999ADDMA1100711999999MW1001REMMET040EDTL 021650Z 03004KT CAVOK 29/19 Q1007 ;EQDQ01+000000PRSWM2
0092108050999992000070217504+48360+007820FM-15+0156EDTL V0203601N00311220001CN0099001N1+02801+01901999999ADDMA1100711999999MW1001REMMET040EDTL 021750Z 36006KT CAVOK 28/19 Q1007 ;EQDQ01+000000PRSWM2
0165108050999992000070402004+48360+007820FM-12+0156EDTL V0202501N000510300019N0350001N1+01721+01571100741ADDGA1071+030009079GF107991071001999999071999MA1999999098911MD1810101+9999REMSYN082AAXX  04024 10805 42981 72501 10172 20157 39891 40074 58010 8707/ 333 55300 87360;
0092108050999992000070423504+48360+007820FM-15+0156EDTL V0202001N00411220001CN0099001N1+01601+01301999999ADDMA1101291999999MW1001REMMET040EDTL 042350Z 20008KT CAVOK 16/13 Q1013 ;EQDQ01+000000PRSWM2
0309108050999992000070906004+48360+007820FM-12+0156EDTL V0202001N00211002101CN0130001N1+01311+01111101291ADDAA112002091AA224003591AY161061AY221061GA1011+002409079GF108991071051002501999999GJ101689IA1099IA2999+01209KA1120M+01741KA2120N+01211MA1999999099421MD1610181+9999MW1611REMSYN130AAXX  09064 10805 11363 82004 10131 20111 39942 40129 56018 60022 76162 875// 333 10174 20121 31012 55028 55300 70035 81708 85640;
0160108050999992000071001504+48360+007820FM-15+0156EDTL V0202101N006210108019N0112651N1+01601+01401999999ADDGA1071+010809999GF107991999999999999999999MA1099701999999MW1611REMMET050EDTL 100150Z 21012KT 9999 -RA BKN036 16/14 Q0997 ;EQDQ01+000003PRSWM1Q02    003PRSWM1
0188108050999992000071009504+48360+007820FM-15+0156EDTL V0202001N005110180019N0112651N1+01701+01401999999ADDGA1021+006009999GA2021+012009099GA3071+018009999GF107991999999999999999999MA1099801999999MW1001REMMET062EDTL 100950Z 20010KT 9999 SCT020 FEW040CB BKN060 17/14 Q0998 ;EQDQ01+000000PRSWM2
0216108050999992000071312004+48360+007820FM-12+0156EDTL V0202001N00261036001CN0450001N1+01691+00921101521ADDAA106000791AY161061AY221061GA1021+018009069GF108991021051017501071999MA1999999099681MD1710211+9999MW1021REMSYN100AAXX  13124 10805 11783 82005 10169 20092 39968 40152 57021 69901 70262 8257/ 333 55300 82656 87359;
0199108050999992000071502004+48360+007820FM-12+0156EDTL V0202301N00101012001CN0100001N1+01161+01091101011ADDAY161999AY261999GA1021+003309089GF108991081081008001999999MA1999999099141MD1510001+9999MW1631REMSYN094AAXX  15024 10805 41560 82302 10116 20109 39914 40101 55000 76366 888// 333 55300 82811 88628;
0184108050999992000071905004+48360+007820FM-12+0156EDTL V0209999C000012200019N0300001N1+01071+01071101941ADDGA1031+024009079GF104991031999999999031011MA1999999100051MD1310041+9999REMSYN082AAXX  19054 10805 42980 40000 10107 20107 30005 40194 53004 83031 333 55300 83358;EQDQ01    003SCOLCG
0165108050999992000072007004+48360+007820FM-12+0156EDTL V0200501N000512200019N0200001N1+01371+01161102161ADDGA1031+075009019GF103991001001999999001011MA1999999100281MD1110031+9999REMSYN082AAXX  20074 10805 42970 30501 10137 20116 30028 40216 51003 80001 333 55310 83075;
0092108050999992000072101504+48360+007820FM-15+0156EDTL V0200501N00201220001CN0099001N1+01301+01101999999ADDMA1102101999999MW1001REMMET040EDTL 210150Z 05002KT CAVOK 13/11 Q1021 ;EQDQ01+000000PRSWM2
0092108050999992000072102504+48360+007820FM-15+0156EDTL V0209999C00001220001CN0099001N1+01201+01101999999ADDMA1102101999999MW1001REMMET040EDTL 210250Z 00000KT CAVOK 12/11 Q1021 ;EQDQ01+000000PRSWM2
0153108050999992000072104004+48360+007820FM-12+0156EDTL V0209999C000012200019N0150001N1+01121+01041102191ADDGA1001+999999999GF100991001001999999001001MA1999999100291MD1310011+9999REMSYN070AAXX  21044 10805 42965 00000 10112 20104 30029 40219 53001 333 55300;
0199108050999992000072409004+48360+007820FM-12+0156EDTL V0201901N00311036001CN0300001N1+02131+01681100721ADDAY161031AY221031GA1011+009009089GF107991011021008001041021MA1999999098921MD1010001+9999MW1031REMSYN094AAXX  24094 10805 42580 71906 10213 20168 39892 40072 50000 70362 81242 333 55305 81830 86360;
0188108050999992000072509504+48360+007820FM-15+0156EDTL V0202701N003112200019N0112651N1+02101+01401999999ADDGA1021+010209029GA2021+033009999GF104991999999999999999999MA1100811999999MW1801REMMET062EDTL 250950Z 27006KT 9999 -SHRA SCT034TCU SCT110 21/14 Q1008 ;EQDQ01+000003PRSWM1Q02    003PRSWM1
0298108050999992000072518004+48360+007820FM-12+0156EDTL V0200401N000510600019N0500001N1+02321+01561100781ADDAA112002091AY181061AY221061GA1011+012009089GA2031+033009039GA3051+060009009GF107991011021012501071021KA1120M+02581KA2120N+01651MA1999999098991MD1110071+9999MW1011REMSYN124AAXX  25184 10805 11684 70401 10232 20156 39899 40078 51007 60022 70182 81272 333 10258 20165 55306 81840 83361 85070 96480;
0193108050999992000072520004+48360+007820FM-12+0156EDTL V0201501N000510330019N0450001N1+01991+01491100831ADDGA1021+010509089GA2041+033009039GF107991021021012501031021MA1999999099011MD1110041+9999REMSYN094AAXX  25204 10805 42683 71501 10199 20149 39901 40083 51004 82232 333 55301 82835 84361 86072;
0092108050999992000072621504+48360+007820FM-15+0156EDTL V0202301N00101220001CN0099001N1+01501+01501999999ADDMA1101491999999MW1001REMMET040EDTL 262150Z 23002KT CAVOK 15/15 Q1015 ;EQDQ01+000000PRSWM2
0210108050999992000072712504+48360+007820FM-15+0156EDTL V0202201N002110300019N0112651N1+02401+01501999999ADDGA1021+006909999GA2021+009009029GA3071+030009999GF107991999999999999999999MA1101491999999MW1161REMMET068EDTL 271250Z 22004KT 9999 VCSH FEW023 FEW030TCU BKN100 24/15 Q1015 ;EQDQ01+000003PRSWM1Q02    003PRSWM1
0109108050999992000072901504+48360+007820FM-15+0156EDTL V0201901N99999220001CN0099001N1+01401+01301999999ADDMA1101691999999MW1001REMMET041EDTL 290150Z 190052KT CAVOK 14/13 Q1017 ;EQDQ01+002683WOSPD Q02+000000PRSWM2
0195108050999992000080112004+48360+007820FM-12+0156EDTL V0202101N001512200019N0400001N1+02641+01491101971ADDAA199000091GA1011+013509029GF101991011011012501001001MA1999999100181MD1710141+9999REMSYN082AAXX  01124 10805 32682 12103 10264 20149 30018 40197 57014 81100 333 55310 81845;EQDQ01  00002PRCP99
0193108050999992000080422004+48360+007820FM-12+0156EDTL V0200201N000510240019N0400001N1+01501+01381102141ADDGA1021+015009069GA2041+024009039GF107991021041017501071999MA1999999100271MD1310091+9999REMSYN094AAXX  04224 10805 42782 70201 10150 20138 30027 40214 53009 8247/ 333 55300 82650 84358 86362;
0140108050999992000080909504+48360+007820FM-15+0156EDTL V0200301N001012200019N0112651N1+02201+01701999999ADDGA1021+006909999GF102991999999999999999999MA1102101999999MW1001REMMET046EDTL 090950Z 03002KT 9999 FEW023 22/17 Q1021 ;EQDQ01+000000PRSWM2
0195108050999992000081300004+48360+007820FM-12+0156EDTL V0201001N000512200019N0250001N1+01721+01581101671ADDAA199000091GA1011+036009079GF101991011001999999031001MA1999999099821MD1110101+9999REMSYN082AAXX  13004 10805 32975 11001 10172 20158 39982 40167 51010 81030 333 55300 81362;EQDQ01  00002PRCP99
0092108050999992000081302504+48360+007820FM-15+0156EDTL V0202601N00101220001CN0099001N1+01501+01401999999ADDMA1101591999999MW1001REMMET040EDTL 130250Z 26002KT CAVOK 15/14 Q1016 ;EQDQ01+000000PRSWM2
0165108050999992000081313004+48360+007820FM-12+0156EDTL V0200501N001512200019N0350001N1+02811+01611101671ADDGA1011+014409029GF101991011021012501001021MA1999999099891MD1810051+9999REMSYN082AAXX  13134 10805 42681 10503 10281 20161 39989 40167 58005 81202 333 55310 81848;
0165108050999992000081515504+48360+007820FM-15+0156EDTL V0203001N004112200019N0112651N1+02701+01801999999ADDGA1021+013509099GA2021+018009999GF104991999999999999999999MA1101901999999MW1001REMMET055EDTL 151550Z 30008KT 9999 FEW045CB SCT060 27/18 Q1019 ;EQDQ01+000000PRSWM2
0092108050999992000081617504+48360+007820FM-15+0156EDTL V0201701N00211220001CN0099001N1+02801+01401999999ADDMA1101391999999MW1001REMMET040EDTL 161750Z 17004KT CAVOK 28/14 Q1014 ;EQDQ01+000000PRSWM2
0092108050999992000081709504+48360+007820FM-15+0156EDTL V0202001N00311220001CN0099001N1+02601+01801999999ADDMA1101391999999MW1001REMMET040EDTL 170950Z 20006KT CAVOK 26/18 Q1014 ;EQDQ01+000000PRSWM2
0186108050999992000081804504+48360+007820FM-15+0156EDTL V0202301N001010114019N0023001N1+01801+01801999999ADDGA1021+001209999GA2071+011409099GF107991999999999999999999MA1101491999999MW1101MW2801MW3951REMMET064EDTL 180450Z 23002KT 2300 -TSRA BR FEW004 BKN038CB 18/18 Q1015 ;EQDQ01+000003PRSWM1
0165108050999992000081908004+48360+007820FM-12+0156EDTL V0201701N002110390019N0400001N1+02381+01671101441ADDGA1051+039009079GF106991051001999999031011MA1999999099641MD1110171+9999REMSYN082AAXX  19084 10805 42982 61704 10238 20167 39964 40144 51017 85031 333 55305 85363;
0165108050999992000081910004+48360+007820FM-12+0156EDTL V0202101N002612200019N0400001N1+02711+01481101471ADDGA1021+039009079GF103991021001999999031011MA1999999099691MD1210061+9999REMSYN082AAXX  19104 10805 42982 32105 10271 20148 39969 40147 52006 82031 333 55309 82363;
0162108050999992000082810504+48360+007820FM-15+0156EDTL V0202301N002112200019N0112651N1+02001+01201999999ADDGA1021+009609999GA2021+014409999GF104991999999999999999999MA1102101999999MW1001REMMET052EDTL 281050Z 23004KT 9999 FEW032 SCT048 20/12 Q1021;EQDQ01+000000PRSWM2
0171108050999992000082916004+48360+007820FM-12+0156EDTL V0203501N00151090001CN0500001N1+02291+01121101871ADDGA1011+015009089GF105991011021017501031011MA1999999100061MD1610101+9999REMSYN088AAXX  29164 10805 42784 53503 10229 20112 30006 40187 56010 81231 333 55310 81850 84077;
0221108050999992000090705004+48360+007820FM-12+0156EDTL V0202001N00101036001CN0070001N1+01191+01171101441ADDAY161999AY211999GA1011+006009089GA2031+045009039GF105991031081008001031021MA1999999099561MD1310081+9999MW1111REMSYN100AAXX  07054 10805 41557 52002 10119 20117 39956 40144 53008 71161 83832 333 55300 81820 83365 96211;
0165108050999992000090720004+48360+007820FM-12+0156EDTL V0209999C000012200019N0350001N1+01271+01001102091ADDGA1011+042009079GF102991011001999999041021MA1999999100201MD1310231+9999REMSYN082AAXX  07204 10805 42981 20000 10127 20100 30020 40209 53023 81042 333 55300 81364;
0162108050999992000091305504+48360+007820FM-15+0156EDTL V0202001N003112200019N0112651N1+01801+01501999999ADDGA1021+009009999GA2021+010209999GF104991999999999999999999MA1101291999999MW1001REMMET052EDTL 130550Z 20006KT 9999 FEW030 SCT034 18/15 Q1013;EQDQ01+000000PRSWM2
0091108050999992000091416504+48360+007820FM-15+0156EDTL V0200401N00211220001CN0099001N1+02301+01601999999ADDMA1101491999999MW1001REMMET039EDTL 141650Z 04004KT CAVOK 23/16 Q1015;EQDQ01+000000PRSWM2
0185108050999992000092107504+48360+007820FM-15+0156EDTL V0202101N003110150019N0112651N1+01301+01201999999ADDGA1021+002409999GA2021+010809999GA3071+015009999GF107991999999999999999999MA1101391999999MW1001REMMET059EDTL 210750Z 21006KT 9999 FEW008 SCT036 BKN050 13/12 Q1014;EQDQ01+000000PRSWM2
0305108050999992000092606004+48360+007820FM-12+0156EDTL V0201701N000510003019N0003001N1+01211+01201102241ADDAA124000491AY141061AY211061GA1081+000309069GF108991081061000251999999GJ100429IA1099IA2999+00909KA1120M+01731KA2120N+01021MA1999999100351MD1510011+9999MW1421REMSYN118AAXX  26064 10805 31003 81701 10121 20120 30035 40224 55001 74341 886// 333 10173 20102 31009 55007 55300 70004 88701;EQDQ01+000432PRSWM1
0162108050999992000093012504+48360+007820FM-15+0156EDTL V0200101N001010150019N0112651N1+01701+01401999999ADDGA1021+010809999GA2071+015009999GF107991999999999999999999MA1100511999999MW1001REMMET052EDTL 301250Z 01002KT 9999 SCT036 BKN050 17/14 Q1005;EQDQ01+000000PRSWM2
0185108050999992000100107504+48360+007820FM-15+0156EDTL V0202201N003110150019N0112651N1+01501+01401999999ADDGA1021+002409999GA2021+007509999GA3071+015009999GF107991999999999999999999MA1100811999999MW1001REMMET059EDTL 010750Z 22006KT 9999 FEW008 SCT025 BKN050 15/14 Q1008;EQDQ01+000000PRSWM2
0183108050999992000100123504+48360+007820FM-15+0156EDTL V0201701N002110180019N0112651N1+01301+01301999999ADDGA1021+010509999GA2071+018009999GF107991999999999999999999MA1100711999999MW1121REMMET057EDTL 012350Z 17004KT 9999 MIFG FEW035 BKN060 13/13 Q1007;EQDQ01+000003PRSWM1Q02    003PRSWM1
0239108050999992000100918004+48360+007820FM-12+0156EDTL V0201401N001512200019N0400001N1+01021+00811100881ADDAA112000591GA1011+024009079GF101991011999022501031011KA1120M+01451KA2120N+01021MA1999999099001MD1810261+9999REMSYN100AAXX  09184 10805 12882 11403 10102 20081 39900 40088 58026 69952 81031 333 10145 20102 55300 81358;EQDQ01    003SCOLCG
0102108050999992000101014504+48360+007820FM-15+0156EDTL V0202101N00821220001CN0099001N1+01301+00401999999ADDMA1099901999999MW1001OC101341REMMET042EDTL 101450Z 21016G26KT CAVOK 13/04 Q0999;EQDQ01+000000PRSWM2
0193108050999992000101423004+48360+007820FM-12+0156EDTL V0209999C000010015019N0035001N1+01181+01171101361ADDAY121999AY221999GA1081+001509069GF108991081061001501999999MA1999999099481MD1810121+9999MW1101REMSYN088AAXX  14234 10805 41235 80000 10118 20117 39948 40136 58012 71022 886// 333 55300 88705;
0165108050999992000101611004+48360+007820FM-12+0156EDTL V0201801N002612200019N0750001N1+01801+00931101091ADDGA1011+010509029GF102991011011012501041011MA1999999099261MD1110071+9999REMSYN082AAXX  16114 10805 42689 21805 10180 20093 39926 40109 51007 81141 333 55310 81835;
0222108050999992000102000004+48360+007820FM-12+0156EDTL V0202701N000510001519N0003001N1+01141+01131102271ADDAA106001091AY161061AY241061GA1091+000159999GF109991091999999999999999MA1999999100371MD1510051+9999MW1471REMSYN106AAXX  20004 10805 11/03 92701 10114 20113 30037 40227 55005 69991 74764 333 55300 89/00 96210 96458 96459;
0193108050999992000102014004+48360+007820FM-12+0156EDTL V0200501N001010021019N0045001N1+01351+01351101961ADDAY121999AY221999GA1061+002109069GF107991071061002501999999MA1999999100081MD1610171+9999MW1101REMSYN088AAXX  20144 10805 41345 70502 10135 20135 30008 40196 56017 71022 876// 333 55300 86707;
0157108050999992000102021504+48360+007820FM-15+0156EDTL V0201801N00101000151CN0003001N1+01001+01001999999ADDGA1091+000159999GF109991999999000251999999MA1101901999999MW1451REMMET047EDTL 202150Z 18002KT 0300 FG VV/// 10/10 Q1019;EQDQ01+000003PRSWM1Q02    003PRSWM1
0157108050999992000102123504+48360+007820FM-15+0156EDTL V0201901N00211000151CN0001501N1+01001+01001999999ADDGA1091+000159999GF109991999999000251999999MA1102811999999MW1451REMMET047EDTL 212350Z 19004KT 0150 FG VV/// 10/10 Q1028;EQDQ01+000003PRSWM1Q02    003PRSWM1
0199108050999992000102611004+48360+007820FM-12+0156EDTL V0200501N00101009001CN0200001N1+01131+01021101781ADDAY121999AY221999GA1041+004509089GF108991071081004501999999MA1999999099891MD1310291+9999MW1251REMSYN094AAXX  26114 10805 41470 80502 10113 20102 39989 40178 53029 72522 878// 333 55300 84815 87646;
0171108050999992000102822004+48360+007820FM-12+0156EDTL V0202301N001019999999N0300001N1+00801+00701101401ADDGA1021+033009039GF107991021001999999031011MA1999999099501MD1310041+9999REMSYN088AAXX  28224 10805 42980 72302 10080 20070 39950 40140 53004 82031 333 55300 82361 86073;
0091108050999992000103004504+48360+007820FM-15+0156EDTL V0201801N00511220001CN0099001N1+01101+00501999999ADDMA1101021999999MW1001REMMET039EDTL 300450Z 18010KT CAVOK 11/05 Q1010;EQDQ01+000000PRSWM2
0165108050999992000110209004+48360+007820FM-12+0156EDTL V0201901N001512200019N0500001N1+01291+00561100511ADDGA1031+027009079GF103991031001999999031001MA1999999098661MD1810071+9999REMSYN082AAXX  02094 10805 42984 31903 10129 20056 39866 40051 58007 83030 333 55310 83359;
0254108050999992000110218004+48360+007820FM-12+0156EDTL V0201901N003110150019N0350001N1+01411+00521100061ADDAA112000791AY161061AY221061GA1071+015009069GF107991071051017501999999KA1120M+01741KA2120N+00991MA1999999098221MD1310011+9999MW1031REMSYN112AAXX  02184 10805 11781 71906 10141 20052 39822 40006 53001 69902 70362 875// 333 10174 20099 55300 87650 91116;
0158108050999992000110219504+48360+007820FM-15+0156EDTL V0202501N008210102019N0060001N1+01101+00901999999ADDGA1071+010209999GF107991999999999999999999MA1100201999999MW1631REMMET048EDTL 021950Z 25016KT 6000 RA BKN034 11/09 Q1002;EQDQ01+000003PRSWM1Q02    003PRSWM1
0309108050999992000110306004+48360+007820FM-12+0156EDTL V0203601N00051009001CN0080001N1+00911+00901099931ADDAA112005192AA224004692AY161061AY221061GA1021+005409089GF108991071081004501999999GJ102889IA1119IA2999+00609KA1120M+01421KA2120N+00871MA1999999098061MD1810141+9999MW1611REMSYN130AAXX  03064 10805 11458 83601 10091 20090 39806 49993 58014 60052 76162 878// 333 10142 20087 32006 55048 55300 70046 82818 87643;
0221108050999992000110313004+48360+007820FM-12+0156EDTL V0202001N001510075019N0250001N1+00901+00841100201ADDAY121011AY221011GA1011+003609089GA2051+007509069GF108991071081004501999999MA1999999098331MD1310061+9999MW1211REMSYN100AAXX  03134 10805 41475 82003 10090 20084 39833 40020 53006 72122 878// 333 55300 81812 85625 87650;
0173108050999992000110721504+48360+007820FM-15+0156EDTL V0202101N008212200019N0112651N1+01001+00301999999ADDGA1021+012009999GA2021+027009999GF104991999999999999999999MA1099191999999MW1001OC101751REMMET055EDTL 072150Z 21016G34KT 9999 FEW040 SCT090 10/03 Q0992;EQDQ01+000000PRSWM2
0091108050999992000110801504+48360+007820FM-15+0156EDTL V0202101N00821220001CN0099001N1+01001+00301999999ADDMA1099291999999MW1001REMMET039EDTL 080150Z 21016KT CAVOK 10/03 Q0993;EQDQ01+000000PRSWM2
0139108050999992000110906504+48360+007820FM-15+0156EDTL V0202001N006210120019N0112651N1+00901+00501999999ADDGA1071+012009999GF107991999999999999999999MA1100711999999MW1001REMMET045EDTL 090650Z 20012KT 9999 BKN040 09/05 Q1007;EQDQ01+000000PRSWM2
0165108050999992000111102004+48360+007820FM-12+0156EDTL V0201601N000510180019N0250001N1+00511+00401102581ADDGA1071+018009059GF107991071051017501999999MA1999999100631MD1010021+9999REMSYN082AAXX  11024 10805 42775 71601 10051 20040 30063 40258 50002 875// 333 55300 87656;
0091108050999992000111701504+48360+007820FM-15+0156EDTL V0201801N00101220001CN0099001N1+00501+00301999999ADDMA1101191999999MW1001REMMET039EDTL 170150Z 18002KT CAVOK 05/03 Q1012;EQDQ01+000000PRSWM2
0162108050999992000111813504+48360+007820FM-15+0156EDTL V0202101N004110150019N0112651N1+00801+00301999999ADDGA1021+010509999GA2071+015009999GF107991999999999999999999MA1101591999999MW1001REMMET052EDTL 181350Z 21008KT 9999 FEW035 BKN050 08/03 Q1016;EQDQ01+000000PRSWM2
0181108050999992000111917504+48360+007820FM-15+0156EDTL V0201901N004110048019N0050001N1+00801+00701999999ADDGA1071+004809999GA2081+015009999GF108991999999999999999999MA1100001999999MW1631REMMET055EDTL 191750Z 19008KT 5000 RA BKN016 OVC057 08/07 Q1000;EQDQ01+000003PRSWM1Q02    003PRSWM1
0091108050999992000112008504+48360+007820FM-15+0156EDTL V0201901N00311220001CN0099001N1+00701+00401999999ADDMA1100411999999MW1001REMMET039EDTL 200850Z 19006KT CAVOK 07/04 Q1004;EQDQ01+000000PRSWM2
0091108050999992000112208504+48360+007820FM-15+0156EDTL V0202101N00101220001CN0099001N1+00901+00601999999ADDMA1101021999999MW1001REMMET039EDTL 220850Z 21002KT CAVOK 09/06 Q1010;EQDQ01+000000PRSWM2
0092108050999992000112823504+48360+007820FM-15+0156EDTL V0201701N00311220001CN0099001N1+00901+00901999999ADDMA1101491999999MW1001REMMET040EDTL 282350Z 17006KT CAVOK 09/09 Q10150;EQDQ01+000000PRSWM2
0227108050999992000120111004+48360+007820FM-12+0156EDTL V0202501N000510660019N0020001N1+00531+00521101791ADDAY141999AY221999GA1021+000609079GA2051+066009009GF105991021061000751001021MA1999999099861MD1810011+9999MW1281REMSYN106AAXX  01114 10805 41120 52501 10053 20052 39986 40179 58001 72842 82602 333 55301 82702 85072 96010 96246;
0181108050999992000120116504+48360+007820FM-15+0156EDTL V0201901N001010660019N0042001N1+00701+00701999999ADDGA1021+030009999GA2071+066009999GF107991999999999999999999MA1101491999999MW1101REMMET055EDTL 011650Z 19002KT 4200 BR SCT100 BKN220 07/07 Q1015;EQDQ01+000003PRSWM1Q02    003PRSWM1
0182108050999992000120800504+48360+007820FM-15+0156EDTL V0202301N001010270019N0112651N1+00901+00801999999ADDGA1021+018009999GA2081+027009999GF108991999999999999999999MA1100511999999MW1611REMMET056EDTL 080050Z 23002KT 9999 -RA FEW060 OVC090 09/08 Q1005;EQDQ01+000003PRSWM1Q02    003PRSWM1
0193108050999992000121002004+48360+007820FM-12+0156EDTL V0202001N00211036001CN0400001N1+00801+00461101901ADDGA1031+027009039GA2011+030009069GF106991011051017501031011MA1999999099991MD1710011+9999REMSYN094AAXX  10024 10805 42782 62004 10080 20046 39999 40190 57001 81531 333 55300 81660 83359 85074;
0171108050999992000121310004+48360+007820FM-12+0156EDTL V0201901N002610150019N0500001N1+01221+00741102241ADDGA1051+015009069GF107991051051017501001011MA1999999100351MD1110141+9999REMSYN088AAXX  13104 10805 42784 71905 10122 20074 30035 40224 51014 85501 333 55300 85650 85072;
0205108050999992000121407504+48360+007820FM-15+0156EDTL V0202001N005110135019N0112651N1+01001+00501999999ADDGA1021+009909999GA2071+013509999GA3071+015009999GF107991999999999999999999MA1101291999999MW1611REMMET063EDTL 140750Z 20010KT 9999 -RA FEW033 BKN045 BKN059 10/05 Q1013;EQDQ01+000003PRSWM1Q02    003PRSWM1
0171108050999992000121513004+48360+007820FM-12+0156EDTL V0202501N002610360019N0500001N1+00691+00211100911ADDGA1011+006009089GF106991041081008001041021MA1999999099011MD1010031+9999REMSYN088AAXX  15134 10805 42584 62505 10069 20021 39901 40091 50003 84842 333 55304 81820 83070;
0157108050999992000121920504+48360+007820FM-15+0156EDTL V0200101N00311000151CN0004001N1+00601+00601999999ADDGA1091+000159999GF109991999999000251999999MA1102001999999MW1451REMMET047EDTL 192050Z 01006KT 0400 FG VV/// 06/06 Q1020;EQDQ01+000003PRSWM1Q02    003PRSWM1
0199108050999992000122513004+48360+007820FM-12+0156EDTL V0203301N00051006001CN0033001N1+00401+00351099521ADDAY161011AY221011GA1021+002109089GF108991071081000751999999MA1999999097621MD1610071+9999MW1611REMSYN094AAXX  25134 10805 41133 83301 10040 20035 39762 49952 56007 76162 878// 333 55300 82807 87622;
0091108050999992000122700504+48360+007820FM-15+0156EDTL V0201801N00211220001CN0099001N1+00501+00501999999ADDMA1098981999999MW1001REMMET039EDTL 270050Z 18004KT CAVOK 05/05 Q0990;EQDQ01+000000PRSWM2
0091108050999992000122718504+48360+007820FM-15+0156EDTL V0201901N00101220001CN0099001N1+00501+00401999999ADDMA1099091999999MW1001REMMET039EDTL 271850Z 19002KT CAVOK 05/04 Q0991;EQDQ01+000000PRSWM2
0199108050999992000122721004+48360+007820FM-12+0156EDTL V0203101N00051015001CN0400001N1+00471+00471099271ADDAY161031AY221031GA1011+015009069GF107991071051017501999999MA1999999097381MD1110141+9999MW1211REMSYN094AAXX  27214 10805 41782 73101 10047 20047 39738 49927 51014 72162 875// 333 55300 81650 87356;
0193108050999992000123023004+48360+007820FM-12+0156EDTL V0202001N002610078019N0130001N1+00061-00211101471ADDAY171999AY271999GA1081+007809059GF108991081051008001999999MA1999999099511MD1110271+9999MW1711REMSYN088AAXX  30234 10805 41563 82005 10006 21021 39951 40147 51027 77177 885// 333 55300 88626;
0210108050999992000123100004+48360+007820FM-12+0156EDTL V0202001N002610069019N0100001N1+00051-00191101541ADDAA106000791AY171061AY221061GA1081+006909059GF108991081051008001999999MA1999999099581MD1110261+9999MW1711REMSYN094AAXX  31004 10805 11560 82005 10005 21019 39958 40154 51026 69901 77172 885// 333 55300 88623;
0145108270999992000010105054+48180+009000FM-15+0920ETGZ V0202601N002110030019N0112651N1-00101-00301999999ADDGA1021+000609999GA2071+003009999GF107991999999999999999999MA1102101999999MW1001REMMET054ETGZ 010505Z 26004KT 9999 FEW002 BKN010 M01/M03 Q1021;
0152108270999992000010300004+48180+009000FM-12+0920ETGZ V0201801N001012200019N0150001N1-00241-00461999999ADDGA1001+999999999GF100991001001999999001001MA1999999091901MD1410001+9999ME1315449REMSYN060AAXX  03004 10827 42965 01802 11024 21046 39190 48544 54000;
0185108270999992000010409324+48180+009000FM-16+0920ETGZ V0202201N003610003019N0008001N1-00101-00201999999ADDGA1071+000309999GA2071+060009999GF107991999999999999999999MA1102101999999MW1481REMMET059ETGZ 040932Z 22007KT 0800 FZFG BKN001 BKN200 M01/M02 Q1021;EQDQ01+000003PRSWM1Q02    003PRSWM1
0092108270999992000010605204+48180+009000FM-15+0920ETGZ V0201901N002112200019N0080001N1+99999+99999999999ADDMA1101801999999MW1001REMMET040ETGZ 060520Z 19004KT 8000 M01/M02 Q1018;EQDQ01+000000PRSWM2
0224108270999992000010911004+48180+009000FM-12+0920ETGZ V0202101N000510042019N0050001N1+00341+00211999999ADDAY161999AY261999GA1031+000159079GA2061+004209069GF108991061051000251071999MA1999999091191MD1110051+9999ME1314959MW1631REMSYN094AAXX  09114 10827 41050 82101 10034 20021 39119 48495 51005 76366 8657/ 333 83700 86614 88460;
0196108270999992000011010004+48180+009000FM-12+0920ETGZ V0203501N000510009019N0018001N1-00031-00111999999ADDAY171999AY241999GA1081+000909069GF108991081071001501999999MA1999999092011MD1110201+9999ME1315589MW1711REMSYN082AAXX  10104 10827 41218 83501 11003 21011 39201 48558 51020 77174 887// 333 88703;
0092108270999992000011513204+48180+009000FM-15+0920ETGZ V0200801N003612200019N0112651N1+99999+99999999999ADDMA1102511999999MW1001REMMET040ETGZ 151320Z 08007KT 9999 M00/M05 Q1025;EQDQ01+000000PRSWM2
0141108270999992000011617204+48180+009000FM-15+0920ETGZ V0200101N001012200019N0112651N1-00601-00901999999ADDGA1021+003009999GF102991999999999999999999MA1102911999999MW1001REMMET047ETGZ 161720Z 01002KT 9999 FEW010 M06/M09 Q1029;EQDQ01+000000PRSWM2
0169108270999992000011819204+48180+009000FM-15+0920ETGZ V0203501N00571000151CN0010001N1+00001-00101999999ADDGA1091+000159999GF109991999999000251999999MA1101901999999MW1101MW2711REMMET053ETGZ 181920Z 35011KT 1000 -SN BR VV002 M00/M01 Q1019;EQDQ01+000003PRSWM1Q02    003PRSWM1
0198108270999992000011900094+48180+009000FM-15+0920ETGZ V0203501N005110015019N0016001N1-00301-00401999999ADDGA1021+000909999GA2071+001509999GF107991999999999999999999MA1102001999999MW1101MW2731REMMET066METAR ETGZ 190009Z 35010KT 1600 SN BR SCT003 BKN005 M03/M04 Q1020;EQDQ01+000003PRSWM1Q02    003PRSWM1
0202108270999992000011917004+48180+009000FM-12+0920ETGZ V0203201N00051006001CN0060001N1-00341-00611999999ADDAY181999AY281999GA1021+001509089GF108991081081001501999999MA1999999091811MD1310111+9999ME1315349MW1851REMSYN088AAXX  19174 10827 41256 83201 11034 21061 39181 48534 53011 78588 888// 333 82805 84815;
0207108270999992000012010204+48180+009000FM-15+0920ETGZ V0202901N001010027019N0060001N1-00201-00401999999ADDGA1021+000159999GA2071+002709999GA3071+005409999GF107991999999999999999999MA1102711999999MW1771REMMET065ETGZ 201020Z 29002KT 6000 -SG FEW000 BKN009 BKN018 M02/M04 Q1027;EQDQ01+000003PRSWM1Q02    003PRSWM1
0202108270999992000012113004+48180+009000FM-12+0920ETGZ V0202801N003110015019N0140001N1-00151-00361999999ADDAY171999AY271999GA1071+001509069GF108991081051001501999999MA1999999091391MD1810141+9999ME1315029MW1771REMSYN088AAXX  21134 10827 41264 82806 11015 21036 39139 48502 58014 77777 885// 333 87605 91111;
0190108270999992000012201004+48180+009000FM-12+0920ETGZ V0203301N001010003019N0015001N1-00131-00241999999ADDAY171011AY271011GA1091+000309999GF109991091999999999999999MA1999999091281MD1810111+9999ME1314949MW1731REMSYN076AAXX  22014 10827 41/15 93302 11013 21024 39128 48494 58011 77377 333 89/01;
0294108270999992000012214004+48180+009000FM-12+0920ETGZ V0202801N003110054019N0160001N1-00121-00381999999ADDAY171999AY271999GA1041+002409089GA2051+005409069GA3071+030009049GF108991061081002501011999MA1999999089951MD1610391+9999ME1313789MW1781REMSYN148AAXX  22144 10827 41366 82806 11012 21038 38995 48378 56039 77877 8681/ 333 84808 85618 87460 91011 555 BOT 01003 10002 20008 30005 40023 999 48///;
0196108270999992000012420004+48180+009000FM-12+0920ETGZ V0200901N001012200019N0060001N1-01431-01491999999ADDAY101999AY201999GA1021+001209029GF103991031011001501031001MA1999999091111MD1210111+9999ME1314539MW1101REMSYN082AAXX  24204 10827 41256 30902 11143 21149 39111 48453 52011 71000 83130 333 82804;
0092108270999992000012721204+48180+009000FM-15+0920ETGZ V0202701N003612200019N0112651N1+99999+99999999999ADDMA1102301999999MW1001REMMET040ETGZ 272120Z 27007KT 9999 M05/M10 Q1023;EQDQ01+000000PRSWM2
0164108270999992000012802204+48180+009000FM-15+0920ETGZ V0202701N003612200019N0112651N1-00401-00701999999ADDGA1021+006009999GA2021+060009999GF104991999999999999999999MA1102201999999MW1001REMMET054ETGZ 280220Z 27007KT 9999 FEW020 SCT200 M04/M07 Q1022;EQDQ01+000000PRSWM2
0164108270999992000012807204+48180+009000FM-15+0920ETGZ V0202801N004110600019N0112651N1-00201-00601999999ADDGA1021+005109999GA2071+060009999GF107991999999999999999999MA1102001999999MW1001REMMET054ETGZ 280720Z 28008KT 9999 FEW017 BKN200 M02/M06 Q1020;EQDQ01+000000PRSWM2
0168108270999992000012820004+48180+009000FM-12+0920ETGZ V0202601N002110150019N0120001N1-00091-00531999999ADDGA1051+015009059GF105991051051017501031001MA1999999090991MD1810051+9999ME1314709REMSYN076AAXX  28204 10827 42762 52604 11009 21053 39099 48470 58005 85530 333 85650;
0247108270999992000012911004+48180+009000FM-12+0920ETGZ V0202501N005110012019N0015001N1+00101-00171999999ADDAY171999AY231999GA1021+000159079GA2071+001209089GF108991071071000251999999MA1999999090231MD1810111+9999ME1314079MW1731OA149901081REMSYN106AAXX  29114 10827 41015 82510 10010 21017 39023 48407 58011 77373 877// 333 82700 87804 91020 91121 91211;
0230108270999992000012920004+48180+009000FM-12+0920ETGZ V0202401N004610021019N0100001N1+00311+00051999999ADDAY161999AY261999GA1051+002109089GA2071+003609069GF107991071081002501999999MA1999999090141MD1010001+9999ME1314039MW1611REMSYN100AAXX  29204 10827 41360 72409 10031 20005 39014 48403 50000 76166 878// 333 85807 87612 91015 91116;
0182108270999992000013008204+48180+009000FM-15+0920ETGZ V0202701N007710024019N0060001N1+00401+00201999999ADDGA1071+002409999GA2071+006609999GF107991999999999999999999MA1101191999999MW1611REMMET056ETGZ 300820Z 27015KT 6000 -RA BKN008 BKN022 04/02 Q1012;EQDQ01+000003PRSWM1Q02    003PRSWM1
0185108270999992000013115204+48180+009000FM-15+0920ETGZ V0202701N003610123019N0112651N1+00501+00101999999ADDGA1021+004509999GA2021+008409999GA3071+012309999GF107991999999999999999999MA1102711999999MW1001REMMET059ETGZ 311520Z 27007KT 9999 SCT015 SCT028 BKN041 05/01 Q1027;EQDQ01+000000PRSWM2
0168108270999992000020203004+48180+009000FM-12+0920ETGZ V0202701N003112200019N0400001N1+00571-00061999999ADDGA1021+060009019GF102991001001999999001021MA1999999090991MD1810131+9999ME1314829REMSYN076AAXX  02034 10827 42982 22706 10057 21006 39099 48482 58013 80002 333 82070;
0294108270999992000020214004+48180+009000FM-12+0920ETGZ V0202301N001010240019N0120001N1+00481+00201999999ADDAY161999AY261999GA1011+004509089GA2061+024009039GA3081+030009049GF108991021081004501071999MA1999999090851MD1710131+9999ME1314699MW1611REMSYN148AAXX  02144 10827 41462 82302 10048 20020 39085 48469 57013 76166 8287/ 333 81815 86358 88460 555 BOT 00032 10030 20018 30007 40018 999 31/// 4////;
0163108270999992000020310204+48180+009000FM-15+0920ETGZ V0202801N004112200019N0112651N1+00201-00201999999ADDGA1021+003009999GA2021+010509999GF104991999999999999999999MA1103011999999MW1001REMMET053ETGZ 031020Z 28008KT 9999 SCT010 SCT035 02/M02 Q1030;EQDQ01+000000PRSWM2
0168108270999992000020402004+48180+009000FM-12+0920ETGZ V0203001N001010090019N0250001N1-00111-00551999999ADDGA1051+009009059GF105991051051008001001001MA1999999092571MD1810041+9999ME1316049REMSYN076AAXX  04024 10827 42575 53002 11011 21055 39257 48604 58004 85500 333 85630;
0169108270999992000020907204+48180+009000FM-15+0920ETGZ V0202601N00461000151CN0013001N1-00101-00401999999ADDGA1091+000159999GF109991999999000251999999MA1101801999999MW1851MW2881REMMET053ETGZ 090720Z 26009KT 1300 SHGSSN VV003 M01/M04 Q1018;EQDQ01+000003PRSWM1Q02    003PRSWM1
0092108270999992000021122204+48180+009000FM-15+0920ETGZ V0201001N002612200019N0112651N1+99999+99999999999ADDMA1102401999999MW1001REMMET040ETGZ 112220Z 10005KT 9999 M04/M06 Q1024;EQDQ01+000000PRSWM2
0141108270999992000021203204+48180+009000FM-15+0920ETGZ V0201101N000510036019N0112651N1-00401-00601999999ADDGA1071+003609999GF107991999999999999999999MA1102201999999MW1001REMMET047ETGZ 120320Z 11001KT 9999 BKN012 M04/M06 Q1022;EQDQ01+000000PRSWM2
0196108270999992000021322004+48180+009000FM-12+0920ETGZ V0203201N001510009019N0025001N1+00001-00171999999ADDAY171999AY241999GA1071+000909069GF108991071071001501999999MA1999999091261MD1210151+9999ME1314959MW1711REMSYN082AAXX  13224 10827 41225 83203 10000 21017 39126 48495 52015 77174 877// 333 87703;
0160108270999992000021403204+48180+009000FM-15+0920ETGZ V0203001N001010012019N0022001N1-00101-00301999999ADDGA1071+001209999GF107991999999999999999999MA1102001999999MW1101REMMET050ETGZ 140320Z 30002KT 2200 BR BKN004 M01/M03 Q1020;EQDQ01+000003PRSWM1Q02    003PRSWM1
0174108270999992000021413004+48180+009000FM-12+0920ETGZ V0203401N001012200019N0400001N1+00421-00021999999ADDGA1011+002109089GF104991041081002501031001MA1999999091381MD1810041+9999ME1315149REMSYN082AAXX  14134 10827 42382 43402 10042 21002 39138 48514 58004 84830 333 81807 83810;
0174108270999992000021517004+48180+009000FM-12+0920ETGZ V0202701N00261009001CN0250001N1+00351-00021999999ADDGA1031+004209089GF106991061081004501001001MA1999999090781MD1710121+9999ME1314609REMSYN082AAXX  15174 10827 42475 62705 10035 21002 39078 48460 57012 86800 333 83814 86634;
0202108270999992000021519004+48180+009000FM-12+0920ETGZ V0202801N00211006001CN0300001N1+00241-00061999999ADDAY151999AY251999GA1031+002109089GF107991071081002501999999MA1999999090701MD1710111+9999ME1314519MW1511REMSYN088AAXX  15194 10827 41380 72804 10024 21006 39070 48451 57011 75155 878// 333 83807 87621;
0215108270999992000021608104+48180+009000FM-15+0920ETGZ V0203001N006210012019N0040001N1-00101-00301999999ADDGA1071+001209999GA2071+004509999GF107991999999999999999999MA1100201999999MW1101MW2711OC101341REMMET075METAR ETGZ 160810Z 30012G26KT 4000 -SN BR BKN004 BKN015 M01/M03 Q1002 RESN;EQDQ01+000003PRSWM1Q02    003PRSWM1
0344108270999992000021818004+48180+009000FM-12+0920ETGZ V0202601N001510018019N0050001N1+00211-00041999999ADDAA112001091AJ100109199999999AY171061AY231061GA1021+000909079GA2051+001809089GA3071+004809069GF108991081081001501999999IA1289KA1120M+00201KA2120N-00441MA1999999089741MD1610061+9999ME1313659MW1681REMSYN138AAXX  18184 10827 11250 82603 10021 21004 38974 48365 56006 60012 76873 888// 333 10020 21044 44010 82703 85806 87616 555 50022 999 02508;
0190108270999992000021819004+48180+009000FM-12+0920ETGZ V0202101N001010001519N0006001N1+00071-00151999999ADDAY171999AY251999GA1091+000159999GF109991091999999999999999MA1999999089711MD1810051+9999ME1313619MW1471REMSYN076AAXX  18194 10827 41/06 92102 10007 21015 38971 48361 58005 74775 333 89/00;
0272108270999992000021907004+48180+009000FM-12+0920ETGZ V0202801N002110015019N0040001N1+00031-00191999999ADDAY171011AY271011GA1071+001509089GA2061+004209069GF107991071081001501999999MA1999999089711MD1210021+9999ME1313609MW1711REMSYN142AAXX  19074 10827 41240 72804 10003 21019 38971 48360 52002 77177 878// 333 87805 86614 555 BOT 00002 10006 20010 30007 40024 50036 999 44///;
0188108270999992000022114204+48180+009000FM-15+0920ETGZ V0202301N001510048019N0050001N1+00101-00601999999ADDGA1021+003009999GA2071+004809029GF107991999999999999999999MA1102611999999MW1851REMMET062ETGZ 211420Z 23003KT 5000 -SHSN FEW010 BKN016TCU 01/M06 Q1026;EQDQ01+000003PRSWM1Q02    003PRSWM1
0201108270999992000022410594+48180+009000FM-16+0920ETGZ V0202301N004610021019N0040001N1+00101-00401999999ADDGA1071+002109999GA2071+008109999GF107991999999999999999999MA1102511999999MW1731REMMET059ETGZ 241059Z 23009KT 4000 SN BR BKN007 BKN027 01/M04 Q1025;EQDQ01+000100PRSWM3Q02+000003PRSWM1Q03    003PRSWM1
0152108270999992000022709004+48180+009000FM-12+0920ETGZ V0201801N001012200019N0150001N1+00511+00161999999ADDGA1001+999999999GF100991001001999999001001MA1999999091921MD1210101+9999ME1315639REMSYN060AAXX  27094 10827 42965 01802 10051 20016 39192 48563 52010;
0202108270999992000022903004+48180+009000FM-12+0920ETGZ V0202901N001510012019N0045001N1+00271+00051999999ADDAY161031AY261031GA1061+001209079GF108991081051001501999999MA1999999091321MD1810051+9999ME1315069MW1681REMSYN088AAXX  29034 10827 41245 82903 10027 20005 39132 48506 58005 76866 885// 333 86704 88610;
0272108270999992000022914004+48180+009000FM-12+0920ETGZ V0202301N003110018019N0090001N1+00381+00121999999ADDAY161031AY261031GA1011+000159089GA2071+001809089GF108991071071000251999999MA1999999090701MD1710271+9999ME1314549MW1611REMSYN142AAXX  29144 10827 41059 82306 10038 20012 39070 48454 57027 76166 877// 333 81800 87806 555 BOT 00050 10044 20044 30032 40032 999 32/// 4////;
0159108270999992000022918204+48180+009000FM-15+0920ETGZ V0202301N007710024019N0112651N1+00301+00101999999ADDGA1071+002409999GF107991999999999999999999MA1101021999999MW1611REMMET049ETGZ 291820Z 23015KT 9999 -RA BKN008 03/01 Q1010;EQDQ01+000003PRSWM1Q02    003PRSWM1
0224108270999992000030104004+48180+009000FM-12+0920ETGZ V0202501N002110018019N0250001N1+00201+00031999999ADDAY171999AY271999GA1051+001809089GA2071+006009069GF108991081081002501999999MA1999999089761MD1510071+9999ME1313679MW1611REMSYN094AAXX  01044 10827 41375 82504 10020 20003 38976 48367 55007 76177 888// 333 85806 87620 91114;
0182108270999992000030104204+48180+009000FM-15+0920ETGZ V0202401N004110015019N0112651N1+00201+00101999999ADDGA1071+001509999GA2071+006009999GF107991999999999999999999MA1100311999999MW1611REMMET056ETGZ 010420Z 24008KT 9999 -RA BKN005 BKN020 02/01 Q1003;EQDQ01+000003PRSWM1Q02    003PRSWM1
0180108270999992000030407334+48180+009000FM-16+0920ETGZ V0203001N005112200019N0112651N1-00201-00401999999ADDGA1021+001809999GA2021+003609999GF104991999999999999999999MA1101291999999MW1001OC101081REMMET062ETGZ 040733Z 30010G21KT 9999 SCT006 SCT012 M02/M04 Q1013 RESN;EQDQ01+000000PRSWM2
0204108270999992000030409314+48180+009000FM-16+0920ETGZ V0203001N005710045019N0017001N1-00101-00501999999ADDGA1021+001209999GA2071+004509999GF107991999999999999999999MA1101591999999MW1861REMMET062ETGZ 040931Z 30011KT 1700 SHSN BR SCT004 BKN015 M01/M05 Q1016;EQDQ01+000100PRSWM3Q02+000003PRSWM1Q03    003PRSWM1
0091108270999992000030622204+48180+009000FM-15+0920ETGZ V0202501N002612200019N0112651N1+00201-00901999999ADDMA1102511999999MW1001REMMET039ETGZ 062220Z 25005KT 9999 02/M09 Q1025;EQDQ01+000000PRSWM2
0140108270999992000030710204+48180+009000FM-15+0920ETGZ V0202801N003612200019N0112651N1+00801-00501999999ADDGA1021+066009999GF102991999999999999999999MA1102511999999MW1001REMMET046ETGZ 071020Z 28007KT 9999 FEW220 08/M05 Q1025;EQDQ01+000000PRSWM2
0153108270999992000030804204+48180+009000FM-15+0920ETGZ V0202701N00511220001CN0112651N1+00401-00201999999ADDGA1071+008109999GA2021+009909999MA1102511999999MW1001REMMET053ETGZ 080420Z 27010KT 9999 BKN027 SCT033 04/M02 Q1025;EQDQ01+000042SCOTCVQ02+000000PRSWM2
0174108270999992000031103004+48180+009000FM-12+0920ETGZ V0202701N002610042019N0150001N1+00471+00111999999ADDGA1051+004209069GF108991081081004501999999MA1999999091281MD1710231+9999ME1315079REMSYN082AAXX  11034 10827 42465 82705 10047 20011 39128 48507 57023 888// 333 85614 85624;
0182108270999992000031420204+48180+009000FM-15+0920ETGZ V0202701N006210015019N0080001N1+00601+00401999999ADDGA1071+001509999GA2071+006009999GF107991999999999999999999MA1101391999999MW1611REMMET056ETGZ 142020Z 27012KT 8000 -RA BKN005 BKN020 06/04 Q1014;EQDQ01+000003PRSWM1Q02    003PRSWM1
0178108270999992000031613204+48180+009000FM-15+0920ETGZ V0202901N00361000151CN0008001N1+00101+00101999999ADDGA1091+000159999GF109991999999000251999999MA1102511999999MW1451MW2771OC100981REMMET054ETGZ 161320Z 29007G19KT 0800 -SG FG VV002 01/01 Q1025;EQDQ01+000003PRSWM1Q02    003PRSWM1
0187108270999992000031919204+48180+009000FM-15+0920ETGZ V0200501N003110660019N0112651N1+00001-00201999999ADDGA1021+003309999GA2021+010509999GA3071+066009999GF107991999999999999999999MA1102711999999MW1001REMMET061ETGZ 191920Z 05006KT 9999 FEW011 SCT035 BKN220 M00/M02 Q1027;EQDQ01+000000PRSWM2
0163108270999992000032014204+48180+009000FM-15+0920ETGZ V0200901N004610660019N0112651N1+00501-00501999999ADDGA1021+033009999GA2071+066009999GF107991999999999999999999MA1102201999999MW1001REMMET053ETGZ 201420Z 09009KT 9999 FEW110 BKN220 05/M05 Q1022;EQDQ01+000000PRSWM2
0187108270999992000032403004+48180+009000FM-12+0920ETGZ V0201501N000512200019N0150001N1+00691+00021999999ADDGA1031+024009079GF103991031999999999031001MA1999999090481MD1810021+9999ME1314409REMSYN076AAXX  24034 10827 42965 31501 10069 20002 39048 48440 58002 83030 333 83358;EQDQ01    003SCOLCG
0174108270999992000032508004+48180+009000FM-12+0920ETGZ V0202601N00101036001CN0100001N1+00541+00161999999ADDGA1011+009009069GF107991011051008001031011MA1999999090931MD1110061+9999ME1314779REMSYN082AAXX  25084 10827 42560 72602 10054 20016 39093 48477 51006 81531 333 81630 87358;
0196108270999992000032704004+48180+009000FM-12+0920ETGZ V0203301N001010009019N0028001N1+00061-00021999999ADDAY181999AY271999GA1071+000909029GF108991071071001501999999MA1999999089871MD1710071+9999ME1313759MW1731REMSYN082AAXX  27044 10827 41228 83302 10006 21002 38987 48375 57007 77387 877// 333 87803;
0182108270999992000040505204+48180+009000FM-15+0920ETGZ V0202901N003610069019N0112651N1+00401+00101999999ADDGA1021+003009999GA2071+006909999GF107991999999999999999999MA1099801999999MW1611REMMET056ETGZ 050520Z 29007KT 9999 -RA SCT010 BKN023 04/01 Q0998;EQDQ01+000003PRSWM1Q02    003PRSWM1
0163108270999992000040716204+48180+009000FM-15+0920ETGZ V0200101N004110720019N0112651N1+00701-00301999999ADDGA1021+012609999GA2071+072009999GF107991999999999999999999MA1102611999999MW1001REMMET053ETGZ 071620Z 01008KT 9999 SCT042 BKN240 07/M03 Q1026;EQDQ01+000000PRSWM2
0174108270999992000040913004+48180+009000FM-12+0920ETGZ V0200301N00151090001CN0300001N1+01071-00211999999ADDGA1021+012009089GF107991021021012501001021MA1999999090211MD1610171+9999ME1314229REMSYN082AAXX  09134 10827 42680 70303 10107 21021 39021 48422 56017 82202 333 82840 87070;
0163108270999992000041005204+48180+009000FM-15+0920ETGZ V0200901N003110600019N0112651N1+00101-00301999999ADDGA1021+030009999GA2071+060009999GF107991999999999999999999MA1100611999999MW1001REMMET053ETGZ 100520Z 09006KT 9999 FEW100 BKN200 01/M03 Q1006;EQDQ01+000000PRSWM2
0213108270999992000041205564+48180+009000FM-16+0920ETGZ V0202501N003610012019N0070001N1+00301+00101999999ADDGA1071+001209999GA2071+024009999GA3021+999999999GF107991999999999999999999MA1098981999999MW1611MW2711REMMET065ETGZ 120556Z 25007KT 7000 -RASN FEW/// BKN004 BKN080 03/01 Q0990;EQDQ01+000003PRSWM1Q02    003PRSWM1
0224108270999992000041313004+48180+009000FM-12+0920ETGZ V0202301N002610030019N0130001N1+00411+00081999999ADDAY181999AY221999GA1061+003009089GA2031+009009069GF108991071081004501071999MA1999999089471MD1610061+9999ME1313449MW1801REMSYN094AAXX  13134 10827 41463 82305 10041 20008 38947 48344 56006 78082 8787/ 333 86810 83630 87459;
0139108270999992000041502204+48180+009000FM-15+0920ETGZ V0202001N001510270019N0112651N1+00801+00101999999ADDGA1071+027009999GF107991999999999999999999MA1099801999999MW1001REMMET045ETGZ 150220Z 20003KT 9999 BKN090 08/01 Q0998;EQDQ01+000000PRSWM2
0139108270999992000041722204+48180+009000FM-15+0920ETGZ V0202201N003610015019N0080001N1+00401+00201999999ADDGA1071+001509999GF107991999999999999999999MA1101021999999MW1001REMMET045ETGZ 172220Z 22007KT 8000 BKN005 04/02 Q1010;EQDQ01+000000PRSWM2
0167108270999992000042401204+48180+009000FM-15+0920ETGZ V0202901N004610012019N0030001N1+00701+00501999999ADDGA1071+001209999GF107991999999999999999999MA1101021999999MW1101MW2631REMMET051ETGZ 240120Z 29009KT 3000 RA BR BKN004 07/05 Q1010;EQDQ01+000003PRSWM1Q02    003PRSWM1
0174108270999992000042422004+48180+009000FM-12+0920ETGZ V0202901N00051004201CN0120001N1+00561+00361999999ADDGA1021+004509069GF107991071051004501999999MA1999999090781MD1810011+9999ME1314659REMSYN082AAXX  24224 10827 42462 72901 10056 20036 39078 48465 58001 875// 333 82615 87645;
0139108270999992000042513204+48180+009000FM-15+0920ETGZ V0200501N001512200019N0112651N1+01401+00301999999ADDGA1021+011109999GF104991999999999999999999MA1101291999999MW1001REMMET045ETGZ 251320Z 05003KT 9999 SCT037 14/03 Q1013;EQDQ01+000000PRSWM2
0206108270999992000050316264+48180+009000FM-16+0920ETGZ V0203201N002110600019N0112651N1+01601+00701999999ADDGA1021+010509099GA2071+060009999GF107991999999999999999999MA1101691999999MW1171REMMET064ETGZ 031626Z 32004KT 9999 VCTS VCSH SCT035CB BKN200 16/07 Q1017;EQDQ01+000160PRSWM3Q02+000003PRSWM1Q03    003PRSWM1
0246108270999992000050319004+48180+009000FM-12+0920ETGZ V0200201N000510210019N0150001N1+01121+00851999999ADDAY121999AY221999GA1011+005409089GA2011+010509099GA3051+021009039GF107991021091004501071031MA1999999091131MD1310101+9999ME1315069MW1291REMSYN100AAXX  03194 10827 41465 70201 10112 20085 39113 48506 53010 72922 82973 333 81818 81935 85357 87068;
0162108270999992000050320204+48180+009000FM-15+0920ETGZ V0201001N000510210019N0112651N1+01101+00901999999ADDGA1021+015009999GA2071+021009999GF107991999999999999999999MA1101901999999MW1001REMMET052ETGZ 032020Z 10001KT 9999 FEW050 BKN070 11/09 Q1019;EQDQ01+000000PRSWM2
0139108270999992000050802204+48180+009000FM-15+0920ETGZ V0200801N001010690019N0112651N1+01101+00701999999ADDGA1071+069009999GF107991999999999999999999MA1101691999999MW1001REMMET045ETGZ 080220Z 08002KT 9999 BKN230 11/07 Q1017;EQDQ01+000000PRSWM2
0174108270999992000050804004+48180+009000FM-12+0920ETGZ V0200901N00101036001CN0300001N1+01121+00651999999ADDGA1011+012009089GF106991011021012501081021MA1999999091071MD1310041+9999ME1315019REMSYN082AAXX  08044 10827 42680 60902 10112 20065 39107 48501 53004 81282 333 81840 86073;
0162108270999992000051020204+48180+009000FM-15+0920ETGZ V0200801N003110660019N0112651N1+01801+00801999999ADDGA1021+015009999GA2071+066009999GF107991999999999999999999MA1101691999999MW1001REMMET052ETGZ 102020Z 08006KT 9999 FEW050 BKN220 18/08 Q1017;EQDQ01+000000PRSWM2
0181108270999992000051300204+48180+009000FM-15+0920ETGZ V0203501N001510006019N0014001N1+01001+00801999999ADDGA1071+000609999GA2071+009609999GF107991999999999999999999MA1102101999999MW1101REMMET055ETGZ 130020Z 35003KT 1400 BR BKN002 BKN032 10/08 Q1021;EQDQ01+000003PRSWM1Q02    003PRSWM1
0224108270999992000051722004+48180+009000FM-12+0920ETGZ V0203401N000510003019N0025001N1+00951+00701999999ADDAY161999AY261999GA1061+000309079GA2031+003009069GF108991071071000751071999MA1999999090901MD1510001+9999ME1314829MW1211REMSYN094AAXX  17224 10827 41125 83401 10095 20070 39090 48482 55000 72166 8777/ 333 86701 83610 87358;
0224108270999992000051904004+48180+009000FM-12+0920ETGZ V0202801N002110075019N0250001N1+00381+00111999999ADDAY161999AY221999GA1021+003009089GA2031+007509089GF108991071081004501071999MA1999999090441MD1310031+9999ME1314319MW1211REMSYN094AAXX  19044 10827 41475 82804 10038 20011 39044 48431 53003 72162 8787/ 333 82810 83825 85650;
0196108270999992000052215004+48180+009000FM-12+0920ETGZ V0202901N002110099019N0350001N1+00831+00161999999ADDGA1011+004509089GA2051+009909069GF107991071081004501999999MA1999999091121MD1210111+9999ME1314999REMSYN088AAXX  22154 10827 42481 72904 10083 20016 39112 48499 52011 878// 333 81815 85633 85656;
0139108270999992000052400204+48180+009000FM-15+0920ETGZ V0201701N002112200019N0112651N1+00701+00201999999ADDGA1021+072009999GF104991999999999999999999MA1101901999999MW1001REMMET045ETGZ 240020Z 17004KT 9999 SCT240 07/02 Q1019;EQDQ01+000000PRSWM2
0162108270999992000052902204+48180+009000FM-15+0920ETGZ V0202501N002610240019N0112651N1+00501+00301999999ADDGA1021+009009999GA2071+024009999GF107991999999999999999999MA1101191999999MW1001REMMET052ETGZ 290220Z 25005KT 9999 FEW030 BKN080 05/03 Q1012;EQDQ01+000000PRSWM2
0190108270999992000053023204+48180+009000FM-15+0920ETGZ V0202601N005710012019N0035001N1+01001+00901999999ADDGA1021+000159999GA2071+001209999GF107991999999999999999999MA1101021999999MW1101MW2631REMMET058ETGZ 302320Z 26011KT 3500 RA BR FEW000 BKN004 10/09 Q1010;EQDQ01+000003PRSWM1Q02    003PRSWM1
0205108270999992000053114204+48180+009000FM-15+0920ETGZ V0203501N002610045019N0112651N1+01001+00601999999ADDGA1021+001809999GA2071+004509999GA3071+008409999GF107991999999999999999999MA1102101999999MW1611REMMET063ETGZ 311420Z 35005KT 9999 -RA SCT006 BKN015 BKN028 10/06 Q1021;EQDQ01+000003PRSWM1Q02    003PRSWM1
0162108270999992000060212204+48180+009000FM-15+0920ETGZ V0202701N002110720019N0112651N1+02401+00801999999ADDGA1021+010509999GA2071+072009999GF107991999999999999999999MA1102301999999MW1001REMMET052ETGZ 021220Z 27004KT 9999 FEW035 BKN240 24/08 Q1023;EQDQ01+000000PRSWM2
0142108270999992000060511204+48180+009000FM-15+0920ETGZ V0200201N002112200019N0112651N1+02501+01301999999ADDGA1021+010809029GF104991999999999999999999MA1101691999999MW1001REMMET048ETGZ 051120Z 02004KT 9999 SCT036TCU 25/13 Q1017;EQDQ01+000000PRSWM2
0139108270999992000060903204+48180+009000FM-15+0920ETGZ V0201601N002612200019N0112651N1+01201+00801999999ADDGA1021+075009999GF102991999999999999999999MA1101801999999MW1001REMMET045ETGZ 090320Z 16005KT 9999 FEW250 12/08 Q1018;EQDQ01+000000PRSWM2
0202108270999992000061119004+48180+009000FM-12+0920ETGZ V0203501N00261000301CN0020001N1+01451+01271999999ADDAY121999AY221999GA1011+000159089GF108991071021000251999999MA1999999091221MD1310231+9999ME1315219MW1101REMSYN088AAXX  11194 10827 41020 83505 10145 20127 39122 48521 53023 71022 872// 333 81800 87802;
0139108270999992000061712204+48170+009000FM-15+0920ETGZ V0201401N003612200019N0112651N1+01801+00501999999ADDGA1021+013509999GF102991999999999999999999MA1102911999999MW1001REMMET045ETGZ 171220Z 14007KT 9999 FEW045 18/05 Q1029;EQDQ01+000000PRSWM2
0168108270999992000061810004+48170+009000FM-12+0920ETGZ V0201201N001512200019N0750001N1+02021+00331999999ADDGA1011+072009019GF101991001001999999001011MA1999999092171MD1210041+9999ME1316209REMSYN076AAXX  18104 10827 42989 11203 10202 20033 39217 48620 52004 80001 333 81074;
0152108270999992000061902004+48170+009000FM-12+0920ETGZ V0201201N001512200019N0600001N1+01221+00241999999ADDGA1001+999999999GF100991001001999999001001MA1999999091861MD1810121+9999ME1315749REMSYN060AAXX  19024 10827 42986 01203 10122 20024 39186 48574 58012;
0090108270999992000062001204+48170+009000FM-15+0920ETGZ V0201901N001512200019N0112651N1+01501+00801999999ADDMA1102301999999MW1001REMMET038ETGZ 200120Z 19003KT 9999 15/08 Q1023;EQDQ01+000000PRSWM2
0162108270999992000062207204+48170+009000FM-15+0920ETGZ V0202601N003612200019N0112651N1+02101+00901999999ADDGA1021+024009999GA2021+069009999GF104991999999999999999999MA1102001999999MW1001REMMET052ETGZ 220720Z 26007KT 9999 SCT080 SCT230 21/09 Q1020;EQDQ01+000000PRSWM2
0185108270999992000062312204+48170+009000FM-15+0920ETGZ V0202801N004610120019N0112651N1+01301+00701999999ADDGA1021+007209999GA2021+009009999GA3071+012009999GF107991999999999999999999MA1102101999999MW1001REMMET059ETGZ 231220Z 28009KT 9999 FEW024 SCT030 BKN040 13/07 Q1021;EQDQ01+000000PRSWM2
0187108270999992000062522004+48170+009000FM-12+0920ETGZ V0203101N001010240019N0300001N1+00721+00501999999ADDGA1071+024009079GF108991071999999999071999MA1999999091421MD1210111+9999ME1315249REMSYN076AAXX  25224 10827 42980 83102 10072 20050 39142 48524 52011 8707/ 333 87358;EQDQ01    003SCOLCG
0168108270999992000062912004+48170+009000FM-12+0920ETGZ V0203201N002112200019N0300001N1+01721+00381999999ADDGA1031+013509029GF103991031011012501041011MA1999999091161MD1810071+9999ME1315219REMSYN076AAXX  29124 10827 42680 33204 10172 20038 39116 48521 58007 83141 333 83845;
0139108270999992000070502204+48170+009000FM-15+0920ETGZ V0202701N005112200019N0112651N1+01101+00701999999ADDGA1021+015009999GF102991999999999999999999MA1101491999999MW1001REMMET045ETGZ 050220Z 27010KT 9999 FEW050 11/07 Q1015;EQDQ01+000000PRSWM2
0139108270999992000070610204+48170+009000FM-15+0920ETGZ V0201701N001510144019N0112651N1+01901+00701999999ADDGA1071+014409999GF107991999999999999999999MA1102201999999MW1001REMMET045ETGZ 061020Z 17003KT 9999 BKN048 19/07 Q1022;EQDQ01+000000PRSWM2
0223108270999992000070716204+48170+009000FM-15+0920ETGZ V0203501N010310150019N0018001N1+01101+00901999999ADDGA1021+000609999GA2021+006009099GA3071+015009999GF107991999999999999999999MA1101081999999MW1101MW2811MW3951OC101851REMMET077ETGZ 071620Z 35020G36KT 1800 TSRA BR SCT002 SCT020CB BKN050 11/09 Q1011 RERA;EQDQ01+000003PRSWM1
0202108270999992000071522004+48170+009000FM-12+0920ETGZ V0202501N001010015019N0070001N1+00611+00461999999ADDAY181999AY221999GA1051+001509089GF107991071081001501999999MA1999999090531MD1210101+9999ME1314429MW1251REMSYN088AAXX  15224 10827 41257 72502 10061 20046 39053 48442 52010 72582 878// 333 85805 87640;
0202108270999992000071613004+48170+009000FM-12+0920ETGZ V0203401N00151006001CN0150001N1+01021+00681999999ADDAY121999AY221999GA1031+001509089GF107991071081001501999999MA1999999090831MD1110091+9999ME1314779MW1251REMSYN088AAXX  16134 10827 41265 73403 10102 20068 39083 48477 51009 72522 878// 333 83805 85810;
0174108270999992000071916004+48170+009000FM-12+0920ETGZ V0203401N002112200019N0400001N1+01611+00701999999ADDGA1011+010209089GF104991041021012501001001MA1999999091331MD1110041+9999ME1315369REMSYN082AAXX  19164 10827 42682 43404 10161 20070 39133 48536 51004 84200 333 81834 83856;
0331108270999992000072006004+48170+009000FM-12+0920ETGZ V0203601N001510660019N0150001N1+01091+00771999999ADDAA124000091AY111061AY211061GA1011+015009069GA2061+066009009GF106991011051017501031011GJ100049IA1099IA2999+00309KA1120M+01341KA2120N+00681MA1999999091441MD1010031+9999ME1315359MW1111REMSYN138AAXX  20064 10827 31765 63603 10109 20077 39144 48535 50003 71111 81531 333 10134 20068 31003 70000 81650 86072 555 20112 999 00304 20030;
0162108270999992000072014204+48170+009000FM-15+0920ETGZ V0203501N002112200019N0112651N1+01801+00501999999ADDGA1021+013509999GA2021+015009999GF104991999999999999999999MA1102201999999MW1001REMMET052ETGZ 201420Z 35004KT 9999 SCT045 SCT050 18/05 Q1022;EQDQ01+000000PRSWM2
0202108270999992000072422004+48170+009000FM-12+0920ETGZ V0202001N00261006001CN0060001N1+01171+01011999999ADDAY121999AY221999GA1041+000609089GF106991051081000751031999MA1999999090371MD1310051+9999ME1314389MW1101REMSYN088AAXX  24224 10827 41156 62005 10117 20101 39037 48438 53005 71022 8583/ 333 84802 83650;
0162108270999992000072810204+48170+009000FM-15+0920ETGZ V0202801N005110240019N0112651N1+01401+01001999999ADDGA1021+002109999GA2071+024009999GF107991999999999999999999MA1101591999999MW1001REMMET052ETGZ 281020Z 28010KT 9999 SCT007 BKN080 14/10 Q1016;EQDQ01+000000PRSWM2
0139108270999992000072903204+48170+009000FM-15+0920ETGZ V0202401N001012200019N0112651N1+00801+00601999999ADDGA1021+006009999GF102991999999999999999999MA1101901999999MW1001REMMET045ETGZ 290320Z 24002KT 9999 FEW020 08/06 Q1019;EQDQ01+000000PRSWM2
0224108270999992000080510004+48170+009000FM-12+0920ETGZ V0200301N00151036001CN0070001N1+01141+00921999999ADDAY161999AY221999GA1011+000159079GA2031+015009069GF108991041051000251031999MA1999999091401MD1210021+9999ME1315339MW1601REMSYN094AAXX  05104 10827 41057 80303 10114 20092 39140 48533 52002 76062 8453/ 333 81700 83650 86359;
0246108270999992000080512004+48170+009000FM-12+0920ETGZ V0200201N001510030019N0060001N1+01131+00891999999ADDAY161061AY221061GA1051+003009089GA2051+015009069GA3081+027009049GF108991061081004501021999MA1999999091411MD1110021+9999ME1315319MW1581REMSYN100AAXX  05124 10827 41456 80203 10113 20089 39141 48531 51002 75862 8682/ 333 85810 85650 88459 00106;
0139108270999992000081300204+48170+009000FM-15+0920ETGZ V0203401N002612200019N0112651N1+01501+01001999999ADDGA1021+027009999GF102991999999999999999999MA1101901999999MW1001REMMET045ETGZ 130020Z 34005KT 9999 FEW090 15/10 Q1019;EQDQ01+000000PRSWM2
0179108270999992000081804514+48170+009000FM-16+0920ETGZ V0201801N00361000151CN0025001N1+01501+01201999999ADDGA1091+000159999GF109991999999000251999999MA1101691999999MW1971REMMET053ETGZ 180451Z 18007KT 2500 +TSRA BR VV001 15/12 Q1017;EQDQ01+000820PRSWM3Q02+000100PRSWM4Q03+000003PRSWM1
0185108270999992000081813204+48170+009000FM-15+0920ETGZ V0202001N003110660019N0112651N1+02001+01401999999ADDGA1021+015009999GA2021+027009999GA3071+066009999GF107991999999999999999999MA1101801999999MW1001REMMET059ETGZ 181320Z 20006KT 9999 FEW050 SCT090 BKN220 20/14 Q1018;EQDQ01+000000PRSWM2
0168108270999992000081908004+48170+009000FM-12+0920ETGZ V0202601N001512200019N0350001N1+02231+00921999999ADDGA1021+033009079GF102991021001999999031021MA1999999091201MD1110171+9999ME1315359REMSYN076AAXX  19084 10827 42981 22603 10223 20092 39120 48535 51017 82032 333 82361;
0162108270999992000082203204+48170+009000FM-15+0920ETGZ V0203101N004112200019N0112651N1+01001+00801999999ADDGA1021+001509999GA2021+027009999GF104991999999999999999999MA1101901999999MW1001REMMET052ETGZ 220320Z 31008KT 9999 SCT005 SCT090 10/08 Q1019;EQDQ01+000000PRSWM2
0168108270999992000082520004+48170+009000FM-12+0920ETGZ V0200801N001012200019N0180001N1+01521+00681999999ADDGA1011+063009019GF101991001001999999001021MA1999999091441MD1110061+9999ME1315429REMSYN076AAXX  25204 10827 42968 10802 10152 20068 39144 48542 51006 80002 333 81071;
0222108270999992000082821004+48170+009000FM-12+0920ETGZ V0200401N001012200019N0250001N1+00961+00621999999ADDGA1021+013809069GF102991021051012501001011MA1999999091541MD1110051+9999ME1315399REMSYN130AAXX  28214 10827 42675 20402 10096 20062 39154 48539 51005 82501 333 82646 555 BOT 00116 10143 20159 30164 40163 999 00503 31///;
0162108270999992000083008204+48170+009000FM-15+0920ETGZ V0201401N002610660019N0112651N1+01701+00801999999ADDGA1021+027009999GA2071+066009999GF107991999999999999999999MA1101691999999MW1001REMMET052ETGZ 300820Z 14005KT 9999 FEW090 BKN220 17/08 Q1017;EQDQ01+000000PRSWM2
0200108270999992000083112344+48170+009000FM-16+0920ETGZ V0201401N001510012019N0045001N1+01301+01001999999ADDGA1071+001209999GA2081+027009999GF108991999999999999999999MA1101081999999MW1631REMMET058ETGZ 311234Z 14003KT 4500 RA BR BKN004 OVC090 13/10 Q1011;EQDQ01+000100PRSWM3Q02+000003PRSWM1Q03    003PRSWM1
0173108270999992000090212204+48170+009000FM-15+0920ETGZ V0202501N006210126019N0112651N1+01201+00401999999ADDGA1021+009609999GA2071+012609999GF107991999999999999999999MA1101021999999MW1001OC101131REMMET055ETGZ 021220Z 25012G22KT 9999 FEW032 BKN042 12/04 Q1010;EQDQ01+000000PRSWM2
0162108270999992000090307204+48170+009000FM-15+0920ETGZ V0202801N003612200019N0112651N1+01001+00701999999ADDGA1021+002409999GA2021+013509999GF104991999999999999999999MA1101291999999MW1001REMMET052ETGZ 030720Z 28007KT 9999 FEW008 SCT045 10/07 Q1013;EQDQ01+000000PRSWM2
0197108270999992000090703204+48170+009000FM-15+0920ETGZ V0203201N004110003019N0025001N1+00901+00701999999ADDGA1021+000159999GA2071+000309999GF107991999999999999999999MA1101191999999MW1101OC101341REMMET063ETGZ 070320Z 32008G26KT 2500 BR SCT000 BKN001 09/07 Q1012 RERA;EQDQ01+000003PRSWM1Q02    003PRSWM1
0202108270999992000090704004+48170+009000FM-12+0920ETGZ V0203001N002112200019N0130001N1+00841+00661999999ADDAY111999AY211999GA1031+001809089GF104991041081002501001001MA1999999090581MD1310041+9999ME1314519MW1211REMSYN088AAXX  07044 10827 41363 43004 10084 20066 39058 48451 53004 72111 84800 333 83806 91113;
0222108270999992000091021004+48170+009000FM-12+0920ETGZ V0200701N001012200019N0400001N1+01381+00691999999ADDGA1021+069009009GF102991001001999999001021MA1999999091521MD1010011+9999ME1315479REMSYN130AAXX  10214 10827 42982 20702 10138 20069 39152 48547 50001 80002 333 82073 555 BOT 00138 10165 20177 30167 40143 999 00404 30///;
0309108270999992000091106004+48170+009000FM-12+0920ETGZ V0200801N001012200019N0150001N1+01221+00841999999ADDAA124000091AY101061AY201061GA1011+036009039GF101991011001999999031011GJ100039IA1099IA2999+00509KA1120M+01651KA2120N+01011MA1999999091321MD1510001+9999ME1315259MW1111REMSYN132AAXX  11064 10827 31965 10802 10122 20084 39132 48525 55000 71100 81031 333 10165 20101 31005 70000 81362 555 20165 999 01003 20052;
0168108270999992000091202004+48170+009000FM-12+0920ETGZ V0201201N001012200019N0200001N1+01031+00721999999ADDGA1011+072009019GF101991001001999999001011MA1999999091091MD1810071+9999ME1315019REMSYN076AAXX  12024 10827 42970 11202 10103 20072 39109 48501 58007 80001 333 81074;
0162108270999992000091421204+48170+009000FM-15+0920ETGZ V0201501N002110600019N0112651N1+01301+00901999999ADDGA1021+009009999GA2071+060009999GF107991999999999999999999MA1101901999999MW1001REMMET052ETGZ 142120Z 15004KT 9999 SCT030 BKN200 13/09 Q1019;EQDQ01+000000PRSWM2
0162108270999992000091515204+48170+009000FM-15+0920ETGZ V0202001N003110600019N0112651N1+02001+01301999999ADDGA1021+009009999GA2071+060009999GF107991999999999999999999MA1101491999999MW1001REMMET052ETGZ 151520Z 20006KT 9999 SCT030 BKN200 20/13 Q1015;EQDQ01+000000PRSWM2
0158108270999992000091717534+48170+009000FM-16+0920ETGZ V0203001N002610006019N0040001N1+00901+00601999999ADDGA1081+000609999GF108991999999999999999999MA1101291999999MW1101REMMET048ETGZ 171753Z 30005KT 4000 BR OVC002 09/06 Q1013;EQDQ01+000003PRSWM1Q02    003PRSWM1
0157108270999992000091803104+48170+009000FM-16+0920ETGZ V0201001N001010001519N0002001N1+00701+00501999999ADDGA1091+000159999GF109991999999000251999999MA1101081999999MW1451REMMET047ETGZ 180310Z 10002KT 0200 FG VV000 07/05 Q1011;EQDQ01+000003PRSWM1Q02    003PRSWM1
0311108270999992000092021004+48170+009000FM-12+0920ETGZ V0203501N001510015019N0060001N1+00841+00631999999ADDAY161031AY261031GA1061+001509079GA2051+007509069GA3081+030009049GF108991071071001501021999MA1999999090301MD1310071+9999ME1314269MW1631OA149900671REMSYN154AAXX  20214 10827 41256 83503 10084 20063 39030 48426 53007 76366 8772/ 333 86705 85625 88460 91113 555 BOT 00108 10125 20136 30144 40142 999 03613 32///;
0202108270999992000092102004+48170+009000FM-12+0920ETGZ V0202401N002610001519N0004001N1+00821+00701999999ADDAY161999AY261999GA1091+000159999GF109991091999999999999999MA1999999090191MD1510061+9999ME1314169MW1651REMSYN088AAXX  21024 10827 41/04 92405 10082 20070 39019 48416 55006 76566 333 89/00 91010 91113;
0230108270999992000092109004+48170+009000FM-12+0920ETGZ V0203001N00411002101CN0050001N1+00701+00461999999ADDAY161031AY261031GA1071+002109079GA2011+999999079GF108991071071999999999999MA1999999090701MD1210321+9999ME1314599MW1631REMSYN100AAXX  21094 10827 41/50 83008 10070 20046 39070 48459 52032 76366 877// 333 817// 87707 91019 91120;
0090108270999992000092301204+48170+009000FM-15+0920ETGZ V0201001N002112200019N0112651N1+00601+00301999999ADDMA1102401999999MW1001REMMET038ETGZ 230120Z 10004KT 9999 06/03 Q1024;EQDQ01+000000PRSWM2
0139108270999992000092504204+48170+009000FM-15+0920ETGZ V0202601N002112200019N0112651N1+01001+00701999999ADDGA1021+005409999GF102991999999999999999999MA1102201999999MW1001REMMET045ETGZ 250420Z 26004KT 9999 FEW018 10/07 Q1022;EQDQ01+000000PRSWM2
0202108270999992000092716004+48170+009000FM-12+0920ETGZ V0200101N00101004201CN0200001N1+01401+01001999999ADDAY191999AY281999GA1021+004509089GF107991071091004501999999MA1999999091181MD1710071+9999ME1315169MW1951REMSYN088AAXX  27164 10827 41470 70102 10140 20100 39118 48516 57007 79598 879// 333 82815 86924;
0187108270999992000092916004+48170+009000FM-12+0920ETGZ V0201201N001512200019N0170001N1+01841+00931999999ADDGA1021+021009079GF102991021999022501081021MA1999999089741MD1710081+9999ME1313919REMSYN076AAXX  29164 10827 42867 21203 10184 20093 38974 48391 57008 82082 333 82357;EQDQ01+000002SCOLCG
0202108270999992000093008004+48170+009000FM-12+0920ETGZ V0200101N00101036001CN0110001N1+01211+00981999999ADDAY121999AY221999GA1011+002109079GF107991011061002501071999MA1999999089991MD1210061+9999ME1314049MW1601REMSYN088AAXX  30084 10827 41361 70102 10121 20098 38999 48404 52006 76022 8167/ 333 81707 87358;
0174108270999992000100302004+48170+009000FM-12+0920ETGZ V0202901N00101004201CN0250001N1+00581+00421999999ADDGA1021+003609069GF107991071051004501999999MA1999999091251MD1110121+9999ME1315069REMSYN082AAXX  03024 10827 42475 72902 10058 20042 39125 48506 51012 875// 333 82612 87637;
0139108270999992000100700204+48170+009000FM-15+0920ETGZ V0203501N001010039019N0112651N1+00201+00001999999ADDGA1071+003909999GF107991999999999999999999MA1102201999999MW1001REMMET045ETGZ 070020Z 35002KT 9999 BKN013 02/00 Q1022;EQDQ01+000000PRSWM2
0196108270999992000100705004+48170+009000FM-12+0920ETGZ V0203501N001010003019N0005001N1+00061-00041999999ADDAY141999AY221999GA1071+000309069GF107991071061000751999999MA1999999091441MD1710081+9999ME1315119MW1461REMSYN082AAXX  07054 10827 41105 73502 10006 21004 39144 48511 57008 74642 876// 333 87701;
0205108270999992000101106204+48170+009000FM-15+0920ETGZ V0202101N005110240019N0112651N1+00401+00101999999ADDGA1021+002109999GA2021+010809999GA3081+024009999GF108991999999999999999999MA1098921999999MW1611REMMET063ETGZ 110620Z 21010KT 9999 -RA FEW007 SCT036 OVC080 04/01 Q0989;EQDQ01+000003PRSWM1Q02    003PRSWM1
0224108270999992000101311004+48170+009000FM-12+0920ETGZ V0200201N001010015019N0200001N1+00901+00681999999ADDAY121999AY221999GA1011+000309079GA2041+001509089GF108991051081000751071999MA1999999090521MD1210121+9999ME1314479MW1211REMSYN094AAXX  13114 10827 41170 80202 10090 20068 39052 48447 52012 72122 8587/ 333 81701 84805 87359;
0294108270999992000101321004+48170+009000FM-12+0920ETGZ V0200701N00101042001CN0100001N1+00751+00601999999ADDAY161031AY221031GA1011+004509069GA2041+024009039GA3081+042009049GF108991011051004501071999MA1999999090741MD1010041+9999ME1314649MW1211REMSYN148AAXX  13214 10827 41460 80702 10075 20060 39074 48464 50004 72162 8157/ 333 81615 84358 88464 555 BOT 00081 10091 20099 30098 40105 999 00404 31///;
