0240077540999992000062217004+42530+008790SY-MT+0058LFKC V0200101N004112200019N0350001N1+02561+01561101921ADDAA199000091GF100991001001999999001001MA1101901101251MD1610081+9999MW1001REMSYN070AAXX  22174 07754 32981 00108 10256 20156 30125 40192 56008 333 95000;MET045LFKC 221700Z 01008KT CAVOK 26/16 Q1019 NOSIG;EQDQ01+000000PRSWM2Q02  00002PRCP99
0282077540999992000062714004+42530+008790SY-MT+0058LFKC V0202301N006212200019N0400001N1+02731+01501101661ADDAA199000091GA1021+009009999GF102991011011008001001011MA1101691101001MD1610121+9999MW1001REMSYN082AAXX  27144 07754 32582 22312 10273 20150 30100 40166 56012 81101 333 81830 95000;MET059LFKC 271400Z 23011KT 180V270 9999 FEW030 27/14 Q1017 NOSIG;EQDQ01+000000PRSWM2Q02  00002PRCP99
0301077540999992000062816004+42530+008790SY-MT+0058LFKC V0202301N007212200019N0300001N1+02871+01761101121ADDAA199000091GA1021+009909999GF199999011011012501001001MA1101081100461MD1610141+9999MW1001REMSYN082AAXX  28164 07754 32680 12314 10287 20176 30046 40112 56014 81100 333 81833 95000;MET062LFKC 281600Z 23014KT 9999 FEW033 29/18 Q1011 BECMG 21018G30KT;EQDQ01+000012SCOTCVQ02+000000PRSWM2Q03  00002PRCP99
0131077540999992000070120004+42530+008790FM-12+0058LFKC V0201901N002119999999N9999999N1+02161+01591101451ADDAA199000091MA1999999100781MD1510001+9999REMSYN060AAXX  01204 07754 36/// /1904 10216 20159 30078 40145 55000;EQDQ01  00002PRCP99
0334077540999992000070306004+42530+008790SY-MT+0058LFKC V0201901N003112200019N0200001N1+02751+01611101071ADDAA124000091GA1011+030009079GF101991011001999999031001GJ107089IA1019IA2999+02009KA1999M+03361KA2999N+02161MA1101081100411MD1810111+9999MW1001REMSYN112AAXX  03064 07754 32970 11906 10275 20161 30041 40107 58011 81030 333 10336 20216 30020 55118 70000 81360 95000;MET045LFKC 030600Z 19006KT CAVOK 28/16 Q1011 NOSIG;EQDQ01+000000PRSWM2
0317077540999992000070506004+42530+008790SY-MT+0058LFKC V0202201N007212200019N0500001N1+02631+00961101471ADDAA124000091GF100991001001999999001001GJ105769IA1019IA2999+02209KA1999M+02651KA2999N+02271MA1101391100801MD1310101+9999MW1001REMSYN100AAXX  05064 07754 32984 02214 10263 20096 30080 40147 53010 333 10265 20227 30022 55096 70000 95000;MET056LFKC 050600Z 22013KT CAVOK 26/10 Q1014 BECMG 21015G25KT;EQDQ01+000000PRSWM2
0268077540999992000070716004+42530+008790SY-MT+0058LFKC V0200201N004112200019N0350001N1+03271+01611100831ADDAA199000091GA1011+075009009GF101991001001999999001011MA1100811100181MD1610211+9999MW1001REMSYN082AAXX  07164 07754 32981 10208 10327 20161 30018 40083 56021 80001 333 81075 95000;MET045LFKC 071600Z 03007KT CAVOK 33/16 Q1008 NOSIG;EQDQ01+000000PRSWM2Q02  00002PRCP99
0306077540999992000071007004+42530+008790SY-MT+0058LFKC V0202201N008212200019N0250001N1+02451+01251100721ADDAA199000091GA1011+015009059GF101991011051017501999001MA1100711100061MD1710131+9999MW1001OC101291REMSYN082AAXX  10074 07754 32775 12216 10245 20125 30006 40072 57013 81500 333 81650 95000;MET059LFKC 100700Z 22015G25KT CAVOK 25/13 Q1007 TEMPO 22020G30KT;EQDQ01+000000PRSWM2Q02  00002PRCP99Q03    003SCOMCG
0112077540999992000071301004+42530+008790FM-12+0058LFKC V0201801N005119999999N9999999N1+01501+00681101471ADDAA199000021MA1999999100781MD1810021+9999REMSYN060AAXX  13014 07754 36/// /1810 10150 20068 30078 40147 58002;
0308077540999992000071507004+42530+008790SY-MT+0058LFKC V0202301N008212200019N0350001N1+02071+01081100281ADDAA199000091GA1021+009909999GF102991011011012501031021MA1100201099611MD1510071+9999MW1001OA149901491REMSYN094AAXX  15074 07754 32681 22316 10207 20108 39961 40028 55007 81132 333 81833 91027 91129 95000;MET062LFKC 150700Z 23016KT 9999 FEW033 21/11 Q1002 TEMPO 23015G25KT;EQDQ01+000000PRSWM2Q02  00002PRCP99
0301077540999992000071613004+42530+008790SY-MT+0058LFKC V0203401N006212200019N0450001N1+02311+01091101061ADDAA199000091GA1021+012009029GF199999011021012501001001MA1101021100391MD1310081+9999MW1001REMSYN082AAXX  16134 07754 32683 13412 10231 20109 30039 40106 53008 81200 333 81840 95000;MET062LFKC 161300Z 34011KT 310V030 9999 FEW040TCU 23/11 Q1010 NOSIG;EQDQ01+000012SCOTCVQ02+000000PRSWM2Q03  00002PRCP99
0282077540999992000071715004+42530+008790SY-MT+0058LFKC V0203501N005112200019N0350001N1+02301+01261101641ADDAA199000091GA1021+010809999GF103991021081012501001011MA1101591100971MD1710021+9999MW1001REMSYN082AAXX  17154 07754 32681 33510 10230 20126 30097 40164 57002 82801 333 81836 95000;MET059LFKC 171500Z 35010KT 310V030 9999 FEW036 23/13 Q1016 NOSIG;EQDQ01+000000PRSWM2Q02  00002PRCP99
0248077540999992000071908004+42530+008790SY-MT+0058LFKC V0200701N003112200019N0450001N1+02521+01061101421ADDAA199000091GF100991001001999999001001MA1101391100751MD1810041+9999MW1001REMSYN070AAXX  19084 07754 32983 00706 10252 20106 30075 40142 58004 333 95000;MET053LFKC 190800Z 07005KT 360V100 CAVOK 25/11 Q1014 NOSIG;EQDQ01+000000PRSWM2Q02  00002PRCP99
0298077540999992000072010004+42530+008790SY-MT+0058LFKC V0203501N004112200019N0250001N1+02441+01711101441ADDAA199000091GA1021+009009999GF199999011011008001001001MA1101391100771MD1310031+9999MW1001REMSYN082AAXX  20104 07754 32575 13508 10244 20171 30077 40144 53003 81100 333 81830 95000;MET059LFKC 201000Z VRB09KT 300V130 9999 FEW030 25/17 Q1014 NOSIG;EQDQ01+000012SCOTCVQ02+000000PRSWM2Q03  00002PRCP99
0306077540999992000072106004+42530+008790SY-MT+0058LFKC V0202501N001012200019N0250001N1+02051+01531101591ADDAA124000091GF100991001001999999001001GJ108049IA1019IA2999+01509KA1999M+02271KA2999N+01531MA1101591100911MD1010001+9999MW1001REMSYN100AAXX  21064 07754 32975 02502 10205 20153 30091 40159 50000 333 10227 20153 30015 55134 70000 95000;MET045LFKC 210600Z 25001KT CAVOK 21/15 Q1016 NOSIG;EQDQ01+000000PRSWM2
0350077540999992000072506004+42530+008790SY-MT+0058LFKC V0202301N004112200019N0250001N1+02501+01391100981ADDAA124999999GA1021+078009019GF102991001001999999001011GJ103129IA1019IA2999+02109KA1999M+02691KA2999N+02141MA1101021100321MD1010021+9999MW1001REMSYN112AAXX  25064 07754 32975 22308 10250 20139 30032 40098 50002 80001 333 10269 20214 30021 55052 79999 82076 95000;MET045LFKC 250600Z 23008KT CAVOK 25/14 Q1010 NOSIG;EQDQ01+000000PRSWM2Q02  99992PRCP24
0131077540999992000072720004+42530+008790FM-12+0058LFKC V0202101N002119999999N9999999N1+02081+01681101511ADDAA199000091MA1999999100831MD1310031+9999REMSYN060AAXX  27204 07754 36/// /2104 10208 20168 30083 40151 53003;EQDQ01  00002PRCP99
0131077540999992000072819004+42530+008790FM-12+0058LFKC V0202201N007219999999N9999999N1+02571+01321101111ADDAA199000091MA1999999100451MD1310041+9999REMSYN060AAXX  28194 07754 36/// /2214 10257 20132 30045 40111 53004;EQDQ01  00002PRCP99
0204077540999992000080207004+42530+008790SY-MT+0058LFKC V0200101N003119999999Y0099001N1+02491+01221102131ADDAA199000091MA1102101101461MD1310071+9999MW1001REMSYN060AAXX  02074 07754 36/// /0106 10249 20122 30146 40213 53007;MET045LFKC 020700Z 01005KT CAVOK 25/12 Q1021 NOSIG;EQDQ01+000000PRSWM2Q02  00002PRCP99
0240077540999992000080211004+42530+008790SY-MT+0058LFKC V0200101N005112200019N0450001N1+02611+01751102141ADDAA199000091GF100991001001999999001001MA1102101101471MD1510031+9999MW1001REMSYN070AAXX  02114 07754 32983 00110 10261 20175 30147 40214 55003 333 95000;MET045LFKC 021100Z 01009KT CAVOK 26/18 Q1021 NOSIG;EQDQ01+000000PRSWM2Q02  00002PRCP99
0131077540999992000080723004+42530+008790FM-12+0058LFKC V0201901N002119999999N9999999N1+01731+01511101931ADDAA199000091MA1999999101241MD1110091+9999REMSYN060AAXX  07234 07754 36/// /1904 10173 20151 30124 40193 51009;EQDQ01  00002PRCP99
0290077540999992000081209004+42530+008790SY-MT+0058LFKC V0203601N003110750019N0250001N1+02761+01421101411ADDAA199000091GA1021+030009079GA2071+075009019GF107991021001999999081021MA1101391100751MD1310071+9999MW1001REMSYN088AAXX  12094 07754 32975 73606 10276 20142 30075 40141 53007 82082 333 82360 87075 95000;MET045LFKC 120900Z 36005KT CAVOK 28/14 Q1014 NOSIG;EQDQ01+000000PRSWM2Q02  00002PRCP99
0131077540999992000082521004+42530+008790FM-12+0058LFKC V0202001N003119999999N9999999N1+02241+01671101451ADDAA199000091MA1999999100781MD1010071+9999REMSYN060AAXX  25214 07754 36/// /2006 10224 20167 30078 40145 50007;EQDQ01  00002PRCP99
0131077540999992000090721004+42530+008790FM-12+0058LFKC V0202001N001019999999N9999999N1+01781+01491100951ADDAA199000091MA1999999100271MD1110191+9999REMSYN060AAXX  07214 07754 36/// /2002 10178 20149 30027 40095 51019;EQDQ01  00002PRCP99
0268077540999992000091111004+42530+008790SY-MT+0058LFKC V0200201N005112200019N0400001N1+02671+01161101571ADDAA199000091GA1021+075009019GF102991001001999999001011MA1101591100911MD1810011+9999MW1001REMSYN082AAXX  11114 07754 32982 20210 10267 20116 30091 40157 58001 80001 333 82075 95000;MET045LFKC 111100Z 02010KT CAVOK 27/12 Q1016 NOSIG;EQDQ01+000000PRSWM2Q02  00002PRCP99
0131077540999992000091402004+42530+008790FM-12+0058LFKC V0202001N004119999999N9999999N1+01731+01381101671ADDAA199000091MA1999999100981MD1810041+9999REMSYN060AAXX  14024 07754 36/// /2008 10173 20138 30098 40167 58004;EQDQ01  00002PRCP99
0262077540999992000091404004+42530+008790SY-MT+0058LFKC V0202101N002112200019N0250001N1+01681+01231101631ADDAA199000091GA1021+075009019GF102991001001999999001011MA1101591100941MD1610071+9999MW1001REMSYN082AAXX  14044 07754 32975 22104 10168 20123 30094 40163 56007 80001 333 82075 95000;MET039LFKC 140400Z 21004KT CAVOK 17/12 Q1016;EQDQ01+000000PRSWM2Q02  00002PRCP99
0358077540999992000091816004+42530+008790SY-MT+0058LFKC V0202301N006210300019N0300001N1+02381+01581100761ADDAA199000091GA1021+006309999GA2021+015009029GA3021+030009999GA4071+075009999GF107991021021008001081011MA1100711100101MD1110111+9999MW1001REMSYN094AAXX  18164 07754 32580 72312 10238 20158 30010 40076 51011 82281 333 81821 84360 85075 95000;MET075LFKC 181600Z 23012KT 9999 FEW021 FEW050TCU SCT100 BKN250 24/16 Q1007 NOSIG;EQDQ01+000000PRSWM2Q02  00002PRCP99
0293077540999992000092110004+42530+008790SY-MT+0058LFKC V0202301N006212200019N0300001N1+02001+01041101461ADDAA199000091GA1021+012009999GF103991031021012501001001MA1101391100781MD1310191+9999MW1001REMSYN082AAXX  21104 07754 32680 32312 10200 20104 30078 40146 53019 83200 333 83840 95000;MET070LFKC 211000Z 23012KT 190V260 9999 SCT040 20/11 Q1014 TEMPO 22015G25KT;EQDQ01+000000PRSWM2Q02  00002PRCP99
0131077540999992000092219004+42530+008790FM-12+0058LFKC V0201901N003119999999N9999999N1+01741+01451101941ADDAA199000091MA1999999101251MD1310111+9999REMSYN060AAXX  22194 07754 36/// /1906 10174 20145 30125 40194 53011;EQDQ01  00002PRCP99
0112077540999992000093019004+42530+008790FM-12+0058LFKC V0201501N002119999999N9999999N1+01851+01541100641ADDAA199000021MA1999999099961MD1310121+9999REMSYN060AAXX  30194 07754 36/// /1504 10185 20154 39996 40064 53012;
0299077540999992000100104004+42530+008790SY-MT+0058LFKC V0202001N002110099019N0200001N1+01631+01501100561ADDAA199000021GA1021+006009999GA2071+009909999GF199999051081008001081001MA1100511099881MD1610151+9999MW1001REMSYN082AAXX  01044 07754 32570 62004 10163 20150 39988 40056 56015 85880 333 82820 85633;MET060LFKC 010400Z 20004KT 170V270 9999 FEW020 BKN033 16/15 Q1005;EQDQ01+000062SCOTCVQ02+000000PRSWM2
0319077540999992000100107004+42530+008790SY-MT+0058LFKC V0202501N001010300019N0250001N1+01631+01451100591ADDAA199000091GA1021+006009999GA2071+030009999GF199999011081008001081021MA1100611099911MD1310031+9999MW1001REMSYN088AAXX  01074 07754 32575 62502 10163 20145 39991 40059 53003 81882 333 81820 85360 95000;MET058LFKC 010700Z 25002KT 9999 FEW020 BKN100 16/15 Q1006 NOSIG;EQDQ01+000062SCOTCVQ02+000000PRSWM2Q03  00002PRCP99
0131077540999992000100823004+42530+008790FM-12+0058LFKC V0201901N004119999999N9999999N1+01191+00891101511ADDAA199000091MA1999999100811MD1810061+9999REMSYN060AAXX  08234 07754 36/// /1908 10119 20089 30081 40151 58006;EQDQ01  00002PRCP99
0131077540999992000101302004+42530+008790FM-12+0058LFKC V0202101N003119999999N9999999N1+01741+01431100561ADDAA199000091MA1999999099881MD1810181+9999REMSYN060AAXX  13024 07754 36/// /2106 10174 20143 39988 40056 58018;EQDQ01  00002PRCP99
0329077540999992000101611004+42530+008790SY-MT+0058LFKC V0203401N002110300019N0400001N1+01981+01001101611ADDAA199000091GA1021+009909999GA2021+013809029GA3021+030009999GF106991031081012501081001MA1101591100931MD1110091+9999MW1001REMSYN088AAXX  16114 07754 32682 63404 10198 20100 30093 40161 51009 83880 333 81833 84360 95000;MET068LFKC 161100Z 34004KT 9999 FEW033 FEW046TCU SCT100 20/10 Q1016 NOSIG;EQDQ01+000000PRSWM2Q02  00002PRCP99
0344077540999992000101709004+42530+008790SY-MT+0058LFKC V0202201N005110129019N0200001N1+01721+01231102211ADDAA199000091AY121031AY221031GA1021+009909029GA2071+012909999GF107991071081012501999999MA1102201101521MD1310161+9999MW1151MW2161REMSYN094AAXX  17094 07754 31670 72210 10172 20123 30152 40221 53016 71522 878// 333 84833 86643 95000;MET071LFKC 170900Z 22009KT 9999 VCSH SCT033TCU BKN043 17/12 Q1022 TEMPO SHRA;EQDQ01  00002PRCP99Q02    003PRSWM1
0290077540999992000101717004+42530+008790SY-MT+0058LFKC V0201101N002112200019N0400001N1+01581+01291102361ADDAA199000021GA1021+007809029GA2021+012009999GF103991031021008001001001MA1102301101671MD1310101+9999MW1001REMSYN088AAXX  17174 07754 32582 31104 10158 20129 30167 40236 53010 83200 333 82826 83640 95000;MET061LFKC 171700Z 11003KT 9999 FEW026TCU SCT040 16/13 Q1023 NOSIG;EQDQ01+000000PRSWM2
0274077540999992000101908004+42530+008790SY-MT+0058LFKC V0201501N003112200019N0500001N1+01731+00901102251ADDAA199000091GA1021+007809999GF102991011011008001031011MA1102201101561MD1310101+9999MW1001REMSYN082AAXX  19084 07754 32584 21506 10173 20090 30156 40225 53010 81131 333 81826 95002;MET051LFKC 190800Z 15005KT 9999 FEW026 17/09 Q1022 NOSIG;EQDQ01+000000PRSWM2Q02  00002PRCP99
0131077540999992000102301004+42530+008790FM-12+0058LFKC V02099999999999999999N9999999N1+01431+01051102681ADDAA199000091MA1999999101981MD1610031+9999REMSYN060AAXX  23014 07754 36/// ///04 10143 20105 30198 40268 56003;EQDQ01  00002PRCP99
0131077540999992000102603004+42530+008790FM-12+0058LFKC V0202101N002119999999N9999999N1+01431+01131101801ADDAA199000091MA1999999101111MD1810101+9999REMSYN060AAXX  26034 07754 36/// /2104 10143 20113 30111 40180 58010;EQDQ01  00002PRCP99
0303077540999992000102609004+42530+008790SY-MT+0058LFKC V0200901N00101090001CN0350001N1+01981+01421101841ADDAA199000091GA1021+009009999GA2021+075009999GF105991021081008001081011MA1101801101161MD1110091+9999MW1001REMSYN088AAXX  26094 07754 32581 50902 10198 20142 30116 40184 51009 82881 333 81830 83075 95010;MET058LFKC 260900Z 09001KT 9999 FEW030 SCT250 20/14 Q1018 NOSIG;EQDQ01+000000PRSWM2Q02  00002PRCP99
0332077540999992000102914004+42530+008790SY-MT+0058LFKC V0202101N001010750019N0300001N1+02031+01401101981ADDAA199000091GA1021+009009999GA2021+010809999GA3071+075009999GF107991041021008001031021MA1101901101301MD1610101+9999MW1001REMSYN094AAXX  29144 07754 32580 72102 10203 20140 30130 40198 56010 84232 333 82830 84836 85075 95000;MET065LFKC 291400Z 20003KT 9999 FEW030 SCT036 BKN250 20/14 Q1019 NOSIG;EQDQ01+000000PRSWM2Q02  00002PRCP99
0112077540999992000103101004+42530+008790FM-12+0058LFKC V02099999999999999999N9999999N1+01951+01101100971ADDAA199000021MA1999999100291MD1610221+9999REMSYN060AAXX  31014 07754 36/// ///12 10195 20110 30029 40097 56022;
0372077540999992000110316004+42530+008790SY-MT+0058LFKC V0202301N006210270019N0150001N1+01651+01281100411ADDAA101999929AY191999AY281999GA1021+006009099GA2021+009009999GA3071+027009999GF107991041091008001061031MA1100411099731MD1010071+9999MW1291REMSYN106AAXX  03164 07754 21565 72312 10165 20128 39973 40041 50007 72998 84963 333 69905 81920 83830 86359 95010;MET077LFKC 031600Z 23011KT 9999 FEW020CB SCT030 BKN090 17/13 Q1004 RERA RETS NOSIG;EQDQ01+000000PRSWM2Q02    003PRSWM1
0112077540999992000111419004+42530+008790FM-12+0058LFKC V0202201N003119999999N9999999N1+01621+01141101311ADDAA199000021MA1999999100621MD1210221+9999REMSYN060AAXX  14194 07754 36/// /2206 10162 20114 30062 40131 52022;
0290077540999992000111907004+42530+008790SY-MT+0058LFKC V0202101N003110078019N0250001N1+00851+00581101101ADDAA199000091GA1071+007809999GF199999051021008001001001MA1101021100391MD1310051+9999MW1001REMSYN082AAXX  19074 07754 32575 52106 10085 20058 30039 40110 53005 85200 333 85826 95000;MET051LFKC 190700Z 21005KT 9999 BKN026 09/06 Q1010 NOSIG;EQDQ01+000052SCOTCVQ02+000000PRSWM2Q03  00002PRCP99
0357077540999992000112010004+42530+008790SY-MT+0058LFKC V0202201N006210270019N0250001N1+01431+01051100951ADDAA101000491AY181999AY261999GA1021+007509999GA2021+012009029GA3071+027009999GF107991041021008001081999MA1100911100261MD1110071+9999MW1601MW2611REMSYN106AAXX  20104 07754 21575 72212 10143 20105 30026 40095 51007 76086 8428/ 333 69945 81825 84840 86359 95000;MET072LFKC 201000Z 22011KT 9999 -RA FEW025 SCT040TCU BKN090 14/11 Q1009 NOSIG;EQDQ01    003PRSWM1
0122077540999992000112017004+42530+008790FM-12+0058LFKC V0202201N005119999999N9999999N1+01311+01081100691ADDAA101003091MA1999999100001MD1510091+9999REMSYN070AAXX  20174 07754 26/// /2210 10131 20108 30000 40069 55009 333 60035;
0131077540999992000120119004+42530+008790FM-12+0058LFKC V0201901N002119999999N9999999N1+01241+01101102361ADDAA199000091MA1999999101661MD1010031+9999REMSYN060AAXX  01194 07754 36/// /1904 10124 20110 30166 40236 50003;EQDQ01  00002PRCP99
0112077540999992000121523004+42530+008790FM-12+0058LFKC V0202401N003119999999N9999999N1+01171+00081101191ADDAA199000021MA1999999100491MD1310071+9999REMSYN060AAXX  15234 07754 36/// /2406 10117 20008 30049 40119 53007;
0282077540999992000121607004+42530+008790SY-MT+0058LFKC V0202101N004112200019N0300001N1+00961+00151101441ADDAA199000091GA1021+012009999GF103991031021012501001001MA1101391100731MD1310141+9999MW1001REMSYN082AAXX  16074 07754 32680 32108 10096 20015 30073 40144 53014 83200 333 83840 95000;MET059LFKC 160700Z 22008KT 9999 SCT040 10/02 Q1014 TEMPO 22015KT;EQDQ01+000000PRSWM2Q02  00002PRCP99
0319077540999992000122011004+42530+008790SY-MT+0058LFKC V0203501N002110099019N0400001N1+01401+00901101871ADDAA199000091GA1021+006009999GA2071+009909999GF199999051081008001001011MA1101801101171MD1810061+9999MW1001REMSYN088AAXX  20114 07754 32582 53504 10140 20090 30117 40187 58006 85801 333 82820 85633 95000;MET058LFKC 201100Z 35004KT 9999 FEW020 BKN033 14/09 Q1018 NOSIG;EQDQ01+000052SCOTCVQ02+000000PRSWM2Q03  00002PRCP99
0308077540999992000122115004+42530+008790SY-MT+0058LFKC V0203301N002110150019N0112651N1+01241+00941101561ADDAA199000091GA1021+007809999GA2071+015009999GA3071+027009999GF107991999999999999999999MA1101491100861MD1510001+9999MW1001REMSYN060AAXX  21154 07754 36/// /3304 10124 20094 30086 40156 55000;MET075LFKC 211500Z 33002KT 9999 FEW026 BKN050 BKN090 12/10 Q1015 TEMPO 7000 SHRA;EQDQ01+000000PRSWM2Q02  00002PRCP99
0122077540999992000122719004+42530+008790FM-12+0058LFKC V0200301N006219999999N9999999N1+01011+00901098651ADDAA101002091MA1999999097971MD1310131+9999REMSYN070AAXX  27194 07754 26/// /0312 10101 20090 39797 49865 53013 333 60025;
0112077540999992000123000004+42530+008790FM-12+0058LFKC V0202201N008719999999N9999999N1+01011+00041100331ADDAA199000021MA1999999099631MD1110111+9999REMSYN060AAXX  30004 07754 36/// /2217 10101 20004 39963 40033 51011;
0268077610999992000010313004+41920+008800SY-MT+0009LFKJ V0202101N003112200019N0400001N1+01331+00621103031ADDAA106000091GA1011+069009009GF101991001001999999001011MA1103011102921MD1810131+9999MW1001REMSYN082AAXX  03134 07761 32/82 12106 10133 20062 30292 40303 58013 80001 333 81073 95000;MET045LFKJ 031300Z 21005KT CAVOK 13/07 Q1030 NOSIG;EQDQ01+000000PRSWM2Q02  00002PRCP06
0316077610999992000010814004+41920+008800SY-MT+0009LFKJ V0202801N001010120019N0100001N1+01241+00711102321ADDAA106000021GA1021+007809999GA2071+012009999GA3071+027009999GF108991051081008001071999MA1102301102211MD1610131+9999MW1001REMSYN094AAXX  08144 07761 32560 82802 10124 20071 30221 40232 56013 8587/ 333 81826 85640 87359 95050;MET065LFKJ 081400Z 27002KT 9999 FEW026 BKN040 BKN090 12/07 Q1023 NOSIG;EQDQ01+000000PRSWM2
0131077610999992000011101004+41920+008800FM-12+0009LFKJ V0200501N004119999999N9999999N1+00291+00111102941ADDAA106000091MA1999999102831MD1210041+9999REMSYN060AAXX  11014 07761 36/// /0508 10029 20011 30283 40294 52004;EQDQ01  00002PRCP06
0303077610999992000011122004+41920+008800SY-MT+0009LFKJ V0200401N00311036001CN0150001N1+00641+00541102991ADDAA106000091GA1021+005709999GA2021+030009999GF105991031051004501071001MA1102911102881MD1810061+9999MW1001REMSYN088AAXX  11224 07761 32465 50406 10064 20054 30288 40299 58006 83570 333 83619 83360 95090;MET058LFKJ 112200Z 05006KT 9999 SCT019 SCT100 07/06 Q1029 NOSIG;EQDQ01+000000PRSWM2Q02  00002PRCP06
0145077610999992000011913304+41920+008800FM-15+0009LFKJ V0202501N004612200019N0112651N1+01401+00901999999ADDGA1021+007509999GF102991999999999999999999MA1101691999999MW1001REMMET051LFKJ 191430Z 25009KT 9999 FEW025 14/09 Q1017 NOSIG;EQDQ01+000000PRSWM2
0290077610999992000012010004+41920+008800SY-MT+0009LFKJ V0200301N001012200019N0250001N1+01051+00281102851ADDAA199000091GA1021+012009999GF199999011011012501001001MA1102811102741MD1110141+9999MW1001REMSYN082AAXX  20104 07761 32675 10302 10105 20028 30274 40285 51014 81100 333 81840 95000;MET051LFKJ 201000Z 04002KT 9999 FEW040 10/02 Q1028 NOSIG;EQDQ01+000012SCOTCVQ02+000000PRSWM2Q03  00002PRCP99
0259077610999992000012023004+41920+008800SY-MT+0009LFKJ V0200301N003110069019N0112651N1+00681+00541102531ADDAA199000021GA1071+006909999GA2081+027009999GF108991999999999999999999MA1102511102421MD1810101+9999MW1001REMSYN060AAXX  20234 07761 36/// /0306 10068 20054 30242 40253 58010;MET058LFKJ 202300Z 03006KT 9999 BKN023 OVC090 07/05 Q1025 NOSIG;EQDQ01+000000PRSWM2
0303077610999992000012105004+41920+008800SY-MT+0009LFKJ V0200701N002110180019N0150001N1+00651+00551102151ADDAA199000021GA1021+006909999GA2071+018009999GF199999061081008001001001MA1102101102041MD1610161+9999MW1001REMSYN088AAXX  21054 07761 32565 60704 10065 20055 30204 40215 56016 86800 333 83823 85656 95090;MET058LFKJ 210500Z 08003KT 9999 SCT023 BKN060 07/06 Q1021 NOSIG;EQDQ01+000062SCOTCVQ02+000000PRSWM2
0321077610999992000012416004+41920+008800SY-MT+0009LFKJ V0202801N002112200019N0200001N1+01031+00091101221ADDAA199000021GA1021+009009029GA2021+015009099GA3021+030009999GF104991031091008001031001MA1101191101111MD1310141+9999MW1001REMSYN094AAXX  24164 07761 32570 42804 10103 20009 30111 40122 53014 83930 333 81830 82950 83360 95030;MET070LFKJ 241600Z 29005KT 9999 FEW030TCU FEW050CB SCT100 11/01 Q1012 NOSIG;EQDQ01+000000PRSWM2
0285077610999992000012419004+41920+008800SY-MT+0009LFKJ V0200501N003112200019N0200001N1+00441-00141101441ADDAA199000021GA1021+006909999GA2021+015009029GF103991021081008001041001MA1101391101331MD1210221+9999MW1001REMSYN082AAXX  24194 07761 32570 30506 10044 21014 30133 40144 52022 82840 333 81823 95030;MET062LFKJ 241900Z 05006KT 9999 FEW023 FEW050TCU 05/M01 Q1014 NOSIG;EQDQ01+000000PRSWM2
0240077610999992000012720004+41920+008800SY-MT+0009LFKJ V0200401N003112200019N0150001N1+00401+00191103171ADDAA199000091GF100991001001999999001001MA1103121103061MD1810021+9999MW1001REMSYN070AAXX  27204 07761 32965 00406 10040 20019 30306 40317 58002 333 95090;MET045LFKJ 272000Z 04006KT CAVOK 04/02 Q1031 NOSIG;EQDQ01+000000PRSWM2Q02  00002PRCP99
0319077610999992000013109004+41920+008800SY-MT+0009LFKJ V0200501N003110750019N0200001N1+01001+00761102791ADDAA199000091GA1021+007509999GA2071+075009999GF199999011051008001001011MA1102711102681MD1110161+9999MW1001REMSYN088AAXX  31094 07761 32570 50506 10100 20076 30268 40279 51016 81501 333 81625 85075 95000;MET058LFKJ 310900Z 05006KT 9999 FEW025 BKN250 10/07 Q1027 NOSIG;EQDQ01+000052SCOTCVQ02+000000PRSWM2Q03  00002PRCP99
0172077610999992000020711544+41920+008800FM-16+0009LFKJ V0200401N002610054019N0050001N1+01101+00801999999ADDGA1081+005409999GF108991999999999999999999MA1102611999999MW1511REMMET062LFKJ 071154Z 04005KT 5000 -DZ OVC018 11/08 Q1026 NOSIG RMK B2;EQDQ01+000003PRSWM1Q02    003PRSWM1
0258077610999992000020722004+41920+008800SY-MT+0009LFKJ V0200701N004112200019N0100001N1+00721+00601102641ADDAA199000021GA1021+010809999GF104991041051012501001001MA1102611102531MD1010031+9999MW1001REMSYN082AAXX  07224 07761 32660 40708 10072 20060 30253 40264 50003 84500 333 84636 95090;MET051LFKJ 072200Z 06006KT 9999 SCT036 07/06 Q1026 NOSIG;EQDQ01+000000PRSWM2
0340077610999992000021606004+41920+008800SY-MT+0009LFKJ V0200601N002110072019N0150001N1+00791+00641101611ADDAA124000091GA1071+007209999GF107991071051008001999999GJ103729IA1099IA2999+00309KA1999M+01121KA2999N+00481MA1101591101501MD1810191+9999MW1001REMSYN112AAXX  16064 07761 32565 70604 10079 20064 30150 40161 58019 875// 333 10112 20048 31003 55062 70000 86624 95090;MET051LFKJ 160600Z 05003KT 9999 BKN024 08/06 Q1016 NOSIG;EQDQ01+000000PRSWM2
0324077610999992000021907004+41920+008800SY-MT+0009LFKJ V0203101N003110630019N0100001N1+01341+00961101411ADDAA199000021GA1021+006009999GA2021+006909999GA3071+063009999GF107991031081008001071021MA1101391101301MD1510001+9999MW1001REMSYN094AAXX  19074 07761 32560 73106 10134 20096 30130 40141 55000 83872 333 82820 83623 85071 95090;MET073LFKJ 190700Z 32006KT 280V360 9999 FEW020 SCT023 BKN210 13/10 Q1014 NOSIG;EQDQ01+000000PRSWM2
0240077610999992000022403004+41920+008800SY-MT+0009LFKJ V0200401N004112200019N0150001N1+00281+00101102661ADDAA199000091GF100991001001999999001001MA1102611102551MD1010021+9999MW1001REMSYN070AAXX  24034 07761 32965 00408 10028 20010 30255 40266 50002 333 95090;MET045LFKJ 240300Z 04008KT CAVOK 03/01 Q1026 NOSIG;EQDQ01+000000PRSWM2Q02  00002PRCP99
0240077610999992000022504004+41920+008800SY-MT+0009LFKJ V0200401N004112200019N0150001N1+00231+00081103121ADDAA199000091GF100991001001999999001001MA1103121103011MD1710051+9999MW1001REMSYN070AAXX  25044 07761 32965 00408 10023 20008 30301 40312 57005 333 95090;MET045LFKJ 250400Z 04008KT CAVOK 03/01 Q1031 NOSIG;EQDQ01+000000PRSWM2Q02  00002PRCP99
0241077610999992000030222004+41920+008800SY-MT+0009LFKJ V0200501N005112200019N0200001N1+00461-00291102371ADDAA199000091GF100991001001999999001001MA1102301102261MD1110141+9999MW1001REMSYN070AAXX  02224 07761 32970 00510 10046 21029 30226 40237 51014 333 95090;MET046LFKJ 022200Z 04009KT CAVOK 05/M03 Q1023 NOSIG;EQDQ01+000000PRSWM2Q02  00002PRCP99
0097077610999992000030700304+41920+008800FM-15+0009LFKJ V0200501N00311220001CN0099001N1+00501+00201999999ADDMA1103181999999MW1001REMMET045LFKJ 070130Z 05006KT CAVOK 05/02 Q1032 NOSIG;EQDQ01+000000PRSWM2
0274077610999992000031720004+41920+008800SY-MT+0009LFKJ V0202101N005110069019N0100001N1+01261+00811101581ADDAA199000091GA1071+006909999GF107991071051008001999999MA1101491101471MD1710071+9999MW1001REMSYN082AAXX  17204 07761 32560 72110 10126 20081 30147 40158 57007 875// 333 87623 95090;MET051LFKJ 172000Z 21010KT 9999 BKN023 13/08 Q1015 NOSIG;EQDQ01+000000PRSWM2Q02  00002PRCP99
0204077610999992000031823004+41920+008800SY-MT+0009LFKJ V0200601N004119999999Y0099001N1+00731+00541101731ADDAA199000091MA1101691101621MD1110091+9999MW1001REMSYN060AAXX  18234 07761 36/// /0608 10073 20054 30162 40173 51009;MET045LFKJ 182300Z 06007KT CAVOK 07/06 Q1017 NOSIG;EQDQ01+000000PRSWM2Q02  00002PRCP99
0319077610999992000032611004+41920+008800SY-MT+0009LFKJ V0202401N006210690019N0150001N1+01601+01101101601ADDAA199000021GA1021+003909999GA2021+006009029GA3071+069009999GF107991031031004501001011MA1101591101491MD1810031+9999MW1001REMSYN094AAXX  26114 07761 32465 72412 10160 20110 30149 40160 58003 83301 333 81813 83820 85073 95070;MET068LFKJ 261100Z 24010KT 9999 FEW013 SCT020TCU BKN230 16/11 Q1016 NOSIG;EQDQ01+000000PRSWM2
0112077610999992000032623004+41920+008800FM-12+0009LFKJ V0200601N002119999999N9999999N1+00941+00771101361ADDAA199000021MA1999999101251MD1710031+9999REMSYN060AAXX  26234 07761 36/// /0604 10094 20077 30125 40136 57003;
0236077610999992000032923004+41920+008800SY-MT+0009LFKJ V0200601N003110099019N0112651N1+00711+00561101601ADDAA199000021GA1071+009909999GF107991999999999999999999MA1101591101491MD1010031+9999MW1001REMSYN060AAXX  29234 07761 36/// /0606 10071 20056 30149 40160 50003;MET051LFKJ 292300Z 07006KT 9999 BKN033 07/06 Q1016 NOSIG;EQDQ01+000000PRSWM2
0290077610999992000040209004+41920+008800SY-MT+0009LFKJ V0202301N003112200019N0600001N1+01571+00501100701ADDAA199000091GA1011+039009039GA2031+060009029GF103991011001999999081061MA1100611100591MD1610111+9999MW1001REMSYN088AAXX  02094 07761 32986 32306 10157 20050 30059 40070 56011 81086 333 81363 83270 95000;MET045LFKJ 020900Z 23005KT CAVOK 16/05 Q1006 NOSIG;EQDQ01+000000PRSWM2Q02  00002PRCP99
0234077610999992000040621004+41920+008800SY-MT+0009LFKJ V0200601N004112200019N0200001N1+00711+00441101911ADDAA199000091GF100991001001999999001001MA1101801101801MD1210141+9999MW1001REMSYN070AAXX  06214 07761 32970 00608 10071 20044 30180 40191 52014 333 95090;MET039LFKJ 062100Z 06009KT CAVOK 07/05 Q1018;EQDQ01+000000PRSWM2Q02  00002PRCP99
0268077610999992000040710004+41920+008800SY-MT+0009LFKJ V0202201N003112200019N0350001N1+01561+00951102201ADDAA199000091GA1021+009909999GF102991021021012501001001MA1102101102091MD1110111+9999MW1001REMSYN082AAXX  07104 07761 32681 22206 10156 20095 30209 40220 51011 82200 333 82833 95000;MET045LFKJ 071000Z 23005KT 9999 FEW033 16/09 Q1021;EQDQ01+000000PRSWM2Q02  00002PRCP99
0347077610999992000040910004+41920+008800SY-MT+0009LFKJ V0200801N001010240019N0090001N1+01291+01031100951ADDAA101004091AY161011AY261011GA1021+004509999GA2021+009009999GA3071+024009999GF108991051081004501071999MA1100911100841MD1810041+9999MW1631REMSYN106AAXX  09104 07761 21459 80802 10129 20103 30084 40095 58004 76366 8587/ 333 60045 81715 83830 87358 95070;MET068LFKJ 091000Z 09002KT 9000 RA FEW015 SCT030 BKN080 13/10 Q1009 NOSIG;EQDQ01    003PRSWM1
0337077610999992000041000004+41920+008800SY-MT+0009LFKJ V0200601N002110138019N0150001N1+01131+01051100611ADDAA103999929AY161061AY221061GA1021+007509999GA2071+013809999GF108991081081008001999999MA1100611100501MD1010001+9999MW1211REMSYN106AAXX  10004 07761 /1565 80604 10113 20105 30050 40061 50000 69901 72162 888// 333 69907 84825 87646 95090;MET058LFKJ 100000Z 07003KT 9999 SCT025 BKN046 11/11 Q1006 NOSIG;EQDQ01+000000PRSWM2Q02    003PRSWM1
0316077610999992000041110004+41920+008800SY-MT+0009LFKJ V0202301N006210078019N0080001N1+01501+01341100141ADDAA199000021GA1021+003009999GA2021+006009999GA3071+007809999GF107991061081004501071999MA1100101100031MD1310121+9999MW1001REMSYN094AAXX  11104 07761 32458 72312 10150 20134 30003 40014 53012 8687/ 333 81810 83620 85626 95080;MET065LFKJ 111000Z 23012KT 8000 FEW010 SCT020 BKN026 15/14 Q1001 NOSIG;EQDQ01+000000PRSWM2
0145077610999992000041218304+41920+008800FM-15+0009LFKJ V0202401N004612200019N0112651N1+01401+01001999999ADDGA1021+003309999GF102991999999999999999999MA1100611999999MW1001REMMET051LFKJ 121930Z 24009KT 9999 FEW011 14/10 Q1006 NOSIG;EQDQ01+000000PRSWM2
0287077610999992000041317004+41920+008800SY-MT+0009LFKJ V0202201N00311220001CN0150001N1+01591+01071100971ADDAA199000021GA1021+008409999GA2021+069009999GF106991021021008001001061MA1100911100861MD1510021+9999MW1001REMSYN088AAXX  13174 07761 32565 62206 10159 20107 30086 40097 55002 82206 333 82828 84273 95010;MET058LFKJ 131700Z 23006KT 9999 FEW028 SCT230 16/11 Q1009 NOSIG;EQDQ01+000000PRSWM2
0289077610999992000041623004+41920+008800SY-MT+0009LFKJ V0202801N004110180019N0112651N1+01971+00811100131ADDAA101000191GA1071+018009999GA2071+030009999GF107991999999999999999999MA1100101100031MD1310111+9999MW1611REMSYN070AAXX  16234 07761 26/// /2808 10197 20081 30003 40013 53011 333 69925;MET062LFKJ 162300Z 30010KT 9999 -RA BKN066 BKN100 20/09 Q1001 NOSIG;EQDQ01+000003PRSWM1Q02    003PRSWM1
0202077610999992000041706004+41920+008800SY-MT+0009LFKJ V0200501N002110063019N0070001N1+01441+01341100171ADDAA103023191AY161061AY221061GA1021+001809999GA2071+006309999GA3071+010809999GF108991081071002501999999IA1119IA2999+01309KA1999M+02371KA2999N+01431MA1100101100061MD1110161+9999MW1611EQDQ01    003PRSWM1
0240077610999992000042121004+41920+008800SY-MT+0009LFKJ V0200701N003112200019N0150001N1+01231+00991101891ADDAA199000091GF100991001001999999001001MA1101801101781MD1110081+9999MW1001REMSYN070AAXX  21214 07761 32965 00706 10123 20099 30178 40189 51008 333 95000;MET045LFKJ 212100Z 07005KT CAVOK 12/10 Q1018 NOSIG;EQDQ01+000000PRSWM2Q02  00002PRCP99
0290077610999992000042514004+41920+008800SY-MT+0009LFKJ V0202301N005112200019N0500001N1+01781+01331101571ADDAA199000091GA1021+009909999GF199999011011012501001011MA1101491101461MD1810051+9999MW1001REMSYN082AAXX  25144 07761 32684 12310 10178 20133 30146 40157 58005 81101 333 81833 95000;MET051LFKJ 251400Z 23010KT 9999 FEW033 18/13 Q1015 NOSIG;EQDQ01+000012SCOTCVQ02+000000PRSWM2Q03  00002PRCP99
0254077610999992000050216004+41920+008800FM-12+0009LFKJ V0202201N002110270019N0150001N1+01881+01491101391ADDAA101999929AY181999AY261999GA1011+006009089GA2011+012009099GA3031+027009039GF105991031091008001061021MA1999999101281MD1610101+9999MW1251REMSYN106AAXX  02164 07761 21565 52204 10188 20149 30128 40139 56010 72586 83962 333 69905 81820 81940 83359 95070;
0194077610999992000050218464+41920+008800FM-16+0009LFKJ V0201801N002612200019N0112651N1+01701+01401999999ADDGA1021+006909999GA2021+012009099GA3021+027009999GF104991999999999999999999MA1101491999999MW1001REMMET068LFKJ 021846Z 18005KT 9999 FEW023 FEW040CB SCT090 17/14 Q1015 RMK M8;EQDQ01+000000PRSWM2
0294077610999992000050317004+41920+008800SY-MT+0009LFKJ V0201801N002112200019N0150001N1+01941+01291101651ADDAA199000091GA1021+009309999GA2021+009909029GF103991031021008001031001MA1101591101541MD1510031+9999MW1001REMSYN082AAXX  03174 07761 32565 31804 10194 20129 30154 40165 55003 83230 333 81831 95000;MET055LFKJ 031700Z 21004KT 9999 FEW031 FEW033TCU 19/14 Q1016;EQDQ01+000000PRSWM2Q02  00002PRCP99
0297077610999992000050516004+41920+008800SY-MT+0009LFKJ V0202301N002112200019N0250001N1+02161+01351101141ADDAA199000091GA1021+027009999GA2021+075009999GF104991011001999999071021MA1101081101041MD1810081+9999MW1001REMSYN088AAXX  05164 07761 32975 42304 10216 20135 30104 40114 58008 81072 333 81359 83075 95000;MET052LFKJ 051600Z 23004KT 9999 FEW090 SCT250 21/14 Q1011;EQDQ01+000000PRSWM2Q02  00002PRCP99
0303077610999992000051210004+41920+008800SY-MT+0009LFKJ V0202201N00411090001CN0150001N1+02151+01581101931ADDAA199000091GA1021+006909999GA2021+069009999GF105991031021008001001021MA1101901101821MD1510001+9999MW1001REMSYN088AAXX  12104 07761 32565 52208 10215 20158 30182 40193 55000 83202 333 83823 83073 95010;MET058LFKJ 121000Z 23008KT 9999 SCT023 SCT230 22/16 Q1019 NOSIG;EQDQ01+000000PRSWM2Q02  00002PRCP99
0293077610999992000051417004+41920+008800SY-MT+0009LFKJ V0201901N002112200019N0200001N1+02241+01401101831ADDAA199000091GA1021+015009029GF199999011021017501031021MA1101801101721MD1610121+9999MW1001REMSYN082AAXX  14174 07761 32770 11904 10224 20140 30172 40183 56012 81232 333 81850 95000;MET054LFKJ 141700Z 19004KT 9999 FEW050TCU 22/15 Q1018 NOSIG;EQDQ01+000012SCOTCVQ02+000000PRSWM2Q03  00002PRCP99
0306077610999992000051506004+41920+008800SY-MT+0009LFKJ V0200601N003112200019N0150001N1+01661+01241101951ADDAA124000091GF100991001001999999001001GJ106369IA1019IA2999+01209KA1999M+02081KA2999N+01311MA1101901101841MD1210031+9999MW1001REMSYN100AAXX  15064 07761 32965 00606 10166 20124 30184 40195 52003 333 10208 20131 30012 55106 70000 95000;MET045LFKJ 150600Z 06005KT CAVOK 16/12 Q1019 NOSIG;EQDQ01+000000PRSWM2
0268077610999992000051607004+41920+008800SY-MT+0009LFKJ V0201201N001012200019N0180001N1+02091+01361101991ADDAA199000091GA1011+075009009GF101991001001999999001011MA1101901101881MD1110061+9999MW1001REMSYN082AAXX  16074 07761 32968 11202 10209 20136 30188 40199 51006 80001 333 81075 95000;MET045LFKJ 160700Z 06002KT CAVOK 21/13 Q1019 NOSIG;EQDQ01+000000PRSWM2Q02  00002PRCP99
0290077610999992000051609004+41920+008800SY-MT+0009LFKJ V0202401N003112200019N0180001N1+02271+01481101991ADDAA199000091GA1021+009909999GF199999011011012501001001MA1101901101881MD1010021+9999MW1001REMSYN082AAXX  16094 07761 32668 12406 10227 20148 30188 40199 50002 81100 333 81833 95000;MET051LFKJ 160900Z 25005KT 9999 FEW033 22/15 Q1019 NOSIG;EQDQ01+000012SCOTCVQ02+000000PRSWM2Q03  00002PRCP99
0274077610999992000051710004+41920+008800SY-MT+0009LFKJ V0202201N005112200019N0300001N1+02271+01481101771ADDAA199000091GA1021+015009999GF102991011011017501001011MA1101691101671MD1010021+9999MW1001REMSYN082AAXX  17104 07761 32780 22210 10227 20148 30167 40177 50002 81101 333 81850 95000;MET051LFKJ 171000Z 22011KT 9999 FEW053 23/15 Q1017 NOSIG;EQDQ01+000000PRSWM2Q02  00002PRCP99
0274077610999992000052007004+41920+008800SY-MT+0009LFKJ V0201301N001012200019N0250001N1+01751+00811101191ADDAA199000091GA1021+012309999GF103991031011012501001001MA1101081101081MD1210051+9999MW1001REMSYN082AAXX  20074 07761 32675 31302 10175 20081 30108 40119 52005 83100 333 83841 95000;MET051LFKJ 200700Z 05003KT 9999 SCT041 17/08 Q1011 NOSIG;EQDQ01+000000PRSWM2Q02  00002PRCP99
0290077610999992000060317004+41920+008800SY-MT+0009LFKJ V0202201N003112200019N0200001N1+02541+01571101771ADDAA199000091GA1021+012009999GF199999011011012501001001MA1101691101671MD1610091+9999MW1001REMSYN082AAXX  03174 07761 32670 12206 10254 20157 30167 40177 56009 81100 333 81840 95000;MET051LFKJ 031700Z 22007KT 9999 FEW040 25/16 Q1017 NOSIG;EQDQ01+000012SCOTCVQ02+000000PRSWM2Q03  00002PRCP99
0306077610999992000060705004+41920+008800SY-MT+0009LFKJ V0200501N004110900019N0180001N1+01591+01281101241ADDAA199000091GA1021+012909029GA2021+015009999GF105991011081012501081011MA1101191101131MD1310051+9999MW1001REMSYN088AAXX  07054 07761 32668 50508 10159 20128 30113 40124 53005 81881 333 81843 83650 95000;MET061LFKJ 070500Z 05006KT 9999 FEW043TCU SCT050 16/13 Q1012 NOSIG;EQDQ01+000000PRSWM2Q02  00002PRCP99
0328077610999992000060918004+41920+008800SY-MT+0009LFKJ V0202101N002112200019N0200001N1+02551+01871101441ADDAA199000091GA1021+006909999GF199999011011008001001001KA1999M+02801KA2999N+02011MA1101391101341MD1510061+9999MW1001REMSYN094AAXX  09184 07761 32570 12104 10255 20187 30134 40144 55006 81100 333 10280 20201 81823 95000;MET051LFKJ 091800Z 21004KT 9999 FEW023 26/18 Q1014 NOSIG;EQDQ01+000012SCOTCVQ02+000000PRSWM2Q03  00002PRCP99
0171077610999992000061510304+41920+008790FM-15+0009LFKJ V0202201N004610690019N0112651N1+02601+01601999999ADDGA1021+009909029GA2071+069009999GF107991999999999999999999MA1101901999999MW1001REMMET061LFKJ 151130Z 22009KT 9999 FEW033TCU BKN230 26/16 Q1019 NOSIG;EQDQ01+000000PRSWM2
0240077610999992000061903004+41920+008790SY-MT+0009LFKJ V0200501N004112200019N0300001N1+01481+01001102351ADDAA199000091GF100991001001999999001001MA1102301102241MD1610031+9999MW1001REMSYN070AAXX  19034 07761 32980 00508 10148 20100 30224 40235 56003 333 95090;MET045LFKJ 190300Z 05008KT CAVOK 15/10 Q1023 NOSIG;EQDQ01+000000PRSWM2Q02  00002PRCP99
0240077610999992000062003004+41920+008790SY-MT+0009LFKJ V0200601N004112200019N0300001N1+01401+00821102121ADDAA199000091GF100991001001999999001001MA1102101102011MD1510031+9999MW1001REMSYN070AAXX  20034 07761 32980 00608 10140 20082 30201 40212 55003 333 95090;MET045LFKJ 200300Z 06007KT CAVOK 14/08 Q1021 NOSIG;EQDQ01+000000PRSWM2Q02  00002PRCP99
0282077610999992000070219004+41920+008790SY-MT+0009LFKJ V0202001N004112200019N0300001N1+02901+01751101301ADDAA199000091GA1021+027009999GF103991021001999999081021MA1101291101201MD1310051+9999MW1001REMSYN082AAXX  02194 07761 32980 32008 10290 20175 30120 40130 53005 82082 333 82359 95000;MET059LFKJ 021900Z 18007KT 140V210 9999 FEW090 29/16 Q1013 NOSIG;EQDQ01+000000PRSWM2Q02  00002PRCP99
0290077610999992000072011004+41920+008790SY-MT+0009LFKJ V0202601N007212200019N0250001N1+02471+01841101461ADDAA199000091GA1021+015009999GF199999011011017501041001MA1101391101361MD1810011+9999MW1001REMSYN082AAXX  20114 07761 32775 12614 10247 20184 30136 40146 58001 81140 333 81850 95000;MET051LFKJ 201100Z 25012KT 9999 FEW056 25/17 Q1014 NOSIG;EQDQ01+000012SCOTCVQ02+000000PRSWM2Q03  00002PRCP99
0290077610999992000072012004+41920+008790SY-MT+0009LFKJ V0202501N006212200019N0300001N1+02481+01851101451ADDAA199000091GA1021+015009999GF199999011011017501001001MA1101391101351MD1810031+9999MW1001REMSYN082AAXX  20124 07761 32780 12512 10248 20185 30135 40145 58003 81100 333 81850 95000;MET051LFKJ 201200Z 25012KT 9999 FEW056 25/18 Q1014 NOSIG;EQDQ01+000012SCOTCVQ02+000000PRSWM2Q03  00002PRCP99
0240077610999992000072200004+41920+008790SY-MT+0009LFKJ V0200601N003112200019N0300001N1+01681+01331101731ADDAA199000091GF100991001001999999001001MA1101691101621MD1010011+9999MW1001REMSYN070AAXX  22004 07761 32980 00606 10168 20133 30162 40173 50001 333 95090;MET045LFKJ 220000Z 06007KT CAVOK 17/13 Q1017 NOSIG;EQDQ01+000000PRSWM2Q02  00002PRCP99
0268077610999992000072219004+41920+008790SY-MT+0009LFKJ V0201501N001012200019N0170001N1+02271+01801101631ADDAA199000091GA1011+075009019GF101991001001999999001011MA1101591101531MD1710011+9999MW1001REMSYN082AAXX  22194 07761 32/67 11502 10227 20180 30153 40163 57001 80001 333 81075 95000;MET045LFKJ 221900Z 14002KT CAVOK 23/18 Q1016 NOSIG;EQDQ01+000000PRSWM2Q02  00002PRCP99
0168077610999992000072403304+41920+008790FM-15+0009LFKJ V0200401N003610750019N0112651N1+02701+00901999999ADDGA1021+030009999GA2081+075009999GF108991999999999999999999MA1100711999999MW1001REMMET058LFKJ 240430Z 04007KT 9999 SCT100 OVC250 27/09 Q1007 NOSIG;EQDQ01+000000PRSWM2
0290077610999992000072512004+41920+008790SY-MT+0009LFKJ V0202301N005112200019N0120001N1+02591+02071101181ADDAA199000091GA1021+012009999GF199999011011012501001001MA1101081101081MD1810051+9999MW1001REMSYN082AAXX  25124 07761 32662 12310 10259 20207 30108 40118 58005 81100 333 81840 95000;MET051LFKJ 251200Z 23010KT 9999 FEW040 26/20 Q1011 NOSIG;EQDQ01+000012SCOTCVQ02+000000PRSWM2Q03  00002PRCP99
0290077610999992000073013004+41920+008790SY-MT+0009LFKJ V0202301N006212200019N0350001N1+02591+01701101741ADDAA199000091GA1021+021009999GF199999011021022501001001MA1101691101641MD1110061+9999MW1001REMSYN082AAXX  30134 07761 32881 12312 10259 20170 30164 40174 51006 81200 333 81857 95000;MET051LFKJ 301300Z 24011KT 9999 FEW073 26/17 Q1017 NOSIG;EQDQ01+000012SCOTCVQ02+000000PRSWM2Q03  00002PRCP99
0290077610999992000073114004+41920+008790SY-MT+0009LFKJ V0202001N005112200019N0400001N1+02721+01741102141ADDAA199000091GA1021+015009999GF199999011021017501001001MA1102101102041MD1610051+9999MW1001REMSYN082AAXX  31144 07761 32782 12010 10272 20174 30204 40214 56005 81200 333 81850 95000;MET051LFKJ 311400Z 20010KT 9999 FEW050 27/17 Q1021 NOSIG;EQDQ01+000012SCOTCVQ02+000000PRSWM2Q03  00002PRCP99
0290077610999992000081011004+41920+008790SY-MT+0009LFKJ V0202101N005112200019N0200001N1+02641+01881101921ADDAA199000091GA1021+015009999GF199999011021017501001001MA1101901101821MD1010021+9999MW1001REMSYN082AAXX  10114 07761 32770 12110 10264 20188 30182 40192 50002 81200 333 81850 95000;MET051LFKJ 101100Z 21010KT 9999 FEW050 26/19 Q1019 NOSIG;EQDQ01+000012SCOTCVQ02+000000PRSWM2Q03  00002PRCP99
0240077610999992000081122004+41920+008790SY-MT+0009LFKJ V0200601N002112200019N0150001N1+01991+01431101451ADDAA199000091GF100991001001999999001001MA1101391101341MD1110041+9999MW1001REMSYN070AAXX  11224 07761 32965 00604 10199 20143 30134 40145 51004 333 95090;MET045LFKJ 112200Z 06004KT CAVOK 20/14 Q1014 NOSIG;EQDQ01+000000PRSWM2Q02  00002PRCP99
0258077610999992000081320004+41920+008790SY-MT+0009LFKJ V0200601N004112200019N0200001N1+02111+01691101801ADDAA199000021GA1021+024009999GF102991021041022501001001MA1101691101691MD1210181+9999MW1001REMSYN082AAXX  13204 07761 32870 20608 10211 20169 30169 40180 52018 82400 333 82658 95090;MET051LFKJ 132000Z 06006KT 9999 FEW080 21/17 Q1017 NOSIG;EQDQ01+000000PRSWM2
0131077610999992000082023004+41920+008790FM-12+0009LFKJ V0200501N003119999999N9999999N1+02111+01651101611ADDAA199000091MA1999999101501MD1010001+9999REMSYN060AAXX  20234 07761 36/// /0506 10211 20165 30150 40161 50000;EQDQ01  00002PRCP99
0290077610999992000082215004+41920+008790SY-MT+0009LFKJ V0202201N006212200019N0060001N1+02851+02411101411ADDAA199000091GA1021+027009999GF199999011001999999081001MA1101391101311MD1610061+9999MW1001REMSYN082AAXX  22154 07761 32956 12212 10285 20241 30131 40141 56006 81080 333 81359 95000;MET051LFKJ 221500Z 21012KT 6000 FEW090 28/24 Q1014 NOSIG;EQDQ01+000012SCOTCVQ02+000000PRSWM2Q03  00002PRCP99
0268077610999992000082417004+41920+008790SY-MT+0009LFKJ V0202301N003112200019N0150001N1+02811+02211101891ADDAA199000091GA1021+069009019GF102991001001999999001011MA1101801101791MD1610021+9999MW1001REMSYN082AAXX  24174 07761 32965 22306 10281 20221 30179 40189 56002 80001 333 82073 95000;MET045LFKJ 241700Z 23006KT CAVOK 28/22 Q1018 NOSIG;EQDQ01+000000PRSWM2Q02  00002PRCP99
0369077610999992000082706004+41920+008790SY-MT+0009LFKJ V0200201N001010360019N0120001N1+02281+01331101331ADDAA124000091GA1021+004509999GA2021+007809999GF105991031051004501081001GJ106549IA1019IA2999+01809KA1999M+02941KA2999N+01881MA1101291101231MD1310071+9999MW1001REMSYN118AAXX  27064 07761 32462 50202 10228 20133 30123 40133 53007 83580 333 10294 20188 30018 55109 70000 81615 83626 95020;MET058LFKJ 270600Z 03003KT 9999 FEW015 SCT026 23/13 Q1013 NOSIG;EQDQ01+000000PRSWM2
0290077610999992000090911004+41920+008790SY-MT+0009LFKJ V0202501N008212200019N0500001N1+02501+01561102021ADDAA199000091GA1021+015009999GF199999011011017501001001MA1102001101921MD1810031+9999MW1001REMSYN082AAXX  09114 07761 32784 12516 10250 20156 30192 40202 58003 81100 333 81850 95000;MET051LFKJ 091100Z 25015KT 9999 FEW050 25/16 Q1020 NOSIG;EQDQ01+000012SCOTCVQ02+000000PRSWM2Q03  00002PRCP99
0240077610999992000092621004+41920+008790SY-MT+0009LFKJ V0200501N003112200019N0200001N1+01681+01131102141ADDAA199000091GF100991001001999999001001MA1102101102031MD1110081+9999MW1001REMSYN070AAXX  26214 07761 32970 00506 10168 20113 30203 40214 51008 333 95090;MET045LFKJ 262100Z 05006KT CAVOK 17/11 Q1021 NOSIG;EQDQ01+000000PRSWM2Q02  00002PRCP99
0394077610999992000092912004+41920+008790SY-MT+0009LFKJ V0201501N004110300019N0200001N1+02921+01031100361ADDAA106000791AY181061AY261061GA1021+006909999GA2021+009909029GA3021+030009999GA4071+063009999GF107991031021008001071021MA1100311100261MD1810161+9999MW1031REMSYN106AAXX  29124 07761 11570 71508 10292 20103 30026 40036 58016 69901 70386 83272 333 82823 83360 86071 95070;MET083LFKJ 291200Z 17008KT 130V200 9999 FEW023 FEW033TCU SCT100 BKN210 29/10 Q1003 NOSIG;EQDQ01+000000PRSWM2Q02    003PRSWM1
0274077610999992000100800004+41920+008790SY-MT+0009LFKJ V0200501N003112200019N0200001N1+01311+00881101341ADDAA199000091GA1021+012909999GF102991011011012501001011MA1101291101231MD1610131+9999MW1001REMSYN082AAXX  08004 07761 32670 20506 10131 20088 30123 40134 56013 81101 333 81843 95090;MET051LFKJ 080000Z 05006KT 9999 FEW043 13/09 Q1013 NOSIG;EQDQ01+000000PRSWM2Q02  00002PRCP99
0424077610999992000101306004+41920+008790SY-MT+0009LFKJ V0200601N003110240019N0100001N1+01541+01361100371ADDAA112000592AA224000492AY181061AY261061GA1071+024009999GA2081+069009999GF108991051001022501021071GJ102829IA1119IA2999+01509KA1999M+01971KA2999N+01541MA1100311100261MD1510071+9999MW1031REMSYN130AAXX  13064 07761 11860 80606 10154 20136 30026 40037 55007 69942 70386 85027 333 10197 20154 32015 55047 70004 85458 88273 95040;MET058LFKJ 130600Z 06005KT 9999 BKN080 OVC230 15/13 Q1003 NOSIG;EQDQ01+000000PRSWM2Q02    003PRSWM1
0343077610999992000101609004+41920+008790SY-MT+0009LFKJ V0201701N004110240019N0200001N1+01891+01261101681ADDAA199000021GA1021+009909029GA2021+013809999GA3071+024009999GF199999021081012501081001MA1101591101571MD1110171+9999MW1001REMSYN094AAXX  16094 07761 32670 61708 10189 20126 30157 40168 51017 82880 333 81833 83646 86358 95040;MET076LFKJ 160900Z 17008KT 130V210 9999 FEW033TCU SCT046 BKN080 19/12 Q1016 NOSIG;EQDQ01+000062SCOTCVQ02+000000PRSWM2
0407077610999992000101618004+41920+008790SY-MT+0009LFKJ V0200701N002110138019N0150001N1+01611+01361101861ADDAA103000291AY161061AY221061GA1021+009909029GA2071+013809999GA3071+024009999GF107991021081012501031999KA1999M+01911KA2999N+01341MA1101801101751MD1310131+9999MW1211REMSYN124AAXX  16184 07761 /1665 70704 10161 20136 30175 40186 53013 60032 72162 8283/ 333 10191 20134 69927 82833 85646 87358 95090;MET068LFKJ 161800Z 07004KT 9999 FEW033TCU BKN046 BKN080 16/14 Q1018 NOSIG;EQDQ01+000000PRSWM2Q02    003PRSWM1
0240077610999992000102122004+41920+008790SY-MT+0009LFKJ V0200501N004112200019N0150001N1+01501+01101102621ADDAA199000091GF100991001001999999001001MA1102611102511MD1110121+9999MW1001REMSYN070AAXX  21224 07761 32965 00508 10150 20110 30251 40262 51012 333 95090;MET045LFKJ 212200Z 05007KT CAVOK 15/11 Q1026 NOSIG;EQDQ01+000000PRSWM2Q02  00002PRCP99
0290077610999992000102513004+41920+008790SY-MT+0009LFKJ V0201901N003112200019N0300001N1+02261+01221101991ADDAA199000091GA1021+012909999GF199999011051012501001001MA1101901101881MD1810201+9999MW1001REMSYN082AAXX  25134 07761 32680 11906 10226 20122 30188 40199 58020 81500 333 81643 95000;MET051LFKJ 251300Z 19006KT 9999 FEW043 23/12 Q1019 NOSIG;EQDQ01+000012SCOTCVQ02+000000PRSWM2Q03  00002PRCP99
0356077610999992000103116004+41920+008790SY-MT+0009LFKJ V0201101N004110240019N0120001N1+01551+01331100791ADDAA101000691AY181999AY261999GA1021+006309999GA2021+009909999GA3081+024009999GF108991041041008001071999MA1100711100681MD1010021+9999MW1611MW2801REMSYN106AAXX  31164 07761 21562 81108 10155 20133 30068 40079 50002 76186 8447/ 333 69965 81621 84633 88458 95080;MET071LFKJ 311600Z 11008KT 9999 -SHRA FEW021 SCT033 OVC083 16/13 Q1007 NOSIG;EQDQ01    003PRSWM1
0242077610999992000110214174+41920+008790FM-16+0009LFKJ V0201501N003110108019N0040001N1+01801+01301999999ADDGA1021+007509999GA2021+008409029GA3071+010809999GA4071+030009999GF107991999999999999999999MA1101081999999MW1801REMMET084LFKJ 021417Z 15006KT 4000 -SHRA FEW025 FEW028TCU BKN036 BKN100 18/13 Q1011 NOSIG M2;EQDQ01+000003PRSWM1Q02    003PRSWM1
0406077610999992000110715004+41920+008790SY-MT+0009LFKJ V0200601N001010300019N0120001N1+01381+00821100121ADDAA103999929AY181031AY261031GA1021+007809999GA2021+009909099GA3071+030009999GA4071+069009999GF107991041091008001071021MA1100101100011MD1310191+9999MW1251REMSYN112AAXX  07154 07761 21562 70602 10138 20082 30001 40012 53019 72586 84972 333 69907 81826 82933 85360 85073 95075;MET089LFKJ 071500Z 07002KT 9999 FEW026 FEW033CB BKN100 BKN230 14/08 Q1001 RERA TEMPO 5000 TSRA;EQDQ01+000000PRSWM2Q02    003PRSWM1
0290077610999992000111307004+41920+008790SY-MT+0009LFKJ V0200701N005119999999N0400001N1+01281+00751101281ADDAA199000091GA1021+033009079GA2041+063009099GF105991021001999999041091MA1101291101171MD1610061+9999MW1001REMSYN088AAXX  13074 07761 32982 50710 10128 20075 30117 40128 56006 82049 333 82361 84171 95000;MET045LFKJ 130700Z 06010KT CAVOK 13/08 Q1013 NOSIG;EQDQ01+000000PRSWM2Q02  00002PRCP99
0354077610999992000112007004+41920+008790SY-MT+0009LFKJ V0200601N003110108019N0150001N1+01191+01101101041ADDAA101999929AY161999AY221999GA1021+006309999GA2071+010809999GA3071+030009999GF108991051051008001021999MA1101021100931MD1410001+9999MW1601MW2611REMSYN106AAXX  20074 07761 21565 80606 10119 20110 30093 40104 54000 76062 8552/ 333 69905 84621 85636 87460 95050;MET069LFKJ 200700Z 05006KT 9999 -RA SCT021 BKN036 BKN100 12/11 Q1010 NOSIG;EQDQ01    003PRSWM1
0303077610999992000112221004+41920+008790SY-MT+0009LFKJ V0200601N00411036001CN0200001N1+01031+00721101941ADDAA199000091GA1021+012009999GA2021+063009999GF105991031051012501031021MA1101901101831MD1310031+9999MW1001REMSYN088AAXX  22214 07761 32670 50608 10103 20072 30183 40194 53003 83532 333 83640 83071 95090;MET058LFKJ 222100Z 06008KT 9999 SCT040 SCT210 10/07 Q1019 NOSIG;EQDQ01+000000PRSWM2Q02  00002PRCP99
0319077610999992000120114004+41920+008790SY-MT+0009LFKJ V0202501N002110180019N0250001N1+01731+01321102251ADDAA199000091GA1021+006909999GA2071+018009999GF199999061081008001001001MA1102201102141MD1610061+9999MW1001REMSYN088AAXX  01144 07761 32575 62504 10173 20132 30214 40225 56006 86800 333 82823 85656 95040;MET058LFKJ 011400Z 25005KT 9999 FEW023 BKN060 17/13 Q1022 NOSIG;EQDQ01+000062SCOTCVQ02+000000PRSWM2Q03  00002PRCP99
0332077610999992000120217004+41920+008790SY-MT+0009LFKJ V0200601N003110300019N0250001N1+01421+01081102061ADDAA199000091GA1021+013809999GA2071+030009999GA3071+075009999GF107991021051012501081021MA1102001101951MD1410001+9999MW1001REMSYN094AAXX  02174 07761 32675 70606 10142 20108 30195 40206 54000 82582 333 82646 85360 87075 95000;MET065LFKJ 021700Z 06005KT 9999 FEW046 BKN100 BKN250 14/11 Q1020 NOSIG;EQDQ01+000000PRSWM2Q02  00002PRCP99
0275077610999992000120801004+41920+008790SY-MT+0009LFKJ V0200601N005110240019N0112651N1+01311+00601101581ADDAA199000091GA1071+024009999GA2071+060009999GF107991999999999999999999MA1101491101471MD1510121+9999MW1001REMSYN060AAXX  08014 07761 36/// /0610 10131 20060 30147 40158 55012;MET058LFKJ 080100Z 06009KT 9999 BKN086 BKN200 13/06 Q1015 NOSIG;EQDQ01+000000PRSWM2Q02  00002PRCP99
0258077610999992000121008004+41920+008790SY-MT+0009LFKJ V0200401N004112200019N0150001N1+01011+00921102661ADDAA199000021GA1021+006909999GF103991031021008001001001MA1102611102551MD1110141+9999MW1001REMSYN082AAXX  10084 07761 32565 30408 10101 20092 30255 40266 51014 83200 333 82823 95090;MET051LFKJ 100800Z 04008KT 9999 FEW023 10/09 Q1026 NOSIG;EQDQ01+000000PRSWM2
0236077610999992000121601004+41920+008790SY-MT+0009LFKJ V0203201N004112200019N0112651N1+01161+00241101321ADDAA199000021GA1021+009909999GF102991999999999999999999MA1101291101211MD1110071+9999MW1001REMSYN060AAXX  16014 07761 36/// /3208 10116 20024 30121 40132 51007;MET051LFKJ 160100Z 33008KT 9999 FEW033 12/02 Q1013 NOSIG;EQDQ01+000000PRSWM2
0290077610999992000122004004+41920+008790SY-MT+0009LFKJ V0200501N005112200019N0150001N1+00761+00611101831ADDAA199000091GA1021+010809999GF199999011051012501001001MA1101801101721MD1810121+9999MW1001REMSYN082AAXX  20044 07761 32665 10510 10076 20061 30172 40183 58012 81500 333 81636 95090;MET051LFKJ 200400Z 05009KT 9999 FEW036 07/06 Q1018 NOSIG;EQDQ01+000012SCOTCVQ02+000000PRSWM2Q03  00002PRCP99
0332077610999992000122416004+41920+008790SY-MT+0009LFKJ V0200601N002110240019N0250001N1+01291+00841100721ADDAA199000091GA1021+009009999GA2021+013809999GA3081+024009999GF108991031051008001021999MA1100711100611MD1610201+9999MW1001REMSYN094AAXX  24164 07761 32575 80604 10129 20084 30061 40072 56020 8352/ 333 81630 83646 88458 95010;MET065LFKJ 241600Z 06004KT 9999 FEW030 SCT046 OVC080 13/08 Q1007 NOSIG;EQDQ01+000000PRSWM2Q02  00002PRCP99
0360077610999992000122607004+41920+008790SY-MT+0009LFKJ V0200701N00411063001CN0100001N1+00941+00861099931ADDAA101000891AY181999AY261999GA1021+007809999GA2021+010809999GA3071+063009999GF107991051081008001031011MA1099901099821MD1810031+9999MW1251REMSYN106AAXX  26074 07761 21560 70708 10094 20086 39982 49993 58003 72586 85831 333 69985 83826 84636 85071 95060;MET065LFKJ 260700Z 07007KT 9999 SCT026 SCT036 BKN210 09/09 Q0999 NOSIG;EQDQ01+000000PRSWM2Q02    003PRSWM1
0287077610999992000122717004+41920+008790SY-MT+0009LFKJ V0201501N005110075019N0150001N1+01271+00971098291ADDAA199000021GA1021+004809999GA2071+007509999GF107991071021004501999999MA1098311098191MD1810201+9999MW1001REMSYN088AAXX  27174 07761 32465 71510 10127 20097 39819 49829 58020 872// 333 83816 85825 95090;MET058LFKJ 271700Z 15011KT 9999 SCT016 BKN025 13/10 Q0983 NOSIG;EQDQ01+000000PRSWM2
0327077610999992000122916004+41920+008790SY-MT+0009LFKJ V0202901N006210069019N0100001N1+01171+00661099981ADDAA199000021GA1071+006909999GA2021+007809029GA3071+012909999GF107991071081008001999999MA1099901099871MD1310321+9999MW1001REMSYN094AAXX  29164 07761 32560 72912 10117 20066 39987 49998 53032 878// 333 85823 83826 85643 95060;MET076LFKJ 291600Z 30011KT 250V340 9999 BKN023 SCT026TCU BKN043 12/06 Q0999 NOSIG;EQDQ01+000000PRSWM2
0348077610999992000123103004+41920+008790SY-MT+0009LFKJ V0200101N009810150019N0150001N1+01061+00191099361ADDAA103000291AY161031AY221031GA1021+007809999GA2071+015009999GF108991071081008001999999MA1099291099251MD1310131+9999MW1021OA149901601REMSYN106AAXX  31034 07761 21565 80119 10106 20019 39925 49936 53013 70262 878// 333 69927 82826 87650 91131 95090;MET058LFKJ 310300Z 01020KT 9999 FEW026 BKN053 11/02 Q0993 NOSIG;EQDQ01+000000PRSWM2Q02    003PRSWM1
0299077610999992000123112004+41920+008790SY-MT+0009LFKJ V0202101N005112200019N0300001N1+01461+00341100671ADDAA199000021GA1021+015009999GF199999011051017501031001MA1100611100561MD1110311+9999MW1001OA149901701REMSYN088AAXX  31124 07761 32780 12110 10146 20034 30056 40067 51031 81530 333 81650 91133 95030;MET059LFKJ 311200Z 21007KT 180V250 9999 FEW053 15/03 Q1006 NOSIG;EQDQ01+000012SCOTCVQ02+000000PRSWM2
0173077650999992000010218004+41920+009400FM-12+0022LFKS V0202701N004119999999N0500001N1+00571+00141102881ADDAA106000091KA1999M+01381KA2999N+00331MA1999999102601MD1310131+9999REMSYN076AAXX  02184 07765 36/84 /2708 10057 20014 30260 40288 53013 333 10138 20033;EQDQ01  00002PRCP06
0131077650999992000010221004+41920+009400FM-12+0022LFKS V0202701N004119999999N0500001N1+00521+00111103031ADDAA106000091MA1999999102751MD1310151+9999REMSYN060AAXX  02214 07765 36/84 /2708 10052 20011 30275 40303 53015;EQDQ01  00002PRCP06
0313077650999992000010513004+41920+009400SY-MT+0022LFKS V0200301N005110750019N0200001N1+01351+00731102271ADDAA106000091GA1021+006909999GA2071+075009999GF199999021051008001001011MA1102201102001MD1610061+9999MW1001REMSYN088AAXX  05134 07765 32570 50310 10135 20073 30200 40227 56006 82501 333 82623 85075 95011;MET052LFKS 051300Z 03009KT 9999 FEW023 BKN250 13/07 Q1022;EQDQ01+000052SCOTCVQ02+000000PRSWM2Q03  00002PRCP06
0284077650999992000011010004+41920+009400SY-MT+0022LFKS V0201101N001012200019N0200001N1+01261+00641102731ADDAA106000091GA1021+018009999GF199999011051017501001001MA1102711102461MD1110121+9999MW1001REMSYN082AAXX  10104 07765 32770 11102 10126 20064 30246 40273 51012 81500 333 81656 95000;MET045LFKS 101000Z 11002KT 9999 FEW060 13/06 Q1027;EQDQ01+000012SCOTCVQ02+000000PRSWM2Q03  00002PRCP06
0131077650999992000011922004+41920+009400FM-12+0022LFKS V0202701N005119999999N0600001N1+00511-00251102341ADDAA199000091MA1999999102061MD1110171+9999REMSYN060AAXX  19224 07765 36/86 /2710 10051 21025 30206 40234 51017;EQDQ01  00002PRCP99
0131077650999992000012422004+41920+009400FM-12+0022LFKS V0200401N004119999999N0450001N1+00571+00271101691ADDAA199000091MA1999999101421MD1310211+9999REMSYN060AAXX  24224 07765 36/83 /0408 10057 20027 30142 40169 53021;EQDQ01  00002PRCP99
0313077650999992000012808004+41920+009400SY-MT+0022LFKS V0202601N002110690019N0200001N1+00661+00431102631ADDAA199000091GA1021+009909999GA2071+069009999GF199999021051012501001021MA1102611102361MD1410001+9999MW1001REMSYN088AAXX  28084 07765 32670 52604 10066 20043 30236 40263 54000 82502 333 82633 85073 95047;MET052LFKS 280800Z 26004KT 9999 FEW033 BKN230 07/04 Q1026;EQDQ01+000052SCOTCVQ02+000000PRSWM2Q03  00002PRCP99
0268077650999992000020412004+41920+009400SY-MT+0022LFKS V0200701N004112200019N0250001N1+01451+00871103561ADDAA199000091GA1021+010809999GF103991031021012501001001MA1103491103291MD1010081+9999MW1001REMSYN082AAXX  04124 07765 32675 30708 10145 20087 30329 40356 50008 83200 333 83836 95712;MET045LFKS 041200Z 07007KT 9999 SCT036 14/09 Q1035;EQDQ01+000000PRSWM2Q02  00002PRCP99
0131077650999992000020509004+41920+009400FM-12+0022LFKS V0201901N001019999999N0400001N1+01181+00311103551ADDAA199000091MA1999999103281MD1010021+9999REMSYN060AAXX  05094 07765 36/82 /1902 10118 20031 30328 40355 50002;EQDQ01  00002PRCP99
0131077650999992000020700004+41920+009400FM-12+0022LFKS V0203001N001019999999N0220001N1+00991+00661102841ADDAA199000091MA1999999102571MD1810111+9999REMSYN060AAXX  07004 07765 36/72 /3002 10099 20066 30257 40284 58011;EQDQ01  00002PRCP99
0131077650999992000021002004+41920+009400FM-12+0022LFKS V0203301N004119999999N0250001N1+00881+00221102281ADDAA199000091MA1999999102011MD1010111+9999REMSYN060AAXX  10024 07765 36/75 /3308 10088 20022 30201 40228 50011;EQDQ01  00002PRCP99
0235077650999992000021008004+41920+009400SY-MT+0022LFKS V0203401N005112200019N0200001N1+00921-00621102471ADDAA199000091GF100991001001999999001001MA1102401102201MD1310161+9999MW1001REMSYN070AAXX  10084 07765 32970 03410 10092 21062 30220 40247 53016 333 95000;MET040LFKS 100800Z 34010KT CAVOK 09/M06 Q1024;EQDQ01+000000PRSWM2Q02  00002PRCP99
0131077650999992000021202004+41920+009400FM-12+0022LFKS V0202701N004119999999N0600001N1+00671+00371102291ADDAA199000091MA1999999102021MD1810041+9999REMSYN060AAXX  12024 07765 36/86 /2708 10067 20037 30202 40229 58004;EQDQ01  00002PRCP99
0131077650999992000021323004+41920+009400FM-12+0022LFKS V0202701N003119999999N0500001N1+00771+00131102031ADDAA199000091MA1999999101761MD1510031+9999REMSYN060AAXX  13234 07765 36/84 /2706 10077 20013 30176 40203 55003;EQDQ01  00002PRCP99
0131077650999992000021523004+41920+009400FM-12+0022LFKS V0202701N002119999999N0230001N1+00811+00641101741ADDAA199000091MA1999999101471MD1810051+9999REMSYN060AAXX  15234 07765 36/73 /2704 10081 20064 30147 40174 58005;EQDQ01  00002PRCP99
0131077650999992000022707004+41920+009400FM-12+0022LFKS V0202701N002119999999N0250001N1+00921+00611102961ADDAA199000091MA1999999102691MD1310071+9999REMSYN060AAXX  27074 07765 36/75 /2704 10092 20061 30269 40296 53007;EQDQ01  00002PRCP99
0131077650999992000022920004+41920+009400FM-12+0022LFKS V0202701N002119999999N0230001N1+00951+00621102411ADDAA199000091MA1999999102141MD1810081+9999REMSYN060AAXX  29204 07765 36/73 /2704 10095 20062 30214 40241 58008;EQDQ01  00002PRCP99
0131077650999992000030413004+41920+009400FM-12+0022LFKS V0202901N003119999999N0260001N1+01921+00421101421ADDAA199000091MA1999999101161MD1810031+9999REMSYN060AAXX  04134 07765 36/76 /2906 10192 20042 30116 40142 58003;EQDQ01  00002PRCP99
0131077650999992000030510004+41920+009400FM-12+0022LFKS V0200701N004119999999N0200001N1+01531+00881102351ADDAA199000091MA1999999102091MD1210201+9999REMSYN060AAXX  05104 07765 36/70 /0708 10153 20088 30209 40235 52020;EQDQ01  00002PRCP99
0268077650999992000030821004+41920+009400SY-MT+0022LFKS V0202701N003112200019N0120001N1+00871+00651102961ADDAA199000091GA1021+012009999GF102991021051012501001001MA1102911102691MD1510011+9999MW1001REMSYN082AAXX  08214 07765 32662 22706 10087 20065 30269 40296 55001 82500 333 82640 95000;MET045LFKS 082100Z 27006KT 9999 FEW040 09/07 Q1029;EQDQ01+000000PRSWM2Q02  00002PRCP99
0131077650999992000030900004+41920+009400FM-12+0022LFKS V0202701N004119999999N0210001N1+00771+00521102941ADDAA199000091MA1999999102671MD1810021+9999REMSYN060AAXX  09004 07765 36/71 /2708 10077 20052 30267 40294 58002;EQDQ01  00002PRCP99
0291077650999992000031309004+41920+009400SY-MT+0022LFKS V0200801N001010120019N0120001N1+01371+00941102361ADDAA199000091GA1021+009009999GA2071+012009999GF107991071081008001999999MA1102301102091MD1110081+9999MW1001REMSYN082AAXX  13094 07765 32562 70802 10137 20094 30209 40236 51008 878// 333 82830 86640;MET052LFKS 130900Z 11001KT 9999 FEW030 BKN040 14/09 Q1023;EQDQ01+000000PRSWM2Q02  00002PRCP99
0234077650999992000031705004+41920+009400SY-MT+0022LFKS V0202701N003112200019N0400001N1+00701+00131101901ADDAA199000091GF100991001001999999001001MA1101801101631MD1010041+9999MW1001REMSYN070AAXX  17054 07765 32982 02706 10070 20013 30163 40190 50004 333 95000;MET039LFKS 170500Z 27006KT CAVOK 07/01 Q1018;EQDQ01+000000PRSWM2Q02  00002PRCP99
0270077650999992000031710004+41920+009400SY-MT+0022LFKS V0201501N003112200019N0400001N1+01631+00921101761ADDAA199000091GA1011+075009009GF101991001001999999001011MA1101691101501MD1810101+9999MW1001REMSYN082AAXX  17104 07765 32/82 11506 10163 20092 30150 40176 58010 80001 333 81075 95000;MET047LFKS 171000Z 15006KT 100V190 CAVOK 16/10 Q1017;EQDQ01+000000PRSWM2Q02  00002PRCP99
0128077650999992000032200004+41920+009400FM-12+0022LFKS V0202801N003119999999N0350001N1+00741+00351102221ADDAA103000191MA1999999101951MD1310011+9999REMSYN076AAXX  22004 07765 /6/81 /2806 10074 20035 30195 40222 53001 69921 333 69927;
0131077650999992000032622004+41920+009400FM-12+0022LFKS V0202701N005119999999N0600001N1+01321-00011101041ADDAA199000091MA1999999100781MD1810111+9999REMSYN060AAXX  26224 07765 36/86 /2710 10132 21001 30078 40104 58011;EQDQ01  00002PRCP99
0380077650999992000040306004+41920+009400SY-MT+0022LFKS V0202701N001010099019N0150001N1+01201+01091099811ADDAA112000191AA224000291GA1021+006309999GA2071+009909999GF107991071051008001999999GJ102289IA1099IA2999+01109KA1999M+01371KA2999N+01161MA1099801099551MD1610121+9999MW1001REMSYN124AAXX  03064 07765 12565 72702 10120 20109 39955 49981 56012 69922 875// 333 10137 20116 31011 55038 70002 84621 87633 95080;MET052LFKS 030600Z 27003KT 9999 SCT021 BKN033 12/11 Q0998;EQDQ01+000000PRSWM2
0289077650999992000040317004+41920+009400SY-MT+0022LFKS V0201001N002112200019N0070001N1+01491+01291099881ADDAA199000021GA1021+003009999GA2021+018009999GF104991021071004501071001MA1099801099621MD1110161+9999MW1001REMSYN088AAXX  03174 07765 32457 41004 10149 20129 39962 49988 51016 82770 333 82710 84356 95080;MET060LFKS 031700Z 10004KT 070V140 7000 FEW010 SCT066 15/13 Q0998;EQDQ01+000000PRSWM2
0297077650999992000040605004+41920+009400SY-MT+0022LFKS V0200301N004112200019N0300001N1+01041+00521101091ADDAA199000091GA1021+009909999GA2021+069009999GF104991011051012501001011MA1101021100821MD1310121+9999MW1001REMSYN088AAXX  06054 07765 32680 40308 10104 20052 30082 40109 53012 81501 333 81633 84073 95910;MET052LFKS 060500Z 03007KT 9999 FEW033 SCT230 10/05 Q1010;EQDQ01+000000PRSWM2Q02  00002PRCP99
0122077650999992000041022004+41920+009400FM-12+0022LFKS V0203401N002119999999N0220001N1+01241+01081100501ADDAA101000791MA1999999100241MD1810071+9999REMSYN070AAXX  10224 07765 26/72 /3404 10124 20108 30024 40050 58007 333 69905;
0368077650999992000041718004+41920+009400SY-MT+0022LFKS V0201401N003110138019N0090001N1+01391+01331100541ADDAA103000191AY161061AY221061GA1021+002409999GA2021+006309999GA3081+013809999GF108991999999999999999999KA1999M+01471KA2999N+01361MA1100511100281MD1310201+9999MW1611REMSYN094AAXX  17184 07765 /1/// /1406 10139 20133 30028 40054 53020 60112 76162 333 10147 20136 69927;MET059LFKS 171800Z 14006KT 9000 SCT008 SCT021 OVC046 14/13 Q1005;EQDQ01+000000PRSWM2Q02    003PRSWM1
0131077650999992000042308004+41920+009400FM-12+0022LFKS V0200701N002119999999N0210001N1+01671+01361101631ADDAA199000091MA1999999101371MD1010001+9999REMSYN060AAXX  23084 07765 36/71 /0704 10167 20136 30137 40163 50000;EQDQ01  00002PRCP99
0354077650999992000042821004+41920+009400SY-MT+0022LFKS V0200201N00211030001CN0120001N1+01341+01251101191ADDAA103999929AY161031AY221031GA1021+003009999GA2021+007809999GA3081+030009999GF108991051071004501051999MA1101081100931MD1110091+9999MW1011REMSYN106AAXX  28214 07765 21462 80204 10134 20125 30093 40119 51009 70162 8575/ 333 69907 82710 84726 88360 95010;MET059LFKS 282100Z 02003KT 9999 FEW010 SCT026 OVC100 13/13 Q1011;EQDQ01+000000PRSWM2Q02    003PRSWM1
0297077650999992000050904004+41920+009400SY-MT+0022LFKS V0202601N002110750019N0150001N1+01361+01271101771ADDAA199000021GA1021+006009999GA2071+075009999GF199999011081008001001021MA1101691101511MD1610081+9999MW1001REMSYN088AAXX  09044 07765 32565 52604 10136 20127 30151 40177 56008 81802 333 81820 85075 95000;MET052LFKS 090400Z 27004KT 9999 FEW020 BKN250 14/13 Q1017;EQDQ01+000052SCOTCVQ02+000000PRSWM2
0321077650999992000051809004+41920+009400SY-MT+0022LFKS V0201501N003110750019N0400001N1+02221+01461101261ADDAA199000091GA1021+018009999GA2071+075009999GF199999011041017501041021MA1101191101001MD1810051+9999MW1001REMSYN088AAXX  18094 07765 32782 61506 10222 20146 30100 40126 58005 81442 333 81656 86075 95000;MET060LFKS 180900Z 15005KT 120V190 9999 FEW060 BKN250 22/15 Q1012;EQDQ01+000062SCOTCVQ02+000000PRSWM2Q03  00002PRCP99
0254077650999992000052013004+41920+009400SY-MT+0022LFKS V0201001N004112200019N0112651N1+02211+01261100851ADDAA199000091GA1021+018009999GF102991999999999999999999MA1100811100601MD1610011+9999MW1001REMSYN060AAXX  20134 07765 32/// /1008 10221 20126 30060 40085 56001;MET053LFKS 201300Z 09007KT 060V140 9999 FEW066 22/12 Q1008;EQDQ01+000000PRSWM2Q02  00002PRCP99
0131077650999992000053119004+41920+009400FM-12+0022LFKS V0200101N003119999999N0500001N1+02161+01131101621ADDAA199000091MA1999999101361MD1310181+9999REMSYN060AAXX  31194 07765 36/84 /0106 10216 20113 30136 40162 53018;EQDQ01  00002PRCP99
0131077650999992000060521004+41920+009400FM-12+0022LFKS V0202701N001019999999N0160001N1+02001+01761101561ADDAA199000091MA1999999101301MD1610071+9999REMSYN060AAXX  05214 07765 36/66 /2702 10200 20176 30130 40156 56007;EQDQ01  00002PRCP99
0363077650999992000061306004+41920+009400SY-MT+0022LFKS V0200101N00211007501CN0400001N1+02091+01541102261ADDAA124000091GA1021+007809999GA2021+012009999GF105991051021008001001001GJ103369IA1019IA2999+01609KA1999M+02221KA2999N+01691MA1102201102001MD1310071+9999MW1001REMSYN118AAXX  13064 07765 32582 50104 10209 20154 30200 40226 53007 85200 333 10222 20169 30016 55056 70000 83826 83640 95011;MET052LFKS 130600Z 01003KT 9999 SCT026 SCT040 21/15 Q1022;EQDQ01+000000PRSWM2
0308077650999992000061317004+41920+009400SY-MT+0022LFKS V0201701N003110690019N0450001N1+02201+01611102281ADDAA199000021GA1021+010809029GA2071+069009999GF199999021021012501001011MA1102201102021MD1610021+9999MW1001REMSYN088AAXX  13174 07765 32683 61706 10220 20161 30202 40228 56002 82201 333 82836 86073 95010;MET063LFKS 131700Z 17007KT 140V230 9999 FEW036TCU BKN230 22/16 Q1022;EQDQ01+000062SCOTCVQ02+000000PRSWM2
0131077650999992000062501004+41920+009390FM-12+0022LFKS V0203401N003119999999N0290001N1+02091+01501101031ADDAA199000091MA1999999100771MD1810111+9999REMSYN060AAXX  25014 07765 36/79 /3406 10209 20150 30077 40103 58011;EQDQ01  00002PRCP99
0268077650999992000062610004+41920+009390SY-MT+0022LFKS V0201101N005112200019N0200001N1+02641+01581101591ADDAA199000091GA1021+010809999GF102991021011012501001001MA1101491101341MD1310081+9999MW1001REMSYN082AAXX  26104 07765 32670 21110 10264 20158 30134 40159 53008 82100 333 82836 95010;MET045LFKS 261000Z 12010KT 9999 FEW036 26/16 Q1015;EQDQ01+000000PRSWM2Q02  00002PRCP99
0131077650999992000062623004+41920+009390FM-12+0022LFKS V0202801N002119999999N0350001N1+01891+01481101761ADDAA199000091MA1999999101501MD1210101+9999REMSYN060AAXX  26234 07765 36/81 /2804 10189 20148 30150 40176 52010;EQDQ01  00002PRCP99
0131077650999992000070108004+41920+009390FM-12+0022LFKS V0200701N003119999999N0200001N1+02641+01851101571ADDAA199000091MA1999999101321MD1110071+9999REMSYN060AAXX  01084 07765 36/70 /0706 10264 20185 30132 40157 51007;EQDQ01  00002PRCP99
0112077650999992000070417004+41920+009390FM-12+0022LFKS V0200401N004119999999N0200001N1+02921+02121100891ADDAA199000021MA1999999100641MD1110091+9999REMSYN060AAXX  04174 07765 36/70 /0408 10292 20212 30064 40089 51009;
0131077650999992000071513004+41920+009390FM-12+0022LFKS V02099999999999999999N0350001N1+02521+00991100321ADDAA199000091MA1999999100071MD1710011+9999REMSYN060AAXX  15134 07765 36/81 ///// 10252 20099 30007 40032 57001;EQDQ01  00002PRCP99
0195077650999992000071709004+41920+009390FM-12+0022LFKS V02099999999992200019N0500001N1+02401+01411101671ADDAA199000091GA1021+015009089GF102991021011017501001001MA1999999101421MD1110081+9999REMSYN082AAXX  17094 07765 32784 2//// 10240 20141 30142 40167 51008 82100 333 82850 95700;EQDQ01  00002PRCP99
0260077650999992000071713004+41920+009390SY-MT+0022LFKS V02099999999992200019N0300001N1+02531+01111101661ADDAA199000091GA1021+018009029GF103991021021017501001011MA1101591101411MD1810021+9999MW1001REMSYN082AAXX  17134 07765 32780 3//// 10253 20111 30141 40166 58002 82201 333 82856 95700;MET037LFKS 171300Z 9999 FEW063 25/12 Q1016;EQDQ01+000000PRSWM2Q02  00002PRCP99
0173077650999992000071818004+41920+009390FM-12+0022LFKS V02099999999999999999N0550001N1+02361+01661101501ADDAA199000091KA1999M+02531KA2999N+02011MA1999999101251MD1510041+9999REMSYN076AAXX  18184 07765 36/85 ///// 10236 20166 30125 40150 55004 333 10253 20201;EQDQ01  00002PRCP99
0131077650999992000080514004+41920+009390FM-12+0022LFKS V0202601N006219999999N0400001N1+02841+00871101221ADDAA199000091MA1999999100971MD1810071+9999REMSYN060AAXX  05144 07765 36/82 /2612 10284 20087 30097 40122 58007;EQDQ01  00002PRCP99
0173077650999992000080718004+41920+009390FM-12+0022LFKS V0201701N002119999999N0600001N1+02381+01681101701ADDAA199000091KA1999M+02791KA2999N+01921MA1999999101451MD1610041+9999REMSYN076AAXX  07184 07765 36/86 /1704 10238 20168 30145 40170 56004 333 10279 20192;EQDQ01  00002PRCP99
0131077650999992000081101004+41920+009390FM-12+0022LFKS V0202701N003119999999N0450001N1+01971+01451101701ADDAA199000091MA1999999101441MD1610051+9999REMSYN060AAXX  11014 07765 36/83 /2706 10197 20145 30144 40170 56005;EQDQ01  00002PRCP99
0131077650999992000081600004+41920+009390FM-12+0022LFKS V0202801N002119999999N0400001N1+02231+01471101751ADDAA199000091MA1999999101491MD1010011+9999REMSYN060AAXX  16004 07765 36/82 /2804 10223 20147 30149 40175 50001;EQDQ01  00002PRCP99
0272077650999992000081818004+41920+009390SY-MT+0022LFKS V0201701N001012200019N0200001N1+02641+02181101571ADDAA199000091GF100991001001999999001001KA1999M+03171KA2999N+02381MA1101491101321MD1610011+9999MW1001REMSYN082AAXX  18184 07765 32970 01702 10264 20218 30132 40157 56001 333 10317 20238 95000;MET039LFKS 181800Z 15002KT CAVOK 27/22 Q1015;EQDQ01+000000PRSWM2Q02  00002PRCP99
0131077650999992000082023004+41920+009390FM-12+0022LFKS V0202801N002119999999N0170001N1+02271+01951101661ADDAA199000091MA1999999101401MD1010001+9999REMSYN060AAXX  20234 07765 36/67 /2804 10227 20195 30140 40166 50000;EQDQ01  00002PRCP99
0206077650999992000082302004+41920+009390SY-MT+0022LFKS V0203101N002119999999Y0210001N1+02191+01831101551ADDAA199000091MA1101491101291MD1510001+9999MW1001REMSYN060AAXX  23024 07765 36/71 /3104 10219 20183 30129 40155 55000;MET047LFKS 230200Z 35004KT 280V040 CAVOK 22/19 Q1015;EQDQ01+000000PRSWM2Q02  00002PRCP99
0284077650999992000082309004+41920+009390SY-MT+0022LFKS V0201001N004112200019N0090001N1+02791+02191101661ADDAA199000091GA1021+030009999GF199999011001999999051001MA1101591101411MD1810011+9999MW1001REMSYN082AAXX  23094 07765 32959 11008 10279 20219 30141 40166 58001 81050 333 81360 95000;MET045LFKS 230900Z 10006KT 9000 FEW100 28/22 Q1016;EQDQ01+000012SCOTCVQ02+000000PRSWM2Q03  00002PRCP99
0217077650999992000082412004+41920+009390FM-12+0022LFKS V0201201N002110780019N0150001N1+02941+02141102031ADDAA199000091GA1011+033009039GA2051+078009009GF105991011001999999041021MA1999999101781MD1510061+9999REMSYN088AAXX  24124 07765 32965 51204 10294 20214 30178 40203 55006 81042 333 81361 85076 95700;EQDQ01  00002PRCP99
0131077650999992000083103004+41920+009390FM-12+0022LFKS V0202801N003119999999N0450001N1+02141+01741101101ADDAA199000091MA1999999100841MD1810051+9999REMSYN060AAXX  31034 07765 36/83 /2806 10214 20174 30084 40110 58005;EQDQ01  00002PRCP99
0270077650999992000091709004+41920+009390SY-MT+0022LFKS V0201201N004112200019N0200001N1+02611+02021100841ADDAA199000091GA1011+030009079GF103991011001999999041021MA1100811100591MD1210011+9999MW1001REMSYN082AAXX  17094 07765 32970 31208 10261 20202 30059 40084 52001 81042 333 81360 95700;MET047LFKS 170900Z 12008KT 090V190 CAVOK 26/20 Q1008;EQDQ01+000000PRSWM2Q02  00002PRCP99
0131077650999992000092315004+41920+009390FM-12+0022LFKS V0201201N002119999999N0600001N1+02401+01201101811ADDAA199000091MA1999999101551MD1610111+9999REMSYN060AAXX  23154 07765 36/86 /1204 10240 20120 30155 40181 56011;EQDQ01  00002PRCP99
0234077650999992000092607004+41920+009390SY-MT+0022LFKS V0202801N001012200019N0450001N1+02081+01471102291ADDAA199000091GF100991001001999999001001MA1102201102031MD1210061+9999MW1001REMSYN070AAXX  26074 07765 32983 02802 10208 20147 30203 40229 52006 333 95000;MET039LFKS 260700Z 28003KT CAVOK 21/14 Q1022;EQDQ01+000000PRSWM2Q02  00002PRCP99
0258077650999992000092706004+41920+009390FM-12+0022LFKS V0202701N002112200019N0200001N1+01691+01321102101ADDAA124000091GA1041+069009009GF104991001001999999001011GJ106129IA1019IA2999+01509KA1999M+02051KA2999N+01631MA1999999101841MD1310021+9999REMSYN112AAXX  27064 07765 32970 42704 10169 20132 30184 40210 53002 80001 333 10205 20163 30015 55102 70000 84073 95910;
0166077650999992000100518004+41920+009390FM-12+0022LFKS V0202601N001019999999N0130001N1+01861+01671101351ADDAA103000191KA1999M+02421KA2999N+01781MA1999999101091MD1110031+9999REMSYN088AAXX  05184 07765 /6/63 /2602 10186 20167 30109 40135 51003 69922 333 10242 20178 69927;
0354077650999992000101008004+41920+009390SY-MT+0022LFKS V0202901N002110690019N0250001N1+01541+01391100531ADDAA101000691AY161999AY221999GA1021+003909999GA2021+012009999GA3071+069009999GF107991041051004501031021MA1100511100271MD1710091+9999MW1211REMSYN106AAXX  10084 07765 21475 72904 10154 20139 30027 40053 57009 72162 84532 333 69965 81813 83640 86073 95785;MET059LFKS 100800Z 28004KT 9999 FEW013 SCT040 BKN230 15/14 Q1005;EQDQ01+000000PRSWM2Q02    003PRSWM1
0122077650999992000101403004+41920+009390FM-12+0022LFKS V0202801N002119999999N0110001N1+01951+01831101031ADDAA103002091MA1999999100771MD1310011+9999REMSYN070AAXX  14034 07765 26/61 /2804 10195 20183 30077 40103 53001 333 60027;
0321077650999992000101613004+41920+009390SY-MT+0022LFKS V0201901N004110330019N0600001N1+02111+00971101641ADDAA199000091GA1021+018009999GA2071+033009999GF199999011021017501031001MA1101591101381MD1610061+9999MW1001REMSYN088AAXX  16134 07765 32786 51908 10211 20097 30138 40164 56006 81230 333 81856 85361 95010;MET060LFKS 161300Z 20007KT 130V240 9999 FEW060 BKN110 21/09 Q1016;EQDQ01+000052SCOTCVQ02+000000PRSWM2Q03  00002PRCP99
0131077650999992000101902004+41920+009390FM-12+0022LFKS V0202801N003119999999N0600001N1+01311+00901102191ADDAA199000091MA1999999101921MD1810051+9999REMSYN060AAXX  19024 07765 36/86 /2806 10131 20090 30192 40219 58005;EQDQ01  00002PRCP99
0268077650999992000101905004+41920+009390SY-MT+0022LFKS V0202801N003112200019N0600001N1+01241+00921102201ADDAA199000091GA1021+010809999GF104991031051012501001021MA1102101101931MD1310011+9999MW1001REMSYN082AAXX  19054 07765 32686 42806 10124 20092 30193 40220 53001 83502 333 83636 95000;MET045LFKS 190500Z 29004KT 9999 SCT036 12/09 Q1021;EQDQ01+000000PRSWM2Q02  00002PRCP99
0131077650999992000102210004+41920+009390FM-12+0022LFKS V0200401N003119999999N0220001N1+02031+01551102931ADDAA199000091MA1999999102671MD1110031+9999REMSYN060AAXX  22104 07765 36/72 /0406 10203 20155 30267 40293 51003;EQDQ01  00002PRCP99
0324077650999992000102614004+41920+009390SY-MT+0022LFKS V0200501N003110060019N0240001N1+02031+01671101591ADDAA199000091GA1021+005409029GA2071+006009999GF199999051021004501001001MA1101591101331MD1610161+9999MW1001REMSYN088AAXX  26144 07765 32474 50506 10203 20167 30133 40159 56016 85200 333 82818 85820 95011;MET063LFKS 261400Z 05005KT 020V090 9999 FEW018TCU BKN020 20/17 Q1016;EQDQ01+000052SCOTCVQ02+000000PRSWM2Q03  00002PRCP99
0131077650999992000102813004+41920+009390FM-12+0022LFKS V0200601N003119999999N0200001N1+02081+01581102081ADDAA199000091MA1999999101821MD1810111+9999REMSYN060AAXX  28134 07765 36/70 /0606 10208 20158 30182 40208 58011;EQDQ01  00002PRCP99
0131077650999992000110113004+41920+009390FM-12+0022LFKS V0202601N006219999999N0550001N1+02041+00181101191ADDAA199000091MA1999999100931MD1310021+9999REMSYN060AAXX  01134 07765 36/85 /2612 10204 20018 30093 40119 53002;EQDQ01  00002PRCP99
0112077650999992000110409004+41920+009390FM-12+0022LFKS V0202701N005119999999N0350001N1+01731+00321101241ADDAA199000021MA1999999100981MD1310191+9999REMSYN060AAXX  04094 07765 36/81 /2710 10173 20032 30098 40124 53019;
0131077650999992000110505004+41920+009390FM-12+0022LFKS V0200801N001019999999N0600001N1+01031+00361101701ADDAA199000091MA1999999101431MD1610011+9999REMSYN060AAXX  05054 07765 36/86 /0802 10103 20036 30143 40170 56001;EQDQ01  00002PRCP99
0299077650999992000110510004+41920+009390SY-MT+0022LFKS V0200601N002112200019N0350001N1+01741+00801101781ADDAA199000091GA1021+018009999GA2021+069009999GF103991021011017501001021MA1101691101521MD1010011+9999MW1001REMSYN082AAXX  05104 07765 32781 30604 10174 20080 30152 40178 50001 82102 333 82656 83073;MET060LFKS 051000Z 06005KT 020V100 9999 FEW060 SCT230 17/08 Q1017;EQDQ01+000000PRSWM2Q02  00002PRCP99
0261077650999992000110616004+41920+009390SY-MT+0022LFKS V02099999999990108019N0050001N1+01681+01501099201ADDAA101001091GA1021+007809029GA2071+010809999GF107991999999999999999999MA1099191098951MD1610361+9999MW1001REMSYN070AAXX  06164 07765 23/// ///// 10168 20150 39895 49920 56036 333 60015;MET050LFKS 061600Z 9999 RA FEW026TCU BKN036 17/15 Q0992;EQDQ01+000000PRSWM2
0112077650999992000111019004+41920+009390FM-12+0022LFKS V0203401N002119999999N0260001N1+00911+00451102361ADDAA199000021MA1999999102091MD1110151+9999REMSYN060AAXX  10194 07765 36/76 /3404 10091 20045 30209 40236 51015;
0262077650999992000111500004+41920+009390SY-MT+0022LFKS V0202901N002112200019N0600001N1+01291+00801101421ADDAA199000091GA1021+039009079GF102991021001999999041001MA1101391101161MD1010041+9999MW1001REMSYN082AAXX  15004 07765 32986 22904 10129 20080 30116 40142 50004 82040 333 82363 95000;MET039LFKS 150000Z 29005KT CAVOK 13/08 Q1014;EQDQ01+000000PRSWM2Q02  00002PRCP99
0310077650999992000112110004+41920+009390SY-MT+0022LFKS V0200201N001010390019N0600001N1+01451+00971100791ADDAA199000021GA1021+007809999GA2021+018009999GA3071+039009999GF107991041051008001071999MA1100711100531MD1110091+9999MW1001REMSYN094AAXX  21104 07765 32586 70202 10145 20097 30053 40079 51009 8457/ 333 82626 83656 85363 95010;MET059LFKS 211000Z 03002KT 9999 FEW026 SCT060 BKN130 15/10 Q1007;EQDQ01+000000PRSWM2
0262077650999992000112207004+41920+009390SY-MT+0022LFKS V0202801N004110690019N0500001N1+00881+00401101781ADDAA199000091GA1061+069009019GF106991001001999999001011MA1101691101511MD1310211+9999MW1001REMSYN082AAXX  22074 07765 32984 62808 10088 20040 30151 40178 53021 80001 333 86073 95000;MET039LFKS 220700Z 28008KT CAVOK 09/04 Q1017;EQDQ01+000000PRSWM2Q02  00002PRCP99
0313077650999992000112212004+41920+009390SY-MT+0022LFKS V0201001N002110600019N0250001N1+01581+00781101831ADDAA199000091GA1021+012009999GA2071+060009999GF199999011011012501001011MA1101801101571MD1810061+9999MW1001REMSYN088AAXX  22124 07765 32675 61004 10158 20078 30157 40183 58006 81101 333 81840 86070 95000;MET052LFKS 221200Z 10003KT 9999 FEW040 BKN200 16/08 Q1018;EQDQ01+000062SCOTCVQ02+000000PRSWM2Q03  00002PRCP99
0131077650999992000120219004+41920+009390FM-12+0022LFKS V0203001N001019999999N0060001N1+01271+01131102091ADDAA199000091MA1999999101821MD1810031+9999REMSYN060AAXX  02194 07765 36/56 /3002 10127 20113 30182 40209 58003;EQDQ01  00002PRCP99
0131077650999992000120222004+41920+009390FM-12+0022LFKS V0202701N002119999999N0450001N1+01231+01041102041ADDAA199000091MA1999999101771MD1810051+9999REMSYN060AAXX  02224 07765 36/83 /2704 10123 20104 30177 40204 58005;EQDQ01  00002PRCP99
0342077650999992000120613004+41920+009390SY-MT+0022LFKS V0201501N001010048019N0200001N1+01561+01291102141ADDAA199000091GA1021+003309999GA2071+004809999GA3071+069009999GF199999051051004501001021MA1102101101881MD1810141+9999MW1001REMSYN094AAXX  06134 07765 32470 61502 10156 20129 30188 40214 58014 85502 333 84811 85616 86073 95010;MET059LFKS 061300Z 15003KT 9999 SCT011 BKN016 BKN230 16/13 Q1021;EQDQ01+000062SCOTCVQ02+000000PRSWM2Q03  00002PRCP99
0185077650999992000120705304+41920+009390FM-15+0022LFKS V0202701N002610690019N0112651N1+01201+00901999999ADDGA1021+006009999GA2021+012009999GA3071+069009999GF107991999999999999999999MA1102201999999MW1001REMMET059LFKS 070530Z 27005KT 9999 SCT020 SCT040 BKN230 12/09 Q1022;EQDQ01+000000PRSWM2
0268077650999992000121111004+41920+009390SY-MT+0022LFKS V0200901N002112200019N0350001N1+01741+01141103081ADDAA199000091GA1021+009909999GF102991011011012501001011MA1103011102821MD1010041+9999MW1001REMSYN082AAXX  11114 07765 32681 20904 10174 20114 30282 40308 50004 81101 333 81833 95700;MET045LFKS 111100Z 09003KT 9999 FEW033 17/12 Q1030;EQDQ01+000000PRSWM2Q02  00002PRCP99
0252077650999992000121812004+41920+009390SY-MT+0022LFKS V0200601N002112200019N0600001N1+01431+00871101981ADDAA199000021GA1021+018009999GF104991031021017501001021MA1101901101721MD1810011+9999MW1001REMSYN082AAXX  18124 07765 32786 40604 10143 20087 30172 40198 58001 83202 333 83856 95700;MET045LFKS 181200Z 06003KT 9999 SCT060 14/09 Q1019;EQDQ01+000000PRSWM2
0262077650999992000121905004+41920+009390SY-MT+0022LFKS V0202701N003112200019N0170001N1+00971+00781102201ADDAA199000091GA1021+010509999GF104991041051012501001001MA1102101101931MD1610091+9999MW1001REMSYN076AAXX  19054 07765 32667 42706 10097 20078 30193 40220 56009 84500 333 84635;MET045LFKS 190500Z 27005KT 9999 SCT035 10/08 Q1021;EQDQ01+000000PRSWM2Q02  00002PRCP99
0131077650999992000122004004+41920+009390FM-12+0022LFKS V0202801N004119999999N0600001N1+00811+00491101871ADDAA199000091MA1999999101601MD1810071+9999REMSYN060AAXX  20044 07765 36/86 /2808 10081 20049 30160 40187 58007;EQDQ01  00002PRCP99
0131077650999992000122101004+41920+009390FM-12+0022LFKS V0203101N001019999999N0140001N1+01251+01091101791ADDAA199000091MA1999999101521MD1610071+9999REMSYN060AAXX  21014 07765 36/64 /3102 10125 20109 30152 40179 56007;EQDQ01  00002PRCP99
0131077650999992000122610004+41920+009390FM-12+0022LFKS V0200101N003119999999N0600001N1+01301+00871099731ADDAA199000091MA1999999099471MD1810031+9999REMSYN060AAXX  26104 07765 36/86 /0106 10130 20087 39947 49973 58003;EQDQ01  00002PRCP99
0131077650999992000122823004+41920+009390FM-12+0022LFKS V0202801N002119999999N0600001N1+01111-00161099781ADDAA199000091MA1999999099521MD1810021+9999REMSYN060AAXX  28234 07765 36/86 /2804 10111 21016 39952 49978 58002;EQDQ01  00002PRCP99
0281077650999992000122912004+41920+009390SY-MT+0022LFKS V0200501N004112200019N0250001N1+01331+00641099411ADDAA106000191GA1021+012009999GA2021+069009999GF104991011051012501041021MA1099391099151MD1810041+9999MW1001REMSYN088AAXX  29124 07765 12675 40508 10133 20064 39915 49941 58004 69921 81542 333 81640 84073;MET052LFKS 291200Z 05007KT 9999 FEW040 SCT230 13/06 Q0994;EQDQ01+000000PRSWM2
0192077650999992000123006004+41920+009390FM-12+0022LFKS V0202901N004119999999N0600001N1+01231-00231099901ADDAA124000391GJ102349IA2999+00509KA1999M+01341KA2999N+00981MA1999999099641MD1610181+9999REMSYN094AAXX  30064 07765 36/86 /2908 10123 21023 39964 49990 56018 333 10134 20098 3/005 55039 70002;
0156077700999992000011812004+41370+009180FM-12+011099999V0202601N026210075019N0100001N1+01141+00681101161ADDAA199000091GF107991071051008001999999MD1510151+9999REMSYN074    AAXX  18124 07770 32560 72651 10114 20068 40116 55015 875// 333 92447;EQDQ01  00002PRCP99
0132077700999992000012521004+41370+009180FM-12+011099999V0200201N008212200019N0200001N1+00451+00061102581ADDGA1001+999999999GF100991001001999999001001MD1710211+9999REMSYN064AAXX  25214 07770 42970 00216 10045 20006 40258 57021 333 92437;
0122077700999992000020715004+41370+009180FM-12+011099999V0202201N017010120019N0150001N1+01221+00821102451ADDGF108991081081008001999999MD1710161+9999REMSYN070AAXX  07154 07770 42565 82233 10122 20082 40245 57016 888// 333 92437;
0132077700999992000021021004+41370+009180FM-12+011099999V0209999C000012200019N0300001N1+00961+00171102391ADDGA1001+999999999GF100991001001999999001001MD1210021+9999REMSYN064AAXX  10214 07770 42980 00000 10096 20017 40239 52002 333 92438;
0122077700999992000021709004+41370+009180FM-12+011099999V0202801N017012200019N0200001N1+01001-00251100701ADDGF103991021021008001041001MD1310141+9999REMSYN070AAXX  17094 07770 42570 32833 10100 21025 40070 53014 82240 333 92448;
0203077700999992000030206004+41370+009180FM-12+011099999V0202601N027210120019N0080001N1+01001+00621100581ADDAA112000791AA224999929AY161061AY211061GF107991071081008001999999KA1999N+00951MD1310131+9999MW1031REMSYN094AAXX  02064 07770 11558 72653 10100 20062 40058 53013 69902 70361 878// 333 20095 79999 92446;
0152077700999992000030300004+41370+009180FM-12+011099999V0202601N007212200019N0150001N1+01001+00311102461ADDAA199000091GF103991031051008001001001MD1210191+9999REMSYN070AAXX  03004 07770 32565 32614 10100 20031 40246 52019 83500 333 92447;EQDQ01  00002PRCP99
0152077700999992000030812004+41370+009180FM-12+011099999V0202401N003112200019N0150001N1+01461+00781102931ADDAA199000091GF103991031051008001001001MD1210011+9999REMSYN070AAXX  08124 07770 32565 32406 10146 20078 40293 52001 83500 333 92427;EQDQ01  00002PRCP99
0171077700999992000031206004+41370+009180FM-12+011099999V0202401N003110075019N0080001N1+01181+00861101881ADDAA199000091GF108991081051008001999999KA1999N+01161MD1210091+9999REMSYN076AAXX  12064 07770 32558 82406 10118 20086 40188 52009 885// 333 20116 92426;EQDQ01  00002PRCP99
0152077700999992000031300004+41370+009180FM-12+011099999V0200401N006212200019N0080001N1+01151+00931102121ADDAA199000091GF101991011021008001001001MD1110021+9999REMSYN070AAXX  13004 07770 32558 10412 10115 20093 40212 51002 81200 333 92427;EQDQ01  00002PRCP99
0122077700999992000041015004+41370+009180FM-12+011099999V0202801N007210360019N0150001N1+01581+01161100411ADDGF107991031021008001071999MD1710131+9999REMSYN070AAXX  10154 07770 42565 72814 10158 20116 40041 57013 8327/ 333 92437;
0186077700999992000041618004+41370+009180FM-12+011099999V0200401N021610120019N0100001N1+01401+01221100391ADDAA112000391AY161061AY221061GF108991081081008001999999KA1999M+01601MD1710151+9999MW1021REMSYN088AAXX  16184 07770 12560 80442 10140 20122 40039 57015 69932 70262 888// 333 10160 92447;
0122077700999992000050421004+41370+009180FM-12+011099999V0200601N007210075019N0060001N1+01661+01381101681ADDGF106991061051008001001001MD1210011+9999REMSYN070AAXX  04214 07770 42556 60614 10166 20138 40168 52001 86500 333 92436;
0122077700999992000051909004+41370+009180FM-12+011099999V0202601N018012200019N0140001N1+01781+01171101051ADDGF103991031011008001001011MD1310021+9999REMSYN070AAXX  19094 07770 42564 32635 10178 20117 40105 53002 83101 333 92447;
0150077700999992000052715004+41370+009180FM-12+011099999V0202601N010810042019N0060001N1+01971+01611101511ADDAY161031AY221031GF108991051071004501071999MD1810051+9999MW1021REMSYN076AAXX  27154 07770 41456 82621 10197 20161 40151 58005 70262 8577/ 333 92436;
0171077700999992000053106004+41370+009180FM-12+011099999V0202601N017012200019N0150001N1+02001+99999101561ADDAA199000091GF105991021021008001001061KA1999N+01721MD1310011+9999REMSYN076AAXX  31064 07770 32565 52633 10200 20/// 40156 53001 82206 333 20172 92447;EQDQ01  00002PRCP99
0171077700999992000061006004+41370+009180FM-12+011099999V0200201N011810120019N0080001N1+02121+01931101351ADDAA199000091GF107991071081008001999999KA1999N+02051MD1410001+9999REMSYN076AAXX  10064 07770 32558 70223 10212 20193 40135 54000 878// 333 20205 92436;EQDQ01  00002PRCP99
0171077700999992000062806004+41360+009170FM-12+011099999V0202601N005112200019N0120001N1+02081+01761101581ADDAA199000091GF102991021021008001001001KA1999N+01851MD1310041+9999REMSYN076AAXX  28064 07770 32562 22610 10208 20176 40158 53004 82200 333 20185 92437;EQDQ01  00002PRCP99
0132077700999992000070621004+41360+009170FM-12+011099999V0200601N012312200019N0140001N1+02241+01911101711ADDGA1001+999999999GF100991001001999999001001MD1710031+9999REMSYN064AAXX  06214 07770 42964 00624 10224 20191 40171 57003 333 92427;
0132077700999992000070715004+41360+009170FM-12+011099999V0202801N007212200019N0120001N1+02901+01821101161ADDGA1001+999999999GF100991001001999999001001MD1710041+9999REMSYN064AAXX  07154 07770 42962 02814 10290 20182 40116 57004 333 92427;
0193077700999992000072506004+41360+009170FM-12+011099999V0202201N007210021019N0040001N1+02131+02011101171ADDAA199000091AY141061AY221061GF106991051061002501001051KA1999N+02071MD1210061+9999MW1011REMSYN076AAXX  25064 07770 31340 62214 10213 20201 40117 52006 70142 85605 333 20207;EQDQ01  00002PRCP99
0171077700999992000080818004+41360+009170FM-12+011099999V0202801N005112200019N0100001N1+02331+02041101821ADDAA199000091GF103991011021008001051001KA1999M+02581MD1710041+9999REMSYN076AAXX  08184 07770 32560 32810 10233 20204 40182 57004 81250 333 10258 92427;EQDQ01  00002PRCP99
0152077700999992000090912004+41360+009170FM-12+011099999V0200401N010812200019N0180001N1+02441+01031101911ADDAA199000091GF102991011011008001001031MD1710121+9999REMSYN070AAXX  09124 07770 32568 20421 10244 20103 40191 57012 81103 333 92438;EQDQ01  00002PRCP99
0152077700999992000092512004+41360+009170FM-12+011099999V0200401N003112200019N0150001N1+02541+01641102021ADDAA199000091GF103991031021008001001011MD1210201+9999REMSYN070AAXX  25124 07770 32565 30406 10254 20164 40202 52020 83201 333 92427;EQDQ01  00002PRCP99
0122077700999992000101915004+41360+009170FM-12+011099999V0202801N012312200019N0150001N1+01951+01341102141ADDGF104991021021008001001021MD1710071+9999REMSYN070AAXX  19154 07770 42565 42824 10195 20134 40214 57007 82202 333 92437;
0152077700999992000102212004+41360+009170FM-12+011099999V0200401N007212200019N0100001N1+02121+01591102811ADDAA199000091GF104991041021008001001001MD1710061+9999REMSYN070AAXX  22124 07770 32560 40414 10212 20159 40281 57006 84200 333 92437;EQDQ01  00002PRCP99
0122077700999992000120809004+41360+009170FM-12+011099999V0200401N009810360019N0120001N1+01501+01321101711ADDGF108991031051008001031001MD1310101+9999REMSYN070AAXX  08094 07770 42562 80419 10150 20132 40171 53010 83530 333 92437;
0171077700999992000120906004+41360+009170FM-12+011099999V0202801N012910360019N0120001N1+01601+01331101981ADDAA199000091GF105991021081008001051001KA1999N+01401MD1310051+9999REMSYN076AAXX  09064 07770 32562 52825 10160 20133 40198 53005 82850 333 20140 92437;EQDQ01  00002PRCP99
0167077700999992000121812004+41360+009170FM-12+011099999V0202801N017510075019N0150001N1+01431+00861102051ADDAA106000591AY161061AY221061GF106991061031008001001001MD1210011+9999MW1011REMSYN082AAXX  18124 07770 11565 62834 10143 20086 40205 52001 69951 70162 86300 333 92437;
0141077700999992000121915004+41360+009170FM-12+011099999V0202801N012310075019N0200001N1+01491+01041999999ADDGF107991071051008001999999MD1710091+9999REMSYN070AAXX  19154 07770 42570 72824 10149 20104 40500 57009 875// 333 92437;EQDQ01+105003APOSLP
0171077700999992000121918004+41360+009170FM-12+011099999V0202801N010310075019N0150001N1+01411+00971102061ADDAA199000091GF106991061051008001001001KA1999M+01521MD1310061+9999REMSYN076AAXX  19184 07770 32565 62820 10141 20097 40206 53006 86500 333 10152 92437;EQDQ01  00002PRCP99
0131077800999992000010705004+41500+009100FM-12+0023LFKF V0200201N001019999999N9999999N1+00541+00371102481ADDAA106000091MA1999999102191MD1510041+9999REMSYN060AAXX  07054 07780 36/// /0202 10054 20037 30219 40248 55004;EQDQ01  00002PRCP06
0145077800999992000011811004+41500+009100FM-15+0023LFKF V0202601N008210054019N0112651N1+01201+00801999999ADDGA1071+005409999GF107991999999999999999999MA1101191999999MW1001REMMET051LFKF 181100Z 26016KT 9999 BKN018 12/08 Q1012 NOSIG;EQDQ01+000000PRSWM2
0211077800999992000012206004+41500+009100FM-12+0023LFKF V0202501N005119999999N9999999N1+00981+00461101601ADDAA124000091GJ104029IA2999+00809KA1999M+01001KA2999N+00901MA1999999101321MD1610101+9999REMSYN094AAXX  22064 07780 36/// /2510 10098 20046 30132 40160 56010 333 10100 20090 3/008 55067 70000;EQDQ01  00002PRCP24
0145077800999992000012409004+41500+009100FM-15+0023LFKF V0209999C000012200019N0112651N1+00701+00301999999ADDGA1021+009609999GF102991999999999999999999MA1101081999999MW1001REMMET051LFKF 240900Z 00000KT 9999 FEW032 07/03 Q1011 NOSIG;EQDQ01+000000PRSWM2
0131077800999992000012523004+41500+009100FM-12+0023LFKF V0200601N004119999999N9999999N1+00261-00291102631ADDAA199000091MA1999999102341MD1110101+9999REMSYN060AAXX  25234 07780 36/// /0608 10026 21029 30234 40263 51010;EQDQ01  00002PRCP99
0268077800999992000020117004+41500+009100SY-MT+0023LFKF V0200601N002112200019N0170001N1+01211+00701102751ADDAA199000091GA1011+033009039GF103991011001999999041011MA1102711102471MD1310031+9999MW1001REMSYN082AAXX  01174 07780 32967 30604 10121 20070 30247 40275 53003 81041 333 81361 83074;MET045LFKF 011700Z 06003KT CAVOK 12/07 Q1027 NOSIG;EQDQ01+000000PRSWM2Q02  00002PRCP99
0294077800999992000020311004+41500+009100SY-MT+0023LFKF V0202201N003112200019N0070001N1+01591+01041102321ADDAA199000091GA1021+006009029GA2021+006009999GF104991041021008001001011MA1102301102041MD1110181+9999MW1001REMSYN076AAXX  03114 07780 32557 42206 10159 20104 30204 40232 51018 84201 333 84820;MET061LFKF 031100Z 22006KT 7000 FEW020TCU FEW020 16/10 Q1023 NOSIG;EQDQ01+000000PRSWM2Q02  00002PRCP99
0204077800999992000020406004+41500+009100FM-12+0023LFKF V0203601N001019999999N9999999N1+00591+00551103171ADDAA103000291GJ103429IA2999+00109KA1999M+01021KA2999N+00401MA1999999102881MD1310191+9999REMSYN106AAXX  04064 07780 /6/// /3602 10059 20055 30288 40317 53019 69922 333 10102 20040 3/001 55057 69927 70002;
0254077800999992000020607004+41500+009100SY-MT+0023LFKF V0200601N002112200019N0060001N1-00121-00181103341ADDAA199000091GA1021+001809999GF102991999999999999999999MA1103291103041MD1510021+9999MW1001REMSYN060AAXX  06074 07780 36/// /0604 11012 21018 30304 40334 55002;MET053LFKF 060700Z 06003KT 6000 FEW006 M01/M02 Q1033 NOSIG;EQDQ01+000000PRSWM2Q02  00002PRCP99
0190077800999992000021909004+41500+009100FM-15+0023LFKF V0202901N012312200019N0112651N1+01501+00901999999ADDGA1021+009009029GA2021+009009999GF102991999999999999999999MA1101081999999MW1001OC102061REMMET072LFKF 190900Z 29024G40KT 260V340 9999 FEW030TCU FEW030 15/09 Q1011 NOSIG;EQDQ01+000000PRSWM2
0122077800999992000021922004+41500+009100FM-12+0023LFKF V0202901N007219999999N9999999N1+01201+00301101081ADDAA199000021MA1999999100801MD1310041+9999REMSYN070AAXX  19224 07780 36/// /2914 10120 20030 30080 40108 53004 333 91133;
0246077800999992000022208004+41500+009100SY-MT+0023LFKF V0201401N001012200019N0112651N1+00581+00481102441ADDAA101000191GA1021+010809999GF102991999999999999999999MA1102401102151MD1210111+9999MW1001REMSYN070AAXX  22084 07780 26/// /1402 10058 20048 30215 40244 52011 333 69925;MET051LFKF 220800Z 14001KT 9999 FEW036 06/05 Q1024 NOSIG;EQDQ01+000000PRSWM2
0409077800999992000030118004+41500+009100SY-MT+0023LFKF V0202501N010810030019N0080001N1+01291+01111100941ADDAA103000291AY161061AY221061GA1071+003009999GA2071+007509999GF107991071081004501999999KA1999M+01451KA2999N+01251MA1100911100661MD1610131+9999MW1211OA149901701OC101591REMSYN130AAXX  01184 07780 /1458 72521 10129 20111 30066 40094 56013 60022 72162 878// 333 10145 20125 69927 85810 86625 91033 91133 95090;MET061LFKF 011800Z 25021G31KT 8000 BKN010 BKN025 13/11 Q1009 NOSIG;EQDQ01+000000PRSWM2Q02    003PRSWM1
0128077800999992000030202004+41500+009100FM-12+0023LFKF V0202701N011819999999N9999999N1+01031+00551100661ADDAA199000021MA1999999100381MD1810231+9999REMSYN076AAXX  02024 07780 36/// /2723 10103 20055 30038 40066 58023 333 91041 91141;
0361077800999992000030408004+41500+009100SY-MT+0023LFKF V0202701N00721069001CN0150001N1+01221+00891101891ADDAA199000091GA1021+006309999GA2021+009909999GA3071+069009999GF199999051051008001041011MA1101801101611MD1510011+9999MW1001OC101131REMSYN088AAXX  04084 07780 32565 62714 10122 20089 30161 40189 55001 85541 333 82621 84633 85073;MET076LFKF 040800Z 27012G22KT 250V350 9999 FEW021 SCT033 BKN230 12/09 Q1018 NOSIG;EQDQ01+000062SCOTCVQ02+000000PRSWM2Q03  00002PRCP99
0131077800999992000031001004+41500+009100FM-12+0023LFKF V0202701N006219999999N9999999N1+01211+00971102321ADDAA199000091MA1999999102041MD1610161+9999REMSYN060AAXX  10014 07780 36/// /2712 10121 20097 30204 40232 56016;EQDQ01  00002PRCP99
0145077800999992000031015004+41500+009100FM-15+0023LFKF V0201401N003112200019N0112651N1+01701+01001999999ADDGA1021+009909999GF102991999999999999999999MA1101901999999MW1001REMMET051LFKF 101500Z 14006KT 9999 FEW033 17/10 Q1019 NOSIG;EQDQ01+000000PRSWM2
0131077800999992000031022004+41500+009100FM-12+0023LFKF V0200201N001019999999N9999999N1+00751+00661102211ADDAA199000091MA1999999101931MD1110161+9999REMSYN060AAXX  10224 07780 36/// /0202 10075 20066 30193 40221 51016;EQDQ01  00002PRCP99
0302077800999992000031513004+41500+009100SY-MT+0023LFKF V0202601N007212200019N0090001N1+01711+01021101321ADDAA199000091GA1021+006909029GA2021+006909999GF104991041021008001001001MA1101291101051MD1810241+9999MW1001REMSYN076AAXX  15134 07780 32559 42614 10171 20102 30105 40132 58024 84200 333 84823;MET069LFKF 151300Z 26013KT 220V300 9000 FEW023TCU FEW023 17/10 Q1013 NOSIG;EQDQ01+000000PRSWM2Q02  00002PRCP99
0122077800999992000032022004+41500+009100FM-12+0023LFKF V0200601N008219999999N9999999N1+00911+00411102091ADDAA199000021MA1999999101811MD1110051+9999REMSYN070AAXX  20224 07780 36/// /0616 10091 20041 30181 40209 51005 333 91127;
