0647999999538532000090105596+30400-086472SOM  +0007KDTS V020999999999999999999999999999+99999+99999999999ADDAB10036396AD10036392929999999996AE1999999999005KB1744N+24395KB2744M+32675KB3744A+28565KD1744H00005KD2744C05776KE1005256005005MH1101464101664MK1102302309485100983016135REMSOM401PCP MTOT: 1.43 DEPNRM: 1.43 PCP GT 24HRS: 1.43 DATE(S):29 DAYS W/PCP >=1.00:  SN GT DP ON GRND:0 DATE(S):0  AVG DLY MIN: 75.9 AVG DLY MAX: 90.8 AVG MLY TMP: 83.4 DAYS MAX <=32:  DAYS MAX >=70:25 DAYS MAX >=90:25 DAYS MIN <=32: 0 DAYS MIN  <=0: 0 AVG STP:29.96  AVG SLP:30.02  LWST SLP:29.82 DATE/TIME:301613 HGST SLP:30.21 DATE/TIME:230948 HDD MTH TOT:   0 DEP NORM:   0 CDD MTH TOT: 577 DEP NORM: 577EQDR01  1.437ABP070R02  1.437ADP081R03   5777KDC058R04    257KE2035
0666999999538532000101805596+30400-086472SOD  +0007KDTS V020999999999999999999999999999+99999+99999999999ADDAA124000395KA1240M+02725KA2240N+01565MG1101669999994OE11240062624016575OE22240044724016575OE33240018399999995REMSOD54524 HR PRECIPITATION (IN): 0.01 24 HR MAX TEMP (F): 8124 HR MAX TEMP TIME (LST):1051 24 HR MIN TEMP (F): 6024 HR MIN TEMP TIME (LST):0614 AVERAGE STATION PRESSURE:30.02  PEAK WIND SPEED (MPH): 14 PEAK WIND DIR (DEG):240 PEAK WIND TIME (LST):1657  FASTEST 2MIN SPEED (MPH): 10FASTEST 2MIN DIR (DEG):240 FASTEST 2MIN TIME (LST):1657 AVERAGE WIND SPEED (MPH): 4.1 24 HR AVG TEMP (F):71 HOURLY INCREMENTAL PRECIPITATION VALUES (IN):.00  .00  .00  .00  .00  .00  .01  .00  .00  .00  .00  .00  .00  .00  .00  .00  .00  .00  .00  .00  .00  .00  .00  .00
0685999999538542000061204596+33462-080858SOD  +0060KOGB V020999999999999999999999999999+99999+99999999999ADDAA124000096KA1240M+03335KA2240N+01675MG1101399999994OE11240076016018415OE22240062616018555OE33240011699999995REMSOD54524 HR PRECIPITATION (IN): 0.00 24 HR MAX TEMP (F): 9224 HR MAX TEMP TIME (LST):1624 24 HR MIN TEMP (F): 6224 HR MIN TEMP TIME (LST):0551 AVERAGE STATION PRESSURE:29.94  PEAK WIND SPEED (MPH): 17 PEAK WIND DIR (DEG):160 PEAK WIND TIME (LST):1841  FASTEST 2MIN SPEED (MPH): 14FASTEST 2MIN DIR (DEG):160 FASTEST 2MIN TIME (LST):1855 AVERAGE WIND SPEED (MPH): 2.6 24 HR AVG TEMP (F):77 HOURLY INCREMENTAL PRECIPITATION VALUES (IN):.00  .00  .00  .00  .00  .00  .00  .00  .00  .00  .00  .00  .00  .00  .00  .00  .00  .00  .00  .00  .00  .00  .00  .00EQDR01  0.007AAP092
0666999999538542000062604596+33462-080858SOD  +0060KOGB V020999999999999999999999999999+99999+99999999999ADDAA124000025KA1240M+03395KA2240N+02225MG1100989999994OE11240093913014155OE22240076014014015OE33240022499999995REMSOD54524 HR PRECIPITATION (IN):  T   24 HR MAX TEMP (F): 9324 HR MAX TEMP TIME (LST):1320 24 HR MIN TEMP (F): 7224 HR MIN TEMP TIME (LST):0613 AVERAGE STATION PRESSURE:29.82  PEAK WIND SPEED (MPH): 21 PEAK WIND DIR (DEG):130 PEAK WIND TIME (LST):1415  FASTEST 2MIN SPEED (MPH): 17FASTEST 2MIN DIR (DEG):140 FASTEST 2MIN TIME (LST):1401 AVERAGE WIND SPEED (MPH): 5.0 24 HR AVG TEMP (F):83 HOURLY INCREMENTAL PRECIPITATION VALUES (IN):.00  .00  .00  .00  .00  .00  .00  .00  .00  .00  .00  .00  .00  .00   T   .00  .00  .00  .00  .00  .00  .00  .00  .00
0685999999538542000091204596+33462-080858SOD  +0060KOGB V020999999999999999999999999999+99999+99999999999ADDAA124000096KA1240M+03065KA2240N+01895MG1100989999994OE11240053609014275OE22240044712013495OE33240000499999995REMSOD54524 HR PRECIPITATION (IN): 0.00 24 HR MAX TEMP (F): 8724 HR MAX TEMP TIME (LST):1511 24 HR MIN TEMP (F): 6624 HR MIN TEMP TIME (LST):0549 AVERAGE STATION PRESSURE:29.82  PEAK WIND SPEED (MPH): 12 PEAK WIND DIR (DEG):090 PEAK WIND TIME (LST):1427  FASTEST 2MIN SPEED (MPH): 10FASTEST 2MIN DIR (DEG):120 FASTEST 2MIN TIME (LST):1349 AVERAGE WIND SPEED (MPH):  .1 24 HR AVG TEMP (F):77 HOURLY INCREMENTAL PRECIPITATION VALUES (IN):.00  .00  .00  .00  .00  .00  .00  .00  .00  .00  .00  .00  .00  .00  .00  .00  .00  .00  .00  .00  .00  .00  .00  .00EQDR01  0.007AAP092
0666999999538552000021204596+39364-084525SOD  +0193KHAO V020999999999999999999999999999+99999+99999999999ADDAA124000895KA1240M+01175KA2240N-00105MG1099269999994OE11240111831002105OE22240093931002115OE33240039899999995REMSOD54524 HR PRECIPITATION (IN): 0.03 24 HR MAX TEMP (F): 5324 HR MAX TEMP TIME (LST):0018 24 HR MIN TEMP (F): 3024 HR MIN TEMP TIME (LST):2359 AVERAGE STATION PRESSURE:29.31  PEAK WIND SPEED (MPH): 25 PEAK WIND DIR (DEG):310 PEAK WIND TIME (LST):0210  FASTEST 2MIN SPEED (MPH): 21FASTEST 2MIN DIR (DEG):310 FASTEST 2MIN TIME (LST):0211 AVERAGE WIND SPEED (MPH): 8.9 24 HR AVG TEMP (F):42 HOURLY INCREMENTAL PRECIPITATION VALUES (IN):.03   T    T    T   .00  .00  .00  .00  .00  .00  .00  .00   T   .00  .00  .00  .00  .00  .00  .00  .00  .00  .00  .00
0666999999538552000050604596+39364-084525SOD  +0193KHAO V020999999999999999999999999999+99999+99999999999ADDAA124000025KA1240M+02895KA2240N+01505MG1099739999994OE11240071525010375OE22240058125010375OE33240011699999995REMSOD54524 HR PRECIPITATION (IN):  T   24 HR MAX TEMP (F): 8424 HR MAX TEMP TIME (LST):1512 24 HR MIN TEMP (F): 5924 HR MIN TEMP TIME (LST):0625 AVERAGE STATION PRESSURE:29.45  PEAK WIND SPEED (MPH): 16 PEAK WIND DIR (DEG):250 PEAK WIND TIME (LST):1037  FASTEST 2MIN SPEED (MPH): 13FASTEST 2MIN DIR (DEG):250 FASTEST 2MIN TIME (LST):1037 AVERAGE WIND SPEED (MPH): 2.6 24 HR AVG TEMP (F):72 HOURLY INCREMENTAL PRECIPITATION VALUES (IN):.00  .00  .00  .00  .00  .00  .00  .00  .00  .00  .00  .00  .00  .00  .00  .00  .00   T   .00  .00  .00  .00  .00  .00
0666999999538552000081204596+39364-084525SOD  +0193KHAO V020999999999999999999999999999+99999+99999999999ADDAA124000025KA1240M+02785KA2240N+01505MG1099399999994OE11240076002017025OE22240062636017035OE33240017499999995REMSOD54524 HR PRECIPITATION (IN):  T   24 HR MAX TEMP (F): 8224 HR MAX TEMP TIME (LST):1521 24 HR MIN TEMP (F): 5924 HR MIN TEMP TIME (LST):0540 AVERAGE STATION PRESSURE:29.35  PEAK WIND SPEED (MPH): 17 PEAK WIND DIR (DEG):020 PEAK WIND TIME (LST):1702  FASTEST 2MIN SPEED (MPH): 14FASTEST 2MIN DIR (DEG):360 FASTEST 2MIN TIME (LST):1703 AVERAGE WIND SPEED (MPH): 3.9 24 HR AVG TEMP (F):71 HOURLY INCREMENTAL PRECIPITATION VALUES (IN):.00  .00  .00  .00  .00  .00  .00  .00  .00  .00  .00  .00  .00  .00  .00  .00  .00  .00  .00  .00   T   .00  .00  .00
0685999999538582000012205596+30464-088532SOD  +0004KPQL V020999999999999999999999999999+99999+99999999999ADDAA124000096KA1240M+01285KA2240N-00105MG1102109999994OE11240093902000085OE22240062603008185OE33240025999999995REMSOD54524 HR PRECIPITATION (IN): 0.00 24 HR MAX TEMP (F): 5524 HR MAX TEMP TIME (LST):1508 24 HR MIN TEMP (F): 3024 HR MIN TEMP TIME (LST):0703 AVERAGE STATION PRESSURE:30.15  PEAK WIND SPEED (MPH): 21 PEAK WIND DIR (DEG):020 PEAK WIND TIME (LST):0008  FASTEST 2MIN SPEED (MPH): 14FASTEST 2MIN DIR (DEG):030 FASTEST 2MIN TIME (LST):0818 AVERAGE WIND SPEED (MPH): 5.8 24 HR AVG TEMP (F):43 HOURLY INCREMENTAL PRECIPITATION VALUES (IN):.00  .00  .00  .00  .00  .00  .00  .00  .00  .00  .00  .00  .00  .00  .00  .00  .00  .00  .00  .00  .00  .00  .00  .00EQDR01  0.007AAP092
0666999999538582000021505596+30464-088532SOD  +0004KPQL V020999999999999999999999999999+99999+99999999999ADDAA124000395KA1240M+02785KA2240N+00725MG1101329999994OE11240080520000145OE22240058130015435OE33240017499999995REMSOD54524 HR PRECIPITATION (IN): 0.01 24 HR MAX TEMP (F): 8224 HR MAX TEMP TIME (LST):1439 24 HR MIN TEMP (F): 4524 HR MIN TEMP TIME (LST):2359 AVERAGE STATION PRESSURE:29.92  PEAK WIND SPEED (MPH): 18 PEAK WIND DIR (DEG):200 PEAK WIND TIME (LST):0014  FASTEST 2MIN SPEED (MPH): 13FASTEST 2MIN DIR (DEG):300 FASTEST 2MIN TIME (LST):1543 AVERAGE WIND SPEED (MPH): 3.9 24 HR AVG TEMP (F):64 HOURLY INCREMENTAL PRECIPITATION VALUES (IN):.01  .00  .00  .00  .00  .00  .00  .00  .00  .00  .00  .00  .00  .00  .00  .00  .00  .00  .00  .00  .00  .00  .00  .00
0685999999538582000042805596+30464-088532SOD  +0004KPQL V020999999999999999999999999999+99999+99999999999ADDAA124000096KA1240M+02675KA2240N+00835MG1101469999994OE11240062624013585OE22240044716012235OE33240012599999995REMSOD54524 HR PRECIPITATION (IN): 0.00 24 HR MAX TEMP (F): 8024 HR MAX TEMP TIME (LST):1152 24 HR MIN TEMP (F): 4724 HR MIN TEMP TIME (LST):0525 AVERAGE STATION PRESSURE:29.96  PEAK WIND SPEED (MPH): 14 PEAK WIND DIR (DEG):240 PEAK WIND TIME (LST):1358  FASTEST 2MIN SPEED (MPH): 10FASTEST 2MIN DIR (DEG):160 FASTEST 2MIN TIME (LST):1223 AVERAGE WIND SPEED (MPH): 2.8 24 HR AVG TEMP (F):64 HOURLY INCREMENTAL PRECIPITATION VALUES (IN):.00  .00  .00  .00  .00  .00  .00  .00  .00  .00  .00  .00  .00  .00  .00  .00  .00  .00  .00  .00  .00  .00  .00  .00EQDR01  0.007AAP092
0741999999538582000071805596+30464-088532SOD  +0004KPQL V020999999999999999999999999999+99999+99999999999ADDAA124000025GJ100005GK10005KA1240M+03505KA2240N+02225MG1101359999994OE11240102801018015OE22240089436017595OE33240017099999995REMSOD60524 HR PRECIPITATION (IN):  T   TOTAL SUNSHINE (MINUTES):   0 PERCENT POSSIBLE SUNSHINE:  0 24 HR MAX TEMP (F): 9524 HR MAX TEMP TIME (LST):1423 24 HR MIN TEMP (F): 7224 HR MIN TEMP TIME (LST):2358 AVERAGE STATION PRESSURE:29.93  PEAK WIND SPEED (MPH): 23 PEAK WIND DIR (DEG): 10 PEAK WIND TIME (LST):1801  FASTEST 2MIN SPEED (MPH): 20FASTEST 2MIN DIR (DEG):360 FASTEST 2MIN TIME (LST):1759 AVERAGE WIND SPEED (MPH): 3.8 24 HR AVG TEMP (F):84 HOURLY INCREMENTAL PRECIPITATION VALUES (IN):.00  .00  .00  .00  .00  .00  .00  .00  .00  .00  .00  .00  .00  .00  .00  .00  .00   T    T    T   .00  .00  .00  .00
0666999999538592000032204596+39594-084226SOD  +0293KMGY V020999999999999999999999999999+99999+99999999999ADDAA124000395KA1240M+01065KA2240N+00505MG1098819999994OE11240067136005285OE22240058101005285OE33240026499999995REMSOD54524 HR PRECIPITATION (IN): 0.01 24 HR MAX TEMP (F): 5124 HR MAX TEMP TIME (LST):1801 24 HR MIN TEMP (F): 4124 HR MIN TEMP TIME (LST):2344 AVERAGE STATION PRESSURE:29.18  PEAK WIND SPEED (MPH): 15 PEAK WIND DIR (DEG):360 PEAK WIND TIME (LST):0528  FASTEST 2MIN SPEED (MPH): 13FASTEST 2MIN DIR (DEG):010 FASTEST 2MIN TIME (LST):0528 AVERAGE WIND SPEED (MPH): 5.9 24 HR AVG TEMP (F):46 HOURLY INCREMENTAL PRECIPITATION VALUES (IN):.00  .00  .00   T   .01   T   .00  .00  .00  .00  .00  .00  .00  .00  .00  .00  .00  .00  .00  .00  .00  .00  .00  .00
0666999999538602000022604596+30336-081515SOD  +0012KCRG V020999999999999999999999999999+99999+99999999999ADDAA124000395KA1240M+02395KA2240N+01005MG1102279999994OE11240089411014415OE22240067110014425OE33240021999999995REMSOD54524 HR PRECIPITATION (IN): 0.01 24 HR MAX TEMP (F): 7524 HR MAX TEMP TIME (LST):1439 24 HR MIN TEMP (F): 5024 HR MIN TEMP TIME (LST):0713 AVERAGE STATION PRESSURE:30.20  PEAK WIND SPEED (MPH): 20 PEAK WIND DIR (DEG):110 PEAK WIND TIME (LST):1441  FASTEST 2MIN SPEED (MPH): 15FASTEST 2MIN DIR (DEG):100 FASTEST 2MIN TIME (LST):1442 AVERAGE WIND SPEED (MPH): 4.9 24 HR AVG TEMP (F):63 HOURLY INCREMENTAL PRECIPITATION VALUES (IN):.00  .01  .00  .00  .00  .00  .00  .00  .00  .00  .00  .00  .00  .00  .00  .00  .00  .00  .00  .00  .00  .00  .00  .00
0685999999538602000040804596+30336-081515SOD  +0012KCRG V020999999999999999999999999999+99999+99999999999ADDAA124000096KA1240M+02445KA2240N+00835MG1101499999994OE11240089412017285OE22240076013017295OE33240022899999995REMSOD54524 HR PRECIPITATION (IN): 0.00 24 HR MAX TEMP (F): 7624 HR MAX TEMP TIME (LST):1500 24 HR MIN TEMP (F): 4724 HR MIN TEMP TIME (LST):0611 AVERAGE STATION PRESSURE:29.97  PEAK WIND SPEED (MPH): 20 PEAK WIND DIR (DEG):120 PEAK WIND TIME (LST):1728  FASTEST 2MIN SPEED (MPH): 17FASTEST 2MIN DIR (DEG):130 FASTEST 2MIN TIME (LST):1729 AVERAGE WIND SPEED (MPH): 5.1 24 HR AVG TEMP (F):62 HOURLY INCREMENTAL PRECIPITATION VALUES (IN):.00  .00  .00  .00  .00  .00  .00  .00  .00  .00  .00  .00  .00  .00  .00  .00  .00  .00  .00  .00  .00  .00  .00  .00EQDR01  0.007AAP092
0666999999538602000072104596+30336-081515SOD  +0012KCRG V020999999999999999999999999999+99999+99999999999ADDAA124013595KA1240M+03785KA2240N+02395MG1100959999994OE11240147536015345OE22240111836015345OE33240042999999995REMSOD54524 HR PRECIPITATION (IN): 0.53 24 HR MAX TEMP (F):10024 HR MAX TEMP TIME (LST):1312 24 HR MIN TEMP (F): 7524 HR MIN TEMP TIME (LST):2343 AVERAGE STATION PRESSURE:29.81  PEAK WIND SPEED (MPH): 33 PEAK WIND DIR (DEG):360 PEAK WIND TIME (LST):1534  FASTEST 2MIN SPEED (MPH): 25FASTEST 2MIN DIR (DEG):360 FASTEST 2MIN TIME (LST):1534 AVERAGE WIND SPEED (MPH): 9.6 24 HR AVG TEMP (F):88 HOURLY INCREMENTAL PRECIPITATION VALUES (IN):.00  .00  .00  .00  .00  .00  .00  .00  .00  .00  .00  .00  .00  .00  .00  .51  .02  .00  .00  .00  .00  .00  .00  .00
0666999999538622000030604596+30072-083574SOD  +0014K40J V020999999999999999999999999999+99999+99999999999ADDAA124000095KA1240M+02335KA2240N+00285MG1101399999994OE11240076020014485OE22240067121016275OE33240016599999995REMSOD54524 HR PRECIPITATION (IN): 0.00 24 HR MAX TEMP (F): 7424 HR MAX TEMP TIME (LST):1341 24 HR MIN TEMP (F): 3724 HR MIN TEMP TIME (LST):0650 AVERAGE STATION PRESSURE:29.94  PEAK WIND SPEED (MPH): 17 PEAK WIND DIR (DEG):200 PEAK WIND TIME (LST):1448  FASTEST 2MIN SPEED (MPH): 15FASTEST 2MIN DIR (DEG):210 FASTEST 2MIN TIME (LST):1627 AVERAGE WIND SPEED (MPH): 3.7 24 HR AVG TEMP (F):56 HOURLY INCREMENTAL PRECIPITATION VALUES (IN):.00  .00  .00  .00  .00  .00  .00  .00  .00  .00  .00  .00  .00  .00  .00  .00  .00  .00  .00  .00  .00  .00  .00  .00
0666999999538622000031504596+30072-083574SOD  +0014K40J V020999999999999999999999999999+99999+99999999999ADDAA124000095KA1240M+02505KA2240N+00505MG1101969999994OE11240089409015205OE22240062606022025OE33240031799999995REMSOD54524 HR PRECIPITATION (IN): 0.00 24 HR MAX TEMP (F): 7724 HR MAX TEMP TIME (LST):1636 24 HR MIN TEMP (F): 4124 HR MIN TEMP TIME (LST):0303 AVERAGE STATION PRESSURE:30.11  PEAK WIND SPEED (MPH): 20 PEAK WIND DIR (DEG):090 PEAK WIND TIME (LST):1520  FASTEST 2MIN SPEED (MPH): 14FASTEST 2MIN DIR (DEG):060 FASTEST 2MIN TIME (LST):2202 AVERAGE WIND SPEED (MPH): 7.1 24 HR AVG TEMP (F):59 HOURLY INCREMENTAL PRECIPITATION VALUES (IN):.00  .00  .00  .00  .00  .00  .00  .00  .00  .00  .00  .00  .00  .00  .00  .00  .00  .00  .00  .00  .00  .00  .00  .00
0666999999538622000072204596+30072-083574SOD  +0014K40J V020999999999999999999999999999+99999+99999999999ADDAA124000095KA1240M+03565KA2240N+02335MG1101029999994OE11240160927014465OE22240129626014475OE33240028299999995REMSOD54524 HR PRECIPITATION (IN): 0.00 24 HR MAX TEMP (F): 9624 HR MAX TEMP TIME (LST):1436 24 HR MIN TEMP (F): 7424 HR MIN TEMP TIME (LST):0603 AVERAGE STATION PRESSURE:29.83  PEAK WIND SPEED (MPH): 36 PEAK WIND DIR (DEG):270 PEAK WIND TIME (LST):1446  FASTEST 2MIN SPEED (MPH): 29FASTEST 2MIN DIR (DEG):260 FASTEST 2MIN TIME (LST):1447 AVERAGE WIND SPEED (MPH): 6.3 24 HR AVG TEMP (F):85 HOURLY INCREMENTAL PRECIPITATION VALUES (IN):.00  .00  .00  .00  .00  .00  .00  .00  .00  .00  .00  .00  .00  .00  .00  .00  .00  .00  .00  .00  .00  .00  .00  .00
0666999999538622000080504596+30072-083574SOD  +0014K40J V020999999999999999999999999999+99999+99999999999ADDAA124000095KA1240M+03005KA2240N+02285MG1101599999994OE11240071523014435OE22240062622014545OE33240025599999995REMSOD54524 HR PRECIPITATION (IN): 0.00 24 HR MAX TEMP (F): 8624 HR MAX TEMP TIME (LST):1431 24 HR MIN TEMP (F): 7324 HR MIN TEMP TIME (LST):0859 AVERAGE STATION PRESSURE:30.00  PEAK WIND SPEED (MPH): 16 PEAK WIND DIR (DEG):230 PEAK WIND TIME (LST):1443  FASTEST 2MIN SPEED (MPH): 14FASTEST 2MIN DIR (DEG):220 FASTEST 2MIN TIME (LST):1454 AVERAGE WIND SPEED (MPH): 5.7 24 HR AVG TEMP (F):80 HOURLY INCREMENTAL PRECIPITATION VALUES (IN):.00  .00  .00  .00  .00  .00  .00  .00  .00  .00  .00  .00  .00  .00  .00  .00  .00  .00  .00  .00  .00  .00  .00  .00
0685999999538632000010804596+33875-084302SOD  +0302KPDK V020999999999999999999999999999+99999+99999999999ADDAA124000096KA1240M+01445KA2240N+00065MG1098989999994OE11240080533011335OE22240071536011195OE33240025099999995REMSOD54524 HR PRECIPITATION (IN): 0.00 24 HR MAX TEMP (F): 5824 HR MAX TEMP TIME (LST):1546 24 HR MIN TEMP (F): 3324 HR MIN TEMP TIME (LST):0732 AVERAGE STATION PRESSURE:29.23  PEAK WIND SPEED (MPH): 18 PEAK WIND DIR (DEG):330 PEAK WIND TIME (LST):1133  FASTEST 2MIN SPEED (MPH): 16FASTEST 2MIN DIR (DEG):360 FASTEST 2MIN TIME (LST):1119 AVERAGE WIND SPEED (MPH): 5.6 24 HR AVG TEMP (F):46 HOURLY INCREMENTAL PRECIPITATION VALUES (IN):.00  .00  .00  .00  .00  .00  .00  .00  .00  .00  .00  .00  .00  .00  .00  .00  .00  .00  .00  .00  .00  .00  .00  .00EQDR01  0.007AAP092
0685999999538632000012204596+33875-084302SOD  +0302KPDK V020999999999999999999999999999+99999+99999999999ADDAA124000096KA1240M+00225KA2240N-00605MG1098279999994OE11240116232000305OE22240093933000025OE33240051499999995REMSOD54524 HR PRECIPITATION (IN): 0.00 24 HR MAX TEMP (F): 3624 HR MAX TEMP TIME (LST):1602 24 HR MIN TEMP (F): 2124 HR MIN TEMP TIME (LST):0842 AVERAGE STATION PRESSURE:29.02  PEAK WIND SPEED (MPH): 26 PEAK WIND DIR (DEG):320 PEAK WIND TIME (LST):0030  FASTEST 2MIN SPEED (MPH): 21FASTEST 2MIN DIR (DEG):330 FASTEST 2MIN TIME (LST):0002 AVERAGE WIND SPEED (MPH):11.5 24 HR AVG TEMP (F):29 HOURLY INCREMENTAL PRECIPITATION VALUES (IN):.00  .00  .00  .00  .00  .00  .00  .00  .00  .00  .00  .00  .00  .00  .00  .00  .00  .00  .00  .00  .00  .00  .00  .00EQDR01  0.007AAP092
0685999999538632000061204596+33875-084302SOD  +0302KPDK V020999999999999999999999999999+99999+99999999999ADDAA124000096KA1240M+03395KA2240N+01895MG1098449999994OE11240058119013335OE22240040218017045OE33240010799999995REMSOD54524 HR PRECIPITATION (IN): 0.00 24 HR MAX TEMP (F): 9324 HR MAX TEMP TIME (LST):1549 24 HR MIN TEMP (F): 6624 HR MIN TEMP TIME (LST):0605 AVERAGE STATION PRESSURE:29.07  PEAK WIND SPEED (MPH): 13 PEAK WIND DIR (DEG):190 PEAK WIND TIME (LST):1333  FASTEST 2MIN SPEED (MPH):  9FASTEST 2MIN DIR (DEG):180 FASTEST 2MIN TIME (LST):1704 AVERAGE WIND SPEED (MPH): 2.4 24 HR AVG TEMP (F):80 HOURLY INCREMENTAL PRECIPITATION VALUES (IN):.00  .00  .00  .00  .00  .00  .00  .00  .00  .00  .00  .00  .00  .00  .00  .00  .00  .00  .00  .00  .00  .00  .00  .00EQDR01  0.007AAP092
0685999999538632000072004596+33875-084302SOD  +0302KPDK V020999999999999999999999999999+99999+99999999999ADDAA124000096KA1240M+03675KA2240N+02335MG1097739999994OE11240093926015205OE22240076026015205OE33240028699999995REMSOD54524 HR PRECIPITATION (IN): 0.00 24 HR MAX TEMP (F): 9824 HR MAX TEMP TIME (LST):1636 24 HR MIN TEMP (F): 7424 HR MIN TEMP TIME (LST):0603 AVERAGE STATION PRESSURE:28.86  PEAK WIND SPEED (MPH): 21 PEAK WIND DIR (DEG):260 PEAK WIND TIME (LST):1520  FASTEST 2MIN SPEED (MPH): 17FASTEST 2MIN DIR (DEG):260 FASTEST 2MIN TIME (LST):1520 AVERAGE WIND SPEED (MPH): 6.4 24 HR AVG TEMP (F):86 HOURLY INCREMENTAL PRECIPITATION VALUES (IN):.00  .00  .00  .00  .00  .00  .00  .00  .00  .00  .00  .00  .00  .00  .00  .00  .00  .00  .00  .00  .00  .00  .00  .00EQDR01  0.007AAP092
0644999999538642000031705596+33178-086782SOD  +0178KEET V020999999999999999999999999999+99999+99999999999ADDAA124013795KA1240M+02395KA2240N+01565MG1099099999994OE11240093923016195OE22240067123016205OE33240038099999995REMSOD52324 HR PRECIPITATION (IN): 0.54 24 HR MAX TEMP (F): 7524 HR MAX TEMP TIME (LST):1459 24 HR MIN TEMP (F): 6024 HR MIN TEMP TIME (LST):2359 AVERAGE STATION PRESSURE:29.26  PEAK WIND SPEED (MPH): 21 PEAK WIND DIR (DEG):230 PEAK WIND TIME (LST):1619  FASTEST 2MIN SPEED (MPH): 15FASTEST 2MIN DIR (DEG):230 FASTEST 2MIN TIME (LST):1620 AVERAGE WIND SPEED (MPH): 8.5 HOURLY INCREMENTAL PRECIPITATION VALUES (IN):.00   T   .00  .00   T    T   .06  .03  .00  .00  .00  .00  .14  .24  .00  .07  .00  .00  .00  .00  .00  .00  .00  .00
0666999999538642000061505596+33178-086782SOD  +0178KEET V020999999999999999999999999999+99999+99999999999ADDAA124002095KA1240M+03225KA2240N+02175MG1099499999994OE11240098319013105OE22240076017013445OE33240022899999995REMSOD54524 HR PRECIPITATION (IN): 0.08 24 HR MAX TEMP (F): 9024 HR MAX TEMP TIME (LST):1243 24 HR MIN TEMP (F): 7124 HR MIN TEMP TIME (LST):0503 AVERAGE STATION PRESSURE:29.38  PEAK WIND SPEED (MPH): 22 PEAK WIND DIR (DEG):190 PEAK WIND TIME (LST):1310  FASTEST 2MIN SPEED (MPH): 17FASTEST 2MIN DIR (DEG):170 FASTEST 2MIN TIME (LST):1344 AVERAGE WIND SPEED (MPH): 5.1 24 HR AVG TEMP (F):81 HOURLY INCREMENTAL PRECIPITATION VALUES (IN):.00  .00  .00  .00  .00  .00  .00  .00  .00  .00  .00  .00  .00  .08   T   .00  .00  .00  .00  .00  .00  .00  .00  .00
0685999999538642000081605596+33178-086782SOD  +0178KEET V020999999999999999999999999999+99999+99999999999ADDAA124000096KA1240M+03675KA2240N+01725MG1099839999994OE11240062634015085OE22240044728013505OE33240008999999995REMSOD54524 HR PRECIPITATION (IN): 0.00 24 HR MAX TEMP (F): 9824 HR MAX TEMP TIME (LST):1607 24 HR MIN TEMP (F): 6324 HR MIN TEMP TIME (LST):0538 AVERAGE STATION PRESSURE:29.48  PEAK WIND SPEED (MPH): 14 PEAK WIND DIR (DEG):340 PEAK WIND TIME (LST):1508  FASTEST 2MIN SPEED (MPH): 10FASTEST 2MIN DIR (DEG):280 FASTEST 2MIN TIME (LST):1350 AVERAGE WIND SPEED (MPH): 2.0 24 HR AVG TEMP (F):81 HOURLY INCREMENTAL PRECIPITATION VALUES (IN):.00  .00  .00  .00  .00  .00  .00  .00  .00  .00  .00  .00  .00  .00  .00  .00  .00  .00  .00  .00  .00  .00  .00  .00EQDR01  0.007AAP092
0685999999538642000081705596+33178-086782SOD  +0178KEET V020999999999999999999999999999+99999+99999999999ADDAA124000096KA1240M+03895KA2240N+01945MG1099739999994OE11240067134014125OE22240058133014125OE33240007299999995REMSOD54524 HR PRECIPITATION (IN): 0.00 24 HR MAX TEMP (F):10224 HR MAX TEMP TIME (LST):1416 24 HR MIN TEMP (F): 6724 HR MIN TEMP TIME (LST):0545 AVERAGE STATION PRESSURE:29.45  PEAK WIND SPEED (MPH): 15 PEAK WIND DIR (DEG):340 PEAK WIND TIME (LST):1412  FASTEST 2MIN SPEED (MPH): 13FASTEST 2MIN DIR (DEG):330 FASTEST 2MIN TIME (LST):1412 AVERAGE WIND SPEED (MPH): 1.6 24 HR AVG TEMP (F):85 HOURLY INCREMENTAL PRECIPITATION VALUES (IN):.00  .00  .00  .00  .00  .00  .00  .00  .00  .00  .00  .00  .00  .00  .00  .00  .00  .00  .00  .00  .00  .00  .00  .00EQDR01  0.007AAP092
0666999999538652000060705596+30343-089822SOD  +0008KASD V020999999999999999999999999999+99999+99999999999ADDAA124000025KA1240M+03005KA2240N+01895MG1101529999994OE11240076003015495OE22240062602008505OE33240025999999995REMSOD54524 HR PRECIPITATION (IN):  T   24 HR MAX TEMP (F): 8624 HR MAX TEMP TIME (LST):1439 24 HR MIN TEMP (F): 6624 HR MIN TEMP TIME (LST):2359 AVERAGE STATION PRESSURE:29.98  PEAK WIND SPEED (MPH): 17 PEAK WIND DIR (DEG):030 PEAK WIND TIME (LST):1549  FASTEST 2MIN SPEED (MPH): 14FASTEST 2MIN DIR (DEG):020 FASTEST 2MIN TIME (LST):0850 AVERAGE WIND SPEED (MPH): 5.8 24 HR AVG TEMP (F):76 HOURLY INCREMENTAL PRECIPITATION VALUES (IN):.00   T   .00  .00  .00  .00  .00  .00  .00  .00  .00   T   .00  .00  .00  .00  .00  .00  .00  .00  .00  .00  .00  .00
0665999999538662000020504596+39578-085803SOD  +0245KGEZ V020999999999999999999999999999+99999+99999999999ADDAA124000025KA1240M+00005KA2240N-00325MG1098549999994OE11240116233019315OE22240093933019445OE33240058699999995REMSOD54424 HR PRECIPITATION (IN):  T   24 HR MAX TEMP (F): 3224 HR MAX TEMP TIME (LST):1819 24 HR MIN TEMP (F): 2624 HR MIN TEMP TIME (LST):2359 AVERAGE STATION PRESSURE:29.10  PEAK WIND SPEED (MPH): 26 PEAK WIND DIR (DEG):330 PEAK WIND TIME (LST):1931  FASTEST 2MIN SPEED (MPH): 21FASTEST 2MIN DIR (DEG):330 FASTEST 2MIN TIME (LST):1944 AVERAGE WIND SPEED (MPH):13.1 24 HR AVG TEMP (F):29 HOURLY INCREMENTAL PRECIPITATION VALUES (IN): T    T    T   .00   T    T    T    T    T    T    T    T    T    T    T    T   .00   T   .00  .00  .00  .00  .00   T
0666999999538662000073104596+39578-085803SOD  +0245KGEZ V020999999999999999999999999999+99999+99999999999ADDAA124014295KA1240M+02615KA2240N+01945MG1098149999994OE11240102819004595OE22240089419004575OE33240037699999995REMSOD54524 HR PRECIPITATION (IN): 0.56 24 HR MAX TEMP (F): 7924 HR MAX TEMP TIME (LST):1628 24 HR MIN TEMP (F): 6724 HR MIN TEMP TIME (LST):0727 AVERAGE STATION PRESSURE:28.98  PEAK WIND SPEED (MPH): 23 PEAK WIND DIR (DEG):190 PEAK WIND TIME (LST):0459  FASTEST 2MIN SPEED (MPH): 20FASTEST 2MIN DIR (DEG):190 FASTEST 2MIN TIME (LST):0457 AVERAGE WIND SPEED (MPH): 8.4 24 HR AVG TEMP (F):73 HOURLY INCREMENTAL PRECIPITATION VALUES (IN):.18  .10  .17  .00  .06  .04  .01  .00  .00  .00  .00  .00  .00  .00  .00  .00  .00  .00  .00   T    T   .00  .00  .00
0685999999538672000022204596+33971-080996SOD  +0065KCUB V020999999999999999999999999999+99999+99999999999ADDAA124000096KA1240M+01395KA2240N+00225MG1102179999994OE11240076004010225OE22240058104009545OE33240014399999995REMSOD54524 HR PRECIPITATION (IN): 0.00 24 HR MAX TEMP (F): 5724 HR MAX TEMP TIME (LST):1703 24 HR MIN TEMP (F): 3624 HR MIN TEMP TIME (LST):2359 AVERAGE STATION PRESSURE:30.17  PEAK WIND SPEED (MPH): 17 PEAK WIND DIR (DEG):040 PEAK WIND TIME (LST):1022  FASTEST 2MIN SPEED (MPH): 13FASTEST 2MIN DIR (DEG):040 FASTEST 2MIN TIME (LST):0954 AVERAGE WIND SPEED (MPH): 3.2 24 HR AVG TEMP (F):47 HOURLY INCREMENTAL PRECIPITATION VALUES (IN):.00  .00  .00  .00  .00  .00  .00  .00  .00  .00  .00  .00  .00  .00  .00  .00  .00  .00  .00  .00  .00  .00  .00  .00EQDR01  0.007AAP092
0685999999538672000031504596+33971-080996SOD  +0065KCUB V020999999999999999999999999999+99999+99999999999ADDAA124000096KA1240M+01945KA2240N+00175MG1101739999994OE11240076001013035OE22240040204013045OE33240006399999995REMSOD54524 HR PRECIPITATION (IN): 0.00 24 HR MAX TEMP (F): 6724 HR MAX TEMP TIME (LST):1629 24 HR MIN TEMP (F): 3524 HR MIN TEMP TIME (LST):0659 AVERAGE STATION PRESSURE:30.04  PEAK WIND SPEED (MPH): 17 PEAK WIND DIR (DEG):010 PEAK WIND TIME (LST):1303  FASTEST 2MIN SPEED (MPH):  9FASTEST 2MIN DIR (DEG):040 FASTEST 2MIN TIME (LST):1304 AVERAGE WIND SPEED (MPH): 1.4 24 HR AVG TEMP (F):51 HOURLY INCREMENTAL PRECIPITATION VALUES (IN):.00  .00  .00  .00  .00  .00  .00  .00  .00  .00  .00  .00  .00  .00  .00  .00  .00  .00  .00  .00  .00  .00  .00  .00EQDR01  0.007AAP092
0666999999538672000062104596+33971-080996SOD  +0065KCUB V020999999999999999999999999999+99999+99999999999ADDAA124002395KA1240M+03395KA2240N+02285MG1101089999994OE11240062618018415OE22240053619018405OE33240013099999995REMSOD54524 HR PRECIPITATION (IN): 0.09 24 HR MAX TEMP (F): 9324 HR MAX TEMP TIME (LST):1442 24 HR MIN TEMP (F): 7324 HR MIN TEMP TIME (LST):0614 AVERAGE STATION PRESSURE:29.85  PEAK WIND SPEED (MPH): 14 PEAK WIND DIR (DEG):180 PEAK WIND TIME (LST):1841  FASTEST 2MIN SPEED (MPH): 12FASTEST 2MIN DIR (DEG):190 FASTEST 2MIN TIME (LST):1840 AVERAGE WIND SPEED (MPH): 2.9 24 HR AVG TEMP (F):83 HOURLY INCREMENTAL PRECIPITATION VALUES (IN):.00  .00  .00  .00  .00  .00  .00  .00  .00  .00  .00  .00  .00  .00  .00  .00  .00  .00  .00  .00  .01  .04  .03  .01
0685999999538672000071804596+33971-080996SOD  +0065KCUB V020999999999999999999999999999+99999+99999999999ADDAA124000096KA1240M+03445KA2240N+02175MG1100519999994OE11240058105015025OE22240044708010155OE33240010799999995REMSOD54524 HR PRECIPITATION (IN): 0.00 24 HR MAX TEMP (F): 9424 HR MAX TEMP TIME (LST):1705 24 HR MIN TEMP (F): 7124 HR MIN TEMP TIME (LST):0609 AVERAGE STATION PRESSURE:29.68  PEAK WIND SPEED (MPH): 13 PEAK WIND DIR (DEG):050 PEAK WIND TIME (LST):1502  FASTEST 2MIN SPEED (MPH): 10FASTEST 2MIN DIR (DEG):080 FASTEST 2MIN TIME (LST):1015 AVERAGE WIND SPEED (MPH): 2.4 24 HR AVG TEMP (F):83 HOURLY INCREMENTAL PRECIPITATION VALUES (IN):.00  .00  .00  .00  .00  .00  .00  .00  .00  .00  .00  .00  .00  .00  .00  .00  .00  .00  .00  .00  .00  .00  .00  .00EQDR01  0.007AAP092
0665999999538672000092504596+33971-080996SOD  +0065KCUB V020999999999999999999999999999+99999+99999999999ADDAA124006695KA1240M+03335KA2240N+02115MG1100179999994OE11240098332021525OE22240058135021525OE33240017099999995REMSOD54424 HR PRECIPITATION (IN): 0.26 24 HR MAX TEMP (F): 9224 HR MAX TEMP TIME (LST):1510 24 HR MIN TEMP (F): 7024 HR MIN TEMP TIME (LST):0420 AVERAGE STATION PRESSURE:29.58  PEAK WIND SPEED (MPH): 22 PEAK WIND DIR (DEG):320 PEAK WIND TIME (LST):2152  FASTEST 2MIN SPEED (MPH): 13FASTEST 2MIN DIR (DEG):350 FASTEST 2MIN TIME (LST):2152 AVERAGE WIND SPEED (MPH): 3.8 24 HR AVG TEMP (F):81 HOURLY INCREMENTAL PRECIPITATION VALUES (IN):.00  .00  .00  .00  .00  .00  .00  .00  .00  .00  .00  .00  .00  .00  .00  .00  .00  .00  .00  .00  .00  .01  .24   T
0666999999538692000032105596+35940-089831SOD  +0078KHKA V020999999999999999999999999999+99999+99999999999ADDAA124001095KA1240M+01005KA2240N+00395MG1100479999994OE11240089428001585OE22240067129002575OE33240030099999995REMSOD54524 HR PRECIPITATION (IN): 0.04 24 HR MAX TEMP (F): 5024 HR MAX TEMP TIME (LST):1721 24 HR MIN TEMP (F): 3924 HR MIN TEMP TIME (LST):2353 AVERAGE STATION PRESSURE:29.67  PEAK WIND SPEED (MPH): 20 PEAK WIND DIR (DEG):280 PEAK WIND TIME (LST):0158  FASTEST 2MIN SPEED (MPH): 15FASTEST 2MIN DIR (DEG):290 FASTEST 2MIN TIME (LST):0257 AVERAGE WIND SPEED (MPH): 6.7 24 HR AVG TEMP (F):45 HOURLY INCREMENTAL PRECIPITATION VALUES (IN):.02  .01  .01  .00  .00  .00  .00  .00  .00  .00  .00  .00  .00  .00  .00  .00  .00  .00  .00  .00  .00  .00  .00  .00
0666999999538702000060304596+35197-081156SOD  +0243KAKH V020999999999999999999999999999+99999+99999999999ADDAA124000095KA1240M+03615KA2240N+01725MG1098759999994OE11240058120016175OE22240040223014145OE33240010799999995REMSOD54524 HR PRECIPITATION (IN): 0.00 24 HR MAX TEMP (F): 9724 HR MAX TEMP TIME (LST):1440 24 HR MIN TEMP (F): 6324 HR MIN TEMP TIME (LST):0412 AVERAGE STATION PRESSURE:29.16  PEAK WIND SPEED (MPH): 13 PEAK WIND DIR (DEG):200 PEAK WIND TIME (LST):1617  FASTEST 2MIN SPEED (MPH):  9FASTEST 2MIN DIR (DEG):230 FASTEST 2MIN TIME (LST):1414 AVERAGE WIND SPEED (MPH): 2.4 24 HR AVG TEMP (F):80 HOURLY INCREMENTAL PRECIPITATION VALUES (IN):.00  .00  .00  .00  .00  .00  .00  .00  .00  .00  .00  .00  .00  .00  .00  .00  .00  .00  .00  .00  .00  .00  .00  .00
0666999999538702000071204596+35197-081156SOD  +0243KAKH V020999999999999999999999999999+99999+99999999999ADDAA124013295KA1240M+03615KA2240N+02065MG1098349999994OE11240107301020135OE22240071522020385OE33240011299999995REMSOD54524 HR PRECIPITATION (IN): 0.52 24 HR MAX TEMP (F): 9724 HR MAX TEMP TIME (LST):1547 24 HR MIN TEMP (F): 6924 HR MIN TEMP TIME (LST):0604 AVERAGE STATION PRESSURE:29.04  PEAK WIND SPEED (MPH): 24 PEAK WIND DIR (DEG):010 PEAK WIND TIME (LST):2013  FASTEST 2MIN SPEED (MPH): 16FASTEST 2MIN DIR (DEG):220 FASTEST 2MIN TIME (LST):2038 AVERAGE WIND SPEED (MPH): 2.5 24 HR AVG TEMP (F):83 HOURLY INCREMENTAL PRECIPITATION VALUES (IN):.00  .00  .00  .00  .00  .00  .00  .00  .00  .00  .00  .00  .00  .00  .00  .00  .00  .00  .00  .00  .50  .01  .01  .00
0685999999538702000071904596+35197-081156SOD  +0243KAKH V020999999999999999999999999999+99999+99999999999ADDAA124000096KA1240M+03335KA2240N+01785MG1098619999994OE11240058127012475OE22240035822015415OE33240010799999995REMSOD54524 HR PRECIPITATION (IN): 0.00 24 HR MAX TEMP (F): 9224 HR MAX TEMP TIME (LST):1626 24 HR MIN TEMP (F): 6424 HR MIN TEMP TIME (LST):0533 AVERAGE STATION PRESSURE:29.12  PEAK WIND SPEED (MPH): 13 PEAK WIND DIR (DEG):270 PEAK WIND TIME (LST):1247  FASTEST 2MIN SPEED (MPH):  8FASTEST 2MIN DIR (DEG):220 FASTEST 2MIN TIME (LST):1541 AVERAGE WIND SPEED (MPH): 2.4 24 HR AVG TEMP (F):78 HOURLY INCREMENTAL PRECIPITATION VALUES (IN):.00  .00  .00  .00  .00  .00  .00  .00  .00  .00  .00  .00  .00  .00  .00  .00  .00  .00  .00  .00  .00  .00  .00  .00EQDR01  0.007AAP092
0760999999538712000101804596+34987-081058SOD  +0204KUZA V020999999999999999999999999999+99999+99999999999ADDAA124000096GJ100005GK10005KA1240M+02675KA2240N+01005MG1099329999994OE11240040212012085OE22240035814012085OE33240006799999995REMSOD60524 HR PRECIPITATION (IN): 0.00 TOTAL SUNSHINE (MINUTES):   0 PERCENT POSSIBLE SUNSHINE:  0 24 HR MAX TEMP (F): 8024 HR MAX TEMP TIME (LST):1451 24 HR MIN TEMP (F): 5024 HR MIN TEMP TIME (LST):0649 AVERAGE STATION PRESSURE:29.33  PEAK WIND SPEED (MPH):  9 PEAK WIND DIR (DEG):120 PEAK WIND TIME (LST):1208  FASTEST 2MIN SPEED (MPH):  8FASTEST 2MIN DIR (DEG):140 FASTEST 2MIN TIME (LST):1208 AVERAGE WIND SPEED (MPH): 1.5 24 HR AVG TEMP (F):65 HOURLY INCREMENTAL PRECIPITATION VALUES (IN):.00  .00  .00  .00  .00  .00  .00  .00  .00  .00  .00  .00  .00  .00  .00  .00  .00  .00  .00  .00  .00  .00  .00  .00EQDR01  0.007AAP092
0666999999538722000021204596+35017-080621SOD  +0205KEQY V020999999999999999999999999999+99999+99999999999ADDAA124000095KA1240M+02225KA2240N+00835MG1098659999994OE11240093926010445OE22240076036020575OE33240034499999995REMSOD54524 HR PRECIPITATION (IN): 0.00 24 HR MAX TEMP (F): 7224 HR MAX TEMP TIME (LST):1532 24 HR MIN TEMP (F): 4724 HR MIN TEMP TIME (LST):0729 AVERAGE STATION PRESSURE:29.13  PEAK WIND SPEED (MPH): 21 PEAK WIND DIR (DEG):260 PEAK WIND TIME (LST):1044  FASTEST 2MIN SPEED (MPH): 17FASTEST 2MIN DIR (DEG):360 FASTEST 2MIN TIME (LST):2057 AVERAGE WIND SPEED (MPH): 7.7 24 HR AVG TEMP (F):60 HOURLY INCREMENTAL PRECIPITATION VALUES (IN):.00  .00  .00  .00  .00  .00  .00  .00  .00  .00  .00  .00  .00  .00  .00  .00  .00  .00  .00  .00  .00  .00  .00  .00
0666999999538722000041604596+35017-080621SOD  +0205KEQY V020999999999999999999999999999+99999+99999999999ADDAA124005195KA1240M+01615KA2240N+01005MG1099129999994OE11240062604009335OE22240049204009345OE33240030099999995REMSOD54524 HR PRECIPITATION (IN): 0.20 24 HR MAX TEMP (F): 6124 HR MAX TEMP TIME (LST):1708 24 HR MIN TEMP (F): 5024 HR MIN TEMP TIME (LST):0132 AVERAGE STATION PRESSURE:29.27  PEAK WIND SPEED (MPH): 14 PEAK WIND DIR (DEG):040 PEAK WIND TIME (LST):0933  FASTEST 2MIN SPEED (MPH): 11FASTEST 2MIN DIR (DEG):040 FASTEST 2MIN TIME (LST):0934 AVERAGE WIND SPEED (MPH): 6.7 24 HR AVG TEMP (F):56 HOURLY INCREMENTAL PRECIPITATION VALUES (IN):.04  .03  .02  .02  .02   T   .01   T   .06   T   .00  .00  .00  .00  .00  .00  .00   T   .01  .00  .00  .00  .00  .00
0685999999538722000042104596+35017-080621SOD  +0205KEQY V020999999999999999999999999999+99999+99999999999ADDAA124000096KA1240M+02675KA2240N+00945MG1098959999994OE11240093919022375OE22240067121023135OE33240027799999995REMSOD54524 HR PRECIPITATION (IN): 0.00 24 HR MAX TEMP (F): 8024 HR MAX TEMP TIME (LST):1625 24 HR MIN TEMP (F): 4924 HR MIN TEMP TIME (LST):0528 AVERAGE STATION PRESSURE:29.22  PEAK WIND SPEED (MPH): 21 PEAK WIND DIR (DEG):190 PEAK WIND TIME (LST):2237  FASTEST 2MIN SPEED (MPH): 15FASTEST 2MIN DIR (DEG):210 FASTEST 2MIN TIME (LST):2313 AVERAGE WIND SPEED (MPH): 6.2 24 HR AVG TEMP (F):65 HOURLY INCREMENTAL PRECIPITATION VALUES (IN):.00  .00  .00  .00  .00  .00  .00  .00  .00  .00  .00  .00  .00  .00  .00  .00  .00  .00  .00  .00  .00  .00  .00  .00EQDR01  0.007AAP092
0685999999538732000082304596+34123-084849SOD  +0233KVPC V020999999999999999999999999999+99999+99999999999ADDAA124000096KA1240M+02835KA2240N+01725MG1099639999994OE11240067115010115OE22240044705012165OE33240014899999995REMSOD54524 HR PRECIPITATION (IN): 0.00 24 HR MAX TEMP (F): 8324 HR MAX TEMP TIME (LST):1800 24 HR MIN TEMP (F): 6324 HR MIN TEMP TIME (LST):0259 AVERAGE STATION PRESSURE:29.42  PEAK WIND SPEED (MPH): 15 PEAK WIND DIR (DEG):150 PEAK WIND TIME (LST):1011  FASTEST 2MIN SPEED (MPH): 10FASTEST 2MIN DIR (DEG):050 FASTEST 2MIN TIME (LST):1216 AVERAGE WIND SPEED (MPH): 3.3 24 HR AVG TEMP (F):73 HOURLY INCREMENTAL PRECIPITATION VALUES (IN):.00  .00  .00  .00  .00  .00  .00  .00  .00  .00  .00  .00  .00  .00  .00  .00  .00  .00  .00  .00  .00  .00  .00  .00EQDR01  0.007AAP092
0666999999538732000082604596+34123-084849SOD  +0233KVPC V020999999999999999999999999999+99999+99999999999ADDAA124000395KA1240M+03225KA2240N+01725MG1098859999994OE11240071501016245OE22240062602016245OE33240009899999995REMSOD54524 HR PRECIPITATION (IN): 0.01 24 HR MAX TEMP (F): 9024 HR MAX TEMP TIME (LST):1605 24 HR MIN TEMP (F): 6324 HR MIN TEMP TIME (LST):2355 AVERAGE STATION PRESSURE:29.19  PEAK WIND SPEED (MPH): 16 PEAK WIND DIR (DEG):010 PEAK WIND TIME (LST):1624  FASTEST 2MIN SPEED (MPH): 14FASTEST 2MIN DIR (DEG):020 FASTEST 2MIN TIME (LST):1624 AVERAGE WIND SPEED (MPH): 2.2 24 HR AVG TEMP (F):77 HOURLY INCREMENTAL PRECIPITATION VALUES (IN):.00  .00  .00  .01  .00  .00  .00  .00  .00  .00  .00  .00  .00  .00  .00  .00  .00  .00  .00  .00  .00  .00  .00  .00
0638999999538742000071704596+34249-082159SOD  +0192KGRD V020999999999999999999999999999+99999+99999999999ADDAA124000096KA1240M+03335KA2240N+01785OE11240071531014315OE22240058131013355OE33240020699999995REMSOD51324 HR PRECIPITATION (IN): 0.00 24 HR MAX TEMP (F): 9224 HR MAX TEMP TIME (LST):1654 24 HR MIN TEMP (F): 6424 HR MIN TEMP TIME (LST):0434 PEAK WIND SPEED (MPH): 16 PEAK WIND DIR (DEG):310 PEAK WIND TIME (LST):1431  FASTEST 2MIN SPEED (MPH): 13FASTEST 2MIN DIR (DEG):310 FASTEST 2MIN TIME (LST):1335 AVERAGE WIND SPEED (MPH): 4.6 24 HR AVG TEMP (F):78 HOURLY INCREMENTAL PRECIPITATION VALUES (IN):.00  .00  .00  .00  .00  .00  .00  .00  .00  .00  .00  .00  .00  .00  .00  .00  .00  .00  .00  .00  .00  .00  .00  .00EQDR01  0.007AAP092
0685999999538742000081504596+34249-082159SOD  +0192KGRD V020999999999999999999999999999+99999+99999999999ADDAA124000096KA1240M+03065KA2240N+01615MG1099469999994OE11240080525014225OE22240053627014235OE33240010399999995REMSOD54524 HR PRECIPITATION (IN): 0.00 24 HR MAX TEMP (F): 8724 HR MAX TEMP TIME (LST):1548 24 HR MIN TEMP (F): 6124 HR MIN TEMP TIME (LST):0543 AVERAGE STATION PRESSURE:29.37  PEAK WIND SPEED (MPH): 18 PEAK WIND DIR (DEG):250 PEAK WIND TIME (LST):1422  FASTEST 2MIN SPEED (MPH): 12FASTEST 2MIN DIR (DEG):270 FASTEST 2MIN TIME (LST):1423 AVERAGE WIND SPEED (MPH): 2.3 24 HR AVG TEMP (F):74 HOURLY INCREMENTAL PRECIPITATION VALUES (IN):.00  .00  .00  .00  .00  .00  .00  .00  .00  .00  .00  .00  .00  .00  .00  .00  .00  .00  .00  .00  .00  .00  .00  .00EQDR01  0.007AAP092
0666999999538742000100304596+34249-082159SOD  +0192KGRD V020999999999999999999999999999+99999+99999999999ADDAA124000095KA1240M+02675KA2240N+01065MG1099329999994OE11240053629012045OE22240035822015105OE33240007699999995REMSOD54524 HR PRECIPITATION (IN): 0.00 24 HR MAX TEMP (F): 8024 HR MAX TEMP TIME (LST):1500 24 HR MIN TEMP (F): 5124 HR MIN TEMP TIME (LST):0619 AVERAGE STATION PRESSURE:29.33  PEAK WIND SPEED (MPH): 12 PEAK WIND DIR (DEG):290 PEAK WIND TIME (LST):1204  FASTEST 2MIN SPEED (MPH):  8FASTEST 2MIN DIR (DEG):220 FASTEST 2MIN TIME (LST):1510 AVERAGE WIND SPEED (MPH): 1.7 24 HR AVG TEMP (F):66 HOURLY INCREMENTAL PRECIPITATION VALUES (IN):.00  .00  .00  .00  .00  .00  .00  .00  .00  .00  .00  .00  .00  .00  .00  .00  .00  .00  .00  .00  .00  .00  .00  .00
025999999953877200011201900I+35495-082614CRN05+065699999V0209999R001519999999N999999999+99999+99999999999ADDCU1+009010000210CU2+009010000210CU3+008910000210CV1+009210185510+008410180510CV2+009210185510+008410180510CV3+009210185510+008510180510CX1+0000010999990999990999990GH10558010999999099999900023010IB1+015310+999990+999990000410OB10609999909999000022109999990
025999999953877200011220400I+35495-082614CRN05+065699999V0209999R000219999999N999999999+99999+99999999999ADDCU1-006410000310CU2-006310000310CU3-006410000310CV1-005810034510-006910032010CV2-006310034510-007410032010CV3-005810034510-006810032010CX1+0000010999990999990999990GH19999990999999099999900000010IB1-007110+999990+999990000110OB10609999909999000020109999990
025999999953877200011222000I+35495-082614CRN05+065699999V0209999R001219999999N999999999+99999+99999999999ADDCU1+007110000210CU2+007110000210CU3+007110000210CV1+007410194010+006610192010CV2+007310194010+006510192010CV3+007410194010+006610192010CX1+0000010999990999990999990GH10427110999999099999900039410IB1+014310+999990+999990000510OB10609999909999000021109999990
025999999953877200011240400I+35495-082614CRN05+065699999V0209999R000019999999N999999999+99999+99999999999ADDCU1+000510000110CU2+000610000110CU3+000510000110CV1+000510034010+000310031010CV2+000310033510+000110031010CV3+000610034010+000310031010CX1+0000010999990999990999990GH19999990999999099999900000010IB1+001010+999990+999990000210OB10609999909999000001109999990
025999999953877200011261400I+35495-082614CRN05+065699999V0209999R000319999999N999999999+99999+99999999999ADDCU1+005110000610CU2+005110000610CU3+005010000610CV1+006310140010+004110130510CV2+006310140010+004110130510CV3+006210140010+004110130510CX1+0000010999990999990999990GH10056010999999099999900031010IB1+004710+999990+999990000710OB10609999909999000022109999990
025999999953877200012061900I+35495-082614CRN05+065699999V0209999R000119999999N999999999+99999+99999999999ADDCU1+001110000210CU2+001210000210CU3+001110000210CV1+001510190010+000610182010CV2+001310190010+000410182010CV3+001510190010+000710182010CX1+0000010999990999990999990GH10192510999999099999900018510IB1+004610+999990+999990000410OB10609999909999000013109999990
025999999953877200012101400I+35495-082614CRN05+065699999V0209999R000119999999N999999999+99999+99999999999ADDCU1+002710000110CU2+002810000110CU3+002710000110CV1+002710140010+002510130510CV2+002610140010+002310130510CV3+002810140010+002510130510CX1+0000010999990999990999990GH10020410999999099999900010710IB1+003210+999990+999990000410OB10609999909999000018109999990
025999999953877200012250700I+35495-082614CRN05+065699999V0209999R000719999999N999999999+99999+99999999999ADDCU1-003310000210CU2-003210000210CU3-003210000210CV1-003010061010-003710070010CV2-003310061010-004010070010CV3-002910061010-003610070010CX1+0000010999990999990999990GH10000010999999099999900000010IB1-006210+999990+999990000210OB10609999909999000014109999990
025999999953877200012250800I+35495-082614CRN05+065699999V0209999R000719999999N999999999+99999+99999999999ADDCU1-003910000210CU2-003810000210CU3-003910000210CV1-003710071010-004410080010CV2-004010071010-004810080010CV3-003610071010-004310080010CX1+0000010999990999990999990GH10000010999999099999900000010IB1-006810+999990+999990000310OB10609999909999000019109999990
025999999953877200012261700I+35495-082614CRN05+065699999V0209999R000719999999N999999999+99999+99999999999ADDCU1-000310000410CU2-000210000410CU3-000310000410CV1+000210170010-001210160510CV2+000010170010-001410160510CV3+000210170010-001210160510CX1+0000010999990999990999990GH10213910999999099999900015010IB1+004010+999990+999990000310OB10609999909999000022109999990
025999999953877200012291600I+35495-082614CRN05+065699999V0209999R000319999999N999999999+99999+99999999999ADDCU1-001710001010CU2-001610001010CU3-001710001010CV1-000210160010-003310150510CV2-000410160010-003610150510CV3-000210160010-003210150510CX1+0000010999990999990999990GH10203710999999099999900039410IB1+001810+999990+999990001210OB10609999909999000036109999990
025999999953877200012310500I+35495-082614CRN05+065699999V0209999R000719999999N999999999+99999+99999999999ADDCU1-008910000310CU2-008810000310CU3-008910000310CV1-008610045510-009610040510CV2-009210045510-010310040510CV3-008510045510-009510040510CX1+0000010999990999990999990GH19999990999999099999900000010IB1-007710+999990+999990000510OB10609999909999000019109999990
025999999953878200011281700I+35419-082557CRN05+064199999V0209999R003419999999N999999999+99999+99999999999ADDCU1+010210000610CU2+009510000510CU3+009610000510CV1+011110170010+009210160510CV2+010210170010+008510160510CV3+010210170010+008510160510CX1+0000010999990999990999990GH10547510999999099999900013610IB1+013010+999990+999990001210OB10609999909999000064109999990
025999999953878200011301600I+35419-082557CRN05+064199999V0209999R004019999999N999999999+99999+99999999999ADDCU1+003410000210CU2+002810000310CU3+002810000310CV1+003810160010+002910150510CV2+003310160010+002310150510CV3+003310160010+002210150510CX1+0000010999990999990999990GH10469410999999099999900030010IB1+006010+999990+999990000810OB10609999909999000084109999990
025999999953878200012041500I+35419-082557CRN05+064199999V0209999R001019999999N999999999+99999+99999999999ADDCU1-005210000610CU2-005910000410CU3-005810000410CV1-004310150010-005910141510CV2-005310150010-006310141510CV3-005410150010-006410141510CX1+0000010999990999990999990GH10137510999999099999900025010IB1-003810+999990+999990000510OB10609999909999000040109999990
025999999953878200012060800I+35419-082557CRN05+064199999V0209999R001819999999N999999999+99999+99999999999ADDCU1-002910000110CU2-002510000110CU3-002510000110CV1-002910073510-003110080010CV2-002410072510-002610070510CV3-002410072510-002710070510CX1+0000010999990999990999990GH19999990999999099999900000010IB1-004510+999990+999990000210OB10609999909999000024109999990
025999999953878200012150600I+35419-082557CRN05+064199999V0209999R000819999999N999999999+99999+99999999999ADDCU1+003310000810CU2+003310000810CU3+003310000810CV1+004510050510+002110060010CV2+004610050510+002210060010CV3+004510050510+002010060010CX1+0000010999990999990999990GH10000010999999099999900000010IB1+000210+999990+999990000610OB10609999909999000022109999990
025999999953878200012190100I+35419-082557CRN05+064199999V0209999R001619999999N999999999+99999+99999999999ADDCU1+000310000210CU2+000210000210CU3+000210000210CV1+000510000510-000110002510CV2+000510000510+000010002510CV3+000410000510-000110003010CX1+0000010999990999990999990GH10000010999999099999900000010IB1-002410+999990+999990000310OB10609999909999000034109999990
025999999953878200012230800I+35419-082557CRN05+064199999V0209999R002619999999N999999999+99999+99999999999ADDCU1-009410000010CU2-009510000010CU3-009410000010CV1-009510073510-009610071510CV2-009510074010-009610071510CV3-009510074010-009610071510CX1+0000010999990999990999990GH10000010999999099999900000010IB1-009610+999990+999990000110OB10609999909999000046109999990
025999999953878200012271900I+35419-082557CRN05+064199999V0209999R001619999999N999999999+99999+99999999999ADDCU1+003710000210CU2+003610000210CU3+003710000210CV1+003910180510+003210190010CV2+003910180510+003310190010CV3+003810180510+003210190010CX1+0000010999990999990999990GH10000010999999099999900000010IB1+001410+999990+999990000310OB10609999909999000057109999990
0685999999539012000032405596+36878-091903SOD  +0374KUNO V020999999999999999999999999999+99999+99999999999ADDAA124000096KA1240M+02175KA2240N+00615MG1097469999994OE11240102810013475OE22240080511015025OE33240039399999995REMSOD54524 HR PRECIPITATION (IN): 0.00 24 HR MAX TEMP (F): 7124 HR MAX TEMP TIME (LST):1641 24 HR MIN TEMP (F): 4324 HR MIN TEMP TIME (LST):0454 AVERAGE STATION PRESSURE:28.78  PEAK WIND SPEED (MPH): 23 PEAK WIND DIR (DEG):100 PEAK WIND TIME (LST):1347  FASTEST 2MIN SPEED (MPH): 18FASTEST 2MIN DIR (DEG):110 FASTEST 2MIN TIME (LST):1502 AVERAGE WIND SPEED (MPH): 8.8 24 HR AVG TEMP (F):57 HOURLY INCREMENTAL PRECIPITATION VALUES (IN):.00  .00  .00  .00  .00  .00  .00  .00  .00  .00  .00  .00  .00  .00  .00  .00  .00  .00  .00  .00  .00  .00  .00  .00EQDR01  0.007AAP092
0666999999539012000062105596+36878-091903SOD  +0374KUNO V020999999999999999999999999999+99999+99999999999ADDAA124000025KA1240M+02895KA2240N+02005MG1096859999994OE11240125223010335OE22240089422012285OE33240051999999995REMSOD54524 HR PRECIPITATION (IN):  T   24 HR MAX TEMP (F): 8424 HR MAX TEMP TIME (LST):1606 24 HR MIN TEMP (F): 6824 HR MIN TEMP TIME (LST):2359 AVERAGE STATION PRESSURE:28.60  PEAK WIND SPEED (MPH): 28 PEAK WIND DIR (DEG):230 PEAK WIND TIME (LST):1033  FASTEST 2MIN SPEED (MPH): 20FASTEST 2MIN DIR (DEG):220 FASTEST 2MIN TIME (LST):1228 AVERAGE WIND SPEED (MPH):11.6 24 HR AVG TEMP (F):76 HOURLY INCREMENTAL PRECIPITATION VALUES (IN):.00  .00  .00  .00  .00  .00  .00  .00  .00  .00  .00  .00  .00  .00  .00  .00  .00  .00  .00  .00  .00  .00  .00  .00
0666999999539012000072205596+36878-091903SOD  +0374KUNO V020999999999999999999999999999+99999+99999999999ADDAA124001595KA1240M+02445KA2240N+01725MG1097199999994OE11240053602011235OE22240044725005255OE33240011299999995REMSOD54524 HR PRECIPITATION (IN): 0.06 24 HR MAX TEMP (F): 7624 HR MAX TEMP TIME (LST):1701 24 HR MIN TEMP (F): 6324 HR MIN TEMP TIME (LST):2359 AVERAGE STATION PRESSURE:28.70  PEAK WIND SPEED (MPH): 12 PEAK WIND DIR (DEG):020 PEAK WIND TIME (LST):1123  FASTEST 2MIN SPEED (MPH): 10FASTEST 2MIN DIR (DEG):250 FASTEST 2MIN TIME (LST):0525 AVERAGE WIND SPEED (MPH): 2.5 24 HR AVG TEMP (F):70 HOURLY INCREMENTAL PRECIPITATION VALUES (IN):.00  .00  .00  .00  .00  .00  .00  .00  .01   T    T   .04  .01   T   .00  .00  .00  .00  .00  .00  .00  .00  .00  .00
0741999999539012000100405596+36878-091903SOD  +0374KUNO V020999999999999999999999999999+99999+99999999999ADDAA124000095GJ100005GK10005KA1240M+02945KA2240N+01395MG1096789999994OE11240098318015385OE22240080518015425OE33240031799999995REMSOD60524 HR PRECIPITATION (IN): 0.00 TOTAL SUNSHINE (MINUTES):   0 PERCENT POSSIBLE SUNSHINE:  0 24 HR MAX TEMP (F): 8524 HR MAX TEMP TIME (LST):1516 24 HR MIN TEMP (F): 5724 HR MIN TEMP TIME (LST):0604 AVERAGE STATION PRESSURE:28.58  PEAK WIND SPEED (MPH): 22 PEAK WIND DIR (DEG):180 PEAK WIND TIME (LST):1538  FASTEST 2MIN SPEED (MPH): 18FASTEST 2MIN DIR (DEG):180 FASTEST 2MIN TIME (LST):1542 AVERAGE WIND SPEED (MPH): 7.1 24 HR AVG TEMP (F):71 HOURLY INCREMENTAL PRECIPITATION VALUES (IN):.00  .00  .00  .00  .00  .00  .00  .00  .00  .00  .00  .00  .00  .00  .00  .00  .00  .00  .00  .00  .00  .00  .00  .00
0741999999539012000102305596+36878-091903SOD  +0374KUNO V020999999999999999999999999999+99999+99999999999ADDAA124001095GJ100005GK10005KA1240M+02285KA2240N+01445MG1097939999994OE11240058111013175OE22240044716014455OE33240021099999995REMSOD60524 HR PRECIPITATION (IN): 0.04 TOTAL SUNSHINE (MINUTES):   0 PERCENT POSSIBLE SUNSHINE:  0 24 HR MAX TEMP (F): 7324 HR MAX TEMP TIME (LST):1603 24 HR MIN TEMP (F): 5824 HR MIN TEMP TIME (LST):0434 AVERAGE STATION PRESSURE:28.92  PEAK WIND SPEED (MPH): 13 PEAK WIND DIR (DEG):110 PEAK WIND TIME (LST):1317  FASTEST 2MIN SPEED (MPH): 10FASTEST 2MIN DIR (DEG):160 FASTEST 2MIN TIME (LST):1445 AVERAGE WIND SPEED (MPH): 4.7 24 HR AVG TEMP (F):66 HOURLY INCREMENTAL PRECIPITATION VALUES (IN): T   .02   T   .01   T   .00  .00  .00  .01   T    T    T   .00  .00  .00  .00  .00  .00  .00  .00  .00  .00  .00  .00
0685999999539022000040505596+30357-095414SOD  +0075KCXO V020999999999999999999999999999+99999+99999999999ADDAA124000096KA1240M+01945KA2240N+00565MG1101529999994OE11240093931012095OE22240071534014105OE33240024699999995REMSOD54524 HR PRECIPITATION (IN): 0.00 24 HR MAX TEMP (F): 6724 HR MAX TEMP TIME (LST):1541 24 HR MIN TEMP (F): 4224 HR MIN TEMP TIME (LST):0640 AVERAGE STATION PRESSURE:29.98  PEAK WIND SPEED (MPH): 21 PEAK WIND DIR (DEG):310 PEAK WIND TIME (LST):1209  FASTEST 2MIN SPEED (MPH): 16FASTEST 2MIN DIR (DEG):340 FASTEST 2MIN TIME (LST):1410 AVERAGE WIND SPEED (MPH): 5.5 24 HR AVG TEMP (F):55 HOURLY INCREMENTAL PRECIPITATION VALUES (IN):.00  .00  .00  .00  .00  .00  .00  .00  .00  .00  .00  .00  .00  .00  .00  .00  .00  .00  .00  .00  .00  .00  .00  .00EQDR01  0.007AAP092
0685999999539022000051205596+30357-095414SOD  +0075KCXO V020999999999999999999999999999+99999+99999999999ADDAA124000096KA1240M+03175KA2240N+02335MG1099909999994OE11240107317016525OE22240093917015185OE33240055099999995REMSOD54524 HR PRECIPITATION (IN): 0.00 24 HR MAX TEMP (F): 8924 HR MAX TEMP TIME (LST):1453 24 HR MIN TEMP (F): 7424 HR MIN TEMP TIME (LST):0446 AVERAGE STATION PRESSURE:29.50  PEAK WIND SPEED (MPH): 24 PEAK WIND DIR (DEG):170 PEAK WIND TIME (LST):1652  FASTEST 2MIN SPEED (MPH): 21FASTEST 2MIN DIR (DEG):170 FASTEST 2MIN TIME (LST):1518 AVERAGE WIND SPEED (MPH):12.3 24 HR AVG TEMP (F):82 HOURLY INCREMENTAL PRECIPITATION VALUES (IN):.00  .00  .00  .00  .00  .00  .00  .00  .00  .00  .00  .00  .00  .00  .00  .00  .00  .00  .00  .00  .00  .00  .00  .00EQDR01  0.007AAP092
0760999999539022000082805596+30357-095414SOD  +0075KCXO V020999999999999999999999999999+99999+99999999999ADDAA124000096GJ100005GK10005KA1240M+03675KA2240N+02005MG1100279999994OE11240089415018385OE22240076015017485OE33240026899999995REMSOD60524 HR PRECIPITATION (IN): 0.00 TOTAL SUNSHINE (MINUTES):   0 PERCENT POSSIBLE SUNSHINE:  0 24 HR MAX TEMP (F): 9824 HR MAX TEMP TIME (LST):1631 24 HR MIN TEMP (F): 6824 HR MIN TEMP TIME (LST):0615 AVERAGE STATION PRESSURE:29.61  PEAK WIND SPEED (MPH): 20 PEAK WIND DIR (DEG):150 PEAK WIND TIME (LST):1838  FASTEST 2MIN SPEED (MPH): 17FASTEST 2MIN DIR (DEG):150 FASTEST 2MIN TIME (LST):1748 AVERAGE WIND SPEED (MPH): 6.0 24 HR AVG TEMP (F):83 HOURLY INCREMENTAL PRECIPITATION VALUES (IN):.00  .00  .00  .00  .00  .00  .00  .00  .00  .00  .00  .00  .00  .00  .00  .00  .00  .00  .00  .00  .00  .00  .00  .00EQDR01  0.007AAP092
0260999999539022000090905596+30357-095414SOD  +0075KCXO V020999999999999999999999999999+99999+99999999999ADDMG1100109999994OE11249999999999997OE22249999999999997REMSOD195AVERAGE STATION PRESSURE:29.56  HOURLY INCREMENTAL PRECIPITATION VALUES (IN):.00  .00  .00  .00  .00  .00  .00  .00  .00  .00  .00  .00  .00  .00  .00  .00  .00  .00  .00  .00  .00  .00  .00  .00
0685999999539032000011505596+30744-095586SOD  +0112KUTS V020999999999999999999999999999+99999+99999999999ADDAA124000096KA1240M+01835KA2240N+00565MG1102109999994OE11240067109010075OE22240062609010005OE33240023299999995REMSOD54524 HR PRECIPITATION (IN): 0.00 24 HR MAX TEMP (F): 6524 HR MAX TEMP TIME (LST):1545 24 HR MIN TEMP (F): 4224 HR MIN TEMP TIME (LST):2257 AVERAGE STATION PRESSURE:30.15  PEAK WIND SPEED (MPH): 15 PEAK WIND DIR (DEG):090 PEAK WIND TIME (LST):1007  FASTEST 2MIN SPEED (MPH): 14FASTEST 2MIN DIR (DEG):090 FASTEST 2MIN TIME (LST):1000 AVERAGE WIND SPEED (MPH): 5.2 24 HR AVG TEMP (F):54 HOURLY INCREMENTAL PRECIPITATION VALUES (IN):.00  .00  .00  .00  .00  .00  .00  .00  .00  .00  .00  .00  .00  .00  .00  .00  .00  .00  .00  .00  .00  .00  .00  .00EQDR01  0.007AAP092
0685999999539032000050705596+30744-095586SOD  +0112KUTS V020999999999999999999999999999+99999+99999999999ADDAA124000096KA1240M+03065KA2240N+02175MG1100009999994OE11240129616009235OE22240102816009235OE33240051499999995REMSOD54524 HR PRECIPITATION (IN): 0.00 24 HR MAX TEMP (F): 8724 HR MAX TEMP TIME (LST):1503 24 HR MIN TEMP (F): 7124 HR MIN TEMP TIME (LST):0555 AVERAGE STATION PRESSURE:29.53  PEAK WIND SPEED (MPH): 29 PEAK WIND DIR (DEG):160 PEAK WIND TIME (LST):0923  FASTEST 2MIN SPEED (MPH): 23FASTEST 2MIN DIR (DEG):160 FASTEST 2MIN TIME (LST):0923 AVERAGE WIND SPEED (MPH):11.5 24 HR AVG TEMP (F):79 HOURLY INCREMENTAL PRECIPITATION VALUES (IN):.00  .00  .00  .00  .00  .00  .00  .00  .00  .00  .00  .00  .00  .00  .00  .00  .00  .00  .00  .00  .00  .00  .00  .00EQDR01  0.007AAP092
0685999999539042000060705596+38929-090428SOD  +0134KSET V020999999999999999999999999999+99999+99999999999ADDAA124000096KA1240M+02335KA2240N+00945MG1100689999994OE11240098307012205OE22240067108011205OE33240014899999995REMSOD54524 HR PRECIPITATION (IN): 0.00 24 HR MAX TEMP (F): 7424 HR MAX TEMP TIME (LST):1632 24 HR MIN TEMP (F): 4924 HR MIN TEMP TIME (LST):0527 AVERAGE STATION PRESSURE:29.73  PEAK WIND SPEED (MPH): 22 PEAK WIND DIR (DEG):070 PEAK WIND TIME (LST):1220  FASTEST 2MIN SPEED (MPH): 15FASTEST 2MIN DIR (DEG):080 FASTEST 2MIN TIME (LST):1120 AVERAGE WIND SPEED (MPH): 3.3 24 HR AVG TEMP (F):62 HOURLY INCREMENTAL PRECIPITATION VALUES (IN):.00  .00  .00  .00  .00  .00  .00  .00  .00  .00  .00  .00  .00  .00  .00  .00  .00  .00  .00  .00  .00  .00  .00  .00EQDR01  0.007AAP092
0685999999539042000083105596+38929-090428SOD  +0134KSET V020999999999999999999999999999+99999+99999999999ADDAA124000096KA1240M+03445KA2240N+02285MG1099669999994OE11240058108014055OE22240040210020515OE33240021999999995REMSOD54524 HR PRECIPITATION (IN): 0.00 24 HR MAX TEMP (F): 9424 HR MAX TEMP TIME (LST):1618 24 HR MIN TEMP (F): 7324 HR MIN TEMP TIME (LST):0502 AVERAGE STATION PRESSURE:29.43  PEAK WIND SPEED (MPH): 13 PEAK WIND DIR (DEG):080 PEAK WIND TIME (LST):1405  FASTEST 2MIN SPEED (MPH):  9FASTEST 2MIN DIR (DEG):100 FASTEST 2MIN TIME (LST):2051 AVERAGE WIND SPEED (MPH): 4.9 24 HR AVG TEMP (F):84 HOURLY INCREMENTAL PRECIPITATION VALUES (IN):.00  .00  .00  .00  .00  .00  .00  .00  .00  .00  .00  .00  .00  .00  .00  .00  .00  .00  .00  .00  .00  .00  .00  .00EQDR01  0.007AAP092
0666999999539072000010405596+32664-097094SOD  +0192KGKY V020999999999999999999999999999+99999+99999999999ADDAA124000895KA1240M+02065KA2240N+00615MG1098759999994OE11240174328013415OE22240138630019315OE33240083699999995REMSOD54524 HR PRECIPITATION (IN): 0.03 24 HR MAX TEMP (F): 6924 HR MAX TEMP TIME (LST):0220 24 HR MIN TEMP (F): 4324 HR MIN TEMP TIME (LST):2359 AVERAGE STATION PRESSURE:29.16  PEAK WIND SPEED (MPH): 39 PEAK WIND DIR (DEG):280 PEAK WIND TIME (LST):1341  FASTEST 2MIN SPEED (MPH): 31FASTEST 2MIN DIR (DEG):300 FASTEST 2MIN TIME (LST):1931 AVERAGE WIND SPEED (MPH):18.7 24 HR AVG TEMP (F):56 HOURLY INCREMENTAL PRECIPITATION VALUES (IN):.00  .00  .03  .00  .00  .00  .00  .00  .00  .00  .00  .00  .00  .00  .00  .00  .00  .00  .00  .00  .00  .00  .00  .00
0685999999539072000072805596+32664-097094SOD  +0192KGKY V020999999999999999999999999999+99999+99999999999ADDAA124000096KA1240M+03285KA2240N+02395MG1099229999994OE11240116202013185OE22240102802013135OE33240035399999995REMSOD54524 HR PRECIPITATION (IN): 0.00 24 HR MAX TEMP (F): 9124 HR MAX TEMP TIME (LST):1304 24 HR MIN TEMP (F): 7524 HR MIN TEMP TIME (LST):2306 AVERAGE STATION PRESSURE:29.30  PEAK WIND SPEED (MPH): 26 PEAK WIND DIR (DEG):020 PEAK WIND TIME (LST):1318  FASTEST 2MIN SPEED (MPH): 23FASTEST 2MIN DIR (DEG):020 FASTEST 2MIN TIME (LST):1313 AVERAGE WIND SPEED (MPH): 7.9 24 HR AVG TEMP (F):83 HOURLY INCREMENTAL PRECIPITATION VALUES (IN):.00  .00  .00  .00  .00  .00  .00  .00  .00  .00  .00  .00  .00  .00  .00  .00  .00  .00  .00  .00  .00  .00  .00  .00EQDR01  0.007AAP092
0666999999539072000081605596+32664-097094SOD  +0192KGKY V020999999999999999999999999999+99999+99999999999ADDAA124000095KA1240M+03725KA2240N+02395MG1099569999994OE11240098315014185OE22240071514015165OE33240033599999995REMSOD54524 HR PRECIPITATION (IN): 0.00 24 HR MAX TEMP (F): 9924 HR MAX TEMP TIME (LST):1512 24 HR MIN TEMP (F): 7524 HR MIN TEMP TIME (LST):0536 AVERAGE STATION PRESSURE:29.40  PEAK WIND SPEED (MPH): 22 PEAK WIND DIR (DEG):150 PEAK WIND TIME (LST):1418  FASTEST 2MIN SPEED (MPH): 16FASTEST 2MIN DIR (DEG):140 FASTEST 2MIN TIME (LST):1516 AVERAGE WIND SPEED (MPH): 7.5 24 HR AVG TEMP (F):87 HOURLY INCREMENTAL PRECIPITATION VALUES (IN):.00  .00  .00  .00  .00  .00  .00  .00  .00  .00  .00  .00  .00  .00  .00  .00  .00  .00  .00  .00  .00  .00  .00  .00
0685999999539082000051805596+36039-095984SOD  +0191KRVS V020999999999999999999999999999+99999+99999999999ADDAA124000096KA1240M+02835KA2240N+02175MG1098049999994OE11240143120012345OE22240111820012435OE33240062699999995REMSOD54524 HR PRECIPITATION (IN): 0.00 24 HR MAX TEMP (F): 8324 HR MAX TEMP TIME (LST):1234 24 HR MIN TEMP (F): 7124 HR MIN TEMP TIME (LST):0610 AVERAGE STATION PRESSURE:28.95  PEAK WIND SPEED (MPH): 32 PEAK WIND DIR (DEG):200 PEAK WIND TIME (LST):1234  FASTEST 2MIN SPEED (MPH): 25FASTEST 2MIN DIR (DEG):200 FASTEST 2MIN TIME (LST):1243 AVERAGE WIND SPEED (MPH):14.0 24 HR AVG TEMP (F):77 HOURLY INCREMENTAL PRECIPITATION VALUES (IN):.00  .00  .00  .00  .00  .00  .00  .00  .00  .00  .00  .00  .00  .00  .00  .00  .00  .00  .00  .00  .00  .00  .00  .00EQDR01  0.007AAP092
0685999999539092000010505596+32973-097318SOD  +0220KAFW V020999999999999999999999999999+99999+99999999999ADDAA124000096KA1240M+00835KA2240N-00385MG1100209999994OE11240152031001145OE22240125231001145OE33240047499999995REMSOD54524 HR PRECIPITATION (IN): 0.00 24 HR MAX TEMP (F): 4724 HR MAX TEMP TIME (LST):1622 24 HR MIN TEMP (F): 2524 HR MIN TEMP TIME (LST):2055 AVERAGE STATION PRESSURE:29.59  PEAK WIND SPEED (MPH): 34 PEAK WIND DIR (DEG):310 PEAK WIND TIME (LST):0114  FASTEST 2MIN SPEED (MPH): 28FASTEST 2MIN DIR (DEG):310 FASTEST 2MIN TIME (LST):0114 AVERAGE WIND SPEED (MPH):10.6 24 HR AVG TEMP (F):36 HOURLY INCREMENTAL PRECIPITATION VALUES (IN):.00  .00  .00  .00  .00  .00  .00  .00  .00  .00  .00  .00  .00  .00  .00  .00  .00  .00  .00  .00  .00  .00  .00  .00EQDR01  0.007AAP092
0666999999539092000061005596+32973-097318SOD  +0220KAFW V020999999999999999999999999999+99999+99999999999ADDAA124014095KA1240M+03065KA2240N+02225MG1098659999994OE11240147516016165OE22240125215016165OE33240051499999995REMSOD54524 HR PRECIPITATION (IN): 0.55 24 HR MAX TEMP (F): 8724 HR MAX TEMP TIME (LST):1224 24 HR MIN TEMP (F): 7224 HR MIN TEMP TIME (LST):1319 AVERAGE STATION PRESSURE:29.13  PEAK WIND SPEED (MPH): 33 PEAK WIND DIR (DEG):160 PEAK WIND TIME (LST):1616  FASTEST 2MIN SPEED (MPH): 28FASTEST 2MIN DIR (DEG):150 FASTEST 2MIN TIME (LST):1616 AVERAGE WIND SPEED (MPH):11.5 24 HR AVG TEMP (F):80 HOURLY INCREMENTAL PRECIPITATION VALUES (IN):.00  .00  .00  .00  .00  .00   T    T   .00  .00  .00  .00  .09  .44   T   .00  .00  .02  .00  .00  .00  .00  .00  .00
0685999999539102000031405596+30068-095556SOD  +0046KDWH V020999999999999999999999999999+99999+99999999999ADDAA124000096KA1240M+02225KA2240N+00565MG1101469999994OE11240093911015145OE22240071512015105OE33240029599999995REMSOD54524 HR PRECIPITATION (IN): 0.00 24 HR MAX TEMP (F): 7224 HR MAX TEMP TIME (LST):1510 24 HR MIN TEMP (F): 4224 HR MIN TEMP TIME (LST):0431 AVERAGE STATION PRESSURE:29.96  PEAK WIND SPEED (MPH): 21 PEAK WIND DIR (DEG):110 PEAK WIND TIME (LST):1514  FASTEST 2MIN SPEED (MPH): 16FASTEST 2MIN DIR (DEG):120 FASTEST 2MIN TIME (LST):1510 AVERAGE WIND SPEED (MPH): 6.6 24 HR AVG TEMP (F):57 HOURLY INCREMENTAL PRECIPITATION VALUES (IN):.00  .00  .00  .00  .00  .00  .00  .00  .00  .00  .00  .00  .00  .00  .00  .00  .00  .00  .00  .00  .00  .00  .00  .00EQDR01  0.007AAP092
0685999999539102000041905596+30068-095556SOD  +0046KDWH V020999999999999999999999999999+99999+99999999999ADDAA124000096KA1240M+03005KA2240N+01565MG1100789999994OE11240080513017225OE22240071513017175OE33240023299999995REMSOD54524 HR PRECIPITATION (IN): 0.00 24 HR MAX TEMP (F): 8624 HR MAX TEMP TIME (LST):1546 24 HR MIN TEMP (F): 6024 HR MIN TEMP TIME (LST):0307 AVERAGE STATION PRESSURE:29.76  PEAK WIND SPEED (MPH): 18 PEAK WIND DIR (DEG):130 PEAK WIND TIME (LST):1722  FASTEST 2MIN SPEED (MPH): 16FASTEST 2MIN DIR (DEG):130 FASTEST 2MIN TIME (LST):1717 AVERAGE WIND SPEED (MPH): 5.2 24 HR AVG TEMP (F):73 HOURLY INCREMENTAL PRECIPITATION VALUES (IN):.00  .00  .00  .00  .00  .00  .00  .00  .00  .00  .00  .00  .00  .00  .00  .00  .00  .00  .00  .00  .00  .00  .00  .00EQDR01  0.007AAP092
0666999999539102000081305596+30068-095556SOD  +0046KDWH V020999999999999999999999999999+99999+99999999999ADDAA124000395KA1240M+03675KA2240N+02225MG1100689999994OE11240067109015475OE22240049209016165OE33240010799999995REMSOD54524 HR PRECIPITATION (IN): 0.01 24 HR MAX TEMP (F): 9824 HR MAX TEMP TIME (LST):1650 24 HR MIN TEMP (F): 7224 HR MIN TEMP TIME (LST):0613 AVERAGE STATION PRESSURE:29.73  PEAK WIND SPEED (MPH): 15 PEAK WIND DIR (DEG):090 PEAK WIND TIME (LST):1547  FASTEST 2MIN SPEED (MPH): 11FASTEST 2MIN DIR (DEG):090 FASTEST 2MIN TIME (LST):1616 AVERAGE WIND SPEED (MPH): 2.4 24 HR AVG TEMP (F):85 HOURLY INCREMENTAL PRECIPITATION VALUES (IN):.00  .00  .00  .00  .01  .00  .00  .00  .00  .00  .00  .00  .00  .00  .00  .00  .00  .00  .00  .00  .00  .00  .00  .00
0666999999539102000082305596+30068-095556SOD  +0046KDWH V020999999999999999999999999999+99999+99999999999ADDAA124000025KA1240M+03225KA2240N+02225MG1101229999994OE11240071517012115OE22240058118012225OE33240016199999995REMSOD54524 HR PRECIPITATION (IN):  T   24 HR MAX TEMP (F): 9024 HR MAX TEMP TIME (LST):1128 24 HR MIN TEMP (F): 7224 HR MIN TEMP TIME (LST):0609 AVERAGE STATION PRESSURE:29.89  PEAK WIND SPEED (MPH): 16 PEAK WIND DIR (DEG):170 PEAK WIND TIME (LST):1211  FASTEST 2MIN SPEED (MPH): 13FASTEST 2MIN DIR (DEG):180 FASTEST 2MIN TIME (LST):1222 AVERAGE WIND SPEED (MPH): 3.6 24 HR AVG TEMP (F):81 HOURLY INCREMENTAL PRECIPITATION VALUES (IN):.00  .00  .00  .00  .00  .00  .00  .00  .00  .00  .00  .00  .00   T   .00  .00  .00  .00  .00  .00  .00  .00  .00  .00
0685999999539102000090305596+30068-095556SOD  +0046KDWH V020999999999999999999999999999+99999+99999999999ADDAA124000096KA1240M+03945KA2240N+02395MG1100479999994OE11240067127010215OE22240058117020185OE33240019799999995REMSOD54524 HR PRECIPITATION (IN): 0.00 24 HR MAX TEMP (F):10324 HR MAX TEMP TIME (LST):1628 24 HR MIN TEMP (F): 7524 HR MIN TEMP TIME (LST):0604 AVERAGE STATION PRESSURE:29.67  PEAK WIND SPEED (MPH): 15 PEAK WIND DIR (DEG):270 PEAK WIND TIME (LST):1021  FASTEST 2MIN SPEED (MPH): 13FASTEST 2MIN DIR (DEG):170 FASTEST 2MIN TIME (LST):2018 AVERAGE WIND SPEED (MPH): 4.4 24 HR AVG TEMP (F):89 HOURLY INCREMENTAL PRECIPITATION VALUES (IN):.00  .00  .00  .00  .00  .00  .00  .00  .00  .00  .00  .00  .00  .00  .00  .00  .00  .00  .00  .00  .00  .00  .00  .00EQDR01  0.007AAP092
0685999999539112000011105596+32710-096267SOD  +0145KTRL V020999999999999999999999999999+99999+99999999999ADDAA124000096KA1240M+02175KA2240N+00115MG1099329999994OE11240098323014355OE22240080522014365OE33240026899999995REMSOD54524 HR PRECIPITATION (IN): 0.00 24 HR MAX TEMP (F): 7124 HR MAX TEMP TIME (LST):1552 24 HR MIN TEMP (F): 3424 HR MIN TEMP TIME (LST):0616 AVERAGE STATION PRESSURE:29.33  PEAK WIND SPEED (MPH): 22 PEAK WIND DIR (DEG):230 PEAK WIND TIME (LST):1435  FASTEST 2MIN SPEED (MPH): 18FASTEST 2MIN DIR (DEG):220 FASTEST 2MIN TIME (LST):1436 AVERAGE WIND SPEED (MPH): 6.0 24 HR AVG TEMP (F):53 HOURLY INCREMENTAL PRECIPITATION VALUES (IN):.00  .00  .00  .00  .00  .00  .00  .00  .00  .00  .00  .00  .00  .00  .00  .00  .00  .00  .00  .00  .00  .00  .00  .00EQDR01  0.007AAP092
0685999999539112000012905596+32710-096267SOD  +0145KTRL V020999999999999999999999999999+99999+99999999999ADDAA124000096KA1240M-00055KA2240N-00275MG1100859999994OE11240062634019155OE22240044733019165OE33240012599999995REMSOD54524 HR PRECIPITATION (IN): 0.00 24 HR MAX TEMP (F): 3124 HR MAX TEMP TIME (LST):1636 24 HR MIN TEMP (F): 2724 HR MIN TEMP TIME (LST):0816 AVERAGE STATION PRESSURE:29.78  PEAK WIND SPEED (MPH): 14 PEAK WIND DIR (DEG):340 PEAK WIND TIME (LST):1915  FASTEST 2MIN SPEED (MPH): 10FASTEST 2MIN DIR (DEG):330 FASTEST 2MIN TIME (LST):1916 AVERAGE WIND SPEED (MPH): 2.8 24 HR AVG TEMP (F):29 HOURLY INCREMENTAL PRECIPITATION VALUES (IN):.00  .00  .00  .00  .00  .00  .00  .00  .00  .00  .00  .00  .00  .00  .00  .00  .00  .00  .00  .00  .00  .00  .00  .00EQDR01  0.007AAP092
0666999999539112000050405596+32710-096267SOD  +0145KTRL V020999999999999999999999999999+99999+99999999999ADDAA124013095KA1240M+02335KA2240N+01285MG1099639999994OE11240111832010295OE22240089433010305OE33240027399999995REMSOD54524 HR PRECIPITATION (IN): 0.51 24 HR MAX TEMP (F): 7424 HR MAX TEMP TIME (LST):1728 24 HR MIN TEMP (F): 5524 HR MIN TEMP TIME (LST):0604 AVERAGE STATION PRESSURE:29.42  PEAK WIND SPEED (MPH): 25 PEAK WIND DIR (DEG):320 PEAK WIND TIME (LST):1029  FASTEST 2MIN SPEED (MPH): 20FASTEST 2MIN DIR (DEG):330 FASTEST 2MIN TIME (LST):1030 AVERAGE WIND SPEED (MPH): 6.1 24 HR AVG TEMP (F):65 HOURLY INCREMENTAL PRECIPITATION VALUES (IN):.00  .00  .00  .00  .00  .00  .00   T    T    T   .47  .04   T   .00  .00  .00  .00  .00  .00  .00  .00  .00  .00  .00
0685999999539112000051705596+32710-096267SOD  +0145KTRL V020999999999999999999999999999+99999+99999999999ADDAA124000096KA1240M+03005KA2240N+02115MG1099429999994OE11240143115012305OE22240116215012305OE33240067199999995REMSOD54524 HR PRECIPITATION (IN): 0.00 24 HR MAX TEMP (F): 8624 HR MAX TEMP TIME (LST):1610 24 HR MIN TEMP (F): 7024 HR MIN TEMP TIME (LST):0610 AVERAGE STATION PRESSURE:29.36  PEAK WIND SPEED (MPH): 32 PEAK WIND DIR (DEG):150 PEAK WIND TIME (LST):1230  FASTEST 2MIN SPEED (MPH): 26FASTEST 2MIN DIR (DEG):150 FASTEST 2MIN TIME (LST):1230 AVERAGE WIND SPEED (MPH):15.0 24 HR AVG TEMP (F):78 HOURLY INCREMENTAL PRECIPITATION VALUES (IN):.00  .00  .00  .00  .00  .00  .00  .00  .00  .00  .00  .00  .00  .00  .00  .00  .00  .00  .00  .00  .00  .00  .00  .00EQDR01  0.007AAP092
0666999999539112000082505596+32710-096267SOD  +0145KTRL V020999999999999999999999999999+99999+99999999999ADDAA124000095KA1240M+03675KA2240N+02335MG1100079999994OE11240076009016405OE22240067109016415OE33240026899999995REMSOD54524 HR PRECIPITATION (IN): 0.00 24 HR MAX TEMP (F): 9824 HR MAX TEMP TIME (LST):1645 24 HR MIN TEMP (F): 7424 HR MIN TEMP TIME (LST):0627 AVERAGE STATION PRESSURE:29.55  PEAK WIND SPEED (MPH): 17 PEAK WIND DIR (DEG):090 PEAK WIND TIME (LST):1640  FASTEST 2MIN SPEED (MPH): 15FASTEST 2MIN DIR (DEG):090 FASTEST 2MIN TIME (LST):1641 AVERAGE WIND SPEED (MPH): 6.0 24 HR AVG TEMP (F):86 HOURLY INCREMENTAL PRECIPITATION VALUES (IN):.00  .00  .00  .00  .00  .00  .00  .00  .00  .00  .00  .00  .00  .00  .00  .00  .00  .00  .00  .00  .00  .00  .00  .00
0666999999539112000101605596+32710-096267SOD  +0145KTRL V020999999999999999999999999999+99999+99999999999ADDAA124028795KA1240M+02945KA2240N+01835MG1099939999994OE11240129629019025OE22240102830018565OE33240037699999995REMSOD54524 HR PRECIPITATION (IN): 1.13 24 HR MAX TEMP (F): 8524 HR MAX TEMP TIME (LST):1603 24 HR MIN TEMP (F): 6524 HR MIN TEMP TIME (LST):0537 AVERAGE STATION PRESSURE:29.51  PEAK WIND SPEED (MPH): 29 PEAK WIND DIR (DEG):290 PEAK WIND TIME (LST):1902  FASTEST 2MIN SPEED (MPH): 23FASTEST 2MIN DIR (DEG):300 FASTEST 2MIN TIME (LST):1856 AVERAGE WIND SPEED (MPH): 8.4 24 HR AVG TEMP (F):75 HOURLY INCREMENTAL PRECIPITATION VALUES (IN):.00  .00  .00  .00  .00  .00  .00  .00  .00  .00  .00  .00  .00  .00  .00  .00  .00  .00  .16  .83  .14   T   .00  .00
0741999999539112000102105596+32710-096267SOD  +0145KTRL V020999999999999999999999999999+99999+99999999999ADDAA124001595GJ100005GK10005KA1240M+02285KA2240N+01445MG1100079999994OE11240053610022065OE22240040210023005OE33240022899999995REMSOD60524 HR PRECIPITATION (IN): 0.06 TOTAL SUNSHINE (MINUTES):   0 PERCENT POSSIBLE SUNSHINE:  0 24 HR MAX TEMP (F): 7324 HR MAX TEMP TIME (LST):1328 24 HR MIN TEMP (F): 5824 HR MIN TEMP TIME (LST):0355 AVERAGE STATION PRESSURE:29.55  PEAK WIND SPEED (MPH): 12 PEAK WIND DIR (DEG):100 PEAK WIND TIME (LST):2206  FASTEST 2MIN SPEED (MPH):  9FASTEST 2MIN DIR (DEG):100 FASTEST 2MIN TIME (LST):2300 AVERAGE WIND SPEED (MPH): 5.1 24 HR AVG TEMP (F):66 HOURLY INCREMENTAL PRECIPITATION VALUES (IN):.00  .00  .00  .00  .00  .00  .00  .00  .00  .00  .00  .00  .00   T    T    T   .01   T   .01   T   .01  .01  .01  .01
0666999999539122000010305596+32031-096399SOD  +0136KCRS V020999999999999999999999999999+99999+99999999999ADDAA124000095KA1240M+02335KA2240N+01675MG1099369999994OE11240125219010245OE22240098317023435OE33240049699999995REMSOD54524 HR PRECIPITATION (IN): 0.00 24 HR MAX TEMP (F): 7424 HR MAX TEMP TIME (LST):1517 24 HR MIN TEMP (F): 6224 HR MIN TEMP TIME (LST):2010 AVERAGE STATION PRESSURE:29.34  PEAK WIND SPEED (MPH): 28 PEAK WIND DIR (DEG):190 PEAK WIND TIME (LST):1024  FASTEST 2MIN SPEED (MPH): 22FASTEST 2MIN DIR (DEG):170 FASTEST 2MIN TIME (LST):2343 AVERAGE WIND SPEED (MPH):11.1 24 HR AVG TEMP (F):68 HOURLY INCREMENTAL PRECIPITATION VALUES (IN):.00  .00  .00  .00  .00  .00  .00  .00  .00  .00  .00  .00  .00  .00  .00  .00  .00  .00  .00  .00  .00  .00  .00  .00
0685999999539122000052505596+32031-096399SOD  +0136KCRS V020999999999999999999999999999+99999+99999999999ADDAA124000096KA1240M+03395KA2240N+02225MG1098789999994OE11240129618023595OE22240102819023335OE33240074799999995REMSOD54524 HR PRECIPITATION (IN): 0.00 24 HR MAX TEMP (F): 9324 HR MAX TEMP TIME (LST):1552 24 HR MIN TEMP (F): 7224 HR MIN TEMP TIME (LST):0550 AVERAGE STATION PRESSURE:29.17  PEAK WIND SPEED (MPH): 29 PEAK WIND DIR (DEG):180 PEAK WIND TIME (LST):2359  FASTEST 2MIN SPEED (MPH): 23FASTEST 2MIN DIR (DEG):190 FASTEST 2MIN TIME (LST):2333 AVERAGE WIND SPEED (MPH):16.7 24 HR AVG TEMP (F):83 HOURLY INCREMENTAL PRECIPITATION VALUES (IN):.00  .00  .00  .00  .00  .00  .00  .00  .00  .00  .00  .00  .00  .00  .00  .00  .00  .00  .00  .00  .00  .00  .00  .00EQDR01  0.007AAP092
0666999999539122000062905596+32031-096399SOD  +0136KCRS V020999999999999999999999999999+99999+99999999999ADDAA124002395KA1240M+03335KA2240N+02335MG1099839999994OE11240076005020345OE22240062605020355OE33240026899999995REMSOD54524 HR PRECIPITATION (IN): 0.09 24 HR MAX TEMP (F): 9224 HR MAX TEMP TIME (LST):1650 24 HR MIN TEMP (F): 7424 HR MIN TEMP TIME (LST):0222 AVERAGE STATION PRESSURE:29.48  PEAK WIND SPEED (MPH): 17 PEAK WIND DIR (DEG):050 PEAK WIND TIME (LST):2034  FASTEST 2MIN SPEED (MPH): 14FASTEST 2MIN DIR (DEG):050 FASTEST 2MIN TIME (LST):2035 AVERAGE WIND SPEED (MPH): 6.0 24 HR AVG TEMP (F):83 HOURLY INCREMENTAL PRECIPITATION VALUES (IN):.00  .00  .00  .00  .00  .00  .00  .00  .00  .00  .00  .00  .00  .00  .00  .00  .00  .00  .00  .00  .09  .00  .00  .00
0666999999539122000090805596+32031-096399SOD  +0136KCRS V020999999999999999999999999999+99999+99999999999ADDAA124000095KA1240M+03445KA2240N+02285MG1099499999994OE11240098305014535OE22240076004013595OE33240037699999995REMSOD54524 HR PRECIPITATION (IN): 0.00 24 HR MAX TEMP (F): 9424 HR MAX TEMP TIME (LST):1558 24 HR MIN TEMP (F): 7324 HR MIN TEMP TIME (LST):0622 AVERAGE STATION PRESSURE:29.38  PEAK WIND SPEED (MPH): 22 PEAK WIND DIR (DEG):050 PEAK WIND TIME (LST):1453  FASTEST 2MIN SPEED (MPH): 17FASTEST 2MIN DIR (DEG):040 FASTEST 2MIN TIME (LST):1359 AVERAGE WIND SPEED (MPH): 8.4 24 HR AVG TEMP (F):84 HOURLY INCREMENTAL PRECIPITATION VALUES (IN):.00  .00  .00  .00  .00  .00  .00  .00  .00  .00  .00  .00  .00  .00  .00  .00  .00  .00  .00  .00  .00  .00  .00  .00
0760999999539122000093005596+32031-096399SOD  +0136KCRS V020999999999999999999999999999+99999+99999999999ADDAA124000096GJ100005GK10005KA1240M+02945KA2240N+01285MG1100179999994OE11240071508011475OE22240058110013435OE33240025999999995REMSOD60524 HR PRECIPITATION (IN): 0.00 TOTAL SUNSHINE (MINUTES):   0 PERCENT POSSIBLE SUNSHINE:  0 24 HR MAX TEMP (F): 8524 HR MAX TEMP TIME (LST):1535 24 HR MIN TEMP (F): 5524 HR MIN TEMP TIME (LST):0637 AVERAGE STATION PRESSURE:29.58  PEAK WIND SPEED (MPH): 16 PEAK WIND DIR (DEG): 80 PEAK WIND TIME (LST):1147  FASTEST 2MIN SPEED (MPH): 13FASTEST 2MIN DIR (DEG):100 FASTEST 2MIN TIME (LST):1343 AVERAGE WIND SPEED (MPH): 5.8 24 HR AVG TEMP (F):70 HOURLY INCREMENTAL PRECIPITATION VALUES (IN):.00  .00  .00  .00  .00  .00  .00  .00  .00  .00  .00  .00  .00  .00  .00  .00  .00  .00  .00  .00  .00  .00  .00  .00EQDR01  0.007AAP092
0685999999539132000010605596+35852-097414SOD  +0326KGOK V020999999999999999999999999999+99999+99999999999ADDAA124000096KA1240M+01285KA2240N+00005MG1097879999994OE11240192218012005OE22240156519012035OE33240067199999995REMSOD54524 HR PRECIPITATION (IN): 0.00 24 HR MAX TEMP (F): 5524 HR MAX TEMP TIME (LST):1535 24 HR MIN TEMP (F): 3224 HR MIN TEMP TIME (LST):0237 AVERAGE STATION PRESSURE:28.90  PEAK WIND SPEED (MPH): 43 PEAK WIND DIR (DEG):180 PEAK WIND TIME (LST):1200  FASTEST 2MIN SPEED (MPH): 35FASTEST 2MIN DIR (DEG):190 FASTEST 2MIN TIME (LST):1203 AVERAGE WIND SPEED (MPH):15.0 24 HR AVG TEMP (F):44 HOURLY INCREMENTAL PRECIPITATION VALUES (IN):.00  .00  .00  .00  .00  .00  .00  .00  .00  .00  .00  .00  .00  .00  .00  .00  .00  .00  .00  .00  .00  .00  .00  .00EQDR01  0.007AAP092
0531999999539132000011405596+35852-097414SOD  +0326KGOK V020999999999999999999999999999+99999+99999999999ADDAA124000096MG1099429999994OE11240089403010165OE22240071504011495OE33240034099999995REMSOD41724 HR PRECIPITATION (IN): 0.00 AVERAGE STATION PRESSURE:29.36  PEAK WIND SPEED (MPH): 20 PEAK WIND DIR (DEG):030 PEAK WIND TIME (LST):1016  FASTEST 2MIN SPEED (MPH): 16FASTEST 2MIN DIR (DEG):040 FASTEST 2MIN TIME (LST):1149 AVERAGE WIND SPEED (MPH): 7.6 HOURLY INCREMENTAL PRECIPITATION VALUES (IN):.00  .00  .00  .00  .00  .00  .00  .00  .00  .00  .00  .00  .00  .00  .00  .00  .00  .00  .00  .00  .00  .00  .00  .00EQDR01  0.007AAP092
0666999999539132000032005596+35852-097414SOD  +0326KGOK V020999999999999999999999999999+99999+99999999999ADDAA124001595KA1240M+01445KA2240N+00395MG1097439999994OE11240098332004025OE22240071532002055OE33240041199999995REMSOD54524 HR PRECIPITATION (IN): 0.06 24 HR MAX TEMP (F): 5824 HR MAX TEMP TIME (LST):1703 24 HR MIN TEMP (F): 3924 HR MIN TEMP TIME (LST):0732 AVERAGE STATION PRESSURE:28.77  PEAK WIND SPEED (MPH): 22 PEAK WIND DIR (DEG):320 PEAK WIND TIME (LST):0402  FASTEST 2MIN SPEED (MPH): 16FASTEST 2MIN DIR (DEG):320 FASTEST 2MIN TIME (LST):0205 AVERAGE WIND SPEED (MPH): 9.2 24 HR AVG TEMP (F):49 HOURLY INCREMENTAL PRECIPITATION VALUES (IN):.01  .00  .00  .00  .01  .00  .00  .01  .00  .00  .00  .00  .01  .00  .00  .01  .00  .00  .01  .00  .00  .00  .00  .00
0666999999539142000040105596+33190-096591SOD  +0178KTKI V020999999999999999999999999999+99999+99999999999ADDAA124000025KA1240M+01835KA2240N+00615MG1099469999994OE11240098307016105OE22240080506016105OE33240031399999995REMSOD54524 HR PRECIPITATION (IN):  T   24 HR MAX TEMP (F): 6524 HR MAX TEMP TIME (LST):1602 24 HR MIN TEMP (F): 4324 HR MIN TEMP TIME (LST):0326 AVERAGE STATION PRESSURE:29.37  PEAK WIND SPEED (MPH): 22 PEAK WIND DIR (DEG):070 PEAK WIND TIME (LST):1610  FASTEST 2MIN SPEED (MPH): 18FASTEST 2MIN DIR (DEG):060 FASTEST 2MIN TIME (LST):1610 AVERAGE WIND SPEED (MPH): 7.0 24 HR AVG TEMP (F):54 HOURLY INCREMENTAL PRECIPITATION VALUES (IN):.00  .00  .00  .00  .00  .00  .00  .00  .00  .00  .00  .00  .00  .00   T   .00  .00  .00  .00  .00  .00  .00  .00  .00
0760999999539142000071505596+33190-096591SOD  +0178KTKI V020999999999999999999999999999+99999+99999999999ADDAA124000096GJ100005GK10005KA1240M+03835KA2240N+02505MG1099199999994OE11240076009015135OE22240053608015585OE33240019799999995REMSOD60524 HR PRECIPITATION (IN): 0.00 TOTAL SUNSHINE (MINUTES):   0 PERCENT POSSIBLE SUNSHINE:  0 24 HR MAX TEMP (F):10124 HR MAX TEMP TIME (LST):1637 24 HR MIN TEMP (F): 7724 HR MIN TEMP TIME (LST):0554 AVERAGE STATION PRESSURE:29.29  PEAK WIND SPEED (MPH): 17 PEAK WIND DIR (DEG): 90 PEAK WIND TIME (LST):1513  FASTEST 2MIN SPEED (MPH): 12FASTEST 2MIN DIR (DEG): 80 FASTEST 2MIN TIME (LST):1558 AVERAGE WIND SPEED (MPH): 4.4 24 HR AVG TEMP (F):89 HOURLY INCREMENTAL PRECIPITATION VALUES (IN):.00  .00  .00  .00  .00  .00  .00  .00  .00  .00  .00  .00  .00  .00  .00  .00  .00  .00  .00  .00  .00  .00  .00  .00EQDR01  0.007AAP092
0666999999539152000021405596+30038-091884SOD  +0007KARA V020999999999999999999999999999+99999+99999999999ADDAA124000025KA1240M+02335KA2240N+01725MG1100859999994OE11240125217009065OE22240102817009075OE33240054599999995REMSOD54524 HR PRECIPITATION (IN):  T   24 HR MAX TEMP (F): 7424 HR MAX TEMP TIME (LST):1554 24 HR MIN TEMP (F): 6324 HR MIN TEMP TIME (LST):2251 AVERAGE STATION PRESSURE:29.78  PEAK WIND SPEED (MPH): 28 PEAK WIND DIR (DEG):170 PEAK WIND TIME (LST):0906  FASTEST 2MIN SPEED (MPH): 23FASTEST 2MIN DIR (DEG):170 FASTEST 2MIN TIME (LST):0907 AVERAGE WIND SPEED (MPH):12.2 24 HR AVG TEMP (F):69 HOURLY INCREMENTAL PRECIPITATION VALUES (IN):.00  .00  .00  .00  .00  .00  .00  .00   T   .00  .00   T    T   .00  .00  .00  .00  .00  .00  .00  .00  .00  .00  .00
0666999999539152000051405596+30038-091884SOD  +0007KARA V020999999999999999999999999999+99999+99999999999ADDAA124002595KA1240M+03065KA2240N+02005MG1101399999994OE11240147502003395OE22240111801003405OE33240040799999995REMSOD54524 HR PRECIPITATION (IN): 0.10 24 HR MAX TEMP (F): 8724 HR MAX TEMP TIME (LST):1521 24 HR MIN TEMP (F): 6824 HR MIN TEMP TIME (LST):0630 AVERAGE STATION PRESSURE:29.94  PEAK WIND SPEED (MPH): 33 PEAK WIND DIR (DEG):020 PEAK WIND TIME (LST):0339  FASTEST 2MIN SPEED (MPH): 25FASTEST 2MIN DIR (DEG):010 FASTEST 2MIN TIME (LST):0340 AVERAGE WIND SPEED (MPH): 9.1 24 HR AVG TEMP (F):78 HOURLY INCREMENTAL PRECIPITATION VALUES (IN):.00  .00  .00  .01  .09  .00  .00  .00  .00  .00  .00  .00  .00  .00  .00  .00  .00  .00  .00  .00  .00  .00  .00  .00
0512999999539162000030305596+39823-093579SOD  +0234KCDJ V020999999999999999999999999999+99999+99999999999ADDAA124000095MG1099399999994OE11240071510010345OE22240058109010345OE33240025999999995REMSOD41724 HR PRECIPITATION (IN): 0.00 AVERAGE STATION PRESSURE:29.35  PEAK WIND SPEED (MPH): 16 PEAK WIND DIR (DEG):100 PEAK WIND TIME (LST):1034  FASTEST 2MIN SPEED (MPH): 13FASTEST 2MIN DIR (DEG):090 FASTEST 2MIN TIME (LST):1034 AVERAGE WIND SPEED (MPH): 5.8 HOURLY INCREMENTAL PRECIPITATION VALUES (IN):.00  .00  .00  .00  .00  .00  .00  .00  .00  .00  .00  .00  .00  .00  .00  .00  .00  .00  .00  .00  .00  .00  .00  .00
0685999999539162000051005596+39823-093579SOD  +0234KCDJ V020999999999999999999999999999+99999+99999999999ADDAA124020696KA1240M+01785KA2240N+00895MG1098009999994OE11240116202014245OE22240080501014265OE33240027799999995REMSOD54524 HR PRECIPITATION (IN): 0.81 24 HR MAX TEMP (F): 6424 HR MAX TEMP TIME (LST):1739 24 HR MIN TEMP (F): 4824 HR MIN TEMP TIME (LST):2359 AVERAGE STATION PRESSURE:28.94  PEAK WIND SPEED (MPH): 26 PEAK WIND DIR (DEG):020 PEAK WIND TIME (LST):1424  FASTEST 2MIN SPEED (MPH): 18FASTEST 2MIN DIR (DEG):010 FASTEST 2MIN TIME (LST):1426 AVERAGE WIND SPEED (MPH): 6.2 24 HR AVG TEMP (F):56 HOURLY INCREMENTAL PRECIPITATION VALUES (IN):.00  .00  .01  .29  .10  .12  .06  .03  .09  .07  .03  .01  .00  .00  .00  .00  .00  .00  .00  .00  .00  .00  .00  .00EQDR01  0.817AAP092
0760999999539162000102505596+39823-093579SOD  +0234KCDJ V020999999999999999999999999999+99999+99999999999ADDAA124002396GJ100005GK10005KA1240M+02115KA2240N+01225MG1099739999994OE11240053612015285OE22240040213015255OE33240017099999995REMSOD60524 HR PRECIPITATION (IN): 0.09 TOTAL SUNSHINE (MINUTES):   0 PERCENT POSSIBLE SUNSHINE:  0 24 HR MAX TEMP (F): 7024 HR MAX TEMP TIME (LST):1646 24 HR MIN TEMP (F): 5424 HR MIN TEMP TIME (LST):0710 AVERAGE STATION PRESSURE:29.45  PEAK WIND SPEED (MPH): 12 PEAK WIND DIR (DEG):120 PEAK WIND TIME (LST):1528  FASTEST 2MIN SPEED (MPH):  9FASTEST 2MIN DIR (DEG):130 FASTEST 2MIN TIME (LST):1525 AVERAGE WIND SPEED (MPH): 3.8 24 HR AVG TEMP (F):62 HOURLY INCREMENTAL PRECIPITATION VALUES (IN):.00  .00  .01  .00  .00  .00  .00  .00  .00  .00  .00  .00  .08  .00  .00  .00  .00  .00  .00  .00  .00  .00  .00  .00EQDR01  0.097AAP092
0685999999539182000081205596+36369-092470SOD  +0283KBPK V020999999999999999999999999999+99999+99999999999ADDAA124000096KA1240M+03175KA2240N+01945MG1098379999994OE11240067110012325OE22240053611012315OE33240023299999995REMSOD54524 HR PRECIPITATION (IN): 0.00 24 HR MAX TEMP (F): 8924 HR MAX TEMP TIME (LST):1617 24 HR MIN TEMP (F): 6724 HR MIN TEMP TIME (LST):2359 AVERAGE STATION PRESSURE:29.05  PEAK WIND SPEED (MPH): 15 PEAK WIND DIR (DEG):100 PEAK WIND TIME (LST):1232  FASTEST 2MIN SPEED (MPH): 12FASTEST 2MIN DIR (DEG):110 FASTEST 2MIN TIME (LST):1231 AVERAGE WIND SPEED (MPH): 5.2 24 HR AVG TEMP (F):78 HOURLY INCREMENTAL PRECIPITATION VALUES (IN):.00  .00  .00  .00  .00  .00  .00  .00  .00  .00  .00  .00  .00  .00  .00  .00  .00  .00  .00  .00  .00  .00  .00  .00EQDR01  0.007AAP092
0685999999539182000092205596+36369-092470SOD  +0283KBPK V020999999999999999999999999999+99999+99999999999ADDAA124000096KA1240M+02335KA2240N+01065MG1098109999994OE11240080513013255OE22240062612010025OE33240024699999995REMSOD54524 HR PRECIPITATION (IN): 0.00 24 HR MAX TEMP (F): 7424 HR MAX TEMP TIME (LST):1635 24 HR MIN TEMP (F): 5124 HR MIN TEMP TIME (LST):0623 AVERAGE STATION PRESSURE:28.97  PEAK WIND SPEED (MPH): 18 PEAK WIND DIR (DEG):130 PEAK WIND TIME (LST):1325  FASTEST 2MIN SPEED (MPH): 14FASTEST 2MIN DIR (DEG):120 FASTEST 2MIN TIME (LST):1002 AVERAGE WIND SPEED (MPH): 5.5 24 HR AVG TEMP (F):63 HOURLY INCREMENTAL PRECIPITATION VALUES (IN):.00  .00  .00  .00  .00  .00  .00  .00  .00  .00  .00  .00  .00  .00  .00  .00  .00  .00  .00  .00  .00  .00  .00  .00EQDR01  0.007AAP092
0685999999539192000030805596+33636-091756SOD  +0082KLLQ V020999999999999999999999999999+99999+99999999999ADDAA124000096KA1240M+02675KA2240N+01065MG1100859999994OE11240089415012265OE22240067112015485OE33240028299999995REMSOD54524 HR PRECIPITATION (IN): 0.00 24 HR MAX TEMP (F): 8024 HR MAX TEMP TIME (LST):1526 24 HR MIN TEMP (F): 5124 HR MIN TEMP TIME (LST):0654 AVERAGE STATION PRESSURE:29.78  PEAK WIND SPEED (MPH): 20 PEAK WIND DIR (DEG):150 PEAK WIND TIME (LST):1226  FASTEST 2MIN SPEED (MPH): 15FASTEST 2MIN DIR (DEG):120 FASTEST 2MIN TIME (LST):1548 AVERAGE WIND SPEED (MPH): 6.3 24 HR AVG TEMP (F):66 HOURLY INCREMENTAL PRECIPITATION VALUES (IN):.00  .00  .00  .00  .00  .00  .00  .00  .00  .00  .00  .00  .00  .00  .00  .00  .00  .00  .00  .00  .00  .00  .00  .00EQDR01  0.007AAP092
0685999999539192000032505596+33636-091756SOD  +0082KLLQ V020999999999999999999999999999+99999+99999999999ADDAA124000096KA1240M+02445KA2240N+01615MG1100619999994OE11240080520001005OE22240058119015595OE33240030499999995REMSOD54524 HR PRECIPITATION (IN): 0.00 24 HR MAX TEMP (F): 7624 HR MAX TEMP TIME (LST):1612 24 HR MIN TEMP (F): 6124 HR MIN TEMP TIME (LST):0658 AVERAGE STATION PRESSURE:29.71  PEAK WIND SPEED (MPH): 18 PEAK WIND DIR (DEG):200 PEAK WIND TIME (LST):0100  FASTEST 2MIN SPEED (MPH): 13FASTEST 2MIN DIR (DEG):190 FASTEST 2MIN TIME (LST):1559 AVERAGE WIND SPEED (MPH): 6.8 24 HR AVG TEMP (F):69 HOURLY INCREMENTAL PRECIPITATION VALUES (IN):.00  .00  .00  .00  .00  .00  .00  .00  .00  .00  .00  .00  .00  .00  .00  .00  .00  .00  .00  .00  .00  .00  .00  .00EQDR01  0.007AAP092
0760999999539192000071805596+33636-091756SOD  +0082KLLQ V020999999999999999999999999999+99999+99999999999ADDAA124000096GJ100005GK10005KA1240M+03725KA2240N+02505MG1100519999994OE11240076015021085OE22240058116021225OE33240013099999995REMSOD60524 HR PRECIPITATION (IN): 0.00 TOTAL SUNSHINE (MINUTES):   0 PERCENT POSSIBLE SUNSHINE:  0 24 HR MAX TEMP (F): 9924 HR MAX TEMP TIME (LST):1245 24 HR MIN TEMP (F): 7724 HR MIN TEMP TIME (LST):0553 AVERAGE STATION PRESSURE:29.68  PEAK WIND SPEED (MPH): 17 PEAK WIND DIR (DEG):150 PEAK WIND TIME (LST):2108  FASTEST 2MIN SPEED (MPH): 13FASTEST 2MIN DIR (DEG):160 FASTEST 2MIN TIME (LST):2122 AVERAGE WIND SPEED (MPH): 2.9 24 HR AVG TEMP (F):88 HOURLY INCREMENTAL PRECIPITATION VALUES (IN):.00  .00  .00  .00  .00  .00  .00  .00  .00  .00  .00  .00  .00  .00  .00  .00  .00  .00  .00  .00  .00  .00  .00  .00EQDR01  0.007AAP092
0685999999539192000082205596+33636-091756SOD  +0082KLLQ V020999999999999999999999999999+99999+99999999999ADDAA124000096KA1240M+03725KA2240N+02175MG1100859999994OE11240071526014495OE22240058126014515OE33240010799999995REMSOD54524 HR PRECIPITATION (IN): 0.00 24 HR MAX TEMP (F): 9924 HR MAX TEMP TIME (LST):1357 24 HR MIN TEMP (F): 7124 HR MIN TEMP TIME (LST):0604 AVERAGE STATION PRESSURE:29.78  PEAK WIND SPEED (MPH): 16 PEAK WIND DIR (DEG):260 PEAK WIND TIME (LST):1449  FASTEST 2MIN SPEED (MPH): 13FASTEST 2MIN DIR (DEG):260 FASTEST 2MIN TIME (LST):1451 AVERAGE WIND SPEED (MPH): 2.4 24 HR AVG TEMP (F):85 HOURLY INCREMENTAL PRECIPITATION VALUES (IN):.00  .00  .00  .00  .00  .00  .00  .00  .00  .00  .00  .00  .00  .00  .00  .00  .00  .00  .00  .00  .00  .00  .00  .00EQDR01  0.007AAP092
0663999999539202000062605596+35258-093095SOD  +0123KRUE V020999999999999999999999999999+99999+99999999999ADDAA124000096KA1240M+03335KA2240N+02065MG1099869999994OE11240058122010505OE22240035823015385OE33240006399999995REMSOD52324 HR PRECIPITATION (IN): 0.00 24 HR MAX TEMP (F): 9224 HR MAX TEMP TIME (LST):1555 24 HR MIN TEMP (F): 6924 HR MIN TEMP TIME (LST):0532 AVERAGE STATION PRESSURE:29.49  PEAK WIND SPEED (MPH): 13 PEAK WIND DIR (DEG):220 PEAK WIND TIME (LST):1050  FASTEST 2MIN SPEED (MPH):  8FASTEST 2MIN DIR (DEG):230 FASTEST 2MIN TIME (LST):1538 AVERAGE WIND SPEED (MPH): 1.4 HOURLY INCREMENTAL PRECIPITATION VALUES (IN):.00  .00  .00  .00  .00  .00  .00  .00  .00  .00  .00  .00  .00  .00  .00  .00  .00  .00  .00  .00  .00  .00  .00  .00EQDR01  0.007AAP092
0685999999539212000012605596+34547-093578SOD  +0214KMWT V020999999999999999999999999999+99999+99999999999ADDAA124000096KA1240M+00725KA2240N-00495MG1099399999994OE11240098329015445OE22240080532012425OE33240021599999995REMSOD54524 HR PRECIPITATION (IN): 0.00 24 HR MAX TEMP (F): 4524 HR MAX TEMP TIME (LST):1448 24 HR MIN TEMP (F): 2324 HR MIN TEMP TIME (LST):0656 AVERAGE STATION PRESSURE:29.35  PEAK WIND SPEED (MPH): 22 PEAK WIND DIR (DEG):290 PEAK WIND TIME (LST):1544  FASTEST 2MIN SPEED (MPH): 18FASTEST 2MIN DIR (DEG):320 FASTEST 2MIN TIME (LST):1242 AVERAGE WIND SPEED (MPH): 4.8 24 HR AVG TEMP (F):34 HOURLY INCREMENTAL PRECIPITATION VALUES (IN):.00  .00  .00  .00  .00  .00  .00  .00  .00  .00  .00  .00  .00  .00  .00  .00  .00  .00  .00  .00  .00  .00  .00  .00EQDR01  0.007AAP092
0666999999539212000041905596+34547-093578SOD  +0214KMWT V020999999999999999999999999999+99999+99999999999ADDAA124000025KA1240M+02785KA2240N+00835MG1098819999994OE11240080512014005OE22240058113014005OE33240013099999995REMSOD54524 HR PRECIPITATION (IN):  T   24 HR MAX TEMP (F): 8224 HR MAX TEMP TIME (LST):1552 24 HR MIN TEMP (F): 4724 HR MIN TEMP TIME (LST):0457 AVERAGE STATION PRESSURE:29.18  PEAK WIND SPEED (MPH): 18 PEAK WIND DIR (DEG):120 PEAK WIND TIME (LST):1400  FASTEST 2MIN SPEED (MPH): 13FASTEST 2MIN DIR (DEG):130 FASTEST 2MIN TIME (LST):1400 AVERAGE WIND SPEED (MPH): 2.9 24 HR AVG TEMP (F):65 HOURLY INCREMENTAL PRECIPITATION VALUES (IN):.00  .00  .00  .00  .00  .00  .00  .00  .00  .00  .00  .00  .00  .00  .00  .00  .00  .00  .00   T   .00  .00  .00  .00
1070999999539212000090105596+34547-093578SOM  +0214KMWT V020999999999999999999999999999+99999+99999999999ADDAB10000396AD10000392323999999995AE1016005999005AH1005000392302055AH2010000392302055AH3015000392302055AH4020000392302055AH5030000392302055AH6045000392302055AI1060000392302055AI2080000392302055AI3100000392302055AI4120000392302055AI5150000392302055AI6180000392302055KB1744N+20115KB2744M+37895KB3744A+29005KD1744H00005KD2744C05636MH1098954101464MK1102102309375100783115395REMSOM639PCP MTOT: 0.01 DEPNRM:-4.20 PCP GT 24HRS: 0.01 DATE(S):23 DAYS W/PCP >=.01: 1 DAYS W/PCP >=.10: 0 DAYS W/PCP >=1.00:  MSDP AMTS W/DATE-TIME TAGS:MIN:5  .01  23/0205 MIN:10  .01  23/0205 MIN:15  .01  23/0205 MIN:20  .01  23/0205 MIN:30  .01  23/0205 MIN:45  .01  23/0205 MIN:60  .01  23/0205 MIN:80  .01  23/0205 MIN:100  .01  23/0205 MIN:120  .01  23/0205 MIN:150  .01  23/0205 MIN:180  .01  23/0205 SN GT DP ON GRND:0 DATE(S):0  AVG DLY MIN: 68.2 AVG DLY MAX:100.2 AVG MLY TMP: 84.2 AVG STP:29.22  AVG SLP:29.96  LWST SLP:29.76 DATE/TIME:311539 HGST SLP:30.15 DATE/TIME:230937 HDD MTH TOT:   0 DEP NORM:   0 CDD MTH TOT: 563 DEP NORM: 166EQDR01  0.017ABP070R02     17AE1100R03   5637KDC058
0685999999539222000102005596+36283-094300SOD  +0402KXNA V020999999999999999999999999999+99999+99999999999ADDAA124000096KA1240M+02445KA2240N+00565MG1097369999994OE11240049220013555OE22240040214014315OE33240006799999995REMSOD54524 HR PRECIPITATION (IN): 0.00 24 HR MAX TEMP (F): 7624 HR MAX TEMP TIME (LST):1459 24 HR MIN TEMP (F): 4224 HR MIN TEMP TIME (LST):0652 AVERAGE STATION PRESSURE:28.75  PEAK WIND SPEED (MPH): 11 PEAK WIND DIR (DEG):200 PEAK WIND TIME (LST):1355  FASTEST 2MIN SPEED (MPH):  9FASTEST 2MIN DIR (DEG):140 FASTEST 2MIN TIME (LST):1431 AVERAGE WIND SPEED (MPH): 1.5 24 HR AVG TEMP (F):59 HOURLY INCREMENTAL PRECIPITATION VALUES (IN):.00  .00  .00  .00  .00  .00  .00  .00  .00  .00  .00  .00  .00  .00  .00  .00  .00  .00  .00  .00  .00  .00  .00  .00EQDR01  0.007AAP092
0666999999539222000102305596+36283-094300SOD  +0402KXNA V020999999999999999999999999999+99999+99999999999ADDAA124010795KA1240M+01945KA2240N+01445MG1097539999994OE11240062613011175OE22240049213011235OE33240023299999995REMSOD54524 HR PRECIPITATION (IN): 0.42 24 HR MAX TEMP (F): 6724 HR MAX TEMP TIME (LST):1802 24 HR MIN TEMP (F): 5824 HR MIN TEMP TIME (LST):0213 AVERAGE STATION PRESSURE:28.80  PEAK WIND SPEED (MPH): 14 PEAK WIND DIR (DEG):130 PEAK WIND TIME (LST):1117  FASTEST 2MIN SPEED (MPH): 11FASTEST 2MIN DIR (DEG):130 FASTEST 2MIN TIME (LST):1123 AVERAGE WIND SPEED (MPH): 5.2 24 HR AVG TEMP (F):63 HOURLY INCREMENTAL PRECIPITATION VALUES (IN):.00   T   .01   T    T   .00  .00  .03  .07  .06  .01  .03  .05  .07  .08  .01  .00  .00  .00  .00  .00  .00  .00  .00
0665999999547042000012604596+42191-071174SOD  +0015KOWD V020999999999999999999999999999+99999+99999999999ADDAA124018595KA1240M+00175KA2240N-01275MG1099669999994OE11240152005011575OE22240098305014325OE33240047499999995REMSOD54424 HR PRECIPITATION (IN): 0.73 24 HR MAX TEMP (F): 3524 HR MAX TEMP TIME (LST):0914 24 HR MIN TEMP (F):  924 HR MIN TEMP TIME (LST):0003 AVERAGE STATION PRESSURE:29.43  PEAK WIND SPEED (MPH): 34 PEAK WIND DIR (DEG):050 PEAK WIND TIME (LST):1157  FASTEST 2MIN SPEED (MPH): 22FASTEST 2MIN DIR (DEG):050 FASTEST 2MIN TIME (LST):1432 AVERAGE WIND SPEED (MPH):10.6 24 HR AVG TEMP (F):22 HOURLY INCREMENTAL PRECIPITATION VALUES (IN):.00  .00  .00  .00  .00  .00  .03  .09  .10  .08  .15  .10  .04  .02   T    T    T    T   .01  .01   T   .05  .05   T
1104999999547042000050104596+42191-071174SOM  +0015KOWD V020999999999999999999999999999+99999+99999999999ADDAB10100896AD10068892121999999996AE1066046999005AH1005001592122255AH2010002592122255AH3015003692122345AH4020004692122345AH5030006192201305AH6045008692201455AI1060011292202005AI2080014592202025AI3100017892202335AI4120020692202455AI5150024692202545AI6180028292203025KB1720N+02785KB2720M+13065KB3720A+07945KD1720H05357KD2720C00005MH1101084102244MK1103351310135098719999995REMSOM641PCP MTOT: 3.97 DEPNRM: 0.00 PCP GT 24HRS: 2.71 DATE(S):212+ DAYS W/PCP >=.01: 6 DAYS W/PCP >=.10: 4 DAYS W/PCP >=1.00:  MSDP AMTS W/DATE-TIME TAGS:MIN:5  .06  21/2225 MIN:10  .10  21/2225 MIN:15  .14  21/2234 MIN:20  .18  21/2234 MIN:30  .24  22/0130 MIN:45  .34  22/0145 MIN:60  .44  22/0200 MIN:80  .57  22/0202 MIN:100  .70  22/0233 MIN:120  .81  22/0245 MIN:150  .97  22/0254 MIN:180 1.11  22/0302 SN GT DP ON GRND:0 DATE(S):0  AVG DLY MIN: 37.0 AVG DLY MAX: 55.5 AVG MLY TMP: 46.3 AVG STP:29.85  AVG SLP:30.19  LWST SLP:29.15 DATE/TIME: 90906 HGST SLP:30.52 DATE/TIME:131013 HDD MTH TOT: 535 DEP NORM:-255 CDD MTH TOT:   0 DEP NORM:-255EQDR01  3.977ABP070R02  2.717ADP081R03     67AE1100R04      7AE2103R05   5357KDH015
0666999999547042000062004596+42191-071174SOD  +0015KOWD V020999999999999999999999999999+99999+99999999999ADDAA124000595KA1240M+02225KA2240N+01225MG1101599999994OE11240053610011085OE22240035809011135OE33240013499999995REMSOD54524 HR PRECIPITATION (IN): 0.02 24 HR MAX TEMP (F): 7224 HR MAX TEMP TIME (LST):1738 24 HR MIN TEMP (F): 5424 HR MIN TEMP TIME (LST):2353 AVERAGE STATION PRESSURE:30.00  PEAK WIND SPEED (MPH): 12 PEAK WIND DIR (DEG):100 PEAK WIND TIME (LST):1108  FASTEST 2MIN SPEED (MPH):  8FASTEST 2MIN DIR (DEG):090 FASTEST 2MIN TIME (LST):1113 AVERAGE WIND SPEED (MPH): 3.0 24 HR AVG TEMP (F):63 HOURLY INCREMENTAL PRECIPITATION VALUES (IN):.00   T    T   .02  .00  .00  .00  .00  .00  .00  .00  .00  .00  .00  .00  .00  .00  .00  .00  .00  .00  .00  .00  .00
0665999999547042000062904596+42191-071174SOD  +0015KOWD V020999999999999999999999999999+99999+99999999999ADDAA124000595KA1240M+02785KA2240N+01445MG1101089999994OE11240067121017255OE22240062621017255OE33240015699999995REMSOD54424 HR PRECIPITATION (IN): 0.02 24 HR MAX TEMP (F): 8224 HR MAX TEMP TIME (LST):1429 24 HR MIN TEMP (F): 5824 HR MIN TEMP TIME (LST):0418 AVERAGE STATION PRESSURE:29.85  PEAK WIND SPEED (MPH): 15 PEAK WIND DIR (DEG):210 PEAK WIND TIME (LST):1725  FASTEST 2MIN SPEED (MPH): 14FASTEST 2MIN DIR (DEG):210 FASTEST 2MIN TIME (LST):1725 AVERAGE WIND SPEED (MPH): 3.5 24 HR AVG TEMP (F):70 HOURLY INCREMENTAL PRECIPITATION VALUES (IN):.00  .00  .01  .00  .00  .00  .00  .00  .00  .00  .00  .00  .00  .00  .00  .00  .00  .00  .00  .00  .00  .00  .00   T
0644999999547282000040904596+44368-071545SOD  +0327KHIE V020999999999999999999999999999+99999+99999999999ADDAA124004895KA1240M+02285KA2240N+00285MG1096349999994OE11240169920006565OE22240116218007165OE33240052899999995REMSOD52324 HR PRECIPITATION (IN): 0.19 24 HR MAX TEMP (F): 7324 HR MAX TEMP TIME (LST):1457 24 HR MIN TEMP (F): 3724 HR MIN TEMP TIME (LST):0211 AVERAGE STATION PRESSURE:28.45  PEAK WIND SPEED (MPH): 38 PEAK WIND DIR (DEG):200 PEAK WIND TIME (LST):0656  FASTEST 2MIN SPEED (MPH): 26FASTEST 2MIN DIR (DEG):180 FASTEST 2MIN TIME (LST):0716 AVERAGE WIND SPEED (MPH):11.8 HOURLY INCREMENTAL PRECIPITATION VALUES (IN):.10  .02  .04  .03   T   .00  .00  .00  .00  .00  .00  .00  .00  .00  .00  .00  .00  .00  .00  .00  .00  .00  .00  .00
0685999999547282000070304596+44368-071545SOD  +0327KHIE V020999999999999999999999999999+99999+99999999999ADDAA124000396KA1240M+02835KA2240N+00675MG1097569999994OE11240093927013445OE22240071526014235OE33240015699999995REMSOD54524 HR PRECIPITATION (IN): 0.01 24 HR MAX TEMP (F): 8324 HR MAX TEMP TIME (LST):1526 24 HR MIN TEMP (F): 4424 HR MIN TEMP TIME (LST):0350 AVERAGE STATION PRESSURE:28.81  PEAK WIND SPEED (MPH): 21 PEAK WIND DIR (DEG):270 PEAK WIND TIME (LST):1344  FASTEST 2MIN SPEED (MPH): 16FASTEST 2MIN DIR (DEG):260 FASTEST 2MIN TIME (LST):1423 AVERAGE WIND SPEED (MPH): 3.5 24 HR AVG TEMP (F):64 HOURLY INCREMENTAL PRECIPITATION VALUES (IN):.00  .00  .01  .00  .00  .00  .00  .00  .00  .00  .00  .00  .00  .00  .00  .00  .00  .00  .00  .00  .00  .00  .00  .00EQDR01  0.017AAP092
0685999999547332000062104596+42584-070918SOD  +0033KBVY V020999999999999999999999999999+99999+99999999999ADDAA124000096KA1240M+02615KA2240N+01175MG1101259999994OE11240129635012035OE22240076033008355OE33240025099999995REMSOD54524 HR PRECIPITATION (IN): 0.00 24 HR MAX TEMP (F): 7924 HR MAX TEMP TIME (LST):1404 24 HR MIN TEMP (F): 5324 HR MIN TEMP TIME (LST):0436 AVERAGE STATION PRESSURE:29.90  PEAK WIND SPEED (MPH): 29 PEAK WIND DIR (DEG):350 PEAK WIND TIME (LST):1203  FASTEST 2MIN SPEED (MPH): 17FASTEST 2MIN DIR (DEG):330 FASTEST 2MIN TIME (LST):0835 AVERAGE WIND SPEED (MPH): 5.6 24 HR AVG TEMP (F):66 HOURLY INCREMENTAL PRECIPITATION VALUES (IN):.00  .00  .00  .00  .00  .00  .00  .00  .00  .00  .00  .00  .00  .00  .00  .00  .00  .00  .00  .00  .00  .00  .00  .00EQDR01  0.007AAP092
0666999999547332000080504596+42584-070918SOD  +0033KBVY V020999999999999999999999999999+99999+99999999999ADDAA124000395KA1240M+02615KA2240N+01615MG1100889999994OE11240080532009265OE22240071532009295OE33240028299999995REMSOD54524 HR PRECIPITATION (IN): 0.01 24 HR MAX TEMP (F): 7924 HR MAX TEMP TIME (LST):1658 24 HR MIN TEMP (F): 6124 HR MIN TEMP TIME (LST):2359 AVERAGE STATION PRESSURE:29.79  PEAK WIND SPEED (MPH): 18 PEAK WIND DIR (DEG):320 PEAK WIND TIME (LST):0926  FASTEST 2MIN SPEED (MPH): 16FASTEST 2MIN DIR (DEG):320 FASTEST 2MIN TIME (LST):0929 AVERAGE WIND SPEED (MPH): 6.3 24 HR AVG TEMP (F):70 HOURLY INCREMENTAL PRECIPITATION VALUES (IN):.00  .00  .00  .00  .00  .00  .00  .00  .00  .01  .00  .00  .00  .00  .00  .00  .00  .00  .00  .00  .00  .00  .00  .00
0760999999547332000102504596+42584-070918SOD  +0033KBVY V020999999999999999999999999999+99999+99999999999ADDAA124000096GJ100005GK10005KA1240M+02005KA2240N+00395MG1102009999994OE11240071526012265OE22240062622011585OE33240022499999995REMSOD60524 HR PRECIPITATION (IN): 0.00 TOTAL SUNSHINE (MINUTES):   0 PERCENT POSSIBLE SUNSHINE:  0 24 HR MAX TEMP (F): 6824 HR MAX TEMP TIME (LST):1509 24 HR MIN TEMP (F): 3924 HR MIN TEMP TIME (LST):0644 AVERAGE STATION PRESSURE:30.12  PEAK WIND SPEED (MPH): 16 PEAK WIND DIR (DEG):260 PEAK WIND TIME (LST):1226  FASTEST 2MIN SPEED (MPH): 14FASTEST 2MIN DIR (DEG):220 FASTEST 2MIN TIME (LST):1158 AVERAGE WIND SPEED (MPH): 5.0 24 HR AVG TEMP (F):54 HOURLY INCREMENTAL PRECIPITATION VALUES (IN):.00  .00  .00  .00  .00  .00  .00  .00  .00  .00  .00  .00  .00  .00  .00  .00  .00  .00  .00  .00  .00  .00  .00  .00EQDR01  0.007AAP092
0666999999547342000052404596+41371-073483SOD  +0139KDXR V020999999999999999999999999999+99999+99999999999ADDAA124002395KA1240M+01725KA2240N+01005MG1099099999994OE11240076014023195OE22240058114023295OE33240023799999995REMSOD54524 HR PRECIPITATION (IN): 0.09 24 HR MAX TEMP (F): 6324 HR MAX TEMP TIME (LST):1329 24 HR MIN TEMP (F): 5024 HR MIN TEMP TIME (LST):0517 AVERAGE STATION PRESSURE:29.26  PEAK WIND SPEED (MPH): 17 PEAK WIND DIR (DEG):140 PEAK WIND TIME (LST):2319  FASTEST 2MIN SPEED (MPH): 13FASTEST 2MIN DIR (DEG):140 FASTEST 2MIN TIME (LST):2329 AVERAGE WIND SPEED (MPH): 5.3 24 HR AVG TEMP (F):57 HOURLY INCREMENTAL PRECIPITATION VALUES (IN):.00  .00  .01  .00  .00  .00  .00  .00  .00  .00  .00  .00  .00  .00  .00  .00  .00  .00  .00  .01  .01  .02  .01  .02
