0163471190999992000022306004+37270+126980FM-12+003899999V0202701N005112200019N0120001N1+00541-00191102141ADDAA199000091GF102991021051012501001001MA1999999101721MD1710161+9999REMSYN066AAXX  23064 47119 32662 22710 10054 21019 30172 40214 57016 82500;EQDQ01  00002PRCP99
0226471190999992000041612004+37270+126980FM-12+003899999V0202501N001512200019N0150001N1+01151+00021101251ADDAA199000091GA1001+999999999GF100991001001999999001001IA1019IA2999+00809KA1120M+01731MA1999999100841MD1210101+9999REMSYN082AAXX  16124 47119 32965 02503 10115 20002 30084 40125 52010 333 10173 30008 55090;EQDQ01  00002PRCP99
0197471190999992000042000004+37270+126980FM-12+003899999V0201401N006212200019N0120001N1+01531+00591101451ADDAA124000191GF104991001001999999001021IA1019IA2999+02409KA1120N+00771MA1999999101051MD1210171+9999REMSYN088AAXX  20004 47119 32962 41412 10153 20059 30105 40145 52017 80002 333 20077 30024 70001;
0173471190999992000050818004+37270+126980FM-12+003899999V0201601N000512200019N0150001N1+01231+01011101511ADDAA199000091GA1001+999999999GF100991001001999999001001MA1999999101111MD1710151+9999REMSYN060AAXX  08184 47119 32965 01601 10123 20101 30111 40151 57015;EQDQ01  00002PRCP99
0163471190999992000051418004+37270+126980FM-12+003899999V0200701N000519999999N0120001N1+01431+01071101191ADDAA199000091GF105991001001999999001011MA1999999100781MD1310011+9999REMSYN066AAXX  14184 47119 32962 50701 10143 20107 30078 40119 53001 80001;EQDQ01  00002PRCP99
0231471190999992000051900004+37270+126980FM-12+003899999V0201401N003112200019N0070001N1+01891+01301100711ADDAA112000391AY111061AY201061GF102991021051012501001001IA1099IA2999+03109KA1120N+01361MA1999999100321MD1510021+9999MW1101REMSYN100AAXX  19004 47119 11657 21406 10189 20130 30032 40071 55002 69942 71010 82500 333 20136 31031 70002;
0210471190999992000060400004+37270+126980FM-12+003899999V0201101N000519999999N0120001N1+02481+01661100961ADDAA199000091GF106991001001999999001021IA1019IA2999+03309KA1120N+01921MA1999999100581MD1210081+9999REMSYN082AAXX  04004 47119 32962 61101 10248 20166 30058 40096 52008 80002 333 20192 30033;EQDQ01  00002PRCP99
0163471190999992000070115004+37260+126970FM-12+003899999V0209999C000012200019N0130001N1+02471+02101101261ADDAA199000091GF103991031051012501001001MA1999999100871MD1210121+9999REMSYN066AAXX  01154 47119 32663 30000 10247 20210 30087 40126 52012 83500;EQDQ01  00002PRCP99
0209471190999992000070412004+37260+126970FM-12+003899999V0203401N001512200019N0130001N1+02811+01901101241ADDAA112000191GF102991021081012501001001IA1019IA2999+02509KA1120M+03421MA1999999100861MD1310131+9999REMSYN100AAXX  04124 47119 11663 23403 10281 20190 30086 40124 53013 69922 82800 333 10342 30025 55087 70002;
0219471190999992000071300004+37260+126970FM-12+003899999V0202301N002110120019N0008001N1+02531+02261100481ADDAA199000021AY141061AY221061GF108991081001012501021999IA1099IA2999+02609KA1120N+02371MA1999999100091MD1210041+9999MW1441REMSYN088AAXX  13004 47119 31608 82304 10253 20226 30009 40048 52004 74442 8802/ 333 20237 31026;
0163471190999992000071706004+37260+126970FM-12+003899999V0202501N003610150019N0220001N1+03061+02261100961ADDAA199000091GF106991061081012501001011MA1999999100581MD1710131+9999REMSYN066AAXX  17064 47119 32672 62507 10306 20226 30058 40096 57013 86801;EQDQ01  00002PRCP99
0220471190999992000081312004+37260+126970FM-12+003899999V0202701N001012200019N0120001N1+02781+02331100651ADDAA199000091GA1001+999999999GF100991001001999999001001IA1099IA2999+02609KA1120M+03331MA1999999100271MD1210151+9999REMSYN076AAXX  13124 47119 32962 02702 10278 20233 30027 40065 52015 333 10333 31026;EQDQ01  00002PRCP99
0172471190999992000082318004+37260+126970FM-12+003899999V0201601N001010120019N0080001N1+02131+02041101451ADDAA199000021AY161061AY261061GF108991061071012501021999MA1999999101061MD1710011+9999MW1611REMSYN072AAXX  23184 47119 32658 81602 10213 20204 30106 40145 57001 76166 8672/;
0163471190999992000100118004+37260+126970FM-12+003899999V0203201N000510120019N0080001N1+01741+01561101321ADDAA199000091GF108991061051012501021999MA1999999100921MD1710081+9999REMSYN066AAXX  01184 47119 32658 83201 10174 20156 30092 40132 57008 8652/;EQDQ01  00002PRCP99
0163471190999992000101306004+37260+126970FM-12+003899999V0203401N003612200019N0250001N1+01431-00721102051ADDAA199000091GF104991001001999999001011MA1999999101641MD1710171+9999REMSYN066AAXX  13064 47119 32975 43407 10143 21072 30164 40205 57017 80001;EQDQ01  00002PRCP99
0157471190999992000120106004+37260+126970FM-12+003899999V0202701N002112200019N0150001N1+01081-00031102531ADDAA199000091GF102991999999999999999999MA1999999102121MD1710101+9999REMSYN060AAXX  01064 47119 32965 22704 10108 21003 30212 40253 57010;EQDQ01  00002PRCP99
0179471190999992000122306004+37260+126970FM-12+003899999V0202901N006712200019N0200001N1+00321-00631101491ADDAA199000091GF104991999041999999001001MA1999999101061MD1010071+9999REMSYN066AAXX  23064 47119 32970 42913 10032 21063 30106 40149 50007 85400;EQDQ01+000052SCOTLCQ02  00002PRCP99
0184471200999992000010112004+37250+127000FM-15+0024RKSW V0201201N000510600019N0090001N1+00701+00201999999ADDGD12991+0300099GD23991+0600099GF107991999999999999999999MA1102441999999MW1101REMMET076RKSW 1156Z 12001KT 9000 BR SCT100 BKN200 07/02 A3025 RMK CIG200/ QFF1024PT4;EQDQ01    003PRSWM1
0193471200999992000010719004+37250+127000FM-15+0024RKSW V0200801N000510090019N0060001N1-00701-00701999999ADDGD13991+0090099GF107991999999999999999999MA1102471999999MW1711REMMET084RKSW 1857Z 08001KT 6000 -SN BKN030 M07/M07 A3026 RMK CIG030/1SN02/LSR16/ QFF1024PT8;EQDQ01+000003PRSWM1Q02    003PRSWM1
0142471200999992000011101244+37250+127000FM-16+0024RKSW V0200501N002110600019N0112651N1+99999+99999999999ADDGD13991+0600099GF107991999999999999999999MA1102911999999MW1001REMMET049RKSW 0124Z 05004KT 9999 BKN200 A3039 RMK CIG200/;EQDQ01+000000PRSWM2
0144471200999992000011706384+37250+127000FM-16+0024RKSW V0202801N004112200019N0080001N1+99999+99999999999ADDGD12991+0600099GF102991999999999999999999MA1102131999999MW1001MW2051REMMET045RKSW 0638Z 28008KT 8000 HZ FEW200 A3016 RMK ;EQDQ01+000003PRSWM1
0094471200999992000012419004+37250+127000FM-15+0024RKSW V0202801N002612200019N0112651N1+99999+99999999999ADDMW1001REMMET057RKSW 1857Z 28005KT 9999 200 M08/M20 A3048 RMK QFF1032PT4;EQDQ01+000000PRSWM2
0105471200999992000012606004+37250+127000FM-15+0024RKSW V0202901N003112200019N0112651N1+99999+99999999999ADDMA1103011999999MW1001REMMET053RKSW 0556Z 29006KT 9999 M04/M15 A3042 RMK QFF1030PT5;EQDQ01+000000PRSWM2
0153471200999992000020113004+37250+127000FM-15+0024RKSW V0201301N000512200019N0112651N1-00701-00901999999ADDGD12991+0090099GF102991999999999999999999MA1103251999999MW1001REMMET060RKSW 1257Z 13001KT 9999 FEW030 M07/M09 A3049 RMK QFF1032PT8;EQDQ01+000000PRSWM2
0172471200999992000020310004+37250+127000FM-15+0024RKSW V0202701N002612200019N0060001N1-00101-00401999999ADDGD12991+0090099GF102991999999999999999999MA1102881999999MW1101REMMET063RKSW 0957Z 27005KT 6000 BR FEW030 M01/M04 A3038 RMK QFF1028PT9;EQDQ01+000003PRSWM1Q02    003PRSWM1
0105471200999992000020915004+37250+127000FM-15+0024RKSW V0201401N000512200019N0112651N1+99999+99999999999ADDMA1102441999999MW1001REMMET053RKSW 1456Z 14001KT 9999 M07/M10 A3025 RMK QFF1024PT8;EQDQ01+000000PRSWM2
0179471200999992000021311004+37250+127000FM-15+0024RKSW V0202901N002110600019N0060001N1+00301-00101999999ADDGD13991+0600099GF107991999999999999999999MA1101801999999MW1101REMMET070RKSW 1058Z 29004KT 6000 BR BKN200 03/M01 A3006 RMK CIG200/ QFF1018PT0;EQDQ01+000003PRSWM1Q02    003PRSWM1
0152471200999992000022003004+37250+127000FM-15+0024RKSW V0202901N003112200019N0112651N1+00301-00601999999ADDGD12991+0090099GF102991999999999999999999MA1101661999999MW1001REMMET059RKSW 0256Z 29006KT 9999 FEW030 03/M06 A3002 RMK QFF1016PT8;EQDQ01+000000PRSWM2
0104471200999992000022004004+37250+127000FM-15+0024RKSW V0202701N007712200019N0112651N1+00401-00601999999ADDMA1101491999999MW1001REMMET052RKSW 0458Z 27015KT 9999 04/M06 A2997 RMK QFF1015PT0;EQDQ01+000000PRSWM2
0129471200999992000022613504+37250+127000FM-16+0024RKSW V0202801N002610090019N0090001N1+99999+99999999999ADDGD13991+0090099GF107991999999999999999999MW1001MW2101REMMET045RKSW 1350Z 28005KT 9000 BR BKN030 RMK CIG030;EQDQ01+000003PRSWM1
0182471200999992000022708004+37250+127000FM-15+0024RKSW V0202501N007210600019N0112651N1+00701-00301999999ADDGD12991+0090099GD23991+0600099GF107991999999999999999999MA1102171999999MW1001REMMET074RKSW 0758Z 25014KT 9999 FEW030 BKN200 07/M03 A3017 RMK CIG200/ QFF1022PT0;EQDQ01+000000PRSWM2
0182471200999992000030804004+37250+127000FM-15+0024RKSW V0202901N005712200019N0090001N1+00301+00001999999ADDGD12991+0090099GF104991999999999999999999MA1102171999999MW1101REMMET073RKSW 0357Z 29011KT 9000 BR SCT030 03/00 A3017 RMK 1SN01/WR23/ QFF1021PT9;EQDQ01+000003PRSWM1Q02    003PRSWM1
0152471200999992000030810004+37250+127000FM-15+0024RKSW V0202701N006712200019N0112651N1+00101-00901999999ADDGD12991+0090099GF102991999999999999999999MA1102131999999MW1001REMMET059RKSW 0957Z 27013KT 9999 FEW030 01/M09 A3016 RMK QFF1021PT5;EQDQ01+000000PRSWM2
0105471200999992000030821004+37250+127000FM-15+0024RKSW V0201201N000512200019N0112651N1+99999+99999999999ADDMA1102741999999MW1001REMMET053RKSW 2056Z 12001KT 9999 M06/M08 A3034 RMK QFF1027PT7;EQDQ01+000000PRSWM2
0104471200999992000031405004+37250+127000FM-15+0024RKSW V0202701N005112200019N0112651N1+01101-00801999999ADDMA1102441999999MW1001REMMET052RKSW 0458Z 27010KT 9999 11/M08 A3025 RMK QFF1024PT6;EQDQ01+000000PRSWM2
0166471200999992000031620254+37250+127000FM-16+0024RKSW V0209999C000012200019N0032001N1+99999+99999999999ADDGD19999+0001599GD22991+0045099GF102991999999999999999999MA1101861999999MW1001MW2101REMMET052RKSW 2025Z 00000KT 3200 BR 1FG/// FEW015 A3008 RMK ;EQDQ01+000003PRSWM1
0159471200999992000031903004+37250+127000FM-15+0024RKSW V0202701N005110090019N0112651N1+00601+00001999999ADDGD13991+0090099GF107991999999999999999999MA1101661999999MW1001REMMET066RKSW 0357Z 27010KT 9999 BKN030 06/00 A3002 RMK CIG030/ QFF1016PT6;EQDQ01+000000PRSWM2
0114471200999992000031919004+37250+127000FM-15+0024RKSW V0201101N000512200019N0048001N1+99999+99999999999ADDMA1102271999999MW1001MW2101REMMET056RKSW 1958Z 11001KT 4800 BR M01/M01 A3020 RMK QFF1022PT8;EQDQ01+000003PRSWM1
0103471200999992000040300004+37250+127000FM-15+0024RKSW V0209999C000012200019N0112651N1+01101+00301999999ADDMA1102271999999MW1001REMMET051RKSW 2356Z 00000KT 9999 11/03 A3020 RMK QFF1022PT9;EQDQ01+000000PRSWM2
0173471200999992000040919154+37250+127000FM-16+0024RKSW V0202701N003110090019N0080001N1+99999+99999999999ADDGD12991+0036099GD24991+0090099GF108991999999999999999999MA1100911999999MW1001MW2611REMMET059RKSW 1915Z 27006KT 8000 -RA SCT012 OVC030 A2980 RMK CIG030;EQDQ01+000003PRSWM1
0192471200999992000041223004+37250+127000FM-15+0024RKSW V0209999C000012200019N0032001N1+01001+00601999999ADDGD19999+0001599GD22991+0600099GF104991999999999999999999MA1100911999999MW1101REMMET068RKSW 2258Z 00000KT 3200 BR 1FG/// SCT200 10/06 A2980 RMK QFF1009PT2;EQDQ01+000003PRSWM1Q02    003PRSWM1
0159471200999992000041403004+37250+127000FM-15+0024RKSW V02099999999990600019N0080001N1+01601-00101999999ADDGD13991+0600099GF107991999999999999999999MA1101421999999MW1001REMMET066RKSW 0256Z 36003K 9999 BKN200 16/M01 A2995 RMK CIG200/ QFF1014PT4;EQDQ01+000000PRSWM2
0212471200999992000042706004+37250+127000FM-15+0024RKSW V0203301N002610045019N0090001N1+01301+00801999999ADDGD13991+0045099GD24991+0075099GF108991999999999999999999MA1100751999999MW1101REMMET088RKSW 0556Z 33005KT 9000 BR BKN015 OVC025 13/08 A2975 RMK CIGM015/6RA06/WR22/ QFF1007PT6;EQDQ01+000003PRSWM1Q02    003PRSWM1
0173471200999992000051615204+37250+127000FM-16+0024RKSW V0209999C000010030019N0024001N1+99999+99999999999ADDGD12991+0001599GD24991+0030099GF108991999999999999999999MA1101251999999MW1001MW2101REMMET059RKSW 1520Z 00000KT 2400 BR 2FG/// OVC010 A2990 RMK CIGM010;EQDQ01+000003PRSWM1
0200471200999992000051904004+37250+127000FM-15+0024RKSW V0202401N001010090019N0090001N1+01901+01201999999ADDGD12991+0045099GD24991+0090099GF108991999999999999999999MA1100811999999MW1051REMMET076RKSW 0357Z 24002KT 9000 HZ SCT015 OVC030 19/12 A2977 RMK CIG030/ QFF1008PT1;EQDQ01+000003PRSWM1Q02    003PRSWM1
0213471200999992000052622004+37250+127000FM-15+0024RKSW V0201101N000510045019N0090001N1+01801+01501999999ADDGD13991+0045099GD24991+0090099GF108991999999999999999999MA1100071999999MW1511REMMET089RKSW 2157Z 11001KT 9000 -DZ BKN015 OVC030 18/15 A2955 RMK CIGM015/1RA02/WR20/ QFF1000PT8;EQDQ01+000003PRSWM1Q02    003PRSWM1
0205471200999992000052722004+37250+127000FM-15+0024RKSW V0201901N000510090019N0090001N1+01501+01201999999ADDGD12991+0036099GD23991+0090099GF107991999999999999999999MA1100411999999MW1101REMMET081RKSW 2157Z 19001KT 9000 BR FEW012 BKN030 15/12 A2965 RMK CIG030/WR20/ QFF1004PT1;EQDQ01+000003PRSWM1Q02    003PRSWM1
0103471200999992000053106004+37250+127000FM-15+0024RKSW V0202801N007212200019N0112651N1+02301+01201999999ADDMA1100411999999MW1001REMMET051RKSW 0556Z 28014KT 9999 23/12 A2965 RMK QFF1004PT1;EQDQ01+000000PRSWM2
0170471200999992000060306004+37250+127000FM-15+0024RKSW V0202801N002112200019N0048001N1+02901+01701999999ADDGD12991+0090099GF104991999999999999999999MA1100681999999MW1051REMMET061RKSW 0556Z 28004KT 4800 HZ SCT030 29/17 A2973 RMK QFF1006PT7;EQDQ01+000003PRSWM1Q02    003PRSWM1
0172471200999992000060810254+37250+127000FM-16+0024RKSW V0209999C000010120019N0080001N1+99999+99999999999ADDGD13991+0120099GD24991+0300099GF108991999999999999999999MA1100141999999MW1001MW2101REMMET058RKSW 1025Z 00000KT 8000 BR BKN040 OVC100 A2957 RMK CIG040;EQDQ01+000003PRSWM1
0176471200999992000061017004+37250+127000FM-15+0024RKSW V0209999C000012200019N0090001N1+01701+01501999999ADDGD12991+0090099GF102991999999999999999999MA1101121999999MW1101REMMET067RKSW 1658Z 00000KT 9000 BR FEW030 17/15 A2986 RMK DI65/ QFF1011PT2;EQDQ01+000003PRSWM1Q02    003PRSWM1
0162471200999992000070701004+37250+127000FM-15+0024RKSW V0200901N004112200019N0112651N1+02801+02001999999ADDGD12991+0120099GF104991999999999999999999MA1100611999999MW1001REMMET069RKSW 0057Z 09008KT 9999 SCT040 28/20 A2971 RMK DI78/WB27/ QFF1006PT0;EQDQ01+000000PRSWM2
0151471200999992000070812004+37250+127000FM-15+0024RKSW V0202701N003112200019N0112651N1+02701+01801999999ADDGD12991+0600099GF104991999999999999999999MA1100611999999MW1001REMMET058RKSW 1156Z 27006KT 9999 SCT200 27/18 A2971 RMK QFF1006PT0;EQDQ01+000000PRSWM2
0163471200999992000071007104+37250+127000FM-16+0024RKSW V0201101N004110300019N0112651N1+99999+99999999999ADDGD12991+0120099GD24991+0300099GF108991999999999999999999MA1101021999999MW1001REMMET055RKSW 0710Z 11008KT 9999 SCT040 OVC100 A2983 RMK CIG100;EQDQ01+000000PRSWM2
0215471200999992000071123004+37250+127000FM-15+0024RKSW V0202401N008210090019N0060001N1+02401+02001999999ADDGD12991+0045099GD23991+0090099GF107991999999999999999999MA1100371999999MW1101REMMET091RKSW 2258Z 24016KT 6000 BR FEW015 BKN030 24/20 A2964 RMK CIG030/WR23/DI74/WB23/ QFF1003PT6;EQDQ01+000003PRSWM1Q02    003PRSWM1
0187471200999992000071513004+37250+127000FM-15+0024RKSW V0201901N000510075019N0112651N1+02401+02001999999ADDGD12991+0045099GD23991+0075099GF107991999999999999999999MA1101151999999MW1001REMMET079RKSW 1257Z 19001KT 9999 SCT015 BKN025 24/20 A2987 RMK CIGM025/DI73/ QFF1011PT4;EQDQ01+000000PRSWM2
0152471200999992000071623054+37250+127000FM-16+0024RKSW V0209999C000010045019N0080001N1+99999+99999999999ADDGD13991+0045099GF107991999999999999999999MA1101321999999MW1001MW2101REMMET053RKSW 2305Z 00000KT 8000 BR BKN015 A2992 RMK CIGM015/;EQDQ01+000003PRSWM1
0205471200999992000071720004+37250+127000FM-15+0024RKSW V0209999C000010600019N0090001N1+02401+02101999999ADDGD12991+0300099GD23991+0600099GF107991999999999999999999MA1100981999999MW1101REMMET081RKSW 1958Z 00000KT 9000 BR SCT100 BKN200 24/21 A2982 RMK CIG200/DI73/ QFF1009PT7;EQDQ01+000003PRSWM1Q02    003PRSWM1
0191471200999992000072105004+37250+127000FM-15+0024RKSW V0202001N010010090019N0112651N1+03101+02401999999ADDGD12991+0045099GD23991+0090099GF107991999999999999999999MA1100581999999MW1001REMMET083RKSW 0458Z 20010KT 9999 FEW015 BKN030 31/24 A2970 RMK CIG030/DI82/WB29/ QFF1005PT6;EQDQ01+000000PRSWM2
0153471200999992000072222254+37250+127000FM-16+0024RKSW V0201701N004110036019N0080001N1+99999+99999999999ADDGD13991+0036099GD24991+0090099GF108991999999999999999999MW1001MW2611REMMET054RKSW 2225Z 17008KT 8000 -RA BKN012 OVC030 RMK CIGM012;EQDQ01+000003PRSWM1
0123471200999992000072523234+37250+127000FM-16+0024RKSW V0201301N001012200019N0032001N1+99999+99999999999ADDGD12991+0600099GF102991999999999999999999MW1001MW2101REMMET039RKSW 2323Z 13002KT 3200 BR FEW200 RMK ;EQDQ01+000003PRSWM1
0133471200999992000072623214+37250+127000FM-16+0024RKSW V0201901N000512200019N0024001N1+99999+99999999999ADDGD19999+0001599GF101991999999999999999999MW1001MW2101REMMET049RKSW 2321Z 19001KT 2400 BR 1FG/// 200 A2968 RMK ;EQDQ01+000003PRSWM1
0128471200999992000080117564+37250+127000FM-16+0024RKSW V0201401N000512200019N0060001N1+02101+01901999999ADDMA1101051999999MW1101REMMET060RKSW 1756Z 14001KT 6000 BR 21/19 A2984 RMK DI71/ QFF1010PT4;EQDQ01+000003PRSWM1Q02    003PRSWM1
0186471200999992000080519004+37250+127000FM-15+0024RKSW V0200601N000510300019N0112651N1+02501+02101999999ADDGD12991+0090099GD23991+0300099GF107991999999999999999999MA1101461999999MW1001REMMET078RKSW 1857Z 06001KT 9999 FEW030 BKN100 25/21 A2996 RMK CIG100/DI74/ QFF1014PT5;EQDQ01+000000PRSWM2
0205471200999992000080720004+37250+127000FM-15+0024RKSW V0200501N002110300019N0048001N1+02401+02101999999ADDGD12991+0090099GD23991+0300099GF107991999999999999999999MA1101351999999MW1101REMMET081RKSW 1958Z 05004KT 4800 BR FEW030 BKN100 24/21 A2993 RMK CIG100/DI73/ QFF1013PT5;EQDQ01+000003PRSWM1Q02    003PRSWM1
0162471200999992000081004004+37250+127000FM-15+0024RKSW V0202901N003612200019N0112651N1+03101+02101999999ADDGD12991+0090099GF104991999999999999999999MA1101081999999MW1001REMMET069RKSW 0357Z 29007KT 9999 SCT030 31/21 A2985 RMK DI81/WB29/ QFF1010PT6;EQDQ01+000000PRSWM2
0186471200999992000081009104+37250+127000FM-16+0024RKSW V0202901N004110600019N0112651N1+99999+99999999999ADDGD12991+0090099GD22991+0360099GD33991+0600099GF107991999999999999999999MA1100951999999MW1001REMMET063RKSW 0910Z 29008KT 9999 FEW030 SCT120 BKN200 A2981 RMK CIG200/;EQDQ01+000000PRSWM2
0152471200999992000081323404+37250+127000FM-16+0024RKSW V0201701N000510045019N0060001N1+99999+99999999999ADDGD13991+0045099GF107991999999999999999999MA1100811999999MW1001MW2101REMMET053RKSW 2340Z 17001KT 6000 BR BKN015 A2977 RMK CIGM015/;EQDQ01+000003PRSWM1
0186471200999992000081720004+37250+127000FM-15+0024RKSW V0202901N000510300019N0112651N1+02401+02001999999ADDGD12991+0090099GD23991+0300099GF107991999999999999999999MA1100611999999MW1001REMMET078RKSW 1958Z 29001KT 9999 FEW030 BKN100 24/20 A2971 RMK CIG100/DI72/ QFF1005PT9;EQDQ01+000000PRSWM2
0174471200999992000082221384+37250+127000FM-16+0024RKSW V0209999C000010036019N0016001N1+99999+99999999999ADDGD12991+0001599GD23991+0036099GD33991+0600099GF107991999999999999999999MW1001MW2101REMMET060RKSW 2138Z 00000KT 1600 BR 2FG/// BKN012 BKN200 RMK CIGM012;EQDQ01+000003PRSWM1
0202471204999992000010509004+37350+126920FM-15+0406RKSC V0201701N005710090019N0060001N1+00301+00301999999ADDGA1021+003609999GA2081+009009999GF108991999999999999999999MA1101221999999MW1101REMMET076RKSC 0855Z 17011KT 6000 BR FEW012 OVC030 03/03 A2989 RMK CIG030/ QFF1014PT1;EQDQ01+000003PRSWM1Q02    003PRSWM1
0119471204999992000010519004+37350+126920FM-15+0406RKSC V0201901N003610001519N0000001N1+99999+99999999999ADDMW1001MW2631REMMET076RKSC 1856Z 19007KT 0000 RA 9FG000 05/04 A2976 RMK CIGW000/1RA12/ QFF1009PT7;EQDQ01+000003PRSWM1
0154471204999992000010807004+37350+126920FM-15+0406RKSC V0203101N003612200019N0112651N1-00401-00801999999ADDGA1021+009009999GF102991999999999999999999MA1101801999999MW1001REMMET060RKSC 0658Z 31007KT 9999 FEW030 M04/M08 A3006 RMK QFF1021PT2;EQDQ01+000000PRSWM2
0112471204999992000012012004+37350+126920FM-15+0406RKSC V0203301N004112200019N0112651N1+99999+99999999999ADDMA1102681999999MW1001REMMET060RKSC 1158Z 33008KT 9999 M12/M16 A3032 RMK 90403/ QFF1031PT7;EQDQ01+000000PRSWM2
0185471204999992000012119004+37350+126920FM-15+0406RKSC V0201401N001510600019N0112651N1-00801-01301999999ADDGA1021+030009999GA2071+060009999GF107991999999999999999999MA1102981999999MW1001REMMET075RKSC 1859Z 14003KT 9999 FEW100 BKN200 M08/M13 A3041 RMK CIG200/ QFF1033PT8;EQDQ01+000000PRSWM2
0117471204999992000012508004+37350+126920FM-15+0406RKSC V0203301N004112200019N0112651N1+99999+99999999999ADDMA1102471999999MW1001OC100931REMMET057RKSC 0757Z 33008G018KT 9999 M08/M14 A3026 RMK QFF1029PT4;EQDQ01+000000PRSWM2
0105471204999992000012609004+37350+126920FM-15+0406RKSC V0203301N002612200019N0112651N1+99999+99999999999ADDMA1102271999999MW1001REMMET053RKSC 0857Z 33005KT 9999 M10/M16 A3020 RMK QFF1028PT0;EQDQ01+000000PRSWM2
0162471204999992000012819004+37350+126920FM-15+0406RKSC V0203301N000510090019N0112651N1-00501-00701999999ADDGA1071+009009999GF107991999999999999999999MA1102741999999MW1001REMMET068RKSC 1859Z 33001KT 9999 BKN030 M05/M07 A3034 RMK CIG030/ QFF1030PT4;EQDQ01+000000PRSWM2
0185471204999992000012902004+37350+126920FM-15+0406RKSC V0209999C000010600019N0112651N1-00301-00501999999ADDGA1021+009009999GA2071+060009999GF107991999999999999999999MA1102741999999MW1001REMMET075RKSC 0157Z 00000KT 9999 FEW030 BKN200 M03/M05 A3034 RMK CIG200/ QFF1030PT4;EQDQ01+000000PRSWM2
0105471204999992000013016004+37350+126920FM-15+0406RKSC V0203201N008212200019N0112651N1+99999+99999999999ADDMA1102911999999MW1001REMMET053RKSC 1558Z 32016KT 9999 M12/M15 A3039 RMK QFF1033PT8;EQDQ01+000000PRSWM2
0174471204999992000020300254+37350+126920FM-16+0406RKSC V0203101N000510300019N0090001N1+99999+99999999999ADDGA1021+009009999GA2071+030009999GF107991999999999999999999MA1102271999999MW1001MW2101REMMET058RKSC 0025Z 31001KT 9000 BR SCT030 BKN100 A3020 RMK CIG100;EQDQ01+000003PRSWM1
0212471204999992000020521004+37350+126920FM-15+0406RKSC V0203301N003610030019N0016001N1-00401-00501999999ADDGA1031+000159999GA2081+003009999GF108991999999999999999999MA1101631999999MW1711REMMET086RKSC 2059Z 33007KT 1600 -SN 3FG/// OVC010 M04/M05 A3001 RMK CIGE010/1SN02/ QFF1018PT9;EQDQ01+000003PRSWM1Q02    003PRSWM1
0174471204999992000020711004+37350+126920FM-15+0406RKSC V0203101N004610090019N0112651N1-00601-00801999999ADDGA1071+009009999GF107991999999999999999999MA1100811999999MW1001OC101031REMMET072RKSC 1057Z 31009G020KT 9999 BKN030 M06/M08 A2977 RMK CIG030/ QFF1011PT8;EQDQ01+000000PRSWM2
0105471204999992000020811004+37350+126920FM-15+0406RKSC V0203301N003112200019N0112651N1+99999+99999999999ADDMA1101321999999MW1001REMMET053RKSC 1059Z 33006KT 9999 M10/M16 A2992 RMK QFF1018PT2;EQDQ01+000000PRSWM2
0114471204999992000021215004+37350+126920FM-15+0406RKSC V0203201N003612200019N0048001N1+99999+99999999999ADDMA1101461999999MW1001MW2101REMMET056RKSC 1458Z 32007KT 4800 BR M01/M03 A2996 RMK QFF1017PT2;EQDQ01+000003PRSWM1
0172471204999992000022605004+37350+126920FM-15+0406RKSC V0202801N001510090019N0112651N1+00101-00401999999ADDGA1071+009009999GF107991999999999999999999MA1101291999999MW1001REMMET078RKSC 0459Z 28003KT 9999 RESN BKN030 01/M04 A2991 RMK CIG030/1SN00/ QFF1015PT8;EQDQ01+000000PRSWM2
0131471204999992000022612254+37350+126920FM-16+0406RKSC V0203501N003110090019N0048001N1+99999+99999999999ADDGA1071+009009999GF107991999999999999999999MW1001MW2711REMMET046RKSC 1225Z 35006KT 4800 -SN BKN030 RMK CIG030;EQDQ01+000003PRSWM1
0131471204999992000030120504+37350+126920FM-16+0406RKSC V0209999C000010030019N0048001N1+99999+99999999999ADDGA1071+003009999GF107991999999999999999999MW1001MW2101REMMET046RKSC 2050Z 00000KT 4800 BR BKN010 RMK CIGE010;EQDQ01+000003PRSWM1
0161471204999992000030507004+37350+126920FM-15+0406RKSC V0209999C000010600019N0112651N1+00701-00501999999ADDGA1071+060009999GF107991999999999999999999MA1101121999999MW1001REMMET067RKSC 0658Z 00000KT 9999 BKN200 07/M05 A2986 RMK CIG200/ QFF1012PT8;EQDQ01+000000PRSWM2
0117471204999992000030704004+37350+126920FM-15+0406RKSC V0203301N006212200019N0112651N1+99999+99999999999ADDMA1101591999999MW1001OC101181REMMET057RKSC 0357Z 33012G023KT 9999 M00/M09 A3000 RMK QFF1018PT9;EQDQ01+000000PRSWM2
0186471204999992000031521004+37350+126920FM-15+0406RKSC V0203201N001010090019N0048001N1+00101+00001999999ADDGA1081+009009999GF108991999999999999999999MA1100271999999MW1611REMMET076RKSC 2058Z 32002KT 4800 -RA OVC030 01/00 A2961 RMK CIG030/1RA00/ QFF1004PT3;EQDQ01+000003PRSWM1Q02    003PRSWM1
0152471204999992000032210004+37350+126920FM-15+0406RKSC V0203001N002612200019N0112651N1+00901+00001999999ADDGA1021+060009999GF104991999999999999999999MA1101761999999MW1001REMMET058RKSC 0958Z 30005KT 9999 SCT200 09/00 A3005 RMK QFF1018PT9;EQDQ01+000000PRSWM2
0104471204999992000032518004+37350+126920FM-15+0406RKSC V0203301N003612200019N0112651N1+00101-00501999999ADDMA1101391999999MW1001REMMET052RKSC 1757Z 33007KT 9999 01/M05 A2994 RMK QFF1015PT5;EQDQ01+000000PRSWM2
0215471204999992000032713004+37350+126920FM-15+0406RKSC V0201601N010310300019N0090001N1+01201-00101999999ADDGA1021+009009999GA2081+030009999GF108991999999999999999999MA1100311999999MW1051OC101541REMMET081RKSC 1258Z 16020G030KT 9000 HZ SCT030 OVC100 12/M01 A2962 RMK CIG100/ QFF1003PT6;EQDQ01+000003PRSWM1Q02    003PRSWM1
0104471204999992000033113004+37350+126920FM-15+0406RKSC V0203101N004112200019N0112651N1+00601-00401999999ADDMA1101051999999MW1001REMMET052RKSC 1259Z 31008KT 9999 06/M04 A2984 RMK QFF1011PT8;EQDQ01+000000PRSWM2
0104471204999992000033116004+37350+126920FM-15+0406RKSC V0203001N003112200019N0112651N1+00501-00901999999ADDMA1101291999999MW1001REMMET052RKSC 1559Z 30006KT 9999 05/M09 A2991 RMK QFF1014PT1;EQDQ01+000000PRSWM2
0103471204999992000040604004+37350+126920FM-15+0406RKSC V0203301N000512200019N0112651N1+01101+00001999999ADDMA1101691999999MW1001REMMET051RKSC 0357Z 33001KT 9999 11/00 A3003 RMK QFF1018PT2;EQDQ01+000000PRSWM2
0172471204999992000040704004+37350+126920FM-15+0406RKSC V0202401N003612200019N0032001N1+00901-00501999999ADDGA1011+000159999GF101991999999999999999999MA1101321999999MW1051REMMET062RKSC 0357Z 24007KT 3200 HZ 1HZ/// 09/M05 A2992 RMK QFF1015PT1;EQDQ01+000003PRSWM1Q02    003PRSWM1
0209471204999992000040916004+37350+126920FM-15+0406RKSC V0201501N005110300019N0090001N1+00701+00501999999ADDGA1021+009009999GA2081+030009999GF108991999999999999999999MA1100681999999MW1611REMMET083RKSC 1557Z 15010KT 9000 -RA SCT030 OVC100 07/05 A2973 RMK CIG100/1RA01/ QFF1007PT7;EQDQ01+000003PRSWM1Q02    003PRSWM1
0104471204999992000041100004+37350+126920FM-15+0406RKSC V0201501N005712200019N0112651N1+00401-00101999999ADDMA1101021999999MW1001REMMET052RKSC 2359Z 15011KT 9999 04/M01 A2983 RMK QFF1012PT2;EQDQ01+000000PRSWM2
0122471204999992000041119584+37350+126920FM-16+0406RKSC V0201501N006712200019N0090001N1+00301+00101999999ADDMA1100581999999MW1101REMMET054RKSC 1958Z 15013KT 9000 BR 03/01 A2970 RMK QFF1007PT4;EQDQ01+000003PRSWM1Q02    003PRSWM1
0125471204999992000042406584+37350+126920FM-16+0406RKSC V0201601N002110090019N0060001N1+99999+99999999999ADDMW1001MW2101REMMET082RKSC 0558Z 16004KT 6000 BR 012 030 08/08 A2956 RMK CIG030/1RA00/6RA04/ QFF1002PT2;EQDQ01+000003PRSWM1
0209471204999992000042518004+37350+126920FM-15+0406RKSC V0202001N006210090019N0112651N1+01001+00701999999ADDGA1071+009009999GA2081+030009999GF108991999999999999999999MA1100101999999MW1611REMMET083RKSC 1759Z 20012KT 9999 -RA BKN030 OVC100 10/07 A2956 RMK CIG030/1RA00/ QFF1001PT2;EQDQ01+000003PRSWM1Q02    003PRSWM1
0103471204999992000050714004+37350+126920FM-15+0406RKSC V0202001N005112200019N0112651N1+00901+00601999999ADDMA1101221999999MW1001REMMET051RKSC 1359Z 20010KT 9999 09/06 A2989 RMK QFF1012PT7;EQDQ01+000000PRSWM2
0120471204999992000051007004+37350+126920FM-15+0406RKSC V0202101N006710001519N0000001N1+99999+99999999999ADDMW1001MW2611REMMET077RKSC 0656Z 21013KT 0000 -RA 9FG000 10/10 A2959 RMK CIGW000/1RA02/ QFF1002PT3;EQDQ01+000003PRSWM1
0179471204999992000051616004+37350+126920FM-15+0406RKSC V0200101N002610300019N0048001N1+01201+01101999999ADDGA1071+030009999GF107991999999999999999999MA1100751999999MW1101REMMET069RKSC 1558Z 01005KT 4800 BR BKN100 12/11 A2975 RMK CIG100/ QFF1007PT8;EQDQ01+000003PRSWM1Q02    003PRSWM1
0177471204999992000051701134+37350+126920FM-16+0406RKSC V0209999C000010024019N0016001N1+99999+99999999999ADDGA1031+000159999GA2071+002409999GA3081+004509999GF108991999999999999999999MW1001MW2101REMMET060RKSC 0113Z 00000KT 1600 BR 3FG/// BKN008 OVC015 RMK CIGE008;EQDQ01+000003PRSWM1
0113471204999992000052319004+37350+126920FM-15+0406RKSC V0202001N005110001519N0000001N1+99999+99999999999ADDMW1001MW2441REMMET070RKSC 1858Z 20010KT 0000 FG 9FG000 14/14 A2983 RMK CIGW000/ QFF1009PT8;EQDQ01+000003PRSWM1
0103471204999992000052401004+37350+126920FM-15+0406RKSC V0201601N004112200019N0112651N1+02001+01601999999ADDMA1101221999999MW1001REMMET051RKSC 0057Z 16008KT 9999 20/16 A2989 RMK QFF1011PT8;EQDQ01+000000PRSWM2
0094471204999992000052518004+37350+126920FM-15+0406RKSC V02099999999992200019N0036001N1+99999+99999999999ADDMW1001REMMET057RKSC 757Z 36008KT 9999 SCT200 21/14 A2984 RMK QFF1009PT1;EQDQ01+000000PRSWM2
0092471204999992000060505004+37350+126920FM-15+0406RKSC V0200301N001012200019N0112651N1+99999+99999999999ADDMW1001REMMET055RKSC 0458Z 03002KT 9999 200 27/11 A2977 RMK QFF1007PT3;EQDQ01+000000PRSWM2
0183471204999992000060714004+37350+126920FM-15+0406RKSC V0202001N005710600019N0112651N1+01701+01101999999ADDGA1021+030009999GA2071+060009999GF107991999999999999999999MA1100411999999MW1001REMMET073RKSC 1359Z 20011KT 9999 SCT100 BKN200 17/11 A2965 RMK CIG200/ QFF1003PT4;EQDQ01+000000PRSWM2
0152471204999992000061222004+37350+126920FM-15+0406RKSC V0200701N001512200019N0112651N1+01801+01101999999ADDGA1021+030009999GF102991999999999999999999MA1100471999999MW1001REMMET058RKSC 2157Z 07003KT 9999 FEW100 18/11 A2967 RMK QFF1004PT1;EQDQ01+000000PRSWM2
0225471204999992000061615004+37340+126920FM-15+0406RKSC V0201901N000510600019N0024001N1+02201+01901999999ADDGA1021+000159999GA2021+030009999GA3071+060009999GF107991999999999999999999MA1101051999999MW1101REMMET083RKSC 1456Z 19001KT 2400 BR 2FG/// SCT100 BKN200 22/19 A2984 RMK CIG200/ QFF1009PT1;EQDQ01+000003PRSWM1Q02    003PRSWM1
0202471204999992000062323004+37340+126920FM-15+0406RKSC V0201601N002610090019N0080001N1+01901+01801999999ADDGA1021+003609999GA2071+009009999GF107991999999999999999999MA1100311999999MW1101REMMET076RKSC 2258Z 16005KT 8000 BR FEW012 BKN030 19/18 A2962 RMK CIG030/ QFF1002PT3;EQDQ01+000003PRSWM1Q02    003PRSWM1
0160471204999992000062404004+37340+126920FM-15+0406RKSC V0201701N006210090019N0112651N1+02301+02001999999ADDGA1071+009009999GF107991999999999999999999MA1100341999999MW1001REMMET066RKSC 0357Z 17012KT 9999 BKN030 23/20 A2963 RMK CIG030/ QFF1002PT3;EQDQ01+000000PRSWM2
0209471204999992000071009004+37340+126920FM-15+0406RKSC V0202601N003110090019N0090001N1+02601+02001999999ADDGA1071+009009999GA2081+030009999GF108991999999999999999999MA1100851999999MW1611REMMET083RKSC 0859Z 26006KT 9000 -RA BKN030 OVC100 26/20 A2978 RMK CIG030/1RA00/ QFF1007PT1;EQDQ01+000003PRSWM1Q02    003PRSWM1
0089471204999992000071122284+37340+126920FM-16+0406RKSC V0202101N005110001519N0000001N1+99999+99999999999ADDMW1001MW2441REMMET046RKSC 2228Z 21010KT 0000 FG 9FG000 RMK CIGW000;EQDQ01+000003PRSWM1
0183471204999992000071505004+37340+126920FM-15+0406RKSC V0201601N003110090019N0112651N1+02501+02201999999ADDGA1021+004509999GA2071+009009999GF107991999999999999999999MA1100511999999MW1001REMMET073RKSC 0457Z 16006KT 9999 FEW015 BKN030 25/22 A2968 RMK CIG030/ QFF1003PT6;EQDQ01+000000PRSWM2
0154471204999992000071723404+37340+126920FM-16+0406RKSC V0201801N002110030019N0048001N1+99999+99999999999ADDGA1071+003009999GA2081+009009999GF108991999999999999999999MW1001MW2101REMMET053RKSC 2340Z 18004KT 4800 BR BKN010 OVC030 RMK CIGE010;EQDQ01+000003PRSWM1
0090471204999992000071819404+37340+126920FM-16+0406RKSC V0201701N002610001519N0000001N1+99999+99999999999ADDMW1001MW2611REMMET047RKSC 1940Z 17005KT 0000 -RA 9FG000 RMK CIGW000;EQDQ01+000003PRSWM1
0172471204999992000072107004+37340+126920FM-15+0406RKSC V0202501N012010090019N0112651N1+02801+02401999999ADDGA1071+009009999GF107991999999999999999999MA1100411999999MW1001OC102301REMMET070RKSC 0656Z 25012G023KT 9999 BKN030 28/24 A2965 RMK CIG030/ QFF1002PT5;EQDQ01+000000PRSWM2
0112471204999992000072223004+37340+126920FM-15+0406RKSC V0201901N006710001519N0000001N1+99999+99999999999ADDMW1001MW2441REMMET069RKSC 2259Z 19013KT 0000 FG 9FG000 19/19 A2941 RMK CIGW000/ QFF994PT8;EQDQ01+000003PRSWM1
0225471204999992000072402004+37340+126920FM-15+0406RKSC V0209999C000010036019N0032001N1+02501+02301999999ADDGA1011+000159999GA2071+003609999GA3081+009009999GF108991999999999999999999MA1099861999999MW1101REMMET083RKSC 0157Z 00000KT 3200 BR 1FG/// BKN012 OVC030 25/23 A2949 RMK CIGE012/ QFF997PT1;EQDQ01+000003PRSWM1Q02    003PRSWM1
0171471204999992000072715004+37340+126920FM-15+0406RKSC V0201501N003112200019N0048001N1+02501+02101999999ADDGA1021+060009999GF104991999999999999999999MA1100311999999MW1101REMMET061RKSC 1458Z 15006KT 4800 BR SCT200 25/21 A2962 RMK QFF1000PT5;EQDQ01+000003PRSWM1Q02    003PRSWM1
0183471204999992000080902004+37340+126920FM-15+0406RKSC V0202001N002610600019N0112651N1+02701+02201999999ADDGA1021+009009999GA2071+060009999GF107991999999999999999999MA1101221999999MW1001REMMET073RKSC 0156Z 20005KT 9999 SCT030 BKN200 27/22 A2989 RMK CIG200/ QFF1010PT6;EQDQ01+000000PRSWM2
0142471204999992000081100304+37340+126920FM-16+0406RKSC V0209999C000010090019N0112651N1+99999+99999999999ADDGA1071+009009999GF107991999999999999999999MA1100851999999MW1001REMMET048RKSC 0030Z 00000KT 9999 BKN030 A2978 RMK CIG030;EQDQ01+000000PRSWM2
0175471204999992000081106004+37340+126920FM-15+0406RKSC V0201201N001512200019N0112651N1+02901+02301999999ADDGA1021+009009999GA2021+060009999GF104991999999999999999999MA1100851999999MW1001REMMET065RKSC 0557Z 12003KT 9999 SCT030 SCT200 29/23 A2978 RMK QFF1006PT6;EQDQ01+000000PRSWM2
0152471204999992000081304004+37340+126920FM-15+0406RKSC V0202001N003112200019N0112651N1+03001+02201999999ADDGA1021+009009999GF104991999999999999999999MA1100641999999MW1001REMMET058RKSC 0359Z 20006KT 9999 SCT030 30/22 A2972 RMK QFF1003PT9;EQDQ01+000000PRSWM2
0113471204999992000081320004+37340+126920FM-15+0406RKSC V0201901N001010001519N0000001N1+99999+99999999999ADDMW1001MW2441REMMET070RKSC 2059Z 19002KT 0000 FG 9FG000 22/22 A2970 RMK CIGW000/ QFF1003PT9;EQDQ01+000003PRSWM1
0161471204999992000081403004+37340+126920FM-15+0406RKSC V0202001N001010075019N0112651N1+02701+02301999999ADDGA1071+007509999GF107991999999999999999999MA1100581999999MW1001REMMET067RKSC 0259Z 20002KT 9999 BKN025 27/23 A2970 RMK CIGE025/ QFF1003PT6;EQDQ01+000000PRSWM2
0183471204999992000091019004+37340+126920FM-15+0406RKSC V0203401N003110600019N0112651N1+01701+01001999999ADDGA1021+030009999GA2071+060009999GF107991999999999999999999MA1100981999999MW1001REMMET073RKSC 1859Z 34006KT 9999 SCT100 BKN200 17/10 A2982 RMK CIG200/ QFF1009PT2;EQDQ01+000000PRSWM2
0154471205999992000010216004+37350+127270FM-15+0144RKSD V0200201N001512200019N0112651N1-00101-00301999999ADDGA1021+009009999GF102991999999999999999999MA1101901999999MW1001REMMET060RKSD 1557Z 02003KT 9999 FEW030 M01/M03 A3009 RMK QFF1020PT0;EQDQ01+000000PRSWM2
0114471205999992000010401004+37350+127270FM-15+0144RKSD V0202401N001012200019N0060001N1+99999+99999999999ADDMA1102641999999MW1001MW2101REMMET056RKSD 0059Z 24002KT 6000 BR M05/M07 A3031 RMK QFF1028PT1;EQDQ01+000003PRSWM1
0155471205999992000010506504+37350+127270FM-16+0144RKSD V0200301N002110030019N0048001N1+99999+99999999999ADDGA1071+003009999GA2081+009009999GF108991999999999999999999MW1001MW2611REMMET054RKSD 0650Z 03004KT 4800 -RA BKN010 OVC030 RMK CIGM010;EQDQ01+000003PRSWM1
0185471205999992000010908584+37350+127270FM-15+0144RKSD V0200601N001010300019N0112651N1-00201-00601999999ADDGA1071+030009999GA2081+060009999GF108991999999999999999999MA1101961999999MW1001REMMET075RKSD 0858Z 06002KT 9999 BKN100 OVC200 M02/M06 A3011 RMK CIG100/ QFF1021PT3;EQDQ01+000000PRSWM2
0207471205999992000011123004+37350+127270FM-15+0144RKSD V0200601N002610300019N0112651N1+00201-00101999999ADDGA1021+009009999GA2071+030009999GA3081+060009999GF108991999999999999999999MA1102131999999MW1001REMMET081RKSD 2255Z 06005KT 9999 FEW030 BKN100 OVC200 02/M01 A3016 RMK CIG100/ QFF1022PT4;EQDQ01+000000PRSWM2
0144471205999992000011312354+37350+127270FM-16+0144RKSD V0202401N002110090019N0112651N1+99999+99999999999ADDGA1021+004509999GA2081+009009999GF108991999999999999999999MW1001REMMET049RKSD 1235Z 24004KT 9999 SCT015 OVC030 RMK CIG030;EQDQ01+000000PRSWM2
0173471205999992000011420004+37350+127270FM-15+0144RKSD V0203501N000512200019N0090001N1-00701-00901999999ADDGA1021+009009999GF102991999999999999999999MA1102541999999MW1101REMMET063RKSD 1957Z 35001KT 9000 BR FEW030 M07/M09 A3028 RMK QFF1026PT8;EQDQ01+000003PRSWM1Q02    003PRSWM1
0105471205999992000012102574+37350+127270FM-16+0144RKSD V0202701N001012200019N0112651N1+99999+99999999999ADDMA1104001999999MW1001REMMET053RKSD 0257Z 27002KT 9999 M07/M12 A3071 RMK QFF1042PT0;EQDQ01+000000PRSWM2
0185471205999992000012319004+37350+127270FM-15+0144RKSD V0202701N002610600019N0112651N1-00301-00501999999ADDGA1021+030009999GA2071+060009999GF107991999999999999999999MA1102781999999MW1001REMMET075RKSD 1859Z 27005KT 9999 FEW100 BKN200 M03/M05 A3035 RMK CIG200/ QFF1028PT8;EQDQ01+000000PRSWM2
0105471205999992000012504004+37350+127270FM-15+0144RKSD V0203601N003112200019N0112651N1+99999+99999999999ADDMA1103121999999MW1001REMMET053RKSD 0359Z 36006KT 9999 M05/M13 A3045 RMK QFF1032PT9;EQDQ01+000000PRSWM2
0105471205999992000012611004+37350+127270FM-15+0144RKSD V0203401N001012200019N0112651N1+99999+99999999999ADDMA1102951999999MW1001REMMET053RKSD 1058Z 34002KT 9999 M09/M15 A3040 RMK QFF1032PT2;EQDQ01+000000PRSWM2
0111471205999992000020306004+37350+127270FM-15+0144RKSD V0203201N000510090019N0090001N1+99999+99999999999ADDMW1001MW2051REMMET068RKSD 0457Z 32001KT 9000 HZ 030 M00/M05 A3030 RMK CIG030/ QFF1027PT8;EQDQ01+000003PRSWM1
0162471205999992000021019004+37350+127270FM-15+0144RKSD V0209999C000010090019N0112651N1-00501-00801999999ADDGA1071+009009999GF107991999999999999999999MA1101931999999MW1001REMMET068RKSD 1859Z 00000KT 9999 BKN030 M05/M08 A3010 RMK CIG030/ QFF1020PT7;EQDQ01+000000PRSWM2
0094471205999992000021503004+37350+127270FM-15+0144RKSD V0203201N007212200019N0112651N1+99999+99999999999ADDMW1001REMMET057RKSD 0259Z 32014KT 9999 030 M03/M15 A3007 RMK QFF1020PT0;EQDQ01+000000PRSWM2
0105471205999992000021514004+37350+127270FM-15+0144RKSD V0203101N005112200019N0112651N1+99999+99999999999ADDMA1101961999999MW1001REMMET053RKSD 1359Z 31010KT 9999 M07/M13 A3011 RMK QFF1021PT3;EQDQ01+000000PRSWM2
0154471205999992000021608004+37350+127270FM-15+0144RKSD V0203001N005112200019N0112651N1-00301-01201999999ADDGA1021+009009999GF102991999999999999999999MA1102031999999MW1001REMMET060RKSD 0759Z 30010KT 9999 FEW030 M03/M12 A3013 RMK QFF1022PT0;EQDQ01+000000PRSWM2
0105471205999992000021616004+37350+127270FM-15+0144RKSD V0203401N001512200019N0112651N1+99999+99999999999ADDMA1102301999999MW1001REMMET053RKSD 1559Z 34003KT 9999 M09/M16 A3021 RMK QFF1024PT7;EQDQ01+000000PRSWM2
0104471205999992000022008004+37350+127270FM-15+0144RKSD V0202701N001512200019N0112651N1+00301-00601999999ADDMA1101321999999MW1001REMMET052RKSD 0759Z 27003KT 9999 03/M06 A2992 RMK QFF1014PT6;EQDQ01+000000PRSWM2
0104471205999992000022404004+37350+127270FM-15+0144RKSD V0203301N005712200019N0112651N1+00001-01301999999ADDMA1102781999999MW1001REMMET052RKSD 0359Z 33011KT 9999 00/M13 A3035 RMK QFF1029PT1;EQDQ01+000000PRSWM2
0105471205999992000022620594+37350+127270FM-16+0144RKSD V0202001N002112200019N0112651N1+99999+99999999999ADDMA1102241999999MW1001REMMET053RKSD 2059Z 20004KT 9999 M05/M10 A3019 RMK QFF1023PT7;EQDQ01+000000PRSWM2
0105471205999992000022811594+37350+127270FM-16+0144RKSD V0202601N003612200019N0112651N1+99999+99999999999ADDMA1102911999999MW1001REMMET053RKSD 1159Z 26007KT 9999 M04/M15 A3039 RMK QFF1031PT2;EQDQ01+000000PRSWM2
0105471205999992000031512004+37350+127270FM-15+0144RKSD V0202801N002110300019N0112651N1+99999+99999999999ADDMW1001REMMET068RKSD 1058Z 28004KT 9999 100 200 10/M03 A2984 RMK CIG100/ QFF1011PT5;EQDQ01+000000PRSWM2
0209471205999992000031522004+37350+127270FM-15+0144RKSD V0202001N000510090019N0048001N1+00201+00201999999ADDGA1021+004509999GA2081+009009999GF108991999999999999999999MA1100581999999MW1611REMMET083RKSD 2158Z 20001KT 4800 -RA SCT015 OVC030 02/02 A2970 RMK CIG030/1RA00/ QFF1006PT8;EQDQ01+000003PRSWM1Q02    003PRSWM1
0209471205999992000031523004+37350+127270FM-15+0144RKSD V0201901N000510090019N0048001N1+00301+00201999999ADDGA1021+004509999GA2081+009009999GF108991999999999999999999MA1100541999999MW1511REMMET083RKSD 2259Z 19001KT 4800 -DZ SCT015 OVC030 03/02 A2969 RMK CIG030/1RA00/ QFF1006PT4;EQDQ01+000003PRSWM1Q02    003PRSWM1
0116471205999992000031705574+37350+127270FM-15+0144RKSD V0202101N004112200019N0112651N1+01301-00101999999ADDMA1101691999999MW1001OC100931REMMET056RKSD 0557Z 21008G018KT 9999 13/M01 A3003 RMK QFF1018PT0;EQDQ01+000000PRSWM2
0202471205999992000032102584+37350+127270FM-15+0144RKSD V0203401N002610600019N0090001N1+00801+00001999999ADDGA1021+030009999GA2071+060009999GF107991999999999999999999MA1101961999999MW1051REMMET076RKSD 0258Z 34005KT 9000 HZ SCT100 BKN200 08/00 A3011 RMK CIG200/ QFF1020PT7;EQDQ01+000003PRSWM1Q02    003PRSWM1
0191471205999992000032707004+37350+127270FM-15+0144RKSD V0202101N010310600019N0080001N1+01901+00101999999ADDGA1071+060009999GF107991999999999999999999MA1100641999999MW1051OC101591REMMET073RKSD 0657Z 21020G031KT 8000 HZ BKN200 19/01 A2972 RMK CIG200/ QFF1007PT1;EQDQ01+000003PRSWM1Q02    003PRSWM1
0104471205999992000040616004+37350+127270FM-15+0144RKSD V0202101N001512200019N0112651N1+00301-00401999999ADDMA1101831999999MW1001REMMET052RKSD 1558Z 21003KT 9999 03/M04 A3007 RMK QFF1019PT0;EQDQ01+000000PRSWM2
0152471205999992000041214004+37350+127270FM-15+0144RKSD V0202101N003112200019N0112651N1+00901+00401999999ADDGA1021+060009999GF102991999999999999999999MA1100711999999MW1001REMMET058RKSD 1358Z 21006KT 9999 FEW200 09/04 A2974 RMK QFF1007PT8;EQDQ01+000000PRSWM2
0179471205999992000050822004+37350+127270FM-15+0144RKSD V0202001N000510600019N0060001N1+00901+00701999999ADDGA1071+060009999GF107991999999999999999999MA1101491999999MW1101REMMET069RKSD 2156Z 20001KT 6000 BR BKN200 09/07 A2997 RMK CIG200/ QFF1015PT2;EQDQ01+000003PRSWM1Q02    003PRSWM1
0183471205999992000050917004+37350+127270FM-15+0144RKSD V0202401N000510300019N0112651N1+01501+00501999999ADDGA1071+030009999GA2081+060009999GF108991999999999999999999MA1100851999999MW1001REMMET073RKSD 1658Z 24001KT 9999 BKN100 OVC200 15/05 A2978 RMK CIG100/ QFF1008PT5;EQDQ01+000000PRSWM2
0203471205999992000051104004+37350+127270FM-15+0144RKSD V0202101N003610045019N0080001N1+01101+00901999999ADDGA1071+004509999GA2081+009009999GF108991999999999999999999MA1100511999999MW1101REMMET077RKSD 0358Z 21007KT 8000 BR BKN015 OVC030 11/09 A2968 RMK CIGE015/ QFF1005PT8;EQDQ01+000003PRSWM1Q02    003PRSWM1
0179471205999992000051804004+37350+127270FM-15+0144RKSD V0202001N003110600019N0080001N1+02301+01301999999ADDGA1071+060009999GF107991999999999999999999MA1100951999999MW1051REMMET069RKSD 0356Z 20006KT 8000 HZ BKN200 23/13 A2981 RMK CIG200/ QFF1009PT8;EQDQ01+000003PRSWM1Q02    003PRSWM1
0140471205999992000051816354+37350+127270FM-16+0144RKSD V0202401N003110090019N0090001N1+99999+99999999999ADDGA1081+009009999GF108991999999999999999999MW1001MW2631REMMET055RKSD 1635Z 24006KT 9000 RA OVC030 RMK CIG030/TS MOVD E;EQDQ01+000003PRSWM1
0171471205999992000051823574+37350+127270FM-15+0144RKSD V0203601N002112200019N0040001N1+01701+01501999999ADDGA1021+009009999GF102991999999999999999999MA1100711999999MW1101REMMET061RKSD 2357Z 36004KT 4000 BR FEW030 17/15 A2974 RMK QFF1007PT5;EQDQ01+000003PRSWM1Q02    003PRSWM1
0180471205999992000052317004+37350+127270FM-15+0144RKSD V0202101N001510045019N0060001N1+01701+01501999999ADDGA1071+004509999GF107991999999999999999999MA1101351999999MW1101REMMET070RKSD 1656Z 21003KT 6000 BR BKN015 17/15 A2993 RMK CIGE015/ QFF1013PT6;EQDQ01+000003PRSWM1Q02    003PRSWM1
0183471205999992000060805004+37350+127270FM-15+0144RKSD V0201801N002610090019N0112651N1+02301+01401999999ADDGA1071+009009999GA2081+030009999GF108991999999999999999999MA1100101999999MW1001REMMET073RKSD 0456Z 18005KT 9999 BKN030 OVC100 23/14 A2956 RMK CIG030/ QFF1001PT0;EQDQ01+000000PRSWM2
0202471205999992000060920564+37350+127270FM-15+0144RKSD V0202801N001010090019N0090001N1+01601+01501999999ADDGA1021+003609999GA2071+009009999GF107991999999999999999999MA1101121999999MW1101REMMET076RKSD 2056Z 28002KT 9000 BR SCT012 BKN030 16/15 A2986 RMK CIG030/ QFF1011PT5;EQDQ01+000003PRSWM1Q02    003PRSWM1
0152471205999992000061308004+37350+127270FM-15+0144RKSD V0202501N002112200019N0112651N1+02901+01701999999ADDGA1021+060009999GF102991999999999999999999MA1100311999999MW1001REMMET058RKSD 0756Z 25004KT 9999 FEW200 29/17 A2962 RMK QFF1003PT1;EQDQ01+000000PRSWM2
0179471205999992000061408004+37340+127270FM-15+0144RKSD V0203201N002110600019N0090001N1+02701+01801999999ADDGA1071+060009999GF107991999999999999999999MA1100271999999MW1051REMMET069RKSD 0859Z 32004KT 9000 HZ BKN200 27/18 A2961 RMK CIG200/ QFF1002PT7;EQDQ01+000003PRSWM1Q02    003PRSWM1
0171471205999992000070622004+37340+127270FM-15+0144RKSD V0201701N000512200019N0060001N1+02301+02001999999ADDGA1021+060009999GF102991999999999999999999MA1100611999999MW1101REMMET061RKSD 2159Z 17001KT 6000 BR FEW200 23/20 A2971 RMK QFF1005PT8;EQDQ01+000003PRSWM1Q02    003PRSWM1
0160471205999992000070708004+37340+127270FM-15+0144RKSD V0201001N003110090019N0112651N1+03101+02001999999ADDGA1071+009009999GF107991999999999999999999MA1100371999999MW1001REMMET066RKSD 0758Z 10006KT 9999 BKN030 31/20 A2964 RMK CIG030/ QFF1003PT4;EQDQ01+000000PRSWM2
0183471205999992000071708004+37340+127270FM-15+0144RKSD V0203301N002110090019N0112651N1+03101+02301999999ADDGA1071+009009999GA2071+060009999GF107991999999999999999999MA1100951999999MW1001REMMET073RKSD 0759Z 33004KT 9999 BKN030 BKN200 31/23 A2981 RMK CIG030/ QFF1009PT1;EQDQ01+000000PRSWM2
0183471205999992000072004004+37340+127270FM-15+0144RKSD V0201801N003110090019N0112651N1+02901+02401999999ADDGA1021+006009999GA2071+009009999GF107991999999999999999999MA1101051999999MW1001REMMET073RKSD 0357Z 18006KT 9999 SCT020 BKN030 29/24 A2984 RMK CIG030/ QFF1010PT2;EQDQ01+000000PRSWM2
0195471205999992000072111564+37340+127270FM-15+0144RKSD V0202101N008010600019N0112651N1+02701+02301999999ADDGA1021+009009999GA2071+060009999GF107991999999999999999999MA1100371999999MW1001OC101901REMMET077RKSD 1156Z 21008G019KT 9999 SCT030 BKN200 27/23 A2964 RMK CIG200/ QFF1003PT4;EQDQ01+000000PRSWM2
0159471205999992000072305564+37340+127270FM-15+0144RKSD V0201101N002610300019N0112651N1+02901+02101999999ADDGA1071+030009999GF107991999999999999999999MA1099731999999MW1001REMMET065RKSD 0556Z 11005KT 9999 BKN100 29/21 A2945 RMK CIG100/ QFF997PT0;EQDQ01+000000PRSWM2
0182471205999992000072316004+37340+127270FM-15+0144RKSD V0202101N000510300019N0112651N1+02101+01801999999ADDGA1021+004509999GA2071+030009999GF107991999999999999999999MA1099831999999MW1001REMMET072RKSD 1558Z 21001KT 9999 FEW015 BKN100 21/18 A2948 RMK CIG100/ QFF998PT3;EQDQ01+000000PRSWM2
0122471205999992000072411574+37340+127270FM-15+0144RKSD V0201501N000512200019N0060001N1+02501+02101999999ADDMA1100141999999MW1101REMMET054RKSD 1157Z 15001KT 6000 BR 25/21 A2957 RMK QFF1001PT4;EQDQ01+000003PRSWM1Q02    003PRSWM1
0159471205999992000073004004+37340+127270FM-15+0144RKSD V0203501N001510090019N0112651N1+02501+02101999999ADDGA1071+009009999GF107991999999999999999999MA1099831999999MW1001REMMET065RKSD 0358Z 35003KT 9999 BKN030 25/21 A2948 RMK CIG030/ QFF998PT3;EQDQ01+000000PRSWM2
0122471205999992000080115004+37340+127270FM-15+0144RKSD V0201701N000512200019N0060001N1+02401+02101999999ADDMA1101021999999MW1101REMMET054RKSD 1457Z 17001KT 6000 BR 24/21 A2983 RMK QFF1009PT8;EQDQ01+000003PRSWM1Q02    003PRSWM1
0215471205999992000080323004+37340+127270FM-15+0144RKSD V0200601N002110036019N0090001N1+02201+02101999999ADDGA1071+000309999GA2081+009009999GF108991999999999999999999MA1101421999999MW1611REMMET089RKSD 2358Z 06004KT 9000 -RA BKN01 OVC030 22/21 A2995 RMK CIGE012/1RA10/6RA35/ QFF1014PT2;EQDQ01+000003PRSWM1Q02    003PRSWM1
0208471205999992000080707004+37340+127270FM-15+0144RKSD V0200301N003110090019N0090001N1+02601+02101999999ADDGA1071+009009999GA2071+030009999GF107991999999999999999999MA1101291999999MW1101REMMET082RKSD 0659Z 03006KT 9000 BR BKN030 BKN100 26/21 A2991 RMK CIG030/1RA03/ QFF1012PT9;EQDQ01+000003PRSWM1Q02    003PRSWM1
0100471205999992000091007004+37340+127270FM-15+0144RKSD V0201801N000510600019N0112651N1+99999+99999999999ADDMW1001REMMET063RKSD 0656Z 18001KT 9999 200 27/17 A2989 RMK CIG200/ QFF1012PT2;EQDQ01+000000PRSWM2
0232471205999992000091423004+37340+127270FM-15+0144RKSD V0200101N003110045019N0060001N1+01601+01601999999ADDGA1021+003009999GA2071+004509999GA3081+009009999GF108991999999999999999999MA1100581999999MW1631REMMET090RKSD 2256Z 01006KT 6000 RA FEW010 BKN015 OVC030 16/16 A2970 RMK CIGE015/1RA23/ QFF1006PT1;EQDQ01+000003PRSWM1Q02    003PRSWM1
0163471210999992000011315004+37180+128450FM-12+023999999V0202301N001010120019N0100001N1-00081-00561101871ADDAA106000091GF108991061051012501011999MA1999999098911MD1210121+9999REMSYN066AAXX  13154 47121 32660 82302 11008 21056 39891 40187 52012 8651/;EQDQ01  00002PRCP06
0216471210999992000012900004+37180+128450FM-12+023999999V0209999C000019999999N0180001N1-01041-01201103591ADDAA199000091GF105991001001999999001011IA1149IA2999-00609KA1120N-01231MA1999999100471MD1210101+9999REMSYN088AAXX  29004 47121 32968 53600 11104 21120 30047 40359 52010 80001 333 21123 34106 44///;EQDQ01  00002PRCP99
0173471210999992000030709004+37180+128450FM-12+023999999V0202501N005112200019N0180001N1-00031-01711101731ADDAA199000091GA1001+999999999GF100991001001999999001001MA1999999098781MD1010071+9999REMSYN060AAXX  07094 47121 32968 02510 11003 21171 39878 40173 50007;EQDQ01  00002PRCP99
0216471210999992000031512004+37180+128450FM-12+023999999V0202701N004619999999N0180001N1+01051-00661101001ADDAA199000091GF108991081001999999021001IA1019IA2999+00909KA1120M+01551MA1999999098191MD1810071+9999REMSYN088AAXX  15124 47121 32968 82709 10105 21066 39819 40100 58007 88020 333 10155 30009 55038;EQDQ01  00002PRCP99
0161471210999992000031906004+37180+128450FM-12+023999999V0202901N001010120019N0070001N1+00471+00031101431ADDAY121061AY221061GF108991051051012501021999MA1999999098551MD1210111+9999MW1101REMSYN072AAXX  19064 47121 41657 82902 10047 20003 39855 40143 52011 71022 8552/;
0161471210999992000042209004+37180+128450FM-12+023999999V0203401N000510075019N0150001N1+01041+00541100171ADDAY181031AY261031GF107991071051008001001999MA1999999097381MD1710131+9999MW1251REMSYN072AAXX  22094 47121 41565 73401 10104 20054 39738 40017 57013 72586 8750/;
0163471210999992000042503004+37180+128450FM-12+023999999V0200201N001519999999N0200001N1+01761-00081100931ADDAA199000091GF108991021051999999011999MA1999999098201MD1710261+9999REMSYN066AAXX  25034 47121 32970 80203 10176 21008 39820 40093 57026 8251/;EQDQ01  00002PRCP99
0231471210999992000051200004+37180+128450FM-12+023999999V0209999C000010120019N0060001N1+01271+00851100851ADDAA112000191AY161061AY221061GF108991051051012501021999IA1099IA2999+01709KA1120N+01001MA1999999098071MD1210111+9999MW1101REMSYN100AAXX  12004 47121 11656 80000 10127 20085 39807 40085 52011 69922 71062 8552/ 333 20100 31017 70003;
0216471210999992000052312004+37180+128450FM-12+023999999V0202901N001512200019N0180001N1+02431+01221100971ADDAA199000091GF102991001001999999001011IA1019IA2999+02009KA1120M+03021MA1999999098311MD1210121+9999REMSYN088AAXX  23124 47121 32968 22903 10243 20122 39831 40097 52012 80001 333 10302 30020 55095;EQDQ01  00002PRCP99
0171471210999992000061418004+37170+128450FM-12+023999999V0209999C000012200019N0060001N1+01581+01501100791ADDAA199000091AY111061AY201061GF102991001001999999001021MA1999999098051MW1101REMSYN066AAXX  14184 47121 31956 20000 10158 20150 39805 40079 71010 80002;EQDQ01  00002PRCP99
0163471210999992000062906004+37170+128450FM-12+023999999V0201401N001510120019N0250001N1+02791+01281100161ADDAA199000091GF108991051051012501021999MA1999999097551MD1710051+9999REMSYN066AAXX  29064 47121 32675 81403 10279 20128 39755 40016 57005 8552/;EQDQ01  00002PRCP99
0216471210999992000071512004+37170+128450FM-12+023999999V0202701N000512200019N0250001N1+02481+02131100901ADDAA199000091GF104991041001999999031001IA1019IA2999+02509KA1120M+03121MA1999999098241MD1210201+9999REMSYN088AAXX  15124 47121 32975 42701 10248 20213 39824 40090 52020 84030 333 10312 30025 55080;EQDQ01  00002PRCP99
0163471210999992000072403004+37170+128450FM-12+023999999V0203601N001010075019N0120001N1+02611+02071099981ADDAA199000091GF105991051021008001001001MA1999999097351MD1310011+9999REMSYN066AAXX  24034 47121 32562 53602 10261 20207 39735 49998 53001 85200;EQDQ01  00002PRCP99
0237471210999992000091312004+37170+128450FM-12+023999999V0201101N002110075019N0060001N1+01441+01331101431ADDAA112017091AY161061AY261061GF108991061071008001021999IA1119IA2999+01509KA1120M+01621MA1999999098651MD1010011+9999MW1611REMSYN106AAXX  13124 47121 11556 81104 10144 20133 39865 40143 50001 60172 76166 8672/ 333 10162 32015 55000 70290;
0220471210999992000091812004+37170+128450FM-12+023999999V0200501N001012200019N0150001N1+01221+01071101591ADDAA199000091GA1001+999999999GF100991001001999999001001IA1099IA2999+01409KA1120M+02201MA1999999098791MD1210251+9999REMSYN076AAXX  18124 47121 32965 00502 10122 20107 39879 40159 52025 333 10220 31014;EQDQ01  00002PRCP99
0191471210999992000092718004+37170+128450FM-12+023999999V0202001N000519999999N0080001N1+01041+00991102071ADDAA199000091AY121061AY211061GF107991061001999999011011MA1999999099241MD1710041+9999MW1101REMSYN072AAXX  27184 47121 31958 72001 10104 20099 39924 40207 57004 71021 86011;EQDQ01  00002PRCP99
0163471210999992000102809004+37170+128450FM-12+023999999V0203401N000510360019N0200001N1+01181+00821101871ADDAA199000091GF108991031051012501011999MA1999999099051MD1710131+9999REMSYN066AAXX  28094 47121 32670 83401 10118 20082 39905 40187 57013 8351/;EQDQ01  00002PRCP99
0220471210999992000103012004+37170+128450FM-12+023999999V0209999C000012200019N0120001N1+00491+00141102351ADDAA199000091GA1001+999999999GF100991001001999999001001IA1019IA2999+00509KA1120M+01561MA1999999099441MD1210231+9999REMSYN076AAXX  30124 47121 32962 00000 10049 20014 39944 40235 52023 333 10156 30005;EQDQ01  00002PRCP99
0173471210999992000110506004+37170+128450FM-12+023999999V0201101N000512200019N0150001N1+01821-00181101621ADDAA199000091GA1001+999999999GF100991001001999999001001MA1999999098881MD1710161+9999REMSYN060AAXX  05064 47121 32965 01101 10182 21018 39888 40162 57016;EQDQ01  00002PRCP99
0210471210999992000110700004+37170+128450FM-12+023999999V0203401N000510360019N0090001N1+00351+00231102241ADDAA199000091GF106991031051012501031001IA1019IA2999+00909KA1120N+00061MA1999999099321MD1310131+9999REMSYN082AAXX  07004 47121 31659 63401 10035 20023 39932 40224 53013 83530 333 20006 30009;EQDQ01  00002PRCP99
0163471210999992000112318004+37170+128450FM-12+023999999V0202501N000512200019N0120001N1-00271-00271102841ADDAA199000091GF104991021001999999031011MA1999999099841MD1210051+9999REMSYN066AAXX  23184 47121 32962 42501 11027 21027 39984 40284 52005 82031;EQDQ01  00002PRCP99
0210471210999992000120300004+37170+128450FM-12+023999999V0202901N002112200019N0120001N1+00261+00041102101ADDAA199000091GF102991021001999999031001IA1019IA2999+00209KA1120N+00121MA1999999099171MD1210081+9999REMSYN082AAXX  03004 47121 32962 22904 10026 20004 39917 40210 52008 82030 333 20012 30002;EQDQ01  00002PRCP99
0101471210999992000122421004+37170+128450FM-12+023999999V0202701N001019999999N9999999N1-00391-00451101751ADDMA1999999098761MD1210211+9999REMSYN060AAXX  24214 47121 4//// /2702 11039 21045 39876 40175 52021;
0142471220999992000010116004+37080+127030FM-15+0012RKSO V02099999999990240019N0112651N1+00701+00501102031ADDGD14991+0240099GF108991999999999999999999MA1102031999999MW1001REMMET068RKSO 011555Z VRB05KT 9999 OVC080 07/05 A3013 RMK SLP203 8/07/ 9/08/;
0155471220999992000010301004+37080+127030FM-15+0012RKSO V0203201N004112200019N0112651N1-00101-00401102351ADDGD12991+0090099GF102991999999999999999999MA1102371999999MW1001REMMET062RKSO 030055Z COR 32008KT 9999 FEW030 M01/M04 A3023 RMK SLP235;EQDQ01+000000PRSWM2
0133471220999992000010809554+37080+127030FM-15+0012RKSO V0202201N003112200019N0112651N1-00401-00501102531ADDGF100991999999999999999999MA1102541999999MW1001REMMET055RKSO 080955Z 22006KT 9999 SKC M04/M05 A3028 RMK SLP253;EQDQ01+000000PRSWM2
0202471220999992000010812004+37080+127030FM-15+0012RKSO V02099999999992200019N0112651N1-00801-00801102571ADDGF100991999999999999999999KA1999M-00111KA2999N-00751MA1102541999999MD1010141+9999MW1001REMMET084RKSO 081155Z VRB05KT 9999 SKC M08/M08 A3028 RMK SLP257 11011 21075 50014 RADAT ZERO;EQDQ01+000000PRSWM2
0186471220999992000010815004+37080+127030FM-15+0012RKSO V0203301N000512200019N0080001N1-01001-01001102581ADDGF100991999999999999999999MA1102571999999MD1210171+9999MW1101REMMET078RKSO 081455Z 33001KT 8000 BR SKC M10/M10 A3029 RMK VIS E 1 SLP258 52017 PSR09;EQDQ01+000003PRSWM1Q02    003PRSWM1
0254471220999992000011303004+37080+127030FM-15+0012RKSO V0202701N004610060019N0112651N1+00301+00301101621ADDGD12991+0030099GD24991+0060099GF108991999999999999999999MA1101631999999MD1110051+9999MW1101MW2511OC100621REMMET102RKSO 130255Z 27009G12KT 9999 -DZ BR SCT010 OVC020 03/03 A3001 RMK SLP162 60000 8/5// 9/8// 51005 WR//;EQDQ01+000003PRSWM1Q02    003PRSWM1
0299471220999992000011500004+37080+127030FM-15+0012RKSO V0200701N001510600019N0024001N1-00501-00501102791ADDED199U14949GD12991+0090099GD23991+0600099GF107991999999999999999999KA1999M-00471KA2999N-00681MA1102781999999MD1310121+9999MW1101REMMET124RKSO 142355Z COR 07003KT 2400 R27/4900FT BR FEW030 BKN200 M05/M05 A3035 RMK SLP279 8/508 9/106 11047 21068 53012 RADAT ZERO;EQDQ01+000003PRSWM1Q02    003PRSWM1
0175471220999992000011720004+37080+127030FM-15+0012RKSO V0200601N003112200019N0040001N1-00801-00801102231ADDED199U18299GF100991999999999999999999MA1102241999999MW1101REMMET070RKSO 171955Z 06006KT 4000 R27/P6000FT BR SKC M08/M08 A3019 RMK SLP223;EQDQ01+000003PRSWM1Q02    003PRSWM1
0217471220999992000011821004+37080+127030FM-15+0012RKSO V02099999999990090019N0048001N1-00401-00401101811ADDGD14991+0090099GF108991999999999999999999MA1101801999999MD1810141+9999MW1851REMMET094RKSO 182055Z VRB04KT 4800 -SHSN OVC030 M04/M04 A3006 RMK SLP181 60001 8/5// 9/8// 58014 PSR08;EQDQ01+000003PRSWM1Q02    003PRSWM1
0181471220999992000012323004+37080+127030FM-15+0012RKSO V0202501N003112200019N0090001N1-00401-00401102991ADDGD12991+0300099GF104991999999999999999999MA1102981999999MW1101REMMET072RKSO 232255Z 25006KT 9000 BR SCT100 M04/M04 A3041 RMK SLP299 8/070 9/03;EQDQ01+000003PRSWM1Q02    003PRSWM1
0191471220999992000020707454+37080+127030FM-15+0012RKSO V0202701N005710090019N0040001N1+00101+00101999999ADDGD12991+0060099GD23991+0090099GF107991999999999999999999MA1101351999999MW1101MW2851REMMET061RKSO 070745Z 27011KT 4000 -SHSN BR SCT020 BKN030 01/01 A2993;EQDQ01+000003PRSWM1Q02    003PRSWM1
0174471220999992000020805004+37080+127030FM-15+0012RKSO V0202801N008210090019N0112651N1-00401-01201101711ADDGD13991+0090099GF107991999999999999999999MA1101691999999MW1001OC101131REMMET073RKSO 080455Z 28016G22KT 9999 BKN030 M04/M12 A3003 RMK SLP171 8/500 9/600;EQDQ01+000000PRSWM2
0145471220999992000021214204+37080+127030FM-15+0012RKSO V0203601N001012200019N0024001N1-00401-00401999999ADDGF100991999999999999999999MA1102031999999MW1101REMMET051RKSO 121420Z 36002KT 2400 BR SKC M04/M04 A3013 RMK;EQDQ01+000003PRSWM1Q02    003PRSWM1
0163471220999992000021920004+37080+127030FM-15+0012RKSO V0202601N001512200019N0112651N1-00401-00401101521ADDGD12991+0600099GF102991999999999999999999MA1101521999999MW1001REMMET070RKSO 191955Z 26003KT 9999 FEW200 M04/M04 A2998 RMK SLP152 8/001 9/001;EQDQ01+000000PRSWM2
0194471220999992000030422314+37080+127030FM-16+0012RKSO V0200701N002112200019N0016001N1-00301-00401999999ADDED199U22229GD12991+0300099GF104991999999999999999999MA1101861999999MW1101REMMET074RKSO 042231Z 07004KT 1600 R27/2222 BR SCT100 M03/M04 A3008 RMK VIS N 0800;EQDQ01+000003PRSWM1Q02    003PRSWM1
0162471220999992000032110004+37080+127030FM-15+0012RKSO V0202501N003112200019N0112651N1+00701+00001101871ADDGD12991+0600099GF102991999999999999999999MA1101861999999MW1001REMMET069RKSO 210955Z 25006KT 9999 FEW200 07/M00 A3008 RMK SLP187 8/001 9/001;EQDQ01+000000PRSWM2
0201471220999992000033012004+37080+127030FM-15+0012RKSO V0203001N001012200019N0112651N1+00801+00101101231ADDGF100991999999999999999999KA1999M+01501KA2999N+00771MA1101221999999MD1310051+9999MW1001REMMET083RKSO 301155Z 30002KT 9999 SKC 08/01 A2989 RMK SLP123 10150 20077 53005 RADAT 20078;EQDQ01+000000PRSWM2
0232471220999992000040112004+37080+127030FM-15+0012RKSO V0203001N001012200019N0112651N1+00801-00601102161ADDGD12991+0600099GF102991999999999999999999KA1999M+01591KA2999N+00741MA1102171999999MD1210171+9999MW1001REMMET099RKSO 011155Z 30002KT 9999 FEW200 08/M06 A3017 RMK SLP216 8/001 9/001 10159 20074 52017 RADAT 29063;EQDQ01+000000PRSWM2
0132471220999992000040802004+37080+127030FM-15+0012RKSO V0201101N001012200019N0112651N1+01001-00201102521ADDGF100991999999999999999999MA1102511999999MW1001REMMET054RKSO 080155Z 11002KT 9999 SKC 10/M02 A3027 RMK SLP252;EQDQ01+000000PRSWM2
0214471220999992000042003004+37080+127030FM-15+0012RKSO V0201401N002610600019N0112651N1+01901+00801101361ADDGD12991+0090099GD23991+0600099GF107991999999999999999999MA1101351999999MD1710121+9999MW1001OC100511REMMET084RKSO 200255Z 14005G10KT 9999 FEW030 BKN200 19/08 A2993 RMK SLP136 8/106 9/106 57012;EQDQ01+000000PRSWM2
0161471220999992000042117004+37080+127030FM-15+0012RKSO V0202401N002110045019N0112651N1+00901+00901100801ADDGD13991+0045099GF107991999999999999999999MA1100811999999MW1001REMMET068RKSO 211655Z 24004KT 9999 BKN015 09/09 A2977 RMK SLP080 8/500 9/500;EQDQ01+000000PRSWM2
0142471220999992000042223004+37080+127030FM-15+0012RKSO V0202401N005712200019N0112651N1+01101+00701100681ADDGF100991999999999999999999MA1100681999999MW1001OC100721REMMET056RKSO 222255Z 24011G14KT 9999 SKC 11/07 A2973 RMK SLP068;EQDQ01+000000PRSWM2
0138471220999992000042522154+37080+127030FM-16+0012RKSO V02099999999990075019N0112651N1+01301+00901999999ADDGD14991+0075099GF108991999999999999999999MA1100101999999MW1001REMMET045RKSO 252215Z VRB06KT 9999 OVC025 13/09 A2956;EQDQ01+000000PRSWM2
0253471220999992000042706004+37080+127030FM-15+0012RKSO V0202901N005710120019N0112651N1+01401+00901100651ADDGD12991+0075099GD24991+0120099GF108991999999999999999999KA1999M+01431KA2999N+01111MA1100641999999MD1310031+9999MW1001REMMET105RKSO 270555Z 29011KT 9999 SCT025 OVC040 14/09 A2972 RMK SLP065 8/5// 9/8// 10143 20111 53003 RADAT 95055;EQDQ01+000000PRSWM2
0177471220999992000042720364+37080+127030FM-16+0012RKSO V0200701N002612200019N0012001N1+00301+00301999999ADDED199U43009GD12991+0027099GF102991999999999999999999MA1101321999999MW1441REMMET057RKSO 272036Z 07005KT 1200 R27/4300 FG FEW009 03/03 A2992;EQDQ01+000003PRSWM1Q02    003PRSWM1
0170471220999992000042722004+37080+127030FM-15+0012RKSO V0200601N001512200019N0002001N1+00501+00501101401ADDED199U01009GF100991999999999999999999MA1101391999999MW1101REMMET065RKSO 272155Z 06003KT 0200 R27/0100 BR SKC 05/05 A2994 RMK SLP140;EQDQ01+000003PRSWM1Q02    003PRSWM1
0131471220999992000050416554+37080+127030FM-15+0012RKSO V0200601N003112200019N0112651N1+01001+00801101491ADDGF100991999999999999999999MA1101491999999MW1001REMMET053RKSO 041655Z 06006KT 9999 SKC 10/08 A2997 RMK SLP149;EQDQ01+000000PRSWM2
0201471220999992000050700004+37080+127030FM-15+0012RKSO V0201901N002612200019N0112651N1+01501+00501101681ADDGF100991999999999999999999KA1999M+01461KA2999N+00841MA1101691999999MD1810021+9999MW1001REMMET083RKSO 062355Z 19005KT 9999 SKC 15/05 A3003 RMK SLP168 10146 20084 58002 RADAT 55088;EQDQ01+000000PRSWM2
0161471220999992000051411004+37080+127030FM-15+0012RKSO V0202301N004110600019N0112651N1+01601+01301101191ADDGD14991+0600099GF108991999999999999999999MA1101191999999MW1001REMMET068RKSO 141055Z 23008KT 9999 OVC200 16/13 A2988 RMK SLP119 8/007 9/008;EQDQ01+000000PRSWM2
0187471220999992000051723004+37080+127030FM-15+0012RKSO V0202101N00261000151CN0008001N1+01201+01201101291ADDED199U99999GD15991+0001599GF109991999999000251999999MA1101291999999MW1101REMMET067RKSO 172255Z 21005KT 0800 R27/5500 BR VV003 12/12 A2991 RMK SLP129;EQDQ01+000003PRSWM1Q02    003PRSWM1
0250471220999992000052106004+37080+127030FM-15+0012RKSO V0202701N003110750019N0060001N1+02301+01201101141ADDGD13991+0750099GF107991999999999999999999KA1999M+02261KA2999N+01471MA1101151999999MD1710241+9999MW1051REMMET101RKSO 210555Z 27006KT 6000 HZ BKN250 23/12 A2987 RMK SLP114 8/002 9/006 10226 20147 57024 RADAT 79120;EQDQ01+000003PRSWM1Q02    003PRSWM1
0242471220999992000053106004+37080+127030FM-15+0012RKSO V0202601N006712200019N0112651N1+02401+01601100341ADDGD12991+0180099GF102991999999999999999999KA1999M+02491KA2999N+02031MA1100341999999MD1610071+9999MW1001OC100931REMMET101RKSO 310555Z 26013G18KT 9999 FEW060 24/16 A2963 RMK SLP034 8/500 9/200 10249 20203 56007 RADAT 20134;EQDQ01+000000PRSWM2
0131471220999992000060513004+37080+127030FM-15+0012RKSO V0202201N002612200019N0112651N1+01801+01301100951ADDGF100991999999999999999999MA1100951999999MW1001REMMET053RKSO 051255Z 22005KT 9999 SKC 18/13 A2981 RMK SLP095;EQDQ01+000000PRSWM2
0267471220999992000061114004+37080+127030FM-15+0012RKSO V0209999V002110360019N0112651N1+02001+01901101001ADDGA1999+018009099GD12991+0180099GD23991+0360099GD33991+0600099GF107991999999999999999999MA1101021999999MW1171REMMET112RKSO 111355Z COR VRB04KT 9999 TS SCT060CB BKN120 BKN200 20/19 A2983 RMK FRQ LTGICCCCG TS 5 S SLP100 8/963 9/321;EQDQ01+000003PRSWM1Q02    003PRSWM1
0202471220999992000061710004+37800+127300FM-15+0012RKSO V02099999999990360019N0060001N1+02501+01701101001ADDGD13991+0360099GD24991+0600099GF108991999999999999999999MA1101021999999MW1051REMMET078RKSO 170955Z VRB04KT 6000 HZ BKN120 OVC200 25/17 A2983 RMK SLP100 8/077 9/035;EQDQ01+000003PRSWM1Q02    003PRSWM1
0217471220999992000062610004+37800+127300FM-15+0012RKSO V0201501N003110075019N0080001N1+02301+02301100301ADDGD12991+0021099GD24991+0075099GF108991999999999999999999MA1100311999999MW1101MW2611REMMET087RKSO 260955Z 15006KT 8000 -RA BR SCT007 OVC025 23/23 A2962 RMK SLP030 8/5// 9/8// WR//;EQDQ01+000003PRSWM1Q02    003PRSWM1
0293471220999992000062618004+37800+127300FM-15+0012RKSO V0202501N001510021019N0032001N1+02201+02201100131ADDGD13991+0021099GD24991+0036099GF108991999999999999999999KA1999M+02221KA2999N+02201MA1100141999999MD1710101+9999MW1101MW2611REMMET123RKSO 261755Z 25003KT 3200 -RA BR BKN007 OVC012 22/22 A2957 RMK SLP013 60034 8/5// 9/8// 10222 20220 57010 RADAT 94155 WR//;EQDQ01+000003PRSWM1Q02    003PRSWM1
0224471220999992000062902214+37800+127300FM-16+0012RKSO V02099999999990090019N0112651N1+02501+02201999999ADDGD12991+0030099GD23991+0090099GD33991+0360099GD44991+0600099GF108991999999999999999999MA1100371999999MW1611REMMET070RKSO 290221Z VRB05KT 9999 -RA FEW010 BKN030 BKN120 OVC200 25/22 A2964;EQDQ01+000003PRSWM1Q02    003PRSWM1
0284471220999992000062915004+37800+127300FM-15+0012RKSO V0201601N002610360019N0048001N1+02201+02201100061ADDGD12991+0090099GD23991+0360099GD34991+0750099GF108991999999999999999999MA1100071999999MD1010001+9999MW1101MW2801REMMET125RKSO 291455Z COR 16005KT 4800 -SHRA BR SCT030 BKN120 OVC250 22/22 A2955 RMK TWR VIS 4000 SLP006 60020 8/563 9/422 50000 WR//;EQDQ01+000003PRSWM1Q02    003PRSWM1
0172471220999992000070802004+37800+127300FM-15+0012RKSO V0200701N002612200019N0112651N1+02801+01801100501ADDGD12991+0300099GF102991999999999999999999MA1100511999999MW1001OC100511REMMET071RKSO 080155Z 07005G10KT 9999 FEW100 28/18 A2968 RMK SLP050 8/070 9/010;EQDQ01+000000PRSWM2
0230471220999992000071000004+37800+127300FM-15+0012RKSO V0200601N003110600019N0048001N1+02801+02401101151ADDGD13991+0600099GF107991999999999999999999KA1999M+02781KA2999N+02161MA1101151999999MW1101REMMET095RKSO 092355Z 06006KT 4800 BR BKN200 28/24 A2987 RMK SLP115 8/001 9/006 10278 20216 RADAT 58002;EQDQ01+000003PRSWM1Q02    003PRSWM1
0194471220999992000071005004+37800+127300FM-15+0012RKSO V0200901N003610600019N0112651N1+03301+02001101011ADDGD12991+0360099GD23991+0600099GF107991999999999999999999MA1101021999999MW1001OC100621REMMET078RKSO 100455Z 09007G12KT 9999 SCT120 BKN200 33/20 A2983 RMK SLP101 8/078 9/034;EQDQ01+000000PRSWM2
0196471220999992000071211494+37800+127300FM-16+0012RKSO V0202101N005110600019N0024001N1+02401+02401999999ADDGD12991+0090099GD23991+0600099GF107991999999999999999999MA1100411999999MW1101REMMET072RKSO 121149Z 21010KT 2400 BR SCT030 BKN200 24/24 A2965 RMK TWR VIS 2400;EQDQ01+000003PRSWM1Q02    003PRSWM1
0201471220999992000071323214+37800+127300FM-16+0012RKSO V02099999999990300019N0080001N1+02601+02201999999ADDGD12991+0090099GD23991+0300099GD33991+0600099GF107991999999999999999999MA1100681999999MW1101REMMET062RKSO 132321Z VRB06KT 8000 BR SCT030 BKN100 BKN200 26/22 A2973;EQDQ01+000003PRSWM1Q02    003PRSWM1
0253471220999992000071806004+37070+127020FM-15+0012RKSO V0200401N002110120019N0112651N1+03101+02501100711ADDGD13991+0120099GD24991+0750099GF108991999999999999999999KA1999M+03111KA2999N+02871MA1100711999999MD1710151+9999MW1001REMMET105RKSO 180555Z 04004KT 9999 BKN040 OVC250 31/25 A2974 RMK SLP071 8/108 9/602 10311 20287 57015 RADAT 36157;EQDQ01+000000PRSWM2
0213471220999992000071902174+37070+127020FM-16+0012RKSO V02099999999990090019N0112651N1+02801+02601999999ADDGD12991+0060099GD23991+0090099GD34991+0300099GF108991999999999999999999MA1100781999999MW1801REMMET074RKSO 190217Z VRB04KT 9999 -SHRA SCT020 BKN030 OVC100 28/26 A2976 RMK WR//;EQDQ01+000003PRSWM1Q02    003PRSWM1
0161471220999992000072117004+37070+127020FM-15+0012RKSO V0202101N006210360019N0080001N1+02601+02601100251ADDGD14991+0360099GF108991999999999999999999MA1100201999999MW1001REMMET068RKSO 211655Z 21012KT 8000 OVC120 26/26 A2959 RMK SLP025 8/07/ 9/02/;EQDQ01+000000PRSWM2
0205471220999992000072317004+37070+127020FM-15+0012RKSO V02099999999990360019N0112651N1+02301+02301099791ADDGD12991+0120099GD23991+0360099GD34991+0750099GF108991999999999999999999MA1099801999999MW1001REMMET082RKSO 231655Z VRB04KT 9999 FEW040 BKN120 OVC250 23/23 A2947 RMK SLP979 8/571 9/161;EQDQ01+000000PRSWM2
0257471220999992000072418004+37070+127020FM-15+0012RKSO V0203001N00151000151CN0004001N1+02301+02301100241ADDED199U20009GD15991+0001599GF109991999999000251999999KA1999M+02331KA2999N+02211MA1100241999999MD1310031+9999MW1451REMMET097RKSO 241755Z 30003KT 0400 R27/2000 FG VV001 23/23 A2960 RMK SLP024 10233 20221 53003 RADAT 68116;EQDQ01+000003PRSWM1Q02    003PRSWM1
0202471220999992000072616004+37070+127020FM-15+0012RKSO V02099999999990600019N0032001N1+02301+02301100331ADDGD12991+0090099GD23991+0600099GF107991999999999999999999MA1100341999999MW1101REMMET078RKSO 261555Z VRB03KT 3200 BR FEW030 BKN200 23/23 A2963 RMK SLP033 8/507 9/203;EQDQ01+000003PRSWM1Q02    003PRSWM1
0202471220999992000072719004+37070+127020FM-15+0012RKSO V0200701N002110600019N0090001N1+02401+02401100351ADDGD12991+0090099GD23991+0600099GF107991999999999999999999MA1100371999999MW1101REMMET078RKSO 271855Z 07004KT 9000 BR FEW030 BKN200 24/24 A2964 RMK SLP035 8/501 9/105;EQDQ01+000003PRSWM1Q02    003PRSWM1
0244471220999992000072821004+37070+127020FM-15+0012RKSO V0200501N002110600019N0090001N1+02601+02601100081ADDGD12991+0090099GD22991+0360099GD33991+0600099GF107991999999999999999999MA1100101999999MD1610081+9999MW1101REMMET091RKSO 282055Z 05004KT 9000 BR FEW030 SCT120 BKN200 26/26 A2956 RMK SLP008 8/501 9/223 56008;EQDQ01+000003PRSWM1Q02    003PRSWM1
0205471220999992000073016004+37070+127020FM-15+0012RKSO V0200401N003110300019N0112651N1+02301+02201099731ADDGD12991+0075099GD23991+0300099GD34991+0600099GF108991999999999999999999MA1099731999999MW1001REMMET082RKSO 301555Z 04006KT 9999 FEW025 BKN100 OVC200 23/22 A2945 RMK SLP973 8/577 9/242;EQDQ01+000000PRSWM2
0199471220999992000080422394+37070+127020FM-16+0012RKSO V0201101N002110090019N0090001N1+02401+02401999999ADDGD13991+0090099GD23991+0600099GF107991999999999999999999MA1101491999999MW1611REMMET059RKSO 042239Z 11004KT 9000 -RA BR BKN030 BKN200 24/24 A2997;EQDQ01+000100PRSWM3Q02+000003PRSWM1Q03    003PRSWM1
0278471220999992000080700004+37070+127020FM-15+0012RKSO V0200601N002610600019N0090001N1+02701+02701101181ADDGD12991+0360099GD23991+0600099GF107991999999999999999999KA1999M+02691KA2999N+02321MA1101191999999MD1810051+9999MW1101REMMET114RKSO 062355Z 06005KT 9000 BR SCT120 BKN200 27/27 A2988 RMK SLP118 70008 8/078 9/042 10269 20232 58005 RADAT 97142;EQDQ01+000003PRSWM1Q02    003PRSWM1
0291471220999992000081800004+37070+127020FM-15+0012RKSO V0200501N002610750019N0112651N1+02701+02401100811ADDGD12991+0210099GD23991+0750099GF107991999999999999999999KA1999M+99999KA2999N+99999MA1100811999999MD1310031+9999MW1001REMMET111RKSO 172355Z 05005KT 9999 SCT070 BKN250 27/24 A2977 RMK SLP081 70102 8/071 9/061 10236 20273 53003 RADAT 81151;EQDQ01+000000PRSWM2Q02 +02363ATMM  Q03 +02733ATMM  
0225471220999992000081803004+37070+127020FM-15+0012RKSO V0200701N004610750019N0112651N1+03101+02401100741ADDGD12991+0090099GD22991+0240099GD33991+0750099GF107991999999999999999999MA1100751999999MD1810071+9999MW1001REMMET088RKSO 180255Z 07009KT 9999 FEW030 SCT080 BKN250 31/24 A2975 RMK SLP074 8/171 9/133 58007;EQDQ01+000000PRSWM2
0293471220999992000081808004+37070+127020FM-15+0012RKSO V0200901N003610240019N0112651N1+02801+02401100591ADDGA1999+009009099GD12991+0090099GD23991+0240099GD33991+0750099GF107991999999999999999999MA1100611999999MW1801OC100671REMMET130RKSO 180755Z COR 09007G13KT 9999 -SHRA SCT030CB BKN080 BKN250 28/24 A2971 RMK WSHFT 0753 SLP059 CB 10 W AND 6 E MOV W 8/971 9/232;EQDQ01+000003PRSWM1Q02    003PRSWM1
0218471220999992000081810004+37070+127020FM-15+0012RKSO V02099999999990240019N0112651N1+02601+02401100611ADDGD12991+0090099GD23991+0240099GD33991+0750099GF107991999999999999999999MA1100611999999MW1001REMMET095RKSO 180955Z VRB04KT 9999 SCT030 BKN080 BKN250 26/24 A2971 RMK SLP061 CB SW DISPTD 8/463 9/421;EQDQ01+000000PRSWM2
0131471220999992000090320004+37070+127020FM-15+0012RKSO V0200601N002112200019N0090001N1+02101+02101101121ADDGF100991999999999999999999MA1101121999999MW1001REMMET053RKSO 031955Z 06004KT 9000 SKC 21/21 A2986 RMK SLP112;EQDQ01+000000PRSWM2
0200471220999992000090515004+37070+127020FM-15+0012RKSO V0200101N001012200019N0080001N1+01901+01901100641ADDGD12991+0600099GF102991999999999999999999MA1100641999999MD1810031+9999MW1101REMMET077RKSO 051455Z 01002KT 8000 BR FEW200 19/19 A2972 RMK SLP064 8/001 9/001 58003;EQDQ01+000003PRSWM1Q02    003PRSWM1
0225471220999992000090523004+37070+127020FM-15+0012RKSO V0201501N002110300019N0048001N1+02101+02001100711ADDGD13991+0300099GD24991+0600099GF108991999999999999999999MA1100711999999MW1101MW2611REMMET095RKSO 052255Z 15004KT 4800 -RA BR BKN100 OVC200 21/20 A2974 RMK TWR VIS 3200 SLP071 8/077 9/053;EQDQ01+000003PRSWM1Q02    003PRSWM1
0253471220999992000090618004+37070+127020FM-15+0012RKSO V0200701N002110240019N0112651N1+02101+02101101121ADDGD13991+0240099GD24991+0600099GF108991999999999999999999KA1999M+02161KA2999N+02091MA1101121999999MD1210031+9999MW1001REMMET105RKSO 061755Z 07004KT 9999 BKN080 OVC200 21/21 A2986 RMK SLP112 8/077 9/053 10216 20209 52003 RADAT 20145;EQDQ01+000000PRSWM2
0202471220999992000090620004+37070+127020FM-15+0012RKSO V0203301N001510600019N0090001N1+02001+02001101151ADDGD12991+0240099GD23991+0600099GF107991999999999999999999MA1101151999999MW1101REMMET078RKSO 061955Z 33003KT 9000 BR SCT080 BKN200 20/20 A2987 RMK SLP115 8/078 9/042;EQDQ01+000003PRSWM1Q02    003PRSWM1
0203471220999992000090719004+37070+127020FM-15+0012RKSO V0200601N003110150019N0112651N1+01901+01801101631ADDGD13991+0150099GD24991+0300099GF108991999999999999999999MA1101631999999MW1611REMMET079RKSO 071859Z 06006KT 9999 -RA BKN050 OVC100 19/18 A3001 RMK SLP163 8/57/ 9/62/;EQDQ01+000003PRSWM1Q02    003PRSWM1
0150471220999992000091719004+37070+127020FM-15+0012RKSO V0200701N001512200019N0080001N1+01101+01101101051ADDGF100991999999999999999999MA1101051999999MW1101REMMET056RKSO 171855Z 07003KT 8000 BR SKC 11/11 A2984 RMK SLP105;EQDQ01+000003PRSWM1Q02    003PRSWM1
0203471220999992000092115004+37070+127020FM-15+0012RKSO V0200601N002610600019N0112651N1+01901+01901102031ADDGD12991+0360099GD24991+0600099GF108991999999999999999999MA1102031999999MD1810031+9999MW1001REMMET081RKSO 211455Z 06005KT 9999 SCT120 OVC200 19/19 A3013 RMK SLP203 8/077 9/044 58003;EQDQ01+000000PRSWM2
0180471220999992000092313004+37070+127020FM-15+0012RKSO V02099999999990600019N0090001N1+01701+01701101471ADDGD13991+0600099GF107991999999999999999999MA1101491999999MW1101REMMET071RKSO 231255Z VRB01KT 9000 BR BKN200 17/17 A2997 RMK SLP147 8/008 9/005;EQDQ01+000003PRSWM1Q02    003PRSWM1
0205471220999992000092610004+37070+127020FM-15+0012RKSO V0202601N001510600019N0112651N1+02001+01601101831ADDGD12991+0120099GD22991+0240099GD33991+0600099GF107991999999999999999999MA1101831999999MW1001REMMET082RKSO 260956Z 26003KT 9999 SCT040 SCT080 BKN200 20/16 A3007 RMK SLP183 8/435 9/311;EQDQ01+000000PRSWM2
0225471220999992000092715004+37070+127020FM-15+0012RKSO V0200701N003110300019N0112651N1+01501+01501101931ADDGD12991+0120099GD23991+0300099GD34991+0600099GF108991999999999999999999MA1101931999999MD1810021+9999MW1001REMMET088RKSO 271455Z 07006KT 9999 SCT040 BKN100 OVC200 15/15 A3010 RMK SLP193 8/577 9/332 58002;EQDQ01+000000PRSWM2
0161471220999992000092813004+37070+127020FM-15+0012RKSO V0200401N001010360019N0112651N1+01601+01401101811ADDGD14991+0360099GF108991999999999999999999MA1101831999999MW1001REMMET068RKSO 281255Z 04002KT 9999 OVC120 16/14 A3007 RMK SLP181 8/07/ 9/08/;EQDQ01+000000PRSWM2
0161471220999992000092917004+37070+127020FM-15+0012RKSO V0200401N001512200019N0112651N1+01401+01401101461ADDGD12991+0600099GF102991999999999999999999MA1101461999999MW1001REMMET068RKSO 291655Z 04003KT 9999 FEW200 14/14 A2996 RMK SLP146 8/001 9/002;EQDQ01+000000PRSWM2
0201471220999992000093019004+37070+127020FM-15+0012RKSO V0200301N001512200019N0004001N1+01401+01401101681ADDED199U03009GD12991+0600099GF104991999999999999999999MA1101691999999MW1441REMMET081RKSO 301855Z 03003KT 0400 R27/M0300 FG SCT200 14/14 A3003 RMK SLP168 8/001 9/003;EQDQ01+000003PRSWM1Q02    003PRSWM1
0257471220999992000100203004+37070+127020FM-15+0012RKSO V0202201N003110045019N0024001N1+01901+01901101291ADDGD12991+0001599GD24991+0045099GF108991999999999999999999MA1101291999999MD1010001+9999MW1101MW2611REMMET113RKSO 020255Z COR 22006KT 2400 -RA BR FEW000 OVC015 19/19 A2991 RMK SLP129 BR FEW000 8/5// 9/8// 50000 60004 WR//;EQDQ01+000003PRSWM1Q02    003PRSWM1
0202471220999992000100416004+37070+127020FM-15+0012RKSO V0203601N001510360019N0080001N1+01401+01401101971ADDGD13991+0360099GD23991+0750099GF107991999999999999999999MA1101961999999MW1101REMMET078RKSO 041555Z 36003KT 8000 BR BKN120 BKN250 14/14 A3011 RMK SLP197 8/078 9/052;EQDQ01+000003PRSWM1Q02    003PRSWM1
0151471220999992000100702004+37070+127020FM-15+0012RKSO V0201201N001512200019N0090001N1+02301+01701999999ADDGF100991999999999999999999MA1102171999999MW1051REMMET057RKSO 070155Z 12003KT 9000 HZ SKC 23/17 A3017 RMK SLP 217;EQDQ01+000003PRSWM1Q02    003PRSWM1
0150471220999992000102001004+37070+127020FM-15+0012RKSO V0200901N000512200019N0040001N1+01601+01401101991ADDGF100991999999999999999999MA1102001999999MW1101REMMET056RKSO 200055Z 09001KT 4000 BR SKC 16/14 A3012 RMK SLP199;EQDQ01+000003PRSWM1Q02    003PRSWM1
0181471220999992000102521004+37070+127020FM-15+0012RKSO V0202401N000512200019N0112651N1+00501+00201102311ADDGD12991+0600099GF102991999999999999999999MA1102301999999MD1310031+9999MW1001REMMET074RKSO 252055Z 24001KT 9999 FEW200 05/02 A3021 RMK SLP231 8/002 9/001 53003;EQDQ01+000000PRSWM2
0132471220999992000103005004+37070+127020FM-15+0012RKSO V0202401N002112200019N0112651N1+01501-00101102061ADDGF100991999999999999999999MA1102071999999MW1001REMMET054RKSO 300455Z 24004KT 9999 SKC 15/M01 A3014 RMK SLP206;EQDQ01+000000PRSWM2
0202471220999992000111909064+37070+127020FM-16+0012RKSO V0200301N001510150019N0112651N1+01001+00301999999ADDGD13991+0150099GD23991+0360099GD34991+0600099GF108991999999999999999999MA1102401999999MW1611REMMET063RKSO 190906Z 03003KT 9999 -RA BKN050 BKN120 OVC200 10/03 A3024;EQDQ01+000003PRSWM1Q02    003PRSWM1
0169471220999992000111911494+37070+127020FM-16+0012RKSO V0202801N001010135019N0112651N1+00901+00601999999ADDGD13991+0135099GD24991+0360099GF108991999999999999999999MA1102271999999MW1001REMMET061RKSO 191149Z 28002KT 9999 BKN045 OVC120 09/06 A3020 RMK WR//;EQDQ01+000000PRSWM2
0143471220999992000112105004+37070+127020FM-15+0012RKSO V0203201N006212200019N0112651N1+00401-01101102861ADDGF100991999999999999999999MA1102841999999MW1001OC100821REMMET057RKSO 210455Z 32012G16KT 9999 SKC 04/M11 A3037 RMK SLP286;EQDQ01+000000PRSWM2
0222471220999992000113003004+37070+127020FM-15+0012RKSO V0203601N001510600019N0048001N1+00801+00201102571ADDGD12991+0360099GD24991+0600099GF108991999999999999999999MA1102571999999MD1810081+9999MW1101REMMET084RKSO 300255Z 36003KT 4800 BR SCT120 OVC200 08/02 A3029 RMK SLP257 8/077 9/038 58008;EQDQ01+000003PRSWM1Q02    003PRSWM1
0202471220999992000113013004+37070+127020FM-15+0012RKSO V0200601N001510600019N0060001N1+00401+00401102481ADDGD12991+0360099GD24991+0600099GF108991999999999999999999MA1102471999999MW1101REMMET078RKSO 301255Z 06003KT 6000 BR SCT120 OVC200 04/04 A3026 RMK SLP248 8/077 9/038;EQDQ01+000003PRSWM1Q02    003PRSWM1
0202471220999992000113014004+37070+127020FM-15+0012RKSO V0200601N002612200019N0060001N1+00201+00201102521ADDGD12991+0360099GD22991+0600099GF104991999999999999999999MA1102511999999MW1101REMMET078RKSO 301355Z 06005KT 6000 BR FEW120 SCT200 02/02 A3027 RMK SLP252 8/077 9/024;EQDQ01+000003PRSWM1Q02    003PRSWM1
0182471220999992000120121004+37070+127020FM-15+0012RKSO V0200701N002612200019N0040001N1-00201-00201102691ADDGF100991999999999999999999MA1102681999999MD1310031+9999MW1101REMMET074RKSO 012055Z 07005KT 4000 BR SKC M02/M02 A3032 RMK TWR VIS 3 SLP269 53003;EQDQ01+000003PRSWM1Q02    003PRSWM1
0220471220999992000120906004+37070+127020FM-15+0012RKSO V0201901N002112200019N0112651N1+01501+00201101851ADDGF100991999999999999999999KA1999M+01521KA2999N+00151MA1101861999999MD1610271+9999MW1051REMMET086RKSO 090555Z 19004KT 9999 HZ SKC 15/02 A3008 RMK SLP185 10152 20015 56027 RADAT 20070;EQDQ01+000003PRSWM1Q02    003PRSWM1
0163471220999992000121210004+37070+127020FM-15+0012RKSO V0200601N001010150019N0112651N1-00201-00801102691ADDGD13991+0150099GF107991999999999999999999MA1102681999999MW1001REMMET070RKSO 120955Z 06002KT 9999 BKN050 M02/M08 A3032 RMK SLP269 8/500 9/600;EQDQ01+000000PRSWM2
0251471220999992000121306004+37070+127020FM-15+0012RKSO V0200501N003612200019N0090001N1+00401-00201102301ADDGD12991+0150099GF102991999999999999999999KA1999M+00491KA2999N-00081MA1102301999999MD1610151+9999MW1101REMMET102RKSO 130555Z 05007KT 9000 BR FEW050 04/M02 A3021 RMK SLP230 8/500 9/200 10049 21008 56015 RADAT 79011;EQDQ01+000003PRSWM1Q02    003PRSWM1
0191471220999992000121410004+37070+127020FM-15+0012RKSO V0201301N002110105019N0090001N1+00501+00401102421ADDGD13991+0105099GF107991999999999999999999MA1102401999999MW1101OC100571REMMET074RKSO 140955Z 13004G11KT 9000 BR BKN035 05/04 A3024 RMK SLP242 8/500 9/500;EQDQ01+000003PRSWM1Q02    003PRSWM1
0186471220999992000121500294+37070+127020FM-16+0012RKSO V0200701N001510090019N0024001N1+00401+00401999999ADDGD14991+0090099GF108991999999999999999999MA1102371999999MW1101MW2801REMMET071RKSO 150029Z 07003KT 2400 -SHRA BR OVC030 04/04 A3023 RMK TWR VIS 1600;EQDQ01+000003PRSWM1Q02    003PRSWM1
0265471220999992000121809004+37070+127020FM-15+0012RKSO V0201901N002610120019N0032001N1+00301+00301101841ADDGD12991+0060099GD23991+0120099GD34991+0180099GF108991999999999999999999MA1101831999999MD1610081+9999MW1101MW2611REMMET106RKSO 180855Z 19005KT 3200 -RA BR SCT020 BKN040 OVC060 03/03 A3007 RMK SLP184 60043 8/5// 9/8// 56008 WR//;EQDQ01+000003PRSWM1Q02    003PRSWM1
0329471220999992000122000004+37070+127020FM-15+0012RKSO V0209999V001010360019N0016001N1+00101+00101102331ADDED199U18309GD12991+0150099GD23991+0360099GD34991+0600099GF108991999999999999999999KA1999M+00101KA2999N-00201MA1102341999999MD1710051+9999MW1101REMMET139RKSO 192355Z RTD VRB02KT 1600 R27/P1830 BR SCT050 BKN120 OVC200 01/01 A3022 RMK SLP233 VIS W 1200 8/577 9/358 10010 21020 57005 RADAT ZERO;EQDQ01+000003PRSWM1Q02    003PRSWM1
0204471220999992000122403004+37070+127020FM-15+0012RKSO V0202701N003610600019N0112651N1+00301-00501102211ADDGD12991+0300099GD23991+0600099GF107991999999999999999999MA1102201999999MD1010001+9999MW1001REMMET082RKSO 240255Z 27007KT 9999 SCT100 BKN200 03/M05 A3018 RMK SLP221 8/056 9/026 50000;EQDQ01+000000PRSWM2
0162471220999992000122805004+37070+127020FM-15+0012RKSO V0202501N002612200019N0112651N1+00201-00501102931ADDGD12991+0090099GF102991999999999999999999MA1102911999999MW1001REMMET069RKSO 280457Z 25005KT 9999 FEW030 02/M05 A3039 RMK SLP293 8/500 9/100;EQDQ01+000000PRSWM2
0182471220999992000122922004+37070+127020FM-15+0012RKSO V0202701N002610270019N0048001N1-00501-00501102351ADDGD13991+0270099GF107991999999999999999999MA1102341999999MW1101REMMET073RKSO 292155Z 27005KT 4800 BR BKN095 M05/M05 A3022 RMK SLP235 8/070 9/070;EQDQ01+000003PRSWM1Q02    003PRSWM1
0173471220999992000123000424+37070+127020FM-16+0012RKSO V0200701N002112200019N0048001N1+00101-00301999999ADDGD12991+0600099GF102991999999999999999999MA1102301999999MW1101REMMET064RKSO 300042Z 07004KT 4800 BR FEW200 01/M03 A3021 RMK VIS W 3200;EQDQ01+000003PRSWM1Q02    003PRSWM1
0105471223999992000010220004+37100+128900FM-15+0792RKNR V0202401N001512200019N0112651N1+99999+99999999999ADDMA1101351999999MW1001REMMET053RKNR 1957Z 24003KT 9999 M05/M08 A2993 RMK QFF1017PT9;EQDQ01+000000PRSWM2
0210471223999992000010510004+37100+128900FM-15+0792RKNR V0200301N001010075019N0080001N1+00101+00101999999ADDGA1021+004509999GA2081+007509999GF108991999999999999999999MA1101691999999MW1611REMMET084RKNR 0957Z 03002KT 8000 -RA SCT015 OVC025 01/01 A3003 RMK CIGM025/1RA03/ QFF1020PT8;EQDQ01+000003PRSWM1Q02    003PRSWM1
0105471223999992000012023004+37100+128900FM-15+0792RKNR V0200401N001512200019N0112651N1+99999+99999999999ADDMA1103011999999MW1001REMMET053RKNR 2258Z 04003KT 9999 M23/M25 A3042 RMK QFF1041PT6;EQDQ01+000000PRSWM2
0154471223999992000012113004+37100+128900FM-15+0792RKNR V0200201N000512200019N0112651N1-01601-01901999999ADDGA1021+060009999GF102991999999999999999999MA1103221999999MW1001REMMET060RKNR 1257Z 02001KT 9999 FEW200 M16/M19 A3048 RMK QFF1042PT6;EQDQ01+000000PRSWM2
0217471223999992000012215004+37100+128900FM-15+0792RKNR V0209999C000010090019N0080001N1-00101-00201999999ADDGA1021+004509999GA2081+009009999GF108991999999999999999999MA1102201999999MW1711REMMET091RKNR 1457Z 00000KT 8000 -SN SCT015 OVC030 M01/M02 A3018 RMK CIG030/1SN01/20007/ QFF1026PT0;EQDQ01+000003PRSWM1Q02    003PRSWM1
0235471223999992000012423004+37100+128900FM-15+0792RKNR V0202701N002110075019N0048001N1-00801-00901999999ADDGA1011+000159999GA2021+003609999GA3071+007509999GF107991999999999999999999MA1102201999999MW1711REMMET093RKNR 2258Z 27004KT 4800 -SN 1FG/// SCT012 BKN025 M08/M09 A3018 RMK CIGM025/1SN00/ QFF1027PT3;EQDQ01+000003PRSWM1Q02    003PRSWM1
0114471223999992000021221004+37100+128900FM-15+0792RKNR V0201401N001512200019N0060001N1+99999+99999999999ADDMA1101691999999MW1001MW2101REMMET056RKNR 2059Z 14003KT 6000 BR M12/M14 A3003 RMK QFF1022PT3;EQDQ01+000003PRSWM1
0089471223999992000021713004+37100+128900FM-15+0792RKNR V0202601N001512200019N0112651N1+99999+99999999999ADDMW1001REMMET052RKNR 1257Z 26003KT 9999 M11/M16 A313 RMK QFF1027PT7;EQDQ01+000000PRSWM2
0105471223999992000021802004+37100+128900FM-15+0792RKNR V0202401N002612200019N0112651N1+99999+99999999999ADDMA1102101999999MW1001REMMET053RKNR 0156Z 24005KT 9999 M05/M12 A3015 RMK QFF1027PT0;EQDQ01+000000PRSWM2
0154471223999992000022012004+37100+128900FM-15+0792RKNR V0202401N002112200019N0112651N1-00401-00801999999ADDGA1021+009009999GF102991999999999999999999MA1101021999999MW1001REMMET060RKNR 1156Z 24004KT 9999 FEW030 M04/M08 A2983 RMK QFF1015PT5;EQDQ01+000000PRSWM2
0105471223999992000022701004+37100+128900FM-15+0792RKNR V0202001N003112200019N0112651N1+99999+99999999999ADDMA1101931999999MW1001REMMET053RKNR 0057Z 20006KT 9999 M06/M11 A3010 RMK QFF1024PT3;EQDQ01+000000PRSWM2
0122471223999992000030205004+37100+128900FM-15+0792RKNR V0202401N001512200019N0090001N1+00901+00201999999ADDMA1102241999999MW1051REMMET054RKNR 0456Z 24003KT 9000 HZ 09/02 A3019 RMK QFF1026PT3;EQDQ01+000003PRSWM1Q02    003PRSWM1
0194471223999992000030806004+37100+128900FM-15+0792RKNR V0202801N003610090019N0080001N1-00301-00601999999ADDGA1081+009009999GF108991999999999999999999MA1101291999999MW1711REMMET084RKNR 0558Z 28007KT 8000 -SN OVC030 M03/M06 A2991 RMK CIG030/1SN00/6SN00/ QFF1018PT5;EQDQ01+000003PRSWM1Q02    003PRSWM1
0136471223999992000031006274+37100+128900FM-16+0792RKNR V0202401N003112200019N0112651N1+99999+99999999999ADDGA1021+060009999GF104991999999999999999999MA1102101999999MW1001REMMET042RKNR 0627Z 24006KT 9999 SCT200 A3015 RMK ;EQDQ01+000000PRSWM2
0104471223999992000031410004+37100+128900FM-15+0792RKNR V0202101N003612200019N0112651N1+00001-00901999999ADDMA1101931999999MW1001REMMET052RKNR 0956Z 21007KT 9999 00/M09 A3010 RMK QFF1024PT3;EQDQ01+000000PRSWM2
0212471223999992000031522004+37100+128900FM-15+0792RKNR V0209999C000010030019N0016001N1+00001-00101999999ADDGA1031+000159999GA2081+003009999GF108991999999999999999999MA1100201999999MW1711REMMET086RKNR 2156Z 00000KT 1600 -SN 3FG/// OVC010 M00/M01 A2959 RMK CIGM010/1SN00/ QFF1005PT3;EQDQ01+000003PRSWM1Q02    003PRSWM1
0104471223999992000033003004+37100+128900FM-15+0792RKNR V0202201N003612200019N0112651N1+00901-00301999999ADDMA1101251999999MW1001REMMET052RKNR 0259Z 22007KT 9999 09/M03 A2990 RMK QFF1014PT4;EQDQ01+000000PRSWM2
0153471223999992000040114004+37100+128900FM-15+0792RKNR V0200901N000512200019N0112651N1+00101-00601999999ADDGA1021+060009999GF104991999999999999999999MA1102031999999MW1001REMMET059RKNR 1357Z 09001KT 9999 SCT200 01/M06 A3013 RMK QFF1021PT9;EQDQ01+000000PRSWM2
0105471223999992000040219004+37100+128900FM-15+0792RKNR V0201001N002112200019N0112651N1+99999+99999999999ADDMA1102031999999MW1001REMMET053RKNR 1856Z 10004KT 9999 M01/M06 A3013 RMK QFF1021PT8;EQDQ01+000000PRSWM2
0103471223999992000040301004+37100+128900FM-15+0792RKNR V0202401N004112200019N0112651N1+01201+00101999999ADDMA1102031999999MW1001REMMET051RKNR 0057Z 24008KT 9999 12/01 A3013 RMK QFF1021PT5;EQDQ01+000000PRSWM2
0153471223999992000040304004+37100+128900FM-15+0792RKNR V0202601N003112200019N0112651N1+01501-00101999999ADDGA1021+009009999GF102991999999999999999999MA1101931999999MW1001REMMET059RKNR 0357Z 26006KT 9999 FEW030 15/M01 A3010 RMK QFF1020PT6;EQDQ01+000000PRSWM2
0105471223999992000040518004+37100+128900FM-15+0792RKNR V0200601N001512200019N0112651N1+99999+99999999999ADDMA1101591999999MW1001REMMET053RKNR 1757Z 06003KT 9999 M07/M11 A3000 RMK QFF1018PT2;EQDQ01+000000PRSWM2
0123471223999992000040703004+37100+128900FM-15+0792RKNR V0202601N007712200019N0090001N1+01001-00101999999ADDMA1101291999999MW1051REMMET055RKNR 0256Z 26015KT 9000 HZ 10/M01 A2991 RMK QFF1015PT1;EQDQ01+000003PRSWM1Q02    003PRSWM1
0105471223999992000041020004+37100+128900FM-15+0792RKNR V0202401N004112200019N0112651N1+99999+99999999999ADDMA1101221999999MW1001REMMET053RKNR 1959Z 24008KT 9999 M04/M11 A2989 RMK QFF1016PT2;EQDQ01+000000PRSWM2
0159471223999992000041402004+37100+128900FM-15+0792RKNR V0202701N001010600019N0112651N1+01301+00301999999ADDGA1071+060009999GF107991999999999999999999MA1101221999999MW1001REMMET065RKNR 0156Z 27002KT 9999 BKN200 13/03 A2989 RMK CIG200 QFF1012PT0;EQDQ01+000000PRSWM2
0185471223999992000041814004+37100+128900FM-15+0792RKNR V0202201N003110090019N0090001N1+00201+00101999999ADDGA1081+009009999GF108991999999999999999999MA1101151999999MW1101REMMET075RKNR 1356Z 22006KT 9000 BR OVC030 02/01 A2987 RMK CIG030/1RA00/ QFF1013PT0;EQDQ01+000003PRSWM1Q02    003PRSWM1
0161471223999992000042417004+37100+128900FM-15+0792RKNR V0200801N001010600019N0112651N1+00101-00501999999ADDGA1071+060009999GF107991999999999999999999MA1101221999999MW1001REMMET067RKNR 1656Z 08002KT 9999 BKN200 01/M05 A2989 RMK CIG200/ QFF1013PT0;EQDQ01+000000PRSWM2
0185471223999992000042710004+37100+128900FM-15+0792RKNR V0200601N001010090019N0090001N1+00601+00501999999ADDGA1081+009009999GF108991999999999999999999MA1100711999999MW1101REMMET075RKNR 0956Z 06002KT 9000 BR OVC030 06/05 A2974 RMK CIG030/1RA00/ QFF1008PT5;EQDQ01+000003PRSWM1Q02    003PRSWM1
0103471223999992000050613004+37100+128900FM-15+0792RKNR V0201001N001012200019N0112651N1+00701+00001999999ADDMA1101491999999MW1001REMMET051RKNR 1257Z 10002KT 9999 07/00 A2997 RMK QFF1015PT3;EQDQ01+000000PRSWM2
0159471223999992000050906004+37100+128900FM-15+0792RKNR V0202001N001010600019N0112651N1+02601+00901999999ADDGA1071+060009999GF107991999999999999999999MA1101291999999MW1001REMMET065RKNR 0556Z 20002KT 9999 BKN200 26/09 A2991 RMK CIG200 QFF1011PT6;EQDQ01+000000PRSWM2
0203471223999992000051121004+37100+128900FM-15+0792RKNR V0202401N000510036019N0032001N1+00801+00501999999ADDGA1011+000159999GA2081+003609999GF108991999999999999999999MA1100681999999MW1101REMMET077RKNR 2057Z 24001KT 3200 BR 1FG/// OVC012 08/05 A2973 RMK CIGM012/ QFF1007PT5;EQDQ01+000003PRSWM1Q02    003PRSWM1
0202471223999992000051803004+37100+128900FM-15+0792RKNR V0202201N001010090019N0080001N1+02001+01401999999ADDGA1071+009009999GA2071+060009999GF107991999999999999999999MA1101121999999MW1051REMMET076RKNR 0256Z 22002KT 8000 HZ BKN030 BKN200 20/14 A2986 RMK CIG030/ QFF1010PT0;EQDQ01+000003PRSWM1Q02    003PRSWM1
0180471223999992000052220004+37100+128900FM-15+0792RKNR V0201101N001010045019N0048001N1+01001+00701999999ADDGA1071+004509999GF107991999999999999999999MA1101421999999MW1101REMMET070RKNR 1957Z 11002KT 4800 BR BKN015 10/07 A2995 RMK CIGM015/ QFF1012PT8;EQDQ01+000003PRSWM1Q02    003PRSWM1
0214471223999992000052706004+37100+128900FM-15+0792RKNR V0200101N000510045019N0048001N1+01701+01601999999ADDGA1071+004509999GA2081+009009999GF108991999999999999999999MA1099831999999MW1101REMMET088RKNR 0557Z 01001KT 4800 BR BKN015 OVC030 17/16 A2948 RMK CIGM015/1RA00/6RA00/ QFF996PT6;EQDQ01+000003PRSWM1Q02    003PRSWM1
0124471223999992000053120174+37100+128900FM-16+0792RKNR V0200101N001012200019N0048001N1+99999+99999999999ADDGA1021+003609999GF104991999999999999999999MW1001MW2101REMMET039RKNR 2017Z 01002KT 4800 BR SCT012 RMK ;EQDQ01+000003PRSWM1
0103471223999992000060600004+37100+128900FM-15+0792RKNR V0201901N002112200019N0112651N1+02001+01401999999ADDMA1100981999999MW1001REMMET051RKNR 0056Z 19004KT 9999 20/14 A2982 RMK QFF1007PT2;EQDQ01+000000PRSWM2
0178471223999992000061401004+37090+128890FM-15+0792RKNR V0200301N001010120019N0090001N1+02101+01501999999ADDGA1071+012009999GF107991999999999999999999MA1100711999999MW1051REMMET068RKNR 0056Z 03002KT 9000 HZ BKN040 21/15 A2974 RMK CIG040 QFF1004PT8;EQDQ01+000003PRSWM1Q02    003PRSWM1
0152471223999992000061411004+37090+128890FM-15+0792RKNR V0201201N001512200019N0112651N1+01801+01001999999ADDGA1021+060009999GF102991999999999999999999MA1100711999999MW1001REMMET058RKNR 1056Z 12003KT 9999 FEW200 18/10 A2974 RMK QFF1005PT2;EQDQ01+000000PRSWM2
0225471223999992000062511004+37090+128890FM-15+0792RKNR V0200401N001010090019N0090001N1+01901+01401999999ADDGA1021+006009999GA2071+009009999GA3071+030009999GF107991999999999999999999MA1101081999999MW1101REMMET083RKNR 1056Z 04002KT 9000 BR SCT020 BKN030 BKN100 19/14 A2985 RMK CIG030/ QFF1007PT8;EQDQ01+000003PRSWM1Q02    003PRSWM1
0152471223999992000070900004+37090+128890FM-15+0792RKNR V0200901N001012200019N0112651N1+02001+01501999999ADDGA1021+060009999GF104991999999999999999999MA1101221999999MW1001REMMET058RKNR 2356Z 09002KT 9999 SCT200 20/15 A2989 RMK QFF1009PT6;EQDQ01+000000PRSWM2
0202471223999992000071300004+37090+128890FM-15+0792RKNR V0202701N000510045019N0016001N1+02201+02101999999ADDGA1021+000159999GA2081+004509999GF108991999999999999999999MA1100781999999MW1101REMMET076RKNR 2359Z 27001KT 1600 BR 2FG/// OVC015 22/21 A2976 RMK CIGM015 QFF1003PT8;EQDQ01+000003PRSWM1Q02    003PRSWM1
0183471223999992000071417004+37090+128890FM-15+0792RKNR V0202501N001510300019N0112651N1+01801+01601999999ADDGA1021+009009999GA2071+030009999GF107991999999999999999999MA1100981999999MW1001REMMET073RKNR 1656Z 25003KT 9999 FEW030 BKN100 18/16 A2982 RMK CIG100/ QFF1006PT3;EQDQ01+000000PRSWM2
0194471223999992000072610004+37090+128890FM-15+0792RKNR V0203501N001512200019N0090001N1+02101+01701999999ADDGA1021+009009999GA2021+060009999GF104991999999999999999999MA1100641999999MW1101REMMET068RKNR 0958Z 35003KT 9000 BR FEW030 SCT200 21/17 A2972 RMK QFF1004PT0;EQDQ01+000003PRSWM1Q02    003PRSWM1
0098471223999992000072915004+37090+128890FM-15+0792RKNR V0200801N000510090019N0112651N1+99999+99999999999ADDMW1001REMMET061RKNR 1456Z 08001KT 9999 030 21/16 A2961 RMK CIG030 QFF997PT5;EQDQ01+000000PRSWM2
0158471223999992000072923004+37090+128890FM-15+0792RKNR V0201501N000510090019N0112651N1+02401+02101999999ADDGA1071+009009999GF107991999999999999999999MA1100071999999MW1001REMMET064RKNR 2257Z 15001KT 9999 BKN030 24/21 A2955 RMK CIG030 QFF996PT2;EQDQ01+000000PRSWM2
0152471223999992000073119004+37090+128890FM-15+0792RKNR V0200801N000512200019N0112651N1+01501+01301999999ADDGA1021+009009999GF104991999999999999999999MA1100851999999MW1001REMMET058RKNR 1858Z 08001KT 9999 SCT030 15/13 A2978 RMK QFF1006PT1;EQDQ01+000000PRSWM2
0160471223999992000080215004+37090+128890FM-15+0792RKNR V0202301N001510090019N0112651N1+01901+01701999999ADDGA1071+009009999GF107991999999999999999999MA1101321999999MW1001REMMET066RKNR 1456Z 23003KT 9999 BKN030 19/17 A2992 RMK CIG030/ QFF1009PT5;EQDQ01+000000PRSWM2
0216471223999992000080418004+37090+128890FM-15+0792RKNR V0200801N000510045019N0080001N1+02001+02001999999ADDGA1071+004509999GA2081+007509999GF108991999999999999999999MA1101691999999MW1611REMMET090RKNR 1757Z 08001KT 8000 -RA BKN015 OVC025 20/20 A3003 RMK CIGM015/1RA01/6RA17/ QFF1013PT3;EQDQ01+000003PRSWM1Q02    003PRSWM1
0182471223999992000091209004+37090+128890FM-15+0792RKNR V0201301N005110240019N0112651N1+01401+01101999999ADDGA1021+007509999GA2081+024009999GF108991999999999999999999MA1101591999999MW1001REMMET072RKNR 0858Z 13010KT 9999 SCT025 OVC080 14/11 A3000 RMK CIG080 QFF1014PT4;EQDQ01+000000PRSWM2
0141471240999992000010111004+36400+127500FM-15+0079RKTE V0201101N001510600019N0112651N1+00601+00301999999ADDGA1071+060009999GF107991999999999999999999MA1102401999999MW1001REMMET066RKTE 1059Z 11003KT 9999 BKN200 06/03 A3024 RMK CIG200/ QFF1025PT1;
0136471240999992000010718004+36400+127500FM-15+0079RKTE V0209999C000010090019N0080001N1+99999+99999999999ADDMW1001MW2711REMMET093RKTE 1757Z 00000KT 8000 -SN 030 M08/M09 A3022 RMK CIG030/1SN04/6SN05/90401/PSR16/ QFF1024PT7;EQDQ01+000003PRSWM1
0153471240999992000010807004+36400+127500FM-15+0079RKTE V0202901N003112200019N0112651N1+00201-00401999999ADDGA1021+012009999GF104991999999999999999999MA1102241999999MW1001REMMET059RKTE 0657Z 29006KT 9999 SCT040 02/M04 A3019 RMK QFF1023PT4;EQDQ01+000000PRSWM2
0149471240999992000011200544+36400+127500FM-16+0079RKTE V0201101N001510240019N0112651N1+99999+99999999999ADDGA1021+009009999GA2081+024009999GF108991999999999999999999MW1001REMMET054RKTE 0054Z 11003KT 9999 RERA SCT030 OVC080 RMK CIG080;EQDQ01+000000PRSWM2
0181471240999992000011413004+36400+127500FM-15+0079RKTE V0203001N002110090019N0090001N1+00001-00501999999ADDGA1071+009009999GF107991999999999999999999MA1102441999999MW1101REMMET071RKTE 1257Z 30004KT 9000 BR BKN030 M00/M05 A3025 RMK CIG030/ QFF1025PT4;EQDQ01+000003PRSWM1Q02    003PRSWM1
0181471240999992000011517004+36400+127500FM-15+0079RKTE V0209999C000010600019N0080001N1-00301-00401999999ADDGA1071+060009999GF107991999999999999999999MA1102341999999MW1101REMMET071RKTE 1657Z 00000KT 8000 BR BKN200 M03/M04 A3022 RMK CIG200/ QFF1024PT4;EQDQ01+000003PRSWM1Q02    003PRSWM1
