0119155620999992000072315004+43360+028470FM-12+006499999V0202301N004012200019N0200001N1+02481+01891999999ADDGF102991999999004501999999REMSYN081AAXX  23151 15562 41498 22304 10248 20189 4016 54000 70111 82200 555 92023 92428;
0179155620999992000081915004+43360+028470FM-12+006499999V0209999C000012200019N0200001N1+02781+02041101981ADDAY101031AY201031GA1001+999999999GF100991001001999999001001MD1710041+9999MW1021UA1M999999009REMSYN076AAXX  19151 15562 41998 00000 10278 20204 40198 57004 70200 555 92003 92408;
0192155620999992000092412004+43360+028470FM-12+006499999V0203401N014010042019N0200001N1+01061+00801102211ADDAA199000021AY121061AY221061GF108991061051004501011999MD1210071+9999MW1021UA1M999999049REMSYN094AAXX  24121 15562 31498 83414 10106 20080 40221 52007 70222 8651/ 222// 2//03 555 92047 92448;
0156155620999992000092609004+43360+028470FM-12+006499999V0203201N010012200019N0200001N1+01321+00611102361ADDAY101031AY201031GF104991041021004501001001MD1410001+9999MW1021REMSYN082AAXX  26091 15562 41498 43210 10132 20061 40236 54000 70200 84200 555 92035 92438;
0211155620999992000101212004+43360+028470FM-12+006499999V0201801N002012200019N0100001N1+01941+01541101831ADDAA199000091AY101061AY201061GF104991021051004501001021MD1810011+9999MW1021UA1M990009019REMSYN094AAXX  12121 15562 31497 41802 10194 20154 40183 58001 70200 82502 222// 2//00 555 92012 92417;EQDQ01  00002PRCP99
0211155620999992000102012004+43360+028470FM-12+006499999V0203601N012010042019N0200001N1+01121+00801102971ADDAA199000091AY121061AY221061GF108991081051004501999999MD1810011+9999MW1021UA1M999999039REMSYN094AAXX  20121 15562 31498 83612 10112 20080 40297 58001 70222 885// 222// 2//02 555 92036 92438;EQDQ01  00002PRCP99
0156155620999992000102221004+43360+028470FM-12+006499999V0203401N010010042019N0100001N1+00701+00061103031ADDAY121031AY221031GF108991081051004501999999MD1710101+9999MW1021REMSYN082AAXX  22211 15562 41497 83410 10070 20006 40303 57010 70222 885// 555 92035 92437;
0211155620999992000102300004+43360+028470FM-12+006499999V0200201N010010042019N0100001N1+00701+00211102901ADDAA199000091AY121061AY221061GF108991081051004501999999MD1710131+9999MW1021UA1M999999049REMSYN094AAXX  23001 15562 31497 80210 10070 20021 40290 57013 70222 885// 222// 2//03 555 92045 92447;EQDQ01  00002PRCP99
0198155620999992000103121004+43360+028470FM-12+006499999V0201801N004012200019N0100001N1+01341+01151101941ADDAY101031AY201031GA1001+999999999GF100991001001999999001001MD1410001+9999MW1021UA1M999999029REMSYN076AAXX  31211 15562 41997 01804 10134 20115 40194 56000 70200 555 92023 92427;EQDQ01+000062APCTEN
0211155620999992000110212004+43360+028470FM-12+006499999V0201801N002010042019N0040001N1+01421+01311101361ADDAA199000091AY111061AY211061GF107991071061004501001001MD1810121+9999MW1101UA1M990009019REMSYN094AAXX  02121 15562 31496 71802 10142 20131 40136 58012 71011 87600 222// 2//00 555 92012 92416;EQDQ01  00002PRCP99
0250155620999992000121818004+43360+028470FM-12+006499999V0203601N005019999999N0200001N1+00741+00321101901ADDAA199000091AY121061AY221061GF107991999051004501999999KA1120M+00921MD1210111+9999MW1021UA1M999999019REMSYN104AAXX  18181 15562 31498 73605 10074 20032 40190 52011 70222 885// 222// 2//00 333 10092 555 92012 92418;EQDQ01+000082SCOTLCQ02  00002PRCP99
0213155620999992000122721004+43360+028470FM-12+006499999V0202301N012010042019N0200001N1+01261+00951100871ADDAY121031AY221031GF106991061051004501001001MD1210051+9999MW1201OA149902201OA259902001UA1M999999049REMSYN104AAXX  27211 15562 41498 62312 10126 20095 40087 52005 72022 86500 333 91122 91220 91518 555 92046 92448;
0196156000999992000010709004+42830+023670FM-12+169299999V0203601N008010001519N0000001N1-00771-00821999999ADDAY121031AY241031GA1091+999999999GF109991091999999999999999MA1999999083301MD1210191+9999ME1315359MW1411REMSYN082AAXX  07091 15600 41/90 93608 11077 21082 38330 48535 52019 74124 555 92712 95199;
0180156000999992000010721004+42830+023670FM-12+169299999V0200201N012012200019N0200001N1-00921-00981999999ADDAY111031AY201031GF102991021001999999051001MA1999999083331MD1110021+9999ME1315419MW1011REMSYN082AAXX  07211 15600 41998 20212 11092 21098 38333 48541 51002 70110 82050 555 95120;
0196156000999992000012509004+42830+023670FM-12+169299999V0203201N010010001519N0001001N1-01701-01961999999ADDAY141031AY231031GA1091+999999999GF109991091999999999999999MA1999999082211MD1210241+9999ME1314419MW1411REMSYN082AAXX  25091 15600 41/91 93210 11170 21196 38221 48441 52024 74143 555 95199 96036;
0190156000999992000022009004+42830+023670FM-12+169299999V0201401N010010001519N0001001N1-00571-00711999999ADDAY141031AY231031GA1091+999999999GF109991091999999999999999MA1999999081971MD1410001+9999ME1434069MW1491REMSYN076AAXX  20091 15600 41/91 91410 11057 21071 38197 47406 54000 74943 555 92717;
0180156000999992000022515004+42830+023670FM-12+169299999V0202701N012012200019N0500001N1-00701-01281999999ADDAY101031AY201031GF103991021001999999041021MA1999999083241MD1810081+9999ME1315309MW1031REMSYN082AAXX  25151 15600 41999 32712 11070 21128 38324 48530 58008 70300 82042 555 95110;
0196156000999992000040815004+42830+023670FM-12+169299999V0203201N012010001519N0001001N1-00441-00541999999ADDAY181031AY241031GA1091+999999999GF109991091999999999999999MA1999999082611MD1810071+9999ME1314679MW1851REMSYN082AAXX  08151 15600 41/91 93212 11044 21054 38261 48467 58007 78584 555 92711 95199;
0210156000999992000060312004+42830+023670FM-12+169299999V0203601N008010012019N0200001N1+00951+00381999999ADDAA199000091AY121061AY221061GF105991051021001501001001MA1999999083751MD1810031+9999ME1315709MW1021REMSYN082AAXX  03121 15600 31298 53608 10095 20038 38375 48570 58003 70222 85200 555 95110;EQDQ01  00002PRCP99
0180156000999992000061115004+42830+023670FM-12+169299999V0209999C000012200019N0200001N1+01501+00761999999ADDAY111031AY211031GF102991021021001501001001MA1999999083961MD1410001+9999ME1315879MW1011REMSYN082AAXX  11151 15600 41298 20000 10150 20076 38396 48587 54000 70111 82200 555 95110;
0180156000999992000072915004+42820+023670FM-12+169299999V0203601N010012200019N0200001N1+01631+01131999999ADDAY101031AY201031GF102991021021004501001001MA1999999083121MD1410001+9999ME1315009MW1021REMSYN082AAXX  29151 15600 41498 23610 10163 20113 38312 48500 54000 70200 82200 555 95100;
0180156000999992000091121004+42820+023670FM-12+169299999V0203601N010010360019N0200001N1+00881+00731999999ADDAY121031AY221031GF106991021041004501071001MA1999999083181MD1410001+9999ME1315159MW1021REMSYN082AAXX  11211 15600 41498 63610 10088 20073 38318 48515 54000 70222 82470 555 95100;
0293156000999992000100306004+42820+023670FM-12+169299999V0201801N002010360019N0200001N1+01121+00761999999ADDAA199000091AY111061AY211061GF108991031051002501031011GG1039015009069069GJ101149IA1019KA1120N+00791MA1999999083601MD1210071+9999ME1315549MW1031REMSYN120AAXX  03061 15600 31398 81802 10112 20076 38360 48554 52007 70311 83531 333 20079 55019 444 36156 555 30/// 95160 95110;EQDQ01  00002PRCP99
0243156000999992000102218004+42820+023670FM-12+169299999V0203601N008012200019N0500001N1-00401-00461999999ADDAA199000091AY141061AY201061GA1001+999999999GF100991001001999999001001KA1120M-00121MA1999999084061MD1310011+9999ME1316089MW1021REMSYN086AAXX  22181 15600 31999 03608 11040 21046 38406 48608 53001 70240 333 11012 555 95110;EQDQ01  00002PRCP99
0180156000999992000102615004+42820+023670FM-12+169299999V0201601N002012200019N0500001N1+00911+00301999999ADDAY101031AY201031GF101991001001999999001011MA1999999083371MD1810041+9999ME1315309MW1011REMSYN082AAXX  26151 15600 41999 11602 10091 20030 38337 48530 58004 70100 80001 555 95110;
0190156000999992000102921004+42820+023670FM-12+169299999V0202001N004012200019N0200001N1+00231+00231999999ADDAY101031AY201031GA1001+999999999GF100991001001999999001001MA1999999083611MD1310011+9999ME1315589MW1021REMSYN076AAXX  29211 15600 41998 02004 10023 20023 38361 48558 53001 70200 555 95100;
0186156000999992000110315004+42820+023670FM-12+169299999V0201801N008019999999N0500001N1+00711+00461999999ADDAY121031AY221031GF106991021001999999041011MA1999999083161MD1710061+9999ME1315129MW1011REMSYN088AAXX  03151 15600 41999 61808 10071 20046 38316 48512 57006 70122 82041 555 95110 95100;
0265156000999992000110715004+42820+023670FM-12+169299999V0201801N040029999999N0500001N1+00691+00531999999ADDAY121031AY221031GF105991031051999999041021MA1999999082231MD1810091+9999ME1314249MW1021OA149999999OA259904001REMSYN110AAXX  07151 15600 41999 51840 10069 20053 38223 48424 58009 70222 83542 333 91199 91240 91518 555 95120 95100;EQDQ01+004003WOSPD Q02  00002WGOSPD
0244156000999992000112412004+42820+023670FM-12+169299999V0201801N008012200019N0500001N1+00621+00001999999ADDAA199000091AY101061AY201061GF102991011011004501001011GG1049013009069019MA1999999083181MD1810031+9999ME1315179MW1021REMSYN098AAXX  24121 15600 31499 21808 10062 20000 38318 48517 58003 70200 81101 444 46131 555 95180 95110;EQDQ01  00002PRCP99
0230156000999992000112718004+42820+023670FM-12+169299999V0203601N008010001519N0000001N1+00001+00001999999ADDAA106002091AY151061AY241061GA1091+999999999GF109991091999999999999999KA1120M+00241MA1999999082101MD1110011+9999ME1314159MW1511REMSYN092AAXX  27181 15600 11/90 93608 10000 20000 38210 48415 51001 60021 75154 333 10024 555 95190;
0214156000999992000120115004+42820+023670FM-12+169299999V0202301N006012200019N0500001N1+00601-00601999999ADDAY101031AY201031GF102991001001999999001011GG1049009009069019MA1999999083681MD1610021+9999ME1315669MW1021REMSYN098AAXX  01151 15600 41999 22306 10060 21060 38368 48566 56002 70200 80001 444 46091 555 95130 95186;
0278156000999992000122503004+42820+023670FM-12+169299999V0202301N014012200019N0500001N1-00031-01541999999ADDAY101031AY201031GF103991999001999999031001KA1999M+99999MA1999999082461MD1710031+9999ME1314479MW1031OA149902001OA259901401REMSYN110AAXX  25031 15600 41999 32314 11003 21154 38246 48447 57003 70300 86030 333 91120 91214 91523 555 11011 95110;EQDQ01+000062SCOTLCQ02 -00112ATMX  
0242156010999992000010103004+42270+022770FM-12+052799999V0203201N005010150019N0200001N1-00161-00541101871ADDAA124026091AJ100379199999999AY121031AY221031GF106991061051017501001001IA1239KA1999M-00161MA1999999095381MD1110141+9999MW1011REMSYN106AAXX  01031 15601 41798 63205 11016 21054 39538 40187 51014 70122 86500 555 11016 29093 60264 47037 95000;
0171156010999992000010209004+42270+022770FM-12+052799999V0209999C000010120019N0100001N1-00941-01221103041ADDAY121031AY221031GF108991081051012501999999MA1999999096311MD1310131+9999MW1021REMSYN082AAXX  02091 15601 41697 80000 11094 21122 39631 40304 53013 70222 885// 555 95010;
0171156010999992000022215004+42270+022770FM-12+052799999V0203201N002010150019N0200001N1+00061-00501102331ADDAY181031AY221031GF108991081091017501999999MA1999999095881MD1310031+9999MW1851REMSYN082AAXX  22151 15601 41798 83202 10006 21050 39588 40233 53003 78582 889// 555 95050;
0181156010999992000022921004+42270+022770FM-12+052799999V0209999C000012200019N0200001N1-00221-00671102941ADDAY101031AY201031GA1001+999999999GF100991001001999999001001MA1999999096381MD1810051+9999MW1021REMSYN076AAXX  29211 15601 41998 00000 11022 21067 39638 40294 58005 70200 555 95000;
0171156010999992000032015004+42270+022770FM-12+052799999V0203201N004010150019N0200001N1+00381-00711102081ADDAY121031AY221031GF106991061031017501001001MA1999999095711MD1610061+9999MW1011REMSYN082AAXX  20151 15601 41798 63204 10038 21071 39571 40208 56006 70122 86300 555 95000;
0171156010999992000052215004+42270+022770FM-12+052799999V0202901N005012200019N0500001N1+02541+00321100891ADDAY121031AY221031GF106991021021017501001061MA1999999095041MD1610071+9999MW1011REMSYN082AAXX  22151 15601 41799 62905 10254 20032 39504 40089 56007 70122 82206 555 95000;
0211156010999992000060412004+42270+022770FM-12+052799999V0209999C000012200019N0200001N1+02521+00651101831ADDAA199000091AY101061AY201061GA1001+999999999GF100991001001999999001001MA1999999095931MD1810111+9999MW1011REMSYN076AAXX  04121 15601 31998 00000 10252 20065 39593 40183 58011 70100 555 95000;EQDQ01  00002PRCP99
0171156010999992000061909004+42260+022760FM-12+052799999V0203601N005010150019N0500001N1+01841+00301102361ADDAY111031AY211031GF105991051011017501001001MA1999999096291MD1810031+9999MW1031REMSYN082AAXX  19091 15601 41799 53605 10184 20030 39629 40236 58003 70311 85100 555 95000;
0181156010999992000070321004+42260+022760FM-12+052799999V0209999C000012200019N0200001N1+02441+01231101351ADDAY101031AY201031GA1001+999999999GF100991001001999999001001MA1999999095471MD1310151+9999MW1021REMSYN076AAXX  03211 15601 41998 00000 10244 20123 39547 40135 53015 70200 555 95000;
0206156010999992000070903004+42260+022760FM-12+052799999V0209999C000012200019N0500001N1+01801+01021100311ADDAY101031AY201031GA1001+999999999GF100991001001999999001001KA1999M+02881MA1999999094361MD1610021+9999MW1021REMSYN088AAXX  09031 15601 41999 00000 10180 20102 39436 40031 56002 70200 555 10288 29036 95000;
0181156010999992000072809004+42260+022760FM-12+052799999V0209999C000012200019N0500001N1+02821+01221101001ADDAY101031AY201031GA1001+999999999GF100991001001999999001001MA1999999095221MD1810131+9999MW1021REMSYN076AAXX  28091 15601 41999 00000 10282 20122 39522 40100 58013 70200 555 95000;
0171156010999992000081715004+42260+022760FM-12+052799999V0203201N006010120019N0020001N1+02001+01501101581ADDAY191031AY281031GF108991081091012501999999MA1999999095621MD1310131+9999MW1971REMSYN082AAXX  17151 15601 41695 83206 10200 20150 39562 40158 53013 79798 889// 555 95090;
0196156010999992000092403004+42260+022760FM-12+052799999V0203201N003010120019N0200001N1+01081+00561102121ADDAY121031AY221031GF108991081051012501999999KA1999M+01291MA1999999095921MD1810031+9999MW1021REMSYN094AAXX  24031 15601 41698 83203 10108 20056 39592 40212 58003 70222 885// 555 10129 29074 95050;
0181156010999992000092421004+42260+022760FM-12+052799999V0209999C000012200019N0200001N1+00981+00641102461ADDAY101031AY201031GA1001+999999999GF100991001001999999001001MA1999999096221MD1110101+9999MW1011REMSYN076AAXX  24211 15601 41998 00000 10098 20064 39622 40246 51010 70100 555 95000;
0213156010999992000100203004+42260+022760FM-12+052799999V0209999C000010150019N0200001N1+01461+01281101861ADDAA124002091AY121031AY221031GF108991081031017501999999KA1999M+01791MA1999999095761MD1810181+9999MW1021REMSYN100AAXX  02031 15601 41798 80000 10146 20128 39576 40186 58018 70222 883// 555 10179 29065 60024 95000;
0268156010999992000100306004+42260+022760FM-12+052799999V0209999C000010900019N0200001N1+01241+01131101841ADDAA199000091AY111061AY211061GF105991021031017501031021GJ101509IA1019IA2999+00809KA1120N+01141MA1999999095701MD1310051+9999MW1031REMSYN110AAXX  03061 15601 31798 50000 10124 20113 39570 40184 53005 70311 82332 333 20114 50442 55025 555 30008 95000;EQDQ01  00002PRCP99
0171156010999992000101215004+42260+022760FM-12+052799999V0209999C000010360019N0200001N1+02281+01401101401ADDAY121031AY221031GF105991031011017501051011MA1999999095501MD1310031+9999MW1021REMSYN082AAXX  12151 15601 41798 50000 10228 20140 39550 40140 53003 70222 83151 555 95000;
0268156010999992000101906004+42260+022760FM-12+052799999V0209999C000019999999N0200001N1+01001+00761102281ADDAA199000091AY121061AY221061GF108991081001999999021999GJ104149IA1019IA2999+00409KA1120N+00941MA1999999096051MD1410001+9999MW1021REMSYN110AAXX  19061 15601 31998 80000 10100 20076 39605 40228 54000 70222 8802/ 333 20094 50252 55069 555 30004 95000;EQDQ01  00002PRCP99
0234156010999992000102618004+42260+022760FM-12+052799999V0209999C000012200019N0200001N1+01121+00061101821ADDAA199000091AY101061AY201061GA1001+999999999GF100991001001999999001001KA1120M+02001MA1999999095641MD1310071+9999MW1021REMSYN086AAXX  26181 15601 31998 00000 10112 20006 39564 40182 53007 70200 333 10200 555 95000;EQDQ01  00002PRCP99
0223156010999992000121903004+42260+022760FM-12+052799999V0209999C000012200019N0200001N1-00221-00381102401ADDAA124000191AY101031AY201031GA1001+999999999GF100991001001999999001001KA1999M+00131MA1999999095871MD1410001+9999MW1011REMSYN094AAXX  19031 15601 41998 00000 11022 21038 39587 40240 54000 70100 555 10013 29091 69914 95000;
0171156010999992000121921004+42260+022760FM-12+052799999V0209999C000019999999N0200001N1-00031-00301102121ADDAY111031AY211031GF108991081001999999021999MA1999999095661MD1810021+9999MW1031REMSYN082AAXX  19211 15601 41998 80000 11003 21030 39566 40212 58002 70311 8802/ 555 95000;
0246156010999992000122203004+42260+022760FM-12+052799999V0209999C000010150019N0200001N1-00281-00381102601ADDAA124000191AJ100019199999999AY171031AY271031GF108991081001017501021999IA1239KA1999M-00221MA1999999096061MD1810121+9999MW1701REMSYN110AAXX  22031 15601 41798 80000 11028 21038 39606 40260 58012 77077 8802/ 333 47001 555 11022 29077 69914 95050;
0181156010999992000122421004+42260+022760FM-12+052799999V0209999C000012200019N0040001N1-00901-01031102121ADDAY101031AY201031GA1001+999999999GF100991001001999999001001MA1999999095451MD1310031+9999MW1101REMSYN076AAXX  24211 15601 41996 00000 11090 21103 39545 40212 53003 71000 555 95090;
0171156010999992000122715004+42260+022760FM-12+052799999V0201401N003010150019N0200001N1+01061+00811100511ADDAY181031AY221031GF106991061091017501001001MA1999999094411MD1610051+9999MW1801REMSYN082AAXX  27151 15601 41798 61403 10106 20081 39441 40051 56005 78082 86900 555 95000;
0171156050999992000010309004+42930+022930FM-12+071699999V0202701N005010120019N0200001N1-00681-00821103211ADDAY121031AY221031GF105991051051012501001001MA1999999094261MD1210031+9999MW1021REMSYN082AAXX  03091 15605 41698 52705 11068 21082 39426 40321 52003 70222 85500 555 95010;
0171156050999992000011015004+42930+022930FM-12+071699999V0202701N007019999999N0200001N1-00171-00441103041ADDAY111031AY201031GF105991001001999999001011MA1999999094261MD1510001+9999MW1021REMSYN082AAXX  10151 15605 41998 52707 11017 21044 39426 40304 55000 70210 80001 555 95000;
0171156050999992000022709004+42930+022930FM-12+071699999V0202701N003010360019N0280001N1+00111-00381103231ADDAY121031AY221031GF107991021051017501031001MA1999999094471MD1310041+9999MW1021REMSYN082AAXX  27091 15605 41778 72703 10011 21038 39447 40323 53004 70222 82530 555 95000;
0171156050999992000040821004+42930+022930FM-12+071699999V0202701N005010120019N0200001N1+00181+00001101981ADDAY121031AY221031GF107991071031012501001001MA1999999093391MD1110071+9999MW1021REMSYN082AAXX  08211 15605 41698 72705 10018 20000 39339 40198 51007 70222 87300 555 95010;
0206156050999992000041803004+42930+022930FM-12+071699999V0200501N003012200019N0200001N1+00881+00061100701ADDAY101031AY201031GA1001+999999999GF100991001001999999001001KA1999M+01681MA1999999092451MD1710081+9999MW1021REMSYN088AAXX  18031 15605 41998 00503 10088 20006 39245 40070 57008 70200 555 10168 29052 95000;
0213156050999992000050103004+42930+022930FM-12+071699999V0200501N003010360019N0200001N1+01201+00941101661ADDAA124000291AY121031AY221031GF107991031031012501031001KA1999M+01421MA1999999093411MD1710111+9999MW1021REMSYN100AAXX  01031 15605 41698 70503 10120 20094 39341 40166 57011 70222 83330 555 10142 29073 69924 95000;
0242156050999992000100203004+42920+022930FM-12+071699999V0200501N007012200019N0200001N1+01201+00771102001ADDAA124999999AY111031AY211031GA1001+999999999GF100991001001999999001001KA1999M+01431MA1999999093721MD1810171+9999MW1011REMSYN094AAXX  02031 15605 41998 00507 10120 20077 39372 40200 58017 70111 555 10143 29067 69904 95000;EQDQ01  99992PRCP24
0171156050999992000100621004+42920+022930FM-12+071699999V0200501N003010120019N0200001N1+01321+00891101621ADDAY121031AY221031GF108991081031012501999999MA1999999093401MD1810011+9999MW1021REMSYN082AAXX  06211 15605 41698 80503 10132 20089 39340 40162 58001 70222 883// 555 95000;
0171156050999992000102515004+42920+022930FM-12+071699999V0202701N003019999999N0500001N1+01601-00191101851ADDAY111031AY211031GF107991001001999999001061MA1999999093691MD1610051+9999MW1021REMSYN082AAXX  25151 15605 41999 72703 10160 21019 39369 40185 56005 70211 80006 555 95000;
0234156050999992000110318004+42920+022930FM-12+071699999V0209999C000012200019N0200001N1+01001+00041101761ADDAA199000091AY101061AY201061GA1001+999999999GF100991001001999999001001KA1120M+01691MA1999999093451MD1310071+9999MW1011REMSYN086AAXX  03181 15605 31998 00000 10100 20004 39345 40176 53007 70100 333 10169 555 95000;EQDQ01  00002PRCP99
0224156050999992000110418004+42920+022930FM-12+071699999V0200501N005019999999N0200001N1+01281+00641101821ADDAA199000091AY121061AY221061GF106991061001999999031001KA1120M+01661MA1999999093581MD1310051+9999MW1021REMSYN092AAXX  04181 15605 31998 60505 10128 20064 39358 40182 53005 70222 86030 333 10166 555 95000;EQDQ01  00002PRCP99
0206156050999992000120903004+42920+022930FM-12+071699999V0200501N003010003019N0005001N1-00081-00191102891ADDAY141031AY241031GA1091+999999999GF109991091999999999999999KA1999M-00051MA1999999094161MD1810051+9999MW1431REMSYN088AAXX  09031 15605 41/93 90503 11008 21019 39416 40289 58005 74344 555 11005 29090 95090;
0242156050999992000121006004+42920+022930FM-12+071699999V0209999C000019999999N0200001N1-00221-00381102741ADDAA199000091AY121061AY221061GF107991071001999999031001IA1019KA1120N-00541MA1999999093961MD1710021+9999MW1021REMSYN104AAXX  10061 15605 31998 70000 11022 21038 39396 40274 57002 70222 87030 333 21054 555 30/// 92600 95000;EQDQ01  00002PRCP99
0171156050999992000121715004+42920+022930FM-12+071699999V0202701N001012200019N0200001N1+00431-00331101991ADDAY101031AY201031GF102991011041017501001021MA1999999093481MD1310061+9999MW1021REMSYN082AAXX  17151 15605 41798 22701 10043 21033 39348 40199 53006 70200 81402 555 95000;
0229156050999992000122203004+42920+022930FM-12+071699999V0200501N003010120019N0100001N1-00481-00711102711ADDAJ100019199999999AY171031AY271031GF108991081001012501021999IA1239KA1999M-00401MD1710101+9999MW1711REMSYN100AAXX  22031 15605 41697 80503 11048 21071 34387 40271 57010 77177 8802/ 555 11040 29077 47001 95010;EQDQ01+043871APOSP 
0196156050999992000123000004+42920+022930FM-12+071699999V0200501N005010120019N0200001N1+00481+00291100001ADDAY121061AY221061GF106991061051012501001001KA1999M+00751MA1999999091691MD1710081+9999MW1021REMSYN094AAXX  30001 15605 41698 60505 10048 20029 39169 40000 57008 70222 86500 555 10075 29072 95010;
0234156130999992000020109004+42580+023270FM-12+229299999V0203201N024010001519N0000001N1-00521-00571999999ADDAY141031AY241031GA1091+999999999GF109991091999999999999999MA1999999077381MD1310031+9999ME1430829MW1491OA149904001OA259902401REMSYN098AAXX  01091 15613 41/90 93224 11052 21057 37738 47082 53003 74944 333 91140 91224 91532 555 92710;
0190156130999992000022321004+42580+023270FM-12+229299999V0202301N006010001519N0001001N1-01421-01571999999ADDAY171031AY271031GA1091+999999999GF109991091999999999999999MA1999999076701MD1410001+9999ME1429879MW1711REMSYN076AAXX  23211 15613 41/91 92306 11142 21157 37670 47987 54000 77177 555 92717;
0202156130999992000022615004+42580+023270FM-12+229299999V0203201N012010001519N0001001N1-01021-01121999999ADDAY141031AY241031GA1091+999999999GF109991091999999999999999MA1999999077251MD1210021+9999ME1430539MW1491REMSYN088AAXX  26151 15613 41/91 93212 11102 21112 37725 47053 52002 74944 555 92727 95199 96041;
0196156130999992000022909004+42580+023270FM-12+229299999V0200701N006012200019N0500001N1-01041-03541999999ADDAY101031AY201031GA1001+999999999GF100991001001999999001001MA1999999077391MD1310011+9999ME1430669MW1021REMSYN082AAXX  29091 15613 41999 00706 11104 21354 37739 47066 53001 70200 555 95120 95150;
0196156130999992000031609004+42580+023270FM-12+229299999V0209999C000019999999N0500001N1-01301-01441999999ADDAY141031AY221031GA1091+999999999GF109991091999999999999999MA1999999076151MD1710231+9999ME1429309MW1011REMSYN082AAXX  16091 15613 41299 90000 11130 21144 37615 47930 57023 70142 885// 555 95160;
0240156130999992000040821004+42580+023270FM-12+229299999V0202901N014010001519N0001001N1-00981-01081999999ADDAY141031AY241031GA1091+999999999GF109991091999999999999999MA1999999076401MD1810021+9999ME1429679MW1491OA149901601OA259901401REMSYN104AAXX  08211 15613 41/91 92914 11098 21108 37640 47967 58002 74944 333 91116 91214 91529 555 92711 95190;
0209156130999992000042303004+42580+023270FM-12+229299999V0203201N010010001519N0000001N1+00121+99999999999ADDAY151031AY241031GA1091+999999999GF109991091999999999999999KA1999M+00161MA1999999076881MD1710031+9999ME1430489MW1451REMSYN082AAXX  23031 15613 41/90 93210 10012 20013 37688 47048 57003 74554 555 10016 95190;
0209156130999992000051803004+42580+023270FM-12+229299999V0209999C000012200019N0500001N1+00431-00331999999ADDAY101031AY201031GA1001+999999999GF100991001001999999001001KA1999M+00541MA1999999077271MD1610081+9999ME1430959MW1021REMSYN082AAXX  18031 15613 41999 00000 10043 21033 37727 47095 56008 70200 555 10054 95100;
0180156130999992000060709004+42580+023270FM-12+229299999V0202701N002012200019N0200001N1+01121+00591999999ADDAY101031AY201031GF102991021021004501001001MA1999999077581MD1310121+9999ME1431519MW1031REMSYN082AAXX  07091 15613 41498 22702 10112 20059 37758 47151 53012 70300 82200 555 95110;
0190156130999992000070521004+42570+023260FM-12+229299999V0202501N028012200019N0200001N1+01751-00301999999ADDAY101031AY201031GA1001+999999999GF100991001001999999001001MA1999999077921MD1710081+9999ME1432039MW1021REMSYN076AAXX  05211 15613 41998 02528 10175 21030 37792 47203 57008 70200 555 95100;
0180156130999992000072315004+42570+023260FM-12+229299999V0202901N010012200019N0200001N1+01041+00251999999ADDAY111031AY211031GF102991021021004501001001MA1999999077821MD1210031+9999ME1431719MW1011REMSYN082AAXX  23151 15613 41498 22910 10104 20025 37782 47171 52003 70111 82200 555 95100;
0190156130999992000081321004+42570+023260FM-12+229299999V0201101N004012200019N0500001N1+01081+00361999999ADDAY101031AY201031GA1001+999999999GF100991001001999999001001MA1999999078131MD1210081+9999ME1432109MW1021REMSYN076AAXX  13211 15613 41999 01104 10108 20036 37813 47210 52008 70200 555 95100;
0210156130999992000092612004+42570+023260FM-12+229299999V0203201N002010012019N0500001N1+00001-00101999999ADDAA199000091AY121061AY211061GF106991061041001501001001MA1999999077681MD1810011+9999ME1431289MW1021REMSYN082AAXX  26121 15613 31299 63202 10000 21010 37768 47128 58001 70221 86400 555 95110;EQDQ01  00002PRCP99
0220156130999992000110112004+42570+023260FM-12+229299999V0202001N008010001519N0001001N1+00421+00321999999ADDAA199000091AY141061AY241061GA1091+999999999GF109991091999999999999999MA1999999077231MD1710111+9999ME1430939MW1411REMSYN076AAXX  01121 15613 31/91 92008 10042 20032 37723 47093 57011 74144 555 95199;EQDQ01  00002PRCP99
0228156130999992000120103004+42570+023260FM-12+229299999V0200501N002012200019N0500001N1+00361-00711999999ADDAY101031AY201031GA1001+999999999GF100991001001999999001001KA1999M+99999MA1999999077761MD1210021+9999ME1431609MW1021REMSYN082AAXX  01031 15613 41999 00502 10036 21071 37776 47160 52002 70200 555 10022 95120;EQDQ01 +00222ATMX  
0244156130999992000120312004+42570+023260FM-12+229299999V0209999C000012200019N0500001N1+00581-00571999999ADDAA199000091AJ100019199999999AY101061AY201061GF102991001001999999001011IA1289MD1810091+9999ME1431419MW1021REMSYN092AAXX  03121 15613 31999 20000 10058 21057 38009 47141 58009 70200 80001 333 44001 555 95110;EQDQ01+080093APOSP Q02  00002PRCP99
0291156130999992000122815004+42570+023260FM-12+229299999V0201801N999990001519N0001001N1-00071-00121999999ADDAY171031AY241031GA1091+999999999GF109991091999999999999999MA1999999075501MD1310221+9999ME1428989MW1491OA149999999OA259999999REMSYN104AAXX  28151 15613 41/91 91888 11007 21012 37550 47898 53022 74974 333 91188 91288 91518 555 92707 96037;EQDQ01+008803WOSPD Q02  08802WGOSPDQ03  08802WGOSPD
0179156140999992000010316004+42650+023380FM-15+0595LBSF V0202801N006010600019N0080001N1-00501-00801999999ADDGA1021+007209999GA2071+060009999GF107991999999999999999999MA1102511999999MW1001REMMET069LBSF 1600Z 28006MPS 8000 FEW024 BKN200 M05/M08 Q1025 NOSIG 09//// 95;EQDQ01+000000PRSWM2
0146156140999992000010514004+42650+023380FM-15+0595LBSF V0202801N007010048019N0080001N1+00001-00201999999ADDGA1081+004809999GF108991999999999999999999MA1102001999999MW1001REMMET052LBSF 1400Z 28007MPS 8000 OVC016 M00/M02 Q1020 NOSIG;EQDQ01+000000PRSWM2
0165156140999992000011504004+42650+023380FM-15+0595LBSF V0202601N001012200019N0020001N1-00801-00901999999ADDGA1021+005709999GF104991999999999999999999MA1102711999999MW1101REMMET055LBSF 0400Z 26001MPS 2000 BR SCT019 M08/M09 Q1027 NOSIG;EQDQ01+000003PRSWM1Q02    003PRSWM1
0348156140999992000011703004+42650+023380SY-MT+059599999V0202701N00201006001CN0040001N1-00421-00781102501ADDAJ100159199999999AY121031AY221031GA1081+006009999GF108991081051012501999999IA1289KA1999M+99999MA1102001095101MD1710161+9999MW1101MW2711REMSYN104    AAXX  17031 15614 41696 82702 11042 21078 39510 40250 57016 71022 885// 555 11049 29081 44015 95080;MET056LBSF 0300Z 29007MPS 8000 -SN OVC020 M04/M07 Q1020 NOSIG;EQDQ01    003PRSWM1Q02 -00492ATMX  
0331156140999992000011800004+42650+023380SY-MT+059599999V0203401N00201009901CN0040001N1-00211-00501100171ADDAA106000791AJ100159199999999AY171061AY221061GA1081+009909999GF108991081051012501999999IA1289MA1099801092991MD1710431+9999MW1711MW2731REMSYN098    AAXX  18001 15614 11696 83402 11021 21050 39299 40017 57043 69901 77172 885// 333 44015 95010;MET063LBSF 0000Z 33007MPS 5000 SN OVC033 M03/M05 Q0998 TEMPO 2500 SN;EQDQ01    003PRSWM1
0167156140999992000012003004+42650+023380FM-15+0595LBSF V0202901N011012200019N0030001N1-00601-01001999999ADDGA1021+014409999GF102991999999999999999999MA1101391999999MW1361REMMET057LBSF 0300Z 29011MPS 3000 DRSN FEW048 M06/M10 Q1014 NOSIG;EQDQ01+000003PRSWM1Q02    003PRSWM1
0146156140999992000012101004+42650+023380FM-15+0595LBSF V0202801N007012200019N0112651N1-00501-01201999999ADDGA1021+009909999GF102991999999999999999999MA1101691999999MW1001REMMET052LBSF 0100Z 28007MPS 9999 FEW033 M05/M12 Q1017 NOSIG;EQDQ01+000000PRSWM2
0156156140999992000012114004+42650+023380FM-15+0595LBSF V0202701N008010126019N0112651N1+00201-00501999999ADDGA1071+012609999GF107991999999999999999999MA1100611999999MW1001REMMET062LBSF 1400Z 27008MPS 240V300 9999 BKN042 02/M05 Q1006 TEMPO SN;EQDQ01+000000PRSWM2
0155156140999992000012317004+42650+023380FM-15+0595LBSF V0201101N008010150019N0080001N1-00501-00801999999ADDGA1071+015009999GF107991999999999999999999MA1100311999999MW1001REMMET061LBSF 1700Z 11008MPS 8000 BKN055 M05/M08 Q1003 NOSIG 09////95;EQDQ01+000000PRSWM2
0125156140999992000020213004+42650+023380FM-15+0595LBSF V02099999999992200019N0080001N1+00701+00301999999ADDGF100991999999999999999999MA1101901999999MW1001REMMET047LBSF 1300Z VRB01MPS 8000 SKC 07/03 Q1019 NOSIG;EQDQ01+000000PRSWM2
0144156140999992000020316004+42650+023380FM-15+0595LBSF V0202701N008010084019N0080001N1+00501+00201999999ADDGA1081+008409999GF108991999999999999999999MA1102001999999MW1001REMMET050LBSF 1600Z 27008MPS 8000 OVC028 05/02 Q1020 NOSIG;EQDQ01+000000PRSWM2
0357156140999992000020815004+42650+023380SY-MT+0595LBSF V0209999C000012200019N0020001N1+00361+00271101961ADDAY111031AY211031GA1091+000159999GF109991091001000151001011MA1101691094801MD1710161+9999MW1101MW2451REMSYN082AAXX  08151 15614 41995 20000 10036 20027 39480 40196 57016 71011 80001 555 95097;MET091LBSF 1500Z VRB01MPS 0100 R09/0400V0550N R27/0250N FG VV000 02/02 Q1017 TEMPO 0300 FG VV001;EQDQ01+000022SCOTCVQ02+000002SCOTLCQ03+000012SCOHCGQ04    003PRSWM1
0163156140999992000021020004+42650+023380FM-15+0595LBSF V0209999C000010069019N0040001N1+00301+00201999999ADDGA1081+006909999GF108991999999999999999999MA1102301999999MW1101REMMET053LBSF 2000Z 00000MPS 4000 BR OVC023 03/02 Q1023 NOSIG;EQDQ01+000003PRSWM1Q02    003PRSWM1
0181156140999992000021201304+42650+023380FM-15+0595LBSF V0202901N001010054019N0023001N1+00401+00301999999ADDGA1081+005409999GF108991999999999999999999MA1102401999999MW1101MW2511REMMET065LBSF 0230Z 29001MPS 2300 -DZ BR OVC018 04/03 Q1024 TEMPO 1500 BR;EQDQ01+000003PRSWM1Q02    003PRSWM1
0186156140999992000021304004+42650+023380FM-15+0595LBSF V0201001N004010057019N0040001N1+00301+00201999999ADDGA1021+002709999GA2081+005709999GF108991999999999999999999MA1102001999999MW1101REMMET060LBSF 0400Z 10004MPS 4000 BR SCT009 OVC019 03/02 Q1020 NOSIG;EQDQ01+000003PRSWM1Q02    003PRSWM1
0200156140999992000021407004+42650+023380FM-15+0595LBSF V02099999999990001519N0001501N1-00101-00101999999ADDGA1091+000159999GF109991999999000251999999MA1101691999999MW1491REMMET090LBSF 0700Z VRB01MPS 0150 R09/0275V0500N R27/0275N FZFG VV000 M01/M01 Q1017 NOSIG 092///95;EQDQ01+000003PRSWM1Q02    003PRSWM1
0206156140999992000021408004+42650+023380FM-15+0595LBSF V02099999999990001519N0001001N1-00101-00101999999ADDGA1091+000159999GF109991999999000251999999MA1101801999999MW1491REMMET096LBSF 0800Z VRB02MPS 0100 R09/0250V0450N R27/0650V1300N FZFG VV000 M01/M01 Q1018 TEMPO 0350 BCFG;EQDQ01+000003PRSWM1Q02    003PRSWM1
0168156140999992000021513004+42650+023380FM-15+0595LBSF V0202801N008010180019N0112651N1+00201-00401999999ADDGA1021+008409999GA2071+018009999GF107991999999999999999999MA1101801999999MW1001REMMET058LBSF 1300Z 28008MPS 9999 FEW028 BKN060 02/M04 Q1018 NOSIG;EQDQ01+000000PRSWM2
0167156140999992000021720004+42650+023380FM-15+0595LBSF V0202801N003010054019N0060001N1+00301+00201999999ADDGA1021+002109999GA2081+005409999GF108991999999999999999999MA1099901999999MW1001REMMET057LBSF 2000Z 28003MPS 6000 SCT007 OVC018 03/02 Q0999 NOSIG;EQDQ01+000000PRSWM2
0317156140999992000021912004+42650+023380SY-MT+0595LBSF V0209999C000012200019N0200001N1+00211-00441101351ADDAA199000091AJ100159199999999AY101061AY201061GF103991021001999999041011IA1289MA1101081094211MD1210021+9999MW1031REMSYN092AAXX  19121 15614 31998 30000 10021 21044 39421 40135 52002 70300 82041 333 44015 555 95007;MET045LBSF 1200Z VRB01MPS CAVOK 01/M08 Q1011 NOSIG;EQDQ01+000000PRSWM2Q02  00002PRCP99Q03    003PRSWM1
0219156140999992000022011004+42650+023380FM-15+0595LBSF V02099999999990300019N0035001N1+00101+00001999999ADDGA1021+008109999GA2021+010209999GA3081+030009999GF108991999999999999999999MA1100811999999MW1101REMMET077LBSF 1100Z VRB01MPS 3500 BR FEW027 SCT034 OVC100 01/00 Q1008 TEMPO 1200 RASN;EQDQ01+000003PRSWM1Q02    003PRSWM1
0155156140999992000022105004+42650+023380FM-15+0595LBSF V0202701N003010081019N0070001N1-00101-00101999999ADDGA1081+008109999GF108991999999999999999999MA1101191999999MW1001REMMET061LBSF 0500Z 27003MPS 7000 OVC027 M01/M01 Q1012 NOSIG 0929//95;EQDQ01+000000PRSWM2
0335156140999992000022309004+42650+023380SY-MT+0595LBSF V0209999C00001018001CN0040001N1+00201-00741102721ADDAY181031AY271031GA1021+003909999GA2021+006009999GA3081+018009999GF199999071031012501001001MA1102401095351MD1210061+9999MW1101MW2261REMSYN082AAXX  23091 15614 41696 70000 10020 21074 39535 40272 52006 72687 87300 555 95080;MET069LBSF 0900Z VRB01MPS 5000 BR FEW013 SCT020 OVC065 M02/M05 Q1024 NOSIG;EQDQ01+000072SCOTCVQ02    003PRSWM1
0372156140999992000022906004+42650+023380SY-MT+0595LBSF V0209999C00001220001CN0200001N1-00411-00671103591ADDAA199000091AJ100029199999999AY101061AY201061GF100991001001999999001001GJ102889IA2999-00809KA1120N-00481MA1103181096111MD1710021+9999MW1021REMSYN110AAXX  29061 15614 31998 00000 11041 21067 39611 40359 57002 70200 333 21048 42002 55048 555 3/108 92601 95000;MET055LBSF 0600Z VRB01MPS CAVOK M05/M06 Q1032 NOSIG 09////95;EQDQ01+000000PRSWM2Q02  00002PRCP99Q03    003PRSWM1
0105156140999992000030613004+42650+023380FM-15+0595LBSF V0203501N00401220001CN0099001N1+00201-01201999999ADDMA1102911999999MW1001REMMET053LBSF 1300Z 35004MPS 300V020 CAVOK 02/M12 Q1029 NOSIG;EQDQ01+000000PRSWM2
0153156140999992000031020004+42650+023380FM-15+0595LBSF V0202801N009012200019N0112651N1+00601-00101999999ADDGA1021+018009999GF102991999999999999999999MA1101801999999MW1001REMMET059LBSF 2000Z 28009MPS 250V310 9999 FEW065 06/M01 Q1018 NOSIG;EQDQ01+000000PRSWM2
0283156140999992000031203004+42650+023380SY-MT+0595LBSF V0209999C000012200019N0200001N1+00341-00271101551ADDAY101031AY201031GF102991021001999999041001KA1999M+00511MA1101291094421MD1510061+9999MW1021REMSYN094AAXX  12031 15614 41998 20000 10034 21027 39442 40155 55006 70200 82040 555 10051 29042 95000;MET046LBSF 0300Z VRB01MPS CAVOK M00/M03 Q1013 NOSIG;EQDQ01+000000PRSWM2Q02    003PRSWM1
0200156140999992000031816004+42650+023380FM-15+0595LBSF V0203001N008010210019N0112651N1+00001-00701999999ADDGA1021+006909999GA2021+011409999GA3071+021009999GF107991999999999999999999MA1101191999999MW1001REMMET074LBSF 1600Z 30008MPS 280V340 9999 FEW023 SCT038 BKN070 M00/M07 Q1012 NOSIG;EQDQ01+000000PRSWM2
0197156140999992000032107004+42650+023380FM-15+0595LBSF V0202801N006010048019N0060001N1+00001-00401999999ADDGA1071+004809999GA2081+010809999GF108991999999999999999999MA1101591999999MW1711REMMET071LBSF 0700Z 28006MPS 240V310 6000 -SN BKN016 OVC036 M00/M04 Q1016 NOSIG;EQDQ01+000003PRSWM1Q02    003PRSWM1
0105156140999992000032314004+42650+023380FM-15+0595LBSF V0202801N00301220001CN0099001N1+01501-00901999999ADDMA1101491999999MW1001REMMET053LBSF 1400Z 28003MPS 190V350 CAVOK 15/M09 Q1015 NOSIG;EQDQ01+000000PRSWM2
0096156140999992000040302004+42650+023380FM-15+0595LBSF V0209999C00001220001CN0099001N1+00401+00201999999ADDMA1101291999999MW1001REMMET044LBSF 0200Z 00000MPS CAVOK 04/02 Q1013 NOSIG;EQDQ01+000000PRSWM2
0318156140999992000040400004+42650+023380SY-MT+0595LBSF V0200901N002010150019N0200001N1+01291+00591100651ADDAA106000791AY181061AY221061GA1021+018009999GA2021+030009999GF106991061081012501001001MA1100611093821MD1710111+9999MW1011REMSYN088AAXX  04001 15614 11698 60902 10129 20059 39382 40065 57011 69901 70182 86800 555 95000;MET057LBSF 0000Z 10005MPS 9999 SCT068 SCT100 12/05 Q1006 NOSIG;EQDQ01+000000PRSWM2Q02    003PRSWM1
0400156140999992000040406004+42650+023380SY-MT+0595LBSF V0200501N00201027001CN0200001N1+01081+00701100681ADDAA112000791AY181061AY221061GA1021+013509999GA2081+027009999GF108991081091012501999999GJ103189IA1019IA2999-00709KA1120N+01051MA1100611093801MD1310031+9999MW1611MW2801REMSYN110AAXX  04061 15614 11698 80502 10108 20070 39380 40068 53003 69902 78082 889// 333 20105 55053 555 30107 95050;MET088LBSF 0600Z 06003MPS 010V120 9999 -RA SCT045 OVC090 11/08 Q1006 WS ALL RWY TEMPO 6000 RA;EQDQ01    003PRSWM1
0217156140999992000040414004+42650+023380FM-15+0595LBSF V0202101N006012200019N0050001N1+02301+00601999999ADDGA1021+015009999GA2021+024009999GF104991999999999999999999MA1100611999999MW1061REMMET091LBSF 1400Z 21006MPS 160V290 5000 DU FEW050 SCT080 23/06 Q1006 WS ALL RWY TEMPO 22007G13MPS;EQDQ01+000003PRSWM1Q02    003PRSWM1
0314156140999992000040600004+42650+023380SY-MT+0595LBSF V0202501N007012200019N0200001N1+01281+00111100411ADDAA199000021AY121061AY211061GF101991011011017501001001MA1100511093591MD1210021+9999MW1011OA149901501OC101201REMSYN098AAXX  06001 15614 31798 12507 10128 20011 39359 40041 52002 70121 81100 333 91115 91525 555 95000;MET056LBSF 0000Z 25007G12MPS 210V300 CAVOK 13/M01 Q1005 NOSIG;EQDQ01+000000PRSWM2Q02    003PRSWM1
0104156140999992000041411004+42650+023380FM-15+0595LBSF V0203201N00401220001CN0099001N1+02001+00101999999ADDMA1101081999999MW1001REMMET052LBSF 1100Z 32004MPS 270V350 CAVOK 20/01 Q1011 NOSIG;EQDQ01+000000PRSWM2
0198156140999992000041510004+42650+023380FM-15+0595LBSF V0203501N003010600019N0112651N1+02001+00301999999ADDGA1021+015009999GA2021+024009999GA3071+060009999GF107991999999999999999999MA1101191999999MW1001REMMET072LBSF 1000Z 35003MPS 300V030 9999 FEW053 SCT080 BKN200 20/03 Q1012 NOSIG;EQDQ01+000000PRSWM2
0097156140999992000041801004+42650+023380FM-15+0595LBSF V0200901N00401220001CN0099001N1+01101-00101999999ADDMA1100711999999MW1001REMMET045LBSF 0100Z 09004MPS CAVOK 11/M01 Q1007 NOSIG;EQDQ01+000000PRSWM2
0192156140999992000042020004+42650+023380FM-15+0595LBSF V02099999999990150019N0112651N1+01201+01001999999ADDGA1021+008409999GA2021+010509999GA3071+015009999GF107991999999999999999999MA1100911999999MW1001REMMET066LBSF 202000Z VRB02MPS 9999 FEW028 SCT035 BKN050 12/10 Q1009 NOSIG;EQDQ01+000000PRSWM2
0353156140999992000042503004+42650+023380SY-MT+0595LBSF V0209999C000010240019N0100001N1+01171+00891100871ADDAA124004091AY121031AY221031GA1021+015009999GA2071+024009999GF106991999999012501999999KA1999M+01651MA1100911094001MD1410001+9999MW1021REMSYN100AAXX  25031 15614 41697 60000 10117 20089 39400 40087 54000 70222 96900 555 10165 29067 60044 95030;MET067LBSF 250300Z 10003MPS 080V140 9999 FEW056 BKN080 12/11 Q1009 NOSIG;EQDQ01+000000PRSWM2Q02    003PRSWM1
0146156140999992000043001004+42650+023380FM-15+0595LBSF V02099999999992200019N0112651N1+01301+01101999999ADDGA1021+018009999GF102991999999999999999999MA1102001999999MW1001REMMET052LBSF 300100Z VRB02MPS 9999 FEW060 13/11 Q1020 NOSIG;EQDQ01+000000PRSWM2
0098156140999992000043023004+42650+023380FM-15+0595LBSF V0201101N00401220001CN0099001N1+01201+01101999999ADDMA1101801999999MW1001REMMET046LBSF 302300Z 11004MPS CAVOK 12/11 Q1018 NOSIG;EQDQ01+000000PRSWM2
0098156140999992000050107004+42650+023380FM-15+0595LBSF V0200901N00401220001CN0099001N1+01601+01101999999ADDMA1101591999999MW1001REMMET046LBSF 010700Z 09004MPS CAVOK 16/11 Q1016 NOSIG;EQDQ01+000000PRSWM2
0342156140999992000050300004+42650+023380SY-MT+0595LBSF V0201601N00201010501CN0100001N1+00801+00561101961ADDAA106001091AY181061AY221061GA1021+007809999GA2081+010509999GF199999071091012501001001MA1101901094921MD1210291+9999MW1251REMSYN094AAXX  03001 15614 11697 71602 10080 20056 39492 40196 52029 60011 72582 87900 555 70070 95050;MET059LBSF 030000Z 09005MPS 9999 FEW026 OVC035 08/06 Q1019 NOSIG;EQDQ01+000072SCOTCVQ02+000000PRSWM2Q03    003PRSWM1
0098156140999992000050719004+42650+023380FM-15+0595LBSF V0202001N00101220001CN0099001N1+01701+00801999999ADDMA1102101999999MW1001REMMET046LBSF 071900Z 20001MPS CAVOK 17/08 Q1021 NOSIG;EQDQ01+000000PRSWM2
0183156140999992000051116004+42650+023380FM-15+0595LBSF V0202501N005012200019N0112651N1+02401+01001999999ADDGA1021+015009999GA2021+030009999GF104991999999999999999999MA1101491999999MW1001REMMET073LBSF 111600Z 25005MPS 9999 FEW050 SCT100 24/10 Q1015 TEMPO TSRA SCT040CB;EQDQ01+000000PRSWM2
0303156140999992000051415004+42650+023380SY-MT+0595LBSF V0200901N002010120019N0040001N1+01851+01171101951ADDAY121031AY221031GA1021+009609999GA2021+014409999GF106991061031012501061001MA1102101095161MD1710131+9999MW1051REMSYN082AAXX  14151 15614 41696 60902 10185 20117 39516 40195 57013 70522 86360 555 95050;MET059LBSF 141500Z VRB02MPS 9999 FEW032 SCT048 18/11 Q1021 NOSIG;EQDQ01+000000PRSWM2Q02    003PRSWM1
0154156140999992000052110004+42650+023380FM-15+0595LBSF V0203101N008012200019N0112651N1+01901+00801999999ADDGA1021+013809999GF104991999999999999999999MA1101291999999MW1001REMMET060LBSF 211000Z 31008MPS 280V340 9999 SCT046 19/08 Q1013 NOSIG;EQDQ01+000000PRSWM2
0258156140999992000060321004+42650+023380SY-MT+0595LBSF V0201401N003012200019N0200001N1+01431+00811102181ADDAY101031AY201031GF102991021001999999031001MA1102301095291MD1310061+9999MW1021REMSYN082AAXX  03211 15614 41998 21403 10143 20081 39529 40218 53006 70200 82030 555 95010;MET046LBSF 032100Z VRB01MPS CAVOK 13/09 Q1023 NOSIG;EQDQ01+000000PRSWM2Q02    003PRSWM1
0106156140999992000061116004+42650+023380FM-15+0595LBSF V0201101N00401220001CN0099001N1+02501+01001999999ADDMA1102101999999MW1001REMMET054LBSF 111600Z 11004MPS 080V170 CAVOK 25/10 Q1021 NOSIG;EQDQ01+000000PRSWM2
0098156140999992000062023004+42650+023380FM-15+0595LBSF V0209999999999220001CN0099001N1+01301+00701999999ADDMA1102101999999MW1001REMMET046LBSF 202300Z VRB02MPS CAVOK 13/07 Q1021 NOSIG;EQDQ01+000000PRSWM2
0293156140999992000062112004+42650+023380SY-MT+0595LBSF V0203201N002012200019N0200001N1+02621+00931101491ADDAA199000091AY101061AY201061GF101991011011017501001001MA1101801094911MD1710141+9999MW1021REMSYN082AAXX  21121 15614 31798 13202 10262 20093 39491 40149 57014 70200 81100 555 95000;MET054LBSF 211200Z 30003MPS 240V020 CAVOK 28/01 Q1018 NOSIG;EQDQ01+000000PRSWM2Q02  00002PRCP99Q03    003PRSWM1
0098156140999992000062302004+42650+023380FM-15+0595LBSF V0209999C00001220001CN0099001N1+01501+01101999999ADDMA1101801999999MW1001REMMET046LBSF 230200Z 00000MPS CAVOK 15/11 Q1018 NOSIG;EQDQ01+000000PRSWM2
0377156140999992000062712004+42650+023380SY-MT+0595LBSF V0200201N00201027001CN0200001N1+02081+00781101441ADDAA199000091AY111061AY211061GA1021+018009999GA2021+024009999GA3071+027009999GF199999061031012501001001MA1101591094721MD1810061+9999MW1031REMSYN082AAXX  27121 15614 31698 60202 10208 20078 39472 40144 58006 70311 86300 555 95001;MET074LBSF 271200Z 05003MPS 360V090 9999 FEW060 SCT083 BKN090 21/07 Q1016 NOSIG;EQDQ01+000062SCOTCVQ02+000000PRSWM2Q03  00002PRCP99Q04    003PRSWM1
0117156140999992000070311004+42650+023380FM-15+0595LBSF V0202501N00301220001CN0099001N1+03301+00501999999ADDMA1101691999999MW1001OC100801REMMET057LBSF 031100Z 25003G08MPS 160V320 CAVOK 33/05 Q1017 NOSIG;EQDQ01+000000PRSWM2
0123156140999992000070813004+42650+023380FM-15+0595LBSF V0202301N00801220001CN0099001N1+03801-00402999999ADDMA1100511999999MW1001REMMET055LBSF 081300Z 23008MPS 180V270 CAVOK 38/M04 Q1005 NOSIG;EQDQ01-000403ATOD  Q02+000000PRSWM2
0383156140999992000070918004+42650+023380SY-MT+0595LBSF V0202701N007010150019N0200001N1+01581+00861100751ADDAA199000091AY111061AY211061GA1021+012009999GA2021+030009999GF106991051081012501041001KA1120M+03521MA1100811093941MD1210431+9999MW1031OC101401REMSYN092AAXX  09181 15614 31698 62707 10158 20086 39394 40075 52043 70311 85840 333 10352 555 95051;MET081LBSF 091800Z 27009G14MPS 210V310 9999 FEW040 SCT100 16/10 Q1008 WS ALL RWY NOSIG;EQDQ01+000000PRSWM2Q02  00002PRCP99Q03    003PRSWM1
0311156140999992000071609004+42650+023380SY-MT+0595LBSF V0203601N002010360019N0200001N1+02021+01281100581ADDAY121031AY221031GA1021+007809999GA2021+018009999GF105991031021012501091001MA1100811093931MD1210101+9999MW1011REMSYN082AAXX  16091 15614 41698 53602 10202 20128 39393 40058 52010 70122 83290 555 95010;MET067LBSF 160900Z 31004MPS 270V020 9999 FEW026 SCT060 20/12 Q1008 NOSIG;EQDQ01+000000PRSWM2Q02    003PRSWM1
0098156140999992000072419004+42650+023380FM-15+0595LBSF V0202001N00201220001CN0099001N1+02601+01301999999ADDMA1101591999999MW1001REMMET046LBSF 241900Z 20002MPS CAVOK 26/13 Q1016 NOSIG;EQDQ01+000000PRSWM2
0098156140999992000080304004+42650+023380FM-15+0595LBSF V0209999C00001220001CN0099001N1+01201+00801999999ADDMA1102301999999MW1001REMMET046LBSF 030400Z 00000MPS CAVOK 12/08 Q1023 NOSIG;EQDQ01+000000PRSWM2
0098156140999992000081122004+42650+023380FM-15+0595LBSF V0200901N00401220001CN0099001N1+01901+01001999999ADDMA1101591999999MW1001REMMET046LBSF 112200Z 09004MPS CAVOK 19/10 Q1016 NOSIG;EQDQ01+000000PRSWM2
0098156140999992000081319004+42650+023380FM-15+0595LBSF V0209999999999220001CN0099001N1+02401+00901999999ADDMA1102001999999MW1001REMMET046LBSF 131900Z VRB02MPS CAVOK 24/09 Q1020 NOSIG;EQDQ01+000000PRSWM2
0098156140999992000082111004+42650+023380FM-15+0595LBSF V0209999999999220001CN0099001N1+03301+00801999999ADDMA1101801999999MW1001REMMET046LBSF 211100Z VRB02MPS CAVOK 33/08 Q1018 NOSIG;EQDQ01+000000PRSWM2
0277156140999992000082303004+42650+023380SY-MT+0595LBSF V0201401N00101220001CN0200001N1+01681+01051101781ADDAY101031AY201031GF100991001001999999001001KA1999M+02601MA1101901094961MD1210021+9999MW1021REMSYN088AAXX  23031 15614 41998 01401 10168 20105 39496 40178 52002 70200 555 10260 29035 95000;MET046LBSF 230300Z 00000MPS CAVOK 16/08 Q1019 NOSIG;EQDQ01+000000PRSWM2Q02    003PRSWM1
0106156140999992000082513004+42650+023380FM-15+0595LBSF V0203001N00801220001CN0099001N1+02901+00201999999ADDMA1101391999999MW1001REMMET054LBSF 251300Z 30008MPS 250V330 CAVOK 29/02 Q1014 NOSIG;EQDQ01+000000PRSWM2
0310156140999992000090521004+42650+023380SY-MT+0595LBSF V0202701N00401021001CN0100001N1+01071+00741101371ADDAY181031AY221031GA1021+012009999GA2081+021009999GF108991081091008001999999MA1101291094451MD1210011+9999MW1251MW2611REMSYN082AAXX  05211 15614 41597 82704 10107 20074 39445 40137 52001 72582 889// 555 95080;MET076LBSF 052100Z 26005MPS 230V290 7000 -RA SCT040 OVC070 11/10 Q1013 RERA NOSIG;EQDQ01    003PRSWM1
0154156140999992000090610004+42650+023380FM-15+0595LBSF V0202801N009010078019N0112651N1+01101+00701999999ADDGA1071+007809999GF107991999999999999999999MA1101291999999MW1001REMMET060LBSF 061000Z 28009MPS 240V320 9999 BKN026 11/07 Q1013 NOSIG;EQDQ01+000000PRSWM2
0146156140999992000090805004+42650+023380FM-15+0595LBSF V02099999999992200019N0070001N1+00601+00601999999ADDGA1021+060009999GF102991999999999999999999MA1101691999999MW1001REMMET052LBSF 080500Z VRB01MPS 7000 FEW200 06/06 Q1017 NOSIG;EQDQ01+000000PRSWM2
0098156140999992000090913004+42650+023380FM-15+0595LBSF V0209999999999220001CN0099001N1+02301+00601999999ADDMA1102611999999MW1001REMMET046LBSF 091300Z VRB02MPS CAVOK 23/06 Q1026 NOSIG;EQDQ01+000000PRSWM2
0169156140999992000091216004+42650+023380FM-15+0595LBSF V02099999999990300019N0112651N1+02201+01001999999ADDGA1021+018009999GA2071+030009999GF107991999999999999999999MA1101391999999MW1001REMMET059LBSF 121600Z VRB01MPS 9999 FEW063 BKN100 22/10 Q1014 NOSIG;EQDQ01+000000PRSWM2
0165156140999992000091905004+42650+023380FM-15+0595LBSF V02099999999992200019N0047001N1+01401+01301999999ADDGA1021+030009999GF102991999999999999999999MA1101291999999MW1101REMMET055LBSF 190500Z VRB01MPS 4700 BR FEW100 14/13 Q1013 NOSIG;EQDQ01+000003PRSWM1Q02    003PRSWM1
0280156140999992000092421004+42650+023380SY-MT+0595LBSF V0209999C000012200019N0200001N1+00891+00651102531ADDAY121031AY221031GA1021+008109999GF106991061051008001001001MA1102401095471MD1210011+9999MW1011REMSYN082AAXX  24211 15614 41598 60000 10089 20065 39547 40253 52001 70122 86500 555 95000;MET052LBSF 242100Z VRB01MPS 9999 SCT027 09/07 Q1024 NOSIG;EQDQ01+000000PRSWM2Q02    003PRSWM1
0169156140999992000100319004+42650+023380FM-15+0595LBSF V0201301N003010300019N0060001N1+01401+01301999999ADDGA1021+008409999GA2071+030009999GF107991999999999999999999MA1102201999999MW1001REMMET059LBSF 031900Z 13003MPS 6000 SCT028 BKN100 14/13 Q1022 NOSIG;EQDQ01+000000PRSWM2
0354156140999992000100412004+42650+023380SY-MT+0595LBSF V0200501N003010360019N0200001N1+01941+00901999999ADDAA199000091AY121061AY221061GA1021+012609999GA2021+060009999GF106991031011012501041021MA1101901094961MD1710081+9999MW1031REMSYN082AAXX  04121 15614 31698 60503 10194 20090 39496 40273 57008 70322 83142 555 95000;MET067LBSF 041200Z 12005MPS 080V160 9999 SCT042 SCT200 20/09 Q1019 NOSIG;EQDQ01+102733APOSLPQ02+000000PRSWM2Q03  00002PRCP99Q04    003PRSWM1
0146156140999992000100505004+42650+023380FM-15+0595LBSF V0201001N002010105019N0070001N1+01201+01101999999ADDGA1071+010509999GF107991999999999999999999MA1101901999999MW1001REMMET052LBSF 050500Z 10002MPS 7000 BKN035 12/11 Q1019 NOSIG;EQDQ01+000000PRSWM2
0311156140999992000101318004+42650+023380SY-MT+0595LBSF V0201401N002012200019N0200001N1+01641+01191102231ADDAA199000091AY101061AY201061GF101991011011017501001001KA1120M+02501MA1102301095381MD1310181+9999MW1021REMSYN092AAXX  13181 15614 31798 11402 10164 20119 39538 40223 53018 70200 81100 333 10250 555 95000;MET049LBSF 131800Z 12006MPS 6000 SKC 17/13 Q1023 NOSIG;EQDQ01+000000PRSWM2Q02  00002PRCP99Q03    003PRSWM1
0289156140999992000101609004+42650+023380SY-MT+0595LBSF V0209999C000012200019N0100001N1+01421+00781102281ADDAY101031AY201031GA1021+060009999GF199999001001999999001011MA1102301095361MD1210011+9999MW1031MW2101REMSYN082AAXX  16091 15614 41997 10000 10142 20078 39536 40228 52001 70300 80001 555 95000;MET055LBSF 160900Z VRB01MPS 5000 BR SCT200 15/10 Q1023 NOSIG;EQDQ01+000012SCOTCVQ02    003PRSWM1
0165156140999992000101722004+42650+023380FM-15+0595LBSF V0200801N005012200019N0040001N1+01101+00901999999ADDGA1021+030009999GF104991999999999999999999MA1102401999999MW1101REMMET055LBSF 172200Z 08005MPS 4000 BR SCT100 11/09 Q1024 NOSIG;EQDQ01+000003PRSWM1Q02    003PRSWM1
0319156140999992000101821004+42650+023380SY-MT+0595LBSF V0201101N00201009901CN0100001N1+01161+00881102361ADDAY121031AY221031GA1021+007809999GA2071+009909999GF199999061081012501001001MA1102401095391MD1210021+9999MW1021REMSYN082AAXX  18211 15614 41697 61102 10116 20088 39539 40236 52002 70222 86800 555 95000;MET059LBSF 182100Z 11004MPS 7000 SCT026 BKN033 12/10 Q1024 NOSIG;EQDQ01+000062SCOTCVQ02+000000PRSWM2Q03    003PRSWM1
0290156140999992000102321004+42650+023380SY-MT+0595LBSF V0209999C000012200019N0100001N1+00311-00101103061ADDAY101031AY201031ED199U15009GF100991001001999999001001MA1102811095821MD1410001+9999MW1021MW2101REMSYN076AAXX  23211 15614 41997 00000 10031 21010 39582 40306 54000 70200 555 95000;MET083LBSF 232100Z 26001MPS 1400 R09/P1500N R27/P1500N BR SKC 02/M01 Q1028 BECMG 1000 BR;EQDQ01    003PRSWM1
0292156140999992000111118004+42650+023380SY-MT+0595LBSF V0202701N004012200019N0200001N1+00981+00291102741ADDAA199000021AY101061AY201061GF102991021041012501061001KA1120M+01581MA1102711095701MD1210211+9999MW1021REMSYN092AAXX  11181 15614 31698 22704 10098 20029 39570 40274 52021 70200 82460 333 10158 555 95000;MET046LBSF 111800Z 26004MPS CAVOK 08/04 Q1027 NOSIG;EQDQ01+000000PRSWM2Q02    003PRSWM1
0143156140999992000112311004+42650+023380FM-15+0595LBSF V02099999999992200019N9999999N1+01101+00501999999ADDGF100991999999999999999999MA1102001999999MW1001REMMET049LBSF 231100Z VRB01MPS 7000 SKC 11/05 Q1020 NOSIG;EQDQ01+070002VODIS Q02+000000PRSWM2
0173156140999992000112602004+42650+023380FM-15+0595LBSF V02099999999990042019N0040001N1+00701+00601999999ADDGA1071+004209999GF107991999999999999999999MA1101291999999MW1101REMMET063LBSF 260200Z VRB01MPS 4000 BR BKN014 07/06 Q1013 TEMPO 3000 RA;EQDQ01+000003PRSWM1Q02    003PRSWM1
0199156140999992000120102004+42650+023380FM-15+0595LBSF V02099999999990001519N0000001N1-00301-00301999999ADDED199U01509GA1091+000159999GF109991999999000251999999MA1102611999999MW1491REMMET078LBSF 010200Z VRB01MPS 0000 R09/0150N R27/0175N FZFG VV000 M03/M03 Q1026 NOSIG;EQDQ01+000003PRSWM1Q02    003PRSWM1
0356156140999992000120309004+42650+023380SY-MT+0595LBSF V0209999C000012200019N0010001N1+00011-00141102741ADDAY141031AY201031ED199U01509GA1091+000159999GF109991091001000151001011MA1102511095451MD1310061+9999MW1111MW2491REMSYN082AAXX  03091 15614 41994 20000 10001 21014 39545 40274 53006 71140 80001 555 95090;MET079LBSF 030900Z 00000MPS 0050 R09/0150N R27/M0150N FZFG VV000 M02/M02 Q1025 NOSIG;EQDQ01+000022SCOTCVQ02+000002SCOTLCQ03+000012SCOHCGQ04    003PRSWM1
0210156140999992000120317004+42650+023380FM-15+0595LBSF V0201301N001012200019N0007001N1+00201+00101999999ADDED199U15009GA1021+000609999GF102991999999999999999999MA1102301999999MW1411REMMET089LBSF 031700Z 13001MPS 0700 R09/P1500N R27/P1500N BCFG FEW002 02/01 Q1023 TEMPO 0500 BCFG;EQDQ01+000003PRSWM1Q02    003PRSWM1
0312156140999992000121515004+42650+023380SY-MT+0595LBSF V0209999C000010600019N0100001N1+00771+00341100991ADDAY121031AY221031GA1021+030009999GA2071+060009999GF199999081011012501071021MA1100911094021MD1710071+9999MW1011MW2101REMSYN082AAXX  15151 15614 41697 60000 10077 20034 39402 40099 57007 70122 88172 555 95000;MET062LBSF 151500Z VRB02MPS 3500 BR SCT100 BKN200 07/04 Q1009 NOSIG;EQDQ01+000062SCOTCVQ02    003PRSWM1
0325156140999992000121800004+42650+023380SY-MT+0595LBSF V0209999C00001027001CN0100001N1-00071-00241102111ADDAA199000091AY111061AY211061GA1021+006009999GA2071+027009999GF107991071051012501001001MA1101801094841MD1710041+9999MW1031MW2101REMSYN082AAXX  18001 15614 31697 70000 11007 21024 39484 40211 57004 70311 87500 555 95007;MET064LBSF 180000Z VRB01MPS 3000 BR FEW020 BKN090 M02/M03 Q1018 NOSIG;EQDQ01  00002PRCP99Q02    003PRSWM1
0209156140999992000122208004+42650+023380FM-15+0595LBSF V0201201N004010108019N0023001N1-00401-00401999999ADDGA1021+009609999GA2081+010809999GF108991999999999999999999MA1102401999999MW1101MW2711REMMET077LBSF 220800Z 12004MPS 2300 -SN BR FEW032 OVC036 M04/M04 Q1024 NOSIG 09490295;EQDQ01+000003PRSWM1Q02    003PRSWM1
0331156140999992000123012004+42650+023380SY-MT+0595LBSF V0209999C00001012601CN0040001N1+00841+00581099661ADDAA106000391AY181061AY221061GA1021+007809999GA2071+012609999GF108991081091012501999999MA1099591092801MD1710131+9999MW1611MW2801REMSYN094AAXX  30121 15614 11696 80000 10084 20058 39280 49966 57013 69931 78082 889// 555 71255 95090;MET074LBSF 301200Z 08003MPS 050V110 9999 -RA FEW026 BKN042 09/07 Q0996 TEMPO RA;EQDQ01    003PRSWM1
0201156150999992000010315004+42180+023580FM-12+292799999V0200201N010012200019N0500001N1-01651-01871999999ADDAY101031AY201031GF103991021001999999041011MA1999999070581ME1429899MW1031REMSYN082AAXX  03151 15615 41999 30210 11165 21187 37058 47989 56000 70300 82041 555 95120;EQDQ01+000062APCTENQ02+000002APC3  
0232156150999992000011503004+42180+023580FM-12+292799999V0200501N008012200019N0500001N1-00741-01571999999ADDAY101031AY201031GA1001+999999999GF100991001001999999001001KA1999M+99999MA1999999071201MD1810071+9999ME1430579MW1021REMSYN086    AAXX  15031 15615 41999 00508 11074 21157 37120 47057 58007 70200 555 11092 95100;EQDQ01 -00922ATMX  
0215156150999992000020609004+42180+023580FM-12+292799999V0200501N010010001519N0001001N1-00601-00711999999ADDAY141031AY241031GA1091+999999999GF109991091999999999999999MA1999999071441MD1410001+9999ME1430869MW1491REMSYN082AAXX  06091 15615 41/91 90510 11060 21071 37144 47086 51000 74944 555 92711 95199;EQDQ01+000012APCTEN
0220156150999992000020700004+42180+023580FM-12+292799999V0200201N010012200019N0500001N1-00621-00711999999ADDAA199000091AY101061AY201061GA1001+999999999GF100991001001999999001001MA1999999071601MD1810061+9999ME1431029MW1021REMSYN076AAXX  07001 15615 31999 00210 11062 21071 37160 47102 58006 70200 555 95100;EQDQ01  00002PRCP99
0208156150999992000021109004+42180+023580FM-12+292799999V0201801N006019999999N0500001N1-00631-00711999999ADDAY141031AY221031GF106991021001999999031061GG1089022009069019MA1999999071301MD1210051+9999ME1430699MW1021REMSYN092AAXX  11091 15615 41999 61806 11063 21071 37130 47069 52005 70242 82036 444 86221 555 95180;
0231156150999992000021200004+42180+023580FM-12+292799999V0209999C000019999999N0500001N1-00731-00821999999ADDAA106000391AY171061AY271061GF108991081001999999071999GG1089022009069019MA1999999071381MD1810041+9999ME1430799MW1711REMSYN104AAXX  12001 15615 11999 80000 11073 21082 37138 47079 58004 69931 77177 8807/ 444 86221 555 92731 95180;
0190156150999992000021815004+42180+023580FM-12+292799999V0202901N006010001519N0001001N1-01441-02051999999ADDAY171031AY241031GA1091+999999999GF109991091999999999999999MA1999999069421MD1210071+9999ME1428609MW1491REMSYN076AAXX  18151 15615 41/91 92906 11144 21205 36942 47860 52007 74974 555 92711;
0220156150999992000031118004+42180+023580FM-12+292799999V0203201N008019999999N0500001N1-00761-00861999999ADDAA112002091AY171061AY241061GF107991051001999999071011KA1120M-00741MA1999999070951MD1210021+9999ME1430309MW1021REMSYN098AAXX  11181 15615 11999 73208 11076 21086 37095 47030 52002 60022 70274 85071 333 11074 555 95100;
0246156150999992000040115004+42180+023580FM-12+292799999V0202001N018010001519N0000001N1-00321-00361999999ADDAY171031AY241031GA1091+999999999GF109991091999999999999999MA1999999070421MD1710161+9999ME1429709MW1751OA149902401OA259901801REMSYN110AAXX  01151 15615 41/90 92018 11032 21036 37042 47970 57016 77574 333 91124 91218 91520 555 92711 95190 96049;
0196156150999992000042621004+42180+023580FM-12+292799999V0200501N004010001519N0000001N1-00201-00221999999ADDAY171031AY241031GA1091+999999999GF109991091999999999999999MA1999999071161MD1210051+9999ME1430559MW1701REMSYN082AAXX  26211 15615 41/90 90504 11020 21022 37116 47055 52005 77074 555 92710 96049;
0180156150999992000050809004+42180+023580FM-12+292799999V0209999C000012200019N0500001N1+00131-00331999999ADDAY101031AY201031GF102991021021999999001001MA1999999072121MD1210121+9999ME1431639MW1031REMSYN082AAXX  08091 15615 41/99 20000 10013 21033 37212 47163 52012 70300 82200 555 95100;
0213156150999992000050900004+42180+023580FM-12+292799999V0203201N006010001519N0001001N1-00081-00141999999ADDAA106001091AY171061AY241061GA1091+999999999GF109991091999999999999999MA1999999072071MD1810021+9999ME1431559MW1711REMSYN088AAXX  09001 15615 11/91 93206 11008 21014 37207 47155 58002 60011 77174 555 92711 96049;
0230156150999992000051318004+42180+023580FM-12+292799999V0202901N004010001519N0001001N1+00091+00091999999ADDAA112003091AY141061AY241061GA1091+999999999GF109991091999999999999999KA1120M+00441MA1999999071791MD1310011+9999ME1431299MW1451REMSYN092AAXX  13181 15615 11/91 92904 10009 20009 37179 47129 53001 60032 74544 333 10044 555 95190;
0234156150999992000060403004+42180+023580FM-12+292799999V0200201N004012200019N0500001N1+00201-00541999999ADDAY101031AY201031GA1001+999999999GF100991001001999999001001KA1999M+99999MA1999999071841MD1610031+9999ME1431359MW1021REMSYN088AAXX  04031 15615 41999 00204 10020 21054 37184 47135 56003 70200 555 11031 95100 95127;EQDQ01 -00312ATMX  
0233156150999992000060618004+42180+023580FM-12+292799999V0209999C000012200019N0200001N1+00681+00451999999ADDAA199000091AY121061AY211061GF102991011091004501061031KA1120M+01001MA1999999071741MD1810061+9999ME1431289MW1011REMSYN092AAXX  06181 15615 31498 20000 10068 20045 37174 47128 58006 70121 81963 333 10100 555 95100;EQDQ01  00002PRCP99
0220156150999992000070400004+42170+023570FM-12+292799999V0203601N004012200019N0200001N1+01011+00211999999ADDAA199000091AY101061AY201061GA1001+999999999GF100991001001999999001001MA1999999072321MD1410001+9999ME1431939MW1021REMSYN076AAXX  04001 15615 31998 03604 10101 20021 37232 47193 54000 70200 555 95100;EQDQ01  00002PRCP99
0259156150999992000071506004+42170+023570FM-12+292799999V0201801N006012200019N0500001N1+00051-00091999999ADDAA199000091AY101061AY201061GF102991011011999999001011GJ104209IA1099KA1120N-00081MA1999999070891MD1710041+9999ME1430289MW1011REMSYN104AAXX  15061 15615 31/99 21806 10005 21009 37089 47028 57004 70100 81101 333 21008 55070 555 31/// 95110;EQDQ01  00002PRCP99
0180156150999992000080315004+42170+023570FM-12+292799999V0202301N006012200019N0500001N1+01141+00381999999ADDAY101031AY201031GF104991041021002501001001MA1999999072371MD1410001+9999ME1432009MW1021REMSYN082AAXX  03151 15615 41399 42306 10114 20038 37237 47200 54000 70200 84200 555 95110;
0199156150999992000082809004+42170+023570FM-12+292799999V0209999C000012200019N0500001N1+00641-00242999999ADDAY101031AY201031GF101991011001999999031001MA1999999071901MD1110091+9999ME1431449MW1021REMSYN082AAXX  28091 15615 41999 10000 10064 21024 37190 47144 51009 70200 81030 555 95100;EQDQ01-000243ATOD  
0210156150999992000090412004+42170+023570FM-12+292799999V0202001N006019999999N0200001N1+00861+00251999999ADDAA199000091AY121061AY221061GF107991071021999999001001MA1999999071481MD1210041+9999ME1431009MW1021REMSYN082AAXX  04121 15615 31/98 72006 10086 20025 37148 47100 52004 70222 87200 555 95100;EQDQ01  00002PRCP99
0201156150999992000090612004+42170+023570FM-12+292799999V0203401N008010001519N0000001N1-00431-00471999999ADDAA199000021AY141061AY241061GA1091+999999999GF109991091999999999999999MA1999999070711MD1410001+9999ME1430039MW1491REMSYN076AAXX  06121 15615 31/90 93408 11043 21047 37071 47003 54000 74944 555 92711;
0199156150999992000090803004+42170+023570FM-12+292799999V0202701N002012200019N0500001N1-00451-00741999999ADDAY101031AY201031GF103991021001999999031011KA1999M-00341MA1999999071201MD1310081+9999ME1430599MW1031REMSYN088AAXX  08031 15615 41999 32702 11045 21074 37120 47059 53008 70300 82031 555 11034 95100;
0190156150999992000092421004+42170+023570FM-12+292799999V0209999C000010001519N0000001N1-00261-00301999999ADDAY141031AY241031GA1091+999999999GF109991091999999999999999MA1999999071671MD1210021+9999ME1431109MW1451REMSYN076AAXX  24211 15615 41/90 90000 11026 21030 37167 47110 52002 74544 555 92711;
0190156150999992000092521004+42170+023570FM-12+292799999V0203201N006010001519N0000001N1-00341-00381999999ADDAY141031AY241031GA1091+999999999GF109991091999999999999999MA1999999071681MD1810041+9999ME1431159MW1491REMSYN076AAXX  25211 15615 41/90 93206 11034 21038 37168 47115 58004 74944 555 92711;
0252156150999992000100221004+42170+023570FM-12+292799999V0201801N024019999999N0200001N1+00491+00171999999ADDAY121031AY221031GF107991051001999999071061GG1039023009069029MA1999999071921MD1810021+9999ME1431439MW1021OA149902801OA259902401REMSYN114AAXX  02211 15615 41998 71824 10049 20017 37192 47143 58002 70222 85076 333 91128 91224 91518 444 36232 555 95161;
0233156150999992000101318004+42170+023570FM-12+292799999V0203401N004012200019N0200001N1+00311+00131999999ADDAA199000091AY141061AY201061GF101991011051999999001001KA1120M+01021MA1999999072171MD1310021+9999ME1431709MW1011REMSYN092AAXX  13181 15615 31/98 13404 10031 20013 37217 47170 53002 70140 81500 333 10102 555 95110;EQDQ01  00002PRCP99
0218156150999992000101821004+42170+023570FM-12+292799999V0209999C000012200019N0200001N1+00001-01572999999ADDAY101031AY201031GA1001+999999999GF100991001001999999001001GG1039018009069009MA1999999071791MD1810021+9999ME1431289MW1021REMSYN086AAXX  18211 15615 41998 00000 10000 21157 37179 47128 58002 70200 444 36180 555 95170;
0159156150999992000110200004+42170+023570FM-12+292799999V0202301N006010001519N0001001N1-00131+99999999999ADDAA199000091GA1091+999999999GF109991091999999999999999REMSYN075AAXX  02001 15615 31/91 92306 11013 21012 7139 47083 57001 74144 555 95199;EQDQ01  00002PRCP99
0180156150999992000110615004+42170+023570FM-12+292799999V0202301N008012200019N0500001N1-00091-00901999999ADDAY101031AY201031GF102991011011999999001011MA1999999071071MD1810051+9999ME1431449MW1021REMSYN082AAXX  06151 15615 41/99 22308 11009 21090 37107 47144 58005 70200 81101 555 95110;
0243156150999992000111218004+42170+023570FM-12+292799999V0203201N006012200019N0500001N1-00221-02151999999ADDAA199000091AY101061AY201061GA1001+999999999GF100991001001999999001001KA1120M+00051MA1999999071791MD1410001+9999ME1431279MW1021REMSYN086AAXX  12181 15615 31999 03206 11022 21215 37179 47127 54000 70200 333 10005 555 95100;EQDQ01  00002PRCP99
0259156150999992000111606004+42170+023570FM-12+292799999V0202501N002012200019N0500001N1+00181-00741999999ADDAA199000091AY101061AY201061GF101991011001999999041011GJ105529IA1099KA1120N+00101MA1999999072041MD1410001+9999ME1431589MW1021REMSYN104AAXX  16061 15615 31999 12502 10018 21074 37204 47158 54000 70200 81041 333 20010 55092 555 31/// 95100;EQDQ01  00002PRCP99
0196156150999992000112015004+42170+023570FM-12+292799999V0202501N002010001519N0001001N1-00501-00571999999ADDAY171031AY241031GA1091+999999999GF109991091999999999999999MA1999999071031MD1310021+9999ME1430429MW1491REMSYN082AAXX  20151 15615 41/91 92502 11050 21057 37103 47042 53002 74974 555 92711 95199;
0180156150999992000120615004+42170+023570FM-12+292799999V0202001N002012200019N0500001N1-00471-00901999999ADDAY101031AY201031GF102991001001999999001011MA1999999071531MD1710021+9999ME1430979MW1021REMSYN082AAXX  06151 15615 41999 22002 11047 21090 37153 47097 57002 70200 80001 555 95120;
0233156150999992000120618004+42170+023570FM-12+292799999V0201401N002012200019N0500001N1-00381-00741999999ADDAA199000091AY101061AY201061GF102991001001999999001011KA1120M-00201MA1999999071581MD1310051+9999ME1431039MW1021REMSYN092AAXX  06181 15615 31999 21402 11038 21074 37158 47103 53005 70200 80001 333 11020 555 95120;EQDQ01  00002PRCP99
0180156150999992000120821004+42170+023570FM-12+292799999V0200501N006012200019N0500001N1-00121-01571999999ADDAY111031AY201031GF102991001001999999001011MA1999999071701MD1410001+9999ME1431169MW1011REMSYN082AAXX  08211 15615 41999 20506 11012 21157 37170 47116 54000 70110 80001 555 95120;
0210156150999992000121000004+42170+023570FM-12+292799999V0202901N006012200019N0500001N1+00111-00601999999ADDAA199000091AY101061AY201061GF102991001001999999001011MA1999999071951MD1810011+9999ME1431469MW1021REMSYN082AAXX  10001 15615 31999 22906 10011 21060 37195 47146 58001 70200 80001 555 95120;EQDQ01  00002PRCP99
0278156250999992000010115004+42130+024750SY-MT+0185LBPD V0202701N005012200019N0100001N1+00051-00221102291ADDAJ100259199999999AY101031AY201031GF103991031001999999031001IA1239MA1102101999999MD1210121+9999MW1021REMSYN086AAXX  01151 15625 41960 32705 10005 21022 40229 52012 70200 83030 333 47025 555 95400;MET055LBPD 1500Z 26008MPS CAVOK M00/M03 Q1021 NOSIG 99596091;EQDQ01    003PRSWM1
0146156250999992000010419004+42130+024750FM-15+0185LBPD V0201401N002012200019N0025001N1-00601-00601999999ADDGF100991999999999999999999MA1102301999999MW1101REMMET052LBPD 1900Z 14002MPS 2500 BR SKC M06/M06 Q1023 NOSIG;EQDQ01+000003PRSWM1Q02    003PRSWM1
0349156250999992000011815004+42130+024750SY-MT+018599999V0202701N00501018001CN0100001N1+00301-00271099601ADDAJ100079199999999AY121031AY221031GA1021+015009999GA2071+018009999GF199999041051012501051001IA1279MA1099491999999MD1310011+9999MW1021REMSYN090    AAXX  18151 15625 41660 62705 10030 21027 49960 53001 70222 84550 333 43007 555 84534;MET058LBPD 1500Z 27009MPS 9999 FEW050 BKN065 03/M02 Q0995 NOSIG;EQDQ01+000062SCOTCVQ02+000000PRSWM2Q03    003PRSWM1
0098156250999992000012020004+42130+024750FM-15+0185LBPD V0202701N00901220001CN0099001N1-00201-00901999999ADDMA1102101999999MW1001REMMET046LBPD 2000Z 27009MPS CAVOK M02/M09 Q1021 NOSIG;EQDQ01+000000PRSWM2
0098156250999992000012722004+42130+024750FM-15+0185LBPD V0202901N00201220001CN0099001N1-00101-00501999999ADDMA1102401999999MW1001REMMET046LBPD 2200Z 29002MPS CAVOK M01/M05 Q1024 NOSIG;EQDQ01+000000PRSWM2
0096156250999992000020101004+42130+024750FM-15+0185LBPD V0202701N01001220001CN0099001N1+00901+00301999999ADDMA1102201999999MW1001REMMET044LBPD 0100Z 27010MPS CAVOK 09/03 Q1022 NOSIG;EQDQ01+000000PRSWM2
0318156250999992000020409004+42130+024750SY-MT+0185LBPD V0202601N00901030001CN0100001N1+00601+00091103141ADDAY121031AY221031GA1021+018009999GA2071+030009999GF199999021051017501051001MA1103011999999MD1110291+9999MW1021REMSYN082AAXX  04091 15625 41760 62609 10060 20009 40314 51029 70222 82550 555 82550 95400;MET058LBPD 0900Z 27010MPS 9999 SCT065 BKN100 07/M01 Q1030 NOSIG;EQDQ01+000062SCOTCVQ02+000000PRSWM2Q03    003PRSWM1
0096156250999992000020613004+42130+024750FM-15+0185LBPD V0202801N00901220001CN0099001N1+01301+00501999999ADDMA1102511999999MW1001REMMET044LBPD 1300Z 28009MPS CAVOK 13/05 Q1025 NOSIG;EQDQ01+000000PRSWM2
0125156250999992000020722004+42130+024750FM-15+0185LBPD V0202901N002012200019N0070001N1+00701+00401999999ADDGF100991999999999999999999MA1102201999999MW1001REMMET047LBPD 2200Z 29002MPS 7000 SKC 07/04 Q1022 NOSIG;EQDQ01+000000PRSWM2
0349156250999992000021103004+42130+024750SY-MT+0185LBPD V0209999C00001007201CN0050001N1+00401+00271102671ADDAA124001091AY151031AY251031GA1021+003909999GA2081+007209999GF108991081051008001999999KA1999M+00631MA1102401999999MD1010001+9999MW1501MW2511REMSYN100AAXX  11031 15625 41550 80000 10040 20027 40267 50000 60014 75055 885// 555 10063 29092 88530 95490;MET073LBPD 0300Z 08002MPS 3500 -DZ BR SCT013 OVC024 06/06 Q1024 NOSIG 9929//94;EQDQ01    003PRSWM1
0175156250999992000021413004+42130+024750FM-15+0185LBPD V0202601N003012200019N0090001N1+00901+00301999999ADDGA1021+018009999GA2021+030009999GF104991999999999999999999MA1101591999999MW1001REMMET065LBPD 1300Z 26003MPS 220V360 9000 FEW060 SCT100 09/03 Q1016 NOSIG;EQDQ01+000000PRSWM2
0210156250999992000022210004+42130+024750FM-15+0185LBPD V0200901N005010150019N0080001N1+00101+00001999999ADDGA1021+003009999GA2021+006009999GA3071+015009999GF107991999999999999999999MA1102301999999MW1711REMMET068LBPD 1000Z 09005MPS 8000 -SN FEW010 SCT020 BKN050 01/00 Q1023 NOSIG;EQDQ01+000003PRSWM1Q02    003PRSWM1
0188156250999992000022503004+42130+024750FM-15+0185LBPD V0202501N002010360019N0050001N1-00201-00301999999ADDGA1021+015009999GA2071+036009999GF107991999999999999999999MA1103011999999MW1101REMMET062LBPD 0300Z 25002MPS 5000 BR SCT050 BKN120 M02/M03 Q1030 NOSIG;EQDQ01+000003PRSWM1Q02    003PRSWM1
0106156250999992000022511004+42130+024750FM-15+0185LBPD V0209999999999220001CN0099001N1+00501-00401999999ADDMA1102711999999MW1001REMMET054LBPD 1100Z VRB02MPS CAVOK 05/M04 Q1027 NOSIG 88CLRD//;EQDQ01+000000PRSWM2
0167156250999992000031311004+42130+024750FM-15+0185LBPD V02099999999992200019N0112651N1+00901+00101999999ADDGA1021+009909999GA2021+030009999GF104991999999999999999999MA1102811999999MW1001REMMET057LBPD 1100Z VRB02MPS 9999 FEW033 SCT100 09/01 Q1028 NOSIG;EQDQ01+000000PRSWM2
0176156250999992000031813004+42130+024750FM-15+0185LBPD V0203101N007010210019N0112651N1+00601-00801999999ADDGA1021+015009999GA2071+021009999GF107991999999999999999999MA1101081999999MW1001REMMET066LBPD 1300Z 31007MPS 290V360 9999 SCT050 BKN075 06/M08 Q1011 NOSIG;EQDQ01+000000PRSWM2
0318156250999992000031815004+42130+024750SY-MT+0185LBPD V0203001N00601018001CN0100001N1+00561-00641101261ADDAY121031AY221031GA1021+015009999GA2071+018009999GF199999041051012501051001MA1101191999999MD1810011+9999MW1021REMSYN082AAXX  18151 15625 41660 63006 10056 21064 40126 58001 70222 84550 555 84634 95400;MET058LBPD 1500Z 29005MPS 9999 SCT050 BKN065 05/M08 Q1012 NOSIG;EQDQ01+000062SCOTCVQ02+000000PRSWM2Q03    003PRSWM1
0331156250999992000032016004+42130+024750SY-MT+0185LBPD V0202701N01001021001CN0100001N1+00601-01001102101ADDAA199000091AY121999AY211999GA1071+021009999GF199999051051012501001001MA1101801999999MD1710121+9999MW1011REMSYN082AAXX  20161 15625 31660 52710 10070 210/9 40210 57012 70121 85500 555 85540 95<00;MET060LBPD 1600Z 27006MPS 9999 BKN070 06/M10 Q1018 WS RWY31 NOSIG;EQDQ01+000052SCOTCVQ02+000000PRSWM2Q03  00002PRCP99Q04    003PRSWM1
0295156250999992000032215004+42130+024750SY-MT+0185LBPD V0203301N00301021001CN0150001N1+00661+00151102061ADDAY121031AY221031GA1071+021009999GF199999041051017501051001MA1101901999999MD1710111+9999MW1021REMSYN082AAXX  22151 15625 41765 63303 10066 20015 40206 57011 70222 84550 555 84550 95400;MET051LBPD 1500Z VRB02MPS 9999 BKN070 10/M07 Q1019 NOSIG;EQDQ01+000062SCOTCVQ02+000000PRSWM2Q03    003PRSWM1
0207156250999992000032307004+42130+024750SY-MT+0185LBPD V02099999999992200019N0031001N1-00201-00331102211ADDAA199000091GF100991001001999999001001MA1102101999999MW1001REMSYN048AAXX  23071 15625 31931 0///0 11020 21033 40221;MET048LBPD 0700Z VRB01MPS 8000 SKC 05/M04 Q1021 NOSIG;EQDQ01+000000PRSWM2Q02  00002PRCP99
0097156250999992000032413004+42130+024750FM-15+0185LBPD V0209999999999220001CN0099001N1+01901-00702999999ADDMA1101291999999MW1001REMMET045LBPD 1300Z VRB02MPS CAVOK 19/M07 Q1013 NOSIG;EQDQ01+000000PRSWM2
0166156250999992000032719004+42130+024750FM-15+0185LBPD V0203301N003012200019N0112651N1+01401+00401999999ADDGA1021+024009999GF104991999999999999999999MA1101081999999MW1001REMMET072LBPD 1900Z 33003MPS 290V010 9999 SCT080 14/04 Q1011 TEMPO VCTS FEW033CB;EQDQ01+000000PRSWM2
0096156250999992000032817004+42130+024750FM-15+0185LBPD V0200501N00201220001CN0099001N1+01801+00601999999ADDMA1101391999999MW1001REMMET044LBPD 1700Z 05002MPS CAVOK 18/06 Q1014 NOSIG;EQDQ01+000000PRSWM2
0096156250999992000033117004+42130+024750FM-15+0185LBPD V0209999999999220001CN0099001N1+01701+00201999999ADDMA1100811999999MW1001REMMET044LBPD 1700Z VRB02MPS CAVOK 17/02 Q1008 NOSIG;EQDQ01+000000PRSWM2
0096156250999992000040305004+42130+024750FM-15+0185LBPD V0209999999999220001CN0099001N1+00601+00401999999ADDMA1101491999999MW1001REMMET044LBPD 0500Z VRB01MPS CAVOK 06/04 Q1015 NOSIG;EQDQ01+000000PRSWM2
0104156250999992000040608004+42130+024750FM-15+0185LBPD V0202901N00901220001CN0099001N1+01901+00201999999ADDMA1100611999999MW1001REMMET052LBPD 0800Z 29009MPS 260V320 CAVOK 19/02 Q1006 NOSIG;EQDQ01+000000PRSWM2
0097156250999992000040921004+42130+024750FM-15+0185LBPD V0202801N00201220001CN0099001N1+00501-00201999999ADDMA1101691999999MW1001REMMET045LBPD 2100Z 28002MPS CAVOK 05/M02 Q1017 NOSIG;EQDQ01+000000PRSWM2
0172156250999992000041101004+42130+024750FM-15+0185LBPD V02099999999990210019N0112651N1+00701+00501999999ADDGA1021+015009999GA2071+021009999GF107991999999999999999999MA1101021999999MW1001REMMET062LBPD 0100Z VRB01MPS 9999 SCT055 BKN076 07/05 Q1010 RERA NOSIG;EQDQ01+000000PRSWM2
0359156250999992000042118004+42130+024750SY-MT+0185LBPD V0209999C00001030001CN0100001N1+01821+01291101041ADDAA112000191AY121061AY221061GA1021+018009999GA2071+030009999GF199999061051012501001001KA1120M+02201MA1101081999999MD1210111+9999MW1021REMSYN098AAXX  21181 15625 31660 60000 10182 20129 40104 52011 69912 70222 86500 333 10220 555 86640 95490;MET059LBPD 211800Z VRB01MPS 9999 SCT065 BKN100 17/13 Q1011 NOSIG;EQDQ01+000062SCOTCVQ02+000000PRSWM2Q03    003PRSWM1
0099156250999992000050422004+42130+024750FM-15+0185LBPD V0201201N00301220001CN0099001N1+00701+00001999999ADDMA1102201999999MW1001REMMET047LBPD 042200Z 12003MPS CAVOK 07/M00 Q1022 NOSIG;EQDQ01+000000PRSWM2
0146156250999992000050619004+42130+024750FM-15+0185LBPD V0201201N004012200019N0090001N1+01401+00501999999ADDGA1021+030009999GF104991999999999999999999MA1101901999999MW1001REMMET052LBPD 061900Z 12004MPS 9000 SCT100 14/05 Q1019 NOSIG;EQDQ01+000000PRSWM2
0098156250999992000051523004+42130+024750FM-15+0185LBPD V0209999999999220001CN0099001N1+01501+00801999999ADDMA1102001999999MW1001REMMET046LBPD 152300Z VRB02MPS CAVOK 15/08 Q1020 NOSIG;EQDQ01+000000PRSWM2
0106156250999992000051607004+42130+024750FM-15+0185LBPD V0202801N00301220001CN0099001N1+01901+01301999999ADDMA1102001999999MW1001REMMET054LBPD 160700Z 28003MPS 250V320 CAVOK 19/13 Q1020 NOSIG;EQDQ01+000000PRSWM2
0106156250999992000051902004+42130+024750FM-15+0185LBPD V0201101N00401220001CN0099001N1+01301+01101999999ADDMA1101081999999MW1001REMMET054LBPD 190200Z 11004MPS 080V140 CAVOK 13/11 Q1011 NOSIG;EQDQ01+000000PRSWM2
0098156250999992000051908004+42130+024750FM-15+0185LBPD V0209999999999220001CN0099001N1+02101+01201999999ADDMA1101081999999MW1001REMMET046LBPD 190800Z VRB01MPS CAVOK 21/12 Q1011 NOSIG;EQDQ01+000000PRSWM2
0266156250999992000052109004+42130+024750SY-MT+0185LBPD V0202701N008012200019N0100001N1+02401+01451100971ADDAY101031AY201031GF102991021081012501001001MA1101021999999MD1110061+9999MW1021REMSYN082AAXX  21091 15625 41660 22708 10240 20145 40097 51006 70200 82800 555 82840 95400;MET054LBPD 210900Z 29008MPS 260V330 CAVOK 24/10 Q1010 NOSIG;EQDQ01+000000PRSWM2Q02    003PRSWM1
0098156250999992000060405004+42130+024750FM-15+0185LBPD V0209999999999220001CN0099001N1+01501+00901999999ADDMA1102001999999MW1001REMMET046LBPD 040500Z VRB02MPS CAVOK 15/09 Q1020 NOSIG;EQDQ01+000000PRSWM2
0098156250999992000061320004+42130+024750FM-15+0185LBPD V0201701N00501220001CN0099001N1+02601+00601999999ADDMA1102301999999MW1001REMMET046LBPD 132000Z 17005MPS CAVOK 26/06 Q1023 NOSIG;EQDQ01+000000PRSWM2
0301156250999992000061512004+42130+024750SY-MT+0185LBPD V0202801N003012200019N0100001N1+03401+01491101421ADDAA199000091AY111061AY201061GA1021+012009019GF103991021011012501031001MA1101491999999MD1710231+9999MW1021REMSYN082AAXX  15121 15625 31660 32803 10340 20149 40142 57023 70210 82130 555 82140 95400;MET046LBPD 151200Z VRB02MPS CAVOK 35/13 Q1015 NOSIG;EQDQ01+000000PRSWM2Q02  00002PRCP99Q03    003PRSWM1
0098156250999992000061522004+42130+024750FM-15+0185LBPD V0209999999999220001CN0099001N1+02501+01001999999ADDMA1101291999999MW1001REMMET046LBPD 152200Z VRB01MPS CAVOK 25/10 Q1013 NOSIG;EQDQ01+000000PRSWM2
0177156250999992000061708004+42130+024750FM-15+0185LBPD V0202801N009010210019N0112651N1+01901+00801999999ADDGA1021+012009999GA2071+021009999GF107991999999999999999999MA1101691999999MW1001REMMET067LBPD 170800Z 28009MPS 260V320 9999 SCT040 BKN070 19/08 Q1017 NOSIG;EQDQ01+000000PRSWM2
0254156250999992000062809004+42130+024750SY-MT+0185LBPD V0202801N008012200019N0100001N1+02261+00401101641ADDAY101031AY201031GF100991001001999999001001MA1101591999999MD1110041+9999MW1021REMSYN070AAXX  28091 15625 41960 02808 10226 20040 40164 51004 70200 555 95400;MET054LBPD 280900Z 29006MPS 240V340 CAVOK 24/00 Q1016 NOSIG;EQDQ01+000000PRSWM2Q02    003PRSWM1
0236156250999992000070821004+42130+024750SY-MT+0185LBPD V0209999C000012200019N0100001N1+02801+01511100291ADDAY101031AY201031GF100991001001999999001001MA1100311999999MD1210091+9999MW1021REMSYN060AAXX  08211 15625 41997 00000 10280 20151 40029 52009 70200;MET046LBPD 082100Z VRB01MPS CAVOK 26/14 Q1003 NOSIG;EQDQ01+000000PRSWM2Q02    003PRSWM1
0274156250999992000071221004+42130+024750SY-MT+0185LBPD V0201801N010019999999N0100001N1+03501+01432100051ADDAY101031AY201031GF105991001001999999001021MA1100201999999MD1610141+9999MW1031REMSYN082AAXX  12211 15625 41960 51810 10350 20143 40005 56014 70300 85002 555 91115 95490;MET046LBPD 122100Z 20009MPS CAVOK 33/05 Q1002 NOSIG;EQDQ01+000052SCOTLCQ02+000000PRSWM2Q03    003PRSWM1
0106156250999992000071316004+42130+024750FM-15+0185LBPD V0202901N01301220001CN0099001N1+02301+00701999999ADDMA1100611999999MW1001REMMET054LBPD 131600Z 29013MPS 260V320 CAVOK 23/07 Q1006 NOSIG;EQDQ01+000000PRSWM2
0258156250999992000072103004+42130+024750SY-MT+0185LBPD V0209999C000010900019N0100001N1+01741+00991101381ADDAY101031AY201031GF105991021011012501001021MA1101391999999MD1010051+9999MW1031REMSYN082AAXX  21031 15625 41697 50000 10174 20099 40138 50005 70300 82102 555 10217 82840;MET046LBPD 210300Z VRB02MPS CAVOK 18/09 Q1014 NOSIG;EQDQ01+000000PRSWM2Q02    003PRSWM1
0106156250999992000072322004+42130+024750FM-15+0185LBPD V0201701N00301220001CN0099001N1+02201+00701999999ADDMA1101591999999MW1001REMMET054LBPD 232200Z 17003MPS 140V200 CAVOK 22/07 Q1016 NOSIG;EQDQ01+000000PRSWM2
0098156250999992000072517004+42130+024750FM-15+0185LBPD V0201001N00501220001CN0099001N1+03701+01101999999ADDMA1101021999999MW1001REMMET046LBPD 251700Z 10005MPS CAVOK 37/11 Q1010 NOSIG;EQDQ01+000000PRSWM2
0106156250999992000073007004+42130+024750FM-15+0185LBPD V0203001N00701220001CN0099001N1+02601+01001999999ADDMA1101191999999MW1001REMMET054LBPD 300700Z 30007MPS 270V330 CAVOK 26/10 Q1012 NOSIG;EQDQ01+000000PRSWM2
0280156250999992000080103004+42130+024750SY-MT+0185LBPD V0209999C000012200019N0100001N1+01451+00531101871ADDAY101031AY201031GF102991001001999999001021MA1101901999999MD1010001+9999MW1031REMSYN088AAXX  01031 15625 41960 20000 10145 20053 40187 50000 70300 82002 555 10197 29055 95490;MET046LBPD 010300Z VRB01MPS CAVOK 16/11 Q1019 NOSIG;EQDQ01+000022SCOTLCQ02+000000PRSWM2Q03    003PRSWM1
0106156250999992000080717004+42130+024750FM-15+0185LBPD V0201201N00301220001CN0099001N1+03101+00901999999ADDMA1101021999999MW1001REMMET054LBPD 071700Z 12003MPS 080V140 CAVOK 31/09 Q1010 NOSIG;EQDQ01+000000PRSWM2
0258156250999992000080815004+42130+024750SY-MT+0185LBPD V0200501N004010360019N0100001N1+03021+01431100931ADDAY111031AY201031GF106991041051012501051001MA1101021999999MD1610111+9999MW1031REMSYN082AAXX  08151 15625 41660 60504 10302 20143 40093 56011 70310 84550 555 84540 95400;MET046LBPD 081500Z VRB01MPS CAVOK 32/12 Q1010 NOSIG;EQDQ01+000000PRSWM2Q02    003PRSWM1
0258156250999992000080921004+42130+024750SY-MT+0185LBPD V0201201N003010360019N0100001N1+02541+01451101671ADDAY121031AY221031GF106991031051012501051001MA1101691999999MD1210091+9999MW1021REMSYN082AAXX  09211 15625 41660 61203 10254 20145 40167 52009 70222 83550 555 83540 95490;MET046LBPD 092100Z 15003MPS CAVOK 25/15 Q1017 NOSIG;EQDQ01+000000PRSWM2Q02    003PRSWM1
0318156250999992000081006004+42130+024750SY-MT+0185LBPD V0209999C000012200019N0080001N1+02081+01481101841ADDAA199000091AY101061AY201061GF101991001001999999001021KA1120N+01801MA1101801999999MD1010011+9999MW1051REMSYN086AAXX  10061 15625 31958 10000 10208 20148 40184 50001 70500 81002 333 20180 555 95400;MET046LBPD 100600Z VRB01MPS CAVOK 23/15 Q1018 NOSIG;EQDQ01+000012SCOTLCQ02+000000PRSWM2Q03  00002PRCP99Q04    003PRSWM1
0106156250999992000081014004+42130+024750FM-15+0185LBPD V0201101N00401220001CN0099001N1+03201+00701999999ADDMA1101491999999MW1001REMMET054LBPD 101400Z 11004MPS 080V250 CAVOK 32/07 Q1015 NOSIG;EQDQ01+000000PRSWM2
0146156250999992000081116004+42130+024750FM-15+0185LBPD V0201201N005012200019N0112651N1+02901+01301999999ADDGA1021+021009999GF104991999999999999999999MA1101191999999MW1001REMMET052LBPD 111600Z 12005MPS 9999 SCT070 29/13 Q1012 NOSIG;EQDQ01+000000PRSWM2
0106156250999992000081214004+42130+024750FM-15+0185LBPD V0201101N00501220001CN0099001N1+02901+01101999999ADDMA1101291999999MW1001REMMET054LBPD 121400Z 11005MPS 070V160 CAVOK 29/11 Q1013 NOSIG;EQDQ01+000000PRSWM2
0098156250999992000082001004+42130+024750FM-15+0185LBPD V0209999999999220001CN0099001N1+02001+00701999999ADDMA1101901999999MW1001REMMET046LBPD 200100Z VRB02MPS CAVOK 20/07 Q1019 NOSIG;EQDQ01+000000PRSWM2
0193156250999992000082417004+42130+024750FM-15+0185LBPD V0201301N005010270019N0112651N1+02301+01701999999ADDGA1021+012009099GA2071+027009999GF107991999999999999999999MA1101491999999MW1801REMMET067LBPD 241700Z 13005MPS 9999 -SHRA FEW040CB BKN090 23/17 Q1015 NOSIG;EQDQ01+000003PRSWM1Q02    003PRSWM1
0098156250999992000082620004+42130+024750FM-15+0185LBPD V0202501N00401220001CN0099001N1+01901+00301999999ADDMA1101391999999MW1001REMMET046LBPD 262000Z 25004MPS CAVOK 19/03 Q1014 NOSIG;EQDQ01+000000PRSWM2
0098156250999992000082723004+42130+024750FM-15+0185LBPD V0209999999999220001CN0099001N1+01801+00201999999ADDMA1101691999999MW1001REMMET046LBPD 272300Z VRB01MPS CAVOK 18/02 Q1017 NOSIG;EQDQ01+000000PRSWM2
0177156250999992000090414004+42130+024750FM-15+0185LBPD V0200701N005012200019N0112651N1+03101+01201999999ADDGA1021+012009999GA2021+045009999GF104991999999999999999999MA1100711999999MW1001REMMET067LBPD 041400Z 07005MPS 020V110 9999 FEW040 SCT150 31/12 Q1007 NOSIG;EQDQ01+000000PRSWM2
0169156250999992000090504004+42130+024750FM-15+0185LBPD V02099999999992200019N0112651N1+01701+01501999999ADDGA1021+024009999GA2021+060009999GF104991999999999999999999MA1101021999999MW1001REMMET059LBPD 050400Z VRB01MPS 9999 SCT080 SCT200 17/15 Q1010 NOSIG;EQDQ01+000000PRSWM2
0328156250999992000090615004+42130+024750SY-MT+0185LBPD V0202701N010010360019N0100001N1+01601+00531101071ADDAY121031AY221031GA1021+015009999GA2021+027009999GF105991031051012501051001MA1101081999999MD1210071+9999MW1021OA149901501REMSYN088AAXX  06151 15625 41660 52710 10160 20053 40107 52007 70222 83550 555 83540 91115 95400;MET067LBPD 061500Z 30012MPS 270V330 9999 SCT050 SCT090 16/05 Q1011 NOSIG;EQDQ01+000000PRSWM2Q02    003PRSWM1
0098156250999992000090722004+42130+024750FM-15+0185LBPD V0202801N00201220001CN0099001N1+01401+00401999999ADDMA1101291999999MW1001REMMET046LBPD 072200Z 28002MPS CAVOK 14/04 Q1013 NOSIG;EQDQ01+000000PRSWM2
0268156250999992000090821004+42130+024750SY-MT+0185LBPD V0201401N00301220001CN0100001N1+01721+00531102171ADDAY101031AY201031GF101991001001999999001011MA1102301999999MD1110221+9999MW1011REMSYN076AAXX  08211 15625 41960 11403 10172 20053 40217 51022 70100 81001 555 95490;MET046LBPD 082100Z 17004MPS CAVOK 18/04 Q1023 NOSIG;EQDQ01+000000PRSWM2Q02+000012SCOTLCQ03    003PRSWM1
0302156250999992000091018004+42130+024750SY-MT+0185LBPD V0201201N002019999999N0100001N1+02001+01141101961ADDAA199000091AY101061AY201061GF105991051001999999031001KA1120M+02501MA1102001999999MD1710101+9999MW1031REMSYN086AAXX  10181 15625 31960 51202 10200 20114 40196 57010 70300 85030 333 10250 555 95490;MET046LBPD 101800Z 15003MPS CAVOK 21/10 Q1020 NOSIG;EQDQ01+000000PRSWM2Q02  00002PRCP99Q03    003PRSWM1
0165156250999992000091804004+42130+024750FM-15+0185LBPD V02099999999992200019N0044001N1+01501+01301999999ADDGA1021+030009999GF104991999999999999999999MA1101191999999MW1101REMMET055LBPD 180400Z VRB01MPS 4400 BR SCT100 15/13 Q1012 NOSIG;EQDQ01+000003PRSWM1Q02    003PRSWM1
0098156250999992000101219004+42130+024750FM-15+0185LBPD V0201701N00301220001CN0099001N1+01601+01201999999ADDMA1101901999999MW1001REMMET046LBPD 121900Z 17003MPS CAVOK 16/12 Q1019 NOSIG;EQDQ01+000000PRSWM2
0246156250999992000101309004+42130+024750SY-MT+0185LBPD V0209999C000012200019N0040001N1+01961+01521102281ADDAY101031AY201031GF100991001001999999001001MA1102301999999MD1210131+9999MW1101REMSYN070AAXX  13091 15625 41940 00000 10196 20152 40228 52013 71000 555 95490;MET046LBPD 130900Z VRB02MPS CAVOK 19/13 Q1023 NOSIG;EQDQ01+000000PRSWM2Q02    003PRSWM1
0146156250999992000101322004+42130+024750FM-15+0185LBPD V0201101N003012200019N0080001N1+01501+01401999999ADDGA1021+005109999GF104991999999999999999999MA1102511999999MW1001REMMET052LBPD 132200Z 11003MPS 8000 SCT017 15/14 Q1025 NOSIG;EQDQ01+000000PRSWM2
0098156250999992000101620004+42130+024750FM-15+0185LBPD V0201901N00301220001CN0099001N1+01001+00301999999ADDMA1102401999999MW1001REMMET046LBPD 162000Z 19003MPS CAVOK 10/03 Q1024 NOSIG;EQDQ01+000000PRSWM2
0128156250999992000102602004+42130+024750FM-15+0185LBPD V02099999999992200019N0090001N1+00501-00101999999ADDGF100991999999999999999999MA1102001999999MW1001REMMET050LBPD 260200Z VRB01MPS 9000 SKC 05/M01 Q1020 NOSIG;EQDQ01+000000PRSWM2
0128156250999992000102622004+42130+024750FM-15+0185LBPD V0202601N002012200019N0090001N1+00701+00001999999ADDGF100991999999999999999999MA1101801999999MW1001REMMET050LBPD 262200Z 26002MPS 9000 SKC 07/M00 Q1018 NOSIG;EQDQ01+000000PRSWM2
0098156250999992000102821004+42130+024750FM-15+0185LBPD V0209999999999220001CN0099001N1+00601+00301999999ADDMA1102611999999MW1001REMMET046LBPD 282100Z VRB02MPS CAVOK 06/03 Q1026 NOSIG;EQDQ01+000000PRSWM2
0135156250999992000103000004+42130+024750FM-15+0185LBPD V0202001N001012200019N0060001N1+00301+00101999999ADDGF100991999999999999999999MA1102511999999MW1001REMMET057LBPD 300000Z 20001MPS 6000 SKC 03/01 Q1025 BECMG 5000 BR;EQDQ01+000000PRSWM2
0098156250999992000110307004+42130+024750FM-15+0185LBPD V0209999C00001220001CN0099001N1+01001+00801999999ADDMA1101801999999MW1001REMMET046LBPD 030700Z 00000MPS CAVOK 10/08 Q1018 NOSIG;EQDQ01+000000PRSWM2
0165156250999992000112420004+42130+024750FM-15+0185LBPD V02099999999990078019N0050001N1+00701+00401999999ADDGA1081+007809999GF108991999999999999999999MA1102101999999MW1101REMMET055LBPD 242000Z VRB01MPS 5000 BR OVC026 07/04 Q1021 NOSIG;EQDQ01+000003PRSWM1Q02    003PRSWM1
0098156250999992000120914004+42130+024750FM-15+0185LBPD V0209999C00001220001CN0099001N1+00701+00101999999ADDMA1102711999999MW1001REMMET046LBPD 091400Z 00000MPS CAVOK 07/01 Q1027 NOSIG;EQDQ01+000000PRSWM2
0165156250999992000121016004+42130+024750FM-15+0185LBPD V02099999999990450019N0036001N1+00401+00301999999ADDGA1071+045009999GF107991999999999999999999MA1102101999999MW1101REMMET055LBPD 101600Z VRB02MPS 3600 BR BKN150 04/03 Q1021 NOSIG;EQDQ01+000003PRSWM1Q02    003PRSWM1
0146156250999992000121313004+42130+024750FM-15+0185LBPD V02099999999990240019N0080001N1+01001+00601999999ADDGA1071+024009999GF107991999999999999999999MA1101901999999MW1001REMMET052LBPD 131300Z VRB01MPS 8000 BKN080 10/06 Q1019 NOSIG;EQDQ01+000000PRSWM2
0099156250999992000121710004+42130+024750FM-15+0185LBPD V0209999999999220001CN0099001N1+00701+00001999999ADDMA1101901999999MW1001REMMET047LBPD 171000Z VRB02MPS CAVOK 07/M00 Q1019 NOSIG;EQDQ01+000000PRSWM2
0100156250999992000122303004+42130+024750FM-15+0185LBPD V0201801N00101220001CN0099001N1-00601-00901999999ADDMA1102511999999MW1001REMMET048LBPD 230300Z 18001MPS CAVOK M06/M09 Q1025 NOSIG;EQDQ01+000000PRSWM2
0098156250999992000122909004+42130+024750FM-15+0185LBPD V0202901N00301220001CN0099001N1+00901+00801999999ADDMA1100311999999MW1001REMMET046LBPD 290900Z 29003MPS CAVOK 09/08 Q1003 NOSIG;EQDQ01+000000PRSWM2
0340156270999992000013018004+42670+024830FM-12+238999999V0203201N040020001519N0000001N1-00621-00711999999ADDAA112004191AJ100709199999999AY171061AY241061GA1091+999999999GF109991091999999999999999IA1299KA1120M-00621MA1999999075371MD1310021+9999ME1429609MW1491OA149999999OA259904001REMSYN122AAXX  30181 15627 11/90 93240 11062 21071 37537 47960 53002 60042 74974 333 11062 49070 91188 91240 91532 555 92712 95190;EQDQ01+004003WOSPD Q02  08803WGOSPD
0224156270999992000020209004+42670+024830FM-12+238999999V0203201N010012200019N0500001N1-00041-01031999999ADDAY101031AY201031GF101991011001999999031001MA1999999076521MD1410001+9999ME1430939MW1021OA149901601OA259901401REMSYN104AAXX  02091 15627 41999 13210 11004 21103 37652 47093 54000 70200 81030 333 91116 91214 91532 555 95110;
0253156270999992000021700004+42670+024830FM-12+238999999V0202501N010012200019N0500001N1-00941-01221999999ADDAA199000091AJ100629199999999AY101061AY201061GA1001+999999999GF100991001001999999001001IA1249MA1999999075231MD1810131+9999ME1429449MW1021REMSYN086AAXX  17001 15627 31999 02510 11094 21122 37523 47944 58013 70200 333 48062 555 95100;EQDQ01  00002PRCP99
0263156270999992000021906004+42670+024830FM-12+238999999V0203201N010012200019N0500001N1-01401-01511999999ADDAA112003091AJ100789199999999AY171061AY241061GF103991031001999999031001GJ100009IA1299KA1120N-01501MA1999999074761MD1210101+9999ME1428839MW1011REMSYN110AAXX  19061 15627 11999 33210 11140 21151 37476 47883 52010 60032 70174 83030 333 21150 49078 55000 555 95100;
0224156270999992000022800004+42670+024830FM-12+238999999V0200501N006012200019N0200001N1-01401-01641999999ADDAA199000021AJ100909199999999AY141061AY241061GF103991031001999999071001IA1299MA1999999076541MD1110061+9999ME1430639MW1021REMSYN092AAXX  28001 15627 31998 30506 11140 21164 37654 47063 51006 70244 83070 333 49090 555 95100;
0246156270999992000030300004+42670+024830FM-12+238999999V0201801N006010001519N0000001N1-00471-00571999999ADDAA106003091AJ100849199999999AY171061AY241061GA1091+999999999GF109991091999999999999999IA1219MA1999999075191MD1810131+9999ME1429489MW1731REMSYN098AAXX  03001 15627 11/90 91806 11047 21057 37519 47948 58013 60031 77374 333 45084 555 92713 95190;
0240156270999992000032015004+42670+024830FM-12+238999999V0203201N018010001519N0001001N1-01511-01571999999ADDAY171031AY241031GA1091+999999999GF109991091999999999999999MA1999999075321MD1810081+9999ME1429369MW1491OA149902401OA259901801REMSYN104AAXX  20151 15627 41/91 93218 11151 21157 37532 47936 58008 74974 333 91124 91218 91532 555 92712 95190;
0180156270999992000032821004+42670+024830FM-12+238999999V0202301N002012200019N0500001N1-00181-00331999999ADDAY111031AY211031GF102991021001999999071001MA1999999076291MD1110091+9999ME1430699MW1011REMSYN082AAXX  28211 15627 41999 22302 11018 21033 37629 47069 51009 70111 82070 555 95100;
0220156270999992000041000004+42670+024830FM-12+238999999V0202701N010012200019N0500001N1-00941-01031999999ADDAA199000091AY141061AY201061GA1001+999999999GF100991001001999999001001MA1999999075801MD1810051+9999ME1429999MW1001REMSYN076AAXX  10001 15627 31999 02710 11094 21103 37580 47999 58005 70040 555 95100;EQDQ01  00002PRCP99
0201156270999992000041521004+42670+024830FM-12+238999999V0201401N010019999999N0500001N1+00411+00021999999ADDAY111031AY201031GF105991051001999999011001MA1999999076171ME1430689MW1021REMSYN082AAXX  15211 15627 41999 51410 10041 20002 37617 47068 56000 70210 85010 555 95110;EQDQ01+000062APCTENQ02+000002APC3  
0199156270999992000050803004+42670+024830FM-12+238999999V0209999C000012200019N0200001N1+00271-00141999999ADDAY101031AY201031GF101991001001999999001011KA1999M+00261MA1999999076901MD1410001+9999ME1431439MW1031REMSYN088AAXX  08031 15627 41998 10000 10027 21014 37690 47143 54000 70300 80001 555 10026 95110;
0180156270999992000051115004+42670+024830FM-12+238999999V0203201N004010012019N0200001N1+00811+00511999999ADDAY121031AY221031GF106991061031001501001001MA1999999076801MD1810061+9999ME1431449MW1021REMSYN082AAXX  11151 15627 41298 63204 10081 20051 37680 47144 58006 70222 86300 555 95130;
0190156270999992000052309004+42670+024830FM-12+238999999V0202901N010010003019N0002001N1+00221+00191999999ADDAY141031AY241031GA1091+999999999GF109991091999999999999999MA1999999076391MD1210051+9999ME1430899MW1411REMSYN076AAXX  23091 15627 41/92 92910 10022 20019 37639 47089 52005 74144 555 95199;
0233156270999992000061318004+42670+024830FM-12+238999999V0202301N002012200019N0500001N1+01151+00821999999ADDAA199000091AY101061AY201061GF102991011011999999001011KA1120M+01421MA1999999077691MD1310021+9999ME1432549MW1011REMSYN092AAXX  13181 15627 31999 22302 10115 20082 37769 47254 53002 70100 81101 333 10142 555 95100;EQDQ01  00002PRCP99
0220156270999992000062612004+42670+024820FM-12+238999999V0201801N012010001519N0001001N1+01041+01041999999ADDAA199000091AY141061AY241061GA1091+999999999GF109991091999999999999999MA1999999076431MD1710031+9999ME1431169MW1411REMSYN076AAXX  26121 15627 31/91 91812 10104 20104 37643 47116 57003 74144 555 95199;EQDQ01  00002PRCP99
0234156270999992000071321004+42670+024820FM-12+238999999V0203401N034010001519N0000001N1+00041+00041999999ADDAY141031AY241031GA1091+999999999GF109991091999999999999999MA1999999075581MD1810031+9999ME1430019MW1451OA149904001OA259903401REMSYN098AAXX  13211 15627 41/90 93434 10004 20004 37558 47001 58003 74544 333 91140 91234 91534 555 95190;
0243156270999992000072818004+42670+024820FM-12+238999999V0201601N006012200019N0200001N1+01271+00621999999ADDAA199000091AY101061AY201061GA1001+999999999GF100991001001999999001001KA1120M+01591MA1999999076641MD1810071+9999ME1431439MW1021REMSYN086AAXX  28181 15627 31998 01606 10127 20062 37664 47143 58007 70200 333 10159 555 95110;EQDQ01  00002PRCP99
0253156270999992000072906004+42670+024820FM-12+238999999V0202301N008012200019N0200001N1+01411+00621999999ADDAA199000091AY101061AY201061GA1001+999999999GF100991001001999999001001GJ108169KA1120N+01151MA1999999076481MD1610011+9999ME1431319MW1021REMSYN088AAXX  29061 15627 31998 02308 10141 20062 37648 47131 56001 70200 333 20115 55136 95110;EQDQ01  00002PRCP99
0210156270999992000081512004+42670+024820FM-12+238999999V0200701N006010042019N0200001N1+01161+00591999999ADDAA199000091AY111061AY211061GF107991071021004501001001MA1999999077191MD1810011+9999ME1432009MW1031REMSYN082AAXX  15121 15627 31498 70706 10116 20059 37719 47200 58001 70311 87200 555 95100;EQDQ01  00002PRCP99
0256156270999992000082906004+42670+024820FM-12+238999999V0203201N006010001519N0001001N1+00371+00321999999ADDAA112000191AY121061AY241061GA1091+999999999GF109991091999999999999999GJ107329IA1099KA1120N+00351MA1999999076651MD1310011+9999ME1431209MW1411REMSYN104AAXX  29061 15627 11/91 93206 10037 20032 37665 47120 53001 69912 74124 333 20035 55122 555 31/// 95199;
0254156270999992000092112004+42670+024820FM-12+238999999V0202701N010010360019N0200001N1+01511-00441999999ADDAA199000091AY111061AY211061GF105991031031002501041021MA1999999076931MD1810011+9999ME1431839MW1031OA149901601OA259901401REMSYN104AAXX  21121 15627 31398 52710 10151 21044 37693 47183 58001 70311 83342 333 91116 91214 91527 555 95100;EQDQ01  00002PRCP99
0220156270999992000092212004+42670+024820FM-12+238999999V0201401N006010003019N0002001N1+00761+00701999999ADDAA199000091AY111061AY241061GA1091+999999999GF109991091999999999999999MA1999999076511MD1410001+9999ME1431149MW1411REMSYN076AAXX  22121 15627 31/92 91406 10076 20070 37651 47114 54090 74114 555 95199;EQDQ01  00002PRCP99
0226156270999992000092912004+42670+024820FM-12+238999999V0200501N004012200019N0500001N1+00611-00821999999ADDAA199000091AY101061AY201061GF102991001001999999001011MA1999999076491MD1410001+9999ME1431109MW1031REMSYN082AAXX  29121 15627 31999 20504 10061 21082 37649 47110 51000 70300 80001 555 95110;EQDQ01+000012APCTENQ02  00002PRCP99
0207156270999992000100912004+42670+024820FM-12+238999999V0201401N006010001519N0001001N1+00121+00061999999ADDAA106000891AY151061AY241061GA1091+999999999GF109991091999999999999999MA1999999075861MD1610021+9999ME1430299MW1511REMSYN082AAXX  09121 15627 11/91 91406 10012 20006 37586 47029 56002 69981 75154 555 95190;
0220156270999992000103000004+42670+024820FM-12+238999999V0202501N002012200019N0500001N1+00581-01791999999ADDAA199000091AY101061AY201061GA1001+999999999GF100991001001999999001001MA1999999076721MD1810031+9999ME1431329MW1021REMSYN076AAXX  30001 15627 31999 02502 10058 21179 37672 47132 58003 70200 555 95100;EQDQ01  00002PRCP99
0218156270999992000112315004+42670+024820FM-12+238999999V0203201N002012200019N0500001N1+00041-01221999999ADDAY101031AY201031GA1001+999999999GF100991001001999999001001GG1079013009069049MA1999999076371MD1810061+9999ME1430809MW1021REMSYN086AAXX  23151 15627 41999 03202 10004 21122 37637 47080 58006 70200 444 76134 555 95180;
0180156270999992000113015004+42670+024820FM-12+238999999V0200201N002012200019N0500001N1-00041-00171999999ADDAY101031AY201031GF101991001001999999001011MA1999999076721MD1310031+9999ME1431149MW1031REMSYN082AAXX  30151 15627 41999 10202 11004 21017 37672 47114 53003 70300 80001 555 95130;
0332156270999992000122906004+42670+024820FM-12+238999999V0201801N014010001519N0000001N1-00261-00301999999ADDAA199000091AJ100059199999999AY141061AY241061GA1091+999999999GF109991091999999999999999GJ100009IA1289KA1120N-00281MA1999999075051MD1710041+9999ME1429369MW1491OA149902001OA259901801REMSYN122AAXX  29061 15627 31/90 91814 11026 21030 37505 47936 57004 74944 333 21028 44005 55000 91120 91218 91520 555 92712 95190;EQDQ01  00002PRCP99
