0150711050999992000063010384+50980-127720FM-15+0009CWPI V0201601N002110090019N0241401N1+01101+00901999999ADDGD12991+0060099GD24991+0090099GF108991999999999999999999MW1001REMMET057CWPI 301138Z 16004KT 15SM FEW020 OVC030 11/09 RMK SC1SC7;EQDQ01+000000PRSWM2
0205711050999992000071921004+50980-127720FM-15+0009CWPI V0203201N002610210019N0128741N1+01501+01401999999ADDGD12991+0048099GD23991+0210099GD33991+0300099GF107991999999999999999999MW1001REMMET097CWPI 192100Z 32005KT 8SM FEW016 BKN070 BKN100 15/14 RMK SC1AC5AS2 OBS-24 F PTCHS ALQDS ALTM MISG;EQDQ01+000000PRSWM2
0098711050999992000072212004+50980-127720FM-15+0009CWPI V02099999999992200019N0128741N1+99999+99999999999ADDMW1001REMMET061CWPI 221200Z ///// SKC / RMK WOX 0L-F M/12/12/0000/M/F10 OBS;EQDQ01+000000PRSWM2
0137711050999992000080112004+50980-127720FM-15+0009CWPI V0203201N005112200019N0241401N1+01201+01101999999ADDGD12991+0210099GF102991999999999999999999MW1001REMMET059CWPI 011200Z 32010KT 15SM FEW070 12/11 RMK AC1 OBS TKN -24;EQDQ01+000000PRSWM2
0154711050999992000080121004+50980-127720FM-15+0009CWPI V0203201N005112200019N0241401N1+01501+01301999999ADDGD12991+0060099GD22991+0750099GF102991999999999999999999MW1001REMMET061CWPI 012100Z 32010KT 15SM FEW020 FEW250 15/13 RMK CU1CI1 OBS;EQDQ01+000000PRSWM2
0137711050999992000083021004+50980-127720FM-15+0009CWPI V0203201N002610054019N0241401N1+01201+01101999999ADDGD14991+0054099GF108991999999999999999999MW1001REMMET059CWPI 302100Z 32005KT 15SM OVC018 12/11 RMK SC8 OBS TKN -22;EQDQ01+000000PRSWM2
0154711050999992000092512004+50980-127720FM-15+0009CWPI V0209999C000010001519N0000001N1+00901+00901999999ADDGD15991+0001599GF109991999999000251999999MW1451REMMET060CWPI 251200Z 00000KT 0SM FG VV000 09/09 RMK FG8 OBS TKN -26;EQDQ01+000003PRSWM1Q02    003PRSWM1
0154711050999992000100112004+50980-127720FM-15+0009CWPI V0203201N005110210019N0241401N1+01001+00901999999ADDGD12991+0060099GD23991+0210099GF107991999999999999999999MW1001REMMET061CWPI 011200Z 32010KT 15SM FEW020 BKN070 10/09 RMK SC2AC3 OBS;EQDQ01+000000PRSWM2
0154711050999992000101517354+50980-127720FM-15+0009CWPI V0201401N018010036019N0064371N1+01001+00801999999ADDGD14991+0036099GF108991999999999999999999MW1611REMMET060CWPI 151735Z 14035KT 4SM -RA OVC012 10/08 RMK SC8 ALTM MISG;EQDQ01+000003PRSWM1Q02    003PRSWM1
0137711050999992000101915004+50980-127720FM-15+0009CWPI V0201401N018010054019N0241401N1+01001+00701999999ADDGD14991+0054099GF108991999999999999999999MW1001REMMET059CWPI 191500Z 14035KT 15SM OVC018 10/07 RMK SC8 OBS TKN -27;EQDQ01+000000PRSWM2
0156711050999992000102721004+50980-127720FM-15+0009CWPI V0201401N023110054019N0128741N1+01001+00701999999ADDGD14991+0054099GF108991999999999999999999MW1611REMMET062CWPI 272100Z 14045KT 8SM -RA OVC018 10/07 RMK SC8 OBS TKN -23;EQDQ01+000003PRSWM1Q02    003PRSWM1
0137711050999992000111418004+50980-127720FM-15+0009CWPI V0201401N007710075019N0241401N1+00601+00401999999ADDGD14991+0075099GF108991999999999999999999MW1001REMMET059CWPI 141800Z 14015KT 15SM OVC025 06/04 RMK SC8 OBS TKN -12;EQDQ01+000000PRSWM2
0125711050999992000120912004+50980-127720FM-15+0009CWPI V0203201N002112200019N0241401N1+00201+00001999999ADDGF100991999999999999999999MW1001REMMET062CWPI 091200Z 32004KT 15SM SKC 02/00 RMK OBS TKN -26 ALTM MISG;EQDQ01+000000PRSWM2
0137711050999992000122021004+50980-127720FM-15+0009CWPI V0201401N012910042019N0241401N1+00401+00101999999ADDGD14991+0042099GF108991999999999999999999MW1001REMMET059CWPI 202100Z 14025KT 15SM OVC014 04/01 RMK SC8 OBS TKN -24;EQDQ01+000000PRSWM2
0200711060999992000010817184+49080-125770FM-16+0024CYAZ V0202901N012312200019N0241401N1+99999+99999999999ADDGA1999+004509029GD12991+0045099GD22991+0090099GD32991+0300099GF104991999999999999999999MW1001OC101751REMMET068CYAZ 081718Z 29024G34KT 15SM FEW015TCU SCT030 SCT100 RMK TCU2CF1AC1;EQDQ01+000000PRSWM2
0240711060999992000010901004+49080-125770FM-15+0024CYAZ V0200101N001510270019N0241401N1+00301+00201101801ADDGA1999+005409029GD12991+0054099GD24991+0270099GF108991999999999999999999MA1101801999999MW1001REMMET116CYAZ 090100Z 01003KT 15SM FEW018TCU OVC090 03/02 A3006 RMK TCU1AS7 /053 143 069 214/ LAST OB/NEXT OB 091500Z SLP180;EQDQ01+000000PRSWM2
0221711060999992000011716004+49080-125770FM-15+0024CYAZ V0200401N002110780019N0241401N1+00201+00101102231ADDGD12991+0105099GD22991+0360099GD33991+0780099GF107991999999999999999999MA1102241999999MW1001REMMET098CYAZ 171600Z 04004KT 15SM FEW035 SCT120 BKN260 02/01 A3019 RMK SC1AC2CI1 /031 111 039 142/ SLP223;EQDQ01+000000PRSWM2
0196711060999992000012300004+49080-125770FM-15+0024CYAZ V0200301N001010210019N0241401N1+00701+00601102011ADDGD12991+0150099GD24991+0210099GF108991999999999999999999MA1102001999999MW1001REMMET088CYAZ 230000Z 03002KT 15SM SCT050 OVC070 07/06 A3012 RMK SC3AC5 /012 125 024 194/ SLP201;EQDQ01+000000PRSWM2
0171711060999992000012717004+49080-125770FM-15+0024CYAZ V0200701N002110033019N0193121N1+00501+00501103231ADDGD14991+0033099GF108991999999999999999999MA1103221999999MW1001REMMET078CYAZ 271700Z 07004KT 12SM OVC011 05/05 A3048 RMK SC8 /015 133 023 217/ SLP323;EQDQ01+000000PRSWM2
0221711060999992000013018004+49080-125770FM-15+0024CYAZ V0201101N005110690019N0241401N1+00701+00101100021ADDGD12991+0240099GD23991+0690099GD33991+0810099GF107991999999999999999999MA1100001999999MW1001REMMET098CYAZ 301800Z 11010KT 15SM FEW080 BKN230 BKN270 07/01 A2953 RMK AC2CI2CI2 /020 150 033 129/ SLP002;EQDQ01+000000PRSWM2
0171711060999992000020421004+49080-125770FM-15+0024CYAZ V0201101N001510075019N0241401N1+01001+00601101581ADDGD14991+0075099GF108991999999999999999999MA1101591999999MW1001REMMET078CYAZ 042100Z 11003KT 15SM OVC025 10/06 A3000 RMK SC8 /019 154 032 228/ SLP158;EQDQ01+000000PRSWM2
0226711060999992000020622004+49080-125770FM-15+0024CYAZ V0201101N010310030019N0112651N1+00901+00901102391ADDGD12991+0018099GD24991+0030099GF108991999999999999999999MA1102371999999MW1611OC101441REMMET094CYAZ 062200Z 11020G28KT 7SM -RA SCT006 OVC010 09/09 A3023 RMK SF3SC5 /029 100 110 167/ SLP239;EQDQ01+000003PRSWM1Q02    003PRSWM1
0220711060999992000022901004+49080-125770FM-15+0024CYAZ V0200801N006210030019N0048281N1+00501+00401100531ADDGD14991+0030099GF108991999999999999999999MA1100541999999MW1101MW2611REMMET105CYAZ 290100Z 08012KT 3SM -RA BR OVC010 05/04 A2969 RMK CF8 LAST OB/NEXT 291500Z /030 067 041 142/ SLP053;EQDQ01+000003PRSWM1Q02    003PRSWM1
0171711060999992000030520004+49080-125770FM-15+0024CYAZ V0202901N003612200019N0241401N1+00801+00001101211ADDGD12991+0045099GF102991999999999999999999MA1101191999999MW1001REMMET078CYAZ 052000Z 29007KT 15SM FEW015 08/00 A2988 RMK CF1 /028 133 045 225/ SLP121;EQDQ01+000000PRSWM2
0246711060999992000031515004+49080-125770FM-15+0024CYAZ V0200801N005110690019N0241401N1+00401+00301102231ADDGD12991+0048099GD22991+0120099GD33991+0690099GD43991+0780099GF107991999999999999999999MA1102241999999MW1001REMMET108CYAZ 151500Z 08010KT 15SM SCT016 SCT040 BKN230 BKN260 04/03 A3019 RMK SC3SC1CC1CI1 /040 143 057 218/ SLP223;EQDQ01+000000PRSWM2
0171711060999992000031921004+49080-125770FM-15+0024CYAZ V0202101N003612200019N0241401N1+00901+00401101931ADDGD12991+0096099GF104991999999999999999999MA1101931999999MW1001REMMET078CYAZ 192100Z 21007KT 15SM SCT032 09/04 A3010 RMK CU3 /044 143 057 222/ SLP193;EQDQ01+000000PRSWM2
0196711060999992000033019004+49080-125770FM-15+0024CYAZ V0209999C000010420019N0241401N1+00901+00501103451ADDGD12991+0240099GD24991+0420099GF108991999999999999999999MA1103451999999MW1001REMMET088CYAZ 301900Z 00000KT 15SM SCT080 OVC140 09/05 A3055 RMK AC3AC4 /015 111 021 228/ SLP345;EQDQ01+000000PRSWM2
0169711060999992000040322264+49080-125770FM-16+0024CYAZ V0202801N006210480019N0241401N1+99999+99999999999ADDGD12991+0024099GD23991+0480099GD34991+0690099GF108991999999999999999999MW1001REMMET061CYAZ 032226Z 28012KT 15SM SCT008 BKN160 OVC230 RMK SF3AC2CI2;EQDQ01+000000PRSWM2
0224711060999992000042117004+49080-125770FM-15+0024CYAZ V0201201N007210015019N0032181N1+00901+00901101201ADDGD13991+0015099GD24991+0030099GF108991999999999999999999MA1101191999999MW1101MW2611REMMET094CYAZ 211700Z 12014KT 2SM -RA BR BKN005 OVC010 09/09 A2988 RMK SF6SF2 /016 167 022 207/ SLP120;EQDQ01+000003PRSWM1Q02    003PRSWM1
0171711060999992000050813004+49080-125770FM-15+0024CYAZ V0209999C000012200019N0241401N1+00301+00201101261ADDGD12991+0270099GF102991999999999999999999MA1101251999999MW1001REMMET078CYAZ 081300Z 00000KT 15SM FEW090 03/02 A2990 RMK AC1 /011 153 015 166/ SLP126;EQDQ01+000000PRSWM2
0192711060999992000052200004+49080-125770FM-15+0024CYAZ V0202701N005110018019N0020111N1+01101+01101101831ADDGD14991+0018099GF108991999999999999999999MA1101831999999MW1101MW2611REMMET077CYAZ 220000Z 27010KT 1 1/4SM -RA BR OVC006 11/11 A3007 RMK FG2SF6 R-- SLP183;EQDQ01+000003PRSWM1Q02    003PRSWM1
0203711060999992000052218004+49080-125770FM-15+0024CYAZ V0202601N002610042019N0241401N1+01101+00801102071ADDGD13991+0042099GD23991+0180099GD34991+0330099GF108991999999999999999999MA1102071999999MW1001REMMET080CYAZ 221800Z 26005KT 15SM BKN014 BKN060 OVC110 11/08 A3014 RMK CF5SC1AC2 SLP207;EQDQ01+000000PRSWM2
0178711060999992000060119004+49080-125770FM-15+0024CYAZ V0202901N005112200019N0241401N1+01401+00601102021ADDGD12991+0090099GD22991+0150099GF104991999999999999999999MA1102031999999MW1001REMMET070CYAZ 011900Z 29010KT 15SM FEW030 SCT055 14/06 A3013 RMK CU1CF2 SLP202;EQDQ01+000000PRSWM2
0223711060999992000060514004+49080-125770FM-15+0024CYAZ V0200801N001510240019N0193121N1+00901+00901101201ADDGD12991+0060099GD23991+0240099GD34991+0360099GF108991999999999999999999MA1101191999999MW1611REMMET084CYAZ 051400Z 08003KT 12SM -RA FEW020 BKN080 OVC120 09/09 A2988 RMK CF1AC5AC2 SLP120;EQDQ01+000003PRSWM1Q02    003PRSWM1
0206711060999992000061318004+49080-125770FM-15+0024CYAZ V0201201N004110024019N0048281N1+01201+01201102501ADDGD12991+0009099GD24991+0024099GF108991999999999999999999MA1102511999999MW1101MW2511REMMET076CYAZ 131800Z 12008KT 3SM -DZ BR SCT003 OVC008 12/12 A3027 RMK SF3SF5 SLP250;EQDQ01+000003PRSWM1Q02    003PRSWM1
0147711060999992000061415254+49800-125770FM-16+0024CYAZ V0201901N001010015019N0064371N1+99999+99999999999ADDGD14991+0015099GF108991999999999999999999MW1001MW2511REMMET047CYAZ 141525Z 19002KT 4SM -DZ BR OVC005 RMK SF8;EQDQ01+000100PRSWM3Q02+000003PRSWM1
0153711060999992000062720004+49800-125770FM-15+0024CYAZ V0201801N002112200019N0241401N1+02401+01001101731ADDGD12991+0870099GF104991999999999999999999MA1101731999999MW1001REMMET060CYAZ 272000Z 18004KT 15SM SCT290 24/10 A3004 RMK CI0 SLP173;EQDQ01+000000PRSWM2
0203711060999992000072514004+49070-125770FM-15+0024CYAZ V0209999C000010150019N0241401N1+01501+01401101611ADDGD12991+0030099GD23991+0150099GD33991+0270099GF107991999999999999999999MA1101631999999MW1001REMMET080CYAZ 251400Z 00000KT 15SM SCT010 BKN050 BKN090 15/14 A3001 RMK SC3SC2AC2 SLP161;EQDQ01+000000PRSWM2
0153711060999992000080321004+49070-125770FM-15+0024CYAZ V0201801N002612200019N0241401N1+01401+01301101391ADDGD12991+0006099GF102991999999999999999999MA1101391999999MW1001REMMET060CYAZ 032100Z 18005KT 15SM FEW002 14/13 A2994 RMK SF1 SLP139;EQDQ01+000000PRSWM2
0144711060999992000080720384+49070-125770FM-16+0024CYAZ V0202401N004110030019N0241401N1+99999+99999999999ADDGD12991+0012099GD24991+0030099GF108991999999999999999999MW1001REMMET051CYAZ 072038Z 24008KT 15SM FEW004 OVC010 RMK SF2SC6;EQDQ01+000000PRSWM2
0225711060999992000081821004+49070-125770FM-15+0024CYAZ V0201401N006210036019N0241401N1+01401+01401101371ADDGD12991+0012099GD23991+0036099GD34991+0210099GF108991999999999999999999MA1101351999999MW1801REMMET086CYAZ 182100Z 14012KT 15SM -SHRA FEW004 BKN012 OVC075 14/14 A2993 RMK SF1SC6AC2 SLP137;EQDQ01+000003PRSWM1Q02    003PRSWM1
0269711060999992000081901004+49070-125770FM-15+0024CYAZ V0201401N002610105019N0241401N1+01501+01301101431ADDGA1999+004209029GD12991+0042099GD23991+0105099GD33991+0210099GD44991+0360099GF108991999999999999999999MA1101421999999MW1001REMMET115CYAZ 190100Z 14005KT 15SM FEW014TCU BKN035 BKN075 OVC120 15/13 A2995 RMK TCU2SC3AC2AC1 LAST OB/NEXT 191300Z SLP143;EQDQ01+000000PRSWM2
0155711060999992000082017064+49070-125770FM-16+0024CYAZ V0201201N001010024019N0128741N1+99999+99999999999ADDGD13991+0024099GD24991+0060099GF108991999999999999999999MW1001MW2801REMMET056CYAZ 201706Z 12002KT 8SM -SHRA BKN008 OVC020 RMK CF7SC1;EQDQ01+000003PRSWM1
0197711060999992000082517004+49070-125770FM-15+0024CYAZ V0201601N002610033019N0096561N1+01501+01501101931ADDGD13991+0033099GD24991+0042099GF108991999999999999999999MA1101931999999MW1511REMMET073CYAZ 251700Z 16005KT 6SM -DZ BKN011 OVC014 15/15 A3010 RMK SF6ST2 SLP193;EQDQ01+000003PRSWM1Q02    003PRSWM1
0205711060999992000090319004+49070-125770FM-15+0024CYAZ V0202001N002110690019N0241401N1+01601+01101101821ADDGA1999+009009029GD12991+0090099GD23991+0690099GF107991999999999999999999MA1101831999999MW1001REMMET081CYAZ 031900Z 20004KT 15SM FEW030TCU BKN230 16/11 A3007 RMK TCU1CS1 TCU TR SLP182;EQDQ01+000000PRSWM2
0153711060999992000092421004+49070-125770FM-15+0024CYAZ V0202801N002112200019N0241401N1+02001+00801102091ADDGD12991+0810099GF102991999999999999999999MA1102101999999MW1001REMMET060CYAZ 242100Z 28004KT 15SM FEW270 20/08 A3015 RMK CI1 SLP209;EQDQ01+000000PRSWM2
0155711060999992000100913004+49070-125770FM-15+0024CYAZ V0200201N002112200019N0006041N1+00901+00901100881ADDGF100991999999999999999999MA1100881999999MW1441REMMET061CYAZ 091300Z 02004KT 3/8SM FG SKC 09/09 A2979 RMK FG6 SLP088;EQDQ01+000003PRSWM1Q02    003PRSWM1
0155711060999992000101016004+49070-125770FM-15+0024CYAZ V0209999C000012200019N0008051N1+00901+00901101011ADDGF100991999999999999999999MA1101021999999MW1441REMMET061CYAZ 101600Z 00000KT 1/2SM FG SKC 09/09 A2983 RMK FG6 SLP101;EQDQ01+000003PRSWM1Q02    003PRSWM1
0168711060999992000101321404+49070-125770FM-16+0024CYAZ V0202901N003110015019N0128741N1+99999+99999999999ADDGD13991+0015099GD23991+0030099GD34991+0120099GF108991999999999999999999MW1001REMMET060CYAZ 132140Z 29006KT 8SM BKN005 BKN010 OVC040 RMK SF5SF2SC2;EQDQ01+000000PRSWM2
0203711060999992000102519004+49070-125770FM-15+0024CYAZ V0209999C000010390019N0241401N1+01301+01101101591ADDGD12991+0270099GD23991+0390099GD33991+0750099GF107991999999999999999999MA1101591999999MW1001REMMET080CYAZ 251900Z 00000KT 15SM SCT090 BKN130 BKN250 13/11 A3000 RMK AC3AC2CI1 SLP159;EQDQ01+000000PRSWM2
0209711060999992000102900194+49070-125770FM-16+0024CYAZ V0201001N005110036019N0080461N1+99999+99999999999ADDGA1999+007209029GD12991+0018099GD23991+0036099GD34991+0072099GF108991999999999999999999MW1001MW2101MW3801REMMET073CYAZ 290019Z 10010KT 5SM -SHRA BR FEW006 BKN012 OVC024TCU RMK SF2SF5TCU2;EQDQ01+000003PRSWM1
0203711060999992000110116004+49070-125770FM-15+0024CYAZ V0201101N002610054019N0241401N1+00701+00601102331ADDGD13991+0054099GD23991+0300099GD34991+0750099GF108991999999999999999999MA1102341999999MW1001REMMET080CYAZ 011600Z 11005KT 15SM BKN018 BKN100 OVC250 07/06 A3022 RMK SC5AC1CI1 SLP233;EQDQ01+000000PRSWM2
0228711060999992000111122004+49070-125770FM-15+0024CYAZ V0201201N004110360019N0241401N1+00801+00401102561ADDGD12991+0090099GD22991+0210099GD33991+0360099GD43991+0750099GF107991999999999999999999MA1102541999999MW1001REMMET090CYAZ 112200Z 12008KT 15SM FEW030 SCT075 BKN120 BKN250 08/04 A3028 RMK CU1AC2AC2CS0 SLP256;EQDQ01+000000PRSWM2
0180711060999992000111815004+49070-125770FM-15+0024CYAZ V0209999C000012200019N0241401N1+00001+00001102921ADDGD12991+0240099GD22991+0750099GF104991999999999999999999MA1102911999999MW1001REMMET072CYAZ 181500Z 00000KT 15SM FEW080 SCT250 M00/M00 A3039 RMK AC2CI1 SLP292;EQDQ01+000000PRSWM2
0178711060999992000111923004+49070-125770FM-15+0024CYAZ V0200801N004110210019N0241401N1+00901+00201102341ADDGD13991+0210099GD24991+0360099GF108991999999999999999999MA1102341999999MW1001REMMET070CYAZ 192300Z 08008KT 15SM BKN075 OVC120 09/02 A3022 RMK AC6AC2 SLP234;EQDQ01+000000PRSWM2
0169711060999992000112023354+49070-125770FM-16+0024CYAZ V0201501N005110135019N0160931N1+99999+99999999999ADDGD12991+0066099GD23991+0135099GD34991+0210099GF108991999999999999999999MW1001REMMET061CYAZ 202335Z 15010KT 10SM FEW022 BKN045 OVC075 RMK CF2SC3AC2;EQDQ01+000000PRSWM2
0217711060999992000120116004+49070-125770FM-15+0024CYAZ V0201201N009310090019N0064371N1+00801+00701101431ADDGD12991+0018099GD24991+0090099GF108991999999999999999999MA1101421999999MW1101MW2611OC101441REMMET079CYAZ 011600Z 12018G28KT 4SM -RA BR SCT006 OVC030 08/07 A2995 RMK SF4SC4 SLP143;EQDQ01+000003PRSWM1Q02    003PRSWM1
0149711060999992000121615344+49070-125770FM-16+0024CYAZ V0201801N004110012019N0012071N1+99999+99999999999ADDGD14991+0012099GF108991999999999999999999MW1001MW2101MW3631OC100931REMMET051CYAZ 161534Z 18008G18KT 3/4SM RA BR OVC004 RMK SF8;EQDQ01+000003PRSWM1
0203711060999992000121723004+49070-125770FM-15+0024CYAZ V0203001N001010450019N0241401N1+00601+00501103511ADDGD12991+0270099GD23991+0450099GD34991+0660099GF108991999999999999999999MA1103491999999MW1001REMMET080CYAZ 172300Z 30002KT 15SM FEW090 BKN150 OVC220 06/05 A3056 RMK AC2AS3CI0 SLP351;EQDQ01+000000PRSWM2
0153711060999992000122100004+49070-125770FM-15+0024CYAZ V0200901N001010075019N0160931N1+00401+00401101701ADDGD14991+0075099GF108991999999999999999999MA1101691999999MW1001REMMET060CYAZ 210000Z 09002KT 10SM OVC025 04/04 A3003 RMK SC8 SLP170;EQDQ01+000000PRSWM2
0206711060999992000122516004+49070-125770FM-15+0024CYAZ V0201301N005110048019N0064371N1+00801+00801102361ADDGD12991+0015099GD24991+0048099GF108991999999999999999999MA1102341999999MW1101MW2611REMMET076CYAZ 251600Z 13010KT 4SM -RA BR SCT005 OVC016 08/08 A3022 RMK SF2SC6 SLP236;EQDQ01+000003PRSWM1Q02    003PRSWM1
0193711064999992000012921004+50430-128030FM-15+0021CWIF V0201401N007712200019N0241401N1+01001+00301999999ADDGD12991+0054099GD22991+0075099GD32991+0270099GF104991999999999999999999MW1001REMMET085CWIF 292100Z 14015KT 15SM FEW018 FEW025 SCT090 10/03 RMK SF1SC2AC1 OBS -25 ALTM MISG;EQDQ01+000000PRSWM2
0154711064999992000040521004+50430-128030FM-15+0021CWIF V0202701N009310330019N0241401N1+00701+00301999999ADDGD12991+0060099GD24991+0330099GF108991999999999999999999MW1001REMMET061CWIF 052100Z 27018KT 15SM SCT020 OVC110 07/03 RMK SC3AS5 OBS;EQDQ01+000000PRSWM2
0154711064999992000041721004+50430-128030FM-15+0021CWIF V0203201N006210900019N0241401N1+01201+00401999999ADDGD12991+0060099GD24991+0900099GF108991999999999999999999MW1001REMMET061CWIF 172100Z 32012KT 15SM FEW020 OVC300 12/04 RMK SC1CS2 OBS;EQDQ01+000000PRSWM2
0209711064999992000042018004+50430-128030FM-15+0021CWIF V0201401N007710060019N0193121N1+01101+00901999999ADDGD12991+0048099GD23991+0060099GD34991+0210099GF108991999999999999999999MW1001REMMET101CWIF 201800Z 14015KT 12SM FEW016 BKN020 OVC075 11/09 RMK SF1SC4AC3 OBS TKN -25 SHWRS ALQDS ALTM MISG;EQDQ01+000000PRSWM2
0215711064999992000050821004+50430-128030FM-15+0021CWIF V0203201N009310750019N0241401N1+01201+00801999999ADDGA1999+005409099GD12991+0054099GD22991+0270099GD33991+0750099GF107991999999999999999999MW1001REMMET091CWIF 082100Z 32018KT 15SM FEW018CB SCT090 BKN250 12/08 RMK CB2AC2CI4 OBS TKN -25 ALTM MISG;EQDQ01+000000PRSWM2
0232711064999992000070622354+50420-128290FM-15+0021CWIF V0203201N011310720019N0241401N1+01701+01101999999ADDGD12991+0042099GD22991+0096099GD33991+0720099GD44991+0810099GF108991999999999999999999MW1001REMMET109CWIF 062335Z 32022KT 15SM FEW014 FEW032 BKN240 OVC270 17/11 RMK SF1SC2CS2CC2 LAST OBS/NEXT 071200Z ALTM MISG;EQDQ01+000000PRSWM2
0175711064999992000072712004+50420-128030FM-15+0021CWIF V0201801N018010030019N0080461N1+01401+01401999999ADDGD14991+0030099GF108991999999999999999999MW1101MW2611REMMET075CWIF 271200Z 18035KT 5SM -RA BR OVC010 14/14 RMK SF8 OBS TKN -24 ALTM MISG;EQDQ01+000003PRSWM1Q02    003PRSWM1
0208711064999992000082118004+50420-128030FM-15+0021CWIF V0200901N006210048019N0193121N1+01401+01301999999ADDGD12991+0030099GD23991+0048099GD34991+0210099GF108991999999999999999999MW1001REMMET100CWIF 211800Z 09012KT 12SM FEW010 BKN016 OVC070 14/13 RMK SF1SC4AS3 OBS TKN -25 SHWRS NE-E ALTM MISG;EQDQ01+000000PRSWM2
0231711064999992000082321004+50420-128030FM-15+0021CWIF V0202301N002110210019N0096561N1+01701+01701999999ADDGD12991+0030099GD22991+0075099GD33991+0210099GD43991+0270099GF107991999999999999999999MW1001REMMET108CWIF 232100Z 23004KT 6SM FEW010 SCT025 BKN070 BKN095 17/17 RMK SF1SC3AC2AC2 OBS TKN-25 F BNK N-SE ALTM MISG;EQDQ01+000000PRSWM2
0140711064999992000101918004+50420-128030FM-15+0021CWIF V0200901N020610060019N0096561N1+01201+00801999999ADDGD14991+0060099GF108991999999999999999999MW1001REMMET062CWIF 191800Z 09040KT 6SM OVC020 12/08 RERA RMK SC8 OBS TKN-25;EQDQ01+000000PRSWM2
0180711064999992000111615004+50420-128030FM-15+0021CWIF V0200501N002612200019N0241401N1+00301+00301999999ADDGD12991+0015099GF102991999999999999999999MW1411REMMET086CWIF 161500Z 05005KT 15SM PRFG FEW005 03/03 RMK SF2 OBS TKN -25 VSBY NE-S 5 ALTM MISG;EQDQ01+000003PRSWM1Q02    003PRSWM1
0209711064999992000112515004+50420-128030FM-15+0021CWIF V0202301N010310054019N0193121N1+01001+00901999999ADDGA1999+005409029GD13991+0054099GD23991+0078099GF107991999999999999999999MW1801REMMET084CWIF 251500Z 23020KT 12SM -SHRA BKN018TCU BKN026 10/09 RMK TCU5SC2 OBS-22 ALTM MISG;EQDQ01+000003PRSWM1Q02    003PRSWM1
0156711064999992000120300004+50420-128030FM-15+0021CWIF V02099999999992200019N0241401N1+99999+99999999999ADDMW1001REMMET119CWIF 030000Z ///// FEW015 FEW022 BKN038 RMK + M/8/5/1810E/M/CF1TCU1SC6 OBS TKN-25 LST OBS/NXT 031200Z ALTM MISG SLP125;EQDQ01+000000PRSWM2
0223711064999992000121100004+50420-128030FM-15+0021CWIF V0200501N012910840019N0241401N1+00201-00201999999ADDGD12991+0300099GD24991+0840099GF108991999999999999999999KA1999M+99999MW1001REMMET101CWIF 110000Z 05025KT 15SM FEW100 OVC280 02/M02 RMK AC2CI4 OBS TKN -27 LAST OBS/NXT 111200Z ALTM MISG;EQDQ01+000000PRSWM2Q02 -01202ATMX  
0156711064999992000121818004+50420-128030FM-15+0021CWIF V0201401N020610048019N0096561N1+00701+00201999999ADDGD14991+0048099GF108991999999999999999999MW1611REMMET062CWIF 181800Z 14040KT 6SM -RA OVC016 07/02 RMK SC8 OBS TKN -25;EQDQ01+000003PRSWM1Q02    003PRSWM1
0219711064999992000122421004+50420-128030FM-15+0021CWIF V0200901N018510075019N0160931N1+00901+00401999999ADDGD12991+0054099GD23991+0075099GD34991+0240099GF108991999999999999999999MW1801REMMET095CWIF 242100Z 09036KT 10SM -SHRA FEW018 BKN025 OVC080 09/04 RMK SF1SC5AC2 OBS TKN -25 ALTM MISG;EQDQ01+000003PRSWM1Q02    003PRSWM1
0157711064999992000122515004+50420-128030FM-15+0021CWIF V0200901N009310060019N0160931N1+01001+00801999999ADDGD14991+0060099GF108991999999999999999999MW1611REMMET063CWIF 251500Z 09018KT 10SM -RA OVC020 10/08 RMK SC8 OBS TKN -25;EQDQ01+000003PRSWM1Q02    003PRSWM1
0173711064999992000123021004+50420-128030FM-15+0021CWIF V0201401N007710048019N0096561N1+01001+00801999999ADDGD12991+0024099GD24991+0048099GF108991999999999999999999MW1611REMMET064CWIF 302100Z 14015KT 6SM -RA FEW008 OVC016 10/08 RMK SF2SC6 OBS;EQDQ01+000003PRSWM1Q02    003PRSWM1
0408711080999992000010106004+49030-122370SY-MT+0058CYXX V0202301N00101000901CN0032001N1+00371+00311101101ADDAA106004191AA224017891AC11C9AL12499999AY181061AY221061GD13991+0009099GD24991+0030099GF108991081071000751999999KA1240M+00391KA2240N+00111MA1101081100391MD1810101+9999MW1101MW2211REMSYN122AAXX  01064 71108 11132 82302 10037 20031 30039 40110 58010 60041 72182 887// 333 10039 20011 70178 90913 555 19999 29999;MET072CYXX 010600Z 23002KT 2SM BR BKN003 OVC010 04/03 A2985 RMK SF6SC2 SLP110;EQDQ01    003PRSWM1
0214711080999992000010323234+49030-122370FM-16+0058CYXX V0200401N001510027019N0032181N1+99999+99999999999ADDGD12991+0006099GD22991+0015099GD33991+0027099GD44991+0036099GF108991999999999999999999MW1001MW2611MW3711REMMET079CYXX 032323Z CCA04003KT 2SM -RASN FEW002 SCT005 BKN009 OVC012 RMK SF2SC2SC3SC2;EQDQ01+000003PRSWM1
0193711080999992000010700564+49030-122370FM-16+0058CYXX V0203601N001010090019N0112651N1+99999+99999999999ADDGD12991+0024099GD22991+0054099GD33991+0090099GD44991+0240099GF108991999999999999999999MW1001REMMET070CYXX 070056Z 36002KT 7SM FEW008 SCT018 BKN030 OVC080 RMK SF2SF2SC2AC2;EQDQ01+000000PRSWM2
0301711080999992000011115004+49030-122370SY-MT+0058CYXX V0202201N001010105019N0160001N1+00091-00031100311ADDGD12991+0024099GD22991+0057099GD33991+0105099GF107991999999002501999999MA1100311099601MD1210041+9999MW1001REMSYN060AAXX  11154 71108 42366 72202 10009 21003 39960 40031 52004;MET098CYXX 111500Z 22002KT 10SM FEW008 SCT019 BKN035 01/M00 A2962 RMK SC2SC2SC3 OCNL SW- VRY LGT SLP031;EQDQ01+000000PRSWM2
0399711080999992000011206004+49030-122370SY-MT+0058CYXX V0201901N00461000151CN0008001N1+00041+00011100581ADDAA106002091AA224002491AC13C9AJ100019199999999AL10600191AY181061AY221061GD15991+0001599GF108991999999000251999999IA1309KA1240M+00261KA2240N+00011MA1100581099871MD1210201+9999MW1731MW2861REMSYN112AAXX  12064 71108 11/08 81909 10004 20001 39987 40058 52020 60021 77382 333 10026 20001 42001 70024 90931 93101;MET065CYXX 120600Z 19009KT 1/2SM SHSN VV004 00/00 A2970 RMK SN8 SLP058;EQDQ01    003PRSWM1
0173711080999992000011211004+49030-122370FM-15+0058CYXX V0202201N00411000151CN0016091N1+00101+00001100891ADDGD15991+0001599GF109991999999000251999999MA1100881999999MW1851REMMET064CYXX 121100Z 22008KT 1SM -SHSN VV007 01/00 A2979 RMK SN8 SLP089;EQDQ01+000003PRSWM1Q02    003PRSWM1
0409711080999992000011300004+49030-122370SY-MT+0058CYXX V0200501N00311063001CN0450001N1+00201+00031101551ADDAA106000091AJ100029199999999GD12991+0105099GD22991+0210099GD33991+0630099GF199999021051012501031011IA1309KA1120M+00401KA2180N+00041MA1101521100831MD1010031+9999MW1001REMSYN094AAXX  13004 71108 32683 60506 10020 20003 30083 40155 50003 82531 333 10040 20004 42002 70068;MET080CYXX 130000Z 05006KT 30SM FEW035 SCT070 BKN210 02/00 A2998 RMK SC2AC2CI1 SLP155;EQDQ01+000062SCOTCVQ02+000000PRSWM2Q03  00002PRCP06
0178711080999992000011405004+49030-122370FM-15+0058CYXX V0200101N002110390019N0241401N1+00201+00101101221ADDGD12991+0120099GD24991+0390099GF108991999999999999999999MA1101191999999MW1001REMMET070CYXX 140500Z 01004KT 15SM FEW040 OVC130 02/01 A2988 RMK SC2AC6 SLP122;EQDQ01+000000PRSWM2
0454711080999992000012306004+49030-122370SY-MT+0058CYXX V0200401N00101015001CN0240001N1+00191+00071102331ADDAA106000891AA224000891AJ199993999999999AY181061AY221061GD12991+0090099GD23991+0150099GD34991+0270099GF108991051051008001071999IA1259KA1240M+00341KA2240N-00101MA1102301101611MD1110041+9999MW1011REMSYN112AAXX  23064 71108 11574 80402 10019 20007 30161 40233 51004 69981 70182 8557/ 333 10034 21010 41997 70008 90932;MET080CYXX 230600Z 04002KT 15SM FEW030 BKN050 OVC090 02/01 A3021 RMK SC2SC3AC3 SLP233;EQDQ01+000000PRSWM2Q02    003PRSWM1Q03  09982SNDP  
0229711080999992000012316004+49030-122370FM-15+0058CYXX V0200801N001012200019N0482801N1+00101+00001102121ADDGD12991+0030099GD22991+0120099GD32991+0300099GD42991+0660099GF104991999999999999999999MA1102101999999MW1001REMMET091CYXX 231600Z 08002KT 30SM FEW010 FEW040 FEW100 SCT220 01/M00 A3015 RMK SF1SC1AC1CI0 SLP212;EQDQ01+000000PRSWM2
0344711080999992000012721004+49030-122370SY-MT+0058CYXX V0209999C00001013501CN0240001N1+00731+00321103401ADDGA1999+013509029GD12991+0054099GD22991+0084099GD32991+0135099GD43991+0270099GF199999999999004501999999MA1103391102681MD1810101+9999MW1001REMSYN060AAXX  27214 71108 42474 60000 10073 20032 30268 40340 58010;MET094CYXX 272100Z 00000KT 15SM FEW018 FEW028 SCT045TCU BKN090 07/03 A3053 RMK CU1SC1TCU2AC2 SLP340;EQDQ01+000062SCOTCVQ02+000000PRSWM2
0229711080999992000020200194+49030-122370FM-16+0058CYXX V0202401N007710036019N0032181N1+99999+99999999999ADDGA1999+003609029GD12991+0021099GD23991+0036099GD33991+0120099GF107991999999999999999999MW1001MW2811OC101131REMMET075CYXX 020019Z 24015G22KT 2SM SHRA BR FEW007 BKN012TCU BKN040 RMK CF2TCU3SC2;EQDQ01+000100PRSWM3Q02+000003PRSWM1
0270711080999992000020209004+49030-122370SY-MT+0058CYXX V0202201N002110240019N0240001N1+00631+00381102311ADDGD12991+0090099GD24991+0240099GF108991999999008001999999MA1102301101601MD1110371+9999MW1801REMSYN066AAXX  02094 71108 41574 82204 10063 20038 30160 40231 51037 780//;MET076CYXX 020900Z 22004KT 15SM -SHRA SCT030 OVC080 06/04 A3021 RMK SC4AC4 SLP231;EQDQ01    003PRSWM1
0131711080999992000021105004+49030-122370FM-15+0058CYXX V0200901N001512200019N0241401N1+00101+00001101151ADDGF100991999999999999999999MA1101151999999MW1001REMMET053CYXX 110500Z 09003KT 15SM SKC 01/00 A2987 RMK SLP115;EQDQ01+000000PRSWM2
0178711080999992000021611004+49030-122370FM-15+0058CYXX V0200501N002612200019N0241401N1+00201+00101102551ADDGD12991+0075099GD22991+0240099GF102991999999999999999999MA1102541999999MW1001REMMET070CYXX 161100Z 05005KT 15SM FEW025 FEW080 02/01 A3028 RMK SC1AC1 SLP255;EQDQ01+000000PRSWM2
0154711080999992000021907004+49030-122370FM-15+0058CYXX V0200401N001510450019N0241401N1+00201-00301102591ADDGD13991+0450099GF107991999999999999999999MA1102571999999MW1001REMMET061CYXX 190700Z 04003KT 15SM BKN150 02/M03 A3029 RMK AC6 SLP259;EQDQ01+000000PRSWM2
0179711080999992000022022004+49030-122370FM-15+0058CYXX V0201301N002110750019N0482801N1+01201-00101100641ADDGD12991+0450099GD24991+0750099GF108991999999999999999999MA1100641999999MW1001REMMET071CYXX 202200Z 13004KT 30SM SCT150 OVC250 12/M01 A2972 RMK AC3CI1 SLP064;EQDQ01+000000PRSWM2
0309711080999992000022315004+49030-122370SY-MT+0058CYXX V0203601N002110090019N0300001N1+00491+00381101211ADDGD12991+0075099GD23991+0090099GD33991+0135099GF107991999999008001999999MA1101191100501MD1110131+9999MW1801REMSYN066AAXX  23154 71108 41580 73604 10049 20038 30050 40121 51013 780//;MET100CYXX 231500Z CCA36004KT 20SM -SHRA FEW025 BKN030 BKN045 05/04 A2988 RMK SC2SC4SC2 VSBY LWR N SLP121;EQDQ01    003PRSWM1
0262711080999992000022502004+49030-122370FM-15+0058CYXX V0200901N00261027001CN0482801N1+00601+00001101491ADDGA1999+007509029GD12991+0075099GD22991+0135099GD32991+0270099GD43991+0660099GF107991999999999999999999MA1101491999999MW1001REMMET108CYXX 250200Z 09005KT 30SM FEW025TCU FEW045 SCT090 BKN220 06/00 A2997 RMK TCU1SC2AC2CI0 SHRA DSTNT NE SLP149;EQDQ01+000000PRSWM2
0203711080999992000022520004+49030-122370FM-15+0058CYXX V0200501N001510270019N0482801N1+00701+00001101501ADDGD12991+0135099GD23991+0270099GD34991+0450099GF108991999999999999999999MA1101491999999MW1001REMMET080CYXX 252000Z 05003KT 30SM FEW045 BKN090 OVC150 07/00 A2997 RMK SC2AC3AS2 SLP150;EQDQ01+000000PRSWM2
0295711080999992000030103004+49030-122370SY-MT+0058CYXX V0202101N003110030019N0160001N1+00791+00681101561ADDGD12991+0021099GD23991+0030099GD34991+0084099GF108991999999002501999999MA1101561100851MD1210321+9999MW1801REMSYN066AAXX  01034 71108 41366 82106 10079 20068 30085 40156 52032 780//;MET086CYXX 010300Z 21006KT 10SM -SHRA SCT007 BKN010 OVC028 08/07 A2999 RMK SF3SC4SC1 SLP156;EQDQ01    003PRSWM1
0241711080999992000030419004+49030-122370FM-15+0058CYXX V0202201N002110021019N0080461N1+00601+00401101111ADDGD12991+0009099GD23991+0021099GD34991+0054099GF108991999999999999999999MA1101081999999MW1101MW2611REMMET096CYXX 041900Z 22004KT 5SM -RA BR FEW003 BKN007 OVC018 06/04 A2985 RMK SF2SC4SC2 VSBY E 10 SLP111;EQDQ01+000003PRSWM1Q02    003PRSWM1
0154711080999992000030810004+49030-122370FM-15+0058CYXX V0200501N001010210019N0241401N1+00601-00201101491ADDGD14991+0210099GF108991999999999999999999MA1101491999999MW1001REMMET061CYXX 081000Z 05002KT 15SM OVC075 06/M02 A2997 RMK AC8 SLP149;EQDQ01+000000PRSWM2
0203711080999992000031914004+49030-122370FM-15+0058CYXX V0201901N004110600019N0321861N1+00401+00101101681ADDGD12991+0075099GD22991+0240099GD33991+0600099GF107991999999999999999999MA1101661999999MW1001REMMET080CYXX 191400Z 19008KT 20SM FEW025 SCT080 BKN200 04/01 A3002 RMK SC2AC2CI3 SLP168;EQDQ01+000000PRSWM2
0248711080999992000032317004+49030-122370FM-15+0058CYXX V0202001N003610090019N0321861N1+00601+00401102261ADDGD12991+0045099GD23991+0090099GD34991+0150099GF108991999999999999999999MA1102271999999MW1801REMMET109CYXX 231700Z 20007KT 20SM -SHRA FEW015 BKN030 OVC050 06/04 A3020 RMK CF2SC4SC1 TCU ASCTD VSBY LWR W-N SLP226;EQDQ01+000003PRSWM1Q02    003PRSWM1
0339711080999992000040118004+49030-122370SY-MT+0058CYXX V0209999C00001003601CN0300001N1+00961+00661102971ADDAA124000091GD13991+0036099GD24991+0120099GF108991081041004501999999KA1120M+00981KA2240N+00721MA1102951102251MD1610021+9999MW1001REMSYN088AAXX  01184 71108 32480 80000 10096 20066 30225 40297 56002 884// 333 10098 20072 70000;MET070CYXX 011800Z 00000KT 20SM BKN012 OVC040 10/07 A3040 RMK SC6SC2 SLP297;EQDQ01+000000PRSWM2Q02  00002PRCP24
0378711080999992000040412004+49030-122370SY-MT+0058CYXX V0202201N00361009901CN0160001N1+00911+00741101501ADDAA124000091GD12991+0039099GD23991+0099099GD34991+0240099GF108991061011004501071999GJ104329KA1999M+01921KA2120N+00911MA1101491100801MD1510011+9999MW1001REMSYN094AAXX  04124 71108 32466 82207 10091 20074 30080 40150 55001 8617/ 333 10192 20091 55072 70000;MET080CYXX 041200Z 22007KT 10SM SCT013 BKN033 OVC080 09/07 A2997 RMK SF3SC3AC2 SLP150;EQDQ01+000000PRSWM2Q02  00002PRCP24
0203711080999992000040502004+49030-122370FM-15+0058CYXX V0202501N006212200019N0482801N1+00901+00301101961ADDGD12991+0075099GD22991+0120099GD32991+0240099GF102991999999999999999999MA1101961999999MW1001REMMET080CYXX 050200Z 25012KT 30SM FEW025 FEW040 FEW080 09/03 A3011 RMK SC1SC1AC1 SLP196;EQDQ01+000000PRSWM2
0397711080999992000040512004+49030-122370SY-MT+0058CYXX V0202001N002610120019N0250001N1+00501+00251102151ADDAA106000791AY181061AY221061GD13991+0120099GD23991+0240099GF199999051051012501071001GJ102829KA1999M+01161KA2120N+00531MA1102131101441MD1610061+9999MW1021REMSYN106AAXX  05124 71108 11675 62005 10050 20025 30144 40215 56006 69901 70282 85570 333 10116 20053 55047 70012;MET070CYXX 051200Z 20005KT 15SM BKN040 BKN080 05/03 A3016 RMK SC5AC2 SLP215;EQDQ01+000062SCOTCVQ02+000000PRSWM2Q03    003PRSWM1
0179711080999992000040713004+49030-122370FM-15+0058CYXX V0200101N001512200019N0482801N1+00001-00101103141ADDGD12991+0150099GD22991+0240099GF102991999999999999999999MA1103121999999MW1001REMMET071CYXX 071300Z 01003KT 30SM FEW050 FEW080 00/M01 A3045 RMK SC1AC1 SLP314;EQDQ01+000000PRSWM2
0178711080999992000040814004+49030-122370FM-15+0058CYXX V0203201N001510690019N0482801N1+00401+00201102391ADDGD12991+0360099GD23991+0690099GF107991999999999999999999MA1102371999999MW1001REMMET070CYXX 081400Z 32003KT 30SM FEW120 BKN230 04/02 A3023 RMK AC1CI1 SLP239;EQDQ01+000000PRSWM2
0338711080999992000041403004+49030-122370SY-MT+0058CYXX V0202201N00211009001CN0090001N1+01191+01061100621ADDGD12991+0012099GD22991+0045099GD32991+0090099GD43991+0210099GF108991999999001501999999MA1100611099921MD1510041+9999MW1101MW2801REMSYN066AAXX  14034 71108 41259 82204 10119 20106 39992 40062 55004 780//;MET108CYXX 140300Z 22004KT 6SM -SHRA BR FEW004 FEW015 SCT030 BKN070 OVC120 12/11 A2971 RMK CF2CF1SC2AC2AC1 SLP062;EQDQ01    003PRSWM1
0366711080999992000041612004+49030-122370SY-MT+0058CYXX V0203601N00261075001CN0240001N1+00511+00441101391ADDAA124008691GD12991+0240099GD23991+0750099GF199999021001022501071061GJ108469KA1999M+01451KA2120N+00501MA1101391100681MD1110011+9999MW1001REMSYN094AAXX  16124 71108 32874 63605 10051 20044 30068 40139 51001 82076 333 10145 20050 55141 70086;MET083CYXX 161200Z 36005KT 15SM FEW080 BKN250 05/04 A2994 RMK AC2CS1 FG BNK NW-NE SLP139;EQDQ01+000062SCOTCVQ02+000000PRSWM2
0249711080999992000041715004+49030-122370SY-MT+0058CYXX V0200301N004112200019N0450001N1+00691+00451101471ADDGD12991+0075099GF199999999999008001999999MA1101461100771MD1310041+9999MW1001REMSYN060AAXX  17154 71108 42583 10308 10069 20045 30077 40147 53004;MET060CYXX 171500Z 03008KT 30SM FEW025 07/05 A2996 RMK SF1 SLP147;EQDQ01+000012SCOTCVQ02+000000PRSWM2
0179711080999992000042714344+49030-122370FM-16+0058CYXX V0200101N001010240019N0402331N1+99999+99999999999ADDGD12991+0150099GD23991+0240099GD34991+0600099GF108991999999999999999999MW1001MW2611REMMET065CYXX 271434Z 01002KT 25SM -RA FEW050 BKN080 OVC200 RMK SC2AC5CI2;EQDQ01+000003PRSWM1
0178711080999992000042810004+49030-122370FM-15+0058CYXX V0201501N001012200019N0241401N1+00901+00201101231ADDGD12991+0045099GD22991+0150099GF102991999999999999999999MA1101221999999MW1001REMMET070CYXX 281000Z 15002KT 15SM FEW015 FEW050 09/02 A2989 RMK CF1SC2 SLP123;EQDQ01+000000PRSWM2
0228711080999992000042814004+49030-122370FM-15+0058CYXX V0209999C000010240019N0482801N1+00801+00201101381ADDGD12991+0120099GD23991+0240099GD33991+0360099GD43991+0720099GF107991999999999999999999MA1101391999999MW1001REMMET090CYXX 281400Z 00000KT 30SM FEW040 BKN080 BKN120 BKN240 08/02 A2994 RMK SC2AC3AC1CI1 SLP138;EQDQ01+000000PRSWM2
0178711080999992000042910004+49030-122370FM-15+0058CYXX V0202001N003112200019N0241401N1+00601+00301102571ADDGD12991+0144099GD22991+0270099GF104991999999999999999999MA1102571999999MW1001REMMET070CYXX 291000Z 20006KT 15SM SCT048 SCT090 06/03 A3029 RMK SC3AC1 SLP257;EQDQ01+000000PRSWM2
0198711080999992000050108004+49030-122370FM-15+0058CYXX V0200801N001010210019N0241401N1+01001+00801101831ADDGD12991+0120099GD24991+0210099GF108991999999999999999999MA1101831999999MW1611REMMET074CYXX 010800Z 08002KT 15SM -RA SCT040 OVC070 10/08 A3007 RMK SC3AC5 SLP183;EQDQ01+000003PRSWM1Q02    003PRSWM1
0221711080999992000050217004+49030-122370FM-15+0058CYXX V0201201N001010750019N0080461N1+01401+00901101481ADDGD12991+0015099GD22991+0045099GD34991+0750099GF108991999999999999999999MA1101491999999MW1101REMMET082CYXX 021700Z 12002KT 5SM BR FEW005 SCT015 OVC250 14/09 A2997 RMK CF1CU2CI2 SLP148;EQDQ01+000003PRSWM1Q02    003PRSWM1
0228711080999992000050420004+49030-122370FM-15+0058CYXX V0201901N005110270019N0402331N1+01501+00401101501ADDGD12991+0060099GD22991+0135099GD33991+0270099GD43991+0750099GF107991999999999999999999MA1101491999999MW1001REMMET090CYXX 042000Z 19010KT 25SM FEW020 SCT045 BKN090 BKN250 15/04 A2997 RMK CF1SC3AC2CI1 SLP150;EQDQ01+000000PRSWM2
0440711080999992000050518004+49030-122370SY-MT+0058CYXX V0201201N001510090019N0160001N1+00681+00471101471ADDAA106004191AA224008491AY181061AY221061GD12991+0015099GD22991+0033099GD33991+0090099GD43991+0180099GF107991999071001501001001KA1120M+00841KA2240N+00591MA1101461100761MD1310081+9999MW1801REMSYN106AAXX  05184 71108 11266 71203 10068 20047 30076 40147 53008 60041 78082 88700 333 10084 20059 70084 90981;MET096CYXX 051800Z 12003KT 10SM -SHRA FEW005 SCT011 BKN030 BKN060 07/05 A2996 RMK CF2CF2SC2SC2 SLP147;EQDQ01+000082SCOTLCQ02    003PRSWM1
0203711080999992000051322004+49030-122370FM-15+0058CYXX V0203101N001010390019N0482801N1+02101+00001101641ADDGD12991+0150099GD23991+0390099GD33991+0750099GF107991999999999999999999MA1101631999999MW1001REMMET080CYXX 132200Z 31002KT 30SM FEW050 BKN130 BKN250 21/00 A3001 RMK CF1AC5CI1 SLP164;EQDQ01+000000PRSWM2
0228711080999992000051419004+49030-122370FM-15+0058CYXX V0209999C000010390019N0482801N1+01901+00701101231ADDGD12991+0150099GD22991+0240099GD33991+0390099GD44991+0750099GF108991999999999999999999MA1101221999999MW1001REMMET090CYXX 141900Z 00000KT 30SM FEW050 FEW080 BKN130 OVC250 19/07 A2989 RMK CU1AC1AC6CI0 SLP123;EQDQ01+000000PRSWM2
0209711080999992000051914514+49030-122370FM-16+0058CYXX V0200401N002110021019N0048281N1+99999+99999999999ADDGD12991+0012099GD23991+0021099GD34991+0039099GF108991999999999999999999MW1001MW2511REMMET079CYXX 191451Z 04004KT 3SM -DZ BR SCT004 BKN007 OVC013 RMK FG2SF2SF2ST2 VSBY S 5;EQDQ01+000100PRSWM3Q02+000003PRSWM1
0231711080999992000052104004+49030-122370FM-15+0058CYXX V0200101N003110018019N0048281N1+01101+01001102061ADDGD12991+0009099GD23991+0018099GD34991+0030099GF108991999999999999999999MA1102071999999MW1101MW2611REMMET086CYXX 210400Z 01006KT 3SM -RA BR FEW003 BKN006 OVC010 11/10 A3014 RMK SF1SF6SC2 SLP206;EQDQ01+000003PRSWM1Q02    003PRSWM1
0181711080999992000052520004+49030-122370FM-15+0058CYXX V0202401N004110750019N0402331N1+01601+00501101251ADDGD12991+0090099GD23991+0750099GF107991999999999999999999MA1101251999999MW1001REMMET073CYXX 252000Z 24008KT 25SM FEW030 BKN250 16/05 A2990 RMK CU1CI2 HZ SLP125;EQDQ01+000000PRSWM2
0224711080999992000053116004+49030-122370FM-15+0058CYXX V0202001N001010045019N0048281N1+01101+00901102221ADDGD12991+0012099GD23991+0045099GD34991+0090099GF108991999999999999999999MA1102201999999MW1801REMMET085CYXX 311600Z 20002KT 3SM -SHRA FEW004 BKN015 OVC030 11/09 A3018 RMK CF2SC3SC3 SLP222;EQDQ01+000003PRSWM1Q02    003PRSWM1
0201711080999992000060123354+49030-122370FM-16+0058CYXX V0202801N003110105019N0482801N1+99999+99999999999ADDGA1999+010509029GD13991+0105099GD23991+0210099GD33991+0750099GF107991999999999999999999MW1001MW2801REMMET071CYXX 012335Z 28006KT 30SM -SHRA BKN035TCU BKN070 BKN250 RMK TCU5AC1CI1;EQDQ01+000003PRSWM1
0178711080999992000060417004+49030-122370FM-15+0058CYXX V0200901N001510750019N0482801N1+02201+01201101651ADDGD12991+0480099GD23991+0750099GF107991999999999999999999MA1101661999999MW1001REMMET070CYXX 041700Z 09003KT 30SM FEW160 BKN250 22/12 A3002 RMK AC2CI2 SLP165;EQDQ01+000000PRSWM2
0153711080999992000061710004+49300-122360FM-15+0058CYXX V0209999C000010750019N0241401N1+01301+01001101841ADDGD13991+0750099GF107991999999999999999999MA1101831999999MW1001REMMET060CYXX 171000Z 00000KT 15SM BKN250 13/10 A3007 RMK CI1 SLP184;EQDQ01+000000PRSWM2
0211711080999992000062209004+49300-122360SY-MT+0058CYXX V0209999C000012200019N0240001N1+01061+00791101781ADDGF100991001001999999001001MA1101801101081MD1310021+9999MW1001REMSYN060AAXX  22094 71108 42974 00000 10106 20079 30108 40178 53002;MET053CYXX 220900Z 00000KT 15SM SKC 11/08 A3006 RMK SLP178;EQDQ01+000000PRSWM2
0258711080999992000062521004+49300-122360SY-MT+0058CYXX V0202601N001012200019N0450001N1+02551+01501102451ADDGD12991+0120099GD22991+0750099GF103991999999012501999999MA1102441101751MD1710151+9999MW1001REMSYN060AAXX  25214 71108 42683 32602 10255 20150 30175 40245 57015;MET070CYXX 252100Z 26002KT 30SM FEW040 SCT250 26/15 A3025 RMK CF1CI1 SLP245;EQDQ01+000000PRSWM2
0228711080999992000070501004+49300-122360FM-15+0058CYXX V0200301N002610240019N0321861N1+01801+00901101761ADDGD12991+0105099GD22991+0150099GD33991+0240099GD43991+0360099GF107991999999999999999999MA1101761999999MW1001REMMET090CYXX 050100Z 03005KT 20SM FEW035 SCT050 BKN080 BKN120 18/09 A3005 RMK CU2SC2AC3AC1 SLP176;EQDQ01+000000PRSWM2
0323711080999992000070618004+49300-122360SY-MT+0058CYXX V0202301N00311075001CN0450001N1+01841+01081101641ADDAA124000791GD12991+0084099GD23991+0750099GF107991021011008001001011KA1120M+01861KA2240N+00931MA1101631100941MD1510041+9999MW1001REMSYN088AAXX  06184 71108 32583 72306 10184 20108 30094 40164 55004 82101 333 10186 20093 79999;MET070CYXX 061800Z 23006KT 30SM FEW028 BKN250 18/11 A3001 RMK CU2CI2 SLP164;EQDQ01+000000PRSWM2
0206711080999992000071014004+49300-122360FM-15+0058CYXX V0202501N002610150019N0321861N1+01501+01201101881ADDGD12991+0090099GD23991+0150099GD34991+0210099GF108991999999999999999999MA1101901999999MW1001REMMET083CYXX 101400Z 25005KT 20SM FEW030 BKN050 OVC070 15/12 A3009 RMK SC1SC4AC4 HZ SLP188;EQDQ01+000000PRSWM2
0178711080999992000071213004+49300-122360FM-15+0058CYXX V0209999C000012200019N0482801N1+00901+00801101891ADDGD12991+0150099GD22991+0360099GF102991999999999999999999MA1101901999999MW1001REMMET070CYXX 121300Z 00000KT 30SM FEW050 FEW120 09/08 A3009 RMK SC1AC1 SLP189;EQDQ01+000000PRSWM2
0171711080999992000072221334+49030-122360FM-16+0058CYXX V0202501N007210135019N0241401N1+99999+99999999999ADDGD12991+0045099GD23991+0135099GD34991+0270099GF108991999999999999999999MW1001REMMET063CYXX 222133Z 25014KT 15SM SCT015 BKN045 OVC090 / RMK SC3SC4AC1;EQDQ01+000000PRSWM2
0153711080999992000072508004+49030-122360FM-15+0058CYXX V0200101N001010690019N0241401N1+01601+01301101571ADDGD13991+0690099GF107991999999999999999999MA1101591999999MW1001REMMET060CYXX 250800Z 01002KT 15SM BKN230 16/13 A3000 RMK CI2 SLP157;EQDQ01+000000PRSWM2
0330711080999992000072815004+49030-122360SY-MT+0058CYXX V0209999C00001006001CN0090001N1+01651+01521101821ADDGD12991+0024099GD22991+0033099GD32991+0060099GD43991+0105099GF108991999999002501999999MA1101831101121MD1210101+9999MW1611REMSYN066AAXX  28154 71108 41359 80000 10165 20152 30112 40182 52010 761//;MET106CYXX 281500Z 00000KT 6SM -RA BR FEW008 FEW011 SCT020 BKN035 OVC070 17/15 A3007 RMK SF1CF2SC1SC2AC2 SLP182;EQDQ01    003PRSWM1
0277711080999992000080921004+49030-122360SY-MT+0058CYXX V0202601N005112200019N0400001N1+02281+01531101401ADDGD12991+0120099GD22991+0390099GF199999999999012501999999MA1101421100711MD1810021+9999MW1001REMSYN060AAXX  09214 71108 42682 12610 10228 20153 30071 40140 58002;MET073CYXX 092100Z 26010KT 25SM FEW040 FEW130 23/15 A2995 RMK CU1AC1 HZ SLP140;EQDQ01+000012SCOTCVQ02+000000PRSWM2
0299711080999992000082015004+49030-122360SY-MT+0058CYXX V0209999C000010240019N0450001N1+01331+01181102391ADDGD12991+0135099GD23991+0240099GD33991+0450099GF199999999999012501999999MA1102401101691MD1210101+9999MW1001REMSYN060AAXX  20154 71108 42683 60000 10133 20118 30169 40239 52010;MET080CYXX 201500Z 00000KT 30SM FEW045 BKN080 BKN150 13/12 A3024 RMK SC1AC5AC1 SLP239;EQDQ01+000062SCOTCVQ02+000000PRSWM2
0153711080999992000082216004+49030-122360FM-15+0058CYXX V0209999C000012200019N0482801N1+01701+01301101731ADDGD12991+0750099GF102991999999999999999999MA1101731999999MW1001REMMET060CYXX 221600Z 00000KT 30SM FEW250 17/13 A3004 RMK CI1 SLP173;EQDQ01+000000PRSWM2
0350711080999992000082718004+49030-122360SY-MT+0058CYXX V0202701N00311021001CN0400001N1+01631+00811101691ADDAA124000091GD12991+0084099GD23991+0210099GF107991031021008001071001KA1120M+01641KA2240N+01251MA1101691100991MD1310061+9999MW1001REMSYN088AAXX  27184 71108 32582 72706 10163 20081 30099 40169 53006 83270 333 10164 20125 70000;MET081CYXX 271800Z 27006KT 25SM SCT028 BKN070 16/08 A3003 RMK CU3AC3 TCU ASOCTD SLP169;EQDQ01+000000PRSWM2Q02  00002PRCP24
0203711080999992000090313004+49030-122360FM-15+0058CYXX V0200101N000510210019N0482801N1+01101+01001101771ADDGD12991+0150099GD23991+0210099GD33991+0300099GF107991999999999999999999MA1101761999999MW1001REMMET080CYXX 031300Z 01001KT 30SM SCT050 BKN070 BKN100 11/10 A3005 RMK SC3AC2AC2 SLP177;EQDQ01+000000PRSWM2
0428711080999992000090418004+49030-122360SY-MT+0058CYXX V0202101N00411024001CN0190001N1+01651+01061102151ADDAA106000592AA224000492AY181061AY221061GD12991+0075099GD22991+0180099GD33991+0240099GF199999041081008001071001KA1120M+01661KA2240N+01181MA1102171101451MD1210081+9999MW1051REMSYN106AAXX  04184 71108 11569 62108 10165 20106 30145 40215 52008 69941 70582 84870 333 10166 20118 70004 90931;MET083CYXX 041800Z 21008KT 12SM FEW025 SCT060 BKN080 17/11 A3017 RMK CU2SC2AC1 HZ SLP215;EQDQ01+000062SCOTCVQ02+000000PRSWM2Q03    003PRSWM1
0198711080999992000091721324+49030-122360FM-16+0058CYXX V0209999C000010090019N0160931N1+99999+99999999999ADDGD12991+0045099GD23991+0090099GD34991+0180099GF108991999999999999999999MW1001MW2801REMMET084CYXX 172132Z 00000KT 10SM -SHRA FEW015 BKN030 OVC060 RMK CF2SC3SC2 RN SHWRS VRY LGT;EQDQ01+000003PRSWM1
0377711080999992000091806004+49030-122360SY-MT+0058CYXX V0209999C00001014401CN0140001N1+01691+01451102171ADDAA106000792AA224000692AY161061AY221061GD13991+0144099GF199999061051012501001001KA1240M+01851KA2240N+01091MA1102171101471MD1010021+9999MW1051REMSYN106AAXX  18064 71108 11664 60000 10169 20145 30147 40217 50002 69901 70562 86500 333 10185 20109 70006 90962;MET062CYXX 180600Z 00000KT 9SM BKN048 17/15 A3017 RMK SC6 HZ SLP217;EQDQ01+000062SCOTCVQ02+000000PRSWM2Q03    003PRSWM1
0337711080999992000092012004+49030-122360SY-MT+0058CYXX V0209999C00001030001CN0240001N1+01441+01231101821ADDAA124000791GD12991+0180099GD24991+0300099GF108991021051017501071999GJ104689KA1999M+02351KA2120N+01191MA1101831101121MD1610201+9999MW1001REMSYN094AAXX  20124 71108 32774 80000 10144 20123 30112 40182 56020 8257/ 333 10235 20119 55078 79999;MET070CYXX 201200Z 00000KT 15SM FEW060 OVC100 14/12 A3007 RMK SC2AC6 SLP182;EQDQ01+000000PRSWM2
0151711080999992000100413004+49030-122360FM-15+0058CYXX V0209999C000012200019N0128741N1+00501+00401102261ADDGF100991999999999999999999MA1102271999999MW1121REMMET057CYXX 041300Z 00000KT 8SM MIFG SKC 05/04 A3020 RMK SLP226;EQDQ01+000003PRSWM1Q02    003PRSWM1
0203711080999992000101317004+49030-122360FM-15+0058CYXX V0200401N000510240019N0241401N1+01201+00901102291ADDGD12991+0060099GD22991+0120099GD33991+0240099GF107991999999999999999999MA1102271999999MW1001REMMET080CYXX 131700Z 04001KT 15SM FEW020 SCT040 BKN080 12/09 A3020 RMK CF2SC2AC2 SLP229;EQDQ01+000000PRSWM2
0225711080999992000101810004+49030-122360FM-15+0058CYXX V0202001N002110150019N0241401N1+01201+01001101321ADDGD12991+0075099GD23991+0150099GD33991+0210099GF107991999999999999999999MA1101321999999MW1801REMMET086CYXX 181000Z 20004KT 15SM -SHRA FEW025 BKN050 BKN075 12/10 A2992 RMK SC2SC3AC2 SLP132;EQDQ01+000003PRSWM1Q02    003PRSWM1
0178711080999992000102107004+49030-122360FM-15+0058CYXX V0202101N004112200019N0241401N1+00901+00601101191ADDGD12991+0114099GD22991+0210099GF104991999999999999999999MA1101191999999MW1001REMMET070CYXX 210700Z 21008KT 15SM FEW038 SCT070 09/06 A2988 RMK SC2AC2 SLP119;EQDQ01+000000PRSWM2
0153711080999992000102407004+49030-122360FM-15+0058CYXX V0202501N001512200019N0241401N1+00801+00701101741ADDGD12991+0360099GF102991999999999999999999MA1101731999999MW1001REMMET060CYXX 240700Z 25003KT 15SM FEW120 08/07 A3004 RMK AC2 SLP174;EQDQ01+000000PRSWM2
0203711080999992000102416004+49030-122360FM-15+0058CYXX V0200301N000510390019N0482801N1+00901+00701101701ADDGD12991+0300099GD23991+0390099GD33991+0750099GF107991999999999999999999MA1101691999999MW1001REMMET080CYXX 241600Z 03001KT 30SM FEW100 BKN130 BKN250 09/07 A3003 RMK AC1AS6CI1 SLP170;EQDQ01+000000PRSWM2
0133711080999992000111610004+49030-122360FM-15+0058CYXX V0203601N002112200019N0241401N1-00401-00501102661ADDGF100991999999999999999999MA1102641999999MW1001REMMET055CYXX 161000Z 36004KT 15SM SKC M04/M05 A3031 RMK SLP266;EQDQ01+000000PRSWM2
0302711080999992000111612004+49030-122360SY-MT+0058CYXX V0209999C000012200019N0240001N1-00331-00501102691ADDAA124000091GF100991001001999999001001GJ104989KA1999M+00871KA2120N-00421MA1102681101971MD1110061+9999MW1001REMSYN088AAXX  16124 71108 32974 00000 11033 21050 30197 40269 51006 333 10087 21042 55083 70000;MET055CYXX 161200Z 00000KT 15SM SKC M03/M05 A3032 RMK SLP269;EQDQ01+000000PRSWM2Q02  00002PRCP24
0224711080999992000112411004+49030-122360FM-15+0058CYXX V0209999C000010060019N0241401N1+00601+00601102611ADDGD12991+0024099GD23991+0060099GD33991+0240099GF107991999999999999999999MA1102611999999MW1121REMMET085CYXX 241100Z 00000KT 15SM MIFG FEW008 BKN020 BKN080 06/06 A3030 RMK SF2SC2AC1 SLP261;EQDQ01+000003PRSWM1Q02    003PRSWM1
0331711080999992000120606004+49030-122360SY-MT+0058CYXX V0203501N001012200019N0240001N1+00071-00091102941ADDAA124000091GD12991+0660099GF199999001001999999001011KA1240M+00991KA2240N+00001MA1102911102221MD1510011+9999MW1001REMSYN088AAXX  06064 71108 32974 13502 10007 21009 30222 40294 55001 80001 333 10099 20000 70000;MET061CYXX 060600Z 35002KT 15SM FEW220 01/M01 A3039 RMK CI1 SLP294;EQDQ01+000012SCOTCVQ02+000000PRSWM2Q03  00002PRCP24
0180711080999992000121205004+49030-122360FM-15+0058CYXX V0200901N003610750019N0241401N1-00101-01501102001ADDGD12991+0450099GD23991+0750099GF107991999999999999999999MA1101961999999MW1001REMMET072CYXX 120500Z 09007KT 15SM FEW150 BKN250 M01/M15 A3011 RMK AC2CI2 SLP200;EQDQ01+000000PRSWM2
0341711080999992000121400004+49030-122360SY-MT+0058CYXX V0200601N003112200019N0450001N1-00021-01061100701ADDAA124000091GD12991+0240099GD22991+0270099GF102991021001022501071001KA1120M+00151KA2180N-00651MA1100681099981MD1810021+9999MW1001REMSYN088AAXX  14004 71108 32883 20606 11002 21106 39998 40070 58002 82070 333 10015 21065 70000;MET072CYXX 140000Z 06006KT 30SM FEW080 FEW090 M00/M11 A2973 RMK AC1AC2 SLP070;EQDQ01+000000PRSWM2Q02  00002PRCP24
0439711090999992000010312004+50680-127370SY-MT+0022CYZT V0201101N010310012019N0160001N1+00151-00161101921ADDAA106004191AA224009491AC12I9AJ100059199999999AL10600391AY181061AY221061GF108991081051001501001001GJ100009IA1309KA1999M+00201KA2120N+00031MA1999999101651MD1810111+9999MW1831REMSYN124AAXX  03124 71109 11266 81120 10015 21016 30165 40192 58011 60041 78382 88500 333 10020 20003 42005 55000 70094 90962 93103;MET090CYZT 031200Z CCA11018G25K 10SM -SHRASN SCT006 OVC018 02/M02 A3010 RMK SF3SC4 /S02/ SLP192;EQDQ01+000000PRSWM2Q02    003PRSWM1
0203711090999992000010623004+50680-127370FM-15+0022CYZT V0201301N007210132019N0321861N1+00601+00401101841ADDGD12991+0054099GD22991+0102099GD33991+0132099GF107991999999999999999999MA1101831999999MW1001REMMET080CYZT 062300Z 13014KT 20SM SCT018 SCT034 BKN044 06/04 A3007 RMK SC3SC1SC2 SLP184;EQDQ01+000000PRSWM2
0200711090999992000011202004+50680-127370FM-15+0022CYZT V0209999C000012200019N0241401N1+00001-00101099941ADDGA1999+010509029GD12991+0045099GD22991+0105099GF102991999999999999999999MA1099931999999MW1001REMMET076CYZT 120200Z 00000KT 15SM FEW015 FEW035TCU M00/M01 A2951 RMK SF1TCU2 SLP994;EQDQ01+000000PRSWM2
0238711090999992000011418004+50680-127370SY-MT+002299999V0201101N00511012001CN0300001N1+00261+00061100561ADDAA106003091AJ100039199999999AL10600191AY181061AY221061GD12991+0018099GD22991+0036099GD33991+0120099GF107991071051001501001001IA1279KA1999M+00321KA2999N+00041MA1100541100291MD1310021+9999MW1251OC100771EQDQ01+000000PRSWM2Q02    003PRSWM1
0144711090999992000011815254+50680-127370FM-16+0022CYZT V0202401N001510018019N0193121N1+99999+99999999999ADDGD13991+0018099GD24991+0042099GF108991999999999999999999MW1001REMMET051CYZT 181525Z 24003KT 12SM BKN006 OVC014 RMK SF6SC2;EQDQ01+000000PRSWM2
0169711090999992000012115244+50680-127370FM-16+0022CYZT V0202001N001510039019N0241401N1+99999+99999999999ADDGD12991+0021099GD23991+0039099GD33991+0075099GF107991999999999999999999MW1001REMMET061CYZT 211524Z 20003KT 15SM SCT007 BKN013 BKN025 RMK SF2SC2SC0;EQDQ01+000000PRSWM2
0113711090999992000012215444+50680-127370FM-16+0022CYZT V0209999C000012200019N0024141N1+99999+99999999999ADDGF100991999999999999999999MW1001MW2101REMMET044CYZT 221544Z 00000KT 1 1/2SM BR SKC RMK FG6;EQDQ01+000003PRSWM1
0132711090999992000012422004+50680-127370FM-15+0022CYZT V0201201N002612200019N0321861N1+00401-00101101711ADDGF100991999999999999999999MA1101691999999MW1001REMMET054CYZT 242200Z 12005KT 20SM SKC 04/M01 A3003 RMK SLP171;EQDQ01+000000PRSWM2
0258711090999992000020815004+50680-127370SY-MT+0022CYZT V0201101N005110240019N0240001N1+00591+00401101451ADDGD12991+0180099GD23991+0240099GF107991999999017501999999MA1101461101181MD1810101+9999MW1001REMSYN060AAXX  08154 71109 42774 71110 10059 20040 30118 40145 58010;MET070CYZT 081500Z 11010KT 15SM SCT060 BKN085 06/04 A2996 RMK SC2AC2 SLP145;EQDQ01+000000PRSWM2
0393711090999992000020918004+50680-127370SY-MT+0022CYZT V0209999C00001027001CN0300001N1+00571+00481101801ADDAA124006991GD12991+0012099GD22991+0210099GD32991+0270099GD44991+0360099GF108991011061001501071001KA1120M+00681KA2240N+00301MA1101801101531MD1210231+9999MW1001REMSYN088AAXX  09184 71109 32280 80000 10057 20048 30153 40180 52023 81670 333 10068 20030 70068;MET110CYZT 091800Z 00000KT 20SM FEW004 FEW070 SCT095 OVC120 06/05 A3006 RMK ST1AC1AC2AC3 VSBY S 2 DUE LO CLD SLP180;EQDQ01+000000PRSWM2
0299711090999992000021103004+50680-127370SY-MT+0022CYZT V0202201N001010750019N0300001N1+00271+00141101321ADDGD12991+0090099GD22991+0135099GD33991+0750099GF199999999999008001999999MA1101321101051MD1610151+9999MW1001REMSYN060AAXX  11034 71109 42580 52202 10027 20014 30105 40132 56015;MET080CYZT 110300Z 22002KT 20SM FEW030 SCT045 BKN250 03/01 A2992 RMK SC1SC2CI0 SLP132;EQDQ01+000052SCOTCVQ02+000000PRSWM2
0179711090999992000021110004+50680-127370FM-15+0022CYZT V0209999C000012200019N0241401N1+00101-00101101151ADDGD12991+0081099GD22991+0129099GF102991999999999999999999MA1101151999999MW1001REMMET071CYZT 111000Z 00000KT 15SM FEW027 FEW043 01/M01 A2987 RMK SC1SC1 SLP115;EQDQ01+000000PRSWM2
0329711090999992000021112004+50680-127370SY-MT+0022CYZT V0202601N00151008101CN0240001N1+00091-00021101071ADDAA124000091GD13991+0081099GF107991071051008001001001GJ101809KA1999M+00781KA2120N-00031MA1101051100801MD1710121+9999MW1001REMSYN094AAXX  11124 71109 32574 72603 10009 21002 30080 40107 57012 87500 333 10078 21003 55030 70000;MET061CYZT 111200Z 26003KT 15SM BKN027 01/M00 A2984 RMK SC7 SLP107;EQDQ01+000000PRSWM2Q02  00002PRCP24
0288711090999992000021406004+50680-127370SY-MT+0022CYZT V0202001N002112200019N0300001N1-00101-00281100321ADDAA124000091GF100991001001999999001001KA1240M+00701KA2240N-00201MA1100311100051MD1810101+9999MW1001REMSYN082AAXX  14064 71109 32980 02004 11010 21028 30005 40032 58010 333 10070 21020 70000;MET055CYZT 140600Z 20004KT 20SM SKC M01/M03 A2962 RMK SLP032;EQDQ01+000000PRSWM2Q02  00002PRCP24
0329711090999992000021512004+50680-127370SY-MT+0022CYZT V0201701N00361013801CN0240001N1+00211-00271101441ADDAA124000091GD14991+0138099GF108991081051012501999999GJ104569KA1999M+00561KA2120N-00061MA1101421101171MD1210241+9999MW1001REMSYN094AAXX  15124 71109 32674 81707 10021 21027 30117 40144 52024 885// 333 10056 21006 55076 70000;MET061CYZT 151200Z 17007KT 15SM OVC046 02/M03 A2995 RMK SC8 SLP144;EQDQ01+000000PRSWM2Q02  00002PRCP24
0405711090999992000022106004+50680-127370SY-MT+0022CYZT V0202201N00101010501CN0240001N1+00681+00391100321ADDAA106000891AA224000891AC11C9AY161061AY221061GD13991+0105099GD24991+0300099GF108991061051012501071999KA1240M+00961KA2240N+00621MA1100311100061MD1510001+9999MW1611OA132401291REMSYN122AAXX  21064 71109 11674 82202 10068 20039 30006 40032 55000 69981 76162 8657/ 333 10096 20062 70008 90917 555 31025 40071;MET074CYZT 210600Z 22002KT 15SM -RA BKN035 OVC100 07/04 A2962 RMK SC6AC2 SLP032;EQDQ01    003PRSWM1
0169711090999992000022905244+50680-127370FM-16+0022CYZT V0201401N002110099019N0241401N1+99999+99999999999ADDGD12991+0024099GD22991+0045099GD34991+0099099GF108991999999999999999999MW1001REMMET061CYZT 290524Z 14004KT 15SM FEW008 SCT015 OVC033 RMK SF2SC2SC5;EQDQ01+000000PRSWM2
0203711090999992000030210004+50680-127370FM-15+0022CYZT V0200901N001510108019N0241401N1+00501+00301101151ADDGD12991+0024099GD23991+0108099GD34991+0144099GF108991999999999999999999MA1101151999999MW1001REMMET080CYZT 021000Z 09003KT 15SM FEW008 BKN036 OVC048 05/03 A2987 RMK SF2SC5SC2 SLP115;EQDQ01+000000PRSWM2
0261711090999992000030323004+50680-127370FM-15+0022CYZT V0203401N004110069019N0321861N1+00601+00401101511ADDGD12991+0021099GD22991+0036099GD33991+0069099GD43991+0150099GF107991999999999999999999MA1101491999999MW1801REMMET107CYZT 032300Z 34008KT 20SM -SHRA FEW007 SCT012 BKN023 BKN050 06/04 A2997 RMK SF2SC2SC3SC1 TCU ASOCTD SLP151;EQDQ01+000003PRSWM1Q02    003PRSWM1
0189711090999992000030519004+50680-127370FM-15+0022CYZT V0200701N002612200019N0321861N1+00501+00201101411ADDGD12991+0036099GD22991+0090099GF104991999999999999999999MA1101391999999MW1001REMMET081CYZT 051900Z 07005KT 20SM FEW012 SCT030 05/02 A2994 RMK SF2SC2 CU TOPS SE SLP141;EQDQ01+000000PRSWM2
0154711090999992000030608004+50680-127370FM-15+0022CYZT V0202301N002112200019N0241401N1+00201-00101101151ADDGD12991+0066099GF102991999999999999999999MA1101151999999MW1001REMMET061CYZT 060800Z 23004KT 15SM FEW022 02/M01 A2987 RMK SC1 SLP115;EQDQ01+000000PRSWM2
0133711090999992000030710004+50680-127370FM-15+0022CYZT V0209999C000012200019N0241401N1+00001-00101100991ADDGF100991999999999999999999MA1100981999999MW1001REMMET055CYZT 071000Z 00000KT 15SM SKC M00/M01 A2982 RMK SLP099;EQDQ01+000000PRSWM2
0239711090999992000031216004+50680-127370FM-15+0022CYZT V0201101N008210123019N0321861N1+00601+00401101991ADDGD12991+0030099GD22991+0075099GD33991+0123099GD44991+0360099GF108991999999999999999999MA1102001999999MW1001OC101231REMMET093CYZT 121600Z 11016G24KT 20SM FEW010 SCT025 BKN041 OVC120 06/04 A3012 RMK SF1SF2SC4AC1 SLP199;EQDQ01+000000PRSWM2
0283711090999992000031415004+50680-127370SY-MT+0022CYZT V0202201N001510150019N0160001N1+00301+00221101751ADDGD12991+0105099GD23991+0150099GD33991+0360099GF107991999999012501999999MA1101761101481MD1210271+9999MW1001REMSYN060AAXX  14154 71109 42666 72203 10030 20022 30148 40175 52027;MET080CYZT 141500Z 22003KT 10SM SCT035 BKN050 BKN120 03/02 A3005 RMK SC2SC2AC1 SLP175;EQDQ01+000000PRSWM2
0245711090999992000031701004+50680-127370FM-15+0022CYZT V0202601N002610090019N0321861N1+00801+00401101941ADDGA1999+009009029GD12991+0054099GD23991+0090099GD33991+0180099GF107991999999999999999999MA1101931999999MW1801REMMET090CYZT 170100Z 26005KT 20SM -SHRA FEW018 BKN030TCU BKN060 08/04 A3010 RMK SC1TCU4SC2 SLP194;EQDQ01+000003PRSWM1Q02    003PRSWM1
0178711090999992000031910004+50680-127370FM-15+0022CYZT V0209999C000010135019N0241401N1+00201+00101101161ADDGD13991+0135099GD24991+0270099GF108991999999999999999999MA1101151999999MW1001REMMET070CYZT 191000Z 00000KT 15SM BKN045 OVC090 02/01 A2987 RMK SC6AC2 SLP116;EQDQ01+000000PRSWM2
0178711090999992000032304004+50680-127370FM-15+0022CYZT V0202501N002612200019N0160931N1+00401+00301101581ADDGD12991+0060099GD22991+0126099GF104991999999999999999999MA1101561999999MW1001REMMET070CYZT 230400Z 25005KT 10SM FEW020 SCT042 04/03 A2999 RMK SF1SC2 SLP158;EQDQ01+000000PRSWM2
0203711090999992000032313004+50680-127370FM-15+0022CYZT V0201801N001510180019N0241401N1+00401+00201102011ADDGD12991+0066099GD22991+0135099GD33991+0180099GF107991999999999999999999MA1102001999999MW1001REMMET080CYZT 231300Z 18003KT 15SM FEW022 SCT045 BKN062 04/02 A3012 RMK SC1SC2SC4 SLP201;EQDQ01+000000PRSWM2
0245711090999992000032401004+50680-127370FM-15+0022CYZT V0209999C000010078019N0321861N1+00701+00401102191ADDGA1999+007809029GD12991+0045099GD23991+0078099GD33991+0210099GF107991999999999999999999MA1102201999999MW1801REMMET090CYZT 240100Z 00000KT 20SM -SHRA FEW015 BKN026TCU BKN075 07/04 A3018 RMK SF1TCU4AC2 SLP219;EQDQ01+000003PRSWM1Q02    003PRSWM1
0225711090999992000032414004+50680-127370FM-15+0022CYZT V0201701N002610240019N0321861N1+00401+00201101831ADDGD12991+0120099GD22991+0150099GD34991+0240099GF108991999999999999999999MA1101831999999MW1801REMMET086CYZT 241400Z 17005KT 20SM -SHRA FEW040 SCT055 OVC085 04/02 A3007 RMK SC2SC2AC5 SLP183;EQDQ01+000003PRSWM1Q02    003PRSWM1
0306711090999992000032703004+50680-127370SY-MT+0022CYZT V0201301N004610126019N0300001N1+00951+00301101141ADDGD12991+0060099GD23991+0126099GD34991+0360099GF108991999999008001999999MA1101151100881MD1810251+9999MW1801OC100871REMSYN066AAXX  27034 71109 41580 81309 10095 20030 30088 40114 58025 780//;MET089CYZT 270300Z 13009G17KT 20SM -SHRA FEW020 BKN042 OVC120 10/03 A2987 RMK SF1SC6AC2 SLP114;EQDQ01    003PRSWM1
0311711090999992000032715004+50680-127370SY-MT+0022CYZT V0202301N002110090019N0300001N1+00581+00471100801ADDGD12991+0030099GD22991+0060099GD33991+0090099GF107991999999004501999999MA1100811100541MD1310031+9999MW1801REMSYN066AAXX  27154 71109 41480 72304 10058 20047 30054 40080 53003 780//;MET102CYZT 271500Z 23004KT 20SM -SHRA FEW010 SCT020 BKN030 06/05 A2977 RERA RMK SF2SC2SC3 TCU ASOCTD SLP080;EQDQ01    003PRSWM1
0199711090999992000040217004+50680-127370FM-15+0022CYZT V0209999C000010009019N0032181N1+00601+00601102701ADDGD13991+0009099GD24991+0018099GF108991999999999999999999MA1102711999999MW1101REMMET075CYZT 021700Z 00000KT 2SM BR BKN003 OVC006 06/06 A3033 RMK FG2SF5SF2 SLP270;EQDQ01+000003PRSWM1Q02    003PRSWM1
0203711090999992000040719004+50680-127370FM-15+0022CYZT V0201301N005110105019N0321861N1+00801+00301102981ADDGD13991+0105099GD23991+0180099GD34991+0270099GF108991999999999999999999MA1102981999999MW1001REMMET080CYZT 071900Z 13010KT 20SM BKN035 BKN060 OVC090 08/03 A3041 RMK SC6SC2AC1 SLP298;EQDQ01+000000PRSWM2
0299711090999992000040803004+50680-127370SY-MT+0022CYZT V0201301N001510123019N0300001N1+00821+00521102881ADDGD12991+0090099GD23991+0123099GD33991+0270099GF199999999999008001999999MA1102881102611MD1810041+9999MW1001REMSYN060AAXX  08034 71109 42580 61303 10082 20052 30261 40288 58004;MET080CYZT 080300Z 13003KT 20SM FEW030 BKN041 BKN090 08/05 A3038 RMK SC1SC5AC1 SLP288;EQDQ01+000062SCOTCVQ02+000000PRSWM2
0178711090999992000040820004+50680-127370FM-15+0022CYZT V0200301N003110750019N0321861N1+00801+00701102421ADDGD12991+0150099GD23991+0750099GF107991999999999999999999MA1102401999999MW1001REMMET070CYZT 082000Z 03006KT 20SM FEW050 BKN250 08/07 A3024 RMK SC1CI2 SLP242;EQDQ01+000000PRSWM2
0178711090999992000041105004+50680-127370FM-15+0022CYZT V0201801N002110660019N0241401N1+00801+00601102371ADDGD12991+0480099GD23991+0660099GF107991999999999999999999MA1102371999999MW1001REMMET070CYZT 110500Z 18004KT 15SM FEW160 BKN220 08/06 A3023 RMK AC2CI4 SLP237;EQDQ01+000000PRSWM2
0271711090999992000041315004+50680-127370SY-MT+0022CYZT V0209999C000010015019N0190001N1+00591+00541101081ADDGD13991+0015099GD24991+0024099GF108991999999001501999999MA1101081100821MD1710211+9999MW1001REMSYN060AAXX  13154 71109 42269 80000 10059 20054 30082 40108 57021;MET083CYZT 131500Z 00000KT 12SM BKN005 OVC008 06/05 A2985 RMK SF6SF2 VSBY SE-SW 3 SLP108;EQDQ01+000000PRSWM2
0199711090999992000041416004+50680-127370FM-15+0022CYZT V0202201N004112200019N0321861N1+00601-00301100381ADDGA1999+006009029GD12991+0060099GD22991+0150099GF102991999999999999999999MA1100371999999MW1001REMMET075CYZT 141600Z 22008KT 20SM FEW020TCU FEW050 06/M03 A2964 RMK TCU1SC1 SLP038;EQDQ01+000000PRSWM2
0233711090999992000042409004+50680-127370SY-MT+0022CYZT V0202001N002112200019N0240001N1+00181+00021102571ADDGD12991+0180099GF102991999999022501999999MA1102571102301MD1310061+9999MW1001REMSYN060AAXX  24094 71109 42874 22004 10018 20002 30230 40257 53006;MET060CYZT 240900Z 20004KT 15SM FEW067 02/00 A3029 RMK AC2 SLP257;EQDQ01+000000PRSWM2
0220711090999992000042901004+50680-127370FM-15+0022CYZT V0202101N002610090019N0193121N1+00901+00701101531ADDGA1999+009009029GD12991+0060099GD23991+0090099GF107991999999999999999999MA1101521999999MW1801REMMET080CYZT 290100Z 21005KT 12SM -SHRA FEW020 BKN030TCU 09/07 A2998 RMK SF2TCU5 SLP153;EQDQ01+000003PRSWM1Q02    003PRSWM1
0407711090999992000050100004+50680-127370SY-MT+0022CYZT V0201201N00621007801CN0240001N1+00911+00641101441ADDAA106002091AA224002491AY161061AY261061GD12991+0024099GD23991+0078099GD34991+0114099GF108991081051002501999999KA1120M+00981KA2180N+00711MA1101461101181MD1110031+9999MW1611OC100871REMSYN106AAXX  01004 71109 11374 81212 10091 20064 30118 40144 51003 60021 76166 885// 333 10098 20071 70024 90973;MET086CYZT 010000Z 12010G17KT 15SM -RA FEW008 BKN026 OVC038 09/06 A2996 RMK SF1S3SC4 SLP144;EQDQ01    003PRSWM1
0178711090999992000050111004+50680-127370FM-15+0022CYZT V0200601N001012200019N0241401N1+00201+00201101821ADDGD12991+0045099GD22991+0120099GF102991999999999999999999MA1101831999999MW1001REMMET070CYZT 011100Z 06002KT 15SM FEW015 FEW040 02/02 A3007 RMK SC1SC2 SLP182;EQDQ01+000000PRSWM2
0178711090999992000050407004+50680-127370FM-15+0022CYZT V0201401N001010240019N0241401N1+00601+00401101131ADDGD12991+0120099GD23991+0240099GF107991999999999999999999MA1101121999999MW1001REMMET070CYZT 040700Z 14002KT 15SM SCT040 BKN080 06/04 A2986 RMK SC3AC2 SLP113;EQDQ01+000000PRSWM2
0250711090999992000050419004+50680-127370FM-15+0022CYZT V0200501N001510270019N0321861N1+00801+00501101191ADDGD12991+0036099GD22991+0102099GD33991+0270099GD44991+0690099GF108991999999999999999999MA1101191999999MW1801REMMET096CYZT 041900Z 05003KT 20SM -SHRA FEW012 SCT034 BKN090 OVC230 08/05 A2988 RMK SC2SC2AC2CI1 SLP119;EQDQ01+000003PRSWM1Q02    003PRSWM1
0203711090999992000050817004+50680-127370FM-15+0022CYZT V0209999C000010033019N0321861N1+00801+00501101371ADDGD13991+0033099GD23991+0075099GD34991+0690099GF108991999999999999999999MA1101391999999MW1001REMMET080CYZT 081700Z 00000KT 20SM BKN011 BKN025 OVC230 08/05 A2994 RMK SC6SC2CI0 SLP137;EQDQ01+000000PRSWM2
0226711090999992000050822004+50680-127370FM-15+0022CYZT V0203201N005110147019N0321861N1+01001+00601101341ADDGD12991+0102099GD23991+0147099GD33991+0690099GF107991999999999999999999MA1101321999999MW1001OC100771REMMET095CYZT 082200Z 32010G15KT 20SM SCT034 BKN049 BKN230 10/06 A2992 RMK SC3SC2CI1 TCU DVLPG N SLP134;EQDQ01+000000PRSWM2
0391711090999992000051500004+50680-127370SY-MT+0022CYZT V0203101N006210750019N0300001N1+01551+00681101361ADDAA124000091GD12991+0120099GD22991+0300099GD33991+0750099GF199999011051012501071011KA1120M+01641KA2180N+00761MA1101351101101MD1810081+9999MW1001OC100931REMSYN088AAXX  15004 71109 32680 53112 10155 20068 30110 40136 58008 81571 333 10164 20076 70000;MET083CYZT 150000Z 31012G18KT 20SM FEW040 FEW100 BKN250 16/07 A2993 RMK SC1AC1CI0 SLP136;EQDQ01+000052SCOTCVQ02+000000PRSWM2Q03  00002PRCP24
0245711090999992000052304004+50680-127370FM-15+0022CYZT V0202701N001010090019N0241401N1+00801+00601102201ADDGA1999+009009029GD12991+0045099GD23991+0090099GD33991+0150099GF107991999999999999999999MA1102201999999MW1801REMMET090CYZT 230400Z 27002KT 15SM -SHRA FEW015 BKN030TCU BKN050 08/06 A3018 RMK SC2TCU3SC2 SLP220;EQDQ01+000003PRSWM1Q02    003PRSWM1
0258711090999992000052515004+50680-127370SY-MT+0022CYZT V0202901N001512200019N0300001N1+00841+00451101451ADDGD12991+0048099GD22991+0075099GF102991999999004501999999MA1101461101191MD1710091+9999MW1001REMSYN060AAXX  25154 71109 42480 22903 10084 20045 30119 40145 57009;MET070CYZT 251500Z 29003KT 20SM FEW016 FEW025 08/05 A2996 RMK SC1SC1 SLP145;EQDQ01+000000PRSWM2
0200711090999992000061008004+50680-127370FM-15+0022CYZT V0202601N001510051019N0160931N1+00901+00801101041ADDGD13991+0051099GD24991+0135099GF108991999999999999999999MA1101051999999MW1801REMMET076CYZT 100800Z 26003KT 10SM -SHRA BKN017 OVC045 09/08 A2984 RMK SC5SC3 SLP104;EQDQ01+000003PRSWM1Q02    003PRSWM1
0307711090999992000061715004+50670-127360SY-MT+0022CYZT V0200801N002610075019N0120001N1+01151+01041101891ADDGD12991+0012099GD22991+0048099GD33991+0075099GD43991+0150099GF107991999999001501999999MA1101901101631MD1610101+9999MW1001REMSYN060AAXX  17154 71109 42262 70805 10115 20104 30163 40189 56010;MET089CYZT 171500Z 08005KT 8SM FEW004 SCT016 BKN025 BKN050 12/10 A3009 RMK SF2SC2SC2SC1 SLP189;EQDQ01+000000PRSWM2
0314711090999992000062618004+50670-127360SY-MT+0022CYZT V0200501N002612200019N0300001N1+01351+01201102451ADDAA124000091GD12991+0018099GF102991021061001501001001KA1120M+01531KA2240N+00701MA1102471102191MD1610061+9999MW1001REMSYN088AAXX  26184 71109 32280 20505 10135 20120 30219 40245 56006 82600 333 10153 20070 70000;MET060CYZT 261800Z 05005KT 20SM FEW006 14/12 A3026 RMK SF1 SLP245;EQDQ01+000000PRSWM2Q02  00002PRCP24
0236711090999992000062803004+50670-127360SY-MT+0022CYZT V0201101N002110840019N0300001N1+01511+01231101781ADDGD13991+0840099MA1101801101521MD1010001+9999MW1001REMSYN060AAXX  28034 71109 42980 61104 10151 20123 30152 40178 50000;MET073CYZT 280300Z 11004KT 20SM BKN280 15/12 A3006 RMK CI3 F BNK NW - E SLP178;EQDQ01+000062SCOTCVQ02+000000PRSWM2
0178711090999992000072001004+50670-127360FM-15+0022CYZT V0203301N004110270019N0321861N1+01901+01501102321ADDGD12991+0105099GD23991+0270099GF107991999999999999999999MA1102341999999MW1001REMMET070CYZT 200100Z 33008KT 20SM FEW035 BKN090 19/15 A3022 RMK SC2AC6 SLP232;EQDQ01+000000PRSWM2
0313711090999992000072021004+50670-127360SY-MT+0022CYZT V0200101N002112200019N0300001N1+01801+01511102151ADDGD12991+0060099GD22991+0105099GD32991+0750099GF199999999999008001999999MA1102171101891MD1710081+9999MW1001REMSYN060AAXX  20214 71109 42580 10104 10180 20151 30189 40215 57008;MET094CYZT 202100Z 01004KT 20SM FEW020 FEW035 FEW250 18/15 A3017 RMK SC1CU1CI0 TCU OVR MNLND SLP215;EQDQ01+000012SCOTCVQ02+000000PRSWM2
0235711090999992000072323004+50670-127360FM-15+0022CYZT V0200701N001010060019N0241401N1+01701+01301102511ADDGD12991+0036099GD23991+0060099GD34991+0120099GF108991999999999999999999MA1102511999999MW1801REMMET096CYZT 232300Z 07002KT 15SM -SHRA FEW012 BKN020 OVC040 17/13 A3027 RMK SF2SC5SC2 VSBY SE 6 SLP251;EQDQ01+000003PRSWM1Q02    003PRSWM1
0203711090999992000072422004+50670-127360FM-15+0022CYZT V0202501N004110180019N0321861N1+02001+01401101991ADDGD12991+0084099GD23991+0180099GD33991+0270099GF107991999999999999999999MA1102001999999MW1001REMMET080CYZT 242200Z 25008KT 20SM SCT028 BKN060 BKN090 20/14 A3012 RMK SC3SC2AC2 SLP199;EQDQ01+000000PRSWM2
0178711090999992000072814004+50670-127360FM-15+0022CYZT V0202101N001510210019N0321861N1+01301+01201101701ADDGD12991+0090099GD23991+0210099GF107991999999999999999999MA1101691999999MW1001REMMET070CYZT 281400Z 21003KT 20SM SCT030 BKN070 13/12 A3003 RMK SC3AC3 SLP170;EQDQ01+000000PRSWM2
0223711090999992000073103004+50670-127360SY-MT+0022CYZT V0203401N002112200019N0300001N1+01851+01461101721ADDGD12991+0450099MA1101731101461MD1510031+9999MW1001REMSYN060AAXX  31034 71109 42980 13404 10185 20146 30146 40172 55003;MET060CYZT 310300Z 34004KT 20SM FEW150 19/15 A3004 RMK AC1 SLP172;EQDQ01+000012SCOTCVQ02+000000PRSWM2
0153711090999992000080205004+50670-127360FM-15+0022CYZT V0202901N003610270019N0321861N1+01401+00901102521ADDGD13991+0270099GF107991999999999999999999MA1102541999999MW1001REMMET060CYZT 020500Z 29007KT 20SM BKN090 14/09 A3028 RMK AC6 SLP252;EQDQ01+000000PRSWM2
0274711090999992000080615004+50670-127360SY-MT+0022CYZT V0209999C000010045019N0160001N1+01441+01271101821ADDGD12991+0030099GD23991+0045099GF199999999999004501999999MA1101831101561MD1510001+9999MW1001REMSYN060AAXX  06154 71109 42466 50000 10144 20127 30156 40182 55000;MET070CYZT 061500Z 00000KT 10SM SCT010 BKN015 14/13 A3007 RMK SF3SC2 SLP182;EQDQ01+000052SCOTCVQ02+000000PRSWM2
0178711090999992000080717004+50670-127360FM-15+0022CYZT V0203401N004112200019N0321861N1+01701+01201101721ADDGD12991+0270099GD22991+0630099GF104991999999999999999999MA1101731999999MW1001REMMET070CYZT 071700Z 34008KT 20SM FEW090 SCT210 17/12 A3004 RMK AC0CI0 SLP172;EQDQ01+000000PRSWM2
0270711090999992000081823004+50670-127360FM-15+0022CYZT V0200901N003610180019N0321861N1+01401+01201101101ADDGA1999+018009029GD12991+0030099GD22991+0075099GD33991+0180099GD43991+0270099GF107991999999999999999999MA1101121999999MW1801REMMET100CYZT 182300Z 09007KT 20SM -SHRA FEW010 SCT025 BKN060TCU BKN090 14/12 A2986 RMK SF1SC2TCU2AC2 SLP110;EQDQ01+000003PRSWM1Q02    003PRSWM1
0225711090999992000082007004+50670-127360FM-15+0022CYZT V0209999C000010180019N0241401N1+01201+01101102011ADDGD12991+0120099GD23991+0180099GD34991+0270099GF108991999999999999999999MA1102001999999MW1801REMMET086CYZT 200700Z 00000KT 15SM -SHRA SCT040 BKN060 OVC090 12/11 A3012 RMK SC4SC3AC1 SLP201;EQDQ01+000003PRSWM1Q02    003PRSWM1
0178711090999992000082214004+50670-127360FM-15+0022CYZT V0209999C000010270019N0321861N1+01201+01101101641ADDGD13991+0270099GD23991+0750099GF107991999999999999999999MA1101661999999MW1001REMMET070CYZT 221400Z 00000KT 20SM BKN090 BKN250 12/11 A3002 RMK AC6CI0 SLP164;EQDQ01+000000PRSWM2
0431711090999992000082518004+50670-127360SY-MT+0022CYZT V0200301N00151009901CN0240001N1+01251+01151101791ADDAA106000591AA224000891AY121061AY221061GD12991+0015099GD22991+0033099GD33991+0099099GD44991+0150099GF108991081051001501999999KA1120M+01791KA2240N+01241MA1101801101531MD1210121+9999MW1801REMSYN106AAXX  25184 71109 11274 80303 10125 20115 30153 40179 52012 69941 78022 885// 333 10179 20124 70008 90952;MET103CYZT 251800Z 03003KT 15SM -SHRA FEW005 FEW011 BKN033 OVC050 13/12 A3006 RMK SF1SC2SC5SC2 SHRA-- SLP179;EQDQ01    003PRSWM1
0272711090999992000082903004+50670-127360SY-MT+0022CYZT V0209999C000010009019N0048001N1+01221+01161101891ADDGD13991+0009099GD24991+0030099GF108991999999000751999999MA1101901101631MD1810061+9999MW1801REMSYN066AAXX  29034 71109 41148 80000 10122 20116 30163 40189 58006 780//;MET078CYZT 290300Z 00000KT 3SM -SHRA BR BKN003 OVC010 12/12 A3009 RMK SF6SC2 SLP189;EQDQ01    003PRSWM1
0317711090999992000090715004+50670-127360SY-MT+0022CYZT V0200901N003110036019N0060001N1+01281+01201100991ADDGA1999+009609029GD12991+0018099GD23991+0036099GD34991+0096099GF108991999999001501999999MA1100981100731MD1810301+9999MW1801REMSYN066AAXX  07154 71109 41256 80906 10128 20120 30073 40099 58030 780//;MET092CYZT 071500Z 09006KT 4SM -SHRA BR SCT006 BKN012 OVC032TCU 13/12 A2982 RMK SF2SC3TCU2 SLP099;EQDQ01    003PRSWM1
0306711090999992000090721004+50670-127360SY-MT+0022CYZT V0202101N002110105019N0060001N1+01361+01191100571ADDGD12991+0030099GD22991+0045099GD34991+0105099GF108991999999004501999999MA1100581100311MD1810241+9999MW1801REMSYN066AAXX  07214 71109 41456 82104 10136 20119 30031 40057 58024 780//;MET097CYZT 072100Z 21004KT 4SM -SHRA BR FEW010 SCT015 OVC035 14/12 A2970 RMK SF2SC2SC4 VSBY E 8 SLP057;EQDQ01    003PRSWM1
0154711090999992000091119304+50670-127360FM-16+0022CYZT V0200901N001510087019N0241401N1+99999+99999999999ADDGD13991+0087099GD24991+0135099GF108991999999999999999999MW1001MW2611REMMET055CYZT 111930Z 09003KT 15SM -RA BKN029 OVC045 RMK SC5SC3;EQDQ01+000003PRSWM1
0166711090999992000091414324+50670-127360FM-16+0022CYZT V0209999C000010006019N0032181N1+99999+99999999999ADDGD13991+0006099GD24991+0024099GF108991999999999999999999MW1001MW2101REMMET067CYZT 141432Z 00000KT 2SM BR BKN002 OVC008 RMK ST6ST2 CIG LWR NW-NE;EQDQ01+000003PRSWM1
0295711090999992000091423004+50670-127360FM-15+0022CYZT V0200101N001010150019N0096561N1+01301+01201101321ADDGD12991+0006099GD22991+0015099GD33991+0150099GD43991+0360099GF108991999999999999999999MA1101321999999MW1101MW2611REMMET135CYZT 142300Z 01002KT 6SM -RA BR FEW002 FEW005 BKN050 BKN120 OVC250 13/12 A2992 RMK SF1SF1SC3AC2CI1 F BNK DSNT NW-E VSBY SE-SW 2 SLP132;EQDQ01+000003PRSWM1Q02    003PRSWM1
0178711090999992000092219004+50670-127360FM-15+0022CYZT V0200401N002112200019N0321861N1+01101+00701102011ADDGD12991+0360099GD22991+0600099GF102991999999999999999999MA1102001999999MW1001REMMET070CYZT 221900Z 04004KT 20SM FEW120 FEW200 11/07 A3012 RMK AC1CI1 SLP201;EQDQ01+000000PRSWM2
0128711090999992000092609364+50670-127360FM-16+0022CYZT V0209999C00001000151CN0008051N1+99999+99999999999ADDGD15991+0001599GF109991999999000251999999MW1001MW2451REMMET044CYZT 260936Z 00000KT 1/2SM FG VV002 RMK FG8;EQDQ01+000003PRSWM1
0178711090999992000101210004+50670-127360FM-15+0022CYZT V0209999C000010024019N0241401N1+00801+00801101551ADDGD13991+0024099GD24991+0030099GF108991999999999999999999MA1101561999999MW1001REMMET070CYZT 121000Z 00000KT 15SM BKN008 OVC010 08/08 A2999 RMK SF6SC2 SLP155;EQDQ01+000000PRSWM2
0178711090999992000101908004+50670-127360FM-15+0022CYZT V0201601N002110360019N0241401N1+00701+00601101751ADDGD12991+0180099GD24991+0360099GF108991999999999999999999MA1101761999999MW1001REMMET070CYZT 190800Z 16004KT 15SM SCT060 OVC120 07/06 A3005 RMK SC2AC4 SLP175;EQDQ01+000000PRSWM2
0328711090999992000102612004+50670-127360SY-MT+0022CYZT V0202501N00151003901CN0240001N1+00871+00731101301ADDAA124000091GD14991+0039099GF108991081051004501999999GJ100009KA1999M+01061KA2120N+00771MA1101291101041MD1810101+9999MW1001REMSYN094AAXX  26124 71109 32474 82503 10087 20073 30104 40130 58010 885// 333 10106 20077 55000 70000;MET060CYZT 261200Z 25003KT 15SM OVC013 09/07 A2991 RMK SC8 SLP130;EQDQ01+000000PRSWM2Q02  00002PRCP24
0200711090999992000102808004+50670-127360FM-15+0022CYZT V0202101N003610138019N0241401N1+00801+00601098661ADDGD12991+0075099GD24991+0138099GF108991999999999999999999MA1098651999999MW1801REMMET076CYZT 280800Z 21007KT 15SM -SHRA SCT025 OVC046 08/06 A2913 RMK SC4SC4 SLP866;EQDQ01+000003PRSWM1Q02    003PRSWM1
0144711090999992000102811414+50670-127360FM-16+0022CYZT V0201301N005110135019N0241401N1+99999+99999999999ADDGD12991+0072099GD23991+0135099GF107991999999999999999999MW1001REMMET051CYZT 281141Z 13010KT 15SM FEW024 BKN045 RMK SC2SC3;EQDQ01+000000PRSWM2
0214711090999992000110320004+50670-127360FM-15+0022CYZT V0201001N007210126019N0321861N1+01201+00801101721ADDGD12991+0075099GD23991+0126099GD33991+0210099GF107991999999999999999999MA1101731999999MW1001OC101081REMMET083CYZT 032000Z 10014G21KT 20SM FEW025 BKN042 BKN070 12/08 A3004 RMK SC2SC4AC2 SLP172;EQDQ01+000000PRSWM2
0233711090999992000110815004+50670-127360SY-MT+0022CYZT V0202801N003610051019N0240001N1+00511+00391101471ADDGD13991+0051099GF106991999999004501999999MA1101461101201MD1610091+9999MW1001REMSYN060AAXX  08154 71109 42474 62807 10051 20039 30120 40147 56009;MET060CYZT 081500Z 28007KT 15SM BKN017 05/04 A2996 RMK SC5 SLP147;EQDQ01+000000PRSWM2
0355711090999992000111900004+50670-127360SY-MT+0022CYZT V0200901N00211072001CN0300001N1+00691+00421102801ADDAA124000091GD12991+0300099GD23991+0720099GF199999011001999999071021KA1120M+00771KA2180N+00241MA1102811102531MD1710091+9999MW1001REMSYN088AAXX  19004 71109 32980 60904 10069 20042 30253 40280 57009 81072 333 10077 20024 70000;MET070CYZT 190000Z 09004KT 20SM FEW100 BKN240 07/04 A3036 RMK AC1CI2 SLP280;EQDQ01+000062SCOTCVQ02+000000PRSWM2Q03  00002PRCP24
0235711090999992000112019004+50670-127360FM-15+0022CYZT V0201001N008710120019N0321861N1+01001+00301101941ADDGD12991+0060099GD23991+0120099GD34991+0300099GF108991999999999999999999MA1101931999999MW1161OC101341REMMET088CYZT 201900Z 10017G26KT 20SM VCSH FEW020 BKN040 OVC100 10/03 A3010 RMK SC2SC5AS1 SLP194;EQDQ01+000003PRSWM1Q02    003PRSWM1
0153711090999992000112202004+50670-127360FM-15+0022CYZT V0200901N001512200019N0241401N1+00701+00501101981ADDGD12991+0150099GF102991999999999999999999MA1101961999999MW1001REMMET060CYZT 220200Z 09003KT 15SM FEW055 07/05 A3011 RMK SC2 SLP198;EQDQ01+000000PRSWM2
0417711090999992000112400004+50670-127360SY-MT+0022CYZT V0201201N00511005401CN0240001N1+00671+00591101711ADDAA106003091AA224022891AY181061AY281061GD12991+0015099GD23991+0054099GD34991+0120099GF108991081071001501999999KA1120M+00751KA2180N+00541MA1101691101441MD1310101+9999MW1801REMSYN106AAXX  24004 71109 11274 81210 10067 20059 30144 40171 53010 60031 78088 887// 333 10075 20054 70228 90927;MET104CYZT 240000Z 12010KT 15SM -SHRA FEW005 BKN018 OVC040 07/06 A3003 RERA RMK SF2SF5SC2 VSBY SE-SW 3 SLP171;EQDQ01    003PRSWM1
0419711090999992000120300004+50670-127360SY-MT+0022CYZT V0209999C00001012601CN0240001N1+00711+00581102221ADDAA106000591AA224000691AY121061AY221061GA1999+012609029GD12991+0036099GD22991+0075099GD34991+0126099GF108991081021004501001001KA1120M+00861KA2180N+00311MA1102201101951MD1310141+9999MW1801REMSYN106AAXX  03004 71109 11474 80000 10071 20058 30195 40222 53014 69941 78022 88200 333 10086 20031 70006 90952;MET090CYZT 030000Z 00000KT 15SM -SHRA FEW012 SCT025 OVC042TCU 07/06 A3018 RMK SF2SC2TCU3 SLP222;EQDQ01    003PRSWM1
0180711090999992000121205004+50670-127360FM-15+0022CYZT V0202501N002610750019N0241401N1-00301-01001102061ADDGD12991+0420099GD23991+0750099GF107991999999999999999999MA1102071999999MW1001REMMET072CYZT 120500Z 25005KT 15SM FEW140 BKN250 M03/M10 A3014 RMK AC1CI0 SLP206;EQDQ01+000000PRSWM2
0093711130999992000010111004+49250-121770SAO  +0015CWZA V0209999C000019999999N9999999N1+00401+00401999999ADDMW1001REMAWY075WZA SA 1100 AUTO8 M M M 075/04/04/0000/M/0088 PCPN 2.4MM PAST HR 8028 28MM;
0093711130999992000010407004+49250-121770SAO  +0015CWZA V0209999C000019999999N9999999N1+00101+00101999999ADDMW1001REMAWY075WZA SA 0700 AUTO8 M M M 127/01/01/0000/M/0006 PCPN 0.6MM PAST HR 6050 39MM;
0071711130999992000011309004+49250-121770SAO  +0015CWZA V0203601N002519999999N9999999N1+00101-00201999999ADDMW1001REMAWY053WZA SA 0900 AUTO8 M M M 154/01/-02/3605/M/ 1023 96MM;
0075711130999992000011317004+49250-121770SAO  +0015CWZA V0200301N002519999999N9999999N1+00101-00201999999ADDMW1001REMAWY057WZA SA 1700 AUTO8 M M M 173/01/-02/0305/M/0002 3011 20MM;
0100711130999992000011910004+49250-121770SAO  +0015CWZA V0201801N004119999999N9999999N1+00201-00801999999ADDMW1001OC100821REMAWY074WZA SA 1000 AUTO8 M M M 293/02/-08/1808+16/M/ PK WND 3321 0928Z 8004 65MM;
0120711130999992000012106004+49250-121770SAO  +0015CWZA V0202201N002019999999N9999999N1-00101-00501999999ADDAA199000091MW1001REMAWY072WZA SA 0600 AUTO8 M M M 157/-01/-05/2204/M/ PK WND 0423 0524Z 8004 56MM;EQDQ01  00002PRCP99
0093711130999992000012616004+49250-121770SAO  +0015CWZA V0200701N001519999999N9999999N1+00301+00301999999ADDMW1001REMAWY075WZA SA 1600 AUTO8 M M M 242/03/03/0703/M/0006 PCPN 0.2MM PAST HR 1020 76MM;
0070711130999992000012720004+49250-121770SAO  +0015CWZA V0201401N002519999999N9999999N1+00601+00401999999ADDMW1001REMAWY052WZA SA 2000 AUTO8 M M M 359/06/04/1405/M/ 0004 70MM;
0119711130999992000012912004+49250-121770SAO  +0015CWZA V0200401N002019999999N9999999N1+00301-00101999999ADDAA199000091MW1001REMAWY071WZA SA 1200 AUTO8 M M M 247/03/-01/0404/M/ PK WND 0427 1106Z 3005 52MM;EQDQ01  00002PRCP99
0070711130999992000013123004+49250-121770SAO  +0015CWZA V0202501N001019999999N9999999N1+00901+00301999999ADDMW1001REMAWY052WZA SA 2300 AUTO8 M M M 167/09/03/2502/M/ 8018 88MM;
0130711130999992000021400004+49250-121770SAO  +0015CWZA V0203301N006119999999N9999999N1+00901-00601999999ADDAA199000091MW1001OC101181REMAWY074WZA SA 0000 AUTO8 M M M 047/09/-06/3312+23/M/ PK WND 3523 2359Z 6016 74MM;EQDQ01  00002PRCP99
0100711130999992000021413004+49250-121770SAO  +0015CWZA V0203201N006119999999N9999999N1+00501-00801999999ADDMW1001OC101231REMAWY074WZA SA 1300 AUTO8 M M M 004/05/-08/3212+24/M/ PK WND 3224 1250Z 6030 53MM;
0108711130999992000021506004+49250-121770SAO  +0015CWZA V0200301N000519999999N9999999N1+00101-00201999999ADDAA199000091MW1001REMAWY060WZA SA 0600 AUTO8 M M M 113/01/-02/0301/M/ PRESRR 1062 05MM;EQDQ01  00002PRCP99
0070711130999992000021602004+49250-121770SAO  +0015CWZA V0200501N001019999999N9999999N1+00501+00201999999ADDMW1001REMAWY052WZA SA 0200 AUTO8 M M M 248/05/02/0502/M/ 3007 91MM;
0100711130999992000021714004+49250-121770SAO  +0015CWZA V0200501N006119999999N9999999N1+00101-00601999999ADDMW1001OC101131REMAWY074WZA SA 1400 AUTO8 M M M 233/01/-06/0512+22/M/ PK WND 0523 1302Z 5001 31MM;
0071711130999992000021813004+49250-121770SAO  +0015CWZA V0202101N001019999999N9999999N1+00001-00501999999ADDMW1001REMAWY053WZA SA 1300 AUTO8 M M M 291/00/-05/2102/M/ 1008 36MM;
0093711130999992000022722004+49250-121770SAO  +0015CWZA V0203201N000519999999N9999999N1+00701+00401999999ADDMW1001REMAWY075WZA SA 2200 AUTO8 M M M 070/07/04/3201/M/0002 PCPN 0.2MM PAST HR 3001 39MM;
0100711130999992000030719004+49250-121770SAO  +0015CWZA V0203301N003019999999N9999999N1+00701-00401999999ADDMW1001OC100771REMAWY074WZA SA 1900 AUTO8 M M M 138/07/-04/3306+15/M/ PK WND 3524 1846Z 8004 63MM;
0070711130999992000031102004+49250-121770SAO  +0015CWZA V0203401N001019999999N9999999N1+00901+00401999999ADDMW1001REMAWY052WZA SA 0200 AUTO8 M M M 163/09/04/3402/M/ 8015 06MM;
0104711130999992000031212004+49250-121770SAO  +0015CWZA V0203601N001519999999N9999999N1+00301+00301999999ADDAA199000091MW1001REMAWY056WZA SA 1200 AUTO8 M M M 298/03/03/3603/M/0002 8010 43MM;EQDQ01  00002PRCP99
0070711130999992000031213004+49250-121770SAO  +0015CWZA V0209999C000019999999N9999999N1+00301+00301999999ADDMW1001REMAWY052WZA SA 1300 AUTO8 M M M 294/03/03/0000/M/ 8013 76MM;
0070711130999992000040319004+49250-121770SAO  +0015CWZA V0201401N002019999999N9999999N1+01601+00801999999ADDMW1001REMAWY052WZA SA 1900 AUTO8 M M M 189/16/08/1404/M/ 8016 11MM;
0123711130999992000040500004+49250-121770SAO  +0015CWZA V0202101N003019999999N9999999N1+00701+00401999999ADDAA199000091MW1001REMAWY075WZA SA 0000 AUTO8 M M M 191/07/04/2106/M/0026 PCPN 0.2MM PAST HR 3014 12MM;EQDQ01  00002PRCP99
0100711130999992000041100004+49250-121770SAO  +0015CWZA V0202301N003019999999N9999999N1+01801+00801999999ADDAA199000091MW1001REMAWY052WZA SA 0000 AUTO8 M M M 231/18/08/2306/M/ 6011 58MM;EQDQ01  00002PRCP99
0070711130999992000042617004+49250-121770SAO  +0015CWZA V0203601N001519999999N9999999N1+00901+00601999999ADDMW1001REMAWY052WZA SA 1700 AUTO8 M M M 268/09/06/3603/M/ 8012 41MM;
0093711130999992000050413004+49250-121770SAO  +0015CWZA V0209999C000019999999N9999999N1+00701+00701999999ADDMW1001REMAWY075WZA SA 1300 AUTO8 M M M 163/07/07/0000/M/0004 PCPN 0.4MM PAST HR 3001 09MM;
0074711130999992000050504004+49250-121770SAO  +0015CWZA V0201301N001519999999N9999999N1+00901+00501999999ADDMW1001REMAWY056WZA SA 0400 AUTO8 M M M 150/09/05/1303/M/0024 3003 54MM;
0070711130999992000051209004+49250-121770SAO  +0015CWZA V0209999C000019999999N9999999N1+00701+00701999999ADDMW1001REMAWY052WZA SA 0900 AUTO8 M M M 243/07/07/0000/M/ 1019 32MM;
0070711130999992000051309004+49250-121770SAO  +0015CWZA V0200501N004119999999N9999999N1+00901+00501999999ADDMW1001REMAWY052WZA SA 0900 AUTO8 M M M 231/09/05/0508/M/ 8005 00MM;
0070711130999992000051521004+49250-121770SAO  +0015CWZA V0202301N004119999999N9999999N1+02201+01001999999ADDMW1001REMAWY052WZA SA 2100 AUTO8 M M M 138/22/10/2308/M/ 8002 94MM;
0093711130999992000051908004+49250-121770SAO  +0015CWZA V0209999C000019999999N9999999N1+01201+01101999999ADDMW1001REMAWY075WZA SA 0800 AUTO8 M M M 234/12/11/0000/M/0018 PCPN 0.8MM PAST HR 5001 83MM;
0070711130999992000052010004+49250-121770SAO  +0015CWZA V0201301N001519999999N9999999N1+01201+01101999999ADDMW1001REMAWY052WZA SA 1000 AUTO8 M M M 246/12/11/1303/M/ 5001 24MM;
0100711130999992000052400004+49250-121770SAO  +0015CWZA V0202001N001019999999N9999999N1+01901+00701999999ADDAA199000091MW1001REMAWY052WZA SA 0000 AUTO8 M M M 206/19/07/2002/M/ 8018 65MM;EQDQ01  00002PRCP99
0070711130999992000060115004+49250-121770SAO  +0015CWZA V0200901N001019999999N9999999N1+01101+01001999999ADDMW1001REMAWY052WZA SA 1500 AUTO8 M M M 231/11/10/0902/M/ 8013 21MM;
0093711130999992000060817004+49250-121770SAO  +0015CWZA V0201201N001019999999N9999999N1+01301+01201999999ADDMW1001REMAWY075WZA SA 1700 AUTO8 M M M 102/13/12/1202/M/0030 PCPN 0.2MM PAST HR 8003 52MM;
0100711130999992000061200004+49250-121770SAO  +0015CWZA V0202401N002019999999N9999999N1+01601+00701999999ADDAA199000091MW1001REMAWY052WZA SA 0000 AUTO8 M M M 125/16/07/2404/M/ 6024 64MM;EQDQ01  00002PRCP99
0093711130999992000061411004+49250-121770SAO  +0015CWZA V0209999C000019999999N9999999N1+01201+01201999999ADDMW1001REMAWY075WZA SA 1100 AUTO8 M M M 236/12/12/0000/M/0036 PCPN 1.0MM PAST HR 6022 00MM;
0093711130999992000061413004+49250-121770SAO  +0015CWZA V0209999C000019999999N9999999N1+01201+01201999999ADDMW1001REMAWY075WZA SA 1300 AUTO8 M M M 226/12/12/0000/M/0014 PCPN 1.4MM PAST HR 6018 11MM;
0070711130999992000062617004+49250-121770SAO  +0015CWZA V0200601N003019999999N9999999N1+02201+01101999999ADDMW1001REMAWY052WZA SA 1700 AUTO8 M M M 220/22/11/0606/M/ 8006 42MM;
0070711130999992000062804004+49250-121770SAO  +0015CWZA V0209999C000019999999N9999999N1+02301+01901999999ADDMW1001REMAWY052WZA SA 0400 AUTO8 M M M 143/23/19/0000/M/ 5006 25MM;
0070711130999992000063011004+49250-121770SAO  +0015CWZA V0200201N000519999999N9999999N1+01501+01301999999ADDMW1001REMAWY052WZA SA 1100 AUTO8 M M M 144/15/13/0201/M/ 8007 79MM;
0074711130999992000070223004+49250-121770SAO  +0015CWZA V0200801N003019999999N9999999N1+01501+01201999999ADDMW1001REMAWY056WZA SA 2300 AUTO8 M M M 198/15/12/0806/M/0016 8004 17MM;
0070711130999992000071114004+49250-121770SAO  +0015CWZA V0203101N001019999999N9999999N1+01501+01301999999ADDMW1001REMAWY052WZA SA 1400 AUTO8 M M M 201/15/13/3102/M/ 3009 60MM;
0074711130999992000071417004+49250-121770SAO  +0015CWZA V0200901N001019999999N9999999N1+01601+01101999999ADDMW1001REMAWY056WZA SA 1700 AUTO8 M M M 244/16/11/0902/M/0002 1007 80MM;
0070711130999992000071802004+49250-121770SAO  +0015CWZA V0202201N003019999999N9999999N1+02701+01301999999ADDMW1001REMAWY052WZA SA 0200 AUTO8 M M M 158/27/13/2206/M/ 5002 28MM;
0070711130999992000072222004+49250-121770SAO  +0015CWZA V0202501N002019999999N9999999N1+01701+01401999999ADDMW1001REMAWY052WZA SA 2200 AUTO8 M M M 196/17/14/2504/M/ 3019 01MM;
0093711130999992000072308004+49250-121770SAO  +0015CWZA V0203401N000519999999N9999999N1+01401+01301999999ADDMW1001REMAWY075WZA SA 0800 AUTO8 M M M 224/14/13/3401/M/0030 PCPN 2.4MM PAST HR 3007 94MM;
0070711130999992000072401004+49250-121770SAO  +0015CWZA V0202301N002019999999N9999999N1+02201+01401999999ADDMW1001REMAWY052WZA SA 0100 AUTO8 M M M 253/22/14/2304/M/ 8016 54MM;
0123711130999992000072518004+49250-121770SAO  +0015CWZA V0202001N001519999999N9999999N1+01801+01601999999ADDAA199000091MW1001REMAWY075WZA SA 1800 AUTO8 M M M 174/18/16/2003/M/0002 PCPN 0.2MM PAST HR 3006 88MM;EQDQ01  00002PRCP99
0070711130999992000073110004+49250-121770SAO  +0015CWZA V0201901N001019999999N9999999N1+01601+01601999999ADDMW1001REMAWY052WZA SA 1000 AUTO8 M M M 166/16/16/1902/M/ 1003 96MM;
0070711130999992000080211004+49250-121770SAO  +0015CWZA V0200601N000519999999N9999999N1+01101+01101999999ADDMW1001REMAWY052WZA SA 1100 AUTO8 M M M 221/11/11/0601/M/ 5001 40MM;
0070711130999992000080509004+49250-121770SAO  +0015CWZA V0200601N000519999999N9999999N1+01501+01401999999ADDMW1001REMAWY052WZA SA 0900 AUTO8 M M M 178/15/14/0601/M/ 1011 82MM;
0070711130999992000080709004+49250-121770SAO  +0015CWZA V0209999C000019999999N9999999N1+01401+01401999999ADDMW1001REMAWY052WZA SA 0900 AUTO8 M M M 155/14/14/0000/M/ 1001 26MM;
0070711130999992000081123004+49250-121770SAO  +0015CWZA V0201701N001019999999N9999999N1+01801+01101999999ADDMW1001REMAWY052WZA SA 2300 AUTO8 M M M 238/18/11/1702/M/ 8001 48MM;
0070711130999992000081811004+49250-121770SAO  +0015CWZA V0201701N000519999999N9999999N1+01301+01201999999ADDMW1001REMAWY052WZA SA 1100 AUTO8 M M M 163/13/12/1701/M/ 6010 29MM;
0070711130999992000082008004+49250-121770SAO  +0015CWZA V0203501N001019999999N9999999N1+01201+01201999999ADDMW1001REMAWY052WZA SA 0800 AUTO8 M M M 237/12/12/3502/M/ 1009 43MM;
0070711130999992000082109004+49250-121770SAO  +0015CWZA V0203601N001519999999N9999999N1+01401+01101999999ADDMW1001REMAWY052WZA SA 0900 AUTO8 M M M 243/14/11/3603/M/ 8007 94MM;
0070711130999992000082219004+49250-121770SAO  +0015CWZA V0201601N001019999999N9999999N1+02201+01401999999ADDMW1001REMAWY052WZA SA 1900 AUTO8 M M M 169/22/14/1602/M/ 8014 09MM;
0070711130999992000082502004+49250-121770SAO  +0015CWZA V0202701N001019999999N9999999N1+02301+01601999999ADDMW1001REMAWY052WZA SA 0200 AUTO8 M M M 187/23/16/2702/M/ 8004 12MM;
0070711130999992000082701004+49250-121770SAO  +0015CWZA V0202301N002019999999N9999999N1+01901+01001999999ADDMW1001REMAWY052WZA SA 0100 AUTO8 M M M 177/19/10/2304/M/ 6006 69MM;
0100711130999992000082706004+49250-121770SAO  +0015CWZA V0209999C000019999999N9999999N1+01501+01001999999ADDAA199000091MW1001REMAWY052WZA SA 0600 AUTO8 M M M 181/15/10/0000/M/ 1007 59MM;EQDQ01  00002PRCP99
0070711130999992000090110004+49250-121770SAO  +0015CWZA V0209999C000019999999N9999999N1+01001+01001999999ADDMW1001REMAWY052WZA SA 1000 AUTO8 M M M 110/10/10/0000/M/ 1004 77MM;
0070711130999992000090120004+49250-121770SAO  +0015CWZA V0201201N001019999999N9999999N1+01601+01001999999ADDMW1001REMAWY052WZA SA 2000 AUTO8 M M M 113/16/10/1202/M/ 8002 98MM;
0070711130999992000091103004+49250-121770SAO  +0015CWZA V0203301N001519999999N9999999N1+01301+01201999999ADDMW1001REMAWY052WZA SA 0300 AUTO8 M M M 161/13/12/3303/M/ 1015 91MM;
0070711130999992000091316004+49250-121770SAO  +0015CWZA V0203601N002019999999N9999999N1+01501+01301999999ADDMW1001REMAWY052WZA SA 1600 AUTO8 M M M 214/15/13/3604/M/ 1010 16MM;
0070711130999992000091604004+49250-121770SAO  +0015CWZA V0201301N000519999999N9999999N1+01901+01501999999ADDMW1001REMAWY052WZA SA 0400 AUTO8 M M M 203/19/15/1301/M/ 3015 12MM;
0070711130999992000091816004+49250-121770SAO  +0015CWZA V0201601N002019999999N9999999N1+01701+01501999999ADDMW1001REMAWY052WZA SA 1600 AUTO8 M M M 221/17/15/1604/M/ 0009 33MM;
0104711130999992000092018004+49250-121770SAO  +0015CWZA V0201501N001519999999N9999999N1+01401+01401999999ADDAA199000091MW1001REMAWY056WZA SA 1800 AUTO8 M M M 166/14/14/1503/M/0002 6006 16MM;EQDQ01  00002PRCP99
0070711130999992000092507004+49250-121770SAO  +0015CWZA V0202401N000519999999N9999999N1+01001+00901999999ADDMW1001REMAWY052WZA SA 0700 AUTO8 M M M 218/10/09/2401/M/ 1009 39MM;
0070711130999992000092517004+49250-121770SAO  +0015CWZA V0200301N001019999999N9999999N1+01601+00901999999ADDMW1001REMAWY052WZA SA 1700 AUTO8 M M M 218/16/09/0302/M/ 0000 86MM;
0070711130999992000101509004+49250-121770SAO  +0015CWZA V0203401N000519999999N9999999N1+00601+00501999999ADDMW1001REMAWY052WZA SA 0900 AUTO8 M M M 219/06/05/3401/M/ 6010 62MM;
0070711130999992000101517004+49250-121770SAO  +0015CWZA V0200301N003619999999N9999999N1+00701+00501999999ADDMW1001REMAWY052WZA SA 1700 AUTO8 M M M 199/07/05/0307/M/ 3005 05MM;
0093711130999992000101701004+49250-121770SAO  +0015CWZA V0202101N000519999999N9999999N1+00901+00901999999ADDMW1001REMAWY075WZA SA 0100 AUTO8 M M M 173/09/09/2101/M/0008 PCPN 0.8MM PAST HR 8008 21MM;
0093711130999992000101705004+49250-121770SAO  +0015CWZA V0200701N002519999999N9999999N1+00901+00901999999ADDMW1001REMAWY075WZA SA 0500 AUTO8 M M M 161/09/09/0705/M/0040 PCPN 1.2MM PAST HR 5003 47MM;
0093711130999992000101710004+49250-121770SAO  +0015CWZA V0200701N000519999999N9999999N1+00901+00901999999ADDMW1001REMAWY075WZA SA 1000 AUTO8 M M M 155/09/09/0701/M/0078 PCPN 1.0MM PAST HR 0000 36MM;
0070711130999992000102902004+49250-121770SAO  +0015CWZA V0200301N002519999999N9999999N1+01101+00701999999ADDMW1001REMAWY052WZA SA 0200 AUTO8 M M M 032/11/07/0305/M/ 3019 41MM;
0070711130999992000110315004+49250-121770SAO  +0015CWZA V0201701N001019999999N9999999N1+00801+00701999999ADDMW1001REMAWY052WZA SA 1500 AUTO8 M M M 273/08/07/1702/M/ 3003 74MM;
0100711130999992000111017004+49250-121770SAO  +0015CWZA V0203601N006619999999N9999999N1+00401-00701999999ADDMW1001OC101131REMAWY074WZA SA 1700 AUTO8 M M M 213/04/-07/3613+22/M/ PK WND 3322 1631Z 1010 24MM;
0101711130999992000111300004+49250-121770SAO  +0015CWZA V0202301N000519999999N9999999N1+00301-00101999999ADDAA199000091MW1001REMAWY053WZA SA 0000 AUTO8 M M M 262/03/-01/2301/M/ 8016 16MM;EQDQ01  00002PRCP99
0100711130999992000111623004+49250-121770SAO  +0015CWZA V0200701N001519999999N9999999N1+00601-00401999999ADDMW1001OC100871REMAWY074WZA SA 2300 AUTO8 M M M 301/06/-04/0703+17/M/ PK WND 0117 2254Z 3001 84MM;
0093711130999992000112402004+49250-121770SAO  +0015CWZA V0201501N000519999999N9999999N1+00501+00501999999ADDMW1001REMAWY075WZA SA 0200 AUTO8 M M M 207/05/05/1501/M/0012 PCPN 0.6MM PAST HR 1023 66MM;
0100711130999992000112904004+49250-121770SAO  +0015CWZA V0203301N003019999999N9999999N1+00701-00201999999ADDMW1001OC101231REMAWY074WZA SA 0400 AUTO8 M M M 154/07/-02/3306+24/M/ PK WND 3124 0351Z 6032 14MM;
0099711130999992000120601004+49250-121770SAO  +0015CWZA V0200201N005119999999N9999999N1+00701+00001999999ADDMW1001OC100771REMAWY073WZA SA 0100 AUTO8 M M M 311/07/00/0210+15/M/ PK WND 0419 0005Z 6004 11MM;
0070711130999992000120709004+49250-121770SAO  +0015CWZA V0203101N002019999999N9999999N1+00501+00101999999ADDMW1001REMAWY052WZA SA 0900 AUTO8 M M M 244/05/01/3104/M/ 3003 69MM;
0101711130999992000121123004+49250-121770SAO  +0015CWZA V0200101N006119999999N9999999N1-00101-01601999999ADDMW1001OC101181REMAWY075WZA SA 2300 AUTO8 M M M 248/-01/-16/0112+23/M/ PK WND 3329 2214Z 6014 85MM;
0101711130999992000121202004+49250-121770SAO  +0015CWZA V0203201N002019999999N9999999N1-00101-01601999999ADDMW1001OC101331REMAWY075WZA SA 0200 AUTO8 M M M 227/-01/-16/3204+26/M/ PK WND 0332 0105Z 6021 41MM;
0101711130999992000121522004+49250-121770SAO  +0015CWZA V0200401N008719999999N9999999N1-00501-01601999999ADDMW1001OC101381REMAWY075WZA SA 2200 AUTO8 M M M 325/-05/-16/0417+27/M/ PK WND 0528 2108Z 1039 15MM;
0070711130999992000122604004+49250-121770SAO  +0015CWZA V0201601N002519999999N9999999N1+00301+00301999999ADDMW1001REMAWY052WZA SA 0400 AUTO8 M M M 274/03/03/1605/M/ 8019 96MM;
0099711130999992000123017004+49250-121770SAO  +0015CWZA V0202901N001019999999N9999999N1+00501+00101999999ADDMW1001OC100771REMAWY073WZA SA 1700 AUTO8 M M M 248/05/01/2902+15/M/ PK WND 0517 1649Z 3003 88MM;
0088711130999992000123105004+49250-121770SAO  +0015CWZA V0200301N004119999999N9999999N1+00601+00201999999ADDMW1001REMAWY070WZA SA 0500 AUTO8 M M M 210/06/02/0308/M/ PK WND 0216 0413Z 6018 89MM;
0175711140999992000010113004+49370-121480FM-15+0039CYHE V0209999C000010021019N0144841N1+00301+00201100581ADDGD14991+0021099GF108991999999999999999999MA1100541999999MW1631REMMET082CYHE 011300Z AUTO 00000KT 9SM RA OVC007 03/02 A2969 RMK PCPN 2.0MM PAST HR SLP058;EQDQ01    003PRSWM1
0286711140999992000010121004+49370-121480SY-MT+0039CYHE V0202101N003110024019N0140001N1+00431+00281100511ADDAA106003091GD14991+0024099GD24991+0210099GF108991999999002501999999MA1100471100031MD1810011+9999MW1611REMSYN076AAXX  01214 71114 2/364 82106 10043 20028 30003 40051 58001 761// 333 60031;MET071CYHE 012100Z AUTO 22008KT 9SM -RA OVC008 OVC079 04/03 A2967 RMK SLP051;EQDQ01    003PRSWM1
0166711140999992000011510014+49370-121480FM-15+0039CYHE V0200801N002110150019N0144841N1-00101-00301999999ADDGD13991+0150099GD23991+0270099GF107991999999999999999999MA1101901999999MW1001REMMET058CYHE 151001Z AUTO 08004KT 9SM BKN052 BKN095 M01/M03 A3009;EQDQ01+000000PRSWM2
