0125712520999992000041618004+53380-118330FM-12+1402CWWO V0202401N001519999999N9999999N1+00401-00481999999ADDAA106000891KA1120M+00411KA2240N-01211REMSYN076AAXX  16184 71252 1//// /2403 10040 21048 69971 7//4/ 333 10041 21121 70007;
0119712520999992000052918004+53380-118330FM-12+1402CWWO V0202001N000519999999N9999999N1+00471+00301999999ADDAA106001091KA1120M+00561KA2240N+00011REMSYN070AAXX  29184 71252 16/// /2001 10047 20030 60011 333 10056 20001 70112;
0119712520999992000062318004+53380-118320FM-12+1402CWWO V0202101N002119999999N9999999N1+01131-00331999999ADDAA106000891KA1120M+01171KA2240N-00321REMSYN070AAXX  23184 71252 16/// /2104 10113 21033 69971 333 10117 21032 70000;
0119712520999992000070218004+53380-118320FM-12+1402CWWO V0202001N001519999999N9999999N1+00601+00461999999ADDAA106001091KA1120M+00791KA2240N+00461REMSYN070AAXX  02184 71252 16/// /2003 10060 20046 60011 333 10079 20046 70209;
0113712520999992000072400004+53380-118320FM-12+1402CWWO V0201801N001519999999N9999999N1+01261+01121999999ADDAA124047091KA1120M+01621KA2180N+01001REMSYN064AAXX  24004 71252 36/// /1803 10126 20112 333 10162 20100 70470;
0132712520999992000072900004+53380-118320FM-12+1402CWWO V0202201N002619999999N9999999N1+01531+00171999999ADDAA124000091KA1120M+01941KA2180N+01211REMSYN064AAXX  29004 71252 36/// /2205 10153 20017 333 10194 20121 70000;EQDQ01  00002PRCP24
0113712520999992000091918004+53380-118320FM-12+1402CWWO V0200301N002619999999N9999999N1+00591-00521999999ADDAA124000891KA1120M+00761KA2240N-00311REMSYN064AAXX  19184 71252 36/// /0305 10059 21052 333 10076 21031 70008;
0132712520999992000100400004+53380-118320FM-12+1402CWWO V0203401N001019999999N9999999N1+00291-00771999999ADDAA124000091KA1120M+00561KA2180N-00391REMSYN064AAXX  04004 71252 36/// /3402 10029 21077 333 10056 21039 70000;EQDQ01  00002PRCP24
0132712520999992000100900004+53380-118320FM-12+1402CWWO V0202301N001019999999N9999999N1+01321-00631999999ADDAA124000091KA1120M+01711KA2180N-00431REMSYN064AAXX  09004 71252 36/// /2302 10132 21063 333 10171 21043 70000;EQDQ01  00002PRCP24
0096712520999992000101900004+53380-118320FM-12+1402CWWO V0203201N002619999999N9999999N1+00491-00471999999ADDKA1120M+00891KA2999N+00251REMSYN058AAXX  19004 71252 46/// /3205 10049 21047 333 10089 20025;
0113712520999992000102700004+53380-118320FM-12+1402CWWO V0201801N001519999999N9999999N1+00811+00471999999ADDAA124001091KA1120M+01011KA2180N+00311REMSYN064AAXX  27004 71252 36/// /1803 10081 20047 333 10101 20031 70009;
0132712520999992000111700004+53380-118320FM-12+1402CWWO V0200601N001519999999N9999999N1-00761-00861999999ADDAA124000091KA1120M-00561KA2180N-02301REMSYN064AAXX  17004 71252 36/// /0603 11076 21086 333 11056 21230 70000;EQDQ01  00002PRCP24
0132712520999992000112012004+53380-118320FM-12+1402CWWO V0209999C000019999999N9999999N1-01751-01781999999ADDAA124000091KA1999M+00051KA2120N-01761REMSYN064AAXX  20124 71252 36/// /0000 11175 21178 333 10005 21176 70000;EQDQ01  00002PRCP24
0106712530999992000011006004+58680-113880FM-12+0241CWGF V0209999C000019999999N9999999N1-03071-03311999999ADDKA1240M-01501KA2240N-03071REMSYN068AAXX  10064 71253 46/// /0000 11307 21331 333 11150 21307 555 10004;
0096712530999992000030218004+58680-113880FM-12+0241CWGF V0201301N000519999999N9999999N1+00181-00431999999ADDKA1120M+00181KA2999N-00681REMSYN058AAXX  02184 71253 46/// /1301 10018 21043 333 10018 21068;
0119712530999992000030700004+58680-113880FM-12+0241CWGF V0200401N002119999999N9999999N1-00481-00761999999ADDAJ100439199999999KA1120M-00341KA2180N-01131REMSYN064AAXX  07004 71253 46/// /0404 11048 21076 333 11034 21113 4/043;
0096712530999992000033118004+58680-113880FM-12+0241CWGF V0202201N002619999999N9999999N1+00761-00251999999ADDKA1120M+00761KA2999N+00001REMSYN058AAXX  31184 71253 46/// /2205 10076 21025 333 10076 20000;
0119712530999992000042912004+58680-113880FM-12+0241CWGF V02099999999999999999N9999999N1+00561+00561999999ADDAJ100049199999999KA1999M+02211KA2120N+00561REMSYN064AAXX  29124 71253 46/// ///// 10056 20056 333 10221 20056 4/004;
0182712530999992000050606004+58680-113880FM-12+0241CWGF V02099999999999999999N9999999N1+00171+00171999999ADDAA106002091AA224002291KA1240M+01111KA2240N+00171OA132499999REMSYN092AAXX  06064 71253 1//// ///// 10017 20017 60021 7//4/ 333 10111 20017 70022 555 30319 40200;EQDQ01  00982WGOSPD
0132712530999992000070306004+58670-113880FM-12+0241CWGF V0202101N000519999999N9999999N1+01511+01401999999ADDAA124000091KA1240M+02451KA2240N+00951REMSYN064AAXX  03064 71253 36/// /2101 10151 20140 333 10245 20095 70000;EQDQ01  00002PRCP24
0140712530999992000082106004+58670-113880FM-12+0241CWGF V0202201N001019999999N9999999N1+01131+00981999999ADDAA124000091KA1240M+02241KA2240N+00991OA132401181REMSYN080AAXX  21064 71253 36/// /2202 10113 20098 333 10224 20099 70000 555 32323 40210;
0125712530999992000083000004+58670-113880FM-12+0241CWGF V0203401N000519999999N9999999N1+00731+00631999999ADDAA106003091KA1120M+01141KA2180N-00201REMSYN076AAXX  30004 71253 1//// /3401 10073 20063 60031 7//4/ 333 10114 21020 70036;
0096712530999992000101512004+58670-113880FM-12+0241CWGF V0202201N001019999999N9999999N1-00091-00091999999ADDKA1999M+01211KA2999N-00381REMSYN058AAXX  15124 71253 46/// /2202 11009 21009 333 10121 21038;
0096712530999992000120418004+58670-113880FM-12+0241CWGF V0203601N000519999999N9999999N1-02761-02951999999ADDKA1120M-02761KA2999N-03391REMSYN058AAXX  04184 71253 46/// /3601 11276 21295 333 11276 21339;
0096712530999992000122012004+58670-113880FM-12+0241CWGF V0202101N001519999999N9999999N1-02871-03071999999ADDKA1999M-02111KA2999N-03421REMSYN058AAXX  20124 71253 46/// /2103 11287 21307 333 11211 21342;
0096712530999992000123018004+58670-113880FM-12+0241CWGF V0202301N000519999999N9999999N1-01731-01821999999ADDKA1120M-01351KA2999N-02001REMSYN058AAXX  30184 71253 46/// /2301 11173 21182 333 11135 21200;
0147712540999992000011518004+53030-112820FM-12+073999999V0201801N00261999999RN9999999N1-02391-02631102931ADDKA1120M-02381KA2999N-03151MA1999999093421MD1010031+9999REMSYN080    AAXX  15184 71254 46/// /1805 11239 21263 39342 40293 50003 333 11238 21315;
0143712540999992000021100004+53030-112820FM-12+0739CWRV V0202501N001519999999N9999999N1-01721-02061103091ADDKA1120M-01341KA2999N-02411MA1999999093691MD1610071+9999REMSYN076AAXX  11004 71254 46/// /2503 11172 21206 39369 40309 56007 333 11134 21241;
0143712540999992000030100004+53030-112820FM-12+0739CWRV V0201201N003619999999N9999999N1-00241-00561101751ADDKA1120M-00061KA2999N-01681MA1999999092691MD1810021+9999REMSYN076AAXX  01004 71254 46/// /1207 11024 21056 39269 40175 58002 333 11006 21168;
0166712540999992000030212004+53030-112820FM-12+0739CWRV V0202901N000519999999N9999999N1-00861-00971101181ADDAJ100359199999999KA1999M+00501KA2120N-00911MA1999999092261MD1510031+9999REMSYN082AAXX  02124 71254 46/// /2901 11086 21097 39226 40118 55003 333 10050 21091 4/035;
0166712540999992000032112004+53030-112820FM-12+0739CWRV V0201801N001019999999N9999999N1-00291-00621100871ADDAJ100119199999999KA1999M+00441KA2120N-00471MA1999999092061MD1810251+9999REMSYN082AAXX  21124 71254 46/// /1802 11029 21062 39206 40087 58025 333 10044 21047 4/011;
0143712540999992000041000004+53030-112820FM-12+0739CWRV V0200401N004119999999N9999999N1-00151-00211102331ADDKA1120M+00031KA2999N-00151MA1999999093361MD1110321+9999REMSYN076AAXX  10004 71254 46/// /0408 11015 21021 39336 40233 51032 333 10003 21015;
0179712540999992000081818004+53300-112810FM-12+0739CWRV V0201501N004619999999N9999999N1+01921+01081100911ADDAA124000091KA1120M+01921KA2240N+00981MA1999999092411MD1610101+9999REMSYN082AAXX  18184 71254 36/// /1509 10192 20108 39241 40091 56010 333 10192 20098 70000;EQDQ01  00002PRCP24
0143712540999992000101712004+53300-112810FM-12+0739CWRV V02099999999999999999N9999999N1-00181-00211101691ADDKA1999M+01611KA2999N-00211MA1999999092901MD1110071+9999REMSYN076AAXX  17124 71254 46/// ///// 11018 21021 39290 40169 51007 333 10161 21021;
0159712550999992000011312004+57530-111570FM-12+031099999V0209999999999999999MN9999999N1-02631-03021999999ADDAA124000091AJ100389199999999KA1999M-02291KA2120N-02841REMSYN074    AAXX  13124 71255 36/// ///// 11263 21302 333 11229 21284 4/038 70000;EQDQ01  00002PRCP24
0132712550999992000012318004+57530-111570FM-12+0310CWMX V02099999999999999999N9999999N1-00411-00791999999ADDAA124000091KA1120M-00391KA2240N-02251REMSYN064AAXX  23184 71255 36/// ///// 11041 21079 333 11039 21225 70000;EQDQ01  00002PRCP24
0132712550999992000012518004+57530-111570FM-12+0310CWMX V02099999999999999999N9999999N1-00991-01161999999ADDAA124000091KA1120M-00501KA2240N-01581REMSYN064AAXX  25184 71255 36/// ///// 11099 21116 333 11050 21158 70000;EQDQ01  00002PRCP24
0096712550999992000020918004+57530-111570FM-12+0310CWMX V02099999999999999999N9999999N1-01731-02601999999ADDKA1120M-01481KA2999N-03041REMSYN058AAXX  09184 71255 46/// ///// 11173 21260 333 11148 21304;
0132712550999992000022606004+57530-111570FM-12+0310CWMX V02099999999999999999N9999999N1-00791-00931999999ADDAA124000091KA1240M+00681KA2240N-00791REMSYN064AAXX  26064 71255 36/// ///// 11079 21093 333 10068 21079 70000;EQDQ01  00002PRCP24
0096712550999992000032118004+57530-111570FM-12+0310CWMX V02099999999999999999N9999999N1+00261+00161999999ADDKA1120M+00501KA2999N-00401REMSYN058AAXX  21184 71255 46/// ///// 10026 20016 333 10050 21040;
0126712550999992000090300004+57530-111560FM-12+0310CWMX V02099999999999999999N9999999N1+01031+00551999999ADDAA199000091KA1120M+01411KA2999N+00881REMSYN058AAXX  03004 71255 36/// ///// 10103 20055 333 10141 20088;EQDQ01  00002PRCP99
0132712550999992000101418004+57530-111560FM-12+0310CWMX V02099999999999999999N9999999N1+00861+00431999999ADDAA124000091KA1120M+01111KA2240N-00051REMSYN064AAXX  14184 71255 36/// ///// 10086 20043 333 10111 21005 70000;EQDQ01  00002PRCP24
0132712550999992000102512004+57530-111560FM-12+0310CWMX V02099999999999999999N9999999N1+00641+00271999999ADDAA124000091KA1999M+01141KA2120N-00371REMSYN064AAXX  25124 71255 36/// ///// 10064 20027 333 10114 21037 70000;EQDQ01  00002PRCP24
0126712550999992000112400004+57530-111560FM-12+0310CWMX V0201101N003119999999N9999999N1+00101-00191999999ADDAA199000091KA1120M+00291KA2999N-00421REMSYN058AAXX  24004 71255 36/// /1106 10010 21019 333 10029 21042;EQDQ01  00002PRCP99
0132712550999992000120318004+57530-111560FM-12+0310CWMX V0203501N003619999999N9999999N1-01551-01991999999ADDAA124000091KA1120M-00441KA2240N-01611REMSYN064AAXX  03184 71255 36/// /3507 11155 21199 333 11044 21161 70000;EQDQ01  00002PRCP24
0175712600999992000010409004+46480-084520FM-15+0192CYAM V0200301N00311000151CN0002011N1-00601-00701100191ADDGD15991+0001599GF109991999999000251999999MA1100071999999MW1751REMMET066CYAM 040900Z 03006KT 1/8SM +SN VV001 M06/M07 A2955 RMK SN8 SLP019;EQDQ01+000003PRSWM1Q02    003PRSWM1
0205712600999992000010419004+46480-084520FM-15+0192CYAM V0203501N004612200019N0193121N1-00601-01101100781ADDGD12991+0075099GD22991+0240099GD32991+0660099GF104991999999999999999999MA1100641999999MW1001REMMET082CYAM 041900Z 35009KT 12SM FEW025 FEW080 SCT220 M06/M11 A2972 RMK SC2AS1CS1 SLP078;EQDQ01+000000PRSWM2
0205712600999992000010814004+46480-084520FM-15+0192CYAM V0202601N004110036019N0241401N1-00301-00501101021ADDGD13991+0036099GD23991+0240099GD34991+0750099GF108991999999999999999999MA1100911999999MW1001REMMET082CYAM 081400Z 26008KT 15SM BKN012 BKN080 OVC250 M03/M05 A2980 RMK CF5AC2CI1 SLP102;EQDQ01+000000PRSWM2
0130712600999992000011215454+46480-084520FM-16+0192CYAM V0200601N00211000151CN0008051N1+99999+99999999999ADDGD15991+0001599GF109991999999000251999999MW1001MW2861REMMET046CYAM 121545Z 06004KT 1/2SM SHSN VV005 RMK SN8;EQDQ01+000003PRSWM1
0185712600999992000012003004+46480-084520FM-15+0192CYAM V0200101N003610690019N0241401N1-01301-01501101151ADDGD12991+0090099GD24991+0690099GF108991999999999999999999MA1101021999999MW1001REMMET077CYAM 200300Z 01007KT 15SM FEW030 OVC230 M13/M15 A2983 RMK SC1CS4 HALO SLP115;EQDQ01+000000PRSWM2
0186712600999992000012022004+46480-084520FM-15+0192CYAM V0201101N001510060019N0032181N1-01601-01901101681ADDGD14991+0060099GF108991999999999999999999MA1101491999999MW1851REMMET077CYAM 202200Z 11003KT 2SM -SHSN OVC020 M16/M19 A2997 RMK SC7 VSBY NE 6 SLP168;EQDQ01+000003PRSWM1Q02    003PRSWM1
0177712600999992000012410004+46480-084520FM-15+0192CYAM V0202601N004112200019N0160931N1-01101-01301101491ADDGD12991+0135099GF104991999999999999999999MA1101351999999MW1851REMMET068CYAM 241000Z 26008KT 10SM -SHSN SCT045 M11/M13 A2993 RMK SC4 SLP149;EQDQ01+000003PRSWM1Q02    003PRSWM1
0154712600999992000012921004+46480-084520FM-15+0192CYAM V0202301N001510720019N0241401N1+00101-00901103451ADDGD13991+0720099GF107991999999999999999999MA1103321999999MW1001REMMET061CYAM 292100Z 23003KT 15SM BKN240 01/M09 A3051 RMK CI2 SLP345;EQDQ01+000000PRSWM2
0173712600999992000013101004+46480-084520FM-15+0192CYAM V0209999C000012200019N0096561N1-01201-01301101591ADDGD12991+0240099GF104991999999999999999999MA1101421999999MW1101REMMET064CYAM 310100Z 00000KT 6SM BR SCT080 M12/M13 A2995 RMK AC4 SLP159;EQDQ01+000003PRSWM1Q02    003PRSWM1
0173712600999992000013118004+46480-084520FM-15+0192CYAM V0202601N005110030019N0064371N1-00401-00401100261ADDGD14991+0030099GF108991999999999999999999MA1100141999999MW1101REMMET064CYAM 311800Z 26010KT 4SM BR OVC010 M04/M04 A2957 RMK SC8 SLP026;EQDQ01+000003PRSWM1Q02    003PRSWM1
0129712600999992000020305544+46480-084520FM-16+0192CYAM V0200901N00511000151CN0012071N1+99999+99999999999ADDGD15991+0001599GF109991999999000251999999MW1001MW2711REMMET045CYAM 030554Z 09010KT 3/4SM -SN VV007 RMK SN8;EQDQ01+000003PRSWM1
0175712600999992000020311004+46480-084520FM-15+0192CYAM V0201001N005110027019N0241401N1-00501-00601100491ADDGD14991+0027099GF108991999999999999999999MA1100371999999MW1711REMMET066CYAM 031100Z 10010KT 15SM -SN OVC009 M05/M06 A2964 RMK SF8 SLP049;EQDQ01+000003PRSWM1Q02    003PRSWM1
0237712600999992000020623004+46480-084520FM-15+0192CYAM V0202501N007710720019N0241401N1-00101-00501101141ADDGD12991+0030099GD22991+0480099GD33991+0720099GF107991999999999999999999MA1101021999999MW1361OC101081REMMET090CYAM 062300Z 25015G21KT 15SM DRSN FEW010 FEW160 BKN240 M01/M05 A2983 RMK CF1AC2CI2 SLP114;EQDQ01+000003PRSWM1Q02    003PRSWM1
0132712600999992000021023194+46480-084520FM-16+0192CYAM V0200501N002110090019N0040231N1+99999+99999999999ADDGD14991+0090099GF108991999999999999999999MW1001MW2711REMMET048CYAM 102319Z 05004KT 2 1/2SM -SN OVC030 RMK SC8;EQDQ01+000003PRSWM1
0109712600999992000022317204+46480-084520FM-16+0192CYAM V0200901N002612200019N0048281N1+99999+99999999999ADDGF100991999999999999999999MW1001MW2101REMMET040CYAM 231720Z 09005KT 3SM BR SKC RMK FG7;EQDQ01+000003PRSWM1
0142712600999992000022416454+46480-084520FM-16+0192CYAM V0201101N005712200019N0040231N1+99999+99999999999ADDGD12991+0015099GF102991999999999999999999MW1001MW2051OC100821REMMET050CYAM 241645Z 11011G16KT 2 1/2SM HZ FEW005 RMK SC2;EQDQ01+000003PRSWM1
0195712600999992000022510004+46480-084520FM-15+0192CYAM V0200801N004610033019N0160931N1+00401+00301101811ADDGD14991+0033099GF108991999999999999999999MA1101761999999MW1511REMMET086CYAM 251000Z 08009KT 10SM -DZ OVC011 04/03 A3005 RMK SC8 PCPN VRY LGT/ CIG RGD SLP181;EQDQ01+000003PRSWM1Q02    003PRSWM1
0155712600999992000022905004+46480-084520FM-15+0192CYAM V0201201N002612200019N0193121N1-00101-00401102451ADDGD12991+0300099GF104991999999999999999999MA1102341999999MW1001REMMET062CYAM 290500Z 12005KT 12SM SCT100 M01/M04 A3022 RMK AC4 SLP245;EQDQ01+000000PRSWM2
0185712600999992000030617004+46480-084520FM-15+0192CYAM V0201301N004612200019N0241401N1+00901-00101102191ADDGD12991+0300099GD22991+0750099GF102991999999999999999999MA1102101999999MW1001REMMET077CYAM 061700Z 13009KT 15SM FEW100 FEW250 09/M01 A3015 RMK AC1CI1 CI TR SLP219;EQDQ01+000000PRSWM2
0152712600999992000030815004+46480-084520FM-15+0192CYAM V0200901N003110018019N0128741N1+00501+00301100981ADDGD14991+0018099GF108991999999999999999999MA1100911999999MW1001REMMET059CYAM 081500Z 09006KT 8SM OVC006 05/03 A2980 RMK ST7 SLP098;EQDQ01+000000PRSWM2
0188712600999992000031220004+46480-084520FM-15+0192CYAM V0203201N006210105019N0241401N1-00301-00801102181ADDGD13991+0105099GF107991999999999999999999MA1102071999999MW1851OC101031REMMET071CYAM 122000Z 32012G20KT 15SM -SHSN BKN035 M03/M08 A3014 RMK SC6 SLP218;EQDQ01+000003PRSWM1Q02    003PRSWM1
0179712600999992000031417004+46480-084520FM-15+0192CYAM V0203001N005110030019N0193121N1+00001-00301101521ADDGD13991+0030099GD23991+0075099GF107991999999999999999999MA1101421999999MW1001REMMET071CYAM 141700Z 30010KT 12SM BKN010 BKN025 00/M03 A2995 RMK SC5SC2 SLP152;EQDQ01+000000PRSWM2
0180712600999992000031701004+46480-084520FM-15+0192CYAM V0203501N003610750019N0241401N1-00501-01101102691ADDGD12991+0150099GD23991+0750099GF107991999999999999999999MA1102541999999MW1001REMMET072CYAM 170100Z 35007KT 15SM FEW050 BKN250 M05/M11 A3028 RMK SC2CI1 SLP269;EQDQ01+000000PRSWM2
0339712600999992000031912004+46480-084520SY-MT+0192CYAM V0200901N002610270019N0193121N1-00121-00361102431ADDAA124000091AJ100029199999999GD14991+0270099GF108991999999999999999999IA1309KA1999M+00201KA2120N-00121MA1102341100021MD1510041+9999MW1001REMSYN088AAXX  19124 71260 33/// ///// 11012 21036 30002 40243 55004 333 10020 21012 42002 70000;MET062CYAM 191200Z 09005KT 12SM OVC090 M01/M04 A3022 RMK AC8 SLP243;EQDQ01+000000PRSWM2Q02  00002PRCP24
0180712600999992000031913004+46480-084520FM-15+0192CYAM V0201101N002610270019N0193121N1-00101-00301102431ADDGD13991+0270099GD24991+0750099GF108991999999999999999999MA1102341999999MW1001REMMET072CYAM 191300Z 11005KT 12SM BKN090 OVC250 M01/M03 A3022 RMK AC6CI2 SLP243;EQDQ01+000000PRSWM2
0210712600999992000032107004+46480-084520FM-15+0192CYAM V0201201N005710018019N0040231N1+00401+00301102581ADDGD13991+0018099GD24991+0030099GF108991999999999999999999MA1102511999999MW1101MW2511REMMET080CYAM 210700Z 12011KT 2 1/2SM -DZ BR BKN006 OVC010 04/03 A3027 RMK SF5SC3 SLP258;EQDQ01+000003PRSWM1Q02    003PRSWM1
0174712600999992000032217004+46480-084520FM-15+0192CYAM V0200501N00211000151CN0024141N1+00501+00501102851ADDGD15991+0001599GF109991999999000251999999MA1102781999999MW1101REMMET065CYAM 221700Z 05004KT 1 1/2SM BR VV003 05/05 A3035 RMK FG8 SLP285;EQDQ01+000003PRSWM1Q02    003PRSWM1
0170712600999992000032309004+46480-084520FM-15+0192CYAM V0209999C000010001519N0000001N1+00301+00301102801ADDGD15991+0001599GF109991999999000251999999MA1102741999999MW1451REMMET061CYAM 230900Z 00000KT 0SM FG VV000 03/03 A3034 RMK FG8 SLP280;EQDQ01+000003PRSWM1Q02    003PRSWM1
0128712600999992000032314354+46480-084520FM-16+0192CYAM V0201301N00151000151CN0004021N1+99999+99999999999ADDGD15991+0001599GF109991999999000251999999MW1001MW2451REMMET044CYAM 231435Z 13003KT 1/4SM FG VV002 RMK FG8;EQDQ01+000003PRSWM1
0178712600999992000032517004+46480-084520FM-15+0192CYAM V0202301N005110105019N0241401N1+00701+00301100141ADDGD12991+0075099GD24991+0105099GF108991999999999999999999MA1100101999999MW1001REMMET070CYAM 251700Z 23010KT 15SM SCT025 OVC035 07/03 A2956 RMK SC4SC4 SLP014;EQDQ01+000000PRSWM2
0190712600999992000033023004+46480-084520FM-15+0192CYAM V0203201N006212200019N0241401N1+00301-00501101851ADDGD12991+0075099GD22991+0570099GF102991999999999999999999MA1101761999999MW1001OC101031REMMET074CYAM 302300Z 32012G20KT 15SM FEW025 FEW190 03/M05 A3005 RMK SC1CI1 SLP185;EQDQ01+000000PRSWM2
0203712600999992000040311004+46480-084520FM-15+0192CYAM V0200901N004610330019N0160931N1+00401+00201100841ADDGD12991+0210099GD23991+0330099GD33991+0600099GF107991999999999999999999MA1100781999999MW1001REMMET080CYAM 031100Z 09009KT 10SM FEW070 BKN110 BKN200 04/02 A2976 RMK AC2AC2CI2 SLP084;EQDQ01+000000PRSWM2
0192712600999992000040621004+46480-084520FM-15+0192CYAM V0202901N007210015019N0096561N1+00201+00201100271ADDGD14991+0015099GF108991999999999999999999MA1100201999999MW1101MW2611OC101031REMMET069CYAM 062100Z 29014G20KT 6SM -RA BR OVC005 02/02 A2959 RMK SF8 SLP027;EQDQ01+000003PRSWM1Q02    003PRSWM1
0179712600999992000041410004+46480-084520FM-15+0192CYAM V0201001N002610210019N0193121N1+00401-00101101531ADDGD13991+0210099GD23991+0270099GF107991999999999999999999MA1101461999999MW1001REMMET071CYAM 141000Z 10005KT 12SM BKN070 BKN095 04/M01 A2996 RMK AC5AC2 SLP153;EQDQ01+000000PRSWM2
0156712600999992000041507104+46480-084520FM-16+0192CYAM V0202901N002110270019N0160931N1+99999+99999999999ADDGD13991+0270099GD24991+0300099GF108991999999999999999999MW1001MW2801REMMET057CYAM 150710Z 29004KT 10SM -SHRA BKN090 OVC100 RMK AC6AC2;EQDQ01+000003PRSWM1
0119712600999992000041516424+46480-084520FM-16+0192CYAM V0200701N004610045019N0241401N1+99999+99999999999ADDGD14991+0045099GF108991999999999999999999MW1001REMMET041CYAM 151642Z 07009KT 15SM OVC015 RMK SC8;EQDQ01+000000PRSWM2
0179712600999992000041711004+46480-084520FM-15+0192CYAM V0200901N003610300019N0241401N1+00001-00701102441ADDGD13991+0300099GD24991+0750099GF108991999999999999999999MA1102341999999MW1001REMMET071CYAM 171100Z 09007KT 15SM BKN100 OVC250 00/M07 A3022 RMK AS7CS1 SLP244;EQDQ01+000000PRSWM2
0179712600999992000041716004+46480-084520FM-15+0192CYAM V0201201N004610330019N0241401N1+00401-00701102411ADDGD13991+0330099GD24991+0750099GF108991999999999999999999MA1102341999999MW1001REMMET071CYAM 171600Z 12009KT 15SM BKN110 OVC250 04/M07 A3022 RMK AS6CS2 SLP241;EQDQ01+000000PRSWM2
0179712600999992000041718004+46480-084520FM-15+0192CYAM V0201101N005110390019N0241401N1+00701-00401102261ADDGD12991+0090099GD23991+0390099GF107991999999999999999999MA1102201999999MW1001REMMET071CYAM 171800Z 11010KT 15SM FEW030 BKN130 07/M04 A3018 RMK SC1AC4 SLP226;EQDQ01+000000PRSWM2
0333712600999992000041906004+46480-084520SY-MT+0192CYAM V0203001N000510129019N0241401N1+00451+00301101691ADDAA124000091GD12991+0063099GD23991+0129099GF107991999999999999999999KA1240M+00861KA2240N+00281MA1101631099331MD1110111+9999MW1001REMSYN082AAXX  19064 71260 33/// ///// 10045 20030 39933 40169 51011 333 10086 20028 70000;MET070CYAM 190600Z 30001KT 15SM FEW021 BKN043 05/03 A3001 RMK SC2SC4 SLP169;EQDQ01+000000PRSWM2Q02  00002PRCP24
0138712600999992000042517004+46480-084520FM-15+0192CYAM V0203001N005112200019N0241401N1+01201-00801102381ADDGF100991999999999999999999MA1102301999999MW1001REMMET060CYAM 251700Z 30010KT 15SM SKC 12/M08 A3021 RMK COTRA SLP238;EQDQ01+000000PRSWM2
0298712600999992000042718004+46480-084520SY-MT+0192CYAM V0202901N004612200019N0241401N1+01481-00081101371ADDAA124000091GF100991001001999999001001KA1120M+01681KA2240N-00151MA1101321099031MD1710101+9999MW1001OC100771REMSYN082AAXX  27184 71260 33/// ///// 10148 21008 39903 40137 57010 333 10168 21015 70000;MET057CYAM 271800Z 29009G15KT 15SM SKC 15/M01 A2992 RMK SLP137;EQDQ01+000000PRSWM2Q02  00002PRCP24
0153712600999992000050620004+46480-084520FM-15+0192CYAM V0202301N007712200019N0241401N1+02701+01401101101ADDGD12991+0120099GF102991999999999999999999MA1101121999999MW1001REMMET060CYAM 062000Z 23015KT 15SM FEW040 27/14 A2986 RMK CU1 SLP110;EQDQ01+000000PRSWM2
0203712600999992000051003004+46480-084520FM-15+0192CYAM V0203201N006710420019N0241401N1+00501+00201100621ADDGD12991+0090099GD22991+0270099GD34991+0420099GF108991999999999999999999MA1100541999999MW1001REMMET080CYAM 100300Z 32013KT 15SM FEW030 SCT090 OVC140 05/02 A2969 RMK SC2AC2AC5 SLP062;EQDQ01+000000PRSWM2
0144712600999992000051221094+46480-084520FM-16+0192CYAM V0201201N003110039019N0160931N1+99999+99999999999ADDGD13991+0039099GD24991+0390099GF108991999999999999999999MW1001REMMET051CYAM 122109Z 12006KT 10SM BKN013 OVC130 RMK SC6AC2;EQDQ01+000000PRSWM2
0153712600999992000051801004+46480-084520FM-15+0192CYAM V0201401N000510330019N0193121N1+01201+00901101261ADDGD14991+0330099GF108991999999999999999999MA1101221999999MW1001REMMET060CYAM 180100Z 14001KT 12SM OVC110 12/09 A2989 RMK AC8 SLP126;EQDQ01+000000PRSWM2
0180712600999992000052518454+46480-084520FM-16+0192CYAM V0203001N008210102019N0241401N1+99999+99999999999ADDGD12991+0066099GD23991+0102099GD34991+0135099GF108991999999999999999999MW1001OC101291REMMET064CYAM 251845Z 30016G25KT 15SM FEW022 BKN034 OVC045 RMK CU2SC6SC1;EQDQ01+000000PRSWM2
0129712600999992000053115464+46480-084520FM-16+0192CYAM V0202901N006710006019N0012071N1+99999+99999999999ADDGD13991+0006099GF107991999999999999999999MW1001MW2101REMMET045CYAM 311546Z 29013KT 3/4SM BR BKN002 RMK SF6;EQDQ01+000003PRSWM1
0189712600999992000060222004+46480-084520FM-15+0192CYAM V0203201N008210180019N0241401N1+01001+00501102001ADDGD12991+0105099GD23991+0180099GF107991999999999999999999MA1101961999999MW1001OC101081REMMET073CYAM 022200Z 32016G21KT 15SM FEW035 BKN065 10/05 A3011 RMK SC2SC3 SLP200;EQDQ01+000000PRSWM2
0153712600999992000060409004+46480-084520FM-15+0192CYAM V0209999C000010150019N0241401N1+00801+00601102221ADDGD13991+0150099GF107991999999999999999999MA1102201999999MW1001REMMET060CYAM 040900Z 00000KT 15SM BKN050 08/06 A3018 RMK SC7 SLP222;EQDQ01+000000PRSWM2
0153712600999992000060507004+46480-084520FM-15+0192CYAM V0209999C000012200019N0241401N1+00401+00401102391ADDGD12991+0630099GF104991999999999999999999MA1102341999999MW1001REMMET060CYAM 050700Z 00000KT 15SM SCT210 04/04 A3022 RMK CI2 SLP239;EQDQ01+000000PRSWM2
0178712600999992000060807004+46480-084520FM-15+0192CYAM V0201101N001510141019N0193121N1+01401+01101100991ADDGD13991+0141099GD24991+0300099GF108991999999999999999999MA1100981999999MW1001REMMET070CYAM 080700Z 11003KT 12SM BKN047 OVC100 14/11 A2982 RMK SC5AC3 SLP099;EQDQ01+000000PRSWM2
0153712600999992000061423004+46480-084520FM-15+0192CYAM V0201601N001510180019N0241401N1+02501+01601100021ADDGD14991+0180099GF108991999999999999999999MA1100031999999MW1001REMMET060CYAM 142300Z 16003KT 15SM OVC060 25/16 A2954 RMK SC8 SLP002;EQDQ01+000000PRSWM2
0178712600999992000061501004+46480-084520FM-15+0192CYAM V0201201N003610270019N0160931N1+02001+01801099771ADDGD12991+0180099GD24991+0270099GF108991999999999999999999MA1099761999999MW1001REMMET070CYAM 150100Z 12007KT 10SM SCT060 OVC090 20/18 A2946 RMK SC4AC4 SLP977;EQDQ01+000000PRSWM2
0178712600999992000061814004+46480-084520FM-15+0192CYAM V0201201N001012200019N0241401N1+01301+00901102091ADDGD12991+0240099GD22991+0720099GF104991999999999999999999MA1102031999999MW1001REMMET070CYAM 181400Z 12002KT 15SM FEW080 SCT240 13/09 A3013 RMK AC2CI0 SLP209;EQDQ01+000000PRSWM2
0164712600999992000062108004+46480-084520FM-15+0192CYAM V0202401N006210810019N0241401N1+01801+01701100031ADDGD13991+0810099GF107991999999999999999999MA1100031999999MW1001OC101031REMMET063CYAM 210800Z 24012G20KT 15SM BKN270 18/17 A2954 RMK CI7 SLP003;EQDQ01+000000PRSWM2
0178712600999992000062404004+46480-084520FM-15+0192CYAM V0201001N001010750019N0241401N1+01501+01401101361ADDGD12991+0240099GD24991+0750099GF108991999999999999999999MA1101351999999MW1001REMMET070CYAM 240400Z 10002KT 15SM SCT083 OVC250 15/14 A2993 RMK AC3CS4 SLP136;EQDQ01+000000PRSWM2
0158712600999992000062612524+46480-084520FM-16+0192CYAM V0201001N003110120019N0064371N1+99999+99999999999ADDGD13991+0120099GD24991+0240099GF108991999999999999999999MW1001MW2801REMMET059CYAM 261252Z CCA10006KT 4SM -SHRA BKN040 OVC080 RMK SC6AC2;EQDQ01+000003PRSWM1
0153712600999992000062801004+46480-084520FM-15+0192CYAM V0203301N001012200019N0241401N1+01501+00601101761ADDGD12991+0090099GF102991999999999999999999MA1101731999999MW1001REMMET060CYAM 280100Z 33002KT 15SM FEW030 15/06 A3004 RMK CU1 SLP176;EQDQ01+000000PRSWM2
0131712600999992000062802004+46480-084520FM-15+0192CYAM V0202701N000512200019N0241401N1+01001+00701101761ADDGF100991999999999999999999MA1101731999999MW1001REMMET053CYAM 280200Z 27001KT 15SM SKC 10/07 A3004 RMK SLP176;EQDQ01+000000PRSWM2
0152712600999992000070217394+46480-084520FM-16+0192CYAM V0202701N005710150019N0048281N1+99999+99999999999ADDGD12991+0012099GD24991+0150099GF108991999999999999999999MW1001MW2101REMMET053CYAM 021739Z 27011KT 3SM BR SCT004 OVC050 RMK ST3SC5;EQDQ01+000003PRSWM1
0153712600999992000070502004+46480-084520FM-15+0192CYAM V0202901N004612200019N0241401N1+01501+01001101591ADDGD12991+0390099GF102991999999999999999999MA1101561999999MW1001REMMET060CYAM 050200Z 29009KT 15SM FEW130 15/10 A2999 RMK AC1 SLP159;EQDQ01+000000PRSWM2
0308712600999992000070806004+46480-084520SY-MT+0192CYAM V0201101N002110450019N0241401N1+01581+01021102191ADDAA124000091GD14991+0450099GF108991999999999999999999KA1240M+02311KA2240N+00571MA1102171099871MD1710071+9999MW1001REMSYN082AAXX  08064 71260 33/// ///// 10158 20102 39987 40219 57007 333 10231 20057 70000;MET060CYAM 080600Z 11004KT 15SM OVC150 16/10 A3017 RMK AC8 SLP219;EQDQ01+000000PRSWM2Q02  00002PRCP24
0218712600999992000071411004+46480-084520FM-15+0192CYAM V0203001N004610390019N0241401N1+01701+01501100691ADDGD12991+0075099GD22991+0300099GD33991+0390099GF107991999999999999999999MA1100711999999MW1001REMMET095CYAM 141100Z 30009KT 15SM FEW025 SCT100 BKN130 17/15 A2974 RMK CU1AC3AC2 BARO READ 1110 SLP069;EQDQ01+000000PRSWM2
0153712600999992000072004004+46480-084520FM-15+0192CYAM V0209999C000012200019N0241401N1+01001+00501101571ADDGD12991+0240099GF102991999999999999999999MA1101521999999MW1001REMMET060CYAM 200400Z 00000KT 15SM FEW088 10/05 A2998 RMK AC1 SLP157;EQDQ01+000000PRSWM2
0178712600999992000072223004+46480-084520FM-15+0192CYAM V0203101N005712200019N0241401N1+01601+00901102171ADDGD12991+0120099GD22991+0210099GF102991999999999999999999MA1102131999999MW1001REMMET070CYAM 222300Z 31011KT 15SM FEW040 FEW075 16/09 A3016 RMK SC1AC1 SLP217;EQDQ01+000000PRSWM2
0171712600999992000073115004+46480-084520FM-15+0192CYAM V0201001N002610045019N0096561N1+02301+01901101531ADDGD14991+0045099GF108991999999999999999999MA1101521999999MW1051REMMET062CYAM 311500Z 10005KT 6SM HZ OVC015 23/19 A2998 RMK CU8 SLP153;EQDQ01+000003PRSWM1Q02    003PRSWM1
0136712600999992000080114304+46480-084520FM-16+0192CYAM V0201701N001010018019N0032181N1+99999+99999999999ADDGD14991+0018099GF108991999999999999999999MW1001MW2101REMMET052CYAM 011430Z 17002KT 2SM BR OVC006 RMK ST8 WIND L/V;EQDQ01+000003PRSWM1
0171712600999992000080117004+46480-084520FM-15+0192CYAM V0201201N002110039019N0048281N1+02301+01901101171ADDGD14991+0039099GF108991999999999999999999MA1101191999999MW1101REMMET062CYAM 011700Z 12004KT 3SM BR OVC013 23/19 A2988 RMK SC8 SLP117;EQDQ01+000003PRSWM1Q02    003PRSWM1
0191712600999992000080206004+46480-084520FM-15+0192CYAM V0202201N001510003019N0032181N1+01901+01801100901ADDGD15991+0001599GF109991999999000251999999MA1100911999999MW1101REMMET082CYAM 020600Z 22003KT 2SM BR VV002 19/18 A2980 RMK FG8 CIG 001-003 VSBY 1-3 SLP090;EQDQ01+000003PRSWM1Q02    003PRSWM1
0131712600999992000080408004+46480-084520FM-15+0192CYAM V0209999C000012200019N0241401N1+00701+00601101911ADDGF100991999999999999999999MA1101901999999MW1001REMMET053CYAM 040800Z 00000KT 15SM SKC 07/06 A3009 RMK SLP191;EQDQ01+000000PRSWM2
0131712600999992000080701424+46480-084520FM-16+0192CYAM V0201001N003110024019N0040231N1+99999+99999999999ADDGD14991+0024099GF108991999999999999999999MW1001MW2101REMMET047CYAM 070142Z 10006KT 2 1/2SM BR OVC008 RMK SF8;EQDQ01+000003PRSWM1
0234712600999992000081020004+46480-084520FM-15+0192CYAM V0203401N005110126019N0080461N1+01901+01701101691ADDGD13991+0126099GD23991+0150099GD34991+0210099GF108991999999999999999999MA1101691999999MW1801REMMET095CYAM 102000Z 34010KT 5SM -SHRA BKN042 BKN055 OVC075 19/17 A3003 RMK SC5SC2AC1 TCU EMBDD SLP169;EQDQ01+000003PRSWM1Q02    003PRSWM1
0195712600999992000081206004+46480-084520FM-12+0192CYAM V02099999999999999999N9999999N1+01191+01011102091ADDAA124000091KA1240M+02491KA2240N+99999MA1999999099771MD1710081+9999REMSYN082AAXX  12064 71260 33/// ///// 10119 20101 39977 40209 57008 333 10249 20157 70000;EQDQ01  00002PRCP24Q02 +01572ATMN  
0209712600999992000081220004+46480-084520FM-15+0192CYAM V0201901N003610480019N0241401N1+02601+01201101741ADDGD12991+0150099GD23991+0480099GD34991+0660099GF108991999999999999999999MA1101731999999MW1001REMMET086CYAM 122000Z 19007KT 15SM FEW056 BKN160 OVC220 26/12 A3004 RMK SC1AC5CI2 SC TR SLP174;EQDQ01+000000PRSWM2
0153712600999992000081916004+46480-084520FM-15+0192CYAM V0203101N005112200019N0241401N1+01601+00401102581ADDGD12991+0180099GF102991999999999999999999MA1102541999999MW1001REMMET060CYAM 191600Z 31010KT 15SM FEW060 16/04 A3028 RMK CU1 SLP258;EQDQ01+000000PRSWM2
0185712600999992000090120004+46480-084520FM-15+0192CYAM V0200901N005110027019N0024141N1+01201+01201102131ADDGD14991+0027099GF108991999999999999999999MA1102101999999MW1101MW2511REMMET070CYAM 012000Z 09010KT 1 1/2SM -DZ BR OVC009 12/12 A3015 RMK SF8 SLP213;EQDQ01+000003PRSWM1Q02    003PRSWM1
0119712600999992000090206524+46480-084520FM-16+0192CYAM V0201101N001510051019N0241401N1+99999+99999999999ADDGD14991+0051099GF108991999999999999999999MW1001REMMET041CYAM 020652Z 11003KT 15SM OVC017 RMK SF8;EQDQ01+000000PRSWM2
0169712600999992000090211354+46480-084520FM-16+0192CYAM V0200801N002610087019N0241401N1+99999+99999999999ADDGD12991+0027099GD23991+0087099GD33991+0138099GF107991999999999999999999MW1001REMMET061CYAM 021135Z 08005KT 15SM SCT009 BKN029 BKN046 RMK SF4SC1SC2;EQDQ01+000000PRSWM2
0153712600999992000090601004+46480-084520FM-15+0192CYAM V0202101N003112200019N0241401N1+01201+00801103131ADDGD12991+0750099GF102991999999999999999999MA1103081999999MW1001REMMET060CYAM 060100Z 21006KT 15SM FEW250 12/08 A3044 RMK CI1 SLP313;EQDQ01+000000PRSWM2
0355712600999992000091006004+46480-084520SY-MT+0192CYAM V0201001N002610150019N0040231N1+01971+01941101271ADDAA124000091GD12991+0120099GD24991+0150099GF108991999999999999999999KA1240M+02391KA2240N+00551MA1101291098991MD1510041+9999MW1101REMSYN082AAXX  10064 71260 33/// ///// 10197 20194 39899 40127 55004 333 10239 20055 70000;MET076CYAM 100600Z 10005KT 2 1/2SM BR SCT040 OVC050 20/19 A2991 RMK SC4SC4 SLP127;EQDQ01+000003PRSWM1Q02  00002PRCP24Q03    003PRSWM1
0153712600999992000091103004+46480-084520FM-15+0192CYAM V0209999C000010024019N0160931N1+01801+01701101241ADDGD14991+0024099GF108991999999999999999999MA1101251999999MW1001REMMET060CYAM 110300Z 00000KT 10SM OVC008 18/17 A2990 RMK SF8 SLP124;EQDQ01+000000PRSWM2
0194712600999992000091110464+46480-084520FM-16+0192CYAM V0202401N001510180019N0080461N1+99999+99999999999ADDGD12991+0120099GD23991+0180099GD34991+0300099GF108991999999999999999999MW1001MW2811MW3951REMMET074CYAM 111046Z 24003KT 5SM TSRA FEW040 BKN060 OVC100 RMK SC2SC5AC1 CB EMBDD;EQDQ01+000003PRSWM1
0189712600999992000091820004+46480-084520FM-15+0192CYAM V0202301N009312200019N0241401N1+02501+01201100541ADDGD12991+0420099GD22991+0600099GF104991999999999999999999MA1100511999999MW1001OC101441REMMET073CYAM 182000Z 23018G28KT 15SM FEW140 SCT200 25/12 A2968 RMK AC2CI2 SLP054;EQDQ01+000000PRSWM2
0119712600999992000091912404+46480-084520FM-16+0192CYAM V0201801N004110390019N0193121N1+99999+99999999999ADDGD13991+0390099GF107991999999999999999999MW1001REMMET041CYAM 191240Z 18008KT 12SM BKN130 RMK AC7;EQDQ01+000000PRSWM2
0179712600999992000092717004+46480-084520FM-15+0192CYAM V0203301N005110096019N0241401N1+00601-00101102291ADDGD13991+0096099GD23991+0720099GF107991999999999999999999MA1102241999999MW1001REMMET071CYAM 271700Z 33010KT 15SM BKN032 BKN240 06/M01 A3019 RMK SC6CI0 SLP229;EQDQ01+000000PRSWM2
0178712600999992000100407004+46480-084520FM-15+0192CYAM V0203401N003110720019N0241401N1+01001+00401101441ADDGD12991+0360099GD24991+0720099GF108991999999999999999999MA1101421999999MW1001REMMET070CYAM 040700Z 34006KT 15SM FEW120 OVC240 10/04 A2995 RMK AC1CS3 SLP144;EQDQ01+000000PRSWM2
0196712600999992000100604004+46480-084520FM-15+0192CYAM V0200901N001010024019N0096561N1+00501+00501101651ADDGD13991+0024099GD24991+0066099GF108991999999999999999999MA1101591999999MW1101REMMET072CYAM 060400Z 09002KT 6SM BR BKN008 OVC022 05/05 A3000 RMK SF5SC3 SLP165;EQDQ01+000003PRSWM1Q02    003PRSWM1
0333712600999992000101012004+46480-084520SY-MT+0192CYAM V0203201N003112200019N0241401N1+00731+00631101871ADDAA124000091GD12991+0090099GD22991+0720099GF104991999999999999999999KA1999M+01141KA2120N+00121MA1101831099521MD1810031+9999MW1001REMSYN082AAXX  10124 71260 33/// ///// 10073 20063 39952 40187 58003 333 10114 20012 70000;MET070CYAM 101200Z 32006KT 15SM FEW030 SCT240 07/06 A3007 RMK SC1CI2 SLP187;EQDQ01+000000PRSWM2Q02  00002PRCP24
0286712600999992000101106004+46480-084520SY-MT+0192CYAM V0203101N004612200019N0241401N1+00891+00781101791ADDAA124000091GF100991001001999999001001KA1240M+01351KA2240N+00121MA1101761099451MD1210051+9999MW1001REMSYN082AAXX  11064 71260 33/// ///// 10089 20078 39945 40179 52005 333 10135 20012 70000;MET053CYAM 110600Z 31009KT 15SM SKC 09/08 A3005 RMK SLP179;EQDQ01+000000PRSWM2Q02  00002PRCP24
0153712600999992000101115004+46480-084520FM-15+0192CYAM V0203001N005112200019N0241401N1+01201+01001102171ADDGD12991+0027099GF102991999999999999999999MA1102131999999MW1001REMMET060CYAM 111500Z 30010KT 15SM FEW009 12/10 A3016 RMK SF2 SLP217;EQDQ01+000000PRSWM2
0153712600999992000101407004+46480-084520FM-15+0192CYAM V0201301N001510120019N0160931N1+01401+01401100961ADDGD14991+0120099GF108991999999999999999999MA1100951999999MW1001REMMET060CYAM 140700Z 13003KT 10SM OVC040 14/14 A2981 RMK SC8 SLP096;EQDQ01+000000PRSWM2
0181712600999992000101704004+46480-084520FM-15+0192CYAM V0209999C000010054019N0096561N1+00701+00701102331ADDGD14991+0054099GF108991999999999999999999MA1102271999999MW1101MW2511REMMET066CYAM 170400Z 00000KT 6SM -DZ BR OVC018 07/07 A3020 RMK SC8 SLP233;EQDQ01+000003PRSWM1Q02    003PRSWM1
0317712600999992000101800004+46480-084520SY-MT+0192CYAM V0209999C000012200019N0241401N1+00511+00381102151ADDAA124000391GD12991+0150099GD22991+0360099GF102991999999999999999999KA1120M+01101KA2180N+00501MA1102101099781MD1510051+9999MW1001REMSYN082AAXX  18004 71260 33/// ///// 10051 20038 39978 40215 55005 333 10110 20050 70002;MET070CYAM 180000Z 00000KT 15SM FEW050 FEW120 05/04 A3015 RMK SC1AC2 SLP215;EQDQ01+000000PRSWM2
0159712600999992000101910004+46480-084520FM-15+0192CYAM V0201001N001012200019N0002011N1+00001+00001102161ADDGF100991999999999999999999MA1102101999999MW1481REMMET065CYAM 191000Z 10002KT 1/8SM FZFG SKC M00/M00 A3015 RMK FG6 SLP216;EQDQ01+000003PRSWM1Q02    003PRSWM1
0203712600999992000102023004+46480-084520FM-15+0192CYAM V0203001N002110330019N0241401N1+01301+01001101261ADDGD12991+0120099GD23991+0330099GD33991+0720099GF107991999999999999999999MA1101221999999MW1001REMMET080CYAM 202300Z 30004KT 15SM FEW040 BKN110 BKN240 13/10 A2989 RMK SC2AC4CI1 SLP126;EQDQ01+000000PRSWM2
0131712600999992000102109004+46480-084520FM-15+0192CYAM V0203501N002112200019N0241401N1+00701+00501101831ADDGF100991999999999999999999MA1101801999999MW1001REMMET053CYAM 210900Z 35004KT 15SM SKC 07/05 A3006 RMK SLP183;EQDQ01+000000PRSWM2
0133712600999992000110423504+46480-084520FM-16+0192CYAM V0203501N000510066019N0128741N1+99999+99999999999ADDGD14991+0066099GF108991999999999999999999MW1001MW2801REMMET049CYAM 042350Z CCA35001KT 8SM -SHRA OVC022 RMK SC8;EQDQ01+000003PRSWM1
0130712600999992000110505504+46480-084520FM-16+0192CYAM V0201001N00101000151CN0008051N1+99999+99999999999ADDGD15991+0001599GF109991999999000251999999MW1001MW2491REMMET046CYAM 050550Z 10002KT 1/2SM FZFG VV001 RMK FG8;EQDQ01+000003PRSWM1
0178712600999992000110523004+46480-084520FM-15+0192CYAM V0201101N003112200019N0241401N1+00601+00301101781ADDGD12991+0450099GD22991+0750099GF102991999999999999999999MA1101731999999MW1001REMMET070CYAM 052300Z 11006KT 15SM FEW150 FEW250 06/03 A3004 RMK AC1CI1 SLP178;EQDQ01+000000PRSWM2
0153712600999992000110810004+46480-084520FM-15+0192CYAM V0201901N001010084019N0193121N1+00801+00601101271ADDGD14991+0084099GF108991999999999999999999MA1101221999999MW1001REMMET060CYAM 081000Z 19002KT 12SM OVC028 08/06 A2989 RMK SC8 SLP127;EQDQ01+000000PRSWM2
0323712600999992000111006004+46480-084520SY-MT+0192CYAM V0203401N004110126019N0241401N1+00621+00491100061ADDAA106001091GD12991+0048099GD24991+0126099GF108991999999999999999999KA1240M+00691KA2240N+00611MA1100001097741MD1310101+9999MW1001REMSYN088AAXX  10064 71260 13/// ///// 10062 20049 39774 40006 53010 60011 333 10069 20061 70278;MET070CYAM 100600Z 34008KT 15SM FEW016 OVC042 06/05 A2953 RMK SC2SC6 SLP006;EQDQ01+000000PRSWM2
0292712600999992000111012004+46480-084520SY-MT+0192CYAM V0203401N005110072019N0241401N1+00541+00241100661ADDAA124022991GD14991+0072099GF108991999999999999999999KA1999M+00691KA2120N+00521MA1100611098331MD1210391+9999MW1001REMSYN082AAXX  10124 71260 33/// ///// 10054 20024 39833 40066 52039 333 10069 20052 70228;MET060CYAM 101200Z 34010KT 15SM OVC024 05/02 A2971 RMK SC8 SLP066;EQDQ01+000000PRSWM2
0210712600999992000111507004+46480-084520FM-15+0192CYAM V0203101N007710033019N0048281N1+00101+00001100641ADDGD13991+0033099GD23991+0069099GF107991999999999999999999MA1100581999999MW1851OC101231REMMET078CYAM 150700Z 31015G24KT 3SM -SHSN BKN011 BKN023 01/00 A2970 RMK SC6SC2 SLP064;EQDQ01+000003PRSWM1Q02    003PRSWM1
0144712600999992000111720134+46480-084520FM-16+0192CYAM V0203101N010310087019N0016091N1+99999+99999999999ADDGD14991+0087099GF108991999999999999999999MW1001MW2851OC101391REMMET052CYAM 172013Z 31020G27KT 1SM -SHSN OVC029 RMK SN6SC2;EQDQ01+000003PRSWM1
0178712600999992000111723454+46480-084520FM-16+0192CYAM V0203101N007710150019N0096561N1+99999+99999999999ADDGD12991+0075099GD23991+0150099GF107991999999999999999999MW1001MW2851OC101031REMMET071CYAM 172345Z 31015G20KT 6SM -SHSN FEW025 BKN056 RMK SC2SC5 VSBY LWR SE;EQDQ01+000003PRSWM1
0153712600999992000112018284+46480-084520FM-16+0192CYAM V0200201N005110087019N0048281N1+99999+99999999999ADDGD12991+0018099GD24991+0087099GF108991999999999999999999MW1001MW2711REMMET054CYAM 201828Z 02010KT 3SM -SN SCT006 OVC029 RMK SF3SC5;EQDQ01+000003PRSWM1
0335712600999992000112112004+46480-084520SY-MT+0192CYAM V0200201N005112200019N0241401N1-01111-01381101891ADDAA124000591AJ100059199999999GD12991+0069099GD22991+0300099GF104991999999999999999999IA1279KA1999M-00031MA1101761099451MD1310131+9999MW1001REMSYN088AAXX  21124 71260 33/// ///// 11111 21138 39945 40189 53013 333 11003 22112 43005 70005;MET072CYAM 211200Z 02010KT 15SM FEW023 SCT100 M11/M14 A3005 RMK SC2AC2 SLP189;EQDQ01+000000PRSWM2
0346712600999992000112118004+46480-084520SY-MT+0192CYAM V0200101N002610054019N0096561N1-00711-00961101911ADDAA106000191GD13991+0054099GD23991+0087099GF107991999999999999999999KA1120M-00711KA2240N-01231MA1101761099481MD1810041+9999MW1851REMSYN088AAXX  21184 71260 13/// ///// 11071 21096 39948 40191 58004 69921 333 11071 21123 70003;MET077CYAM 211800Z 01005KT 6SM -SHSN BKN018 BKN029 M07/M10 A3005 RMK SC5SC2 SLP191;EQDQ01+000003PRSWM1Q02    003PRSWM1
0155712600999992000112217004+46480-084520FM-15+0192CYAM V0203401N005112200019N0241401N1-01001-01501102221ADDGD12991+0075099GF102991999999999999999999MA1102101999999MW1001REMMET062CYAM 221700Z 34010KT 15SM FEW025 M10/M15 A3015 RMK SC1 SLP222;EQDQ01+000000PRSWM2
0180712600999992000120502344+46480-084520FM-16+0192CYAM V0202701N005110036019N0064371N1+99999+99999999999ADDGD12991+0024099GD23991+0036099GD34991+0060099GF108991999999999999999999MW1001MW2851REMMET066CYAM 050234Z 27010KT 4SM -SHSN FEW008 BKN012 OVC020 RMK SF2SC4SC2;EQDQ01+000003PRSWM1
0199712600999992000120523004+46480-084520FM-15+0192CYAM V0203301N00621000151CN0006041N1-01001-01201102061ADDGD15991+0001599GF109991999999000251999999MA1101931999999MW1381MW2851OC101031REMMET076CYAM 052300Z 33012G20KT 3/8SM -SHSN BLSN VV004 M10/M12 A3010 RMK SN8 SLP206;EQDQ01+000003PRSWM1Q02    003PRSWM1
0153712600999992000120815534+46480-084520FM-16+0192CYAM V0209999C000010390019N0160931N1+99999+99999999999ADDGD12991+0045099GD23991+0390099GF107991999999999999999999MW1001MW2761REMMET054CYAM 081553Z 00000KT 10SM IC FEW015 BKN130 RMK CU2AC3;EQDQ01+000003PRSWM1
0199712600999992000121910004+46480-084520FM-15+0192CYAM V0200701N00511000151CN0020111N1-01301-01501101451ADDGD15991+0001599GF109991999999000251999999MA1101291999999MW1361MW2711OC100771REMMET076CYAM 191000Z 07010G15KT 1 1/4SM -SN DRSN VV011 M13/M15 A2991 RMK SN8 SLP145;EQDQ01+000003PRSWM1Q02    003PRSWM1
0211712600999992000122616004+46480-084520FM-15+0192CYAM V0202401N004110078019N0048281N1-01001-01101102631ADDGD13991+0078099GD24991+0138099GF108991999999999999999999MA1102471999999MW1851REMMET087CYAM 261600Z 24008KT 3SM -SHSN BKN026 OVC046 M10/M11 A3026 RMK SC5SC2 VSBY NW 1 SLP263;EQDQ01+000003PRSWM1Q02    003PRSWM1
0155712600999992000123013004+46480-084520FM-15+0192CYAM V0209999C000010300019N0241401N1-00901-01301102061ADDGD13991+0300099GF107991999999999999999999MA1101931999999MW1001REMMET062CYAM 301300Z 00000KT 15SM BKN100 M09/M13 A3010 RMK AC7 SLP206;EQDQ01+000000PRSWM2
0100712610999992000011108004+43770-081720SAO  +0214CWGD V0202301N007219999999N9999999N1+00401+00201999999ADDMW1001OC101081REMAWY074WGD SA 0800 AUTO8 M M M 939/04/02/2314+21/M/M PK WND 2321 0751Z 3006 59MM;
0073712610999992000011216004+43770-081720SAO  +0214CWGD V0203001N004119999999N9999999N1-00401-00701999999ADDMW1001REMAWY055WGD SA 1600 AUTO8 M M M 235/-04/-07/3008/M/M 3015 55MM;
0102712610999992000011320004+43770-081720SAO  +0214CWGD V0200201N006119999999N9999999N1-01001-01101999999ADDMW1001OC100871REMAWY076WGD SA 2000 AUTO8 M M M 281/-10/-11/0212+17/M/M PK WND 0121 1933Z 3034 64MM;
0260712610999992000011418004+43770-081720SY-SA+021499999V0201001N001519999999N9999999N1-00671-00881103851ADDAA199999999KA1120M-00631KA2999N-01111MA1999999101121MD1810071+9999MW1001REMSYN080    AAXX  14184 71261 46/// /1003 11067 21088 30112 40385 58007 333 11063 21111;AWY055WGD SA 1800 AUTO8 M M M 385/-07/-09/1103/M/M 8007 79MM;EQDQ01+000990PRSWM4Q02  99992PRCP99
0073712610999992000011722004+43770-081720SAO  +0214CWGD V0209999C000019999999N9999999N1-01401-02001999999ADDMW1001REMAWY055WGD SA 2200 AUTO8 M M M 374/-14/-20/0000/M/M 5014 71MM;
0073712610999992000011907004+43770-081720SAO  +0214CWGD V0201301N002519999999N9999999N1-00901-00901999999ADDMW1001REMAWY055WGD SA 0700 AUTO8 M M M 133/-09/-09/1305/M/M 5001 90MM;
0073712610999992000012001004+43770-081720SAO  +0214CWGD V0202301N003019999999N9999999N1-00501-00501999999ADDMW1001REMAWY055WGD SA 0100 AUTO8 M M M 098/-05/-05/2306/M/M 8015 01MM;
0073712610999992000012603004+43770-081720SAO  +0214CWGD V0203601N003019999999N9999999N1-00801-00801999999ADDMW1001REMAWY055WGD SA 0300 AUTO8 M M M 116/-08/-08/3606/M/M 6001 56MM;
0091712610999992000012607004+43770-081720SAO  +0214CWGD V0200201N005619999999N9999999N1-00901-00901999999ADDMW1001REMAWY073WGD SA 0700 AUTO8 M M M 126/-09/-09/0211/M/M PK WND 0319 0609Z 3009 54MM;
0091712610999992000013114004+43770-081720SAO  +0214CWGD V0202501N006619999999N9999999N1-00301-00301999999ADDMW1001REMAWY073WGD SA 1400 AUTO8 M M M 079/-03/-03/2513/M/M PK WND 2619 1314Z 8008 23MM;
0102712610999992000020908004+43770-081720SAO  +0214CWGD V0201901N006619999999N9999999N1-00301-00401999999ADDMW1001OC101081REMAWY076WGD SA 0800 AUTO8 M M M 142/-03/-04/1913+21/M/M PK WND 1921 0752Z 6031 03MM;
0073712610999992000021205004+43770-081720SAO  +0214CWGD V0203401N005119999999N9999999N1-00601-01001999999ADDMW1001REMAWY055WGD SA 0500 AUTO8 M M M 252/-06/-10/3410/M/M 1008 31MM;
0073712610999992000022108004+43770-081720SAO  +0214CWGD V0202501N003019999999N9999999N1-00301-00401999999ADDMW1001REMAWY055WGD SA 0800 AUTO8 M M M 268/-03/-04/2506/M/M 1004 90MM;
0089712610999992000022716004+43770-081720SAO  +0214CWGD V0202001N007719999999N9999999N1+00901+00901999999ADDMW1001REMAWY071WGD SA 1600 AUTO8 M M M 094/09/09/2015/M/M PK WND 2119 1558Z 1012 11MM;
0071712610999992000022721004+43770-081720SAO  +0214CWGD V0202401N003619999999N9999999N1+00301+00301999999ADDMW1001REMAWY053WGD SA 2100 AUTO8 M M M 131/03/03/2407/M/M 1016 29MM;
0255712610999992000022812004+43770-081720SY-SA+0214CWGD V0203101N001019999999N9999999N1+00051-00071101961ADDAA199999999KA1999M+01151KA2999N-00021MA1999999099331MD1110171+9999MW1001REMSYN076AAXX  28124 71261 46/// /3102 10005 21007 39933 40196 51017 333 10115 21002;AWY054WGD SA 1200 AUTO8 M M M 196/01/-01/3102/M/M 1017 57MM;EQDQ01+000990PRSWM4Q02  99992PRCP99
0072712610999992000022817004+43770-081720SAO  +0214CWGD V0203201N000519999999N9999999N1+00001-00101999999ADDMW1001REMAWY054WGD SA 1700 AUTO8 M M M 240/00/-01/3201/M/M 3024 35MM;
0073712610999992000022902004+43770-081720SAO  +0214CWGD V0209999C000019999999N9999999N1-00201-00301999999ADDMW1001REMAWY055WGD SA 0200 AUTO8 M M M 268/-02/-03/0000/M/M 1009 45MM;
0102712610999992000030215004+43770-081720SAO  +0214CWGD V0203201N007719999999N9999999N1-00101-00301999999ADDMW1001OC101641REMAWY076WGD SA 1500 AUTO8 M M M 175/-01/-03/3215+32/M/M PK WND 3232 1455Z 1022 29MM;
0073712610999992000030309004+43770-081720SAO  +0214CWGD V0203201N000519999999N9999999N1-00301-00301999999ADDMW1001REMAWY055WGD SA 0900 AUTO8 M M M 200/-03/-03/3201/M/M 6002 72MM;
0073712610999992000030311004+43770-081720SAO  +0214CWGD V0203301N003019999999N9999999N1-00201-00201999999ADDMW1001REMAWY055WGD SA 1100 AUTO8 M M M 203/-02/-02/3306/M/M 3003 90MM;
0071712610999992000030515004+43770-081720SAO  +0214CWGD V0203301N004619999999N9999999N1+00301+00201999999ADDMW1001REMAWY053WGD SA 1500 AUTO8 M M M 152/03/02/3309/M/M 3028 62MM;
0091712610999992000031721004+43770-081720SAO  +0214CWGD V0200101N006619999999N9999999N1-00201-01301999999ADDMW1001REMAWY073WGD SA 2100 AUTO8 M M M 329/-02/-13/0113/M/M PK WND 0219 2029Z 3006 03MM;
0102712610999992000031901004+43770-081720SAO  +0214CWGD V0201101N005119999999N9999999N1-00101-00701999999ADDMW1001OC100771REMAWY076WGD SA 0100 AUTO8 M M M 284/-01/-07/1110+15/M/M PK WND 1420 0003Z 5009 61MM;
0071712610999992000032613004+43770-081720SAO  +0214CWGD V0203001N003619999999N9999999N1+00301+00001999999ADDMW1001REMAWY053WGD SA 1300 AUTO8 M M M 103/03/00/3007/M/M 3019 82MM;
0100712610999992000040121004+43770-081720SAO  +0214CWGD V0202001N007219999999N9999999N1+01401-00101999999ADDMW1001OC100971REMAWY074WGD SA 2100 AUTO8 M M M 163/14/-01/2014+19/M/ PK WND 2119 2057Z 8014 63MM;
0101712610999992000040515004+43770-081720SAO  +0214CWGD V0203001N005119999999N9999999N1+00001-00501999999ADDMW1001OC100871REMAWY075WGD SA 1500 AUTO8 M M M 113/00/-05/3010+17/M/ PK WND 3019 1433Z 3011 -35MM;
0261712610999992000041112004+43770-081720SY-SA+0214CWGD V0200801N003119999999N9999999N1-00151-00471102591ADDAA124000091KA1999M+00111KA2120N-00321MA1999999099921MD1610021+9999MW1001REMSYN082AAXX  11124 71261 36/// /0806 11015 21047 39992 40259 56002 333 10011 21032 70000;AWY054WGD SA 1200 AUTO8 M M M 259/-02/-05/0805/M/ 6002 58MM;EQDQ01+000990PRSWM4Q02  00002PRCP24
0071712610999992000041114004+43770-081720SAO  +0214CWGD V0201001N004619999999N9999999N1+00001-00601999999ADDMW1001REMAWY053WGD SA 1400 AUTO8 M M M 255/00/-06/1009/M/ 8003 09MM;
0072712610999992000041308004+43770-081720SAO  +0214CWGD V0201401N002019999999N9999999N1+00001-00801999999ADDMW1001REMAWY054WGD SA 0800 AUTO8 M M M 326/00/-08/1404/M/ 6002 -14MM;
0071712610999992000041409004+43770-081720SAO  +0214CWGD V0201401N004119999999N9999999N1+00501-00201999999ADDMW1001REMAWY053WGD SA 0900 AUTO8 M M M 220/05/-02/1408/M/ 6014 70MM;
0099712610999992000041517004+43770-081720SAO  +0214CWGD V0202001N006119999999N9999999N1+01801+01201999999ADDMW1001OC100921REMAWY073WGD SA 1700 AUTO8 M M M 141/18/12/2012+18/M/ PK WND 2120 1633Z 8006 44MM;
0123712610999992000041714004+43770-081720SAO  +0214CWGD V0200901N008219999999N9999999N1+00501-00101999999ADDMW1001OC101081REMAWY097WGD SA 1400 AUTO8 M M M 192/05/-01/0916+21/M/0004 PCPN 0.4MM PAST HR PK WND 0827 1304Z 0008 78MM;
0070712610999992000042114004+43770-081720SAO  +0214CWGD V0201001N005619999999N9999999N1+00901+00901999999ADDMW1001REMAWY052WGD SA 1400 AUTO8 M M M 019/09/09/1011/M/ 1016 96MM;
0297712610999992000042206004+43770-081720SY-SA+0214CWGD V0200301N004619999999N9999999N1+00531+00531100801ADDAA124001091AA299999999KA1240M+00971KA2240N+00521MA1999999098231MD1510001+9999MW1001OA132401491REMSYN098AAXX  22064 71261 36/// /0309 10053 20053 39823 40080 55000 333 10097 20052 70010 555 31029 40070;AWY052WGD SA 0600 AUTO8 M M M 080/05/05/0308/M/ 5000 33MM;EQDQ01+000990PRSWM4Q02  99992PRCP99
0298712610999992000042606004+43770-081720SY-SA+0214CWGD V0200301N002619999999N9999999N1+00181-00221101871ADDAA124000091AA299999999KA1240M+01191KA2240N+00171MA1999999099261MD1810041+9999MW1001OA132401241REMSYN098AAXX  26064 71261 36/// /0305 10018 21022 39926 40187 58004 333 10119 20017 70000 555 33424 40180;AWY053WGD SA 0600 AUTO8 M M M 187/02/-02/0404/M/ 8004 82MM;EQDQ01+000990PRSWM4Q02  99992PRCP99
0259712610999992000042618004+43770-081720SY-SA+0214CWGD V0203101N004619999999N9999999N1+00911+00081101861ADDAA124000091KA1120M+01071KA2240N-00071MA1999999099251MD1810121+9999MW1001REMSYN082AAXX  26184 71261 36/// /3109 10091 20008 39925 40186 58012 333 10107 21007 70000;AWY052WGD SA 1800 AUTO8 M M M 186/09/01/3109/M/ 8012 18MM;EQDQ01+000990PRSWM4Q02  00002PRCP24
0070712610999992000050410004+43770-081720SAO  +0214CWGD V0201401N004119999999N9999999N1+01001+00101999999ADDMW1001REMAWY052WGD SA 1000 AUTO8 M M M 184/10/01/1408/M/ 8007 01MM;
0122712610999992000051019004+43770-081720SAO  +0214CWGD V0203201N009719999999N9999999N1+00701+00701999999ADDMW1001OC101281REMAWY096WGD SA 1900 AUTO8 M M M 067/07/07/3219+25/M/0006 PCPN 0.6MM PAST HR PK WND 2925 1843Z 3034 43MM;
0088712610999992000051411004+43770-081720SAO  +0214CWGD V0202501N008719999999N9999999N1+00801+00401999999ADDMW1001REMAWY070WGD SA 1100 AUTO8 M M M 136/08/04/2517/M/ PK WND 2224 1042Z 3002 68MM;
0288712610999992000051906004+43770-081720SY-SA+0214CWGD V0200601N004619999999N9999999N1+00751+00341101841ADDAA124034591AA299999999KA1240M+01481KA2240N+00751MA1999999099251MD1510121+9999MW1001REMSYN082AAXX  19064 71261 36/// /0609 10075 20034 39925 40184 55012 333 10148 20075 70346;AWY070WGD SA 0600 AUTO8 M M M 184/08/03/0609/M/ PK WND 0718 0512Z 5012 54MM;EQDQ01+000990PRSWM4Q02  99992PRCP99
0070712610999992000052316004+43770-081720SAO  +0214CWGD V0201701N004119999999N9999999N1+01501+01501999999ADDMW1001REMAWY052WGD SA 1600 AUTO8 M M M 989/15/15/1708/M/ 6014 33MM;
0074712610999992000052505004+43770-081720SAO  +0214CWGD V0202201N005119999999N9999999N1+01201+01101999999ADDMW1001REMAWY056WGD SA 0500 AUTO8 M M M 987/12/11/2210/M/0008 5003 56MM;
0070712610999992000052608004+43770-081720SAO  +0214CWGD V0202801N004619999999N9999999N1+00801+00701999999ADDMW1001REMAWY052WGD SA 0800 AUTO8 M M M 120/08/07/2809/M/ 0004 42MM;
0070712610999992000052715004+43770-081720SAO  +0214CWGD V0200701N004619999999N9999999N1+01601+01001999999ADDMW1001REMAWY052WGD SA 1500 AUTO8 M M M 172/16/10/0709/M/ 0001 10MM;
0111712610999992000053104004+43770-081720SAO  +0214CWGD V0201501N004119999999N9999999N1+01601+01301999999ADDMW1001REMAWY093WGD SA 0400 AUTO8 M M M 158/16/13/1508/M/0004 PCPN 0.4MM PAST HR PK WND 1816 0303Z 8004 76MM;
0088712610999992000060807004+43770-081720SAO  +0214CWGD V0202401N004619999999N9999999N1+01501+01201999999ADDMW1001REMAWY070WGD SA 0700 AUTO8 M M M 163/15/12/2409/M/ PK WND 2026 0626Z 5002 79MM;
0100712610999992000060913004+43770-081720SAO  +0214CWGD V0203401N000519999999N9999999N1+01701+01601999999ADDMW1001REMAWY082WGD SA 1300 AUTO8 M M M 158/17/16/3401/M/0020 PCPN 2.0MM PAST HR PRESRR 3042 94MM;
0094712610999992000061307004+43770-081720SAO  +0214CWGD V0201001N002519999999N9999999N1+01301+01301999999ADDMW1001REMAWY076WGD SA 0700 AUTO8 M M M 172/13/13/1005/M/0126<PCPN 12.6MM PAST HR 5014 66MM;
0099712610999992000062109004+43760-081720SAO  +0214CWGD V0201901N007219999999N9999999N1+02101+02001999999ADDMW1001OC101181REMAWY073WGD SA 0900 AUTO8 M M M 058/21/20/1914+23/M/ PK WND 1923 0853Z 6013 70MM;
0099712610999992000062208004+43760-081720SAO  +0214CWGD V0202101N008219999999N9999999N1+01801+01401999999ADDMW1001OC101231REMAWY073WGD SA 0800 AUTO8 M M M 028/18/14/2116+24/M/ PK WND 2226 0711Z 8016 29MM;
0259712610999992000062318004+43760-081720SY-SA+0214CWGD V0202601N003119999999N9999999N1+01901+01611101741ADDAA124000091KA1120M+01901KA2240N+01161MA1999999099181MD1310031+9999MW1001REMSYN082AAXX  23184 71261 36/// /2606 10190 20161 39918 40174 53003 333 10190 20116 70000;AWY052WGD SA 1800 AUTO8 M M M 174/19/16/2606/M/ 3003 01MM;EQDQ01+000990PRSWM4Q02  00002PRCP24
0070712610999992000062804004+43760-081720SAO  +0214CWGD V0200501N002519999999N9999999N1+01401+01201999999ADDMW1001REMAWY052WGD SA 0400 AUTO8 M M M 178/14/12/0505/M/ 1009 62MM;
0070712610999992000070905004+43760-081720SAO  +0214CWGD V0201901N004619999999N9999999N1+01801+01101999999ADDMW1001REMAWY052WGD SA 0500 AUTO8 M M M 168/18/11/1909/M/ 6007 42MM;
0070712610999992000070910004+43760-081720SAO  +0214CWGD V0201901N004119999999N9999999N1+01801+01501999999ADDMW1001REMAWY052WGD SA 1000 AUTO8 M M M 136/18/15/1908/M/ 6013 50MM;
0070712610999992000071315004+43760-081720SAO  +0214CWGD V0202501N002519999999N9999999N1+02201+01601999999ADDMW1001REMAWY052WGD SA 1500 AUTO8 M M M 158/22/16/2505/M/ 6002 89MM;
0070712610999992000071614004+43760-081720SAO  +0214CWGD V0202701N002519999999N9999999N1+01901+01901999999ADDMW1001REMAWY052WGD SA 1400 AUTO8 M M M 077/19/19/2705/M/ 1008 55MM;
0070712610999992000072501004+43760-081720SAO  +0214CWGD V0200201N002519999999N9999999N1+01801+01401999999ADDMW1001REMAWY052WGD SA 0100 AUTO8 M M M 207/18/14/0205/M/ 6007 87MM;
0070712610999992000080413004+43760-081720SAO  +0214CWGD V0201401N001019999999N9999999N1+01701+01501999999ADDMW1001REMAWY052WGD SA 1300 AUTO8 M M M 205/17/15/1402/M/ 1008 61MM;
0259712610999992000080512004+43760-081720SY-SA+0214CWGD V0201401N003119999999N9999999N1+01521+01181101821ADDAA124000091KA1999M+02051KA2120N+00991MA1999999099271MD1610031+9999MW1001REMSYN082AAXX  05124 71261 36/// /1406 10152 20118 39927 40182 56003 333 10205 20099 70000;AWY052WGD SA 1200 AUTO8 M M M 182/15/12/1406/M/ 6003 28MM;EQDQ01+000990PRSWM4Q02  00002PRCP24
0088712610999992000080716004+43760-081720SAO  +0214CWGD V0202101N006619999999N9999999N1+02301+02101999999ADDMW1001REMAWY070WGD SA 1600 AUTO8 M M M 095/23/21/2113/M/ PK WND 2116 1532Z 3007 53MM;
0070712610999992000080913004+43760-081720SAO  +0214CWGD V0202201N003019999999N9999999N1+01801+01801999999ADDMW1001REMAWY052WGD SA 1300 AUTO8 M M M 124/18/18/2206/M/ 3014 41MM;
0074712610999992000080916004+43760-081720SAO  +0214CWGD V0202001N004619999999N9999999N1+02201+02001999999ADDMW1001REMAWY056WGD SA 1600 AUTO8 M M M 110/22/20/2009/M/0002 8013 50MM;
0099712610999992000081623004+43760-081720SAO  +0214CWGD V0203501N005119999999N9999999N1+01701+01101999999ADDMW1001OC100771REMAWY073WGD SA 2300 AUTO8 M M M 202/17/11/3510+15/M/ PK WND 3520 2207Z 5002 83MM;
0259712610999992000082518004+43760-081720SY-SA+0214CWGD V0202201N004119999999N9999999N1+02251+01701101871ADDAA124000091KA1120M+02281KA2240N+00921MA1999999099311MD1810131+9999MW1001REMSYN082AAXX  25184 71261 36/// /2208 10225 20170 39931 40187 58013 333 10228 20092 70000;AWY052WGD SA 1800 AUTO8 M M M 187/23/17/2208/M/ 8013 50MM;EQDQ01+000990PRSWM4Q02  00002PRCP24
0070712610999992000082611004+43760-081720SAO  +0214CWGD V0201701N003619999999N9999999N1+01901+01901999999ADDMW1001REMAWY052WGD SA 1100 AUTO8 M M M 133/19/19/1707/M/ 6010 99MM;
0070712610999992000082802004+43760-081720SAO  +0214CWGD V0200601N002519999999N9999999N1+01701+01701999999ADDMW1001REMAWY052WGD SA 0200 AUTO8 M M M 164/17/17/0605/M/ 3015 44MM;
0070712610999992000082907004+43760-081720SAO  +0214CWGD V0201301N004119999999N9999999N1+01801+01801999999ADDMW1001REMAWY052WGD SA 0700 AUTO8 M M M 171/18/18/1308/M/ 8006 09MM;
0070712610999992000083021004+43760-081720SAO  +0214CWGD V0203301N003019999999N9999999N1+02201+01701999999ADDMW1001REMAWY052WGD SA 2100 AUTO8 M M M 195/22/17/3306/M/ 6011 57MM;
0305712610999992000090206004+43760-081720SY-SA+0214CWGD V0200501N003619999999N9999999N1+01871+01871101701ADDAA106000191AA299999999KA1240M+02761KA2240N+01871MA1999999099171MD1810011+9999MW1001REMSYN094AAXX  02064 71261 1//// /0507 10187 20187 39917 40170 58001 69921 7//4/ 333 10276 20187 70002;AWY075WGD SA 0600 AUTO8 M M M 170/19/19/0609/M/0002 PCPN 0.2MM PAST HR 8001 77MM;EQDQ01+000990PRSWM4Q02  99992PRCP99
0070712610999992000090503004+43760-081720SAO  +0214CWGD V0200401N003019999999N9999999N1+00901+00701999999ADDMW1001REMAWY052WGD SA 0300 AUTO8 M M M 268/09/07/0406/M/ 1026 94MM;
0259712610999992000090700004+43760-081720SY-SA+0214CWGD V0201201N002119999999N9999999N1+01431+01271102601ADDAA124000091KA1120M+01941KA2180N+00401MA1999999100001MD1610101+9999MW1001REMSYN082AAXX  07004 71261 36/// /1204 10143 20127 30000 40260 56010 333 10194 20040 70000;AWY052WGD SA 0000 AUTO8 M M M 260/14/13/1304/M/ 6010 37MM;EQDQ01+000990PRSWM4Q02  00002PRCP24
0070712610999992000090707004+43760-081720SAO  +0214CWGD V0201401N002519999999N9999999N1+01201+01101999999ADDMW1001REMAWY052WGD SA 0700 AUTO8 M M M 243/12/11/1405/M/ 6007 21MM;
0070712610999992000090923004+43760-081720SAO  +0214CWGD V02099999999999999999N9999999N1+02601+02201999999ADDMW1001REMAWY052WGD SA 2300 AUTO8 M M M 167/26/22/MMMM/M/ 6005 65MM;
0270712610999992000091206004+43760-081720SY-SA+0214CWGD V02099999999999999999N9999999N1+02061+01981100751ADDAA124000391AA299999999KA1240M+02451KA2240N+01821MA1999999098241MD1110021+9999MW1001REMSYN082AAXX  12064 71261 36/// ///// 10206 20198 39824 40075 51002 333 10245 20182 70002;AWY052WGD SA 0600 AUTO8 M M M 075/21/20/MMMM/M/ 1002 68MM;EQDQ01+000990PRSWM4Q02  99992PRCP99
0070712610999992000091621004+43760-081720SAO  +0214CWGD V02099999999999999999N9999999N1+01401+00701999999ADDMW1001REMAWY052WGD SA 2100 AUTO8 M M M 165/14/07/MMMM/M/ 8003 09MM;
0099712610999992000092016004+43760-081720SAO  +0214CWGD V0202101N006119999999N9999999N1+02101+01701999999ADDMW1001OC100921REMAWY073WGD SA 1600 AUTO8 M M M 039/21/17/2112+18/M/ PK WND 2119 1506Z 3003 62MM;
0070712610999992000092022004+43760-081720SAO  +0214CWGD V0202501N002519999999N9999999N1+02101+01801999999ADDMW1001REMAWY052WGD SA 2200 AUTO8 M M M 988/21/18/2505/M/ 8031 91MM;
0099712610999992000092917004+43760-081720SAO  +0214CWGD V0202001N007719999999N9999999N1+01501+00801999999ADDMW1001OC101021REMAWY073WGD SA 1700 AUTO8 M M M 270/15/08/2015+20/M/ PK WND 1920 1654Z 8011 77MM;
0099712610999992000093021004+43760-081720SAO  +0214CWGD V0202101N005619999999N9999999N1+01901+01201999999ADDMW1001OC100921REMAWY073WGD SA 2100 AUTO8 M M M 171/19/12/2111+18/M/ PK WND 2118 2021Z 6014 67MM;
0088712610999992000100211004+43760-081720SAO  +0214CWGD V0201801N004619999999N9999999N1+01701+01501999999ADDMW1001REMAWY070WGD SA 1100 AUTO8 M M M 092/17/15/1809/M/ PK WND 2120 1033Z 6008 66MM;
0103712610999992000100620004+43760-081720SAO  +0214CWGD V0202901N006619999999N9999999N1+01001+00701999999ADDMW1001OC101131REMAWY077WGD SA 2000 AUTO8 M M M 153/10/07/2913+22/M/0002 PK WND 3022 1953Z 3006 25MM;
0315712610999992000100700004+43760-081720SY-SA+0214CWGD V0203101N004619999999N9999999N1+00781+00331101681ADDAA106000191AA299999999KA1120M+01121KA2180N+00651MA1999999099081MD1310101+9999MW1001OC100821REMSYN094AAXX  07004 71261 1//// /3109 10078 20033 39908 40168 53010 69921 7//4/ 333 10112 20065 70072;AWY077WGD SA 0000 AUTO8 M M M 168/08/03/3208+16/M/0002 PK WND 2828 2324Z 3010 83MM;EQDQ01+000990PRSWM4Q02  99992PRCP99
0070712610999992000100815004+43760-081720SAO  +0214CWGD V0200701N004119999999N9999999N1+00501+00201999999ADDMW1001REMAWY052WGD SA 1500 AUTO8 M M M 264/05/02/0708/M/ 1011 65MM;
0103712610999992000101415004+43760-081720SAO  +0214CWGD V0201901N005619999999N9999999N1+01601+01201999999ADDMW1001OC100921REMAWY077WGD SA 1500 AUTO8 M M M 137/16/12/1911+18/M/0002 PK WND 2118 1449Z 8004 55MM;
0070712610999992000101717004+43760-081720SAO  +0214CWGD V0202901N003019999999N9999999N1+01401+01201999999ADDMW1001REMAWY052WGD SA 1700 AUTO8 M M M 219/14/12/2906/M/ 8009 27MM;
0071712610999992000110121004+43760-081720SAO  +0214CWGD V0202201N001519999999N9999999N1+01401+00801999999ADDMW1001REMAWY053WGD SA 2100 AUTO8 M M M 228/14/08/2203/M/M 6012 75MM;
0100712610999992000110423004+43760-081720SAO  +0214CWGD V0202901N006119999999N9999999N1+00901+00201999999ADDMW1001OC100871REMAWY074WGD SA 2300 AUTO8 M M M 153/09/02/2912+17/M/M PK WND 2718 2217Z 8002 59MM;
0101712610999992000110710004+43760-081720SAO  +0214CWGD V0201101N010219999999N9999999N1+00701+00001999999ADDMW1001OC101381REMAWY075WGD SA 1000 AUTO8 M M M 143/07/00/1120+27/M/M PK WND 1328 0932Z 6020 5-1MM;
0071712610999992000111208004+43760-081720SAO  +0214CWGD V0201001N005619999999N9999999N1+00201+00101999999ADDMW1001REMAWY053WGD SA 0800 AUTO8 M M M 245/02/01/1011/M/M 8002 18MM;
0071712610999992000111223004+43760-081720SAO  +0214CWGD V0201001N002519999999N9999999N1+00301+00101999999ADDMW1001REMAWY053WGD SA 2300 AUTO8 M M M 190/03/01/1005/M/M 5003 40MM;
0071712610999992000111307004+43760-081720SAO  +0214CWGD V0200901N003019999999N9999999N1+00301+00201999999ADDMW1001REMAWY053WGD SA 0700 AUTO8 M M M 161/03/02/0906/M/M 5009 44MM;
0100712610999992000111704004+43760-081720SAO  +0214CWGD V0202701N008719999999N9999999N1+00401+00401999999ADDMW1001OC101181REMAWY074WGD SA 0400 AUTO8 M M M 003/04/04/2717+23/M/M PK WND 2631 0320Z 1013 36MM;
0101712610999992000111716004+43760-081720SAO  +0214CWGD V0202901N007719999999N9999999N1+00301-00301999999ADDMW1001OC101231REMAWY075WGD SA 1600 AUTO8 M M M 092/03/-03/2915+24/M/M PK WND 3024 1553Z 1022 75MM;
0102712610999992000112221004+43760-081720SAO  +0214CWGD V0203501N011319999999N9999999N1-00601-00801999999ADDMW1001OC101591REMAWY076WGD SA 2100 AUTO8 M M M 186/-06/-08/3522+31/M/M PK WND 3536 2017Z 3025 95MM;
0073712610999992000112416004+43760-081720SAO  +0214CWGD V0201701N004119999999N9999999N1-00101-00601999999ADDMW1001REMAWY055WGD SA 1600 AUTO8 M M M 261/-01/-06/1708/M/M 8001 84MM;
0091712610999992000122319004+43760-081720SAO  +0214CWGD V0201701N004619999999N9999999N1-00801-00801999999ADDMW1001REMAWY073WGD SA 1900 AUTO8 M M M 282/-08/-08/1709/M/M PK WND 2116 1814Z 6027 73MM;
0073712610999992000122714004+43760-081720SAO  +0214CWGD V0202901N003619999999N9999999N1-00601-01001999999ADDMW1001REMAWY055WGD SA 1400 AUTO8 M M M 201/-06/-10/2907/M/M 8005 06MM;
0211712625999992000011518004+43200-079170FM-15+0098CYSN V0201701N005110690019N0241401N1-00201-00801102891ADDGD12991+0060099GD22991+0240099GD34991+0690099GF108991999999999999999999MA1102841999999MW1001REMMET088CYSN 151800Z 17010KT 15SM FEW020 FEW080 OVC230 M02/M08 A3037 RMK CU1AC2CI3 CU TR SLP289;EQDQ01+000000PRSWM2
0155712625999992000011701004+43200-079170FM-15+0098CYSN V0203501N010310096019N0241401N1-00901-01601103331ADDGD13991+0096099GF107991999999999999999999MA1103291999999MW1001REMMET062CYSN 170100Z 35020KT 15SM BKN032 M09/M16 A3050 RMK SC6 SLP333;EQDQ01+000000PRSWM2
0143712625999992000011802514+43200-079170FM-16+0098CYSN V0202101N002610027019N0048281N1+99999+99999999999ADDGD14991+0027099GF108991999999999999999999MW1001MW2851REMMET059CYSN 180251Z 21005KT 3SM -SHSN OVC009 RMK SC8 VSBY NE 11/2;EQDQ01+000003PRSWM1
0205712625999992000011820004+43200-079170FM-15+0098CYSN V0201101N001510105019N0241401N1-00901-01601101781ADDGD12991+0054099GD23991+0105099GD34991+0270099GF108991999999999999999999MA1101691999999MW1001REMMET082CYSN 182000Z 11003KT 15SM FEW018 BKN035 OVC090 M09/M16 A3003 RMK SC1SC2AC3 SLP178;EQDQ01+000000PRSWM2
0155712625999992000020212004+43200-079170FM-15+0098CYSN V0203001N005110066019N0241401N1-00901-01301102241ADDGD13991+0066099GF107991999999999999999999MA1102171999999MW1001REMMET062CYSN 021200Z 30010KT 15SM BKN022 M09/M13 A3017 RMK SC6 SLP224;EQDQ01+000000PRSWM2
0175712625999992000020420004+43200-079170FM-15+0098CYSN V0200201N005710045019N0241401N1-00401-00701101291ADDGD14991+0045099GF108991999999999999999999MA1101251999999MW1711REMMET066CYSN 042000Z 02011KT 15SM -SN OVC015 M04/M07 A2990 RMK SC8 SLP129;EQDQ01+000003PRSWM1Q02    003PRSWM1
0142712625999992000021100314+43200-079170FM-16+0098CYSN V0200701N002610021019N0064371N1+99999+99999999999ADDGD14991+0021099GF108991999999999999999999MW1001MW2661MW3851REMMET052CYSN 110031Z 07005KT 4SM -SHSN -FZRA OVC007 RMK SC8;EQDQ01+000003PRSWM1
0179712625999992000030519004+43200-079170FM-15+0098CYSN V0203301N005110135019N0241401N1+00601-00201101421ADDGD12991+0096099GD23991+0135099GF107991999999999999999999MA1101391999999MW1001REMMET071CYSN 051900Z 33010KT 15SM FEW032 BKN045 06/M02 A2994 RMK CU2SC6 SLP142;EQDQ01+000000PRSWM2
0153712625999992000030822004+43200-079170FM-15+0098CYSN V0202101N005110750019N0193121N1+01901+01001100871ADDGD13991+0750099GF107991999999999999999999MA1100851999999MW1001REMMET060CYSN 082200Z 21010KT 12SM BKN250 19/10 A2978 RMK CI2 SLP087;EQDQ01+000000PRSWM2
0187712625999992000031003004+43200-079170FM-15+0098CYSN V0203201N004610036019N0241401N1+00101+00001101161ADDGD14991+0036099GF108991999999999999999999KA1999M+01101MA1101151999999MW1001REMMET081CYSN 100300Z 32009KT 15SM OVC012 01/M00 A2987 RMK SC8 LAST OB/NEXT 101100 SLP116;EQDQ01+000000PRSWM2
0179712625999992000031117004+43200-079170FM-15+0098CYSN V0200601N006210075019N0241401N1+00001-00401101931ADDGD12991+0057099GD24991+0075099GF108991999999999999999999MA1101901999999MW1001REMMET071CYSN 111700Z 06012KT 15SM SCT019 OVC025 00/M04 A3009 RMK SC3SC5 SLP193;EQDQ01+000000PRSWM2
0155712625999992000031814004+43200-079170FM-15+0098CYSN V0201001N005112200019N0241401N1-00301-01201103801ADDGD12991+0360099GF102991999999999999999999MA1103761999999MW1001REMMET062CYSN 181400Z 10010KT 15SM FEW120 M03/M12 A3064 RMK AC1 SLP380;EQDQ01+000000PRSWM2
0192712625999992000032819384+43200-079170FM-16+0098CYSN V0202601N007710300019N0193121N1+99999+99999999999ADDGD12991+0105099GD23991+0300099GD33991+0630099GF107991999999999999999999MW1001MW2801REMMET078CYSN 281938Z 26015KT 12SM -SHRA SCT035 BKN100 BKN210 RMK CU3AC2CI2 TCU ASOCTD;EQDQ01+000003PRSWM1
0164712625999992000032916004+43200-079170FM-15+0098CYSN V0202801N006210060019N0241401N1+00501+00001100261ADDGD14991+0060099GF108991999999999999999999MA1100241999999MW1001OC101131REMMET063CYSN 291600Z 28012G22KT 15SM OVC020 05/00 A2960 RMK SC8 SLP026;EQDQ01+000000PRSWM2
0179712625999992000040715004+43200-079170FM-15+0098CYSN V0209999C000010360019N0241401N1+00501-00101101681ADDGD13991+0360099GD24991+0690099GF108991999999999999999999MA1101661999999MW1001REMMET071CYSN 071500Z 00000KT 15SM BKN120 OVC230 05/M01 A3002 RMK AC7CI1 SLP168;EQDQ01+000000PRSWM2
0153712625999992000040718004+43200-079170FM-15+0098CYSN V0203301N001510300019N0241401N1+00701+00101101581ADDGD13991+0300099GF107991999999999999999999MA1101561999999MW1001REMMET060CYSN 071800Z 33003KT 15SM BKN100 07/01 A2999 RMK AC7 SLP158;EQDQ01+000000PRSWM2
0132712625999992000040900144+43200-079170FM-16+0098CYSN V0203201N007710030019N0024141N1+99999+99999999999ADDGD14991+0030099GF108991999999999999999999MW1001MW2711REMMET048CYSN 090014Z 32015KT 1 1/2SM -SN OVC010 RMK SC8;EQDQ01+000003PRSWM1
0153712625999992000041623004+43200-079170FM-15+0098CYSN V0200601N004110036019N0241401N1+00601+00301102101ADDGD14991+0036099GF108991999999999999999999MA1102071999999MW1001REMMET060CYSN 162300Z 06008KT 15SM OVC012 06/03 A3014 RMK SC8 SLP210;EQDQ01+000000PRSWM2
0152712625999992000041810004+43200-079170FM-15+0098CYSN V0200701N002610060019N0128741N1+00401+00301101661ADDGD14991+0060099GF108991999999999999999999MA1101631999999MW1001REMMET059CYSN 181000Z 07005KT 8SM OVC020 04/03 A3001 RMK SC8 SLP166;EQDQ01+000000PRSWM2
0171712625999992000041915004+43200-079170FM-15+0098CYSN V0200601N001010180019N0080461N1+01101+00701101821ADDGD13991+0180099GF107991999999999999999999MA1101801999999MW1051REMMET062CYSN 191500Z 06002KT 5SM HZ BKN060 11/07 A3006 RMK SC7 SLP182;EQDQ01+000003PRSWM1Q02    003PRSWM1
0203712625999992000042315004+43200-079170FM-15+0098CYSN V0203401N004110240019N0482801N1+00901+00501101181ADDGD12991+0060099GD22991+0120099GD33991+0240099GF107991999999999999999999MA1101151999999MW1001REMMET080CYSN 231500Z 34008KT 30SM FEW020 FEW040 BKN080 09/05 A2987 RMK SC1SC2AC5 SLP118;EQDQ01+000000PRSWM2
0154712625999992000042515004+43200-079170FM-15+0098CYSN V0200501N006212200019N0241401N1+00801-00201101811ADDGD12991+0750099GF102991999999999999999999MA1101801999999MW1001REMMET061CYSN 251500Z 05012KT 15SM FEW250 08/M02 A3006 RMK CI1 SLP181;EQDQ01+000000PRSWM2
0179712625999992000042619004+43200-079170FM-15+0098CYSN V0200401N006712200019N0241401N1+00901-00301101861ADDGD12991+0150099GD22991+0780099GF102991999999999999999999MA1101831999999MW1001REMMET071CYSN 261900Z 04013KT 15SM FEW050 FEW260 09/M03 A3007 RMK CU1CI1 SLP186;EQDQ01+000000PRSWM2
0153712625999992000050112004+43200-079170FM-15+0098CYSN V0201901N005110240019N0241401N1+01001+00001101291ADDGD14991+0240099GF108991999999999999999999MA1101291999999MW1001REMMET060CYSN 011200Z 19010KT 15SM OVC080 10/00 A2991 RMK AC8 SLP129;EQDQ01+000000PRSWM2
0187712625999992000050121004+43200-079170FM-15+0098CYSN V0201901N004110090019N0036201N1+01201+01101100761ADDGD14991+0090099GF108991999999999999999999MA1100751999999MW1101MW2801REMMET072CYSN 012100Z 19008KT 2 1/4SM -SHRA BR OVC030 12/11 A2975 RMK SC8 SLP076;EQDQ01+000003PRSWM1Q02    003PRSWM1
0153712625999992000050213004+43200-079170FM-15+0098CYSN V0203201N002612200019N0193121N1+00901+00701101811ADDGD12991+0060099GF102991999999999999999999MA1101801999999MW1001REMMET060CYSN 021300Z 32005KT 12SM FEW020 09/07 A3006 RMK CU1 SLP181;EQDQ01+000000PRSWM2
0142712625999992000050523004+43200-079170FM-15+0098CYSN V0202201N005112200019N0160931N1+02401+01501101581ADDGF100991999999999999999999MA1101591999999MW1001OC100771REMMET056CYSN 052300Z 22010G15KT 10SM SKC 24/15 A3000 RMK SLP158;EQDQ01+000000PRSWM2
0181712625999992000050910474+43200-079170FM-16+0098CYSN V0202301N007210147019N0160931N1+99999+99999999999ADDGD13991+0147099GD24991+0240099GF108991999999999999999999MW1001MW2171OC101031REMMET074CYSN 091047Z 23014G20KT 10SM TS BKN049 OVC080 RMK SC5AC3 CB EMBDD LTGICCC;EQDQ01+000003PRSWM1
0223712625999992000051211004+43200-079170FM-15+0098CYSN V0201101N003610135019N0080461N1+01301+01101100471ADDGA1999+009009099GD12991+0090099GD24991+0135099GF108991999999999999999999MA1100471999999MW1801MW2951REMMET077CYSN 121100Z 11007KT 5SM -TSRA SCT030CB OVC045 13/11 A2967 RMK CB3SC5 SLP047;EQDQ01+000003PRSWM1Q02    003PRSWM1
0157712625999992000051215254+43200-079170FM-16+0098CYSN V0203201N008210006019N0040231N1+99999+99999999999ADDGD14991+0006099GF108991999999999999999999MW1001MW2801OC101181REMMET065CYSN 121525Z 32016G23KT 2 1/2SM -SHRA OVC002 RMK SF8 VSBY S-SE 8;EQDQ01+000003PRSWM1
0156712625999992000051621194+43200-079170FM-16+0098CYSN V0202701N004110300019N0241401N1+99999+99999999999ADDGD12991+0180099GD24991+0300099GF108991999999999999999999MW1001MW2801REMMET057CYSN 162119Z 27008KT 15SM -SHRA SCT060 OVC100 RMK SC3AC5;EQDQ01+000003PRSWM1
0202712625999992000051822004+43200-079170FM-15+0098CYSN V0200301N005110300019N0128741N1+01301+01101101221ADDGD12991+0060099GD22991+0180099GD34991+0300099GF108991999999999999999999MA1101221999999MW1001REMMET079CYSN 182200Z 03010KT 8SM FEW020 SCT060 OVC100 13/11 A2989 RMK SC1SC2AC5 SLP122;EQDQ01+000000PRSWM2
0178712625999992000052919004+43200-079170FM-15+0098CYSN V0200301N006212200019N0241401N1+01801+01101101711ADDGD12991+0120099GD22991+0750099GF102991999999999999999999MA1101691999999MW1001REMMET070CYSN 291900Z 03012KT 15SM FEW040 FEW250 18/11 A3003 RMK CU1CI1 SLP171;EQDQ01+000000PRSWM2
0178712625999992000060123004+43200-079170FM-15+0098CYSN V0200801N001012200019N0241401N1+02101+00901101791ADDGD12991+0240099GD22991+0750099GF104991999999999999999999MA1101801999999MW1001REMMET070CYSN 012300Z 08002KT 15SM FEW080 SCT250 21/09 A3006 RMK AC2CI1 SLP179;EQDQ01+000000PRSWM2
0208712625999992000061317004+43200-079170FM-15+0098CYSN V0200501N001010009019N0048281N1+01301+01301101521ADDGD13991+0009099GD24991+0042099GF108991999999999999999999MA1101521999999MW1101MW2801REMMET078CYSN 131700Z 05002KT 3SM -SHRA BR BKN003 OVC014 13/13 A2998 RMK SF6SC2 SLP152;EQDQ01+000003PRSWM1Q02    003PRSWM1
0216712625999992000061402004+43190-079170FM-15+0098CYSN V0209999C000010042019N0096561N1+01401+01401101531ADDGD12991+0015099GD24991+0042099GF108991999999999999999999MA1101521999999MW1101REMMET092CYSN 140200Z 00000KT 6SM BR SCT005 OVC014 14/14 A2998 RMK SF3SC4 LAST OB/NEXT 141000 SLP153;EQDQ01+000003PRSWM1Q02    003PRSWM1
0153712625999992000061610004+43190-079170FM-15+0098CYSN V0201801N005112200019N0241401N1+01701+01501100841ADDGD12991+0750099GF102991999999999999999999MA1100851999999MW1001REMMET060CYSN 161000Z 18010KT 15SM FEW250 17/15 A2978 RMK CI1 SLP084;EQDQ01+000000PRSWM2
0178712625999992000061718004+43190-079170FM-15+0098CYSN V0203201N006210600019N0241401N1+02301+01501101711ADDGD12991+0096099GD23991+0600099GF107991999999999999999999MA1101731999999MW1001REMMET070CYSN 171800Z 32012KT 15SM FEW032 BKN200 23/15 A3004 RMK CU1CI2 SLP171;EQDQ01+000000PRSWM2
0178712625999992000061800004+43190-079170FM-15+0098CYSN V0203201N005112200019N0241401N1+01901+01101101961ADDGD12991+0090099GD22991+0630099GF102991999999999999999999MA1101961999999MW1001REMMET070CYSN 180000Z 32010KT 15SM FEW030 FEW210 19/11 A3011 RMK SC1CI1 SLP196;EQDQ01+000000PRSWM2
0173712625999992000062302004+43190-079170FM-15+0098CYSN V0202901N005112200019N0241401N1+01801+01401100831ADDGD12991+0090099GF102991999999999999999999MA1100851999999MW1001REMMET080CYSN 230200Z 29010KT 15SM FEW030 18/14 A2978 RMK SC2 LAST OB/NEXT 231000 SLP083;EQDQ01+000000PRSWM2
0163712625999992000062501134+43190-079170FM-16+0098CYSN V0201701N005110300019N0128741N1+99999+99999999999ADDGD12991+0090099GD24991+0300099GF108991999999999999999999MW1001MW2171REMMET064CYSN 250113Z 17010KT 8SM TS SCT030 OVC100 RMK SC3AC5 CB EMBDD W;EQDQ01+000003PRSWM1
0244712625999992000062511004+43190-079170FM-15+0098CYSN V0202101N005110102019N0048281N1+02201+02001100621ADDGD12991+0054099GD23991+0102099GD34991+0180099GF108991999999999999999999MA1100641999999MW1101MW2801OC100771REMMET091CYSN 251100Z 21010G15KT 3SM -SHRA BR FEW018 BKN034 OVC068 22/20 A2972 RMK SF1SC6AC1 SLP062;EQDQ01+000003PRSWM1Q02    003PRSWM1
0153712625999992000072212004+43190-079170FM-15+0098CYSN V0202701N004112200019N0241401N1+01501+01201101541ADDGD12991+0054099GF102991999999999999999999MA1101561999999MW1001REMMET060CYSN 221200Z 27008KT 15SM FEW018 15/12 A2999 RMK CU1 SLP154;EQDQ01+000000PRSWM2
0203712625999992000072420004+43190-079170FM-15+0098CYSN V0200501N004112200019N0241401N1+02301+01301102091ADDGD12991+0090099GD22991+0300099GD32991+0750099GF102991999999999999999999MA1102101999999MW1001REMMET080CYSN 242000Z 05008KT 15SM FEW030 FEW100 FEW250 23/13 A3015 RMK CU1AC1CI0 SLP209;EQDQ01+000000PRSWM2
0152712625999992000072611004+43190-079170FM-15+0098CYSN V0201701N002112200019N0128741N1+01901+01601102241ADDGD12991+0270099GF102991999999999999999999MA1102271999999MW1001REMMET059CYSN 261100Z 17004KT 8SM FEW090 19/16 A3020 RMK AC1 SLP224;EQDQ01+000000PRSWM2
0203712625999992000080917004+43190-079170FM-15+0098CYSN V0202401N005110750019N0241401N1+02601+01801101031ADDGD12991+0060099GD22991+0300099GD33991+0750099GF107991999999999999999999MA1101051999999MW1001REMMET080CYSN 091700Z 24010KT 15SM FEW020 SCT100 BKN250 26/18 A2984 RMK CU1AC3CI1 SLP103;EQDQ01+000000PRSWM2
0178712625999992000081900004+43190-079170FM-15+0098CYSN V0202101N002610105019N0241401N1+01901+01501101481ADDGD13991+0105099GD23991+0210099GF107991999999999999999999MA1101491999999MW1001REMMET070CYSN 190000Z 21005KT 15SM BKN035 BKN070 19/15 A2997 RMK SC6AC2 SLP148;EQDQ01+000000PRSWM2
0184712625999992000082022004+43190-079170FM-15+0098CYSN V0200401N004112200019N0241401N1+01801+00701102591ADDGD12991+0075099GD22991+0750099GF104991999999999999999999MA1102571999999MW1001REMMET076CYSN 202200Z 04008KT 15SM FEW025 SCT250 18/07 A3029 RMK CU1CI1 TR CU SLP259;EQDQ01+000000PRSWM2
0153712625999992000082723004+43190-079170FM-15+0098CYSN V0200501N005110750019N0160931N1+02201+01901101451ADDGD13991+0750099GF107991999999999999999999MA1101461999999MW1001REMMET060CYSN 272300Z 05010KT 10SM BKN250 22/19 A2996 RMK CI2 SLP145;EQDQ01+000000PRSWM2
0178712625999992000083001004+43190-079170FM-15+0098CYSN V0209999C000010750019N0160931N1+02301+01801101781ADDGD12991+0360099GD23991+0750099GF107991999999999999999999MA1101801999999MW1001REMMET070CYSN 300100Z 00000KT 10SM FEW120 BKN250 23/18 A3006 RMK AC2CI1 SLP178;EQDQ01+000000PRSWM2
0153712625999992000090323004+43190-079170FM-15+0098CYSN V0200901N002610090019N0160931N1+02401+02001101021ADDGD13991+0090099GF107991999999999999999999MA1101051999999MW1001REMMET060CYSN 032300Z 09005KT 10SM BKN030 24/20 A2984 RMK SC6 SLP102;EQDQ01+000000PRSWM2
0178712625999992000091617004+43190-079170FM-15+0098CYSN V0202701N005112200019N0482801N1+01401+00501101461ADDGD12991+0120099GD22991+0750099GF104991999999999999999999MA1101461999999MW1001REMMET070CYSN 161700Z 27010KT 30SM SCT040 SCT250 14/05 A2996 RMK CU4CI1 SLP146;EQDQ01+000000PRSWM2
0153712625999992000092916004+43190-079170FM-15+0098CYSN V0201701N005112200019N0241401N1+01301+00301102941ADDGD12991+0750099GF104991999999999999999999MA1102911999999MW1001REMMET060CYSN 291600Z 17010KT 15SM SCT250 13/03 A3039 RMK CI0 SLP294;EQDQ01+000000PRSWM2
0169712625999992000100614364+43190-079170FM-16+0098CYSN V0203501N005110045019N0160931N1+99999+99999999999ADDGD12991+0015099GD23991+0045099GD34991+0120099GF108991999999999999999999MW1001REMMET061CYSN 061436Z 35010KT 10SM FEW005 BKN015 OVC040 RMK SF2SC6SC1;EQDQ01+000000PRSWM2
0221712625999992000101515004+43190-079170FM-15+0098CYSN V0203501N003110360019N0080461N1+01501+01301101911ADDGD12991+0210099GD24991+0360099GF108991999999999999999999MA1101901999999MW1101MW2801REMMET091CYSN 151500Z 35006KT 5SM -SHRA BR FEW073 OVC120 15/13 A3009 RMK AC2AC6 VSBY NW-NE 3 SLP191;EQDQ01+000003PRSWM1Q02    003PRSWM1
0131712625999992000102020004+43190-079170FM-15+0098CYSN V0202101N007712200019N0241401N1+02101+01101101811ADDGF100991999999999999999999MA1101801999999MW1001REMMET053CYSN 202000Z 21015KT 15SM SKC 21/11 A3006 RMK SLP181;EQDQ01+000000PRSWM2
0132712625999992000102911004+43190-079170FM-15+0098CYSN V0203601N005112200019N0241401N1+00301-00201102911ADDGF100991999999999999999999MA1102881999999MW1001REMMET054CYSN 291100Z 36010KT 15SM SKC 03/M02 A3038 RMK SLP291;EQDQ01+000000PRSWM2
0196712625999992000110916004+43190-079170FM-15+0098CYSN V0201801N003110090019N0096561N1+01801+01501100541ADDGD13991+0090099GD24991+0330099GF108991999999999999999999MA1100541999999MW1051REMMET072CYSN 091600Z 18006KT 6SM HZ BKN030 OVC110 18/15 A2969 RMK SC6AC2 SLP054;EQDQ01+000003PRSWM1Q02    003PRSWM1
0130712625999992000111023494+43190-079170FM-16+0098CYSN V0203101N005110081019N0482801N1+99999+99999999999ADDGD14991+0081099GF108991999999999999999999MW1001OC101031REMMET044CYSN 102349Z 31010G20KT 30SM OVC027 RMK SC8;EQDQ01+000000PRSWM2
0154712625999992000111412004+43190-079170FM-15+0098CYSN V0202501N004110144019N0241401N1+00401-00101101061ADDGD13991+0144099GF107991999999999999999999MA1101051999999MW1001REMMET061CYSN 141200Z 25008KT 15SM BKN048 04/M01 A2984 RMK SC6 SLP106;EQDQ01+000000PRSWM2
0179712625999992000111613004+43190-079170FM-15+0098CYSN V0209999C000010420019N0193121N1+00201-00101101091ADDGD12991+0066099GD24991+0420099GF108991999999999999999999MA1101051999999MW1001REMMET071CYSN 161300Z 00000KT 12SM FEW022 OVC140 02/M01 A2984 RMK SC2AC6 SLP109;EQDQ01+000000PRSWM2
0140712625999992000111623384+43190-079170FM-16+0098CYSN V0202201N005110114019N0160931N1+99999+99999999999ADDGD14991+0114099GF108991999999999999999999MW1001MW2611OC100771REMMET048CYSN 162338Z 22010G15KT 10SM -RA OVC038 RMK SC8;EQDQ01+000003PRSWM1
0179712625999992000112601004+43190-079170FM-15+0098CYSN V0201001N001010150019N0241401N1+00501-00101101791ADDGD13991+0150099GD24991+0210099GF108991999999999999999999MA1101761999999MW1001REMMET071CYSN 260100Z 10002KT 15SM BKN050 OVC070 05/M01 A3005 RMK SC6AC2 SLP179;EQDQ01+000000PRSWM2
0183712625999992000112811004+43190-079170FM-15+0098CYSN V0209999C000010027019N0016091N1+00401+00401101061ADDGD14991+0027099GF108991999999999999999999MA1101051999999MW1101MW2801REMMET068CYSN 281100Z 00000KT 1SM -SHRA BR OVC009 04/04 A2984 RMK SF8 SLP106;EQDQ01+000003PRSWM1Q02    003PRSWM1
0142712625999992000120522234+43190-079170FM-16+0098CYSN V0202601N007712200019N0193121N1+99999+99999999999ADDGD12991+0060099GF104991999999999999999999MW1001MW2851OC101291REMMET050CYSN 052223Z 26015G25KT 12SM -SHSN SCT020 RMK CU4;EQDQ01+000003PRSWM1
0130712625999992000121318304+43190-079170FM-16+0098CYSN V0200801N000510066019N0032181N1+99999+99999999999ADDGD14991+0066099GF108991999999999999999999MW1001MW2851REMMET046CYSN 131830Z 08001KT 2SM -SHSN OVC022 RMK SC8;EQDQ01+000003PRSWM1
0155712625999992000121323404+43190-079170FM-16+0098CYSN V0201401N004610057019N0064371N1+99999+99999999999ADDGD13991+0057099GD24991+0120099GF108991999999999999999999MW1001MW2851REMMET056CYSN 132340Z 14009KT 4SM -SHSN BKN019 OVC040 RMK SC6SC2;EQDQ01+000003PRSWM1
0177712625999992000122003004+43190-079170FM-15+0098CYSN V0202501N004110135019N0160931N1-00601-00901101181ADDGD14991+0135099GF108991999999999999999999MA1101121999999MW1001REMMET084CYSN 200300Z 25008KT 10SM OVC045 M06/M09 A2986 RMK SC8 LAST OB/NEXT 20 1100Z SLP118;EQDQ01+000000PRSWM2
0181712625999992000122414004+43190-079170FM-15+0098CYSN V0202601N006210048019N0024141N1-00501-00601101901ADDGD14991+0048099GF108991999999999999999999MA1101861999999MW1711REMMET072CYSN 241400Z 26012KT 1 1/2SM -SN OVC016 M05/M06 A3008 RMK SN5SC3 SLP190;EQDQ01+000003PRSWM1Q02    003PRSWM1
0174712625999992000122918004+43190-079170FM-15+0098CYSN V0200401N002610066019N0048281N1-00701-00901101651ADDGD14991+0066099GF108991999999999999999999MA1101591999999MW1711REMMET065CYSN 291800Z 04005KT 3SM -SN OVC022 M07/M09 A3000 RMK SC8 SLP165;EQDQ01+000003PRSWM1Q02    003PRSWM1
0181712625999992000123019004+43190-079170FM-15+0098CYSN V0209999C000010030019N0040231N1-00501-00701100891ADDGD14991+0030099GF108991999999999999999999MA1100851999999MW1711REMMET072CYSN 301900Z 00000KT 2 1/2SM -SN OVC010 M05/M07 A2978 RMK SN3SC5 SLP089;EQDQ01+000003PRSWM1Q02    003PRSWM1
0149712630999992000010111254+43170-079930FM-16+0237CYHM V0202101N006210135019N0112651N1+99999+99999999999ADDGD12991+0021099GD23991+0135099GD33991+0750099GF107991999999999999999999MW1001REMMET060CYHM 011125Z 21012KT 7SM FEW007 BKN045 BKN250 RMK SC2SC2CI0;
0160712630999992000010119004+43170-079930FM-15+0237CYHM V0202401N007712200019N0241401N1+00701-00201101701ADDGD12991+0300099GD22991+0750099GF102991999999999999999999MA1101631999999MW1001REMMET071CYHM 011900Z 24015KT 15SM FEW100 FEW250 07/M02 A3001 RMK AC1CI0 SLP170;
0189712630999992000010601004+43170-079930FM-15+0237CYHM V0201601N002610102019N0241401N1-00301-00901103031ADDGD14991+0102099GF108991999999999999999999MA1102881999999MW1851REMMET080CYHM 060100Z 16005KT 15SM -SHSN OVC034 M03/M09 A3038 RMK SC8 PCPN VRY LT SLP303;EQDQ01+000003PRSWM1Q02    003PRSWM1
0441712630999992000010912004+43170-079930SY-MT+0237CYHM V0202201N00511007501CN0240001N1+00271+00071101471ADDAA106000791AA224999929AC13C9AL12499999AY171061AY221061GD12991+0042099GD23991+0075099GD34991+0210099GF108991071051004501071999KA1999M+00441KA2120N+00201MA1101391098571MD1310081+9999MW1021REMSYN122AAXX  09124 71263 11474 82210 10027 20007 39857 40147 53008 69901 70272 8757/ 333 10044 20020 79999 90932 555 19999 29999;MET080CYHM 091200Z 22010KT 15SM FEW014 BKN025 OVC070 03/01 A2994 RMK SC2SC5AC1 SLP147;EQDQ01+000000PRSWM2Q02    003PRSWM1
0155712630999992000011215004+43170-079930FM-15+0237CYHM V0202401N007210090019N0241401N1-00101-00501102211ADDGD13991+0090099GF107991999999999999999999MA1102101999999MW1001REMMET062CYHM 121500Z 24014KT 15SM BKN030 M01/M05 A3015 RMK SC6 SLP221;EQDQ01+000000PRSWM2
0180712630999992000011522004+43170-079930FM-15+0237CYHM V0202001N004110240019N0193121N1-00101-00701102451ADDGD12991+0090099GD24991+0240099GF108991999999999999999999MA1102301999999MW1001REMMET072CYHM 152200Z 20008KT 12SM FEW030 OVC088 M01/M07 A3021 RMK SC2AC6 SLP245;EQDQ01+000000PRSWM2
0227712630999992000011816004+43170-079930FM-15+0237CYHM V0201201N003610210019N0241401N1-01201-01601102191ADDGD12991+0120099GD22991+0147099GD34991+0210099GF108991999999999999999999MA1102001999999MW1851REMMET088CYHM 181600Z 12007KT 15SM -SHSN FEW040 SCT049 OVC070 M12/M16 A3012 RMK SC1SC3AC4 SLP219;EQDQ01+000003PRSWM1Q02    003PRSWM1
0230712630999992000012003004+43170-079930FM-15+0237CYHM V0202401N004110150019N0040231N1-00601-00701100951ADDGD12991+0048099GD23991+0150099GD34991+0210099GF108991999999999999999999MA1100811999999MW1851REMMET091CYHM 200300Z 24008KT 2 1/2SM -SHSN FEW016 BKN050 OVC070 M06/M07 A2977 RMK CF2SC4AC2 SLP095;EQDQ01+000003PRSWM1Q02    003PRSWM1
0181712630999992000012017064+43170-079930FM-16+0237CYHM V0203601N008210036019N0024141N1+99999+99999999999ADDGD12991+0006099GD24991+0036099GF108991999999999999999999MW1001MW2711REMMET066CYHM 201706Z 36016KT 1 1/2SM -SN DRSN SCT002 OVC012 RMK SN2SF2SC4;EQDQ01+000360PRSWM3Q02+000003PRSWM1
0321712630999992000012106004+43170-079930SY-MT+0237CYHM V0202901N003112200019N0240001N1-01901-02361101371ADDAA124004091AL12400491GF100991001001999999001001KA1240M-00551KA2240N-01941MA1101221098391MD1010011+9999MW1001OA132401081REMSYN110AAXX  21064 71263 32974 02906 11190 21236 39839 40137 50001 333 11055 21194 70040 555 10044 20040 33121 40001;MET055CYHM 210600Z 29006KT 15SM SKC M19/M24 A2989 RMK SLP139;EQDQ01+000000PRSWM2
0366712630999992000012618004+43170-079930SY-MT+0237CYHM V0203301N006710240019N0240001N1-00841-01441101591ADDAA124000091GD12991+0180099GD23991+0240099GD33991+0600099GF107991071051017501031051KA1120M-00611KA2240N-01011MA1101461098621MD1110101+9999MW1001REMSYN088AAXX  26184 71263 32774 73313 11084 21144 39862 40159 51010 87535 333 11061 21101 70000;MET082CYHM 261800Z 33013KT 15SM FEW065 BKN085 BKN200 M08/M14 A2996 RMK SC1AC4CI2 SLP159;EQDQ01+000000PRSWM2Q02  00002PRCP24
0155712630999992000012705004+43170-079930FM-15+0237CYHM V0200201N004112200019N0241401N1-01601-02401102351ADDGD12991+0075099GF102991999999999999999999MA1102171999999MW1001REMMET062CYHM 270500Z 02008KT 15SM FEW025 M16/M24 A3017 RMK SC1 SLP235;EQDQ01+000000PRSWM2
0166712630999992000012723004+43170-079930FM-15+0237CYHM V0203101N007212200019N0241401N1-01401-02101102951ADDGD12991+0090099GF102991999999999999999999MA1102741999999MW1001OC101031REMMET065CYHM 272300Z 31014G20KT 15SM FEW030 M14/M21 A3034 RMK CU1 SLP295;EQDQ01+000000PRSWM2
0155712630999992000012807004+43170-079930FM-15+0237CYHM V0202901N005112200019N0241401N1-01801-02201103201ADDGD12991+0090099GF102991999999999999999999MA1102981999999MW1001REMMET062CYHM 280700Z 29010KT 15SM FEW030 M18/M22 A3041 RMK SC1 SLP320;EQDQ01+000000PRSWM2
0169712630999992000020107544+43170-079930FM-16+0237CYHM V0202501N009310075019N0193121N1+99999+99999999999ADDGD12991+0048099GD23991+0075099GD34991+0210099GF108991999999999999999999MW1001REMMET061CYHM 010754Z 25018KT 12SM SCT016 BKN025 OVC070 RMK SC3SC3AC2;EQDQ01+000000PRSWM2
0190712630999992000020401004+43170-079930FM-15+0237CYHM V0201201N004610006019N0020111N1-00201-00201100781ADDGD14991+0006099GF108991999999999999999999MA1100681999999MW1101MW2771REMMET075CYHM 040100Z 12009KT 1 1/4SM -SG BR OVC002 M02/M02 A2973 RMK SN2SF6 SLP078;EQDQ01+000003PRSWM1Q02    003PRSWM1
0180712630999992000020423004+43170-079930FM-15+0237CYHM V0200201N002110270019N0241401N1-00601-01001101581ADDGD12991+0180099GD23991+0270099GF107991999999999999999999MA1101461999999MW1001REMMET072CYHM 042300Z 02004KT 15SM FEW065 BKN095 M06/M10 A2996 RMK SC1AC6 SLP158;EQDQ01+000000PRSWM2
0221712630999992000021102004+43170-079930FM-15+0237CYHM V0200501N007710009019N0080461N1-00401-00501100701ADDGD13991+0009099GD24991+0210099GF108991999999999999999999MA1100611999999MW1361MW2711OC101031REMMET083CYHM 110200Z 05015G20KT 5SM -SN DRSN BKN003 OVC070 M04/M05 A2971 RMK SC7AC1 SLP070;EQDQ01+000003PRSWM1Q02    003PRSWM1
0188712630999992000021319004+43170-079930FM-15+0237CYHM V0200601N008210093019N0032181N1-00201-00701101481ADDGD14991+0093099GF108991999999999999999999MA1101351999999MW1361MW2711REMMET073CYHM 131900Z 06016KT 2SM -SN DRSN OVC031 M02/M07 A2993 RMK SN2SC6 SLP148;EQDQ01+000003PRSWM1Q02    003PRSWM1
0186712630999992000021623004+43170-079930FM-15+0237CYHM V0203101N007710102019N0241401N1-00501-01001102341ADDGD13991+0102099GD23991+0660099GF107991999999999999999999MA1102241999999MW1001REMMET078CYHM 162300Z 31015KT 15SM BKN034 BKN220 M05/M10 A3019 RMK SC5CI1 CI TR SLP234;EQDQ01+000000PRSWM2
0154712630999992000022209004+43170-079930FM-15+0237CYHM V0202101N004110270019N0241401N1+00201-00401102691ADDGD13991+0270099GF107991999999999999999999MA1102611999999MW1001REMMET061CYHM 220900Z 21008KT 15SM BKN093 02/M04 A3030 RMK AC7 SLP269;EQDQ01+000000PRSWM2
0189712630999992000022710004+43170-079930FM-15+0237CYHM V0202001N008210240019N0241401N1+01301+00701101061ADDGD13991+0240099GD24991+0690099GF108991999999999999999999MA1101021999999MW1001OC101081REMMET073CYHM 271000Z 20016G21KT 15SM BKN089 OVC230 13/07 A2983 RMK AC6CI2 SLP106;EQDQ01+000000PRSWM2
0210712630999992000022717004+43170-079930FM-15+0237CYHM V0202401N008710180019N0128741N1+01101+01001101171ADDGD12991+0060099GD23991+0180099GD34991+0240099GF108991999999999999999999MA1101151999999MW1001REMMET087CYHM 271700Z 24017KT 8SM FEW020 BKN060 OVC080 11/10 A2987 RMK SC2SC3AC3 INMT R- SLP117;EQDQ01+000000PRSWM2
0323712630999992000022800004+43170-079930SY-MT+0237CYHM V0202601N004610075019N0240001N1+00621+00271101511ADDAA124001091GD13991+0075099GD24991+0120099GF108991081051008001999999KA1120M+01241KA2180N+00611MA1101461098641MD1210321+9999MW1001REMSYN088AAXX  28004 71263 32574 82609 10062 20027 39864 40151 52032 885// 333 10124 20061 70010;MET070CYHM 280000Z 27009KT 15SM BKN025 OVC040 06/03 A2996 RMK SC6SC2 SLP151;EQDQ01+000000PRSWM2
0131712630999992000022908004+43170-079930FM-15+0237CYHM V0203001N002612200019N0241401N1+00201+00201102721ADDGF100991999999999999999999MA1102611999999MW1001REMMET053CYHM 290800Z 30005KT 15SM SKC 02/02 A3030 RMK SLP272;EQDQ01+000000PRSWM2
0154712630999992000030505004+43170-079930FM-15+0237CYHM V0203001N003610480019N0241401N1+00201-00101100931ADDGD14991+0480099GF108991999999999999999999MA1100851999999MW1001REMMET061CYHM 050500Z 30007KT 15SM OVC160 02/M01 A2978 RMK AC8 SLP093;EQDQ01+000000PRSWM2
0203712630999992000030721004+43170-079930FM-15+0237CYHM V0202201N005110360019N0241401N1+01701+00701101311ADDGD12991+0150099GD23991+0360099GD33991+0660099GF107991999999999999999999MA1101291999999MW1001REMMET080CYHM 072100Z 22010KT 15SM FEW058 BKN120 BKN220 17/07 A2991 RMK SC2AC4CI0 SLP131;EQDQ01+000000PRSWM2
0325712630999992000031300004+43170-079930SY-MT+0237CYHM V0203101N00621066001CN0240001N1-00061-00941102061ADDAA124011291GD12991+0120099GD23991+0660099GF107991011051012501001011KA1120M+00181KA2180N-00391MA1101931099111MD1210271+9999MW1001REMSYN088AAXX  13004 71263 32674 73112 11006 21094 39911 40206 52027 81501 333 10018 21039 70112;MET072CYHM 130000Z 31012KT 15SM FEW040 BKN220 M01/M09 A3010 RMK SC1CI2 SLP206;EQDQ01+000000PRSWM2
0153712630999992000032004004+43170-079930FM-15+0237CYHM V0200801N002610096019N0160931N1+00401+00201102211ADDGD14991+0096099GF108991999999999999999999MA1102131999999MW1001REMMET060CYHM 200400Z 08005KT 10SM OVC032 04/02 A3016 RMK SC8 SLP221;EQDQ01+000000PRSWM2
0206712630999992000032009004+43170-079930FM-15+0237CYHM V0200601N004110240019N0112651N1+00401+00101102151ADDGD12991+0120099GD24991+0240099GF108991999999999999999999MA1102071999999MW1611REMMET082CYHM 200900Z 06008KT 7SM -RA FEW040 OVC089 04/01 A3014 RMK SC2AS6 MOON VSB SLP215;EQDQ01+000003PRSWM1Q02    003PRSWM1
0161712630999992000032215004+43170-079930FM-15+0237CYHM V0200601N002610087019N0241401N1+00901+00401103091ADDGD13991+0087099GF107991999999999999999999MA1103011999999MW1001REMMET068CYHM 221500Z 06005KT 350V090 15SM BKN029 09/04 A3042 RMK SC7 SLP309;EQDQ01+000000PRSWM2
0229712630999992000032511004+43170-079930FM-15+0237CYHM V0202101N003110360019N0096561N1+00701+00601100931ADDGD12991+0210099GD23991+0360099GD33991+0750099GF107991999999999999999999MA1100881999999MW1101REMMET090CYHM 251100Z 21006KT 180V270 6SM BR SCT070 BKN120 BKN250 07/06 A2979 RMK AC3AC2CI1 SLP093;EQDQ01+000003PRSWM1Q02    003PRSWM1
0337712630999992000032700004+43170-079930SY-MT+0237CYHM V0202101N00311075001CN0240001N1+00821-00451100731ADDAA124000091GD13991+0750099GF199999001001999999001011KA1120M+01051KA2180N+00331MA1100681097871MD1710121+9999MW1001REMSYN088AAXX  27004 71263 32974 62106 10082 21045 39787 40073 57012 80001 333 10105 20033 70000;MET067CYHM 270000Z 21006KT 15SM BKN250 08/M04 A2973 RMK CI2 COTRA SLP073;EQDQ01+000062SCOTCVQ02+000000PRSWM2Q03  00002PRCP24
0241712630999992000032717004+43170-079930FM-15+0237CYHM V0202101N005710084019N0080461N1+00701+00601099261ADDGD12991+0039099GD23991+0084099GD34991+0300099GF108991999999999999999999MA1099191999999MW1101MW2801REMMET096CYHM 271700Z 21011KT 180V250 5SM -SHRA BR FEW013 BKN028 OVC100 07/06 A2929 RMK CF2SC6AC1 SLP926;EQDQ01+000003PRSWM1Q02    003PRSWM1
0169712630999992000032719454+43170-079930FM-16+0237CYHM V0202101N003610054019N0193121N1+99999+99999999999ADDGD12991+0018099GD23991+0054099GD34991+0126099GF108991999999999999999999MW1001REMMET061CYHM 271945Z 21007KT 12SM SCT006 BKN018 OVC042 RMK SF4SC3SC1;EQDQ01+000000PRSWM2
0179712630999992000040117004+43170-079930FM-15+0237CYHM V0202401N007710450019N0241401N1+01501-00101102031ADDGD13991+0450099GD24991+0600099GF108991999999999999999999MA1101961999999MW1001REMMET071CYHM 011700Z 24015KT 15SM BKN150 OVC200 15/M01 A3011 RMK AC4CI0 SLP203;EQDQ01+000000PRSWM2
0171712630999992000040303004+43170-079930FM-15+0237CYHM V0202001N001510105019N0064371N1+00801+00701101371ADDGD14991+0105099GF108991999999999999999999MA1101321999999MW1101REMMET062CYHM 030300Z 20003KT 4SM BR OVC035 08/07 A2992 RMK SC8 SLP137;EQDQ01+000003PRSWM1Q02    003PRSWM1
0189712630999992000040623004+43170-079930FM-15+0237CYHM V0202701N010310144019N0241401N1+00801+00201100541ADDGD12991+0120099GD23991+0144099GF107991999999999999999999MA1100511999999MW1001OC101341REMMET073CYHM 062300Z 27020G26KT 15SM FEW040 BKN048 08/02 A2968 RMK CF2SC6 SLP054;EQDQ01+000000PRSWM2
0155712630999992000040914004+43170-079930FM-15+0237CYHM V0203101N006212200019N0241401N1-00101-01101101421ADDGD12991+0360099GF102991999999999999999999MA1101291999999MW1001REMMET062CYHM 091400Z 31012KT 15SM FEW120 M01/M11 A2991 RMK AC1 SLP142;EQDQ01+000000PRSWM2
0179712630999992000041410004+43170-079930FM-15+0237CYHM V0200501N002610240019N0241401N1+00201-00201102391ADDGD12991+0150099GD23991+0240099GF107991999999999999999999MA1102301999999MW1001REMMET071CYHM 141000Z 05005KT 15SM SCT050 BKN080 02/M02 A3021 RMK SC4AC3 SLP239;EQDQ01+000000PRSWM2
0167712630999992000041417004+43170-079930FM-15+0237CYHM V0202301N005110750019N0241401N1+01501+00401102151ADDGD13991+0750099GF107991999999999999999999MA1102101999999MW1001REMMET074CYHM 141700Z 23010KT 170V250 15SM BKN250 15/04 A3015 RMK CI2 COTRA SLP215;EQDQ01+000000PRSWM2
0204712630999992000041711004+43170-079930FM-15+0237CYHM V0200601N014410150019N0241401N1+00301-00401101911ADDGD12991+0105099GD23991+0150099GD34991+0240099GF108991999999999999999999MA1101831999999MW1001REMMET081CYHM 171100Z 06028KT 15SM FEW035 BKN058 OVC082 03/M04 A3007 RMK SC2SC4AC2 SLP191;EQDQ01+000000PRSWM2
0343712630999992000041918004+43170-079930SY-MT+0237CYHM V0202101N00311006001CN0120001N1+01291+00851101791ADDAA124000091GD13991+0060099GD24991+0144099GF108991081051008001999999KA1120M+01311KA2240N+00261MA1101731098911MD1810041+9999MW1001REMSYN088AAXX  19184 71263 32562 82106 10129 20085 39891 40179 58004 885// 333 10131 20026 70000;MET074CYHM 191800Z 21006KT 8SM BKN020 OVC048 13/09 A3004 RMK SC6SC2 HAZY SLP179;EQDQ01+000000PRSWM2Q02  00002PRCP24
0204712630999992000041920004+43170-079930FM-15+0237CYHM V0202501N003110072019N0096561N1+01401+00901101821ADDGD13991+0072099GD24991+0132099GF108991999999999999999999MA1101761999999MW1051REMMET080CYHM 192000Z 25006KT 210V280 6SM HZ BKN024 OVC044 14/09 A3005 RMK SC6SC2 SLP182;EQDQ01+000003PRSWM1Q02    003PRSWM1
0202712630999992000042203004+43170-079930FM-15+0237CYHM V0203601N004110030019N0144841N1+00601+00501100641ADDGD12991+0024099GD23991+0030099GD34991+0180099GF108991999999999999999999MA1100581999999MW1001REMMET079CYHM 220300Z 36008KT 9SM SCT008 BKN010 OVC060 06/05 A2970 RMK SF4SC2SC2 SLP064;EQDQ01+000000PRSWM2
0179712630999992000042213394+43170-079930FM-16+0237CYHM V0200501N007210009019N0020111N1+99999+99999999999ADDGD13991+0009099GD24991+0018099GF108991999999999999999999MW1001MW2511REMMET064CYHM 221339Z 05014KT 1 1/4SM -DZ BR BKN003 OVC006 RMK FG2CF6SC1;EQDQ01+000100PRSWM3Q02+000003PRSWM1
0213712630999992000042216004+43170-079930FM-15+0237CYHM V0200701N005110012019N0024141N1+00601+00501100841ADDGD13991+0012099GD24991+0018099GF108991999999999999999999MA1100781999999MW1101MW2511REMMET083CYHM 221600Z 07010KT 1 1/2SM -DZ BR BKN004 OVC006 06/05 A2976 RMK FG2CF4SC2 SLP084;EQDQ01+000003PRSWM1Q02    003PRSWM1
