0522727930242332000093005003+47467-122317FM-15+0122SEA  V0201805N00465010675MN0080005N1+01505+01505101405ADDAA101000025GD11995+0006159GD23995+0106759GD34995+0274359GF108991999999999999999999GP10060000002000000002000000002000GR100600000900009MA1101425999999MW1101MW2455REMMET120KSEA 300456Z 18009KT 5SM BR FEW002 BKN035 OVC090 15/15 A2995 RMK AO2 RAB02E12 SLP140 CIG INCRG LYRS RGD P0000 T01500150;EQDQ01+000003PRSWM1Q02    003PRSWM1N01 00070JPWTH 0QNNAA1D0 02002BA1 0 01002AA1D0 04035BA1 0 04035AA1D0 06090BA1 0 06090GA1 0 00035KA1D0 00059JA1 0 00150LA1 0 00500CA1 0 02995NA1 0 00070QA1 0 10140SA1D0 00059RA1 0 00150YA1 0 18009
0200727930242332000093009494+47440-122300FM-16+0137KSEA V0202001N007210060019N0112651N1+01601+01601999999ADDGD12991+0024019GD22991+0036019GD34991+0060019GF108991999999999999999999MA1101151999999MW1001OC100981REMMET069KSEA 300949Z 20014G19KT 7SM FEW008 SCT012 OVC020 16/16 A2987 RMK AO2;EQDQ01+000000PRSWM2
0449727930242332000100200003+47467-122317SY-MT+0122SEA  V0209999C00005015245MN0160005N1+01395+00785101745ADDAA101000095GD13995+0152459GF106991999999017501999999GP10060010702008000002015010702008GQ100600688923859GR100600492913659KA1120M+01391KA2180N+01111MA1101735100081MD1310051+9999REMSYN092AAXX  02004 72793 32766 60000 10139 20078 30008 40174 53005 92356 333 10139 20111 555 90200;EQDQ01  00003PRCP99N01 00000JPWTH 0QNNAA1D0 04050BA1 0 04050GA1 0 00050KA1D0 00046JA1 0 00078LA1 0 01000CA1 0 03004NA1 0 00000QA1 0 10174SA1D0 00057RA1 0 00139YA1 0 00000
0146727930242332000100510034+47440-122300FM-16+0137KSEA V0200201N004612200019N0160931N1+00901+00801999999ADDGD12991+0012019GF104991999999999999999999MA1102271999999MW1001REMMET053KSEA 051003Z 02009KT 10SM SCT004 09/08 A3020 RMK AO2;EQDQ01+000000PRSWM2
0465727930242332000100618003+47467-122317SY-MT+0122SEA  V0200405N00315220005MN0160005N1+01945+00005101685ADDAA101000095GD11995+0762059GF102991999999999999999999GP10060041802008068202015009802008GQ100600621913769GR100600641913699KA1120M+01941KA2240N+00941MA1101695100051MD1810011+9999REMSYN092AAXX  06184 72793 32966 20406 10194 20000 30005 40168 58001 91756 333 10194 20094 555 90618;EQDQ01  00002PRCP99Q02  00003PRCP99N01 00000JPWTH 0QNNAA1D0 02250BA1 0 01250GA1U0 99999KA1D0 00032JA1 0 00000LA1 0 01000CA1 0 03003NA1 0 00000QA1 0 10168SA1D0 00067RA1 0 00194YA1 0 04006
0275727930242332000100817564+47440-122300FM-15+0137KSEA V0201901N002610210019N0160931N1+01501+00801101751ADDGD12991+0108019GD23991+0210019GD33991+0300019GF107991999999999999999999KA1999M+01611KA2999N+00941MA1101761999999MD1010031+9999MW1001REMMET112KSEA 081756Z 19005KT 10SM SCT036 BKN070 BKN100 15/08 A3005 RMK AO2 SLP175 ACSL E SW T01500083 10161 20094 50003;EQDQ01+000000PRSWM2
0484727930242332000100903003+47467-122317FM-15+0122SEA  V0209999C00005028965MN0160005N1+01445+01285101335ADDAA101000095GD11995+0082359GD23995+0289659GD34995+0609659GF108991999999999999999999GP10060000002000000002000000002000GR100600000900009MA1101325999999MD1610131+9999MW1001REMMET090KSEA 090256Z 00000KT 10SM FEW027 BKN095 OVC200 14/13 A2992 RMK AO2 SLP133 T01440128 56013;EQDQ01+000000PRSWM2N01 00000JPWTH 0QNNAA1D0 02027BA1 0 01027AA1D0 04095BA1 0 04095AA1D0 06200BA1 0 06200GA1 0 00095KA1D0 00055JA1 0 00128LA1 0 01000CA1 0 02992NA1 0 00000QA1 0 10133SA1D0 00058RA1 0 00144YA1 0 00000
0212727930242332000100917314+47440-122300FM-16+0137KSEA V0201601N001510015019N0040231N1+01201+01201999999ADDGD13991+0015019GD23991+0051019GD34991+0096019GF108991999999999999999999MA1100781999999MW1101REMMET073KSEA 091731Z 16003KT 2 1/2SM BR BKN005 BKN017 OVC032 12/12 A2976 RMK AO2;EQDQ01+000003PRSWM1Q02    003PRSWM1
0190727930242332000101000234+47440-122300FM-16+0137KSEA V0201401N003110087019N0160931N1+01301+01301999999ADDGD12991+0024019GD22991+0045019GD34991+0087019GF108991999999999999999999MA1100581999999MW1001REMMET067KSEA 100023Z 14006KT 10SM FEW008 SCT015 OVC029 13/13 A2970 RMK AO2;EQDQ01+000000PRSWM2
0501727930242332000101221003+47467-122317FM-15+0122SEA  V0209999V00265008535MN0160005N1+01395+01005101835ADDAA101000095GD12995+0054959GD23995+0085359GD34995+0243859GF108991999999999999999999GP10060045702008036302015025302008GQ100600558919039GR100600771913739MA1101835999999MD1010021+9999MW1001REMMET090KSEA 122056Z VRB05KT 10SM SCT018 BKN028 OVC080 14/10 A3007 RMK AO2 SLP183 T01390100 50002;EQDQ01+000000PRSWM2N01 00000JPWTH 0QNNAA1D0 02018BA1 0 02018AA1D0 04028BA1 0 04028AA1D0 06080BA1 0 06080GA1 0 00028KA1D0 00050JA1 0 00100LA1 0 01000CA1 0 03007NA1 0 00000QA1 0 10183SA1D0 00057RA1 0 00139YA1 0 00005
0394727930242332000101508003+47467-122317FM-15+0122SEA  V0201605N00215220005MN0160005N1+00675+00565102005ADDAA101000095GF100991999999999999999999GP10060000002000000002000000002000GR100600000900009KA1999M+01391KA2999N+00671MA1102005999999MW1001REMMET077KSEA 150756Z 16004KT 10SM CLR 07/06 A3012 RMK AO2 SLP200 T00670056 401390067;EQDQ01+000000PRSWM2N01 00000JPWTH 0QNNAA1D0 00000BA1 0 00000GA1U0 99999KA1D0 00042JA1 0 00056LA1 0 01000CA1 0 03012NA1 0 00000QA1 0 10200SA1D0 00044RA1 0 00067YA1 0 16004
0554727930242332000101519003+47467-122317FM-15+0122SEA  V0201605N00155015855MN0080005N1+00785+00675101945ADDAA101000095GD12995+0009159GD23995+0015259GD33995+0152459GD44991+0510019GF108991999999999999999999GP10060023602008003502015021802008GQ100600595915559GR100600699913769MA1101935999999MW1101MW2455REMMET120KSEA 151856Z 16003KT 5SM BR SCT003 BKN005 BKN050 OVC170 08/07 A3010 RMK AO2 SLP194 BKN005 V SCT OCNL BINOVC T00780067 $;EQDQ01+000003PRSWM1Q02    003PRSWM1N01 00070JPWTH 0QNNAA1D0 02003BA1 0 02003AA1D0 04005BA1 0 04005AA1D0 04050BA1 0 04050GA1 0 00052KA1D0 00044JA1 0 00067LA1 0 00500CA1 0 03010NA1 0 00070QA1 0 10194SA1D0 00046RA1 0 00078YA1 0 16003
0442727930242332000101603003+47467-122317FM-15+0122SEA  V0209999C00005024385MN0160005N1+01115+00785101795ADDAA101000095GD13995+0243859GD24995+0762059GF108991999999999999999999GP10060000002000000002000000002000GR100600000900009MA1101765999999MD1610011+9999MW1001REMMET085KSEA 160256Z 00000KT 10SM BKN080 OVC250 11/08 A3005 RMK AO2 SLP179 T01110078 56001 $;EQDQ01+000000PRSWM2N01 00000JPWTH 0QNNAA1D0 04080BA1 0 04080AA1D0 06250BA1 0 06250GA1 0 00080KA1D0 00046JA1 0 00078LA1 0 01000CA1 0 03005NA1 0 00000QA1 0 10179SA1D0 00052RA1 0 00111YA1 0 00000
0523727930242332000101818003+47467-122317SY-MT+0122SEA  V0202005N00465021345MN0160005N1+01335+01065101895ADDAA101000095GD11995+0097559GD23995+0213459GD34995+0304859GF108991999999008001999999GP10060010402008000002015010402008GQ100600658914059GR100600566913789KA1120M+01391KA2240N+01111MA1101905100251MD1110191+9999REMSYN092AAXX  18184 72793 32566 82009 10133 20106 30025 40189 51019 91756 333 10139 20111 555 91818;EQDQ01  00003PRCP99N01 00000JPWTH 0QNNAA1D0 02032BA1 0 01032AA1D0 04070BA1 0 04070AA1D0 06100BA1 0 06100GA1 0 00070KA1D0 00051JA1 0 00106LA1 0 01000CA1 0 03009NA1 0 00000QA1 0 10189SA1D0 00056RA1 0 00133YA1 0 20009
0422727930242332000102113003+47467-122317FM-15+0122SEA  V0201505N00315005795MN0160005N1+00725+00615101845ADDAA101000095GD13995+0057959GD23995+0213459GF107991999999999999999999GP10060000002000000002000000002000GR100600000900009MA1101835999999MW1001REMMET079KSEA 211256Z 15006KT 10SM BKN019 BKN070 07/06 A3007 RMK AO2 SLP184 T00720061 $;EQDQ01+000000PRSWM2N01 00000JPWTH 0QNNAA1D0 04019BA1 0 04019AA1D0 04070BA1 0 04070GA1 0 00019KA1D0 00043JA1 0 00061LA1 0 01000CA1 0 03007NA1 0 00000QA1 0 10184SA1D0 00045RA1 0 00072YA1 0 15006
0243727930242332000102505564+47440-122300FM-15+0137KSEA V02099999999990600019N0160931N1+01001+00801101651ADDGD12991+0420019GD24991+0600019GF108991999999999999999999KA1999M+01781KA2999N+01001MA1101661999999MD1110061+9999MW1001REMMET095KSEA 250556Z VRB03KT 10SM SCT140 OVC200 10/08 A3002 RMK AO2 SLP165 T01000083 10178 20100 51006;EQDQ01+000000PRSWM2
0169727930242332000103120354+47440-122300FM-16+0137KSEA V0209999C00001001501CN0160931N1+00901+00801999999ADDGD14991+0024019GF108991999999999999999999MA1102441999999MW1001REMMET076KSEA 312035Z 00000KT 10SM OVC008 09/08 A3025 RMK AO2 CIG 005V012 VCSH NW-NE;EQDQ01+000000PRSWM2
0393727930242332000110216003+47467-122317FM-15+0122SEA  V0201505N00155012195MN0160005N1+00895+00505102255ADDAA101000095GD14995+0121959GF108991999999999999999999GP10060002502008005502015002002008GQ100600853911809GR100600113913909MA1102245999999MW1001REMMET070KSEA 021556Z 15003KT 10SM OVC040 09/05 A3019 RMK AO2 SLP225 T00890050;EQDQ01+000000PRSWM2N01 00000JPWTH 0QNNAA1D0 06040BA1 0 06040GA1 0 00040KA1D0 00041JA1 0 00050LA1 0 01000CA1 0 03019NA1 0 00000QA1 0 10225SA1D0 00048RA1 0 00089YA1 0 15003
0420727930242332000110504003+47467-122317FM-15+0122SEA  V0202205N00415021345MN0160005N1+00835+00675101585ADDAA101000095GD11995+0106759GD23995+0213459GF107991999999999999999999GP10060000002000000002000000002000GR100600000900009MA1101565999999MW1001REMMET077KSEA 050356Z 22008KT 10SM FEW035 BKN070 08/07 A2999 RMK AO2 SLP158 T00830067;EQDQ01+000000PRSWM2N01 00000JPWTH 0QNNAA1D0 02035BA1 0 01035AA1D0 04070BA1 0 04070GA1 0 00070KA1D0 00044JA1 0 00067LA1 0 01000CA1 0 02999NA1 0 00000QA1 0 10158SA1D0 00047RA1 0 00083YA1 0 22008
0464727930242332000110905003+47467-122317FM-15+0122SEA  V0201305N00155021345MN0160005N1+00505+00395100855ADDAA101000095GD12995+0085359GD22995+0152459GD33995+0213459GF107991999999999999999999GP10060000002000000002000000002000GR100600000900009MA1100855999999MW1001REMMET084KSEA 090456Z 13003KT 10SM SCT028 SCT050 BKN070 05/04 A2978 RMK AO2 SLP085 T00500039;EQDQ01+000000PRSWM2N01 00000JPWTH 0QNNAA1D0 02028BA1 0 02028AA1D0 02050BA1 0 02050AA1D0 04070BA1 0 04070GA1 0 00070KA1D0 00039JA1 0 00039LA1 0 01000CA1 0 02978NA1 0 00000QA1 0 10085SA1D0 00041RA1 0 00050YA1 0 13003
0528727930242332000110921003+47467-122317FM-15+0122SEA  V0200405N00415003665MN0160005N1+00675+00445101125ADDAA101000095AA203000591GD13995+0036659GD23995+0259159GD33995+0365859GF107991999999999999999999GP10060035102008032902015021202008GQ100600652918979GR100600585913959MA1101125999999MD1810021+9999MW1001REMMET106KSEA 092056Z 04008KT 10SM BKN012 BKN085 BKN120 07/04 A2986 RMK AO2 SLP112 BKN V SCT 60002 T00670044 58002;EQDQ01+000000PRSWM2N01 00000JPWTH 0QNNAA1D0 04012BA1 0 04012AA1D0 04085BA1 0 04085AA1D0 04120BA1 0 04120GA1 0 00012KA1D0 00040JA1 0 00044LA1 0 01000CA1 0 02986NA1 0 00000QA1 0 10112SA1D0 00044RA1 0 00067YA1 0 04008
0413727930242332000111208003+47467-122317FM-15+0122SEA  V0201505N00215014945MN0160005N1+00175-00285102775ADDAA101000095GD14995+0149459GF108991999999999999999999GP10060000002000000002000000002000GR100600000900009KA1999M+00611KA2999N-00111MA1102745999999MW1001REMMET081KSEA 120756Z 15004KT 10SM OVC049 02/M03 A3034 RMK AO2 SLP277 T00171028 400611011;EQDQ01+000000PRSWM2N01 00000JPWTH 0QNNAA1D0 06049BA1 0 06049GA1 0 00049KA1D0 00027JA1 0-00028LA1 0 01000CA1 0 03034NA1 0 00000QA1 0 10277SA1D0 00035RA1 0 00017YA1 0 15004
0458727930242332000111221003+47467-122317FM-15+0122SEA  V0209999C00005014945MN0160005N1+00615-00225102615ADDAA101000095GD13995+0149459GD24995+0670659GF108991999999999999999999GP10060026902008018902015019102008GQ100600660918959GR100600568913979MA1102575999999MD1810101+9999MW1001REMMET084KSEA 122056Z 00000KT 10SM BKN049 OVC220 06/M02 A3029 RMK AO2 SLP261 T00611022 58010;EQDQ01+000000PRSWM2N01 00000JPWTH 0QNNAA1D0 04049BA1 0 04049AA1D0 06220BA1 0 06220GA1 0 00049KA1D0 00028JA1 0-00022LA1 0 01000CA1 0 03029NA1 0 00000QA1 0 10261SA1D0 00043RA1 0 00061YA1 0 00000
0437727930242332000111223003+47467-122317FM-15+0122SEA  V0209999V00155060965MN0160005N1+00565+00065102545ADDAA101000095GD12995+0152459GD24995+0609659GF108991999999999999999999GP10060008502008000002015008502008GQ100600743921859GR100600379913979MA1102515999999MW1001REMMET077KSEA 122256Z VRB03KT 10SM SCT050 OVC200 06/01 A3027 RMK AO2 SLP254 T00560006;EQDQ01+000000PRSWM2N01 00000JPWTH 0QNNAA1D0 02050BA1 0 02050AA1D0 06200BA1 0 06200GA1 0 00200KA1D0 00033JA1 0 00006LA1 0 01000CA1 0 03027NA1 0 00000QA1 0 10254SA1D0 00042RA1 0 00056YA1 0 00003
0480727930242332000111819003+47467-122317FM-15+0122SEA  V0209999C00005060965MN0112005N1+00505+00115102995ADDAA101000095GD11995+0036659GD22995+0365859GD33995+0609659GF107991999999999999999999GP10060027802008050302015010202008GQ100600696915889GR100600488914009MA1102955999999MW1001REMMET083KSEA 181856Z 00000KT 7SM FEW012 SCT120 BKN200 05/01 A3040 RMK AO2 SLP299 T00500011;EQDQ01+000000PRSWM2N01 00000JPWTH 0QNNAA1D0 02012BA1 0 01012AA1D0 02120BA1 0 02120AA1D0 04200BA1 0 04200GA1 0 00200KA1D0 00034JA1 0 00011LA1 0 00700CA1 0 03040NA1 0 00000QA1 0 10299SA1D0 00041RA1 0 00050YA1 0 00000
0228727930242332000112319044+47440-122300FM-16+0137KSEA V0209999C000010072019N0024141N1+00401+00401999999ADDGD12991+0003019GD22991+0036019GD34991+0072019GF108991999999999999999999MA1101831999999MW1101MW2611REMMET083KSEA 231904Z 00000KT 1 1/2SM -RA BR SCT001 SCT012 OVC024 04/04 A3007 RMK AO2 P0001;EQDQ01+000003PRSWM1Q02    003PRSWM1
0472727930242332000112410003+47467-122317FM-15+0122SEA  V0201805N00315002445MN0160005N1+00675+00675102635ADDAA101000095GD13995+0024459GD23995+0057959GD33995+0274359GF107991999999999999999999GP10060000002000000002000000002000GR100600000900009MA1102615999999MW1001REMMET092KSEA 240956Z 18006KT 10SM BKN008 BKN019 BKN090 07/07 A3030 RMK AO2 SLP263 CIG RGD T00670067;EQDQ01+000000PRSWM2N01 00000JPWTH 0QNNAA1D0 04008BA1 0 04008AA1D0 04019BA1 0 04019AA1D0 04090BA1 0 04090GA1 0 00008KA1D0 00044JA1 0 00067LA1 0 01000CA1 0 03030NA1 0 00000QA1 0 10263SA1D0 00044RA1 0 00067YA1 0 18006
0456727930242332000120408003+47467-122317FM-15+0122SEA  V0200105N00465045725MN0160005N1+00445+00395102685ADDAA101000095GD13995+0457259GD24995+0609659GF108991999999999999999999GP10060000002000000002000000002000GR100600000900009KA1999M+00671KA2999N+00111MA1102645999999MW1001REMMET087KSEA 040756Z 01009KT 10SM BKN150 OVC200 04/04 A3031 RMK AO2 SLP268 T00440039 400670011;EQDQ01+000000PRSWM2N01 00000JPWTH 0QNNAA1D0 04150BA1 0 04150AA1D0 06200BA1 0 06200GA1 0 00150KA1D0 00039JA1 0 00039LA1 0 01000CA1 0 03031NA1 0 00000QA1 0 10268SA1D0 00040RA1 0 00044YA1 0 01009
0257727930242332000120423564+47440-122300FM-15+0137KSEA V0203601N003110750019N0160931N1+00801+00301102801ADDAA101000891AA206000891GD14991+0750019GF108991999999999999999999KA1999M+01061KA2999N+00671MA1102781999999MD1110051+9999MW1001REMMET102KSEA 042356Z 36006KT 10SM OVC250 08/03 A3035 RMK AO2 SLP280 P0003 60003 T00830033 10106 20067 51005 $;EQDQ01+000000PRSWM2
0472727930242332000120904003+47467-122317FM-15+0122SEA  V0201905N00365001225MN0048005N1+00505+00445101365ADDAA101000025GD13995+0012259GD24995+0021359GF108991999999999999999999GP10060000002000000002000000002000GR100600000900009MA1101325999999MW1101MW2455REMMET107KSEA 090356Z 19007KT 3SM BR BKN004 OVC007 05/04 A2992 RMK AO2 DZE08RAB08E30 SLP136 CIG RGD P0000 T00500044;EQDQ01+000003PRSWM1Q02    003PRSWM1N01 00070JPWTH 0QNNAA1D0 04004BA1 0 04004AA1D0 06007BA1 0 06007GA1 0 00004KA1D0 00040JA1 0 00044LA1 0 00300CA1 0 02992NA1 0 00070QA1 0 10136SA1D0 00041RA1 0 00050YA1 0 19007
0504727930242332000121023003+47467-122317FM-15+0122SEA  V0200305N00525009145MN0160005N1+00335-00115102245ADDAA101000095GD11995+0061059GD23995+0091459GD33995+0143359GD44991+0750019GF108991999999999999999999GP10060015902008034502015008702008GQ100600779921449GR100600296914119MA1102205999999MW1001REMMET092KSEA 102256Z 03010KT 10SM FEW020 BKN030 BKN047 OVC250 03/M01 A3018 RMK AO2 SLP224 T00331011;EQDQ01+000000PRSWM2N01 00000JPWTH 0QNNAA1D0 02020BA1 0 01020AA1D0 04030BA1 0 04030AA1D0 04047BA1 0 04047GA1 0 00030KA1D0 00030JA1 0-00011LA1 0 01000CA1 0 03018NA1 0 00000QA1 0 10224SA1D0 00038RA1 0 00033YA1 0 03010
0449727930242332000122023003+47467-122317FM-15+0122SEA  V0201105N00625009755MN0160005N1+00445+00115101965ADDAA101000395GD11995+0067159GD24995+0097559GF108991999999999999999999GP10060008302008000002015008302008GQ100600778921319GR100600298914149MA1101935999999MW1001REMMET089KSEA 202256Z 11012KT 10SM FEW022 OVC032 04/01 A3010 RMK AO2 RAE25 SLP196 P0001 T00440011;EQDQ01+000000PRSWM2N01 00000JPWTH 0QNNAA1D0 02022BA1 0 01022AA1D0 06032BA1 0 06032GA1 0 00032KA1D0 00034JA1 0 00011LA1 0 01000CA1 0 03010NA1 0 00000QA1 0 10196SA1D0 00040RA1 0 00044YA1 0 11012
0445727930242332000122211003+47467-122317FM-15+0122SEA  V0200905N00575010675MN0144005N1+00505+00175100525ADDAA101000895GD13995+0106759GD24995+0137259GF108991999999999999999999GP10060000002000000002000000002000GR100600000900009MA1100515999999MW1615REMMET086KSEA 221056Z 09011KT 9SM -RA BKN035 OVC045 05/02 A2968 RMK AO2 SLP052 P0003 T00500017;EQDQ01+000003PRSWM1Q02    003PRSWM1N01 00020JPWTH 0QNNAA1D0 04035BA1 0 04035AA1D0 06045BA1 0 06045GA1 0 00035KA1D0 00035JA1 0 00017LA1 0 00900CA1 0 02968NA1 0 00020QA1 0 10052SA1D0 00041RA1 0 00050YA1 0 09011
0536727930242332000122300003+47467-122317SY-MT+0122SEA  V0201405N00465007625MN0160005N1+00615+00505101265ADDAA101000025AA206000891GD13995+0076259GD23995+0094559GD34995+0115859GF108991999999008001999999GP10060005702008000002015005702008GQ100600840922539GR100600147914149KA1120M+00611KA2180N+00391MA1101255099611MD1310151+9999MW1615REMSYN104AAXX  23004 72793 11566 81409 10061 20050 39961 40126 53015 69981 761// 92356 333 10061 20039 555 92300;EQDN01 00020JPWTH 0QNNAA1D0 04025BA1 0 04025AA1D0 04031BA1 0 04031AA1D0 06038BA1 0 06038GA1 0 00025KA1D0 00041JA1 0 00050LA1 0 01000CA1 0 02990NA1 0 00020QA1 0 10126SA1D0 00043RA1 0 00061YA1 0 14009
0260727930242332000122411564+47440-122300FM-15+0137KSEA V0202101N003110033019N0160931N1+00601+00601102401ADDAA124005891GD13991+0033019GD24991+0057019GF108991999999999999999999KA1999M+00671KA2999N+00611MA1102371999999MD1310231+9999MW1001REMMET101KSEA 241156Z 21006KT 10SM BKN011 OVC019 06/06 A3023 RMK AO2 SLP240 70023 T00610056 10067 20061 53023;EQDQ01+000000PRSWM2
0493727930242332000122422003+47467-122317FM-15+0122SEA  V0202305N00215051825MN0160005N1+00725+00505102795ADDAA101000095GD11995+0106759GD22995+0228659GD34995+0518259GF108991999999999999999999GP10060017902008017102015012902008GQ100600732919939GR100600409914149MA1102785999999MW1001REMMET096KSEA 242156Z 23004KT 10SM FEW035 SCT075 OVC170 07/05 A3035 RMK AO2 SLP279 MDT CU NE-E T00720050;EQDQ01+000000PRSWM2N01 00000JPWTH 0QNNAA1D0 02035BA1 0 01035AA1D0 02075BA1 0 02075AA1D0 06170BA1 0 06170GA1 0 00170KA1D0 00041JA1 0 00050LA1 0 01000CA1 0 03035NA1 0 00000QA1 0 10279SA1D0 00045RA1 0 00072YA1 0 23004
0476727930242332000122702003+47467-122317FM-15+0122SEA  V0201305N00365028965MN0160005N1+00785+00615102195ADDAA101000095GD12995+0213459GD23995+0289659GD33995+0426759GF107991999999999999999999GP10060000002000000002000000002000GR100600000900009MA1102175999999MW1001REMMET096KSEA 270156Z 13007KT 10SM SCT070 BKN095 BKN140 08/06 A3017 RMK AO2 SLP219 VIRGA ALQDS T00780061;EQDQ01+000000PRSWM2N01 00000JPWTH 0QNNAA1D0 02070BA1 0 02070AA1D0 04095BA1 0 04095AA1D0 04140BA1 0 04140GA1 0 00095KA1D0 00043JA1 0 00061LA1 0 01000CA1 0 03017NA1 0 00000QA1 0 10219SA1D0 00046RA1 0 00078YA1 0 13007
0312727930242332000123011564+47440-122300FM-15+0137KSEA V0201401N002610009019N0048281N1+00701+00701102201ADDAA101000391AA206002391AA324003691GD13991+0009019GD24991+0018019GF108991999999999999999999KA1999M+00671KA2999N+00561MA1102171999999MD1110071+9999MW1101REMMET115KSEA 301156Z 14005KT 3SM BR BKN003 OVC006 07/07 A3017 RMK AO2 SLP220 P0001 60009 70014 T00670067 10067 20056 51007;EQDQ01+000003PRSWM1Q02    003PRSWM1
0475727930242332000123116003+47467-122317FM-15+0122SEA  V0201305N00675009755MN0144005N1+00615+00505101835ADDAA101000395GD13995+0097559GD24995+0137259GF108991999999999999999999GP10060000002008000002015000002008GQ100600900912479GR100600000900359MA1101795999999MW1615REMMET099KSEA 311556Z 13013KT 9SM -RA BKN032 OVC045 06/05 A3006 RMK AO2 SLP183 SHRA VC SW-W P0001 T00610050;EQDQ01+000003PRSWM1Q02    003PRSWM1N01 00020JPWTH 0QNNAA1D0 04032BA1 0 04032AA1D0 06045BA1 0 06045GA1 0 00032KA1D0 00041JA1 0 00050LA1 0 00900CA1 0 03006NA1 0 00020QA1 0 10183SA1D0 00043RA1 0 00061YA1 0 13013
0190727930242332000123122084+47440-122300FM-16+0137KSEA V0202101N006210036019N0160931N1+00801+00801999999ADDGD12991+0024019GD23991+0036019GD34991+0102019GF108991999999999999999999MA1102131999999MW1001REMMET067KSEA 312208Z 21012KT 10SM SCT008 BKN012 OVC034 08/08 A3016 RMK AO2;EQDQ01+000000PRSWM2
0054727934999992000010402009+47483-122217NSRDB+001099999V020999999999999999999999999999+99999+99999999999ADDGP10060000002000000002000000002000GR100600000900009
0217727934999992000011113534+47500-122220FM-15+0009KRNT V0201601N004110045019N0160931N1+00301+00101100421ADDGD13991+0045019GD23991+0069019GD34991+0123019GF108991999999999999999999MA1100371999999MW1001REMMET094KRNT 111353Z AUTO 16008KT 10SM BKN015 BKN023 OVC041 03/01 A2964 RMK AO2 SLP042 T00280006 TSNO;EQDQ01+000000PRSWM2
0071727934999992000011116009+47483-122217NSRDB+001099999V020999999999999999999999999999+99999+99999999999ADDGP10060000002008000002015000002008GQ100600898912309GR100600000900839
0240727934999992000011203534+47500-122220FM-15+0009KRNT V0201701N004110087019N0160931N1+00301+00101100601ADDAA101000021GD12991+0042019GD23991+0087019GD34991+0126019GF108991999999999999999999MA1100541999999MW1001REMMET106KRNT 120353Z AUTO 17008KT 10SM SCT014 BKN029 OVC042 03/01 A2969 RMK AO2 UPE04 SLP060 P0000 T00280006 TSNO;EQDQ01+000000PRSWM2
0221727934999992000011323534+47500-122220FM-15+0009KRNT V0203301N003110063019N0160931N1+00601+00301101311ADDGD13991+0063019GF107991999999999999999999KA1999M+00561KA2999N+00391MA1101251999999MD1610191+9999MW1001REMMET088KRNT 132353Z 33006KT 10SM BKN021 06/03 A2990 RMK AO2 SLP131 T00560033 10056 20039 56019;EQDQ01+000000PRSWM2
0071727934999992000011418009+47483-122217NSRDB+001099999V020999999999999999999999999999+99999+99999999999ADDGP10060003402008000002015003402008GQ100600785914069GR100600283914149
0166727934999992000011602534+47500-122220FM-15+0009KRNT V0203301N001512200019N0160931N1+00501-00101101121ADDGF100991999999999999999999MA1101081999999MD1810281+9999MW1001REMMET074KRNT 160253Z 33003KT 10SM CLR 05/M01 A2985 RMK AO2 SLP112 T00501011 58028;EQDQ01+000000PRSWM2
0054727934999992000011612009+47483-122217NSRDB+001099999V020999999999999999999999999999+99999+99999999999ADDGP10060000002000000002000000002000GR100600000900009
0071727934999992000011820009+47483-122217NSRDB+001099999V020999999999999999999999999999+99999+99999999999ADDGP10060033202008068702015008502008GQ100600690916779GR100600506914139
0071727934999992000012200009+47483-122217NSRDB+001099999V020999999999999999999999999999+99999+99999999999ADDGP10060002402008000002015002402008GQ100600797922479GR100600253914139
0211727934999992000012215534+47500-122220FM-15+0009KRNT V0201701N002110114019N0160931N1+00401+00301101931ADDAA101000021GD13991+0114019GD24991+0144019GF108991999999999999999999MA1101901999999MW1001REMMET092KRNT 221553Z 17004KT 10SM BKN038 OVC048 04/03 A3009 RMK AO2 RAB18E47 SLP193 P0000 T00440028;EQDQ01+000000PRSWM2
0165727934999992000012420534+47500-122220FM-15+0009KRNT V0203201N004612200019N0160931N1+00801+00201101501ADDGF100991999999999999999999MA1101461999999MD1810221+9999MW1001REMMET073KRNT 242053Z 32009KT 10SM CLR 08/02 A2996 RMK AO2 SLP150 T00830017 58022;EQDQ01+000000PRSWM2
0071727934999992000012616009+47483-122217NSRDB+001099999V020999999999999999999999999999+99999+99999999999ADDGP10060000002008000002015000002008GQ100600890911929GR100600006903659
0071727934999992000012723009+47483-122217NSRDB+001099999V020999999999999999999999999999+99999+99999999999ADDGP10060029202008063402015009502008GQ100600720921209GR100600436914119
0054727934999992000012815009+47483-122217NSRDB+001099999V020999999999999999999999999999+99999+99999999999ADDGP10060000002000000002000000002000GR100600000900009
0071727934999992000012823009+47483-122217NSRDB+001099999V020999999999999999999999999999+99999+99999999999ADDGP10060029102008061402015009702008GQ100600717921209GR100600442914109
0156727934999992000012912534+47500-122220FM-15+0009KRNT V0201901N001512200019N0160931N1+00101-00201102281ADDGF100991999999999999999999MA1102241999999MW1001REMMET078KRNT 291253Z AUTO 19003KT 10SM CLR 01/M02 A3019 RMK AO2 SLP228 T00111022 TSNO;EQDQ01+000000PRSWM2
0200727934999992000020103534+47500-122220FM-15+0009KRNT V0201601N002110141019N0160931N1+00601+00301100971ADDAA101001591GD14991+0141019GF108991999999999999999999MA1100911999999MW1611REMMET080KRNT 010353Z 16004KT 10SM -RA OVC047 06/03 A2980 RMK AO2 SLP097 P0006 T00610033;EQDQ01+000003PRSWM1Q02    003PRSWM1
0289727934999992000020120534+47500-122220FM-15+0009KRNT V0202001N004610114019N0080461N1+00901+00701101441ADDAA101002591AA203006191GD12991+0066019GD23991+0114019GD34991+0132019GF108991999999999999999999MA1101391999999MD1110231+9999MW1101MW2611REMMET108KRNT 012053Z 20009KT 5SM -RA BR FEW022 BKN038 OVC044 09/07 A2994 RMK AO2 SLP144 P0010 60024 T00890072 51023;EQDQ01+000003PRSWM1Q02    003PRSWM1
0054727934999992000020207009+47483-122217NSRDB+001099999V020999999999999999999999999999+99999+99999999999ADDGP10060000002000000002000000002000GR100600000900009
0054727934999992000020410009+47483-122217NSRDB+001099999V020999999999999999999999999999+99999+99999999999ADDGP10060000002000000002000000002000GR100600000900009
0054727934999992000021006009+47483-122217NSRDB+001099999V020999999999999999999999999999+99999+99999999999ADDGP10060000002000000002000000002000GR100600000900009
0054727934999992000021811009+47483-122217NSRDB+001099999V020999999999999999999999999999+99999+99999999999ADDGP10060000002000000002000000002000GR100600000900009
0145727934999992000022501534+47500-122220FM-15+0009KRNT V0201401N003112200019N0160931N1+00701+00201101491ADDGF100991999999999999999999MA1101461999999MW1001REMMET067KRNT 250153Z 14006KT 10SM CLR 07/02 A2996 RMK AO2 SLP149 T00670017;EQDQ01+000000PRSWM2
0054727934999992000022609009+47483-122217NSRDB+001099999V020999999999999999999999999999+99999+99999999999ADDGP10060000002000000002000000002000GR100600000900009
0071727934999992000022816009+47483-122217NSRDB+001099999V020999999999999999999999999999+99999+99999999999ADDGP10060000902008000002015000902008GQ100600845910829GR100600134913949
0071727934999992000030221009+47483-122217NSRDB+001099999V020999999999999999999999999999+99999+99999999999ADDGP10060036702008015702015027602008GQ100600545918289GR100600809913929
0071727934999992000030602009+47483-122217NSRDB+001099999V020999999999999999999999999999+99999+99999999999ADDGP10060003402008011202015002602008GQ100600854925689GR100600108913559
0175727934999992000031006534+47500-122220FM-15+0009KRNT V0201501N002110180019N0144841N1+00501-00101102491ADDGD13991+0180019GF107991999999999999999999MA1102441999999MW1001REMMET082KRNT 100653Z AUTO 15004KT 9SM BKN060 05/M01 A3025 RMK AO2 SLP249 T00501006 TSNO $;EQDQ01+000000PRSWM2
0071727934999992000031018009+47483-122217NSRDB+001099999V020999999999999999999999999999+99999+99999999999ADDGP10060026802008013302015020802008GQ100600633913149GR100600623913869
0174727934999992000031102184+47500-122220FM-16+0009KRNT V0200901N005110138019N0160931N1+00301+00301999999ADDGD14991+0138019GF108991999999999999999999MA1101631999999MW1611REMMET065KRNT 110218Z 09010KT 10SM -RA OVC046 03/03 A3001 RMK AO2 P0000 $;EQDQ01+000003PRSWM1Q02    003PRSWM1
0071727934999992000031116009+47483-122217NSRDB+001099999V020999999999999999999999999999+99999+99999999999ADDGP10060010702008024702015006602008GQ100600806910569GR100600226913859
0191727934999992000031221534+47500-122220FM-15+0009KRNT V0203601N001512200019N0160931N1+00901+00001102471ADDAA101000021GD12991+0114019GF102991999999999999999999MA1102441999999MW1001REMMET087KRNT 122153Z 36003KT 10SM FEW038 09/00 A3025 RMK AO2 RAB11E23 SLP247 P0000 T00890000 $;EQDQ01+000000PRSWM2
0054727934999992000031706009+47483-122217NSRDB+001099999V020999999999999999999999999999+99999+99999999999ADDGP10060000002000000002000000002000GR100600000900009
0054727934999992000031814009+47483-122217NSRDB+001099999V020999999999999999999999999999+99999+99999999999ADDGP10060000002000000002000000002000GR100600000900009
0054727934999992000032511009+47483-122217NSRDB+001099999V020999999999999999999999999999+99999+99999999999ADDGP10060000002000000002000000002000GR100600000900009
0195727934999992000032513534+47500-122220FM-15+0009KRNT V0201501N002610180019N0160931N1+00501+00301101931ADDGD13991+0180019GD24991+0210019GF108991999999999999999999MA1101901999999MW1001REMMET087KRNT 251353Z AUTO 15005KT 10SM BKN060 OVC075 05/03 A3009 RMK AO2 SLP193 T00500033 TSNO;EQDQ01+000000PRSWM2
0155727934999992000033013534+47500-122220FM-15+0009KRNT V0201701N001512200019N0160931N1+00301+00101103341ADDGF100991999999999999999999MA1103291999999MW1001REMMET077KRNT 301353Z AUTO 17003KT 10SM CLR 03/01 A3050 RMK AO2 SLP334 T00280011 TSNO;EQDQ01+000000PRSWM2
0265727934999992000040617534+47500-122220FM-15+0009KRNT V0202301N003610240019N0160931N1+00801+00301102051ADDGD12991+0072019GD23991+0240019GD33991+0270019GF107991999999999999999999KA1999M+00781KA2999N+00561MA1102001999999MD1310211+9999MW1001REMMET102KRNT 061753Z 23007KT 10SM SCT024 BKN080 BKN090 08/03 A3012 RMK AO2 SLP205 T00780033 10078 20056 53021;EQDQ01+000000PRSWM2
0189727934999992000041222534+47500-122220FM-15+0009KRNT V0203101N001510270019N0160931N1+01801+01001101671ADDAA101000021GD14991+0270019GF108991999999999999999999MA1101631999999MW1001REMMET085KRNT 122253Z 31003KT 10SM OVC090 18/10 A3001 RMK AO2 RAB09E22 SLP167 P0000 T01780100;EQDQ01+000000PRSWM2
0208727934999992000041501534+47500-122220FM-15+0009KRNT V0201801N003110048019N0160931N1+01101+00901100771ADDAA101000021GD13991+0048019GD24991+0093019GF108991999999999999999999MA1100711999999MW1001REMMET089KRNT 150153Z 18006KT 10SM BKN016 OVC031 11/09 A2974 RMK AO2 RAE39 SLP077 P0000 T01060094;EQDQ01+000000PRSWM2
0145727934999992000042019534+47500-122220FM-15+0009KRNT V0203401N002612200019N0160931N1+01601+00701102261ADDGF100991999999999999999999MA1102241999999MW1001REMMET067KRNT 201953Z 34005KT 10SM CLR 16/07 A3019 RMK AO2 SLP226 T01610067;EQDQ01+000000PRSWM2
0145727934999992000042422534+47500-122220FM-15+0009KRNT V0203201N004612200019N0160931N1+01301+00001102161ADDGF100991999999999999999999MA1102131999999MW1001REMMET067KRNT 242253Z 32009KT 10SM CLR 13/00 A3016 RMK AO2 SLP216 T01330000;EQDQ01+000000PRSWM2
0071727934999992000042619009+47483-122217NSRDB+001099999V020999999999999999999999999999+99999+99999999999ADDGP10060079102008082102015015402008GQ100600393914139GR100601043913499
0071727934999992000042720009+47483-122217NSRDB+001099999V020999999999999999999999999999+99999+99999999999ADDGP10060017202008000002015017202008GQ100600344916439GR100601112913489
0071727934999992000042919009+47483-122217NSRDB+001099999V020999999999999999999999999999+99999+99999999999ADDGP10060072902008050602015033202008GQ100600384914089GR100601054913479
0228727934999992000050523534+47500-122220FM-15+0009KRNT V0201901N005112200019N0160931N1+01301+00301101591ADDAA106000021GF100991999999999999999999KA1999M+01331KA2999N+00941MA1101561999999MD1810011+9999MW1001REMMET099KRNT 052353Z 19010KT 170V230 10SM CLR 13/03 A2999 RMK AO2 SLP159 60000 T01330033 10133 20094 58001;EQDQ01+000000PRSWM2
0071727934999992000050602009+47483-122217NSRDB+001099999V020999999999999999999999999999+99999+99999999999ADDGP10060013302008003502015012202008GQ100600719927509GR100600417913429
0071727934999992000050714009+47483-122217NSRDB+001099999V020999999999999999999999999999+99999+99999999999ADDGP10060002602008000002015002602008GQ100600832907209GR100600159913419
0054727934999992000051006009+47483-122217NSRDB+001099999V020999999999999999999999999999+99999+99999999999ADDGP10060000002000000002000000002000GR100600000900009
0210727934999992000051015534+47500-122220FM-15+0009KRNT V0201901N003112200019N0160931N1+00901+00401100581ADDAA101000021GD12991+0180019GD22991+0210019GF104991999999999999999999MA1100541999999MW1001REMMET091KRNT 101553Z 19006KT 10SM FEW060 SCT070 09/04 A2969 RMK AO2 RAE1456 SLP058 P0000 T00940039;EQDQ01+000000PRSWM2
0209727934999992000051107534+47500-122220FM-15+0009KRNT V0201701N004110069019N0160931N1+00801+00601101271ADDGD14991+0069019GF108991999999999999999999KA1999M+01331KA2999N+00671MA1101221999999MW1001REMMET090KRNT 110753Z AUTO 17008KT 10SM OVC023 08/06 A2989 RMK AO2 SLP127 T00830056 401330067 TSNO;EQDQ01+000000PRSWM2
0071727934999992000051304009+47483-122217NSRDB+001099999V020999999999999999999999999999+99999+99999999999ADDGP10060000202008003302015000102008GQ100600877929559GR100600031907699
0054727934999992000051706009+47483-122217NSRDB+001099999V020999999999999999999999999999+99999+99999999999ADDGP10060000002000000002000000002000GR100600000900009
0254727934999992000051908534+47500-122220FM-15+0009KRNT V0201801N003110057019N0160931N1+01401+01301102261ADDAA103001091GD12991+0027019GD23991+0057019GD34991+0180019GF108991999999999999999999MA1102201999999MD1610031+9999MW1001REMMET106KRNT 190853Z AUTO 18006KT 10SM FEW009 BKN019 OVC060 14/13 A3018 RMK AO2 SLP226 60004 T01390128 56003 TSNO;EQDQ01+000000PRSWM2
0211727934999992000052100534+47500-122220FM-15+0009KRNT V0201901N005710150019N0160931N1+01801+00901102211ADDAA101000021GD12991+0108019GD24991+0150019GF108991999999999999999999MA1102171999999MW1001REMMET092KRNT 210053Z 19011KT 10SM FEW036 OVC050 18/09 A3017 RMK AO2 RAB31E41 SLP221 P0000 T01780094;EQDQ01+000000PRSWM2
0071727934999992000052120009+47483-122217NSRDB+001099999V020999999999999999999999999999+99999+99999999999ADDGP10060023202008000002015023202008GQ100600282916239GR100601174913339
0071727934999992000052523009+47483-122217NSRDB+001099999V020999999999999999999999999999+99999+99999999999ADDGP10060077102008078002015016602008GQ100600392924019GR100601030913319
0146727934999992000052600534+47500-122220FM-15+0009KRNT V0201901N002112200019N0160931N1+01801-00201101131ADDGF100991999999999999999999MA1101081999999MW1001REMMET068KRNT 260053Z 19004KT 10SM CLR 18/M02 A2985 RMK AO2 SLP113 T01831022;EQDQ01+000000PRSWM2
0183727934999992000052820534+47500-122220FM-15+0009KRNT V0201701N003610240019N0160931N1+01601+00801101961ADDGD13991+0240019GF107991999999999999999999MA1101901999999MD1710021+9999MW1001REMMET076KRNT 282053Z 17007KT 10SM BKN080 16/08 A3009 RMK AO2 SLP196 T01560078 57002;EQDQ01+000000PRSWM2
0211727934999992000053113534+47500-122220FM-15+0009KRNT V0201601N002610042019N0160931N1+01101+00801102221ADDAA101000021GD14991+0042019GF108991999999999999999999MA1102171999999MW1611REMMET091KRNT 311353Z 16005KT 10SM -RA OVC014 11/08 A3017 RMK AO2 RAE1256B33 SLP222 P0000 T01060083;EQDQ01+000003PRSWM1Q02    003PRSWM1
0175727934999992000060308534+47500-122220FM-15+0009KRNT V0209999C000012200019N0160931N1+01101+00701102211ADDGF100991999999999999999999MA1102171999999MD1010041+9999MW1001REMMET083KRNT 030853Z AUTO 00000KT 10SM CLR 11/07 A3017 RMK AO2 SLP221 T01060072 50004 TSNO;EQDQ01+000000PRSWM2
0230727934999992000060605534+47500-122220FM-15+0009KRNT V0201401N001512200019N0160931N1+01401+01201101841ADDAA106000021GF100991999999999999999999KA1999M+01781KA2999N+01391MA1101801999999MD1310101+9999MW1001REMMET101KRNT 060553Z AUTO 14003KT 10SM CLR 14/12 A3006 RMK AO2 SLP184 60000 T01390117 10178 20139 53010 TSNO;EQDQ01+000000PRSWM2
0071727934999992000060700009+47483-122217NSRDB+001099999V020999999999999999999999999999+99999+99999999999ADDGP10060018402008000002015018402008GQ100600471925649GR100600902913269
0163727934999992000061322534+47500-122220FM-15+0009KRNT V0201801N003610105019N0160931N1+01901+01101102681ADDGD14991+0105019GF108991999999999999999999MA1102641999999MW1001REMMET070KRNT 132253Z 18007KT 10SM OVC035 19/11 A3031 RMK AO2 SLP268 T01890111;EQDQ01+000000PRSWM2
0165727934999992000061802534+47500-122220FM-15+0009KRNT V0203401N001512200019N0160931N1+02701+00601101041ADDGF100991999999999999999999MA1100981999999MD1610191+9999MW1001REMMET073KRNT 180253Z 34003KT 10SM CLR 27/06 A2982 RMK AO2 SLP104 T02670061 56019;EQDQ01+000000PRSWM2
0214727934999992000061920003+47500-122220FM-15+0009KRNT V0201801N003610099019N0160931N1+01601+00901999999ADDGD14991+0099019GF108991999999999999999999GP10060042102008005402015037202008GQ100600256915839GR100601193913239MA1102401999999MW1001REMMET053KRNT 192000Z 18007KT 10SM OVC033 16/09 A3024 RMK AO2;EQDQ01+000000PRSWM2
0221727934999992000062117534+47500-122220FM-15+0009KRNT V0203401N004110180019N0160931N1+01701+01101102011ADDGD14991+0180019GF108991999999999999999999KA1999M+01671KA2999N+01501MA1101961999999MD1110071+9999MW1001REMMET088KRNT 211753Z 34008KT 10SM OVC060 17/11 A3011 RMK AO2 SLP201 T01670106 10167 20150 51007;EQDQ01+000000PRSWM2
0163727934999992000062315534+47500-122220FM-15+0009KRNT V02099999999990057019N0160931N1+01301+00901102141ADDGD14991+0057019GF108991999999999999999999MA1102101999999MW1001REMMET070KRNT 231553Z VRB03KT 10SM OVC019 13/09 A3015 RMK AO2 SLP214 T01330094;EQDQ01+000000PRSWM2
0071727934999992000062414009+47483-122217NSRDB+001099999V020999999999999999999999999999+99999+99999999999ADDGP10060002402008000002015002402008GQ100600794906669GR100600242913229
0145727934999992000062601534+47500-122220FM-15+0009KRNT V0203301N005712200019N0160931N1+02601+01101102051ADDGF100991999999999999999999MA1102001999999MW1001REMMET067KRNT 260153Z 33011KT 10SM CLR 26/11 A3012 RMK AO2 SLP205 T02610106;EQDQ01+000000PRSWM2
0071727934999992000063004009+47483-122217NSRDB+001099999V020999999999999999999999999999+99999+99999999999ADDGP10060000002008000002015000002008GQ100600850929959GR100600116913219
0185727934999992000063019534+47500-122220FM-15+0009KRNT V0203301N003110102019N0160931N1+01701+01101101681ADDGD13991+0102019GD24991+0150019GF108991999999999999999999MA1101631999999MW1001REMMET077KRNT 301953Z 33006KT 10SM BKN034 OVC050 17/11 A3001 RMK AO2 SLP168 T01720106;EQDQ01+000000PRSWM2
0145727934999992000070516534+47500-122220FM-15+0009KRNT V0203301N002612200019N0160931N1+01701+00901101621ADDGF100991999999999999999999MA1101591999999MW1001REMMET067KRNT 051653Z 33005KT 10SM CLR 17/09 A3000 RMK AO2 SLP162 T01720089;EQDQ01+000000PRSWM2
0071727934999992000071501009+47483-122217NSRDB+001099999V020999999999999999999999999999+99999+99999999999ADDGP10060031302008011902015024802008GQ100600568926629GR100600724913229
0071727934999992000071700009+47483-122217NSRDB+001099999V020999999999999999999999999999+99999+99999999999ADDGP10060065302008077502015012502008GQ100600470925339GR100600900913229
0155727934999992000071713534+47500-122220FM-15+0009KRNT V0201301N002112200019N0160931N1+01401+01201101561ADDGF100991999999999999999999MA1101521999999MW1001REMMET077KRNT 171353Z AUTO 13004KT 10SM CLR 14/12 A2998 RMK AO2 SLP156 T01440122 TSNO;EQDQ01+000000PRSWM2
0071727934999992000072114009+47483-122217NSRDB+001099999V020999999999999999999999999999+99999+99999999999ADDGP10060007402008033802015002902008GQ100600823906809GR100600178913239
0054727934999992000072310009+47483-122217NSRDB+001099999V020999999999999999999999999999+99999+99999999999ADDGP10060000002000000002000000002000GR100600000900009
0163727934999992000072518534+47500-122220FM-15+0009KRNT V0201701N005710081019N0160931N1+01901+01301101761ADDGD14991+0081019GF108991999999999999999999MA1101731999999MW1001REMMET070KRNT 251853Z 17011KT 10SM OVC027 19/13 A3004 RMK AO2 SLP176 T01940133;EQDQ01+000000PRSWM2
0232727934999992000072523534+47500-122220FM-15+0009KRNT V0202201N006710240019N0160931N1+02201+01201101591ADDGD13991+0240019GF107991999999999999999999KA1999M+02391KA2999N+01831MA1101561999999MD1610111+9999MW1001OC101031REMMET091KRNT 252353Z 22013G20KT 10SM BKN085 22/12 A2999 RMK AO2 SLP159 T02220117 10239 20183 56011;EQDQ01+000000PRSWM2
0071727934999992000072716009+47483-122217NSRDB+001099999V020999999999999999999999999999+99999+99999999999ADDGP10060014602008001102015014102008GQ100600636909029GR100600589913259
0163727934999992000072801534+47500-122220FM-15+0009KRNT V02099999999990240019N0160931N1+02401+01501101661ADDGD14991+0240019GF108991999999999999999999MA1101631999999MW1001REMMET070KRNT 280153Z VRB05KT 10SM OVC080 24/15 A3001 RMK AO2 SLP166 T02440150;EQDQ01+000000PRSWM2
0145727934999992000073013534+47500-122220FM-15+0009KRNT V0209999C000012200019N0160931N1+01701+01501101791ADDGF100991999999999999999999MA1101761999999MW1001REMMET067KRNT 301353Z 00000KT 10SM CLR 17/15 A3005 RMK AO2 SLP179 T01720150;EQDQ01+000000PRSWM2
0071727934999992000073019009+47483-122217NSRDB+001099999V020999999999999999999999999999+99999+99999999999ADDGP10060077902008076802015015902008GQ100600363913499GR100601067913269
0071727934999992000080101009+47483-122217NSRDB+001099999V020999999999999999999999999999+99999+99999999999ADDGP10060046202008063202015013802008GQ100600592926319GR100600679913269
0071727934999992000080201009+47483-122217NSRDB+001099999V020999999999999999999999999999+99999+99999999999ADDGP10060046202008065802015012702008GQ100600594926299GR100600675913269
0145727934999992000080315534+47500-122220FM-15+0009KRNT V0209999C000012200019N0160931N1+01701+01201101491ADDGF100991999999999999999999MA1101461999999MW1001REMMET067KRNT 031553Z 00000KT 10SM CLR 17/12 A2996 RMK AO2 SLP149 T01720117;EQDQ01+000000PRSWM2
0155727934999992000080609534+47500-122220FM-15+0009KRNT V0201801N003112200019N0160931N1+01701+01401101651ADDGF100991999999999999999999MA1101631999999MW1001REMMET077KRNT 060953Z AUTO 18006KT 10SM CLR 17/14 A3001 RMK AO2 SLP165 T01720144 TSNO;EQDQ01+000000PRSWM2
0145727934999992000080622534+47500-122220FM-15+0009KRNT V02099999999992200019N0160931N1+02301+01301101521ADDGF100991999999999999999999MA1101491999999MW1001REMMET067KRNT 062253Z VRB05KT 10SM CLR 23/13 A2997 RMK AO2 SLP152 T02280133;EQDQ01+000000PRSWM2
0221727934999992000080717534+47500-122220FM-15+0009KRNT V0201401N002610048019N0160931N1+01801+01301101601ADDGD14991+0048019GF108991999999999999999999KA1999M+01781KA2999N+01611MA1101561999999MD1010001+9999MW1001REMMET088KRNT 071753Z 14005KT 10SM OVC016 18/13 A2999 RMK AO2 SLP160 T01780128 10178 20161 50000;EQDQ01+000000PRSWM2
0071727934999992000080820009+47483-122217NSRDB+001099999V020999999999999999999999999999+99999+99999999999ADDGP10060082702008082002015013902008GQ100600331916029GR100601114913299
0173727934999992000081106534+47500-122220FM-15+0009KRNT V0201801N004610090019N0160931N1+01501+00901101911ADDGD13991+0090019GF107991999999999999999999MA1101861999999MW1001REMMET080KRNT 110653Z AUTO 18009KT 10SM BKN030 15/09 A3008 RMK AO2 SLP191 T01500094 TSNO;EQDQ01+000000PRSWM2
0155727934999992000082310534+47500-122220FM-15+0009KRNT V0209999C000012200019N0160931N1+01501+01201101461ADDGF100991999999999999999999MA1101421999999MW1001REMMET077KRNT 231053Z AUTO 00000KT 10SM CLR 15/12 A2995 RMK AO2 SLP146 T01500122 TSNO;EQDQ01+000000PRSWM2
0173727934999992000082506534+47500-122220FM-15+0009KRNT V0201801N004110102019N0160931N1+01701+01401102111ADDGD14991+0102019GF108991999999999999999999MA1102071999999MW1001REMMET080KRNT 250653Z AUTO 18008KT 10SM OVC034 17/14 A3014 RMK AO2 SLP211 T01720139 TSNO;EQDQ01+000000PRSWM2
0233727934999992000082516534+47500-122220FM-15+0009KRNT V0201801N002610066019N0160931N1+01801+01401102121ADDAA101000021GD12991+0051019GD23991+0066019GD34991+0084019GF108991999999999999999999MA1102071999999MW1001REMMET099KRNT 251653Z 18005KT 10SM SCT017 BKN022 OVC028 18/14 A3014 RMK AO2 RAB21E52 SLP212 P0000 T01780144;EQDQ01+000000PRSWM2
0071727934999992000082603009+47483-122217NSRDB+001099999V020999999999999999999999999999+99999+99999999999ADDGP10060000002008000002015000002008GQ100600854928059GR100600107913389
0145727934999992000082821534+47500-122220FM-15+0009KRNT V0203201N007212200019N0160931N1+02301+00801101861ADDGF100991999999999999999999MA1101831999999MW1001REMMET067KRNT 282153Z 32014KT 10SM CLR 23/08 A3007 RMK AO2 SLP186 T02280083;EQDQ01+000000PRSWM2
0203727934999992000082823534+47500-122220FM-15+0009KRNT V0203201N006712200019N0160931N1+02401+00701101741ADDGF100991999999999999999999KA1999M+02391KA2999N+01671MA1101691999999MD1810171+9999MW1001REMMET085KRNT 282353Z 32013KT 10SM CLR 24/07 A3003 RMK AO2 SLP174 T02390067 10239 20167 58017;EQDQ01+000000PRSWM2
0145727934999992000082913534+47500-122220FM-15+0009KRNT V0201301N002112200019N0160931N1+01101+00801101661ADDGF100991999999999999999999MA1101631999999MW1001REMMET067KRNT 291353Z 13004KT 10SM CLR 11/08 A3001 RMK AO2 SLP166 T01110083;EQDQ01+000000PRSWM2
0163727934999992000082921534+47500-122220FM-15+0009KRNT V0201701N004110102019N0160931N1+02001+01301101451ADDGD14991+0102019GF108991999999999999999999MA1101421999999MW1001REMMET070KRNT 292153Z 17008KT 10SM OVC034 20/13 A2995 RMK AO2 SLP145 T02000128;EQDQ01+000000PRSWM2
0185727934999992000083012534+47500-122220FM-15+0009KRNT V0200101N00261002101CN0160931N1+01401+01301101661ADDGD14991+0024019GF108991999999999999999999MA1101631999999MW1001REMMET092KRNT 301253Z AUTO 01005KT 10SM OVC008 14/13 A3001 RMK AO2 CIG 007V014 SLP166 T01440133 TSNO;EQDQ01+000000PRSWM2
0071727934999992000083022009+47483-122217NSRDB+001099999V020999999999999999999999999999+99999+99999999999ADDGP10060034402008003602015031702008GQ100600426921029GR100600987913419
0054727934999992000083105009+47483-122217NSRDB+001099999V020999999999999999999999999999+99999+99999999999ADDGP10060000002000000002000000002000GR100600000900009
0071727934999992000090201009+47483-122217NSRDB+001099999V020999999999999999999999999999+99999+99999999999ADDGP10060011802008000002015011802008GQ100600676925679GR100600510913429
0155727934999992000090503534+47500-122220FM-15+0009KRNT V0203001N002612200019N0160931N1+01701+00901102221ADDGF100991999999999999999999MA1102171999999MW1001REMMET077KRNT 050353Z AUTO 30005KT 10SM CLR 17/09 A3017 RMK AO2 SLP222 T01720089 TSNO;EQDQ01+000000PRSWM2
0054727934999992000090712009+47483-122217NSRDB+001099999V020999999999999999999999999999+99999+99999999999ADDGP10060000002000000002000000002000GR100600000900009
0217727934999992000090806534+47500-122220FM-15+0009KRNT V0201701N002610066019N0128741N1+01401+01301100771ADDAA101000021GD13991+0066019GD24991+0081019GF108991999999999999999999MA1100711999999MW1001REMMET098KRNT 080653Z AUTO 17005KT 8SM BKN022 OVC027 14/13 A2974 RMK AO2 RAE23 SLP077 P0000 T01440133 TSNO;EQDQ01+000000PRSWM2
0054727934999992000090912009+47483-122217NSRDB+001099999V020999999999999999999999999999+99999+99999999999ADDGP10060000002000000002000000002000GR100600000900009
0071727934999992000090916009+47483-122217NSRDB+001099999V020999999999999999999999999999+99999+99999999999ADDGP10060011302008001102015011002008GQ100600722910249GR100600413913489
0071727934999992000091000009+47483-122217NSRDB+001099999V020999999999999999999999999999+99999+99999999999ADDGP10060024502008003802015022602008GQ100600609924249GR100600655913489
0054727934999992000091104009+47483-122217NSRDB+001099999V020999999999999999999999999999+99999+99999999999ADDGP10060000002000000002000000002000GR100600000900009
0071727934999992000091220009+47483-122217NSRDB+001099999V020999999999999999999999999999+99999+99999999999ADDGP10060071702008086202015010002008GQ100600444916769GR100600964913509
0155727934999992000091304534+47500-122220FM-15+0009KRNT V0203501N003112200019N0160931N1+01701+01301101721ADDGF100991999999999999999999MA1101661999999MW1001REMMET077KRNT 130453Z AUTO 35006KT 10SM CLR 17/13 A3002 RMK AO2 SLP172 T01720128 TSNO;EQDQ01+000000PRSWM2
0071727934999992000091422009+47483-122217NSRDB+001099999V020999999999999999999999999999+99999+99999999999ADDGP10060067102008084602015010602008GQ100600483920929GR100600899913519
0054727934999992000091605009+47483-122217NSRDB+001099999V020999999999999999999999999999+99999+99999999999ADDGP10060000002000000002000000002000GR100600000900009
0054727934999992000091812009+47483-122217NSRDB+001099999V020999999999999999999999999999+99999+99999999999ADDGP10060000002000000002000000002000GR100600000900009
0054727934999992000091813009+47483-122217NSRDB+001099999V020999999999999999999999999999+99999+99999999999ADDGP10060000002000000002000000002000GR100600000900009
0071727934999992000091901009+47483-122217NSRDB+001099999V020999999999999999999999999999+99999+99999999999ADDGP10060019002008017002015014202008GQ100600735925349GR100600385913549
0287727934999992000091911534+47500-122220FM-15+0009KRNT V0209999V002610057019N0160931N1+01701+01601102131ADDAA106001891AA224001891GD12991+0024019GD24991+0057019GF108991999999999999999999KA1999M+01831KA2999N+01671MA1102101999999MD1310011+9999MW1001REMMET117KRNT 191153Z AUTO VRB05KT 10SM FEW008 OVC019 17/16 A3015 RMK AO2 SLP213 60007 70007 T01720161 10183 20167 53001 TSNO;EQDQ01+000000PRSWM2
0145727934999992000092215534+47500-122220FM-15+0009KRNT V0209999C000012200019N0160931N1+01201+00301101731ADDGF100991999999999999999999MA1101691999999MW1001REMMET067KRNT 221553Z 00000KT 10SM CLR 12/03 A3003 RMK AO2 SLP173 T01170033;EQDQ01+000000PRSWM2
0071727934999992000092216009+47483-122217NSRDB+001099999V020999999999999999999999999999+99999+99999999999ADDGP10060020002008060302015004502008GQ100600752910679GR100600347913579
0071727934999992000092519009+47483-122217NSRDB+001099999V020999999999999999999999999999+99999+99999999999ADDGP10060058902008081802015009102008GQ100600526915129GR100600826913609
0145727934999992000092600534+47500-122220FM-15+0009KRNT V0203201N003112200019N0160931N1+02301+00301101721ADDGF100991999999999999999999MA1101691999999MW1001REMMET067KRNT 260053Z 32006KT 10SM CLR 23/03 A3003 RMK AO2 SLP172 T02330033;EQDQ01+000000PRSWM2
0054727934999992000092903009+47483-122217NSRDB+001099999V020999999999999999999999999999+99999+99999999999ADDGP10060000002000000002000000002000GR100600000900009
0202727934999992000093003424+47500-122220FM-16+0009KRNT V0201401N001510081019N0160931N1+01601+01601999999ADDGD13991+0081019GD23991+0150019GD34991+0210019GF108991999999999999999999MA1101461999999MW1001REMMET079KRNT 300342Z 14003KT 10SM BKN027 BKN050 OVC075 16/16 A2996 RMK AO2 RAE23 P0000;EQDQ01+000000PRSWM2
0173727934999992000093009534+47500-122220FM-15+0009KRNT V0201701N004110054019N0160931N1+01701+01601101151ADDGD14991+0054019GF108991999999999999999999MA1101121999999MW1001REMMET080KRNT 300953Z AUTO 17008KT 10SM OVC018 17/16 A2986 RMK AO2 SLP115 T01720156 TSNO;EQDQ01+000000PRSWM2
0054727934999992000093014009+47483-122217NSRDB+001099999V020999999999999999999999999999+99999+99999999999ADDGP10060000002000000002000000002000GR100600000900009
0275727934999992000093017534+47500-122220FM-15+0009KRNT V02099999999990030019N0160931N1+01701+01601101061ADDAA101000391AA206000591GD14991+0030019GF108991999999999999999999KA1999M+01721KA2999N+01671MA1101021999999MD1810041+9999MW1611REMMET104KRNT 301753Z VRB03KT 10SM -RA OVC010 17/16 A2983 RMK AO2 SLP106 P0001 60002 T01720161 10172 20167 58004;EQDQ01+000003PRSWM1Q02    003PRSWM1
0164727934999992000100416224+47500-122220FM-16+0009KRNT V0201801N001510009019N0048281N1+00701+00701999999ADDGD14991+0009019GF108991999999999999999999MA1102371999999MW1101REMMET055KRNT 041622Z 18003KT 3SM BR OVC003 07/07 A3023 RMK AO2;EQDQ01+000003PRSWM1Q02    003PRSWM1
0155727934999992000100603534+47500-122220FM-15+0009KRNT V0203401N005112200019N0160931N1+01401+00601101981ADDGF100991999999999999999999MA1101931999999MW1001REMMET077KRNT 060353Z AUTO 34010KT 10SM CLR 14/06 A3010 RMK AO2 SLP198 T01440061 TSNO;EQDQ01+000000PRSWM2
0187727934999992000100702534+47500-122220FM-15+0009KRNT V0201301N006212200019N0160931N1+02101-00801101411ADDGF100991999999999999999999MA1101351999999MD1510001+9999MW1001OC100871REMMET087KRNT 070253Z AUTO 13012G17KT 10SM CLR 21/M08 A2993 RMK AO2 SLP141 T02061078 55000 TSNO;EQDQ01+000000PRSWM2
0203727934999992000100918534+47500-122220FM-15+0009KRNT V0209999C000010030019N0080461N1+01301+01201100761ADDGD14991+0030019GF108991999999999999999999MA1100711999999MW1101MW2611REMMET088KRNT 091853Z 00000KT 5SM -RA BR OVC010 13/12 A2974 RMK AO2 RAB31 SLP076 T01280122 PNO $;EQDQ01+000003PRSWM1Q02    003PRSWM1
0054727934999992000101213009+47483-122217NSRDB+001099999V020999999999999999999999999999+99999+99999999999ADDGP10060000002000000002000000002000GR100600000900009
0071727934999992000101417009+47483-122217NSRDB+001099999V020999999999999999999999999999+99999+99999999999ADDGP10060012502008002202015011802008GQ100600719912599GR100600427913759
0262727934999992000101618534+47500-122220FM-15+0009KRNT V0201501N001510072019N0040231N1+01201+01201101791ADDAA101000021GD12991+0018019GD23991+0072019GD34991+0099019GF108991999999999999999999MA1101761999999MW1101MW2611REMMET106KRNT 161853Z 15003KT 2 1/2SM -RA BR FEW006 BKN024 OVC033 12/12 A3005 RMK AO2 RAB11 SLP179 P0000 T01220117;EQDQ01+000003PRSWM1Q02    003PRSWM1
0301727934999992000102015073+47500-122220FM-16+0009KRNT V0201601N002110045019N0064371N1+01401+01301999999ADDGD12991+0018019GD23991+0045019GD34991+0081019GF108991999999999999999999GP10060000002008000002015000002008GQ100600883910739GR100600015905179MA1100311999999MW1631REMMET078KRNT 201507Z 16004KT 4SM RA BR SCT006 BKN015 OVC027 14/13 A2962 RMK AO2 P0005;EQDQ01+000100PRSWM3Q02+000003PRSWM1Q03    003PRSWM1
0155727934999992000102306534+47500-122220FM-15+0009KRNT V0209999C000012200019N0160931N1+00701+00601102511ADDGF100991999999999999999999MA1102471999999MW1001REMMET077KRNT 230653Z AUTO 00000KT 10SM CLR 07/06 A3026 RMK AO2 SLP251 T00720056 TSNO;EQDQ01+000000PRSWM2
0175727934999992000102308534+47500-122220FM-15+0009KRNT V0201101N001512200019N0160931N1+00601+00501102411ADDGF100991999999999999999999MA1102371999999MD1810131+9999MW1001REMMET083KRNT 230853Z AUTO 11003KT 10SM CLR 06/05 A3023 RMK AO2 SLP241 T00610050 58013 TSNO;EQDQ01+000000PRSWM2
0213727934999992000102411534+47500-122220FM-15+0009KRNT V0209999C000012200019N0160931N1+00501+00301101671ADDGF100991999999999999999999KA1999M+00781KA2999N+00441MA1101631999999MD1610021+9999MW1001REMMET095KRNT 241153Z AUTO 00000KT 10SM CLR 05/03 A3001 RMK AO2 SLP167 T00500033 10078 20044 56002 TSNO;EQDQ01+000000PRSWM2
0071727934999992000102420009+47483-122217NSRDB+001099999V020999999999999999999999999999+99999+99999999999ADDGP10060041702008047302015017802008GQ100600599917359GR100600694913839
0071727934999992000102421009+47483-122217NSRDB+001099999V020999999999999999999999999999+99999+99999999999ADDGP10060043602008052202015017602008GQ100600602919049GR100600687913839
0173727934999992000110204534+47500-122220FM-15+0009KRNT V0201501N001510240019N0160931N1+00901+00601102171ADDGD14991+0240019GF108991999999999999999999MA1102131999999MW1001REMMET080KRNT 020453Z AUTO 15003KT 10SM OVC085 09/06 A3016 RMK AO2 SLP217 T00890056 TSNO;EQDQ01+000000PRSWM2
0054727934999992000110604009+47483-122217NSRDB+001099999V020999999999999999999999999999+99999+99999999999ADDGP10060000002000000002000000002000GR100600000900009
0155727934999992000110703534+47500-122220FM-15+0009KRNT V0201601N001512200019N0160931N1+00801+00601102521ADDGF100991999999999999999999MA1102471999999MW1001REMMET077KRNT 070353Z AUTO 16003KT 10SM CLR 08/06 A3026 RMK AO2 SLP252 T00830061 TSNO;EQDQ01+000000PRSWM2
0071727934999992000111122009+47483-122217NSRDB+001099999V020999999999999999999999999999+99999+99999999999ADDGP10060028902008041402015013802008GQ100600688920489GR100600505913969
0054727934999992000111206009+47483-122217NSRDB+001099999V020999999999999999999999999999+99999+99999999999ADDGP10060000002000000002000000002000GR100600000900009
0146727934999992000111521534+47500-122220FM-15+0009KRNT V0203401N002112200019N0160931N1+00801-00101102261ADDGF100991999999999999999999MA1102201999999MW1001REMMET068KRNT 152153Z 34004KT 10SM CLR 08/M01 A3018 RMK AO2 SLP226 T00831006;EQDQ01+000000PRSWM2
0071727934999992000111723009+47483-122217NSRDB+001099999V020999999999999999999999999999+99999+99999999999ADDGP10060022802008056502015008402008GQ100600754921789GR100600354914009
0156727934999992000111804534+47500-122220FM-15+0009KRNT V0209999C000012200019N0160931N1+00201-00101102961ADDGF100991999999999999999999MA1102911999999MW1001REMMET078KRNT 180453Z AUTO 00000KT 10SM CLR 02/M01 A3039 RMK AO2 SLP296 T00221011 TSNO;EQDQ01+000000PRSWM2
0146727934999992000111822534+47500-122220FM-15+0009KRNT V0203201N003612200019N0160931N1+00801-00101102861ADDGF100991999999999999999999MA1102811999999MW1001REMMET068KRNT 182253Z 32007KT 10SM CLR 08/M01 A3036 RMK AO2 SLP286 T00831011;EQDQ01+000000PRSWM2
0145727934999992000112016534+47500-122220FM-15+0009KRNT V0203201N004112200019N0160931N1+00601+00301102401ADDGF100991999999999999999999MA1102371999999MW1001REMMET067KRNT 201653Z 32008KT 10SM CLR 06/03 A3023 RMK AO2 SLP240 T00560033;EQDQ01+000000PRSWM2
0054727934999992000112113009+47483-122217NSRDB+001099999V020999999999999999999999999999+99999+99999999999ADDGP10060000002000000002000000002000GR100600000900009
0156727934999992000112213534+47500-122220FM-15+0009KRNT V0201501N002612200019N0128741N1-00101-00201102451ADDGF100991999999999999999999MA1102401999999MW1001REMMET078KRNT 221353Z AUTO 15005KT 8SM CLR M01/M02 A3024 RMK AO2 SLP245 T10061022 TSNO;EQDQ01+000000PRSWM2
0185727934999992000112603534+47500-122220FM-15+0009KRNT V0201501N002610021019N0160931N1+00801+00701101721ADDGD13991+0021019GD24991+0090019GF108991999999999999999999MA1101661999999MW1001REMMET077KRNT 260353Z 15005KT 10SM BKN007 OVC030 08/07 A3002 RMK AO2 SLP172 T00780067;EQDQ01+000000PRSWM2
0182727934999992000112713374+47500-122220FM-15+0009KRNT V0201901N003110045019N0160931N1+00701+00501999999ADDAA101000021GD14991+0045019GF108991999999999999999999MA1101861999999MW1001REMMET078KRNT 271337Z AUTO 19006KT 10SM OVC015 07/05 A3008 RMK AO2 RAB14E23 P0000 TSNO;EQDQ01+000000PRSWM2
0185727934999992000112716534+47500-122220FM-15+0009KRNT V0201601N002610117019N0160931N1+00701+00401102261ADDGD12991+0057019GD24991+0117019GF108991999999999999999999MA1102241999999MW1001REMMET077KRNT 271653Z 16005KT 10SM FEW019 OVC039 07/04 A3019 RMK AO2 SLP226 T00720044;EQDQ01+000000PRSWM2
0210727934999992000113006534+47500-122220FM-15+0009KRNT V0201601N001510123019N0160931N1+00701+00601101521ADDAA101001091GD14991+0123019GF108991999999999999999999MA1101491999999MW1611REMMET090KRNT 300653Z AUTO 16003KT 10SM -RA OVC041 07/06 A2997 RMK AO2 SLP152 P0004 T00670056 TSNO;EQDQ01+000003PRSWM1Q02    003PRSWM1
0054727934999992000120412009+47483-122217NSRDB+001099999V020999999999999999999999999999+99999+99999999999ADDGP10060000002000000002000000002000GR100600000900009
0162727934999992000120716534+47500-122220FM-15+0009KRNT V0203501N004610015019N0144841N1+00101+00101102231ADDGD14991+0015019GF108991999999999999999999MA1102171999999MW1001REMMET069KRNT 071653Z 35009KT 9SM OVC005 01/01 A3017 RMK AO2 SLP223 T00110006;EQDQ01+000000PRSWM2
0241727934999992000120903534+47500-122220FM-15+0009KRNT V0201501N00211001501CN0080461N1+00601+00401101431ADDAA101000391GD13991+0024019GD24991+0033019GF108991999999999999999999MA1101391999999MW1101REMMET106KRNT 090353Z 15004KT 5SM BR BKN008 OVC011 06/04 A2994 RMK AO2 RAB01E47 CIG 005V009 SLP143 P0001 T00560044;EQDQ01+000003PRSWM1Q02    003PRSWM1
0214727934999992000121105534+47500-122220FM-15+0009KRNT V0209999C000012200019N0144841N1-00101-00301102551ADDGF100991999999999999999999KA1999M+00391KA2999N-00111MA1102511999999MD1110031+9999MW1001REMMET096KRNT 110553Z AUTO 00000KT 9SM CLR M01/M03 A3027 RMK AO2 SLP255 T10111028 10039 21011 51003 TSNO;EQDQ01+000000PRSWM2
0155727934999992000121803534+47500-122220FM-15+0009KRNT V0201601N002112200019N0160931N1+00401+00201103821ADDGF100991999999999999999999MA1103761999999MW1001REMMET077KRNT 180353Z AUTO 16004KT 10SM CLR 04/02 A3064 RMK AO2 SLP382 T00440022 TSNO;EQDQ01+000000PRSWM2
0163727934999992000122000534+47500-122220FM-15+0009KRNT V0203601N002610120019N0160931N1+00601+00201102481ADDGD14991+0120019GF108991999999999999999999MA1102441999999MW1001REMMET070KRNT 200053Z 36005KT 10SM OVC040 06/02 A3025 RMK AO2 SLP248 T00610022;EQDQ01+000000PRSWM2
0192727934999992000122012534+47500-122220FM-15+0009KRNT V0209999C00001000151CN0008051N1+00101+00101102291ADDGD15991+0001519GF109991999999000251999999MA1102241999999MW1451REMMET083KRNT 201253Z AUTO 00000KT 1/2SM FG VV001 01/01 A3019 RMK AO2 SLP229 T00110006 TSNO;EQDQ01+000003PRSWM1Q02    003PRSWM1
0054727934999992000122414009+47483-122217NSRDB+001099999V020999999999999999999999999999+99999+99999999999ADDGP10060000002000000002000000002000GR100600000900009
0145727934999992000122618534+47500-122220FM-15+0009KRNT V0209999C000012200019N0160931N1+01001+00701102541ADDGF100991999999999999999999MA1102511999999MW1001REMMET067KRNT 261853Z 00000KT 10SM CLR 10/07 A3027 RMK AO2 SLP254 T01000072;EQDQ01+000000PRSWM2
0071727934999992000122619009+47483-122217NSRDB+001099999V020999999999999999999999999999+99999+99999999999ADDGP10060016602008021802015010602008GQ100600743915639GR100600382914159
0071727934999992000123001009+47483-122217NSRDB+001099999V020999999999999999999999999999+99999+99999999999ADDGP10060000002008000002015000002008GQ100600886923309GR100600014905789
0666727935242342000011507596+47530-122300SOD  +0009KBFI V020999999999999999999999999999+99999+99999999999ADDAA124009995KA1240M+00785KA2240N+00335MG1101059999994OE11240152018018295OE22240116219018305OE33240040799999995REMSOD54524 HR PRECIPITATION (IN): 0.39 24 HR MAX TEMP (F): 4624 HR MAX TEMP TIME (LST):1359 24 HR MIN TEMP (F): 3824 HR MIN TEMP TIME (LST):0159 AVERAGE STATION PRESSURE:29.84  PEAK WIND SPEED (MPH): 34 PEAK WIND DIR (DEG):180 PEAK WIND TIME (LST):1829  FASTEST 2MIN SPEED (MPH): 26FASTEST 2MIN DIR (DEG):190 FASTEST 2MIN TIME (LST):1830 AVERAGE WIND SPEED (MPH): 9.1 24 HR AVG TEMP (F):42 HOURLY INCREMENTAL PRECIPITATION VALUES (IN):.02   T    T    T   .00   T   .05  .04  .06  .11  .04  .01  .01   T    T    T   .01  .01  .03   T   .00  .00  .00  .01
0705727935242342000020107596+47530-122300SOM  +0009KBFI V020999999999999999999999999999+99999+99999999999ADDAB10097896AD10014290303999999996AE1026056999005KB1744N+01725KB2744M+08005KB3744A+04895KD1744H07457KD2744C00005KE1005005065005MH1101524101864MK1103452711095099631605265REMSOM443PCP MTOT: 3.85 DEPNRM: 0.00 PCP GT 24HRS: 0.56 DATE(S): 3 + DAYS W/PCP >=.01: 2 DAYS W/PCP >=.10: 5 DAYS W/PCP >=1.00:  SN GT DP ON GRND:0 DATE(S):0  AVG DLY MIN: 35.1 AVG DLY MAX: 46.4 AVG MLY TMP: 40.8 DAYS MAX <=32:  DAYS MAX >=70: 0 DAYS MAX >=90: 0 DAYS MIN <=32: 6 DAYS MIN  <=0: 0 AVG STP:29.98  AVG SLP:30.08  LWST SLP:29.42 DATE/TIME:160526 HGST SLP:30.55 DATE/TIME:271109 HDD MTH TOT: 745 DEP NORM:-255 CDD MTH TOT:   0 DEP NORM:-255EQDR01  3.857ABP070R02  0.567ADP081R03     27AE1100R04      7AE2103R05   7457KDH015
0666727935242342000051207596+47530-122300SOD  +0009KBFI V020999999999999999999999999999+99999+99999999999ADDAA124000025KA1240M+01615KA2240N+00835MG1101529999994OE11240102818015395OE22240080517015395OE33240046599999995REMSOD54524 HR PRECIPITATION (IN):  T   24 HR MAX TEMP (F): 6124 HR MAX TEMP TIME (LST):1406 24 HR MIN TEMP (F): 4724 HR MIN TEMP TIME (LST):0500 AVERAGE STATION PRESSURE:29.98  PEAK WIND SPEED (MPH): 23 PEAK WIND DIR (DEG):180 PEAK WIND TIME (LST):1539  FASTEST 2MIN SPEED (MPH): 18FASTEST 2MIN DIR (DEG):170 FASTEST 2MIN TIME (LST):1539 AVERAGE WIND SPEED (MPH):10.4 24 HR AVG TEMP (F):54 HOURLY INCREMENTAL PRECIPITATION VALUES (IN):.00  .00  .00  .00  .00  .00  .00  .00  .00  .00  .00  .00  .00  .00  .00  .00   T    T   .00  .00  .00  .00  .00  .00
0666727935242342000081907596+47530-122300SOD  +0009KBFI V020999999999999999999999999999+99999+99999999999ADDAA124006995KA1240M+01895KA2240N+01285MG1101359999994OE11240098321016355OE22240076019016365OE33240034999999995REMSOD54524 HR PRECIPITATION (IN): 0.27 24 HR MAX TEMP (F): 6624 HR MAX TEMP TIME (LST):1755 24 HR MIN TEMP (F): 5524 HR MIN TEMP TIME (LST):0536 AVERAGE STATION PRESSURE:29.93  PEAK WIND SPEED (MPH): 22 PEAK WIND DIR (DEG):210 PEAK WIND TIME (LST):1635  FASTEST 2MIN SPEED (MPH): 17FASTEST 2MIN DIR (DEG):190 FASTEST 2MIN TIME (LST):1636 AVERAGE WIND SPEED (MPH): 7.8 24 HR AVG TEMP (F):61 HOURLY INCREMENTAL PRECIPITATION VALUES (IN):.00  .00  .00   T    T    T   .00  .00  .00  .07  .12  .04  .02  .02  .00  .00  .00  .00  .00  .00  .00   T   .00  .00
0214727935999992000010313114+47530-122300FM-16+0005KBFI V0201401N004110090019N0080461N1+00301+00101999999ADDGD13991+0090099GD24991+0150099GF108991999999999999999999MA1102711999999MW1611REMMET074KBFI 031311Z 14008KT 5SM -RA BR BKN030 OVC050 03/01 A3033 RMK AO2 P0000 $;EQDQ01+000100PRSWM3Q02+000003PRSWM1Q03    003PRSWM1
0184727935999992000010708534+47530-122300FM-15+0005KBFI V0201301N003610060019N0128741N1+00501+00301102561ADDGD14991+0060099GF108991999999999999999999MA1102571999999MD1310031+9999MW1001REMMET077KBFI 070853Z 13007KT 8SM OVC020 05/03 A3029 RMK AO2 SLP256 T00500033 53003 $;EQDQ01+000000PRSWM2
0225727935999992000011109534+47530-122300FM-15+0005KBFI V02099999999990048019N0096561N1+00301+00101100281ADDGD13991+0048099GD23991+0069099GD34991+0210099GF108991999999999999999999MA1100311999999MW1101REMMET086KBFI 110953Z VRB06KT 6SM BR BKN016 BKN023 OVC075 03/01 A2962 RMK AO2 SLP028 T00280006;EQDQ01+000003PRSWM1Q02    003PRSWM1
0256727935999992000011121314+47530-122300FM-16+0005KBFI V0201501N005110054019N0048281N1+00301+00101999999ADDGD12991+0027099GD23991+0054099GD34991+0066099GF108991999999999999999999MA1100241999999MW1611REMMET101KBFI 112131Z 15010KT 3SM -RA BR SCT009 BKN018 OVC022 03/01 A2960 RMK AO2 RAE08B31 SCT009 V BKN P0000;EQDQ01+000100PRSWM3Q02+000003PRSWM1Q03    003PRSWM1
0216727935999992000012506534+47530-122300FM-15+0005KBFI V0203201N002110180019N0160931N1+00701+00301101211ADDAA101000021GD14991+0180099GF108991999999999999999999MA1101221999999MW1611REMMET096KBFI 250653Z 32004KT 10SM -RA OVC065 07/03 A2989 RMK AO2 SLP121 PRCP VRY LGHT P0000 T00670028 $;EQDQ01+000003PRSWM1Q02    003PRSWM1
0187727935999992000012701534+47530-122300FM-15+0005KBFI V0201701N002612200019N0160931N1+00401+00101102841ADDGD12991+0180099GD22991+0600099GF104991999999999999999999MA1102841999999MW1001REMMET079KBFI 270153Z 17005KT 10SM FEW060 SCT200 04/01 A3037 RMK AO2 SLP284 T00390011 $;EQDQ01+000000PRSWM2
0191727935999992000013109534+47530-122300FM-15+0005KBFI V0201301N001510102019N0160931N1+00501+00201101531ADDAA101000021GD14991+0102099GF108991999999999999999999MA1101521999999MW1001REMMET087KBFI 310953Z 13003KT 10SM OVC034 05/02 A2998 RMK AO2 RAB15E26 SLP153 P0000 T00500022 $;EQDQ01+000000PRSWM2
0221727935999992000020405534+47530-122300FM-15+0005KBFI V0209999C000012200019N0160931N1+00701+00301101511ADDGD12991+0450099GF102991999999999999999999KA1999M+01331KA2999N+00611MA1101521999999MD1510031+9999MW1001REMMET088KBFI 040553Z 00000KT 10SM FEW150 07/03 A2998 RMK AO2 SLP151 T00720028 10133 20061 55003;EQDQ01+000000PRSWM2
0183727935999992000020408534+47530-122300FM-15+0005KBFI V0203201N002112200019N0160931N1+00701+00201101481ADDGD12991+0480099GF104991999999999999999999MA1101491999999MD1510041+9999MW1001REMMET076KBFI 040853Z 32004KT 10SM SCT160 07/02 A2997 RMK AO2 SLP148 T00670022 55004;EQDQ01+000000PRSWM2
0235727935999992000020609534+47530-122300FM-15+0005KBFI V0209999C000010180019N0160931N1+00701+00601102191ADDAA101000391GD12991+0138099GD23991+0180099GD34991+0330099GF108991999999999999999999MA1102201999999MW1001REMMET101KBFI 060953Z 00000KT 10SM FEW046 BKN060 OVC110 07/06 A3018 RMK AO2 RAB37E51 SLP219 P0001 T00720061 $;EQDQ01+000000PRSWM2
0205727935999992000021514534+47530-122300FM-15+0005KBFI V0201301N003110240019N0160931N1+00401+00301102031ADDGD12991+0063099GD23991+0240099GF107991999999999999999999MA1102031999999MD1110281+9999MW1001REMMET083KBFI 151453Z 13006KT 10SM SCT021 BKN080 04/03 A3013 RMK AO2 SLP203 T00440028 51028;EQDQ01+000000PRSWM2
0145727935999992000021822534+47530-122300FM-15+0005KBFI V02099999999992200019N0160931N1+00901+00201102641ADDGF100991999999999999999999MA1102641999999MW1001REMMET067KBFI 182253Z VRB03KT 10SM CLR 09/02 A3031 RMK AO2 SLP264 T00940017;EQDQ01+000000PRSWM2
0186727935999992000022013534+47530-122300FM-15+0005KBFI V0209999C000010600019N0160931N1+00101-00201100951ADDGD12991+0330099GD23991+0600099GF107991999999999999999999MA1100951999999MW1001REMMET078KBFI 201353Z 00000KT 10SM FEW110 BKN200 01/M02 A2981 RMK AO2 SLP095 T00111022;EQDQ01+000000PRSWM2
0305727935999992000022805534+47530-122300FM-15+0005KBFI V0209999C000010129019N0160931N1+00801+00701100881ADDAA101001091AA206001591GD12991+0087099GD23991+0129099GD33991+0180099GF107991999999999999999999KA1999M+01171KA2999N+00781MA1100881999999MD1310171+9999MW1001REMMET120KBFI 280553Z 00000KT 10SM FEW029 BKN043 BKN060 08/07 A2979 RMK AO2 RAE49 SLP088 P0004 60006 T00780067 10117 20078 53017;EQDQ01+000000PRSWM2
0243727935999992000030412534+47530-122300FM-15+0005KBFI V02099999999990066019N0112651N1+00601+00501101091ADDAA101001591GD12991+0027099GD23991+0066099GD34991+0102099GF108991999999999999999999MA1101081999999MW1611REMMET093KBFI 041253Z VRB03KT 7SM -RA FEW009 BKN022 OVC034 06/05 A2985 RMK AO2 SLP109 P0006 T00610050;EQDQ01+000003PRSWM1Q02    003PRSWM1
0206727935999992000030618534+47530-122300FM-15+0005KBFI V0209999C000010078019N0128741N1+00601+00301101041ADDGD12991+0030099GD23991+0078099GD33991+0210099GF107991999999999999999999MA1101051999999MW1001REMMET083KBFI 061853Z 00000KT 8SM FEW010 BKN026 BKN070 06/03 A2984 RMK AO2 SLP104 T00610033;EQDQ01+000000PRSWM2
0165727935999992000030712534+47530-122300FM-15+0005KBFI V0209999C000012200019N0160931N1+00101+00001101101ADDGD12991+0150099GF102991999999999999999999MA1101121999999MW1001REMMET072KBFI 071253Z 00000KT 10SM FEW050 01/00 A2986 RMK AO2 SLP110 T00110000 $;EQDQ01+000000PRSWM2
0145727935999992000031010534+47530-122300FM-15+0005KBFI V0209999C000012200019N0160931N1+00301+00201102411ADDGF100991999999999999999999MA1102401999999MW1001REMMET067KBFI 101053Z 00000KT 10SM CLR 03/02 A3024 RMK AO2 SLP241 T00280022;EQDQ01+000000PRSWM2
0229727935999992000031021534+47530-122300FM-15+0005KBFI V0203101N003110450019N0160931N1+01101+00301101631ADDGD12991+0330099GD23991+0450099GD33991+0540099GD44991+0690099GF108991999999999999999999MA1101631999999MW1001REMMET091KBFI 102153Z 31006KT 10SM FEW110 BKN150 BKN180 OVC230 11/03 A3001 RMK AO2 SLP163 T01060033;EQDQ01+000000PRSWM2
0226727935999992000031108254+47530-122300FM-15+0005KBFI V0201901N006210084019N0160931N1+00801+00601999999ADDAA101000021GD12991+0066099GD23991+0084099GD34991+0144099GF108991999999999999999999MA1102201999999MW1001OC100931REMMET084KBFI 110825Z 19012G18KT 10SM SCT022 BKN028 OVC048 08/06 A3018 RMK AO2 RAE0758 P0000;EQDQ01+000000PRSWM2
0229727935999992000031519534+47530-122300FM-15+0005KBFI V0202601N001510660019N0160931N1+00801+00201102161ADDGD12991+0069099GD22991+0540099GD33991+0660099GD44991+0810099GF108991999999999999999999MA1102171999999MW1001REMMET091KBFI 151953Z 26003KT 10SM FEW023 SCT180 BKN220 OVC270 08/02 A3017 RMK AO2 SLP216 T00830017;EQDQ01+000000PRSWM2
0241727935999992000031621534+47530-122300FM-15+0005KBFI V0200401N005710132019N0160931N1+00801+00301101731ADDGA1999+013209099GD13991+0132099GD23991+0600099GF107991999999999999999999MA1101731999999MW1001REMMET117KBFI 162153Z 04011KT 10SM BKN044CB BKN200 08/03 A3004 RMK AO2 SLP173 CB VC NW-E DSNT S MOV SE SHRA DSNT NE T00830033;EQDQ01+000000PRSWM2
0207727935999992000040102534+47530-122300FM-15+0005KBFI V0203101N003110150019N0160931N1+01301+00301103281ADDGD13991+0150099GD24991+0540099GF108991999999999999999999MA1103291999999MD1310011+9999MW1001REMMET085KBFI 010253Z 31006KT 10SM BKN050 OVC180 13/03 A3050 RMK AO2 SLP328 T01330028 53001 $;EQDQ01+000000PRSWM2
0147727935999992000040221534+47530-122300FM-15+0005KBFI V0203201N004112200019N0160931N1+01601+00801102431ADDGF100991999999999999999999MA1102441999999MW1001REMMET069KBFI 022153Z 32008KT 10SM CLR 16/08 A3025 RMK AO2 SLP243 T01610078 $;EQDQ01+000000PRSWM2
0273727935999992000040619534+47530-122300FM-15+0005KBFI V0203501N002110108019N0160931N1+00801+00301102141ADDGA1999+008409099GD12991+0084099GD23991+0108099GD34991+0150099GF108991999999999999999999MA1102171999999MW1001REMMET134KBFI 061953Z 35004KT 10SM SCT028CB BKN036 OVC050 08/03 A3017 RMK AO2 SLP214 SCT028 V BKN CB VC S-SW NW MOV E SHRA DSNT S-SW T00830028;EQDQ01+000000PRSWM2
0206727935999992000041113534+47530-122300FM-15+0005KBFI V0209999C000010540019N0144841N1+00901+00801102041ADDGD12991+0420099GD24991+0540099GF108991999999999999999999MA1102031999999MW1001REMMET098KBFI 111353Z COR 00000KT 9SM FEW140 OVC180 09/08 A3013 RMK AO2 SLP204 VIS LWR SE W-NW T00890078 $;EQDQ01+000000PRSWM2
0287727935999992000041502534+47530-122300FM-15+0005KBFI V0201701N003610150019N0160931N1+01001+00901100701ADDAA101000021AA203000391GD12991+0126099GD23991+0150099GD34991+0210099GF108991999999999999999999MA1100711999999MD1110051+9999MW1611REMMET112KBFI 150253Z 17007KT 10SM -RA FEW042 BKN050 OVC070 10/09 A2974 RMK AO2 RAB17 SLP070 P0000 60001 T01000089 51005;EQDQ01+000003PRSWM1Q02    003PRSWM1
0190727935999992000041514264+47530-122300FM-16+0005KBFI V0201701N003610096019N0160931N1+00901+00801999999ADDGD13991+0096099GD23991+0330099GD34991+0420099GF108991999999999999999999MA1100911999999MW1001REMMET067KBFI 151426Z 17007KT 10SM BKN032 BKN110 OVC140 09/08 A2980 RMK AO2;EQDQ01+000000PRSWM2
0272727935999992000041517004+47530-122300FM-15+0005KBFI V02099999999990051019N0160931N1+01001+00701999999ADDAA101000021GD13991+0051099GD23991+0075099GD33991+0210099GD44991+0450099GF108991999999999999999999MA1101051999999MW1611REMMET107KBFI 151700Z VRB06KT 10SM -RA BKN017 BKN025 BKN070 OVC150 10/07 A2984 RMK AO2 BKN017 V SCT INTMT -RA P0000;EQDQ01+000003PRSWM1Q02    003PRSWM1
0245727935999992000041613534+47530-122300FM-15+0005KBFI V0200101N001510063019N0160931N1+00801+00601101301ADDGD12991+0030099GD23991+0063099GD33991+0330099GD44991+0600099GF108991999999999999999999MA1101321999999MW1001REMMET107KBFI 161353Z 01003KT 10SM FEW010 BKN021 BKN110 OVC200 08/06 A2992 RMK AO2 SLP130 SHRA DSNT SE-SW T00830061;EQDQ01+000000PRSWM2
0268727935999992000041923534+47530-122300FM-15+0005KBFI V0202501N003610360019N0160931N1+01601-00101102131ADDGD12991+0240099GD23991+0360099GD33991+0660099GF107991999999999999999999KA1999M+01671KA2999N+01171MA1102131999999MD1810061+9999MW1001REMMET105KBFI 192353Z 25007KT 10SM SCT080 BKN120 BKN220 16/M01 A3016 RMK AO2 SLP213 T01611006 10167 20117 58006 $;EQDQ01+000000PRSWM2
0360727935999992000050217124+47530-122300FM-16+0005KBFI V0202101N002610081019N0160931N1+01401+01001999999ADDGD12991+0051099GD23991+0081099GD33991+0180099GD44991+0540099GF108991999999999999999999MA1101491999999MW1001REMMET222KBFI 021712Z 21005KT 10SM FEW017 BKN027 BKN060 OVC180 14/10 A2997 RMK AO2 BKN V SCT FEW CU OTMNS E OCNL BINOVC KBFI 021712Z 21005KT 10SM FEW017 BKN027 BKN060 OVC180 14/10 A2997 RMK AO2 BKN V SCT FEW CU OTMNS E OCNL BINOVC;EQDQ01+000000PRSWM2
0281727935999992000050502534+47530-122300FM-15+0005KBFI V0201501N002610144019N0160931N1+00901+00601101441ADDAA101000591AA203000891GD12991+0123099GD23991+0144099GD34991+0180099GF108991999999999999999999MA1101461999999MD1510011+9999MW1611REMMET106KBFI 050253Z 15005KT 10SM -RA SCT041 BKN048 OVC060 09/06 A2996 RMK AO2 SLP144 P0002 60003 T00890061 55001;EQDQ01+000003PRSWM1Q02    003PRSWM1
0254727935999992000051020534+47530-122300FM-15+0005KBFI V0202401N004110102019N0160931N1+01301+00401100591ADDGD13991+0102099GD23991+0180099GD34991+0300099GF108991999999999999999999MA1100611999999MD1210041+9999MW1001REMMET117KBFI 102053Z 24008KT 10SM BKN034 BKN060 OVC100 13/04 A2971 RMK AO2 SLP059 OVC100 V BKN SHRA DSNT S T01280044 52004 $;EQDQ01+000000PRSWM2
0265727935999992000051217534+47530-122300FM-15+0005KBFI V02099999999990120019N0160931N1+01301+00401102461ADDGD12991+0090099GD23991+0120099GD33991+0600099GF107991999999999999999999KA1999M+01331KA2999N+00671MA1102471999999MD1610051+9999MW1001REMMET102KBFI 121753Z VRB03KT 10SM FEW030 BKN040 BKN200 13/04 A3026 RMK AO2 SLP246 T01330044 10133 20067 56005;EQDQ01+000000PRSWM2
0163727935999992000051503534+47530-122300FM-15+0005KBFI V0203301N003112200019N0160931N1+01801+00901100911ADDGD12991+0300099GF104991999999999999999999MA1100911999999MW1001REMMET070KBFI 150353Z 33006KT 10SM SCT100 18/09 A2980 RMK AO2 SLP091 T01830089;EQDQ01+000000PRSWM2
0190727935999992000052014084+47530-122300FM-16+0005KBFI V0201901N002610084019N0160931N1+01301+01101999999ADDGD12991+0039099GD23991+0084099GD34991+0096099GF108991999999999999999999MA1102341999999MW1001REMMET067KBFI 201408Z 19005KT 10SM SCT013 BKN028 OVC032 13/11 A3022 RMK AO2;EQDQ01+000000PRSWM2
0187727935999992000052101534+47530-122300FM-15+0005KBFI V0201701N003610138019N0160931N1+01701+01001102091ADDGD13991+0138099GD24991+0210099GF108991999999999999999999MA1102101999999MW1001REMMET079KBFI 210153Z 17007KT 10SM BKN046 OVC070 17/10 A3015 RMK AO2 SLP209 T01670100 $;EQDQ01+000000PRSWM2
0170727935999992000052306434+47530-122300FM-16+0005KBFI V02099999999990084019N0160931N1+01301+00801999999ADDGD13991+0084099GD24991+0108099GF108991999999999999999999MA1102031999999MW1001REMMET062KBFI 230643Z VRB03KT 10SM BKN028 OVC036 13/08 A3013 RMK AO2 $;EQDQ01+000000PRSWM2
0273727935999992000052723534+47530-122300FM-15+0005KBFI V0202301N006710105019N0160931N1+01801+00901101211ADDAA106000391GD13991+0105099GD23991+0450099GF107991999999999999999999KA1999M+01891KA2999N+01501MA1101221999999MD1310101+9999MW1001OC100871REMMET106KBFI 272353Z 23013G17KT 10SM BKN035 BKN150 18/09 A2989 RMK AO2 SLP121 60001 T01780094 10189 20150 53010 $;EQDQ01+000000PRSWM2
0243727935999992000060619534+47530-122300FM-15+0005KBFI V02099999999990039019N0112651N1+01601+01301101681ADDAA101000391GD13991+0039099GD23991+0141099GD34991+0240099GF108991999999999999999999MA1101691999999MW1611REMMET093KBFI 061953Z VRB03KT 7SM -RA BKN013 BKN047 OVC085 16/13 A3003 RMK AO2 SLP168 P0001 T01560133;EQDQ01+000003PRSWM1Q02    003PRSWM1
0187727935999992000061713534+47530-122300FM-15+0005KBFI V0209999C000010600019N0160931N1+01401+01001101721ADDGD12991+0450099GD24991+0600099GF108991999999999999999999MA1101731999999MW1001REMMET079KBFI 171353Z 00000KT 10SM FEW150 OVC200 14/10 A3004 RMK AO2 SLP172 T01390100 $;EQDQ01+000000PRSWM2
0209727935999992000062200534+47530-122300FM-15+0005KBFI V0202601N002610600019N0160931N1+02101+01201101711ADDGD12991+0120099GD22991+0360099GD34991+0600099GF108991999999999999999999MA1101731999999MW1001REMMET086KBFI 220053Z 26005KT 10SM FEW040 SCT120 OVC200 21/12 A3004 RMK AO2 SLP171 T02110122 $;EQDQ01+000000PRSWM2
0163727935999992000062904534+47530-122300FM-15+0005KBFI V02099999999992200019N0160931N1+02401+01401101501ADDGD12991+0750099GF102991999999999999999999MA1101521999999MW1001REMMET070KBFI 290453Z VRB04KT 10SM FEW250 24/14 A2998 RMK AO2 SLP150 T02440144;EQDQ01+000000PRSWM2
0203727935999992000062905534+47530-122300FM-15+0005KBFI V0209999C000012200019N0160931N1+02301+01301101551ADDGF100991999999999999999999KA1999M+03221KA2999N+02331MA1101561999999MD1110181+9999MW1001REMMET085KBFI 290553Z 00000KT 10SM CLR 23/13 A2999 RMK AO2 SLP155 T02330128 10322 20233 51018;EQDQ01+000000PRSWM2
0254727935999992000070310534+47530-122300FM-15+0005KBFI V0209999C000010270019N0160931N1+01201+01001101621ADDAA101000391GD12991+0048099GD22991+0150099GD33991+0270099GD44991+0390099GF108991999999999999999999MA1101631999999MW1001REMMET105KBFI 031053Z 00000KT 10SM SCT016 SCT055 BKN095 OVC130 12/10 A3001 RMK AO2 RAE27 SLP162 P0001 T01170100 $;EQDQ01+000000PRSWM2
0185727935999992000070419534+47530-122300FM-15+0005KBFI V0209999C000010105019N0160931N1+01701+00801101731ADDGD13991+0105099GD24991+0180099GF108991999999999999999999MA1101731999999MW1001REMMET077KBFI 041953Z 00000KT 10SM BKN035 OVC060 17/08 A3004 RMK AO2 SLP173 T01670083;EQDQ01+000000PRSWM2
0199727935999992000070807534+47530-122300FM-15+0005KBFI V0203101N002612200019N0160931N1+01701+01201101441ADDGD12991+0600099GF104991999999999999999999KA1999M+02561KA2999N+01281MA1101461999999MW1001REMMET080KBFI 080753Z 31005KT 10SM SCT200 17/12 A2996 RMK AO2 SLP144 T01720117 402560128;EQDQ01+000000PRSWM2
0254727935999992000071320534+47530-122300FM-15+0005KBFI V0201901N006210450019N0160931N1+02101+01301101991ADDGD12991+0096099GD22991+0210099GD34991+0450099GF108991999999999999999999MA1102001999999MD1110111+9999MW1001OC100931REMMET109KBFI 132053Z 19012G18KT 10SM FEW032 SCT070 OVC150 21/13 A3012 RMK AO2 SLP199 BINOVC CU ALQDS T02110128 51011;EQDQ01+000000PRSWM2
0254727935999992000071414534+47530-122300FM-15+0005KBFI V0200101N002110123019N0160931N1+01501+00901102331ADDGD12991+0084099GD23991+0123099GD34991+0180099GF108991999999999999999999MA1102341999999MD1310111+9999MW1001REMMET117KBFI 141453Z 01004KT 10SM FEW028 BKN041 OVC060 15/09 A3022 RMK AO2 SLP233 BINOVC DSNT N HIR CLDS VIS T01500089 53011;EQDQ01+000000PRSWM2
0205727935999992000071720534+47530-122300FM-15+0005KBFI V02099999999990660019N0160931N1+02701+01101101541ADDGD12991+0420099GD23991+0660099GF107991999999999999999999MA1101561999999MD1810041+9999MW1001REMMET083KBFI 172053Z VRB05KT 10SM SCT140 BKN220 27/11 A2999 RMK AO2 SLP154 T02670111 58004;EQDQ01+000000PRSWM2
0207727935999992000072322534+47530-122300FM-15+0005KBFI V0200201N002610150019N0160931N1+02301+01301102481ADDGD12991+0144099GD23991+0150099GD33991+0390099GF107991999999999999999999MA1102471999999MW1001REMMET084KBFI 232253Z 02005KT 10SM SCT048 BKN055 BKN130 23/13 A3026 RMK AO2 SLP248 T02280133;EQDQ01+000000PRSWM2
0267727935999992000072511534+47530-122300FM-15+0005KBFI V0209999C000010600019N0160931N1+01701+01301101581ADDGD12991+0150099GD22991+0300099GD33991+0600099GF107991999999999999999999KA1999M+01941KA2999N+01611MA1101591999999MD1810021+9999MW1001REMMET104KBFI 251153Z 00000KT 10SM SCT055 SCT100 BKN200 17/13 A3000 RMK AO2 SLP158 T01670133 10194 20161 58002 $;EQDQ01+000000PRSWM2
0232727935999992000072523534+47530-122300FM-15+0005KBFI V0201801N005112200019N0160931N1+02301+01301101531ADDGD12991+0150099GF104991999999999999999999KA1999M+02331KA2999N+01831MA1101561999999MD1610101+9999MW1001OC100721REMMET091KBFI 252353Z 18010G14KT 10SM SCT050 23/13 A2999 RMK AO2 SLP153 T02280133 10233 20183 56010;EQDQ01+000000PRSWM2
0185727935999992000072806534+47530-122300FM-15+0005KBFI V0201901N003110123019N0160931N1+01901+01501101731ADDGD13991+0123099GD23991+0180099GF107991999999999999999999MA1101731999999MW1001REMMET077KBFI 280653Z 19006KT 10SM BKN041 BKN060 19/15 A3004 RMK AO2 SLP173 T01940150;EQDQ01+000000PRSWM2
0185727935999992000073014534+47530-122300FM-15+0005KBFI V0203001N002112200019N0160931N1+01801+01501101741ADDGD12991+0123099GF102991999999999999999999MA1101761999999MD1110041+9999MW1001REMMET078KBFI 301453Z 30004KT 10SM FEW041 18/15 A3005 RMK AO2 SLP174 T01780150 51004 $;EQDQ01+000000PRSWM2
0221727935999992000080104534+47530-122300FM-15+0005KBFI V0200501N002610126019N0160931N1+02101+01701102071ADDGD13991+0126099GD23991+0180099GD34991+0360099GF108991999999999999999999MA1102071999999MW1001REMMET098KBFI 010453Z 05005KT 10SM BKN042 BKN060 OVC120 21/17 A3014 RMK AO2 SLP207 BINOVC DSNT S T02110167;EQDQ01+000000PRSWM2
0145727935999992000080206534+47530-122300FM-15+0005KBFI V02099999999992200019N0160931N1+01801+01301102071ADDGF100991999999999999999999MA1102071999999MW1001REMMET067KBFI 020653Z VRB03KT 10SM CLR 18/13 A3014 RMK AO2 SLP207 T01780128;EQDQ01+000000PRSWM2
0200727935999992000080402534+47530-122300FM-15+0005KBFI V0203001N003112200019N0160931N1+02501+01401101061ADDGD12991+0210099GF102991999999999999999999MA1101081999999MD1610081+9999MW1001REMMET093KBFI 040253Z 30006KT 10SM FEW070 25/14 A2985 RMK AO2 SLP106 LWR ST DSNT SE T02500139 56008 $;EQDQ01+000000PRSWM2
0180727935999992000081103534+47530-122300FM-15+0005KBFI V02099999999992200019N0160931N1+01701+01001101671ADDGD12991+0390099GF104991999999999999999999MA1101691999999MW1001REMMET087KBFI 110353Z VRB06KT 10SM SCT130 17/10 A3003 RMK AO2 SLP167 FEW CU OMTNS E-S T01720100;EQDQ01+000000PRSWM2
0243727935999992000082505534+47530-122300FM-15+0005KBFI V02099999999990240019N0160931N1+01701+01301102031ADDGD12991+0135099GD23991+0240099GF107991999999999999999999KA1999M+02281KA2999N+01671MA1102031999999MD1110131+9999MW1001REMMET095KBFI 250553Z VRB03KT 10SM SCT045 BKN080 17/13 A3013 RMK AO2 SLP203 T01670133 10228 20167 51013;EQDQ01+000000PRSWM2
0185727935999992000082522534+47530-122300FM-15+0005KBFI V02099999999990210019N0160931N1+02301+01301101771ADDGD12991+0150099GD23991+0210099GF107991999999999999999999MA1101801999999MW1001REMMET077KBFI 252253Z VRB05KT 10SM FEW050 BKN070 23/13 A3006 RMK AO2 SLP177 T02280128;EQDQ01+000000PRSWM2
0192727935999992000090912434+47530-122300FM-16+0005KBFI V0201501N003610180019N0160931N1+01201+01001999999ADDGD12991+0048099GD23991+0180099GD34991+0330099GF108991999999999999999999MA1101351999999MW1001REMMET069KBFI 091243Z 15007KT 10SM SCT016 BKN060 OVC110 12/10 A2993 RMK AO2 $;EQDQ01+000000PRSWM2
0235727935999992000091009294+47530-122300FM-16+0005KBFI V0201701N002610054019N0112651N1+01301+01201999999ADDGD12991+0030099GD23991+0054099GD34991+0099099GF108991999999999999999999MA1100951999999MW1531REMMET096KBFI 100929Z 17005KT 7SM DZ SCT010 BKN018 OVC033 13/12 A2981 RMK AO2 DZB20 CIG LWR NW-N P0000 $;EQDQ01+000003PRSWM1Q02    003PRSWM1
0180727935999992000091207534+47530-122300FM-15+0005KBFI V02099999999992200019N0160931N1+01301+01101101661ADDGF100991999999999999999999KA1999M+02111KA2999N+01061MA1101661999999MW1001REMMET076KBFI 120753Z VRB04KT 10SM CLR 13/11 A3002 RMKAO2 SLP166 T01330111 402110106;EQDQ01+000000PRSWM2
0203727935999992000091311534+47530-122300FM-15+0005KBFI V0209999C000012200019N0160931N1+01301+01101101781ADDGF100991999999999999999999KA1999M+01671KA2999N+01331MA1101801999999MD1610011+9999MW1001REMMET085KBFI 131153Z 00000KT 10SM CLR 13/11 A3006 RMK AO2 SLP178 T01330111 10167 20133 56001;EQDQ01+000000PRSWM2
0185727935999992000091922534+47530-122300FM-15+0005KBFI V0203201N003612200019N0160931N1+02101+01301102231ADDGD12991+0090099GD22991+0210099GF104991999999999999999999MA1102241999999MW1001REMMET077KBFI 192253Z 32007KT 10SM FEW030 SCT070 21/13 A3019 RMK AO2 SLP223 T02110128;EQDQ01+000000PRSWM2
0206727935999992000092323534+47530-122300FM-15+0005KBFI V0203201N003112200019N0160931N1+02101-00101101921ADDGF100991999999999999999999KA1999M+02061KA2999N+01441MA1101931999999MD1610101+9999MW1001REMMET088KBFI 232353Z 32006KT 10SM CLR 21/M01 A3010 RMK AO2 SLP192 T02061006 10206 20144 56010 $;EQDQ01+000000PRSWM2
0147727935999992000092509534+47530-122300FM-15+0005KBFI V0209999C000012200019N0160931N1+00901+00801102011ADDGF100991999999999999999999MA1102031999999MW1001REMMET069KBFI 250953Z 00000KT 10SM CLR 09/08 A3013 RMK AO2 SLP201 T00940083 $;EQDQ01+000000PRSWM2
0256727935999992000093012534+47530-122300FM-15+0005KBFI V0202001N006210150019N0160931N1+01701+01601100961ADDAA101000021GD12991+0030099GD23991+0150099GD34991+0210099GF108991999999999999999999MA1100981999999MW1001OC100931REMMET114KBFI 301253Z 20012G18KT 10SM SCT010 BKN050 OVC070 17/16 A2982 RMK AO2 RAE27 SLP096 SCT010 V BKN P0000 T01670161 $;EQDQ01+000000PRSWM2
0252727935999992000100916374+47530-122300FM-16+0005KBFI V02099999999990039019N0080461N1+01201+01201999999ADDGD12991+0015099GD23991+0039099GD34991+0120099GF108991999999999999999999MA1100751999999MW1611REMMET097KBFI 091637Z VRB03KT 5SM -RA BR SCT005 BKN013 OVC040 12/12 A2975 RMK AO2 SCT V BKN CIG RGD P0015;EQDQ01+000100PRSWM3Q02+000003PRSWM1Q03    003PRSWM1
0170727935999992000101220134+47530-122300FM-16+0005KBFI V0202201N002110090019N0160931N1+01401+01101999999ADDGD12991+0069099GD24991+0090099GF108991999999999999999999MA1101831999999MW1001REMMET062KBFI 122013Z 22004KT 10SM SCT023 OVC030 14/11 A3007 RMK AO2 $;EQDQ01+000000PRSWM2
0170727935999992000101404454+47530-122300FM-15+0005KBFI V0201701N002110042019N0160931N1+01301+01201999999ADDGD13991+0042099GD24991+0057099GF108991999999999999999999MA1102241999999MW1001REMMET062KBFI 140445Z 17004KT 10SM BKN014 OVC019 13/12 A3019 RMK AO2 $;EQDQ01+000000PRSWM2
0201727935999992000101607534+47530-122300FM-15+0005KBFI V0201501N003110240019N0160931N1+01001+00801101641ADDGD14991+0240099GF108991999999999999999999KA1999M+01281KA2999N+00391MA1101661999999MW1001REMMET082KBFI 160753Z 15006KT 10SM OVC085 10/08 A3002 RMK AO2 SLP164 T01000083 401280039 $;EQDQ01+000000PRSWM2
0185727935999992000102114534+47530-122300FM-15+0005KBFI V0201401N001512200019N0160931N1+00701+00601102031ADDGD12991+0210099GF104991999999999999999999MA1102031999999MD1310281+9999MW1001REMMET078KBFI 211453Z 14003KT 10SM SCT075 07/06 A3013 RMK AO2 SLP203 T00670061 53028 $;EQDQ01+000000PRSWM2
0200727935999992000102300534+47530-122300FM-15+0005KBFI V0209999C000010660019N0160931N1+01201+00701102611ADDGD12991+0360099GD24991+0660099GF108991999999999999999999MA1102611999999MW1001REMMET092KBFI 230053Z 00000KT 10SM SCT120 OVC220 12/07 A3030 RMK AO2 SLP261 OVC PTLY THN T01220067 $;EQDQ01+000000PRSWM2
0243727935999992000102523534+47530-122300FM-15+0005KBFI V0203401N001510390019N0160931N1+01301+01001101271ADDGD12991+0270099GD24991+0390099GF108991999999999999999999KA1999M+01391KA2999N+01061MA1101291999999MD1810181+9999MW1001REMMET095KBFI 252353Z 34003KT 10SM SCT095 OVC130 13/10 A2991 RMK AO2 SLP127 T01330100 10139 20106 58018;EQDQ01+000000PRSWM2
0209727935999992000102818534+47530-122300FM-15+0005KBFI V0202001N003612200019N0160931N1+01301+00701100021ADDGD12991+0180099GD22991+0600099GD32991+0900099GF104991999999999999999999MA1100031999999MW1001REMMET086KBFI 281853Z 20007KT 10SM SCT065 SCT200 SCT300 13/07 A2954 RMK AO2 SLP002 T01280067 $;EQDQ01+000000PRSWM2
0165727935999992000103003534+47530-122300FM-15+0005KBFI V0209999C000010180019N0160931N1+01101+00801101441ADDGD14991+0180099GF108991999999999999999999MA1101461999999MW1001REMMET072KBFI 300353Z 00000KT 10SM OVC060 11/08 A2996 RMK AO2 SLP144 T01110083 $;EQDQ01+000000PRSWM2
0169727935999992000103011244+47530-122300FM-16+0005KBFI V0201501N002610060019N0128741N1+00501+00501999999ADDGD12991+0021099GD23991+0060099GF107991999999999999999999MA1101831999999MW1001REMMET061KBFI 301124Z 15005KT 8SM FEW007 BKN020 05/05 A3007 RMK AO2 $;EQDQ01+000000PRSWM2
0185727935999992000110101534+47530-122300FM-15+0005KBFI V0209999C000010150019N0160931N1+01101+00901102551ADDGD12991+0141099GD23991+0150099GF107991999999999999999999MA1102571999999MW1001REMMET077KBFI 010153Z 00000KT 10SM SCT047 BKN055 11/09 A3029 RMK AO2 SLP255 T01060089;EQDQ01+000000PRSWM2
0213727935999992000110216534+47530-122300FM-15+0005KBFI V0209999C000010141019N0160931N1+01001+00601102331ADDGD13991+0141099GD24991+0300099GF108991999999999999999999MA1102341999999MW1001REMMET105KBFI 021653Z 00000KT 10SM BKN047 OVC100 10/06 A3022 RMK AO2 SLP233 BINOVC SE-SW HIR CLDS VIS T01000056 $;EQDQ01+000000PRSWM2
0209727935999992000110421534+47530-122300FM-15+0005KBFI V02099999999990270019N0160931N1+01401+00501101021ADDGD12991+0060099GD22991+0129099GD33991+0270099GF107991999999999999999999MA1101021999999MW1001REMMET086KBFI 042153Z VRB05KT 10SM FEW020 SCT043 BKN095 14/05 A2983 RMK AO2 SLP102 T01390050 $;EQDQ01+000000PRSWM2
0274727935999992000110807534+47530-122300FM-15+0005KBFI V0201501N001510117019N0160931N1+00801+00801101431ADDAA101000021GD12991+0096099GD24991+0117099GF108991999999999999999999KA1999M+01061KA2999N+00281MA1101461999999MW1611REMMET113KBFI 080753Z 15003KT 10SM -RA SCT032 OVC039 08/08 A2996 RMK AO2 RAB30 SLP143 PCPN VLGT P0000 T00830078 401060028;EQDQ01+000003PRSWM1Q02    003PRSWM1
0166727935999992000111508534+47530-122300FM-15+0005KBFI V0209999C000012200019N0160931N1+00001-00201102021ADDGF100991999999999999999999MA1102031999999MD1310131+9999MW1001REMMET074KBFI 150853Z 00000KT 10SM CLR 00/M02 A3013 RMK AO2 SLP202 T00001022 53013;EQDQ01+000000PRSWM2
0163727935999992000111522534+47530-122300FM-15+0005KBFI V0203001N002612200019N0160931N1+00801+00201102241ADDGD12991+0600099GF104991999999999999999999MA1102271999999MW1001REMMET070KBFI 152253Z 30005KT 10SM SCT200 08/02 A3020 RMK AO2 SLP224 T00780017;EQDQ01+000000PRSWM2
0156727935999992000111617004+47530-122300FM-15+0005KBFI V0201601N002610009019N0048281N1-00101-00101999999ADDGD13991+0009099GF107991999999999999999999MA1102811999999MW1001REMMET063KBFI 161700Z 16005KT 3SM BKN003 M01/M01 A3036 RMK AO2 BCFG N-E;EQDQ01+000000PRSWM2
0163727935999992000120109534+47530-122300FM-15+0005KBFI V0209999C000012200019N0160931N1+00601+00401102061ADDGD12991+0360099GF104991999999999999999999MA1102071999999MW1001REMMET070KBFI 010953Z 00000KT 10SM SCT120 06/04 A3014 RMK AO2 SLP206 T00560039;EQDQ01+000000PRSWM2
0269727935999992000120308534+47530-122300FM-15+0005KBFI V0209999C000010060019N0040231N1+00301+00301102411ADDGD12991+0003099GD22991+0009099GD33991+0060099GF107991999999999999999999MA1102401999999MD1010011+9999MW1101REMMET116KBFI 030853Z 00000KT 2SM BR SCT001 SCT003 BKN020 03/03 A3024 RMK AO2 SFC VIS 2 1/2 SLP241 VSBY S1/2 T00330033 50001;EQDQ01+000003PRSWM1Q02    003PRSWM1
0276727935999992000120317534+47530-122300FM-15+0005KBFI V02099999999992200019N0160931N1+00601+00401102491ADDGD12991+0120099GD22991+0600099GF104991999999999999999999KA1999M+00561KA2999N+00001MA1102511999999MD1110141+9999MW1411REMMET112KBFI 031753Z VRB03KT 10SM BCFG FEW040 SCT200 06/04 A3027 RMK AO2 SLP249 BCFG DSNT S T00560044 10056 20000 51014;EQDQ01+000003PRSWM1Q02    003PRSWM1
0174727935999992000120515534+47530-122300FM-15+0005KBFI V0200201N002112200019N0160931N1+00301+00201103061ADDGD12991+0480099GF104991999999999999999999MA1103081999999MW1001REMMET081KBFI 051553Z 02004KT 10SM SCT160 03/02 A3044 RMK AO2 SLP306 ST DSNT SE T00330022;EQDQ01+000000PRSWM2
0147727935999992000120610534+47530-122300FM-15+0005KBFI V0209999C000012200019N0160931N1+00301+00201102671ADDGF100991999999999999999999MA1102681999999MW1001REMMET069KBFI 061053Z 00000KT 10SM CLR 03/02 A3032 RMK AO2 SLP267 T00330022 $;EQDQ01+000000PRSWM2
0202727935999992000120806534+47530-122300FM-15+0005KBFI V0209999C000010027019N0032181N1+00401+00301101921ADDGD14991+0027099GF108991999999999999999999MA1101931999999MW1101REMMET093KBFI 080653Z 00000KT 2SM BR OVC009 04/03 A3010 RMK AO2 SFC VIS 4 SLP192 VIS SE-S 2 T00390028;EQDQ01+000003PRSWM1Q02    003PRSWM1
0221727935999992000120900534+47530-122300FM-15+0005KBFI V0201501N003110051019N0080461N1+00501+00301101441ADDAA101000021GD14991+0051099GF108991999999999999999999MA1101461999999MW1101MW2531REMMET095KBFI 090053Z 15006KT 5SM DZ BR OVC017 05/03 A2996 RMK AO2 SLP144 RAB28E47DZB47 P0000 T00500033;EQDQ01+000003PRSWM1Q02    003PRSWM1
0244727935999992000121703534+47530-122300FM-15+0005KBFI V0201801N006712200019N0160931N1+00801+00601101151ADDAA101000021GD12991+0072099GD22991+0084099GF104991999999999999999999MA1101151999999MW1001OC101291REMMET117KBFI 170353Z 18013G25KT 10SM SCT024 SCT028 08/06 A2987 RMK AO2 PK WND 20031/0300 RAB0255E10 SLP115 P0000 T00780061 $;EQDQ01+000000PRSWM2
0170727935999992000121718004+47530-122300FM-15+0005KBFI V0201301N004610240019N0160931N1+00601+00401999999ADDGD12991+0072099GD23991+0240099GF107991999999999999999999MA1103351999999MW1001REMMET062KBFI 171758Z 13009KT 10SM SCT024 BKN085 06/04 A3052 RMK AO2 $;EQDQ01+000000PRSWM2
0185727935999992000122415534+47530-122300FM-15+0005KBFI V0201501N002110030019N0160931N1+00601+00601102601ADDGD13991+0030099GD24991+0150099GF108991999999999999999999MA1102611999999MW1001REMMET077KBFI 241553Z 15004KT 10SM BKN010 OVC050 06/06 A3030 RMK AO2 SLP260 T00560056;EQDQ01+000000PRSWM2
0258727935999992000122823534+47530-122300FM-15+0005KBFI V0203001N002110360019N0160931N1+00801+00401102721ADDGD13991+0360099GD23991+0660099GF107991999999999999999999KA1999M+00831KA2999N+00561MA1102741999999MD1510031+9999MW1001REMMET110KBFI 282353Z 30004KT 10SM BKN120 BKN220 08/04 A3034 RMK AO2 SLP272 ACSL DSNT SE T00830044 10083 20056 55003 $;EQDQ01+000000PRSWM2
0054727937999992000010713009+47900-122283NSRDB+018999999V020999999999999999999999999999+99999+99999999999ADDGP10060000002000000002000000002000GR100600000900009
0305727937999992000010917534+47900-122280FM-15+0185KPAE V0202901N004610108019N0160931N1+00401-00101100741ADDAA101000021AA206005891GD13991+0108019GD24991+0135019GF108991999999999999999999KA1999M+00501KA2999N+00281MA1100711999999MD1310311+9999MW1001OC100871REMMET127KPAE 091753Z 29009G17KT 230V360 10SM BKN036 OVC045 04/M01 A2974 RMK AO2 RAE21 SLP074 P0000 60023 T00391006 10050 20028 53031 $;EQDQ01+000000PRSWM2
0071727937999992000011000009+47900-122283NSRDB+018999999V020999999999999999999999999999+99999+99999999999ADDGP10060011902008027202015008202008GQ100600823922449GR100600189914159
0187727937999992000011321534+47900-122280FM-15+0185KPAE V0201201N003610144019N0160931N1+00401+00201101381ADDGD13991+0144019GD24991+0450019GF108991999999999999999999MA1101351999999MW1001REMMET079KPAE 132153Z 12007KT 10SM BKN048 OVC150 04/02 A2993 RMK AO2 SLP138 T00390022 $;EQDQ01+000000PRSWM2
0326727937999992000011411534+47900-122280FM-15+0185KPAE V0201601N005710105019N0160931N1+00501+00301101001ADDAA101000391AA206001591AA324002591GD12991+0090019GD23991+0105019GD34991+0150019GF108991999999999999999999KA1999M+00501KA2999N+00331MA1100981999999MD1010101+9999MW1001REMMET130KPAE 141153Z AUTO 16011KT 10SM FEW030 BKN035 OVC050 05/03 A2982 RMK AO2 SLP100 P0001 60006 70010 T00500033 10050 20033 50010 TSNO;EQDQ01+000000PRSWM2
0054727937999992000011607009+47900-122283NSRDB+018999999V020999999999999999999999999999+99999+99999999999ADDGP10060000002000000002000000002000GR100600000900009
0220727937999992000011717534+47900-122280FM-15+0185KPAE V0201201N003612200019N0160931N1+00401+00101102521ADDAA106000021GF100991999999999999999999KA1999M+00441KA2999N+00111MA1102471999999MD1310111+9999MW1001REMMET091KPAE 171753Z 12007KT 10SM CLR 04/01 A3026 RMK AO2 SLP252 60000 T00440006 10044 20011 53011;EQDQ01+000000PRSWM2
0071727937999992000011818009+47900-122283NSRDB+018999999V020999999999999999999999999999+99999+99999999999ADDGP10060015502008049402015005402008GQ100600783913999GR100600287914139
0071727937999992000011823009+47900-122283NSRDB+018999999V020999999999999999999999999999+99999+99999999999ADDGP10060024102008054802015009402008GQ100600744921169GR100600379914139
0054727937999992000011913009+47900-122283NSRDB+018999999V020999999999999999999999999999+99999+99999999999ADDGP10060000002000000002000000002000GR100600000900009
0054727937999992000012206009+47900-122283NSRDB+018999999V020999999999999999999999999999+99999+99999999999ADDGP10060000002000000002000000002000GR100600000900009
0054727937999992000012214009+47900-122283NSRDB+018999999V020999999999999999999999999999+99999+99999999999ADDGP10060000002000000002000000002000GR100600000900009
0222727937999992000012309534+47900-122280FM-15+0185KPAE V0200401N001510015019N0004021N1+00201+00201102111ADDGD12991+0003019GD24991+0015019GF108991999999999999999999MA1102071999999MW1441REMMET098KPAE 230953Z AUTO 04003KT 1/4SM FG SCT001 OVC005 02/02 A3014 RMK AO2 SLP211 T00220022 FZRANO TSNO;EQDQ01+000003PRSWM1Q02    003PRSWM1
0224727937999992000012519224+47900-122280FM-16+0185KPAE V0201601N00621001201CN0032181N1+00601+00601999999ADDGD13991+0021019GD24991+0030019GF108991999999999999999999MA1101391999999MW1611REMMET084KPAE 251922Z 16012KT 2SM -RA BR BKN007 OVC010 06/06 A2994 RMK AO2 CIG 004V010 P0000;EQDQ01+000100PRSWM3Q02+000003PRSWM1Q03    003PRSWM1
0054727937999992000012911009+47900-122283NSRDB+018999999V020999999999999999999999999999+99999+99999999999ADDGP10060000002000000002000000002000GR100600000900009
0054727937999992000012915009+47900-122283NSRDB+018999999V020999999999999999999999999999+99999+99999999999ADDGP10060000002000000002000000002000GR100600000900009
0071727937999992000020102009+47900-122283NSRDB+018999999V020999999999999999999999999999+99999+99999999999ADDGP10060000002008000002015000002008GQ100600897924389GR100600001901299
0283727937999992000020113534+47900-122280FM-15+0185KPAE V0201801N010810135019N0160931N1+00901+00801100731ADDAA101000591GD12991+0036019GD23991+0135019GD34991+0150019GF108991999999999999999999MA1100711999999MW1611OC101491REMMET125KPAE 011353Z AUTO 18021G29KT 10SM -RA FEW012 BKN045 OVC055 09/08 A2974 RMK AO2 PK WND 19029/1254 SLP073 P0002 T00890083 TSNO;EQDQ01+000003PRSWM1Q02    003PRSWM1
0054727937999992000020204009+47900-122283NSRDB+018999999V020999999999999999999999999999+99999+99999999999ADDGP10060000002000000002000000002000GR100600000900009
0231727937999992000020210534+47900-122280FM-15+0185KPAE V0200901N003610078019N0112651N1+00501+00501102581ADDAA101000591GD12991+0009019GD24991+0078019GF108991999999999999999999MA1102541999999MW1611REMMET096KPAE 021053Z AUTO 09007KT 7SM -RA FEW003 OVC026 05/05 A3028 RMK AO2 SLP258 P0002 T00500050 TSNO;EQDQ01+000003PRSWM1Q02    003PRSWM1
0071727937999992000021516009+47900-122283NSRDB+018999999V020999999999999999999999999999+99999+99999999999ADDGP10060000902008010502015000602008GQ100600870911259GR100600052909939
0071727937999992000021517009+47900-122283NSRDB+018999999V020999999999999999999999999999+99999+99999999999ADDGP10060010302008022302015006202008GQ100600796912259GR100600253914029
0071727937999992000021621009+47900-122283NSRDB+018999999V020999999999999999999999999999+99999+99999999999ADDGP10060049002008083202015007702008GQ100600604918199GR100600693914019
0071727937999992000021700009+47900-122283NSRDB+018999999V020999999999999999999999999999+99999+99999999999ADDGP10060027902008071702015007002008GQ100600731922799GR100600407914019
0054727937999992000022105009+47900-122283NSRDB+018999999V020999999999999999999999999999+99999+99999999999ADDGP10060000002000000002000000002000GR100600000900009
