0213719240999992000122309004+74720-094970SY-MT+0067CYRB V0201201N005112200019N0240001N1-03211-03811103231ADDGF100991001001999999001001MA1103081102271MD1610041+9999MW1001REMSYN060AAXX  23094 71924 42974 01210 11321 21381 30227 40323 56004;MET055CYRB 230900Z 12010KT 15SM SKC M32/M38 A3044 RMK SLP323;EQDQ01+000000PRSWM2
0180719246999992000030518004+76420-082900FM-15+0045CWGZ V0209999C000012200019N0241401N1-02801-03701102511ADDGD12991+0105099GF102991999999999999999999MA1102401999999MW1001REMMET087CWGZ 051800Z 00000KT 15SM FEW035 M28/M37 A3024 RMK SC1 FOG BANKS ON JONES SOUND SLP251;EQDQ01+000000PRSWM2
0177719246999992000032418004+76420-082900FM-15+0045CWGZ V0209999C000010150019N0048281N1-01901-02201102171ADDGD14991+0150099GF108991999999999999999999MA1102101999999MW1711REMMET068CWGZ 241800Z 00000KT 3SM -SN OVC050 M19/M22 A3015 RMK SN3SC4 SLP217;EQDQ01+000003PRSWM1Q02    003PRSWM1
0157719246999992000032516174+76420-082900FM-16+0045CWGZ V0202201N001010240019N0024141N1+99999+99999999999ADDGD12991+0105099GD24991+0240099GF108991999999999999999999MW1001MW2711REMMET058CWGZ 251617Z 22002KT 1 1/2SM -SN SCT035 OVC080 RMK SC3AS5;EQDQ01+000003PRSWM1
0198719246999992000041417004+76420-082900FM-15+0045CWGZ V0209999C000010600019N0128741N1-02001-02401103231ADDGD12991+0300099GD23991+0600099GF107991999999999999999999MA1103151999999MW1761REMMET074CWGZ 141700Z 00000KT 8SM IC FEW100 BKN200 M20/M24 A3046 RMK AS1CS3 SLP323;EQDQ01+000003PRSWM1Q02    003PRSWM1
0180719246999992000050416004+76420-082900FM-15+0045CWGZ V0200701N001012200019N0241401N1-01201-01401101511ADDGD12991+0090099GD22991+0600099GF102991999999999999999999MA1101461999999MW1001REMMET072CWGZ 041600Z 07002KT 15SM FEW030 FEW200 M12/M14 A2996 RMK SC1CC1 SLP151;EQDQ01+000000PRSWM2
0179719246999992000061019004+76420-082900FM-15+0045CWGZ V0201801N001012200019N0241401N1+00501-00101101751ADDGD12991+0270099GD22991+0900099GF104991999999999999999999MA1101691999999MW1001REMMET071CWGZ 101900Z 18002KT 15SM FEW090 SCT300 05/M01 A3003 RMK AC1CI2 SLP175;EQDQ01+000000PRSWM2
0179719246999992000061419004+76420-082890FM-15+0045CWGZ V0201901N002112200019N0241401N1+00201-00101101491ADDGD12991+0090099GD22991+0900099GF102991999999999999999999MA1101461999999MW1001REMMET071CWGZ 141900Z 19004KT 15SM FEW030 FEW300 02/M01 A2996 RMK SC1CI1 SLP149;EQDQ01+000000PRSWM2
0203719246999992000070715004+76420-082890FM-15+0045CWGZ V0209999C000010900019N0241401N1+00701+00401101301ADDGD12991+0150099GD22991+0300099GD33991+0900099GF107991999999999999999999MA1101251999999MW1001REMMET080CWGZ 071500Z 00000KT 15SM FEW050 FEW100 BKN300 07/04 A2990 RMK SC1AS2CI1 SLP130;EQDQ01+000000PRSWM2
0178719246999992000071920004+76420-082890FM-15+0045CWGZ V0201701N002112200019N0241401N1+00201+00001101291ADDGD12991+0090099GD22991+0750099GF102991999999999999999999MA1101251999999MW1001REMMET070CWGZ 192000Z 17004KT 15SM FEW030 FEW250 02/00 A2990 RMK SC2CC1 SLP129;EQDQ01+000000PRSWM2
0178719246999992000080117004+76420-082890FM-15+0045CWGZ V0209999C000012200019N0241401N1+00701+00201101031ADDGD12991+0120099GD22991+0750099GF102991999999999999999999MA1100981999999MW1001REMMET070CWGZ 011700Z 00000KT 15SM FEW040 FEW250 07/02 A2982 RMK SC1CI1 SLP103;EQDQ01+000000PRSWM2
0223719246999992000080518004+76420-082890FM-15+0045CWGZ V0202601N002112200019N0241401N1+00501+00201101301ADDGD12991+0042099GD22991+0150099GD32991+0750099GF104991999999999999999999MA1101251999999MW1001REMMET100CWGZ 051800Z 26004KT 15SM FEW014 FEW050 SCT250 05/02 A2990 RMK ST1SC1CI0 FG BNKS JONES SOUND SLP130;EQDQ01+000000PRSWM2
0197719246999992000082215004+76420-082890FM-15+0045CWGZ V0209999C000010300019N0128741N1+00401+00201099951ADDGD12991+0075099GD24991+0300099GF108991999999999999999999MA1099931999999MW1611REMMET073CWGZ 221500Z 00000KT 8SM -RA FEW025 OVC100 04/02 A2951 RMK SF1AS7 SLP995;EQDQ01+000003PRSWM1Q02    003PRSWM1
0204719246999992000082419004+76420-082890FM-15+0045CWGZ V0203001N004612200019N0241401N1+00401-00301101141ADDGD12991+0090099GD22991+0240099GD32991+0600099GF102991999999999999999999MA1101121999999MW1001REMMET081CWGZ 241900Z 30009KT 15SM FEW030 FEW080 FEW200 04/M03 A2986 RMK SC1AC1CI1 SLP114;EQDQ01+000000PRSWM2
0129719246999992000082913374+76420-082890FM-16+0045CWGZ V0201501N001510150019N0241401N1+99999+99999999999ADDGD14991+0150099GF108991999999999999999999MW1001MW2711REMMET045CWGZ 291337Z 15003KT 15SM -SN OVC050 RMK SC8;EQDQ01+000003PRSWM1
0131719246999992000100713514+76420-082890FM-16+0045CWGZ V0200301N003110300019N0032181N1+99999+99999999999ADDGD14991+0300099GF108991999999999999999999MW1001MW2711REMMET047CWGZ 071351Z 03006KT 2SM -SN OVC100 RMK SN3AC3;EQDQ01+000003PRSWM1
0155719246999992000110217004+76420-082890FM-15+0045CWGZ V0200301N002112200019N0241401N1-01801-02101101891ADDGD12991+0090099GF102991999999999999999999MA1101831999999MW1001REMMET062CWGZ 021700Z 03004KT 15SM FEW030 M18/M21 A3007 RMK SC2 SLP189;EQDQ01+000000PRSWM2
0198719246999992000110913004+76420-082890FM-15+0045CWGZ V0201101N001010300019N0112651N1-02401-02701102741ADDGD12991+0105099GD24991+0300099GF108991999999999999999999MA1102641999999MW1761REMMET074CWGZ 091300Z 11002KT 7SM IC FEW035 OVC100 M24/M27 A3031 RMK SC2AS0 SLP274;EQDQ01+000003PRSWM1Q02    003PRSWM1
0153719246999992000110914354+76420-082890FM-16+0045CWGZ V0201901N001010300019N0032181N1+99999+99999999999ADDGD12991+0105099GD24991+0300099GF108991999999999999999999MW1001MW2711REMMET054CWGZ 091435Z 19002KT 2SM -SN FEW035 OVC100 RMK SC2AS0;EQDQ01+000003PRSWM1
0224719246999992000112319004+76420-082890FM-15+0045CWGZ V0200401N004110300019N0112651N1-01401-01701100781ADDGD12991+0105099GD23991+0300099GD34991+0750099GF108991999999999999999999MA1100711999999MW1711REMMET085CWGZ 231900Z 04008KT 7SM -SN SCT035 BKN100 OVC250 M14/M17 A2974 RMK SC3AS3CI0 SLP078;EQDQ01+000003PRSWM1Q02    003PRSWM1
0198719246999992000112817004+76420-082890FM-15+0045CWGZ V0209999C000010300019N0080461N1-01901-02101101591ADDGD12991+0105099GD24991+0300099GF108991999999999999999999MA1101521999999MW1761REMMET074CWGZ 281700Z 00000KT 5SM IC FEW035 OVC100 M19/M21 A2998 RMK SC2AS4 SLP159;EQDQ01+000003PRSWM1Q02    003PRSWM1
0196719246999992000120219004+76420-082890FM-15+0045CWGZ V0202201N001010300019N0016091N1-03001-03201100591ADDGD14991+0300099GF108991999999999999999999MA1100511999999MW1711REMMET087CWGZ 021900Z 22002KT 1SM -SN OVC100 M30/M32 A2968 RMK SN3AS3 VSBY VRBL 1/2-11/2 SLP059;EQDQ01+000003PRSWM1Q02    003PRSWM1
0173719246999992000120622004+76420-082890FM-15+0045CWGZ V0209999C000010300019N0112651N1-02301-02501101411ADDGD14991+0300099GF108991999999999999999999MA1101321999999MW1761REMMET064CWGZ 062200Z 00000KT 7SM IC OVC100 M23/M25 A2992 RMK AS8 SLP141;EQDQ01+000003PRSWM1Q02    003PRSWM1
0133719246999992000121513004+76420-082890FM-15+0045CWGZ V0201201N001012200019N0160931N1-02901-03401100351ADDGF100991999999999999999999MA1100271999999MW1001REMMET055CWGZ 151300Z 12002KT 10SM SKC M29/M34 A2961 RMK SLP035;EQDQ01+000000PRSWM2
0174719250999992000010705474+69100-105120FM-16+0027CYCB V0202701N007710075019N0096561N1+99999+99999999999ADDGD13991+0075099GD23991+0360099GF107991999999999999999999MW1001MW2711REMMET059CYCB 070547Z 27015KT 6SM -SN DRSN BKN025 BKN120 RMK SC5AC1;EQDQ01+000360PRSWM3Q02+000003PRSWM1
0159719250999992000010722154+69100-105120FM-16+0027CYCB V0203001N012310180019N0032181N1+99999+99999999999ADDGD13991+0180099GF107991999999999999999999MW1001MW2381OC101491REMMET067CYCB 072215Z 30024G29KT 2SM BLSN BKN060 RMK BLSN1SC4 VSBY VRBL 1-3;EQDQ01+000003PRSWM1
0149719250999992000010814524+69100-105120FM-16+0027CYCB V0203001N008210075019N0048281N1+99999+99999999999ADDGD14991+0075099GF108991999999999999999999MW1001MW2711REMMET049CYCB 081452Z 30016KT 3SM -SN DRSN OVC025 RMK SC8;EQDQ01+000360PRSWM3Q02+000003PRSWM1
0250719250999992000011109004+69100-105120SY-MT+0027CYCB V0203101N007710132019N0048001N1-02841-03421100871ADDGD14991+0132099GF108991999999012501999999MA1100811100491MD1610031+9999MW1381REMSYN066AAXX  11094 71925 41648 83115 11284 21342 30049 40087 56003 738//;MET071CYCB 110900Z 31015KT 3SM BLSN OVC044 M28/M34 A2977 RMK BLSN1SC7 SLP087;EQDQ01    003PRSWM1
0155719250999992000011601004+69100-105120FM-15+0027CYCB V0202101N002610300019N0241401N1-02801-03401100651ADDGD13991+0300099GF107991999999999999999999MA1100611999999MW1001REMMET062CYCB 160100Z 21005KT 15SM BKN100 M28/M34 A2971 RMK AS2 SLP065;EQDQ01+000000PRSWM2
0154719250999992000011617004+69100-105120FM-15+0027CYCB V0202701N006212200019N0160931N1-03001-03601101101ADDGF100991999999999999999999MA1101051999999MW1361REMMET060CYCB 161700Z 27012KT 10SM DRSN SKC M30/M36 A2984 RMK SLP110;EQDQ01+000003PRSWM1Q02    003PRSWM1
0318719250999992000011906004+69100-105120FM-12+002799999V0202301N00261220001CN0170001N1-03551-04101102371ADDAA106000791AA224999929AC13I9AJ100199199999999AL12499999AY171061AY271061GA1001+999999999GF100991001001999999001001IA1289KA1240M-03551KA2240N-03691MA1999999101981MD1210031+9999MW1761REMSYN126    AAXX  19064 71925 11967 02305 11355 21410 30198 40237 52003 69901 77677 333 11355 21369 44019 79999 90973 555 19999 29999;
0174719250999992000012216004+69100-105120FM-15+0027CYCB V0200301N001512200019N0241401N1-03801-04301101781ADDGD12991+0420099GF104991999999999999999999MA1101731999999MW1761REMMET065CYCB 221600Z 03003KT 15SM IC SCT140 M38/M43 A3004 RMK AS4 SLP178;EQDQ01+000003PRSWM1Q02    003PRSWM1
0133719250999992000012410004+69100-105120FM-15+0027CYCB V0203101N004112200019N0241401N1-04001-04401101531ADDGF100991999999999999999999MA1101461999999MW1001REMMET055CYCB 241000Z 31008KT 15SM SKC M40/M44 A2996 RMK SLP153;EQDQ01+000000PRSWM2
0167719250999992000012602544+69100-105120FM-16+0027CYCB V0201501N013410150019N0006041N1+99999+99999999999ADDGD14991+0150099GF108991999999999999999999MW1001MW2381OC101591REMMET075CYCB 260254Z 15026G31KT 3/8SM BLSN OVC055 RMK BLSN4SC4 VSBY VRBL 1/4 - 1/2;EQDQ01+000003PRSWM1
0200719250999992000012917004+69100-105120FM-15+0027CYCB V0200101N001510039019N0160931N1-02601-03101100301ADDGD12991+0018099GD23991+0039099GF107991999999999999999999MA1100271999999MW1711REMMET076CYCB 291700Z 01003KT 10SM -SN SCT006 BKN013 M26/M31 A2961 RMK SF2SC5 SLP030;EQDQ01+000003PRSWM1Q02    003PRSWM1
0174719250999992000013007004+69100-105120FM-15+0027CYCB V0202201N001010051019N0112651N1-02501-03001101021ADDGD14991+0051099GF108991999999999999999999MA1100981999999MW1711REMMET065CYCB 300700Z 22002KT 7SM -SN OVC017 M25/M30 A2982 RMK SC8 SLP102;EQDQ01+000003PRSWM1Q02    003PRSWM1
0200719250999992000020120004+69100-105120FM-15+0027CYCB V0201501N007712200019N0112651N1-01601-01901098711ADDGD12991+0042099GD22991+0330099GF104991999999999999999999MA1098681999999MW1361REMMET076CYCB 012000Z 15015KT 7SM DRSN FEW014 SCT110 M16/M19 A2914 RMK SF1AC2 SLP871;EQDQ01+000003PRSWM1Q02    003PRSWM1
0211719250999992000020222004+69100-105120FM-15+0027CYCB V0202801N011812200019N0048281N1-02101-02601100541ADDGD12991+0150099GD22991+0390099GF104991999999999999999999MA1100511999999MW1381OC101441REMMET079CYCB 022200Z 28023G28KT 3SM BLSN FEW050 SCT130 M21/M26 A2968 RMK SC1AC1 SLP054;EQDQ01+000003PRSWM1Q02    003PRSWM1
0173719250999992000020702184+69100-105120FM-16+0027CYCB V0202801N010310120019N0010061N1+99999+99999999999ADDGD13991+0120099GF107991999999999999999999MW1001MW2381MW3711OC101291REMMET075CYCB 070218Z 28020G25KT 5/8SM -SN BLSN BKN040 RMK BLSN1SC6 VSBY VRBL 1/4-1;EQDQ01+000003PRSWM1
0403719250999992000021100004+69100-105120SY-MT+0027CYCB V0203301N01031013501CN0008001N1-02511-03051100461ADDAA124000091AY131061AY221061GD13991+0135099GD23991+0390099GF107991061051012501031001KA1120M-02291KA2180N-02681MA1100411100091MD1810071+9999MW1381OC101291REMSYN094AAXX  11004 71925 31608 73320 11251 21305 30009 40046 58007 73832 86530 333 11229 21268 70000;MET104CYCB 110000Z 33020G25KT 1/2SM BLSN BKN045 BKN130 M25/M30 A2965 RMK BLSN1SC5AC1 VSBY VRBL 1/4-3/4 SLP046;EQDQ01  00002PRCP24Q02    003PRSWM1
0180719250999992000021219004+69100-105120FM-15+0027CYCB V0202301N005110360019N0241401N1-02901-03401101161ADDGD13991+0360099GD24991+0600099GF108991999999999999999999MA1101121999999MW1001REMMET072CYCB 121900Z 23010KT 15SM BKN120 OVC200 M29/M34 A2986 RMK AC2CI1 SLP116;EQDQ01+000000PRSWM2
0128719250999992000021311324+69100-105120FM-16+0027CYCB V0201301N002110039019N0032181N1+99999+99999999999ADDGD14991+0039099GF108991999999999999999999MW1001MW2711REMMET044CYCB 131132Z 13004KT 2SM -SN OVC013 RMK SC8;EQDQ01+000003PRSWM1
0153719250999992000021805004+69100-105120FM-15+0027CYCB V0203201N003612200019N0128741N1-04101-04501102251ADDGF100991999999999999999999MA1102171999999MW1401REMMET059CYCB 180500Z 32007KT 8SM VCFG SKC M41/M45 A3017 RMK SLP225;EQDQ01+000003PRSWM1Q02    003PRSWM1
0359719250999992000021812004+69100-105120SY-MT+0027CYCB V0209999C000012200019N0190001N1-03971-04411102381ADDAA124000791AJ100219199999999AY101061AY201061GF100991001001999999001001GJ103669IA1289KA1999M-03801KA2120N-04171MA1102301101981MD1110031+9999MW1401REMSYN100AAXX  18124 71925 31969 00000 11397 21441 30198 40238 51003 74000 333 11380 21417 44021 55061 79999;MET077CYCB 181200Z 00000KT 12SM VCFG SKC M40/M44 A3021 RMK SNW CVR/HRD PACK SLP238;EQDQ01    003PRSWM1
0362719250999992000022018004+69100-105120SY-MT+0027CYCB V0203601N002112200019N0240001N1-03791-04261101901ADDAA106000791AA224999929AJ100219199999999AY171061AY271061GF100991001001999999001001IA1289KA1120M-03631KA2240N-03891MA1101831101511MD1810071+9999MW1021REMSYN106AAXX  20184 71925 11974 03604 11379 21426 30151 40190 58007 69901 70277 333 11363 21389 44021 79999 90921;MET055CYCB 201800Z 36004KT 15SM SKC M38/M43 A3007 RMK SLP190;EQDQ01+000000PRSWM2Q02    003PRSWM1
0150719250999992000022108384+69100-105120FM-16+0027CYCB V0200601N002610540019N0032181N1+99999+99999999999ADDGD13991+0540099GF107991999999999999999999MW1001MW2101REMMET066CYCB 210838Z 06005KT 2SM BR BKN180 RMK FG1CS2 VSBY VRBL 1-3. HALO;EQDQ01+000003PRSWM1
0191719250999992000022208514+69100-105120FM-16+0027CYCB V0200501N007710045019N0032181N1+99999+99999999999ADDGD13991+0045099GD24991+0360099GF108991999999999999999999MW1001MW2711REMMET076CYCB 220851Z 05015KT 2SM -SN DRSN BKN015 OVC120 RMK SN1SC5AC2 VSBY VRBL 1-3;EQDQ01+000360PRSWM3Q02+000003PRSWM1
0224719250999992000022210004+69100-105120FM-15+0027CYCB V0200501N007710045019N0048281N1-02801-03401100991ADDGD13991+0045099GD24991+0360099GF108991999999999999999999MA1100951999999MW1361MW2711REMMET094CYCB 221000Z 05015KT 3SM -SN DRSN BKN015 OVC120 M28/M34 A2981 RMK SC4AC3 VSBY VRBL 2-4 SLP099;EQDQ01+000003PRSWM1Q02    003PRSWM1
0180719250999992000022222004+69100-105120FM-15+0027CYCB V0203001N003612200019N0160931N1-03301-03801101701ADDGD12991+0420099GD22991+0600099GF102991999999999999999999MA1101661999999MW1001REMMET072CYCB 222200Z 30007KT 10SM FEW140 FEW200 M33/M38 A3002 RMK AC1CI1 SLP170;EQDQ01+000000PRSWM2
0175719250999992000022605004+69100-105120FM-15+0027CYCB V0200701N004110042019N0160931N1-02201-02601101061ADDGD14991+0042099GF108991999999999999999999MA1101021999999MW1711REMMET066CYCB 260500Z 07008KT 10SM -SN OVC014 M22/M26 A2983 RMK SC8 SLP106;EQDQ01+000003PRSWM1Q02    003PRSWM1
0129719250999992000022701174+69100-105120FM-16+0027CYCB V0203301N001010033019N0160931N1+99999+99999999999ADDGD14991+0033099GF108991999999999999999999MW1001MW2711REMMET045CYCB 270117Z 33002KT 10SM -SN OVC011 RMK SC8;EQDQ01+000003PRSWM1
0210719250999992000022820004+69100-105120FM-15+0027CYCB V0202501N007212200019N0160931N1-03401-03801101441ADDGD12991+0075099GD22991+0480099GF102991999999999999999999MA1101391999999MW1361MW2761REMMET080CYCB 282000Z 25014KT 10SM IC DRSN FEW025 FEW160 M34/M38 A2994 RMK SC1AC0 SLP144;EQDQ01+000003PRSWM1Q02    003PRSWM1
0271719250999992000022915004+69100-105120SY-MT+0027CYCB V0200401N006212200019N0016001N1-03691-04111101561ADDGD12991+0360099GF102991999999999999999999MA1101491101171MD1510031+9999MW1101MW2441REMSYN066AAXX  29154 71925 41916 20412 11369 21411 30117 40156 55003 744//;MET086CYCB 291500Z 04012KT 1SM BR FEW120 M37/M41 A2997 RMK FG1AC0 VSBY VRBL 3/4-11/4 SLP156;EQDQ01    003PRSWM1
0173719250999992000030213004+69100-105120FM-15+0027CYCB V0200501N006212200019N0096561N1-03601-04001102041ADDGD12991+0075099GF104991999999999999999999MA1101961999999MW1761REMMET064CYCB 021300Z 05012KT 6SM IC SCT025 M36/M40 A3011 RMK SC3 SLP204;EQDQ01+000003PRSWM1Q02    003PRSWM1
0240719250999992000030319004+69100-105120FM-15+0027CYCB V0200301N008212200019N0128741N1-02801-03201100931ADDGD12991+0060099GD22991+0300099GD32991+0600099GF104991999999999999999999MA1100881999999MW1361MW2761REMMET095CYCB 031900Z 03016KT 8SM IC DRSN FEW020 FEW100 SCT200 M28/M32 A2979 RMK SC1AC1CI0 SC TR SLP093;EQDQ01+000003PRSWM1Q02    003PRSWM1
0399719250999992000030700004+69100-105120SY-MT+0027CYCB V0203501N005112200019N0190001N1-03291-03771102981ADDAA106000791AA224999929AJ100269199999999AY111061AY211061GD12991+0360099GF199999011001999999071001IA1289KA1120M-03211KA2180N-03641MA1102911102591MD1310101+9999MW1761REMSYN112AAXX  07004 71925 11969 13510 11329 21377 30259 40298 53010 69901 77611 81070 333 11321 21364 44026 79999 90952;MET071CYCB 070000Z 35011KT 12SM IC FEW120 M33/M38 A3039 RMK AS1 AS TR SLP298;EQDQ01+000012SCOTCVQ02    003PRSWM1
0162719250999992000031016004+69100-105120FM-15+0027CYCB V0202901N008712200019N0032181N1-03501-03901102321ADDGF100991999999999999999999MA1102271999999MW1361MW2761REMMET062CYCB 101600Z 29017KT 2SM IC DRSN SKC M35/M39 A3020 RMK SLP232;EQDQ01+000003PRSWM1Q02    003PRSWM1
0155719250999992000031719004+69100-105120FM-15+0027CYCB V0201201N005112200019N0241401N1-03001-03501101081ADDGD12991+0660099GF102991999999999999999999MA1101021999999MW1001REMMET062CYCB 171900Z 12010KT 15SM FEW220 M30/M35 A2983 RMK CI0 SLP108;EQDQ01+000000PRSWM2
0155719250999992000031720004+69100-105120FM-15+0027CYCB V0201001N005112200019N0241401N1-02901-03401101081ADDGD12991+0660099GF102991999999999999999999MA1101021999999MW1001REMMET062CYCB 172000Z 10010KT 15SM FEW220 M29/M34 A2983 RMK CI0 SLP108;EQDQ01+000000PRSWM2
0174719250999992000031917004+69100-105120FM-15+0027CYCB V0201901N002110630019N0209211N1-03101-03501101591ADDGD13991+0630099GF107991999999999999999999MA1101521999999MW1761REMMET065CYCB 191700Z 19004KT 13SM IC BKN210 M31/M35 A2998 RMK CI1 SLP159;EQDQ01+000003PRSWM1Q02    003PRSWM1
0198719250999992000032812004+69100-105120SY-MT+0027CYCB V0201301N00771004501CN0032001N1-01391-01621100361ADDAA106000791AJ100329199999999AY121061AY221061GD14991+0045099GF108991081051004501999999IA1299KA1999M+99999KA2999N-01831MA1100341100001MD1710131+9999MW1711OC101031EQDQ01    003PRSWM1Q02 -01472ATMX  
0174719250999992000040216004+69100-105120FM-15+0027CYCB V0202001N006210042019N0080461N1-01701-02101101881ADDGD14991+0042099GF108991999999999999999999MA1101831999999MW1711REMMET065CYCB 021600Z 20012KT 5SM -SN OVC014 M17/M21 A3007 RMK SC8 SLP188;EQDQ01+000003PRSWM1Q02    003PRSWM1
0213719250999992000040612004+69100-105120SY-MT+0027CYCB V0203101N00511014101CN0190001N1-03211-03691100891ADDAA106000791AJ100309199999999AY171061AY271061GD12991+0096099GD23991+0141099GF199999051051008001001001IA1299KA1999M-02441KA2999N-03361MA1100851100511MD1010041+9999MW1761OC100771EQDQ01+000052SCOTCVQ02    003PRSWM1
0375719250999992000041012004+69100-105120SY-MT+0027CYCB V0203001N005712200019N0160001N1-02871-03151103131ADDAA124000091AJ100289199999999GD12991+0300099GF199999011001999999031001GJ105109IA1299KA1999M-02191KA2120N-02911MA1103081102751MD1210141+9999MW1001REMSYN100AAXX  10124 71925 32966 13011 11287 21315 30275 40313 52014 81030 333 11219 21291 49028 55085 70000;MET062CYCB 101200Z 32011KT 10SM FEW100 M29/M33 A3044 RMK AC1 SLP313;EQDQ01+000012SCOTCVQ02+000000PRSWM2Q03  00002PRCP24
0155719250999992000041102004+69100-105120FM-15+0027CYCB V0200301N003612200019N0241401N1-02301-02701103401ADDGD12991+0360099GF102991999999999999999999MA1103351999999MW1001REMMET062CYCB 110200Z 03007KT 15SM FEW120 M23/M27 A3052 RMK AC1 SLP340;EQDQ01+000000PRSWM2
0445719250999992000041212004+69100-105120SY-MT+0027CYCB V0203101N00871004801CN0110001N1-02561-02991102821ADDAA124000091AJ100289199999999AY121061AY221061GD12991+0015099GD23991+0048099GF107991071051001501001001GJ104149IA1299KA1999M-02381KA2120N-02691MA1102781102441MD1210071+9999MW1361OC101031REMSYN106AAXX  12124 71925 31261 73117 11256 21299 30244 40282 52007 73622 87500 333 11238 21269 49028 55069 70000;MET103CYCB 121200Z 31015G20KT 7SM DRSN VCSH SCT005 BKN016 M26/M30 A3035 RMK SF2SC3 SNW CVR MUCH LOOSE SLP282;EQDQ01  00002PRCP24Q02    003PRSWM1
0200719250999992000041302004+69100-105120FM-15+0027CYCB V0203401N010310270019N0112651N1-02101-02501102681ADDGD12991+0069099GD23991+0270099GF107991999999999999999999MA1102641999999MW1361REMMET076CYCB 130200Z 34020KT 7SM DRSN FEW023 BKN094 M21/M25 A3031 RMK SC1AC2 SLP268;EQDQ01+000003PRSWM1Q02    003PRSWM1
0187719250999992000041314004+69100-105120FM-15+0027CYCB V0203201N005110054019N0160931N1-02401-02901102821ADDGD13991+0054099GF107991999999999999999999MA1102781999999MW1361OC100771REMMET070CYCB 131400Z 32010G15KT 10SM DRSN BKN018 M24/M29 A3035 RMK SC7 SLP282;EQDQ01+000003PRSWM1Q02    003PRSWM1
0155719250999992000041601004+69100-105120FM-15+0027CYCB V0201401N003612200019N0193121N1-02201-02601101571ADDGD12991+0630099GF102991999999999999999999MA1101521999999MW1001REMMET062CYCB 160100Z 14007KT 12SM FEW210 M22/M26 A2998 RMK CI1 SLP157;EQDQ01+000000PRSWM2
0284719250999992000042009004+69100-105120SY-MT+0027CYCB V0200801N007712200019N0090001N1-02131-02611101871ADDGD12991+0105099GD22991+0330099GF103991999999012501999999MA1101831101501MD1010031+9999MW1761OC101031REMSYN066AAXX  20094 71925 41659 30815 11213 21261 30150 40187 50003 776//;MET082CYCB 200900Z 08015G20KT 6SM IC DRSN FEW035 SCT110 M21/M26 A3007 RMK SC2AC2 SLP187;EQDQ01    003PRSWM1
0196719250999992000042011004+69100-105120FM-15+0027CYCB V0200801N007710081019N0241401N1-02101-02601101921ADDGD13991+0081099GF107991999999999999999999MA1101861999999MW1361MW2761OC101031REMMET073CYCB 201100Z 08015G20KT 15SM IC DRSN BKN027 M21/M26 A3008 RMK SC7 SLP192;EQDQ01+000003PRSWM1Q02    003PRSWM1
0401719250999992000042218004+69100-105120SY-MT+0027CYCB V0201201N01031018001CN0004001N1-01091-01211100781ADDAA106000791AA224999929AJ100349199999999AY131061AY221061GD14991+0180099GF108991081051017501999999IA1299KA1120M-01091KA2240N-02021MA1100751100411MD1710151+9999MW1711OC101291REMSYN112AAXX  22184 71925 11704 81220 11109 21121 30041 40078 57015 69901 77132 885// 333 11109 21202 49034 79999 90942;MET081CYCB 221800Z 12020G25KT 1/4SM -SN +BLSN OVC061 M11/M12 A2975 RMK BLSN2SC6 SLP078;EQDQ01    003PRSWM1
0175719250999992000042401004+69100-105120FM-15+0027CYCB V0200701N005110042019N0160931N1-00701-00801101261ADDGD14991+0042099GF108991999999999999999999MA1101221999999MW1711REMMET066CYCB 240100Z 07010KT 10SM -SN OVC014 M07/M08 A2989 RMK SC8 SLP126;EQDQ01+000003PRSWM1Q02    003PRSWM1
0234719250999992000042519004+69100-105120FM-15+0027CYCB V0200101N001510060019N0160931N1-00901-01001102361ADDGD12991+0027099GD23991+0060099GD34991+0180099GF108991999999999999999999MA1102341999999MW1771REMMET095CYCB 251900Z 01003KT 10SM -SG FEW009 BKN020 OVC060 M09/M10 A3022 RMK SF1SC5SC2 CIG DFUS SLP236;EQDQ01+000003PRSWM1Q02    003PRSWM1
0157719250999992000042616394+69100-105120FM-16+0027CYCB V0209999C000010015019N0012071N1+99999+99999999999ADDGD13991+0015099GD24991+0060099GF108991999999999999999999MW1001MW2101REMMET058CYCB 261639Z 00000KT 3/4SM BR BKN005 OVC020 RMK FG1SC5SC2;EQDQ01+000003PRSWM1
0119719250999992000042617274+69100-105120FM-16+0027CYCB V0202201N005110012019N0193121N1+99999+99999999999ADDGD14991+0012099GF108991999999999999999999MW1001REMMET041CYCB 261727Z 22010KT 12SM OVC004 RMK SC8;EQDQ01+000000PRSWM2
0155719250999992000050622004+69100-105120FM-15+0027CYCB V0202401N003612200019N0241401N1-00401-00601101721ADDGD12991+0600099GF102991999999999999999999MA1101691999999MW1001REMMET062CYCB 062200Z 24007KT 15SM FEW200 M04/M06 A3003 RMK CI1 SLP172;EQDQ01+000000PRSWM2
0119719250999992000050719234+69100-105120FM-16+0027CYCB V0202001N005110027019N0241401N1+99999+99999999999ADDGD14991+0027099GF108991999999999999999999MW1001REMMET041CYCB 071923Z 20010KT 15SM OVC009 RMK ST8;EQDQ01+000000PRSWM2
0128719250999992000051005364+69100-105120FM-16+0027CYCB V0201501N007210018019N0128741N1+99999+99999999999ADDGD14991+0018099GF108991999999999999999999MW1001MW2771REMMET044CYCB 100536Z 15014KT 8SM -SG OVC006 RMK ST8;EQDQ01+000003PRSWM1
0209719250999992000051014444+69100-105120FM-16+0027CYCB V0201601N007710024019N0020111N1+99999+99999999999ADDGD12991+0012099GD23991+0024099GF107991999999999999999999MW1001MW2851REMMET094CYCB 101444Z 16015KT 1 1/4SM -SHSN DRSN SCT004 BKN008 RMK CF2SC4 VSBY VRBL 3/4 - 13/4 CIG RGD;EQDQ01+000360PRSWM3Q02+000003PRSWM1
0234719250999992000051019004+69100-105120FM-15+0027CYCB V0201801N007710018019N0032181N1-00501-00601102531ADDGD12991+0009099GD23991+0018099GF107991999999999999999999MA1102511999999MW1361MW2851REMMET104CYCB 101900Z 18015KT 2SM -SHSN DRSN FEW003 BKN006 M05/M06 A3027 RMK CF1SC6 VSBY VRBL 1 - 3 CF TR SLP253;EQDQ01+000003PRSWM1Q02    003PRSWM1
0189719250999992000051412004+69100-105120SY-MT+0027CYCB V0200301N00671003001CN0120001N1-01261-01411102701ADDAA106000591AJ100319199999999AY171061AY271061GD13991+0030099GD23991+0093099GF107991071051004501001001IA1309KA1999M-00581KA2999N-01261MA1102681102331MD1810011+9999MW1711EQDQ01    003PRSWM1
0267719250999992000051709004+69100-105120SY-MT+0027CYCB V0202201N002610600019N0024001N1-01611-01811101601ADDGD13991+0600099MA1101561101231MD1810101+9999MW1101MW2441REMSYN066AAXX  17094 71925 41924 62205 11161 21181 30123 40160 58010 744//;MET092CYCB 170900Z 22005KT 1 1/2SM BR BKN200 M16/M18 A2999 RMK FG1CI2 VSBY VRBL 1-2. FROIN SLP160;EQDQ01+000062SCOTCVQ02    003PRSWM1
0118719250999992000051721084+69100-105120FM-16+0027CYCB V0201801N007210180019N0128741N1+99999+99999999999ADDGD13991+0180099GF107991999999999999999999MW1001REMMET040CYCB 172108Z 18014KT 8SM BKN060 RMK SC6;EQDQ01+000000PRSWM2
0246719250999992000051819004+69100-105120FM-15+0027CYCB V0203201N007710042019N0193121N1-00601-00701101031ADDGD13991+0042099GD23991+0060099GD34991+0180099GF108991999999999999999999MA1100981999999MW1361MW2771REMMET101CYCB 181900Z 32015KT 12SM -SG DRSN BKN014 BKN020 OVC065 M06/M07 A2982 RMK SF3SC2SC2 SG- INTMT SLP103;EQDQ01+000003PRSWM1Q02    003PRSWM1
0201719250999992000051823004+69100-105120FM-15+0027CYCB V0203301N008210027019N0193121N1-00601-00801101261ADDGD13991+0027099GD24991+0150099GF108991999999999999999999MA1101221999999MW1361REMMET077CYCB 182300Z 33016KT 12SM DRSN BKN009 OVC057 M06/M08 A2989 RMK SF6SC2 SLP126;EQDQ01+000003PRSWM1Q02    003PRSWM1
0450719250999992000052312004+69100-105120SY-MT+0027CYCB V0200301N00721003001CN0110001N1-00991-01121101031ADDAA106000591AA224000691AC13I9AJ100339199999999AL10600191AY171061AY271061GD14991+0030099GF108991081061004501999999GJ100369IA1289KA1999M-00251KA2120N-01011MA1100981100671MD1310101+9999MW1711REMSYN124AAXX  23124 71925 11461 80314 11099 21112 30067 40103 53010 69961 77177 886// 333 11025 21101 44033 55006 70006 90973 93101;MET102CYCB 231200Z 03015KT 1SM -SN DRSN OVC010 M10/M11 A2982 RMK SN2ST6 /S01/ SNOW COVER / ONE LOOSE SLP103;EQDQ01    003PRSWM1
0180719250999992000052323004+69100-105120FM-15+0027CYCB V0203601N005112200019N0241401N1-01001-01301101621ADDGD12991+0045099GD22991+0600099GF102991999999999999999999MA1101591999999MW1001REMMET072CYCB 232300Z 36010KT 15SM FEW015 FEW200 M10/M13 A3000 RMK CF1CI1 SLP162;EQDQ01+000000PRSWM2
0434719250999992000052506004+69100-105120SY-MT+0027CYCB V0202301N00311012601CN0060001N1-01041-01171101781ADDAA106000791AA224999929AC10I9AJ100339199999999AL12499999AY171061AY271061GD12991+0042099GD24991+0126099GF108991081051004501999999IA1289KA1240M-00851KA2240N-01401MA1101731101411MD1610141+9999MW1711REMSYN128AAXX  25064 71925 11456 82306 11104 21117 30141 40178 56014 69901 77177 885// 333 11085 21140 44033 79999 90942 555 19999 29999;MET075CYCB 250600Z 23006KT 4SM -SN FEW014 OVC042 M10/M12 A3004 RMK SC1SC6 SLP178;EQDQ01    003PRSWM1
0141719250999992000052516064+69100-105120FM-16+0027CYCB V0203001N006210036019N0193121N1+99999+99999999999ADDGD14991+0036099GF108991999999999999999999MW1001MW2361OC100871REMMET049CYCB 251606Z 30012G17KT 12SM DRSN OVC012 RMK SC8;EQDQ01+000003PRSWM1
0203719250999992000053111314+69100-105120FM-16+0027CYCB V0200101N004612200019N0241401N1+99999+99999999999ADDGD12991+0021099GD22991+0039099GD32991+0210099GD42991+0660099GF104991999999999999999999MW1001REMMET080CYCB 311131Z CCA01009KT 15SM FEW007 FEW013 SCT070 SCT220 RMK SF1SC1AC1CI0 SF TR;EQDQ01+000000PRSWM2
0271719250999992000060309004+69100-105120SY-MT+0027CYCB V0203101N010310030019N0190001N1-00261-00361101181ADDGD13991+0030099GD24991+0135099GF108991999999004501999999MA1101151100821MD1310091+9999MW1361REMSYN066AAXX  03094 71925 41469 83120 11026 21036 30082 40118 53009 736//;MET077CYCB 030900Z 31020KT 12SM DRSN BKN010 OVC045 M03/M04 A2987 RMK SC3SC5 SLP118;EQDQ01    003PRSWM1
0166719250999992000060418264+69100-105120FM-16+0027CYCB V0203101N010310108019N0160931N1+99999+99999999999ADDGD12991+0036099GD24991+0108099GF108991999999999999999999MW1001MW2361OC101291REMMET059CYCB 041826Z 31020G25KT 10SM DRSN SCT012 OVC036 RMK SC4SC4;EQDQ01+000003PRSWM1
0237719250999992000062108004+69100-105110FM-15+0027CYCB V0200901N004610150019N0241401N1+00401+00101101021ADDGD12991+0081099GD23991+0150099GD33991+0210099GF107991999999999999999999MA1100981999999MW1161REMMET098CYCB 210800Z 09009KT 15SM VCSH FEW027 BKN055 BKN077 04/01 A2982 RMK CF0SC3AC2 ISLTD SH N-E SLP102;EQDQ01+000003PRSWM1Q02    003PRSWM1
0154719250999992000062122134+69100-105110FM-16+0027CYCB V0201201N007210024019N0241401N1+99999+99999999999ADDGD13991+0024099GD24991+0090099GF108991999999999999999999MW1001MW2611REMMET055CYCB 212213Z 12014KT 15SM -RA BKN008 OVC030 RMK CF5SC2;EQDQ01+000003PRSWM1
0153719250999992000062322004+69100-105110FM-15+0027CYCB V0202601N005110063019N0241401N1+00401+00101101211ADDGD14991+0063099GF108991999999999999999999MA1101191999999MW1001REMMET060CYCB 232200Z 26010KT 15SM OVC021 04/01 A2988 RMK SC8 SLP121;EQDQ01+000000PRSWM2
0153719250999992000062401004+69100-105110FM-15+0027CYCB V0202601N002610075019N0241401N1+00601+00301101311ADDGD14991+0075099GF108991999999999999999999MA1101291999999MW1001REMMET060CYCB 240100Z 26005KT 15SM OVC025 06/03 A2991 RMK SC8 SLP131;EQDQ01+000000PRSWM2
0293719250999992000062809004+69100-105110SY-MT+0027CYCB V0200401N001510057019N0240001N1+00431+00401101121ADDGD12991+0012099GD23991+0057099GD33991+0126099GF107991999999001501999999MA1101081100771MD1310051+9999MW1001REMSYN060AAXX  28094 71925 42274 70403 10043 20040 30077 40112 53005;MET090CYCB 280900Z 04003KT 15SM SCT004 BKN019 BKN042 04/04 A2985 RMK SF2SC1SC4 F PTCHS S SLP112;EQDQ01+000000PRSWM2
0174719250999992000062816004+69100-105110FM-15+0027CYCB V0200401N006210018019N0193121N1+00601+00401101191ADDGD14991+0018099GF108991999999999999999999MA1101151999999MW1161REMMET065CYCB 281600Z 04012KT 12SM VCSH OVC006 06/04 A2987 RMK SF8 SLP119;EQDQ01+000003PRSWM1Q02    003PRSWM1
0178719250999992000070504004+69100-105110FM-15+0027CYCB V0200301N002110075019N0241401N1+00901+00801101661ADDGD13991+0075099GD23991+0180099GF107991999999999999999999MA1101631999999MW1001REMMET070CYCB 050400Z 03004KT 15SM BKN025 BKN060 09/08 A3001 RMK SC5SC2 SLP166;EQDQ01+000000PRSWM2
0131719250999992000070716004+69100-105110FM-15+0027CYCB V0202101N001512200019N0241401N1+01901+01201100991ADDGF100991999999999999999999MA1100981999999MW1001REMMET053CYCB 071600Z 21003KT 15SM SKC 19/12 A2982 RMK SLP099;EQDQ01+000000PRSWM2
0178719250999992000070920004+69100-105110FM-15+0027CYCB V0202401N003112200019N0241401N1+01201+00501102111ADDGD12991+0105099GD22991+0600099GF102991999999999999999999MA1102101999999MW1001REMMET070CYCB 092000Z 24006KT 15SM FEW035 FEW200 12/05 A3015 RMK SC1CI0 SLP211;EQDQ01+000000PRSWM2
0234719250999992000071117004+69100-105110FM-15+0027CYCB V0200501N008210090019N0193121N1+00501+00401101191ADDGD12991+0015099GD23991+0090099GD34991+0150099GF108991999999999999999999MA1101151999999MW1611OC101081REMMET087CYCB 111700Z 05016G21KT 12SM -RA FEW005 BKN030 OVC050 05/04 A2987 RMK SF1SC3SC4 SLP119;EQDQ01+000003PRSWM1Q02    003PRSWM1
0203719250999992000072319004+69100-105110FM-15+0027CYCB V0202101N003110150019N0241401N1+01301+00501101441ADDGD13991+0150099GD23991+0360099GD33991+0690099GF107991999999999999999999MA1101421999999MW1001REMMET080CYCB 231900Z 21006KT 15SM BKN050 BKN120 BKN230 13/05 A2995 RMK SC2AC1CI0 SLP144;EQDQ01+000000PRSWM2
0153719250999992000072514004+69100-105110FM-15+0027CYCB V0201201N002612200019N0241401N1+01201+00901100751ADDGD12991+0180099GF102991999999999999999999MA1100711999999MW1001REMMET060CYCB 251400Z 12005KT 15SM FEW060 12/09 A2974 RMK SC1 SLP075;EQDQ01+000000PRSWM2
0314719250999992000072900004+69100-105110SY-MT+0027CYCB V0201201N005112200019N0240001N1+02071+01521100951ADDAA124000091GD12991+0240099GF102991021001022501071001KA1120M+02291KA2180N+00951MA1100951100611MD1710051+9999MW1001REMSYN088AAXX  29004 71925 32874 21210 10207 20152 30061 40095 57005 82070 333 10229 20095 70000;MET060CYCB 290000Z 12010KT 15SM FEW080 21/15 A2981 RMK AC1 SLP095;EQDQ01+000000PRSWM2Q02  00002PRCP24
0223719250999992000073015004+69100-105110SY-MT+0027CYCB V0200301N007710660019N0240001N1+01281+00781101181ADDGD13991+0660099MA1101151100831MD1310061+9999MW1001REMSYN060AAXX  30154 71925 42974 60315 10128 20078 30083 40118 53006;MET060CYCB 301500Z 03015KT 15SM BKN220 13/08 A2987 RMK CI2 SLP118;EQDQ01+000062SCOTCVQ02+000000PRSWM2
0364719250999992000080418004+69100-105110SY-MT+0027CYCB V0201801N003112200019N0240001N1+01741+01171101191ADDAA124000091GD12991+0150099GD22991+0360099GD32991+0630099GF102991011051017501031011KA1120M+01741KA2240N+00821MA1101151100841MD1710081+9999MW1001REMSYN088AAXX  04184 71925 32774 21806 10174 20117 30084 40119 57008 81531 333 10174 20082 70000;MET080CYCB 041800Z 19007KT 15SM FEW050 FEW120 FEW210 17/12 A2987 RMK SC1AC1CI0 SLP119;EQDQ01+000000PRSWM2Q02  00002PRCP24
0203719250999992000080507004+69100-105110FM-15+0027CYCB V0201701N005710600019N0241401N1+01401+00901100821ADDGD12991+0150099GD22991+0360099GD33991+0600099GF107991999999999999999999MA1100811999999MW1001REMMET080CYCB 050700Z 17011KT 15SM FEW050 SCT120 BKN200 14/09 A2977 RMK SC1AC1CI0 SLP082;EQDQ01+000000PRSWM2
0214719250999992000080710004+69100-105110FM-15+0027CYCB V0200901N008710024019N0241401N1+00801+00801100281ADDGD12991+0015099GD23991+0024099GD34991+0060099GF108991999999999999999999MA1100271999999MW1001OC101131REMMET083CYCB 071000Z 09017G22KT 15SM SCT005 BKN008 OVC020 08/08 A2961 RMK CF2SC6SC1 SLP028;EQDQ01+000000PRSWM2
0214719250999992000080711004+69100-105110FM-15+0027CYCB V0200901N007710027019N0241401N1+00901+00801100261ADDGD12991+0018099GD23991+0027099GD34991+0075099GF108991999999999999999999MA1100241999999MW1001OC101031REMMET083CYCB 071100Z 09015G20KT 15SM FEW006 BKN009 OVC025 09/08 A2960 RMK CF1SC6SC1 SLP026;EQDQ01+000000PRSWM2
0153719250999992000081005004+69100-105110FM-15+0027CYCB V0201901N005112200019N0241401N1+00601+00501102301ADDGD12991+0090099GF102991999999999999999999MA1102271999999MW1001REMMET060CYCB 100500Z 19010KT 15SM FEW030 06/05 A3020 RMK SC1 SLP230;EQDQ01+000000PRSWM2
0130719250999992000081704444+69100-105110FM-16+0027CYCB V0202701N007210075019N0241401N1+99999+99999999999ADDGD14991+0075099GF108991999999999999999999MW1001MW2161REMMET046CYCB 170444Z 27014KT 15SM VCSH OVC025 RMK SC7;EQDQ01+000003PRSWM1
0386719250999992000081706004+69100-105110SY-MT+0027CYCB V0202701N00771006001CN0240001N1+00461+00221101781ADDAA106000792AA224000692AC12C9AY181061AY221061GD14991+0060099GF108991081051008001001001KA1240M+00881KA2240N+00461MA1101761101431MD1710131+9999MW1151MW2161OA132401291REMSYN122AAXX  17064 71925 11574 82715 10046 20022 30143 40178 57013 69901 71582 88500 333 10088 20046 70006 90921 555 32625 40211;MET064CYCB 170600Z 27015KT 15SM VCSH OVC020 05/02 A3005 MK SC7 SLP178;EQDQ01    003PRSWM1
0154719250999992000081820284+69100-105110FM-16+0027CYCB V0201301N002610060019N0193121N1+99999+99999999999ADDGD12991+0027099GD24991+0060099GF108991999999999999999999MW1001MW2611REMMET055CYCB 182028Z 13005KT 12SM -RA FEW009 OVC020 RMK SF2SC6;EQDQ01+000003PRSWM1
0172719250999992000082102004+69100-105110FM-15+0027CYCB V0200201N012910030019N0241401N1+00501+00401100171ADDGD14991+0030099GF108991999999999999999999MA1100141999999MW1001OC101541REMMET071CYCB 210200Z 02025G30KT 15SM OVC010 05/04 A2957 RMK SC8 CIG RGD SLP017;EQDQ01+000000PRSWM2
0138719250999992000082106354+69100-105110FM-16+0027CYCB V0200101N011810015019N0128741N1+99999+99999999999ADDGD14991+0015099GF108991999999999999999999MW1001MW2631OC101491REMMET046CYCB 210635Z 01023G29KT 8SM RA OVC005 RMK SC8;EQDQ01+000003PRSWM1
0271719250999992000083003004+69100-105110SY-MT+0027CYCB V0203601N005110048019N0240001N1+00051-00201101551ADDGD13991+0048099GD23991+0135099GF107991999999004501999999MA1101521101191MD1710071+9999MW1851REMSYN066AAXX  30034 71925 41474 73610 10005 21020 30119 40155 57007 785//;MET077CYCB 300300Z 36010KT 15SM -SHSN BKN016 BKN045 01/M02 A2998 RMK SC6SC1 SLP155;EQDQ01    003PRSWM1
0179719250999992000083108004+69100-105110FM-15+0027CYCB V0203501N007210042019N0241401N1+00101-00101101461ADDGD12991+0021099GD23991+0042099GF107991999999999999999999MA1101421999999MW1001REMMET071CYCB 310800Z 35014KT 15SM FEW007 BKN014 01/M01 A2995 RMK CF1SC4 SLP146;EQDQ01+000000PRSWM2
0258719250999992000090315004+69100-105110SY-MT+0027CYCB V0202701N008212200019N0240001N1+00501+00311102071ADDGD12991+0300099GD22991+0600099GF102991999999999999999999MA1102031101711MD1710071+9999MW1001REMSYN060AAXX  03154 71925 42974 22716 10050 20031 30171 40207 57007;MET070CYCB 031500Z 27016KT 15SM FEW100 FEW200 05/03 A3013 RMK AC1CI0 SLP207;EQDQ01+000000PRSWM2
0119719250999992000090602074+69100-105110FM-16+0027CYCB V0200401N010810015019N0160931N1+99999+99999999999ADDGD14991+0015099GF108991999999999999999999MW1001REMMET041CYCB 060207Z 04021KT 10SM OVC005 RMK ST8;EQDQ01+000000PRSWM2
0198719250999992000090719484+69100-105110FM-16+0027CYCB V0200701N001510033019N0241401N1+99999+99999999999ADDGD12991+0018099GD23991+0033099GD33991+0210099GF107991999999999999999999MW1001REMMET090CYCB 071948Z 07003KT 15SM FEW006 BKN011 BKN070 RMK CF0SC5AC0 UA OV YCB ASC 1937 SK 12 BKN;EQDQ01+000000PRSWM2
0264719250999992000090821004+69100-105110SY-MT+0027CYCB V0200701N010310027019N0032001N1+00161+00061099891ADDGD14991+0027099GF108991999999002501999999MA1099861099541MD1610031+9999MW1851REMSYN066AAXX  08214 71925 41332 80720 10016 20006 39954 49989 56003 785//;MET085CYCB 082100Z 07020G25KT 2SM -SHSN OVC009 02/01 A2949 RMK SN2SC6 VSBY VRBL 1-3 SLP989;EQDQ01    003PRSWM1
0155719250999992000090912144+69100-105110FM-16+0027CYCB V0200601N012910090019N0241401N1+99999+99999999999ADDGD12991+0018099GD23991+0090099GF107991999999999999999999MW1001OC101541REMMET054CYCB 091214Z 06025G30KT 15SM SCT006 BKN030 RMK CF3SC4;EQDQ01+000000PRSWM2
0130719250999992000091018504+69100-105110FM-16+0027CYCB V0200501N012910021019N0193121N1+99999+99999999999ADDGD14991+0021099GF108991999999999999999999MW1001OC101541REMMET044CYCB 101850Z 05025G30KT 12SM OVC007 RMK ST8;EQDQ01+000000PRSWM2
0203719250999992000091501004+69100-105110FM-15+0027CYCB V0201201N004110150019N0241401N1+00301+00201100721ADDGD12991+0018099GD23991+0150099GD33991+0420099GF107991999999999999999999MA1100711999999MW1001REMMET080CYCB 150100Z 12008KT 15SM SCT006 BKN050 BKN140 03/02 A2974 RMK SC3SC2AC2 SLP072;EQDQ01+000000PRSWM2
0155719250999992000091614004+69100-105110FM-15+0027CYCB V0200101N007210027019N0177021N1-00101-00201101261ADDGD14991+0027099GF108991999999999999999999MA1101251999999MW1001REMMET062CYCB 161400Z 01014KT 11SM OVC009 M01/M02 A2990 RMK SC8 SLP126;EQDQ01+000000PRSWM2
0180719250999992000091711004+69100-105110FM-15+0027CYCB V0209999C000012200019N0241401N1-00301-00401101661ADDGD12991+0042099GD22991+0660099GF104991999999999999999999MA1101631999999MW1001REMMET072CYCB 171100Z 00000KT 15SM FEW014 SCT220 M03/M04 A3001 RMK SC1CI1 SLP166;EQDQ01+000000PRSWM2
0153719250999992000092009314+69100-105110FM-16+0027CYCB V0203501N001510027019N0128741N1+99999+99999999999ADDGD13991+0027099GD24991+0063099GF108991999999999999999999MW1001MW2711REMMET054CYCB 200931Z 35003KT 8SM -SN BKN009 OVC021 RMK SF6SC2;EQDQ01+000003PRSWM1
0153719250999992000092210004+69100-105110FM-15+0027CYCB V0202101N005110150019N0241401N1+00201+00001101151ADDGD14991+0150099GF108991999999999999999999MA1101121999999MW1001REMMET060CYCB 221000Z 21010KT 15SM OVC050 02/00 A2986 RMK SC8 SLP115;EQDQ01+000000PRSWM2
0196719250999992000092619004+69100-105110FM-15+0027CYCB V0200201N008210048019N0160931N1-00601-00801101851ADDGD14991+0048099GF108991999999999999999999MA1101831999999MW1361MW2851REMMET081CYCB 261900Z 02016KT 10SM -SHSN DRSN OVC016 M06/M08 A3007 RMK SC8 CIG RGD SLP185;EQDQ01+000003PRSWM1Q02    003PRSWM1
0131719250999992000092702404+69100-105110FM-16+0027CYCB V0200301N003610039019N0241401N1+99999+99999999999ADDGD14991+0039099GF108991999999999999999999MW1001MW2851REMMET047CYCB 270240Z 03007KT 15SM -SHSN OVC013 RMK SC8;EQDQ01+000003PRSWM1
0155719250999992000092801004+69100-105110FM-15+0027CYCB V0200301N005110033019N0241401N1-00701-00801101981ADDGD14991+0033099GF108991999999999999999999MA1101961999999MW1001REMMET062CYCB 280100Z 03010KT 15SM OVC011 M07/M08 A3011 RMK SC8 SLP198;EQDQ01+000000PRSWM2
0177719250999992000092805004+69100-105110FM-15+0027CYCB V0200101N003110033019N0160931N1-00901-01001102021ADDGD14991+0033099GF108991999999999999999999MA1102001999999MW1851REMMET068CYCB 280500Z 01006KT 10SM -SHSN OVC011 M09/M10 A3012 RMK SC8 SLP202;EQDQ01+000003PRSWM1Q02    003PRSWM1
0139719250999992000092910004+69100-105110FM-15+0027CYCB V0203301N003612200019N0241401N1-01201-01301101861ADDGF100991999999999999999999MA1101831999999MW1001REMMET061CYCB 291000Z 33007KT 15SM SKC M12/M13 A3007 RMK FROIN SLP186;EQDQ01+000000PRSWM2
0174719250999992000100202004+69100-105110FM-15+0027CYCB V0200901N010310012019N0241401N1-00701-00701101431ADDGD13991+0012099GF107991999999999999999999MA1101391999999MW1001OC101291REMMET073CYCB 020200Z 09020G25KT 15SM BKN004 M07/M07 A2994 RMK SC5 CIG 3-5 SLP143;EQDQ01+000000PRSWM2
0192719250999992000100205004+69100-105110FM-15+0027CYCB V0200901N010310009019N0160931N1-00601-00701101511ADDGD14991+0009099GF108991999999999999999999MA1101491999999MW1001OC101291REMMET091CYCB 020500Z 09020G25KT 10SM OVC003 M06/M07 A2997 RMK SC8 CIG 2-4. BEAM VSBL 800 FT SLP151;EQDQ01+000000PRSWM2
0138719250999992000100220454+69100-105110FM-16+0027CYCB V0201001N002610018019N0160931N1+99999+99999999999ADDGD14991+0018099GF108991999999999999999999MW1001MW2161REMMET054CYCB 022045Z 10005KT 10SM VCSH OVC006 RMK SC8 CIG RGD;EQDQ01+000003PRSWM1
0163719250999992000100302004+69100-105110FM-15+0027CYCB V0200701N002610027019N0241401N1-00501-00701101961ADDGD14991+0027099GF108991999999999999999999MA1101931999999MW1001REMMET070CYCB 030200Z 07005KT 15SM OVC009 M05/M07 A3010 RMK SC8 CIG RGD SLP196;EQDQ01+000000PRSWM2
0161719250999992000101108004+69100-105110FM-15+0027CYCB V0203201N006212200019N0241401N1-01601-01701102181ADDGD12991+0036099GF102991999999999999999999MA1102131999999MW1001REMMET068CYCB 110800Z 32012KT 15SM FEW012 M16/M17 A3016 RMK SC1 FROIN SLP218;EQDQ01+000000PRSWM2
0211719250999992000101222234+69100-105110FM-16+0027CYCB V0200401N005710048019N0160931N1+99999+99999999999ADDGD13991+0048099GD23991+0300099GD33991+0660099GF107991999999999999999999MW1001MW2711OC100821REMMET073CYCB 122223Z 04011G16KT 10SM -SN DRSN BKN016 BKN100 BKN220 RMK SC3AC1CI1;EQDQ01+000360PRSWM3Q02+000003PRSWM1
0278719250999992000101409004+69100-105110SY-MT+0027CYCB V0202501N001510015019N0160001N1-01011-01141102301ADDGD14991+0015099GF108991999999001501999999MA1102271101931MD1810121+9999MW1711REMSYN066AAXX  14094 71925 41266 82503 11101 21114 30193 40230 58012 771//;MET099CYCB 140900Z 25003KT 10SM -SN OVC005 M10/M11 A3020 RMK SF7 CIG 4-6. BEAM VSBL 900 FT. FROIN SLP230;EQDQ01    003PRSWM1
0201719250999992000101605004+69100-105110FM-15+0027CYCB V0200401N002610024019N0016091N1-01201-01401100501ADDGD14991+0024099GF108991999999999999999999MA1100471999999MW1101REMMET092CYCB 160500Z 04005KT 1SM BR OVC008 M12/M14 A2967 RMK FG1ST7 VSBY VRBL 1/2-11/2 FROIN SLP050;EQDQ01+000003PRSWM1Q02    003PRSWM1
0144719250999992000102213144+69100-105110FM-16+0027CYCB V0200301N006710480019N0193121N1+99999+99999999999ADDGD12991+0012099GD23991+0480099GF107991999999999999999999MW1001REMMET051CYCB 221314Z 03013KT 12SM SCT004 BKN160 RMK SC3AC2;EQDQ01+000000PRSWM2
0205719250999992000102422004+69100-105110FM-15+0027CYCB V0202901N002610060019N0193121N1-01401-01701102211ADDGD12991+0009099GD23991+0060099GF107991999999999999999999MA1102171999999MW1851REMMET081CYCB 242200Z CCA29005KT 12SM -SHSN FEW003 BKN020 M14/M17 A3017 RMK SF1SC6 SLP221;EQDQ01+000003PRSWM1Q02    003PRSWM1
0208719250999992000102614004+69100-105110FM-15+0027CYCB V0201901N005710270019N0241401N1-01801-02001102051ADDGD12991+0060099GD23991+0270099GF107991999999999999999999MA1102001999999MW1161REMMET084CYCB 261400Z 19011KT 15SM VCSH SCT020 BKN090 M18/M20 A3012 RMK SF2AC2 FROIN. SLP205;EQDQ01+000003PRSWM1Q02    003PRSWM1
0132719250999992000103006304+69100-105110FM-16+0027CYCB V0200901N007710030019N0040231N1+99999+99999999999ADDGD14991+0030099GF108991999999999999999999MW1001MW2711REMMET048CYCB 300630Z 09015KT 2 1/2SM -SN OVC010 RMK SC8;EQDQ01+000003PRSWM1
0234719250999992000103017004+69100-105110FM-15+0027CYCB V0200801N009310150019N0032181N1-01201-01401101731ADDGD14991+0150099GF108991999999999999999999MA1101691999999MW1361MW2711OC101181REMMET111CYCB 301700Z 08018G23KT 2SM -SN DRSN OVC050 M12/M14 A3003 RMK SN1SC7 VSBY VRBL 1-3. OCNL BLSN. CIG DFUS SLP173;EQDQ01+000003PRSWM1Q02    003PRSWM1
0231719250999992000103102004+69100-105110FM-15+0027CYCB V0200201N008210105019N0064371N1-01601-01801101411ADDGD12991+0045099GD23991+0105099GF107991999999999999999999MA1101351999999MW1361MW2711OC101131REMMET093CYCB 310200Z 02016G22KT 4SM -SN DRSN FEW015 BKN035 M16/M18 A2993 RMK SC1SC2 OCNL BLSN SLP141;EQDQ01+000003PRSWM1Q02    003PRSWM1
0141719250999992000110407204+69100-105110FM-16+0027CYCB V0200101N005112200019N0160931N1+99999+99999999999ADDGD12991+0120099GF104991999999999999999999MW1001MW2361OC100771REMMET049CYCB 040720Z 01010G15KT 10SM DRSN SCT040 RMK SC2;EQDQ01+000003PRSWM1
0155719250999992000111202004+69100-105110FM-15+0027CYCB V0201701N005112200019N0241401N1-02801-03301100851ADDGD12991+0360099GF102991999999999999999999MA1100811999999MW1001REMMET062CYCB 120200Z 17010KT 15SM FEW120 M28/M33 A2977 RMK AS1 SLP085;EQDQ01+000000PRSWM2
0201719250999992000111523004+69100-105110FM-15+0027CYCB V0201001N007210540019N0193121N1-02401-03001101771ADDGD12991+0270099GD23991+0540099GF107991999999999999999999MA1101731999999MW1361REMMET077CYCB 152300Z 10014KT 12SM DRSN SCT090 BKN180 M24/M30 A3004 RMK AC2CI1 SLP177;EQDQ01+000003PRSWM1Q02    003PRSWM1
0295719250999992000111703004+69100-105110SY-MT+0027CYCB V0200601N007712200019N0032001N1-02371-02931102071ADDGD12991+0060099GD22991+0300099GF103991999999008001999999MA1102031101691MD1210101+9999MW1761REMSYN066AAXX  17034 71925 41532 30615 11237 21293 30169 40207 52010 776//;MET101CYCB 170300Z 06015KT 2SM IC DRSN FEW020 SCT100 M24/M29 A3013 RMK SC1AC1 VSBY VRBL 11/2 - 21/2 SLP207;EQDQ01    003PRSWM1
0155719250999992000111913004+69100-105110FM-15+0027CYCB V0202801N002610075019N0193121N1-01501-02001101831ADDGD14991+0075099GF108991999999999999999999MA1101801999999MW1001REMMET062CYCB 191300Z 28005KT 12SM OVC025 M15/M20 A3006 RMK SC7 SLP183;EQDQ01+000000PRSWM2
0249719250999992000112221004+69100-105110SY-MT+0027CYCB V0201601N005110090019N0048001N1-01611-02001100311ADDGD14991+0090099GF108991999999008001999999MA1100271099941MD1710151+9999MW1711REMSYN066AAXX  22214 71925 41548 81610 11161 21200 39994 40031 57015 771//;MET070CYCB 222100Z 16010KT 3SM -SN DRSN OVC030 M16/M20 A2961 RMK SC8 SLP031;EQDQ01    003PRSWM1
0307719250999992000112421004+69100-105110SY-MT+0027CYCB V0200501N008712200019N0160001N1-02541-03111100531ADDGD12991+0045099GD22991+0135099GD32991+0270099GF103991999999004501999999MA1100471100161MD1510021+9999MW1361OC101131REMSYN066AAXX  24214 71925 41466 30517 11254 21311 30016 40053 55002 736//;MET090CYCB 242100Z 05017G22KT 10SM DRSN FEW015 FEW045 SCT090 M25/M31 A2967 RMK CF1SC2AC0 SLP053;EQDQ01    003PRSWM1
0221719250999992000112602004+69100-105110FM-15+0027CYCB V0200301N005112200019N0193121N1-02601-03201100651ADDGD12991+0060099GD22991+0120099GF104991999999999999999999MA1100611999999MW1361MW2761OC100771REMMET083CYCB 260200Z 03010G15KT 12SM IC DRSN FEW020 SCT040 M26/M32 A2971 RMK SC2SC2 SLP065;EQDQ01+000003PRSWM1Q02    003PRSWM1
0377719250999992000112718004+69100-105110SY-MT+0027CYCB V0200901N003110075019N0090001N1-02161-02751101611ADDAA106000191AA224000291AJ100229199999999AY171061AY271061GD14991+0075099GF108991081051008001999999IA1289KA1120M-01881KA2240N-02431MA1101561101241MD1310101+9999MW1711REMSYN112AAXX  27184 71925 11559 80906 11216 21275 30124 40161 53010 69921 77177 885// 333 11188 21243 44022 70002 90983;MET065CYCB 271800Z 09006KT 6SM -SN OVC025 M22/M27 A2999 RMK SC8 SLP161;EQDQ01    003PRSWM1
0171719250999992000120214454+69100-105110FM-16+0027CYCB V0200401N007212200019N0048281N1+99999+99999999999ADDGD12991+0360099GF102991999999999999999999MW1001MW2361MW3761OC100981REMMET073CYCB 021445Z 04014G19KT 3SM IC DRSN FEW120 RMK AC1 VSBY E 2 LEE TOWNSITE;EQDQ01+000003PRSWM1
0247719250999992000120401004+69100-105110FM-15+0027CYCB V0203201N008712200019N0160931N1-03501-04101102441ADDGD12991+0036099GD22991+0210099GD32991+0660099GF104991999999999999999999MA1102371999999MW1361MW2761REMMET102CYCB 040100Z 32017KT 10SM IC DRSN FEW012 FEW075 SCT220 M35/M41 A3023 RMK SC1AC1CI0 FROIN SC TR SLP244;EQDQ01+000003PRSWM1Q02    003PRSWM1
0316719250999992000121200004+69100-105110SY-MT+0027CYCB V0200101N008712200019N0160001N1-03081-03701102921ADDAA124000791AY101061AY201061GF100991001001999999001001KA1120M-02721KA2180N-03151MA1102881102531MD1010011+9999MW1361OC101131REMSYN088AAXX  12004 71925 31966 00117 11308 21370 30253 40292 50001 73600 333 11272 21315 79999;MET069CYCB 120000Z 01017G22KT 10SM DRSN SKC M31/M37 A3038 RMK FROIN SLP292;EQDQ01    003PRSWM1
0306719250999992000121800004+69100-105110SY-MT+0027CYCB V0202601N004112200019N0240001N1-02941-03521101971ADDAA124000791GD12991+0045099GF102991021051004501001001KA1120M-02441KA2180N-02991MA1101931101591MD1210131+9999MW1001REMSYN088AAXX  18004 71925 32474 22608 11294 21352 30159 40197 52013 82500 333 11244 21299 79999;MET068CYCB 180000Z 25009KT 15SM FEW015 M29/M35 A3010 RMK SC1 FROIN SLP197;EQDQ01+000000PRSWM2
0182719250999992000122307004+69100-105110FM-15+0027CYCB V0201401N007712200019N0032181N1-03101-03701102701ADDGF100991999999999999999999MA1102641999999MW1101MW2361REMMET082CYCB 230700Z 14015KT 2SM DRSN BR SKC M31/M37 A3031 RMK FG1 VSBY VRBL 1 - 3 SLP270;EQDQ01+000003PRSWM1Q02    003PRSWM1
0204719250999992000122800004+69100-105110SY-MT+0027CYCB V0200901N004110300019N0012001N1-03071-03641103121ADDAA106000791AJ100259199999999AY171061AY271061GD12991+0105099GD23991+0300099GD34991+0600099GF108991021051012501031011IA1289KA1999M-02991KA2999N-03461MA1103051102731MD1610151+9999MW1761EQDQ01    003PRSWM1
0260719250999992000123009004+69100-105110SY-MT+0027CYCB V0201501N005110120019N0048001N1-02241-02781102291ADDGD14991+0120099GF108991999999012501999999MA1102241101911MD1810361+9999MW1711OC100771REMSYN066AAXX  30094 71925 41648 81510 11224 21278 30191 40229 58036 771//;MET073CYCB 300900Z 15010G15KT 3SM -SN DRSN OVC040 M22/M28 A3019 RMK SC8 SLP229;EQDQ01    003PRSWM1
0190719260999992000010203004+64300-096080FM-15+0018CYBK V0202901N012910001519N0002011N1-02101-02501098651ADDGD15991+0001599GF109991999999000251999999MA1098611999999MW1391OC101541REMMET073CYBK 020300Z 29025G30KT 1/8SM +BLSN VV000 M21/M25 A2912 RMK BLSN8 SLP865;EQDQ01+000003PRSWM1Q02    003PRSWM1
0163719260999992000010217424+64300-096080FM-16+0018CYBK V0203201N008712200019N0024141N1+99999+99999999999ADDGD12991+0045099GD22991+0090099GF102991999999999999999999MW1001MW2381REMMET064CYBK 021742Z 32017KT 1 1/2SM BLSN FEW015 FEW030 RMK BLSN1SC1SC1;EQDQ01+000003PRSWM1
0175719260999992000011408004+64300-096080FM-15+0018CYBK V0203001N012912200019N0096561N1-03201-03701101951ADDGD12991+0120099GF102991999999999999999999MA1101931999999MW1381REMMET066CYBK 140800Z 30025KT 6SM BLSN FEW040 M32/M37 A3010 RMK SC2 SLP195;EQDQ01+000003PRSWM1Q02    003PRSWM1
0189719260999992000012012004+64300-096080SY-MT+0018CYBK V0203501N004112200019N0032001N1-03421-03971101871ADDAA106000791AJ100359199999999AY171061AY271061GD12991+0090099GD22991+0600099GF103991021051008001001011IA1289KA1999M-03151KA2999N-03431MA1101831101611MD1110111+9999MW1761EQDQ01    003PRSWM1
0177719260999992000012610004+64300-096080FM-15+0018CYBK V0201001N005710075019N0040231N1-03201-03701102451ADDGD13991+0075099GF107991999999999999999999MA1102401999999MW1761REMMET068CYBK 261000Z 10011KT 2 1/2SM IC BKN025 M32/M37 A3024 RMK SC6 SLP245;EQDQ01+000003PRSWM1Q02    003PRSWM1
0174719260999992000013003004+64300-096080FM-15+0018CYBK V0201201N004110021019N0096561N1-01701-01901100571ADDGD14991+0021099GF108991999999999999999999MA1100541999999MW1711REMMET065CYBK 300300Z 12008KT 6SM -SN OVC007 M17/M19 A2969 RMK ST8 SLP057;EQDQ01+000003PRSWM1Q02    003PRSWM1
0174719260999992000013005004+64300-096080FM-15+0018CYBK V0200801N006210012019N0080461N1-01701-01901100471ADDGD14991+0012099GF108991999999999999999999MA1100441999999MW1711REMMET065CYBK 300500Z 08012KT 5SM -SN OVC004 M17/M19 A2966 RMK ST8 SLP047;EQDQ01+000003PRSWM1Q02    003PRSWM1
0129719260999992000013019374+64300-096080FM-16+0018CYBK V0203301N006710030019N0160931N1+99999+99999999999ADDGD14991+0030099GF108991999999999999999999MW1001MW2711REMMET045CYBK 301937Z 33013KT 10SM -SN OVC010 RMK SC8;EQDQ01+000003PRSWM1
0136719260999992000020516134+64300-096080FM-16+0018CYBK V0203401N009312200019N0012071N1+99999+99999999999ADDGD12991+0240099GF102991999999999999999999MW1001MW2381REMMET052CYBK 051613Z 34018KT 3/4SM BLSN FEW080 RMK BLSN2AC1;EQDQ01+000003PRSWM1
0179719260999992000020611004+64300-096080FM-15+0018CYBK V0203201N015412200019N0016091N1-03401-03901101371ADDGF100991999999999999999999MA1101321999999MW1381MW2761OC101851REMMET071CYBK 061100Z 32030G36KT 1SM IC BLSN SKC M34/M39 A2992 RMK BLSN2 SLP137;EQDQ01+000003PRSWM1Q02    003PRSWM1
0124719260999992000021206204+64300-096080FM-16+0018CYBK V0203101N007712200019N0040231N1+99999+99999999999ADDGF100991999999999999999999MW1001MW2381MW3761REMMET049CYBK 120620Z 31015KT 2 1/2SM IC BLSN SKC RMK IC2;EQDQ01+000003PRSWM1
0242719260999992000021216004+64300-096080FM-15+0018CYBK V0203001N013912200019N0004021N1-03401-03901101291ADDGD12991+0180099GD22991+0210099GD32991+0600099GF104991999999999999999999MA1101251999999MW1391MW2761REMMET097CYBK 121600Z 30027KT 1/4SM IC +BLSN FEW060 FEW070 SCT200 M34/M39 A2990 RMK BLSN1SC2CC1CI1 SLP129;EQDQ01+000003PRSWM1Q02    003PRSWM1
0185719260999992000021602004+64300-096080FM-15+0018CYBK V0203301N012312200019N0012071N1-03601-04101101861ADDGF100991999999999999999999MA1101831999999MW1381OC101651REMMET083CYBK 160200Z 33024G32KT 3/4SM BLSN SKC M36/M41 A3007 RMK BLSN1 ROOF VSBY 10 SLP186;EQDQ01+000003PRSWM1Q02    003PRSWM1
0147719260999992000021911304+64300-096080FM-16+0018CYBK V0203101N012912200019N0024141N1+99999+99999999999ADDGD12991+0060099GF104991999999999999999999MW1001MW2381MW3761REMMET057CYBK 191130Z 31025KT 1 1/2SM IC BLSN SCT020 RMK BLSN1SF2;EQDQ01+000003PRSWM1
0159719260999992000030218204+64300-096080FM-16+0018CYBK V0201101N008210210019N0096561N1+99999+99999999999ADDGD14991+0210099GF108991999999999999999999MW1001MW2711REMMET059CYBK 021820Z 11016KT 6SM -SN DRSN OVC070 RMK AS8 VSBY NE 2;EQDQ01+000360PRSWM3Q02+000003PRSWM1
0155719260999992000030401004+64300-096080FM-15+0018CYBK V0203401N003112200019N0160931N1-02201-02701100481ADDGD12991+0045099GF104991999999999999999999MA1100441999999MW1001REMMET062CYBK 040100Z 34006KT 10SM SCT015 M22/M27 A2966 RMK SC4 SLP048;EQDQ01+000000PRSWM2
0181719260999992000030710004+64300-096080FM-15+0018CYBK V0203301N012912200019N0080461N1-03001-03501102141ADDGD12991+0060099GF104991999999999999999999MA1102101999999MW1381REMMET072CYBK 071000Z 33025KT 5SM BLSN SCT020 M30/M35 A3015 RMK SC3 AURBO SLP214;EQDQ01+000003PRSWM1Q02    003PRSWM1
0154719260999992000031115144+64300-096080FM-16+0018CYBK V0203101N011310075019N0016091N1+99999+99999999999ADDGD13991+0075099GF107991999999999999999999MW1001MW2381MW3761OC101541REMMET056CYBK 111514Z 31022G30KT 1SM IC BLSN BKN025 RMK BLSN2SC5;EQDQ01+000003PRSWM1
0209719260999992000031213004+64300-096080FM-15+0018CYBK V0203101N008710210019N0128741N1-02901-03401100541ADDGD12991+0075099GD23991+0210099GF107991999999999999999999MA1100511999999MW1361MW2761REMMET079CYBK 121300Z 31017KT 8SM IC DRSN FEW025 BKN075 M29/M34 A2968 RMK SC2AC2 SLP054;EQDQ01+000003PRSWM1Q02    003PRSWM1
0205719260999992000031820004+64300-096080FM-15+0018CYBK V0200901N005110600019N0321861N1-02501-03001101141ADDGD12991+0090099GD22991+0270099GD33991+0600099GF107991999999999999999999MA1101121999999MW1001REMMET082CYBK 182000Z 09010KT 20SM FEW030 SCT090 BKN200 M25/M30 A2986 RMK SC1AS3CS2 SLP114;EQDQ01+000000PRSWM2
0149719260999992000032111404+64300-096080FM-16+0018CYBK V0203201N010810105019N0064371N1+99999+99999999999ADDGD13991+0105099GF107991999999999999999999MW1001MW2711REMMET049CYBK 211140Z 32021KT 4SM -SN DRSN BKN035 RMK SC6;EQDQ01+000360PRSWM3Q02+000003PRSWM1
0237719260999992000032214004+64300-096080FM-15+0018CYBK V0203301N007210240019N0160931N1-02001-02301100861ADDGD12991+0120099GD23991+0240099GD33991+0600099GF107991999999999999999999MA1100851999999MW1381MW2761REMMET092CYBK 221400Z 33014KT 10SM IC VCBLSN SCT040 BKN080 BKN200 M20/M23 A2978 RMK SC2AC0CI0 SLP086;EQDQ01+000003PRSWM1Q02    003PRSWM1
0155719260999992000032709004+64300-096080FM-15+0018CYBK V0200401N004112200019N0241401N1-01701-01901101931ADDGD12991+0075099GF102991999999999999999999MA1101901999999MW1001REMMET062CYBK 270900Z 04008KT 15SM FEW025 M17/M19 A3009 RMK SC2 SLP193;EQDQ01+000000PRSWM2
0350719260999992000033018004+64300-096080SY-MT+0018CYBK V0200701N00051060001CN0300001N1-00951-01181102111ADDAA124000791GD12991+0027099GD22991+0060099GD33991+0600099GF107991031051002501001041KA1120M-00301KA2240N-01421MA1102101101871MD1110051+9999MW1001REMSYN088AAXX  30184 71926 32380 70701 11095 21118 30187 40211 51005 83504 333 11030 21142 79999;MET082CYBK 301800Z 07001KT 20SM FEW009 SCT020 BKN200 M09/M12 A3015 RMK ST1SC2CI2 SLP211;EQDQ01+000000PRSWM2
0155719260999992000040419004+64300-096080FM-15+0018CYBK V0201201N001510240019N0321861N1-02101-02501101041ADDGD13991+0240099GF107991999999999999999999MA1101021999999MW1001REMMET062CYBK 041900Z 12003KT 20SM BKN080 M21/M25 A2983 RMK AS6 SLP104;EQDQ01+000000PRSWM2
0189719260999992000040423004+64300-096080FM-15+0018CYBK V0201201N006710240019N0040231N1-01801-02201100651ADDGD14991+0240099GF108991999999999999999999MA1100611999999MW1361MW2711REMMET074CYBK 042300Z 12013KT 2 1/2SM -SN DRSN OVC080 M18/M22 A2971 RMK AS8 SLP065;EQDQ01+000003PRSWM1Q02    003PRSWM1
0185719260999992000040501004+64300-096080FM-15+0018CYBK V0201201N009810240019N0048281N1-01701-02001100401ADDGD14991+0240099GF108991999999999999999999MA1100371999999MW1381MW2711REMMET070CYBK 050100Z 12019KT 3SM -SN BLSN OVC080 M17/M20 A2964 RMK AS8 SLP040;EQDQ01+000003PRSWM1Q02    003PRSWM1
0205719260999992000040603004+64300-096080FM-15+0018CYBK V0203301N011312200019N0048281N1-02601-03101100761ADDGD12991+0060099GD22991+0240099GF104991999999999999999999MA1100751999999MW1381REMMET081CYBK 060300Z 33022KT 3SM BLSN FEW020 SCT080 M26/M31 A2975 RMK BLSN2SC1AC2 SLP076;EQDQ01+000003PRSWM1Q02    003PRSWM1
0184719260999992000040617004+64300-096080FM-15+0018CYBK V0203101N010812200019N0080461N1-02701-03201101041ADDGD12991+0060099GF104991999999999999999999MA1101021999999MW1381MW2761REMMET069CYBK 061700Z 31021KT 5SM IC BLSN SCT020 M27/M32 A2983 RMK SC2 SLP104;EQDQ01+000003PRSWM1Q02    003PRSWM1
0174719260999992000041410004+64300-096080FM-15+0018CYBK V0203501N005112200019N0321861N1-03201-03601102641ADDGD12991+0090099GF104991999999999999999999MA1102611999999MW1761REMMET065CYBK 141000Z 35010KT 20SM IC SCT030 M32/M36 A3030 RMK SC3 SLP264;EQDQ01+000003PRSWM1Q02    003PRSWM1
0161719260999992000042005004+64300-096080FM-15+0018CYBK V0201101N000512200019N0321861N1-02301-02601102381ADDGD12991+0240099GF102991999999999999999999MA1102341999999MW1001REMMET068CYBK 200500Z 11001KT 20SM FEW080 M23/M26 A3022 RMK AS1 AURBO SLP238;EQDQ01+000000PRSWM2
0189719260999992000042015004+64300-096080FM-15+0018CYBK V0201001N006710036019N0024141N1-01901-02201101961ADDGD14991+0036099GF108991999999999999999999MA1101931999999MW1361MW2711REMMET074CYBK 201500Z 10013KT 1 1/2SM -SN DRSN OVC012 M19/M22 A3010 RMK SC8 SLP196;EQDQ01+000003PRSWM1Q02    003PRSWM1
0176719260999992000042414004+64300-096080FM-15+0018CYBK V0203201N00101000151CN0004021N1-00101-00201100621ADDGD15991+0001599GF109991999999000251999999MA1100611999999MW1491REMMET067CYBK 241400Z 32002KT 1/4SM FZFG VV002 M01/M02 A2971 RMK FG8 SLP062;EQDQ01+000003PRSWM1Q02    003PRSWM1
0133719260999992000042913004+64300-096080FM-15+0018CYBK V0203101N007712200019N0321861N1-01601-01801102641ADDGF100991999999999999999999MA1102611999999MW1001REMMET055CYBK 291300Z 31015KT 20SM SKC M16/M18 A3030 RMK SLP264;EQDQ01+000000PRSWM2
0128719260999992000050306414+64300-096080FM-16+0018CYBK V0200901N007710012019N0080461N1+99999+99999999999ADDGD14991+0012099GF108991999999999999999999MW1001MW2711REMMET044CYBK 030641Z 09015KT 5SM -SN OVC004 RMK ST8;EQDQ01+000003PRSWM1
0133719260999992000050719004+64300-096080FM-15+0018CYBK V0202101N001012200019N0321861N1-00601-00901102381ADDGF100991999999999999999999MA1102371999999MW1001REMMET055CYBK 071900Z 21002KT 20SM SKC M06/M09 A3023 RMK SLP238;EQDQ01+000000PRSWM2
0197719260999992000051123004+64300-096080FM-15+0018CYBK V0201701N003610033019N0321861N1-00201-00401102811ADDGD14991+0033099GF108991999999999999999999MA1102781999999MW1401MW2711REMMET082CYBK 112300Z 17007KT 20SM -SN VCFG OVC011 M02/M04 A3035 RMK SC8 VSBY N-E 2 SLP281;EQDQ01+000003PRSWM1Q02    003PRSWM1
0155719260999992000051211004+64300-096080FM-15+0018CYBK V0201701N004110033019N0321861N1-00301-00501102851ADDGD14991+0033099GF108991999999999999999999MA1102811999999MW1001REMMET062CYBK 121100Z 17008KT 20SM OVC011 M03/M05 A3036 RMK ST8 SLP285;EQDQ01+000000PRSWM2
0155719260999992000051723004+64300-096080FM-15+0018CYBK V0202601N003112200019N0321861N1-00701-01001101821ADDGD12991+0066099GF102991999999999999999999MA1101801999999MW1001REMMET062CYBK 172300Z 26006KT 20SM FEW022 M07/M10 A3006 RMK SC1 SLP182;EQDQ01+000000PRSWM2
0119719260999992000052021184+64300-096080FM-16+0018CYBK V0201901N007210045019N0321861N1+99999+99999999999ADDGD14991+0045099GF108991999999999999999999MW1001REMMET041CYBK 202118Z 19014KT 20SM OVC015 RMK SC8;EQDQ01+000000PRSWM2
0155719260999992000052317004+64300-096080FM-15+0018CYBK V0201201N003610018019N0321861N1-00401-00601101051ADDGD14991+0018099GF108991999999999999999999MA1101051999999MW1001REMMET062CYBK 231700Z 12007KT 20SM OVC006 M04/M06 A2984 RMK ST8 SLP105;EQDQ01+000000PRSWM2
0180719260999992000052601004+64300-096080FM-15+0018CYBK V0202801N001512200019N0321861N1-00501-00901102031ADDGD12991+0300099GD22991+0600099GF102991999999999999999999MA1102001999999MW1001REMMET072CYBK 260100Z 28003KT 20SM FEW100 FEW200 M05/M09 A3012 RMK AC1CI0 SLP203;EQDQ01+000000PRSWM2
0149719260999992000052920314+64300-096080FM-16+0018CYBK V0200301N005710015019N0128741N1+99999+99999999999ADDGD14991+0015099GF108991999999999999999999MW1001MW2511REMMET049CYBK 292031Z 03011KT 8SM -DZ VCFG OVC005 RMK ST8;EQDQ01+000400PRSWM3Q02+000003PRSWM1
0183719260999992000060316004+64300-096080FM-15+0018CYBK V0202001N008210045019N0321861N1-00101-00401101861ADDGD14991+0045099GF108991999999999999999999MA1101831999999MW1611MW2791REMMET068CYBK 031600Z 20016KT 20SM -RAPL OVC015 M01/M04 A3007 RMK SC7 SLP186;EQDQ01+000003PRSWM1Q02    003PRSWM1
0178719260999992000060322004+64300-096080FM-15+0018CYBK V0202601N003610045019N0321861N1+00201+00101101551ADDGD12991+0024099GD24991+0045099GF108991999999999999999999MA1101521999999MW1001REMMET070CYBK 032200Z 26007KT 20SM FEW008 OVC015 02/01 A2998 RMK SC2SC6 SLP155;EQDQ01+000000PRSWM2
0158719260999992000061708004+64300-096800FM-15+0018CYBK V0203101N005112200019N0321861N1+00001-00201100651ADDGD12991+0060099GF102991999999999999999999MA1100641999999MW1001REMMET065CYBK 170800Z CCB31010KT 20SM FEW020 M00/M02 A2972 RMK SC1 SLP065;EQDQ01+000000PRSWM2
0403719260999992000061912004+64300-096800SY-MT+0018CYBK V0209999C000012200019N0300001N1+00441-00011100711ADDAA199000091AJ100089199999999GD12991+0210099GD22991+0600099GF102991011001022501071011GJ111289IA1259KA1999M+00981KA2120N+00031MA1100681100481MD1110061+9999MW1001REMSYN100AAXX  19124 71926 32880 20000 10044 21001 30048 40071 51006 81071 333 10098 20003 41008 55188 00188;MET091CYBK 191200Z 00000KT 20SM FEW075 FEW200 04/M00 A2973 RMK AC1CI0 SNW CVR/MEDIUM PACK SLP071;EQDQ01+000000PRSWM2Q02  00002PRCP99
0178719260999992000070203004+64300-096800FM-15+0018CYBK V0203601N001010060019N0321861N1+01101+00601101731ADDGD12991+0045099GD23991+0060099GF107991999999999999999999MA1101731999999MW1001REMMET070CYBK 020300Z 36002KT 20SM FEW015 BKN020 11/06 A3004 RMK CF0SC7 SLP173;EQDQ01+000000PRSWM2
0178719260999992000070422004+64300-096800FM-15+0018CYBK V0209999C000012200019N0321861N1+01501+00701102271ADDGD12991+0060099GD22991+0660099GF102991999999999999999999MA1102271999999MW1001REMMET070CYBK 042200Z 00000KT 20SM FEW020 FEW220 15/07 A3020 RMK SC1CI0 SLP227;EQDQ01+000000PRSWM2
0153719260999992000070615004+64300-096800FM-15+0018CYBK V0201301N002612200019N0321861N1+00801+00501102011ADDGD12991+0240099GF102991999999999999999999MA1102001999999MW1001REMMET060CYBK 061500Z 13005KT 20SM FEW080 08/05 A3012 RMK AC1 SLP201;EQDQ01+000000PRSWM2
0202719260999992000071302294+64300-096800FM-16+0018CYBK V0203601N010310135019N0321861N1+99999+99999999999ADDGD12991+0105099GD23991+0135099GD33991+0240099GD43991+0600099GF107991999999999999999999MW1001REMMET079CYBK 130229Z CCA36020KT 20SM FEW035 BKN045 BKN085 BKN200 RMK SC2SC2AC1CC1 VCSH;EQDQ01+000000PRSWM2
0203719260999992000071714004+64300-096800FM-15+0018CYBK V0203201N001512200019N0321861N1+01101+00401102351ADDGD12991+0060099GD22991+0090099GD32991+0750099GF102991999999999999999999MA1102341999999MW1001REMMET080CYBK 171400Z 32003KT 20SM FEW020 FEW030 FEW250 11/04 A3022 RMK CU1SC0CI1 SLP235;EQDQ01+000000PRSWM2
0178719260999992000071810004+64300-096070FM-15+0018CYBK V0209999C000010630019N0321861N1+00401+00301102051ADDGD12991+0240099GD23991+0630099GF107991999999999999999999MA1102031999999MW1001REMMET070CYBK 181000Z 00000KT 20SM SCT080 BKN210 04/03 A3013 RMK AC2CI2 SLP205;EQDQ01+000000PRSWM2
0203719260999992000071820004+64300-096070FM-15+0018CYBK V0201201N001012200019N0321861N1+01301+00701101931ADDGD12991+0090099GD22991+0120099GD32991+0750099GF104991999999999999999999MA1101931999999MW1001REMMET080CYBK 182000Z 12002KT 20SM FEW030 FEW040 SCT250 13/07 A3010 RMK CF1CF1CI2 SLP193;EQDQ01+000000PRSWM2
0390719260999992000072312004+64300-096070SY-MT+0018CYBK V0201501N002612200019N0008001N1+01061+01001100701ADDAA124000091AY111061AY211061GD13991+0660099GF199999001001999999001091GJ108769KA1999M+02321KA2120N+00861MA1100681100481MD1210091+9999MW1441MW2461REMSYN100AAXX  23124 71926 31908 21505 10106 20100 30048 40070 52009 74611 80009 333 10232 20086 55146 70000;MET078CYBK 231200Z 15005KT 1/2SM FG BKN220 11/10 A2973 RMK FG4CC1 VSBY NW 15 SLP070;EQDQ01+000022SCOTCVQ02  00002PRCP24Q03    003PRSWM1
0178719260999992000072608004+64300-096070FM-15+0018CYBK V0209999C000012200019N0241401N1+00901+00901101491ADDGD12991+0090099GD22991+0660099GF102991999999999999999999MA1101491999999MW1001REMMET070CYBK 260800Z 00000KT 15SM FEW030 FEW220 09/09 A2997 RMK SC1CI0 SLP149;EQDQ01+000000PRSWM2
0229719260999992000072817244+64300-096070FM-16+0018CYBK V0201001N004110045019N0160931N1+99999+99999999999ADDGD12991+0027099GD23991+0045099GD33991+0300099GF107991999999999999999999MW1001MW2511REMMET099CYBK 281724Z 10008KT 10SM -DZ VCFG FEW009 BKN015 BKN100 / RMK ST1SC4AC1 F BANK SW NW 4 FT VSBY W 1;EQDQ01+000400PRSWM3Q02+000003PRSWM1
0232719260999992000080801004+64300-096070FM-15+0018CYBK V0203101N005110210019N0241401N1+01901+01701100541ADDGA1999+013509029GD12991+0135099GD23991+0210099GD33991+0690099GF107991999999999999999999MA1100541999999MW1001REMMET093CYBK 080100Z 31010KT 15SM FEW045TCU BKN070 BKN230 19/17 A2969 RETSRA RMK TCU2AC4CI2 K SLP054;EQDQ01+000000PRSWM2
0178719260999992000081002004+64300-096070FM-15+0018CYBK V0203501N004610090019N0321861N1+01201+00601102181ADDGD13991+0090099GD24991+0240099GF108991999999999999999999MA1102171999999MW1001REMMET070CYBK 100200Z 35009KT 20SM BKN030 OVC080 12/06 A3017 RMK SC5AS3 SLP218;EQDQ01+000000PRSWM2
0153719260999992000081207004+64300-096070FM-15+0018CYBK V0203201N002610090019N0321861N1+00901+00901101181ADDGD13991+0090099GF107991999999999999999999MA1101151999999MW1001REMMET060CYBK 120700Z 32005KT 20SM BKN030 09/09 A2987 RMK SC6 SLP118;EQDQ01+000000PRSWM2
0203719260999992000081321004+64300-096070FM-15+0018CYBK V0203601N004610120019N0321861N1+01401+00601100461ADDGD12991+0075099GD23991+0120099GD33991+0660099GF107991999999999999999999MA1100441999999MW1001REMMET080CYBK 132100Z 36009KT 20SM FEW025 BKN040 BKN220 14/06 A2966 RMK CU1SC5CI1 SLP046;EQDQ01+000000PRSWM2
0178719260999992000081810004+64300-096070FM-15+0018CYBK V0202401N003610120019N0321861N1+00501+00501101841ADDGD12991+0090099GD23991+0120099GF107991999999999999999999MA1101831999999MW1001REMMET070CYBK 181000Z 24007KT 20SM FEW030 BKN040 05/05 A3007 RMK SC2SC3 SLP184;EQDQ01+000000PRSWM2
0178719260999992000082701004+64300-096070FM-15+0018CYBK V0203501N004612200019N0321861N1+00501+00101101531ADDGD12991+0060099GD22991+0720099GF104991999999999999999999MA1101521999999MW1001REMMET070CYBK 270100Z 35009KT 20SM FEW020 SCT240 05/01 A2998 RMK SC1CI2 SLP153;EQDQ01+000000PRSWM2
0199719260999992000090613004+64300-096070FM-15+0018CYBK V0201001N002610060019N0321861N1+00701+00701100391ADDGD13991+0060099GD24991+0150099GF108991999999999999999999MA1100371999999MW1401REMMET075CYBK 061300Z 10005KT 20SM VCFG BKN020 OVC050 07/07 A2964 RMK SC7SC1 SLP039;EQDQ01+000003PRSWM1Q02    003PRSWM1
0153719260999992000091613004+64300-096070FM-15+0018CYBK V0203501N007210210019N0321861N1+00601+00501099221ADDGD13991+0210099GF107991999999999999999999MA1099221999999MW1001REMMET060CYBK 161300Z 35014KT 20SM BKN075 06/05 A2930 RMK AC6 SLP922;EQDQ01+000000PRSWM2
0179719260999992000091703004+64300-096070FM-15+0018CYBK V0203501N010812200019N0241401N1+00301-00101101041ADDGD12991+0024099GD22991+0045099GF104991999999999999999999MA1101021999999MW1001REMMET071CYBK 170300Z 35021KT 15SM FEW008 SCT015 03/M01 A2983 RMK ST1SC2 SLP104;EQDQ01+000000PRSWM2
0155719260999992000092113004+64300-096070FM-15+0018CYBK V0200301N007210090019N0321861N1-00201-00401102291ADDGD14991+0090099GF108991999999999999999999MA1102271999999MW1001REMMET062CYBK 211300Z 03014KT 20SM OVC030 M02/M04 A3020 RMK SC8 SLP229;EQDQ01+000000PRSWM2
0179719260999992000092215004+64300-096070FM-15+0018CYBK V0202901N003110210019N0321861N1+00101+00001101861ADDGD12991+0090099GD24991+0210099GF108991999999999999999999MA1101861999999MW1001REMMET071CYBK 221500Z 29006KT 20SM FEW030 OVC070 01/M00 A3008 RMK SC2AC6 SLP186;EQDQ01+000000PRSWM2
0179719260999992000092301004+64300-096070FM-15+0018CYBK V0202001N004110090019N0321861N1+00201-00201101131ADDGD13991+0090099GD23991+0630099GF107991999999999999999999MA1101121999999MW1001REMMET071CYBK 230100Z 20008KT 20SM BKN030 BKN210 02/M02 A2986 RMK SC3CI1 SLP113;EQDQ01+000000PRSWM2
0129719260999992000092606234+64300-096070FM-16+0018CYBK V0200301N003610150019N0160931N1+99999+99999999999ADDGD13991+0150099GF107991999999999999999999MW1001MW2711REMMET045CYBK 260623Z 03007KT 10SM -SN BKN050 RMK SC6;EQDQ01+000003PRSWM1
0175719260999992000092722004+64300-096070FM-15+0018CYBK V0203501N006710060019N0321861N1-00401-00601101591ADDGD14991+0060099GF108991999999999999999999MA1101591999999MW1711REMMET066CYBK 272200Z 35013KT 20SM -SN OVC020 M04/M06 A3000 RMK SC8 SLP159;EQDQ01+000003PRSWM1Q02    003PRSWM1
0175719260999992000092816004+64300-096070FM-15+0018CYBK V0203401N003610054019N0321861N1-00501-00801101691ADDGD14991+0054099GF108991999999999999999999MA1101661999999MW1711REMMET066CYBK 281600Z 34007KT 20SM -SN OVC018 M05/M08 A3002 RMK SC8 SLP169;EQDQ01+000003PRSWM1Q02    003PRSWM1
0119719260999992000092820414+64300-096070FM-16+0018CYBK V0203301N007710051019N0321861N1+99999+99999999999ADDGD14991+0051099GF108991999999999999999999MW1001REMMET041CYBK 282041Z 33015KT 20SM OVC017 RMK SC7;EQDQ01+000000PRSWM2
0205719260999992000092920004+64300-096070FM-15+0018CYBK V0203201N003110660019N0321861N1-00301-00801101671ADDGD12991+0090099GD22991+0600099GD33991+0660099GF107991999999999999999999MA1101661999999MW1001REMMET082CYBK 292000Z 32006KT 20SM SCT030 SCT200 BKN220 M03/M08 A3002 RMK SC3CC1CI1 SLP167;EQDQ01+000000PRSWM2
0155719260999992000100511004+64300-096070FM-15+0018CYBK V0200101N010812200019N0241401N1-00701-01001102051ADDGD12991+0060099GF102991999999999999999999MA1102031999999MW1001REMMET062CYBK 051100Z 01021KT 15SM FEW020 M07/M10 A3013 RMK SC2 SLP205;EQDQ01+000000PRSWM2
0222719260999992000100515004+64300-096070FM-15+0018CYBK V0203601N006712200019N0321861N1-00701-00901102291ADDGD12991+0060099GD22991+0120099GD32991+0630099GF102991999999999999999999MA1102271999999MW1001OC101081REMMET091CYBK 051500Z 36013G21KT 20SM FEW020 FEW040 FEW210 M07/M09 A3020 RMK SC1SC1CI0 COTRA SLP229;EQDQ01+000000PRSWM2
0179719260999992000100921004+64300-096070FM-15+0018CYBK V0203101N005710360019N0321861N1+00101-00101100091ADDGD12991+0030099GD23991+0360099GF107991999999999999999999MA1100071999999MW1001REMMET071CYBK 092100Z 31011KT 20SM FEW010 BKN120 01/M01 A2955 RMK SC1AC3 SLP009;EQDQ01+000000PRSWM2
0198719260999992000101010004+64300-096070FM-15+0018CYBK V0203401N004610120019N0128741N1+00001+00001100751ADDGD12991+0048099GD24991+0120099GF108991999999999999999999MA1100751999999MW1711REMMET074CYBK 101000Z 34009KT 8SM -SN SCT016 OVC040 00/M00 A2975 RMK SC4SC4 SLP075;EQDQ01+000003PRSWM1Q02    003PRSWM1
0155719260999992000101610004+64300-096070FM-15+0018CYBK V0209999C000010090019N0241401N1-00501-00601100651ADDGD13991+0090099GF107991999999999999999999MA1100641999999MW1001REMMET062CYBK 161000Z 00000KT 15SM BKN030 M05/M06 A2972 RMK SC4 SLP065;EQDQ01+000000PRSWM2
0377719260999992000102018004+64300-096070SY-MT+0018CYBK V0203401N005110045019N0120001N1-01071-01241101941ADDAA106000791AA224999929AJ100039199999999AY171061AY211061GD14991+0045099GF108991081051004501999999IA1229KA1120M-00981KA2240N-01631MA1101931101701MD1110031+9999MW1711REMSYN112AAXX  20184 71926 11462 83410 11107 21124 30170 40194 51003 69901 77171 885// 333 11098 21163 46003 79999 90952;MET065CYBK 201800Z 34010KT 8SM -SN OVC015 M11/M12 A3010 RMK SC8 SLP194;EQDQ01    003PRSWM1
0191719260999992000102516004+64300-096070FM-15+0018CYBK V0203601N002612200019N0321861N1-02001-02401102481ADDGD12991+0090099GF102991999999999999999999MA1102441999999MW1401REMMET082CYBK 251600Z 36005KT 20SM VCFG FEW030 M20/M24 A3025 RMK SC1 FROIN VSBY E 5 SLP248;EQDQ01+000003PRSWM1Q02    003PRSWM1
0180719260999992000102715004+64300-096070FM-15+0018CYBK V0201801N005110045019N0241401N1-00801-01001102021ADDGD12991+0027099GD24991+0045099GF108991999999999999999999MA1102001999999MW1001REMMET072CYBK 271500Z 18010KT 15SM FEW009 OVC015 M08/M10 A3012 RMK ST2SC5 SLP202;EQDQ01+000000PRSWM2
0179719260999992000102914004+64300-096070FM-15+0018CYBK V0200201N001010630019N0321861N1-01701-01901102871ADDGD12991+0003099GD23991+0630099GF107991999999999999999999MA1102841999999MW1001REMMET071CYBK 291400Z 02002KT 20SM FEW01 BKN210 M17/M19 A3037 RMK ST1CS5 SLP287;EQDQ01+000000PRSWM2
0131719260999992000103010254+64300-096070FM-16+0018CYBK V0201101N00771000151CN0024141N1+99999+99999999999ADDGD15991+0001599GF109991999999000251999999MW1001MW2711REMMET047CYBK 301025Z 11015KT 1 1/2SM -SN VV012 RMK SN8;EQDQ01+000003PRSWM1
0184719260999992000111011004+64300-096070FM-15+0018CYBK V0203301N011812200019N0128741N1-02801-03201102741ADDGD12991+0075099GF102991999999999999999999MA1102711999999MW1361MW2761REMMET069CYBK 101100Z 33023KT 8SM IC DRSN FEW025 M28/M32 A3033 RMK SC1 SLP274;EQDQ01+000003PRSWM1Q02    003PRSWM1
0186719260999992000111222004+64300-096070FM-15+0018CYBK V0202101N01081000151CN0008051N1-01001-01101100641ADDGD15991+0001599GF109991999999000251999999MA1100611999999MW1381MW2711REMMET071CYBK 122200Z 21021KT 1/2SM -SN BLSN VV003 M10/M11 A2971 RMK SN8 SLP064;EQDQ01+000003PRSWM1Q02    003PRSWM1
0180719260999992000112611004+64300-096070FM-15+0018CYBK V0203101N00981000151CN0024141N1-01801-02001100151ADDGD15991+0001599GF109991999999000251999999MA1100141999999MW1381REMMET071CYBK 261100Z 31019KT 1 1/2SM BLSN VV009 M18/M20 A2957 RMK BLSN8 SLP015;EQDQ01+000003PRSWM1Q02    003PRSWM1
0417719260999992000120206004+64300-096070SY-MT+0018CYBK V0201001N00771003001CN0040001N1-01841-02271101141ADDAA106000791AA224999929AJ100249199999999AL12499999AY171061AY271061GD14991+0030099GF108991081051004501999999IA1289KA1240M-01831KA2240N-03141MA1101121100901MD1610091+9999MW1711REMSYN128AAXX  02064 71926 11440 81015 11184 21227 30090 40114 56009 69901 77177 885// 333 11183 21314 44024 79999 90983 555 19999 29999;MET079CYBK 020600Z 10015KT 2 1/2SM -SN BLSN OVC010 M18/M23 A2986 RMK BLSN2SC6 SLP114;EQDQ01    003PRSWM1
0189719260999992000120214004+64300-096070FM-15+0018CYBK V0201101N007210018019N0040231N1-01601-02001100901ADDGD14991+0018099GF108991999999999999999999MA1100881999999MW1361MW2711REMMET074CYBK 021400Z 11014KT 2 1/2SM -SN DRSN OVC006 M16/M20 A2979 RMK SC8 SLP090;EQDQ01+000003PRSWM1Q02    003PRSWM1
0412719260999992000120312004+64300-096070SY-MT+0018CYBK V0203401N00261004501CN0080001N1-01311-01591099951ADDAA106000591AA224003291AJ100289199999999AL10600191AY171061AY271061GD14991+0045099GF108991081051004501999999IA1249KA1999M-01201KA2120N-01461MA1099931099711MD1210021+9999MW1711REMSYN118AAXX  03124 71926 11458 83405 11131 21159 39971 49995 52002 69961 77177 885// 333 11120 21146 48028 70032 90983 93101;MET084CYBK 031200Z 34005KT 5SM -SN OVC015 M13/M16 A2951 RMK SC8 SNW CVR/MUCH LOOSE SLP995;EQDQ01    003PRSWM1
0419719260999992000120318004+64300-096070SY-MT+0018CYBK V0203401N01341006001CN0004001N1-01541-01831100151ADDAA106000791AA224003291AJ100279199999999AY171061AY271061GD14991+0060099GF108991081051008001999999IA1249KA1120M-01191KA2240N-01541MA1100141099911MD1210121+9999MW1711OC101491REMSYN112AAXX  03184 71926 11504 83426 11154 21183 39991 40015 52012 69901 77177 885// 333 11119 21154 48027 70032 90983;MET099CYBK 031800Z 34024G29KT 1/4SM -SN +BLSN OVC020 M15/M18 A2957 RMK BLSN2SC6 VSBY VRBL 1/8-1/2 SLP015;EQDQ01    003PRSWM1
0193719260999992000120623004+64300-096070FM-15+0018CYBK V0203201N010812200019N0036201N1-03301-03901101431ADDGD12991+0090099GF104991999999999999999999MA1101391999999MW1381MW2761REMMET078CYBK 062300Z 32021KT 2 1/4SM IC BLSN SCT030 M33/M39 A2994 RMK BLSN2SC2 SLP143;EQDQ01+000003PRSWM1Q02    003PRSWM1
0199719260999992000121616004+64300-096070FM-15+0018CYBK V0201801N002612200019N0321861N1-03101-03601102041ADDGD12991+0075099GD22991+0630099GF102991999999999999999999MA1102001999999MW1761REMMET075CYBK 161600Z 18005KT 20SM IC FEW025 FEW210 M31/M36 A3012 RMK SC1CI1 SLP204;EQDQ01+000003PRSWM1Q02    003PRSWM1
0152719260999992000122708004+64300-096070FM-15+0018CYBK V0203201N007712200019N0241401N1-03301-03801103531ADDGF100991999999999999999999MA1103491999999MW1761REMMET058CYBK 270800Z 32015KT 15SM IC SKC M33/M38 A3056 RMK SLP353;EQDQ01+000003PRSWM1Q02    003PRSWM1
0137719264999992000011208004+61100-094070FM-15+0010CYEK V0202701N004112200019N0144841N1-03501-04001101841ADDGF100991999999999999999999MA1101831999999MW1001REMMET059CYEK 120800Z AUTO 27008KT 9SM CLR M35/M40 A3007 RMK SLP184;EQDQ01+000000PRSWM2
0155719264999992000011409004+61100-094070FM-15+0010CYEK V0202901N007212200019N0144841N1-03501-04001102681ADDGD12991+0270099GF102991999999999999999999MA1102641999999MW1001REMMET062CYEK 140900Z AUTO 29014KT 9SM FEW093 M35/M40 A3031 RMK SLP268;EQDQ01+000000PRSWM2
0177719264999992000012305004+61100-094070FM-15+0010CYEK V0203601N003612200019N0144841N1-03201-03701101601ADDGD12991+0057099GD22991+0123099GF104991999999999999999999MA1101561999999MW1001REMMET069CYEK 230500Z AUTO 36007KT 9SM FEW019 SCT041 M32/M37 A2999 RMK SLP160;EQDQ01+000000PRSWM2
0180719264999992000012308004+61100-094070FM-15+0010CYEK V0200101N003110270019N0241401N1-03001-03501101441ADDGD12991+0210099GD24991+0270099GF108991999999999999999999MA1101421999999MW1001REMMET072CYEK 230800Z 01006KT 15SM FEW074 OVC091 M30/M35 A2995 RMK AC1AC5 SLP144;EQDQ01+000000PRSWM2
0223719264999992000012516004+61100-094070FM-15+0010CYEK V0201301N001510630019N0128741N1-03001-03401101881ADDGD12991+0102099GD22991+0210099GD33991+0630099GF107991999999999999999999MA1101861999999MW1761REMMET084CYEK 251600Z 13003KT 8SM IC FEW034 SCT075 BKN210 M30/M34 A3008 RMK SC2AC2CI2 SLP188;EQDQ01+000003PRSWM1Q02    003PRSWM1
0199719264999992000012907004+61100-094070FM-15+0010CYEK V0202601N015412200019N0028161N1-00501-00601099431ADDGD12991+0138099GD22991+0150099GF102991999999999999999999MA1099421999999MW1001REMMET091CYEK 290700Z AUTO 26030KT 1 3/4SM FEW046 FEW052 M05/M06 A2936 RMK VSBY VRBL 0.8V3.5 SLP943;EQDQ01+000000PRSWM2
0204719264999992000020909004+61100-094070FM-15+0010CYEK V0203101N01291000151CN0000001N1-03101-03501100751ADDGD15991+0001599GF109991999999000251999999MA1100711999999MW1711OC101751REMMET087CYEK 090900Z AUTO 31025G34KT 0SM -SN VV001 M31/M35 A2974 RMK PCPN 0.5MM PAST HR SLP075;EQDQ01+000003PRSWM1Q02    003PRSWM1
0157719264999992000020911004+61100-094070FM-15+0010CYEK V0203001N010812200019N0002011N1-03001-03401100761ADDGD12991+0240099GF102991999999999999999999MA1100751999999MW1001REMMET064CYEK 091100Z AUTO 30021KT 1/8SM FEW085 M30/M34 A2975 RMK SLP076;EQDQ01+000000PRSWM2
0137719264999992000021708004+61100-094070FM-15+0010CYEK V0203201N007212200019N0144841N1-03601-04001101651ADDGF100991999999999999999999MA1101631999999MW1001REMMET059CYEK 170800Z AUTO 32014KT 9SM CLR M36/M40 A3001 RMK SLP165;EQDQ01+000000PRSWM2
0137719264999992000021921004+61100-094070FM-15+0010CYEK V0203201N007712200019N0080461N1-03301-03801101771ADDGF100991999999999999999999MA1101761999999MW1001REMMET059CYEK 192100Z AUTO 32015KT 5SM CLR M33/M38 A3005 RMK SLP177;EQDQ01+000000PRSWM2
0137719264999992000022104004+61100-094070FM-15+0010CYEK V0203101N007212200019N0128741N1-03301-03801101801ADDGF100991999999999999999999MA1101761999999MW1001REMMET059CYEK 210400Z AUTO 31014KT 8SM CLR M33/M38 A3005 RMK SLP180;EQDQ01+000000PRSWM2
0253719264999992000022322004+61100-094070FM-15+0010CYEK V0203401N009312200019N0193121N1-02401-02801102531ADDGD12991+0660099GF102991999999999999999999MA1102511999999MW1361REMMET144CYEK 232200Z 34018KT 12SM DRSN FEW220 M24/M28 A3027 RMK CI1 CLIMAT -21.5/-24.5/0.0MM/14.0CM/SNW CVR/HARD PACK/LAST MANNED OB/NXT 241400Z SLP253;EQDQ01+000003PRSWM1Q02    003PRSWM1
0174719264999992000030115004+61100-094070FM-15+0010CYEK V0202201N005110039019N0096561N1-01601-01801101731ADDGD14991+0039099GF108991999999999999999999MA1101731999999MW1711REMMET065CYEK 011500Z 22010KT 6SM -SN OVC013 M16/M18 A3004 RMK ST8 SLP173;EQDQ01+000003PRSWM1Q02    003PRSWM1
0156719264999992000030907004+61100-094070FM-15+0010CYEK V0203001N005712200019N0144841N1-02901-03301102721ADDGF100991999999999999999999MA1102681999999MW1001REMMET078CYEK 090700Z AUTO 30011KT 9SM CLR M29/M33 A3032 RMK PCPN 0.5MM PAST HR SLP272;EQDQ01+000000PRSWM2
0204719264999992000031321004+61100-094070FM-15+0010CYEK V0203201N009312200019N0024141N1-03101-03501101331ADDGD12991+0660099GF104991999999999999999999MA1101321999999MW1381MW2761OC101231REMMET081CYEK 132100Z 32018G24KT 1 1/2SM IC BLSN SCT220 M31/M35 A2992 RMK BLSN2CI1 SLP133;EQDQ01+000003PRSWM1Q02    003PRSWM1
0177719264999992000032308004+61100-094070FM-15+0010CYEK V0203201N005110075019N0144841N1-01001-01201101811ADDGD14991+0075099GD24991+0180099GF108991999999999999999999MA1101801999999MW1001REMMET069CYEK 230800Z AUTO 32010KT 9SM OVC025 OVC060 M10/M12 A3006 RMK SLP181;EQDQ01+000000PRSWM2
0189719264999992000032321004+61100-094070FM-15+0010CYEK V0202201N002110720019N0241401N1-00901-01001102401ADDGD12991+0330099GD23991+0720099GF107991999999999999999999MA1102401999999MW1001REMMET081CYEK 232100Z 22004KT 15SM FEW110 BKN240 M09/M10 A3024 RMK AC1CI5 VIA CZNB SLP240;EQDQ01+000000PRSWM2
0141719264999992000032713404+61100-094070FM-16+0010CYEK V0200601N008210030019N0193121N1+99999+99999999999ADDGD14991+0030099GF108991999999999999999999MW1001MW2361OC101231REMMET049CYEK 271340Z 06016G24KT 12SM DRSN OVC010 RMK ST7;EQDQ01+000003PRSWM1
0137719264999992000032806004+61100-094070FM-15+0010CYEK V0201001N004112200019N0144841N1-02001-02001101771ADDGF100991999999999999999999MA1101761999999MW1001REMMET059CYEK 280600Z AUTO 10008KT 9SM CLR M20/M20 A3005 RMK SLP177;EQDQ01+000000PRSWM2
0181719264999992000040305004+61100-094070FM-15+0010CYEK V0203201N011810117019N0034191N1-01601-01701101641ADDGD14991+0117099GD24991+0210099GF108991999999999999999999MA1101631999999MW1001REMMET073CYEK 030500Z AUTO 32023KT 2 1/8SM OVC039 OVC077 M16/M17 A3001 RMK SLP164;EQDQ01+000000PRSWM2
0142719264999992000042020334+61100-094070FM-16+0010CYEK V0201101N010310009019N0016091N1+99999+99999999999ADDGD14991+0009099GF108991999999999999999999MW1001MW2381MW3711REMMET052CYEK 202033Z 11020KT 1SM -SN BLSN OVC003 RMK SN2ST6;EQDQ01+000003PRSWM1
0175719264999992000042510004+61100-094070FM-15+0010CYEK V0203501N005110018019N0144841N1+00101+00101101281ADDGD14991+0018099GD24991+0102099GF108991999999999999999999MA1101251999999MW1001REMMET067CYEK 251000Z AUTO 35010KT 9SM OVC006 OVC034 01/01 A2990 RMK SLP128;EQDQ01+000000PRSWM2
0119719264999992000042614134+61100-094070FM-16+0010CYEK V0203601N005710051019N0241401N1+99999+99999999999ADDGD14991+0051099GF108991999999999999999999MW1001REMMET041CYEK 261413Z 36011KT 15SM OVC017 RMK ST8;EQDQ01+000000PRSWM2
0119719264999992000042615404+61100-094070FM-16+0010CYEK V0203601N005110027019N0241401N1+99999+99999999999ADDGD14991+0027099GF108991999999999999999999MW1001REMMET041CYEK 261540Z 36010KT 15SM OVC009 RMK ST8;EQDQ01+000000PRSWM2
0137719264999992000042902004+61100-094070FM-15+0010CYEK V0203601N005112200019N0144841N1-01001-01201102451ADDGF100991999999999999999999MA1102441999999MW1001REMMET059CYEK 290200Z AUTO 36010KT 9SM CLR M10/M12 A3025 RMK SLP245;EQDQ01+000000PRSWM2
0155719264999992000050210004+61100-094070FM-15+0010CYEK V0201601N007212200019N0144841N1-00301-00301100931ADDGD12991+0129099GF104991999999999999999999MA1100911999999MW1001REMMET062CYEK 021000Z AUTO 16014KT 9SM SCT043 M03/M03 A2980 RMK SLP093;EQDQ01+000000PRSWM2
0202719264999992000050313004+61100-094070FM-15+0010CYEK V0202801N007710015019N0241401N1+00101+00101100191ADDGD14991+0015099GF108991999999999999999999MA1100171999999MW1001REMMET109CYEK 031300Z CCA28015KT 15SM OVC005 01/01 A2958 RMK ST8 CLIMAT 1.5/-1.5/0.0MM/19.0CM/SNW CVR/MED PACK SLP019;EQDQ01+000000PRSWM2
0178719264999992000050315004+61100-094070FM-15+0010CYEK V0202901N007210024019N0241401N1+00101+00101100191ADDGD13991+0024099GD24991+0066099GF108991999999999999999999MA1100171999999MW1001REMMET070CYEK 031500Z 29014KT 15SM BKN008 OVC022 01/01 A2958 RMK ST6SC2 SLP019;EQDQ01+000000PRSWM2
0155719264999992000050601004+61100-094070FM-15+0010CYEK V0200701N006210015019N0096561N1-00201-00201101441ADDGD14991+0015099GF108991999999999999999999MA1101421999999MW1001REMMET062CYEK 060100Z AUTO 07012KT 6SM OVC005 M02/M02 A2995 RMK SLP144;EQDQ01+000000PRSWM2
0221719264999992000050822004+61100-094070FM-15+0010CYEK V0201301N002110030019N0241401N1-00501-00601102511ADDGD14991+0030099GF108991999999999999999999MA1102511999999MW1001REMMET128CYEK 082200Z 13004KT 15SM OVC010 M05/M06 A3027 RMK ST8 -4.0/-5.5/0.0MM/17CM/SNW CVR/MED PACK/LAST MANNED OB/NEXT 091200Z SLP251;EQDQ01+000000PRSWM2
0166719264999992000051605004+61100-094070FM-15+0010CYEK V0203501N009310030019N0144841N1-00601-00701101851ADDGD14991+0030099GF108991999999999999999999MA1101831999999MW1001OC101231REMMET065CYEK 160500Z AUTO 35018G24KT 9SM OVC010 M06/M07 A3007 RMK SLP185;EQDQ01+000000PRSWM2
0180719264999992000051613004+61100-094070FM-15+0010CYEK V0203501N008210630019N0241401N1-01101-01201101831ADDGD12991+0018099GD23991+0630099GF107991999999999999999999MA1101831999999MW1001REMMET072CYEK 161300Z 35016KT 15SM FEW006 BKN210 M11/M12 A3007 RMK SF2CI3 SLP183;EQDQ01+000000PRSWM2
0148719264999992000051623004+61100-094070FM-15+0010CYEK V0203501N010312200019N0144841N1-00701-00901101911ADDGF100991999999999999999999MA1101901999999MW1001OC101341REMMET062CYEK 162300Z AUTO 35020G26KT 9SM CLR M07/M09 A3009 RMK SLP191;EQDQ01+000000PRSWM2
0177719264999992000052703004+61100-094070FM-15+0010CYEK V0201301N004610036019N0144841N1-00401-00501102651ADDGD13991+0036099GD24991+0240099GF108991999999999999999999MA1102641999999MW1001REMMET069CYEK 270300Z AUTO 13009KT 9SM BKN012 OVC082 M04/M05 A3031 RMK SLP265;EQDQ01+000000PRSWM2
0155719264999992000052809004+61100-094070FM-15+0010CYEK V0201201N010312200019N0144841N1-00101-00301101871ADDGD12991+0270099GF102991999999999999999999MA1101861999999MW1001REMMET062CYEK 280900Z AUTO 12020KT 9SM FEW095 M01/M03 A3008 RMK SLP187;EQDQ01+000000PRSWM2
0170719264999992000053014004+61100-094070FM-15+0010CYEK V0200401N01031000151CN0016091N1+00101+00101100171ADDGD15991+0001599GF109991999999000251999999MA1100171999999MW1101REMMET061CYEK 301400Z 04020KT 1SM BR VV001 01/01 A2958 RMK FG8 SLP017;EQDQ01+000003PRSWM1Q02    003PRSWM1
0155719264999992000060708004+61100-094070FM-15+0010CYEK V0203201N008710039019N0144841N1-00201-00301102111ADDGD14991+0039099GF108991999999999999999999MA1102101999999MW1001REMMET062CYEK 070800Z AUTO 32017KT 9SM OVC013 M02/M03 A3015 RMK SLP211;EQDQ01+000000PRSWM2
0128719264999992000060814124+61100-094070FM-16+0010CYEK V0203601N009310039019N0128741N1+99999+99999999999ADDGD14991+0039099GF108991999999999999999999MW1001MW2771REMMET044CYEK 081412Z 36018KT 8SM -SG OVC013 RMK ST8;EQDQ01+000003PRSWM1
0167719264999992000062012004+61090-094690FM-15+0010CYEK V0201001N005712200019N0241401N1+00401+00201100891ADDGD12991+0420099GF102991999999999999999999MA1100881999999MW1001REMMET074CYEK 201200Z 10011KT 15SM FEW140 04/02 A2979 RMK AC2 7.5/2.5/1.6MM SLP089;EQDQ01+000000PRSWM2
0175719264999992000070320004+61090-094690FM-15+0010CYEK V0200301N007710063019N0144841N1+00601+00401102001ADDGD13991+0063099GD23991+0135099GF107991999999999999999999MA1102001999999MW1001REMMET067CYEK 032000Z AUTO 03015KT 9SM BKN021 BKN045 06/04 A3012 RMK SLP200;EQDQ01+000000PRSWM2
0153719264999992000070608004+61090-094690FM-15+0010CYEK V0201701N004612200019N0144841N1+00201+00101102441ADDGD12991+0012099GF102991999999999999999999MA1102441999999MW1001REMMET060CYEK 060800Z AUTO 17009KT 9SM FEW004 02/01 A3025 RMK SLP244;EQDQ01+000000PRSWM2
0153719264999992000070813004+61090-094690FM-15+0010CYEK V0200701N006710210019N0144841N1+00501+00301101461ADDGD13991+0210099GF107991999999999999999999MA1101461999999MW1001REMMET060CYEK 081300Z AUTO 07013KT 9SM BKN074 05/03 A2996 RMK SLP146;EQDQ01+000000PRSWM2
0135719264999992000071204004+61090-094690FM-15+0010CYEK V0201901N005112200019N0144841N1+01001+00701101011ADDGF100991999999999999999999MA1101021999999MW1001REMMET057CYEK 120400Z AUTO 19010KT 9SM CLR 10/07 A2983 RMK SLP101;EQDQ01+000000PRSWM2
0153719264999992000071602004+61090-094690FM-15+0010CYEK V0200301N006212200019N0144841N1+00801+00701101141ADDGD12991+0240099GF102991999999999999999999MA1101121999999MW1001REMMET060CYEK 160200Z AUTO 03012KT 9SM FEW085 08/07 A2986 RMK SLP114;EQDQ01+000000PRSWM2
0135719264999992000071711004+61090-094690FM-15+0010CYEK V0203401N005712200019N0144841N1+00701+00501102231ADDGF100991999999999999999999MA1102201999999MW1001REMMET057CYEK 171100Z AUTO 34011KT 9SM CLR 07/05 A3018 RMK SLP223;EQDQ01+000000PRSWM2
0135719264999992000071802004+61090-094060FM-15+0010CYEK V0202001N005712200019N0144841N1+01101+00501102201ADDGF100991999999999999999999MA1102201999999MW1001REMMET057CYEK 180200Z AUTO 20011KT 9SM CLR 11/05 A3018 RMK SLP220;EQDQ01+000000PRSWM2
0146719264999992000072223004+61090-094060FM-15+0010CYEK V0201801N006712200019N0144841N1+01501+01001100781ADDGF100991999999999999999999MA1100781999999MW1001OC100931REMMET060CYEK 222300Z AUTO 18013G18KT 9SM CLR 15/10 A2976 RMK SLP078;EQDQ01+000000PRSWM2
0145719264999992000072417454+61090-094060FM-16+0010CYEK V0200601N00411000151CN0024141N1+99999+99999999999ADDGD15991+0001599GF109991999999000251999999MW1001MW2101REMMET061CYEK 241745Z 06008KT 1 1/2SM BR VV002 / RMK FG8 VSBY SE-S 15;EQDQ01+000003PRSWM1
0131719264999992000072517004+61090-094060FM-15+0010CYEK V0200501N005112200019N0241401N1+01101+00801101311ADDGF100991999999999999999999MA1101321999999MW1001REMMET053CYEK 251700Z 05010KT 15SM SKC 11/08 A2992 RMK SLP131;EQDQ01+000000PRSWM2
0153719264999992000081301004+61090-094060FM-15+0010CYEK V0203601N007710075019N0144841N1+01201+00801100401ADDGD14991+0075099GF108991999999999999999999MA1100411999999MW1001REMMET060CYEK 130100Z AUTO 36015KT 9SM OVC025 12/08 A2965 RMK SLP040;EQDQ01+000000PRSWM2
0175719264999992000081614304+61090-094060FM-16+0010CYEK V0201801N003610042019N0160931N1+99999+99999999999ADDGD13991+0042099GD24991+0084099GF108991999999999999999999MW1001MW2611REMMET060CYEK 161430Z 18007KT 10SM -RA VCFG BKN014 OVC028 RMK ST5SC2;EQDQ01+000400PRSWM3Q02+000003PRSWM1
0135719264999992000082008004+61090-094060FM-15+0010CYEK V0201901N008712200019N0144841N1+01101+00801100881ADDGF100991999999999999999999MA1100881999999MW1001REMMET057CYEK 200800Z AUTO 19017KT 9SM CLR 11/08 A2979 RMK SLP088;EQDQ01+000000PRSWM2
0169719264999992000082312004+61090-094060FM-15+0010CYEK V0203301N004610039019N0241401N1+01001+01001100891ADDGD13991+0039099GF107991999999999999999999MA1100881999999MW1001REMMET076CYEK 231200Z 33009KT 15SM BKN013 10/10 A2979 RMK SC7 13.0/10.0/1.0MM SLP089;EQDQ01+000000PRSWM2
0135719264999992000090111004+61090-094060FM-15+0010CYEK V0202901N008212200019N0144841N1+00201+00001102111ADDGF100991999999999999999999MA1102101999999MW1001REMMET057CYEK 011100Z AUTO 29016KT 9SM CLR 02/00 A3015 RMK SLP211;EQDQ01+000000PRSWM2
0175719264999992000090211004+61090-094060FM-15+0010CYEK V0203201N007210066019N0144841N1+00301+00101102411ADDGD13991+0066099GD23991+0210099GF107991999999999999999999MA1102401999999MW1001REMMET067CYEK 021100Z AUTO 32014KT 9SM BKN022 BKN076 03/01 A3024 RMK SLP241;EQDQ01+000000PRSWM2
0124719264999992000090901004+61090-094060FM-15+0010CYEK V0201401N010812200019N0144841N1+00801+00701999999ADDGF100991999999999999999999MA1100001999999MW1001REMMET046CYEK 090100Z AUTO 14021KT 9SM CLR 08/07 A2953;EQDQ01+000000PRSWM2
0146719264999992000091010004+61090-094060FM-15+0010CYEK V0200401N008712200019N0144841N1+00901+00801098201ADDGF100991999999999999999999MA1098211999999MW1001OC101131REMMET060CYEK 101000Z AUTO 04017G22KT 9SM CLR 09/08 A2900 RMK SLP820;EQDQ01+000000PRSWM2
0186719264999992000091323004+61090-094060FM-15+0010CYEK V0203201N008710048019N0144841N1+00701+00501100241ADDGD14991+0048099GD24991+0150099GF108991999999999999999999MA1100241999999MW1001OC101341REMMET070CYEK 132300Z AUTO 32017G26KT 9SM OVC016 OVC055 07/05 A2960 RMK SLP024;EQDQ01+000000PRSWM2
0186719264999992000091418004+61090-094060FM-15+0010CYEK V0203301N011310039019N0241401N1+00801+00401101451ADDGD13991+0039099GD23991+0330099GF107991999999999999999999MA1101421999999MW1001REMMET078CYEK 141800Z 33022KT 15SM BKN013 BKN110 08/04 A2995 RMK SC6AC1 CIG RGD SLP145;EQDQ01+000000PRSWM2
0164719264999992000091717004+61090-094060FM-15+0010CYEK V0203401N012310051019N0241401N1+00501+00101101081ADDGD13991+0051099GF107991999999999999999999MA1101081999999MW1001OC101541REMMET063CYEK 171700Z 34024G30KT 15SM BKN017 05/01 A2985 RMK SC6 SLP108;EQDQ01+000000PRSWM2
0164719264999992000091718004+61090-094060FM-15+0010CYEK V0203401N013410057019N0241401N1+00501+00101101041ADDGD13991+0057099GF107991999999999999999999MA1101021999999MW1001OC101591REMMET063CYEK 171800Z 34026G31KT 15SM BKN019 05/01 A2983 RMK SC6 SLP104;EQDQ01+000000PRSWM2
0165719264999992000091807004+61090-094060FM-15+0010CYEK V0203401N009810033019N0144841N1+00101+00001100731ADDGD14991+0033099GF108991999999999999999999MA1100711999999MW1001OC101231REMMET064CYEK 180700Z AUTO 34019G24KT 9SM OVC011 01/M00 A2974 RMK SLP073;EQDQ01+000000PRSWM2
0210719264999992000092708004+61090-094060FM-15+0010CYEK V0203201N007710063019N0144841N1-00101-00201999999ADDGD12991+0033099GD24991+0063099GD34991+0114099GD44991+0240099GF108991999999999999999999MA1101391999999MW1001REMMET072CYEK 270800Z AUTO 32015KT 9SM SCT011 OVC021 OVC038 OVC081 M01/M02 A2994;EQDQ01+000000PRSWM2
0155719264999992000093007004+61090-094060FM-15+0010CYEK V0203401N003610078019N0144841N1-00301-00801101611ADDGD14991+0078099GF108991999999999999999999MA1101591999999MW1001REMMET062CYEK 300700Z AUTO 34007KT 9SM OVC026 M03/M08 A3000 RMK SLP161;EQDQ01+000000PRSWM2
0176719264999992000100108004+61090-094060FM-15+0010CYEK V0201401N012310039019N0144841N1+00201+00001100311ADDGD14991+0039099GD24991+0240099GF108991999999999999999999MA1100311999999MW1001REMMET068CYEK 010800Z AUTO 14024KT 9SM OVC013 OVC082 02/M00 A2962 RMK SLP031;EQDQ01+000000PRSWM2
0154719264999992000100401004+61090-094060FM-15+0010CYEK V0203301N01131000151CN0016091N1-00101-00101099801ADDGD15991+0001599GF109991999999000251999999MA1099801999999MW1001REMMET061CYEK 040100Z AUTO 33022KT 1SM VV006 M01/M01 A2947 RMK SLP980;EQDQ01+000000PRSWM2
0158719264999992000100415294+61090-094060FM-16+0010CYEK V0200101N008710012019N0080461N1+99999+99999999999ADDGD14991+0012099GF108991999999999999999999MW1001MW2711OC101131REMMET050CYEK 041529Z 01017G22KT 5SM -SN BR OVC004 RMK ST8;EQDQ01+000100PRSWM3Q02+000003PRSWM1
0210719264999992000100512004+61090-094060FM-15+0010CYEK V0203601N008710087019N0144841N1-00201-00201101671ADDGD14991+0087099GD24991+0210099GD34991+0240099GF108991999999999999999999MA1101661999999MW1001OC101131REMMET079CYEK 051200Z AUTO 36017G22KT 9SM OVC029 OVC070 OVC083 M02/M02 A3002 RMK SLP167;EQDQ01+000000PRSWM2
0186719264999992000100616004+61090-094060FM-15+0010CYEK V0203401N005112200019N0241401N1-00701-00801103041ADDGD12991+0018099GD22991+0660099GF102991999999999999999999MA1103011999999MW1001REMMET078CYEK 061600Z 34010KT 15SM FEW006 FEW220 M07/M08 A3042 RMK SF1CI1 TR SF SLP304;EQDQ01+000000PRSWM2
0136719264999992000101008004+61090-094060FM-15+0010CYEK V0202701N005712200019N0144841N1+00101-00101100861ADDGF100991999999999999999999MA1100851999999MW1001REMMET058CYEK 100800Z AUTO 27011KT 9SM CLR 01/M01 A2978 RMK SLP086;EQDQ01+000000PRSWM2
0136719264999992000101011004+61090-094060FM-15+0010CYEK V0202801N008212200019N0144841N1+00101-00101101131ADDGF100991999999999999999999MA1101121999999MW1001REMMET058CYEK 101100Z AUTO 28016KT 9SM CLR 01/M01 A2986 RMK SLP113;EQDQ01+000000PRSWM2
0143719264999992000102601024+61090-094060FM-15+0010CYEK V0201301N01031000151CN0016091N1-00301-00401999999ADDGD15991+0001599GF109991999999000251999999MA1101831999999MW1001REMMET050CYEK 260102Z AUTO 13020KT 1SM VV007 M03/M04 A3007;EQDQ01+000000PRSWM2
0137719264999992000102912004+61090-094060FM-15+0010CYEK V0203601N007212200019N0144841N1-01301-01501102581ADDGF100991999999999999999999MA1102571999999MW1001REMMET059CYEK 291200Z AUTO 36014KT 9SM CLR M13/M15 A3029 RMK SLP258;EQDQ01+000000PRSWM2
0166719264999992000110220004+61090-094060FM-15+0010CYEK V0201601N005110030019N0241401N1-00301-00501101641ADDGD14991+0030099GF108991999999999999999999MA1101631999999MW1001OC100771REMMET065CYEK 022000Z 16010G15KT 15SM OVC010 M03/M05 A3001 RMK SC8 SLP164;EQDQ01+000000PRSWM2
0186719264999992000110718004+61090-094060FM-15+0010CYEK V0203301N007712200019N0241401N1-01801-02301103621ADDGD12991+0072099GD22991+0660099GF102991999999999999999999MA1103621999999MW1001REMMET078CYEK 071800Z 33015KT 15SM FEW024 FEW220 M18/M23 A3060 RMK SC1CI1 TR SC SLP362;EQDQ01+000000PRSWM2
0186719264999992000110720004+61090-094060FM-15+0010CYEK V0203301N005712200019N0241401N1-01901-02301103691ADDGD12991+0075099GD22991+0750099GF102991999999999999999999MA1103691999999MW1001REMMET078CYEK 072000Z 33011KT 15SM FEW025 FEW250 M19/M23 A3062 RMK SC1CI1 TR SC SLP369;EQDQ01+000000PRSWM2
0213719264999992000110820004+61090-094060FM-15+0010CYEK V0203601N011310018019N0112651N1-01901-02401103201ADDGD13991+0018099GD24991+0075099GF108991999999999999999999MA1103181999999MW1361MW2381REMMET083CYEK 082000Z 36022KT 7SM DRSN VCBLSN BKN006 OVC025 M19/M24 A3047 RMK ST6SC1 SLP320;EQDQ01+000003PRSWM1Q02    003PRSWM1
