0071724339999992000041519009+37750-089017NSRDB+014499999V020999999999999999999999999999+99999+99999999999ADDGP10060039902008003002015037302008GQ100600289919749GR100601187913579
0190724339999992000042101514+37750-089020FM-15+0144KMWA V0202601N004110078019N0160931N1+01401+00901999999ADDGD13991+0078019GD23991+0126019GD34991+0180019GF108991999999999999999999MA1100911999999MW1001REMMET067KMWA 210151Z 26008KT 10SM BKN026 BKN042 OVC060 14/09 A2980 RMK AO2;EQDQ01+000000PRSWM2
0217724339999992000042719524+37750-089020FM-15+0144KMWA V0203601N005110120019N0064371N1+01401+01201999999ADDGD12991+0063019GD24991+0120019GF108991999999999999999999MA1100881999999MW1611REMMET093KMWA 271952Z 36010KT 4SM -RA SCT021 OVC040 14/12 A2979 RMK AO2 WEA: TS NE MOVG NE OCNL LTGCG;EQDQ01+000003PRSWM1Q02    003PRSWM1
0054724339999992000050206009+37750-089017NSRDB+014499999V020999999999999999999999999999+99999+99999999999ADDGP10060000002000000002000000002000GR100600000900009
0145724339999992000050213504+37750-089020FM-15+0144KMWA V0200501N004110042019N0112651N1+01901+01601999999ADDGD13991+0042019GF107991999999999999999999MA1101731999999MW1001REMMET052KMWA 021350Z 05008KT 7SM BKN014 19/16 A3004 RMK AO2;EQDQ01+000000PRSWM2
0265724339999992000050513003+37750-089020FM-15+0144KMWA V0201801N003610210019N0080461N1+02101+01901999999ADDGD12991+0180019GD23991+0210019GD33991+0360019GF107991999999999999999999GP10060020302008028002015012002008GQ100600727908239GR100600398913429MA1102101999999MW1001REMMET074KMWA 051255Z 18007KT 5SM SCT065 BKN075 BKN120 21/19 A3015 RMK AO2 WEA: BR;EQDQ01+000000PRSWM2
0128724339999992000051022494+37750-089020FM-15+0144KMWA V0201801N004112200019N0160931N1+02301+01201999999ADDGF100991999999999999999999MA1101351999999MW1001REMMET050KMWA 102249Z 18008KT 10SM CLR 23/12 A2993 RMK AO2;EQDQ01+000000PRSWM2
0071724339999992000051201009+37750-089017NSRDB+014499999V020999999999999999999999999999+99999+99999999999ADDGP10060002802008012802015001902008GQ100600853928969GR100600099912169
0071724339999992000051318009+37750-089017NSRDB+014499999V020999999999999999999999999999+99999+99999999999ADDGP10060073802008034802015041002008GQ100600201916469GR100601256913379
0146724339999992000051521454+37750-089020FM-15+0144KMWA V0202201N001512200019N0160931N1+02201+00801999999ADDGD12991+0180019GF104991999999999999999999MA1102171999999MW1001REMMET053KMWA 152145Z 22003KT 10SM SCT060 22/08 A3017 RMK A02;EQDQ01+000000PRSWM2
0071724339999992000051618009+37750-089017NSRDB+014499999V020999999999999999999999999999+99999+99999999999ADDGP10060093102008073302015023902008GQ100600194916429GR100601259913369
0054724339999992000051905009+37750-089017NSRDB+014499999V020999999999999999999999999999+99999+99999999999ADDGP10060000002000000002000000002000GR100600000900009
0168724339999992000051912454+37750-089020FM-15+0144KMWA V0209999C000010150019N0160931N1+02201+02101999999ADDGD13991+0150019GD23991+0210019GF107991999999999999999999MA1101491999999MW1001REMMET060KMWA 191245Z 00000KT 10SM BKN050 BKN075 22/21 A2997 RMK AO2;EQDQ01+000000PRSWM2
0071724339999992000052314009+37750-089017NSRDB+014499999V020999999999999999999999999999+99999+99999999999ADDGP10060047202008056702015017602008GQ100600586908719GR100600693913329
0135724339999992000052411484+37750-089020FM-15+0144KMWA V0209999C000012200019N0064371N1+02201+02201999999ADDGF100991999999999999999999MA1100271999999MW1001REMMET057KMWA 241148Z 00000KT 4SM CLR 22/22 A2961 RMK AO2 WEA: BR;EQDQ01+000000PRSWM2
0054724339999992000053106009+37750-089017NSRDB+014499999V020999999999999999999999999999+99999+99999999999ADDGP10060000002000000002000000002000GR100600000900009
0214724339999992000060213003+37750-089020FM-15+0144KMWA V0202201N003112200019N0160931N1+02601+02001999999ADDGD12991+0270019GF104991999999999999999999GP10060011102008000002015011102008GQ100600697907709GR100600460913289MA1102001999999MW1001REMMET053KMWA 021255Z 22006KT 10SM SCT095 26/20 A3012 RMK AO2;EQDQ01+000000PRSWM2
0128724339999992000060823504+37750-089020FM-15+0144KMWA V0201701N003612200019N0160931N1+02801+00801999999ADDGF100991999999999999999999MA1101731999999MW1001REMMET050KMWA 082350Z 17007KT 10SM CLR 28/08 A3004 RMK AO2;EQDQ01+000000PRSWM2
0071724339999992000061123009+37750-089017NSRDB+014499999V020999999999999999999999999999+99999+99999999999ADDGP10060037202008035702015019102008GQ100600595927709GR100600671913259
0054724339999992000061308009+37750-089017NSRDB+014499999V020999999999999999999999999999+99999+99999999999ADDGP10060000002000000002000000002000GR100600000900009
0128724339999992000061318474+37750-089190FM-15+0144KMWA V0202201N003612200019N0160931N1+03301+01901999999ADDGF100991999999999999999999MA1101561999999MW1001REMMET050KMWA 131847Z 22007KT 10SM CLR 33/19 A2999 RMK AO2;EQDQ01+000000PRSWM2
0071724339999992000061419009+37750-089017NSRDB+014499999V020999999999999999999999999999+99999+99999999999ADDGP10060070902008032402015039802008GQ100600165920779GR100601269913249
0148724339999992000061719544+37750-089190FM-15+0144KMWA V0203601N001510015019N0160931N1+02101+01801999999ADDGD14991+0015019GF108991999999999999999999MA1101801999999MW1001REMMET055KMWA 171954Z 36003KT 10SM OVC005 21/18 A3006 RMK RAE40;EQDQ01+000000PRSWM2
0054724339999992000062407009+37750-089017NSRDB+014499999V020999999999999999999999999999+99999+99999999999ADDGP10060000002000000002000000002000GR100600000900009
0157724339999992000062422484+37750-089190FM-15+0144KMWA V0202101N007212200019N0160931N1+02701+02001999999ADDGD12991+0300019GF104991999999999999999999MA1100981999999MW1001OC101231REMMET056KMWA 242248Z 21014G24KT 10SM SCT100 27/20 A2982 RMK A02;EQDQ01+000000PRSWM2
0054724339999992000062710009+37750-089017NSRDB+014499999V020999999999999999999999999999+99999+99999999999ADDGP10060000002000000002000000002000GR100600000900009
0214724339999992000062915003+37750-089190FM-15+0144KMWA V0203401N005112200019N0160931N1+02301+01801999999ADDGD12991+0069019GF104991999999999999999999GP10060061302008067502015015002008GQ100600468909269GR100600903913219MA1101691999999MW1001REMMET053KMWA 291455Z 34010KT 10SM SCT023 23/18 A3003 RMK AO2;EQDQ01+000000PRSWM2
0071724339999992000070511009+37750-089017NSRDB+014499999V020999999999999999999999999999+99999+99999999999ADDGP10060000002008000002015000002008GQ100600886906169GR100600010904079
0071724339999992000070701009+37750-089017NSRDB+014499999V020999999999999999999999999999+99999+99999999999ADDGP10060005002008003602015004502008GQ100600817929239GR100600192913219
0071724339999992000071102009+37750-089017NSRDB+014499999V020999999999999999999999999999+99999+99999999999ADDGP10060000002008000002015000002008GQ100600887929769GR100600010904079
0124724339999992000071115534+37750-089190FM-15+0144KMWA V0203401N003112200019N0160931N1+02701+02301999999ADDGF100991999999999999999999MA1101461999999MW1001REMMET046KMWA 111553Z 34006KT 10SM CLR 27/23 A2996 AO2;EQDQ01+000000PRSWM2
0071724339999992000071218009+37750-089017NSRDB+014499999V020999999999999999999999999999+99999+99999999999ADDGP10060052702008010802015042402008GQ100600176915549GR100601259913229
0054724339999992000071304009+37750-089017NSRDB+014499999V020999999999999999999999999999+99999+99999999999ADDGP10060000002000000002000000002000GR100600000900009
0071724339999992000071401009+37750-089017NSRDB+014499999V020999999999999999999999999999+99999+99999999999ADDGP10060006402008019702015003702008GQ100600820929149GR100600183913229
0146724339999992000071611474+37750-089190FM-15+0144KMWA V0209999C000012200019N0048281N1+02001+01901999999ADDGF100991999999999999999999MA1101191999999MW1101REMMET052KMWA 161147Z 00000KT 3SM BR CLR 20/19 A2988 RMK AO2;EQDQ01+000003PRSWM1Q02    003PRSWM1
0164724339999992000073017544+37750-089020FM-15+0144KMWA V0203101N003112200019N0080461N1+02701+02101999999ADDGD12991+0135019GF104991999999999999999999MA1101221999999MW1051REMMET055KMWA 301754Z 31006KT 5SM HZ SCT045 27/21 A2989 RMK AO2;EQDQ01+000003PRSWM1Q02    003PRSWM1
0054724339999992000080104009+37750-089017NSRDB+014499999V020999999999999999999999999999+99999+99999999999ADDGP10060000002000000002000000002000GR100600000900009
0054724339999992000080407009+37750-089017NSRDB+014499999V020999999999999999999999999999+99999+99999999999ADDGP10060000002000000002000000002000GR100600000900009
0071724339999992000080512009+37750-089017NSRDB+014499999V020999999999999999999999999999+99999+99999999999ADDGP10060000002008000002015000002008GQ100600852907229GR100600102912289
0071724339999992000080613009+37750-089017NSRDB+014499999V020999999999999999999999999999+99999+99999999999ADDGP10060010502008000702015010402008GQ100600745908099GR100600355913289
0128724339999992000080722524+37750-089020FM-15+0144KMWA V0201701N002612200019N0160931N1+02801+02401999999ADDGF100991999999999999999999MA1101491999999MW1001REMMET050KMWA 072252Z 17005KT 10SM CLR 28/24 A2997 RMK AO2;EQDQ01+000000PRSWM2
0054724339999992000081102009+37750-089017NSRDB+014499999V020999999999999999999999999999+99999+99999999999ADDGP10060000002000000002000000002000GR100600000900009
0128724339999992000081823454+37750-089020FM-15+0144KMWA V0203501N001512200019N0160931N1+02401+01801999999ADDGF100991999999999999999999MA1101901999999MW1001REMMET050KMWA 182345Z 35003KT 10SM CLR 24/18 A3009 RMK AO2;EQDQ01+000000PRSWM2
0071724339999992000082021009+37750-089017NSRDB+014499999V020999999999999999999999999999+99999+99999999999ADDGP10060050302008025002015031802008GQ100600423924269GR100600986913359
0071724339999992000082213009+37750-089017NSRDB+014499999V020999999999999999999999999999+99999+99999999999ADDGP10060006102008000002015006102008GQ100600768908559GR100600306913369
0071724339999992000082318009+37750-089017NSRDB+014499999V020999999999999999999999999999+99999+99999999999ADDGP10060080702008065502015022502008GQ100600276916499GR100601184913379
0071724339999992000083118009+37750-089017NSRDB+014499999V020999999999999999999999999999+99999+99999999999ADDGP10060080602008069702015020202008GQ100600302916719GR100601159913429
0071724339999992000090117009+37750-089017NSRDB+014499999V020999999999999999999999999999+99999+99999999999ADDGP10060079802008083202015012002008GQ100600357914179GR100601090913429
0196724339999992000090118003+37750-089020FM-15+0144KMWA V0200101N002612200019N0160931N1+03301+02301999999ADDGF100991999999999999999999GP10060083702008075102015018802008GQ100600306916749GR100601156913429MA1101461999999MW1001REMMET050KMWA 011755Z 01005KT 10SM CLR 33/23 A2996 RMK AO2;EQDQ01+000000PRSWM2
0054724339999992000090406009+37750-089017NSRDB+014499999V020999999999999999999999999999+99999+99999999999ADDGP10060000002000000002000000002000GR100600000900009
0054724339999992000090503009+37750-089017NSRDB+014499999V020999999999999999999999999999+99999+99999999999ADDGP10060000002000000002000000002000GR100600000900009
0071724339999992000091116009+37750-089017NSRDB+014499999V020999999999999999999999999999+99999+99999999999ADDGP10060061002008061902015018502008GQ100600467912729GR100600924913499
0071724339999992000091314009+37750-089017NSRDB+014499999V020999999999999999999999999999+99999+99999999999ADDGP10060029902008053902015010102008GQ100600685910289GR100600493913519
0071724339999992000091523009+37750-089017NSRDB+014499999V020999999999999999999999999999+99999+99999999999ADDGP10060023402008050902015008002008GQ100600724925949GR100600408913529
0054724339999992000092107009+37750-089017NSRDB+014499999V020999999999999999999999999999+99999+99999999999ADDGP10060000002000000002000000002000GR100600000900009
0054724339999992000092109009+37750-089017NSRDB+014499999V020999999999999999999999999999+99999+99999999999ADDGP10060000002000000002000000002000GR100600000900009
0054724339999992000092206009+37750-089017NSRDB+014499999V020999999999999999999999999999+99999+99999999999ADDGP10060000002000000002000000002000GR100600000900009
0054724339999992000092304009+37750-089017NSRDB+014499999V020999999999999999999999999999+99999+99999999999ADDGP10060000002000000002000000002000GR100600000900009
0071724339999992000092819009+37750-089017NSRDB+014499999V020999999999999999999999999999+99999+99999999999ADDGP10060070502008069402015018302008GQ100600415919659GR100601020913629
0071724339999992000100719009+37750-089017NSRDB+014499999V020999999999999999999999999999+99999+99999999999ADDGP10060068602008073002015016802008GQ100600450919639GR100600967913699
0129724339999992000100919454+37750-089020FM-15+0144KMWA V0203501N003112200019N0160931N1+01301-00201999999ADDGF100991999999999999999999MA1103181999999MW1001REMMET051KMWA 091945Z 35006KT 10SM CLR 13/M02 A3047 RMK AO2;EQDQ01+000000PRSWM2
0071724339999992000101419009+37750-089017NSRDB+014499999V020999999999999999999999999999+99999+99999999999ADDGP10060028902008003602015026502008GQ100600477919619GR100600925913759
0071724339999992000101621009+37750-089017NSRDB+014499999V020999999999999999999999999999+99999+99999999999ADDGP10060008302008000002015008302008GQ100600613922899GR100600660913779
0054724339999992000101707009+37750-089017NSRDB+014499999V020999999999999999999999999999+99999+99999999999ADDGP10060000002000000002000000002000GR100600000900009
0236724339999992000101714003+37750-089020FM-15+0144KMWA V0200101N004110009019N0028161N1+01501+01501999999ADDGD14991+0009019GF108991999999999999999999GP10060006402008000002015006402008GQ100600752911499GR100600351913779MA1101961999999MW1101REMMET059KMWA 171355Z 01008KT 1 3/4SM BR OVC003 15/15 A3011 RMK A02;EQDQ01+000003PRSWM1Q02    003PRSWM1
0071724339999992000102115009+37750-089017NSRDB+014499999V020999999999999999999999999999+99999+99999999999ADDGP10060015802008000002015015802008GQ100600660912759GR100600560913819
0167724339999992000102415524+37750-089020FM-15+0144KMWA V0209999C000010270019N0112651N1+02401+01901999999ADDGD12991+0180019GD23991+0270019GF107991999999999999999999MA1102951999999MW1001REMMET059KMWA 241552Z 00000KT 7SM SCT065 BKN095 24/19 A3040 RMK AO2;EQDQ01+000000PRSWM2
0148724339999992000102512534+37750-089020FM-15+0144KMWA V0209999C000012200019N0032181N1+01401+01401999999ADDGF100991999999999999999999MA1102371999999MW1411REMMET054KMWA 251253Z 00000KT 2SM BCFG CLR 14/14 A3023 RMK AO2;EQDQ01+000003PRSWM1Q02    003PRSWM1
0054724339999992000103008009+37750-089017NSRDB+014499999V020999999999999999999999999999+99999+99999999999ADDGP10060000002000000002000000002000GR100600000900009
0071724339999992000103023009+37750-089017NSRDB+014499999V020999999999999999999999999999+99999+99999999999ADDGP10060000902008000002015000902008GQ100600850924799GR100600116913309
0071724339999992000110213009+37750-089017NSRDB+014499999V020999999999999999999999999999+99999+99999999999ADDGP10060000102008000002015000102008GQ100600870911149GR100600043908229
0054724339999992000110602009+37750-089017NSRDB+014499999V020999999999999999999999999999+99999+99999999999ADDGP10060000002000000002000000002000GR100600000900009
0054724339999992000111011009+37750-089017NSRDB+014499999V020999999999999999999999999999+99999+99999999999ADDGP10060000002000000002000000002000GR100600000900009
0054724339999992000111600009+37750-089017NSRDB+014499999V020999999999999999999999999999+99999+99999999999ADDGP10060000002000000002000000002000GR100600000900009
0054724339999992000111707009+37750-089017NSRDB+014499999V020999999999999999999999999999+99999+99999999999ADDGP10060000002000000002000000002000GR100600000900009
0054724339999992000111810009+37750-089017NSRDB+014499999V020999999999999999999999999999+99999+99999999999ADDGP10060000002000000002000000002000GR100600000900009
0054724339999992000112005009+37750-089017NSRDB+014499999V020999999999999999999999999999+99999+99999999999ADDGP10060000002000000002000000002000GR100600000900009
0128724339999992000112319534+37750-089020FM-15+0144KMWA V0209999C000012200019N0160931N1+01201+00101999999ADDGF100991999999999999999999MA1102071999999MW1001REMMET050KMWA 231953Z 00000KT 10SM CLR 12/01 A3014 RMK AO2;EQDQ01+000000PRSWM2
0071724339999992000112419009+37750-089017NSRDB+014499999V020999999999999999999999999999+99999+99999999999ADDGP10060015902009000002021015902009GQ100600596919279GR100600710914049
0071724339999992000120522009+37750-089017NSRDB+014499999V020999999999999999999999999999+99999+99999999999ADDGP10060011602009031302021006002009GQ100600798923089GR100600250914099
0054724339999992000121212009+37750-089017NSRDB+014499999V020999999999999999999999999999+99999+99999999999ADDGP10060000002000000002000000002000GR100600000900009
0054724339999992000121712009+37750-089017NSRDB+014499999V020999999999999999999999999999+99999+99999999999ADDGP10060000002000000002000000002000GR100600000900009
0158724339999992000121900504+37750-089020FM-15+0144KMWA V0202801N007712200019N0112651N1-00301-01101999999ADDGD12991+0075019GF104991999999999999999999MA1101561999999MW1001OC101441REMMET057KMWA 190050Z 28015G28KT 7SM SCT025 M03/M11 A2999 RMK AO2;EQDQ01+000000PRSWM2
0148724339999992000122313454+37750-089020FM-15+0144KMWA V0201501N002610300019N0160931N1-00701-01101999999ADDGD14991+0300019GF108991999999999999999999MA1103011999999MW1001REMMET055KMWA 231345Z 15005KT 10SM OVC100 M07/M11 A3042 RMK AO2;EQDQ01+000000PRSWM2
0071724339999992000122714009+37750-089017NSRDB+014499999V020999999999999999999999999999+99999+99999999999ADDGP10060000002009000002021000002009GQ100600863912329GR100600073911449
0071724339999992000122721009+37750-089017NSRDB+014499999V020999999999999999999999999999+99999+99999999999ADDGP10060016102009006402021014002009GQ100600708921689GR100600465914159
0216724339999992000123023003+37750-089020FM-15+0144KMWA V0203101N005110057019N0160931N1-00601-00901999999ADDGD14991+0057019GF108991999999999999999999GP10060001702009010202021001302009GQ100600865923729GR100600065910739MA1102271999999MW1001REMMET055KMWA 302259Z 31010KT 10SM OVC019 M06/M09 A3020 RMK AO2;EQDQ01+000000PRSWM2
0071724340139942000010114009+38750-090367NSRDB+017399999V020999999999999999999999999999+99999+99999999999ADDGP10060000502009012502021000202009GQ100600871912279GR100600047909089
037172434013994200001041053C+38750-090367FM-15+0173STL  V0203105N00725006105MN0160005N1-00065-00335101585ADDAA101000095GD13995+0061059GD24995+0082359GF108991999999999999999999MA1101525999999MW1001REMMET079KSTL 041053Z 31014KT 10SM BKN020 OVC027 M01/M03 A2998 RMK AO2 SLP158 T10061033;EQDQ01+000000PRSWM2N01 00000JPWTH 0QNNAA1D0 04020BA1 0 04020AA1D0 06027BA1 0 06027GA1 0 00020KA1D0 00026JA1 0-00033LA1 0 01000CA1 0 02998NA1 0 00000QA1 0 10158SA1D0 00031RA1 0-00006YA1 0 31014
0071724340139942000010416009+38750-090367NSRDB+017399999V020999999999999999999999999999+99999+99999999999ADDGP10060005602009000002021005602009GQ100600716914239GR100600447914159
0195724340139942000010422264+38750-090370FM-16+0172KSTL V0203001N007210075019N0112651N1-00301-00801999999ADDGD13991+0075019GD24991+0093019GF108991999999999999999999MA1102401999999MW1711REMMET071KSTL 042226Z 30014KT 7SM -SN BKN025 OVC031 M03/M08 A3024 RMK AO2 P0000;EQDQ01+000003PRSWM1Q02    003PRSWM1
0054724340139942000011108009+38750-090367NSRDB+017399999V020999999999999999999999999999+99999+99999999999ADDGP10060000002000000002000000002000GR100600000900009
0054724340139942000011307009+38750-090367NSRDB+017399999V020999999999999999999999999999+99999+99999999999ADDGP10060000002000000002000000002000GR100600000900009
0054724340139942000011502009+38750-090367NSRDB+017399999V020999999999999999999999999999+99999+99999999999ADDGP10060000002000000002000000002000GR100600000900009
033472434013994200001150653C+38750-090367FM-15+0173STL  V0202205N00365220005MN0160005N1+00175-00565103045ADDAA101000095GD11995+0762059GF102991999999999999999999MA1102955999999MW1001REMMET079KSTL 150653Z 22007KT 180V250 10SM FEW250 02/M06 A3040 RMK AO2 SLP304 T00171056;EQDQ01+000000PRSWM2N01 00000JPWTH 0QNNAA1D0 02250BA1 0 01250GA1U0 99999KA1D0 00022JA1 0-00056LA1 0 01000CA1 0 03040NA1 0 00000QA1 0 10304SA1D0 00035RA1 0 00017YA1 0 22007
037672434013994200001161353C+38750-090367FM-15+0173STL  V0203505N00315076205MN0160005N1+00395+00065102895ADDAA101000095GD11995+0457259GD23995+0762059GF107991999999999999999999MA1102845999999MW1001REMMET084KSTL 161353Z 35006KT 10SM FEW150 BKN250 04/01 A3037 RMK AO2 PRESRR SLP289 T00390006;EQDQ01+000000PRSWM2N01 00000JPWTH 0QNNAA1D0 02150BA1 0 01150AA1D0 04250BA1 0 04250GA1 0 00250KA1D0 00033JA1 0 00006LA1 0 01000CA1 0 03037NA1 0 00000QA1 0 10289SA1D0 00039RA1 0 00039YA1 0 35006
037072434013994200001170453C+38750-090367FM-15+0173STL  V0200805N00725045725MN0160005N1+00005-00395103485ADDAA101000095GD12995+0365859GD24995+0457259GF108991999999999999999999MA1103395999999MW1001REMMET078KSTL 170453Z 08014KT 10SM SCT120 OVC150 00/M04 A3053 RMK AO2 SLP348 T00001039;EQDQ01+000000PRSWM2N01 00000JPWTH 0QNNAA1D0 02120BA1 0 02120AA1D0 06150BA1 0 06150GA1 0 00150KA1D0 00025JA1 0-00039LA1 0 01000CA1 0 03053NA1 0 00000QA1 0 10348SA1D0 00032RA1 0 00000YA1 0 08014
0054724340139942000011810009+38750-090367NSRDB+017399999V020999999999999999999999999999+99999+99999999999ADDGP10060000002000000002000000002000GR100600000900009
0054724340139942000012103009+38750-090367NSRDB+017399999V020999999999999999999999999999+99999+99999999999ADDGP10060000002000000002000000002000GR100600000900009
0253724340139942000012305534+38750-090370FM-15+0172KSTL V0209999C000012200019N0048281N1-00101-00101101631ADDGD12991+0450019GF104991999999999999999999KA1999M+00281KA2999N-00221MA1101521999999MD1110081+9999MW1101REMMET104KSTL 230553Z 00000KT 3SM BR SCT150 M01/M01 A2998 RMK AO2 SLP163 T10111011 10028 21022 400331022 51008 $;EQDQ01+000003PRSWM1Q02    003PRSWM1
0787724340139942000012505596+38753-090374SOD  +0216KSTL V020999999999999999999999999999+99999+99999999999ADDAA124000096AJ100003599999999AL12400096AN1024000096KA1240M+00005KA2240N-01275MG1100039999994OE11240076020021185OE22240053624014375OE33240021599999995REMSOD59224 HR PRECIPITATION (IN): 0.00 SNOW DEPTH (IN):T     24 HR SNOWFALL (IN):0.0  24 HR MAX TEMP (F): 3224 HR MAX TEMP TIME (LST):1529 24 HR MIN TEMP (F):  924 HR MIN TEMP TIME (LST):0652 AVERAGE STATION PRESSURE:29.54  PEAK WIND SPEED (MPH): 17 PEAK WIND DIR (DEG):200 PEAK WIND TIME (LST):2118  FASTEST 2MIN SPEED (MPH): 12FASTEST 2MIN DIR (DEG):240 FASTEST 2MIN TIME (LST):1437 AVERAGE WIND SPEED (MPH): 4.8 24 HR AVG TEMP (F):21 HOURLY INCREMENTAL PRECIPITATION VALUES (IN):.00  .00  .00  .00  .00  .00  .00  .00  .00  .00  .00  .00  .00  .00  .00  .00  .00  .00  .00  .00  .00  .00  .00  .00EQDR01  0.007AAP092R02   0.07ALS030
0303724340139942000012515003+38750-090367FM-15+0173STL  V0203305N00825220005MN016000599-00615-01065102285ADDAA101000095GD11995+0091459GD22995+0243859GP10060018402008037102015010602008GQ100600779912699GR100600295914119MA1102135999999EQDN01 00000JPWTH 0QNNAA1D0 02030BA1 0 01030AA1D0 02080BA1 0 02080GA1U0 99999KA1D0 00013JA1 0-00106LA1 0 01000CA1 0 03016NA1 0 00000QA1 0 10228SA1D0 00021RA1 0-00061YA1 0 33016
034672434013994200001260853C+38750-090367FM-15+0173STL  V0203405N00415220005MN0160005N1-00895-01225102545ADDAA101000095AA203000021GF100991999999999999999999MA1102405999999MD1010051+9999MW1001REMMET081KSTL 260853Z 34008KT 10SM CLR M09/M12 A3024 RMK AO2 SLP254 60000 T10891122 50005;EQDQ01+000000PRSWM2N01 00000JPWTH 0QNNAA1D0 00000BA1 0 00000GA1U0 99999KA1D0 00010JA1 0-00122LA1 0 01000CA1 0 03024NA1 0 00000QA1 0 10254SA1D0 00016RA1 0-00089YA1 0 34008
037172434013994200001271353C+38750-090367FM-15+0173STL  V0200905N00265220005MN0160005N1-01065-01335103555ADDAA101000095GD11995+0487759GD22995+0762059GF104991999999999999999999MA1103395999999MW1001REMMET079KSTL 271353Z 09005KT 10SM FEW160 SCT250 M11/M13 A3053 RMK AO2 SLP355 T11061133;EQDQ01+000000PRSWM2N01 00000JPWTH 0QNNAA1D0 02160BA1 0 01160AA1D0 02250BA1 0 02250GA1U0 99999KA1D0 00008JA1 0-00133LA1 0 01000CA1 0 03053NA1 0 00000QA1 0 10355SA1D0 00013RA1 0-00106YA1 0 09005
0236724340139942000013008134+38750-090370FM-16+0172KSTL V0202501N005110054019N0064371N1-00501-00601999999ADDGD13991+0054019GD23991+0072019GD34991+0123019GF108991999999999999999999MA1102301999999MW1711REMMET081KSTL 300813Z 25010KT 4SM -SN BR BKN018 BKN024 OVC041 M05/M06 A3021 RMK AO2 P0000;EQDQ01+000100PRSWM3Q02+000003PRSWM1Q03    003PRSWM1
035372434013994200001311453C+38750-090367FM-15+0173STL  V0202705N00465220005MN0096005N1-00725-00835102555ADDAA101000095GF100991999999999999999999MA1102405999999MD1210011+9999MW1101MW2455REMMET077KSTL 311453Z 27009KT 6SM BR CLR M07/M08 A3024 RMK AO2 SLP255 T10721083 52001;EQDQ01+000003PRSWM1Q02    003PRSWM1N01 00070JPWTH 0QNNAA1D0 00000BA1 0 00000GA1U0 99999KA1D0 00017JA1 0-00083LA1 0 00600CA1 0 03024NA1 0 00070QA1 0 10255SA1D0 00019RA1 0-00072YA1 0 27009
039272434013994200002022053C+38750-090367FM-15+0173STL  V0202205N00575220005MN0160005N1+00505-00175102465ADDAA101000095GD11995+0457259GD22995+0762059GF104991999999999999999999MA1102345999999MD1610481+9999MW1001REMMET086KSTL 022053Z 22011KT 10SM FEW150 SCT250 05/M02 A3022 RMK AO2 SLP246 T00501017 56048 $;EQDQ01+000000PRSWM2N01 00000JPWTH 0QNNAA1D0 02150BA1 0 01150AA1D0 02250BA1 0 02250GA1U0 99999KA1D0 00029JA1 0-00017LA1 0 01000CA1 0 03022NA1 0 00000QA1 0 10246SA1D0 00041RA1 0 00050YA1 0 22011
0243724340139942000020311534+38750-090370FM-15+0172KSTL V0202701N005110360019N0144841N1+00201+00001101391ADDAJ100059199999999GD13991+0360019GF107991999999999999999999KA1999M+00331KA2999N+00111MA1101321999999MD1510041+9999MW1001REMMET093KSTL 031153Z 27010KT 9SM BKN120 02/00 A2992 RMK AO2 SLP139 4/002 T00170000 10033 20011 55004;EQDQ01+000000PRSWM2
0054724340139942000020401009+38750-090367NSRDB+017399999V020999999999999999999999999999+99999+99999999999ADDGP10060000002000000002000000002000GR100600000900009
0148724340139942000020514414+38750-090370FM-16+0172KSTL V0202701N003610084019N0160931N1-00101-00401999999ADDGD13991+0084019GF107991999999999999999999MA1103151999999MW1001REMMET055KSTL 051441Z 27007KT 10SM BKN028 M01/M04 A3046 RMK AO2;EQDQ01+000000PRSWM2
0054724340139942000020603009+38750-090367NSRDB+017399999V020999999999999999999999999999+99999+99999999999ADDGP10060000002000000002000000002000GR100600000900009
032772434013994200002061053C+38750-090367FM-15+0173STL  V0209999C00005076205MN0160005N1-00115-00285102995ADDAA101000095GD14995+0762059GF108991999999999999999999MA1102915999999MW1001REMMET072KSTL 061053Z 00000KT 10SM OVC250 M01/M03 A3039 RMK AO2 SLP299 T10111028;EQDQ01+000000PRSWM2N01 00000JPWTH 0QNNAA1D0 06250BA1 0 06250GA1 0 00250KA1D0 00027JA1 0-00028LA1 0 01000CA1 0 03039NA1 0 00000QA1 0 10299SA1D0 00030RA1 0-00011YA1 0 00000
030772434013994200002080053C+38750-090367FM-15+0173STL  V0203405N00155220005MN0160005N1+00335+00115102945ADDAA101000095GF100991999999999999999999MA1102845999999MW1001REMMET067KSTL 080053Z 34003KT 10SM CLR 03/01 A3037 RMK AO2 SLP294 T00330011;EQDQ01+000000PRSWM2N01 00000JPWTH 0QNNAA1D0 00000BA1 0 00000GA1U0 99999KA1D0 00034JA1 0 00011LA1 0 01000CA1 0 03037NA1 0 00000QA1 0 10294SA1D0 00038RA1 0 00033YA1 0 34003
0071724340139942000020822009+38750-090367NSRDB+017399999V020999999999999999999999999999+99999+99999999999ADDGP10060031302008071002015007402008GQ100600704923029GR100600472914069
0054724340139942000021304009+38750-090367NSRDB+017399999V020999999999999999999999999999+99999+99999999999ADDGP10060000002000000002000000002000GR100600000900009
0234724340139942000021405154+38750-090370FM-16+0172KSTL V0203501N003110039019N0064371N1+00201+00201999999ADDGD12991+0024019GD23991+0039019GD34991+0060019GF108991999999999999999999MA1100851999999MW1511REMMET079KSTL 140515Z 35006KT 4SM -DZ BR SCT008 BKN013 OVC020 02/02 A2978 RMK AO2 P0000;EQDQ01+000100PRSWM3Q02+000003PRSWM1Q03    003PRSWM1
0244724340139942000021623534+38750-090370FM-15+0172KSTL V0200601N004112200019N0160931N1+00401-00401103091ADDGD12991+0300019GD22991+0750019GF104991999999999999999999KA1999M+00561KA2999N+00221MA1103011999999MD1310141+9999MW1001REMMET096KSTL 162353Z 06008KT 10SM FEW100 SCT250 04/M04 A3042 RMK AO2 SLP309 T00391039 10056 20022 53014;EQDQ01+000000PRSWM2
047772434013994200002180753C+38750-090367FM-15+0173STL  V0200905N00465003355MN0012005N1+00225+00225101185ADDAA101030795GA1999+003301091GD12995+0018359GD24995+0033559GF108991999999999999999999MA1101085999999MW1101MW2455REMMET147KSTL 180753Z 09009KT 3/4SM R30R/2000VP6000FT +TSRA BR SCT006 OVC011CB 02/02 A2985 RMK AO2 SLP118 CNS LTGIC ALQDS TS ALQDS MOV NE P0121 T00220022 S;EQDQ01+000003PRSWM1Q02    003PRSWM1N01 00070JPWTH 0QNNAA1D0 02006BA1 0 02006AA1D0 06011BA1 0 06011GA1 0 00011KA1D0 00036JA1 0 00022LA1 0 00075CA1 0 02985NA1 0 00070QA1 0 10118SA1D0 00036RA1 0 00022YA1 0 09009
038172434013994200002190053C+38750-090367FM-15+0173STL  V0203105N00625004275MN0160005N1+00115+00005101825ADDAA101000025GD13995+0042759GD24995+0061059GF108991999999999999999999MA1101765999999MW1001REMMET089KSTL 190053Z 31012KT 10SM BKN014 OVC020 01/00 A3005 RMK AO2 DZE47 SLP182 P0000 T00110000;EQDQ01+000000PRSWM2N01 00000JPWTH 0QNNAA1D0 04014BA1 0 04014AA1D0 06020BA1 0 06020GA1 0 00014KA1D0 00032JA1 0 00000LA1 0 01000CA1 0 03005NA1 0 00000QA1 0 10182SA1D0 00034RA1 0 00011YA1 0 31012
0071724340139942000022021009+38750-090367NSRDB+017399999V020999999999999999999999999999+99999+99999999999ADDGP10060052902008082802015010002008GQ100600588921949GR100600723913999
036972434013994200002230653C+38750-090367FM-15+0173STL  V0201805N00465076205MN0160005N1+01615+00395101735ADDAA101000095GD11995+0457259GD24995+0762059GF108991999999999999999999MA1101795999999MW1001REMMET077KSTL 230653Z 18009KT 10SM FEW150 OVC250 16/04 A3006 RMK AO2 SLP173 T01610039;EQDQ01+000000PRSWM2N01 00000JPWTH 0QNNAA1D0 02150BA1 0 01150AA1D0 06250BA1 0 06250GA1 0 00250KA1D0 00039JA1 0 00039LA1 0 01000CA1 0 03006NA1 0 00000QA1 0 10173SA1D0 00061RA1 0 00161YA1 0 18009
0563724340139942000022600003+38750-090367SY-MT+0173STL  V0201705N01185039625MN0160005N1+02065+01395100915ADDAA101000095GD12995+0152459GD23995+0396259GD34995+0762059GF108991999999017501999999GP10060001502008003502015001302008GQ100600858925509GR100600082911289KA1120M+02281KA2180N+01501MA1100985098931REMSYN098AAXX  26004 72434 32766 81723 10206 20139 39893 40091 58000 92353 333 10228 20150 91033 555 92600;EQDQ01+000082APCTENQ02+000002APC3  Q03  00002PRCP99Q04  00003PRCP99N01 00000JPWTH 0QNNAA1D0 02050BA1 0 02050AA1D0 04130BA1 0 04130AA1D0 06250BA1 0 06250GA1 0 00130KA1D0 00057JA1 0 00139LA1 0 01000CA1 0 02982NA1 0 00000QA1 0 10091SA1D0 00069RA1 0 00206YA1 0 17023
035672434013994200002271453C+38750-090367FM-15+0173STL  V0203105N00525220005MN0160005N1+00785+00285102255ADDAA101000095GD12995+0762059GF104991999999999999999999MA1102245999999MD1310301+9999MW1001OC100871REMMET079KSTL 271453Z 31010G17KT 10SM SCT250 08/03 A3019 RMK AO2 SLP225 T00780028 53030;EQDQ01+000000PRSWM2N01 00000JPWTH 0QNNAA1D0 02250BA1 0 02250GA1U0 99999KA1D0 00037JA1 0 00028LA1 0 01000CA1 0 03019NA1 0 00000QA1 0 10225SA1D0 00046RA1 0 00078YA1 0 31010
0071724340139942000022720009+38750-090367NSRDB+017399999V020999999999999999999999999999+99999+99999999999ADDGP10060066502008088302015010102008GQ100600504920459GR100600888913949
0071724340139942000022822009+38750-090367NSRDB+017399999V020999999999999999999999999999+99999+99999999999ADDGP10060040202008075302015008602008GQ100600652923539GR100600584913949
038072434013994200002292253C+38750-090367FM-15+0173STL  V0201705N00725014635MN0160005N1+01835+00895100755ADDAA101000095GD13995+0146359GD24995+0762059GF108991999999999999999999MA1100785999999MW1001OC101081REMMET080KSTL 292253Z 17014G21KT 10SM BKN048 OVC250 18/09 A2976 RMK AO2 SLP075 T01830089;EQDQ01+000000PRSWM2N01 00000JPWTH 0QNNAA1D0 04048BA1 0 04048AA1D0 06250BA1 0 06250GA1 0 00048KA1D0 00048JA1 0 00089LA1 0 01000CA1 0 02976NA1 0 00000QA1 0 10075SA1D0 00065RA1 0 00183YA1 0 17014
0248724340139942000030108093+38750-090370FM-16+0172KSTL V0202801N009310078019N0160931N1+01201+00801999999ADDGD13991+0078019GD23991+0750019GF107991999999999999999999GP10060000002000000002000000002000GR100600000900009MA1101121999999MW1001OC101341REMMET081KSTL 010809Z 28018G26KT 10SM BKN026 BKN250 12/08 A2986 RMK AO2 PK WND 28031/0754;EQDQ01+000000PRSWM2
033672434013994200003010953C+38750-090367FM-15+0173STL  V0203105N01085074985MN0160005N1+01115+00835101235ADDAA101000095GD14995+0073259GF108991999999999999999999MA1101255999999MW1001OC101291REMMET073KSTL 010953Z 31021G25KT 10SM OVC024 11/08 A2990 RMK AO2 SLP123 T01110083;EQDQ01+000000PRSWM2N01 00000JPWTH 0QNNAA1D0 06024BA1 0 06024GA1 0 00246KA1D0 00047JA1 0 00083LA1 0 01000CA1 0 02990NA1 0 00000QA1 0 10123SA1D0 00052RA1 0 00111YA1 0 31021
0448724340139942000030212003+38750-090367SY-MT+0173STL  V0203205N00315220005MN0160005N1+00115-00065102555ADDAA101000095GD11995+0762059GF102991999999999999999999GP10060000002000000002000000002000GR100600000900009KA1999M+01611KA2120N+00061MA1102515100431MD1310081+9999REMSYN092AAXX  02124 72434 32966 23206 10011 21006 30043 40255 53008 91153 333 10161 20006 555 90212;EQDQ01  00002PRCP99Q02  00003PRCP99N01 00000JPWTH 0QNNAA1D0 02250BA1 0 01250GA1U0 99999KA1D0 00031JA1 0-00006LA1 0 01000CA1 0 03027NA1 0 00000QA1 0 10255SA1D0 00034RA1 0 00011YA1 0 32006
040472434013994200003031453C+38750-090367FM-15+0173STL  V0200605N00465023165MN0024005N1+00115+00115101955ADDAA101001395AA203004191GD14995+0021359GF108991999999999999999999MA1101905999999MD1310021+9999MW1101MW2455MW3711MW4791REMMET106KSTL 031453Z 06009KT 1 1/2SM -SNPL BR OVC007 01/01 A3009 RMK AO2 RAE27 SLP195 P0005 60016 T00110011 53002;EQDQ01+000003PRSWM1N01 00070JPWTH 0QNNAA1D0 06007BA1 0 06007GA1 0 00076KA1D0 00034JA1 0 00011LA1 0 00150CA1 0 03009NA1 0 00070QA1 0 10195SA1D0 00034RA1 0 00011YA1 0 06009
0448724340139942000030400003+38750-090367SY-MT+0173STL  V0203605N00365023165MN0096005N1+00225+00225101675ADDAA101000095GD14995+0021359GF108991999999002501999999GP10060002202008001702015002002008GQ100600850925789GR100600111912879KA1120M+00391MA1101595099531MD1110071+9999MW1101MW2455REMSYN092AAXX  04004 72434 31359 83607 10022 20022 39953 40167 51007 710// 92353 333 10039 555 90400;EQDQ01  00003PRCP99N01 00070JPWTH 0QNNAA1D0 06007BA1 0 06007GA1 0 00076KA1D0 00036JA1 0 00022LA1 0 00600CA1 0 03000NA1 0 00070QA1 0 10167SA1D0 00036RA1 0 00022YA1 0 36007
0054724340139942000030402009+38750-090367NSRDB+017399999V020999999999999999999999999999+99999+99999999999ADDGP10060000002000000002000000002000GR100600000900009
035872434013994200003042153C+38750-090367FM-15+0173STL  V0202205N003150750019N0160005N1+01335+00115101645ADDAA101000095GD11995+0274359GD23995+0762059GF107991999999999999999999MA1101595999999MW1001REMMET077KSTL 042153Z 22006KT 10SM FEW090 BKN250 13/01 A3000 RMK AO2 SLP164 T01330011;EQDQ01+000000PRSWM2N01 00000JPWTH 0QNNAA1D0 02090BA1 0 01090AA1D0 04250BA1 0 04250KA1D0 00034JA1 0 00011LA1 0 01000CA1 0 03000NA1 0 00000QA1 0 10164SA1D0 00056RA1 0 00133YA1 0 22006
0203724340139942000030523534+38750-090370FM-15+0172KSTL V0201501N005112200019N0160931N1+01701+00401101571ADDGF100991999999999999999999KA1999M+01941KA2999N+01561MA1101561999999MD1510031+9999MW1001REMMET085KSTL 052353Z 15010KT 10SM CLR 17/04 A2999 RMK AO2 SLP157 T01720039 10194 20156 55003;EQDQ01+000000PRSWM2
030772434013994200003060753C+38750-090367FM-15+0173STL  V0201605N00265220005MN0160005N1+00895+00225101805ADDAA101000095GF100991999999999999999999MA1101835999999MW1001REMMET067KSTL 060753Z 16005KT 10SM CLR 09/02 A3007 RMK AO2 SLP180 T00890022;EQDQ01+000000PRSWM2N01 00000JPWTH 0QNNAA1D0 00000BA1 0 00000GA1U0 99999KA1D0 00036JA1 0 00022LA1 0 01000CA1 0 03007NA1 0 00000QA1 0 10180SA1D0 00048RA1 0 00089YA1 0 16005
0490724340139942000030812003+38750-090367SY-MT+0173STL  V0201705N004150762019N0160005N1+01565+01065101175ADDAA101000095GD11995+0457259GD23995+0762059GF106991999999999999999999GP10060000002000000002000000002000GR100600000900009KA1999M+02831KA2120N+01281MA1101255099201MD1610131+9999REMSYN092AAXX  08124 72434 32966 61708 10156 20106 39920 40117 56013 91153 333 10283 20128 555 90812;EQDQ01  00002PRCP99Q02 999993SCOCIGQ03  00003PRCP99N01 00000JPWTH 0QNNAA1D0 02150BA1 0 01150AA1D0 04250BA1 0 04250KA1D0 00051JA1 0 00106LA1 0 01000CA1 0 02990NA1 0 00000QA1 0 10117SA1D0 00060RA1 0 00156YA1 0 17008
0071724340139942000031015009+38750-090367NSRDB+017399999V020999999999999999999999999999+99999+99999999999ADDGP10060038502008069402015010702008GQ100600664911649GR100600553913869
033172434013994200003120853C+38750-090367FM-15+0173STL  V0202905N00315220005MN0160005N1-00285-00675102455ADDAA101000095GF100991999999999999999999MA1102345999999MD1110061+9999MW1001REMMET077KSTL 120853Z 29006KT 10SM CLR M03/M07 A3022 RMK AO2 SLP245 T10281067 51006 $;EQDQ01+000000PRSWM2N01 00000JPWTH 0QNNAA1D0 00000BA1 0 00000GA1U0 99999KA1D0 00020JA1 0-00067LA1 0 01000CA1 0 03022NA1 0 00000QA1 0 10245SA1D0 00027RA1 0-00028YA1 0 29006
0071724340139942000032019009+38750-090367NSRDB+017399999V020999999999999999999999999999+99999+99999999999ADDGP10060014902008000002015014902008GQ100600391918849GR100601070913789
041372434013994200003212153C+38750-090367FM-15+0173STL  V0200405N00315071935MN0160005N1+01175+00945102535ADDAA101000095GD13995+0070159GD23995+0396259GD34995+0609659GF108991999999999999999999MA1102515999999MW1001REMMET084KSTL 212153Z 04006KT 10SM BKN023 BKN130 OVC200 12/09 A3027 RMK AO2 SLP253 T01170094;EQDQ01+000000PRSWM2N01 00000JPWTH 0QNNAA1D0 04023BA1 0 04023AA1D0 04130BA1 0 04130AA1D0 06200BA1 0 06200GA1 0 00236KA1D0 00049JA1 0 00094LA1 0 01000CA1 0 03027NA1 0 00000QA1 0 10253SA1D0 00053RA1 0 00117YA1 0 04006
0054724340139942000032311009+38750-090367NSRDB+017399999V020999999999999999999999999999+99999+99999999999ADDGP10060000002000000002000000002000GR100600000900009
031472434013994200003232153C+38750-090367FM-15+0173STL  V0201305N008250750019N0160005N1+02065+01115101925ADDAA101000095GD14995+0762059GF108991999999999999999999MA1101935999999MW1001REMMET070KSTL 232153Z 13016KT 10SM OVC250 21/11 A3010 RMK AO2 SLP192 T02060111;EQDQ01+000000PRSWM2N01 00000JPWTH 0QNNAA1D0 06250BA1 0 06250KA1D0 00052JA1 0 00111LA1 0 01000CA1 0 03010NA1 0 00000QA1 0 10192SA1D0 00069RA1 0 00206YA1 0 13016
0054724340139942000032605009+38750-090367NSRDB+017399999V020999999999999999999999999999+99999+99999999999ADDGP10060000002000000002000000002000GR100600000900009
044072434013994200003272053C+38750-090367FM-15+0173STL  V0202805N00775030485MN0160005N1+01675+00285099995ADDAA101000095GD13995+0304859GD23995+0762059GF107991999999999999999999MA1100005999999MD1610411+9999MW1001OC101341REMMET126KSTL 272053Z 28015G26KT 10SM BKN100 BKN250 17/03 A2953 RMK AO2 PK WND 28028/2013 SLP999 VIRGA NW-NE ACC ALQDS T01670028 56041;EQDQ01+000000PRSWM2N01 00000JPWTH 0QNNAA1D0 04100BA1 0 04100AA1D0 04250BA1 0 04250GA1 0 00100KA1D0 00037JA1 0 00028LA1 0 01000CA1 0 02953NA1 0 00000QA1 0 09999SA1D0 00062RA1 0 00167YA1 0 28015
0054724340139942000033107009+38750-090367NSRDB+017399999V020999999999999999999999999999+99999+99999999999ADDGP10060000002000000002000000002000GR100600000900009
0502724340139942000040112003+38750-090367SY-MT+0173STL  V0209999C00005045725MN0160005N1+00835+00445102085ADDAA101000095GD11995+0365859GD23995+0457259GF106991999999999999999999GP10060000002008000002015000002008GQ100600889908449GR100600006903089KA1999M+01831KA2120N+00781MA1102105100031MD1010151+9999REMSYN092AAXX  01124 72434 32966 60000 10083 20044 30003 40208 50015 91153 333 10183 20078 555 90112;EQDQ01  00002PRCP99Q02  00003PRCP99N01 00000JPWTH 0QNNAA1D0 02120BA1 0 01120AA1D0 04150BA1 0 04150GA1 0 00150KA1D0 00040JA1 0 00044LA1 0 01000CA1 0 03015NA1 0 00000QA1 0 10208SA1D0 00047RA1 0 00083YA1 0 00000
032572434013994200004020453C+38750-090367FM-15+0173STL  V0203205N00365024385MN0160005N1+01445+00785101285ADDAA101000095GD14995+0243859GF108991999999999999999999MA1101325999999MW1001REMMET070KSTL 020453Z 32007KT 10SM OVC080 14/08 A2992 RMK AO2 SLP128 T01440078;EQDQ01+000000PRSWM2N01 00000JPWTH 0QNNAA1D0 06080BA1 0 06080GA1 0 00080KA1D0 00046JA1 0 00078LA1 0 01000CA1 0 02992NA1 0 00000QA1 0 10128SA1D0 00058RA1 0 00144YA1 0 32007
0253724340139942000040205534+38750-090370FM-15+0172KSTL V0203401N002110210019N0160931N1+01301+00801101291ADDGD12991+0180019GD24991+0210019GF108991999999999999999999KA1999M+01831KA2999N+01331MA1101321999999MD1510081+9999MW1001REMMET105KSTL 020553Z 34004KT 10SM FEW060 OVC075 13/08 A2992 RMK AO2 SLP129 T01330083 10183 20133 401940072 55008;EQDQ01+000000PRSWM2
0071724340139942000040521009+38750-090367NSRDB+017399999V020999999999999999999999999999+99999+99999999999ADDGP10060070202008081402015013702008GQ100600462923499GR100600944913659
042772434013994200004061853C+38750-090367FM-15+0173STL  V0209999C00005045725MN0160005N1+01785+00065101085ADDAA101000095GD11995+0304859GD23995+0457259GD34995+0762059GF108991999999999999999999MA1101125999999MW1001REMMET098KSTL 061853Z 00000KT 10SM FEW100 BKN150 OVC250 18/01 A2986 RMK AO2 SLP108 VIRGA N AND S T01780006;EQDQ01+000000PRSWM2N01 00000JPWTH 0QNNAA1D0 02100BA1 0 01100AA1D0 04150BA1 0 04150AA1D0 06250BA1 0 06250GA1 0 00150KA1D0 00033JA1 0 00006LA1 0 01000CA1 0 02986NA1 0 00000QA1 0 10108SA1D0 00064RA1 0 00178YA1 0 00000
0054724340139942000040907009+38750-090367NSRDB+017399999V020999999999999999999999999999+99999+99999999999ADDGP10060000002000000002000000002000GR100600000900009
0054724340139942000041205009+38750-090367NSRDB+017399999V020999999999999999999999999999+99999+99999999999ADDGP10060000002000000002000000002000GR100600000900009
0071724340139942000041315009+38750-090367NSRDB+017399999V020999999999999999999999999999+99999+99999999999ADDGP10060052902008066802015015102008GQ100600556910749GR100600766913599
030972434013994200004131953C+38750-090367FM-15+0173STL  V0209999V00215220005MN0160005N1+01785+00565102125ADDAA101000095GF100991999999999999999999MA1102105999999MW1001REMMET069KSTL 131953Z VRB04KT 10SM CLR 18/06 A3015 RMK AO2 SLP212 T01780056 $;EQDQ01+000000PRSWM2N01 00000JPWTH 0QNNAA1D0 00000BA1 0 00000GA1U0 99999KA1D0 00042JA1 0 00056LA1 0 01000CA1 0 03015NA1 0 00000QA1 0 10212SA1D0 00064RA1 0 00178YA1 0 00004
032772434013994200004132153C+38750-090367FM-15+0173STL  V0201805N00365220005MN0160005N1+01945+00445101985ADDAA101000095GD11995+0762059GF102991999999999999999999MA1101965999999MW1001REMMET072KSTL 132153Z 18007KT 10SM FEW250 19/04 A3011 RMK AO2 SLP198 T01940044 $;EQDQ01+000000PRSWM2N01 00000JPWTH 0QNNAA1D0 02250BA1 0 01250GA1U0 99999KA1D0 00040JA1 0 00044LA1 0 01000CA1 0 03011NA1 0 00000QA1 0 10198SA1D0 00067RA1 0 00194YA1 0 18007
030972434013994200004140153C+38750-090367FM-15+0173STL  V0201105N00465220005MN0160005N1+01565+00335101865ADDAA101000095GF100991999999999999999999MA1101865999999MW1001REMMET069KSTL 140153Z 11009KT 10SM CLR 16/03 A3008 RMK AO2 SLP186 T01560033 $;EQDQ01+000000PRSWM2N01 00000JPWTH 0QNNAA1D0 00000BA1 0 00000GA1U0 99999KA1D0 00038JA1 0 00033LA1 0 01000CA1 0 03008NA1 0 00000QA1 0 10186SA1D0 00060RA1 0 00156YA1 0 11009
033672434013994200004150453C+38750-090367FM-15+0173STL  V0201905N00675220005MN0160005N1+01565+01225101375ADDAA101000095GD12995+0073259GF104991999999999999999999MA1101425999999MW1001OC100931REMMET073KSTL 150453Z 19013G18KT 10SM SCT024 16/12 A2995 RMK AO2 SLP137 T01560122;EQDQ01+000000PRSWM2N01 00000JPWTH 0QNNAA1D0 02024BA1 0 02024GA1U0 99999KA1D0 00054JA1 0 00122LA1 0 01000CA1 0 02995NA1 0 00000QA1 0 10137SA1D0 00060RA1 0 00156YA1 0 19013
0054724340139942000041607009+38750-090367NSRDB+017399999V020999999999999999999999999999+99999+99999999999ADDGP10060000002000000002000000002000GR100600000900009
041372434013994200004161853C+38750-090367FM-15+0173STL  V0201505N00825220005MN0160005N1+02005+01505101255ADDAA101000095GD11995+0091459GD22995+0396259GD32995+0762059GF104991999999999999999999MA1101325999999MW1001REMMET084KSTL 161853Z 15016KT 10SM FEW030 SCT130 SCT250 20/15 A2992 RMK AO2 SLP125 T02000150;EQDQ01+000000PRSWM2N01 00000JPWTH 0QNNAA1D0 02030BA1 0 01030AA1D0 02130BA1 0 02130AA1D0 02250BA1 0 02250GA1U0 99999KA1D0 00059JA1 0 00150LA1 0 01000CA1 0 02992NA1 0 00000QA1 0 10125SA1D0 00068RA1 0 00200YA1 0 15016
0282724340139942000042000534+38750-090370FM-15+0172KSTL V0202001N009310330019N0096561N1+02701+01801100581ADDAA101000021GD12991+0240019GD23991+0330019GD34991+0750019GF108991999999999999999999MA1100682999999MW1611REMMET132KSTL 200053Z 20018KT 6SM -RA SCT080 BKN110 OVC250 27/18 A2973 RMK AO2 PK WND 14031/0013 TSE30RAE12B52 PRESRR SLP058 P0000 T02720183;EQDQ01+000003PRSWM1Q02    003PRSWM1
0071724340139942000042123009+38750-090367NSRDB+017399999V020999999999999999999999999999+99999+99999999999ADDGP10060037202008061502015011102008GQ100600649926569GR100600573913529
030772434013994200004220353C+38750-090367FM-15+0173STL  V0203305N00215220005MN0160005N1+00945+00115101615ADDAA101000095GF100991999999999999999999MA1101595999999MW1001REMMET067KSTL 220353Z 33004KT 10SM CLR 09/01 A3000 RMK AO2 SLP161 T00940011;EQDQ01+000000PRSWM2N01 00000JPWTH 0QNNAA1D0 00000BA1 0 00000GA1U0 99999KA1D0 00034JA1 0 00011LA1 0 01000CA1 0 03000NA1 0 00000QA1 0 10161SA1D0 00049RA1 0 00094YA1 0 33004
034572434013994200004222053C+38750-090367FM-15+0173STL  V0209999V00155220005MN0160005N1+02065+00505101075ADDAA101000095GD11995+0762059GF102991999999999999999999MA1101085999999MD1810291+9999MW1001REMMET076KSTL 222053Z VRB03KT 10SM FEW250 21/05 A2985 RMK AO2 SLP107 T02060050 58029;EQDQ01+000000PRSWM2N01 00000JPWTH 0QNNAA1D0 02250BA1 0 01250GA1U0 99999KA1D0 00041JA1 0 00050LA1 0 01000CA1 0 02985NA1 0 00000QA1 0 10107SA1D0 00069RA1 0 00206YA1 0 00003
048872434013994200004240853C+38750-090367FM-15+0173STL  V0200305N00365002135MN0064005N1+01065+01065100895ADDAA101000395AA203001391GD13995+0021359GD23995+0030559GD34995+0198159GF108991999999999999999999MA1100915999999MD1510081+9999MW1101MW2455REMMET112KSTL 240853Z 03007KT 4SM BR BKN007 BKN010 OVC065 11/11 A2980 RMK AO2 RAE0759 SLP089 P0001 60005 T01060106 55008;EQDQ01+000003PRSWM1Q02    003PRSWM1N01 00070JPWTH 0QNNAA1D0 04007BA1 0 04007AA1D0 04010BA1 0 04010AA1D0 06065BA1 0 06065GA1 0 00007KA1D0 00051JA1 0 00106LA1 0 00400CA1 0 02980NA1 0 00070QA1 0 10089SA1D0 00051RA1 0 00106YA1 0 03007
036172434013994200004240953C+38750-090367FM-15+0173STL  V0200505N00465002745MN0048005N1+01115+01115100905ADDAA101000095GD14995+0027459GF108991999999999999999999MA1100915999999MW1101MW2455REMMET084KSTL 240953Z 05009KT 3SM BR OVC009 11/11 A2980 RMK AO2 CIG 006V011 SLP090 T01110111;EQDQ01+000003PRSWM1Q02    003PRSWM1N01 00070JPWTH 0QNNAA1D0 06009BA1 0 06009GA1 0 00009KA1D0 00052JA1 0 00111LA1 0 00300CA1 0 02980NA1 0 00070QA1 0 10090SA1D0 00052RA1 0 00111YA1 0 05009
040972434013994200004241653C+38750-090367FM-15+0173STL  V0200305N00625004275MN0064005N1+01115+01065101245ADDAA101000895GD12995+0030559GD24995+0042759GF108991999999999999999999MA1101225999999MW1101MW2455MW3615REMMET089KSTL 241653Z 03012KT 4SM -RA BR SCT010 OVC014 11/11 A2989 RMK AO2 SLP124 P0003 T01110106;EQDQ01+000003PRSWM1Q02    003PRSWM1N01 02070JPWTH 0QNNAA1D0 02010BA1 0 02010AA1D0 06014BA1 0 06014GA1 0 00014KA1D0 00051JA1 0 00106LA1 0 00400CA1 0 02989NA1 0 02070QA1 0 10124SA1D0 00052RA1 0 00111YA1 0 03012
032772434013994200004260853C+38750-090367FM-15+0173STL  V0209999C00005220005MN0160005N1+00675+00335101985ADDAA101000095GF100991999999999999999999MA1102005999999MD1310061+9999MW1001REMMET073KSTL 260853Z 00000KT 10SM CLR 07/03 A3012 RMK AO2 SLP198 T00670033 53006;EQDQ01+000000PRSWM2N01 00000JPWTH 0QNNAA1D0 00000BA1 0 00000GA1U0 99999KA1D0 00038JA1 0 00033LA1 0 01000CA1 0 03012NA1 0 00000QA1 0 10198SA1D0 00044RA1 0 00067YA1 0 00000
034572434013994200004280253C+38750-090367FM-15+0173STL  V0202905N00155220005MN0160005N1+01065+00895101295ADDAA101000095GD11995+0762059GF102991999999999999999999MA1101295999999MD1110141+9999MW1001REMMET076KSTL 280253Z 29003KT 10SM FEW250 11/09 A2991 RMK AO2 SLP129 T01060089 51014;EQDQ01+000000PRSWM2N01 00000JPWTH 0QNNAA1D0 02250BA1 0 01250GA1U0 99999KA1D0 00048JA1 0 00089LA1 0 01000CA1 0 02991NA1 0 00000QA1 0 10129SA1D0 00051RA1 0 00106YA1 0 29003
030772434013994200004300153C+38750-090367FM-15+0173STL  V0200705N00265220005MN0160005N1+01675+01115101985ADDAA101000095GF100991999999999999999999MA1102035999999MW1001REMMET067KSTL 300153Z 07005KT 10SM CLR 17/11 A3013 RMK AO2 SLP198 T01670111;EQDQ01+000000PRSWM2N01 00000JPWTH 0QNNAA1D0 00000BA1 0 00000GA1U0 99999KA1D0 00052JA1 0 00111LA1 0 01000CA1 0 03013NA1 0 00000QA1 0 10198SA1D0 00062RA1 0 00167YA1 0 07005
0186724340139942000050210114+38750-090370FM-16+0172KSTL V0200601N003610039019N0064371N1+01601+01601999999ADDGD13991+0039019GD24991+0180019GF108991999999999999999999MA1101591999999MW1101REMMET062KSTL 021011Z 06007KT 4SM BR BKN013 OVC060 16/16 A3000 RMK AO2;EQDQ01+000003PRSWM1Q02    003PRSWM1
0054724340139942000050602009+38750-090367NSRDB+017399999V020999999999999999999999999999+99999+99999999999ADDGP10060000002000000002000000002000GR100600000900009
034972434013994200005061353C+38750-090367FM-15+0173STL  V0201805N00625005495MN0096005N1+02115+01895101565ADDAA101000095GD13995+0054959GF107991999999999999999999MA1101665999999MW1101MW2455REMMET072KSTL 061353Z 18012KT 6SM BR BKN018 21/19 A3002 RMK AO2 SLP156 T02110189;EQDQ01+000003PRSWM1Q02    003PRSWM1N01 00070JPWTH 0QNNAA1D0 04018BA1 0 04018GA1 0 00018KA1D0 00066JA1 0 00189LA1 0 00600CA1 0 03002NA1 0 00070QA1 0 10156SA1D0 00070RA1 0 00211YA1 0 18012
0788724340139942000050705596+38753-090374SOD  +0216KSTL V020999999999999999999999999999+99999+99999999999ADDAA124011795AJ100009599999999AL12400095AN1024000095AT1MW16RA  1AT2MW01FG  5AT3MW13BR  1KA1240M+02445KA2240N+01835MG1099429999994OE11240125219011405OE22240098320011475OE33240051499999995REMSOD59224 HR PRECIPITATION (IN): 0.46 SNOW DEPTH (IN):0     24 HR SNOWFALL (IN):0.0  24 HR MAX TEMP (F): 7624 HR MAX TEMP TIME (LST):1817 24 HR MIN TEMP (F): 6524 HR MIN TEMP TIME (LST):0457 AVERAGE STATION PRESSURE:29.36  PEAK WIND SPEED (MPH): 28 PEAK WIND DIR (DEG):190 PEAK WIND TIME (LST):1140  FASTEST 2MIN SPEED (MPH): 22FASTEST 2MIN DIR (DEG):200 FASTEST 2MIN TIME (LST):1147 AVERAGE WIND SPEED (MPH):11.5 24 HR AVG TEMP (F):71 HOURLY INCREMENTAL PRECIPITATION VALUES (IN):.00  .00  .00  .00  .00  .00  .00  .00  .00  .00  .00   T    T   .01  .00  .00   T   .00  .01   T    T   .07  .18  .17
042572434013994200005071353C+38750-090367FM-15+0173STL  V0209999C00005003355MN0160005N1+01945+01945101195ADDAA101000395GD12995+0021359GD23995+0033559GD34995+0137259GF108991999999999999999999MA1101295999999MW1001REMMET096KSTL 071353Z 00000KT 10SM SCT007 BKN011 OVC045 19/19 A2991 RMK AO2 RAE22 SLP119 P0001 T01940194;EQDQ01+000000PRSWM2N01 00000JPWTH 0QNNAA1D0 02007BA1 0 02007AA1D0 04011BA1 0 04011AA1D0 06045BA1 0 06045GA1 0 00011KA1D0 00067JA1 0 00194LA1 0 01000CA1 0 02991NA1 0 00000QA1 0 10119SA1D0 00067RA1 0 00194YA1 0 00000
042872434013994200005091553C+38750-090367FM-15+0173STL  V0202505N00315014635MN0160005N1+02005+01835100545ADDAA101000595GD11995+0076259GD23995+0146359GD34995+0304859GF108991999999999999999999MA1100645999999MW1001REMMET099KSTL 091553Z 25006KT 10SM FEW025 BKN048 OVC100 20/18 A2972 RMK AO2 RAB05E29 SLP054 P0002 T02000183;EQDQ01+000000PRSWM2N01 00000JPWTH 0QNNAA1D0 02025BA1 0 01025AA1D0 04048BA1 0 04048AA1D0 06100BA1 0 06100GA1 0 00048KA1D0 00065JA1 0 00183LA1 0 01000CA1 0 02972NA1 0 00000QA1 0 10054SA1D0 00068RA1 0 00200YA1 0 25006
0270724340139942000050923254+38750-090370FM-15+0172KSTL V0203101N007710075019N0048281N1+01401+01301999999ADDAA101000391GD12991+0033019GD23991+0075019GD34991+0114019GF108991999999999999999999MA1100751999999MW1101MW2611OC101341REMMET106KSTL 092325Z 31015G26KT 3SM -RA BR FEW011 BKN025 OVC038 14/13 A2975 RMK AO2 PK WND 32026/2319 RAB15 P0001;EQDQ01+000003PRSWM1Q02    003PRSWM1
0054724340139942000051207009+38750-090367NSRDB+017399999V020999999999999999999999999999+99999+99999999999ADDGP10060000002000000002000000002000GR100600000900009
041572434013994200005122153C+38750-090367FM-15+0173STL  V0202305N00985036585MN0112005N1+03005+02335100061ADDAA101000095GA1999+013801091GD12995+0140259GD23995+0365859GF107991999999999999999999MA1100175999999MW1001OC101181REMMET110KSTL 122153Z 23019G23KT 7SM SCT046CB BKN120 30/23 A2958 RMK AO2 PK WND 23027/2122 SLP006 CB DSNT NW T03000233;EQDQ01+000000PRSWM2N01 00000JPWTH 0QNNAA1D0 02046BA1 0 02046AA1D0 04120BA1 0 04120GA1 0 00120KA1D0 00074JA1 0 00233LA1 0 00700CA1 0 02958NA1 0 00000SA1D0 00086RA1 0 00300YA1 0 23019
0071724340139942000051502009+38750-090367NSRDB+017399999V020999999999999999999999999999+99999+99999999999ADDGP10060000002008000002015000002008GQ100600896929469GR100600001901009
0071724340139942000051615009+38750-090367NSRDB+017399999V020999999999999999999999999999+99999+99999999999ADDGP10060060802008045702015030702008GQ100600487909839GR100600880913369
0071724340139942000051814009+38750-090367NSRDB+017399999V020999999999999999999999999999+99999+99999999999ADDGP10060010902008000002015010902008GQ100600601908799GR100600664913359
036972434013994200005202253C+38750-090367FM-15+0173STL  V0209999V00215018295MN0160005N1+01785+01065101705ADDAA101000095GD12995+0143359GD23995+0182959GF107991999999999999999999MA1101735999999MW1001REMMET077KSTL 202253Z VRB04KT 10SM SCT047 BKN060 18/11 A3004 RMK AO2 SLP170 T01780106;EQDQ01+000000PRSWM2N01 00000JPWTH 0QNNAA1D0 02047BA1 0 02047AA1D0 04060BA1 0 04060GA1 0 00060KA1D0 00051JA1 0 00106LA1 0 01000CA1 0 03004NA1 0 00000QA1 0 10170SA1D0 00064RA1 0 00178YA1 0 00004
0071724340139942000052301009+38750-090367NSRDB+017399999V020999999999999999999999999999+99999+99999999999ADDGP10060002502008000002015002502008GQ100600830929109GR100600162913329
048072434013994200005230253C+38750-090367FM-15+0173STL  V0201505N00625018295MN0160005N1+01835+01725100505ADDAA101000095AA203033091GA1999+013201091GD11995+0134159GD24995+0182959GF108991999999999999999999MA1100585999999MD1110131+9999MW1171MW2955REMMET125KSTL 230253Z 15012KT 10SM TS FEW044CB OVC060 18/17 A2970 RMK AO2 SLP050 FRQ LTGICCG N-E TS N-E MOV E 60130 T01830172 51013 $;EQDQ01+000003PRSWM1Q02    003PRSWM1N01 00010JPWTH 0QNNAA1D0 02044BA1 0 01044AA1D0 06060BA1 0 06060GA1 0 00060KA1D0 00063JA1 0 00172LA1 0 01000CA1 0 02970NA1 0 00010QA1 0 10050SA1D0 00065RA1 0 00183YA1 0 15012
036972434013994200005241353C+38750-090367FM-15+0173STL  V0203305N00525220005MN0160005N1+02445+01725100415ADDAA101000095GD11995+0304859GD22995+0762059GF104991999999999999999999MA1100515999999MW1001REMMET077KSTL 241353Z 33010KT 10SM FEW100 SCT250 24/17 A2968 RMK AO2 SLP041 T02440172;EQDQ01+000000PRSWM2N01 00000JPWTH 0QNNAA1D0 02100BA1 0 01100AA1D0 02250BA1 0 02250GA1U0 99999KA1D0 00063JA1 0 00172LA1 0 01000CA1 0 02968NA1 0 00000QA1 0 10041SA1D0 00076RA1 0 00244YA1 0 33010
037672434013994200005251053C+38750-090367FM-15+0173STL  V0203605N00315045725MN0160005N1+01835+00445101165ADDAA101000095GD13995+0457259GD23995+0762059GF107991999999999999999999MA1101295999999MW1001REMMET084KSTL 251053Z 36006KT 10SM BKN150 BKN250 18/04 A2991 RMK AO2 PRESRR SLP116 T01830044;EQDQ01+000000PRSWM2N01 00000JPWTH 0QNNAA1D0 04150BA1 0 04150AA1D0 04250BA1 0 04250GA1 0 00150KA1D0 00040JA1 0 00044LA1 0 01000CA1 0 02991NA1 0 00000QA1 0 10116SA1D0 00065RA1 0 00183YA1 0 36006
0054724340139942000052807009+38750-090367NSRDB+017399999V020999999999999999999999999999+99999+99999999999ADDGP10060000002000000002000000002000GR100600000900009
033672434013994200005281953C+38750-090367FM-15+0173STL  V0203105N00825007925MN0160005N1+01725+01285101255ADDAA101000095GD14995+0079259GF108991999999999999999999MA1101295999999MW1001OC101181REMMET073KSTL 281953Z 31016G23KT 10SM OVC026 17/13 A2991 RMK AO2 SLP125 T01720128;EQDQ01+000000PRSWM2N01 00000JPWTH 0QNNAA1D0 06026BA1 0 06026GA1 0 00026KA1D0 00055JA1 0 00128LA1 0 01000CA1 0 02991NA1 0 00000QA1 0 10125SA1D0 00063RA1 0 00172YA1 0 31016
030772434013994200005300053C+38750-090367FM-15+0173STL  V0201305N00675220005MN0160005N1+02115+01675101295ADDAA101000095GF100991999999999999999999MA1101355999999MW1001REMMET067KSTL 300053Z 13013KT 10SM CLR 21/17 A2993 RMK AO2 SLP129 T02110167;EQDQ01+000000PRSWM2N01 00000JPWTH 0QNNAA1D0 00000BA1 0 00000GA1U0 99999KA1D0 00062JA1 0 00167LA1 0 01000CA1 0 02993NA1 0 00000QA1 0 10129SA1D0 00070RA1 0 00211YA1 0 13013
039072434013994200005311053C+38750-090367FM-15+0173STL  V0201805N00265076205MN0128005N1+02175+02005101545ADDAA101000095GD12995+0396259GD23995+0762059GF107991999999999999999999MA1101665999999MW1001REMMET098KSTL 311053Z 18005KT 8SM SCT130 BKN250 22/20 A3002 RMK AO2 SLP154 VIRGA OHD-SE AND SW-N T02170200;EQDQ01+000000PRSWM2N01 00000JPWTH 0QNNAA1D0 02130BA1 0 02130AA1D0 04250BA1 0 04250GA1 0 00250KA1D0 00068JA1 0 00200LA1 0 00800CA1 0 03002NA1 0 00000QA1 0 10154SA1D0 00071RA1 0 00217YA1 0 18005
0054724340139942000060210009+38750-090367NSRDB+017399999V020999999999999999999999999999+99999+99999999999ADDGP10060000002000000002000000002000GR100600000900009
0231724340139942000060305534+38750-090370FM-15+0172KSTL V0203001N001512200019N0160931N1+01601+01201102331ADDGD12991+0750019GF104991999999999999999999KA1999M+02331KA2999N+01611MA1102401999999MD1010051+9999MW1001REMMET098KSTL 030553Z 30003KT 10SM SCT250 16/12 A3024 RMK AO2 SLP233 T01610122 10233 20161 402560161 50005;EQDQ01+000000PRSWM2
034572434013994200006040253C+38750-090367FM-15+0173STL  V0201105N00265076205MN0160005N1+01945+01115101915ADDAA101000095GD13995+0762059GF107991999999999999999999MA1101965999999MD1310041+9999MW1001REMMET076KSTL 040253Z 11005KT 10SM BKN250 19/11 A3011 RMK AO2 SLP191 T01940111 53004;EQDQ01+000000PRSWM2N01 00000JPWTH 0QNNAA1D0 04250BA1 0 04250GA1 0 00250KA1D0 00052JA1 0 00111LA1 0 01000CA1 0 03011NA1 0 00000QA1 0 10191SA1D0 00067RA1 0 00194YA1 0 11005
0071724340139942000060517009+38750-090367NSRDB+017399999V020999999999999999999999999999+99999+99999999999ADDGP10060014202008000002015014202008GQ100600252912419GR100601199913269
033172434013994200006061053C+38750-090367FM-15+0173STL  V0209999C00005220005MN0064005N1+01065+01065102535ADDAA101000095GF100991999999999999999999MA1102545999999MW1101MW2455REMMET069KSTL 061053Z 00000KT 4SM BR CLR 11/11 A3028 RMK AO2 SLP253 T01060106;EQDQ01+000003PRSWM1Q02    003PRSWM1N01 00070JPWTH 0QNNAA1D0 00000BA1 0 00000GA1U0 99999KA1D0 00051JA1 0 00106LA1 0 00400CA1 0 03028NA1 0 00070QA1 0 10253SA1D0 00051RA1 0 00106YA1 0 00000
0071724340139942000061011009+38750-090367NSRDB+017399999V020999999999999999999999999999+99999+99999999999ADDGP10060000002008000002015000002008GQ100600883906119GR100600014904979
051072434013994200006102253C+38750-090367FM-15+0173STL  V0202105N00415042675MN0160005N1+02725+02285101485ADDAA101000025GA1999+015001091GD11995+0076259GD22995+0167659GD32995+0243859GD44991+0420019GF108991999999999999999999MA1101595999999MW1001REMMET150KSTL 102253Z 21008KT 10SM FEW025 SCT055CB SCT080 OVC140 27/23 A3000 RMK AO2 RAB13E23 SLP148 OCNL LTGIC NW-N CB NW-N MOV E TCU DSNT SE P0000 T02720228;EQDQ01+000000PRSWM2N01 00000JPWTH 0QNNAA1D0 02025BA1 0 01025AA1D0 02055BA1 0 02055AA1D0 02080BA1 0 02080GA1 0 00140KA1D0 00073JA1 0 00228LA1 0 01000CA1 0 03000NA1 0 00000QA1 0 10148SA1D0 00081RA1 0 00272YA1 0 21008
0054724340139942000061410009+38750-090367NSRDB+017399999V020999999999999999999999999999+99999+99999999999ADDGP10060000002000000002000000002000GR100600000900009
0054724340139942000061608009+38750-090367NSRDB+017399999V020999999999999999999999999999+99999+99999999999ADDGP10060000002000000002000000002000GR100600000900009
040472434013994200006171953C+38750-090367FM-15+0173STL  V0200205N00465003665MN0160005N1+01895+01785101775ADDAA101000025GD13995+0036659GD24995+0054959GF108991999999999999999999MA1101835999999MW1615REMMET096KSTL 171953Z 02009KT 10SM -RA BKN012 OVC018 19/18 A3007 RMK AO2 RAE24B51 SLP177 P0000 T01890178;EQDQ01+000003PRSWM1Q02    003PRSWM1N01 00020JPWTH 0QNNAA1D0 04012BA1 0 04012AA1D0 06018BA1 0 06018GA1 0 00012KA1D0 00064JA1 0 00178LA1 0 01000CA1 0 03007NA1 0 00020QA1 0 10177SA1D0 00066RA1 0 00189YA1 0 02009
0071724340139942000062002009+38750-090367NSRDB+017399999V020999999999999999999999999999+99999+99999999999ADDGP10060000002008000002015000002008GQ100600879929909GR100600023906069
041472434013994200006211053C+38750-090367FM-15+0173STL  V0202405N00415042675MN0160005N1+01945+01945101091ADDAA101000095GD11995+0024459GD23995+0426759GD33995+0762059GF107991999999999999999999MA1101225999999MW1001REMMET096KSTL 211053Z 24008KT 10SM FEW008 BKN140 BKN250 19/19 A2989 RMK AO2 SLP109 VIRGA ALQDS T01940194;EQDQ01+000000PRSWM2N01 00000JPWTH 0QNNAA1D0 02008BA1 0 01008AA1D0 04140BA1 0 04140AA1D0 04250BA1 0 04250GA1 0 00140KA1D0 00067JA1 0 00194LA1 0 01000CA1 0 02989NA1 0 00000SA1D0 00067RA1 0 00194YA1 0 24008
040972434013994200006231653C+38750-090367FM-15+0173STL  V0202605N00365076205MN0160005N1+03005+02565101495ADDAA101000095GA1999+008401021GD11995+0085359GD24995+0762059GF108991999999999999999999MA1101635999999MW1001OC100931REMMET093KSTL 231653Z 26007G18KT 10SM FEW028TCU OVC250 30/26 A3001 RMK AO2 SLP149 TCU VC SE T03000256;EQDQ01+000000PRSWM2N01 00000JPWTH 0QNNAA1D0 02028BA1 0 01028AA1D0 06250BA1 0 06250GA1 0 00250KA1D0 00078JA1 0 00256LA1 0 01000CA1 0 03001NA1 0 00000QA1 0 10149SA1D0 00086RA1 0 00300YA1 0 26007
0071724340139942000062322009+38750-090367NSRDB+017399999V020999999999999999999999999999+99999+99999999999ADDGP10060035002008008902015028802008GQ100600461926619GR100600916913229
032772434013994200006252153C+38750-090367FM-15+0173STL  V0202005N00415220005MN0160005N1+03005+02115101345ADDAA101000095GD12995+0762059GF104991999999999999999999MA1101465999999MW1001REMMET072KSTL 252153Z 20008KT 10SM SCT250 30/21 A2996 RMK AO2 SLP134 T03000211 $;EQDQ01+000000PRSWM2N01 00000JPWTH 0QNNAA1D0 02250BA1 0 02250GA1U0 99999KA1D0 00070JA1 0 00211LA1 0 01000CA1 0 02996NA1 0 00000QA1 0 10134SA1D0 00086RA1 0 00300YA1 0 20008
0071724340139942000062823009+38750-090367NSRDB+017399999V020999999999999999999999999999+99999+99999999999ADDGP10060045202008058202015014102008GQ100600576927519GR100600707913229
033672434013994200006291853C+38750-090367FM-15+0173STL  V0200105N00575220005MN0160005N1+02565+01565101655ADDAA101000095GD11995+0167659GF102991999999999999999999MA1101735999999MW1001OC100771REMMET073KSTL 291853Z 01011G15KT 10SM FEW055 26/16 A3004 RMK AO2 SLP165 T02560156;EQDQ01+000000PRSWM2N01 00000JPWTH 0QNNAA1D0 02055BA1 0 01055GA1U0 99999KA1D0 00060JA1 0 00156LA1 0 01000CA1 0 03004NA1 0 00000QA1 0 10165SA1D0 00078RA1 0 00256YA1 0 01011
0483724340139942000063000003+38750-090367SY-MT+0173STL  V0203205N00365220005MN0160005N1+02505+01445101505ADDAA101000095GD11995+0182959GD22995+0762059GF104991999999017501999999GP10060024902008040702015010402008GQ100600691928369GR100600470913219KA1120M+02671MA1101595099531MD1610091+9999REMSYN086AAXX  30004 72434 32766 43207 10250 20144 39953 40150 56009 92353 333 10267 555 93000;EQDQ01  00002PRCP99Q02  00003PRCP99N01 00000JPWTH 0QNNAA1D0 02060BA1 0 01060AA1D0 02250BA1 0 02250GA1U0 99999KA1D0 00058JA1 0 00144LA1 0 01000CA1 0 03000NA1 0 00000QA1 0 10150SA1D0 00077RA1 0 00250YA1 0 32007
032572434013994200006300453C+38750-090367FM-15+0173STL  V0209999C00005076205MN0160005N1+02005+01445101625ADDAA101000095GD13995+0762059GF107991999999999999999999MA1101735999999MW1001REMMET070KSTL 300453Z 00000KT 10SM BKN250 20/14 A3004 RMK AO2 SLP162 T02000144;EQDQ01+000000PRSWM2N01 00000JPWTH 0QNNAA1D0 04250BA1 0 04250GA1 0 00250KA1D0 00058JA1 0 00144LA1 0 01000CA1 0 03004NA1 0 00000QA1 0 10162SA1D0 00068RA1 0 00200YA1 0 00000
0054724340139942000070208009+38750-090367NSRDB+017399999V020999999999999999999999999999+99999+99999999999ADDGP10060000002000000002000000002000GR100600000900009
038372434013994200007030353C+38750-090367FM-15+0173STL  V0201905N00265076205MN0160005N1+02445+02285101145ADDAA101000025GD12995+0146359GD23995+0762059GF107991999999999999999999MA1101255999999MW1001REMMET091KSTL 030353Z 19005KT 10SM SCT048 BKN250 24/23 A2990 RMK AO2 RAE00 SLP114 P0000 T02440228 $;EQDQ01+000000PRSWM2N01 00000JPWTH 0QNNAA1D0 02048BA1 0 02048AA1D0 04250BA1 0 04250GA1 0 00250KA1D0 00073JA1 0 00228LA1 0 01000CA1 0 02990NA1 0 00000QA1 0 10114SA1D0 00076RA1 0 00244YA1 0 19005
040572434013994200007032153C+38750-090367FM-15+0173STL  V0202005N00625013725MN0160005N1+03065+02565101225ADDAA101000095GA1999+013501021GD13995+0137259GD23995+0213459GF107991999999999999999999MA1101355999999MW1001REMMET097KSTL 032153Z 20012KT 10SM BKN045TCU BKN070 31/26 A2993 RMK AO2 SLP122 TCU NE-SE AND NW T03060256;EQDQ01+000000PRSWM2N01 00000JPWTH 0QNNAA1D0 04045BA1 0 04045AA1D0 04070BA1 0 04070GA1 0 00045KA1D0 00078JA1 0 00256LA1 0 01000CA1 0 02993NA1 0 00000QA1 0 10122SA1D0 00087RA1 0 00306YA1 0 20012
0054724340139942000070508009+38750-090367NSRDB+017399999V020999999999999999999999999999+99999+99999999999ADDGP10060000002000000002000000002000GR100600000900009
0071724340139942000070913009+38750-090367NSRDB+017399999V020999999999999999999999999999+99999+99999999999ADDGP10060023502008044502015009702008GQ100600718907569GR100600411913229
0054724340139942000071005009+38750-090367NSRDB+017399999V020999999999999999999999999999+99999+99999999999ADDGP10060000002000000002000000002000GR100600000900009
0220724340139942000071411534+38750-090360FM-15+0172KSTL V0202601N003612200019N0128741N1+02401+02201101341ADDGD12991+0240019GF102991999999999999999999KA1999M+02501KA2999N+02281MA1101491999999MD1510021+9999MW1001REMMET087KSTL 141153Z 26007KT 8SM FEW080 24/22 A2997 RMK AO2 SLP134 T02390217 10250 20228 55002;EQDQ01+000000PRSWM2
0071724340139942000071623009+38750-090367NSRDB+017399999V020999999999999999999999999999+99999+99999999999ADDGP10060016302008000602015016002008GQ100600582927279GR100600696913229
0231724340139942000071805534+38750-090360FM-15+0172KSTL V0202601N003112200019N0160931N1+02301+02301101681ADDGD12991+0750019GF102991999999999999999999KA1999M+02501KA2999N+02221MA1101761999999MD1010041+9999MW1001REMMET098KSTL 180553Z 26006KT 10SM FEW250 23/23 A3005 RMK AO2 SLP168 T02280228 10250 20222 402610222 50004;EQDQ01+000000PRSWM2
0214724340139942000071920103+38750-090360FM-16+0172KSTL V0200101N003110081019N0160931N1+02401+02001999999ADDGD13991+0081019GF107991999999999999999999GP10060085902008070602015022102008GQ100600254922979GR100601194913239MA1101801999999MW1001REMMET053KSTL 192010Z 01006KT 10SM BKN027 24/20 A3006 RMK AO2;EQDQ01+000000PRSWM2
0054724340139942000072607009+38750-090367NSRDB+017399999V020999999999999999999999999999+99999+99999999999ADDGP10060000002000000002000000002000GR100600000900009
0054724340139942000080410009+38750-090367NSRDB+017399999V020999999999999999999999999999+99999+99999999999ADDGP10060000002000000002000000002000GR100600000900009
0054724340139942000080603009+38750-090367NSRDB+017399999V020999999999999999999999999999+99999+99999999999ADDGP10060000002000000002000000002000GR100600000900009
0285724340139942000080705534+38750-090360FM-15+0172KSTL V0209999C000010240019N0160931N1+02701+02301101071ADDGD12991+0180019GD23991+0240019GD33991+0330019GF107991999999999999999999KA1999M+03171KA2999N+02561MA1101221999999MD1310091+9999MW1001REMMET122KSTL 070553Z 00000KT 10SM FEW060 BKN080 BKN110 27/23 A2989 RMK AO2 SLP107 ACC ALQDS T02720233 10317 20256 403440244 53009;EQDQ01+000000PRSWM2
0455724340139942000080806003+38750-090367SY-MT+0173STL  V0202705N00825033535MN0160005N1+02175+02065101625ADDAA101000395AA299000021GD11995+0045759GD22995+0182959GD34995+0335359GF108991999999002501999999GP10060000002000000002000000002000GR100600000900009MA1101735099701MW1951REMSYN080AAXX  08064 72434 31366 82617 10210 20200 39970 795// 90558 333 91027 555 90806;EQDN01 00000JPWTH 0QNNAA1D0 02015BA1 0 01015AA1D0 02060BA1 0 02060AA1D0 06110BA1 0 06110GA1 0 00110KA1D0 00069JA1 0 00206LA1 0 01000CA1 0 03004NA1 0 00000QA1 0 10162SA1D0 00071RA1 0 00217YA1 0 27016
0054724340139942000080909009+38750-090367NSRDB+017399999V020999999999999999999999999999+99999+99999999999ADDGP10060000002000000002000000002000GR100600000900009
0071724340139942000081322009+38750-090367NSRDB+017399999V020999999999999999999999999999+99999+99999999999ADDGP10060057502008068002015014602008GQ100600509925589GR100600839913319
043372434013994200008141153C+38750-090367FM-15+0173STL  V0201705N00315220005MN0112005N1+02225+02065101685ADDAA101000095GD11995+0304859GD22995+0762059GF104991999999999999999999KA1999M+02391KA2999N+02061MA1101795999999MD1310131+9999MW1001REMMET101KSTL 141153Z 17006KT 7SM FEW100 SCT250 22/21 A3006 RMK AO2 SLP168 ACC SW T02220206 10239 20206 53013;EQDQ01+000000PRSWM2N01 00000JPWTH 0QNNAA1D0 02100BA1 0 01100AA1D0 02250BA1 0 02250GA1U0 99999KA1D0 00069JA1 0 00206LA1 0 00700CA1 0 03006NA1 0 00000QA1 0 10168SA1D0 00072RA1 0 00222YA1 0 17006
0071724340139942000081521009+38750-090367NSRDB+017399999V020999999999999999999999999999+99999+99999999999ADDGP10060070702008074402015014002008GQ100600405924169GR100601012913329
0266724340139942000081614003+38750-090367FM-15+0173STL  V0200705N00365220005MN011200599+02725+02175102045ADDAA101000095GD10995+9999999GP10060031702008042602015013802008GQ100600652909239GR100600559913339MA1102175999999EQDN01 00000JPWTH 0QNNAA1D0 00000BA1 0 00000GA1U0 99999KA1D0 00071JA1 0 00217LA1 0 00700CA1 0 03017NA1 0 00000QA1 0 10204SA1D0 00081RA1 0 00272YA1 0 07007
032572434013994200008190453C+38750-090367FM-15+0173STL  V0200305N00215220005MN0160005N1+02115+01615102065ADDAA101000095GD12995+0762059GF104991999999999999999999MA1102135999999MW1001REMMET070KSTL 190453Z 03004KT 10SM SCT250 21/16 A3016 RMK AO2 SLP206 T02110161;EQDQ01+000000PRSWM2N01 00000JPWTH 0QNNAA1D0 02250BA1 0 02250GA1U0 99999KA1D0 00061JA1 0 00161LA1 0 01000CA1 0 03016NA1 0 00000QA1 0 10206SA1D0 00070RA1 0 00211YA1 0 03004
039372434013994200008211053C+38750-090367FM-15+0173STL  V0201205N00465042675MN0096005N1+02005+01785102025ADDAA101000095GD13995+0426759GD23995+0762059GF107991999999999999999999MA1102105999999MW1101MW2455REMMET079KSTL 211053Z 12009KT 6SM BR BKN140 BKN250 20/18 A3015 RMK AO2 SLP202 T02000178;EQDQ01+000003PRSWM1Q02    003PRSWM1N01 00070JPWTH 0QNNAA1D0 04140BA1 0 04140AA1D0 04250BA1 0 04250GA1 0 00140KA1D0 00064JA1 0 00178LA1 0 00600CA1 0 03015NA1 0 00070QA1 0 10202SA1D0 00068RA1 0 00200YA1 0 12009
039272434013994200008212053C+38750-090367FM-15+0173STL  V0201505N00525042675MN0128005N1+02725+02115101965ADDAA101000095GD11995+0304859GD24995+0426759GF108991999999999999999999MA1102075999999MD1810091+9999MW1001REMMET086KSTL 212053Z COR 15010KT 8SM FEW100 OVC140 27/21 A3014 RMK AO2 SLP196 T02720211 58009;EQDQ01+000000PRSWM2N01 00000JPWTH 0QNNAA1D0 02100BA1 0 01100AA1D0 06140BA1 0 06140GA1 0 00140KA1D0 00070JA1 0 00211LA1 0 00800CA1 0 03014NA1 0 00000QA1 0 10196SA1D0 00081RA1 0 00272YA1 0 15010
041372434013994200008231653C+38750-090367FM-15+0173STL  V0209999V00155220005MN0160005N1+03175+02005101825ADDAA101000095GD11995+0137259GD22995+0335359GD32995+0762059GF104991999999999999999999MA1101965999999MW1001REMMET084KSTL 231653Z VRB03KT 10SM FEW045 SCT110 SCT250 32/20 A3011 RMK AO2 SLP182 T03170200;EQDQ01+000000PRSWM2N01 00000JPWTH 0QNNAA1D0 02045BA1 0 01045AA1D0 02110BA1 0 02110AA1D0 02250BA1 0 02250GA1U0 99999KA1D0 00068JA1 0 00200LA1 0 01000CA1 0 03011NA1 0 00000QA1 0 10182SA1D0 00089RA1 0 00317YA1 0 00003
0054724340139942000082505009+38750-090367NSRDB+017399999V020999999999999999999999999999+99999+99999999999ADDGP10060000002000000002000000002000GR100600000900009
041272434013994200008281353C+38750-090367FM-15+0173STL  V0201705N00415220005MN0096005N1+02615+02395101195ADDAA101000095GD11995+0457259GD22995+0762059GF104991999999999999999999MA1101325999999MW1101MW2455REMMET098KSTL 281353Z 17008KT 6SM BR FEW150 SCT250 26/24 A2992 RMK AO2 SLP119 ACC VC E-S AND W-N T02610239;EQDQ01+000003PRSWM1Q02    003PRSWM1N01 00070JPWTH 0QNNAA1D0 02150BA1 0 01150AA1D0 02250BA1 0 02250GA1U0 99999KA1D0 00075JA1 0 00239LA1 0 00600CA1 0 02992NA1 0 00070QA1 0 10119SA1D0 00079RA1 0 00261YA1 0 17008
0071724340139942000082922009+38750-090367NSRDB+017399999V020999999999999999999999999999+99999+99999999999ADDGP10060047502008056002015015402008GQ100600551925159GR100600766913409
0071724340139942000082923009+38750-090367NSRDB+017399999V020999999999999999999999999999+99999+99999999999ADDGP10060032702008062402015007702008GQ100600664926249GR100600535913409
0071724340139942000083013009+38750-090367NSRDB+017399999V020999999999999999999999999999+99999+99999999999ADDGP10060011602008023602015007102008GQ100600790908759GR100600256913419
0071724340139942000083115009+38750-090367NSRDB+017399999V020999999999999999999999999999+99999+99999999999ADDGP10060048302008059502015015202008GQ100600562910839GR100600745913429
0164724340139942000090211174+38750-090360FM-16+0172KSTL V0209999C000012200019N0064371N1+02301+02301999999ADDGD12991+0750019GF102991999999999999999999MA1101491999999MW1101REMMET055KSTL 021117Z 00000KT 4SM BR FEW250 23/23 A2997 RMK AO2;EQDQ01+000003PRSWM1Q02    003PRSWM1
030772434013994200009050153C+38750-090367FM-15+0173STL  V0200405N00625220005MN0160005N1+02225+01615101965ADDAA101000095GF100991999999999999999999MA1102075999999MW1001REMMET067KSTL 050153Z 04012KT 10SM CLR 22/16 A3014 RMK AO2 SLP196 T02220161;EQDQ01+000000PRSWM2N01 00000JPWTH 0QNNAA1D0 00000BA1 0 00000GA1U0 99999KA1D0 00061JA1 0 00161LA1 0 01000CA1 0 03014NA1 0 00000QA1 0 10196SA1D0 00072RA1 0 00222YA1 0 04012
0071724340139942000090623009+38750-090367NSRDB+017399999V020999999999999999999999999999+99999+99999999999ADDGP10060028002008049402015010102008GQ100600688926049GR100600486913469
034472434013994200009070853C+38750-090367FM-15+0173STL  V0201305N00415220005MN0128005N1+02065+01895101765ADDAA101000095GD11995+0762059GF102991999999999999999999MA1101865999999MD1610071+9999MW1001REMMET075KSTL 070853Z 13008KT 8SM FEW250 21/19 A3008 RMK AO2 SLP176 T02060189 56007;EQDQ01+000000PRSWM2N01 00000JPWTH 0QNNAA1D0 02250BA1 0 01250GA1U0 99999KA1D0 00066JA1 0 00189LA1 0 00800CA1 0 03008NA1 0 00000QA1 0 10176SA1D0 00069RA1 0 00206YA1 0 13008
0221724340139942000090817534+38750-090360FM-15+0172KSTL V0201701N005112200019N0160931N1+02801+02101101621ADDGD12991+0096019GF104991999999999999999999KA1999M+02831KA2999N+02061MA1101731999999MD1810081+9999MW1001REMMET088KSTL 081753Z 17010KT 10SM SCT032 28/21 A3004 RMK AO2 SLP162 T02780206 10283 20206 58008;EQDQ01+000000PRSWM2
0231724340139942000091305534+38750-090360FM-15+0172KSTL V0209999C000012200019N0160931N1+01801+01201101761ADDGD12991+0750019GF102991999999999999999999KA1999M+02391KA2999N+01781MA1101831999999MD1110061+9999MW1001REMMET098KSTL 130553Z 00000KT 10SM FEW250 18/12 A3007 RMK AO2 SLP176 T01780117 10239 20178 402610178 51006;EQDQ01+000000PRSWM2
0213724340139942000091805534+38750-090360FM-15+0172KSTL V0209999C000012200019N0160931N1+01801+01201101681ADDGF100991999999999999999999KA1999M+02561KA2999N+01721MA1101761999999MD1810021+9999MW1001REMMET095KSTL 180553Z 00000KT 10SM CLR 18/12 A3005 RMK AO2 SLP168 T01780122 10256 20172 402830117 58002;EQDQ01+000000PRSWM2
0071724340139942000092001009+38750-090367NSRDB+017399999V020999999999999999999999999999+99999+99999999999ADDGP10060000002008000002015000002008GQ100600899927179GR100600000900349
030772434013994200009210953C+38750-090367FM-15+0173STL  V0200105N00155220005MN0160005N1+01065+00835101725ADDAA101000095GF100991999999999999999999MA1101735999999MW1001REMMET067KSTL 210953Z 01003KT 10SM CLR 11/08 A3004 RMK AO2 SLP172 T01060083;EQDQ01+000000PRSWM2N01 00000JPWTH 0QNNAA1D0 00000BA1 0 00000GA1U0 99999KA1D0 00047JA1 0 00083LA1 0 01000CA1 0 03004NA1 0 00000QA1 0 10172SA1D0 00051RA1 0 00106YA1 0 01003
0071724340139942000092120009+38750-090367NSRDB+017399999V020999999999999999999999999999+99999+99999999999ADDGP10060066802008072202015015102008GQ100600443921549GR100600970913579
0179724340139942000092409454+38750-090360FM-15+0172KSTL V0200101N00361002101CN0160931N1+01501+01401999999ADDGD13991+0024019GD24991+0096019GF108991999999999999999999MA1101291999999MW1001REMMET071KSTL 240945Z 01007KT 10SM BKN008 OVC032 15/14 A2991 RMKAO2 CIG 007V011;EQDQ01+000000PRSWM2
0234724340139942000092506134+38750-090360FM-16+0172KSTL V0200401N006210045019N0032181N1+01201+01101999999ADDGD12991+0027019GD23991+0045019GD34991+0099019GF108991999999999999999999MA1101491999999MW1651REMMET079KSTL 250613Z 04012KT 2SM +RA BR SCT009 BKN015 OVC033 12/11 A2997 RMK AO2 P0012;EQDQ01+000100PRSWM3Q02+000003PRSWM1Q03    003PRSWM1
0771724340139942000092705596+38753-090374SOD  +0216KSTL V020999999999999999999999999999+99999+99999999999ADDAA124000096AJ100009599999999AL12400095AN1024000095KA1240M+01945KA2240N+00505MG1100009999994OE11240071524014335OE22240044726016105OE33240015299999995REMSOD59224 HR PRECIPITATION (IN): 0.00 SNOW DEPTH (IN):0     24 HR SNOWFALL (IN):0.0  24 HR MAX TEMP (F): 6724 HR MAX TEMP TIME (LST):1628 24 HR MIN TEMP (F): 4124 HR MIN TEMP TIME (LST):0616 AVERAGE STATION PRESSURE:29.53  PEAK WIND SPEED (MPH): 16 PEAK WIND DIR (DEG):240 PEAK WIND TIME (LST):1433  FASTEST 2MIN SPEED (MPH): 10FASTEST 2MIN DIR (DEG):260 FASTEST 2MIN TIME (LST):1610 AVERAGE WIND SPEED (MPH): 3.4 24 HR AVG TEMP (F):54 HOURLY INCREMENTAL PRECIPITATION VALUES (IN):.00  .00  .00  .00  .00  .00  .00  .00  .00  .00  .00  .00  .00  .00  .00  .00  .00  .00  .00  .00  .00  .00  .00  .00EQDR01  0.007AAP092
032772434013994200009280853C+38750-090367FM-15+0173STL  V0209999C00005220005MN0160005N1+01285+01065102255ADDAA101000095GF100991999999999999999999MA1102345999999MD1110071+9999MW1001REMMET073KSTL 280853Z 00000KT 10SM CLR 13/11 A3022 RMK AO2 SLP225 T01280106 51007;EQDQ01+000000PRSWM2N01 00000JPWTH 0QNNAA1D0 00000BA1 0 00000GA1U0 99999KA1D0 00051JA1 0 00106LA1 0 01000CA1 0 03022NA1 0 00000QA1 0 10225SA1D0 00055RA1 0 00128YA1 0 00000
030772434013994200009300653C+38750-090367FM-15+0173STL  V0201905N00415220005MN0160005N1+01565+01005101975ADDAA101000095GF100991999999999999999999MA1102035999999MW1001REMMET067KSTL 300653Z 19008KT 10SM CLR 16/10 A3013 RMK AO2 SLP197 T01560100;EQDQ01+000000PRSWM2N01 00000JPWTH 0QNNAA1D0 00000BA1 0 00000GA1U0 99999KA1D0 00050JA1 0 00100LA1 0 01000CA1 0 03013NA1 0 00000QA1 0 10197SA1D0 00060RA1 0 00156YA1 0 19008
033372434013994200010010753C+38750-090367FM-15+0173STL  V0201805N00265045725MN0160005N1+01835+01175101395ADDAA101000095GD13995+0457259GF107991999999999999999999MA1101495999999MW1001REMMET078KSTL 010753Z 18005KT 10SM BKN150 18/12 A2997 RMK AO2 SLP139 ACC OHD T01830117;EQDQ01+000000PRSWM2N01 00000JPWTH 0QNNAA1D0 04150BA1 0 04150GA1 0 00150KA1D0 00053JA1 0 00117LA1 0 01000CA1 0 02997NA1 0 00000QA1 0 10139SA1D0 00065RA1 0 00183YA1 0 18005
0752724340139942000100305596+38753-090374SOD  +0216KSTL V020999999999999999999999999999+99999+99999999999ADDAA124000095AJ100009599999999AL12400095AN1024000095KA1240M+03115KA2240N+01615MG1098819999994OE11240102822013435OE22240071521015215OE33240037199999995REMSOD59224 HR PRECIPITATION (IN): 0.00 SNOW DEPTH (IN):0     24 HR SNOWFALL (IN):  .0 24 HR MAX TEMP (F): 8824 HR MAX TEMP TIME (LST):1541 24 HR MIN TEMP (F): 6124 HR MIN TEMP TIME (LST):0435 AVERAGE STATION PRESSURE:29.18  PEAK WIND SPEED (MPH): 23 PEAK WIND DIR (DEG):220 PEAK WIND TIME (LST):1343  FASTEST 2MIN SPEED (MPH): 16FASTEST 2MIN DIR (DEG):210 FASTEST 2MIN TIME (LST):1521 AVERAGE WIND SPEED (MPH): 8.3 24 HR AVG TEMP (F):75 HOURLY INCREMENTAL PRECIPITATION VALUES (IN):.00  .00  .00  .00  .00  .00  .00  .00  .00  .00  .00  .00  .00  .00  .00  .00  .00  .00  .00  .00  .00  .00  .00  .00
042472434013994200010040953C+38750-090367FM-15+0173STL  V0200105N00725015245MN0160005N1+01835+01445101185ADDAA101000095GD11995+0103659GD23995+0152459GD33995+0762059GF107991999999999999999999MA1101295999999MW1001OC100931REMMET087KSTL 040953Z 01014G18KT 10SM FEW034 BKN050 BKN250 18/14 A2991 RMK AO2 SLP118 T01830144;EQDQ01+000000PRSWM2N01 00000JPWTH 0QNNAA1D0 02034BA1 0 01034AA1D0 04050BA1 0 04050AA1D0 04250BA1 0 04250GA1 0 00050KA1D0 00058JA1 0 00144LA1 0 01000CA1 0 02991NA1 0 00000QA1 0 10118SA1D0 00065RA1 0 00183YA1 0 01014
0212724340139942000100513224+38750-090360FM-16+0172KSTL V0202701N002610015019N0032181N1+01501+01401999999ADDGD14991+0015019GF108991999999999999999999MA1101191999999MW1631REMMET087KSTL 051322Z 27005KT 2SM RA BR OVC005 15/14 A2988 RMK AO2 SFC VIS 3 RAB15 PRESRR P0005;EQDQ01+000100PRSWM3Q02+000003PRSWM1Q03    003PRSWM1
036972434013994200010061253C+38750-090367FM-15+0173STL  V0203305N00675009455MN0160005N1+00785+00505102555ADDAA101000095GD12995+0045759GD24995+0094559GF108991999999999999999999MA1102545999999MW1001REMMET077KSTL 061253Z 33013KT 10SM SCT015 OVC031 08/05 A3028 RMK AO2 SLP255 T00780050;EQDQ01+000000PRSWM2N01 00000JPWTH 0QNNAA1D0 02015BA1 0 02015AA1D0 06031BA1 0 06031GA1 0 00031KA1D0 00041JA1 0 00050LA1 0 01000CA1 0 03028NA1 0 00000QA1 0 10255SA1D0 00046RA1 0 00078YA1 0 33013
0071724340139942000100622009+38750-090367NSRDB+017399999V020999999999999999999999999999+99999+99999999999ADDGP10060029802008042302015013602008GQ100600675924219GR100600524913699
033472434013994200010071953C+38750-090367FM-15+0173STL  V0203405N00525018295MN0160005N1+00675-00615103435ADDAA101000095GD14995+0182959GF108991999999999999999999MA1103355999999MW1001REMMET079KSTL 071953Z 34010KT 310V010 10SM OVC060 07/M06 A3052 RMK AO2 SLP343 T00671061;EQDQ01+000000PRSWM2N01 00000JPWTH 0QNNAA1D0 06060BA1 0 06060GA1 0 00060KA1D0 00021JA1 0-00061LA1 0 01000CA1 0 03052NA1 0 00000QA1 0 10343SA1D0 00044RA1 0 00067YA1 0 34010
0054724340139942000100907009+38750-090367NSRDB+017399999V020999999999999999999999999999+99999+99999999999ADDGP10060000002000000002000000002000GR100600000900009
0054724340139942000101111009+38750-090367NSRDB+017399999V020999999999999999999999999999+99999+99999999999ADDGP10060000002000000002000000002000GR100600000900009
0465724340139942000101218003+38750-090367SY-MT+0173STL  V0201605N00365220005MN0160005N1+02115+00445102705ADDAA101000095GD11995+0762059GF102991999999999999999999GP10060069102008084802015010902008GQ100600468917409GR100600940913739KA1120M+02111KA2240N+00671MA1102715100631MD1810141+9999REMSYN092AAXX  12184 72434 32966 21607 10211 20044 30063 40270 58014 91753 333 10211 20067 555 91218;EQDQ01  00002PRCP99Q02  00003PRCP99N01 00000JPWTH 0QNNAA1D0 02250BA1 0 01250GA1U0 99999KA1D0 00040JA1 0 00044LA1 0 01000CA1 0 03033NA1 0 00000QA1 0 10270SA1D0 00070RA1 0 00211YA1 0 16007
032572434013994200010121953C+38750-090367FM-15+0173STL  V0201805N00365220005MN0160005N1+02285+00615102515ADDAA101000095GD12995+0762059GF104991999999999999999999MA1102545999999MW1001REMMET070KSTL 121953Z 18007KT 10SM SCT250 23/06 A3028 RMK AO2 SLP251 T02280061;EQDQ01+000000PRSWM2N01 00000JPWTH 0QNNAA1D0 02250BA1 0 02250GA1U0 99999KA1D0 00043JA1 0 00061LA1 0 01000CA1 0 03028NA1 0 00000QA1 0 10251SA1D0 00073RA1 0 00228YA1 0 18007
032572434013994200010130453C+38750-090367FM-15+0173STL  V0201705N00315076205MN0160005N1+01565+00395102315ADDAA101000095GD13995+0762059GF107991999999999999999999MA1102375999999MW1001REMMET070KSTL 130453Z 17006KT 10SM BKN250 16/04 A3023 RMK AO2 SLP231 T01560039;EQDQ01+000000PRSWM2N01 00000JPWTH 0QNNAA1D0 04250BA1 0 04250GA1 0 00250KA1D0 00039JA1 0 00039LA1 0 01000CA1 0 03023NA1 0 00000QA1 0 10231SA1D0 00060RA1 0 00156YA1 0 17006
0071724340139942000101413009+38750-090367NSRDB+017399999V020999999999999999999999999999+99999+99999999999ADDGP10060000002008000002015000002008GQ100600857910419GR100600082911129
0208724340139942000101523224+38750-090360FM-16+0172KSTL V0209999C000010054019N0048281N1+01801+01801999999ADDGD12991+0039019GD23991+0054019GD34991+0069019GF108991999999999999999999MA1101931999999MW1101REMMET069KSTL 152322Z 00000KT 3SM BR SCT013 BKN018 OVC023 18/18 A3010 RMK AO2;EQDQ01+000003PRSWM1Q02    003PRSWM1
033472434013994200010211453C+38750-090367FM-15+0173STL  V0209999C00005220005MN0160005N1+01835+01005102045ADDAA101000095GF100991999999999999999999MA1102105999999MD1310151+9999MW1001REMMET080KSTL 211453Z 00000KT 10SM CLR SCT250 18/10 A3015 RMK AO2 SLP204 T01830100 53015;EQDQ01+000000PRSWM2N01 00000JPWTH 0QNNAA1D0 00000BA1 0 00000GA1U0 99999KA1D0 00050JA1 0 00100LA1 0 01000CA1 0 03015NA1 0 00000QA1 0 10204SA1D0 00065RA1 0 00183YA1 0 00000
0071724340139942000102117009+38750-090367NSRDB+017399999V020999999999999999999999999999+99999+99999999999ADDGP10060056702008061702015019402008GQ100600529915649GR100600833913819
0256724340139942000102223534+38750-090360FM-15+0172KSTL V0201101N003610360019N0096561N1+01801+01601102711ADDAA106000021GD14991+0360019GF108991999999999999999999KA1999M+01891KA2999N+01721MA1102781999999MD1310081+9999MW1101REMMET096KSTL 222353Z 11007KT 6SM BR OVC120 18/16 A3035 RMK AO2 SLP271 60000 T01830161 10189 20172 53008;EQDQ01+000003PRSWM1Q02    003PRSWM1
039372434013994200010250953C+38750-090367FM-15+0173STL  V0201305N00315076205MN0064005N1+01725+01615102305ADDAA101000095GD12995+0426759GD24995+0762059GF108991999999999999999999MA1102375999999MW1101MW2455REMMET079KSTL 250953Z 13006KT 4SM BR SCT140 OVC250 17/16 A3023 RMK AO2 SLP230 T01720161;EQDQ01+000003PRSWM1Q02    003PRSWM1N01 00070JPWTH 0QNNAA1D0 02140BA1 0 02140AA1D0 06250BA1 0 06250GA1 0 00250KA1D0 00061JA1 0 00161LA1 0 00400CA1 0 03023NA1 0 00070QA1 0 10230SA1D0 00063RA1 0 00172YA1 0 13006
0242724340139942000102517534+38750-090360FM-15+0172KSTL V0202001N003610750019N0112651N1+02601+01601102091ADDGD12991+0420019GD23991+0750019GF107991999999999999999999KA1999M+02611KA2999N+01721MA1102171999999MD1810171+9999MW1001REMMET094KSTL 251753Z 20007KT 7SM FEW140 BKN250 26/16 A3017 RMK AO2 SLP209 T02560156 10261 20172 58017;EQDQ01+000000PRSWM2
0054724340139942000102602009+38750-090367NSRDB+017399999V020999999999999999999999999999+99999+99999999999ADDGP10060000002000000002000000002000GR100600000900009
040772434013994200010260853C+38750-090367FM-15+0173STL  V0201705N00215076205MN0080005N1+01895+01335101765ADDAA101000095GD12995+0426759GD23995+0762059GF107991999999999999999999MA1101865999999MD1810011+9999MW1055REMMET085KSTL 260853Z 17004KT 5SM HZ SCT140 BKN250 19/13 A3008 RMK AO2 SLP176 T01890133 58001;EQDQ01+000003PRSWM1Q02    003PRSWM1N01 00081JPWTH 0QNNAA1D0 02140BA1 0 02140AA1D0 04250BA1 0 04250GA1 0 00250KA1D0 00056JA1 0 00133LA1 0 00500CA1 0 03008NA1 0 00081QA1 0 10176SA1D0 00066RA1 0 00189YA1 0 17004
0469724340139942000102712003+38750-090367SY-MT+0173STL  V0202605N00155220005MN0160005N1+01565+01225101925ADDAA101000095GD11995+0426759GD22995+0762059GF104991999999999999999999GP10060000002000000002000000002000GR100600000900009KA1999M+02671KA2120N+01561MA1102005099931MD1310081+9999REMSYN092AAXX  27124 72434 32966 42603 10156 20122 39993 40192 53008 91153 333 10267 20156 555 92712;EQDQ01  00003PRCP99N01 00000JPWTH 0QNNAA1D0 02140BA1 0 01140AA1D0 02250BA1 0 02250GA1U0 99999KA1D0 00054JA1 0 00122LA1 0 01000CA1 0 03012NA1 0 00000QA1 0 10192SA1D0 00060RA1 0 00156YA1 0 26003
0071724340139942000103119009+38750-090367NSRDB+017399999V020999999999999999999999999999+99999+99999999999ADDGP10060050102008043602015024602008GQ100600543919349GR100600810913889
032572434013994200011031353C+38750-090367FM-15+0173STL  V0203305N00215220005MN0160005N1+01225+00675102515ADDAA101000095GD11995+0762059GF102991999999999999999999MA1102545999999MW1001REMMET070KSTL 031353Z 33004KT 10SM FEW250 12/07 A3028 RMK AO2 SLP251 T01220067;EQDQ01+000000PRSWM2N01 00000JPWTH 0QNNAA1D0 02250BA1 0 01250GA1U0 99999KA1D0 00044JA1 0 00067LA1 0 01000CA1 0 03028NA1 0 00000QA1 0 10251SA1D0 00054RA1 0 00122YA1 0 33004
044772434013994200011061053C+38750-090367FM-15+0173STL  V0201005N00825009755MN0080005N1+00945+00675100335ADDAA101002395GD11995+0064059GD23995+0097559GD34995+0213459GF108991999999999999999999MA1100345999999MW1615REMMET102KSTL 061053Z 10016KT 5SM -RA FEW021 BKN032 OVC070 09/07 A2963 RMK AO2 PRESFR SLP033 P0009 T00940067 $;EQDQ01+000003PRSWM1Q02    003PRSWM1N01 00020JPWTH 0QNNAA1D0 02021BA1 0 01021AA1D0 04032BA1 0 04032AA1D0 06070BA1 0 06070GA1 0 00032KA1D0 00044JA1 0 00067LA1 0 00500CA1 0 02963NA1 0 00020QA1 0 10033SA1D0 00049RA1 0 00094YA1 0 10016
0226724340139942000110612194+38750-090360FM-16+0172KSTL V0201201N007710150019N0064371N1+00801+00701999999ADDGD12991+0054019GD23991+0150019GD34991+0270019GF108991999999999999999999MA1100311999999MW1101MW2611REMMET081KSTL 061219Z 12015KT 4SM -RA BR SCT018 BKN055 OVC090 08/07 A2962 RMK AO2 P0004 $;EQDQ01+000003PRSWM1Q02    003PRSWM1
0243724340139942000110817534+38750-090360FM-15+0172KSTL V0200401N001510180019N0160931N1+00701+00101101551ADDGD13991+0180019GD24991+0420019GF108991999999999999999999KA1999M+00721KA2999N+00391MA1101521999999MD1810181+9999MW1001REMMET095KSTL 081753Z 04003KT 10SM BKN060 OVC140 07/01 A2998 RMK AO2 SLP155 T00720006 10072 20039 58018;EQDQ01+000000PRSWM2
0220724340139942000110918444+38750-090360FM-16+0172KSTL V0203001N00571001501CN0080461N1+00301+00201999999ADDGD13991+0018019GD24991+0036019GF108991999999999999999999MA1100171999999MW1101MW2611REMMET090KSTL 091844Z 30011KT 5SM -RA BR BKN006 OVC012 03/02 A2958 RMK AO2 TSE06 CIG 005V009 P0016;EQDQ01+000003PRSWM1Q02    003PRSWM1
034672434013994200011110253C+38750-090367FM-15+0173STL  V0209999V00265005185MN0160005N1+00175-00175102625ADDAA101000095GD14995+0051859GF108991999999999999999999MA1102545999999MD1310091+9999MW1001REMMET077KSTL 110253Z VRB05KT 10SM OVC017 02/M02 A3028 RMK AO2 SLP262 T00171017 53009;EQDQ01+000000PRSWM2N01 00000JPWTH 0QNNAA1D0 06017BA1 0 06017GA1 0 00017KA1D0 00029JA1 0-00017LA1 0 01000CA1 0 03028NA1 0 00000QA1 0 10262SA1D0 00035RA1 0 00017YA1 0 00005
0054724340139942000111207009+38750-090367NSRDB+017399999V020999999999999999999999999999+99999+99999999999ADDGP10060000002000000002000000002000GR100600000900009
038972434013994200011130853C+38750-090367FM-15+0173STL  V0203105N00465022865MN0160005N1+00285+00005101515ADDAA101000095GD11995+0045759GD23995+0228659GF107991999999999999999999MA1101495999999MD1610051+9999MW1001REMMET083KSTL 130853Z 31009KT 10SM FEW015 BKN075 03/00 A2997 RMK AO2 SLP151 T00280000 56005;EQDQ01+000000PRSWM2N01 00000JPWTH 0QNNAA1D0 02015BA1 0 01015AA1D0 04075BA1 0 04075GA1 0 00075KA1D0 00032JA1 0 00000LA1 0 01000CA1 0 02997NA1 0 00000QA1 0 10151SA1D0 00037RA1 0 00028YA1 0 31009
0054724340139942000111801009+38750-090367NSRDB+017399999V020999999999999999999999999999+99999+99999999999ADDGP10060000002000000002000000002000GR100600000900009
0054724340139942000111808009+38750-090367NSRDB+017399999V020999999999999999999999999999+99999+99999999999ADDGP10060000002000000002000000002000GR100600000900009
0464724340139942000111900003+38750-090367SY-MT+0173STL  V0202605N00265220005MN0160005N1+00335-00675102165ADDAA101000095GA1001+999999999GD10995+9999999GF100991001001999999001001GP10060000002000000002000000002000GR100600000900009KA1120M+00611KA2180N-00551MA1102075100001MD1310041+9999REMSYN092AAXX  19004 72434 32966 02605 10033 21067 30000 40216 53004 92353 333 10061 21055 555 91900;EQDQ01  00002PRCP99Q02  00003PRCP99N01 00000JPWTH 0QNNAA1D0 00000BA1 0 00000GA1U0 99999KA1D0 00020JA1 0-00067LA1 0 01000CA1 0 03014NA1 0 00000QA1 0 10216SA1D0 00038RA1 0 00033YA1 0 26005
030972434013994200011190453C+38750-090367FM-15+0173STL  V0202205N00215220005MN0160005N1-00225-00615102195ADDAA101000095GF100991999999999999999999MA1102105999999MW1001REMMET069KSTL 190453Z 22004KT 10SM CLR M02/M06 A3015 RMK AO2 SLP219 T10221061;EQDQ01+000000PRSWM2N01 00000JPWTH 0QNNAA1D0 00000BA1 0 00000GA1U0 99999KA1D0 00021JA1 0-00061LA1 0 01000CA1 0 03015NA1 0 00000QA1 0 10219SA1D0 00028RA1 0-00022YA1 0 22004
034672434013994200011301453C+38750-090367FM-15+0173STL  V0202805N00315008235MN0160005N1+00225-00335102925ADDAA101000095GD14995+0082359GF108991999999999999999999MA1102845999999MD1210071+9999MW1001REMMET077KSTL 301453Z 28006KT 10SM OVC027 02/M03 A3037 RMK AO2 SLP292 T00221033 52007;EQDQ01+000000PRSWM2N01 00000JPWTH 0QNNAA1D0 06027BA1 0 06027GA1 0 00027KA1D0 00026JA1 0-00033LA1 0 01000CA1 0 03037NA1 0 00000QA1 0 10292SA1D0 00036RA1 0 00022YA1 0 28006
0071724340139942000120117009+38750-090367NSRDB+017399999V020999999999999999999999999999+99999+99999999999ADDGP10060007002009000002021007002009GQ100600636915919GR100600625914079
0054724340139942000120304009+38750-090367NSRDB+017399999V020999999999999999999999999999+99999+99999999999ADDGP10060000002000000002000000002000GR100600000900009
041272434013994200012080953C+38750-090367FM-15+0173STL  V0203605N00465004885MN0144005N1+00225+00065101865ADDAA101000095GD13995+0048859GD23995+0457259GD34995+0762059GF108991999999999999999999MA1101835999999MW1001REMMET083KSTL 080953Z 36009KT 9SM BKN016 BKN150 OVC250 02/01 A3007 RMK AO2 SLP186 T00220006;EQDQ01+000000PRSWM2N01 00000JPWTH 0QNNAA1D0 04016BA1 0 04016AA1D0 04150BA1 0 04150AA1D0 06250BA1 0 06250GA1 0 00016KA1D0 00033JA1 0 00006LA1 0 00900CA1 0 03007NA1 0 00000QA1 0 10186SA1D0 00036RA1 0 00022YA1 0 36009
034972434013994200012101653C+38750-090367FM-15+0173STL  V0202605N00415007015MN0064005N1+00675+00445102075ADDAA101000095GD14995+0070159GF108991999999999999999999MA1102035999999MW1101MW2455REMMET072KSTL 101653Z 26008KT 4SM BR OVC023 07/04 A3013 RMK AO2 SLP207 T00670044;EQDQ01+000003PRSWM1Q02    003PRSWM1N01 00070JPWTH 0QNNAA1D0 06023BA1 0 06023GA1 0 00023KA1D0 00040JA1 0 00044LA1 0 00400CA1 0 03013NA1 0 00070QA1 0 10207SA1D0 00044RA1 0 00067YA1 0 26008
0054724340139942000121405009+38750-090367NSRDB+017399999V020999999999999999999999999999+99999+99999999999ADDGP10060000002000000002000000002000GR100600000900009
0147724340139942000121412094+38750-090360FM-16+0172KSTL V0202801N003110045019N0128741N1-01101-01201999999ADDGD13991+0045019GF107991999999999999999999MA1102741999999MW1001REMMET054KSTL 141209Z 28006KT 8SM BKN015 M11/M12 A3034 RMK AO2;EQDQ01+000000PRSWM2
0227724340139942000121415304+38750-090360FM-15+0172KSTL V0202901N003612200019N0048281N1-00801-01101999999ADDAA101000021GD12991+0045019GD22991+0450019GF104991999999999999999999MA1103081999999MW1101REMMET092KSTL 141530Z 29007KT 3SM R30R/4500VP6000FT -SN BR SCT015 SCT150 M08/M11 A3044 RMK AO2 P0000;EQDQ01+000003PRSWM1Q02    003PRSWM1
0071724340139942000121617009+38750-090367NSRDB+017399999V020999999999999999999999999999+99999+99999999999ADDGP10060006402009000002021006402009GQ100600655915809GR100600587914139
0071724340139942000121623009+38750-090367NSRDB+017399999V020999999999999999999999999999+99999+99999999999ADDGP10060000102009000002021000102009GQ100600870923689GR100600049909309
0315724340139942000121702534+38750-090360FM-15+0172KSTL V0203001N009810102019N0016091N1-01201-01401101571ADDAA103001391GD12991+0063019GD23991+0102019GD34991+0150019GF108991999999999999999999MA1101461999999MD1110301+9999MW1101OC101541REMMET143KSTL 170253Z 30019G30KT 1SM R30R/5500VP6000FT -SN BR SCT021 BKN034 OVC055 M12/M14 A2996 RMK AO2 PK WND 30034/0213 SLP157 60005 T11171139 51030;EQDQ01+000003PRSWM1Q02    003PRSWM1
032772434013994200012181553C+38750-090367FM-15+0173STL  V0201605N00675016765MN0160005N1-00675-01065101445ADDAA101000095GD14995+0167659GF108991999999999999999999MA1101255999999MW1001REMMET072KSTL 181553Z 16013KT 10SM OVC055 M07/M11 A2990 RMK AO2 SLP144 T10671106;EQDQ01+000000PRSWM2N01 00000JPWTH 0QNNAA1D0 06055BA1 0 06055GA1 0 00055KA1D0 00013JA1 0-00106LA1 0 01000CA1 0 02990NA1 0 00000QA1 0 10144SA1D0 00020RA1 0-00067YA1 0 16013
0071724340139942000122016009+38750-090367NSRDB+017399999V020999999999999999999999999999+99999+99999999999ADDGP10060008902009000002021008902009GQ100600714914419GR100600451914149
030972434013994200012222153C+38750-090367FM-15+0173STL  V0209999C00005220005MN0160005N1-00835-01785103305ADDAA101000095GF100991999999999999999999MA1103085999999MW1001REMMET069KSTL 222153Z 00000KT 10SM CLR M08/M18 A3044 RMK AO2 SLP330 T10831178;EQDQ01+000000PRSWM2N01 00000JPWTH 0QNNAA1D0 00000BA1 0 00000GA1U0 99999KA1D0 00000JA1 0-00178LA1 0 01000CA1 0 03044NA1 0 00000QA1 0 10330SA1D0 00017RA1 0-00083YA1 0 00000
034772434013994200012241453C+38750-090367FM-15+0173STL  V0203205N00575220005MN0160005N1-01335-01785103795ADDAA101000095GD11995+0457259GF102991999999999999999999MA1103625999999MD1310271+9999MW1001REMMET078KSTL 241453Z 32011KT 10SM FEW150 M13/M18 A3060 RMK AO2 SLP379 T11331178 53027;EQDQ01+000000PRSWM2N01 00000JPWTH 0QNNAA1D0 02150BA1 0 01150GA1U0 99999KA1D0 00000JA1 0-00178LA1 0 01000CA1 0 03060NA1 0 00000QA1 0 10379SA1D0 00008RA1 0-00133YA1 0 32011
0054724340139942000122607009+38750-090367NSRDB+017399999V020999999999999999999999999999+99999+99999999999ADDGP10060000002000000002000000002000GR100600000900009
041572434013994200012260753C+38750-090367FM-15+0173STL  V0201205N00215036585MN0160005N1-01065-01395103785ADDAA101000095GD11995+0228659GD23995+0365859GD34995+0609659GF108991999999999999999999MA1103595999999MW1001REMMET086KSTL 260753Z 12004KT 10SM FEW075 BKN120 OVC200 M11/M14 A3059 RMK AO2 SLP378 T11061139;EQDQ01+000000PRSWM2N01 00000JPWTH 0QNNAA1D0 02075BA1 0 01075AA1D0 04120BA1 0 04120AA1D0 06200BA1 0 06200GA1 0 00120KA1D0 00007JA1 0-00139LA1 0 01000CA1 0 03059NA1 0 00000QA1 0 10378SA1D0 00013RA1 0-00106YA1 0 12004
035872434013994200012270953C+38750-090367FM-15+0173STL  V0202805N00155007325MN0112005N1-00565-00675102965ADDAA101000025GD14995+0073259GF108991999999999999999999MA1102815999999MW1715REMMET087KSTL 270953Z 28003KT 7SM -SN OVC024 M06/M07 A3036 RMK AO2 SNB04 SLP296 P0000 T10561067;EQDQ01+000003PRSWM1Q02    003PRSWM1N01 00040JPWTH 0QNNAA1D0 06024BA1 0 06024GA1 0 00024KA1D0 00020JA1 0-00067LA1 0 00700CA1 0 03036NA1 0 00040QA1 0 10296SA1D0 00022RA1 0-00056YA1 0 28003
0054724340139942000122805009+38750-090367NSRDB+017399999V020999999999999999999999999999+99999+99999999999ADDGP10060000002000000002000000002000GR100600000900009
0071724340139942000122916009+38750-090367NSRDB+017399999V020999999999999999999999999999+99999+99999999999ADDGP10060004802009000002021004802009GQ100600717914309GR100600445914159
0054724345039662000010200009+38650-090650NSRDB+014199999V020999999999999999999999999999+99999+99999999999ADDGP10060000002000000002000000002000GR100600000900009
0378724345039662000010316543+38650-090650FM-15+0141SUS  V0200405N00465001835MN0048005N1+00395+00395100565ADDAA101000021GD14995+0018359GF108991999999999999999999MA1100515999999MW1101MW2455MW3615REMMET095KSUS 031654Z 04009KT 3SM -RA BR OVC006 04/04 A2968 RMK AO2 RAB41 PRESFR SLP056 P0000 T00390039;EQDQ01+000003PRSWM1Q02    003PRSWM1N01 02070JPWTH 0QNNAA1D0 06006BA1 0 06006GA1 0 00006KA1D0 00039JA1 0 00039LA1 0 00300CA1 0 02968NA1 0 02070QA1 0 10056SA1D0 00039RA1 0 00039YA1 0 04009
0054724345039662000010507009+38650-090650NSRDB+014199999V020999999999999999999999999999+99999+99999999999ADDGP10060000002000000002000000002000GR100600000900009
0335724345039662000010614543+38650-090650FM-15+0141SUS  V0202405N00465220005MN0160005N1+00285-00615102505ADDGD11995+0609659GF102991999999999999999999MA1102445999999MD1110191+9999MW1001REMMET077KSUS 061454Z 24009KT 10SM FEW200 03/M06 A3025 RMK AO2 SLP250 T00281061 51019;EQDQ01+000000PRSWM2N01 00000JPWTH 0QNNAA1D0 02200BA1 0 01200GA1U0 99999KA1D0 00021JA1 0-00061LA1 0 01000CA1 0 03025NA1 0 00000QA1 0 10250SA1D0 00037RA1 0 00028YA1 0 24009
0297724345039662000010716543+38650-090650FM-15+0141SUS  V0209999C00005220005MN0160005N1+00335-00835103315ADDGF100991999999999999999999MA1103255999999MW1001REMMET068KSUS 071654Z 00000KT 10SM CLR 03/M08 A3049 RMK AO2 SLP331 T00331083;EQDQ01+000000PRSWM2N01 00000JPWTH 0QNNAA1D0 00000BA1 0 00000GA1U0 99999KA1D0 00017JA1 0-00083LA1 0 01000CA1 0 03049NA1 0 00000QA1 0 10331SA1D0 00038RA1 0 00033YA1 0 00000
0054724345039662000011204009+38650-090650NSRDB+014199999V020999999999999999999999999999+99999+99999999999ADDGP10060000002000000002000000002000GR100600000900009
0383724345039662000011505543+38650-090650FM-15+0141SUS  V0202105N00315220005MN0160005N1+00115-00785103065ADDGD12995+0762059GF104991999999999999999999KA1999M+00391KA2999N+00111MA1102985999999MD1610111+9999MW1001REMMET099KSUS 150554Z 21006KT 10SM SCT250 01/M08 A3041 RMK AO2 SLP306 T00111078 10039 20011 400611100 56011;EQDQ01+000000PRSWM2N01 00000JPWTH 0QNNAA1D0 02250BA1 0 02250GA1U0 99999KA1D0 00018JA1 0-00078LA1 0 01000CA1 0 03041NA1 0 00000QA1 0 10306SA1D0 00034RA1 0 00011YA1 0 21006
0359724345039662000011710543+38650-090650FM-15+0141SUS  V0201005N00575045725MN0160005N1+00005-00565103115ADDGD12995+0134159GD24995+0457259GF108991999999999999999999MA1103055999999MW1001REMMET078KSUS 171054Z 10011KT 10SM SCT044 OVC150 00/M06 A3043 RMK AO2 SLP311 T00001056;EQDQ01+000000PRSWM2N01 00000JPWTH 0QNNAA1D0 02044BA1 0 02044AA1D0 06150BA1 0 06150GA1 0 00150KA1D0 00022JA1 0-00056LA1 0 01000CA1 0 03043NA1 0 00000QA1 0 10311SA1D0 00032RA1 0 00000YA1 0 10011
0298724345039662000012016543+38650-090650FM-15+0141SUS  V0203405N00675220005MN0160005N1-00675-01615102715ADDGF100991999999999999999999MA1102615999999MW1001REMMET069KSUS 201654Z 34013KT 10SM CLR M07/M16 A3030 RMK AO2 SLP271 T10671161;EQDQ01+000000PRSWM2N01 00000JPWTH 0QNNAA1D0 00000BA1 0 00000GA1U0 99999KA1D0 00003JA1 0-00161LA1 0 01000CA1 0 03030NA1 0 00000QA1 0 10271SA1D0 00020RA1 0-00067YA1 0 34013
0071724345039662000012120009+38650-090650NSRDB+014199999V020999999999999999999999999999+99999+99999999999ADDGP10060049102008083902015008702008GQ100600613920049GR100600678914139
0054724345039662000012206009+38650-090650NSRDB+014199999V020999999999999999999999999999+99999+99999999999ADDGP10060000002000000002000000002000GR100600000900009
