0369716300999992000022412004+44970-079300SY-MT+0282CYQA V0201501N002110135019N0032001N1+00371+00371102371ADDAA106000891AJ100139199999999GD14991+0135099GF108991999999012501999999IA1279KA1999M+00871KA2120N+00201MA1102271098901MD1710041+9999MW1101REMSYN094AAXX  24124 71630 13632 81504 10037 20037 39890 40237 57004 69981 333 10087 20020 43013 70014;MET086CYQA 241200Z 15004KT 120V180 2SM BR OVC045 04/04 A3020 RMK SC8 OCNL BRK IN OVC SLP237;EQDQ01+000003PRSWM1Q02    003PRSWM1
0153716300999992000022802004+44970-079300FM-15+0282CYQA V0202501N003610048019N0241401N1+00301+00201101361ADDGD14991+0048099GF108991999999999999999999MA1101291999999MW1001REMMET060CYQA 280200Z 25007KT 15SM OVC016 03/02 A2991 RMK SC8 SLP136;EQDQ01+000000PRSWM2
0187716300999992000022816354+44970-079300FM-16+0282CYQA V0202801N006210060019N0241401N1+99999+99999999999ADDGD13991+0060099GD23991+0240099GF107991999999999999999999MW1001OC100931REMMET086CYQA 281635Z 28012G18KT 230V310 15SM BKN020 BKN080 RMK SC6AS1 SUN DMLY VSBL CU ASOCTD;EQDQ01+000000PRSWM2
0278716300999992000030121004+44970-079300SY-MT+0282CYQA V0201801N003610036019N0032001N1+00621+00591099921ADDGD12991+0021099GD24991+0036099GF108991999999002501999999MA1099831096531MD1710251+9999MW1611REMSYN066AAXX  01214 71630 41332 81807 10062 20059 39653 49992 57025 761//;MET084CYQA 012100Z 18007KT 150V210 2SM -RA BR SCT007 OVC012 06/06 A2948 RMK SF4SC4 SLP992;EQDQ01    003PRSWM1
0212716300999992000032006004+44970-079300FM-12+0282CYQA V02099999999999999999N9999999N1+99999+99999999999ADDAA106007191AA224008591KA1240M+00491KA2240N-00521OA132499999REMSYN122AAXX  20064 71630 11/// ///// 1//// 2//// 3//// 4//// 5//// 60071 7//// 8//// 333 10049 21052 70085 90993 555 31120 40170;EQDQ01  01032WGOSPD
0180716300999992000032902004+44970-079300FM-15+0282CYQA V0202701N00511000151CN0010061N1+00001+00001098931ADDGD15991+0001599GF109991999999000251999999MA1098821999999MW1711REMMET071CYQA 290200Z 27010KT 5/8SM -SN VV004 00/M00 A2918 RMK SN8 /S02/ SLP893;EQDQ01+000003PRSWM1Q02    003PRSWM1
0218716300999992000040706004+44970-079300FM-12+0282CYQA V02099999999999999999N9999999N1+99999+99999999999ADDAA106000591AA224003791AC12I9KA1240M+00371KA2240N-00201OA132499999REMSYN122AAXX  07064 71630 11/// ///// 1//// 2//// 3//// 4//// 5//// 69941 7//62 8//// 333 10037 21020 70037 90969 555 32730 40210;EQDQ01  01542WGOSPD
0163716300999992000041019554+44970-079300FM-16+0282CYQA V0202601N006210039019N0160931N1+99999+99999999999ADDGD14991+0039099GF108991999999999999999999MW1001MW2851OC101031REMMET071CYQA 101955Z 26012G20KT 230V300 10SM -SHSN OVC013 RMK SC8 PCPN VRY LGT;EQDQ01+000003PRSWM1
0186716300999992000041822004+44970-079300FM-15+0282CYQA V0201601N004610075019N0241401N1+00701+00201101771ADDGD13991+0075099GD24991+0210099GF108991999999999999999999MA1101691999999MW1001REMMET078CYQA 182200Z 16009KT 130V200 15SM BKN025 OVC075 07/02 A3003 RMK SC5AS3 SLP177;EQDQ01+000000PRSWM2
0137716300999992000042119064+44970-079300FM-16+0282CYQA V0200501N004610024019N0193121N1+99999+99999999999ADDGD14991+0024099GF108991999999999999999999MW1001MW2611REMMET053CYQA 211906Z 05009KT 020V090 12SM -RA OVC008 RMK SC8;EQDQ01+000003PRSWM1
0137716300999992000042119344+44970-079300FM-16+0282CYQA V0200401N004110027019N0160931N1+99999+99999999999ADDGD14991+0027099GF108991999999999999999999MW1001MW2611REMMET053CYQA 211934Z 04008KT 350V090 10SM -RA OVC009 RMK SC8;EQDQ01+000003PRSWM1
0168716300999992000042617004+44970-079300FM-15+0282CYQA V0200601N004612200019N0241401N1+01101-01101101971ADDGD12991+0660099GF104991999999999999999999MA1101861999999MW1001REMMET075CYQA 261700Z 06009KT 360V180 15SM SCT220 11/M11 A3008 RMK CI1 COTRA SLP197;EQDQ01+000000PRSWM2
0159716300999992000050401004+44970-079300FM-15+0282CYQA V0201801N002110750019N0241401N1+01501+00301102151ADDGD13991+0750099GF107991999999999999999999MA1102101999999MW1001REMMET066CYQA 040100Z 18004KT 15SM BKN250 15/03 A3015 RMK CI3 COTRA SLP215;EQDQ01+000000PRSWM2
0395716300999992000050812004+44970-079300SY-MT+0282CYQA V0201401N00311009001CN0080001N1+01821+01651100941ADDAA106000791AA224006291AY191061AY221061GD13991+0090099GD23991+0330099GF107991071051008001061001KA1999M+02341KA2120N+01551MA1100951097621MD1710031+9999MW1101MW2251REMSYN106AAXX  08124 71630 11558 71406 10182 20165 39762 40094 57003 69901 72592 87560 333 10234 20155 70062 90999;MET091CYQA 081200Z 14006KT 100V190 5SM BR BKN030 BKN110 18/17 A2981 RMK SC6AC1 TCU ASOCTD SLP094;EQDQ01    003PRSWM1
0127716300999992000050912304+44970-079300FM-16+0282CYQA V0202801N004610030019N0160931N1+99999+99999999999ADDGD14991+0030099GF108991999999999999999999MW1001REMMET049CYQA 091230Z 28009KT 10SM OVC010 RMK SC8 CIG RGD;EQDQ01+000000PRSWM2
0186716300999992000051017004+44970-079300FM-15+0282CYQA V0203601N003610015019N0048281N1+01201+01201099981ADDGD14991+0015099GF108991999999999999999999MA1099931999999MW1101MW2611REMMET071CYQA 101700Z 36007KT 3SM -RA BR OVC005 12/12 A2951 RERA RMK SF8 SLP998;EQDQ01+000003PRSWM1Q02    003PRSWM1
0241716300999992000052121004+44970-079300SY-MT+0282CYQA V0202701N002112200019N0240001N1+01971+00031101371ADDGD12991+0900099GF102991999999999999999999MA1101321097981MD1610171+9999MW1001REMSYN060AAXX  21214 71630 42974 22704 10197 20003 39798 40137 56017;MET068CYQA 212100Z 27004KT 15SM FEW300 20/00 A2992 RMK CI1 WND L/V SLP137;EQDQ01+000000PRSWM2
0193716300999992000052319354+44970-079300FM-16+0282CYQA V0201201N005710042019N0048281N1+99999+99999999999ADDGD13991+0042099GD24991+0120099GF108991999999999999999999MW1001MW2801OC100821REMMET070CYQA 231935Z 12011G16KT 090V160 3SM -SHRA BR BKN014 OVC040 RMK SF4SC4;EQDQ01+000100PRSWM3Q02+000003PRSWM1
0153716300999992000052923004+44970-079300FM-15+0282CYQA V0201401N002612200019N0241401N1+01901+01001101801ADDGD12991+0150099GF102991999999999999999999MA1101761999999MW1001REMMET060CYQA 292300Z 14005KT 15SM FEW050 19/10 A3005 RMK SC2 SLP180;EQDQ01+000000PRSWM2
0131716300999992000060311004+44970-079300FM-15+0282CYQA V0203201N001512200019N0241401N1+00701+00601102371ADDGF100991999999999999999999MA1102301999999MW1001REMMET053CYQA 031100Z 32003KT 15SM SKC 07/06 A3021 RMK SLP237;EQDQ01+000000PRSWM2
0161716300999992000060817004+44970-079300FM-15+0282CYQA V0202501N003610150019N0241401N1+02001+01201100961ADDGD14991+0150099GF108991999999999999999999MA1100911999999MW1001REMMET068CYQA 081700Z 25007KT 200V290 15SM OVC051 20/12 A2980 RMK SC8 SLP096;EQDQ01+000000PRSWM2
0175716300999992000060913184+44970-079300FM-16+0282CYQA V0200701N002610030019N0241401N1+99999+99999999999ADDGD12991+0021099GD24991+0030099GF108991999999999999999999MW1001MW2611REMMET076CYQA 091318Z 07005KT 040V120 15SM -RA SCT007 OVC010 RMK SF3SC5 PCPN VRY LGT;EQDQ01+000003PRSWM1
0251716300999992000061114004+44970-079300FM-15+0282CYQA V0200901N004110018019N0024141N1+01201+01201101501ADDGD12991+0009099GD24991+0018099GF108991999999999999999999MA1101521999999MW1101MW2511REMMET121CYQA 111400Z 09008KT 060V120 1 1/2SM -DZ BR SCT003 OVC006 12/12 A2998 RMK FG1SF3SC4 CIG RGD VSBY 1-2 PCPN VRY LGT SLP150;EQDQ01+000003PRSWM1Q02    003PRSWM1
0274716300999992000062015004+44960-079300SY-MT+0282CYQA V0201801N003110750019N0190001N1+02031+01161102181ADDGD12991+0450099GD23991+0750099MA1102171098791MD1610101+9999MW1001REMSYN060AAXX  20154 71630 42969 61806 10203 20116 39879 40218 56010;MET096CYQA 201500Z 18006KT 12SM FEW150 BKN250 20/12 A3017 RMK AC1CS1 HZ AS ASOCTD HALO WND L/V SLP218;EQDQ01+000062SCOTCVQ02+000000PRSWM2
0205716300999992000062422004+44960-079300FM-15+0282CYQA V0201601N003110180019N0128741N1+02201+01701101391ADDGD12991+0144099GD23991+0180099GD34991+0210099GF108991999999999999999999MA1101391999999MW1001REMMET082CYQA 242200Z 16006KT 8SM FEW048 BKN061 OVC076 22/17 A2994 RMK SC2SC2AC3 HZ SLP139;EQDQ01+000000PRSWM2
0194716300999992000062711404+44960-079300FM-16+0282CYQA V0202201N001010180019N0193121N1+99999+99999999999ADDGD12991+0021099GD23991+0180099GD33991+0360099GD43991+0750099GF107991999999999999999999MW1001REMMET071CYQA 271140Z 22002KT 12SM FEW007 BKN068 BKN120 BKN250 RMK SF1AC4AS1CI1;EQDQ01+000000PRSWM2
0217716300999992000062914064+44960-079300FM-16+0282CYQA V0202301N001510240019N0193121N1+99999+99999999999ADDGD12991+0075099GD23991+0240099GD34991+0750099GF108991999999999999999999MW1001MW2611REMMET103CYQA 291406Z CCA23003KT 12SM -RA SCT025 BKN080 OVC250 RMK CU4AC3CI0 TCU AS ASOCTD WND L/V PCPN VRY LGT;EQDQ01+000003PRSWM1
0160716300999992000063006004+44960-079300FM-12+0282CYQA V02099999999999999999N9999999N1+99999+99999999999ADDAA106000791AA224002691KA1240M+01691KA2240N+01041REMSYN100AAXX  30064 71630 13/// ///// 1//// 2//// 3//// 4//// 5//// 69901 8//// 333 10169 20104 70026 90999;
0153716300999992000070502004+44960-079300FM-15+0282CYQA V0202901N001012200019N0241401N1+01501+01101101341ADDGF100991999999999999999999MA1101351999999MW1001REMMET075CYQA 050200Z 29002KT 15SM SKC 15/11 A2993 RMK LAST OB / NEXT 051000 SLP134;EQDQ01+000000PRSWM2
0153716300999992000071010004+44960-079300FM-15+0282CYQA V0203201N003110030019N0241401N1+01601+01501100691ADDGD13991+0030099GF107991999999999999999999MA1100681999999MW1001REMMET060CYQA 101000Z 32006KT 15SM BKN010 16/15 A2973 RMK SC7 SLP069;EQDQ01+000000PRSWM2
0180716300999992000071512544+44960-079300FM-16+0282CYQA V0209999C000010012019N0064371N1+99999+99999999999ADDGD13991+0012099GD23991+0240099GF107991999999999999999999MW1001MW2101REMMET081CYQA 151254Z 00000KT 4SM BR BKN004 BKN080 RMK SC7AS1 CIG RGD TR AS SUN DMLY VSBL;EQDQ01+000003PRSWM1
0262716300999992000071519004+44960-079300FM-15+0282CYQA V0201501N002110075019N0160931N1+01901+01701100721ADDGA1999+007509099GD13991+0075099GD23991+0240099GD34991+0750099GF108991999999999999999999MA1100711999999MW1801MW2951REMMET101CYQA 151900Z 15004KT 10SM -TSRA BKN025CB BKN080 OVC250 19/17 A2974 RMK CB5AS2CI1 PCPN VRY LGT SLP072;EQDQ01+000003PRSWM1Q02    003PRSWM1
0186716300999992000071523074+44960-079300FM-16+0282CYQA V0200801N002110081019N0112651N1+99999+99999999999ADDGD12991+0030099GD23991+0081099GD34991+0270099GF108991999999999999999999MW1001REMMET078CYQA 152307Z 08004KT 7SM FEW010 BKN027 OVC099 RMK CF1SC5AC2 TCU EMBDD WND L/V;EQDQ01+000000PRSWM2
0241716300999992000072510004+44960-079300FM-15+0282CYQA V0209999C000012200019N0160931N1+01001+00901102261ADDGD12991+0150099GD22991+0300099GD32991+0750099GF102991999999999999999999MA1102241999999MW1121REMMET102CYQA 251000Z 00000KT 10SM MIFG FEW050 FEW100 FEW250 10/09 A3019 RMK SC1AC1CI0 TR SC AC DSNT SE SLP226;EQDQ01+000003PRSWM1Q02    003PRSWM1
0211716300999992000072522004+44960-079300FM-15+0282CYQA V0201401N004110240019N0241401N1+02501+01501102191ADDGD12991+0150099GD23991+0240099GD33991+0750099GF107991999999999999999999MA1102171999999MW1001REMMET088CYQA 252200Z 14008KT 100V170 15SM FEW055 BKN080 BKN250 25/15 A3017 RMK CU2AC2CS1 SLP219;EQDQ01+000000PRSWM2
0196716300999992000072711004+44960-079300FM-15+0282CYQA V0201201N001010750019N0048281N1+01601+01501102121ADDGD12991+0480099GD23991+0750099GF107991999999999999999999MA1102131999999MW1101REMMET072CYQA 271100Z 12002KT 3SM BR FEW160 BKN250 16/15 A3016 RMK AC2CI2 SLP212;EQDQ01+000003PRSWM1Q02    003PRSWM1
0171716300999992000073114004+44960-079300FM-15+0282CYQA V0201401N003110015019N0064371N1+02201+02001101731ADDGD14991+0015099GF108991999999999999999999MA1101731999999MW1101REMMET062CYQA 311400Z 14006KT 4SM BR OVC005 22/20 A3004 RMK SF8 SLP173;EQDQ01+000003PRSWM1Q02    003PRSWM1
0204716300999992000073120004+44960-079300FM-15+0282CYQA V0201301N003610048019N0064371N1+02501+02101101601ADDGD13991+0048099GD24991+0300099GF108991999999999999999999MA1101631999999MW1051REMMET080CYQA 312000Z 13007KT 090V180 4SM HZ BKN016 OVC100 25/21 A3001 RMK SC6AS2 SLP160;EQDQ01+000003PRSWM1Q02    003PRSWM1
0394716300999992000080112004+44960-079300SY-MT+0282CYQA V0201801N00311000901CN0012001N1+02051+01991101301ADDAA106000891AA224134091AC11C9AY141061AY221061GD14991+0009099GF108991081061000751999999KA1999M+02511KA2120N+01901MA1101321097971MD1410001+9999MW1101MW2251OA132401131REMSYN122AAXX  01124 71630 11112 81806 10205 20199 39797 40130 54000 69981 72542 886// 333 10251 20190 71340 90910 555 32722 40000;MET072CYQA 011200Z 18006KT 140V220 3/4SM BR OVC003 21/20 A2992 RMK ST8 SLP130;EQDQ01    003PRSWM1
0214716300999992000080112294+44960-079300FM-16+0282CYQA V0202601N001510009019N0024141N1+99999+99999999999ADDGA1999+002709029GD13991+0009099GD23991+0027099GF107991999999999999999999MW1001MW2801REMMET083CYQA 011229Z 26003KT 1 1/2SM -SHRA BR BKN003 BKN009TCU RETSRA RMK SF6TCU2 CB EMBDD;EQDQ01+000100PRSWM3Q02+000003PRSWM1
0180716300999992000080201004+44960-079300FM-15+0282CYQA V0209999C000012200019N0128741N1+02001+01901101151ADDGD12991+0084099GD22991+0360099GF104991999999999999999999MA1101151999999MW1001REMMET072CYQA 020100Z 00000KT 8SM FEW028 SCT120 20/19 A2987 RMK SC2AC2 HZ SLP115;EQDQ01+000000PRSWM2
0233716300999992000080218504+44960-079300FM-16+0282CYQA V0202301N002110084019N0048281N1+99999+99999999999ADDGA1999+008409029GD12991+0048099GD23991+0084099GD33991+0750099GF107991999999999999999999MW1801MW2951REMMET087CYQA 021850Z 23004KT 3SM -TSRA BR FEW016 BKN028TCU BKN250 RMK SF2TCU3CS1 CB EMBDD RERA;EQDQ01+000100PRSWM4Q02+000003PRSWM1
0347716300999992000080318004+44960-079300SY-MT+0282CYQA V0203001N00571009001CN0240001N1+01561+00961101621ADDAA124006191GD13991+0090099GD23991+0240099GF199999061051008001031001KA1120M+01701KA2240N+01401MA1101591098261MD1310061+9999MW1001REMSYN088AAXX  03184 71630 32574 63011 10156 20096 39826 40162 53006 86530 333 10170 20140 70060;MET078CYQA 031800Z 30010KT 260V330 15SM BKN030 BKN080 16/10 A3000 RMK SC6AC1 SLP162;EQDQ01+000062SCOTCVQ02+000000PRSWM2
0241716300999992000080321004+44960-079300SY-MT+0282CYQA V0203301N005110099019N0240001N1+01641+00981101621ADDGD13991+0099099GF107991999999008001999999MA1101591098251MD1510011+9999MW1001REMSYN060AAXX  03214 71630 42574 73310 10164 20098 39825 40162 55001;MET068CYQA 032100Z 33010KT 300V360 15SM BKN033 16/10 A3000 RMK SC7 SLP162;EQDQ01+000000PRSWM2
0153716300999992000081017004+44960-079300FM-15+0282CYQA V0202801N003112200019N0241401N1+02401+01501101541ADDGD12991+0090099GF102991999999999999999999MA1101521999999MW1001REMMET060CYQA 101700Z 28006KT 15SM FEW030 24/15 A2998 RMK CU2 SLP154;EQDQ01+000000PRSWM2
0160716300999992000081606004+44960-079300FM-12+0282CYQA V02099999999999999999N9999999N1+99999+99999999999ADDAA106000791AA224003091KA1240M+02731KA2240N+01391REMSYN100AAXX  16064 71630 13/// ///// 1//// 2//// 3//// 4//// 5//// 69901 8//// 333 10273 20139 70030 90999;
0224716300999992000081711004+44960-079300FM-15+0282CYQA V0209999C000010660019N0241401N1+00701+00601102031ADDGD12991+0045099GD22991+0300099GD33991+0660099GF107991999999999999999999MA1101961999999MW1411REMMET085CYQA 171100Z 00000KT 15SM BCFG FEW015 FEW100 BKN220 07/06 A3011 RMK CF1AC1CI1 SLP203;EQDQ01+000003PRSWM1Q02    003PRSWM1
0153716300999992000090422004+44960-079300FM-15+0282CYQA V0200101N006212200019N0241401N1+01501+00401102341ADDGD12991+0135099GF102991999999999999999999MA1102301999999MW1001REMMET060CYQA 042200Z 01012KT 15SM FEW045 15/04 A3021 RMK CF1 SLP234;EQDQ01+000000PRSWM2
0266716300999992000090921004+44960-079300SY-MT+0282CYQA V0201901N001010810019N0240001N1+02421+01381101931ADDGD12991+0360099GD23991+0810099MA1101901098551MD1710071+9999MW1001REMSYN060AAXX  09214 71630 42974 61902 10242 20138 39855 40193 57007;MET088CYQA 092100Z 19002KT 15SM FEW120 BKN270 24/14 A3009 RMK AC2CI1 CC ASOCTD WND L/V SLP193;EQDQ01+000062SCOTCVQ02+000000PRSWM2
0232716300999992000091016004+44960-079300FM-15+0282CYQA V0201901N006210135019N0080461N1+02401+01901101841ADDGD12991+0054099GD23991+0135099GD33991+0210099GF107991999999999999999999MA1101831999999MW1051OC101031REMMET085CYQA 101600Z 19012G20KT 5SM HZ SCT018 BKN045 BKN071 24/19 A3007 RMK CU3SC2AC2 SLP184;EQDQ01+000003PRSWM1Q02    003PRSWM1
0379716300999992000091500004+44960-079300SY-MT+0282CYQA V0202801N00211003601CN0048001N1+01241+01201100931ADDAA106006191AA224015291AY161061AY221061GD12991+0027099GD24991+0036099GF108991081071002501999999KA1120M+01441KA2180N+01241MA1100911097571MD1810021+9999MW1611REMSYN106AAXX  15004 71630 11348 82804 10124 20120 39757 40093 58002 60061 76162 887// 333 10144 20124 70152 90973;MET081CYQA 150000Z 28004KT 3SM -RA BR SCT009 OVC012 12/12 A2980 RERA RMK SF3SC5 SLP093;EQDQ01    003PRSWM1
0131716300999992000091814004+44960-079300FM-15+0282CYQA V0201901N002112200019N0241401N1+01401+01001101821ADDGF100991999999999999999999MA1101761999999MW1001REMMET053CYQA 181400Z 19004KT 15SM SKC 14/10 A3005 RMK SLP182;EQDQ01+000000PRSWM2
0156716300999992000092312224+44960-079300FM-16+0282CYQA V0201201N003110024019N0040231N1+99999+99999999999ADDGD14991+0024099GF108991999999999999999999MW1001MW2611REMMET056CYQA 231222Z 12006KT 2 1/2SM -RA BR OVC008 RERA RMK SF8;EQDQ01+000100PRSWM3Q02+000003PRSWM1
0167716300999992000100116004+44960-079300FM-15+0282CYQA V0202101N005112200019N0160931N1+02001+01101101661ADDGD12991+0750099GF102991999999999999999999MA1101631999999MW1001OC100771REMMET066CYQA 011600Z 21010G15KT 10SM FEW250 20/11 A3001 RMK CI1 HZ SLP166;EQDQ01+000000PRSWM2
0178716300999992000100517004+44960-079300FM-15+0282CYQA V0201501N003110420019N0241401N1+01001+00301101871ADDGD12991+0300099GD24991+0420099GF108991999999999999999999MA1101761999999MW1001REMMET070CYQA 051700Z 15006KT 15SM FEW100 OVC140 10/03 A3005 RMK AC2AS6 SLP187;EQDQ01+000000PRSWM2
0139716300999992000101210004+44960-079300FM-15+0282CYQA V0209999C000012200019N0241401N1+00001-00101102351ADDGF100991999999999999999999MA1102271999999MW1001REMMET061CYQA 121000Z 00000KT 15SM SKC M00/M01 A3020 RMK FROIN SLP235;EQDQ01+000000PRSWM2
0181716300999992000101501004+44960-079300FM-15+0282CYQA V0202801N002112200019N0160931N1+01601+01301101271ADDGD12991+0105099GD22991+0210099GF104991999999999999999999MA1101251999999MW1001REMMET073CYQA 150100Z 28004KT 10SM FEW035 SCT070 16/13 A2990 RMK CU2AC1 HZ SLP127;EQDQ01+000000PRSWM2
0156716300999992000102206004+44960-079300FM-12+0282CYQA V02099999999999999999N9999999N1+99999+99999999999ADDAA124000091KA1240M+01381KA2240N+00181REMSYN088AAXX  22064 71630 33/// ///// 1//// 2//// 3//// 4//// 5//// 8//// 333 10138 20018 70000;EQDQ01  00002PRCP24
0192716300999992000102416004+44960-079300FM-15+0282CYQA V0202401N001010006019N0008051N1+01301+01301102691ADDGD14991+0006099GF108991999999999999999999MA1102641999999MW1441REMMET083CYQA 241600Z 24002KT 1/2SM FG OVC002 13/13 A3031 RMK FG3ST5 BLN VSBL 400 FT SLP269;EQDQ01+000003PRSWM1Q02    003PRSWM1
0156716300999992000102606004+44960-079300FM-12+0282CYQA V02099999999999999999N9999999N1+99999+99999999999ADDAA124000091KA1240M+01521KA2240N+00301REMSYN088AAXX  26064 71630 33/// ///// 1//// 2//// 3//// 4//// 5//// 8//// 333 10152 20030 70000;EQDQ01  00002PRCP24
0338716300999992000102700004+44960-079300SY-MT+0282CYQA V0201501N002612200019N0032001N1+01381+01361102001ADDAA124000091AY111061AY211061GD12991+0300099GF104991041001999999071001KA1120M+01731KA2180N+00301MA1101931098591MD1510021+9999MW1101REMSYN094AAXX  27004 71630 31932 41505 10138 20136 39859 40200 55002 71011 84070 333 10173 20030 70000;MET062CYQA 270000Z 15005KT 2SM BR SCT100 14/14 A3010 RMK AS4 SLP200;EQDQ01  00002PRCP24Q02    003PRSWM1
0177716300999992000102715484+44960-079300FM-16+0282CYQA V0202501N004110045019N0064371N1+99999+99999999999ADDGD12991+0015099GD23991+0045099GD33991+0240099GF107991999999999999999999MW1001MW2101REMMET063CYQA 271548Z 25008KT 4SM BR FEW005 BKN015 BKN085 RMK SF1SC4AC2;EQDQ01+000003PRSWM1
0211716300999992000102722004+44960-079300FM-15+0282CYQA V0203601N006210024019N0160931N1+01001+00901101661ADDGD13991+0024099GD24991+0045099GF108991999999999999999999MA1101631999999MW1801OC100981REMMET079CYQA 272200Z 36012G19KT 10SM -SHRA BKN008 OVC015 10/09 A3001 RMK SC6SC2 SLP166;EQDQ01+000003PRSWM1Q02    003PRSWM1
0159716300999992000110217004+44960-079300FM-15+0282CYQA V0201701N002110900019N0241401N1+01501+00001102321ADDGD13991+0900099GF107991999999999999999999MA1102241999999MW1001REMMET066CYQA 021700Z 17004KT 15SM BKN300 15/00 A3019 RMK CI1 COTRA SLP232;EQDQ01+000000PRSWM2
0233716300999992000110717004+44960-079300FM-15+0282CYQA V0201401N005110300019N0241401N1+00701+00001101931ADDGD12991+0240099GD23991+0300099GD33991+0750099GF107991999999999999999999MA1101801999999MW1001OC100821REMMET102CYQA 071700Z 14010G16KT 100V170 15SM FEW080 BKN100 BKN250 07/M00 A3006 RMK AC2AS2CI2 CC ASOCTD SLP193;EQDQ01+000000PRSWM2
0322716300999992000110812004+44960-079300SY-MT+0282CYQA V0201301N00311003901CN0240001N1+00651+00231101771ADDAA124000091GD14991+0039099GF108991081051004501999999KA1999M+00991KA2120N+00551MA1101691098341MD1510051+9999MW1001REMSYN088AAXX  08124 71630 32474 81306 10065 20023 39834 40177 55005 885// 333 10099 20055 70000;MET068CYQA 081200Z 14006KT 110V170 15SM OVC013 07/02 A3003 RMK SC8 SLP177;EQDQ01+000000PRSWM2Q02  00002PRCP24
0316716300999992000112600004+44960-079300SY-MT+0282CYQA V0201001N00261075001CN0240001N1-00101-00371101971ADDAA124000791GD13991+0750099GF199999001001999999001071KA1120M+00331KA2180N-00991MA1101801098451MD1810181+9999MW1001REMSYN088AAXX  26004 71630 32974 61005 11010 21037 39845 40197 58018 80007 333 10033 21099 79999;MET062CYQA 260000Z 10005KT 15SM BKN250 M01/M04 A3006 RMK CS3 SLP197;EQDQ01+000062SCOTCVQ02+000000PRSWM2
0273716300999992000120403004+44960-079300SY-MT+0282CYQA V0202101N002110054019N0240001N1-00411-00651103121ADDGD13991+0054099GF199999999999004501999999MA1102951099561MD1810081+9999MW1001REMSYN060AAXX  04034 71630 42474 52104 11041 21065 39956 40312 58008;MET084CYQA 040300Z 21004KT 15SM BKN018 M04/M06 A3040 RMK SC5 LAST OB / NEXT 041100 SLP312;EQDQ01+000052SCOTCVQ02+000000PRSWM2
0157716300999992000120514224+44960-079300FM-16+0282CYQA V0201901N005110030019N0024141N1+99999+99999999999ADDGD14991+0030099GF108991999999999999999999MW1001MW2711REMMET073CYQA 051422Z 19010KT 150V230 1 1/2SM -SN OVC010 RESN RMK SN2SC6 VSBY 1-2;EQDQ01+000003PRSWM1
0144716300999992000120711154+44960-079300FM-16+0282CYQA V0200601N003612200019N0241401N1+99999+99999999999ADDGD12991+0027099GD22991+0030099GF104991999999999999999999MW1001REMMET051CYQA 071115Z 06007KT 15SM FEW009 SCT010 RMK SF1SC3;EQDQ01+000000PRSWM2
0331716300999992000120718004+44960-079300SY-MT+0282CYQA V0202901N002612200019N0240001N1-01631-01961101381ADDAA124005891GD12991+0060099GD22991+0750099GF104991011011008001001081KA1120M-01001KA2240N-02041MA1101151097811MD1010081+9999MW1001REMSYN088AAXX  07184 71630 32574 42905 11163 21196 39781 40138 50008 81108 333 11100 21204 70058;MET078CYQA 071800Z 29004KT 15SM FEW020 SCT250 M16/M20 A2987 RMK CF1CS1 TR CF SLP138;EQDQ01+000000PRSWM2
0195716300999992000120801004+44960-079300FM-15+0282CYQA V0209999C000010750019N0241401N1-02201-02501101651ADDGD12991+0360099GD23991+0750099GF107991999999999999999999MA1101351999999MW1001REMMET087CYQA 080100Z 00000KT 15SM SCT120 BKN250 M22/M25 A2993 RMK AC3CS1 HALO CC ASOCTD SLP165;EQDQ01+000000PRSWM2
0180716300999992000121122004+44960-079300FM-15+0282CYQA V0200501N00311000151CN0008051N1-00901-01101101641ADDGD15991+0001599GF109991999999000251999999MA1101421999999MW1731REMMET071CYQA 112200Z 05006KT 1/2SM SN VV005 M09/M11 A2995 RMK SN8 /S02/ SLP164;EQDQ01+000003PRSWM1Q02    003PRSWM1
0215716300999992000121211004+44960-079300FM-15+0282CYQA V0203501N01031000151CN0004021N1-01201-01501100021ADDGD15991+0001599GF109991999999000251999999MA1099831999999MW1391MW2751OC101701REMMET092CYQA 121100Z 35020G33KT 1/4SM +SN +BLSN VV002 M12/M15 A2948 RMK SN8 WND VRBL 320-030 SLP002;EQDQ01+000003PRSWM1Q02    003PRSWM1
0181716300999992000121517534+44960-079300FM-16+0282CYQA V0202101N005112200019N0160931N1+99999+99999999999ADDGD12991+0045099GD22991+0750099GF104991999999999999999999MW1001MW2711REMMET082CYQA 151753Z 21010KT 150V250 10SM -SN SCT015 SCT250 RMK CU3CI1 TR CI PCPN VRY LGT;EQDQ01+000003PRSWM1
0128716300999992000122120284+44960-079300FM-16+0282CYQA V0201201N003110075019N0064371N1+99999+99999999999ADDGD14991+0075099GF108991999999999999999999MW1001MW2711REMMET044CYQA 212028Z 12006KT 4SM -SN OVC025 RMK SC8;EQDQ01+000003PRSWM1
0205716300999992000122419004+44960-079300FM-15+0282CYQA V0202801N004110030019N0016091N1-00601-00701101481ADDGD14991+0030099GF108991999999999999999999MA1101291999999MW1711REMMET096CYQA 241900Z 28008KT 250V320 1SM -SN OVC010 M06/M07 A2991 RMK SN6SC2 VSBY 1/2-11/2 /S02/ SLP148;EQDQ01+000003PRSWM1Q02    003PRSWM1
0252716300999992000122420004+44960-079300FM-15+0282CYQA V0202601N006210060019N0096561N1-00801-01001101571ADDGD13991+0060099GD23991+0270099GF107991999999999999999999MA1101391999999MW1381MW2711OC101031REMMET114CYQA 242000Z 26012G20KT 220V290 6SM -SN BLSN BKN020 BKN090 M08/M10 A2994 RMK SC5AS2 PCPN VRY LGT CU ASOCTD SLP157;EQDQ01+000003PRSWM1Q02    003PRSWM1
0180716300999992000123101004+44960-079300FM-15+0282CYQA V0203001N004110360019N0241401N1-01001-01401101311ADDGD12991+0060099GD24991+0360099GF108991999999999999999999MA1101121999999MW1001REMMET072CYQA 310100Z 30008KT 15SM SCT020 OVC120 M10/M14 A2986 RMK SC4AC4 SLP131;EQDQ01+000000PRSWM2
0118716310999992000010207004+43980-080750SAO  +0415CWLS V0201301N001512200019N9999999N1+00101-00301999999ADDGD12991+0300099GF102991021999999999999999MW1001REMAWY059WLS SA 0700 AUTO2 99 SCT M M 173/01/-03/1303/M/M 8014 60MM;
0252716310999992000010415004+43980-080750SY-SA+0415CWLS V0202501N006710027019N0140001N1+00041-00121099811ADDGD14991+0027099GF108991081999002401999999MA1999999094851MD1310371+9999MW1001OC101381REMSYN060AAXX  04154 71631 46/64 /2513 10004 21012 39485 49981 53037;AWY071WLS SA 1500 AUTO2 E9 OVC 9.+ M 981/00/-01/2513+27/M/M PRESRR 3037 42MM;EQDQ01+000990PRSWM4
0346716310999992000011512004+43980-080750SY-SA+041599999V0201701N004110018019N0140001N1-00781-00981103261ADDAA199999999GD13991+0018099GD23991+0105099GF107991071999001501999999KA1999M+99999KA2999N-01091MA1999999098031MD1810151+9999MW1001REMSYN080    AAXX  15124 71631 46/64 /1708 11078 21098 39803 40326 58015 333 11088 21109;AWY069WLS SA 1200 AUTO2 E6 BKN 35 BKN 9.+ M 326/-08/-10/1708/M/M 8015 88MM;EQDQ01+000990PRSWM4Q02  99992PRCP99Q03 -00882ATMX  
0198716310999992000011619004+43980-080750SAO  +0415CWLS V0203301N007710300019N0144841N1-01001-01501999999ADDGD12991+0009099GD22991+0021099GD32991+0045099GD43991+0300099GF107991021999000751999999MW1001OC101331REMAWY086WLS SA 1900 AUTO2 3 SCT 7 SCT 15 SCT E99 BKN 9.+ M 266/-10/-15/ 3315+26/M/M 1048 00MM;
0187716310999992000012113004+43980-080750SAO  +0415CWLS V0209999C00001000901EN0144841N1-02701-03401999999ADDGD13991+0009099GD23991+0021099GD33991+0045099GD43991+0300099GF107991071999000751999999MW1001REMAWY083WLS SA 1300 AUTO2 E3 BKN 7 BKN 15 BKN 99 BKN 9.+ M 164/-27/-34/0000/ M/M 1008 76MM;
0085716310999992000012119004+43980-080750SAO  +0415CWLS V0209999C000019999999N0144841N1-01601-02301999999ADDMW1001REMAWY067WLS SA 1900 AUTO2 CLR BLO 100 9.+ M 167/-16/-23/0000/M/M 5002 71MM;
0085716310999992000012808004+43980-080750SAO  +0415CWLS V0203501N003619999999N0144841N1-01501-02101999999ADDMW1001REMAWY067WLS SA 0800 AUTO2 CLR BLO 100 9.+ M 333/-15/-21/3507/M/M 3014 21MM;
0122716310999992000020416004+43980-080750SAO  +0415CWLS V0200401N00051021001EN0144841N1-00801-01501999999ADDGD14991+0210099GF108991081999022501999999MW1001REMAWY063WLS SA 1600 AUTO2 E77 OVC 9.+ M 148/-08/-15/0401/M/M 3020 16MM;
0131716310999992000021402004+43980-080750SAO  +0415CWLS V0200701N005112200019N0144841N1-00601-00801999999ADDGD12991+0006099GF102991021999000751999999MW1001OC100821REMAWY064WLS SA 0200 AUTO2 2 SCT 9.+ M 138/-06/-08/0710+16/M/M 8008 13MM;
0120716310999992000021419004+43980-080750SAO  +0415CWLS V0203401N00561004201EN0144841N1-00601-00901999999ADDGD14991+0042099GF108991081999004501999999MW1001REMAWY061WLS SA 1900 AUTO2 E14 OVC 9.+ M M/-06/-09/3411/M/M 3006 04MM;
0122716310999992000031011004+43980-080750SAO  +0415CWLS V0200601N00361015001EN0144841N1-00901-01401999999ADDGD14991+0150099GF108991081999017501999999MW1001REMAWY063WLS SA 1100 AUTO2 E52 OVC 9.+ M 209/-09/-14/0607/M/M 3011 73MM;
0236716310999992000031309004+43980-080750SY-SA+0415CWLS V0202901N000510084019N0140001N1-00561-00971102441ADDGD13991+0084099GF107991071999007801999999MA1999999097321MD1110061+9999MW1001REMSYN060AAXX  13094 71631 46/64 /2901 11056 21097 39732 40244 51006;AWY063WLS SA 0900 AUTO2 E28 BKN 9.+ M 244/-06/-10/2901/M/M 1006 67MM;EQDQ01+000990PRSWM4
0279716310999992000031800004+43980-080750SY-SA+0415CWLS V0200201N004119999999N0140001N1-00721-01611103611ADDAA199999999KA1120M-00401KA2999N-00891MA1999999098381MD1310291+9999MW1001OC100771REMSYN076AAXX  18004 71631 46/64 /0208 11072 21161 39838 40361 53029 333 11040 21089;AWY070WLS SA 0000 AUTO2 CLR BLO 100 9.+ M 361/-07/-16/0208+15/M/M 3029 21MM;EQDQ01+000990PRSWM4Q02  99992PRCP99
0198716310999992000041221004+43980-080750SY-SA+0415CWLS V0203101N004119999999N0140001N1+00231-00871103141ADDMA1999999098011MD1110051+9999MW1001REMSYN060AAXX  12214 71631 46/64 /3108 10023 21087 39801 40314 51005;AWY066WLS SA 2100 AUTO2 CLR BLO 100 9.+ M 314/02/-09/3108/M/M 1005 37MM;EQDQ01+000990PRSWM4
0244716310999992000041615004+43980-080750SY-SA+0415CWLS V0200301N003110027019N0140001N1+00401+00181102111ADDGD14991+0027099GF108991081999002401999999MA1999999097111MD1110191+9999MW1001OC100771REMSYN060AAXX  16154 71631 46/64 /0306 10040 20018 39711 40211 51019;AWY063WLS SA 1500 AUTO2 E9 OVC 9.+ M 211/04/02/0306+15/M/M 1019 08MM;EQDQ01+000990PRSWM4
0199716310999992000042609004+43980-080750SY-SA+0415CWLS V0209999C000019999999N0140001N1-00151-00541101951ADDMA1999999096941MD1010031+9999MW1001REMSYN060AAXX  26094 71631 46/64 /0000 11015 21054 39694 40195 50003;AWY067WLS SA 0900 AUTO2 CLR BLO 100 9.+ M 195/-02/-05/0000/M/M 0003 54MM;EQDQ01+000990PRSWM4
0282716310999992000050518004+43980-080750SY-SA+0415CWLS V0202701N004112200019N0140001N1+02391+01321101861ADDAA124000091GD12991+0141099GF199999021999012301999999MA1999999097001MW1001OC100871REMSYN070AAXX  05184 71631 36/64 /2708 10239 20132 39700 40186 5/005 333 70000;AWY062WLS SA 1800 AUTO2 47 SCT 9.+ M 186/24/13/2708+17/M/ M005 92MM;EQDQ01+000022SCOTCVQ02+000990PRSWM4Q03  00002PRCP24
0213716310999992000051506004+43980-080750SY-SA+0415CWLS V0202401N002119999999N0140001N1+00501+99999999999ADDAA124000591AA299999999KA1240M+00791KA2240N+00411MW1001REMSYN058AAXX  15064 71631 36/64 /2404 10046 333 10079 20041 70004;AWY048WLS SA 0600 AUTO2 M 9.+ M M/05/M/2404/M/ M 6MMM;EQDQ01+000990PRSWM4Q02  99992PRCP99
0077716310999992000051921004+43980-080750SAO  +0415CWLS V0200601N003619999999N0144841N1+01101+99999999999ADDMW1001OC100821REMAWY051WLS SA 2100 AUTO2 M 9.+ M M/11/M/0607+16/M/ M 6MMM;
0089716310999992000052508004+43980-080750SAO  +0415CWLS V0203101N003019999999N0144841N1+00901+99999999999ADDMW1001REMAWY071WLS SA 0800 AUTO2 M 9.+ M M/09/M/3106/M/0008 PCPN 0.8MM PAST HR M 8MMM;
0077716310999992000052517004+43980-080750SAO  +0415CWLS V0202901N006619999999N0144841N1+01201+99999999999ADDMW1001OC101131REMAWY051WLS SA 1700 AUTO2 M 9.+ M M/12/M/2913+22/M/ M 5MMM;
0219716310999992000052812004+43980-080750SY-SA+0415CWLS V0200801N003119999999N0140001N1+00871+00621999999ADDAA124000091KA1999M+01701KA2120N+00761MW1001REMSYN064AAXX  28124 71631 36/64 /0806 10087 20062 333 10170 20076 70000;AWY059WLS SA 1200 AUTO2 CLR BLO 100 9.+ M M/09/06/0806/M/ M 71MM;EQDQ01+000990PRSWM4Q02  00002PRCP24
0171716310999992000052909004+43980-080750SY-SA+0415CWLS V0200701N001519999999N0140001N1+00711+00621999999ADDAA199000091MW1001REMSYN042AAXX  29094 71631 36/64 /0703 10071 20062;AWY059WLS SA 0900 AUTO2 CLR BLO 100 9.+ M M/07/06/0703/M/ M 12MM;EQDQ01+000990PRSWM4Q02  00002PRCP99
0208716310999992000060115004+43980-080750SY-SA+0415CWLS V0209999C000010150019N0140001N1+01451+01081999999ADDAA199000091GD14991+0150099GF108991081999015001999999MW1001REMSYN042AAXX  01154 71631 36/64 /0000 10145 20108;AWY055WLS SA 1500 AUTO2 E50 OVC 9.+ M M/15/11/0000/M/ M 58MM;EQDQ01+000990PRSWM4Q02  00002PRCP99
0148716310999992000060207004+43980-080750SAO  +0415CWLS V0201301N002012200019N0144841N1+01301+01301999999ADDGD12991+0240099GF102991021999999999999999MW1001REMAWY089WLS SA 0700 AUTO2 84 SCT 9.+ M 123/13/13/1304/M/0022 PCPN 2.2MM PAST HR PRESFR 8025 45MM;
0082716310999992000060907004+43980-080750SAO  +0415CWLS V0202201N001519999999N0144841N1+01901+01701999999ADDMW1001REMAWY064WLS SA 0700 AUTO2 CLR BLO 100 9.+ M 124/19/17/2203/M/ 5004 57MM;
0077716310999992000061901004+43980-080750SAO  +0415CWLS V0203201N001019999999N0144841N1+01401+01001999999ADDMW1001REMAWY059WLS SA 0100 AUTO2 CLR BLO 100 9.+ M M/14/10/3202/M/ M 68MM;
0145716310999992000061913004+43980-080750SAO  +0415CWLS V0202301N003010024019N0144841N1+01501+01501999999ADDGD12991+0009099GD23991+0024099GF107991071999000751999999MW1001OC100771REMAWY063WLS SA 1300 AUTO2 3 SCT E8 BKN 9.+ M M/15/15/2306+15/M/ M 45MM;
0114716310999992000062405004+43980-080750SAO  +0415CWLS V0201801N00201024001EN0144841N1+01801+01501999999ADDGD13991+0240099GF107991071999999999999999MW1001REMAWY055WLS SA 0500 AUTO2 E88 BKN 9.+ M M/18/15/1804/M/ M 53MM;
0113716310999992000063007004+43980-080750SAO  +0415CWLS V0203001N00051000601EN0144841N1+01101+01101999999ADDGD14991+0006099GF108991081999000751999999MW1001REMAWY054WLS SA 0700 AUTO2 E2 OVC 9.+ M M/11/11/3001/M/ M 22MM;
0077716310999992000070223004+43980-080750SAO  +0415CWLS V0202201N002019999999N0144841N1+02401+01801999999ADDMW1001REMAWY059WLS SA 2300 AUTO2 CLR BLO 100 9.+ M M/24/18/2204/M/ M 02MM;
0114716310999992000070302004+43980-080750SAO  +0415CWLS V0201901N00101012001EN0144841N1+02201+01901999999ADDGD13991+0120099GF107991071999012501999999MW1001REMAWY055WLS SA 0200 AUTO2 E40 BKN 9.+ M M/22/19/1902/M/ M 18MM;
0077716310999992000070423004+43980-080750SAO  +0415CWLS V0203001N004119999999N0144841N1+01901+00601999999ADDMW1001REMAWY059WLS SA 2300 AUTO2 CLR BLO 100 9.+ M M/19/06/3008/M/ M 21MM;
0282716310999992000071918004+43980-080750SY-SA+0415CWLS V0200201N002119999999N0140001N1+01801+00851101741ADDAA124000891AA299999999KA1120M+01801KA2240N+01021MA1999999096831MD1810091+9999MW1001REMSYN082AAXX  19184 71631 36/64 /0204 10180 20085 39683 40174 58009 333 10180 20102 70008;AWY064WLS SA 1800 AUTO2 CLR BLO 100 9.+ M 174/18/09/0204/M/ 8009 05MM;EQDQ01+000990PRSWM4Q02  99992PRCP99
0082716310999992000071920004+43980-080750SAO  +0415CWLS V0209999C000019999999N0144841N1+01901+00701999999ADDMW1001REMAWY064WLS SA 2000 AUTO2 CLR BLO 100 9.+ M 165/19/07/0000/M/ 6015 80MM;
0260716310999992000072103004+43980-080750SY-SA+0415CWLS V0201801N002110150019N0140001N1+01621+01181101101ADDAA199000091GD14991+0150099GF108991081999015001999999MA1999999096241MD1610081+9999MW1001REMSYN060AAXX  21034 71631 36/64 /1804 10162 20118 39624 40110 56008;AWY060WLS SA 0300 AUTO2 E51 OVC 9.+ M 110/16/12/1804/M/ 6008 28MM;EQDQ01+000990PRSWM4Q02  00002PRCP99
0082716310999992000072304004+43980-080750SAO  +0415CWLS V0203401N001019999999N0144841N1+00901+00901999999ADDMW1001REMAWY064WLS SA 0400 AUTO2 CLR BLO 100 9.+ M 219/09/09/3402/M/ 1007 44MM;
0118716310999992000072502004+43980-080750SAO  +0415CWLS V0200701N001012200019N0144841N1+01501+01301999999ADDGD12991+0180099GF102991021999017501999999MW1001REMAWY059WLS SA 0200 AUTO2 63 SCT 9.+ M 227/15/13/0702/M/ 3006 32MM;
0271716310999992000072618004+43980-080750SY-SA+0415CWLS V0201601N003619999999N0140001N1+02401+01561102291ADDAA124000091KA1120M+02401KA2240N+01591MA1999999097401MD1810101+9999MW1001REMSYN082AAXX  26184 71631 36/64 /1607 10240 20156 39740 40229 58010 333 10240 20159 70000;AWY064WLS SA 1800 AUTO2 CLR BLO 100 9.+ M 229/24/16/1607/M/ 8010 06MM;EQDQ01+000990PRSWM4Q02  00002PRCP24
0333716310999992000073112004+43980-080750SY-SA+0415CWLS V0201601N002112200019N0140001N1+02011+02011101751ADDAA124005191AA299999999GD12991+0009099GF199999021999000601999999KA1999M+02081KA2120N+01901MA1999999096881MD1110071+9999MW1001REMSYN082AAXX  31124 71631 36/64 /1604 10201 20201 39688 40175 51007 333 10208 20190 70052;AWY058WLS SA 1200 AUTO2 3 SCT 9.+ M 175/20/20/1604/M/ 1007 11MM;EQDQ01+000022SCOTCVQ02+000990PRSWM4Q03  99992PRCP99
0086716310999992000080122004+43980-080750SAO  +0415CWLS V0201901N003619999999N0144841N1+02201+01901999999ADDMW1001REMAWY068WLS SA 2200 AUTO2 CLR BLO 100 9.+ M 123/22/19/1907/M/0006 6016 48MM;
0139716310999992000080908004+43980-080750SAO  +0415CWLS V0203001N00301001501EN0144841N1+01701+01701999999ADDGD13991+0015099GD23991+0021099GF107991071999001501999999MW1001REMAWY065WLS SA 0800 AUTO2 E5 BKN 7 BKN 9.+ M 103/17/17/3006/M/ 3015 00MM;
0140716310999992000080914004+43980-080750SAO  +0415CWLS V0202701N002510033019N0144841N1+01801+01701999999ADDGD12991+0021099GD24991+0033099GF108991081999002501999999MW1001REMAWY066WLS SA 1400 AUTO2 7 SCT E11 OVC 9.+ M 123/18/17/2705/M/ 0004 16MM;
0119716310999992000081020004+43980-080750SAO  +0415CWLS V0203401N00411007501EN0144841N1+02101+01801999999ADDGD13991+0075099GF107991071999008001999999MW1001REMAWY060WLS SA 2000 AUTO2 E25 BKN 9.+ M 169/21/18/3408/M/ 6007 07MM;
0082716310999992000082501004+43980-080750SAO  +0415CWLS V0209999C000019999999N0144841N1+01601+01401999999ADDMW1001REMAWY064WLS SA 0100 AUTO2 CLR BLO 100 9.+ M 209/16/14/0000/M/ 3003 95MM;
0082716310999992000082522004+43980-080750SAO  +0415CWLS V0202701N001019999999N0144841N1+02301+01401999999ADDMW1001REMAWY064WLS SA 2200 AUTO2 CLR BLO 100 9.+ M 190/23/14/2702/M/ 6007 08MM;
0140716310999992000083011004+43980-080750SAO  +0415CWLS V0202001N00101002101EN0144841N1+01901+01901999999ADDGD13991+0021099GD23991+0036099GF107991071999002501999999MW1001REMAWY066WLS SA 1100 AUTO2 E7 BKN 12 BKN 9.+ M 205/19/19/2002/M/ 3009 31MM;
0082716310999992000090610004+43980-080750SAO  +0415CWLS V0201001N001019999999N0144841N1+00501+00501999999ADDMW1001REMAWY064WLS SA 1000 AUTO2 CLR BLO 100 9.+ M 322/05/05/1002/M/ 5001 25MM;
0082716310999992000090614004+43980-080750SAO  +0415CWLS V0201701N002519999999N0144841N1+01301+00801999999ADDMW1001REMAWY064WLS SA 1400 AUTO2 CLR BLO 100 9.+ M 334/13/08/1705/M/ 3009 68MM;
0086716310999992000091223004+43980-080750SAO  +0415CWLS V0203201N003019999999N0144841N1+01501+01001999999ADDMW1001REMAWY068WLS SA 2300 AUTO2 CLR BLO 100 9.+ M 129/15/10/3206/M/0024 3015 72MM;
0082716310999992000091316004+43980-080750SAO  +0415CWLS V0202401N003619999999N0144841N1+01601+01001999999ADDMW1001REMAWY064WLS SA 1600 AUTO2 CLR BLO 100 9.+ M 192/16/10/2407/M/ 8004 00MM;
0223716310999992000091403004+43980-080750SY-SA+0415CWLS V0202001N001519999999N0140001N1+01371+01251101681ADDAA199000091MA1999999096781MD1310031+9999MW1001REMSYN060AAXX  14034 71631 36/64 /2003 10137 20125 39678 40168 53003;AWY064WLS SA 0300 AUTO2 CLR BLO 100 9.+ M 168/14/13/2003/M/ 3003 75MM;EQDQ01+000990PRSWM4Q02  00002PRCP99
0141716310999992000091514004+43980-080750SAO  +0415CWLS V0202801N002012200019N0144841N1+00801+00801999999ADDGD12991+0105099GF102991021999012501999999MW1001REMAWY082WLS SA 1400 AUTO2 35 SCT 9.+ M 106/08/08/2804/M/0192 PCPN 6.6MM PAST HR 1012 55MM;
0093716310999992000091720004+43980-080750SAO  +0415CWLS V0202701N004619999999N0144841N1+01901+01301999999ADDMW1001OC100971REMAWY067WLS SA 2000 AUTO2 CLR BLO 100 9.+ M 122/19/13/2709+19/M/ 6001 59MM;
0082716310999992000091901004+43980-080750SAO  +0415CWLS V0201701N004119999999N0144841N1+01601+01301999999ADDMW1001REMAWY064WLS SA 0100 AUTO2 CLR BLO 100 9.+ M 155/16/13/1708/M/ 6001 13MM;
0082716310999992000092620004+43980-080750SAO  +0415CWLS V0202601N003619999999N0144841N1+01401+00601999999ADDMW1001REMAWY064WLS SA 2000 AUTO2 CLR BLO 100 9.+ M 185/14/06/2607/M/ 6010 99MM;
0093716310999992000092920004+43980-080750SAO  +0415CWLS V0202101N005619999999N0144841N1+01601+00601999999ADDMW1001OC100821REMAWY067WLS SA 2000 AUTO2 CLR BLO 100 9.+ M 265/16/06/2111+16/M/ 8018 04MM;
0082716310999992000093010004+43980-080750SAO  +0415CWLS V0202001N003619999999N0144841N1+00801+00601999999ADDMW1001REMAWY064WLS SA 1000 AUTO2 CLR BLO 100 9.+ M 224/08/06/2007/M/ 8010 04MM;
0161716310999992000101702004+43980-080750SAO  +0415CWLS V0209999C000010021019N0144841N1+00901+00901999999ADDGD12991+0012099GD23991+0021099GD33991+0045099GF107991071999001501999999MW1001REMAWY072WLS SA 0200 AUTO2 4 SCT E7 BKN 15 BKN 9.+ M 240/09/09/0000/M/ 3005 33MM;
0281716310999992000101715004+43980-080750SY-SA+0415CWLS V0209999C000010021019N0140001N1+01031+00901102401ADDAA199000091GD13991+0021099GD23991+0033099GF107991071999002401999999MA1999999097421MD1010021+9999MW1001REMSYN060AAXX  17154 71631 36/64 /0000 10103 20090 39742 40240 50002;AWY066WLS SA 1500 AUTO2 E7 BKN 11 BKN 9.+ M 240/10/09/0000/M/ 0002 30MM;EQDQ01+000990PRSWM4Q02  00002PRCP99
0082716310999992000102113004+43980-080750SAO  +0415CWLS V0203401N002019999999N0144841N1+01001+00801999999ADDMW1001REMAWY064WLS SA 1300 AUTO2 CLR BLO 100 9.+ M 205/10/08/3404/M/ 3025 84MM;
0070716310999992000102507004+43980-080750SAO  +0415CWLS V0203501N000519999999N9999999N1+00801+00801999999ADDMW1001REMAWY052WLS SA 0700 AUTO2 M M M 274/08/08/3501/M/ 8004 00MM;
0211716310999992000102509004+43980-080750SY-SA+0415CWLS V0209999C000019999999N9999999N1+00751+00751102771ADDAA199000091MA1999999097781MD1310011+9999MW1001REMSYN060AAXX  25094 71631 36/// /0000 10075 20075 39778 40277 53001;AWY052WLS SA 0900 AUTO2 M M M 277/08/08/0000/M/ 3001 55MM;EQDQ01+000990PRSWM4Q02  00002PRCP99
0131716310999992000102903004+43980-080750FM-12+0415CWLS V0203501N002119999999N9999999N1-00251-00411103291ADDAA199000091MA1999999098161MD1010001+9999REMSYN060AAXX  29034 71631 36/// /3504 11025 21041 39816 40329 50000;EQDQ01  00002PRCP99
0213716310999992000110609004+43980-080750SY-SA+0415CWLS V0200801N001519999999N9999999N1-00231-00601102201ADDAA199000091MA1999999097151MD1110081+9999MW1001REMSYN060AAXX  06094 71631 36/// /0803 11023 21060 39715 40220 51008;AWY054WLS SA 0900 AUTO2 M M M 220/-02/-06/0803/M/ 1008 30MM;EQDQ01+000990PRSWM4Q02  00002PRCP99
0222716310999992000110715004+43980-080750SY-SA+0415CWLS V0201301N004119999999N9999999N1+00701+00301101851ADDAA199000091MA1999999096841MD1810031+9999MW1001OC100871REMSYN060AAXX  07154 71631 36/// /1308 10070 20030 39684 40185 58003;AWY055WLS SA 1500 AUTO2 M M M 185/07/03/1308+17/M/ 8003 00MM;EQDQ01+000990PRSWM4Q02  00002PRCP99
0087716310999992000111711004+43980-080750SAO  +0415CWLS V0203101N004119999999N9999999N1-00101-00201999999ADDMW1001OC100821REMAWY061WLS SA 1100 AUTO2 M M M 048/-01/-02/3108+16/M/0008 3018 02MM;
0072716310999992000112111004+43980-080750SAO  +0415CWLS V0203001N004119999999N9999999N1-00401-00601999999ADDMW1001REMAWY054WLS SA 1100 AUTO2 M M M 116/-04/-06/3008/M/ 1010 47MM;
0095716310999992000120416004+43980-080750SAO  +0415CWLS V0202201N007719999999N0144841N1-00301-00701999999ADDMW1001OC101081REMAWY069WLS SA 1600 AUTO2 CLR BLO 100 9.+ M 262/-03/-07/2215+21/M/ 8015 70MM;
0151716310999992000120517004+43980-080750SAO  +0415CWLS V0203001N005612200019N0144841N1-00601-00801999999ADDGD12991+0001599GD22991+0021099GF102991021999000251999999MW1001OC101441REMAWY069WLS SA 1700 AUTO2 0 SCT 7 SCT 9.+ M 101/-06/-08/3011+28/M/ 1028 98MM;
0084716310999992000120923004+43980-080750SAO  +0415CWLS V0201901N001519999999N0144841N1-01001-01201999999ADDMW1001REMAWY066WLS SA 2300 AUTO2 CLR BLO 100 9.+ M 291/-10/-12/1903/M/ 0000 83MM;
0185716310999992000121701004+43980-080750SAO  +0415CWLS V0201501N00301000901EN0144841N1+00201+00201999999ADDGD13991+0009099GD23991+0048099GD33991+0105099GF107991071999000751999999MW1001REMAWY096WLS SA 0100 AUTO2 E3 BKN 16 BKN 35 BKN 9.+ M 046/02/02/1506/M/0012 PCPN 1.2MM PAST HR 6021 33MM;
0152716310999992000121716004+43980-080750SAO  +0415CWLS V0202801N00611000601EN0144841N1+00101+00101999999ADDGD14991+0006099GF108991081999000751999999MW1001OC100871REMAWY085WLS SA 1600 AUTO2 E2 OVC 9.+ M 916/01/01/2812+17/M/0010 PCPN 0.2MM PAST HR 5003 29MM;
0129716310999992000121802004+43980-080750SAO  +0415CWLS V0202901N00611000301WN0008051N1-00501-00601999999ADDGD15991+0003099GF109991091999000251999999MW1001OC101231REMAWY062WLS SA 0200 AUTO2 W1 X 0.5 M 020/-05/-06/2912+24/M/ 1040 87MM;
0082716310999992000122022004+43980-080750SAO  +0415CWLS V0209999C000019999999N0144841N1-01201-01301999999ADDMW1001REMAWY064WLS SA 2200 AUTO2 CLR BLO 100 9.+ M M/-12/-13/0000/M/ 1027 13MM;
0225716310999992000122503004+43980-080750SY-SA+0415CWLS V0203301N003119999999N0140001N1-01791-02041102881ADDAA199000091MA1999999097621MD1310251+9999MW1001REMSYN060AAXX  25034 71631 36/64 /3306 11179 21204 39762 40288 53025;AWY066WLS SA 0300 AUTO2 CLR BLO 100 9.+ M 288/-18/-20/3306/M/ 3025 94MM;EQDQ01+000990PRSWM4Q02  00002PRCP99
0225716310999992000122715004+43980-080750SY-SA+0415CWLS V0203201N001519999999N0048001N1-00941-01081102051ADDAA199000091MA1999999096891MD1310021+9999MW1001REMSYN060AAXX  27154 71631 36/48 /3203 11094 21108 39689 40205 53002;AWY066WLS SA 1500 AUTO2 CLR BLO 100 3.5 M 205/-09/-11/3203/M/ 3002 48MM;EQDQ01+000990PRSWM4Q02  00002PRCP99
0250716310999992000122806004+43980-080750SY-SA+0415CWLS V0203101N000519999999N0140001N1-02141-02231102051ADDAA124000091KA1240M-00731KA2240N-02141MA1999999096801MW1001REMSYN076AAXX  28064 71631 36/64 /3101 11214 21223 39680 40205 333 11073 21214 70000;AWY063WLS SA 0600 AUTO2 CLR BLO 100 9.+ M 205/-21/-22/3101/M/ M 44MM;EQDQ01+000990PRSWM4Q02  00002PRCP24
0137716320999992000010407004+45800-080530SAO  +0190CWBI V0200801N00301000901WN0008051N1-00501-00601999999ADDGD15991+0009099GF109991091999000751999999MW1001OC100771REMAWY070WBI SA 0700 AUTO2 W3 X 0.5 M 032/-05/-06/0806+15/M/M PRESFR 8089 00MM;
0269716320999992000010615004+45800-080530SY-SA+0190CWBI V0202201N005710105019N0140001N1-00051-00381101991ADDGD12991+0042099GD23991+0105099GF107991071999004501999999MA1999999099601MD1610181+9999MW1001OC101081REMSYN060AAXX  06154 71632 46/64 /2211 11005 21038 39960 40199 56018;AWY073WBI SA 1500 AUTO2 14 SCT E35 BKN 9.+ M 199/-01/-04/2211+21/M/M 6018 58MM;EQDQ01+000990PRSWM4
0304716320999992000010900004+45800-080530SY-SA+0190CWBI V0202401N002110300019N0140001N1+00191-00031100951ADDAA199999999GD13991+0300099GF107991071999999999999999KA1120M+00201KA2999N-00851MA1999999098611MD1810051+9999MW1001REMSYN076AAXX  09004 71632 46/64 /2404 10019 21003 39861 40095 58005 333 10020 21085;AWY062WBI SA 0000 AUTO2 E99 BKN 9.+ M 095/02/00/2404/M/M 8005 9-4MM;EQDQ01+000990PRSWM4Q02  99992PRCP99
0131716320999992000011108004+45800-080530SAO  +0190CWBI V0202701N00461012901EN0144841N1+00201+00101999999ADDGD14991+0129099GF108991081999012501999999MW1001OC101281REMAWY064WBI SA 0800 AUTO2 E43 OVC 9.+ M 876/02/01/2709+25/M/M 3008 69MM;
0115716320999992000011823004+45800-080530SAO  +0190CWBI V0201001N000512200019N0048281N1-01301-01701999999ADDGD12991+0001599GF102991999999000251999999MW1001REMAWY056WBI SA 2300 AUTO2 0 SCT 3.0 M M/-13/-17/1001/M/M M 64MM;
0299716320999992000011900004+45800-080530SY-SA+019099999V0201101N00151000901BN0048001N1-01221-01771999999ADDAA199999999GD13991+0009099GD23991+0021099GD33991+0045099GF107991071999000601999999KA1120M-01201KA2999N-02211MW1001REMSYN062    AAXX  19004 71632 46/48 /1103 11122 21177 333 11120 21221;AWY070WBI SA 0000 AUTO2 E3 BKN 7 BKN 15 BKN 3.0 M M/-12/-18/1103/M/M M 27MM;EQDQ01+000990PRSWM4Q02  99992PRCP99
0141716320999992000011907004+45800-080530SAO  +0190CWBI V0201201N02521004501EN0080471N1-01301-01501999999ADDGD13991+0045099GD24991+0081099GF108991081999004501999999MW1001REMAWY067WBI SA 0700 AUTO2 E15 BKN 27 OVC 5. M M/-13/-15/1249+22/M/M M 08MM;
0139716320999992000012002004+45800-080530SAO  +0190CWBI V0200601N00151005101EN0072421N1-01001-01101999999ADDGD13991+0051099GD23991+0105099GF107991071999004501999999MW1001REMAWY065WBI SA 0200 AUTO2 E17 BKN 35 BKN 4.5 M M/-10/-11/0603/M/M M 11MM;
0080716320999992000012011004+45800-080530SAO  +0190CWBI V0200301N003019999999N0144841N1-01701-02201999999ADDMW1001REMAWY062WBI SA 1100 AUTO2 CLR BLO 100 9.+ M M/-17/-22/0306/M/M M 16MM;
0091716320999992000012017004+45800-080530SAO  +0190CWBI V0200401N004119999999N0144841N1-01801-02601999999ADDMW1001OC100771REMAWY065WBI SA 1700 AUTO2 CLR BLO 100 9.+ M M/-18/-26/0408+15/M/M M 00MM;
0080716320999992000012122004+45800-080530SAO  +0190CWBI V0203501N000519999999N0144841N1-02001-02901999999ADDMW1001REMAWY062WBI SA 2200 AUTO2 CLR BLO 100 9.+ M M/-20/-29/3501/M/M M 55MM;
0119716320999992000020107004+45800-080530SAO  +0190CWBI V0203401N00251000151WN0008051N1-00501-00601999999ADDGD15991+0001599GF109991091999000251999999MW1001REMAWY060WBI SA 0700 AUTO2 W0 X 0.5 M 076/-05/-06/3405/M/M 1010 81MM;
0122716320999992000020123004+45800-080530SAO  +0190CWBI V0203501N00251024001EN0144841N1-01201-01701999999ADDGD13991+0240099GF107991071999022501999999MW1001REMAWY063WBI SA 2300 AUTO2 E79 BKN 9.+ M 192/-12/-17/3505/M/M 1030 70MM;
0133716320999992000020516004+45800-080530SAO  +0190CWBI V0202701N00411013201EN0144841N1-00201-00401999999ADDGD14991+0132099GF108991081999012501999999MW1001OC100971REMAWY066WBI SA 1600 AUTO2 E44 OVC 9.+ M 140/-02/-04/2708+19/M/M 6012 64MM;
0085716320999992000020604004+45800-080530SAO  +0190CWBI V0203001N001019999999N0144841N1-01501-01701999999ADDMW1001REMAWY067WBI SA 0400 AUTO2 CLR BLO 100 9.+ M 242/-15/-17/3002/M/M 1030 50MM;
0247716320999992000020821004+45800-080530SY-SA+0190CWBI V0202401N004110075019N0140001N1-00271-00791102351ADDGD14991+0075099GF108991081999007801999999MA1999999099891MD1610321+9999MW1001OC101021REMSYN060AAXX  08214 71632 46/64 /2408 11027 21079 39989 40235 56032;AWY066WBI SA 2100 AUTO2 E25 OVC 9.+ M 235/-03/-08/2408+20/M/M 6032 79MM;EQDQ01+000990PRSWM4
0140716320999992000022505004+45800-080530SAO  +0190CWBI V0201001N003010021019N0072421N1+00601+00601999999ADDGD12991+0015099GD23991+0021099GF107991071999001501999999MW1001REMAWY066WBI SA 0500 AUTO2 5 SCT E7 BKN 4.5 M 182/06/06/1006/M/M 6010 76MM;
0313716320999992000022706004+45800-080530SY-SA+0190CWBI V0201801N003610075019N0130001N1+00831+00701101011ADDAA199999999GD14991+0075099GF108991081999007801999999KA1240M+01171KA2999N+00281MA1999999098711MD1610241+9999MW1001OC100871REMSYN076AAXX  27064 71632 46/63 /1807 10083 20070 39871 40101 56024 333 10117 20028;AWY063WBI SA 0600 AUTO2 E25 OVC 8. M 101/08/07/1807+17/M/M 6024 30MM;EQDQ01+000990PRSWM4Q02  99992PRCP99
0084716320999992000022822004+45800-080530SAO  +0190CWBI V0200101N002019999999N0144841N1+00101-00801999999ADDMW1001REMAWY066WBI SA 2200 AUTO2 CLR BLO 100 9.+ M 244/01/-08/0104/M/M M018 65MM;
0185716320999992000030609004+45800-080530SY-SA+0190CWBI V0209999C000019999999N0140001N1-00651-00701102231ADDMA1999999099851MW1001REMSYN060AAXX  06094 71632 46/64 /0000 11065 21070 39985 40223 5/012;AWY067WBI SA 0900 AUTO2 CLR BLO 100 9.+ M 223/-07/-07/0000/M/M M012 50MM;EQDQ01+000990PRSWM4
0267716320999992000030618004+45800-080530SY-SA+0190CWBI V0202501N003119999999N0140001N1+00321-00291102491ADDAA199999999KA1120M+00431KA2999N-00741MA1999999100111MD1610041+9999MW1001REMSYN076AAXX  06184 71632 46/64 /2506 10032 21029 30011 40249 56004 333 10043 21074;AWY066WBI SA 1800 AUTO2 CLR BLO 100 9.+ M 249/03/-03/2506/M/M 6004 29MM;EQDQ01+000990PRSWM4Q02  99992PRCP99
0084716320999992000031819004+45800-080530SAO  +0190CWBI V0202301N003019999999N0144841N1+00201-01001999999ADDMW1001REMAWY066WBI SA 1900 AUTO2 CLR BLO 100 9.+ M 349/02/-10/2306/M/M 6023 03MM;
0121716320999992000032113004+45800-080530SAO  +0190CWBI V0201701N00051015001EN0144841N1+00601-00301999999ADDGD13991+0150099GF107991071999017501999999MW1001REMAWY062WBI SA 1300 AUTO2 E52 BKN 9.+ M 289/06/-03/1701/M/M 1014 25MM;
0084716320999992000032117004+45800-080530SAO  +0190CWBI V0202601N003619999999N0144841N1+01201-00101999999ADDMW1001REMAWY066WBI SA 1700 AUTO2 CLR BLO 100 9.+ M 287/12/-01/2607/M/M 6004 23MM;
0303716320999992000040318004+45800-080530SY-SA+0190CWBI V0202101N003110081019N0140001N1+01161+00591100901ADDAA199999999GD13991+0081099GF107991071999007801999999KA1120M+01161KA2999N-00341MA1999999098581MD1810181+9999MW1001REMSYN076AAXX  03184 71632 46/64 /2106 10116 20059 39858 40090 58018 333 10116 21034;AWY061WBI SA 1800 AUTO2 E27 BKN 9.+ M 090/12/06/2106/M/M 8018 68MM;EQDQ01+000990PRSWM4Q02  99992PRCP99
0304716320999992000040500004+45800-080530SY-SA+0190CWBI V0203401N004110093019N0110001N1-00081-00451100191ADDAA199999999GD14991+0093099GF108991081999007801999999KA1120M+00521KA2999N-00081MA1999999097871MD1110331+9999MW1001REMSYN076AAXX  05004 71632 46/61 /3408 11008 21045 39787 40019 51033 333 10052 21008;AWY062WBI SA 0000 AUTO2 E31 OVC 7. M 019/-01/-05/3408/M/M 1033 86MM;EQDQ01+000990PRSWM4Q02  99992PRCP99
0323716320999992000040612004+45800-080530SY-SA+0190CWBI V0201301N002110018019N0048001N1+00011+00011099411ADDAA199999999GD12991+0009099GD24991+0018099GF108991081999000601999999KA1999M+00351KA2999N-00141MA1999999097101MD1610431+9999MW1001REMSYN076AAXX  06124 71632 46/48 /1304 10001 20001 39710 49941 56043 333 10035 21014;AWY066WBI SA 1200 AUTO2 3 SCT E6 OVC 3.5 M 941/00/00/1304/M/M 6043 10MM;EQDQ01+000990PRSWM4Q02  99992PRCP99
0121716320999992000041016004+45800-080530SAO  +0190CWBI V0209999999999015001EN0144841N1+00301-00801999999ADDGD13991+0150099GF107991071999017501999999MW1001REMAWY062WBI SA 1600 AUTO2 E54 BKN 9.+ M 183/03/-08/MMMM/M/M 3022 31MM;
0085716320999992000041101004+45800-080530SAO  +0190CWBI V02099999999999999999N0144841N1-00201-01101999999ADDMW1001REMAWY067WBI SA 0100 AUTO2 CLR BLO 100 9.+ M 260/-02/-11/MMMM/M/M M029 44MM;
0111716320999992000041516004+45800-080530SAO  +0190CWBI V0209999999999000301WN0000001N1+00701+99999999999ADDGD15991+0003099GF109991091999000251999999MW1001REMAWY052WBI SA 1600 AUTO2 W1 X 0.0 M M/07/M/MMMM/M/M M 3MMM;
0070716320999992000042113004+45800-080530SAO  +0190CWBI V02099999999999999999N9999999N1+00201+99999999999ADDMW1001REMAWY052WBI SA 1300 AUTO2 M M M 089/02/M/MMMM/M/M 1004 4MMM;
0070716320999992000042404004+45800-080530SAO  +0190CWBI V02099999999999999999N9999999N1+00901+99999999999ADDMW1001REMAWY052WBI SA 0400 AUTO2 M M M 157/09/M/MMMM/M/M 1015 3MMM;
0070716320999992000042407004+45800-080530SAO  +0190CWBI V02099999999999999999N9999999N1+00501+99999999999ADDMW1001REMAWY052WBI SA 0700 AUTO2 M M M 167/05/M/MMMM/M/M 1010 4MMM;
0178716320999992000042515004+45800-080530SY-SA+0190CWBI V02099999999999999999N9999999N1+00901+99999102211ADDMA1999999099871MD1010011+9999MW1001REMSYN054AAXX  25154 71632 46/// ///// 10090 39987 40221 50001;AWY052WBI SA 1500 AUTO2 M M M 221/09/M/MMMM/M/M 0001 0MMM;EQDQ01+000990PRSWM4
0225716320999992000042809004+45800-080530SY-SA+0190CWBI V0209999C000019999999N0140001N1-00131-00161101381ADDAA199000091MA1999999099061MD1310011+9999MW1001REMSYN060AAXX  28094 71632 36/64 /0000 11013 21016 39906 40138 53001;AWY066WBI SA 0900 AUTO2 CLR BLO 100 9.+ M 138/-01/-02/0000/M/ 3001 36MM;EQDQ01+000990PRSWM4Q02  00002PRCP99
0184716320999992000050116004+45800-080530SAO  +0190CWBI V0209999C00001000901EN0096561N1+00601+00601999999ADDGD13991+0009099GD23991+0030099GD33991+0045099GF107991071999000751999999MW1001REMAWY095WBI SA 1600 AUTO2 E3 BKN 10 BKN 15 BKN 6. M 101/06/06/0000/M/0036 PCPN 1.8MM PAST HR 5009 88MM;
0082716320999992000050423004+45800-080530SAO  +0190CWBI V0202501N002019999999N0144841N1+01701+01201999999ADDMW1001REMAWY064WBI SA 2300 AUTO2 CLR BLO 100 9.+ M 146/17/12/2504/M/ 8012 86MM;
0082716320999992000051120004+45800-080530SAO  +0190CWBI V0202501N001019999999N0144841N1+01501+00301999999ADDMW1001REMAWY064WBI SA 2000 AUTO2 CLR BLO 100 9.+ M 124/15/03/2502/M/ M011 08MM;
0130716320999992000051405004+45800-080530SAO  +0190CWBI V0202701N00411024001EN0144841N1+00701+00301999999ADDGD14991+0240099GF108991081999999999999999MW1001OC100771REMAWY063WBI SA 0500 AUTO2 E83 OVC 9.+ M 094/07/03/2708+15/M/ 3020 70MM;
0224716320999992000052003004+45800-080530SY-SA+0190CWBI V0209999C000019999999N0140001N1+00351-00101102111ADDAA199000091MA1999999099771MD1110031+9999MW1001REMSYN060AAXX  20034 71632 36/64 /0000 10035 21010 39977 40211 51003;AWY065WBI SA 0300 AUTO2 CLR BLO 100 9.+ M 211/04/-01/0000/M/ 1003 50MM;EQDQ01+000990PRSWM4Q02  00002PRCP99
0223716320999992000052115004+45800-080530SY-SA+0190CWBI V0202701N002119999999N0140001N1+01591+00001101791ADDAA199000091MA1999999099471MD1510001+9999MW1001REMSYN060AAXX  21154 71632 36/64 /2704 10159 20000 39947 40179 55000;AWY064WBI SA 1500 AUTO2 CLR BLO 100 9.+ M 179/16/00/2704/M/ 5000 90MM;EQDQ01+000990PRSWM4Q02  00002PRCP99
0138716320999992000052402004+45800-080530SAO  +0190CWBI V0202101N00051001201EN0112651N1+01301+01301999999ADDGD14991+0012099GF108991081999001501999999MW1001REMAWY079WBI SA 0200 AUTO2 E4 OVC 7. M M/13/13/2101/M/0044 PCPN 1.4MM PAST HR 6011 88MM;
0077716320999992000052504004+45800-080530SAO  +0190CWBI V0202601N001519999999N0144841N1+00901+00801999999ADDMW1001REMAWY059WBI SA 0400 AUTO2 CLR BLO 100 9.+ M M/09/08/2603/M/ M 19MM;
0118716320999992000052911004+45800-080530SAO  +0190CWBI V0209999C000012200019N0144841N1+01001+01001999999ADDGD12991+0129099GF102991021999012501999999MW1001REMAWY059WBI SA 1100 AUTO2 43 SCT 9.+ M 193/10/10/0000/M/ 3019 15MM;
0082716320999992000053001004+45800-080530SAO  +0190CWBI V0209999C000019999999N0144841N1+01101+00701999999ADDMW1001REMAWY064WBI SA 0100 AUTO2 CLR BLO 100 9.+ M 183/11/07/0000/M/ 0004 41MM;
0146716320999992000061114004+45800-080530SAO  +0190CWBI V0200801N00361002101EN0144841N1+01001+00901999999ADDGD13991+0021099GD24991+0036099GF108991081999002501999999MW1001OC100871REMAWY064WBI SA 1400 AUTO2 E7 BKN 12 OVC 9.+ M M/10/09/0807+17/M/ M 02MM;
0256716320999992000061206004+45800-080530SY-SA+0190CWBI V0200501N000510108019N0140001N1+01081+00981999999ADDAA124000091GD14991+0108099GF108991081999012301999999KA1240M+01311KA2240N+00891MW1001REMSYN064AAXX  12064 71632 36/64 /0501 10108 20098 333 10131 20089 70000;AWY055WBI SA 0600 AUTO2 E36 OVC 9.+ M M/11/10/0501/M/ M 88MM;EQDQ01+000990PRSWM4Q02  00002PRCP24
0077716320999992000061219004+45800-080530SAO  +0190CWBI V0200901N002519999999N0144841N1+02101+00901999999ADDMW1001REMAWY059WBI SA 1900 AUTO2 CLR BLO 100 9.+ M M/21/09/0905/M/ M 26MM;
0229716320999992000061415004+45800-080520SY-SA+0190CWBI V0201601N002110021019N0140001N1+02281+01991999999ADDAA199000091GD13991+0021099GD23991+0033099GF107991071999002401999999MW1001REMSYN042AAXX  14154 71632 36/64 /1604 10228 20199;AWY061WBI SA 1500 AUTO2 E7 BKN 11 BKN 9.+ M M/23/20/1604/M/ M 89MM;EQDQ01+000990PRSWM4Q02  00002PRCP99
0077716320999992000061904004+45800-080520SAO  +0190CWBI V0201801N000519999999N0144841N1+00801+00601999999ADDMW1001REMAWY059WBI SA 0400 AUTO2 CLR BLO 100 9.+ M M/08/06/1801/M/ M 80MM;
0111716320999992000062008004+45800-080520SAO  +0190CWBI V0201901N00151000901WN0004831N1+00701+00701999999ADDGD15991+0009099GF109991091999000751999999MW1001REMAWY052WBI SA 0800 AUTO2 W3 X 0.3 M M/07/07/1903/M/ M 77MM;
0077716320999992000062422004+45800-080520SAO  +0190CWBI V0202001N003019999999N0144841N1+02501+01601999999ADDMW1001REMAWY059WBI SA 2200 AUTO2 CLR BLO 100 9.+ M M/25/16/2006/M/ M 44MM;
0208716320999992000070309004+45800-080520SY-SA+0190CWBI V0200501N002110141019N0140001N1+01361+01241999999ADDAA199000091GD14991+0141099GF108991081999012301999999MW1001REMSYN042AAXX  03094 71632 36/64 /0504 10136 20124;AWY055WBI SA 0900 AUTO2 E47 OVC 9.+ M M/14/12/0504/M/ M 64MM;EQDQ01+000990PRSWM4Q02  00002PRCP99
0171716320999992000070503004+45800-080520SY-SA+0190CWBI V0200101N000519999999N0140001N1+01111+01111999999ADDAA199000091MW1001REMSYN042AAXX  05034 71632 36/64 /0101 10111 20111;AWY059WBI SA 0300 AUTO2 CLR BLO 100 9.+ M M/11/11/0101/M/ M 11MM;EQDQ01+000990PRSWM4Q02  00002PRCP99
0114716320999992000071515004+45800-080520SAO  +0190CWBI V0200301N00151003001EN0144841N1+02101+01801999999ADDGD13991+0030099GF107991071999004501999999MW1001REMAWY055WBI SA 1500 AUTO2 E10 BKN 9.+ M M/21/18/0303/M/ M 04MM;
0114716320999992000071707004+45800-080520SAO  +0190CWBI V0209999C00001007501EN0144841N1+01401+01401999999ADDGD13991+0075099GF107991071999008001999999MW1001REMAWY055WBI SA 0700 AUTO2 E25 BKN 9.+ M M/14/14/0000/M/ M 00MM;
0146716320999992000072113004+45800-080520SAO  +0190CWBI V0203001N011810090019N0011271N1+99999+99999999999ADDGA1999+000159009GD16991+0001599GD23991+0090099GF107991071999000251999999MW1001REMAWY056WBI SA 1300 AUTO2 -X E30 BKN 0.7 M M/M/M/3023/M/ M MMMM;
0076716320999992000080422004+45800-080520SAO  +0190CWBI V0202601N003619999999N0144841N1+99999+99999999999ADDMW1001REMAWY058WBI SA 2200 AUTO2 CLR BLO 100 9.+ M M/M/15/2607/M/ M M0MM;
0113716320999992000080810004+45800-080520SAO  +0190CWBI V0202901N00051004201EN0144841N1+99999+99999999999ADDGD14991+0042099GF108991081999004501999999MW1001REMAWY054WBI SA 1000 AUTO2 E14 OVC 9.+ M M/M/16/2901/M/ M M5MM;
0075716320999992000081510004+45800-080520SAO  +0190CWBI V0209999C000019999999N0096561N1+99999+99999999999ADDMW1001REMAWY057WBI SA 1000 AUTO2 CLR BLO 100 6. M M/M/11/0000/M/ M M1MM;
0076716320999992000081705004+45800-080520SAO  +0190CWBI V0209999C000019999999N0144841N1+99999+99999999999ADDMW1001REMAWY058WBI SA 0500 AUTO2 CLR BLO 100 9.+ M M/M/05/0000/M/ M M0MM;
0112716320999992000082001004+45800-080520SAO  +0190CWBI V0209999C000012200019N0144841N1+99999+99999999999ADDGD12991+0210099GF102991021999022501999999MW1001REMAWY053WBI SA 0100 AUTO2 77 SCT 9.+ M M/M/09/0000/M/ M M5MM;
0173716320999992000082100004+45800-080520SY-SA+0190CWBI V0209999C000019999999N0140001N1+99999+99999999999ADDAA199000091MW1001REMSYN045AAXX  21004 71632 36/64 /0000 2098 333 70000;AWY058WBI SA 0000 AUTO2 CLR BLO 100 9.+ M M/M/10/0000/M/ M M8MM;EQDQ01+000990PRSWM4Q02  00002PRCP99
0156716320999992000082313004+45800-080520SAO  +0190CWBI V0201401N00151000901EN0040231N1+99999+99999999999ADDGD13991+0009099GD23991+0021099GF107991071999000751999999MW1001REMAWY082WBI SA 1300 AUTO2 E3 BKN 7 BKN 2.5 M M/M/17/1403/M/0002 PCPN 0.2MM PAST HR M M9MM;
0076716320999992000082513004+45800-080520SAO  +0190CWBI V0202701N001019999999N0144841N1+99999+99999999999ADDMW1001REMAWY058WBI SA 1300 AUTO2 CLR BLO 100 9.+ M M/M/17/2702/M/ M M0MM;
0075716320999992000082607004+45800-080520SAO  +0190CWBI V0201601N000519999999N0096561N1+99999+99999999999ADDMW1001REMAWY057WBI SA 0700 AUTO2 CLR BLO 100 6. M M/M/16/1601/M/ M M5MM;
0116716320999992000082704004+45800-080520SAO  +0190CWBI V0200501N002512200019N0144841N1+99999+99999999999ADDGD12991+0240099GF102991021999999999999999MW1001REMAWY057WBI SA 0400 AUTO2 86 SCT 9.+ M M/M/15/0505/M/0002 M M8MM;
0076716320999992000082805004+45800-080520SAO  +0190CWBI V0209999C000019999999N0144841N1+99999+99999999999ADDMW1001REMAWY058WBI SA 0500 AUTO2 CLR BLO 100 9.+ M M/M/08/0000/M/ M M7MM;
0116716320999992000090217004+45800-080520SAO  +0190CWBI V0200701N00201002701EN0144841N1+99999+99999999999ADDGD14991+0027099GF108991081999002501999999MW1001REMAWY057WBI SA 1700 AUTO2 E9 OVC 9.+ M M/M/13/0704/M/0002 M M1MM;
0113716320999992000090220004+45800-080520SAO  +0190CWBI V0200601N00151004201EN0144841N1+99999+99999999999ADDGD14991+0042099GF108991081999004501999999MW1001REMAWY054WBI SA 2000 AUTO2 E14 OVC 9.+ M M/M/14/0603/M/ M M6MM;
0076716320999992000090302004+45800-080520SAO  +0190CWBI V0209999C000019999999N0144841N1+99999+99999999999ADDMW1001REMAWY058WBI SA 0200 AUTO2 CLR BLO 100 9.+ M M/M/11/0000/M/ M M2MM;
0076716320999992000090613004+45800-080520SAO  +0190CWBI V0201501N002019999999N0144841N1+99999+99999999999ADDMW1001REMAWY058WBI SA 1300 AUTO2 CLR BLO 100 9.+ M M/M/08/1504/M/ M M1MM;
0090716320999992000091717004+45800-080520SAO  +0190CWBI V0202401N002019999999N0144841N1+99999+99999999999ADDMW1001OC100771REMAWY064WBI SA 1700 AUTO2 CLR BLO 100 9.+ M M/M/15/2404+15/M/ 1002 M9MM;
0090716320999992000091723004+45800-080520SAO  +0190CWBI V0203001N003019999999N0144841N1+99999+99999999999ADDMW1001OC101081REMAWY064WBI SA 2300 AUTO2 CLR BLO 100 9.+ M M/M/09/3006+21/M/ 3010 M7MM;
0218716320999992000091912004+45800-080520SY-SA+0190CWBI V0201901N002119999999N0140001N1+99999+99999999999ADDAA124000091MA1999999098561MD1510021+9999MW1001REMSYN058AAXX  19124 71632 36/64 /1904 20140 39856 55002 333 70000;AWY061WBI SA 1200 AUTO2 CLR BLO 100 9.+ M M/M/14/1904/M/ 5002 M0MM;EQDQ01+000990PRSWM4Q02  00002PRCP24
0219716320999992000092009004+45800-080520SY-SA+0190CWBI V0202401N005119999999N0140001N1+99999+99999999999ADDAA199000091MA1999999097891MD1810061+9999MW1001OC100871REMSYN048AAXX  20094 71632 36/64 /2410 20149 39789 58006;AWY064WBI SA 0900 AUTO2 CLR BLO 100 9.+ M M/M/15/2410+17/M/ 8006 M9MM;EQDQ01+000990PRSWM4Q02  00002PRCP99
0131716320999992000092411004+45800-080520SAO  +0190CWBI V0200301N00361004801EN0144841N1+99999+99999999999ADDGD13991+0048099GF107991071999004501999999MW1001OC100921REMAWY064WBI SA 1100 AUTO2 E16 BKN 9.+ M M/M/00/0307+18/M/0002 1018 M0MM;
0141716320999992000100302004+45800-080520SAO  +0190CWBI V0202501N00251005701EN0112651N1+99999+99999999999ADDGD13991+0057099GD23991+0105099GF107991071999004501999999MW1001REMAWY067WBI SA 0200 AUTO2 E19 BKN 35 BKN 7. M M/M/14/2505/M/0002 1012 M4MM;
0117716320999992000100802004+45800-080520SAO  +0190CWBI V0200301N00151015001EN0144841N1+99999+99999999999ADDGD14991+0150099GF108991081999017501999999MW1001REMAWY058WBI SA 0200 AUTO2 E56 OVC 9.+ M M/M/-01/0303/M/ 1011 M2MM;
0116716320999992000101601004+45800-080520SAO  +0190CWBI V0200601N00301010201EN0144841N1+99999+99999999999ADDGD14991+0102099GF108991081999012501999999MW1001REMAWY057WBI SA 0100 AUTO2 E34 OVC 9.+ M M/M/00/0606/M/ 0002 M0MM;
0141716320999992000101717004+45800-080520SAO  +0190CWBI V0201801N00151002101EN0144841N1+99999+99999999999ADDGD13991+0021099GD24991+0039099GF108991081999002501999999MW1001REMAWY067WBI SA 1700 AUTO2 E7 BKN 13 OVC 9.+ M M/M/10/1803/M/0002 8007 M7MM;
0069716320999992000102319004+45800-080520SAO  +0190CWBI V0201601N001019999999N0144841N1+99999+99999999999ADDMW1001REMAWY051WBI SA 1900 AUTO2 M 9.+ M M/M/07/1602/M/ 8018 M4MM;
0160716320999992000102405004+45800-080520SAO  +0190CWBI V0201701N00051005101EN0128751N1+99999+99999999999ADDGD13991+0051099GD23991+0105099GF107991071999004501999999MW1001REMAWY086WBI SA 0500 AUTO2 E17 BKN 35 BKN 8. M M/M/10/1701/M/0004 PCPN 0.2MM PAST HR 6011 M6MM;
0263716320999992000102506004+45800-080520SY-SA+0190CWBI V0202201N001010009019N0002001N1+99999+99999999999ADDAA124000391AA299999999GD15991+0009099GF109991091999000601999999MA1999999100241MD1610021+9999MW1001REMSYN058AAXX  25064 71632 36/02 /2202 20102 30024 56002 333 70002;AWY054WBI SA 0600 AUTO2 W3 X 0.2 M M/M/10/2202/M/ 6002 M2MM;EQDQ01+000990PRSWM4Q02  99992PRCP99
0080716320999992000102923004+45800-080520SAO  +0190CWBI V0203601N001019999999N0144841N1+99999+99999999999ADDMW1001REMAWY062WBI SA 2300 AUTO2 CLR BLO 100 9.+ M M/M/-07/3602/M/ 5002 M6MM;
0247716320999992000110300004+45800-080520SY-SA+0190CWBI V0201601N002612200019N0140001N1+99999+99999999999ADDAA124000091GD12991+0147099GF199999021999012301999999MA1999999099501MW1001REMSYN052AAXX  03004 71632 36/64 /1605 20023 39950 333 70000;AWY053WBI SA 0000 AUTO2 49 SCT 9.+ M M/M/02/1605/M/ M M3MM;EQDQ01+000022SCOTCVQ02+000990PRSWM4Q03  00002PRCP24
0080716320999992000110623004+45800-080520SAO  +0190CWBI V0200501N001519999999N0144841N1+99999+99999999999ADDMW1001REMAWY062WBI SA 2300 AUTO2 CLR BLO 100 9.+ M M/M/-04/0503/M/ 5001 M3MM;
0138716320999992000110813004+45800-080520SAO  +0190CWBI V0201601N00101005101EN0144841N1+99999+99999999999ADDGD13991+0051099GD23991+0105099GF107991071999004501999999MW1001REMAWY064WBI SA 1300 AUTO2 E17 BKN 35 BKN 9.+ M M/M/05/1602/M/ 0002 M2MM;
0148716320999992000111402004+45800-080520SAO  +0190CWBI V0201501N00361001801EN0112651N1+99999+99999999999ADDGD14991+0018099GF108991081999001501999999MW1001OC100771REMAWY081WBI SA 0200 AUTO2 E6 OVC 7. M M/M/04/1507+15/M/0006 PCPN 0.4MM PAST HR 6021 M1MM;
0158716320999992000111523004+45800-080520SAO  +0190CWBI V0201701N00051000601EN0040231N1+99999+99999999999ADDGD13991+0006099GD23991+0021099GD33991+0105099GF107991071999000751999999MW1001REMAWY069WBI SA 2300 AUTO2 E2 BKN 7 BKN 35 BKN 2.5 M M/M/00/1701/M/ 3006 M0MM;
0069716320999992000112404004+45800-080520SAO  +0190CWBI V0209999C000019999999N0096561N1+99999+99999999999ADDMW1001REMAWY051WBI SA 0400 AUTO2 M 6. M M/M/-21/0000/M/ 8002 M6MM;
0125716320999992000121210004+45800-080520SAO  +0190CWBI V0200201N00561000901WN0004831N1-01701-01801999999ADDGD15991+0009099GF109991091999000751999999MW1001OC101381REMAWY058WBI SA 1000 AUTO2 W3 X 0.3 M M/-17/-18/0211+27/M/M M 74MM;
0154716320999992000121519004+45800-080520SAO  +0190CWBI V0202201N00411004501EN0080471N1+00001-00201999999ADDGD13991+0045099GD24991+0093099GF108991081999004501999999MW1001OC100821REMAWY072WBI SA 1900 AUTO2 E15 BKN 31 OVC 5. M 271/00/-02/2208+16/M/M 8017 -22MM;
0236716320999992000121615004+45800-080520SY-SA+0190CWBI V0201301N002610150019N0140001N1-00041-00281101861ADDGD14991+0150099GF108991081999015001999999MA1999999099491MD1610201+9999MW1001REMSYN060AAXX  16154 71632 46/64 /1305 11004 21028 39949 40186 56020;AWY063WBI SA 1500 AUTO2 E51 OVC 9.+ M 186/00/-03/1305/M/M 6020 -48MM;EQDQ01+000990PRSWM4
0142716320999992000122001004+45800-080520SAO  +0190CWBI V0200401N001510150019N0112651N1-01301-01501999999ADDGD12991+0009099GD24991+0150099GF108991081999000751999999MW1001REMAWY068WBI SA 0100 AUTO2 3 SCT E51 OVC 7. M 128/-13/-15/0403/M/M 1006 28MM;
0233716320999992000122403004+45800-080520SY-SA+0190CWBI V0200601N001010003019N0000001N1-01231-01321102421ADDGD15991+0003099GF109991091999000151999999MA1999999099951MD1810301+9999MW1001REMSYN060AAXX  24034 71632 46/00 /0602 11123 21132 39995 40242 58030;AWY060WBI SA 0300 AUTO2 W1 X 0.0 M 242/-12/-13/0602/M/M 8030 32MM;EQDQ01+000990PRSWM4
0189716320999992000122609004+45800-080520SY-SA+0190CWBI V0200201N001019999999N0140001N1-01881-02151103001ADDMA1999999100521MD1810151+9999MW1001REMSYN060AAXX  26094 71632 46/64 /0202 11188 21215 30052 40300 58015;AWY057WBI SA 0900 AUTO2 M 9.+ M 300/-19/-22/0202/M/M 8015 85MM;EQDQ01+000990PRSWM4
0120716320999992000122816004+45800-080520SAO  +0190CWBI V0200301N003012200019N0144841N1-01501-01801999999ADDGD12991+0001599GF102991999999000251999999MW1001REMAWY061WBI SA 1600 AUTO2 0 SCT 9.+ M 225/-15/-18/0306/M/M 0008 62MM;
0301716320999992000122821004+45800-080520SY-SA+0190CWBI V0200301N001510009019N0140001N1-01171-01391102251ADDGD13991+0009099GD23991+0021099GD33991+0045099GD43991+0270099GF107991071999000601999999MA1999999099801MD1310081+9999MW1001REMSYN060AAXX  28214 71632 46/64 /0303 11117 21139 39980 40225 53008;AWY083WBI SA 2100 AUTO2 E3 BKN 7 BKN 15 BKN 98 BKN 9.+ M 225/-12/-14/0303/ M/M 3008 79MM;EQDQ01+000990PRSWM4
0122716320999992000123007004+45800-080520SAO  +0190CWBI V0200601N00301024001EN0144841N1-01001-01201999999ADDGD14991+0240099GF108991081999999999999999MW1001REMAWY063WBI SA 0700 AUTO2 E87 OVC 9.+ M 166/-10/-12/0606/M/M 6009 85MM;
0268716320999992000123018004+45800-080520SY-SA+0190CWBI V0200601N003119999999N0140001N1-00921-01171101631ADDAA199999999KA1120M-00921KA2999N-01131MA1999999099221MD1410001+9999MW1001REMSYN076AAXX  30184 71632 46/64 /0606 11092 21117 39922 40163 54000 333 11092 21113;AWY067WBI SA 1800 AUTO2 CLR BLO 100 9.+ M 163/-09/-12/0606/M/M 4000 28MM;EQDQ01+000990PRSWM4Q02  99992PRCP99
0132716320999992000123023004+45800-080520SAO  +0190CWBI V0200301N004112200019N0144841N1-01301-01501999999ADDGD12991+0045099GF102991021999004501999999MW1001OC100921REMAWY065WBI SA 2300 AUTO2 15 SCT 9.+ M 150/-13/-15/0308+18/M/M M002 57MM;
0178716330999992000011020004+44750-081100FM-15+0222CYVV V0201501N006210024019N0193121N1+00501+00301098651ADDGD13991+0024099GD24991+0036099GF108991999999999999999999MA1098581999999MW1001REMMET070CYVV 102000Z 15012KT 12SM BKN008 OVC012 05/03 A2911 RMK SF6SC2 SLP865;EQDQ01+000000PRSWM2
0428716330999992000012100004+44750-081100SY-MT+0222CYVV V0203101N004612200019N0240001N1-01601-01881101481ADDAA106002091AA224008291AC10I9AJ100219199999999AL10600391AY181061AY281061GD12991+0075099GF199999011051008001001001IA1249KA1120M-00901KA2180N-01601MA1101291098661MD1110181+9999MW1011REMSYN118AAXX  21004 71633 11574 13109 11160 21188 39866 40148 51018 60021 70188 81500 333 11090 21160 48021 70082 90943 93103;MET062CYVV 210000Z 31009KT 15SM FEW025 M16/M19 A2991 RMK SC1 SLP148;EQDQ01+000012SCOTCVQ02+000000PRSWM2Q03    003PRSWM1
0133716330999992000012108004+44750-081100FM-15+0222CYVV V0203201N002612200019N0241401N1-01701-01801101521ADDGF100991999999999999999999MA1101321999999MW1001REMMET055CYVV 210800Z 32005KT 15SM SKC M17/M18 A2992 RMK SLP152;EQDQ01+000000PRSWM2
0374716330999992000012206004+44750-081100SY-MT+0222CYVV V0203201N001012200019N0240001N1-01651-02141101891ADDAA124000291AL12499999GD12991+0060099GD22991+0135099GF102991021051008001001001KA1240M-01391KA2240N-01781MA1101691099041MD1710031+9999MW1001OA132401031REMSYN116AAXX  22064 71633 32574 23202 11165 21214 39904 40189 57003 82500 333 11139 21178 70002 555 10002 20002 33320 40010;MET072CYVV 220600Z 32002KT 15SM FEW020 FEW045 M16/M21 A3003 RMK SC1SC2 SLP189;EQDQ01+000000PRSWM2
0151716330999992000012417084+44750-081100FM-16+0222CYVV V0202401N004110054019N0024141N1+99999+99999999999ADDGD14991+0054099GF108991999999999999999999MW1001MW2851REMMET067CYVV 241708Z 24008KT 1 1/2SM -SHSN OVC018 RMK SN2SC6 VSBY VRBL 1-2;EQDQ01+000003PRSWM1
0235716330999992000012809004+44750-081100SY-MT+0222CYVV V0203001N002112200019N0240001N1-01401-01801103381ADDGD12991+0075099GF102991999999008001999999MA1103181100501MD1010111+9999MW1001REMSYN060AAXX  28094 71633 42574 23004 11140 21180 30050 40338 50011;MET062CYVV 280900Z 30004KT 15SM FEW025 M14/M18 A3047 RMK SC2 SLP338;EQDQ01+000000PRSWM2
0144716330999992000013015564+44750-081100FM-16+0222CYVV V0200701N002110075019N0241401N1+99999+99999999999ADDGD12991+0042099GD24991+0075099GF108991999999999999999999MW1001REMMET051CYVV 301556Z 07004KT 15SM FEW014 OVC025 RMK SC1SC7;EQDQ01+000000PRSWM2
0176716330999992000013020004+44750-081100FM-15+0222CYVV V0201801N002110060019N0048281N1-00101-00401101801ADDGD14991+0060099GF108991999999999999999999MA1101691999999MW1851REMMET067CYVV 302000Z 18004KT 3SM -SHSN OVC020 M01/M04 A3003 RMK SC8 SLP180;EQDQ01+000003PRSWM1Q02    003PRSWM1
0130716330999992000013101454+44750-081100FM-16+0222CYVV V0209999C000010045019N0048281N1+99999+99999999999ADDGD14991+0045099GF108991999999999999999999MW1001MW2851REMMET046CYVV 310145Z 00000KT 3SM -SHSN OVC015 RMK SC8;EQDQ01+000003PRSWM1
0201716330999992000020408004+44750-081100FM-15+0222CYVV V0200701N005110036019N0064371N1-00501-00701101091ADDGD13991+0036099GD24991+0060099GF108991999999999999999999MA1100981999999MW1851REMMET077CYVV 040800Z 07010KT 4SM -SHSN BKN012 OVC020 M05/M07 A2982 RMK SC6SC2 SLP109;EQDQ01+000003PRSWM1Q02    003PRSWM1
0144716330999992000020904004+44750-081100FM-15+0222CYVV V0201801N006712200019N0241401N1-00701-01501101641ADDGF100991999999999999999999MA1101491999999MW1001OC101031REMMET058CYVV 090400Z 18013G20KT 15SM SKC M07/M15 A2997 RMK SLP164;EQDQ01+000000PRSWM2
0193716330999992000021605004+44750-081100FM-15+0222CYVV V0201801N005710045019N0032181N1-00201-00301100981ADDGD14991+0045099GF108991999999999999999999MA1100881999999MW1851REMMET084CYVV 160500Z 18011KT 2SM -SHSN OVC015 M02/M03 A2979 RMK SN3SC5 VSBY VRBL 1-3 SLP098;EQDQ01+000003PRSWM1Q02    003PRSWM1
0155716330999992000030511004+44750-081100FM-15+0222CYVV V0203201N002112200019N0241401N1+00001-00201101121ADDGD12991+0750099GF102991999999999999999999MA1101051999999MW1001REMMET062CYVV 051100Z 32004KT 15SM FEW250 M00/M02 A2984 RMK CI1 SLP112;EQDQ01+000000PRSWM2
0340716330999992000030700004+44750-081100SY-MT+0222CYVV V0209999C000012200019N0240001N1+00501-00301102321ADDAA124000091GD12991+0360099GD22991+0750099GF102991011001999999071011KA1120M+00841KA2180N-00501MA1102241099561MD1710061+9999MW1001REMSYN088AAXX  07004 71633 32974 20000 10050 21030 39956 40232 57006 81071 333 10084 21050 70000;MET071CYVV 070000Z 00000KT 15SM FEW120 FEW250 05/M03 A3019 RMK AC1CI0 SLP232;EQDQ01+000000PRSWM2Q02  00002PRCP24
0222716330999992000030809004+44750-081100SY-MT+0222CYVV V0201401N002612200019N0240001N1+00241+00181101181ADDGF100991001001999999001001MA1101151098501MD1810051+9999MW1401REMSYN066AAXX  08094 71633 41974 01405 10024 20018 39850 40118 58005 740//;MET058CYVV 080900Z 14005KT 15SM VCFG SKC 02/02 A2987 RMK SLP118;EQDQ01    003PRSWM1
0178716330999992000031516004+44750-081100FM-15+0222CYVV V0200601N001510036019N0241401N1+00201+00101101551ADDGD13991+0036099GD24991+0075099GF108991999999999999999999MA1101461999999MW1001REMMET070CYVV 151600Z 06003KT 15SM BKN012 OVC025 02/01 A2996 RMK SF6SC2 SLP155;EQDQ01+000000PRSWM2
0235716330999992000031903004+44750-081100SY-MT+0222CYVV V0201301N002112200019N0240001N1-00231-01051102871ADDGD12991+0750099GF102991999999999999999999MA1102741100081MD1710071+9999MW1001REMSYN060AAXX  19034 71633 42974 21304 11023 21105 30008 40287 57007;MET062CYVV 190300Z 13004KT 15SM FEW250 M02/M10 A3034 RMK CI0 SLP287;EQDQ01+000000PRSWM2
0374716330999992000032612004+44750-081100SY-MT+0222CYVV V0202701N00621010501CN0240001N1+00291-00101100691ADDAA124000791GD12991+0045099GD23991+0105099GD33991+0240099GF107991061081004501071001GJ104629KA1999M+01441KA2120N+00291MA1100611098001MD1210141+9999MW1001OC101031REMSYN094AAXX  26124 71633 32474 72712 10029 21010 39800 40069 52014 86870 333 10144 20029 55077 79999;MET084CYVV 261200Z 27012G20KT 15SM FEW015 BKN035 BKN080 03/M01 A2971 RMK CF1SC5AC2 SLP069;EQDQ01+000000PRSWM2
0203716330999992000032722004+44750-081100FM-15+0222CYVV V0202101N003610090019N0241401N1+00601+00001099321ADDGD12991+0075099GD23991+0090099GD33991+0300099GF107991999999999999999999MA1099291999999MW1001REMMET080CYVV 272200Z 21007KT 15SM FEW025 BKN030 BKN100 06/00 A2932 RMK CU1SC6AC1 SLP932;EQDQ01+000000PRSWM2
0146716330999992000040206334+44750-081100FM-16+0222CYVV V0209999C000010144019N0241401N1+99999+99999999999ADDGD14991+0144099GF108991999999999999999999MW1001MW2801REMMET062CYVV 020633Z 00000KT 15SM -SHRA OVC048 RMK SC8 PRECIP VRY LGT;EQDQ01+000003PRSWM1
0165716330999992000040317004+44750-081100FM-15+0222CYVV V0203201N001010084019N0193121N1+01001+00601100831ADDGD14991+0084099GF108991999999999999999999MA1100781999999MW1001REMMET072CYVV 031700Z 32002KT 12SM OVC028 10/06 A2976 RMK SC8 BINOVC HAZY SLP083;EQDQ01+000000PRSWM2
0131716330999992000040800314+44750-081100FM-16+0222CYVV V0200701N00311000151CN0012071N1+99999+99999999999ADDGD15991+0001599GF109991999999000251999999MW1001MW2851REMMET047CYVV 080031Z 07006KT 3/4SM -SHSN VV003 RMK SN8;EQDQ01+000003PRSWM1
0260716330999992000040815004+44750-081100SY-MT+0222CYVV V0203601N00721000151CN0002001N1-00321-00431100921ADDGD15991+0001599GF109991091999000151999999MA1100811098191MD1210021+9999MW1731OC101231REMSYN066AAXX  08154 71633 41/02 93614 11032 21043 39819 40092 52002 773//;MET073CYVV 081500Z 36014G24KT 1/8SM SN DRSN VV003 M03/M04 A2977 RMK SN8 SLP092;EQDQ01    003PRSWM1
0154716330999992000041723004+44750-081100FM-15+0222CYVV V0200601N006210180019N0241401N1+00501-00601101971ADDGD14991+0180099GF108991999999999999999999MA1101901999999MW1001REMMET061CYVV 172300Z 06012KT 15SM OVC060 05/M06 A3009 RMK SC8 SLP197;EQDQ01+000000PRSWM2
0132716330999992000042411004+44750-081100FM-15+0222CYVV V0200101N002612200019N0241401N1+00401-00301101701ADDGF100991999999999999999999MA1101661999999MW1001REMMET054CYVV 241100Z 01005KT 15SM SKC 04/M03 A3002 RMK SLP170;EQDQ01+000000PRSWM2
0212716330999992000042521004+44750-081100SY-MT+0222CYVV V0200301N005112200019N0240001N1+01061-00821101991ADDGF100991001001999999001001MA1101931099281MD1710101+9999MW1001REMSYN060AAXX  25214 71633 42974 00310 10106 21082 39928 40199 57010;MET054CYVV 252100Z 03010KT 15SM SKC 11/M08 A3010 RMK SLP199;EQDQ01+000000PRSWM2
0153716330999992000042713004+44750-081100FM-15+0222CYVV V0201801N000512200019N0241401N1+00601+00001101641ADDGD12991+0750099GF104991999999999999999999MA1101591999999MW1001REMMET060CYVV 271300Z 18001KT 15SM SCT250 06/00 A3000 RMK CI2 SLP164;EQDQ01+000000PRSWM2
0154716330999992000050422224+44750-081100FM-16+0222CYVV V0202001N007210135019N0241401N1+99999+99999999999ADDGD13991+0135099GD23991+0300099GF107991999999999999999999MW1001REMMET061CYVV 042222Z 20014KT 15SM BKN045 BKN100 RMK SC6AC2 CU ASOCTD;EQDQ01+000000PRSWM2
0196716330999992000050820004+44750-081100FM-15+0222CYVV V0201901N002110300019N0064371N1+02601+01901100281ADDGD12991+0090099GD23991+0300099GF107991999999999999999999MA1100271999999MW1051REMMET072CYVV 082000Z 19004KT 4SM HZ FEW030 BKN100 26/19 A2961 RMK SC2AC4 SLP028;EQDQ01+000003PRSWM1Q02    003PRSWM1
0178716330999992000050914004+44750-081100FM-15+0222CYVV V0202401N002110033019N0241401N1+01001+00901100331ADDGD12991+0015099GD24991+0033099GF108991999999999999999999MA1100341999999MW1001REMMET070CYVV 091400Z 24004KT 15SM FEW005 OVC011 10/09 A2963 RMK SF1SC7 SLP033;EQDQ01+000000PRSWM2
0384716330999992000051100004+44750-081100SY-MT+0222CYVV V0202801N001012200019N0240001N1+01141+00541100901ADDAA106000591AA224016391AY181061AY251061GD12991+0300099GD22991+0750099GF102991011001999999071011KA1120M+01241KA2180N+00671MA1100851098231MD1210221+9999MW1011REMSYN106AAXX  11004 71633 11974 22802 10114 20054 39823 40090 52022 69941 70185 81071 333 10124 20067 70163 90943;MET070CYVV 110000Z 28002KT 15SM FEW100 FEW250 11/05 A2978 RMK AC1CI0 SLP090;EQDQ01+000000PRSWM2Q02    003PRSWM1
0203716330999992000051716004+44750-081100FM-15+0222CYVV V0203301N003110750019N0193121N1+01301+00901101711ADDGD12991+0060099GD22991+0300099GD33991+0750099GF107991999999999999999999MA1101691999999MW1001REMMET080CYVV 171600Z 33006KT 12SM FEW020 SCT100 BKN250 13/09 A3003 RMK CU2AC2CI0 SLP171;EQDQ01+000000PRSWM2
0339716330999992000052818004+44750-081100SY-MT+0222CYVV V0200601N00461066001CN0240001N1+01341+00851101351ADDAA124000091GD12991+0075099GD24991+0660099GF108991011011008001001011KA1120M+01341KA2240N+00841MA1101321098681MD1710091+9999MW1001REMSYN088AAXX  28184 71633 32574 80609 10134 20085 39868 40135 57009 81101 333 10134 20084 70000;MET070CYVV 281800Z 07009KT 15SM FEW025 OVC220 13/09 A2992 RMK CU1CI6 SLP135;EQDQ01+000000PRSWM2Q02  00002PRCP24
0258716330999992000052921004+44750-081100SY-MT+0222CYVV V0200201N003112200019N0240001N1+01761+00921101781ADDGD12991+0120099GD22991+0750099GF102991999999012501999999MA1101761099101MD1810061+9999MW1001REMSYN060AAXX  29214 71633 42674 20206 10176 20092 39910 40178 58006;MET070CYVV 292100Z 02006KT 15SM FEW040 FEW250 18/09 A3005 RMK SC1CI0 SLP178;EQDQ01+000000PRSWM2
0153716330999992000060301004+44750-081100FM-15+0222CYVV V0203201N001010075019N0241401N1+01001+00801101801ADDGD14991+0075099GF108991999999999999999999MA1101801999999MW1001REMMET060CYVV 030100Z 32002KT 15SM OVC025 10/08 A3006 RMK SC8 SLP180;EQDQ01+000000PRSWM2
0353716330999992000060412004+44750-081100SY-MT+0222CYVV V0201901N00211027001CN0240001N1+00961+00581102161ADDAA124000091GD13991+0270099GD23991+0810099GF107991051001999999071011GJ109009KA1999M+01631KA2120N+00541MA1102131099461MD1510001+9999MW1001REMSYN094AAXX  04124 71633 32974 71904 10096 20058 39946 40216 55000 85071 333 10163 20054 55150 70000;MET070CYVV 041200Z 19004KT 15SM BKN090 BKN270 10/06 A3016 RMK AC5CI2 SLP216;EQDQ01+000000PRSWM2Q02  00002PRCP24
0166716330999992000061004004+44750-081100FM-15+0222CYVV V0209999C000012200019N0160931N1+01001+01001101281ADDGF100991999999999999999999MA1101251999999MW1401REMMET072CYVV 100400Z 00000KT 10SM VCFG SKC 10/10 A2990 RMK LW FG OVR BAY SLP128;EQDQ01+000003PRSWM1Q02    003PRSWM1
0153716330999992000061222004+44750-081100FM-15+0222CYVV V0200201N000510075019N0241401N1+01501+01201102101ADDGD14991+0075099GF108991999999999999999999MA1102071999999MW1001REMMET060CYVV 122200Z 02001KT 15SM OVC025 15/12 A3014 RMK SC8 SLP210;EQDQ01+000000PRSWM2
0212716330999992000061413004+44750-081100FM-15+0222CYVV V0201601N003112200019N0128741N1+02101+01801101151ADDGD12991+0210099GD22991+0750099GF104991999999999999999999MA1101151999999MW1401REMMET088CYVV 141300Z 16006KT 8SM VCFG FEW075 SCT250 21/18 A2987 RMK AC1CC2 LO FG OVR BAY SLP115;EQDQ01+000003PRSWM1Q02    003PRSWM1
0258716330999992000061803004+44750-081100SY-MT+0222CYVV V0201901N001512200019N0240001N1+00941+00731102241ADDGD12991+0300099GD22991+0750099GF104991999999999999999999MA1102201099541MD1310111+9999MW1001REMSYN060AAXX  18034 71633 42974 41903 10094 20073 39954 40224 53011;MET070CYVV 180300Z 19003KT 15SM FEW100 SCT250 09/07 A3018 RMK AC1CI1 SLP224;EQDQ01+000000PRSWM2
0178716330999992000061811004+44750-081100FM-15+0222CYVV V0201701N002110090019N0241401N1+01001+00901102171ADDGD13991+0090099GD24991+0300099GF108991999999999999999999MA1102131999999MW1001REMMET070CYVV 181100Z 17004KT 15SM BKN030 OVC100 10/09 A3016 RMK SC6AC2 SLP217;EQDQ01+000000PRSWM2
0203716330999992000062022004+44750-081100FM-15+0222CYVV V0201301N004610270019N0241401N1+02501+01501101321ADDGD12991+0120099GD23991+0270099GD34991+0750099GF108991999999999999999999MA1101321999999MW1001REMMET080CYVV 202200Z 13009KT 15SM FEW040 BKN090 OVC250 25/15 A2992 RMK SC2AC4CI2 SLP132;EQDQ01+000000PRSWM2
0153716330999992000062607004+44750-081100FM-15+0222CYVV V0201601N001512200019N0241401N1+01401+01301101481ADDGD12991+0120099GF102991999999999999999999MA1101491999999MW1001REMMET060CYVV 260700Z 16003KT 15SM FEW040 14/13 A2997 RMK SC2 SLP148;EQDQ01+000000PRSWM2
0169716330999992000062919144+44750-081100FM-16+0222CYVV V0209999C000010240019N0241401N1+99999+99999999999ADDGD12991+0075099GD22991+0090099GD33991+0240099GF107991999999999999999999MW1001REMMET061CYVV 291914Z 00000KT 15SM FEW025 SCT030 BKN080 RMK SC1SC2AC1;EQDQ01+000000PRSWM2
0189716330999992000070122004+44750-081100FM-15+0222CYVV V0202101N007210360019N0241401N1+02401+01501101341ADDGD13991+0360099GD24991+0750099GF108991999999999999999999MA1101351999999MW1001OC101031REMMET073CYVV 012200Z 21014G20KT 15SM BKN120 OVC250 24/15 A2993 RMK AC5CI2 SLP134;EQDQ01+000000PRSWM2
0119716330999992000070321484+44750-081100FM-16+0222CYVV V0200201N002110045019N0241401N1+99999+99999999999ADDGD14991+0045099GF108991999999999999999999MW1001REMMET041CYVV 032148Z 02004KT 15SM OVC015 RMK SC8;EQDQ01+000000PRSWM2
0203716330999992000071416004+44750-081100FM-15+0222CYVV V0202301N002110060019N0241401N1+02101+01801100631ADDGD13991+0060099GD23991+0270099GD33991+0750099GF107991999999999999999999MA1100641999999MW1001REMMET080CYVV 141600Z 23004KT 15SM BKN020 BKN090 BKN250 21/18 A2972 RMK SC5AC2CI0 SLP063;EQDQ01+000000PRSWM2
0128716330999992000071512164+44750-081100FM-16+0222CYVV V0209999C00001000151CN0008051N1+99999+99999999999ADDGD15991+0001599GF109991999999000251999999MW1001MW2451REMMET044CYVV 151216Z 00000KT 1/2SM FG VV003 RMK FG8;EQDQ01+000003PRSWM1
0153716330999992000072005004+44750-081100FM-15+0222CYVV V0201301N001512200019N0241401N1+00901+00801101581ADDGD12991+0240099GF102991999999999999999999MA1101561999999MW1001REMMET060CYVV 200500Z 13003KT 15SM FEW080 09/08 A2999 RMK AC1 SLP158;EQDQ01+000000PRSWM2
0286716330999992000072306004+44750-081100SY-MT+0222CYVV V0209999C000012200019N0240001N1+00981+00871102111ADDAA124000091GF100991001001999999001001KA1240M+01791KA2240N+00981MA1102071099421MD1210031+9999MW1001REMSYN082AAXX  23064 71633 32974 00000 10098 20087 39942 40211 52003 333 10179 20098 70000;MET053CYVV 230600Z 00000KT 15SM SKC 10/09 A3014 RMK SLP211;EQDQ01+000000PRSWM2Q02  00002PRCP24
0203716330999992000072701004+44750-081100FM-15+0222CYVV V0201201N001510750019N0241401N1+02301+01701101971ADDGD12991+0075099GD22991+0240099GD33991+0750099GF107991999999999999999999MA1101961999999MW1001REMMET080CYVV 270100Z 12003KT 15SM FEW025 SCT080 BKN250 23/17 A3011 RMK SC2AC2CI0 SLP197;EQDQ01+000000PRSWM2
0223716330999992000072923004+44750-081100FM-15+0222CYVV V0200301N004110750019N0241401N1+02401+01901101621ADDGA1999+007509029GD12991+0075099GD22991+0360099GD33991+0750099GF107991999999999999999999MA1101631999999MW1001REMMET084CYVV 292300Z 03008KT 15SM FEW025TCU FEW120 BKN250 24/19 A3001 RMK TCU1AC1CI3 SLP162;EQDQ01+000000PRSWM2
0152716330999992000080108004+44750-081100FM-15+0222CYVV V0201801N003110051019N0128741N1+02101+02001101231ADDGD14991+0051099GF108991999999999999999999MA1101251999999MW1001REMMET059CYVV 010800Z 18006KT 8SM OVC017 21/20 A2990 RMK SC8 SLP123;EQDQ01+000000PRSWM2
0174716330999992000080214004+44750-081100FM-15+0222CYVV V0202301N005110009019N0016091N1+02201+02001101031ADDGD14991+0009099GF108991999999999999999999MA1101051999999MW1101REMMET065CYVV 021400Z 23010KT 1SM BR OVC003 22/20 A2984 RMK FG4SF4 SLP103;EQDQ01+000003PRSWM1Q02    003PRSWM1
0131716330999992000080805004+44750-081100FM-15+0222CYVV V0202401N001012200019N0241401N1+01801+01601101131ADDGF100991999999999999999999MA1101151999999MW1001REMMET053CYVV 080500Z 24002KT 15SM SKC 18/16 A2987 RMK SLP113;EQDQ01+000000PRSWM2
0150716330999992000080900214+44750-081100FM-16+0222CYVV V0203501N00051000151CN0008051N1+99999+99999999999ADDGD15991+0001599GF109991999999000251999999MW1451MW2801MW3951REMMET060CYVV 090021Z 35001KT 1/2SM -TSRA FG VV002 RMK FG8 CB ASOCTD;EQDQ01+000003PRSWM1
0152716330999992000080909154+44750-081100FM-16+0222CYVV V0202801N003110054019N0241401N1+99999+99999999999ADDGD12991+0018099GD24991+0054099GF108991999999999999999999MW1001REMMET059CYVV 090915Z 28006KT 15SM SCT006 OVC018 RMK SF3SC5 CIG RGD;EQDQ01+000000PRSWM2
0153716330999992000081016004+44750-081100FM-15+0222CYVV V0202401N003110054019N0241401N1+02201+01901101601ADDGD13991+0054099GF107991999999999999999999MA1101591999999MW1001REMMET060CYVV 101600Z 24006KT 15SM BKN018 22/19 A3000 RMK SC6 SLP160;EQDQ01+000000PRSWM2
0153716330999992000081707004+44750-081100FM-15+0222CYVV V0201801N001012200019N0241401N1+00901+00801102061ADDGD12991+0750099GF102991999999999999999999MA1102031999999MW1001REMMET060CYVV 170700Z 18002KT 15SM FEW250 09/08 A3013 RMK CI1 SLP206;EQDQ01+000000PRSWM2
0314716330999992000081806004+44750-081100SY-MT+0222CYVV V0201201N001510210019N0240001N1+01351+01221101541ADDAA124000091GD14991+0210099GF108991081001022501071999KA1240M+02001KA2240N+00701MA1101521098881MD1810091+9999MW1001REMSYN088AAXX  18064 71633 32874 81203 10135 20122 39888 40154 58009 8807/ 333 10200 20070 70000;MET060CYVV 180600Z 12003KT 15SM OVC075 14/12 A2998 RMK AC8 SLP154;EQDQ01+000000PRSWM2Q02  00002PRCP24
0153716330999992000081813544+44750-081100FM-16+0222CYVV V0201901N001510036019N0020111N1+99999+99999999999ADDGD14991+0036099GF108991999999999999999999MW1001MW2801REMMET053CYVV 181354Z 19003KT 1 1/4SM -SHRA BR OVC012 RMK SC8;EQDQ01+000100PRSWM3Q02+000003PRSWM1
0155716330999992000082407004+44750-081100FM-15+0222CYVV V0202101N002612200019N0010061N1+01501+01501101741ADDGF100991999999999999999999MA1101731999999MW1101REMMET061CYVV 240700Z 21005KT 5/8SM BR SKC 15/15 A3004 RMK FG6 SLP174;EQDQ01+000003PRSWM1Q02    003PRSWM1
0153716330999992000082514004+44750-081100FM-15+0222CYVV V0202201N002612200019N0241401N1+01701+01601102041ADDGD12991+0075099GF102991999999999999999999MA1102031999999MW1001REMMET060CYVV 251400Z 22005KT 15SM FEW025 17/16 A3013 RMK SC1 SLP204;EQDQ01+000000PRSWM2
0211716330999992000083109004+44750-081100SY-MT+0222CYVV V0201501N003112200019N0240001N1+01901+01811101781ADDGF100991001001999999001001MA1101801099141MD1710091+9999MW1001REMSYN060AAXX  31094 71633 42974 01506 10190 20181 39914 40178 57009;MET053CYVV 310900Z 15006KT 15SM SKC 19/18 A3006 RMK SLP178;EQDQ01+000000PRSWM2
0325716330999992000090506004+44750-081100SY-MT+0222CYVV V0200601N004612200019N0240001N1+01071+00431102931ADDAA124000091GD12991+0105099GF103991031051012501001001KA1240M+01601KA2240N+01071MA1102881100221MD1210141+9999MW1001OA132401701REMSYN104AAXX  05064 71633 32674 30609 10107 20043 30022 40293 52014 83500 333 10160 20107 70000 555 30333 40150;MET060CYVV 050600Z 06009KT 15SM SCT035 11/04 A3038 RMK SC3 SLP293;EQDQ01+000000PRSWM2
0178716330999992000090916004+44750-081100FM-15+0222CYVV V0201201N004110750019N0241401N1+02301+01201101911ADDGD12991+0360099GD23991+0750099GF107991999999999999999999MA1101901999999MW1001REMMET070CYVV 091600Z 12008KT 15SM FEW120 BKN250 23/12 A3009 RMK AC2CI1 SLP191;EQDQ01+000000PRSWM2
0149716330999992000091017484+44750-081100FM-16+0222CYVV V0201701N004610030019N0048281N1+99999+99999999999ADDGD14991+0030099GF108991999999999999999999MW1001MW2801REMMET049CYVV 101748Z 17009KT 3SM -SHRA BR OVC010 RMK SF8;EQDQ01+000100PRSWM3Q02+000003PRSWM1
0153716330999992000091910004+44750-081100FM-15+0222CYVV V0201901N005110360019N0241401N1+01801+01301100941ADDGD13991+0360099GF107991999999999999999999MA1100951999999MW1001REMMET060CYVV 191000Z 19010KT 15SM BKN120 18/13 A2981 RMK AC5 SLP094;EQDQ01+000000PRSWM2
0153716330999992000092402004+44750-081100FM-15+0222CYVV V0202901N001010042019N0241401N1+01101+01001101191ADDGD14991+0042099GF108991999999999999999999MA1101151999999MW1001REMMET060CYVV 240200Z 29002KT 15SM OVC014 11/10 A2987 RMK SC8 SLP119;EQDQ01+000000PRSWM2
0249716330999992000092415004+44750-081100SY-MT+0222CYVV V0200101N005110075019N0240001N1+00711+00251101791ADDGD13991+0075099GF199999999999008001999999MA1101731099091MD1210131+9999MW1001REMSYN060AAXX  24154 71633 42574 60110 10071 20025 39909 40179 52013;MET060CYVV 241500Z 01010KT 15SM BKN025 07/03 A3004 RMK SC6 SLP179;EQDQ01+000062SCOTCVQ02+000000PRSWM2
0132716330999992000092807004+44750-081100FM-15+0222CYVV V0200301N004112200019N0241401N1+00501-00301102651ADDGF100991999999999999999999MA1102611999999MW1001REMMET054CYVV 280700Z 03008KT 15SM SKC 05/M03 A3030 RMK SLP265;EQDQ01+000000PRSWM2
0233716330999992000093003004+44750-081100SY-MT+0222CYVV V0201901N005710750019N0240001N1+01261+00841102131ADDGD14991+0750099GF108991999999999999999999MA1102101099441MD1710041+9999MW1001REMSYN060AAXX  30034 71633 42974 81911 10126 20084 39944 40213 57004;MET060CYVV 300300Z 19011KT 15SM OVC250 13/08 A3015 RMK CI3 SLP213;EQDQ01+000000PRSWM2
0131716330999992000100104004+44750-081100FM-15+0222CYVV V0201901N005112200019N0241401N1+01501+00901101671ADDGF100991999999999999999999MA1101661999999MW1001REMMET053CYVV 010400Z 19010KT 15SM SKC 15/09 A3002 RMK SLP167;EQDQ01+000000PRSWM2
0131716330999992000100208004+44750-081100FM-15+0222CYVV V0201801N007712200019N0241401N1+01701+01201100871ADDGF100991999999999999999999MA1100881999999MW1001REMMET053CYVV 020800Z 18015KT 15SM SKC 17/12 A2979 RMK SLP087;EQDQ01+000000PRSWM2
0144716330999992000100611354+44750-081100FM-16+0222CYVV V0203301N003610300019N0241401N1+99999+99999999999ADDGD12991+0075099GD24991+0300099GF108991999999999999999999MW1001REMMET051CYVV 061135Z 33007KT 15SM SCT025 OVC100 RMK SC3AC5;EQDQ01+000000PRSWM2
0203716330999992000101013004+44750-081100FM-15+0222CYVV V0201801N001010720019N0241401N1+00601+00301101671ADDGD12991+0075099GD22991+0360099GD33991+0720099GF107991999999999999999999MA1101591999999MW1001REMMET080CYVV 101300Z 18002KT 15SM FEW025 FEW120 BKN240 06/03 A3000 RMK CU2AC1CI2 SLP167;EQDQ01+000000PRSWM2
0152716330999992000101505004+44750-081100FM-15+0222CYVV V0203601N002110012019N0128741N1+01101+01101101581ADDGD14991+0012099GF108991999999999999999999MA1101561999999MW1001REMMET059CYVV 150500Z 36004KT 8SM OVC004 11/11 A2999 RMK ST8 SLP158;EQDQ01+000000PRSWM2
0232716330999992000101509004+44750-081100SY-MT+0222CYVV V0200501N003110018019N0120001N1+00981+00881101791ADDGD14991+0018099GF108991999999001501999999MA1101761099121MD1310091+9999MW1001REMSYN060AAXX  15094 71633 42262 80506 10098 20088 39912 40179 53009;MET059CYVV 150900Z 05006KT 8SM OVC006 10/09 A3005 RMK ST8 SLP179;EQDQ01+000000PRSWM2
0174716330999992000101823004+44750-081100FM-15+0222CYVV V0202401N003110075019N0160931N1+01201+01001101761ADDGD14991+0075099GF108991999999999999999999MA1101691999999MW1161REMMET065CYVV 182300Z 24006KT 10SM VCSH OVC025 12/10 A3003 RMK SC8 SLP176;EQDQ01+000003PRSWM1Q02    003PRSWM1
0178716330999992000101917004+44750-081100FM-15+0222CYVV V0202501N002112200019N0241401N1+01401+00701102211ADDGD12991+0084099GD22991+0750099GF102991999999999999999999MA1102171999999MW1001REMMET070CYVV 191700Z 25004KT 15SM FEW028 FEW250 14/07 A3017 RMK CU2CI0 SLP221;EQDQ01+000000PRSWM2
0212716330999992000102309004+44750-081100SY-MT+0222CYVV V0201301N003112200019N0240001N1+00001-00261103411ADDGF100991001001999999001001MA1103321100651MD1710061+9999MW1001REMSYN060AAXX  23094 71633 42974 01306 10000 21026 30065 40341 57006;MET054CYVV 230900Z 13006KT 15SM SKC 00/M03 A3051 RMK SLP341;EQDQ01+000000PRSWM2
0132716330999992000102613494+44750-081100FM-16+0222CYVV V0201501N002610045019N0012071N1+99999+99999999999ADDGD13991+0045099GF107991999999999999999999MW1001MW2101REMMET048CYVV 261349Z 15005KT 3/4SM BR BKN015 RMK FG5SC2;EQDQ01+000003PRSWM1
0174716330999992000102719004+44750-081100FM-15+0222CYVV V0202601N003610015019N0032181N1+01501+01401101541ADDGD14991+0015099GF108991999999999999999999MA1101521999999MW1101REMMET065CYVV 271900Z 26007KT 2SM BR OVC005 15/14 A2998 RMK FG2SF6 SLP154;EQDQ01+000003PRSWM1Q02    003PRSWM1
0153716330999992000110819004+44750-081100FM-15+0222CYVV V0202201N003610033019N0193121N1+01201+01001101421ADDGD13991+0033099GF107991999999999999999999MA1101391999999MW1001REMMET060CYVV 081900Z 22007KT 12SM BKN011 12/10 A2994 RMK SC6 SLP142;EQDQ01+000000PRSWM2
0137716330999992000110922134+44750-081100FM-16+0222CYVV V0201401N002110021019N0032181N1+99999+99999999999ADDGD14991+0021099GF108991999999999999999999MW1001MW2101MW3511REMMET047CYVV 092213Z 14004KT 2SM -DZ BR OVC007 RMK SF8;EQDQ01+000003PRSWM1
0310716330999992000111200004+44750-081100SY-MT+0222CYVV V0200501N00461006901CN0240001N1+00351-00101102721ADDAA124000891GD14991+0069099GF108991081051008001999999KA1120M+00361KA2180N+00241MA1102641099961MD1210081+9999MW1001OC100771REMSYN088AAXX  12004 71633 32574 80509 10035 21010 39996 40272 52008 885// 333 10036 20024 70007;MET064CYVV 120000Z 05008G15KT 15SM OVC023 04/M01 A3031 RMK SC8 SLP272;EQDQ01+000000PRSWM2
0192716330999992000111416004+44750-081100FM-15+0222CYVV V0201801N006210060019N0016091N1+00001+00001100641ADDGD14991+0060099GF108991999999999999999999MA1100581999999MW1851REMMET083CYVV 141600Z 18012KT 1SM -SHSN OVC020 00/M00 A2970 RMK SN3SF5 VSBY 1/2-11/2 SLP064;EQDQ01+000003PRSWM1Q02    003PRSWM1
0167716330999992000112213074+44750-081100FM-16+0222CYVV V0202701N006210045019N0160931N1+99999+99999999999ADDGD13991+0045099GD23991+0090099GF107991999999999999999999MW1001MW2851REMMET068CYVV 221307Z 27012KT 10SM -SHSN BKN015 BKN030 RMK SC6SC2 VSBY N LWR;EQDQ01+000003PRSWM1
0141716330999992000112217264+44750-081100FM-16+0222CYVV V0202801N007212200019N0241401N1+99999+99999999999ADDGD12991+0045099GF104991999999999999999999MW1001MW2361OC101131REMMET049CYVV 221726Z 28014G22KT 15SM DRSN SCT015 RMK SC4;EQDQ01+000003PRSWM1
0233716330999992000112803004+44750-081100SY-MT+0222CYVV V0202501N002110054019N0240001N1+00331+00031100851ADDGD14991+0054099GF108991999999004501999999MA1100781098141MD1110061+9999MW1001REMSYN060AAXX  28034 71633 42474 82504 10033 20003 39814 40085 51006;MET060CYVV 280300Z 25004KT 15SM OVC018 03/00 A2976 RMK SC8 SLP085;EQDQ01+000000PRSWM2
0180716330999992000120317004+44750-081100FM-15+0222CYVV V0202101N003612200019N0241401N1-00101-00401103481ADDGD12991+0120099GD22991+0750099GF104991999999999999999999MA1103321999999MW1001REMMET072CYVV 031700Z 21007KT 15SM FEW040 SCT250 M01/M04 A3051 RMK SC2CI0 SLP348;EQDQ01+000000PRSWM2
0127716330999992000120902404+44750-081100FM-16+0222CYVV V0203201N001010075019N0241401N1+99999+99999999999ADDGD13991+0075099GF107991999999999999999999MW1001REMMET049CYVV 090240Z 32002KT 15SM BKN025 RMK SC5 WND L/V;EQDQ01+000000PRSWM2
0130716330999992000121507234+44750-081100FM-16+0222CYVV V0201601N003610045019N0048281N1+99999+99999999999ADDGD14991+0045099GF108991999999999999999999MW1001MW2851REMMET046CYVV 150723Z 16007KT 3SM -SHSN OVC015 RMK SC8;EQDQ01+000003PRSWM1
0399716330999992000121612004+44750-081100SY-MT+0222CYVV V0200901N00261024001CN0240001N1-00081-00471101821ADDAA124000091AJ100809199999999GD13991+0240099GD24991+0750099GF108991061001022501071071GJ100189IA1249KA1999M+99999KA2120N-00681MA1101691099061MD1710321+9999MW1001REMSYN100AAXX  16124 71633 32874 80905 11008 21047 39906 40182 57032 86077 333 11026 21068 48080 55003 70000;MET071CYVV 161200Z 09005KT 15SM BKN080 OVC250 01/M05 A3003 RMK AC6CS2 SLP182;EQDQ01+000000PRSWM2Q02  00002PRCP24Q03 -00262ATMX  
0155716330999992000121817004+44750-081100FM-15+0222CYVV V0209999C000010060019N0193121N1-00801-01001101661ADDGD13991+0060099GF107991999999999999999999MA1101521999999MW1001REMMET062CYVV 181700Z 00000KT 12SM BKN020 M08/M10 A2998 RMK SC7 SLP166;EQDQ01+000000PRSWM2
0201716330999992000121916004+44750-081100FM-15+0222CYVV V0201201N002610075019N0112651N1-00601-00801100941ADDGD12991+0054099GD24991+0075099GF108991999999999999999999MA1100811999999MW1851REMMET077CYVV 191600Z 12005KT 7SM -SHSN FEW018 OVC025 M06/M08 A2977 RMK SC1SC7 SLP094;EQDQ01+000003PRSWM1Q02    003PRSWM1
0130716330999992000122322144+44750-081100FM-16+0222CYVV V0201801N004610075019N0080461N1+99999+99999999999ADDGD14991+0075099GF108991999999999999999999MW1001MW2851REMMET046CYVV 232214Z 18009KT 5SM -SHSN OVC025 RMK SC8;EQDQ01+000003PRSWM1
