0054725040947022000062009009+41183-073150NSRDB+000399999V020999999999999999999999999999+99999+99999999999ADDGP10060000002000000002000000002000GR100600000900009
030672504094702200006221654C+41183-073150FM-15+0003BDR  V0202305N00525220005MN0112005N1+02565+02065100765ADDAA101000095GF100991999999999999999999MA1100785999999MW1001REMMET066KBDR 221654Z 23010KT 7SM CLR 26/21 A2976 RMK AO2 SLP076 T02560206;EQDQ01+000000PRSWM2N01 00000JPWTH 0QNNAA1D0 00000BA1 0 00000GA1U0 99999KA1D0 00069JA1 0 00206LA1 0 00700CA1 0 02976NA1 0 00000QA1 0 10076SA1D0 00078RA1 0 00256YA1 0 23010
0054725040947022000062407009+41183-073150NSRDB+000399999V020999999999999999999999999999+99999+99999999999ADDGP10060000002000000002000000002000GR100600000900009
0054725040947022000062607009+41183-073150NSRDB+000399999V020999999999999999999999999999+99999+99999999999ADDGP10060000002000000002000000002000GR100600000900009
031772504094702200006280154C+41183-073150FM-15+0003BDR  V0202605N00315220005MN0160005N1+02225+02005101535ADDAA101000095GF100991999999999999999999MA1101525999999MW1001REMMET077KBDR 280154Z AUTO 26006KT 10SM CLR 22/20 A2998 RMK AO2 SLP153 T02220200 TSNO;EQDQ01+000000PRSWM2N01 00000JPWTH 0QNNAA1D0 00000BA1 0 00000GA1U0 99999KA1D0 00068JA1 0 00200LA1 0 01000CA1 0 02998NA1 0 00000QA1 0 10153SA1D0 00072RA1 0 00222YA1 0 26006
0071725040947022000062810009+41183-073150NSRDB+000399999V020999999999999999999999999999+99999+99999999999ADDGP10060000002008000002015000002008GQ100600873906079GR100600037907829
0054725040947022000063005009+41183-073150NSRDB+000399999V020999999999999999999999999999+99999+99999999999ADDGP10060000002000000002000000002000GR100600000900009
0071725040947022000070122009+41183-073150NSRDB+000399999V020999999999999999999999999999+99999+99999999999ADDGP10060042302008055202015014002008GQ100600591927479GR100600678913219
037172504094702200007020854C+41183-073150FM-15+0003BDR  V0209999C00005220005MN0160005N1+01725+01445101695ADDAA101000095GD11995+0243859GF102991999999999999999999MA1101695999999MD1310011+9999MW1001REMMET086KBDR 020854Z AUTO 00000KT 10SM FEW080 17/14 A3003 RMK AO2 SLP169 T01720144 53000 TSNO;EQDQ01+000002APC3  Q02+000000PRSWM2N01 00000JPWTH 0QNNAA1D0 02080BA1 0 01080GA1U0 99999KA1D0 00058JA1 0 00144LA1 0 01000CA1 0 03003NA1 0 00000QA1 0 10169SA1D0 00063RA1 0 00172YA1 0 00000
0228725040947022000070317544+41170-073130FM-15+0005KBDR V0201501N004112200019N0096561N1+02701+01901101561ADDAA101000021AA206000021GF100991999999999999999999MA1101561999999MD1810101+9999MW1051REMMET098KBDR 031754Z 15008KT 6SM HZ CLR 27/19 A2999 RMK AO2 SNB28E39 SLP156 P0000 60000 T02720189 58010 $;EQDQ01+000003PRSWM1Q02    003PRSWM1
033772504094702200007050854C+41183-073150FM-15+0003BDR  V0203505N00265220005MN0160005N1+01945+01565100915ADDAA101000095GF100991999999999999999999MA1100915999999MD1010001+9999MW1001REMMET083KBDR 050854Z AUTO 35005KT 10SM CLR 19/16 A2980 RMK AO2 SLP091 T01940156 50000 TSNO;EQDQ01+000000PRSWM2N01 00000JPWTH 0QNNAA1D0 00000BA1 0 00000GA1U0 99999KA1D0 00060JA1 0 00156LA1 0 01000CA1 0 02980NA1 0 00000QA1 0 10091SA1D0 00067RA1 0 00194YA1 0 35005
032772504094702200007051454C+41183-073150FM-15+0003BDR  V0209999V00315220005MN0160005N1+02675+01445100975ADDAA101000095GF100991999999999999999999MA1100985999999MD1810031+9999MW1001REMMET073KBDR 051454Z VRB06KT 10SM CLR 27/14 A2982 RMK AO2 SLP097 T02670144 58003;EQDQ01+000000PRSWM2N01 00000JPWTH 0QNNAA1D0 00000BA1 0 00000GA1U0 99999KA1D0 00058JA1 0 00144LA1 0 01000CA1 0 02982NA1 0 00000QA1 0 10097SA1D0 00080RA1 0 00267YA1 0 00006
0471725040947022000070518003+41183-073150SY-MT+0003BDR  V0200205N00575220005MN0160005N1+02835+01225100885ADDAA101000095GD12995+0213459GF104991999999022501999999GP10060090002008070702015023402008GQ100600200920239GR100601241913219KA1120M+02891KA2240N+02221MA1100885100821MD1810081+9999REMSYN098AAXX  05184 72504 32866 40211 10283 20122 30082 40088 58008 91754 333 10289 20222 91016 555 90518;EQDQ01  00002PRCP99Q02  00003PRCP99N01 00000JPWTH 0QNNAA1D0 02070BA1 0 02070GA1U0 99999KA1D0 00054JA1 0 00122LA1 0 01000CA1 0 02979NA1 0 00000QA1 0 10088SA1D0 00083RA1 0 00283YA1 0 02011
033572504094702200007070354C+41183-073150FM-15+0003BDR  V0200105N00315033535MN0160005N1+02005+01115101265ADDAA101000095GD14995+0335359GF108991999999999999999999MA1101255999999MW1001REMMET080KBDR 070354Z AUTO 01006KT 10SM OVC110 20/11 A2990 RMK AO2 SLP126 T02000111 TSNO;EQDQ01+000000PRSWM2N01 00000JPWTH 0QNNAA1D0 06110BA1 0 06110GA1 0 00110KA1D0 00052JA1 0 00111LA1 0 01000CA1 0 02990NA1 0 00000QA1 0 10126SA1D0 00068RA1 0 00200YA1 0 01006
0702725040947022000071004596+41158-073129SOD  +0005KBDR V020999999999999999999999999999+99999+99999999999ADDAA124001595AT1MW16RA  5AT2MW01FG  5AT3MW13BR  1KA1240M+02675KA2240N+01505MG1101159999994OE11240107319018075OE22240093920017225OE33240037199999995REMSOD54524 HR PRECIPITATION (IN): 0.06 24 HR MAX TEMP (F): 8024 HR MAX TEMP TIME (LST):1317 24 HR MIN TEMP (F): 5924 HR MIN TEMP TIME (LST):0215 AVERAGE STATION PRESSURE:29.87  PEAK WIND SPEED (MPH): 24 PEAK WIND DIR (DEG):190 PEAK WIND TIME (LST):1807  FASTEST 2MIN SPEED (MPH): 21FASTEST 2MIN DIR (DEG):200 FASTEST 2MIN TIME (LST):1722 AVERAGE WIND SPEED (MPH): 8.3 24 HR AVG TEMP (F):70 HOURLY INCREMENTAL PRECIPITATION VALUES (IN):.00  .00  .00  .00  .00  .00  .00  .00  .00  .00  .00  .00  .00  .00  .00  .00  .00   T   .00   T    T    T   .03  .03
0054725040947022000071102009+41183-073150NSRDB+000399999V020999999999999999999999999999+99999+99999999999ADDGP10060000002000000002000000002000GR100600000900009
0071725040947022000071319009+41183-073150NSRDB+000399999V020999999999999999999999999999+99999+99999999999ADDGP10060079302008056202015029402008GQ100600275923129GR100601171913229
033572504094702200007180754C+41183-073150FM-15+0003BDR  V0201805N00265004575MN0160005N1+02175+02065101205ADDAA101000095GD14995+0045759GF108991999999999999999999MA1101225999999MW1001REMMET080KBDR 180754Z AUTO 18005KT 10SM OVC015 22/21 A2989 RMK AO2 SLP120 T02170206 TSNO;EQDQ01+000000PRSWM2N01 00000JPWTH 0QNNAA1D0 06015BA1 0 06015GA1 0 00015KA1D0 00069JA1 0 00206LA1 0 01000CA1 0 02989NA1 0 00000QA1 0 10120SA1D0 00071RA1 0 00217YA1 0 18005
0164725040947022000071811174+41170-073130FM-16+0005KBDR V0202301N003112200019N0080461N1+02201+02101999999ADDGD12991+0021019GF104991999999999999999999MA1101221999999MW1101REMMET055KBDR 181117Z 23006KT 5SM BR SCT007 22/21 A2989 RMK AO2;EQDQ01+000003PRSWM1Q02    003PRSWM1
0071725040947022000072113009+41183-073150NSRDB+000399999V020999999999999999999999999999+99999+99999999999ADDGP10060040502008046902015016902008GQ100600598908859GR100600664913239
0071725040947022000072223009+41183-073150NSRDB+000399999V020999999999999999999999999999+99999+99999999999ADDGP10060020902008031802015010802008GQ100600716928099GR100600418913239
032772504094702200007232054C+41183-073150FM-15+0003BDR  V0202205N00365220005MN0160005N1+02395+01565101955ADDAA101000095GF100991999999999999999999MA1101965999999MD1610051+9999MW1001REMMET073KBDR 232054Z 22007KT 10SM CLR 24/16 A3011 RMK AO2 SLP195 T02390156 56005;EQDQ01+000000PRSWM2N01 00000JPWTH 0QNNAA1D0 00000BA1 0 00000GA1U0 99999KA1D0 00060JA1 0 00156LA1 0 01000CA1 0 03011NA1 0 00000QA1 0 10195SA1D0 00075RA1 0 00239YA1 0 22007
030772504094702200007242254C+41183-073150FM-15+0003BDR  V0200805N00415220005MN0160005N1+02225+02005101985ADDAA101000095GF100991999999999999999999MA1102005999999MW1001REMMET067KBDR 242254Z 08008KT 10SM CLR 22/20 A3012 RMK AO2 SLP198 T02220200;EQDQ01+000000PRSWM2N01 00000JPWTH 0QNNAA1D0 00000BA1 0 00000GA1U0 99999KA1D0 00068JA1 0 00200LA1 0 01000CA1 0 03012NA1 0 00000QA1 0 10198SA1D0 00072RA1 0 00222YA1 0 08008
033772504094702200007250254C+41183-073150FM-15+0003BDR  V0200905N00365220005MN0160005N1+02115+01785102095ADDAA101000095GF100991999999999999999999MA1102105999999MD1010081+9999MW1001REMMET083KBDR 250254Z AUTO 09007KT 10SM CLR 21/18 A3015 RMK AO2 SLP209 T02110178 50008 TSNO;EQDQ01+000000PRSWM2N01 00000JPWTH 0QNNAA1D0 00000BA1 0 00000GA1U0 99999KA1D0 00064JA1 0 00178LA1 0 01000CA1 0 03015NA1 0 00000QA1 0 10209SA1D0 00070RA1 0 00211YA1 0 09007
0054725040947022000073009009+41183-073150NSRDB+000399999V020999999999999999999999999999+99999+99999999999ADDGP10060000002000000002000000002000GR100600000900009
0071725040947022000080301009+41183-073150NSRDB+000399999V020999999999999999999999999999+99999+99999999999ADDGP10060000002008000002015000002008GQ100600896929369GR100600001901449
0145725040947022000080417284+41170-073130FM-16+0005KBDR V0202301N004612200019N0160931N1+02401+01801999999ADDGD12991+0270019GF102991999999999999999999MA1101561999999MW1001REMMET052KBDR 041728Z23009KT 10SM FEW095 24/18 A2999 RMK AO2;EQDQ01+000000PRSWM2
0071725040947022000080517009+41183-073150NSRDB+000399999V020999999999999999999999999999+99999+99999999999ADDGP10060083602008061302015028102008GQ100600254916419GR100601199913289
0714725040947022000080804596+41158-073129SOD  +0005KBDR V020999999999999999999999999999+99999+99999999999ADDAA124003895AT1MW16RA  5AT2MW01FG  5AT3MW13BR  1AT4MW08HZ  5KA1240M+03115KA2240N+02225MG1100919999994OE11240089424013485OE22240076024011065OE33240046599999995REMSOD54524 HR PRECIPITATION (IN): 0.15 24 HR MAX TEMP (F): 8824 HR MAX TEMP TIME (LST):1751 24 HR MIN TEMP (F): 7224 HR MIN TEMP TIME (LST):0153 AVERAGE STATION PRESSURE:29.80  PEAK WIND SPEED (MPH): 20 PEAK WIND DIR (DEG):240 PEAK WIND TIME (LST):1348  FASTEST 2MIN SPEED (MPH): 17FASTEST 2MIN DIR (DEG):240 FASTEST 2MIN TIME (LST):1106 AVERAGE WIND SPEED (MPH):10.4 24 HR AVG TEMP (F):80 HOURLY INCREMENTAL PRECIPITATION VALUES (IN):.12  .03  .00  .00  .00  .00   T   .00  .00  .00  .00  .00  .00  .00  .00  .00  .00  .00  .00  .00  .00  .00  .00  .00
034172504094702200008080654C+41183-073150FM-15+0003BDR  V0202605N00155220005MN0080005N1+02395+02225101175ADDAA101000095GF100991999999999999999999MA1101195999999MW1101MW2455REMMET079KBDR 080654Z AUTO 26003KT 5SM BR CLR 24/22 A2988 RMK AO2 SLP117 T02390222 TSNO;EQDQ01+000003PRSWM1Q02    003PRSWM1N01 00070JPWTH 0QNNAA1D0 00000BA1 0 00000GA1U0 99999KA1D0 00072JA1 0 00222LA1 0 00500CA1 0 02988NA1 0 00070QA1 0 10117SA1D0 00075RA1 0 00239YA1 0 26003
0054725040947022000080904009+41183-073150NSRDB+000399999V020999999999999999999999999999+99999+99999999999ADDGP10060000002000000002000000002000GR100600000900009
032572504094702200008091554C+41183-073150FM-15+0003BDR  V0202405N00365220005MN0160005N1+02565+02115101205ADDAA101000095GD11995+0274359GF102991999999999999999999MA1101225999999MW1001REMMET070KBDR 091554Z 24007KT 10SM FEW090 26/21 A2989 RMK AO2 SLP120 T02560211;EQDQ01+000000PRSWM2N01 00000JPWTH 0QNNAA1D0 02090BA1 0 01090GA1U0 99999KA1D0 00070JA1 0 00211LA1 0 01000CA1 0 02989NA1 0 00000QA1 0 10120SA1D0 00078RA1 0 00256YA1 0 24007
0242725040947022000081404003+41183-073150FM-15+0003BDR  V0200405N00465018295MN016000599+99999+99999101475ADDAA101000095GD12995+0134159GD24995+0182959GP10060000002000000002000000002000GR100600000900009MA1101465999999EQDN01 00000JPWTH 0QNNAA1D0 02044BA1 0 02044AA1D0 06060BA1 0 06060GA1 0 00060LA1 0 01000CA1 0 02996NA1 0 00000QA1 0 10147YA1 0 04009
0346725040947022000081423003+41183-073150FM-15+0003BDR  V0200105N00575088395MN016000599+01895+01675101475ADDAA101000395GD13995+0088459GD23995+0103659GD34995+0131159GP10060002802008000002015002802008GQ100600757927639GR100600329913329MA1101465999999MW1615EQDN01 00020JPWTH 0QNNAA1D0 04029BA1 0 04029AA1D0 04034BA1 0 04034AA1D0 06043BA1 0 06043GA1 0 00290KA1D0 00062JA1 0 00167LA1 0 01000CA1 0 02996NA1 0 00020QA1 0 10147SA1D0 00066RA1 0 00189YA1 0 01011
032572504094702200008151954C+41183-073150FM-15+0003BDR  V0201805N00215220005MN0160005N1+02445+01835101525ADDAA101000095GD11995+0115859GF102991999999999999999999MA1101525999999MW1001REMMET070KBDR 151954Z 18004KT 10SM FEW038 24/18 A2998 RMK AO2 SLP152 T02440183;EQDQ01+000000PRSWM2N01 00000JPWTH 0QNNAA1D0 02038BA1 0 01038GA1U0 99999KA1D0 00065JA1 0 00183LA1 0 01000CA1 0 02998NA1 0 00000QA1 0 10152SA1D0 00076RA1 0 00244YA1 0 18004
0182725040947022000081611284+41170-073130FM-16+0005KBDR V0202701N003610105019N0028161N1+02101+02101999999ADDGD14991+0105019GF108991999999999999999999MA1101121999999MW1811MW2951REMMET067KBDR 161128Z 27007KT 1 3/4SM TSRA OVC035 21/21 A2986 RMK AO2 P0005;EQDQ01+000003PRSWM1Q02    003PRSWM1
0054725040947022000081801009+41183-073150NSRDB+000399999V020999999999999999999999999999+99999+99999999999ADDGP10060000002000000002000000002000GR100600000900009
0071725040947022000081920009+41183-073150NSRDB+000399999V020999999999999999999999999999+99999+99999999999ADDGP10060060602008052302015023102008GQ100600442924059GR100600955913349
0054725040947022000082302009+41183-073150NSRDB+000399999V020999999999999999999999999999+99999+99999999999ADDGP10060000002000000002000000002000GR100600000900009
031772504094702200008230754C+41183-073150FM-15+0003BDR  V0202405N00465220005MN0160005N1+02005+01445102435ADDAA101000095GF100991999999999999999999MA1102445999999MW1001REMMET077KBDR 230754Z AUTO 24009KT 10SM CLR 20/14 A3025 RMK AO2 SLP243 T02000144 TSNO;EQDQ01+000000PRSWM2N01 00000JPWTH 0QNNAA1D0 00000BA1 0 00000GA1U0 99999KA1D0 00058JA1 0 00144LA1 0 01000CA1 0 03025NA1 0 00000QA1 0 10243SA1D0 00068RA1 0 00200YA1 0 24009
0071725040947022000082314009+41183-073150NSRDB+000399999V020999999999999999999999999999+99999+99999999999ADDGP10060032002008007302015027702008GQ100600539910879GR100600787913379
0071725040947022000082415009+41183-073150NSRDB+000399999V020999999999999999999999999999+99999+99999999999ADDGP10060032202008002402015030502008GQ100600440912349GR100600961913379
0054725040947022000082703009+41183-073150NSRDB+000399999V020999999999999999999999999999+99999+99999999999ADDGP10060000002000000002000000002000GR100600000900009
032672504094702200008272054C+41183-073150FM-15+0003BDR  V0202105N00525220005MN0112005N1+02675+02005101365ADDAA101000095GF100991999999999999999999MA1101355999999MD1610061+9999MW1001REMMET072KBDR 272054Z 21010KT 7SM CLR 27/20 A2993 RMK AO2 SLP136 T02670200 56006;EQDQ01+000000PRSWM2N01 00000JPWTH 0QNNAA1D0 00000BA1 0 00000GA1U0 99999KA1D0 00068JA1 0 00200LA1 0 00700CA1 0 02993NA1 0 00000QA1 0 10136SA1D0 00080RA1 0 00267YA1 0 21010
0406725040947022000082912003+41183-073150SY-MT+0003BDR  V0200705N00575220005MN0160005N1+99999+99999102385ADDAA101000095GA1001+999999999GD10995+9999999GF100991001001999999001001GP10060010402008004802015009302008GQ100600771908919GR100600300913409KA1999M+02391MA1102375102301MD1310141+9999REMSYN074AAXX  29124 72504 32966 00711 30230 40238 53014 91154 333 10239 555 92912;EQDQ01  00002PRCP99Q02  00003PRCP99N01 00000JPWTH 0QNNAA1D0 00000BA1 0 00000GA1U0 99999LA1 0 01000CA1 0 03023NA1 0 00000QA1 0 10238YA1 0 07011
0465725040947022000083100003+41183-073150SY-MT+0003BDR  V0200905N00215213365MN0160005N1+02225+02065102165ADDAA101000095GD14995+0213459GF108991999999022501999999GP10060000002008000002015000002008GQ100600878927989GR100600023905929KA1120M+02391KA2180N+01721MA1102175102101MD1310011+9999REMSYN092AAXX  31004 72504 32866 80904 10222 20206 30210 40216 53001 92354 333 10239 20172 555 93100;EQDQ01  00002PRCP99Q02  00003PRCP99N01 00000JPWTH 0QNNAA1D0 06070BA1 0 06070GA1 0 00700KA1D0 00069JA1 0 00206LA1 0 01000CA1 0 03017NA1 0 00000QA1 0 10216SA1D0 00072RA1 0 00222YA1 0 09004
0071725040947022000083123009+41183-073150NSRDB+000399999V020999999999999999999999999999+99999+99999999999ADDGP10060009402008023602015005402008GQ100600802927259GR100600228913429
0256725040947022000090413073+41170-073130FM-16+0005KBDR V02099999999990057019N0080461N1+02401+02201999999ADDGD12991+0021019GD24991+0057019GF108991999999999999999999GP10060017002008002502015016002008GQ100600670910149GR100600525913449MA1100881999999MW1101REMMET064KBDR 041307Z VRB04KT 5SM BR FEW007 OVC019 24/22 A2979 RMK AO2 $;EQDQ01+000003PRSWM1Q02    003PRSWM1
0205725040947022000090511544+41170-073130FM-15+0005KBDR V0200301N007212200019N0160931N1+01101+00301102441ADDGF100991999999999999999999KA1999M+01501KA2999N+01111MA1102441999999MD1110301+9999MW1001REMMET087KBDR 051154Z 03014KT 10SM CLR 11/03 A3025 RMK AO2 SLP244 T01110033 10150 20111 51030 $;EQDQ01+000000PRSWM2
032472504094702200009091354C+41183-073150FM-15+0003BDR  V0202405N00315018295MN0128005N1+02115+01835101925ADDAA101000095GD13995+0182959GF107991999999999999999999MA1101935999999MW1001REMMET069KBDR 091354Z 24006KT 8SM BKN060 21/18 A3010 RMK AO2 SLP192 T02110183;EQDQ01+000000PRSWM2N01 00000JPWTH 0QNNAA1D0 04060BA1 0 04060GA1 0 00060KA1D0 00065JA1 0 00183LA1 0 00800CA1 0 03010NA1 0 00000QA1 0 10192SA1D0 00070RA1 0 00211YA1 0 24006
032472504094702200009091554C+41183-073150FM-15+0003BDR  V0202205N00265220005MN0112005N1+02285+01895101955ADDAA101000095GD11995+0228659GF102991999999999999999999MA1101965999999MW1001REMMET069KBDR 091554Z 22005KT 7SM FEW075 23/19 A3011 RMK AO2 SLP195 T02280189;EQDQ01+000000PRSWM2N01 00000JPWTH 0QNNAA1D0 02075BA1 0 01075GA1U0 99999KA1D0 00066JA1 0 00189LA1 0 00700CA1 0 03011NA1 0 00000QA1 0 10195SA1D0 00073RA1 0 00228YA1 0 22005
0203725040947022000091417544+41170-073130FM-15+0005KBDR V0201001N005112200019N0160931N1+02201+01801101461ADDGF100991999999999999999999KA1999M+02281KA2999N+01611MA1101461999999MD1810121+9999MW1001REMMET085KBDR 141754Z 10010KT 10SM CLR 22/18 A2996 RMK AO2 SLP146 T02220183 10228 20161 58012;EQDQ01+000000PRSWM2
0071725040947022000091421009+41183-073150NSRDB+000399999V020999999999999999999999999999+99999+99999999999ADDGP10060029602008021102015019902008GQ100600626924799GR100600621913519
0448725040947022000091606003+41183-073150SY-MT+0003BDR  V0209999C00005220005MN0160005N1+01335+01065100615ADDAA101000095GD12995+0228659GF104991999999022501999999GP10060000002000000002000000002000GR100600000900009KA1240M+02111KA2240N+01331MA1100615100541MD1110121+9999REMSYN092AAXX  16064 72504 35866 40000 10133 20106 30054 40061 51012 90554 333 10211 20133 555 91606;EQDQ01  00002PRCP99Q02  00003PRCP99N01 00000JPWTH 0QNNAA1D0 02075BA1 0 02075GA1U0 99999KA1D0 00051JA1 0 00106LA1 0 01000CA1 0 02971NA1 0 00000QA1 0 10061SA1D0 00056RA1 0 00133YA1 0 00000
0054725040947022000091608009+41183-073150NSRDB+000399999V020999999999999999999999999999+99999+99999999999ADDGP10060000002000000002000000002000GR100600000900009
035372504094702200009170454C+41183-073150FM-15+0003BDR  V0203005N00315220005MN0160005N1+01225+00615101585ADDAA101000095GF100991999999999999999999KA1999M+02001KA2999N+01171MA1101595999999MW1001REMMET087KBDR 170454Z AUTO 30006KT 10SM CLR 12/06 A3000 RMK AO2 SLP158 T01220061 402000117 TSNO;EQDQ01+000000PRSWM2N01 00000JPWTH 0QNNAA1D0 00000BA1 0 00000GA1U0 99999KA1D0 00043JA1 0 00061LA1 0 01000CA1 0 03000NA1 0 00000QA1 0 10158SA1D0 00054RA1 0 00122YA1 0 30006
030772504094702200009181854C+41183-073150FM-15+0003BDR  V0202405N00465220005MN0160005N1+02335+01395101835ADDAA101000095GF100991999999999999999999MA1101835999999MW1001REMMET067KBDR 181854Z 24009KT 10SM CLR 23/14 A3007 RMK AO2 SLP183 T02330139;EQDQ01+000000PRSWM2N01 00000JPWTH 0QNNAA1D0 00000BA1 0 00000GA1U0 99999KA1D0 00057JA1 0 00139LA1 0 01000CA1 0 03007NA1 0 00000QA1 0 10183SA1D0 00074RA1 0 00233YA1 0 24009
033572504094702200009231654C+41183-073150FM-15+0003BDR  V0201805N00315011585MN0160005N1+01945+01445101805ADDAA101000095GD14995+0115859GF108991999999999999999999MA1101795999999MW1001REMMET080KBDR 231654Z AUTO 18006KT 10SM OVC038 19/14 A3006 RMK AO2 SLP180 T01940144 TSNO;EQDQ01+000000PRSWM2N01 00000JPWTH 0QNNAA1D0 06038BA1 0 06038GA1 0 00038KA1D0 00058JA1 0 00144LA1 0 01000CA1 0 03006NA1 0 00000QA1 0 10180SA1D0 00067RA1 0 00194YA1 0 18006
0223725040947022000092414454+41170-073130FM-15+0005KBDR V0202501N004110042019N0024141N1+02101+02101999999ADDAA101001391GD13991+0042019GD24991+0057019GF108991999999999999999999MA1100711999999MW1101MW2651REMMET082KBDR 241445Z 25008KT 1 1/2SM +RA BR BKN014 OVC019 21/21 A2974 RMK AO2 RAB32 P0005;EQDQ01+000003PRSWM1Q02    003PRSWM1
0054725040947022000092502009+41183-073150NSRDB+000399999V020999999999999999999999999999+99999+99999999999ADDGP10060000002000000002000000002000GR100600000900009
0231725040947022000092505544+41170-073130FM-15+0005KBDR V0203201N003110270019N0160931N1+01201+00901101251ADDGD13991+0270019GF107991999999999999999999KA1999M+01781KA2999N+01221MA1101251999999MD1210121+9999MW1001REMMET098KBDR 250554Z AUTO 32006KT 10SM BKN095 12/09 A2990 RMK AO2 SLP125 T01220094 10178 20122 52012 TSNO;EQDQ01+000000PRSWM2
032572504094702200009281954C+41183-073150FM-15+0003BDR  V0200205N00525027435MN0160005N1+01505+00615102165ADDAA101000095GD14995+0274359GF108991999999999999999999MA1102175999999MW1001REMMET070KBDR 281954Z 02010KT 10SM OVC090 15/06 A3017 RMK AO2 SLP216 T01500061;EQDQ01+000000PRSWM2N01 00000JPWTH 0QNNAA1D0 06090BA1 0 06090GA1 0 00090KA1D0 00043JA1 0 00061LA1 0 01000CA1 0 03017NA1 0 00000QA1 0 10216SA1D0 00059RA1 0 00150YA1 0 02010
0071725040947022000093015009+41183-073150NSRDB+000399999V020999999999999999999999999999+99999+99999999999ADDGP10060055502008069902015013902008GQ100600536913749GR100600808913649
0231725040947022000100105544+41170-073130FM-15+0005KBDR V0203601N001512200019N0160931N1+01101+01001102461ADDGD12991+0069019GF102991999999999999999999KA1999M+01561KA2999N+01111MA1102471999999MD1510031+9999MW1001REMMET098KBDR 010554Z AUTO 36003KT 10SM FEW023 11/10 A3026 RMK AO2 SLP246 T01110100 10156 20111 55003 TSNO;EQDQ01+000000PRSWM2
031772504094702200010070954C+41183-073150FM-15+0003BDR  V0203605N00215220005MN0160005N1+00895+00785101565ADDAA101000095GF100991999999999999999999MA1101565999999MW1001REMMET077KBDR 070954Z AUTO 36004KT 10SM CLR 09/08 A2999 RMK AO2 SLP156 T00890078 TSNO;EQDQ01+000000PRSWM2N01 00000JPWTH 0QNNAA1D0 00000BA1 0 00000GA1U0 99999KA1D0 00046JA1 0 00078LA1 0 01000CA1 0 02999NA1 0 00000QA1 0 10156SA1D0 00048RA1 0 00089YA1 0 36004
0054725040947022000100909009+41183-073150NSRDB+000399999V020999999999999999999999999999+99999+99999999999ADDGP10060000002000000002000000002000GR100600000900009
032872504094702200010092254C+41183-073150FM-15+0003BDR  V0203305N00465022865MN0160005N1+00675-00285101725ADDAA101000095GD14995+0228659GF108991999999999999999999MA1101735999999MW1001REMMET073KBDR 092254Z 33009KT 10SM OVC075 07/M03 A3004 RMK AO2 SLP172 T00671028 $;EQDQ01+000000PRSWM2N01 00000JPWTH 0QNNAA1D0 06075BA1 0 06075GA1 0 00075KA1D0 00027JA1 0-00028LA1 0 01000CA1 0 03004NA1 0 00000QA1 0 10172SA1D0 00044RA1 0 00067YA1 0 33009
0054725040947022000101208009+41183-073150NSRDB+000399999V020999999999999999999999999999+99999+99999999999ADDGP10060000002000000002000000002000GR100600000900009
0071725040947022000101317009+41183-073150NSRDB+000399999V020999999999999999999999999999+99999+99999999999ADDGP10060053102008040302015026902008GQ100600494917729GR100600894913749
0071725040947022000101517009+41183-073150NSRDB+000399999V020999999999999999999999999999+99999+99999999999ADDGP10060041102008016802015030302008GQ100600502917739GR100600881913769
0213725040947022000101605544+41170-073130FM-15+0005KBDR V0200701N005712200019N0160931N1+01501+00901102031ADDGF100991999999999999999999KA1999M+01831KA2999N+01501MA1102031999999MD1110131+9999MW1001REMMET095KBDR 160554Z AUTO 07011KT 10SM CLR 15/09 A3013 RMK AO2 SLP203 T01500094 10183 20150 51013 TSNO;EQDQ01+000000PRSWM2
0168725040947022000101621204+41170-073130FM-15+0005KBDR V0200601N004610042019N0160931N1+01201+01001999999ADDGD13991+0042019GD24991+0060019GF108991999999999999999999MA1102341999999MW1001REMMET060KBDR 162120Z 06009KT 10SM BKN014 OVC020 12/10 A3022 RMK AO2;EQDQ01+000000PRSWM2
034272504094702200010182154C+41183-073150FM-15+0003BDR  V0203405N00265002135MN0160005N1+01285+01225101445ADDAA101000025GD14995+0021359GF108991999999999999999999MA1101465999999MW1001REMMET087KBDR 182154Z 34005KT 10SM OVC007 13/12 A2996 RMK AO2 RAB2055E48 SLP144 P0000 T01280122;EQDQ01+000000PRSWM2N01 00000JPWTH 0QNNAA1D0 06007BA1 0 06007GA1 0 00007KA1D0 00054JA1 0 00122LA1 0 01000CA1 0 02996NA1 0 00000QA1 0 10144SA1D0 00055RA1 0 00128YA1 0 34005
031772504094702200010200654C+41183-073150FM-15+0003BDR  V0209999C00005220005MN0160005N1+00675+00285102225ADDAA101000095GF100991999999999999999999MA1102245999999MW1001REMMET077KBDR 200654Z AUTO 00000KT 10SM CLR 07/03 A3019 RMK AO2 SLP222 T00670028 TSNO;EQDQ01+000000PRSWM2N01 00000JPWTH 0QNNAA1D0 00000BA1 0 00000GA1U0 99999KA1D0 00037JA1 0 00028LA1 0 01000CA1 0 03019NA1 0 00000QA1 0 10222SA1D0 00044RA1 0 00067YA1 0 00000
0071725040947022000102419009+41183-073150NSRDB+000399999V020999999999999999999999999999+99999+99999999999ADDGP10060046702009065202021013302009GQ100600594921269GR100600704913839
0054725040947022000102808009+41183-073150NSRDB+000399999V020999999999999999999999999999+99999+99999999999ADDGP10060000002000000002000000002000GR100600000900009
0390725040947022000103012003+41183-073150SY-MT+0003BDR  V0203505N00465013415MN0160005N1+99999+99999101675ADDAA101000095GD13995+0134159GF106991999999012501999999GP10060000202009001202021000202009GQ100600870911129GR100600043908449KA1999M+00561MA1101665101591MD1310071+9999REMSYN074AAXX  30124 72504 32666 63509 30159 40167 53007 91154 333 10056 555 93012;EQDQ01  00002PRCP99Q02  00003PRCP99N01 00000JPWTH 0QNNAA1D0 04044BA1 0 04044GA1 0 00044LA1 0 01000CA1 0 03002NA1 0 00000QA1 0 10167YA1 0 35009
0054725040947022000103108009+41183-073150NSRDB+000399999V020999999999999999999999999999+99999+99999999999ADDGP10060000002000000002000000002000GR100600000900009
0054725040947022000110408009+41183-073150NSRDB+000399999V020999999999999999999999999999+99999+99999999999ADDGP10060000002000000002000000002000GR100600000900009
0071725040947022000110420009+41183-073150NSRDB+000399999V020999999999999999999999999999+99999+99999999999ADDGP10060007502009000002021007502009GQ100600696922499GR100600484913919
0054725040947022000110623009+41183-073150NSRDB+000399999V020999999999999999999999999999+99999+99999999999ADDGP10060000002000000002000000002000GR100600000900009
0054725040947022000110905009+41183-073150NSRDB+000399999V020999999999999999999999999999+99999+99999999999ADDGP10060000002000000002000000002000GR100600000900009
0289725040947022000111013103+41170-073130FM-16+0005KBDR V0200901N009810018019N0020111N1+01201+01201999999ADDGD14991+0018019GF108991999999999999999999GP10060002102009000002021002102009GQ100600816912199GR100600204913959MA1100101999999MW1101MW2651OC101391REMMET098KBDR 101310Z 09019G27KT 1 1/4SM +RA BR OVC006 12/12 A2956 RMK AO2 PK WND 09027/1304 VIS 1/2 P0012;EQDQ01+000003PRSWM1Q02    003PRSWM1
0054725040947022000111103009+41183-073150NSRDB+000399999V020999999999999999999999999999+99999+99999999999ADDGP10060000002000000002000000002000GR100600000900009
0054725040947022000111205009+41183-073150NSRDB+000399999V020999999999999999999999999999+99999+99999999999ADDGP10060000002000000002000000002000GR100600000900009
032772504094702200011122054C+41183-073150FM-15+0003BDR  V0203205N00575220005MN0160005N1+01005+00335101565ADDAA101000095GF100991999999999999999999MA1101565999999MD1510021+9999MW1001REMMET073KBDR 122054Z 32011KT 10SM CLR 10/03 A2999 RMK AO2 SLP156 T01000033 55002;EQDQ01+000000PRSWM2N01 00000JPWTH 0QNNAA1D0 00000BA1 0 00000GA1U0 99999KA1D0 00038JA1 0 00033LA1 0 01000CA1 0 02999NA1 0 00000QA1 0 10156SA1D0 00050RA1 0 00100YA1 0 32011
0054725040947022000111311009+41183-073150NSRDB+000399999V020999999999999999999999999999+99999+99999999999ADDGP10060000002000000002000000002000GR100600000900009
0499725040947022000111418003+41183-073150SY-MT+0003BDR  V0201305N00465016765MN0128005N1+01225+01175100885ADDAA101000895AA206003091GD12995+0030559GD24995+0167659GF108991999999004501999999GP10060007602009000002021007602009GQ100600610919439GR100600678913989KA1120M+01221KA2240N+00891MA1100885100821MD1610371+9999MW1615REMSYN104AAXX  14184 72504 11462 81309 10122 20117 30082 40088 56037 60031 761// 91754 333 10122 20089 555 91418;EQDN01 00020JPWTH 0QNNAA1D0 02010BA1 0 02010AA1D0 06055BA1 0 06055GA1 0 00055KA1D0 00053JA1 0 00117LA1 0 00800CA1 0 02979NA1 0 00020QA1 0 10088SA1D0 00054RA1 0 00122YA1 0 13009
0448725040947022000112006003+41183-073150SY-MT+0003BDR  V0200105N00155220005MN0112005N1-00115-00395101665ADDAA101000095GD11995+0125059GF102991999999012501999999GP10060000002000000002000000002000GR100600000900009KA1240M+00441KA2240N-00171MA1101665101591MD1810141+9999REMSYN092AAXX  20064 72504 35661 20103 11011 21039 30159 40166 58014 90554 333 10044 21017 555 92006;EQDQ01  00002PRCP99Q02  00003PRCP99N01 00000JPWTH 0QNNAA1D0 02041BA1 0 01041GA1U0 99999KA1D0 00025JA1 0-00039LA1 0 00700CA1 0 03002NA1 0 00000QA1 0 10166SA1D0 00030RA1 0-00011YA1 0 01003
031672504094702200011231854C+41183-073150FM-15+0003BDR  V0203405N00575220005MN0160005N1+00175-01115102385ADDAA101000095GF100991999999999999999999MA1102375999999MW1001REMMET076KBDR 231854Z 34011KT 300V010 10SM CLR 02/M11 A3023 RMK AO2 SLP238 T00171111;EQDQ01+000000PRSWM2N01 00000JPWTH 0QNNAA1D0 00000BA1 0 00000GA1U0 99999KA1D0 00012JA1 0-00111LA1 0 01000CA1 0 03023NA1 0 00000QA1 0 10238SA1D0 00035RA1 0 00017YA1 0 34011
031772504094702200011291054C+41183-073150FM-15+0003BDR  V0209999C00005220005MN0160005N1+00175+00005101855ADDAA101000095GF100991999999999999999999MA1101865999999MW1001REMMET077KBDR 291054Z AUTO 00000KT 10SM CLR 02/00 A3008 RMK AO2 SLP185 T00170000 TSNO;EQDQ01+000000PRSWM2N01 00000JPWTH 0QNNAA1D0 00000BA1 0 00000GA1U0 99999KA1D0 00032JA1 0 00000LA1 0 01000CA1 0 03008NA1 0 00000QA1 0 10185SA1D0 00035RA1 0 00017YA1 0 00000
0071725040947022000113019009+41183-073150NSRDB+000399999V020999999999999999999999999999+99999+99999999999ADDGP10060029702009035402021016302009GQ100600679920719GR100600530914079
035472504094702200012010454C+41183-073150FM-15+0003BDR  V0202805N00415220005MN0160005N1+00115-00285101855ADDAA101000095GF100991999999999999999999KA1999M+00611KA2999N+00061MA1101865999999MW1001REMMET088KBDR 010454Z AUTO 28008KT 10SM CLR 01/M03 A3008 RMK AO2 SLP185 T00111028 400610006 TSNO;EQDQ01+000000PRSWM2N01 00000JPWTH 0QNNAA1D0 00000BA1 0 00000GA1U0 99999KA1D0 00027JA1 0-00028LA1 0 01000CA1 0 03008NA1 0 00000QA1 0 10185SA1D0 00034RA1 0 00011YA1 0 28008
0464725040947022000120400003+41183-073150SY-MT+0003BDR  V0203305N00315220005MN0160005N1-00115-01175103215ADDAA101000095GA1001+999999999GD10995+9999999GF100991001001999999001001GP10060000002000000002000000002000GR100600000900009KA1120M+00281KA2180N-00831MA1103225103151MD1610041+9999REMSYN092AAXX  04004 72504 32966 03306 11011 21117 30315 40321 56004 92354 333 10028 21083 555 90400;EQDQ01  00002PRCP99Q02  00003PRCP99N01 00000JPWTH 0QNNAA1D0 00000BA1 0 00000GA1U0 99999KA1D0 00011JA1 0-00117LA1 0 01000CA1 0 03048NA1 0 00000QA1 0 10321SA1D0 00030RA1 0-00011YA1 0 33006
0464725040947022000121000003+41183-073150SY-MT+0003BDR  V0200405N00215220005MN0160005N1-00175-01005103165ADDAA101000095GA1001+999999999GD10995+9999999GF100991001001999999001001GP10060000002000000002000000002000GR100600000900009KA1120M+00061KA2180N-00671MA1103185103121MD1210091+9999REMSYN092AAXX  10004 72504 32966 00404 11017 21100 30312 40316 52009 92354 333 10006 21067 555 91000;EQDQ01  00002PRCP99Q02  00003PRCP99N01 00000JPWTH 0QNNAA1D0 00000BA1 0 00000GA1U0 99999KA1D0 00014JA1 0-00100LA1 0 01000CA1 0 03047NA1 0 00000QA1 0 10316SA1D0 00029RA1 0-00017YA1 0 04004
036472504094702200012122054C+41183-073150FM-15+0003BDR  V0203005N00935220005MN0160005N1+00225-01065101545ADDAA101000095GF100991999999999999999999MA1101565999999MD1310951+9999MW1001OC101491REMMET102KBDR 122054Z 30018G29KT 10SM CLR 02/M11 A2999 RMK AO2 PK WND 30038/2009 PRESRR SLP154 T00221106 53095;EQDQ01+000000PRSWM2N01 00000JPWTH 0QNNAA1D0 00000BA1 0 00000GA1U0 99999KA1D0 00013JA1 0-00106LA1 0 01000CA1 0 02999NA1 0 00000QA1 0 10154SA1D0 00036RA1 0 00022YA1 0 30018
0502725040947022000121300003+41183-073150SY-MT+0003BDR  V0203105N00885220005MN0160005N1-00065-01115102185ADDAA101000095GA1001+999999999GD10995+9999999GF100991001001999999001001GP10060000002000000002000000002000GR100600000900009KA1120M+01171KA2180N-00061MA1102205102142MD1110642+9999REMSYN098AAXX  13004 72504 32966 03117 11006 21111 30214 40218 51064 92354 333 10117 21006 91025 555 91300;EQDQ01+102143APOSP Q02+000642APC3  Q03  00002PRCP99Q04  00003PRCP99N01 00000JPWTH 0QNNAA1D0 00000BA1 0 00000GA1U0 99999KA1D0 00012JA1 0-00111LA1 0 01000CA1 0 03018NA1 0 00000QA1 0 10218SA1D0 00031RA1 0-00006YA1 0 31017
031972504094702200012130654C+41183-073150FM-15+0003BDR  V0203405N00365220005MN0160005N1-00565-01395103255ADDAA101000095GF100991999999999999999999MA1103255999999MW1001REMMET079KBDR 130654Z AUTO 34007KT 10SM CLR M06/M14 A3049 RMK AO2 SLP325 T10561139 TSNO;EQDQ01+000000PRSWM2N01 00000JPWTH 0QNNAA1D0 00000BA1 0 00000GA1U0 99999KA1D0 00007JA1 0-00139LA1 0 01000CA1 0 03049NA1 0 00000QA1 0 10325SA1D0 00022RA1 0-00056YA1 0 34007
038772504094702200012141054C+41183-073150FM-15+0003BDR  V0201105N00985003055MN0064005N1+00395+00285102395ADDAA101001395GD14995+0030559GF108991999999999999999999MA1102405999999MW1101MW2455MW3615REMMET104KBDR 141054Z AUTO 11019KT 4SM -RA BR OVC010 04/03 A3024 RMK AO2 CIG 007V015 SLP239 P0005 T00390028 TSNO;EQDQ01+000003PRSWM1Q02    003PRSWM1N01 02070JPWTH 0QNNAA1D0 06010BA1 0 06010GA1 0 00010KA1D0 00037JA1 0 00028LA1 0 00400CA1 0 03024NA1 0 02070QA1 0 10239SA1D0 00039RA1 0 00039YA1 0 11019
0218725040947022000121414414+41170-073130FM-16+0005KBDR V0200601N003610063019N0160931N1+00201+00101999999ADDGD12991+0018019GD23991+0063019GD34991+0084019GF108991999999999999999999MA1101861999999MW1001REMMET095KBDR 141441Z 06007KT 020V090 10SM FEW006 BKN021 OVC028 02/01 A3008 RMK AO2 RAE04UPB04E07 P0000;EQDQ01+000000PRSWM2
035672504094702200012160254C+41183-073150FM-15+0003BDR  V0201305N00315008535MN0160005N1+00175-00285103525ADDAA101000095GD13995+0085359GF107991999999999999999999MA1103525999999MD1610061+9999MW1001REMMET087KBDR 160254Z AUTO 13006KT 10SM BKN028 02/M03 A3057 RMK AO2 SLP352 T00171028 56006 TSNO;EQDQ01+000000PRSWM2N01 00000JPWTH 0QNNAA1D0 04028BA1 0 04028GA1 0 00028KA1D0 00027JA1 0-00028LA1 0 01000CA1 0 03057NA1 0 00000QA1 0 10352SA1D0 00035RA1 0 00017YA1 0 13006
0466725040947022000121712003+41183-073150SY-MT+0003BDR  V0201905N00935003665MN0144005N1+01445+01395100535ADDAA101000025AA206002091AA324016891GD14995+0036659GF108991999999004501999999GP10060000002000000002000000002000GR100600000900009KA1999M+99999KA2120N+00671MA1100545100481MD1710461+9999REMSYN104AAXX  17124 72504 12464 81918 10144 20139 30048 40053 57046 60021 91154 333 10094 20067 70168 555 91712;EQDQ01 +00942ATMX  N01 00000JPWTH 0QNNAA1D0 06012BA1 0 06012GA1 0 00012KA1D0 00057JA1 0 00139LA1 0 00900CA1 0 02969NA1 0 00000QA1 0 10053SA1D0 00058RA1 0 00144YA1 0 19018
0054725040947022000121808009+41183-073150NSRDB+000399999V020999999999999999999999999999+99999+99999999999ADDGP10060000002000000002000000002000GR100600000900009
0071725040947022000121922009+41183-073150NSRDB+000399999V020999999999999999999999999999+99999+99999999999ADDGP10060000002009000002021000002009GQ100600883923679GR100600017905779
034372504094702200012201554C+41183-073150FM-15+0003BDR  V0202905N00675011285MN0160005N1+00065-00675100835ADDAA101000025GD13995+0112859GF107991999999999999999999MA1100855999999MW1001REMMET088KBDR 201554Z 29013KT 10SM BKN037 01/M07 A2978 RMK AO2 SNB1456E14 SLP083 P0000 T00061067;EQDQ01+000000PRSWM2N01 00000JPWTH 0QNNAA1D0 04037BA1 0 04037GA1 0 00037KA1D0 00020JA1 0-00067LA1 0 01000CA1 0 02978NA1 0 00000QA1 0 10083SA1D0 00033RA1 0 00006YA1 0 29013
032772504094702200012242154C+41183-073150FM-15+0003BDR  V0202405N00525220005MN0160005N1-00065-01005102035ADDAA101000095GD11995+0167659GF102991999999999999999999MA1102035999999MW1001REMMET072KBDR 242154Z 24010KT 10SM FEW055 M01/M10 A3013 RMK AO2 SLP203 T10061100;EQDQ01+000000PRSWM2N01 00000JPWTH 0QNNAA1D0 02055BA1 0 01055GA1U0 99999KA1D0 00014JA1 0-00100LA1 0 01000CA1 0 03013NA1 0 00000QA1 0 10203SA1D0 00031RA1 0-00006YA1 0 24010
0481725040947022000122718003+41183-073150SY-MT+0003BDR  V0203005N00625220005MN0160005N1+00005-01065101325ADDAA101000095GA1001+999999999GD10995+9999999GF100991001001999999001001GP10060043602009078202021010502009GQ100600651918919GR100600596914159KA1120M+00001KA2240N-00561MA1101325101261MD1610391+9999REMSYN092AAXX  27184 72504 32966 03012 10000 21106 30126 40132 56039 91754 333 10000 21056 555 92718;EQDQ01  00002PRCP99Q02  00003PRCP99N01 00000JPWTH 0QNNAA1D0 00000BA1 0 00000GA1U0 99999KA1D0 00013JA1 0-00106LA1 0 01000CA1 0 02992NA1 0 00000QA1 0 10132SA1D0 00032RA1 0 00000YA1 0 30012
037172504094702200012281154C+41183-073150FM-15+0003BDR  V0203105N00465220005MN0160005N1-00565-01175101005ADDAA101000095GF100991999999999999999999KA1999M-00331KA2999N-00561MA1101025999999MD1310031+9999MW1001REMMET091KBDR 281154Z COR 31009KT 10SM CLR M06/M12 A2983 RMK AO2 SLP100 T10561117 11033 21056 53003;EQDQ01+000000PRSWM2N01 00000JPWTH 0QNNAA1D0 00000BA1 0 00000GA1U0 99999KA1D0 00011JA1 0-00117LA1 0 01000CA1 0 02983NA1 0 00000QA1 0 10100SA1D0 00022RA1 0-00056YA1 0 31009
035772504094702200012300854C+41183-073150FM-15+0003BDR  V0200405N00725220005MN0160005N1-00395-00945100955ADDAA101000095GD11995+0304859GF102991999999999999999999MA1100955999999MD1810401+9999MW1001REMMET088KBDR 300854Z AUTO 04014KT 10SM FEW100 M04/M09 A2981 RMK AO2 SLP095 T10391094 58040 TSNO;EQDQ01+000000PRSWM2N01 00000JPWTH 0QNNAA1D0 02100BA1 0 01100GA1U0 99999KA1D0 00015JA1 0-00094LA1 0 01000CA1 0 02981NA1 0 00000QA1 0 10095SA1D0 00025RA1 0-00039YA1 0 04014
0148725045999992000012715454+41270-072880FM-15+0004KHVN V0203401N010312200019N0321861N1-00801+99999999999ADDGD12991+0300099GF102991999999999999999999MA1101461999999MW1001OC101391REMMET047KHVN 271545Z 34020G27KT 20SM FEW100 M08/ A2996;EQDQ01+000000PRSWM2
0130725045999992000012721454+41270-072880FM-15+0004KHVN V0203401N007712200019N0321861N1-00801+99999999999ADDGF100991999999999999999999MA1101591999999MW1001OC101291REMMET044KHVN 272145Z 34015G25KT 20SM SKC M08/ A3000;EQDQ01+000000PRSWM2
0177725045999992000020421454+41270-072880FM-15+0004KHVN V0202601N002610111019N0016091N1-00101+99999999999ADDGD13991+0111099GD24991+0150099GF108991999999999999999999MA1101221999999MW1731REMMET053KHVN 042145Z 26005KT 1SM SN BKN037 OVC050 M01/ A2989;EQDQ01+000003PRSWM1Q02    003PRSWM1
0137725045999992000021218454+41270-072880FM-15+0004KHVN V0202301N005112200019N0321861N1-00101+99999999999ADDGD12991+0750099GF104991999999999999999999MA1102571999999MW1001REMMET044KHVN 121845Z 23010KT 20SM SCT250 M01/ A3029;EQDQ01+000000PRSWM2
0176725045999992000022623454+41270-072880FM-15+0004KHVN V0200301N005110009019N0016091N1+00401+99999999999ADDED199U18299GD14991+0009099GF108991999999999999999999MA1103121999999MW1101REMMET056KHVN 262345Z 03010KT 1SM R2/P6000FT BR OVC003 04/ A3045;EQDQ01+000003PRSWM1Q02    003PRSWM1
0178725045999992000022801454+41270-072880FM-15+0004KHVN V0201401N002610003019N0004021N1+00801+99999999999ADDED199U05499GD14991+0003099GF108991999999999999999999MA1101931999999MW1441REMMET058KHVN 280145Z 14005KT 1/4SM R02/1800FT FG OVC001 08/ A3010;EQDQ01+000003PRSWM1Q02    003PRSWM1
0136725045999992000030711454+41270-072880FM-15+0004KHVN V0209999C000012200019N0321861N1+00001+99999999999ADDGD12991+0450099GF104991999999999999999999MA1102471999999MW1001REMMET043KHVN 071145Z 00000KT 20SM SCT150 00/ A3026;EQDQ01+000000PRSWM2
0136725045999992000030717454+41270-072880FM-15+0004KHVN V0202301N007712200019N0321861N1+00901+99999999999ADDGD12991+0600099GF104991999999999999999999MA1102071999999MW1001REMMET043KHVN 071745Z 23015KT 20SM SCT200 09/ A3014;EQDQ01+000000PRSWM2
0169725045999992000031717454+41270-072880FM-15+0004KHVN V0200201N005110111019N0160931N1+00201+99999999999ADDGD12991+0087099GD24991+0111099GF108991999999999999999999MA1101351999999MW1001OC100931REMMET053KHVN 171745Z 02010G18KT 10SM FEW029 OVC037 02/ A2993;EQDQ01+000000PRSWM2
0136725045999992000032100454+41270-072880FM-15+0004KHVN V0200801N005110090019N0160931N1+00501+99999999999ADDGD14991+0090099GF108991999999999999999999MA1103121999999MW1001REMMET043KHVN 210045Z 08010KT 10SM OVC030 05/ A3045;EQDQ01+000000PRSWM2
0135725045999992000032121454+41270-072880FM-15+0004KHVN V0200601N006710054019N0128741N1+00701+99999999999ADDGD14991+0054099GF108991999999999999999999MA1103121999999MW1001REMMET042KHVN 212145Z 06013KT 8SM OVC018 07/ A3045;EQDQ01+000000PRSWM2
0136725045999992000033115454+41270-072880FM-15+0004KHVN V0200201N005710150019N0321861N1+01101+99999999999ADDGD13991+0150099GF107991999999999999999999MA1101761999999MW1001REMMET043KHVN 311545Z 02011KT 20SM BKN050 11/ A3005;EQDQ01+000000PRSWM2
0118725045999992000040709454+41270-072880FM-15+0004KHVN V0209999C000012200019N0321861N1+01001+99999999999ADDGF100991999999999999999999MA1101221999999MW1001REMMET040KHVN 070945Z 00000KT 20SM SKC 10/ A2989;EQDQ01+000000PRSWM2
0147725045999992000040821504+41270-072880FM-15+0004KHVN V0202101N007712200019N0160931N1+01501+99999999999ADDGD12991+0750099GF104991999999999999999999MA1100271999999MW1001OC101131REMMET046KHVN 082150Z 21015G22KT 10SM SCT250 15/ A2961;EQDQ01+000000PRSWM2
0138725045999992000041001454+41270-072880FM-15+0004KHVN V0202701N006212200019N0321861N1+00401+99999999999ADDGF100991999999999999999999MA1100681999999MW1001OC101031REMMET052KHVN 100145Z 27012G20KT 20SM SKC 04/ A2973 RMK LAST;EQDQ01+000000PRSWM2
0136725045999992000041112454+41270-072880FM-15+0004KHVN V0200701N002610330019N0241401N1+00301+99999999999ADDGD13991+0330099GF107991999999999999999999MA1103011999999MW1001REMMET043KHVN 111245Z 07005KT 15SM BKN110 03/ A3042;EQDQ01+000000PRSWM2
0180725045999992000041116454+41270-072880FM-15+0004KHVN V0201501N001510018019N0048281N1+00201+99999999999ADDGD13991+0018099GD24991+0078099GF108991999999999999999999MA1102881999999MW1051REMMET056KHVN 111645Z COR 15003KT 3SM HZ BKN006 OVC026 02/ A3038;EQDQ01+000003PRSWM1Q02    003PRSWM1
0136725045999992000041819454+41270-072880FM-15+0004KHVN V0200601N004610108019N0321861N1+00901+99999999999ADDGD14991+0108099GF108991999999999999999999MA1101961999999MW1001REMMET043KHVN 181945Z 06009KT 20SM OVC036 09/ A3011;EQDQ01+000000PRSWM2
0136725045999992000042717454+41270-072880FM-15+0004KHVN V0202401N005110111019N0321861N1+00901+99999999999ADDGD13991+0111099GF107991999999999999999999MA1101691999999MW1001REMMET043KHVN 271745Z 24010KT 20SM BKN037 09/ A3003;EQDQ01+000000PRSWM2
0136725045999992000042910454+41270-072880FM-15+0004KHVN V0200201N005710600019N0160931N1+00501+99999999999ADDGD13991+0600099GF107991999999999999999999MA1101391999999MW1001REMMET043KHVN 291045Z 02011KT 10SM BKN200 05/ A2994;EQDQ01+000000PRSWM2
0147725045999992000043022454+41270-072880FM-15+0004KHVN V0203601N006212200019N0321861N1+01601+99999999999ADDGD12991+0180099GF102991999999999999999999MA1101691999999MW1001OC101131REMMET046KHVN 302245Z 36012G22KT 20SM FEW060 16/ A3003;EQDQ01+000000PRSWM2
0158725045999992000061419434+41260-072880FM-16+0004KHVN V0201101N006210117019N0321861N1+01601+99999999999ADDGD12991+0087099GD24991+0117099GF108991999999999999999999MA1102301999999MW1001REMMET050KHVN 142043Z 11012KT 20SM FEW029 OVC039 16/ A3021;EQDQ01+000000PRSWM2
0154725045999992000061520454+41260-072880FM-15+0004KHVN V0201301N002610015019N0080461N1+02001+99999999999ADDGD13991+0015099GF107991999999999999999999MA1101421999999MW1101REMMET045KHVN 152045Z 13005KT 5SM BR BKN005 20/ A2995;EQDQ01+000003PRSWM1Q02    003PRSWM1
0118725045999992000062014454+41260-072880FM-15+0004KHVN V0203201N006712200019N0321861N1+02401+99999999999ADDGF100991999999999999999999MA1102071999999MW1001REMMET040KHVN 201445Z 32013KT 20SM SKC 24/ A3014;EQDQ01+000000PRSWM2
0136725045999992000062918454+41260-072880FM-15+0004KHVN V0202301N003610300019N0160931N1+02001+99999999999ADDGD13991+0300099GF107991999999999999999999MA1101021999999MW1001REMMET043KHVN 291845Z 23007KT 10SM BKN100 20/ A2983;EQDQ01+000000PRSWM2
0154725045999992000070422454+41260-072880FM-15+0004KHVN V0202501N004112200019N0064371N1+02601+99999999999ADDGD12991+0270099GF104991999999999999999999MA1100851999999MW1051REMMET045KHVN 042245Z 25008KT 4SM HZ SCT090 26/ A2978;EQDQ01+000003PRSWM1Q02    003PRSWM1
0136725045999992000070510454+41260-072880FM-15+0004KHVN V0200201N004112200019N0241401N1+02101+99999999999ADDGD12991+0750099GF104991999999999999999999MA1100981999999MW1001REMMET043KHVN 051045Z 02008KT 15SM SCT250 21/ A2982;EQDQ01+000000PRSWM2
0118725045999992000071110454+41260-072880FM-15+0004KHVN V0200201N003612200019N0321861N1+01801+99999999999ADDGF100991999999999999999999MA1101121999999MW1001REMMET040KHVN 111045Z 02007KT 20SM SKC 18/ A2986;EQDQ01+000000PRSWM2
0164725045999992000072609454+41260-072880FM-15+0004KHVN V0200401N003110033019N0080461N1+01401+99999999999ADDGD14991+0033099GF108991999999999999999999MA1102511999999MW1101MW2611REMMET049KHVN 260945Z 04006KT 5SM -RA BR OVC011 14/ A3027;EQDQ01+000003PRSWM1Q02    003PRSWM1
0154725045999992000080216454+41260-072880FM-15+0004KHVN V0202401N003110021019N0064371N1+02501+99999999999ADDGD14991+0021099GF108991999999999999999999MA1101591999999MW1101REMMET045KHVN 021645Z 24006KT 4SM BR OVC007 25/ A3000;EQDQ01+000003PRSWM1Q02    003PRSWM1
0154725045999992000082423454+41260-072880FM-15+0004KHVN V0209999C000012200019N0080461N1+02101+99999999999ADDGD12991+0450099GF104991999999999999999999MA1101631999999MW1051REMMET045KHVN 242345Z 00000KT 5SM HZ SCT150 21/ A3001;EQDQ01+000003PRSWM1Q02    003PRSWM1
0117725045999992000082613454+41260-072880FM-15+0004KHVN V0202601N002612200019N0128741N1+02301+99999999999ADDGF100991999999999999999999MA1101661999999MW1001REMMET039KHVN 261345Z 26005KT 8SM SKC 23/ A3002;EQDQ01+000000PRSWM2
0129725045999992000082914454+41260-072880FM-15+0004KHVN V0201301N005112200019N0241401N1+02201+99999999999ADDGF100991999999999999999999MA1102511999999MW1001OC100931REMMET043KHVN 291445Z 13010G18KT 15SM SKC 22/ A3027;EQDQ01+000000PRSWM2
0136725045999992000083011454+41260-072880FM-15+0004KHVN V0200201N005110036019N0160931N1+01701+99999999999ADDGD14991+0036099GF108991999999999999999999MA1102301999999MW1001REMMET043KHVN 301145Z 02010KT 10SM OVC012 17/ A3021;EQDQ01+000000PRSWM2
0127725045999992000090801454+41260-072880FM-15+0004KHVN V0202401N005112200019N0321861N1+01701+99999999999ADDGF100991999999999999999999MA1102341999999MW1001REMMET049KHVN 080145Z 24010KT 20SM SKC 17/ A3022 RMK LAST;EQDQ01+000000PRSWM2
0135725045999992000091312454+41260-072880FM-15+0004KHVN V0202901N002610150019N0128741N1+02101+99999999999ADDGD14991+0150099GF108991999999999999999999MA1101291999999MW1001REMMET042KHVN 131245Z 29005KT 8SM OVC050 21/ A2991;EQDQ01+000000PRSWM2
0118725045999992000091710454+41260-072880FM-15+0004KHVN V0203301N004112200019N0321861N1+01001+99999999999ADDGF100991999999999999999999MA1101801999999MW1001REMMET040KHVN 171045Z 33008KT 20SM SKC 10/ A3006;EQDQ01+000000PRSWM2
0117725045999992000092809454+41260-072880FM-15+0004KHVN V0209999C000012200019N0128741N1+01001+99999999999ADDGF100991999999999999999999MA1101761999999MW1001REMMET039KHVN 280945Z 00000KT 8SM SKC 10/ A3005;EQDQ01+000000PRSWM2
0159725045999992000092816454+41260-072880FM-15+0004KHVN V02099999999992200019N0160931N1+02001+99999999999ADDGD12991+0180099GD22991+0600099GF104991999999999999999999MA1102131999999MW1001REMMET051KHVN 281645Z 03012G18 20KT SCT060 SCT200 20/ A3016;EQDQ01+000000PRSWM2
0118725045999992000092921454+41260-072880FM-15+0004KHVN V0200701N002612200019N0321861N1+01401+99999999999ADDGF100991999999999999999999MA1102981999999MW1001REMMET040KHVN 292145Z 07005KT 20SM SKC 14/ A3041;EQDQ01+000000PRSWM2
0118725045999992000102101504+41260-072880FM-15+0004KHVN V0202501N004612200019N0321861N1+01401+99999999999ADDGF100991999999999999999999MA1102301999999MW1001REMMET040KHVN 210150Z 25009KT 20SM SKC 14/ A3021;EQDQ01+000000PRSWM2
0136725045999992000102115454+41260-072880FM-15+0004KHVN V0202501N007212200019N0064371N1+01701+99999999999ADDGF100991999999999999999999MA1102071999999MW1101REMMET042KHVN 211545Z 25014KT 4SM BR SKC 17/ A3014;EQDQ01+000003PRSWM1Q02    003PRSWM1
0118725045999992000102312454+41260-072880FM-15+0004KHVN V0200301N005112200019N0321861N1+00501+99999999999ADDGF100991999999999999999999MA1103891999999MW1001REMMET040KHVN 231245Z 03010KT 20SM SKC 05/ A3068;EQDQ01+000000PRSWM2
0136725045999992000103019504+41260-072880FM-15+0004KHVN V0203601N008210120019N0321861N1+00601+99999999999ADDGD13991+0120099GF107991999999999999999999MA1101661999999MW1001REMMET043KHVN 301950Z 36016KT 20SM BKN040 06/ A3002;EQDQ01+000000PRSWM2
0129725045999992000111800454+41260-072880FM-15+0004KHVN V0203101N007712200019N0160931N1+00701+99999999999ADDGF100991999999999999999999MA1100951999999MW1001OC101031REMMET043KHVN 180045Z 31015G20KT 10SM SKC 07/ A2981;EQDQ01+000000PRSWM2
0136725045999992000112812454+41260-072880FM-15+0004KHVN V0209999C000012200019N0321861N1+00601+99999999999ADDGD12991+0120099GF102991999999999999999999MA1101321999999MW1001REMMET043KHVN 281245Z 00000KT 20SM FEW040 06/ A2992;EQDQ01+000000PRSWM2
0119725045999992000120502454+41260-072880FM-15+0004KHVN V0209999C000012200019N0321861N1-00101+99999999999ADDGF100991999999999999999999MA1102371999999MW1001REMMET041KHVN 050245Z 00000KT 20SM SKC -01/ A3023;EQDQ01+000000PRSWM2
0137725045999992000122021504+41260-072880FM-15+0004KHVN V0203001N007212200019N0321861N1-00101+99999999999ADDGD12991+0150099GF102991999999999999999999MA1101561999999MW1001REMMET044KHVN 202150Z 30014KT 20SM FEW050 M01/ A2999;EQDQ01+000000PRSWM2
0685725046147072000012804596+41328-072049SOD  +0003KGON V020999999999999999999999999999+99999+99999999999ADDAA124000096KA1240M-00665KA2240N-01325MG1101089999994OE11240116229014315OE22240093933021345OE33240065399999995REMSOD54524 HR PRECIPITATION (IN): 0.00 24 HR MAX TEMP (F): 2024 HR MAX TEMP TIME (LST):1403 24 HR MIN TEMP (F):  824 HR MIN TEMP TIME (LST):2359 AVERAGE STATION PRESSURE:29.85  PEAK WIND SPEED (MPH): 26 PEAK WIND DIR (DEG):290 PEAK WIND TIME (LST):1431  FASTEST 2MIN SPEED (MPH): 21FASTEST 2MIN DIR (DEG):330 FASTEST 2MIN TIME (LST):2134 AVERAGE WIND SPEED (MPH):14.6 24 HR AVG TEMP (F):14 HOURLY INCREMENTAL PRECIPITATION VALUES (IN):.00  .00  .00  .00  .00  .00  .00  .00  .00  .00  .00  .00  .00  .00  .00  .00  .00  .00  .00  .00  .00  .00  .00  .00EQDR01  0.007AAP092
0685725046147072000032504596+41328-072049SOD  +0003KGON V020999999999999999999999999999+99999+99999999999ADDAA124000096KA1240M+01565KA2240N-00215MG1101969999994OE11240102814011535OE22240080514011545OE33240029199999995REMSOD54524 HR PRECIPITATION (IN): 0.00 24 HR MAX TEMP (F): 6024 HR MAX TEMP TIME (LST):1151 24 HR MIN TEMP (F): 2824 HR MIN TEMP TIME (LST):0352 AVERAGE STATION PRESSURE:30.11  PEAK WIND SPEED (MPH): 23 PEAK WIND DIR (DEG):140 PEAK WIND TIME (LST):1153  FASTEST 2MIN SPEED (MPH): 18FASTEST 2MIN DIR (DEG):140 FASTEST 2MIN TIME (LST):1154 AVERAGE WIND SPEED (MPH): 6.5 24 HR AVG TEMP (F):44 HOURLY INCREMENTAL PRECIPITATION VALUES (IN):.00  .00  .00  .00  .00  .00  .00  .00  .00  .00  .00  .00  .00  .00  .00  .00  .00  .00  .00  .00  .00  .00  .00  .00EQDR01  0.007AAP092
0665725046147072000041904596+41328-072049SOD  +0003KGON V020999999999999999999999999999+99999+99999999999ADDAA124008995KA1240M+00895KA2240N+00395MG1101799999994OE11240156506014325OE22240116206014325OE33240081499999995REMSOD54424 HR PRECIPITATION (IN): 0.35 24 HR MAX TEMP (F): 4824 HR MAX TEMP TIME (LST):1314 24 HR MIN TEMP (F): 3924 HR MIN TEMP TIME (LST):0426 AVERAGE STATION PRESSURE:30.06  PEAK WIND SPEED (MPH): 35 PEAK WIND DIR (DEG):060 PEAK WIND TIME (LST):1432  FASTEST 2MIN SPEED (MPH): 26FASTEST 2MIN DIR (DEG):060 FASTEST 2MIN TIME (LST):1432 AVERAGE WIND SPEED (MPH):18.2 24 HR AVG TEMP (F):44 HOURLY INCREMENTAL PRECIPITATION VALUES (IN):.00   T   .00  .00  .00  .00  .01   T   .00  .00  .00  .00  .00   T   .03  .03  .02   T   .02  .04  .09  .08  .03   T
0685725046147072000050804596+41328-072049SOD  +0003KGON V020999999999999999999999999999+99999+99999999999ADDAA124000096KA1240M+02445KA2240N+01065MG1101029999994OE11240093924017425OE22240071524017255OE33240031399999995REMSOD54524 HR PRECIPITATION (IN): 0.00 24 HR MAX TEMP (F): 7624 HR MAX TEMP TIME (LST):1601 24 HR MIN TEMP (F): 5124 HR MIN TEMP TIME (LST):0501 AVERAGE STATION PRESSURE:29.83  PEAK WIND SPEED (MPH): 21 PEAK WIND DIR (DEG):240 PEAK WIND TIME (LST):1742  FASTEST 2MIN SPEED (MPH): 16FASTEST 2MIN DIR (DEG):240 FASTEST 2MIN TIME (LST):1725 AVERAGE WIND SPEED (MPH): 7.0 24 HR AVG TEMP (F):64 HOURLY INCREMENTAL PRECIPITATION VALUES (IN):.00  .00  .00  .00  .00  .00  .00  .00  .00  .00  .00  .00  .00  .00  .00  .00  .00  .00  .00  .00  .00  .00  .00  .00EQDR01  0.007AAP092
0169725046999992000010712304+41330-072050FM-15+0003KGON V0209999C000010054019N0128741N1-00101-00201999999ADDGD13991+0054099GD24991+0180099GF108991999999999999999999MA1102301999999MW1001REMMET061KGON 071230Z 00000KT 8SM BKN018 OVC065 M01/M02 A3021 RMK AO2;EQDQ01+000000PRSWM2
0184725046999992000011104004+41330-072050FM-15+0003KGON V0202701N009812200019N0160931N1+00901+00601099771ADDGF100991999999999999999999MA1099761999999MW1001OC101391REMMET098KGON 110356Z AUTO 27019G27KT 10SM CLR 09/06 A2946 RMK AO2 PK WND 26028/0310 SLP977 T00890061 TSNO;EQDQ01+000000PRSWM2
0168725046999992000011410004+41330-072050FM-15+0003KGON V0203201N009312200019N0160931N1-01201-02101102221ADDGF100991999999999999999999MA1102241999999MW1001OC101131REMMET082KGON 140956Z AUTO 32018G22KT 10SM CLR M12/M21 A3019 RMK AO2 SLP222 T11221206 TSNO;EQDQ01+000000PRSWM2
0157725046999992000011517004+41330-072050FM-15+0003KGON V0203301N004112200019N0160931N1-00901-02301103801ADDGF100991999999999999999999MA1103791999999MW1001REMMET079KGON 151656Z AUTO 33008KT 10SM CLR M09/M23 A3065 RMK AO2 SLP380 T10891233 TSNO;EQDQ01+000000PRSWM2
0175725046999992000012014004+41330-072050FM-15+0003KGON V0200601N004112200019N0160931N1-00701-01701100781ADDGD12991+0180099GF104991999999999999999999MA1100781999999MW1001REMMET082KGON 201356Z AUTO 06008KT 10SM SCT065 M07/M17 A2976 RMK AO2 SLP078 T10671172 TSNO;EQDQ01+000000PRSWM2
0157725046999992000012616004+41330-072050FM-15+0003KGON V0203001N006712200019N0160931N1-00301-00801100441ADDGF100991999999999999999999MA1100441999999MW1001REMMET079KGON 261556Z AUTO 30013KT 10SM CLR M03/M08 A2966 RMK AO2 SLP044 T10281083 TSNO;EQDQ01+000000PRSWM2
0223725046999992000013104004+41330-072050FM-15+0003KGON V0201001N004110072019N0128741N1+00101-00101101811ADDAA101000891GD14991+0072099GF108991999999999999999999MA1101831999999MW1611REMMET103KGON 310356Z AUTO 10008KT 8SM -RA OVC024 01/M01 A3007 RMK AO2 RAB15 PRESFR SLP181 P0003 T00111011 TSNO;EQDQ01+000003PRSWM1Q02    003PRSWM1
0195725046999992000013115004+41330-072050FM-15+0003KGON V0202701N00621002401CN0160931N1+00201+00001100231ADDGD14991+0027099GF108991999999999999999999MA1100241999999MD1210281+9999MW1001REMMET088KGON 311456Z 27012KT 10SM OVC009 02/00 A2960 RMK AO2 CIG 008V013 SLP023 T00170000 52028;EQDQ01+000000PRSWM2
0186725046999992000020613004+41330-072050FM-15+0003KGON V0203201N009812200019N0160931N1-00301-01501102091ADDGF100991999999999999999999MA1102101999999MW1001OC101291REMMET100KGON 061256Z AUTO 32019G25KT 10SM CLR M03/M15 A3015 RMK AO2 PK WND 31027/1237 SLP209 T10331150 TSNO;EQDQ01+000000PRSWM2
0192725046999992000022409004+41330-072050FM-15+0003KGON V0202601N004112200019N0144841N1+00601+00401102621ADDGD12991+0300099GF104991999999999999999999MA1102641999999MD1810121+9999MW1001REMMET085KGON 240856Z AUTO 26008KT 9SM SCT100 06/04 A3031 RMK AO2 SLP262 T00560039 58012 TSNO;EQDQ01+000000PRSWM2
0282725046999992000022809004+41330-072050FM-15+0003KGON V0201801N008710024019N0008051N1+00701+00701101151ADDAA103000391GD12991+0006099GD23991+0024099GD34991+0180099GF108991999999999999999999MA1101151999999MD1810441+9999MW1441REMMET118KGON 280856Z AUTO 18017KT 1/2SM FG SCT002 BKN008 OVC065 07/07 A2987 RMK AO2 SLP115 60001 T00720072 58044 TSNO RVRNO $;EQDQ01+000003PRSWM1Q02    003PRSWM1
0181725046999992000030110004+41330-072050FM-15+0003KGON V0209999C000012200019N0160931N1-00201-00501102031ADDGF100991999999999999999999MA1102031999999MW1001REMMET071KGON 010956Z 00000KT 10SM CLR M02/M05 A3013 RMK AO2 SLP203 T10221050 $;EQDQ01+000012APCTENQ02+000002APC3  Q03+000000PRSWM2
0240725046999992000030209004+41330-072050FM-15+0003KGON V0202901N003610330019N0160931N1+00601+00401100511ADDAA103000021GD12991+0144099GD24991+0330099GF108991999999999999999999MA1100511999999MD1510111+9999MW1001REMMET107KGON 020856Z AUTO 29007KT 10SM SCT048 OVC110 06/04 A2968 RMK AO2 RAE0757 SLP051 60000 T00560044 55011 TSNO;EQDQ01+000000PRSWM2
0214725046999992000030306004+41330-072050FM-15+0003KGON V0203201N006712200019N0160931N1+00101-00601100461ADDGF100991999999999999999999KA1999M+00331KA2999N+00061MA1100471999999MD1510031+9999MW1001REMMET096KGON 030556Z AUTO 32013KT 10SM CLR 01/M06 A2967 RMK AO2 SLP046 T00061061 10033 20006 55003 TSNO;EQDQ01+000000PRSWM2
0156725046999992000030308004+41330-072050FM-15+0003KGON V0203101N004112200019N0160931N1+00001-00601100391ADDGF100991999999999999999999MA1100411999999MW1001REMMET078KGON 030756Z AUTO 31008KT 10SM CLR 00/M06 A2965 RMK AO2 SLP039 T00001056 TSNO;EQDQ01+000000PRSWM2
0176725046999992000030815004+41330-072050FM-15+0003KGON V0201101N006712200019N0160931N1+01001-00101101711ADDGF100991999999999999999999MA1101731999999MD1310151+9999MW1001REMMET084KGON 081456Z AUTO 11013KT 10SM CLR 10/M01 A3004 RMK AO2 SLP171 T01001011 53015 TSNO;EQDQ01+000000PRSWM2
0175725046999992000031021004+41330-072050FM-15+0003KGON V0201401N006212200019N0160931N1+00601+00301101961ADDGF100991999999999999999999MA1101961999999MD1310321+9999MW1001REMMET083KGON 102056Z AUTO 14012KT 10SM CLR 06/03 A3011 RMK AO2 SLP196 T00610033 53032 TSNO;EQDQ01+000000PRSWM2
0195725046999992000032214004+41330-072050FM-15+0003KGON V0200401N008210045019N0160931N1+00701+00301103081ADDGD13991+0045099GD24991+0090099GF108991999999999999999999MA1103081999999MW1001REMMET087KGON 221356Z AUTO 04016KT 10SM BKN015 OVC030 07/03 A3044 RMK AO2 SLP308 T00670033 TSNO;EQDQ01+000000PRSWM2
0213725046999992000032300004+41330-072050FM-15+0003KGON V0200701N004612200019N0160931N1+00701+00201102911ADDGF100991999999999999999999KA1999M+01061KA2999N+00671MA1102911999999MD1010021+9999MW1001REMMET095KGON 222356Z AUTO 07009KT 10SM CLR 07/02 A3039 RMK AO2 SLP291 T00670017 10106 20067 50002 TSNO;EQDQ01+000000PRSWM2
0173725046999992000032310004+41330-072050FM-15+0003KGON V0200501N004110039019N0160931N1+00101+00001102871ADDGD14991+0039099GF108991999999999999999999MA1102881999999MW1001REMMET080KGON 230956Z AUTO 05008KT 10SM OVC013 01/00 A3038 RMK AO2 SLP287 T00060000 TSNO;EQDQ01+000000PRSWM2
0195725046999992000032705004+41330-072050FM-15+0003KGON V0203501N006712200019N0160931N1-00201-00301100651ADDGF100991999999999999999999KA1999M+00941KA2999N-00281MA1100641999999MW1001REMMET091KGON 270456Z AUTO 35013KT 10SM CLR M02/M03 A2972 RMK AO2 SLP065 T10221028 400941028 TSNO $;EQDQ01+000000PRSWM2
0175725046999992000040109004+41330-072050FM-15+0003KGON V0200301N002112200019N0160931N1+00201+00001102111ADDGF100991999999999999999999MA1102131999999MD1010021+9999MW1001REMMET083KGON 010856Z AUTO 03004KT 10SM CLR 02/00 A3016 RMK AO2 SLP211 T00170000 50002 TSNO;EQDQ01+000000PRSWM2
0175725046999992000040221004+41330-072050FM-15+0003KGON V0202301N006712200019N0160931N1+01201+00901101571ADDGF100991999999999999999999MA1101591999999MD1610181+9999MW1001REMMET083KGON 022056Z AUTO 23013KT 10SM CLR 12/09 A3000 RMK AO2 SLP157 T01170094 56018 TSNO;EQDQ01+000000PRSWM2
0297725046999992000040503004+41330-072050FM-15+0003KGON V0202601N006710270019N0160931N1+01101+00901099771ADDAA101000021AA203000021GD12991+0150099GD22991+0210099GD34991+0270099GF108991999999999999999999MA1099761999999MD1110121+9999MW1611REMMET122KGON 050256Z AUTO 26013KT 10SM -RA SCT055 SCT070 OVC090 11/09 A2946 RMK AO2 RAB56 SLP977 P0000 60000 T01060089 51012 TSNO;EQDQ01+000003PRSWM1Q02    003PRSWM1
0173725046999992000040811004+41330-072050FM-15+0003KGON V0201501N003112200019N0096561N1+00901+00801100861ADDGF100991999999999999999999MA1100881999999MW1101REMMET079KGON 081056Z AUTO 15006KT 6SM BR CLR 09/08 A2979 RMK AO2 SLP086 T00890083 TSNO;EQDQ01+000003PRSWM1Q02    003PRSWM1
0195725046999992000040821004+41330-072050FM-15+0003KGON V0201801N008212200019N0096561N1+01301+01101100441ADDGF100991999999999999999999MA1100441999999MD1810191+9999MW1101REMMET087KGON 082056Z AUTO 18016KT 6SM BR CLR 13/11 A2966 RMK AO2 SLP044 T01280106 58019 TSNO $;EQDQ01+000003PRSWM1Q02    003PRSWM1
0174725046999992000041113004+41330-072050FM-15+0003KGON V0203401N002610300019N0160931N1+00401-00501102981ADDGD13991+0300099GF107991999999999999999999MA1102981999999MW1001REMMET081KGON 111256Z AUTO 34005KT 10SM BKN100 04/M05 A3041 RMK AO2 SLP298 T00391050 TSNO;EQDQ01+000000PRSWM2
0257725046999992000041909004+41330-072050FM-15+0003KGON V0200401N007210042019N0112651N1+00601+00501101561ADDAA101000021AA203001091GD14991+0042099GF108991999999999999999999MA1101561999999MD1610061+9999MW1611OC100981REMMET104KGON 190856Z AUTO 04014G19KT 7SM -RA OVC014 06/05 A2999 RMK AO2 SLP156 P0000 60004 T00610050 56006 TSNO;EQDQ01+000003PRSWM1Q02    003PRSWM1
0193725046999992000042021004+41330-072050FM-15+0003KGON V0202401N001510150019N0160931N1+01101+00701101611ADDGD14991+0150099GF108991999999999999999999MA1101631999999MD1810051+9999MW1001REMMET086KGON 202056Z AUTO 24003KT 10SM OVC055 11/07 A3001 RMK AO2 SLP161 T01110072 58005 TSNO;EQDQ01+000000PRSWM2
0217725046999992000042808004+41330-072050FM-15+0003KGON V0202101N003610081019N0160931N1+00601+00501101351ADDGD12991+0024099GD23991+0081099GD34991+0180099GF108991999999999999999999MA1101351999999MW1001REMMET094KGON 280756Z AUTO 21007KT 10SM FEW008 BKN027 OVC060 06/05 A2993 RMK AO2 SLP135 T00610050 TSNO;EQDQ01+000000PRSWM2
0177725046999992000050115004+41330-072050FM-15+0003KGON V0202201N004612200019N0160931N1+01201+00301102071ADDGF100991999999999999999999MA1102071999999MD1810011+9999MW1001REMMET085KGON 011456Z AUTO 22009KT 10SM CLR 12/03 A3014 RMK AO2 SLP207 T01170033 58001 TSNO $;EQDQ01+000000PRSWM2
0166725046999992000050217004+41330-072050FM-15+0003KGON V0203601N007712200019N0160931N1+01701+00801101071ADDGF100991999999999999999999MA1101081999999MW1001OC101031REMMET080KGON 021656Z AUTO 36015G20KT 10SM CLR 17/08 A2985 RMK AO2 SLP107 T01670083 TSNO;EQDQ01+000000PRSWM2
0155725046999992000051608004+41330-072050FM-15+0003KGON V0200301N002112200019N0160931N1+00601+00301102001ADDGF100991999999999999999999MA1102001999999MW1001REMMET077KGON 160756Z AUTO 03004KT 10SM CLR 06/03 A3012 RMK AO2 SLP200 T00560028 TSNO;EQDQ01+000000PRSWM2
0155725046999992000051717004+41330-072050FM-15+0003KGON V0201901N004112200019N0160931N1+01701+00901102191ADDGF100991999999999999999999MA1102201999999MW1001REMMET077KGON 171656Z AUTO 19008KT 10SM CLR 17/09 A3018 RMK AO2 SLP219 T01720089 TSNO;EQDQ01+000000PRSWM2
0201725046999992000051819004+41330-072050FM-15+0003KGON V0202101N011312200019N0112651N1+01701+01301101371ADDGD12991+0210099GF102991999999999999999999MA1101391999999MW1001OC101341REMMET100KGON 181856Z AUTO 21022G26KT 7SM FEW075 17/13 A2994 RMK AO2 PK WND 22027/1844 SLP137 T01670133 TSNO;EQDQ01+000000PRSWM2
0270725046999992000052000004+41330-072050FM-15+0003KGON V0200401N005110090019N0160931N1+00701+00601102041ADDAA106000391GD12991+0051099GD24991+0090099GF108991999999999999999999KA1999M+00941KA2999N+00721MA1102071999999MD1110081+9999MW1001REMMET111KGON 192356Z AUTO 04010KT 10SM SCT017 OVC030 07/06 A3014 RMK AO2 SLP204 60001 T00720056 10094 20072 51008 TSNO;EQDQ01+000000PRSWM2
0166725046999992000052722004+41330-072050FM-15+0003KGON V0202701N003612200019N0160931N1+01901+01001100931ADDGF100991999999999999999999MA1100951999999MW1001OC100771REMMET080KGON 272156Z AUTO 27007G15KT 10SM CLR 19/10 A2981 RMK AO2 SLP093 T01940100 TSNO;EQDQ01+000000PRSWM2
0210725046999992000061208004+41330-072050FM-15+0003KGON V0200501N004610018019N0112651N1+01201+01201101841ADDAA101000021GD14991+0018099GF108991999999999999999999MA1101861999999MW1611REMMET090KGON 120756Z AUTO 05009KT 7SM -RA OVC006 12/12 A3008 RMK AO2 RAB51 SLP184 P0000 T01220117;EQDQ01+000003PRSWM1Q02    003PRSWM1
0246725046999992000061723194+41320-072500FM-16+0003KGON V0203601N005110147019N0048281N1+02301+02201999999ADDGD12991+0042099GD23991+0147099GD34991+0180099GF108991999999999999999999MA1101491999999MW1171MW2611REMMET101KGON 172319Z 36010KT 3SM VCTS -RA BR SCT014 BKN049 OVC060 23/22 A2997 RMK AO2 LTG DSNT W RAB05 P0020;EQDQ01+000100PRSWM4Q02+000003PRSWM1
0189725046999992000061911004+41320-072500FM-15+0003KGON V0203501N003110060019N0128741N1+01701+01601101901ADDGD12991+0024099GD24991+0060099GF108991999999999999999999MA1101901999999MW1001REMMET081KGON 191056Z AUTO 35006KT 8SM FEW008 OVC020 17/16 A3009 RMK AO2 SLP190 T01670156;EQDQ01+000000PRSWM2
0170725046999992000062303004+41320-072500FM-15+0003KGON V0202601N003612200019N0160931N1+02201+01901100681ADDGF100991999999999999999999MA1100681999999MD1110141+9999MW1001REMMET078KGON 230256Z AUTO 26007KT 10SM CLR 22/19 A2973 RMK AO2 SLP068 T02170194 51014;EQDQ01+000000PRSWM2
0155725046999992000062820004+41320-072500FM-15+0003KGON V0201901N004112200019N0160931N1+02201+01801101461ADDGF100991999999999999999999MA1101461999999MW1001REMMET077KGON 281956Z AUTO 19008KT 10SM CLR 22/18 A2996 RMK AO2 SLP146 T02220178 TSNO;EQDQ01+000000PRSWM2
0150725046999992000070202004+41320-072500FM-15+0003KGON V0209999C000012200019N0160931N1+01901+01701101671ADDGF100991999999999999999999MA1101691999999MW1001REMMET072KGON 020156Z AUTO 00000KT 10SM CLR 19/17 A3003 RMK AO2 SLP167 T01940167;EQDQ01+000000PRSWM2
0168725046999992000070323004+41320-072500FM-15+0003KGON V0201401N002112200019N0080461N1+02101+02001101511ADDGF100991999999999999999999MA1101521999999MW1101REMMET074KGON 032256Z AUTO 14004KT 5SM BR CLR 21/20 A2998 RMK AO2 SLP151 T02110200;EQDQ01+000003PRSWM1Q02    003PRSWM1
0198725046999992000070413004+41320-072500FM-15+0003KGON V0202201N00211001801CN0064371N1+02301+02201101321ADDGD14991+0027099GF108991999999999999999999MA1101321999999MW1101REMMET089KGON 041256Z AUTO 22004KT 4SM BR OVC009 23/22 A2992 RMK AO2 CIG 006V013 SLP132 T02280217;EQDQ01+000003PRSWM1Q02    003PRSWM1
0267725046999992000070504004+41320-072500FM-15+0003KGON V0202201N002110027019N0016091N1+02101+02101100851ADDAA101012291GD13991+0027099GD23991+0093099GD34991+0117099GF108991999999999999999999MA1100851999999MW1101MW2171MW3651REMMET121KGON 050356Z AUTO 22004KT 1SM VCTS +RA BR BKN009 BKN031 OVC039 21/21 A2978 RMK AO2 TSE00B35 SLP085 P0048 T02110211 RVRNO;EQDQ01+000003PRSWM1
0232725046999992000070505004+41320-072500FM-15+0003KGON V0209999C000012200019N0080461N1+02101+02101100861ADDAA101000021GF100991999999999999999999KA1999M+02441KA2999N+01891MA1100881999999MW1101REMMET101KGON 050456Z AUTO 00000KT 5SM BR CLR 21/21 A2979 RMK AO2 TSE09RAE22 SLP086 P0000 T02060206 402440189;EQDQ01+000003PRSWM1Q02    003PRSWM1
0150725046999992000070911004+41320-072500FM-15+0003KGON V0209999C000012200019N0160931N1+01701+01201101711ADDGF100991999999999999999999MA1101731999999MW1001REMMET072KGON 091056Z AUTO 00000KT 10SM CLR 17/12 A3004 RMK AO2 SLP171 T01720117;EQDQ01+000000PRSWM2
0150725046999992000071617004+41320-072500FM-15+0003KGON V0201601N003612200019N0160931N1+02301+01901101031ADDGF100991999999999999999999MA1101051999999MW1001REMMET072KGON 161656Z AUTO 16007KT 10SM CLR 23/19 A2984 RMK AO2 SLP103 T02330194;EQDQ01+000000PRSWM2
0186725046999992000071820004+41320-072050FM-15+0003KGON V0201901N003612200019N0080461N1+02301+02001100811ADDGF100991999999999999999999MA1100811999999MW1051REMMET092KGON 181956Z AUTO 19007KT 5SM HZ CLR 23/20 A2977 RMK AO2 LTG DSNT N AND NE SLP081 T02330200;EQDQ01+000003PRSWM1Q02    003PRSWM1
0222725046999992000080205004+41320-072050FM-15+0003KGON V0200901N002110015019N0080461N1+02101+01901101681ADDGD14991+0015099GF108991999999999999999999KA1999M+02441KA2999N+01781MA1101691999999MW1101REMMET087KGON 020456Z AUTO 09004KT 5SM BR OVC005 21/19 A3003 RMK AO2 SLP168 T02060194 402440178;EQDQ01+000003PRSWM1Q02    003PRSWM1
0208725046999992000080512004+41320-072050FM-15+0003KGON V0200101N004612200019N0160931N1+01901+01401101501ADDGF100991999999999999999999KA1999M+02001KA2999N+01721MA1101491999999MD1110101+9999MW1001REMMET090KGON 051156Z AUTO 01009KT 10SM CLR 19/14 A2997 RMK AO2 SLP150 T01940139 10200 20172 51010;EQDQ01+000000PRSWM2
0230725046999992000080703004+41320-072050FM-15+0003KGON V0201701N004610102019N0144841N1+02101+01901101501ADDAA101000021AA203000391GD14991+0102099GF108991999999999999999999MA1101491999999MD1810101+9999MW1001REMMET101KGON 070256Z AUTO 17009KT 9SM OVC034 21/19 A2997 RMK AO2 RAB15E24 SLP150 P0000 60001 T02110189 58010;EQDQ01+000000PRSWM2
0227725046999992000081414424+41320-072050FM-15+0003KGON V0200401N007210039019N0080461N1+01901+01701999999ADDAA101000021GD14991+0039099GF108991999999999999999999MA1101291999999MW1101MW2171MW3611OC101031REMMET103KGON 141542Z AUTO 04014G20KT 5SM VCTS -RA BR OVC013 19/17 A2991 RMK AO2 LTG DSNT SW TSB36RAB16 P0000 $;EQDQ01+000003PRSWM1
0226725046999992000081606004+41320-072050FM-15+0003KGON V0201601N001512200019N0080461N1+01901+01801101311ADDGF100991999999999999999999KA1999M+02221KA2999N+01891MA1101321999999MD1810191+9999MW1101REMMET092KGON 160556Z AUTO 16003KT 5SM BR CLR 19/18 A2992 RMK AO2 SLP131 T01890178 10222 20189 58019;EQDQ01+000003PRSWM1Q02    003PRSWM1
0284725046999992000081621004+41320-072050FM-15+0003KGON V0203401N005110150019N0160931N1+02601+01601100881ADDGD12991+0123099GD23991+0150099GD33991+0180099GF107991999999999999999999MA1100881999999MD1310041+9999MW1001OC100931REMMET139KGON 162056Z AUTO 34010G18KT 10SM FEW041 BKN050 BKN060 26/16 A2979 RMK AO2 WSHFT 2017 LTG DSNT NE AND E SLP088 6//// T02560161 53004 PNO $;EQDQ01+000000PRSWM2
0170725046999992000082315004+41320-072050FM-15+0003KGON V0201901N006712200019N0160931N1+02001+01801102251ADDGF100991999999999999999999MA1102271999999MD1810081+9999MW1001REMMET078KGON 231456Z AUTO 19013KT 10SM CLR 20/18 A3020 RMK AO2 SLP225 T02000183 58008;EQDQ01+000000PRSWM2
0150725046999992000082316004+41320-072050FM-15+0003KGON V0201901N006712200019N0160931N1+02101+01801102151ADDGF100991999999999999999999MA1102171999999MW1001REMMET072KGON 231556Z AUTO 19013KT 10SM CLR 21/18 A3017 RMK AO2 SLP215 T02060178;EQDQ01+000000PRSWM2
0238725046999992000082706004+41320-072050FM-15+0003KGON V0209999C000012200019N0096561N1+02601+01701101451ADDGF100991999999999999999999KA1999M+02611KA2999N+02061MA1101461999999MD1010001+9999MW1051REMMET104KGON 270556Z AUTO 00000KT 6SM HZ CLR 26/17 A2996 RMK AO2 SLP145 6//// T02610172 10261 20206 50000 PNO $;EQDQ01+000003PRSWM1Q02    003PRSWM1
0225725046999992000090302004+41320-072050FM-15+0003KGON V0200801N002610006019N0028161N1+02101+02101101531ADDAA101000021GD14991+0006099GF108991999999999999999999MA1101521999999MW1101MW2611REMMET099KGON 030156Z AUTO 08005KT 1 3/4SM -RA BR OVC002 21/21 A2998 RMK AO2 RAB42 SLP153 P0000 T02060206 $;EQDQ01+000003PRSWM1Q02    003PRSWM1
0170725046999992000090821004+41320-072050FM-15+0003KGON V0202501N004112200019N0160931N1+02201+01701101771ADDGF100991999999999999999999MA1101761999999MD1610091+9999MW1001REMMET078KGON 082056Z AUTO 25008KT 10SM CLR 22/17 A3005 RMK AO2 SLP177 T02170172 56009;EQDQ01+000000PRSWM2
0189725046999992000090907004+41320-072050FM-15+0003KGON V0202701N003110330019N0144841N1+02101+01901101761ADDGD12991+0270099GD23991+0330099GF107991999999999999999999MA1101761999999MW1001REMMET081KGON 090656Z AUTO 27006KT 9SM SCT090 BKN110 21/19 A3005 RMK AO2 SLP176 T02060194;EQDQ01+000000PRSWM2
0170725046999992000091903004+41320-072050FM-15+0003KGON V0202501N001512200019N0160931N1+01801+01701101941ADDGF100991999999999999999999MA1101931999999MD1110031+9999MW1001REMMET078KGON 190256Z AUTO 25003KT 10SM CLR 18/17 A3010 RMK AO2 SLP194 T01830167 51003;EQDQ01+000000PRSWM2
0150725046999992000091913004+41320-072050FM-15+0003KGON V0202001N002612200019N0160931N1+02001+01801101861ADDGF100991999999999999999999MA1101861999999MW1001REMMET072KGON 191256Z AUTO 20005KT 10SM CLR 20/18 A3008 RMK AO2 SLP186 T02000183;EQDQ01+000000PRSWM2
0176725046999992000092304004+41320-072050FM-15+0003KGON V0200501N001512200019N0008051N1+01201+01101102151ADDGF100991999999999999999999MA1102171999999MW1441REMMET082KGON 230356Z AUTO 05003KT 1/2SM FG CLR 12/11 A3017 RMK AO2 SLP215 T01170111 RVRNO;EQDQ01+000003PRSWM1Q02    003PRSWM1
0188725046999992000092321004+41320-072050FM-15+0003KGON V0202001N004610084019N0160931N1+01901+01501101591ADDGD14991+0084099GF108991999999999999999999MA1101591999999MD1610201+9999MW1001REMMET081KGON 232056Z AUTO 20009KT 10SM OVC028 19/15 A3000 RMK AO2 SLP159 T01890150 56020;EQDQ01+000000PRSWM2
0212725046999992000092502004+41320-072050FM-15+0003KGON V0203501N004610270019N0160931N1+01701+01201100951ADDGD12991+0078099GD23991+0270099GD33991+0360099GF107991999999999999999999MA1100951999999MW1001REMMET089KGON 250156Z AUTO 35009KT 10SM SCT026 BKN090 BKN120 17/12 A2981 RMK AO2 SLP095 T01670117;EQDQ01+000000PRSWM2
0205725046999992000092623004+41320-072050FM-15+0003KGON V0200201N005710135019N0160931N1+01101+01001101381ADDAA101000391GD14991+0135099GF108991999999999999999999MA1101391999999MW1611REMMET085KGON 262256Z AUTO 02011KT 10SM -RA OVC045 11/10 A2994 RMK AO2 SLP138 P0001 T01060100;EQDQ01+000003PRSWM1Q02    003PRSWM1
0181725046999992000100611004+41320-072050FM-15+0003KGON V0209999C000010009019N0032181N1+01601+01601101001ADDGD14991+0009099GF108991999999999999999999MA1101021999999MW1101REMMET072KGON 061056Z 00000KT 2SM BR OVC003 16/16 A2983 RMK AO2 SLP100 T01610161;EQDQ01+000003PRSWM1Q02    003PRSWM1
0281725046999992000100612004+41320-072050FM-15+0003KGON V0202001N003110009019N0008051N1+01801+01801101001ADDAA106000391AA224001891GD14991+0009099GF108991999999999999999999KA1999M+01831KA2999N+01501MA1101021999999MD1810031+9999MW1441REMMET110KGON 061156Z 20006KT 1/2SM FG OVC003 18/18 A2983 RMK AO2 SLP100 60001 70007 T01830183 10183 20150 58003 RVRNO;EQDQ01+000003PRSWM1Q02    003PRSWM1
0163725046999992000102201004+41320-072050FM-15+0003KGON V0202501N002112200019N0096561N1+01501+01401101941ADDGF100991999999999999999999MA1101931999999MW1101REMMET069KGON 220056Z 25004KT 6SM BR CLR 15/14 A3010 RMK AO2 SLP194 T01500139;EQDQ01+000003PRSWM1Q02    003PRSWM1
0145725046999992000102223004+41320-072050FM-15+0003KGON V0203501N002112200019N0160931N1+00901+00501103251ADDGF100991999999999999999999MA1103251999999MW1001REMMET067KGON 222256Z 35004KT 10SM CLR 09/05 A3049 RMK AO2 SLP325 T00890050;EQDQ01+000000PRSWM2
0153725046999992000102311004+41320-072050FM-15+0003KGON V0200201N004112200019N0160931N1+00301-00201103751ADDGF100991999999999999999999MA1103761999999MW1001REMMET075KGON 231056Z AUTO 02008KT 10SM CLR 03/M02 A3064 RMK AO2 SLP375 T00281017 $;EQDQ01+000000PRSWM2
0150725046999992000102413004+41320-072050FM-15+0003KGON V0209999C000012200019N0160931N1+01001+00801103031ADDGF100991999999999999999999MA1103051999999MW1001REMMET072KGON 241256Z AUTO 00000KT 10SM CLR 10/08 A3043 RMK AO2 SLP303 T01000078;EQDQ01+000000PRSWM2
0149725046999992000102601004+41320-072050FM-15+0003KGON V0209999C000012200019N0112651N1+01101+01001102671ADDGF100991999999999999999999MA1102681999999MW1001REMMET071KGON 260056Z AUTO 00000KT 7SM CLR 11/10 A3032 RMK AO2 SLP267 T01060100;EQDQ01+000000PRSWM2
0255725046999992000102706004+41320-072050FM-15+0003KGON V0200401N00151000151CN0084481N1+01101+01101102381ADDGD15991+0001599GF109991999999000251999999KA1999M+01171KA2999N+00891MA1102401999999MD1810071+9999MW1451REMMET106KGON 270556Z AUTO 04003KT 1/4SM FG VV001 11/11 A3024 RMK AO2 TWR VIS 5 SLP238 T01060106 10117 20089 58007;EQDQ01+000003PRSWM1Q02    003PRSWM1
0208725046999992000102808004+41320-072050FM-15+0003KGON V0209999C000010180019N0064371N1+01301+01101100841ADDGD13991+0180099GD24991+0240099GF108991999999999999999999MA1100851999999MW1101REMMET084KGON 280756Z AUTO 00000KT 4SM BR BKN060 OVC080 13/11 A2978 RMK AO2 SLP084 T01280106;EQDQ01+000003PRSWM1Q02    003PRSWM1
0180725046999992000102820004+41320-072050FM-15+0003KGON V0203501N008712200019N0160931N1+01101-00401101291ADDGF100991999999999999999999MA1101291999999MW1001OC101541REMMET094KGON 281956Z AUTO 35017G30KT 10SM CLR 11/M04 A2991 RMK AO2 PK WND 34032/1925 SLP129 T01111044;EQDQ01+000000PRSWM2
0150725046999992000110302004+41320-072050FM-15+0003KGON V0203501N004112200019N0160931N1+01101+00401101731ADDGF100991999999999999999999MA1101731999999MW1001REMMET072KGON 030156Z AUTO 35008KT 10SM CLR 11/04 A3004 RMK AO2 SLP173 T01110044;EQDQ01+000000PRSWM2
0208725046999992000110900004+41320-072050FM-15+0003KGON V0209999C000012200019N0160931N1+01101+00801101571ADDGF100991999999999999999999KA1999M+01501KA2999N+00941MA1101591999999MD1210071+9999MW1001REMMET090KGON 082356Z AUTO 00000KT 10SM CLR 11/08 A3000 RMK AO2 SLP157 T01060083 10150 20094 52007;EQDQ01+000000PRSWM2
0185725046999992000110917004+41320-072050FM-15+0003KGON V0201201N004110039019N0160931N1+01401+01001101471ADDGD13991+0039099GD24991+0270099GF108991999999999999999999MA1101491999999MW1001REMMET077KGON 091656Z 12008KT 10SM BKN013 OVC090 14/10 A2997 RMK AO2 SLP147 T01390100;EQDQ01+000000PRSWM2
0151725046999992000112113004+41320-072050FM-15+0003KGON V0202801N004612200019N0160931N1+00101-00701101191ADDGF100991999999999999999999MA1101191999999MW1001REMMET073KGON 211256Z AUTO 28009KT 10SM CLR 01/M07 A2988 RMK AO2 SLP119 T00061067;EQDQ01+000000PRSWM2
0152725046999992000112223004+41320-072050FM-15+0003KGON V0202801N004112200019N0160931N1-00101-01101101391ADDGF100991999999999999999999MA1101391999999MW1001REMMET074KGON 222256Z AUTO 28008KT 10SM CLR M01/M11 A2994 RMK AO2 SLP139 T10061106;EQDQ01+000000PRSWM2
0170725046999992000112302004+41320-072050FM-15+0003KGON V0202801N005110330019N0160931N1-00101-01201101511ADDGD14991+0330099GF108991999999999999999999MA1101521999999MW1001REMMET077KGON 230156Z AUTO 28010KT 10SM OVC110 M01/M12 A2998 RMK AO2 SLP151 T10061117;EQDQ01+000000PRSWM2
0172725046999992000120803004+41320-072050FM-15+0003KGON V0203301N003112200019N0160931N1-00501-01101101551ADDGF100991999999999999999999MA1101561999999MD1110221+9999MW1001REMMET080KGON 080256Z AUTO 33006KT 10SM CLR M05/M11 A2999 RMK AO2 SLP155 T10501111 51022;EQDQ01+000000PRSWM2
0194725046999992000120814454+41320-072050FM-15+0003KGON V0200501N00411000151CN0012071N1-00601-00701999999ADDAA101000021GD15991+0001599GF109991999999000251999999MA1101901999999MW1101MW2711REMMET068KGON 081445Z 05008KT 3/4SM -SN BR VV009 M06/M07 A3009 RMK AO2 P0000;EQDQ01+000003PRSWM1Q02    003PRSWM1
0164725046999992000121019004+41320-072050FM-15+0003KGON V0201701N004610105019N0160931N1+00301-00101102791ADDGD13991+0105099GF107991999999999999999999MA1102811999999MW1001REMMET071KGON 101856Z 17009KT 10SM BKN035 03/M01 A3036 RMK AO2 SLP279 T00331006;EQDQ01+000000PRSWM2
0221725046999992000121618004+41320-072050FM-15+0003KGON V0200801N005710039019N0160931N1+00601+00301102861ADDGD14991+0039099GF108991999999999999999999KA1999M+00561KA2999N+00111MA1102881999999MD1610501+9999MW1001REMMET088KGON 161756Z 08011KT 10SM OVC013 06/03 A3038 RMK AO2 SLP286 T00560033 10056 20011 56050;EQDQ01+000000PRSWM2
0267725046999992000122300004+41320-072050FM-15+0003KGON V0202801N004610240019N0160931N1-00101-00401101341ADDAA106000021GD13991+0240099GD24991+0300099GF108991999999999999999999KA1999M+00001KA2999N-00171MA1101351999999MD1110151+9999MW1001REMMET108KGON 222356Z AUTO 28009KT 10SM BKN080 OVC100 M01/M04 A2993 RMK AO2 SLP134 60000 T10111039 10000 21017 51015;EQDQ01+000000PRSWM2
0170725046999992000122807004+41320-072050FM-15+0003KGON V0202901N004110360019N0160931N1-00401-01001100931ADDGD14991+0360099GF108991999999999999999999MA1100951999999MW1001REMMET077KGON 280656Z AUTO 29008KT 10SM OVC120 M04/M10 A2981 RMK AO2 SLP093 T10391100;EQDQ01+000000PRSWM2
0167725054999992000010101003+41920-071500FM-15+0134KSFZ V0209999C000012200019N0160931N1-00501-00801999999ADDGF100991999999999999999999GP10060000002000000002000000002000GR100600000900009MA1101961999999MW1001REMMET057KSFZ 010055Z AUTO 00000KT 10SM CLR M05/M08 A3011 RMK AO1;
0186725054999992000010608003+41920-071500FM-15+0134KSFZ V0209999C000012200019N0160931N1-00801-01401999999ADDGF100991999999999999999999GP10060000002000000002000000002000GR100600000900009MA1103421999999MW1001REMMET057KSFZ 060755Z AUTO 00000KT 10SM CLR M08/M14 A3054 RMK AO1;EQDQ01+000000PRSWM2
0205725054999992000010909003+41920-071500FM-15+0134KSFZ V0202501N003612200019N0160931N1+00201-00501999999ADDGF100991999999999999999999GP10060000002000000002000000002000GR100600000900009MA1101831999999MD1710071+9999MW1001REMMET062KSFZ 090855Z AUTO 25007KT 10SM CLR 02/M05 A3007 RMK AO1 57007;EQDQ01+000000PRSWM2
0184725054999992000011105003+41920-071500FM-15+0134KSFZ V0202601N004612200019N0160931N1+00801+00301999999ADDGF100991999999999999999999GP10060000002000000002000000002000GR100600000900009MA1099591999999MW1001REMMET055KSFZ 110455Z AUTO 26009KT 10SM CLR 08/03 A2941 RMK AO1;EQDQ01+000000PRSWM2
0213725054999992000011214003+41920-071500FM-15+0134KSFZ V0203001N006712200019N0160931N1+00301-00701999999ADDGF100991999999999999999999GP10060015902009046702021007002009GQ100600792913279GR100600266914149MA1101191999999MW1001OC100871REMMET059KSFZ 121355Z AUTO 30013G17KT 10SM CLR 03/M07 A2988 RMK AO1;EQDQ01+000000PRSWM2
0186725054999992000011501003+41920-071500FM-15+0134KSFZ V0203201N002112200019N0160931N1-01301-02201999999ADDGF100991999999999999999999GP10060000002000000002000000002000GR100600000900009MA1102741999999MW1001REMMET057KSFZ 150055Z AUTO 32004KT 10SM CLR M13/M22 A3034 RMK AO1;EQDQ01+000000PRSWM2
0197725054999992000011811003+41920-071500FM-15+0134KSFZ V0203301N004612200019N0160931N1-01801-02301999999ADDGF100991999999999999999999GP10060000002000000002000000002000GR100600000900009MA1101761999999MW1001OC100771REMMET060KSFZ 181055Z AUTO 33009G15KT 10SM CLR M18/M23 A3005 RMK AO1;EQDQ01+000000PRSWM2
0272725054999992000012400003+41920-071500FM-15+0134KSFZ V0200801N002110105019N0160931N1-00801-01701999999ADDGD14991+0105019GF108991999999999999999999GP10060000002000000002000000002000GR100600000900009KA1999M-00701KA2999N-00801MA1102131999999MD1710101+9999MW1001REMMET088KSFZ 232355Z AUTO 08004KT 10SM OVC035 M08/M17 A3016 RMK AO1 11070 21080 410701180 57010;EQDQ01+000000PRSWM2
0226725054999992000012401003+41920-071500FM-15+0134KSFZ V0200801N002110090019N0160931N1-00801-01801999999ADDGD13991+0090019GD24991+0105019GF108991999999999999999999GP10060000002000000002000000002000GR100600000900009MA1102101999999MW1001REMMET067KSFZ 240055Z AUTO 08004KT 10SM BKN030 OVC035 M08/M18 A3015 RMK AO1;EQDQ01+000000PRSWM2
0233725054999992000012514003+41920-071500FM-15+0134KSFZ V0200201N006710003019N0012071N1-00301-00401999999ADDGD14991+0003019GF108991999999999999999999GP10060003202009000002021003202009GQ100600776913039GR100600303914119MA1100201999999MW1001OC100931REMMET064KSFZ 251355Z AUTO 02013G18KT 3/4SM OVC001 M03/M04 A2959 RMK AO1;EQDQ01+000000PRSWM2
0206725054999992000020703003+41920-071500FM-15+0134KSFZ V0202201N002112200019N0160931N1-00601-01401999999ADDGF100991999999999999999999GP10060000002000000002000000002000GR100600000900009MA1101961999999MD1710141+9999MW1001REMMET063KSFZ 070255Z AUTO 22004KT 10SM CLR M06/M14 A3011 RMK AO1 57014;EQDQ01+000000PRSWM2
0206725054999992000020803003+41920-071500FM-15+0134KSFZ V0203501N004612200019N0160931N1-00301-01101999999ADDGF100991999999999999999999GP10060000002000000002000000002000GR100600000900009MA1102031999999MD1210471+9999MW1001REMMET063KSFZ 080255Z AUTO 35009KT 10SM CLR M03/M11 A3013 RMK AO1 52047;EQDQ01+000000PRSWM2
0225725054999992000021911003+41920-071500FM-15+0134KSFZ V0200301N005110018019N0048281N1-00401-00401999999ADDGD13991+0018019GD24991+0039019GF108991999999999999999999GP10060000002000000002000000002000GR100600000900009MA1101151999999MW1001REMMET066KSFZ 191055Z AUTO 03010KT 3SM BKN006 OVC013 M04/M04 A2987 RMK AO1;EQDQ01+000000PRSWM2
0203725054999992000022707003+41920-071500FM-15+0134KSFZ V0209999C000010003019N0004021N1+00301+00301999999ADDGD14991+0003019GF108991999999999999999999GP10060000002000000002000000002000GR100600000900009MA1102741999999MW1001REMMET059KSFZ 270655Z AUTO 00000KT 1/4SM OVC001 03/03 A3034 RMK AO1;EQDQ01+000000PRSWM2
0202725054999992000022802003+41920-071500FM-15+0134KSFZ V0202001N002610009019N0160931N1+01201+01101999999ADDGD14991+0009019GF108991999999999999999999GP10060000002000000002000000002000GR100600000900009MA1101961999999MW1001REMMET058KSFZ 280155Z AUTO 20005KT 10SM OVC003 12/11 A3011 RMK AO1;EQDQ01+000000PRSWM2
0311725054999992000030212003+41920-071500FM-15+0134KSFZ V0203001N002610150019N0160931N1+00401+00101999999ADDAA106000391AA224000391GD13991+0150019GF107991999999999999999999GP10060000602009011802021000302009GQ100600867910239GR100600053909169KA1999M+00401KA2999N+00301MA1100371999999MD1210031+9999MW1001REMMET088KSFZ 021155Z AUTO 30005KT 10SM BKN055 04/01 A2964 RMK AO1 60001 70001 10040 20030 52003;EQDQ01+000000PRSWM2
0230725054999992000031004003+41920-071500FM-15+0134KSFZ V0203301N003112200019N0160931N1+01201+01101999999ADDAA101001091GD12991+0240019GF102991999999999999999999GP10060000002000000002000000002000GR100600000900009MA1100241999999MW1001REMMET075KSFZ 100355Z AUTO 33006KT 10SM FEW085 12/11 A2960 RMK AO1 LTG DSNT S P0004;EQDQ01+000000PRSWM2
0219725054999992000031220003+41920-071500FM-15+0134KSFZ V0203301N004110015019N0160931N1+00401+00401999999ADDGD14991+0015019GF108991999999999999999999GP10060010102009000002021010102009GQ100600569922799GR100600754913849MA1099931999999MW1001REMMET058KSFZ 121955Z AUTO 33008KT 10SM OVC005 04/04 A2951 RMK AO1;EQDQ01+000000PRSWM2
0184725054999992000031610003+41920-071500FM-15+0134KSFZ V0202201N003112200019N0160931N1+01101+00801999999ADDGF100991999999999999999999GP10060000002000000002000000002000GR100600000900009MA1101731999999MW1001REMMET055KSFZ 160955Z AUTO 22006KT 10SM CLR 11/08 A3004 RMK AO1;EQDQ01+000000PRSWM2
0239725054999992000032215003+41920-071500FM-15+0134KSFZ V0200501N004610024019N0160931N1+00401+00201999999ADDGD14991+0024019GF108991999999999999999999GP10060012802008000002015012802008GQ100600521913249GR100600844913769MA1103151999999MD1210071+9999MW1001REMMET064KSFZ 221455Z AUTO 05009KT 10SM OVC008 04/02 A3046 RMK AO1 52007;EQDQ01+000000PRSWM2
0213725054999992000032616003+41920-071500FM-15+0134KSFZ V0203101N002612200019N0160931N1+01601-00301999999ADDGF100991999999999999999999GP10060075502008080902015016802008GQ100600436914989GR100600994913739MA1100141999999MW1001OC100871REMMET059KSFZ 261555Z AUTO 31005G17KT 10SM CLR 16/M03 A2957 RMK AO1;EQDQ01+000000PRSWM2
0184725054999992000032902003+41920-071500FM-15+0134KSFZ V0201801N002112200019N0160931N1+00801+00101999999ADDGF100991999999999999999999GP10060000002000000002000000002000GR100600000900009MA1099491999999MW1001REMMET055KSFZ 290155Z AUTO 18004KT 10SM CLR 08/01 A2938 RMK AO1;EQDQ01+000000PRSWM2
0202725054999992000033111003+41920-071500FM-15+0134KSFZ V0203301N002112200019N0160931N1+00001-00301999999ADDGF100991999999999999999999GP10060000002008000002015000002008GQ100600876908609GR100600027906509MA1101421999999MW1001REMMET056KSFZ 311055Z AUTO 33004KT 10SM CLR 00/M03 A2995 RMK AO1;EQDQ01+000000PRSWM2
0186725054999992000040110003+41920-071500FM-15+0134KSFZ V0209999C000012200019N0160931N1-00101-00301999999ADDGF100991999999999999999999GP10060000002000000002000000002000GR100600000900009MA1102001999999MW1001REMMET057KSFZ 010955Z AUTO 00000KT 10SM CLR M01/M03 A3012 RMK AO1;EQDQ01+000000PRSWM2
0222725054999992000040316003+41920-071500FM-15+0134KSFZ V0200801N002110045019N0028161N1+01101+01101999999ADDGD14991+0045019GF108991999999999999999999GP10060012402008000002015012402008GQ100600405914899GR100601039913679MA1101391999999MW1001REMMET061KSFZ 031555Z AUTO 08004KT 1 3/4SM OVC015 11/11 A2994 RMK AO1;EQDQ01+000000PRSWM2
0218725054999992000040323003+41920-071500FM-15+0134KSFZ V0200901N002610006019N0016091N1+01101+01101999999ADDGD14991+0006019GF108991999999999999999999GP10060002602008000002015002602008GQ100600825927119GR100600178913679MA1101121999999MW1001REMMET057KSFZ 032255Z AUTO 09005KT 1SM OVC002 11/11 A2986 RMK AO1;EQDQ01+000000PRSWM2
0259725054999992000040812003+41920-071500FM-15+0134KSFZ V0201801N001512200019N0160931N1+01101+00901999999ADDGF100991999999999999999999GP10060017402008032102015010202008GQ100600771909159GR100600303913629KA1999M+01101KA2999N+00801MA1100811999999MD1710171+9999MW1001REMMET073KSFZ 081155Z AUTO 18003KT 10SM CLR 11/09 A2977 RMK AO1 10110 20080 57017;EQDQ01+000000PRSWM2
0277725054999992000041518003+41920-071500FM-15+0134KSFZ V0202201N003110060019N0160931N1+01801+01301999999ADDGD14991+0060019GF108991999999999999999999GP10060036202008001802015034702008GQ100600335919999GR100601132913579KA1999M+01801KA2999N+01201MA1102031999999MD1710171+9999MW1001REMMET076KSFZ 151755Z AUTO 22006KT 10SM OVC020 18/13 A3013 RMK AO1 10180 20120 57017;EQDQ01+000000PRSWM2
0204725054999992000042509003+41920-071500FM-15+0134KSFZ V0209999C000012200019N0160931N1+00201+00101999999ADDGF100991999999999999999999GP10060000002000000002000000002000GR100600000900009MA1101421999999MD1210101+9999MW1001REMMET061KSFZ 250855Z AUTO 00000KT 10SM CLR 02/01 A2995 RMK AO1 52010;EQDQ01+000000PRSWM2
0201725054999992000042923003+41920-071500FM-15+0134KSFZ V0200801N002612200019N0160931N1+01401+00101999999ADDGF100991999999999999999999GP10060014302008033202015007202008GQ100600777927909GR100600287913479MA1101021999999MW1001REMMET055KSFZ 292255Z AUTO 08005KT 10SM CLR 14/01 A2983 RMK AO1;EQDQ01+000000PRSWM2
0204725054999992000050203003+41920-071500FM-15+0134KSFZ V0202101N003112200019N0160931N1+01201+00301999999ADDGF100991999999999999999999GP10060000002000000002000000002000GR100600000900009MA1101021999999MD1710141+9999MW1001REMMET061KSFZ 020255Z AUTO 21006KT 10SM CLR 12/03 A2983 RMK AO1 57014;EQDQ01+000000PRSWM2
0201725054999992000050914003+41920-071500FM-15+0134KSFZ V0202501N002612200019N0160931N1+02801+01701999999ADDGF100991999999999999999999GP10060057802008049202015024502008GQ100600476910609GR100600903913409MA1100411999999MW1001REMMET055KSFZ 091355Z AUTO 25005KT 10SM CLR 28/17 A2965 RMK AO1;EQDQ01+000000PRSWM2
0201725054999992000051723003+41920-071500FM-15+0134KSFZ V0202001N003112200019N0160931N1+01801+00601999999ADDGF100991999999999999999999GP10060017602008030202015009702008GQ100600748928299GR100600350913359MA1102071999999MW1001REMMET055KSFZ 172255Z AUTO 20006KT 10SM CLR 18/06 A3014 RMK AO1;EQDQ01+000000PRSWM2
0239725054999992000052221003+41920-071500FM-15+0134KSFZ V0201601N002110048019N0160931N1+01201+01001999999ADDGD14991+0048019GF108991999999999999999999GP10060014502008000002015014502008GQ100600520926409GR100600820913329MA1101221999999MD1710201+9999MW1001REMMET064KSFZ 222055Z AUTO 16004KT 10SM OVC016 12/10 A2989 RMK AO1 57020;EQDQ01+000000PRSWM2
0219725054999992000052810003+41920-071500FM-15+0134KSFZ V0203401N001510180019N0160931N1+00901+00801999999ADDGD14991+0180019GF108991999999999999999999GP10060000802008007102015000502008GQ100600868906349GR100600054909649MA1100981999999MW1001REMMET058KSFZ 280955Z AUTO 34003KT 10SM OVC060 09/08 A2982 RMK AO1;EQDQ01+000000PRSWM2
0201725054999992000060323003+41920-071500FM-15+0134KSFZ V0203501N001512200019N0160931N1+02001+00601999999ADDGF100991999999999999999999GP10060008402008000002015008402008GQ100600726928499GR100600396913279MA1101831999999MW1001REMMET055KSFZ 032255Z AUTO 35003KT 10SM CLR 20/06 A3007 RMK AO1;EQDQ01+000000PRSWM2
0071725054999992000061001009+41917-071500NSRDB+013499999V020999999999999999999999999999+99999+99999999999ADDGP10060000002008000002015000002008GQ100600887930079GR100609999904099
0260725054999992000061306003+41920-071500FM-15+0134KSFZ V0200801N001510084019N0160931N1+01001+00801999999ADDGD14991+0084019GF108991999999999999999999GP10060000002000000002000000002000GR100600000900009KA1999M+01101KA2999N+01001MA1102271999999MD1710031+9999MW1001REMMET076KSFZ 130555Z AUTO 08003KT 10SM OVC028 10/08 A3020 RMK AO1 10110 20100 57003;EQDQ01+000000PRSWM2
0202725054999992000062208003+41920-071500FM-15+0134KSFZ V0202501N002610024019N0160931N1+02001+01901999999ADDGD14991+0024019GF108991999999999999999999GP10060000002000000002000000002000GR100600000900009MA1100681999999MW1001REMMET058KSFZ 220755Z AUTO 25005KT 10SM OVC008 20/19 A2973 RMK AO1;EQDQ01+000000PRSWM2
0184725054999992000062305003+41920-071500FM-15+0134KSFZ V0209999C000012200019N0160931N1+01801+01801999999ADDGF100991999999999999999999GP10060000002000000002000000002000GR100600000900009MA1100681999999MW1001REMMET055KSFZ 230455Z AUTO 00000KT 10SM CLR 18/18 A2973 RMK AO1;EQDQ01+000000PRSWM2
0232725054999992000062521003+41920-071500FM-15+0134KSFZ V0201801N003112200019N0160931N1+02701+01901999999ADDGF100991999999999999999999GP10060059002008063402015017502008GQ100600492926589GR100600863913229MA1101491999999MD1710101+9999MW1001OC100721REMMET064KSFZ 252055Z AUTO 18006G14KT 10SM CLR 27/19 A2997 RMK AO1 57010;EQDQ01+000000PRSWM2
0204725054999992000070809003+41920-071500FM-15+0134KSFZ V0203201N003112200019N0160931N1+01101+00801999999ADDGF100991999999999999999999GP10060000002000000002000000002000GR100600000900009MA1101631999999MD1210071+9999MW1001REMMET061KSFZ 080855Z AUTO 32006KT 10SM CLR 11/08 A3001 RMK AO1 52007;EQDQ01+000000PRSWM2
0204725054999992000071303003+41920-071500FM-15+0134KSFZ V0209999C000012200019N0160931N1+01501+01201999999ADDGF100991999999999999999999GP10060000002000000002000000002000GR100600000900009MA1101521999999MD1210071+9999MW1001REMMET061KSFZ 130255Z AUTO 00000KT 10SM CLR 15/12 A2998 RMK AO1 52007;EQDQ01+000000PRSWM2
0184725054999992000071305003+41920-071500FM-15+0134KSFZ V0209999C000012200019N0160931N1+01401+01201999999ADDGF100991999999999999999999GP10060000002000000002000000002000GR100600000900009MA1101591999999MW1001REMMET055KSFZ 130455Z AUTO 00000KT 10SM CLR 14/12 A3000 RMK AO1;EQDQ01+000000PRSWM2
0219725054999992000071714003+41920-071500FM-15+0134KSFZ V0209999C000010012019N0160931N1+01701+01601999999ADDGD14991+0012019GF108991999999999999999999GP10060025002008001202015024202008GQ100600470910029GR100600900913229MA1101521999999MW1001REMMET058KSFZ 171355Z AUTO 00000KT 10SM OVC004 17/16 A2998 RMK AO1;EQDQ01+000000PRSWM2
0201725054999992000071919003+41920-071500FM-15+0134KSFZ V0202401N001512200019N0160931N1+01801+01401999999ADDGF100991999999999999999999GP10060015802008000002015015802008GQ100600297923129GR100601148913239MA1101421999999MW1001REMMET055KSFZ 191855Z AUTO 24003KT 10SM CLR 18/14 A2995 RMK AO1;EQDQ01+000000PRSWM2
0201725054999992000072314003+41920-071500FM-15+0134KSFZ V0203401N003112200019N0160931N1+02101+01301999999ADDGF100991999999999999999999GP10060048902008027402015030502008GQ100600478910149GR100600888913249MA1101961999999MW1001REMMET055KSFZ 231355Z AUTO 34006KT 10SM CLR 21/13 A3011 RMK AO1;EQDQ01+000000PRSWM2
0201725054999992000072420003+41920-071500FM-15+0134KSFZ V0201301N003112200019N0160931N1+02401+01401999999ADDGF100991999999999999999999GP10060025302008001802015023902008GQ100600400924839GR100601013913249MA1102101999999MW1001REMMET055KSFZ 241955Z AUTO 13006KT 10SM CLR 24/14 A3015 RMK AO1;EQDQ01+000000PRSWM2
0241725054999992000072823003+41920-071500FM-15+0134KSFZ V0201201N002110087019N0160931N1+02001+01801999999ADDGD12991+0048019GD23991+0087019GF107991999999999999999999GP10060009702008000602015009602008GQ100600735928069GR100600377913259MA1101731999999MW1001REMMET065KSFZ 282255Z AUTO 12004KT 10SM FEW016 BKN029 20/18 A3004 RMK AO1;EQDQ01+000000PRSWM2
0241725054999992000072906003+41920-071500FM-15+0134KSFZ V0209999C000012200019N0016091N1+01401+01401999999ADDGF100991999999999999999999GP10060000002000000002000000002000GR100600000900009KA1999M+01901KA2999N+01401MA1101801999999MD1710031+9999MW1001REMMET072KSFZ 290555Z AUTO 00000KT 1SM CLR 14/14 A3006 RMK AO1 10190 20140 57003;EQDQ01+000000PRSWM2
0222725054999992000080117003+41920-071500FM-15+0134KSFZ V0200401N004110006019N0040231N1+01901+01901999999ADDGD14991+0006019GF108991999999999999999999GP10060015702008000002015015702008GQ100600248916749GR100601204913269MA1101861999999MW1001REMMET061KSFZ 011655Z AUTO 04008KT 2 1/2SM OVC002 19/19 A3008 RMK AO1;EQDQ01+000000PRSWM2
0203725054999992000080207003+41920-071500FM-15+0134KSFZ V0209999C000010003019N0012071N1+01801+01801999999ADDGD14991+0003019GF108991999999999999999999GP10060000002000000002000000002000GR100600000900009MA1101691999999MW1001REMMET059KSFZ 020655Z AUTO 00000KT 3/4SM OVC001 18/18 A3003 RMK AO1;EQDQ01+000000PRSWM2
0201725054999992000080304003+41920-071500FM-15+0134KSFZ V0202201N001512200019N0112651N1+02201+02201999999ADDGD12991+0018019GF104991999999999999999999GP10060000002000000002000000002000GR100600000900009MA1101521999999MW1001REMMET057KSFZ 030355Z AUTO 22003KT 7SM SCT006 22/22 A2998 RMK AO1;EQDQ01+000000PRSWM2
0221725054999992000080921003+41920-071500FM-15+0134KSFZ V0202301N002112200019N0160931N1+02701+02201999999ADDGF100991999999999999999999GP10060047202008042502015022002008GQ100600536925759GR100600789913309MA1100981999999MD1710071+9999MW1001REMMET061KSFZ 092055Z AUTO 23004KT 10SM CLR 27/22 A2982 RMK AO1 57007;EQDQ01+000000PRSWM2
0153725054999992000081004003+41920-071500FM-15+0134KSFZ V0201901N001512200019N9999999N1+02201+02201999999ADDGP10060000002000000002000000002000GR100600000900009MA1100911999999MW1001REMMET050KSFZ 100355Z AUTO 19003KT CLR 22/22 A2980 RMK AO1;EQDQ01+000000PRSWM2
0221725054999992000081021003+41920-071500FM-15+0134KSFZ V0203001N003612200019N0160931N1+02701+01801999999ADDGF100991999999999999999999GP10060051702008066702015012202008GQ100600538925739GR100600785913309MA1101191999999MD1410001+9999MW1001REMMET061KSFZ 102055Z AUTO 30007KT 10SM CLR 27/18 A2988 RMK AO1 54000;EQDQ01+000000PRSWM2
0201725054999992000081023003+41920-071500FM-15+0134KSFZ V0209999C000012200019N0160931N1+02501+01901999999ADDGF100991999999999999999999GP10060016302008039902015006602008GQ100600759927819GR100600323913309MA1101291999999MW1001REMMET055KSFZ 102255Z AUTO 00000KT 10SM CLR 25/19 A2991 RMK AO1;EQDQ01+000000PRSWM2
0204725054999992000082009003+41920-071500FM-15+0134KSFZ V0202901N002612200019N0160931N1+01201+00901999999ADDGF100991999999999999999999GP10060000002000000002000000002000GR100600000900009MA1101831999999MD1210031+9999MW1001REMMET061KSFZ 200855Z AUTO 29005KT 10SM CLR 12/09 A3007 RMK AO1 52003;EQDQ01+000000PRSWM2
0201725054999992000082111003+41920-071500FM-15+0134KSFZ V0203101N002112200019N0160931N1+01101+00801999999ADDGF100991999999999999999999GP10060000002008000002015000002008GQ100600851907819GR100600109912809MA1102401999999MW1001REMMET055KSFZ 211055Z AUTO 31004KT 10SM CLR 11/08 A3024 RMK AO1;EQDQ01+000000PRSWM2
0201725054999992000082213003+41920-071500FM-15+0134KSFZ V0203301N001512200019N0160931N1+01801+01201999999ADDGF100991999999999999999999GP10060035102008039802015017402008GQ100600635909849GR100600595913369MA1102641999999MW1001REMMET055KSFZ 221255Z AUTO 33003KT 10SM CLR 18/12 A3031 RMK AO1;EQDQ01+000000PRSWM2
0184725054999992000091201003+41920-071500FM-15+0134KSFZ V0209999C000012200019N0160931N1+01601+01501999999ADDGF100991999999999999999999GP10060000002000000002000000002000GR100600000900009MA1102101999999MW1001REMMET055KSFZ 120055Z AUTO 00000KT 10SM CLR 16/15 A3015 RMK AO1;EQDQ01+000000PRSWM2
0201725054999992000091223003+41920-071500FM-15+0134KSFZ V0202101N002612200019N0160931N1+02201+01801999999ADDGF100991999999999999999999GP10060003802008018002015002202008GQ100600849927079GR100600117913169MA1101351999999MW1001REMMET055KSFZ 122255Z AUTO 21005KT 10SM CLR 22/18 A2993 RMK AO1;EQDQ01+000000PRSWM2
0202725054999992000091302003+41920-071500FM-15+0134KSFZ V0202201N003112200019N0160931N1+02101+01901999999ADDGD12991+0030019GF102991999999999999999999GP10060000002000000002000000002000GR100600000900009MA1101351999999MW1001REMMET058KSFZ 130155Z AUTO 22006KT 10SM FEW010 21/19 A2993 RMK AO1;EQDQ01+000000PRSWM2
0151725054999992000091422154+41920-071500FM-15+0134KSFZ V0201801N001512200019N0160931N1+01901+01201999999ADDGD12991+0147019GF102991999999999999999999MA1101351999999MW1001REMMET058KSFZ 142215Z AUTO 18003KT 10SM FEW049 19/12 A2993 RMK AO1;EQDQ01+000000PRSWM2
0201725054999992000091816003+41920-071500FM-15+0134KSFZ V0202701N002112200019N0160931N1+02201+01301999999ADDGF100991999999999999999999GP10060068502008070002015017502008GQ100600434915429GR100600983913549MA1101901999999MW1001REMMET055KSFZ 181555Z AUTO 27004KT 10SM CLR 22/13 A3009 RMK AO1;EQDQ01+000000PRSWM2
0271725054999992000092002003+41920-071500FM-15+0134KSFZ V0200801N002610003019N0112651N1+01801+01801999999ADDAA101007491GD14991+0003019GF108991999999999999999999GP10060000002000000002000000002000GR100600000900009MA1101021999999MW1171REMMET100KSFZ 200155Z AUTO 08005KT 7SM VCTS OVC001 18/18 A2983 RMK AO1 LTG DSNT NE AND SE AND NW TSB04 P0029;EQDQ01+000003PRSWM1Q02    003PRSWM1
0221725054999992000101221003+41920-071500FM-15+0134KSFZ V0202601N002112200019N0160931N1+01801+00601999999ADDGF100991999999999999999999GP10060022802008053302015007602008GQ100600734924289GR100600391913739MA1102071999999MD1710101+9999MW1001REMMET061KSFZ 122055Z AUTO 26004KT 10SM CLR 18/06 A3014 RMK AO1 57010;EQDQ01+000000PRSWM2
