0209061200999992000092203004+55460+010330FM-12+0017EKOD V0200901N004619999999N0110001N1+00981+00901102521ADDAA199000091AW1001AZ101031MA1999999102261MD1710011+9999REMSYN124AAXX  22034 06120 35/61 /0909 10098 20090 30226 40252 57001 70000 555 61168 62990 63990 64068 71118 72150 73132 74118 75437;EQDQ01  00002PRCP99
0118061200999992000092721004+55460+010330FM-12+0017EKOD V0202001N003119999999N0004001N1+01221+01131101271ADDAA199000021MA1999999101021MD1710061+9999REMSYN066AAXX  27214 06120 3//04 /2006 10122 20113 30102 40127 57006 73431;
0120061200999992000093007504+55460+010330FM-15+0017EKOD V0201101N007212200019N0080001N1+01501+01501999999ADDGF100991999999999999999999MA1100911999999MW1001REMMET042EKOD 300750Z 11014KT 8000 SKC 15/15 Q1009;EQDQ01+000000PRSWM2
0120061200999992000093016204+55460+010330FM-15+0017EKOD V0201201N007212200019N0080001N1+01601+01401999999ADDGF100991999999999999999999MA1100911999999MW1001REMMET042EKOD 301620Z 12014KT 8000 SKC 16/14 Q1009;EQDQ01+000000PRSWM2
0147061200999992000100108504+55460+010330FM-15+0017EKOD V0201101N004112200019N0050001N1+01501+01401999999ADDGA1021+002709999GF104991999999999999999999MA1100611999999MW1001REMMET053EKOD 010850Z 11008KT 080V140 5000 SCT009 15/14 Q1006;EQDQ01+000000PRSWM2
0170061200999992000100609504+55460+010330FM-15+0017EKOD V0202101N005112200019N0112651N1+01401+01101999999ADDGA1021+004509999GA2021+030009999GF104991999999999999999999MA1101391999999MW1001REMMET060EKOD 060950Z 21010KT 180V240 9999 FEW015 SCT100 14/11 Q1014;EQDQ01+000000PRSWM2
0139061200999992000100806504+55460+010330FM-15+0017EKOD V0201801N002110270019N0080001N1+00901+00801999999ADDGA1071+027009999GF107991999999999999999999MA1101901999999MW1001REMMET045EKOD 080650Z 18004KT 8000 BKN090 09/08 Q1019;EQDQ01+000000PRSWM2
0099061200999992000100810504+55460+010330FM-15+0017EKOD V0201701N00311220001CN0099001N1+01101+00901999999ADDMA1101801999999MW1001REMMET047EKOD 081050Z 17006KT 150V220 CAVOK 11/09 Q1018;EQDQ01+000000PRSWM2
0271061200999992000101306004+55460+010330FM-12+0017EKOD V0201301N003110450019N0050001N1+00901+00831100921ADDAA199000091AY121061GA1081+045009019GF108991081001999999011999IA1099IA2999+01049KA1120M+01081KA2120N+00611MA1999999100661MD1110101+9999MW1101REMSYN100333X  13064 06120 31950 81306 10090 20083 30066 40092 51010 7102/ 8801/ 333 10108 20061 31004 88465;EQDQ01  00002PRCP99
0162061200999992000102016504+55460+010330FM-15+0017EKOD V0201401N004610033019N0060001N1+01101+01001999999ADDGA1021+002109999GA2071+003309999GF107991999999999999999999MA1102401999999MW1001REMMET052EKOD 201650Z 14009KT 6000 SCT007 BKN011 11/10 Q1024;EQDQ01+000000PRSWM2
0162061200999992000102113504+55460+010330FM-15+0017EKOD V0201801N005710360019N0070001N1+01301+01001999999ADDGA1021+004809999GA2071+036009999GF107991999999999999999999MA1102101999999MW1001REMMET052EKOD 211350Z 18011KT 7000 FEW016 BKN120 13/10 Q1021;EQDQ01+000000PRSWM2
0176061200999992000102700004+55460+010330FM-12+0017EKOD V0202501N004119999999N0140001N1+00831+00771100531ADDAA199000021MA1999999100271MD1210121+9999REMSYN124AAXX  27004 06120 3//64 /2508 10083 20077 30027 40053 52012 70085 555 61082 62990 63990 64054 71144 72171 73155 74092 75500;
0170061200999992000103007504+55460+010330FM-15+0017EKOD V0202001N012910060019N0112651N1+01201+01001999999ADDGA1071+006009999GF107991999999999999999999MA1098711999999MW1611OC102011REMMET052EKOD 300750Z 20025G39KT 9999 -RA BKN020 12/10 Q0987;EQDQ01+000003PRSWM1Q02    003PRSWM1
0139061200999992000103113504+55460+010330FM-15+0017EKOD V0202001N011310099019N0112651N1+01001+00601999999ADDGA1071+009909999GF107991999999999999999999MA1098821999999MW1001REMMET045EKOD 311350Z 20022KT 9999 BKN033 10/06 Q0988;EQDQ01+000000PRSWM2
0147061200999992000111312204+55460+010330FM-15+0017EKOD V0202201N005112200019N0112651N1+01001+00701999999ADDGA1021+005109999GF104991999999999999999999MA1099901999999MW1001REMMET053EKOD 131220Z 22010KT 180V240 9999 SCT017 10/07 Q0999;EQDQ01+000000PRSWM2
0139061200999992000112310504+55460+010330FM-15+0017EKOD V0201601N004112200019N0080001N1+00701+00601999999ADDGA1021+021009999GF104991999999999999999999MA1100911999999MW1001REMMET045EKOD 231050Z 16008KT 8000 SCT070 07/06 Q1009;EQDQ01+000000PRSWM2
0137061200999992000112603004+55460+010330FM-12+0017EKOD V0201401N006719999999N0050001N1+00441+00371100021ADDAA199000091MA1999999099761MD1710251+9999REMSYN066AAXX  26034 06120 3//50 /1413 10044 20037 39976 40002 57025 71011;EQDQ01  00002PRCP99
0242061200999992000121218004+55460+010330FM-12+0017EKOD V0202201N005710012019N0120001N1+01101+01041100821ADDAA112000191AY151061AY221061GA1071+001209069GF107991071071001501999999KA1120M+01151KA2120N+00991MA1999999100571MD1710261+9999MW1021REMSYN100AAXX  12184 06120 11262 72211 10110 20104 30057 40082 57026 69922 70252 877// 333 10115 20099 87704;
0189061200999992000121815004+55460+010330FM-12+0017EKOD V0202401N002110030019N0140001N1+00421+00371101861ADDAA199000091GA1051+003009069GF105991051061004501031001MA1999999101601MD1210091+9999REMSYN076AAXX  18154 06120 32464 52404 10042 20037 30160 40186 52009 85630 333 85710;EQDQ01  00002PRCP99
0182061200999992000121915004+55460+010330FM-12+0017EKOD V0200701N00411004201CN0120001N1+00321+00271102881ADDAA103000191GA1041+004209069GF107991071051004501999999MA1999999102611MD1210161+9999REMSYN088AAXX  19154 06120 22462 70708 10032 20027 30261 40288 52016 875// 333 69917 84614 86620;
0189061200999992000122012004+55460+010330FM-12+0017EKOD V0201301N006212200019N0300001N1+00371+00141103121ADDAA199000091GA1011+006009029GF101991011011008001001011MA1999999102851MD1710071+9999REMSYN076AAXX  20124 06120 32580 11312 10037 20014 30285 40312 57007 81101 333 81820;EQDQ01  00002PRCP99
0197061200999992000122106004+55460+010330FM-12+0017EKOD V0201301N004119999999N0060001N1-00061-00121103171ADDAA199000091IA2999-00309KA1120M+00111KA2120N-00111MA1999999102901MD1410001+9999REMSYN088AAXX  21064 06120 3//56 /1308 11006 21012 30290 40317 54000 71011 333 10011 21011 3/103;EQDQ01  00002PRCP99
0107061240999992000022404004+55020+010570FM-12+0006EKST V0201601N003619999999N0034001N1+00211+00101101631ADDMA1999999101541MD1710381+9999REMSYN066AAXX  24044 06124 4//34 /1607 10021 20010 30154 40163 57038 76265;
0143061240999992000022810004+55020+010570FM-12+0006EKST V0202201N005710003019N0160001N1+00911+00491100201ADDGF108991081061000251999999MA1999999100111MD1710101+9999REMSYN076AAXX  28104 06124 42066 82211 10091 20049 30011 40020 57010 886// 333 91122;
0101061240999992000030216004+55020+010570FM-12+0006EKST V0202201N005119999999N0240001N1+00391+00011100911ADDMA1999999100811MD1710221+9999REMSYN060AAXX  02164 06124 45/74 /2210 10039 20001 30081 40091 57022;
0101061240999992000030514004+55020+010570FM-12+0006EKST V0203001N010319999999N0200001N1+00351-00321102321ADDMA1999999102221MD1210031+9999REMSYN060AAXX  05144 06124 45/70 /3020 10035 21032 30222 40232 52003;
0107061240999992000030820004+55020+010570FM-12+0006EKST V0202801N008219999999N0080001N1+00621+00481100201ADDMA1999999100101MD1210041+9999REMSYN066AAXX  08204 06124 4//58 /2816 10062 20048 30010 40020 52004 71011;
0107061240999992000031310004+55020+010570FM-12+0006EKST V0202301N003619999999N0038001N1+00431+00351102091ADDMA1999999102001MD1710061+9999REMSYN066AAXX  13104 06124 4//38 /2307 10043 20035 30200 40209 57006 71011;
0101061240999992000031607004+55020+010570FM-12+0006EKST V0203201N005719999999N0250001N1+00251+00071102141ADDMA1999999102041MD1210311+9999REMSYN060AAXX  16074 06124 45/75 /3211 10025 20007 30204 40214 52031;
0101061240999992000031801004+55020+010570FM-12+0006EKST V0209999C000019999999N0090001N1+00261+00161102441ADDMA1999999102351MD1710011+9999REMSYN060AAXX  18014 06124 45/59 /0000 10026 20016 30235 40244 57001;
0101061240999992000031912004+55020+010570FM-12+0006EKST V0202701N007219999999N0090001N1+00531+00351103211ADDMA1999999103121MD1710011+9999REMSYN060AAXX  19124 06124 45/59 /2714 10053 20035 30312 40321 57001;
0087061240999992000032808004+55020+010570FM-12+0006EKST V0200401N008719999999N0060001N1+00091+00001101821ADDMA1999999101731REMSYN060AAXX  28084 06124 4//56 /0417 10009 20000 30173 40182 77177;
0101061240999992000032919004+55020+010570FM-12+0006EKST V0200701N005719999999N0130001N1+00501+00241102121ADDMA1999999102031MD1410001+9999REMSYN060AAXX  29194 06124 45/63 /0711 10050 20024 30203 40212 54000;
0161061240999992000033009004+55020+010570FM-12+0006EKST V0200601N004610003019N0060001N1+00471+00361101511ADDAY121031AY221031GF108991081061000251999999MA1999999101421MD1710121+9999MW1101REMSYN072AAXX  30094 06124 41056 80609 10047 20036 30142 40151 57012 71022 886//;
0107061240999992000040211004+55020+010570FM-12+0006EKST V0201401N004619999999N0044001N1+00591+00441100571ADDMA1999999100481MD1210031+9999REMSYN066AAXX  02114 06124 4//44 /1409 10059 20044 30048 40057 52003 71011;
0101061240999992000041117004+55020+010570FM-12+0006EKST V0200901N006719999999N0110001N1+00711+00391099771ADDMA1999999099681MD1710101+9999REMSYN060AAXX  11174 06124 45/61 /0913 10071 20039 39968 49977 57010;
0112061240999992000041215004+55020+010570FM-12+0006EKST V02099999999990003019N0080001N1+99999+99999999999ADDAY121031AY221031GF108991081061000251999999MW1101REMSYN052AAXX  12154 06124 41058 8//// 71022 886// 333 91214;
0107061240999992000041720004+55020+010570FM-12+0006EKST V0203301N000519999999N0012001N1+00691+00611100451ADDMA1999999100361MD1210151+9999REMSYN066AAXX  17204 06124 4//12 /3301 10069 20061 30036 40045 52015 71011;
0143061240999992000050406004+55020+010570FM-12+0006EKST V0200701N002119999999N0090001N1+01351+01081102081ADDKA1120M+01641KA2999N+00741MA1999999101991MD1210041+9999REMSYN076AAXX  04064 06124 45/59 /0704 10135 20108 30199 40208 52004 333 10164 20074;
0081061240999992000050710004+55020+010570FM-12+0006EKST V0200701N007719999999N0170001N1+01341+00721102361ADDMA1999999102271REMSYN054AAXX  07104 06124 45/67 /0715 10134 20072 30227 40236;
0101061240999992000051512004+55020+010570FM-12+0006EKST V0201901N003119999999N0050001N1+02391+00971102091ADDMA1999999102011MD1710131+9999REMSYN060AAXX  15124 06124 45/50 /1906 10239 20097 30201 40209 57013;
0101061240999992000051820004+55020+010570FM-12+0006EKST V0202301N004119999999N0500001N1+01101+00681100431ADDMA1999999100341MD1210041+9999REMSYN060AAXX  18204 06124 46/84 /2308 10110 20068 30034 40043 52004;
0101061240999992000051904004+55020+010570FM-12+0006EKST V0202301N003619999999N0270001N1+00981+00601100461ADDMA1999999100371MD1210011+9999REMSYN060AAXX  19044 06124 45/77 /2307 10098 20060 30037 40046 52001;
0149061240999992000051918004+55020+010570FM-12+0006EKST V0201501N001519999999N0170001N1+01151+00771100481ADDKA1120M+01561KA2999N+01151MA1999999100391MD1210011+9999REMSYN082AAXX  19184 06124 4//67 /1503 10115 20077 30039 40048 52001 70060 333 10156 20115;
0101061240999992000051922004+55020+010570FM-12+0006EKST V0202001N001019999999N9999999N1+00991+00891100541ADDMA1999999100451MD1210061+9999REMSYN060AAXX  19224 06124 46/// /2002 10099 20089 30045 40054 52006;
0101061240999992000052305004+55020+010570FM-12+0006EKST V0202401N004619999999N0210001N1+01231+00921101781ADDMA1999999101691MD1210061+9999REMSYN060AAXX  23054 06124 45/71 /2409 10123 20092 30169 40178 52006;
0101061240999992000052400004+55020+010570FM-12+0006EKST V0201801N003619999999N9999999N1+01271+01171101221ADDMA1999999101131MD1710151+9999REMSYN060AAXX  24004 06124 46/// /1807 10127 20117 30113 40122 57015;
0155061240999992000052606004+55020+010570FM-12+0006EKST V0202501N007219999999N0160001N1+01061+00801101381ADDKA1120M+01101KA2120N+00951MA1999999101281MD1210211+9999REMSYN088AAXX  26064 06124 4//66 /2514 10106 20080 30128 40138 52021 72360 333 10110 20095 91127;
0087061240999992000060222004+55020+010570FM-12+0006EKST V0202701N005719999999N0070001N1+01211+01091101801ADDMA1999999101711REMSYN060AAXX  02224 06124 4//57 /2711 10121 20109 30171 40180 71011;
0089061240999992000061718004+55190+010570FM-12+0006EKST V02099999999999999999N9999999N1+99999+99999102841ADDMA1999999102741MD1710051+9999REMSYN048AAXX  17184 06124 46/// ///// 30274 40284 57005;
0101061240999992000062423004+55190+010570FM-12+0006EKST V0202401N003119999999N0350001N1+01291+01171100751ADDMA1999999100661MD1710041+9999REMSYN060AAXX  24234 06124 45/81 /2406 10129 20117 30066 40075 57004;
0128061240999992000062713004+55190+010570FM-12+0006EKST V0202901N009319999999N0230001N1+01311+00591101441ADDMA1999999101351MD1410001+9999OA149901801REMSYN076AAXX  27134 06124 45/73 /2918 10131 20059 30135 40144 54000 333 91135 91029;
0134061240999992000063016004+55190+010570FM-12+0006EKST V0202701N010319999999N0140001N1+01281+00931100891ADDMA1999999100801MD1710041+9999OA149901541REMSYN082AAXX  30164 06124 4//64 /2720 10128 20093 30080 40089 57004 72360 333 91130 91030;
0143061240999992000070406004+55190+010570FM-12+0006EKST V0200701N002119999999N0280001N1+01631+01201100841ADDKA1120M+02021KA2999N+01041MA1999999100751MD1710051+9999REMSYN076AAXX  04064 06124 45/78 /0704 10163 20120 30075 40084 57005 333 10202 20104;
0101061240999992000070704004+55190+010570FM-12+0006EKST V0202901N007219999999N0350001N1+01171+00481101611ADDMA1999999101521MD1710071+9999REMSYN060AAXX  07044 06124 45/81 /2914 10117 20048 30152 40161 57007;
0101061240999992000070804004+55190+010570FM-12+0006EKST V0202801N005119999999N0270001N1+01031+00791101041ADDMA1999999100951MD1710081+9999REMSYN060AAXX  08044 06124 45/77 /2810 10103 20079 30095 40104 57008;
0111061240999992000071220004+55190+010570FM-12+0006EKST V0202701N009819999999N0180001N1+01291+00921100811ADDMA1999999100721MD1210131+9999REMSYN070AAXX  12204 06124 45/68 /2719 10129 20092 30072 40081 52013 333 91129;
0107061240999992000071321004+55190+010570FM-12+0006EKST V0202301N003619999999N0080001N1+01401+01241100291ADDMA1999999100201MD1710121+9999REMSYN066AAXX  13214 06124 4//58 /2307 10140 20124 30020 40029 57012 76160;
0101061240999992000071507004+55190+010570FM-12+0006EKST V0203101N002119999999N0170001N1+01421+01071100391ADDMA1999999100301MD1210091+9999REMSYN060AAXX  15074 06124 45/67 /3104 10142 20107 30030 40039 52009;
0149061240999992000071918004+55010+010570FM-12+0006EKST V0202901N009819999999N0150001N1+01431+00991100971ADDKA1120M+01601KA2120N+01221MA1999999100891MD1210061+9999REMSYN082AAXX  19184 06124 45/65 /2919 10143 20099 30089 40097 52006 333 10160 20122 91129;
0172061240999992000072818004+55010+010570FM-12+0006EKST V0202401N001519999999N0130001N1+01731+01421101061ADDKA1120M+01911KA2120N+01491MA1999999100971MD1210011+9999OA149905101REMSYN094AAXX  28184 06124 4//63 /2403 10173 20142 30097 40106 52001 70060 333 10191 20149 91199 00111;
0101061240999992000072819004+55010+010570FM-12+0006EKST V0200201N001019999999N0290001N1+01681+01381101081ADDMA1999999100991MD1210031+9999REMSYN060AAXX  28194 06124 45/79 /0202 10168 20138 30099 40108 52003;
0107061240999992000080305004+55010+010570FM-12+0006EKST V0202001N001519999999N0029001N1+01451+01331101411ADDMA1999999101321MD1710031+9999REMSYN066AAXX  03054 06124 4//29 /2003 10145 20133 30132 40141 57003 72266;
0101061240999992000080505004+55010+010570FM-12+0006EKST V0203101N002119999999N0200001N1+01381+01231102171ADDMA1999999102081MD1210071+9999REMSYN060AAXX  05054 06124 45/70 /3104 10138 20123 30208 40217 52007;
0101061240999992000081616004+55010+010570FM-12+0006EKST V0202301N005719999999N0190001N1+01931+01411101201ADDMA1999999101111MD1710041+9999REMSYN060AAXX  16164 06124 45/69 /2311 10193 20141 30111 40120 57004;
0107061240999992000081707004+55010+010570FM-12+0006EKST V0201901N003119999999N0160001N1+01701+01391101061ADDMA1999999100971MD1710051+9999REMSYN066AAXX  17074 06124 4//66 /1906 10170 20139 30097 40106 57005 70011;
0101061240999992000091100004+55010+010570FM-12+0006EKST V0203301N002619999999N0070001N1+01191+01081102101ADDMA1999999102011MD1410001+9999REMSYN060AAXX  11004 06124 45/57 /3305 10119 20108 30201 40210 54000;
0081061240999992000100611004+55010+010570FM-12+0006EKST V0202101N003619999999N0190001N1+01511+00971101581ADDMA1999999101491REMSYN054AAXX  06114 06124 45/69 /2107 10151 20097 30149 40158;
0172061240999992000103018004+55010+010570FM-12+0006EKST V0202301N011819999999N0130001N1+00861+00581098241ADDKA1120M+01241KA2120N+00861MA1999999098151MD1210111+9999OA149902061REMSYN094AAXX  30184 06124 4//63 /2323 10086 20058 39815 49824 52011 76160 333 10124 20086 91140 91039;
0101061240999992000110914004+55010+010570FM-12+0006EKST V0201801N005119999999N0130001N1+00861+00711100091ADDMA1999999100001MD1210121+9999REMSYN060AAXX  09144 06124 45/63 /1810 10086 20071 30000 40009 52012;
0117061240999992000111012004+55010+010570FM-12+0006EKST V0202101N004619999999N0130001N1+00871+00711100841ADDMA1999999100741MD1210061+9999REMSYN076AAXX  10124 06124 4//63 /2109 10087 20071 30074 40084 52006 72365 333 91120;
0107061240999992000111105004+55010+010570FM-12+0006EKST V0202201N005719999999N0070001N1+00711+00581101421ADDMA1999999101331MD1210061+9999REMSYN066AAXX  11054 06124 4//57 /2211 10071 20058 30133 40142 52006 71010;
0107061240999992000111112004+55010+010570FM-12+0006EKST V0202001N004119999999N0044001N1+00641+00551101421ADDMA1999999101331MD1710091+9999REMSYN066AAXX  11124 06124 4//44 /2008 10064 20055 30133 40142 57009 76165;
0107061240999992000111308004+55010+010570FM-12+0006EKST V0202101N003619999999N0080001N1+00851+00751099781ADDMA1999999099691MD1210141+9999REMSYN066AAXX  13084 06124 4//58 /2107 10085 20075 39969 49978 52014 71010;
0107061240999992000112305004+55010+010570FM-12+0006EKST V0202001N003119999999N0060001N1+00531+00421100811ADDMA1999999100721MD1210101+9999REMSYN066AAXX  23054 06124 4//56 /2006 10053 20042 30072 40081 52010 71011;
0107061240999992000112822004+55010+010570FM-12+0006EKST V0202201N004119999999N0018001N1+00921+00831100841ADDMA1999999100751MD1210011+9999REMSYN066AAXX  28224 06124 4//18 /2208 10092 20083 30075 40084 52001 72364;
0107061240999992000120600004+55010+010570FM-12+0006EKST V0201301N005119999999N0050001N1+00651+00551101321ADDMA1999999101231MD1710141+9999REMSYN066AAXX  06004 06124 4//50 /1310 10065 20055 30123 40132 57014 71011;
0117061240999992000121121004+55010+010570FM-12+0006EKST V0202301N006219999999N0100001N1+00911+00801101111ADDMA1999999101021MD1210041+9999REMSYN076AAXX  11214 06124 4//60 /2312 10091 20080 30102 40111 52004 72361 333 91125;
0101061240999992000122020004+55010+010570FM-12+0006EKST V0201201N005719999999N0110001N1+00051-00111103131ADDMA1999999103031MD1410001+9999REMSYN060AAXX  20204 06124 45/61 /1211 10005 21011 30303 40313 54000;
0105061420999992000011600004+54830+010970FM-12+000699999V0202501N003119999999N9999999N1+00361+00351102981ADDMA1999999102941MD1710101+9999REMSYN064    AAXX  16004 06142 46/// /2506 10036 20035 30294 40298 57010;
0101061420999992000012215004+54830+010970FM-12+000699999V0201001N007719999999N9999999N1-00061-00221100901ADDMA1999999100861MD1210171+9999REMSYN060AAXX  22154 06142 46/// /1015 11006 21022 30086 40090 52017;
0155061420999992000020418004+54830+010970FM-12+000699999V0202601N012319999999N9999999N1+00591+00591101601ADDKA1120M+00611KA2120N+00411MA1999999101561MD1710061+9999REMSYN088AAXX  04184 06142 46/// /2624 10059 20059 30156 40160 57006 333 10061 20041 90000 90000;
0111061420999992000021321004+54830+010970FM-12+000699999V0202901N010819999999N9999999N1+00361+00301101141ADDMA1999999101101MD1210201+9999REMSYN070AAXX  13214 06142 46/// /2921 10036 20030 30110 40114 52020 333 90000;
0111061420999992000021403004+54830+010970FM-12+000699999V0202901N011319999999N9999999N1+00301+00211101321ADDMA1999999101281MD1210071+9999REMSYN070AAXX  14034 06142 46/// /2922 10030 20021 30128 40132 52007 333 91131;
0101061420999992000030123004+54830+010970FM-12+000699999V0203001N012919999999N9999999N1+00411+00171100171ADDMA1999999100131MD1210351+9999REMSYN060AAXX  01234 06142 46/// /3025 10041 20017 30013 40017 52035;
0101061420999992000031304004+54830+010970FM-12+000699999V0202301N005719999999N9999999N1+00261+00261102251ADDMA1999999102211MD1710031+9999REMSYN060AAXX  13044 06142 46/// /2311 10026 20026 30221 40225 57003;
0143061420999992000032818004+54830+010970FM-12+000699999V0200701N007219999999N9999999N1+00431+00271102171ADDKA1120M+00501KA2999N+00191MA1999999102131MD1210191+9999REMSYN076AAXX  28184 06142 46/// /0714 10043 20027 30213 40217 52019 333 10050 20019;
0101061420999992000032901004+54830+010970FM-12+000699999V0200501N007719999999N9999999N1+00261+00021102261ADDMA1999999102221MD1710031+9999REMSYN060AAXX  29014 06142 46/// /0515 10026 20002 30222 40226 57003;
0101061420999992000040217004+54830+010970FM-12+000699999V0201401N004119999999N9999999N1+00731+00571100461ADDMA1999999100421MD1710051+9999REMSYN060AAXX  02174 06142 46/// /1408 10073 20057 30042 40046 57005;
0143061420999992000040606004+54830+010970FM-12+000699999V0203201N006219999999N9999999N1+00311+00241102421ADDKA1120M+00471KA2999N+00211MA1999999102381MD1210231+9999REMSYN076AAXX  06064 06142 46/// /3212 10031 20024 30238 40242 52023 333 10047 20021;
0101061420999992000040902004+54830+010970FM-12+000699999V0201401N003619999999N9999999N1+00391+00381102191ADDMA1999999102151MD1710031+9999REMSYN060AAXX  09024 06142 46/// /1407 10039 20038 30215 40219 57003;
0101061420999992000041812004+54830+010970FM-12+000699999V0201701N005119999999N9999999N1+01101+00761101081ADDMA1999999101041MD1210071+9999REMSYN060AAXX  18124 06142 46/// /1710 10110 20076 30104 40108 52007;
0101061420999992000042420004+54830+010970FM-12+000699999V0203001N007719999999N9999999N1+00971+00961101111ADDMA1999999101071MD1210171+9999REMSYN060AAXX  24204 06142 46/// /3015 10097 20096 30107 40111 52017;
0101061420999992000042914004+54830+010970FM-12+000699999V0201101N007219999999N9999999N1+02271+01421101421ADDMA1999999101381MD1210011+9999REMSYN060AAXX  29144 06142 46/// /1114 10227 20142 30138 40142 52001;
0101061420999992000043007004+54830+010970FM-12+000699999V0203101N002119999999N9999999N1+01051+01041101971ADDMA1999999101931MD1210111+9999REMSYN060AAXX  30074 06142 46/// /3104 10105 20104 30193 40197 52011;
0149061420999992000050218004+54830+010970FM-12+000699999V0201001N006719999999N9999999N1+01271+00431102311ADDKA1120M+01831KA2120N+01051MA1999999102271MD1710051+9999REMSYN082AAXX  02184 06142 46/// /1013 10127 20043 30227 40231 57005 333 10183 20105 90000;
0101061420999992000050305004+54830+010970FM-12+000699999V0201301N005119999999N9999999N1+01031+00881102141ADDMA1999999102101MD1710031+9999REMSYN060AAXX  03054 06142 46/// /1310 10103 20088 30210 40214 57003;
0101061420999992000050519004+54830+010970FM-12+000699999V0201801N002119999999N9999999N1+01291+01091101901ADDMA1999999101861MD1710061+9999REMSYN060AAXX  05194 06142 46/// /1804 10129 20109 30186 40190 57006;
0143061420999992000050918004+54830+010970FM-12+000699999V0201001N004619999999N9999999N1+01751+00881101961ADDKA1120M+02271KA2999N+01371MA1999999101921MD1710021+9999REMSYN076AAXX  09184 06142 46/// /1009 10175 20088 30192 40196 57002 333 10227 20137;
0101061420999992000051001004+54830+010970FM-12+000699999V0200601N003619999999N9999999N1+01061+01031101881ADDMA1999999101841MD1710091+9999REMSYN060AAXX  10014 06142 46/// /0607 10106 20103 30184 40188 57009;
0101061420999992000051102004+54830+010970FM-12+000699999V0202801N003119999999N9999999N1+01371+01291101801ADDMA1999999101761MD1710061+9999REMSYN060AAXX  11024 06142 46/// /2806 10137 20129 30176 40180 57006;
0101061420999992000051317004+54830+010970FM-12+000699999V0202401N001019999999N9999999N1+01571+00361102551ADDMA1999999102511MD1710091+9999REMSYN060AAXX  13174 06142 46/// /2402 10157 20036 30251 40255 57009;
0101061420999992000052114004+54830+010970FM-12+000699999V0203001N001019999999N9999999N1+01491+01001100771ADDMA1999999100731MD1710071+9999REMSYN060AAXX  21144 06142 46/// /3002 10149 20100 30073 40077 57007;
0101061420999992000052923004+54830+010970FM-12+000699999V0202601N009319999999N9999999N1+01031+00851100981ADDMA1999999100941MD1210111+9999REMSYN060AAXX  29234 06142 46/// /2618 10103 20085 30094 40098 52011;
0101061420999992000053005004+54830+010970FM-12+000699999V0202701N008719999999N9999999N1+00981+00751101131ADDMA1999999101091MD1210121+9999REMSYN060AAXX  30054 06142 46/// /2717 10098 20075 30109 40113 52012;
0111061420999992000053015004+54830+010970FM-12+000699999V0202701N008219999999N9999999N1+01321+00711101211ADDMA1999999101171MD1710041+9999REMSYN070AAXX  30154 06142 46/// /2716 10132 20071 30117 40121 57004 333 91126;
0111061420999992000060917004+54830+010970FM-12+000699999V0201101N008719999999N9999999N1+01971+01201101531ADDMA1999999101491MD1710171+9999REMSYN070AAXX  09174 06142 46/// /1117 10197 20120 30149 40153 57017 333 90000;
0101061420999992000061012004+54830+010970FM-12+000699999V0201401N006219999999N9999999N1+02291+01711101281ADDMA1999999101241MD1710101+9999REMSYN060AAXX  10124 06142 46/// /1412 10229 20171 30124 40128 57010;
0101061420999992000061103004+54830+010970FM-12+000699999V0202901N009319999999N9999999N1+01421+01411101221ADDMA1999999101181MD1210161+9999REMSYN060AAXX  11034 06142 46/// /2918 10142 20141 30118 40122 52016;
0101061420999992000061115004+54830+010970FM-12+000699999V0202101N004119999999N9999999N1+01721+01311101481ADDMA1999999101441MD1710041+9999REMSYN060AAXX  11154 06142 46/// /2108 10172 20131 30144 40148 57004;
0101061420999992000061305004+54830+010970FM-12+000699999V0202001N008219999999N9999999N1+01591+01471102051ADDMA1999999102011MD1710131+9999REMSYN060AAXX  13054 06142 46/// /2016 10159 20147 30201 40205 57013;
0101061420999992000061505004+54820+010970FM-12+000699999V0203401N005119999999N9999999N1+01221+00881101721ADDMA1999999101681MD1210051+9999REMSYN060AAXX  15054 06142 46/// /3410 10122 20088 30168 40172 52005;
0101061420999992000061508004+54820+010970FM-12+000699999V0203201N004619999999N9999999N1+01391+00911101761ADDMA1999999101721MD1210041+9999REMSYN060AAXX  15084 06142 46/// /3209 10139 20091 30172 40176 52004;
0101061420999992000062313004+54820+010970FM-12+000699999V0202401N005719999999N9999999N1+01711+01381101111ADDMA1999999101071MD1710031+9999REMSYN060AAXX  23134 06142 46/// /2411 10171 20138 30107 40111 57003;
0101061420999992000062419004+54820+010970FM-12+000699999V0202201N003619999999N9999999N1+01501+01401100761ADDMA1999999100721MD1710011+9999REMSYN060AAXX  24194 06142 46/// /2207 10150 20140 30072 40076 57001;
0101061420999992000062723004+54820+010970FM-12+000699999V0202701N010319999999N9999999N1+01091+00981101281ADDMA1999999101241MD1710071+9999REMSYN060AAXX  27234 06142 46/// /2720 10109 20098 30124 40128 57007;
0101061420999992000062907004+54820+010970FM-12+000699999V0202801N004119999999N9999999N1+01161+01151101341ADDMA1999999101301MD1210061+9999REMSYN060AAXX  29074 06142 46/// /2808 10116 20115 30130 40134 52006;
0111061420999992000063007004+54820+010970FM-12+000699999V0202801N011319999999N9999999N1+01261+01061100981ADDMA1999999100941MD1710031+9999REMSYN070AAXX  30074 06142 46/// /2822 10126 20106 30094 40098 57003 333 90000;
0101061420999992000070507004+54820+010970FM-12+000699999V0203501N004619999999N9999999N1+01661+01541100551ADDMA1999999100511MD1210091+9999REMSYN060AAXX  05074 06142 46/// /3509 10166 20154 30051 40055 52009;
0101061420999992000070807004+54820+010970FM-12+000699999V0203101N006219999999N9999999N1+01351+00921100961ADDMA1999999100921MD1710021+9999REMSYN060AAXX  08074 06142 46/// /3112 10135 20092 30092 40096 57002;
0143061420999992000071118004+54820+010970FM-12+000699999V0201801N005719999999N9999999N1+01641+01461099561ADDKA1120M+01801KA2999N+01401MA1999999099521MD1210051+9999REMSYN076AAXX  11184 06142 46/// /1811 10164 20146 39952 49956 52005 333 10180 20140;
0101061420999992000071417004+54820+010970FM-12+000699999V0202901N006719999999N9999999N1+01651+01321100011ADDMA1999999099971MD1210041+9999REMSYN060AAXX  14174 06142 46/// /2913 10165 20132 39997 40001 52004;
0101061420999992000072401004+54820+010970FM-12+000699999V0202101N001019999999N9999999N1+01421+01401101141ADDMA1999999101101MD1710081+9999REMSYN060AAXX  24014 06142 46/// /2102 10142 20140 30110 40114 57008;
0101061420999992000080609004+54820+010970FM-12+000699999V0202301N006219999999N9999999N1+01671+01571101871ADDMA1999999101831MD1710031+9999REMSYN060AAXX  06094 06142 46/// /2312 10167 20157 30183 40187 57003;
0159061430999992000011312504+54700+011450FM-15+0005EKMB V0202001N003610024019N0050001N1+00001-00201999999ADDGA1071+002409999GF107991999999999999999999MA1101901999999MW1101REMMET049EKMB 131250Z 20007KT 5000 BR BKN008 00/M02 Q1019;EQDQ01+000003PRSWM1Q02    003PRSWM1
0171061430999992000021812504+54700+011450FM-15+0005EKMB V0201401N004610360019N0112651N1+00101+00001999999ADDGA1021+003609999GA2071+036009999GF107991999999999999999999MA1100311999999MW1001REMMET061EKMB 181250Z 14009KT 110V170 9999 SCT012 BKN120 01/M00 Q1003;EQDQ01+000000PRSWM2
0163061430999992000031514504+54700+011450FM-15+0005EKMB V0202901N010310600019N0112651N1+00401-00401999999ADDGA1021+009009999GA2081+060009999GF108991999999999999999999MA1101801999999MW1001REMMET053EKMB 151450Z 29020KT 9999 FEW030 OVC200 04/M04 Q1018;EQDQ01+000000PRSWM2
0158061430999992000032210504+54700+011450FM-15+0005EKMB V0202601N005110018019N0035001N1+00501+00301999999ADDGA1071+001809999GF107991999999999999999999MA1101591999999MW1101REMMET048EKMB 221050Z 26010KT 3500 BR BKN006 05/03 Q1016;EQDQ01+000003PRSWM1Q02    003PRSWM1
0139061430999992000042506504+54700+011450FM-15+0005EKMB V0202801N002610024019N0060001N1+00701+00601999999ADDGA1071+002409999GF107991999999999999999999MA1101491999999MW1001REMMET045EKMB 250650Z 28005KT 6000 BKN008 07/06 Q1015;EQDQ01+000000PRSWM2
0091061430999992000042806504+54700+011450FM-15+0005EKMB V0200901N00721220001CN0099001N1+01601+01101999999ADDMA1101191999999MW1001REMMET039EKMB 280650Z 09014KT CAVOK 16/11 Q1012;EQDQ01+000000PRSWM2
0091061430999992000043013504+54700+011450FM-15+0005EKMB V0202201N00261220001CN0099001N1+01701+01201999999ADDMA1102001999999MW1001REMMET039EKMB 301350Z 22005KT CAVOK 17/12 Q1020;EQDQ01+000000PRSWM2
0099061430999992000050310504+54700+011450FM-15+0005EKMB V0201201N00311220001CN0099001N1+01601+00301999999ADDMA1102201999999MW1001REMMET047EKMB 031050Z 12006KT 080V160 CAVOK 16/03 Q1022;EQDQ01+000000PRSWM2
0164061430999992000052108504+54700+011450FM-15+0005EKMB V0201301N002612200019N0112651N1+01301+00801999999ADDGA1021+006009099GA2021+007509999GF104991999999999999999999MA1100811999999MW1001REMMET054EKMB 210850Z 13005KT 9999 SCT020CB SCT025 13/08 Q1008;EQDQ01+000000PRSWM2
0181061430999992000052710504+54700+011450FM-15+0005EKMB V0202501N006710060019N0112651N1+01201+00901999999ADDGA1021+002409999GA2071+006009999GF107991999999999999999999MA1100611999999MW1001OC101231REMMET063EKMB 271050Z 25013G24KT 210V310 9999 SCT008 BKN020 12/09 Q1006;EQDQ01+000000PRSWM2
0170061430999992000052808504+54700+011450FM-15+0005EKMB V0201401N004610270019N0112651N1+01301+00801999999ADDGA1021+006009999GA2071+027009999GF107991999999999999999999MA1100611999999MW1001REMMET060EKMB 280850Z 14009KT 110V200 9999 FEW020 BKN090 13/08 Q1006;EQDQ01+000000PRSWM2
0149061430999992000053012504+54700+011450FM-15+0005EKMB V0202601N005712200019N0112651N1+01201+00501999999ADDGA1021+006009099GF102991999999999999999999MA1101291999999MW1001REMMET055EKMB 301250Z 26011KT 230V300 9999 FEW020CB 12/05 Q1013;EQDQ01+000000PRSWM2
0147061430999992000062108504+54690+011450FM-15+0005EKMB V0201701N003612200019N0112651N1+02601+01701999999ADDGA1021+012009999GF102991999999999999999999MA1101021999999MW1001REMMET053EKMB 210850Z 17007KT 120V230 9999 FEW040 26/17 Q1010;EQDQ01+000000PRSWM2
0162061430999992000070407504+54690+011450FM-15+0005EKMB V0200601N004112200019N0112651N1+01801+01101999999ADDGA1021+012009999GA2021+030009999GF104991999999999999999999MA1100811999999MW1001REMMET052EKMB 040750Z 06008KT 9999 SCT040 SCT100 18/11 Q1008;EQDQ01+000000PRSWM2
0142061430999992000070414504+54690+011450FM-15+0005EKMB V0201001N003112200019N0112651N1+02101+01001999999ADDGA1021+012009029GF104991999999999999999999MA1100611999999MW1001REMMET048EKMB 041450Z 10006KT 9999 SCT040TCU 21/10 Q1006;EQDQ01+000000PRSWM2
0147061430999992000071311504+54690+011450FM-15+0005EKMB V0202501N007712200019N0112651N1+01501+00601999999ADDGA1021+007509999GF104991999999999999999999MA1100611999999MW1001REMMET053EKMB 131150Z 25015KT 210V290 9999 SCT025 15/06 Q1006;EQDQ01+000000PRSWM2
0185061430999992000072509504+54690+011450FM-15+0005EKMB V0200801N006710300019N0112651N1+01601+01301999999ADDGA1021+002409999GA2021+003609999GA3081+030009999GF108991999999999999999999MA1100611999999MW1001REMMET059EKMB 250950Z 08013KT 9999 FEW008 SCT012 OVC100 16/13 Q1006;EQDQ01+000000PRSWM2
0181061430999992000072514504+54690+011450FM-15+0005EKMB V0200701N004610300019N0050001N1+01701+01201999999ADDGA1021+004509999GA2071+030009999GF107991999999999999999999MA1100511999999MW1041REMMET055EKMB 251450Z 07009KT 5000 FU SCT015 BKN100 17/12 Q1005;EQDQ01+000003PRSWM1Q02    003PRSWM1
0162061430999992000073012504+54690+011450FM-15+0005EKMB V0202801N009810120019N0112651N1+01701+01201999999ADDGA1021+004509999GA2071+012009999GF107991999999999999999999MA1101801999999MW1001REMMET052EKMB 301250Z 28019KT 9999 SCT015 BKN040 17/12 Q1018;EQDQ01+000000PRSWM2
0142061430999992000080411504+54690+011450FM-15+0005EKMB V0202701N004112200019N0112651N1+01901+01201999999ADDGA1021+006609029GF104991999999999999999999MA1101801999999MW1001REMMET048EKMB 041150Z 27008KT 9999 SCT022TCU 19/12 Q1018;EQDQ01+000000PRSWM2
0139061430999992000081206504+54690+011450FM-15+0005EKMB V0202601N005110060019N0112651N1+01701+01101999999ADDGA1071+006009999GF107991999999999999999999MA1101391999999MW1001REMMET045EKMB 120650Z 26010KT 9999 BKN020 17/11 Q1014;EQDQ01+000000PRSWM2
0139061430999992000081811504+54690+011450FM-15+0005EKMB V0202201N005110090019N0112651N1+01901+00901999999ADDGA1071+009009999GF107991999999999999999999MA1101491999999MW1001REMMET045EKMB 181150Z 22010KT 9999 BKN030 19/09 Q1015;EQDQ01+000000PRSWM2
0213061430999992000082411504+54690+011450FM-15+0005EKMB V0202501N007210360019N0112651N1+01501+01001999999ADDGA1021+007509999GA2071+036009999GA3071+060009999GF107991999999999999999999MA1101901999999MW1611REMMET071EKMB 241150Z 25014KT 210V290 9999 -RA FEW025 BKN120 BKN200 15/10 Q1019;EQDQ01+000003PRSWM1Q02    003PRSWM1
0099061430999992000091613504+54690+011450FM-15+0005EKMB V0201001N00821220001CN0099001N1+01401+00801999999ADDMA1100811999999MW1001REMMET047EKMB 161350Z 10016KT 070V130 CAVOK 14/08 Q1008;EQDQ01+000000PRSWM2
0212061430999992000092809504+54690+011450FM-15+0005EKMB V0201601N004610300019N0045001N1+01501+01301999999ADDGA1021+001509999GA2021+018009999GA3071+030009999GF107991999999999999999999MA1100911999999MW1101REMMET070EKMB 280950Z 16009KT 130V200 4500 BR FEW005 SCT060 BKN100 15/13 Q1009;EQDQ01+000003PRSWM1Q02    003PRSWM1
0162061430999992000100512504+54690+011450FM-15+0005EKMB V02099999999990210019N0070001N1+01401+01201999999ADDGA1021+012009999GA2071+021009999GF107991999999999999999999MA1101591999999MW1001REMMET052EKMB 051250Z VRB03KT 7000 SCT040 BKN070 14/12 Q1016;EQDQ01+000000PRSWM2
0099061430999992000101412504+54690+011450FM-15+0005EKMB V0202301N00411220001CN0099001N1+01101+00601999999ADDMA1101801999999MW1001REMMET047EKMB 141250Z 23008KT 200V260 CAVOK 11/06 Q1018;EQDQ01+000000PRSWM2
0091061430999992000101705504+54690+011450FM-15+0005EKMB V0202201N00261220001CN0099001N1+00801+00701999999ADDMA1101691999999MW1001REMMET039EKMB 170550Z 22005KT CAVOK 08/07 Q1017;EQDQ01+000000PRSWM2
0181061430999992000101808504+54690+011450FM-15+0005EKMB V0202001N003610009019N0022001N1+00701+00701999999ADDGA1021+000309999GA2071+000909999GF107991999999999999999999MA1102611999999MW1101REMMET055EKMB 180850Z 20007KT 2200 BR SCT001 BKN003 07/07 Q1026;EQDQ01+000003PRSWM1Q02    003PRSWM1
0139061430999992000102113504+54690+011450FM-15+0005EKMB V0201401N005110450019N0080001N1+01001+00601999999ADDGA1071+045009999GF107991999999999999999999MA1102201999999MW1001REMMET045EKMB 211350Z 14010KT 8000 BKN150 10/06 Q1022;EQDQ01+000000PRSWM2
0138061430999992000110410504+54690+011450FM-15+0005EKMB V0202401N006210030019N0112651N1+99999+99999999999ADDGA1071+003009999GF107991999999999999999999MA1100511999999MW1001REMMET044EKMB 041050Z 24012KT 9999 BKN010 //// Q1005;EQDQ01+000000PRSWM2
0099061430999992000121011504+54690+011450FM-15+0005EKMB V0201801N00621220001CN0099001N1+99999+99999999999ADDMA1100811999999MW1001REMMET047EKMB 101150Z 18012KT 140V220 CAVOK ///// Q1008;EQDQ01+000000PRSWM2
0199061430999992000121809504+54690+011450FM-15+0005EKMB V0202001N002610240019N0070001N1+99999+99999999999ADDGA1021+002409999GA2021+003609099GA3071+024009999GF107991999999999999999999MA1101691999999MW1001MW2801REMMET067EKMB 180950Z 20005KT 7000 -SHRA FEW008 SCT012CB BKN080 ///// Q1017;EQDQ01+000003PRSWM1
0207061430999992000121810504+54690+011450FM-15+0005EKMB V0201401N004110036019N0070001N1+99999+99999999999ADDGA1021+002409999GA2071+003609099GA3071+013509999GF107991999999999999999999MA1101801999999MW1001MW2801MW3891REMMET069EKMB 181050Z 14008KT 7000 -SHRAGR FEW008 BKN012CB BKN045 ///// Q1018;EQDQ01+000003PRSWM1
0139061430999992000122011504+54690+011450FM-15+0005EKMB V0201201N004112200019N0112651N1+99999+99999999999ADDGA1021+003609999GF102991999999999999999999MA1103121999999MW1001REMMET045EKMB 201150Z 12008KT 9999 FEW012 ///// Q1031;EQDQ01+000000PRSWM2
0260061590999992000010318004+55750+010870FM-12+001199999V0202001N011312200019N0100001N1+00531+00481101101ADDAA103000891AY161061AY221061GA1031+007809069GF103991031051008001001001KA1120M+00631KA2120N+00401MA1999999100921MD1210031+9999MW1211REMSYN118AAXX  03184 06159 /1560 32022 10053 20048 30092 40110 52003 69982 72162 83500 333 10063 20040 69987 83626 90000 90000;
0223061590999992000010621004+55750+010870FM-12+001199999V0202001N011310060019N0040001N1+00521+00461100911ADDAA106000091AY121031AY221031GA1081+006009069GF108991081051008001999999MA1999999100731MD1210151+9999MW1101REMSYN088AAXX  06214 06159 31540 82022 10052 20046 30073 40091 52015 71022 885// 333 88620 90000;EQDQ01  00002PRCP06
0261061590999992000011318004+55750+010870FM-12+001199999V0201901N010310048019N0040001N1+00161-00051101751ADDAA106000091AY121061AY221061GA1081+004809079GF108991081061004501999999KA1120M+00261KA2120N+00141MA1999999101571MD1210031+9999MW1101REMSYN100AAXX  13184 06159 31440 81920 10016 21005 30157 40175 52003 71022 886// 333 10026 20014 88716 90000;EQDQ01  00002PRCP06
0249061590999992000011506004+55750+010870FM-12+001199999V0203501N010310078019N0180001N1+00241+00121103011ADDAA199000091GA1081+007809069GF108991081051008001999999IA1019KA1120M+00241KA2120N+00081MA1999999102831MD1210081+9999REMSYN104    AAXX  15064 06159 32568 83520 10024 20012 30283 40301 52008 885// 333 10024 20008 30/// 88626 90000;EQDQ01  00002PRCP99
0174061590999992000011809004+55750+010870FM-12+001199999V0203401N015412200019N0200001N1+00481+00301101031ADDAA199000021GA1011+009909059GF101991011051012501051001MA1999999100851MD1210401+9999REMSYN080    AAXX  18094 06159 32670 13430 10048 20030 30085 40103 52040 81550 333 81633;
0222061590999992000012712004+55750+010870FM-12+001199999V0202501N013410078019N0080001N1+00381+00351101481ADDAA103000591AY181061AY221061GA1071+007809099GF107991071031008001001001MA1999999101301MD1710191+9999MW1811REMSYN106AAXX  27124 06159 /1558 72526 10038 20035 30130 40148 57019 69951 78182 87300 333 69957 87926 90000 90000;
0189061590999992000022109004+55750+010870FM-12+001199999V0203101N002112200019N0200001N1+00111+00071102761ADDAA199000091GA1011+015009029GF101991011021017501001011MA1999999102571MD1710021+9999REMSYN076AAXX  21094 06159 32770 13104 10011 20007 30257 40276 57002 81201 333 81850;EQDQ01  00002PRCP99
0195061590999992000030221004+55750+010870FM-12+001199999V0201701N018510078019N0100001N1+00301+00021099711ADDAA199000091GA1081+007809069GF108991081051008001999999MA1999999099531MD1710731+9999REMSYN082AAXX  02214 06159 32560 81736 10030 20002 39953 49971 57073 885// 333 88626 90000;EQDQ01  00002PRCP99
0189061590999992000032315004+55750+010870FM-12+001199999V0202001N005112200019N0200001N1+00601-00141101681ADDAA199000091GA1021+009909029GF102991021011012501001001MA1999999101501MD1710051+9999REMSYN076AAXX  23154 06159 32670 22010 10060 21014 30150 40168 57005 82100 333 82833;EQDQ01  00002PRCP99
0204061590999992000032515004+55750+010870FM-12+001199999V0201501N006210039019N0030001N1+00441+00111101121ADDAA103001091AY161031AY221031GA1081+003909069GF108991081061004501999999MA1999999100941MD1710051+9999MW1101REMSYN088AAXX  25154 06159 21430 81512 10044 20011 30094 40112 57005 71062 886// 333 60017 88713;
0204061590999992000040421004+55750+010870FM-12+001199999V0203301N015410030019N0020001N1+00341+00111099221ADDAA103000591AY161031AY221031GA1081+003009069GF108991081071004501999999MA1999999099041MD1210091+9999MW1601REMSYN088AAXX  04214 06159 21420 83330 10034 20011 39904 49922 52009 76062 887// 333 69957 88710;
0217061590999992000040815004+55750+010870FM-12+001199999V0209999C000010078019N0040001N1+00621+00301102331ADDAA199000091AY121031AY221031GA1061+007809059GF106991061051008001001001MA1999999102151MD1710091+9999MW1101REMSYN082AAXX  08154 06159 31540 60000 10062 20030 30215 40233 57009 71022 86500 333 86626;EQDQ01  00002PRCP99
0189061590999992000041021004+55750+010870FM-12+001199999V0201701N008212200019N0140001N1+00541+00111100931ADDAA199000091GA1021+009909059GF102991021051012501001001MA1999999100751MD1710131+9999REMSYN076AAXX  10214 06159 32664 21716 10054 20011 30075 40093 57013 82500 333 82633;EQDQ01  00002PRCP99
0217061590999992000041609004+55750+010870FM-12+001199999V0201701N006210078019N0040001N1+00651+00461099801ADDAA199000091AY121031AY221031GA1081+007809059GF108991081051008001999999MA1999999099621MD1210071+9999MW1101REMSYN082AAXX  16094 06159 31540 81712 10065 20046 39962 49980 52007 71022 885// 333 88626;EQDQ01  00002PRCP99
0189061590999992000042209004+55750+010870FM-12+001199999V0201501N004112200019N0120001N1+00951+00541101921ADDAA199000091GA1041+030009079GF104991041001999999051001MA1999999101741MD1210081+9999REMSYN076AAXX  22094 06159 32962 41508 10095 20054 30174 40192 52008 84050 333 84360;EQDQ01  00002PRCP99
0201061590999992000043012004+55750+010870FM-12+001199999V0202501N003112200019N0020001N1+01081+00831102091ADDAA199000091AY141061AY201061GA1001+999999999GF100991001001999999001001MA1999999101911MD1710031+9999MW1191REMSYN066AAXX  30124 06159 31920 02506 10108 20083 30191 40209 57003 71940;EQDQ01  00002PRCP99
0217061590999992000050115004+55750+010870FM-12+001199999V0209999C000012200019N0010001N1+01361+01091102281ADDAA199000091AY141031AY211031GA1041+009909059GF104991041051012501021001MA1999999102101MD1710031+9999MW1101REMSYN082AAXX  01154 06159 31610 40000 10136 20109 30210 40228 57003 71041 84520 333 84633;EQDQ01  00002PRCP99
0227061590999992000052018004+55750+010870FM-12+001199999V0203101N006210099019N0200001N1+01361+00681100801ADDAA199000091GA1051+009909059GF105991051051012501001001KA1120M+01461KA2120N+01181MA1999999100631MD1210011+9999REMSYN088AAXX  20184 06159 32670 53112 10136 20068 30063 40080 52001 85500 333 10146 20118 85633;EQDQ01  00002PRCP99
0189061590999992000062300004+55750+010870FM-12+001199999V0201701N008212200019N0200001N1+01501+01031101251ADDAA199000091GA1041+009909059GF104991041051012501001001MA1999999101081MD1710041+9999REMSYN076AAXX  23004 06159 32670 41716 10150 20103 30108 40125 57004 84500 333 84633;EQDQ01  00002PRCP99
0227061590999992000070618004+55750+010870FM-12+001199999V0202601N011310099019N0250001N1+01381+00661101621ADDAA199000091GA1081+009909059GF108991081051012501999999KA1120M+01481KA2120N+01381MA1999999101441MD1710041+9999REMSYN088AAXX  06184 06159 32675 82622 10138 20066 30144 40162 57004 885// 333 10148 20138 88633;EQDQ01  00002PRCP99
0239061590999992000072106004+55750+010870FM-12+001199999V0202801N007212200019N0160001N1+01501+01151101561ADDAA199000091GA1031+009909099GF103991031031012501051001IA1019KA1120M+01701KA2120N+01381MA1999999101391MD1210051+9999REMSYN094AAXX  21064 06159 32666 32814 10150 20115 30139 40156 52005 83350 333 10170 20138 30/// 83933;EQDQ01  00002PRCP99
0170061590999992000091321004+55750+010870FM-12+001199999V0201001N007210060019N0180001N1+01181+00931101181ADDAA199000021GA1081+006009059GF108991081051008001999999MA1999999101001MD1210211+9999REMSYN076AAXX  13214 06159 32568 81014 10118 20093 30100 40118 52021 885// 333 88620;
0260061590999992000100206004+55750+010870FM-12+001199999V0201501N001010039019N0020001N1+01351+01021100131ADDAA103000191AY161061AY201061GA1061+003909099GF106991061031004501001001IA1099KA1120M+01431KA2120N+01241MA1999999099961MD1710081+9999MW1601REMSYN112AAXX  02064 06159 /1420 61502 10135 20102 39996 40013 57008 69912 76060 86300 333 10143 20124 31/// 69917 86913;
0261061590999992000100318004+55750+010870FM-12+001199999V0202001N008212200019N0080001N1+01301+00951102131ADDAA199000091AY111061AY211061GA1041+024009039GF104991041001999999051001KA1120M+01451KA2120N+01271MA1999999101951MD1210081+9999MW1101REMSYN100AAXX  03184 06159 31958 42016 10130 20095 30195 40213 52008 71011 84050 333 10145 20127 84358 90000;EQDQ01  00002PRCP99
0217061590999992000101615004+55750+010870FM-12+001199999V0201701N010310039019N0040001N1+01441+00991100821ADDAA199000091AY121031AY221031GA1081+003909069GF108991081061004501999999MA1999999100651MD1510071+9999MW1101REMSYN082AAXX  16154 06159 31440 81720 10144 20099 30065 40082 55007 71022 886// 333 88713;EQDQ01  00002PRCP99
0189061590999992000101721004+55750+010870FM-12+001199999V0202201N007212200019N0100001N1+01171+00811102281ADDAA199000091GA1021+009909059GF102991021051012501051001MA1999999102101MD1210081+9999REMSYN076AAXX  17214 06159 32660 22214 10117 20081 30210 40228 52008 82550 333 82633;EQDQ01  00002PRCP99
0204061590999992000102203004+55750+010870FM-12+001199999V0202001N006710060019N0050001N1+01271+00941102251ADDAA199000021AY121031AY221031GA1081+006009069GF108991081051008001999999MA1999999102071MD1210011+9999MW1101REMSYN088AAXX  22034 06159 31550 82013 10127 20094 30207 40225 52001 71022 885// 333 88620 90000;
0189061590999992000102221004+55750+010870FM-12+001199999V0201601N005112200019N0180001N1+01181+00841102631ADDAA199000091GA1021+007809059GF103991021051008001051001MA1999999102451MD1710071+9999REMSYN076AAXX  22214 06159 32568 31610 10118 20084 30245 40263 57007 82550 333 82626;EQDQ01  00002PRCP99
0189061590999992000102300004+55750+010870FM-12+001199999V0201701N008210099019N0120001N1+01201+00861102451ADDAA199000091GA1051+009909059GF106991051051012501051001MA1999999102271MD1710181+9999REMSYN076AAXX  23004 06159 32662 61716 10120 20086 30227 40245 57018 85550 333 85633;EQDQ01  00002PRCP99
0189061590999992000111012004+55750+010870FM-12+001199999V0202101N014410078019N0100001N1+00941+00791100621ADDAA199000091GA1081+007809099GF108991081031008001999999MA1999999100441MD1210051+9999REMSYN076AAXX  10124 06159 32560 82128 10094 20079 30044 40062 52005 883// 333 88926;EQDQ01  00002PRCP99
0204061590999992000111021004+55750+010870FM-12+001199999V0202501N011310060019N0150001N1+00871+00741101051ADDAA103002091AY181031AY221031GA1081+006009099GF108991081031008001999999MA1999999100871MD1210181+9999MW1811REMSYN088AAXX  10214 06159 21565 82522 10087 20074 30087 40105 52018 78182 883// 333 60027 88920;
0223061590999992000112400004+55750+010870FM-12+001199999V0201301N009310099019N0100001N1+00821+00781100501ADDAA199000091AY121061AY221061GA1081+009909069GF108991081051012501999999MA1999999100321MD1710161+9999MW1101REMSYN088AAXX  24004 06159 31660 81318 10082 20078 30032 40050 57016 71022 885// 333 88633 90000;EQDQ01  00002PRCP99
0170061590999992000112503004+55750+010870FM-12+001199999V0202101N008212200019N0120001N1+00741+00691100861ADDAA199000021GA1031+006009059GF103991031051008001001001MA1999999100681MD1210061+9999REMSYN076AAXX  25034 06159 32562 32116 10074 20069 30068 40086 52006 83500 333 83620;
0267061590999992000112506004+55750+010870FM-12+001199999V0202001N008710039019N0080001N1+00621+00591100941ADDAA199000091AY121061AY211061GA1061+003909059GF106991061051004501001001IA1099KA1120M+00831KA2120N+00621MA1999999100761MD1210081+9999MW1101REMSYN100AAXX  25064 06159 31458 62017 10062 20059 30076 40094 52008 71021 86500 333 10083 20062 31/// 86613;EQDQ01  00002PRCP99
0217061590999992000112921004+55750+010870FM-12+001199999V0201701N006210078019N0080001N1+00841+00821100791ADDAA199000091AY121031AY221031GA1081+007809059GF108991081051008001999999MA1999999100611MD1210021+9999MW1101REMSYN082AAXX  29214 06159 31558 81712 10084 20082 30061 40079 52002 71022 885// 333 88626;EQDQ01  00002PRCP99
0217061590999992000120509004+55750+010870FM-12+001199999V0202001N008210069019N0040001N1+00781+00761101511ADDAA199000091AY121031AY221031GA1061+006909059GF106991061051008001999999MA1999999101331MD1210141+9999MW1101REMSYN082AAXX  05094 06159 31540 62016 10078 20076 30133 40151 52014 71022 865// 333 86623;EQDQ01  00002PRCP99
0239061590999992000120606004+55750+010870FM-12+001199999V0201801N010310078019N0100001N1+00751+00721101161ADDAA199000091GA1081+007809059GF108991081051008001999999IA1099KA1120M+00801KA2120N+00681MA1999999100981MD1710021+9999REMSYN094AAXX  06064 06159 32560 81820 10075 20072 30098 40116 57002 885// 333 10080 20068 31/// 88626;EQDQ01  00002PRCP99
0170061590999992000121421004+55750+010870FM-12+001199999V0202301N019510060019N0140001N1+00761+00541098851ADDAA199000021GA1061+006009059GF106991061051008001001001MA1999999098681MD1710081+9999REMSYN076AAXX  14214 06159 32564 62338 10076 20054 39868 49885 57008 86500 333 86620;
0273061600999992000010118004+55770+012320FM-12+0031EKVL V0202701N00261001201CN0035001N1+00361+00351101761ADDAA103999999AY161061AY221061GA1041+001509079GF107991071061001501001001KA1120M+00371KA2120N+00141MA1999999101381MD1210111+9999MW1101REMSYN112AAXX  01184 06160 /1235 72705 10036 20035 30138 40176 52011 60022 71062 87600 333 10037 20014 69907 84705 86620;EQDQ01  99992PRCP03
0145061600999992000010413504+55770+012320FM-15+0031EKVL V0202501N004112200019N0112651N1+00501+00401999999ADDGA1021+004509999GF102991999999999999999999MA1101081999999MW1001REMMET051EKVL 041350Z 25008KT 9999 FEW015 05/04 Q1011 NOSIG;EQDQ01+000000PRSWM2
0139061600999992000010514504+55770+012320FM-15+0031EKVL V0202301N002112200019N0112651N1+00301+00301999999ADDGA1021+009009999GF102991999999999999999999MA1101591999999MW1001REMMET045EKVL 051450Z 23004KT 9999 FEW030 03/03 Q1016;EQDQ01+000000PRSWM2
0162061600999992000010823504+55770+012320FM-15+0031EKVL V0202201N003110060019N0080001N1+00301+00201999999ADDGA1021+002409999GA2071+006009999GF107991999999999999999999MA1101491999999MW1001REMMET052EKVL 082350Z 22006KT 8000 FEW008 BKN020 03/02 Q1015;EQDQ01+000000PRSWM2
0108061600999992000011013204+55770+012320FM-15+0031EKVL V0202501N00311220001CN0099001N1+00401+00401999999ADDMA1103181999999MW1001REMMET056EKVL 101320Z 25006KT CAVOK 04/04 Q1032 NOSIG RMK SCT200;EQDQ01+000000PRSWM2
0111061600999992000012223504+55770+012320FM-15+0031EKVL V0209999C00001220001CN0099001N1-00701-00801999999ADDMA1101491999999MW1001REMMET059EKVL 222350Z 00000KT CAVOK M07/M08 Q1015 RMK FEW080 BKN200;EQDQ01+000000PRSWM2
0298061600999992000012509004+55770+012320SY-MT+0031EKVL V0202901N00461000601CN0040001N1+00021+00011102271ADDAA199000021AY171031AY221031GA1071+000609999GF108991081061000751999999MA1102201101881MD1210091+9999MW1101REMSYN082AAXX  25094 06160 31140 82909 10002 20001 30188 40227 52009 71072 886// 333 87703;MET075EKVL 250900Z 29008KT 2500 BR BKN002 00/00 Q1022 BECMG 4000 BKN004 28450195;EQDQ01    003PRSWM1
0158061600999992000012521504+55770+012320FM-15+0031EKVL V0202301N002110060019N0045001N1+00101+00101999999ADDGA1071+006009999GF107991999999999999999999MA1102001999999MW1101REMMET048EKVL 252150Z 23004KT 4500 BR BKN020 01/01 Q1020;EQDQ01+000003PRSWM1Q02    003PRSWM1
0191061600999992000012601504+55770+012320FM-15+0031EKVL V0202701N002610003019N0005001N1+00101+00101999999ADDED199U09009GA1081+000309999GF108991999999999999999999MA1102001999999MW1411REMMET070EKVL 260150Z 27005KT 0500 R10/0900N R28/0750N BCFG OVC001 01/01 Q1020;EQDQ01+000003PRSWM1Q02    003PRSWM1
0213061600999992000012605504+55770+012320FM-15+0031EKVL V0202901N004610003019N0006001N1+00101+00101999999ADDED199U17009GA1071+000309999GF107991999999999999999999MA1102001999999MW1411REMMET092EKVL 260550Z 29009KT 0600 R10/1700U R28/P2000N BCFG BKN001 01/01 Q1020 TEMPO 3000 BR BKN004;EQDQ01+000003PRSWM1Q02    003PRSWM1
0162061600999992000012917504+55770+012320FM-15+0031EKVL V0202501N009812200019N0112651N1+00501+00301999999ADDGA1021+009009999GA2021+024009999GF104991999999999999999999MA1097491999999MW1001REMMET052EKVL 291750Z 25019KT 9999 FEW030 SCT080 05/03 Q0975;EQDQ01+000000PRSWM2
0233061600999992000020318004+55770+012320FM-12+0031EKVL V0202701N001012200019N0300001N1-00151-00211102721ADDAA199000091GA1041+060009009GF104991001001999999001041KA1120M+00371KA2120N-00251MA1999999102331MD1210291+9999REMSYN094AAXX  03184 06160 32980 42702 11015 21021 30233 40272 52029 80004 333 10037 21025 84070 91124;EQDQ01  00002PRCP99
0104061600999992000020318504+55770+012320FM-15+0031EKVL V0202501N00101220001CN0099001N1-00101-00201999999ADDMA1102711999999MW1001REMMET052EKVL 031850Z 25002KT CAVOK M01/M02 Q1027 RMK SCT200;EQDQ01+000000PRSWM2
0139061600999992000020419504+55770+012320FM-15+0031EKVL V0202601N012310018019N0112651N1+00701+00701999999ADDGA1081+001809999GF108991999999999999999999MA1101081999999MW1001REMMET045EKVL 041950Z 26024KT 9999 OVC006 07/07 Q1011;EQDQ01+000000PRSWM2
0181061600999992000020522504+55770+012320FM-15+0031EKVL V0202401N005110018019N0035001N1+00601+00601999999ADDGA1071+001809999GA2081+003009999GF108991999999999999999999MA1101691999999MW1101REMMET055EKVL 052250Z 24010KT 3500 BR BKN006 OVC010 06/06 Q1017;EQDQ01+000003PRSWM1Q02    003PRSWM1
0176061600999992000021403004+55770+012320FM-12+0031EKVL V0202901N008212200019N0300001N1+00131-00071100961ADDAA199000021GA1031+007509069GF103991011051008001001011MA1999999100581MD1210111+9999REMSYN082AAXX  14034 06160 32580 32916 10013 21007 30058 40096 52011 81501 333 83625 91126;
0207061600999992000022008504+55770+012320FM-15+0031EKVL V0202701N001510054019N0112651N1-00101-00101999999ADDGA1021+003909999GA2071+005409999GA3071+015009999GF107991999999999999999999MA1102201999999MW1711REMMET065EKVL 200850Z 27003KT 9999 -SN SCT013 BKN018 BKN050 M01/M01 Q1022;EQDQ01+000003PRSWM1Q02    003PRSWM1
0116061600999992000022212504+55770+012320FM-15+0031EKVL V0201501N00411220001CN0099001N1+00201-00401999999ADDMA1102201999999MW1001REMMET064EKVL 221250Z 15008KT CAVOK 02/M04 Q1022 NOSIG RMK FEW080 BKN180;EQDQ01+000000PRSWM2
0152061600999992000022318504+55770+012320FM-15+0031EKVL V0201401N001512200019N0112651N1-00101-00201999999ADDGA1021+006009999GF104991999999999999999999MA1102511999999MW1001REMMET058EKVL 231850Z 14003KT 9999 SCT020 M01/M02 Q1025 BECMG 6000;EQDQ01+000000PRSWM2
0185061600999992000022516504+55770+012320FM-15+0031EKVL V0202601N006210150019N0112651N1+00501+00201999999ADDGA1021+004509999GA2071+015009999GA3071+060009999GF107991999999999999999999MA1101591999999MW1001REMMET059EKVL 251650Z 26012KT 9999 FEW015 BKN050 BKN200 05/02 Q1016;EQDQ01+000000PRSWM2
0263061600999992000022806004+55770+012320FM-12+0031EKVL V0201901N00771030001CN0150001N1+00861+00531100341ADDAA199000091GA1021+066009059GF107991021051008001071021IA1019IA2999+00049KA1120M+00861KA2120N+00511MA1999999099971MD1710351+9999REMSYN106333X  28064 06160 32565 71915 10086 20053 39997 40034 57035 82572 333 10086 20051 30004 82628 87362 91127;EQDQ01  00002PRCP99
0211061600999992000030306504+55770+012320FM-15+0031EKVL V0202401N010810060019N0112651N1+00601+00501999999ADDGA1021+002409999GA2071+006009999GF107991999999999999999999MA1098211999999MW1611OC101591REMMET077EKVL 030650Z 24021G31KT 9999 -RA FEW008 BKN020 06/05 Q0982 TEMPO 6000 BKN010;EQDQ01+000003PRSWM1Q02    003PRSWM1
0244061600999992000030912004+55770+012320FM-12+0031EKVL V0203201N005710084019N0300001N1+00261-00101100731ADDAA103999929AY161061AY221061GA1011+007509069GA2071+008409069GF107991071051008001001001MA1999999100351MD1210471+9999MW1021REMSYN112AAXX  09124 06160 /1580 73211 10026 21010 30035 40073 52047 69901 70262 87500 91221 333 69907 81625 87628 91127;
0110061600999992000031015504+55770+012320FM-15+0031EKVL V0202801N00411220001CN0099001N1+00201-00201999999ADDMA1102101999999MW1001REMMET058EKVL 101550Z 28008KT CAVOK 02/M02 Q1021 RMK FEW100 OVC200;EQDQ01+000000PRSWM2
0301061600999992000031106004+55770+012320FM-12+0031EKVL V0201301N00511001201CN0040001N1+00001-00011099971ADDAA103003091AJ100079199999999AY171061AY271061GA1041+001209079GF108991081071001501999999IA1279IA2999-00019KA1120M+00121KA2120N-00011MA1999999099591MD1710391+9999MW1711REMSYN124AAXX  11064 06160 /1240 81310 10000 21001 39959 49997 57039 60072 77177 887// 333 10012 21001 3/101 43007 60037 84704 87707;
0189061600999992000031203004+55770+012320FM-12+0031EKVL V0209999C000010126019N0300001N1-00091-00101102321ADDAA199000091GA1051+012609059GF105991051051012501001011MA1999999101931MD1210131+9999REMSYN076AAXX  12034 06160 32680 50000 11009 21010 30193 40232 52013 85501 333 85642;EQDQ01  00002PRCP99
0254061600999992000031218004+55770+012320FM-12+0031EKVL V0201801N001510024019N0070001N1+00151+00141102211ADDAA103000291AY171061AY261061GA1051+002409079GF108991081071002501999999KA1120M+00291KA2120N-00051MA1999999101821MD1710051+9999MW1681REMSYN112AAXX  12184 06160 /1357 81803 10015 20014 30182 40221 57005 69922 76876 887// 333 10029 21005 69927 85708 87610;
0173061600999992000031313504+55770+012320FM-15+0031EKVL V0202501N006710027019N0112651N1+00501+00401999999ADDGA1021+001809999GA2071+002709999GF107991999999999999999999MA1101801999999MW1001REMMET063EKVL 131350Z 25013KT 9999 FEW006 BKN009 05/04 Q1018 TEMPO 6000;EQDQ01+000000PRSWM2
0110061600999992000031723504+55770+012320FM-15+0031EKVL V0202501N00051220001CN0099001N1+00001+00001999999ADDMA1102401999999MW1001REMMET058EKVL 172350Z 25001KT CAVOK 00/M00 Q1024 RMK SCT100 BKN200;EQDQ01+000000PRSWM2
0217061600999992000031812004+55770+012320FM-12+0031EKVL V0203401N001510300019N0300001N1+00541-00521102591ADDAA199000091GA1021+011409069GA2041+030009049GF108991021051012501031021MA1999999102211MD1210071+9999REMSYN088AAXX  18124 06160 32680 83403 10054 21052 30221 40259 52007 82532 333 82638 84460 87070;EQDQ01  00002PRCP99
0159061600999992000032616504+55770+012320FM-15+0031EKVL V0201201N005710012019N0030001N1+00401+00401999999ADDGA1081+001209999GF108991999999999999999999MA1100611999999MW1611REMMET049EKVL 261650Z 12011KT 3000 -RA OVC004 04/04 Q1006;EQDQ01+000003PRSWM1Q02    003PRSWM1
0210061600999992000032806504+55770+012320FM-15+0031EKVL V0200601N005710021019N0045001N1+00001+00001999999ADDGA1071+002109999GA2071+003009999GF107991999999999999999999MA1101901999999MW1611MW2731MW3791REMMET088EKVL 280650Z 06011KT 020V090 4500 PL SNRA BKN007 BKN010 00/00 Q1019 TEMPO 1200 10590595;EQDQ01+000003PRSWM1
0147061600999992000033014504+55770+012320FM-15+0031EKVL V0200701N004112200019N0112651N1+01001+00401999999ADDGA1021+007509999GF102991999999999999999999MA1101191999999MW1001REMMET053EKVL 301450Z 07008KT 050V120 9999 FEW025 10/04 Q1012;EQDQ01+000000PRSWM2
0227061600999992000033018004+55770+012320FM-12+0031EKVL V0201101N004112200019N0120001N1+00521+00261101141ADDAA199000091GA1011+060009019GF101991001001999999001011KA1120M+01001KA2120N+00101MA1999999100761MD1710051+9999REMSYN088AAXX  30184 06160 32962 11108 10052 20026 30076 40114 57005 80001 333 10100 20010 81070;EQDQ01  00002PRCP99
0107061600999992000040605504+55770+012320FM-15+0031EKVL V0202501N00211220001CN0099001N1-00101-00201999999ADDMA1102201999999MW1001REMMET055EKVL 060550Z 25004KT CAVOK M01/M02 Q1022 NOSIG RMK SKC;EQDQ01+000000PRSWM2
0139061600999992000040720504+55770+012320FM-15+0031EKVL V0203401N001012200019N0112651N1+00301+00101999999ADDGA1021+013509999GF104991999999999999999999MA1102711999999MW1001REMMET045EKVL 072050Z 34002KT 9999 SCT045 03/01 Q1027;EQDQ01+000000PRSWM2
0118061600999992000040907504+55770+012320FM-15+0031EKVL V0201001N00361220001CN0099001N1+00401-00501999999ADDMA1102301999999MW1001REMMET066EKVL 090750Z 10007KT 070V130 CAVOK 04/M05 Q1023 RMK FEW080 SCT200;EQDQ01+000000PRSWM2
0111061600999992000040914504+55770+012320FM-15+0031EKVL V0201701N00261220001CN0099001N1+00601-00401999999ADDMA1102001999999MW1001REMMET059EKVL 091450Z 17005KT 100V210 CAVOK 06/M04 Q1020 RMK BKN055;EQDQ01+000000PRSWM2
0176061600999992000041109504+55770+012320FM-15+0031EKVL V0201201N004112200019N0112651N1+00601+00201999999ADDGA1021+008109999GA2021+036009999GF104991999999999999999999MA1100311999999MW1001REMMET066EKVL 110950Z 12008KT 080V180 9999 SCT027 SCT120 06/02 Q1003 NOSIG;EQDQ01+000000PRSWM2
0205061600999992000041223204+55770+012320FM-15+0031EKVL V0202201N003110015019N0020001N1+00501+00501999999ADDGA1021+000909999GA2071+001509999GA3071+003009999GF107991999999999999999999MA1099191999999MW1611REMMET063EKVL 122320Z 22006KT 2000 -RA FEW003 BKN005 BKN010 05/05 Q0992;EQDQ01+000003PRSWM1Q02    003PRSWM1
0176061600999992000041312504+55770+012320FM-15+0031EKVL V0202401N006710450019N0112651N1+00801+00401999999ADDGA1021+007509999GA2071+045009999GF107991999999999999999999MA1099091999999MW1001REMMET066EKVL 131250Z 24013KT 200V260 9999 SCT025 BKN150 08/04 Q0991 NOSIG;EQDQ01+000000PRSWM2
0210061600999992000041721004+55770+012320FM-12+0031EKVL V0201601N00051007501CN0010001N1+00691+00681100531ADDAA103000291AY161031AY241031GA1021+009009069GF107991051051008001071001MA1999999100161MD1210101+9999MW1401REMSYN094AAXX  17214 06160 21510 71601 10069 20068 30016 40053 52010 74064 85570 333 69927 82630 85656;
0170061600999992000042414504+55770+012320FM-15+0031EKVL V0203101N005110240019N0112651N1+01501+01401999999ADDGA1021+006009999GA2071+024009999GF107991999999999999999999MA1100711999999MW1001REMMET060EKVL 241450Z 31010KT 280V340 9999 FEW020 BKN080 15/14 Q1007;EQDQ01+000000PRSWM2
0102061600999992000042519504+55770+012320FM-15+0031EKVL V0201001N00051220001CN0099001N1+00901+00801999999ADDMA1101591999999MW1001REMMET050EKVL 251950Z 10001KT CAVOK 09/08 Q1016 RMK SCT200;EQDQ01+000000PRSWM2
0216061600999992000042604204+55770+012320FM-15+0031EKVL V0209999C000010600019N0006001N1+00301+00301999999ADDED199U20009GA1021+000309999GA2071+060009999GF107991999999999999999999MA1101591999999MW1411REMMET079EKVL 260420Z 00000KT 0600 R10/P2000N R28/P2000N BCFG FEW001 BKN200 03/03 Q1016;EQDQ01+000003PRSWM1Q02    003PRSWM1
0115061600999992000042704504+55770+012320FM-15+0031EKVL V0201101N00511220001CN0099001N1+00901+00801999999ADDMA1101491999999MW1001REMMET063EKVL 270450Z 11010KT CAVOK 09/08 Q1015 NOSIG RMK FEW060 BKN200;EQDQ01+000000PRSWM2
0102061600999992000042801504+55770+012320FM-15+0031EKVL V0201001N00511220001CN0099001N1+01201+01101999999ADDMA1101591999999MW1001REMMET050EKVL 280150Z 10010KT CAVOK 12/11 Q1016 RMK BKN200;EQDQ01+000000PRSWM2
0116061600999992000050213504+55770+012320FM-15+0031EKVL V0201101N00671220001CN0099001N1+01601+00101999999ADDMA1102611999999MW1001REMMET064EKVL 021350Z 11013KT 080V140 CAVOK 16/01 Q1026 NOSIG RMK SCT200;EQDQ01+000000PRSWM2
0110061600999992000051216504+55770+012320FM-15+0031EKVL V0201801N00261220001CN0099001N1+01301+00401999999ADDMA1102811999999MW1001REMMET058EKVL 121650Z 18005KT 150V220 CAVOK 13/04 Q1028 RMK FEW090;EQDQ01+000000PRSWM2
0111061600999992000051513504+55770+012320FM-15+0031EKVL V0209999999999220001CN0099001N1+02501+00801999999ADDMA1102001999999MW1001REMMET059EKVL 151350Z VRB05G17KT CAVOK 25/08 Q1020 NOSIG RMK FEW100;EQDQ01+000000PRSWM2
0099061600999992000051517504+55770+012320FM-15+0031EKVL V0202501N00211220001CN0099001N1+02301+00901999999ADDMA1101801999999MW1001REMMET047EKVL 151750Z 25004KT CAVOK 23/09 Q1018 RMK SKC;EQDQ01+000000PRSWM2
0102061600999992000051917504+55770+012320FM-15+0031EKVL V0201801N00151220001CN0099001N1+01201+01001999999ADDMA1100511999999MW1001REMMET050EKVL 191750Z 18003KT CAVOK 12/10 Q1005 RMK SCT050;EQDQ01+000000PRSWM2
0170061600999992000052804504+55770+012320FM-15+0031EKVL V0201701N004610600019N0112651N1+01101+00901999999ADDGA1021+007509999GA2071+060009999GF107991999999999999999999MA1101021999999MW1001REMMET060EKVL 280450Z 17009KT 140V200 9999 FEW025 BKN200 11/09 Q1010;EQDQ01+000000PRSWM2
0170061600999992000052821504+55770+012320FM-15+0031EKVL V0201701N004610180019N0112651N1+01101+00701999999ADDGA1021+003009999GA2071+018009999GF107991999999999999999999MA1099701999999MW1001REMMET060EKVL 282150Z 17009KT 140V200 9999 FEW010 BKN060 11/07 Q0997;EQDQ01+000000PRSWM2
0233061600999992000052906504+55770+012320FM-15+0031EKVL V0202001N007710045019N0112651N1+01001+00801999999ADDGA1021+003609999GA2071+004509999GA3071+006009999GF107991999999999999999999MA1099591999999MW1801REMMET091EKVL 290650Z 20015KT 160V230 9999 -SHRA FEW012 BKN015 BKN020 10/08 Q0996 TEMPO 4000 BKN008;EQDQ01+000003PRSWM1Q02    003PRSWM1
0163061600999992000053102504+55770+012320FM-15+0031EKVL V0209999C000012200019N0112651N1+00401+00401999999ADDGA1021+009009029GF102991999999999999999999MA1101291999999MW1121REMMET053EKVL 310250Z 00000KT 9999 MIFG FEW030TCU 04/04 Q1013;EQDQ01+000003PRSWM1Q02    003PRSWM1
0109061600999992000060108504+55770+012320FM-15+0031EKVL V0201801N00461220001CN0099001N1+01501+00501999999ADDMA1102101999999MW1001REMMET057EKVL 010850Z 18009KT CAVOK 15/05 Q1021 RMK SCT080 BKN200;EQDQ01+000000PRSWM2
0198061600999992000060200504+55770+012320FM-15+0031EKVL V0202301N004110036019N0080001N1+01301+01301999999ADDGA1071+003609999GA2081+007509999GF108991999999999999999999MA1101391999999MW1511MW2611REMMET066EKVL 020050Z 23008KT 200V260 8000 -DZRA BKN012 OVC025 13/13 Q1014;EQDQ01+000003PRSWM1Q02    003PRSWM1
0139061600999992000060301504+55770+012320FM-15+0031EKVL V0203001N004110060019N0112651N1+00901+00701999999ADDGA1071+006009999GF107991999999999999999999MA1101801999999MW1001REMMET045EKVL 030150Z 30008KT 9999 BKN020 09/07 Q1018;EQDQ01+000000PRSWM2
0170061600999992000060308504+55770+012320FM-15+0031EKVL V0202901N004612200019N0112651N1+01201+00701999999ADDGA1021+006609999GA2021+060009999GF104991999999999999999999MA1102101999999MW1001REMMET060EKVL 030850Z 29009KT 250V320 9999 FEW022 SCT200 12/07 Q1021;EQDQ01+000000PRSWM2
0213061600999992000060617504+55770+012320FM-15+0031EKVL V0200601N002610030019N0112651N1+00701+00701999999ADDGA1021+002409999GA2071+003009999GA3071+007509999GF107991999999999999999999MA1101191999999MW1611REMMET071EKVL 061750Z 06005KT 010V100 9999 -RA FEW008 BKN010 BKN025 07/07 Q1012;EQDQ01+000003PRSWM1Q02    003PRSWM1
0160061600999992000060902504+55770+012320FM-15+0031EKVL V0201201N000512200019N0090001N1+00601+00501999999ADDGA1021+060009999GF102991999999999999999999MA1102201999999MW1411REMMET050EKVL 090250Z 12001KT 9000 BCFG FEW200 06/05 Q1022;EQDQ01+000003PRSWM1Q02    003PRSWM1
0110061600999992000061011504+55770+012320FM-15+0031EKVL V0201301N00511220001CN0099001N1+02301+01401999999ADDMA1101491999999MW1001REMMET058EKVL 101150Z 13010KT 100V160 CAVOK 23/14 Q1015 RMK SCT200;EQDQ01+000000PRSWM2
0195061600999992000061100004+55770+012320FM-12+0031EKVL V0200901N00101075001CN0200001N1+01271+01261101131ADDAA199000091GA1021+021009039GF107991021001022501081021MA1999999100761MD1710131+9999REMSYN082AAXX  11004 06160 32870 70902 10127 20126 30076 40113 57013 82082 333 82357 87070;EQDQ01  00002PRCP99
0162061600999992000062103504+55760+012320FM-15+0031EKVL V0200701N001012200019N0080001N1+01901+01801999999ADDGA1021+030009999GA2021+060009999GF104991999999999999999999MA1101191999999MW1001REMMET052EKVL 210350Z 07002KT 8000 FEW100 SCT200 19/18 Q1012;EQDQ01+000000PRSWM2
0216061600999992000062408504+55760+012320FM-15+0031EKVL V0201701N002610099019N0112651N1+01501+01201999999ADDGA1021+004509099GA2021+006009999GA3071+009909999GF107991999999999999999999MA1101021999999MW1161REMMET074EKVL 240850Z 17005KT 130V210 9999 VCSH FEW015CB SCT020 BKN033 15/12 Q1010;EQDQ01+000003PRSWM1Q02    003PRSWM1
0195061600999992000070809004+55760+012320FM-12+0031EKVL V0202801N006710090019N0400001N1+01321+00811100841ADDAA199000091GA1051+009009089GF106991061081008001001001MA1999999100471MD1710011+9999REMSYN082AAXX  08094 06160 32582 62813 10132 20081 30047 40084 57001 86800 333 85830 91123;EQDQ01  00002PRCP99
0139061600999992000071317504+55760+012320FM-15+0031EKVL V0202601N007212200019N0112651N1+01501+00601999999ADDGA1021+013509999GF104991999999999999999999MA1100201999999MW1001REMMET045EKVL 131750Z 26014KT 9999 SCT045 15/06 Q1002;EQDQ01+000000PRSWM2
0152061600999992000072004504+55760+012320FM-15+0031EKVL V0202801N005710045019N0112651N1+01301+01201999999ADDGA1071+004509999GF107991999999999999999999MA1100811999999MW1001REMMET058EKVL 200450Z 28011KT 9999 BKN015 13/12 Q1008 TEMPO BKN012;EQDQ01+000000PRSWM2
0145061600999992000072608504+55760+012320FM-15+0031EKVL V02099999999992200019N0112651N1+02101+01501999999ADDGA1021+006009999GF104991999999999999999999MA1100511999999MW1001REMMET051EKVL 260850Z VRB05KT 9999 SCT020 21/15 Q1005 NOSIG;EQDQ01+000000PRSWM2
0150061600999992000072716504+55760+012320FM-15+0031EKVL V0202801N005712200019N0112651N1+01901+01501999999ADDGA1021+007509029GF104991999999999999999999MA1101191999999MW1001REMMET056EKVL 271650Z 28011KT 260V320 9999 SCT025TCU 19/15 Q1012;EQDQ01+000000PRSWM2
0185061600999992000072909504+55760+012320FM-15+0031EKVL V0201601N000510069019N0112651N1+01801+01501999999ADDGA1021+003609999GA2071+006909999GA3071+018009999GF107991999999999999999999MA1101081999999MW1001REMMET059EKVL 290950Z 16001KT 9999 SCT012 BKN023 BKN060 18/15 Q1011;EQDQ01+000000PRSWM2
0195061600999992000080509004+55760+012320FM-12+0031EKVL V0202601N00461012001CN0250001N1+01551+01301102151ADDAA199000091GA1021+006009089GF107991071081008001071011MA1999999101781MD1210091+9999REMSYN082AAXX  05094 06160 32575 72609 10155 20130 30178 40215 52009 87871 333 82820 86630;EQDQ01  00002PRCP99
0185061600999992000080514504+55760+012320FM-15+0031EKVL V0202501N005110066019N0112651N1+01701+01401999999ADDGA1021+006009999GA2071+006609999GA3071+010509999GF107991999999999999999999MA1102101999999MW1001REMMET059EKVL 051450Z 25010KT 9999 FEW020 BKN022 BKN035 17/14 Q1021;EQDQ01+000000PRSWM2
0145061600999992000080705504+55760+012320FM-15+0031EKVL V0202901N007712200019N0112651N1+01301+00901999999ADDGA1021+010209999GF104991999999999999999999MA1101491999999MW1001REMMET051EKVL 070550Z 29015KT 9999 SCT034 13/09 Q1015 NOSIG;EQDQ01+000000PRSWM2
0162061600999992000080720504+55760+012320FM-15+0031EKVL V0202701N006710135019N0112651N1+01301+00901999999ADDGA1021+009009999GA2071+013509999GF107991999999999999999999MA1101391999999MW1001REMMET052EKVL 072050Z 27013KT 9999 FEW030 BKN045 13/09 Q1014;EQDQ01+000000PRSWM2
0162061600999992000080815504+55760+012320FM-15+0031EKVL V0202801N006210150019N0112651N1+01601+00901999999ADDGA1021+010509999GA2071+015009999GF107991999999999999999999MA1101391999999MW1001REMMET052EKVL 081550Z 28012KT 9999 FEW035 BKN050 16/09 Q1014;EQDQ01+000000PRSWM2
0191061600999992000081006504+55760+012320FM-15+0031EKVL V0201901N001510600019N0112651N1+01301+01201999999ADDGA1021+013509999GA2021+036009999GA3071+060009999GF107991999999999999999999MA1101491999999MW1001REMMET065EKVL 100650Z 19003KT 9999 FEW045 SCT120 BKN200 13/12 Q1015 NOSIG;EQDQ01+000000PRSWM2
0117061600999992000081013504+55760+012320FM-15+0031EKVL V0201501N00411220001CN0099001N1+01601+01401999999ADDMA1101291999999MW1001REMMET065EKVL 101350Z 15008KT 120V180 CAVOK 16/14 Q1013 RMK SCT060 BKN090;EQDQ01+000000PRSWM2
0276061600999992000081118004+55760+012320FM-12+0031EKVL V0202801N003610066019N0250001N1+01521+01461101111ADDAA103999929AY181061AY221061GA1021+005409089GA2031+006609069GF108991081051004501999999KA1120M+01741KA2120N+01521MA1999999100751MD1210031+9999MW1251REMSYN118AAXX  11184 06160 /1475 82807 10152 20146 30075 40111 52003 69922 72582 885// 333 10174 20152 69907 82818 83622 87635;
0139061600999992000081307504+55760+012320FM-15+0031EKVL V0200201N000512200019N0112651N1+01501+01101999999ADDGA1021+004809999GF104991999999999999999999MA1101901999999MW1001REMMET045EKVL 130750Z 02001KT 9999 SCT016 15/11 Q1019;EQDQ01+000000PRSWM2
0162061600999992000081514504+55760+012320FM-15+0031EKVL V0202501N005710600019N0112651N1+02201+01801999999ADDGA1021+010509999GA2081+060009999GF108991999999999999999999MA1101391999999MW1001REMMET052EKVL 151450Z 25011KT 9999 FEW035 OVC200 22/18 Q1014;EQDQ01+000000PRSWM2
0162061600999992000081912504+55760+012320FM-15+0031EKVL V0201301N004610060019N0112651N1+01801+01501999999ADDGA1071+006009999GA2071+060009999GF107991999999999999999999MA1101291999999MW1001REMMET052EKVL 191250Z 13009KT 9999 BKN020 BKN200 18/15 Q1013;EQDQ01+000000PRSWM2
0195061600999992000082100004+55760+012320FM-12+0031EKVL V0201701N000512200019N0500001N1+00921+00911101221ADDAA199000091GA1011+013509089GF103991011011012501001011MA1999999100851MD1710071+9999REMSYN082AAXX  21004 06160 32684 31701 10092 20091 30085 40122 57007 81101 333 81845 83070;EQDQ01  00002PRCP99
0139061600999992000082118504+55760+012320FM-15+0031EKVL V0209999C000012200019N0112651N1+01301+01001999999ADDGA1021+006609999GF102991999999999999999999MA1101291999999MW1001REMMET045EKVL 211850Z 00000KT 9999 FEW022 13/10 Q1013;EQDQ01+000000PRSWM2
0257061600999992000082206004+55760+012320FM-12+0031EKVL V0202501N00361030001CN0200001N1+01151+01101101561ADDAA199000091GA1021+009309019GF106991021011008001031011IA1099IA2999+00059KA1120M+01501KA2120N+00701MA1999999101191MD1310051+9999REMSYN100333X  22064 06160 32570 62507 10115 20110 30119 40156 53005 82131 333 10150 20070 31005 82822 86362;EQDQ01  00002PRCP99
0170061600999992000082516504+55760+012320FM-15+0031EKVL V0203401N002110600019N0112651N1+01801+00901999999ADDGA1021+010509999GA2071+060009999GF107991999999999999999999MA1102101999999MW1001REMMET060EKVL 251650Z 34004KT 310V010 9999 FEW035 BKN200 18/09 Q1021;EQDQ01+000000PRSWM2
0160061600999992000082601504+55760+012320FM-15+0031EKVL V0209999C000012200019N0112651N1+00601+00601999999ADDGA1021+060009999GF104991999999999999999999MA1102301999999MW1121REMMET050EKVL 260150Z 00000KT 9999 MIFG SCT200 06/06 Q1023;EQDQ01+000003PRSWM1Q02    003PRSWM1
0170061600999992000082609504+55760+012320FM-15+0031EKVL V0201101N003612200019N0112651N1+02001+01201999999ADDGA1021+007509999GA2021+060009999GF104991999999999999999999MA1102301999999MW1001REMMET060EKVL 260950Z 11007KT 080V150 9999 FEW025 SCT200 20/12 Q1023;EQDQ01+000000PRSWM2
0139061600999992000090515504+55760+012320FM-15+0031EKVL V0201001N002112200019N0112651N1+01401+00801999999ADDGA1021+013509999GF102991999999999999999999MA1101801999999MW1001REMMET045EKVL 051550Z 10004KT 9999 FEW045 14/08 Q1018;EQDQ01+000000PRSWM2
0195061600999992000090603004+55760+012320FM-12+0031EKVL V0209999C00001030001CN0250001N1+01021+00991101611ADDAA199000091GA1011+007509069GF107991011051008001071011MA1999999101241MD1710161+9999REMSYN082AAXX  06034 06160 32575 70000 10102 20099 30124 40161 57016 81571 333 81625 87356;EQDQ01  00002PRCP99
0210061600999992000090618504+55760+012320FM-15+0031EKVL V0201401N005110090019N0050001N1+01301+01301999999ADDGA1021+003009999GA2071+009009999GA3071+021009999GF107991999999999999999999MA1100611999999MW1611REMMET068EKVL 061850Z 14010KT 5000 -RA FEW010 BKN030 BKN070 13/13 Q1006 RERA;EQDQ01+000003PRSWM1Q02    003PRSWM1
0210061600999992000090702504+55760+012320FM-15+0031EKVL V0201101N004610105019N0080001N1+01301+01301999999ADDGA1021+004509999GA2071+010509999GA3071+021009999GF107991999999999999999999MA1100411999999MW1611REMMET068EKVL 070250Z 11009KT 8000 -RA FEW015 BKN035 BKN070 13/13 Q1004 RERA;EQDQ01+000003PRSWM1Q02    003PRSWM1
0190061600999992000090800204+55760+012320FM-15+0031EKVL V0202001N002610270019N0090001N1+01401+01401999999ADDGA1021+006009999GA2071+027009999GF107991999999999999999999MA1101291999999MW1511MW2611REMMET058EKVL 080020Z 20005KT 9000 -DZRA FEW020 BKN090 14/14 Q1013;EQDQ01+000003PRSWM1Q02    003PRSWM1
0162061600999992000090821504+55760+012320FM-15+0031EKVL V0202401N003110300019N0112651N1+01401+01301999999ADDGA1021+012609999GA2071+030009999GF107991999999999999999999MA1101691999999MW1001REMMET052EKVL 082150Z 24006KT 9999 FEW042 BKN100 14/13 Q1017;EQDQ01+000000PRSWM2
0170061600999992000091114504+55760+012320FM-15+0031EKVL V0203101N004610600019N0112651N1+01501+00901999999ADDGA1021+010509999GA2071+060009999GF107991999999999999999999MA1101801999999MW1001REMMET060EKVL 111450Z 31009KT 280V350 9999 SCT035 BKN200 15/09 Q1018;EQDQ01+000000PRSWM2
0170061600999992000092003504+55760+012320FM-15+0031EKVL V0200801N004610123019N0112651N1+01101+01001999999ADDGA1021+009009999GA2071+012309999GF107991999999999999999999MA1101691999999MW1001REMMET060EKVL 200350Z 08009KT 050V120 9999 FEW030 BKN041 11/10 Q1017;EQDQ01+000000PRSWM2
0223061600999992000092009004+55760+012320FM-12+0031EKVL V0201001N004610066019N0300001N1+01151+01121101901ADDAA199000091GA1031+004509069GA2031+006609069GF107991071051004501001011MA1999999101531MD1210081+9999REMSYN094AAXX  20094 06160 32480 71009 10115 20112 30153 40190 52008 87501 90915 333 83615 83622 86640;EQDQ01  00002PRCP99
0139061600999992000092102504+55760+012320FM-15+0031EKVL V0200901N004112200019N0112651N1+01001+01001999999ADDGA1021+010509999GF104991999999999999999999MA1102101999999MW1001REMMET045EKVL 210250Z 09008KT 9999 SCT035 10/10 Q1021;EQDQ01+000000PRSWM2
0217061600999992000092303004+55760+012320FM-12+0031EKVL V0200801N002112200019N0080001N1+00801+00791103141ADDAA199000091AY101031AY201031GA1011+060009019GF101991001001999999001011MA1999999102761MD1410001+9999MW1111REMSYN082AAXX  23034 06160 31958 10804 10080 20079 30276 40314 54000 71100 80001 333 81070;EQDQ01  00002PRCP99
0227061600999992000092418004+55760+012320FM-12+0031EKVL V0200901N003612200019N0300001N1+00991+00401102871ADDAA199000091GA1011+060009019GF101991001001999999001011KA1120M+01531KA2120N+00801MA1999999102491MD1310011+9999REMSYN088AAXX  24184 06160 32980 10907 10099 20040 30249 40287 53001 80001 333 10153 20080 81070;EQDQ01  00002PRCP99
0245061600999992000100509004+55760+012320FM-12+0031EKVL V0201601N001510210019N0045001N1+01291+01281101791ADDAA199000091AY141031AY221031GA1021+002409079GA2051+021009069GF105991021051002501001011MA1999999101421MD1410001+9999MW1101REMSYN094AAXX  05094 06160 31345 51603 10129 20128 30142 40179 54000 71042 82501 333 82708 85657 85070;EQDQ01  00002PRCP99
0162061600999992000101318504+55760+012320FM-15+0031EKVL V0201801N001010120019N0070001N1+01201+01101999999ADDGA1021+001509999GA2071+012009999GF107991999999999999999999MA1101391999999MW1001REMMET052EKVL 131850Z 18002KT 7000 FEW005 BKN040 12/11 Q1014;EQDQ01+000000PRSWM2
0181061600999992000101410504+55760+012320FM-15+0031EKVL V0202301N001510030019N0038001N1+01101+01101999999ADDGA1021+001509999GA2071+003009999GF107991999999999999999999MA1101691999999MW1101REMMET055EKVL 141050Z 23003KT 3800 BR SCT005 BKN010 11/11 Q1017;EQDQ01+000003PRSWM1Q02    003PRSWM1
0196061600999992000101900504+55760+012320FM-15+0031EKVL V0201001N002112200019N0003001N1+00601+00601999999ADDED199U07009GA1021+004509999GF104991999999999999999999MA1102401999999MW1411REMMET075EKVL 190050Z 10004KT 0300 R10/0700N R28/0550V0800D BCFG SCT015 06/06 Q1024;EQDQ01+000003PRSWM1Q02    003PRSWM1
0210061600999992000110116504+55760+012320FM-15+0031EKVL V0201701N005710126019N0112651N1+01001+00701999999ADDGA1021+007509029GA2071+012609999GA3071+060009999GF107991999999999999999999MA1099701999999MW1801REMMET068EKVL 011650Z 17011KT 9999 -SHRA FEW025TCU BKN042 BKN200 10/07 Q0997;EQDQ01+000003PRSWM1Q02    003PRSWM1
0173061600999992000110415504+55760+012320FM-15+0031EKVL V0202001N002610150019N0112651N1+00701+00701999999ADDGA1021+012009029GA2071+015009999GF107991999999999999999999MA1100711999999MW1001REMMET063EKVL 041550Z 20005KT 170V230 9999 FEW040TCU BKN050 07/07 Q1007;EQDQ01+000000PRSWM2
0176061600999992000111010504+55760+012320FM-15+0031EKVL V0201901N004110039019N0112651N1+00801+00801999999ADDGA1021+003009999GA2071+003909999GF107991999999999999999999MA1100811999999MW1001REMMET066EKVL 101050Z 19008KT 160V220 9999 FEW010 BKN013 08/08 Q1008 NOSIG;EQDQ01+000000PRSWM2
0170061600999992000111113504+55760+012320FM-15+0031EKVL V0201801N003610045019N0112651N1+00701+00601999999ADDGA1021+003609999GA2071+004509999GF107991999999999999999999MA1101391999999MW1001REMMET060EKVL 111350Z 18007KT 160V220 9999 FEW012 BKN015 07/06 Q1014;EQDQ01+000000PRSWM2
0205061600999992000111510504+55760+012320FM-15+0031EKVL V0201901N002112200019N0027001N1+00701+00701999999ADDGA1021+001209999GA2021+011409999GF104991999999999999999999MA1101191999999MW1101REMMET079EKVL 151050Z 19004KT 2700 BR SCT004 SCT038 07/07 Q1012 BECMG 5000 TEMPO BKN004;EQDQ01+000003PRSWM1Q02    003PRSWM1
0261061600999992000112518004+55760+012320FM-12+0031EKVL V0201301N00361030001CN0060001N1+00461+00451100951ADDAA199000091AY121061AY221061GA1021+003009079GF107991021061004501031011KA1120M+00641KA2120N+00351MA1999999100571MD1710111+9999MW1101REMSYN100AAXX  25184 06160 31456 71307 10046 20045 30057 40095 57011 71022 82631 333 10064 20035 82710 86070;EQDQ01  00002PRCP99
0223061600999992000112521004+55760+012320FM-12+0031EKVL V0201201N00311220001CN0060001N1+00371+00361100791ADDAA199000091AY121031AY221031GA1021+004809069GF106991021051004501001011MA1999999100411MD1710161+9999MW1101REMSYN088AAXX  25214 06160 31456 61206 10037 20036 30041 40079 57016 71022 82501 333 82616 85070;EQDQ01  00002PRCP99
0182061600999992000112604504+55760+012320FM-15+0031EKVL V0201001N004610048019N0080001N1+00701+00701999999ADDGA1021+003009999GA2071+004809999GF107991999999999999999999MA1100101999999MW1611REMMET056EKVL 260450Z 10009KT 8000 -RA SCT010 BKN016 07/07 Q1001;EQDQ01+000003PRSWM1Q02    003PRSWM1
0102061600999992000113020504+55760+012320FM-15+0031EKVL V0202801N00051220001CN0099001N1+00501+00501999999ADDMA1101691999999MW1001REMMET050EKVL 302050Z 28001KT CAVOK 05/05 Q1017 RMK FEW200;EQDQ01+000000PRSWM2
0229061600999992000120400004+55760+012320FM-12+0031EKVL V0202501N005710042019N0100001N1+00761+00711101501ADDAA103999999AY151061AY221061GA1071+004209059GF108991081051004501999999MA1999999101121MD1210181+9999MW1021REMSYN094AAXX  04004 06160 /1460 82511 10076 20071 30112 40150 52018 69901 70252 885// 333 69907 87614;EQDQ01  99992PRCP03
0175061600999992000120606504+55760+012320FM-15+0031EKVL V0201501N005110600019N0070001N1+00701+00701999999ADDGA1021+002409999GA2071+060009999GF107991999999999999999999MA1101391999999MW1001REMMET065EKVL 060650Z 15010KT 7000 FEW008 BKN200 07/07 Q1014 TEMPO BKN006;EQDQ01+000000PRSWM2
0170061600999992000120709004+55760+012320FM-12+0031EKVL V0202001N003610060019N0120001N1+00741+00731101081ADDAA199000021GA1071+006009059GF107991071051008001031021MA1999999100711MD1210121+9999REMSYN076AAXX  07094 06160 32562 72007 10074 20073 30071 40108 52012 87532 333 87620;
0251061600999992000120906004+55760+012320FM-12+0031EKVL V0201701N003612200019N0200001N1+00661+00651100741ADDAA199000091GA1011+010509059GF101991011051012501001001IA1019IA2999+00059KA1120M+00871KA2120N+00601MA1999999100371MD1710011+9999REMSYN094333X  09064 06160 32670 11707 10066 20065 30037 40074 57001 81500 333 10087 20060 30005 81635;EQDQ01  00002PRCP99
0181061600999992000121204424+55760+012320FM-16+0031EKVL V0202901N000510012019N0040001N1+00901+00901999999ADDGA1071+001209999GA2071+007509999GF107991999999999999999999MA1101021999999MW1101REMMET055EKVL 120442Z 29001KT 4000 BR BKN004 BKN025 09/09 Q1010;EQDQ01+000003PRSWM1Q02    003PRSWM1
0238061600999992000121400004+55760+012320FM-12+0031EKVL V0202301N005110105019N0120001N1+00561+00531099431ADDAA103003091AY181061AY221061GA1011+006009099GA2061+010509069GF107991071091008001999999MA1999999099061MD1710221+9999MW1801REMSYN106AAXX  14004 06160 /1562 72310 10056 20053 39906 49943 57022 60031 78082 879// 333 60037 81920 86635 91131;
0185061600999992000121401504+55760+012320FM-15+0031EKVL V0202301N005710090019N0112651N1+00601+00601999999ADDGA1021+002709999GA2021+004509999GA3071+009009999GF107991999999999999999999MA1099191999999MW1001REMMET059EKVL 140150Z 23011KT 9999 FEW009 SCT015 BKN030 06/06 Q0992;EQDQ01+000000PRSWM2
0176061600999992000121913504+55760+012320FM-15+0031EKVL V0200201N002610030019N0112651N1+00001+00001999999ADDGA1021+002409999GA2071+003009999GF107991999999999999999999MA1102911999999MW1001REMMET066EKVL 191350Z 02005KT 340V050 9999 FEW008 BKN010 00/00 Q1029 NOSIG;EQDQ01+000000PRSWM2
0149061600999992000122423504+55760+012320FM-15+0031EKVL V0200101N002610090019N0112651N1-00201-00301999999ADDGA1071+009009999GF107991999999999999999999MA1100511999999MW1001REMMET055EKVL 242350Z 01005KT 340V050 9999 BKN030 M02/M03 Q1005;EQDQ01+000000PRSWM2
0257061600999992000122506004+55760+012320FM-12+0031EKVL V0200301N00411004201CN0300001N1-00291-00511100411ADDAA199000091GA1031+005409069GF107991071051004501001001IA1099IA2999-00059KA1120M-00091KA2120N-00431MA1999999100021MD1710071+9999REMSYN100AAXX  25064 06160 32480 70308 11029 21051 30002 40041 57007 87500 333 11009 21043 31105 83618 86625;EQDQ01  00002PRCP99
0204061600999992000122809504+55760+012320FM-15+0031EKVL V0201301N002610018019N0025001N1+00201+00201999999ADDGA1021+001209999GA2071+001809999GA3081+003009999GF108991999999999999999999MA1099091999999MW1101REMMET062EKVL 280950Z 13005KT 2500 BR FEW004 BKN006 OVC010 02/02 Q0991;EQDQ01+000003PRSWM1Q02    003PRSWM1
0231061600999992000122812504+55760+012320FM-15+0031EKVL V0201501N002610012019N0012001N1+00301+00301999999ADDED199U20009GA1021+000909999GA2071+001209999GF107991999999999999999999MA1098981999999MW1511MW2611REMMET088EKVL 281250Z 15005KT 120V180 1200 R10/P2000N R28/P2000N -DZRA FEW003 BKN004 03/03 Q0990;EQDQ01+000003PRSWM1Q02    003PRSWM1
0204061600999992000122907504+55760+012320FM-15+0031EKVL V0201801N004110024019N0050001N1+00001+00001999999ADDGA1071+002409999GA2071+009009999GF107991999999999999999999KA1999M+99999MA1098821999999MW1101REMMET065EKVL 290750Z 18008KT 5000 BR BKN008 BKN030 00/M00 Q0988 10701995;EQDQ01+000003PRSWM1Q02    003PRSWM1
0101061680999992000010712004+56120+012350FM-12+003599999V0202001N006219999999N9999999N1+00331+00091101631ADDMA1999999101091MD1710111+9999REMSYN060AAXX  07124 06168 46/// /2012 10033 20009 30109 40163 57011;
0111061680999992000012112004+56120+012350FM-12+003599999V0203501N015919999999N9999999N1-00141-00811101771ADDMA1999999101221MD1210261+9999REMSYN070AAXX  21124 06168 46/// /3531 11014 21081 30122 40177 52026 333 91148;
0101061680999992000020609004+56120+012350FM-12+003599999V0202401N008719999999N9999999N1+00601+00371101331ADDMA1999999100801MD1210071+9999REMSYN060AAXX  06094 06168 46/// /2417 10060 20037 30080 40133 52007;
0166061680999992000020918004+56120+012350FM-12+003599999V0203301N012919999999N9999999N1+00241+00071100641ADDKA1120M+00451KA2120N+00231MA1999999100101MD1210671+9999OA149901651REMSYN088AAXX  09184 06168 46/// /3325 10024 20007 30010 40064 52067 333 10045 20023 91132 91236;
0111061680999992000022711004+56120+012350FM-12+003599999V0201901N010319999999N9999999N1+00531-00041102171ADDMA1999999101631MD1710211+9999REMSYN070AAXX  27114 06168 46/// /1920 10053 21004 30163 40217 57021 333 91128;
0111061680999992000022900004+56120+012350FM-12+003599999V0202201N007719999999N9999999N1+00281+00081100661ADDMA1999999100121MD1210101+9999REMSYN070AAXX  29004 06168 46/// /2215 10028 20008 30012 40066 52010 333 91130;
0149061680999992000030218004+56120+012350FM-12+003599999V0201901N006719999999N9999999N1+00231-00221100561ADDKA1120M+00451KA2120N+00161MA1999999100021MD1710281+9999REMSYN082AAXX  02184 06168 46/// /1913 10023 21022 30002 40056 57028 333 10045 20016 91127;
0101061680999992000031313004+56120+012350FM-12+003599999V0202201N007219999999N9999999N1+00361+00251101791ADDMA1999999101251MD1710141+9999REMSYN060AAXX  13134 06168 46/// /2214 10036 20025 30125 40179 57014;
0101061680999992000031709004+56120+012350FM-12+003599999V0200101N004619999999N9999999N1+00171-00241102351ADDMA1999999101801MD1210201+9999REMSYN060AAXX  17094 06168 46/// /0109 10017 21024 30180 40235 52020;
0111061680999992000032000004+56120+012350FM-12+003599999V0202601N005119999999N9999999N1+00431+00231102641ADDMA1999999102101MD1710061+9999REMSYN070AAXX  20004 06168 46/// /2610 10043 20023 30210 40264 57006 333 91124;
0101061680999992000032323004+56120+012350FM-12+003599999V0203001N002619999999N9999999N1+00111-00121101721ADDMA1999999101171MD1210061+9999REMSYN060AAXX  23234 06168 46/// /3005 10011 21012 30117 40172 52006;
0101061680999992000032513004+56120+012350FM-12+003599999V0201501N005719999999N9999999N1+00241-00051101301ADDMA1999999100761MD1710041+9999REMSYN060AAXX  25134 06168 46/// /1511 10024 21005 30076 40130 57004;
0101061680999992000032701004+56120+012350FM-12+003599999V0201801N003119999999N9999999N1+00281+00191100881ADDMA1999999100351MD1210101+9999REMSYN060AAXX  27014 06168 46/// /1806 10028 20019 30035 40088 52010;
0101061680999992000041323004+56120+012350FM-12+003599999V0202101N004619999999N9999999N1+00501+00241099231ADDMA1999999098711MD1210021+9999REMSYN060AAXX  13234 06168 46/// /2109 10050 20024 39871 49923 52002;
0143061680999992000042418004+56120+012350FM-12+003599999V0202801N004619999999N9999999N1+00841+00731100921ADDKA1120M+01081KA2999N+00831MA1999999100391MD1210171+9999REMSYN076AAXX  24184 06168 46/// /2809 10084 20073 30039 40092 52017 333 10108 20083;
0101061680999992000042617004+56120+012350FM-12+003599999V0201401N006719999999N9999999N1+01421+00841101511ADDMA1999999100991MD1710061+9999REMSYN060AAXX  26174 06168 46/// /1413 10142 20084 30099 40151 57006;
0101061680999992000042819004+56120+012350FM-12+003599999V0201101N007219999999N9999999N1+01631+00941101641ADDMA1999999101131MD1210091+9999REMSYN060AAXX  28194 06168 46/// /1114 10163 20094 30113 40164 52009;
0101061680999992000042923004+56120+012350FM-12+003599999V0201201N006719999999N9999999N1+01661+00811101951ADDMA1999999101441MD1210081+9999REMSYN060AAXX  29234 06168 46/// /1213 10166 20081 30144 40195 52008;
0101061680999992000050220004+56120+012350FM-12+003599999V0201401N004619999999N9999999N1+00871-00251102601ADDMA1999999102071MD1210011+9999REMSYN060AAXX  02204 06168 46/// /1409 10087 21025 30207 40260 52001;
0101061680999992000050619004+56120+012350FM-12+003599999V0201401N005719999999N9999999N1+01141+00161102331ADDMA1999999101811MD1210111+9999REMSYN060AAXX  06194 06168 46/// /1411 10114 20016 30181 40233 52011;
0101061680999992000050813004+56120+012350FM-12+003599999V0203401N004119999999N9999999N1+01371+00921102381ADDMA1999999101861MD1710101+9999REMSYN060AAXX  08134 06168 46/// /3408 10137 20092 30186 40238 57010;
0101061680999992000051313004+56120+012350FM-12+003599999V0202801N004119999999N9999999N1+01791+00221102681ADDMA1999999102161MD1710091+9999REMSYN060AAXX  13134 06168 46/// /2808 10179 20022 30216 40268 57009;
0101061680999992000051623004+56120+012350FM-12+003599999V0201501N005719999999N9999999N1+01531+00981101301ADDMA1999999100791MD1710061+9999REMSYN060AAXX  16234 06168 46/// /1511 10153 20098 30079 40130 57006;
0111061680999992000052816004+56120+012350FM-12+003599999V0201301N008219999999N9999999N1+01221+00531100091ADDMA1999999099571MD1710311+9999REMSYN070AAXX  28164 06168 46/// /1316 10122 20053 39957 40009 57031 333 91133;
0111061680999992000052909004+56120+012350FM-12+003599999V0202001N009819999999N9999999N1+00901+00711099551ADDMA1999999099031MD1210111+9999REMSYN070AAXX  29094 06168 46/// /2019 10090 20071 39903 49955 52011 333 91135;
0111061680999992000053015004+56120+012350FM-12+003599999V0202601N006719999999N9999999N1+01271+00301101061ADDMA1999999100541MD1210021+9999REMSYN070AAXX  30154 06168 46/// /2613 10127 20030 30054 40106 52002 333 91128;
0101061680999992000053105004+56120+012350FM-12+003599999V0202901N006719999999N9999999N1+00841+00391101351ADDMA1999999100821MD1210111+9999REMSYN060AAXX  31054 06168 46/// /2913 10084 20039 30082 40135 52011;
0101061680999992000060305004+56120+012350FM-12+003599999V0203001N007219999999N9999999N1+00871+00491101941ADDMA1999999101411MD1210171+9999REMSYN060AAXX  03054 06168 46/// /3014 10087 20049 30141 40194 52017;
0101061680999992000060317004+56120+012350FM-12+003599999V0203101N004619999999N9999999N1+01221+00431102151ADDMA1999999101621MD1710101+9999REMSYN060AAXX  03174 06168 46/// /3109 10122 20043 30162 40215 57010;
0101061680999992000060403004+56120+012350FM-12+003599999V0203301N003119999999N9999999N1+00801+00441102041ADDMA1999999101501MD1710111+9999REMSYN060AAXX  04034 06168 46/// /3306 10080 20044 30150 40204 57011;
0111061680999992000060717004+56120+012350FM-12+003599999V0202701N005719999999N9999999N1+01231+00771101401ADDMA1999999100881MD1210031+9999REMSYN070AAXX  07174 06168 46/// /2711 10123 20077 30088 40140 52003 333 91123;
0111061680999992000060801004+56120+012350FM-12+003599999V0202901N010319999999N9999999N1+00921+00541101651ADDMA1999999101121MD1210081+9999REMSYN070AAXX  08014 06168 46/// /2920 10092 20054 30112 40165 52008 333 91130;
0143061680999992000061006004+56120+012350FM-12+003599999V0201601N007719999999N9999999N1+01471+00851101631ADDKA1120M+01781KA2999N+01101MA1999999101111MD1710081+9999REMSYN076AAXX  10064 06168 46/// /1615 10147 20085 30111 40163 57008 333 10178 20110;
0101061680999992000061511004+56110+012350FM-12+003599999V0203001N009319999999N9999999N1+01291+00561101621ADDMA1999999101101MD1710011+9999REMSYN060AAXX  15114 06168 46/// /3018 10129 20056 30110 40162 57001;
0143061680999992000061918004+56110+012350FM-12+003599999V0201701N005119999999N9999999N1+02321+01071101651ADDKA1120M+02641KA2999N+01331MA1999999101141MD1710121+9999REMSYN076AAXX  19184 06168 46/// /1710 10232 20107 30114 40165 57012 333 10264 20133;
0111061680999992000062607004+56110+012350FM-12+003599999V0202801N007719999999N9999999N1+01321+01091100671ADDMA1999999100161MD1210031+9999REMSYN070AAXX  26074 06168 46/// /2815 10132 20109 30016 40067 52003 333 91124;
0101061680999992000070313004+56110+012350FM-12+003599999V0203501N004619999999N9999999N1+01931+01331101241ADDMA1999999100731MD1710081+9999REMSYN060AAXX  03134 06168 46/// /3509 10193 20133 30073 40124 57008;
0101061680999992000070720004+56110+012350FM-12+003599999V0202701N005719999999N9999999N1+01151+00391101011ADDMA1999999100491MD1710071+9999REMSYN060AAXX  07204 06168 46/// /2711 10115 20039 30049 40101 57007;
0101061680999992000071712004+56110+012350FM-12+003599999V0202801N005119999999N9999999N1+01691+01231101291ADDMA1999999100781MD1710011+9999REMSYN060AAXX  17124 06168 46/// /2810 10169 20123 30078 40129 57001;
0101061680999992000072217004+56110+012350FM-12+003599999V0203501N002619999999N9999999N1+01951+01581101781ADDMA1999999101271MD1410001+9999REMSYN060AAXX  22174 06168 46/// /3505 10195 20158 30127 40178 54000;
0101061680999992000072219004+56110+012350FM-12+003599999V0203201N002119999999N9999999N1+01811+01531101771ADDMA1999999101261MD1710031+9999REMSYN060AAXX  22194 06168 46/// /3204 10181 20153 30126 40177 57003;
0101061680999992000072801004+56110+012350FM-12+003599999V0202901N004119999999N9999999N1+01551+01411101121ADDMA1999999100611MD1710051+9999REMSYN060AAXX  28014 06168 46/// /2908 10155 20141 30061 40112 57005;
0143061680999992000073018004+56110+012350FM-12+003599999V0202801N005719999999N9999999N1+01631+01251101691ADDKA1120M+01841KA2999N+01631MA1999999101181MD1210051+9999REMSYN076AAXX  30184 06168 46/// /2811 10163 20125 30118 40169 52005 333 10184 20163;
0101061680999992000080114004+56110+012350FM-12+003599999V0202301N004119999999N9999999N1+01811+01521101661ADDMA1999999101151MD1710101+9999REMSYN060AAXX  01144 06168 46/// /2308 10181 20152 30115 40166 57010;
0101061680999992000080316004+56110+012350FM-12+003599999V0203001N001019999999N9999999N1+01871+01371101401ADDMA1999999100891MD1210031+9999REMSYN060AAXX  03164 06168 46/// /3002 10187 20137 30089 40140 52003;
0101061680999992000080520004+56110+012350FM-12+003599999V0202401N004119999999N9999999N1+01611+01281101991ADDMA1999999101481MD1710011+9999REMSYN060AAXX  05204 06168 46/// /2408 10161 20128 30148 40199 57001;
0101061680999992000081103004+56110+012350FM-12+003599999V0202401N004119999999N9999999N1+01551+01441100811ADDMA1999999100291MD1710081+9999REMSYN060AAXX  11034 06168 46/// /2408 10155 20144 30029 40081 57008;
0111061680999992000082012004+56110+012350FM-12+003599999V0202601N006719999999N9999999N1+01901+01001101041ADDMA1999999100531MD1710021+9999REMSYN070AAXX  20124 06168 46/// /2613 10190 20100 30053 40104 57002 333 91121;
0117061680999992000082408004+56110+012350FM-12+003599999V0202601N006219999999N9999999N1+01501+01031101731ADDMA1999999101211MD1710151+9999REMSYN076AAXX  24084 06168 46/// /2612 10150 20103 30121 40173 57015 333 91023 91126;
0101061680999992000082607004+56110+012350FM-12+003599999V0201301N003119999999N9999999N1+01391+01041102321ADDMA1999999101801MD1210061+9999REMSYN060AAXX  26074 06168 46/// /1306 10139 20104 30180 40232 52006;
0101061680999992000082621004+56110+012350FM-12+003599999V0201401N007219999999N9999999N1+01391+00961102121ADDMA1999999101591MD1710021+9999REMSYN060AAXX  26214 06168 46/// /1414 10139 20096 30159 40212 57002;
0117061680999992000090813004+56110+012350FM-12+003599999V0202601N006219999999N9999999N1+01801+01261101371ADDMA1999999100861MD1210111+9999REMSYN076AAXX  08134 06168 46/// /2612 10180 20126 30086 40137 52011 333 91023 91125;
0143061680999992000091118004+56110+012350FM-12+003599999V0203201N007219999999N9999999N1+01221+00671101761ADDKA1120M+01361KA2999N+01181MA1999999101241MD1710041+9999REMSYN076AAXX  11184 06168 46/// /3214 10122 20067 30124 40176 57004 333 10136 20118;
0101061680999992000091208004+56110+012350FM-12+003599999V0201501N001519999999N9999999N1+01041+00701101761ADDMA1999999101241MD1210051+9999REMSYN060AAXX  12084 06168 46/// /1503 10104 20070 30124 40176 52005;
0101061680999992000091408004+56110+012350FM-12+003599999V0201001N005719999999N9999999N1+01071+00831101671ADDMA1999999101151MD1210171+9999REMSYN060AAXX  14084 06168 46/// /1011 10107 20083 30115 40167 52017;
0101061680999992000091821004+56110+012350FM-12+003599999V0201301N008219999999N9999999N1+00911+00501101561ADDMA1999999101031MD1210021+9999REMSYN060AAXX  18214 06168 46/// /1316 10091 20050 30103 40156 52002;
0101061680999992000092504004+56110+012350FM-12+003599999V0200901N004119999999N9999999N1+00791+00551102711ADDMA1999999102171MD1710091+9999REMSYN060AAXX  25044 06168 46/// /0908 10079 20055 30217 40271 57009;
0101061680999992000101713004+56110+012350FM-12+003599999V0202301N002619999999N9999999N1+01291+00851102101ADDMA1999999101581MD1210121+9999REMSYN060AAXX  17134 06168 46/// /2305 10129 20085 30158 40210 52012;
0117061680999992000102612004+56110+012350FM-12+003599999V0202501N007719999999N9999999N1+01091+00561099961ADDMA1999999099451MD1210061+9999REMSYN076AAXX  26124 06168 46/// /2515 10109 20056 39945 49996 52006 333 91026 91128;
0101061680999992000110321004+56110+012350FM-12+003599999V0201601N004119999999N9999999N1+00721+00601100271ADDMA1999999099741MD1210141+9999REMSYN060AAXX  03214 06168 46/// /1608 10072 20060 39974 40027 52014;
0101061680999992000110821004+56110+012350FM-12+003599999V0201701N005119999999N9999999N1+00861+00521099641ADDMA1999999099131MD1210131+9999REMSYN060AAXX  08214 06168 46/// /1710 10086 20052 39913 49964 52013;
0101061680999992000111817004+56110+012350FM-12+003599999V0202001N006719999999N9999999N1+00351+00161100441ADDMA1999999099911MD1710061+9999REMSYN060AAXX  18174 06168 46/// /2013 10035 20016 39991 40044 57006;
0101061680999992000112214004+56110+012350FM-12+003599999V0201801N004619999999N9999999N1+00611+00401100851ADDMA1999999100321MD1210171+9999REMSYN060AAXX  22144 06168 46/// /1809 10061 20040 30032 40085 52017;
0101061680999992000112222004+56110+012350FM-12+003599999V0201401N007219999999N9999999N1+00671+00501100791ADDMA1999999100261MD1710051+9999REMSYN060AAXX  22224 06168 46/// /1414 10067 20050 30026 40079 57005;
0101061680999992000112420004+56110+012350FM-12+003599999V0202001N004119999999N9999999N1+00601+00491100691ADDMA1999999100161MD1210091+9999REMSYN060AAXX  24204 06168 46/// /2008 10060 20049 30016 40069 52009;
0101061680999992000112614004+56110+012350FM-12+003599999V0201601N004619999999N9999999N1+00661+00361100031ADDMA1999999099511MD1210031+9999REMSYN060AAXX  26144 06168 46/// /1609 10066 20036 39951 40003 52003;
0101061680999992000112900004+56110+012350FM-12+003599999V0201701N005119999999N9999999N1+00631+00541100761ADDMA1999999100231MD1710181+9999REMSYN060AAXX  29004 06168 46/// /1710 10063 20054 30023 40076 57018;
0143061680999992000113006004+56110+012350FM-12+003599999V0202101N005119999999N9999999N1+00711+00601100901ADDKA1120M+00861KA2999N+00641MA1999999100381MD1210071+9999REMSYN076AAXX  30064 06168 46/// /2110 10071 20060 30038 40090 52007 333 10086 20064;
0101061680999992000120107004+56110+012350FM-12+003599999V0201401N004619999999N9999999N1+00561+00491101631ADDMA1999999101091MD1710091+9999REMSYN060AAXX  01074 06168 46/// /1409 10056 20049 30109 40163 57009;
