0165477820999992000121210004+33670+135350FM-15+0108RJBD V0203401N004112200019N0112651N1+00601-00301999999ADDGA1021+009009999GF102991999999999999999999MA1101901999999MW1001REMMET071RJBD 121000Z 34008KT 290V010 9999 FEW030 06/M03 Q1019 RMK 1CU030 A3012;EQDQ01+000000PRSWM2
0109477820999992000121504004+33670+135350FM-15+0108RJBD V0202801N00261220001CN0099001N1+01301+00301999999ADDMA1102301999999MW1001REMMET057RJBD 150400Z 28005KT 210V320 CAVOK 13/03 Q1023 RMK A3021;EQDQ01+000000PRSWM2
0157477820999992000122802004+33670+135350FM-15+0108RJBD V0203301N005712200019N0112651N1+00901+00001999999ADDGA1021+009009999GF102991999999999999999999MA1102301999999MW1001REMMET063RJBD 280200Z 33011KT 9999 FEW030 09/M00 Q1023 RMK 1CU030 A3023;EQDQ01+000000PRSWM2
0187477820999992000123004004+33670+135350FM-15+0108RJBD V0203301N002619999999N0112651N1+01201+00301999999ADDGA1021+009009999GA2071+999999999GF107991999999999999999999MA1102001999999MW1001REMMET077RJBD 300400Z 33005KT 300V060 9999 FEW030 BKN/// 12/03 Q1020 RMK 1CU030 A3014;EQDQ01+000000PRSWM2
0155477830999992000011109004+34680+131800FM-15+0054RJOW V0200601N005712200019N0112651N1+00701-00101999999ADDGA1021+009009999GF102991999999999999999999MA1102301999999MW1001REMMET061RJOW 0900Z 06011KT 9999 FEW030 07/M01 Q1023 RMK 1CU030 A3021;EQDQ01+000000PRSWM2
0234477830999992000011609004+34680+131800FM-15+0054RJOW V0201701N002610120019N0112651N1+00901+00601999999ADDGA1021+006009999GA2021+007509999GA3071+012009999GF107991999999999999999999MA1101591999999MW1611REMMET092RJOW 0900Z 17005KT 9999 -RA FEW020 SCT025 BKN040 09/06 Q1016 RMK 1CU020 3SC025 6SC040 A3001;EQDQ01+000003PRSWM1Q02    003PRSWM1
0195477830999992000022003004+34680+131800FM-15+0054RJOW V02099999999990120019N0112651N1+00801+00201999999ADDGA1021+007509999GA2071+012009999GF107991999999999999999999MA1100811999999MW1001REMMET085RJOW 0300Z VRB03KT 9999 FEW025 BKN040 08/02 Q1008 RMK 1CU025 6CU040 A2979 VIRGA SW-W;EQDQ01+000000PRSWM2
0214477830999992000031206004+34680+131800FM-15+0054RJOW V0203201N006710090019N0112651N1+01101+00401999999ADDGA1021+005409999GA2021+006009999GA3071+009009999GF107991999999999999999999MA1101081999999MW1001REMMET088RJOW 0600Z 32013KT 9999 FEW018 SCT020 BKN030 11/04 Q1011 RMK 1CU018 3CU020 5CU030 A2988;EQDQ01+000000PRSWM2
0177477830999992000032107004+34680+131800FM-15+0054RJOW V0203201N005119999999N0112651N1+01201+00401999999ADDGA1021+012009999GA2071+999999999GF107991999999999999999999MA1101491999999MW1001REMMET067RJOW 0700Z 32010KT 9999 FEW040 BKN/// 12/04 Q1015 RMK 1CU040 A3000;EQDQ01+000000PRSWM2
0107477830999992000040901004+34680+131800FM-15+0054RJOW V0201601N00361220001CN0099001N1+01801+00601999999ADDMA1101901999999MW1001REMMET055RJOW 0100Z 16007KT 120V190 CAVOK 18/06 Q1019 RMK A3010;EQDQ01+000000PRSWM2
0236477830999992000041907004+34680+131800FM-15+0054RJOW V0201701N002610300019N0060001N1+01601+01401999999ADDGA1021+009009999GA2021+018009999GA3071+030009999GF107991999999999999999999MA1100611999999MW1101REMMET094RJOW 190700Z 17005KT 6000 -BR FEW030 SCT060 BKN100 16/14 Q1006 RMK 1CU030 4SC060 7AC100 A2972;EQDQ01+000003PRSWM1Q02    003PRSWM1
0216477830999992000051608004+34680+131800FM-15+0054RJOW V02099999999990240019N0112651N1+01601+01301999999ADDGA1021+003009999GA2071+024009999GA3081+030009999GF108991999999999999999999MA1100911999999MW1001REMMET090RJOW 160800Z VRB03KT 9999 FEW010 BKN080 OVC100 16/13 Q1009 RMK 1CU010 5AC080 8AS100 A2981;EQDQ01+000000PRSWM2
0243477830999992000052706294+34680+131800FM-16+0054RJOW V0201601N007710120019N0112651N1+02001+01901999999ADDGA1021+001509999GA2071+012009999GA3071+021009999GF107991999999999999999999MA1099901999999MW1801REMMET101RJOW 270629Z 16015KT 9999 -SHRA FEW005 BKN040 BKN070 20/19 Q0999 RERA RMK 1ST005 5CU040 5AC070 A2952;EQDQ01+000003PRSWM1Q02    003PRSWM1
0156477830999992000060102004+34680+131800FM-15+0054RJOW V0203201N003612200019N0112651N1+02001+01701999999ADDGA1021+007509999GF102991999999999999999999MA1101191999999MW1001REMMET062RJOW 010200Z 32007KT 9999 FEW025 20/17 Q1012 RMK 1CU025 A2989;EQDQ01+000000PRSWM2
0186477830999992000060205004+34680+131800FM-15+0054RJOW V0200101N002610540019N0080001N1+02001+01801999999ADDGA1021+030009999GA2081+054009999GF108991999999999999999999MA1101291999999MW1001REMMET076RJOW 020500Z 01005KT 8000 SCT100 OVC180 20/18 Q1013 RMK 3AC100 8AS180 A2993;EQDQ01+000000PRSWM2
0164477830999992000060508004+34680+131800FM-15+0054RJOW V0203201N002612200019N0112651N1+02001+01701999999ADDGA1021+009009999GF102991999999999999999999MA1100711999999MW1001REMMET070RJOW 050800Z 32005KT 280V030 9999 FEW030 20/17 Q1007 RMK 1CU030 A2976;EQDQ01+000000PRSWM2
0224477830999992000061004004+34680+131800FM-15+0054RJOW V0200101N002610360019N0112651N1+01901+01501999999ADDGA1021+003609999GA2021+030009999GA3071+036009999GF107991999999999999999999MA1101021999999MW1001REMMET098RJOW 100400Z 01005KT 350V050 9999 FEW012 SCT100 BKN120 19/15 Q1010 RMK 1CU012 4AC100 7AS120 A2985;EQDQ01+000000PRSWM2
0134477830999992000061108004+34680+131800FM-15+0054RJOW V0200101N002112200019N0035001N1+99999+99999999999ADDMW1001REMMET097RJOW 110800Z 01004KT 350050 9999 FEW008 SCT012 BKN035 20/17 Q1009 RMK 1ST008 3CU012 6CU035 A2980;EQDQ01+000000PRSWM2
0194477830999992000061306004+34680+131800FM-15+0054RJOW V0203601N003112200019N0112651N1+02101+01601999999ADDGA1021+003609999GA2021+006009999GF104991999999999999999999MA1100411999999MW1001REMMET084RJOW 130600Z 36006KT 280V060 9999 FEW012 SCT020 21/16 Q1004 RMK 1CU012 3CU020 A2965;EQDQ01+000000PRSWM2
0243477830999992000061808004+34670+131790FM-15+0054RJOW V0200201N002610027019N0050001N1+02101+01901999999ADDGA1021+001509999GA2071+002709999GA3071+003609999GF107991999999999999999999MA1100911999999MW1101REMMET101RJOW 180800Z 02005KT 340V060 5000 BR FEW005 BKN009 BKN012 21/19 Q1009 RMK 1ST005 5ST009 6ST012 A2981;EQDQ01+000003PRSWM1Q02    003PRSWM1
0222477830999992000061823244+34670+131790FM-16+0054RJOW V02099999999990027019N0060001N1+02001+01901999999ADDGA1021+000909999GA2021+001509999GA3071+002709999GF107991999999999999999999MA1101021999999MW1001REMMET096RJOW 182324Z VRB01KT 6000 FEW003 SCT005 BKN009 20/19 Q1010 RMK 1ST003 3ST005 5ST009 A2984 9999W;EQDQ01+000000PRSWM2
0164477830999992000061904004+34670+131790FM-15+0054RJOW V0203201N003112200019N0112651N1+02201+02001999999ADDGA1021+003609999GF102991999999999999999999MA1100911999999MW1001REMMET070RJOW 190400Z 32006KT 290V350 9999 FEW012 22/20 Q1009 RMK 1CU012 A2982;EQDQ01+000000PRSWM2
0216477830999992000062110004+34670+131790FM-15+0054RJOW V0202701N004610090019N0080001N1+02201+02101999999ADDGA1021+000609999GA2021+007509999GA3071+009009999GF107991999999999999999999MA1100711999999MW1001REMMET090RJOW 211000Z 27009KT 8000 FEW002 SCT025 BKN030 22/21 Q1007 RMK 1ST002 3CU025 7CU030 A2975;EQDQ01+000000PRSWM2
0311477830999992000062310154+34670+131790FM-16+0054RJOW V0202701N003110030019N0025001N1+02201+02101999999ADDGA1021+000309999GA2021+001209999GA3071+003009999GA4071+004509099GF107991999999999999999999MA1100411999999MW1821REMMET137RJOW 231015Z 27006KT 220V300 2500 +SHRA BR FEW001 SCT004 BKN010 BKN015CB 22/21 Q1004 RMK 1ST001 3ST004 5CU010 5CB015 A2967 CB OHD MOV NE;EQDQ01+000100PRSWM3Q02+000003PRSWM1Q03    003PRSWM1
0156477830999992000070105004+34670+131790FM-15+0054RJOW V0202901N007712200019N0112651N1+03001+02301999999ADDGA1021+009009999GF102991999999999999999999MA1101081999999MW1001REMMET062RJOW 010500Z 29015KT 9999 FEW030 30/23 Q1011 RMK 1CU030 A2987;EQDQ01+000000PRSWM2
0185477830999992000071003004+34670+131790FM-15+0054RJOW V0203201N003619999999N0112651N1+02801+02201999999ADDGA1021+009009999GA2021+045009999GA3071+999999999GF107991999999999999999999MA1101291999999MW1001REMMET059RJOW 100300Z 32007KT 9999 FEW030 SCT150 BKN/// 28/22 Q1013;EQDQ01+000000PRSWM2
0167477830999992000073010004+34670+131790FM-15+0054RJOW V0201601N009312200019N0112651N1+02901+02301999999ADDGA1021+006009999GF102991999999999999999999MA1099701999999MW1001OC101491REMMET065RJOW 301000Z 16018G29KT 9999 FEW020 29/23 Q0997 RMK 1CU020 A2945;EQDQ01+000000PRSWM2
0214477830999992000080909004+34670+131790FM-15+0054RJOW V02099999999990300019N0112651N1+02701+02501999999ADDGA1021+001809999GA2071+030009999GA3071+999999999GF107991999999999999999999MA1101021999999MW1001REMMET088RJOW 090900Z VRB01KT 9999 FEW006 BKN100 BKN/// 27/25 Q1010 RETS RMK 1ST006 5AC100 A2984;EQDQ01+000000PRSWM2
0224477830999992000081309004+34670+131790FM-15+0054RJOW V0200301N002610120019N0112651N1+02701+02301999999ADDGA1021+004509999GA2021+006009999GA3071+012009999GF107991999999999999999999MA1100511999999MW1001REMMET098RJOW 130900Z 03005KT 350V100 9999 FEW015 SCT020 BKN040 27/23 Q1005 RMK 1CU015 3CU020 5CU040 A2968;EQDQ01+000000PRSWM2
0156477830999992000082710004+34670+131790FM-15+0054RJOW V02099999999992200019N0112651N1+02701+02401999999ADDGA1021+010509999GF102991999999999999999999MA1101081999999MW1001REMMET062RJOW 271000Z VRB01KT 9999 FEW035 27/24 Q1011 RMK 1CU035 A2988;EQDQ01+000000PRSWM2
0265477830999992000091005074+34670+131790FM-16+0054RJOW V0200501N002610030019N0050001N1+02301+02301999999ADDGA1021+000609999GA2021+001509999GA3071+003009999GF107991999999999999999999MA1100811999999MW1801REMMET107RJOW 100507Z 05005KT 010V090 5000 -SHRA BR FEW002 SCT005 BKN010 23/23 Q1008 RMK 2ST002 4ST005 6ST010 A2979;EQDQ01+000100PRSWM3Q02+000003PRSWM1Q03    003PRSWM1
0179477830999992000092805004+34670+131790FM-15+0054RJOW V0200101N004119999999N0112651N1+02101+01201999999ADDGA1021+007509999GA2071+999999999GF107991999999999999999999MA1101691999999MW1001REMMET069RJOW 280500Z 01008KT 9999 FEW025 BKN/// 21/12 Q1017 RMK 1CU025 A3003;EQDQ01+000000PRSWM2
0238477830999992000100203004+34670+131790FM-15+0054RJOW V02099999999990240019N0112651N1+02101+01801999999ADDGA1021+004509999GA2021+012009999GA3071+024009999GF107991999999999999999999MA1101021999999MW1801REMMET096RJOW 020300Z VRB03KT 9999 -SHRA FEW015 SCT040 BKN080 21/18 Q1010 RMK 1CU015 3CU040 5AC080 A2983;EQDQ01+000003PRSWM1Q02    003PRSWM1
0164477830999992000100304004+34670+131790FM-15+0054RJOW V0203201N002612200019N0112651N1+02201+01601999999ADDGA1021+007509999GF102991999999999999999999MA1101021999999MW1001REMMET070RJOW 030400Z 32005KT 280V010 9999 FEW025 22/16 Q1010 RMK 1CU025 A2984;EQDQ01+000000PRSWM2
0101477830999992000100500004+34670+131790FM-15+0054RJOW V0201701N00311220001CN0099001N1+01801+01301999999ADDMA1102001999999MW1001REMMET049RJOW 050000Z 17006KT CAVOK 18/13 Q1020 RMK A3013;EQDQ01+000000PRSWM2
0209477830999992000100608004+34670+131790FM-15+0054RJOW V0200401N001519999999N0112651N1+02201+01701999999ADDGA1021+009009999GA2021+036009999GA3071+999999999GF107991999999999999999999MA1101901999999MW1001REMMET083RJOW 060800Z 04003KT 9999 FEW030 SCT120 BKN/// 22/17 Q1019 RMK 1CU030 3AC120 A3011;EQDQ01+000000PRSWM2
0101477830999992000100700004+34670+131790FM-15+0054RJOW V0201501N00311220001CN0099001N1+01801+01301999999ADDMA1102201999999MW1001REMMET049RJOW 070000Z 15006KT CAVOK 18/13 Q1022 RMK A3018;EQDQ01+000000PRSWM2
0186477830999992000101110004+34670+131790FM-15+0054RJOW V0202301N001510090019N0080001N1+02101+01801999999ADDGA1021+006009999GA2071+009009999GF107991999999999999999999MA1101391999999MW1001REMMET076RJOW 111000Z 23003KT 8000 SCT020 BKN030 21/18 Q1014 RMK 3SC020 5SC030 A2997;EQDQ01+000000PRSWM2
0156477830999992000102104004+34670+131790FM-15+0054RJOW V0200101N003112200019N0112651N1+02101+01201999999ADDGA1021+009009999GF102991999999999999999999MA1101901999999MW1001REMMET062RJOW 210400Z 01006KT 9999 FEW030 21/12 Q1019 RMK 1CU030 A3011;EQDQ01+000000PRSWM2
0186477830999992000110500004+34670+131790FM-15+0054RJOW V0201701N002612200019N0112651N1+01601+01401999999ADDGA1021+007509999GA2021+009009999GF104991999999999999999999MA1101801999999MW1001REMMET076RJOW 050000Z 17005KT 9999 FEW025 SCT030 16/14 Q1018 RMK 1CU025 3CU030 A3006;EQDQ01+000000PRSWM2
0186477830999992000111723004+34670+131790FM-15+0054RJOW V0203201N005110120019N0112651N1+01101+00201999999ADDGA1021+007509999GA2071+012009999GF107991999999999999999999MA1102611999999MW1001REMMET076RJOW 172300Z 32010KT 9999 FEW025 BKN040 11/02 Q1026 RMK 1CU025 5CU040 A3031;EQDQ01+000000PRSWM2
0209477830999992000112500004+34670+131790FM-15+0054RJOW V0201601N003119999999N0112651N1+01001+00701999999ADDGA1021+009009999GA2021+036009999GA3071+999999999GF107991999999999999999999MA1102101999999MW1001REMMET083RJOW 250000Z 16006KT 9999 FEW030 SCT120 BKN/// 10/07 Q1021 RMK 1CU030 4AC120 A3018;EQDQ01+000000PRSWM2
0184477830999992000112523004+34670+131790FM-15+0054RJOW V0201501N002612200019N0112651N1+01001+00901999999ADDGA1021+007509999GF102991999999999999999999MA1102001999999MW1401REMMET074RJOW 252300Z 15005KT 9999 VCFG FEW025 10/09 Q1020 RMK 1CU025 A3013 FG E-S;EQDQ01+000003PRSWM1Q02    003PRSWM1
0224477830999992000112805004+34670+131790FM-15+0054RJOW V0203501N004110120019N0112651N1+01101+00201999999ADDGA1021+006009999GA2021+009009999GA3071+012009999GF107991999999999999999999MA1102301999999MW1001REMMET098RJOW 280500Z 35008KT 280V070 9999 FEW020 SCT030 BKN040 11/02 Q1023 RMK 1CU020 3CU030 5CU040 A3021;EQDQ01+000000PRSWM2
0164477830999992000120109004+34670+131790FM-15+0054RJOW V0200601N002112200019N0112651N1+01301+00701999999ADDGA1021+006009999GF102991999999999999999999MA1102201999999MW1001REMMET070RJOW 010900Z 06004KT 010V100 9999 FEW020 13/07 Q1022 RMK 1CU020 A3018;EQDQ01+000000PRSWM2
0101477830999992000120208004+34670+131790FM-15+0054RJOW V0200601N00151220001CN0099001N1+01301+00201999999ADDMA1102001999999MW1001REMMET049RJOW 020800Z 06003KT CAVOK 13/02 Q1020 RMK A3014;EQDQ01+000000PRSWM2
0186477830999992000120605004+34670+131790FM-15+0054RJOW V0203101N004610120019N0112651N1+01101+00201999999ADDGA1021+009009999GA2071+012009999GF107991999999999999999999MA1102201999999MW1001REMMET076RJOW 060500Z 31009KT 9999 FEW030 BKN040 11/02 Q1022 RMK 1CU030 5CU040 A3020;EQDQ01+000000PRSWM2
0224477830999992000121023004+34670+131790FM-15+0054RJOW V0203201N006210120019N0112651N1+00901+00101999999ADDGA1021+005409999GA2021+009009999GA3071+012009999GF107991999999999999999999MA1102101999999MW1001REMMET098RJOW 102300Z 32012KT 300V360 9999 FEW018 SCT030 BKN040 09/01 Q1021 RMK 1CU018 3CU030 7CU040 A3016;EQDQ01+000000PRSWM2
0194477830999992000122100004+34670+131790FM-15+0054RJOW V0203401N003110120019N0112651N1+00901+00001999999ADDGA1021+007509999GA2071+012009999GF107991999999999999999999MA1101801999999MW1001REMMET084RJOW 210000Z 34006KT 260V030 9999 FEW025 BKN040 09/00 Q1018 RMK 1CU025 7CU040 A3008;EQDQ01+000000PRSWM2
0194477830999992000122103004+34670+131790FM-15+0054RJOW V0203201N004110120019N0112651N1+00901+00001999999ADDGA1021+007509999GA2071+012009999GF107991999999999999999999MA1101801999999MW1001REMMET084RJOW 210300Z 32008KT 250V040 9999 FEW025 BKN040 09/00 Q1018 RMK 1CU025 6CU040 A3006;EQDQ01+000000PRSWM2
0225477830999992000122606004+34670+131790FM-15+0054RJOW V0203101N006210105019N0112651N1+00401-00301999999ADDGA1021+006009999GA2021+007509999GA3071+010509999GF107991999999999999999999MA1102711999999MW1001REMMET099RJOW 260600Z 31012KT 290V350 9999 FEW020 SCT025 BKN035 04/M03 Q1027 RMK 1CU020 4CU025 7CU035 A3034;EQDQ01+000000PRSWM2
0208477840999992000010400004+34150+131450FM-12+001899999V0200601N001012200019N0250001N1+00191-00051102431ADDAA106000091GA1001+999999999GF100991001001999999001001KA1999N-00031MA1999999102201MD1110151+9999MW1021REMSYN076AAXX  04004 47784 31975 00602 10019 21005 30220 40243 51015 702// 333 21003;EQDQ01  00002PRCP06
0101477840999992000010720004+34150+131450FM-12+001899999V0201701N000519999999N9999999N1+00181-00041102261ADDMA1999999102031MD1210031+9999REMSYN060AAXX  07204 47784 46/// /1701 10018 21004 30203 40226 52003;
0101477840999992000012516004+34150+131450FM-12+001899999V0202301N000519999999N9999999N1+00341+00081102201ADDMA1999999101981MD1210081+9999REMSYN060AAXX  25164 47784 46/// /2301 10034 20008 30198 40220 52008;
0101477840999992000012811004+34150+131450FM-12+001899999V0200401N001019999999N9999999N1+00191-00031103321ADDMA1999999103091MD1210111+9999REMSYN060AAXX  28114 47784 46/// /0402 10019 21003 30309 40332 52011;
0171477840999992000020606004+34150+131450FM-12+001899999V0203201N003119999999N0150001N1+00971+00531101371ADDAY161061AY221061GF107991071021999999999999MA1999999101151MD1610141+9999MW1251REMSYN082AAXX  06064 47784 41/65 73206 10097 20053 30115 40137 56014 72562 872// 555 00107;
0101477840999992000021420004+34150+131450FM-12+001899999V0202801N006219999999N9999999N1+00271-01051101211ADDMA1999999100991MD1210111+9999REMSYN060AAXX  14204 47784 46/// /2812 10027 21105 30099 40121 52011;
0101477840999992000021708004+34150+131450FM-12+001899999V0203401N003119999999N9999999N1+00401-00711102141ADDMA1999999101921MD1710041+9999REMSYN060AAXX  17084 47784 46/// /3406 10040 21071 30192 40214 57004;
0101477840999992000022514004+34150+131450FM-12+001899999V0201301N000519999999N9999999N1+00181-00111102121ADDMA1999999101901MD1710021+9999REMSYN060AAXX  25144 47784 46/// /1301 10018 21011 30190 40212 57002;
0101477840999992000030602004+34150+131450FM-12+001899999V0201901N002119999999N9999999N1+01341+00511101491ADDMA1999999101281MD1810031+9999REMSYN060AAXX  06024 47784 46/// /1904 10134 20051 30128 40149 58003;
0101477840999992000031305004+34150+131450FM-12+001899999V0203501N004119999999N9999999N1+01431-00831101911ADDMA1999999101701MD1610111+9999REMSYN060AAXX  13054 47784 46/// /3508 10143 21083 30170 40191 56011;
0101477840999992000031704004+34150+131450FM-12+001899999V0203301N004119999999N9999999N1+01151-00031101861ADDMA1999999101641MD1810021+9999REMSYN060AAXX  17044 47784 46/// /3308 10115 21003 30164 40186 58002;
0101477840999992000032319004+34150+131450FM-12+001899999V0202701N005119999999N9999999N1+00881-00081101051ADDMA1999999100831MD1310121+9999REMSYN060AAXX  23194 47784 46/// /2710 10088 21008 30083 40105 53012;
0101477840999992000032421004+34150+131450FM-12+001899999V0202701N002119999999N9999999N1+00461-00631101871ADDMA1999999101651MD1310031+9999REMSYN060AAXX  24214 47784 46/// /2704 10046 21063 30165 40187 53003;
0101477840999992000032717004+34150+131450FM-12+001899999V0201301N000519999999N9999999N1+00981+00541101351ADDMA1999999101131MD1610201+9999REMSYN060AAXX  27174 47784 46/// /1301 10098 20054 30113 40135 56020;
0101477840999992000032718004+34150+131450FM-12+001899999V0200301N001519999999N9999999N1+01021+00741101271ADDMA1999999101051MD1810161+9999REMSYN060AAXX  27184 47784 46/// /0303 10102 20074 30105 40127 58016;
0101477840999992000033017004+34150+131450FM-12+001899999V0200701N000519999999N9999999N1+00521+00241101341ADDMA1999999101121MD1810041+9999REMSYN060AAXX  30174 47784 46/// /0701 10052 20024 30112 40134 58004;
0101477840999992000040111004+34150+131450FM-12+001899999V0201901N000519999999N9999999N1+01081+00111102041ADDMA1999999101821MD1310221+9999REMSYN060AAXX  01114 47784 46/// /1901 10108 20011 30182 40204 53022;
0101477840999992000040420004+34150+131450FM-12+001899999V0209999C000019999999N9999999N1+01021+00931101001ADDMA1999999100781MD1510171+9999REMSYN060AAXX  04204 47784 46/// /0000 10102 20093 30078 40100 55017;
0154477840999992000040512004+34150+131450FM-12+001899999V0202401N002119999999N9999999N1+01341+00851101151ADDAA199000091KA1999M+01871MA1999999100941MD1310281+9999REMSYN070AAXX  05124 47784 36/// /2404 10134 20085 30094 40115 53028 333 10187;EQDQ01  00002PRCP99
0101477840999992000041102004+34150+131450FM-12+001899999V0202901N004619999999N9999999N1+01421-00661101471ADDMA1999999101261MD1810081+9999REMSYN060AAXX  11024 47784 46/// /2909 10142 21066 30126 40147 58008;
0101477840999992000041105004+34150+131450FM-12+001899999V0202701N005119999999N9999999N1+01591-00311101271ADDMA1999999101061MD1610201+9999REMSYN060AAXX  11054 47784 46/// /2710 10159 21031 30106 40127 56020;
0101477840999992000041711004+34150+131450FM-12+001899999V0202901N001519999999N9999999N1+01481+00131101871ADDMA1999999101661MD1310221+9999REMSYN060AAXX  17114 47784 46/// /2903 10148 20013 30166 40187 53022;
0101477840999992000042014004+34150+131450FM-12+001899999V0209999C000019999999N9999999N1+01241+01081101121ADDMA1999999100911MD1210041+9999REMSYN060AAXX  20144 47784 46/// /0000 10124 20108 30091 40112 52004;
0101477840999992000042522004+34150+131450FM-12+001899999V0200601N003119999999N9999999N1+01221+01061100361ADDMA1999999100151MD1610171+9999REMSYN060AAXX  25224 47784 46/// /0606 10122 20106 30015 40036 56017;
0185477840999992000050100004+34150+131450FM-12+001899999V0201401N000519999999N0100001N1+01491+01171101141ADDAA112000791GF108991071021999999999999KA1999N+01231MA1999999100931MD1110071+9999MW1021REMSYN088AAXX  01004 47784 11/60 81401 10149 20117 30093 40114 51007 69902 702// 872// 333 20123;
0154477840999992000050612004+34150+131450FM-12+001899999V0201501N001019999999N9999999N1+01901+01361101571ADDAA199000091KA1999M+02711MA1999999101361MD1310081+9999REMSYN070AAXX  06124 47784 36/// /1502 10190 20136 30136 40157 53008 333 10271;EQDQ01  00002PRCP99
0101477840999992000050815004+34150+131450FM-12+001899999V0200601N001019999999N9999999N1+01331+00841101661ADDMA1999999101451MD1010041+9999REMSYN060AAXX  08154 47784 46/// /0602 10133 20084 30145 40166 50004;
0101477840999992000050918004+34150+131450FM-12+001899999V0201601N000519999999N9999999N1+01371+01121101231ADDMA1999999101021MD1510051+9999REMSYN060AAXX  09184 47784 46/// /1601 10137 20112 30102 40123 55005;
0101477840999992000051214004+34150+131450FM-12+001899999V0201801N000519999999N9999999N1+01301+00941100991ADDMA1999999100781MD1110061+9999REMSYN060AAXX  12144 47784 46/// /1801 10130 20094 30078 40099 51006;
0101477840999992000051310004+34150+131450FM-12+001899999V0200501N002119999999N9999999N1+01571+01171100951ADDMA1999999100741MD1110031+9999REMSYN060AAXX  13104 47784 46/// /0504 10157 20117 30074 40095 51003;
0101477840999992000051407004+34150+131450FM-12+001899999V0203201N002619999999N9999999N1+02241+01181100881ADDMA1999999100671MD1610101+9999REMSYN060AAXX  14074 47784 46/// /3205 10224 20118 30067 40088 56010;
0101477840999992000051816004+34150+131450FM-12+001899999V0200901N000519999999N9999999N1+01691+01361100991ADDMA1999999100781MD1810041+9999REMSYN060AAXX  18164 47784 46/// /0901 10169 20136 30078 40099 58004;
0101477840999992000052013004+34150+131450FM-12+001899999V0202601N000519999999N9999999N1+01531+01131101061ADDMA1999999100851MD1210221+9999REMSYN060AAXX  20134 47784 46/// /2601 10153 20113 30085 40106 52022;
0101477840999992000052318004+34150+131450FM-12+001899999V0200801N001019999999N9999999N1+01651+01301101361ADDMA1999999101151MD1310021+9999REMSYN060AAXX  23184 47784 46/// /0802 10165 20130 30115 40136 53002;
0101477840999992000060303004+34150+131450FM-12+001899999V0201401N001519999999N9999999N1+02291+01571100891ADDMA1999999100681MD1610101+9999REMSYN060AAXX  03034 47784 46/// /1403 10229 20157 30068 40089 56010;
0101477840999992000060315004+34150+131450FM-12+001899999V0201701N000519999999N9999999N1+01901+01701100871ADDMA1999999100661MD1110021+9999REMSYN060AAXX  03154 47784 46/// /1701 10190 20170 30066 40087 51002;
0101477840999992000060708004+34150+131450FM-12+001899999V0202001N003619999999N9999999N1+02841+01271100711ADDMA1999999100511MD1510031+9999REMSYN060AAXX  07084 47784 46/// /2007 10284 20127 30051 40071 55003;
0101477840999992000060816004+34150+131450FM-12+001899999V0209999C000019999999N9999999N1+01941+01811099801ADDMA1999999099591MD1510141+9999REMSYN060AAXX  08164 47784 46/// /0000 10194 20181 39959 49980 55014;
0101477840999992000061303004+34150+131450FM-12+001899999V0201601N001519999999N9999999N1+02541+01511100451ADDMA1999999100251MD1710161+9999REMSYN060AAXX  13034 47784 46/// /1603 10254 20151 30025 40045 57016;
0101477840999992000062002004+34150+131450FM-12+001899999V0201501N001519999999N9999999N1+02961+01871101001ADDMA1999999100801MD1810091+9999REMSYN060AAXX  20024 47784 46/// /1503 10296 20187 30080 40100 58009;
0101477840999992000062415004+34150+131450FM-12+001899999V0209999C000019999999N9999999N1+02261+02141100651ADDMA1999999100451MD1810011+9999REMSYN060AAXX  24154 47784 46/// /0000 10226 20214 30045 40065 58001;
0101477840999992000062702004+34150+131450FM-12+001899999V0200701N001019999999N9999999N1+02511+02241100601ADDMA1999999100401MD1810061+9999REMSYN060AAXX  27024 47784 46/// /0702 10251 20224 30040 40060 58006;
0101477840999992000070416004+34150+131450FM-12+001899999V0201701N000519999999N9999999N1+02281+02051101311ADDMA1999999101101MD1510001+9999REMSYN060AAXX  04164 47784 46/// /1701 10228 20205 30110 40131 55000;
0101477840999992000070923004+34150+131450FM-12+001899999V0201301N001019999999N9999999N1+02581+02101101481ADDMA1999999101281MD1210141+9999REMSYN060AAXX  09234 47784 46/// /1302 10258 20210 30128 40148 52014;
0101477840999992000071213004+34150+131450FM-12+001899999V0203301N000519999999N9999999N1+02651+02041100721ADDMA1999999100521MD1110111+9999REMSYN060AAXX  12134 47784 46/// /3301 10265 20204 30052 40072 51011;
0193477840999992000071500004+34150+131450FM-12+001899999V0202301N000519999999N0150001N1+02771+02221101171ADDAA112000791AY161061GF107991021021999999071999KA1999N+02441MA1999999100971MD1310051+9999MW1021REMSYN088AAXX  15004 47784 11/65 72301 10277 20222 30097 40117 53005 69902 7026/ 8227/ 333 20244;
0101477840999992000071922004+34150+131450FM-12+001899999V0200701N001519999999N9999999N1+02501+02131101141ADDMA1999999100941MD1210051+9999REMSYN060AAXX  19224 47784 46/// /0703 10250 20213 30094 40114 52005;
0101477840999992000072302004+34150+131450FM-12+001899999V0202001N003619999999N9999999N1+03181+02131100341ADDMA1999999100141MD1610011+9999REMSYN060AAXX  23024 47784 46/// /2007 10318 20213 30014 40034 56001;
0141477840999992000080112004+34150+131450FM-12+001899999V0200701N001019999999N9999999N1+02641+02091100871ADDAA112000791KA1999M+03061MA1999999100671MD1110091+9999REMSYN076AAXX  01124 47784 16/// /0702 10264 20209 30067 40087 51009 69902 333 10306;
0101477840999992000080121004+34150+131450FM-12+001899999V0200901N001019999999N9999999N1+02401+02211100881ADDMA1999999100681MD1310071+9999REMSYN060AAXX  01214 47784 46/// /0902 10240 20221 30068 40088 53007;
0101477840999992000080609004+34150+131450FM-12+001899999V0201201N001519999999N9999999N1+03231+01851101161ADDMA1999999100961MD1610051+9999REMSYN060AAXX  06094 47784 46/// /1203 10323 20185 30096 40116 56005;
0143477840999992000080906004+34150+131450FM-12+001899999V0201501N003612200019N0250001N1+03301+02051101091ADDGF101991011031999999001011MA1999999100891MD1610151+9999REMSYN076AAXX  09064 47784 42/75 11507 10330 20205 30089 40109 56015 81301 555 00336;
0101477840999992000081417004+34150+131450FM-12+001899999V0201101N000519999999N9999999N1+02331+01971100721ADDMA1999999100521MD1810021+9999REMSYN060AAXX  14174 47784 46/// /1101 10233 20197 30052 40072 58002;
0101477840999992000082907004+34150+131450FM-12+001899999V0201801N004119999999N9999999N1+03301+02091101031ADDMA1999999100831MD1510101+9999REMSYN060AAXX  29074 47784 46/// /1808 10330 20209 30083 40103 55010;
0101477840999992000090622004+34150+131450FM-12+001899999V0201201N001019999999N9999999N1+02011+01751101121ADDMA1999999100911MD1310171+9999REMSYN060AAXX  06224 47784 46/// /1202 10201 20175 30091 40112 53017;
0101477840999992000090710004+34150+131450FM-12+001899999V0200901N001519999999N9999999N1+02721+01881101141ADDMA1999999100941MD1110181+9999REMSYN060AAXX  07104 47784 46/// /0903 10272 20188 30094 40114 51018;
0101477840999992000091102004+34150+131450FM-12+001899999V0200601N001019999999N9999999N1+02711+02021100531ADDMA1999999100331MD1810011+9999REMSYN060AAXX  11024 47784 46/// /0602 10271 20202 30033 40053 58001;
0068477840999992000091211004+34150+131450FM-12+001899999V0200201N001019999999N9999999N1+02331+02031999999REMSYN059AAXX  12114 47784 46/// /0202 10233 20203 3005 40079 53005;
0101477840999992000091605004+34150+131450FM-12+001899999V0202001N006719999999N9999999N1+02741+01701099951ADDMA1999999099751MD1110091+9999REMSYN060AAXX  16054 47784 46/// /2013 10274 20170 39975 49995 51009;
0101477840999992000091921004+34150+131450FM-12+001899999V0200501N001019999999N9999999N1+01401+01171102241ADDMA1999999102021MD1310061+9999REMSYN060AAXX  19214 47784 46/// /0502 10140 20117 30202 40224 53006;
0101477840999992000092308004+34150+131450FM-12+001899999V0203101N003119999999N9999999N1+02171+01621101191ADDMA1999999100981MD1310021+9999REMSYN060AAXX  23084 47784 46/// /3106 10217 20162 30098 40119 53002;
0101477840999992000092705004+34150+131450FM-12+001899999V0203501N001519999999N9999999N1+02531+01111101661ADDMA1999999101461MD1810201+9999REMSYN060AAXX  27054 47784 46/// /3503 10253 20111 30146 40166 58020;
0193477840999992000100300004+34150+131450FM-12+001899999V0200301N003119999999N0300001N1+02121+01411101131ADDAA112001091AY161061GF105991051021999999001001KA1999N+01671MA1999999100921MD1110191+9999MW1021REMSYN088AAXX  03004 47784 11/80 50306 10212 20141 30092 40113 51019 60012 7026/ 85200 333 20167;
0101477840999992000100414004+34150+131450FM-12+001899999V0202101N000519999999N9999999N1+01551+01241101801ADDMA1999999101591MD1010071+9999REMSYN060AAXX  04144 47784 46/// /2101 10155 20124 30159 40180 50007;
0101477840999992000100416004+34150+131450FM-12+001899999V0203001N000519999999N9999999N1+01481+01251101811ADDMA1999999101601MD1510011+9999REMSYN060AAXX  04164 47784 46/// /3001 10148 20125 30160 40181 55001;
0101477840999992000101310004+34150+131450FM-12+001899999V0203401N002119999999N9999999N1+01941+01331101601ADDMA1999999101391MD1310191+9999REMSYN060AAXX  13104 47784 46/// /3404 10194 20133 30139 40160 53019;
0101477840999992000101520004+34150+131450FM-12+001899999V0200401N002619999999N9999999N1+01501+00891102451ADDMA1999999102241MD1110031+9999REMSYN060AAXX  15204 47784 46/// /0405 10150 20089 30224 40245 51003;
0101477840999992000102922004+34150+131450FM-12+001899999V0202001N002119999999N9999999N1+01231+01021101531ADDMA1999999101321MD1310151+9999REMSYN060AAXX  29224 47784 46/// /2004 10123 20102 30132 40153 53015;
0101477840999992000103117004+34150+131450FM-12+001899999V0202701N001019999999N9999999N1+01471+01371101731ADDMA1999999101521MD1810211+9999REMSYN060AAXX  31174 47784 46/// /2702 10147 20137 30152 40173 58021;
0101477840999992000110311004+34150+131450FM-12+001899999V0200801N001519999999N9999999N1+01691+01031102151ADDMA1999999101941MD1110141+9999REMSYN060AAXX  03114 47784 46/// /0803 10169 20103 30194 40215 51014;
0101477840999992000110405004+34150+131450FM-12+001899999V0202301N002119999999N9999999N1+02181+01181101781ADDMA1999999101571MD1610271+9999REMSYN060AAXX  04054 47784 46/// /2304 10218 20118 30157 40178 56027;
0101477840999992000110414004+34150+131450FM-12+001899999V0200401N000519999999N9999999N1+01501+01271101821ADDMA1999999101611MD1810011+9999REMSYN060AAXX  04144 47784 46/// /0401 10150 20127 30161 40182 58001;
0101477840999992000110420004+34150+131450FM-12+001899999V0201601N001019999999N9999999N1+01251+01121101771ADDMA1999999101551MD1610041+9999REMSYN060AAXX  04204 47784 46/// /1602 10125 20112 30155 40177 56004;
0101477840999992000110702004+34150+131450FM-12+001899999V0202001N001519999999N9999999N1+02151+01541101921ADDMA1999999101711MD1810021+9999REMSYN060AAXX  07024 47784 46/// /2003 10215 20154 30171 40192 58002;
0193477840999992000111100004+34150+131450FM-12+001899999V0200901N002119999999N0200001N1+01371+00831102161ADDAA112000591AY181061GF107991071021999999999999KA1999N+01081MA1999999101941MD1110111+9999MW1021REMSYN088AAXX  11004 47784 11/70 70904 10137 20083 30194 40216 51011 69952 7028/ 872// 333 20108;
0171477840999992000112806004+34150+131450FM-12+001899999V0200401N002619999999N0300001N1+01121+00351102241ADDAY181061AY221061GF106991061021999999001011MA1999999102021MD1810141+9999MW1251REMSYN082AAXX  28064 47784 41/80 60405 10112 20035 30202 40224 58014 72582 86201 555 00128;
0101477840999992000120517004+34150+131450FM-12+001899999V0200801N001019999999N9999999N1+00231+00041102121ADDMA1999999101901MD1310091+9999REMSYN060AAXX  05174 47784 46/// /0802 10023 20004 30190 40212 53009;
0101477840999992000121113004+34150+131450FM-12+001899999V0202801N002619999999N9999999N1+00441-00541102611ADDMA1999999102391MD1310121+9999REMSYN060AAXX  11134 47784 46/// /2805 10044 21054 30239 40261 53012;
0101477840999992000121301004+34150+131450FM-12+001899999V0201201N001019999999N9999999N1+00451-00171102361ADDMA1999999102141MD1810021+9999REMSYN060AAXX  13014 47784 46/// /1202 10045 21017 30214 40236 58002;
0101477840999992000122410004+34150+131450FM-12+001899999V0200801N001519999999N9999999N1+00571+00341101941ADDMA1999999101721MD1010071+9999REMSYN060AAXX  24104 47784 46/// /0803 10057 20034 30172 40194 50007;
0154477860999992000010405004+33930+131280FM-15+0008RJDC V0201601N002612200019N0112651N1+01101+00601999999ADDGA1021+009009999GF102991999999999999999999MA1102101999999MW1001REMMET060RJDC 0500Z 16005KT 9999 FEW030 11/06 Q1021 RMK 1CU030 A3018;EQDQ01+000000PRSWM2
0184477860999992000010803004+33930+131280FM-15+0008RJDC V0203001N003610090019N0112651N1+00801+00201999999ADDGA1021+007509999GA2071+009009999GF107991999999999999999999MA1102201999999MW1001REMMET074RJDC 0300Z 30007KT 9999 FEW025 BKN030 08/02 Q1022 RMK 2CU025 6CU030 A3019;EQDQ01+000000PRSWM2
0239477860999992000010908004+33930+131280FM-15+0008RJDC V0200801N006710120019N0070001N1+00801+00601999999ADDGA1021+002409999GA2021+003609999GA3071+012009999GF107991999999999999999999MA1101801999999MW1611REMMET097RJDC 0800Z 08013KT 7000 -RA FEW008 SCT012 BKN040 08/06 Q1018 RERA RMK 1ST008 3CU012 6SC040 A3007;EQDQ01+000003PRSWM1Q02    003PRSWM1
0255477860999992000011205374+33930+131280FM-16+0008RJDC V0200301N002610030019N0040001N1+00701+00601999999ADDGA1021+002409999GA2071+003009999GA3081+006009999GF108991999999999999999999MA1101391999999MW1611REMMET097RJDC 120537Z 03005KT 4000 -RA BR SCT008 BKN010 OVC020 07/06 Q1014 RMK 3ST008 5CU010 8SC020 A2996;EQDQ01+000100PRSWM3Q02+000003PRSWM1Q03    003PRSWM1
0214477860999992000011706004+33930+131280FM-15+0008RJDC V0202501N006210090019N0112651N1+01201+00601999999ADDGA1021+004509999GA2071+009009999GA3071+015009999GF107991999999999999999999MA1101191999999MW1001REMMET088RJDC 0600Z 25012KT 9999 FEW015 BKN030 BKN050 12/06 Q1012 RMK 1CU015 5CU030 7SC050 A2989;EQDQ01+000000PRSWM2
0185477860999992000012622004+33930+131280FM-15+0008RJDC V0203301N001510105019N0112651N1+00001+00001999999ADDGA1021+006009999GA2071+010509999GF107991999999999999999999MA1102301999999MW1001REMMET075RJDC 2200Z 33003KT 9999 FEW020 BKN035 00/M00 Q1023 RMK 1CU020 6CU035 A3023;EQDQ01+000000PRSWM2
0193477860999992000012704004+33930+131280FM-15+0008RJDC V0200901N002612200019N0112651N1+00401-00301999999ADDGA1021+007509999GA2021+012009999GF104991999999999999999999MA1102401999999MW1001REMMET083RJDC 0400Z 09005KT 060V140 9999 FEW025 SCT040 04/M03 Q1024 RMK 1CU025 4CU040 A3026;EQDQ01+000000PRSWM2
0185477860999992000013010004+33930+131280FM-15+0008RJDC V0202801N006210120019N0112651N1+00701-00301999999ADDGA1021+007509999GA2071+012009999GF107991999999999999999999MA1102811999999MW1001REMMET075RJDC 1000Z 28012KT 9999 FEW025 BKN040 07/M03 Q1028 RMK 1CU025 7CU040 A3038;EQDQ01+000000PRSWM2
0100477860999992000020503004+33930+131280FM-15+0008RJDC V0200901N00511220001CN0099001N1+00801+00001999999ADDMA1102611999999MW1001REMMET048RJDC 0300Z 09010KT CAVOK 08/M00 Q1026 RMK A3031;EQDQ01+000000PRSWM2
0185477860999992000020703004+33930+131280FM-15+0008RJDC V0202301N003610135019N0112651N1+00901-00101999999ADDGA1021+009009999GA2071+013509999GF107991999999999999999999MA1101391999999MW1001REMMET075RJDC 0300Z 23007KT 9999 FEW030 BKN045 09/M01 Q1014 RMK 1CU030 5SC045 A2994;EQDQ01+000000PRSWM2
0217477860999992000021604004+33930+131280FM-15+0008RJDC V0203001N007210090019N0112651N1+00301-00701999999ADDGA1021+003009999GA2071+009009999GF107991999999999999999999MA1101801999999MW1161OC101341REMMET083RJDC 0400Z 30014G26KT 9999 VCSH FEW010 BKN030 03/M07 Q1018 RMK 1CU010 6CU030 A3007;EQDQ01+000003PRSWM1Q02    003PRSWM1
0185477860999992000021610004+33930+131280FM-15+0008RJDC V0203201N005110120019N0112651N1+00301-00701999999ADDGA1021+006009999GA2071+012009999GF107991999999999999999999MA1101801999999MW1001REMMET075RJDC 1000Z 32010KT 9999 FEW020 BKN040 03/M07 Q1018 RMK 1CU020 7CU040 A3008;EQDQ01+000000PRSWM2
0234477860999992000021909004+33930+131280FM-15+0008RJDC V0200401N003610036019N0060001N1+00301+00201999999ADDGA1021+002409999GA2071+003609999GA3081+009009999GF108991999999999999999999MA1101081999999MW1611REMMET092RJDC 0900Z 04007KT 6000 -RA FEW008 BKN012 OVC030 03/02 Q1011 RMK 2ST008 6ST012 8SC030 A2988;EQDQ01+000003PRSWM1Q02    003PRSWM1
0234477860999992000021910004+33930+131280FM-15+0008RJDC V0200401N003110036019N0060001N1+00401+00301999999ADDGA1021+002409999GA2071+003609999GA3081+009009999GF108991999999999999999999MA1101081999999MW1611REMMET092RJDC 1000Z 04006KT 6000 -RA FEW008 BKN012 OVC030 04/03 Q1011 RMK 2ST008 5ST012 7SC030 A2987;EQDQ01+000003PRSWM1Q02    003PRSWM1
0196477860999992000030222004+33930+131280FM-15+0008RJDC V0200301N002619999999N0050001N1+00501+00101999999ADDGA1021+039009999GA2071+999999999GF107991999999999999999999MA1102611999999MW1101REMMET070RJDC 2200Z 03005KT 5000 BR SCT130 BKN/// 05/01 Q1026 RMK 3AC130 A3030;EQDQ01+000003PRSWM1Q02    003PRSWM1
0196477860999992000030504004+33930+131280FM-15+0008RJDC V0201501N002619999999N0040001N1+01201+00901999999ADDGA1021+009009999GA2071+999999999GF107991999999999999999999MA1101191999999MW1101REMMET070RJDC 0400Z 15005KT 4000 BR FEW030 BKN/// 12/09 Q1012 RMK 1CU030 A2990;EQDQ01+000003PRSWM1Q02    003PRSWM1
0163477860999992000030705004+33930+131280FM-15+0008RJDC V0203001N007712200019N0112651N1+01001-01101999999ADDGA1021+006009999GF102991999999999999999999MA1101491999999MW1001REMMET069RJDC 0500Z 30015KT 280V340 9999 FEW020 10/M11 Q1015 RMK 1CU020 A2999;EQDQ01+000000PRSWM2
0155477860999992000030711004+33930+131280FM-15+0008RJDC V0202901N002612200019N0112651N1+00601-00301999999ADDGA1021+009009999GF102991999999999999999999MA1101591999999MW1001REMMET061RJDC 1100Z 29005KT 9999 FEW030 06/M03 Q1016 RMK 1CU030 A3002;EQDQ01+000000PRSWM2
0154477860999992000032511004+33930+131280FM-15+0008RJDC V0202501N008712200019N0112651N1+01001+00201999999ADDGA1021+009009999GF102991999999999999999999MA1101691999999MW1001REMMET060RJDC 1100Z 25017KT 9999 FEW030 10/02 Q1017 RMK 1CU030 A3003;EQDQ01+000000PRSWM2
0089477860999992000040605004+33930+131280FM-15+0008RJDC V0201901N00571220001CN0099001N1+01401+00301999999ADDMA1101801999999MW1001REMMET037RJDC 0500Z 19011KT CAVOK 14/03 Q1018;EQDQ01+000000PRSWM2
0099477860999992000040805004+33930+131280FM-15+0008RJDC V0201901N00621220001CN0099001N1+01501+00601999999ADDMA1102001999999MW1001REMMET047RJDC 0500Z 19012KT CAVOK 15/06 Q1020 RMK A3013;EQDQ01+000000PRSWM2
0099477860999992000040909004+33930+131280FM-15+0008RJDC V0200701N00511220001CN0099001N1+01501+01101999999ADDMA1101591999999MW1001REMMET047RJDC 0900Z 07010KT CAVOK 15/11 Q1016 RMK A3002;EQDQ01+000000PRSWM2
0179477860999992000042406004+33930+131280FM-15+0008RJDC V0202601N008719999999N0112651N1+01801+00301999999ADDGA1021+009009999GA2071+999999999GF107991999999999999999999MA1101021999999MW1001REMMET069RJDC 240600Z 26017KT 9999 FEW030 BKN/// 18/03 Q1010 RMK 1CU030 A2985;EQDQ01+000000PRSWM2
0244477860999992000042520304+33930+131280FM-15+0008RJDC V0200801N013410039019N0035001N1+01201+01101999999ADDGA1021+001809999GA2071+003909999GA3071+012009999GF107991999999999999999999MA1100101999999MW1101MW2631REMMET096RJDC 252130Z 08026KT 3500 RA BR FEW006 BKN013 BKN040 12/11 Q1001 RMK 4ST006 6ST013 7SC040 A2958;EQDQ01+000003PRSWM1Q02    003PRSWM1
0109477860999992000050608004+33930+131280FM-15+0008RJDC V0203001N00721220001CN0099001N1+02201+01401999999ADDMA1101291999999MW1001REMMET057RJDC 060800Z 30014KT 270V330 CAVOK 22/14 Q1013 RMK A2994;EQDQ01+000000PRSWM2
0149477860999992000050800004+33930+131280FM-15+0008RJDC V0201301N002612200019N0050001N1+01601+01201999999ADDGF100991999999999999999999MA1101691999999MW1051REMMET055RJDC 080000Z 13005KT 5000 HZ SKC 16/12 Q1017 RMK A3005;EQDQ01+000003PRSWM1Q02    003PRSWM1
0209477860999992000051311004+33930+131280FM-15+0008RJDC V0201101N003610150019N0080001N1+01501+01301999999ADDGA1021+006009999GA2071+015009999GA3071+999999999GF107991999999999999999999MA1100811999999MW1001REMMET083RJDC 131100Z 11007KT 8000 FEW020 BKN050 BKN/// 15/13 Q1008 RMK 1CU020 5SC050 A2979;EQDQ01+000000PRSWM2
0156477860999992000051511004+33930+131280FM-15+0008RJDC V0202901N003612200019N0112651N1+01701+01301999999ADDGA1021+007509999GF102991999999999999999999MA1101021999999MW1001REMMET062RJDC 151100Z 29007KT 9999 FEW025 17/13 Q1010 RMK 1CU025 A2985;EQDQ01+000000PRSWM2
0156477860999992000052105004+33930+131280FM-15+0008RJDC V0202401N005712200019N0112651N1+02401+01301999999ADDGA1021+009009999GF102991999999999999999999MA1101291999999MW1001REMMET062RJDC 210500Z 24011KT 9999 FEW030 24/13 Q1013 RMK 1CU030 A2992;EQDQ01+000000PRSWM2
0101477860999992000060803004+33930+131280FM-15+0008RJDC V0200801N00671220001CN0099001N1+02301+01901999999ADDMA1100411999999MW1001REMMET049RJDC 080300Z 08013KT CAVOK 23/19 Q1004 RMK A2967;EQDQ01+000000PRSWM2
0205477860999992000061720304+33920+131280FM-15+0008RJDC V0200401N000510030019N0050001N1+02001+02001999999ADDGA1021+001209999GA2071+003009999GF107991999999999999999999MA1101021999999MW1101REMMET079RJDC 172130Z 04001KT 5000 BR FEW004 BKN010 20/20 Q1010 RMK 1ST004 7ST010 A2983;EQDQ01+000003PRSWM1Q02    003PRSWM1
0217477860999992000062011004+33920+131280FM-15+0008RJDC V0202801N002610360019N0070001N1+02601+02101999999ADDGA1021+006009999GA2071+036009999GA3081+999999999GF108991999999999999999999MA1100711999999MW1001REMMET091RJDC 201100Z 28005KT 260V330 7000 FEW020 BKN120 OVC/// 26/21 Q1007 RMK 1CU020 5AC120 A2976;EQDQ01+000000PRSWM2
0235477860999992000062203004+33920+131280FM-15+0008RJDC V0200701N007710090019N0040001N1+02201+02101999999ADDGA1021+001509999GA2021+006009999GA3071+009009999GF107991999999999999999999MA1100811999999MW1101REMMET093RJDC 220300Z 07015KT 4000 BR FEW005 SCT020 BKN030 22/21 Q1008 RMK 1ST005 4CU020 5CU030 A2977;EQDQ01+000003PRSWM1Q02    003PRSWM1
0156477860999992000070601004+33920+131280FM-15+0008RJDC V0200901N005112200019N0090001N1+02601+02301999999ADDGA1021+006009999GF102991999999999999999999MA1100811999999MW1001REMMET062RJDC 060100Z 09010KT 9000 FEW020 26/23 Q1008 RMK 2CU020 A2979;EQDQ01+000000PRSWM2
0156477860999992000070711004+33920+131280FM-15+0008RJDC V0203401N004612200019N0112651N1+02401+01901999999ADDGA1021+006009999GF102991999999999999999999MA1099901999999MW1001REMMET062RJDC 071100Z 34009KT 9999 FEW020 24/19 Q0999 RMK 1CU020 A2951;EQDQ01+000000PRSWM2
0209477860999992000070923004+33920+131280FM-15+0008RJDC V0200701N003610360019N0090001N1+02501+02201999999ADDGA1021+013509999GA2071+036009999GA3071+999999999GF107991999999999999999999MA1101391999999MW1001REMMET083RJDC 092300Z 07007KT 9000 FEW045 BKN120 BKN/// 25/22 Q1014 RMK 2SC045 5AC120 A2995;EQDQ01+000000PRSWM2
0216477860999992000071610004+33920+131280FM-15+0008RJDC V0202801N003110390019N0112651N1+02801+02301999999ADDGA1021+006009999GA2021+012009999GA3071+039009999GF107991999999999999999999MA1101191999999MW1001REMMET090RJDC 161000Z 28006KT 9999 FEW020 SCT040 BKN130 28/23 Q1012 RMK 1CU020 3SC040 6AC130 A2990;EQDQ01+000000PRSWM2
0156477860999992000080909004+33920+131280FM-15+0008RJDC V0200801N008712200019N0112651N1+02801+02401999999ADDGA1021+007509999GF102991999999999999999999MA1101021999999MW1001REMMET062RJDC 090900Z 08017KT 9999 FEW025 28/24 Q1010 RMK 2CU025 A2983;EQDQ01+000000PRSWM2
0156477860999992000081323004+33920+131280FM-15+0008RJDC V0203201N004112200019N0112651N1+02601+02101999999ADDGA1021+006009999GF102991999999999999999999MA1100711999999MW1001REMMET062RJDC 132300Z 32008KT 9999 FEW020 26/21 Q1007 RMK 1CU020 A2974;EQDQ01+000000PRSWM2
0216477860999992000082003004+33920+131280FM-15+0008RJDC V0200901N006710120019N0090001N1+02801+02601999999ADDGA1021+007509999GA2071+012009999GA3071+030009999GF107991999999999999999999MA1100311999999MW1001REMMET090RJDC 200300Z 09013KT 9000 FEW025 BKN040 BKN100 28/26 Q1003 RMK 1CU025 5SC040 7AC100 A2963;EQDQ01+000000PRSWM2
0267477860999992000082109004+33920+131280FM-15+0008RJDC V0203201N002610090019N0112651N1+02701+02401999999ADDGA1021+004509999GA2021+007509099GA3071+009009999GF107991999999999999999999MA1100911999999MW1171REMMET125RJDC 210900Z 32005KT 260V090 9999 TS FEW015 FEW025CB BKN030 27/24 Q1009 RMK 1CU015 2CB025 6CU030 A2980 FBL TS 20KM NE MOV NE;EQDQ01+000003PRSWM1Q02    003PRSWM1
0179477860999992000082303004+33920+131280FM-15+0008RJDC V0201201N003112200019N0112651N1+02801+02601999999ADDGA1021+006009999GA2021+999999999GF104991999999999999999999MA1101491999999MW1001REMMET069RJDC 230300Z 12006KT 9999 FEW020 SCT/// 28/26 Q1015 RMK 1CU020 A2999;EQDQ01+000000PRSWM2
0139477860999992000082800004+33920+131280FM-15+0008RJDC V0200901N006212200019N0112651N1+02801+02301999999ADDGA1021+009009999GF102991999999999999999999MA1101391999999MW1001REMMET045RJDC 280000Z 09012KT 9999 FEW030 28/23 Q1014;EQDQ01+000000PRSWM2
0186477860999992000082811004+33920+131280FM-15+0008RJDC V0201001N005712200019N0112651N1+02801+02401999999ADDGA1021+006009999GA2021+030009999GF104991999999999999999999MA1101291999999MW1001REMMET076RJDC 281100Z 10011KT 9999 FEW020 SCT100 28/24 Q1013 RMK 1CU020 3AC100 A2994;EQDQ01+000000PRSWM2
0179477860999992000090701004+33920+131280FM-15+0008RJDC V0201101N003112200019N0112651N1+02601+02201999999ADDGA1021+009009999GA2021+999999999GF104991999999999999999999MA1101021999999MW1001REMMET069RJDC 070100Z 11006KT 9999 FEW030 SCT/// 26/22 Q1010 RMK 1CU030 A2984;EQDQ01+000000PRSWM2
0156477860999992000090723004+33920+131280FM-15+0008RJDC V0200501N005112200019N0112651N1+02501+02101999999ADDGA1021+006009999GF102991999999999999999999MA1101291999999MW1001REMMET062RJDC 072300Z 05010KT 9999 FEW020 25/21 Q1013 RMK 2CU020 A2993;EQDQ01+000000PRSWM2
0221477860999992000090901004+33920+131280FM-15+0008RJDC V0201001N004110039019N0112651N1+02601+02501999999ADDGA1021+001509999GA2021+002709999GA3071+003909999GF107991999999999999999999MA1101081999999MW1001REMMET095RJDC 090100Z 10008KT 9999 FEW005 SCT009 BKN013 26/25 Q1011 RERA RMK 1ST005 3CU009 6CU013 A2987;EQDQ01+000000PRSWM2
0209477860999992000091310004+33920+131280FM-15+0008RJDC V0201001N005119999999N0112651N1+02701+02501999999ADDGA1021+006009999GA2021+012009999GA3071+999999999GF107991999999999999999999MA1100511999999MW1001REMMET083RJDC 131000Z 10010KT 9999 FEW020 SCT040 BKN/// 27/25 Q1005 RMK 1CU020 3CU040 A2969;EQDQ01+000000PRSWM2
0261477860999992000091403424+33920+131280FM-16+0008RJDC V0200801N006710090019N0112651N1+02701+02401999999ADDGA1021+004509999GA2021+007509099GA3071+009009999GF107991999999999999999999MA1100411999999MW1801REMMET119RJDC 140342Z 08013KT 9999 -SHRA FEW015 FEW025CB BKN030 27/24 Q1004 RETS RMK 2CU015 1CB025 6CU030 A2968 P/FR CB 15KM NW;EQDQ01+000003PRSWM1Q02    003PRSWM1
0187477860999992000091902004+33920+131280FM-15+0008RJDC V0202401N004112200019N0112651N1+02401+01501999999ADDGA1021+009009999GA2021+999999999GF104991999999999999999999MA1101901999999MW1001REMMET077RJDC 190200Z 24008KT 200V310 9999 FEW030 SCT/// 24/15 Q1019 RMK 1CU030 A3010;EQDQ01+000000PRSWM2
0156477860999992000091921304+33920+131280FM-15+0008RJDC V0203301N001512200019N0112651N1+01601+01301999999ADDGA1021+006009999GF102991999999999999999999MA1102101999999MW1001REMMET062RJDC 192130Z 33003KT 9999 FEW020 16/13 Q1021 RMK 1CU020 A3017;EQDQ01+000000PRSWM2
0298477860999992000092105354+33920+131280FM-16+0008RJDC V0201401N004110120019N0045001N1+02401+02101999999ADDGA1021+003009999GA2021+009009099GA3071+012009999GA4081+030009999GF108991999999999999999999MA1101801999999MW1801MW2951REMMET134RJDC 210535Z 14008KT 4500 -TSRA BR FEW010 FEW030CB BKN040 OVC100 24/21 Q1018 RMK 1ST010 1CB030 5CU040 8AS100 A3009 FBL TS 20KM S STNR;EQDQ01+000100PRSWM4Q02+000003PRSWM1
0164477860999992000092405004+33920+131280FM-15+0008RJDC V0203501N004612200019N0112651N1+02501+01501999999ADDGA1021+009009999GF104991999999999999999999MA1101021999999MW1001REMMET070RJDC 240500Z 35009KT 320V030 9999 SCT030 25/15 Q1010 RMK 3CU030 A2984;EQDQ01+000000PRSWM2
0179477860999992000092804004+33920+131280FM-15+0008RJDC V0201301N003119999999N0112651N1+02301+01001999999ADDGA1021+009009999GA2071+999999999GF107991999999999999999999MA1101591999999MW1001REMMET069RJDC 280400Z 13006KT 9999 FEW030 BKN/// 23/10 Q1016 RMK 1CU030 A3003;EQDQ01+000000PRSWM2
0101477860999992000100510004+33920+131280FM-15+0008RJDC V0203501N00361220001CN0099001N1+02101+01301999999ADDMA1101801999999MW1001REMMET049RJDC 051000Z 35007KT CAVOK 21/13 Q1018 RMK A3008;EQDQ01+000000PRSWM2
0109477860999992000101000004+33920+131280FM-15+0008RJDC V0203401N00311220001CN0099001N1+02201+01801999999ADDMA1101491999999MW1001REMMET057RJDC 100000Z 34006KT 310V020 CAVOK 22/18 Q1015 RMK A2998;EQDQ01+000000PRSWM2
0175477860999992000101123004+33920+131280FM-15+0008RJDC V0209999C000010105019N0030001N1+02001+02001999999ADDGA1071+010509999GF107991999999999999999999MA1101491999999MW1101REMMET065RJDC 112300Z 00000KT 3000 BR BKN035 20/20 Q1015 RMK 5CU035 A2998;EQDQ01+000003PRSWM1Q02    003PRSWM1
0206477860999992000101711004+33920+131280FM-15+0008RJDC V0203101N003110300019N0112651N1+01601+01301999999ADDGA1021+015009999GA2071+030009999GF107991999999999999999999MA1101691999999MW1611REMMET080RJDC 171100Z 31006KT 9999 -RA FEW050 BKN100 16/13 Q1017 RMK 2SC050 7AC100 A3005;EQDQ01+000003PRSWM1Q02    003PRSWM1
0186477860999992000102706004+33920+131280FM-15+0008RJDC V0201301N004612200019N0112651N1+01901+01101999999ADDGA1021+009009999GA2021+045009999GF104991999999999999999999MA1102201999999MW1001REMMET076RJDC 270600Z 13009KT 9999 FEW030 SCT150 19/11 Q1022 RMK 1CU030 3AC150 A3019;EQDQ01+000000PRSWM2
0186477860999992000111708004+33920+131280FM-15+0008RJDC V0203101N005110090019N0112651N1+01401+01101999999ADDGA1021+004509999GA2071+009009999GF107991999999999999999999MA1101801999999MW1001REMMET076RJDC 170800Z 31010KT 9999 FEW015 BKN030 14/11 Q1018 RMK 1CU015 7CU030 A3007;EQDQ01+000000PRSWM2
0156477860999992000112711004+33920+131280FM-15+0008RJDC V0202601N005112200019N0112651N1+01301+00501999999ADDGA1021+009009999GF102991999999999999999999MA1101691999999MW1001REMMET062RJDC 271100Z 26010KT 9999 FEW030 13/05 Q1017 RMK 1CU030 A3005;EQDQ01+000000PRSWM2
0156477860999992000120611004+33920+131280FM-15+0008RJDC V0203301N001512200019N0112651N1+00701+00201999999ADDGA1021+010509999GF102991999999999999999999MA1102401999999MW1001REMMET062RJDC 061100Z 33003KT 9999 FEW035 07/02 Q1024 RMK 1CU035 A3025;EQDQ01+000000PRSWM2
0187477860999992000121123004+33920+131280FM-15+0008RJDC V0203401N001512200019N0112651N1+00301-00301999999ADDGA1021+009009999GA2021+012009999GF104991999999999999999999MA1102611999999MW1001REMMET077RJDC 112300Z 34003KT 9999 FEW030 SCT040 03/M03 Q1026 RMK 1CU030 3CU040 A3030;EQDQ01+000000PRSWM2
0257477870999992000011222074+34050+131050FM-16+0007RJOZ V02099999999990024019N0049001N1+01001+00801999999ADDGA1021+001509999GA2071+002409999GA3081+007509999GF108991999999999999999999MA1101021999999MW1801REMMET099RJOZ 122207Z VRB03KT 4900 -SHRA BR FEW005 BKN008 OVC025 10/08 Q1010 RMK 2ST005 5ST008 8CU025 A2984;EQDQ01+000100PRSWM3Q02+000003PRSWM1Q03    003PRSWM1
0207477870999992000012101004+34050+131050FM-15+0007RJOZ V0203201N006710075019N0112651N1+00301-00701999999ADDGA1021+004509999GA2071+007509999GF107991999999999999999999MA1103391999999MW1851REMMET081RJOZ 0100Z 32013KT 9999 -SHSN SCT015 BKN025 03/M07 Q1034 RMK 3CU015 7CU025 A3056;EQDQ01+000003PRSWM1Q02    003PRSWM1
0187477870999992000012702324+34050+131050FM-16+0007RJOZ V0200201N007210105019N0112651N1+00401-00301999999ADDGA1021+004509999GA2071+010509999GF107991999999999999999999MA1102511999999MW1001REMMET077RJOZ 270232Z 02014KT 9999 FEW015 BKN035 04/M03 Q1025 RMK 1CU015 5CU035 A3030;EQDQ01+000000PRSWM2
0232477870999992000020103004+34050+131050FM-15+0007RJOZ V0201801N004110300019N0112651N1+00701+00201999999ADDGA1021+006009999GA2071+030009999GF107991999999999999999999MA1102911999999MW1001REMMET122RJOZ 0300Z 18008KT 9999 FEW020 BKN100 07/02 Q1029 RMK 1CU020 7AC100 A3041 FCST 0315 TEMPO 0309 FEW020CU BKN030CU BKN100AC;EQDQ01+000000PRSWM2
0206477870999992000020112004+34050+131050FM-15+0007RJOZ V0202901N001010075019N0112651N1+00601+00401999999ADDGA1021+003009999GA2081+007509999GF108991999999999999999999MA1102711999999MW1801REMMET080RJOZ 1200Z 29002KT 9999 -SHRA FEW010 OVC025 06/04 Q1027 RMK 2CU010 8CU025 A3033;EQDQ01+000003PRSWM1Q02    003PRSWM1
0185477870999992000020118004+34050+131050FM-15+0007RJOZ V0203201N001510090019N0112651N1+00601+00001999999ADDGA1021+006009999GA2071+009009999GF107991999999999999999999MA1102611999999MW1001REMMET075RJOZ 1800Z 32003KT 9999 FEW020 BKN030 06/M00 Q1026 RMK 1CU020 6CU030 A3030;EQDQ01+000000PRSWM2
0185477870999992000020321004+34050+131050FM-15+0007RJOZ V0203501N003612200019N0112651N1+00601-00201999999ADDGA1021+006009999GA2021+010509999GF104991999999999999999999MA1102511999999MW1001REMMET075RJOZ 2100Z 35007KT 9999 FEW020 SCT035 06/M02 Q1025 RMK 1CU020 4CU035 A3030;EQDQ01+000000PRSWM2
0166477870999992000020823004+34050+131050FM-15+0007RJOZ V0203001N006212200019N0112651N1+00401-00601999999ADDGA1021+009009999GF104991999999999999999999MA1101801999999MW1001OC101131REMMET064RJOZ 2300Z 30012G22KT 9999 SCT030 04/M06 Q1018 RMK 3CU030 A3007;EQDQ01+000000PRSWM2
0154477870999992000021012004+34050+131050FM-15+0007RJOZ V0202401N005712200019N0112651N1+00801+00301999999ADDGA1021+009009999GF102991999999999999999999MA1101801999999MW1001REMMET060RJOZ 1200Z 24011KT 9999 FEW030 08/03 Q1018 RMK 2CU030 A3008;EQDQ01+000000PRSWM2
0212477870999992000021606004+34050+131050FM-15+0007RJOZ V0202901N009310075019N0112651N1+00501-00601999999ADDGA1021+004509999GA2071+007509999GF107991999999999999999999MA1101801999999MW1001OC101441REMMET094RJOZ 0600Z 29018G28KT 9999 FEW015 BKN025 05/M06 Q1018 RMK 1CU015 6CU025 A3007 FCST 0618 NOSIG;EQDQ01+000000PRSWM2
0198477870999992000021700494+34050+131050FM-16+0007RJOZ V0202901N008710090019N0112651N1+00501-00601999999ADDGA1021+006009999GA2071+009009999GF107991999999999999999999MA1102401999999MW1001OC101391REMMET080RJOZ 170049Z 29017G27KT 9999 FEW020 BKN030 05/M06 Q1024 RMK 1CU020 6CU030 A3024;EQDQ01+000000PRSWM2
0196477870999992000021701004+34050+131050FM-15+0007RJOZ V0202901N008210090019N0112651N1+00501-00501999999ADDGA1021+006009999GA2071+009009999GF107991999999999999999999MA1102401999999MW1001OC101391REMMET078RJOZ 0100Z 29016G27KT 9999 FEW020 BKN030 05/M05 Q1024 RMK 1CU020 6CU030 A3024;EQDQ01+000000PRSWM2
0171477870999992000021722004+34050+131050FM-15+0007RJOZ V0203001N002112200019N0112651N1+00401-00501999999ADDGA1021+007509999GF102991999999999999999999MA1102401999999MW1001REMMET077RJOZ 2200Z 30004KT 9999 FEW025 04/M05 Q1024 RMK 1CU025 A3024 FCST 2210 NOSIG;EQDQ01+000000PRSWM2
0208477870999992000022501004+34050+131050FM-15+0007RJOZ V0201501N002610600019N0112651N1+00501-00101999999ADDGA1021+009009999GA2021+012009999GA3071+060009999GF107991999999999999999999MA1102401999999MW1001REMMET082RJOZ 0100Z 15005KT 9999 FEW030 SCT040 BKN200 05/M01 Q1024 RMK 1CU030 4SC040 A3025;EQDQ01+000000PRSWM2
0257477870999992000022601094+34050+131050FM-16+0007RJOZ V0202501N008210090019N0050001N1+00501+00401999999ADDGA1021+003009999GA2021+006009999GA3071+009009999GF107991999999999999999999MA1101691999999MW1801REMMET099RJOZ 260109Z 25016KT 5000 -SHRA BR FEW010 SCT020 BKN030 05/04 Q1017 RMK 1ST010 3CU020 7CU030 A3003;EQDQ01+000100PRSWM3Q02+000003PRSWM1Q03    003PRSWM1
0236477870999992000031104154+34050+131050FM-16+0007RJOZ V0201101N004610060019N0080001N1+00601+00401999999ADDGA1021+001809999GA2071+006009999GA3071+012009999GF107991999999999999999999MA1101691999999MW1611REMMET094RJOZ 110415Z 11009KT 8000 -RA FEW006 BKN020 BKN040 06/04 Q1017 RMK 1ST006 5CU020 7SC040 A3004;EQDQ01+000003PRSWM1Q02    003PRSWM1
0234477870999992000031109004+34050+131050FM-15+0007RJOZ V0200501N001010045019N0112651N1+00501+00401999999ADDGA1021+002409999GA2071+004509999GA3081+012009999GF108991999999999999999999MA1101391999999MW1611REMMET092RJOZ 0900Z 05002KT 9999 -RA FEW008 BKN015 OVC040 05/04 Q1014 RMK 1ST008 5CU015 8SC040 A2996;EQDQ01+000003PRSWM1Q02    003PRSWM1
0252477870999992000031123004+34050+131050FM-15+0007RJOZ V0200201N002110105019N0050001N1+00601+00601999999ADDGA1021+004509999GA2071+010509999GA3081+024009999GF108991999999999999999999MA1101191999999MW1101MW2401MW3611REMMET114RJOZ 2300Z 02004KT 5000 -RA BR VCFG FEW015 BKN035 OVC080 06/06 Q1012 RMK 2CU015 7SC035 8AS080 A2989 FG BANK SW-NW;EQDQ01+000003PRSWM1
0193477870999992000041122004+34050+131050FM-15+0007RJOZ V0202801N005110690019N0112651N1+01201+00601999999ADDGA1021+009009999GA2071+069009999GF107991999999999999999999MA1101021999999MW1001REMMET083RJOZ 2200Z 28010KT 9999 FEW030 BKN230 12/06 Q1010 RMK 1CU030 A2985 FCST 2210 NOSIG;EQDQ01+000000PRSWM2
0128477870999992000041217004+34050+131050FM-15+0007RJOZ V0200101N002112200019N0112651N1+01401+00601999999ADDGF100991999999999999999999MA1100911999999MW1001REMMET050RJOZ 1700Z 01004KT 9999 SKC 14/06 Q1009 RMK A2980;EQDQ01+000000PRSWM2
0128477870999992000041305004+34050+131050FM-15+0007RJOZ V0202801N007212200019N0112651N1+02301+00801999999ADDGF100991999999999999999999MA1100911999999MW1001REMMET050RJOZ 0500Z 28014KT 9999 SKC 23/08 Q1009 RMK A2982;EQDQ01+000000PRSWM2
0167477870999992000042306004+34050+131050FM-15+0007RJOZ V0202701N013412200019N0112651N1+01901+00301999999ADDGA1021+009009999GF102991999999999999999999MA1100611999999MW1001OC102111REMMET065RJOZ 230600Z 27026G41KT 9999 FEW030 19/03 Q1006 RMK 1CU030 A2971;EQDQ01+000000PRSWM2
0149477870999992000042420374+34050+131050FM-16+0007RJOZ V0203401N003610600019N0112651N1+00901+00701999999ADDGA1071+060009999GF107991999999999999999999MA1101291999999MW1001REMMET055RJOZ 242037Z 34007KT 9999 BKN200 09/07 Q1013 RMK A2994;EQDQ01+000000PRSWM2
0179477870999992000042501004+34050+131050FM-15+0007RJOZ V0201701N002110660019N0112651N1+01601+00901999999ADDGA1021+010509999GA2071+066009999GF107991999999999999999999MA1101291999999MW1001REMMET069RJOZ 250100Z 17004KT 9999 FEW035 BKN220 16/09 Q1013 RMK 1CU035 A2994;EQDQ01+000000PRSWM2
0236477870999992000042514374+34050+131050FM-16+0007RJOZ V0200401N001510135019N0112651N1+01501+01301999999ADDGA1021+007509999GA2071+013509999GA3081+024009999GF108991999999999999999999MA1100811999999MW1611REMMET094RJOZ 251437Z 04003KT 9999 -RA FEW025 BKN045 OVC080 15/13 Q1008 RMK 1CU025 5SC045 8AS080 A2978;EQDQ01+000003PRSWM1Q02    003PRSWM1
0259477870999992000042520524+34050+131050FM-16+0007RJOZ V0201001N007210036019N0050001N1+01401+01201999999ADDGA1021+001509999GA2071+003609999GA3081+012009999GF108991999999999999999999MA1100201999999MW1611REMMET101RJOZ 252052Z 10014KT 5000 -RA BR FEW005 BKN012 OVC040 14/12 Q1002 RERA RMK 2ST005 6ST12 8SC040 A2959;EQDQ01+000100PRSWM3Q02+000003PRSWM1Q03    003PRSWM1
0209477870999992000042605114+34050+131050FM-16+0007RJOZ V0201401N007710060019N0112651N1+01801+01401999999ADDGA1021+003009999GA2071+006009999GA3071+060009999GF107991999999999999999999MA1100001999999MW1001REMMET083RJOZ 260511Z 14015KT 9999 FEW010 BKN020 BKN200 18/14 Q1000 RMK 1CU010 5CU020 A2953;EQDQ01+000000PRSWM2
0156477870999992000042813004+34050+131050FM-15+0007RJOZ V0200201N003112200019N0112651N1+01201+00901999999ADDGA1021+009009999GF102991999999999999999999MA1101591999999MW1001REMMET062RJOZ 281300Z 02006KT 9999 FEW030 12/09 Q1016 RMK 1CU030 A3002;EQDQ01+000000PRSWM2
0179477870999992000042917004+34050+131050FM-15+0007RJOZ V0201301N001012200019N0112651N1+01101+00801999999ADDGA1021+009009999GA2021+069009999GF104991999999999999999999MA1101491999999MW1001REMMET069RJOZ 291700Z 13002KT 9999 FEW030 SCT230 11/08 Q1015 RMK 1CU030 A2998;EQDQ01+000000PRSWM2
0130477870999992000050409004+34050+131050FM-15+0007RJOZ V0202901N004112200019N0112651N1+02201+00901999999ADDGF100991999999999999999999MA1101391999999MW1001REMMET052RJOZ 040900Z 29008KT 9999 SKC 22/09 Q1014 RMK A2996;EQDQ01+000000PRSWM2
0149477870999992000050908004+34050+131050FM-15+0007RJOZ V0201201N002612200019N0112651N1+02301+01501999999ADDGA1021+060009999GF104991999999999999999999MA1101021999999MW1001REMMET055RJOZ 090800Z 12005KT 9999 SCT200 23/15 Q1010 RMK A2985;EQDQ01+000000PRSWM2
0235477870999992000051001004+34050+131050FM-15+0007RJOZ V0201501N004610120019N0045001N1+02001+01701999999ADDGA1021+003009999GA2071+012009999GA3071+036009999GF107991999999999999999999MA1101081999999MW1101REMMET093RJOZ 100100Z 15009KT 4500 BR SCT010 BKN040 BKN120 20/17 Q1011 RMK 3ST010 5CU040 7AC120 A2987;EQDQ01+000003PRSWM1Q02    003PRSWM1
0156477870999992000051115004+34050+131050FM-15+0007RJOZ V0203201N001012200019N0112651N1+01501+01101999999ADDGA1021+009009999GF102991999999999999999999MA1100811999999MW1001REMMET062RJOZ 111500Z 32002KT 9999 FEW030 15/11 Q1008 RMK 1CU030 A2978;EQDQ01+000000PRSWM2
0179477870999992000051414004+34050+131050FM-15+0007RJOZ V0203601N004110600019N0112651N1+01701+01401999999ADDGA1021+009009999GA2071+060009999GF107991999999999999999999MA1101081999999MW1001REMMET069RJOZ 141400Z 36008KT 9999 FEW030 BKN200 17/14 Q1011 RMK 1CU030 A2988;EQDQ01+000000PRSWM2
0282477870999992000051500004+34050+131050FM-15+0007RJOZ V02099999999990090019N0080001N1+01701+01501999999ADDGA1021+003009999GA2071+009009999GA3071+024009999GF107991999999999999999999MA1101081999999MW1801REMMET140RJOZ 150000Z VRB01KT 8000 -SHRA FEW010 BKN030 BKN080 17/15 Q1011 RMK 1ST010 5CU030 7AC080 A2988 FCST 0012 BECMG 0810 9999 SCT030CU BKN080AC;EQDQ01+000003PRSWM1Q02    003PRSWM1
0186477870999992000051716404+34050+131050FM-16+0007RJOZ V0200201N002112200019N0112651N1+01601+01401999999ADDGA1021+006009999GA2021+010509999GF104991999999999999999999MA1100911999999MW1001REMMET076RJOZ 171640Z 02004KT 9999 FEW020 SCT035 16/14 Q1009 RMK 1CU020 4CU035 A2981;EQDQ01+000000PRSWM2
0179477870999992000052208004+34050+131050FM-15+0007RJOZ V0201701N001510750019N0112651N1+02101+01601999999ADDGA1021+045009999GA2081+075009999GF108991999999999999999999MA1101291999999MW1001REMMET069RJOZ 220800Z 17003KT 9999 SCT150 OVC250 21/16 Q1013 RMK 3AC150 A2994;EQDQ01+000000PRSWM2
0172477870999992000052306004+34050+131050FM-15+0007RJOZ V0202801N005712200019N0112651N1+02701+01701999999ADDGA1021+007509999GF102991999999999999999999MA1101291999999MW1001REMMET078RJOZ 230600Z 28011KT 9999 FEW025 27/17 Q1013 RMK 1CU025 A2994 FCST 0618 NOSIG;EQDQ01+000000PRSWM2
0165477870999992000052403004+34050+131050FM-15+0007RJOZ V0202701N004610750019N0112651N1+02801+01301999999ADDGA1071+075009999GF107991999999999999999999MA1101291999999MW1001REMMET071RJOZ 240300Z 27009KT 9999 BKN250 28/13 Q1013 RMK A2994 FCST 0315 NOSIG;EQDQ01+000000PRSWM2
0149477870999992000052411004+34050+131050FM-15+0007RJOZ V0200101N003110750019N0112651N1+02401+01501999999ADDGA1071+075009999GF107991999999999999999999MA1101191999999MW1001REMMET055RJOZ 241100Z 01006KT 9999 BKN250 24/15 Q1012 RMK A2990;EQDQ01+000000PRSWM2
0149477870999992000052513004+34050+131050FM-15+0007RJOZ V0200201N001510600019N0112651N1+02401+01701999999ADDGA1071+060009999GF107991999999999999999999MA1101191999999MW1001REMMET055RJOZ 251300Z 02003KT 9999 BKN200 24/17 Q1012 RMK A2991;EQDQ01+000000PRSWM2
0156477870999992000052816004+34050+131050FM-15+0007RJOZ V0202801N005712200019N0112651N1+01901+01501999999ADDGA1021+009009999GF102991999999999999999999MA1100911999999MW1001REMMET062RJOZ 281600Z 28011KT 9999 FEW030 19/15 Q1009 RMK 1CU030 A2980;EQDQ01+000000PRSWM2
0149477870999992000060614004+34050+131050FM-15+0007RJOZ V0203601N002612200019N0112651N1+02001+01401999999ADDGA1021+060009999GF102991999999999999999999MA1100811999999MW1001REMMET055RJOZ 061400Z 36005KT 9999 FEW200 20/14 Q1008 RMK A2978;EQDQ01+000000PRSWM2
0209477870999992000061804004+34500+131500FM-15+0007RJOZ V0201601N004110360019N0112651N1+02501+02001999999ADDGA1021+009009999GA2071+036009999GA3071+060009999GF107991999999999999999999MA1100911999999MW1001REMMET083RJOZ 180400Z 16008KT 9999 FEW030 BKN120 BKN200 25/20 Q1009 RMK 1CU030 5AC120 A2981;EQDQ01+000000PRSWM2
0251477870999992000062203004+34500+131500FM-15+0007RJOZ V0201101N006710060019N0060001N1+02501+02101999999ADDGA1021+003609999GA2071+006009999GA3071+036009999GF107991999999999999999999MA1100711999999MW1001REMMET125RJOZ 220300Z 11013KT 6000 FEW012 BKN020 BKN120 25/21 Q1007 RMK 2CU012 5CU020 7AC120 A2976 FCST 0315 TEMPO 0306 4500 -SHRA BR;EQDQ01+000000PRSWM2
0278477870999992000062300004+34500+131500FM-15+0007RJOZ V0201401N000510075019N0112651N1+02601+02301999999ADDGA1021+003009999GA2021+004509999GA3071+007509999GF107991999999999999999999MA1100711999999MW1001REMMET152RJOZ 230000Z 14001KT 9999 FEW010 SCT015 BKN025 26/23 Q1007 RMK 1ST010 3CU015 6CU025 A2974 FCST 0012 TEMPO 0006 4000 -SHRA BR SCT010ST BKN015CU BKN030SC;EQDQ01+000000PRSWM2
0216477870999992000062812004+34500+131500FM-15+0007RJOZ V0203601N004110045019N0112651N1+02301+02001999999ADDGA1021+001809999GA2071+004509999GA3081+006009999GF108991999999999999999999MA1100411999999MW1001REMMET090RJOZ 281200Z 36008KT 9999 FEW006 BKN015 OVC020 23/20 Q1004 RMK 1ST006 6CU015 8CU020 A2965;EQDQ01+000000PRSWM2
0236477870999992000070706004+34500+131500FM-15+0007RJOZ V0200101N006712200019N0112651N1+03101+01901999999ADDGA1021+010509999GA2021+039009999GF104991999999999999999999MA1100001999999MW1001REMMET126RJOZ 070600Z 01013KT 9999 FEW035 SCT130 31/19 Q1000 RMK 1CU035 4AC130 A2955 FCST 0618 TEMPO 0612 03015G25KT BKN035CU BKN100AC;EQDQ01+000000PRSWM2
0179477870999992000070909004+34500+131500FM-15+0007RJOZ V0201601N003610660019N0112651N1+02701+02101999999ADDGA1021+007509999GA2071+066009999GF107991999999999999999999MA1100911999999MW1001REMMET069RJOZ 090900Z 16007KT 9999 FEW025 BKN220 27/21 Q1009 RMK 1CU025 A2982;EQDQ01+000000PRSWM2
0112477870999992000071316004+34500+131500FM-15+0007RJOZ V02099999999992200019N0070001N1+99999+99999999999ADDMW1001REMMET075RJOZ 31600Z 27005KT 9000 FEW035 BKN080 26/23 Q1007 RMK 2CU035 7AC080 A2976;EQDQ01+000000PRSWM2
0235477870999992000071401004+34500+131500FM-15+0007RJOZ V0202901N001510075019N0050001N1+02601+02401999999ADDGA1021+002409999GA2071+007509999GA3071+030009999GF107991999999999999999999MA1100911999999MW1101REMMET093RJOZ 140100Z 29003KT 5000 BR FEW008 BKN025 BKN100 26/24 Q1009 RMK 1ST008 7CU025 7AC100 A2981;EQDQ01+000003PRSWM1Q02    003PRSWM1
0187477870999992000071807004+34050+131040FM-15+0007RJOZ V0203401N005110750019N0112651N1+03301+02201999999ADDGA1021+007509099GA2071+075009999GF107991999999999999999999MA1100711999999MW1001REMMET077RJOZ 180700Z 34010KT 9999 FEW025CB BKN250 33/22 Q1007 RMK 1CB025 A2976 CB SW;EQDQ01+000000PRSWM2
0229477870999992000071904004+34050+131040FM-15+0007RJOZ V0202501N003610360019N0112651N1+03301+02501999999ADDGA1021+007509999GA2021+007509029GA3071+036009999GF107991999999999999999999MA1100811999999MW1001REMMET103RJOZ 190400Z 25007KT 9999 SCT025 FEW025TCU BKN120 33/25 Q1008 RMK 3CU025 1TCU025 6AC120 A2978 TCU S-SW;EQDQ01+000000PRSWM2
0252477870999992000072409004+34050+131040FM-15+0007RJOZ V0201601N005110090019N0050001N1+02501+02401999999ADDGA1021+001809999GA2021+004509999GA3071+009009999GF107991999999999999999999MA1100311999999MW1101MW2801REMMET104RJOZ 240900Z 16010KT 5000 -SHRA BR FEW006 SCT015 BKN030 25/24 Q1003 RERA RMK 2ST006 3CU015 6CU030 A2962;EQDQ01+000003PRSWM1Q02    003PRSWM1
0238477870999992000080209004+34050+131040FM-15+0007RJOZ V0201101N008210036019N0112651N1+02601+02301999999ADDGA1021+001809999GA2071+003609999GA3071+007509999GF107991999999999999999999MA1100711999999MW1801REMMET096RJOZ 020900Z 11016KT 9999 -SHRA FEW006 BKN012 BKN025 26/23 Q1007 RMK 2ST006 5CU012 7CU025 A2976;EQDQ01+000003PRSWM1Q02    003PRSWM1
0238477870999992000080217004+34050+131040FM-15+0007RJOZ V0201101N007710036019N0112651N1+02501+02301999999ADDGA1021+002409999GA2071+003609999GA3071+007509999GF107991999999999999999999MA1101021999999MW1801REMMET096RJOZ 021700Z 11015KT 9999 -SHRA FEW008 BKN012 BKN025 25/23 Q1010 RMK 1ST008 6CU012 7CU025 A2984;EQDQ01+000003PRSWM1Q02    003PRSWM1
0156477870999992000080418004+34050+131040FM-15+0007RJOZ V0203601N002112200019N0112651N1+02401+02101999999ADDGA1021+010509999GF102991999999999999999999MA1101291999999MW1001REMMET062RJOZ 041800Z 36004KT 9999 FEW035 24/21 Q1013 RMK 1CU035 A2994;EQDQ01+000000PRSWM2
0156477870999992000080620004+34050+131040FM-15+0007RJOZ V0203301N002112200019N0112651N1+02601+02301999999ADDGA1021+007509999GF102991999999999999999999MA1101081999999MW1001REMMET062RJOZ 062000Z 33004KT 9999 FEW025 26/23 Q1011 RMK 1CU025 A2988;EQDQ01+000000PRSWM2
0156477870999992000080919004+34050+131040FM-15+0007RJOZ V0200701N001512200019N0112651N1+02701+02401999999ADDGA1021+003009999GF102991999999999999999999MA1101081999999MW1001REMMET062RJOZ 091900Z 07003KT 9999 FEW010 27/24 Q1011 RMK 1CU010 A2987;EQDQ01+000000PRSWM2
0149477870999992000081218004+34050+131040FM-15+0007RJOZ V0203501N003112200019N0112651N1+02801+02301999999ADDGA1021+060009999GF102991999999999999999999MA1100311999999MW1001REMMET055RJOZ 121800Z 35006KT 9999 FEW200 28/23 Q1003 RMK A2965;EQDQ01+000000PRSWM2
0156477870999992000081310024+34050+131040FM-16+0007RJOZ V0203601N005112200019N0112651N1+02801+02301999999ADDGA1021+010509999GF104991999999999999999999MA1100511999999MW1001REMMET062RJOZ 131002Z 36010KT 9999 SCT035 28/23 Q1005 RMK 4CU035 A2968;EQDQ01+000000PRSWM2
0186477870999992000081400004+34050+131040FM-15+0007RJOZ V0203401N004112200019N0112651N1+02901+02101999999ADDGA1021+007509999GF102991999999999999999999MA1100711999999MW1001REMMET092RJOZ 140000Z 34008KT 9999 FEW025 29/21 Q1007 RMK 2CU025 A2975 FCST 0012 TEMPO 0510 BKN025CU;EQDQ01+000000PRSWM2
0271477870999992000081606314+34050+131040FM-16+0007RJOZ V0201301N004610360019N0112651N1+03201+02301999999ADDGA1021+007509099GA2021+030009999GA3071+036009999GF107991999999999999999999MA1100511999999MW1171REMMET129RJOZ 160631Z 13009KT 9999 VCTS SCT025CB SCT100 BKN120 32/23 Q1005 RMK 3CB025 3AC100 7AC120 A2969 FBL TS BEGAN 0631 20KM S MOV NE;EQDQ01+000003PRSWM1Q02    003PRSWM1
0216477870999992000081610284+34050+131040FM-16+0007RJOZ V02099999999990090019N0112651N1+02901+02401999999ADDGA1021+006009999GA2071+009009999GA3071+030009999GF107991999999999999999999MA1100611999999MW1001REMMET090RJOZ 161028Z VRB01KT 9999 FEW020 BKN030 BKN100 29/24 Q1006 RMK 1CU020 5CU030 7AC100 A2972;EQDQ01+000000PRSWM2
0186477870999992000081617004+34050+131040FM-15+0007RJOZ V0203301N002110090019N0112651N1+02601+02401999999ADDGA1071+009009999GA2071+030009999GF107991999999999999999999MA1100711999999MW1001REMMET076RJOZ 161700Z 33004KT 9999 BKN030 BKN100 26/24 Q1007 RMK 5CU030 7AC100 A2974;EQDQ01+000000PRSWM2
0236477870999992000082306004+34050+131040FM-15+0007RJOZ V0202601N002612200019N0112651N1+03301+02301999999ADDGA1021+006009999GA2021+007509029GF102991999999999999999999MA1101391999999MW1001REMMET126RJOZ 230600Z 26005KT 9999 FEW020 FEW025TCU 33/23 Q1014 RMK 2CU020 1TCU025 A2996 TCU E FCST 0618 TEMPO 0811 BKN020CU FEW025TCU;EQDQ01+000000PRSWM2
0216477870999992000083009004+34050+131040FM-15+0007RJOZ V0201301N005110210019N0112651N1+03101+02301999999ADDGA1021+007509999GA2021+010509999GA3071+021009999GF107991999999999999999999MA1100811999999MW1001REMMET090RJOZ 300900Z 13010KT 9999 FEW025 SCT035 BKN070 31/23 Q1008 RMK 1CU025 3CU035 5AC070 A2978;EQDQ01+000000PRSWM2
0278477870999992000090103004+34050+131040FM-15+0007RJOZ V0201801N003610105019N0112651N1+03101+02601999999ADDGA1021+004509999GA2071+010509999GA3071+030009999GF107991999999999999999999MA1100811999999MW1001REMMET152RJOZ 010300Z 18007KT 9999 FEW015 BKN035 BKN100 31/26 Q1008 RMK 1CU015 6CU035 7AC100 A2978 FCST 0315 TEMPO 0309 5000 -SHRA BR FEW010CU BKN020CU BKN100AC;EQDQ01+000000PRSWM2
0216477870999992000091304004+34050+131040FM-15+0007RJOZ V0201201N008210105019N0112651N1+03101+02301999999ADDGA1021+004509999GA2071+010509999GA3071+030009999GF107991999999999999999999MA1100511999999MW1001REMMET090RJOZ 130400Z 12016KT 9999 FEW015 BKN035 BKN100 31/23 Q1005 RMK 1CU015 5CU035 7AC100 A2969;EQDQ01+000000PRSWM2
0227477870999992000091521004+34050+131040FM-15+0007RJOZ V0201401N015410075019N0112651N1+02901+02301999999ADDGA1021+004509999GA2071+007509999GA3071+036009999GF107991999999999999999999MA1099091999999MW1001OC102111REMMET093RJOZ 152100Z 14030G41KT 9999 FEW015 BKN025 BKN120 29/23 Q0991 RMK 1CU015 6CU025 7AC120 A2929;EQDQ01+000000PRSWM2
0156477870999992000091901004+34050+131040FM-15+0007RJOZ V0201801N001512200019N0112651N1+02401+01601999999ADDGA1021+009009999GF102991999999999999999999MA1101901999999MW1001REMMET062RJOZ 190100Z 18003KT 9999 FEW030 24/16 Q1019 RMK 1CU030 A3012;EQDQ01+000000PRSWM2
0149477870999992000092018004+34050+131040FM-15+0007RJOZ V0203601N003612200019N0112651N1+02001+01801999999ADDGA1021+069009999GF104991999999999999999999MA1102001999999MW1001REMMET055RJOZ 201800Z 36007KT 9999 SCT230 20/18 Q1020 RMK A3013;EQDQ01+000000PRSWM2
0216477870999992000092223004+34050+131040FM-15+0007RJOZ V0200201N001010075019N0112651N1+02201+02001999999ADDGA1021+002409999GA2021+004509999GA3071+007509999GF107991999999999999999999MA1101191999999MW1001REMMET090RJOZ 222300Z 02002KT 9999 FEW008 SCT015 BKN025 22/20 Q1012 RMK 1ST008 3CU015 7CU025 A2991;EQDQ01+000000PRSWM2
0172477870999992000092406004+34050+131040FM-15+0007RJOZ V0203601N005110075019N0112651N1+02601+01601999999ADDGA1071+007509999GF107991999999999999999999MA1101021999999MW1001REMMET078RJOZ 240600Z 36010KT 9999 BKN025 26/16 Q1010 RMK 5CU025 A2985 FCST 0618 NOSIG;EQDQ01+000000PRSWM2
0216477870999992000092809004+34050+131040FM-15+0007RJOZ V0200101N004110360019N0112651N1+02201+01501999999ADDGA1021+015009999GA2021+024009999GA3071+036009999GF107991999999999999999999MA1101591999999MW1001REMMET090RJOZ 280900Z 01008KT 9999 FEW050 SCT080 BKN120 22/15 Q1016 RMK 2SC050 4AC080 6AC120 A3002;EQDQ01+000000PRSWM2
0169477870999992000100304114+34050+131040FM-16+0007RJOZ V0203601N00411220001CN0112651N1+02501+01401999999ADDGA1071+006009999GA2021+066009999MA1101021999999MW1001REMMET069RJOZ 030411Z 36008KT 9999 BKN020 SCT220 25/14 Q1010 RMK 5CU020 A2984;EQDQ01+000042SCOTCVQ02+000000PRSWM2
0156477870999992000101014004+34050+131040FM-15+0007RJOZ V0203501N004612200019N0112651N1+02001+01801999999ADDGA1021+009009999GF102991999999999999999999MA1101491999999MW1001REMMET062RJOZ 101400Z 35009KT 9999 FEW030 20/18 Q1015 RMK 1CU030 A3000;EQDQ01+000000PRSWM2
0238477870999992000101802234+34050+131040FM-16+0007RJOZ V0200201N004610075019N0112651N1+02101+01501999999ADDGA1021+004509999GA2071+007509999GA3071+036009999GF107991999999999999999999MA1101901999999MW1801REMMET096RJOZ 180223Z 02009KT 9999 -SHRA FEW015 BKN025 BKN120 21/15 Q1019 RMK 1CU015 5CU025 7AC120 A3011;EQDQ01+000003PRSWM1Q02    003PRSWM1
0179477870999992000102022004+34050+131040FM-15+0007RJOZ V0203401N003610600019N0112651N1+01301+01201999999ADDGA1021+009009999GA2071+060009999GF107991999999999999999999MA1102001999999MW1001REMMET069RJOZ 202200Z 34007KT 9999 FEW030 BKN200 13/12 Q1020 RMK 1CU030 A3014;EQDQ01+000000PRSWM2
0216477870999992000102913004+34050+131040FM-15+0007RJOZ V0203601N003110090019N0112651N1+01601+01401999999ADDGA1021+004509999GA2021+006009999GA3071+009009999GF107991999999999999999999MA1101191999999MW1001REMMET090RJOZ 291300Z 36006KT 9999 FEW015 SCT020 BKN030 16/14 Q1012 RMK 1CU015 3CU020 7CU030 A2990;EQDQ01+000000PRSWM2
0205477870999992000110702004+34050+131040FM-15+0007RJOZ V0201701N002112200019N0040001N1+02101+01801999999ADDGA1021+003009999GA2021+007509999GF104991999999999999999999MA1101901999999MW1101REMMET079RJOZ 070200Z 17004KT 4000 BR FEW010 SCT025 21/18 Q1019 RMK 1ST010 3CU025 A3010;EQDQ01+000003PRSWM1Q02    003PRSWM1
0156477870999992000111112004+34050+131040FM-15+0007RJOZ V0203501N002112200019N0112651N1+01201+01001999999ADDGA1021+009009999GF102991999999999999999999MA1102001999999MW1001REMMET062RJOZ 111200Z 35004KT 9999 FEW030 12/10 Q1020 RMK 1CU030 A3014;EQDQ01+000000PRSWM2
0209477870999992000111204454+34050+131040FM-15+0007RJOZ V0202601N005710135019N0112651N1+01601+00801999999ADDGA1021+009009999GA2071+013509999GA3071+060009999GF107991999999999999999999MA1102101999999MW1001REMMET083RJOZ 120445Z 26011KT 9999 FEW030 BKN045 BKN200 16/08 Q1021 RMK 1CU030 5SC045 A3016;EQDQ01+000000PRSWM2
0216477870999992000111508004+34050+131040FM-15+0007RJOZ V0203501N006210300019N0112651N1+01801+01401999999ADDGA1021+004509999GA2021+007509999GA3071+030009999GF107991999999999999999999MA1102201999999MW1001REMMET090RJOZ 150800Z 35012KT 9999 FEW015 SCT025 BKN100 18/14 Q1022 RMK 1CU015 4CU025 7AC100 A3019;EQDQ01+000000PRSWM2
0216477870999992000111603174+34050+131040FM-16+0007RJOZ V0201301N004110135019N0112651N1+01901+01201999999ADDGA1021+009009999GA2071+013509999GA3071+030009999GF107991999999999999999999MA1102101999999MW1001REMMET090RJOZ 160317Z 13008KT 9999 FEW030 BKN045 BKN100 19/12 Q1021 RMK 1CU030 5SC045 7AC100 A3016;EQDQ01+000000PRSWM2
0156477870999992000111820004+34050+131040FM-15+0007RJOZ V0203601N004112200019N0112651N1+00701+00501999999ADDGA1021+010509999GF102991999999999999999999MA1102911999999MW1001REMMET062RJOZ 182000Z 36008KT 9999 FEW035 07/05 Q1029 RMK 1CU035 A3041;EQDQ01+000000PRSWM2
0179477870999992000111822404+34050+131040FM-16+0007RJOZ V0200601N003610600019N0112651N1+01101+00201999999ADDGA1021+010509999GA2071+060009999GF107991999999999999999999MA1102911999999MW1001REMMET069RJOZ 182240Z 06007KT 9999 FEW035 BKN200 11/02 Q1029 RMK 1CU035 A3040;EQDQ01+000000PRSWM2
0240477870999992000112022004+34050+131040FM-15+0007RJOZ V0203501N004610075019N0112651N1+01201+00601999999ADDGA1021+006009999GA2071+007509999GF107991999999999999999999MA1101801999999MW1001REMMET130RJOZ 202200Z 35009KT 9999 FEW020 BKN025 12/06 Q1018 RMK 2CU020 7CU025 A3008 FCST 2210 TEMPO 0006 33015G25KT TEMPO 0610 33015G25KT;EQDQ01+000000PRSWM2
0186477870999992000120222004+34050+131040FM-15+0007RJOZ V0203601N002110135019N0112651N1+01101+00701999999ADDGA1021+007509999GA2071+013509999GF107991999999999999999999MA1101801999999MW1001REMMET076RJOZ 022200Z 36004KT 9999 FEW025 BKN045 11/07 Q1018 RMK 1CU025 7SC045 A3007;EQDQ01+000000PRSWM2
0156477870999992000120309004+34050+131040FM-15+0007RJOZ V0203401N003612200019N0112651N1+01401+00701999999ADDGA1021+009009999GF102991999999999999999999MA1101491999999MW1001REMMET062RJOZ 030900Z 34007KT 9999 FEW030 14/07 Q1015 RMK 1CU030 A3000;EQDQ01+000000PRSWM2
0172477870999992000121506004+34050+131040FM-15+0007RJOZ V0201601N002112200019N0112651N1+01301+00301999999ADDGA1021+007509999GF102991999999999999999999MA1102401999999MW1001REMMET078RJOZ 150600Z 16004KT 9999 FEW025 13/03 Q1024 RMK 1CU025 A3025 FCST 0618 NOSIG;EQDQ01+000000PRSWM2
0156477870999992000122902004+34050+131040FM-15+0007RJOZ V0201501N002612200019N0112651N1+01001+00601999999ADDGA1021+010509999GF104991999999999999999999MA1102611999999MW1001REMMET062RJOZ 290200Z 15005KT 9999 SCT035 10/06 Q1026 RMK 3CU035 A3033;EQDQ01+000000PRSWM2
0179477870999992000123003004+34050+131040FM-15+0007RJOZ V0201201N003110600019N0112651N1+01001+00501999999ADDGA1021+036009999GA2071+060009999GF107991999999999999999999MA1102101999999MW1001REMMET069RJOZ 300300Z 12006KT 9999 FEW120 BKN200 10/05 Q1021 RMK 2AC120 A3017;EQDQ01+000000PRSWM2
0278477880999992000010705004+34030+131550FM-15+0005RJOF V0202901N008210120019N0112651N1+00701-00301999999ADDGA1021+007509999GA2071+012009999GF107991999999999999999999MA1102001999999MW1001REMMET168RJOF 0500Z 29016KT 9999 FEW025 BKN040 07/M03 Q1020 RMK 1CU025 6CU040 A3013 MAX WIND 21KT FCST 0511 TEMPO 0508 30015G25KT FEW025CU SCT040CU BECMG 0809 FEW025CU SCT035CU;EQDQ01+000000PRSWM2
0215477880999992000011503004+34030+131550FM-15+0005RJOF V0203601N003610690019N0112651N1+01301+00401999999ADDGA1021+006009999GA2021+010509999GA3071+069009999GF107991999999999999999999MA1102101999999MW1001REMMET089RJOF 0300Z 36007KT 320V040 9999 FEW020 SCT035 BKN230 13/04 Q1021 RMK 1CU020 3CU035 A3018;EQDQ01+000000PRSWM2
0222477880999992000011806004+34030+131550FM-15+0005RJOF V0201901N004612200019N0112651N1+01201+00101999999ADDGA1021+007509999GA2021+010509999GF104991999999999999999999MA1101291999999MW1001REMMET112RJOF 0600Z 19009KT 150V220 9999 FEW025 SCT035 12/01 Q1013 RMK 1CU025 3CU035 A2992 FCST 0612 TEMPO 0612 BKN030CU;EQDQ01+000000PRSWM2
0186477880999992000011806224+34030+131550FM-16+0005RJOF V0201801N004610105019N0112651N1+01201+00201999999ADDGA1021+007509999GA2071+010509999GF107991999999999999999999MA1101291999999MW1001REMMET076RJOF 180622Z 18009KT 9999 FEW025 BKN035 12/02 Q1013 RMK 1CU025 5CU035 A2993;EQDQ01+000000PRSWM2
0200477880999992000011902324+34030+131550FM-16+0005RJOF V0203101N005710120019N0112651N1+00801+00401999999ADDGA1021+004509999GA2071+012009999GF107991999999999999999999MA1101591999999MW1001REMMET090RJOF 190232Z 31011KT 9999 FEW015 BKN040 08/04 Q1016 RMK 1CU015 5CU040 A3003 MAX WIND 18KT;EQDQ01+000000PRSWM2
0236477880999992000012418004+34030+131550FM-15+0005RJOF V02099999999990120019N0112651N1+00601+00401999999ADDGA1021+006009999GA2021+007509999GA3071+012009999GF107991999999999999999999MA1102201999999MW1801REMMET094RJOF 1800Z VRB02KT 9999 -SHRA FEW020 SCT025 BKN040 06/04 Q1022 RMK 1CU020 3CU025 7CU040 A3019;EQDQ01+000003PRSWM1Q02    003PRSWM1
0215477880999992000012608004+34030+131550FM-15+0005RJOF V0203001N005712200019N0112651N1+00201-00501999999ADDGA1021+004509999GF102991999999999999999999MA1102201999999MW1001REMMET121RJOF 0800Z 30011KT 9999 FEW015 02/M05 Q1022 RMK 1CU015 A3019 FCST 0814 TEMPO 0810 BKN025CU TEMPO 1014 1500 SHSN BKN020CU;EQDQ01+000000PRSWM2
0185477880999992000013117004+34030+131550FM-15+0005RJOF V0203401N001010105019N0112651N1+00101-00401999999ADDGA1021+007509999GA2071+010509999GF107991999999999999999999MA1103011999999MW1001REMMET075RJOF 1700Z 34002KT 9999 SCT025 BKN035 01/M04 Q1030 RMK 3CU025 7CU035 A3042;EQDQ01+000000PRSWM2
0289477880999992000020102004+34030+131550FM-15+0005RJOF V0201201N003612200019N0112651N1+00701-00301999999ADDGA1021+009009999GA2021+015009999GF104991999999999999999999MA1102911999999MW1001REMMET179RJOF 0200Z 12007KT 9999 FEW030 SCT050 07/M03 Q1029 RMK 1CU030 4SC050 A3041 FCST 0208 BECMG 0204 21010KT TEMPO 0205 FEW030CU BKN050SC TEMPO 0508 -SHSNRA FEW020CU BKN030CU BKN045SC;EQDQ01+000000PRSWM2
0216477880999992000020114254+34030+131550FM-15+0005RJOF V02099999999990105019N0112651N1+00401+00201999999ADDGA1021+004509999GA2021+006009999GA3071+010509999GF107991999999999999999999MA1102611999999MW1001REMMET090RJOF 011425Z VRB01KT 9999 FEW015 SCT020 BKN035 04/02 Q1026 RMK 1CU015 3CU020 5CU035 A3030;EQDQ01+000000PRSWM2
0227477880999992000020122004+34030+131550FM-15+0005RJOF V02099999999992200019N0112651N1+00001-00201999999ADDGA1021+009009999GF102991999999999999999999MA1102711999999MW1001REMMET133RJOF 2200Z VRB01KT 9999 FEW030 M00/M02 Q1027 RMK 1CU030 A3033 FCST 2207 TEMPO 2203 BKN035CU BECMG 0001 30010KT TEMPO 0206 30010G20KT;EQDQ01+000000PRSWM2
0184477880999992000020612004+34030+131550FM-15+0005RJOF V0202801N004110120019N0112651N1+00701+00101999999ADDGA1021+009009999GA2071+012009999GF107991999999999999999999MA1101491999999MW1001REMMET074RJOF 1200Z 28008KT 9999 FEW030 BKN040 07/01 Q1015 RMK 1CU030 5CU040 A2998;EQDQ01+000000PRSWM2
0215477880999992000020714004+34030+131550FM-15+0005RJOF V0202701N004110360019N0080001N1+00801+00001999999ADDGA1021+009009999GA2021+012009999GA3071+036009999GF107991999999999999999999MA1100911999999MW1001REMMET089RJOF 1400Z 27008KT 8000 FEW030 SCT040 BKN120 08/M00 Q1009 RMK 1CU030 3CU040 7AC120 A2981;EQDQ01+000000PRSWM2
0220477880999992000020803054+34030+131550FM-16+0005RJOF V0203001N010310105019N0112651N1+00401-01101999999ADDGA1021+004509999GA2071+010509999GF107991999999999999999999MA1100911999999MW1851OC101541REMMET086RJOF 080305Z 30020G30KT 9999 -SHSN FEW015 BKN035 04/M11 Q1009 RMK 2CU015 7CU035 A2981;EQDQ01+000003PRSWM1Q02    003PRSWM1
0156477880999992000020920004+34030+131550FM-15+0005RJOF V0200301N002612200019N0112651N1-00201-00401999999ADDGA1021+009009999GF102991999999999999999999MA1101901999999MW1001REMMET062RJOF 2000Z 03005KT 9999 FEW030 M02/M04 Q1019 RMK 1CU030 A3009;EQDQ01+000000PRSWM2
0155477880999992000030114004+34030+131550FM-15+0005RJOF V02099999999992200019N0112651N1+00201-00201999999ADDGA1021+010509999GF102991999999999999999999MA1102611999999MW1001REMMET061RJOF 1400Z VRB02KT 9999 FEW035 02/M02 Q1026 RMK 1CU035 A3031;EQDQ01+000000PRSWM2
0212477880999992000030300004+34030+131550FM-15+0005RJOF V02099999999990690019N0112651N1+00701-00301999999ADDGA1021+048009999GA2071+069009999GF107991999999999999999999MA1102611999999MW1001REMMET102RJOF 0000Z VRB02KT 9999 SCT160 BKN230 07/M03 Q1026 RMK 3AC160 A3030 FCST 0006 BECMG 0103 12010KT 6000;EQDQ01+000000PRSWM2
0235477880999992000030316094+34030+131550FM-16+0005RJOF V0201101N004110030019N0040001N1+01101+00901999999ADDGA1021+002409999GA2071+003009999GA3081+009009999GF108991999999999999999999MA1101801999999MW1631REMMET093RJOF 031609Z 11008KT 4000 RA FEW008 BKN010 OVC030 11/09 Q1018 RMK 1ST008 6ST010 8SC030 A3008;EQDQ01+000003PRSWM1Q02    003PRSWM1
0236477880999992000030320134+34030+131550FM-16+0005RJOF V0201001N004110030019N0070001N1+01201+01001999999ADDGA1021+001509999GA2021+002409999GA3071+003009999GF107991999999999999999999MA1101391999999MW1611REMMET094RJOF 032013Z 10008KT 7000 -RA FEW005 SCT008 BKN010 12/10 Q1014 RMK 1ST005 3ST008 7ST010 A2997;EQDQ01+000003PRSWM1Q02    003PRSWM1
0239477880999992000030408004+34030+131550FM-15+0005RJOF V0202901N001510120019N0060001N1+01301+01101999999ADDGA1021+000909999GA2021+007509999GA3071+012009999GF107991999999999999999999MA1101081999999MW1611REMMET097RJOF 0800Z 29003KT 6000 -RA FEW003 SCT025 BKN040 13/11 Q1011 RERA RMK 2ST003 4SC025 7SC040 A2988;EQDQ01+000003PRSWM1Q02    003PRSWM1
0155477880999992000030613004+34030+131550FM-15+0005RJOF V0203001N002112200019N0112651N1+00901+00001999999ADDGA1021+010509999GF102991999999999999999999MA1101391999999MW1001REMMET061RJOF 1300Z 30004KT 9999 FEW035 09/M00 Q1014 RMK 1CU035 A2994;EQDQ01+000000PRSWM2
0207477880999992000031816004+34030+131550FM-15+0005RJOF V0200101N002610360019N0112651N1+01001+00501999999ADDGA1021+009009999GA2071+036009999GA3081+999999999GF108991999999999999999999MA1101691999999MW1001REMMET081RJOF 1600Z 01005KT 9999 FEW030 BKN120 OVC/// 10/05 Q1017 RMK 1CU030 5AC120 A3004;EQDQ01+000000PRSWM2
0236477880999992000032311004+34030+131550FM-15+0005RJOF V0202601N005110036019N0060001N1+01201+01001999999ADDGA1021+000909999GA2021+002109999GA3071+003609999GF107991999999999999999999MA1100711999999MW1801REMMET094RJOF 1100Z 26010KT 6000 -SHRA FEW003 SCT007 BKN012 12/10 Q1007 RMK 2ST003 3ST007 6CU012 A2976;EQDQ01+000003PRSWM1Q02    003PRSWM1
0226477880999992000032401004+34030+131550FM-15+0005RJOF V0203001N014410120019N0112651N1+01101-00601999999ADDGA1021+009009999GA2071+012009999GF107991999999999999999999MA1101191999999MW1001OC101951REMMET108RJOF 0100Z 30028G38KT 9999 FEW030 BKN040 11/M06 Q1012 RMK 1CU030 6CU040 A2990 FCST 0107 BECMG 0103 SCT040CU;EQDQ01+000000PRSWM2
0184477880999992000032717004+34030+131550FM-15+0005RJOF V02099999999990390019N0112651N1+01301+00501999999ADDGA1021+012009999GA2071+039009999GF107991999999999999999999MA1101191999999MW1001REMMET074RJOF 1700Z VRB03KT 9999 FEW040 BKN130 13/05 Q1012 RMK 2CU040 7AC130 A2991;EQDQ01+000000PRSWM2
0154477880999992000033017004+34030+131550FM-15+0005RJOF V0200101N002612200019N0112651N1+00601+00201999999ADDGA1021+012009999GF102991999999999999999999MA1101191999999MW1001REMMET060RJOF 1700Z 01005KT 9999 FEW040 06/02 Q1012 RMK 1CU040 A2991;EQDQ01+000000PRSWM2
0236477880999992000040408074+34030+131550FM-16+0005RJOF V0201101N001510135019N0112651N1+01601+00601999999ADDGA1021+009009999GA2071+013509999GA3081+030009999GF108991999999999999999999MA1101291999999MW1611REMMET094RJOF 040807Z 11003KT 9999 -RA FEW030 BKN045 OVC100 16/06 Q1013 RMK 1SC030 6SC045 8AS100 A2994;EQDQ01+000003PRSWM1Q02    003PRSWM1
0264477880999992000040503004+34030+131550FM-15+0005RJOF V0203401N005710090019N0112651N1+01601+01001999999ADDGA1021+004509999GA2071+009009999GA3071+030009999GF107991999999999999999999MA1100811999999MW1001REMMET138RJOF 0300Z 34011KT 9999 FEW015 BKN030 BKN100 16/10 Q1008 RMK 1CU015 6CU030 6AC100 A2978 FCST 0309 TEMPO 0608 30010G20KT FEW015CU BKN025CU;EQDQ01+000000PRSWM2
0221477880999992000040510004+34030+131550FM-15+0005RJOF V0202901N006719999999N0112651N1+01501+00801999999ADDGA1021+007509999GA2021+010509999GA3071+999999999GF107991999999999999999999MA1100711999999MW1001REMMET095RJOF 1000Z 29013KT 9999 FEW025 SCT035 BKN/// 15/08 Q1007 RMK 1CU025 3CU035 A2976 MAX WIND 20KT;EQDQ01+000000PRSWM2
0186477880999992000040717204+34030+131550FM-15+0005RJOF V0200101N002610120019N0112651N1+01101+00601999999ADDGA1021+009009999GA2071+012009999GF107991999999999999999999MA1101901999999MW1001REMMET076RJOF 071720Z 01005KT 9999 FEW030 BKN040 11/06 Q1019 RMK 1CU030 5CU040 A3009;EQDQ01+000000PRSWM2
0252477880999992000040918134+34030+131550FM-16+0005RJOF V0201301N007710120019N0090001N1+01701+01201999999ADDGA1021+006009999GA2071+012009999GA3071+024009999GF107991999999999999999999MA1101191999999MW1801REMMET110RJOF 091813Z 13015KT 9000 -SHRA FEW020 BKN040 BKN080 17/12 Q1012 RMK 2CU020 5CU040 7AC080 A2989 MAX WIND 20KT;EQDQ01+000003PRSWM1Q02    003PRSWM1
0225477880999992000042003004+34030+131550FM-15+0005RJOF V0203601N005710060019N0112651N1+01601+01101999999ADDGA1021+004509999GA2071+006009999GF107991999999999999999999MA1101081999999MW1001REMMET115RJOF 200300Z 36011KT 9999 SCT015 BKN020 16/11 Q1011 RMK 3CU015 7CU020 A2988 FCST 0309 BECMG 0305 FEW020CU SCT030CU;EQDQ01+000000PRSWM2
0186477880999992000042118004+34030+131550FM-15+0005RJOF V02099999999990060019N0112651N1+01101+01001999999ADDGA1021+004509999GA2071+006009999GF107991999999999999999999MA1100711999999MW1001REMMET076RJOF 211800Z VRB01KT 9999 FEW015 BKN020 11/10 Q1007 RMK 1CU015 5CU020 A2975;EQDQ01+000000PRSWM2
0156477880999992000042718004+34030+131550FM-15+0005RJOF V0202901N002612200019N0112651N1+01001+00701999999ADDGA1021+010509999GF102991999999999999999999MA1101021999999MW1001REMMET062RJOF 271800Z 29005KT 9999 FEW035 10/07 Q1010 RMK 2CU035 A2984;EQDQ01+000000PRSWM2
0224477880999992000050921454+34030+131550FM-15+0005RJOF V0200101N002110054019N0090001N1+01601+01201999999ADDGA1021+001509999GA2021+003009999GA3071+005409999GF107991999999999999999999MA1101081999999MW1001REMMET098RJOF 092145Z 01004KT 340V040 9000 FEW005 SCT010 BKN018 16/12 Q1011 RMK 1ST005 3CU010 7CU018 A2988;EQDQ01+000000PRSWM2
0186477880999992000051402294+34030+131550FM-16+0005RJOF V0201901N005112200019N0090001N1+02101+01501999999ADDGA1021+006009999GA2021+009009999GF104991999999999999999999MA1100911999999MW1001REMMET076RJOF 140229Z 19010KT 9000 FEW020 SCT030 21/15 Q1009 RMK 1CU020 4CU030 A2982;EQDQ01+000000PRSWM2
0216477880999992000051500384+34030+131550FM-16+0005RJOF V0203301N001510120019N0112651N1+01701+01401999999ADDGA1021+004509999GA2071+012009999GA3071+030009999GF107991999999999999999999MA1101081999999MW1001REMMET090RJOF 150038Z 33003KT 9999 FEW015 BKN040 BKN100 17/14 Q1011 RMK 1CU015 6CU040 7AC100 A2986;EQDQ01+000000PRSWM2
0245477880999992000051616004+34030+131550FM-15+0005RJOF V0200401N001010024019N0040001N1+01601+01401999999ADDGA1021+001509999GA2071+002409999GA3071+009009999GF107991999999999999999999MA1100811999999MW1101MW2611REMMET097RJOF 161600Z 04002KT 4000 -RA BR FEW005 BKN008 BKN030 16/14 Q1008 RMK 2ST005 6ST008 7SC030 A2977;EQDQ01+000003PRSWM1Q02    003PRSWM1
0186477880999992000052011354+34030+131550FM-16+0005RJOF V02099999999992200019N0112651N1+01701+01401999999ADDGA1021+006009999GA2021+010509999GF104991999999999999999999MA1100811999999MW1001REMMET076RJOF 201135Z VRB01KT 9999 FEW020 SCT035 17/14 Q1008 RMK 1CU020 3CU035 A2979;EQDQ01+000000PRSWM2
0149477880999992000052509004+34030+131550FM-15+0005RJOF V0201101N005110900019N0112651N1+02401+01501999999ADDGA1071+090009999GF107991999999999999999999MA1101081999999MW1001REMMET055RJOF 250900Z 11010KT 9999 BKN300 24/15 Q1011 RMK A2986;EQDQ01+000000PRSWM2
0230477880999992000052715504+34030+131550FM-15+0005RJOF V0202501N006210075019N0080001N1+02101+01701999999ADDGA1021+001509999GA2071+007509999GA3081+012009999GF108991999999999999999999MA1100001999999MW1001REMMET104RJOF 271550Z 25012KT 8000 FEW005 BKN025 OVC040 21/17 Q1000 RMK 1CU005 6CU025 8CU040 A2955 MAX WIND 18KT;EQDQ01+000000PRSWM2
0252477880999992000053021004+34030+131550FM-15+0005RJOF V0201101N005710015019N0080001N1+01801+01701999999ADDGA1021+000909999GA2071+001509999GA3081+009009999GF108991999999999999999999MA1100311999999MW1611REMMET110RJOF 302100Z 11011KT 8000 -RA FEW003 BKN005 OVC030 18/17 Q1003 RERA RMK 2ST003 6ST005 8SC030 A2963 25/18 R007;EQDQ01+000003PRSWM1Q02    003PRSWM1
0238477880999992000053109304+34030+131550FM-15+0005RJOF V0201901N003110012019N0070001N1+02001+01901999999ADDGA1071+001209999GA2071+002409999GA3071+004509999GF107991999999999999999999MA1100201999999MW1801REMMET096RJOF 310930Z 19006KT 7000 -SHRA BKN004 BKN008 BKN015 20/19 Q1002 RMK 5ST004 6ST008 6CU015 A2960;EQDQ01+000003PRSWM1Q02    003PRSWM1
0216477880999992000053116004+34030+131550FM-15+0005RJOF V0202801N004610060019N0112651N1+02001+01801999999ADDGA1021+001509999GA2021+003009999GA3071+006009999GF107991999999999999999999MA1100511999999MW1001REMMET090RJOF 311600Z 28009KT 9999 FEW005 SCT010 BKN020 20/18 Q1005 RMK 2ST005 4CU010 7CU020 A2969;EQDQ01+000000PRSWM2
0130477880999992000060618004+34030+131550FM-15+0005RJOF V0200201N003112200019N0112651N1+01601+01401999999ADDGF100991999999999999999999MA1100711999999MW1001REMMET052RJOF 061800Z 02006KT 9999 SKC 16/14 Q1007 RMK A2975;EQDQ01+000000PRSWM2
0260477880999992000061700214+34300+131540FM-16+0005RJOF V0203501N002610036019N0050001N1+02001+01901999999ADDGA1021+001209999GA2071+003609999GA3081+006009999GF108991999999999999999999MA1101081999999MW1611REMMET102RJOF 170021Z 35005KT 5000 -RA BR FEW004 BKN012 OVC020 20/19 Q1011 RERA RMK 1ST004 6ST012 8SC020 A2988;EQDQ01+000100PRSWM3Q02+000003PRSWM1Q03    003PRSWM1
0209477880999992000061808004+34300+131540FM-15+0005RJOF V0202501N002610690019N0112651N1+02601+02001999999ADDGA1021+010509999GA2021+039009999GA3071+069009999GF107991999999999999999999MA1100711999999MW1001REMMET083RJOF 180800Z 25005KT 9999 FEW035 SCT130 BKN230 26/20 Q1007 RMK 2CU035 4AC130 A2976;EQDQ01+000000PRSWM2
0178477880999992000061917004+34300+131540FM-15+0005RJOF V02099999999999999999N0050001N1+02201+02001999999ADDGA1021+009009999GA2071+999999999GF107991999999999999999999MA1100911999999MW1001REMMET068RJOF 191700Z 02004T 9999 FEW030 BKN/// 22/20 Q1009 RMK 1CU030 A2980;EQDQ01+000000PRSWM2
0286477880999992000062219184+34300+131540FM-16+0005RJOF V0200901N00211220001CN0060001N1+02401+02201999999ADDGA1021+003009999GA2021+004509999GA3081+009009999GA4021+009009029MA1100611999999MW1801REMMET138RJOF 221918Z 09004KT 6000 -SHRA FEW010 SCT015 OVC030 FEW030TCU 24/22 Q1006 RERA RMK 1ST010 3CU015 8CU030 1TCU030 A2971 VIS E 4000M TCU SE;EQDQ01+000022SCOTCVQ02+000003PRSWM1Q03    003PRSWM1
0293477880999992000070222224+34300+131540FM-16+0005RJOF V0209999C000010030019N0112651N1+02601+02301999999ADDGA1021+002109999GA2071+003009999GF107991999999999999999999MA1101291999999MW1001REMMET183RJOF 022222Z 00000KT 9999 FEW007 BKN010 26/23 Q1013 RMK 2ST007 5ST010 A2992 FCST AMD 2207 BECMG 2300 FEW007ST SCT010ST SCT030CU BECMG 0203 18010KT TEMPO 0607 FEW015CU BKN030CU BKN230;EQDQ01+000000PRSWM2
0277477880999992000071203004+34300+131540FM-15+0005RJOF V0201701N004110720019N0112651N1+03001+02501999999ADDGA1021+004509999GA2021+007509999GA3071+072009999GF107991999999999999999999MA1100711999999MW1001REMMET151RJOF 120300Z 17008KT 9999 FEW015 SCT025 BKN240 30/25 Q1007 RMK 1CU015 4CU025 A2975 WIND EST FCST 0309 TEMPO 0306 SCT015CU BKN025CU TEMPO 0609 BKN030CU;EQDQ01+000000PRSWM2
0225477880999992000071323384+34300+131540FM-16+0005RJOF V0203601N000510300019N0060001N1+02601+02401999999ADDGA1021+009009999GA2021+015009999GA3071+030009999GF107991999999999999999999MA1100811999999MW1001REMMET099RJOF 132338Z 36001KT 6000 FEW030 SCT050 BKN100 26/24 Q1008 RMK 1CU030 4SC050 6AC100 A2978 WIND EST;EQDQ01+000000PRSWM2
0216477880999992000071409004+34300+131540FM-15+0005RJOF V0201001N002610300019N0112651N1+02901+02301999999ADDGA1021+006009999GA2071+030009999GA3071+039009999GF107991999999999999999999MA1100811999999MW1001REMMET090RJOF 140900Z 10005KT 9999 FEW020 BKN100 BKN130 29/23 Q1008 RMK 2CU020 5AC100 6AC130 A2979;EQDQ01+000000PRSWM2
0203477880999992000071801004+34030+131540FM-15+0005RJOF V0202401N002610750019N0112651N1+03001+02501999999ADDGA1021+007509999GA2071+075009999GF107991999999999999999999MA1100911999999MW1001REMMET093RJOF 180100Z 24005KT 200V270 9999 SCT025 BKN250 30/25 Q1009 RMK 3CU025 A2982 FCST 0107 NOSIG;EQDQ01+000000PRSWM2
0239477880999992000072504004+34030+131540FM-15+0005RJOF V0201101N004610720019N0112651N1+03001+02501999999ADDGA1021+004509999GA2021+007509999GA3071+072009999GF107991999999999999999999MA1100201999999MW1001REMMET113RJOF 250400Z 11009KT 9999 FEW015 SCT025 BKN240 30/25 Q1002 RMK 1CU015 3CU025 A2960 FCST 0410 TEMPO 0609 BKN030CU;EQDQ01+000000PRSWM2
0190477880999992000072913194+34030+131540FM-16+0005RJOF V0201201N009810090019N0080001N1+02701+99999999999ADDGA1021+003009999GA2021+006009999GA3071+009009999GF107991999999999999999999MW1001OC101541REMMET055RJOF 291319Z 12019G30KT 8000 FEW010 SCT020 BKN030 27/2;EQDQ01+000203ATOD  Q02+000000PRSWM2
0197477880999992000073011004+34030+131540FM-15+0005RJOF V0201401N014912200019N0112651N1+02701+02401999999ADDGA1021+003009999GA2021+004509999GF104991999999999999999999MA1099701999999MW1001OC102211REMMET079RJOF 301100Z 14029G43KT 9999 FEW010 SCT015 27/24 Q0997 RMK 1CU010 3CU015 A2947;EQDQ01+000000PRSWM2
0209477880999992000080312004+34030+131540FM-15+0005RJOF V0201301N004619999999N0112651N1+02601+02401999999ADDGA1021+003009999GA2021+004509999GA3071+999999999GF107991999999999999999999MA1101291999999MW1001REMMET083RJOF 031200Z 13009KT 9999 FEW010 SCT015 BKN/// 26/24 Q1013 RMK 1CU010 3CU015 A2993;EQDQ01+000000PRSWM2
0209477880999992000080322354+34030+131540FM-16+0005RJOF V0201201N002610690019N0112651N1+02801+02201999999ADDGA1021+004509999GA2021+006009999GA3071+069009999GF107991999999999999999999MA1101391999999MW1001REMMET083RJOF 032235Z 12005KT 9999 FEW015 SCT020 BKN230 28/22 Q1014 RMK 1CU015 3CU020 A2994;EQDQ01+000000PRSWM2
0195477880999992000080405004+34030+131540FM-15+0005RJOF V0201001N004610690019N0112651N1+03201+02301999999ADDGA1021+006009999GA2071+069009999GF107991999999999999999999MA1101291999999MW1001REMMET085RJOF 040500Z 10009KT 9999 FEW020 BKN230 32/23 Q1013 RMK 1CU020 A2992 FCST 0511 NOSIG;EQDQ01+000000PRSWM2
0266477880999992000080723004+34030+131540FM-15+0005RJOF V0201001N003612200019N0112651N1+02801+02401999999ADDGA1021+005409999GA2021+039009999GF104991999999999999999999MA1101191999999MW1001REMMET156RJOF 072300Z 10007KT 9999 FEW018 SCT130 28/24 Q1012 RMK 2CU018 3AC130 A2991 FCST 2305 BECMG 0002 18010KT TEMPO 0305 FEW015CU BKN030 CU FEW035CB/ TS 05Z-09Z;EQDQ01+000000PRSWM2
0179477880999992000080811004+34030+131540FM-15+0005RJOF V0201201N004119999999N0112651N1+02801+02301999999ADDGA1021+009009999GA2071+999999999GF107991999999999999999999MA1101081999999MW1001REMMET069RJOF 081100Z 12008KT 9999 FEW030 BKN/// 28/23 Q1011 RMK 1CU030 A2988;EQDQ01+000000PRSWM2
0208477880999992000080823004+34030+131540FM-15+0005RJOF V0201001N003110720019N0112651N1+02801+02401999999ADDGA1021+006009999GA2071+072009999GF107991999999999999999999MA1101291999999MW1001REMMET098RJOF 082300Z 10006KT 9999 SCT020 BKN240 28/24 Q1013 RMK 3CU020 A2992 FCST 2305 BECMG 0001 16010KT;EQDQ01+000000PRSWM2
0209477880999992000081015194+34030+131540FM-16+0005RJOF V0201101N003619999999N0112651N1+02701+02401999999ADDGA1021+004509999GA2021+006009999GA3071+999999999GF107991999999999999999999MA1100911999999MW1001REMMET083RJOF 101519Z 11007KT 9999 FEW015 SCT020 BKN/// 27/24 Q1009 RMK 1CU015 3CU020 A2982;EQDQ01+000000PRSWM2
0172477880999992000081104004+34030+131540FM-15+0005RJOF V0201901N005712200019N0112651N1+03201+02301999999ADDGA1021+007509999GF102991999999999999999999MA1100811999999MW1001REMMET078RJOF 110400Z 19011KT 9999 FEW025 32/23 Q1008 RMK 2CU025 A2978 FCST 0410 NOSIG;EQDQ01+000000PRSWM2
0172477880999992000082405004+34030+131540FM-15+0005RJOF V0201901N004112200019N0112651N1+03201+02401999999ADDGA1021+007509999GF102991999999999999999999MA1101191999999MW1001REMMET078RJOF 240500Z 19008KT 9999 FEW025 32/24 Q1012 RMK 1CU025 A2991 FCST 0511 NOSIG;EQDQ01+000000PRSWM2
0227477880999992000082409004+34030+131540FM-15+0005RJOF V0202101N001510750019N0112651N1+03001+02501999999ADDGA1021+007509099GA2021+007509999GA3071+075009999GF107991999999999999999999MA1101081999999MW1001REMMET101RJOF 240900Z 21003KT 9999 SCT025 FEW025CB BKN250 30/25 Q1011 RMK 3CU025 1CB025 A2987 CB 20KM N MOV E;EQDQ01+000000PRSWM2
