0433727730241532000012212003+46917-114100SY-MT+0973MSO  V0200705N00215220005MN0144005N1-00395-00505101805ADDAA101000095AA224000591GD11995+0213459GF102991999999022501999999GP10060000002000000002000000002000GR100600000900009KA1999M+00111KA2120N-00441MA1101495090331MD1110061+9999REMSYN098AAXX  22124 72773 32864 20704 11039 21050 39033 40180 51006 91156 333 10011 21044 70005 555 92212;EQDN01 00000JPWTH 0QNNAA1D0 02070BA1 0 01070GA1U0 99999KA1D0 00023JA1 0-00050LA1 0 00900CA1 0 02997NA1 0 00000QA1 0 10180SA1D0 00025RA1 0-00039YA1 0 07004
0376727730241532000012319003+46917-114100FM-15+0973MSO  V0201405N00365220005MN0160005N1+00065-00445102455ADDAA101000095GF100991999999999999999999GP10060017702009007602021014902009GQ100600688916039GR100600512914129MA1102175999999MW1001REMMET068KMSO 231856Z 14007KT 10SM CLR 01/M04 A3017 RMK AO2 SLP245 T00061044;EQDQ01+000000PRSWM2N01 00000JPWTH 0QNNAA1D0 00000BA1 0 00000GA1U0 99999KA1D0 00024JA1 0-00044LA1 0 01000CA1 0 03017NA1 0 00000QA1 0 10245SA1D0 00033RA1 0 00006YA1 0 14007
0214727730241532000012607014+46920-114080FM-16+0972KMSO V0209999C000010210019N0004021N1-00401-00401999999ADDGD12991+0018019GD23991+0210019GD34991+0330019GF108991999999999999999999MA1101491999999MW1481REMMET075KMSO 260701Z 00000KT 1/4SM FZFG FEW006 BKN070 OVC110 M04/M04 A2997 RMK AO2;EQDQ01+000003PRSWM1Q02    003PRSWM1
0214727730241532000012607164+46920-114080FM-16+0972KMSO V0209999C000010018019N0004021N1-00401-00401999999ADDGD12991+0003019GD23991+0018019GD34991+0210019GF108991999999999999999999MA1101491999999MW1481REMMET075KMSO 260716Z 00000KT 1/4SM FZFG SCT001 BKN006 OVC070 M04/M04 A2997 RMK AO2;EQDQ01+000003PRSWM1Q02    003PRSWM1
0222727730241532000012610354+46920-114080FM-16+0972KMSO V0209999C000010147019N0048281N1-00301-00301999999ADDGD12991+0006019GD23991+0147019GD34991+0210019GF108991999999999999999999MA1101461999999MW1101REMMET083KMSO 261035Z 00000KT 3SM BR FEW002 BKN049 OVC075 M03/M03 A2996 RMK AO2 SNE10 P0001;EQDQ01+000003PRSWM1Q02    003PRSWM1
0587727730241532000012918003+46917-114100SY-MT+0973MSO  V0209999C00005009455MN0160005N1-00725-01175103215ADDAA101000095GD14995+0094559GF108991999999008001999999GP10060025402009054602021008502009GQ100600721914529GR100600433914109KA1999M-00721KA2999N-00941MA1102785999999MD1710011+9999MW1001REMSYN064AAXX  29184 72773 32566 80000 11070 21110 39150 91808 555 92918;MET090KMSO 291756Z 00000KT 10SM OVC031 M07/M12 A3035 RMK AO2 SLP321 T10721117 11072 21094 58000;EQDQ01+000000PRSWM2Q02+000082APCTENQ03+000002APC3  Q04  00002PRCP99Q05  00003PRCP99N01 00000JPWTH 0QNNAA1D0 06031BA1 0 06031GA1 0 00031KA1D0 00011JA1 0-00117LA1 0 01000CA1 0 03035NA1 0 00000QA1 0 10321SA1D0 00019RA1 0-00072YA1 0 00000
0167727730241532000013012304+46920-114080FM-15+0972KMSO V0202801N00151000151CN0012071N1-01801-02001999999ADDGD15991+0001519GF109991999999000251999999MA1102241999999MW1101REMMET058KMSO 301230Z 28003KT 3/4SM BR VV001 M18/M20 A3019 RMK AO2;EQDQ01+000003PRSWM1Q02    003PRSWM1
0529727730241532000020117003+46917-114100FM-15+0973MSO  V0202705N00215012505MN0064005N1-00505-00725102415ADDAA101000025GD12995+0082359GD23995+0125059GD34995+0167659GF108991999999999999999999GP10060005702009000002021005702009GQ100600782913179GR100600288914099MA1101935999999MW1101MW2455MW3715REMMET104KMSO 011656Z 27004KT 4SM -SN BR SCT027 BKN041 OVC055 M05/M07 A3010 RMK AO2 SNB22 SLP241 P0000 T10501072;EQDQ01+000003PRSWM1Q02    003PRSWM1N01 04070JPWTH 0QNNAA1D0 02027BA1 0 02027AA1D0 04041BA1 0 04041AA1D0 06055BA1 0 06055GA1 0 00041KA1D0 00019JA1 0-00072LA1 0 00400CA1 0 03010NA1 0 04070QA1 0 10241SA1D0 00023RA1 0-00050YA1 0 27004
0416727730241532000020309003+46917-114100FM-15+0973MSO  V0209999C00005000305MN0004005N1+00005-00065103345ADDAA101000095GD15995+0003059GF109991999999000251999999GP10060000002000000002000000002000GR100600000900009MA1103055999999MD1310141+9999MW1455REMMET080KMSO 030856Z 00000KT 1/4SM FG VV001 00/M01 A3043 RMK AO2 SLP334 T00001006 53014;EQDQ01+000003PRSWM1Q02    003PRSWM1N01 00070JPWTH 0QNNAA1D0 07001BA1 0 07001GA1 0 00001KA1D0 00031JA1 0-00006LA1 0 00025CA1 0 03043NA1 0 00070QA1 0 10334SA1D0 00032RA1 0 00000YA1 0 00000
0862727730241532000020506596+46921-114092SOD  +0972KMSO V020999999999999999999999999999+99999+99999999999ADDAA124000096AJ100009599999999AL12400096AN1024000096GJ103615GK10625KA1240M+00175KA2240N-00385MG1090699999994OE11240143112008065OE22240125212009255OE33240053699999995REMSOD65224 HR PRECIPITATION (IN): 0.00 SNOW DEPTH (IN):0     24 HR SNOWFALL (IN):0.0  TOTAL SUNSHINE (MINUTES): 361 PERCENT POSSIBLE SUNSHINE: 62 24 HR MAX TEMP (F): 3524 HR MAX TEMP TIME (LST):1524 24 HR MIN TEMP (F): 2524 HR MIN TEMP TIME (LST):0845 AVERAGE STATION PRESSURE:26.78  PEAK WIND SPEED (MPH): 32 PEAK WIND DIR (DEG):120 PEAK WIND TIME (LST):0806  FASTEST 2MIN SPEED (MPH): 28FASTEST 2MIN DIR (DEG):120 FASTEST 2MIN TIME (LST):0925 AVERAGE WIND SPEED (MPH):12.0 24 HR AVG TEMP (F):30 HOURLY INCREMENTAL PRECIPITATION VALUES (IN):.00  .00  .00  .00  .00  .00  .00  .00  .00  .00  .00  .00  .00  .00  .00  .00  .00  .00  .00  .00  .00  .00  .00  .00EQDR01  0.007AAP092R02   0.07ALS030
0180727730241532000020713234+46920-114080FM-16+0972KMSO V0209999C000010009019N0040231N1-00301-00301999999ADDGD14991+0009019GF108991999999999999999999MA1103081999999MW1481REMMET071KMSO 071323Z 00000KT 1/2SM FZFG OVC003 M03/M03 A3044 RMK AO2 TWR VIS 2;EQDQ01+000003PRSWM1Q02    003PRSWM1
0434727730241532000020716003+46917-114100FM-15+0973MSO  V0209999C00005000305MN0004005N1-00115-00175103395ADDAA101000095GD15995+0003059GF109991999999000251999999GP10060003202009013302021002102009GQ100600851911879GR100600121914069MA1103055999999MW1455MW2491REMMET089KMSO 071556Z 00000KT 1/4SM FZFG VV001 M01/M02 A3043 RMK AO2 TWR VIS 1/2 SLP339 T10111017;EQDQ01+000003PRSWM1Q02    003PRSWM1N01 00071JPWTH 0QNNAA1D0 07001BA1 0 07001GA1 0 00001KA1D0 00029JA1 0-00017LA1 0 00025CA1 0 03043NA1 0 00071QA1 0 10339SA1D0 00030RA1 0-00011YA1 0 00000
0225727730241532000021421434+46920-114080FM-16+0972KMSO V0203301N002110084019N0048281N1-00101-00201999999ADDGD13991+0084019GD24991+0117019GF108991999999999999999999MA1099491999999MW1711REMMET085KMSO 142143Z 33004KT 3SM -SN BR BKN028 OVC039 M01/M02 A2938 RMK AO2 SNE2057B13 P0000;EQDQ01+000100PRSWM3Q02+000003PRSWM1Q03    003PRSWM1
0479727730241532000021604003+46917-114100FM-15+0973MSO  V0209999C00005015245MN0144005N1+00005-00225102355ADDAA101000025GD11995+0121959GD23995+0152459GD34995+0259159GF108991999999999999999999GP10060000002000000002000000002000GR100600000900009MA1102075999999MW1001REMMET099KMSO 160356Z 00000KT 9SM FEW040 BKN050 OVC085 00/M02 A3014 RMK AO2 SNB40E53 SLP235 P0000 T00001022;EQDQ01+000000PRSWM2N01 00000JPWTH 0QNNAA1D0 02040BA1 0 01040AA1D0 04050BA1 0 04050AA1D0 06085BA1 0 06085GA1 0 00050KA1D0 00028JA1 0-00022LA1 0 00900CA1 0 03014NA1 0 00000QA1 0 10235SA1D0 00032RA1 0 00000YA1 0 00000
0170727730241532000021718094+46920-114080FM-16+0972KMSO V0201601N001510081019N0160931N1-00501-00801999999ADDGD12991+0039019GD24991+0081019GF108991999999999999999999MA1101961999999MW1001REMMET062KMSO 171809Z 16003KT 10SM SCT013 OVC027 M05/M08 A3011 RMK AO2;EQDQ01+000000PRSWM2
0394727730241532000022120003+46917-114100FM-15+0973MSO  V0202505N00215021345MN0160005N1+00225-00395101185ADDAA101000095GD14995+0213459GF108991999999999999999999GP10060018502009000602021018202009GQ100600578917429GR100600745913989MA1100915999999MW1001REMMET071KMSO 211956Z 25004KT 10SM OVC070 02/M04 A2980 RMK AO2 SLP118 T00221039;EQDQ01+000000PRSWM2N01 00000JPWTH 0QNNAA1D0 06070BA1 0 06070GA1 0 00070KA1D0 00025JA1 0-00039LA1 0 01000CA1 0 02980NA1 0 00000QA1 0 10118SA1D0 00036RA1 0 00022YA1 0 25004
0393727730241532000022123003+46917-114100FM-15+0973MSO  V0202005N00265016765MN0144005N1+00285-00335101135ADDAA101000095GD14995+0167659GF108991999999999999999999GP10060016002009005102021014102009GQ100600677922309GR100600531913989MA1100885999999MW1001REMMET070KMSO 212256Z 20005KT 9SM OVC055 03/M03 A2979 RMK AO2 SLP113 T00281033;EQDQ01+000000PRSWM2N01 00000JPWTH 0QNNAA1D0 06055BA1 0 06055GA1 0 00055KA1D0 00026JA1 0-00033LA1 0 00900CA1 0 02979NA1 0 00000QA1 0 10113SA1D0 00037RA1 0 00028YA1 0 20005
0858727730241532000022406596+46921-114092SOD  +0972KMSO V020999999999999999999999999999+99999+99999999999ADDAA124002095AJ100003599999999AL12400096AN1024000096AT1MW16RA  5GJ103685GK10575KA1240M+00615KA2240N-00055MG1089479999994OE11240102832017065OE22240089433017065OE33240021599999995REMSOD65224 HR PRECIPITATION (IN): 0.08 SNOW DEPTH (IN):T     24 HR SNOWFALL (IN):  .0 TOTAL SUNSHINE (MINUTES): 368 PERCENT POSSIBLE SUNSHINE: 57 24 HR MAX TEMP (F): 4324 HR MAX TEMP TIME (LST):1612 24 HR MIN TEMP (F): 3124 HR MIN TEMP TIME (LST):0803 AVERAGE STATION PRESSURE:26.42  PEAK WIND SPEED (MPH): 23 PEAK WIND DIR (DEG):320 PEAK WIND TIME (LST):1706  FASTEST 2MIN SPEED (MPH): 20FASTEST 2MIN DIR (DEG):330 FASTEST 2MIN TIME (LST):1706 AVERAGE WIND SPEED (MPH): 4.8 24 HR AVG TEMP (F):37 HOURLY INCREMENTAL PRECIPITATION VALUES (IN):.00  .00  .00  .00  .00  .00  .00  .00  .00  .00  .00  .00  .00  .00  .00  .00   T   .00   T   .00  .00   T   .02  .06EQDR01    .07ALS030
0217727730241532000022413394+46920-114080FM-16+0972KMSO V0203101N003610051019N0028161N1+00001-00101999999ADDGD13991+0051019GD24991+0090019GF108991999999999999999999MA1100641999999MW1711REMMET077KMSO 241339Z 31007KT 1 3/4SM -SN BR BKN017 OVC030 00/M01 A2972 RMK AO2 P0001;EQDQ01+000100PRSWM3Q02+000003PRSWM1Q03    003PRSWM1
0786727730241532000030106596+46921-114092SOD  +0972KMSO V020999999999999999999999999999+99999+99999999999ADDAA124000025AL12400096AN1024000096GJ103365GK10515KA1240M+00785KA2240N+00005MG1089679999994OE11240102826017555OE22240080526017555OE33240021099999995REMSOD60924 HR PRECIPITATION (IN):  T    24 HR SNOWFALL (IN):  .0 TOTAL SUNSHINE (MINUTES): 336 PERCENT POSSIBLE SUNSHINE: 51 24 HR MAX TEMP (F): 4624 HR MAX TEMP TIME (LST):1405 24 HR MIN TEMP (F): 3224 HR MIN TEMP TIME (LST):2351 AVERAGE STATION PRESSURE:26.48  PEAK WIND SPEED (MPH): 23 PEAK WIND DIR (DEG):260 PEAK WIND TIME (LST):1755  FASTEST 2MIN SPEED (MPH): 18FASTEST 2MIN DIR (DEG):260 FASTEST 2MIN TIME (LST):1755 AVERAGE WIND SPEED (MPH): 4.7 HOURLY INCREMENTAL PRECIPITATION VALUES (IN): T   .00  .00  .00  .00  .00  .00  .00  .00  .00  .00  .00  .00  .00  .00  .00  .00   T    T   .00  .00  .00  .00  .00EQDR01    .07ALS030
0262727730241532000031511564+46920-114080FM-15+0972KMSO V0209999C000010180019N0160931N1-00101-00401102091ADDAA124000891GD12991+0138019GD24991+0180019GF108991999999999999999999KA1999M+00111KA2999N-00061MA1101901999999MD1310121+9999MW1001REMMET103KMSO 151156Z 00000KT 10SM FEW046 OVC065 M01/M04 A3009 RMK AO2 SLP209 70003 T10061044 10011 21006 53012;EQDQ01+000000PRSWM2
0204727730241532000032223564+46920-114080FM-15+0972KMSO V0201701N003612200019N0160931N1+01901-00201100891ADDGF100991999999999999999999KA1999M+01891KA2999N+00941MA1100881999999MD1610301+9999MW1001REMMET086KMSO 222356Z 17007KT 10SM CLR 19/M02 A2979 RMK AO2 SLP089 T01891017 10189 20094 56030;EQDQ01+000000PRSWM2
0251727730241532000032310434+46920-114080FM-16+0972KMSO V0203101N010310180019N0160931N1+00701+00301999999ADDGD12991+0096019GD23991+0180019GD34991+0210019GF108991999999999999999999MA1100881999999MW1611OC101341REMMET104KMSO 231043Z 31020G26KT 10SM -RA FEW032 BKN060 OVC070 07/03 A2979 RMK AO2 PK WND 29026/1036 RAB39 P0000;EQDQ01+000003PRSWM1Q02    003PRSWM1
0483727730241532000032809003+46917-114100FM-15+0973MSO  V0203305N00215009755MN0160005N1+00565+00395100575ADDAA101000895AA203002891GD13995+0097559GD24995+0128059GF108991999999999999999999GP10060000002000000002000000002000GR100600000900009MA1100615999999MD1010061+9999MW1615REMMET099KMSO 280856Z 33004KT 10SM -RA BKN032 OVC042 06/04 A2971 RMK AO2 SLP057 P0003 60011 T00560039 50006;EQDQ01+000003PRSWM1Q02    003PRSWM1N01 00020JPWTH 0QNNAA1D0 04032BA1 0 04032AA1D0 06042BA1 0 06042GA1 0 00032KA1D0 00039JA1 0 00039LA1 0 01000CA1 0 02971NA1 0 00020QA1 0 10057SA1D0 00042RA1 0 00056YA1 0 33004
0457727730241532000032815003+46917-114100FM-15+0973MSO  V0202605N00365015245MN0160005N1+00445+00065100795ADDAA101000095GD12995+0125059GD24995+0152459GF108991999999999999999999GP10060002402008000002015002402008GQ100600792909679GR100600256913719MA1100755999999MD1310121+9999MW1001REMMET083KMSO 281456Z 26007KT 10SM SCT041 OVC050 04/01 A2975 RMK AO2 SLP079 T00440006 53012;EQDQ01+000000PRSWM2N01 00000JPWTH 0QNNAA1D0 02041BA1 0 02041AA1D0 06050BA1 0 06050GA1 0 00050KA1D0 00033JA1 0 00006LA1 0 01000CA1 0 02975NA1 0 00000QA1 0 10079SA1D0 00040RA1 0 00044YA1 0 26007
0360727730241532000033113003+46917-114100FM-15+0973MSO  V0201105N00215220005MN0160005N1-00285-00615103425ADDAA101000095GF100991999999999999999999GP10060000002000000002000000002000GR100600000900009MA1103225999999MW1001REMMET069KMSO 311256Z 11004KT 10SM CLR M03/M06 A3048 RMK AO2 SLP342 T10281061;EQDQ01+000000PRSWM2N01 00000JPWTH 0QNNAA1D0 00000BA1 0 00000GA1U0 99999KA1D0 00021JA1 0-00061LA1 0 01000CA1 0 03048NA1 0 00000QA1 0 10342SA1D0 00027RA1 0-00028YA1 0 11004
0394727730241532000040219003+46917-114100FM-15+0973MSO  V0201305N00675018295MN0160005N1+00445-00395102885ADDAA101000095GD14995+0182959GF108991999999999999999999GP10060043402008012502015034502008GQ100600444915489GR100600976913679MA1102785999999MW1001REMMET071KMSO 021856Z 13013KT 10SM OVC060 04/M04 A3035 RMK AO2 SLP288 T00441039;EQDQ01+000000PRSWM2N01 00000JPWTH 0QNNAA1D0 06060BA1 0 06060GA1 0 00060KA1D0 00025JA1 0-00039LA1 0 01000CA1 0 03035NA1 0 00000QA1 0 10288SA1D0 00040RA1 0 00044YA1 0 13013
0377727730241532000040314003+46917-114100FM-15+0973MSO  V0209999C00005220005MN0160005N1-00445-00615103105ADDAA101000095GF100991999999999999999999GP10060001802008021902015000802008GQ100600863908569GR100600071910829MA1102815999999MW1001REMMET069KMSO 031356Z 00000KT 10SM CLR M04/M06 A3036 RMK AO2 SLP310 T10441061;EQDQ01+000000PRSWM2N01 00000JPWTH 0QNNAA1D0 00000BA1 0 00000GA1U0 99999KA1D0 00021JA1 0-00061LA1 0 01000CA1 0 03036NA1 0 00000QA1 0 10310SA1D0 00024RA1 0-00044YA1 0 00000
0376727730241532000040523003+46917-114100FM-15+0973MSO  V0203205N00575220005MN0160005N1+00945-00785101325ADDAA101000095GF100991999999999999999999GP10060027202008002502015025802008GQ100600546923589GR100600791913659MA1101225999999MW1001REMMET068KMSO 052256Z 32011KT 10SM CLR 09/M08 A2989 RMK AO2 SLP132 T00941078;EQDQ01+000000PRSWM2N01 00000JPWTH 0QNNAA1D0 00000BA1 0 00000GA1U0 99999KA1D0 00018JA1 0-00078LA1 0 01000CA1 0 02989NA1 0 00000QA1 0 10132SA1D0 00049RA1 0 00094YA1 0 32011
0204727730241532000041011564+46920-114080FM-15+0972KMSO V0203201N002112200019N0160931N1+00201-00201101991ADDGF100991999999999999999999KA1999M+01061KA2999N+00061MA1101961999999MD1310161+9999MW1001REMMET086KMSO 101156Z 32004KT 10SM CLR 02/M02 A3011 RMK AO2 SLP199 T00171022 10106 20006 53016;EQDQ01+000000PRSWM2
0359727730241532000041105003+46917-114100FM-15+0973MSO  V0202205N00155220005MN0160005N1+00725-00175102105ADDAA101000095GF100991999999999999999999GP10060000002000000002000000002000GR100600000900009MA1102035999999MW1001REMMET068KMSO 110456Z 22003KT 10SM CLR 07/M02 A3013 RMK AO2 SLP210 T00721017;EQDQ01+000000PRSWM2N01 00000JPWTH 0QNNAA1D0 00000BA1 0 00000GA1U0 99999KA1D0 00029JA1 0-00017LA1 0 01000CA1 0 03013NA1 0 00000QA1 0 10210SA1D0 00045RA1 0 00072YA1 0 22003
0412727730241532000041507003+46917-114100FM-15+0973MSO  V0209999C00005015245MN0160005N1+00395+00225101125ADDAA101000095GD14995+0152459GF108991999999999999999999GP10060000002000000002000000002000GR100600000900009KA1999M+00891KA2999N+00061MA1100985999999MW1001REMMET080KMSO 150656Z 00000KT 10SM OVC050 04/02 A2982 RMK AO2 SLP112 T00390022 400890006;EQDQ01+000000PRSWM2N01 00000JPWTH 0QNNAA1D0 06050BA1 0 06050GA1 0 00050KA1D0 00036JA1 0 00022LA1 0 01000CA1 0 02982NA1 0 00000QA1 0 10112SA1D0 00039RA1 0 00039YA1 0 00000
0375727730241532000041916003+46917-114100FM-15+0973MSO  V0209999C00005220005MN0160005N1+01005+00675101645ADDAA101000095GF100991999999999999999999GP10060045102008074002015010602008GQ100600622910379GR100600630913549MA1101665999999MW1001REMMET067KMSO 191556Z 00000KT 10SM CLR 10/07 A3002 RMK AO2 SLP164 T01000067;EQDQ01+000000PRSWM2N01 00000JPWTH 0QNNAA1D0 00000BA1 0 00000GA1U0 99999KA1D0 00044JA1 0 00067LA1 0 01000CA1 0 03002NA1 0 00000QA1 0 10164SA1D0 00050RA1 0 00100YA1 0 00000
0394727730241532000042901003+46917-114100FM-15+0973MSO  V0203005N00725021345MN0160005N1+00895-00395101675ADDAA101000095GD14995+0213459GF108991999999999999999999GP10060027802008029402015017102008GQ100600686926859GR100600491913479MA1101665999999MW1001REMMET071KMSO 290056Z 30014KT 10SM OVC070 09/M04 A3002 RMK AO2 SLP167 T00891039;EQDQ01+000000PRSWM2N01 00000JPWTH 0QNNAA1D0 06070BA1 0 06070GA1 0 00070KA1D0 00025JA1 0-00039LA1 0 01000CA1 0 03002NA1 0 00000QA1 0 10167SA1D0 00048RA1 0 00089YA1 0 30014
0406727730241532000050901003+46917-114100FM-15+0973MSO  V0201205N00315220005MN0160005N1+01285-00065101335ADDAA101000025GD12995+0213459GF104991999999999999999999GP10060032502008031602015020002008GQ100600667927099GR100600529913419MA1101225999999MW1001REMMET083KMSO 090056Z 12006KT 10SM SCT070 13/M01 A2989 RMK AO2 RAE07 SLP133 P0000 T01281006;EQDQ01+000000PRSWM2N01 00000JPWTH 0QNNAA1D0 02070BA1 0 02070GA1U0 99999KA1D0 00031JA1 0-00006LA1 0 01000CA1 0 02989NA1 0 00000QA1 0 10133SA1D0 00055RA1 0 00128YA1 0 12006
0514727730241532000051119003+46917-114100FM-15+0973MSO  V0202805N00415014945MN0160005N1+00675-00065101265ADDAA101000025GD12995+0094559GD23995+0149459GD34995+0228659GF108991999999999999999999GP10060063802008026302015041402008GQ100600317915099GR100601138913399MA1101125999999MW1615REMMET101KMSO 111856Z 28008KT 10SM -RA SCT031 BKN049 OVC075 07/M01 A2986 RMK AO2 RAB07 SLP126 P0000 T00671006;EQDQ01+000003PRSWM1Q02    003PRSWM1N01 00020JPWTH 0QNNAA1D0 02031BA1 0 02031AA1D0 04049BA1 0 04049AA1D0 06075BA1 0 06075GA1 0 00049KA1D0 00031JA1 0-00006LA1 0 01000CA1 0 02986NA1 0 00020QA1 0 10126SA1D0 00044RA1 0 00067YA1 0 28008
0492727730241532000051200003+46917-114100SY-MT+0973MSO  V0202905N00825018295MN0160005N1+00895-00445101485ADDAA101000025AA206000391GD13995+0182959GD23995+0228659GD34995+0274359GF108991999999017501999999GP10060052102008057602015019902008GQ100600560926019GR100600747913399MA1101355090201MD1310151+9999REMSYN092AAXX  12004 72773 12766 82916 10089 21044 39020 40148 53015 69931 92356 333 91022 555 91200;EQDN01 00000JPWTH 0QNNAA1D0 04060BA1 0 04060AA1D0 04075BA1 0 04075AA1D0 06090BA1 0 06090GA1 0 00060KA1D0 00024JA1 0-00044LA1 0 01000CA1 0 02993NA1 0 00000QA1 0 10148SA1D0 00048RA1 0 00089YA1 0 29016
0465727730241532000051400003+46917-114100SY-MT+0973MSO  V0202905N00365033535MN0160005N1+01615-00395101865ADDAA101000095GD14995+0335359GF108991999999999999999999GP10060057802008071302015017502008GQ100600557926059GR100600753913379KA1120M+01721KA2180N-00211MA1101765090571MD1610161+9999REMSYN092AAXX  14004 72773 32966 82907 10161 21039 39057 40186 56016 92356 333 10172 21021 555 91400;EQDQ01  00002PRCP99Q02  00003PRCP99N01 00000JPWTH 0QNNAA1D0 06110BA1 0 06110GA1 0 00110KA1D0 00025JA1 0-00039LA1 0 01000CA1 0 03005NA1 0 00000QA1 0 10186SA1D0 00061RA1 0 00161YA1 0 29007
0376727730241532000052601003+46917-114100FM-15+0973MSO  V0202905N00525220005MN0160005N1+02115-00175100425ADDAA101000095GF100991999999999999999999GP10060025402008010302015020802008GQ100600640927389GR100600582913319MA1100515999999MW1001REMMET068KMSO 260056Z 29010KT 10SM CLR 21/M02 A2968 RMK AO2 SLP042 T02111017;EQDQ01+000000PRSWM2N01 00000JPWTH 0QNNAA1D0 00000BA1 0 00000GA1U0 99999KA1D0 00029JA1 0-00017LA1 0 01000CA1 0 02968NA1 0 00000QA1 0 10042SA1D0 00070RA1 0 00211YA1 0 29010
0412727730241532000060107003+46917-114100FM-15+0973MSO  V0201005N00155025915MN0160005N1+00565+00395102695ADDAA101000095GD13995+0259159GF107991999999999999999999GP10060000002000000002000000002000GR100600000900009KA1999M+01111KA2999N+00561MA1102615999999MW1001REMMET080KMSO 010656Z 10003KT 10SM BKN085 06/04 A3030 RMK AO2 SLP269 T00560039 401110056;EQDQ01+000000PRSWM2N01 00000JPWTH 0QNNAA1D0 04085BA1 0 04085GA1 0 00085KA1D0 00039JA1 0 00039LA1 0 01000CA1 0 03030NA1 0 00000QA1 0 10269SA1D0 00042RA1 0 00056YA1 0 10003
0450727730241532000061900003+46917-114100SY-MT+0973MSO  V0202505N00825220005MN0160005N1+02565+00115100445ADDAA101000095AA206000791GD11995+0335359GF102991999999999999999999GP10060052602008049002015022102008GQ100600515926389GR100600822913239KA1120M+02721KA2180N+00671MA1100585089501MD1610141+9999REMSYN098AAXX  19004 72773 12966 22516 10256 20011 38950 40044 56014 69901 92356 333 10272 20067 555 91900;EQDN01 00000JPWTH 0QNNAA1D0 02110BA1 0 01110GA1U0 99999KA1D0 00034JA1 0 00011LA1 0 01000CA1 0 02970NA1 0 00000QA1 0 10044SA1D0 00078RA1 0 00256YA1 0 25016
0464727730241532000062206003+46917-114100SY-MT+0973MSO  V0203405N00315220005MN0160005N1+01505+00725101175ADDAA101000095GA1001+999999999GD10995+9999999GF100991001001999999001001GP10060000002000000002000000002000GR100600000900009KA1240M+02721KA2240N+00611MA1101325090171MD1210101+9999REMSYN092AAXX  22064 72773 32966 03406 10150 20072 39017 40117 52010 90556 333 10272 20061 555 92206;EQDQ01  00002PRCP99Q02  00003PRCP99N01 00000JPWTH 0QNNAA1D0 00000BA1 0 00000GA1U0 99999KA1D0 00045JA1 0 00072LA1 0 01000CA1 0 02992NA1 0 00000QA1 0 10117SA1D0 00059RA1 0 00150YA1 0 34006
0481727730241532000062318003+46917-114100SY-MT+0973MSO  V0209999V00315220005MN0160005N1+02175-00285101495ADDAA101000095GA1001+999999999GD10995+9999999GF100991001001999999001001GP10060085102008088002015012902008GQ100600349912159GR100601083913229KA1120M+02221KA2240N+00561MA1101635090451MD1810071+9999REMSYN092AAXX  23184 72773 32966 09906 10217 21028 39045 40149 58007 91756 333 10222 20056 555 92318;EQDQ01  00002PRCP99Q02  00003PRCP99N01 00000JPWTH 0QNNAA1D0 00000BA1 0 00000GA1U0 99999KA1D0 00027JA1 0-00028LA1 0 01000CA1 0 03001NA1 0 00000QA1 0 10149SA1D0 00071RA1 0 00217YA1 0 00006
0419727730241532000070602003+46917-114100FM-15+0973MSO  V0202905N00415021345MN0160005N1+01285+01115101505ADDAA101000395GD14995+0213459GF108991999999999999999999GP10060009402008000002015009402008GQ100600717928409GR100600413913219MA1101495999999MW1615REMMET080KMSO 060156Z 29008KT 10SM -RA OVC070 13/11 A2997 RMK AO2 SLP150 P0001 T01280111;EQDQ01+000003PRSWM1Q02    003PRSWM1N01 00020JPWTH 0QNNAA1D0 06070BA1 0 06070GA1 0 00070KA1D0 00052JA1 0 00111LA1 0 01000CA1 0 02997NA1 0 00020QA1 0 10150SA1D0 00055RA1 0 00128YA1 0 29008
0378727730241532000070809003+46917-114100FM-15+0973MSO  V0209999C00005220005MN0160005N1+00895+00675101525ADDAA101000095GF100991999999999999999999GP10060000002000000002000000002000GR100600000900009MA1101595999999MD1110041+9999MW1001REMMET073KMSO 080856Z 00000KT 10SM CLR 09/07 A3000 RMK AO2 SLP152 T00890067 51004;EQDQ01+000000PRSWM2N01 00000JPWTH 0QNNAA1D0 00000BA1 0 00000GA1U0 99999KA1D0 00044JA1 0 00067LA1 0 01000CA1 0 03000NA1 0 00000QA1 0 10152SA1D0 00048RA1 0 00089YA1 0 00000
0499727730241532000070921003+46917-114100FM-15+0973MSO  V0201305N00155024385MN0144005N1+02115+01115101355ADDAA101000595AA203000591GD12995+0073259GD23995+0243859GF107991999999999999999999GP10060090302008069302015028302008GQ100600267920549GR100601180913229MA1101495999999MD1610071+9999MW1615REMMET098KMSO 092056Z 13003KT 9SM -RA SCT024 BKN080 21/11 A2997 RMK AO2 SLP135 P0002 60002 T02110111 56007;EQDQ01+000003PRSWM1Q02    003PRSWM1N01 00020JPWTH 0QNNAA1D0 02024BA1 0 02024AA1D0 04080BA1 0 04080GA1 0 00080KA1D0 00052JA1 0 00111LA1 0 00900CA1 0 02997NA1 0 00020QA1 0 10135SA1D0 00070RA1 0 00211YA1 0 13003
0358727730241532000071210003+46917-114100FM-15+0973MSO  V0209999C00005220005MN0160005N1+01065+00175101665ADDAA101000095GF100991999999999999999999GP10060000002000000002000000002000GR100600000900009MA1101835999999MW1001REMMET067KMSO 120956Z 00000KT 10SM CLR 11/02 A3007 RMK AO2 SLP166 T01060017;EQDQ01+000000PRSWM2N01 00000JPWTH 0QNNAA1D0 00000BA1 0 00000GA1U0 99999KA1D0 00035JA1 0 00017LA1 0 01000CA1 0 03007NA1 0 00000QA1 0 10166SA1D0 00051RA1 0 00106YA1 0 00000
0395727730241532000071221003+46917-114100FM-15+0973MSO  V0203305N00265220005MN0160005N1+03225+00615101255ADDAA101000095GF100991999999999999999999GP10060094002008086802015016602008GQ100600271920499GR100601177913229MA1101465999999MD1610261+9999MW1001REMMET073KMSO 122056Z 33005KT 10SM CLR 32/06 A2996 RMK AO2 SLP125 T03220061 56026;EQDQ01+000000PRSWM2N01 00000JPWTH 0QNNAA1D0 00000BA1 0 00000GA1U0 99999KA1D0 00043JA1 0 00061LA1 0 01000CA1 0 02996NA1 0 00000QA1 0 10125SA1D0 00090RA1 0 00322YA1 0 33005
0375727730241532000071301003+46917-114100FM-15+0973MSO  V0200905N00265220005MN0160005N1+03225+00675101165ADDAA101000095GF100991999999999999999999GP10060021602008010902015016502008GQ100600621927289GR100600618913229MA1101395999999MW1001REMMET067KMSO 130056Z 09005KT 10SM CLR 32/07 A2994 RMK AO2 SLP116 T03220067;EQDQ01+000000PRSWM2N01 00000JPWTH 0QNNAA1D0 00000BA1 0 00000GA1U0 99999KA1D0 00044JA1 0 00067LA1 0 01000CA1 0 02994NA1 0 00000QA1 0 10116SA1D0 00090RA1 0 00322YA1 0 09005
0203727730241532000072523564+46920-114070FM-15+0975KMSO V02099999999992200019N0160931N1+03301+00201100841ADDGF100991999999999999999999KA1999M+03281KA2999N+02441MA1101081999999MD1610261+9999MW1001REMMET085KMSO 252356Z VRB04KT 10SM CLR 33/02 A2985 RMK AO2 SLP084 T03280022 10328 20244 56026;EQDQ01+000000PRSWM2
0375727730241532000072801003+46917-114100FM-15+0973MSO  V0203105N00725220005MN0160005N1+03175+00225101275ADDAA101000095GF100991999999999999999999GP10060040402008069102015010102008GQ100600639927039GR100600582913259MA1101525999999MW1001REMMET067KMSO 280056Z 31014KT 10SM CLR 32/02 A2998 RMK AO2 SLP127 T03170022;EQDQ01+000000PRSWM2N01 00000JPWTH 0QNNAA1D0 00000BA1 0 00000GA1U0 99999KA1D0 00036JA1 0 00022LA1 0 01000CA1 0 02998NA1 0 00000QA1 0 10127SA1D0 00089RA1 0 00317YA1 0 31014
0163727730241532000080617094+46920-114070FM-16+0975KMSO V0201901N00151000151CN0016091N1+02201+00601999999ADDGD15991+0001519GF109991999999000251999999MA1101561999999MW1041REMMET054KMSO 061709Z 19003KT 1SM FU VV012 22/06 A2999 RMK AO2;EQDQ01+000003PRSWM1Q02    003PRSWM1
0395727730241532000080703003+46917-114100FM-15+0973MSO  V0203205N00365220005MN0160005N1+02565+00225100905ADDAA101000095GF100991999999999999999999GP10060003102008022702015001402008GQ100600856928979GR100600099912959MA1101125999999MD1310031+9999MW1001REMMET073KMSO 070256Z 32007KT 10SM CLR 26/02 A2986 RMK AO2 SLP090 T02560022 53003;EQDQ01+000000PRSWM2N01 00000JPWTH 0QNNAA1D0 00000BA1 0 00000GA1U0 99999KA1D0 00036JA1 0 00022LA1 0 01000CA1 0 02986NA1 0 00000QA1 0 10090SA1D0 00078RA1 0 00256YA1 0 32007
0445727730241532000081212003+46917-114100SY-MT+0973MSO  V0209999C00005220005MN0160005N1+00675+00115101975ADDAA101000095GA1001+999999999GD10995+9999999GF100991001001999999001001GP10060000002000000002000000002000GR100600000900009KA1999M+02781MA1102105090881MD1110101+9999REMSYN086AAXX  12124 72773 32966 00000 10067 20011 39088 40197 51010 91156 333 10278 555 91212;EQDQ01  00002PRCP99Q02  00003PRCP99N01 00000JPWTH 0QNNAA1D0 00000BA1 0 00000GA1U0 99999KA1D0 00034JA1 0 00011LA1 0 01000CA1 0 03015NA1 0 00000QA1 0 10197SA1D0 00044RA1 0 00067YA1 0 00000
0453727730241532000081318003+46917-114100FM-15+0973MSO  V0209999V00215220005MN0096005N1+02225+00395101235ADDAA101000095GF100991999999999999999999GP10060075202008088902015009502008GQ100600425912929GR100600981913319KA1999M+02221KA2999N+00831MA1101465999999MD1610111+9999MW1055REMMET089KMSO 131756Z VRB04KT 6SM HZ CLR 22/04 A2996 RMK AO2 SLP123 T02220039 10222 20083 56011 $;EQDQ01+000003PRSWM1Q02    003PRSWM1N01 00081JPWTH 0QNNAA1D0 00000BA1 0 00000GA1U0 99999KA1D0 00039JA1 0 00039LA1 0 00600CA1 0 02996NA1 0 00081QA1 0 10123SA1D0 00072RA1 0 00222YA1 0 00004
0358727730241532000081908003+46917-114100FM-15+0973MSO  V0203005N00415220005MN0160005N1+01615+00005101415ADDAA101000095GF100991999999999999999999GP10060000002000000002000000002000GR100600000900009MA1101635999999MW1001REMMET067KMSO 190756Z 30008KT 10SM CLR 16/00 A3001 RMK AO2 SLP141 T01610000;EQDQ01+000000PRSWM2N01 00000JPWTH 0QNNAA1D0 00000BA1 0 00000GA1U0 99999KA1D0 00032JA1 0 00000LA1 0 01000CA1 0 03001NA1 0 00000QA1 0 10141SA1D0 00061RA1 0 00161YA1 0 30008
0411727730241532000081922003+46917-114100FM-15+0973MSO  V0203205N01035027435MN0160005N1+02225+00335101345ADDAA101000095GD13995+0274359GF107991999999999999999999GP10060013002008000002015013002008GQ100600416922279GR100600997913349MA1101495999999MW1001REMMET088KMSO 192156Z 32020KT 10SM BKN090 22/03 A2997 RMK AO2 PK WND 33027/2131 SLP134 T02220033;EQDQ01+000000PRSWM2N01 00000JPWTH 0QNNAA1D0 04090BA1 0 04090GA1 0 00090KA1D0 00038JA1 0 00033LA1 0 01000CA1 0 02997NA1 0 00000QA1 0 10134SA1D0 00072RA1 0 00222YA1 0 32020
0454727730241532000082419003+46917-114100FM-15+0973MSO  V0201905N00365028965MN0048005N1+02175+01005102265ADDAA101000395GD13995+0289659GF107991999999999999999999GP10060012802008000002015012802008GQ100600391915279GR100601038913379MA1102445999999MW1045MW2615REMMET109KMSO 241856Z 19007KT 150V240 3SM -RA FU BKN095 22/10 A3025 RMK AO2 RAB02E34B55 PRESRR SLP226 P0001 T02170100;EQDQ01+000003PRSWM1Q02    003PRSWM1N01 02080JPWTH 0QNNAA1D0 04095BA1 0 04095GA1 0 00095KA1D0 00050JA1 0 00100LA1 0 00300CA1 0 03025NA1 0 02080QA1 0 10226SA1D0 00071RA1 0 00217YA1 0 19007
0858727730241532000082706596+46921-114092SOD  +0972KMSO V020999999999999999999999999999+99999+99999999999ADDAA124000096AJ100009599999999AL12400095AN1024000095AT1MW08HZ  5GJ107625GK10935KA1240M+02945KA2240N+00895MG1089949999994OE11240156526018115OE22240125227018125OE33240028299999995REMSOD65224 HR PRECIPITATION (IN): 0.00 SNOW DEPTH (IN):0     24 HR SNOWFALL (IN):0.0  TOTAL SUNSHINE (MINUTES): 762 PERCENT POSSIBLE SUNSHINE: 93 24 HR MAX TEMP (F): 8524 HR MAX TEMP TIME (LST):1514 24 HR MIN TEMP (F): 4824 HR MIN TEMP TIME (LST):0630 AVERAGE STATION PRESSURE:26.56  PEAK WIND SPEED (MPH): 35 PEAK WIND DIR (DEG):260 PEAK WIND TIME (LST):1811  FASTEST 2MIN SPEED (MPH): 28FASTEST 2MIN DIR (DEG):270 FASTEST 2MIN TIME (LST):1812 AVERAGE WIND SPEED (MPH): 6.3 24 HR AVG TEMP (F):67 HOURLY INCREMENTAL PRECIPITATION VALUES (IN):.00  .00  .00  .00  .00  .00  .00  .00  .00  .00  .00  .00  .00  .00  .00  .00  .00  .00  .00  .00  .00  .00  .00  .00EQDR01  0.007AAP092
0376727730241532000082822003+46917-114100FM-15+0973MSO  V0209999V00155220005MN0160005N1+02285-00445101555ADDAA101000095GF100991999999999999999999GP10060067802008070702015017402008GQ100600446922149GR100600953913409MA1101635999999MW1001REMMET068KMSO 282156Z VRB03KT 10SM CLR 23/M04 A3001 RMK AO2 SLP155 T02281044;EQDQ01+000000PRSWM2N01 00000JPWTH 0QNNAA1D0 00000BA1 0 00000GA1U0 99999KA1D0 00024JA1 0-00044LA1 0 01000CA1 0 03001NA1 0 00000QA1 0 10155SA1D0 00073RA1 0 00228YA1 0 00003
0394727730241532000082920003+46917-114100FM-15+0973MSO  V0203105N00265220005MN0064005N1+02285-00065101205ADDAA101000095GF100991999999999999999999GP10060080202008084702015013402008GQ100600381917729GR100601055913409MA1101295999999MW1045REMMET070KMSO 291956Z 31005KT 4SM FU CLR 23/M01 A2991 RMK AO2 SLP120 T02281006;EQDQ01+000003PRSWM1Q02    003PRSWM1N01 00080JPWTH 0QNNAA1D0 00000BA1 0 00000GA1U0 99999KA1D0 00031JA1 0-00006LA1 0 00400CA1 0 02991NA1 0 00080QA1 0 10120SA1D0 00073RA1 0 00228YA1 0 31005
0375727730241532000091520003+46917-114100FM-15+0973MSO  V0202805N00265220005MN0160005N1+02565+00945101225ADDAA101000095GF100991999999999999999999GP10060073302008085902015011702008GQ100600444917959GR100600966913529MA1101395999999MW1001REMMET067KMSO 151956Z 28005KT 10SM CLR 26/09 A2994 RMK AO2 SLP122 T02560094;EQDQ01+000000PRSWM2N01 00000JPWTH 0QNNAA1D0 00000BA1 0 00000GA1U0 99999KA1D0 00049JA1 0 00094LA1 0 01000CA1 0 02994NA1 0 00000QA1 0 10122SA1D0 00078RA1 0 00256YA1 0 28005
0221727730241532000091817564+46920-114070FM-15+0975KMSO V0202501N007712200019N0160931N1+02201+00901101561ADDGD12991+0270019GF102991999999999999999999KA1999M+02171KA2999N+01171MA1101731999999MD1810061+9999MW1001REMMET088KMSO 181756Z 25015KT 10SM FEW095 22/09 A3004 RMK AO2 SLP156 T02170089 10217 20117 58006;EQDQ01+000000PRSWM2
0375727730241532000092016003+46917-114100FM-15+0973MSO  V0209999V00215220005MN0160005N1+00725+00225101965ADDAA101000095GF100991999999999999999999GP10060012002008000602015011802008GQ100600693911259GR100600478913569MA1101935999999MW1001REMMET067KMSO 201556Z VRB04KT 10SM CLR 07/02 A3010 RMK AO2 SLP196 T00720022;EQDQ01+000000PRSWM2N01 00000JPWTH 0QNNAA1D0 00000BA1 0 00000GA1U0 99999KA1D0 00036JA1 0 00022LA1 0 01000CA1 0 03010NA1 0 00000QA1 0 10196SA1D0 00045RA1 0 00072YA1 0 00004
0358727730241532000092913003+46917-114100FM-15+0973MSO  V0209999C00005220005MN0160005N1+00505+00175101685ADDAA101000095GF100991999999999999999999GP10060000002000000002000000002000GR100600000900009MA1101695999999MW1001REMMET067KMSO 291256Z 00000KT 10SM CLR 05/02 A3003 RMK AO2 SLP168 T00500017;EQDQ01+000000PRSWM2N01 00000JPWTH 0QNNAA1D0 00000BA1 0 00000GA1U0 99999KA1D0 00035JA1 0 00017LA1 0 01000CA1 0 03003NA1 0 00000QA1 0 10168SA1D0 00041RA1 0 00050YA1 0 00000
0393727730241532000100222003+46917-114100FM-15+0973MSO  V0203005N00675018295MN0160005N1+01175+00005101795ADDAA101000095GD13995+0182959GF107991999999999999999999GP10060049902008064902015015302008GQ100600579921759GR100600726913659MA1101735999999MW1001REMMET070KMSO 022156Z 30013KT 10SM BKN060 12/00 A3004 RMK AO2 SLP179 T01170000;EQDQ01+000000PRSWM2N01 00000JPWTH 0QNNAA1D0 04060BA1 0 04060GA1 0 00060KA1D0 00032JA1 0 00000LA1 0 01000CA1 0 03004NA1 0 00000QA1 0 10179SA1D0 00053RA1 0 00117YA1 0 30013
0465727730241532000100400003+46917-114100SY-MT+0973MSO  V0203605N00365033535MN0160005N1+01065+00065102135ADDAA101000095GD14995+0335359GF108991999999999999999999GP10060019202008026402015012002008GQ100600742924529GR100600372913669KA1120M+01111KA2180N-00051MA1101965090761MD1610061+9999REMSYN092AAXX  04004 72773 32966 83607 10106 20006 39076 40213 56006 92356 333 10111 21005 555 90400;EQDQ01  00002PRCP99Q02  00003PRCP99N01 00000JPWTH 0QNNAA1D0 06110BA1 0 06110GA1 0 00110KA1D0 00033JA1 0 00006LA1 0 01000CA1 0 03011NA1 0 00000QA1 0 10213SA1D0 00051RA1 0 00106YA1 0 36007
0358727730241532000100405003+46917-114100FM-15+0973MSO  V0209999C00005220005MN0160005N1+00285+00005102145ADDAA101000095GF100991999999999999999999GP10060000002000000002000000002000GR100600000900009MA1101965999999MW1001REMMET067KMSO 040456Z 00000KT 10SM CLR 03/00 A3011 RMK AO2 SLP214 T00280000;EQDQ01+000000PRSWM2N01 00000JPWTH 0QNNAA1D0 00000BA1 0 00000GA1U0 99999KA1D0 00032JA1 0 00000LA1 0 01000CA1 0 03011NA1 0 00000QA1 0 10214SA1D0 00037RA1 0 00028YA1 0 00000
0378727730241532000100617003+46917-114100FM-15+0973MSO  V0209999C00005220005MN0160005N1+00225-00335103155ADDAA101000095GF100991999999999999999999GP10060040102008078302015006902008GQ100600650913089GR100600579913699MA1102915999999MW1001REMMET070KMSO 061656Z 00000KT 10SM CLR 02/M03 A3039 RMK AO2 SLP315 T00221033 $;EQDQ01+000000PRSWM2N01 00000JPWTH 0QNNAA1D0 00000BA1 0 00000GA1U0 99999KA1D0 00026JA1 0-00033LA1 0 01000CA1 0 03039NA1 0 00000QA1 0 10315SA1D0 00036RA1 0 00022YA1 0 00000
0378727730241532000100717003+46917-114100FM-15+0973MSO  V0209999V00215220005MN0160005N1+00335-00395103055ADDAA101000095GF100991999999999999999999GP10060040102008081202015006002008GQ100600653913119GR100600573913699MA1102815999999MW1001REMMET070KMSO 071656Z VRB04KT 10SM CLR 03/M04 A3036 RMK AO2 SLP305 T00331039 $;EQDQ01+000000PRSWM2N01 00000JPWTH 0QNNAA1D0 00000BA1 0 00000GA1U0 99999KA1D0 00025JA1 0-00039LA1 0 01000CA1 0 03036NA1 0 00000QA1 0 10305SA1D0 00038RA1 0 00033YA1 0 00004
0378727730241532000100801003+46917-114100FM-15+0973MSO  V0203305N00315220005MN0160005N1+01065-00115102435ADDAA101000095GF100991999999999999999999GP10060000002008000002015000002008GQ100600850925609GR100600118913699MA1102245999999MW1001REMMET070KMSO 080056Z 33006KT 10SM CLR 11/M01 A3019 RMK AO2 SLP243 T01061011 $;EQDQ01+000000PRSWM2N01 00000JPWTH 0QNNAA1D0 00000BA1 0 00000GA1U0 99999KA1D0 00030JA1 0-00011LA1 0 01000CA1 0 03019NA1 0 00000QA1 0 10243SA1D0 00051RA1 0 00106YA1 0 33006
0205727730241532000100917564+46920-114070FM-15+0975KMSO V0209999C000012200019N0160931N1+00901+00101101431ADDGF100991999999999999999999KA1999M+00941KA2999N-00281MA1101351999999MD1810191+9999MW1001REMMET087KMSO 091756Z 00000KT 10SM CLR 09/01 A2993 RMK AO2 SLP143 T00940011 10094 21028 58019 $;EQDQ01+000000PRSWM2
0221727730241532000101023564+46920-114070FM-15+0975KMSO V0201501N001510330019N0160931N1+01301+00401100241ADDGD14991+0330019GF108991999999999999999999KA1999M+01331KA2999N+00941MA1100201999999MD1310131+9999MW1001REMMET088KMSO 102356Z 15003KT 10SM OVC110 13/04 A2959 RMK AO2 SLP024 T01280044 10133 20094 53013;EQDQ01+000000PRSWM2
0376727730241532000101102003+46917-114100FM-15+0973MSO  V0203305N00155220005MN0160005N1+00945+00565100365ADDAA101000095GD12995+0335359GF104991999999999999999999GP10060000002000000002000000002000GR100600000900009MA1100275999999MW1001REMMET070KMSO 110156Z 33003KT 10SM SCT110 09/06 A2961 RMK AO2 SLP036 T00940056;EQDQ01+000000PRSWM2N01 00000JPWTH 0QNNAA1D0 02110BA1 0 02110GA1U0 99999KA1D0 00042JA1 0 00056LA1 0 01000CA1 0 02961NA1 0 00000QA1 0 10036SA1D0 00049RA1 0 00094YA1 0 33003
0445727730241532000101213003+46917-114100FM-15+0973MSO  V0209999C00005002135MN0112005N1+00505+00445101505ADDAA101001395GD13995+0021359GD24995+0100659GF108991999999999999999999GP10060000002000000002000000002000GR100600000900009MA1101425999999MW1615REMMET086KMSO 121256Z 00000KT 7SM -RA BKN007 OVC033 05/04 A2995 RMK AO2 SLP150 P0005 T00500044;EQDQ01+000003PRSWM1Q02    003PRSWM1N01 00020JPWTH 0QNNAA1D0 04007BA1 0 04007AA1D0 06033BA1 0 06033GA1 0 00007KA1D0 00040JA1 0 00044LA1 0 00700CA1 0 02995NA1 0 00020QA1 0 10150SA1D0 00041RA1 0 00050YA1 0 00000
0393727730241532000101219003+46917-114100FM-15+0973MSO  V0209999C00005220005MN0160005N1+00675+00445101505ADDAA101000095GD12995+0243859GF104991999999999999999999GP10060009302008000002015009302008GQ100600560916429GR100600768913739MA1101395999999MW1001REMMET070KMSO 121856Z 00000KT 10SM SCT080 07/04 A2994 RMK AO2 SLP150 T00670044;EQDQ01+000000PRSWM2N01 00000JPWTH 0QNNAA1D0 02080BA1 0 02080GA1U0 99999KA1D0 00040JA1 0 00044LA1 0 01000CA1 0 02994NA1 0 00000QA1 0 10150SA1D0 00044RA1 0 00067YA1 0 00000
0504727730241532000101313003+46917-114100FM-15+0973MSO  V0209999C00005003355MN0064005N1+00565+00445101745ADDAA101000895GD12995+0012259GD23995+0033559GD34995+0100659GF108991999999999999999999GP10060000002000000002000000002000GR100600000900009MA1101635999999MW1101MW2455MW3615REMMET096KMSO 131256Z 00000KT 4SM -RA BR SCT004 BKN011 OVC033 06/04 A3001 RMK AO2 SLP174 P0003 T00560044;EQDQ01+000003PRSWM1Q02    003PRSWM1N01 02070JPWTH 0QNNAA1D0 02004BA1 0 02004AA1D0 04011BA1 0 04011AA1D0 06033BA1 0 06033GA1 0 00011KA1D0 00040JA1 0 00044LA1 0 00400CA1 0 03001NA1 0 02070QA1 0 10174SA1D0 00042RA1 0 00056YA1 0 00000
0193727730241532000101313224+46920-114070FM-16+0975KMSO V0209999C000010033019N0112651N1+00501+00401999999ADDGD12991+0012019GD24991+0033019GF108991999999999999999999MA1101631999999MW1611REMMET069KMSO 131322Z 00000KT 7SM -RA SCT004 OVC011 05/04 A3001 RMK AO2 P0001;EQDQ01+000003PRSWM1Q02    003PRSWM1
0168727730241532000101407094+46920-114070FM-16+0975KMSO V0209999C000010039019N0160931N1+00601+00501999999ADDGD13991+0039019GD24991+0111019GF108991999999999999999999MA1101961999999MW1001REMMET060KMSO 140709Z 00000KT 10SM BKN013 OVC037 06/05 A3011 RMK AO2;EQDQ01+000000PRSWM2
0480727730241532000101416003+46917-114100FM-15+0973MSO  V0209999C00005006715MN0128005N1+00615+00565102245ADDAA101000095GD11995+0006159GD23995+0067159GD34995+0259159GF108991999999999999999999GP10060006702008000002015006702008GQ100600755911999GR100600344913759MA1102105999999MW1001REMMET083KMSO 141556Z 00000KT 8SM FEW002 BKN022 OVC085 06/06 A3015 RMK AO2 SLP224 T00610056;EQDQ01+000000PRSWM2N01 00000JPWTH 0QNNAA1D0 02002BA1 0 01002AA1D0 04022BA1 0 04022AA1D0 06085BA1 0 06085GA1 0 00022KA1D0 00042JA1 0 00056LA1 0 00800CA1 0 03015NA1 0 00000QA1 0 10224SA1D0 00043RA1 0 00061YA1 0 00000
0420727730241532000101504003+46917-114100FM-15+0973MSO  V0202905N00265018295MN0160005N1+00725+00675102125ADDAA101000095GD11995+0149459GD24995+0182959GF108991999999999999999999GP10060000002000000002000000002000GR100600000900009MA1102005999999MW1001REMMET077KMSO 150356Z 29005KT 10SM FEW049 OVC060 07/07 A3012 RMK AO2 SLP212 T00720067;EQDQ01+000000PRSWM2N01 00000JPWTH 0QNNAA1D0 02049BA1 0 01049AA1D0 06060BA1 0 06060GA1 0 00060KA1D0 00044JA1 0 00067LA1 0 01000CA1 0 03012NA1 0 00000QA1 0 10212SA1D0 00045RA1 0 00072YA1 0 29005
0281727730241532000101505564+46920-114070FM-15+0975KMSO V0209999C000010180019N0128741N1+00601+00601102151ADDAA106000021GD12991+0012019GD22991+0021019GD34991+0180019GF108991999999999999999999KA1999M+00941KA2999N+00611MA1102031999999MD1110061+9999MW1001REMMET107KMSO 150556Z 00000KT 8SM SCT004 SCT007 OVC065 06/06 A3013 RMK AO2 SLP215 60000 T00610056 10094 20061 51006;EQDQ01+000000PRSWM2
0221727730241532000101623564+46920-114070FM-15+0975KMSO V0202601N002610240019N0160931N1+01301+00701102021ADDGD13991+0240019GF107991999999999999999999KA1999M+01611KA2999N+00831MA1101901999999MD1610061+9999MW1001REMMET088KMSO 162356Z 26005KT 10SM BKN080 13/07 A3009 RMK AO2 SLP202 T01280072 10161 20083 56006;EQDQ01+000000PRSWM2
0190727730241532000101716294+46920-114070FM-16+0975KMSO V0209999C000010015019N0040231N1+00401+00401999999ADDGD12991+0003019GD23991+0015019GF107991999999999999999999MA1102301999999MW1101REMMET066KMSO 171629Z 00000KT 2 1/2SM BR SCT001 BKN005 04/04 A3021 RMK AO2;EQDQ01+000003PRSWM1Q02    003PRSWM1
0393727730241532000102723003+46917-114100FM-15+0973MSO  V0202905N00315030485MN0160005N1+01175+00395100955ADDAA101000095GD13995+0304859GF107991999999999999999999GP10060021502009028702021013302009GQ100600735922849GR100600393913859MA1100885999999MW1001REMMET070KMSO 272256Z 29006KT 10SM BKN100 12/04 A2979 RMK AO2 SLP095 T01170039;EQDQ01+000000PRSWM2N01 00000JPWTH 0QNNAA1D0 04100BA1 0 04100GA1 0 00100KA1D0 00039JA1 0 00039LA1 0 01000CA1 0 02979NA1 0 00000QA1 0 10095SA1D0 00053RA1 0 00117YA1 0 29006
0166727730241532000103113084+46920-114070FM-16+0975KMSO V0209999C000010006019N0016091N1-00201-00201999999ADDGD14991+0006019GF108991999999999999999999MA1102131999999MW1101REMMET057KMSO 311308Z 00000KT 1SM BR OVC002 M02/M02 A3016 RMK AO2;EQDQ01+000003PRSWM1Q02    003PRSWM1
0397727730241532000110403003+46917-114100FM-15+0973MSO  V0202805N00155019815MN0160005N1+00285-00065102505ADDAA101000095GD14995+0198159GF108991999999999999999999GP10060000002000000002000000002000GR100600000900009MA1102205999999MD1610061+9999MW1001REMMET077KMSO 040256Z 28003KT 10SM OVC065 03/M01 A3018 RMK AO2 SLP250 T00281006 56006;EQDQ01+000000PRSWM2N01 00000JPWTH 0QNNAA1D0 06065BA1 0 06065GA1 0 00065KA1D0 00031JA1 0-00006LA1 0 01000CA1 0 03018NA1 0 00000QA1 0 10250SA1D0 00037RA1 0 00028YA1 0 28003
0380727730241532000110703003+46917-114100FM-15+0973MSO  V0203205N00265220005MN0160005N1-00285-00565102665ADDAA101000095GF100991999999999999999999GP10060000002000000002000000002000GR100600000900009MA1102345999999MD1110131+9999MW1001REMMET075KMSO 070256Z 32005KT 10SM CLR M03/M06 A3022 RMK AO2 SLP266 T10281056 51013;EQDQ01+000000PRSWM2N01 00000JPWTH 0QNNAA1D0 00000BA1 0 00000GA1U0 99999KA1D0 00022JA1 0-00056LA1 0 01000CA1 0 03022NA1 0 00000QA1 0 10266SA1D0 00027RA1 0-00028YA1 0 32005
0222727730241532000110717564+46920-114070FM-15+0975KMSO V0201501N001510087019N0144841N1-00301-00501103031ADDGD14991+0087019GF108991999999999999999999KA1999M-00281KA2999N-00831MA1102641999999MD1810071+9999MW1001REMMET089KMSO 071756Z 15003KT 9SM OVC029 M03/M05 A3031 RMK AO2 SLP303 T10281050 11028 21083 58007;EQDQ01+000000PRSWM2
0448727730241532000111012003+46917-114100SY-MT+0973MSO  V0201205N00775220005MN0160005N1-00835-01445102175ADDAA101000095GD11995+0304859GF102991999999999999999999GP10060000002000000002000000002000GR100600000900009KA1999M-00111KA2120N-00831MA1101735090541MD1310011+9999REMSYN092AAXX  10124 72773 32966 21215 11083 21144 39054 40217 53001 91156 333 11011 21083 555 91012;EQDQ01  00002PRCP99Q02  00003PRCP99N01 00000JPWTH 0QNNAA1D0 02100BA1 0 01100GA1U0 99999KA1D0 00006JA1 0-00144LA1 0 01000CA1 0 03004NA1 0 00000QA1 0 10217SA1D0 00017RA1 0-00083YA1 0 12015
0245727730241532000111117564+46920-114070FM-15+0975KMSO V0209999C000010180019N0160931N1-00601-01201102551ADDGD12991+0111019GD24991+0180019GF108991999999999999999999KA1999M-00611KA2999N-00721MA1102101999999MD1110061+9999MW1001REMMET097KMSO 111756Z 00000KT 10SM FEW037 OVC060 M06/M12 A3015 RMK AO2 SLP255 T10611122 11061 21072 51006;EQDQ01+000000PRSWM2
0397727730241532000111915003+46917-114100FM-15+0973MSO  V0209999C00005220005MN0160005N1-01005-01175103365ADDAA101000095GF100991999999999999999999GP10060000002009000002021000002009GQ100600892911999GR100600004902929MA1102915999999MD1510011+9999MW1001REMMET075KMSO 191456Z 00000KT 10SM CLR M10/M12 A3039 RMK AO2 SLP336 T11001117 55001;EQDQ01+000000PRSWM2N01 00000JPWTH 0QNNAA1D0 00000BA1 0 00000GA1U0 99999KA1D0 00011JA1 0-00117LA1 0 01000CA1 0 03039NA1 0 00000QA1 0 10336SA1D0 00014RA1 0-00100YA1 0 00000
0466727730241532000112306003+46917-114100SY-MT+0973MSO  V0201705N00315001225MN0064005N1-00675-00725103235ADDAA101000095GD14995+0012259GF108991999999001501999999GP10060000002000000002000000002000GR100600000900009KA1240M-00441KA2240N-01001MA1102745091471MD1010031+9999MW1101MW2455REMSYN098AAXX  23064 72773 31256 81706 11067 21072 39147 40323 50003 710// 90556 333 11044 21100 555 92306;EQDQ01  00002PRCP99Q02  00003PRCP99N01 00070JPWTH 0QNNAA1D0 06004BA1 0 06004GA1 0 00004KA1D0 00019JA1 0-00072LA1 0 00400CA1 0 03034NA1 0 00070QA1 0 10323SA1D0 00020RA1 0-00067YA1 0 17006
0384727730241532000112513003+46917-114100FM-15+0973MSO  V0209999C00005220005MN0080005N1-00565-00615102785ADDAA101000095GF100991999999999999999999GP10060000002000000002000000002000GR100600000900009MA1102405999999MW1101MW2455REMMET071KMSO 251256Z 00000KT 5SM BR CLR M06/M06 A3024 RMK AO2 SLP278 T10561061;EQDQ01+000003PRSWM1Q02    003PRSWM1N01 00070JPWTH 0QNNAA1D0 00000BA1 0 00000GA1U0 99999KA1D0 00021JA1 0-00061LA1 0 00500CA1 0 03024NA1 0 00070QA1 0 10278SA1D0 00022RA1 0-00056YA1 0 00000
0148727730241532000120107064+46920-114070FM-16+0975KMSO V0201101N002112200019N0032181N1-00401-00501999999ADDGF100991999999999999999999MA1102911999999MW1101REMMET054KMSO 010706Z 11004KT 2SM BR CLR M04/M05 A3039 RMK AO2;EQDQ01+000003PRSWM1Q02    003PRSWM1
0166727730241532000120117244+46920-114070FM-16+0975KMSO V0209999C000010012019N0016091N1-00501-00601999999ADDGD13991+0012019GF107991999999999999999999MA1102881999999MW1101REMMET057KMSO 011724Z 00000KT 1SM BR BKN004 M05/M06 A3038 RMK AO2;EQDQ01+000003PRSWM1Q02    003PRSWM1
0439727730241532000120119003+46917-114100FM-15+0973MSO  V0209999C00005000305MN0024005N1-00285-00335103205ADDAA101000095GD14995+0003059GF108991999999999999999999GP10060016402009004102021015002009GQ100600700916639GR100600480914079MA1102815999999MW1101MW2455REMMET094KMSO 011856Z 00000KT 1 1/2SM BR OVC001 M03/M03 A3036 RMK AO2 SFC VIS 1 3/4 SLP320 T10281033 $;EQDQ01+000003PRSWM1Q02    003PRSWM1N01 00070JPWTH 0QNNAA1D0 06001BA1 0 06001GA1 0 00001KA1D0 00026JA1 0-00033LA1 0 00150CA1 0 03036NA1 0 00070QA1 0 10320SA1D0 00027RA1 0-00028YA1 0 00000
0440727730241532000120307003+46917-114100FM-15+0973MSO  V0209999C00005016765MN0080005N1-00285-00395102445ADDAA101000095GD14995+0167659GF108991999999999999999999GP10060000002000000002000000002000GR100600000900009KA1999M-00281KA2999N-00831MA1102075999999MW1101MW2455REMMET086KMSO 030656Z 00000KT 5SM BR OVC055 M03/M04 A3014 RMK AO2 SLP244 T10281039 410281083 $;EQDQ01+000003PRSWM1Q02    003PRSWM1N01 00070JPWTH 0QNNAA1D0 06055BA1 0 06055GA1 0 00055KA1D0 00025JA1 0-00039LA1 0 00500CA1 0 03014NA1 0 00070QA1 0 10244SA1D0 00027RA1 0-00028YA1 0 00000
0482727730241532000120712003+46917-114100SY-MT+0973MSO  V0209999C00005000305MN0004005N1-00725-00835102525ADDAA101000095GA1091+999999999GD15995+0003059GF109991091999999999999999GP10060000002000000002000000002000GR100600000900009KA1999M-00441KA2120N-00891MA1102075090851MD1010061+9999MW1411MW2455REMSYN098AAXX  07124 72773 31004 90000 11072 21083 39085 40252 50006 741// 91156 333 11044 21089 555 90712;EQDQ01  00002PRCP99Q02  00003PRCP99N01 00071JPWTH 0QNNAA1D0 07001BA1 0 07001GA1 0 00001KA1D0 00017JA1 0-00083LA1 0 00025CA1 0 03014NA1 0 00071QA1 0 10252SA1D0 00019RA1 0-00072YA1 0 00000
0482727730241532000120812003+46917-114100SY-MT+0973MSO  V0209999C00005000305MN0004005N1-00675-00785102265ADDAA101000095GA1091+999999999GD15995+0003059GF109991091999999999999999GP10060000002000000002000000002000GR100600000900009KA1999M-00171KA2120N-01061MA1101835090641MD1810101+9999MW1411MW2455REMSYN098AAXX  08124 72773 31004 90000 11067 21078 39064 40226 58010 741// 91156 333 11017 21106 555 90812;EQDQ01  00002PRCP99Q02  00003PRCP99N01 00071JPWTH 0QNNAA1D0 07001BA1 0 07001GA1 0 00001KA1D0 00018JA1 0-00078LA1 0 00025CA1 0 03007NA1 0 00071QA1 0 10226SA1D0 00020RA1 0-00067YA1 0 00000
0419727730241532000120822003+46917-114100FM-15+0973MSO  V0209999C00005002445MN0096005N1-00445-00615101855ADDAA101000095GD14995+0024459GF108991999999999999999999GP10060015202009017202021010702009GQ100600749920889GR100600366914109MA1101425999999MW1101MW2455REMMET074KMSO 082156Z 00000KT 6SM BR OVC008 M04/M06 A2995 RMK AO2 SLP185 T10441061;EQDQ01+000003PRSWM1Q02    003PRSWM1N01 00070JPWTH 0QNNAA1D0 06008BA1 0 06008GA1 0 00008KA1D0 00021JA1 0-00061LA1 0 00600CA1 0 02995NA1 0 00070QA1 0 10185SA1D0 00024RA1 0-00044YA1 0 00000
0474727730241532000121320003+46917-114100FM-15+0973MSO  V0209999C00005013725MN0032005N1-01175-01445101605ADDAA101000025GD13995+0137259GD24995+0167659GF108991999999999999999999GP10060033702009080902021006102009GQ100600702917989GR100600479914129MA1101025999999MW1715REMMET098KMSO 131956Z 00000KT 2SM -SN BKN045 OVC055 M12/M14 A2983 RMK AO2 SFC VIS 3 SLP160 P0000 T11171144;EQDQ01+000003PRSWM1Q02    003PRSWM1N01 00040JPWTH 0QNNAA1D0 04045BA1 0 04045AA1D0 06055BA1 0 06055GA1 0 00045KA1D0 00006JA1 0-00144LA1 0 00200CA1 0 02983NA1 0 00040QA1 0 10160SA1D0 00011RA1 0-00117YA1 0 00000
0394727730241532000122116003+46917-114100FM-15+0973MSO  V0202705N00155018295MN0128005N1-01335-01445102855ADDAA101000095GD14995+0182959GF108991999999999999999999GP10060000302009000502021000302009GQ100600876912859GR100600038909079MA1102135999999MW1001REMMET071KMSO 211556Z 27003KT 8SM OVC060 M13/M14 A3016 RMK AO2 SLP285 T11331144;EQDQ01+000000PRSWM2N01 00000JPWTH 0QNNAA1D0 06060BA1 0 06060GA1 0 00060KA1D0 00006JA1 0-00144LA1 0 00800CA1 0 03016NA1 0 00000QA1 0 10285SA1D0 00008RA1 0-00133YA1 0 27003
0461727730241532000122304003+46917-114100FM-15+0973MSO  V0201305N00155016765MN0080005N1-00565-00615102335ADDAA101000025GD11995+0057959GD24995+0167659GF108991999999999999999999GP10060000002000000002000000002000GR100600000900009MA1101865999999MW1101MW2455REMMET096KMSO 230356Z 13003KT 5SM BR FEW019 OVC055 M06/M06 A3008 RMK AO2 SNB05E16 SLP233 P0000 T10561061;EQDQ01+000003PRSWM1Q02    003PRSWM1N01 00070JPWTH 0QNNAA1D0 02019BA1 0 01019AA1D0 06055BA1 0 06055GA1 0 00055KA1D0 00021JA1 0-00061LA1 0 00500CA1 0 03008NA1 0 00070QA1 0 10233SA1D0 00022RA1 0-00056YA1 0 13003
0360727730241532000122813003+46917-114100FM-15+0973MSO  V0209999C00005220005MN0160005N1-00675-00835103565ADDAA101000095GF100991999999999999999999GP10060000002000000002000000002000GR100600000900009MA1103155999999MW1001REMMET069KMSO 281256Z 00000KT 10SM CLR M07/M08 A3046 RMK AO2 SLP356 T10671083;EQDQ01+000000PRSWM2N01 00000JPWTH 0QNNAA1D0 00000BA1 0 00000GA1U0 99999KA1D0 00017JA1 0-00083LA1 0 01000CA1 0 03046NA1 0 00000QA1 0 10356SA1D0 00020RA1 0-00067YA1 0 00000
0394727730241532000122923003+46917-114100FM-15+0973MSO  V0209999C00005027435MN0128005N1-00395-00675103115ADDAA101000095GD13995+0274359GF107991999999999999999999GP10060017402009068602021005402009GQ100600800921939GR100600246914159MA1102645999999MW1001REMMET071KMSO 292256Z 00000KT 8SM BKN090 M04/M07 A3031 RMK AO2 SLP311 T10391067;EQDQ01+000000PRSWM2N01 00000JPWTH 0QNNAA1D0 04090BA1 0 04090GA1 0 00090KA1D0 00020JA1 0-00067LA1 0 00800CA1 0 03031NA1 0 00000QA1 0 10311SA1D0 00025RA1 0-00039YA1 0 00000
0421727730241532000123008003+46917-114100FM-15+0973MSO  V0209999C00005033535MN0112005N1-00445-00615102835ADDAA101000095GD12995+0259159GD24995+0335359GF108991999999999999999999GP10060000002000000002000000002000GR100600000900009MA1102405999999MW1001REMMET078KMSO 300756Z 00000KT 7SM SCT085 OVC110 M04/M06 A3024 RMK AO2 SLP283 T10441061;EQDQ01+000000PRSWM2N01 00000JPWTH 0QNNAA1D0 02085BA1 0 02085AA1D0 06110BA1 0 06110GA1 0 00110KA1D0 00021JA1 0-00061LA1 0 00700CA1 0 03024NA1 0 00000QA1 0 10283SA1D0 00024RA1 0-00044YA1 0 00000
0071727735999992000010520009+46633-113183NSRDB+121999999V020999999999999999999999999999+99999+99999999999ADDGP10060005502009000002021005502009GQ100600693917809GR100600499914159
0054727735999992000010814009+46633-113183NSRDB+121999999V020999999999999999999999999999+99999+99999999999ADDGP10060000002000000002000000002000GR100600000900009
0054727735999992000010904009+46633-113183NSRDB+121999999V020999999999999999999999999999+99999+99999999999ADDGP10060000002000000002000000002000GR100600000900009
0054727735999992000012110009+46633-113183NSRDB+121999999V020999999999999999999999999999+99999+99999999999ADDGP10060000002000000002000000002000GR100600000900009
0071727735999992000012423009+46633-113183NSRDB+121999999V020999999999999999999999999999+99999+99999999999ADDGP10060025402009064902021009202009GQ100600756922009GR100600350914129
0054727735999992000012612009+46633-113183NSRDB+121999999V020999999999999999999999999999+99999+99999999999ADDGP10060000002000000002000000002000GR100600000900009
0071727735999992000012818009+46633-113183NSRDB+121999999V020999999999999999999999999999+99999+99999999999ADDGP10060016602009012002021012802009GQ100600718914619GR100600441914109
0071727735999992000012821009+46633-113183NSRDB+121999999V020999999999999999999999999999+99999+99999999999ADDGP10060018702009002402021017702009GQ100600657919159GR100600581914109
0054727735999992000012908009+46633-113183NSRDB+121999999V020999999999999999999999999999+99999+99999999999ADDGP10060000002000000002000000002000GR100600000900009
0054727735999992000013109009+46633-113183NSRDB+121999999V020999999999999999999999999999+99999+99999999999ADDGP10060000002000000002000000002000GR100600000900009
0054727735999992000013115009+46633-113183NSRDB+121999999V020999999999999999999999999999+99999+99999999999ADDGP10060000002000000002000000002000GR100600000900009
0071727735999992000013122009+46633-113183NSRDB+121999999V020999999999999999999999999999+99999+99999999999ADDGP10060011302009000002021011302009GQ100600682920679GR100600523914099
0054727735999992000020502009+46633-113183NSRDB+121999999V020999999999999999999999999999+99999+99999999999ADDGP10060000002000000002000000002000GR100600000900009
0183727735999992000021214474+46670-113150FM-15+1202K3DU V0209999C000010135019N0193121N1-00801-01001999999ADDGD14991+0135019GF108991999999999999999999MD1710071+9999MW1001REMMET091K3DU 121447Z 00000KT 12SM OVC045 M08/M10 RMK MTNS OBSCD DSNT SE-SW NOSPECI T10821102 57007;EQDQ01+000000PRSWM2
0054727735999992000021313009+46633-113183NSRDB+121999999V020999999999999999999999999999+99999+99999999999ADDGP10060000002000000002000000002000GR100600000900009
0054727735999992000021608009+46633-113183NSRDB+121999999V020999999999999999999999999999+99999+99999999999ADDGP10060000002000000002000000002000GR100600000900009
0071727735999992000021620009+46633-113183NSRDB+121999999V020999999999999999999999999999+99999+99999999999ADDGP10060012602009000002021012602009GQ100600592917529GR100600717914019
0071727735999992000022521009+46633-113183NSRDB+121999999V020999999999999999999999999999+99999+99999999999ADDGP10060058202009073502021017802009GQ100600567919309GR100600766913969
0071727735999992000022815009+46633-113183NSRDB+121999999V020999999999999999999999999999+99999+99999999999ADDGP10060001002009011402021000602009GQ100600867910529GR100600058910109
0071727735999992000031416009+46633-113183NSRDB+121999999V020999999999999999999999999999+99999+99999999999ADDGP10060025702009067402021006502009GQ100600735911199GR100600392913839
0071727735999992000031501009+46633-113183NSRDB+121999999V020999999999999999999999999999+99999+99999999999ADDGP10060019602009049202021010402009GQ100600793925539GR100600257913839
0141727735999992000031813484+46670-113150FM-15+1202K3DU V0202901N002610150019N0321861N1-00101-00401999999ADDGD14991+0150019GF108991999999999999999999MW1001REMMET063K3DU 181348Z 29005KT 20SM OVC055 M01/M04 RMK NOSPECI T10111043;EQDQ01+000000PRSWM2
0071727735999992000032315009+46633-113183NSRDB+121999999V020999999999999999999999999999+99999+99999999999ADDGP10060001902008000002015001902008GQ100600803909849GR100600232913759
0071727735999992000040100009+46633-113183NSRDB+121999999V020999999999999999999999999999+99999+99999999999ADDGP10060043202008079102015010102008GQ100600653924899GR100600571913699
0054727735999992000040107009+46633-113183NSRDB+121999999V020999999999999999999999999999+99999+99999999999ADDGP10060000002000000002000000002000GR100600000900009
0071727735999992000040814009+46633-113183NSRDB+121999999V020999999999999999999999999999+99999+99999999999ADDGP10060004502008033102015001702008GQ100600851908419GR100600115913629
0054727735999992000040907009+46633-113183NSRDB+121999999V020999999999999999999999999999+99999+99999999999ADDGP10060000002000000002000000002000GR100600000900009
0140727735999992000041921454+46670-113150FM-15+1202K3DU V0202601N003110180019N0321861N1+02101+00001999999ADDGD13991+0180019GF107991999999999999999999MW1001REMMET062K3DU 192145Z 26006KT 20SM BKN065 21/00 RMK NOSPECI T020260001;EQDQ01+000000PRSWM2
0181727735999992000042214474+46670-113150FM-15+1202K3DU V0209999C000010600019N0321861N1+00701+00201999999ADDGD12991+0150019GD23991+0600019GF107991999999999999999999MD1410001+9999MW1001REMMET074K3DU 221447Z 00000KT 20SM FEW055 BKN200 07/02 RMK NOSPECI T00710017 54000;EQDQ01+000000PRSWM2
0140727735999992000042521454+46670-113150FM-15+1202K3DU V0202401N003610180019N0321861N1+01101-00101999999ADDGD14991+0180019GF108991999999999999999999MW1001REMMET062K3DU 252145Z 24007KT 20SM OVC060 11/M01 RMK NOSPECI T01071010;EQDQ01+000000PRSWM2
0071727735999992000050123009+46633-113183NSRDB+121999999V020999999999999999999999999999+99999+99999999999ADDGP10060064202008069602015018202008GQ100600487924529GR100600887913459
0139727735999992000050321454+46670-113150FM-15+1202K3DU V0202801N007210180019N0321861N1+02001+00501999999ADDGD14991+0180019GF108991999999999999999999MW1001REMMET061K3DU 032145Z 28014KT 20SM OVC060 20/05 RMK NOSPECI T02010047;EQDQ01+000000PRSWM2
0054727735999992000050406009+46633-113183NSRDB+121999999V020999999999999999999999999999+99999+99999999999ADDGP10060000002000000002000000002000GR100600000900009
0139727735999992000050513454+46670-113150FM-15+1202K3DU V0209999C000010150019N0321861N1+00501+00001999999ADDGD14991+0150019GF108991999999999999999999MW1001REMMET061K3DU 051345Z 00000KT 20SM OVC055 05/00 RMK NOSPECI T00500003;EQDQ01+000000PRSWM2
0054727735999992000050805009+46633-113183NSRDB+121999999V020999999999999999999999999999+99999+99999999999ADDGP10060000002000000002000000002000GR100600000900009
0071727735999992000050813009+46633-113183NSRDB+121999999V020999999999999999999999999999+99999+99999999999ADDGP10060001702008014802015001002008GQ100600863906839GR100600074911519
0054727735999992000051509009+46633-113183NSRDB+121999999V020999999999999999999999999999+99999+99999999999ADDGP10060000002000000002000000002000GR100600000900009
0071727735999992000051620009+46633-113183NSRDB+121999999V020999999999999999999999999999+99999+99999999999ADDGP10060039302008002402015037202008GQ100600275918059GR100601184913369
0071727735999992000052321009+46633-113183NSRDB+121999999V020999999999999999999999999999+99999+99999999999ADDGP10060093402008092402015012402008GQ100600288921029GR100601167913329
0071727735999992000052518009+46633-113183NSRDB+121999999V020999999999999999999999999999+99999+99999999999ADDGP10060073402008057102015026802008GQ100600353912659GR100601085913319
0071727735999992000052603009+46633-113183NSRDB+121999999V020999999999999999999999999999+99999+99999999999ADDGP10060000002008000002015000002008GQ100600843929529GR100600132913319
0071727735999992000053013009+46633-113183NSRDB+121999999V020999999999999999999999999999+99999+99999999999ADDGP10060004602008014902015003002008GQ100600838906439GR100600144913299
0054727735999992000060108009+46633-113183NSRDB+121999999V020999999999999999999999999999+99999+99999999999ADDGP10060000002000000002000000002000GR100600000900009
0203727735999992000060516404+46670-113150FM-15+1202K3DU V0209999C000010300019N0321861N1+02101+00701999999ADDGD12991+0180019GD23991+0300019GD33991+0600019GF107991999999999999999999MD1710141+9999MW1001REMMET081K3DU 051740Z 00000KT 20SM SCT065 BKN100 BKN200 21/07 RMK NOSPECI T02070073 57014;EQDQ01+000000PRSWM2
0054727735999992000060907009+46633-113183NSRDB+121999999V020999999999999999999999999999+99999+99999999999ADDGP10060000002000000002000000002000GR100600000900009
0071727735999992000060913009+46633-113183NSRDB+121999999V020999999999999999999999999999+99999+99999999999ADDGP10060001002008000002015001002008GQ100600832906329GR100600156913259
0054727735999992000061205009+46633-113183NSRDB+121999999V020999999999999999999999999999+99999+99999999999ADDGP10060000002000000002000000002000GR100600000900009
0054727735999992000061211009+46633-113183NSRDB+121999999V020999999999999999999999999999+99999+99999999999ADDGP10060000002000000002000000002000GR100600000900009
0054727735999992000061706009+46633-113183NSRDB+121999999V020999999999999999999999999999+99999+99999999999ADDGP10060000002000000002000000002000GR100600000900009
0054727735999992000062311009+46633-113183NSRDB+121999999V020999999999999999999999999999+99999+99999999999ADDGP10060000002000000002000000002000GR100600000900009
0071727735999992000062418009+46633-113183NSRDB+121999999V020999999999999999999999999999+99999+99999999999ADDGP10060085302008089202015011502008GQ100600343912229GR100601091913229
0054727735999992000062611009+46633-113183NSRDB+121999999V020999999999999999999999999999+99999+99999999999ADDGP10060000002000000002000000002000GR100600000900009
0176727735999992000070117454+46670-113140FM-15+1202K3DU V0209999C000012200019N0321861N1+01901+01101999999ADDAA106002391GD12991+0180019GF102991999999999999999999MD1710071+9999MW1001REMMET073K3DU 011745Z 00000KT 20SM FEW065 19/11 RMK NOSPECI 60009 T01890108 57007;EQDQ01+000000PRSWM2
0054727735999992000070209009+46633-113183NSRDB+121999999V020999999999999999999999999999+99999+99999999999ADDGP10060000002000000002000000002000GR100600000900009
0071727735999992000070316009+46633-113183NSRDB+121999999V020999999999999999999999999999+99999+99999999999ADDGP10060013002008000002015013002008GQ100600544909369GR100600769913219
0071727735999992000070418009+46633-113183NSRDB+121999999V020999999999999999999999999999+99999+99999999999ADDGP10060079502008063002015027802008GQ100600350912239GR100601081913219
0139727735999992000070711424+46670-113140FM-15+1202K3DU V0209999C000012200019N0321861N1+00301+00001999999ADDGD12991+0300019GF104991999999999999999999MW1001REMMET061K3DU 071242Z 00000KT 20SM SCT100 03/00 RMK NOSPECI T00340002;EQDQ01+000000PRSWM2
0054727735999992000071208009+46633-113183NSRDB+121999999V020999999999999999999999999999+99999+99999999999ADDGP10060000002000000002000000002000GR100600000900009
0071727735999992000071821009+46633-113183NSRDB+121999999V020999999999999999999999999999+99999+99999999999ADDGP10060060102008019302015043102008GQ100600280920599GR100601168913239
0071727735999992000072814009+46633-113183NSRDB+121999999V020999999999999999999999999999+99999+99999999999ADDGP10060014502008044402015005202008GQ100600779907529GR100600278913259
0168727735999992000073123454+46670-113140FM-15+1202K3DU V0203401N002612200019N0321861N1+03701+00601999999ADDGD12991+0270019GF104991999999999999999999MD1710141+9999MW1001REMMET076K3DU 312345Z 34005KT 20SM SCT090 37/06 RMK FU ALQDS NOSPECI T03720059 57014;EQDQ01+000000PRSWM2
0071727735999992000080514009+46633-113183NSRDB+121999999V020999999999999999999999999999+99999+99999999999ADDGP10060012302008041202015004602008GQ100600792907689GR100600248913289
0071727735999992000080723009+46633-113183NSRDB+121999999V020999999999999999999999999999+99999+99999999999ADDGP10060071002008088502015010402008GQ100600468924379GR100600909913299
0071727735999992000081320009+46633-113183NSRDB+121999999V020999999999999999999999999999+99999+99999999999ADDGP10060068702008035402015038702008GQ100600325917679GR100601123913319
0071727735999992000082402009+46633-113183NSRDB+121999999V020999999999999999999999999999+99999+99999999999ADDGP10060009102008001002015009002008GQ100600810927679GR100600209913379
0071727735999992000082614009+46633-113183NSRDB+121999999V020999999999999999999999999999+99999+99999999999ADDGP10060003202008000402015003202008GQ100600832908229GR100600158913389
0054727735999992000082807009+46633-113183NSRDB+121999999V020999999999999999999999999999+99999+99999999999ADDGP10060000002000000002000000002000GR100600000900009
0179727735999992000090213454+46670-113140FM-15+1202K3DU V0209999C000012200019N0160931N1+00601+00301999999ADDGD12991+0001519GF102991999999999999999999MW1411REMMET085K3DU 021345Z 00000KT 10SM PRFG FEW000 06/03 RMK FG FEW000 MTNS OBSCD ALQDS T00630032;EQDQ01+000003PRSWM1Q02    003PRSWM1
0071727735999992000090314009+46633-113183NSRDB+121999999V020999999999999999999999999999+99999+99999999999ADDGP10060003202008010502015002202008GQ100600848908469GR100600121913449
0054727735999992000090505009+46633-113183NSRDB+121999999V020999999999999999999999999999+99999+99999999999ADDGP10060000002000000002000000002000GR100600000900009
0159727735999992000091112454+46670-113140FM-15+1202K3DU V0209999C000010120019N0193121N1+00801+00401999999ADDGD14991+0120019GF108991999999999999999999MW1611REMMET065K3DU 111245Z 00000KT 12SM -RA OVC040 08/04 RMK NOSPECI T00780044;EQDQ01+000003PRSWM1Q02    003PRSWM1
0054727735999992000091607009+46633-113183NSRDB+121999999V020999999999999999999999999999+99999+99999999999ADDGP10060000002000000002000000002000GR100600000900009
0054727735999992000091709009+46633-113183NSRDB+121999999V020999999999999999999999999999+99999+99999999999ADDGP10060000002000000002000000002000GR100600000900009
0071727735999992000091818009+46633-113183NSRDB+121999999V020999999999999999999999999999+99999+99999999999ADDGP10060035602008011202015028702008GQ100600518914189GR100600837913549
0071727735999992000091923009+46633-113183NSRDB+121999999V020999999999999999999999999999+99999+99999999999ADDGP10060016802008000002015016802008GQ100600606923559GR100600664913559
0054727735999992000092304009+46633-113183NSRDB+121999999V020999999999999999999999999999+99999+99999999999ADDGP10060000002000000002000000002000GR100600000900009
0071727735999992000092514009+46633-113183NSRDB+121999999V020999999999999999999999999999+99999+99999999999ADDGP10060000202008010002015000102008GQ100600873909419GR100600036907829
0139727735999992000092821434+46670-113140FM-15+1202K3DU V0209999C000010300019N0321861N1+02401+00501999999ADDGD13991+0300019GF107991999999999999999999MW1001REMMET061K3DU 282143Z 00000KT 20SM BKN100 24/05 RMK NOSPECI T02410051;EQDQ01+000000PRSWM2
0139727735999992000092921464+46670-113140FM-15+1202K3DU V0202401N010310180019N0321861N1+02201+00601999999ADDGD13991+0180019GF107991999999999999999999MW1001REMMET061K3DU 292146Z 24020KT 20SM BKN065 22/06 RMK NOSPECI T02270058;EQDQ01+000000PRSWM2
0071727735999992000093002009+46633-113183NSRDB+121999999V020999999999999999999999999999+99999+99999999999ADDGP10060000002008000002015000002008GQ100600889926519GR100600006903079
0121727735999992000100213454+46670-113140FM-15+1202K3DU V0202901N004112200019N0321861N1+00701+00401999999ADDGF100991999999999999999999MW1001REMMET058K3DU 021345Z 29008KT 20SM SKC 07/04 RMK NOSPECI T00680035;EQDQ01+000000PRSWM2
0071727735999992000100400009+46633-113183NSRDB+121999999V020999999999999999999999999999+99999+99999999999ADDGP10060020802008034002015011802008GQ100600746924609GR100600362913669
0071727735999992000100518009+46633-113183NSRDB+121999999V020999999999999999999999999999+99999+99999999999ADDGP10060055802008087802015008202008GQ100600573914669GR100600739913689
0054727735999992000101103009+46633-113183NSRDB+121999999V020999999999999999999999999999+99999+99999999999ADDGP10060000002000000002000000002000GR100600000900009
0054727735999992000101209009+46633-113183NSRDB+121999999V020999999999999999999999999999+99999+99999999999ADDGP10060000002000000002000000002000GR100600000900009
0071727735999992000101300009+46633-113183NSRDB+121999999V020999999999999999999999999999+99999+99999999999ADDGP10060010102008007902015008502008GQ100600777924439GR100600293913739
0071727735999992000101418009+46633-113183NSRDB+121999999V020999999999999999999999999999+99999+99999999999ADDGP10060009302008000002015009302008GQ100600602914879GR100600682913759
0071727735999992000101501009+46633-113183NSRDB+121999999V020999999999999999999999999999+99999+99999999999ADDGP10060000602008001102015000602008GQ100600866925409GR100600062910439
0071727735999992000101819009+46633-113183NSRDB+121999999V020999999999999999999999999999+99999+99999999999ADDGP10060055302009077502021013702009GQ100600577916619GR100600737913789
0071727735999992000101823009+46633-113183NSRDB+121999999V020999999999999999999999999999+99999+99999999999ADDGP10060005102009000002021005102009GQ100600710923079GR100600448913789
0054727735999992000102007009+46633-113183NSRDB+121999999V020999999999999999999999999999+99999+99999999999ADDGP10060000002000000002000000002000GR100600000900009
0054727735999992000102109009+46633-113183NSRDB+121999999V020999999999999999999999999999+99999+99999999999ADDGP10060000002000000002000000002000GR100600000900009
0071727735999992000102600009+46633-113183NSRDB+121999999V020999999999999999999999999999+99999+99999999999ADDGP10060006602009000002021006602009GQ100600816924189GR100600201913849
0071727735999992000110322009+46633-113183NSRDB+121999999V020999999999999999999999999999+99999+99999999999ADDGP10060020902009013402021016102009GQ100600689921469GR100600499913919
0054727735999992000110506009+46633-113183NSRDB+121999999V020999999999999999999999999999+99999+99999999999ADDGP10060000002000000002000000002000GR100600000900009
0054727735999992000111406009+46633-113183NSRDB+121999999V020999999999999999999999999999+99999+99999999999ADDGP10060000002000000002000000002000GR100600000900009
0054727735999992000111510009+46633-113183NSRDB+121999999V020999999999999999999999999999+99999+99999999999ADDGP10060000002000000002000000002000GR100600000900009
016572773599999200011211750D+46670-113140FM-15+1202K3DU V0209999C000012200019N0321861N1-01201-01401999999ADDAA101000095GD12991+0300019GF102991999999999999999999MD1410001+9999MW1001REMMET062K3DU 211750Z 00000KT 20SM FEW100 M12/M14 RMK T11151143 540000;EQDQ01+000000PRSWM2
0071727735999992000112200009+46633-113183NSRDB+121999999V020999999999999999999999999999+99999+99999999999ADDGP10060002002009025202021000802009GQ100600866923599GR100600071912049
0071727735999992000112515009+46633-113183NSRDB+121999999V020999999999999999999999999999+99999+99999999999ADDGP10060000002009000002021000002009GQ100600894912149GR100600002901999
0071727735999992000112521009+46633-113183NSRDB+121999999V020999999999999999999999999999+99999+99999999999ADDGP10060034702009084602021004902009GQ100600695919749GR100600493914049
0071727735999992000112823009+46633-113183NSRDB+121999999V020999999999999999999999999999+99999+99999999999ADDGP10060016902009055702021007502009GQ100600803922389GR100600236914069
0071727735999992000112900009+46633-113183NSRDB+121999999V020999999999999999999999999999+99999+99999999999ADDGP10060001302009020702021000602009GQ100600870923429GR100600057910909
0071727735999992000112922009+46633-113183NSRDB+121999999V020999999999999999999999999999+99999+99999999999ADDGP10060026502009048102021013302009GQ100600742921099GR100600382914069
0182727735999992000120214454+46670-113140FM-15+1202K3DU V0209999C00001000151CN0004021N1-01501-01701999999ADDGD15991+0001519GF109991999999000251999999MD1410001+9999MW1491REMMET074K3DU 021445Z 00000KT 1/4SM FZFG VV001 M15/M17 RMK NOSPECI T11531169 54000;EQDQ01+000003PRSWM1Q02    003PRSWM1
0054727735999992000120914009+46633-113183NSRDB+121999999V020999999999999999999999999999+99999+99999999999ADDGP10060000002000000002000000002000GR100600000900009
0054727735999992000121312009+46633-113183NSRDB+121999999V020999999999999999999999999999+99999+99999999999ADDGP10060000002000000002000000002000GR100600000900009
0054727735999992000122010009+46633-113183NSRDB+121999999V020999999999999999999999999999+99999+99999999999ADDGP10060000002000000002000000002000GR100600000900009
0071727735999992000122117009+46633-113183NSRDB+121999999V020999999999999999999999999999+99999+99999999999ADDGP10060012102009062002021002402009GQ100600811913889GR100600219914149
0071727735999992000122316009+46633-113183NSRDB+121999999V020999999999999999999999999999+99999+99999999999ADDGP10060000202009000002021000202009GQ100600873912869GR100600046910029
0054727735999992000122612009+46633-113183NSRDB+121999999V020999999999999999999999999999+99999+99999999999ADDGP10060000002000000002000000002000GR100600000900009
0161727735999992000123017454+46670-113140FM-15+1202K3DU V0209999C000010150019N0321861N1-00401-00701999999ADDGD14991+0150019GF108991999999999999999999MD1310071+9999MW1001REMMET069K3DU 301745Z 00000KT 20SM OVC055 M04/M07 RMK NOSPECI T10431072 53007;EQDQ01+000000PRSWM2
0432727750241432000010621003+47467-111383FM-15+1117GTF  V0202305N01185030485MN0160005N1+00395-00945102085ADDAA101000095GD14995+0304859GF108991999999999999999999GP10060010802009000002021010802009GQ100600713919439GR100600454914159MA1101695999999MD1610191+9999MW1001REMMET095KGTF 062056Z 23023KT 10SM OVC100 04/M09 A3003 RMK AO2 PK WND 23030/2003 SLP208 T00391094 56019;EQDQ01+000000PRSWM2N01 00000JPWTH 0QNNAA1D0 06100BA1 0 06100GA1 0 00100KA1D0 00015JA1 0-00094LA1 0 01000CA1 0 03003NA1 0 00000QA1 0 10208SA1D0 00039RA1 0 00039YA1 0 23023
0360727750241432000011313003+47467-111383FM-15+1117GTF  V0201805N00525220005MN0160005N1-00675-01505102645ADDAA101000095GF100991999999999999999999GP10060000002000000002000000002000GR100600000900009MA1102035999999MW1001REMMET069KGTF 131256Z 18010KT 10SM CLR M07/M15 A3013 RMK AO2 SLP264 T10671150;EQDQ01+000000PRSWM2N01 00000JPWTH 0QNNAA1D0 00000BA1 0 00000GA1U0 99999KA1D0 00005JA1 0-00150LA1 0 01000CA1 0 03013NA1 0 00000QA1 0 10264SA1D0 00020RA1 0-00067YA1 0 18010
0500727750241432000011422003+47467-111383FM-15+1117GTF  V0200705N00365027435MN0160005N1-01335-01615102215ADDAA101000095GD12995+0121959GD23995+0274359GD34995+0457259GF108991999999999999999999GP10060012302009001302021011902009GQ100600735920799GR100600400914149MA1101395999999MW1001REMMET103KGTF 142156Z 07007KT 10SM SCT040 BKN090 OVC150 M13/M16 A2994 RMK AO2 SLP221 MTNS OBSCD ALQDS T11331161;EQDQ01+000000PRSWM2N01 00000JPWTH 0QNNAA1D0 02040BA1 0 02040AA1D0 04090BA1 0 04090AA1D0 06150BA1 0 06150GA1 0 00090KA1D0 00003JA1 0-00161LA1 0 01000CA1 0 02994NA1 0 00000QA1 0 10221SA1D0 00008RA1 0-00133YA1 0 07007
0467727750241432000011717003+47467-111383FM-15+1117GTF  V0202505N01085220005MN0160005N1+00335-00785101955ADDAA101000095GD11995+0243859GD22995+0457259GF104991999999999999999999GP10060014202009069502021001902009GQ100600799913669GR100600247914149MA1101665999999MW1001OC101291REMMET099KGTF 171656Z 25021G25KT 10SM FEW080 SCT150 03/M08 A3002 RMK AO2 PK WND 23036/1634 SLP195 T00331078;EQDQ01+000000PRSWM2N01 00000JPWTH 0QNNAA1D0 02080BA1 0 01080AA1D0 02150BA1 0 02150GA1U0 99999KA1D0 00018JA1 0-00078LA1 0 01000CA1 0 03002NA1 0 00000QA1 0 10195SA1D0 00038RA1 0 00033YA1 0 25021
038572775024143200001181156C+47467-111383FM-15+1117GTF  V0202105N00575220005MN0160005N1-00445-01005102295ADDAA101000095GD11995+0609659GF102991999999999999999999KA1999M-00171KA2999N-00781MA1101835999999MD1810181+9999MW1001REMMET090KGTF 181156Z 21011KT 10SM FEW200 M04/M10 A3007 RMK AO2 SLP229 T10441100 11017 21078 58018;EQDQ01+000000PRSWM2N01 00000JPWTH 0QNNAA1D0 02200BA1 0 01200GA1U0 99999KA1D0 00014JA1 0-00100LA1 0 01000CA1 0 03007NA1 0 00000QA1 0 10229SA1D0 00024RA1 0-00044YA1 0 21011
0379727750241432000012003003+47467-111383FM-15+1117GTF  V0201205N00265220005MN0128005N1-01065-01225102685ADDAA101000095GF100991999999999999999999GP10060000002000000002000000002000GR100600000900009MA1101835999999MD1810141+9999MW1001REMMET074KGTF 200256Z 12005KT 8SM CLR M11/M12 A3007 RMK AO2 SLP268 T11061122 58014;EQDQ01+000000PRSWM2N01 00000JPWTH 0QNNAA1D0 00000BA1 0 00000GA1U0 99999KA1D0 00010JA1 0-00122LA1 0 00800CA1 0 03007NA1 0 00000QA1 0 10268SA1D0 00013RA1 0-00106YA1 0 12005
0196727750241432000012218194+47480-111370FM-16+1115KGTF V0200701N002110090019N0028161N1-00401-00701999999ADDGD14991+0090019GF108991999999999999999999MA1101521999999MW1711REMMET071KGTF 221819Z 07004KT 1 3/4SM -SN BR OVC030 M04/M07 A2998 RMK AO2 P0000;EQDQ01+000100PRSWM3Q02+000003PRSWM1Q03    003PRSWM1
039172775024143200001241756C+47467-111383FM-15+1117GTF  V0202805N00155015245MN0160005N1-00615-01115102675ADDAA101000095GD13995+0152459GF107991999999999999999999KA1999M-00611KA2999N-01001MA1102075999999MD1110171+9999MW1001REMMET096KGTF 241756Z 28003KT 10SM BKN050 M06/M11 A3014 RMK AO2 SLP267 6//// T10611111 11061 21100 51017;EQDQ01+000000PRSWM2N01 00000JPWTH 0QNNAA1D0 04050BA1 0 04050GA1 0 00050KA1D0 00012JA1 0-00111LA1 0 01000CA1 0 03014NA1 0 00000QA1 0 10267SA1D0 00021RA1 0-00061YA1 0 28003
0459727750241432000012421003+47467-111383FM-15+1117GTF  V0201105N00265220005MN0160005N1-00335-01005102545ADDAA101000095GD11995+0152459GD22995+0457259GF104991999999999999999999GP10060029502009038702021014802009GQ100600678919339GR100600534914129MA1101965999999MD1810071+9999MW1001REMMET085KGTF 242056Z 11005KT 10SM FEW050 SCT150 M03/M10 A3011 RMK AO2 SLP254 T10331100 58007;EQDQ01+000000PRSWM2N01 00000JPWTH 0QNNAA1D0 02050BA1 0 01050AA1D0 02150BA1 0 02150GA1U0 99999KA1D0 00014JA1 0-00100LA1 0 01000CA1 0 03011NA1 0 00000QA1 0 10254SA1D0 00026RA1 0-00033YA1 0 11005
0380727750241432000013109003+47467-111383FM-15+1117GTF  V0201705N00265220005MN0160005N1-00615-01225101735ADDAA101000095GF100991999999999999999999GP10060000002000000002000000002000GR100600000900009MA1101255999999MD1610061+9999MW1001REMMET075KGTF 310856Z 17005KT 10SM CLR M06/M12 A2990 RMK AO2 SLP173 T10611122 56006;EQDQ01+000000PRSWM2N01 00000JPWTH 0QNNAA1D0 00000BA1 0 00000GA1U0 99999KA1D0 00010JA1 0-00122LA1 0 01000CA1 0 02990NA1 0 00000QA1 0 10173SA1D0 00021RA1 0-00061YA1 0 17005
0266727750241432000013118003+47467-111383FM-15+1117GTF  V0202105N00885220005MN016000599+00115-01065101895ADDAA101000095GD10995+9999999GP10060027002009062502021006702009GQ100600711914759GR100600457914099MA1101355999999EQDN01 00000JPWTH 0QNNAA1D0 00000BA1 0 00000GA1U0 99999KA1D0 00013JA1 0-00106LA1 0 01000CA1 0 02993NA1 0 00000QA1 0 10189SA1D0 00034RA1 0 00011YA1 0 21017
0376727750241432000013120003+47467-111383FM-15+1117GTF  V0202305N00885220005MN0160005N1+00285-00835101835ADDAA101000095GF100991999999999999999999GP10060031402009034302021016902009GQ100600650917769GR100600596914099MA1101395999999MW1001REMMET068KGTF 311956Z 23017KT 10SM CLR 03/M08 A2994 RMK AO2 SLP183 T00281083;EQDQ01+000000PRSWM2N01 00000JPWTH 0QNNAA1D0 00000BA1 0 00000GA1U0 99999KA1D0 00017JA1 0-00083LA1 0 01000CA1 0 02994NA1 0 00000QA1 0 10183SA1D0 00037RA1 0 00028YA1 0 23017
0418727750241432000020706003+47467-111383FM-15+1117GTF  V0202305N00525220005MN0160005N1-00065-00285102875ADDAA101000095GF100991999999999999999999GP10060000002000000002000000002000GR100600000900009KA1999M+00611KA2999N-00111MA1102575999999MD1310041+9999MW1001REMMET087KGTF 070556Z 23010KT 10SM CLR M01/M03 A3029 RMK AO2 SLP287 T10061028 10061 21011 53004;EQDQ01+000000PRSWM2N01 00000JPWTH 0QNNAA1D0 00000BA1 0 00000GA1U0 99999KA1D0 00027JA1 0-00028LA1 0 01000CA1 0 03029NA1 0 00000QA1 0 10287SA1D0 00031RA1 0-00006YA1 0 23010
042872775024143200002072356C+47467-111383FM-15+1117GTF  V0202305N00885060965MN0160005N1+01005-00445102245ADDAA101000095GD12995+0365859GD24995+0609659GF108991999999999999999999KA1999M+01221KA2999N+01001MA1102035999999MD1610171+9999MW1001REMMET096KGTF 072356Z 23017KT 10SM SCT120 OVC200 10/M04 A3013 RMK AO2 SLP224 T01001044 10122 20100 56017;EQDQ01+000000PRSWM2N01 00000JPWTH 0QNNAA1D0 02120BA1 0 02120AA1D0 06200BA1 0 06200GA1 0 00200KA1D0 00024JA1 0-00044LA1 0 01000CA1 0 03013NA1 0 00000QA1 0 10224SA1D0 00050RA1 0 00100YA1 0 23017
0214727750241432000021106274+47480-111370FM-16+1115KGTF V0200901N003110072019N0096561N1-01401-01601999999ADDGD13991+0072019GD24991+0093019GF108991999999999999999999MA1101801999999MW1711REMMET074KGTF 110627Z 09006KT 6SM -SN BR BKN024 OVC031 M14/M16 A3006 RMK AO2 P0000;EQDQ01+000100PRSWM3Q02+000003PRSWM1Q03    003PRSWM1
0254727750241432000021305114+47480-111370FM-16+1115KGTF V0209999C000010024019N0024141N1-01201-01301999999ADDGD13991+0024019GD23991+0054019GD34991+0069019GF108991999999999999999999MA1100711999999MW1711REMMET099KGTF 130511Z 00000KT 1 1/2SM -SN BR BKN008 BKN018 OVC023 M12/M13 A2974 RMK AO2 SFC VIS 1 3/4 P0000;EQDQ01+000100PRSWM3Q02+000003PRSWM1Q03    003PRSWM1
0623727750241432000021306003+47467-111383FM-15+1117GTF  V0209999C00005008235MN0024005N1-01175-01285101435ADDAA101000025AA206000391GD11995+0045759GD23995+0082359GD34995+0112859GF108991999999999999999999GP10060000002000000002000000002000GR100600000900009KA1999M-01111KA2999N-01281MA1100685999999MD1810071+9999MW1101MW2455MW3715REMMET148KGTF 130556Z 00000KT 1 1/2SM -SN BR FEW015 BKN027 OVC037 M12/M13 A2973 RMK AO2 SFC VIS 2 SLP143 P0000 60003 P0000 60001 T11171128 11111 21128 58007;EQDQ01+000003PRSWM1Q02  00088PRCP06Q03    003PRSWM1N01 04070JPWTH 0QNNAA1D0 02015BA1 0 01015AA1D0 04027BA1 0 04027AA1D0 06037BA1 0 06037GA1 0 00027KA1D0 00009JA1 0-00128LA1 0 00150CA1 0 02973NA1 0 04070QA1 0 10143SA1D0 00011RA1 0-00117YA1 0 00000
0481727750241432000021313003+47467-111383FM-15+1117GTF  V0202105N00155060965MN0160005N1-01505-01675101325ADDAA101000095GD11995+0167659GD22995+0274359GD34995+0609659GF108991999999999999999999GP10060000002000000002000000002000GR100600000900009MA1100545999999MW1001REMMET101KGTF 131256Z 21003KT 10SM FEW055 SCT090 OVC200 M15/M17 A2969 RMK AO2 SLP132 FG BNK DSNT NE T11501167;EQDQ01+000000PRSWM2N01 00000JPWTH 0QNNAA1D0 02055BA1 0 01055AA1D0 02090BA1 0 02090AA1D0 06200BA1 0 06200GA1 0 00200KA1D0 00002JA1 0-00167LA1 0 01000CA1 0 02969NA1 0 00000QA1 0 10132SA1D0 00005RA1 0-00150YA1 0 21003
0206727750241432000021422394+47480-111370FM-16+1115KGTF V0200301N00361000151CN0008051N1-00901-01101999999ADDGD15991+0001519GF109991999999000251999999MA1099901999999MW1731REMMET081KGTF 142239Z 03007KT 1/2SM SN FZFG VV007 M09/M11 A2950 RMK AO2 TWR VIS 3/4 P0002;EQDQ01+000490PRSWM3Q02+000003PRSWM1Q03    003PRSWM1
0246727750241432000021502364+47480-111370FM-16+1115KGTF V0203301N001510111019N0032181N1-01201-01301999999ADDGD12991+0054019GD23991+0111019GD34991+0132019GF108991999999999999999999MA1100071999999MW1711REMMET091KGTF 150236Z 33003KT 2SM -SN BR FEW018 BKN037 OVC044 M12/M13 A2955 RMK AO2 SFC VIS 5 P0000;EQDQ01+000100PRSWM3Q02+000003PRSWM1Q03    003PRSWM1
0377727750241432000021723003+47467-111383FM-15+1117GTF  V0203605N00315220005MN0160005N1-01175-01395102475ADDAA101000095GF100991999999999999999999GP10060013702009001302021013202009GQ100600705922469GR100600467914019MA1101635999999MW1001REMMET069KGTF 172256Z 36006KT 10SM CLR M12/M14 A3001 RMK AO2 SLP247 T11171139;EQDQ01+000000PRSWM2N01 00000JPWTH 0QNNAA1D0 00000BA1 0 00000GA1U0 99999KA1D0 00007JA1 0-00139LA1 0 01000CA1 0 03001NA1 0 00000QA1 0 10247SA1D0 00011RA1 0-00117YA1 0 36006
0153727750241432000022116264+47480-111370FM-16+1115KGTF V0202101N008712200019N0040231N1+00501-00201999999ADDGF100991999999999999999999MA1100611999999MW1051REMMET059KGTF 211626Z 21017KT 2 1/2SM HZ CLR 05/M02 A2971 RMK AO2 $;EQDQ01+000003PRSWM1Q02    003PRSWM1
0559727750241432000022418003+47467-111383FM-15+1117GTF  V0203105N00525003665MN0032005N1+00005-00115100525ADDAA101000025AA206000021GD13995+0036659GD24995+0073259GF108991999999999999999999GP10060027702009019802021018902009GQ100600638914429GR100600616913969KA1999M+00061KA2999N-00111MA1100275999999MD1110041+9999MW1101MW2455MW3715REMMET120KGTF 241756Z 31010KT 2SM -SN BR BKN012 OVC024 00/M01 A2961 RMK AO2 SNB14 SLP052 P0000 60000 T00001011 10006 21011 51004;EQDQ01+000003PRSWM1Q02    003PRSWM1N01 04070JPWTH 0QNNAA1D0 04012BA1 0 04012AA1D0 06024BA1 0 06024GA1 0 00012KA1D0 00030JA1 0-00011LA1 0 00200CA1 0 02961NA1 0 04070QA1 0 10052SA1D0 00032RA1 0 00000YA1 0 31010
0516727750241432000022815003+47467-111383FM-15+1117GTF  V0202405N00825220005MN0160005N1+00395-00225100335ADDAA101000095GD11995+0152459GD22995+0365859GD32995+0426759GF104991999999999999999999GP10060002102009029202021000602009GQ100600863910609GR100600075911509MA1100175999999MD1110141+9999MW1001REMMET105KGTF 281456Z 24016KT 10SM FEW050 SCT120 SCT140 04/M02 A2958 RMK AO2 SLP033 ACSL DSNT E-S T00391022 51014;EQDQ01+000000PRSWM2N01 00000JPWTH 0QNNAA1D0 02050BA1 0 01050AA1D0 02120BA1 0 02120AA1D0 02140BA1 0 02140GA1U0 99999KA1D0 00028JA1 0-00022LA1 0 01000CA1 0 02958NA1 0 00000QA1 0 10033SA1D0 00039RA1 0 00039YA1 0 24016
0377727750241432000030314003+47467-111383FM-15+1117GTF  V0202305N00525220005MN0160005N1+00115-00395102025ADDAA101000095GD11995+0457259GF102991999999999999999999GP10060000002000000002000000002000GR100600000900009MA1101795999999MW1001REMMET071KGTF 031356Z 23010KT 10SM FEW150 01/M04 A3006 RMK AO2 SLP202 T00111039;EQDQ01+000000PRSWM2N01 00000JPWTH 0QNNAA1D0 02150BA1 0 01150GA1U0 99999KA1D0 00025JA1 0-00039LA1 0 01000CA1 0 03006NA1 0 00000QA1 0 10202SA1D0 00034RA1 0 00011YA1 0 23010
0666727750241432000030406596+47473-111382SOD  +1115KGTF V020999999999999999999999999999+99999+99999999999ADDAA124000095KA1240M+01445KA2240N-00055MG1088459999994OE11240147526015505OE22240125225016025OE33240072499999995REMSOD54524 HR PRECIPITATION (IN): 0.00 24 HR MAX TEMP (F): 5824 HR MAX TEMP TIME (LST):1548 24 HR MIN TEMP (F): 3124 HR MIN TEMP TIME (LST):0614 AVERAGE STATION PRESSURE:26.12  PEAK WIND SPEED (MPH): 33 PEAK WIND DIR (DEG):260 PEAK WIND TIME (LST):1550  FASTEST 2MIN SPEED (MPH): 28FASTEST 2MIN DIR (DEG):250 FASTEST 2MIN TIME (LST):1602 AVERAGE WIND SPEED (MPH):16.2 24 HR AVG TEMP (F):45 HOURLY INCREMENTAL PRECIPITATION VALUES (IN):.00  .00  .00  .00  .00  .00  .00  .00  .00  .00  .00  .00  .00  .00  .00  .00  .00  .00  .00  .00  .00  .00  .00  .00
0054727750241432000030506009+47467-111383NSRDB+111799999V020999999999999999999999999999+99999+99999999999ADDGP10060000002000000002000000002000GR100600000900009
0264727750241432000030615564+47480-111370FM-15+1115KGTF V0202701N003110030019N0032181N1-00301-00401101101ADDAA101000021GD12991+0018019GD23991+0030019GD34991+0111019GF108991999999999999999999MA1100681999999MW1101MW2711REMMET108KGTF 061556Z 27006KT 2SM -SN BR FEW006 BKN010 OVC037 M03/M04 A2973 RMK AO2 SFC VIS 3 SLP110 P0000 T10331039;EQDQ01+000003PRSWM1Q02    003PRSWM1
0147727750241432000030700034+47480-111370FM-16+1115KGTF V0200201N002610057019N0160931N1+00201-00201999999ADDGD14991+0057019GF108991999999999999999999MA1100471999999MW1001REMMET054KGTF 070003Z 02005KT 10SM OVC019 02/M02 A2967 RMK AO2;EQDQ01+000000PRSWM2
042972775024143200003092356C+47467-111383FM-15+1117GTF  V0201205N00155045725MN0160005N1-00115-00505101905ADDAA101000095GD12995+0091459GD23995+0457259GF107991999999999999999999KA1999M-00061KA2999N-00671MA1101395999999MD1310051+9999MW1001REMMET097KGTF 092356Z 12003KT 10SM SCT030 BKN150 M01/M05 A2994 RMK AO2 SLP190 T10111050 11006 21067 53005;EQDQ01+000000PRSWM2N01 00000JPWTH 0QNNAA1D0 02030BA1 0 02030AA1D0 04150BA1 0 04150GA1 0 00150KA1D0 00023JA1 0-00050LA1 0 01000CA1 0 02994NA1 0 00000QA1 0 10190SA1D0 00030RA1 0-00011YA1 0 12003
0476727750241432000031216003+47467-111383FM-15+1117GTF  V0202205N00465022865MN0160005N1+00115-00785102405ADDAA101000095GD12995+0121959GD23995+0228659GF107991999999999999999999GP10060015602009014702021011402009GQ100600734911409GR100600395913849MA1102075999999MW1001REMMET116KGTF 121556Z 22009KT 10SM SCT040 BKN075 01/M08 A3014 RMK AO2 SLP240 VIRGA ALQDS SHSN OBSCG MTNS DSNT E-SE T00111078;EQDQ01+000000PRSWM2N01 00000JPWTH 0QNNAA1D0 02040BA1 0 02040AA1D0 04075BA1 0 04075GA1 0 00075KA1D0 00018JA1 0-00078LA1 0 01000CA1 0 03014NA1 0 00000QA1 0 10240SA1D0 00034RA1 0 00011YA1 0 22009
0400727750241432000031309003+47467-111383FM-15+1117GTF  V0202505N00365220005MN0160005N1-00445-00785102025ADDAA101000095GD12995+0198159GF104991999999999999999999GP10060000002000000002000000002000GR100600000900009MA1101635999999MD1610041+9999MW1001REMMET080KGTF 130856Z 25007KT 10SM SCT065 M04/M08 A3001 RMK AO2 SLP202 T10441078 56004 $;EQDQ01+000000PRSWM2N01 00000JPWTH 0QNNAA1D0 02065BA1 0 02065GA1U0 99999KA1D0 00018JA1 0-00078LA1 0 01000CA1 0 03001NA1 0 00000QA1 0 10202SA1D0 00024RA1 0-00044YA1 0 25007
0360727750241432000031405003+47467-111383FM-15+1117GTF  V0202005N00315220005MN0160005N1-00225-00725101785ADDAA101000095GF100991999999999999999999GP10060000002000000002000000002000GR100600000900009MA1101425999999MW1001REMMET069KGTF 140456Z 20006KT 10SM CLR M02/M07 A2995 RMK AO2 SLP178 T10221072;EQDQ01+000000PRSWM2N01 00000JPWTH 0QNNAA1D0 00000BA1 0 00000GA1U0 99999KA1D0 00019JA1 0-00072LA1 0 01000CA1 0 02995NA1 0 00000QA1 0 10178SA1D0 00028RA1 0-00022YA1 0 20006
0376727750241432000031704003+47467-111383FM-15+1117GTF  V0202205N00725021345MN0160005N1+00445+00065101065ADDAA101000095GD14995+0213459GF108991999999999999999999GP10060000002000000002000000002000GR100600000900009MA1100815999999MW1001REMMET070KGTF 170356Z 22014KT 10SM OVC070 04/01 A2977 RMK AO2 SLP106 T00440006;EQDQ01+000000PRSWM2N01 00000JPWTH 0QNNAA1D0 06070BA1 0 06070GA1 0 00070KA1D0 00033JA1 0 00006LA1 0 01000CA1 0 02977NA1 0 00000QA1 0 10106SA1D0 00040RA1 0 00044YA1 0 22014
0394727750241432000032002003+47467-111383FM-15+1117GTF  V0202805N00315019815MN0160005N1+00175-00835101075ADDAA101000095GD14995+0198159GF108991999999999999999999GP10060000302008008602015000202008GQ100600872926719GR100600040908169MA1100785999999MW1001REMMET071KGTF 200156Z 28006KT 10SM OVC065 02/M08 A2976 RMK AO2 SLP107 T00171083;EQDQ01+000000PRSWM2N01 00000JPWTH 0QNNAA1D0 06065BA1 0 06065GA1 0 00065KA1D0 00017JA1 0-00083LA1 0 01000CA1 0 02976NA1 0 00000QA1 0 10107SA1D0 00035RA1 0 00017YA1 0 28006
038472775024143200004022356C+47467-111383FM-15+1117GTF  V0203505N00575019815MN0160005N1+00395-01115103125ADDAA101000095GD13995+0198159GF107991999999999999999999KA1999M+00561KA2999N+00061MA1102745999999MD1310021+9999MW1001REMMET089KGTF 022356Z 35011KT 10SM BKN065 04/M11 A3034 RMK AO2 SLP312 T00391111 10056 20006 53002;EQDQ01+000000PRSWM2N01 00000JPWTH 0QNNAA1D0 04065BA1 0 04065GA1 0 00065KA1D0 00012JA1 0-00111LA1 0 01000CA1 0 03034NA1 0 00000QA1 0 10312SA1D0 00039RA1 0 00039YA1 0 35011
0387727750241432000040320003+47467-111383FM-15+1117GTF  V0202305N00985220005MN0160005N1+01395-00115102005ADDAA101000095GF100991999999999999999999GP10060079402008093802015009502008GQ100600420918059GR100601016913679MA1101765999999MW1001OC101231REMMET071KGTF 031956Z 23019G24KT 10SM CLR 14/M01 A3005 RMK AO2 SLP200 T01391011;EQDQ01+000000PRSWM2N01 00000JPWTH 0QNNAA1D0 00000BA1 0 00000GA1U0 99999KA1D0 00030JA1 0-00011LA1 0 01000CA1 0 03005NA1 0 00000QA1 0 10200SA1D0 00057RA1 0 00139YA1 0 23019
0221727750241432000041105224+47480-111370FM-16+1115KGTF V0200501N005110069019N0080461N1+00101-00301999999ADDGD12991+0009019GD23991+0069019GD34991+0240019GF108991999999999999999999MA1102301999999MW1711REMMET082KGTF 110522Z 05010KT 5SM -SN FEW003 BKN023 OVC080 01/M03 A3021 RMK AO2 SB04 P0000;EQDQ01+000003PRSWM1Q02    003PRSWM1
0234727750241432000041315364+47480-111370FM-16+1115KGTF V0203501N007210033019N0040231N1-00201-00301999999ADDGD13991+0033019GD24991+0090019GF108991999999999999999999MA1101731999999MW1711REMMET094KGTF 131536Z 35014KT 2 1/2SM -SN BR BKN011 OVC030 M02/M03 A3004 RMK AO2 TWR VIS 3 SNB13 P0000;EQDQ01+000100PRSWM3Q02+000003PRSWM1Q03    003PRSWM1
0228727750241432000041415054+47480-111370FM-16+1115KGTF V0203301N002110081019N0040231N1-01101-01201999999ADDGD12991+0060019GD24991+0081019GF108991999999999999999999MA1101631999999MW1711REMMET088KGTF 141505Z 33004KT 2 1/2SM -SN BR SCT020 OVC027 M11/M12 A3001 RMK AO2 TWR VIS 3 P0000;EQDQ01+000100PRSWM3Q02+000003PRSWM1Q03    003PRSWM1
0424727750241432000041609003+47467-111383FM-15+1117GTF  V0209999C00005220005MN0016005N1-00285-00335101385ADDAA101000095GF100991999999999999999999GP10060000002000000002000000002000GR100600000900009MA1101155999999MD1010031+9999MW1101MW2455REMMET097KGTF 160856Z 00000KT 1SM BR CLR M03/M03 A2987 RMK AO2 TWR VIS 4 VIS 1/2V5 SLP138 T10281033 50003;EQDQ01+000003PRSWM1Q02    003PRSWM1N01 00070JPWTH 0QNNAA1D0 00000BA1 0 00000GA1U0 99999KA1D0 00026JA1 0-00033LA1 0 00100CA1 0 02987NA1 0 00070QA1 0 10138SA1D0 00027RA1 0-00028YA1 0 00000
038472775024143200004161156C+47467-111383FM-15+1117GTF  V0201705N00215220005MN0128005N1-00225-00285101405ADDAA101000095GD11995+0609659GF102991999999999999999999KA1999M+00281KA2999N-00331MA1101195999999MD1310031+9999MW1001REMMET089KGTF 161156Z 17004KT 8SM FEW200 M02/M03 A2988 RMK AO2 SLP140 T10221028 10028 21033 53003;EQDQ01+000000PRSWM2N01 00000JPWTH 0QNNAA1D0 02200BA1 0 01200GA1U0 99999KA1D0 00027JA1 0-00028LA1 0 00800CA1 0 02988NA1 0 00000QA1 0 10140SA1D0 00028RA1 0-00022YA1 0 17004
0393727750241432000041713003+47467-111383FM-15+1117GTF  V0202105N00725220005MN0160005N1+00725+00065101075ADDAA101000095GD11995+0457259GF102991999999999999999999GP10060000002008000002015000002008GQ100600881907599GR100600019905769MA1101055999999MW1001REMMET070KGTF 171256Z 21014KT 10SM FEW150 07/01 A2984 RMK AO2 SLP107 T00720006;EQDQ01+000000PRSWM2N01 00000JPWTH 0QNNAA1D0 02150BA1 0 01150GA1U0 99999KA1D0 00033JA1 0 00006LA1 0 01000CA1 0 02984NA1 0 00000QA1 0 10107SA1D0 00045RA1 0 00072YA1 0 21014
0413727750241432000041815003+47467-111383FM-15+1117GTF  V0201905N00315220005MN0160005N1+00675+00285101225ADDAA101000095GD12995+0243859GF104991999999999999999999GP10060029602008073402015005502008GQ100600708909459GR100600444913559MA1101155999999MD1810041+9999MW1001REMMET076KGTF 181456Z 19006KT 10SM SCT080 07/03 A2987 RMK AO2 SLP122 T00670028 58004;EQDQ01+000000PRSWM2N01 00000JPWTH 0QNNAA1D0 02080BA1 0 02080GA1U0 99999KA1D0 00037JA1 0 00028LA1 0 01000CA1 0 02987NA1 0 00000QA1 0 10122SA1D0 00044RA1 0 00067YA1 0 19006
0405727750241432000042501003+47467-111383FM-15+1117GTF  V0202505N00825220005MN0160005N1+01005-01335102005ADDAA101000095GD12995+0274359GF104991999999999999999999GP10060032702008074302015008802008GQ100600712926939GR100600434913509MA1101765999999MW1001OC101131REMMET074KGTF 250056Z 25016G22KT 10SM SCT090 10/M13 A3005 RMK AO2 SLP200 T01001133;EQDQ01+000000PRSWM2N01 00000JPWTH 0QNNAA1D0 02090BA1 0 02090GA1U0 99999KA1D0 00008JA1 0-00133LA1 0 01000CA1 0 03005NA1 0 00000QA1 0 10200SA1D0 00050RA1 0 00100YA1 0 25016
0359727750241432000050108003+47467-111383FM-15+1117GTF  V0209999V00155220005MN0160005N1+00835-00115101675ADDAA101000095GF100991999999999999999999GP10060000002000000002000000002000GR100600000900009MA1101765999999MW1001REMMET068KGTF 010756Z VRB03KT 10SM CLR 08/M01 A3005 RMK AO2 SLP167 T00831011;EQDQ01+000000PRSWM2N01 00000JPWTH 0QNNAA1D0 00000BA1 0 00000GA1U0 99999KA1D0 00030JA1 0-00011LA1 0 01000CA1 0 03005NA1 0 00000QA1 0 10167SA1D0 00047RA1 0 00083YA1 0 00003
0552727750241432000050621003+47467-111383FM-15+1117GTF  V0202205N00465220005MN0160005N1+01505-01115101055ADDAA101000095GD11995+0182959GD22995+0396259GD32995+0701059GF104991999999999999999999GP10060088402008088902015014502008GQ100600338921009GR100601114913429MA1101025999999MD1610131+9999MW1001OC100981REMMET133KGTF 062056Z COR 22009G19KT 190V260 10SM FEW060 SCT130 SCT230 15/M11 A2983 RMK AO2 SLP105 CLDS/SH OBSCG MTNS DSNT SE T01501111 56013;EQDQ01+000000PRSWM2N01 00000JPWTH 0QNNAA1D0 02060BA1 0 01060AA1D0 02130BA1 0 02130AA1D0 02230BA1 0 02230GA1U0 99999KA1D0 00012JA1 0-00111LA1 0 01000CA1 0 02983NA1 0 00000QA1 0 10105SA1D0 00059RA1 0 00150YA1 0 22009
0505727750241432000050921003+47467-111383FM-15+1117GTF  V0202505N00825027435MN0160005N1+01615+00005100185ADDAA101000025AA203000021GD11995+0198159GD23995+0274359GF107991999999999999999999GP10060047002008009702015038902008GQ100600331921069GR100601122913409MA1100175999999MD1810231+9999MW1001REMMET120KGTF 092056Z 25016KT 10SM FEW065 BKN090 16/00 A2958 RMK AO2 RAB45E53 SLP018 SHRA MOST QUADS P0000 60000 T01610000 58023;EQDQ01+000000PRSWM2N01 00000JPWTH 0QNNAA1D0 02065BA1 0 01065AA1D0 04090BA1 0 04090GA1 0 00090KA1D0 00032JA1 0 00000LA1 0 01000CA1 0 02958NA1 0 00000QA1 0 10018SA1D0 00061RA1 0 00161YA1 0 25016
0442727750241432000051104003+47467-111383FM-15+1117GTF  V0203205N00365011285MN0160005N1+00785-00065100041ADDAA101000025GD13995+0112859GD24995+0198159GF108991999999999999999999GP10060000002000000002000000002000GR100600000900009MA1100005999999MW1615REMMET094KGTF 110356Z 32007KT 10SM -RA BKN037 OVC065 08/M01 A2953 RMK AO2 RAB47 SLP004 P0000 T00781006;EQDQ01+000003PRSWM1Q02    003PRSWM1N01 00020JPWTH 0QNNAA1D0 04037BA1 0 04037AA1D0 06065BA1 0 06065GA1 0 00037KA1D0 00031JA1 0-00006LA1 0 01000CA1 0 02953NA1 0 00020SA1D0 00046RA1 0 00078YA1 0 32007
0430727750241432000051304003+47467-111383FM-15+1117GTF  V0201705N00415220005MN0160005N1+00505+00005102315ADDAA101000095GD11995+0182959GD22995+0304859GF104991999999999999999999GP10060000002000000002000000002000GR100600000900009MA1102035999999MW1001REMMET087KGTF 130356Z 17008KT 10SM FEW060 SCT100 05/00 A3013 RMK AO2 SLP231 VIRGA W-N T00500000;EQDQ01+000000PRSWM2N01 00000JPWTH 0QNNAA1D0 02060BA1 0 01060AA1D0 02100BA1 0 02100GA1U0 99999KA1D0 00032JA1 0 00000LA1 0 01000CA1 0 03013NA1 0 00000QA1 0 10231SA1D0 00041RA1 0 00050YA1 0 17008
0439727750241432000051422003+47467-111383FM-15+1117GTF  V0209999V00215033535MN0160005N1+01725+00175101285ADDAA101000095GD11995+0213459GD23995+0335359GF107991999999999999999999GP10060030502008001802015029102008GQ100600388923329GR100601042913379MA1101295999999MW1001REMMET079KGTF 142156Z VRB04KT 10SM FEW070 BKN110 17/02 A2991 RMK AO2 SLP128 T01720017 $;EQDQ01+000000PRSWM2N01 00000JPWTH 0QNNAA1D0 02070BA1 0 01070AA1D0 04110BA1 0 04110GA1 0 00110KA1D0 00035JA1 0 00017LA1 0 01000CA1 0 02991NA1 0 00000QA1 0 10128SA1D0 00063RA1 0 00172YA1 0 00004
0358727750241432000051805003+47467-111383FM-15+1117GTF  V0201505N00415220005MN0160005N1+01065+00335101555ADDAA101000095GF100991999999999999999999GP10060000002000000002000000002000GR100600000900009MA1101635999999MW1001REMMET067KGTF 180456Z 15008KT 10SM CLR 11/03 A3001 RMK AO2 SLP155 T01060033;EQDQ01+000000PRSWM2N01 00000JPWTH 0QNNAA1D0 00000BA1 0 00000GA1U0 99999KA1D0 00038JA1 0 00033LA1 0 01000CA1 0 03001NA1 0 00000QA1 0 10155SA1D0 00051RA1 0 00106YA1 0 15008
0465727750241432000052311003+47467-111383FM-15+1117GTF  V0202305N00365045725MN0160005N1+01115-00285100725ADDAA101000095GD12995+0259159GD23995+0457259GD33995+0609659GF107991999999999999999999GP10060000002000000002000000002000GR100600000900009MA1100955999999MW1001REMMET085KGTF 231056Z 23007KT 10SM SCT085 BKN150 BKN200 11/M03 A2981 RMK AO2 SLP072 T01111028;EQDQ01+000000PRSWM2N01 00000JPWTH 0QNNAA1D0 02085BA1 0 02085AA1D0 04150BA1 0 04150AA1D0 04200BA1 0 04200GA1 0 00150KA1D0 00027JA1 0-00028LA1 0 01000CA1 0 02981NA1 0 00000QA1 0 10072SA1D0 00052RA1 0 00111YA1 0 23007
0466727750241432000052719003+47467-111383FM-15+1117GTF  V0202605N01135076205MN0160005N1+02445+00285100695ADDAA101000095GD12995+0274359GD23995+0762059GF107991999999999999999999GP10060089002008076002015022002008GQ100600283915359GR100601171913309MA1100885999999MW1001OC101701REMMET098KGTF 271856Z 26022G33KT 10SM SCT090 BKN250 24/03 A2979 RMK AO2 PK WND 23033/1849 SLP069 T02440028;EQDQ01+000000PRSWM2N01 00000JPWTH 0QNNAA1D0 02090BA1 0 02090AA1D0 04250BA1 0 04250GA1 0 00250KA1D0 00037JA1 0 00028LA1 0 01000CA1 0 02979NA1 0 00000QA1 0 10069SA1D0 00076RA1 0 00244YA1 0 26022
0413727750241432000052815003+47467-111383FM-15+1117GTF  V0202305N00885220005MN0160005N1+01505+00005101065ADDAA101000095GF100991999999999999999999GP10060042502008077802015007302008GQ100600631908689GR100600602913309MA1101255999999MD1010061+9999MW1001REMMET091KGTF 281456Z 23017KT 10SM CLR 15/00 A2990 RMK AO2 PK WND 24026/1422 SLP106 T01500000 50006;EQDQ01+000000PRSWM2N01 00000JPWTH 0QNNAA1D0 00000BA1 0 00000GA1U0 99999KA1D0 00032JA1 0 00000LA1 0 01000CA1 0 02990NA1 0 00000QA1 0 10106SA1D0 00059RA1 0 00150YA1 0 23017
