0093717840999992000070413004+49340-123180SAO  +0178CWWA V0200901N002019999999N9999999N1+01101+01001999999ADDMW1001REMAWY075WWA SA 1300 AUTO8 M M M 168/11/10/0904/M/0002 PCPN 0.2MM PAST HR 3005 59MM;
0259717840999992000070718004+49340-123180SY-SA+0178CWWA V0202201N001019999999N9999999N1+01851+01191101771ADDAA124000091KA1120M+01871KA2240N+01211MA1999999099641MD1310031+9999MW1001REMSYN082AAXX  07184 71784 36/// /2202 10185 20119 39964 40177 53003 333 10187 20121 70000;AWY052WWA SA 1800 AUTO8 M M M 177/19/12/2202/M/ 3003 58MM;EQDQ01+000990PRSWM4Q02  00002PRCP24
0067717840999992000071416004+49340-123180SAO  +0178CWWA V0201801N001019999999N9999999N1+01601+01101999999ADDMW1001REMAWY049WWA SA 1600 AUTO8 M M M 241/16/11/1802/M/ M 38MM;
0259717840999992000072000004+49340-123180SY-SA+0178CWWA V0202901N001019999999N9999999N1+02241+01211102301ADDAA124000091KA1120M+02251KA2180N+01381MA1999999100171MD1810131+9999MW1001REMSYN082AAXX  20004 71784 36/// /2902 10224 20121 30017 40230 58013 333 10225 20138 70000;AWY052WWA SA 0000 AUTO8 M M M 230/22/12/2902/M/ 8013 41MM;EQDQ01+000990PRSWM4Q02  00002PRCP24
0070717840999992000072202004+49340-123180SAO  +0178CWWA V0203301N000519999999N9999999N1+02501+01801999999ADDMW1001REMAWY052WWA SA 0200 AUTO8 M M M 120/25/18/3301/M/ 6023 07MM;
0070717840999992000073023004+49340-123180SAO  +0178CWWA V0202201N001019999999N9999999N1+02401+01701999999ADDMW1001REMAWY052WWA SA 2300 AUTO8 M M M 170/24/17/2202/M/ 8013 27MM;
0070717840999992000080103004+49340-123180SAO  +0178CWWA V0203201N001519999999N9999999N1+02301+01701999999ADDMW1001REMAWY052WWA SA 0300 AUTO8 M M M 194/23/17/3203/M/ 3006 75MM;
0070717840999992000080113004+49340-123180SAO  +0178CWWA V0201101N000519999999N9999999N1+01501+01401999999ADDMW1001REMAWY052WWA SA 1300 AUTO8 M M M 230/15/14/1101/M/ 1010 17MM;
0070717840999992000080509004+49340-123180SAO  +0178CWWA V0203501N001019999999N9999999N1+01801+01401999999ADDMW1001REMAWY052WWA SA 0900 AUTO8 M M M 176/18/14/3502/M/ 1009 65MM;
0070717840999992000081105004+49340-123180SAO  +0178CWWA V0200801N002519999999N9999999N1+01501+01101999999ADDMW1001REMAWY052WWA SA 0500 AUTO8 M M M 176/15/11/0805/M/ 1011 40MM;
0070717840999992000081723004+49340-123180SAO  +0178CWWA V0202201N000519999999N9999999N1+01901+01201999999ADDMW1001REMAWY052WWA SA 2300 AUTO8 M M M 198/19/12/2201/M/ 8011 86MM;
0070717840999992000082405004+49340-123180SAO  +0178CWWA V0200301N001019999999N9999999N1+01901+01301999999ADDMW1001REMAWY052WWA SA 0500 AUTO8 M M M 152/19/13/0302/M/ 3013 80MM;
0070717840999992000090123004+49340-123180SAO  +0178CWWA V0201901N001019999999N9999999N1+01801+00801999999ADDMW1001REMAWY052WWA SA 2300 AUTO8 M M M 111/18/08/1902/M/ 8005 75MM;
0070717840999992000090307004+49340-123180SAO  +0178CWWA V0203601N003019999999N9999999N1+01101+00801999999ADDMW1001REMAWY052WWA SA 0700 AUTO8 M M M 167/11/08/3606/M/ 1010 67MM;
0270717840999992000090612004+49340-123180SY-SA+0178CWWA V0200701N001019999999N9999999N1+01231+01141102611ADDAA124000591AA299999999KA1999M+01541KA2120N+01201MA1999999100451MD1110071+9999MW1001REMSYN082AAXX  06124 71784 36/// /0702 10123 20114 30045 40261 51007 333 10154 20120 70006;AWY052WWA SA 1200 AUTO8 M M M 261/12/11/0702/M/ 1007 34MM;EQDQ01+000990PRSWM4Q02  99992PRCP99
0093717840999992000091011004+49340-123180SAO  +0178CWWA V0200901N001019999999N9999999N1+01101+01101999999ADDMW1001REMAWY075WWA SA 1100 AUTO8 M M M 093/11/11/0902/M/0090 PCPN 0.2MM PAST HR 5000 18MM;
0259717840999992000091118004+49340-123180SY-SA+0178CWWA V0201901N001019999999N9999999N1+01541+01021102091ADDAA124000091KA1120M+01541KA2240N+01061MA1999999099951MD1110041+9999MW1001REMSYN082AAXX  11184 71784 36/// /1902 10154 20102 39995 40209 51004 333 10154 20106 70000;AWY052WWA SA 1800 AUTO8 M M M 209/15/10/2303/M/ 1004 42MM;EQDQ01+000990PRSWM4Q02  00002PRCP24
0259717840999992000091212004+49340-123180SY-SA+0178CWWA V0203601N000519999999N9999999N1+01291+01081101791ADDAA124000091KA1999M+01961KA2120N+01291MA1999999099661MD1510021+9999MW1001REMSYN082AAXX  12124 71784 36/// /3601 10129 20108 39966 40179 55002 333 10196 20129 70000;AWY052WWA SA 1200 AUTO8 M M M 179/13/11/0101/M/ 5002 98MM;EQDQ01+000990PRSWM4Q02  00002PRCP24
0070717840999992000091401004+49340-123180SAO  +0178CWWA V0201101N000519999999N9999999N1+02101+01301999999ADDMW1001REMAWY052WWA SA 0100 AUTO8 M M M 181/21/13/1101/M/ 6018 72MM;
0070717840999992000091411004+49340-123180SAO  +0178CWWA V0209999C000019999999N9999999N1+01501+01201999999ADDMW1001REMAWY052WWA SA 1100 AUTO8 M M M 140/15/12/0000/M/ 6009 70MM;
0070717840999992000091716004+49340-123180SAO  +0178CWWA V0201001N002019999999N9999999N1+01601+01301999999ADDMW1001REMAWY052WWA SA 1600 AUTO8 M M M 243/16/13/1004/M/ 1015 50MM;
0070717840999992000092014004+49340-123180SAO  +0178CWWA V0201201N002019999999N9999999N1+01401+01301999999ADDMW1001REMAWY052WWA SA 1400 AUTO8 M M M 172/14/13/1204/M/ 6022 95MM;
0260717840999992000092200004+49340-123180SY-SA+0178CWWA V0200601N002619999999N9999999N1+01981-00141101381ADDAA124000091KA1120M+02181KA2180N+00871MA1999999099261MD1310041+9999MW1001REMSYN082AAXX  22004 71784 36/// /0605 10198 21014 39926 40138 53004 333 10218 20087 70000;AWY053WWA SA 0000 AUTO8 M M M 138/20/-01/0908/M/ 3004 84MM;EQDQ01+000990PRSWM4Q02  00002PRCP24
0259717840999992000092318004+49340-123180SY-SA+0178CWWA V0202101N001019999999N9999999N1+01391+00091102281ADDAA124000091KA1120M+01411KA2240N+00671MA1999999100131MD1110101+9999MW1001REMSYN082AAXX  23184 71784 36/// /2102 10139 20009 30013 40228 51010 333 10141 20067 70000;AWY052WWA SA 1800 AUTO8 M M M 228/14/01/2302/M/ 1010 99MM;EQDQ01+000990PRSWM4Q02  00002PRCP24
0070717840999992000092716004+49340-123180SAO  +0178CWWA V0209999C000019999999N9999999N1+01301+00801999999ADDMW1001REMAWY052WWA SA 1600 AUTO8 M M M 189/13/08/0000/M/ 3004 70MM;
0071717840999992000092807004+49340-123180SAO  +0178CWWA V0200301N001519999999N9999999N1+01301+00801999999ADDMW1001REMAWY053WWA SA 0700 AUTO8 M M M 186/13/08/0303/M/M M012 29MM;
0070717840999992000092822004+49340-123180SAO  +0178CWWA V0201201N000519999999N9999999N1+01701+01001999999ADDMW1001REMAWY052WWA SA 2200 AUTO8 M M M 203/17/10/1201/M/ 8008 13MM;
0270717840999992000100106004+49340-123180SY-SA+0178CWWA V0200101N002119999999N9999999N1+00811+00641101151ADDAA124003091AA299999999KA1240M+01701KA2240N+00801MA1999999099011MD1010011+9999MW1001REMSYN082AAXX  01064 71784 36/// /0104 10081 20064 39901 40115 50001 333 10170 20080 70030;AWY052WWA SA 0600 AUTO8 M M M 115/08/06/3605/M/ 0001 14MM;EQDQ01+000990PRSWM4Q02  99992PRCP99
0259717840999992000101300004+49340-123180SY-SA+0178CWWA V0201001N001519999999N9999999N1+01181+00911101921ADDAA124000091KA1120M+01691KA2180N+00701MA1999999099761MD1110031+9999MW1001REMSYN082AAXX  13004 71784 36/// /1003 10118 20091 39976 40192 51003 333 10169 20070 70000;AWY052WWA SA 0000 AUTO8 M M M 192/12/09/1002/M/ 1003 80MM;EQDQ01+000990PRSWM4Q02  00002PRCP24
0070717840999992000101505004+49340-123180SAO  +0178CWWA V0203601N003019999999N9999999N1+00701+00501999999ADDMW1001REMAWY052WWA SA 0500 AUTO8 M M M 225/07/05/3606/M/ 6005 81MM;
0070717840999992000101904004+49340-123180SAO  +0178CWWA V0200201N001519999999N9999999N1+00801+00701999999ADDMW1001REMAWY052WWA SA 0400 AUTO8 M M M 204/08/07/0203/M/ 3005 19MM;
0070717840999992000102408004+49340-123180SAO  +0178CWWA V0200101N001019999999N9999999N1+00801+00601999999ADDMW1001REMAWY052WWA SA 0800 AUTO8 M M M 180/08/06/0102/M/ 4000 49MM;
0070717840999992000102420004+49340-123180SAO  +0178CWWA V0201201N000519999999N9999999N1+01201+00901999999ADDMW1001REMAWY052WWA SA 2000 AUTO8 M M M 178/12/09/1201/M/ 6003 91MM;
0075717840999992000102817004+49340-123180SAO  +0178CWWA V0200801N003019999999N9999999N1+00801+00701999999ADDMW1001REMAWY057WWA SA 1700 AUTO8 M M M 988/08/07/0806/M/0280< 1020 59MM;
0070717840999992000103011004+49340-123180SAO  +0178CWWA V0209999C000019999999N9999999N1+00701+00601999999ADDMW1001REMAWY052WWA SA 1100 AUTO8 M M M 192/07/06/0000/M/ 1007 12MM;
0070717840999992000103020004+49340-123180SAO  +0178CWWA V0203401N001019999999N9999999N1+01001+00701999999ADDMW1001REMAWY052WWA SA 2000 AUTO8 M M M 228/10/07/3402/M/ 1005 21MM;
0099717840999992000103117004+49340-123180SAO  +0178CWWA V0200901N002019999999N9999999N1+00701+00701999999ADDMW1001REMAWY081WWA SA 1700 AUTO8 M M M 230/07/07/0904/M/0128<PCPN 4.8MM PAST HR /R13/ 0001 07MM;
0093717840999992000110403004+49340-123180SAO  +0178CWWA V0200901N002019999999N9999999N1+00901+00801999999ADDMW1001REMAWY075WWA SA 0300 AUTO8 M M M 182/09/08/0904/M/0014 PCPN 0.4MM PAST HR 8030 78MM;
0093717840999992000110601004+49340-123180SAO  +0178CWWA V0200301N001019999999N9999999N1+00701+00601999999ADDMW1001REMAWY075WWA SA 0100 AUTO8 M M M 168/07/06/0302/M/0004 PCPN 0.4MM PAST HR 3004 58MM;
0070717840999992000111322004+49340-123180SAO  +0178CWWA V0209999C000019999999N9999999N1+00701+00401999999ADDMW1001REMAWY052WWA SA 2200 AUTO8 M M M 205/07/04/0000/M/ 8014 57MM;
0259717840999992000112118004+49340-123180SY-SA+0178CWWA V0201901N000519999999N9999999N1+00901+00411102351ADDAA124000091KA1120M+00911KA2240N+00311MA1999999100171MD1110141+9999MW1001REMSYN082AAXX  21184 71784 36/// /1901 10090 20041 30017 40235 51014 333 10091 20031 70000;AWY052WWA SA 1800 AUTO8 M M M 235/09/04/2002/M/ 1014 00MM;EQDQ01+000990PRSWM4Q02  00002PRCP24
0074717840999992000112522004+49340-123180SAO  +0178CWWA V0200601N001519999999N9999999N1+00601+00401999999ADDMW1001REMAWY056WWA SA 2200 AUTO8 M M M 156/06/04/0603/M/0018 6009 69MM;
0286717840999992000112706004+49340-123180SY-SA+0178CWWA V0203601N001519999999N9999999N1+00481+00471101391ADDAA106001091AA299999999KA1240M+00651KA2240N+00471MA1999999099231MD1310111+9999MW1001REMSYN094AAXX  27064 71784 1//// /3603 10048 20047 39923 40139 53011 60011 7//4/ 333 10065 20047 70430;AWY056WWA SA 0600 AUTO8 M M M 139/05/05/0103/M/0010 3011 87MM;EQDQ01+000990PRSWM4Q02  99992PRCP99
0071717840999992000112907004+49340-123180SAO  +0178CWWA V0203001N001019999999N9999999N1+00301+00001999999ADDMW1001REMAWY053WWA SA 0700 AUTO8 M M M 107/03/00/3002/M/ 8026 4-3MM;
0071717840999992000120511004+49340-123180SAO  +0178CWWA V0209999C000019999999N9999999N1+00101-00101999999ADDMW1001REMAWY053WWA SA 1100 AUTO8 M M M 322/01/-01/0000/M/ 1006 39MM;
0071717840999992000120908004+49340-123180SAO  +0178CWWA V0200101N002019999999N9999999N1+00001+00001999999ADDMW1001REMAWY053WWA SA 0800 AUTO8 M M M 125/00/00/0104/M/ 8006 4-1MM;
0071717840999992000121010004+49340-123180SAO  +0178CWWA V0200101N001519999999N9999999N1+00001-00201999999ADDMW1001REMAWY053WWA SA 1000 AUTO8 M M M 190/00/-02/0103/M/ 8005 16MM;
0072717840999992000121404004+49340-123180SAO  +0178CWWA V0200601N000519999999N9999999N1-00201-00601999999ADDMW1001REMAWY054WWA SA 0400 AUTO8 M M M 080/-02/-06/0601/M/ 3003 40MM;
0072717840999992000122010004+49340-123180SAO  +0178CWWA V0203501N000519999999N9999999N1-00101-00301999999ADDMW1001REMAWY054WWA SA 1000 AUTO8 M M M 265/-01/-03/3501/M/ 3007 45MM;
0198717840999992000122406004+49340-123180SY-SA+0178CWWA V0200601N001019999999N9999999N1+00451+00401101931ADDAA199999999MA1999999099761MW1001REMSYN060AAXX  24064 71784 46/// /0602 10045 20040 39976 40193 5/017;AWY053WWA SA 0600 AUTO8 M M M 193/05/04/0502/M/M M017 59MM;EQDQ01+000990PRSWM4Q02  99992PRCP99
0259717840999992000122918004+49340-123180SY-SA+0178CWWA V0209999C000019999999N9999999N1+00301+00091102381ADDAA124000091KA1120M+00441KA2240N+00131MA1999999100191MD1510011+9999MW1001REMSYN082AAXX  29184 71784 36/// /0000 10030 20009 30019 40238 55001 333 10044 20013 70000;AWY052WWA SA 1800 AUTO8 M M M 238/03/01/0000/M/ 5001 09MM;EQDQ01+000990PRSWM4Q02  00002PRCP24
0070717840999992000123021004+49340-123180SAO  +0178CWWA V0202201N000519999999N9999999N1+00701+00501999999ADDMW1001REMAWY052WWA SA 2100 AUTO8 M M M 234/07/05/2201/M/ 8010 96MM;
0260717850999992000010300004+49020-122780SY-SA+0015CWWK V0202801N002119999999N9999999N1+00431-00071101981ADDAA106000091KA1120M+00611KA2180N+00231MA1999999101821MD1310311+9999MW1001REMSYN082AAXX  03004 71785 36/// /2804 10043 21007 30182 40198 53031 333 10061 20023 70002;AWY053WWK SA 0000 AUTO8 M M M 198/04/-01/2804/M/ 3031 38MM;EQDQ01+000990PRSWM4Q02  00002PRCP06
0093717850999992000010320004+49020-122780SAO  +0015CWWK V0200401N001519999999N9999999N1+00101+00101999999ADDMW1001REMAWY075WWK SA 2000 AUTO8 M M M 244/01/01/0403/M/0022 PCPN 1.2MM PAST HR 8015 00MM;
0093717850999992000010322004+49020-122780SAO  +0015CWWK V0200501N002519999999N9999999N1+00101+00101999999ADDMW1001REMAWY075WWK SA 2200 AUTO8 M M M 226/01/01/0505/M/0042 PCPN 1.0MM PAST HR 6028 99MM;
0103717850999992000010410004+49020-122780SAO  +0015CWWK V0201501N006619999999N9999999N1+00801+00701999999ADDMW1001OC101591REMAWY077WWK SA 1000 AUTO8 M M M 087/08/07/1513+31/M/0056 PK WND 1831 0956Z 5024 31MM;
0070717850999992000010505004+49020-122780SAO  +0015CWWK V0201801N000519999999N9999999N1+00501+00501999999ADDMW1001REMAWY052WWK SA 0500 AUTO8 M M M 237/05/05/1801/M/ 1023 40MM;
0100717850999992000010518004+49020-122780SAO  +0015CWWK V0202801N000519999999N9999999N1+00601+00401999999ADDAA199000091MW1001REMAWY052WWK SA 1800 AUTO8 M M M 332/06/04/2801/M/ 3025 35MM;EQDQ01  00002PRCP99
0093717850999992000010622004+49020-122780SAO  +0015CWWK V0200301N002019999999N9999999N1+00401+00401999999ADDMW1001REMAWY075WWK SA 2200 AUTO8 M M M 239/04/04/0304/M/0054 PCPN 1.4MM PAST HR 6019 55MM;
0071717850999992000010923004+49020-122780SAO  +0015CWWK V0202601N002519999999N9999999N1+00801-00101999999ADDMW1001REMAWY053WWK SA 2300 AUTO8 M M M 092/08/-01/2605/M/ 3016 58MM;
0093717850999992000011103004+49020-122780SAO  +0015CWWK V0200601N001019999999N9999999N1+00201+00201999999ADDMW1001REMAWY075WWK SA 0300 AUTO8 M M M 022/02/02/0602/M/0006 PCPN 0.2MM PAST HR 6016 00MM;
0324717850999992000011106004+49020-122780SY-SA+0015CWWK V0200901N000519999999N9999999N1+00121+00121100161ADDAA106001091AA224001891AA399999999KA1240M+00491KA2240N+00101MA1999999100001MD1610061+9999MW1001OA132400881REMSYN110AAXX  11064 71785 1//// /0901 10012 20012 30000 40016 56006 60011 7//4/ 333 10049 20010 70018 555 31717 4014/;AWY056WWK SA 0600 AUTO8 M M M 016/01/01/0802/M/0014 6006 22MM;EQDQ01+000990PRSWM4Q02  99992PRCP99
0070717850999992000011223004+49020-122780SAO  +0015CWWK V0201301N002519999999N9999999N1+00401+00201999999ADDMW1001REMAWY052WWK SA 2300 AUTO8 M M M 151/04/02/1305/M/ 1003 33MM;
0263717850999992000011900004+49020-122780SY-SA+001599999V0202601N00051999999WN9999999N1+00511+00351102421ADDAA124000091KA1120M+00651KA2180N-00101MA1999999102261MD1310021+9999MW1001REMSYN086    AAXX  19004 71785 36/// /2601 10051 20035 30226 40242 53002 333 10065 21010 70000;AWY052WWK SA 0000 AUTO8 M M M 242/05/03/2501/M/ 3002 14MM;EQDQ01+000990PRSWM4Q02  00002PRCP24
0070717850999992000012720004+49020-122780SAO  +0015CWWK V0201601N001519999999N9999999N1+00601+00501999999ADDMW1001REMAWY052WWK SA 2000 AUTO8 M M M 350/06/05/1603/M/ 0004 40MM;
0074717850999992000020905004+49020-122780SAO  +0015CWWK V0202501N000519999999N9999999N1+00701+00601999999ADDMW1001REMAWY056WWK SA 0500 AUTO8 M M M 159/07/06/2501/M/0086 1041 51MM;
0072717850999992000021015004+49020-122780SAO  +0015CWWK V0200301N001519999999N9999999N1+00001-00101999999ADDMW1001REMAWY054WWK SA 1500 AUTO8 M M M 171/00/-01/0303/M/ 6005 -45MM;
0093717850999992000022305004+49020-122780SAO  +0015CWWK V0201501N004619999999N9999999N1+00601+00601999999ADDMW1001REMAWY075WWK SA 0500 AUTO8 M M M 084/06/06/1509/M/0088 PCPN 1.2MM PAST HR 1020 44MM;
0260717850999992000030806004+49020-122780SY-SA+0015CWWK V0200501N000519999999N9999999N1+00731-00021101371ADDAA124000091KA1240M+01271KA2240N+00081MA1999999101211MD1310081+9999MW1001REMSYN082AAXX  08064 71785 36/// /0501 10073 21002 30121 40137 53008 333 10127 20008 70000;AWY053WWK SA 0600 AUTO8 M M M 137/07/00/0601/M/ 3008 3-3MM;EQDQ01+000990PRSWM4Q02  00002PRCP24
0070717850999992000031314004+49020-122780SAO  +0015CWWK V0200401N001519999999N9999999N1+00601+00501999999ADDMW1001REMAWY052WWK SA 1400 AUTO8 M M M 220/06/05/0403/M/ 6009 86MM;
0070717850999992000031508004+49020-122780SAO  +0015CWWK V0200901N001519999999N9999999N1+00401+00401999999ADDMW1001REMAWY052WWK SA 0800 AUTO8 M M M 257/04/04/0903/M/ 3011 09MM;
0259717850999992000031518004+49020-122780SY-SA+0015CWWK V0200901N000519999999N9999999N1+00801+00501102411ADDAA124000091KA1120M+00801KA2240N+00331MA1999999102251MD1610161+9999MW1001REMSYN082AAXX  15184 71785 36/// /0901 10080 20050 30225 40241 56016 333 10080 20033 70000;AWY052WWK SA 1800 AUTO8 M M M 241/08/05/1101/M/ 6016 00MM;EQDQ01+000990PRSWM4Q02  00002PRCP24
0093717850999992000032110004+49020-122780SAO  +0015CWWK V0200201N001519999999N9999999N1+00601+00601999999ADDMW1001REMAWY075WWK SA 1000 AUTO8 M M M 264/06/06/0203/M/0006 PCPN 0.4MM PAST HR 5006 66MM;
0070717850999992000032410004+49020-122780SAO  +0015CWWK V0200501N001019999999N9999999N1+00501+00501999999ADDMW1001REMAWY052WWK SA 1000 AUTO8 M M M 230/05/05/0502/M/ 8001 06MM;
0070717850999992000040801004+49020-122780SAO  +0015CWWK V0202601N002519999999N9999999N1+01201+00601999999ADDMW1001REMAWY052WWK SA 0100 AUTO8 M M M 290/12/06/2605/M/ 6018 21MM;
0070717850999992000041020004+49020-122780SAO  +0015CWWK V0202601N003619999999N9999999N1+01301+00901999999ADDMW1001REMAWY052WWK SA 2000 AUTO8 M M M 249/13/09/2607/M/ 8005 43MM;
0070717850999992000041122004+49020-122780SAO  +0015CWWK V0202401N001019999999N9999999N1+01501+01201999999ADDMW1001REMAWY052WWK SA 2200 AUTO8 M M M 193/15/12/2402/M/ 6014 20MM;
0093717850999992000041401004+49020-122780SAO  +0015CWWK V0201601N002519999999N9999999N1+01201+01201999999ADDMW1001REMAWY075WWK SA 0100 AUTO8 M M M 062/12/12/1605/M/0002 PCPN 0.2MM PAST HR 6015 43MM;
0270717850999992000042006004+49020-122780SY-SA+0015CWWK V0203201N002119999999N9999999N1+01091+00711102391ADDAA124000391AA299999999KA1240M+01421KA2240N+00831MA1999999102231MD1110101+9999MW1001REMSYN082AAXX  20064 71785 36/// /3204 10109 20071 30223 40239 51010 333 10142 20083 70002;AWY052WWK SA 0600 AUTO8 M M M 239/11/07/3204/M/ 1010 90MM;EQDQ01+000990PRSWM4Q02  99992PRCP99
0270717850999992000042600004+49020-122780SY-SA+0015CWWK V0202201N001019999999N9999999N1+01151+00891102041ADDAA124002891AA299999999KA1120M+01321KA2180N+00681MA1999999101881MD1310191+9999MW1001REMSYN082AAXX  26004 71785 36/// /2202 10115 20089 30188 40204 53019 333 10132 20068 70028;AWY052WWK SA 0000 AUTO8 M M M 204/12/09/2303/M/ 3019 59MM;EQDQ01+000990PRSWM4Q02  99992PRCP99
0070717850999992000042614004+49020-122780SAO  +0015CWWK V0200501N001519999999N9999999N1+00801+00701999999ADDMW1001REMAWY052WWK SA 1400 AUTO8 M M M 267/08/07/0503/M/ 6003 01MM;
0070717850999992000043021004+49020-122780SAO  +0015CWWK V0202401N000519999999N9999999N1+01301+00901999999ADDMW1001REMAWY052WWK SA 2100 AUTO8 M M M 212/13/09/2401/M/ 6010 30MM;
0093717850999992000050413004+49020-122780SAO  +0015CWWK V0201501N003019999999N9999999N1+00801+00801999999ADDMW1001REMAWY075WWK SA 1300 AUTO8 M M M 154/08/08/1506/M/0012 PCPN 1.2MM PAST HR 6002 99MM;
0070717850999992000050701004+49020-122780SAO  +0015CWWK V0202401N001019999999N9999999N1+01201+00601999999ADDMW1001REMAWY052WWK SA 0100 AUTO8 M M M 183/12/06/2402/M/ 6005 26MM;
0070717850999992000050822004+49020-122780SAO  +0015CWWK V0201701N001519999999N9999999N1+01501+00801999999ADDMW1001REMAWY052WWK SA 2200 AUTO8 M M M 148/15/08/1703/M/ 8001 49MM;
0093717850999992000050922004+49020-122780SAO  +0015CWWK V0201701N002019999999N9999999N1+00901+00801999999ADDMW1001REMAWY075WWK SA 2200 AUTO8 M M M 056/09/08/1704/M/0006 PCPN 0.6MM PAST HR 6005 52MM;
0070717850999992000051221004+49020-122780SAO  +0015CWWK V0202501N001519999999N9999999N1+01201+00601999999ADDMW1001REMAWY052WWK SA 2100 AUTO8 M M M 252/12/06/2503/M/ 8009 31MM;
0234717850999992000051818004+49020-122780SY-SA+0015CWWK V0201801N001019999999N9999999N1+01611+01191102501ADDAA199000091KA1999M+01631MA1999999102341MD1810071+9999MW1001REMSYN070AAXX  18184 71785 36/// /1802 10161 20119 30234 40250 58007 333 10163;AWY052WWK SA 1800 AUTO8 M M M 250/16/12/1904/M/ 8007 19MM;EQDQ01+000990PRSWM4Q02  00002PRCP99
0093717850999992000060522004+49020-122780SAO  +0015CWWK V0201001N001019999999N9999999N1+01501+01401999999ADDMW1001REMAWY075WWK SA 2200 AUTO8 M M M 155/15/14/1002/M/0014 PCPN 1.0MM PAST HR 1006 72MM;
0093717850999992000060603004+49020-122780SAO  +0015CWWK V0201101N000519999999N9999999N1+01301+01301999999ADDMW1001REMAWY075WWK SA 0300 AUTO8 M M M 164/13/13/1101/M/0004 PCPN 0.2MM PAST HR 1007 44MM;
0270717850999992000060906004+49020-122780SY-SA+0015CWWK V0201401N002619999999N9999999N1+01231+00991101061ADDAA124001091AA299999999KA1240M+01911KA2240N+01081MA1999999100901MD1310081+9999MW1001REMSYN082AAXX  09064 71785 36/// /1405 10123 20099 30090 40106 53008 333 10191 20108 70010;AWY052WWK SA 0600 AUTO8 M M M 106/12/10/1405/M/ 3008 39MM;EQDQ01+000990PRSWM4Q02  99992PRCP99
0093717850999992000061005004+49020-122780SAO  +0015CWWK V0201401N001019999999N9999999N1+01201+01201999999ADDMW1001REMAWY075WWK SA 0500 AUTO8 M M M 115/12/12/1402/M/0018 PCPN 0.8MM PAST HR 3013 77MM;
0070717850999992000062509004+49190-122770SAO  +0015CWWK V0200901N000519999999N9999999N1+01201+01201999999ADDMW1001REMAWY052WWK SA 0900 AUTO8 M M M 259/12/12/0901/M/ 3006 05MM;
0259717850999992000080512004+49010-122770SY-SA+0015CWWK V0200701N000519999999N9999999N1+01561+01471101801ADDAA124000091KA1999M+02481KA2120N+01561MA1999999101641MD1110101+9999MW1001REMSYN082AAXX  05124 71785 36/// /0701 10156 20147 30164 40180 51010 333 10248 20156 70000;AWY052WWK SA 1200 AUTO8 M M M 180/16/15/0000/M/ 1010 66MM;EQDQ01+000990PRSWM4Q02  00002PRCP24
0070717850999992000081211004+49010-122770SAO  +0015CWWK V0200101N000519999999N9999999N1+01001+01001999999ADDMW1001REMAWY052WWK SA 1100 AUTO8 M M M 209/10/10/0101/M/ 6004 00MM;
0070717850999992000081413004+49010-122770SAO  +0015CWWK V0200701N001519999999N9999999N1+01201+01101999999ADDMW1001REMAWY052WWK SA 1300 AUTO8 M M M 212/12/11/0703/M/ 1012 54MM;
0070717850999992000081716004+49010-122770SAO  +0015CWWK V0201601N001519999999N9999999N1+01601+01301999999ADDMW1001REMAWY052WWK SA 1600 AUTO8 M M M 213/16/13/1603/M/ 1004 29MM;
0074717850999992000090311004+49010-122770SAO  +0015CWWK V0200201N001019999999N9999999N1+01301+01301999999ADDMW1001REMAWY056WWK SA 1100 AUTO8 M M M 176/13/13/0202/M/0004 3007 77MM;
0093717850999992000090722004+49010-122770SAO  +0015CWWK V0201701N000519999999N9999999N1+01401+01401999999ADDMW1001REMAWY075WWK SA 2200 AUTO8 M M M 130/14/14/1701/M/0038 PCPN 0.6MM PAST HR 6021 33MM;
0070717850999992000091823004+49010-122770SAO  +0015CWWK V0201501N001019999999N9999999N1+01801+01701999999ADDMW1001REMAWY052WWK SA 2300 AUTO8 M M M 219/18/17/1502/M/ 6005 29MM;
0070717850999992000100104004+49010-122770SAO  +0015CWWK V0200201N000519999999N9999999N1+01201+01201999999ADDMW1001REMAWY052WWK SA 0400 AUTO8 M M M 107/12/12/0201/M/ 6001 87MM;
0070717850999992000100115004+49010-122770SAO  +0015CWWK V0202801N001019999999N9999999N1+01101+01001999999ADDMW1001REMAWY052WWK SA 1500 AUTO8 M M M 135/11/10/2802/M/ 3018 93MM;
0070717850999992000100220004+49010-122770SAO  +0015CWWK V0202001N003019999999N9999999N1+01401+01001999999ADDMW1001REMAWY052WWK SA 2000 AUTO8 M M M 234/14/10/2006/M/ 1013 00MM;
0070717850999992000100415004+49010-122770SAO  +0015CWWK V0201101N000519999999N9999999N1+00601+00601999999ADDMW1001REMAWY052WWK SA 1500 AUTO8 M M M 247/06/06/1101/M/ 3009 55MM;
0259717850999992000101118004+49010-122770SY-SA+0015CWWK V0202001N001519999999N9999999N1+01271+01201101431ADDAA124000091KA1120M+01281KA2240N+00691MA1999999101271MD1110071+9999MW1001REMSYN082AAXX  11184 71785 36/// /2003 10127 20120 30127 40143 51007 333 10128 20069 70000;AWY052WWK SA 1800 AUTO8 M M M 143/13/12/2103/M/ 1007 79MM;EQDQ01+000990PRSWM4Q02  00002PRCP24
0111717850999992000101807004+49010-122770SAO  +0015CWWK V0209999C000019999999N9999999N1+01301+01301999999ADDMW1001REMAWY093WWK SA 0700 AUTO8 M M M 117/13/13/0000/M/0008 PCPN 0.8MM PAST HR PK WND 1617 0614Z 1023 11MM;
0070717850999992000102207004+49010-122770SAO  +0015CWWK V0200501N001519999999N9999999N1+00701+00501999999ADDMW1001REMAWY052WWK SA 0700 AUTO8 M M M 289/07/05/0503/M/ 3009 41MM;
0070717850999992000102302004+49010-122770SAO  +0015CWWK V0209999C000019999999N9999999N1+01101+00801999999ADDMW1001REMAWY052WWK SA 0200 AUTO8 M M M 277/11/08/0000/M/ 8009 23MM;
0070717850999992000102421004+49010-122770SAO  +0015CWWK V0202801N001019999999N9999999N1+01301+01101999999ADDMW1001REMAWY052WWK SA 2100 AUTO8 M M M 166/13/11/2802/M/ 6009 80MM;
0070717850999992000103010004+49010-122770SAO  +0015CWWK V0201001N000519999999N9999999N1+00401+00401999999ADDMW1001REMAWY052WWK SA 1000 AUTO8 M M M 186/04/04/1001/M/ 3011 33MM;
0070717850999992000110117004+49010-122770SAO  +0015CWWK V0200401N001519999999N9999999N1+00801+00701999999ADDMW1001REMAWY052WWK SA 1700 AUTO8 M M M 262/08/07/0403/M/ 8008 60MM;
0259717850999992000111318004+49010-122770SY-SA+0015CWWK V0200901N000519999999N9999999N1+00491+00201102201ADDAA124000091KA1120M+00501KA2240N+00241MA1999999102041MD1810021+9999MW1001REMSYN082AAXX  13184 71785 36/// /0901 10049 20020 30204 40220 58002 333 10050 20024 70000;AWY052WWK SA 1800 AUTO8 M M M 220/05/02/1001/M/ 8002 99MM;EQDQ01+000990PRSWM4Q02  00002PRCP24
0070717850999992000112014004+49010-122770SAO  +0015CWWK V0203301N000519999999N9999999N1+00401+00401999999ADDMW1001REMAWY052WWK SA 1400 AUTO8 M M M 256/04/04/3301/M/ 6007 21MM;
0070717850999992000112221004+49010-122770SAO  +0015CWWK V0201701N001519999999N9999999N1+01001+00301999999ADDMW1001REMAWY052WWK SA 2100 AUTO8 M M M 244/10/03/1703/M/ 8011 94MM;
0070717850999992000112509004+49010-122770SAO  +0015CWWK V0200501N001519999999N9999999N1+00801+00701999999ADDMW1001REMAWY052WWK SA 0900 AUTO8 M M M 207/08/07/0503/M/ 8024 77MM;
0081717850999992000112908004+49010-122770SAO  +0015CWWK V0200701N003619999999N9999999N1+00801+00001999999ADDMW1001OC100771REMAWY055WWK SA 0800 AUTO8 M M M 100/08/00/0707+15/M/ 6023 81MM;
0093717850999992000112917004+49010-122770SAO  +0015CWWK V0200701N001019999999N9999999N1+00601+00401999999ADDMW1001REMAWY075WWK SA 1700 AUTO8 M M M 030/06/04/0702/M/0020 PCPN 0.2MM PAST HR 5012 13MM;
0259717850999992000120418004+49010-122770SY-SA+0015CWWK V0200601N001519999999N9999999N1+00541+00331103121ADDAA124000091KA1120M+00551KA2240N+00051MA1999999102961MD1110111+9999MW1001REMSYN082AAXX  04184 71785 36/// /0603 10054 20033 30296 40312 51011 333 10055 20005 70000;AWY052WWK SA 1800 AUTO8 M M M 312/05/03/0702/M/ 1011 43MM;EQDQ01+000990PRSWM4Q02  00002PRCP24
0072717850999992000120813004+49010-122770SAO  +0015CWWK V0201101N000519999999N9999999N1-00201-00201999999ADDMW1001REMAWY054WWK SA 1300 AUTO8 M M M 180/-02/-02/1101/M/ 8011 56MM;
0270717850999992000122006004+49010-122770SY-SA+0015CWWK V0200201N001519999999N9999999N1+00041+00041102571ADDAA124000591AA299999999KA1240M+00711KA2240N-00051MA1999999102411MD1010031+9999MW1001REMSYN082AAXX  20064 71785 36/// /0203 10004 20004 30241 40257 50003 333 10071 21005 70006;AWY052WWK SA 0600 AUTO8 M M M 257/00/00/0203/M/ 0003 44MM;EQDQ01+000990PRSWM4Q02  99992PRCP99
0071717850999992000122107004+49010-122770SAO  +0015CWWK V0200501N002019999999N9999999N1+00301-00201999999ADDMW1001REMAWY053WWK SA 0700 AUTO8 M M M 182/03/-02/0504/M/ 6023 15MM;
0070717850999992000122208004+49010-122770SAO  +0015CWWK V0200501N003619999999N9999999N1+00501+00301999999ADDMW1001REMAWY052WWK SA 0800 AUTO8 M M M 064/05/03/0507/M/ 6003 93MM;
0070717850999992000122213004+49010-122770SAO  +0015CWWK V0200801N002019999999N9999999N1+00501+00301999999ADDMW1001REMAWY052WWK SA 1300 AUTO8 M M M 068/05/03/0804/M/ 3009 52MM;
0070717850999992000122819004+49010-122770SAO  +0015CWWK V0200301N001019999999N9999999N1+00501+00401999999ADDMW1001REMAWY052WWK SA 1900 AUTO8 M M M 308/05/04/0302/M/ 0000 16MM;
0070717850999992000123004004+49010-122770SAO  +0015CWWK V0200401N001019999999N9999999N1+00601+00301999999ADDMW1001REMAWY052WWK SA 0400 AUTO8 M M M 215/06/03/0402/M/ 3003 60MM;
0070717850999992000123016004+49010-122770SAO  +0015CWWK V0200301N001519999999N9999999N1+00601+00401999999ADDMW1001REMAWY052WWK SA 1600 AUTO8 M M M 233/06/04/0303/M/ 3002 14MM;
0116717860999992000062200004+51440-116320FM-12+1615CWYL V02099999999999999999N9999999N1+99999+99999999999ADDAA106000591MA1999999083461MD1010011+9999REMSYN064AAXX  22004 71786 1//// ///// 38346 50001 69961 7//4/ 333 70054;
0123717860999992000062812004+51440-116320FM-12+1615CWYL V02099999999999999999N9999999N1+99999+99999999999ADDAA124000091MA1999999084201MD1610051+9999REMSYN052AAXX  28124 71786 36/// ///// 38420 56005 333 70000;EQDQ01  00002PRCP24
0123717860999992000081112004+51440-116320FM-12+1615CWYL V02099999999999999999N9999999N1+99999+99999999999ADDAA124000091MA1999999083491MD1310021+9999REMSYN052AAXX  11124 71786 36/// ///// 38349 53002 333 70000;EQDQ01  00002PRCP24
0104717860999992000090918004+51440-116320FM-12+1615CWYL V02099999999999999999N9999999N1+99999+99999999999ADDAA124006991MA1999999082571MD1810071+9999REMSYN052AAXX  09184 71786 36/// ///// 38257 58007 333 70068;
0083717860999992000102718004+51440-116320FM-12+1615CWYL V02099999999999999999N9999999N1+99999+99999999999ADDMA1999999082741MD1810121+9999REMSYN042AAXX  27184 71786 46/// ///// 38274 58012;
0083717860999992000103018004+51440-116320FM-12+1615CWYL V02099999999999999999N9999999N1+99999+99999999999ADDMA1999999083751MD1010011+9999REMSYN042AAXX  30184 71786 46/// ///// 38375 50001;
0071717860999992000121009004+51440-116320SAO  +1615CWYL V02099999999999999999N9999999N1-02001+99999999999ADDMW1001REMAWY053WYL SA 0900 AUTO8 M M M 223/-20/M/MM08/M/M 6002 2MMM;
0091717860999992000121815004+51440-116320SAO  +1615CWYL V0202401N005619999999N9999999N1-01201-01201999999ADDMW1001REMAWY073WYL SA 1500 AUTO8 M M M 376/-12/-12/2411/M/M PK WND 2518 1403Z 3009 94MM;
0073717860999992000122111004+51440-116320SAO  +1615CWYL V0200601N001019999999N9999999N1-02601-02801999999ADDMW1001REMAWY055WYL SA 1100 AUTO8 M M M 320/-26/-28/0602/M/M 8001 95MM;
0091717860999992000122713004+51440-116320SAO  +1615CWYL V0202501N009719999999N9999999N1-00401-00401999999ADDMW1001REMAWY073WYL SA 1300 AUTO8 M M M 174/-04/-04/2519/M/M PK WND 2622 1248Z 6019 78MM;
0073717860999992000122923004+51440-116320SAO  +1615CWYL V0202001N002019999999N9999999N1-00801-00801999999ADDMW1001REMAWY055WYL SA 2300 AUTO8 M M M 297/-08/-08/2004/M/M 6008 89MM;
0151717990999992000010703334+48650-123430FM-16+0019CYYJ V0202201N001010009019N0024141N1+99999+99999999999ADDGD14991+0009099GF108991999999999999999999MW1001MW2611REMMET051CYYJ 070333Z 22002KT 1 1/2SM -RA BR OVC003 RMK SF8;EQDQ01+000100PRSWM3Q02+000003PRSWM1
0336717990999992000010821004+48650-123430SY-MT+0019CYYJ V0202601N00821013501CN0450001N1+00801-00061101591ADDGD12991+0060099GD22991+0120099GD32991+0135099GD43991+0660099GF199999999999008001999999MA1101591101351MD1210271+9999MW1001OC101081REMSYN060AAXX  08214 71799 42583 52616 10080 21006 30135 40159 52027;MET094CYYJ 082100Z 26016G21KT 30SM FEW020 FEW040 FEW045 BKN220 08/M01 A3000 RMK CF1CU2SC1CC2 SLP159;EQDQ01+000052SCOTCVQ02+000000PRSWM2
0214717990999992000010822004+48650-123430FM-15+0019CYYJ V0202601N007710720019N0482801N1+00801-00101101671ADDGD12991+0060099GD22991+0150099GD33991+0720099GF107991999999999999999999MA1101661999999MW1001REMMET091CYYJ 082200Z 26015KT 30SM FEW020 SCT050 BKN240 08/M01 A3002 RMK CF1CU3CI1 CC ASOCTD SLP167;EQDQ01+000000PRSWM2
0169717990999992000011207214+48650-123430FM-16+0019CYYJ V0201901N001510270019N0241401N1+99999+99999999999ADDGD12991+0060099GD22991+0090099GD33991+0270099GF107991999999999999999999MW1001REMMET061CYYJ 120721Z 19003KT 15SM FEW020 FEW030 BKN093 RMK CF1SC2AC4;EQDQ01+000000PRSWM2
0165717990999992000011220264+48650-123430FM-16+0019CYYJ V0201501N002610150019N0321861N1+99999+99999999999ADDGD12991+0051099GD24991+0150099GF108991999999999999999999MW1001MW2611REMMET066CYYJ 122026Z 15005KT 20SM -RA SCT017 OVC050 RMK SC4SC4 TCU ASOCTD;EQDQ01+000003PRSWM1
0203717990999992000011401004+48650-123430FM-15+0019CYYJ V0209999C000010060019N0321861N1+00301+00201101321ADDGD12991+0045099GD23991+0060099GD34991+0300099GF108991999999999999999999MA1101321999999MW1001REMMET080CYYJ 140100Z 00000KT 20SM FEW015 BKN020 OVC100 03/02 A2992 RMK SC2SC4AS2 SLP132;EQDQ01+000000PRSWM2
0377717990999992000011600004+48650-123430SY-MT+001999999V0203601N00101033001CN0450001N1+00611+00271101531ADDAA124005391GD12991+0075099GD23991+0330099GD33991+0450099GD43991+0750099GF107991011011008001071011KA1120M+00691KA2180N+00191MA1101521101291MD1710291+9999MW1001REMSYN092    AAXX  16004 71799 32583 73602 10061 20027 30129 40153 57029 81171 333 10069 20019 70054;MET090CYYJ 160000Z 35002KT 30SM FEW025 BKN110 BKN150 BKN250 06/03 A2998 RMK CF1AC5AC1CI1 SLP153;EQDQ01+000000PRSWM2
0249717990999992000011622004+48650-123430FM-15+0019CYYJ V0201301N012910180019N0321861N1+00801+00401099471ADDGD12991+0063099GD22991+0105099GD33991+0180099GD43991+0360099GF108991999999999999999999MA1099461999999MW1001OC101701REMMET103CYYJ 162200Z 13025G33KT 20SM FEW021 FEW035 BKN068 BKN120 OVC200 08/04 A2937 RMK SC1SC1AC4AC2CI0 SLP947;EQDQ01+000000PRSWM2
0159717990999992000011816104+48650-123430FM-16+0019CYYJ V0202801N002110057019N0241401N1+99999+99999999999ADDGD12991+0009099GD23991+0057099GF107991999999999999999999MW1001REMMET066CYYJ 181610Z 28004KT 15SM SCT003 BKN019 RMK SF3SC3 VSBY NW - NE 1;EQDQ01+000000PRSWM2
0155717990999992000011911004+48650-123430FM-15+0019CYYJ V0202501N001012200019N0482801N1-00101-00201102661ADDGD12991+0060099GF102991999999999999999999MA1102641999999MW1001REMMET062CYYJ 191100Z 25002KT 30SM FEW020 M01/M02 A3031 RMK SC2 SLP266;EQDQ01+000000PRSWM2
0347717990999992000012206004+48650-123430SY-MT+0019CYYJ V0203001N00211003001CN0090001N1+00471+00391101681ADDAA124007191AY111061AY211061GD12991+0012099GD24991+0030099GF108991081051001501999999KA1240M+00571KA2240N+00311MA1101661101441MD1210071+9999MW1101REMSYN094AAXX  22064 71799 31259 83004 10047 20039 30144 40168 52007 71011 885// 333 10057 20031 70070;MET072CYYJ 220600Z 32004KT 6SM BR FEW004 OVC010 05/04 A3002 RMK SF2SC6 SLP168;EQDQ01    003PRSWM1
0203717990999992000012422004+48650-123430FM-15+0019CYYJ V0203601N003112200019N0482801N1+00701+00001101601ADDGD12991+0075099GD22991+0120099GD32991+0240099GF102991999999999999999999MA1101591999999MW1001REMMET080CYYJ 242200Z 36006KT 30SM FEW025 FEW040 FEW080 07/00 A3000 RMK CF1SC1AC1 SLP160;EQDQ01+000000PRSWM2
0353717990999992000020412004+48650-123430SY-MT+0019CYYJ V0202601N002112200019N0450001N1+00351+00031101621ADDAA124000091GD12991+0270099GD22991+0810099GF102991011001999999071011GJ103489KA1999M+01031KA2120N+00211MA1101631101381MD1510011+9999MW1001REMSYN094AAXX  04124 71799 32983 22604 10035 20003 30138 40162 55001 81071 333 10103 20021 55058 70000;MET070CYYJ 041200Z 28004KT 30SM FEW090 FEW270 04/00 A3001 RMK AC1CI0 SLP162;EQDQ01+000000PRSWM2Q02  00002PRCP24
0201717990999992000020905004+48650-123430FM-15+0019CYYJ V0202201N003110240019N0241401N1+00801+00201101461ADDGD12991+0102099GD23991+0240099GF107991999999999999999999MA1101461999999MW1001REMMET093CYYJ 090500Z 22006KT 15SM FEW034 BKN089 08/02 A2996 RMK SC2AC2 WND DRCTN VRBL 180V270 SLP146;EQDQ01+000000PRSWM2
0196717990999992000021214004+48650-123430FM-15+0019CYYJ V0203101N002610180019N0048281N1+00101+00101100501ADDGD12991+0006099GD23991+0180099GF107991999999999999999999MA1100471999999MW1101REMMET072CYYJ 121400Z 31005KT 3SM BR SCT002 BKN068 01/01 A2967 RMK SF3AC2 SLP050;EQDQ01+000003PRSWM1Q02    003PRSWM1
0339717990999992000021306004+48650-123430SY-MT+0019CYYJ V0209999C00001024001CN0240001N1+00371+00191100901ADDAA124000091GD12991+0090099GD23991+0240099GF107991031051008001071001KA1240M+00851KA2240N-00041MA1100881100661MD1110111+9999MW1001REMSYN088AAXX  13064 71799 32574 70000 10037 20019 30066 40090 51011 83570 333 10085 21004 70000;MET070CYYJ 130600Z 27003KT 15SM SCT030 BKN089 04/02 A2979 RMK SC3AC4 SLP090;EQDQ01+000000PRSWM2Q02  00002PRCP24
0178717990999992000022101004+48650-123430FM-15+0019CYYJ V0202801N001010270019N0482801N1+00901+00201100461ADDGD13991+0270099GD23991+0450099GF107991999999999999999999MA1100471999999MW1001REMMET070CYYJ 210100Z 28002KT 30SM BKN090 BKN150 09/02 A2967 RMK AC6AS2 SLP046;EQDQ01+000000PRSWM2
0203717990999992000022210004+48650-123430FM-15+0019CYYJ V0201501N005710270019N0321861N1+00901+00701099911ADDGD12991+0030099GD22991+0060099GD33991+0270099GF107991999999999999999999MA1099901999999MW1001REMMET080CYYJ 221000Z 15011KT 20SM FEW010 SCT020 BKN094 09/07 A2950 RMK SC2SC2AC2 SLP991;EQDQ01+000000PRSWM2
0228717990999992000022222004+48650-123430FM-15+0019CYYJ V0202401N00511048001CN0321861N1+01101+00301100301ADDGD12991+0105099GD22991+0150099GD32991+0480099GD43991+0720099GF107991999999999999999999MA1100311999999MW1001REMMET090CYYJ 222200Z 24010KT 20SM FEW035 SCT055 SCT160 BKN240 11/03 A2962 RMK CU1SC2AC1CS2 SLP030;EQDQ01+000000PRSWM2
0178717990999992000022510004+48650-123430FM-15+0019CYYJ V0202701N000510066019N0321861N1+00301+00201101551ADDGD12991+0054099GD23991+0066099GF107991999999999999999999MA1101521999999MW1001REMMET070CYYJ 251000Z 27001KT 20SM SCT018 BKN022 03/02 A2998 RMK CF3SC4 SLP155;EQDQ01+000000PRSWM2
0425717990999992000022800004+48650-123430SY-MT+0019CYYJ V0200901N001510090019N0240001N1+00751+00481100671ADDAA106001091AA224017091AY161061AY221061GD12991+0036099GD23991+0090099GD33991+0660099GF199999051081004501001091KA1120M+00861KA2180N+00531MA1100681100441MD1310031+9999MW1031REMSYN106AAXX  28004 71799 11474 60903 10075 20048 30044 40067 53003 60011 70362 85809 333 10086 20053 70170 90943;MET080CYYJ 280000Z 10003KT 15SM SCT012 BKN030 BKN220 08/05 A2973 RMK SC4SC1CC1 SLP067;EQDQ01+000062SCOTCVQ02+000000PRSWM2Q03    003PRSWM1
0204717990999992000022816314+48650-123430FM-16+0019CYYJ V0209999C000010150019N0482801N1+99999+99999999999ADDGD12991+0075099GD22991+0105099GD33991+0150099GD43991+0270099GF108991999999999999999999MW1001REMMET081CYYJ 281631Z 00000KT 30SM FEW025 FEW035 BKN054 BKN090 OVC140 RMK CF1SC2SC2AC2AS1;EQDQ01+000000PRSWM2
0283717990999992000022903004+48650-123430SY-MT+0019CYYJ V0201201N005710360019N0300001N1+00781+00471100891ADDGD12991+0060099GD22991+0270099GD34991+0360099GF108991999999008001999999MA1100881100661MD1610091+9999MW1001REMSYN060AAXX  29034 71799 42580 81211 10078 20047 30066 40089 56009;MET080CYYJ 290300Z 12011KT 20SM SCT020 SCT090 OVC120 08/05 A2979 RMK SC3AC1AS4 SLP089;EQDQ01+000000PRSWM2
0333717990999992000030203004+48650-123430SY-MT+0019CYYJ V0201201N004110120019N0300001N1+00761+00401101441ADDGD12991+0045099GD22991+0060099GD33991+0120099GD44991+0240099GF108991999999004501999999MA1101421101201MD1610131+9999MW1611REMSYN066AAXX  02034 71799 41480 81208 10076 20040 30120 40144 56013 761//;MET109CYYJ 020300Z 12008KT 20SM -RA FEW015 FEW020 BKN040 OVC080 08/04 A2995 RMK CF1SC1SC6AC2 R- INTMT TR CF SLP144;EQDQ01    003PRSWM1
0292717990999992000030409004+48650-123430SY-MT+0019CYYJ V0203501N001510039019N0120001N1+00621+00561101241ADDGD12991+0018099GD23991+0039099GD34991+0135099GF108991999999001501999999MA1101251101011MD1610071+9999MW1611REMSYN066AAXX  04094 71799 41262 83503 10062 20056 30101 40124 56007 761//;MET083CYYJ 040900Z 35003KT 8SM -RA SCT006 BKN013 OVC045 06/06 A2990 RMK SF3SC4SC1 SLP124;EQDQ01    003PRSWM1
0156717990999992000030710004+48650-123430FM-15+0019CYYJ V0209999C000010057019N0482801N1+00301+00101101111ADDGD13991+0057099GF107991999999999999999999MA1101081999999MW1001REMMET063CYYJ 071000Z CCA00000KT 30SM BKN019 03/01 A2985 RMK SC7 SLP111;EQDQ01+000000PRSWM2
0308717990999992000032615004+48650-123430SY-MT+0019CYYJ V0202401N00101030001CN0450001N1+00251+00161102441ADDGD12991+0060099GD22991+0120099GD32991+0300099GD43991+0810099GF107991999999008001999999MA1102441102201MD1710041+9999MW1001REMSYN060AAXX  26154 71799 42583 72402 10025 20016 30220 40244 57004;MET090CYYJ 261500Z 24002KT 30SM FEW020 SCT040 SCT100 BKN270 03/02 A3025 RMK SC1SC2AC1CI2 SLP244;EQDQ01+000000PRSWM2
0178717990999992000040202004+48650-123430FM-15+0019CYYJ V0200701N001010099019N0482801N1+01101+00801102621ADDGD12991+0075099GD23991+0099099GF107991999999999999999999MA1102611999999MW1001REMMET070CYYJ 020200Z 07002KT 30SM FEW025 BKN033 11/08 A3030 RMK CF1SC7 SLP262;EQDQ01+000000PRSWM2
0442717990999992000040606004+48650-123430SY-MT+0019CYYJ V0202501N005110360019N0300001N1+00611+00141101541ADDAA106000792AA224000292AC10I9AY161061AY221061GD12991+0180099GD22991+0240099GD34991+0360099GF108991021051017501071999KA1240M+00991KA2240N+00481MA1101521101301MD1810051+9999MW1021OA132401031REMSYN122AAXX  06064 71799 11780 82510 10061 20014 30130 40154 58005 69901 70262 8257/ 333 10099 20048 70002 90940 555 32320 40011;MET080CYYJ 060600Z 24009KT 20SM FEW063 FEW084 OVC120 06/01 A2998 RMK SC2AC1AC6 SLP154;EQDQ01+000000PRSWM2Q02    003PRSWM1
0248717990999992000040815004+48650-123430SY-MT+0019CYYJ V0203001N001512200019N0750001N1+00661+00371102311ADDGD12991+0270099GD22991+0810099MA1102301102071MD1810141+9999MW1001REMSYN060AAXX  08154 71799 42989 13003 10066 20037 30207 40231 58014;MET070CYYJ 081500Z 30003KT 45SM FEW090 FEW270 07/04 A3021 RMK AC1CI0 SLP231;EQDQ01+000012SCOTCVQ02+000000PRSWM2
0203717990999992000041320004+48650-123430FM-15+0019CYYJ V0201301N003110150019N0321861N1+01101+01001100761ADDGD12991+0024099GD23991+0150099GD34991+0420099GF108991999999999999999999MA1100751999999MW1001REMMET080CYYJ 132000Z 13006KT 20SM FEW008 BKN050 OVC140 11/10 A2975 RMK CF1SC6AS2 SLP076;EQDQ01+000000PRSWM2
0214717990999992000041420004+48650-123430FM-15+0019CYYJ V0202401N005710240019N0482801N1+01101+00601100521ADDGD12991+0120099GD23991+0240099GD34991+0270099GF108991999999999999999999MA1100511999999MW1001OC100821REMMET083CYYJ 142000Z 24011G16KT 30SM SCT040 BKN080 OVC095 11/06 A2968 RMK SC4AC2AS2 SLP052;EQDQ01+000000PRSWM2
0178717990999992000041817004+48650-123430FM-15+0019CYYJ V0203001N002110900019N0482801N1+01101+00201101111ADDGD12991+0750099GD23991+0900099GF107991999999999999999999MA1101121999999MW1001REMMET070CYYJ 181700Z 30004KT 30SM FEW250 BKN300 11/02 A2986 RMK CI2CI1 SLP111;EQDQ01+000000PRSWM2
0178717990999992000041911004+48650-123430FM-15+0019CYYJ V0202301N002610129019N0482801N1+00701+00201102011ADDGD13991+0129099GD23991+0210099GF107991999999999999999999MA1102001999999MW1001REMMET070CYYJ 191100Z 23005KT 30SM BKN043 BKN075 07/02 A3012 RMK SC5AC1 SLP201;EQDQ01+000000PRSWM2
0424717990999992000042818004+48650-123430SY-MT+0019CYYJ V0201101N00211024001CN0300001N1+01021+00441101521ADDAA106000591AA224000891AY181061AY261061GD12991+0054099GD22991+0075099GD33991+0240099GD43991+0780099GF107991031081004501071011KA1120M+01121KA2240N+00171MA1101521101291MD1310211+9999MW1801REMSYN106AAXX  28184 71799 11480 71104 10102 20044 30129 40152 53021 69941 78086 83871 333 10112 20017 70008 90916;MET096CYYJ 281800Z 09006KT 20SM -SHRA FEW018 SCT025 BKN080 BKN260 10/04 A2998 RMK CU1SC2AC3CI1 SLP152;EQDQ01    003PRSWM1
0228717990999992000043017004+48650-123430FM-15+0019CYYJ V0200101N00211021001CN0482801N1+01001+00601102151ADDGD12991+0042099GD22991+0180099GD32991+0210099GD44991+0270099GF108991999999999999999999MA1102131999999MW1001REMMET090CYYJ 301700Z 01004KT 30SM FEW014 FEW060 SCT070 OVC092 10/06 A3016 RMK CF1SC1AC3AS5 SLP215;EQDQ01+000000PRSWM2
0176717990999992000050319404+48650-123430FM-16+0019CYYJ V0202301N005710078019N0321861N1+99999+99999999999ADDGA1999+007809029GD13991+0078099GD23991+0120099GF107991999999999999999999MW1001MW2801REMMET061CYYJ 031940Z 23011KT 20SM -SHRA BKN026TCU BKN040 RMK TCU5SC1;EQDQ01+000003PRSWM1
0234717990999992000050613004+48650-123430FM-15+0019CYYJ V0201801N00211021001CN0321861N1+00701+00401101701ADDGD12991+0039099GD22991+0126099GD32991+0210099GD43991+0780099GF107991999999999999999999MA1101691999999MW1001REMMET096CYYJ 061300Z 18004KT 20SM FEW013 FEW042 SCT070 BKN260 07/04 A3003 RMK CU1SC2AC2CI2 TCU E SLP170;EQDQ01+000000PRSWM2
0203717990999992000051001004+48650-123430FM-15+0019CYYJ V0201501N003610144019N0482801N1+01001+00601100391ADDGD12991+0075099GD23991+0144099GD33991+0300099GF107991999999999999999999MA1100371999999MW1001REMMET080CYYJ 100100Z 15007KT 30SM FEW025 BKN048 BKN100 10/06 A2964 RMK CU2SC3AC2 SLP039;EQDQ01+000000PRSWM2
0299717990999992000051203004+48650-123430SY-MT+0019CYYJ V0202701N006210270019N0450001N1+01131+00451101921ADDGD12991+0117099GD23991+0270099GD33991+0810099GF199999999999012501999999MA1101931101691MD1210201+9999MW1001REMSYN060AAXX  12034 71799 42683 62712 10113 20045 30169 40192 52020;MET080CYYJ 120300Z 27012KT 30SM SCT039 BKN090 BKN270 11/05 A3010 RMK SC3AC2CI1 SLP192;EQDQ01+000062SCOTCVQ02+000000PRSWM2
0246717990999992000051420004+48650-123430FM-15+0019CYYJ V0200301N00411030001CN0482801N1+01801+00801101231ADDGD12991+0135099GD22991+0240099GD32991+0300099GD43991+0480099GF107991999999999999999999MA1101221999999MW1001REMMET108CYYJ 142000Z 03008KT 30SM FEW045 FEW080 FEW100 BKN160 BKN280 18/08 A2989 RMK CU1AC1AC1AC4CC0 ACSL SW SLP123;EQDQ01+000000PRSWM2
0377717990999992000051706004+48650-123430SY-MT+0019CYYJ V0202701N00821084001CN0450001N1+01351+00351101561ADDAA124000091GD12991+0300099GD23991+0840099GF199999021001999999071011KA1240M+02241KA2240N+00891MA1101561101331MD1110191+9999MW1001OA132401291OC101181REMSYN104AAXX  17064 71799 32983 62716 10135 20035 30133 40156 51019 82071 333 10224 20089 70000 555 32525 40031;MET073CYYJ 170600Z 27017G23KT 30SM FEW100 BKN280 14/04 A2999 RMK AC2CI2 SLP156;EQDQ01+000062SCOTCVQ02+000000PRSWM2
0238717990999992000052201004+48650-123430FM-15+0019CYYJ V0202301N005110330019N0482801N1+01601+01001101791ADDGD12991+0150099GD22991+0240099GD33991+0330099GD43991+0450099GF108991999999999999999999MA1101801999999MW1001REMMET100CYYJ 220100Z 23010KT 30SM FEW055 FEW080 BKN110 BKN150 OVC260 16/10 A3006 RMK SC2AC1AC2AS2CS1 SLP179;EQDQ01+000000PRSWM2
0355717990999992000052506004+48650-123430SY-MT+0019CYYJ V0202701N001512200019N0450001N1+00811+00351101421ADDAA124000091GD12991+0120099GD22991+0810099GF199999011041012501001011KA1240M+01651KA2240N+00571MA1101421101191MD1610041+9999MW1001REMSYN088AAXX  25064 71799 32683 12703 10081 20035 30119 40142 56004 81401 333 10165 20057 70000;MET070CYYJ 250600Z 28003KT 30SM FEW040 FEW270 08/04 A2995 RMK SC1CI0 SLP142;EQDQ01+000012SCOTCVQ02+000000PRSWM2Q03  00002PRCP24
0212717990999992000052700004+48650-123430SY-MT+0019CYYJ V0200701N00151004201CN0160001N1+01211+01041100781ADDAA106002091AY161061AY251061GD12991+0021099GD22991+0030099GD32991+0042099GD43991+0150099GF107991071081002501071001KA1999M+01241KA2999N+00771MA1100781100551MD1810061+9999MW1021EQDQ01+000000PRSWM2Q02    003PRSWM1
0212717990999992000053013004+48650-123430FM-15+0019CYYJ V0202401N001010270019N0321861N1+99999+99999101771ADDGD12991+0090099GD22991+0150099GD33991+0270099GD43991+0780099GF107991999999999999999999MW1001REMMET089CYYJ 301300Z 24002KT 20SM FEW030 SCT055 BKN090 BKN260 0908 A3005 RMK CU1SC2AC2CI0 SLP177;EQDQ01+000000PRSWM2
0415717990999992000053100004+48650-123430SY-MT+0019CYYJ V0201001N00311013501CN0300001N1+01281+00921101791ADDAA106004191AA224004291AY181061AY261061GD12991+0075099GD23991+0135099GD33991+0210099GF199999061081008001071001KA1120M+01311KA2180N+00711MA1101801101561MD1510051+9999MW1801REMSYN106AAXX  31004 71799 11580 61006 10128 20092 30156 40179 55005 60041 78086 86870 333 10131 20071 70042 90973;MET086CYYJ 310000Z 10006KT 20SM -SHRA FEW025 BKN045 BKN070 13/09 A3006 RMK CU1SC5AC1 SLP179;EQDQ01+000062SCOTCVQ02    003PRSWM1
0409717990999992000053106004+48650-123430SY-MT+0019CYYJ V0202201N00101021001CN0240001N1+01101+00801101861ADDAA106000791AA224004291AY181061AY221061GD12991+0090099GD22991+0135099GD33991+0210099GF107991031081008001071001KA1240M+01391KA2240N+00711MA1101861101631MD1110061+9999MW1031REMSYN106AAXX  31064 71799 11574 72202 10110 20080 30163 40186 51006 69901 70382 83870 333 10139 20071 70042 90960;MET080CYYJ 310600Z 22002KT 15SM FEW030 SCT045 BKN075 11/08 A3008 RMK CU1SC2AC3 SLP186;EQDQ01+000000PRSWM2Q02    003PRSWM1
0153717990999992000060111004+48650-123430FM-15+0019CYYJ V0202801N001510114019N0321861N1+01101+00601102341ADDGD14991+0114099GF108991999999999999999999MA1102341999999MW1001REMMET060CYYJ 011100Z 28003KT 20SM OVC038 11/06 A3022 RMK SC7 SLP234;EQDQ01+000000PRSWM2
0274717990999992000061009004+48650-123430SY-MT+0019CYYJ V0202201N002610360019N0450001N1+01001+00461101321ADDGD12991+0210099GD23991+0360099GF199999999999022501999999MA1101321101091MD1310171+9999MW1001REMSYN060AAXX  10094 71799 42883 62205 10100 20046 30109 40132 53017;MET070CYYJ 100900Z 22005KT 30SM SCT078 BKN120 10/05 A2992 RMK AC3AC2 SLP132;EQDQ01+000062SCOTCVQ02+000000PRSWM2
0355717990999992000061618004+48650-123430SY-MT+0019CYYJ V0201101N001012200019N0450001N1+01831+00991102591ADDAA124000091GD12991+0420099GD22991+0900099GF199999011001999999071011KA1120M+01861KA2240N+00791MA1102611102361MD1510121+9999MW1001REMSYN088AAXX  16184 71799 32983 11102 10183 20099 30236 40259 55012 81071 333 10186 20079 70000;MET070CYYJ 161800Z 11002KT 30SM FEW140 FEW300 18/10 A3030 RMK AC1CI1 SLP259;EQDQ01+000012SCOTCVQ02+000000PRSWM2Q03  00002PRCP24
0423717990999992000061912004+48650-123430SY-MT+0019CYYJ V0201501N001510120019N0450001N1+01301+00931101901ADDAA106000791AA224999929AY181061AY221061GD12991+0108099GD23991+0120099GD33991+0270099GF107991061051012501071001GJ105949KA1999M+02151KA2120N+01281MA1101901101671MD1310201+9999MW1021REMSYN112AAXX  19124 71799 11683 71503 10130 20093 30167 40190 53020 69901 70282 86570 333 10215 20128 55099 79999 90960;MET080CYYJ 191200Z 15003KT 30SM SCT036 BKN040 BKN090 13/09 A3009 RMK SC3SC3AC1 SLP190;EQDQ01+000000PRSWM2Q02    003PRSWM1
0186717990999992000062502004+48650-123430FM-15+0019CYYJ V0201201N002612200019N0482801N1+02001+00901102391ADDGD12991+0150099GD22991+0840099GF102991999999999999999999MA1102401999999MW1001REMMET078CYYJ 250200Z 12005KT 30SM FEW050 FEW280 20/09 A3024 RMK SC1CI1 TR CLDS SLP239;EQDQ01+000000PRSWM2
0203717990999992000070611004+48650-123430FM-15+0019CYYJ V0203201N002610270019N0482801N1+01401+01201101461ADDGD12991+0150099GD23991+0270099GD33991+0360099GF107991999999999999999999MA1101461999999MW1001REMMET080CYYJ 061100Z 32005KT 30SM FEW055 BKN090 BKN120 14/12 A2996 RMK SC2AC4AS1 SLP146;EQDQ01+000000PRSWM2
0228717990999992000070805004+48650-123430FM-15+0019CYYJ V0200501N001010420019N0482801N1+01501+01101101371ADDGD12991+0270099GD22991+0360099GD33991+0420099GD43991+0660099GF107991999999999999999999MA1101351999999MW1001REMMET090CYYJ 080500Z 05002KT 30SM FEW090 FEW120 BKN140 BKN220 15/11 A2993 RMK AC1AC2AS2CI2 SLP137;EQDQ01+000000PRSWM2
0293717990999992000071415004+48650-123430SY-MT+0019CYYJ V0202801N002610129019N0450001N1+01321+00811102351ADDGD13991+0129099GD23991+0150099GD33991+0810099GF107991999999012501999999MA1102341102121MD1210111+9999MW1001REMSYN060AAXX  14154 71799 42683 72805 10132 20081 30212 40235 52011;MET090CYYJ 141500Z 28005KT 30SM BKN043 BKN054 BKN270 13/08 A3022 RMK SC6SC1CI1 CU ASOCTD SLP235;EQDQ01+000000PRSWM2
0131717990999992000071510004+48650-123430FM-15+0019CYYJ V0202601N003612200019N0482801N1+01201+00901102541ADDGF100991999999999999999999MA1102541999999MW1001REMMET053CYYJ 151000Z 26007KT 30SM SKC 12/09 A3028 RMK SLP254;EQDQ01+000000PRSWM2
0178717990999992000071514004+48650-123430FM-15+0019CYYJ V0202801N002112200019N0482801N1+01201+01001102631ADDGD12991+0075099GD22991+0240099GF102991999999999999999999MA1102641999999MW1001REMMET070CYYJ 151400Z 28004KT 30SM FEW025 FEW080 12/10 A3031 RMK SC1AC1 SLP263;EQDQ01+000000PRSWM2
0131717990999992000071717004+48650-123430FM-15+0019CYYJ V0201101N002612200019N0482801N1+02001+01201101601ADDGF100991999999999999999999MA1101591999999MW1001REMMET053CYYJ 171700Z 11005KT 30SM SKC 20/12 A3000 RMK SLP160;EQDQ01+000000PRSWM2
0355717990999992000071800004+48650-123430SY-MT+0019CYYJ V0201301N004112200019N0750001N1+02511+01091101541ADDAA124000091GD12991+0150099GD22991+0780099GF199999011011017501001011KA1120M+02541KA2180N+01081MA1101521101311MD1810051+9999MW1001REMSYN088AAXX  18004 71799 32789 11308 10251 20109 30131 40154 58005 81101 333 10254 20108 70000;MET070CYYJ 180000Z 13008KT 45SM FEW050 FEW260 25/11 A2998 RMK CU1CI1 SLP154;EQDQ01+000012SCOTCVQ02+000000PRSWM2Q03  00002PRCP24
0131717990999992000071807004+48650-123430FM-15+0019CYYJ V0202501N002612200019N0482801N1+01601+01001101621ADDGF100991999999999999999999MA1101631999999MW1001REMMET053CYYJ 180700Z 25005KT 30SM SKC 16/10 A3001 RMK SLP162;EQDQ01+000000PRSWM2
0199717990999992000072912284+48650-123430FM-16+0019CYYJ V0209999C000010009019N0016091N1+99999+99999999999ADDGD13991+0009099GD23991+0024099GD33991+0180099GF107991999999999999999999MW1001MW2101REMMET085CYYJ 291228Z CCA00000KT 1SM BR BKN003 BKN008 BKN060 / RMK FG2SF3SF2SC1 VSBY LWR S-NW;EQDQ01+000003PRSWM1
0308717990999992000080221004+48650-123430SY-MT+0019CYYJ V0201401N003612200019N0450001N1+02031+01141101881ADDGD12991+0090099GD22991+0360099GD32991+0720099GD42991+0840099GF102991999999008001999999MA1101901101651MD1710151+9999MW1001REMSYN060AAXX  02214 71799 42583 21407 10203 20114 30165 40188 57015;MET090CYYJ 022100Z 14007KT 30SM FEW030 FEW120 FEW240 FEW280 20/11 A3009 RMK CF1AC1CI2CI0 SLP188;EQDQ01+000000PRSWM2
0131717990999992000080904004+48650-123430FM-15+0019CYYJ V0200801N002612200019N0482801N1+01701+01201101221ADDGF100991999999999999999999MA1101221999999MW1001REMMET053CYYJ 090400Z 08005KT 30SM SKC 17/12 A2989 RMK SLP122;EQDQ01+000000PRSWM2
0410717990999992000081100004+48650-123430SY-MT+0019CYYJ V0201301N006712200019N0450001N1+01991+01061101411ADDAA124000091GD12991+0036099GD22991+0120099GD32991+0720099GD42991+0900099GF102991011061004501001011KA1120M+02011KA2180N+01011MA1101421101181MD1710101+9999MW1001REMSYN088AAXX  11004 71799 32483 21313 10199 20106 30118 40141 57010 81601 333 10201 20101 70000;MET111CYYJ 110000Z 12013KT 30SM FEW012 FEW040 FEW240 FEW300 20/11 A2995 RMK ST1CU1CI1CI0 MARINE STRATUS TO SE SLP141;EQDQ01+000000PRSWM2Q02  00002PRCP24
0127717990999992000081315004+48650-123430FM-12+0019CYYJ V0202801N002112200019N0450001N1+01391+01031101841ADDGF101991999999008001999999MA1999999101611MD1110111+9999REMSYN060AAXX  13154 71799 42583 12804 10139 20103 30161 40184 51011;
0201717990999992000081401004+48650-123430FM-15+0019CYYJ V0201301N004112200019N0482801N1+01901+01101101721ADDGD12991+0135099GD22991+0750099GF102991999999999999999999MA1101731999999MW1001REMMET093CYYJ 140100Z 13008KT 30SM FEW045 FEW250 19/11 A3004 RMK CU1CI1 WND DRCTN VRBL 100V160 SLP172;EQDQ01+000000PRSWM2
0299717990999992000082121004+48650-123430SY-MT+0019CYYJ V0200901N004112200019N0450001N1+01981+01261102221ADDGD12991+0075099GD22991+0150099GD32991+0810099GF199999999999008001999999MA1102241101991MD1810091+9999MW1001REMSYN060AAXX  21214 71799 42583 10908 10198 20126 30199 40222 58009;MET080CYYJ 212100Z 09008KT 30SM FEW025 FEW050 FEW270 20/13 A3019 RMK CU1SC1CI1 SLP222;EQDQ01+000012SCOTCVQ02+000000PRSWM2
0231717990999992000082722004+48650-123430FM-15+0019CYYJ V0201401N005712200019N0482801N1+01801+00801101721ADDGA1999+013209029GD12991+0132099GD22991+0180099GD32991+0240099GF102991999999999999999999MA1101731999999MW1001REMMET092CYYJ 272200Z 14011KT 100V160 30SM FEW044TCU FEW060 FEW080 18/08 A3004 RMK TCU1SC1AC1 SLP172;EQDQ01+000000PRSWM2
0257717990999992000090502004+48650-123430FM-15+0019CYYJ V0201201N001012200019N0482801N1+01501+01001102161ADDGD12991+0135099GD22991+0180099GD32991+0300099GD42991+0450099GF102991999999999999999999MA1102171999999MW1001REMMET119CYYJ 050200Z 12002KT 30SM FEW045 FEW065 FEW100 FEW150 FEW280 15/10 A3017 RMK CU1SC1AC1AC1CI1 TCU TOPS N-NE HRZN SLP216;EQDQ01+000000PRSWM2
0228717990999992000091802004+48650-123430FM-15+0019CYYJ V0203201N00211042001CN0482801N1+01701+01301102111ADDGD12991+0090099GD22991+0135099GD32991+0420099GD43991+0690099GF107991999999999999999999MA1102101999999MW1001REMMET090CYYJ 180200Z 32004KT 30SM FEW030 SCT045 SCT140 BKN230 17/13 A3015 RMK CU1SC4AC1CI2 SLP211;EQDQ01+000000PRSWM2
0199717990999992000091822164+48650-123430FM-16+0019CYYJ V0201401N002610150019N0193121N1+99999+99999999999ADDGD12991+0045099GD22991+0060099GD33991+0150099GD44991+0240099GF108991999999999999999999MW1001REMMET076CYYJ 182216Z 14005KT 12SM FEW015 SCT020 BKN051 OVC080 RMK SF1SC2SC3AC2 PRFG;EQDQ01+000000PRSWM2
0353717990999992000092112004+48650-123430SY-MT+0019CYYJ V0202001N00151024001CN0240001N1+01141+01041101161ADDAA124001891GD12991+0120099GD23991+0240099GF199999031051012501071001GJ102709KA1999M+01871KA2120N+00971MA1101151100931MD1110011+9999MW1001REMSYN094AAXX  21124 71799 32674 62003 10114 20104 30093 40116 51001 83570 333 10187 20097 55045 70018;MET070CYYJ 211200Z 29004KT 15SM SCT040 BKN080 11/10 A2987 RMK SC3AC3 SLP116;EQDQ01+000062SCOTCVQ02+000000PRSWM2
0131717990999992000092610004+48650-123430FM-15+0019CYYJ V0202701N002112200019N0482801N1+00801+00601101821ADDGF100991999999999999999999MA1101831999999MW1001REMMET053CYYJ 261000Z 27004KT 30SM SKC 08/06 A3007 RMK SLP182;EQDQ01+000000PRSWM2
0153717990999992000092722004+48650-123430FM-15+0019CYYJ V0201201N002612200019N0724201N1+02101+00801101611ADDGD12991+0750099GF104991999999999999999999MA1101631999999MW1001REMMET060CYYJ 272200Z 12005KT 45SM SCT250 21/08 A3001 RMK CI2 SLP161;EQDQ01+000000PRSWM2
0178717990999992000092813004+48650-123430FM-15+0019CYYJ V0202701N002112200019N0482801N1+01001+00701101831ADDGD12991+0120099GD22991+0300099GF102991999999999999999999MA1101831999999MW1001REMMET070CYYJ 281300Z 27004KT 30SM FEW040 FEW100 10/07 A3007 RMK SC1AC1 SLP183;EQDQ01+000000PRSWM2
0203717990999992000100319004+48650-123430FM-15+0019CYYJ V0200101N003112200019N0482801N1+01301+00601102471ADDGD12991+0090099GD22991+0150099GD32991+0810099GF104991999999999999999999MA1102471999999MW1001REMMET080CYYJ 031900Z 01006KT 30SM SCT030 SCT050 SCT270 13/06 A3026 RMK CU3SC1CI0 SLP247;EQDQ01+000000PRSWM2
0128717990999992000100906284+48650-123430FM-16+0019CYYJ V0202701N001510057019N0112651N1+99999+99999999999ADDGD14991+0057099GF108991999999999999999999MW1001MW2611REMMET044CYYJ 090628Z 27003KT 7SM -RA OVC019 RMK SC8;EQDQ01+000003PRSWM1
0203717990999992000101019004+48650-123430FM-15+0019CYYJ V0203001N003610087019N0321861N1+01301+00901100971ADDGD12991+0060099GD23991+0087099GD33991+0210099GF107991999999999999999999MA1100981999999MW1001REMMET080CYYJ 101900Z 30007KT 20SM FEW020 BKN029 BKN075 13/09 A2982 RMK CU1SC6AC1 SLP097;EQDQ01+000000PRSWM2
0131717990999992000101110004+48650-123430FM-15+0019CYYJ V0202701N001512200019N0241401N1+00901+00801101231ADDGF100991999999999999999999MA1101221999999MW1001REMMET053CYYJ 111000Z 27003KT 15SM SKC 09/08 A2989 RMK SLP123;EQDQ01+000000PRSWM2
0214717990999992000101214004+48650-123430FM-15+0019CYYJ V0209999C000010003019N0008051N1+00401+00401101641ADDGD13991+0003099GD23991+0015099GF107991999999999999999999MA1101631999999MW1441REMMET090CYYJ 121400Z 00000KT 1/2SM FG BKN001 BKN005 04/04 A3001 RMK FG2SF2CF1 VSBY S-W 1/4 SLP164;EQDQ01+000003PRSWM1Q02    003PRSWM1
0215717990999992000101318084+48650-123430FM-16+0019CYYJ V0201401N002610108019N0096561N1+99999+99999999999ADDGD12991+0036099GD22991+0075099GD33991+0108099GD44991+0210099GF108991999999999999999999MW1001MW2101REMMET086CYYJ 131808Z 14005KT 6SM BR FEW012 SCT025 BKN036 OVC075 RMK CF1SC3SC2AC1 VSBY SW-N 4F;EQDQ01+000003PRSWM1
0211717990999992000102220004+48650-123430FM-15+0019CYYJ V0201301N002110180019N0482801N1+01001+00501103011ADDGD12991+0060099GD23991+0180099GD33991+0300099GF107991999999999999999999MA1103011999999MW1001REMMET088CYYJ 222000Z 13004KT 100V160 30SM FEW020 BKN063 BKN100 10/05 A3042 RMK SC1SC6AC2 SLP301;EQDQ01+000000PRSWM2
0283717990999992000102303004+48650-123430SY-MT+0019CYYJ V0202801N002610210019N0450001N1+00931+00641102711ADDGD12991+0180099GD23991+0210099GD33991+0300099GF107991999999017501999999MA1102711102471MD1610071+9999MW1001REMSYN060AAXX  23034 71799 42783 72805 10093 20064 30247 40271 56007;MET080CYYJ 230300Z 28005KT 30SM FEW065 BKN071 BKN100 09/06 A3033 RMK SC2AC4AC1 SLP271;EQDQ01+000000PRSWM2
0339717990999992000102815004+48650-123430SY-MT+0019CYYJ V0201501N001512200019N0450001N1+00761+00701099531ADDGD12991+0042099GD22991+0120099GD32991+0180099GD42991+0300099GF102991999999004501999999MA1099531099301MD1210171+9999MW1121REMSYN066AAXX  28154 71799 41483 21503 10076 20070 39930 49953 52017 712//;MET115CYYJ 281500Z 15003KT 30SM MIFG FEW014 FEW040 FEW060 FEW100 08/07 A2939 RMK CF1SC1SC1AC1 SHLW F PTCHS ON FLD SLP953;EQDQ01    003PRSWM1
0222717990999992000102902004+48650-123430FM-15+0019CYYJ V0201401N007710270019N0482801N1+01201+00701099891ADDGD12991+0075099GD22991+0240099GD33991+0270099GF107991999999999999999999MA1099901999999MW1001OC101031REMMET091CYYJ 290200Z 14015G20KT 110V180 30SM FEW025 SCT080 BKN092 12/07 A2950 RMK SC1AC3AC3 SLP989;EQDQ01+000000PRSWM2
0383717990999992000110318004+48650-123430SY-MT+0019CYYJ V0201101N00311012001CN0240001N1+01051+00871102501ADDAA124000791GD12991+0024099GD22991+0045099GD32991+0120099GD43991+0150099GF107991061081002501071001KA1120M+01071KA2240N+00701MA1102511102261MD1810051+9999MW1001REMSYN088AAXX  03184 71799 32374 71106 10105 20087 30226 40250 58005 86870 333 10107 20070 79999;MET100CYYJ 031800Z 11006KT 15SM FEW008 FEW015 SCT040 BKN055 BKN095 11/09 A3027 RMK CF1CF1SC3SC3AC1 SLP250;EQDQ01+000000PRSWM2
0238717990999992000110817004+48650-123430FM-15+0019CYYJ V0202801N002610150019N0321861N1+00701+00401101031ADDGD12991+0045099GD22991+0090099GD33991+0150099GD43991+0210099GF107991999999999999999999MA1101021999999MW1001REMMET100CYYJ 081700Z 28005KT 20SM FEW015 SCT030 BKN051 BKN075 BKN270 07/04 A2983 RMK CF1SC2SC2AC1CI0 SLP103;EQDQ01+000000PRSWM2
0213717990999992000111309004+48650-123430FM-15+0019CYYJ V0202501N001510240019N0160931N1+00401+00401102241ADDGD12991+0105099GD24991+0240099GF108991999999999999999999MA1102241999999MW1611REMMET089CYYJ 130900Z 25003KT 10SM -RA SCT035 OVC085 04/04 A3019 RMK SC3AC4 MOON DMLY VSBL SLP224;EQDQ01+000003PRSWM1Q02    003PRSWM1
0260717990999992000111317004+48650-123430FM-15+0019CYYJ V0203001N001010069019N0241401N1+00401+00301102151ADDGD12991+0045099GD23991+0069099GD33991+0105099GD43991+0240099GF107991999999999999999999MA1102131999999MW1611REMMET106CYYJ 131700Z 30002KT 15SM -RA FEW015 BKN023 BKN035 BKN080 04/03 A3016 RMK CF1SC4SC1AC2 VSBY HIER E SLP215;EQDQ01+000003PRSWM1Q02    003PRSWM1
0286717990999992000111521004+48650-123430SY-MT+0019CYYJ V0202701N001512200019N0300001N1+00621+00091102331ADDGD12991+0060099GD22991+0660099GF199999999999008001999999MA1102341102091MD1010001+9999MW1001REMSYN060AAXX  15214 71799 42580 12703 10062 20009 30209 40233 50000;MET082CYYJ 152100Z 27003KT 20SM FEW020 FEW220 06/01 A3022 RMK CU1CI1 VSBY HIER E SLP233;EQDQ01+000012SCOTCVQ02+000000PRSWM2
0161717990999992000111611004+48650-123430FM-15+0019CYYJ V0202601N002112200019N0321861N1-00101-00201102671ADDGD12991+0210099GF102991999999999999999999MA1102681999999MW1001REMMET068CYYJ 161100Z 26004KT 20SM FEW070 M01/M02 A3032 RMK AC2 FROIN SLP267;EQDQ01+000000PRSWM2
0203717990999992000111717004+48650-123430FM-15+0019CYYJ V0203001N002110066019N0321861N1+00401+00101103191ADDGD12991+0054099GD23991+0066099GD33991+0720099GF107991999999999999999999MA1103181999999MW1001REMMET080CYYJ 171700Z 30004KT 20SM FEW018 BKN022 BKN240 04/01 A3047 RMK CF1SC7CI1 SLP319;EQDQ01+000000PRSWM2
0223717990999992000112319154+48650-123430FM-16+0019CYYJ V0201301N001510090019N0096561N1+99999+99999999999ADDGD12991+0006099GD22991+0021099GD33991+0090099GD44991+0240099GF108991999999999999999999MW1001MW2101MW3511REMMET088CYYJ 231915Z 13003KT 6SM -DZ BR FEW002 SCT007 BKN030 OVC080 RMK CF2CF2SC3AC1 VSBY LWR N;EQDQ01+000003PRSWM1
0230717990999992000112511004+48650-123430FM-15+0019CYYJ V0209999C000010090019N0064371N1+00701+00701101881ADDGD12991+0024099GD22991+0039099GD34991+0090099GF108991999999999999999999MA1101861999999MW1101MW2631REMMET085CYYJ 251100Z 00000KT 4SM RA BR FEW008 SCT013 OVC030 07/07 A3008 RMK SF2SC2SC4 SLP188;EQDQ01+000003PRSWM1Q02    003PRSWM1
0203717990999992000120902004+48650-123430FM-15+0019CYYJ V0202401N001510033019N0160931N1+00501+00301101351ADDGD12991+0012099GD23991+0033099GD34991+0117099GF108991999999999999999999MA1101351999999MW1001REMMET080CYYJ 090200Z 24003KT 10SM FEW004 BKN011 OVC039 05/03 A2993 RMK SF1SC6SC2 SLP135;EQDQ01+000000PRSWM2
0204717990999992000121104004+48650-123430FM-15+0019CYYJ V0200601N009312200019N0321861N1+00101-01001102661ADDGD12991+0105099GD22991+0450099GD32991+0750099GF104991999999999999999999MA1102641999999MW1001REMMET081CYYJ 110400Z 06018KT 20SM FEW035 FEW150 SCT250 01/M10 A3031 RMK SC1AC1CI2 SLP266;EQDQ01+000000PRSWM2
0205717990999992000121317004+48650-123430FM-15+0019CYYJ V0202801N002610084019N0482801N1-00101-00301100971ADDGD12991+0060099GD23991+0084099GD34991+0300099GF108991999999999999999999MA1100951999999MW1001REMMET082CYYJ 131700Z 28005KT 30SM FEW020 BKN028 OVC100 M01/M03 A2981 RMK CF1SC7AC1 SLP097;EQDQ01+000000PRSWM2
0290717990999992000121821004+48650-123430SY-MT+0019CYYJ V0202901N001510330019N0450001N1+00491+00231102921ADDGD12991+0270099GD23991+0330099GD34991+0780099GF108991999999999999999999MA1102911102681MD1810401+9999MW1001REMSYN060AAXX  18214 71799 42983 82903 10049 20023 30268 40292 58040;MET087CYYJ 182100Z 29003KT 30SM FEW090 BKN110 OVC260 05/02 A3039 RMK AC2AS4CS1 PRESFR SLP292;EQDQ01+000000PRSWM2
0187717990999992000121907094+48650-123430FM-16+0019CYYJ V0203501N002610048019N0048281N1+99999+99999999999ADDGD12991+0018099GD23991+0048099GD34991+0300099GF108991999999999999999999MW1001MW2101MW3611REMMET067CYYJ 190709Z 35005KT 3SM -RA BR FEW006 BKN016 OVC100 RMK SF1SC6AS2;EQDQ01+000003PRSWM1
0203717990999992000122011004+48650-123430FM-15+0019CYYJ V0202901N001510300019N0482801N1+00201+00101102531ADDGD12991+0039099GD22991+0060099GD34991+0300099GF108991999999999999999999MA1102511999999MW1001REMMET080CYYJ 201100Z 29003KT 30SM FEW013 SCT020 OVC100 02/01 A3027 RMK CF2SC2AC4 SLP253;EQDQ01+000000PRSWM2
0223717990999992000122220004+48650-123430FM-15+0019CYYJ V0200901N004610066019N0241401N1+00701+00401101051ADDGD12991+0042099GD22991+0048099GD34991+0066099GF108991999999999999999999MA1101051999999MW1611REMMET084CYYJ 222000Z 09009KT 15SM -RA FEW014 SCT016 OVC022 07/04 A2984 RMK CF1SC4SC4 SLP105;EQDQ01+000003PRSWM1Q02    003PRSWM1
0178717990999992000122403254+48650-123430FM-16+0019CYYJ V0202601N002110240019N0128741N1+99999+99999999999ADDGD12991+0021099GD22991+0117099GD34991+0240099GF108991999999999999999999MW1001MW2611REMMET064CYYJ 240325Z 26004KT 8SM -RA FEW007 SCT039 OVC082 RMK SF2SC2AC4;EQDQ01+000003PRSWM1
0143717990999992000122410284+48650-123430FM-16+0019CYYJ V0202401N002112200019N0008051N1+99999+99999999999ADDGD12991+0006099GF104991999999999999999999MW1001MW2441REMMET059CYYJ 241028Z 24004KT 1/2SM FG SCT002 RMK FG2SF2 VSBY E-S 1;EQDQ01+000003PRSWM1
0173718000999992000010112004+46650-053070FM-12+0028CWRA V0203601N002119999999N9999999N1-00511-00681101861ADDAA106000091KA1999M-00081KA2999N-00831MA1999999101521MD1110121+9999REMSYN076AAXX  01124 71800 36/// /3604 11051 21068 30152 40186 51012 333 11008 21083;EQDQ01  00002PRCP06
0261718000999992000010706004+46650-053070SY-SA+0028CWRA V0203301N003119999999N9999999N1-00941-01211103541ADDAA106000091KA1240M-00321KA2240N-01061MA1999999103201MD1110071+9999MW1001REMSYN082AAXX  07064 71800 36/// /3306 11094 21121 30320 40354 51007 333 11032 21106 70000;AWY054WRA SA 0643 AUTO4 M M M 351/-10/-13/3206/M/ 0002 28MM;EQDQ01+000990PRSWM4Q02  00002PRCP06
0071718000999992000011301004+46650-053070SAO  +0028CWRA V0202101N008219999999N9999999N1+00001-00101999999ADDMW1001REMAWY053WRA SA 0143 AUTO4 M M M 957/00/-01/2116/M/ 1018 47MM;
0099718000999992000012505004+46650-053070SAO  +0028CWRA V0200801N005619999999N9999999N1-00101-00101999999ADDMW1001REMAWY081WRA SA 0543 AUTO4 M M M 131/-01/-01/0811/M/M PCPN 2.0MM PAST HR PRESFR 8060 82MM;
0265718000999992000012718004+46650-053070SY-SA+0028CWRA V0201601N009319999999N9999999N1+00231+00211101151ADDAA199999999KA1120M+00341KA2999N+00121MA1999999100821MD1610251+9999MW1001OC100971REMSYN076AAXX  27184 71800 46/// /1618 10023 20021 30082 40115 56025 333 10034 20012;AWY056WRA SA 1843 AUTO4 M M M 113/02/02/1714+19/M/M 6022 41MM;EQDQ01+000990PRSWM4Q02  99992PRCP99
0193718000999992000013003004+46650-053070SY-SA+0028CWRA V0200101N001019999999N9999999N1-00411-00491101551ADDMA1999999101221MD1810071+9999MW1001REMSYN066AAXX  30034 71800 46/// /0102 11041 21049 30122 40155 58007 90343;AWY055WRA SA 0343 AUTO4 M M M 155/-04/-05/0102/M/M 8007 19MM;EQDQ01+000990PRSWM4
0084718000999992000020810004+46650-053070SAO  +0028CWRA V0202701N011819999999N9999999N1-00601-00701999999ADDMW1001OC101541REMAWY058WRA SA 1043 AUTO4 M M M 011/-06/-07/2723+30/M/M 3009 98MM;
0073718000999992000021107004+46650-053070SAO  +0028CWRA V0200101N006619999999N9999999N1-00801-01101999999ADDMW1001REMAWY055WRA SA 0743 AUTO4 M M M 226/-08/-11/0113/M/M 6011 86MM;
0080718000999992000021505004+46650-053070SAO  +0028CWRA V0200901N004119999999N9999999N1-00201-00301999999ADDMW1001REMAWY062WRA SA 0543 AUTO4 M M M 221/-02/-03/0908/M/M PRESFR 8043 38MM;
0137718000999992000021521004+46650-053070FM-12+0028CWRA V0201801N014419999999N9999999N1+00101+00071100291ADDAA199000091MA1999999099961MD1610301+9999REMSYN066AAXX  15214 71800 36/// /1828 10010 20007 39996 40029 56030 92143;EQDQ01  00002PRCP99
0137718000999992000022309004+46650-053070FM-12+0028CWRA V0202801N004119999999N9999999N1-01101-01131103761ADDAA199000091MA1999999103411MD1110141+9999REMSYN066AAXX  23094 71800 36/// /2808 11110 21113 30341 40376 51014 90943;EQDQ01  00002PRCP99
0261718000999992000022606004+46650-053070SY-SA+0028CWRA V0203501N004119999999N9999999N1-00871-00931103031ADDAA124000091KA1240M-00251KA2240N-00871MA1999999102691MD1110161+9999MW1001REMSYN082AAXX  26064 71800 36/// /3508 11087 21093 30269 40303 51016 333 11025 21087 70000;AWY054WRA SA 0643 AUTO4 M M M 305/-08/-09/3613/M/ 1012 27MM;EQDQ01+000990PRSWM4Q02  00002PRCP24
0266718000999992000022718004+46650-053070SY-SA+0028CWRA V0202301N010319999999N9999999N1-00151-00211102461ADDAA199000091KA1120M-00091KA2999N-00521MA1999999102121MD1810201+9999MW1001OC101491REMSYN076AAXX  27184 71800 36/// /2320 11015 21021 30212 40246 58020 333 11009 21052;AWY057WRA SA 1843 AUTO4 M M M 244/-01/-02/2323+29/M/ 6020 17MM;EQDQ01+000990PRSWM4Q02  00002PRCP99
0089718000999992000031709004+46650-053070FM-12+0028CWRA V0201901N002619999999N9999999N1+99999+99999999999ADDMA1999999101761MD1110111+9999REMSYN048AAXX  17094 71800 46/// /1905 30176 51011 90943;
0083718000999992000040912004+46650-053070FM-12+0028CWRA V0200501N003619999999N9999999N1+99999+99999999999ADDMA1999999103141MD1110121+9999REMSYN042AAXX  09124 71800 46/// /0507 30314 51012;
0083718000999992000041912004+46650-053070FM-12+0028CWRA V0203201N004619999999N9999999N1+99999+99999999999ADDMA1999999102571MD1310061+9999REMSYN042AAXX  19124 71800 46/// /3209 30257 53006;
0083718000999992000051000004+46650-053070FM-12+0028CWRA V0202701N004619999999N9999999N1+99999+99999999999ADDMA1999999100351MD1310231+9999REMSYN042AAXX  10004 71800 46/// /2709 30035 53023;
0083718000999992000062112004+46650-053690FM-12+0028CWRA V0200401N009319999999N9999999N1+99999+99999999999ADDMA1999999100661MD1610021+9999REMSYN042AAXX  21124 71800 46/// /0418 30066 56002;
0089718000999992000062409004+46650-053690FM-12+0028CWRA V0202601N009319999999N9999999N1+99999+99999999999ADDMA1999999100661MD1110251+9999REMSYN048AAXX  24094 71800 46/// /2618 30066 51025 90943;
0083718000999992000062912004+46650-053690FM-12+0028CWRA V0201001N001019999999N9999999N1+99999+99999999999ADDMA1999999101041MD1110181+9999REMSYN042AAXX  29124 71800 46/// /1002 30104 51018;
0083718000999992000070600004+46650-053690FM-12+0028CWRA V0201501N007719999999N9999999N1+99999+99999999999ADDMA1999999100711MD1610241+9999REMSYN042AAXX  06004 71800 46/// /1515 30071 56024;
0089718000999992000070609004+46650-053690FM-12+0028CWRA V0201801N010319999999N9999999N1+99999+99999999999ADDMA1999999100481MD1310051+9999REMSYN048AAXX  06094 71800 46/// /1820 30048 53005 90943;
0083718000999992000071006004+46650-053690FM-12+0028CWRA V0202201N003619999999N9999999N1+99999+99999999999ADDMA1999999101651MD1110051+9999REMSYN042AAXX  10064 71800 46/// /2207 30165 51005;
0083718000999992000072500004+46650-053070FM-12+0028CWRA V02099999999999999999N9999999N1+99999+99999999999ADDMA1999999101651MD1310181+9999REMSYN042AAXX  25004 71800 46/// ///13 30165 53018;
0089718000999992000080109004+46650-053070FM-12+0028CWRA V0200401N016419999999N9999999N1+99999+99999999999ADDMA1999999101001MD1310111+9999REMSYN048AAXX  01094 71800 46/// /0432 30100 53011 90943;
0131718000999992000092415004+46650-053070FM-12+0028CWRA V0202001N005119999999N0140001N1+01251+01111101441ADDAA199000091MA1999999101121MD1810141+9999REMSYN060AAXX  24154 71800 36/64 /2010 10125 20111 30112 40144 58014;EQDQ01  00002PRCP99
0179718000999992000100312004+46650-053070FM-12+0028CWRA V0202301N005119999999N0080001N1+01321+01301101521ADDAA124000091KA1999M+01501KA2120N+01131MA1999999101201MD1610041+9999REMSYN082AAXX  03124 71800 36/58 /2310 10132 20130 30120 40152 56004 333 10150 20113 70000;EQDQ01  00002PRCP24
0154718000999992000111300004+46650-053070FM-12+0028CWRA V0200901N002619999999N9999999N1+00881+99999100701ADDAA124010991KA1120M+00991KA2180N+00711MA1999999100381MD1310131+9999REMSYN076AAXX  13004 71800 36/// /0905 10088 30038 40070 53013 333 10099 20071 70108;
0181718000999992000111306004+46650-053070FM-12+0028CWRA V0202101N003619999999N9999999N1+00881+99999100801ADDAA124010291KA1240M+01151KA2240N+00711MA1999999100481MD1310081+9999OA132401031REMSYN092AAXX  13064 71800 36/// /2107 10088 30048 40080 53008 333 10115 20071 70102 555 30520 40070;
0125718000999992000112315004+46650-053070FM-12+0028CWRA V0202701N012319999999N9999999N1+00371+99999100011ADDAA199000091MA1999999099691MD1010081+9999REMSYN054AAXX  23154 71800 36/// /2724 10037 39969 40001 50008;EQDQ01  00002PRCP99
0125718000999992000112409004+46650-053070FM-12+0028CWRA V0200201N008719999999N9999999N1+00031+99999100841ADDAA199000091MA1999999100511MD1310291+9999REMSYN054AAXX  24094 71800 36/// /0217 10003 30051 40084 53029;EQDQ01  00002PRCP99
0131718000999992000122509004+46650-053070FM-12+0028CWRA V0203101N013419999999N9999999N1-00271-00421099721ADDAA199000091MA1999999099391MD1110121+9999REMSYN060AAXX  25094 71800 36/// /3126 11027 21042 39939 49972 51012;EQDQ01  00002PRCP99
0155718010999992000010302004+47620-052730FM-15+0140CYYT V0202901N010312200019N0241401N1-00501-01001102411ADDGD12991+0360099GF102991999999999999999999MA1102341999999MW1001REMMET062CYYT 030200Z 29020KT 15SM FEW120 M05/M10 A3022 RMK AC1 SLP241;EQDQ01+000000PRSWM2
0217718010999992000010510004+47620-052730FM-15+0140CYYT V0202201N012310018019N0096561N1+01101+01001100351ADDGD13991+0018099GD24991+0045099GF108991999999999999999999MA1100271999999MW1101MW2611OC101751REMMET079CYYT 051000Z 22024G34KT 6SM -RA BR BKN006 OVC015 11/10 A2961 RMK SF7SC1 SLP035;EQDQ01+000003PRSWM1Q02    003PRSWM1
0186718010999992000011120524+47620-052730FM-16+0140CYYT V0201601N007710006019N0008051N1+99999+99999999999ADDED199U18299GD14991+0006099GF108991999999999999999999MW1001MW2611OC101291REMMET067CYYT 112052Z 16015G25KT 1/2SM R16/P6000FT -RA FG OVC002 RMK FG3SF5;EQDQ01+000440PRSWM3Q02+000003PRSWM1
0223718010999992000011420004+47620-052730FM-15+0140CYYT V0202601N010810540019N0241401N1-00101-00301099781ADDGD12991+0042099GD23991+0540099GD33991+0690099GF107991999999999999999999MA1099731999999MW1001OC101441REMMET092CYYT 142000Z 26021G28KT 15SM FEW014 BKN180 BKN230 M01/M03 A2945 RMK SC2AC4CI1 PRESRR SLP978;EQDQ01+000000PRSWM2
0417718010999992000011700004+47620-052730SY-MT+014099999V0203401N00671001801CN0024001N1-00491-00611101431ADDAA106001091AA224001891AJ199993999999999AY171061AY251061GD14991+0018099GF108991081071001501999999IA1309KA1120M-00451KA2180N-00751MA1101351099661MD1710151+9999MW1561OC100931REMSYN116    AAXX  17004 71801 11224 83413 11049 21061 39966 40143 57015 60011 75675 887// 333 11045 21075 42997 70018 90983;MET077CYYT 170000Z 34013G18KT 1 1/2SM -FZDZ BR OVC006 M05/M06 A2993 RMK SF8 SLP143;EQDQ01    003PRSWM1Q02  09982SNDP  
0180718010999992000012110004+47620-052730FM-15+0140CYYT V0202401N003112200019N0241401N1-00401-00701100681ADDGD12991+0045099GD22991+0360099GF102991999999999999999999MA1100611999999MW1001REMMET072CYYT 211000Z 24006KT 15SM FEW015 FEW120 M04/M07 A2971 RMK SC2AC1 SLP068;EQDQ01+000000PRSWM2
0417718010999992000012118004+47620-052730SY-MT+0140CYYT V0201201N008710012019N0024001N1+00011-00091100151ADDAA106000791AA224002091AJ199993999999999AY121061AY221061GD14991+0012099GF108991081071001501999999IA1259KA1120M+00011KA2240N-00531MA1100071098421MD1710741+9999MW1611OC101181REMSYN112AAXX  21184 71801 11224 81217 10001 21009 39842 40015 57074 69901 76122 887// 333 10001 21053 41997 70020 90910;MET081CYYT 211800Z 12017G23KT 1 1/2SM -RA BR OVC004 00/M01 A2955 RMK SF8 PRESFR SLP015;EQDQ01    003PRSWM1Q02  09982SNDP  
0344718010999992000012212004+47620-052730SY-MT+0140CYYT V0200901N00151000151CN0002001N1+00211+00191099211ADDAA106003091AA224040391AY121061AY221061GD15991+0001599GF109991091999000151999999KA1999M+00661KA2120N+00201MA1099191097521MD1610261+9999MW1611REMSYN100AAXX  22124 71801 11/02 90903 10021 20019 39752 49921 56026 60031 76122 333 10066 20020 70403 90952;MET067CYYT 221200Z 09003KT 1/8SM -RA FG VV001 02/02 A2929 RMK FG8 SLP921;EQDQ01    003PRSWM1
0180718010999992000012417004+47620-052730FM-15+0140CYYT V0201701N002110750019N0241401N1-00601-01001103201ADDGD12991+0075099GD24991+0750099GF108991999999999999999999MA1103081999999MW1001REMMET072CYYT 241700Z 17004KT 15SM FEW025 OVC250 M06/M10 A3044 RMK SC2CI4 SLP320;EQDQ01+000000PRSWM2
0182718010999992000012719004+47620-052730FM-15+0140CYYT V0201801N011310009019N0032181N1+01001+00901101101ADDGD14991+0009099GF108991999999999999999999MA1101081999999MW1101OC101591REMMET065CYYT 271900Z 18022G31KT 2SM BR OVC003 10/09 A2985 RMK SF8 SLP110;EQDQ01+000003PRSWM1Q02    003PRSWM1
0161718010999992000012721264+47620-052730FM-16+0140CYYT V0201901N013910006019N0016091N1+99999+99999999999ADDGD14991+0006099GF108991999999999999999999MW1001MW2611OC101951REMMET053CYYT 272126Z 19027G38KT 1SM -RA BR OVC002 RMK FG4SF4;EQDQ01+000100PRSWM3Q02+000003PRSWM1
0131718010999992000013101484+47620-052730FM-16+0140CYYT V0203301N004610054019N0193121N1+99999+99999999999ADDGD14991+0054099GF108991999999999999999999MW1001MW2851REMMET047CYYT 310148Z 33009KT 12SM -SHSN OVC018 RMK SC8;EQDQ01+000003PRSWM1
0166718010999992000020214354+47620-052730FM-16+0140CYYT V0201601N004110078019N0040231N1+99999+99999999999ADDGD12991+0045099GD24991+0078099GF108991999999999999999999MW1001MW2711REMMET067CYYT 021435Z 16008KT 2 1/2SM -SN FEW015 OVC026 RMK SF2SC6 VSBY N 8;EQDQ01+000003PRSWM1
0221718010999992000020916004+47620-052730FM-15+0140CYYT V0202501N013410081019N0160931N1-00201-00401101561ADDGD13991+0081099GD23991+0750099GF107991999999999999999999MA1101461999999MW1361OC101851REMMET089CYYT 091600Z 25026G36KT 10SM DRSN BKN027 BKN250 M02/M04 A2996 RMK SC6CI1 CC ASCTD SLP156;EQDQ01+000003PRSWM1Q02    003PRSWM1
0180718010999992000021313004+47620-052730FM-15+0140CYYT V0202901N008210750019N0241401N1-00801-01301102551ADDGD12991+0045099GD23991+0750099GF107991999999999999999999MA1102471999999MW1001REMMET072CYYT 131300Z 29016KT 15SM FEW015 BKN250 M08/M13 A3026 RMK SC1CI2 SLP255;EQDQ01+000000PRSWM2
0138718010999992000021516084+47620-052730FM-16+0140CYYT V0201801N007710009019N0032181N1+99999+99999999999ADDGD14991+0009099GF108991999999999999999999MW1001MW2101OC101341REMMET046CYYT 151608Z 18015G26KT 2SM BR OVC003 RMK SF8;EQDQ01+000003PRSWM1
0172718010999992000021810004+47620-052730FM-15+0140CYYT V0202801N012910081019N0241401N1-01001-01501100941ADDGD13991+0081099GF107991999999999999999999MA1100881999999MW1001OC101951REMMET071CYYT 181000Z 28025G38KT 15SM BKN027 M10/M15 A2979 RMK SC6 VIRGA SLP094;EQDQ01+000000PRSWM2
0164718010999992000022102394+47620-052730FM-16+0140CYYT V0200401N005710015019N0040231N1+99999+99999999999ADDGD14991+0015099GF108991999999999999999999MW1001MW2711REMMET064CYYT 210239Z 04011KT 2 1/2SM -SN DRSN OVC005 RMK SN4SF4 CIG RGD;EQDQ01+000360PRSWM3Q02+000003PRSWM1
0205718010999992000022104004+47620-052730FM-15+0140CYYT V0200601N004610018019N0048281N1-00501-00601100961ADDGD13991+0018099GD24991+0030099GF108991999999999999999999MA1100881999999MW1711REMMET081CYYT 210400Z 06009KT 3SM -SN BKN006 OVC010 M05/M06 A2979 RMK SF6SC2 /S04/ SLP096;EQDQ01+000003PRSWM1Q02    003PRSWM1
0182718010999992000030116004+47620-052730FM-15+0140CYYT V0200201N00621000151CN0002011N1+00101+00101100491ADDGD15991+0001599GF109991999999000251999999MA1100441999999MW1451MW2511REMMET067CYYT 011600Z 02012KT 1/8SM -DZ FG VV001 01/01 A2966 RMK FG8 SLP049;EQDQ01+000003PRSWM1Q02    003PRSWM1
0132718010999992000030819414+47620-052730FM-16+0140CYYT V0203601N007710015019N0040231N1+99999+99999999999ADDGD14991+0015099GF108991999999999999999999MW1001MW2711REMMET048CYYT 081941Z 36015KT 2 1/2SM -SN OVC005 RMK SF8;EQDQ01+000003PRSWM1
0197718010999992000030902004+47620-052730FM-15+0140CYYT V0203601N007710012019N0024141N1-00101-00201100551ADDGD14991+0012099GF108991999999999999999999MA1100471999999MW1101MW2561MW3711REMMET092CYYT 090200Z 36015KT 1 1/2SM -SN -FZDZ BR OVC004 M01/M02 A2967 RMK FG3SF5 DRSN /S01/ SLP055;EQDQ01+000003PRSWM1
0372718010999992000031618004+47620-052730SY-MT+0140CYYT V0202101N01131030001CN0240001N1+01001+00451102321ADDAA124000391GD12991+0075099GD23991+0300099GD34991+0630099GF108991041051008001071071KA1120M+01031KA2240N-00341MA1102271100581MD1710231+9999MW1001OC102011REMSYN088AAXX  16184 71801 32574 82122 10100 20045 30058 40232 57023 84577 333 10103 21034 70002;MET096CYYT 161800Z 21022G39KT 15SM SCT025 BKN100 OVC210 10/05 A3020 RMK SC4AC2CS2 TCU ASOCTD N SLP232;EQDQ01+000000PRSWM2
0217718010999992000031722004+47620-052730FM-15+0140CYYT V0200501N00361000151CN0004021N1-00201-00301101481ADDED199U07329GD15991+0001599GF109991999999000251999999MA1101421999999MW1491MW2561REMMET091CYYT 172200Z 05007KT 1/4SM R11/2400FT -FZDZ FZFG VV002 M02/M03 A2995 RMK FG8 REFZRA SLP148;EQDQ01+000003PRSWM1Q02    003PRSWM1
0205718010999992000032020004+47620-052730FM-15+0140CYYT V0200401N004610054019N0241401N1-00101-00201103491ADDGD12991+0024099GD23991+0054099GD34991+0135099GF108991999999999999999999MA1103421999999MW1001REMMET082CYYT 202000Z 04009KT 15SM FEW008 BKN018 OVC045 M01/M02 A3054 RMK SF1SC7SC1 SLP349;EQDQ01+000000PRSWM2
0272718010999992000032200004+47620-052730SY-MT+0140CYYT V0200301N003112200019N0240001N1-00301-00511103691ADDAA124000791GF100991001001999999001001KA1120M+00081KA2180N-00301MA1103621101901MD1310061+9999MW1001REMSYN082AAXX  22004 71801 32974 00306 11030 21051 30190 40369 53006 333 10008 21030 79999;MET055CYYT 220000Z 03006KT 15SM SKC M03/M05 A3060 RMK SLP369;EQDQ01+000000PRSWM2
0259718010999992000032615004+47620-052730SY-MT+0140CYYT V0203101N007710126019N0240001N1+00111-00321100531ADDGD12991+0075099GD23991+0126099GF107991999999008001999999MA1100471098801MD1110121+9999MW1001REMSYN060AAXX  26154 71801 42574 73115 10011 21032 39880 40053 51012;MET071CYYT 261500Z 31015KT 15SM FEW025 BKN042 01/M03 A2967 RMK SC1SC6 SLP053;EQDQ01+000000PRSWM2
0170718010999992000032714384+47620-052730FM-16+0140CYYT V0201501N00671000151CN0010061N1+99999+99999999999ADDED199U07929GD15991+0001599GF109991999999000251999999MW1001MW2511REMMET059CYYT 271438Z 15013KT 5/8SM R16/2600FT -DZ BR VV001 RMK FG8;EQDQ01+000100PRSWM3Q02+000003PRSWM1
0173718010999992000032919514+47620-052730FM-16+0140CYYT V0201301N01031000151CN0012071N1+99999+99999999999ADDED199U18299GD15991+0001599GF109991999999000251999999MW1001MW2661REMMET062CYYT 291951Z 13020KT 3/4SM R11/P6000FT -FZRA BR VV002 RMK FG8;EQDQ01+000100PRSWM3Q02+000003PRSWM1
0280718010999992000033015004+47620-052730SY-MT+0140CYYT V0201701N00931000151CN0012001N1+00621+00611101721ADDED199U18299GD15991+0001599GF109991091999000151999999MA1101661099981MD1810101+9999MW1511OC101341REMSYN066AAXX  30154 71801 41/12 91718 10062 20061 39998 40172 58010 751//;MET082CYYT 301500Z 17018G26KT 3/4SM R16/P6000FT -DZ BR VV002 06/06 A3002 RMK FG8 SLP172;EQDQ01    003PRSWM1
0195718010999992000033017004+47620-052730FM-15+0140CYYT V0201701N00411000151CN0012071N1+00701+00601101761ADDED199U18299GD15991+0001599GF109991999999000251999999MA1101691999999MW1101REMMET075CYYT 301700Z 17008KT 3/4SM R16/P6000FT BR VV002 07/06 A3003 RMK FG8 SLP176;EQDQ01+000003PRSWM1Q02    003PRSWM1
0154718010999992000033107004+47620-052730FM-15+0140CYYT V0202401N004112200019N0241401N1+00301-00201102141ADDGD12991+0600099GF102991999999999999999999MA1102101999999MW1001REMMET061CYYT 310700Z 24008KT 15SM FEW200 03/M02 A3015 RMK CI1 SLP214;EQDQ01+000000PRSWM2
0218718010999992000040110004+47620-052730FM-15+0140CYYT V0201801N00771000151CN0008051N1+00801+00701101091ADDED199U18299GD15991+0001599GF109991999999000251999999MA1101051999999MW1451MW2801OC101291REMMET084CYYT 011000Z 18015G25KT 1/2SM R16/P6000FT -SHRA FG VV001 08/07 A2984 RMK FG8 SLP109;EQDQ01+000003PRSWM1Q02    003PRSWM1
0180718010999992000040120054+47620-052730FM-16+0140CYYT V0202301N006710150019N0241401N1+99999+99999999999ADDGD12991+0027099GD23991+0150099GD33991+0750099GF107991999999999999999999MW1001OC101181REMMET064CYYT 012005Z 23013G23KT 15SM FEW009 BKN050 BKN250 RMK SF2SC2CI2;EQDQ01+000000PRSWM2
0190718010999992000040213004+47620-052730FM-15+0140CYYT V0202601N008212200019N0241401N1+00501-00201101321ADDGD12991+0075099GD22991+0300099GF102991999999999999999999MA1101251999999MW1001OC101341REMMET074CYYT 021300Z 26016G26KT 15SM FEW025 FEW100 05/M02 A2990 RMK CF0AC0 SLP132;EQDQ01+000000PRSWM2
0164718010999992000040319004+47620-052730FM-15+0140CYYT V0202601N010310024019N0160931N1+00601+00401100551ADDGD13991+0024099GF107991999999999999999999MA1100511999999MW1001OC101341REMMET063CYYT 031900Z 26020G26KT 10SM BKN008 06/04 A2968 RMK SF5 SLP055;EQDQ01+000000PRSWM2
0338718010999992000041618004+47620-052730SY-MT+0140CYYT V0201101N00211024001CN0240001N1+00301-00251101161ADDAA124000891GD12991+0060099GD24991+0240099GF108991021051008001011001KA1120M+00481KA2240N+00031MA1101081099421MD1710151+9999MW1001REMSYN088AAXX  16184 71801 32574 81104 10030 21025 39942 40116 57015 82510 333 10048 20003 70007;MET085CYYT 161800Z 11004KT 15SM FEW020 OVC080 03/M02 A2985 RMK SC2AS6 SUN DMLY VSBL SLP116;EQDQ01+000000PRSWM2
0208718010999992000042116004+47620-052730FM-15+0140CYYT V0200601N00671000151CN0006041N1+00001-00101101261ADDED199U04279GD15991+0001599GF109991999999000251999999MA1101191999999MW1491MW2711REMMET082CYYT 211600Z 06013KT 3/8SM R11/1400FT -SN FZFG VV002 M00/M01 A2988 RMK FG8 SLP126;EQDQ01+000003PRSWM1Q02    003PRSWM1
0276718010999992000042215004+47620-052730SY-MT+0140CYYT V0203501N003110720019N0240001N1-00031-00171102241ADDGD12991+0021099GD23991+0720099GF199999999999002501999999MA1102171100481MD1110141+9999MW1001REMSYN060AAXX  22154 71801 42374 63506 11003 21017 30048 40224 51014;MET072CYYT 221500Z 35006KT 15SM FEW007 BKN240 M00/M02 A3017 RMK SF2CI0 SLP224;EQDQ01+000062SCOTCVQ02+000000PRSWM2
0382718010999992000042406004+47620-052730SY-MT+0140CYYT V0201501N01031000151CN0020001N1+00291+00231101931ADDAA106000792AA224000692AC11I9AY141061AY241061GD15991+0001599GF109991091999000151999999KA1240M+00331KA2240N-00181MA1101861100181MD1610181+9999MW1511OA132401291REMSYN116AAXX  24064 71801 11/20 91520 10029 20023 30018 40193 56018 69901 75144 333 10033 21018 70006 90952 555 31525 40051;MET072CYYT 240600Z 15020G25KT 1 1/4SM -DZ BR VV002 03/02 A3008 RMK FG8 SLP193;EQDQ01    003PRSWM1
0280718010999992000042609004+47620-052730SY-MT+0140CYYT V0200101N005710018019N0016001N1-00161-00341101791ADDED199U18299GD14991+0018099GF108991999999001501999999MA1101731100041MD1210211+9999MW1851OC100871REMSYN066AAXX  26094 71801 41216 80111 11016 21034 30004 40179 52021 785//;MET082CYYT 260900Z 01011G17KT 1SM R29/P6000FT -SHSN OVC006 M02/M03 A3004 RMK ST8 SLP179;EQDQ01    003PRSWM1
0206718010999992000042819004+47620-052730FM-15+0140CYYT V0202401N004110075019N0032181N1+01301+01201100571ADDGD12991+0015099GD24991+0075099GF108991999999999999999999MA1100541999999MW1101MW2611REMMET076CYYT 281900Z 24008KT 2SM -RA BR SCT005 OVC025 13/12 A2969 RMK SF4SC4 SLP057;EQDQ01+000003PRSWM1Q02    003PRSWM1
0222718010999992000042908004+47620-052730FM-15+0140CYYT V0202601N001510006019N0016091N1+00401+00301100841ADDED199U18299GD13991+0006099GD24991+0018099GF108991999999999999999999MA1100811999999MW1101REMMET087CYYT 290800Z 26003KT 1SM R29/P6000FT BR BKN002 OVC006 04/03 A2977 RMK FG5SF2SF2 SLP084;EQDQ01+000003PRSWM1Q02    003PRSWM1
0182718010999992000043018284+47620-052730FM-16+0140CYYT V0201601N00621000151CN0006041N1+99999+99999999999ADDED199U13729GD15991+0001599GF109991999999000251999999MW1001MW2451MW3511OC101291REMMET073CYYT 301828Z 16012G25KT 3/8SM R11/4500FT R16/5000FT -DZ FG VV002 RMK FG8;EQDQ01+000003PRSWM1
0155718010999992000050801004+47620-052730FM-15+0140CYYT V0201701N005112200019N0241401N1-00201-00401101921ADDGD12991+0660099GF102991999999999999999999MA1101861999999MW1001REMMET062CYYT 080100Z 17010KT 15SM FEW220 M02/M04 A3008 RMK CI1 SLP192;EQDQ01+000000PRSWM2
0179718010999992000051117004+47620-052730FM-15+0140CYYT V0200901N004612200019N0241401N1+00701-00401101911ADDGD12991+0360099GD22991+0660099GF104991999999999999999999MA1101861999999MW1001REMMET071CYYT 111700Z 09009KT 15SM FEW120 SCT220 07/M04 A3008 RMK AC1CI0 SLP191;EQDQ01+000000PRSWM2
0142718010999992000051802004+47620-052730FM-15+0140CYYT V0202501N007212200019N0241401N1+00801+00401101741ADDGF100991999999999999999999MA1101731999999MW1001OC101031REMMET056CYYT 180200Z 25014G20KT 15SM SKC 08/04 A3004 RMK SLP174;EQDQ01+000000PRSWM2
0194718010999992000052101004+47620-052730FM-15+0140CYYT V0201401N00151000151CN0004021N1+00401+00401102151ADDED199U05499GD15991+0001599GF109991999999000251999999MA1102101999999MW1451REMMET074CYYT 210100Z 14003KT 1/4SM R11/1800FT FG VV001 04/04 A3015 RMK FG8 SLP215;EQDQ01+000003PRSWM1Q02    003PRSWM1
0151718010999992000052817424+47620-052730FM-16+0140CYYT V0200501N00361000151CN0008051N1+99999+99999999999ADDED199U18299GD15991+0001599GF109991999999000251999999MW1001MW2451REMMET056CYYT 281742Z 05007KT 1/2SM R11/P6000FT FG VV001 RMK FG8;EQDQ01+000003PRSWM1
0374718010999992000053112004+47620-052730SY-MT+0140CYYT V0202901N00311060001CN0240001N1+00941-00031102571ADDAA124000791AY141061AY241061GD13991+0600099GF107991001001999999001011GJ100009KA1999M+99999KA2120N-00041MA1102541100831MD1510001+9999MW1031MW2401REMSYN100AAXX  31124 71801 31974 72906 10094 21003 30083 40257 55000 70344 80001 333 10064 21004 55000 79999;MET078CYYT 311200Z 29006KT 15SM VCFG BKN200 09/M00 A3028 RMK CI5 FOG OVR SEA SLP257;EQDQ01    003PRSWM1Q02 +00642ATMX  
0189718010999992000060208004+47620-052730FM-15+0140CYYT V0202701N015410750019N0241401N1+00701+00401100121ADDGD12991+0075099GD23991+0750099GF107991999999999999999999MA1100101999999MW1001OC101851REMMET073CYYT 020800Z 27030G36KT 15SM SCT025 BKN250 07/04 A2956 RMK SC4CI1 SLP012;EQDQ01+000000PRSWM2
0154718010999992000060601004+47620-052730FM-15+0140CYYT V0202501N004112200019N0241401N1+00801-00301102481ADDGD12991+0135099GF102991999999999999999999MA1102441999999MW1001REMMET061CYYT 060100Z 25008KT 15SM FEW045 08/M03 A3025 RMK SC1 SLP248;EQDQ01+000000PRSWM2
0160718010999992000060613004+47620-052730FM-15+0140CYYT V0200101N005112200019N0241401N1+01001-00501102941ADDGD12991+0120099GF102991999999999999999999MA1102911999999MW1001REMMET067CYYT 061300Z 01010KT 15SM FEW040 10/M05 A3039 RMK CF1 TR CF SLP294;EQDQ01+000000PRSWM2
0169718010999992000060706444+47620-052730FM-16+0140CYYT V0201301N003610810019N0241401N1+99999+99999999999ADDGD12991+0018099GD22991+0660099GD33991+0810099GF107991999999999999999999MW1001REMMET061CYYT 070644Z 13007KT 15SM FEW006 SCT220 BKN270 RMK SC1CI3CI3;EQDQ01+000000PRSWM2
0152718010999992000061213004+47620-052730FM-15+0140CYYT V0200301N007710015019N0128741N1+00301+00201102311ADDGD14991+0015099GF108991999999999999999999MA1102271999999MW1001REMMET059CYYT 121300Z 03015KT 8SM OVC005 03/02 A3020 RMK SF8 SLP231;EQDQ01+000000PRSWM2
0178718010999992000061419004+47610-052730FM-15+0140CYYT V0201301N005112200019N0241401N1+01301+00301102291ADDGD12991+0120099GD22991+0690099GF102991999999999999999999MA1102271999999MW1001REMMET070CYYT 141900Z 13010KT 15SM FEW040 FEW230 13/03 A3020 RMK CU1CI0 SLP229;EQDQ01+000000PRSWM2
0178718010999992000062019004+47610-052730FM-15+0140CYYT V0201501N003610660019N0241401N1+01901+00901101291ADDGD12991+0120099GD23991+0660099GF107991999999999999999999MA1101251999999MW1001REMMET070CYYT 201900Z 15007KT 15SM FEW040 BKN220 19/09 A2990 RMK CU1CI4 SLP129;EQDQ01+000000PRSWM2
0194718010999992000062907004+47610-052730FM-15+0140CYYT V0202801N00311000151CN0004021N1+01101+01101101131ADDED199U04889GD15991+0001599GF109991999999000251999999MA1101081999999MW1451REMMET074CYYT 290700Z 28006KT 1/4SM R29/1600FT FG VV001 11/11 A2985 RMK FG8 SLP113;EQDQ01+000003PRSWM1Q02    003PRSWM1
0194718010999992000070407004+47610-052730FM-15+0140CYYT V0209999C00001000151CN0004021N1+01201+01101101601ADDED199U03669GD15991+0001599GF109991999999000251999999MA1101591999999MW1451REMMET074CYYT 040700Z 00000KT 1/4SM R16/1200FT FG VV001 12/11 A3000 RMK FG8 SLP160;EQDQ01+000003PRSWM1Q02    003PRSWM1
0178718010999992000071011004+47610-052730FM-15+0140CYYT V0202301N003110750019N0241401N1+01601+01201102041ADDGD12991+0030099GD23991+0750099GF107991999999999999999999MA1102031999999MW1001REMMET070CYYT 101100Z 23006KT 15SM FEW010 BKN250 16/12 A3013 RMK SF1CI2 SLP204;EQDQ01+000000PRSWM2
0189718010999992000071720004+47610-052730FM-15+0140CYYT V0201801N005110720019N0241401N1+01901+00801102701ADDGD12991+0360099GD23991+0720099GF107991999999999999999999MA1102681999999MW1001OC100871REMMET073CYYT 172000Z 18010G17KT 15SM SCT120 BKN240 19/08 A3032 RMK AC4CI2 SLP270;EQDQ01+000000PRSWM2
0247718010999992000071809004+47610-052730SY-MT+0140CYYT V0201601N005710006019N0090001N1+01441+01371102191ADDGD14991+0006099GF108991999999000751999999MA1102171100491MD1610171+9999MW1101MW2441REMSYN066AAXX  18094 71801 41159 81611 10144 20137 30049 40219 56017 744//;MET062CYYT 180900Z 16011KT 6SM BR OVC002 14/14 A3017 RMK ST8 SLP219;EQDQ01    003PRSWM1
0153718010999992000072207004+47610-052730FM-15+0140CYYT V0203401N002110024019N0241401N1+01101+00901101291ADDGD14991+0024099GF108991999999999999999999MA1101291999999MW1001REMMET060CYYT 220700Z 34004KT 15SM OVC008 11/09 A2991 RMK ST8 SLP129;EQDQ01+000000PRSWM2
0178718010999992000072617004+47610-052730FM-15+0140CYYT V0200701N003612200019N0241401N1+01501+01101103061ADDGD12991+0042099GD22991+0075099GF104991999999999999999999MA1103051999999MW1001REMMET070CYYT 261700Z 07007KT 15SM FEW014 SCT025 15/11 A3043 RMK SC2SC2 SLP306;EQDQ01+000000PRSWM2
0153718010999992000080417004+47610-052730FM-15+0140CYYT V0202101N004610066019N0241401N1+02101+01801101421ADDGD14991+0066099GF108991999999999999999999MA1101421999999MW1001REMMET060CYYT 041700Z 21009KT 15SM OVC022 21/18 A2995 RMK SC8 SLP142;EQDQ01+000000PRSWM2
0178718010999992000080601004+47610-052730FM-15+0140CYYT V0202501N007210690019N0193121N1+01801+01201101091ADDGD12991+0450099GD23991+0690099GF107991999999999999999999MA1101081999999MW1001REMMET070CYYT 060100Z 25014KT 12SM FEW150 BKN230 18/12 A2985 RMK AC2CI3 SLP109;EQDQ01+000000PRSWM2
0188718010999992000080901004+47610-052730FM-15+0140CYYT V0202701N006210009019N0024141N1+01801+01801100691ADDGD14991+0009099GF108991999999999999999999MA1100681999999MW1101MW2511REMMET073CYYT 090100Z 27012KT 1 1/2SM -DZ BR OVC003 18/18 A2973 RMK FG2SF6 SLP069;EQDQ01+000003PRSWM1Q02    003PRSWM1
0171718010999992000081202004+47610-052730FM-15+0140CYYT V0200301N003110015019N0096561N1+01301+01201101691ADDGD14991+0015099GF108991999999999999999999MA1101661999999MW1101REMMET062CYYT 120200Z 03006KT 6SM BR OVC005 13/12 A3002 RMK SF8 SLP169;EQDQ01+000003PRSWM1Q02    003PRSWM1
0328718010999992000081312004+47610-052730SY-MT+0140CYYT V0209999C000012200019N0240001N1+01411+00981102201ADDAA124000091GD12991+0060099GF104991041051008001001001GJ101809KA1999M+01701KA2120N+01001MA1102171100481MD1110111+9999MW1001REMSYN094AAXX  13124 71801 32574 40000 10141 20098 30048 40220 51011 84500 333 10170 20100 55030 70000;MET060CYYT 131200Z 00000KT 15SM SCT020 14/10 A3017 RMK SC4 SLP220;EQDQ01+000000PRSWM2Q02  00002PRCP24
0323718010999992000081618004+47610-052730SY-MT+0140CYYT V0202601N006212200019N0240001N1+02711+02061101741ADDAA124000791GD12991+0075099GD22991+0360099GF102991011011008001041001KA1120M+02761KA2240N+01541MA1101761100061MD1610041+9999MW1001REMSYN088AAXX  16184 71801 32574 22612 10271 20206 30006 40174 56004 81140 333 10276 20154 79999;MET070CYYT 161800Z 26012KT 15SM FEW025 FEW120 27/21 A3005 RMK CU1AC1 SLP174;EQDQ01+000000PRSWM2
0150718010999992000081708054+47610-052730FM-16+0140CYYT V0202601N00411000151CN0008051N1+99999+99999999999ADDED199U07929GD15991+0001599GF109991999999000251999999MW1001MW2451REMMET055CYYT 170805Z 26008KT 1/2SM R29/2600FT FG VV002 RMK FG8;EQDQ01+000003PRSWM1
0185718010999992000082518324+47610-052730FM-16+0140CYYT V0201901N007710024019N0064371N1+99999+99999999999ADDGD13991+0024099GD24991+0180099GF108991999999999999999999MW1001MW2801OC101291REMMET062CYYT 251832Z 19015G25KT 4SM -SHRA BR BKN008 OVC060 RMK SC6SC2;EQDQ01+000100PRSWM3Q02+000003PRSWM1
0219718010999992000083001004+47610-052730FM-15+0140CYYT V0203001N006710039019N0128741N1+01101+00901101571ADDGD13991+0039099GD24991+0150099GF108991999999999999999999MA1101561999999MW1101MW2801OC100931REMMET081CYYT 300100Z 30013G18KT 8SM -SHRA BR BKN013 OVC050 11/09 A2999 RMK SF6SC2 SLP157;EQDQ01+000003PRSWM1Q02    003PRSWM1
0189718010999992000090523004+47610-052730FM-15+0140CYYT V0202801N006712200019N0241401N1+01201+00601100601ADDGD12991+0060099GD22991+0600099GF102991999999999999999999MA1100581999999MW1001OC100931REMMET073CYYT 052300Z 28013G18KT 15SM FEW020 FEW200 12/06 A2970 RMK SC1CI1 SLP060;EQDQ01+000000PRSWM2
0178718010999992000091416004+47610-052730FM-15+0140CYYT V0201601N002612200019N0241401N1+02301+01501101361ADDGD12991+0090099GD22991+0450099GF102991999999999999999999MA1101351999999MW1001REMMET070CYYT 141600Z 16005KT 15SM FEW030 FEW150 23/15 A2993 RMK SC1AC2 SLP136;EQDQ01+000000PRSWM2
0152718010999992000091610004+47610-052730FM-15+0140CYYT V0201601N002112200019N0241401N1+00801+00801102321ADDGF100991999999999999999999MA1102271999999MW1121REMMET058CYYT 161000Z 16004KT 15SM MIFG SKC 08/08 A3020 RMK SLP232;EQDQ01+000003PRSWM1Q02    003PRSWM1
0153718010999992000091810004+47610-052730FM-15+0140CYYT V0202101N006212200019N0241401N1+01201+01101101441ADDGD12991+0054099GF102991999999999999999999MA1101421999999MW1001REMMET060CYYT 181000Z 21012KT 15SM FEW018 12/11 A2995 RMK SF1 SLP144;EQDQ01+000000PRSWM2
0258718010999992000092409004+47610-052730SY-MT+0140CYYT V0201901N001512200019N0240001N1+00341+00221101631ADDGD12991+0360099GD22991+0630099GF103991999999999999999999MA1101591099911MD1810021+9999MW1001REMSYN060AAXX  24094 71801 42974 31903 10034 20022 39991 40163 58002;MET070CYYT 240900Z 19003KT 15SM FEW120 SCT210 03/02 A3000 RMK AC2CI1 SLP163;EQDQ01+000000PRSWM2
0178718010999992000092611004+47610-052730FM-15+0140CYYT V0203001N002110060019N0241401N1+00701+00401101761ADDGD13991+0060099GD23991+0660099GF107991999999999999999999MA1101731999999MW1001REMMET070CYYT 261100Z 30004KT 15SM BKN020 BKN220 07/04 A3004 RMK SC5CI1 SLP176;EQDQ01+000000PRSWM2
0337718010999992000093012004+47610-052730SY-MT+0140CYYT V0203001N005712200019N0240001N1+00621+00131102531ADDAA124002391GD12991+0060099GD22991+0750099GF103991021051008001001021GJ100729KA1999M+01351KA2120N+00191MA1102471100791MD1310171+9999MW1001REMSYN094AAXX  30124 71801 32574 33011 10062 20013 30079 40253 53017 82502 333 10135 20019 55012 70022;MET070CYYT 301200Z 30011KT 15SM FEW020 SCT250 06/01 A3026 RMK SC2CI1 SLP253;EQDQ01+000000PRSWM2
0250718010999992000101621004+47610-052730SY-MT+0140CYYT V0203101N005110141019N0240001N1+00231-00711102011ADDGD13991+0141099GF199999999999012501999999MA1101961100261MD1310291+9999MW1001REMSYN060AAXX  16214 71801 42674 63110 10023 21071 30026 40201 53029;MET061CYYT 162100Z 31010KT 15SM BKN047 02/M07 A3011 RMK SC6 SLP201;EQDQ01+000062SCOTCVQ02+000000PRSWM2
0204718010999992000110117004+47610-052730FM-15+0140CYYT V0200701N00461000151CN0004021N1+00601+00601102041ADDED199U03059GD15991+0001599GF109991999999000251999999MA1102001999999MW1451MW2511REMMET078CYYT 011700Z 07009KT 1/4SM R11/1000FT -DZ FG VV001 06/06 A3012 RMK FG8 SLP204;EQDQ01+000003PRSWM1Q02    003PRSWM1
0366718010999992000110318004+47610-052730SY-MT+0140CYYT V0200401N00571000151CN0002001N1+00591+00561101331ADDAA106000891AA224005291AY161061AY241061ED199U02749GD15991+0001599GF109991091999000151999999KA1120M+00731KA2240N+00521MA1101291099611MD1210071+9999MW1511REMSYN100AAXX  03184 71801 11/02 90411 10059 20056 39961 40133 52007 69981 75164 333 10073 20052 70052 90983;MET078CYYT 031800Z 04011KT 1/8SM R11/0900FT -DZ FG VV001 06/06 A2991 RMK FG8 SLP133;EQDQ01    003PRSWM1
