0071726387148502000070123009+44733-085583NSRDB+018899999V020999999999999999999999999999+99999+99999999999ADDGP10060041202008058602015012502008GQ100600607927439GR100600646913219
0071726387148502000070322009+44733-085583NSRDB+018899999V020999999999999999999999999999+99999+99999999999ADDGP10060059602008074602015011702008GQ100600501926339GR100600846913219
0372726387148502000070323533+44733-085583FM-15+0188TVC  V0203605N00415220005MN0160005N1+02175+01005101555ADDGD11995+0121959GF102991999999999999999999KA1999M+02391KA2999N+02111MA1101595999999MD1310031+9999MW1001REMMET088KTVC 032353Z 36008KT 10SM FEW040 22/10 A3000 RMK AO2 SLP155 T02170100 10239 20211 53003;EQDQ01+000000PRSWM2N01 00000JPWTH 0QNNAA1D0 02040BA1 0 01040GA1U0 99999KA1D0 00050JA1 0 00100LA1 0 01000CA1 0 03000NA1 0 00000QA1 0 10155SA1D0 00071RA1 0 00217YA1 0 36008
0071726387148502000070419009+44733-085583NSRDB+018899999V020999999999999999999999999999+99999+99999999999ADDGP10060087402008070102015023202008GQ100600239920519GR100601208913219
0358726387148502000070803533+44733-085583FM-15+0188TVC  V0209999C00005039625MN0160005N1+01615+01285101995ADDGD13995+0396259GD24995+0762059GF108991999999999999999999MA1102005999999MW1001REMMET077KTVC 080353Z 00000KT 10SM BKN130 OVC250 16/13 A3012 RMK AO2 SLP199 T01610128;EQDQ01+000000PRSWM2N01 00000JPWTH 0QNNAA1D0 04130BA1 0 04130AA1D0 06250BA1 0 06250GA1 0 00130KA1D0 00055JA1 0 00128LA1 0 01000CA1 0 03012NA1 0 00000QA1 0 10199SA1D0 00061RA1 0 00161YA1 0 00000
0071726387148502000070900009+44733-085583NSRDB+018899999V020999999999999999999999999999+99999+99999999999ADDGP10060012602008001702015012002008GQ100600714928349GR100600421913219
0071726387148502000070901009+44733-085583NSRDB+018899999V020999999999999999999999999999+99999+99999999999ADDGP10060006902008013502015004902008GQ100600814929329GR100600197913219
0316726387148502000071202533+44733-085583FM-15+0188TVC  V0209999C00005220005MN0160005N1+01835+01335101765ADDGF100991999999999999999999MA1101795999999MD1310091+9999MW1001REMMET073KTVC 120253Z 00000KT 10SM CLR 18/13 A3006 RMK AO2 SLP176 T01830133 53009;EQDQ01+000000PRSWM2N01 00000JPWTH 0QNNAA1D0 00000BA1 0 00000GA1U0 99999KA1D0 00056JA1 0 00133LA1 0 01000CA1 0 03006NA1 0 00000QA1 0 10176SA1D0 00065RA1 0 00183YA1 0 00000
0071726387148502000071518009+44733-085583NSRDB+018899999V020999999999999999999999999999+99999+99999999999ADDGP10060087502008064902015028102008GQ100600239916959GR100601209913229
0334726387148502000071602533+44733-085583FM-15+0188TVC  V0203005N00265220005MN0160005N1+02065+01615100935ADDGD12995+0152459GF104991999999999999999999MA1100955999999MD1010021+9999MW1001REMMET076KTVC 160253Z 30005KT 10SM SCT050 21/16 A2981 RMK AO2 SLP093 T02060161 50002;EQDQ01+000000PRSWM2N01 00000JPWTH 0QNNAA1D0 02050BA1 0 02050GA1U0 99999KA1D0 00061JA1 0 00161LA1 0 01000CA1 0 02981NA1 0 00000QA1 0 10093SA1D0 00069RA1 0 00206YA1 0 30005
0054726387148502000071605009+44733-085583NSRDB+018899999V020999999999999999999999999999+99999+99999999999ADDGP10060000002000000002000000002000GR100600000900009
0369726387148502000071801533+44733-085583FM-15+0188TVC  V0203605N00575019815MN0160005N1+01725+01005101515ADDGD11995+0106759GD23995+0198159GF107991999999999999999999MA1101525999999MW1001OC100821REMMET080KTVC 180153Z 36011G16KT 10SM FEW035 BKN065 17/10 A2998 RMK AO2 SLP151 T01720100;EQDQ01+000000PRSWM2N01 00000JPWTH 0QNNAA1D0 02035BA1 0 01035AA1D0 04065BA1 0 04065GA1 0 00065KA1D0 00050JA1 0 00100LA1 0 01000CA1 0 02998NA1 0 00000QA1 0 10151SA1D0 00063RA1 0 00172YA1 0 36011
0071726387148502000071922009+44733-085583NSRDB+018899999V020999999999999999999999999999+99999+99999999999ADDGP10060056602008068702015013602008GQ100600512926089GR100600828913239
0241726387148502000072206033+44730-085570FM-16+0190KTVC V0203301N003110099019N0160931N1+01601+01001999999ADDGD12991+0075019GD23991+0099019GD34991+0150019GF108991999999999999999999GP10060000002000000002000000002000GR100600000900009MA1101661999999MW1001REMMET067KTVC 220603Z 33006KT 10SM SCT025 BKN033 OVC055 16/10 A3002 RMK AO2;EQDQ01+000000PRSWM2
0358726387148502000072222533+44733-085583FM-15+0188TVC  V0200205N00415018295MN0160005N1+01835+01065102115ADDGD11995+0121959GD23995+0182959GF107991999999999999999999MA1102105999999MW1001REMMET077KTVC 222253Z 02008KT 10SM FEW040 BKN060 18/11 A3015 RMK AO2 SLP211 T01830106;EQDQ01+000000PRSWM2N01 00000JPWTH 0QNNAA1D0 02040BA1 0 01040AA1D0 04060BA1 0 04060GA1 0 00060KA1D0 00051JA1 0 00106LA1 0 01000CA1 0 03015NA1 0 00000QA1 0 10211SA1D0 00065RA1 0 00183YA1 0 02008
0071726387148502000072617009+44733-085583NSRDB+018899999V020999999999999999999999999999+99999+99999999999ADDGP10060081002008066202015023802008GQ100600304914129GR100601141913249
0168726387148502000072802424+44730-085570FM-16+0190KTVC V02099999999990093019N0160931N1+02001+01901999999ADDGD12991+0033019GD24991+0093019GF108991999999999999999999MA1101391999999MW1001REMMET060KTVC 280242Z VRB05KT 10SM SCT011 OVC031 20/19 A2994 RMK AO2;EQDQ01+000000PRSWM2
0054726387148502000072804009+44733-085583NSRDB+018899999V020999999999999999999999999999+99999+99999999999ADDGP10060000002000000002000000002000GR100600000900009
0402726387148502000072902533+44733-085583FM-15+0188TVC  V0209999C00005060965MN0080005N1+01895+01835101425ADDGD12995+0103659GD23995+0609659GF107991999999999999999999MA1101465999999MD1310101+9999MW1101MW2455REMMET085KTVC 290253Z 00000KT 5SM BR SCT034 BKN200 19/18 A2996 RMK AO2 SLP142 T01890183 53010;EQDQ01+000003PRSWM1Q02    003PRSWM1N01 00070JPWTH 0QNNAA1D0 02034BA1 0 02034AA1D0 04200BA1 0 04200GA1 0 00200KA1D0 00065JA1 0 00183LA1 0 00500CA1 0 02996NA1 0 00070QA1 0 10142SA1D0 00066RA1 0 00189YA1 0 00000
0071726387148502000072913009+44733-085583NSRDB+018899999V020999999999999999999999999999+99999+99999999999ADDGP10060022502008020302015015502008GQ100600698908359GR100600458913259
0054726387148502000080107009+44733-085583NSRDB+018899999V020999999999999999999999999999+99999+99999999999ADDGP10060000002000000002000000002000GR100600000900009
0402726387148502000080108533+44733-085583FM-15+0188TVC  V0209999C00005220005MN0048005N1+01785+01785101085ADDGD11995+0091459GD22995+0762059GF104991999999999999999999MA1101125999999MD1610101+9999MW1101MW2455REMMET085KTVC 010853Z 00000KT 3SM BR FEW030 SCT250 18/18 A2986 RMK AO2 SLP108 T01780178 56010;EQDQ01+000003PRSWM1Q02    003PRSWM1N01 00070JPWTH 0QNNAA1D0 02030BA1 0 01030AA1D0 02250BA1 0 02250GA1U0 99999KA1D0 00064JA1 0 00178LA1 0 00300CA1 0 02986NA1 0 00070QA1 0 10108SA1D0 00064RA1 0 00178YA1 0 00000
0071726387148502000080313009+44733-085583NSRDB+018899999V020999999999999999999999999999+99999+99999999999ADDGP10060018302008010202015014902008GQ100600706908459GR100600441913279
0354726387148502000080405533+44733-085583FM-15+0188TVC  V0209999C00005220005MN0160005N1+00945+00895101955ADDGF100991999999999999999999KA1999M+02001KA2999N+00941MA1101935999999MD1010041+9999MW1001REMMET085KTVC 040553Z 00000KT 10SM CLR 09/09 A3010 RMK AO2 SLP195 T00940089 10200 20094 50004;EQDQ01+000000PRSWM2N01 00000JPWTH 0QNNAA1D0 00000BA1 0 00000GA1U0 99999KA1D0 00048JA1 0 00089LA1 0 01000CA1 0 03010NA1 0 00000QA1 0 10195SA1D0 00049RA1 0 00094YA1 0 00000
0054726387148502000080504009+44733-085583NSRDB+018899999V020999999999999999999999999999+99999+99999999999ADDGP10060000002000000002000000002000GR100600000900009
0800726387148502000080904596+44741-085583SOD  +0192KTVC V020999999999999999999999999999+99999+99999999999ADDAA124016595AJ100009599999999AL12400095AN1024000095AT1MW03TS  1AT2MW16RA  1AT3MW01FG  5AT4MW13BR  1KA1240M+02285KA2240N+01505MG1098549999994OE11240089425016125OE22240071528011465OE33240018899999995REMSOD59224 HR PRECIPITATION (IN): 0.65 SNOW DEPTH (IN):0     24 HR SNOWFALL (IN):0.0  24 HR MAX TEMP (F): 7324 HR MAX TEMP TIME (LST):1447 24 HR MIN TEMP (F): 5924 HR MIN TEMP TIME (LST):0352 AVERAGE STATION PRESSURE:29.10  PEAK WIND SPEED (MPH): 20 PEAK WIND DIR (DEG):250 PEAK WIND TIME (LST):1612  FASTEST 2MIN SPEED (MPH): 16FASTEST 2MIN DIR (DEG):280 FASTEST 2MIN TIME (LST):1146 AVERAGE WIND SPEED (MPH): 4.2 24 HR AVG TEMP (F):66 HOURLY INCREMENTAL PRECIPITATION VALUES (IN):.00  .00  .00  .00  .00  .00  .00   T    T   .01  .00  .30  .17  .10  .07   T   .00  .00  .00  .00  .00  .00  .00  .00
0071726387148502000081015009+44733-085583NSRDB+018899999V020999999999999999999999999999+99999+99999999999ADDGP10060020002008000002015020002008GQ100600508910929GR100600839913309
0146726387148502000081106194+44730-085570FM-16+0190KTVC V0203401N003110045019N0160931N1+01801+01701999999ADDGD13991+0045019GF107991999999999999999999MA1101901999999MW1001REMMET053KTVC 110619Z 34006KT 10SM BKN015 18/17 A3009 RMK AO2;EQDQ01+000000PRSWM2
0219726387148502000081108043+44730-085570FM-16+0190KTVC V0203501N002610042019N0160931N1+01901+01801999999ADDGD12991+0027019GD23991+0042019GF107991999999999999999999GP10060000002000000002000000002000GR100600000900009MA1101861999999MW1001REMMET060KTVC 110804Z 35005KT 10SM FEW009 BKN014 19/18 A3008 RMK AO2;EQDQ01+000000PRSWM2
0358726387148502000081412533+44733-085583FM-15+0188TVC  V0209999C00005220005MN0160005N1+01895+01675101865ADDGD11995+0054959GD22995+0487759GF104991999999999999999999MA1101905999999MW1001REMMET077KTVC 141253Z 00000KT 10SM FEW018 SCT160 19/17 A3009 RMK AO2 SLP186 T01890167;EQDQ01+000000PRSWM2N01 00000JPWTH 0QNNAA1D0 02018BA1 0 01018AA1D0 02160BA1 0 02160GA1U0 99999KA1D0 00062JA1 0 00167LA1 0 01000CA1 0 03009NA1 0 00000QA1 0 10186SA1D0 00066RA1 0 00189YA1 0 00000
0054726387148502000081704009+44733-085583NSRDB+018899999V020999999999999999999999999999+99999+99999999999ADDGP10060000002000000002000000002000GR100600000900009
0351726387148502000081712533+44733-085583FM-15+0188TVC  V0201905N00265021345MN0160005N1+01335+01115101875ADDAA101000021GD14995+0213459GF108991999999999999999999MA1101865999999MW1615REMMET080KTVC 171253Z 19005KT 10SM -RA OVC070 13/11 A3008 RMK AO2 SLP187 P0000 T01330111;EQDQ01+000003PRSWM1Q02    003PRSWM1N01 00020JPWTH 0QNNAA1D0 06070BA1 0 06070GA1 0 00070KA1D0 00052JA1 0 00111LA1 0 01000CA1 0 03008NA1 0 00020QA1 0 10187SA1D0 00056RA1 0 00133YA1 0 19005
0788726387148502000081904596+44741-085583SOD  +0192KTVC V020999999999999999999999999999+99999+99999999999ADDAA124002595AJ100009599999999AL12400095AN1024000095AT1MW16RA  5AT2MW01FG  5AT3MW13BR  1KA1240M+02115KA2240N+01395MG1099499999994OE11240102835015565OE22240076035018485OE33240030899999995REMSOD59224 HR PRECIPITATION (IN): 0.10 SNOW DEPTH (IN):0     24 HR SNOWFALL (IN):0.0  24 HR MAX TEMP (F): 7024 HR MAX TEMP TIME (LST):1517 24 HR MIN TEMP (F): 5724 HR MIN TEMP TIME (LST):2358 AVERAGE STATION PRESSURE:29.38  PEAK WIND SPEED (MPH): 23 PEAK WIND DIR (DEG):350 PEAK WIND TIME (LST):1556  FASTEST 2MIN SPEED (MPH): 17FASTEST 2MIN DIR (DEG):350 FASTEST 2MIN TIME (LST):1848 AVERAGE WIND SPEED (MPH): 6.9 24 HR AVG TEMP (F):64 HOURLY INCREMENTAL PRECIPITATION VALUES (IN):.00  .00  .00  .00   T   .00   T   .00  .03  .07   T   .00  .00   T   .00  .00  .00  .00  .00  .00  .00  .00  .00  .00
0316726387148502000082014533+44733-085583FM-15+0188TVC  V0209999V00155220005MN0160005N1+01725+00895102815ADDGF100991999999999999999999MA1102815999999MD1210011+9999MW1001REMMET073KTVC 201453Z VRB03KT 10SM CLR 17/09 A3036 RMK AO2 SLP281 T01720089 52001;EQDQ01+000000PRSWM2N01 00000JPWTH 0QNNAA1D0 00000BA1 0 00000GA1U0 99999KA1D0 00048JA1 0 00089LA1 0 01000CA1 0 03036NA1 0 00000QA1 0 10281SA1D0 00063RA1 0 00172YA1 0 00003
0071726387148502000082219009+44733-085583NSRDB+018899999V020999999999999999999999999999+99999+99999999999ADDGP10060019602008000002015019602008GQ100600348919959GR100601097913369
0416726387148502000082317533+44733-085583FM-15+0188TVC  V0200305N00365220005MN0160005N1+02335+01835101675ADDGD11995+0085359GD22995+0762059GF104991999999999999999999KA1999M+02331KA2999N+01891MA1101695999999MD1810021+9999MW1001REMMET095KTVC 231753Z 03007KT 10SM FEW028 SCT250 23/18 A3003 RMK AO2 SLP167 T02330183 10233 20189 58002;EQDQ01+000000PRSWM2N01 00000JPWTH 0QNNAA1D0 02028BA1 0 01028AA1D0 02250BA1 0 02250GA1U0 99999KA1D0 00065JA1 0 00183LA1 0 01000CA1 0 03003NA1 0 00000QA1 0 10167SA1D0 00074RA1 0 00233YA1 0 03007
0338726387148502000082409533+44733-085583FM-15+0188TVC  V0209999C00005001835MN0064005N1+01285+01225102005ADDGD14995+0018359GF108991999999999999999999MA1102035999999MW1101MW2455REMMET072KTVC 240953Z 00000KT 4SM BR OVC006 13/12 A3013 RMK AO2 SLP200 T01280122;EQDQ01+000003PRSWM1Q02    003PRSWM1N01 00070JPWTH 0QNNAA1D0 06006BA1 0 06006GA1 0 00006KA1D0 00054JA1 0 00122LA1 0 00400CA1 0 03013NA1 0 00070QA1 0 10200SA1D0 00055RA1 0 00128YA1 0 00000
0054726387148502000082410009+44733-085583NSRDB+018899999V020999999999999999999999999999+99999+99999999999ADDGP10060000002000000002000000002000GR100600000900009
0054726387148502000082610009+44733-085583NSRDB+018899999V020999999999999999999999999999+99999+99999999999ADDGP10060000002000000002000000002000GR100600000900009
0190726387148502000082702104+44730-085570FM-16+0190KTVC V0200601N003610048019N0160931N1+01901+01701999999ADDGD12991+0024019GD23991+0048019GD34991+0120019GF108991999999999999999999MA1101251999999MW1001REMMET067KTVC 270210Z 06007KT 10SM SCT008 BKN016 OVC040 19/17 A2990 RMK AO2;EQDQ01+000000PRSWM2
0071726387148502000082821009+44733-085583NSRDB+018899999V020999999999999999999999999999+99999+99999999999ADDGP10060042502008022002015028502008GQ100600504923839GR100600853913409
0054726387148502000083009009+44733-085583NSRDB+018899999V020999999999999999999999999999+99999+99999999999ADDGP10060000002000000002000000002000GR100600000900009
0054726387148502000083109009+44733-085583NSRDB+018899999V020999999999999999999999999999+99999+99999999999ADDGP10060000002000000002000000002000GR100600000900009
0320726387148502000090121234+44730-085570FM-16+0190KTVC V0200401N010810042019N0112651N1+02301+02101999999ADDGA1999+004201091GD12991+0024019GD23991+0042019GD34991+0135019GF108991999999999999999999MA1101491999999MW1171OC101341REMMET141KTVC 012123Z 04021G26KT 7SM TS BR SCT008 BKN014CB OVC045 23/21 A2997 RMK AO2 PK WND 04026/2123 TSB2058 PRESFR FRQ LTGICCG W-NE TS W-NE MOV E;EQDQ01+000100PRSWM3Q02+000003PRSWM1Q03    003PRSWM1
0393726387148502000090304533+44733-085583FM-15+0188TVC  V0209999C00005004275MN0144005N1+02005+01895101455ADDGD13995+0042759GD24995+0073259GF108991999999999999999999KA1999M+02281KA2999N+01671MA1101495999999MW1001REMMET086KTVC 030453Z 00000KT 9SM BKN014 OVC024 20/19 A2997 RMK AO2 SLP145 T02000189 402280167;EQDQ01+000000PRSWM2N01 00000JPWTH 0QNNAA1D0 04014BA1 0 04014AA1D0 06024BA1 0 06024GA1 0 00014KA1D0 00066JA1 0 00189LA1 0 00900CA1 0 02997NA1 0 00000QA1 0 10145SA1D0 00068RA1 0 00200YA1 0 00000
0167726387148502000090401164+44730-085570FM-16+0190KTVC V0203401N004110036019N0144841N1+01801+01701999999ADDGD12991+0018019GD24991+0036019GF108991999999999999999999MA1101421999999MW1001REMMET059KTVC 040116Z 34008KT 9SM SCT006 OVC012 18/17 A2995 RMK AO2;EQDQ01+000000PRSWM2
0054726387148502000090410009+44733-085583NSRDB+018899999V020999999999999999999999999999+99999+99999999999ADDGP10060000002000000002000000002000GR100600000900009
0354726387148502000090605533+44733-085583FM-15+0188TVC  V0209999C00005220005MN0160005N1+00835+00615102935ADDGF100991999999999999999999KA1999M+01501KA2999N+00781MA1102915999999MD1710011+9999MW1001REMMET085KTVC 060553Z 00000KT 10SM CLR 08/06 A3039 RMK AO2 SLP293 T00830061 10150 20078 57001;EQDQ01+000000PRSWM2N01 00000JPWTH 0QNNAA1D0 00000BA1 0 00000GA1U0 99999KA1D0 00043JA1 0 00061LA1 0 01000CA1 0 03039NA1 0 00000QA1 0 10293SA1D0 00047RA1 0 00083YA1 0 00000
0071726387148502000090722009+44733-085583NSRDB+018899999V020999999999999999999999999999+99999+99999999999ADDGP10060033402008033902015018102008GQ100600633924999GR100600605913469
0054726387148502000090906009+44733-085583NSRDB+018899999V020999999999999999999999999999+99999+99999999999ADDGP10060000002000000002000000002000GR100600000900009
0410726387148502000091019533+44733-085583FM-15+0188TVC  V0202505N00415045725MN0160005N1+02615+02115101085ADDGD11995+0064059GD22995+0091459GD34995+0457259GF108991999999999999999999MA1101125999999MW1001REMMET092KTVC 101953Z 25008KT 220V280 10SM FEW021 SCT030 OVC150 26/21 A2986 RMK AO2 SLP108 T02610211;EQDQ01+000000PRSWM2N01 00000JPWTH 0QNNAA1D0 02021BA1 0 01021AA1D0 02030BA1 0 02030AA1D0 06150BA1 0 06150GA1 0 00150KA1D0 00070JA1 0 00211LA1 0 01000CA1 0 02986NA1 0 00000QA1 0 10108SA1D0 00079RA1 0 00261YA1 0 25008
0248726387148502000091211033+44730-085570FM-16+0190KTVC V0203201N006210021019N0048281N1+01601+01501999999ADDGD13991+0021019GD24991+0084019GF108991999999999999999999GP10060000002000000002000000002000GR100600000900009MA1100641999999MW1611REMMET073KTVC 121103Z COR 32012KT 3SM -RA BKN007 OVC028 16/15 A2972 RMK AO2 P0000;EQDQ01+000003PRSWM1Q02    003PRSWM1
0314726387148502000091222533+44733-085583FM-15+0188TVC  V0202605N00315220005MN0160005N1+01725+00835101395ADDGD11995+0167659GF102991999999999999999999MA1101395999999MW1001REMMET070KTVC 122253Z 26006KT 10SM FEW055 17/08 A2994 RMK AO2 SLP139 T01720083;EQDQ01+000000PRSWM2N01 00000JPWTH 0QNNAA1D0 02055BA1 0 01055GA1U0 99999KA1D0 00047JA1 0 00083LA1 0 01000CA1 0 02994NA1 0 00000QA1 0 10139SA1D0 00063RA1 0 00172YA1 0 26006
0394726387148502000091604533+44733-085583FM-15+0188TVC  V0203505N00575012195MN0160005N1+01175+00445101915ADDGD13995+0121959GD24995+0198159GF108991999999999999999999KA1999M+01501KA2999N+00891MA1101905999999MW1001REMMET087KTVC 160453Z 35011KT 10SM BKN040 OVC065 12/04 A3009 RMK AO2 SLP191 T01170044 401500089;EQDQ01+000000PRSWM2N01 00000JPWTH 0QNNAA1D0 04040BA1 0 04040AA1D0 06065BA1 0 06065GA1 0 00040KA1D0 00040JA1 0 00044LA1 0 01000CA1 0 03009NA1 0 00000QA1 0 10191SA1D0 00053RA1 0 00117YA1 0 35011
0054726387148502000092209009+44733-085583NSRDB+018899999V020999999999999999999999999999+99999+99999999999ADDGP10060000002000000002000000002000GR100600000900009
0071726387148502000092217009+44733-085583NSRDB+018899999V020999999999999999999999999999+99999+99999999999ADDGP10060014202008000002015014202008GQ100600471915779GR100600924913579
0071726387148502000092322009+44733-085583NSRDB+018899999V020999999999999999999999999999+99999+99999999999ADDGP10060021402008017302015015102008GQ100600688924669GR100600490913589
0314726387148502000092501533+44733-085583FM-15+0188TVC  V0209999C00005220005MN0160005N1+00445+00335101985ADDGD12995+0457259GF104991999999999999999999MA1101935999999MW1001REMMET070KTVC 250153Z 00000KT 10SM SCT150 04/03 A3010 RMK AO2 SLP198 T00440033;EQDQ01+000000PRSWM2N01 00000JPWTH 0QNNAA1D0 02150BA1 0 02150GA1U0 99999KA1D0 00038JA1 0 00033LA1 0 01000CA1 0 03010NA1 0 00000QA1 0 10198SA1D0 00040RA1 0 00044YA1 0 00000
0071726387148502000092618009+44733-085583NSRDB+018899999V020999999999999999999999999999+99999+99999999999ADDGP10060068102008082902015010802008GQ100600464917889GR100600938913619
0358726387148502000092715533+44733-085583FM-15+0188TVC  V0200105N00625008535MN0160005N1+00895+00285102205ADDGD13995+0085359GD24995+0243859GF108991999999999999999999MA1102205999999MW1001REMMET077KTVC 271553Z 01012KT 10SM BKN028 OVC080 09/03 A3018 RMK AO2 SLP220 T00890028;EQDQ01+000000PRSWM2N01 00000JPWTH 0QNNAA1D0 04028BA1 0 04028AA1D0 06080BA1 0 06080GA1 0 00028KA1D0 00037JA1 0 00028LA1 0 01000CA1 0 03018NA1 0 00000QA1 0 10220SA1D0 00048RA1 0 00089YA1 0 01012
0071726387148502000092919009+44733-085583NSRDB+018899999V020999999999999999999999999999+99999+99999999999ADDGP10060060002008068702015015102008GQ100600493919919GR100600889913639
0414726387148502000100121533+44733-085583FM-15+0188TVC  V0209999V00315076205MN0160005N1+02445+01005100425ADDGD11995+0259159GD22995+0457259GD34995+0762059GF108991999999999999999999MA1100445999999MW1001REMMET096KTVC 012153Z VRB06G15KT 10SM FEW085 SCT150 OVC250 24/10 A2966 RMK AO2 SLP042 ACC W-NW T02440100;EQDQ01+000000PRSWM2N01 00000JPWTH 0QNNAA1D0 02085BA1 0 01085AA1D0 02150BA1 0 02150AA1D0 06250BA1 0 06250GA1 0 00250KA1D0 00050JA1 0 00100LA1 0 01000CA1 0 02966NA1 0 00000QA1 0 10042SA1D0 00076RA1 0 00244YA1 0 00006
0146726387148502000100302324+44730-085570FM-16+0190KTVC V0203401N001510084019N0160931N1+01301+01101999999ADDGD14991+0084019GF108991999999999999999999MA1100911999999MW1001REMMET053KTVC 030232Z 34003KT 10SM OVC028 13/11 A2980 RMK AO2;EQDQ01+000000PRSWM2
0358726387148502000100316533+44733-085583FM-15+0188TVC  V0202505N00415060965MN0160005N1+01895+00725101415ADDGD12995+0243859GD23995+0609659GF107991999999999999999999MA1101425999999MW1001REMMET077KTVC 031653Z 25008KT 10SM SCT080 BKN200 19/07 A2995 RMK AO2 SLP141 T01890072;EQDQ01+000000PRSWM2N01 00000JPWTH 0QNNAA1D0 02080BA1 0 02080AA1D0 04200BA1 0 04200GA1 0 00200KA1D0 00045JA1 0 00072LA1 0 01000CA1 0 02995NA1 0 00000QA1 0 10141SA1D0 00066RA1 0 00189YA1 0 25008
0296726387148502000100409533+44733-085583FM-15+0188TVC  V0202505N00215220005MN0160005N1+01005+00835101575ADDGF100991999999999999999999MA1101565999999MW1001REMMET067KTVC 040953Z 25004KT 10SM CLR 10/08 A2999 RMK AO2 SLP157 T01000083;EQDQ01+000000PRSWM2N01 00000JPWTH 0QNNAA1D0 00000BA1 0 00000GA1U0 99999KA1D0 00047JA1 0 00083LA1 0 01000CA1 0 02999NA1 0 00000QA1 0 10157SA1D0 00050RA1 0 00100YA1 0 25004
0314726387148502000100419533+44733-085583FM-15+0188TVC  V0203405N00365220005MN0160005N1+01335+00065101855ADDGD11995+0762059GF102991999999999999999999MA1101835999999MW1001REMMET070KTVC 041953Z 34007KT 10SM FEW250 13/01 A3007 RMK AO2 SLP185 T01330006;EQDQ01+000000PRSWM2N01 00000JPWTH 0QNNAA1D0 02250BA1 0 01250GA1U0 99999KA1D0 00033JA1 0 00006LA1 0 01000CA1 0 03007NA1 0 00000QA1 0 10185SA1D0 00056RA1 0 00133YA1 0 34007
0402726387148502000100516533+44733-085583FM-15+0188TVC  V0200205N00215045725MN0160005N1+01175+00615101675ADDGD11995+0121959GD22995+0304859GD34995+0457259GF108991999999999999999999MA1101665999999MW1001REMMET084KTVC 051653Z 02004KT 10SM FEW040 SCT100 OVC150 12/06 A3002 RMK AO2 SLP167 T01170061;EQDQ01+000000PRSWM2N01 00000JPWTH 0QNNAA1D0 02040BA1 0 01040AA1D0 02100BA1 0 02100AA1D0 06150BA1 0 06150GA1 0 00150KA1D0 00043JA1 0 00061LA1 0 01000CA1 0 03002NA1 0 00000QA1 0 10167SA1D0 00053RA1 0 00117YA1 0 02004
0071726387148502000100914009+44733-085583NSRDB+018899999V020999999999999999999999999999+99999+99999999999ADDGP10060016702008015502015012402008GQ100600741911679GR100600376913719
0313726387148502000101515533+44733-085583FM-15+0188TVC  V0201005N00315002445MN0112005N1+01225+01065102005ADDGD14995+0024459GF108991999999999999999999MA1102005999999MW1001REMMET069KTVC 151553Z 10006KT 7SM OVC008 12/11 A3012 RMK AO2 SLP200 T01220106;EQDQ01+000000PRSWM2N01 00000JPWTH 0QNNAA1D0 06008BA1 0 06008GA1 0 00008KA1D0 00051JA1 0 00106LA1 0 00700CA1 0 03012NA1 0 00000QA1 0 10200SA1D0 00054RA1 0 00122YA1 0 10006
0054726387148502000101804009+44733-085583NSRDB+018899999V020999999999999999999999999999+99999+99999999999ADDGP10060000002000000002000000002000GR100600000900009
0313726387148502000101900533+44733-085583FM-15+0188TVC  V0209999C00005220005MN0128005N1+00725+00725102025ADDGD12995+0670659GF104991999999999999999999MA1102005999999MW1001REMMET069KTVC 190053Z 00000KT 8SM SCT220 07/07 A3012 RMK AO2 SLP202 T00720072;EQDQ01+000000PRSWM2N01 00000JPWTH 0QNNAA1D0 02220BA1 0 02220GA1U0 99999KA1D0 00045JA1 0 00072LA1 0 00800CA1 0 03012NA1 0 00000QA1 0 10202SA1D0 00045RA1 0 00072YA1 0 00000
0314726387148502000102800533+44733-085583FM-15+0188TVC  V0200205N00775009755MN0160005N1+00945+00395102515ADDGD14995+0097559GF108991999999999999999999MA1102515999999MW1001REMMET070KTVC 280053Z 02015KT 10SM OVC032 09/04 A3027 RMK AO2 SLP251 T00940039;EQDQ01+000000PRSWM2N01 00000JPWTH 0QNNAA1D0 06032BA1 0 06032GA1 0 00032KA1D0 00039JA1 0 00039LA1 0 01000CA1 0 03027NA1 0 00000QA1 0 10251SA1D0 00049RA1 0 00094YA1 0 02015
0238726387148502000102806003+44733-085583FM-15+0188TVC  V0200405N00525220005MN016000599+00565+00115102895ADDGD10995+9999999GP10060000002000000002000000002000GR100600000900009MA1102845999999EQDN01 00000JPWTH 0QNNAA1D0 00000BA1 0 00000GA1U0 99999KA1D0 00034JA1 0 00011LA1 0 01000CA1 0 03037NA1 0 00000QA1 0 10289SA1D0 00042RA1 0 00056YA1 0 04010
0297726387148502000102901533+44733-085583FM-15+0188TVC  V0209999C00005220005MN0160005N1+00005-00115103305ADDGF100991999999999999999999MA1103225999999MW1001REMMET068KTVC 290153Z 00000KT 10SM CLR 00/M01 A3048 RMK AO2 SLP330 T00001011;EQDQ01+000000PRSWM2N01 00000JPWTH 0QNNAA1D0 00000BA1 0 00000GA1U0 99999KA1D0 00030JA1 0-00011LA1 0 01000CA1 0 03048NA1 0 00000QA1 0 10330SA1D0 00032RA1 0 00000YA1 0 00000
0314726387148502000102918533+44733-085583FM-15+0188TVC  V0200305N00215076205MN0160005N1+01065+00065103085ADDGD13995+0762059GF107991999999999999999999MA1103015999999MW1001REMMET070KTVC 291853Z 03004KT 10SM BKN250 11/01 A3042 RMK AO2 SLP308 T01060006;EQDQ01+000000PRSWM2N01 00000JPWTH 0QNNAA1D0 04250BA1 0 04250GA1 0 00250KA1D0 00033JA1 0 00006LA1 0 01000CA1 0 03042NA1 0 00000QA1 0 10308SA1D0 00051RA1 0 00106YA1 0 03004
0071726387148502000103120009+44733-085583NSRDB+018899999V020999999999999999999999999999+99999+99999999999ADDGP10060007802009000002021007802009GQ100600656921329GR100600574913889
0410726387148502000110221533+44733-085583FM-15+0188TVC  V0202005N00415045725MN0160005N1+01675+00835101475ADDGD11995+0121959GD22995+0213459GD33995+0457259GF107991999999999999999999MA1101465999999MW1001REMMET092KTVC 022153Z 20008KT 170V240 10SM FEW040 SCT070 BKN150 17/08 A2996 RMK AO2 SLP147 T01670083;EQDQ01+000000PRSWM2N01 00000JPWTH 0QNNAA1D0 02040BA1 0 01040AA1D0 02070BA1 0 02070AA1D0 04150BA1 0 04150GA1 0 00150KA1D0 00047JA1 0 00083LA1 0 01000CA1 0 02996NA1 0 00000QA1 0 10147SA1D0 00062RA1 0 00167YA1 0 20008
0168726387148502000110802294+44730-085570FM-16+0190KTVC V0202401N003110060019N0160931N1+00901+00701999999ADDGD13991+0060019GD24991+0600019GF108991999999999999999999MA1101291999999MW1001REMMET060KTVC 080229Z 24006KT 10SM BKN020 OVC200 09/07 A2991 RMK AO2;EQDQ01+000000PRSWM2
0312726387148502000110803003+44733-085583FM-15+0188TVC  V0202305N00215030485MN016000599+00945+00675101315ADDGD12995+0045759GD23995+0304859GD34995+0609659GP10060000002000000002000000002000GR100600000900009MA1101295999999EQDN01 00000JPWTH 0QNNAA1D0 02015BA1 0 02015AA1D0 04100BA1 0 04100AA1D0 06200BA1 0 06200GA1 0 00100KA1D0 00044JA1 0 00067LA1 0 01000CA1 0 02991NA1 0 00000QA1 0 10131SA1D0 00049RA1 0 00094YA1 0 23004
0416726387148502000110823533+44733-085583FM-15+0188TVC  V0209999C00005220005MN0160005N1+00505+00115101345ADDGD11995+0304859GD22995+0609659GF104991999999999999999999KA1999M+01111KA2999N+00501MA1101295999999MD1110091+9999MW1001REMMET095KTVC 082353Z 00000KT 10SM FEW100 SCT200 05/01 A2991 RMK AO2 SLP134 T00500011 10111 20050 51009;EQDQ01+000000PRSWM2N01 00000JPWTH 0QNNAA1D0 02100BA1 0 01100AA1D0 02200BA1 0 02200GA1U0 99999KA1D0 00034JA1 0 00011LA1 0 01000CA1 0 02991NA1 0 00000QA1 0 10134SA1D0 00041RA1 0 00050YA1 0 00000
0054726387148502000111102009+44733-085583NSRDB+018899999V020999999999999999999999999999+99999+99999999999ADDGP10060000002000000002000000002000GR100600000900009
0147726387148502000111207154+44730-085570FM-16+0190KTVC V0200901N002612200019N0160931N1+00201-00101999999ADDGD12991+0087019GF104991999999999999999999MA1102441999999MW1001REMMET054KTVC 120715Z 09005KT 10SM SCT029 02/M01 A3025 RMK AO2;EQDQ01+000000PRSWM2
0054726387148502000111208009+44733-085583NSRDB+018899999V020999999999999999999999999999+99999+99999999999ADDGP10060000002000000002000000002000GR100600000900009
0379726387148502000111418533+44733-085583FM-15+0188TVC  V0202805N00575006405MN0008051N1+00115-00065100595ADDAA101000391GD14995+0064059GF108991999999999999999999MA1100545999999MW1735OC100931REMMET084KTVC 141853Z 28011G18KT 1/2SM SN OVC021 01/M01 A2969 RMK AO2 SLP059 P0001 T00111006;EQDQ01+000003PRSWM1Q02    003PRSWM1N01 00050DHZVS 3N02 00041JPWTH 0QNNAA1D0 06021BA1 0 06021GA1 0 00021KA1D0 00031JA1 0-00006LA1 3 00050CA1 0 02969NA1 0 00041QA1 0 10059SA1D0 00034RA1 0 00011YA1 0 28011
0398726387148502000111608533+44733-085583FM-15+0188TVC  V0202305N00155005495MN0064005N1+00225+00065100685ADDAA101000391AA203000391GD14995+0054959GF108991999999999999999999MA1100615999999MD1810201+9999MW1615REMMET102KTVC 160853Z 23003KT 4SM -RA OVC018 02/01 A2971 RMK AO2 RAB29SNE29 SLP068 P0001 60001 T00220006 58020;EQDQ01+000003PRSWM1Q02    003PRSWM1N01 00020JPWTH 0QNNAA1D0 06018BA1 0 06018GA1 0 00018KA1D0 00033JA1 0 00006LA1 0 00400CA1 0 02971NA1 0 00020QA1 0 10068SA1D0 00036RA1 0 00022YA1 0 23003
0054726387148502000111703009+44733-085583NSRDB+018899999V020999999999999999999999999999+99999+99999999999ADDGP10060000002000000002000000002000GR100600000900009
0054726387148502000111707009+44733-085583NSRDB+018899999V020999999999999999999999999999+99999+99999999999ADDGP10060000002000000002000000002000GR100600000900009
0054726387148502000112106009+44733-085583NSRDB+018899999V020999999999999999999999999999+99999+99999999999ADDGP10060000002000000002000000002000GR100600000900009
0391726387148502000112117533+44733-085583FM-15+0188TVC  V0202605N00465018295MN0160005N1-00335-00725102025ADDAA106000021GD13995+0182959GF107991999999999999999999KA1999M-00331KA2999N-00561MA1101935999999MD1110031+9999MW1001REMMET096KTVC 211753Z 26009KT 10SM BKN060 M03/M07 A3010 RMK AO2 SLP202 60000 T10331072 11033 21056 51003;EQDQ01+000000PRSWM2N01 00000JPWTH 0QNNAA1D0 04060BA1 0 04060GA1 0 00060KA1D0 00019JA1 0-00072LA1 0 01000CA1 0 03010NA1 0 00000QA1 0 10202SA1D0 00026RA1 0-00033YA1 0 26009
005172638714850200011220459O+44733-085583SOD  +018899999V020999999999999999999999999999+99999+99999999999ADDAT1MW18SN  1AT2MW01FG  5AT3MW13BR  1AT4MW08HZ  5
0316726387148502000112310533+44733-085583FM-15+0188TVC  V0209999V00155033535MN0160005N1-00675-00895102595ADDGD14995+0335359GF108991999999999999999999MA1102475999999MW1001REMMET072KTVC 231053Z VRB03KT 10SM OVC110 M07/M09 A3026 RMK AO2 SLP259 T10671089;EQDQ01+000000PRSWM2N01 00000JPWTH 0QNNAA1D0 06110BA1 0 06110GA1 0 00110KA1D0 00016JA1 0-00089LA1 0 01000CA1 0 03026NA1 0 00000QA1 0 10259SA1D0 00020RA1 0-00067YA1 0 00003
0071726387148502000112419009+44733-085583NSRDB+018899999V020999999999999999999999999999+99999+99999999999ADDGP10060029602009038102021014602009GQ100600670919549GR100600549914049
0314726387148502000112722533+44733-085583FM-15+0188TVC  V0202605N00465004885MN0144005N1+00225-00115100825ADDGD14995+0048859GF108991999999999999999999MA1100785999999MW1001REMMET070KTVC 272253Z 26009KT 9SM OVC016 02/M01 A2976 RMK AO2 SLP082 T00221011;EQDQ01+000000PRSWM2N01 00000JPWTH 0QNNAA1D0 06016BA1 0 06016GA1 0 00016KA1D0 00030JA1 0-00011LA1 0 00900CA1 0 02976NA1 0 00000QA1 0 10082SA1D0 00036RA1 0 00022YA1 0 26009
0054726387148502000112809009+44733-085583NSRDB+018899999V020999999999999999999999999999+99999+99999999999ADDGP10060000002000000002000000002000GR100600000900009
0054726387148502000113006009+44733-085583NSRDB+018899999V020999999999999999999999999999+99999+99999999999ADDGP10060000002000000002000000002000GR100600000900009
0054726387148502000113007009+44733-085583NSRDB+018899999V020999999999999999999999999999+99999+99999999999ADDGP10060000002000000002000000002000GR100600000900009
0385726387148502000113009533+44733-085583FM-15+0188TVC  V0202505N00215003055MN0160005N1+00115-00065102125ADDAA101000021GD13995+0030559GD24995+0048859GF108991999999999999999999MA1102075999999MW1001REMMET093KTVC 300953Z 25004KT 10SM BKN010 OVC016 01/M01 A3014 RMK AO2 SNB29E41 SLP212 P0000 T00111006;EQDQ01+000000PRSWM2N01 00000JPWTH 0QNNAA1D0 04010BA1 0 04010AA1D0 06016BA1 0 06016GA1 0 00010KA1D0 00031JA1 0-00006LA1 0 01000CA1 0 03014NA1 0 00000QA1 0 10212SA1D0 00034RA1 0 00011YA1 0 25004
0245726387148502000113011284+44730-085570FM-16+0190KTVC V0202901N005110078019N0040231N1+00101+00001999999ADDGD12991+0021019GD23991+0078019GD34991+0114019GF108991999999999999999999MA1102101999999MW1101MW2711OC100771REMMET092KTVC 301128Z 29010G15KT 2 1/2SM -SN BR FEW007 BKN026 OVC038 01/00 A3015 RMK AO2 SNB26 P0000;EQDQ01+000003PRSWM1Q02    003PRSWM1
0071726387148502000120221009+44733-085583NSRDB+018899999V020999999999999999999999999999+99999+99999999999ADDGP10060009802009009502021007902009GQ100600782922159GR100600288914089
0316726387148502000120310533+44733-085583FM-15+0188TVC  V0209999V00215008235MN0160005N1-00335-00725103535ADDGD14995+0082359GF108991999999999999999999MA1103455999999MW1001REMMET072KTVC 031053Z VRB04KT 10SM OVC027 M03/M07 A3055 RMK AO2 SLP353 T10331072;EQDQ01+000000PRSWM2N01 00000JPWTH 0QNNAA1D0 06027BA1 0 06027GA1 0 00027KA1D0 00019JA1 0-00072LA1 0 01000CA1 0 03055NA1 0 00000QA1 0 10353SA1D0 00026RA1 0-00033YA1 0 00004
0423726387148502000120414533+44733-085583FM-15+0188TVC  V0202005N00465036585MN0160005N1+00005-00445101905ADDGD12995+0079259GD23995+0365859GD34995+0762059GF108991999999999999999999MA1101835999999MD1610181+9999MW1001REMMET091KTVC 041453Z 20009KT 10SM SCT026 BKN120 OVC250 00/M04 A3007 RMK AO2 SLP190 T00001044 56018;EQDQ01+000000PRSWM2N01 00000JPWTH 0QNNAA1D0 02026BA1 0 02026AA1D0 04120BA1 0 04120AA1D0 06250BA1 0 06250GA1 0 00120KA1D0 00024JA1 0-00044LA1 0 01000CA1 0 03007NA1 0 00000QA1 0 10190SA1D0 00032RA1 0 00000YA1 0 20009
0226726387148502000120508404+44730-085570FM-16+0190KTVC V0202901N007710039019N0032181N1-00401-00701999999ADDGD13991+0039019GD23991+0054019GD34991+0081019GF108991999999999999999999MA1101081999999MW1101MW2711REMMET081KTVC 050840Z 29015KT 2SM -SN BR BKN013 BKN018 OVC027 M04/M07 A2985 RMK AO2 P0000;EQDQ01+000003PRSWM1Q02    003PRSWM1
0071726387148502000120516009+44733-085583NSRDB+018899999V020999999999999999999999999999+99999+99999999999ADDGP10060004002009000002021004002009GQ100600729915049GR100600415914099
0071726387148502000120619009+44733-085583NSRDB+018899999V020999999999999999999999999999+99999+99999999999ADDGP10060005802009000002021005802009GQ100600686919399GR100600514914099
0054726387148502000120705009+44733-085583NSRDB+018899999V020999999999999999999999999999+99999+99999999999ADDGP10060000002000000002000000002000GR100600000900009
0054726387148502000120802009+44733-085583NSRDB+018899999V020999999999999999999999999999+99999+99999999999ADDGP10060000002000000002000000002000GR100600000900009
0181726387148502000120816464+44730-085570FM-16+0190KTVC V0203601N004110060019N0032181N1-00401-00801999999ADDGD14991+0060019GF108991999999999999999999MA1101631999999MW1711REMMET072KTVC 081646Z 36008KT 2SM -SN OVC020 M04/M08 A3001 RMK AO2 VIS 1V3 P0000;EQDQ01+000003PRSWM1Q02    003PRSWM1
0071726387148502000120819009+44733-085583NSRDB+018899999V020999999999999999999999999999+99999+99999999999ADDGP10060020902009010702021017002009GQ100600688919379GR100600510914109
0054726387148502000120902009+44733-085583NSRDB+018899999V020999999999999999999999999999+99999+99999999999ADDGP10060000002000000002000000002000GR100600000900009
0054726387148502000121009009+44733-085583NSRDB+018899999V020999999999999999999999999999+99999+99999999999ADDGP10060000002000000002000000002000GR100600000900009
0389726387148502000121302533+44733-085583FM-15+0188TVC  V0209999V00155011285MN0144005N1-00835-01225102995ADDAA101000021AA203000021GD13995+0112859GF107991999999999999999999MA1102885999999MD1010001+9999MW1715REMMET093KTVC 130253Z VRB03KT 9SM -SN BKN037 M08/M12 A3038 RMK AO2 SLP299 P0000 60000 T10831122 50000;EQDQ01+000003PRSWM1Q02    003PRSWM1N01 00040JPWTH 0QNNAA1D0 04037BA1 0 04037GA1 0 00037KA1D0 00010JA1 0-00122LA1 0 00900CA1 0 03038NA1 0 00040QA1 0 10299SA1D0 00017RA1 0-00083YA1 0 00003
0515726387148502000121417533+44733-085583FM-15+0188TVC  V0201705N00215014025MN0128005N1-00335-00675102515ADDAA101000021AA206000021GD11995+0100659GD23995+0140259GD34995+0762059GF108991999999999999999999KA1999M-00331KA2999N-00941MA1102405999999MD1010021+9999MW1715REMMET119KTVC 141753Z 17004KT 8SM -SN FEW033 BKN046 OVC250 M03/M07 A3024 RMK AO2 SLP251 P0000 60000 T10331067 11033 21094 50002;EQDQ01+000003PRSWM1Q02    003PRSWM1N01 00040JPWTH 0QNNAA1D0 02033BA1 0 01033AA1D0 04046BA1 0 04046AA1D0 06250BA1 0 06250GA1 0 00046KA1D0 00020JA1 0-00067LA1 0 00800CA1 0 03024NA1 0 00040QA1 0 10251SA1D0 00026RA1 0-00033YA1 0 17004
0463726387148502000121623533+44733-085583FM-15+0188TVC  V0202105N00265002745MN0064005N1+00225+00005100041ADDAA101000021AA206000021AJ100109199999999GD14995+0027459GF108991999999999999999999KA1999M+00281KA2999N+00171MA1099975999999MD1310021+9999MW1101MW2455REMMET129KTVC 162353Z 21005KT 4SM BR OVC009 02/00 A2952 RMK AO2 DZB14E49 CIG 005V013 SLP004 4/004 P0000 60000 T00220000 10028 20017 53002;EQDQ01+000003PRSWM1Q02    003PRSWM1N01 00070JPWTH 0QNNAA1D0 06009BA1 0 06009GA1 0 00009KA1D0 00032JA1 0 00000LA1 0 00400CA1 0 02952NA1 0 00070SA1D0 00036RA1 0 00022YA1 0 21005
0247726387148502000122002534+44730-085570FM-15+0190KTVC V0201201N001510063019N0048281N1-00701-00901101531ADDAA101000021AA203000021GD14991+0063019GF108991999999999999999999MA1101421999999MD1310061+9999MW1101MW2711REMMET096KTVC 200253Z 12003KT 3SM -SN BR OVC021 M07/M09 A2995 RMK AO2 SLP153 P0000 60000 T10721094 53006;EQDQ01+000003PRSWM1Q02    003PRSWM1
0396726387148502000122016533+44733-085583FM-15+0188TVC  V0209999C00005012805MN0112005N1-00725-00945101735ADDAA101000021GD11995+0030559GD23995+0128059GF107991999999999999999999MA1101635999999MW1715REMMET088KTVC 201653Z 00000KT 7SM -SN FEW010 BKN042 M07/M09 A3001 RMK AO2 SLP173 P0000 T10721094;EQDQ01+000003PRSWM1Q02    003PRSWM1N01 00040JPWTH 0QNNAA1D0 02010BA1 0 01010AA1D0 04042BA1 0 04042GA1 0 00042KA1D0 00015JA1 0-00094LA1 0 00700CA1 0 03001NA1 0 00040QA1 0 10173SA1D0 00019RA1 0-00072YA1 0 00000
0071726387148502000122023009+44733-085583NSRDB+018899999V020999999999999999999999999999+99999+99999999999ADDGP10060000002009000002021000002009GQ100600899923649GR100600000900599
0396726387148502000122101533+44733-085583FM-15+0188TVC  V0209999V00265016765MN0048005N1-00565-00785101585ADDAA101000021GD12995+0103659GD24995+0167659GF108991999999999999999999MA1101465999999MW1715REMMET088KTVC 210153Z VRB05KT 3SM -SN SCT034 OVC055 M06/M08 A2996 RMK AO2 SLP158 P0000 T10561078;EQDQ01+000003PRSWM1Q02    003PRSWM1N01 00040JPWTH 0QNNAA1D0 02034BA1 0 02034AA1D0 06055BA1 0 06055GA1 0 00055KA1D0 00018JA1 0-00078LA1 0 00300CA1 0 02996NA1 0 00040QA1 0 10158SA1D0 00022RA1 0-00056YA1 0 00005
0054726387148502000122109009+44733-085583NSRDB+018899999V020999999999999999999999999999+99999+99999999999ADDGP10060000002000000002000000002000GR100600000900009
0182726387148502000122315334+44730-085570FM-16+0190KTVC V02099999999990120019N0032181N1-00801-01001999999ADDGD14991+0120019GF108991999999999999999999MA1102711999999MW1101MW2711REMMET067KTVC 231533Z VRB03KT 2SM -SN BR OVC040 M08/M10 A3033 RMK AO2 P0000;EQDQ01+000003PRSWM1Q02    003PRSWM1
0214726387148502000122407154+44730-085570FM-16+0190KTVC V02099999999990150019N0028161N1-00801-01101999999ADDGD12991+0126019GD24991+0150019GF108991999999999999999999MA1101661999999MW1101MW2711REMMET084KTVC 240715Z VRB05KT 1 3/4SM -SN BR FEW042 OVC050 M08/M11 A3002 RMK AO2 SNB01 P0000;EQDQ01+000003PRSWM1Q02    003PRSWM1
0455726387148502000122410533+44733-085583FM-15+0188TVC  V0202405N00415004575MN0016005N1-00615-00785101695ADDAA101000391GD11995+0024459GD23995+0045759GD34995+0088459GF108991999999999999999999MA1101595999999MW1101MW2455MW3715REMMET098KTVC 241053Z 24008KT 1SM -SN BR FEW008 BKN015 OVC029 M06/M08 A3000 RMK AO2 SLP169 P0001 T10611078;EQDQ01+000003PRSWM1Q02    003PRSWM1N01 04070JPWTH 0QNNAA1D0 02008BA1 0 01008AA1D0 04015BA1 0 04015AA1D0 06029BA1 0 06029GA1 0 00015KA1D0 00018JA1 0-00078LA1 0 00100CA1 0 03000NA1 0 04070QA1 0 10169SA1D0 00021RA1 0-00061YA1 0 24008
0071726387148502000122419009+44733-085583NSRDB+018899999V020999999999999999999999999999+99999+99999999999ADDGP10060005202009000002021005202009GQ100600691919179GR100600505914149
0444726387148502000122507533+44733-085583FM-15+0188TVC  V0202905N00415016765MN0020005N1-00895-01115103685ADDAA101000021GD11995+0024459GD22995+0061059GD34995+0167659GF108991999999999999999999MA1103565999999MW1715REMMET099KTVC 250753Z 29008KT 1 1/4SM -SN FEW008 SCT020 OVC055 M09/M11 A3058 RMK AO2 SLP368 P0000 T10891111;EQDQ01+000003PRSWM1Q02    003PRSWM1N01 00040JPWTH 0QNNAA1D0 02008BA1 0 01008AA1D0 02020BA1 0 02020AA1D0 06055BA1 0 06055GA1 0 00055KA1D0 00012JA1 0-00111LA1 0 00125CA1 0 03058NA1 0 00040QA1 0 10368SA1D0 00016RA1 0-00089YA1 0 29008
0159726387148502000122600424+44730-085570FM-16+0190KTVC V02099999999992200019N0144841N1-00901-01201999999ADDGD12991+0087019GF104991999999999999999999MA1103561999999MW1001REMMET066KTVC 260042Z VRB03KT 9SM SCT029 M09/M12 A3058 RMK AO2 SNE37 P0000;EQDQ01+000000PRSWM2
0054726387148502000122604009+44733-085583NSRDB+018899999V020999999999999999999999999999+99999+99999999999ADDGP10060000002000000002000000002000GR100600000900009
0173726387148502000122616394+44730-085570FM-16+0190KTVC V02099999999990048019N0016091N1-00601-00801999999ADDGD14991+0048019GF108991999999999999999999MA1102711999999MW1711REMMET064KTVC 261639Z VRB06KT 1SM -SN OVC016 M06/M08 A3033 RMK AO2 P0000;EQDQ01+000003PRSWM1Q02    003PRSWM1
0389726387148502000122708533+44733-085583FM-15+0188TVC  V0203005N00465009455MN0096005N1-00895-01175102415ADDAA101000021AA203000021GD14995+0094559GF108991999999999999999999MA1102305999999MD1610041+9999MW1715REMMET093KTVC 270853Z 30009KT 6SM -SN OVC031 M09/M12 A3021 RMK AO2 SLP241 P0000 60000 T10891117 56004;EQDQ01+000003PRSWM1Q02    003PRSWM1N01 00040JPWTH 0QNNAA1D0 06031BA1 0 06031GA1 0 00031KA1D0 00011JA1 0-00117LA1 0 00600CA1 0 03021NA1 0 00040QA1 0 10241SA1D0 00016RA1 0-00089YA1 0 30009
0216726387148502000122715414+44730-085570FM-16+0190KTVC V0202801N003610105019N0040231N1-00901-01201999999ADDGD12991+0036019GD24991+0105019GF108991999999999999999999MA1102101999999MW1101MW2711REMMET086KTVC 271541Z 28007KT 2 1/2SM -SN BR SCT012 OVC035 M09/M12 A3015 RMK AO2 VIS 1V4 P0000;EQDQ01+000003PRSWM1Q02    003PRSWM1
0054726387148502000122812009+44733-085583NSRDB+018899999V020999999999999999999999999999+99999+99999999999ADDGP10060000002000000002000000002000GR100600000900009
0396726387148502000122904533+44733-085583FM-15+0188TVC  V0201005N00315002445MN0160005N1-01065-01285102305ADDGD13995+0024459GD24995+0042759GF108991999999999999999999KA1999M-00891KA2999N-01891MA1102175999999MW1001REMMET089KTVC 290453Z 10006KT 10SM BKN008 OVC014 M11/M13 A3017 RMK AO2 SLP230 T11061128 410891189;EQDQ01+000000PRSWM2N01 00000JPWTH 0QNNAA1D0 04008BA1 0 04008AA1D0 06014BA1 0 06014GA1 0 00008KA1D0 00009JA1 0-00128LA1 0 01000CA1 0 03017NA1 0 00000QA1 0 10230SA1D0 00013RA1 0-00106YA1 0 10006
0424726387148502000123020533+44733-085583FM-15+0188TVC  V0203605N00625004575MN0160005N1-00225-00565101825ADDGD13995+0045759GD23995+0152459GD34995+0609659GF108991999999999999999999MA1101735999999MD1310031+9999MW1001REMMET092KTVC 302053Z 36012KT 10SM BKN015 BKN050 OVC200 M02/M06 A3004 RMK AO2 SLP182 T10221056 53003;EQDQ01+000000PRSWM2N01 00000JPWTH 0QNNAA1D0 04015BA1 0 04015AA1D0 04050BA1 0 04050AA1D0 06200BA1 0 06200GA1 0 00015KA1D0 00022JA1 0-00056LA1 0 01000CA1 0 03004NA1 0 00000QA1 0 10182SA1D0 00028RA1 0-00022YA1 0 36012
0327726387148502000123113533+44733-085583FM-15+0188TVC  V0200105N00525005795MN0160005N1-00395-00725102195ADDGD14995+0057959GF108991999999999999999999MA1102105999999MW1001OC100771REMMET075KTVC 311353Z 01010G15KT 10SM OVC019 M04/M07 A3015 RMK AO2 SLP219 T10391072;EQDQ01+000000PRSWM2N01 00000JPWTH 0QNNAA1D0 06019BA1 0 06019GA1 0 00019KA1D0 00019JA1 0-00072LA1 0 01000CA1 0 03015NA1 0 00000QA1 0 10219SA1D0 00025RA1 0-00039YA1 0 01010
0348726390948492000011209003+45067-083583SY-MT+0210APN  V0202805N00265220005MN0160005N1-00835-01005101965ADDAA101000095GD10995+9999999GF106991999999004501999999GP10060000002000000002000000002000GR100600000900009MA1101865099341REMSYN064AAXX  12094 72639 35466 60000 11080 21110 39934 90914 555 91209;EQDN01 00000JPWTH 0QNNAA1D0 00000BA1 0 00000GA1U0 99999KA1D0 00014JA1 0-00100LA1 0 01000CA1 0 03008NA1 0 00000QA1 0 10196SA1D0 00017RA1 0-00083YA1 0 28005
0395726390948492000011406003+45067-083583SY-MT+0210APN  V0202705N00265096935MN0160005N1-01005-01395103745ADDAA101000095AA206000791GD14995+0094559GF108991999999008001999999GP10060000002000000002000000002000GR100600000900009MA1103595101031MD1810041+9999REMSYN086    AAXX  14064 72639 15566 82705 11100 21139 30103 40374 58004 69901 90554 555 91406;EQDN01 00000JPWTH 0QNNAA1D0 06031BA1 0 06031GA1 0 00318KA1D0 00007JA1 0-00139LA1 0 01000CA1 0 03059NA1 0 00000QA1 0 10374SA1D0 00014RA1 0-00100YA1 0 27005
0448726390948492000011509003+45067-083583SY-MT+0210APN  V0201605N00315028961MN0160005N1-00785-00945102915ADDAA101000095AA203000791GD11995+0054959GD24995+0289659GF108991999999004501999999GP10060000002000000002000000002000GR100600000900009MA1102785100231MD1810281+9999REMSYN086    AAXX  15094 72639 15466 81606 11078 21094 30023 40291 58028 69907 90854 555 91509;EQDQ01 999993SCOCIGN01 00000JPWTH 0QNNAA1D0 02018BA1 0 01018AA1D0 06095BA1 0 06095GA1 0 00958KA1D0 00015JA1 0-00094LA1 0 01000CA1 0 03035NA1 0 00000QA1 0 10291SA1D0 00018RA1 0-00078YA1 0 16006
0252726390948492000011511544+45070-083570FM-15+0210KAPN V0201901N002110126019N0160931N1-00701-00801102731ADDGD14991+0126019GF108991999999999999999999KA1999M-00671KA2999N-00891MA1102611999999MD1610181+9999MW1001REMMET103KAPN 151154Z AUTO 19004KT 10SM OVC042 M07/M08 A3030 RMK AO2 SLP273 60000 T10671078 11067 21089 56018 $;EQDQ01+000000PRSWM2Q02  00002PRCP06
033472639094849200001151254C+45067-083583FM-15+0210APN  V0202005N00265136555MN0160005N1-00615-00785102625ADDAA101000095GD14995+0134159GF108991999999999999999999MA1102475999999MW1001REMMET079KAPN 151254Z AUTO 20005KT 10SM OVC044 M06/M08 A3026 RMK AO2 SLP262 T10611078 $;EQDQ01+000000PRSWM2N01 00000JPWTH 0QNNAA1D0 06044BA1 0 06044GA1 0 00448KA1D0 00018JA1 0-00078LA1 0 01000CA1 0 03026NA1 0 00000QA1 0 10262SA1D0 00021RA1 0-00061YA1 0 20005
030372639094849200001170154C+45067-083583FM-15+0210APN  V0203505N00465220005MN0160005N1-01335-01945104221ADDAA101000095GF100991999999999999999999MA1104065999999MW1001REMMET074KAPN 170154Z AUTO 35009KT 10SM CLR M13/M19 A3073 RMK AO2 SLP422 T11331194;EQDQ01+000000PRSWM2N01 00000JPWTH 0QNNAA1D0 00000BA1 0 00000GA1U0 99999KA1D0-00003JA1 0-00194LA1 0 01000CA1 0 03073NA1 0 00000SA1D0 00008RA1 0-00133YA1 0 35009
0054726390948492000011702009+45067-083583NSRDB+021099999V020999999999999999999999999999+99999+99999999999ADDGP10060000002000000002000000002000GR100600000900009
0432726390948492000011800003+45067-083583SY-MT+0210APN  V0201505N00365069495MN0160005N1-01005-01285103455ADDAA101000095AA206000791GD13995+0067159GD24995+0259159GF108991999999008001999999GP10060000002000000002000000002000GR100600000900009MA1103285100731MD1810221+9999REMSYN086    AAXX  18004 72639 15566 81507 11100 21128 30073 40345 58022 69901 92354 555 91800;EQDN01 00000JPWTH 0QNNAA1D0 04022BA1 0 04022AA1D0 06085BA1 0 06085GA1 0 00228KA1D0 00009JA1 0-00128LA1 0 01000CA1 0 03050NA1 0 00000QA1 0 10345SA1D0 00014RA1 0-00100YA1 0 15007
0522726390948492000012206003+45067-083583SY-MT+0210APN  V0202505N00265220005MN0160005N1-01835-02115102095ADDAA101000095GD11995+0109759GD22995+0134159GD32995+0167659GF104991999999012501999999GP10060000002000000002000000002000GR100600000900009KA1240M-01781KA2240N-02391MA1101905099371MD1310021+9999REMSYN092AAXX  22064 72639 35666 42505 11183 21211 39937 40209 53002 90554 333 11178 21239 555 92206;EQDQ01  00002PRCP99Q02  00003PRCP99N01 00000JPWTH 0QNNAA1D0 02036BA1 0 01036AA1D0 02044BA1 0 02044AA1D0 02055BA1 0 02055GA1U0 99999KA1D0-00006JA1 0-00211LA1 0 01000CA1 0 03009NA1 0 00000QA1 0 10209SA1D0-00001RA1 0-00183YA1 0 25005
033272639094849200001220654C+45067-083583FM-15+0210APN  V0202705N00265148745MN0160005N1-01835-02065102095ADDAA101000095GD14995+0146359GF108991999999999999999999MA1101935999999MW1001REMMET077KAPN 220654Z AUTO 27005KT 10SM OVC048 M18/M21 A3010 RMK AO2 SLP209 T11831206;EQDQ01+000000PRSWM2N01 00000JPWTH 0QNNAA1D0 06048BA1 0 06048GA1 0 00488KA1D0-00005JA1 0-00206LA1 0 01000CA1 0 03010NA1 0 00000QA1 0 10209SA1D0-00001RA1 0-00183YA1 0 27005
0702726390948492000012404596+45072-083564SOD  +0211KAPN V020999999999999999999999999999+99999+99999999999ADDAA124000025AT1MW18SN  5AT2MW01FG  5AT3MW13BR  1KA1240M-00385KA2240N-01325MG1098279999994OE11240098326014045OE22240071525013145OE33240041199999995REMSOD54524 HR PRECIPITATION (IN):  T   24 HR MAX TEMP (F): 2524 HR MAX TEMP TIME (LST):1256 24 HR MIN TEMP (F):  824 HR MIN TEMP TIME (LST):2359 AVERAGE STATION PRESSURE:29.02  PEAK WIND SPEED (MPH): 22 PEAK WIND DIR (DEG):260 PEAK WIND TIME (LST):1404  FASTEST 2MIN SPEED (MPH): 16FASTEST 2MIN DIR (DEG):250 FASTEST 2MIN TIME (LST):1314 AVERAGE WIND SPEED (MPH): 9.2 24 HR AVG TEMP (F):17 HOURLY INCREMENTAL PRECIPITATION VALUES (IN): T    T    T   .00  .00  .00  .00   T    T    T    T   .00   T    T    T    T    T    T   .00  .00  .00  .00  .00  .00
034472639094849200001270154C+45067-083583FM-15+0210APN  V0203205N00315093885MN0160005N1-01285-01565102875ADDAA101000025GD14995+0091459GF108991999999999999999999MA1102715999999MW1001REMMET089KAPN 270154Z AUTO 32006KT 10SM OVC030 M13/M16 A3033 RMK AO2 SNE41 SLP287 P0000 T11281156;EQDQ01+000000PRSWM2N01 00000JPWTH 0QNNAA1D0 06030BA1 0 06030GA1 0 00308KA1D0 00004JA1 0-00156LA1 0 01000CA1 0 03033NA1 0 00000QA1 0 10287SA1D0 00009RA1 0-00128YA1 0 32006
035772639094849200001270754C+45067-083583FM-15+0210APN  V0203505N00625069495MN0144005N1-01395-01675103135ADDAA101000025GD14995+0067159GF108991999999999999999999MA1102955999999MW1715REMMET086KAPN 270754Z AUTO 35012KT 9SM -SN OVC022 M14/M17 A3040 RMK AO2 SLP313 P0000 T11391167;EQDQ01+000003PRSWM1Q02    003PRSWM1N01 00040JPWTH 0QNNAA1D0 06022BA1 0 06022GA1 0 00228KA1D0 00002JA1 0-00167LA1 0 00900CA1 0 03040NA1 0 00040QA1 0 10313SA1D0 00007RA1 0-00139YA1 0 35012
033272639094849200001281054C+45067-083583FM-15+0210APN  V0209999V00215118265MN0160005N1-00565-00785103505ADDAA101000095GD14995+0115859GF108991999999999999999999MA1103355999999MW1001REMMET077KAPN 281054Z AUTO VRB04KT 10SM OVC038 M06/M08 A3052 RMK AO2 SLP350 T10561078;EQDQ01+000000PRSWM2N01 00000JPWTH 0QNNAA1D0 06038BA1 0 06038GA1 0 00388KA1D0 00018JA1 0-00078LA1 0 01000CA1 0 03052NA1 0 00000QA1 0 10350SA1D0 00022RA1 0-00056YA1 0 00004
0054726390948492000012811009+45067-083583NSRDB+021099999V020999999999999999999999999999+99999+99999999999ADDGP10060000002000000002000000002000GR100600000900009
0071726390948492000012823009+45067-083583NSRDB+021099999V020999999999999999999999999999+99999+99999999999ADDGP10060000102009000002021000102009GQ100600876924139GR100600033907879
037472639094849200002051854C+45067-083583FM-15+0210APN  V0203005N00675007325MN0128005N1-00225-00675101325ADDAA101000025GD14995+0073259GF108991999999999999999999MA1101225999999MW1715OC101031REMMET095KAPN 051854Z AUTO 30013G20KT 8SM -SN OVC024 M02/M07 A2989 RMK AO2 SNB36 SLP132 P0000 T10221067;EQDQ01+000003PRSWM1Q02    003PRSWM1N01 00040JPWTH 0QNNAA1D0 06024BA1 0 06024GA1 0 00024KA1D0 00020JA1 0-00067LA1 0 00800CA1 0 02989NA1 0 00040QA1 0 10132SA1D0 00028RA1 0-00022YA1 0 30013
0172726390948492000020608544+45070-083570FM-15+0210KAPN V0202701N002612200019N0160931N1-01001-01101102611ADDGF100991999999999999999999MA1102471999999MD1010061+9999MW1001REMMET080KAPN 060854Z AUTO 27005KT 10SM CLR M10/M11 A3026 RMK AO2 SLP261 T11001111 50006;EQDQ01+000000PRSWM2
0440726390948492000021209003+45067-083583SY-MT+0210APN  V0209999C00005220005MN0160005N1-02335-02615102665ADDAA101000095GA1001+999999999GD10995+9999999GF100991001001999999001001GP10060000002000000002000000002000GR100600000900009MA1102475099941REMSYN076AAXX  12094 72639 35966 00000 11233 21261 39994 40266 58000 90854 555 91209;EQDQ01+000082APCTENQ02+000002APC3  Q03  00002PRCP99Q04  00003PRCP99N01 00000JPWTH 0QNNAA1D0 00000BA1 0 00000GA1U0 99999KA1D0-00015JA1 0-00261LA1 0 01000CA1 0 03026NA1 0 00000QA1 0 10266SA1D0-00010RA1 0-00233YA1 0 00000
038172639094849200002160454C+45067-083583FM-15+0210APN  V0201905N00265004885MN0112005N1-00225-00335100835ADDAA101000025GD14995+0048859GF108991999999999999999999KA1999M+00001KA2999N-01111MA1100755999999MW1001REMMET100KAPN 160454Z AUTO 19005KT 7SM OVC016 M02/M03 A2975 RMK AO2 SNE0357 SLP083 P0000 T10221033 400001111;EQDQ01+000000PRSWM2N01 00000JPWTH 0QNNAA1D0 06016BA1 0 06016GA1 0 00016KA1D0 00026JA1 0-00033LA1 0 00700CA1 0 02975NA1 0 00000QA1 0 10083SA1D0 00028RA1 0-00022YA1 0 19005
040572639094849200002161654C+45067-083583FM-15+0210APN  V0203305N00775010675MN0160005N1-00505-01115102155ADDAA101000095GD11995+0082359GD23995+0106759GF107991999999999999999999MA1102035999999MW1001OC101031REMMET105KAPN 161654Z AUTO 33015G20KT 10SM FEW027 BKN035 M05/M11 A3013 RMK AO2 PK WND 34026/1630 SLP215 T10501111;EQDQ01+000000PRSWM2N01 00000JPWTH 0QNNAA1D0 02027BA1 0 01027AA1D0 04035BA1 0 04035GA1 0 00035KA1D0 00012JA1 0-00111LA1 0 01000CA1 0 03013NA1 0 00000QA1 0 10215SA1D0 00023RA1 0-00050YA1 0 33015
0448726390948492000021912003+45067-083583SY-MT+0210APN  V0209999C00005007015MN0160005N1-01445-01615102255ADDAA101000095GD14995+0070159GF108991999999008001999999GP10060000002000000002000000002000GR100600000900009KA1999M-00221KA2120N-01561MA1102105099571MD1310071+9999REMSYN092AAXX  19124 72639 35566 80000 11144 21161 39957 40225 53007 91154 333 11022 21156 555 91912;EQDQ01  00002PRCP99Q02  00003PRCP99N01 00000JPWTH 0QNNAA1D0 06023BA1 0 06023GA1 0 00023KA1D0 00003JA1 0-00161LA1 0 01000CA1 0 03015NA1 0 00000QA1 0 10225SA1D0 00006RA1 0-00144YA1 0 00000
035472639094849200002191954C+45067-083583FM-15+0210APN  V0202405N00155012505MN0160005N1-00175-01005102115ADDAA101000025GD14995+0125059GF108991999999999999999999MA1101965999999MW1001REMMET099KAPN 191954Z AUTO 24003KT 10SM OVC041 M02/M10 A3011 RMK AO2 UPB1855E01B33E41 SLP21 P0000 T10171100;EQDQ01+000000PRSWM2N01 00000JPWTH 0QNNAA1D0 06041BA1 0 06041GA1 0 00041KA1D0 00014JA1 0-00100LA1 0 01000CA1 0 03011NA1 0 00000QA1 0 10211SA1D0 00029RA1 0-00017YA1 0 24003
0443726390948492000022003003+45067-083583SY-MT+0210APN  V0202205N00365015245MN0160005N1-00285-00675101885ADDAA101000095GD11995+0115859GD24995+0152459GF108991999999012501999999GP10060000002000000002000000002000GR100600000900009MA1101765099241MD1810101+9999REMSYN076AAXX  20034 72639 35666 82207 11028 21067 39924 40188 58010 90254 555 92003;EQDQ01  00002PRCP99Q02  00003PRCP99N01 00000JPWTH 0QNNAA1D0 02038BA1 0 01038AA1D0 06050BA1 0 06050GA1 0 00050KA1D0 00020JA1 0-00067LA1 0 01000CA1 0 03005NA1 0 00000QA1 0 10188SA1D0 00027RA1 0-00028YA1 0 22007
0054726390948492000022302009+45067-083583NSRDB+021099999V020999999999999999999999999999+99999+99999999999ADDGP10060000002000000002000000002000GR100600000900009
037372639094849200002250354C+45067-083583FM-15+0210APN  V0200705N00365000305MN0004005N1+00335+00335101465ADDAA101000025GD15995+0003059GF109991999999000251999999MA1101395999999MW1455REMMET102KAPN 250354Z AUTO 07007KT 1/4SM FG VV001 03/03 A2994 RMK AO2 TWR VIS 1/2 RAE13 SLP146 P0000 T00330033;EQDQ01+000003PRSWM1Q02    003PRSWM1N01 00070JPWTH 0QNNAA1D0 07001BA1 0 07001GA1 0 00001KA1D0 00038JA1 0 00033LA1 0 00025CA1 0 02994NA1 0 00070QA1 0 10146SA1D0 00038RA1 0 00033YA1 0 07007
0054726390948492000022711009+45067-083583NSRDB+021099999V020999999999999999999999999999+99999+99999999999ADDGP10060000002000000002000000002000GR100600000900009
0054726390948492000030108009+45067-083583NSRDB+021099999V020999999999999999999999999999+99999+99999999999ADDGP10060000002000000002000000002000GR100600000900009
033272639094849200003020954C+45067-083583FM-15+0210APN  V0203205N00675006405MN0160005N1-00175-00615101685ADDAA101000095GD14995+0064059GF108991999999999999999999MA1101595999999MW1001REMMET077KAPN 020954Z AUTO 32013KT 10SM OVC021 M02/M06 A3000 RMK AO2 SLP168 T10171061;EQDQ01+000000PRSWM2N01 00000JPWTH 0QNNAA1D0 06021BA1 0 06021GA1 0 00021KA1D0 00021JA1 0-00061LA1 0 01000CA1 0 03000NA1 0 00000QA1 0 10168SA1D0 00029RA1 0-00017YA1 0 32013
031472639094849200003040654C+45067-083583FM-15+0210APN  V0202305N00155220005MN0160005N1-00285-00675101195ADDAA101000095GF100991999999999999999999MA1101125999999MW1001REMMET074KAPN 040654Z AUTO 23003KT 10SM CLR M03/M07 A2986 RMK AO2 SLP119 T10281067;EQDQ01+000000PRSWM2N01 00000JPWTH 0QNNAA1D0 00000BA1 0 00000GA1U0 99999KA1D0 00020JA1 0-00067LA1 0 01000CA1 0 02986NA1 0 00000QA1 0 10119SA1D0 00027RA1 0-00028YA1 0 23003
031972639094849200003041654C+45067-083583FM-15+0210APN  V0202905N00675220005MN0160005N1+00945-00175100865ADDAA101000095GF100991999999999999999999MA1100815999999MW1001OC100871REMMET071KAPN 041654Z 29013G17KT 10SM CLR 09/M02 A2977 RMK AO2 SLP086 T00941017;EQDQ01+000000PRSWM2N01 00000JPWTH 0QNNAA1D0 00000BA1 0 00000GA1U0 99999KA1D0 00029JA1 0-00017LA1 0 01000CA1 0 02977NA1 0 00000QA1 0 10086SA1D0 00049RA1 0 00094YA1 0 29013
034972639094849200003050454C+45067-083583FM-15+0210APN  V0202905N00315220005MN0160005N1+00445-00175101085ADDAA101000095GF100991999999999999999999KA1999M+01281KA2999N-00501MA1101055999999MW1001REMMET083KAPN 050454Z AUTO 29006KT 10SM CLR 04/M02 A2984 RMK AO2 SLP108 T00441017 401281050;EQDQ01+000000PRSWM2N01 00000JPWTH 0QNNAA1D0 00000BA1 0 00000GA1U0 99999KA1D0 00029JA1 0-00017LA1 0 01000CA1 0 02984NA1 0 00000QA1 0 10108SA1D0 00040RA1 0 00044YA1 0 29006
0071726390948492000030820009+45067-083583NSRDB+021099999V020999999999999999999999999999+99999+99999999999ADDGP10060057602009071402021016502009GQ100600550921259GR100600796913879
0726726390948492000031004596+45072-083564SOD  +0211KAPN V020999999999999999999999999999+99999+99999999999ADDAA124003695AT1MW16RA  5AT2MW18SN  5AT3MW04PL  5AT4MW01FG  5AT5MW13BR  1KA1240M+01945KA2240N-00825MG1098049999994OE11240147524001085OE22240111825001085OE33240061799999995REMSOD54524 HR PRECIPITATION (IN): 0.14 24 HR MAX TEMP (F): 6724 HR MAX TEMP TIME (LST):0037 24 HR MIN TEMP (F): 1724 HR MIN TEMP TIME (LST):2359 AVERAGE STATION PRESSURE:28.95  PEAK WIND SPEED (MPH): 33 PEAK WIND DIR (DEG):240 PEAK WIND TIME (LST):0108  FASTEST 2MIN SPEED (MPH): 25FASTEST 2MIN DIR (DEG):250 FASTEST 2MIN TIME (LST):0108 AVERAGE WIND SPEED (MPH):13.8 24 HR AVG TEMP (F):42 HOURLY INCREMENTAL PRECIPITATION VALUES (IN):.01  .06  .06   T   .00  .00  .00  .00  .00  .00  .00  .01   T    T    T    T    T    T    T    T    T   .00  .00  .00
035072639094849200003120454C+45067-083583FM-15+0210APN  V0203105N00215220005MN0160005N1-00565-01065101855ADDAA101000095GF100991999999999999999999KA1999M+00111KA2999N-01221MA1101735999999MW1001REMMET084KAPN 120454Z AUTO 31004KT 10SM CLR M06/M11 A3004 RMK AO2 SLP185 T10561106 400111122;EQDQ01+000000PRSWM2N01 00000JPWTH 0QNNAA1D0 00000BA1 0 00000GA1U0 99999KA1D0 00013JA1 0-00106LA1 0 01000CA1 0 03004NA1 0 00000QA1 0 10185SA1D0 00022RA1 0-00056YA1 0 31004
035572639094849200003141254C+45067-083583FM-15+0210APN  V0202205N00315220005MN0064005N1+00005-00115101715ADDAA101000095GD11995+0182959GF102991999999999999999999MA1101635999999MW1101MW2455REMMET078KAPN 141254Z AUTO 22006KT 4SM BR FEW060 00/M01 A3001 RMK AO2 SLP171 T00001011;EQDQ01+000003PRSWM1Q02    003PRSWM1N01 00070JPWTH 0QNNAA1D0 02060BA1 0 01060GA1U0 99999KA1D0 00030JA1 0-00011LA1 0 00400CA1 0 03001NA1 0 00070QA1 0 10171SA1D0 00032RA1 0 00000YA1 0 22006
0071726390948492000031415009+45067-083583NSRDB+021099999V020999999999999999999999999999+99999+99999999999ADDGP10060043002009074702021010002009GQ100600639912389GR100600609913839
032672639094849200003151554C+45067-083583FM-15+0210APN  V0201405N00525001525MN0160005N1+00005-00115101395ADDAA101000095GD14995+0015259GF108991999999999999999999MA1101325999999MW1001REMMET071KAPN 151554Z 14010KT 10SM OVC005 00/M01 A2992 RMK AO2 SLP139 T00001011;EQDQ01+000000PRSWM2N01 00000JPWTH 0QNNAA1D0 06005BA1 0 06005GA1 0 00005KA1D0 00030JA1 0-00011LA1 0 01000CA1 0 02992NA1 0 00000QA1 0 10139SA1D0 00032RA1 0 00000YA1 0 14010
0464726390948492000031806003+45067-083583SY-MT+0210APN  V0201805N00265220005MN0160005N1-00725-01175103405ADDAA101000095GA1001+999999999GD10995+9999999GF100991001001999999001001GP10060000002000000002000000002000GR100600000900009KA1240M-00501KA2240N-01001MA1103285100731MD1810161+9999REMSYN092AAXX  18064 72639 35966 01805 11072 21117 30073 40340 58016 90554 333 11050 21100 555 91806;EQDQ01  00002PRCP99Q02  00003PRCP99N01 00000JPWTH 0QNNAA1D0 00000BA1 0 00000GA1U0 99999KA1D0 00011JA1 0-00117LA1 0 01000CA1 0 03050NA1 0 00000QA1 0 10340SA1D0 00019RA1 0-00072YA1 0 18005
041872639094849200003200454C+45067-083583FM-15+0210APN  V0201005N00525000915MN0048005N1+00115+00065102055ADDAA101000025GD14995+0009159GF108991999999999999999999KA1999M+00391KA2999N-00061MA1102005999999MW1101MW2455REMMET115KAPN 200454Z AUTO 10010KT 3SM BR OVC003 01/01 A3012 RMK AO2 VIS 2 1/2 RY 19 UPE02 SLP205 P0000 T00110006 400391006;EQDQ01+000003PRSWM1Q02    003PRSWM1N01 00070JPWTH 0QNNAA1D0 06003BA1 0 06003GA1 0 00003KA1D0 00033JA1 0 00006LA1 0 00300CA1 0 03012NA1 0 00070QA1 0 10205SA1D0 00034RA1 0 00011YA1 0 10010
0054726390948492000032107009+45067-083583NSRDB+021099999V020999999999999999999999999999+99999+99999999999ADDGP10060000002000000002000000002000GR100600000900009
033172639094849200003271554C+45067-083583FM-15+0210APN  V0202305N00415010365MN0160005N1+00505-00065098835ADDAA101000095GD14995+0103659GF108991999999999999999999MA1098785999999MW1001REMMET076KAPN 271554Z AUTO 23008KT 10SM OVC034 05/M01 A2917 RMK AO2 SLP883 T00501006;EQDQ01+000000PRSWM2N01 00000JPWTH 0QNNAA1D0 06034BA1 0 06034GA1 0 00034KA1D0 00031JA1 0-00006LA1 0 01000CA1 0 02917NA1 0 00000QA1 0 09883SA1D0 00041RA1 0 00050YA1 0 23008
037672639094849200003280954C+45067-083583FM-15+0210APN  V0209999C00005013115MN0160005N1-00065-00115099455ADDAA101000095GD13995+0131159GD23995+0213459GF107991999999999999999999MA1099395999999MW1001REMMET084KAPN 280954Z AUTO 00000KT 10SM BKN043 BKN070 M01/M01 A2935 RMK AO2 SLP945 T10061011;EQDQ01+000000PRSWM2N01 00000JPWTH 0QNNAA1D0 04043BA1 0 04043AA1D0 04070BA1 0 04070GA1 0 00043KA1D0 00030JA1 0-00011LA1 0 01000CA1 0 02935NA1 0 00000QA1 0 09945SA1D0 00031RA1 0-00006YA1 0 00000
033772639094849200003291854C+45067-083583FM-15+0210APN  V0202705N00725008235MN0160005N1+00395-00285100925ADDAA101000095GD14995+0082359GF108991999999999999999999MA1100855999999MW1001OC101031REMMET074KAPN 291854Z 27014G20KT 10SM OVC027 04/M03 A2978 RMK AO2 SLP092 T00391028;EQDQ01+000000PRSWM2N01 00000JPWTH 0QNNAA1D0 06027BA1 0 06027GA1 0 00027KA1D0 00027JA1 0-00028LA1 0 01000CA1 0 02978NA1 0 00000QA1 0 10092SA1D0 00039RA1 0 00039YA1 0 27014
031472639094849200003300954C+45067-083583FM-15+0210APN  V0202905N00365220005MN0160005N1-00225-00335101525ADDAA101000095GF100991999999999999999999MA1101465999999MW1001REMMET074KAPN 300954Z AUTO 29007KT 10SM CLR M02/M03 A2996 RMK AO2 SLP152 T10221033;EQDQ01+000000PRSWM2N01 00000JPWTH 0QNNAA1D0 00000BA1 0 00000GA1U0 99999KA1D0 00026JA1 0-00033LA1 0 01000CA1 0 02996NA1 0 00000QA1 0 10152SA1D0 00028RA1 0-00022YA1 0 29007
0071726390948492000040114009+45067-083583NSRDB+021099999V020999999999999999999999999999+99999+99999999999ADDGP10060022402008010002015018502008GQ100600671910729GR100600532913689
0054726390948492000040405009+45067-083583NSRDB+021099999V020999999999999999999999999999+99999+99999999999ADDGP10060000002000000002000000002000GR100600000900009
031972639094849200004040654C+45067-083583FM-15+0210APN  V0209999V00155004275MN0160005N1+00395+00225100091ADDAA101000095GD14995+0042759GF108991999999999999999999MA1100035999999MW1001REMMET075KAPN 040654Z AUTO VRB03KT 10SM OVC014 04/02 A2954 RMK AO2 SLP009 T00390022;EQDQ01+000000PRSWM2N01 00000JPWTH 0QNNAA1D0 06014BA1 0 06014GA1 0 00014KA1D0 00036JA1 0 00022LA1 0 01000CA1 0 02954NA1 0 00000SA1D0 00039RA1 0 00039YA1 0 00003
037672639094849200004120754C+45067-083583FM-15+0210APN  V0202805N00155006105MN0160005N1-00335-00395102705ADDAA101000095GD13995+0061059GD24995+0259159GF108991999999999999999999MA1102615999999MW1001REMMET084KAPN 120754Z AUTO 28003KT 10SM BKN020 OVC085 M03/M04 A3030 RMK AO2 SLP270 T10331039;EQDQ01+000000PRSWM2N01 00000JPWTH 0QNNAA1D0 04020BA1 0 04020AA1D0 06085BA1 0 06085GA1 0 00020KA1D0 00025JA1 0-00039LA1 0 01000CA1 0 03030NA1 0 00000QA1 0 10270SA1D0 00026RA1 0-00033YA1 0 28003
032572639094849200004150154C+45067-083583FM-15+0210APN  V0209999C00005220005MN0160005N1+00835+00225101345ADDAA101000095GD11995+0365859GF102991999999999999999999MA1101325999999MW1001REMMET070KAPN 150154Z 00000KT 10SM FEW120 08/02 A2992 RMK AO2 SLP134 T00830022;EQDQ01+000000PRSWM2N01 00000JPWTH 0QNNAA1D0 02120BA1 0 01120GA1U0 99999KA1D0 00036JA1 0 00022LA1 0 01000CA1 0 02992NA1 0 00000QA1 0 10134SA1D0 00047RA1 0 00083YA1 0 00000
031272639094849200004150654C+45067-083583FM-15+0210APN  V0209999C00005220005MN0160005N1+00835+00225101035ADDAA101000095GF100991999999999999999999MA1101025999999MW1001REMMET072KAPN 150654Z AUTO 00000KT 10SM CLR 08/02 A2983 RMK AO2 SLP103 T00830022;EQDQ01+000000PRSWM2N01 00000JPWTH 0QNNAA1D0 00000BA1 0 00000GA1U0 99999KA1D0 00036JA1 0 00022LA1 0 01000CA1 0 02983NA1 0 00000QA1 0 10103SA1D0 00047RA1 0 00083YA1 0 00000
0071726390948492000041813009+45067-083583NSRDB+021099999V020999999999999999999999999999+99999+99999999999ADDGP10060021102008017402015015802008GQ100600722909219GR100600413913559
033072639094849200004192254C+45067-083583FM-15+0210APN  V0200905N00315036585MN0160005N1+00945+00225101865ADDAA101000095GD13995+0365859GF107991999999999999999999MA1101835999999MW1001REMMET075KAPN 192254Z AUTO 09006KT 10SM BKN120 09/02 A3007 RMK AO2 SLP186 T00940022;EQDQ01+000000PRSWM2N01 00000JPWTH 0QNNAA1D0 04120BA1 0 04120GA1 0 00120KA1D0 00036JA1 0 00022LA1 0 01000CA1 0 03007NA1 0 00000QA1 0 10186SA1D0 00049RA1 0 00094YA1 0 09006
0480726390948492000042018003+45067-083583SY-MT+0210APN  V0200805N00825003665MN0096005N1+00285+00225101285ADDAA101004395AA206007991GD14995+0036659GF108991999999004501999999GP10060014402008000002015014402008GQ100600335917869GR100601129913539KA1120M+00611KA2240N+00281MA1101225098711MD1810091+9999MW1455MW2615REMSYN116AAXX  20184 72639 11459 80816 10028 20022 39871 40128 58009 60081 761// 91754 333 10061 20028 91023 96010 555 92018;EQDN01 02070JPWTH 0QNNAA1D0 06012BA1 0 06012GA1 0 00012KA1D0 00036JA1 0 00022LA1 0 00600CA1 0 02989NA1 0 02070QA1 0 10128SA1D0 00037RA1 0 00028YA1 0 08016
047272639094849200004210154C+45067-083583FM-15+0210APN  V0200605N00825006405MN0144005N1+00395+00285100955ADDAA101002595GD11995+0030559GD22995+0048859GD34995+0064059GF108991999999999999999999MA1100885999999MW1615OC101341REMMET119KAPN 210154Z AUTO 06016G26KT 9SM -RA FEW010 SCT016 OVC021 04/03 A2979 RMK AO2 PK WND 07027/0124 SLP095 P0010 T00390028;EQDQ01+000003PRSWM1Q02    003PRSWM1N01 00020JPWTH 0QNNAA1D0 02010BA1 0 01010AA1D0 02016BA1 0 02016AA1D0 06021BA1 0 06021GA1 0 00021KA1D0 00037JA1 0 00028LA1 0 00900CA1 0 02979NA1 0 00020QA1 0 10095SA1D0 00039RA1 0 00039YA1 0 06016
0054726390948492000042507009+45067-083583NSRDB+021099999V020999999999999999999999999999+99999+99999999999ADDGP10060000002000000002000000002000GR100600000900009
0071726390948492000042619009+45067-083583NSRDB+021099999V020999999999999999999999999999+99999+99999999999ADDGP10060088702008092202015012002008GQ100600338920589GR100601121913499
035172639094849200004282054C+45067-083583FM-15+0210APN  V0201405N00775220005MN0160005N1+01835-00505101205ADDAA101000095GD11995+0335359GF102991999999999999999999MA1101195999999MD1810061+9999MW1001REMMET082KAPN 282054Z AUTO 14015KT 10SM FEW110 18/M05 A2988 RMK AO2 SLP120 T01831050 58006;EQDQ01+000000PRSWM2N01 00000JPWTH 0QNNAA1D0 02110BA1 0 01110GA1U0 99999KA1D0 00023JA1 0-00050LA1 0 01000CA1 0 02988NA1 0 00000QA1 0 10120SA1D0 00065RA1 0 00183YA1 0 14015
0071726390948492000042923009+45067-083583NSRDB+021099999V020999999999999999999999999999+99999+99999999999ADDGP10060032502008067402015008002008GQ100600687926999GR100600488913479
0071726390948492000043022009+45067-083583NSRDB+021099999V020999999999999999999999999999+99999+99999999999ADDGP10060051102008074702015011502008GQ100600581925899GR100600711913469
0223726390948492000050111454+45070-083570FM-15+0210KAPN V0201701N002610180019N0032181N1+00701+00701999999ADDAA101001391GD12991+0141019GD24991+0180019GF108991999999999999999999MA1101051999999MW1101MW2611REMMET082KAPN 011145Z 17005KT 2SM -RA BR SCT047 OVC065 07/07 A2984 RMK AO2 TWR VIS 3 P0005;EQDQ01+000003PRSWM1Q02    003PRSWM1
031272639094849200005070054C+45067-083583FM-15+0210APN  V0202305N00465220005MN0160005N1+02615+01285101115ADDAA101000095GF100991999999999999999999MA1101155999999MW1001REMMET072KAPN 070054Z AUTO 23009KT 10SM CLR 26/13 A2987 RMK AO2 SLP111 T02610128;EQDQ01+000000PRSWM2N01 00000JPWTH 0QNNAA1D0 00000BA1 0 00000GA1U0 99999KA1D0 00055JA1 0 00128LA1 0 01000CA1 0 02987NA1 0 00000QA1 0 10111SA1D0 00079RA1 0 00261YA1 0 23009
0214726390948492000051017544+45070-083570FM-15+0210KAPN V0203201N005112200019N0160931N1+01401+00401100751ADDGF100991999999999999999999KA1999M+01441KA2999N+00781MA1100711999999MD1010121+9999MW1001OC101081REMMET088KAPN 101754Z 32010G21KT 10SM CLR 14/04 A2974 RMK AO2 SLP075 T01440039 10144 20078 50012;EQDQ01+000000PRSWM2
0294726390948492000051123544+45070-083570FM-15+0210KAPN V0201301N005710180019N0096561N1+01001+00901100781ADDAA101000021AA206007491GD14991+0180019GF108991999999999999999999KA1999M+01281KA2999N+01001MA1100751999999MD1510131+9999MW1101MW2611REMMET117KAPN 112354Z AUTO 13011KT 6SM -RA BR OVC060 10/09 A2975 RMK AO2 RAB41 SLP078 P0000 60029 T01000094 10128 20100 55013;EQDQ01+000003PRSWM1Q02    003PRSWM1
035672639094849200005161354C+45067-083583FM-15+0210APN  V0209999C00005015245MN0128005N1+00835+00565101845ADDAA101000395GD14995+0152459GF108991999999999999999999MA1101795999999MW1615REMMET085KAPN 161354Z 00000KT 8SM -RA OVC050 08/06 A3006 RMK AO2 RAB02 SLP184 P0001 T00830056;EQDQ01+000003PRSWM1Q02    003PRSWM1N01 00020JPWTH 0QNNAA1D0 06050BA1 0 06050GA1 0 00050KA1D0 00042JA1 0 00056LA1 0 00800CA1 0 03006NA1 0 00020QA1 0 10184SA1D0 00047RA1 0 00083YA1 0 00000
032972639094849200005172254C+45067-083583FM-15+0210APN  V0201505N00315220005MN0128005N1+01115+00835101285ADDAA101000095GD11995+0365859GF102991999999999999999999MA1101255999999MW1001REMMET074KAPN 172254Z AUTO 15006KT 8SM FEW120 11/08 A2990 RMK AO2 SLP128 T01110083;EQDQ01+000000PRSWM2N01 00000JPWTH 0QNNAA1D0 02120BA1 0 01120GA1U0 99999KA1D0 00047JA1 0 00083LA1 0 00800CA1 0 02990NA1 0 00000QA1 0 10128SA1D0 00052RA1 0 00111YA1 0 15006
0494726390948492000051818003+45067-083583SY-MT+0210APN  V0203505N00365007625MN0160005N1+00835+00675101745ADDAA101000395AA206005191GD11995+0036659GD22995+0051859GD34995+0076259GF108991999999004501999999GP10060034302008001802015032602008GQ100600256917969GR100601204913359MA1101695099171MD1110401+9999MW1615REMSYN088AAXX  18184 72639 11466 83507 10083 20067 39917 40174 51040 60051 761// 91754 555 91818;EQDN01 00020JPWTH 0QNNAA1D0 02012BA1 0 01012AA1D0 02017BA1 0 02017AA1D0 06025BA1 0 06025GA1 0 00025KA1D0 00044JA1 0 00067LA1 0 01000CA1 0 03003NA1 0 00020QA1 0 10174SA1D0 00047RA1 0 00083YA1 0 35007
031272639094849200005190654C+45067-083583FM-15+0210APN  V0200705N00465220005MN0160005N1+00565+00005102295ADDAA101000095GF100991999999999999999999MA1102245999999MW1001REMMET072KAPN 190654Z AUTO 07009KT 10SM CLR 06/00 A3019 RMK AO2 SLP229 T00560000;EQDQ01+000000PRSWM2N01 00000JPWTH 0QNNAA1D0 00000BA1 0 00000GA1U0 99999KA1D0 00032JA1 0 00000LA1 0 01000CA1 0 03019NA1 0 00000QA1 0 10229SA1D0 00042RA1 0 00056YA1 0 07009
0054726390948492000052207009+45067-083583NSRDB+021099999V020999999999999999999999999999+99999+99999999999ADDGP10060000002000000002000000002000GR100600000900009
047972639094849200005240054C+45067-083583FM-15+0210APN  V0202805N00725005495MN0012005N1+01505+01285099705ADDAA101011995GD13995+0054959GD23995+0097559GD34995+0243859GF108991999999999999999999MA1099705999999MW1101MW2455MW3821MW4971OC100981REMMET124KAPN 240054Z AUTO 28014G19KT 3/4SM +TSRA BR BKN018 BKN032 OVC080 15/13 A2944 RMK AO2 TWR VIS 2 RAB14 SLP970 P0047 T01500128;EQDQ01+000003PRSWM1N01 00070JPWTH 0QNNAA1D0 04018BA1 0 04018AA1D0 04032BA1 0 04032AA1D0 06080BA1 0 06080GA1 0 00018KA1D0 00055JA1 0 00128LA1 0 00075CA1 0 02944NA1 0 00070QA1 0 09970SA1D0 00059RA1 0 00150YA1 0 28014
0685726390948492000052704596+45072-083564SOD  +0211KAPN V020999999999999999999999999999+99999+99999999999ADDAA124000096KA1240M+02005KA2240N+00445MG1098859999994OE11240093901015185OE22240071501016125OE33240031799999995REMSOD54524 HR PRECIPITATION (IN): 0.00 24 HR MAX TEMP (F): 6824 HR MAX TEMP TIME (LST):1441 24 HR MIN TEMP (F): 4024 HR MIN TEMP TIME (LST):0508 AVERAGE STATION PRESSURE:29.19  PEAK WIND SPEED (MPH): 21 PEAK WIND DIR (DEG):010 PEAK WIND TIME (LST):1518  FASTEST 2MIN SPEED (MPH): 16FASTEST 2MIN DIR (DEG):010 FASTEST 2MIN TIME (LST):1612 AVERAGE WIND SPEED (MPH): 7.1 24 HR AVG TEMP (F):54 HOURLY INCREMENTAL PRECIPITATION VALUES (IN):.00  .00  .00  .00  .00  .00  .00  .00  .00  .00  .00  .00  .00  .00  .00  .00  .00  .00  .00  .00  .00  .00  .00  .00EQDR01  0.007AAP092
047272639094849200006020854C+45067-083583FM-15+0210APN  V0202205N00465010365MN0160005N1+01675+01565100805ADDAA101000025AA203000021GD12995+0057959GD23995+0103659GD34995+0125059GF108991999999999999999999MA1100785999999MD1810171+9999MW1001REMMET118KAPN 020854Z AUTO 22009KT 10SM SCT019 BKN034 OVC041 17/16 A2976 RMK AO2 RAB0757E04 SLP080 P0000 60000 T01670156 58017;EQDQ01+000000PRSWM2N01 00000JPWTH 0QNNAA1D0 02019BA1 0 02019AA1D0 04034BA1 0 04034AA1D0 06041BA1 0 06041GA1 0 00034KA1D0 00060JA1 0 00156LA1 0 01000CA1 0 02976NA1 0 00000QA1 0 10080SA1D0 00062RA1 0 00167YA1 0 22009
0465726390948492000060718003+45067-083583SY-MT+0210APN  V0201205N00525220005MN0160005N1+01945+01005101925ADDAA101000095GD12995+0228659GF104991999999022501999999GP10060069202008030602015040802008GQ100600225917819GR100601225913269KA1120M+02391KA2240N+01331MA1101905099371MD1610131+9999REMSYN092AAXX  07184 72639 32866 41210 10194 20100 39937 40192 56013 91754 333 10239 20133 555 90718;EQDQ01  00002PRCP99Q02  00003PRCP99N01 00000JPWTH 0QNNAA1D0 02075BA1 0 02075GA1U0 99999KA1D0 00050JA1 0 00100LA1 0 01000CA1 0 03009NA1 0 00000QA1 0 10192SA1D0 00067RA1 0 00194YA1 0 12010
0054726390948492000060803009+45067-083583NSRDB+021099999V020999999999999999999999999999+99999+99999999999ADDGP10060000002000000002000000002000GR100600000900009
041772639094849200006110154C+45067-083583FM-15+0210APN  V0202505N00985016765MN0160005N1+02615+01895100785ADDAA101000395GD12995+0134159GD23995+0167659GF107991999999999999999999MA1100855999999MW1615OC101231REMMET101KAPN 110154Z AUTO 25019G24KT 10SM -RA SCT044 BKN055 26/19 A2978 RMK AO2 RAB02 SLP078 P0001 T02610189;EQDQ01+000003PRSWM1Q02    003PRSWM1N01 00020JPWTH 0QNNAA1D0 02044BA1 0 02044AA1D0 04055BA1 0 04055GA1 0 00055KA1D0 00066JA1 0 00189LA1 0 01000CA1 0 02978NA1 0 00020QA1 0 10078SA1D0 00079RA1 0 00261YA1 0 25019
033072639094849200006142154C+45067-083583FM-15+0210APN  V0201905N00575018295MN0160005N1+02835+01895100325ADDAA101000095GD13995+0182959GF107991999999999999999999MA1100345999999MW1001REMMET075KAPN 142154Z AUTO 19011KT 10SM BKN060 28/19 A2963 RMK AO2 SLP032 T02830189;EQDQ01+000000PRSWM2N01 00000JPWTH 0QNNAA1D0 04060BA1 0 04060GA1 0 00060KA1D0 00066JA1 0 00189LA1 0 01000CA1 0 02963NA1 0 00000QA1 0 10032SA1D0 00083RA1 0 00283YA1 0 19011
0054726390948492000061505009+45067-083583NSRDB+021099999V020999999999999999999999999999+99999+99999999999ADDGP10060000002000000002000000002000GR100600000900009
033272639094849200006160254C+45067-083583FM-15+0210APN  V0201805N00415220005MN0160005N1+01565+01225100405ADDAA101000095GF100991999999999999999999MA1100415999999MD1310081+9999MW1001REMMET078KAPN 160254Z AUTO 18008KT 10SM CLR 16/12 A2965 RMK AO2 SLP040 T01560122 53008;EQDQ01+000000PRSWM2N01 00000JPWTH 0QNNAA1D0 00000BA1 0 00000GA1U0 99999KA1D0 00054JA1 0 00122LA1 0 01000CA1 0 02965NA1 0 00000QA1 0 10040SA1D0 00060RA1 0 00156YA1 0 18008
0071726390948492000061811009+45067-083583NSRDB+021099999V020999999999999999999999999999+99999+99999999999ADDGP10060001402008000002015001402008GQ100600841906229GR100600135913239
0666726390948492000061904596+45072-083564SOD  +0211KAPN V020999999999999999999999999999+99999+99999999999ADDAA124000025KA1240M+02065KA2240N+00835MG1099429999994OE11240098317017445OE22240080516017525OE33240028299999995REMSOD54524 HR PRECIPITATION (IN):  T   24 HR MAX TEMP (F): 6924 HR MAX TEMP TIME (LST):1603 24 HR MIN TEMP (F): 4724 HR MIN TEMP TIME (LST):0520 AVERAGE STATION PRESSURE:29.36  PEAK WIND SPEED (MPH): 22 PEAK WIND DIR (DEG):170 PEAK WIND TIME (LST):1744  FASTEST 2MIN SPEED (MPH): 18FASTEST 2MIN DIR (DEG):160 FASTEST 2MIN TIME (LST):1752 AVERAGE WIND SPEED (MPH): 6.3 24 HR AVG TEMP (F):58 HOURLY INCREMENTAL PRECIPITATION VALUES (IN):.00  .00  .00  .00  .00  .00   T    T    T   .00  .00  .00  .00  .00  .00  .00  .00  .00  .00  .00  .00  .00  .00  .00
044472639094849200006221554C+45067-083583FM-15+0210APN  V0202805N00465013725MN0160005N1+01895+01445100155ADDAA101000395GD11995+0051859GD22995+0070159GD33995+0137259GF107991999999999999999999MA1100175999999MW1001OC100771REMMET107KAPN 221554Z 28009G15KT 250V320 10SM FEW017 SCT023 BKN045 19/14 A2958 RMK AO2 RAE13 SLP015 P0001 T01890144;EQDQ01+000000PRSWM2N01 00000JPWTH 0QNNAA1D0 02017BA1 0 01017AA1D0 02023BA1 0 02023AA1D0 04045BA1 0 04045GA1 0 00045KA1D0 00058JA1 0 00144LA1 0 01000CA1 0 02958NA1 0 00000QA1 0 10015SA1D0 00066RA1 0 00189YA1 0 28009
037372639094849200006240154C+45067-083583FM-15+0210APN  V0209999C00005036585MN0144005N1+01615+01615101465ADDAA101000095GD12995+0167659GD24995+0365859GF108991999999999999999999MA1101465999999MW1001REMMET081KAPN 240154Z AUTO 00000KT 9SM SCT055 OVC120 16/16 A2996 RMK AO2 SLP146 T01610161;EQDQ01+000000PRSWM2N01 00000JPWTH 0QNNAA1D0 02055BA1 0 02055AA1D0 06120BA1 0 06120GA1 0 00120KA1D0 00061JA1 0 00161LA1 0 00900CA1 0 02996NA1 0 00000QA1 0 10146SA1D0 00061RA1 0 00161YA1 0 00000
0464726390948492000062506003+45067-083583SY-MT+0210APN  V0209999C00005220005MN0128005N1+01785+01675100795ADDAA101000095GA1001+999999999GD10995+9999999GF100991001001999999001001GP10060000002000000002000000002000GR100600000900009KA1240M+02281KA2240N+01501MA1100815098311MD1810101+9999REMSYN092AAXX  25064 72639 35962 00000 10178 20167 39831 40079 58010 90554 333 10228 20150 555 92506;EQDQ01  00002PRCP99Q02  00003PRCP99N01 00000JPWTH 0QNNAA1D0 00000BA1 0 00000GA1U0 99999KA1D0 00062JA1 0 00167LA1 0 00800CA1 0 02977NA1 0 00000QA1 0 10079SA1D0 00064RA1 0 00178YA1 0 00000
031272639094849200006270354C+45067-083583FM-15+0210APN  V0202005N00215220005MN0160005N1+01445+01285101165ADDAA101000095GF100991999999999999999999MA1101195999999MW1001REMMET072KAPN 270354Z AUTO 20004KT 10SM CLR 14/13 A2988 RMK AO2 SLP116 T01440128;EQDQ01+000000PRSWM2N01 00000JPWTH 0QNNAA1D0 00000BA1 0 00000GA1U0 99999KA1D0 00055JA1 0 00128LA1 0 01000CA1 0 02988NA1 0 00000QA1 0 10116SA1D0 00058RA1 0 00144YA1 0 20004
0483726390948492000070212003+45067-083583SY-MT+0210APN  V0202305N00365220005MN0144005N1+01945+01675101045ADDAA101000095AA206000591AA324000891GA1001+999999999GD10995+9999999GF100991001001999999001001GP10060008702008000002015008702008GQ100600753907199GR100600335913219KA1999M+02831KA2120N+01671MA1101085098571MD1510011+9999REMSYN104AAXX  02124 72639 15964 02307 10194 20167 39857 40104 55001 69951 91154 333 10283 20167 70008 555 90212;EQDN01 00000JPWTH 0QNNAA1D0 00000BA1 0 00000GA1U0 99999KA1D0 00062JA1 0 00167LA1 0 00900CA1 0 02985NA1 0 00000QA1 0 10104SA1D0 00067RA1 0 00194YA1 0 23007
031272639094849200007040354C+45067-083583FM-15+0210APN  V0202505N00155220005MN0160005N1+01065+00945101665ADDAA101000095GF100991999999999999999999MA1101665999999MW1001REMMET072KAPN 040354Z AUTO 25003KT 10SM CLR 11/09 A3002 RMK AO2 SLP166 T01060094;EQDQ01+000000PRSWM2N01 00000JPWTH 0QNNAA1D0 00000BA1 0 00000GA1U0 99999KA1D0 00049JA1 0 00094LA1 0 01000CA1 0 03002NA1 0 00000QA1 0 10166SA1D0 00051RA1 0 00106YA1 0 25003
0071726390948492000070415009+45067-083583NSRDB+021099999V020999999999999999999999999999+99999+99999999999ADDGP10060067902008071602015016602008GQ100600442910429GR100600946913219
031272639094849200007041554C+45067-083583FM-15+0210APN  V0203305N00465220005MN0160005N1+02225+01065101655ADDAA101000095GF100991999999999999999999MA1101665999999MW1001REMMET072KAPN 041554Z AUTO 33009KT 10SM CLR 22/11 A3002 RMK AO2 SLP165 T02220106;EQDQ01+000000PRSWM2N01 00000JPWTH 0QNNAA1D0 00000BA1 0 00000GA1U0 99999KA1D0 00051JA1 0 00106LA1 0 01000CA1 0 03002NA1 0 00000QA1 0 10165SA1D0 00072RA1 0 00222YA1 0 33009
033272639094849200007052054C+45067-083583FM-15+0210APN  V0201105N00465220005MN0160005N1+02115+01065101745ADDAA101000095GF100991999999999999999999MA1101735999999MD1710061+9999MW1001REMMET078KAPN 052054Z AUTO 11009KT 10SM CLR 21/11 A3004 RMK AO2 SLP174 T02110106 57006;EQDQ01+000000PRSWM2N01 00000JPWTH 0QNNAA1D0 00000BA1 0 00000GA1U0 99999KA1D0 00051JA1 0 00106LA1 0 01000CA1 0 03004NA1 0 00000QA1 0 10174SA1D0 00070RA1 0 00211YA1 0 11009
0071726390948492000070910009+45067-083583NSRDB+021099999V020999999999999999999999999999+99999+99999999999ADDGP10060000002008000002015000002008GQ100600899905699GR100600000900339
031272639094849200007120754C+45067-083583FM-15+0210APN  V0209999C00005220005MN0160005N1+00895+00835101975ADDAA101000095GF100991999999999999999999MA1101965999999MW1001REMMET072KAPN 120754Z AUTO 00000KT 10SM CLR 09/08 A3011 RMK AO2 SLP197 T00890083;EQDQ01+000000PRSWM2N01 00000JPWTH 0QNNAA1D0 00000BA1 0 00000GA1U0 99999KA1D0 00047JA1 0 00083LA1 0 01000CA1 0 03011NA1 0 00000QA1 0 10197SA1D0 00048RA1 0 00089YA1 0 00000
0071726390948492000071216009+45067-083583NSRDB+021099999V020999999999999999999999999999+99999+99999999999ADDGP10060064702008040502015031702008GQ100600353912069GR100601077913229
039472639094849200007132054C+45067-083583FM-15+0210APN  V0202505N00525033535MN0160005N1+02945+01395100985ADDAA101000095GD11995+0213459GD23995+0335359GF107991999999999999999999MA1101025999999MD1810231+9999MW1001REMMET088KAPN 132054Z AUTO 25010KT 10SM FEW070 BKN110 29/14 A2983 RMK AO2 SLP098 T02940139 58023;EQDQ01+000000PRSWM2N01 00000JPWTH 0QNNAA1D0 02070BA1 0 01070AA1D0 04110BA1 0 04110GA1 0 00110KA1D0 00057JA1 0 00139LA1 0 01000CA1 0 02983NA1 0 00000QA1 0 10098SA1D0 00085RA1 0 00294YA1 0 25010
039472639094849200007151454C+45067-083583FM-15+0210APN  V0203605N00465007325MN0160005N1+02065+01615100855ADDAA101000095GD12995+0048859GD24995+0073259GF108991999999999999999999MA1100885999999MD1110021+9999MW1001REMMET088KAPN 151454Z AUTO 36009KT 10SM SCT016 OVC024 21/16 A2979 RMK AO2 SLP085 T02060161 51002;EQDQ01+000000PRSWM2N01 00000JPWTH 0QNNAA1D0 02016BA1 0 02016AA1D0 06024BA1 0 06024GA1 0 00024KA1D0 00061JA1 0 00161LA1 0 01000CA1 0 02979NA1 0 00000QA1 0 10085SA1D0 00069RA1 0 00206YA1 0 36009
0284726390948492000071717544+45690-083560FM-15+0210KAPN V0202901N004610180019N0160931N1+02801+01301100901ADDGD12991+0150019GD22991+0150019GD33991+0180019GF107991999999999999999999KA1999M+02831KA2999N+01831MA1100911999999MD1810061+9999MW1001OC100771REMMET113KAPN 171754Z 29009G15KT 250V320 10SM FEW050 SCT055 BKN060 28/13 A2980 RMK AO2 SLP090 T02830128 10283 20183 58006;EQDQ01+000000PRSWM2
0071726390948492000071901009+45067-083583NSRDB+021099999V020999999999999999999999999999+99999+99999999999ADDGP10060005002008008902015004002008GQ100600835929339GR100600150913239
0071726390948492000071913009+45067-083583NSRDB+021099999V020999999999999999999999999999+99999+99999999999ADDGP10060033002008062002015008702008GQ100600669908329GR100600519913239
046372639094849200007272154C+45067-083583FM-15+0210APN  V0201805N00155027435MN0028005N1+02005+01945101685ADDAA101001395GD12995+0131159GD22995+0167659GD33995+0274359GF107991999999999999999999MA1101695999999MW1101MW2455MW3801MW4951REMMET116KAPN 272154Z AUTO 18003KT 1 3/4SM -TSRA BR SCT043 SCT055 BKN090 20/19 A3003 RMK AO2 TSE21B26 SLP168 P0005 T02000194;EQDQ01+000003PRSWM1N01 00070JPWTH 0QNNAA1D0 02043BA1 0 02043AA1D0 02055BA1 0 02055AA1D0 04090BA1 0 04090GA1 0 00090KA1D0 00067JA1 0 00194LA1 0 00175CA1 0 03003NA1 0 00070QA1 0 10168SA1D0 00068RA1 0 00200YA1 0 18003
0548726390948492000073118003+45067-083583SY-MT+0210APN  V0201305N00315016765MN0080005N1+02285+02115101475ADDAA101000025AA206000791GD11995+0027459GD22995+0106759GD33995+0167659GF106991999999002501999999GP10060030102008001202015029102008GQ100600273917459GR100601178913269KA1120M+02331KA2240N+02001MA1101495098971MD1810011+9999MW1455MW2615REMSYN110AAXX  31184 72639 11358 61306 10228 20211 39897 40147 58001 69901 761// 91754 333 10233 20200 96010 555 93118;EQDN01 02070JPWTH 0QNNAA1D0 02009BA1 0 01009AA1D0 02035BA1 0 02035AA1D0 04055BA1 0 04055GA1 0 00055KA1D0 00070JA1 0 00211LA1 0 00500CA1 0 02997NA1 0 02070QA1 0 10147SA1D0 00073RA1 0 00228YA1 0 13006
0054726390948492000080108009+45067-083583NSRDB+021099999V020999999999999999999999999999+99999+99999999999ADDGP10060000002000000002000000002000GR100600000900009
0419726390948492000080206003+45067-083583SY-MT+0210APN  V0209999C00005003055MN0004005N1+01675+01675100985ADDAA101000095AA206000391GA1091+999999999GD15995+0003059GF109991091999999999999999GP10060000002000000002000000002000GR100600000900009MA1101025098511MD1810081+9999MW1455REMSYN088AAXX  02064 72639 1/004 90000 10167 20167 39851 40098 58008 69931 730// 90554 555 90206;EQDN01 00070JPWTH 0QNNAA1D0 07001BA1 0 07001GA1 0 00010KA1D0 00062JA1 0 00167LA1 0 00025CA1 0 02983NA1 0 00070QA1 0 10098SA1D0 00062RA1 0 00167YA1 0 00000
0054726390948492000080605009+45067-083583NSRDB+021099999V020999999999999999999999999999+99999+99999999999ADDGP10060000002000000002000000002000GR100600000900009
033072639094849200008080154C+45067-083583FM-15+0210APN  V0203305N00215220005MN0160005N1+02065+01565101095ADDAA101000095GD12995+0213459GF104991999999999999999999MA1101125999999MW1001REMMET075KAPN 080154Z AUTO 33004KT 10SM SCT070 21/16 A2986 RMK AO2 SLP109 T02060156;EQDQ01+000000PRSWM2N01 00000JPWTH 0QNNAA1D0 02070BA1 0 02070GA1U0 99999KA1D0 00060JA1 0 00156LA1 0 01000CA1 0 02986NA1 0 00000QA1 0 10109SA1D0 00069RA1 0 00206YA1 0 33004
0054726390948492000080807009+45067-083583NSRDB+021099999V020999999999999999999999999999+99999+99999999999ADDGP10060000002000000002000000002000GR100600000900009
0157726390948492000081321114+45070-083560FM-15+0210KAPN V0202001N002610096019N0160931N1+02301+01801999999ADDGD14991+0096019GF108991999999999999999999MA1101461999999MW1001REMMET064KAPN 132111Z AUTO 20005KT 10SM OVC032 23/18 A2996 RMK AO2 TSE11;EQDQ01+000000PRSWM2
0054726390948492000081508009+45067-083583NSRDB+021099999V020999999999999999999999999999+99999+99999999999ADDGP10060000002000000002000000002000GR100600000900009
039472639094849200008152054C+45067-083583FM-15+0210APN  V0202905N00625118875MN0160005N1+02675+01945101195ADDAA101000095GD13995+0118959GD23995+0182959GF107991999999999999999999MA1101225999999MD1610081+9999MW1001REMMET088KAPN 152054Z AUTO 29012KT 10SM BKN039 BKN060 27/19 A2989 RMK AO2 SLP119 T02670194 56008;EQDQ01+000000PRSWM2N01 00000JPWTH 0QNNAA1D0 04039BA1 0 04039AA1D0 04060BA1 0 04060GA1 0 00390KA1D0 00067JA1 0 00194LA1 0 01000CA1 0 02989NA1 0 00000QA1 0 10119SA1D0 00080RA1 0 00267YA1 0 29012
038572639094849200008180954C+45067-083583FM-15+0210APN  V0202805N00215018295MN0144005N1+01445+01395101515ADDAA101000095GD13995+0018359GD24995+0036659GF108991999999999999999999MA1101525999999MW1001REMMET093KAPN 180954Z AUTO 28004KT 9SM BKN006 OVC012 14/14 A2998 RMK AO2 CIG 004V009 SLP151 T01440139;EQDQ01+000000PRSWM2N01 00000JPWTH 0QNNAA1D0 04006BA1 0 04006AA1D0 06012BA1 0 06012GA1 0 00060KA1D0 00057JA1 0 00139LA1 0 00900CA1 0 02998NA1 0 00000QA1 0 10151SA1D0 00058RA1 0 00144YA1 0 28004
0054726390948492000082102009+45067-083583NSRDB+021099999V020999999999999999999999999999+99999+99999999999ADDGP10060000002000000002000000002000GR100600000900009
037872639094849200008211454C+45067-083583FM-15+0210APN  V0201705N002650540019N0160005N1+01785+01005102795ADDAA101000095GD11995+0091459GD23995+0548659GF107991999999999999999999MA1102785999999MD1810071+9999MW1001REMMET083KAPN 211454Z 17005KT 10SM FEW030 BKN180 18/10 A3035 RMK AO2 SLP279 T01780100 58007;EQDQ01+000000PRSWM2N01 00000JPWTH 0QNNAA1D0 02030BA1 0 01030AA1D0 04180BA1 0 04180KA1D0 00050JA1 0 00100LA1 0 01000CA1 0 03035NA1 0 00000QA1 0 10279SA1D0 00064RA1 0 00178YA1 0 17005
0054726390948492000082208009+45067-083583NSRDB+021099999V020999999999999999999999999999+99999+99999999999ADDGP10060000002000000002000000002000GR100600000900009
0300726390948492000082214093+45070-083560FM-16+0210KAPN V0201301N005110105019N0080461N1+01401+01401999999ADDGD12991+0060019GD23991+0105019GD34991+0150019GF108991999999999999999999GP10060006802008000002015006802008GQ100600620910239GR100600626913369MA1102031999999MW1811MW2951REMMET087KAPN 221409Z 13010KT 5SM TSRA BR FEW020 BKN035 OVC050 14/14 A3013 RMK AO2 PRESFR P0002;EQDQ01+000100PRSWM4Q02+000003PRSWM1
034872639094849200008240454C+45067-083583FM-15+0210APN  V0202705N00215220005MN0160005N1+01285+01175101925ADDAA101000095GF100991999999999999999999KA1999M+02611KA2999N+01281MA1101935999999MW1001REMMET082KAPN 240454Z AUTO 27004KT 10SM CLR 13/12 A3010 RMK AO2 SLP192 T01280117 402610128;EQDQ01+000000PRSWM2N01 00000JPWTH 0QNNAA1D0 00000BA1 0 00000GA1U0 99999KA1D0 00053JA1 0 00117LA1 0 01000CA1 0 03010NA1 0 00000QA1 0 10192SA1D0 00055RA1 0 00128YA1 0 27004
0264726390948492000082611544+45070-083560FM-15+0210KAPN V0202401N003610300019N0144841N1+02101+01701101151ADDAA124000591GD12991+0090019GD24991+0300019GF108991999999999999999999KA1999M+02061KA2999N+01891MA1101191999999MD1310011+9999MW1001REMMET105KAPN 261154Z AUTO 24007KT 9SM FEW030 OVC100 21/17 A2988 RMK AO2 SLP115 70002 T02060167 10206 20189 53001;EQDQ01+000000PRSWM2
036972639094849200008281854C+45067-083583FM-15+0210APN  V0201405N00625220005MN0160005N1+02445+01505101875ADDAA101000095GD11995+0091459GD22995+0548659GF104991999999999999999999MA1101905999999MW1001REMMET077KAPN 281854Z 14012KT 10SM FEW030 SCT180 24/15 A3009 RMK AO2 SLP187 T02440150;EQDQ01+000000PRSWM2N01 00000JPWTH 0QNNAA1D0 02030BA1 0 01030AA1D0 02180BA1 0 02180GA1U0 99999KA1D0 00059JA1 0 00150LA1 0 01000CA1 0 03009NA1 0 00000QA1 0 10187SA1D0 00076RA1 0 00244YA1 0 14012
0448726390948492000083006003+45067-083583SY-MT+0210APN  V0202805N00215220005MN0160005N1+01225+01005102005ADDAA101000095GA1001+999999999GD10995+9999999GF100991001001999999001001GP10060000002000000002000000002000GR100600000900009KA1240M+02001KA2240N+01221MA1102005099471MD1310101+9999REMSYN092AAXX  30064 72639 35966 02804 10122 20100 39947 40200 53010 90554 333 10200 20122 555 93006;EQDQ01  00003PRCP99N01 00000JPWTH 0QNNAA1D0 00000BA1 0 00000GA1U0 99999KA1D0 00050JA1 0 00100LA1 0 01000CA1 0 03012NA1 0 00000QA1 0 10200SA1D0 00054RA1 0 00122YA1 0 28004
0054726390948492000090102009+45067-083583NSRDB+021099999V020999999999999999999999999999+99999+99999999999ADDGP10060000002000000002000000002000GR100600000900009
033072639094849200009030054C+45067-083583FM-15+0210APN  V0200605N00215003965MN0160005N1+01565+01335101785ADDAA101000095GD14995+0039659GF108991999999999999999999MA1101765999999MW1001REMMET075KAPN 030054Z AUTO 06004KT 10SM OVC013 16/13 A3005 RMK AO2 SLP178 T01560133;EQDQ01+000000PRSWM2N01 00000JPWTH 0QNNAA1D0 06013BA1 0 06013GA1 0 00013KA1D0 00056JA1 0 00133LA1 0 01000CA1 0 03005NA1 0 00000QA1 0 10178SA1D0 00060RA1 0 00156YA1 0 06004
0299726390948492000090311544+45070-083560FM-15+0210KAPN V0201701N004110024019N0160931N1+01601+01501101381ADDAA101000021AA206000021GD14991+0024019GF108991999999999999999999KA1999M+01611KA2999N+01501MA1101391999999MD1610151+9999MW1801MW2951REMMET122KAPN 031154Z AUTO 17008KT 10SM -TSRA OVC008 16/15 A2994 RMK AO2 TSB49RAB44 SLP138 P0000 60000 T01560150 10161 20150 56015;EQDQ01+000003PRSWM1Q02    003PRSWM1
046172639094849200009031254C+45067-083583FM-15+0210APN  V0201805N00265007925MN0096005N1+01565+01565101505ADDAA101010295GD12995+0018359GD23995+0079259GD34995+0243859GF108991999999999999999999MA1101495999999MW1101MW2455MW3801MW4951REMMET114KAPN 031254Z AUTO 18005KT 6SM -TSRA BR SCT006 BKN026 OVC080 16/16 A2997 RMK AO2 RAE1157B13 SLP150 P0040 T01560156;EQDQ01+000003PRSWM1N01 00070JPWTH 0QNNAA1D0 02006BA1 0 02006AA1D0 04026BA1 0 04026AA1D0 06080BA1 0 06080GA1 0 00026KA1D0 00060JA1 0 00156LA1 0 00600CA1 0 02997NA1 0 00070QA1 0 10150SA1D0 00060RA1 0 00156YA1 0 18005
039472639094849200009080254C+45067-083583FM-15+0210APN  V0202105N00465024385MN0160005N1+02285+01565101245ADDAA101000095GD12995+0152459GD24995+0243859GF108991999999999999999999MA1101255999999MD1010001+9999MW1001REMMET088KAPN 080254Z AUTO 21009KT 10SM SCT050 OVC080 23/16 A2990 RMK AO2 SLP124 T02280156 50000;EQDQ01+000000PRSWM2N01 00000JPWTH 0QNNAA1D0 02050BA1 0 02050AA1D0 06080BA1 0 06080GA1 0 00080KA1D0 00060JA1 0 00156LA1 0 01000CA1 0 02990NA1 0 00000QA1 0 10124SA1D0 00073RA1 0 00228YA1 0 21009
0257726390948492000091014424+45070-083560FM-16+0210KAPN V0202001N002610135019N0040231N1+02201+02101999999ADDGD12991+0024019GD23991+0135019GD34991+0150019GF108991999999999999999999MA1101391999999MW1801MW2951REMMET112KAPN 101442Z 20005KT 2SM -TSRA BR SCT008 BKN045 OVC055 22/21 A2994 RMK AO2 SFC VIS 2 1/2 TSB14E29B36RAB15 P0003;EQDQ01+000100PRSWM4Q02+000003PRSWM1
0054726390948492000091209009+45067-083583NSRDB+021099999V020999999999999999999999999999+99999+99999999999ADDGP10060000002000000002000000002000GR100600000900009
0502726390948492000091318003+45067-083583SY-MT+0210APN  V0202105N00415027435MN0160005N1+01945+00945101425ADDAA101000095GD12995+0167659GD24995+0274359GF108991999999017501999999GP10060019202008000602015018802008GQ100600417918009GR100601008913519KA1120M+01941KA2240N+00941MA1101425098911MD1810201+9999REMSYN092AAXX  13184 72639 32766 82108 10194 20094 39891 40142 58020 91754 333 10194 20094 555 91318;EQDQ01  00002PRCP99Q02  00003PRCP99N01 00000JPWTH 0QNNAA1D0 02055BA1 0 02055AA1D0 06090BA1 0 06090GA1 0 00090KA1D0 00049JA1 0 00094LA1 0 01000CA1 0 02995NA1 0 00000QA1 0 10142SA1D0 00067RA1 0 00194YA1 0 21008
0054726390948492000091401009+45067-083583NSRDB+021099999V020999999999999999999999999999+99999+99999999999ADDGP10060000002000000002000000002000GR100600000900009
033272639094849200009170854C+45067-083583FM-15+0210APN  V0202405N00415220005MN0160005N1+01225+00835100945ADDAA101000095GF100991999999999999999999MA1100915999999MD1610191+9999MW1001REMMET078KAPN 170854Z AUTO 24008KT 10SM CLR 12/08 A2980 RMK AO2 SLP094 T01220083 56019;EQDQ01+000000PRSWM2N01 00000JPWTH 0QNNAA1D0 00000BA1 0 00000GA1U0 99999KA1D0 00047JA1 0 00083LA1 0 01000CA1 0 02980NA1 0 00000QA1 0 10094SA1D0 00054RA1 0 00122YA1 0 24008
031272639094849200009190654C+45067-083583FM-15+0210APN  V0202005N00415220005MN0160005N1+01945+01285100745ADDAA101000095GF100991999999999999999999MA1100785999999MW1001REMMET072KAPN 190654Z AUTO 20008KT 10SM CLR 19/13 A2976 RMK AO2 SLP074 T01940128;EQDQ01+000000PRSWM2N01 00000JPWTH 0QNNAA1D0 00000BA1 0 00000GA1U0 99999KA1D0 00055JA1 0 00128LA1 0 01000CA1 0 02976NA1 0 00000QA1 0 10074SA1D0 00067RA1 0 00194YA1 0 20008
0054726390948492000092009009+45067-083583NSRDB+021099999V020999999999999999999999999999+99999+99999999999ADDGP10060000002000000002000000002000GR100600000900009
043972639094849200009232054C+45067-083583FM-15+0210APN  V0203505N00415002135MN0144005N1+01225+01115101125ADDAA101000025AA203000021GD13995+0021359GD24995+0042759GF108991999999999999999999MA1101125999999MD1310201+9999MW1001REMMET122KAPN 232054Z AUTO 35008KT 9SM BKN007 OVC014 12/11 A2986 RMK AO2 RAB1958E44 CIG 005V011 SLP112 P0000 60000 T01220111 53020;EQDQ01+000000PRSWM2N01 00000JPWTH 0QNNAA1D0 04007BA1 0 04007AA1D0 06014BA1 0 06014GA1 0 00007KA1D0 00052JA1 0 00111LA1 0 00900CA1 0 02986NA1 0 00000QA1 0 10112SA1D0 00054RA1 0 00122YA1 0 35008
041372639094849200009251554C+45067-083583FM-15+0210APN  V0209999V00265060965MN0160005N1+01225+00445102095ADDAA101000095GD11995+0061059GD22995+0213459GD33995+0609659GF107991999999999999999999MA1102035999999MW1001REMMET084KAPN 251554Z VRB05KT 10SM FEW020 SCT070 BKN200 12/04 A3013 RMK AO2 SLP209 T01220044;EQDQ01+000000PRSWM2N01 00000JPWTH 0QNNAA1D0 02020BA1 0 01020AA1D0 02070BA1 0 02070AA1D0 04200BA1 0 04200GA1 0 00200KA1D0 00040JA1 0 00044LA1 0 01000CA1 0 03013NA1 0 00000QA1 0 10209SA1D0 00054RA1 0 00122YA1 0 00005
0071726390948492000092517009+45067-083583NSRDB+021099999V020999999999999999999999999999+99999+99999999999ADDGP10060055302008038602015029402008GQ100600480916119GR100600910913609
0519726390948492000100806003+45067-083583SY-MT+0210APN  V0203205N00315006105MN0160005N1+00175+00065102755ADDAA101000025AA206000391GD12995+0030559GD23995+0061059GD34995+0079259GF108991999999004501999999GP10060000002000000002000000002000GR100600000900009KA1240M+00561KA2240N+00001MA1102685100131MD1310081+9999MW1615REMSYN104AAXX  08064 72639 1/466 83206 10017 20006 30013 40275 53008 69931 761// 90554 333 10056 20000 555 90806;EQDN01 00020JPWTH 0QNNAA1D0 02010BA1 0 02010AA1D0 04020BA1 0 04020AA1D0 06026BA1 0 06026GA1 0 00020KA1D0 00033JA1 0 00006LA1 0 01000CA1 0 03032NA1 0 00020QA1 0 10275SA1D0 00035RA1 0 00017YA1 0 32006
0071726390948492000100820009+45067-083583NSRDB+021099999V020999999999999999999999999999+99999+99999999999ADDGP10060010202008000002015010202008GQ100600589921809GR100600708913709
036972639094849200010101254C+45067-083583FM-15+0210APN  V0209999V00265220005MN0160005N1+00395+00175101885ADDAA101000095GD11995+0365859GD22995+0762059GF104991999999999999999999MA1101835999999MW1001REMMET077KAPN 101254Z VRB05KT 10SM FEW120 SCT250 04/02 A3007 RMK AO2 SLP188 T00390017;EQDQ01+000000PRSWM2N01 00000JPWTH 0QNNAA1D0 02120BA1 0 01120AA1D0 02250BA1 0 02250GA1U0 99999KA1D0 00035JA1 0 00017LA1 0 01000CA1 0 03007NA1 0 00000QA1 0 10188SA1D0 00039RA1 0 00039YA1 0 00005
0054726390948492000101109009+45067-083583NSRDB+021099999V020999999999999999999999999999+99999+99999999999ADDGP10060000002000000002000000002000GR100600000900009
0208726390948492000101123544+45070-083560FM-15+0210KAPN V0209999C000012200019N0160931N1+00801+00701102301ADDGF100991999999999999999999KA1999M+01941KA2999N+00831MA1102241999999MD1310091+9999MW1001REMMET090KAPN 112354Z AUTO 00000KT 10SM CLR 08/07 A3019 RMK AO2 SLP230 T00830067 10194 20083 53009;EQDQ01+000000PRSWM2
0054726390948492000101503009+45067-083583NSRDB+021099999V020999999999999999999999999999+99999+99999999999ADDGP10060000002000000002000000002000GR100600000900009
033072639094849200010170354C+45067-083583FM-15+0210APN  V0209999C00005019815MN0160005N1+00835+00785102295ADDAA101000095GD14995+0198159GF108991999999999999999999MA1102275999999MW1001REMMET075KAPN 170354Z AUTO 00000KT 10SM OVC065 08/08 A3020 RMK AO2 SLP229 T00830078;EQDQ01+000000PRSWM2N01 00000JPWTH 0QNNAA1D0 06065BA1 0 06065GA1 0 00065KA1D0 00046JA1 0 00078LA1 0 01000CA1 0 03020NA1 0 00000QA1 0 10229SA1D0 00047RA1 0 00083YA1 0 00000
0054726390948492000101804009+45067-083583NSRDB+021099999V020999999999999999999999999999+99999+99999999999ADDGP10060000002000000002000000002000GR100600000900009
030772639094849200010181554C+45067-083583FM-15+0210APN  V0202305N00365220005MN0160005N1+01175+00725101865ADDAA101000095GF100991999999999999999999MA1101835999999MW1001REMMET067KAPN 181554Z 23007KT 10SM CLR 12/07 A3007 RMK AO2 SLP186 T01170072;EQDQ01+000000PRSWM2N01 00000JPWTH 0QNNAA1D0 00000BA1 0 00000GA1U0 99999KA1D0 00045JA1 0 00072LA1 0 01000CA1 0 03007NA1 0 00000QA1 0 10186SA1D0 00053RA1 0 00117YA1 0 23007
031272639094849200010210754C+45067-083583FM-15+0210APN  V0202705N00215220005MN0160005N1+00895+00615101635ADDAA101000095GF100991999999999999999999MA1101665999999MW1001REMMET072KAPN 210754Z AUTO 27004KT 10SM CLR 09/06 A3002 RMK AO2 SLP163 T00890061;EQDQ01+000000PRSWM2N01 00000JPWTH 0QNNAA1D0 00000BA1 0 00000GA1U0 99999KA1D0 00043JA1 0 00061LA1 0 01000CA1 0 03002NA1 0 00000QA1 0 10163SA1D0 00048RA1 0 00089YA1 0 27004
0208726390948492000102223544+45070-083560FM-15+0210KAPN V0201401N003112200019N0160931N1+00601+00601103421ADDGF100991999999999999999999KA1999M+01171KA2999N+00611MA1103351999999MD1810021+9999MW1001REMMET090KAPN 222354Z AUTO 14006KT 10SM CLR 06/06 A3052 RMK AO2 SLP342 T00610056 10117 20061 58002;EQDQ01+000000PRSWM2
0054726390948492000102311009+45067-083583NSRDB+021099999V020999999999999999999999999999+99999+99999999999ADDGP10060000002000000002000000002000GR100600000900009
0054726390948492000102405009+45067-083583NSRDB+021099999V020999999999999999999999999999+99999+99999999999ADDGP10060000002000000002000000002000GR100600000900009
036972639094849200010261554C+45067-083583FM-15+0210APN  V0201805N00415002745MN0160005N1+01505+01285101955ADDAA101000095GD13995+0027459GD23995+0365859GF107991999999999999999999MA1101935999999MW1001REMMET077KAPN 261554Z 18008KT 10SM BKN009 BKN120 15/13 A3010 RMK AO2 SLP195 T01500128;EQDQ01+000000PRSWM2N01 00000JPWTH 0QNNAA1D0 04009BA1 0 04009AA1D0 04120BA1 0 04120GA1 0 00009KA1D0 00055JA1 0 00128LA1 0 01000CA1 0 03010NA1 0 00000QA1 0 10195SA1D0 00059RA1 0 00150YA1 0 18008
0071726390948492000102623009+45067-083583NSRDB+021099999V020999999999999999999999999999+99999+99999999999ADDGP10060000002009000002021000002009GQ100600878924979GR100600025906589
0054726390948492000102805009+45067-083583NSRDB+021099999V020999999999999999999999999999+99999+99999999999ADDGP10060000002000000002000000002000GR100600000900009
