0162800010999992000050617004+12580-081720FM-15-0002SKSP V0200501N004110600019N0112651N1+02901+02501999999ADDGA1021+006909999GA2081+060009999GF108991999999999999999999MA1101461999999MW1001REMMET052SKSP 061700Z 05008KT 9999 FEW023 OVC200 29/25 A2996;EQDQ01+000000PRSWM2
0162800010999992000050913004+12580-081720FM-15-0002SKSP V0200801N002610600019N0112651N1+02701+02301999999ADDGA1021+006909999GA2081+060009999GF108991999999999999999999MA1101391999999MW1001REMMET052SKSP 091300Z 08005KT 9999 FEW023 OVC200 27/23 A2994;EQDQ01+000000PRSWM2
0167800010999992000051413004+12580-081720FM-15-0002SKSP V0200901N003610600019N0112651N1+02801+02501999999ADDGA1021+006909999GA2081+060009999GF108991999999999999999999MA1101221999999MW1001REMMET057SKSP 141300Z 09007KT 9999 FEW023 OVC200 28/25 A2989 RERA;EQDQ01+000000PRSWM2
0187800010999992000060304004+12580-081720FM-15-0002SKSP V0200901N004110210019N0112651N1+02701+02501999999ADDGA1021+006009999GA2081+021009999GF108991999999999999999999MA1101391999999MW1511REMMET061SKSP 030400Z 09008KT 9999 -DZ FEW020 OVC070 27/25 A2994 RETS;EQDQ01+000003PRSWM1Q02    003PRSWM1
0162800010999992000060601004+12580-081720FM-15-0002SKSP V0200901N005110600019N0112651N1+02801+02601999999ADDGA1021+006909999GA2071+060009999GF107991999999999999999999MA1101191999999MW1001REMMET052SKSP 060100Z 09010KT 9999 FEW023 BKN200 28/26 A2988;EQDQ01+000000PRSWM2
0139800010999992000060705004+12580-081720FM-15-0002SKSP V0200901N005112200019N0112651N1+02801+02501999999ADDGA1021+006909999GF102991999999999999999999MA1101391999999MW1001REMMET045SKSP 070500Z 09010KT 9999 FEW023 28/25 A2994;EQDQ01+000000PRSWM2
0162800010999992000061111004+12580-081720FM-15-0002SKSP V0200701N005710600019N0112651N1+02701+02501999999ADDGA1021+006909999GA2081+060009999GF108991999999999999999999MA1101051999999MW1001REMMET052SKSP 111100Z 07011KT 9999 FEW023 OVC200 27/25 A2984;EQDQ01+000000PRSWM2
0284800010999992000061815004+12580-081720SY-MT-0002SKSP V0200801N004010450019N0150001N1+02711+02511101571ADDAA103002091AY121031AY221031GA1021+006009099GF108991041091008001031081MA1101561101561MD1999999+0241MW1171REMSYN088AAXX  18151 80001 21565 80804 10271 20251 30156 40157 71722 84938 333 58024 60027 84920;MET055SKSP 181500Z 08007KT 9999 TS SCT020CB 27/25 A2999 RERA;EQDQ01    003PRSWM1
0191800010999992000062319004+12580-081720FM-15-0002SKSP V0200701N003610240019N0112651N1+02701+02501999999ADDGA1021+006009029GA2081+024009999GF108991999999999999999999MA1101251999999MW1161REMMET065SKSP 231900Z 07007KT 9999 VCSH SCT020TCU OVC080 27/25 A2990 RERA;EQDQ01+000003PRSWM1Q02    003PRSWM1
0291800010999992000070115004+12580-081720SY-MT-0002SKSP V0200701N008010600019N0200001N1+02821+02341101471ADDAA199000091GA1021+006909999GA2081+060009999GF108991011021008001031071MA1101461101461MD1999999+0171MW1001REMSYN082AAXX  01151 80001 32570 80708 10282 20234 30146 40147 81237 333 58017 81823 88270;MET052SKSP 011500Z 07015KT 9999 FEW023 OVC200 28/23 A2996;EQDQ01+000000PRSWM2Q02  00002PRCP99
0162800010999992000070119004+12580-081720FM-15-0002SKSP V0200701N003610270019N0112651N1+02901+02401999999ADDGA1021+006909999GA2081+027009999GF108991999999999999999999MA1101291999999MW1001REMMET052SKSP 011900Z 07007KT 9999 FEW023 OVC090 29/24 A2991;EQDQ01+000000PRSWM2
0162800010999992000071201004+12580-081720FM-15-0002SKSP V0200801N007210600019N0112651N1+02701+02501999999ADDGA1021+006909999GA2081+060009999GF108991999999999999999999MA1101251999999MW1001REMMET052SKSP 120100Z 08014KT 9999 FEW023 OVC200 27/25 A2990;EQDQ01+000000PRSWM2
0139800010999992000072116004+12580-081720FM-15-0002SKSP V0200901N014012200019N0112651N1+02901+02501999999ADDGA1021+006909999GF102991999999999999999999MA1101321999999MW1001REMMET045SKSP 211600Z 09014KT 9999 FEW023 29/25 A2992;EQDQ01+000000PRSWM2
0139800010999992000080217004+12580-081720FM-15-0002SKSP V0200601N004612200019N0112651N1+02901+02601999999ADDGA1021+006909999GF102991999999999999999999MA1101351999999MW1001REMMET045SKSP 021700Z 06009KT 9999 FEW023 29/26 A2993;EQDQ01+000000PRSWM2
0162800010999992000080705004+12580-081720FM-15-0002SKSP V02099999999990600019N0112651N1+02701+02501999999ADDGA1021+006909999GA2081+060009999GF108991999999999999999999MA1101321999999MW1001REMMET052SKSP 070500Z VRB02KT 9999 FEW023 OVC200 27/25 A2992;EQDQ01+000000PRSWM2
0277800010999992000080715004+12580-081720SY-MT-0002SKSP V0200801N003010240019N0200001N1+02951+02391101401ADDAA199000091GA1021+006909999GA2071+024009999GF108991011021008001071061IA1099MA1101391101391MW1001REMSYN076AAXX  07151 80001 32570 80803 10295 20239 30139 40140 81276 333 31823 86358;MET052SKSP 071500Z 08005KT 9999 FEW023 BKN080 30/26 A2994;EQDQ01+000000PRSWM2Q02  00002PRCP99
0165800010999992000080911004+12580-081720FM-15-0002SKSP V02099999999990600019N0112651N1+02701+02501999999ADDGA1021+006009029GA2081+060009999GF108991999999999999999999MA1101151999999MW1001REMMET055SKSP 091100Z VRB02KT 9999 FEW020TCU OVC200 27/25 A2987;EQDQ01+000000PRSWM2
0162800010999992000081723004+12580-081720FM-15-0002SKSP V0200701N004110600019N0112651N1+02801+02601999999ADDGA1021+006909999GA2081+060009999GF108991999999999999999999MA1101121999999MW1001REMMET052SKSP 172300Z 07008KT 9999 FEW023 OVC200 28/26 A2986;EQDQ01+000000PRSWM2
0139800010999992000082814004+12580-081720FM-15-0002SKSP V0200701N004612200019N0112651N1+02901+02601999999ADDGA1021+006909999GF102991999999999999999999MA1101221999999MW1001REMMET045SKSP 281400Z 07009KT 9999 FEW023 29/26 A2989;EQDQ01+000000PRSWM2
0195800010999992000091203004+12580-081720FM-12-0002SKSP V0200701N00201105001CN0200001N1+02741+02541100991ADDAA199000091GA1011+006909089GF107991011021008001001061MA1999999100981MD1999999-0141REMSYN082AAXX  12031 80001 32570 70702 10274 20254 30098 40099 81206 333 59014 81823 87270;EQDQ01  00002PRCP99
0162800010999992000091320004+12580-081720FM-15-0002SKSP V0200801N002110600019N0112651N1+03101+02701999999ADDGA1021+006909999GA2071+060009999GF107991999999999999999999MA1100981999999MW1001REMMET052SKSP 132000Z 08004KT 9999 FEW023 BKN200 31/27 A2982;EQDQ01+000000PRSWM2
0319800010999992000091703004+12580-081720SY-MT-0002SKSP V0201201N00301021001CN0200001N1+02821+02571101261ADDAA103999929AY111031AY211031GA1021+003009999GA2071+021009999GF107991031021008001031051MA1101391101251MD1999999+0101MW1201REMSYN094AAXX  17031 80001 21570 71203 10282 20257 30125 40126 72011 83235 333 58010 69907 83823 83359;MET052SKSP 170300Z 00000KT 9999 SCT010 BKN070 23/22 A2994;EQDQ01+000000PRSWM2Q02    003PRSWM1
0291800010999992000091915004+12580-081720SY-MT-0002SKSP V0200501N001010600019N0200001N1+02981+02711101361ADDAA199000091GA1021+006909999GA2071+060009999GF106991021021008001001061MA1101351101351MD1999999+0001MW1001REMSYN082AAXX  19151 80001 32570 60501 10298 20271 30135 40136 82206 333 58000 82823 87270;MET052SKSP 191500Z VRB02KT 9999 FEW023 BKN200 30/27 A2993;EQDQ01+000000PRSWM2Q02  00002PRCP99
0139800010999992000092314004+12580-081720FM-15-0002SKSP V0209999C000012200019N0112651N1+03001+02701999999ADDGA1021+007509999GF102991999999999999999999MA1101321999999MW1001REMMET045SKSP 231400Z 00000KT 9999 FEW025 30/27 A2992;EQDQ01+000000PRSWM2
0350800010999992000100118004+12580-081720SY-MT-0002SKSP V0202201N00401027001CN0200001N1+03041+02621101231ADDAA199000091GA1021+006909029GA2071+027009999GF108991031021008001071999KA1120M+03141KA2240N+02411MA1101221101221MD1999999+0201MW1001REMSYN112AAXX  01181 80001 32570 82204 10304 20262 30122 40123 8327/ 333 0850/ 10314 20241 5650/ 57841 58020 83823 87359;MET055SKSP 011800Z 22007KT 9999 SCT023TCU BKN090 30/26 A2989;EQDQ01+000000PRSWM2Q02  00002PRCP99
0347800010999992000100318004+12580-081720SY-MT-0002SKSP V0200901N004012200019N0200001N1+03181+02771101301ADDAA199000091GA1021+006909999GA2021+060009999GF107991011021008001031061KA1120M+03251KA2240N+02741MA1101291101291MD1999999+0001MW1001REMSYN112AAXX  03181 80001 32570 70904 10318 20277 30129 40130 81236 333 05200 10325 20274 56200 57812 58000 81823 84070;MET052SKSP 031800Z 09007KT 9999 FEW023 SCT200 32/28 A2991;EQDQ01+000000PRSWM2Q02  00002PRCP99
0162800010999992000102221004+12580-081720FM-15-0002SKSP V0200601N002610600019N0112651N1+02901+02701999999ADDGA1021+006909999GA2081+060009999GF108991999999999999999999MA1101081999999MW1001REMMET052SKSP 222100Z 06005KT 9999 FEW023 OVC200 29/27 A2985;EQDQ01+000000PRSWM2
0162800010999992000102511004+12580-081720FM-15-0002SKSP V02099999999992200019N0112651N1+02701+02401999999ADDGA1021+006909999GA2021+060009999GF104991999999999999999999MA1100951999999MW1001REMMET052SKSP 251100Z VRB02KT 9999 FEW023 SCT200 27/24 A2981;EQDQ01+000000PRSWM2
0340800010999992000102903004+12580-081720SY-MT-0002SKSP V0200301N003010240019N0200001N1+02761+02531101331ADDAA103000191AY121031AY221031GA1021+006909999GA2071+024009999GF199999011021008001031061MA1101321101321MD1999999-0071MW1201REMSYN094AAXX  29031 80001 21570 60303 10276 20253 30132 40133 72022 81236 333 59007 69917 81823 85358;MET057SKSP 290300Z 03005KT 9999 FEW023 BKN080 28/25 A2992 RERA;EQDQ01+000062SCOTCVQ02+000000PRSWM2Q03    003PRSWM1
0386800010999992000103112004+12580-081720SY-MT-0002SKSP V0200601N002010240019N0180001N1+02501+02381101301ADDAA109020091AA212020191AY161061AY261061GA1021+006909999GA2081+024009999GF108991021021008001071999GJ101269IA1119KA1999M+02971KA2120N+02421MA1101291101291MW1501MW2511REMSYN130AAXX  31121 80001 /1568 80602 10250 20238 30129 40130 60202 75066 8227/ 333 0810/ 10297 20242 32/// 5///0 55021 5610/ 60208 70474;MET056SKSP 311200Z 06004KT 9999 -DZ FEW023 OVC080 25/24 A2991;EQDQ01    003PRSWM1
0262800010999992000111515004+12580-081720SY-MT-0002SKSP V0200501N004012200019N0200001N1+02841+02361101431ADDAA199000091GA1021+006909999GF103991021021008001031001MA1101421101421MD1999999-0041MW1001REMSYN076AAXX  15151 80001 32570 30504 10284 20236 30142 40143 82230 333 59004 82823;MET045SKSP 151500Z 05008KT 9999 FEW023 28/24 A2995;EQDQ01+000000PRSWM2Q02  00002PRCP99
0139800010999992000111614004+12580-081720FM-15-0002SKSP V0200601N005112200019N0112651N1+02901+02301999999ADDGA1021+006909999GF102991999999999999999999MA1101321999999MW1001REMMET045SKSP 161400Z 06010KT 9999 FEW023 29/23 A2992;EQDQ01+000000PRSWM2
0139800010999992000112904004+12580-081720FM-15-0002SKSP V0200601N004612200019N0112651N1+02601+02401999999ADDGA1021+006909999GF102991999999999999999999MA1101391999999MW1001REMMET045SKSP 290400Z 06009KT 9999 FEW023 26/24 A2994;EQDQ01+000000PRSWM2
0162800010999992000120722004+12580-081720FM-15-0002SKSP V0203301N007210270019N0112651N1+02701+02401999999ADDGA1021+006909999GA2081+027009999GF108991999999999999999999MA1101151999999MW1001REMMET052SKSP 072200Z 33014KT 9999 SCT023 OVC090 27/24 A2987;EQDQ01+000000PRSWM2
0162800010999992000122317004+12580-081720FM-15-0002SKSP V0200201N002612200019N0112651N1+02801+02401999999ADDGA1021+006909999GA2021+060009999GF104991999999999999999999MA1101351999999MW1001REMMET052SKSP 231700Z 02005KT 9999 FEW023 SCT200 28/24 A2993;EQDQ01+000000PRSWM2
0162800010999992000122623004+12580-081720FM-15-0002SKSP V0200501N003610600019N0112651N1+02701+02401999999ADDGA1021+006909999GA2071+060009999GF107991999999999999999999MA1101251999999MW1001REMMET052SKSP 262300Z 05007KT 9999 FEW023 BKN200 27/24 A2990;EQDQ01+000000PRSWM2
0180800020999992000021421004+13370-081350FM-12+0006SKPV V0200701N006012200019N0200001N1+02741+02191999999ADDAA199000091AY101031AY201031GA1041+006609029GF199999999999008001999999MW1411REMSYN058AAXX  14211 80002 32570 30706 10274 20219 74100 333 84822;EQDQ01+000032SCOTCVQ02  00002PRCP99
0142800020999992000040221004+13370-081350FM-12+0006SKPV V0200501N005012200019N0200001N1+02851+02191999999ADDAA199000091GA1011+006909029GF101991011081008001021031REMSYN058AAXX  02211 80002 32570 10505 10285 20219 81823 333 81823;EQDQ01  00002PRCP99
0186800020999992000051000004+13370-081350FM-12+0006SKPV V0200601N004012200019N0200001N1+02731+02301999999ADDAA199000091GA1021+999999089GF106991021011008001001061KA1120M+03021KA2180N+02661REMSYN076AAXX  10001 80002 32570 60604 10273 20230 82106 333 10302 20266 8283/ 85070;EQDQ01  00002PRCP99
0148800020999992000051515004+13370-081350FM-12+0006SKPV V0200701N006012200019N0200001N1+02931+02391999999ADDAA199000091GA1011+006909039GF104991011011008001001081REMSYN064AAXX  15151 80002 32570 40706 10293 20239 81108 333 81323 83270;EQDQ01  00002PRCP99
0218800020999992000051812004+13370-081350FM-12+0006SKPV V0200601N005019999999N0200001N1+02741+02391999999ADDAA199000091GA1021+006909089GF108991021999008001001071GJ101629IA1019KA1999M+02961KA2120N+02721REMSYN094AAXX  18121 80002 32570 80605 10274 20239 82/07 333 10296 20272 30/// 50/// 55027 82823 88270;EQDQ01  00002PRCP99
0247800020999992000071212004+13370-081350FM-12+0006SKPV V0200701N005011050019N0200001N1+02741+02411999999ADDAA124003491AA299000091GA1021+006609089GF108991021011008001001071GJ101629IA1019KA1999M+02981KA2120N+02721REMSYN112AAXX  12121 80002 32570 80705 10274 20241 82107 333 012/0 10298 20272 30/// 50340 55027 562/0 70034 82822 88270;EQDQ01  00002PRCP99
0202800020999992000081512004+13370-081350FM-12+0006SKPV V0200701N006012200019N0200001N1+02811+02431999999ADDAA199000091GF103991011021008001001011GJ100849IA1019KA1999M+03081KA2120N+02751REMSYN094AAXX  15121 80002 32570 30706 10281 20243 81201 333 052/0 10308 20275 30/// 50390 55014 562/0;EQDQ01  00002PRCP99
0219800020999992000082821004+13370-081350FM-12+0006SKPV V0200801N00301003601CN0200001N1+02961+02631999999ADDAA103005091AA299000091GA1021+003609099GA2031+003609079GF107991041021008001031061MD1999999+0061REMSYN094AAXX  28211 80002 32570 70803 10296 20263 84236 333 5669/ 57991 58006 60057 82912 83712 85457;EQDQ01  00002PRCP99
0198800020999992000083018004+13370-081350FM-12+0006SKPV V0200901N006011050019N0200001N1+03081+02551999999ADDAA199000091GA1041+006609029GF108991041011008001001061KA1120M+03161KA2240N+02741REMSYN088AAXX  30181 80002 32570 80906 10308 20255 84106 333 00218 10316 20274 56210 57824 84822;EQDQ01  00002PRCP99
0176800020999992000090621004+13370-081350FM-12+0006SKPV V0209999C00001045001CN0200001N1+02941+02581999999ADDAA199000091AY191031AY291031GA1031+006909039GF107991031021008001011061MW1021REMSYN070AAXX  06211 80002 31570 70000 10294 20258 70299 83216 333 83323 85070;EQDQ01  00002PRCP99
0148800020999992000091621004+13370-081350FM-12+0006SKPV V0200501N003012200019N0200001N1+03001+02461999999ADDAA199000091GA1011+006909039GF104991011011008001001011REMSYN064AAXX  16211 80002 32570 40503 10300 20246 81101 333 81323 83070;EQDQ01  00002PRCP99
0163800020999992000101421004+13370-081350FM-12+0006SKPV V0200801N00301045001CN0200001N1+02661+02431999999ADDAA103000291AY121031AY221031GA1021+006009089GF108991041021008001071999MW1501REMSYN076AAXX  14211 80002 21570 80803 10266 20243 75022 8427/ 333 69927 82820 88359;
0246800020999992000101812004+13370-081350FM-12+0006SKPV V0200601N003012200019N0200001N1+02761+02481999999ADDAA112005091AA224005391AY161061AY211061GF103991011021008001001011GJ105709IA1119KA1999M+03161KA2120N+02601MW1001REMSYN124AAXX  18121 80002 /1570 30603 10276 20248 60052 70061 81201 333 021/0 10316 20260 32/// 50400 55095 561/0 60052 70053 81823;
0163800020999992000111318004+13370-081350FM-12+0006SKPV V0200801N003012200019N0200001N1+03001+02361999999ADDAA199000091GF102991021011008001001001KA1240N+02481REMSYN082AAXX  13181 80002 32570 20803 10300 20236 82100 333 007// 10/// 20248 562// 8282/;EQDQ01  00002PRCP99
0223800090999992000020815004+11130-074230FM-12+0001SKSM V0202301N002012200019N0090001N1+02881+02071101301ADDAA199000091AY101031AY201031GA1011+006009059GF101991011051008001001001MA1999999101251MD1999999-0071MW1051REMSYN088AAXX  08151 80009 31559 12302 10288 20207 30125 40130 70500 81500 333 560// 59007 81620;EQDQ01  00002PRCP99
0139800090999992000021117004+11130-074230FM-15+0001SKSM V0209999C000012200019N0090001N1+03001+02401999999ADDGA1021+006009999GF102991999999999999999999MA1101121999999MW1001REMMET045SKSM 111700Z 00000KT 9000 FEW020 30/24 A2986;EQDQ01+000000PRSWM2
0306800090999992000021515004+11130-074230SY-MT+0001SKSM V0209999C000012200019N0090001N1+02841+02041101251ADDAA199000091AY101031AY201031GA1021+009009999GF102991011081008001001011MA1101221101211MD1999999-0031MW1051REMSYN088AAXX  15151 80009 31559 20000 10284 20204 30121 40125 70500 81801 333 560/0 59003 81830;MET045SKSM 151500Z 00000KT 9000 FEW030 28/20 A2989;EQDQ01+000000PRSWM2Q02  00002PRCP99Q03    003PRSWM1
0251800090999992000032512004+11130-074230FM-12+0001SKSM V0209999C000011050019N0100001N1+02281+01771101211ADDAA199000091AY121061GA1041+009009089GF106991041081008001001091IA1019KA1240N+02261MA1999999101261MD1999999+0111MW1051REMSYN105AAXX  25121 80009 31560 60000 10228 20177 30126 40121 7052/ 84809 333 20226 30/// 560/ 58011 84830 84170;EQDQ01  00002PRCP99
0344800090999992000040421004+11130-074230SY-MT+0001SKSM V0200201N007012200019N0100001N1+03061+02201100851ADDAA199000091AY111031AY211031GA1021+006009029GA2021+060009999GF103991021021008001001011MA1100811100801MD1999999+0061MW1051REMSYN100AAXX  04211 80009 31560 30207 10306 20220 30080 40085 70511 82201 333 560/0 57842 58006 82820 83070;MET055SKSM 042100Z 02014KT 9999 FEW020TCU SCT200 31/22 A2977;EQDQ01+000000PRSWM2Q02  00002PRCP99Q03    003PRSWM1
0162800090999992000040902004+11130-074230FM-15+0001SKSM V0200201N003112200019N0112651N1+02801+02201999999ADDGA1021+009009999GA2021+060009999GF104991999999999999999999MA1100811999999MW1001REMMET052SKSM 090200Z 02006KT 9999 FEW030 SCT200 28/22 A2977;EQDQ01+000000PRSWM2
0139800090999992000041220004+11130-074230FM-15+0001SKSM V0203601N010312200019N0112651N1+03401+02001999999ADDGA1021+007809999GF102991999999999999999999MA1100811999999MW1001REMMET045SKSM 122000Z 36020KT 9999 FEW026 34/20 A2977;EQDQ01+000000PRSWM2
0248800090999992000042800004+11130-074230FM-12+0001SKSM V0203601N00501220001CN0090001N1+02981+02161100761ADDAA199000091AY111061AY211061GA1021+008109089GF105991021081008001001011KA1240M+03501MA1999999100741MD1999999-0041MW1051REMSYN100AAXX  28001 80009 31559 53605 10298 20216 30074 40076 70511 82801 333 10350 560/0 59004 82827 84070;EQDQ01  00002PRCP99
0266800090999992000051212004+11130-074230FM-12+0001SKSM V0209999C000011050019N0090001N1+02661+02441101011ADDAA199000091AY121061GA1021+008109089GF105991021081008001001051GJ101089IA1019KA1240N+02541MA1999999100961MD1999999-0161MW1051REMSYN112AAXX  12121 80009 31559 50000 10266 20244 30096 40101 7052/ 82805 333 20254 30/// 55018 560/0 59016 82827 85070;EQDQ01  00002PRCP99
0229800090999992000052115004+11130-074230FM-12+0001SKSM V0202701N00201220001CN0100001N1+03061+02501101331ADDAA199000091AY121031AY221031GA1021+008109089GF105991021081008001001011MA1999999101281MD1999999+0031MW1051REMSYN094AAXX  21151 80009 31560 52702 10306 20250 30128 40133 70522 82801 333 560/0 58003 82827 84070;EQDQ01  00002PRCP99
0156800090999992000061611004+11120-074220FM-15+0001SKSM V0209999C000010600019N0090001N1+99999+99999999999ADDGA1021+007509999GA2071+060009999GF107991999999999999999999MA1100811999999MW1001REMMET046SKSM 161100Z 00000KT 9000 FEW025 BKN200 A2977;EQDQ01+000000PRSWM2
0213800090999992000063018004+11120-074220FM-12+0001SKSM V0202301N002012200019N0100001N1+03341+02401100811ADDAA199000091AY101061AY201061GF103991021021008001001011MA1999999100761MD1999999+0021MW1051REMSYN094AAXX  30181 80009 31560 32302 10334 20240 30076 40081 70500 82201 333 560/0 57823 58002 82820;EQDQ01  00002PRCP99
0162800090999992000071623004+11120-074220FM-15+0001SKSM V0209999C000010600019N0112651N1+02901+02501999999ADDGA1021+008109999GA2071+060009999GF107991999999999999999999MA1100811999999MW1001REMMET052SKSM 162300Z 00000KT 9999 FEW027 BKN200 29/25 A2977;EQDQ01+000000PRSWM2
0241800090999992000072200004+11120-074220FM-12+0001SKSM V0209999C000010450019N0090001N1+02521+02361100941ADDAA103002091AY191061AY261061GA1031+004509099GF107991031091004501021011KA1240M+03201MA1999999100891MD1999999+0201MW1951REMSYN112AAXX  22001 80009 11459 70000 10252 20236 30089 40094 60027 79596 83921 333 10320 56000 57921 58020 83915 86457;
0139800090999992000081119004+11120-074220FM-15+0001SKSM V0203101N003112200019N0090001N1+03101+02601999999ADDGA1021+006009999GF102991999999999999999999MA1101021999999MW1001REMMET045SKSM 111900Z 31006KT 9000 FEW020 31/26 A2983;EQDQ01+000000PRSWM2
0213800090999992000083118004+11120-074220FM-12+0001SKSM V0202701N004012200019N0100001N1+03281+02591100831ADDAA199000091AY101061AY201061GF103991021081008001001011MA1999999100781MD1999999-0071MW1051REMSYN094AAXX  31181 80009 31560 32704 10328 20259 30078 40083 70500 82801 333 562/0 59007 59007 83070;EQDQ01  00002PRCP99
0253800090999992000090212004+11120-074220FM-12+0001SKSM V0209999C000010450019N0120001N1+02621+02321101041ADDAA124000591AY121061GA1021+006009089GF106991021081008001031011GJ100729IA1019KA1240N+02581MA1999999100991MD1999999+0001MW1051REMSYN118AAXX  02121 80009 31562 60000 10262 20232 30099 40104 69944 7052/ 82831 333 20258 30/// 55012 56000 58000 82820 84357;
0248800090999992000100600004+11120-074220FM-12+0001SKSM V0203601N00301045001CN0120001N1+02881+02451100851ADDAA199000091AY121061AY221061GA1021+008109089GF106991021081008001021011KA1240M+03301MA1999999100801MD1999999-0111MW1051REMSYN100AAXX  06001 80009 31562 63603 10288 20245 30080 40085 70522 82821 333 10330 56000 59011 82827 83070;EQDQ01  00002PRCP99
0223800090999992000112115004+11120-074220FM-12+0001SKSM V0202301N002012200019N0120001N1+02981+02521101101ADDAA199000091AY101031AY201031GA1021+006009029GF102991021081008001001001MA1999999101051MD1999999-0051MW1051REMSYN088AAXX  21151 80009 31562 22302 10298 20252 30105 40110 70500 82800 333 560// 59005 82820;EQDQ01  00002PRCP99
0162800090999992000121414004+11120-074220FM-15+0001SKSM V0209999C000012200019N0112651N1+02701+02301999999ADDGA1021+009009999GA2021+060009999GF104991999999999999999999MA1101121999999MW1001REMMET052SKSM 141400Z 00000KT 9999 FEW030 SCT200 27/23 A2986;EQDQ01+000000PRSWM2
0223800090999992000121615004+11120-074220FM-12+0001SKSM V0202301N002012200019N0120001N1+02881+02391101201ADDAA199000091AY101031AY201031GA1011+007509029GF101991011081008001001001MA1999999101151MD1999999+0011MW1051REMSYN088AAXX  16151 80009 31562 12302 10288 20239 30115 40120 70500 81800 333 560/0 58001 81825;EQDQ01  00002PRCP99
0300800090999992000122300004+11120-074220SY-MT+0001SKSM V0203601N003012200019N0100001N1+02841+02431100911ADDAA199000091AY101061AY201061GA1011+060009019GF102991001001999999001011MA1100911100861MD1999999-0011MW1051REMSYN088AAXX  23001 80009 31960 23603 10284 20243 30086 40091 70500 80001 333 56//0 59001 81070;MET039SKSM 230000Z 36006KT CAVOK 28/24 A2980;EQDQ01+000000PRSWM2Q02  00002PRCP99Q03    003PRSWM1
0091800090999992000122401004+11120-074220FM-15+0001SKSM V0200201N00821220001CN0099001N1+02801+02301999999ADDMA1100811999999MW1001REMMET039SKSM 240100Z 02016KT CAVOK 28/23 A2977;EQDQ01+000000PRSWM2
0139800090999992000122616004+11120-074220FM-15+0001SKSM V0202301N002112200019N0112651N1+03001+02501999999ADDGA1021+006009999GF102991999999999999999999MA1100911999999MW1001REMMET045SKSM 261600Z 23004KT 9999 FEW020 30/25 A2980;EQDQ01+000000PRSWM2
0185800090999992000122823004+11120-074220FM-15+0001SKSM V0209999C000010600019N0112651N1+02901+02501999999ADDGA1021+005109999GA2021+024009999GA3071+060009999GF107991999999999999999999MA1100711999999MW1001REMMET059SKSM 282300Z 00000KT 9999 FEW017 SCT080 BKN200 29/25 A2974;EQDQ01+000000PRSWM2
0223800220999992000010521004+10450-075520FM-12+0001SKCG V0203601N006012200019N0150001N1+02881+02331100921ADDAA106000091AY101031AY201031GA1011+003909029GF101991011021004501001001MA1999999100901MD1999999+0001MW1051REMSYN088AAXX  05211 80022 31465 13606 10288 20233 30090 40092 70500 81200 333 567// 58000 81813;EQDQ01  00002PRCP06
0258800220999992000011712004+10450-075520FM-12+000199999V0209999C00001220001CN0120001N1+02201+01891101121ADDAA199000091AY101061AY201061GF101991001001999999001011GJ106129IA1019KA1240N+02181MA1999999101101MW1051REMSYN110    AAXX  17121 80022 31962 10000 10220 20189 30110 40112 70500 81001 333 20218 30/// 50850 55102 56//0 82070;EQDQ01+000012SCOTLCQ02  00002PRCP99
0227800220999992000011903004+10450-075520FM-12+000199999V0200201N00501003001CN0140001N1+02381+02141101281ADDAA199000091AY111031AY201031GA1061+003009069GF106991061061004501001001MA1999999101261MD1999999+0051MW1051REMSYN092    AAXX  19031 80022 31464 60205 10238 20214 30126 40128 70510 86600 333 569// 58005 86710;EQDQ01  00002PRCP99
0141800220999992000020120004+10450-075520FM-15+0001SKCG V0203301N003612200019N0112651N1+02901+02401999999ADDGA1021+004509099GF102991999999999999999999MA1101081999999MW1001REMMET047SKCG 012000Z 33007KT 9999 FEW015CB 29/24 A2985;EQDQ01+000000PRSWM2
0091800220999992000020210004+10450-075520FM-15+0001SKCG V0209999999999220001CN0099001N1+02501+02201999999ADDMA1101121999999MW1001REMMET039SKCG 021000Z VRB02KT CAVOK 25/22 A2986;EQDQ01+000000PRSWM2
0162800220999992000020319004+10450-075520FM-15+0001SKCG V0203501N005710600019N0112651N1+03001+02301999999ADDGA1021+004509999GA2071+060009999GF107991999999999999999999MA1100911999999MW1001REMMET052SKCG 031900Z 35011KT 9999 FEW015 BKN200 30/23 A2980;EQDQ01+000000PRSWM2
0320800220999992000020406004+10450-075520SY-MT+0001SKCG V0200201N001010045019N0120001N1+02561+02361101031ADDAA199000091AY121061AY211061GA1071+004509999GF199999061041004501001011MA1101021101011MD1999999-0111MW1051REMSYN088AAXX  04061 80022 31462 60201 10256 20236 30101 40103 70521 86401 333 568/9 59011 86615;MET043SKCG 0600Z VRB02KT 9999 BKN015 26/24 A2983;EQDQ01+000062SCOTCVQ02+000000PRSWM2Q03  00002PRCP99Q04    003PRSWM1
0139800220999992000020719004+10450-075520FM-15+0001SKCG V0200101N007712200019N0112651N1+03101+02401999999ADDGA1021+005109999GF102991999999999999999999MA1101121999999MW1001REMMET045SKCG 071900Z 01015KT 9999 FEW017 31/24 A2986;EQDQ01+000000PRSWM2
0089800220999992000020811004+10450-075520FM-15+0001SKCG V0209999C00001220001CN0099001N1+02301+02201999999ADDMA1101121999999MW1001REMMET037SKCG 1100Z 00000KT CAVOK 23/22 A2986;EQDQ01+000000PRSWM2
0139800220999992000021808004+10450-075520FM-15+0001SKCG V0209999C000012200019N0112651N1+02501+02401999999ADDGA1021+004509999GF102991999999999999999999MA1101051999999MW1001REMMET045SKCG 180800Z 00000KT 9999 FEW015 25/24 A2984;EQDQ01+000000PRSWM2
0315800220999992000021912004+10450-075520SY-MT+0001SKCG V0209999C000012200019N0120001N1+02301+02121101041ADDAA199000091AY101061AY201061GF101991001001999999001011GJ106009IA1019KA1240N+02291MA1101021101021MW1051REMSYN106AAXX  19121 80022 31962 10000 10230 20212 30102 40104 70500 80001 333 20229 30/// 50610 55100 56//9 81070;MET039SKCG 191200Z 00000KT CAVOK 23/21 A2983;EQDQ01+000000PRSWM2Q02  00002PRCP99Q03    003PRSWM1
0138800220999992000022122004+10450-075520FM-15+0001SKCG V0200201N004612200019N0112651N1+99999+99999999999ADDGA1021+004509099GF102991999999999999999999MA1101081999999MW1001REMMET044SKCG 2200Z 02009KT 9999 FEW015CB 8/23 A2985;EQDQ01+000000PRSWM2
0325800220999992000022200004+10450-075520SY-MT+0001SKCG V0200101N005012200019N0150001N1+02581+02261101061ADDAA199000091AY101061AY201061GA1021+003609999GF102991021061004501001001KA1240M+02981MA1101051101041MD1999999-0081MW1051REMSYN094AAXX  22001 80022 31465 20105 10258 20226 30104 40106 70500 82600 333 10298 569// 59008 82712;MET045SKCG 220000Z 01010KT 9999 FEW012 26/22 A2984;EQDQ01+000000PRSWM2Q02  00002PRCP99Q03    003PRSWM1
0162800220999992000022219004+10450-075520FM-15+0001SKCG V0200201N005112200019N0112651N1+02801+02301999999ADDGA1021+004509999GA2021+060009999GF104991999999999999999999MA1101121999999MW1001REMMET052SKCG 221900Z 02010KT 9999 FEW015 SCT200 28/23 A2986;EQDQ01+000000PRSWM2
0284800220999992000030203004+10450-075520SY-MT+0001SKCG V0200101N006012200019N0120001N1+02541+02211101211ADDAA199000091AY101031AY201031GF103991001001999999001011MA1101191101191MD1999999+0011MW1051REMSYN088AAXX  02031 80022 31962 30106 10254 20221 30119 40121 70500 80001 333 56//0 58001 83070;MET039SKCG 020300Z 01012KT CAVOK 25/22 A2988;EQDQ01+000000PRSWM2Q02  00002PRCP99Q03    003PRSWM1
0091800220999992000030711004+10450-075520FM-15+0001SKCG V0209999999999220001CN0099001N1+02501+02301999999ADDMA1100981999999MW1001REMMET039SKCG 071100Z VRB03KT CAVOK 25/23 A2982;EQDQ01+000000PRSWM2
0337800220999992000031712004+10450-075520SY-MT+0001SKCG V0209999V001012200019N0070001N1+02481+02361100961ADDAA199000091AY111061AY201061GA1021+060009999GF104991001001999999001061GJ104149IA1019KA1240N+02431MA1100951100941MW1051REMSYN106AAXX  17121 80022 31957 49901 10248 20236 30094 40096 70510 80006 333 20243 30/// 50530 55069 56//9 84170;MET045SKCG 171200Z VRB02KT 7000 SCT200 25/24 A2981;EQDQ01+000000PRSWM2Q02  00002PRCP99Q03    003PRSWM1
0162800220999992000041104004+10450-075520FM-15+0001SKCG V0200201N009312200019N0112651N1+02501+02201999999ADDGA1021+004509999GA2021+060009999GF104991999999999999999999MA1101021999999MW1001REMMET052SKCG 110400Z 02018KT 9999 FEW015 SCT200 25/22 A2983;EQDQ01+000000PRSWM2
0223800220999992000041703004+10450-075520FM-12+0001SKCG V0200401N003012200019N0100001N1+02701+02381101141ADDAA199000091AY111031AY201031GA1031+060009019GF103991001001999999001011MA1999999101121MD1999999-0041MW1051REMSYN088AAXX  17031 80022 31960 30403 10270 20238 30112 40114 70510 80001 333 56//9 59004 83070;EQDQ01  00002PRCP99
0162800220999992000041813004+10450-075520FM-15+0001SKCG V0200401N004612200019N0112651N1+02701+02501999999ADDGA1021+004509999GA2021+060009999GF104991999999999999999999MA1101191999999MW1001REMMET052SKCG 181300Z 04009KT 9999 FEW015 SCT200 27/25 A2988;EQDQ01+000000PRSWM2
0165800220999992000052420004+10450-075520FM-15+0001SKCG V0203401N003110210019N0112651N1+02901+02601999999ADDGA1021+003909029GA2071+021009999GF107991999999999999999999MA1100881999999MW1001REMMET055SKCG 242000Z 34006KT 9999 FEW013TCU BKN070 29/26 A2979;EQDQ01+000000PRSWM2
0164800220999992000052423004+10450-075520FM-15+0001SKCG V0200201N004610600019N0112651N1+02801+02601999999ADDGA1021+004509099GA2071+060009999GF107991999999999999999999MA1100951999999MW1001REMMET054SKCG 242300Z 02009KT 9999 FEW015CB BKN200 28/26 A2981;EQDQ01+000000PRSWM2
0266800220999992000052809004+10450-075520SY-MT+0001SKCG V0209999C000012200019N0100001N1+02621+02481100681ADDAA199000091AY101031AY201031GF100991001001999999001001MA1100611100541MD1999999-0061MW1051REMSYN070AAXX  28091 80022 31960 00000 10262 20248 30054 40068 70500 333 59006;MET039SKCG 280900Z 00000KT CAVOK 26/25 A2971;EQDQ01+000000PRSWM2Q02  00002PRCP99Q03    003PRSWM1
0091800220999992000060310004+10450-075520FM-15+0001SKCG V0209999C00001220001CN0099001N1+02501+02301999999ADDMA1100911999999MW1001REMMET039SKCG 031000Z 00000KT CAVOK 25/23 A2980;EQDQ01+000000PRSWM2
0091800220999992000060401004+10450-075520FM-15+0001SKCG V0200101N00311220001CN0099001N1+02801+02501999999ADDMA1100981999999MW1001REMMET039SKCG 040100Z 01006KT CAVOK 28/25 A2982;EQDQ01+000000PRSWM2
0315800220999992000060412004+10450-075520SY-MT+0001SKCG V0201201N00101220001CN0100001N1+02701+02471100991ADDAA199000091AY101061AY201061GF104991041001022501051001GJ106249IA1019KA1240N+02541MA1100951100971MW1051REMSYN106AAXX  04121 80022 31860 41201 10270 20247 30097 40099 70500 84050 333 20254 30/// 50870 55104 56/9/ 84357;MET039SKCG 041200Z VRB02KT CAVOK 27/25 A2981;EQDQ01+000000PRSWM2Q02  00002PRCP99Q03    003PRSWM1
0319800220999992000060503004+10450-075520SY-MT+0001SKCG V0200501N003010210019N0100001N1+02641+02501101091ADDAA199000021AY121031AY221031GA1021+004509999GA2071+021009999GF108991031041004501031011MA1101081101071MD1999999-0031MW1051REMSYN094AAXX  05031 80022 31460 80503 10264 20250 30107 40109 70522 83431 333 56100 59003 83815 8535/;MET052SKCG 050300Z 05006KT 9999 SCT015 BKN070 26/25 A2985;EQDQ01+000000PRSWM2Q02    003PRSWM1
0091800220999992000060902004+10450-075520FM-15+0001SKCG V0200201N00361220001CN0099001N1+02801+02501999999ADDMA1101021999999MW1001REMMET039SKCG 090200Z 02007KT CAVOK 28/25 A2983;EQDQ01+000000PRSWM2
0307800220999992000060918004+10450-075520SY-MT+0001SKCG V0200701N00201003901CN0070001N1+02981+02411101121ADDAA199000091AY191061AY221061GA1071+003909099GF107991061091004501001011MA1101121101101MD1999999+0111MW1171REMSYN100AAXX  09181 80022 31457 70702 10298 20241 30110 40112 71792 86901 333 562/9 57921 58011 82913 84714;MET050SKCG 091800Z 07005KT 7000 TS BKN013CB 30/24 A2986;EQDQ01  00002PRCP99Q02    003PRSWM1
0091800220999992000061010004+10450-075520FM-15+0001SKCG V0209999C00001220001CN0099001N1+02701+02501999999ADDMA1101021999999MW1001REMMET039SKCG 101000Z 00000KT CAVOK 27/25 A2983;EQDQ01+000000PRSWM2
0139800220999992000061201004+10450-075520FM-15+0001SKCG V0200101N004612200019N0112651N1+02801+02501999999ADDGA1021+004509999GF102991999999999999999999MA1100811999999MW1001REMMET045SKCG 120100Z 01009KT 9999 FEW015 28/25 A2977;EQDQ01+000000PRSWM2
0364800220999992000062315004+10450-075520SY-MT+0001SKCG V0201501N005010600019N0120001N1+02861+02371101121ADDAA199000091AY121031AY221031GA1021+003909999GA2021+024009999GA3071+060009999GF108991011051004501041061MA1101121101101MD1999999+0051MW1051REMSYN100AAXX  23151 80022 31462 81505 10286 20237 30110 40112 70522 81546 333 56099 58005 81613 83358 85070;MET059SKCG 231500Z 15009KT 9999 FEW013 SCT080 BKN200 29/24 A2986;EQDQ01+000000PRSWM2Q02  00002PRCP99Q03    003PRSWM1
0162800220999992000062416004+10450-075520FM-15+0001SKCG V02099999999990210019N0112651N1+02601+02401999999ADDGA1021+003009999GA2071+021009999GF107991999999999999999999MA1101351999999MW1001REMMET052SKCG 241600Z VRB02KT 9999 FEW010 BKN070 26/24 A2993;EQDQ01+000000PRSWM2
0120800220999992000062713004+10450-075520FM-15+0001SKCG V0209999C000012200019N0090001N1+02701+02401999999ADDGF100991999999999999999999MA1100911999999MW1001REMMET042SKCG 271300Z 00000KT 9000 SKC 27/24 A2980;EQDQ01+000000PRSWM2
0132800220999992000063002004+10450-075520FM-15+0001SKCG V0200301N003612200019N0112651N1+99999+99999999999ADDGA1021+004509999GF102991999999999999999999MW1001REMMET053SKCG 300200Z 030007KT 9999 FEW015 ECT200 27/24 A2976;EQDQ01+000000PRSWM2
0335800220999992000063021004+10450-075520SY-MT+0001SKCG V0203501N00401220001CN0120001N1+02981+02391100711ADDAA199000091AY101031AY201031GA1021+004509999GA2021+060009999GF105991011011004501001011MA1100711100691MD1999999+0061MW1051REMSYN094AAXX  30211 80022 31462 53504 10298 20239 30069 40071 70500 81101 333 569/9 58006 81815 84070;MET052SKCG 302100Z 35009KT 9999 FEW015 SCT200 30/24 A2974;EQDQ01+000000PRSWM2Q02  00002PRCP99Q03    003PRSWM1
0319800220999992000070200004+10450-075520SY-MT+0001SKCG V0200101N004012200019N0150001N1+02721+02431100741ADDAA199000091AY101061AY201061GA1031+060009019GF103991001001999999001011KA1240M+03101MA1100751100721MD1999999-0061MW1051REMSYN094AAXX  02001 80022 31965 30104 10272 20243 30072 40074 70500 80001 333 10310 56//0 59006 83070;MET039SKCG 020000Z 01016KT CAVOK 27/24 A2975;EQDQ01+000000PRSWM2Q02  00002PRCP99Q03    003PRSWM1
0139800220999992000070416004+10450-075520FM-15+0001SKCG V0203001N002612200019N0112651N1+03001+02501999999ADDGA1021+006009999GF102991999999999999999999MA1100911999999MW1001REMMET045SKCG 041600Z 30005KT 9999 FEW020 30/25 A2980;EQDQ01+000000PRSWM2
0351800220999992000071206004+10450-075520SY-MT+0001SKCG V0200201N005010600019N0120001N1+02601+02501100961ADDAA199000091AY121061AY201061GA1021+003009999GA2071+060009999GF199999021041004501001011MA1100951100941MD1999999+0081MW1051REMSYN094AAXX  12061 80022 31462 60205 10260 20250 30094 40096 70520 82401 333 561/0 58008 82815 83070;MET052SKCG 120600Z 02010KT 9999 FEW010 BKN200 26/25 A2981;EQDQ01+000062SCOTCVQ02+000000PRSWM2Q03  00002PRCP99Q04    003PRSWM1
0330800220999992000071321004+10450-075520SY-MT+0001SKCG V0203001N002010045019N0110001N1+02941+02581100861ADDAA199000091AY121031AY221031GA1071+004509999GA2021+021009999GF108991051041004501031011MA1100851100841MD1999999+0041MW1151MW2161REMSYN094AAXX  13211 80022 31461 83002 10294 20258 30084 40086 71522 85431 333 56100 58004 85815 83357;MET057SKCG 132100Z 30004KT 9999 VCSH BKN015 SCT070 29/26 A2978;EQDQ01  00002PRCP99Q02    003PRSWM1
0229800220999992000071509004+10450-075520FM-12+0001SKCG V0200301N003010039019N0130001N1+02661+02481101061ADDAA199000091AY121031AY221031GA1051+003909069GF108991051051004501071999MA1999999101041MD1999999+0041MW1051REMSYN094AAXX  15091 80022 31463 80303 10266 20248 30104 40106 70522 8557/ 333 5699/ 58004 85613 85357;EQDQ01  00002PRCP99
0162800220999992000072908004+10450-075520FM-15+0001SKCG V0209999C000012200019N0112651N1+02401+02301999999ADDGA1021+004509999GA2021+021009999GF104991999999999999999999MA1101021999999MW1001REMMET052SKCG 290800Z 00000KT 9999 FEW015 SCT070 24/23 A2983;EQDQ01+000000PRSWM2
0335800220999992000080315004+10450-075520SY-MT+0001SKCG V0200701N00401220001CN0090001N1+02981+02561101111ADDAA199000091AY121031AY221031GA1071+004509999GA2021+021009999GF107991051041004501031011MA1101081101091MD1999999-0011MW1051REMSYN094AAXX  03151 80022 31459 70704 10298 20256 30109 40111 70522 85431 333 56300 59001 85815 83357;MET052SKCG 031500Z 07008KT 9000 BKN015 SCT070 30/26 A2985;EQDQ01+000000PRSWM2Q02  00002PRCP99Q03    003PRSWM1
0156800220999992000080815004+10450-075520FM-15+0001SKCG V0201801N00821220001CN0112651N1+02901+02701999999ADDGA1071+004509999GA2021+021009999MA1101051999999MW1001REMMET056SKCG 081500Z 18016KT 9999 /DZ BKN015 SCT070 29/27 A2984;EQDQ01+000042SCOTCVQ02+000000PRSWM2
0162800220999992000081102004+10450-075520FM-15+0001SKCG V0200501N002610600019N0112651N1+02901+02501999999ADDGA1021+004509999GA2071+060009999GF107991999999999999999999MA1101221999999MW1001REMMET052SKCG 110200Z 05005KT 9999 FEW015 BKN200 29/25 A2989;EQDQ01+000000PRSWM2
0223800220999992000081803004+10450-075520FM-12+0001SKCG V0200201N002012200019N0120001N1+02741+02451100841ADDAA199000091AY111031AY201031GA1031+060009019GF103991001001999999001011MA1999999100821MD1999999-0221MW1051REMSYN088AAXX  18031 80022 31962 30202 10274 20245 30082 40084 70510 80001 333 56//0 59022 83070;EQDQ01  00002PRCP99
0185800220999992000082616004+10450-075520FM-15+0001SKCG V0202001N004110600019N0112651N1+02801+02401999999ADDGA1021+004209999GA2021+021009999GA3071+060009999GF107991999999999999999999MA1101021999999MW1001REMMET059SKCG 261600Z 20008KT 9999 FEW014 SCT070 BKN200 28/24 A2983;EQDQ01+000000PRSWM2
0169800220999992000083014004+10450-075520FM-15+0001SKCG V0202201N002612200019N0112651N1+02901+02701999999ADDGA1021+003909099GA2021+060009999GF104991999999999999999999MA1101021999999MW1001REMMET059SKCG 301400Z 22005KT 9999 SCT013CB SCT200 29/27 A2983 RERA;EQDQ01+000000PRSWM2
0091800220999992000090306004+10450-075520FM-15+0001SKCG V0200101N00261220001CN0099001N1+02801+02401999999ADDMA1100881999999MW1001REMMET039SKCG 030600Z 01005KT CAVOK 28/24 A2979;EQDQ01+000000PRSWM2
0169800220999992000091011004+10450-075520FM-15+0001SKCG V02099999999990240019N0112651N1+02601+02501999999ADDGA1021+003909029GA2071+024009999GF107991999999999999999999MA1100881999999MW1001REMMET059SKCG 101100Z 1011OOZ04KT 9999 FEW013TCU BKN080 26/25 A2979;EQDQ01+000000PRSWM2
0162800220999992000091502004+10450-075520FM-15+0001SKCG V0209999C000012200019N0112651N1+02901+02401999999ADDGA1021+004209999GA2021+021009999GF104991999999999999999999MA1101021999999MW1001REMMET052SKCG 150200Z 00000KT 9999 FEW014 SCT070 29/24 A2983;EQDQ01+000000PRSWM2
0146800220999992000091914004+10450-075520FM-15+0001SKCG V0201601N003112200019N0112651N1+02901+02501999999ADDGA1021+004509999GA2021+030009999GF104991999999999999999999MW1001REMMET051SKCG 191400Z 16006KT 9999 FEW015 SCT100 29/25 2984;EQDQ01+000000PRSWM2
0162800220999992000092023004+10450-075520FM-15+0001SKCG V0209999C000010600019N0112651N1+02801+02301999999ADDGA1021+004509999GA2071+060009999GF107991999999999999999999MA1101021999999MW1001REMMET052SKCG 202300Z 00000KT 9999 FEW015 BKN200 28/23 A2983;EQDQ01+000000PRSWM2
0139800220999992000092105004+10450-075520FM-15+0001SKCG V0209999C000012200019N0112651N1+02701+02401999999ADDGA1021+004509999GF102991999999999999999999MA1101121999999MW1001REMMET045SKCG 210500Z 00000KT 9999 FEW015 27/24 A2986;EQDQ01+000000PRSWM2
0340800220999992000092318004+10450-075520SY-MT+0001SKCG V0202801N003010600019N0080001N1+03041+02571100861ADDAA199000091AY121061AY221061GA1021+003909099GA2071+060009999GF199999021091004501021031MA1100851100841MD1999999-0271MW1171REMSYN094AAXX  23181 80022 31458 62803 10304 20257 30084 40086 71722 82923 333 569/0 59027 82913 85070;MET057SKCG 231800Z 28005KT 8000 TS FEW013CB BKN200 30/26 A2978;EQDQ01+000062SCOTCVQ02  00002PRCP99Q03    003PRSWM1
0162800220999992000100222004+10450-075520FM-15+0001SKCG V0201101N002110210019N0112651N1+02701+02501999999ADDGA1021+003609999GA2071+021009999GF107991999999999999999999MA1101021999999MW1001REMMET052SKCG 022200Z 11004KT 9999 FEW012 BKN070 27/25 A2983;EQDQ01+000000PRSWM2
0309800220999992000100718004+10450-075520SY-MT+0001SKCG V0203601N005012200019N0120001N1+03141+02581100761ADDAA199000091AY111061AY211061GA1021+004509029GF104991031021004501001011MA1100751100741MD1999999-0071MW1051REMSYN088AAXX  07181 80022 31462 43605 10314 20258 30074 40076 70511 83201 333 569/0 59007 83815;MET048SKCG 071800Z 36010KT 9999 SCT015TCU 31/26 A2975;EQDQ01+000000PRSWM2Q02  00002PRCP99Q03    003PRSWM1
0162800220999992000101013004+10450-075520FM-15+0001SKCG V0201001N002110210019N0112651N1+02501+02401999999ADDGA1021+004509999GA2071+021009999GF107991999999999999999999MA1100951999999MW1001REMMET052SKCG 101300Z 10004KT 9999 FEW015 BKN070 25/24 A2981;EQDQ01+000000PRSWM2
0162800220999992000101501004+10450-075520FM-15+0001SKCG V02099999999990210019N0112651N1+02701+02601999999ADDGA1021+004209999GA2071+021009999GF107991999999999999999999MA1100911999999MW1001REMMET052SKCG 150100Z VRB03KT 9999 FEW014 BKN070 27/26 A2980;EQDQ01+000000PRSWM2
0139800220999992000101504004+10450-075520FM-15+0001SKCG V0200201N002112200019N0112651N1+02801+02601999999ADDGA1021+004209999GF102991999999999999999999MA1101021999999MW1001REMMET045SKCG 150400Z 02004KT 9999 FEW014 28/26 A2983;EQDQ01+000000PRSWM2
0162800220999992000101702004+10450-075520FM-15+0001SKCG V0200301N002112200019N0112651N1+02701+02401999999ADDGA1021+004509999GA2021+021009999GF104991999999999999999999MA1101021999999MW1001REMMET052SKCG 170200Z 03004KT 9999 FEW015 SCT070 27/24 A2983;EQDQ01+000000PRSWM2
0162800220999992000102222004+10450-075520FM-15+0001SKCG V0202701N003112200019N0112651N1+02901+02501999999ADDGA1021+004509999GA2021+021009999GF104991999999999999999999MA1100811999999MW1001REMMET052SKCG 222200Z 27006KT 9999 SCT015 SCT070 29/25 A2977;EQDQ01+000000PRSWM2
0164800220999992000102611004+10450-075520FM-15+0001SKCG V02099999999992200019N0112651N1+02601+02501999999ADDGA1021+004509099GA2021+024009999GF104991999999999999999999MA1100951999999MW1001REMMET054SKCG 261100Z VRB02KT 9999 FEW015CB SCT080 26/25 A2981;EQDQ01+000000PRSWM2
0139800220999992000102702004+10450-075520FM-15+0001SKCG V0200201N002112200019N0112651N1+02701+02501999999ADDGA1021+004509999GF102991999999999999999999MA1100951999999MW1001REMMET045SKCG 270200Z 02004KT 9999 FEW015 27/25 A2981;EQDQ01+000000PRSWM2
0091800220999992000102710004+10450-075520FM-15+0001SKCG V0209999C00001220001CN0099001N1+02601+02501999999ADDMA1100911999999MW1001REMMET039SKCG 271000Z 00000KT CAVOK 26/25 A2980;EQDQ01+000000PRSWM2
0162800220999992000103122004+10450-075520FM-15+0001SKCG V0202901N002110240019N0112651N1+02801+02501999999ADDGA1021+003909999GA2071+024009999GF107991999999999999999999MA1100751999999MW1001REMMET052SKCG 312200Z 29004KT 9999 FEW013 BKN080 28/25 A2975;EQDQ01+000000PRSWM2
0300800220999992000110106004+10450-075520SY-MT+0001SKCG V0209999C00001220001CN0100001N1+02601+02341100961ADDAA199000091AY121061AY221061GF105991051999022501031001MA1100951100941MD1999999-0141MW1051REMSYN088AAXX  01061 80022 31860 50000 10260 20234 30094 40096 70522 85030 333 56/9/ 59014 85357;MET039SKCG 010600Z 00000KT CAVOK 26/23 A2981;EQDQ01+000000PRSWM2Q02+000002SCOLCGQ03  00002PRCP99Q04    003PRSWM1
0165800220999992000110114004+10450-075520FM-15+0001SKCG V0209999C000010210019N0090001N1+02901+02601999999ADDGA1021+004509029GA2071+021009999GF107991999999999999999999MA1101081999999MW1001REMMET055SKCG 011400Z 00000KT 9000 FEW015TCU BKN070 29/26 A2985;EQDQ01+000000PRSWM2
0314800220999992000110118004+10450-075520SY-MT+0001SKCG V0202401N002012200019N0120001N1+03061+02591100881ADDAA199000091AY121061AY221061GF107991021021004501071011MA1999999100861MD1999999-0081MW1051REMSYN094AAXX  01181 80022 31462 72402 10306 20259 30086 40088 70522 82271 333 56100 59008 82815 83457;MET063SKCG 011800Z 011880Z 24004KT 9999 FEW015TCU SCT070 31/26 A2979;EQDQ01+000000PRSWM2Q02  00002PRCP99Q03    003PRSWM1
0162800220999992000111011004+10450-075520FM-15+0001SKCG V0209999C000012200019N0112651N1+02601+02401999999ADDGA1021+004509999GA2021+060009999GF104991999999999999999999MA1100851999999MW1001REMMET052SKCG 101100Z 00000KT 9999 FEW015 SCT200 26/24 A2978;EQDQ01+000000PRSWM2
0139800220999992000111204004+10450-075520FM-15+0001SKCG V0200101N003612200019N0112651N1+02801+02501999999ADDGA1021+003909999GF104991999999999999999999MA1101121999999MW1001REMMET045SKCG 120400Z 01007KT 9999 SCT013 28/25 A2986;EQDQ01+000000PRSWM2
0139800220999992000111619004+10450-075520FM-15+0001SKCG V02099999999992200019N0112651N1+03201+02401999999ADDGA1021+004509999GF102991999999999999999999MA1100751999999MW1001REMMET045SKCG 161900Z VRB02KT 9999 FEW015 32/24 A2975;EQDQ01+000000PRSWM2
0091800220999992000111802004+10450-075520FM-15+0001SKCG V0200101N00511220001CN0099001N1+02801+02401999999ADDMA1100851999999MW1001REMMET039SKCG 180200Z 01010KT CAVOK 28/24 A2978;EQDQ01+000000PRSWM2
0152800220999992000111922004+10450-075520FM-15+0001SKCG V0200101N00211220001CN0112651N1+02801+02601999999ADDGA1071+004509999GA2021+021009999MA1100811999999MW1001REMMET052SKCG 192200Z 01004KT 9999 BKN015 SCT070 28/26 A2977;EQDQ01+000042SCOTCVQ02+000000PRSWM2
0337800220999992000112818004+10450-075520SY-MT+0001SKCG V0202801N00201105001CN0120001N1+02951+02521100901ADDAA199000091AY111061AY211061GA1011+004509029GA2031+060009099GF105991011021004501071021MA1999999100881MD1999999+0071MW1051REMSYN094AAXX  28181 80022 31462 52802 10295 20252 30088 40090 70511 81272 333 560/9 58007 81815 83170;MET054SKCG 28180Z 28004KT 9999 FEW015TCU SCT200 30/25 A2979;EQDQ01+000000PRSWM2Q02  00002PRCP99Q03    003PRSWM1
0139800220999992000112913004+10450-075520FM-15+0001SKCG V0201801N002110210019N0060001N1+02701+02501999999ADDGA1071+021009999GF107991999999999999999999MA1101021999999MW1001REMMET045SKCG 291300Z 18004KT 6000 BKN070 27/25 A2983;EQDQ01+000000PRSWM2
0285800220999992000120900004+10450-075520SY-MT+0001SKCG V0200101N004012200019N0120001N1+02761+02421100941ADDAA199000091AY101061AY201061GF100991001001999999001001KA1240M+03081MA1100911100921MD1999999-0081MW1051REMSYN076AAXX  09001 80022 31962 00104 10276 20242 30092 40094 70500 333 10308 59008;MET039SKCG 090000Z 01008KT CAVOK 28/24 A2980;EQDQ01+000000PRSWM2Q02  00002PRCP99Q03    003PRSWM1
0316800220999992000121115004+10450-075520SY-MT+0001SKCG V0200501N002012200019N0160001N1+03041+02361100861ADDAA199000091AY111031AY201031GA1021+060009019GF102991001001999999001011MA1100851100841MD1999999-0131MW1051REMSYN088AAXX  11151 80022 31966 20502 10304 20236 30084 40086 70510 82001 333 56//9 59013 82070;MET039SKCG 111500Z 05004KT CAVOK 30/24 A2978;EQDQ01+000022SCOTLCQ02+000000PRSWM2Q03  00002PRCP99Q04    003PRSWM1
0091800220999992000121414004+10450-075520FM-15+0001SKCG V0203601N00211220001CN0099001N1+02801+02201999999ADDMA1101251999999MW1001REMMET039SKCG 141400Z 36004KT CAVOK 28/22 A2990;EQDQ01+000000PRSWM2
0335800220999992000121421004+10450-075520SY-MT+0001SKCG V0203601N004012200019N0120001N1+03061+02261101001ADDAA199000091AY121031AY221031GA1021+004509999GA2021+060009999GF104991011011004501001021MA1100981100981MD1999999+0051MW1051REMSYN094AAXX  14211 80022 31462 43604 10306 20226 30098 40100 70522 81102 333 567/9 58005 81815 83070;MET052SKCG 142100Z 36008KT 9999 FEW015 SCT200 31/23 A2982;EQDQ01+000000PRSWM2Q02  00002PRCP99Q03    003PRSWM1
0139800220999992000121516004+10450-075520FM-15+0001SKCG V0203001N002612200019N0112651N1+02901+02301999999ADDGA1021+003609999GF102991999999999999999999MA1101251999999MW1001REMMET045SKCG 151600Z 30005KT 9999 FEW012 29/23 A2990;EQDQ01+000000PRSWM2
0091800220999992000122016004+10450-075520FM-15+0001SKCG V0201001N00211220001CN0099001N1+03101+02401999999ADDMA1101121999999MW1001REMMET039SKCG 201600Z 10004KT CAVOK 31/24 A2986;EQDQ01+000000PRSWM2
0162800220999992000122810004+10450-075520FM-15+0001SKCG V0201201N002112200019N0000001N1+02601+02401999999ADDGA1021+004509999GA2021+021009999GF104991999999999999999999MA1100851999999MW1001REMMET052SKCG 281000Z 12004KT 0000 FEW015 SCT070 26/24 A2978;EQDQ01+000000PRSWM2
0290800280999992000010115004+10900-074770SY-MT+0010SKBQ V0200401N004012200019N0150001N1+02861+02581101201ADDAA106000091AY121031AY211031GA1021+004509999GF103991031051004501001001MA1101191101031MD1999999-0011MW1051REMSYN088AAXX  01151 80028 31465 30404 10286 20258 30103 40120 70521 83500 333 569// 59001 83615;MET045SKBQ 011500Z 04007KT 9999 SCT015 29/26 A2988;EQDQ01  00002PRCP06Q02    003PRSWM1
0139800280999992000010218004+10900-074770FM-15+0010SKBQ V0200101N009312200019N0112651N1+02801+02201999999ADDGA1021+004509999GF104991999999999999999999MA1101081999999MW1001REMMET045SKBQ 021800Z 01018KT 9999 SCT015 28/22 A2985;EQDQ01+000000PRSWM2
0139800280999992000010220004+10900-074770FM-15+0010SKBQ V0200101N006712200019N0112651N1+02901+02301999999ADDGA1021+004509999GF104991999999999999999999MA1100881999999MW1001REMMET045SKBQ 022000Z 01013KT 9999 SCT015 29/23 A2979;EQDQ01+000000PRSWM2
0266800280999992000010603004+10900-074770SY-MT+0010SKBQ V0200401N008012200019N0150001N1+02551+02411101121ADDAA106000091AY111031AY201031GF100991001001999999001001MA1101121100951MD1999999-0081MW1051REMSYN070AAXX  06031 80028 31965 00408 10255 20241 30095 40112 70510 333 59008;MET039SKBQ 060300Z 04016KT CAVOK 26/24 A2986;EQDQ01+000000PRSWM2Q02  00002PRCP06Q03    003PRSWM1
0285800280999992000012000004+10900-074770SY-MT+0010SKBQ V0200201N009012200019N0200001N1+02421+02191101131ADDAA199000091AY101061AY201061GF100991001001999999001001KA1240M+02911MA1101121100961MD1999999-0041MW1051REMSYN076AAXX  20001 80028 31970 00209 10242 20219 30096 40113 70500 333 10291 59004;MET039SKBQ 200000Z 02007KT CAVOK 24/22 A2986;EQDQ01+000000PRSWM2Q02  00002PRCP99Q03    003PRSWM1
0306800280999992000012206004+10900-074770SY-MT+0010SKBQ V0200101N010010030019N0200001N1+02451+02331101011ADDAA199000091AY121061AY221061GA1071+003009999GF106991031061004501001001MA1101021100841MD1999999-0081MW1051REMSYN088AAXX  22061 80028 31470 60110 10245 20233 30084 40101 70522 83600 333 569// 59008 86710;MET045SKBQ 220600Z 01019KT 9999 BKN010 25/23 A2983;EQDQ01+000000PRSWM2Q02  00002PRCP99Q03    003PRSWM1
0139800280999992000012819004+10900-074770FM-15+0010SKBQ V0200501N005112200019N0112651N1+03001+02201999999ADDGA1021+006009999GF102991999999999999999999MA1101081999999MW1001REMMET045SKBQ 281900Z 05010KT 9999 FEW020 30/22 A2985;EQDQ01+000000PRSWM2
0139800280999992000012911004+10900-074770FM-15+0010SKBQ V0200101N003612200019N0112651N1+02401+02101999999ADDGA1021+004509999GF102991999999999999999999MA1101121999999MW1001REMMET045SKBQ 291100Z 01007KT 9999 FEW015 24/21 A2986;EQDQ01+000000PRSWM2
0335800280999992000012915004+10900-074770SY-MT+0010SKBQ V0200301N004012200019N0200001N1+02741+02451101421ADDAA199000091AY111031AY211031GA1021+004509999GA2021+030009999GF105991021051004501021001MA1101421101251MD1999999+0021MW1051REMSYN094AAXX  29151 80028 31470 50304 10274 20245 30125 40142 70511 82520 333 5611/ 58002 82615 83460;MET052SKBQ 291500Z 03008KT 9999 FEW015 SCT100 27/25 A2995;EQDQ01+000000PRSWM2Q02  00002PRCP99Q03    003PRSWM1
0335800280999992000012918004+10900-074770SY-MT+0010SKBQ V0200301N004012200019N0200001N1+02741+02451101421ADDAA199000091AY111061AY211061GA1021+004509999GA2021+030009999GF105991021051004501021001MA1101251101251MD1999999+0021MW1051REMSYN094AAXX  29181 80028 31470 50304 10274 20245 30125 40142 70511 82520 333 5611/ 58002 82615 83460;MET052SKBQ 291800Z 06008KT 9999 SCT015 SCT100 29/24 A2990;EQDQ01+000000PRSWM2Q02  00002PRCP99Q03    003PRSWM1
0091800280999992000013101004+10900-074770FM-15+0010SKBQ V0200201N00821220001CN0099001N1+02601+02301999999ADDMA1101191999999MW1001REMMET039SKBQ 310100Z 02016KT CAVOK 26/23 A2988;EQDQ01+000000PRSWM2
0266800280999992000020709004+10900-074770SY-MT+0010SKBQ V0200301N00601220001CN0150001N1+02571+02161101071ADDAA199000091AY101031AY201031GF100991001001999999001001MA1101081100901MD1999999-0091MW1051REMSYN070AAXX  07091 80028 31965 00306 10257 20216 30090 40107 70500 333 59009;MET039SKBQ 070900Z 03013KT CAVOK 26/22 A2985;EQDQ01+000000PRSWM2Q02  00002PRCP99Q03    003PRSWM1
0091800280999992000021310004+10900-074770FM-15+0010SKBQ V0200101N00311220001CN0099001N1+02501+02201999999ADDMA1101051999999MW1001REMMET039SKBQ 131000Z 01006KT CAVOK 25/22 A2984;EQDQ01+000000PRSWM2
0091800280999992000021911004+10900-074770FM-15+0010SKBQ V0200301N00461220001CN0099001N1+02501+02201999999ADDMA1101051999999MW1001REMMET039SKBQ 191100Z 03009KT CAVOK 25/22 A2984;EQDQ01+000000PRSWM2
0310800280999992000021912004+10900-074770SY-MT+0010SKBQ V0200201N005012200019N0200001N1+02431+02091101141ADDAA199000091AY101061AY201061GF100991001001999999001001GJ105709IA1019KA1240N+02381MA1999999100971MD1999999-0191MW1051REMSYN088AAXX  19121 80028 31970 00205 10243 20209 30097 40114 70500 333 20238 30/// 55095 59019;MET038SKBQ 191200Z 02009KT CAVOK 24/21 2986;EQDQ01+000000PRSWM2Q02  00002PRCP99Q03    003PRSWM1
0091800280999992000030215004+10900-074770FM-15+0010SKBQ V0200401N00871220001CN0099001N1+02801+02301999999ADDMA1101321999999MW1001REMMET039SKBQ 021500Z 04017KT CAVOK 28/23 A2992;EQDQ01+000000PRSWM2
0266800280999992000031503004+10900-074770SY-MT+0010SKBQ V0200301N007012200019N0200001N1+02581+02401100831ADDAA199000091AY101031AY201031GF100991001001999999001001MA1100811100661MD1999999-0081MW1051REMSYN070AAXX  15031 80028 31970 00307 10258 20240 30066 40083 70500 333 59008;MET039SKBQ 150300Z 03013KT CAVOK 26/24 A2977;EQDQ01+000000PRSWM2Q02  00002PRCP99Q03    003PRSWM1
0091800280999992000032019004+10900-074770FM-15+0010SKBQ V0200201N00721220001CN0099001N1+03001+02201999999ADDMA1100811999999MW1001REMMET039SKBQ 201900Z 02014KT CAVOK 30/22 A2977;EQDQ01+000000PRSWM2
0091800280999992000032104004+10900-074770FM-15+0010SKBQ V0200301N01031220001CN0099001N1+02501+02301999999ADDMA1100881999999MW1001REMMET039SKBQ 210400Z 03020KT CAVOK 25/23 A2979;EQDQ01+000000PRSWM2
0266800280999992000032921004+10900-074770SY-MT+0010SKBQ V0200101N010012200019N0100001N1+02881+02431100721ADDAA199000091AY101031AY201031GF100991001001999999001001MA1100711100561MD1999999+0031MW1051REMSYN070AAXX  29211 80028 31960 00110 10288 20243 30056 40072 70500 333 58003;MET039SKBQ 292100Z 01019KT CAVOK 29/24 A2974;EQDQ01+000000PRSWM2Q02  00002PRCP99Q03    003PRSWM1
0162800280999992000033012004+10900-074770FM-15+0010SKBQ V0209999C000010300019N0112651N1+02601+02501999999ADDGA1021+003009999GA2071+030009999GF107991999999999999999999MA1100951999999MW1001REMMET052SKBQ 301200Z 00000KT 9999 SCT010 BKN100 26/25 A2981;EQDQ01+000000PRSWM2
0300800280999992000033121004+10900-074770SY-MT+0010SKBQ V0200401N008019999999N0150001N1+02931+02441100791ADDAA199000091AY121031AY221031GF106991001001999999001031MA1100781100621MD1999999+0001MW1051REMSYN088AAXX  31211 80028 31965 60408 10293 20244 30062 40079 70522 86003 333 56//9 58000 86070;MET039SKBQ 312100Z 04015KT CAVOK 29/24 A2976;EQDQ01+000062SCOTLCQ02+000000PRSWM2Q03  00002PRCP99Q04    003PRSWM1
0306800280999992000040121004+10900-074770SY-MT+0010SKBQ V0200401N008012200019N0200001N1+02911+02271100681ADDAA199000091AY101031AY201031GA1021+004509999GF102991021011004501001001MA1100681100511MD1999999-0111MW1051REMSYN088AAXX  01211 80028 31470 20408 10291 20227 30051 40068 70500 82100 333 561// 59011 82815;MET045SKBQ 012100Z 04015KT 9999 FEW015 29/23 A2973;EQDQ01+000000PRSWM2Q02  00002PRCP99Q03    003PRSWM1
0266800280999992000041006004+10900-074770SY-MT+0010SKBQ V0200501N009012200019N0150001N1+02541+02321100811ADDAA199000091AY101061AY201061GF100991001001999999001001MA1100811100641MD1999999+0031MW1051REMSYN070AAXX  10061 80028 31965 00509 10254 20232 30064 40081 70500 333 58003;MET039SKBQ 100600Z 05019KT CAVOK 25/23 A2977;EQDQ01+000000PRSWM2Q02  00002PRCP99Q03    003PRSWM1
0140800280999992000041616004+10900-074770FM-15+0010SKBQ V0201801N003612200019N0112651N1+03201+02401999999ADDGA1021+000609999GF104991999999999999999999MA1101321999999MW1001REMMET046SKBQ 161600Z 18007KT 9999 SCT0020 32/24 A2992;EQDQ01+000000PRSWM2
0338800280999992000041918004+10900-074770SY-MT+0010SKBQ V0200701N00701220001CN0150001N1+02951+02451101201ADDAA199000091AY111061AY211061GA1021+004509029GA2021+060009999GF106991021021004501001011MA1101021100851MD1999999-0051MW1051REMSYN094AAXX  19181 80028 31465 60707 10295 20245 30085 40120 70511 82201 333 569/0 59005 82815 84070;MET055SKBQ 191800Z 07014KT 9999 FEW015TCU SCT200 30/25 A2983;EQDQ01+000000PRSWM2Q02  00002PRCP99Q03    003PRSWM1
0139800280999992000042614004+10900-074770FM-15+0010SKBQ V0201701N003112200019N0112651N1+02901+02601999999ADDGA1021+004509999GF102991999999999999999999MA1101151999999MW1001REMMET045SKBQ 261400Z 17006KT 9999 FEW015 29/26 A2987;EQDQ01+000000PRSWM2
0266800280999992000042803004+10900-074770SY-MT+0010SKBQ V0200101N007012200019N0200001N1+02701+02521100921ADDAA199000091AY101031AY201031GF100991001001999999001001MA1100911100751MD1999999-0081MW1051REMSYN070AAXX  28031 80028 31370 00107 10270 20252 30075 40092 70500 333 59008;MET039SKBQ 280300Z 01014KT CAVOK 27/25 A2980;EQDQ01+000000PRSWM2Q02  00002PRCP99Q03    003PRSWM1
0162800280999992000050520004+10900-074770FM-15+0010SKBQ V0200201N006210360019N0112651N1+02801+02501999999ADDGA1021+004509999GA2071+036009999GF107991999999999999999999MA1100911999999MW1001REMMET052SKBQ 052000Z 02012KT 9999 FEW015 BKN120 28/25 A2980;EQDQ01+000000PRSWM2
0139800280999992000051101004+10900-074770FM-15+0010SKBQ V0200101N005112200019N0112651N1+02701+02601999999ADDGA1021+004509999GF104991999999999999999999MA1101191999999MW1001REMMET045SKBQ 110100Z 01010KT 9999 SCT015 27/26 A2988;EQDQ01+000000PRSWM2
0139800280999992000051214004+10900-074770FM-15+0010SKBQ V0201301N003112200019N0112651N1+02901+02701999999ADDGA1021+004509999GF104991999999999999999999MA1101191999999MW1001REMMET045SKBQ 121400Z 13006KT 9999 SCT015 29/27 A2988;EQDQ01+000000PRSWM2
0158800280999992000051510004+10900-074770FM-15+0010SKBQ V0200801N003110015019N0050001N1+02501+02501999999ADDGA1081+001509999GF108991999999999999999999MA1101021999999MW1051REMMET048SKBQ 151000Z 08006KT 5000 HZ OVC005 25/25 A2983;EQDQ01+000003PRSWM1Q02    003PRSWM1
0335800280999992000052021004+10900-074770SY-MT+0010SKBQ V0201801N002010036019N0100001N1+02681+02381101091ADDAA199000091AY121031AY221031GA1071+003609999GA2071+021009999GF107991051011004501021001MA1101081100921MD1999999+0091MW1051REMSYN094AAXX  20211 80028 31460 71802 10268 20238 30092 40109 70522 85120 333 5644/ 58009 85812 85457;MET052SKBQ 202100Z 18004KT 9999 BKN012 BKN070 27/24 A2985;EQDQ01+000000PRSWM2Q02  00002PRCP99Q03    003PRSWM1
0162800280999992000052716004+10900-074770FM-15+0010SKBQ V0200801N007210600019N0112651N1+03001+02501999999ADDGA1021+004509999GA2071+060009999GF107991999999999999999999MA1101051999999MW1001REMMET052SKBQ 271600Z 08014KT 9999 FEW015 BKN200 30/25 A2984;EQDQ01+000000PRSWM2
0266800280999992000052806004+10900-074770SY-MT+0010SKBQ V0200201N00301220001CN0150001N1+02611+02501100751ADDAA199000091AY101061AY201061GF100991001001999999001001MA1100781100581MD1999999-0081MW1051REMSYN070AAXX  28061 80028 31965 00203 10261 20250 30058 40075 70500 333 59008;MET039SKBQ 280600Z 02005KT CAVOK 26/25 A2976;EQDQ01+000000PRSWM2Q02  00002PRCP99Q03    003PRSWM1
0162800280999992000053122004+10900-074770FM-15+0010SKBQ V0203501N006210600019N0112651N1+02801+02601999999ADDGA1021+004509999GA2071+060009999GF107991999999999999999999MA1100981999999MW1001REMMET052SKBQ 312200Z 35012KT 9999 SCT015 BKN200 28/26 A2982;EQDQ01+000000PRSWM2
0139800280999992000060805004+10900-074770FM-15+0010SKBQ V0203401N004112200019N0112651N1+02701+02601999999ADDGA1021+004509999GF102991999999999999999999MA1101151999999MW1001REMMET045SKBQ 080500Z 34008KT 9999 FEW015 27/26 A2987;EQDQ01+000000PRSWM2
0142800280999992000060817004+10900-074770FM-15+0010SKBQ V0200701N003610045019N0112651N1+03101+02601999999ADDGA1071+004509029GF107991999999999999999999MA1101121999999MW1001REMMET048SKBQ 081700Z 07007KT 9999 BKN015TCU 31/26 A2986;EQDQ01+000000PRSWM2
0091800280999992000061104004+10900-074770FM-15+0010SKBQ V0209999C00001220001CN0099001N1+02701+02601999999ADDMA1101151999999MW1001REMMET039SKBQ 110400Z 00000KT CAVOK 27/26 A2987;EQDQ01+000000PRSWM2
0139800280999992000061122004+10900-074770FM-15+0010SKBQ V0200401N006712200019N0112651N1+03001+02601999999ADDGA1021+004509999GF102991999999999999999999MA1100781999999MW1001REMMET045SKBQ 112200Z 04013KT 9999 FEW015 30/26 A2976;EQDQ01+000000PRSWM2
0162800280999992000061313004+10900-074770FM-15+0010SKBQ V0209999C000010210019N0112651N1+02801+02701999999ADDGA1021+004509999GA2071+021009999GF107991999999999999999999MA1101191999999MW1001REMMET052SKBQ 131300Z 00000KT 9999 FEW015 BKN070 28/27 A2988;EQDQ01+000000PRSWM2
0091800280999992000062302004+10890-074770FM-15+0010SKBQ V0200101N00311220001CN0099001N1+02701+02601999999ADDMA1101051999999MW1001REMMET039SKBQ 230200Z 01006KT CAVOK 27/26 A2984;EQDQ01+000000PRSWM2
0139800280999992000070610004+10890-074770FM-15+0010SKBQ V0209999C000012200019N0112651N1+02401+02301999999ADDGA1021+004509999GF104991999999999999999999MA1100881999999MW1001REMMET045SKBQ 061000Z 00000KT 9999 SCT015 24/23 A2979;EQDQ01+000000PRSWM2
0139800280999992000071217004+10890-074770FM-15+0010SKBQ V0200201N005112200019N0112651N1+03101+02501999999ADDGA1021+004509999GF102991999999999999999999MA1101081999999MW1001REMMET045SKBQ 121700Z 02010KT 9999 FEW015 31/25 A2985;EQDQ01+000000PRSWM2
0091800280999992000071301004+10890-074770FM-15+0010SKBQ V0200201N00621220001CN0099001N1+02701+02501999999ADDMA1101021999999MW1001REMMET039SKBQ 130100Z 02012KT CAVOK 27/25 A2983;EQDQ01+000000PRSWM2
0139800280999992000071317004+10890-074770FM-15+0010SKBQ V0201901N003112200019N0112651N1+03201+02601999999ADDGA1021+004509999GF104991999999999999999999MA1101121999999MW1001REMMET045SKBQ 131700Z 19006KT 9999 SCT015 32/26 A2986;EQDQ01+000000PRSWM2
0162800280999992000071722004+10890-074770FM-15+0010SKBQ V0200201N006212200019N0112651N1+02801+02501999999ADDGA1021+004509999GA2021+021009999GF104991999999999999999999MA1100881999999MW1001REMMET052SKBQ 172200Z 02012KT 9999 SCT015 SCT070 28/25 A2979;EQDQ01+000000PRSWM2
0325800280999992000071800004+10890-074770SY-MT+0010SKBQ V0200301N005012200019N0150001N1+02741+02481100911ADDAA199000091AY111061AY211061GA1021+004509999GF102991021061004501001001KA1240M+03181MA1100911100741MD1999999-0061MW1051REMSYN094AAXX  18001 80028 31465 20305 10274 20248 30074 40091 70511 82600 333 10318 561// 59006 82715;MET045SKBQ 180000Z 03010KT 9999 FEW015 27/25 A2980;EQDQ01+000000PRSWM2Q02  00002PRCP99Q03    003PRSWM1
0306800280999992000071921004+10890-074770SY-MT+0010SKBQ V0200701N007012200019N0150001N1+02941+02501100981ADDAA199000091AY111031AY211031GA1021+004509999GF102991021011004501001001MA1100951100811MD1999999-0121MW1051REMSYN088AAXX  19211 80028 31465 20707 10294 20250 30081 40098 70511 82100 333 562// 59012 82815;MET045SKBQ 192100Z 07014KT 9999 FEW015 29/25 A2981;EQDQ01+000000PRSWM2Q02  00002PRCP99Q03    003PRSWM1
0324800280999992000072612004+10890-074770SY-MT+0010SKBQ V0209999C000012200019N0050001N1+02641+02551101001ADDAA199000091AY101061AY201061GA1021+004509999GF103991031061004501001001GJ103969IA1019KA1240N+02551MA1101021100841MW1051REMSYN106AAXX  26121 80028 31450 30000 10264 20255 30084 40100 70500 83600 333 20255 30/// 50540 55066 569// 83715;MET048SKBQ 261200Z 00000KT 5000 HZ SCT015 26/25 A2983;EQDQ01  00002PRCP99Q02    003PRSWM1
0284800280999992000080206004+10890-074770SY-MT+0010SKBQ V0200801N00401220001CN0150001N1+02721+02601101011ADDAA199000091AY111061AY211061GF103991031001022501021001MA1101021100841MD1999999-0011MW1051REMSYN088AAXX  02061 80028 31865 30804 10272 20260 30084 40101 70511 83020 333 56/9/ 59001 83458;MET039SKBQ 020600Z 08008KT CAVOK 27/26 A2983;EQDQ01+000000PRSWM2Q02  00002PRCP99Q03    003PRSWM1
0162800280999992000081523004+10890-074770FM-15+0010SKBQ V0200201N005112200019N0112651N1+02801+02601999999ADDGA1021+004509999GA2021+021009999GF104991999999999999999999MA1100951999999MW1001REMMET052SKBQ 152300Z 02010KT 9999 FEW015 SCT070 28/26 A2981;EQDQ01+000000PRSWM2
0139800280999992000082007004+10890-074770FM-15+0010SKBQ V0200701N006712200019N0112651N1+02701+02601999999ADDGA1021+004509999GF102991999999999999999999MA1100951999999MW1001REMMET045SKBQ 200700Z 07013KT 9999 FEW015 27/26 A2981;EQDQ01+000000PRSWM2
0165800280999992000082320004+10890-074770FM-15+0010SKBQ V0200201N006212200019N0112651N1+03101+02701999999ADDGA1021+004509029GA2021+060009999GF104991999999999999999999MA1100611999999MW1001REMMET055SKBQ 232000Z 02012KT 9999 FEW015TCU SCT200 31/27 A2971;EQDQ01+000000PRSWM2
0139800280999992000082408004+10890-074770FM-15+0010SKBQ V0203501N005110036019N0112651N1+02701+02601999999ADDGA1071+003609999GF107991999999999999999999MA1100751999999MW1001REMMET045SKBQ 240800Z 35010KT 9999 BKN012 27/26 A2975;EQDQ01+000000PRSWM2
0162800280999992000082807004+10890-074770FM-15+0010SKBQ V0201201N002112200019N0112651N1+02701+02601999999ADDGA1021+004509999GA2021+024009999GF104991999999999999999999MA1100781999999MW1001REMMET052SKBQ 280700Z 12004KT 9999 FEW015 SCT080 27/26 A2976;EQDQ01+000000PRSWM2
0308800280999992000082912004+10890-074770SY-MT+0010SKBQ V0201801N002012200019N0020001N1+02521+02411100951ADDAA199000021AY121061AY211061GA1021+001509999GF103991031061001501001001GJ102949IA1099KA1240N+02471MA1100951100791MW1101REMSYN106AAXX  29121 80028 31220 31802 10252 20241 30079 40095 71021 83600 333 20247 31/// 50300 55049 565// 83705;MET048SKBQ 291200Z 18004KT 2000 BR SCT005 25/24 A2981;EQDQ01    003PRSWM1
0158800280999992000082913004+10890-074770FM-15+0010SKBQ V0202701N002110021019N0030001N1+02601+02501999999ADDGA1081+002109999GF108991999999999999999999MA1101021999999MW1051REMMET048SKBQ 291300Z 27004KT 3000 HZ OVC007 26/25 A2983;EQDQ01+000003PRSWM1Q02    003PRSWM1
0139800280999992000090610004+10890-074770FM-15+0010SKBQ V0203401N003110036019N0112651N1+02501+02401999999ADDGA1071+003609999GF107991999999999999999999MA1101151999999MW1001REMMET045SKBQ 061000Z 34006KT 9999 BKN012 25/24 A2987;EQDQ01+000000PRSWM2
0162800280999992000091022004+10890-074770FM-15+0010SKBQ V0209999C000012200019N0112651N1+02601+02501999999ADDGA1021+004509999GA2021+021009999GF104991999999999999999999MA1100881999999MW1001REMMET052SKBQ 102200Z 00000KT 9999 SCT015 SCT070 26/25 A2979;EQDQ01+000000PRSWM2
0192800280999992000091522004+10890-074770FM-15+0010SKBQ V0200201N005110210019N0030001N1+02501+02401999999ADDGA1021+002409099GA2071+021009999GF107991999999999999999999MA1100881999999MW1801MW2951REMMET060SKBQ 152200Z 02010KT 3000 -TSRA SCT008CB BKN070 25/24 A2979;EQDQ01+000003PRSWM1Q02    003PRSWM1
0158800280999992000091610004+10890-074770FM-15+0010SKBQ V0209999C000010015019N0015001N1+02601+02501999999ADDGA1071+001509999GF107991999999999999999999MA1100981999999MW1101REMMET048SKBQ 161000Z 00000KT 1500 BR BKN005 26/25 A2982;EQDQ01+000003PRSWM1Q02    003PRSWM1
0162800280999992000091619004+10890-074770FM-15+0010SKBQ V0202101N003110300019N0112651N1+02901+02701999999ADDGA1021+004509999GA2071+030009999GF107991999999999999999999MA1100951999999MW1001REMMET052SKBQ 161900Z 21006KT 9999 SCT015 BKN100 29/27 A2981;EQDQ01+000000PRSWM2
0191800280999992000092022304+10890-074770FM-15+0010SKBQ V0201701N004610036019N0040001N1+02401+02301999999ADDGA1021+003009099GA2071+003609999GF107991999999999999999999MA1101081999999MW1811MW2951REMMET059SKBQ 202230Z 17009KT 4000 TSRA SCT010CB BKN012 24/23 A2985;EQDQ01+000003PRSWM1Q02    003PRSWM1
0162800280999992000092417004+10890-074770FM-15+0010SKBQ V0201501N003610210019N0112651N1+02501+02301999999ADDGA1021+004509999GA2071+021009999GF107991999999999999999999MA1101021999999MW1001REMMET052SKBQ 241700Z 15007KT 9999 FEW015 BKN070 25/23 A2983;EQDQ01+000000PRSWM2
0159800280999992000092620004+10890-074770FM-15+0010SKBQ V0203501N006710060019N0112651N1+03001+02601999999ADDGA1071+006009999GF107991999999999999999999MA1100981999999MW1511REMMET049SKBQ 262000Z 35013KT 9999 -DZ BKN020 30/26 A2982;EQDQ01+000003PRSWM1Q02    003PRSWM1
0158800280999992000092807004+10890-074770FM-15+0010SKBQ V0209999C000012200019N0050001N1+02401+02301999999ADDGA1021+001509999GF104991999999999999999999MA1101021999999MW1051REMMET048SKBQ 280700Z 00000KT 5000 HZ SCT005 24/23 A2983;EQDQ01+000003PRSWM1Q02    003PRSWM1
0158800280999992000092810004+10890-074770FM-15+0010SKBQ V0209999C000012200019N0040001N1+02401+02301999999ADDGA1021+001509999GF102991999999999999999999MA1100951999999MW1101REMMET048SKBQ 281000Z 00000KT 4000 BR FEW005 24/23 A2981;EQDQ01+000003PRSWM1Q02    003PRSWM1
0139800280999992000100102004+10890-074770FM-15+0010SKBQ V0200401N003612200019N0112651N1+02701+02601999999ADDGA1021+004509999GF104991999999999999999999MA1101221999999MW1001REMMET045SKBQ 010200Z 04007KT 9999 SCT015 27/26 A2989;EQDQ01+000000PRSWM2
0306800280999992000100203004+10890-074770SY-MT+0010SKBQ V0202401N005012200019N0100001N1+02761+02641101261ADDAA199000091AY101031AY201031GA1021+004509999GF102991021051004501001001MA1101251101091MD1999999-0031MW1051REMSYN088AAXX  02031 80028 31460 22405 10276 20264 30109 40126 70500 82500 333 565// 59003 82615;MET045SKBQ 020300Z 24009KT 9999 FEW015 28/26 A2990;EQDQ01+000000PRSWM2Q02  00002PRCP99Q03    003PRSWM1
0183800280999992000100222004+10890-074770FM-15+0010SKBQ V0200901N003110240019N0112651N1+02401+02301999999ADDGA1021+003609099GA2081+024009999GF108991999999999999999999MA1101051999999MW1171REMMET057SKBQ 022200Z 09006KT 9999 TS FEW012CB OVC080 24/23 A2984;EQDQ01+000003PRSWM1Q02    003PRSWM1
0285800280999992000100700004+10890-074770SY-MT+0010SKBQ V0200201N00401220001CN0200001N1+02851+02721100841ADDAA199000091AY101061AY201061GF100991001001999999001001KA1240M+03381MA1100851100671MD1999999+0011MW1051REMSYN076AAXX  07001 80028 31970 00204 10285 20272 30067 40084 70500 333 10338 58001;MET039SKBQ 070000Z 02007KT CAVOK 29/27 A2978;EQDQ01+000000PRSWM2Q02  00002PRCP99Q03    003PRSWM1
0091800280999992000100802004+10890-074770FM-15+0010SKBQ V0200801N00931220001CN0099001N1+02901+02601999999ADDMA1100881999999MW1001REMMET039SKBQ 080200Z 08018KT CAVOK 29/26 A2979;EQDQ01+000000PRSWM2
0183800280999992000101623004+10890-074770FM-15+0010SKBQ V02099999999990210019N0080001N1+02701+02601999999ADDGA1021+003609099GA2071+021009999GF107991999999999999999999MA1100951999999MW1171REMMET057SKBQ 162300Z VRB03KT 8000 TS SCT012CB BKN070 27/26 A2981;EQDQ01+000003PRSWM1Q02    003PRSWM1
0162800280999992000101720004+10890-074770FM-15+0010SKBQ V0200201N004110300019N0112651N1+03001+02601999999ADDGA1021+004509999GA2071+030009999GF107991999999999999999999MA1100811999999MW1001REMMET052SKBQ 172000Z 02008KT 9999 SCT015 BKN100 30/26 A2977;EQDQ01+000000PRSWM2
0290800280999992000101909004+10890-074770SY-MT+0010SKBQ V0209999C000012200019N0100001N1+02461+02431100841ADDAA199000021AY111031AY211031GA1021+004509999GF104991041061004501001001MA1100881100681MD1999999+0001MW1051REMSYN088AAXX  19091 80028 31460 40000 10246 20243 30068 40084 70511 84600 333 569// 58000 84715;MET045SKBQ 190900Z 00000KT 9999 SCT015 25/24 A2979;EQDQ01+000000PRSWM2Q02    003PRSWM1
0139800280999992000102109004+10890-074770FM-15+0010SKBQ V0201401N002112200019N0080001N1+02701+02601999999ADDGA1021+002409999GF104991999999999999999999MA1100781999999MW1001REMMET045SKBQ 210900Z 14004KT 8000 SCT008 27/26 A2976;EQDQ01+000000PRSWM2
0142800280999992000102319004+10890-074770FM-15+0010SKBQ V0200701N005712200019N0112651N1+03001+02601999999ADDGA1021+006009029GF102991999999999999999999MA1100811999999MW1001REMMET048SKBQ 231900Z 07011KT 9999 FEW020TCU 30/26 A2977;EQDQ01+000000PRSWM2
0329800280999992000103018004+10890-074770SY-MT+0010SKBQ V0202801N003019999999N0100001N1+02881+02641100931ADDAA199000091AY121061AY221061GA1021+004509999GA2021+021009999GF107991999999004501999999MA1100911100761MD1999999+0071MW1051REMSYN088AAXX  30181 80028 31460 72803 10288 20264 30076 40093 70522 333 5699/ 58007 83615 84457;MET052SKBQ 301800Z 28005KT 9999 SCT015 SCT070 29/26 A2980;EQDQ01+000000PRSWM2Q02  00002PRCP99Q03    003PRSWM1
0330800280999992000110412004+10890-074770SY-MT+0010SKBQ V0201801N002012200019N0100001N1+02731+02621100981ADDAA124004191AY111061AY211061GA1021+004509029GF103991031021004501001001GJ103489IA1019KA1240N+02401MA1100981100811MW1051REMSYN112AAXX  04121 80028 11460 31802 10273 20262 30081 40098 60044 70511 83200 333 20240 30/// 50270 55058 569// 83815;MET048SKBQ 041200Z VRB03KT 9999 SCT015TCU 27/26 A2982;EQDQ01+000000PRSWM2Q02    003PRSWM1
0266800280999992000110506004+10890-074770SY-MT+0010SKBQ V0209999C000012200019N0200001N1+02461+02351100731ADDAA199000091AY101061AY201061GF100991001001999999001001MA1100751100561MD1999999-0161MW1051REMSYN070AAXX  05061 80028 31970 00000 10246 20235 30056 40073 70500 333 59016;MET039SKBQ 050600Z 00000KT CAVOK 25/24 A2975;EQDQ01+000000PRSWM2Q02  00002PRCP99Q03    003PRSWM1
0139800280999992000110608004+10890-074770FM-15+0010SKBQ V0209999C000012200019N0112651N1+02501+02401999999ADDGA1021+004509999GF104991999999999999999999MA1100781999999MW1001REMMET045SKBQ 060800Z 00000KT 9999 SCT015 25/24 A2976;EQDQ01+000000PRSWM2
0306800280999992000110915004+10890-074770SY-MT+0010SKBQ V0201801N005012200019N0100001N1+02871+02801101071ADDAA199000091AY121031AY221031GA1021+004509999GF104991041051004501001001MA1101081100001MD1999999-0061MW1051REMSYN088AAXX  09151 80028 31460 41805 10287 20280 30000 40107 70522 84500 333 564// 59006 84615;MET045SKBQ 091500Z 18009KT 9999 SCT015 29/28 A2985;EQDQ01+000000PRSWM2Q02  00002PRCP99Q03    003PRSWM1
0138800280999992000111010004+10890-074770FM-15+0010SKBQ V02099999999992200019N0200001N1+02501+02501999999ADDGA1021+004509999GF102991999999999999999999MA1100811999999MW1001REMMET044SKBQ 101000Z 00000K 9999 FEW015 25/25 A2977;EQDQ01+000000PRSWM2
0139800280999992000111416004+10890-074770FM-15+0010SKBQ V0209999C000012200019N0112651N1+02901+02601999999ADDGA1021+004509999GF104991999999999999999999MA1101191999999MW1001REMMET045SKBQ 141600Z 00000KT 9999 SCT015 29/26 A2988;EQDQ01+000000PRSWM2
0306800280999992000112915004+10890-074770SY-MT+0010SKBQ V0201601N002012200019N0100001N1+02981+02721101171ADDAA199000091AY111031AY211031GA1021+004509999GF103991031051004501001001MA1101191101001MD1999999+0131MW1051REMSYN088AAXX  29151 80028 31460 31602 10298 20272 30100 40117 70511 83500 333 569// 58013 83615;MET045SKBQ 291500Z VRB03KT 9999 SCT015 30/27 A2988;EQDQ01+000000PRSWM2Q02  00002PRCP99Q03    003PRSWM1
0266800280999992000120906004+10890-074770SY-MT+0010SKBQ V0200101N002012200019N0200001N1+02601+02561100961ADDAA199000091AY101061AY201061GF100991001001999999001001MA1100951100791MD1999999-0101MW1051REMSYN070AAXX  09061 80028 31970 00102 10260 20256 30079 40096 70500 333 59010;MET039SKBQ 090600Z 01005KT CAVOK 26/268A2981;EQDQ01+000000PRSWM2Q02  00002PRCP99Q03    003PRSWM1
0332800280999992000121015004+10890-074770SY-MT+0010SKBQ V0200201N005012200019N0150001N1+02891+02631999999ADDAA199000091AY101031AY201031GA1021+060009019GF102991021999017501999011MA1101081999999MD1999999-0051MW1051REMSYN088AAXX  10151 80028 31765 20205 10289 20263 31009 40011 70500 82//1 333 56//9 59005 82070;MET039SKBQ 101500Z 02010KT CAVOK 29/27 A2985;EQDQ01+010091APOSP Q02+100113APOSLPQ03+000000PRSWM2Q04  00002PRCP99Q05    003PRSWM1
0091800280999992000121701004+10890-074770FM-15+0010SKBQ V0200401N00361220001CN0099001N1+02601+02501999999ADDMA1101221999999MW1001REMMET039SKBQ 170100Z 04007KT CAVOK 26/25 A2989;EQDQ01+000000PRSWM2
0335800280999992000122918004+10890-074770SY-MT+0010SKBQ V0200601N003010045019N0150001N1+02851+02781101071ADDAA199000091AY121061AY221061GA1071+004509999GA2071+021009999GF108991051051004501021999MA1999999100901MD1999999+0121MW1051REMSYN094AAXX  29181 80028 31465 80603 10285 20278 30090 40107 70522 8552/ 333 5699/ 58012 85615 85457;MET052SKBQ 291800Z 06005KT 9999 BKN015 BKN070 29/28A 2985;EQDQ01+000000PRSWM2Q02  00002PRCP99Q03    003PRSWM1
0159800350999992000010720004+11530-072930FM-12+0004SKRH V0202201N007010063019N9999999N1+00571+00411999999ADDGA1071+006309059GF107991071051008001999999MA1999999101001MD1710061+9999REMSYN076AAXX  07201 80035 425// 72207 10057 20041 30100 57006 875// 333 55300 87621;
0152800360999992000011515004+10430-073250FM-12+013899999V0200601N008012200019N0180001N1+02921+01811999999ADDAA199000091GA1011+006009029GF102991011081008001001021REMSYN068    AAXX  15151 80036 32568 20608 10292 20181 81802 333 560/0 81820;EQDQ01  00002PRCP99
0148800360999992000012321004+10430-073250FM-12+0138SKVP V0200601N007012200019N0180001N1+03241+01991999999ADDAA199000091GA1011+006009029GF101991011011008001001001REMSYN064AAXX  23211 80036 32568 10607 10324 20199 81100 333 560// 81820;EQDQ01  00002PRCP99
0148800360999992000030918004+10430-073250FM-12+0138SKVP V0200701N006012200019N0150001N1+03271+01621999999ADDAA199000091GA1011+006009029GF101991011081008001001001REMSYN064AAXX  09181 80036 32565 10706 10327 20162 81800 333 560// 81820;EQDQ01  00002PRCP99
0183800360999992000032212004+10430-073250FM-12+0138SKVP V0200501N006012200019N0150001N1+02261+01831999999ADDAA199000091GF102991011051004501001081GJ105709IA1019KA1240N+02201REMSYN088AAXX  22121 80036 32465 20506 10226 20183 81508 333 20220 30/// 51020 55095 560/0 81615;EQDQ01  00002PRCP99
0225800360999992000032712004+10430-073250FM-12+0138SKVP V0200601N004010450019N0090001N1+02401+01871999999ADDAA199000091AY121061GA1011+006009089GF106991011081008001071081GJ103309IA1019KA1240N+02361MW1051REMSYN100AAXX  27121 80036 31559 60604 10240 20187 7052/ 81878 333 20236 30/// 51040 55055 56000 81820 83270;EQDQ01  00002PRCP99
0154800360999992000040718004+10430-073250FM-12+0138SKVP V0200901N00801045001CN0150001N1+03341+02081999999ADDAA199000091GA1011+006009089GF107991011081008001071081REMSYN070AAXX  07181 80036 32565 70908 10334 20208 81878 333 56000 81820 85270;EQDQ01  00002PRCP99
0157800360999992000042321004+10430-073250FM-12+0138SKVP V0200601N004010450019N0080001N1+03381+02231999999ADDAA199000021AY121031AY221031GA1041+004509029GF107991041081004501061001MW1611REMSYN070AAXX  23211 80036 31458 70604 10338 20223 76122 84860 333 5600/ 84815;
0154800360999992000042518004+10430-073250FM-12+0138SKVP V0200801N00401105001CN0120001N1+03261+02271999999ADDAA199000091GA1021+006009089GF106991021081008001001081REMSYN070AAXX  25181 80036 32562 60804 10326 20227 82808 333 560/0 82820 84270;EQDQ01  00002PRCP99
0192800360999992000051815004+10430-073250FM-12+0138SKVP V0200701N005012200019N0090001N1+03061+02291999999ADDAA199000091AY101031AY201031GA1031+060009089GF103991999001999999001081MW1051REMSYN070AAXX  18151 80036 32959 30705 10306 20229 70500 80008 333 56//0 83270;EQDQ01+000002SCOTLCQ02  00002PRCP99
0154800360999992000053121004+10430-073250FM-12+0138SKVP V0209999C00001045001CN0150001N1+03101+02371999999ADDAA199000091GA1021+006009089GF105991021081008001071001REMSYN070AAXX  31211 80036 32565 50000 10310 20237 82870 333 5600/ 82820 83358;EQDQ01  00002PRCP99
0192800360999992000101312004+10420-073250FM-12+0138SKVP V0202301N004010450019N0100001N1+02301+02201999999ADDAA124013091GA1021+002109069GF107991021051002501031081GJ104869IA1099KA1240N+02201REMSYN100AAXX  13121 80036 12360 72304 10230 20220 60134 82538 333 20220 31/// 50910 55081 56900 82607 83358;
0148800360999992000112415004+10420-073250FM-12+0138SKVP V0200601N004012200019N0180001N1+03001+02291999999ADDAA199000091GA1011+030009079GF101991011001008001031001REMSYN064AAXX  24151 80036 32568 10604 10300 20229 81030 333 56/0/ 81360;EQDQ01  00002PRCP99
0205800360999992000122012004+10420-073250FM-12+0138SKVP V0200601N004012200019N0120001N1+02161+01981999999ADDAA199000091GA1011+006009089GF104991011081008001031021GJ105709IA1019KA1240N+02161REMSYN094AAXX  20121 80036 32562 40604 10216 20198 81832 333 20216 30/// 50680 55095 56000 81820 83358;EQDQ01  00002PRCP99
0176800630999992000010718004+08820-075850FM-12+0026SKMR V0209999C000012200019N0150001N1+03151+02301999999ADDAA106000091AY121061AY221061GA1041+004509059GF104991041041004501001001MW1051REMSYN070AAXX  07181 80063 31465 40000 10315 20230 70522 84400 333 560// 84615;EQDQ01  00002PRCP06
0218800630999992000021112004+08820-075850FM-12+0026SKMR V0209999C000012200019N0090001N1+02321+02251999999ADDAA199000091AY111061GA1021+004509059GF102991021061004501011001IA1019KA1240M+03371KA2240N+02201MW1051REMSYN088AAXX  11121 80063 31459 20000 10232 20225 7051/ 82610 333 10337 20220 30/// 5600/ 82615;EQDQ01  00002PRCP99
0224800630999992000071212004+08820-075850FM-12+0026SKMR V0209999C00001045001CN0020001N1+02521+02441999999ADDAA199000091AY141061GA1021+003009069GF106991021061004501011001IA1019KA1240M+03491KA2240N+02351MW1101REMSYN094AAXX  12121 80063 31420 60000 10252 20244 7104/ 82610 333 10349 20235 30/// 5600/ 82610 84458;EQDQ01  00002PRCP99
0211800630999992000101012004+08820-075850FM-12+0026SKMR V0209999C00001045001CN0120001N1+02321+02231999999ADDAA112027091AY121061GA1031+005409069GF106991031041004501011001IA1119KA1240M+03261KA2240N+02241MW1051REMSYN100AAXX  10121 80063 21462 60000 10232 20223 7052/ 83410 333 10326 20224 32/// 5600/ 60272 83618 83460;
0176800630999992000101918004+08820-075850FM-12+0026SKMR V0209999C000012200019N0180001N1+03201+02421999999ADDAA199000091AY121061AY221061GA1041+005109029GF104991041011004501001001MW1051REMSYN070AAXX  19181 80063 31468 40000 10320 20242 70522 84100 333 560// 84817;EQDQ01  00002PRCP99
0240800840999992000032612004+07800-076700FM-12+0030SKLC V0209999C000010060019N0150001N1+02261+02111999999ADDAA199000091AY101061AY201061GA1061+006009059GF106991061051008001001001GJ101929IA1019KA1240M+03001KA2240N+02181MW1051REMSYN094AAXX  26121 80084 31565 60000 10226 20211 70500 86500 333 10300 20218 30/// 55032 560// 86620;EQDQ01  00002PRCP99
0182800840999992000040715004+07800-076700FM-12+0030SKLC V0200301N004010450019N0150001N1+02831+02471999999ADDAA199000091AY121031AY221031GA1031+006009089GF106991031081008001031001MW1051REMSYN076AAXX  07151 80084 31565 60304 10283 20247 70522 83830 333 5600/ 83820 80360;EQDQ01  00002PRCP99
0176800840999992000041515004+07800-076700FM-12+0030SKLC V0209999C000010060019N0150001N1+02821+02471999999ADDAA199000091AY101031AY201031GA1051+006009029GF105991051081008001001001MW1051REMSYN070AAXX  15151 80084 31565 50000 10282 20247 70500 85800 333 560// 85820;EQDQ01  00002PRCP99
0152800840999992000051821004+07800-076700FM-12+0030SKLC V0202401N003010051019N0005001N1+02901+02501999999ADDAY121031AY221031GA1051+005109089GF106991051081004501051001MW1051REMSYN076AAXX  18211 80084 41405 62403 10290 20250 70522 85850 333 5600/ 85817 81358;
0214800840999992000061412004+07800-076690FM-12+0030SKLC V0209999C00001220001CN0150001N1+02461+02381999999ADDAA124000191AY121061AY221061GA1021+006009089GF105991021081008001001011GJ103309IA1099KA1240N+02351MW1051REMSYN100AAXX  14121 80084 /1565 50000 10246 20238 69924 70522 82801 333 20235 31/// 55055 560/0 82820 83070;
0194800840999992000080618004+07800-076690FM-12+0030SKLC V0209999C00001045001CN0140001N1+03001+02621999999ADDAA199000091AY121061AY221061GA1031+004509069GF108991031081004501051999IA1119MW1051REMSYN082AAXX  06181 80084 31464 80000 10300 20262 70522 8385/ 333 32/// 5609/ 83615 85358;EQDQ01  00002PRCP99
0152800840999992000081315004+07800-076690FM-12+0030SKLC V0201801N004010051019N0100001N1+02681+02571999999ADDAY151031AY221031GA1051+005109069GF108991051081004501999071MW1051REMSYN076AAXX  13151 80084 41460 81804 10268 20257 70552 858/7 333 56899 85617 88270;
0182800840999992000101215004+07800-076690FM-12+0030SKLC V0201901N00301045001CN0100001N1+02721+02501999999ADDAA199000091AY121031AY221031GA1041+003609069GF108991041051002501051011MW1051REMSYN076AAXX  12151 80084 31360 81903 10272 20250 70522 84551 333 56299 84612 87357;EQDQ01  00002PRCP99
0146800840999992000120521004+07800-076690FM-12+0030SKLC V0209999C000012200019N0150001N1+02971+02441999999ADDAY121031AY221031GA1031+006009029GF104991031021008001001011MW1051REMSYN070AAXX  05211 80084 41565 40000 10297 20244 70522 83201 333 560/9 83820;
0176800910999992000010218004+07020-073800FM-12+0134SKEJ V0202601N002011050019N0150001N1+03081+02131999999ADDAA106000091AY121061AY221061GA1041+004509029GF105991041011004501001021MW1051REMSYN070AAXX  02181 80091 31465 52602 10308 20213 70522 84102 333 5699/ 84815;EQDQ01  00002PRCP06
0182800910999992000011221004+07020-073800FM-12+0134SKEJ V0209999C000012200019N0180001N1+03221+02001999999ADDAA106000091AY111031AY201031GA1011+004509089GF104991011011004501001011MW1051REMSYN076AAXX  12211 80091 31468 40000 10322 20200 70510 81101 333 560/0 81815 83070;EQDQ01  00002PRCP06
0182800910999992000020718004+07020-073800FM-12+0134SKEJ V0209999C00001220001CN0150001N1+03151+02321999999ADDAA199000091AY121061AY221061GA1031+004509089GF106991031011004501001011MW1051REMSYN076AAXX  07181 80091 31465 60000 10315 20232 70522 83101 333 560/0 83815 83070;EQDQ01  00002PRCP99
0226800910999992000030812004+07020-073800FM-12+0134SKEJ V0209999C000010090019N0120001N1+02341+02231999999ADDAA103012091AA224013091AY151061GF108991999081004501011051GJ102589IA1099KA1240N+02281MW1051REMSYN106AAXX  08121 80091 /1462 80000 10234 20223 60134 7055/ 88815 333 20228 31/// 50570 55043 560// 60127 88815;EQDQ01+000082SCOTLC
0182800910999992000033121004+07020-073800FM-12+0134SKEJ V0209999C00001220001CN0080001N1+03221+02351999999ADDAA199000091AY121031AY221031GA1021+004509089GF105991021011004501001011MW1051REMSYN076AAXX  31211 80091 31458 50000 10322 20235 70522 82101 333 560/0 82815 83070;EQDQ01  00002PRCP99
0225800910999992000060612004+07020-073800FM-12+0134SKEJ V0209999C000012200019N0150001N1+02401+02221999999ADDAA199000091AY121061GA1041+004509089GF108991041011004501001011GJ103729IA1019KA1240N+02371MW1051REMSYN100AAXX  06121 80091 31465 80000 10240 20222 7052/ 84101 333 20237 30/// 50480 55062 569/9 84815 84070;EQDQ01  00002PRCP99
0182800910999992000070615004+07190-073800FM-12+0134SKEJ V0209999C00001105001CN0180001N1+02521+02331999999ADDAA199000091AY121031AY221031GA1011+006909089GF107991011011008001001081MW1051REMSYN076AAXX  06151 80091 31568 70000 10252 20233 70522 81108 333 569/9 81823 86270;EQDQ01  00002PRCP99
0182800910999992000072721004+07010-073800FM-12+0134SKEJ V0209999C00001220001CN0180001N1+03001+02371999999ADDAA199000091AY121031AY221031GA1011+005109089GF107991011011004501001011MW1051REMSYN076AAXX  27211 80091 31468 70000 10300 20237 70522 81101 333 569/9 81817 86070;EQDQ01  00002PRCP99
0204800910999992000091112004+07010-073800FM-12+0134SKEJ V0209999C000010051019N0150001N1+02341+02311999999ADDAA103000191AY121061GA1051+005109069GF107991051061008001071001IA1099KA1240N+02271MW1051REMSYN106AAXX  11121 80091 /1565 70000 10234 20231 69984 7052/ 85670 333 20227 31/// 50310 5699/ 69917 85617 83460;
0176800910999992000101118004+07010-073800FM-12+0134SKEJ V0203601N002012200019N0150001N1+03241+02461999999ADDAA199000091AY121061AY221061GA1041+005109029GF105991041011008001001011MW1051REMSYN070AAXX  11181 80091 31565 53602 10324 20246 70522 84101 333 569/9 84817;EQDQ01  00002PRCP99
0207800910999992000103112004+07010-073800FM-12+0134SKEJ V0209999C000010090019N0060001N1+02351+02351999999ADDAA106013091AA224013091AY151061GF108991061081004501071021GJ103969IA1119KA1240N+02281MW1051REMSYN106AAXX  31121 80091 /1456 80000 10235 20235 60134 7055/ 86872 333 20228 32/// 50440 55066 56999 60131 86815;
0169800910999992000103118004+07010-073800FM-12+0134SKEJ V0209999C00001105001CN0150001N1+02841+02431999999ADDAA106000791AY121061AY221061GA1021+005109089GF106991021011004501001021MW1051REMSYN082AAXX  31181 80091 31465 60000 10284 20243 69901 70522 82102 333 569/9 82817 84070;
0176800910999992000110315004+07010-073800FM-12+0134SKEJ V0209999C000010039019N0120001N1+02501+02331999999ADDAA199000091AY121031AY221031GA1081+003909059GF108991081051004501999999MW1051REMSYN070AAXX  03151 80091 31462 80000 10250 20233 70522 885// 333 569// 88613;EQDQ01  00002PRCP99
0163800910999992000122618004+07010-073800FM-12+0134SKEJ V0209999C000012200019N0180001N1+03101+02371999999ADDAA199000021AY121061AY211061GA1031+005109029GF104991031021004501001011MW1051REMSYN076AAXX  26181 80091 31468 40000 10310 20237 70521 83201 333 569/9 57892 83817;
0246800940999992000010212004+07100-073200FM-12+1189SKBG V0209999C000010450019N0140001N1+01841+01711999999ADDAA106000091AY121061GA1021+004509089GF107991021081004501031051GJ104929IA1019KA1240N+01821MA1999999088141MW1031REMSYN106AAXX  02121 80094 31464 70000 10184 20171 38814 7032/ 82835 333 20182 30/// 50490 55082 56000 82815 85360;EQDQ01  00002PRCP06
0139800940999992000010711004+07100-073200FM-15+1189SKBG V0209999C000012200019N0112651N1+01701+01701999999ADDGA1021+006009999GF102991999999999999999999MA1101591999999MW1001REMMET045SKBG 071100Z 00000KT 9999 FEW020 17/17 A3000;EQDQ01+000000PRSWM2
0160800940999992000020822004+07100-073200FM-15+1189SKBG V0203201N006212200019N0112651N1+02401+01901999999ADDGA1021+006009999GA2021+024009999GF104991999999999999999999MA1101491999999MW1001REMMET050SKBG 2200Z 32012KT 9999 FEW020 SCT080 24/19 A2997;EQDQ01+000000PRSWM2
0139800940999992000021320004+07100-073200FM-15+1189SKBG V0203101N006210051019N0112651N1+02401+02001999999ADDGA1071+005109999GF107991999999999999999999MA1101461999999MW1001REMMET045SKBG 132000Z 31012KT 9999 BKN017 24/20 A2996;EQDQ01+000000PRSWM2
0137800940999992000021604004+07100-073200FM-15+1189SKBG V0203101N002112200019N0112651N1+02001+01701999999ADDGA1021+005109999GF102991999999999999999999MA1101761999999MW1001REMMET043SKBG 0400Z 31004KT 9999 FEW017 20/17 A3005;EQDQ01+000000PRSWM2
0308800940999992000021812004+07100-073200SY-MT+1189SKBG V0209999C000012200019N0080001N1+01821+01751999999ADDAA199000091AY101061GF102991011011008001001011GJ103009IA1019KA1240N+01701MA1101691088281MW1051REMSYN100AAXX  18121 80094 31558 20000 10182 20175 38828 7050/ 81101 333 20170 30/// 50460 55050 560/0 81820;MET046SKBG 181200Z 00000KT 8000 FFEW020 18/18 A3003;EQDQ01+000000PRSWM2Q02  00002PRCP99Q03    003PRSWM1
0160800940999992000030619004+07100-073200FM-15+1189SKBG V0203201N004112200019N0112651N1+02401+01901999999ADDGA1021+006009999GA2021+030009999GF104991999999999999999999MA1101461999999MW1001REMMET050SKBG 1900Z 32008KT 9999 SCT020 SCT100 24/19 A2996;EQDQ01+000000PRSWM2
0309800940999992000030815004+07100-073200SY-MT+1189SKBG V0209999C000010039019N0100001N1+02101+01881999999ADDAA199000091AY141031AY221031GA1071+003909029GF107991061021004501031001MA1101761088311MD1999999-0081MW1051REMSYN088AAXX  08151 80094 31460 70000 10210 20188 38831 70542 86230 333 5600/ 57894 59008 86813;MET048SKBG 081500Z 00000KT 9999 BKN013TCU 21/19 A3005;EQDQ01+000000PRSWM2Q02  00002PRCP99Q03    003PRSWM1
0137800940999992000032816004+07100-073200FM-15+1189SKBG V0203101N003110051019N0112651N1+02301+01801999999ADDGA1071+005109999GF107991999999999999999999MA1101561999999MW1001REMMET043SKBG 1600Z 31006KT 9999 BKN017 23/18 A2999;EQDQ01+000000PRSWM2
0162800940999992000033023004+07100-073200FM-15+1189SKBG V0203201N004112200019N0112651N1+02101+01901999999ADDGA1021+005109999GA2021+030009999GF104991999999999999999999MA1101321999999MW1001REMMET052SKBG 302300Z 32008KT 9999 FEW017 SCT100 21/19 A2992;EQDQ01+000000PRSWM2
0160800940999992000040304004+07100-073200FM-15+1189SKBG V0209999C000010300019N0112651N1+02101+01801999999ADDGA1021+004509999GA2071+030009999GF107991999999999999999999MA1101631999999MW1001REMMET050SKBG 0400Z 00000KT 9999 FEW015 BKN100 21/18 A3001;EQDQ01+000000PRSWM2
0138800940999992000040319004+07100-073200FM-15+1189SKBG V0203301N007210051019N0112651N1+02401+01901999999ADDGA1071+005109999GF107991999999999999999999MA1101421999999MW1001REMMET044SKBG 031900 33014KT 9999 BKN017 24/19 A2995;EQDQ01+000000PRSWM2
0299800940999992000041415004+07100-073200SY-MT+1189SKBG V0209999C000010450019N0120001N1+02261+01851999999ADDAA199000091AY121031AY221031GA1021+005109999GF106991041011004501031011MA1101761088391MD1999999+0011MW1051REMSYN082AAXX  14151 80094 31462 60000 10226 20185 38839 70522 84131 333 56000 58001 84817;MET044SKBG 141500 00000KT 9999 SCT017 23/19 A3005;EQDQ01+000000PRSWM2Q02  00002PRCP99Q03    003PRSWM1
0152800940999992000042522004+07100-073200FM-15+1189SKBG V0203201N00511220001CN0112651N1+02201+02001999999ADDGA1071+005109999GA2021+030009999MA1101321999999MW1001REMMET052SKBG 252200Z 32010KT 9999 BKN017 SCT100 22/20 A2992;EQDQ01+000042SCOTCVQ02+000000PRSWM2
0196800940999992000042802004+07100-073200FM-15+1189SKBG V0209999C00001220001CN0112651N1+02201+02101999999ADDGA1071+004509999GA2021+006009099GA3021+030009999MA1101521999999MW1171REMMET064SKBG 280200Z 00000KT 9999 TS BKN015 FEW020CB SCT100 22/21 A2998;EQDQ01+000042SCOTCVQ02+000003PRSWM1Q03    003PRSWM1
0165800940999992000050120004+07100-073200FM-15+1189SKBG V0203101N006212200019N0112651N1+02501+02001999999ADDGA1021+005109999GA2021+006009029GF102991999999999999999999MA1101391999999MW1001REMMET055SKBG 012000Z 31012KT 9999 SCT017 FEW020TCU 25/20 A2994;EQDQ01+000000PRSWM2
0161800940999992000051513004+07100-073200FM-15+1189SKBG V0209999C000010300019N0112651N1+02001+01801999999ADDGA1021+006009999GA2071+030009999GF107991999999999999999999MA1101731999999MW1001REMMET051SKBG 151300 00000KT 9999 FEW020 BKN100 20/18 A3004;EQDQ01+000000PRSWM2
0236800940999992000051800004+07100-073200FM-12+1189SKBG V0203401N00301045001CN0140001N1+02101+01971999999ADDAA199000091GA1011+003009069GA2031+004509089GF107991041081004501031011KA1240M+02511MA1999999088141MD1999999-0181REMSYN094AAXX  18001 80094 32464 73403 10210 20197 38814 84831 333 10251 56800 59018 81610 83815 83360;EQDQ01  00002PRCP99
0139800940999992000051816004+07100-073200FM-15+1189SKBG V0209999C000010045019N0112651N1+02401+02001999999ADDGA1071+004509999GF107991999999999999999999MA1101761999999MW1001REMMET045SKBG 181600Z 00000KT 9999 BKN015 24/20 A3005;EQDQ01+000000PRSWM2
0236800940999992000051900004+07100-073200FM-12+1189SKBG V0203201N004010450019N0040001N1+02141+02131999999ADDAA199000091AY121061AY221061GA1041+002709069GF105991041071002501031001KA1240M+02531MA1999999088171MD1999999+0031MW1401REMSYN088AAXX  19001 80094 31340 53204 10214 20213 38817 74022 84730 333 10253 5680/ 58003 84709;EQDQ01  00002PRCP99
0162800940999992000051917004+07100-073200FM-15+1189SKBG V0203201N006210600019N0112651N1+02301+02001999999ADDGA1021+005109999GA2071+060009999GF107991999999999999999999MA1101801999999MW1001REMMET052SKBG 191700Z 32012KT 9999 SCT017 BKN200 23/20 A3006;EQDQ01+000000PRSWM2
0217800940999992000051921004+07100-073200FM-12+1189SKBG V0203201N004010051019N0140001N1+02271+01981999999ADDAA199000091AY121031AY221031GA1051+005109029GF108991051081004501031051MA1999999088101MD1999999-0011MW1051REMSYN082AAXX  19211 80094 31464 83204 10227 20198 38810 70522 85835 333 56000 59001 85817;EQDQ01  00002PRCP99
0308800940999992000052803004+07100-073200SY-MT+1189SKBG V0203301N00301045001CN0080001N1+02141+01961999999ADDAA199000021AY121031AY221031GA1021+002109999GA2021+030009999GF107991041071002501071001MA1101491088081MD1999999-0111MW1111MW2121REMSYN088AAXX  28031 80094 31358 73303 10214 20196 38808 71122 84770 333 5680/ 59011 84707 83360;MET057SKBG 280300Z 33006KT 8000 MIFG SCT007 SCT100 21/20 A2997;EQDQ01    003PRSWM1
0362800940999992000053112004+07100-073200SY-MT+1189SKBG V0209999C00001030001CN0012001N1+01861+01851999999ADDAA112000391AA224000391AY121061AY221061GA1021+002409999GA2071+030009999GF108991031071002501051999GJ101689IA1019KA1240N+01861MA1101731088301MW1411REMSYN118AAXX  31121 80094 /1312 80000 10186 20185 38830 69934 74122 8375/ 333 20186 30/// 50360 55028 5600/ 69932 83708 86360;MET063SKBG 311200Z 00000KT 1200N 9999 BCFG SCT008 BKN100 19/19 A3004;EQDQ01    003PRSWM1
0291800940999992000060218004+07100-073200SY-MT+1189SKBG V0203301N00501220001CN0200001N1+02431+01881999999ADDAA199000091GA1071+005109999GA2021+060009999GF106991051011004501001011MA1101691088271MD1999999+0021MW1001REMSYN082AAXX  02181 80094 32470 63305 10243 20188 38827 85101 333 567/0 58002 85817 83070;MET052SKBG 021800Z 33010KT 9999 BKN017 SCT200 24/19 A3003;EQDQ01+000000PRSWM2Q02  00002PRCP99
0195800940999992000060221004+07100-073200FM-12+1189SKBG V0203401N00601045001CN0200001N1+02351+01971999999ADDAA199000091GA1041+005109089GF107991041081004501031011MA1999999088061MD1999999+0021REMSYN082AAXX  02211 80094 32470 73406 10235 20197 38806 84831 333 56799 58002 84817 85070;EQDQ01  00002PRCP99
0161800940999992000060416004+07100-073200FM-15+1189SKBG V0203201N004110600019N0112651N1+02301+01901999999ADDGA1021+005109999GA2071+060009999GF107991999999999999999999MA1101801999999MW1001REMMET051SKBG 041600 32008KT 9999 SCT017 BKN200 23/19 A3006;EQDQ01+000000PRSWM2
0165800940999992000060717004+07100-073200FM-15+1189SKBG V0203401N004110600019N0112651N1+02301+01901999999ADDGA1021+006009029GA2071+060009999GF107991999999999999999999MA1101761999999MW1001REMMET055SKBG 071700Z 34008KT 9999 SCT020TCU BKN200 23/19 A3005;EQDQ01+000000PRSWM2
0139800940999992000061116004+07100-073200FM-15+1189SKBG V0201101N003112200019N0112651N1+02501+01801999999ADDGA1021+006009999GF102991999999999999999999MA1101591999999MW1001REMMET045SKBG 111600Z 11006KT 9999 FEW020 25/18 A3000;EQDQ01+000000PRSWM2
0139800940999992000061317004+07100-073200FM-15+1189SKBG V0203201N003110051019N0112651N1+02401+02001999999ADDGA1071+005109999GF107991999999999999999999MA1101661999999MW1001REMMET045SKBG 131700Z 32006KT 9999 BKN017 24/20 A3002;EQDQ01+000000PRSWM2
0139800940999992000061617004+07100-073190FM-15+1189SKBG V0203201N004110051019N0112651N1+02401+02001999999ADDGA1071+005109999GF107991999999999999999999MA1101521999999MW1001REMMET045SKBG 161700Z 32008KT 9999 BKN017 24/20 A2998;EQDQ01+000000PRSWM2
0223800940999992000070103004+07100-073190FM-12+1189SKBG V0209999C00001045001CN0140001N1+02141+02131999999ADDAA199000091AY191031AY221031GA1021+005109089GF106991021081004501031001MA1999999088141MD1999999-0031MW1021REMSYN088AAXX  01031 80094 31464 60000 10214 20213 38814 70292 82830 333 5600/ 59003 82817 84360;EQDQ01  00002PRCP99
0183800940999992000070313004+07100-073190FM-15+1189SKBG V0209999C000012200019N0020001N1+02001+02001999999ADDGA1021+002409999GA2021+030009999GF104991999999999999999999MA1101631999999MW1411REMMET057SKBG 031300 00000KT 2000S BCFG SCT008 SCT100 20/20 A3001;EQDQ01+000003PRSWM1Q02    003PRSWM1
0173800940999992000070619004+07100-073190FM-15+1189SKBG V0203201N00511220001CN0112651N1+02401+02001999999ADDGA1071+005109999GA2021+030009999MA1101391999999MW1161REMMET057SKBG 061900Z 32010KT 9999 VCSH BKN017 SCT100 24/20 A2994;EQDQ01+000042SCOTCVQ02+000003PRSWM1Q03    003PRSWM1
0262800940999992000070718004+07100-073190SY-MT+1189SKBG V0203201N005012200019N0200001N1+02421+01931999999ADDAA199000091GA1021+006009999GF104991041011008001001001MA1101421088041MD1999999+0031MW1001REMSYN076AAXX  07181 80094 32570 43205 10242 20193 38804 84100 333 560// 58003 84820;MET045SKBG 071800Z 32010KT 9999 SCT020 24/19 A2995;EQDQ01+000000PRSWM2Q02  00002PRCP99
0215800940999992000071123004+07100-073190FM-15+1189SKBG V0203601N002110270019N0040001N1+02201+02101999999ADDGA1021+003009999GA2021+004509099GA3071+027009999GF107991999999999999999999MA1101391999999MW1811MW2951REMMET067SKBG 112300Z 36004KT 4000N TSRA SCT010 FEW015CB BKN090 22/21 A2994;EQDQ01+000003PRSWM1Q02    003PRSWM1
0315800940999992000071200004+07100-073190SY-MT+1189SKBG V0203301N003012200019N0080001N1+02051+01871999999ADDAA103002091AY191061AY261061GA1021+003609999GF106991041081004501071011KA1240M+02671MA1101461088031MD1999999+0111MW1121MW2291REMSYN100AAXX  12001 80094 /1458 63303 10205 20187 38803 60022 72996 84871 333 10267 56799 58011 60027 84812;MET055SKBG 120000Z 33006KT 8000 MIFG SCT012 21/19 A2996 RETS;EQDQ01    003PRSWM1
0162800940999992000071922004+07100-073190FM-15+1189SKBG V0209999C000012200019N0112651N1+02201+01901999999ADDGA1021+005109999GA2021+030009999GF104991999999999999999999MA1101491999999MW1001REMMET052SKBG 192200Z 00000KT 9999 SCT017 SCT100 22/19 A2997;EQDQ01+000000PRSWM2
0162800940999992000072411004+07100-073190FM-15+1189SKBG V0209999C000012200019N0112651N1+01901+01601999999ADDGA1021+005109999GA2021+060009999GF104991999999999999999999MA1101561999999MW1001REMMET052SKBG 241100Z 00000KT 9999 FEW017 SCT200 19/16 A2999;EQDQ01+000000PRSWM2
0164800940999992000072701004+07100-073190FM-15+1189SKBG V0209999C000012200019N0112651N1+01901+01801999999ADDGA1021+004509099GA2021+030009999GF104991999999999999999999MA1101561999999MW1001REMMET054SKBG 270100Z 00000KT 9999 FEW015CB SCT100 19/18 A2999;EQDQ01+000000PRSWM2
