0378722230138942000081603003+30683-088250FM-15+0066MOB  V0202605N00215220005MN0160005N1+02675+02395102115ADDAA101000095GF100991999999999999999999GP10060000002000000002000000002000GR100600000900009MA1102175999999MD1310131+9999MW1001REMMET073KMOB 160256Z 26004KT 10SM CLR 27/24 A3017 RMK AO2 SLP211 T02670239 53013;EQDQ01+000000PRSWM2N01 00000JPWTH 0QNNAA1D0 00000BA1 0 00000GA1U0 99999KA1D0 00075JA1 0 00239LA1 0 01000CA1 0 03017NA1 0 00000QA1 0 10211SA1D0 00080RA1 0 00267YA1 0 26004
0358722230138942000082611003+30683-088250FM-15+0066MOB  V0202905N00215220005MN0160005N1+02335+02115101515ADDAA101000095GF100991999999999999999999GP10060000002000000002000000002000GR100600000900009MA1101565999999MW1001REMMET067KMOB 261056Z 29004KT 10SM CLR 23/21 A2999 RMK AO2 SLP151 T02330211;EQDQ01+000000PRSWM2N01 00000JPWTH 0QNNAA1D0 00000BA1 0 00000GA1U0 99999KA1D0 00070JA1 0 00211LA1 0 01000CA1 0 02999NA1 0 00000QA1 0 10151SA1D0 00074RA1 0 00233YA1 0 29004
0384722230138942000082622003+30683-088250FM-15+0066MOB  V0202205N00415220005MN0160005N1+03335+02065101245ADDAA101000095GF100991999999999999999999GP10060037802008021202015025302008GQ100600539925959GR100600786913389MA1101295999999MW1001REMMET076KMOB 262156Z 22008KT 10SM CLR 33/21 A2991 RMK AO2 TSB00E38 SLP124 T03330206;EQDQ01+000000PRSWM2N01 00000JPWTH 0QNNAA1D0 00000BA1 0 00000GA1U0 99999KA1D0 00069JA1 0 00206LA1 0 01000CA1 0 02991NA1 0 00000QA1 0 10124SA1D0 00092RA1 0 00333YA1 0 22008
0379722230138942000082901003+30683-088250FM-15+0066MOB  V0202405N00265220005MN0160005N1+03065+02565101365ADDAA101000095GF100991999999999999999999GP10060000002008000002015000002008GQ100600882928009GR100600013904139MA1101395999999MW1001REMMET071KMOB 290056Z 24005KT 10SM CLR 31/26 A2994 RMK AO2 SLP136 T03060256 PNO;EQDQ01+000000PRSWM2N01 00000JPWTH 0QNNAA1D0 00000BA1 0 00000GA1U0 99999KA1D0 00078JA1 0 00256LA1 0 01000CA1 0 02994NA1 0 00000QA1 0 10136SA1D0 00087RA1 0 00306YA1 0 24005
0203722230138942000083023564+30680-088250FM-15+0067KMOB V0201901N003112200019N0160931N1+02901+02201101111ADDGF100991999999999999999999KA1999M+03671KA2999N+02891MA1101151999999MD1110091+9999MW1001REMMET085KMOB 302356Z 19006KT 10SM CLR 29/22 A2987 RMK AO2 SLP111 T02890222 10367 20289 51009;EQDQ01+000000PRSWM2
0329722230138942000090223564+30680-088250FM-15+0067KMOB V0202501N003610150019N0160931N1+02301+02101101081ADDAA101014591AA206014591GD13991+0150019GD23991+0240019GF107991999999999999999999KA1999M+03331KA2999N+02281MA1101121999999MD1110081+9999MW1801MW2951REMMET137KMOB 022356Z 25007KT 10SM -TSRA BKN050 BKN085 23/21 A2986 RMK AO2 RAB08 SLP108 LTG TS VC S MOV S P0057 60057 T02330206 10333 20228 51008;EQDQ01+000003PRSWM1Q02    003PRSWM1
0375722230138942000090316003+30683-088250FM-15+0066MOB  V0200405N00215220005MN0160005N1+03005+02225101145ADDAA101000095GF100991999999999999999999GP10060071102008073902015014902008GQ100600407911809GR100601017913449MA1101195999999MW1001REMMET067KMOB 031556Z 04004KT 10SM CLR 30/22 A2988 RMK AO2 SLP114 T03000222;EQDQ01+000000PRSWM2N01 00000JPWTH 0QNNAA1D0 00000BA1 0 00000GA1U0 99999KA1D0 00072JA1 0 00222LA1 0 01000CA1 0 02988NA1 0 00000QA1 0 10114SA1D0 00086RA1 0 00300YA1 0 04004
0188722230138942000090323034+30680-088250FM-16+0067KMOB V0201701N004112200019N0160931N1+03101+02401999999ADDGD12991+0180019GF104991999999999999999999MA1100951999999MW1171REMMET079KMOB 032303Z 17008KT 10SM TS SCT065 31/24 A2981 RMK AO2 TSB03 TS VC S-SW MOV S;EQDQ01+000003PRSWM1Q02    003PRSWM1
0481722230138942000090400003+30683-088250SY-MT+0066MOB  V0202205N00265220005MN0128005N1+02895+02445100935ADDAA101000095GA1001+999999999GD10995+9999999GF100991001001999999001001GP10060007302008021002015004202008GQ100600815927349GR100600198913449KA1120M+03501KA2180N+02221MA1100985100181MD1310061+9999REMSYN092AAXX  04004 72223 32962 02205 10289 20244 30018 40093 53006 92356 333 10350 20222 555 90400;EQDQ01  00002PRCP99Q02  00003PRCP99N01 00000JPWTH 0QNNAA1D0 00000BA1 0 00000GA1U0 99999KA1D0 00076JA1 0 00244LA1 0 00800CA1 0 02982NA1 0 00000QA1 0 10093SA1D0 00084RA1 0 00289YA1 0 22005
0449722230138942000090613003+30683-088250FM-15+0066MOB  V0200405N00675002745MN0160005N1+02335+02175101295ADDAA101000095GD13995+0027459GD23995+0051859GF107991999999999999999999GP10060010902008012202015008502008GQ100600784908969GR100600269913469MA1101325999999MW1001REMMET089KMOB 061256Z 04013KT 10SM BKN009 BKN017 23/22 A2992 RMK AO2 CIG 006V012 SLP129 T02330217;EQDQ01+000000PRSWM2N01 00000JPWTH 0QNNAA1D0 04009BA1 0 04009AA1D0 04017BA1 0 04017GA1 0 00009KA1D0 00071JA1 0 00217LA1 0 01000CA1 0 02992NA1 0 00000QA1 0 10129SA1D0 00074RA1 0 00233YA1 0 04013
0183722230138942000090820304+30680-088250FM-15+0067KMOB V0209999C000012200019N0160931N1+02501+02301999999ADDAA101000591GD12991+0027019GF104991999999999999999999MA1101661999999MW1611REMMET063KMOB 082030Z 00000KT 10SM -RA SCT009 25/23 A3002 RMK AO2 P0002;EQDQ01+000003PRSWM1Q02    003PRSWM1
0457722230138942000091022003+30683-088250FM-15+0066MOB  V0201605N00625220005MN0160005N1+02895+02445101435ADDAA101000025GD12995+0182959GF104991999999999999999999GP10060044902008053402015016502008GQ100600579925479GR100600715913489MA1101465999999MW1171MW2955REMMET112KMOB 102156Z 16012KT 10SM TS SCT060 29/24 A2996 RMK AO2 TSB49RAB17E29 SLP143 LTG TS VC SE MOV W P0000 T02890244;EQDQ01+000003PRSWM1Q02    003PRSWM1N01 00010JPWTH 0QNNAA1D0 02060BA1 0 02060GA1U0 99999KA1D0 00076JA1 0 00244LA1 0 01000CA1 0 02996NA1 0 00010QA1 0 10143SA1D0 00084RA1 0 00289YA1 0 16012
0190722230138942000091116254+30680-088250FM-15+0067KMOB V0201401N006210180019N0160931N1+03001+02301999999ADDGD12991+0078019GD22991+0147019GD33991+0180019GF107991999999999999999999MA1101731999999MW1001REMMET067KMOB 111625Z 14012KT 10SM SCT026 SCT049 BKN065 30/23 A3004 RMK AO2;EQDQ01+000000PRSWM2
0375722230138942000091513003+30683-088250FM-15+0066MOB  V0203305N00155220005MN0160005N1+02445+02285101335ADDAA101000095GF100991999999999999999999GP10060011702008018602015008302008GQ100600795909309GR100600246913529MA1101355999999MW1001REMMET067KMOB 151256Z 33003KT 10SM CLR 24/23 A2993 RMK AO2 SLP133 T02440228;EQDQ01+000000PRSWM2N01 00000JPWTH 0QNNAA1D0 00000BA1 0 00000GA1U0 99999KA1D0 00073JA1 0 00228LA1 0 01000CA1 0 02993NA1 0 00000QA1 0 10133SA1D0 00076RA1 0 00244YA1 0 33003
0203722230138942000091711564+30680-088250FM-15+0067KMOB V0200301N005112200019N0160931N1+01601+00901101571ADDGF100991999999999999999999KA1999M+01671KA2999N+01441MA1101591999999MD1310151+9999MW1001REMMET085KMOB 171156Z 03010KT 10SM CLR 16/09 A3000 RMK AO2 SLP157 T01560089 10167 20144 53015;EQDQ01+000000PRSWM2
0481722230138942000091718003+30683-088250SY-MT+0066MOB  V0200505N00725220005MN0160005N1+02785+01335101555ADDAA101000095GA1001+999999999GD10995+9999999GF100991001001999999001001GP10060084702008076302015018002008GQ100600293917129GR100601180913549KA1120M+02781KA2240N+01561MA1101595100781MD1810061+9999REMSYN092AAXX  17184 72223 32966 00514 10278 20133 30078 40155 58006 91756 333 10278 20156 555 91718;EQDQ01  00002PRCP99Q02  00003PRCP99N01 00000JPWTH 0QNNAA1D0 00000BA1 0 00000GA1U0 99999KA1D0 00056JA1 0 00133LA1 0 01000CA1 0 03000NA1 0 00000QA1 0 10155SA1D0 00082RA1 0 00278YA1 0 05014
0358722230138942000091804003+30683-088250FM-15+0066MOB  V0200505N00265220005MN0160005N1+01895+01445101665ADDAA101000095GF100991999999999999999999GP10060000002000000002000000002000GR100600000900009MA1101695999999MW1001REMMET067KMOB 180356Z 05005KT 10SM CLR 19/14 A3003 RMK AO2 SLP166 T01890144;EQDQ01+000000PRSWM2N01 00000JPWTH 0QNNAA1D0 00000BA1 0 00000GA1U0 99999KA1D0 00058JA1 0 00144LA1 0 01000CA1 0 03003NA1 0 00000QA1 0 10166SA1D0 00066RA1 0 00189YA1 0 05005
0375722230138942000091817003+30683-088250FM-15+0066MOB  V0209999V00215220005MN0160005N1+02565+01175101735ADDAA101000095GF100991999999999999999999GP10060077302008076602015014002008GQ100600345914479GR100601115913549MA1101765999999MW1001REMMET067KMOB 181656Z VRB04KT 10SM CLR 26/12 A3005 RMK AO2 SLP173 T02560117;EQDQ01+000000PRSWM2N01 00000JPWTH 0QNNAA1D0 00000BA1 0 00000GA1U0 99999KA1D0 00053JA1 0 00117LA1 0 01000CA1 0 03005NA1 0 00000QA1 0 10173SA1D0 00078RA1 0 00256YA1 0 00004
0417722230138942000092114003+30683-088250FM-15+0066MOB  V0200505N00215000305MN0048005N1+02565+02505101405ADDAA101000095GD14995+0003059GF108991999999999999999999GP10060020502008009502015016902008GQ100600676910369GR100600517913579MA1101465999999MW1101MW2455REMMET072KMOB 211356Z 05004KT 3SM BR OVC001 26/25 A2996 RMK AO2 SLP140 T02560250;EQDQ01+000003PRSWM1Q02    003PRSWM1N01 00070JPWTH 0QNNAA1D0 06001BA1 0 06001GA1 0 00001KA1D0 00077JA1 0 00250LA1 0 00300CA1 0 02996NA1 0 00070QA1 0 10140SA1D0 00078RA1 0 00256YA1 0 05004
0158722230138942000092114304+30680-088250FM-15+0067KMOB V0209999999999000901CN0160931N1+02601+02601999999ADDGD13991+0015019GF107991999999999999999999MA1101421999999MW1001REMMET065KMOB 211430Z VRB04KT 10SM BKN005 26/26 A2995 RMK AO2 CIG 003V008;EQDQ01+000000PRSWM2
0168722230138942000092307054+30680-088250FM-16+0067KMOB V0202101N001512200019N0160931N1+02501+02401999999ADDGD12991+0027019GD22991+0270019GF104991999999999999999999MA1101421999999MW1001REMMET060KMOB 230705Z 21003KT 10SM FEW009 SCT090 25/24 A2995 RMK AO2;EQDQ01+000000PRSWM2
0450722230138942000092612003+30683-088250SY-MT+0066MOB  V0200105N00465008535MN0160005N1+01335+00785101845ADDAA101000095AA224000591GD14995+0085359GF108991999999008001999999GP10060000002008000002015000002008GQ100600885909249GR100600008903299KA1999M+03061KA2120N+01331MA1101865101051MD1310211+9999REMSYN098AAXX  26124 72223 32566 80109 10133 20078 30105 40184 53021 91156 333 10306 20133 70005 555 92612;EQDN01 00000JPWTH 0QNNAA1D0 06028BA1 0 06028GA1 0 00028KA1D0 00046JA1 0 00078LA1 0 01000CA1 0 03008NA1 0 00000QA1 0 10184SA1D0 00056RA1 0 00133YA1 0 01009
0203722230138942000092923564+30680-088250FM-15+0067KMOB V0200301N003112200019N0160931N1+02201+01001101721ADDGF100991999999999999999999KA1999M+02781KA2999N+02221MA1101761999999MD1310021+9999MW1001REMMET085KMOB 292356Z 03006KT 10SM CLR 22/10 A3005 RMK AO2 SLP172 T02220100 10278 20222 53002;EQDQ01+000000PRSWM2
0358722230138942000100401003+30683-088250FM-15+0066MOB  V0209999C00005220005MN0160005N1+02225+01675101575ADDAA101000095GF100991999999999999999999GP10060000002000000002000000002000GR100600000900009MA1101595999999MW1001REMMET067KMOB 040056Z 00000KT 10SM CLR 22/17 A3000 RMK AO2 SLP157 T02220167;EQDQ01+000000PRSWM2N01 00000JPWTH 0QNNAA1D0 00000BA1 0 00000GA1U0 99999KA1D0 00062JA1 0 00167LA1 0 01000CA1 0 03000NA1 0 00000QA1 0 10157SA1D0 00072RA1 0 00222YA1 0 00000
0358722230138942000100502003+30683-088250FM-15+0066MOB  V0201805N00155220005MN0160005N1+02285+01895101575ADDAA101000095GF100991999999999999999999GP10060000002000000002000000002000GR100600000900009MA1101595999999MW1001REMMET067KMOB 050156Z 18003KT 10SM CLR 23/19 A3000 RMK AO2 SLP157 T02280189;EQDQ01+000000PRSWM2N01 00000JPWTH 0QNNAA1D0 00000BA1 0 00000GA1U0 99999KA1D0 00066JA1 0 00189LA1 0 01000CA1 0 03000NA1 0 00000QA1 0 10157SA1D0 00073RA1 0 00228YA1 0 18003
0146722230138942000100607044+30680-088250FM-16+0067KMOB V0209999C000012200019N0160931N1+02401+02401999999ADDGD12991+0015019GF104991999999999999999999MA1101561999999MW1001REMMET053KMOB 060704Z 00000KT 10SM SCT005 24/24 A2999 RMK AO2;EQDQ01+000000PRSWM2
0369722230138942000100807003+30683-088250FM-15+0066MOB  V0203605N00825220005MN0160005N1+01115+00065102495ADDAA101000095GF100991999999999999999999GP10060000002000000002000000002000GR100600000900009MA1102515999999MW1001OC101181REMMET070KMOB 080656Z 36016G23KT 10SM CLR 11/01 A3027 RMK AO2 SLP249 T01110006;EQDQ01+000000PRSWM2N01 00000JPWTH 0QNNAA1D0 00000BA1 0 00000GA1U0 99999KA1D0 00033JA1 0 00006LA1 0 01000CA1 0 03027NA1 0 00000QA1 0 10249SA1D0 00052RA1 0 00111YA1 0 36016
0233722230138942000100823564+30680-088250FM-15+0067KMOB V0203601N008712200019N0160931N1+01201-00301102681ADDGD12991+0300019GF102991999999999999999999KA1999M+01611KA2999N+01171MA1102681999999MD1310171+9999MW1001OC101031REMMET092KMOB 082356Z 36017G20KT 10SM FEW100 12/M03 A3032 RMK AO2 SLP268 T01171028 10161 20117 53017;EQDQ01+000000PRSWM2
0180722230138942000101612404+30680-088250FM-16+0067KMOB V0200201N001510003019N0024141N1+01301+01301999999ADDGD13991+0003019GF107991999999999999999999MA1102171999999MW1101REMMET071KMOB 161240Z 02003KT 1/2SM BR BKN001 13/13 A3017 RMK AO2 SFC VIS 1 1/2;EQDQ01+000003PRSWM1Q02    003PRSWM1
0481722230138942000102100003+30683-088250SY-MT+0066MOB  V0202005N00155220005MN0160005N1+02225+01615101955ADDAA101000095GA1001+999999999GD10995+9999999GF100991001001999999001001GP10060000002008000002015000002008GQ100600887925699GR100600008903339KA1120M+02781KA2180N+01501MA1101965101151MD1110031+9999REMSYN092AAXX  21004 72223 32966 02003 10222 20161 30115 40195 51003 92356 333 10278 20150 555 92100;EQDQ01  00002PRCP99Q02  00003PRCP99N01 00000JPWTH 0QNNAA1D0 00000BA1 0 00000GA1U0 99999KA1D0 00061JA1 0 00161LA1 0 01000CA1 0 03011NA1 0 00000QA1 0 10195SA1D0 00072RA1 0 00222YA1 0 20003
0357722230138942000102510003+30683-088250FM-15+0066MOB  V0209999C00005220005MN0144005N1+01565+01065102295ADDAA101000095GF100991999999999999999999GP10060000002000000002000000002000GR100600000900009MA1102345999999MW1001REMMET066KMOB 250956Z 00000KT 9SM CLR 16/11 A3022 RMK AO2 SLP229 T01560106;EQDQ01+000000PRSWM2N01 00000JPWTH 0QNNAA1D0 00000BA1 0 00000GA1U0 99999KA1D0 00051JA1 0 00106LA1 0 00900CA1 0 03022NA1 0 00000QA1 0 10229SA1D0 00060RA1 0 00156YA1 0 00000
0482722230138942000110306003+30683-088250SY-MT+0066MOB  V0209999C00005220005MN0080005N1+01835+01785102025ADDAA101000095GA1001+999999999GD10995+9999999GF100991001001999999001001GP10060000002000000002000000002000GR100600000900009KA1240M+02221KA2240N+01721MA1102075101251MD1610091+9999MW1101MW2455REMSYN098AAXX  03064 72223 31958 00000 10183 20178 30125 40202 56009 710// 90556 333 10222 20172 555 90306;EQDQ01  00002PRCP99Q02  00003PRCP99N01 00070JPWTH 0QNNAA1D0 00000BA1 0 00000GA1U0 99999KA1D0 00064JA1 0 00178LA1 0 00500CA1 0 03014NA1 0 00070QA1 0 10202SA1D0 00065RA1 0 00183YA1 0 00000
0212722230138942000110510164+30680-088250FM-16+0067KMOB V0209999C000010270019N0040231N1+01901+01901999999ADDGD12991+0084019GD22991+0180019GD34991+0270019GF108991999999999999999999MA1101351999999MW1101REMMET073KMOB 051016Z 00000KT 2 1/2SM BR FEW028 SCT060 OVC090 19/19 A2993 RMK AO2;EQDQ01+000003PRSWM1Q02    003PRSWM1
0505722230138942000110519003+30683-088250FM-15+0066MOB  V0200505N00265027435MN0096005N1+02335+02065101155ADDAA101000095GD12995+0024459GD22995+0051859GD33995+0274359GF107991999999999999999999GP10060012402008000002015012402008GQ100600485919729GR100600922913929MA1101195999999MW1055REMMET092KMOB 051856Z 05005KT 6SM HZ SCT008 SCT017 BKN090 23/21 A2988 RMK AO2 SLP115 P0001 T02330206;EQDQ01+000003PRSWM1Q02    003PRSWM1N01 00081JPWTH 0QNNAA1D0 02008BA1 0 02008AA1D0 02017BA1 0 02017AA1D0 04090BA1 0 04090GA1 0 00090KA1D0 00069JA1 0 00206LA1 0 00600CA1 0 02988NA1 0 00081QA1 0 10115SA1D0 00074RA1 0 00233YA1 0 05005
0512722230138942000110817003+30683-088250FM-15+0066MOB  V0201405N00575003665MN0016005N1+02445+02335101035ADDAA101004195GD13995+0036659GD24995+0076259GF108991999999999999999999GP10060009902008000002015009902008GQ100600503915919GR100600891913949MA1101055999999MW1101MW2455MW3655OC101131REMMET116KMOB 081656Z 14011G22KT 1SM +RA BR BKN012 OVC025 24/23 A2984 RMK AO2 PK WND 15028/1631 RAB48 SLP103 P0016 T02440233;EQDQ01+000003PRSWM1Q02    003PRSWM1N01 02270JPWTH 0QNNAA1D0 04012BA1 0 04012AA1D0 06025BA1 0 06025GA1 0 00012KA1D0 00074JA1 0 00233LA1 0 00100CA1 0 02984NA1 0 02270QA1 0 10103SA1D0 00076RA1 0 00244YA1 0 14011
0235722230138942000110912454+30680-088250FM-15+0067KMOB V0202301N003610078019N0096561N1+01901+01801999999ADDAA101002391GD12991+0024019GD23991+0078019GD34991+0180019GF108991999999999999999999MA1100681999999MW1101MW2611REMMET079KMOB 091245Z 23007KT 6SM -RA BR FEW008 BKN026 OVC060 19/18 A2973 RMK AO2 P0009;EQDQ01+000003PRSWM1Q02    003PRSWM1
0203722230138942000111023564+30680-088250FM-15+0067KMOB V0203601N003112200019N0160931N1+01201+00701101781ADDGF100991999999999999999999KA1999M+01721KA2999N+01171MA1101801999999MD1310091+9999MW1001REMMET085KMOB 102356Z 36006KT 10SM CLR 12/07 A3006 RMK AO2 SLP178 T01170072 10172 20117 53009;EQDQ01+000000PRSWM2
0525722230138942000111320003+30683-088250FM-15+0066MOB  V0203605N00415006405MN0028005N1+01225+01175101495ADDAA101005895GD12995+0021359GD23995+0064059GD34995+0079259GF108991999999999999999999GP10060009702008000002015009702008GQ100600560921269GR100600781913979MA1101525999999MW1101MW2455MW3655REMMET100KMOB 131956Z 36008KT 1 3/4SM +RA BR SCT007 BKN021 OVC026 12/12 A2998 RMK AO2 SLP149 P0023 T01220117;EQDQ01+000003PRSWM1Q02    003PRSWM1N01 02270JPWTH 0QNNAA1D0 02007BA1 0 02007AA1D0 04021BA1 0 04021AA1D0 06026BA1 0 06026GA1 0 00021KA1D0 00053JA1 0 00117LA1 0 00175CA1 0 02998NA1 0 02270QA1 0 10149SA1D0 00054RA1 0 00122YA1 0 36008
0464722230138942000111512003+30683-088250SY-MT+0066MOB  V0200305N00215220005MN0160005N1+00225-00065102285ADDAA101000095GA1001+999999999GD10995+9999999GF100991001001999999001001GP10060000002000000002000000002000GR100600000900009KA1999M+01441KA2120N+00171MA1102275101461MD1310041+9999REMSYN092AAXX  15124 72223 32966 00304 10022 21006 30146 40228 53004 91156 333 10144 20017 555 91512;EQDQ01  00002PRCP99Q02  00003PRCP99N01 00000JPWTH 0QNNAA1D0 00000BA1 0 00000GA1U0 99999KA1D0 00031JA1 0-00006LA1 0 01000CA1 0 03020NA1 0 00000QA1 0 10228SA1D0 00036RA1 0 00022YA1 0 03004
0375722230138942000111514003+30683-088250FM-15+0066MOB  V0200505N00465220005MN0160005N1+00615+00005102365ADDAA101000095GF100991999999999999999999GP10060018302008049202015007402008GQ100600772912119GR100600308913999MA1102375999999MW1001REMMET067KMOB 151356Z 05009KT 10SM CLR 06/00 A3023 RMK AO2 SLP236 T00610000;EQDQ01+000000PRSWM2N01 00000JPWTH 0QNNAA1D0 00000BA1 0 00000GA1U0 99999KA1D0 00032JA1 0 00000LA1 0 01000CA1 0 03023NA1 0 00000QA1 0 10236SA1D0 00043RA1 0 00061YA1 0 05009
0391722230138942000111802003+30683-088250FM-15+0066MOB  V0203605N00415033535MN0160005N1+00835+00615102355ADDAA101000025GD14995+0335359GF108991999999999999999999GP10060000002000000002000000002000GR100600000900009MA1102375999999MW1001REMMET085KMOB 180156Z 36008KT 10SM OVC110 08/06 A3023 RMK AO2 RAB08E34 SLP235 P0000 T00830061;EQDQ01+000000PRSWM2N01 00000JPWTH 0QNNAA1D0 06110BA1 0 06110GA1 0 00110KA1D0 00043JA1 0 00061LA1 0 01000CA1 0 03023NA1 0 00000QA1 0 10235SA1D0 00047RA1 0 00083YA1 0 36008
0235722230138942000112416154+30680-088250FM-16+0067KMOB V0201401N007710069019N0032181N1+01901+01701999999ADDGD12991+0009019GD23991+0069019GD34991+0090019GF108991999999999999999999MA1101081999999MW1101MW2651OC101031REMMET082KMOB 241615Z 14015G20KT 2SM +RA BR FEW003 BKN023 OVC030 19/17 A2985 RMK AO2 P0013;EQDQ01+000003PRSWM1Q02    003PRSWM1
0375722230138942000112723003+30683-088250FM-15+0066MOB  V0203205N00365220005MN0160005N1+01505+00395102005ADDAA101000095GF100991999999999999999999GP10060002502008019202015001302008GQ100600855924219GR100600092911839MA1102005999999MW1001REMMET067KMOB 272256Z 32007KT 10SM CLR 15/04 A3012 RMK AO2 SLP200 T01500039;EQDQ01+000000PRSWM2N01 00000JPWTH 0QNNAA1D0 00000BA1 0 00000GA1U0 99999KA1D0 00039JA1 0 00039LA1 0 01000CA1 0 03012NA1 0 00000QA1 0 10200SA1D0 00059RA1 0 00150YA1 0 32007
0376722230138942000120319003+30683-088250FM-15+0066MOB  V0203605N00675220005MN0160005N1+01005-00225102825ADDAA101000095GF100991999999999999999999GP10060057702008078302015011702008GQ100600542919349GR100600823914089MA1102845999999MW1001REMMET068KMOB 031856Z 36013KT 10SM CLR 10/M02 A3037 RMK AO2 SLP282 T01001022;EQDQ01+000000PRSWM2N01 00000JPWTH 0QNNAA1D0 00000BA1 0 00000GA1U0 99999KA1D0 00028JA1 0-00022LA1 0 01000CA1 0 03037NA1 0 00000QA1 0 10282SA1D0 00050RA1 0 00100YA1 0 36013
0204722230138942000120517564+30680-088250FM-15+0067KMOB V0200601N003612200019N0160931N1+01201-00201102741ADDGF100991999999999999999999KA1999M+01221KA2999N-00111MA1102741999999MD1810231+9999MW1001REMMET086KMOB 051756Z 06007KT 10SM CLR 12/M02 A3034 RMK AO2 SLP274 T01171022 10122 21011 58023;EQDQ01+000000PRSWM2
0469722230138942000120813003+30683-088250FM-15+0066MOB  V0200205N00525008235MN0160005N1+01065+00675102005ADDAA101000025GD13995+0082359GD24995+0097559GF108991999999999999999999GP10060000002008000002015000002008GQ100600883911779GR100600014904829MA1102005999999MW1615REMMET093KMOB 081256Z 02010KT 10SM -RA BKN027 OVC032 11/07 A3012 RMK AO2 RAB28 SLP200 P0000 T01060067;EQDQ01+000003PRSWM1Q02    003PRSWM1N01 00020JPWTH 0QNNAA1D0 04027BA1 0 04027AA1D0 06032BA1 0 06032GA1 0 00027KA1D0 00044JA1 0 00067LA1 0 01000CA1 0 03012NA1 0 00020QA1 0 10200SA1D0 00051RA1 0 00106YA1 0 02010
0415722230138942000121114003+30683-088250FM-15+0066MOB  V0200805N00215000305MN0003005N1+01285+01285102005ADDAA101000095GD15995+0003059GF109991999999000251999999GP10060010002008015302015007802008GQ100600816912339GR100600207914119MA1102035999999MW1455REMMET076KMOB 111356Z 08004KT M1/4SM FG VV001 13/13 A3013 RMK AO2 SLP200 T01280128 $;EQDQ01+000003PRSWM1Q02    003PRSWM1N01 00070JPWTH 0QNNAA1D0 07001BA1 0 07001GA1 0 00001KA1D0 00055JA1 0 00128LA1 0 00019CA1 0 03013NA1 0 00070QA1 0 10200SA1D0 00055RA1 0 00128YA1 0 08004
0483722230138942000121118003+30683-088250SY-MT+0066MOB  V0201405N00215001525MN0048005N1+01615+01505101785ADDAA101000095GD13995+0015259GF106991999999001501999999GP10060034002008010802015027602008GQ100600540917539GR100600829914119KA1120M+01611KA2240N+01221MA1101795100981MD1810221+9999MW1101MW2455REMSYN098AAXX  11184 72223 31248 61404 10161 20150 30098 40178 58022 710// 91756 333 10161 20122 555 91118;EQDQ01  00002PRCP99Q02  00003PRCP99N01 00070JPWTH 0QNNAA1D0 04005BA1 0 04005GA1 0 00005KA1D0 00059JA1 0 00150LA1 0 00300CA1 0 03006NA1 0 00070QA1 0 10178SA1D0 00061RA1 0 00161YA1 0 14004
0489722230138942000121408003+30683-088250FM-15+0066MOB  V0202305N00215002445MN0128005N1+01675+01675102195ADDAA101001095GD11995+0009159GD23995+0024459GD34995+0121959GF108991999999999999999999GP10060000002000000002000000002000GR100600000900009MA1102205999999MW1615REMMET093KMOB 140756Z 23004KT 8SM -RA FEW003 BKN008 OVC040 17/17 A3018 RMK AO2 SLP219 P0004 T01670167;EQDQ01+000003PRSWM1Q02    003PRSWM1N01 00020JPWTH 0QNNAA1D0 02003BA1 0 01003AA1D0 04008BA1 0 04008AA1D0 06040BA1 0 06040GA1 0 00008KA1D0 00062JA1 0 00167LA1 0 00800CA1 0 03018NA1 0 00020QA1 0 10219SA1D0 00062RA1 0 00167YA1 0 23004
0203722230138942000121423564+30680-088250FM-15+0067KMOB V0200401N002612200019N0160931N1+01001+00901102781ADDGF100991999999999999999999KA1999M+01221KA2999N+01001MA1102811999999MD1110141+9999MW1001REMMET085KMOB 142356Z 04005KT 10SM CLR 10/09 A3036 RMK AO2 SLP278 T01000089 10122 20100 51014;EQDQ01+000000PRSWM2
0429722230138942000121616003+30683-088250FM-15+0066MOB  V0202105N01085220005MN0160005N1+02335+02005101385ADDAA101000095GD12995+0045759GF104991999999999999999999GP10060029702008019702015020902008GQ100600635914439GR100600629914139MA1101425999999MW1001OC101441REMMET098KMOB 161556Z 21021G28KT 10SM SCT015 23/20 A2995 RMK AO2 PK WND 20028/1549 PRESFR SLP138 T02330200;EQDQ01+000000PRSWM2N01 00000JPWTH 0QNNAA1D0 02015BA1 0 02015GA1U0 99999KA1D0 00068JA1 0 00200LA1 0 01000CA1 0 02995NA1 0 00000QA1 0 10138SA1D0 00074RA1 0 00233YA1 0 21021
0398722230138942000121815003+30683-088250FM-15+0066MOB  V0201005N00265220005MN0160005N1+00285-00675102495ADDAA101000095GF100991999999999999999999GP10060028702008069602015007402008GQ100600723913259GR100600430914139MA1102475999999MD1310101+9999MW1001REMMET076KMOB 181456Z 10005KT 10SM CLR 03/M07 A3026 RMK AO2 SLP249 T00281067 53010 $;EQDQ01+000000PRSWM2N01 00000JPWTH 0QNNAA1D0 00000BA1 0 00000GA1U0 99999KA1D0 00020JA1 0-00067LA1 0 01000CA1 0 03026NA1 0 00000QA1 0 10249SA1D0 00037RA1 0 00028YA1 0 10005
0666722235138382000012205596+30626-088068SOD  +0008KBFM V020999999999999999999999999999+99999+99999999999ADDAA124000025KA1240M+01115KA2240N+00005MG1102079999994OE11240093903009245OE22240076004009245OE33240043499999995REMSOD54524 HR PRECIPITATION (IN):  T   24 HR MAX TEMP (F): 5224 HR MAX TEMP TIME (LST):1617 24 HR MIN TEMP (F): 3224 HR MIN TEMP TIME (LST):0716 AVERAGE STATION PRESSURE:30.14  PEAK WIND SPEED (MPH): 21 PEAK WIND DIR (DEG):030 PEAK WIND TIME (LST):0924  FASTEST 2MIN SPEED (MPH): 17FASTEST 2MIN DIR (DEG):040 FASTEST 2MIN TIME (LST):0924 AVERAGE WIND SPEED (MPH): 9.7 24 HR AVG TEMP (F):42 HOURLY INCREMENTAL PRECIPITATION VALUES (IN):.00  .00  .00  .00  .00  .00  .00   T   .00  .00  .00  .00  .00  .00  .00  .00  .00  .00  .00  .00  .00  .00  .00  .00
0666722235138382000040505596+30626-088068SOD  +0008KBFM V020999999999999999999999999999+99999+99999999999ADDAA124000025KA1240M+01945KA2240N+00835MG1101799999994OE11240160931004195OE22240138631004155OE33240061799999995REMSOD54524 HR PRECIPITATION (IN):  T   24 HR MAX TEMP (F): 6724 HR MAX TEMP TIME (LST):1458 24 HR MIN TEMP (F): 4724 HR MIN TEMP TIME (LST):2350 AVERAGE STATION PRESSURE:30.06  PEAK WIND SPEED (MPH): 36 PEAK WIND DIR (DEG):310 PEAK WIND TIME (LST):0419  FASTEST 2MIN SPEED (MPH): 31FASTEST 2MIN DIR (DEG):310 FASTEST 2MIN TIME (LST):0415 AVERAGE WIND SPEED (MPH):13.8 24 HR AVG TEMP (F):57 HOURLY INCREMENTAL PRECIPITATION VALUES (IN): T    T   .00  .00  .00  .00  .00  .00  .00  .00  .00  .00  .00  .00  .00  .00  .00  .00  .00  .00  .00  .00  .00  .00
0685722235138382000060205596+30626-088068SOD  +0008KBFM V020999999999999999999999999999+99999+99999999999ADDAA124000095KA1240M+03005KA2240N+01896MG1101839999994OE11240076018016225OE22240062617016365OE33240025999999995REMSOD54524 HR PRECIPITATION (IN): 0.00 24 HR MAX TEMP (F): 8624 HR MAX TEMP TIME (LST):1348 24 HR MIN TEMP (F): 6624 HR MIN TEMP TIME (LST):0457 AVERAGE STATION PRESSURE:30.07  PEAK WIND SPEED (MPH): 17 PEAK WIND DIR (DEG):180 PEAK WIND TIME (LST):1622  FASTEST 2MIN SPEED (MPH): 14FASTEST 2MIN DIR (DEG):170 FASTEST 2MIN TIME (LST):1636 AVERAGE WIND SPEED (MPH): 5.8 24 HR AVG TEMP (F):76 HOURLY INCREMENTAL PRECIPITATION VALUES (IN):.00  .00  .00  .00  .00  .00  .00  .00  .00  .00  .00  .00  .00  .00  .00  .00  .00  .00  .00  .00  .00  .00  .00  .00EQDR01    667KAN014
0685722235138382000081905596+30626-088068SOD  +0008KBFM V020999999999999999999999999999+99999+99999999999ADDAA124000096KA1240M+03505KA2240N+02445MG1101499999994OE11240080518015015OE22240067117015015OE33240025999999995REMSOD54524 HR PRECIPITATION (IN): 0.00 24 HR MAX TEMP (F): 9524 HR MAX TEMP TIME (LST):1621 24 HR MIN TEMP (F): 7624 HR MIN TEMP TIME (LST):0525 AVERAGE STATION PRESSURE:29.97  PEAK WIND SPEED (MPH): 18 PEAK WIND DIR (DEG):180 PEAK WIND TIME (LST):1501  FASTEST 2MIN SPEED (MPH): 15FASTEST 2MIN DIR (DEG):170 FASTEST 2MIN TIME (LST):1501 AVERAGE WIND SPEED (MPH): 5.8 24 HR AVG TEMP (F):86 HOURLY INCREMENTAL PRECIPITATION VALUES (IN):.00  .00  .00  .00  .00  .00  .00  .00  .00  .00  .00  .00  .00  .00  .00  .00  .00  .00  .00  .00  .00  .00  .00  .00EQDR01  0.007AAP092
0127722235999992000010113374+30630-088070FM-16+0008KBFM V0201601N003112200019N0160931N1+01501+01501999999ADDGD12991+0030099GF104991999999999999999999MA1102101999999MW1001REMMET053KBFM 011337Z 16006KT 10SM SCT010 15/15 A3015 RMK AO2;
0168722235999992000011213534+30630-088070FM-15+0008KBFM V0209999C000012200019N0096561N1+01301+01301102351ADDGF100991999999999999999999MA1102371999999MW1101REMMET074KBFM 121353Z 00000KT 6SM BR CLR 13/13 A3023 RMK AO2 SLP235 MIFG T01280128;EQDQ01+000003PRSWM1Q02    003PRSWM1
0145722235999992000011722534+30630-088070FM-15+0008KBFM V0202201N003112200019N0160931N1+02001+01201102471ADDGF100991999999999999999999MA1102471999999MW1001REMMET067KBFM 172253Z 22006KT 10SM CLR 20/12 A3026 RMK AO2 SLP247 T02000117;EQDQ01+000000PRSWM2
0147722235999992000012612534+30630-088070FM-15+0008KBFM V0203501N005712200019N0160931N1-00301-00801102341ADDGF100991999999999999999999MA1102341999999MW1001REMMET069KBFM 261253Z 35011KT 10SM CLR M03/M08 A3022 RMK AO2 SLP234 T10281078;EQDQ01+000000PRSWM2
0146722235999992000020613534+30630-088070FM-15+0008KBFM V0203201N002112200019N0160931N1+00101-00201103261ADDGF100991999999999999999999MA1103291999999MW1001REMMET068KBFM 061353Z 32004KT 10SM CLR 01/M02 A3050 RMK AO2 SLP326 T00061017;EQDQ01+000000PRSWM2
0174722235999992000020713534+30630-088070FM-15+0008KBFM V0209999C000012200019N0048281N1+00601+00001102991ADDGF100991999999999999999999MA1102981999999MW1041MW2051REMMET074KBFM 071353Z 00000KT 3SM FU HZ CLR 06/00 A3041 RMK AO2 SLP299 T00560000 $;EQDQ01+000003PRSWM1Q02    003PRSWM1
0203722235999992000020717534+30630-088070FM-15+0008KBFM V0201101N002612200019N0128741N1+01301-00101102861ADDGF100991999999999999999999KA1999M+01331KA2999N+00061MA1102881999999MD1810141+9999MW1001REMMET085KBFM 071753Z 11005KT 8SM CLR 13/M01 A3038 RMK AO2 SLP286 T01331006 10133 20006 58014;EQDQ01+000000PRSWM2
0194722235999992000021020534+30630-088070FM-15+0008KBFM V0201901N005110117019N0160931N1+01901+01101101641ADDGD13991+0117099GF107991999999999999999999MA1101661999999MD1610261+9999MW1001OC100871REMMET079KBFM 102053Z 19010G17KT 10SM BKN039 19/11 A3002 RMK AO2 SLP164 T01940111 56026;EQDQ01+000000PRSWM2
0212722235999992000022011534+30630-088070FM-15+0008KBFM V0203601N004612200019N0112651N1+00401+00201102991ADDGF100991999999999999999999KA1999M+00721KA2999N+00391MA1103011999999MD1310091+9999MW1001REMMET094KBFM 201153Z AUTO 36009KT 7SM CLR 04/02 A3042 RMK AO2 SLP299 T00390017 10072 20039 53009 TSNO;EQDQ01+000000PRSWM2
0162722235999992000022109534+30630-088070FM-15+0008KBFM V0203001N002112200019N0160931N1+00201+00001103051ADDGF100991999999999999999999MA1103051999999MW1001REMMET084KBFM 210953Z AUTO 30004KT 10SM CLR 02/00 A3043 RMK AO2 SLP305 T00220000 FZRANO TSNO;EQDQ01+000000PRSWM2
0147722235999992000022210534+30630-088070FM-15+0008KBFM V0201101N004112200019N0160931N1+01201+00601102791ADDGF100991999999999999999999MA1102811999999MW1001REMMET069KBFM 221053Z 11008KT 10SM CLR 12/06 A3036 RMK AO2 SLP279 T01170056 $;EQDQ01+000000PRSWM2
0147722235999992000022301534+30630-088070FM-15+0008KBFM V0201601N004112200019N0160931N1+01401+00901102661ADDGF100991999999999999999999MA1102681999999MW1001REMMET069KBFM 230153Z 16008KT 10SM CLR 14/09 A3032 RMK AO2 SLP266 T01440094 $;EQDQ01+000000PRSWM2
0184722235999992000022314534+30630-088070FM-15+0008KBFM V0200901N004110036019N0112651N1+01601+01301102821ADDGD14991+0036099GF108991999999999999999999MA1102811999999MD1310211+9999MW1001REMMET077KBFM 231453Z 09008KT 7SM OVC012 16/13 A3036 RMK AO2 SLP282 T01560128 53021 $;EQDQ01+000000PRSWM2
0147722235999992000022412534+30630-088070FM-15+0008KBFM V0201201N004612200019N0160931N1+01601+01501102541ADDGF100991999999999999999999MA1102541999999MW1001REMMET069KBFM 241253Z 12009KT 10SM CLR 16/15 A3028 RMK AO2 SLP254 T01560150 $;EQDQ01+000000PRSWM2
0145722235999992000022510114+30630-088070FM-16+0008KBFM V0201201N003110009019N0128741N1+01501+01401999999ADDGD13991+0009099GF107991999999999999999999MA1102241999999MW1001REMMET052KBFM 251011Z 12006KT 8SM BKN003 15/14 A3019 RMK AO2;EQDQ01+000000PRSWM2
0168722235999992000022610384+30630-088070FM-16+0008KBFM V0201301N003110012019N0160931N1+01601+01601999999ADDGD13991+0012099GD23991+0045099GF107991999999999999999999MA1102071999999MW1001REMMET060KBFM 261038Z 13006KT 10SM BKN004 BKN015 16/16 A3014 RMK AO2;EQDQ01+000000PRSWM2
0145722235999992000030219534+30630-088070FM-15+0008KBFM V0201001N004112200019N0160931N1+02301+00901101741ADDGF100991999999999999999999MA1101761999999MW1001REMMET067KBFM 021953Z 10008KT 10SM CLR 23/09 A3005 RMK AO2 SLP174 T02280094;EQDQ01+000000PRSWM2
0201722235999992000030320284+30630-088070FM-16+0008KBFM V0202201N004110075019N0160931N1+02301+01801999999ADDGD13991+0075099GD23991+0096099GD34991+0123099GF108991999999999999999999MA1101291999999MW1001OC100931REMMET070KBFM 032028Z 22008G18KT 10SM BKN025 BKN032 OVC041 23/18 A2991 RMK AO2;EQDQ01+000000PRSWM2
0145722235999992000030600534+30630-088070FM-15+0008KBFM V0202201N002612200019N0160931N1+01601+01001101821ADDGF100991999999999999999999MA1101831999999MW1001REMMET067KBFM 060053Z 22005KT 10SM CLR 16/10 A3007 RMK AO2 SLP182 T01560100;EQDQ01+000000PRSWM2
0220722235999992000030823534+30630-088070FM-15+0008KBFM V0201701N003612200019N0160931N1+02101+01801101921ADDAA106000021GF100991999999999999999999KA1999M+02441KA2999N+02061MA1101931999999MD1510021+9999MW1001REMMET091KBFM 082353Z 17007KT 10SM CLR 21/18 A3010 RMK AO2 SLP192 60000 T02060183 10244 20206 55002;EQDQ01+000000PRSWM2
0193722235999992000031200534+30630-088070FM-15+0008KBFM V0203401N011812200019N0160931N1+01201+00401101941ADDGF100991999999999999999999MA1101961999999MW1001OC101391REMMET107KBFM 120053Z AUTO 34023G27KT 10SM CLR 12/04 A3011 RMK AO2 PK WND 33028/0020 PRESRR SLP194 T01170044 TSNO $;EQDQ01+000000PRSWM2
0163722235999992000031519534+30630-088070FM-15+0008KBFM V0201201N008210069019N0160931N1+02101+01701101661ADDGD14991+0069099GF108991999999999999999999MA1101661999999MW1001REMMET070KBFM 151953Z 12016KT 10SM OVC023 21/17 A3002 RMK AO2 SLP166 T02060172;EQDQ01+000000PRSWM2
0243722235999992000032408534+30630-088070FM-15+0008KBFM V0209999C000012200019N0048281N1+01201+01201101961ADDAA101000021GD12991+0003099GF102991999999999999999999MA1101961999999MD1510041+9999MW1101REMMET109KBFM 240853Z AUTO 00000KT 3SM BR FEW001 12/12 A3011 RMK AO2 RAB18E28 SLP196 P0000 6//// T01220122 55004 TSNO;EQDQ01+000003PRSWM1Q02    003PRSWM1
0174722235999992000032721534+30630-088070FM-15+0008KBFM V0203001N008212200019N0160931N1+02301+01301100361ADDGF100991999999999999999999MA1100371999999MW1001OC101081REMMET088KBFM 272153Z 30016G21KT 10SM CLR 23/13 A2964 RMK AO2 PK WND 33026/2118 SLP036 T02280128;EQDQ01+000000PRSWM2
0172722235999992000040206534+30630-088070FM-15+0008KBFM V0201701N005710039019N0112651N1+02101+02101101601ADDGD14991+0039099GF108991999999999999999999MA1101591999999MW1001REMMET079KBFM 020653Z AUTO 17011KT 7SM OVC013 21/21 A3000 RMK AO2 SLP160 T02110206 TSNO;EQDQ01+000000PRSWM2
0145722235999992000040913534+30630-088070FM-15+0008KBFM V0200201N004612200019N0160931N1+01101+00201102951ADDGF100991999999999999999999MA1102951999999MW1001REMMET067KBFM 091353Z 02009KT 10SM CLR 11/02 A3040 RMK AO2 SLP295 T01060017;EQDQ01+000000PRSWM2
0154722235999992000041204534+30630-088070FM-15+0008KBFM V0201701N002612200019N0144841N1+01901+01801102231ADDGF100991999999999999999999MA1102241999999MW1001REMMET076KBFM 120453Z AUTO 17005KT 9SM CLR 19/18 A3019 RMK AO2 SLP223 T01940183 TSNO;EQDQ01+000000PRSWM2
0146722235999992000041208254+30630-088070FM-15+0008KBFM V0209999C000012200019N0032181N1+01601+01601999999ADDGF100991999999999999999999MA1102171999999MW1101REMMET052KBFM 120825Z 00000KT 2SM BR CLR 16/16 A3017 RMK AO2;EQDQ01+000003PRSWM1Q02    003PRSWM1
0173722235999992000041303534+30630-088070FM-15+0008KBFM V0209999C000010270019N0160931N1+01801+01701102121ADDGD13991+0270099GF107991999999999999999999MA1102131999999MW1001REMMET080KBFM 130353Z AUTO 00000KT 10SM BKN095 18/17 A3016 RMK AO2 SLP212 T01830172 TSNO;EQDQ01+000000PRSWM2
0146722235999992000042008294+30630-088070FM-16+0008KBFM V0201901N002612200019N0064371N1+01901+01901999999ADDGF100991999999999999999999MA1101561999999MW1101REMMET052KBFM 200829Z 19005KT 4SM BR CLR 19/19 A2999 RMK AO2;EQDQ01+000003PRSWM1Q02    003PRSWM1
0156722235999992000042018534+30630-088070FM-15+0008KBFM V0201601N006712200019N0160931N1+02601+01901101731ADDGF100991999999999999999999MA1101731999999MW1001OC100821REMMET070KBFM 201853Z 16013G16KT 10SM CLR 26/19 A3004 RMK AO2 SLP173 T02610194;EQDQ01+000000PRSWM2
0145722235999992000042119534+30630-088070FM-15+0008KBFM V0203201N005112200019N0160931N1+02701+00901101241ADDGF100991999999999999999999MA1101251999999MW1001REMMET067KBFM 211953Z 32010KT 10SM CLR 27/09 A2990 RMK AO2 SLP124 T02670094;EQDQ01+000000PRSWM2
0185722235999992000050422534+30630-088070FM-15+0008KBFM V0201401N007212200019N0160931N1+02401+02101101841ADDGD12991+0069099GD22991+0084099GF104991999999999999999999MA1101861999999MW1001REMMET077KBFM 042253Z 14014KT 10SM FEW023 SCT028 24/21 A3008 RMK AO2 SLP184 T02440206;EQDQ01+000000PRSWM2
0155722235999992000050807534+30630-088070FM-15+0008KBFM V0202301N001512200019N0160931N1+01901+01801101671ADDGF100991999999999999999999MA1101691999999MW1001REMMET077KBFM 080753Z AUTO 23003KT 10SM CLR 19/18 A3003 RMK AO2 SLP167 T01940183 TSNO;EQDQ01+000000PRSWM2
0145722235999992000050819534+30630-088070FM-15+0008KBFM V0201701N006712200019N0160931N1+02701+02001101721ADDGF100991999999999999999999MA1101731999999MW1001REMMET067KBFM 081953Z 17013KT 10SM CLR 27/20 A3004 RMK AO2 SLP172 T02670200;EQDQ01+000000PRSWM2
0163722235999992000051119534+30630-088070FM-15+0008KBFM V0201701N006212200019N0160931N1+02901+02201101521ADDGD12991+0078099GF102991999999999999999999MA1101521999999MW1001REMMET070KBFM 111953Z 17012KT 10SM FEW026 29/22 A2998 RMK AO2 SLP152 T02890217;EQDQ01+000000PRSWM2
0187722235999992000051213534+30630-088070FM-15+0008KBFM V0202101N004110045019N0160931N1+02701+02201101571ADDGD13991+0045099GD23991+0060099GF107991999999999999999999MA1101561999999MW1001REMMET079KBFM 121353Z 21008KT 10SM BKN015 BKN020 27/22 A2999 RMK AO2 SLP157 T02720217 $;EQDQ01+000000PRSWM2
0247722235999992000051311534+30630-088070FM-15+0008KBFM V0209999C000012200019N0080461N1+02301+02201101591ADDGD12991+0120099GF102991999999999999999999KA1999M+02391KA2999N+02061MA1101591999999MD1010091+9999MW1101REMMET098KBFM 131153Z 00000KT 5SM BR FEW040 23/22 A3000 RMK AO2 SLP159 7//// T02280222 10239 20206 50009 $;EQDQ01+000003PRSWM1Q02    003PRSWM1
0214722235999992000051708534+30630-088070FM-15+0008KBFM V02099999999992200019N0096561N1+02101+02001101741ADDGD12991+0045099GF104991999999999999999999MA1101761999999MD1610071+9999MW1101MW2411REMMET085KBFM 170853Z VRB03KT 6SM BR BCFG SCT015 21/20 A3005 RMK AO2 SLP174 T02060200 56007 $;EQDQ01+000003PRSWM1Q02    003PRSWM1
0228722235999992000051906534+30630-088070FM-15+0008KBFM V0201901N005110066019N0160931N1+02501+02301101981ADDGD12991+0045099GD23991+0066099GD33991+0087099GF107991999999999999999999MA1102001999999MW1001OC100981REMMET097KBFM 190653Z AUTO 19010G19KT 10SM SCT015 BKN022 BKN029 25/23 A3012 RMK AO2 SLP198 T02500228 TSNO;EQDQ01+000000PRSWM2
0166722235999992000052308534+30630-088070FM-15+0008KBFM V0202601N002612200019N0112651N1+02301+02301101271ADDGF100991999999999999999999MA1101291999999MD1610051+9999MW1001REMMET074KBFM 230853Z 26005KT 7SM CLR 23/23 A2991 RMK AO2 SLP127 T02330228 56005 $;EQDQ01+000000PRSWM2
0194722235999992000052520534+30630-088070FM-15+0008KBFM V0202001N004612200019N0160931N1+03001+02301101311ADDGD12991+0096099GF104991999999999999999999MA1101321999999MD1810071+9999MW1001OC100771REMMET079KBFM 252053Z 20009G15KT 10SM SCT032 30/23 A2992 RMK AO2 SLP131 T03000233 58007;EQDQ01+000000PRSWM2
0165722235999992000053020534+30630-088070FM-15+0008KBFM V0201801N005712200019N0160931N1+02901+01801101441ADDGF100991999999999999999999MA1101461999999MD1810161+9999MW1001REMMET073KBFM 302053Z 18011KT 10SM CLR 29/18 A2996 RMK AO2 SLP144 T02940183 58016;EQDQ01+000000PRSWM2
0165722235999992000060208234+30630-088070FM-16+0008KBFM V0203201N001512200019N0160931N1+02101+02101999999ADDGF100991999999999999999999MA1102071999999MW1001REMMET087KBFM 020823Z 32003KT 10SM CLR 21/21 A3014 RMK AO2 RAB02E21 PATCHY MIFG DEP 6FT P0000 $;EQDQ01+000000PRSWM2
0148722235999992000060211054+30630-088070FM-16+0008KBFM V0203201N003112200019N0032181N1+02101+02101999999ADDGF100991999999999999999999MA1102241999999MW1101REMMET054KBFM 021105Z 32006KT 2SM BR CLR 21/21 A3019 RMK AO2 $;EQDQ01+000003PRSWM1Q02    003PRSWM1
0205722235999992000060217534+30630-088070FM-15+0008KBFM V0201201N002612200019N0160931N1+03101+01701102101ADDGF100991999999999999999999KA1999M+03171KA2999N+02171MA1102101999999MD1810151+9999MW1001REMMET087KBFM 021753Z 12005KT 10SM CLR 31/17 A3015 RMK AO2 SLP210 T03110172 10317 20217 58015 $;EQDQ01+000000PRSWM2
0157722235999992000060404534+30630-088070FM-15+0008KBFM V0209999V001512200019N0160931N1+02501+02301101691ADDGF100991999999999999999999MA1101691999999MW1001REMMET079KBFM 040453Z AUTO VRB03KT 10SM CLR 25/23 A3003 RMK AO2 SLP169 T02500228 TSNO $;EQDQ01+000000PRSWM2
0303722235999992000060518404+30630-088070FM-16+0008KBFM V0203101N007710138019N0160931N1+02201+02201999999ADDGD12991+0108099GD23991+0138099GD34991+0240099GF108991999999999999999999MA1101691999999MW1801MW2951REMMET158KBFM 051840Z 31015KT 10SM -TSRA SCT036 BKN046 OVC085 22/22 A3003 RMK AO2 PK WND 29026/1830 TSB16RAB25 PRESRR VIS NW-NE 2 OCNL LTGCG OHD TS OHD MOV SE P0000 $;EQDQ01+000003PRSWM1Q02    003PRSWM1
0321722235999992000060518534+30630-088070FM-15+0008KBFM V0203201N008210114019N0112651N1+02301+02201101631ADDAA101002891GD12991+0072099GD23991+0114099GD34991+0180099GF108991999999999999999999MA1101631999999MW1811MW2951REMMET165KBFM 051853Z 32016KT 7SM TSRA SCT024 BKN038 OVC065 23/22 A3001 RMK AO2 PK WND 29026/1830 TSB16RAB25 PRESRR SLP163 VIS N 2 OCNL LTGCG NE TS N MOV E P0011 T02280222 $;EQDQ01+000003PRSWM1Q02    003PRSWM1
0163722235999992000060909534+30630-088070FM-15+0008KBFM V0201001N004612200019N0080461N1+02401+02301101901ADDGF100991999999999999999999MA1101901999999MW1101REMMET069KBFM 090953Z 10009KT 5SM BR CLR 24/23 A3009 RMK AO2 SLP190 T02440233;EQDQ01+000003PRSWM1Q02    003PRSWM1
0226722235999992000061508354+30630-088690FM-16+0008KBFM V0201501N007710093019N0048281N1+02301+02101999999ADDGD12991+0051099GD23991+0093099GD34991+0240099GF108991999999999999999999MA1101591999999MW1651REMMET087KBFM 150835Z 15015KT 3SM +RA FEW017 BKN031 OVC080 23/21 A3000 RMK AO2 RAB05 VCSH P0022;EQDQ01+000003PRSWM1Q02    003PRSWM1
0199722235999992000061623164+30630-088690FM-16+0008KBFM V02099999999990105019N0128741N1+02201+02101999999ADDGD12991+0054099GD23991+0105099GF107991999999999999999999MA1101631999999MW1611REMMET075KBFM 162316Z VRB06KT 8SM -RA SCT018 BKN035 22/21 A3001 RMK AO2 TSE16 P0028;EQDQ01+000003PRSWM1Q02    003PRSWM1
0145722235999992000062018534+30630-088690FM-15+0008KBFM V0201501N006712200019N0160931N1+03101+02401101981ADDGF100991999999999999999999MA1102001999999MW1001REMMET067KBFM 201853Z 15013KT 10SM CLR 31/24 A3012 RMK AO2 SLP198 T03110239;EQDQ01+000000PRSWM2
0163722235999992000062021534+30630-088690FM-15+0008KBFM V0201701N005112200019N0160931N1+02901+02301101851ADDGD12991+0075099GF104991999999999999999999MA1101861999999MW1001REMMET070KBFM 202153Z 17010KT 10SM SCT025 29/23 A3008 RMK AO2 SLP185 T02940233;EQDQ01+000000PRSWM2
0146722235999992000062420004+30630-088690FM-15+0008KBFM V0201201N005712200019N0160931N1+02801+02401999999ADDGD12991+0150099GF102991999999999999999999MA1101661999999MW1001REMMET053KBFM 241955Z 12011KT 10SM FEW050 28/24 A3002 RMK AO2;EQDQ01+000000PRSWM2
0211722235999992000062716044+30630-088690FM-16+0008KBFM V0202601N004110063019N0160931N1+02401+02201999999ADDGD13991+0063099GD23991+0087099GD33991+0150099GF107991999999999999999999MA1102001999999MW1001REMMET088KBFM 271604Z 26008KT 10SM BKN021 BKN029 BKN050 24/22 A3012 RMK AO2 TCU ALQDS VSBY S 2SM;EQDQ01+000000PRSWM2
0163722235999992000062901534+30630-088690FM-15+0008KBFM V02099999999992200019N0160931N1+02701+02301101571ADDGD12991+0090099GF104991999999999999999999MA1101591999999MW1001REMMET070KBFM 290153Z VRB03KT 10SM SCT030 27/23 A3000 RMK AO2 SLP157 T02670233;EQDQ01+000000PRSWM2
0167722235999992000070320534+30630-088690FM-15+0008KBFM V0201801N004612200019N0160931N1+02901+02201101871ADDGF100991999999999999999999MA1101901999999MD1610091+9999MW1001REMMET075KBFM 032053Z 18009KT 10SM CLR 29/22 A3009 RMK AO2 SLP187 T02940217 56009 $;EQDQ01+000000PRSWM2
0164722235999992000070922534+30630-088690FM-15+0008KBFM V0201601N004112200019N0144841N1+03101+02401101721ADDGD12991+0081099GF102991999999999999999999MA1101731999999MW1001REMMET071KBFM 092253Z 16008KT 9SM FEW027 31/24 A3004 RMK AO2 SLP172 T03060244 $;EQDQ01+000000PRSWM2
0145722235999992000071522534+30630-088060FM-15+0008KBFM V0202301N004112200019N0160931N1+03401+02301100881ADDGF100991999999999999999999MA1100881999999MW1001REMMET067KBFM 152253Z 23008KT 10SM CLR 34/23 A2979 RMK AO2 SLP088 T03440228;EQDQ01+000000PRSWM2
0155722235999992000072207534+30630-088060FM-15+0008KBFM V0209999C000012200019N0160931N1+02301+02201101411ADDGF100991999999999999999999MA1101421999999MW1001REMMET077KBFM 220753Z AUTO 00000KT 10SM CLR 23/22 A2995 RMK AO2 SLP141 T02280217 TSNO;EQDQ01+000000PRSWM2
0120722235999992000072323534+30630-088060FM-15+0008KBFM V02099999999992200019N0160931N1+02901+02301999999ADDGF100991999999999999999999MA1101391999999MW1001REMMET042KBFM 232353Z VRB03KT 10SM SKC 29/23 A2994;EQDQ01+000000PRSWM2
0183722235999992000073008534+30630-088060FM-15+0008KBFM V0202301N002612200019N0160931N1+02701+02301101351ADDGF100991999999999999999999MA1101351999999MD1510041+9999MW1001REMMET091KBFM 300853Z AUTO 23005KT 10SM CLR 27/23 A2993 RMK AO2 SLP135 6//// T02670233 55004 TSNO $;EQDQ01+000000PRSWM2
0145722235999992000080400534+30630-088060FM-15+0008KBFM V0209999C000012200019N0160931N1+02601+02401101671ADDGF100991999999999999999999MA1101691999999MW1001REMMET067KBFM 040053Z 00000KT 10SM CLR 26/24 A3003 RMK AO2 SLP167 T02560244;EQDQ01+000000PRSWM2
0173722235999992000080603534+30630-088060FM-15+0008KBFM V0202101N001510180019N0160931N1+02701+02401101671ADDGD13991+0180099GF107991999999999999999999MA1101691999999MW1001REMMET080KBFM 060353Z AUTO 21003KT 10SM BKN060 27/24 A3003 RMK AO2 SLP167 T02720244 TSNO;EQDQ01+000000PRSWM2
0183722235999992000081320534+30630-088060FM-15+0008KBFM V0201401N003112200019N0160931N1+03201+01701101341ADDGD12991+0180099GF104991999999999999999999MA1101351999999MD1810141+9999MW1001REMMET076KBFM 132053Z 14006KT 10SM SCT060 32/17 A2993 RMK AO2 SLP134 T03220172 58014;EQDQ01+000000PRSWM2
0165722235999992000081720534+30630-088060FM-15+0008KBFM V0201501N004612200019N0160931N1+03701+02301101541ADDGF100991999999999999999999MA1101561999999MD1610221+9999MW1001REMMET073KBFM 172053Z 15009KT 10SM CLR 37/23 A2999 RMK AO2 SLP154 T03670233 56022;EQDQ01+000000PRSWM2
0157722235999992000082000534+30630-088060FM-15+0008KBFM V0209999C000012200019N0160931N1+02901+02401101611ADDGF100991999999999999999999MA1101631999999MW1001REMMET079KBFM 200053Z AUTO 00000KT 10SM CLR 29/24 A3001 RMK AO2 SLP161 T02890244 TSNO $;EQDQ01+000000PRSWM2
0175722235999992000082009534+30630-088060FM-15+0008KBFM V0202801N003612200019N0096561N1+02801+02401101591ADDGF100991999999999999999999MA1101591999999MW1051REMMET081KBFM 200953Z AUTO 28007KT 6SM HZ CLR 28/24 A3000 RMK AO2 SLP159 T02780244 TSNO $;EQDQ01+000003PRSWM1Q02    003PRSWM1
0193722235999992000082202534+30630-088060FM-15+0008KBFM V0201001N003112200019N0160931N1+02801+02101102041ADDGD12991+0240099GF104991999999999999999999MA1102031999999MD1110201+9999MW1001REMMET086KBFM 220253Z AUTO 10006KT 10SM SCT080 28/21 A3013 RMK AO2 SLP204 T02830206 51020 TSNO;EQDQ01+000000PRSWM2
0154722235999992000082507534+30630-088060FM-15+0008KBFM V0202901N002612200019N0128741N1+02501+02401101791ADDGF100991999999999999999999MA1101801999999MW1001REMMET076KBFM 250753Z AUTO 29005KT 8SM CLR 25/24 A3006 RMK AO2 SLP179 T02500244 TSNO;EQDQ01+000000PRSWM2
0222722235999992000083005534+30630-088060FM-15+0008KBFM V0201201N003612200019N0112651N1+03001+02701101201ADDGF100991999999999999999999KA1999M+03501KA2999N+02781MA1101221999999MD1310031+9999MW1001REMMET104KBFM 300553Z AUTO 12007KT 7SM CLR 30/27 A2989 RMK AO2 SLP120 T03000272 10350 20278 403780278 53003 TSNO;EQDQ01+000000PRSWM2
0154722235999992000083006534+30630-088060FM-15+0008KBFM V0201101N005112200019N0144841N1+03001+02501101181ADDGF100991999999999999999999MA1101191999999MW1001REMMET076KBFM 300653Z AUTO 11010KT 9SM CLR 30/25 A2988 RMK AO2 SLP118 T03000250 TSNO;EQDQ01+000000PRSWM2
0191722235999992000090321534+30630-088060FM-15+0008KBFM V0201701N002612200019N0096561N1+03401+02501100891ADDAA101000591GF100991999999999999999999MA1100911999999MW1051REMMET086KBFM 032153Z 17005KT 6SM HZ CLR 34/25 A2980 RMK AO2 RAB2056E12 SLP089 P0002 T03390250;EQDQ01+000003PRSWM1Q02    003PRSWM1
0209722235999992000090715534+30630-088060FM-15+0008KBFM V0201001N007710036019N0160931N1+02701+02401101461ADDGD12991+0027099GD23991+0036099GD33991+0141099GF107991999999999999999999MA1101461999999MW1001REMMET086KBFM 071553Z 10015KT 10SM SCT009 BKN012 BKN047 27/24 A2996 RMK AO2 SLP146 T02670239 $;EQDQ01+000000PRSWM2
0213722235999992000090720534+30630-088060FM-15+0008KBFM V0201001N007712200019N0160931N1+02801+02401101321ADDGD12991+0036099GD22991+0180099GF104991999999999999999999MA1101321999999MD1610141+9999MW1001REMMET091KBFM 072053Z 10015KT 10SM FEW012 SCT065 28/24 A2992 RMK AO2 SLP132 6//// T02830244 56014 $;EQDQ01+000000PRSWM2
0195722235999992000091107534+30630-088060FM-15+0008KBFM V0200601N002612200019N0160931N1+02801+02601101501ADDGD12991+0135099GD22991+0150099GF104991999999999999999999MA1101521999999MW1001REMMET087KBFM 110753Z AUTO 06005KT 10SM FEW045 SCT055 28/26 A2998 RMK AO2 SLP150 T02780261 TSNO;EQDQ01+000000PRSWM2
0165722235999992000091720534+30630-088060FM-15+0008KBFM V0200301N005712200019N0160931N1+02901+01801101361ADDGF100991999999999999999999MA1101391999999MD1610181+9999MW1001REMMET073KBFM 172053Z 03011KT 10SM CLR 29/18 A2994 RMK AO2 SLP136 T02940178 56018;EQDQ01+000000PRSWM2
0128722235999992000091908284+30630-088060FM-16+0008KBFM V0203401N001512200019N0160931N1+01801+01701999999ADDGF100991999999999999999999MA1101561999999MW1001REMMET050KBFM 190828Z 34003KT 10SM CLR 18/17 A2999 RMK AO2;EQDQ01+000000PRSWM2
0193722235999992000092302534+30630-088060FM-15+0008KBFM V0201701N003112200019N0160931N1+02801+02701101481ADDGD12991+0030099GF104991999999999999999999MA1101491999999MD1310151+9999MW1001REMMET086KBFM 230253Z AUTO 17006KT 10SM SCT010 28/27 A2997 RMK AO2 SLP148 T02830272 53015 TSNO;EQDQ01+000000PRSWM2
0175722235999992000092502534+30630-088060FM-15+0008KBFM V0209999C000012200019N0160931N1+02701+02601101341ADDGF100991999999999999999999MA1101351999999MD1310141+9999MW1001REMMET083KBFM 250253Z AUTO 00000KT 10SM CLR 27/26 A2993 RMK AO2 SLP134 T02720256 53014 TSNO;EQDQ01+000000PRSWM2
0155722235999992000100103534+30630-088060FM-15+0008KBFM V0200901N004612200019N0160931N1+02601+02101101651ADDGF100991999999999999999999MA1101661999999MW1001REMMET077KBFM 010353Z AUTO 09009KT 10SM CLR 26/21 A3002 RMK AO2 SLP165 T02560206 TSNO;EQDQ01+000000PRSWM2
0145722235999992000100301534+30630-088060FM-15+0008KBFM V0201901N001512200019N0160931N1+02201+01901101621ADDGF100991999999999999999999MA1101631999999MW1001REMMET067KBFM 030153Z 19003KT 10SM CLR 22/19 A3001 RMK AO2 SLP162 T02170194;EQDQ01+000000PRSWM2
0255722235999992000100311534+30630-088060FM-15+0008KBFM V0203301N002612200019N0096561N1+01701+01701101681ADDAA106000391AA224000391GF100991999999999999999999KA1999M+01941KA2999N+01721MA1101691999999MD1310071+9999MW1101REMMET099KBFM 031153Z 33005KT 6SM BR CLR 17/17 A3003 RMK AO2 SLP168 60001 70001 T01720167 10194 20172 53007;EQDQ01+000003PRSWM1Q02    003PRSWM1
0145722235999992000101519534+30630-088060FM-15+0008KBFM V0201501N002612200019N0160931N1+02701+01201102031ADDGF100991999999999999999999MA1102031999999MW1001REMMET067KBFM 151953Z 15005KT 10SM CLR 27/12 A3013 RMK AO2 SLP203 T02720122;EQDQ01+000000PRSWM2
0203722235999992000102323534+30630-088060FM-15+0008KBFM V0201901N003112200019N0160931N1+02401+01901102681ADDGF100991999999999999999999KA1999M+02941KA2999N+02281MA1102711999999MD1310011+9999MW1001REMMET085KBFM 232353Z 19006KT 10SM CLR 24/19 A3033 RMK AO2 SLP268 T02390194 10294 20228 53001;EQDQ01+000000PRSWM2
0154722235999992000102403534+30630-088060FM-15+0008KBFM V0200701N004612200019N0128741N1+02401+01701102811ADDGF100991999999999999999999MA1102811999999MW1001REMMET076KBFM 240353Z AUTO 07009KT 8SM CLR 24/17 A3036 RMK AO2 SLP281 T02390172 TSNO;EQDQ01+000000PRSWM2
0144722235999992000102609534+30630-088060FM-15+0008KBFM V0203301N002112200019N0144841N1+01501+01401102011ADDGF100991999999999999999999MA1102031999999MW1001REMMET066KBFM 260953Z 33004KT 9SM CLR 15/14 A3013 RMK AO2 SLP201 T01500144;EQDQ01+000000PRSWM2
0160722235999992000110205334+30630-088060FM-15+0008KBFM V0209999C000012200019N0040231N1+02001+02001999999ADDGF100991999999999999999999MA1101931999999MW1101REMMET066KBFM 020533Z AUTO 00000KT 2 1/2SM BR CLR 20/20 A3010 RMK AO2 TSNO;EQDQ01+000003PRSWM1Q02    003PRSWM1
0203722235999992000110323534+30630-088060FM-15+0008KBFM V0201901N001512200019N0160931N1+02401+02001102011ADDGF100991999999999999999999KA1999M+02891KA2999N+02391MA1102031999999MD1310041+9999MW1001REMMET085KBFM 032353Z 19003KT 10SM CLR 24/20 A3013 RMK AO2 SLP201 T02390200 10289 20239 53004;EQDQ01+000000PRSWM2
0277722235999992000110614534+30630-088060FM-15+0008KBFM V0201801N007210210019N0096561N1+02601+02201100891ADDAA101000021AA203000021GD12991+0150099GD23991+0210099GF107991999999999999999999MA1100881999999MD1310061+9999MW1051OC101081REMMET109KBFM 061453Z 18014G21KT 6SM HZ FEW050 BKN075 26/22 A2979 RMK AO2 RAB31E41 SLP089 P0000 60000 T02610217 53006;EQDQ01+000003PRSWM1Q02    003PRSWM1
0232722235999992000110716534+30630-088060FM-15+0008KBFM V0200601N003110150019N0112651N1+02501+02401101281ADDAA101000021GD12991+0027099GD22991+0060099GD33991+0150099GF107991999999999999999999MA1101291999999MW1001REMMET098KBFM 071653Z 06006KT 7SM FEW009 SCT020 BKN050 25/24 A2991 RMK AO2 RAB12E29 SLP128 P0000 T02500239;EQDQ01+000000PRSWM2
0145722235999992000111216534+30630-088060FM-15+0008KBFM V0200401N002612200019N0160931N1+01901+01001101811ADDGF100991999999999999999999MA1101831999999MW1001REMMET067KBFM 121653Z 04005KT 10SM CLR 19/10 A3007 RMK AO2 SLP181 T01890100;EQDQ01+000000PRSWM2
0155722235999992000111309534+30630-088060FM-15+0008KBFM V0201501N002112200019N0160931N1+01701+01501101291ADDGF100991999999999999999999MA1101291999999MW1001REMMET077KBFM 130953Z AUTO 15004KT 10SM CLR 17/15 A2991 RMK AO2 SLP129 T01670150 TSNO;EQDQ01+000000PRSWM2
0185722235999992000111610534+30630-088060FM-15+0008KBFM V0200801N002610126019N0160931N1+01501+01001101761ADDGD13991+0126099GD24991+0180099GF108991999999999999999999MA1101761999999MW1001REMMET077KBFM 161053Z 08005KT 10SM BKN042 OVC060 15/10 A3005 RMK AO2 SLP176 T01500100;EQDQ01+000000PRSWM2
0251722235999992000111904534+30630-088060FM-15+0008KBFM V0200601N00721001201CN0064371N1+00801+00801101921ADDAA101003391GD13991+0021099GD24991+0099099GF108991999999999999999999MA1101931999999MW1101MW2631REMMET110KBFM 190453Z AUTO 06014KT 4SM RA BR BKN007 OVC033 08/08 A3010 RMK AO2 CIG 004V011 SLP192 P0013 T00830083 TSNO;EQDQ01+000003PRSWM1Q02    003PRSWM1
0255722235999992000111908534+30630-088060FM-15+0008KBFM V0200201N005710021019N0096561N1+00801+00801101781ADDAA101000891AA203003891GD14991+0021099GF108991999999999999999999MA1101801999999MD1610161+9999MW1101MW2611REMMET104KBFM 190853Z AUTO 02011KT 6SM -RA BR OVC007 08/08 A3006 RMK AO2 SLP178 P0003 60015 T00830083 56016 TSNO;EQDQ01+000003PRSWM1Q02    003PRSWM1
0244722235999992000112413534+30630-088060FM-15+0008KBFM V0201101N007210150019N0160931N1+01601+01501101261ADDAA101000021GD12991+0042099GD23991+0150099GD34991+0210099GF108991999999999999999999MA1101251999999MW1611REMMET094KBFM 241353Z 11014KT 10SM -RA SCT014 BKN055 OVC070 16/15 A2990 RMK AO2 SLP126 P0000 T01560150;EQDQ01+000003PRSWM1Q02    003PRSWM1
0158722235999992000112808384+30630-088060FM-15+0008KBFM V0209999C000012200019N0048281N1+00601+00601999999ADDGF100991999999999999999999MA1102101999999MW1101REMMET064KBFM 280838Z AUTO 00000KT 3SM BR CLR 06/06 A3015 RMK AO2 TSNO $;EQDQ01+000003PRSWM1Q02    003PRSWM1
0145722235999992000112821534+30630-088060FM-15+0008KBFM V0202001N001512200019N0160931N1+01701+01101102211ADDGF100991999999999999999999MA1102241999999MW1001REMMET067KBFM 282153Z 20003KT 10SM CLR 17/11 A3019 RMK AO2 SLP221 T01670106;EQDQ01+000000PRSWM2
0243722235999992000120223534+30630-088060FM-15+0008KBFM V0203401N003110132019N0160931N1+01101+00801102491ADDGD12991+0108099GD23991+0132099GF107991999999999999999999KA1999M+01501KA2999N+01061MA1102511999999MD1310161+9999MW1001REMMET095KBFM 022353Z 34006KT 10SM FEW036 BKN044 11/08 A3027 RMK AO2 SLP249 T01110083 10150 20106 53016;EQDQ01+000000PRSWM2
0181722235999992000121019534+30630-088060FM-15+0008KBFM V0201001N002112200019N0080461N1+01701+01601101941ADDGF100991999999999999999999MA1101931999999MW1101REMMET087KBFM 101953Z 10004KT 5SM BR CLR 17/16 A3010 RMK AO2 SLP194 VSBY S-NE 1 1/2 T01670156 $;EQDQ01+000003PRSWM1Q02    003PRSWM1
0223722235999992000121305534+30630-088060FM-15+0008KBFM V0200301N004612200019N0160931N1+00501+00001102691ADDGF100991999999999999999999KA1999M+00831KA2999N+00501MA1102711999999MD1510051+9999MW1001REMMET105KBFM 130553Z AUTO 03009KT 10SM CLR 05/00 A3033 RMK AO2 SLP269 T00500000 10083 20050 401720050 55005 TSNO;EQDQ01+000000PRSWM2
0163722235999992000121310534+30630-088060FM-15+0008KBFM V0200601N004612200019N0160931N1+00601+00101102331ADDGD12991+0060099GF104991999999999999999999MA1102341999999MW1001REMMET070KBFM 131053Z 06009KT 10SM SCT020 06/01 A3022 RMK AO2 SLP233 T00610011;EQDQ01+000000PRSWM2
0163722235999992000121315534+30630-088060FM-15+0008KBFM V0200601N002610042019N0160931N1+01101+00701102231ADDGD14991+0042099GF108991999999999999999999MA1102241999999MW1001REMMET070KBFM 131553Z 06005KT 10SM OVC014 11/07 A3019 RMK AO2 SLP223 T01060067;EQDQ01+000000PRSWM2
0168722235999992000121522144+30630-088060FM-16+0008KBFM V0200501N002610012019N0040231N1+01301+01301999999ADDGD14991+0012099GF108991999999999999999999MA1102131999999MW1101REMMET059KBFM 152214Z 05005KT 2 1/2SM BR OVC004 13/13 A3016 RMK AO2;EQDQ01+000003PRSWM1Q02    003PRSWM1
0221722235999992000121908534+30630-088060FM-15+0008KBFM V0203101N007212200019N0160931N1+00301+00001102261ADDAA103000021GD12991+0060099GF104991999999999999999999MA1102271999999MD1110231+9999MW1001OC101081REMMET095KBFM 190853Z AUTO 31014G21KT 10SM SCT020 03/00 A3020 RMK AO2 SLP226 60000 T00330000 51023 TSNO;EQDQ01+000000PRSWM2
0195722235999992000122107534+30630-088060FM-15+0008KBFM V0201301N006710180019N0160931N1+00601+00201102231ADDGD13991+0180099GD24991+0270099GF108991999999999999999999MA1102241999999MW1001REMMET087KBFM 210753Z AUTO 13013KT 10SM BKN065 OVC090 06/02 A3019 RMK AO2 SLP223 T00560022 TSNO;EQDQ01+000000PRSWM2
0286722235999992000122117534+30630-088060FM-15+0008KBFM V0201701N003610240019N0160931N1+01401+01201102021ADDAA101000021AA206000021GD12991+0135099GD23991+0240099GF107991999999999999999999KA1999M+01441KA2999N+00671MA1102031999999MD1810081+9999MW1001REMMET116KBFM 211753Z 17007KT 10SM FEW045 BKN080 14/12 A3013 RMK AO2 RAB21E52 SLP202 P0000 60000 T01440122 10144 20067 58008;EQDQ01+000000PRSWM2
0071722245999992000010313009+30200-085683NSRDB+000699999V020999999999999999999999999999+99999+99999999999ADDGP10060000002008000002015000002008GQ100600884911759GR100600013904609
0194722245999992000010402534+30220-085680FM-15+0006KPFN V0201701N004110033019N0160931N1+01901+01801101811ADDGD14991+0033019GF108991999999999999999999MA1101801999999MD1010001+9999MW1001OC100771REMMET079KPFN 040253Z 17008G15KT 10SM OVC011 19/18 A3006 RMK AO2 SLP181 T01940178 50000;EQDQ01+000000PRSWM2
0054722245999992000010911009+30200-085683NSRDB+000699999V020999999999999999999999999999+99999+99999999999ADDGP10060000002000000002000000002000GR100600000900009
0054722245999992000011000009+30200-085683NSRDB+000699999V020999999999999999999999999999+99999+99999999999ADDGP10060000002000000002000000002000GR100600000900009
0054722245999992000011611009+30200-085683NSRDB+000699999V020999999999999999999999999999+99999+99999999999ADDGP10060000002000000002000000002000GR100600000900009
0054722245999992000011907009+30200-085683NSRDB+000699999V020999999999999999999999999999+99999+99999999999ADDGP10060000002000000002000000002000GR100600000900009
0146722245999992000012112534+30220-085680FM-15+0006KPFN V0200101N005112200019N0160931N1+00101-00601102311ADDGF100991999999999999999999MA1102301999999MW1001REMMET068KPFN 211253Z 01010KT 10SM CLR 01/M06 A3021 RMK AO2 SLP231 T00111056;EQDQ01+000000PRSWM2
0071722245999992000012120009+30200-085683NSRDB+000699999V020999999999999999999999999999+99999+99999999999ADDGP10060057402008087402015007502008GQ100600553920769GR100600804914139
0215722245999992000012508534+30220-085680FM-15+0006KPFN V0203301N005112200019N0160931N1+00201-00301101351ADDGF100991999999999999999999MA1101351999999MD1710011+9999MW1001REMMET091KPFN 250853Z AUTO 33010KT 10SM CLR 02/M03 A2993 RMK AO2 SLP135 T00221033 56000 FZRANO TSNO;EQDQ01+000062APCTENQ02+000002APC3  Q03+000000PRSWM2
0071722245999992000012521009+30200-085683NSRDB+000699999V020999999999999999999999999999+99999+99999999999ADDGP10060046302008072302015012002008GQ100600618922219GR100600667914119
0204722245999992000012717534+30220-085680FM-15+0006KPFN V0200601N003612200019N0160931N1+00601-00901102681ADDGF100991999999999999999999KA1999M+00561KA2999N-00171MA1102681999999MD1810171+9999MW1001REMMET086KPFN 271753Z 06007KT 10SM CLR 06/M09 A3032 RMK AO2 SLP268 T00561094 10056 21017 58017;EQDQ01+000000PRSWM2
0146722245999992000012803534+30220-085680FM-15+0006KPFN V0200801N004112200019N0160931N1+00501-00701102651ADDGF100991999999999999999999MA1102641999999MW1001REMMET068KPFN 280353Z 08008KT 10SM CLR 05/M07 A3031 RMK AO2 SLP265 T00501067;EQDQ01+000000PRSWM2
0203722245999992000013123534+30220-085680FM-15+0006KPFN V0209999C000012200019N0160931N1+00601+00001102261ADDGF100991999999999999999999KA1999M+01061KA2999N+00561MA1102271999999MD1310011+9999MW1001REMMET085KPFN 312353Z 00000KT 10SM CLR 06/00 A3020 RMK AO2 SLP226 T00560000 10106 20056 53001;EQDQ01+000000PRSWM2
0162722245999992000020210534+30220-085680FM-15+0006KPFN V0200301N003112200019N0160931N1+00801+00001102511ADDGF100991999999999999999999MA1102511999999MW1001REMMET084KPFN 021053Z AUTO 03006KT 10SM CLR 08/00 A3027 RMK AO2 PRESRR SLP251 T00780000 TSNO;EQDQ01+000000PRSWM2
0146722245999992000020500534+30220-085680FM-15+0006KPFN V0203501N002612200019N0160931N1+01301-00301102031ADDGF100991999999999999999999MA1102031999999MW1001REMMET068KPFN 050053Z 35005KT 10SM CLR 13/M03 A3013 RMK AO2 SLP203 T01281028;EQDQ01+000000PRSWM2
0071722245999992000020713009+30200-085683NSRDB+000699999V020999999999999999999999999999+99999+99999999999ADDGP10060000002008000002015000002008GQ100600873910949GR100600032906689
0144722245999992000021004534+30220-085680FM-15+0006KPFN V0209999C000012200019N0144841N1+00801+00701102141ADDGF100991999999999999999999MA1102131999999MW1001REMMET066KPFN 100453Z 00000KT 9SM CLR 08/07 A3016 RMK AO2 SLP214 T00830072;EQDQ01+000000PRSWM2
0071722245999992000021021009+30200-085683NSRDB+000699999V020999999999999999999999999999+99999+99999999999ADDGP10060049502008072002015011102008GQ100600579922509GR100600746914059
0054722245999992000021411009+30200-085683NSRDB+000699999V020999999999999999999999999999+99999+99999999999ADDGP10060000002000000002000000002000GR100600000900009
0163722245999992000021800534+30220-085680FM-15+0006KPFN V0201801N001512200019N0160931N1+01901+01801102221ADDGD12991+0087019GF104991999999999999999999MA1102241999999MW1001REMMET070KPFN 180053Z 18003KT 10SM SCT029 19/18 A3019 RMK AO2 SLP222 T01940178;EQDQ01+000000PRSWM2
0145722245999992000022215534+30220-085680FM-15+0006KPFN V0200801N004612200019N0160931N1+01601+00201102991ADDGF100991999999999999999999MA1102981999999MW1001REMMET067KPFN 221553Z 08009KT 10SM CLR 16/02 A3041 RMK AO2 SLP299 T01610017;EQDQ01+000000PRSWM2
0054722245999992000022505009+30200-085683NSRDB+000699999V020999999999999999999999999999+99999+99999999999ADDGP10060000002000000002000000002000GR100600000900009
0071722245999992000022521009+30200-085683NSRDB+000699999V020999999999999999999999999999+99999+99999999999ADDGP10060057702008082202015009302008GQ100600541922939GR100600818913969
0054722245999992000022906009+30200-085683NSRDB+000699999V020999999999999999999999999999+99999+99999999999ADDGP10060000002000000002000000002000GR100600000900009
0054722245999992000030102009+30200-085683NSRDB+000699999V020999999999999999999999999999+99999+99999999999ADDGP10060000002000000002000000002000GR100600000900009
0054722245999992000030403009+30200-085683NSRDB+000699999V020999999999999999999999999999+99999+99999999999ADDGP10060000002000000002000000002000GR100600000900009
0054722245999992000030705009+30200-085683NSRDB+000699999V020999999999999999999999999999+99999+99999999999ADDGP10060000002000000002000000002000GR100600000900009
0145722245999992000032300534+30220-085680FM-15+0006KPFN V0209999C000012200019N0160931N1+01901+01301102011ADDGF100991999999999999999999MA1102001999999MW1001REMMET067KPFN 230053Z 00000KT 10SM CLR 19/13 A3012 RMK AO2 SLP201 T01890133;EQDQ01+000000PRSWM2
0154722245999992000032307534+30220-085680FM-15+0006KPFN V0209999C000012200019N0144841N1+01301+01201102041ADDGF100991999999999999999999MA1102031999999MW1001REMMET076KPFN 230753Z AUTO 00000KT 9SM CLR 13/12 A3013 RMK AO2 SLP204 T01330122 TSNO;EQDQ01+000000PRSWM2
0156722245999992000032319534+30220-085680FM-15+0006KPFN V0200401N006212200019N0160931N1+02601+00801101901ADDGF100991999999999999999999MA1101901999999MW1001OC100981REMMET070KPFN 231953Z 04012G19KT 10SM CLR 26/08 A3009 RMK AO2 SLP190 T02560083;EQDQ01+000000PRSWM2
0071722245999992000032517009+30200-085683NSRDB+000699999V020999999999999999999999999999+99999+99999999999ADDGP10060081002008064502015027302008GQ100600339914319GR100601140913749
0201722245999992000032614534+30220-085680FM-15+0006KPFN V0203101N001512200019N0080461N1+02101+01901101681ADDGD12991+0018019GF104991999999999999999999MA1101691999999MD1810011+9999MW1101REMMET078KPFN 261453Z 31003KT 5SM BR SCT006 21/19 A3003 RMK AO2 SLP168 T02060189 58001;EQDQ01+000003PRSWM1Q02    003PRSWM1
0247722245999992000032719063+30220-085680FM-16+0006KPFN V0202901N008710084019N0160931N1+02301+01601999999ADDGD12991+0066019GD23991+0084019GF107991999999999999999999GP10060071802008035302015040902008GQ100600293920179GR100601197913729MA1100171999999MW1001OC101291REMMET063KPFN 271906Z 29017G25KT 10SM SCT022 BKN028 23/16 A2958 RMK AO2;EQDQ01+000000PRSWM2
0071722245999992000032823009+30200-085683NSRDB+000699999V020999999999999999999999999999+99999+99999999999ADDGP10060026702008063302015006602008GQ100600715926309GR100600434913719
0145722245999992000032901534+30220-085680FM-15+0006KPFN V0202201N002112200019N0160931N1+01901+01101100931ADDGF100991999999999999999999MA1100911999999MW1001REMMET067KPFN 290153Z 22004KT 10SM CLR 19/11 A2980 RMK AO2 SLP093 T01890106;EQDQ01+000000PRSWM2
0054722245999992000033110009+30200-085683NSRDB+000699999V020999999999999999999999999999+99999+99999999999ADDGP10060000002000000002000000002000GR100600000900009
0054722245999992000040101009+30200-085683NSRDB+000699999V020999999999999999999999999999+99999+99999999999ADDGP10060000002000000002000000002000GR100600000900009
0054722245999992000040102009+30200-085683NSRDB+000699999V020999999999999999999999999999+99999+99999999999ADDGP10060000002000000002000000002000GR100600000900009
0054722245999992000040209009+30200-085683NSRDB+000699999V020999999999999999999999999999+99999+99999999999ADDGP10060000002000000002000000002000GR100600000900009
0054722245999992000040211009+30200-085683NSRDB+000699999V020999999999999999999999999999+99999+99999999999ADDGP10060000002000000002000000002000GR100600000900009
0145722245999992000040500534+30220-085680FM-15+0006KPFN V0203401N004112200019N0160931N1+01501+00301101911ADDGF100991999999999999999999MA1101901999999MW1001REMMET067KPFN 050053Z 34008KT 10SM CLR 15/03 A3009 RMK AO2 SLP191 T01500028;EQDQ01+000000PRSWM2
0071722245999992000040717009+30200-085683NSRDB+000699999V020999999999999999999999999999+99999+99999999999ADDGP10060080202008056702015030602008GQ100600292913959GR100601190913639
0183722245999992000040720534+30220-085680FM-15+0006KPFN V0202101N005712200019N0160931N1+02201+01401101661ADDGD12991+0135019GF104991999999999999999999MA1101661999999MD1610171+9999MW1001REMMET076KPFN 072053Z 21011KT 10SM SCT045 22/14 A3002 RMK AO2 SLP166 T02220144 56017;EQDQ01+000000PRSWM2
0071722245999992000040823009+30200-085683NSRDB+000699999V020999999999999999999999999999+99999+99999999999ADDGP10060028102008058502015008202008GQ100600701926729GR100600463913629
0071722245999992000040923009+30200-085683NSRDB+000699999V020999999999999999999999999999+99999+99999999999ADDGP10060028102008057402015008502008GQ100600700926769GR100600465913629
0071722245999992000041101009+30200-085683NSRDB+000699999V020999999999999999999999999999+99999+99999999999ADDGP10060000002008000002015000002008GQ100600895927979GR100600001901479
0145722245999992000041912534+30220-085680FM-15+0006KPFN V0200101N004112200019N0160931N1+01801+01101101761ADDGF100991999999999999999999MA1101761999999MW1001REMMET067KPFN 191253Z 01008KT 10SM CLR 18/11 A3005 RMK AO2 SLP176 T01780111;EQDQ01+000000PRSWM2
0155722245999992000042004534+30220-085680FM-15+0006KPFN V0202701N001512200019N0160931N1+01801+01701101761ADDGF100991999999999999999999MA1101761999999MW1001REMMET077KPFN 200453Z AUTO 27003KT 10SM CLR 18/17 A3005 RMK AO2 SLP176 T01830167 TSNO;EQDQ01+000000PRSWM2
0165722245999992000042114534+30220-085680FM-15+0006KPFN V0203101N005112200019N0160931N1+02501+01601101281ADDGF100991999999999999999999MA1101291999999MD1010011+9999MW1001REMMET073KPFN 211453Z 31010KT 10SM CLR 25/16 A2991 RMK AO2 SLP128 T02500156 50001;EQDQ01+000000PRSWM2
0071722245999992000042116009+30200-085683NSRDB+000699999V020999999999999999999999999999+99999+99999999999ADDGP10060063502008033302015036402008GQ100600354911399GR100601100913529
0156722245999992000042716534+30220-085680FM-15+0006KPFN V0202701N005112200019N0160931N1+02401+00601101781ADDGF100991999999999999999999MA1101761999999MW1001OC100721REMMET070KPFN 271653Z 27010G14KT 10SM CLR 24/06 A3005 RMK AO2 SLP178 T02440061;EQDQ01+000000PRSWM2
0145722245999992000042910534+30220-085680FM-15+0006KPFN V0209999C000012200019N0160931N1+01201+01001101641ADDGF100991999999999999999999MA1101661999999MW1001REMMET067KPFN 291053Z 00000KT 10SM CLR 12/10 A3002 RMK AO2 SLP164 T01220100;EQDQ01+000000PRSWM2
0071722245999992000042913009+30200-085683NSRDB+000699999V020999999999999999999999999999+99999+99999999999ADDGP10060025302008050302015009802008GQ100600720908329GR100600415913479
0145722245999992000042919534+30220-085680FM-15+0006KPFN V0202601N006212200019N0160931N1+02501+01201101631ADDGF100991999999999999999999MA1101631999999MW1001REMMET067KPFN 291953Z 26012KT 10SM CLR 25/12 A3001 RMK AO2 SLP163 T02500117;EQDQ01+000000PRSWM2
0165722245999992000050120534+30220-085680FM-15+0006KPFN V0202001N005112200019N0160931N1+02401+01601101981ADDGF100991999999999999999999MA1102001999999MD1810101+9999MW1001REMMET073KPFN 012053Z 20010KT 10SM CLR 24/16 A3012 RMK AO2 SLP198 T02440156 58010;EQDQ01+000000PRSWM2
0071722245999992000050311009+30200-085683NSRDB+000699999V020999999999999999999999999999+99999+99999999999ADDGP10060000002008000002015000002008GQ100600899907139GR100600000900349
0154722245999992000050509534+30220-085680FM-15+0006KPFN V0201101N003112200019N0144841N1+01801+01601102041ADDGF100991999999999999999999MA1102031999999MW1001REMMET076KPFN 050953Z AUTO 11006KT 9SM CLR 18/16 A3013 RMK AO2 SLP204 T01830161 TSNO;EQDQ01+000000PRSWM2
0172722245999992000052006534+30220-085680FM-15+0006KPFN V0209999C000012200019N0112651N1+02201+02101101691ADDGD12991+0030019GF104991999999999999999999MA1101691999999MW1001REMMET079KPFN 200653Z AUTO 00000KT 7SM SCT010 22/21 A3003 RMK AO2 SLP169 T02170211 TSNO;EQDQ01+000000PRSWM2
0269722245999992000052117003+30220-085680FM-15+0006KPFN V0202101N005710090019N0160931N1+02701+02101999999ADDGD12991+0063019GD23991+0090019GD33991+0120019GF107991999999999999999999GP10060077902008043902015036202008GQ100600186911949GR100601261913339MA1101691999999MW1001OC100771REMMET070KPFN 211700Z 21011G15KT 10SM FEW021 BKN030 BKN040 27/21 A3003 RMK AO2;EQDQ01+000000PRSWM2
0241722245999992000052217034+30220-085680FM-16+0006KPFN V0200301N005710075019N0160931N1+02501+01901999999ADDGD12991+0060019GD23991+0075019GD33991+0090019GF107991999999999999999999MA1101461999999MW1001OC100931REMMET110KPFN 221703Z 03011G18KT 10SM FEW020 BKN025 BKN030 25/19 A2996 RMK AO2 WSHFT 1646 OCNL LTGCG NE TS NW-NE MOV E;EQDQ01+000000PRSWM2
0071722245999992000052723009+30200-085683NSRDB+000699999V020999999999999999999999999999+99999+99999999999ADDGP10060029602008029502015017002008GQ100600648928129GR100600566913309
0054722245999992000052807009+30200-085683NSRDB+000699999V020999999999999999999999999999+99999+99999999999ADDGP10060000002000000002000000002000GR100600000900009
0054722245999992000053106009+30200-085683NSRDB+000699999V020999999999999999999999999999+99999+99999999999ADDGP10060000002000000002000000002000GR100600000900009
0163722245999992000053121534+30220-085680FM-15+0006KPFN V0202301N005712200019N0160931N1+02801+01901101791ADDGD12991+0240019GF102991999999999999999999MA1101801999999MW1001REMMET070KPFN 312153Z 23011KT 10SM FEW080 28/19 A3006 RMK AO2 SLP179 T02780189;EQDQ01+000000PRSWM2
0071722245999992000060213009+30200-085683NSRDB+000699999V020999999999999999999999999999+99999+99999999999ADDGP10060026802008038302015012902008GQ100600688907589GR100600480913289
0173722245999992000060609534+30220-085680FM-15+0006KPFN V0203401N004112200019N0160931N1+02501+02101101541ADDGD12991+0300019GF104991999999999999999999MA1101561999999MW1001REMMET080KPFN 060953Z AUTO 34008KT 10SM SCT100 25/21 A2999 RMK AO2 SLP154 T02500211 TSNO;EQDQ01+000000PRSWM2
0221722245999992000060917534+30220-085680FM-15+0006KPFN V0202301N006212200019N0160931N1+02901+02101102031ADDGD12991+0105019GF104991999999999999999999KA1999M+03061KA2999N+02171MA1102031999999MD1810091+9999MW1001REMMET088KPFN 091753Z 23012KT 10SM SCT035 29/21 A3013 RMK AO2 SLP203 T02940206 10306 20217 58009;EQDQ01+000000PRSWM2
0254722245999992000061311534+30220-085680FM-15+0006KPFN V0201401N002112200019N0112651N1+02401+02301102011ADDAA106003091AA224005391GD12991+0090019GF104991999999999999999999KA1999M+02441KA2999N+02281MA1102001999999MD1310131+9999MW1001REMMET099KPFN 131153Z 14004KT 7SM SCT030 24/23 A3012 RMK AO2 SLP201 60012 70021 T02440228 10244 20228 53013;EQDQ01+000000PRSWM2
0071722245999992000061400009+30200-085683NSRDB+000699999V020999999999999999999999999999+99999+99999999999ADDGP10060015902008035202015007302008GQ100600758928909GR100600324913249
0163722245999992000061413534+30220-085680FM-15+0006KPFN V0201401N002612200019N0160931N1+02801+02201101971ADDGD12991+0045019GF104991999999999999999999MA1101961999999MW1001REMMET070KPFN 141353Z 14005KT 10SM SCT015 28/22 A3011 RMK AO2 SLP197 T02830222;EQDQ01+000000PRSWM2
0071722245999992000061812009+30200-085683NSRDB+000699999V020999999999999999999999999999+99999+99999999999ADDGP10060009302008011602015007502008GQ100600811906799GR100600204913239
0163722245999992000061821534+30220-085680FM-15+0006KPFN V02099999999992200019N0160931N1+03101+02401102061ADDGD12991+0069019GF104991999999999999999999MA1102071999999MW1001REMMET070KPFN 182153Z VRB05KT 10SM SCT023 31/24 A3014 RMK AO2 SLP206 T03060239;EQDQ01+000000PRSWM2
0071722245999992000062218009+30200-085683NSRDB+000699999V020999999999999999999999999999+99999+99999999999ADDGP10060073602008031202015042702008GQ100600083915769GR100601308913229
0054722245999992000062406009+30200-085683NSRDB+000699999V020999999999999999999999999999+99999+99999999999ADDGP10060000002000000002000000002000GR100600000900009
0054722245999992000062906009+30200-085683NSRDB+000699999V020999999999999999999999999999+99999+99999999999ADDGP10060000002000000002000000002000GR100600000900009
0163722245999992000062909534+30220-085680FM-15+0006KPFN V0202301N002612200019N0160931N1+02701+02301101491ADDGD12991+0069019GF102991999999999999999999MA1101491999999MW1001REMMET070KPFN 290953Z 23005KT 10SM FEW023 27/23 A2997 RMK AO2 SLP149 T02670233;EQDQ01+000000PRSWM2
0223722245999992000070105534+30220-085680FM-15+0006KPFN V0203001N003112200019N0160931N1+02701+02401101481ADDGF100991999999999999999999KA1999M+02891KA2999N+02671MA1101491999999MD1810021+9999MW1001REMMET105KPFN 010553Z AUTO 30006KT 10SM CLR 27/24 A2997 RMK AO2 SLP148 T02720244 10289 20267 403110239 58002 TSNO;EQDQ01+000000PRSWM2
0071722245999992000070117009+30200-085683NSRDB+000699999V020999999999999999999999999999+99999+99999999999ADDGP10060085402008058402015030002008GQ100600186910909GR100601250913219
0155722245999992000070303534+30220-085680FM-15+0006KPFN V0209999C000012200019N0160931N1+02701+02201101821ADDGF100991999999999999999999MA1101831999999MW1001REMMET077KPFN 030353Z AUTO 00000KT 10SM CLR 27/22 A3007 RMK AO2 SLP182 T02670217 TSNO;EQDQ01+000000PRSWM2
0162722245999992000070321534+30220-085680FM-15+0006KPFN V0202301N003112200019N0112651N1+03001+02301101771ADDGD12991+0180019GF102991999999999999999999MA1101761999999MW1001REMMET069KPFN 032153Z 23006KT 7SM FEW060 30/23 A3005 RMK AO2 SLP177 T03000233;EQDQ01+000000PRSWM2
0071722245999992000070522009+30200-085683NSRDB+000699999V020999999999999999999999999999+99999+99999999999ADDGP10060052102008048502015020902008GQ100600499927539GR100600850913219
0054722245999992000070708009+30200-085683NSRDB+000699999V020999999999999999999999999999+99999+99999999999ADDGP10060000002000000002000000002000GR100600000900009
0162722245999992000071013534+30220-085680FM-15+0006KPFN V0200701N001512200019N0128741N1+02901+02701101901ADDGD12991+0045019GF102991999999999999999999MA1101901999999MW1001REMMET069KPFN 101353Z 07003KT 8SM FEW015 29/27 A3009 RMK AO2 SLP190 T02940272;EQDQ01+000000PRSWM2
0071722245999992000071117009+30200-085683NSRDB+000699999V020999999999999999999999999999+99999+99999999999ADDGP10060041202008004802015036602008GQ100600194911149GR100601244913229
0238722245999992000071402534+30220-085680FM-15+0006KPFN V0201901N002110240019N0128741N1+02501+02501101381ADDAA101000391GD13991+0240019GD23991+0300019GF107991999999999999999999MA1101391999999MD1510031+9999MW1001REMMET105KPFN 140253Z 19004KT 8SM BKN085 BKN100 25/25 A2994 RMK AO2 RAB01E37 SLP138 P0001 6//// T02500250 55003 $;EQDQ01+000000PRSWM2
0223722245999992000071523534+30220-085680FM-15+0006KPFN V0202601N005712200019N0080461N1+03201+02401100791ADDGF100991999999999999999999KA1999M+03721KA2999N+03171MA1100781999999MD1310041+9999MW1051REMMET089KPFN 152353Z 26011KT 5SM HZ CLR 32/24 A2976 RMK AO2 SLP079 T03170244 10372 20317 53004 $;EQDQ01+000003PRSWM1Q02    003PRSWM1
0163722245999992000071910534+30220-085680FM-15+0006KPFN V0209999C000012200019N0096561N1+02601+02201101451ADDGF100991999999999999999999MA1101461999999MW1051REMMET069KPFN 191053Z 00000KT 6SM HZ CLR 26/22 A2996 RMK AO2 SLP145 T02610217;EQDQ01+000003PRSWM1Q02    003PRSWM1
0194722245999992000072120534+30220-085680FM-15+0006KPFN V0202901N006712200019N0160931N1+03301+02501101271ADDGD12991+0150019GF102991999999999999999999MA1101251999999MD1610211+9999MW1001OC100981REMMET079KPFN 212053Z 29013G19KT 10SM FEW050 33/25 A2990 RMK AO2 SLP127 T03280250 56021;EQDQ01+000000PRSWM2
0071722245999992000072700009+30200-085683NSRDB+000699999V020999999999999999999999999999+99999+99999999999ADDGP10060014702008032202015007102008GQ100600764928469GR100600311913249
0203722245999992000072723534+30220-085680FM-15+0006KPFN V0202401N003612200019N0160931N1+02901+02301101601ADDGF100991999999999999999999KA1999M+03281KA2999N+02941MA1101591999999MD1510041+9999MW1001REMMET085KPFN 272353Z 24007KT 10SM CLR 29/23 A3000 RMK AO2 SLP160 T02940228 10328 20294 55004;EQDQ01+000000PRSWM2
0183722245999992000072914534+30220-085680FM-15+0006KPFN V02099999999992200019N0160931N1+03101+02301101531ADDGD12991+0060019GF102991999999999999999999MA1101521999999MD1110091+9999MW1001REMMET076KPFN 291453Z VRB03KT 10SM FEW020 31/23 A2998 RMK AO2 SLP153 T03110233 51009;EQDQ01+000000PRSWM2
0295722245999992000073016534+30220-085680FM-15+0006KPFN V0201301N004610150019N0160931N1+02301+02201101621ADDAA101025791GD12991+0036019GD22991+0123019GD34991+0150019GF108991999999999999999999MA1101631999999MW1801MW2951REMMET139KPFN 301653Z 13009KT 10SM -TSRA FEW012 SCT041 OVC050 23/22 A3001 RMK AO2 WSHFT 1555 TSB1554RAB08 SLP162 TS OHD MOV E LTGCG P0101 T02330217;EQDQ01+000003PRSWM1Q02    003PRSWM1
0228722245999992000073114534+30220-085680FM-15+0006KPFN V0201601N002612200019N0160931N1+02501+02401101791ADDAA101001391AA203001391GD12991+0054019GF104991999999999999999999MA1101801999999MD1310101+9999MW1001REMMET099KPFN 311453Z 16005KT 10SM SCT018 25/24 A3006 RMK AO2 RAB1359E51 SLP179 P0005 60005 T02500239 53010;EQDQ01+000000PRSWM2
0054722245999992000080210009+30200-085683NSRDB+000699999V020999999999999999999999999999+99999+99999999999ADDGP10060000002000000002000000002000GR100600000900009
0054722245999992000080811009+30200-085683NSRDB+000699999V020999999999999999999999999999+99999+99999999999ADDGP10060000002000000002000000002000GR100600000900009
0147722245999992000080821534+30220-085680FM-15+0006KPFN V0202501N003612200019N0160931N1+03101+02301101821ADDGF100991999999999999999999MA1101831999999MW1001REMMET069KPFN 082153Z 25007KT 10SM CLR 31/23 A3007 RMK AO2 SLP182 T03110233 $;EQDQ01+000000PRSWM2
0071722245999992000081212009+30200-085683NSRDB+000699999V020999999999999999999999999999+99999+99999999999ADDGP10060000002008000002015000002008GQ100600851907569GR100600095911209
0165722245999992000081314534+30220-085680FM-15+0006KPFN V0203601N001512200019N0160931N1+02901+02001101381ADDGF100991999999999999999999MA1101391999999MD1110091+9999MW1001REMMET073KPFN 131453Z 36003KT 10SM CLR 29/20 A2994 RMK AO2 SLP138 T02940200 51009;EQDQ01+000000PRSWM2
0071722245999992000081316009+30200-085683NSRDB+000699999V020999999999999999999999999999+99999+99999999999ADDGP10060073102008063502015021202008GQ100600353910919GR100601084913319
0145722245999992000081606534+30220-085680FM-15+0006KPFN V0203001N002112200019N0160931N1+02801+02701101931ADDGF100991999999999999999999MA1101931999999MW1001REMMET067KPFN 160653Z 30004KT 10SM CLR 28/27 A3010 RMK AO2 SLP193 T02830267;EQDQ01+000000PRSWM2
0145722245999992000081700534+30220-085680FM-15+0006KPFN V0202001N003112200019N0160931N1+03101+02601101721ADDGF100991999999999999999999MA1101731999999MW1001REMMET067KPFN 170053Z 20006KT 10SM CLR 31/26 A3004 RMK AO2 SLP172 T03060256;EQDQ01+000000PRSWM2
0163722245999992000081710534+30220-085680FM-15+0006KPFN V0209999C000012200019N0064371N1+02601+02501101671ADDGF100991999999999999999999MA1101661999999MW1101REMMET069KPFN 171053Z 00000KT 4SM BR CLR 26/25 A3002 RMK AO2 SLP167 T02560250;EQDQ01+000003PRSWM1Q02    003PRSWM1
0054722245999992000081807009+30200-085683NSRDB+000699999V020999999999999999999999999999+99999+99999999999ADDGP10060000002000000002000000002000GR100600000900009
0145722245999992000081900534+30220-085680FM-15+0006KPFN V0202501N004112200019N0160931N1+03001+02501101621ADDGF100991999999999999999999MA1101631999999MW1001REMMET067KPFN 190053Z 25008KT 10SM CLR 30/25 A3001 RMK AO2 SLP162 T03000250;EQDQ01+000000PRSWM2
0154722245999992000081907534+30220-085680FM-15+0006KPFN V0202501N003612200019N0144841N1+02901+02601101621ADDGF100991999999999999999999MA1101631999999MW1001REMMET076KPFN 190753Z AUTO 25007KT 9SM CLR 29/26 A3001 RMK AO2 SLP162 T02940256 TSNO;EQDQ01+000000PRSWM2
0054722245999992000082110009+30200-085683NSRDB+000699999V020999999999999999999999999999+99999+99999999999ADDGP10060000002000000002000000002000GR100600000900009
0071722245999992000082220009+30200-085683NSRDB+000699999V020999999999999999999999999999+99999+99999999999ADDGP10060042502008004802015038302008GQ100600307923749GR100601147913369
0205722245999992000082320534+30220-085680FM-15+0006KPFN V0202101N002610210019N0160931N1+03101+02401102011ADDGD12991+0150019GD23991+0210019GF107991999999999999999999MA1102001999999MD1610121+9999MW1001REMMET083KPFN 232053Z 21005KT 10SM FEW055 BKN075 31/24 A3012 RMK AO2 SLP201 T03060244 56012;EQDQ01+000000PRSWM2
0145722245999992000082506534+30220-085680FM-15+0006KPFN V0209999C000012200019N0160931N1+02701+02401101761ADDGF100991999999999999999999MA1101761999999MW1001REMMET067KPFN 250653Z 00000KT 10SM CLR 27/24 A3005 RMK AO2 SLP176 T02670244;EQDQ01+000000PRSWM2
0071722245999992000082701009+30200-085683NSRDB+000699999V020999999999999999999999999999+99999+99999999999ADDGP10060000002008000002015000002008GQ100600890928139GR100600004902349
0054722245999992000082810009+30200-085683NSRDB+000699999V020999999999999999999999999999+99999+99999999999ADDGP10060000002000000002000000002000GR100600000900009
0160722245999992000082906534+30220-085680FM-15+0006KPFN V0202801N003112200019N0112651N1+02901+02801101161ADDGF100991999999999999999999MA1101151999999MW1001REMMET082KPFN 290653Z AUTO 28006KT 7SM CLR 29/28 A2987 RMK AO2 SLP116 T02940278 TSNO PNO $;EQDQ01+000000PRSWM2
0233722245999992000083105534+30220-085680FM-15+0006KPFN V0201001N002112200019N0160931N1+02601+02001101151ADDGF100991999999999999999999KA1999M+03111KA2999N+02561MA1101151999999MD1010011+9999MW1001REMMET115KPFN 310553Z AUTO 10004KT 10SM CLR 26/20 A2987 RMK AO2 SLP115 6//// T02560200 10311 20256 403440228 50001 TSNO PNO;EQDQ01+000000PRSWM2
0209722245999992000090111534+30220-085680FM-15+0006KPFN V0201101N001512200019N0160931N1+02401+02301101421ADDGF100991999999999999999999KA1999M+02561KA2999N+02391MA1101421999999MD1310141+9999MW1001REMMET091KPFN 011153Z 11003KT 10SM CLR 24/23 A2995 RMK AO2 SLP142 7//// T02390228 10256 20239 53014;EQDQ01+000000PRSWM2
0054722245999992000090303009+30200-085683NSRDB+000699999V020999999999999999999999999999+99999+99999999999ADDGP10060000002000000002000000002000GR100600000900009
0054722245999992000090404009+30200-085683NSRDB+000699999V020999999999999999999999999999+99999+99999999999ADDGP10060000002000000002000000002000GR100600000900009
0209722245999992000091114534+30220-085680FM-15+0006KPFN V0201101N005712200019N0160931N1+02901+02301101731ADDGD12991+0075019GD22991+0240019GF104991999999999999999999MA1101731999999MD1310111+9999MW1001REMMET087KPFN 111453Z COR 11011KT 10SM SCT025 SCT085 29/23 A3004 RMK AO2 SLP173 T02940233 53011;EQDQ01+000000PRSWM2
0071722245999992000091200009+30200-085683NSRDB+000699999V020999999999999999999999999999+99999+99999999999ADDGP10060002802008006602015002402008GQ100600848927199GR100600104911589
0054722245999992000091305009+30200-085683NSRDB+000699999V020999999999999999999999999999+99999+99999999999ADDGP10060000002000000002000000002000GR100600000900009
0165722245999992000091516534+30220-085680FM-15+0006KPFN V0203001N002612200019N0160931N1+03201+02301101171ADDGD12991+0060019GF104991999999999999999999MA1101151999999MW1001REMMET072KPFN 151653Z 30005KT 10SM SCT020 32/23 A2987 RMK AO2 SLP117 T03170228 $;EQDQ01+000000PRSWM2
0054722245999992000091609009+30200-085683NSRDB+000699999V020999999999999999999999999999+99999+99999999999ADDGP10060000002000000002000000002000GR100600000900009
0145722245999992000091700534+30220-085680FM-15+0006KPFN V0200501N004112200019N0160931N1+02601+01401101291ADDGF100991999999999999999999MA1101291999999MW1001REMMET067KPFN 170053Z 05008KT 10SM CLR 26/14 A2991 RMK AO2 SLP129 T02560144;EQDQ01+000000PRSWM2
0155722245999992000091703534+30220-085680FM-15+0006KPFN V0200601N006212200019N0160931N1+02401+01301101321ADDGF100991999999999999999999MA1101321999999MW1001REMMET077KPFN 170353Z AUTO 06012KT 10SM CLR 24/13 A2992 RMK AO2 SLP132 T02440128 TSNO;EQDQ01+000000PRSWM2
0201722245999992000091720264+30220-085680FM-16+0006KPFN V0200301N006710087019N0160931N1+02401+01801999999ADDGD13991+0087019GD23991+0102019GD33991+0210019GF107991999999999999999999MA1101291999999MW1001OC100931REMMET070KPFN 172026Z 03013G18KT 10SM BKN029 BKN034 BKN070 24/18 A2991 RMK AO2;EQDQ01+000000PRSWM2
0185722245999992000091721534+30220-085680FM-15+0006KPFN V0200401N007710210019N0160931N1+02301+01601101271ADDGD12991+0099019GD24991+0210019GF108991999999999999999999MA1101291999999MW1001REMMET077KPFN 172153Z 04015KT 10SM SCT033 OVC070 23/16 A2991 RMK AO2 SLP127 T02330161;EQDQ01+000000PRSWM2
0054722245999992000091807009+30200-085683NSRDB+000699999V020999999999999999999999999999+99999+99999999999ADDGP10060000002000000002000000002000GR100600000900009
0173722245999992000092315534+30220-085680FM-15+0006KPFN V0202301N002112200019N0160931N1+03001+02701101681ADDGD12991+0042019GF104991999999999999999999MA1101691999999MW1001REMMET080KPFN 231553Z 23004KT 10SM SCT014 30/27 A3003 RMK AO2 SLP168 TCU ALQDS T03000267;EQDQ01+000000PRSWM2
0225722245999992000092505534+30220-085680FM-15+0006KPFN V0209999C000012200019N0160931N1+02701+02401101241ADDGF100991999999999999999999KA1999M+02781KA2999N+02611MA1101251999999MD1610071+9999MW1001REMMET107KPFN 250553Z AUTO 00000KT 10SM CLR 27/24 A2990 RMK AO2 SLP124 T02670244 10278 20261 403220239 56007 TSNO $;EQDQ01+000000PRSWM2
0071722245999992000092723009+30200-085683NSRDB+000699999V020999999999999999999999999999+99999+99999999999ADDGP10060012602008020002015008202008GQ100600773926009GR100600298913619
0153722245999992000100115534+30220-085680FM-15+0006KPFN V0200401N004112200019N0160931N1+02601+01701101651ADDGF100991999999999999999999MA1101661999999MW1001REMMET075KPFN 011553Z 04008KT 020V090 10SM CLR 26/17 A3002 RMK AO2 SLP165 T02610172;EQDQ01+000000PRSWM2
0054722245999992000100311009+30200-085683NSRDB+000699999V020999999999999999999999999999+99999+99999999999ADDGP10060000002000000002000000002000GR100600000900009
0054722245999992000100505009+30200-085683NSRDB+000699999V020999999999999999999999999999+99999+99999999999ADDGP10060000002000000002000000002000GR100600000900009
0155722245999992000100509534+30220-085680FM-15+0006KPFN V0209999C000012200019N0160931N1+02301+02301101531ADDGF100991999999999999999999MA1101521999999MW1001REMMET077KPFN 050953Z AUTO 00000KT 10SM CLR 23/23 A2998 RMK AO2 SLP153 T02330228 TSNO;EQDQ01+000000PRSWM2
0071722245999992000100612009+30200-085683NSRDB+000699999V020999999999999999999999999999+99999+99999999999ADDGP10060000002008000002015000002008GQ100600882909719GR100600014904459
0054722245999992000100810009+30200-085683NSRDB+000699999V020999999999999999999999999999+99999+99999999999ADDGP10060000002000000002000000002000GR100600000900009
0146722245999992000100922534+30220-085680FM-15+0006KPFN V0200201N005112200019N0160931N1+01601-00101102531ADDGF100991999999999999999999MA1102541999999MW1001REMMET068KPFN 092253Z 02010KT 10SM CLR 16/M01 A3028 RMK AO2 SLP253 T01561006;EQDQ01+000000PRSWM2
0155722245999992000101210534+30220-085680FM-15+0006KPFN V0209999C000012200019N0160931N1+00801+00601102561ADDGF100991999999999999999999MA1102571999999MW1001REMMET077KPFN 121053Z AUTO 00000KT 10SM CLR 08/06 A3029 RMK AO2 SLP256 T00780056 TSNO;EQDQ01+000000PRSWM2
0165722245999992000101402534+30220-085680FM-15+0006KPFN V0201301N001512200019N0160931N1+01701+00801102311ADDGF100991999999999999999999MA1102301999999MD1110111+9999MW1001REMMET073KPFN 140253Z 13003KT 10SM CLR 17/08 A3021 RMK AO2 SLP231 T01720083 51011;EQDQ01+000000PRSWM2
0175722245999992000101408534+30220-085680FM-15+0006KPFN V0201201N002612200019N0160931N1+01301+00801102221ADDGF100991999999999999999999MA1102241999999MD1810081+9999MW1001REMMET083KPFN 140853Z AUTO 12005KT 10SM CLR 13/08 A3019 RMK AO2 SLP222 T01280078 58008 TSNO;EQDQ01+000000PRSWM2
0071722245999992000101423009+30200-085683NSRDB+000699999V020999999999999999999999999999+99999+99999999999ADDGP10060008402008032502015003702008GQ100600818925519GR100600197913759
0054722245999992000101802009+30200-085683NSRDB+000699999V020999999999999999999999999999+99999+99999999999ADDGP10060000002000000002000000002000GR100600000900009
0071722245999992000102114009+30200-085683NSRDB+000699999V020999999999999999999999999999+99999+99999999999ADDGP10060020202008014702015015202008GQ100600703911639GR100600465913819
0156722245999992000102319534+30220-085680FM-15+0006KPFN V0200601N003612200019N0160931N1+02801+01401102601ADDGF100991999999999999999999MA1102611999999MW1001REMMET078KPFN 231953Z 06007KT 10SM CLR 28/14 A3030 RMK AO2 WSHFT 1926 SLP260 T02780144;EQDQ01+000000PRSWM2
0071722245999992000102823009+30200-085683NSRDB+000699999V020999999999999999999999999999+99999+99999999999ADDGP10060004302008020102015002402008GQ100600845925109GR100600127913289
0054722245999992000110105009+30200-085683NSRDB+000699999V020999999999999999999999999999+99999+99999999999ADDGP10060000002000000002000000002000GR100600000900009
0054722245999992000110410009+30200-085683NSRDB+000699999V020999999999999999999999999999+99999+99999999999ADDGP10060000002000000002000000002000GR100600000900009
0183722245999992000110414534+30220-085680FM-15+0006KPFN V0203601N003112200019N0096561N1+02301+01801101881ADDGF100991999999999999999999MA1101901999999MD1310061+9999MW1051REMMET075KPFN 041453Z 36006KT 6SM HZ CLR 23/18 A3009 RMK AO2 SLP188 T02280183 53006;EQDQ01+000003PRSWM1Q02    003PRSWM1
0071722245999992000110422009+30200-085683NSRDB+000699999V020999999999999999999999999999+99999+99999999999ADDGP10060015702008018502015010802008GQ100600744924089GR100600373913919
0232722245999992000110717534+30220-085680FM-15+0006KPFN V0201701N004612200019N0160931N1+02801+02101101351ADDGD12991+0075019GF104991999999999999999999KA1999M+02831KA2999N+02391MA1101351999999MD1810031+9999MW1001OC100871REMMET091KPFN 071753Z 17009G17KT 10SM SCT025 28/21 A2993 RMK AO2 SLP135 T02780206 10283 20239 58003;EQDQ01+000000PRSWM2
0163722245999992000111303534+30220-085680FM-15+0006KPFN V0201101N002112200019N0160931N1+01601+01401101511ADDGD12991+0078019GF102991999999999999999999MA1101491999999MW1001REMMET070KPFN 130353Z 11004KT 10SM FEW026 16/14 A2997 RMK AO2 SLP151 T01610144;EQDQ01+000000PRSWM2
0071722245999992000111314009+30200-085683NSRDB+000699999V020999999999999999999999999999+99999+99999999999ADDGP10060012002008001302015011702008GQ100600747912229GR100600367913979
0071722245999992000111421009+30200-085683NSRDB+000699999V020999999999999999999999999999+99999+99999999999ADDGP10060036902008070002015008002008GQ100600656922819GR100600576913989
0071722245999992000111514009+30200-085683NSRDB+000699999V020999999999999999999999999999+99999+99999999999ADDGP10060021002008043102015009902008GQ100600751912269GR100600359913999
0071722245999992000111722009+30200-085683NSRDB+000699999V020999999999999999999999999999+99999+99999999999ADDGP10060008302008000002015008302008GQ100600763923779GR100600330914009
0220722245999992000111810534+30220-085680FM-15+0006KPFN V0200501N005710111019N0160931N1+00901+00801102191ADDAA101000021GD13991+0111019GD24991+0210019GF108991999999999999999999MA1102201999999MW1001REMMET101KPFN 181053Z AUTO 05011KT 10SM BKN037 OVC070 09/08 A3018 RMK AO2 RAE43 SLP219 P0000 T00940083 TSNO $;EQDQ01+000000PRSWM2
0222722245999992000111901534+30220-085680FM-15+0006KPFN V0200701N006210135019N0160931N1+00701+00701102111ADDAA101000591GD12991+0030019GD24991+0135019GF108991999999999999999999MA1102101999999MW1001REMMET103KPFN 190153Z 07012KT 10SM SCT010 OVC045 07/07 A3015 RMK AO2 RAB0056E47 PRESRR SLP211 P0002 T00720067 $;EQDQ01+000000PRSWM2
0170722245999992000111909424+30220-085680FM-16+0006KPFN V0200401N004610063019N0160931N1+00801+00701999999ADDGD12991+0021019GD24991+0063019GF108991999999999999999999MA1101631999999MW1001REMMET062KPFN 190942Z 04009KT 10SM SCT007 OVC021 08/07 A3001 RMK AO2 $;EQDQ01+000000PRSWM2
0071722245999992000112219009+30200-085683NSRDB+000699999V020999999999999999999999999999+99999+99999999999ADDGP10060054402008063902015015602008GQ100600527919809GR100600849914039
0054722245999992000112305009+30200-085683NSRDB+000699999V020999999999999999999999999999+99999+99999999999ADDGP10060000002000000002000000002000GR100600000900009
0145722245999992000112319534+30220-085680FM-15+0006KPFN V0201901N003112200019N0160931N1+01501+00201102391ADDGF100991999999999999999999MA1102401999999MW1001REMMET067KPFN 231953Z 19006KT 10SM CLR 15/02 A3024 RMK AO2 SLP239 T01500022;EQDQ01+000000PRSWM2
0054722245999992000112608009+30200-085683NSRDB+000699999V020999999999999999999999999999+99999+99999999999ADDGP10060000002000000002000000002000GR100600000900009
0054722245999992000112711009+30200-085683NSRDB+000699999V020999999999999999999999999999+99999+99999999999ADDGP10060000002000000002000000002000GR100600000900009
0054722245999992000112808009+30200-085683NSRDB+000699999V020999999999999999999999999999+99999+99999999999ADDGP10060000002000000002000000002000GR100600000900009
0071722245999992000112823009+30200-085683NSRDB+000699999V020999999999999999999999999999+99999+99999999999ADDGP10060000702008001302015000602008GQ100600863924269GR100600061909499
0071722245999992000120214009+30200-085683NSRDB+000699999V020999999999999999999999999999+99999+99999999999ADDGP10060008902008000002015008902008GQ100600782912459GR100600288914089
0213722245999992000120405534+30220-085680FM-15+0006KPFN V0200501N006212200019N0160931N1+00401+00101102911ADDGF100991999999999999999999KA1999M+00671KA2999N+00391MA1102911999999MD1010011+9999MW1001REMMET095KPFN 040553Z 05012KT 10SM CLR 04/01 A3039 RMK AO2 SLP291 T00390011 10067 20039 401220039 50001;EQDQ01+000000PRSWM2
0054722245999992000120410009+30200-085683NSRDB+000699999V020999999999999999999999999999+99999+99999999999ADDGP10060000002000000002000000002000GR100600000900009
0054722245999992000120707009+30200-085683NSRDB+000699999V020999999999999999999999999999+99999+99999999999ADDGP10060000002000000002000000002000GR100600000900009
0071722245999992000120817009+30200-085683NSRDB+000699999V020999999999999999999999999999+99999+99999999999ADDGP10060029302008003002015027502008GQ100600554916189GR100600801914109
0183722245999992000121112534+30220-085680FM-15+0006KPFN V0200701N002610006019N0012071N1+01301+01301101971ADDGD14991+0006019GF108991999999999999999999MA1101961999999MW1101REMMET074KPFN 111253Z 07005KT 3/4SM BR OVC002 13/13 A3011 RMK AO2 SLP197 T01280128;EQDQ01+000003PRSWM1Q02    003PRSWM1
0193722245999992000121118534+30220-085680FM-15+0006KPFN V0209999C00001002101CN0064371N1+01801+01601101741ADDGD13991+0024019GF107991999999999999999999MA1101731999999MW1051REMMET084KPFN 111853Z 00000KT 4SM HZ BKN008 18/16 A3004 RMK AO2 CIG 007V012 SLP174 T01830156;EQDQ01+000003PRSWM1Q02    003PRSWM1
0054722245999992000121211009+30200-085683NSRDB+000699999V020999999999999999999999999999+99999+99999999999ADDGP10060000002000000002000000002000GR100600000900009
0205722245999992000121314534+30220-085680FM-15+0006KPFN V0201101N003610210019N0160931N1+01301+00501102501ADDGD12991+0033019GD24991+0210019GF108991999999999999999999MA1102511999999MD1310181+9999MW1001REMMET083KPFN 131453Z 11007KT 10SM SCT011 OVC070 13/05 A3027 RMK AO2 SLP250 T01330050 53018;EQDQ01+000000PRSWM2
0193722245999992000121400534+30220-085680FM-15+0006KPFN V0201501N00261001801CN0080461N1+01901+01801102261ADDGD14991+0021019GF108991999999999999999999MA1102271999999MW1101REMMET084KPFN 140053Z 15005KT 5SM BR OVC007 19/18 A3020 RMK AO2 CIG 006V012 SLP226 T01890178;EQDQ01+000003PRSWM1Q02    003PRSWM1
0054722245999992000121511009+30200-085683NSRDB+000699999V020999999999999999999999999999+99999+99999999999ADDGP10060000002000000002000000002000GR100600000900009
0071722245999992000121518009+30200-085683NSRDB+000699999V020999999999999999999999999999+99999+99999999999ADDGP10060035702008011402015028902008GQ100600537917779GR100600837914129
0054722245999992000121700009+30200-085683NSRDB+000699999V020999999999999999999999999999+99999+99999999999ADDGP10060000002000000002000000002000GR100600000900009
0054722245999992000121807009+30200-085683NSRDB+000699999V020999999999999999999999999999+99999+99999999999ADDGP10060000002000000002000000002000GR100600000900009
0267722245999992000121907534+30220-085680FM-15+0006KPFN V0203501N00671001801CN0112651N1+00701+00701101711ADDAA101000891GD13991+0024019GD24991+0087019GF108991999999999999999999MA1101731999999MW1001OC100981REMMET140KPFN 190753Z AUTO 35013G19KT 7SM BKN008 OVC029 07/07 A3004 RMK AO2 PK WND 36026/0713 RAE44 CIG 006V011 PRESRR SLP171 P0003 T00720067 TSNO $;EQDQ01+000000PRSWM2
0195722245999992000121920534+30220-085680FM-15+0006KPFN V0203301N008710180019N0160931N1+00601-00401101811ADDGD13991+0180019GF107991999999999999999999MA1101831999999MD1510111+9999MW1001OC101231REMMET080KPFN 192053Z 33017G24KT 10SM BKN060 06/M04 A3007 RMK AO2 SLP181 T00611044 55011;EQDQ01+000000PRSWM2
0176722245999992000122000534+30220-085680FM-15+0006KPFN V0203201N009312200019N0160931N1-00101-00901102351ADDGD12991+0120019GF102991999999999999999999MA1102341999999MW1001OC101131REMMET075KPFN 200053Z 32018G22KT 10SM FEW040 M01/M09 A3022 RMK AO2 SLP235 T10061089;EQDQ01+000000PRSWM2
0054722245999992000122405009+30200-085683NSRDB+000699999V020999999999999999999999999999+99999+99999999999ADDGP10060000002000000002000000002000GR100600000900009
0146722245999992000122918424+30220-085680FM-16+0006KPFN V0203501N002110048019N0160931N1+00701+00301999999ADDGD14991+0048019GF108991999999999999999999MA1101631999999MW1001REMMET053KPFN 291842Z 35004KT 10SM OVC016 07/03 A3001 RMK AO2;EQDQ01+000000PRSWM2
0146722245999992000123119534+30220-085680FM-15+0006KPFN V0202901N003112200019N0160931N1+00501-00601102621ADDGF100991999999999999999999MA1102611999999MW1001REMMET068KPFN 311953Z 29006KT 10SM CLR 05/M06 A3030 RMK AO2 SLP262 T00501061;EQDQ01+000000PRSWM2
0071722246999992000010113009+30650-086533NSRDB+005899999V020999999999999999999999999999+99999+99999999999ADDGP10060000002008000002015000002008GQ100600888911769GR100600008903669
