0103745944937842000041210544+39280-076620FM-16+0006KDMH V02099999999992200019N9999999N1+99999+99999102051ADDMW1001REMMET066KDMH 121054Z AUTO 13/09 A3014 RMK AO2 SLP205 T01280089 PWINO TSNO;EQDQ01+000000PRSWM2
0154745944937842000041306005+39283-076617FM-15+0006DMH  V02099999999999999999N000000599+00675-00335103325ADDGD10995+9999999MA1103325999999EQDN01 00999JALM1 3QNNAA1D0 00999BA1 3 00999KA1D0 00026JA1 0-00033LA1 0 00000CA1 0 03051QA1 0 10332SA1D0 00044RA1 0 00067
0154745944937842000041320005+39283-076617FM-15+0006DMH  V02099999999999999999N000000599+01005-00335103155ADDGD10995+9999999MA1103155999999EQDN01 00999JALM1 3QNNAA1D0 00999BA1 3 00999KA1D0 00026JA1 0-00033LA1 0 00000CA1 0 03046QA1 0 10315SA1D0 00050RA1 0 00100
0154745944937842000041323005+39283-076617FM-15+0006DMH  V02099999999999999999N000000599+00945-00445103015ADDGD10995+9999999MA1103015999999EQDN01 00999JALM1 3QNNAA1D0 00999BA1 3 00999KA1D0 00024JA1 0-00044LA1 0 00000CA1 0 03042QA1 0 10301SA1D0 00049RA1 0 00094
0154745944937842000041523005+39283-076617FM-15+0006DMH  V02099999999999999999N000000599+01615+01565101755ADDGD10995+9999999MA1101765999999EQDN01 00999JALM1 3QNNAA1D0 00999BA1 3 00999KA1D0 00060JA1 0 00156LA1 0 00000CA1 0 03005QA1 0 10175SA1D0 00061RA1 0 00161
0109745944937842000041715544+39280-076620FM-16+0006KDMH V02099999999992200019N9999999N1+99999+99999101781ADDMW1001REMMET072KDMH 171554Z AUTO 11/11 A3006 RMK AO2 SLP178 P0004 T01110106 PWINO TSNO;EQDQ01+000000PRSWM2
0154745944937842000041814005+39283-076617FM-15+0006DMH  V02099999999999999999N000000599+00725+00675101495ADDGD10995+9999999MA1101495999999EQDN01 00999JALM1 3QNNAA1D0 00999BA1 3 00999KA1D0 00044JA1 0 00067LA1 0 00000CA1 0 02997QA1 0 10149SA1D0 00045RA1 0 00072
0154745944937842000041902005+39283-076617FM-15+0006DMH  V02099999999999999999N000000599+00895+00675101575ADDGD10995+9999999MA1101595999999EQDN01 00999JALM1 3QNNAA1D0 00999BA1 3 00999KA1D0 00044JA1 0 00067LA1 0 00000CA1 0 03000QA1 0 10157SA1D0 00048RA1 0 00089
0103745944937842000042403544+39280-076620FM-16+0006KDMH V02099999999992200019N9999999N1+99999+99999100951ADDMW1001REMMET066KDMH 240354Z AUTO 12/06 A2981 RMK AO2 SLP095 T01170056 PWINO TSNO;EQDQ01+000000PRSWM2
0154745944937842000042412005+39283-076617FM-15+0006DMH  V02099999999999999999N000000599+01115+00395101265ADDGD10995+9999999MA1101295999999EQDN01 00999JALM1 3QNNAA1D0 00999BA1 3 00999KA1D0 00039JA1 0 00039LA1 0 00000CA1 0 02991QA1 0 10126SA1D0 00052RA1 0 00111
0154745944937842000042707005+39283-076617FM-15+0006DMH  V02099999999999999999N000000599+00835+00615101725ADDGD10995+9999999MA1101735999999EQDN01 00999JALM1 3QNNAA1D0 00999BA1 3 00999KA1D0 00043JA1 0 00061LA1 0 00000CA1 0 03004QA1 0 10172SA1D0 00047RA1 0 00083
0103745944937842000042813544+39280-076620FM-16+0006KDMH V02099999999992200019N9999999N1+99999+99999101431ADDMW1001REMMET066KDMH 281354Z AUTO 11/10 A2996 RMK AO2 SLP143 T01110100 PWINO TSNO;EQDQ01+000000PRSWM2
0154745944937842000043004005+39283-076617FM-15+0006DMH  V02099999999999999999N000000599+01675+00505101425ADDGD10995+9999999MA1101425999999EQDN01 00999JALM1 3QNNAA1D0 00999BA1 3 00999KA1D0 00041JA1 0 00050LA1 0 00000CA1 0 02995QA1 0 10142SA1D0 00062RA1 0 00167
0154745944937842000050222005+39283-076617FM-15+0006DMH  V02099999999999999999N000000599+02065+00895101825ADDGD10995+9999999MA1101835999999EQDN01 00999JALM1 3QNNAA1D0 00999BA1 3 00999KA1D0 00048JA1 0 00089LA1 0 00000CA1 0 03007QA1 0 10182SA1D0 00069RA1 0 00206
0105745944937842000050721544+39280-076620FM-16+0006KDMH V02099999999992200019N9999999N1+99999+99999101251ADDMW1001REMMET068KDMH 072154Z AUTO 33/19 A2990 RMK AO2 SLP125 T03280189 PWINO TSNO $;EQDQ01+000000PRSWM2
0123745944937842000052202544+39280-076620FM-16+0006KDMH V02099999999992200019N9999999N1+99999+99999101571ADDMD1010061+9999MW1001REMMET072KDMH 220254Z AUTO 17/15 A3000 RMK AO2 SLP157 T01720150 50006 PWINO TSNO;EQDQ01+000000PRSWM2
0154745944937842000052311005+39283-076617FM-15+0006DMH  V02099999999999999999N000000599+01565+01395101055ADDGD10995+9999999MA1101055999999EQDN01 00999JALM1 3QNNAA1D0 00999BA1 3 00999KA1D0 00057JA1 0 00139LA1 0 00000CA1 0 02984QA1 0 10105SA1D0 00060RA1 0 00156
0096745944937842000052801544+39280-076620FM-16+0006KDMH V02099999999992200019N9999999N1+99999+99999101331ADDMW1001REMMET059KDMH 280154Z AUTO A2992 RMK AO2 SLP133 PWINO FZRANO TSNO $;EQDQ01+000000PRSWM2
0110745944937842000052909005+39283-076617FM-15+0006DMH  V02099999999999999999N000000599+99999+99999101135ADDGD10995+9999999MA1101125999999EQDN01 00999JALM1 3QNNAA1D0 00999BA1 3 00999LA1 0 00000CA1 0 02986QA1 0 10113
0103745944937842000053016544+39280-076620FM-16+0006KDMH V02099999999992200019N9999999N1+99999+99999102491ADDMW1001REMMET066KDMH 301654Z AUTO 18/09 A3027 RMK AO2 SLP249 T01780089 PWINO TSNO;EQDQ01+000000PRSWM2
0154745944937842000060410005+39283-076617FM-15+0006DMH  V02099999999999999999N000000599+01725+01285101975ADDGD10995+9999999MA1101965999999EQDN01 00999JALM1 3QNNAA1D0 00999BA1 3 00999KA1D0 00055JA1 0 00128LA1 0 00000CA1 0 03011QA1 0 10197SA1D0 00063RA1 0 00172
0163745944937842000060417544+39280-076620FM-16+0006KDMH V02099999999999999999N9999999N1+99999+99999101901ADDKA1999M+02331KA2999N+01721MD1610111+9999MW1001REMMET086KDMH 041754Z AUTO 22/13 A3009 RMK AO2 SLP190 T02170128 10233 20172 56011 PWINO TSNO $;EQDQ01+000000PRSWM2
0125745944937842000060508544+39280-076620FM-16+0006KDMH V02099999999992200019N9999999N1+99999+99999101731ADDMD1510041+9999MW1001REMMET074KDMH 050854Z AUTO 17/14 A3004 RMK AO2 SLP173 T01670139 55004 PWINO TSNO $;EQDQ01+000000PRSWM2
0154745944937842000061305005+39283-076617FM-15+0006DMH  V02099999999999999999N000000599+02115+01895101965ADDGD10995+9999999MA1101965999999EQDN01 00999JALM1 3QNNAA1D0 00999BA1 3 00999KA1D0 00066JA1 0 00189LA1 0 00000CA1 0 03011QA1 0 10196SA1D0 00070RA1 0 00211
0103745944937842000061913544+39280-076610FM-16+0006KDMH V02099999999992200019N9999999N1+99999+99999102141ADDMW1001REMMET066KDMH 191354Z AUTO 21/16 A3016 RMK AO2 SLP214 T02110156 PWINO TSNO;EQDQ01+000000PRSWM2
0167745944937842000062311544+39280-076610FM-16+0006KDMH V02099999999999999999N9999999N1+99999+99999101421ADDKA1999M+02561KA2999N+02281MD1110231+9999MW1001REMMET090KDMH 231154Z AUTO 26/15 A2995 RMK AO2 SLP142 70002 T02560150 10256 20228 51023 PWINO TSNO;EQDQ01+000000PRSWM2
0103745944937842000062516544+39280-076610FM-16+0006KDMH V02099999999992200019N9999999N1+99999+99999101521ADDMW1001REMMET066KDMH 251654Z AUTO 33/21 A2998 RMK AO2 SLP152 T03280206 PWINO TSNO;EQDQ01+000000PRSWM2
0103745944937842000062721544+39280-076610FM-16+0006KDMH V02099999999992200019N9999999N1+99999+99999101471ADDMW1001REMMET066KDMH 272154Z AUTO 28/20 A2997 RMK AO2 SLP147 T02780200 PWINO TSNO;EQDQ01+000000PRSWM2
0173745944937842000062811544+39280-076610FM-16+0006KDMH V02099999999999999999N9999999N1+99999+99999101641ADDKA1999M+02441KA2999N+02171MD1310031+9999MW1001REMMET096KDMH 281154Z AUTO 23/19 A3002 RMK AO2 SLP164 60010 70010 T02330189 10244 20217 53003 PWINO TSNO;EQDQ01+000000PRSWM2
0103745944937842000070109544+39280-076610FM-16+0006KDMH V02099999999992200019N9999999N1+99999+99999101701ADDMW1001REMMET066KDMH 010954Z AUTO 21/12 A3003 RMK AO2 SLP170 T02110117 PWINO TSNO;EQDQ01+000000PRSWM2
0154745944937842000070112005+39283-076617FM-15+0006DMH  V02099999999999999999N000000599+02285+01225101795ADDGD10995+9999999MA1101795999999EQDN01 00999JALM1 3QNNAA1D0 00999BA1 3 00999KA1D0 00054JA1 0 00122LA1 0 00000CA1 0 03006QA1 0 10179SA1D0 00073RA1 0 00228
0103745944937842000070216544+39280-076610FM-16+0006KDMH V02099999999992200019N9999999N1+99999+99999101831ADDMW1001REMMET066KDMH 021654Z AUTO 30/15 A3007 RMK AO2 SLP183 T03000150 PWINO TSNO;EQDQ01+000000PRSWM2
0161745944937842000070705544+39280-076610FM-16+0006KDMH V02099999999999999999N9999999N1+99999+99999101351ADDKA1999M+02671KA2999N+02331MD1310071+9999MW1001REMMET084KDMH 070554Z AUTO 23/12 A2993 RMK AO2 SLP135 T02330117 10267 20233 53007 PWINO TSNO;EQDQ01+000000PRSWM2
0103745944937842000071603544+39280-076610FM-16+0006KDMH V02099999999992200019N9999999N1+99999+99999100661ADDMW1001REMMET066KDMH 160354Z AUTO 21/19 A2973 RMK AO2 SLP066 T02110194 PWINO TSNO;EQDQ01+000000PRSWM2
0109745944937842000072000544+39280-076610FM-16+0006KDMH V02099999999992200019N9999999N1+99999+99999101281ADDMW1001REMMET072KDMH 200054Z AUTO 18/17 A2991 RMK AO2 SLP128 P0002 T01780172 PWINO TSNO;EQDQ01+000000PRSWM2
0103745944937842000072303544+39280-076610FM-16+0006KDMH V02099999999992200019N9999999N1+99999+99999101821ADDMW1001REMMET066KDMH 230354Z AUTO 24/17 A3007 RMK AO2 SLP182 T02390172 PWINO TSNO;EQDQ01+000000PRSWM2
0135745944937842000072408544+39280-076610FM-16+0006KDMH V02099999999992200019N9999999N1+99999+99999101981ADDMD1610021+9999MW1001REMMET084KDMH 240854Z AUTO 22/17 A3012 RMK AO2 SLP198 P0001 60001 T02170167 56002 PWINO TSNO;EQDQ01+000000PRSWM2
0154745944937842000072614005+39283-076617FM-15+0006DMH  V02099999999999999999N000000599+01945+01895102125ADDGD10995+9999999MA1102135999999EQDN01 00999JALM1 3QNNAA1D0 00999BA1 3 00999KA1D0 00066JA1 0 00189LA1 0 00000CA1 0 03016QA1 0 10212SA1D0 00067RA1 0 00194
0154745944937842000072807005+39283-076617FM-15+0006DMH  V02099999999999999999N000000599+02285+02065101745ADDGD10995+9999999MA1101765999999EQDN01 00999JALM1 3QNNAA1D0 00999BA1 3 00999KA1D0 00069JA1 0 00206LA1 0 00000CA1 0 03005QA1 0 10174SA1D0 00073RA1 0 00228
0154745944937842000073008005+39283-076617FM-15+0006DMH  V02099999999999999999N000000599+02445+02335101715ADDGD10995+9999999MA1101735999999EQDN01 00999JALM1 3QNNAA1D0 00999BA1 3 00999KA1D0 00074JA1 0 00233LA1 0 00000CA1 0 03004QA1 0 10171SA1D0 00076RA1 0 00244
0154745944937842000080316005+39283-076617FM-15+0006DMH  V02099999999999999999N000000599+02615+02335101635ADDGD10995+9999999MA1101635999999EQDN01 00999JALM1 3QNNAA1D0 00999BA1 3 00999KA1D0 00074JA1 0 00233LA1 0 00000CA1 0 03001QA1 0 10163SA1D0 00079RA1 0 00261
0103745944937842000080507544+39280-076610FM-16+0006KDMH V02099999999992200019N9999999N1+99999+99999101521ADDMW1001REMMET066KDMH 050754Z AUTO 22/18 A2998 RMK AO2 SLP152 T02170178 PWINO TSNO;EQDQ01+000000PRSWM2
0154745944937842000080516005+39283-076617FM-15+0006DMH  V02099999999999999999N000000599+02505+01175101735ADDGD10995+9999999MA1101735999999EQDN01 00999JALM1 3QNNAA1D0 00999BA1 3 00999KA1D0 00053JA1 0 00117LA1 0 00000CA1 0 03004QA1 0 10173SA1D0 00077RA1 0 00250
0154745944937842000080602005+39283-076617FM-15+0006DMH  V02099999999999999999N000000599+02505+01065101745ADDGD10995+9999999MA1101735999999EQDN01 00999JALM1 3QNNAA1D0 00999BA1 3 00999KA1D0 00051JA1 0 00106LA1 0 00000CA1 0 03004QA1 0 10174SA1D0 00077RA1 0 00250
0154745944937842000080611005+39283-076617FM-15+0006DMH  V02099999999999999999N000000599+02065+01675101745ADDGD10995+9999999MA1101765999999EQDN01 00999JALM1 3QNNAA1D0 00999BA1 3 00999KA1D0 00062JA1 0 00167LA1 0 00000CA1 0 03005QA1 0 10174SA1D0 00069RA1 0 00206
0154745944937842000080619005+39283-076617FM-15+0006DMH  V02099999999999999999N000000599+02395+02225101555ADDGD10995+9999999MA1101565999999EQDN01 00999JALM1 3QNNAA1D0 00999BA1 3 00999KA1D0 00072JA1 0 00222LA1 0 00000CA1 0 02999QA1 0 10155SA1D0 00075RA1 0 00239
0154745944937842000081008005+39283-076617FM-15+0006DMH  V02099999999999999999N000000599+02505+01895101075ADDGD10995+9999999MA1101085999999EQDN01 00999JALM1 3QNNAA1D0 00999BA1 3 00999KA1D0 00066JA1 0 00189LA1 0 00000CA1 0 02985QA1 0 10107SA1D0 00077RA1 0 00250
0103745944937842000081200544+39280-076610FM-16+0006KDMH V02099999999992200019N9999999N1+99999+99999101201ADDMW1001REMMET066KDMH 120054Z AUTO 27/19 A2989 RMK AO2 SLP120 T02670189 PWINO TSNO;EQDQ01+000000PRSWM2
0103745944937842000081207544+39280-076610FM-16+0006KDMH V02099999999992200019N9999999N1+99999+99999101201ADDMW1001REMMET066KDMH 120754Z AUTO 22/17 A2989 RMK AO2 SLP120 T02170167 PWINO TSNO;EQDQ01+000000PRSWM2
0154745944937842000081821005+39283-076617FM-15+0006DMH  V02099999999999999999N000000599+02115+01895101195ADDGD10995+9999999MA1101195999999EQDN01 00999JALM1 3QNNAA1D0 00999BA1 3 00999KA1D0 00066JA1 0 00189LA1 0 00000CA1 0 02988QA1 0 10119SA1D0 00070RA1 0 00211
0154745944937842000082110005+39283-076617FM-15+0006DMH  V02099999999999999999N000000599+01615+00895102565ADDGD10995+9999999MA1102575999999EQDN01 00999JALM1 3QNNAA1D0 00999BA1 3 00999KA1D0 00048JA1 0 00089LA1 0 00000CA1 0 03029QA1 0 10256SA1D0 00061RA1 0 00161
0154745944937842000082113005+39283-076617FM-15+0006DMH  V02099999999999999999N000000599+01895+00945102755ADDGD10995+9999999MA1102785999999EQDN01 00999JALM1 3QNNAA1D0 00999BA1 3 00999KA1D0 00049JA1 0 00094LA1 0 00000CA1 0 03035QA1 0 10275SA1D0 00066RA1 0 00189
0161745944937842000082217544+39280-076610FM-16+0006KDMH V02099999999999999999N9999999N1+99999+99999102551ADDKA1999M+02671KA2999N+01891MD1810161+9999MW1001REMMET084KDMH 221754Z AUTO 27/14 A3029 RMK AO2 SLP255 T02670144 10267 20189 58016 PWINO TSNO;EQDQ01+000000PRSWM2
0154745944937842000082404005+39283-076617FM-15+0006DMH  V02099999999999999999N000000599+02335+02005101715ADDGD10995+9999999MA1101735999999EQDN01 00999JALM1 3QNNAA1D0 00999BA1 3 00999KA1D0 00068JA1 0 00200LA1 0 00000CA1 0 03004QA1 0 10171SA1D0 00074RA1 0 00233
0109745944937842000082803544+39280-076610FM-16+0006KDMH V02099999999992200019N9999999N1+99999+99999101471ADDMW1001REMMET072KDMH 280354Z AUTO 21/20 A2997 RMK AO2 SLP147 P0001 T02060200 PWINO TSNO;EQDQ01+000000PRSWM2
0154745944937842000082900005+39283-076617FM-15+0006DMH  V02099999999999999999N000000599+02335+02115101785ADDGD10995+9999999MA1101795999999EQDN01 00999JALM1 3QNNAA1D0 00999BA1 3 00999KA1D0 00070JA1 0 00211LA1 0 00000CA1 0 03006QA1 0 10178SA1D0 00074RA1 0 00233
0154745944937842000083114005+39283-076617FM-15+0006DMH  V02099999999999999999N000000599+02505+02285101995ADDGD10995+9999999MA1102005999999EQDN01 00999JALM1 3QNNAA1D0 00999BA1 3 00999KA1D0 00073JA1 0 00228LA1 0 00000CA1 0 03012QA1 0 10199SA1D0 00077RA1 0 00250
0154745944937842000090418005+39283-076617FM-15+0006DMH  V02099999999999999999N000000599+02945+02225101075ADDGD10995+9999999MA1101085999999EQDN01 00999JALM1 3QNNAA1D0 00999BA1 3 00999KA1D0 00072JA1 0 00222LA1 0 00000CA1 0 02985QA1 0 10107SA1D0 00085RA1 0 00294
0154745944937842000090421005+39283-076617FM-15+0006DMH  V02099999999999999999N000000599+02945+02005100915ADDGD10995+9999999MA1100915999999EQDN01 00999JALM1 3QNNAA1D0 00999BA1 3 00999KA1D0 00068JA1 0 00200LA1 0 00000CA1 0 02980QA1 0 10091SA1D0 00085RA1 0 00294
0154745944937842000090518005+39283-076617FM-15+0006DMH  V02099999999999999999N000000599+02065+00785102505ADDGD10995+9999999MA1102515999999EQDN01 00999JALM1 3QNNAA1D0 00999BA1 3 00999KA1D0 00046JA1 0 00078LA1 0 00000CA1 0 03027QA1 0 10250SA1D0 00069RA1 0 00206
0154745944937842000090817005+39283-076617FM-15+0006DMH  V02099999999999999999N000000599+02445+01565102155ADDGD10995+9999999MA1102175999999EQDN01 00999JALM1 3QNNAA1D0 00999BA1 3 00999KA1D0 00060JA1 0 00156LA1 0 00000CA1 0 03017QA1 0 10215SA1D0 00076RA1 0 00244
0154745944937842000090904005+39283-076617FM-15+0006DMH  V02099999999999999999N000000599+02285+01725102015ADDGD10995+9999999MA1102035999999EQDN01 00999JALM1 3QNNAA1D0 00999BA1 3 00999KA1D0 00063JA1 0 00172LA1 0 00000CA1 0 03013QA1 0 10201SA1D0 00073RA1 0 00228
0105745944937842000091003544+39280-076610FM-16+0006KDMH V02099999999992200019N9999999N1+99999+99999101981ADDMW1001REMMET068KDMH 100354Z AUTO 24/20 A3012 RMK AO2 SLP198 T02390200 PWINO TSNO $;EQDQ01+000000PRSWM2
0154745944937842000091022005+39283-076617FM-15+0006DMH  V02099999999999999999N000000599+02835+01895101915ADDGD10995+9999999MA1101935999999EQDN01 00999JALM1 3QNNAA1D0 00999BA1 3 00999KA1D0 00066JA1 0 00189LA1 0 00000CA1 0 03010QA1 0 10191SA1D0 00083RA1 0 00283
0154745944937842000091413005+39283-076617FM-15+0006DMH  V02099999999999999999N000000599+02065+01065101605ADDGD10995+9999999MA1101635999999EQDN01 00999JALM1 3QNNAA1D0 00999BA1 3 00999KA1D0 00051JA1 0 00106LA1 0 00000CA1 0 03001QA1 0 10160SA1D0 00069RA1 0 00206
0154745944937842000091805005+39283-076617FM-15+0006DMH  V02099999999999999999N000000599+01675+01065101895ADDGD10995+9999999MA1101905999999EQDN01 00999JALM1 3QNNAA1D0 00999BA1 3 00999KA1D0 00051JA1 0 00106LA1 0 00000CA1 0 03009QA1 0 10189SA1D0 00062RA1 0 00167
0167745944937842000092017544+39280-076610FM-16+0006KDMH V02099999999999999999N9999999N1+99999+99999101291ADDKA1999M+03001KA2999N+01611MD1810221+9999MW1001REMMET090KDMH 201754Z AUTO 30/17 A2991 RMK AO2 SLP129 60001 T03000167 10300 20161 58022 PWINO TSNO;EQDQ01+000000PRSWM2
0109745944937842000092507544+39280-076610FM-16+0006KDMH V02099999999992200019N9999999N1+99999+99999101321ADDMW1001REMMET072KDMH 250754Z AUTO 15/12 A2992 RMK AO2 SLP132 P0001 T01500122 PWINO TSNO;EQDQ01+000000PRSWM2
0103745944937842000092818544+39280-076610FM-16+0006KDMH V02099999999992200019N9999999N1+99999+99999102071ADDMW1001REMMET066KDMH 281854Z AUTO 23/13 A3014 RMK AO2 SLP207 T02280128 PWINO TSNO;EQDQ01+000000PRSWM2
0154745944937842000100217005+39283-076617FM-15+0006DMH  V02099999999999999999N000000599+02285+01445101515ADDGD10995+9999999MA1101525999999EQDN01 00999JALM1 3QNNAA1D0 00999BA1 3 00999KA1D0 00058JA1 0 00144LA1 0 00000CA1 0 02998QA1 0 10151SA1D0 00073RA1 0 00228
0154745944937842000100300005+39283-076617FM-15+0006DMH  V02099999999999999999N000000599+02175+01335101265ADDGD10995+9999999MA1101295999999EQDN01 00999JALM1 3QNNAA1D0 00999BA1 3 00999KA1D0 00056JA1 0 00133LA1 0 00000CA1 0 02991QA1 0 10126SA1D0 00071RA1 0 00217
0161745944937842000100305544+39280-076610FM-16+0006KDMH V02099999999999999999N9999999N1+99999+99999101221ADDKA1999M+02171KA2999N+01721MD1610031+9999MW1001REMMET084KDMH 030554Z AUTO 17/14 A2989 RMK AO2 SLP122 T01720139 10217 20172 56003 PWINO TSNO;EQDQ01+000000PRSWM2
0154745944937842000100620005+39283-076617FM-15+0006DMH  V02099999999999999999N000000599+02445+01725101035ADDGD10995+9999999MA1101055999999EQDN01 00999JALM1 3QNNAA1D0 00999BA1 3 00999KA1D0 00063JA1 0 00172LA1 0 00000CA1 0 02984QA1 0 10103SA1D0 00076RA1 0 00244
0161745944937842000100911544+39280-076610FM-16+0006KDMH V02099999999999999999N9999999N1+99999+99999102391ADDKA1999M+00671KA2999N+00501MD1310051+9999MW1001REMMET084KDMH 091154Z AUTO 06/01 A3024 RMK AO2 SLP239 T00560011 10067 20050 53005 PWINO TSNO;EQDQ01+000000PRSWM2
0154745944937842000101010005+39283-076617FM-15+0006DMH  V02099999999999999999N000000599+00615+00285101905ADDGD10995+9999999MA1101905999999EQDN01 00999JALM1 3QNNAA1D0 00999BA1 3 00999KA1D0 00037JA1 0 00028LA1 0 00000CA1 0 03009QA1 0 10190SA1D0 00043RA1 0 00061
0154745944937842000101116005+39283-076617FM-15+0006DMH  V02099999999999999999N000000599+01675+00115102305ADDGD10995+9999999MA1102305999999EQDN01 00999JALM1 3QNNAA1D0 00999BA1 3 00999KA1D0 00034JA1 0 00011LA1 0 00000CA1 0 03021QA1 0 10230SA1D0 00062RA1 0 00167
0103745944937842000101322544+39280-076610FM-16+0006KDMH V02099999999992200019N9999999N1+99999+99999102211ADDMW1001REMMET066KDMH 132254Z AUTO 22/07 A3019 RMK AO2 SLP221 T02170067 PWINO TSNO;EQDQ01+000000PRSWM2
0154745944937842000101516005+39283-076617FM-15+0006DMH  V02099999999999999999N000000599+02445+01065101885ADDGD10995+9999999MA1101905999999EQDN01 00999JALM1 3QNNAA1D0 00999BA1 3 00999KA1D0 00051JA1 0 00106LA1 0 00000CA1 0 03009QA1 0 10188SA1D0 00076RA1 0 00244
0103745944937842000101712544+39280-076610FM-16+0006KDMH V02099999999992200019N9999999N1+99999+99999102371ADDMW1001REMMET066KDMH 171254Z AUTO 16/14 A3023 RMK AO2 SLP237 T01560139 PWINO TSNO;EQDQ01+000000PRSWM2
0154745944937842000102001005+39283-076617FM-15+0006DMH  V02099999999999999999N000000599+01725+00285102155ADDGD10995+9999999MA1102175999999EQDN01 00999JALM1 3QNNAA1D0 00999BA1 3 00999KA1D0 00037JA1 0 00028LA1 0 00000CA1 0 03017QA1 0 10215SA1D0 00063RA1 0 00172
0692745944937842000102804596+39281-076609SOD  +0006KDMH V020999999999999999999999999999+99999+99999999999ADDAA124000095GJ100005GK10005KA1240M+02395KA2240N+01225MG1101569999994OE11249999999999997OE22249999999999997REMSOD57524 HR PRECIPITATION (IN): 0.00 TOTAL SUNSHINE (MINUTES):   0 PERCENT POSSIBLE SUNSHINE:  0 24 HR MAX TEMP (F): 7524 HR MAX TEMP TIME (LST):1343 24 HR MIN TEMP (F): 5424 HR MIN TEMP TIME (LST):0713 AVERAGE STATION PRESSURE:29.99  PEAK WIND SPEED (MPH):  0 PEAK WIND DIR (DEG):  0 PEAK WIND TIME (LST):      FASTEST 2MIN SPEED (MPH):M  FASTEST 2MIN DIR (DEG):  0 FASTEST 2MIN TIME (LST):     24 HR AVG TEMP (F):65 HOURLY INCREMENTAL PRECIPITATION VALUES (IN):.00  .00  .00  .00  .00  .00  .00  .00  .00  .00  .00  .00  .00  .00  .00  .00  .00  .00  .00  .00  .00  .00  .00  .00
0103745944937842000102806544+39280-076610FM-16+0006KDMH V02099999999992200019N9999999N1+99999+99999101221ADDMW1001REMMET066KDMH 280654Z AUTO 17/13 A2989 RMK AO2 SLP122 T01720133 PWINO TSNO;EQDQ01+000000PRSWM2
0103745944937842000102810544+39280-076610FM-16+0006KDMH V02099999999992200019N9999999N1+99999+99999101341ADDMW1001REMMET066KDMH 281054Z AUTO 18/14 A2993 RMK AO2 SLP134 T01780144 PWINO TSNO;EQDQ01+000000PRSWM2
0119745944937842000103106544+39280-076610FM-16+0006KDMH V02099999999992200019N9999999N1+99999+99999102131ADDMA1102131999999MW1001REMMET067KDMH 310654Z AUTO 07/M02 A3016 RMK AO2 SLP213 T00671017 PWINO TSNO;EQDQ01+000000PRSWM2
0154745944937842000110105005+39283-076617FM-15+0006DMH  V02099999999999999999N000000599+01005+00005102115ADDGD10995+9999999MA1102135999999EQDN01 00999JALM1 3QNNAA1D0 00999BA1 3 00999KA1D0 00032JA1 0 00000LA1 0 00000CA1 0 03016QA1 0 10211SA1D0 00050RA1 0 00100
0154745944937842000110111005+39283-076617FM-15+0006DMH  V02099999999999999999N000000599+00725-00065102155ADDGD10995+9999999MA1102175999999EQDN01 00999JALM1 3QNNAA1D0 00999BA1 3 00999KA1D0 00031JA1 0-00006LA1 0 00000CA1 0 03017QA1 0 10215SA1D0 00045RA1 0 00072
0161745944937842000110217544+39280-076610FM-16+0006KDMH V02099999999999999999N9999999N1+99999+99999101991ADDKA1999M+01891KA2999N+01001MD1810221+9999MW1001REMMET084KDMH 021754Z AUTO 19/01 A3012 RMK AO2 SLP199 T01890011 10189 20100 58022 PWINO TSNO;EQDQ01+000000PRSWM2
0154745944937842000110221005+39283-076617FM-15+0006DMH  V02099999999999999999N000000599+01945+00005101895ADDGD10995+9999999MA1101905999999EQDN01 00999JALM1 3QNNAA1D0 00999BA1 3 00999KA1D0 00032JA1 0 00000LA1 0 00000CA1 0 03009QA1 0 10189SA1D0 00067RA1 0 00194
0123745944937842000110714544+39280-076610FM-16+0006KDMH V02099999999992200019N9999999N1+99999+99999102011ADDMD1010041+9999MW1001REMMET072KDMH 071454Z AUTO 09/03 A3013 RMK AO2 SLP201 T00940028 50004 PWINO TSNO;EQDQ01+000000PRSWM2
0154745944937842000110810005+39283-076617FM-15+0006DMH  V02099999999999999999N000000599+01285+00615101875ADDGD10995+9999999MA1101865999999EQDN01 00999JALM1 3QNNAA1D0 00999BA1 3 00999KA1D0 00043JA1 0 00061LA1 0 00000CA1 0 03008QA1 0 10187SA1D0 00055RA1 0 00128
0154745944937842000111013005+39283-076617FM-15+0006DMH  V02099999999999999999N000000599+01335+00785100255ADDGD10995+9999999MA1100275999999EQDN01 00999JALM1 3QNNAA1D0 00999BA1 3 00999KA1D0 00046JA1 0 00078LA1 0 00000CA1 0 02961QA1 0 10025SA1D0 00056RA1 0 00133
0154745944937842000111200005+39283-076617FM-15+0006DMH  V02099999999999999999N000000599+01225+00615101725ADDGD10995+9999999MA1101735999999EQDN01 00999JALM1 3QNNAA1D0 00999BA1 3 00999KA1D0 00043JA1 0 00061LA1 0 00000CA1 0 03004QA1 0 10172SA1D0 00054RA1 0 00122
0161745944937842000111311544+39280-076610FM-16+0006KDMH V02099999999999999999N9999999N1+99999+99999101891ADDKA1999M+00721KA2999N+00611MD1310121+9999MW1001REMMET084KDMH 131154Z AUTO 07/04 A3009 RMK AO2 SLP189 T00670039 10072 20061 53012 PWINO TSNO;EQDQ01+000000PRSWM2
0154745944937842000111407005+39283-076617FM-15+0006DMH  V02099999999999999999N000000599+01225+01175101295ADDGD10995+9999999MA1101295999999EQDN01 00999JALM1 3QNNAA1D0 00999BA1 3 00999KA1D0 00053JA1 0 00117LA1 0 00000CA1 0 02991QA1 0 10129SA1D0 00054RA1 0 00122
0126745944937842000120107544+39280-076610FM-16+0006KDMH V02099999999992200019N9999999N1+99999+99999102441ADDMA1102441999999MW1001REMMET074KDMH 010754Z AUTO 01/M03 A3025 RMK AO2 SLP244 T00111028 PWINO FZRANO TSNO;EQDQ01+000000PRSWM2
0126745944937842000120401544+39280-076610FM-16+0006KDMH V02099999999992200019N9999999N1+99999+99999103291ADDMA1103291999999MW1001REMMET074KDMH 040154Z AUTO 00/M10 A3050 RMK AO2 SLP329 T00001100 PWINO FZRANO TSNO;EQDQ01+000000PRSWM2
0126745944937842000120722544+39280-076610FM-16+0006KDMH V02099999999992200019N9999999N1+99999+99999101491ADDMA1101491999999MW1001REMMET074KDMH 072254Z AUTO 02/M08 A2997 RMK AO2 SLP149 T00221083 PWINO FZRANO TSNO;EQDQ01+000000PRSWM2
0154745944937842000120803005+39283-076617FM-15+0006DMH  V02099999999999999999N000000599+00115-00675101585ADDGD10995+9999999MA1101595999999EQDN01 00999JALM1 3QNNAA1D0 00999BA1 3 00999KA1D0 00020JA1 0-00067LA1 0 00000CA1 0 03000QA1 0 10158SA1D0 00034RA1 0 00011
0184745944937842000120811544+39280-076610FM-16+0006KDMH V02099999999999999999N9999999N1+99999+99999101391ADDKA1999M+00171KA2999N+00171MA1101391999999MD1510001+9999MW1001REMMET092KDMH 081154Z AUTO 02/M03 A2994 RMK AO2 SLP139 T00171033 10017 20017 55000 PWINO FZRANO TSNO;EQDQ01+000000PRSWM2
0154745944937842000121221005+39283-076617FM-15+0006DMH  V02099999999999999999N000000599+00395-00785102295ADDGD10995+9999999MA1102305999999EQDN01 00999JALM1 3QNNAA1D0 00999BA1 3 00999KA1D0 00018JA1 0-00078LA1 0 00000CA1 0 03021QA1 0 10229SA1D0 00039RA1 0 00039
0103745944937842000121500544+39280-076610FM-16+0006KDMH V02099999999992200019N9999999N1+99999+99999102711ADDMW1001REMMET066KDMH 150054Z AUTO 06/01 A3033 RMK AO2 SLP271 T00610011 PWINO TSNO;EQDQ01+000000PRSWM2
0110745944937842000121609544+39280-076610FM-16+0006KDMH V02099999999992200019N9999999N1+99999+99999102981ADDMW1001REMMET073KDMH 160954Z AUTO 02/01 A3041 RMK AO2 SLP298 T00220006 PWINO FZRANO TSNO;EQDQ01+000000PRSWM2
0103745944937842000121616544+39280-076610FM-16+0006KDMH V02099999999992200019N9999999N1+99999+99999102391ADDMW1001REMMET066KDMH 161654Z AUTO 04/04 A3024 RMK AO2 SLP239 T00440044 PWINO TSNO;EQDQ01+000000PRSWM2
0111745944937842000121621544+39280-076610FM-16+0006KDMH V02099999999992200019N9999999N1+99999+99999101751ADDMW1001REMMET074KDMH 162154Z AUTO 07/07 A3005 RMK AO2 SLP175 P0001 T00720072 PWINO TSNO $;EQDQ01+000000PRSWM2
0147745944937842000121704544+39280-076610FM-16+0006KDMH V02099999999999999999N9999999N1+99999+99999101021ADDKA1999M+00831KA2999N+00171MW1001REMMET084KDMH 170454Z AUTO 07/07 A2983 RMK AO2 SLP102 P0001 T00670067 400830017 PWINO TSNO $;EQDQ01+000000PRSWM2
0126745944937842000121822544+39280-076610FM-16+0006KDMH V02099999999992200019N9999999N1+99999+99999101991ADDMA1102001999999MW1001REMMET074KDMH 182254Z AUTO 01/M09 A3012 RMK AO2 SLP199 T00061094 PWINO FZRANO TSNO;EQDQ01+000000PRSWM2
0187745944937842000121923544+39280-076610FM-16+0006KDMH V02099999999999999999N9999999N1+99999+99999100721ADDKA1999M+00221KA2999N+00061MD1810101+9999MW1001REMMET110KDMH 192354Z AUTO 01/00 A2975 RMK AO2 PRESRR SLP072 P0002 60005 T00060000 10022 20006 58010 PWINO FZRANO TSNO;EQDQ01+000000PRSWM2
0127745944937842000122312544+39280-076610FM-16+0006KDMH V02099999999992200019N9999999N1+99999+99999103421ADDMA1103421999999MW1001REMMET075KDMH 231254Z AUTO M09/M17 A3054 RMK AO2 SLP342 T10941167 PWINO FZRANO TSNO;EQDQ01+000000PRSWM2
0154745944937842000122419005+39283-076617FM-15+0006DMH  V02099999999999999999N000000599+00225-00945102105ADDGD10995+9999999MA1102105999999EQDN01 00999JALM1 3QNNAA1D0 00999BA1 3 00999KA1D0 00015JA1 0-00094LA1 0 00000CA1 0 03015QA1 0 10210SA1D0 00036RA1 0 00022
0185745944937842000122505544+39280-076610FM-16+0006KDMH V02099999999999999999N9999999N1+99999+99999102771ADDKA1999M+00221KA2999N-00331MA1102781999999MD1110211+9999MW1001REMMET093KDMH 250554Z AUTO M03/M13 A3035 RMK AO2 SLP277 T10331133 10022 21033 51021 PWINO FZRANO TSNO;EQDQ01+000000PRSWM2
0127745944937842000122713544+39280-076610FM-16+0006KDMH V02099999999992200019N9999999N1+99999+99999102321ADDMA1102341999999MW1001REMMET075KDMH 271354Z AUTO M02/M10 A3022 RMK AO2 SLP232 T10221100 PWINO FZRANO TSNO;EQDQ01+000000PRSWM2
0154745944937842000122801005+39283-076617FM-15+0006DMH  V02099999999999999999N000000599-00065-00835101705ADDGD10995+9999999MA1101695999999EQDN01 00999JALM1 3QNNAA1D0 00999BA1 3 00999KA1D0 00017JA1 0-00083LA1 0 00000CA1 0 03003QA1 0 10170SA1D0 00031RA1 0-00006
0127745944937842000122818544+39280-076610FM-16+0006KDMH V02099999999992200019N9999999N1+99999+99999101601ADDMA1101631999999MW1001REMMET075KDMH 281854Z AUTO M03/M16 A3001 RMK AO2 SLP160 T10331161 PWINO FZRANO TSNO;EQDQ01+000000PRSWM2
0185745944937842000122905544+39280-076610FM-16+0006KDMH V02099999999999999999N9999999N1+99999+99999101641ADDKA1999M-00331KA2999N-00501MA1101661999999MD1510001+9999MW1001REMMET093KDMH 290554Z AUTO M04/M12 A3002 RMK AO2 SLP164 T10441122 11033 21050 55000 PWINO FZRANO TSNO;EQDQ01+000000PRSWM2
0180745946999992000010110534+38320-075120FM-15+0004KOXB V0202001N00151000151CN0004021N1-00101-00101102441ADDGD15991+0001519GF109991999999000251999999MA1102441999999MW1491REMMET087KOXB 011053Z AUTO 20003KT 1/4SM FZFG VV003 M01/M01 A3025 RMK AO2 SLP244 T10111011 TSNO;EQDQ01    003PRSWM1
0157745946999992000010113534+38320-075120FM-15+0004KOXB V0202101N002112200019N0080461N1+00701+00702102601ADDGF100991999999999999999999MA1102611999999MW1101REMMET079KOXB 011353Z AUTO 21004KT 5SM BR CLR 07/07 A3030 RMK AO2 SLP260 T00720072 TSNO;EQDQ01    003PRSWM1
0204745946999992000010302534+38320-075120FM-15+0004KOXB V0202201N008212200019N0160931N1+01401+00901102041ADDGD12991+0141019GF102991999999999999999999MA1102071999999MD1710021+9999MW1001OC101231REMMET089KOXB 030253Z AUTO 22016G24KT 10SM FEW047 14/09 A3014 RMK AO2 SLP204 T01440089 57002 TSNO;EQDQ01+000000PRSWM2
0071745946999992000010320009+38317-075117NSRDB+000499999V020999999999999999999999999999+99999+99999999999ADDGP10060027002009047802021010602009GQ100600700921549GR100600483914159
0215745946999992000010408534+38320-075120FM-15+0004KOXB V0202101N007210003019N0040231N1+01301+01301101561ADDGD14991+0003019GF108991999999999999999999MA1101561999999MD1810161+9999MW1101REMMET092KOXB 040853Z AUTO 21014KT 2 1/2SM BR OVC001 13/13 A2999 RMK AO2 SLP156 T01330133 58016 TSNO;EQDQ01+000003PRSWM1Q02    003PRSWM1
0071745946999992000010615009+38317-075117NSRDB+000499999V020999999999999999999999999999+99999+99999999999ADDGP10060030402009072002021006902009GQ100600710914219GR100600459914159
0071745946999992000010622009+38317-075117NSRDB+000499999V020999999999999999999999999999+99999+99999999999ADDGP10060003102009020402021001802009GQ100600859923719GR100600090912629
0176745946999992000010802534+38320-075120FM-15+0004KOXB V0203401N003612200019N0160931N1+00301-00501102721ADDGF100991999999999999999999MA1102741999999MD1110221+9999MW1001REMMET084KOXB 080253Z AUTO 34007KT 10SM CLR 03/M05 A3034 RMK AO2 SLP272 T00281050 51022 TSNO;EQDQ01+000000PRSWM2
0071745946999992000010822009+38317-075117NSRDB+000499999V020999999999999999999999999999+99999+99999999999ADDGP10060003502009017802021002302009GQ100600857923729GR100600096912859
0071745946999992000011113009+38317-075117NSRDB+000499999V020999999999999999999999999999+99999+99999999999ADDGP10060000802009016702021000302009GQ100600868912119GR100600054909789
0071745946999992000011321009+38317-075117NSRDB+000499999V020999999999999999999999999999+99999+99999999999ADDGP10060010302009005102021009102009GQ100600761922749GR100600339914149
0054745946999992000011410009+38317-075117NSRDB+000499999V020999999999999999999999999999+99999+99999999999ADDGP10060000002000000002000000002000GR100600000900009
0054745946999992000011605009+38317-075117NSRDB+000499999V020999999999999999999999999999+99999+99999999999ADDGP10060000002000000002000000002000GR100600000900009
0223745946999992000011608534+38320-075120FM-15+0004KOXB V0202101N006210210019N0160931N1+00401-00301102611ADDGD13991+0210019GD24991+0270019GF108991999999999999999999MA1102611999999MD1810481+9999MW1001REMMET101KOXB 160853Z AUTO 21012KT 10SM BKN075 OVC090 04/M03 A3030 RMK AO2 PRESFR SLP261 T00391033 58048 TSNO;EQDQ01+000000PRSWM2
0054745946999992000011703009+38317-075117NSRDB+000499999V020999999999999999999999999999+99999+99999999999ADDGP10060000002000000002000000002000GR100600000900009
0188745946999992000011708534+38320-075120FM-15+0004KOXB V0203401N007212200019N0160931N1-00401-01601102561ADDGF100991999999999999999999MA1102571999999MD1110231+9999MW1001OC101031REMMET088KOXB 170853Z AUTO 34014G20KT 10SM CLR M04/M16 A3029 RMK AO2 SLP256 T10391161 51023 TSNO;EQDQ01+000000PRSWM2
0054745946999992000011801009+38317-075117NSRDB+000499999V020999999999999999999999999999+99999+99999999999ADDGP10060000002000000002000000002000GR100600000900009
0212745946999992000011902534+38320-075120FM-15+0004KOXB V0203201N003610129019N0160931N1-00801-01201101561ADDAA103000021GD14991+0129019GF108991999999999999999999MA1101561999999MD1810061+9999MW1001REMMET094KOXB 190253Z AUTO 32007KT 10SM OVC043 M08/M12 A2999 RMK AO2 SLP156 60000 T10781117 58006 TSNO;EQDQ01+000000PRSWM2
0232745946999992000012405534+38320-075120FM-15+0004KOXB V0203401N004610018019N0112651N1-00201-00301101781ADDGD14991+0018019GF108991999999999999999999KA1999M+00001KA2999N-00171MA1101801999999MD1010011+9999MW1001REMMET099KOXB 240553Z AUTO 34009KT 7SM OVC006 M02/M03 A3006 RMK AO2 SLP178 T10171028 10000 21017 50001 TSNO;EQDQ01+000000PRSWM2
0071745946999992000012615009+38317-075117NSRDB+000499999V020999999999999999999999999999+99999+99999999999ADDGP10060014402009003102021013202009GQ100600687913869GR100600511914119
0157745946999992000012712534+38320-075120FM-15+0004KOXB V0203101N005112200019N0160931N1-00701-01201101971ADDGF100991999999999999999999MA1102001999999MW1001REMMET079KOXB 271253Z AUTO 31010KT 10SM CLR M07/M12 A3012 RMK AO2 SLP197 T10721122 TSNO;EQDQ01+000000PRSWM2
0157745946999992000013006534+38320-075120FM-15+0004KOXB V0203001N002112200019N0160931N1-00801-01101103191ADDGF100991999999999999999999MA1103221999999MW1001REMMET079KOXB 300653Z AUTO 30004KT 10SM CLR M08/M11 A3048 RMK AO2 SLP319 T10781111 TSNO;EQDQ01+000000PRSWM2
0071745946999992000013016009+38317-075117NSRDB+000499999V020999999999999999999999999999+99999+99999999999ADDGP10060012802009000002021012802009GQ100600612915179GR100600679914109
0054745946999992000013104009+38317-075117NSRDB+000499999V020999999999999999999999999999+99999+99999999999ADDGP10060000002000000002000000002000GR100600000900009
0071745946999992000020123009+38317-075117NSRDB+000499999V020999999999999999999999999999+99999+99999999999ADDGP10060000002009000002021000002009GQ100600883924689GR100600014904819
0167745946999992000020316534+38320-075120FM-15+0004KOXB V0202101N008212200019N0160931N1+00401-00301101521ADDGF100991999999999999999999MA1101521999999MW1001OC100981REMMET081KOXB 031653Z AUTO 21016G19KT 10SM CLR 04/M03 A2998 RMK AO2 SLP152 T00441033 TSNO;EQDQ01+000000PRSWM2
0163745946999992000020318534+38320-075120FM-15+0004KOXB V0202101N006712200019N0160931N1+00401-00201101201ADDGF100991999999999999999999MA1101221999999MW1001REMMET085KOXB 031853Z AUTO 21013KT 10SM CLR 04/M02 A2989 RMK AO2 PRESFR SLP120 T00391022 TSNO;EQDQ01+000000PRSWM2
0054745946999992000020500009+38317-075117NSRDB+000499999V020999999999999999999999999999+99999+99999999999ADDGP10060000002000000002000000002000GR100600000900009
0195745946999992000021214534+38320-075120FM-15+0004KOXB V0200301N004110150019N0160931N1-00101-00901102701ADDGD14991+0150019GF108991999999999999999999MA1102711999999MD1310301+9999MW1001REMMET088KOXB 121453Z AUTO 03008KT 10SM OVC055 M01/M09 A3033 RMK AO2 SLP270 T10061094 53030 TSNO;EQDQ01+000000PRSWM2
0234745946999992000021305534+38320-075120FM-15+0004KOXB V0203501N002112200019N0160931N1-00601-00701102511ADDAA106000021GF100991999999999999999999KA1999M+00001KA2999N-00611MA1102511999999MD1310071+9999MW1001REMMET105KOXB 130553Z AUTO 35004KT 10SM CLR M06/M07 A3027 RMK AO2 SLP251 60000 T10611067 10000 21061 53007 TSNO $;EQDQ01+000000PRSWM2
0242745946999992000021406534+38320-075120FM-15+0004KOXB V0202001N00511000301CN0096561N1+00901+00901101151ADDAA101000021GD14991+0006019GF108991999999999999999999MA1101151999999MW1101OC100821REMMET114KOXB 140653Z AUTO 20010G16KT 6SM BR OVC002 09/09 A2987 RMK AO2 RAB38E48 CIG 001V007 SLP115 P0000 T00940089 TSNO $;EQDQ01+000003PRSWM1Q02    003PRSWM1
0202745946999992000021415534+38320-075120FM-15+0004KOXB V0202301N008712200019N0160931N1+01601+01101100581ADDGD12991+0078019GF102991999999999999999999MA1100581999999MW1001OC101231REMMET101KOXB 141553Z AUTO 23017G24KT 10SM FEW026 16/11 A2970 RMK AO2 PK WND 23029/1517 SLP058 T01560106 TSNO;EQDQ01+000000PRSWM2
0071745946999992000021420009+38317-075117NSRDB+000499999V020999999999999999999999999999+99999+99999999999ADDGP10060020202009001202021019602009GQ100600604921859GR100600692914039
0213745946999992000021605534+38320-075120FM-15+0004KOXB V0201401N002112200019N0160931N1+00201+00001102421ADDGF100991999999999999999999KA1999M+00221KA2999N-00331MA1102441999999MD1810121+9999MW1001REMMET095KOXB 160553Z AUTO 14004KT 10SM CLR 02/00 A3025 RMK AO2 SLP242 T00220000 10022 21033 58012 TSNO;EQDQ01+000000PRSWM2
0156745946999992000021621534+38320-075120FM-15+0004KOXB V0202101N004112200019N0160931N1+01101-00101101411ADDGF100991999999999999999999MA1101421999999MW1001REMMET078KOXB 162153Z AUTO 21008KT 10SM CLR 11/M01 A2995 RMK AO2 SLP141 T01111006 TSNO;EQDQ01+000000PRSWM2
0071745946999992000022320009+38317-075117NSRDB+000499999V020999999999999999999999999999+99999+99999999999ADDGP10060053502008082302015009502008GQ100600578922069GR100600745913979
0054745946999992000022410009+38317-075117NSRDB+000499999V020999999999999999999999999999+99999+99999999999ADDGP10060000002000000002000000002000GR100600000900009
0054745946999992000022509009+38317-075117NSRDB+000499999V020999999999999999999999999999+99999+99999999999ADDGP10060000002000000002000000002000GR100600000900009
0155745946999992000022518534+38320-075120FM-15+0004KOXB V0201901N004612200019N0160931N1+01801+01101102271ADDGF100991999999999999999999MA1102271999999MW1001REMMET077KOXB 251853Z AUTO 19009KT 10SM CLR 18/11 A3020 RMK AO2 SLP227 T01780106 TSNO;EQDQ01+000000PRSWM2
0214745946999992000022923534+38320-075120FM-15+0004KOXB V0203001N003612200019N0160931N1+01001-00501102161ADDGF100991999999999999999999KA1999M+01441KA2999N+00941MA1102171999999MD1310081+9999MW1001REMMET096KOXB 292353Z AUTO 30007KT 10SM CLR 10/M05 A3017 RMK AO2 SLP216 T01001050 10144 20094 53008 TSNO;EQDQ01+000000PRSWM2
0054745946999992000030303009+38317-075117NSRDB+000499999V020999999999999999999999999999+99999+99999999999ADDGP10060000002000000002000000002000GR100600000900009
0214745946999992000030511534+38320-075120FM-15+0004KOXB V0202801N003612200019N0160931N1+00401-00301101011ADDGF100991999999999999999999KA1999M+00441KA2999N+00331MA1101021999999MD1110131+9999MW1001REMMET096KOXB 051153Z AUTO 28007KT 10SM CLR 04/M03 A2983 RMK AO2 SLP101 T00441028 10044 20033 51013 TSNO;EQDQ01+000000PRSWM2
0071745946999992000030514009+38317-075117NSRDB+000499999V020999999999999999999999999999+99999+99999999999ADDGP10060034002008059702015011302008GQ100600677911779GR100600527913899
0213745946999992000030605534+38320-075120FM-15+0004KOXB V0200501N004112200019N0160931N1+00701+00201101621ADDGF100991999999999999999999KA1999M+01331KA2999N+00331MA1101631999999MD1310241+9999MW1001REMMET095KOXB 060553Z AUTO 05008KT 10SM CLR 07/02 A3001 RMK AO2 SLP162 T00670017 10133 20033 53024 TSNO;EQDQ01+000000PRSWM2
0156745946999992000030619534+38320-075120FM-15+0004KOXB V0203401N005712200019N0160931N1+01301-00101102011ADDGF100991999999999999999999MA1102001999999MW1001REMMET078KOXB 061953Z AUTO 34011KT 10SM CLR 13/M01 A3012 RMK AO2 SLP201 T01331011 TSNO;EQDQ01+000000PRSWM2
0173745946999992000030819534+38320-075120FM-15+0004KOXB V0201201N003612200019N0160931N1+01401+00801101361ADDGD12991+0210019GF102991999999999999999999MA1101351999999MW1001REMMET080KOXB 081953Z AUTO 12007KT 10SM FEW070 14/08 A2993 RMK AO2 SLP136 T01390078 TSNO;EQDQ01+000000PRSWM2
0165745946999992000031203534+38320-075120FM-15+0004KOXB V0202001N005712200019N0128741N1+01301+01201100741ADDGF100991999999999999999999MA1100751999999MW1001OC101031REMMET079KOXB 120353Z AUTO 20011G20KT 8SM CLR 13/12 A2975 RMK AO2 SLP074 T01330122 TSNO;EQDQ01+000000PRSWM2
0054745946999992000031302009+38317-075117NSRDB+000499999V020999999999999999999999999999+99999+99999999999ADDGP10060000002000000002000000002000GR100600000900009
0174745946999992000031407534+38320-075120FM-15+0004KOXB V0201901N002110300019N0160931N1+00301-00201102781ADDGD14991+0300019GF108991999999999999999999MA1102781999999MW1001REMMET081KOXB 140753Z AUTO 19004KT 10SM OVC100 03/M02 A3035 RMK AO2 SLP278 T00331017 TSNO;EQDQ01+000000PRSWM2
0157745946999992000031500534+38320-075120FM-15+0004KOXB V0201901N002112200019N0160931N1+00701+00001102561ADDGF100991999999999999999999MA1102571999999MW1001REMMET079KOXB 150053Z AUTO 19004KT 10SM CLR 07/00 A3029 RMK AO2 SLP256 T00720000 TSNO $;EQDQ01+000000PRSWM2
0071745946999992000031721009+38317-075117NSRDB+000499999V020999999999999999999999999999+99999+99999999999ADDGP10060008202008000002015008202008GQ100600607924199GR100600675913809
0071745946999992000032012009+38317-075117NSRDB+000499999V020999999999999999999999999999+99999+99999999999ADDGP10060000002008000002015000002008GQ100600850909379GR100600112912749
0054745946999992000032205009+38317-075117NSRDB+000499999V020999999999999999999999999999+99999+99999999999ADDGP10060000002000000002000000002000GR100600000900009
0154745946999992000032319534+38320-075120FM-15+0004KOXB V0200601N003612200019N0144841N1+00801+00401102561ADDGF100991999999999999999999MA1102571999999MW1001REMMET076KOXB 231953Z AUTO 06007KT 9SM CLR 08/04 A3029 RMK AO2 SLP256 T00780044 TSNO;EQDQ01+000000PRSWM2
0173745946999992000032610534+38320-075120FM-15+0004KOXB V0203101N004612200019N0160931N1+01401+00901100811ADDGD12991+0270019GF102991999999999999999999MA1100811999999MW1001REMMET080KOXB 261053Z AUTO 31009KT 10SM FEW090 14/09 A2977 RMK AO2 SLP081 T01440089 TSNO;EQDQ01+000000PRSWM2
0155745946999992000032703534+38320-075120FM-15+0004KOXB V0202001N002112200019N0160931N1+00701+00201100841ADDGF100991999999999999999999MA1100851999999MW1001REMMET077KOXB 270353Z AUTO 20004KT 10SM CLR 07/02 A2978 RMK AO2 SLP084 T00670017 TSNO;EQDQ01+000000PRSWM2
0155745946999992000032910534+38320-075120FM-15+0004KOXB V0202701N003612200019N0160931N1+00601+00101100491ADDGF100991999999999999999999MA1100511999999MW1001REMMET077KOXB 291053Z AUTO 27007KT 10SM CLR 06/01 A2968 RMK AO2 SLP049 T00560011 TSNO;EQDQ01+000000PRSWM2
0071745946999992000032916009+38317-075117NSRDB+000499999V020999999999999999999999999999+99999+99999999999ADDGP10060077802008080902015016602008GQ100600410914239GR100601034913719
0054745946999992000040204009+38317-075117NSRDB+000499999V020999999999999999999999999999+99999+99999999999ADDGP10060000002000000002000000002000GR100600000900009
0213745946999992000040311534+38320-075120FM-15+0004KOXB V0202101N004612200019N0160931N1+01401+01301101521ADDGF100991999999999999999999KA1999M+01611KA2999N+01331MA1101521999999MD1810041+9999MW1001REMMET095KOXB 031153Z AUTO 21009KT 10SM CLR 14/13 A2998 RMK AO2 SLP152 T01440128 10161 20133 58004 TSNO;EQDQ01+000000PRSWM2
0173745946999992000040609534+38320-075120FM-15+0004KOXB V0202201N003610330019N0160931N1+00801+00301101191ADDGD13991+0330019GF107991999999999999999999MA1101191999999MW1001REMMET080KOXB 060953Z AUTO 22007KT 10SM BKN110 08/03 A2988 RMK AO2 SLP119 T00830028 TSNO;EQDQ01+000000PRSWM2
0071745946999992000040720009+38317-075117NSRDB+000499999V020999999999999999999999999999+99999+99999999999ADDGP10060065102008062402015021402008GQ100600456923639GR100600952913639
0253745946999992000040901534+38320-075120FM-15+0004KOXB V0203401N006710051019N0160931N1+01001+00801100241ADDAA101000021GD13991+0051019GD23991+0129019GD34991+0300019GF108991999999999999999999MA1100241999999MW1001OC101031REMMET111KOXB 090153Z AUTO 34013G20KT 10SM BKN017 BKN043 OVC100 10/08 A2960 RMK AO2 RAE0058 SLP024 P0000 T01000078 TSNO;EQDQ01+000000PRSWM2
0155745946999992000041022534+38320-075120FM-15+0004KOXB V0202001N004112200019N0160931N1+01201+00701102341ADDGF100991999999999999999999MA1102341999999MW1001REMMET077KOXB 102253Z AUTO 20008KT 10SM CLR 12/07 A3022 RMK AO2 SLP234 T01170067 TSNO;EQDQ01+000000PRSWM2
0054745946999992000041203009+38317-075117NSRDB+000499999V020999999999999999999999999999+99999+99999999999ADDGP10060000002000000002000000002000GR100600000900009
0071745946999992000041319009+38317-075117NSRDB+000499999V020999999999999999999999999999+99999+99999999999ADDGP10060077802008060302015028502008GQ100600353922029GR100601107913599
0054745946999992000041406009+38317-075117NSRDB+000499999V020999999999999999999999999999+99999+99999999999ADDGP10060000002000000002000000002000GR100600000900009
0054745946999992000041602009+38317-075117NSRDB+000499999V020999999999999999999999999999+99999+99999999999ADDGP10060000002000000002000000002000GR100600000900009
0071745946999992000041616009+38317-075117NSRDB+000499999V020999999999999999999999999999+99999+99999999999ADDGP10060046402008010302015038002008GQ100600346913859GR100601116913569
0054745946999992000041707009+38317-075117NSRDB+000499999V020999999999999999999999999999+99999+99999999999ADDGP10060000002000000002000000002000GR100600000900009
0193745946999992000042308534+38320-075120FM-15+0004KOXB V0203301N004610099019N0160931N1+00901+00501100441ADDGD14991+0099019GF108991999999999999999999MA1100441999999MD1310061+9999MW1001REMMET086KOXB 230853Z AUTO 33009KT 10SM OVC033 09/05 A2966 RMK AO2 SLP044 T00940050 53006 TSNO;EQDQ01+000000PRSWM2
0155745946999992000042418534+38320-075120FM-15+0004KOXB V0209999V002612200019N0160931N1+01201+00801101241ADDGF100991999999999999999999MA1101251999999MW1001REMMET077KOXB 241853Z AUTO VRB05KT 10SM CLR 12/08 A2990 RMK AO2 SLP124 T01220083 TSNO;EQDQ01+000000PRSWM2
0195745946999992000042710534+38320-075120FM-15+0004KOXB V0209999C000010051019N0160931N1+00701+00401101811ADDGD13991+0051019GD24991+0129019GF108991999999999999999999MA1101831999999MW1001REMMET087KOXB 271053Z AUTO 00000KT 10SM BKN017 OVC043 07/04 A3007 RMK AO2 SLP181 T00670039 TSNO;EQDQ01+000000PRSWM2
0186745946999992000043014534+38320-075120FM-15+0004KOXB V0203601N005112200019N0160931N1+01901+00601101741ADDGF100991999999999999999999MA1101761999999MD1110151+9999MW1001OC100931REMMET086KOXB 301453Z AUTO 36010G18KT 10SM CLR 19/06 A3005 RMK AO2 SLP174 T01890061 51015 TSNO;EQDQ01+000000PRSWM2
0155745946999992000050316534+38320-075120FM-15+0004KOXB V0201201N005112200019N0160931N1+01701+00901102731ADDGF100991999999999999999999MA1102741999999MW1001REMMET077KOXB 031653Z AUTO 12010KT 10SM CLR 17/09 A3034 RMK AO2 SLP273 T01670094 TSNO;EQDQ01+000000PRSWM2
0155745946999992000050807534+38320-075120FM-15+0004KOXB V0202601N003112200019N0160931N1+02101+01401101341ADDGF100991999999999999999999MA1101351999999MW1001REMMET077KOXB 080753Z AUTO 26006KT 10SM CLR 21/14 A2993 RMK AO2 SLP134 T02110139 TSNO;EQDQ01+000000PRSWM2
0163745946999992000050816534+38320-075120FM-15+0004KOXB V0201701N003612200019N0160931N1+02401+01701101301ADDGF100991999999999999999999MA1101321999999MW1001REMMET085KOXB 081653Z AUTO 17007KT 150V210 10SM CLR 24/17 A2992 RMK AO2 SLP130 T02440172 TSNO;EQDQ01+000000PRSWM2
0155745946999992000050913534+38320-075120FM-15+0004KOXB V0202401N006712200019N0160931N1+02501+01801101021ADDGF100991999999999999999999MA1101021999999MW1001REMMET077KOXB 091353Z AUTO 24013KT 10SM CLR 25/18 A2983 RMK AO2 SLP102 T02500183 TSNO;EQDQ01+000000PRSWM2
0054745946999992000051104009+38317-075117NSRDB+000499999V020999999999999999999999999999+99999+99999999999ADDGP10060000002000000002000000002000GR100600000900009
0233745946999992000051305534+38320-075120FM-15+0004KOXB V0209999C000012200019N0064371N1+01801+01701100641ADDGF100991999999999999999999KA1999M+02221KA2999N+01671MA1100641999999MD1810071+9999MW1101REMMET099KOXB 130553Z AUTO 00000KT 4SM BR CLR 18/17 A2972 RMK AO2 SLP064 T01830172 10222 20167 58007 TSNO $;EQDQ01+000003PRSWM1Q02    003PRSWM1
0175745946999992000051409534+38320-075120FM-15+0004KOXB V0203101N003110300019N0160931N1+01701+01201101381ADDGD13991+0300019GF107991999999999999999999MA1101391999999MW1001REMMET082KOXB 140953Z AUTO 31006KT 10SM BKN100 17/12 A2994 RMK AO2 SLP138 T01670117 TSNO $;EQDQ01+000000PRSWM2
0157745946999992000051419534+38320-075120FM-15+0004KOXB V0201201N003612200019N0160931N1+02101+01001101511ADDGF100991999999999999999999MA1101521999999MW1001REMMET079KOXB 141953Z AUTO 12007KT 10SM CLR 21/10 A2998 RMK AO2 SLP151 T02060100 TSNO $;EQDQ01+000000PRSWM2
0071745946999992000051522009+38317-075117NSRDB+000499999V020999999999999999999999999999+99999+99999999999ADDGP10060040102008057202015012802008GQ100600615927269GR100600637913369
0168745946999992000052115534+38320-075120FM-15+0004KOXB V0200301N003610012019N0160931N1+01501+01401101701ADDGD14991+0012019GF108991999999999999999999MA1101691999999MW1001REMMET075KOXB 211553Z AUTO 03007KT 10SM OVC004 15/14 A3003 RMK AO2 SLP170 T01500139;EQDQ01+000000PRSWM2
0189745946999992000052400534+38320-075120FM-15+0004KOXB V0201801N002610300019N0112651N1+01401+01301100731ADDGD12991+0018019GD24991+0300019GF108991999999999999999999MA1100751999999MW1001REMMET081KOXB 240053Z AUTO 18005KT 7SM SCT006 OVC100 14/13 A2975 RMK AO2 SLP073 T01440133;EQDQ01+000000PRSWM2
0168745946999992000052718534+38320-075120FM-15+0004KOXB V0200501N003610210019N0160931N1+01701+01401101401ADDGD13991+0210019GF107991999999999999999999MA1101421999999MW1001REMMET075KOXB 271853Z AUTO 05007KT 10SM BKN075 17/14 A2995 RMK AO2 SLP140 T01720139;EQDQ01+000000PRSWM2
0213745946999992000052721534+38320-075120FM-15+0004KOXB V0200601N005110138019N0160931N1+01601+01201101241ADDAA101000021GD13991+0138019GD23991+0300019GF107991999999999999999999MA1101251999999MW1001REMMET094KOXB 272153Z AUTO 06010KT 10SM BKN046 BKN100 16/12 A2990 RMK AO2 RAE26 SLP124 P0000 T01560117;EQDQ01+000000PRSWM2
0071745946999992000052913009+38317-075117NSRDB+000499999V020999999999999999999999999999+99999+99999999999ADDGP10060012202008000002015012202008GQ100600590908579GR100600683913299
0255745946999992000053017534+38320-075120FM-15+0004KOXB V0200501N009310093019N0160931N1+01401+00901102271ADDGD14991+0093019GF108991999999999999999999KA1999M+01441KA2999N+01221MA1102271999999MD1010041+9999MW1001OC101291REMMET114KOXB 301753Z AUTO 05018G25KT 10SM OVC031 14/09 A3020 RMK AO2 PK WND 02030/1716 SLP227 T01440094 10144 20122 50004;EQDQ01+000000PRSWM2
0071745946999992000053121009+38317-075117NSRDB+000499999V020999999999999999999999999999+99999+99999999999ADDGP10060062902008071702015014802008GQ100600478926599GR100600890913289
0226745946999992000060217534+38320-075120FM-15+0004KOXB V0202001N004112200019N0064371N1+02701+02201101451ADDGF100991999999999999999999KA1999M+03111KA2999N+02391MA1101461999999MD1810191+9999MW1051REMMET092KOXB 021753Z AUTO 20008KT 4SM HZ CLR 27/22 A2996 RMK AO2 SLP145 T02670217 10311 20239 58019;EQDQ01+000003PRSWM1Q02    003PRSWM1
0168745946999992000060412534+38320-075120FM-15+0004KOXB V0200901N004112200019N0160931N1+01801+01301102021ADDGD12991+0270019GF102991999999999999999999MA1102031999999MW1001REMMET075KOXB 041253Z AUTO 09008KT 10SM FEW090 18/13 A3013 RMK AO2 SLP202 T01780128;EQDQ01+000000PRSWM2
0071745946999992000060422009+38317-075117NSRDB+000499999V020999999999999999999999999999+99999+99999999999ADDGP10060028702008007602015024702008GQ100600592927569GR100600679913279
0054745946999992000060507009+38317-075117NSRDB+000499999V020999999999999999999999999999+99999+99999999999ADDGP10060000002000000002000000002000GR100600000900009
0226745946999992000060517534+38320-075120FM-15+0004KOXB V0200401N006712200019N0160931N1+01801+01401101731ADDGD12991+0036019GF102991999999999999999999KA1999M+01891KA2999N+01671MA1101731999999MD1810031+9999MW1001REMMET093KOXB 051753Z AUTO 04013KT 10SM FEW012 18/14 A3004 RMK AO2 SLP173 T01830139 10189 20167 58003;EQDQ01+000000PRSWM2
0071745946999992000060819009+38317-075117NSRDB+000499999V020999999999999999999999999999+99999+99999999999ADDGP10060084602008059202015030802008GQ100600248923739GR100601202913259
0150745946999992000060906534+38320-075120FM-15+0004KOXB V0202301N005712200019N0160931N1+01901+01401101941ADDGF100991999999999999999999MA1101931999999MW1001REMMET072KOXB 090653Z AUTO 23011KT 10SM CLR 19/14 A3010 RMK AO2 SLP194 T01890144;EQDQ01+000000PRSWM2
0054745946999992000061109009+38317-075117NSRDB+000499999V020999999999999999999999999999+99999+99999999999ADDGP10060000002000000002000000002000GR100600000900009
0054745946999992000062109009+38317-075117NSRDB+000499999V020999999999999999999999999999+99999+99999999999ADDGP10060000002000000002000000002000GR100600000900009
0054745946999992000062509009+38317-075117NSRDB+000499999V020999999999999999999999999999+99999+99999999999ADDGP10060000002000000002000000002000GR100600000900009
0054745946999992000062709009+38317-075117NSRDB+000499999V020999999999999999999999999999+99999+99999999999ADDGP10060000002000000002000000002000GR100600000900009
0054745946999992000070606009+38317-075117NSRDB+000499999V020999999999999999999999999999+99999+99999999999ADDGP10060000002000000002000000002000GR100600000900009
0071745946999992000071015009+38317-075117NSRDB+000499999V020999999999999999999999999999+99999+99999999999ADDGP10060071802008070802015015202008GQ100600370910479GR100601054913229
0071745946999992000071120009+38317-075117NSRDB+000499999V020999999999999999999999999999+99999+99999999999ADDGP10060035802008003002015033402008GQ100600349925239GR100601083913229
0054745946999992000071902009+38317-075117NSRDB+000499999V020999999999999999999999999999+99999+99999999999ADDGP10060000002000000002000000002000GR100600000900009
0071745946999992000080516009+38317-075117NSRDB+000499999V020999999999999999999999999999+99999+99999999999ADDGP10060079802008066902015021902008GQ100600303912949GR100601146913289
0071745946999992000080821009+38317-075117NSRDB+000499999V020999999999999999999999999999+99999+99999999999ADDGP10060056502008062702015016102008GQ100600499925779GR100600855913299
0054745946999992000080909009+38317-075117NSRDB+000499999V020999999999999999999999999999+99999+99999999999ADDGP10060000002000000002000000002000GR100600000900009
0071745946999992000082413009+38317-075117NSRDB+000499999V020999999999999999999999999999+99999+99999999999ADDGP10060021302008006902015018502008GQ100600662909499GR100600539913379
0071745946999992000091211009+38317-075117NSRDB+000499999V020999999999999999999999999999+99999+99999999999ADDGP10060000002008000002015000002008GQ100600883908609GR100600012904169
0071745946999992000091711009+38317-075117NSRDB+000499999V020999999999999999999999999999+99999+99999999999ADDGP10060000002008000002015000002008GQ100600888908819GR100600007903279
0071745946999992000091716009+38317-075117NSRDB+000499999V020999999999999999999999999999+99999+99999999999ADDGP10060072602008078502015013502008GQ100600413914699GR100601016913549
0071745946999992000091823009+38317-075117NSRDB+000499999V020999999999999999999999999999+99999+99999999999ADDGP10060000902008000002015000902008GQ100600841926749GR100600138913549
0071745946999992000092212009+38317-075117NSRDB+000499999V020999999999999999999999999999+99999+99999999999ADDGP10060006802008003302015006302008GQ100600826909579GR100600175913579
0054745946999992000092301009+38317-075117NSRDB+000499999V020999999999999999999999999999+99999+99999999999ADDGP10060000002000000002000000002000GR100600000900009
0071745946999992000092620009+38317-075117NSRDB+000499999V020999999999999999999999999999+99999+99999999999ADDGP10060010702008000002015010702008GQ100600541923189GR100600797913619
0071745946999992000092712009+38317-075117NSRDB+000499999V020999999999999999999999999999+99999+99999999999ADDGP10060007802008013202015006302008GQ100600834909759GR100600155913619
0054745946999992000101902009+38317-075117NSRDB+000499999V020999999999999999999999999999+99999+99999999999ADDGP10060000002000000002000000002000GR100600000900009
0071745946999992000102021009+38317-075117NSRDB+000499999V020999999999999999999999999999+99999+99999999999ADDGP10060026302008061102015007102008GQ100600717923939GR100600433913809
0071745946999992000102820009+38317-075117NSRDB+000499999V020999999999999999999999999999+99999+99999999999ADDGP10060038202008065602015010002008GQ100600647922539GR100600592913869
0054745946999992000110208009+38317-075117NSRDB+000499999V020999999999999999999999999999+99999+99999999999ADDGP10060000002000000002000000002000GR100600000900009
0054745946999992000110500009+38317-075117NSRDB+000499999V020999999999999999999999999999+99999+99999999999ADDGP10060000002000000002000000002000GR100600000900009
0071745946999992000111017009+38317-075117NSRDB+000499999V020999999999999999999999999999+99999+99999999999ADDGP10060055202008078802015010802008GQ100600559917589GR100600782913959
0071745946999992000111318009+38317-075117NSRDB+000499999V020999999999999999999999999999+99999+99999999999ADDGP10060041202008035802015021902008GQ100600576919279GR100600749913979
0071745946999992000112413009+38317-075117NSRDB+000499999V020999999999999999999999999999+99999+99999999999ADDGP10060007402009025102021004902009GQ100600842912219GR100600142914049
0054745946999992000112706009+38317-075117NSRDB+000499999V020999999999999999999999999999+99999+99999999999ADDGP10060000002000000002000000002000GR100600000900009
0054745946999992000120211009+38317-075117NSRDB+000499999V020999999999999999999999999999+99999+99999999999ADDGP10060000002000000002000000002000GR100600000900009
0071745946999992000120422009+38317-075117NSRDB+000499999V020999999999999999999999999999+99999+99999999999ADDGP10060000702009013202021000402009GQ100600871923859GR100600046909049
0071745946999992000120921009+38317-075117NSRDB+000499999V020999999999999999999999999999+99999+99999999999ADDGP10060012602009040802021005202009GQ100600795922949GR100600256914119
0071745946999992000122420009+38317-075117NSRDB+000499999V020999999999999999999999999999+99999+99999999999ADDGP10060027402009043602021013102009GQ100600710921619GR100600460914149
0071745946999992000122613009+38317-075117NSRDB+000499999V020999999999999999999999999999+99999+99999999999ADDGP10060000902009010102021000602009GQ100600868912329GR100600056910029
0071745946999992000122616009+38317-075117NSRDB+000499999V020999999999999999999999999999+99999+99999999999ADDGP10060038402009058602021013902009GQ100600653915709GR100600590914159
0202745966999992000011619003+39020-074920FM-15+0007KWWD V0202301N006712200019N0160931N1+01101-00301999999ADDGF100991999999999999999999GP10060046602009086702021007002009GQ100600630920119GR100600643914149MA1101391999999MW1001REMMET056KWWD 161855Z AUTO 23013KT 10SM CLR 11/M03 A2994 RMK AO1;EQDQ01+000000PRSWM2
0293745966999992000012509003+39020-074920FM-15+0007KWWD V0200201N011310003019N0028161N1+00001-00201999999ADDAA101000391AA203000891GD13991+0003019GD24991+0027019GF108991999999999999999999GP10060000002000000002000000002000GR100600000900009MA1100101999999MD1710611+9999MW1001OC101391REMMET090KWWD 250855Z AUTO 02022G27KT 1 3/4SM BKN001 OVC009 00/M02 A2956 RMK AO1 P0001 60003 57061;EQDQ01+000000PRSWM2
0257745966999992000012609003+39020-074920FM-15+0007KWWD V0202701N005110096019N0160931N1-00301-00801999999ADDGD13991+0096019GD24991+0132019GF108991999999999999999999GP10060000002000000002000000002000GR100600000900009MA1100311999999MD1210341+9999MW1001OC101131REMMET076KWWD 260855Z AUTO 27010G22KT 10SM BKN032 OVC044 M03/M08 A2962 RMK AO1 52034;EQDQ01+000000PRSWM2
0203745966999992000020407003+39020-074920FM-15+0007KWWD V0203501N003110180019N0160931N1+00101-00201999999ADDGD13991+0180019GF107991999999999999999999GP10060000002000000002000000002000GR100600000900009MA1100951999999MW1001REMMET059KWWD 040655Z AUTO 35006KT 10SM BKN060 01/M02 A2981 RMK AO1;EQDQ01+000000PRSWM2
0222745966999992000020821003+39020-074920FM-15+0007KWWD V0200701N001512200019N0160931N1+00001-00901999999ADDGF100991999999999999999999GP10060030102009069202021007302009GQ100600708923059GR100600462914069MA1103451999999MD1710031+9999MW1001REMMET062KWWD 082055Z AUTO 07003KT 10SM CLR 00/M09 A3055 RMK AO1 57003;EQDQ01+000000PRSWM2
0244745966999992000020906003+39020-074920FM-15+0007KWWD V0209999C000012200019N0160931N1-00601-00801999999ADDGF100991999999999999999999GP10060000002000000002000000002000GR100600000900009KA1999M-00301KA2999N-00701MA1103081999999MD1710271+9999MW1001REMMET075KWWD 090555Z AUTO 00000KT 10SM CLR M06/M08 A3044 RMK AO1 11030 21070 57027;EQDQ01+000000PRSWM2
0241745966999992000021521003+39020-074920FM-15+0007KWWD V0203001N005112200019N0160931N1+00401-02301999999ADDGF100991999999999999999999GP10060033702009073502021007202009GQ100600690923209GR100600502914029MA1102371999999MD1210171+9999MW1001OC100821REMMET073KWWD 152055Z AUTO 30010G16KT 260V010 10SM CLR 04/M23 A3023 RMK AO1 52017;EQDQ01+000000PRSWM2
0205745966999992000021609003+39020-074920FM-15+0007KWWD V0201601N004612200019N0160931N1+00101-02601999999ADDGF100991999999999999999999GP10060000002000000002000000002000GR100600000900009MA1102271999999MD1710101+9999MW1001REMMET062KWWD 160855Z AUTO 16009KT 10SM CLR 01/M26 A3020 RMK AO1 57010;EQDQ01+000000PRSWM2
0222745966999992000021905003+39020-074920FM-15+0007KWWD V0200601N001510003019N9999999N1+00301-02401999999ADDGD14991+0003019GF108991999999999999999999GP10060000002000000002000000002000GR100600000900009MA1101461999999MW1001REMMET062KWWD 190455Z AUTO 06003KT 1 3/4SM OVC001 03/M24 A2996 RMK AO1;EQDQ01+028162VODIS Q02+000000PRSWM2
0214745966999992000022004003+39020-074920FM-15+0007KWWD V0203201N005110081019N0160931N1+00201-02601999999ADDGD14991+0081019GF108991999999999999999999GP10060000002000000002000000002000GR100600000900009MA1102031999999MW1001OC100931REMMET062KWWD 200355Z AUTO 32010G18KT 10SM OVC027 02/M26 A3013 RMK AO1;EQDQ01+000000PRSWM2
0220745966999992000022013003+39020-074920FM-15+0007KWWD V0203001N002610111019N0160931N1+00101-02601999999ADDGD13991+0111019GF107991999999999999999999GP10060006202008000802015006102008GQ100600825911089GR100600183913999MA1102511999999MW1001REMMET059KWWD 201255Z AUTO 30005KT 10SM BKN037 01/M26 A3027 RMK AO1;EQDQ01+000000PRSWM2
0209745966999992000022021003+39020-074920FM-15+0007KWWD V0203001N005112200019N0160931N1+00601-02201999999ADDGF100991999999999999999999GP10060036002008075502015007302008GQ100600677923339GR100600530913999MA1102401999999MW1001REMMET063KWWD 202055Z AUTO 30010KT 10SM CLR 06/M22 A3024 RMK AO1 665535;EQDQ01+000000PRSWM2
0185745966999992000022301003+39020-074920FM-15+0007KWWD V0201201N002112200019N0160931N1+00101-02601999999ADDGF100991999999999999999999GP10060000002000000002000000002000GR100600000900009MA1103521999999MW1001REMMET056KWWD 230055Z AUTO 12004KT 10SM CLR 01/M26 A3057 RMK AO1;EQDQ01+000000PRSWM2
0245745966999992000022403003+39020-074920FM-15+0007KWWD V0202001N002612200019N0160931N1+01101-01901999999ADDGD12991+0240019GD22991+0360019GF104991999999999999999999GP10060000002000000002000000002000GR100600000900009MA1103051999999MD1710031+9999MW1001REMMET072KWWD 240255Z AUTO 20005KT 10SM FEW080 SCT120 11/M19 A3043 RMK AO1 57003;EQDQ01+000000PRSWM2
0178745966999992000022601154+39020-074920FM-15+0007KWWD V0200601N004110006019N9999999N1+00601-02201999999ADDGD13991+0006019GF107991999999999999999999MA1102711999999MW1001OC100771REMMET061KWWD 260115Z AUTO 06008G15KT 4SM BKN002 06/M22 A3033 RMK AO1;EQDQ01+064372VODIS Q02+000000PRSWM2
0243745966999992000030200003+39020-074920FM-15+0007KWWD V0201701N003612200019N0160931N1+00801-02101999999ADDGF100991999999999999999999GP10060000002000000002000000002000GR100600000900009KA1999M+01201KA2999N+00801MA1101081999999MD1710031+9999MW1001REMMET074KWWD 012355Z AUTO 17007KT 10SM CLR 08/M21 A2985 RMK AO1 10120 20080 57003;EQDQ01+000000PRSWM2
0185745966999992000030204003+39020-074920FM-15+0007KWWD V0202301N002612200019N0160931N1+01101-01901999999ADDGF100991999999999999999999GP10060000002000000002000000002000GR100600000900009MA1100881999999MW1001REMMET056KWWD 020355Z AUTO 23005KT 10SM CLR 11/M19 A2979 RMK AO1;EQDQ01+000000PRSWM2
0248745966999992000030706003+39020-074920FM-15+0007KWWD V0202801N002612200019N0160931N1+00101-02601999999ADDGF100991999999999999999999GP10060000002000000002000000002000GR100600000900009KA1999M+00801KA2999N+00101MA1102511999999MD1210141+9999MW1001REMMET079KWWD 070555Z AUTO 28005KT 10SM CLR 01/M26 A3027 RMK AO1 10080 20010 52014 TSNO;EQDQ01+000000PRSWM2
0290745966999992000031721003+39020-074920FM-15+0007KWWD V0203301N007710087019N0160931N1+00401-00301999999ADDGD12991+0069019GD23991+0087019GD34991+0105019GF108991999999999999999999GP10060008202008000002015008202008GQ100600611924179GR100600666913809MA1101961999999MD1210411+9999MW1001OC101231REMMET077KWWD 172055Z 33015G24KT 10SM SCT023 BKN029 OVC035 04/M03 A3011 RMK AO1 52041;EQDQ01+000000PRSWM2
0179745966999992000032222003+39020-074920FM-15+0007KWWD V0200401N008712200019N0160931N1+00601+00401999999ADDGP10060006502008000002015006502008GQ100600708925509GR100600452913769MA1102811999999MW1001OC101291REMMET051KWWD 222155Z 04017G25KT OVC008 06/04 A3036 RMK AO1;EQDQ01+000000PRSWM2
0179745966999992000032510003+39020-074920FM-15+0007KWWD V0202001N003112200019N0160931N1+00701+00501999999ADDGF100991999999999999999999GP10060000002000000002000000002000GR100600000900009MA1102031999999MW1001REMMET050KWWD 250955Z 20006KT 10SM CLR 07/05 A3013 RMK AO1;EQDQ01+000000PRSWM2
0196745966999992000032520003+39020-074920FM-15+0007KWWD V0201901N007212200019N0160931N1+01401+00701999999ADDGF100991999999999999999999GP10060062602008060602015023102008GQ100600494923089GR100600892913749MA1101251999999MW1001REMMET050KWWD 251955Z 19014KT 10SM CLR 14/07 A2990 RMK AO1;EQDQ01+000000PRSWM2
0217745966999992000040106003+39020-074920FM-15+0007KWWD V0209999C000012200019N0160931N1+00401+00101999999ADDGF100991999999999999999999GP10060000002000000002000000002000GR100600000900009KA1999M+01101KA2999N+00301MA1102271999999MW1001REMMET062KWWD 010555Z 00000KT 10SM CLR 04/01 A3020 RMK AO1 10110 20030;EQDQ01+000000PRSWM2
0230745966999992000040416003+39020-074920FM-15+0007KWWD V0201701N005110057019N0096561N1+01601+01401999999ADDAA101000391GD14991+0057019GF108991999999999999999999GP10060017402008000002015017402008GQ100600392914209GR100601058913669MA1100101999999MW1001REMMET058KWWD 041555Z 17010KT 6SM OVC019 16/14 A2956 RMK AO1 P0001;EQDQ01+000000PRSWM2
0129745966999992000040600154+39020-074920FM-15+0007KWWD V0202701N004112200019N0160931N1+00901-00101999999ADDGF100991999999999999999999MA1101251999999MW1001REMMET051KWWD 060015Z 27008KT 10SM CLR 09/M01 A2990 RMK AO1;EQDQ01+000000PRSWM2
0179745966999992000040805003+39020-074920FM-15+0007KWWD V0201701N005712200019N0160931N1+01401+01001999999ADDGF100991999999999999999999GP10060000002000000002000000002000GR100600000900009MA1100981999999MW1001REMMET050KWWD 080455Z 17011KT 10SM CLR 14/10 A2982 RMK AO1;EQDQ01+000000PRSWM2
0199745966999992000041009003+39020-074920FM-15+0007KWWD V0202601N004112200019N0160931N1+00701+00101999999ADDGF100991999999999999999999GP10060000002000000002000000002000GR100600000900009MA1101831999999MD1210171+9999MW1001REMMET056KWWD 100855Z 26008KT 10SM CLR 07/01 A3007 RMK AO1 52017;EQDQ01+000000PRSWM2
0180745966999992000041408003+39020-074920FM-15+0007KWWD V0200301N001512200019N0160931N1+00101-00101999999ADDGF100991999999999999999999GP10060000002000000002000000002000GR100600000900009MA1103081999999MW1001REMMET051KWWD 140755Z 03003KT 10SM CLR 01/M01 A3044 RMK AO1;EQDQ01+000000PRSWM2
0237745966999992000041806003+39020-074920FM-15+0007KWWD V0200501N009819999999N0160931N1+00801+00601999999ADDAA106000391GP10060000002000000002000000002000GR100600000900009KA1999M+00801KA2999N+00801MA1101461999999MD1710171+9999MW1001OC101591REMMET075KWWD 180555Z 05019G31KT OVC006 08/06 A2996 RMK AO1 60001 10080 20080 57017;EQDQ01+000000PRSWM2
0197745966999992000042104003+39020-074920FM-15+0007KWWD V0201601N007210012019N0160931N1+00801+00701999999ADDGD14991+0012019GF108991999999999999999999GP10060000002000000002000000002000GR100600000900009MA1101521999999MW1001REMMET053KWWD 210355Z 16014KT 10SM OVC004 08/07 A2998 RMK AO1;EQDQ01+000000PRSWM2
0208745966999992000050116003+39020-074920FM-15+0007KWWD V0201701N007212200019N0160931N1+01601-00101999999ADDGF100991999999999999999999GP10060078902008056702015030102008GQ100600305913579GR100601158913459MA1102201999999MW1001OC101031REMMET054KWWD 011555Z 17014G20KT 10SM CLR 16/M01 A3018 RMK AO1;EQDQ01+000000PRSWM2
0190745966999992000051108003+39020-074920FM-15+0007KWWD V0203001N004612200019N0160931N1+01501+00901999999ADDGF100991999999999999999999GP10060000002000000002000000002000GR100600000900009MA1101081999999MW1001OC100931REMMET053KWWD 110755Z 30009G18KT 10SM CLR 15/09 A2985 RMK AO1;EQDQ01+000000PRSWM2
0196745966999992000051613003+39020-074920FM-15+0007KWWD V0203001N003112200019N0160931N1+01501+00601999999ADDGF100991999999999999999999GP10060042702008054402015015502008GQ100600600908889GR100600667913369MA1102401999999MW1001REMMET050KWWD 161255Z 30006KT 10SM CLR 15/06 A3024 RMK AO1;EQDQ01+000000PRSWM2
0224745966999992000052220003+39020-074920FM-15+0007KWWD V0200501N006710015019N0144841N1+01401+01301999999ADDGD14991+0015019GF108991999999999999999999GP10060023002008000602015022502008GQ100600377925189GR100601052913329MA1100951999999MW1001OC100931REMMET055KWWD 221955Z 05013G18KT 9SM OVC005 14/13 A2981 RMK AO1;EQDQ01+000000PRSWM2
0216745966999992000052421003+39020-074920FM-15+0007KWWD V0202401N003612200019N0160931N1+02701+01601999999ADDGF100991999999999999999999GP10060060502008066902015016502008GQ100600488926439GR100600875913319MA1100141999999MD1710101+9999MW1001REMMET056KWWD 242055Z 24007KT 10SM CLR 27/16 A2957 RMK AO1 57010;EQDQ01+000000PRSWM2
0178745966999992000052807003+39020-074920FM-15+0007KWWD V0203201N002612200019N0112651N1+01401+01301999999ADDGF100991999999999999999999GP10060000002000000002000000002000GR100600000900009MA1101121999999MW1001REMMET049KWWD 280655Z 32005KT 7SM CLR 14/13 A2986 RMK AO1;EQDQ01+000000PRSWM2
0274745966999992000052820003+39020-074920FM-15+0007KWWD V0200801N003610138019N0064371N1+01401+01101999999ADDAA101000391GD12991+0078019GD22991+0111019GD33991+0138019GF107991999999999999999999GP10060013202008000002015013202008GQ100600370925309GR100601061913309MA1100981999999MW1001REMMET072KWWD 281955Z 08007KT 4SM FEW026 SCT037 BKN046 14/11 A2982 RMK AO1 P0001;EQDQ01+000000PRSWM2
0196745966999992000060722003+39020-074920FM-15+0007KWWD V0202701N004112200019N0160931N1+02201+01101999999ADDGF100991999999999999999999GP10060042802008053402015015302008GQ100600590927559GR100600682913269MA1101901999999MW1001REMMET050KWWD 072155Z 27008KT 10SM CLR 22/11 A3009 RMK AO1;EQDQ01+000000PRSWM2
0196745966999992000060814003+39020-074920FM-15+0007KWWD V0202501N003112200019N0160931N1+02201+01401999999ADDGF100991999999999999999999GP10060042502008015802015031702008GQ100600469909439GR100600905913259MA1102271999999MW1001REMMET050KWWD 081355Z 25006KT 10SM CLR 22/14 A3020 RMK AO1;EQDQ01+000000PRSWM2
0071745966999992000060901009+39000-074917NSRDB+000799999V020999999999999999999999999999+99999+99999999999ADDGP10060000002008000002015000002008GQ100600883929899GR100600014904979
0179745966999992000060904003+39020-074920FM-15+0007KWWD V0202001N004612200019N0160931N1+01901+01401999999ADDGF100991999999999999999999GP10060000002000000002000000002000GR100600000900009MA1101931999999MW1001REMMET050KWWD 090355Z 20009KT 10SM CLR 19/14 A3010 RMK AO1;EQDQ01+000000PRSWM2
0254745966999992000061218003+39020-074920FM-15+0007KWWD V0203201N002612200019N0160931N1+03101+02101999999ADDGF100991999999999999999999GP10060087702008061102015029202008GQ100600174920369GR100601263913249KA1999M+03101KA2999N+02401MA1101831999999MD1710101+9999MW1001REMMET068KWWD 121755Z 32005KT 10SM CLR 31/21 A3007 RMK AO1 10310 20240 57010;EQDQ01+000000PRSWM2
0199745966999992000061609003+39190-074920FM-15+0007KWWD V0202301N004612200019N0160931N1+02101+01901999999ADDGF100991999999999999999999GP10060000002000000002000000002000GR100600000900009MA1101521999999MD1710171+9999MW1001REMMET056KWWD 160855Z 23009KT 10SM CLR 21/19 A2998 RMK AO1 57017;EQDQ01+000000PRSWM2
0179745966999992000061909003+39190-074920FM-15+0007KWWD V0202801N003112200019N0160931N1+02201+02101999999ADDGF100991999999999999999999GP10060000002000000002000000002000GR100600000900009MA1101801999999MW1001REMMET050KWWD 190855Z 28006KT 10SM CLR 22/21 A3006 RMK AO1;EQDQ01+000000PRSWM2
0127745966999992000062610154+39190-074920FM-15+0007KWWD V0201901N003112200019N0128741N1+02401+02201999999ADDGF100991999999999999999999MA1101661999999MW1001REMMET049KWWD 261015Z 19006KT 8SM CLR 24/22 A3002 RMK AO1;EQDQ01+000000PRSWM2
0264745966999992000070400003+39190-074920FM-15+0007KWWD V0201801N005112200019N0160931N1+02401+01901999999ADDGF100991999999999999999999GP10060002902008000002015002902008GQ100600805929199GR100600219913219KA1999M+02801KA2999N+02401MA1101591999999MD1710031+9999MW1001REMMET078KWWD 032355Z 18010KT 10SM CLR 24/19 A3000 RMK AO1 10280 20240 402800210 57003;EQDQ01+000000PRSWM2
0196745966999992000070519003+39190-074920FM-15+0007KWWD V0202601N004112200019N0160931N1+02701+01901999999ADDGF100991999999999999999999GP10060061702008024502015039402008GQ100600246923389GR100601200913219MA1101051999999MW1001REMMET050KWWD 051855Z 26008KT 10SM CLR 27/19 A2984 RMK AO1;EQDQ01+000000PRSWM2
0071745966999992000071712009+39000-074917NSRDB+000799999V020999999999999999999999999999+99999+99999999999ADDGP10060019102008015502015014402008GQ100600723907689GR100600401913229
0207745966999992000071814003+39010-074920FM-15+0007KWWD V0202501N005712200019N0160931N1+02601+02101999999ADDGF100991999999999999999999GP10060056402008060902015016702008GQ100600493909539GR100600860913239MA1101421999999MW1001OC100871REMMET053KWWD 181355Z 25011G17KT 10SM CLR 26/21 A2995 RMK AO1;EQDQ01+000000PRSWM2
0209745966999992000072207003+39010-074920FM-15+0007KWWD V0201901N003112200019N0160931N1+02101+01901999999ADDGD12991+0240019GF102991999999999999999999GP10060000002000000002000000002000GR100600000900009MA1101321999999MW1001REMMET065KWWD 220655Z 19006KT 10SM FEW080 21/19 A2992 RMK AO1 LTG DSNT NW;EQDQ01+000000PRSWM2
0196745966999992000072311003+39010-074920FM-15+0007KWWD V0209999C000012200019N0160931N1+01701+01401999999ADDGF100991999999999999999999GP10060003202008000002015003202008GQ100600841906899GR100600137913249MA1102001999999MW1001REMMET050KWWD 231055Z 00000KT 10SM CLR 17/14 A3012 RMK AO1;EQDQ01+000000PRSWM2
0196745966999992000072901003+39010-074920FM-15+0007KWWD V0201301N003112200019N0160931N1+02101+01901999999ADDGF100991999999999999999999GP10060000002008000002015000002008GQ100600890929399GR100600005902989MA1101831999999MW1001REMMET050KWWD 290055Z 13006KT 10SM CLR 21/19 A3007 RMK AO1;EQDQ01+000000PRSWM2
0264745966999992000080100003+39010-074920FM-15+0007KWWD V0201601N004612200019N0160931N1+02401+02301999999ADDGF100991999999999999999999GP10060004202008005402015003502008GQ100600831928789GR100600159913269KA1999M+02801KA2999N+02401MA1101861999999MD1410001+9999MW1001REMMET078KWWD 312355Z 16009KT 10SM CLR 24/23 A3008 RMK AO1 10280 20240 402800230 54000;EQDQ01+000000PRSWM2
0299745966999992000080106003+39010-074920FM-15+0007KWWD V0202101N003612200019N0160931N1+02301+02301999999ADDGD12991+0144019GD22991+0180019GD32991+0180019GF104991999999999999999999GP10060000002000000002000000002000GR100600000900009KA1999M+02401KA2999N+02301MA1101861999999MD1410001+9999MW1001REMMET085KWWD 010555Z 21007KT 10SM FEW048 SCT060 SCT065 23/23 A3008 RMK AO1 10240 20230 54000;EQDQ01+000000PRSWM2
0213745966999992000080316003+39010-074920FM-15+0007KWWD V0202601N004112200019N0112651N1+02801+02301999999ADDGD12991+0087019GF102991999999999999999999GP10060072902008050002015029602008GQ100600302912989GR100601146913279MA1101691999999MW1001REMMET052KWWD 031555Z 26008KT 7SM FEW029 28/23 A3003 RMK AO1;EQDQ01+000000PRSWM2
0227745966999992000080521003+39010-074920FM-15+0007KWWD V0202901N005112200019N0160931N1+02601+01201999999ADDGF100991999999999999999999GP10060058802008070502015013102008GQ100600496925819GR100600859913289MA1101631999999MD1410001+9999MW1001OC100771REMMET059KWWD 052055Z 29010G15KT 10SM CLR 26/12 A3001 RMK AO1 54000;EQDQ01+000000PRSWM2
0216745966999992000080815003+39010-074920FM-15+0007KWWD V0203001N002612200019N0160931N1+02801+02301999999ADDGF100991999999999999999999GP10060068902008068402015017202008GQ100600410911349GR100601002913299MA1101591999999MD1710031+9999MW1001REMMET056KWWD 081455Z 30005KT 10SM CLR 28/23 A3000 RMK AO1 57003;EQDQ01+000000PRSWM2
0237745966999992000081506003+39010-074920FM-15+0007KWWD V0203401N002112200019N0160931N1+01901+01601999999ADDGF100991999999999999999999GP10060000002000000002000000002000GR100600000900009KA1999M+02001KA2999N+01901MA1101731999999MD1710031+9999MW1001REMMET068KWWD 150555Z 34004KT 10SM CLR 19/16 A3004 RMK AO1 10200 20190 57003;EQDQ01+000000PRSWM2
0250745966999992000090303003+39010-074920FM-15+0007KWWD V0201901N002610009019N0112651N1+02401+02401999999ADDAA101000391AA203000591GD14991+0009019GF108991999999999999999999GP10060000002000000002000000002000GR100600000900009MA1101521999999MD1210071+9999MW1001REMMET070KWWD 030255Z 19005KT 7SM OVC003 24/24 A2998 RMK AO1 P0001 60002 52007;EQDQ01+000000PRSWM2
0196745966999992000090307003+39010-074920FM-15+0007KWWD V0201601N001512200019N0144841N1+02401+02301999999ADDGD12991+0012019GF104991999999999999999999GP10060000002000000002000000002000GR100600000900009MA1101391999999MW1001REMMET052KWWD 030655Z 16003KT 9SM SCT004 24/23 A2994 RMK AO1;EQDQ01+000000PRSWM2
0225745966999992000090516003+39010-074920FM-15+0007KWWD V0200301N008710075019N0160931N1+01701+01101999999ADDGD14991+0075019GF108991999999999999999999GP10060025402008001202015024402008GQ100600382914309GR100601056913459MA1102401999999MW1001OC101231REMMET056KWWD 051555Z 03017G24KT 10SM OVC025 17/11 A3024 RMK AO1;EQDQ01+000000PRSWM2
0179745966999992000090605003+39010-074920FM-15+0007KWWD V0200601N005112200019N0160931N1+01601+00701999999ADDGF100991999999999999999999GP10060000002000000002000000002000GR100600000900009MA1102781999999MW1001REMMET050KWWD 060455Z 06010KT 10SM CLR 16/07 A3035 RMK AO1;EQDQ01+000000PRSWM2
0264745966999992000090800003+39010-074920FM-15+0007KWWD V0201201N002112200019N0160931N1+01601+01201999999ADDGF100991999999999999999999GP10060000002008000002015000002008GQ100600884927639GR100600012904159KA1999M+02101KA2999N+01601MA1102511999999MD1710071+9999MW1001REMMET078KWWD 072355Z 12004KT 10SM CLR 16/12 A3027 RMK AO1 10210 20160 402100130 57007;EQDQ01+000000PRSWM2
0178745966999992000091204003+39010-074920FM-15+0007KWWD V0201401N002612200019N0096561N1+02101+01801999999ADDGF100991999999999999999999GP10060000002000000002000000002000GR100600000900009MA1102001999999MW1001REMMET049KWWD 120355Z 14005KT 6SM CLR 21/18 A3012 RMK AO1;EQDQ01+000000PRSWM2
0178745966999992000091205003+39010-074920FM-15+0007KWWD V0201401N002612200019N0080461N1+02101+01901999999ADDGF100991999999999999999999GP10060000002000000002000000002000GR100600000900009MA1101961999999MW1001REMMET049KWWD 120455Z 14005KT 5SM CLR 21/19 A3011 RMK AO1;EQDQ01+000000PRSWM2
0071745966999992000091212009+39000-074917NSRDB+000799999V020999999999999999999999999999+99999+99999999999ADDGP10060009902008017402015007102008GQ100600808909239GR100600216913509
0195745966999992000091316003+39010-074920FM-15+0007KWWD V0203301N003112200019N0128741N1+02501+02101999999ADDGF100991999999999999999999GP10060060702008034402015034602008GQ100600406914629GR100601025913519MA1101461999999MW1001REMMET049KWWD 131555Z 33006KT 8SM CLR 25/21 A2996 RMK AO1;EQDQ01+000000PRSWM2
0219745966999992000091908003+39010-074920FM-15+0007KWWD V0200901N002610114019N0160931N1+01901+01701999999ADDGD13991+0114019GD24991+0132019GF108991999999999999999999GP10060000002000000002000000002000GR100600000900009MA1101761999999MW1001REMMET060KWWD 190755Z 09005KT 10SM BKN038 OVC044 19/17 A3005 RMK AO1;EQDQ01+000000PRSWM2
0179745966999992000092202003+39010-074920FM-15+0007KWWD V0203301N004612200019N0160931N1+01901+00901999999ADDGF100991999999999999999999GP10060000002000000002000000002000GR100600000900009MA1101731999999MW1001REMMET050KWWD 220155Z 33009KT 10SM CLR 19/09 A3004 RMK AO1;EQDQ01+000000PRSWM2
0196745966999992000100416003+39010-074920FM-15+0007KWWD V0201701N006212200019N0160931N1+02601+01901999999ADDGF100991999999999999999999GP10060065802008074902015014902008GQ100600474915319GR100600926913679MA1101591999999MW1001REMMET050KWWD 041555Z 17012KT 10SM CLR 26/19 A3000 RMK AO1;EQDQ01+000000PRSWM2
0206745966999992000101005003+39010-074920FM-15+0007KWWD V0203201N003612200019N0160931N1+00701-00201999999ADDGD12991+0150019GF104991999999999999999999GP10060000002000000002000000002000GR100600000900009MA1102001999999MW1001REMMET062KWWD 100455Z 32007KT 290V020 10SM SCT050 07/M02 A3012 RMK AO1;EQDQ01+000000PRSWM2
0247745966999992000101500003+39010-074920FM-15+0007KWWD V0202001N002112200019N0160931N1+01501+00901999999ADDGF100991999999999999999999GP10060000002000000002000000002000GR100600000900009KA1999M+02401KA2999N+01401MA1101901999999MD1410001+9999MW1001REMMET078KWWD 142355Z 20004KT 10SM CLR 15/09 A3009 RMK AO1 10240 20140 402400080 54000;EQDQ01+000000PRSWM2
0179745966999992000101508003+39010-074920FM-15+0007KWWD V0202701N002612200019N0160931N1+01301+00901999999ADDGF100991999999999999999999GP10060000002000000002000000002000GR100600000900009MA1101831999999MW1001REMMET050KWWD 150755Z 27005KT 10SM CLR 13/09 A3007 RMK AO1;EQDQ01+000000PRSWM2
0216745966999992000101921003+39010-074920FM-15+0007KWWD V0203101N003612200019N0160931N1+01801+00601999999ADDGF100991999999999999999999GP10060024702008050302015009102008GQ100600719923949GR100600428913799MA1101861999999MD1410001+9999MW1001REMMET056KWWD 192055Z 31007KT 10SM CLR 18/06 A3008 RMK AO1 54000;EQDQ01+000000PRSWM2
0247745966999992000102100003+39010-074920FM-15+0007KWWD V0201701N002112200019N0160931N1+01401+01001999999ADDGF100991999999999999999999GP10060000002000000002000000002000GR100600000900009KA1999M+01901KA2999N+01401MA1102401999999MD1710031+9999MW1001REMMET078KWWD 202355Z 17004KT 10SM CLR 14/10 A3024 RMK AO1 10190 20140 401900040 57003;EQDQ01+000000PRSWM2
0265745966999992000102218003+39010-074920FM-15+0007KWWD V0200701N004612200019N0160931N1+01601+00601999999ADDGF100991999999999999999999GP10060062502008080102015012602008GQ100600516919449GR100600858913819KA1999M+01701KA2999N+01201MA1103081999999MD1410001+9999MW1001OC100931REMMET071KWWD 221755Z 07009G18KT 10SM CLR 16/06 A3044 RMK AO1 10170 20120 54000;EQDQ01+000000PRSWM2
0280745966999992000102318003+39010-074920FM-15+0007KWWD V0200701N004610111019N0160931N1+01601+00601999999ADDGD13991+0111019GF107991999999999999999999GP10060054902008056202015020102008GQ100600519919439GR100600852913829KA1999M+01701KA2999N+00401MA1103691999999MD1710071+9999MW1001REMMET079KWWD 231755Z 07009KT 010V080 10SM BKN037 16/06 A3062 RMK AO1 10170 20040 57007;EQDQ01+000000PRSWM2
0196745966999992000102323003+39010-074920FM-15+0007KWWD V0209999C000012200019N0160931N1+01001+00401999999ADDGF100991999999999999999999GP10060000002008000002015000002008GQ100600894925479GR100600002901969MA1103561999999MW1001REMMET050KWWD 232255Z 00000KT 10SM CLR 10/04 A3058 RMK AO1;EQDQ01+000000PRSWM2
0247745966999992000102400003+39010-074920FM-15+0007KWWD V0209999C000012200019N0160931N1+00801+00501999999ADDGF100991999999999999999999GP10060000002000000002000000002000GR100600000900009KA1999M+01601KA2999N+00801MA1103561999999MD1210031+9999MW1001REMMET078KWWD 232355Z 00000KT 10SM CLR 08/05 A3058 RMK AO1 10160 20080 401700030 52003;EQDQ01+000000PRSWM2
0179745966999992000102510003+39010-074920FM-15+0007KWWD V0209999C000012200019N0160931N1+00701+00501999999ADDGF100991999999999999999999GP10060000002000000002000000002000GR100600000900009MA1102571999999MW1001REMMET050KWWD 250955Z 00000KT 10SM CLR 07/05 A3029 RMK AO1;EQDQ01+000000PRSWM2
0149745966999992000102806354+39010-074920FM-15+0007KWWD V0209999C000012200019N0040231N1+01101+01001999999ADDGD12991+0210019GF102991999999999999999999MA1101151999999MW1001REMMET056KWWD 280635Z 00000KT 2 1/2SM FEW070 11/10 A2987 RMK AO1;EQDQ01+000000PRSWM2
0054745966999992000102909009+39000-074917NSRDB+000799999V020999999999999999999999999999+99999+99999999999ADDGP10060000002000000002000000002000GR100600000900009
0054745966999992000111209009+39000-074917NSRDB+000799999V020999999999999999999999999999+99999+99999999999ADDGP10060000002000000002000000002000GR100600000900009
0146745966999992000111421354+39010-074920FM-15+0007KWWD V0203201N004610123019N0160931N1+01001+00601999999ADDGD13991+0123019GF107991999999999999999999MA1100851999999MW1001REMMET053KWWD 142135Z 32009KT 10SM BKN041 10/06 A2978 RMK AO1;EQDQ01+000000PRSWM2
0140745966999992000111500354+39010-074920FM-15+0007KWWD V0203201N007212200019N0160931N1+00901-00101999999ADDGF100991999999999999999999MA1100981999999MW1001OC101131REMMET054KWWD 150035Z 32014G22KT 10SM CLR 09/M01 A2982 RMK AO1;EQDQ01+000000PRSWM2
0140745966999992000111505354+39010-074920FM-15+0007KWWD V0203101N006712200019N0160931N1+00601-00401999999ADDGF100991999999999999999999MA1101151999999MW1001OC101181REMMET054KWWD 150535Z 31013G23KT 10SM CLR 06/M04 A2987 RMK AO1;EQDQ01+000000PRSWM2
0071745966999992000111512009+39000-074917NSRDB+000799999V020999999999999999999999999999+99999+99999999999ADDGP10060000002008000002015000002008GQ100600888911509GR100600008903619
0071745966999992000112120009+39000-074917NSRDB+000799999V020999999999999999999999999999+99999+99999999999ADDGP10060026102009044102021011302009GQ100600705922089GR100600467914029
0166745966999992000113020354+39010-074920FM-15+0007KWWD V0203301N006210150019N0160931N1+00801-00101999999ADDGD14991+0150019GF108991999999999999999999MA1101761999999MW1001OC100931REMMET065KWWD 302035Z 33012G18KT 290V010 10SM OVC050 08/M01 A3005 RMK AO1;EQDQ01+000000PRSWM2
0140745966999992000120120354+39010-074920FM-15+0007KWWD V0202901N005712200019N0160931N1+00601-00201999999ADDGF100991999999999999999999MA1102441999999MW1001OC100871REMMET054KWWD 012035Z 29011G17KT 10SM CLR 06/M02 A3025 RMK AO1;EQDQ01+000000PRSWM2
0054745966999992000120312009+39000-074917NSRDB+000799999V020999999999999999999999999999+99999+99999999999ADDGP10060000002000000002000000002000GR100600000900009
0071745966999992000120722009+39000-074917NSRDB+000799999V020999999999999999999999999999+99999+99999999999ADDGP10060000302009003302021000302009GQ100600873923799GR100600039908349
0054745966999992000121103009+39000-074917NSRDB+000799999V020999999999999999999999999999+99999+99999999999ADDGP10060000002000000002000000002000GR100600000900009
0139745966999992000121211354+39010-074920FM-15+0007KWWD V0202301N008212200019N0160931N1+01101+00801999999ADDGF100991999999999999999999MA1100341999999MW1001OC101231REMMET053KWWD 121135Z 23016G24KT 10SM CLR 11/08 A2963 RMK AO1;EQDQ01+000000PRSWM2
0178745966999992000121411354+39010-074920FM-15+0007KWWD V0201901N009810015019N0080461N1+01201+01101999999ADDGD13991+0015019GD24991+0039019GF108991999999999999999999MA1101931999999MW1001OC101491REMMET062KWWD 141135Z 19019G29KT 5SM BKN005 OVC013 12/11 A3010 RMK AO1;EQDQ01+000000PRSWM2
0054745966999992000121808009+39000-074917NSRDB+000799999V020999999999999999999999999999+99999+99999999999ADDGP10060000002000000002000000002000GR100600000900009
0130745966999992000122110354+39010-074920FM-15+0007KWWD V0209999C000012200019N0160931N1-00801-01101999999ADDGF100991999999999999999999MA1102811999999MW1001REMMET052KWWD 211035Z 00000KT 10SM CLR M08/M11 A3036 RMK AO1;EQDQ01+000000PRSWM2
0096745966999992000122400354+39010-074920FM-16+0007KWWD V02099999999992200019N0144841N1+99999+99999999999ADDMA1103291999999MW1001REMMET044KWWD 240035Z 10SM CLR M03/M11 A3050 RMK AO1;EQDQ01+000000PRSWM2
0096745966999992000122919354+39010-074920FM-16+0007KWWD V02099999999992200019N0160931N1+99999+99999999999ADDMA1101521999999MW1001REMMET044KWWD 291935Z 10SM CLR M03/M09 A2998 RMK AO1;EQDQ01+000000PRSWM2
0209745980999992000010120003+37080-076370FM-15+0003KLFI V0201901N004612200019N0112651N1+01901+00101102381ADDGD12991+0600019GF102991999999999999999999GP10060034302009076602021006402009GQ100600687921479GR100600513914159MA1102341999999MW1001REMMET067KLFI 011955Z 19009KT 7SM FEW200 19/01 A3022 RMK SLP238 8/001 9/001;
0250745980999992000010217003+37080-076370FM-15+0003KLFI V0202101N004610210019N0112651N1+01801+00701102431ADDGD13991+0210019GD23991+0750019GF107991999999999999999999GP10060032002009016902021023802009GQ100600608916979GR100600690914159MA1102441999999MW1001REMMET074KLFI 021655Z 21009KT 7SM BKN070 BKN250 18/07 A3025 RMK SLP243 8/078 9/051;EQDQ01+000000PRSWM2
0254745980999992000010320003+37080-076370FM-15+0003KLFI V0202101N006710750019N0112651N1+02201+01301101651ADDGD12991+0090019GD23991+0750019GF107991999999999999999999GP10060028402009037402021014602009GQ100600685921469GR100600519914159MA1102001999999MW1001REMMET078KLFI 031955Z COR 21013KT 7SM FEW030 BKN250 22/13 A3012 RMK SLP165 8/108 9/106;EQDQ01+000000PRSWM2
0201745980999992000011100003+37080-076370FM-15+0003KLFI V0202201N005112200019N0112651N1+01501+01301100531ADDGF100991999999999999999999GP10060000002000000002000000002000GR100600000900009MA1100541999999MD1310391+9999MW1001REMMET058KLFI 102355Z 22010KT 7SM SKC 15/13 A2969 RMK SLP053 53039;EQDQ01+000000PRSWM2
0071745980999992000011220009+37083-076350NSRDB+000399999V020999999999999999999999999999+99999+99999999999ADDGP10060037402009078002021006802009GQ100600670921449GR100600552914149
0142745980999992000011704554+37080-076370FM-15+0003KLFI V0203301N010312200019N0112651N1+00401-01302102381ADDGF100991999999999999999999MA1102371999999MW1001OC101291REMMET056KLFI 170455Z 33020G25KT 7SM SKC 04/M13 A3023 RMK SLP238;EQDQ01+000000PRSWM2
0054745980999992000011712009+37083-076350NSRDB+000399999V020999999999999999999999999999+99999+99999999999ADDGP10060000002000000002000000002000GR100600000900009
0234745980999992000011916003+37080-076370FM-15+0003KLFI V0202601N004112200019N0112651N1+00101-00401101801ADDGD12991+0750019GF102991999999999999999999GP10060046902009080602021009902009GQ100600627915209GR100600647914139MA1101801999999MW1001REMMET073KLFI 191555Z 26008KT 7SM FEW250 01/M04 A3006 RMK SLP180 8/001 9/002 WR//;EQDQ01+000000PRSWM2
0241745980999992000012604003+37080-076370FM-15+0003KLFI V0202801N003610150019N0112651N1-00201-00301100461ADDGD12991+0060019GD24991+0150019GF108991999999999999999999GP10060000002000000002000000002000GR100600000900009MA1100471999999MW1001REMMET082KLFI 260355Z 28007KT 7SM FEW020 OVC050 M02/M03 A2967 RMK SLP046 8/6// 9/8// PSR12;EQDQ01+000000PRSWM2
0183745980999992000012808003+37080-076370FM-15+0003KLFI V0202501N003112200019N0112651N1-01001-01501103111ADDGF100991999999999999999999GP10060000002000000002000000002000GR100600000900009MA1103121999999MW1001REMMET054KLFI 280755Z 25006KT 7SM SKC M10/M15 A3045 RMK SLP311;EQDQ01+000000PRSWM2
0220745980999992000013018484+37080-076370FM-16+0003KLFI V0200801N004110090019N0048281N1+00301+00301999999ADDGD12991+0030019GD23991+0090019GD34991+0150019GF108991999999999999999999MA1102071999999MW1611REMMET065KLFI 301848Z 08008KT 3SM -RA BR SCT010 BKN030 OVC050 03/03 A3014;EQDQ01+000100PRSWM3Q02+000003PRSWM1Q03    003PRSWM1
0183745980999992000020107003+37080-076370FM-15+0003KLFI V0202201N003612200019N0112651N1-00301-00301101721ADDGF100991999999999999999999GP10060000002000000002000000002000GR100600000900009MA1101731999999MW1001REMMET054KLFI 010655Z 22007KT 7SM SKC M03/M03 A3004 RMK SLP172;EQDQ01+000000PRSWM2
0200745980999992000020114003+37080-076370FM-15+0003KLFI V0202601N005712200019N0112651N1-00201-00401101801ADDGF100991999999999999999999GP10060021902009048602021010502009GQ100600764912449GR100600330914099MA1101801999999MW1001REMMET054KLFI 011355Z 26011KT 7SM SKC M02/M04 A3006 RMK SLP180;EQDQ01+000000PRSWM2
0212745980999992000020708003+37080-076370FM-15+0003KLFI V0202101N002110750019N0112651N1+00201-00101102351ADDGD14991+0750019GF108991999999999999999999GP10060000002000000002000000002000GR100600000900009MA1102341999999MW1001REMMET068KLFI 070755Z 21004KT 7SM OVC250 02/M01 A3022 RMK SLP235 8/007 9/008;EQDQ01+000000PRSWM2
0220745980999992000021009003+37080-076370FM-15+0003KLFI V0203201N001512200019N0080461N1+00001+00001101671ADDGF100991999999999999999999GP10060000002000000002000000002000GR100600000900009MA1101591999999MD1710201+9999MW1101REMMET061KLFI 100855Z 32003KT 5SM BR SKC 00/00 A3000 RMK SLP167 57020;EQDQ01+000003PRSWM1Q02    003PRSWM1
0228745980999992000021623003+37080-076370FM-15+0003KLFI V0202101N003110750019N0112651N1+01401+00601101631ADDGD13991+0750019GF107991999999999999999999GP10060001702008011702015001202008GQ100600861925159GR100600071910399MA1101631999999MW1001REMMET067KLFI 162255Z 21006KT 7SM BKN250 14/06 A3001 RMK SLP163 8/008 9/005;EQDQ01+000000PRSWM2
0274745980999992000021820003+37080-076370FM-15+0003KLFI V0202201N006210045019N0064371N1+00701+00601102041ADDGD13991+0045019GD24991+0090019GF108991999999999999999999GP10060016402008000602015016102008GQ100600577921869GR100600748914009MA1102031999999MW1101REMMET082KLFI 181955Z 22012KT 4SM BR BKN015 OVC030 07/06 A3013 RMK SLP204 8/5// 9/8// WR//;EQDQ01+000003PRSWM1Q02    003PRSWM1
0220745980999992000021914104+37080-076370FM-16+0003KLFI V0202301N006210300019N0080461N1+01501+01501999999ADDGD12991+0045019GD22991+0090019GD34991+0300019GF108991999999999999999999MA1101251999999MW1611REMMET065KLFI 191410Z 23012KT 5SM -RA BR FEW015 SCT030 OVC100 15/15 A2990;EQDQ01+000100PRSWM3Q02+000003PRSWM1Q03    003PRSWM1
0248745980999992000022521003+37080-076370FM-15+0003KLFI V0200401N001512200019N0112651N1+02301+00701102361ADDGD12991+0090019GF102991999999999999999999GP10060039802008070702015009202008GQ100600644923429GR100600603913969MA1102371999999MD1510051+9999MW1001REMMET073KLFI 252055Z 04003KT 7SM FEW030 23/07 A3023 RMK SLP236 8/100 9/100 55005;EQDQ01+000000PRSWM2
0249745980999992000022613003+37080-076370FM-15+0003KLFI V0200701N005110006019N0008051N1+00601+00601102971ADDGD13991+0006019GF107991999999999999999999GP10060010202008017702015007602008GQ100600813910819GR100600210913959MA1102981999999MW1441REMMET072KLFI 261255Z 07010KT 1/2SM FG BKN002 06/06 A3041 RMK SLP297 8/600 9/700;EQDQ01+000003PRSWM1Q02    003PRSWM1
0220745980999992000022710003+37080-076370FM-15+0003KLFI V0202401N00101000151CN0003021N1+00601+00601102681ADDGD15991+0001519GF109991999999000251999999GP10060000002000000002000000002000GR100600000900009MA1102681999999MW1451REMMET060KLFI 270955Z 24002KT 3/16SM FG VV001 06/06 A3032 RMK SLP268;EQDQ01+000003PRSWM1Q02    003PRSWM1
0160745980999992000030507554+37080-076370FM-15+0003KLFI V0202501N003612200019N0112651N1+00301+00001101061ADDGD12991+0600019GF102991999999999999999999MA1101051999999MW1001REMMET067KLFI 050755Z 25007KT 7SM FEW200 03/00 A2984 RMK SLP106 8/008 9/001;EQDQ01+000000PRSWM2
0218745980999992000030619003+37080-076370FM-15+0003KLFI V0203501N004612200019N0112651N1+01601-00101102021ADDGF100991999999999999999999GP10060071902008084802015012702008GQ100600459920589GR100600966913899MA1102031999999MW1001OC100821REMMET064KLFI 061855Z 35009G16KT 280V010 7SM SKC 16/M01 A3013 RMK SLP202;EQDQ01+000000PRSWM2
0181745980999992000030804003+37080-076370FM-15+0003KLFI V0202001N003612200019N0112651N1+01301+00401101851ADDGF100991999999999999999999GP10060000002000000002000000002000GR100600000900009MA1101861999999MW1001REMMET052KLFI 080355Z 20007KT 7SM SKC 13/04 A3008 RMK SLP185;EQDQ01+000000PRSWM2
0248745980999992000030815003+37080-076370FM-15+0003KLFI V0202801N004112200019N0112651N1+02301+00401101801ADDGD12991+0750019GF102991999999999999999999GP10060052402008069802015014202008GQ100600569912809GR100600757913879MA1101801999999MD1010071+9999MW1001REMMET073KLFI 081455Z 28008KT 7SM FEW250 23/04 A3006 RMK SLP180 8/001 9/001 50007;EQDQ01+000000PRSWM2
0071745980999992000031021009+37083-076350NSRDB+000399999V020999999999999999999999999999+99999+99999999999ADDGP10060043602008054602015017002008GQ100600609923899GR100600673913869
0071745980999992000031218009+37083-076350NSRDB+000399999V020999999999999999999999999999+99999+99999999999ADDGP10060012602008000002015012602008GQ100600404918589GR100601054913849
0250745980999992000031917003+37080-076370FM-15+0003KLFI V0200801N008710120019N0112651N1+01001+00401103121ADDGD12991+0075019GD23991+0120019GF107991999999999999999999GP10060047602008012602015037802008GQ100600388916289GR100601074913799MA1103121999999MW1001REMMET074KLFI 191655Z 08017KT 7SM SCT025 BKN040 10/04 A3045 RMK SLP312 8/500 9/700;EQDQ01+000000PRSWM2
0181745980999992000032502003+37080-076370FM-15+0003KLFI V02099999999992200019N0112651N1+00901+00701102191ADDGF100991999999999999999999GP10060000002000000002000000002000GR100600000900009MA1102201999999MW1001REMMET052KLFI 250155Z VRB02KT 7SM SKC 09/07 A3018 RMK SLP219;EQDQ01+000000PRSWM2
0250745980999992000032516003+37080-076370FM-15+0003KLFI V0202101N007710750019N0112651N1+01901+00901101731ADDGD12991+0360019GD24991+0750019GF108991999999999999999999GP10060074302008071302015021302008GQ100600421914069GR100601018913749MA1101731999999MW1001REMMET074KLFI 251555Z 21015KT 7SM FEW120 OVC250 19/09 A3004 RMK SLP173 8/078 9/018;EQDQ01+000000PRSWM2
0211745980999992000032601003+37080-076370FM-15+0003KLFI V0202001N006210390019N0112651N1+02001+01001101191ADDGD13991+0390019GF107991999999999999999999GP10060000002000000002000000002000GR100600000900009MA1101191999999MW1001REMMET067KLFI 260055Z 20012KT 7SM BKN130 20/10 A2988 RMK SLP119 8/070 9/060;EQDQ01+000000PRSWM2
0201745980999992000033013254+37080-076370FM-15+0003KLFI V0202801N001510270019N0112651N1+01101+00601999999ADDGD12991+0180019GD23991+0270019GD34991+0540019GF108991999999999999999999MA1101561999999MW1611REMMET062KLFI 301325Z 28003KT 7SM -RA SCT065 BKN090 OVC180 11/06 A2999;EQDQ01+000003PRSWM1Q02    003PRSWM1
0228745980999992000040120003+37080-076370FM-15+0003KLFI V0201301N004610750019N0112651N1+01901+00001102391ADDGD13991+0750019GF107991999999999999999999GP10060068602008074902015016002008GQ100600456923359GR100600956913689MA1102401999999MW1001REMMET067KLFI 011955Z 13009KT 7SM BKN250 19/00 A3024 RMK SLP239 8/006 9/006;EQDQ01+000000PRSWM2
0303745980999992000040420003+37080-076370FM-15+0003KLFI V0202601N007710330019N0112651N1+01901+01201100141ADDGD12991+0060019GD22991+0135019GD34991+0330019GF108991999999999999999999GP10060011402008000002015011402008GQ100600449923479GR100600967913669MA1100141999999MW1001OC101131REMMET104KLFI 041955Z COR 26015G22KT 7SM FEW020 SCT045 OVC110 19/12 A2957 RMK PK WND 23026/27 SLP014 8/57/ 9/35/;EQDQ01+000000PRSWM2
0054745980999992000040809009+37083-076350NSRDB+000399999V020999999999999999999999999999+99999+99999999999ADDGP10060000002000000002000000002000GR100600000900009
0275745980999992000040909003+37080-076370FM-15+0003KLFI V0203001N006210240019N0112651N1+00401+00201100801ADDAA103000391GD12991+0150019GD23991+0240019GF107991999999999999999999GP10060000002000000002000000002000GR100600000900009MA1100811999999MD1110271+9999MW1001REMMET091KLFI 090859Z 30012KT 7SM SCT050 BKN080 04/02 A2977 RMK SLP080 60001 8/570 9/430 51027 WR//;EQDQ01+000000PRSWM2
0054745980999992000041007009+37083-076350NSRDB+000399999V020999999999999999999999999999+99999+99999999999ADDGP10060000002000000002000000002000GR100600000900009
0071745980999992000041420009+37083-076350NSRDB+000399999V020999999999999999999999999999+99999+99999999999ADDGP10060018302008000002015018302008GQ100600426923919GR100600999913589
0332745980999992000041806003+37080-076370FM-15+0003KLFI V0200601N004110090019N0112651N1+01401+01301100821ADDAA106029291GA1999+009001091GD12991+0015019GD23991+0090019GD33991+0135019GF107991999999999999999999GP10060000002000000002000000002000GR100600000900009MA1100811999999MD1710301+9999MW1001REMMET117KLFI 180555Z 06008KT 7SM FEW005 BKN030CB BKN045 14/13 A2977 RMK SLP082 CB 16 NNW MOV NE 60115 8/300 9/700 57030 WR//;EQDQ01+000000PRSWM2
0360745980999992000041821003+37080-076370FM-15+0003KLFI V0200101N00771000901CN0040231N1+01101+01101100921ADDAA103000591GD12991+0006019GD23991+0015019GD34991+0030019GF108991999999999999999999GP10060010002008000002015010002008GQ100600527925429GR100600819913559MA1100911999999MD1510001+9999MW1101OC101081REMMET120KLFI 182055Z 01015G21KT 2 1/2SM BR SCT002 BKN005 OVC010 11/11 A2980 RMK CIG 003V007 SLP092 60002 8/7// 9/8// 55000 WR//;EQDQ01+000003PRSWM1Q02    003PRSWM1
0315745980999992000041906003+37080-076370FM-15+0003KLFI V0203601N007710030019N0048281N1+00901+00901101121ADDAA106000021GD12991+0024019GD24991+0030019GF108991999999999999999999GP10060000002000000002000000002000GR100600000900009MA1101121999999MD1810031+9999MW1101MW2511OC101031REMMET101KLFI 190555Z 36015G20KT 3SM -DZ BR SCT008 OVC010 09/09 A2986 RMK SLP112 60000 8/6// 9/8// 58003 WR//;EQDQ01+000003PRSWM1Q02    003PRSWM1
