0199385830999992000120918004+40820+068680FM-12+026499999V0202901N003010042019N0100001N1+00351+00331103201ADDAA112000591AY161061AY261061GF108991999071004501021999KA1999M+00801MD1210161+9999MW1611REMSYN082AAXX  09181 38583 11497 82903 10035 20033 40320 52016 69942 76166 8872/ 333 10080;EQDQ01+000082SCOTLC
0173385830999992000121806004+40820+068680FM-12+026499999V0200901N001012200019N0040001N1+00281+00231103291ADDAY141061AY241061GA1001+999999999GF100991001001999999001001KA1999N-00131MD1210011+9999MW1101REMSYN070AAXX  18061 38583 41996 00901 10028 20023 40329 52001 71044 333 21013;
0159385830999992000122809004+40820+068680FM-12+026499999V0209999C000010042019N0040001N1+00531+00481102781ADDAY141031AY281031GF108991999071004501021999MD1810101+9999MW1101REMSYN066AAXX  28091 38583 41496 80000 10053 20048 40278 58010 71048 8872/;EQDQ01+000082SCOTLC
0140385830999992000123109004+40820+068680FM-12+026499999V0209999C000019999999N0040001N1+00651+00371102571ADDAY141031AY241031GF106991001001999999041011MD1810161+9999MW1101REMSYN066AAXX  31091 38583 41996 60000 10065 20037 40257 58016 71044 80041;
0185386110999992000010315004+40980+071580FM-12+047699999V0203401N002012200019N0100001N1+00581+00151102181ADDAA106000091GA1001+999999999GF100991001001999999001001KA1120M+01251MD1410001+9999REMSYN074AAXX  03151 38611 32997 03402 10058 20015 40218 54000 333 10125 555 53004;EQDQ01  00002PRCP06
0261386110999992000012003004+40980+071580FM-12+047699999V0209999C00001000301CN0005001N1-00441-00441102211ADDAA199000091AJ199993999999999AY141031AY241031GF109991091999999999999999GJ100009IA1309MD1810051+9999MW1451REMSYN110AAXX  20031 38611 31/93 90000 11044 21044 40221 58005 74544 333 55000 8029/ 555 21046 42997 50004 53004 7000/;EQDQ01  00002PRCP99Q02  09982SNDP  
0216386110999992000020212004+40980+071580FM-12+047699999V0200801N003019999999N0040001N1+00081-00251102101ADDAY121061AY221061GA1011+180009069GF107991999051004501999999MA1999999096281MD1410001+9999MW1101REMSYN092AAXX  02121 38611 41496 70803 10008 21025 39628 40210 54002 71022 885// 333 81686 555 10040;EQDQ01+000082SCOTLC
0203386110999992000021600004+40980+071580FM-12+047699999V0209999C000010360019N0100001N1+00041-00071102851ADDAY171061AY221061GA1021+013809049GF107991041041008001071999MA1999999096971MD1410001+9999MW1021REMSYN098AAXX  16001 38611 41597 70000 10004 21007 39697 40285 54000 70272 8447/ 333 01001 82446 555 11001;
0157386110999992000031706004+40980+071580FM-12+047699999V0200401N003010120019N0100001N1+00561-00111103081ADDGA1031+057009079GF106991061031012501001001KA1120N-00021MD1810061+9999REMSYN076AAXX  17061 38611 42697 60403 10056 21011 40308 58006 86300 333 21002 83369;
0175386110999992000040215004+40980+071580FM-12+047699999V0202301N007012200019N0100001N1+01661+00771101481ADDAA199000091GF106991021091012501001011KA1120M+02571MD1610051+9999REMSYN080AAXX  02151 38611 32697 62307 10166 20077 40148 56005 82901 333 10257 555 53011;EQDQ01  00002PRCP99
0169386110999992000042612004+40980+071580FM-12+047699999V0202001N003010360019N0100001N1+02311+00771101141ADDGA1031+011709039GF107991041031012501081001MA1999999095801MD1510041+9999REMSYN086AAXX  26121 38611 42697 72003 10231 20077 39580 40114 55004 84380 333 83339 555 10032;
0149386110999992000051121004+40980+071580FM-12+047699999V0209999C000019999999N0200001N1+01791+00921101321ADDAA112394092GA1031+011709079GF106991999999012501999999MD1410001+9999REMSYN070AAXX  11211 38611 42698 60000 10179 20092 40132 54000 63942 333 83339;
0185386110999992000051209004+40980+071580FM-12+047699999V0201001N002019999999N0100001N1+02251+00561101601ADDAY181031AY221031GA1031+220009079GF107991999091012501999999MD1810021+9999MW1021REMSYN076AAXX  12091 38611 41697 71002 10225 20056 40160 58002 70282 889// 333 83389;EQDQ01+000082SCOTLC
0157386110999992000052400004+40980+071580FM-12+047699999V0203201N002012200019N0100001N1+01741+00801101431ADDGA1001+999999999GF100991001001999999001001MA1999999095971MD1810021+9999REMSYN074AAXX  24001 38611 42997 03202 10174 20080 39597 40143 58002 333 555 10017;
0143386110999992000052712004+40980+071580FM-12+047699999V0209999C000012200019N0100001N1+03171+00651100391ADDGF102991021031012501001001MA1999999095241MD1610101+9999REMSYN076AAXX  27121 38611 42697 20000 10317 20065 39524 40039 56010 82300 555 10052;
0145386110999992000052718004+40980+071580FM-12+047699999V0203201N003012200019N0100001N1+02281+00951100541ADDGA1001+999999999GF100991001001999999001001KA1999M+03351MD1110011+9999REMSYN064AAXX  27181 38611 42997 03203 10228 20095 40054 51001 333 10335;
0135386110999992000052806004+40980+071580FM-12+047699999V0201701N002012200019N0100001N1+02581+01141100331ADDGF103991021031012501041001KA1999N+01811MD1710011+9999REMSYN070AAXX  28061 38611 42697 31702 10258 20114 40033 57001 82340 333 20181;
0135386110999992000053106004+40980+071580FM-12+047699999V0200201N004010900019N0100001N1+02671+01261100781ADDGF107991021031012501001021KA1999N+01731MD1810091+9999REMSYN070AAXX  31061 38611 42697 70204 10267 20126 40078 58009 82302 333 20173;
0225386110999992000060115004+40980+071580FM-12+047699999V0201401N00201012001CN0100001N1+02051+00801100891ADDAA199000091AY131031AY231031GA1031+024009039GF107991051091012501071001KA1120M+02641MD1210211+9999MW1021REMSYN092AAXX  01151 38611 31697 71402 10205 20080 40089 52021 70233 85970 333 10264 83358 555 53014;EQDQ01  00002PRCP99
0153386110999992000061212004+40980+071580FM-12+047699999V0201501N003012200019N0100001N1+03541+00561100231ADDGA1001+999999999GF100991001001999999001001MA1999999095141MD1710191+9999REMSYN070AAXX  12121 38611 42997 01503 10354 20056 39514 40023 57019 555 10060;
0153386110999992000080200004+40980+071570FM-12+047699999V0203401N002012200019N0100001N1+02141+01201100411ADDGF102991021031012501001001MA1999999095091MD1310021+9999REMSYN086AAXX  02001 38611 42697 23402 10214 20120 39509 40041 53002 82300 333 00021 555 10020;
0122386110999992000080721004+40980+071570FM-12+047699999V0203401N003012200019N0100001N1+02561+01441100571ADDGA1001+999999999GF100991001001999999001001MD1410001+9999REMSYN054AAXX  07211 38611 42997 03403 10256 20144 40057 54000;
0122386110999992000083109004+40980+071570FM-12+047699999V0201201N001012200019N0100001N1+03141+01551100041ADDGA1001+999999999GF100991001001999999001001MD1710091+9999REMSYN054AAXX  31091 38611 42997 01201 10314 20155 40004 57009;
0201386110999992000092415004+40980+071570FM-12+047699999V0203301N002010120019N0100001N1+02281+01191101051ADDAY111031AY211031GA1031+057009039GF107991061031012501081001KA1120M+03031MD1310051+9999MW1801REMSYN098AAXX  24151 38611 /1697 73302 10228 20119 40105 53005 78011 86380 333 10303 83369 555 53005 69902;
0174386110999992000092518004+40980+071570FM-12+047699999V0202201N007012200019N0100001N1+01501+00711101621ADDAA112000791GA1031+014709079GF104991041031012501001001KA1120M+02501MD1210261+9999REMSYN082AAXX  25181 38611 12697 42207 10150 20071 40162 52026 69902 84300 333 10250 83349;
0112386110999992000101921004+40980+071570FM-12+047699999V0200101N002012200019N0100001N1+00861+00641102361ADDGF104991041001999999041001MD1810071+9999REMSYN060AAXX  19211 38611 42997 40102 10086 20064 40236 58007 84040;
0216386110999992000111612004+40980+071570FM-12+047699999V0202101N001019999999N0100001N1+00761+00251102951ADDAY161061AY221061GA1031+220009039GF107991999031012501001001MA1999999097221MD1110021+9999MW1021REMSYN092AAXX  16121 38611 41697 72101 10076 20025 39722 40295 51002 70262 88300 333 83389 555 11007;EQDQ01+000082SCOTLC
0185386110999992000112015004+40980+071570FM-12+047699999V0203501N002012200019N0100001N1+00391+00021102741ADDAA199000091GA1001+999999999GF100991001001999999001001KA1120M+01151MD1610061+9999REMSYN074AAXX  20151 38611 32997 03502 10039 20002 40274 56006 333 10115 555 53003;EQDQ01  00002PRCP99
0198386110999992000120818004+40980+071570FM-12+047699999V0209999C000019999999N0002001N1-00081-00081103151ADDAY141061AY241061GA1999+000159999GF109991091999999999999999KA1120M+00251MD1810021+9999MW1451REMSYN076AAXX  08181 38611 41/92 90000 11008 21008 40315 58002 74544 333 10025 8039/;EQDQ01    003SCCGA1
0192386110999992000121015004+40980+071570FM-12+047699999V0203101N001019999999N0100001N1+00341+00131104031ADDGA1021+180009029GF107991999051008001999999KA1120M+00451MD1210151+9999REMSYN092AAXX  10151 38611 12597 73101 10034 20013 40403 52015 885// 333 10045 82286 555 53006 69972;EQDQ01+000082SCOTLC
0175386110999992000122315004+40980+071570FM-12+047699999V0203601N001019999999N0100001N1+00381+00041102621ADDAA199000091GF105991051001999999081001KA1120M+01201MD1210171+9999REMSYN080AAXX  23151 38611 32997 53601 10038 20004 40262 52017 85080 333 10120 555 53005;EQDQ01  00002PRCP99
0134386130999992000011603004+40920+072950FM-12+076599999V0200101N003019999999N0500001N1-01171-01441103661ADDAA124999999AJ100069199999999IA1239MD1410001+9999REMSYN074    AAXX  16031 38613 32999 /0103 11117 21144 40366 54000 333 47006 7000/;
0135386130999992000012218004+40920+072950FM-12+076599999V0200201N001012200019N9999999N1-00021-00421102061ADDGF102991001001999999001011KA1999M+00911MD1210071+9999REMSYN070AAXX  22181 38613 429// 20201 11002 21042 40206 52007 80001 333 10091;
0201386130999992000021203004+40920+072950FM-12+076599999V0200201N002012200019N0500001N1-00601-00951103611ADDAA199000091AJ100009199999999GA1001+999999999GF100991001001999999001001IA1259MD1410001+9999REMSYN080AAXX  12031 38613 32999 00202 11060 21095 40361 54002 333 41000 555 21074 7000/;EQDQ01  00002PRCP99
0143386130999992000022012004+40920+072950FM-12+076599999V0201801N001012200019N0100001N1+00471-00071102131ADDGF103991001001999999001021MA1999999093081MD1610021+9999REMSYN076AAXX  20121 38613 12997 31801 10047 21007 39308 40213 56002 80002 555 12003;
0122386130999992000022321004+40920+072950FM-12+076599999V0209999C000012200019N9999999N1+00031-00371102801ADDGA1001+999999999GF100991001001999999001001MD1410001+9999REMSYN054AAXX  23211 38613 429// 00000 10003 21037 40280 54000;
0112386130999992000022921004+40920+072950FM-12+076599999V0202601N001019999999N9999999N1+00211-00131103511ADDGF106991001001999999001081MD1710121+9999REMSYN060AAXX  29211 38613 429// 62601 10021 21013 40351 57012 80008;
0165386130999992000041615004+40920+072950FM-12+076599999V0203601N001010360019N9999999N1+01871+00551101511ADDAA199000091GF107991041091012501091001KA1999M+02361MD1610061+9999REMSYN070AAXX  16151 38613 326// 73601 10187 20055 40151 56006 84990 333 10236;EQDQ01  00002PRCP99
0171386130999992000041800004+40920+072950FM-12+076599999V0203201N001010120019N9999999N1+01291+00591101741ADDAY191061AY281061GF108991081091012501999999MA1999999092981MD1310321+9999MW1951REMSYN082AAXX  18001 38613 416// 83201 10129 20059 39298 40174 53032 79598 889// 555 12010;
0169386130999992000050603004+40920+072950FM-12+076599999V0200901N002010120019N0200001N1+01561+01091102131ADDAA112000021GF107991051091012501001021IA1099IA2999+01409MD1310161+9999REMSYN088AAXX  06031 38613 32698 70902 10156 20109 40213 53016 85902 555 20150 31014 69902 7990/;
0139386130999992000051218004+40920+072950FM-12+076599999V0200201N002012200019N9999999N1+01791+01211101541ADDAA100000191GF103991001001999999001011MD1310051+9999REMSYN076AAXX  12181 38613 119// 30202 10179 20121 40154 53005 69910 80001 555 10218;
0145386130999992000051906004+40920+072950FM-12+076599999V0202601N001012200019N0500001N1+02991+01221100311ADDGA1001+999999999GF100991001001999999001001KA1999N+01551MD1810201+9999REMSYN064AAXX  19061 38613 42999 02601 10299 20122 40031 58020 333 20155;
0133386130999992000052412004+40920+072950FM-12+076599999V0201601N001012200019N0200001N1+03071+01181100721ADDGF101991011021012501001001MA1999999092251MD1610021+9999REMSYN066AAXX  24121 38613 42698 11601 10307 20118 39225 40072 56002 81200;
0086386130999992000060121004+40920+072950FM-12+076599999V0202201N002019999999N9999999N1+01281+00971101501ADDMD1210021+9999REMSYN060AAXX  01211 38613 426// /2202 10128 20097 40150 52002 82900;
0140386130999992000060721004+40920+072950FM-12+076599999V0200201N003010120019N9999999N1+01951+01261100461ADDAY111031AY201031GF105991051091012501001001MD1810111+9999MW1131REMSYN066AAXX  07211 38613 416// 50203 10195 20126 40046 58011 71310 85900;
0199386130999992000060818004+40920+072950FM-12+076599999V0200201N003010120019N9999999N1+02061+01121100652ADDAA100000791AY191061AY281061GF106991061091012501001001KA1999M+03421MD1110081+9999MW1021REMSYN082AAXX  08181 38613 416// 60203 10206 20112 40065 51008 69900 70298 86900 333 10342;EQDQ01+100653APOSLP
0112386130999992000060909004+40920+072950FM-12+076599999V0201901N002012200019N0200001N1+03091+00731100201ADDGF101991011021012501001001MD1710191+9999REMSYN060AAXX  09091 38613 42698 11902 10309 20073 40020 57019 81200;
0153386130999992000061300004+40920+072950FM-12+076599999V0200201N002012200019N9999999N1+01751+00711100571ADDGA1001+999999999GF100991001001999999001001MA1999999092031MD1410001+9999REMSYN070AAXX  13001 38613 429// 00202 10175 20071 39203 40057 54000 555 10016;
0143386130999992000072000004+40920+072940FM-12+076599999V0200101N002010360019N0200001N1+01911+01141100631ADDGF107991021051012501041021MA1999999092161MD1710021+9999REMSYN076AAXX  20001 38613 42698 70102 10191 20114 39216 40063 57002 82542 555 10018;
0165386130999992000072715004+40920+072940FM-12+076599999V0209999C000010360019N0200001N1+02811+01511100451ADDAA199000091GF107991041091012501091001KA1999M+03341MD1310061+9999REMSYN070AAXX  27151 38613 32698 70000 10281 20151 40045 53006 84990 333 10334;EQDQ01  00002PRCP99
0133386130999992000080100004+40920+072940FM-12+076599999V0200101N002010900019N0500001N1+02011+01211100721ADDGF106991021091012501001021MA1999999092271MD1710081+9999REMSYN066AAXX  01001 38613 42699 60102 10201 20121 39227 40072 57008 82902;
0135386130999992000092018004+40920+072940FM-12+076599999V0200401N001019999999N9999999N1+01981+00881101621ADDGF107991071001999999041001KA1999M+02521MD1210091+9999REMSYN070AAXX  20181 38613 429// 70401 10198 20088 40162 52009 87040 333 10252;
0175386130999992000092815004+40920+072940FM-12+076599999V0200301N002012200019N9999999N1+01651+00681101611ADDAA199000091GA1001+999999999GF100991001001999999001001KA1999M+02531MD1310121+9999REMSYN064AAXX  28151 38613 329// 00302 10165 20068 40161 53012 333 10253;EQDQ01  00002PRCP99
0212386130999992000092903004+40920+072940FM-12+076599999V0203601N001012200019N0500001N1+02171+00381101341ADDAA124000091GA1001+999999999GF100991001001999999001001IA1019IA2999+00909MD1410001+9999REMSYN080AAXX  29031 38613 32999 03601 10217 20038 40134 54000 555 20102 30009 7000/ 170;EQDQ01  00002PRCP99Q02  00003PRCP99
0131386130999992000100609004+40920+072940FM-12+076599999V0200301N001012200019N0500001N1+01671+00581102211ADDGF104991999021012501001001MD1710121+9999REMSYN060AAXX  06091 38613 42699 40301 10167 20058 40221 57012 81200;EQDQ01+000012SCOTLC
0112386130999992000102009004+40920+072940FM-12+076599999V0202401N001019999999N0200001N1+01521+01131102121ADDGF107991031001999999041021MD1810101+9999REMSYN060AAXX  20091 38613 42998 72401 10152 20113 40212 58010 83042;
0135386130999992000110318004+40920+072940FM-12+076599999V0200201N002012200019N9999999N1+00911+00501102631ADDGF104991001001999999001011KA1999M+01821MD1210141+9999REMSYN070AAXX  03181 38613 429// 40202 10091 2005/ 40263 52014 80001 333 10182;
0140386130999992000120209004+40920+072940FM-12+076599999V0202801N002010120019N0100001N1+00191-00121102821ADDAY171031AY261031GF108991081051012501999999MD1210101+9999MW1631REMSYN066AAXX  02091 38613 41697 82802 10019 21012 40282 52010 76376 885//;
0154386130999992000122618004+40920+072940FM-12+076599999V0200201N007019999999N9999999N1+00411+00181999999ADDGF107991001001999999001021KA1999M+01361MD1810041+9999REMSYN070AAXX  26181 38613 429// 70207 10041 20018 40132 58004 80002 333 10136;EQDQ01+101323APOSLP
0106386130999992000122809004+40920+072940FM-12+076599999V0201601N002019999999N0020001N1+00461+00341102771ADDGF108991999999999999999999MD1710081+9999REMSYN054AAXX  28091 38613 41995 81602 10046 20034 40277 57008;
0135386160999992000010606004+40700+072900FM-12+086899999V0209999C000010360019N0500001N1+00861-00091101771ADDGF106991021051008001031011KA1999N+00091MD1410001+9999REMSYN070AAXX  06061 38616 42599 60000 10086 21009 40177 54000 82531 333 20009;
0143386160999992000011200004+40700+072900FM-12+086899999V0201701N001012200019N9999999N1-00871-01161102881ADDGA1001+999999999GF100991001001999999001001MA1999999092131MD1710121+9999REMSYN060AAXX  12001 38616 429// 01701 11087 21116 39213 40288 57012;
0137386160999992000011400004+40700+072900FM-12+086899999V0209999C000010075019N9999999N1-00671-00951103351ADDGF107991071051008001001001MA1999999092621MD1810331+9999REMSYN070    AAXX  14001 38616 425// 70000 11067 21095 39262 40335 58033 87500;
0126386160999992000011509004+40700+072900FM-12+086899999V0203101N001012200019N0100001N1-00201-00991103311ADDGA1001+999999999GF100991001001999999001001MD1710151+9999REMSYN058    AAXX  15091 38616 42997 03101 1102/ 21099 40331 57015;
0161386160999992000032812004+40700+072900FM-12+086899999V0203001N002010075019N0200001N1+00801+99999102571ADDAY121061AY221061GF107991071031008001001001MA1999999092471MD1310151+9999MW1101REMSYN072AAXX  28121 38616 41598 73002 10080 20148 39247 40257 53015 71022 87300;
0122386160999992000061703004+40690+072890FM-12+086899999V0209999C000012200019N0200001N1+02301+01291101341ADDGF102991021031008001001001MD1310011+9999REMSYN070AAXX  17031 38616 42598 20000 10230 20129 40134 53001 82300 555 20159;
0133386160999992000062000004+40690+072890FM-12+086899999V0209999C000010075019N0200001N1+02321+01341100481ADDGF107991071031008001001001MA1999999091081MD1310131+9999REMSYN066AAXX  20001 38616 42598 70000 10232 20134 39108 40048 53013 87300;
0165386160999992000070715004+40690+072890FM-12+086899999V0209999C000012200019N0200001N1+02531+01651100211ADDAA199000091GF102991021031008001001001KA1999M+03581MD1610041+9999REMSYN070AAXX  07151 38616 32598 20000 10253 20165 40021 56004 82300 333 10358;EQDQ01  00002PRCP99
0135386160999992000082506004+40690+072890FM-12+086899999V0202401N001012200019N0200001N1+02811+01431100301ADDGF106991041031008001001011KA1999N+01591MD1810021+9999REMSYN070AAXX  25061 38616 42598 62401 10281 20143 40030 58002 84301 333 20159;
0135386160999992000083006004+40690+072890FM-12+086899999V0203301N001012200019N0200001N1+02911+01291099981ADDGF102991021031008001001001KA1999N+01841MD1410001+9999REMSYN070AAXX  30061 38616 42598 23301 10291 20129 49998 54000 82300 333 20184;
0175386160999992000091515004+40690+072890FM-12+086899999V0201501N001012200019N9999999N1+01942+01021101351ADDAA199000091GA1001+999999999GF100991001001999999001001KA1999M+03121MD1310031+9999REMSYN064AAXX  15151 38616 329// 01501 10194 20102 40135 53003 333 10312;EQDQ01  00002PRCP99
0163386160999992000092118004+40690+072890FM-12+086899999V0209999C000010075019N9999999N1+01841+01271101461ADDAY181061AY221061GF108991081091008001999999KA1999M+02571MD1110061+9999MW1801REMSYN076AAXX  21181 38616 415// 80000 10184 20127 40146 51006 78082 889// 333 10257;
0112386160999992000100621004+40690+072890FM-12+086899999V0209999C000010075019N9999999N1+00931+00651102481ADDGF107991071051008001001001MD1410001+9999REMSYN060AAXX  06211 38616 425// 70000 10093 20065 40248 54000 87500;
0133386160999992000101300004+40690+072890FM-12+086899999V0201801N002019999999N9999999N1+01221+00131101751ADDGF106991001001999999001011MA1999999091861MD1810051+9999REMSYN066AAXX  13001 38616 429// 61802 10122 20013 39186 40175 58005 80001;
0214386160999992000110203004+40690+072890FM-12+086899999V0201501N001012200019N0040001N1+00531+00361102941ADDAA124999999AY101031AY201031GA1001+999999999GF100991001001999999001001IA1019IA2999+00509KA1120N+00201MD1410001+9999MW1101REMSYN082AAXX  02031 38616 31996 01501 10053 20036 40294 54000 71000 333 20020 30005 7000/;
0163386160999992000111118004+40690+072890FM-12+086899999V0209999C000010075019N9999999N1+00631+00421102541ADDAY121061AY221061GF107991071031008001001001KA1999M+00991MD1810011+9999MW1101REMSYN076AAXX  11181 38616 415// 70000 10063 20042 40254 58001 71022 87300 333 10099;
0152386160999992000111618004+40690+072890FM-12+086899999V0202101N002019999999N9999999N1+00281+00101103361ADDAA100002091GF108991081001999999021999KA1999M+00591MD1310101+9999REMSYN076AAXX  16181 38616 129// 82102 10028 20010 40336 53010 60020 8802/ 333 10059;
0122386160999992000120621004+40690+072890FM-12+086899999V0201201N003012200019N9999999N1-00081-00291102701ADDGA1001+999999999GF100991001001999999001001MD1810141+9999REMSYN054AAXX  06211 38616 429// 01203 11008 21029 40270 58014;
0133386160999992000121812004+40690+072890FM-12+086899999V0209999C000012200019N0500001N1+00501+00091103421ADDGF101991011051008001001001MA1999999093131MD1310011+9999REMSYN066AAXX  18121 38616 42599 10000 10050 20009 39313 40342 53001 81500;
0112386160999992000122521004+40690+072890FM-12+086899999V0201801N001012200019N9999999N1+00181-00441102341ADDGF102991001001999999001011MD1810151+9999REMSYN060AAXX  25211 38616 429// 21801 10018 21044 40234 58015 80001;
0193386160999992000122821004+40690+072890FM-12+086899999V0209999C000010075019N9999999N1+00321+00141102831ADDAA199000091AY121031AY221031GF107991071051008001001001KA1999M+00391MD1310021+9999MW1101REMSYN076AAXX  28211 38616 315// 70000 10032 20014 40283 53002 71022 87500 333 10039;EQDQ01  00002PRCP99
0153386180999992000010700004+40370+071750FM-12+057799999V0203501N001019999999N9999999N1+00581+00101101591ADDGF106991001001999999001091MA1999999094721MD1710081+9999REMSYN086AAXX  07001 38618 429// 63501 10058 20010 39472 40159 57008 80009 333 01002 555 11002;
0162386180999992000010703004+40370+071750FM-12+057799999V0203601N001019999999N0100001N1+00241+00031101701ADDAA106000091GF106991001001999999001091MD1210021+9999REMSYN080AAXX  07031 38618 32997 63601 10024 20003 40170 52002 80009 333 01002 555 11002;EQDQ01  00002PRCP06
0151386180999992000012515004+40370+071750FM-12+057799999V0203601N001019999999N9999999N1+00381+00261103181ADDGF108991081001999999071999KA1120M+00551MD1210061+9999REMSYN086AAXX  25151 38618 /29// 83601 10038 20026 40318 52006 8807/ 333 10055 555 53005 69902;
0185386180999992000012815004+40370+071750FM-12+057799999V0209999C000012200019N9999999N1+00181-00011102681ADDAA199000091GA1001+999999999GF100991001001999999001001KA1120M+00701MD1410001+9999REMSYN074AAXX  28151 38618 329// 00000 10018 21001 40268 54000 333 10070 555 53003;EQDQ01  00002PRCP99
0165386180999992000020918004+40370+071750FM-12+057799999V0200501N001019999999N9999999N1+00071-00501102851ADDAA199000091GF106991041001999999041021KA1999M+00691MD1210251+9999REMSYN070AAXX  09181 38618 329// 60501 10007 21050 40285 52025 84042 333 10069;EQDQ01  00002PRCP99
0112386180999992000020921004+40370+071750FM-12+057799999V0200501N001019999999N9999999N1-00141-00471102881ADDGF106991041001999999031021MD1710021+9999REMSYN060AAXX  09211 38618 429// 60501 11014 21047 40288 57002 84032;
0122386180999992000031921004+40370+071750FM-12+057799999V0202301N001012200019N9999999N1+00281-00111102141ADDGA1001+999999999GF100991001001999999001001MD1410001+9999REMSYN054AAXX  19211 38618 429// 02301 10028 21011 40214 54000;
0185386180999992000032015004+40370+071750FM-12+057799999V0202001N001012200019N9999999N1+00921-00171102181ADDAA199000091GA1001+999999999GF100991001001999999001001KA1120M+01491MD1210191+9999REMSYN074AAXX  20151 38618 329// 02001 10092 21017 40218 52019 333 10149 555 53006;EQDQ01  00002PRCP99
0112386180999992000032609004+40370+071750FM-12+057799999V0209999C000019999999N0100001N1+02211+00771101051ADDGF108991021001999999041011MD1610131+9999REMSYN060AAXX  26091 38618 42997 80000 10221 20077 40105 56013 82041;
0165386180999992000033006004+40370+071750FM-12+057799999V0203201N001019999999N0100001N1+01201+00651102051ADDAA199000091GF108991081001999999051999KA1999N+00901MD1210071+9999REMSYN070AAXX  30061 38618 32997 83201 10120 20065 40205 52007 8805/ 333 20090;EQDQ01  00002PRCP99
0212386180999992000050803004+40370+071750FM-12+057799999V0203601N001019999999N0100001N1+02321+01521100821ADDAA199000091GF107991021001999999041021GJ106789IA1019IA2999+01709MD1410001+9999REMSYN104AAXX  08031 38618 32997 73601 10232 20152 40082 54000 82042 333 55113 555 20183 30017 50217 53004 7000/;EQDQ01  00002PRCP99
0112386180999992000051109004+40370+071750FM-12+057799999V0200201N001010360019N0100001N1+02521+01361100961ADDGF108991021051012501031081MD1610141+9999REMSYN060AAXX  11091 38618 42697 80201 10252 20136 40096 56014 82538;
0143386180999992000060212004+40370+071750FM-12+057799999V0203401N001010360019N0100001N1+02721+01051100511ADDGF108991021051012501071091MA1999999094201MD1710121+9999REMSYN076AAXX  02121 38618 42697 83401 10272 20105 39420 40051 57012 82579 555 10040;
0180386180999992000062018004+40360+071750FM-12+057799999V0202201N001010360019N9999999N1+02241+01461100561ADDAA100001091AY191061AY221061GF108991031051012501051999KA1999M+03241MD1210101+9999MW1021REMSYN082AAXX  20181 38618 116// 82201 10224 20146 40056 52010 69990 70292 8355/ 333 10324;
0180386180999992000070306004+40360+071750FM-12+057799999V0200401N002012200019N0500001N1+03051+01401100201ADDAA100000591AY191061AY281061GF103991021011012501001011KA1999N+02011MD1710031+9999MW1021REMSYN082AAXX  03061 38618 11699 30402 10305 20140 40020 57003 69960 70298 82101 333 20201;
0163386180999992000071300004+40360+071750FM-12+057799999V0201401N001012200019N0100001N1+02151+01411100101ADDGA1001+999999999GF100991001001999999001001MA1999999093701MD1310021+9999REMSYN080AAXX  13001 38618 42997 01401 10215 20141 39370 40010 53002 333 00019 555 10019;
0165386180999992000071306004+40360+071750FM-12+057799999V0202801N004012200019N0100001N1+03151+00921100021ADDAA199000091GF104991001001999999001021KA1999N+02101MD1710021+9999REMSYN070AAXX  13061 38618 32997 42804 10315 20092 40002 57002 80002 333 20210;EQDQ01  00002PRCP99
0175386180999992000073015004+40360+071750FM-12+057799999V0209999C000012200019N0100001N1+02961+02081100251ADDAA199000091GF102991021001999999061001KA1120M+03831MD1210031+9999REMSYN080AAXX  30151 38618 32997 20000 10296 20208 40025 52003 82060 333 10383 555 53005;EQDQ01  00002PRCP99
0175386180999992000082215004+40360+071750FM-12+057799999V0209999C000012200019N9999999N1+02371+01521100591ADDAA199000091GF104991001001999999001011KA1120M+03351MD1210031+9999REMSYN080AAXX  22151 38618 329// 40000 10237 20152 40059 52003 80001 333 10335 555 53005;EQDQ01  00002PRCP99
0175386180999992000082618004+40360+071750FM-12+057799999V0201701N002012200019N9999999N1+02291+01421100661ADDAA199000091GA1001+999999999GF100991001001999999001001KA1999M+03701MD1210051+9999REMSYN064AAXX  26181 38618 329// 01702 10229 20142 40066 52005 333 10370;EQDQ01  00002PRCP99
0190386180999992000102412004+40360+071750FM-12+057799999V0202501N003010075019N0100001N1+01241+00861101891ADDAY161061AY221061GF108991999051008001021999MA1999999095161MD1210371+9999MW1611REMSYN082AAXX  24121 38618 41597 82503 10124 20086 39516 40189 52037 76162 8852/ 555 11012;EQDQ01+000082SCOTLC
0112386180999992000102609004+40360+071750FM-12+057799999V0200601N001012200019N0100001N1+01661+00951102591ADDGF101991001001999999001011MD1710081+9999REMSYN060AAXX  26091 38618 42997 10601 10166 20095 40259 57008 80001;
0175386180999992000102815004+40360+071750FM-12+057799999V0209999C000019999999N9999999N1+01281+01051102071ADDAA199000091GF107991001001999999001011KA1120M+02171MD1210031+9999REMSYN080AAXX  28151 38618 329// 70000 10128 20105 40207 52003 80001 333 10217 555 53003;EQDQ01  00002PRCP99
0163386180999992000110300004+40360+071750FM-12+057799999V0209999C000012200019N9999999N1+00661+00451102531ADDGA1001+999999999GF100991001001999999001001MA1999999095621MD1210011+9999REMSYN080AAXX  03001 38618 429// 00000 10066 20045 39562 40253 52001 333 00003 555 10003;
0180386180999992000110606004+40360+071750FM-12+057799999V0203101N001010900019N0100001N1+01321+01111101811ADDAA100000791AY141061AY221061GF108991041051012501001091KA1999N+00861MD1710071+9999MW1021REMSYN082AAXX  06061 38618 11697 83101 10132 20111 40181 57007 69900 70242 84509 333 20086;
0112386180999992000112821004+40360+071750FM-12+057799999V0201701N001019999999N9999999N1+00371+00001101841ADDGF108991081001999999071999MD1410001+9999REMSYN060AAXX  28211 38618 429// 81701 10037 20000 40184 54000 8807/;
0181386180999992000120812004+40360+071750FM-12+057799999V0209999C000010003019N0005001N1+00281+00071102851ADDAY141061AY221061GA1091+999999999GF109991091999999999999999MA1999999095821MD1710021+9999MW1471REMSYN076AAXX  08121 38618 41/93 90000 10028 20007 39582 40285 57002 74742 555 11004;
0179386180999992000121715004+40360+071750FM-12+057799999V0200801N001010075019N9999999N1+00461+00291102921ADDAY161031AY221031GF108991081001008001021999KA1120M+00551MD1110191+9999MW1611REMSYN092AAXX  17151 38618 /15// 80801 10046 20029 40292 51019 76162 8802/ 333 10055 555 53008 60032;
0165386180999992000122506004+40360+071750FM-12+057799999V0202401N001019999999N0500001N1+00581+00101102021ADDAA199000091GF107991051001999999041051KA1999N-00021MD1410001+9999REMSYN070AAXX  25061 38618 32999 72401 10058 20010 40202 54000 85045 333 21002;EQDQ01  00002PRCP99
0183386180999992000122700004+40360+071750FM-12+057799999V0209999C000019999999N9999999N1+00251+00121102121ADDAA199000091GF108991051001999999041011MA1999999095131MD1710111+9999REMSYN086AAXX  27001 38618 329// 80000 10025 20012 39513 40212 57011 85041 333 01101 555 11101;EQDQ01  00002PRCP99
0212386180999992000123003004+40360+071750FM-12+057799999V0209999C000010120019N0100001N1+00481+00311103151ADDAA199000091GF108991061051012501071999GJ100009IA1099IA2999+00409MD1310161+9999REMSYN104AAXX  30031 38618 32697 80000 10048 20031 40315 53016 8657/ 333 55000 555 20044 31004 50049 53002 7000/;EQDQ01  00002PRCP99
0112386470999992000011009004+39250+055520FM-12+003599999V0201001N002012200019N0200001N1+00051-00461102751ADDGF102991021051008001001001MD1710141+9999REMSYN060AAXX  10091 38647 42598 21002 10005 21046 40275 57014 82500;
0153386470999992000021600004+39250+055520FM-12+003599999V0201101N004012200019N9999999N1+00121-00111102351ADDGA1001+999999999GF100991001001999999001001MA1999999101901MD1710091+9999REMSYN070AAXX  16001 38647 429// 01104 10012 21011 30190 40235 57009 555 11101;
0112386470999992000030309004+39250+055520FM-12+003599999V0201201N003010120019N0200001N1+00471-00941102341ADDGF106991061051012501001001MD1210021+9999REMSYN060AAXX  03091 38647 42698 61203 10047 21094 40234 52002 86500;
0165386470999992000030806004+39250+055520FM-12+003599999V0209999C000010090019N0100001N1+00811+00401101941ADDAA199000091GF106991061081004501001001KA1999N+00591MD1210091+9999REMSYN070AAXX  08061 38647 32497 60000 10081 20040 40194 52009 86800 333 20059;EQDQ01  00002PRCP99
0165386470999992000031815004+39250+055520FM-12+003599999V0201101N003019999999N9999999N1+01561+00151101211ADDAA199000091GF105991001001999999001061KA1999M+01721MD1710091+9999REMSYN070AAXX  18151 38647 329// 51103 10156 20015 40121 57009 80006 333 10172;EQDQ01  00002PRCP99
0165386470999992000032318004+39250+055520FM-12+003599999V0202801N002010075019N9999999N1+01141+00651101531ADDAA199000091GF108991081051008001999999KA1999M+01581MD1210101+9999REMSYN070AAXX  23181 38647 325// 82802 10114 20065 40153 52010 885// 333 10158;EQDQ01  00002PRCP99
0112386470999992000032521004+39250+055520FM-12+003599999V0202801N004012200019N9999999N1+00851+00301101901ADDGF102991021071012501001001MD1210171+9999REMSYN060AAXX  25211 38647 426// 22804 10085 20030 40190 52017 82700;
0143386470999992000042000004+39250+055520FM-12+003599999V0209999C000012200019N0270001N1+01881+00891100911ADDGF102991001001999999001011MA1999999100501MD1710041+9999REMSYN076AAXX  20001 38647 42977 20000 10188 20089 30050 40091 57004 80001 555 10015;
0165386470999992000042606004+39250+055520FM-12+003599999V0202701N001012200019N0100001N1+02391+00891101491ADDAA199000091GF101991011011012501001001KA1999N+01641MD1210051+9999REMSYN070AAXX  26061 38647 32697 12701 10239 20089 40149 52005 81100 333 20164;EQDQ01  00002PRCP99
0112386470999992000042709004+39250+055520FM-12+003599999V0202701N003012200019N0200001N1+02741+00271101671ADDGF102991021021012501001001MD1710051+9999REMSYN060AAXX  27091 38647 42698 22703 10274 20027 40167 57005 82200;
0165386470999992000053115004+39250+055520FM-12+003599999V0201001N001010120019N0200001N1+03491+00621100471ADDAA199000091GF106991061041012501001001KA1999M+03711MD1310031+9999REMSYN070AAXX  31151 38647 32698 61001 10349 20062 40047 53003 86400 333 10371;EQDQ01  00002PRCP99
0175386470999992000072606004+39250+055510FM-12+003599999V0200701N002012200019N0200001N1+03271+00111101431ADDAA199000091GA1001+999999999GF100991001001999999001001KA1999N+02241MD1210111+9999REMSYN064AAXX  26061 38647 32998 00702 10327 20011 40143 52011 333 20224;EQDQ01  00002PRCP99
0153386470999992000090512004+39250+055510FM-12+003599999V0209999C000012200019N0200001N1+03481+01051100951ADDGA1001+999999999GF100991001001999999001001MA1999999100561MD1710131+9999REMSYN070AAXX  05121 38647 42998 00000 10348 20105 30056 40095 57013 555 10049;
0214386470999992000090903004+39250+055510FM-12+003599999V0201001N001019999999N0100001N1+99999+99999101401ADDAA199000091GF105991051001999999031001IA1019IA2999+01809MD1210241+9999REMSYN082AAXX  09031 38647 32997 51001 10032 20046 40140 52024 85030 555 20215 30018 7000/;EQDQ01+000323ATOT  Q02  00002PRCP99Q03 +00323ATOT  
0192386470999992000091703004+39250+055510FM-12+003599999V0209999C000012200019N0100001N1+02341+01251101431ADDAA199000091GA1001+999999999GF100991001001999999001001IA1019IA2999+02109MD1210071+9999REMSYN076AAXX  17031 38647 32997 00000 10234 20125 40143 52007 555 20232 30021 7000/;EQDQ01  00002PRCP99
0175386470999992000092518004+39250+055510FM-12+003599999V0201001N002012200019N9999999N1+01711+00381102241ADDAA199000091GA1001+999999999GF100991001001999999001001KA1999M+02141MD1210121+9999REMSYN064AAXX  25181 38647 329// 01002 10171 20038 40224 52012 333 10214;EQDQ01  00002PRCP99
0133386470999992000092906004+39250+055510FM-12+003599999V0201001N003010075019N0100001N1+01241+00931102431ADDAA115007991GF106991051021008001031001MD1210101+9999REMSYN070AAXX  29061 38647 22597 61003 10124 20093 40243 52010 85230 333 60080;
0143386470999992000101300004+39250+055510FM-12+003599999V0200101N004012200019N9999999N1+01471+00781101701ADDGF103991031051012501001001MA1999999101281MD1210031+9999REMSYN076AAXX  13001 38647 426// 30104 10147 20078 30128 40170 52003 83500 555 10012;
0112386470999992000102609004+39250+055510FM-12+003599999V0200901N002012200019N0200001N1+02061+00131101751ADDGF101991001001999999001011MD1710151+9999REMSYN060AAXX  26091 38647 42998 10902 10206 20013 40175 57015 80001;
0175386470999992000112718004+39250+055510FM-12+003599999V0209999C000012200019N9999999N1+00621+00201102131ADDAA199000091GA1001+999999999GF100991001001999999001001KA1999M+01401MD1810011+9999REMSYN064AAXX  27181 38647 329// 00000 10062 20020 40213 58001 333 10140;EQDQ01  00002PRCP99
0143386470999992000121603004+39250+055510FM-12+003599999V0200901N002019999999N9999999N1+00481+00411999999ADDAA112000891GF108991081061999999999999IA1099IA2999+00509REMSYN076AAXX  16031 38647 12/// 80902 10048 20041 69972 886// 555 20038 31005 7997/;
0112386560999992000012709004+39320+058600FM-12+008999999V0203601N001012200019N0200001N1+01531+00381101301ADDGF102991001001999999001011MD1810101+9999REMSYN060AAXX  27091 38656 42998 23601 10153 20038 40130 58010 80001;
0143386560999992000012912004+39320+058600FM-12+008999999V0209999C000010120019N0200001N1+00161-00421102531ADDGF108991081051012501999999MA1999999101401MD1810071+9999REMSYN076AAXX  29121 38656 42698 80000 10016 21042 30140 40253 58007 885// 555 11003;
0165386560999992000020615004+39320+058600FM-12+008999999V0200401N002019999999N0200001N1+00561-00431101501ADDAA199000091GF106991061001999999051001KA1999M+00751MD1710061+9999REMSYN070AAXX  06151 38656 32998 60402 10056 21043 40150 57006 86050 333 10075;EQDQ01  00002PRCP99
0175386560999992000022206004+39320+058600FM-12+008999999V0200901N002012200019N0200001N1+00761-00071102161ADDAA199000091GA1001+999999999GF100991001001999999001001KA1999N-00111MD1310121+9999REMSYN064AAXX  22061 38656 32998 00902 10076 21007 40216 53012 333 21011;EQDQ01  00002PRCP99
0165386560999992000022715004+39320+058600FM-12+008999999V0209999C000019999999N0200001N1+00741+00001101981ADDAA199000091GF107991071001012501051001KA1999M+00861MD1710101+9999REMSYN070AAXX  27151 38656 32698 70900 10074 21000 40198 57010 87050 333 10086;EQDQ01  00002PRCP99
0143386560999992000022812004+39320+058600FM-12+008999999V0202901N002012200019N0200001N1+01141+00211102511ADDGF102991001001999999001021MA1999999101421MD1210191+9999REMSYN076AAXX  28121 38656 42998 22902 10114 20021 30142 40251 52019 80002 555 10016;
0182386560999992000030603004+39320+058600FM-12+008999999V0209999C000012200019N0200001N1-00031-00671102271ADDAA199000091GF101991001001999999001021IA1019IA2999-00309MD1310051+9999REMSYN082AAXX  06031 38656 32998 10000 11003 21067 40227 53005 80002 555 21005 30103 7000/;EQDQ01  00002PRCP99
0112386560999992000031309004+39320+058600FM-12+008999999V0200901N001019999999N0200001N1+00801-00221101771ADDGF107991071001999999081001MD1710211+9999REMSYN060AAXX  13091 38656 42998 70901 10080 21022 40177 57021 87080;
0165386560999992000032606004+39320+058600FM-12+008999999V0209999C000010120019N0200001N1+01021-00021102661ADDAA199000091GF108991081021012501999999KA1999N+00581MD1210281+9999REMSYN070AAXX  26061 38656 32698 80000 10102 21002 40266 52028 882// 333 20058;EQDQ01  00002PRCP99
0122386560999992000033021004+39320+058600FM-12+008999999V0209999C000012200019N0100001N1+01301+00111101671ADDGA1001+999999999GF100991001001999999001001MD1210051+9999REMSYN054AAXX  30211 38656 42997 00000 10130 20011 40167 52005;
0153386560999992000040700004+39320+058600FM-12+008999999V0200901N001012200019N0200001N1+01341-00061101091ADDGA1001+999999999GF100991001001999999001001MA1999999100021MD1810051+9999REMSYN070AAXX  07001 38656 42998 00901 10134 21006 30002 40109 58005 555 10010;
0175386560999992000041918004+39320+058600FM-12+008999999V0200901N002012200019N0200001N1+02681+00321101021ADDAA199000091GA1001+999999999GF100991001001999999001001KA1999M+03391MD1810031+9999REMSYN064AAXX  19181 38656 32998 00902 10268 20032 40102 58003 333 10339;EQDQ01  00002PRCP99
0175386560999992000042606004+39320+058600FM-12+008999999V0202601N001012200019N0200001N1+02341+00671101451ADDAA199000091GA1001+999999999GF100991001001999999001001KA1999N+01401MD1210061+9999REMSYN064AAXX  26061 38656 32998 02601 10234 20067 40145 52006 333 20140;EQDQ01  00002PRCP99
0175386560999992000050518004+39320+058600FM-12+008999999V0200501N005012200019N0200001N1+02021-00301102231ADDAA199000091GA1001+999999999GF100991001001999999001001KA1999M+02431MD1710021+9999REMSYN064AAXX  05181 38656 32998 00505 10202 21030 40223 57002 333 10243;EQDQ01  00002PRCP99
0182386560999992000050703004+39320+058600FM-12+008999999V0202701N002019999999N0200001N1+02471+00581101051ADDAA199000091GF108991081001999999071999IA1019IA2999+01709MD1210101+9999REMSYN082AAXX  07031 38656 32998 82702 10247 20058 40105 52010 8807/ 555 20216 30017 7000/;EQDQ01  00002PRCP99
0122386560999992000060421004+39320+058600FM-12+008999999V0200901N001012200019N0200001N1+02341+00061101011ADDGA1001+999999999GF100991001001999999001001MD1810091+9999REMSYN054AAXX  04211 38656 42998 00901 10234 20006 40101 58009;
0181386560999992000061106004+39320+058600FM-12+008999999V0202801N004012200019N0200001N1+02961+00401101241ADDAA199000091GF102991999001999999081001KA1999N+02401MD1210081+9999REMSYN070AAXX  11061 38656 32998 22804 10296 20040 40124 52008 83080 333 20240;EQDQ01+000032SCOTLCQ02  00002PRCP99
0153386560999992000070912004+39320+058590FM-12+008999999V0202701N003012200019N0200001N1+03921+01361100271ADDGA1001+999999999GF100991001001999999001001MA1999999099301MD1710051+9999REMSYN070AAXX  09121 38656 42998 02703 10392 20136 39930 40027 57005 555 10056;
0122386560999992000071921004+39320+058590FM-12+008999999V0209999C000012200019N0200001N1+02481+00111100861ADDGA1001+999999999GF100991001001999999001001MD1810011+9999REMSYN054AAXX  19211 38656 42998 00000 10248 20011 40086 58001;
0112386560999992000090209004+39320+058590FM-12+008999999V0203201N002012200019N0200001N1+03321+00021100641ADDGF103991031001999999051001MD1710021+9999REMSYN060AAXX  02091 38656 42998 33202 10332 20002 40064 57002 83050;
0175386560999992000090718004+39320+058590FM-12+008999999V0200201N002012200019N0200001N1+02981+00591100741ADDAA199000091GA1001+999999999GF100991001001999999001001KA1999M+03691MD1310081+9999REMSYN064AAXX  07181 38656 32998 00202 10298 20059 40074 53008 333 10369;EQDQ01  00002PRCP99
0143386560999992000100112004+39320+058590FM-12+008999999V0203601N003010120019N0200001N1+01531+00841101951ADDGF108991081051012501999999MA1999999100881MD1510001+9999REMSYN076AAXX  01121 38656 42698 83603 10153 20084 30088 40195 55000 885// 555 10019;
0122386560999992000100221004+39320+058590FM-12+008999999V0203201N002012200019N0200001N1+01221+01201102211ADDGA1001+999999999GF100991001001999999001001MD1810021+9999REMSYN054AAXX  02211 38656 42998 03202 10122 20120 40221 58002;
0165386560999992000100518004+39320+058590FM-12+008999999V0209999C000019999999N0200001N1+01601+00191102481ADDAA199000091GF105991051001999999051001KA1999M+02061MD1410001+9999REMSYN070AAXX  05181 38656 32998 50000 10160 20019 40248 54000 85050 333 10206;EQDQ01  00002PRCP99
0175386560999992000100906004+39320+058590FM-12+008999999V0200901N002012200019N0200001N1+01341-00381102441ADDAA199000091GA1001+999999999GF100991001001999999001001KA1999N+00461MD1810021+9999REMSYN064AAXX  09061 38656 32998 00902 10134 21038 40244 58002 333 20046;EQDQ01  00002PRCP99
0165386560999992000101506004+39320+058590FM-12+008999999V0200201N001019999999N0200001N1+00941-00571102881ADDAA199000091GF108991081001999999071999KA1999N+00821MD1210171+9999REMSYN070AAXX  15061 38656 32998 80201 10094 21057 40288 52017 8807/ 333 20082;EQDQ01  00002PRCP99
0112386560999992000102121004+39320+058590FM-12+008999999V0200501N002012200019N0200001N1+01411+00231102541ADDGF102991021001999999081001MD1810011+9999REMSYN060AAXX  21211 38656 42998 20502 10141 20023 40254 58001 82080;
0175386560999992000110718004+39320+058590FM-12+008999999V0209999C000012200019N0200001N1+00321-00911102621ADDAA199000091GA1001+999999999GF100991001001999999001001KA1999M+01031MD1210171+9999REMSYN064AAXX  07181 38656 32998 00000 10032 21091 40262 52017 333 10103;EQDQ01  00002PRCP99
0153386560999992000111800004+39320+058590FM-12+008999999V0201101N003012200019N0200001N1+00061-00441103331ADDGA1001+999999999GF100991001001999999001001MA1999999102191MD1710091+9999REMSYN070AAXX  18001 38656 42998 01103 10006 21044 30219 40333 57009 555 10102;
0165386560999992000121006004+39320+058590FM-12+008999999V0200701N003010120019N0200001N1-00131-00641103741ADDAA199000091GF107991071051012501001001KA1999N-00251MD1210061+9999REMSYN070AAXX  10061 38656 32698 70703 11013 21064 40374 52006 87500 333 21025;EQDQ01  00002PRCP99
0112386560999992000121421004+39320+058590FM-12+008999999V0209999C000019999999N0200001N1+00721+00501102001ADDGF108991081051999999999999MD1810071+9999REMSYN060AAXX  14211 38656 42998 80000 10072 20050 40200 58007 885//;
0191386830999992000010200004+39720+064620FM-12+023099999V0209999C000012200019N0010001N1+00141+00111102351ADDAY101061AY201061GA1001+999999999GF100991001001999999001001MA1999999099511MD1410001+9999MW1101REMSYN086AAXX  02001 38683 41994 00000 10014 20011 39951 40235 54000 71000 333 00103 555 10101;
0218386830999992000010503004+39720+064620FM-12+023099999V0202301N003010009019N0020001N1+00091+00011101571ADDAA106000091AY111031AY211031GA1081+000909079GF108991999999001501999999MD1310151+9999MW1101REMSYN098AAXX  05031 38683 31295 82303 10009 20001 40157 53015 71011 333 88703 555 20004 50051 53006 7000/;EQDQ01  00002PRCP06
0163386830999992000010912004+39720+064620FM-12+023099999V0200201N002010102019N0100001N1+00061-00631103231ADDGA1081+010209069GF108991999999012501999999MA1999999100361MD1710061+9999REMSYN080AAXX  09121 38683 42697 80202 10006 21063 30036 40323 57006 333 88634 555 11003;
0191386830999992000011100004+39720+064620FM-12+023099999V0203401N003012200019N0040001N1-00411-00501102721ADDAY101061AY201061GA1001+999999999GF100991001001999999001001MA1999999099811MD1210051+9999MW1101REMSYN086AAXX  11001 38683 41996 03403 11041 21050 39981 40272 52005 71000 333 04110 555 14106;
0218386830999992000012303004+39720+064620FM-12+023099999V0203601N003010012019N0040001N1+00241+00141102021ADDAA199000091AY121031AY221031GA1081+001209079GF108991999999001501999999MD1310041+9999MW1101REMSYN098AAXX  23031 38683 31296 83603 10024 20014 40202 53004 71022 333 88704 555 20023 50090 53004 7990/;EQDQ01  00002PRCP99
0143386830999992000012412004+39720+064620FM-12+023099999V0203401N003012200019N0100001N1+00571+00301102481ADDGF104991001001999999001011MA1999999099701MD1310041+9999REMSYN076AAXX  24121 38683 42997 43403 10057 20030 39970 40248 53004 80001 555 10008;
0153386830999992000012900004+39720+064620FM-12+023099999V0209999C000010360019N0100001N1+00751+00251101771ADDGF108991031031017501031999MA1999999099011MD1210051+9999REMSYN086AAXX  29001 38683 42797 80000 10075 20025 39901 40177 52005 8333/ 333 00004 555 10006;
0163386830999992000021206004+39720+064620FM-12+023099999V0201101N002019999999N0040001N1+00241-00121102991ADDAY111061AY211061GF106991001001999999001011KA1999N-00031MD1710021+9999MW1101REMSYN076AAXX  12061 38683 41996 61102 10024 21012 40299 57002 71011 80001 333 21003;
0201386830999992000021615004+39720+064620FM-12+023099999V0201101N003012200019N0100001N1+00251-00341999999ADDAA199000091GA1001+999999999GF100991001001999999001001KA1120M+00451MD1710051+9999REMSYN074AAXX  16151 38683 32997 01103 10025 21034 40189 57005 333 10045 555 53005;EQDQ01+101893APOSLPQ02  00002PRCP99
0145386830999992000031918004+39720+064620FM-12+023099999V0200201N007012200019N0100001N1+00631-00181101881ADDGA1001+999999999GF100991001001999999001001KA1999M+01821MD1810051+9999REMSYN064AAXX  19181 38683 42997 00207 10063 21018 40188 58005 333 10182;
0122386830999992000033021004+39720+064620FM-12+023099999V0201401N003012200019N0100001N1+01311+00711101881ADDGA1001+999999999GF100991001001999999001001MD1210021+9999REMSYN054AAXX  30211 38683 42997 01403 10131 20071 40188 52002;
0185386830999992000040415004+39720+064620FM-12+023099999V0200201N002012200019N0100001N1+01601+00191102321ADDAA199000091GA1001+999999999GF100991001001999999001001KA1120M+02051MD1710041+9999REMSYN074AAXX  04151 38683 32997 00202 10160 20019 40232 57004 333 10205 555 53007;EQDQ01  00002PRCP99
0135386830999992000041018004+39720+064620FM-12+023099999V0201101N004019999999N0100001N1+02541+00111100551ADDGF108991001001999999001011KA1999M+03631MD1310041+9999REMSYN070AAXX  10181 38683 42997 81104 10254 20011 40055 53004 80001 333 10363;
0135386830999992000041106004+39720+064620FM-12+023099999V0201801N004019999999N0100001N1+02911+00231100681ADDGF108991001001999999001011KA1999N+01491MD1210101+9999REMSYN070AAXX  11061 38683 42997 81804 10291 20023 40068 52010 80001 333 20149;
0135386830999992000041706004+39720+064620FM-12+023099999V0203401N006019999999N0100001N1+02221+01091101211ADDGF108991031001999999031011KA1999N+01391MD1210051+9999REMSYN070AAXX  17061 38683 42997 83406 10222 20109 40121 52005 83031 333 20139;
0194386830999992000042903004+39720+064620FM-12+023099999V0201801N003012200019N0100001N1+01761+00881101311ADDAA199000091GF101991011011012501001001IA1019IA2999+01109MD1310011+9999REMSYN094AAXX  29031 38683 32697 11803 10176 20088 40131 53001 81100 555 20137 30011 50220 53003 7000/;EQDQ01  00002PRCP99
0112386830999992000050821004+39720+064620FM-12+023099999V0203601N003012200019N0100001N1+02431+00021100871ADDGF103991001001999999001011MD1710031+9999REMSYN060AAXX  08211 38683 42997 33603 10243 20002 40087 57003 80001;
0173386830999992000051618004+39720+064620FM-12+023099999V0202901N005012200019N0040001N1+02481+00381100691ADDAY101061AY201061GA1001+999999999GF100991001001999999001001KA1999M+03551MD1310121+9999MW1051REMSYN070AAXX  16181 38683 41996 02905 10248 20038 40069 53012 70500 333 10355;
0170386830999992000060203004+39720+064620FM-12+023099999V0203401N004019999999N0100001N1+01951+00551101161ADDAA199000091GF108991021001999999031011MD1310041+9999REMSYN088AAXX  02031 38683 32997 83404 10195 20055 40116 53004 82031 555 20140 50244 53005 7000/;EQDQ01  00002PRCP99
0145386830999992000060218004+39720+064620FM-12+023099999V0203401N005012200019N0100001N1+02301+00401101181ADDGA1001+999999999GF100991001001999999001001KA1999M+02951MD1210051+9999REMSYN064AAXX  02181 38683 42997 03405 10230 20040 40118 52005 333 10295;
0145386830999992000060318004+39720+064620FM-12+023099999V0203601N004012200019N0100001N1+01871-00071101731ADDGA1001+999999999GF100991001001999999001001KA1999M+02871MD1310031+9999REMSYN064AAXX  03181 38683 42997 03604 10187 21007 40173 53003 333 10287;
0122386830999992000061009004+39720+064620FM-12+023099999V0203401N005012200019N0100001N1+03461+00131100671ADDGA1001+999999999GF100991001001999999001001MD1810051+9999REMSYN054AAXX  10091 38683 42997 03405 10346 20013 40067 58005;
0153386830999992000062912004+39710+064610FM-12+023099999V0203401N004012200019N0100001N1+03711+00621100801ADDGA1001+999999999GF100991001001999999001001MA1999999098331MD1710131+9999REMSYN070AAXX  29121 38683 42997 03404 10371 20062 39833 40080 57013 555 10056;
0150386830999992000071503004+39710+064610FM-12+023099999V0203201N003012200019N0100001N1+02631+01271100451ADDGA1001+999999999GF100991001001999999001001MD1310091+9999REMSYN082AAXX  15031 38683 42997 03203 10263 20127 40045 53009 555 20214 50289 53003 7000/;
0145386830999992000071718004+39710+064610FM-12+023099999V0203401N004012200019N0100001N1+02471+00931100661ADDGA1001+999999999GF100991001001999999001001KA1999M+03461MD1310071+9999REMSYN064AAXX  17181 38683 42997 03404 10247 20093 40066 53007 333 10346;
0163386830999992000080600004+39710+064610FM-12+023099999V0203401N005012200019N0100001N1+02341+00941100591ADDGA1001+999999999GF100991001001999999001001MA1999999098011MD1210011+9999REMSYN080AAXX  06001 38683 42997 03405 10234 20094 39801 40059 52001 333 00021 555 10021;
0204386830999992000090803004+39710+064610FM-12+023099999V0200201N003012200019N0100001N1+01951+01001101151ADDAA199000091GA1001+999999999GF100991001001999999001001IA1019IA2999+01509MD1210161+9999REMSYN088AAXX  08031 38683 32997 00203 10195 20100 40115 52016 555 20163 30015 50259 53005 7000/;EQDQ01  00002PRCP99
0185386830999992000090815004+39710+064610FM-12+023099999V0203601N004012200019N0100001N1+02461+00621101251ADDAA199000091GA1001+999999999GF100991001001999999001001KA1120M+03391MD1310071+9999REMSYN074AAXX  08151 38683 32997 03604 10246 20062 40125 53007 333 10339 555 53011;EQDQ01  00002PRCP99
0191386830999992000091000004+39710+064610FM-12+023099999V0203601N002012200019N0040001N1+01671+00381101271ADDAY101061AY201061GA1001+999999999GF100991001001999999001001MA1999999098621MD1710031+9999MW1051REMSYN086AAXX  10001 38683 41996 03602 10167 20038 39862 40127 57003 70500 333 00009 555 10120;
0153386830999992000092012004+39710+064610FM-12+023099999V0203401N007012200019N0100001N1+02271-00251101751ADDGA1001+999999999GF100991001001999999001001MA1999999099131MD1710041+9999REMSYN070AAXX  20121 38683 42997 03407 10227 21025 39913 40175 57004 555 10037;
0145386830999992000092206004+39710+064610FM-12+023099999V0209999C000012200019N0100001N1+02241+00401101791ADDGA1001+999999999GF100991001001999999001001KA1999N+00801MD1210061+9999REMSYN064AAXX  22061 38683 42997 00000 10224 20040 40179 52006 333 20080;
0147386830999992000092400004+39710+064610FM-12+023099999V0209999C000012200019N0100001N1+01491+00671101241ADDGF102991999999999999999999MA1999999098571MD1410001+9999REMSYN080AAXX  24001 38683 42997 20000 10149 20067 39857 40124 54000 333 00008 555 10010;
0143386830999992000101312004+39710+064610FM-12+023099999V0203601N005019999999N0100001N1+02291-00071101541ADDGF106991021001999999031011MA1999999098931MD1810091+9999REMSYN076AAXX  13121 38683 42997 63605 10229 21007 39893 40154 58009 82031 555 10026;
0122386830999992000102621004+39710+064610FM-12+023099999V0209999C000012200019N0100001N1+00941+00591102131ADDGA1001+999999999GF100991001001999999001001MD1710171+9999REMSYN054AAXX  26211 38683 42997 00000 10094 20059 40213 57017;
0163386830999992000103100004+39710+064610FM-12+023099999V0203601N007012200019N0100001N1+00701+00381102641ADDGA1001+999999999GF100991001001999999001001MA1999999099861MD1710161+9999REMSYN080AAXX  31001 38683 42997 03607 10070 20038 39986 40264 57016 333 00003 555 10004;
0175386830999992000110415004+39710+064610FM-12+023099999V0203201N003010360019N0100001N1+01431+00231102331ADDAA199000091GF105991011031017501031001KA1120M+01811MD1310071+9999REMSYN080AAXX  04151 38683 32797 53203 10143 20023 40233 53007 81330 333 10181 555 53006;EQDQ01  00002PRCP99
0173386830999992000112018004+39710+064610FM-12+023099999V0203201N003012200019N0040001N1+00161-00281102531ADDAY101061AY201061GA1001+999999999GF100991001001999999001001KA1999M+01201MD1810101+9999MW1101REMSYN070AAXX  20181 38683 41996 03203 10016 21028 40253 58010 71000 333 10120;
0191386830999992000112200004+39710+064610FM-12+023099999V0209999C000012200019N0020001N1-00201-00261102181ADDAY101061AY201061GA1001+999999999GF100991001001999999001001MA1999999099311MD1410001+9999MW1101REMSYN086AAXX  22001 38683 41995 00000 11020 21026 39931 40218 54000 71000 333 00110 555 10110;
0163386830999992000112718004+39710+064610FM-12+023099999V0209999C000012200019N0040001N1+00601+00211102361ADDAY121061AY221061GF104991041001999999031001KA1999M+01541MD1710031+9999MW1101REMSYN076AAXX  27181 38683 41996 40000 10060 20021 40236 57003 71022 84030 333 10154;
0143386870999992000012100004+39080+063600FM-12+019399999V0201101N003019999999N0040001N1+00421+00031100961ADDGF106991001001999999001011MA1999999098611MD1710201+9999REMSYN076AAXX  21001 38687 42996 61103 10042 20003 39861 40096 57020 80001 555 10001;
0219386870999992000013000004+39080+063600FM-12+019399999V0203201N003010024019N0040001N1+00281+00231102151ADDAY181061AY221061GA1051+002409099GA2031+002409069GF108991081091002501999999MA1999999099751MD1710121+9999MW1801REMSYN098AAXX  30001 38687 41396 83203 10028 20023 39975 40215 57012 78082 889// 333 85908 83608 555 11003;
0165386870999992000020206004+39080+063600FM-12+019399999V0201101N005012200019N0100001N1+00621+00331101431ADDAA199000091GF103991021001999999031011KA1999N-00011MD1210101+9999REMSYN070AAXX  02061 38687 32997 31105 10062 20033 40143 52010 82031 333 21001;EQDQ01  00002PRCP99
0138386870999992000022621004+39080+063600FM-12+019399999V0202501N005010360019N0040001N1+00411+00011101991ADDGA1041+007809099GF108991041091008001071999MD1210211+9999REMSYN070AAXX  26211 38687 42596 82505 10041 20001 40199 52021 8497/ 333 84926;
0175386870999992000040618004+39080+063600FM-12+019399999V0200201N002012200019N0040001N1+01281+00771101251ADDAA199000091GA1001+999999999GF100991001001999999001001KA1999M+02441MD1310031+9999REMSYN064AAXX  06181 38687 32996 00202 10128 20077 40125 53003 333 10244;EQDQ01  00002PRCP99
0175386870999992000040718004+39080+063600FM-12+019399999V0200701N004012200019N0040001N1+01841+00461101161ADDAA199000091GA1001+999999999GF100991001001999999001001KA1999M+02891MD1210081+9999REMSYN064AAXX  07181 38687 32996 00704 10184 20046 40116 52008 333 10289;EQDQ01  00002PRCP99
0175386870999992000041718004+39080+063600FM-12+019399999V0202901N002012200019N0040001N1+01751+00711101331ADDAA199000091GA1001+999999999GF100991001001999999001001KA1999M+02941MD1210121+9999REMSYN064AAXX  17181 38687 32996 02902 10175 20071 40133 52012 333 10294;EQDQ01  00002PRCP99
0140386870999992000050421004+39080+063600FM-12+019399999V0203401N005012200019N0040001N1+01911+00431101741ADDAY101031AY201031GF102991021001999999031001MD1210241+9999MW1051REMSYN066AAXX  04211 38687 41996 23405 10191 20043 40174 52024 70500 82030;
0122386870999992000051221004+39080+063600FM-12+019399999V0203601N003012200019N0040001N1+01591+00501101471ADDGA1001+999999999GF100991001001999999001001MD1810011+9999REMSYN054AAXX  12211 38687 42996 03603 10159 20050 40147 58001;
0175386870999992000061415004+39800+063590FM-12+019399999V0209999C000012200019N0100001N1+02411+01181101091ADDAA199000091GA1001+999999999GF100991001001999999001001KA1999M+02671MD1710081+9999REMSYN064AAXX  14151 38687 32997 00000 10241 20118 40109 57008 333 10267;EQDQ01  00002PRCP99
0175386870999992000062618004+39800+063590FM-12+019399999V0203201N004012200019N0040001N1+02451+01191100191ADDAA199000091GA1001+999999999GF100991001001999999001001KA1999M+03351MD1310111+9999REMSYN064AAXX  26181 38687 32996 03204 10245 20119 40019 53011 333 10335;EQDQ01  00002PRCP99
0122386870999992000070309004+39800+063590FM-12+019399999V0203401N003012200019N0100001N1+03431+01341100541ADDGA1001+999999999GF100991001001999999001001MD1810051+9999REMSYN054AAXX  03091 38687 42997 03403 10343 20134 40054 58005;
0112386870999992000071409004+39800+063590FM-12+019399999V0202901N005012200019N0100001N1+03291+00991100481ADDGF102991021011017501001001MD1810021+9999REMSYN060AAXX  14091 38687 42797 22905 10329 20099 40048 58002 82100;
0175386870999992000073015004+39070+063590FM-12+019399999V0203601N003012200019N0100001N1+03271+01241100611ADDAA199000091GA1001+999999999GF100991001001999999001001KA1999M+03891MD1410001+9999REMSYN064AAXX  30151 38687 32997 03603 10327 20124 40061 54000 333 10389;EQDQ01  00002PRCP99
0153386870999992000073112004+39070+063590FM-12+019399999V0200201N005012200019N0100001N1+03871+01281100421ADDGA1001+999999999GF100991001001999999001001MA1999999098341MD1710171+9999REMSYN070AAXX  31121 38687 42997 00205 10387 20128 39834 40042 57017 555 10055;
0143386870999992000080612004+39070+063590FM-12+019399999V0203601N003012200019N0100001N1+03751+01571100411ADDGF101991011011017501001001MA1999999098321MD1710141+9999REMSYN076AAXX  06121 38687 42797 13603 10375 20157 39832 40041 57014 81100 555 10053;
0143386870999992000080712004+39070+063590FM-12+019399999V0202901N005012200019N0100001N1+03931+01331100391ADDGF102991021011017501001001MA1999999098311MD1710101+9999REMSYN076AAXX  07121 38687 42797 22905 10393 20133 39831 40039 5701/ 82100 555 10056;
0175386870999992000080718004+39070+063590FM-12+019399999V0203401N003012200019N0040001N1+02981+01341100601ADDAA199000091GA1001+999999999GF100991001001999999001001KA1999M+03941MD1310201+9999REMSYN064AAXX  07181 38687 32996 03403 10298 20134 40060 53020 333 10394;EQDQ01  00002PRCP99
0153386870999992000082000004+39070+063590FM-12+019399999V0203401N003012200019N0040001N1+01731+00881101111ADDGA1001+999999999GF100991001001999999001001MA1999999098861MD1810011+9999REMSYN070AAXX  20001 38687 42996 03403 10173 20088 39886 40111 58001 555 10016;
0175386870999992000082106004+39070+063590FM-12+019399999V0203601N004012200019N0100001N1+03191+00981101211ADDAA199000091GA1001+999999999GF100991001001999999001001KA1999N+01611MD1210051+9999REMSYN064AAXX  21061 38687 32997 03604 10319 20098 40121 52005 333 20161;EQDQ01  00002PRCP99
0188386870999992000083012004+39070+063590FM-12+019399999V0203601N002012200019N0100001N1+03591+01611100111ADDGA1001+999999999GF100991001001999999001001MA1999999098021MD1710011+9999REMSYN070AAXX  30121 38687 42997 03602 10359 20161 39802 40011 5700/ 555 10048;EQDQ01+000072APCTENQ02+000002APC3  
0153386870999992000090600004+39070+063590FM-12+019399999V0200201N002012200019N0040001N1+01571+00951100891ADDGA1001+999999999GF100991001001999999001001MA1999999099631MD1710031+9999REMSYN070AAXX  06001 38687 42996 00202 10157 20095 39963 40089 57003 555 10014;
0202386870999992000101103004+39070+063590FM-12+019399999V0209999C000012200019N0100001N1+00691+00311101811ADDAA199000091GA1001+999999999GF100991001001999999001001IA1019IA2999+00209MD1310041+9999REMSYN086AAXX  11031 38687 32997 00000 10069 20031 40181 53004 333 55/// 555 20023 30002 7000/;EQDQ01  00002PRCP99
0165386870999992000111018004+39070+063590FM-12+019399999V0202701N003019999999N0040001N1+00831+00271102541ADDAA199000091GF107991071001999999051001KA1999M+01141MD1210051+9999REMSYN070AAXX  10181 38687 32996 72703 10083 20027 40254 52005 87050 333 10114;EQDQ01  00002PRCP99
0146386870999992000120215004+39070+063590FM-12+019399999V0209999C000010150019N0040001N1+00591+00401102601ADDAA199000021GF107991071051017501001001KA1999M+00711MD1310061+9999REMSYN070AAXX  02151 38687 32796 70000 10059 20040 40260 53006 87500 333 10071;
0169386870999992000122400004+39070+063590FM-12+019399999V0200501N003010021019N0040001N1+00461+00361102661ADDGA1081+002109069GF108991081051002501999999MA1999999100261MD1710051+9999REMSYN086AAXX  24001 38687 42396 80503 10046 20036 30026 40266 57005 885// 333 88607 555 10006;
0185386870999992000122818004+39070+063590FM-12+019399999V0200201N001010012019N0020001N1+00461+00411102931ADDAY151061AY221061GA1081+001209069GF108991081061001501999999KA1120M+00531MD1210031+9999MW1511REMSYN082AAXX  28181 38687 21295 80201 10046 20041 40293 52003 75152 886// 333 10053 88704;
0193386960999992000010100004+39700+067000FM-12+0724UTSS V0202001N001012200019N9999999N1+00311-00141102501ADDAA106000091GA1001+999999999GF100991001001999999001001MA1999999093831MD1710021+9999REMSYN080AAXX  01001 38696 329// 02001 10031 21014 39383 40250 57002 333 01103 555 11103;EQDQ01  00002PRCP06
0218386960999992000010203004+39700+067000FM-12+0724UTSS V0201101N001012200019N0500001N1+00171-00111102351ADDAA106000091GF101991001001999999001021GJ104869IA1099IA2999-00509MD1310111+9999REMSYN110AAXX  02031 38696 32999 11101 10017 21011 40235 53011 80002 333 55081 555 20010 31105 50080 52008 53003 7000/;EQDQ01  00002PRCP06
0165386960999992000011918004+39700+067000FM-12+0724UTSS V0201801N002012200019N9999999N1+00211-00261101671ADDAA199000091GF102991001001999999001011KA1999M+01281MD1710131+9999REMSYN070AAXX  19181 38696 329// 21802 10021 21026 40167 57013 80001 333 10128;EQDQ01  00002PRCP99
0205386960999992000020200004+39700+067000FM-12+0724UTSS V0201401N001012200019N9999999N1-00091-00371101821ADDAA199000091GA1001+999999999GF100991001001999999001001IA1309MA1999999092771MD1710061+9999REMSYN086AAXX  02001 38696 329// 01401 11009 21037 39277 40182 57006 333 01103 42/// 555 11102;EQDQ01  00002PRCP99
0165386960999992000020206004+39700+067000FM-12+0724UTSS V0201401N003019999999N0500001N1+00631-00251101451ADDAA199000091GF106991021001999999041011KA1999N-00171MD1210101+9999REMSYN070AAXX  02061 38696 32999 61403 10063 21025 40145 52010 82041 333 21017;EQDQ01  00002PRCP99
0185386960999992000020515004+39700+067000FM-12+0724UTSS V0202001N001012200019N9999999N1+00511+00101101751ADDAA199000091GA1001+999999999GF100991001001999999001001KA1120M+01401MD1310051+9999REMSYN074AAXX  05151 38696 329// 02001 10051 20010 40175 53005 333 10140 555 53009;EQDQ01  00002PRCP99
0234386960999992000032403004+39700+067000FM-12+0724UTSS V0201401N003019999999N0500001N1+01621-00381101361ADDAA199000091GF108991001001999999001031GJ105409IA1019IA2999+00909MD1210071+9999REMSYN110AAXX  24031 38696 32999 81403 10162 21038 40136 52007 86003 333 55090 555 20119 30009 50150 52011 53006 7000/;EQDQ01+000062SCOTLCQ02  00002PRCP99
0218386960999992000032903004+39700+067000FM-12+0724UTSS V0200901N003010360019N0040001N1+00551+00381102121ADDAA199000091GF108991041031012501071999GJ100549IA1099IA2999+00409MD1710071+9999REMSYN110AAXX  29031 38696 32696 80903 10055 20038 40212 57007 8437/ 333 55009 555 20054 31004 50053 52004 53008 7990/;EQDQ01  00002PRCP99
0275386960999992000040500004+39700+067000SY-MT+0724UTSS V0209999C000012200019N0112651N1+00691+00511102101ADDAA199000091GF100991001001999999001001MA1102001093581MD1710131+9999MW1001REMSYN080AAXX  05001 38696 329// 00000 10069 20051 39358 40210 57013 333 01005 555 11003;MET070UTSS 050000Z 12004MPS 9999 SKC 07/05 Q1020 NOSIG RMK QFE 943 88CLRD70;EQDQ01+000000PRSWM2Q02  00002PRCP99
0167386960999992000040820004+39700+067000FM-15+0724UTSS V0201301N007010630019N0112651N1+01801+00301999999ADDGA1071+063009999GF107991999999999999999999MA1101391999999MW1001REMMET073UTSS 082000Z 13007MPS 9999 BKN219 18/03 Q1014 NOSIG RMK QFE 937 88CLRD70;EQDQ01+000000PRSWM2
0154386960999992000041116004+39700+067000FM-15+0724UTSS V0209999C000012200019N0112651N1+99999+99999999999ADDGA1021+060009999GF102991999999999999999999MW1001REMMET075UTSS 111600Z 00000MPS 9999 FEW200 1 24/08 Q1009 NOSIG RMK QFE 932 88CLRD70;EQDQ01+000000PRSWM2
0192386960999992000041614004+39700+067000FM-15+0724UTSS V0201201N003012200019N0112651N1+02101+00901999999ADDGA1021+018009099GA2021+027009999GF104991999999999999999999MA1101391999999MW1001REMMET082UTSS 161400Z 12003MPS 9999 SCT066CB SCT093 21/09 Q1014 NOSIG RMK QFE 937 88CLRD70;EQDQ01+000000PRSWM2
0308386960999992000041712004+39700+067000SY-MT+0724UTSS V0201801N004010075019N0500001N1+02041+01051100981ADDAY121061AY221061GA1021+036009999GF108991081091008001999999MA1101291092941MD1710041+9999MW1171MW2271REMSYN082AAXX  17121 38696 41599 81804 10204 20105 39294 40098 57004 72722 889// 555 11020;MET090UTSS 171200Z 15005MRS 9999 TS WKN066SW FEW126 21/11 Q1013 TEMRO TSRA RMK QFE 936 8829//60;EQDQ01    003PRSWM1
0190386960999992000042420004+39700+067000FM-15+0724UTSS V0201501N004012200019N0112651N1+01801+00501999999ADDGA1021+039009999GA2021+060009999GF102991999999999999999999MA1101081999999MW1001REMMET080UTSS 242000Z 15004MPS 9999 FEW200 FEW133 18/05 Q1011 NOSIG RMK QFE 935 88CLRD70;EQDQ01+000000PRSWM2
0152386960999992000042421004+39700+067000FM-12+0724UTSS V0201801N001012200019N9999999N1+01411+00881100981ADDAA199000091GA1001+999999999GF100991001001999999001001MD1810091+9999REMSYN054AAXX  24211 38696 329// 01801 10141 20088 40098 58009;EQDQ01  00002PRCP99
0336386960999992000042512004+39700+067000SY-MT+0724UTSS V0202901N00301060001CN0500001N1+02601+00001100751ADDAA199000091GA1021+015009999GA2021+039009999GA3021+060009999GF106991041001999999041091MA1101081092831MD1710041+9999MW1001REMSYN076AAXX  25121 38696 32999 62903 10260 20000 39283 40075 57004 84049 555 10040;MET087UTSS 251200Z 32005MPS 9999 FEW050 FEW133 SCT200 24/04 Q1011 NOSIG RMK QFE 933 88CLRD70;EQDQ01+000000PRSWM2Q02  00002PRCP99
0192386960999992000042710004+39700+067000FM-15+0724UTSS V0200401N003012200019N0112651N1+02401+00501999999ADDGA1021+018009099GA2021+060009999GF104991999999999999999999MA1101491999999MW1001REMMET082UTSS 271000Z 04003MPS 9999 SCT066CB SCT200 24/05 Q1015 NOSIG RMK QFE 938 88CLRD70;EQDQ01+000000PRSWM2
0148386960999992000050504004+39700+067000FM-15+0724UTSS V0201001N007012200019N0112651N1+01801+00801999999ADDGF100991999999999999999999MA1102101999999MW1001REMMET070UTSS 050400Z 10007MPS 9999 SKC 18/08 Q1021 NOSIG RMK QFE 943 88CLRD70;EQDQ01+000000PRSWM2
0218386960999992000051003004+39700+067000FM-12+0724UTSS V0202701N001019999999N0200001N1+02141+01041100661ADDAA199000091GF105991051001999999071001GJ105169IA1019IA2999+01909MD1310221+9999REMSYN110AAXX  10031 38696 32998 52701 10214 20104 40066 53022 85070 333 55086 555 20209 30019 50261 52016 53006 7000/;EQDQ01  00002PRCP99
0148386960999992000052311004+39700+067000FM-15+0724UTSS V0201001N008012200019N0112651N1+02501+00401999999ADDGF100991999999999999999999MA1101491999999MW1001REMMET070UTSS 231100Z 10008MPS 9999 SKC 25/04 Q1015 NOSIG RMK QFE 938 88CLRD70;EQDQ01+000000PRSWM2
0306386960999992000053109004+39700+067000SY-MT+0724UTSS V0202901N00301069001CN0500001N1+03031+00191100351ADDAA199000021GA1021+018009099GA2021+039009999GA3021+069009999GF107991031021008001071001MA1100811999999MD1810011+9999MW1001REMSYN060AAXX  31091 38696 32599 72903 10303 20019 40035 58001 83270;MET089UTSS 310900Z 26007MPS 9999 SCT066CB FEW133 FEW233 30/05 Q1008 NOSIG RMK QFE 931 88CLRD70;EQDQ01+000000PRSWM2
0167386960999992000060110004+39700+067000FM-15+0724UTSS V0203001N007010390019N0112651N1+02801+00401999999ADDGA1071+039009999GF107991999999999999999999MA1100911999999MW1001REMMET073UTSS 011000Z 30007MPS 9999 BKN133 28/04 Q1009 NOSIG RMK QFE 931 88CLRD70;EQDQ01+000000PRSWM2
0300386960999992000060712004+39700+067000SY-MT+0724UTSS V0200701N004012200019N0500001N1+03371+00251099941ADDAA199000091GA1021+015009999GF199999001001999999001001MA1100411092271MD1710011+9999MW1001REMSYN070AAXX  07121 38696 32999 00704 10337 20025 39227 49994 57001 555 10056;MET073UTSS 071200Z 09008MPS 9999 FEW050 34/00 Q1004 NOSIG RMK QFE 928 88CLRD70;EQDQ01+000002SCOTCVQ02+000000PRSWM2Q03  00002PRCP99
0272386960999992000061415004+39690+067000SY-MT+0724UTSS V0200501N001012200019N0500001N1+01981+00271101131ADDAA199000021GF101991001001999999001011KA1120M+02391MA1101291999999MD1710101+9999MW1001REMSYN080AAXX  14151 38696 32999 10501 10198 20027 40113 57010 80001 333 10239 555 53008;MET070UTSS 141500Z 01002MPS 9999 SKC 20/04 Q1013 NOSIG RMK QFE 937 88CLRD70;EQDQ01+000000PRSWM2
0167386960999992000061510004+39690+067000FM-15+0724UTSS V0203101N005012200019N0112651N1+02701+00501999999ADDGA1021+039009999GF102991999999999999999999MA1101191999999MW1001REMMET073UTSS 151000Z 31005MPS 9999 FEW133 27/05 Q1012 NOSIG RMK QFE 935 88CLRD70;EQDQ01+000000PRSWM2
0275386960999992000062500004+39690+067000SY-MT+0724UTSS V0201801N002012200019N0500001N1+01961+00731100031ADDAA199000091GF100991001001999999001001MA1100201092011MD1710051+9999MW1001REMSYN080AAXX  25001 38696 32999 01802 10196 20073 39201 40003 57005 333 00010 555 10015;MET070UTSS 250000Z VRB02MPS 9999 SKC 19/06 Q1002 NOSIG RMK QFE 926 88CLRD70;EQDQ01+000000PRSWM2Q02  00002PRCP99
0148386960999992000062807004+39690+067000FM-15+0724UTSS V0202801N003012200019N0112651N1+03101+00901999999ADDGF100991999999999999999999MA1100911999999MW1001REMMET070UTSS 280700Z 28003MPS 9999 SKC 31/09 Q1009 NOSIG RMK QFE 933 88CLRD70;EQDQ01+000000PRSWM2
0148386960999992000063017004+39690+067000FM-15+0724UTSS V0200401N003012200019N0112651N1+02601+00801999999ADDGF100991999999999999999999MA1101021999999MW1001REMMET070UTSS 301700Z 04003MPS 9999 SKC 26/08 Q1010 NOSIG RMK QFE 934 88CLRD70;EQDQ01+000000PRSWM2
0272386960999992000071106004+39690+067000SY-MT+0724UTSS V0201101N003012200019N0500001N1+03181+01121100031ADDAA199000091GF100991001001999999001001KA1999N+02091MA1100511999999MD1210081+9999MW1001REMSYN064AAXX  11061 38696 32999 01103 10318 20112 40003 52008 333 20209;MET070UTSS 110600Z 00000MPS 9999 SKC 30/11 Q1005 NOSIG RMK QFE 929 88CLRD70;EQDQ01+000000PRSWM2Q02  00002PRCP99
0148386960999992000071207004+39690+067000FM-15+0724UTSS V0200101N004012200019N0112651N1+03201+00901999999ADDGF100991999999999999999999MA1100611999999MW1001REMMET070UTSS 120700Z 01004MPS 9999 SKC 32/09 Q1006 NOSIG RMK QFE 930 88CLRD70;EQDQ01+000000PRSWM2
0167386960999992000071316004+39690+067000FM-15+0724UTSS V0201401N003012200019N0112651N1+02601+00701999999ADDGA1021+039009999GF102991999999999999999999MA1100511999999MW1001REMMET073UTSS 131600Z 14003MPS 9999 FEW133 26/07 Q1005 NOSIG RMK QFE 929 88CLRD70;EQDQ01+000000PRSWM2
0260386960999992000071800004+39690+067000SY-MT+0724UTSS V0201401N003012200019N0500001N1+01751+00951100531ADDAA199000021GF100991001001999999001001MA1100711092421MD1710071+9999MW1001REMSYN080AAXX  18001 38696 32999 01403 10175 20095 39242 40053 57007 333 01012 555 11012;MET071UTSS 180000Z 00000MPS 9999 SKC 16/09 Q1007 NOSIG RMK QFE 931 88)CLRD70;EQDQ01+000000PRSWM2
0175386960999992000071810004+39690+067000FM-15+0724UTSS V0203401N004012200019N0112651N1+03001+00801999999ADDGA1021+018009999GF104991999999999999999999MA1100611999999MW1001REMMET081UTSS 181000Z 34004MPS 270V350 9999 SCT066 30/08 Q1006 NOSIG RMK QFE 930 88CLRD70;EQDQ01+000000PRSWM2
0167386960999992000072016004+39690+067000FM-15+0724UTSS V02099999999992200019N0099001N1+02401+00801999999ADDGA1021+039009999GF102991999999999999999999MA1100811999999MW1001REMMET073UTSS 201600Z 09004MRS 9999 FEW133 24/08 Q1008 NOSIG RMK QFE 931 88SLRD70;EQDQ01+000000PRSWM2
0148386960999992000072911004+39690+067000FM-15+0724UTSS V0200701N009012200019N0112651N1+03701+00501999999ADDGF100991999999999999999999MA1100811999999MW1001REMMET070UTSS 291100Z 07009MPS 9999 SKC 37/05 Q1008 NOSIG RMK QFE 932 88CLRD70;EQDQ01+000000PRSWM2
0148386960999992000080107004+39690+067000FM-15+0724UTSS V0200301N011012200019N0112651N1+03401+00701999999ADDGF100991999999999999999999MA1100511999999MW1001REMMET070UTSS 010700Z 03011MPS 9999 SKC 34/07 Q1005 NOSIG RMK QFE 929 88CLRD70;EQDQ01+000000PRSWM2
0148386960999992000080110004+39690+067000FM-15+0724UTSS V0200301N010012200019N0112651N1+03501+00701999999ADDGF100991999999999999999999MA1100411999999MW1001REMMET070UTSS 011000Z 03010MPS 9999 SKC 35/07 Q1004 NOSIG RMK QFE 928 88CLRD70;EQDQ01+000000PRSWM2
0148386960999992000080413004+39690+067000FM-15+0724UTSS V0201101N007012200019N0112651N1+03301+01101999999ADDGF100991999999999999999999MA1100311999999MW1001REMMET070UTSS 041300Z 11007MPS 9999 SKC 33/11 Q1003 NOSIG RMK QFE 926 88CLRD70;EQDQ01+000000PRSWM2
0122386960999992000081104004+39690+067000FM-15+0724UTSS V02099999999992200019N0112651N1+02501+00601999999ADDMA1101021999999MW1001REMMET070UTSS 110400Z 11007MRS 9999 SKS 25/06 Q1010 NOSIG RMK QFE 933 88SLRD70;EQDQ01+000000PRSWM2
0148386960999992000081222004+39690+067000FM-15+0724UTSS V02099999999992200019N0112651N1+01801+00601999999ADDGF100991999999999999999999MA1101021999999MW1001REMMET070UTSS 122200Z VRB01MPS 9999 SKC 18/06 Q1010 NOSIG RMK QFE 933 88CLRD70;EQDQ01+000000PRSWM2
0257386960999992000090221004+39690+067000SY-MT+0724UTSS V0201101N001012200019N0112651N1+01601+00781100411ADDAA199000091GF100991001001999999001001MA1100611999999MD1810021+9999MW1001REMSYN054AAXX  02211 38696 329// 01101 10160 20078 40041 58002;MET078UTSS 022100Z 15004MPS 110V180 9999 SKC 18/07 Q1006 NOSIG RMK QFE 929 88CLRD70;EQDQ01+000000PRSWM2Q02  00002PRCP99
0156386960999992000091620004+39690+067000FM-15+0724UTSS V0201301N004012200019N0112651N1+02001+00701999999ADDGF100991999999999999999999MA1101191999999MW1001REMMET078UTSS 162000Z 13004MPS 110V160 9999 SKC 20/07 Q1012 NOSIG RMK QFE 935 88CLRD70;EQDQ01+000000PRSWM2
0148386960999992000092722004+39690+067000FM-15+0724UTSS V0209999C000012200019N0112651N1+01001+00501999999ADDGF100991999999999999999999MA1101491999999MW1001REMMET070UTSS 272200Z 00000MPS 9999 SKC 10/05 Q1015 NOSIG RMK QFE 939 88CLRD70;EQDQ01+000000PRSWM2
0204386960999992000100713004+39690+067000FM-15+0724UTSS V0201201N00401220001CN0112651N1+01101+00301999999ADDGA1071+015009099GA2021+030009999MA1102611999999MW1801REMMET088UTSS 071300Z 12004MPS 9999 -SHRA BKN053CB FEW100 11/03 Q1026 NOSIG RMK QFE 948 8819//60;EQDQ01+000022SCOTCVQ02+000003PRSWM1Q03    003PRSWM1
0175386960999992000101415004+39690+067000FM-12+0724UTSS V0202901N001019999999N9999999N1+01381+00481101861ADDAY181031AY221031GF107991999091008001999999MD1210261+9999MW1021REMSYN082AAXX  14151 38696 /15// 72901 10138 20048 40186 52026 70282 889// 555 53008 69902;EQDQ01+000082SCOTLC
0167386960999992000101607004+39690+067000FM-15+0724UTSS V0202701N005012200019N0112651N1+00801+00101999999ADDGA1021+009909999GF102991999999999999999999MA1103121999999MW1001REMMET073UTSS 160700Z 27005MPS 9999 FEW033 08/01 Q1031 NOSIG RMK QFE 953 88CLRD70;EQDQ01+000000PRSWM2
0375386960999992000101803004+39690+067000SY-MT+0724UTSS V0201401N002012200019N0200001N1+01151+00711101571ADDAY121031AY211031GA1021+018009099GA2021+033009999GF108991081091008001999999MA1101591999999MD1710071+9999MW1801REMSYN122AAXX  18031 38696 /1598 81402 10115 20071 40157 57007 78021 889// 333 55105 555 20061 31004 50072 52006 53006 69902 7990/;MET091UTSS 180300Z 14003MPS 330V320 9999 SCT066CB SCT112 11/07 Q1016 NOSIG RMK QFE 939 88CLRD70 ;EQDQ01+000000PRSWM2Q02    003PRSWM1
0398386960999992000102015004+39690+067000SY-MT+0724UTSS V0200401N001012200019N0112651N1+01321+00901102011ADDAA199000091GA1021+069009999GF199999001001999999001011KA1120M+02151MA1102101999999MD1310061+9999MW1001REMSYN080AAXX  20151 38696 329// 10401 10132 20090 40201 53006 80001 333 10215 555 53005;MET148UTSS 201500Z 12002MPS 9999 FEW233 12/09 Q1021 NOSIG RMK QFE 943 88GLRD70 UWOO 201500Z 30004MPS 6000 OVC017 03/M00 Q1024 NOSIG RMK QFE757/1010 SC065;EQDQ01+000012SCOTCVQ02+000000PRSWM2Q03  00002PRCP99
0268386960999992000102521004+39690+067000SY-MT+0724UTSS V0201401N001012200019N0047001N1+00691+00581102591ADDAA199000091GF100991001001999999001001MA1102511999999MD1710021+9999MW1101REMSYN054AAXX  25211 38696 329// 01401 10069 20058 40259 57002;MET073UTSS 252100Z 00000MPS 4700 BR SKC 06/05 Q1025 NOSIG RMK QFE 947 88CLRD70;EQDQ01+000003PRSWM1Q02  00002PRCP99Q03    003PRSWM1
0167386960999992000102701004+39690+067000FM-15+0724UTSS V0201401N004012200019N0040001N1+00801+00601999999ADDGF100991999999999999999999MA1102101999999MW1101REMMET073UTSS 270100Z 14004MPS 4000 BR SKC 08/06 Q1021 NOSIG RMK QFE 944 88CLRD70;EQDQ01+000003PRSWM1Q02    003PRSWM1
0148386960999992000110516004+39690+067000FM-15+0724UTSS V0209999C000012200019N0112651N1+00701+00201999999ADDGF100991999999999999999999MA1102201999999MW1001REMMET070UTSS 051600Z 00000MPS 9999 SKC 07/02 Q1022 NOSIG RMK QFE 944 88CLRD70;EQDQ01+000000PRSWM2
0153386960999992000111600004+39690+067000FM-12+0724UTSS V0200701N001010075019N9999999N1+00341+00161102911ADDGF108991081091008001999999MA1999999094201MD1210071+9999REMSYN086AAXX  16001 38696 425// 80701 10034 20016 39420 40291 52007 889// 333 01001 555 11004;
0228386960999992000120103004+39690+067000FM-12+0724UTSS V0201401N002012200019N0500001N1-00051-00201102541ADDAA199000091GA1001+999999999GF100991001001999999001001GJ105289IA1149IA2999-00509MD1710151+9999REMSYN104AAXX  01031 38696 32999 01402 11005 21020 40254 57015 333 55088 555 21021 34105 50004 52107 53007 7000/;EQDQ01  00002PRCP99
0237386960999992000120208004+39690+067000FM-15+0724UTSS V0200401N002012200019N0050001N1+00601+00501999999ADDGA1021+001809999GA2021+015009099GF104991999999999999999999MA1102201999999MW1101MW2801REMMET105UTSS 020800Z 04002MPS 5000 -SHRA BR SCT006 SCT050CB 06/05 Q1022 TEMPO 1000 SHRA BR RMK QFE 944 8829//50 ;EQDQ01+000003PRSWM1Q02    003PRSWM1
0219386960999992000120216004+39690+067000FM-15+0724UTSS V0203401N00201220001CN0090001N1+00501+00401999999ADDGA1071+002109999GA2021+015009099MA1102401999999MW1101REMMET103UTSS 021600Z 34002MPS 9000 BR BKN007 SCT050CB 05/04 Q1024 TEMPO 1000 RABR BKN003 RMK QFE 946 8829//55 ;EQDQ01+000042SCOTCVQ02+000003PRSWM1Q03    003PRSWM1
0219386960999992000120407004+39690+067000FM-15+0724UTSS V0202501N009010024019N0070001N1+00701+00501999999ADDGA1081+002409099GF108991999999999999999999MA1102611999999MW1101MW2801REMMET103UTSS 040700Z 25009MPS 7000 -SHRA BR OVC008CB 07/05 Q1026 TEMPO 2000 BR RA BKN005 RMK QFE 948 8829//55 ;EQDQ01+000003PRSWM1Q02    003PRSWM1
0315386960999992000122803004+39690+067000SY-MT+0724UTSS V0202901N001010009019N0001001N1+00371+00351102611ADDAY141031AY281031GA1081+000909999GF108991999999999999999999MA1102401999999MW1101MW2471REMSYN116AAXX  28031 38696 /1/91 /2901 10037 20035 40261 74748 8//// 333 55/// 555 20035 31003 50055 52003 53004 60022 7014/;MET077UTSS 280300Z 29002MPS 1500 BR OVC003 04/03 Q1024 NOSIG RMK QFE 946 8819//60 ;EQDQ01    003PRSWM1
0167386960999992000123020004+39690+067000FM-15+0724UTSS V0201301N005012200019N0060001N1+00201+00101999999ADDGF100991999999999999999999MA1102301999999MW1101REMMET073UTSS 302000Z 13005MPS 6000 BR SKC 02/01 Q1023 NOSIG RMK QFE 945 88CLRD70;EQDQ01+000003PRSWM1Q02    003PRSWM1
0184387130999992000012115004+39900+068980FM-12+100699999V0202301N001019999999N0350001N1+00491-00381999999ADDAA199000091GF108991001001999999001041KA1120M+00851MD1110061+9999ME1314209REMSYN080AAXX  21151 38713 32981 82301 10049 21038 48420 51006 80004 333 10085 555 50038;EQDQ01  00002PRCP99
0149387130999992000020315004+39900+068980FM-12+100699999V0203401N002010021019N0039001N1+00011-00201999999ADDAY171031AY221031GF108991081061002501999999MD1210071+9999ME1315509MW1101REMSYN066AAXX  03151 38713 /1339 83402 10001 21020 48550 52007 71072 886//;
0147387130999992000022909004+39900+068980FM-12+100699999V0203401N003010018019N0280001N1+00021-00041999999ADDGA1081+001809069GF108991081061999999999999MD1110041+9999ME1315809REMSYN070AAXX  29091 38713 42978 83403 10002 21004 48580 51004 886// 333 88706;
0184387130999992000030815004+39900+068980FM-12+100699999V0200901N002019999999N0300001N1+00571-00451999999ADDAA199000091GF108991001001999999001041KA1120M+01431MD1410001+9999ME1315109REMSYN080AAXX  08151 38713 32980 80902 10057 21045 48510 54000 80004 333 10143 555 50058;EQDQ01  00002PRCP99
0131387130999992000032009004+39900+068980FM-12+100699999V0203401N002012200019N0100001N1+00891+00091999999ADDGA1001+999999999GF100991001001999999001001MD1210101+9999ME1315409REMSYN054AAXX  20091 38713 42997 03402 10089 20009 48540 52010;
0184387130999992000050615004+39900+068980FM-12+100699999V0200201N001019999999N0200001N1+01831+00821999999ADDAA199000091GF105991001001999999001011KA1120M+02241MD1610041+9999ME1315609REMSYN080AAXX  06151 38713 32998 50201 10183 20082 48560 56004 80001 333 10224 555 50153;EQDQ01  00002PRCP99
0174387130999992000051706004+39900+068980FM-12+100699999V0203401N002012200019N0200001N1+02571+00381999999ADDAA199000091GF102991011021012501001041KA1999N+01431MD1110021+9999ME1314909REMSYN070AAXX  17061 38713 32698 23402 10257 20038 48490 51002 81204 333 20143;EQDQ01  00002PRCP99
0215387130999992000052603004+39900+068980FM-12+100699999V0201401N001012200019N0500001N1+01951+00501999999ADDAA199000091GF101991011021008001001001GJ108289IA1019IA2999+01009MD1610021+9999ME1315009REMSYN098AAXX  26031 38713 32599 11401 10195 20050 48500 56002 81200 333 55138 555 20130 30010 52009 7000/;EQDQ01  00002PRCP99
0184387130999992000082606004+39900+068970FM-12+100699999V0203601N002012200019N0200001N1+03081+00671999999ADDAA199000091GA1001+999999999GF100991001001999999001001KA1999N+01741MD1210061+9999ME1315009REMSYN064AAXX  26061 38713 32998 03602 10308 20067 48500 52006 333 20174;EQDQ01  00002PRCP99
0195387130999992000090103004+39900+068970FM-12+100699999V0201401N001012200019N0200001N1+01921+00641999999ADDAA199000091GA1001+999999999GF100991001001999999001001GJ107869MD1610051+9999ME1314509REMSYN080AAXX  01031 38713 32998 01401 10192 20064 48450 56005 333 55131 555 20148 7000/;EQDQ01  00002PRCP99
0209387130999992000091303004+39900+068970FM-12+100699999V0201401N002012200019N0200001N1+01741+00381999999ADDAA199000091GA1001+999999999GF100991001001999999001001GJ105889MD1610041+9999ME1315009REMSYN094AAXX  13031 38713 32998 01402 10174 20038 48500 56004 333 55098 555 22014 430011 522009 7000/;EQDQ01  00002PRCP99
0174387130999992000121606004+39900+068970FM-12+100699999V0201401N001019999999N0500001N1+00531-00151999999ADDAA199000091GF107991071001999999031001KA1999N+00061MD1610201+9999ME1314309REMSYN070AAXX  16061 38713 32999 71401 10053 21015 48430 56020 87030 333 20006;EQDQ01  00002PRCP99
0153387500999992000012100004+37470+053970FM-12-002399999V0203101N002012200019N0100001N1+00221+00121100161ADDGA1001+999999999GF100991001001999999001001MA1999999100451MD1010071+9999REMSYN070AAXX  21001 38750 42997 03102 10022 20012 30045 40016 50007 555 10101;
0175387500999992000021706004+37470+053970FM-12-002399999V0200101N002012200019N0100001N1+00911+00651101671ADDAA199000091GA1001+999999999GF100991001001999999001001KA1999N+00501MD1210141+9999REMSYN064AAXX  17061 38750 32997 00102 10091 20065 40167 52014 333 20050;EQDQ01  00002PRCP99
0165387500999992000022018004+37470+053970FM-12-002399999V0202701N005010075019N0100001N1+01081+00801101451ADDAA199000091GF108991081051008001999999KA1999M+01341MD1310281+9999REMSYN070AAXX  20181 38750 32597 82705 10108 20080 40145 53028 885// 333 10134;EQDQ01  00002PRCP99
0143387500999992000022912004+37470+053970FM-12-002399999V0202701N002010075019N0100001N1+00931+00481103331ADDGF106991061051008001001001MA1999999103621MD1710131+9999REMSYN076AAXX  29121 38750 42597 62702 10093 20048 30362 40333 57013 86500 555 10015;
0143387500999992000030812004+37470+053970FM-12-002399999V0202901N003012200019N0100001N1+01231+00621101681ADDGF103991031011008001001001MA1999999101961MD1810251+9999REMSYN076AAXX  08121 38750 42597 32903 10123 20062 30196 40168 58025 83100 555 10022;
0216387500999992000031203004+37470+053970FM-12-002399999V0202901N003010075019N0100001N1+00641+00461101762ADDAA199000091GF108991081051008001999999GJ106609IA1019IA2999+00409MD1310611+9999REMSYN092AAXX  12031 38750 32597 82903 10064 20046 40176 53061 885// 333 55110 555 20061 30004 7000/;EQDQ01+101763APOSLPQ02  00002PRCP99
0143387500999992000040312004+37470+053970FM-12-002399999V0202701N004019999999N0100001N1+02441+00641101681ADDGF105991001001999999001011MA1999999101951MD1710181+9999REMSYN076AAXX  03121 38750 42997 52704 10244 20064 30195 40168 57018 80001 555 10040;
0143387500999992000041312004+37470+053970FM-12-002399999V0202701N004019999999N0100001N1+01911+01561101351ADDGF107991001001999999001011MA1999999101621MD1710031+9999REMSYN076AAXX  13121 38750 42997 72704 10191 20156 30162 40135 57003 80001 555 10031;
0112387500999992000041609004+37470+053970FM-12-002399999V0202101N003019999999N0100001N1+01851+01281101441ADDGF105991001001999999001011MD1810051+9999REMSYN060AAXX  16091 38750 42997 52103 10185 20128 40144 58005 80001;
0153387500999992000050212004+37470+053970FM-12-002399999V0202801N004012200019N0100001N1+02581+00891101351ADDGA1001+999999999GF100991001001999999001001MA1999999101621MD1410001+9999REMSYN070AAXX  02121 38750 42997 02804 10258 20089 30162 40135 54000 555 10053;
0153387500999992000053112004+37470+053970FM-12-002399999V0202901N004012200019N0100001N1+02551+01701100621ADDGA1001+999999999GF100991001001999999001001MA1999999100981MD1710101+9999REMSYN070AAXX  31121 38750 42997 02904 10255 20170 30098 40062 57010 555 10047;
0165387500999992000070415004+37460+053960FM-12-002399999V0202501N006019999999N0100001N1+02581+01931101161ADDAA199000091GF106991001001999999001011KA1999M+02721MD1810081+9999REMSYN070AAXX  04151 38750 32997 62506 10258 20193 40116 58008 80001 333 10272;EQDQ01  00002PRCP99
0153387500999992000071512004+37460+053960FM-12-002399999V0203001N007012200019N0100001N1+03001+02071100791ADDGA1001+999999999GF100991001001999999001001MA1999999101051MD1410001+9999REMSYN070AAXX  15121 38750 42997 03007 10300 20207 30105 40079 54000 555 10050;
0181387500999992000080715004+37460+053960FM-12-002399999V0202701N999990075019N0100001N1+02941+02271101121ADDAA199000091GF108991081051008001999999KA1999M+03251MD1310041+9999REMSYN070AAXX  07151 38750 32597 87706 10294 20227 40112 53004 885// 333 10325;EQDQ01+010601WOSPD Q02  00002PRCP99
0165387500999992000082315004+37460+053960FM-12-002399999V0202901N004012200019N0100001N1+02981+02311101181ADDAA199000091GF102991021001999999031001KA1999M+03261MD1710101+9999REMSYN070AAXX  23151 38750 32997 22904 10298 20231 40118 57010 82030 333 10326;EQDQ01  00002PRCP99
0165387500999992000090215004+37460+053960FM-12-002399999V0203201N006010075019N0100001N1+02671+01871100811ADDAA199000091GF105991051011008001001001KA1999M+02881MD1310051+9999REMSYN070AAXX  02151 38750 32597 53206 10267 20187 40081 53005 85100 333 10288;EQDQ01  00002PRCP99
0143387500999992000090500004+37460+053960FM-12-002399999V0203001N002019999999N0100001N1+02501+01381100911ADDGF105991051001999999031001MA1999999101181MD1210011+9999REMSYN076AAXX  05001 38750 42997 53002 10250 20138 30118 40091 52001 85030 555 10021;
0175387500999992000100715004+37460+053960FM-12-002399999V0200201N003012200019N0100001N1+02231+00461102191ADDAA199000091GA1001+999999999GF100991001001999999001001KA1999M+02701MD1410001+9999REMSYN064AAXX  07151 38750 32997 00203 10223 20046 40219 54000 333 10270;EQDQ01  00002PRCP99
0165387500999992000111015004+37460+053960FM-12-002399999V0200901N001010075019N0100001N1+00761+00481102921ADDAA199000091GF106991061051008001001001KA1999M+00921MD1710081+9999REMSYN070AAXX  10151 38750 32597 60901 10076 20048 40292 57008 86500 333 10092;EQDQ01  00002PRCP99
0182387500999992000120115004+37460+053960FM-12-002399999V0203601N003010075019N0040001N1+01131+00951101991ADDAY161031AY261031GF108991999071008001021999KA1999M+01381MD1310031+9999MW1611REMSYN076AAXX  01151 38750 11596 83603 10113 20095 40199 53003 76166 8872/ 333 10138;EQDQ01+000082SCOTLC
0143387500999992000121912004+37460+053960FM-12-002399999V0203601N002010075019N0100001N1+01131+00981101201ADDGF105991051011008001001001MA1999999101481MD1710111+9999REMSYN076AAXX  19121 38750 42597 53602 10113 20098 30148 40120 57011 85100 555 10012;
0122387500999992000122021004+37460+053960FM-12-002399999V0203601N002012200019N0100001N1+00631+00521101421ADDGA1001+999999999GF100991001001999999001001MD1810051+9999REMSYN054AAXX  20211 38750 42997 03602 10063 20052 40142 58005;
0153387630999992000020300004+38980+056280FM-12+009799999V0209999C000012200019N0100001N1+00161+00021102431ADDGA1001+999999999GF100991001001999999001001MA1999999101351MD1210061+9999REMSYN070AAXX  03001 38763 42997 00000 10016 20002 30135 40243 52006 555 11000;
0112387630999992000020321004+38980+056280FM-12+009799999V0209999C000012200019N0100001N1+00061-00051102281ADDGF102991001001999999001071MD1710161+9999REMSYN060AAXX  03211 38763 42997 20000 10006 21005 40228 57016 80007;
0187387630999992000021815004+38980+056280FM-12+009799999V0203401N002010090019N0100001N1+00871+00531102221ADDAA199000091GA1071+009009099GF107991071091008001001001KA1120M+01051MD1210071+9999REMSYN076AAXX  18151 38763 32597 73402 10087 20053 40222 52007 87900 333 10105 87930;EQDQ01  00002PRCP99
0165387630999992000032218004+38980+056280FM-12+009799999V0209999C000019999999N0100001N1+01611+00651100871ADDAA199000091GF105991001001999999001021KA1999M+02441MD1710111+9999REMSYN070AAXX  22181 38763 32997 50000 10161 20065 40087 57011 80002 333 10244;EQDQ01  00002PRCP99
0112387630999992000032709004+38980+056280FM-12+009799999V0200901N010012200019N0200001N1+01181+00271102911ADDGF101991011011008001001001MD1710301+9999REMSYN060AAXX  27091 38763 42598 10910 10118 20027 40291 57030 81100;
0200387630999992000040603004+38980+056280FM-12+009799999V0202301N002012200019N0200001N1+01201+00531101261ADDAA199000091GF102991001001999999001041GJ105409IA1019IA2999+00909MD1710021+9999REMSYN092AAXX  06031 38763 32998 22302 10120 20053 40126 57002 80004 333 55090 555 20093 30009 7000/;EQDQ01  00002PRCP99
0132387630999992000040909004+38980+056280FM-12+009799999V0200901N002010090019N0200001N1+02961+01171100741ADDGA1071+009009019GF107991999999022501999999MD1810151+9999REMSYN064AAXX  09091 38763 42898 70902 10296 20117 40074 58015 333 87030;
0168387630999992000051715004+38980+056280FM-12+009799999V0203601N002010102019N0500001N1+02591+01441100941ADDAA199000091GA1071+010209029GF107991071021008001001001MD1310021+9999REMSYN070AAXX  17151 38763 32599 73602 10259 20144 40094 53002 87200 333 87834;EQDQ01  00002PRCP99
0215387630999992000051918004+38980+056280FM-12+009799999V02099999999990099019N0100001N1+02351+01511100701ADDAA199000091AY121061AY221061GA1061+009909029GF106991061021008001071001KA1120M+02961MD1810181+9999MW1131REMSYN082AAXX  19181 38763 31597 68904 10235 20151 40070 58018 71322 86270 333 10296 86833;EQDQ01  00002PRCP99
0138387630999992000052500004+38980+056280FM-12+009799999V0200901N002012200019N0100001N1+01981+00321100941ADDGA1001+999999999GF100991001001999999001001MD1710011+9999REMSYN070AAXX  25001 38763 42997 00902 10198 20032 3//// 40094 57001 555 10015;
0171387630999992000052615004+38980+056280FM-12+009799999V0200901N008010900019N0200001N1+03501+00581100091ADDAA199000091GF108991031001022501081081KA1120M+03801MD1710081+9999REMSYN076AAXX  26151 38763 32898 80908 10350 20058 40009 57008 83088 333 10380 91118;EQDQ01  00002PRCP99
0175387630999992000053006004+38980+056280FM-12+009799999V0202501N004012200019N0200001N1+02721+01601100981ADDAA199000091GA1001+999999999GF100991001001999999001001KA1999N+02131MD1210051+9999REMSYN064AAXX  30061 38763 32998 02504 10272 20160 40098 52005 333 20213;EQDQ01  00002PRCP99
0203387630999992000061418004+38980+056280FM-12+009799999V0202701N002012200019N0100001N1+01891+00801101281ADDAA199000091AY131061AY201061GA1001+999999999GF100991001001999999001001KA1999M+03101MD1210351+9999MW1021REMSYN070AAXX  14181 38763 31997 02702 10189 20080 40128 52035 70230 333 10310;EQDQ01  00002PRCP99
0175387630999992000062015004+38980+056280FM-12+009799999V0200501N004012200019N0500001N1+03801+00501100411ADDAA199000091GA1001+999999999GF100991001001999999001001KA1999M+03961MD1710061+9999REMSYN064AAXX  20151 38763 32999 00504 10380 20050 40041 57006 333 10396;EQDQ01  00002PRCP99
0165387630999992000062618004+38980+056280FM-12+009799999V0202901N008012200019N0100001N1+02781+01201100561ADDAA199000091GF101991011011008001001001KA1999M+03561MD1210231+9999REMSYN070AAXX  26181 38763 32597 12908 10278 20120 40056 52023 81100 333 10356;EQDQ01  00002PRCP99
0112387630999992000082109004+38980+056280FM-12+009799999V0200901N006012200019N0500001N1+03751+00951101061ADDGF102991001001999999001041MD1810111+9999REMSYN060AAXX  21091 38763 42999 20906 10375 20095 40106 58011 80004;
0165387630999992000082218004+38980+056280FM-12+009799999V0202701N004012200019N0100001N1+02981+01681101151ADDAA199000091GF101991011021008001001001KA1999M+03951MD1210111+9999REMSYN070AAXX  22181 38763 32597 12704 10298 20168 40115 52011 81200 333 10395;EQDQ01  00002PRCP99
0175387630999992000082718004+38980+056280FM-12+009799999V0202701N002012200019N0100001N1+03301+01811100361ADDAA199000091GA1001+999999999GF100991001001999999001001KA1999M+04271MD1310031+9999REMSYN064AAXX  27181 38763 32997 02702 10330 20181 40036 53003 333 10427;EQDQ01  00002PRCP99
0165387630999992000091418004+38980+056280FM-12+009799999V0209999C000010075019N0100001N1+02981+01031101291ADDAA199000091GF106991061021008001001001KA1999M+03361MD1210031+9999REMSYN070AAXX  14181 38763 32597 60000 10298 20103 40129 52003 86200 333 10336;EQDQ01  00002PRCP99
0169387630999992000091500004+38980+056280FM-12+009799999V0200901N002010090019N0100001N1+02611+00581101321ADDGA1071+009009089GF107991071021008001001001MA1999999100341MD1210011+9999REMSYN086AAXX  15001 38763 42597 70902 10261 20058 30034 40132 52001 87200 333 87830 555 10024;
0175387630999992000092118004+38980+056280FM-12+009799999V0200901N006012200019N0100001N1+02361+00061101271ADDAA199000091GA1001+999999999GF100991001001999999001001KA1999M+02901MD1310051+9999REMSYN064AAXX  21181 38763 32997 00906 10236 20006 40127 53005 333 10290;EQDQ01  00002PRCP99
0143387630999992000092212004+38980+056280FM-12+009799999V0200901N006012200019N0200001N1+03051+00451101111ADDGF103991031021008001001001MA1999999100141MD1710141+9999REMSYN076AAXX  22121 38763 42598 30906 10305 20045 30014 40111 57014 83200 555 10039;
0197387630999992000100112004+38980+056280FM-12+009799999V0200901N004010090019N0500001N1+01731+00231101821ADDAY181061AY221061GA1061+009009099GF107991061031008001041031MA1999999100811MD1410001+9999MW1011REMSYN092AAXX  01121 38763 41599 70904 10173 20023 30081 40182 54000 70182 86343 333 86930 555 10024;
0175387630999992000112215004+38980+056280FM-12+009799999V0209999C000012200019N0100001N1+00761-00191102111ADDAA199000091GA1001+999999999GF100991001001999999001001KA1999M+01121MD1310091+9999REMSYN064AAXX  22151 38763 32997 00000 10076 21019 40211 53009 333 10112;EQDQ01  00002PRCP99
0175387630999992000112415004+38980+056280FM-12+009799999V0200901N004012200019N0100001N1+00901-00221102361ADDAA199000091GA1001+999999999GF100991001001999999001001KA1999M+01261MD1310041+9999REMSYN064AAXX  24151 38763 32997 00904 10090 21022 40236 53004 333 10126;EQDQ01  00002PRCP99
0143387630999992000120100004+38980+056280FM-12+009799999V0200901N002012200019N0100001N1+00301-00021101751ADDGF103991001001999999001011MA1999999100681MD1710141+9999REMSYN076AAXX  01001 38763 42997 30902 10030 21002 30068 40175 57014 80001 555 10002;
0209387630999992000122303004+38980+056280FM-12+009799999V0200901N002010069019N0100001N1+00381+00311102561ADDAA112000791GA1081+006909069GF108991081051008001999999GJ101989IA1099IA2999+00409MD1410001+9999REMSYN104AAXX  23031 38763 12597 80902 10038 20031 40256 54000 69902 885// 333 55033 88623 555 20036 31004 7990/;
0138387630999992000122321004+38980+056280FM-12+009799999V0200901N006010051019N0100001N1+00581+00421102281ADDGA1081+005109059GF108991081051004501999999MD1710101+9999REMSYN070AAXX  23211 38763 42497 80906 10058 20042 40228 57010 885// 333 88617;
0175387730999992000102718004+38840+058400FM-12+008799999V0209999C000012200019N9999999N1+01641+00931102271ADDAA199000091GA1001+999999999GF100991001001999999001001KA1999M+02501MD1210191+9999REMSYN064AAXX  27184 38773 329// 00000 10164 20093 40227 52019 333 10250;EQDQ01  00002PRCP99
0165387740999992000021615004+38430+057420FM-12+016199999V0200901N001010210019N9999999N1+00731+00481102131ADDAA199000091GF107991071001022501071001KA1999M+01051MD1710081+9999REMSYN070AAXX  16151 38774 328// 70901 10073 20048 40213 57008 87070 333 10105;EQDQ01  00002PRCP99
0165387740999992000021918004+38430+057420FM-12+016199999V0201001N004012200019N9999999N1+00731+00301102271ADDAA199000091GF102991001001999999001011KA1999M+01081MD1710171+9999REMSYN070AAXX  19181 38774 329// 21004 10073 20030 40227 57017 80001 333 10108;EQDQ01  00002PRCP99
0165387740999992000032315004+38430+057420FM-12+016199999V0209999C000010210019N9999999N1+01421+00771101361ADDAA199000091GF107991071001022501071001KA1999M+01901MD1310171+9999REMSYN070AAXX  23151 38774 328// 70000 10142 20077 40136 53017 87070 333 10190;EQDQ01  00002PRCP99
0181387740999992000040406004+38430+057420FM-12+016199999V0200901N001019999999N0200001N1+01821-00461102011ADDAA199000091GF106991001001999999001081KA1999N+00991MD1210081+9999REMSYN070AAXX  04061 38774 3/298 60901 10182 21046 40201 52008 80008 333 20099;EQDQ01+001502SCOLCBQ02  00002PRCP99
0143387740999992000040912004+38430+057420FM-12+016199999V0209999C000019999999N0200001N1+03381+01021100571ADDGF105991001001999999001081MA1999999098811MD1710291+9999REMSYN076AAXX  09121 38774 42998 50000 10338 20102 39881 40057 57029 80008 555 10051;
0143387740999992000041112004+38430+057420FM-12+016199999V0203101N001010210019N0200001N1+02101+01141101521ADDGF105991051001022501071001MA1999999099671MD1310011+9999REMSYN076AAXX  11121 38774 42898 53101 10210 20114 39967 40152 53001 85070 555 10042;
0165387740999992000041806004+38430+057420FM-12+016199999V0209999C000010210019N0200001N1+01941+01101101761ADDAA199000091GF108991081001022501071999KA1999N+01781MD1210071+9999REMSYN070AAXX  18061 38774 32898 80000 10194 20110 40176 52007 8807/ 333 20178;EQDQ01  00002PRCP99
0131387740999992000050109004+38430+057420FM-12+016199999V0209999C000010210019N0200001N1+02411+01331999999ADDGF108991051001022501071051MD1810011+9999REMSYN060AAXX  01091 38774 42898 80000 10241 20133 40222 58001 85075;EQDQ01+102223APOSLP
0122387740999992000051221004+38430+057420FM-12+016199999V0209999C000012200019N9999999N1+02021+00511101481ADDGA1001+999999999GF100991001001999999001001MD1710081+9999REMSYN054AAXX  12211 38774 429// 00000 10202 20051 40148 57008;
0175387740999992000052415004+38430+057420FM-12+016199999V0209999C000012200019N0200001N1+03201+01251100991ADDAA199000091GA1001+999999999GF100991001001999999001001KA1999M+03501MD1710081+9999REMSYN064AAXX  24151 38774 32998 00000 10320 20125 40099 57008 333 10350;EQDQ01  00002PRCP99
0122387740999992000052521004+38430+057420FM-12+016199999V0201101N001012200019N9999999N1+02521+00241100981ADDGA1001+999999999GF100991001001999999001001MD1810021+9999REMSYN054AAXX  25211 38774 429// 01101 10252 20024 40098 58002;
0143387740999992000070300004+38420+057420FM-12+016199999V0209999C000012200019N9999999N1+02601+00981101091ADDGF102991021001022501041001MA1999999099271MD1210041+9999REMSYN076AAXX  03001 38774 428// 20000 10260 20098 39927 40109 52004 82040 555 10023;
0112387740999992000071221004+38420+057420FM-12+016199999V0209999C000012200019N9999999N1+02981+99999100791ADDGF102991021001022501031001MD1210121+9999REMSYN060AAXX  12211 38774 428// 20000 10298 20656 40079 52012 82030;
0122387740999992000080321004+38420+057420FM-12+016199999V0209999C000012200019N9999999N1+02841+01361100111ADDGA1001+999999999GF100991001001999999001001MD1810121+9999REMSYN054AAXX  03211 38774 429// 00000 10284 20136 40011 58012;
0165387740999992000081606004+38420+057420FM-12+016199999V0201901N002010210019N0200001N1+03361+01541100831ADDAA199000091GF106991061001022501071001KA1999N+02901MD1810051+9999REMSYN070AAXX  16061 38774 32898 61902 10336 20154 40083 58005 86070 333 20290;EQDQ01  00002PRCP99
0192387740999992000090200004+38420+057420FM-12+016199999V0202101N008010360019N9999999N1+02281+00801101031ADDAY131061AY211061GF106991031091012501071001MA1999999099201MD1210471+9999MW1131OA149901801REMSYN092AAXX  02001 38774 426// 62108 10228 20080 39920 40103 52047 71331 83970 333 91118 555 10024;
