0197725484999992000012205454+42780-096200FM-15+0365KLRJ V0201401N006210270019N0160931N1-00501-00801999999ADDGD12991+0210019GD22991+0240019GD34991+0270019GF108991999999999999999999MA1100881999999MW1001REMMET074KLRJ 220545Z AUTO 14012KT 10SM SCT070 SCT080 OVC090 M05/M08 A2979 RMK AO1;EQDQ01+000000PRSWM2
0135725484999992000012417454+42780-096200FM-15+0365KLRJ V0202201N002612200019N0160931N1-00401-00801999999ADDGF100991999999999999999999MA1101521999999MW1001REMMET057KLRJ 241745Z AUTO 22005KT 10SM CLR M04/M08 A2998 RMK AO1;EQDQ01+000000PRSWM2
0071725484999992000012518009+42783-096200NSRDB+036599999V020999999999999999999999999999+99999+99999999999ADDGP10060042702009051602021019802009GQ100600638916239GR100600624914119
0054725484999992000012802009+42783-096200NSRDB+036599999V020999999999999999999999999999+99999+99999999999ADDGP10060000002000000002000000002000GR100600000900009
0054725484999992000020211009+42783-096200NSRDB+036599999V020999999999999999999999999999+99999+99999999999ADDGP10060000002000000002000000002000GR100600000900009
0054725484999992000020803009+42783-096200NSRDB+036599999V020999999999999999999999999999+99999+99999999999ADDGP10060000002000000002000000002000GR100600000900009
0071725484999992000021617009+42783-096200NSRDB+036599999V020999999999999999999999999999+99999+99999999999ADDGP10060049302009088702021008402009GQ100600626914429GR100600643914019
0135725484999992000021913454+42780-096200FM-15+0365KLRJ V0201901N003112200019N0160931N1-00801-01101999999ADDGF100991999999999999999999MA1102341999999MW1001REMMET057KLRJ 191345Z AUTO 19006KT 10SM CLR M08/M11 A3022 RMK AO1;EQDQ01+000000PRSWM2
0145725484999992000021920454+42780-096200FM-15+0365KLRJ V0202701N005112200019N0160931N1+00501-00101999999ADDGF100991999999999999999999MA1102241999999MW1001OC100771REMMET059KLRJ 192045Z AUTO 27010G15KT 10SM CLR 05/M01 A3019 RMK AO1;EQDQ01+000000PRSWM2
0054725484999992000022012009+42783-096200NSRDB+036599999V020999999999999999999999999999+99999+99999999999ADDGP10060000002000000002000000002000GR100600000900009
0054725484999992000022112009+42783-096200NSRDB+036599999V020999999999999999999999999999+99999+99999999999ADDGP10060000002000000002000000002000GR100600000900009
0054725484999992000022210009+42783-096200NSRDB+036599999V020999999999999999999999999999+99999+99999999999ADDGP10060000002000000002000000002000GR100600000900009
0071725484999992000022222009+42783-096200NSRDB+036599999V020999999999999999999999999999+99999+99999999999ADDGP10060016902009001802021016202009GQ100600659922729GR100600570913989
0173725484999992000022419454+42780-096200FM-15+0365KLRJ V0201801N001510060019N0160931N1+01201+01001999999ADDGD12991+0039019GD24991+0060019GF108991999999999999999999MA1100951999999MW1001REMMET065KLRJ 241945Z AUTO 18003KT 10SM SCT013 OVC020 12/10 A2981 RMK AO1;EQDQ01+000000PRSWM2
0132725484999992000022506454+42780-096200FM-15+0365KLRJ V0201201N005712200019N0080461N1+01101+00901999999ADDGF100991999999999999999999MA1100541999999MW1001REMMET054KLRJ 250645Z AUTO 12011KT 5SM CLR 11/09 A2969 RMK AO1;EQDQ01+000000PRSWM2
0145725484999992000030115454+42780-096200FM-15+0365KLRJ V0203201N006712200019N0160931N1+00501-00101999999ADDGF100991999999999999999999MA1102401999999MW1001OC100871REMMET059KLRJ 011545Z AUTO 32013G17KT 10SM CLR 05/M01 A3024 RMK AO1;EQDQ01+000000PRSWM2
0135725484999992000030306454+42780-096200FM-15+0365KLRJ V0209999C000012200019N0160931N1-00301-00601999999ADDGF100991999999999999999999MA1102171999999MW1001REMMET057KLRJ 030645Z AUTO 00000KT 10SM CLR M03/M06 A3017 RMK AO1;EQDQ01+000000PRSWM2
0134725484999992000030405454+42780-096200FM-15+0365KLRJ V0201901N002112200019N0160931N1+00301-00201999999ADDGF100991999999999999999999MA1101491999999MW1001REMMET056KLRJ 040545Z AUTO 19004KT 10SM CLR 03/M02 A2997 RMK AO1;EQDQ01+000000PRSWM2
0134725484999992000031115454+42780-096200FM-15+0365KLRJ V0202901N002612200019N0160931N1+00001-00601999999ADDGF100991999999999999999999MA1102611999999MW1001REMMET056KLRJ 111545Z AUTO 29005KT 10SM CLR 00/M06 A3030 RMK AO1;EQDQ01+000000PRSWM2
0071725484999992000031122009+42783-096200NSRDB+036599999V020999999999999999999999999999+99999+99999999999ADDGP10060048602009080702021009102009GQ100600608923239GR100600676913859
0054725484999992000031608009+42783-096200NSRDB+036599999V020999999999999999999999999999+99999+99999999999ADDGP10060000002000000002000000002000GR100600000900009
0175725484999992000031908454+42780-096200FM-15+0365KLRJ V0200401N001510009019N0028161N1+00101-00101999999ADDGD14991+0009019GF108991999999999999999999MA1101831999999MW1001REMMET082KLRJ 190845Z AUTO 04003KT 1 3/4SM OVC003 01/M01 A3007 RMK AO1 PARTIAL OBSCURATION;EQDQ01+000000PRSWM2
0071725484999992000032117009+42783-096200NSRDB+036599999V020999999999999999999999999999+99999+99999999999ADDGP10060017102008000002015017102008GQ100600504913899GR100600878913779
0150725484999992000032201454+42780-096200FM-15+0365KLRJ V0209999C000010270019N0112651N1+00701+00401999999ADDGD14991+0270019GF108991999999999999999999MA1102611999999MW1001REMMET057KLRJ 220145Z AUTO 00000KT 7SM OVC090 07/04 A3030 RMK AO1;EQDQ01+000000PRSWM2
0054725484999992000032704009+42783-096200NSRDB+036599999V020999999999999999999999999999+99999+99999999999ADDGP10060000002000000002000000002000GR100600000900009
0054725484999992000032709009+42783-096200NSRDB+036599999V020999999999999999999999999999+99999+99999999999ADDGP10060000002000000002000000002000GR100600000900009
0135725484999992000032910454+42780-096200FM-15+0365KLRJ V0203601N000512200019N0160931N1-00501-00801999999ADDGF100991999999999999999999MA1101291999999MW1001REMMET057KLRJ 291045Z AUTO 36001KT 10SM CLR M05/M08 A2991 RMK AO1;EQDQ01+000000PRSWM2
0071725484999992000032917009+42783-096200NSRDB+036599999V020999999999999999999999999999+99999+99999999999ADDGP10060070402008083002015014102008GQ100600473913769GR100600928913719
0134725484999992000032923454+42780-096200FM-15+0365KLRJ V0201301N001512200019N0160931N1+01701-00601999999ADDGF100991999999999999999999MA1101321999999MW1001REMMET056KLRJ 292345Z AUTO 13003KT 10SM CLR 17/M06 A2992 RMK AO1;EQDQ01+000000PRSWM2
0054725484999992000033106009+42783-096200NSRDB+036599999V020999999999999999999999999999+99999+99999999999ADDGP10060000002000000002000000002000GR100600000900009
0151725484999992000040116454+42780-096200FM-15+0365KLRJ V0202401N004110270019N0160931N1+01501+00201999999ADDGD13991+0270019GF107991999999999999999999MA1101901999999MW1001REMMET058KLRJ 011645Z AUTO 24008KT 10SM BKN090 15/02 A3009 RMK AO1;EQDQ01+000000PRSWM2
0054725484999992000040211009+42783-096200NSRDB+036599999V020999999999999999999999999999+99999+99999999999ADDGP10060000002000000002000000002000GR100600000900009
0184725484999992000040306454+42780-096200FM-15+0365KLRJ V0203301N010810102019N0160931N1+00701+00101999999ADDGD12991+0078019GD24991+0102019GF108991999999999999999999MA1101051999999MW1001OC101391REMMET068KLRJ 030645Z AUTO 33021G27KT 10SM SCT026 OVC034 07/01 A2984 RMK AO1;EQDQ01+000000PRSWM2
0071725484999992000040421009+42783-096200NSRDB+036599999V020999999999999999999999999999+99999+99999999999ADDGP10060072102008085802015012102008GQ100600457922499GR100600954913669
0145725484999992000040600454+42780-096200FM-15+0365KLRJ V0203201N007712200019N0160931N1+01701-00301999999ADDGF100991999999999999999999MA1100541999999MW1001OC101231REMMET059KLRJ 060045Z AUTO 32015G24KT 10SM CLR 17/M03 A2969 RMK AO1;EQDQ01+000000PRSWM2
0134725484999992000040613454+42780-096200FM-15+0365KLRJ V0203101N003112200019N0160931N1+00301-00201999999ADDGF100991999999999999999999MA1101421999999MW1001REMMET056KLRJ 061345Z AUTO 31006KT 10SM CLR 03/M02 A2995 RMK AO1;EQDQ01+000000PRSWM2
0071725484999992000040713009+42783-096200NSRDB+036599999V020999999999999999999999999999+99999+99999999999ADDGP10060000002008000002015000002008GQ100600844908539GR100600132913639
0145725484999992000040801454+42780-096200FM-15+0365KLRJ V0203201N005112200019N0160931N1+00201-00301999999ADDGF100991999999999999999999MA1102541999999MW1001OC100771REMMET059KLRJ 080145Z AUTO 32010G15KT 10SM CLR 02/M03 A3028 RMK AO1;EQDQ01+000000PRSWM2
0054725484999992000040802009+42783-096200NSRDB+036599999V020999999999999999999999999999+99999+99999999999ADDGP10060000002000000002000000002000GR100600000900009
0054725484999992000041706009+42783-096200NSRDB+036599999V020999999999999999999999999999+99999+99999999999ADDGP10060000002000000002000000002000GR100600000900009
0071725484999992000042520009+42783-096200NSRDB+036599999V020999999999999999999999999999+99999+99999999999ADDGP10060089702008075402015026202008GQ100600329921119GR100601133913499
0162725484999992000042620454+42780-096200FM-15+0365KLRJ V0202001N007212200019N0160931N1+02001+00901999999ADDGD12991+0270019GF104991999999999999999999MA1101661999999MW1001OC100871REMMET061KLRJ 262045Z AUTO 20014G17KT 10SM SCT090 20/09 A3002 RMK AO1;EQDQ01+000000PRSWM2
0133725484999992000050202454+42780-096200FM-15+0365KLRJ V0203601N001012200019N0160931N1+01701+00201999999ADDGF100991999999999999999999MA1101591999999MW1001REMMET055KLRJ 020245Z AUTO 36002KT 10SM CLR 17/02 A3000 RMK AO1;EQDQ01+000000PRSWM2
0054725484999992000050203009+42783-096200NSRDB+036599999V020999999999999999999999999999+99999+99999999999ADDGP10060000002000000002000000002000GR100600000900009
0054725484999992000050411009+42783-096200NSRDB+036599999V020999999999999999999999999999+99999+99999999999ADDGP10060000002000000002000000002000GR100600000900009
0071725484999992000050601009+42783-096200NSRDB+036599999V020999999999999999999999999999+99999+99999999999ADDGP10060011202008039502015004502008GQ100600803928379GR100600227913429
0071725484999992000051021009+42783-096200NSRDB+036599999V020999999999999999999999999999+99999+99999999999ADDGP10060077102008072802015018902008GQ100600370923739GR100601069913399
0071725484999992000051322009+42783-096200NSRDB+036599999V020999999999999999999999999999+99999+99999999999ADDGP10060068102008079002015013602008GQ100600464925369GR100600920913379
0054725484999992000051509009+42783-096200NSRDB+036599999V020999999999999999999999999999+99999+99999999999ADDGP10060000002000000002000000002000GR100600000900009
0071725484999992000051520009+42783-096200NSRDB+036599999V020999999999999999999999999999+99999+99999999999ADDGP10060023602008000602015023102008GQ100600280921649GR100601180913369
0162725484999992000051701454+42780-096200FM-15+0365KLRJ V0200801N005112200019N0160931N1+02301+01501999999ADDGD12991+0360019GF104991999999999999999999MA1100781999999MW1001OC100771REMMET061KLRJ 170145Z AUTO 08010G15KT 10SM SCT120 23/15 A2976 RMK AO1;EQDQ01+000000PRSWM2
0071725484999992000051702009+42783-096200NSRDB+036599999V020999999999999999999999999999+99999+99999999999ADDGP10060000102008000002015000102008GQ100600869929409GR100600048909029
0151725484999992000051709454+42780-096200FM-15+0365KLRJ V0201001N005710051019N0160931N1+01901+01601999999ADDGD14991+0051019GF108991999999999999999999MA1100471999999MW1001REMMET058KLRJ 170945Z AUTO 10011KT 10SM OVC017 19/16 A2967 RMK AO1;EQDQ01+000000PRSWM2
0195725484999992000051711454+42780-096200FM-15+0365KLRJ V0200901N004110039019N0160931N1+01801+01601999999ADDGD13991+0039019GD23991+0063019GD34991+0210019GF108991999999999999999999MA1100441999999MW1001REMMET072KLRJ 171145Z AUTO 09008KT 10SM BKN013 BKN021 OVC070 18/16 A2966 RMK AO1;EQDQ01+000000PRSWM2
0184725484999992000051806454+42780-096200FM-15+0365KLRJ V0200301N007210330019N0160931N1+01501+01301999999ADDGD12991+0270019GD23991+0330019GF107991999999999999999999MA1100071999999MW1001OC101131REMMET068KLRJ 180645Z AUTO 03014G22KT 10SM SCT090 BKN110 15/13 A2955 RMK AO1;EQDQ01+000000PRSWM2
0133725484999992000052118454+42780-096200FM-15+0365KLRJ V0203101N003612200019N0160931N1+02501+01001999999ADDGF100991999999999999999999MA1101151999999MW1001REMMET055KLRJ 211845Z AUTO 31007KT 10SM CLR 25/10 A2987 RMK AO1;EQDQ01+000000PRSWM2
0071725484999992000052512009+42783-096200NSRDB+036599999V020999999999999999999999999999+99999+99999999999ADDGP10060000002008000002015000002008GQ100600846906599GR100600126913319
0133725484999992000052513454+42780-096200FM-15+0365KLRJ V0203601N001012200019N0160931N1+01601+00701999999ADDGF100991999999999999999999MA1101521999999MW1001REMMET055KLRJ 251345Z AUTO 36002KT 10SM CLR 16/07 A2998 RMK AO1;EQDQ01+000000PRSWM2
0173725484999992000052606454+42780-096200FM-15+0365KLRJ V0201201N003610270019N0160931N1+01701+01101999999ADDGD12991+0240019GD24991+0270019GF108991999999999999999999MA1101051999999MW1001REMMET065KLRJ 260645Z AUTO 12007KT 10SM SCT080 OVC090 17/11 A2984 RMK AO1;EQDQ01+000000PRSWM2
0144725484999992000053003454+42780-096200FM-15+0365KLRJ V0200901N005712200019N0160931N1+02401+01801999999ADDGF100991999999999999999999MA1100681999999MW1001OC100771REMMET058KLRJ 300345Z AUTO 09011G15KT 10SM CLR 24/18 A2973 RMK AO1;EQDQ01+000000PRSWM2
0071725484999992000053021009+42783-096200NSRDB+036599999V020999999999999999999999999999+99999+99999999999ADDGP10060061602008028102015038302008GQ100600338924169GR100601103913299
0054725484999992000060304009+42783-096200NSRDB+036599999V020999999999999999999999999999+99999+99999999999ADDGP10060000002000000002000000002000GR100600000900009
0173725484999992000060410454+42780-096200FM-15+0365KLRJ V0200101N001510090019N0160931N1+01701+01501999999ADDGD13991+0090019GD24991+0129019GF108991999999999999999999MA1101421999999MW1001REMMET065KLRJ 041045Z AUTO 01003KT 10SM BKN030 OVC043 17/15 A2995 RMK AO1;EQDQ01+000000PRSWM2
0133725484999992000060615454+42780-096200FM-15+0365KLRJ V0202001N007212200019N0160931N1+02001+01201999999ADDGF100991999999999999999999MA1102441999999MW1001REMMET055KLRJ 061545Z AUTO 20014KT 10SM CLR 20/12 A3025 RMK AO1;EQDQ01+000000PRSWM2
0144725484999992000061002454+42780-096200FM-15+0365KLRJ V0201801N010312200019N0160931N1+02901+01801999999ADDGF100991999999999999999999MA1100201999999MW1001OC101391REMMET058KLRJ 100245Z AUTO 18020G27KT 10SM CLR 29/18 A2959 RMK AO1;EQDQ01+000000PRSWM2
0071725484999992000061313009+42783-096200NSRDB+036599999V020999999999999999999999999999+99999+99999999999ADDGP10060006902008000002015006902008GQ100600735907339GR100600376913249
0054725484999992000061506009+42783-096200NSRDB+036599999V020999999999999999999999999999+99999+99999999999ADDGP10060000002000000002000000002000GR100600000900009
0133725484999992000061610454+42780-096190FM-15+0365KLRJ V0202801N003112200019N0160931N1+01301+01001999999ADDGF100991999999999999999999MA1100511999999MW1001REMMET055KLRJ 161045Z AUTO 28006KT 10SM CLR 13/10 A2968 RMK AO1;EQDQ01+000000PRSWM2
0133725484999992000061623454+42780-096190FM-15+0365KLRJ V0203401N004112200019N0160931N1+01901+00801999999ADDGF100991999999999999999999MA1101321999999MW1001REMMET055KLRJ 162345Z AUTO 34008KT 10SM CLR 19/08 A2992 RMK AO1;EQDQ01+000000PRSWM2
0201725484999992000062113053+42780-096190FM-15+0365KLRJ V0202101N003112200019N0160931N1+01701+01001999999ADDGF100991999999999999999999GP10060022302008045502015009502008GQ100600737907299GR100600372913229MA1101051999999MW1001REMMET055KLRJ 211305Z AUTO 21006KT 10SM CLR 17/10 A2984 RMK AO1;EQDQ01+000000PRSWM2
0162725484999992000062404454+42780-096190FM-15+0365KLRJ V0201901N008210330019N0160931N1+02201+01801999999ADDGD13991+0330019GF107991999999999999999999MA1100911999999MW1001OC101231REMMET061KLRJ 240445Z AUTO 19016G24KT 10SM BKN110 22/18 A2980 RMK AO1;EQDQ01+000000PRSWM2
0071725484999992000062515009+42783-096200NSRDB+036599999V020999999999999999999999999999+99999+99999999999ADDGP10060009802008000002015009802008GQ100600522909209GR100600809913229
0071725484999992000062521009+42783-096200NSRDB+036599999V020999999999999999999999999999+99999+99999999999ADDGP10060013402008000002015013402008GQ100600319924199GR100601120913229
0173725484999992000062523454+42780-096190FM-15+0365KLRJ V0202401N002610090019N0160931N1+02101+01801999999ADDGD12991+0057019GD24991+0090019GF108991999999999999999999MA1101221999999MW1001REMMET065KLRJ 252345Z AUTO 24005KT 10SM SCT019 OVC030 21/18 A2989 RMK AO1;EQDQ01+000000PRSWM2
0071725484999992000063023009+42783-096200NSRDB+036599999V020999999999999999999999999999+99999+99999999999ADDGP10060055602008073802015011202008GQ100600531926849GR100600793913219
0054725484999992000070607009+42783-096200NSRDB+036599999V020999999999999999999999999999+99999+99999999999ADDGP10060000002000000002000000002000GR100600000900009
0054725484999992000070704009+42783-096200NSRDB+036599999V020999999999999999999999999999+99999+99999999999ADDGP10060000002000000002000000002000GR100600000900009
0133725484999992000071505454+42780-096190FM-15+0365KLRJ V0201001N004112200019N0160931N1+02501+01901999999ADDGF100991999999999999999999MA1101351999999MW1001REMMET055KLRJ 150545Z AUTO 10008KT 10SM CLR 25/19 A2993 RMK AO1;EQDQ01+000000PRSWM2
0054725484999992000071509009+42783-096200NSRDB+036599999V020999999999999999999999999999+99999+99999999999ADDGP10060000002000000002000000002000GR100600000900009
0071725484999992000071518009+42783-096200NSRDB+036599999V020999999999999999999999999999+99999+99999999999ADDGP10060090302008083602015014502008GQ100600251914509GR100601197913229
0071725484999992000071519009+42783-096200NSRDB+036599999V020999999999999999999999999999+99999+99999999999ADDGP10060093202008084602015014402008GQ100600217917959GR100601228913229
0162725484999992000071623454+42780-096190FM-15+0365KLRJ V0200101N007212200019N0160931N1+02601+02001999999ADDGD12991+0090019GF104991999999999999999999MA1101491999999MW1001OC101031REMMET061KLRJ 162345Z AUTO 01014G20KT 10SM SCT030 26/20 A2997 RMK AO1;EQDQ01+000000PRSWM2
0133725484999992000071702454+42780-096190FM-15+0365KLRJ V0200701N002112200019N0160931N1+02201+01501999999ADDGF100991999999999999999999MA1101631999999MW1001REMMET055KLRJ 170245Z AUTO 07004KT 10SM CLR 22/15 A3001 RMK AO1;EQDQ01+000000PRSWM2
0133725484999992000071716454+42780-096190FM-15+0365KLRJ V0200301N003112200019N0160931N1+02501+01501999999ADDGF100991999999999999999999MA1102001999999MW1001REMMET055KLRJ 171645Z AUTO 03006KT 10SM CLR 25/15 A3012 RMK AO1;EQDQ01+000000PRSWM2
0054725484999992000071904009+42783-096200NSRDB+036599999V020999999999999999999999999999+99999+99999999999ADDGP10060000002000000002000000002000GR100600000900009
0136725484999992000072010454+42780-096190FM-15+0365KLRJ V0203601N000512200019N0020111N1+01001+00801999999ADDMA1101761999999MW1001REMMET084KLRJ 201045Z AUTO 36001KT 1 1/4SM 10/08 A3005 RMK AO1 VIS 3/4V2 PARTIAL OBSCURATION;EQDQ01+000000PRSWM2
0151725484999992000072214454+42780-096190FM-15+0365KLRJ V0201601N002612200019N0160931N1+02001+01301999999ADDGD12991+0270019GF104991999999999999999999MA1102131999999MW1001REMMET058KLRJ 221445Z AUTO 16005KT 10SM SCT090 20/13 A3016 RMK AO1;EQDQ01+000000PRSWM2
0195725484999992000072223454+42780-096190FM-15+0365KLRJ V0201901N002110210019N0160931N1+02501+01501999999ADDGD12991+0150019GD22991+0150019GD33991+0210019GF107991999999999999999999MA1102001999999MW1001REMMET072KLRJ 222345Z AUTO 19004KT 10SM SCT050 SCT055 BKN070 25/15 A3012 RMK AO1;EQDQ01+000000PRSWM2
0162725484999992000072415454+42780-096190FM-15+0365KLRJ V0201701N009312200019N0160931N1+02301+01801999999ADDGD12991+0210019GF104991999999999999999999MA1101561999999MW1001OC101181REMMET061KLRJ 241545Z AUTO 17018G23KT 10SM SCT075 23/18 A2999 RMK AO1;EQDQ01+000000PRSWM2
0071725484999992000072423009+42783-096200NSRDB+036599999V020999999999999999999999999999+99999+99999999999ADDGP10060029302008008802015024202008GQ100600547926469GR100600763913249
0133725484999992000080221454+42780-096190FM-15+0365KLRJ V0200901N002112200019N0160931N1+02901+01301999999ADDGF100991999999999999999999MA1101421999999MW1001REMMET055KLRJ 022145Z AUTO 09004KT 10SM CLR 29/13 A2995 RMK AO1;EQDQ01+000000PRSWM2
0054725484999992000080406009+42783-096200NSRDB+036599999V020999999999999999999999999999+99999+99999999999ADDGP10060000002000000002000000002000GR100600000900009
0133725484999992000080709454+42780-096190FM-15+0365KLRJ V0201801N001512200019N0160931N1+01701+01501999999ADDGF100991999999999999999999MA1101121999999MW1001REMMET055KLRJ 070945Z AUTO 18003KT 10SM CLR 17/15 A2986 RMK AO1;EQDQ01+000000PRSWM2
0071725484999992000080712009+42783-096200NSRDB+036599999V020999999999999999999999999999+99999+99999999999ADDGP10060000102008000202015000102008GQ100600872907009GR100600038907869
0071725484999992000081322009+42783-096200NSRDB+036599999V020999999999999999999999999999+99999+99999999999ADDGP10060050402008030902015029702008GQ100600479924759GR100600891913319
0144725484999992000081417454+42780-096190FM-15+0365KLRJ V0201901N008212200019N0160931N1+03001+02301999999ADDGF100991999999999999999999MA1101051999999MW1001OC101131REMMET058KLRJ 141745Z AUTO 19016G22KT 10SM CLR 30/23 A2984 RMK AO1;EQDQ01+000000PRSWM2
0133725484999992000081505454+42780-096190FM-15+0365KLRJ V0203601N000512200019N0160931N1+02301+02001999999ADDGF100991999999999999999999MA1101221999999MW1001REMMET055KLRJ 150545Z AUTO 36001KT 10SM CLR 23/20 A2989 RMK AO1;EQDQ01+000000PRSWM2
0144725484999992000081617454+42780-096190FM-15+0365KLRJ V0201301N007212200019N0160931N1+02401+01701999999ADDGF100991999999999999999999MA1101831999999MW1001OC100931REMMET058KLRJ 161745Z AUTO 13014G18KT 10SM CLR 24/17 A3007 RMK AO1;EQDQ01+000000PRSWM2
0054725484999992000081808009+42783-096200NSRDB+036599999V020999999999999999999999999999+99999+99999999999ADDGP10060000002000000002000000002000GR100600000900009
0054725484999992000082009009+42783-096200NSRDB+036599999V020999999999999999999999999999+99999+99999999999ADDGP10060000002000000002000000002000GR100600000900009
0159725484999992000082318454+42780-096190FM-15+0365KLRJ V0200601N003612200019N0160931N1+02701+02201999999ADDGD12991+0078019GF104991999999999999999999MA1101901999999MW1001REMMET066KLRJ 231845Z AUTO 06007KT 040V100 10SM SCT026 27/22 A3009 RMK AO1;EQDQ01+000000PRSWM2
0071725484999992000082416009+42783-096200NSRDB+036599999V020999999999999999999999999999+99999+99999999999ADDGP10060056502008062002015016502008GQ100600499911659GR100600860913379
0133725484999992000082422454+42780-096190FM-15+0365KLRJ V0201701N002612200019N0160931N1+02701+02201999999ADDGF100991999999999999999999MA1101831999999MW1001REMMET055KLRJ 242245Z AUTO 17005KT 10SM CLR 27/22 A3007 RMK AO1;EQDQ01+000000PRSWM2
0230725484999992000083116053+42780-096190FM-15+0365KLRJ V0203401N005110054019N0160931N1+02401+01901999999ADDGD14991+0054019GF108991999999999999999999GP10060027702008002402015026202008GQ100600515911919GR100600835913429MA1101021999999MW1001OC100771REMMET061KLRJ 311605Z AUTO 34010G15KT 10SM OVC018 24/19 A2983 RMK AO1;EQDQ01+000000PRSWM2
0151725484999992000090104454+42780-096190FM-15+0365KLRJ V0200301N003610036019N0160931N1+01801+01501999999ADDGD14991+0036019GF108991999999999999999999MA1101491999999MW1001REMMET058KLRJ 010445Z AUTO 03007KT 10SM OVC012 18/15 A2997 RMK AO1;EQDQ01+000000PRSWM2
0151725484999992000090117454+42780-096190FM-15+0365KLRJ V0200201N001510036019N0160931N1+02001+01701999999ADDGD14991+0036019GF108991999999999999999999MA1101631999999MW1001REMMET058KLRJ 011745Z AUTO 02003KT 10SM OVC012 20/17 A3001 RMK AO1;EQDQ01+000000PRSWM2
0054725484999992000090508009+42783-096200NSRDB+036599999V020999999999999999999999999999+99999+99999999999ADDGP10060000002000000002000000002000GR100600000900009
0071725484999992000090521009+42783-096200NSRDB+036599999V020999999999999999999999999999+99999+99999999999ADDGP10060068502008083402015010402008GQ100600459922659GR100600935913459
0133725484999992000090705454+42780-096190FM-15+0365KLRJ V0201701N003112200019N0160931N1+02001+01301999999ADDGF100991999999999999999999MA1101291999999MW1001REMMET055KLRJ 070545Z AUTO 17006KT 10SM CLR 20/13 A2991 RMK AO1;EQDQ01+000000PRSWM2
0133725484999992000090811454+42780-096190FM-15+0365KLRJ V0209999C000012200019N0160931N1+00501+00301999999ADDGF100991999999999999999999MA1101591999999MW1001REMMET055KLRJ 081145Z AUTO 00000KT 10SM CLR 05/03 A3000 RMK AO1;EQDQ01+000000PRSWM2
0054725484999992000090908009+42783-096200NSRDB+036599999V020999999999999999999999999999+99999+99999999999ADDGP10060000002000000002000000002000GR100600000900009
0144725484999992000090917454+42780-096190FM-15+0365KLRJ V0202001N010312200019N0160931N1+03001+01801999999ADDGF100991999999999999999999MA1100311999999MW1001OC101231REMMET058KLRJ 091745Z AUTO 20020G24KT 10SM CLR 30/18 A2962 RMK AO1;EQDQ01+000000PRSWM2
0133725484999992000091202454+42780-096190FM-15+0365KLRJ V0203301N003112200019N0160931N1+01501+00701999999ADDGF100991999999999999999999MA1101191999999MW1001REMMET055KLRJ 120245Z AUTO 33006KT 10SM CLR 15/07 A2988 RMK AO1;EQDQ01+000000PRSWM2
0150725484999992000091210454+42780-096190FM-15+0365KLRJ V0203601N000512200019N0064371N1+00401+00201999999ADDGD12991+0270019GF104991999999999999999999MA1101761999999MW1001REMMET057KLRJ 121045Z AUTO 36001KT 4SM SCT090 04/02 A3005 RMK AO1;EQDQ01+000000PRSWM2
0133725484999992000091218454+42780-096190FM-15+0365KLRJ V0202001N003612200019N0160931N1+02401+00501999999ADDGF100991999999999999999999MA1101691999999MW1001REMMET055KLRJ 121845Z AUTO 20007KT 10SM CLR 24/05 A3003 RMK AO1;EQDQ01+000000PRSWM2
0133725484999992000091411454+42780-096190FM-15+0365KLRJ V0203601N001012200019N0160931N1+01101+00801999999ADDGF100991999999999999999999MA1102001999999MW1001REMMET055KLRJ 141145Z AUTO 36002KT 10SM CLR 11/08 A3012 RMK AO1;EQDQ01+000000PRSWM2
0071725484999992000091417009+42783-096200NSRDB+036599999V020999999999999999999999999999+99999+99999999999ADDGP10060065102008071402015016102008GQ100600467914079GR100600926913519
0054725484999992000092105009+42783-096200NSRDB+036599999V020999999999999999999999999999+99999+99999999999ADDGP10060000002000000002000000002000GR100600000900009
0054725484999992000092108009+42783-096200NSRDB+036599999V020999999999999999999999999999+99999+99999999999ADDGP10060000002000000002000000002000GR100600000900009
0054725484999992000092902009+42783-096200NSRDB+036599999V020999999999999999999999999999+99999+99999999999ADDGP10060000002000000002000000002000GR100600000900009
0071725484999992000100223009+42783-096200NSRDB+036599999V020999999999999999999999999999+99999+99999999999ADDGP10060022002008060302015005402008GQ100600741924889GR100600374913659
0173725484999992000100412454+42780-096190FM-15+0365KLRJ V0209999C000010240019N0160931N1+00501+00301999999ADDGD12991+0180019GD23991+0240019GF107991999999999999999999MA1102171999999MW1001REMMET065KLRJ 041245Z AUTO 00000KT 10SM SCT065 BKN085 05/03 A3017 RMK AO1;EQDQ01+000000PRSWM2
0071725484999992000100421009+42783-096200NSRDB+036599999V020999999999999999999999999999+99999+99999999999ADDGP10060019202008000602015018902008GQ100600567922199GR100600749913679
0054725484999992000100602009+42783-096200NSRDB+036599999V020999999999999999999999999999+99999+99999999999ADDGP10060000002000000002000000002000GR100600000900009
0163725484999992000100617454+42780-096190FM-15+0365KLRJ V0203301N004610180019N0160931N1+00501-00701999999ADDGD13991+0180019GF107991999999999999999999MA1103151999999MW1001OC101181REMMET062KLRJ 061745Z AUTO 33009G23KT 10SM BKN060 05/M07 A3046 RMK AO1;EQDQ01+000000PRSWM2
0071725484999992000100721009+42783-096200NSRDB+036599999V020999999999999999999999999999+99999+99999999999ADDGP10060023202008001802015022202008GQ100600579922159GR100600728913699
0054725484999992000101106009+42783-096200NSRDB+036599999V020999999999999999999999999999+99999+99999999999ADDGP10060000002000000002000000002000GR100600000900009
0135725484999992000101107454+42780-096190FM-15+0365KLRJ V0209999C000012200019N0160931N1-00101-00501999999ADDGF100991999999999999999999MA1102101999999MW1001REMMET057KLRJ 110745Z AUTO 00000KT 10SM CLR M01/M05 A3015 RMK AO1;EQDQ01+000000PRSWM2
0054725484999992000101207009+42783-096200NSRDB+036599999V020999999999999999999999999999+99999+99999999999ADDGP10060000002000000002000000002000GR100600000900009
0184725484999992000101410053+42780-096190FM-15+0365KLRJ V0203601N001012200019N0160931N1+00301+00001999999ADDGF100991999999999999999999GP10060000002000000002000000002000GR100600000900009MA1101221999999MW1001REMMET055KLRJ 141005Z AUTO 36002KT 10SM CLR 03/00 A2989 RMK AO1;EQDQ01+000000PRSWM2
0071725484999992000101423009+42783-096200NSRDB+036599999V020999999999999999999999999999+99999+99999999999ADDGP10060015502008043202015006402008GQ100600780924629GR100600286913759
0071725484999992000101618009+42783-096200NSRDB+036599999V020999999999999999999999999999+99999+99999999999ADDGP10060011002009000002021011002009GQ100600529916759GR100600830913779
0195725484999992000101703454+42780-096190FM-15+0365KLRJ V0201001N004610270019N0160931N1+01201+00801999999ADDGD12991+0240019GD23991+0270019GD33991+0330019GF107991999999999999999999MA1101931999999MW1001REMMET072KLRJ 170345Z AUTO 10009KT 10SM SCT085 BKN090 BKN110 12/08 A3010 RMK AO1;EQDQ01+000000PRSWM2
0133725484999992000101717454+42780-096190FM-15+0365KLRJ V0203601N001012200019N0160931N1+01501+01101999999ADDGF100991999999999999999999MA1102131999999MW1001REMMET055KLRJ 171745Z AUTO 36002KT 10SM CLR 15/11 A3016 RMK AO1;EQDQ01+000000PRSWM2
0071725484999992000101820009+42783-096200NSRDB+036599999V020999999999999999999999999999+99999+99999999999ADDGP10060056902009084602021009302009GQ100600559920409GR100600772913789
0054725484999992000101904009+42783-096200NSRDB+036599999V020999999999999999999999999999+99999+99999999999ADDGP10060000002000000002000000002000GR100600000900009
0205725484999992000102506454+42780-096190FM-15+0365KLRJ V0201701N006710036019N0112651N1+01801+01601999999ADDGD13991+0036019GD23991+0051019GD34991+0132019GF108991999999999999999999MA1101861999999MW1001OC100821REMMET074KLRJ 250645Z AUTO 17013G16KT 7SM BKN012 BKN017 OVC044 18/16 A3008 RMK AO1;EQDQ01+000000PRSWM2
0173725484999992000102601454+42780-096190FM-15+0365KLRJ V0201501N004112200019N0160931N1+01801+01501999999ADDGD12991+0096019GD22991+0330019GF104991999999999999999999MA1101121999999MW1001REMMET065KLRJ 260145Z AUTO 15008KT 10SM SCT032 SCT110 18/15 A2986 RMK AO1;EQDQ01+000000PRSWM2
0054725484999992000102904009+42783-096200NSRDB+036599999V020999999999999999999999999999+99999+99999999999ADDGP10060000002000000002000000002000GR100600000900009
0144725484999992000110217454+42780-096190FM-15+0365KLRJ V0202401N008212200019N0160931N1+01301+00201999999ADDGF100991999999999999999999MA1101391999999MW1001OC101081REMMET058KLRJ 021745Z AUTO 24016G21KT 10SM CLR 13/02 A2994 RMK AO1;EQDQ01+000000PRSWM2
0144725484999992000110316454+42780-096190FM-15+0365KLRJ V0203101N004612200019N0160931N1+00801+00001999999ADDGF100991999999999999999999MA1102571999999MW1001OC100771REMMET058KLRJ 031645Z AUTO 31009G15KT 10SM CLR 08/00 A3029 RMK AO1;EQDQ01+000000PRSWM2
0153725484999992000110816454+42780-096190FM-15+0365KLRJ V0203001N005112200019N0160931N1-00501-00901999999ADDGD12991+0063019GF104991999999999999999999MA1101421999999MW1001REMMET060KLRJ 081645Z AUTO 30010KT 10SM SCT021 M05/M09 A2995 RMK AO1;EQDQ01+000000PRSWM2
0054725484999992000111006009+42783-096200NSRDB+036599999V020999999999999999999999999999+99999+99999999999ADDGP10060000002000000002000000002000GR100600000900009
0054725484999992000111012009+42783-096200NSRDB+036599999V020999999999999999999999999999+99999+99999999999ADDGP10060000002000000002000000002000GR100600000900009
0054725484999992000111201009+42783-096200NSRDB+036599999V020999999999999999999999999999+99999+99999999999ADDGP10060000002000000002000000002000GR100600000900009
0175725484999992000111207454+42780-096190FM-15+0365KLRJ V0203601N000510018019N0020111N1+00001-00301999999ADDGD14991+0018019GF108991999999999999999999MA1101391999999MW1001REMMET082KLRJ 120745Z AUTO 36001KT 1 1/4SM OVC006 00/M03 A2994 RMK AO1 PARTIAL OBSCURATION;EQDQ01+000000PRSWM2
0163725484999992000111223454+42780-096190FM-15+0365KLRJ V0202801N006210042019N0112651N1-00301-00601999999ADDGD14991+0042019GF108991999999999999999999MA1101191999999MW1001OC100981REMMET062KLRJ 122345Z AUTO 28012G19KT 7SM OVC014 M03/M06 A2988 RMK AO1;EQDQ01+000000PRSWM2
0054725484999992000111304009+42783-096200NSRDB+036599999V020999999999999999999999999999+99999+99999999999ADDGP10060000002000000002000000002000GR100600000900009
0135725484999992000111508454+42780-096190FM-15+0365KLRJ V0203601N001012200019N0160931N1-01201-01401999999ADDGF100991999999999999999999MA1101421999999MW1001REMMET057KLRJ 150845Z AUTO 36002KT 10SM CLR M12/M14 A2995 RMK AO1;EQDQ01+000000PRSWM2
0054725484999992000111513009+42783-096200NSRDB+036599999V020999999999999999999999999999+99999+99999999999ADDGP10060000002000000002000000002000GR100600000900009
0223725484999992000111915454+42780-096190FM-15+0365KLRJ V0203001N012310330019N0028161N1-00301-00801999999ADDGD12991+0114019GD23991+0330019GF107991999999999999999999MA1101291999999MW1001OC101801REMMET107KLRJ 191545Z AUTO 30024G35KT 1 3/4SM SCT038 BKN110 M03/M08 A2991 RMK AO1 VIS 3/4V3 1/2 PARTIAL OBSCURATION;EQDQ01+000000PRSWM2
0135725484999992000112119454+42780-096190FM-15+0365KLRJ V0203601N000512200019N0160931N1-00601-01001999999ADDGF100991999999999999999999MA1102441999999MW1001REMMET057KLRJ 211945Z AUTO 36001KT 10SM CLR M06/M10 A3025 RMK AO1;EQDQ01+000000PRSWM2
0134725484999992000112304454+42780-096190FM-15+0365KLRJ V0203601N001012200019N0080461N1-01001-01201999999ADDGF100991999999999999999999MA1102071999999MW1001REMMET056KLRJ 230445Z AUTO 36002KT 5SM CLR M10/M12 A3014 RMK AO1;EQDQ01+000000PRSWM2
0152725484999992000112514454+42780-096190FM-15+0365KLRJ V0203601N000510018019N0080461N1-00601-00901999999ADDGD13991+0018019GF107991999999999999999999MA1101561999999MW1001REMMET059KLRJ 251445Z AUTO 36001KT 5SM BKN006 M06/M09 A2999 RMK AO1;EQDQ01+000000PRSWM2
0153725484999992000113005454+42780-096190FM-15+0365KLRJ V0203501N002110039019N0160931N1-00301-00601999999ADDGD14991+0039019GF108991999999999999999999MA1102641999999MW1001REMMET060KLRJ 300545Z AUTO 35004KT 10SM OVC013 M03/M06 A3031 RMK AO1;EQDQ01+000000PRSWM2
0164725484999992000113016454+42780-096190FM-15+0365KLRJ V0201401N005710015019N0160931N1-00401-00601999999ADDGD14991+0015019GF108991999999999999999999MA1102271999999MW1001OC100821REMMET063KLRJ 301645Z AUTO 14011G16KT 10SM OVC005 M04/M06 A3020 RMK AO1;EQDQ01+000000PRSWM2
0054725484999992000120210009+42783-096200NSRDB+036599999V020999999999999999999999999999+99999+99999999999ADDGP10060000002000000002000000002000GR100600000900009
0071725484999992000120323009+42783-096200NSRDB+036599999V020999999999999999999999999999+99999+99999999999ADDGP10060002002009011802021001502009GQ100600865923539GR100600071911629
0054725484999992000120605009+42783-096200NSRDB+036599999V020999999999999999999999999999+99999+99999999999ADDGP10060000002000000002000000002000GR100600000900009
0134725484999992000121005454+42780-096190FM-15+0365KLRJ V0203101N005112200019N0080461N1-00301-00601999999ADDGF100991999999999999999999MA1101391999999MW1001REMMET056KLRJ 100545Z AUTO 31010KT 5SM CLR M03/M06 A2994 RMK AO1;EQDQ01+000000PRSWM2
0071725484999992000121015009+42783-096200NSRDB+036599999V020999999999999999999999999999+99999+99999999999ADDGP10060001202009000002021001202009GQ100600840912929GR100600148914119
0054725484999992000121302009+42783-096200NSRDB+036599999V020999999999999999999999999999+99999+99999999999ADDGP10060000002000000002000000002000GR100600000900009
0172725484999992000121810454+42780-096190FM-15+0365KLRJ V0203401N003610030019N0032181N1-01001-01301999999ADDGD14991+0030019GF108991999999999999999999MA1101321999999MW1001REMMET079KLRJ 181045Z AUTO 34007KT 2SM OVC010 M10/M13 A2992 RMK AO1 PARTIAL OBSCURATION;EQDQ01+000000PRSWM2
0135725484999992000122210454+42780-096190FM-15+0365KLRJ V0209999C000012200019N0160931N1-02201-02601999999ADDGF100991999999999999999999MA1102741999999MW1001REMMET057KLRJ 221045Z AUTO 00000KT 10SM CLR M22/M26 A3034 RMK AO1;EQDQ01+000000PRSWM2
0175725484999992000122517454+42780-096190FM-15+0365KLRJ V0201701N003110240019N0160931N1-01501-01801999999ADDGD12991+0078019GD24991+0240019GF108991999999999999999999MA1103761999999MW1001REMMET067KLRJ 251745Z AUTO 17006KT 10SM SCT026 OVC080 M15/M18 A3064 RMK AO1;EQDQ01+000000PRSWM2
0071725484999992000122520009+42783-096200NSRDB+036599999V020999999999999999999999999999+99999+99999999999ADDGP10060005802009000002021005802009GQ100600679919609GR100600532914149
0175725484999992000122603454+42780-096190FM-15+0365KLRJ V0201901N002110150019N0160931N1-01101-01501999999ADDGD13991+0150019GD23991+0180019GF107991999999999999999999MA1103391999999MW1001REMMET067KLRJ 260345Z AUTO 19004KT 10SM BKN055 BKN065 M11/M15 A3053 RMK AO1;EQDQ01+000000PRSWM2
0054725484999992000122808009+42783-096200NSRDB+036599999V020999999999999999999999999999+99999+99999999999ADDGP10060000002000000002000000002000GR100600000900009
0054725484999992000122911009+42783-096200NSRDB+036599999V020999999999999999999999999999+99999+99999999999ADDGP10060000002000000002000000002000GR100600000900009
0071725484999992000123015009+42783-096200NSRDB+036599999V020999999999999999999999999999+99999+99999999999ADDGP10060003402009000002021003402009GQ100600854912759GR100600113914159
0054725485149402000010106009+43150-093333NSRDB+036499999V020999999999999999999999999999+99999+99999999999ADDGP10060000002000000002000000002000GR100600000900009
0140725485149402000010306204+43150-093330FM-15+0370KMCW V0200301N003610039019N0160931N1-00401-00501999999ADDGD13991+0039019GF107991999999999999999999MA1101591999999MW1001REMMET047KMCW 030620Z 03007KT 10SM BKN013 M04/M05 A3000;EQDQ01+000000PRSWM2
0316725485149402000010422503+43150-093333FM-15+0364MCW  V0202905N004152200059N0240005N1-01315-01615102555ADDGF100995999999999999999999MA1102271097835MW1001REMMET065KMCW 042250Z 29008KT 15SM SKC M13/M16 A3020 RMK SLP255 T11311161;EQDQ01+000000PRSWM2N01 00000JPWTH 0QNNE71D0 00000F71 0 00000G71U0 99999K71D0 00003J71 0-00161L71 0 01500M71 0 28890N71 0 00000Q71 0 10255S71D0 00008R71 0-00131V71D0 00099U71 0 00099X71 0 29008
0334725485149402000010507503+43150-093333FM-15+0364MCW  V0202205N002652200059N0192005N1-01395-01555102495ADDGD12995+0390019GF103995999999999999999999MA1102201097775MW1001REMMET068KMCW 050750Z 22005KT 12SM SCT130 M14/M15 A3018 RMK SLP249 T11391155;EQDQ01+000000PRSWM2N01 00000JPWTH 0QNNE71D0 00299F71 0 00299G71U0 99999K71D0 00004J71 0-00155L71 0 01200M71 0 28870N71 0 00000Q71 0 10249S71D0 00007R71 0-00139V71D0 00499U71 0 00399X71 0 22005
0054725485149402000010513009+43150-093333NSRDB+036499999V020999999999999999999999999999+99999+99999999999ADDGP10060000002000000002000000002000GR100600000900009
0341725485149402000010719503+43150-093333FM-15+0364MCW  V0201505N007252200059N0240005N1-00395-00785102465ADDGD12995+0750019GF103995999999999999999999MA1102241097805MW1001REMMET075KMCW 071950Z 15014KT 15SM SCT250 M04/M08 A3019 RMK PRESFR SLP246 T10391078;EQDQ01+000000PRSWM2N01 00000JPWTH 0QNNE71D0 00299F71 0 00299G71U0 99999K71D0 00018J71 0-00078L71 0 01500M71 0 28880N71 0 00000Q71 0 10246S71D0 00025R71 0-00039V71D0 00499U71 0 00399X71 0 15014
0286725485149402000010802003+43150-093333FM-15+0364MCW  V0201805N005752200059N016000599-00335-00555101985ADDGD10005+9999999GF100995999999999999999999GP10060000002000000002000000002000GR100600000900009MA1999999097315EQDN01 00000JPWTH 0QNNE71D0 00000F71 0 00000G71U0 99999K71D0 00022J71 0-00055L71 0 01000M71 0 28735N71 0 00000Q71 0 10198S71D0 00026R71 0-00033V71D0 00099U71 0 00099X71 0 18011
0071725485149402000011014009+43150-093333NSRDB+036499999V020999999999999999999999999999+99999+99999999999ADDGP10060000002009000002021000002009GQ100600890912159GR100600005903189
0499725485149402000011108503+43150-093333FM-15+0364MCW  V0203105N014450091459N0160005N1-00505-00785100685ADDGD12995+0048019GD23995+0090019GD34995+0180019GF108995999999999999999999MA1100541096165MD1310582+9999MW1001OC101901REMMET121KMCW 110850Z 31028G37KT 10SM SCT016 BKN030 OVC060 M05/M08 A2969 RMK PK WND 31039/06 SNB17E38 SLP068 6000 T10501078 53058;EQDQ01+000582APC3  Q02+000000PRSWM2N01 00000JPWTH 0QNNE71D0 00299F71 0 00299E71D0 00499F71 0 00499E71D0 00699F71 0 00699G71 0 00030K71D0 00018J71 0-00078L71 0 01000M71 0 28395N71 0 00000Q71 0 10068S71D0 00023R71 0-00050V71D0 01099U71 0 00899X71 0 31028
0071725485149402000011220009+43150-093333NSRDB+036499999V020999999999999999999999999999+99999+99999999999ADDGP10060039802009082002021007302009GQ100600668919739GR100600558914149
0054725485149402000011307009+43150-093333NSRDB+036499999V020999999999999999999999999999+99999+99999999999ADDGP10060000002000000002000000002000GR100600000900009
0054725485149402000011401009+43150-093333NSRDB+036499999V020999999999999999999999999999+99999+99999999999ADDGP10060000002000000002000000002000GR100600000900009
0358725485149402000011810503+43150-093333FM-15+0364MCW  V0202705N005752200059N0048005N1-00395-00445102225ADDGD12995+0012019GF103995999999999999999999MA1102031097565MW1101MW2455REMMET070KMCW 181050Z 27011KT 3SM BR SCT004 M04/M04 A3013 RMK SLP222 T10391044;EQDQ01+000003PRSWM1Q02    003PRSWM1N01 00070JPWTH 0QNNE71D0 00299F71 0 00299G71U0 99999K71D0 00024J71 0-00044L71 0 00300M71 0 28810N71 0 00070Q71 0 10222S71D0 00025R71 0-00039V71D0 00499U71 0 00399X71 0 27011
0054725485149402000011908009+43150-093333NSRDB+036499999V020999999999999999999999999999+99999+99999999999ADDGP10060000002000000002000000002000GR100600000900009
0316725485149402000012013503+43150-093333FM-15+0364MCW  V0203105N007252200059N0192005N1-02175-02445102645ADDGF100995999999999999999999MA1102301097875MW1001REMMET065KMCW 201350Z 31014KT 12SM SKC M22/M24 A3021 RMK SLP264 T12171244;EQDQ01+000000PRSWM2N01 00000JPWTH 0QNNE71D0 00000F71 0 00000G71U0 99999K71D0-00012J71 0-00244L71 0 01200M71 0 28900N71 0 00000Q71 0 10264S71D0-00007R71 0-00217V71D0 00099U71 0 00099X71 0 31014
0320725485149402000012103503+43150-093333FM-15+0364MCW  V0203405N003652200059N0160005N1-01785-02025102625ADDGF100995999999999999999999MA1102271097835MW1001REMMET069KMCW 210350Z COR 34007KT 10SM SKC M18/M20 A3020 RMK SLP262 T11781202;EQDQ01+000000PRSWM2N01 00000JPWTH 0QNNE71D0 00000F71 0 00000G71U0 99999K71D0-00004J71 0-00202L71 0 01000M71 0 28890N71 0 00000Q71 0 10262S71D0 00000R71 0-00178V71D0 00099U71 0 00099X71 0 34007
0334725485149402000012119503+43150-093333FM-15+0364MCW  V0201505N005750762059N0160005N1-01505-01785102235ADDGD13995+0750019GF107995999999999999999999MA1101901097485MW1001REMMET068KMCW 211950Z 15011KT 10SM BKN250 M15/M18 A3009 RMK SLP223 T11501178;EQDQ01+000000PRSWM2N01 00000JPWTH 0QNNE71D0 00499F71 0 00499G71 0 00250K71D0 00000J71 0-00178L71 0 01000M71 0 28785N71 0 00000Q71 0 10223S71D0 00005R71 0-00150V71D0 00999U71 0 00799X71 0 15011
0054725485149402000012313009+43150-093333NSRDB+036499999V020999999999999999999999999999+99999+99999999999ADDGP10060000002000000002000000002000GR100600000900009
0071725485149402000012714009+43150-093333NSRDB+036499999V020999999999999999999999999999+99999+99999999999ADDGP10060000002009000002021000002009GQ100600883911739GR100600017905769
0334725485149402000012719503+43150-093333FM-15+0364MCW  V0201305N004150762059N0240005N1-00895-01285103615ADDGD13995+0750019GF106995999999999999999999MA1103291098815MW1001REMMET068KMCW 271950Z 13008KT 15SM BKN250 M09/M13 A3050 RMK SLP361 T10891128;EQDQ01+000000PRSWM2N01 00000JPWTH 0QNNE71D0 00499F71 0 00499G71 0 00250K71D0 00009J71 0-00128L71 0 01500M71 0 29180N71 0 00000Q71 0 10361S71D0 00016R71 0-00089V71D0 00899U71 0 00699X71 0 13008
0315725485149402000013122503+43150-093333FM-15+0364MCW  V0203105N007252200059N0144005N1-00445-00745101765ADDGF100995999999999999999999MA1101521097105MW1001REMMET064KMCW 312250Z 31014KT 9SM SKC M04/M07 A2998 RMK SLP176 T10441074;EQDQ01+000000PRSWM2N01 00000JPWTH 0QNNE71D0 00000F71 0 00000G71U0 99999K71D0 00019J71 0-00074L71 0 00900M71 0 28675N71 0 00000Q71 0 10176S71D0 00024R71 0-00044V71D0 00099U71 0 00099X71 0 31014
0445725485149402000020322503+43150-093333FM-15+0364MCW  V0203105N009850076259N0048005N1-00335-00555101645ADDGD13995+0075019GD24995+0135019GF108995999999999999999999MA1101491097075MW1385MW2715OC101291REMMET112KMCW 032250Z 31019G25KT 3SM -SN BLSN BKN025 OVC045 M03/M05 A2997 RMK PK WND 32029/39 VSBY NE 2 SLP164 T10331055;EQDQ01+000003PRSWM1Q02    003PRSWM1N01 04084JPWTH 0QNNE71D0 00499F71 0 00499E71D0 00699F71 0 00699G71 0 00025K71D0 00022J71 0-00055L71 0 00300M71 0 28665N71 0 04084Q71 0 10164S71D0 00026R71 0-00033V71D0 01099U71 0 00899X71 0 31019
0330725485149402000020709503+43150-093333FM-15+0364MCW  V0202905N004652200059N0112005N1-00675-00785102375ADDGD10005+9999999GF100995999999999999999999MA1102201097775MW1001REMMET064KMCW 070950Z 29009KT 7SM DKC M07/M08 A3018 RMK SLP237 T10671078;EQDQ01+000000PRSWM2N01 00000JPWTH 0QNNE71D0 00000F71 0 00000G71U0 99999K71D0 00018J71 0-00078L71 0 00700M71 0 28870N71 0 00000Q71 0 10237S71D0 00020R71 0-00067V71D0 00099U71 0 00099X71 0 29009
0358725485149402000020812503+43150-093333FM-15+0364MCW  V0201805N003150006159N0032005N1-01225-01335102915ADDGD14995+0006019GF108995999999999999999999MA1102641098195MW1101MW2455REMMET070KMCW 081250Z 18006KT 2SM BR OVC002 M12/M13 A3031 RMK SLP291 T11221133;EQDQ01+000003PRSWM1Q02    003PRSWM1N01 00070JPWTH 0QNNE71D0 00699F71 0 00699G71 0 00002K71D0 00008J71 0-00133L71 0 00200M71 0 28995N71 0 00070Q71 0 10291S71D0 00010R71 0-00122V71D0 01099U71 0 00899X71 0 18006
0054725485149402000020902009+43150-093333NSRDB+036499999V020999999999999999999999999999+99999+99999999999ADDGP10060000002000000002000000002000GR100600000900009
0054725485149402000021004009+43150-093333NSRDB+036499999V020999999999999999999999999999+99999+99999999999ADDGP10060000002000000002000000002000GR100600000900009
0357725485149402000021010503+43150-093333FM-15+0364MCW  V0200705N005750304859N0048005N1+00065-00055100895ADDGD14995+0300019GF108995999999999999999999MA1100781096395MW1101MW2455REMMET069KMCW 101050Z 07011KT 3SM BR OVC100 01/M00 A2976 RMK SLP089 T00061005;EQDQ01+000003PRSWM1Q02    003PRSWM1N01 00070JPWTH 0QNNE71D0 00699F71 0 00699G71 0 00100K71D0 00031J71 0-00005L71 0 00300M71 0 28465N71 0 00070Q71 0 10089S71D0 00033R71 0 00006V71D0 01099U71 0 00899X71 0 07011
0362725485149402000021018503+43150-093333FM-15+0364MCW  V0203505N009350009159N0012005N1-00115-00115101265ADDGD14995+0009019GF108995999999999999999999MA1101121096725MW1455MW2481REMMET074KMCW 101850Z 35018KT 3/8SM FZFG OVC003 M01/M01 A2986 RMK SLP126 T10111011;EQDQ01+000003PRSWM1Q02    003PRSWM1N01 00071JPWTH 0QNNE71D0 00699F71 0 00699G71 0 00003K71D0 00030J71 0-00011L71 0 00075M71 0 28560N71 0 00071Q71 0 10126S71D0 00030R71 0-00011V71D0 01099U71 0 00899X71 0 35018
0054725485149402000021311009+43150-093333NSRDB+036499999V020999999999999999999999999999+99999+99999999999ADDGP10060000002000000002000000002000GR100600000900009
0529725485149402000021511513+43150-093333FM-15+0364MCW  V0201405N008250365859N0048005N1-00335-00445101165ADDAA106000391AA224000391AJ100089199999999GD11995+0180019GD24995+0360019GF108995999999999999999999KA1999M-00331KA2999N-00671MA1100981096605MD1810421+9999MW1101MW2365MW3711REMMET135KMCW 151151Z 14016KT 3SM -SN BR DRSN FEW060 OVC120 M03/M04 A2982 RMK SNB30 PRESFR SLP116 60001 70001 4/003 T10331044 11033 21067 58042;EQDQ01+000003PRSWM1N01 00097JPWTH 0QNNE71D0 00299F71 0 00199E71D0 00699F71 0 00699G71 0 00120K71D0 00024J71 0-00044L71 0 00300M71 0 28525N71 0 00097Q71 0 10116S71D0 00026R71 0-00033V71D0 01099U71 0 00899X71 0 14016
0180725485149402000021823334+43150-093330FM-16+0370KMCW V0203401N007210027019N0040231N1-00301-00401999999ADDGD14991+0027019GF108991999999999999999999MA1102241999999MW1101REMMET071KMCW 182333Z 34014KT 2 1/2SM BR OVC009 M03/M04 A3019 RMK VSBY NE 1 3/4;EQDQ01+000003PRSWM1Q02    003PRSWM1
0071725485149402000021922009+43150-093333NSRDB+036499999V020999999999999999999999999999+99999+99999999999ADDGP10060016602009012802021011902009GQ100600686922899GR100600511914009
0316725485149402000022016503+43150-093333FM-15+0364MCW  V0202205N006252200059N0192005N1-00335-00725103025ADDGF100995999999999999999999MA1102811098365MW1001REMMET065KMCW 201650Z 22012KT 12SM SKC M03/M07 A3036 RMK SLP302 T10331072;EQDQ01+000000PRSWM2N01 00000JPWTH 0QNNE71D0 00000F71 0 00000G71U0 99999K71D0 00019J71 0-00072L71 0 01200M71 0 29045N71 0 00000Q71 0 10302S71D0 00026R71 0-00033V71D0 00099U71 0 00099X71 0 22012
0189725485149402000022516124+43150-093330FM-16+0370KMCW V0201501N010310027019N0064371N1+01201+01101999999ADDGD12991+0015019GD24991+0027019GF108991999999999999999999MA1100471999999MW1101OC101441REMMET057KMCW 251612Z 15020G28KT 4SM BR FEW005 OVC009 12/11 A2967;EQDQ01+000003PRSWM1Q02    003PRSWM1
0054725485149402000022705009+43150-093333NSRDB+036499999V020999999999999999999999999999+99999+99999999999ADDGP10060000002000000002000000002000GR100600000900009
0054725485149402000022711009+43150-093333NSRDB+036499999V020999999999999999999999999999+99999+99999999999ADDGP10060000002000000002000000002000GR100600000900009
0071725485149402000022713009+43150-093333NSRDB+036499999V020999999999999999999999999999+99999+99999999999ADDGP10060000002009000002021000002009GQ100600896910169GR100600001901059
0054725485149402000022906009+43150-093333NSRDB+036499999V020999999999999999999999999999+99999+99999999999ADDGP10060000002000000002000000002000GR100600000900009
0071725485149402000030316009+43150-093333NSRDB+036499999V020999999999999999999999999999+99999+99999999999ADDGP10060044702009077602021010102009GQ100600636912999GR100600618913919
0332725485149402000030700503+43150-093333FM-15+0364MCW  V0202005N003652200059N0240005N1+01585+00835101155ADDGD11995+0750019GF102995999999999999999999MA1101121096725MW1001REMMET066KMCW 070050Z 20007KT 15SM FEW250 16/08 A2986 RMK SLP115 T01580083;EQDQ01+000000PRSWM2N01 00000JPWTH 0QNNE71D0 00299F71 0 00199G71U0 99999K71D0 00047J71 0 00083L71 0 01500M71 0 28560N71 0 00000Q71 0 10115S71D0 00060R71 0 00158V71D0 00299U71 0 00299X71 0 20007
0071725485149402000030914009+43150-093333NSRDB+036499999V020999999999999999999999999999+99999+99999999999ADDGP10060005202009000002021005202009GQ100600809910469GR100600219913869
0054725485149402000031107009+43150-093333NSRDB+036499999V020999999999999999999999999999+99999+99999999999ADDGP10060000002000000002000000002000GR100600000900009
0319725485149402000031116003+43150-093333FM-15+0364MCW  V0203405N007252200059N024000599+00065-00815102625ADDGD11995+9999999GF199999999999999999999999GP10060047502009071802021012302009GQ100600608912849GR100600676913859MA1999999098025EQDN01 00000JPWTH 0P01    003SCOTCVQNNE71D0 00299F71 0 00199G71U0 99999K71D0 00017J71 0-00081L71 0 01500M71 0 28945N71 0 00000Q71 0 10262S71D0 00033R71 0 00006V71D0 00099U71 0 00099X71 0 34014
0362725485149402000031218503+43150-093333FM-15+0364MCW  V0201705N001550054959N0036005N1+00335-00115102385ADDGD14995+0054019GF108995999999999999999999MA1102241097805MW1715REMMET080KMCW 121850Z 17003KT 1 1/4SM -SN OVC018 03/M01 A3019 RMK SNB33 SLP238 T00331011;EQDQ01+000003PRSWM1Q02    003PRSWM1N01 00040JPWTH 0QNNE71D0 00699F71 0 00699G71 0 00018K71D0 00030J71 0-00011L71 0 00225M71 0 28880N71 0 00040Q71 0 10238S71D0 00038R71 0 00033V71D0 01099U71 0 00899X71 0 17003
0390725485149402000031323503+43150-093333FM-15+0364MCW  V0202705N002652200059N0160005N1+00675+00035102025ADDGD11995+0750019GF101995999999999999999999KA1999M+00831KA2999N+00001MA1101901097485MD1610051+9999MW1001REMMET084KMCW 132350Z 27005KT 10SM FEW250 07/00 A3009 RMK SLP202 T00670003 10083 20000 56005;EQDQ01+000000PRSWM2N01 00000JPWTH 0QNNE71D0 00299F71 0 00199G71U0 99999K71D0 00033J71 0 00003L71 0 01000M71 0 28785N71 0 00000Q71 0 10202S71D0 00044R71 0 00067V71D0 00199U71 0 00199X71 0 27005
0054725485149402000031711009+43150-093333NSRDB+036499999V020999999999999999999999999999+99999+99999999999ADDGP10060000002000000002000000002000GR100600000900009
0267725485149402000031900013+43150-093330FM-16+0370KMCW V0200901N004110021019N0032181N1+00001-00101999999ADDGD13991+0021019GD24991+0036019GF108991999999999999999999GP10060002002008000002015002002008GQ100600810926089GR100600216913799MA1102071999999MW1711REMMET059KMCW 190001Z 09008KT 2SM -SN BR BKN007 OVC012 00/M01 A3014;EQDQ01+000100PRSWM3Q02+000003PRSWM1Q03    003PRSWM1
0309725485149402000031923003+43150-093333FM-15+0364MCW  V0200705N004650042759N011200599+00175-00055101485ADDGD14995+9999999GF108995999999999999999999GP10060005602008000002015005602008GQ100600703925019GR100600465913799MA1999999096955MW1715EQDN01 00040JPWTH 0QNNE71D0 00699F71 0 00699G71 0 00014K71D0 00031J71 0-00005L71 0 00700M71 0 28630N71 0 00040Q71 0 10148S71D0 00035R71 0 00017V71D0 01099U71 0 00899X71 0 07009
0469725485149402000032005596+43154-093327SOD  +0373KMCW V020999999999999999999999999999+99999+99999999999ADDAA124000025AJ100089599999999AL12400035AN1024000035AT1MW18SN  5AT2MW01FG  5AT3MW13BR  1KA1240M+00225KA2240N-00165OE11249999999999997OE22249999999999997REMSOD30724 HR PRECIPITATION (IN):T     SNOW DEPTH (IN):  3   24 HR SNOWFALL (IN):T    24 HR MAX TEMP (F): 3624 HR MIN TEMP (F): 2924 HR AVG TEMP (F): 33HOURLY INCREMENTAL PRECIPITATION VALUES (IN):.00  .00  .00  .00  .00  .00  .00  .00  .00  .00  .00  .00  .00  .00  .00  .00  .00  .00  .00  .00  .00  .00  .00  .00
0438725485149402000032218503+43150-093333FM-15+0364MCW  V0201905N003150036659N0064005N1+01115+00785102985ADDGD13995+0036019GD23995+0240019GD34995+0360019GF108995999999999999999999MA1102911098445MW1055REMMET082KMCW 221850Z 19006KT 4SM HZ BKN012 BKN080 OVC120 11/08 A3039 RMK SLP298 T01110078;EQDQ01+000003PRSWM1Q02    003PRSWM1N01 00081JPWTH 0QNNE71D0 00499F71 0 00499E71D0 00499F71 0 00499E71D0 00699F71 0 00699G71 0 00012K71D0 00046J71 0 00078L71 0 00400M71 0 29070N71 0 00081Q71 0 10298S71D0 00052R71 0 00111V71D0 01099U71 0 00899X71 0 19006
0314725485149402000032503503+43150-093333FM-15+0364MCW  V0202605N005252200059N0160005N1+00725+00565101415ADDGF100995999999999999999999MA1101351096955MW1001REMMET063KMCW 250350Z 26010KT 10SM SKC 07/06 A2993 RMK SLP141 T00720056;EQDQ01+000000PRSWM2N01 00000JPWTH 0QNNE71D0 00000F71 0 00000G71U0 99999K71D0 00042J71 0 00056L71 0 01000M71 0 28630N71 0 00000Q71 0 10141S71D0 00045R71 0 00072V71D0 00099U71 0 00099X71 0 26010
0071725485149402000032615009+43150-093333NSRDB+036499999V020999999999999999999999999999+99999+99999999999ADDGP10060037202008049702015016002008GQ100600649911209GR100600582913739
0374725485149402000032905513+43150-093333FM-15+0364MCW  V0200505N001552200059N0160005N1-00285-00675101335ADDGF100995999999999999999999KA1999M+00891KA2999N-00331MA1101221096825MD1310101+9999MW1001REMMET083KMCW 290551Z 05003KT 10SM SKC M03/M07 A2989 RMK SLP133 T10281067 10089 21033 53010;EQDQ01+000000PRSWM2N01 00000JPWTH 0QNNE71D0 00000F71 0 00000G71U0 99999K71D0 00020J71 0-00067L71 0 01000M71 0 28590N71 0 00000Q71 0 10133S71D0 00027R71 0-00028V71D0 00099U71 0 00099X71 0 05003
0353725485149402000040102503+43150-093333FM-15+0364MCW  V0202605N002650762059N0160005N1+00615-00285102135ADDGD13995+0750019GF106995999999999999999999MA1102071097635MD1810071+9999MW1001REMMET073KMCW 010250Z 26005KT 10SM BKN250 06/M03 A3014 RMK SLP213 T00611028 58007;EQDQ01+000000PRSWM2N01 00000JPWTH 0QNNE71D0 00499F71 0 00499G71 0 00250K71D0 00027J71 0-00028L71 0 01000M71 0 28830N71 0 00000Q71 0 10213S71D0 00043R71 0 00061V71D0 00899U71 0 00699X71 0 26005
0435725485149402000040117503+43150-093333FM-15+0364MCW  V0202505N006252200059N0240005N1+01225-00265101925ADDGD12995+0210019GD22995+0750019GF104995999999999999999999KA1999M+01441KA2999N+00671MA1101861097445MD1810151+9999MW1001REMMET092KMCW 011750Z 25012KT 15SM SCT070 SCT250 12/M03 A3008 RMK SLP192 T01221026 10144 20067 58015;EQDQ01+000000PRSWM2N01 00000JPWTH 0QNNE71D0 00299F71 0 00299E71D0 00299F71 0 00299G71U0 99999K71D0 00027J71 0-00026L71 0 01500M71 0 28775N71 0 00000Q71 0 10192S71D0 00054R71 0 00122V71D0 00599U71 0 00499X71 0 25012
0376725485149402000040312503+43150-093333FM-15+0364MCW  V0203205N009850064059N0240005N1+00395+00065101055ADDGD13995+0063019GD24995+0102019GF108995999999999999999999MA1100981096605MW1001REMMET073KMCW 031250Z 32019KT 15SM BKN021 OVC034 04/01 A2982 RMK SLP105 T00390006;EQDQ01+000000PRSWM2N01 00000JPWTH 0QNNE71D0 00499F71 0 00499E71D0 00699F71 0 00699G71 0 00021K71D0 00033J71 0 00006L71 0 01500M71 0 28525N71 0 00000Q71 0 10105S71D0 00039R71 0 00039V71D0 01099U71 0 00899X71 0 32019
0319725485149402000040500003+43150-093333FM-15+0364MCW  V0202905N006252200059N032000599+01005-01175101535ADDGD11995+9999999GF199999999999999999999999GP10060016702008049202015006002008GQ100600774926669GR100600298913669MA1999999097025EQDN01 00000JPWTH 0P01    003SCOTCVQNNE71D0 00299F71 0 00199G71U0 99999K71D0 00011J71 0-00117L71 0 02000M71 0 28650N71 0 00000Q71 0 10153S71D0 00050R71 0 00100V71D0 00099U71 0 00099X71 0 29012
0071725485149402000040512009+43150-093333NSRDB+036499999V020999999999999999999999999999+99999+99999999999ADDGP10060000002008000002015000002008GQ100600891908189GR100600004902399
0071725485149402000040701009+43150-093333NSRDB+036499999V020999999999999999999999999999+99999+99999999999ADDGP10060001202008006202015001002008GQ100600863927629GR100600066910129
0071725485149402000040912009+43150-093333NSRDB+036499999V020999999999999999999999999999+99999+99999999999ADDGP10060000002008000002015000002008GQ100600886908039GR100600010903979
0054725485149402000041306009+43150-093333NSRDB+036499999V020999999999999999999999999999+99999+99999999999ADDGP10060000002000000002000000002000GR100600000900009
0464725485149402000041605596+43154-093327SOD  +0373KMCW V020999999999999999999999999999+99999+99999999999ADDAA124000025AJ100009599999999AL12400096AN1024000096AT1MW16RA  5KA1240M+00725KA2240N+00115OE11249999999999997OE22249999999999997REMSOD30724 HR PRECIPITATION (IN):T     SNOW DEPTH (IN):  0   24 HR SNOWFALL (IN): 0.0 24 HR MAX TEMP (F): 4524 HR MIN TEMP (F): 3424 HR AVG TEMP (F): 40HOURLY INCREMENTAL PRECIPITATION VALUES (IN):.00  .00  .00  .00  .00  .00  .00  .00  .00  .00  .00  .00  .00  .00  .00  .00  .00  .00  .00  .00  .00  .00  .00  .00EQDR01   0.07ALS030
0071725485149402000042113009+43150-093333NSRDB+036499999V020999999999999999999999999999+99999+99999999999ADDGP10060017202008042502015008702008GQ100600784908429GR100600271913529
0071725485149402000042201009+43150-093333NSRDB+036499999V020999999999999999999999999999+99999+99999999999ADDGP10060004602008022602015002502008GQ100600847928209GR100600125913529
0071725485149402000042214009+43150-093333NSRDB+036499999V020999999999999999999999999999+99999+99999999999ADDGP10060035502008066002015010002008GQ100600673909429GR100600521913529
0054725485149402000042408009+43150-093333NSRDB+036499999V020999999999999999999999999999+99999+99999999999ADDGP10060000002000000002000000002000GR100600000900009
0054725485149402000042607009+43150-093333NSRDB+036499999V020999999999999999999999999999+99999+99999999999ADDGP10060000002000000002000000002000GR100600000900009
0071725485149402000042616009+43150-093333NSRDB+036499999V020999999999999999999999999999+99999+99999999999ADDGP10060069802008075202015016902008GQ100600453911829GR100600947913499
0344725485149402000042621503+43150-093333FM-15+0364MCW  V0202105N003650762059N0240005N1+02175-00225101735ADDGD14995+0750019GF108995999999999999999999MA1101731097315MW1001OC100771REMMET070KMCW 262150Z 21007G15KT 15SM OVC250 22/M02 A3004 RMK SLP173 T02171022;EQDQ01+000000PRSWM2N01 00000JPWTH 0QNNE71D0 00699F71 0 00699G71 0 00250K71D0 00028J71 0-00022L71 0 01500M71 0 28735N71 0 00000Q71 0 10173S71D0 00071R71 0 00217V71D0 01099U71 0 00899X71 0 21007
0071725485149402000042818009+43150-093333NSRDB+036499999V020999999999999999999999999999+99999+99999999999ADDGP10060087602008077602015020402008GQ100600302916029GR100601164913479
0071725485149402000042902009+43150-093333NSRDB+036499999V020999999999999999999999999999+99999+99999999999ADDGP10060000002008000002015000002008GQ100600893928989GR100600003902369
0071725485149402000043017009+43150-093333NSRDB+036499999V020999999999999999999999999999+99999+99999999999ADDGP10060078602008064502015026002008GQ100600355913529GR100601095913469
0071725485149402000050516009+43150-093333NSRDB+036499999V020999999999999999999999999999+99999+99999999999ADDGP10060069602008071502015017402008GQ100600432911589GR100600978913429
0343725485149402000050621503+43150-093333FM-15+0364MCW  V0201905N007250213459N0320005N1+02675+01335100825ADDGD13995+0210019GF107995999999999999999999MA1100881096505MW1001OC101231REMMET069KMCW 062150Z 19014G24KT 20SM BKN070 27/13 A2979 RMK SLP082 T02670133;EQDQ01+000000PRSWM2N01 00000JPWTH 0QNNE71D0 00499F71 0 00499G71 0 00070K71D0 00056J71 0 00133L71 0 02000M71 0 28495N71 0 00000Q71 0 10082S71D0 00080R71 0 00267V71D0 00999U71 0 00799X71 0 19014
0314725485149402000050707503+43150-093333FM-15+0364MCW  V0202205N004152200059N0160005N1+01835+01465100875ADDGF100995999999999999999999MA1100951096565MW1001REMMET063KMCW 070750Z 22008KT 10SM SKC 18/15 A2981 RMK SLP087 T01830146;EQDQ01+000000PRSWM2N01 00000JPWTH 0QNNE71D0 00000F71 0 00000G71U0 99999K71D0 00058J71 0 00146L71 0 01000M71 0 28515N71 0 00000Q71 0 10087S71D0 00065R71 0 00183V71D0 00099U71 0 00099X71 0 22008
0372725485149402000051005513+43150-093333FM-15+0364MCW  V0202705N001552200059N0160005N1+00675+00445101155ADDGF100995999999999999999999KA1999M+01721KA2999N+00671MA1101121096725MD1010001+9999MW1001REMMET081KMCW 100551Z 27003KT 10SM SKC 07/04 A2986 RMK SLP115 T00670044 10172 20067 50000;EQDQ01+000000PRSWM2N01 00000JPWTH 0QNNE71D0 00000F71 0 00000G71U0 99999K71D0 00040J71 0 00044L71 0 01000M71 0 28560N71 0 00000Q71 0 10115S71D0 00044R71 0 00067V71D0 00099U71 0 00099X71 0 27003
0071725485149402000051212009+43150-093333NSRDB+036499999V020999999999999999999999999999+99999+99999999999ADDGP10060006302008004402015005902008GQ100600843907009GR100600132913389
0467725485149402000051220503+43150-093333FM-15+0364MCW  V0202805N008850762059N0240005N1+02065+00395100545ADDGD12995+0210019GD22995+0300019GD33995+0750019GF106995999999999999999999MA1100581096195MD1010001+9999MW1001OC101341REMMET105KMCW 122050Z 28017G26KT 15SM SCT070 SCT100 BKN250 21/04 A2970 RMK PK WND 28026/47 SLP054 T02060039 50000;EQDQ01+000000PRSWM2N01 00000JPWTH 0QNNE71D0 00299F71 0 00299E71D0 00299F71 0 00299E71D0 00499F71 0 00499G71 0 00250K71D0 00039J71 0 00039L71 0 01500M71 0 28405N71 0 00000Q71 0 10054S71D0 00069R71 0 00206V71D0 00899U71 0 00699X71 0 28017
0314725485149402000051504503+43150-093333FM-15+0364MCW  V0209999C000052200059N0160005N1+00685+00065102345ADDGF100995999999999999999999MA1102301097875MW1001REMMET063KMCW 150450Z 00000KT 10SM SKC 07/01 A3021 RMK SLP234 T00680006;EQDQ01+000000PRSWM2N01 00000JPWTH 0QNNE71D0 00000F71 0 00000G71U0 99999K71D0 00033J71 0 00006L71 0 01000M71 0 28900N71 0 00000Q71 0 10234S71D0 00044R71 0 00068V71D0 00099U71 0 00099X71 0 00000
0375725485149402000051610503+43150-093333FM-15+0364MCW  V0201805N003652200059N0128005N1+00945+00895101225ADDGD11995+0210019GD21995+0750019GF102995999999999999999999MA1101221096825MW1001REMMET072KMCW 161050Z 18007KT 8SM FEW070 FEW250 09/09 A2989 RMK SLP122 T00940089;EQDQ01+000000PRSWM2N01 00000JPWTH 0QNNE71D0 00299F71 0 00199E71D0 00299F71 0 00199G71U0 99999K71D0 00048J71 0 00089L71 0 00800M71 0 28590N71 0 00000Q71 0 10122S71D0 00049R71 0 00094V71D0 00299U71 0 00299X71 0 18007
0054725485149402000051709009+43150-093333NSRDB+036499999V020999999999999999999999999999+99999+99999999999ADDGP10060000002000000002000000002000GR100600000900009
0434725485149402000051817503+43150-093333FM-15+0364MCW  V0200505N012450051859N0160005N1+01285+01005100915ADDAA106008991GD14995+0051019GF108995999999999999999999KA1999M+01441KA2999N+01221MA1100911096535MD1110241+9999MW1001OC101541REMMET109KMCW 181750Z 05024G30KT 10SM OVC017 13/10 A2980 RMK PK WND 06035/05 SLP091 60035 T01280100 10144 20122 51024;EQDQ01+000000PRSWM2N01 00000JPWTH 0QNNE71D0 00699F71 0 00699G71 0 00017K71D0 00050J71 0 00100L71 0 01000M71 0 28505N71 0 00000Q71 0 10091S71D0 00055R71 0 00128V71D0 01099U71 0 00899X71 0 05024
0423725485149402000051823503+43150-093333FM-15+0364MCW  V0200305N008850076259N0160005N1+01115+00835101655ADDAA106003691GD14995+0075019GF108995999999999999999999KA1999M+01281KA2999N+01061MA1101631097215MD1310361+9999MW1001REMMET106KMCW 182350Z 03017KT 10SM OVC025 11/08 A3001 RMK PK WND 05027/16 SLP165 60014 T01110083 10128 20106 53036;EQDQ01+000000PRSWM2N01 00000JPWTH 0QNNE71D0 00699F71 0 00699G71 0 00025K71D0 00047J71 0 00083L71 0 01000M71 0 28705N71 0 00000Q71 0 10165S71D0 00052R71 0 00111V71D0 01099U71 0 00899X71 0 03017
0071725485149402000051913009+43150-093333NSRDB+036499999V020999999999999999999999999999+99999+99999999999ADDGP10060024402008048502015010102008GQ100600729907849GR100600392913349
0376725485149402000051919503+43150-093333FM-15+0364MCW  V0203505N003150762059N0240005N1+01565+00285102225ADDGD11995+0150019GD23995+0750019GF105995999999999999999999MA1102171097735MW1001REMMET073KMCW 191950Z 35006KT 15SM FEW050 BKN250 16/03 A3017 RMK SLP222 T01560028;EQDQ01+000000PRSWM2N01 00000JPWTH 0QNNE71D0 00299F71 0 00199E71D0 00499F71 0 00499G71 0 00250K71D0 00037J71 0 00028L71 0 01500M71 0 28860N71 0 00000Q71 0 10222S71D0 00060R71 0 00156V71D0 00699U71 0 00599X71 0 35006
0376725485149402000051921503+43150-093333FM-15+0364MCW  V0200205N002652200059N0320005N1+01565+00175102095ADDGD11995+0150019GD22995+0750019GF104995999999999999999999MA1102031097605MW1001REMMET073KMCW 192150Z 02005KT 20SM FEW050 SCT250 16/02 A3013 RMK SLP209 T01560017;EQDQ01+000000PRSWM2N01 00000JPWTH 0QNNE71D0 00299F71 0 00199E71D0 00299F71 0 00299G71U0 99999K71D0 00035J71 0 00017L71 0 02000M71 0 28820N71 0 00000Q71 0 10209S71D0 00060R71 0 00156V71D0 00599U71 0 00499X71 0 02005
0054725485149402000052505009+43150-093333NSRDB+036499999V020999999999999999999999999999+99999+99999999999ADDGP10060000002000000002000000002000GR100600000900009
0309725485149402000053008124+43150-093330FM-16+0370KMCW V0201501N006710078019N0064371N1+01501+01401999999ADDGA1999+018001091GD12991+0024019GD23991+0078019GD33991+0180019GD44991+0270019GF108991999999999999999999MA1100911999999MW1801MW2951OC101081REMMET125KMCW 300812Z 15013G21KT 4SM -TSRA BR FEW008 BKN026 BKN060CB OVC095 15/14 A2980 RMK WNDSHFT 09 FQT LTGICCC E-SE TS E-SE MOV E;EQDQ01+000100PRSWM4Q02+000003PRSWM1
0054725485149402000060206009+43150-093333NSRDB+036499999V020999999999999999999999999999+99999+99999999999ADDGP10060000002000000002000000002000GR100600000900009
0314725485149402000060206503+43150-093333FM-15+0364MCW  V0203305N006252200059N0160005N1+01175+00785102085ADDGF100995999999999999999999MA1102101097665MW1001REMMET063KMCW 020650Z 33012KT 10SM SKC 12/08 A3015 RMK SLP208 T01170078;EQDQ01+000000PRSWM2N01 00000JPWTH 0QNNE71D0 00000F71 0 00000G71U0 99999K71D0 00046J71 0 00078L71 0 01000M71 0 28840N71 0 00000Q71 0 10208S71D0 00053R71 0 00117V71D0 00099U71 0 00099X71 0 33012
0071725485149402000060612009+43150-093333NSRDB+036499999V020999999999999999999999999999+99999+99999999999ADDGP10060009602008021002015006602008GQ100600817906649GR100600190913269
0054725485149402000060708009+43150-093333NSRDB+036499999V020999999999999999999999999999+99999+99999999999ADDGP10060000002000000002000000002000GR100600000900009
0390725485149402000060711503+43150-093333FM-15+0364MCW  V0201705N005750213459N0240005N1+01445+00945102005ADDGD14995+0210019GF108995999999999999999999KA1999M+01441KA2999N+01171MA1102031097605MD1710031+9999MW1001REMMET084KMCW 071150Z 17011KT 15SM OVC070 14/09 A3013 RMK SLP200 T01440094 10144 20117 57003;EQDQ01+000000PRSWM2N01 00000JPWTH 0QNNE71D0 00699F71 0 00699G71 0 00070K71D0 00049J71 0 00094L71 0 01500M71 0 28820N71 0 00000Q71 0 10200S71D0 00058R71 0 00144V71D0 01099U71 0 00899X71 0 17011
0054725485149402000060903009+43150-093333NSRDB+036499999V020999999999999999999999999999+99999+99999999999ADDGP10060000002000000002000000002000GR100600000900009
0137725485149402000061302184+43150-093330FM-16+0370KMCW V0201201N004610027019N0112651N1+01801+01501999999ADDGD14991+0027019GF108991999999999999999999MA1101421999999MW1001REMMET044KMCW 130218Z 12009KT 7SM OVC009 18/15 A2995;EQDQ01+000000PRSWM2
0054725485149402000062010009+43150-093333NSRDB+036499999V020999999999999999999999999999+99999+99999999999ADDGP10060000002000000002000000002000GR100600000900009
0054725485149402000062205009+43150-093333NSRDB+036499999V020999999999999999999999999999+99999+99999999999ADDGP10060000002000000002000000002000GR100600000900009
0390725485149402000062405503+43150-093333FM-15+0364MCW  V0201905N003650762059N0160005N1+01895+01835100975ADDGD14995+0750019GF108995999999999999999999KA1999M+02501KA2999N+01891MA1101021096615MD1210021+9999MW1001REMMET084KMCW 240550Z 19007KT 10SM OVC250 19/18 A2983 RMK SLP097 T01890183 10250 20189 52002;EQDQ01+000000PRSWM2N01 00000JPWTH 0QNNE71D0 00699F71 0 00699G71 0 00250K71D0 00065J71 0 00183L71 0 01000M71 0 28530N71 0 00000Q71 0 10097S71D0 00066R71 0 00189V71D0 01099U71 0 00899X71 0 19007
0420725485149402000062601503+43150-093333FM-15+0364MCW  V0209999C000050335359N0240005N1+01945+01895101235ADDGD11995+0048019GD23995+0330019GD34995+0750019GF108995999999999999999999MA1101291096885MW1001REMMET080KMCW 260150Z 00000KT 15SM FEW016 BKN110 OVC250 19/19 A2991 RMK SLP123 T01940189;EQDQ01+000000PRSWM2N01 00000JPWTH 0QNNE71D0 00299F71 0 00199E71D0 00499F71 0 00499E71D0 00699F71 0 00699G71 0 00110K71D0 00066J71 0 00189L71 0 01500M71 0 28610N71 0 00000Q71 0 10123S71D0 00067R71 0 00194V71D0 01099U71 0 00899X71 0 00000
0054725485149402000062710009+43150-093333NSRDB+036499999V020999999999999999999999999999+99999+99999999999ADDGP10060000002000000002000000002000GR100600000900009
0313725485149402000070203503+43150-093333FM-15+0364MCW  V0201905N003652200059N0128005N1+01945+01785101055ADDGF100995999999999999999999MA1101121096725MW1001REMMET062KMCW 020350Z 19007KT 8SM SKC 19/18 A2986 RMK SLP105 T01940178;EQDQ01+000000PRSWM2N01 00000JPWTH 0QNNE71D0 00000F71 0 00000G71U0 99999K71D0 00064J71 0 00178L71 0 00800M71 0 28560N71 0 00000Q71 0 10105S71D0 00067R71 0 00194V71D0 00099U71 0 00099X71 0 19007
0413725485149402000070302503+43150-093333FM-15+0364MCW  V0200105N002652200059N0240005N1+02045+01895100935ADDAA103000391GD11995+0135019GD21995+0750019GF101995999999999999999999MA1100981096605MD1310031+9999MW1001REMMET085KMCW 030250Z 01005KT 15SM FEW045 FEW250 20/19 A2982 RMK SLP093 60001 T02040189 53003;EQDQ01+000000PRSWM2N01 00000JPWTH 0QNNE71D0 00299F71 0 00199E71D0 00299F71 0 00199G71U0 99999K71D0 00066J71 0 00189L71 0 01500M71 0 28525N71 0 00000Q71 0 10093S71D0 00069R71 0 00204V71D0 00199U71 0 00199X71 0 01005
0227725485149402000070420043+43150-093320FM-16+0370KMCW V0201201N004110042019N0112651N1+02301+02101999999ADDGD13991+0042019GD24991+0150019GF108991999999999999999999GP10060024202008000602015023702008GQ100600254922159GR100601193913219MA1101351999999MW1001REMMET051KMCW 042004Z 12008KT 7SM BKN014 OVC050 23/21 A2993;EQDQ01+000000PRSWM2
0157725485149402000070509134+43150-093320FM-16+0370KMCW V0201301N00261000151CN0012071N1+02101+02101999999ADDGD15991+0001519GF109991999999000251999999MA1101391999999MW1101REMMET048KMCW 050913Z 13005KT 3/4SM BR VV001 21/21 A2994;EQDQ01+000003PRSWM1Q02    003PRSWM1
0071725485149402000070601009+43150-093333NSRDB+036499999V020999999999999999999999999999+99999+99999999999ADDGP10060014802008029802015008002008GQ100600767928889GR100600304913219
0071725485149402000070716009+43150-093333NSRDB+036499999V020999999999999999999999999999+99999+99999999999ADDGP10060063102008040002015032602008GQ100600404910729GR100601005913219
0451725485149402000070917503+43150-093333FM-15+0364MCW  V0202205N003650243859N0240005N1+02565+02175101265ADDAA106013291GD11995+0111019GD23995+0240019GF107995999999999999999999KA1999M+02611KA2999N+01891MA1101351096955MD1210071+9999MW1001REMMET097KMCW 091750Z 22007KT 15SM FEW037 BKN080 26/22 A2993 RMK SLP126 60052 T02560217 10261 20189 52007;EQDQ01+000000PRSWM2N01 00000JPWTH 0QNNE71D0 00299F71 0 00199E71D0 00499F71 0 00499G71 0 00080K71D0 00071J71 0 00217L71 0 01500M71 0 28630N71 0 00000Q71 0 10126S71D0 00078R71 0 00256V71D0 00999U71 0 00799X71 0 22007
0054725485149402000071310009+43150-093333NSRDB+036499999V020999999999999999999999999999+99999+99999999999ADDGP10060000002000000002000000002000GR100600000900009
0071725485149402000071412009+43150-093333NSRDB+036499999V020999999999999999999999999999+99999+99999999999ADDGP10060006702008014102015005202008GQ100600837906609GR100600146913229
0071725485149402000071413009+43150-093333NSRDB+036499999V020999999999999999999999999999+99999+99999999999ADDGP10060022302008046702015009002008GQ100600735907569GR100600376913229
0390725485149402000072111503+43150-093333FM-15+0364MCW  V0203005N002152200059N0320005N1+01065+00945101905ADDGD11995+0750019GF101995999999999999999999KA1999M+01331KA2999N+00941MA1101901097485MD1110071+9999MW1001REMMET084KMCW 211150Z 30004KT 20SM FEW250 11/09 A3009 RMK SLP190 T01060094 10133 20094 51007;EQDQ01+000000PRSWM2N01 00000JPWTH 0QNNE71D0 00299F71 0 00199G71U0 99999K71D0 00049J71 0 00094L71 0 02000M71 0 28785N71 0 00000Q71 0 10190S71D0 00051R71 0 00106V71D0 00199U71 0 00199X71 0 30004
0071725485149402000072420009+43150-093333NSRDB+036499999V020999999999999999999999999999+99999+99999999999ADDGP10060070802008038302015036902008GQ100600279921729GR100601170913249
0071725485149402000072713009+43150-093333NSRDB+036499999V020999999999999999999999999999+99999+99999999999ADDGP10060019202008038302015009502008GQ100600752907759GR100600338913259
0352725485149402000072720503+43150-093333FM-15+0364MCW  V0203105N005252200059N0240005N1+02895+01725101605ADDGD12995+0180019GF103995999999999999999999MA1101661097245MD1610071+9999MW1001REMMET072KMCW 272050Z 31010KT 15SM SCT060 29/17 A3002 RMK SLP160 T02890172 56007;EQDQ01+000000PRSWM2N01 00000JPWTH 0QNNE71D0 00299F71 0 00299G71U0 99999K71D0 00063J71 0 00172L71 0 01500M71 0 28715N71 0 00000Q71 0 10160S71D0 00084R71 0 00289V71D0 00499U71 0 00399X71 0 31010
0071725485149402000073014009+43150-093333NSRDB+036499999V020999999999999999999999999999+99999+99999999999ADDGP10060034002008054902015010702008GQ100600649908799GR100600562913269
0071725485149402000080120009+43150-093333NSRDB+036499999V020999999999999999999999999999+99999+99999999999ADDGP10060083202008071802015020602008GQ100600296921559GR100601153913269
0310725485149402000080121503+43150-093333FM-15+0364MCW  V0202905N00885220005MN0160005N1+02945+02005101075ADDGD12995+0115859GF104991999999999999999999MA1101155999999MW1001REMMET066KMCW 012150Z 29017KT 10SM SCT038 29/20 A2987 RMK SLP107 T02940200;EQDQ01+000000PRSWM2N01 00000JPWTH 0QNNAA1D0 02038BA1 0 02038GA1U0 99999KA1D0 00068JA1 0 00200LA1 0 01000CA1 0 02987NA1 0 00000QA1 0 10107SA1D0 00085RA1 0 00294YA1 0 29017
0392725485149402000080314503+43150-093333FM-15+0364MCW  V0201705N00465032925MN0080005N1+01945+01725102045ADDGD13995+0030559GD23995+0064059GF107991999999999999999999MA1102075999999MD1110101+9999MW1055REMMET081KMCW 031450Z 17009KT 5SM HZ BKN010 BKN021 19/17 A3014 RMK SLP204 T01940172 51010;EQDQ01+000003PRSWM1Q02    003PRSWM1N01 00081JPWTH 0QNNAA1D0 04010BA1 0 04010AA1D0 04021BA1 0 04021GA1 0 00108KA1D0 00063JA1 0 00172LA1 0 00500CA1 0 03014NA1 0 00081QA1 0 10204SA1D0 00067RA1 0 00194YA1 0 17009
0343725485149402000080404503+43150-093333FM-15+0364MCW  V0201205N003150750019N0160005N1+01825+01585101925ADDGD12995+0259159GD23995+0762059GF107991999999999999999999MA1101635999999MW1001REMMET073KMCW 040450Z 12006KT 10SM SCT085 BKN250 18/16 A3001 RMK SLP192 T01820158;EQDQ01+000000PRSWM2N01 00000JPWTH 0QNNAA1D0 02085BA1 0 02085AA1D0 04250BA1 0 04250KA1D0 00060JA1 0 00158LA1 0 01000CA1 0 03001NA1 0 00000QA1 0 10192SA1D0 00065RA1 0 00182YA1 0 12006
0431725485149402000080909503+43150-093333FM-15+0364MCW  V0203205N002652200019N0112005N1+01675+01615101435ADDGF100991999999999999999999MA1101495999999MW1001REMMET062KMCW 090950Z 32005KT 7SM SKC 17/16 A2997 RMK SLP143 T01670161;EQDQ01+000000PRSWM2N01 00000JALM1 3N02 09000JALC2D3N03 09000JALM2 3N04 09000JALC3D3N05 09000JALM3 3N06 99999CCLHTU3N07 00000JPWTH 0QNNAA1D0 00000BA1 3 00000AA1D3 09000BA1 3 09000AA1D3 09000BA1 3 09000GA1U3 99999KA1D0 00061JA1 0 00161LA1 0 00700CA1 0 02997NA1 0 00000QA1 0 10143SA1D0 00062RA1 0 00167YA1 0 32005
0071725485149402000080922009+43150-093333NSRDB+036499999V020999999999999999999999999999+99999+99999999999ADDGP10060061502008076502015011402008GQ100600491925089GR100600870913309
0432725485149402000081001503+43150-093333FM-15+0364MCW  V0203105N002152200019N0160005N1+02115+01785101845ADDGF100991999999999999999999MA1101905999999MW1001REMMET063KMCW 100150Z 31004KT 10SM SKC 21/18 A3009 RMK SLP184 T02110178;EQDQ01+000000PRSWM2N01 00000JALM1 3N02 09000JALC2D3N03 09000JALM2 3N04 09000JALC3D3N05 09000JALM3 3N06 99999CCLHTU3N07 00000JPWTH 0QNNAA1D0 00000BA1 3 00000AA1D3 09000BA1 3 09000AA1D3 09000BA1 3 09000GA1U3 99999KA1D0 00064JA1 0 00178LA1 0 01000CA1 0 03009NA1 0 00000QA1 0 10184SA1D0 00070RA1 0 00211YA1 0 31004
0400725485149402000081011533+43150-093333FM-15+0364MCW  V0202705N00215220005MN0192005N1+01445+01285102145ADDGD12995+0762059GF104991999999999999999999KA1999M+99999KA2999N+99999MA1102175999999MD1210141+9999MW1001REMMET084KMCW 101153Z 27004KT 12SM SCT250 14/13 A3017 RMK SLP214 T01440128 10167 20169 52014;EQDQ01+000000PRSWM2Q02 +01673ATMM  Q03 +01693ATMM  N01 00000JPWTH 0QNNAA1D0 02250BA1 0 02250GA1U0 99999KA1D0 00055JA1 0 00128LA1 0 01200CA1 0 03017NA1 0 00000QA1 0 10214SA1D0 00058RA1 0 00144YA1 0 27004
0071725485149402000081402009+43150-093333NSRDB+036499999V020999999999999999999999999999+99999+99999999999ADDGP10060000002008000002015000002008GQ100600887928899GR100600008903669
0310725485149402000081604503+43150-093333FM-15+0364MCW  V0203405N00155220005MN0160005N1+01615+01335102365ADDGD12995+0426759GF104991999999999999999999MA1102405999999MW1001REMMET066KMCW 160450Z 34003KT 10SM SCT140 16/13 A3024 RMK SLP236 T01610133;EQDQ01+000000PRSWM2N01 00000JPWTH 0QNNAA1D0 02140BA1 0 02140GA1U0 99999KA1D0 00056JA1 0 00133LA1 0 01000CA1 0 03024NA1 0 00000QA1 0 10236SA1D0 00061RA1 0 00161YA1 0 34003
0321725485149402000081902533+43150-093333FM-15+0364MCW  V0200505N00215220005MN0160005N1+01395+01285102295ADDGF100991999999999999999999MA1102375999999MD1310021+9999MW1001REMMET078KMCW 190253Z AUTO 05004KT 10SM CLR 14/13 A3023 RMK AO2 SLP229 T01390128 53002;EQDQ01+000000PRSWM2N01 00000JPWTH 0QNNAA1D0 00000BA1 0 00000GA1U0 99999KA1D0 00055JA1 0 00128LA1 0 01000CA1 0 03023NA1 0 00000QA1 0 10229SA1D0 00057RA1 0 00139YA1 0 05004
0301725485149402000081903533+43150-093333FM-15+0364MCW  V0209999C00005220005MN0160005N1+01285+01175102325ADDGF100991999999999999999999MA1102375999999MW1001REMMET072KMCW 190353Z AUTO 00000KT 10SM CLR 13/12 A3023 RMK AO2 SLP232 T01280117;EQDQ01+000000PRSWM2N01 00000JPWTH 0QNNAA1D0 00000BA1 0 00000GA1U0 99999KA1D0 00053JA1 0 00117LA1 0 01000CA1 0 03023NA1 0 00000QA1 0 10232SA1D0 00055RA1 0 00128YA1 0 00000
0054725485149402000082404009+43150-093333NSRDB+036499999V020999999999999999999999999999+99999+99999999999ADDGP10060000002000000002000000002000GR100600000900009
0054725485149402000082710009+43150-093333NSRDB+036499999V020999999999999999999999999999+99999+99999999999ADDGP10060000002000000002000000002000GR100600000900009
0261725485149402000082800003+43150-093333FM-15+0364MCW  V0201305N00265220005MN009600599+02285+01945101235ADDGD12995+0091459GP10060012802008009502015010302008GQ100600752926959GR100600341913399MA1101325999999MW1055EQDN01 00081JPWTH 0QNNAA1D0 02030BA1 0 02030GA1U0 99999KA1D0 00067JA1 0 00194LA1 0 00600CA1 0 02992NA1 0 00081QA1 0 10123SA1D0 00073RA1 0 00228YA1 0 13005
0071725485149402000083115009+43150-093333NSRDB+036499999V020999999999999999999999999999+99999+99999999999ADDGP10060042102008045502015019102008GQ100600597910859GR100600676913429
0319725485149402000090200533+43150-093333FM-15+0364MCW  V0200105N00365220005MN0160005N1+02005+01895101535ADDGD11995+0064059GF102991999999999999999999MA1101635999999MW1001REMMET075KMCW 020053Z AUTO 01007KT 10SM FEW021 20/19 A3001 RMK AO2 SLP153 T02000189;EQDQ01+000000PRSWM2N01 00000JPWTH 0QNNAA1D0 02021BA1 0 01021GA1U0 99999KA1D0 00066JA1 0 00189LA1 0 01000CA1 0 03001NA1 0 00000QA1 0 10153SA1D0 00068RA1 0 00200YA1 0 01007
0301725485149402000090322533+43150-093333FM-15+0364MCW  V0200205N00415220005MN0160005N1+02565+02065101445ADDGF100991999999999999999999MA1101565999999MW1001REMMET072KMCW 032253Z AUTO 02008KT 10SM CLR 26/21 A2999 RMK AO2 SLP144 T02560206;EQDQ01+000000PRSWM2N01 00000JPWTH 0QNNAA1D0 00000BA1 0 00000GA1U0 99999KA1D0 00069JA1 0 00206LA1 0 01000CA1 0 02999NA1 0 00000QA1 0 10144SA1D0 00078RA1 0 00256YA1 0 02008
0054725485149402000090408009+43150-093333NSRDB+036499999V020999999999999999999999999999+99999+99999999999ADDGP10060000002000000002000000002000GR100600000900009
0071725485149402000090515009+43150-093333NSRDB+036499999V020999999999999999999999999999+99999+99999999999ADDGP10060043602008064102015012202008GQ100600607911039GR100600657913459
0301725485149402000090704533+43150-093333FM-15+0364MCW  V0201605N00315220005MN0160005N1+01445+01005101565ADDGF100991999999999999999999MA1101635999999MW1001REMMET072KMCW 070453Z AUTO 16006KT 10SM CLR 14/10 A3001 RMK AO2 SLP156 T01440100;EQDQ01+000000PRSWM2N01 00000JPWTH 0QNNAA1D0 00000BA1 0 00000GA1U0 99999KA1D0 00050JA1 0 00100LA1 0 01000CA1 0 03001NA1 0 00000QA1 0 10156SA1D0 00058RA1 0 00144YA1 0 16006
0300725485149402000090910533+43150-093333FM-15+0364MCW  V0201805N00525220005MN0112005N1+01895+01785100895ADDGF100991999999999999999999MA1101025999999MW1001REMMET071KMCW 091053Z AUTO 18010KT 7SM CLR 19/18 A2983 RMK AO2 SLP089 T01890178;EQDQ01+000000PRSWM2N01 00000JPWTH 0QNNAA1D0 00000BA1 0 00000GA1U0 99999KA1D0 00064JA1 0 00178LA1 0 00700CA1 0 02983NA1 0 00000QA1 0 10089SA1D0 00066RA1 0 00189YA1 0 18010
0054725485149402000091106009+43150-093333NSRDB+036499999V020999999999999999999999999999+99999+99999999999ADDGP10060000002000000002000000002000GR100600000900009
0685725485149402000091205596+43154-093327SOD  +0373KMCW V020999999999999999999999999999+99999+99999999999ADDAA124000096KA1240M+03505KA2240N+01005MG1096219999994OE11240165433017405OE22240134132017415OE33240067199999995REMSOD54524 HR PRECIPITATION (IN): 0.00 24 HR MAX TEMP (F): 9524 HR MAX TEMP TIME (LST):1419 24 HR MIN TEMP (F): 5024 HR MIN TEMP TIME (LST):2359 AVERAGE STATION PRESSURE:28.41  PEAK WIND SPEED (MPH): 37 PEAK WIND DIR (DEG):330 PEAK WIND TIME (LST):1740  FASTEST 2MIN SPEED (MPH): 30FASTEST 2MIN DIR (DEG):320 FASTEST 2MIN TIME (LST):1741 AVERAGE WIND SPEED (MPH):15.0 24 HR AVG TEMP (F):73 HOURLY INCREMENTAL PRECIPITATION VALUES (IN):.00  .00  .00  .00  .00  .00  .00  .00  .00  .00  .00  .00  .00  .00  .00  .00  .00  .00  .00  .00  .00  .00  .00  .00EQDR01  0.007AAP092
0054725485149402000091609009+43150-093333NSRDB+036499999V020999999999999999999999999999+99999+99999999999ADDGP10060000002000000002000000002000GR100600000900009
0054725485149402000091906009+43150-093333NSRDB+036499999V020999999999999999999999999999+99999+99999999999ADDGP10060000002000000002000000002000GR100600000900009
0054725485149402000092008009+43150-093333NSRDB+036499999V020999999999999999999999999999+99999+99999999999ADDGP10060000002000000002000000002000GR100600000900009
0054725485149402000092305009+43150-093333NSRDB+036499999V020999999999999999999999999999+99999+99999999999ADDGP10060000002000000002000000002000GR100600000900009
0312725485149402000092613533+43150-093333FM-15+0364MCW  V0202305N00415220005MN0160005N1+01115+00285101885ADDGF100991999999999999999999MA1101865999999MW1001OC100821REMMET075KMCW 261353Z AUTO 23008G16KT 10SM CLR 11/03 A3008 RMK AO2 SLP188 T01110028;EQDQ01+000000PRSWM2N01 00000JPWTH 0QNNAA1D0 00000BA1 0 00000GA1U0 99999KA1D0 00037JA1 0 00028LA1 0 01000CA1 0 03008NA1 0 00000QA1 0 10188SA1D0 00052RA1 0 00111YA1 0 23008
0301725485149402000092816533+43150-093333FM-15+0364MCW  V0201605N00625220005MN0160005N1+01895+01115102575ADDGF100991999999999999999999MA1102575999999MW1001REMMET072KMCW 281653Z AUTO 16012KT 10SM CLR 19/11 A3029 RMK AO2 SLP257 T01890111;EQDQ01+000000PRSWM2N01 00000JPWTH 0QNNAA1D0 00000BA1 0 00000GA1U0 99999KA1D0 00052JA1 0 00111LA1 0 01000CA1 0 03029NA1 0 00000QA1 0 10257SA1D0 00066RA1 0 00189YA1 0 16012
037672548514940200010051053C+43150-093333FM-15+0364MCW  V0200505N00315015245MN0160005N1+00835+00335101675ADDAA101000095GD13995+0152459GD24995+0182959GF108991999999999999999999MA1101695999999MW1001REMMET084KMCW 051053Z AUTO 05006KT 10SM BKN050 OVC060 08/03 A3003 RMK AO2 SLP167 T00830033 $;EQDQ01+000000PRSWM2N01 00000JPWTH 0QNNAA1D0 04050BA1 0 04050AA1D0 06060BA1 0 06060GA1 0 00050KA1D0 00038JA1 0 00033LA1 0 01000CA1 0 03003NA1 0 00000QA1 0 10167SA1D0 00047RA1 0 00083YA1 0 05006
0054725485149402000100612009+43150-093333NSRDB+036499999V020999999999999999999999999999+99999+99999999999ADDGP10060000002000000002000000002000GR100600000900009
033072548514940200010130653C+43150-093333FM-15+0364MCW  V0201905N00625033535MN0160005N1+01725+01065101485ADDAA101000095GD13995+0335359GF107991999999999999999999MA1101595999999MW1001REMMET075KMCW 130653Z AUTO 19012KT 10SM BKN110 17/11 A3000 RMK AO2 SLP148 T01720106;EQDQ01+000000PRSWM2N01 00000JPWTH 0QNNAA1D0 04110BA1 0 04110GA1 0 00110KA1D0 00051JA1 0 00106LA1 0 01000CA1 0 03000NA1 0 00000QA1 0 10148SA1D0 00063RA1 0 00172YA1 0 19012
0071725485149402000101720009+43150-093333NSRDB+036499999V020999999999999999999999999999+99999+99999999999ADDGP10060038102009023202021025302009GQ100600568920729GR100600754913779
0054725485149402000101905009+43150-093333NSRDB+036499999V020999999999999999999999999999+99999+99999999999ADDGP10060000002000000002000000002000GR100600000900009
0054725485149402000102110009+43150-093333NSRDB+036499999V020999999999999999999999999999+99999+99999999999ADDGP10060000002000000002000000002000GR100600000900009
0054725485149402000102201009+43150-093333NSRDB+036499999V020999999999999999999999999999+99999+99999999999ADDGP10060000002000000002000000002000GR100600000900009
0054725485149402000102206009+43150-093333NSRDB+036499999V020999999999999999999999999999+99999+99999999999ADDGP10060000002000000002000000002000GR100600000900009
044172548514940200010241153C+43150-093333FM-15+0364MCW  V0201805N00215000305MN0004005N1+01395+01395102775ADDAA101000095AA206000391AA324000391GD15995+0003059GF109991999999000251999999KA1999M+01561KA2999N+01391MA1102815999999MD1310041+9999MW1455REMMET108KMCW 241153Z AUTO 18004KT 1/4SM FG VV001 14/14 A3036 RMK AO2 SLP277 60001 70001 T01390139 10156 20139 53004;EQDQ01+000003PRSWM1Q02    003PRSWM1N01 00070JPWTH 0QNNAA1D0 07001BA1 0 07001GA1 0 00001KA1D0 00057JA1 0 00139LA1 0 00025CA1 0 03036NA1 0 00070QA1 0 10277SA1D0 00057RA1 0 00139YA1 0 18004
0054725485149402000110506009+43150-093333NSRDB+036499999V020999999999999999999999999999+99999+99999999999ADDGP10060000002000000002000000002000GR100600000900009
037072548514940200011051153C+43150-093333FM-15+0364MCW  V0201605N00525220005MN0160005N1+00285+00065101155ADDAA101000095GF100991999999999999999999KA1999M+00281KA2999N+00221MA1101125999999MD1710051+9999MW1001REMMET090KMCW 051153Z AUTO 16010KT 10SM CLR 03/01 A2986 RMK AO2 SLP115 T00280006 10028 20022 57005;EQDQ01+000000PRSWM2N01 00000JPWTH 0QNNAA1D0 00000BA1 0 00000GA1U0 99999KA1D0 00033JA1 0 00006LA1 0 01000CA1 0 02986NA1 0 00000QA1 0 10115SA1D0 00037RA1 0 00028YA1 0 16010
0054725485149402000110606009+43150-093333NSRDB+036499999V020999999999999999999999999999+99999+99999999999ADDGP10060000002000000002000000002000GR100600000900009
037772548514940200011070753C+43150-093333FM-15+0364MCW  V0202005N00675000915MN0080005N1+00725+00725099625ADDAA101000095GD14995+0009159GF108991999999999999999999MA1099635999999MW1101MW2455OC101031REMMET092KMCW 070753Z AUTO 20013G20KT 5SM BR OVC003 07/07 A2942 RMK AO2 CIG 001V008 SLP962 T00720072;EQDQ01+000003PRSWM1Q02    003PRSWM1N01 00070JPWTH 0QNNAA1D0 06003BA1 0 06003GA1 0 00003KA1D0 00045JA1 0 00072LA1 0 00500CA1 0 02942NA1 0 00070QA1 0 09962SA1D0 00045RA1 0 00072YA1 0 20013
0071725485149402000110813009+43150-093333NSRDB+036499999V020999999999999999999999999999+99999+99999999999ADDGP10060000002000000002000000002000GQ100600899911289GR100600000900129
0054725485149402000110910009+43150-093333NSRDB+036499999V020999999999999999999999999999+99999+99999999999ADDGP10060000002000000002000000002000GR100600000900009
039072548514940200011092353C+43150-093333FM-15+0364MCW  V0203205N00725003965MN0160005N1-00225-00445101235ADDAA101000095GD14995+0039659GF108991999999999999999999KA1999M-00061KA2999N-00221MA1101125999999MD1310211+9999MW1001REMMET095KMCW 092353Z AUTO 32014KT 10SM OVC013 M02/M04 A2986 RMK AO2 SLP123 T10221044 11006 21022 53021;EQDQ01+000000PRSWM2N01 00000JPWTH 0QNNAA1D0 06013BA1 0 06013GA1 0 00013KA1D0 00024JA1 0-00044LA1 0 01000CA1 0 02986NA1 0 00000QA1 0 10123SA1D0 00028RA1 0-00022YA1 0 32014
033272548514940200011101553C+43150-093333FM-15+0364MCW  V0202905N00465002745MN0160005N1-00335-00565102385ADDAA101000095GD14995+0027459GF108991999999999999999999MA1102275999999MW1001REMMET077KMCW 101553Z AUTO 29009KT 10SM OVC009 M03/M06 A3020 RMK AO2 SLP238 T10331056;EQDQ01+000000PRSWM2N01 00000JPWTH 0QNNAA1D0 06009BA1 0 06009GA1 0 00009KA1D0 00022JA1 0-00056LA1 0 01000CA1 0 03020NA1 0 00000QA1 0 10238SA1D0 00026RA1 0-00033YA1 0 29009
0272725485149402000111120003+43150-093333FM-15+0364MCW  V0201005N00675004275MN009600599+00175-00115102295ADDAA101000095GD14995+0042759GP10060014302009000002021014302009GQ100600645920459GR100600601913969MA1102205999999MW1055EQDN01 00081JPWTH 0QNNAA1D0 06014BA1 0 06014GA1 0 00014KA1D0 00030JA1 0-00011LA1 0 00600CA1 0 03018NA1 0 00081QA1 0 10229SA1D0 00035RA1 0 00017YA1 0 10013
034972548514940200011131953C+43150-093333FM-15+0364MCW  V0203505N00625003665MN0160005N1-00175-00395101015ADDAA101000025GD14995+0036659GF108991999999999999999999MA1100915999999MW1001REMMET094KMCW 131953Z AUTO 35012KT 10SM OVC012 M02/M04 A2980 RMK AO2 SNB1859E15 SLP101 P0000 T10171039;EQDQ01+000000PRSWM2N01 00000JPWTH 0QNNAA1D0 06012BA1 0 06012GA1 0 00012KA1D0 00025JA1 0-00039LA1 0 01000CA1 0 02980NA1 0 00000QA1 0 10101SA1D0 00029RA1 0-00017YA1 0 35012
041872548514940200011191153C+43150-093333FM-15+0364MCW  V0202505N00575024385MN0128005N1-00115-00225100835ADDAA101000025AA206000021GD14995+0243859GF108991999999999999999999KA1999M-00061KA2999N-00721MA1100715999999MD1610131+9999MW1001REMMET112KMCW 191153Z AUTO 25011KT 8SM OVC080 M01/M02 A2974 RMK AO2 SNE15 SLP083 P0000 60000 T10111022 11006 21072 56013;EQDQ01+000000PRSWM2N01 00000JPWTH 0QNNAA1D0 06080BA1 0 06080GA1 0 00080KA1D0 00028JA1 0-00022LA1 0 00800CA1 0 02974NA1 0 00000QA1 0 10083SA1D0 00030RA1 0-00011YA1 0 25011
0054725485149402000112307009+43150-093333NSRDB+036499999V020999999999999999999999999999+99999+99999999999ADDGP10060000002000000002000000002000GR100600000900009
036272548514940200011240253C+43150-093333FM-15+0364MCW  V0202605N00265220005MN0020005N1-00565-00615102245ADDAA101000095GF100991999999999999999999MA1102075999999MD1010041+9999MW1101MW2455REMMET086KMCW 240253Z AUTO 26005KT 1 1/4SM BR CLR M06/M06 A3014 RMK AO2 SLP224 T10561061 50004;EQDQ01+000003PRSWM1Q02    003PRSWM1N01 00070JPWTH 0QNNAA1D0 00000BA1 0 00000GA1U0 99999KA1D0 00021JA1 0-00061LA1 0 00125CA1 0 03014NA1 0 00070QA1 0 10224SA1D0 00022RA1 0-00056YA1 0 26005
0272725485149402000112414003+43150-093333FM-15+0364MCW  V0202005N00155220005MN003200599-00895-01005102195ADDAA101000095GD10995+9999999GP10060000602009013602021000302009GQ100600871912199GR100600048909489MA1102035999999MW1455EQDN01 00070JPWTH 0QNNAA1D0 00000BA1 0 00000GA1U0 99999KA1D0 00014JA1 0-00100LA1 0 00200CA1 0 03013NA1 0 00070QA1 0 10219SA1D0 00016RA1 0-00089YA1 0 20003
0054725485149402000112508009+43150-093333NSRDB+036499999V020999999999999999999999999999+99999+99999999999ADDGP10060000002000000002000000002000GR100600000900009
0054725485149402000112709009+43150-093333NSRDB+036499999V020999999999999999999999999999+99999+99999999999ADDGP10060000002000000002000000002000GR100600000900009
038072548514940200012011453C+43150-093333FM-15+0364MCW  V0200605N00675002745MN0128005N1-00175-00285103085ADDAA101000095AA203000021GD14995+0027459GF108991999999999999999999MA1102985999999MD1110221+9999MW1001REMMET100KMCW 011453Z AUTO 06013KT 8SM OVC009 M02/M03 A3041 RMK AO2 CIG 008V013 SLP308 60000 T10171028 51022;EQDQ01+000000PRSWM2N01 00000JPWTH 0QNNAA1D0 06009BA1 0 06009GA1 0 00009KA1D0 00027JA1 0-00028LA1 0 00800CA1 0 03041NA1 0 00000QA1 0 10308SA1D0 00029RA1 0-00017YA1 0 06013
037672548514940200012011953C+43150-093333FM-15+0364MCW  V0200405N00675010975MN0160005N1-00175-00505103295ADDAA101000095GD13995+0109759GD24995+0140259GF108991999999999999999999MA1103185999999MW1001REMMET084KMCW 011953Z AUTO 04013KT 10SM BKN036 OVC046 M02/M05 A3047 RMK AO2 SLP329 T10171050;EQDQ01+000000PRSWM2N01 00000JPWTH 0QNNAA1D0 04036BA1 0 04036AA1D0 06046BA1 0 06046GA1 0 00036KA1D0 00023JA1 0-00050LA1 0 01000CA1 0 03047NA1 0 00000QA1 0 10329SA1D0 00029RA1 0-00017YA1 0 04013
031572548514940200012031053C+43150-093333FM-15+0364MCW  V0201805N00415220005MN0144005N1-01285-01445103545ADDAA101000095GF100991999999999999999999MA1103355999999MW1001REMMET075KMCW 031053Z AUTO 18008KT 9SM CLR M13/M14 A3052 RMK AO2 SLP354 T11281144 $;EQDQ01+000000PRSWM2N01 00000JPWTH 0QNNAA1D0 00000BA1 0 00000GA1U0 99999KA1D0 00006JA1 0-00144LA1 0 00900CA1 0 03052NA1 0 00000QA1 0 10354SA1D0 00009RA1 0-00128YA1 0 18008
031572548514940200012031253C+43150-093333FM-15+0364MCW  V0201805N00525220005MN0112005N1-01065-01175103495ADDAA101000095GF100991999999999999999999MA1103285999999MW1001REMMET075KMCW 031253Z AUTO 18010KT 7SM CLR M11/M12 A3050 RMK AO2 SLP349 T11061117 $;EQDQ01+000000PRSWM2N01 00000JPWTH 0QNNAA1D0 00000BA1 0 00000GA1U0 99999KA1D0 00011JA1 0-00117LA1 0 00700CA1 0 03050NA1 0 00000QA1 0 10349SA1D0 00013RA1 0-00106YA1 0 18010
0054725485149402000120512009+43150-093333NSRDB+036499999V020999999999999999999999999999+99999+99999999999ADDGP10060000002000000002000000002000GR100600000900009
0054725485149402000120607009+43150-093333NSRDB+036499999V020999999999999999999999999999+99999+99999999999ADDGP10060000002000000002000000002000GR100600000900009
0286725485149402000120809003+43150-093333FM-15+0364MCW  V0203205N00675004275MN016000599-01005-01225102195ADDAA101000095GD13995+0042759GD24995+0061059GP10060000002000000002000000002000GR100600000900009MA1102075999999EQDN01 00000JPWTH 0QNNAA1D0 04014BA1 0 04014AA1D0 06020BA1 0 06020GA1 0 00014KA1D0 00010JA1 0-00122LA1 0 01000CA1 0 03014NA1 0 00000QA1 0 10219SA1D0 00014RA1 0-00100YA1 0 32013
031472548514940200012122253C+43150-093333FM-15+0364MCW  V0202005N00215220005MN0160005N1-01945-02335103345ADDAA101000095GF100991999999999999999999MA1103015999999MW1001REMMET074KMCW 122253Z AUTO 20004KT 10SM CLR M19/M23 A3042 RMK AO2 SLP334 T11941233;EQDQ01+000000PRSWM2N01 00000JPWTH 0QNNAA1D0 00000BA1 0 00000GA1U0 99999KA1D0-00010JA1 0-00233LA1 0 01000CA1 0 03042NA1 0 00000QA1 0 10334SA1D0-00003RA1 0-00194YA1 0 20004
0243725485149402000121314384+43150-093320FM-15+0370KMCW V0201301N005110060019N0040231N1-01701-01901999999ADDAA101000021GD13991+0060019GD23991+0135019GD34991+0180019GF108991999999999999999999MA1102641999999MW1711REMMET093KMCW 131438Z AUTO 13010KT 2 1/2SM -SN BKN020 BKN045 OVC065 M17/M19 A3031 RMK AO2 SNB20 P0000;EQDQ01+000003PRSWM1Q02    003PRSWM1
0170725485149402000121415494+43150-093320FM-15+0370KMCW V0209999C000010003019N0040231N1-01901-02101999999ADDGD14991+0003019GF108991999999999999999999MA1102741999999MW1101REMMET061KMCW 141549 00000KT 2 1/2SM BR OVC001 M19/M21 A3034 RMK TSNO;EQDQ01+000003PRSWM1Q02    003PRSWM1
0054725485149402000122705009+43150-093333NSRDB+036499999V020999999999999999999999999999+99999+99999999999ADDGP10060000002000000002000000002000GR100600000900009
0054725485149402000123002009+43150-093333NSRDB+036499999V020999999999999999999999999999+99999+99999999999ADDGP10060000002000000002000000002000GR100600000900009
0054725486999992000010402009+42050-093850NSRDB+035499999V020999999999999999999999999999+99999+99999999999ADDGP10060000002000000002000000002000GR100600000900009
0054725486999992000010807009+42050-093850NSRDB+035499999V020999999999999999999999999999+99999+99999999999ADDGP10060000002000000002000000002000GR100600000900009
0071725486999992000011100009+42050-093850NSRDB+035499999V020999999999999999999999999999+99999+99999999999ADDGP10060000002009000002021000002009GQ100600899924039GR100600000900359
0145725486999992000011216254+42050-093850FM-15+0354KBNW V0201101N010312200019N0160931N1+00001-00701999999ADDGF100991999999999999999999MA1101151999999MW1001OC101341REMMET059KBNW 121625Z AUTO 11020G26KT 10SM CLR 00/M07 A2987 RMK AO1;EQDQ01+000000PRSWM2
0135725486999992000011404454+42050-093850FM-15+0354KBNW V0203601N000512200019N0160931N1-00601-01001999999ADDGF100991999999999999999999MA1103891999999MW1001REMMET057KBNW 140445Z AUTO 36001KT 10SM CLR M06/M10 A3068 RMK AO1;EQDQ01+000000PRSWM2
0153725486999992000011407454+42050-093850FM-15+0354KBNW V0203601N001010360019N0160931N1-00701-01001999999ADDGD13991+0360019GF107991999999999999999999MA1103831999999MW1001REMMET060KBNW 140745Z AUTO 36002KT 10SM BKN120 M07/M10 A3066 RMK AO1;EQDQ01+000000PRSWM2
0071725486999992000011815009+42050-093850NSRDB+035499999V020999999999999999999999999999+99999+99999999999ADDGP10060010002009035302021005602009GQ100600828912629GR100600176914139
0134725486999992000011819454+42050-093850FM-15+0354KBNW V0203101N003612200019N0160931N1+00401-00601999999ADDGF100991999999999999999999MA1102131999999MW1001REMMET056KBNW 181945Z AUTO 31007KT 10SM CLR 04/M06 A3016 RMK AO1;EQDQ01+000000PRSWM2
0151725486999992000011919454+42050-093850FM-15+0354KBNW V0201001N002610012019N0080461N1+00001-00201999999ADDGD14991+0012019GF108991999999999999999999MA1100511999999MW1001REMMET058KBNW 191945Z AUTO 10005KT 5SM OVC004 00/M02 A2968 RMK AO1;EQDQ01+000000PRSWM2
0071725486999992000012200009+42050-093850NSRDB+035499999V020999999999999999999999999999+99999+99999999999ADDGP10060000002009000002021000002009GQ100600890924219GR100600006903189
0054725486999992000012211009+42050-093850NSRDB+035499999V020999999999999999999999999999+99999+99999999999ADDGP10060000002000000002000000002000GR100600000900009
0071725486999992000012320009+42050-093850NSRDB+035499999V020999999999999999999999999999+99999+99999999999ADDGP10060046502009072002021014002009GQ100600633919669GR100600635914129
0134725486999992000012417454+42050-093850FM-15+0354KBNW V0202001N006212200019N0160931N1+00101-00501999999ADDGF100991999999999999999999MA1101521999999MW1001REMMET056KBNW 241745Z AUTO 20012KT 10SM CLR 01/M05 A2998 RMK AO1;EQDQ01+000000PRSWM2
0054725486999992000012502009+42050-093850NSRDB+035499999V020999999999999999999999999999+99999+99999999999ADDGP10060000002000000002000000002000GR100600000900009
0054725486999992000012511009+42050-093850NSRDB+035499999V020999999999999999999999999999+99999+99999999999ADDGP10060000002000000002000000002000GR100600000900009
0186725486999992000012705053+42050-093850FM-15+0354KBNW V0201001N002112200019N0160931N1-01501-01801999999ADDGF100991999999999999999999GP10060000002000000002000000002000GR100600000900009MA1102881999999MW1001REMMET057KBNW 270505Z AUTO 10004KT 10SM CLR M15/M18 A3038 RMK AO1;EQDQ01+000000PRSWM2
0071725486999992000012922009+42050-093850NSRDB+035499999V020999999999999999999999999999+99999+99999999999ADDGP10060007302009000002021007302009GQ100600732922509GR100600408914109
0054725486999992000013001009+42050-093850NSRDB+035499999V020999999999999999999999999999+99999+99999999999ADDGP10060000002000000002000000002000GR100600000900009
0220725486999992000013008454+42050-093850FM-15+0354KBNW V0203501N004110105019N0040231N1-00501-00801999999ADDGD12991+0054019GD23991+0105019GD34991+0144019GF108991999999999999999999MA1102371999999MW1001REMMET097KBNW 300845Z AUTO 35008KT 2 1/2SM SCT018 BKN035 OVC048 M05/M08 A3023 RMK AO1 PARTIAL OBSCURATION;EQDQ01+000000PRSWM2
0071725486999992000020119009+42050-093850NSRDB+035499999V020999999999999999999999999999+99999+99999999999ADDGP10060010202009000002021010202009GQ100600593918039GR100600719914099
0135725486999992000020516454+42050-093850FM-15+0354KBNW V0202501N005112200019N0160931N1-00101-00601999999ADDGF100991999999999999999999MA1102681999999MW1001REMMET057KBNW 051645Z AUTO 25010KT 10SM CLR M01/M06 A3032 RMK AO1;EQDQ01+000000PRSWM2
0071725486999992000021400009+42050-093850NSRDB+035499999V020999999999999999999999999999+99999+99999999999ADDGP10060001302009015202021000802009GQ100600865924889GR100600062910179
0071725486999992000021721009+42050-093850NSRDB+035499999V020999999999999999999999999999+99999+99999999999ADDGP10060007902009000002021007902009GQ100600608921429GR100600683914019
0071725486999992000021814009+42050-093850NSRDB+035499999V020999999999999999999999999999+99999+99999999999ADDGP10060000002009000002021000002009GQ100600859910979GR100600085911789
0071725486999992000021900009+42050-093850NSRDB+035499999V020999999999999999999999999999+99999+99999999999ADDGP10060001102009000002021001102009GQ100600859925059GR100600082911559
0054725486999992000021901009+42050-093850NSRDB+035499999V020999999999999999999999999999+99999+99999999999ADDGP10060000002000000002000000002000GR100600000900009
