0214673460999992000090107004-26270+032170FM-12+010499999V02099999999992200019N0300001N1+02201+01721101661ADDAA199000091GF101991011011008001001001KA1120N+01901MD1210111+9999OA159999999REMSYN092AAXX  01074 67346 32580 1//// 10220 20172 40166 52011 81100 333 20190 50//0 55071 555 10000;EQDQ01  00002PRCP99Q02  00702WGOSPD
0112673460999992000090815004-26270+032170FM-12+010499999V02099999999992200019N0300001N1+02251+01191102471ADDGF103991031081008001001001MD1310021+9999REMSYN060AAXX  08154 67346 42580 3//// 10225 20119 40247 53002 83800;
0112673460999992000110515004-26270+032170FM-12+010499999V02099999999990075019N0300001N1+02601+02171101711ADDGF107991071021008001999999MD1710061+9999REMSYN060AAXX  05154 67346 42580 7//// 10260 20217 40171 57006 872//;
0147674130999992000052912004-08850+031330FM-12+1673FLBA V0201601N004112200019N0300001N1+02451+00951999999ADDGA1041+015009029GF104991041011017501001001MD1999999+0071ME1315189REMSYN070AAXX  29124 67413 42780 41608 10245 20095 48518 84100 333 58007 84850;
0269674130999992000122012004-08850+031320FM-12+1673FLBA V0203301N004610090019N0300001N1+01991+01811999999ADDAY191061AY281061GA1021+006009069GA2041+009009089GA3021+033009039GA4061+090009029GF107991051081008001061081MD1999999-0071ME1315429MW1291REMSYN122AAXX  20124 67413 41580 73309 10199 20181 48542 72998 85868 333 59007 82620 84830 82361 86280 555 66051 77/// 8856/ 98068;
0261674210999992000020706004-09700+033270FM-12+1278FWCT V0209999C00001045001CN0100001N1+01761+01711999999ADDAA124047091AY161061AY221061GA1041+004509069GF107991041071004501071999KA1120N+01651MA1999999087671MD1999999+0121ME1315509MW1611OA150600301REMSYN112AAXX  07061 67421 11460 70000 10176 20171 38767 48550 60474 76162 8477/ 333 20165 55034 58012 70468 84615 87458;
0233674210999992000021906004-09700+033270FM-12+1278FWCT V0202401N001010060019N0300001N1+01801+01731999999ADDAA124007191GA1051+006009069GF107991051051008001071999KA1120N+01721MA1999999087541MD1999999+0251ME1315379OA150600101REMSYN106AAXX  19061 67421 12580 72401 10180 20173 38754 48537 60074 8557/ 333 20172 55011 58025 70068 85620 87458;
0172674210999992000070706004-09700+033260FM-12+1278FWCT V0202401N001010450019N0600001N1+01351+01081105641ADDAA199000091GF105991011011008001031001KA1999N+00951MA1999999087871REMSYN076AAXX  07061 67421 32586 52401 10135 20108 38787 40564 81130 333 007// 20095;EQDQ01  00002PRCP99
0226674210999992000121912004-09700+033260FM-12+1278FWCT V0201501N004010450019N0750001N1+02691+01731999999ADDAA199000091GA1031+012009089GA2011+999999099GF106991031021012501031031MA1999999087071MD1999999-0061ME1314929REMSYN088AAXX  19121 67421 32689 61504 10269 20173 38707 48492 83233 333 59006 83840 819// 86360;EQDQ01  00002PRCP99
0233674230999992000031406004-09950+033880FM-12+0529FWKA V0209999C000012200019N0750001N1+02701+02041999999ADDAA124000891GA1011+009009089GF104991011011012501031021KA1120N+02201MA1999999095311MD1999999-0041ME1315309OA150600801REMSYN106AAXX  14061 67423 12689 40000 10270 20204 39531 48530 69984 81132 333 20220 55085 59004 70008 81830 84080;
0178674230999992000042609004-09950+033880FM-12+0529FWKA V0201401N002012200019N0750001N1+02851+01691999999ADDAA199000091GA1011+012009029GF101991011011012501001001MA1999999095531ME1315419REMSYN070AAXX  26091 67423 32689 11402 10285 20169 39553 48541 81100 333 81840;EQDQ01  00002PRCP99
0204674230999992000051312004-09950+033880FM-12+0529FWKA V0201401N00601045001CN0750001N1+02851+01791999999ADDAA199000091GA1021+015009089GF107991021011017501031001MA1999999095541MD1999999+0111ME1315529REMSYN082AAXX  13121 67423 32789 71406 10285 20179 39554 48552 82130 333 58011 82850 86360;EQDQ01  00002PRCP99
0198674230999992000092112004-09950+033880FM-12+0529FWKA V0201201N008012200019N0750001N1+02781+01151999999ADDAA199000091GA1011+015009029GF102991011011017501031001MA1999999095501MD1999999+0061ME1315369REMSYN076AAXX  21121 67423 32789 21208 10278 20115 39550 48536 81130 333 58006 81850;EQDQ01  00002PRCP99
0205674240999992000011106004-10970+033730FM-12+110099999V0209999C00001045001CN0300001N1+02281+01761999999ADDAA124007991AY161061AY221061GA1011+007509089GF107991011011008001031999KA1120N+01831MW1031OA150600201REMSYN094AAXX  11061 67424 11580 70000 10228 20176 60084 70362 8113/ 333 20183 55028 70079 81825 87359;
0229674240999992000030306004-10970+033730FM-12+110099999V0209999C000010270019N0300001N1+02041+01901999999ADDAA199000091GA1011+006009069GA2071+027009039GF107991011051008001031999KA1240M+02921KA2120N+01861OA150600601REMSYN092AAXX  03061 67424 32580 70000 10204 20190 8153/ 333 20186 55062 81620 87359 555 10292 7//92;EQDQ01  00002PRCP99
0148674240999992000032212004-10970+033730FM-12+110099999V0201001N00101045001CN0300001N1+02421+01831999999ADDAA199000091GA1031+009009089GF107991021021012501031999REMSYN064AAXX  22121 67424 32680 71001 10242 20183 8223/ 333 83830 87359;EQDQ01  00002PRCP99
0207674240999992000041906004-10970+033730FM-12+110099999V0200701N001012200019N0300001N1+02321+01751999999ADDAA199000091GA1031+007509089GF103991031011008001031011KA1240M+02831KA2120N+01561OA150601001REMSYN086AAXX  19061 67424 32580 30701 10232 20175 83131 333 20156 55106 83825 555 10283 7//11;EQDQ01  00002PRCP99
0190674240999992000070906004-10970+033730FM-12+110099999V0200601N00101045001CN0300001N1+01581+01051999999ADDAA199000091GA1031+007509089GF105991031011008001031001KA1120N+01041OA150600901REMSYN082AAXX  09061 67424 32580 50601 10158 20105 83130 333 008// 20104 55090 83825 85360;EQDQ01  00002PRCP99
0170674240999992000092612004-10970+033730FM-12+110099999V0201101N003012200019N0150001N1+03011+00731999999ADDAA199000091AY101061AY201061GA1031+013509029GF103991031021012501001001MW1051REMSYN064AAXX  26121 67424 31665 31103 10301 20073 70500 83200 333 83845;EQDQ01  00002PRCP99
0182674610999992000032006004-11100+028850FM-12+1384FLMA V0200301N000510390019N0500001N1+02001+99999999999ADDAA124001091GA1071+039009079GF107991071001999999071999KA1120M+02631KA2120N+01701ME1315169REMSYN082AAXX  20064 67461 12984 70301 10200 48516 60014 8707/ 333 10263 20170 58997 87363;
0135674610999992000062209004-11100+028840FM-12+1384FLMA V0201201N004112200019N0500001N1+02301+01111999999ADDGA1001+999999999GF100991001001999999001001MD1999999+0031ME1315439REMSYN058AAXX  22094 67461 42984 01208 10230 20111 48543 333 58003;
0153674610999992000122012004-11100+028840FM-12+1384FLMA V0203601N000510150019N0500001N1+02701+01861999999ADDGA1051+015009089GF107991051021017501001081MD1999999+0071ME1314929REMSYN076AAXX  20124 67461 42784 73601 10270 20186 48492 85208 333 58007 85850 87280;
0308674750999992000032906004-10220+031130FM-12+1384FLKS V0201301N003610036019N0300001N1+01941+01781999999ADDAA124008991AY141061AY221061GA1061+003609069GA2021+033009039GA3041+090009009GF106991061051004501031021IA2999+01469KA1120M+02801KA2120N+01641MD1999999+0031ME1315249MW1281REMSYN128AAXX  29064 67475 11480 61307 10194 20178 48524 60094 72842 86532 333 10280 20164 58003 86612 82361 84080 555 00146 20001 91020;
0147674770999992000081509004-11890+031430FM-12+1402FLMP V0201101N004110111019N0300001N1+01831+00601999999ADDGA1051+011109029GF105991051011012501001001MD1999999+0051ME1315819REMSYN070AAXX  15094 67477 42680 51108 10183 20060 48581 85100 333 58005 85837;
0246674850999992000022206004-11880+033620FM-12+1351FWMZ V0200201N002010450019N0400001N1+02061+01741999999ADDAA199000091GA1011+006009089GF107991011011008001031021KA1120N+01701MA1999999086591MD1999999-0011ME1315089OA150601001REMSYN100AAXX  22061 67485 32582 70202 10206 20174 38659 48508 81132 333 20170 50561 55106 59001 81820 85360;EQDQ01  00002PRCP99
0204674890999992000020315004-11450+034020FM-12+1253FWUU V0202901N005012200019N0300001N1+02551+01731999999ADDAA199000091GA1011+010509089GF104991011011012501031041MA1999999087161MD1999999-0071ME1314689REMSYN082AAXX  03151 67489 32680 42905 10255 20173 38716 48468 81134 333 59007 81835 84080;EQDQ01  00002PRCP99
0274674890999992000062206004-11450+034190FM-12+1253FWUU V0201301N003012200019N0300001N1+01591+01591999999ADDAA199000091AY141061AY221061GA1021+003009089GF104991021011004501001011KA1120N+00781MA1999999087991MD1999999+0041ME1315469MW1281OA150601001REMSYN106AAXX  22061 67489 31480 41303 10159 20159 38799 48546 72842 82101 333 006// 20078 55105 58004 82810 84075;EQDQ01  00002PRCP99
0232674890999992000081604004-11450+034010FM-12+1253FWUU V0201401N00301007501CN0090001N1+01401+01341999999ADDAA199000091AY161999AY221999GA1031+001509079GF107991071071008001999999MA1999999088071MD1999999-0041ME1315529MW1401REMSYN088AAXX  16041 67489 32559 71403 10140 20134 38807 48552 74062 877// 333 59004 83705 87610;EQDQ01  00002PRCP99
0226674890999992000090212004-11450+034010FM-12+1253FWUU V0201301N004012200019N0200001N1+02451+01241999999ADDAA199000091AY111061AY211061GA1011+013509029GF101991011011012501001001MA1999999087701MD1999999-0061ME1315199MW1051REMSYN082AAXX  02121 67489 31670 11304 10245 20124 38770 48519 70511 81100 333 59006 81845;EQDQ01  00002PRCP99
0226674890999992000091112004-11450+034010FM-12+1253FWUU V0201201N007012200019N0200001N1+02601+01231999999ADDAA199000091AY101061AY201061GA1041+013509029GF104991041011012501001001MA1999999087731MD1999999-0021ME1315239MW1051REMSYN082AAXX  11121 67489 31670 41207 10260 20123 38773 48523 70500 84100 333 59002 84845;EQDQ01  00002PRCP99
0232674890999992000111509004-11450+034010FM-12+1253FWUU V0200901N004010120019N0200001N1+02751+01901999999ADDAA199000091AY121031AY221031GA1011+010509099GF107991071091012501999999MA1999999087381MD1999999+0021ME1314929MW1171REMSYN088AAXX  15091 67489 31670 70904 10275 20190 38738 48492 71722 879// 333 58002 81935 86840;EQDQ01  00002PRCP99
0212674930999992000092806004-11600+034300FM-12+050099999V0203001N00101045001CN0150001N1+02371+01831999999ADDAA199000091AY121061AY221061GA1021+007509089GF107991021011008001031081KA1120N+01531MW1051OA150601001REMSYN082AAXX  28061 67493 31565 73001 10237 20183 70522 82138 333 20153 55104 82825 87280;EQDQ01  00002PRCP99
0217675610999992000041106004-13000+028650FM-12+1270FLND V0209999C000012200019N0300001N1+01941+01581999999ADDAA199000091GA1011+036009039GF101991011001999999031001KA1120M+02921KA2120N+01441ME1315239REMSYN098AAXX  11064 67561 32980 10000 10194 20158 48523 81030 333 10292 20144 48002 81362 555 00/// 91020;EQDQ01  00002PRCP99
0191675610999992000041616004-13000+028650FM-15+1270FLND V0201801N002612200019N0112651N1+02201+01701999999ADDGA1021+012009099GA2021+030009999GF104991999999999999999999MA1101801999999MW1161REMMET065FLND 161600Z 18005KT 9999 VCSH SCT040CB SCT100 22/17 Q1018 NOSIG;EQDQ01+000003PRSWM1Q02    003PRSWM1
0198675610999992000062115004-13000+028650FM-12+1270FLND V0200801N011812200019N0300001N1+02551+01091999999ADDGA1011+021009049GF101991011041022501999001KA1240M+02741MD1999999-0071ME1315129REMSYN089AAXX  21154 67561 42880 10823 10255 20109 48512 81400 333 59007 81457 555 10274 Q1 018.9;EQDQ01+000002SCOMCG
0176675610999992000072909004-13000+028650FM-12+1270FLND V0200801N002112200019N0250001N1+02211+00621999999ADDAY101031AY201031GA1001+999999999GF100991001001999999001001MD1999999-0211ME1315389MW1051REMSYN077AAXX  29094 67561 41975 00804 10221 20062 48538 70500 333 59021 555 Q1 021.5;
0175675610999992000081712004-13000+028650FM-12+1270FLND V0200901N002612200019N0250001N1+02591+00591999999ADDAY101061AY201061GA1021+018009029GF102991021011017501001001MD1999999-0061ME1315349MW1051REMSYN076AAXX  17124 67561 41775 20905 10259 20059 48534 70500 82100 333 59006 82856;
0243675610999992000092706004-13000+028650FM-12+1270FLND V0200901N002610900019N0080001N1+02201+00841999999ADDAA199000091AY101061AY201061GA1061+090009089GF106991001001999999001081KA1120M+03251KA2120N+01611MD1999999-0031ME1315319MW1051REMSYN088AAXX  27064 67561 31958 60905 10220 20084 48531 70500 80008 333 10325 20161 59003 86280;EQDQ01  00002PRCP99
0181675610999992000092815004-13000+028650FM-12+1270FLND V0201101N00721105001CN0080001N1+02831+00691999999ADDAY121031AY221031GA1021+024009069GF107991021041022501001081MD1999999+0061ME1315069MW1041REMSYN082AAXX  28154 67561 41858 71114 10283 20069 48506 70422 82408 333 58006 82658 87280;
0225675610999992000122512004-13000+028650FM-12+1270FLND V0202901N003110126019N0250001N1+02771+01731999999ADDAY191061AY291061GA1011+012009099GA2051+012609069GA3031+033009039GF107991051051012501031091MD1999999-0131ME1314859MW1171REMSYN094AAXX  25124 67561 41675 72906 10277 20173 48485 71799 85539 333 59013 81940 85642 83361 87280;
0163675810999992000090109004-13540+032570FM-12+1032FLCP V0200801N007212200019N0200001N1+02951+00901999999ADDAY101031AY201031GA1001+999999999GF100991001001999999001001MD1999999+0011ME1315469MW1051REMSYN064AAXX  01094 67581 42970 00814 10295 20090 48546 70500 333 58001;
0166675830999992000062612004-12270+033190SY-MT+1143FLLD V0201501N00211012001CN0500001N1+02371+00951999999ADDGF105991051021012501001001MW1001REMSYN064AAXX  26124 67583 42684 51504 10237 20095 48/// 85200 333 85848;MET033FLLD 261200Z 15004KT CAVOK 24/10;EQDQ01+000000PRSWM2
0199675840999992000010506004-13020+033470FM-12+101599999V0200501N002010270019N0500001N1+02191+01991999999ADDAA124000591GA1041+006009069GA2031+027009039GF107991041051008001031081KA1120N+01881OA150600201REMSYN094AAXX  05061 67584 12584 70502 10219 20199 69954 84538 333 20188 55028 70005 84620 83359 87280;
0155675840999992000051706004-13020+033470FM-12+101599999V0200801N001012200019N0300001N1+01691+01141999999ADDAA199000091GA1001+999999999GF100991001001999999001001KA1120N+00831REMSYN058AAXX  17061 67584 32980 00801 10169 20114 333 20083 55121;EQDQ01  00002PRCP99
0196675860999992000020300004-13780+033770FM-12+1229FWLI V0203201N003010240019N0300001N1+01811+01661999999ADDGA1021+006009069GA2051+024009039GF107991021051008001031081MA1999999087691MD1999999-0041ME1314889REMSYN088AAXX  03001 67586 42580 73203 10181 20166 38769 48488 82538 333 59004 82620 85358 87275;
0235675860999992000032512004-13780+033770FM-12+1229FWLI V0200801N004010450019N0200001N1+02391+01721999999ADDAA199000021AY121061AY221061GA1031+010509089GA2011+999999099GF107991031021012501031031MA1999999087891MD1999999-0011ME1315029MW1151REMSYN094AAXX  25121 67586 31670 70804 10239 20172 38789 48502 71522 83233 333 59001 83835 819// 85359;
0254675860999992000033003004-13780+033770FM-12+1229FWLI V0201601N004011050019N0300001N1+01741+01691999999ADDAA199000091AY191031AY221031GA1021+006009069GA2011+999999099GF105991021091008001071061MA1999999087991MD1999999+0041ME1315179MW1291REMSYN094AAXX  30031 67586 31580 51604 10174 20169 38799 48517 72992 82976 333 58004 82620 819// 85275;EQDQ01  00002PRCP99
0198675860999992000040209004-13780+033770FM-12+1229FWLI V0201001N005010105019N0400001N1+02451+01671999999ADDAA199000091GA1061+010509029GF106991061021012501031031MA1999999088041MD1999999+0001ME1315269REMSYN076AAXX  02091 67586 32682 61005 10245 20167 38804 48526 86233 333 58000 86835;EQDQ01  00002PRCP99
0235675860999992000041603004-13780+033770FM-12+1229FWLI V0201901N002010450019N0200001N1+01721+01641999999ADDAA199000021AY121031AY221031GA1041+004509069GA2011+999999099GF107991041051004501031999MA1999999087961MD1999999+0031ME1315149MW1401REMSYN094AAXX  16031 67586 31470 71902 10172 20164 38796 48514 74022 8453/ 333 58003 84615 819// 87358;
0227675860999992000060912004-13780+033770FM-12+1229FWLI V0200701N007010120019N0750001N1+02231+01201999999ADDAA199000091GA1051+012009089GF105991051011012501001001KA1240M+02321MA1999999088401MD1999999-0021ME1315579REMSYN092AAXX  09121 67586 32689 50707 10223 20120 38840 48557 85100 333 59002 85840 555 10232 29053;EQDQ01  00002PRCP99
0227675860999992000062912004-13770+033760FM-12+1229FWLI V0200801N006010120019N0750001N1+01951+01101999999ADDAA199000091GA1061+012009089GF106991061021012501001001KA1240M+02201MA1999999088381MD1999999-0031ME1315529REMSYN092AAXX  29121 67586 32689 60806 10195 20110 38838 48552 86200 333 59003 86840 555 10220 29064;EQDQ01  00002PRCP99
0249675860999992000070612004-13770+033760FM-12+1229FWLI V0201401N007010900019N0600001N1+01981+00531999999ADDAA199000091GA1041+013509089GA2031+090009009GF105991041011012501001021KA1240M+02101MA1999999088431MD1999999+0031ME1315579REMSYN098AAXX  06121 67586 32686 51407 10198 20053 38843 48557 84102 333 58003 84845 83080 555 10210 29037;EQDQ01  00002PRCP99
0226675860999992000071000004-13770+033760FM-12+1229FWLI V0201701N004012200019N0100001N1+00831+00831999999ADDAA199000091AY141061AY201061GA1011+027009079GF101991011001999999031001MA1999999088401MD1999999-0051ME1315499MW1401REMSYN082AAXX  10001 67586 31960 11704 10083 20083 38840 48549 74040 81030 333 59005 81359;EQDQ01  00002PRCP99
0198675860999992000081509004-13770+033760FM-12+1229FWLI V0201501N005010090019N0300001N1+01681+01071999999ADDAA199000091GA1061+009009029GF106991061021008001031001MA1999999088711MD1999999+0101ME1315789REMSYN076AAXX  15091 67586 32580 61505 10168 20107 38871 48578 86230 333 58010 86830;EQDQ01  00002PRCP99
0252675860999992000081606004-13770+033760FM-12+1229FWLI V0201401N005012200019N0300001N1+01381+01081999999ADDAA124000791GA1021+006009029GF103991021011008001031001KA1120N+01121MA1999999088551MD1999999-0161ME1315639OA150699999REMSYN106AAXX  16061 67586 12580 31405 10138 20108 38855 48563 69904 82130 333 010// 20112 55026 59016 79999 82820;EQDQ01  00202WGOSPD
0214675860999992000090103004-13770+033760FM-12+1229FWLI V0200901N005012200019N0200001N1+01691+00881999999ADDAA199000091AY101031AY201031GA1001+999999999GF100991001001999999001001MA1999999088031MD1999999+0031ME1315299MW1051REMSYN070AAXX  01031 67586 31970 00905 10169 20088 38803 48529 70500 333 58003;EQDQ01  00002PRCP99
0226675860999992000091104004-13770+033760FM-12+1229FWLI V0200301N003012200019N0150001N1+01351+01041999999ADDAA199000091AY101999AY201999GA1011+030009079GF101991011001999999031001MA1999999088151MD1999999-0051ME1315299MW1051REMSYN082AAXX  11041 67586 31965 10303 10135 20104 38815 48529 70500 81030 333 59005 81360;EQDQ01  00002PRCP99
0198675860999992000110903004-13770+033760FM-12+1229FWLI V0200701N004010300019N0400001N1+01861+01401999999ADDAA199000091GA1061+030009079GF106991061001999999031001MA1999999087691MD1999999-0201ME1314919REMSYN076AAXX  09031 67586 32/82 60704 10186 20140 38769 48491 86030 333 59020 86360;EQDQ01  00002PRCP99
0198675910999992000020312004-12920+034270FM-12+0500FWKK V0203501N007010105019N0200001N1+02801+02081999999ADDAA199000091AY191061AY291061GA1021+010509099GA2031+010509089GF107991051091012501031031MW1171REMSYN076AAXX  03121 67591 31670 73507 10280 20208 71799 85933 333 82935 83835 85360;EQDQ01  00002PRCP99
0205675910999992000020706004-12920+034270FM-12+0500FWKK V0202801N00201045001CN0200001N1+02361+02231999999ADDAA124013091AY191061AY261061GA1011+009009099GF107991021091012501031031KA1120N+02051MW1171OA150600401REMSYN094AAXX  07061 67591 11670 72802 10236 20223 60134 71796 82933 333 20205 55045 70134 81930 86359;
0234675910999992000040106004-12920+034270FM-12+0500FWKK V0201801N005010075019N0300001N1+02551+02211999999ADDAA199000091AY191061AY211061GA1011+007509099GA2051+007509089GF107991061091008001031031KA1120N+02151MW1171OA150601101REMSYN088AAXX  01061 67591 31580 71805 10255 20221 71791 86933 333 20215 55112 81925 85825 86275;EQDQ01  00002PRCP99
0227675910999992000040806004-12920+034270FM-12+0500FWKK V0202001N006010270019N0300001N1+02451+01941999999ADDAA124000191AY161061AY221061GA1011+009009099GA2051+027009039GF107991011091012501031031KA1120N+02151MW1211OA150600801REMSYN100AAXX  08061 67591 11680 72006 10245 20194 69924 72162 81933 333 20215 55083 70002 81930 85359 87275;
0148675910999992000081712004-12910+034260FM-12+0500FWKK V0201401N00401045001CN0300001N1+02551+01711999999ADDAA199000091GA1021+010509089GF105991021011012501031001REMSYN064AAXX  17121 67591 32680 51404 10255 20171 82130 333 82835 84360;EQDQ01  00002PRCP99
0170675910999992000091212004-12910+034260FM-12+0500FWKK V0200901N002012200019N0150001N1+02901+01401999999ADDAA199000091AY101061AY201061GA1011+012009029GF102991011011012501031001MW1051REMSYN064AAXX  12121 67591 31665 20902 10290 20140 70500 81130 333 81840;EQDQ01  00002PRCP99
0227675910999992000111606004-12910+034260FM-12+0500FWKK V0201401N005010075019N0090001N1+02251+02031999999ADDAA124007191AY191061AY261061GA1011+006009099GA2051+007509089GF108991061091008001071999KA1120N+02201MW1951OA150600501REMSYN100AAXX  16061 67591 11559 81405 10225 20203 60074 79596 8697/ 333 20220 55056 70069 81920 85825 88457;
0198675910999992000121412004-12910+034260FM-12+0500FWKK V0201301N002010270019N0300001N1+02421+02091999999ADDAA199000091AY191061AY261061GA1011+009009099GA2051+027009039GF107991031091012501031031MW1291REMSYN076AAXX  14121 67591 31680 71302 10242 20209 72996 83933 333 81930 85359 87270;EQDQ01  00002PRCP99
0254675970999992000031412004-13750+034580FM-12+0513FWSM V0203101N00301045001CN0300001N1+02951+02411999999ADDAA199000091AY191061AY221061GA1011+009009099GA2041+010509089GF107991041091012501031081MA1999999095001MD1999999-0051ME1314809MW1171REMSYN094AAXX  14121 67597 31680 73103 10295 20241 39500 48480 71792 84938 333 59005 81930 84835 87280;EQDQ01  00002PRCP99
0254675970999992000121612004-13750+034570FM-12+0513FWSM V0201701N00501045001CN0300001N1+02851+02061999999ADDAA199000091AY191061AY221061GA1011+009009099GA2031+010509089GF107991041091012501031081MA1999999095321MD1999999-0111ME1315069MW1171REMSYN094AAXX  16121 67597 31680 71705 10285 20206 39532 48506 71792 84938 333 59011 81930 83835 87280;EQDQ01  00002PRCP99
0261675970999992000121706004-13750+034570FM-12+0513FWSM V0201301N006010450019N0300001N1+02601+01951999999ADDAA124002091GA1011+006009069GA2031+030009039GF107991011051008001031081KA1120N+02331MA1999999095691MD1999999+0051ME1315459OA150600801REMSYN118AAXX  17061 67597 12580 71306 10260 20195 39569 48545 60024 81538 333 20233 50711 55083 58005 70015 81620 83360 87280;
0231675990999992000071806004-13260+031930FM-12+057099999V0202101N003112200019N0280001N1+01701+01251999999ADDAA199000091AY101061AY201061GA1001+999999999GF100991001001999999001001KA1120M+03061KA2120N+01091MD1999999+0031ME1315789MW1051REMSYN076AAXX  18064 67599 31978 02106 10170 20125 48578 70500 333 10306 20109 58003;EQDQ01  00002PRCP99
0203675990999992000110112004-13260+031930FM-12+057099999V0209999C00001220001CN0300001N1+03461+01741999999ADDAY121061AY221061GA1011+012009099GA2021+015009089GF107991021091017501001041MD1999999-0301ME1315039MW1021REMSYN088AAXX  01124 67599 42780 70000 10346 20174 48503 70222 82904 333 59030 81940 82850 87075;
0203675990999992000110512004-13260+031930FM-12+057099999V0201501N00511045001CN0300001N1+03361+01961999999ADDAY121061AY221061GA1011+013509099GA2031+013509089GF106991031021017501031001MD1999999-0071ME1315279MW1011REMSYN088AAXX  05124 67599 42780 61510 10336 20196 48527 70122 83230 333 59007 81945 83845 86360;
0147676330999992000061809004-15250+023150FM-12+1053FLMG V0200901N004112200019N0400001N1+02441+00961999999ADDGA1011+036009079GF101991011001999999031001MD1999999+0131ME1315769REMSYN070AAXX  18094 67633 42982 10908 10244 20096 48576 81030 333 58013 81362;
0230676330999992000102606004-15250+023150FM-12+1053FLMG V0202601N002110900019N0150001N1+02161+01661999999ADDAA124000591AY121061AY221061GA1061+090009079GF107991061001999999031071KA1120M+03591KA2120N+02001MD1999999+0381ME1315389MW1051REMSYN094AAXX  26064 67633 11965 72604 10216 20166 48538 69954 70522 86037 333 10359 20200 58038 86380;
0197676330999992000112412004-15250+023150FM-12+1053FLMG V0200901N004610360019N0400001N1+02901+01601999999ADDGA1011+010509099GA2011+010509089GA3051+036009039GF106991011021012501031021MD1999999+0001ME1315069REMSYN088AAXX  24124 67633 42682 60909 10290 20160 48506 81232 333 58000 81935 81835 85362 84080;
0163676410999992000092009004-14790+024790FM-12+1213FLKO V0200901N003112200019N0150001N1+02661+01171999999ADDAY101031AY201031GA1001+999999999GF100991001001999999001001MD1999999-0031ME1315339MW1051REMSYN064AAXX  20094 67641 41965 00906 10266 20117 48533 70500 333 59003;
0225676410999992000112912004-14790+024790FM-12+1213FLKO V0202401N001510330019N0400001N1+02351+02071999999ADDAY191061AY261061GA1021+008409099GA2021+009009089GA3021+033009039GF107991021091008001071031MD1999999-0011ME1314829MW1171REMSYN094AAXX  29124 67641 41582 72403 10235 20207 48482 71796 82973 333 59001 82928 82830 82361 81080;
0180676550999992000022700004-15070+027180FM-12+121899999V0202801N004612200019N0200001N1+00531-00181101371ADDAA199000091GF101991999999999999999999KA1999N+00181MA1999999100801MD1310181+9999REMSYN070AAXX  27004 67655 32/70 12809 10053 21018 30080 40137 53018 333 20018;EQDQ01  00002PRCP99
0240676630999992000020206004-14450+028470FM-12+1207FLKW V0203601N004110030019N0300001N1+01921+01761999999ADDAA124011991GA1051+003009069GA2071+030009039GF107991051051004501031999KA1120M+02671KA2120N+01801MD1999999+0041ME1315119REMSYN110AAXX  02064 67663 12480 73608 10192 20176 48511 60124 8553/ 333 10267 20180 58004 85610 87360 555 00/// 20000;
0147676630999992000061509004-14450+028470FM-12+1207FLKW V0200801N005710066019N0300001N1+02051+01021999999ADDGA1061+006609029GF106991061021008001001001MD1999999-0241ME1315599REMSYN070AAXX  15094 67663 42580 60811 10205 20102 48559 86200 333 59024 86822;
0249676630999992000080406004-14450+028470FM-12+1207FLKW V0209999C000012200019N0200001N1+01461+01231999999ADDAA199000091AY111061AY211061GA1031+013509089GF103991031051008001031001KA1120M+02461KA2120N+01081MD1999999-0091ME1315469MW1051REMSYN094AAXX  04064 67663 31570 30000 10146 20123 48546 70511 83530 333 10246 20108 59009 83845 81360;EQDQ01  00002PRCP99
0155676630999992000101012004-14450+028470FM-12+1207FLKW V0201801N001012200019N0100001N1+03351+00321999999ADDAY101061AY201061GA1021+024009029GF102991021011999999001001ME1314989MW1051REMSYN070AAXX  10124 67663 41960 21802 10335 20032 48498 70500 82100 333 82858;
0139676650999992000012209004-15320+028450FM-15+1154FLLS V0200601N005110075019N0112651N1+02501+02401999999ADDGA1071+007509999GF107991999999999999999999MA1102001999999MW1001REMMET045FLLS 220900Z 06010KT 9999 BKN025 25/24 Q1020;EQDQ01+000000PRSWM2
0172676650999992000021716004-15320+028450FM-15+1154FLLS V0202401N004110045019N0090001N1+02001+02001999999ADDGA1071+004509999GA2081+030009999GF108991999999999999999999MA1101491999999MW1001REMMET062FLLS 171600Z 24008KT 9000M RERA BKN015 OVC100 20/20 Q1015 NSG;EQDQ01+000000PRSWM2
0229676650999992000021819004-15320+028450FM-15+1154FLLS V0202801N002610105019N0080001N1+02101+99999999999ADDGA1021+002409999GA2071+010509099GA3071+030009999GF107991999999999999999999MA1101691999999MW1811MW2951REMMET065FLLS 181900Z 28005KT 8000 TSRA SCT008 BKN035CB BKN100 21/2 Q1017;EQDQ01+000203ATOD  Q02+000003PRSWM1Q03    003PRSWM1
0168676650999992000022216004-15320+028450FM-15+1154FLLS V0202801N002110270019N0112651N1+02401+02401999999ADDGA1021+010509099GA2071+027009999GF107991999999999999999999MA1101191999999MW1001REMMET058FLLS 221600Z 28004KT 9999 FEW035CB BKN090 24/24 Q1012 NSG;EQDQ01+000000PRSWM2
0193676650999992000030614004-15320+028450FM-15+1154FLLS V0201401N001512200019N0112651N1+02801+02301999999ADDGA1021+010509099GA2021+012009999GA3021+030009999GF102991999999999999999999MA1101491999999MW1001REMMET067FLLS 061400Z 14003KT 9999 FEW035CB SCT040 FEW100 28/23 Q1015 NOSIG;EQDQ01+000000PRSWM2
0170676650999992000032112004-15320+028450FM-15+1154FLLS V0209999C000010300019N0112651N1+02701+02501999999ADDGA1021+009009099GA2071+030009999GF107991999999999999999999MA1101691999999MW1001REMMET060FLLS 211200Z 09000KT 9999 SCT030CB BKN100 27/25 Q1017 NOSIG;EQDQ01+000000PRSWM2
0170676650999992000032115004-15320+028450FM-15+1154FLLS V0201201N004112200019N0112651N1+02401+02401999999ADDGA1021+009009099GA2021+030009999GF104991999999999999999999MA1101491999999MW1001REMMET060FLLS 211500Z 12008KT 9999 FEW030CB SCT100 24/24 Q1015 NOSIG;EQDQ01+000000PRSWM2
0145676650999992000040610004-15320+028450FM-15+1154FLLS V0200701N002610096019N0112651N1+02601+02301999999ADDGA1071+009609999GF107991999999999999999999MA1101901999999MW1001REMMET051FLLS 061000Z 07005KT 9999 BKN032 26/23 Q1019 NOSIG;EQDQ01+000000PRSWM2
0338676650999992000041706004-15320+028450SY-MT+1154FLLS V0201001N00411220001CN0300001N1+02031+02031999999ADDAA199000091GA1071+002709999GA2021+030009999GF106991051071002501031001KA1120M+02701KA2120N+01561MA1102301999999MD1999999+0101ME1309559MW1001REMSYN088AAXX  17064 67665 32380 61008 10203 20203 48955 85730 333 10270 20156 58010 85709 83460;MET058FLLS 170600Z 10008KT 9999 BKN009 SCT100 20/20 Q1023 NOSIG;EQDQ01+000000PRSWM2Q02  00002PRCP99
0154676650999992000051011004-15320+028450FM-15+1154FLLS V0200901N005712200019N0112651N1+99999+99999999999ADDGA1021+007509999GA2021+030009999GF102991999999999999999999MW1001REMMET059FLLS 101100Z 09011KT 9999 SCT025 FEW100M 24/21 Q1022 NOSIG;EQDQ01+000000PRSWM2
0091676650999992000052820004-15320+028450FM-15+1154FLLS V0201601N00151220001CN0099001N1+01601+01401999999ADDMA1102101999999MW1001REMMET039FLLS 282000Z 16003KT CAVOK 16/14 Q1021;EQDQ01+000000PRSWM2
0275676650999992000053006004-15320+028450SY-MT+1154FLLS V0201201N002112200019N0300001N1+01631+01631999999ADDAA199000091GF100991001001999999001001KA1120M+02851KA2120N+01051MA1102301999999MD1999999+0081ME1315549MW1001REMSYN070AAXX  30064 67665 32980 01204 10163 20163 48554 333 10285 20105 58008;MET045FLLS 300600Z 12004KT CAVOK 16/16 Q1023 NOSIG;EQDQ01+000000PRSWM2Q02  00002PRCP99
0097676650999992000060817004-15320+028450FM-15+1154FLLS V0201401N00211220001CN0099001N1+01801+01801999999ADDMA1102401999999MW1001REMMET045FLLS 081700Z 14004KT CAVOK 18/18 Q1024 NOSIG;EQDQ01+000000PRSWM2
0287676650999992000061315004-15320+028450SY-MT+1154FLLS V0201101N003610360019N0300001N1+02121+01301999999ADDGA1011+018009029GA2061+036009079GF106991011011017501031001KA1240M+02421MA1102511999999MD1999999+0081ME1315739MW1001REMSYN092AAXX  13154 67665 42780 61107 10212 20130 48573 81130 333 58008 81856 86362 555 10242 91025;MET043FLLS 131500Z 11007KT CAVOK 21/13 Q1025 NSG;EQDQ01+000000PRSWM2
0145676650999992000061411004-15320+028450FM-15+1154FLLS V0200701N005110105019N0112651N1+02101+01501999999ADDGA1071+010509999GF107991999999999999999999MA1102511999999MW1001REMMET051FLLS 141100Z 07010KT 9999 BKN035 21/15 Q1025 NOSIG;EQDQ01+000000PRSWM2
0091676650999992000061720004-15320+028450FM-15+1154FLLS V0201501N00101220001CN0099001N1+01301+01301999999ADDMA1102511999999MW1001REMMET039FLLS 172000Z 15002KT CAVOK 13/13 Q1025;EQDQ01+000000PRSWM2
0250676650999992000061909004-15320+028450SY-MT+1154FLLS V0200801N006210054019N0300001N1+02201+01941999999ADDGA1071+005409999GF107991071051004501031001MA1102511999999MD1999999-0021ME1315829MW1001REMSYN076AAXX  19094 67665 42480 70812 10220 20194 48582 87530 333 59002 87618 83360;MET051FLLS 190900Z 08012KT 9999 BKN018 22/19 Q1025 NOSIG;EQDQ01+000000PRSWM2
0139676650999992000070208004-15320+028450FM-15+1154FLLS V0201101N008712200019N0112651N1+01801+01301999999ADDGA1021+007509999GF104991999999999999999999MA1102811999999MW1001REMMET045FLLS 020800Z 11017KT 9999 SCT025 18/13 Q1028;EQDQ01+000000PRSWM2
0145676650999992000080310004-15320+028450FM-15+1154FLLS V0200801N004610114019N0112651N1+02401+01501999999ADDGA1071+011409999GF107991999999999999999999MA1102401999999MW1001REMMET051FLLS 031000Z 08009KT 9999 BKN038 24/15 Q1024 NOSIG;EQDQ01+000000PRSWM2
0115676650999992000090314004-15320+028450FM-15+1154FLLS V0200701N002112200019N0060001N1+03201+01101999999ADDMA1101391999999MW1051REMMET047FLLS 031400Z 07004KT 6000 HZ 32/11 Q1014 NOSIG;EQDQ01+000003PRSWM1Q02    003PRSWM1
0182676650999992000090618004-15320+028450FM-12+1154FLLS V0201401N001512200019N0100001N1+02201+01551999999ADDAY101061AY201061GA1001+999999999GF100991001001999999001001KA1120M+03011MD1999999-0121ME1315159MW1051REMSYN070AAXX  06184 67665 41960 01403 10220 20155 48515 70500 333 10301 59012;
0091676650999992000090822004-15320+028450FM-15+1154FLLS V0201001N00771220001CN0099001N1+02101+01501999999ADDMA1102001999999MW1001REMMET039FLLS 082200Z 10015KT CAVOK 21/15 Q1020;EQDQ01+000000PRSWM2
0175676650999992000091312004-15320+028450FM-12+1154FLLS V0200601N005112200019N0250001N1+03011+01441999999ADDAY101061AY201061GA1011+021009029GF101991011011022501001001MD1999999-0031ME1315389MW1051REMSYN076AAXX  13124 67665 41875 10610 10301 20144 48538 70500 81100 333 59003 81857;
0159676650999992000092016004-15320+028450FM-15+1154FLLS V0201001N005112200019N0090001N1+02601+01601999999ADDGA1021+018009999GF102991999999999999999999MA1102001999999MW1051REMMET049FLLS 201600Z 10010KT 9000M HZ FEW060 26/16 Q1020;EQDQ01+000003PRSWM1Q02    003PRSWM1
0089676650999992000092218004-15320+028450FM-15+1154FLLS V0201201N00311220001CN0099001N1+02101+01201999999ADDMA1102201999999MW1001REMMET037FLLS 1800Z 12006KT CAVOK 21/12 Q1022;EQDQ01+000000PRSWM2
0097676650999992000092708004-15320+028450FM-15+1154FLLS V0200801N00571220001CN0099001N1+02901+01301999999ADDMA1102201999999MW1001REMMET045FLLS 270800Z 08011KT CAVOK 29/13 Q1022 NOSIG;EQDQ01+000000PRSWM2
0175676650999992000092821004-15320+028450FM-12+1154FLLS V0209999C000012200019N0100001N1+01871+00461999999ADDAY101031AY201031GA1011+075009019GF101991001001999999001011MD1999999+0061ME1315459MW1051REMSYN076AAXX  28214 67665 41960 10000 10187 20046 48545 70500 80001 333 58006 81075;
0095676650999992000100510004-15320+028450FM-15+1154FLLS V0200601N00411220001CN0099001N1+03201+01501999999ADDMA1101801999999MW1001REMMET043FLLS 051000Z 06008KT CAVOK 32/15 Q1018 NSG;EQDQ01+000000PRSWM2
0313676650999992000100906004-15320+028450SY-MT+1154FLLS V0201101N00571220001CN0200001N1+02441+01921999999ADDAA199000091AY101061AY201061GF100991001001999999001001KA1120M+03361KA2120N+01611MA1102101999999MD1999999-0051ME1315459MW1051REMSYN076AAXX  09064 67665 31970 01111 10244 20192 48545 70500 333 10336 20161 59005;MET045FLLS 090600Z 11011KT CAVOK 24/19 Q1021 NOSIG;EQDQ01+000000PRSWM2Q02  00002PRCP99Q03    003PRSWM1
0097676650999992000101711004-15320+028450FM-15+1154FLLS V0200901N00151220001CN0099001N1+03201+01001999999ADDMA1102101999999MW1001REMMET045FLLS 171100Z 09003KT CAVOK 32/10 Q1021 NOSIG;EQDQ01+000000PRSWM2
0097676650999992000101808004-15320+028450FM-15+1154FLLS V0201101N00571220001CN0099001N1+02801+00901999999ADDMA1102201999999MW1001REMMET045FLLS 180800Z 11011KT CAVOK 28/09 Q1022 NOSIG;EQDQ01+000000PRSWM2
0097676650999992000102105004-15320+028450FM-15+1154FLLS V0201001N00511220001CN0099001N1+02101+01701999999ADDMA1102301999999MW1001REMMET045FLLS 210500Z 10010KT CAVOK 21/17 Q1023 NOSIG;EQDQ01+000000PRSWM2
0091676650999992000102303004-15320+028450FM-15+1154FLLS V0201201N00311220001CN0099001N1+01601+01501999999ADDMA1102001999999MW1001REMMET039FLLS 230300Z 12006KT CAVOK 16/15 Q1020;EQDQ01+000000PRSWM2
0162676650999992000102814004-15320+028450FM-15+1154FLLS V0201401N002610300019N0112651N1+02701+02201999999ADDGA1021+010509999GA2071+030009999GF107991999999999999999999MA1101801999999MW1001REMMET052FLLS 281400Z 14005KT 9999 FEW035 BKN100 27/22 Q1018;EQDQ01+000000PRSWM2
0192676650999992000110420004-15320+028450FM-15+1154FLLS V0201401N001012200019N0112651N1+02301+02201999999ADDGA1021+015009099GA2021+030009999GA3021+090009999GF104991999999999999999999MA1101901999999MW1001REMMET066FLLS 042000Z 14002KT 9999 LIT. FEW050CB SCT100 SCT300 23/22 Q1019;EQDQ01+000000PRSWM2
0170676650999992000111816004-15320+028450FM-15+1154FLLS V0203401N002610300019N0112651N1+02401+02201999999ADDGA1021+015009099GA2071+030009999GF107991999999999999999999MA1101081999999MW1001REMMET060FLLS 181600Z 34005KT 9999 FEW050CB BKN100 24/22 Q1011 NOSIG;EQDQ01+000000PRSWM2
0097676650999992000111914004-15320+028450FM-15+1154FLLS V0202701N00871220001CN0099001N1+03501+01601999999ADDMA1100811999999MW1001REMMET045FLLS 191400Z 27017KT CAVOK 35/16 Q1008 NOSIG;EQDQ01+000000PRSWM2
0191676650999992000112519004-15320+028450FM-15+1154FLLS V0201401N003112200019N0112651N1+02601+02101999999ADDGA1021+013509099GA2021+030009999GA3021+090009999GF102991999999999999999999MA1101801999999MW1001REMMET065FLLS 251900Z 14006KT 9999 LIT FEW045CB FEW100 FEW300 26/21 Q1018;EQDQ01+000000PRSWM2
0224676650999992000112813004-15320+028450FM-15+1154FLLS V0202101N00261027001CN0112651N1+02401+02401999999ADDGA1021+006009099GA2071+006009029GA3071+027009999GF107991999999999999999999MA1101691999999MW1171REMMET082FLLS 281300Z 21005KT 9999 TS FEW020CB BKN020TCU BKN090 24/24 Q1017 TEMPO VIS 9000;EQDQ01+000003PRSWM1Q02    003PRSWM1
0095676650999992000120316004-15320+028450FM-15+1154FLLS V0200901N00361220001CN0099001N1+02601+01402999999ADDMA1101591999999MW1001REMMET043FLLS 031600Z 09007KT CAVOK 26/14 Q1016 NSG;EQDQ01+000000PRSWM2
0329676650999992000120412004-15320+028450SY-MT+1154FLLS V0200901N005110300019N0300001N1+02711+02271999999ADDGA1021+008409099GA2021+009009029GA3071+030009999GF199999041021008001031021MA1101691999999MD1999999-0051ME1315149MW1001REMSYN088AAXX  04124 67665 42580 60910 10271 20227 48514 84232 333 59005 81928 83830 86360 82080;MET070FLLS 041200Z 09010KT 9999 FEW028CB SCT030TCU BKN100 27/23 Q1017 NOSIG;EQDQ01+000062SCOTCVQ02+000000PRSWM2
0175676650999992000120615004-15320+028450FM-12+1154FLLS V0200501N004110450019N0300001N1+02891+02321999999ADDGA1021+036009039GA2011+999999089GF106991011021017501031011MD1999999-0141ME1315039REMSYN082AAXX  06154 67665 42780 60508 10289 20232 48503 81231 333 59014 81852 82362 85080;
0097676650999992000120804004-15320+028450FM-15+1154FLLS V0202801N00101220001CN0099001N1+02101+02101999999ADDMA1102001999999MW1001REMMET045FLLS 080400Z 28002KT CAVOK 21/21 Q1020 NOSIG;EQDQ01+000000PRSWM2
0192676650999992000121116004-15320+028450FM-15+1154FLLS V0203001N002110300019N0112651N1+02501+02501999999ADDGA1021+015009099GA2071+030009999GA3071+090009999GF107991999999999999999999MA1101391999999MW1001REMMET066FLLS 111600Z 30004KT 9999 RETS FEW056CB BKN100 BKN300 25/25 Q1014;EQDQ01+000000PRSWM2
0331676650999992000121515004-15320+028450SY-MT+1154FLLS V0201201N00511030001CN0100001N1+02231+02231999999ADDAY151031AY251031GA1021+002409999GA2021+004509999GA3071+030009999GF107991051081002501031999MA1101691999999MD1999999+0101ME1315099MW1501MW2531REMSYN088AAXX  15154 67665 41360 71210 10223 20223 48509 75055 8583/ 333 58010 84708 81815 87360;MET066FLLS 151500Z 12010KT 9999 DZ SCT008 FEW015 BKN100 22/22 Q1017 NSG;EQDQ01    003PRSWM1
0147676660999992000060112004-15420+028320FM-12+1280FLLC V0201201N002612200019N0300001N1+02241+00571999999ADDGA1041+015009029GF104991041011012501001001MD1999999+0051ME1315499REMSYN070AAXX  01124 67666 42680 41205 10224 20057 48549 84100 333 58005 84850;
0175676660999992000070709004-15410+028310FM-12+1280FLLC V0200901N006710096019N0250001N1+01601+00741999999ADDGA1031+009009089GA2021+009609069GF107991051081004501031001MD1999999+0051ME1315889REMSYN082AAXX  07094 67666 42475 70913 10160 20074 48588 85830 333 58005 83830 82632 82360;
0175676660999992000072709004-15410+028310FM-12+1280FLLC V0201001N008210060019N0250001N1+01661+00661999999ADDAY121031AY221031GA1071+006009059GF107991071051008001001001MD1999999+0021ME1315849MW1051REMSYN076AAXX  27094 67666 41575 71016 10166 20066 48584 70522 87500 333 58002 87620;
0203676660999992000110115004-15410+028310FM-12+1280FLLC V0201401N00361105001CN0250001N1+02521+01641999999ADDAY121031AY221031GA1011+018009069GA2041+030009039GF105991011051017501031021MD1999999-0111ME1314699MW1051REMSYN088AAXX  01154 67666 41775 51407 10252 20164 48469 70522 81532 333 59011 81656 84360 81080;
0210676660999992000121406004-15410+028310FM-12+1280FLLC V0200901N007210015019N0100001N1+01731+01691999999ADDAA124036191AY151061AY251061GA1081+001509069GF108991081061002501999999KA1120M+02431KA2120N+01581ME1315039MW1501REMSYN088AAXX  14064 67666 11360 80914 10173 20169 48503 60364 75055 886// 333 10243 20158 88705;
0225676660999992000122109004-15410+028310FM-12+1280FLLC V0200801N006210300019N0300001N1+02401+01961999999ADDAY191031AY221031GA1011+007509099GA2041+007509069GA3031+030009039GF107991011091008001031011MD1999999-0031ME1315029MW1171REMSYN094AAXX  21094 67666 41580 70812 10240 20196 48502 71792 81931 333 59003 81925 84625 83360 86080;
0174676670999992000082207004-15540+028250FM-12+121399999V0200901N003112200019N0300001N1+01761+01101999999ADDAA199000091GA1001+999999999GF100991001001999999001001KA1120M+02611KA2999N+01311REMSYN064AAXX  22074 67667 32980 00906 10176 20110 48/// 333 10261 20131;EQDQ01  00002PRCP99
0181676730999992000122509004-14250+031270FM-12+1036FLPE V0202701N00211045001CN0400001N1+02471+01971999999ADDAY161031AY221031GA1031+007509089GF107991031021008001071999MD1999999+0081ME1315249MW1031REMSYN082AAXX  25094 67673 41582 72704 10247 20197 48524 70362 8327/ 333 58008 83825 87360;
0230676730999992000123006004-14250+031270FM-12+1036FLPE V0200901N00101045001CN0500001N1+02461+02101999999ADDAA124002091GA1021+006609089GA2011+036009039GF107991021021008001081081KA1120M+03021KA2120N+01941MD1999999-0011ME1315169REMSYN100AAXX  30064 67673 12584 70902 10246 20210 48516 60024 82288 333 10302 20194 59001 82822 81362 87280;
0148676870999992000040312004-15780+035030FM-12+114199999V0200701N002010105019N0300001N1+02461+01931999999ADDAA199000091GA1061+010509029GF107991061081012501031001REMSYN064AAXX  03121 67687 32680 70702 10246 20193 3//// 86830 333 86835;EQDQ01  00002PRCP99
0199676870999992000050412004-15780+035030FM-12+114199999V0209999C000010135019N0300001N1+02521+01701999999ADDAA199000091GA1051+013509089GA2041+030009039GF106991051021012501031001KA1240M+02581REMSYN086AAXX  04121 67687 32680 60000 10252 20170 3//// 85230 333 85845 84360 555 10258 29069;EQDQ01  00002PRCP99
0183676870999992000090206004-15770+035030FM-12+114199999V0201101N006012200019N0150001N1+02001+00981999999ADDAA199000091AY101061AY201061GA1001+999999999GF100991001001999999001001KA1120N+01751MW1051REMSYN064AAXX  02061 67687 31965 01106 10200 20098 70500 333 20175 55093;EQDQ01  00002PRCP99
0206676870999992000091206004-15770+035030FM-12+114199999V0200901N004012200019N0200001N1+01851+01431999999ADDAA199000091AY111061AY211061GA1031+007509059GF103991031051008001001001KA1120N+01601MW1051OA150601001REMSYN076AAXX  12061 67687 31570 30904 10185 20143 70511 83500 333 20160 55107 83625;EQDQ01  00002PRCP99
0243676870999992000111106004-15770+035030FM-12+114199999V0200601N00401045001CN0300001N1+02101+01891999999ADDAA124007191GA1031+007509069GF107991031051008001031999KA1120N+01801MA1999999089021MD1999999+0061OA150699999REMSYN106AAXX  11061 67687 12580 70604 10210 20189 38902 48/// 60074 8353/ 333 20180 55015 58006 70074 83625 87360;EQDQ01  00102WGOSPD
0212676890999992000060906004-14320+034270FM-12+1632FWDZ V0200801N003012200019N0100001N1+01831+01071999999ADDAA199000091AY101061AY201061GA1011+006009059GF101991011051008001001001KA1120N+00871MW1051OA150600701REMSYN082AAXX  09061 67689 31560 10803 10183 20107 70500 81500 333 20087 50411 55073 81620;EQDQ01  00002PRCP99
0167676900999992000010106004-14080+034920FM-12+0474FWMY V0200501N002012200019N0400001N1+03081+02141999999ADDAA106000091GA1011+010509029GF101991011011012501001011KA1120N+02541REMSYN070AAXX  01061 67690 32682 10502 10308 20214 81101 333 20254 51106 81835;EQDQ01  00002PRCP06
0215676900999992000022212004-14080+034920FM-12+0474FWMY V0200101N005010900019N0400001N1+02901+02441999999ADDAA199000091GA1011+013509099GA2031+033009039GA3071+090009029GF107991011091012501061081KA1240M+02921REMSYN086AAXX  22121 67690 32682 70105 10290 20244 81968 333 81945 83361 87280 555 10292 29074;EQDQ01  00002PRCP99
0142676900999992000080912004-14080+034920FM-12+0474FWMY V0200701N002012200019N0400001N1+02461+01791999999ADDAA199000091GA1011+013509029GF101991011011012501031001REMSYN058AAXX  09121 67690 32682 10702 10246 20179 81130 333 81845;EQDQ01  00002PRCP99
0206676920999992000012106004-15520+035220FM-12+102899999V0201901N003010060019N0300001N1+02011+01741999999ADDAA199000091GA1061+006009069GF107991061051008001031081KA1120N+01701OA150699999REMSYN082AAXX  21061 67692 32580 71903 10201 20174 86538 333 20170 50201 55019 86620 87280;EQDQ01  00002PRCP99Q02  00102WGOSPD
0256676920999992000020506004-15520+035220FM-12+102899999V0200601N003010060019N0300001N1+02131+02051999999ADDAA124000191AY191061AY221061GA1051+006009069GA2071+030009049GF107991051051008001071999KA1240M+02731KA2120N+02001MW1291OA150600401REMSYN116AAXX  05061 67692 11580 70603 10213 20205 69914 72992 8557/ 333 20200 50421 55044 70001 85620 87460 555 10273 7//98;
0215676920999992000030112004-15520+035220FM-12+102899999V0201701N002010120019N0300001N1+02761+02031999999ADDAA199000091GA1061+012009089GA2071+090009029GA3011+999999099GF107991061021012501001081KA1240M+02771REMSYN086AAXX  01121 67692 32680 71702 10276 20203 86208 333 86840 819// 87280 555 10277 29062;EQDQ01  00002PRCP99
0211676920999992000031406004-15520+035220FM-12+102899999V0209999C00001002101CN0300001N1+02011+02011999999ADDAA124002091AY141061AY221061GA1031+002409079GF107991071051002501999999KA1120N+01761MW1031OA150600301REMSYN100AAXX  14061 67692 11380 70000 10201 20201 60024 70342 875// 333 20176 50101 55038 70020 83708 87620;
0218676920999992000110306004-15510+035210FM-12+102899999V0200901N00201045001CN0200001N1+02411+01691999999ADDAA199000091AY121061AY221061GA1011+009009089GF107991011011012501031999KA1120N+02051MW1051OA150600901REMSYN088AAXX  03061 67692 31670 70902 10241 20169 70522 8113/ 333 20205 50461 55092 81830 87362;EQDQ01  00002PRCP99
0226676930999992000010604004-15680+034970FM-12+0767FWCL V0201601N004010075019N0300001N1+02351+02061999999ADDAA106000091GA1051+007509069GA2011+999999099GF107991051051008001031999MA1999999092451MD1999999-0011ME1314959REMSYN088AAXX  06041 67693 32580 71604 10235 20206 39245 48495 8553/ 333 59001 85625 819// 86359;EQDQ01  00002PRCP06
0224676930999992000012409004-15680+034970FM-12+0767FWCL V0209999C000010105019N0080001N1+02491+02031999999ADDAY121031AY221031GA1011+009009099GA2061+010509089GF107991071091012501031001MA1999999092711MD1999999+0061ME1315229MW1601REMSYN094AAXX  24091 67693 41658 70000 10249 20203 39271 48522 76022 87930 333 58006 81930 86835 85360;
0254676930999992000022615004-15680+034970FM-12+0767FWCL V0209999C000010450019N0300001N1+02511+02221999999ADDAA199000091AY191031AY221031GA1031+010509089GA2011+999999099GF107991041021012501031081MA1999999092241MD1999999-0011ME1314689MW1291REMSYN094AAXX  26151 67693 31680 70000 10251 20222 39224 48468 72992 84238 333 59001 83835 819// 87270;EQDQ01  00002PRCP99
0254676930999992000022905004-15680+034970FM-12+0767FWCL V0209999C00001045001CN0060001N1+02071+01971999999ADDAA199000091AY121999AY221999GA1011+001809079GA2031+006009069GF107991041061002501031011MA1999999092611MD1999999-0021ME1315059MW1401REMSYN094AAXX  29051 67693 31356 70000 10207 20197 39261 48505 74022 84631 333 59002 81706 83620 86359;EQDQ01  00002PRCP99
0262676930999992000040106004-15680+034970FM-12+0767FWCL V0201101N00401045001CN0300001N1+02401+01981999999ADDAA199000091GA1011+006009099GA2031+007509089GF105991031031008001081021KA1120N+02001MA1999999092921MD1999999+0061ME1315349OA150600701REMSYN100AAXX  01061 67693 32580 51104 10240 20198 39292 48534 83382 333 20200 55078 58006 81920 83825 83360;EQDQ01  00002PRCP99
0198676930999992000042304004-15680+034970FM-12+0767FWCL V0201501N003012200019N0400001N1+01851+01701999999ADDAA199000091GA1021+036009079GF102991021001999999031001MA1999999092921MD1999999-0091ME1315319REMSYN076AAXX  23041 67693 32982 21503 10185 20170 39292 48531 82030 333 59009 82362;EQDQ01  00002PRCP99
0272676930999992000050806004-15680+034970FM-12+0767FWCL V0202401N00201045001CN0100001N1+02041+01881999999ADDAA124000791AY141061AY221061GA1021+001809079GA2041+007509069GF106991041061001501031001KA1120N+01841MA1999999093161MD1999999+0001ME1315559MW1401REMSYN118AAXX  08061 67693 11260 62402 10204 20188 39316 48555 69904 74042 84630 333 018// 20184 58000 79999 82706 84625 86360;
0198676930999992000062704004-15670+034960FM-12+0767FWCL V0201401N005012200019N0300001N1+01581+01191999999ADDAA199000091GA1011+006009059GF101991011051008001031001MA1999999093471MD1999999+0091ME1315689REMSYN076AAXX  27041 67693 32580 11405 10158 20119 39347 48568 81530 333 58009 81620;EQDQ01  00002PRCP99
0274676930999992000070606004-15670+034960FM-12+0767FWCL V0202201N00601002101CN0060001N1+01511+01211999999ADDAA199000091AY121061AY221061GA1011+002109079GF105991051051002501001001KA1120N+01181MA1999999093451MD1999999-0021ME1315629MW1401OA150601001REMSYN106AAXX  06061 67693 31356 52206 10151 20121 39345 48562 74022 85500 333 008// 20118 55104 59002 81707 85615;EQDQ01  00002PRCP99
0186676930999992000072004004-15670+034960FM-12+0767FWCL V0201101N003012200019N0300001N1+01471+00961999999ADDAA199000091GA1001+999999999GF100991001001999999001001MA1999999092871MD1999999-0101ME1315109REMSYN064AAXX  20041 67693 32980 01103 10147 20096 39287 48510 333 59010;EQDQ01  00002PRCP99
0166676930999992000082321004-15670+034960FM-12+0767FWCL V0201901N003012200019N0300001N1+01841+01401999999ADDAA199000091GA1001+999999999GF100991001001999999001001MA1999999093401ME1315699REMSYN058AAXX  23211 67693 32980 01903 10184 20140 39340 48569 333;EQDQ01  00002PRCP99
0256676930999992000092806004-15670+034960FM-12+0767FWCL V0200501N004012200019N0060001N1+02211+01361999999ADDAA199000091AY101061AY201061GA1001+999999999GF100991001001999999001001KA1120N+01581MA1999999093241MD1999999+0131ME1315579MW1051OA150600601REMSYN088AAXX  28061 67693 31956 00504 10221 20136 39324 48557 70500 333 010// 20158 55060 58013;EQDQ01  00002PRCP99
0224676930999992000110915004-15670+034960FM-12+0767FWCL V0201301N002010075019N0100001N1+01981+01831999999ADDAY191031AY261031GA1031+006009099GA2061+007509089GF107991061091008001071999MA1999999092361MD1999999-0121ME1314819MW1951REMSYN094AAXX  09151 67693 41560 71302 10198 20183 39236 48481 79596 8697/ 333 59012 83920 86825 87458;
0204676950999992000033112004-14430+035250FM-12+0485FWMG V0209999C000010450019N0300001N1+03101+02251999999ADDAA199000091GA1041+012009089GF105991041011012501031061MA1999999095591MD1999999-0061ME1315109REMSYN082AAXX  31121 67695 32680 50000 10310 20225 39559 48510 84136 333 59006 84840 819//;EQDQ01  00002PRCP99
0204676950999992000072912004-14420+035250FM-12+0485FWMG V0201401N00301045001CN0300001N1+02521+01441999999ADDAA199000091GA1021+012009089GF106991021011012501031001MA1999999096051MD1999999-0091ME1315309REMSYN082AAXX  29121 67695 32680 61403 10252 20144 39605 48530 82130 333 59009 82840 86360;EQDQ01  00002PRCP99
0308677430999992000051112004-17820+025820SY-MT+0986FLLI V0200901N00211220001CN0300001N1+02331+01491999999ADDGA1021+009009999GA2071+010509999GA3021+030009999GF106991021051012501031001MA1102101999999MD1999999+0031ME1315489MW1001REMSYN088AAXX  11124 67743 42680 60904 10233 20149 48548 82530 333 58003 82630 85835 84360 91021;MET065FLLI 111200Z 09004KT 9999 FEW030 BKN035 SCT100 23/15 Q1021 NOSIG;EQDQ01+000000PRSWM2
0153677430999992000060812004-17820+025820FM-12+0986FLLI V0200801N003110150019N0300001N1+02621+01341999999ADDGA1061+015009089GF106991061021017501031001MD1999999+0041ME1315629REMSYN076AAXX  08124 67743 42780 60806 10262 20134 48562 86230 333 58004 86850 83360;
0153677430999992000071012004-17810+025810FM-12+0986FLLI V0200701N00211045001CN0300001N1+02211+00611999999ADDGA1021+015009089GF107991021081017501031001MD1999999-0271ME1315609REMSYN076AAXX  10124 67743 42780 70704 10221 20061 48560 82830 333 59027 82850 87460;
0174677550999992000040603004-17620+027330FM-12+0617FVBI V0201201N000519999999N0300001N1+02191+02061999999ADDGA1011+030009039GF107991011001999999031081MA1999999093751MD1999999-0091ME1314639REMSYN082AAXX  06034 67755 42980 71201 10219 20206 39375 48463 81038 333 59009 81360 87299;
0273677550999992000041206004-17620+027330FM-12+0617FVBI V0203601N002111050019N0300001N1+02411+02121999999ADDAA199000091AY191061AY221061GA1031+007509069GA2011+999999099GF106991031051008001001031KA1120N+02151MA1999999094381MD1999999+0001ME1315189MW1291REMSYN100AAXX  12064 67755 31580 63604 10241 20212 39438 48518 72992 83503 333 20215 58000 819// 83625 86099;EQDQ01  00002PRCP99
0168677550999992000052703004-17620+027330FM-12+0617FVBI V0209999C000012200019N0300001N1+01911+01831999999ADDGA1021+006009059GF102991021051008001001001MA1999999094211MD1999999-0141ME1314949REMSYN076AAXX  27034 67755 42580 20000 10191 20183 39421 48494 82500 333 59014 82620;
0168677550999992000060109004-17620+027330FM-12+0617FVBI V0203601N001512200019N0250001N1+02361+01291999999ADDGA1011+012009029GF101991011011012501001001MA1999999094861MD1999999+0381ME1315509REMSYN076AAXX  01094 67755 42675 13603 10236 20129 39486 48550 81100 333 58038 81840;
0184677550999992000100615004-17610+027320FM-12+0617FVBI V0201001N002112200019N0100001N1+03301+00961999999ADDAY101031AY201031GA1001+999999999GF100991001001999999001001MA1999999093831MD1999999-0101ME1314889MW1051REMSYN070AAXX  06154 67755 41960 01004 10330 20096 39383 48488 70500 333 59010;
0168677550999992000103112004-17610+027320FM-12+0617FVBI V0201001N001012200019N0300001N1+03411+01871999999ADDGA1011+018009029GF101991011011017501001001MA1999999093941MD1999999+0001ME1315019REMSYN076AAXX  31124 67755 42780 11002 10341 20187 39394 48501 81100 333 58000 81856;
0174677550999992000112115004-17610+027320FM-12+0617FVBI V0202401N001512200019N0300001N1+03501+01141999999ADDGA1011+030009089GF104991011011999999061011MA1999999093611MD1999999+0081ME1314749REMSYN082AAXX  21154 67755 42980 42403 10350 20114 39361 48474 81161 333 58008 81860 84099;
0174677550999992000120709004-17610+027320FM-12+0617FVBI V0200301N001012200019N0300001N1+03021+02161999999ADDGA1011+012009089GF104991011011012501001081MA1999999094231MD1999999-0091ME1315149REMSYN082AAXX  07094 67755 42680 40302 10302 20216 39423 48514 81108 333 59009 81840 84280;
0221677550999992000121218004-17610+027320FM-12+0617FVBI V0209999C00001045001CN0250001N1+02591+02261999999ADDAY191061AY221061GA1011+012009099GF107991011091012501031081KA1120M+03031MA1999999093741MD1999999+0001ME1314689MW1131REMSYN094AAXX  12184 67755 41675 70000 10259 20226 39374 48468 71392 81938 333 10303 58000 81940 86360;
0232677550999992000121906004-17610+027320FM-12+0617FVBI V0202801N001010300019N0300001N1+02681+01981999999ADDAA124000791AY161061AY221061GA1061+030009079GF106991061001999999031021KA1120N+02161MA1999999094261MD1999999-0091ME1315199MW1021REMSYN094AAXX  19064 67755 11980 62802 10268 20198 39426 48519 69904 70262 86032 333 20216 59009 86360;
0174677550999992000122512004-17610+027320FM-12+0617FVBI V0203601N002111050019N0300001N1+03211+01971999999ADDGA1011+009009099GF106991021021012501061031MA1999999093691MD1999999-0221ME1314859REMSYN082AAXX  25124 67755 42680 63604 10321 20197 39369 48485 82263 333 59022 81930 86099;
0202677610999992000012700004-16520+028880FM-12+0518FVKB V0209999C000012200019N0400001N1+02361+02281999999ADDAY101061AY201061GA1011+999999099GF102991011091999999031031MA1999999095101MD1999999-0091ME1314929MW1131REMSYN088AAXX  27004 67761 41/82 20000 10236 20228 39510 48492 71300 81933 333 59009 819// 82360;
0202677610999992000020600004-16520+028880FM-12+0518FVKB V0209999C00001045001CN0500001N1+02341+02241999999ADDAY191061AY261061GA1011+009009099GF107991011091012501071031MA1999999094941MD1999999-0031ME1314849MW1171REMSYN088AAXX  06004 67761 41684 70000 10234 20224 39494 48484 71796 81973 333 59003 81930 87458;
0210677610999992000022506004-16520+028880FM-12+0518FVKB V0209999C00001045001CN0500001N1+02471+02231999999ADDAA124013091GA1011+006009069GF107991011051008001031021KA1120N+02301MA1999999095081MD1999999+0371ME1314969REMSYN094AAXX  25064 67761 12584 70000 10247 20223 39508 48496 60134 81532 333 20230 58037 81620 87460;
0210677610999992000030506004-16520+028880FM-12+0518FVKB V0201001N000510450019N0500001N1+02521+02121999999ADDAA124000791GA1031+007509089GF106991031081008001031021KA1120N+02071MA1999999095041MD1999999+0021ME1315199REMSYN094AAXX  05064 67761 12584 61001 10252 20212 39504 48519 69904 83832 333 20207 58002 83825 83620;
0202677610999992000030703004-16520+028880FM-12+0518FVKB V0209999C000019999999N0400001N1+02401+01961999999ADDAY101031AY201031GA1011+999999099GF107991011091999999071031MA1999999095161MD1999999-0141ME1314909MW1131REMSYN088AAXX  07034 67761 41/82 70000 10240 20196 39516 48490 71300 81973 333 59014 819// 87459;
0168677610999992000042012004-16520+028880FM-12+0518FVKB V0202201N003612200019N0500001N1+02961+01921999999ADDGA1011+015009029GF101991011011017501001001MA1999999095521MD1999999-0051ME1315369REMSYN076AAXX  20124 67761 42784 12207 10296 20192 39552 48536 81100 333 59005 81850;
0187677610999992000042318004-16520+028880FM-12+0518FVKB V0209999C000012200019N0500001N1+02351+01931999999ADDGA1011+030009079GF101991011001999999061001KA1120M+03111MA1999999095401MD1999999-0171ME1315289REMSYN082AAXX  23184 67761 42984 10000 10235 20193 39540 48528 81060 333 10311 59017 81360;
0156677610999992000042400004-16520+028880FM-12+0518FVKB V0209999C000012200019N0500001N1+01811+01661999999ADDGA1001+999999999GF100991001001999999001001MA1999999095491MD1999999-0031ME1315239REMSYN064AAXX  24004 67761 42984 00000 10181 20166 39549 48523 333 59003;
0091677610999992000042705004-16520+028880FM-15+0518FVKB V0209999C00001220001CN0099001N1+01701+01501999999ADDMA1101691999999MW1001REMMET039FVKB 270500Z 00000KT CAVOK 17/15 Q1017;EQDQ01+000000PRSWM2
0175677610999992000042718004-16520+028880FM-12+0518FVKB V0209999C000012200019N0450001N1+02371+01571999999ADDGA1001+999999999GF100991001001999999001001KA1120M+03251MA1999999095561MD1999999+0141ME1315349REMSYN070AAXX  27184 67761 42983 00000 10237 20157 39556 48534 333 10325 58014;
0091677610999992000050105004-16520+028880FM-15+0518FVKB V0209999C00001220001CN0099001N1+02001+01601999999ADDMA1102101999999MW1001REMMET039FVKB 010500Z 00000KT CAVOK 20/16 Q1021;EQDQ01+000000PRSWM2
0187677610999992000052318004-16520+028880FM-12+0518FVKB V0209999C00001105001CN0500001N1+02001+01681999999ADDGA1071+999999019GF107991021021999999001021KA1120M+02651MA1999999095661MD1999999-0111ME1315229REMSYN082AAXX  23184 67761 42984 70000 10200 20168 39566 48522 82202 333 10265 59011 87099;
0217677610999992000053106004-16520+028880FM-12+0518FVKB V0209999C000012200019N0500001N1+02081+01391999999ADDAA199000091GA1011+013509059GF101991011051012501001001KA1120N+01321MA1999999095891MD1999999+0021ME1315529REMSYN082AAXX  31064 67761 32684 10000 10208 20139 39589 48552 81500 333 20132 58002 81645;EQDQ01  00002PRCP99
0219677610999992000062715004-16510+028880FM-12+0518FVKB V0202501N001512200019N0500001N1+02391+01531999999ADDGA1021+024009079GF199999999999999999001001MA1999999096031MD1999999+0001ME1315629REMSYN076AAXX  27154 67761 42984 02503 10239 20153 39603 48562 82060 333 58000 82358;EQDQ01+000002SCOTCVQ02+000002SCOTLCQ03    003SCOLCG
0168677610999992000070303004-16510+028880FM-12+0518FVKB V0201201N001512200019N0450001N1+01731+01051999999ADDGA1041+030009079GF104991041001999999031001MA1999999096261MD1999999-0021ME1315749REMSYN076AAXX  03034 67761 42983 41203 10173 20105 39626 48574 84030 333 59002 84360;
0156677610999992000071000004-16510+028880FM-12+0518FVKB V0209999C000012200019N0500001N1+01451+01101999999ADDGA1001+999999999GF100991001001999999001001MA1999999096091MD1999999-0081ME1315639REMSYN064AAXX  10004 67761 42984 00000 10145 20110 39609 48563 333 59008;
0168677610999992000080215004-16510+028880FM-12+0518FVKB V0202501N001012200019N0450001N1+02401+01621999999ADDGA1011+015009029GF101991011011017501001001MA1999999095751MD1999999+0141ME1315379REMSYN076AAXX  02154 67761 42783 12502 10240 20162 39575 48537 81100 333 58014 81850;
0174677610999992000080715004-16510+028880FM-12+0518FVKB V0202301N00051045001CN0500001N1+02351+01401999999ADDGA1011+021009069GF107991011041022501031001MA1999999095941MD1999999+0081ME1315539REMSYN082AAXX  07154 67761 42884 72301 10235 20140 39594 48553 81430 333 58008 81657 87360;
0221677610999992000110218004-16510+028880FM-12+0518FVKB V0202701N001512200019N0500001N1+02801+02081999999ADDAY111061AY211061GA1011+012009099GF104991011091012501031031KA1120M+03751MA1999999094811MD1999999-0131ME1314729MW1131REMSYN094AAXX  02184 67761 41684 42703 10280 20208 39481 48472 71311 81933 333 10375 59013 81940 83360;
0202677610999992000111809004-16510+028880FM-12+0518FVKB V0201301N00051045001CN0400001N1+02511+02061999999ADDAY161031AY221031GA1011+002709079GF107991011011002501071021MA1999999095131MD1999999+0071ME1314859MW1151REMSYN088AAXX  18094 67761 41382 71301 10251 20206 39513 48485 71562 81172 333 58007 81709 87460;
0091677610999992000112105004-16510+028880FM-15+0518FVKB V0209999C00001220001CN0099001N1+02601+01001999999ADDMA1101021999999MW1001REMMET039FVKB 210500Z 00000KT CAVOK 26/10 Q1010;EQDQ01+000000PRSWM2
0168677610999992000112412004-16510+028880FM-12+0518FVKB V0201701N002612200019N0450001N1+03551+01711999999ADDGA1011+015009029GF101991011011017501001001MA1999999094961MD1999999-0161ME1315049REMSYN076AAXX  24124 67761 42783 11705 10355 20171 39496 48504 81100 333 59016 81850;
0262677610999992000120718004-16510+028880FM-12+0518FVKB V0200201N00101045001CN0500001N1+03001+01961999999ADDAY191061AY281061GA1011+012009099GA2031+015009089GF106991041021017501031031KA1120M+03701MA1999999999999MD1999999-0051ME1315049MW1291REMSYN100AAXX  07184 67761 41784 60202 10300 20196 39150 48504 72998 84233 333 10370 59005 81940 83850 85080;EQDQ01 091503APOSP 
0238677610999992000121306004-16510+028880FM-12+0518FVKB V0209999C00001045001CN0050001N1+02241+02181999999ADDAA124024991AY191061AY281061GA1031+001809079GF108991031071002501071021KA1120N+01991MA1999999095171MD1999999-0041ME1314989MW1611REMSYN100AAXX  13064 67761 11350 80000 10224 20218 39517 48498 60254 76198 83772 333 20199 59004 83706 88459;
0151677610999992000121406004-16510+028880FM-12+0518FVKB V0200901N003610060019N0500001N1+02321+01611999999ADDGA1081+006009059GF108991999999008001999999KA1120N+01371MD1999999+0141REMSYN070AAXX  14064 67761 11584 80907 10232 20161 3///5 333 20137 58014 88620;
0260677650999992000010206004-16830+029620FM-12+1344FVKA V0200501N00051001801CN0080001N1+01901+01771999999ADDAA124005191AY191061AY261061GA1061+001809079GA2021+009009099GF108991061091002501071999KA1120N+01911MA1999999086641MD1999999+0031ME1315069MW1951REMSYN106AAXX  02064 67765 11358 80501 10190 20177 38664 48506 60054 79596 8697/ 333 20191 58003 82930 86706 88460;
0232677650999992000020406004-16830+029620FM-12+1344FVKA V0201601N003610300019N0500001N1+01931+01661999999ADDAA124000591GA1011+003909079GA2061+030009039GF107991011061004501031081KA1120N+01661MA1999999086571MD1999999-0051ME1314999REMSYN100AAXX  04064 67765 12484 71607 10193 20166 38657 48499 69944 81638 333 20166 59005 81713 86360 87299;
0202677650999992000021203004-16830+029620FM-12+1344FVKA V0200801N00051045001CN0300001N1+01871+01811999999ADDAY121031AY221031GA1011+009009099GF107991011091012501071999MA1999999086901MD1999999+0001ME1314939MW1131REMSYN088AAXX  12034 67765 41680 70801 10187 20181 38690 48493 71322 8197/ 333 58000 81930 87460;
0196677650999992000021909004-16830+029620FM-12+1344FVKA V0200401N002110045019N0500001N1+02201+01841999999ADDAY161031AY251031GA1071+004509029GF107991071021004501031999MA1999999086771MD1999999+0171ME1315229MW1031REMSYN082AAXX  19094 67765 41484 70404 10220 20184 38677 48522 70365 8723/ 333 58017 87815;
0221677650999992000022518004-16830+029620FM-12+1344FVKA V0209999C00001045001CN0500001N1+01861+01861999999ADDAY191061AY281061GA1011+003009079GF108991011061004501071999KA1120M+02451MA1999999086461MD1999999+0111ME1314889MW1151REMSYN094AAXX  25184 67765 41484 80000 10186 20186 38646 48488 71598 8167/ 333 10245 58011 81710 88459;
0168677650999992000041909004-16830+029620FM-12+1344FVKA V0200901N004110090019N0500001N1+02201+01521999999ADDGA1051+009009029GF105991051011012501031001MA1999999087201MD1999999+0111ME1315629REMSYN076AAXX  19094 67765 42684 50908 10220 20152 38720 48562 85130 333 58011 85830;
0204677650999992000042306004-16830+029620FM-12+1344FVKA V0200801N001512200019N0500001N1+01851+01701999999ADDAA124005191GA1011+012009029GF101991011021012501001001KA1120N+01431MA1999999087101MD1999999-0031ME1315529REMSYN088AAXX  23064 67765 12684 10803 10185 20170 38710 48552 60054 81200 333 20143 59003 81840;
0187677650999992000051318004-16830+029620FM-12+1344FVKA V0201101N000510060019N0500001N1+01451+01321999999ADDGA1081+006009059GF108991081051008001999999KA1120M+01861MA1999999087251MD1999999+0021ME1315649REMSYN082AAXX  13184 67765 42584 81101 10145 20132 38725 48564 885// 333 10186 58002 88620;
0168677650999992000051703004-16830+029620FM-12+1344FVKA V0209999C000012200019N0500001N1+01111+01001999999ADDGA1041+030009079GF104991041001999999031011MA1999999087101MD1999999-0111ME1315509REMSYN076AAXX  17034 67765 42984 40000 10111 20100 38710 48550 84031 333 59011 84360;
0168677650999992000052103004-16830+029620FM-12+1344FVKA V0209999C000012200019N0500001N1+01051+01051999999ADDGA1011+009009059GF101991011051012501001001MA1999999087131MD1999999-0031ME1315539REMSYN076AAXX  21034 67765 42684 10000 10105 20105 38713 48553 81500 333 59003 81630;
0206677650999992000080318004-16820+029610FM-12+1344FVKA V0209999C000012200019N0500001N1+01401+01021999999ADDGA1011+021009059GF101991011041022501999001KA1120M+02351MA1999999087101MD1999999+0011ME1315519REMSYN082AAXX  03184 67765 42884 10000 10140 20102 38710 48551 81400 333 10235 58001 81657;EQDQ01+000002SCOMCG
0184677650999992000090900004-16820+029610FM-12+1344FVKA V0200801N004612200019N0100001N1+01501+01161999999ADDAY101061AY201061GA1001+999999999GF100991001001999999001001MA1999999086191MD1999999+0311ME1315329MW1051REMSYN070AAXX  09004 67765 41960 00809 10150 20116 38619 48532 70500 333 58031;
0196677650999992000102003004-16820+029610FM-12+1344FVKA V0200901N001512200019N0200001N1+01501+00361999999ADDAY101031AY201031GA1011+999999019GF101991001001999999001011MA1999999086811MD1999999+0051ME1315229MW1051REMSYN082AAXX  20034 67765 41970 10903 10150 20036 38681 48522 70500 80001 333 58005 81099;
0168677650999992000110200004-16820+029610FM-12+1344FVKA V0200901N001010300019N0500001N1+01701+01411999999ADDGA1061+030009079GF106991061001999999031011MA1999999086491MD1999999-0191ME1314919REMSYN076AAXX  02004 67765 42984 60902 10170 20141 38649 48491 86031 333 59019 86360;
0232677650999992000111306004-16820+029610FM-12+1344FVKA V0200501N00261105001CN0500001N1+02061+01731999999ADDAA124000191GA1011+004509089GA2031+030009039GF105991011011004501081081KA1120N+01701MA1999999086591MD1999999-0051ME1315029REMSYN100AAXX  13064 67765 12484 50505 10206 20173 38659 48502 69924 81188 333 20170 59005 81815 83360 85280;
0196677670999992000010815004-15630+030420FM-12+032999999V0202801N001010300019N0300001N1+02711+01801999999ADDGA1021+015009089GA2031+030009039GF107991021021017501031081MA1999999084381MD1999999-0151ME1314389REMSYN088AAXX  08154 67767 42780 72802 10271 20180 38438 48438 82238 333 59015 82850 83360 87299;
0130677670999992000012409004-15630+030420FM-12+032999999V0200901N001511050019N0300001N1+02981+02181999999ADDGA1031+010509089GF107991031011012501001081REMSYN076AAXX  24094 67767 42680 70903 10298 20218 3//// 48/// 83108 333 83835 87299;
0158677670999992000021212004-15630+030420FM-12+032999999V0200601N00051045001CN0300001N1+02941+02331999999ADDAY161061AY251061GA1021+013509089GF106991021021012501031001MW1021REMSYN082AAXX  12124 67767 41680 60601 10294 20233 3//// 48/// 70265 82230 333 82845 86360;
0158677670999992000033012004-15630+030420FM-12+032999999V0200601N002112200019N0300001N1+03281+02181999999ADDAY191061AY281061GA1011+012009099GF103991031021012501001031MW1021REMSYN082AAXX  30124 67767 41680 30604 10328 20218 3//// 48/// 70298 83203 333 81940 83845;
0124677670999992000040309004-15630+030420FM-12+032999999V0201501N001012200019N0300001N1+03031+02061999999ADDGA1041+015009029GF104991041021017501001001REMSYN070AAXX  03094 67767 42780 41502 10303 20206 3//// 48/// 84200 333 84850;
0177677670999992000121818004-15620+030420FM-12+032999999V0209999C000012200019N0300001N1+02871+02511999999ADDAY191061AY211061GA1011+013509099GF104991011091012501031031KA1120M+03451MW1131REMSYN088AAXX  18184 67767 41680 40000 10287 20251 3//// 48/// 71391 81933 333 10345 81945 84080;
0180677670999992000121912004-15620+030420FM-12+032999999V0200101N00211045001CN0300001N1+03451+02021999999ADDAY191061AY281061GA1011+015009099GA2031+018009089GF105991031021017501031021MW1171REMSYN088AAXX  19124 67767 41780 50104 10345 20202 3//// 48/// 71798 83232 333 81950 83856 85080;
0194677710999992000011106004-17370+030200FM-12+114099999V0200501N001010045019N0300001N1+02001+01971999999ADDAA124003091AY161061AY221061GA1051+004509069GF107991051051004501071999KA1120N+01841MW1211REMSYN094AAXX  11064 67771 11480 70502 10200 20197 3//// 48/// 60034 72162 8557/ 333 20184 85615 88460;
0173677710999992000012306004-17370+030200FM-12+114099999V0200201N002112200019N0300001N1+02021+01771999999ADDAA199000091GA1011+004509029GF101991011011004501031001KA1120N+01681REMSYN076AAXX  23064 67771 32480 10204 10202 20177 3//// 48/// 81130 333 20168 81815;EQDQ01  00002PRCP99
0194677710999992000020606004-17370+030200FM-12+114099999V0200201N002610030019N0200001N1+02021+02021999999ADDAA124008991AY161061AY251061GA1061+003009069GF108991061051004501071999KA1120N+01991MW1581REMSYN094AAXX  06064 67771 11470 80205 10202 20202 3//// 48/// 60094 75865 8657/ 333 20199 86610 88460;
0124677710999992000041912004-17370+030200FM-12+114099999V0200201N001512200019N0300001N1+02611+01441999999ADDGA1031+015009029GF103991031021017501031001REMSYN070AAXX  19124 67771 42780 30203 10261 20144 3//// 48/// 83230 333 83850;
0130677710999992000061712004-17360+030200FM-12+114099999V0201001N00151045001CN0300001N1+02101+00811999999ADDGA1011+015009089GF106991011011017501071001REMSYN076AAXX  17124 67771 42780 61003 10210 20081 3//// 48/// 81170 333 81850 86460;
0189677710999992000092806004-17360+030200FM-12+114099999V0200401N001512200019N0100001N1+02021+01011999999ADDAA199000091AY101061AY201061GA1001+999999999GF100991001001999999001001KA1999N+01221MW1051REMSYN070AAXX  28064 67771 31960 00403 10202 20101 3//// 48/// 70500 333 20122;EQDQ01  00002PRCP99
0160677710999992000110906004-17360+030200FM-12+114099999V0200401N001510300019N0500001N1+02071+01871999999ADDAA124010991GA1071+030009019GF107991071001999999071999KA1120N+01691REMSYN082AAXX  09064 67771 12984 70403 10207 20187 3//// 48/// 60114 8707/ 333 20169 87460;
0160677710999992000121106004-17360+030200FM-12+114099999V0200301N002612200019N0300001N1+02211+01931999999ADDAA124000791GA1011+004509059GF102991011051004501031021KA1120N+01711REMSYN082AAXX  11064 67771 12480 20305 10221 20193 3//// 48/// 69904 81532 333 20171 81615;
0166677710999992000122906004-17360+030200FM-12+114099999V0200601N00211045001CN0300001N1+02021+01861999999ADDAA124000191GA1011+004509069GF107991011051004501031001KA1120N+01761REMSYN088AAXX  29064 67771 12480 70604 10202 20186 3//// 48/// 69914 81530 333 20176 81615 87360;
0198677730999992000011406004-16650+030700FM-12+118099999V0200601N001510045019N0300001N1+02021+01821999999ADDAA124000591AY151061AY221061GA1061+004509069GF106991061081004501071061KA1120N+01721MW1501REMSYN098    AAXX  14064 67773 11480 60603 10202 20182 3//// 48/// 69954 75052 86876 333 20172 86615 83459;
0152677730999992000040712004-16650+030700FM-12+118099999V0203201N003110075019N0050001N1+02901+02191999999ADDAY181061AY221061GA1061+007509029GF107991061021008001031021MW1811REMSYN076AAXX  07124 67773 41550 73206 10290 20219 3//// 48/// 78182 86232 333 86825;
0161677730999992000070906004-16650+030700FM-12+118099999V0200801N003112200019N0300001N1+01221+00691999999ADDAA199000091GA1001+999999999GF100991001001999999001001KA1999N+00851REMSYN064AAXX  09064 67773 32980 00806 10122 20069 3//// 48/// 333 20085;EQDQ01  00002PRCP99
0124677730999992000072712004-16650+030700FM-12+118099999V0200301N002110060019N0250001N1+01901+00721999999ADDGA1071+006009059GF107991071051008001999999REMSYN070AAXX  27124 67773 42575 70304 10190 20072 3//// 48/// 875// 333 87620;
0217677740999992000030506004-17830+031020FM-12+147299999V0200801N002112200019N0300001N1+02101+01151999999ADDAA199000091GA1011+004509059GF101991011051004501031001KA1120N+01501MA1999999085571MD1999999-0091ME1315279REMSYN082AAXX  05064 67774 32480 10804 10210 20115 38557 48527 81530 333 20150 59009 81615;EQDQ01  00002PRCP99
0217677740999992000080806004-17820+031010FM-12+147299999V0201001N002612200019N0250001N1+01281+00491999999ADDAA199000091GA1011+006009059GF101991011051008001001001KA1120N+00661MA1999999086151MD1999999+0031ME1315839REMSYN082AAXX  08064 67774 32575 11005 10128 20049 38615 48583 81500 333 20066 58003 81620;EQDQ01  00002PRCP99
0210677740999992000112906004-17820+031010FM-12+147299999V0200601N00211045001CN0250001N1+02101+01641999999ADDAA124000791GA1031+003009069GF107991031051004501031011KA1120N+01621MA1999999085491MD1999999-0181ME1315199REMSYN094AAXX  29064 67774 12475 70604 10210 20164 38549 48519 69904 83531 333 20162 59018 83610 86359;
0340677750999992000010718004-17920+031130SY-MT+1503FVHA V0200101N000510900019N0300001N1+02401+01821999999ADDAY121061AY221061GA1021+012009099GA2071+090009999GF107991011091012501031081KA1120M+02821MA1101391084611MD1999999-0091ME1314649MW1151REMSYN094AAXX  07184 67775 41680 70101 10240 20182 38461 48464 71522 81938 333 10282 59009 81940 87280;MET062FVHA 071800Z 0101KT 9999 FEW040CB BKN300 24/18 Q1014 TEMPO TS;EQDQ01+000000PRSWM2Q02    003PRSWM1
0091677750999992000012923004-17920+031130FM-15+1503FVHA V0200801N00211220001CN0099001N1+02101+01701999999ADDMA1101691999999MW1001REMMET039FVHA 292300Z 08004KT CAVOK 21/17 Q1017;EQDQ01+000000PRSWM2
0193677750999992000020404004-17920+031130FM-15+1503FVHA V0202001N003610024019N0112651N1+01701+01601999999ADDGA1021+001809999GA2071+002409999GF107991999999999999999999MA1101691999999MW1511REMMET067FVHA 040400Z 20007KT 9999 -DZ FEW006 BKN008 17/16 Q1017 TEMPO 8000;EQDQ01+000003PRSWM1Q02    003PRSWM1
0168677750999992000020509004-17920+031130FM-12+1503FVHA V0203601N003610060019N0400001N1+02261+01821999999ADDGA1071+006009029GF107991071011004501001001MA1999999084801MD1999999-0101ME1314849REMSYN076AAXX  05094 67775 42482 73607 10226 20182 38480 48484 87100 333 59010 87820;
0282677750999992000020800004-17920+031130SY-MT+1503FVHA V0200701N003112200019N0150001N1+01811+01721999999ADDAY111061AY211061GA1011+024009039GF103991011001999999031081MA1102001085081MD1999999-0021ME1315129MW1051REMSYN088AAXX  08004 67775 41965 30706 10181 20172 38508 48512 70511 81038 333 59002 81358 83280;MET039FVHA 080000Z 07006KT CAVOK 18/17 Q1020;EQDQ01+000000PRSWM2Q02    003PRSWM1
0202677750999992000021403004-17920+031130FM-12+1503FVHA V0200101N00151045001CN0300001N1+01801+01731999999ADDAY161031AY221031GA1011+001809079GF107991011061002501071999MA1999999084891MD1999999-0061ME1314939MW1021REMSYN088AAXX  14034 67775 41380 70103 10180 20173 38489 48493 70262 8167/ 333 59006 81706 87458;
0235677750999992000032503004-17920+031130SY-MT+1503FVHA V0200501N003619999999N0300001N1+01751+01571999999ADDGF106991061001999999041021MA1102101085191MD1999999+0031ME1315239MW1001REMSYN076AAXX  25034 67775 42980 60507 10175 20157 38519 48523 86042 333 58003 86358;MET052FVHA 250300Z 05007KT CAVOK 18/16 Q1021 TEMPO BKN008;EQDQ01+000000PRSWM2
0141677750999992000033001004-17920+031130FM-15+1503FVHA V0200401N003112200019N0112651N1+01801+01601999999ADDGA1021+999999099GF102991999999999999999999MA1102201999999MW1001REMMET047FVHA 300100Z 04006KT 9999 FEW///CB 18/16 Q1022;EQDQ01+000000PRSWM2
0250677750999992000033109004-17920+031130SY-MT+1503FVHA V0200801N004112200019N0300001N1+02401+01611999999ADDGA1021+009009999GF103991031011012501001001MA1102201085271MD1999999-0151ME1315319MW1001REMSYN076AAXX  31094 67775 42680 30808 10240 20161 38527 48531 83100 333 59015 83830;MET051FVHA 310900Z 08008KT 9999 SCT030 24/16 Q1022 NOSIG;EQDQ01+000000PRSWM2
0170677750999992000040113004-17920+031130FM-15+1503FVHA V0200401N005112200019N0112651N1+02601+01501999999ADDGA1021+012009099GA2021+013509999GF104991999999999999999999MA1102001999999MW1001REMMET060FVHA 011300Z 04010KT 9999 FEW040CB SCT045 26/15 Q1020 NOSIG;EQDQ01+000000PRSWM2
0145677750999992000041111004-17920+031130FM-15+1503FVHA V0200901N005112200019N0112651N1+02401+01301999999ADDGA1021+013509999GF104991999999999999999999MA1102101999999MW1001REMMET051FVHA 111100Z 09010KT 9999 SCT045 24/13 Q1021 NOSIG;EQDQ01+000000PRSWM2
0326677750999992000041418004-17920+031130SY-MT+1503FVHA V0201301N00361024001CN0300001N1+01761+01421999999ADDAY181061AY261061GA1021+010509099GA2071+024009999GF107991011021012501071031KA1120M+02581MA1102201085281MD1999999+0001ME1315329MW1601MW2611REMSYN088AAXX  14184 67775 41680 71307 10176 20142 38528 48532 76086 81273 333 10258 58000 81935;MET064FVHA 141800Z 13007KT 9999 -RA FEW035CB BKN080 18/14 Q1022 NOSIG;EQDQ01    003PRSWM1
0145677750999992000042408004-17920+031130FM-15+1503FVHA V0200401N002612200019N0112651N1+02301+01001999999ADDGA1021+006009999GF102991999999999999999999MA1102401999999MW1001REMMET051FVHA 240800Z 04005KT 9999 FEW020 23/10 Q1024 NOSIG;EQDQ01+000000PRSWM2
0145677750999992000042510004-17920+031130FM-15+1503FVHA V0201801N002612200019N0112651N1+02501+00901999999ADDGA1021+012009999GF102991999999999999999999MA1102301999999MW1001REMMET051FVHA 251000Z 18005KT 9999 FEW040 25/09 Q1023 NOSIG;EQDQ01+000000PRSWM2
0097677750999992000042710004-17920+031130FM-15+1503FVHA V0202301N00101220001CN0099001N1+02501+00701999999ADDMA1102301999999MW1001REMMET045FVHA 271000Z 23002KT CAVOK 25/07 Q1023 NOSIG;EQDQ01+000000PRSWM2
0250677750999992000043009004-17920+031130SY-MT+1503FVHA V0201501N003112200019N0300001N1+02111+01311999999ADDGA1021+009009999GF104991041011012501001001MA1102811085811MD1999999+0001ME1315869MW1001REMSYN076AAXX  30094 67775 42680 41506 10211 20131 38581 48586 84100 333 58000 84830;MET051FVHA 300900Z 15006KT 9999 SCT030 21/13 Q1028 NOSIG;EQDQ01+000000PRSWM2
0329677750999992000050918004-17920+031130SY-MT+1503FVHA V0201301N003610024019N0060001N1+01521+01351999999ADDAY161061AY261061GA1071+002409999GA2071+024009999GF108991061071002501071999KA1120M+02091MA1102401085481MD1999999+0001ME1315529MW1611MW2631REMSYN094AAXX  09184 67775 41356 81307 10152 20135 38548 48552 76166 8677/ 333 10209 58000 86708 88458;MET061FVHA 091800Z 13007KT 6000 RA BKN008 BKN080 15/14 Q1024 NOSIG;EQDQ01    003PRSWM1
0317677750999992000051209004-17920+031130SY-MT+1503FVHA V0201301N00511007501CN0300001N1+01551+01041999999ADDAY161031AY221031GA1071+007509999GA2021+024009999GF107991041051004501071999MA1102711085661MD1999999+0071ME1315709MW1151REMSYN088AAXX  12094 67775 41480 71310 10155 20104 38566 48570 71562 8457/ 333 58007 84612 87458;MET058FVHA 120900Z 10011KT 9999 BKN025 SCT080 16/10 Q1027 NOSIG;EQDQ01+000000PRSWM2Q02    003PRSWM1
0202677750999992000051312004-17920+031130FM-12+1503FVHA V0201301N003110075019N0300001N1+01301+01131999999ADDAY151061AY221061GA1011+002409079GF107991071051008001999999MA1999999085601MD1999999+0111ME1315639MW1011REMSYN088AAXX  13124 67775 41580 71306 10130 20113 38560 48563 70152 875// 333 58011 81708 87625;
0089677750999992000051602004-17920+031130FM-15+1503FVHA V0209999999999220001CN0099001N1+01101+00601999999ADDMA1102611999999MW1001REMMET037FVHA 160200Z 00000 CAVOK 11/06 Q1026;EQDQ01+000000PRSWM2
0097677750999992000052204004-17920+031130FM-15+1503FVHA V0200401N00101220001CN0099001N1+01101+00801999999ADDMA1102511999999MW1001REMMET045FVHA 220400Z 04002KT CAVOK 11/08 Q1025 NOSIG;EQDQ01+000000PRSWM2
0091677750999992000052819004-17920+031130FM-15+1503FVHA V0200501N00051220001CN0099001N1+01701+01001999999ADDMA1102301999999MW1001REMMET039FVHA 281900Z 05001KT CAVOK 17/10 Q1023;EQDQ01+000000PRSWM2
0312677750999992000060906004-17920+031130SY-MT+1503FVHA V0200701N005112200019N0200001N1+01391+01211999999ADDAA199000091AY101061AY201061GF102991021001999999081021KA1120N+01111MA1102811085771MD1999999+0051ME1315809MW1051REMSYN088AAXX  09064 67775 31970 20710 10139 20121 38577 48580 70500 82082 333 20111 58005 82358;MET045FVHA 090600Z 07010KT CAVOK 14/12 Q1028 NOSIG;EQDQ01+000000PRSWM2Q02  00002PRCP99Q03    003PRSWM1
0131677750999992000061405004-17920+031130FM-15+1503FVHA V0200901N002612200019N0112651N1+99999+99999999999ADDGF100991999999999999999999MA1102811999999MW1001MW2411REMMET047FVHA 140500Z 09005KT 9999 BCFG SKC Q1028 NOSIG;EQDQ01+000003PRSWM1
0300677750999992000061406004-17920+031130SY-MT+1503FVHA V0200901N00311220001CN0200001N1+01121+00691999999ADDAA199000091AY101061AY201061GF100991001001999999001001KA1120N+00881MA1102811085811MD1999999-0111ME1315839MW1051REMSYN076AAXX  14064 67775 31970 00906 10112 20069 38581 48583 70500 333 20088 59011;MET045FVHA 140600Z 09006KT CAVOK 11/07 Q1028 NOSIG;EQDQ01+000000PRSWM2Q02  00002PRCP99Q03    003PRSWM1
0228677750999992000061703004-17920+031130SY-MT+1503FVHA V0200601N00261220001CN0400001N1+01001+00601999999ADDGF102991021051017501001001MA1102511085511MD1999999+0011ME1315549MW1001REMSYN076AAXX  17034 67775 42782 20605 10100 20060 38551 48554 82500 333 58001 82650;MET045FVHA 170300Z 06005KT CAVOK 10/06 Q1025 NOSIG;EQDQ01+000000PRSWM2
0147677750999992000062805004-17920+031130FM-15+1503FVHA V0200801N001512200019N0090001N1+00801+00601999999ADDGF100991999999999999999999MA1102811999999MW1411REMMET053FVHA 280500Z 08003KT 9000 BCFG SKC 08/06 Q1028 NOSIG;EQDQ01+000003PRSWM1Q02    003PRSWM1
0156677750999992000070310004-17920+031130FM-15+1503FVHA V0201401N007212200019N0112651N1+01501+00201999999ADDGA1021+009009999GF102991999999999999999999MA1102811999999MW1001OC101391REMMET054FVHA 031000Z 14014G27KT 9999 FEW030 15/02 Q1028 NOSIG;EQDQ01+000000PRSWM2
0266677750999992000070409004-17920+031130SY-MT+1503FVHA V0201501N005112200019N0300001N1+01531+00451999999ADDGA1021+007509999GF199999011011008001001001MA1102811085731MD1999999-0111ME1315769MW1001REMSYN076AAXX  04094 67775 42580 11510 10153 20045 38573 48576 81100 333 59011 81825;MET051FVHA 040900Z 15010KT 9999 FEW025 15/05 Q1028 NOSIG;EQDQ01+000012SCOTCVQ02+000000PRSWM2
0308677750999992000072006004-17920+031130SY-MT+1503FVHA V0200301N001012200019N0080001N1+01361+00371999999ADDAA199000091AY101061AY201061GF100991001001999999001001KA1120N+00871MA1102201085271MD1999999-0101ME1315319MW1051REMSYN076AAXX  20064 67775 31958 00302 10136 20037 38527 48531 70500 333 20087 59010;MET053FVHA 200600Z 03002KT 8000 SKC 14/04 Q1022 BECMG 9999;EQDQ01+000000PRSWM2Q02  00002PRCP99Q03    003PRSWM1
0145677750999992000072715004-17920+031130FM-15+1503FVHA V0201701N004612200019N0112651N1+01701+00501999999ADDGA1021+012009999GF104991999999999999999999MA1102511999999MW1001REMMET051FVHA 271500Z 17009KT 9999 SCT040 17/05 Q1025 NOSIG;EQDQ01+000000PRSWM2
0091677750999992000080123004-17920+031130FM-15+1503FVHA V0201201N00261220001CN0099001N1+01301+01001999999ADDMA1102511999999MW1001REMMET039FVHA 012300Z 12005KT CAVOK 13/10 Q1025;EQDQ01+000000PRSWM2
0091677750999992000080623004-17920+031130FM-15+1503FVHA V0201401N00211220001CN0099001N1+01101+00801999999ADDMA1102711999999MW1001REMMET039FVHA 062300Z 14004KT CAVOK 11/08 Q1027;EQDQ01+000000PRSWM2
0168677750999992000080715004-17920+031130FM-12+1503FVHA V0201401N004110135019N0300001N1+01651+00491999999ADDGA1051+013509059GF105991051041012501001001MA1999999085581MD1999999-0061ME1315629REMSYN076AAXX  07154 67775 42680 51408 10165 20049 38558 48562 85400 333 59006 85645;
0283677750999992000081215004-17920+031130SY-MT+1503FVHA V0201701N00461220001CN0200001N1+01871-00071999999ADDAY101031AY201031GF101991011041017501999001MA1102511085551MD1999999+0301ME1315609MW1051REMSYN082AAXX  12154 67775 41770 11709 10187 21007 38555 48560 70500 81400 333 58030 81656;MET046FVHA 121500Z 17009KT CAVOK 19/M01 Q1025 NOSIG;EQDQ01+000000PRSWM2Q02+000002SCOMCGQ03    003PRSWM1
0097677750999992000081219004-17920+031130FM-15+1503FVHA V0201501N00871220001CN0099001N1+01301+00501999999ADDMA1102711999999MW1001REMMET045FVHA 121900Z 15017KT CAVOK 13/05 Q1027 NOSIG;EQDQ01+000000PRSWM2
0097677750999992000090911004-17920+031130FM-15+1503FVHA V0200401N00571220001CN0099001N1+02101+01001999999ADDMA1102401999999MW1001REMMET045FVHA 091100Z 04011KT CAVOK 21/10 Q1024 NOSIG;EQDQ01+000000PRSWM2
0216677750999992000101615004-17920+031130SY-MT+1503FVHA V0200901N004112200019N0250001N1+02781+00051999999ADDGF100991001001999999001001MA1102201085261MD1999999+0021ME1315319MW1001REMSYN064AAXX  16154 67775 42975 00908 10278 20005 38526 48531 333 58002;MET045FVHA 161500Z 09008KT CAVOK 28/01 Q1022 NOSIG;EQDQ01+000000PRSWM2
0216677750999992000101621004-17920+031130SY-MT+1503FVHA V0200601N004112200019N0250001N1+01851+00131999999ADDGF100991001001999999001001MA1102511085551MD1999999+0091ME1315609MW1001REMSYN064AAXX  16214 67775 42975 00608 10185 20013 38555 48560 333 58009;MET045FVHA 162100Z 06008KT CAVOK 19/01 Q1025 NOSIG;EQDQ01+000000PRSWM2
0097677750999992000102010004-17920+031130FM-15+1503FVHA V0200701N00511220001CN0099001N1+02801+00201999999ADDMA1102301999999MW1001REMMET045FVHA 201000Z 07010KT CAVOK 28/02 Q1023 NOSIG;EQDQ01+000000PRSWM2
0097677750999992000102310004-17920+031130FM-15+1503FVHA V0200501N00361220001CN0099001N1+02601+00701999999ADDMA1102201999999MW1001REMMET045FVHA 231000Z 05007KT CAVOK 26/07 Q1022 NOSIG;EQDQ01+000000PRSWM2
0272677750999992000102515004-17920+031130SY-MT+1503FVHA V0200401N00461220001CN0200001N1+02901+00661999999ADDAY121031AY221031GF106991011041017501001021MA1101801084901MD1999999+0111ME1314939MW1051REMSYN088AAXX  25154 67775 41770 60409 10290 20066 38490 48493 70522 81402 333 58011 81658 86080;MET045FVHA 251500Z 04009KT CAVOK 29/07 Q1018 NOSIG;EQDQ01+000000PRSWM2Q02    003PRSWM1
0168677750999992000102908004-17920+031130FM-15+1503FVHA V0200601N003610060019N0112651N1+01901+01401999999ADDGA1071+006009999GA2071+027009999GF107991999999999999999999MA1102301999999MW1001REMMET058FVHA 290800Z 06007KT 9999 BKN020 BKN090 19/14 Q1023 NOSIG;EQDQ01+000000PRSWM2
0319677750999992000102915004-17920+031130SY-MT+1503FVHA V0200401N003612200019N0300001N1+02151+01451999999ADDAY121031AY221031GA1021+009009099GA2021+024009999GF105991021021012501031031MA1101901085011MD1999999-0211ME1315059MW1151REMSYN088AAXX  29154 67775 41680 50407 10215 20145 38501 48505 71522 82233 333 59021 81930 83359;MET060FVHA 291500Z 04007KT 9999 FEW030CB SCT080 22/15 Q1019 NOSIG;EQDQ01+000000PRSWM2Q02    003PRSWM1
0298677750999992000110218004-17920+031130SY-MT+1503FVHA V0200201N001510900019N0300001N1+02381+01311999999ADDGA1021+012009999GA2071+090009999GF107991041041012501001081KA1120M+02781MA1101691084821MD1999999-0061ME1314869MW1001REMSYN088AAXX  02184 67775 42680 70203 10238 20131 38482 48486 84408 333 10278 59006 84640 86280;MET058FVHA 021800Z 02003KT 9999 SCT040 BKN300 24/13 Q1017 NOSIG;EQDQ01+000000PRSWM2
0260677750999992000111503004-17920+031130SY-MT+1503FVHA V0201001N001012200019N0300001N1+01721+01541999999ADDGA1031+024009079GF103991031999999999031001MA1101801084921MD1999999+0181ME1314969MW1001REMSYN076AAXX  15034 67775 42980 31002 10172 20154 38492 48496 83030 333 58018 83358;MET045FVHA 150300Z 10002KT CAVOK 17/15 Q1018 NOSIG;EQDQ01+000000PRSWM2Q02    003SCOLCG
0168677750999992000111610004-17920+031130FM-15+1503FVHA V0203301N003112200019N0112651N1+02501+01301999999ADDGA1021+013509999GA2021+027009999GF104991999999999999999999MA1101801999999MW1001REMMET058FVHA 161000Z 33006KT 9999 SCT045 SCT090 25/13 Q1018 NOSIG;EQDQ01+000000PRSWM2
0097677750999992000120416004-17920+031130FM-15+1503FVHA V0200901N00411220001CN0099001N1+02601+01201999999ADDMA1101801999999MW1001REMMET045FVHA 041600Z 09008KT CAVOK 26/12 Q1018 NOSIG;EQDQ01+000000PRSWM2
0097677750999992000120519004-17920+031130FM-15+1503FVHA V0201101N00261220001CN0099001N1+02101+01301999999ADDMA1102201999999MW1001REMMET045FVHA 051900Z 11005KT CAVOK 21/13 Q1022 NOSIG;EQDQ01+000000PRSWM2
0193677750999992000122113004-17920+031130FM-15+1503FVHA V0200501N003610240019N0112651N1+02601+01601999999ADDGA1021+009009099GA2071+024009999GA3071+090009999GF107991999999999999999999MA1101691999999MW1001REMMET067FVHA 211300Z 05007KT 9999 FEW030CB BKN080 BKN300 26/16 Q1017 NOSIG;EQDQ01+000000PRSWM2
0168677750999992000122119004-17920+031130FM-15+1503FVHA V0201401N003110300019N0112651N1+02101+01701999999ADDGA1021+010509999GA2071+030009999GF107991999999999999999999MA1102101999999MW1001REMMET058FVHA 211900Z 14006KT 9999 FEW035 BKN100 21/17 Q1021 NOSIG;EQDQ01+000000PRSWM2
0277677750999992000122203004-17920+031130SY-MT+1503FVHA V0200401N000512200019N0300001N1+01851+01631999999ADDAY101031AY201031GA1021+024009999GF101991011001999999031021MA1102001085121MD1999999+0131ME1315169MW1411REMSYN082AAXX  22034 67775 41980 10401 10185 20163 38512 48516 74100 81032 333 58013 81358;MET056FVHA 220300Z 04001KT 9999 BCFG FEW080 18/16 Q1020 NOSIG;EQDQ01    003PRSWM1
0188677750999992000122319004-17920+031130FM-15+1503FVHA V0200801N001010240019N0112651N1+01801+01701999999ADDGA1021+002409999GA2071+024009999GF107991999999999999999999MA1101901999999MW1611REMMET062FVHA 231900Z 08002KT 9999 -RA FEW008 BKN080 18/17 Q1019 NOSIG;EQDQ01+000003PRSWM1Q02    003PRSWM1
0168677750999992000123105004-17920+031130FM-15+1503FVHA V0200301N004110240019N0112651N1+02001+01701999999ADDGA1021+002709999GA2071+024009999GF107991999999999999999999MA1101801999999MW1001REMMET058FVHA 310500Z 03008KT 9999 FEW009 BKN080 20/17 Q1018 NOSIG;EQDQ01+000000PRSWM2
0168677790999992000010603004-16780+031580FM-12+096699999V0209999C000010300019N0300001N1+01971+01921999999ADDGA1061+030009079GF106991061001999999031021MA1999999090321MD1999999-0021ME1314889REMSYN076AAXX  06034 67779 42980 60000 10197 20192 39032 48488 86032 333 59002 86360;
0202677790999992000010815004-16780+031580FM-12+096699999V0202701N001510450019N0500001N1+02901+01721999999ADDAY121031AY221031GA1011+012009099GF107991011091012501061021MA1999999089611MD1999999-0121ME1314269MW1171REMSYN088AAXX  08154 67779 41684 72703 10290 20172 38961 48426 71722 81962 333 59012 81940 87099;
0168677790999992000012309004-16780+031580FM-12+096699999V0200301N001012200019N0300001N1+02571+01831999999ADDGA1031+009909029GF103991031011012501001021MA1999999090571MD1999999-0101ME1315149REMSYN076AAXX  23094 67779 42680 30302 10257 20183 39057 48514 83102 333 59010 83833;
0202677790999992000021512004-16780+031580FM-12+096699999V0201301N00051045001CN0200001N1+02141+02051999999ADDAY191061AY261061GA1011+007509089GF107991011021008001071999MA1999999090041MD1999999+0001ME1314639MW1611REMSYN088AAXX  15124 67779 41570 71301 10214 20205 39004 48463 76196 8127/ 333 58000 81825 87460;
0165677790999992000030318004-16780+031580FM-12+096699999V0209999C000019999999N0500001N1+02261+02081999999ADDGF105991051001999999031021KA1120M+02841MA1999999090371MD1999999+0101ME1314949REMSYN076AAXX  03184 67779 42984 50000 10226 20208 39037 48494 85032 333 10284 58010;
0202677790999992000031509004-16780+031580FM-12+096699999V0203301N00101045001CN0150001N1+02241+02041999999ADDAY161031AY221031GA1011+002109079GF108991011071002501071999MA1999999090491MD1999999+0151ME1315079MW1611REMSYN088AAXX  15094 67779 41365 83302 10224 20204 39049 48507 76162 8177/ 333 58015 81707 88460;
0217677790999992000041106004-16780+031580FM-12+096699999V0200701N002110039019N0400001N1+02091+01811999999ADDAA199000091GA1071+003909059GF107991071051004501999999KA1120N+01891MA1999999090891MD1999999+0041ME1315429REMSYN082AAXX  11064 67779 32482 70704 10209 20181 39089 48542 875// 333 20189 58004 87613;EQDQ01  00002PRCP99
0168677790999992000052015004-16780+031580FM-12+096699999V0200901N000512200019N0500001N1+02171+01331999999ADDGA1011+010809029GF101991011011012501001001MA1999999091011MD1999999-0031ME1315479REMSYN076AAXX  20154 67779 42684 10901 10217 20133 39101 48547 81100 333 59003 81836;
0168677790999992000061003004-16780+031580FM-12+096699999V0202101N001510024019N0300001N1+01021+00981999999ADDGA1081+002409069GF108991081061002501999999MA1999999091231MD1999999-0031ME1315509REMSYN076AAXX  10034 67779 42380 82103 10102 20098 39123 48550 886// 333 59003 88708;
0168677790999992000062409004-16770+031570FM-12+096699999V0201001N004112200019N0300001N1+02311+01331999999ADDGA1011+012309029GF101991011011012501031001MA1999999091191MD1999999+0121ME1315899REMSYN076AAXX  24094 67779 42680 11008 10231 20133 39119 48589 81130 333 58012 81841;
0175677790999992000062818004-16770+031570FM-12+096699999V0202101N001012200019N0400001N1+01151+00951999999ADDGA1001+999999999GF100991001001999999001001KA1120M+02381MA1999999091411MD1999999-0051ME1315819REMSYN070AAXX  28184 67779 42982 02102 10115 20095 39141 48581 333 10238 59005;
0168677790999992000071403004-16770+031570FM-12+096699999V0209999C000010045019N0300001N1+01511+01381999999ADDGA1071+004509059GF107991071051004501999999MA1999999090901MD1999999-0081ME1315319REMSYN076AAXX  14034 67779 42480 70000 10151 20138 39090 48531 875// 333 59008 87615;
0156677790999992000072403004-16770+031570FM-12+096699999V0201901N000512200019N0300001N1+00571+00511999999ADDGA1001+999999999GF100991001001999999001001MA1999999091331MD1999999-0031ME1315709REMSYN064AAXX  24034 67779 42980 01901 10057 20051 39133 48570 333 59003;
0175677790999992000072518004-16770+031570FM-12+096699999V0201601N000512200019N0300001N1+01411+00701999999ADDGA1001+999999999GF100991001001999999001001KA1120M+02381MA1999999091241MD1999999-0051ME1315669REMSYN070AAXX  25184 67779 42980 01601 10141 20070 39124 48566 333 10238 59005;
0233677790999992000090706004-16770+031570FM-12+096699999V0203201N001012200019N0200001N1+01821+00791999999ADDAA199000091AY101061AY201061GA1001+999999999GF100991001001999999001001KA1120N+01041MA1999999090601MD1999999-0251ME1315079MW1051REMSYN076AAXX  07064 67779 31970 03202 10182 20079 39060 48507 70500 333 20104 59025;EQDQ01  00002PRCP99
0196677790999992000090909004-16770+031570FM-12+096699999V0201001N002610090019N0500001N1+02001+01271999999ADDAY151031AY221031GA1081+009009059GF108991081051012501999999MA1999999091231MD1999999+0421ME1315649MW1201REMSYN082AAXX  09094 67779 41684 81005 10200 20127 39123 48564 72052 885// 333 58042 88630;
0168677790999992000103109004-16770+031570FM-12+096699999V0200901N001510075019N0500001N1+02121+01451999999ADDGA1071+007509059GF107991071051008001999999MA1999999090851MD1999999+0181ME1315399REMSYN076AAXX  31094 67779 42584 70903 10212 20145 39085 48539 875// 333 58018 87625;
0168677790999992000111709004-16770+031570FM-12+096699999V0203601N001510078019N0300001N1+02391+01811999999ADDGA1051+007809059GF106991051051008001031021MA1999999090421MD1999999+0041ME1315009REMSYN076AAXX  17094 67779 42580 63603 10239 20181 39042 48500 85532 333 58004 85626;
0221677790999992000112818004-16770+031570FM-12+096699999V0209999C000012200019N0300001N1+02071+01851999999ADDAY111061AY211061GA1011+999999099GF103991011091999999001031KA1120M+02571MA1999999090531MD1999999-0241ME1315069MW1131REMSYN094AAXX  28184 67779 41/80 30000 10207 20185 39053 48506 71311 81903 333 10257 59024 819// 83099;
0174677790999992000122112004-16770+031570FM-12+096699999V0200901N001510111019N0300001N1+02901+01951999999ADDGA1051+011109089GF106991051021012501071021MA1999999090201MD1999999+0021ME1314839REMSYN082AAXX  21124 67779 42680 60903 10290 20195 39020 48483 85272 333 58002 85837 83460;
0202677810999992000012012004-17420+032220FM-12+1244FVMT V0203601N002110105019N0100001N1+02081+01771999999ADDAY181061AY221061GA1051+010509089GF107991051021012501071021MA1999999087981MD1999999+0181ME1315409MW1801REMSYN088AAXX  20124 67781 41660 73604 10208 20177 38798 48540 78082 85272 333 58018 85835 87460;
0156677810999992000012403004-17420+032220FM-12+1244FVMT V0209999C000012200019N0250001N1+01581+01491999999ADDGA1001+999999999GF100991001001999999001001MA1999999087731MD1999999+0091ME1315149REMSYN064AAXX  24034 67781 42975 00000 10158 20149 38773 48514 333 58009;
0202677810999992000020115004-17420+032220FM-12+1244FVMT V0200101N00211045001CN0200001N1+02001+01771999999ADDAY191031AY261031GA1021+009009099GF107991021091012501031021MA1999999087411MD1999999+0041ME1314849MW1951REMSYN088AAXX  01154 67781 41670 70104 10200 20177 38741 48484 79596 82932 333 58004 82930 87460;
0196677810999992000020812004-17420+032220FM-12+1244FVMT V0200601N003112200019N0200001N1+02671+01751999999ADDAY111061AY211061GA1041+012009029GF104991041021012501001021MA1999999087581MD1999999-0121ME1315049MW1051REMSYN082AAXX  08124 67781 41670 40606 10267 20175 38758 48504 70511 84202 333 59012 84840;
0196677810999992000020903004-17420+032220FM-12+1244FVMT V0209999C000012200019N0200001N1+01951+01911999999ADDAY101031AY201031GA1031+004509059GF103991031051004501031021MA1999999087661MD1999999-0061ME1315109MW1051REMSYN082AAXX  09034 67781 41470 30000 10195 20191 38766 48510 70500 83532 333 59006 83615;
0174677810999992000030215004-17420+032220FM-12+1244FVMT V0200201N001012200019N0300001N1+02601+01791999999ADDGA1011+010509099GF103991031021012501031031MA1999999087401MD1999999-0041ME1314859REMSYN082AAXX  02154 67781 42680 30202 10260 20179 38740 48485 83233 333 59004 81935 83850;
0174677810999992000032312004-17420+032220FM-12+1244FVMT V0200801N001012200019N0400001N1+02551+01711999999ADDGA1011+010509099GF103991031021012501031031MA1999999087661MD1999999-0171ME1315119REMSYN082AAXX  23124 67781 42682 30802 10255 20171 38766 48511 83233 333 59017 81935 83837;
0233677810999992000032806004-17420+032220FM-12+1244FVMT V0200701N001012200019N0250001N1+02121+01811999999ADDAA199000091GA1061+030009019GF199999041051004501031021KA1120N+01781MA1999999087931MD1999999+0021ME1315369REMSYN082AAXX  28064 67781 32475 40702 10212 20181 38793 48536 84532 333 20178 58002 86460;EQDQ01+000042SCOTCVQ02  00002PRCP99
0168677810999992000033009004-17420+032220FM-12+1244FVMT V0200301N001512200019N0300001N1+02581+01711999999ADDGA1021+011109029GF102991021021012501001001MA1999999088041MD1999999+0031ME1315499REMSYN076AAXX  30094 67781 42680 20303 10258 20171 38804 48549 82200 333 58003 82837;
0196677810999992000041112004-17420+032220FM-12+1244FVMT V0200301N004112200019N0300001N1+02491+01611999999ADDAY181061AY221061GA1031+012009029GF103991031021012501031021MA1999999087821MD1999999+0021ME1315269MW1251REMSYN082AAXX  11124 67781 42680 30308 10249 20161 38782 48526 72582 83232 333 58002 83840;
0187677810999992000042418004-17420+032220FM-12+1244FVMT V0200601N001512200019N0250001N1+01921+01451999999ADDGA1011+030009079GF101991011001999999031001KA1120M+02651MA1999999087961MD1999999+0081ME1315389REMSYN082AAXX  24184 67781 42975 10603 10192 20145 38796 48538 81030 333 10265 58008 81360;
0175677810999992000042718004-17420+032220FM-12+1244FVMT V0200601N001512200019N0300001N1+01931+00921999999ADDGA1001+999999999GF100991001001999999001001KA1120M+02811MA1999999087961MD1999999+0101ME1315409REMSYN070AAXX  27184 67781 42980 00603 10193 20092 38796 48540 333 10281 58010;
0168677810999992000050409004-17420+032220FM-12+1244FVMT V0200301N003112200019N0250001N1+02341+01581999999ADDGA1041+009009029GF104991041021012501031001MA1999999088161MD1999999-0031ME1315589REMSYN076AAXX  04094 67781 42675 40306 10234 20158 38816 48558 84230 333 59003 84830;
0196677810999992000062709004-17420+032210FM-12+1244FVMT V0200801N003112200019N0150001N1+01831+00801999999ADDAY101031AY201031GA1011+012609029GF101991011011012501001001MA1999999088621MD1999999+0071ME1315969MW1051REMSYN082AAXX  27094 67781 41665 10806 10183 20080 38862 48596 70500 81100 333 58007 81842;
0184677810999992000090303004-17420+032210FM-12+1244FVMT V0200701N000512200019N0100001N1+01641+00321999999ADDAY101031AY201031GA1001+999999999GF100991001001999999001001MA1999999087701MD1999999-0171ME1315119MW1051REMSYN070AAXX  03034 67781 41960 00701 10164 20032 38770 48511 70500 333 59017;
0184677810999992000090309004-17420+032210FM-12+1244FVMT V0200701N002612200019N0100001N1+02621+00741999999ADDAY101031AY201031GA1001+999999999GF100991001001999999001001MA1999999087861MD1999999-0151ME1315319MW1051REMSYN070AAXX  03094 67781 41960 00705 10262 20074 38786 48531 70500 333 59015;
0196677810999992000100215004-17420+032210FM-12+1244FVMT V0201001N005112200019N0100001N1+02721+00521999999ADDAY101031AY201031GA1011+030009079GF101991011001999999061001MA1999999087771MD1999999+0051ME1315239MW1051REMSYN082AAXX  02154 67781 41960 11010 10272 20052 38777 48523 70500 81060 333 58005 81360;
0196677810999992000112203004-17420+032210FM-12+1244FVMT V0201601N001510300019N0100001N1+01731+01551999999ADDAY161031AY221031GA1071+030009019GF107991071001999999071999MA1999999087651MD1999999+0251ME1315079MW1151REMSYN082AAXX  22034 67781 41960 71603 10173 20155 38765 48507 71562 8707/ 333 58025 87460;
0124677890999992000063012004-17290+030840FM-12+148099999V0201201N001012200019N0300001N1+01831+00931999999ADDGA1031+013509029GF103991031011012501001001REMSYN070AAXX  30124 67789 42680 31202 10183 20093 3//// 48/// 83100 333 83845;
0161677890999992000071706004-17290+030840FM-12+148099999V0200801N000512200019N0300001N1+01261+00251999999ADDAA199000091GA1001+999999999GF100991001001999999001001KA1999N+00571REMSYN064AAXX  17064 67789 32980 00801 10126 20025 3//// 48/// 333 20057;EQDQ01  00002PRCP99
