030872323513896200011301853C+34750-087600FM-15+0165MSL  V0209999V00155220005MN0160005N1+00785-00285102605ADDAA101000095GF100991999999999999999999MA1102575999999MW1001REMMET068KMSL 301853Z VRB03KT 10SM CLR 08/M03 A3029 RMK AO2 SLP260 T00781028;EQDQ01+000000PRSWM2N01 00000JPWTH 0QNNAA1D0 00000BA1 0 00000GA1U0 99999KA1D0 00027JA1 0-00028LA1 0 01000CA1 0 03029NA1 0 00000QA1 0 10260SA1D0 00046RA1 0 00078YA1 0 00003
032672323513896200012031853C+34750-087600FM-15+0165MSL  V0203605N00365006715MN0160005N1+00115-00395103265ADDAA101000095GD14995+0067159GF108991999999999999999999MA1103225999999MW1001REMMET071KMSL 031853Z 36007KT 10SM OVC022 01/M04 A3048 RMK AO2 SLP326 T00111039;EQDQ01+000000PRSWM2N01 00000JPWTH 0QNNAA1D0 06022BA1 0 06022GA1 0 00022KA1D0 00025JA1 0-00039LA1 0 01000CA1 0 03048NA1 0 00000QA1 0 10326SA1D0 00034RA1 0 00011YA1 0 36007
032572323513896200012050353C+34750-087600FM-15+0165MSL  V0209999C00005024385MN0144005N1+00065-00175102965ADDAA101000095GD13995+0243859GF107991999999999999999999MA1102955999999MW1001REMMET070KMSL 050353Z 00000KT 9SM BKN080 01/M02 A3040 RMK AO2 SLP296 T00061017;EQDQ01+000000PRSWM2N01 00000JPWTH 0QNNAA1D0 04080BA1 0 04080GA1 0 00080KA1D0 00029JA1 0-00017LA1 0 00900CA1 0 03040NA1 0 00000QA1 0 10296SA1D0 00033RA1 0 00006YA1 0 00000
033172323513896200012070653C+34750-087600FM-15+0165MSL  V0202905N00215010675MN0160005N1+00285-00065102125ADDAA101000095GD14995+0106759GF108991999999999999999999MA1102105999999MW1001REMMET076KMSL 070653Z AUTO 29004KT 10SM OVC035 03/M01 A3015 RMK AO2 SLP212 T00281006;EQDQ01+000000PRSWM2N01 00000JPWTH 0QNNAA1D0 06035BA1 0 06035GA1 0 00035KA1D0 00031JA1 0-00006LA1 0 01000CA1 0 03015NA1 0 00000QA1 0 10212SA1D0 00037RA1 0 00028YA1 0 29004
033872323513896200012080953C+34750-087600FM-15+0165MSL  V0201505N00155220005MN0096005N1-00065-00115101915ADDAA101000095GF100991999999999999999999MA1101905999999MW1101MW2455REMMET076KMSL 080953Z AUTO 15003KT 6SM BR CLR M01/M01 A3009 RMK AO2 SLP191 T10061011;EQDQ01+000003PRSWM1Q02    003PRSWM1N01 00070JPWTH 0QNNAA1D0 00000BA1 0 00000GA1U0 99999KA1D0 00030JA1 0-00011LA1 0 00600CA1 0 03009NA1 0 00070QA1 0 10191SA1D0 00031RA1 0-00006YA1 0 15003
030772323513896200012082253C+34750-087600FM-15+0165MSL  V0200105N00155220005MN0160005N1+01065+00175102135ADDAA101000095GF100991999999999999999999MA1102135999999MW1001REMMET067KMSL 082253Z 01003KT 10SM CLR 11/02 A3016 RMK AO2 SLP213 T01060017;EQDQ01+000000PRSWM2N01 00000JPWTH 0QNNAA1D0 00000BA1 0 00000GA1U0 99999KA1D0 00035JA1 0 00017LA1 0 01000CA1 0 03016NA1 0 00000QA1 0 10213SA1D0 00051RA1 0 00106YA1 0 01003
030672323513896200012091653C+34750-087600FM-15+0165MSL  V0201305N00415220005MN0112005N1+00835+00225102345ADDAA101000095GF100991999999999999999999MA1102345999999MW1001REMMET066KMSL 091653Z 13008KT 7SM CLR 08/02 A3022 RMK AO2 SLP234 T00830022;EQDQ01+000000PRSWM2N01 00000JPWTH 0QNNAA1D0 00000BA1 0 00000GA1U0 99999KA1D0 00036JA1 0 00022LA1 0 00700CA1 0 03022NA1 0 00000QA1 0 10234SA1D0 00047RA1 0 00083YA1 0 13008
030672323513896200012091953C+34750-087600FM-15+0165MSL  V0201105N00415220005MN0144005N1+01285+00285101965ADDAA101000095GF100991999999999999999999MA1101965999999MW1001REMMET066KMSL 091953Z 11008KT 9SM CLR 13/03 A3011 RMK AO2 SLP196 T01280028;EQDQ01+000000PRSWM2N01 00000JPWTH 0QNNAA1D0 00000BA1 0 00000GA1U0 99999KA1D0 00037JA1 0 00028LA1 0 00900CA1 0 03011NA1 0 00000QA1 0 10196SA1D0 00055RA1 0 00128YA1 0 11008
032472323513896200012100153C+34750-087600FM-15+0165MSL  V0201305N00265220005MN0144005N1+00895+00335102005ADDAA101000095GD12995+0304859GF104991999999999999999999MA1102005999999MW1001REMMET069KMSL 100153Z 13005KT 9SM SCT100 09/03 A3012 RMK AO2 SLP200 T00890033;EQDQ01+000000PRSWM2N01 00000JPWTH 0QNNAA1D0 02100BA1 0 02100GA1U0 99999KA1D0 00038JA1 0 00033LA1 0 00900CA1 0 03012NA1 0 00000QA1 0 10200SA1D0 00048RA1 0 00089YA1 0 13005
037372323513896200012100753C+34750-087600FM-15+0165MSL  V0209999C00005005185MN0128005N1+00895+00565101985ADDAA101000095GD13995+0051859GD24995+0109759GF108991999999999999999999MA1102005999999MW1001REMMET081KMSL 100753Z AUTO 00000KT 8SM BKN017 OVC036 09/06 A3012 RMK AO2 SLP198 T00890056;EQDQ01+000000PRSWM2N01 00000JPWTH 0QNNAA1D0 04017BA1 0 04017AA1D0 06036BA1 0 06036GA1 0 00017KA1D0 00042JA1 0 00056LA1 0 00800CA1 0 03012NA1 0 00000QA1 0 10198SA1D0 00048RA1 0 00089YA1 0 00000
033172323513896200012110053C+34750-087600FM-15+0165MSL  V0201405N00315220005MN0096005N1+01005+00785102035ADDAA101000095GF100991999999999999999999MA1102035999999MW1101MW2455REMMET069KMSL 110053Z 14006KT 6SM BR CLR 10/08 A3013 RMK AO2 SLP203 T01000078;EQDQ01+000003PRSWM1Q02    003PRSWM1N01 00070JPWTH 0QNNAA1D0 00000BA1 0 00000GA1U0 99999KA1D0 00046JA1 0 00078LA1 0 00600CA1 0 03013NA1 0 00070QA1 0 10203SA1D0 00050RA1 0 00100YA1 0 14006
0251723235138962000121202154+34750-087610FM-16+0168KMSL V0203201N009310027019N0112651N1+00801+00701999999ADDGD13991+0027019GD23991+0045019GD34991+0108019GF108991999999999999999999MA1101591999999MW1611OC101391REMMET104KMSL 120215Z 32018G27KT 7SM -RA BKN009 BKN015 OVC036 08/07 A3000 RMK AO2 PK WND 33027/0213 PRESRR P0001;EQDQ01+000003PRSWM1Q02    003PRSWM1
0071723235138962000121218009+34750-087600NSRDB+016599999V020999999999999999999999999999+99999+99999999999ADDGP10060047902008052902015019902008GQ100600581917619GR100600746914129
0071723235138962000121413009+34750-087600NSRDB+016599999V020999999999999999999999999999+99999+99999999999ADDGP10060000002008000002015000002008GQ100600893911899GR100600002902009
0054723235138962000121507009+34750-087600NSRDB+016599999V020999999999999999999999999999+99999+99999999999ADDGP10060000002000000002000000002000GR100600000900009
0071723235138962000121622009+34750-087600NSRDB+016599999V020999999999999999999999999999+99999+99999999999ADDGP10060002302008000002015002302008GQ100600786923089GR100600279914139
0054723235138962000121701009+34750-087600NSRDB+016599999V020999999999999999999999999999+99999+99999999999ADDGP10060000002000000002000000002000GR100600000900009
036872323513896200012190853C+34750-087600FM-15+0165MSL  V0203105N00625010975MN0160005N1-00395-00895101925ADDAA101000095GD14995+0109759GF108991999999999999999999MA1101905999999MD1310021+9999MW1001REMMET083KMSL 190853Z AUTO 31012KT 10SM OVC036 M04/M09 A3009 RMK AO2 SLP192 T10391089 53000;EQDQ01+000002APC3  Q02+000000PRSWM2N01 00000JPWTH 0QNNAA1D0 06036BA1 0 06036GA1 0 00036KA1D0 00016JA1 0-00089LA1 0 01000CA1 0 03009NA1 0 00000QA1 0 10192SA1D0 00025RA1 0-00039YA1 0 31012
038872323513896200012211753C+34750-087600FM-15+0165MSL  V0203005N00575003965MN0160005N1+00065+00005102395ADDAA101000095GD14995+0039659GF108991999999999999999999KA1999M+00061KA2999N-00111MA1102375999999MD1810011+9999MW1001REMMET093KMSL 211753Z AUTO 30011KT 10SM OVC013 01/00 A3023 RMK AO2 SLP239 T00060000 10006 21011 58001;EQDQ01+000000PRSWM2N01 00000JPWTH 0QNNAA1D0 06013BA1 0 06013GA1 0 00013KA1D0 00032JA1 0 00000LA1 0 01000CA1 0 03023NA1 0 00000QA1 0 10239SA1D0 00033RA1 0 00006YA1 0 30011
0054723235138962000122610009+34750-087600NSRDB+016599999V020999999999999999999999999999+99999+99999999999ADDGP10060000002000000002000000002000GR100600000900009
037972323513896200012280553C+34750-087600FM-15+0165MSL  V0200605N00315220005MN0128005N1+00225+00005101795ADDAA101000095GF100991999999999999999999KA1999M+00391KA2999N+00221MA1101765999999MD1810101+9999MW1001REMMET099KMSL 280553Z AUTO 06006KT 8SM CLR 02/00 A3005 RMK AO2 SLP179 T00220000 10039 20022 400390011 58010;EQDQ01+000000PRSWM2N01 00000JPWTH 0QNNAA1D0 00000BA1 0 00000GA1U0 99999KA1D0 00032JA1 0 00000LA1 0 00800CA1 0 03005NA1 0 00000QA1 0 10179SA1D0 00036RA1 0 00022YA1 0 06006
0054723235138962000123112009+34750-087600NSRDB+016599999V020999999999999999999999999999+99999+99999999999ADDGP10060000002000000002000000002000GR100600000900009
0054723240138822000010510009+35033-085200NSRDB+020499999V020999999999999999999999999999+99999+99999999999ADDGP10060000002000000002000000002000GR100600000900009
0054723240138822000010807009+35033-085200NSRDB+020499999V020999999999999999999999999999+99999+99999999999ADDGP10060000002000000002000000002000GR100600000900009
0204723240138822000010817534+35030-085200FM-15+0210KCHA V0209999C000012200019N0160931N1+00801-00201102591ADDGF100991999999999999999999KA1999M+00831KA2999N+00111MA1102571999999MD1810201+9999MW1001REMMET086KCHA 081753Z 00000KT 10SM CLR 08/M02 A3029 RMK AO2 SLP259 T00831022 10083 20011 58020;EQDQ01+000000PRSWM2
0268723240138822000011006054+35030-085200FM-16+0210KCHA V0201601N002610048019N0028161N1+01301+01301999999ADDGD12991+0003019GD22991+0027019GD34991+0048019GF108991999999999999999999MA1100711999999MW1811MW2951REMMET123KCHA 100605Z COR 16005KT 1 3/4SM TSRA BR FEW001 SCT009 OVC016 13/13 A2974 RMK AO2 FRQ LTGICCCCG ALQDS TS ALQDS MOV E P0011;EQDQ01+000100PRSWM4Q02+000003PRSWM1
0071723240138822000011219009+35033-085200NSRDB+020499999V020999999999999999999999999999+99999+99999999999ADDGP10060055402009085502021009502009GQ100600576919139GR100600757914149
032672324013882200001140353C+35033-085200FM-15+0204CHA  V0200105N00525220005MN0160005N1+00285-00445103545ADDAA101000095GD11995+0115859GF102991999999999999999999MA1103525999999MW1001REMMET071KCHA 140353Z 01010KT 10SM FEW038 03/M04 A3057 RMK AO2 SLP354 T00281044;EQDQ01+000000PRSWM2N01 00000JPWTH 0QNNAA1D0 02038BA1 0 01038GA1U0 99999KA1D0 00024JA1 0-00044LA1 0 01000CA1 0 03057NA1 0 00000QA1 0 10354SA1D0 00037RA1 0 00028YA1 0 01010
032672324013882200001160653C+35033-085200FM-15+0204CHA  V0209999C00005220005MN0160005N1+00065-00395103175ADDAA101000095GD11995+0335359GF102991999999999999999999MA1103155999999MW1001REMMET071KCHA 160653Z 00000KT 10SM FEW110 01/M04 A3046 RMK AO2 SLP317 T00061039;EQDQ01+000000PRSWM2N01 00000JPWTH 0QNNAA1D0 02110BA1 0 01110GA1U0 99999KA1D0 00025JA1 0-00039LA1 0 01000CA1 0 03046NA1 0 00000QA1 0 10317SA1D0 00033RA1 0 00006YA1 0 00000
036972324013882200001170153C+35033-085200FM-15+0204CHA  V0209999C00005003965MN0160005N1+01175+01065102785ADDAA101000095GD13995+0039659GD24995+0057959GF108991999999999999999999MA1102785999999MW1001REMMET077KCHA 170153Z 00000KT 10SM BKN013 OVC019 12/11 A3035 RMK AO2 SLP278 T01170106;EQDQ01+000000PRSWM2N01 00000JPWTH 0QNNAA1D0 04013BA1 0 04013AA1D0 06019BA1 0 06019GA1 0 00013KA1D0 00051JA1 0 00106LA1 0 01000CA1 0 03035NA1 0 00000QA1 0 10278SA1D0 00053RA1 0 00117YA1 0 00000
033772324013882200001201653C+35033-085200FM-15+0204CHA  V0203405N00825012195MN0160005N1+00505-00565101605ADDAA101000095GD13995+0121959GF107991999999999999999999MA1101595999999MW1001OC101291REMMET074KCHA 201653Z 34016G25KT 10SM BKN040 05/M06 A3000 RMK AO2 SLP160 T00501056;EQDQ01+000000PRSWM2N01 00000JPWTH 0QNNAA1D0 04040BA1 0 04040GA1 0 00040KA1D0 00022JA1 0-00056LA1 0 01000CA1 0 03000NA1 0 00000QA1 0 10160SA1D0 00041RA1 0 00050YA1 0 34016
0054723240138822000012708009+35033-085200NSRDB+020499999V020999999999999999999999999999+99999+99999999999ADDGP10060000002000000002000000002000GR100600000900009
031172324013882200001270953C+35033-085200FM-15+0204CHA  V0203505N00155220005MN0160005N1-00725-01175102825ADDAA101000095GF100991999999999999999999MA1102745999999MW1001REMMET071KCHA 270953Z 35003KT 10SM CLR M07/M12 A3034 RMK AO2 SLP282 T10721117 $;EQDQ01+000000PRSWM2N01 00000JPWTH 0QNNAA1D0 00000BA1 0 00000GA1U0 99999KA1D0 00011JA1 0-00117LA1 0 01000CA1 0 03034NA1 0 00000QA1 0 10282SA1D0 00019RA1 0-00072YA1 0 35003
032272324013882200001280153C+35033-085200FM-15+0204CHA  V0200305N00415220005MN0160005N1-00065-01445103035ADDAA101000095GF100991999999999999999999MA1102985999999MW1001OC100821REMMET074KCHA 280153Z 03008G16KT 10SM CLR M01/M14 A3041 RMK AO2 SLP303 T10061144 $;EQDQ01+000000PRSWM2N01 00000JPWTH 0QNNAA1D0 00000BA1 0 00000GA1U0 99999KA1D0 00006JA1 0-00144LA1 0 01000CA1 0 03041NA1 0 00000QA1 0 10303SA1D0 00031RA1 0-00006YA1 0 03008
037372324013882200001280953C+35033-085200FM-15+0204CHA  V0200105N00365030485MN0160005N1-00225-01285103255ADDAA101000095GD12995+0228659GD24995+0304859GF108991999999999999999999MA1103225999999MW1001REMMET081KCHA 280953Z 01007KT 10SM SCT075 OVC100 M02/M13 A3048 RMK AO2 SLP325 T10221128 $;EQDQ01+000000PRSWM2N01 00000JPWTH 0QNNAA1D0 02075BA1 0 02075AA1D0 06100BA1 0 06100GA1 0 00100KA1D0 00009JA1 0-00128LA1 0 01000CA1 0 03048NA1 0 00000QA1 0 10325SA1D0 00028RA1 0-00022YA1 0 01007
0071723240138822000012816009+35033-085200NSRDB+020499999V020999999999999999999999999999+99999+99999999999ADDGP10060017802008000602015017502008GQ100600633914159GR100600633914109
030972324013882200002010753C+35033-085200FM-15+0204CHA  V0209999C00005220005MN0160005N1-00445-00565102255ADDAA101000095GF100991999999999999999999MA1102205999999MW1001REMMET069KCHA 010753Z 00000KT 10SM CLR M04/M06 A3018 RMK AO2 SLP225 T10441056;EQDQ01+000000PRSWM2N01 00000JPWTH 0QNNAA1D0 00000BA1 0 00000GA1U0 99999KA1D0 00022JA1 0-00056LA1 0 01000CA1 0 03018NA1 0 00000QA1 0 10225SA1D0 00024RA1 0-00044YA1 0 00000
034672324013882200002051453C+35033-085200FM-15+0204CHA  V0203505N00525009755MN0160005N1+00175-00615103095ADDAA101000095GD13995+0097559GF107991999999999999999999MA1103055999999MD1310221+9999MW1001REMMET077KCHA 051453Z 35010KT 10SM BKN032 02/M06 A3043 RMK AO2 SLP309 T00171061 53022;EQDQ01+000000PRSWM2N01 00000JPWTH 0QNNAA1D0 04032BA1 0 04032GA1 0 00032KA1D0 00021JA1 0-00061LA1 0 01000CA1 0 03043NA1 0 00000QA1 0 10309SA1D0 00035RA1 0 00017YA1 0 35010
0054723240138822000020701009+35033-085200NSRDB+020499999V020999999999999999999999999999+99999+99999999999ADDGP10060000002000000002000000002000GR100600000900009
0054723240138822000020811009+35033-085200NSRDB+020499999V020999999999999999999999999999+99999+99999999999ADDGP10060000002000000002000000002000GR100600000900009
032972324013882200002090053C+35033-085200FM-15+0204CHA  V0209999C00005220005MN0160005N1+00835+00065102625ADDAA101000095GD11995+0243859GF102991999999999999999999MA1102615999999MW1001REMMET074KCHA 090053Z COR 00000KT 10SM FEW080 08/01 A3030 RMK AO2 SLP262 T00830006;EQDQ01+000000PRSWM2N01 00000JPWTH 0QNNAA1D0 02080BA1 0 01080GA1U0 99999KA1D0 00033JA1 0 00006LA1 0 01000CA1 0 03030NA1 0 00000QA1 0 10262SA1D0 00047RA1 0 00083YA1 0 00000
030772324013882200002110153C+35033-085200FM-15+0204CHA  V0201805N00315220005MN0160005N1+01675+00285101175ADDAA101000095GF100991999999999999999999MA1101195999999MW1001REMMET067KCHA 110153Z 18006KT 10SM CLR 17/03 A2988 RMK AO2 SLP117 T01670028;EQDQ01+000000PRSWM2N01 00000JPWTH 0QNNAA1D0 00000BA1 0 00000GA1U0 99999KA1D0 00037JA1 0 00028LA1 0 01000CA1 0 02988NA1 0 00000QA1 0 10117SA1D0 00062RA1 0 00167YA1 0 18006
036972324013882200002150153C+35033-085200FM-15+0204CHA  V0203505N00465010675MN0160005N1+00785+00175102005ADDAA101000095GD11995+0085359GD23995+0106759GF107991999999999999999999MA1102005999999MW1001REMMET077KCHA 150153Z 35009KT 10SM FEW028 BKN035 08/02 A3012 RMK A02 SLP200 T00780017;EQDQ01+000000PRSWM2N01 00000JPWTH 0QNNAA1D0 02028BA1 0 01028AA1D0 04035BA1 0 04035GA1 0 00035KA1D0 00035JA1 0 00017LA1 0 01000CA1 0 03012NA1 0 00000QA1 0 10200SA1D0 00046RA1 0 00078YA1 0 35009
0071723240138822000021615009+35033-085200NSRDB+020499999V020999999999999999999999999999+99999+99999999999ADDGP10060033902008062802015010202008GQ100600679912489GR100600527914019
038172324013882200002190853C+35033-085200FM-15+0204CHA  V0209999C00005007015MN0160005N1+01445+01225101555ADDAA101000395AA203002891GD14995+0070159GF108991999999999999999999MA1101595999999MD1310111+9999MW1001REMMET101KCHA 190853Z 00000KT 10SM OVC023 14/12 A3000 RMK AO2 TSE0756RAE45 SLP155 P0001 60011 T01440122 53011;EQDQ01+000000PRSWM2N01 00000JPWTH 0QNNAA1D0 06023BA1 0 06023GA1 0 00023KA1D0 00054JA1 0 00122LA1 0 01000CA1 0 03000NA1 0 00000QA1 0 10155SA1D0 00058RA1 0 00144YA1 0 00000
030872324013882200002202253C+35033-085200FM-15+0204CHA  V0200405N00525220005MN0160005N1+00945-00225102985ADDAA101000095GF100991999999999999999999MA1102985999999MW1001REMMET068KCHA 202253Z 04010KT 10SM CLR 09/M02 A3041 RMK AO2 SLP298 T00941022;EQDQ01+000000PRSWM2N01 00000JPWTH 0QNNAA1D0 00000BA1 0 00000GA1U0 99999KA1D0 00028JA1 0-00022LA1 0 01000CA1 0 03041NA1 0 00000QA1 0 10298SA1D0 00049RA1 0 00094YA1 0 04010
0204723240138822000022023534+35030-085200FM-15+0210KCHA V0200401N002612200019N0160931N1+00801-00201103051ADDGF100991999999999999999999KA1999M+01061KA2999N+00781MA1103011999999MD1310051+9999MW1001REMMET086KCHA 202353Z 04005KT 10SM CLR 08/M02 A3042 RMK AO2 SLP305 T00781017 10106 20078 53005;EQDQ01+000000PRSWM2
0071723240138822000022123009+35033-085200NSRDB+020499999V020999999999999999999999999999+99999+99999999999ADDGP10060014402008054302015004302008GQ100600793924899GR100600260913989
030072324013882200002221053C+35033-085200FM-15+0204CHA  V0209999C00005027435MN0160005N1+00675+00175103035ADDAA101000095GD14995+0274359GF108991999999999999999999MA1103055999999MW1001REMMET045KCHA 221053Z 00000KT 10SM OVC090 07/02 A3043;EQDQ01+000000PRSWM2N01 00000JPWTH 0QNNAA1D0 06090BA1 0 06090GA1 0 00090KA1D0 00035JA1 0 00017LA1 0 01000CA1 0 03043NA1 0 00000QA1 0 10303SA1D0 00044RA1 0 00067YA1 0 00000
0054723240138822000022704009+35033-085200NSRDB+020499999V020999999999999999999999999999+99999+99999999999ADDGP10060000002000000002000000002000GR100600000900009
0071723240138822000022919009+35033-085200NSRDB+020499999V020999999999999999999999999999+99999+99999999999ADDGP10060064702008048502015029502008GQ100600437919329GR100601007913939
0481723240138822000030300003+35033-085200SY-MT+0204CHA  V0203105N00265220005MN0160005N1+01395-00225101775ADDAA101000095GA1001+999999999GD10995+9999999GF100991001001999999001001GP10060000502008008702015000302008GQ100600866925959GR100600050908479KA1120M+01891KA2180N+00721MA1101795099281MD1310041+9999REMSYN092AAXX  03004 72324 32966 03105 10139 21022 39928 40177 53004 92353 333 10189 20072 555 90300;EQDQ01  00002PRCP99Q02  00003PRCP99N01 00000JPWTH 0QNNAA1D0 00000BA1 0 00000GA1U0 99999KA1D0 00028JA1 0-00022LA1 0 01000CA1 0 03006NA1 0 00000QA1 0 10177SA1D0 00057RA1 0 00139YA1 0 31005
030772324013882200003081653C+35033-085200FM-15+0204CHA  V0209999C00005220005MN0160005N1+02395+01065102095ADDAA101000095GF100991999999999999999999MA1102135999999MW1001REMMET067KCHA 081653Z 00000KT 10SM CLR 24/11 A3016 RMK AO2 SLP209 T02390106;EQDQ01+000000PRSWM2N01 00000JPWTH 0QNNAA1D0 00000BA1 0 00000GA1U0 99999KA1D0 00051JA1 0 00106LA1 0 01000CA1 0 03016NA1 0 00000QA1 0 10209SA1D0 00075RA1 0 00239YA1 0 00000
0054723240138822000030903009+35033-085200NSRDB+020499999V020999999999999999999999999999+99999+99999999999ADDGP10060000002000000002000000002000GR100600000900009
032772324013882200003140253C+35033-085200FM-15+0204CHA  V0209999C00005220005MN0160005N1+00615+00175102565ADDAA101000095GF100991999999999999999999MA1102545999999MD1310151+9999MW1001REMMET073KCHA 140253Z 00000KT 10SM CLR 06/02 A3028 RMK AO2 SLP256 T00610017 53015;EQDQ01+000000PRSWM2N01 00000JPWTH 0QNNAA1D0 00000BA1 0 00000GA1U0 99999KA1D0 00035JA1 0 00017LA1 0 01000CA1 0 03028NA1 0 00000QA1 0 10256SA1D0 00043RA1 0 00061YA1 0 00000
0448723240138822000031506003+35033-085200SY-MT+0204CHA  V0201905N00155036585MN0160005N1+00945+00565102285ADDAA101000095GD13995+0365859GF106991999999999999999999GP10060000002000000002000000002000GR100600000900009KA1240M+01781KA2240N+00061MA1102305099781MD1010041+9999REMSYN092AAXX  15064 72324 32966 61903 10094 20056 39978 40228 50004 90553 333 10178 20006 555 91506;EQDQ01  00002PRCP99Q02  00003PRCP99N01 00000JPWTH 0QNNAA1D0 04120BA1 0 04120GA1 0 00120KA1D0 00042JA1 0 00056LA1 0 01000CA1 0 03021NA1 0 00000QA1 0 10228SA1D0 00049RA1 0 00094YA1 0 19003
038972324013882200003201453C+35033-085200FM-15+0204CHA  V0202505N00575220005MN0160005N1+01285+00675101335ADDAA101000095GD12995+0076259GD22995+0167659GF104991999999999999999999MA1101355999999MD1110241+9999MW1001REMMET083KCHA 201453Z 25011KT 10SM SCT025 SCT055 13/07 A2993 RMK AO2 SLP133 T01280067 51024;EQDQ01+000000PRSWM2N01 00000JPWTH 0QNNAA1D0 02025BA1 0 02025AA1D0 02055BA1 0 02055GA1U0 99999KA1D0 00044JA1 0 00067LA1 0 01000CA1 0 02993NA1 0 00000QA1 0 10133SA1D0 00055RA1 0 00128YA1 0 25011
0190723240138822000032718104+35030-085200FM-16+0210KCHA V0209999C000010180019N0160931N1+01401+01201999999ADDGD12991+0030019GD22991+0057019GD33991+0180019GF107991999999999999999999MA1100171999999MW1001REMMET067KCHA 271810Z 00000KT 10SM FEW010 SCT019 BKN060 14/12 A2958 RMK AO2;EQDQ01+000000PRSWM2
0054723240138822000032809009+35033-085200NSRDB+020499999V020999999999999999999999999999+99999+99999999999ADDGP10060000002000000002000000002000GR100600000900009
0054723240138822000032903009+35033-085200NSRDB+020499999V020999999999999999999999999999+99999+99999999999ADDGP10060000002000000002000000002000GR100600000900009
0054723240138822000032904009+35033-085200NSRDB+020499999V020999999999999999999999999999+99999+99999999999ADDGP10060000002000000002000000002000GR100600000900009
032572324013882200003292153C+35033-085200FM-15+0204CHA  V0202105N00215021345MN0160005N1+01175+00115101415ADDAA101000095GD14995+0213459GF108991999999999999999999MA1101425999999MW1001REMMET070KCHA 292153Z 21004KT 10SM OVC070 12/01 A2995 RMK AO2 SLP141 T01170011;EQDQ01+000000PRSWM2N01 00000JPWTH 0QNNAA1D0 06070BA1 0 06070GA1 0 00070KA1D0 00034JA1 0 00011LA1 0 01000CA1 0 02995NA1 0 00000QA1 0 10141SA1D0 00053RA1 0 00117YA1 0 21004
040572324013882200003300453C+35033-085200FM-15+0204CHA  V0209999C00005021345MN0160005N1+00895+00565101385ADDAA101000095GD13995+0213459GD24995+0304859GF108991999999999999999999KA1999M+01171KA2999N+00561MA1101395999999MW1001REMMET087KCHA 300453Z 00000KT 10SM BKN070 OVC100 09/06 A2994 RMK AO2 SLP138 T00890056 401170056;EQDQ01+000000PRSWM2N01 00000JPWTH 0QNNAA1D0 04070BA1 0 04070AA1D0 06100BA1 0 06100GA1 0 00070KA1D0 00042JA1 0 00056LA1 0 01000CA1 0 02994NA1 0 00000QA1 0 10138SA1D0 00048RA1 0 00089YA1 0 00000
032572324013882200003312253C+35033-085200FM-15+0204CHA  V0209999V00215220005MN0160005N1+02285+00725101725ADDAA101000095GD11995+0198159GF102991999999999999999999MA1101765999999MW1001REMMET070KCHA 312253Z VRB04KT 10SM FEW065 23/07 A3005 RMK AO2 SLP172 T02280072;EQDQ01+000000PRSWM2N01 00000JPWTH 0QNNAA1D0 02065BA1 0 01065GA1U0 99999KA1D0 00045JA1 0 00072LA1 0 01000CA1 0 03005NA1 0 00000QA1 0 10172SA1D0 00073RA1 0 00228YA1 0 00004
0054723240138822000040410009+35033-085200NSRDB+020499999V020999999999999999999999999999+99999+99999999999ADDGP10060000002000000002000000002000GR100600000900009
034372324013882200004060453C+35033-085200FM-15+0204CHA  V0201505N00215220005MN0160005N1+01285+00395101595ADDAA101000095GF100991999999999999999999KA1999M+01891KA2999N+00061MA1101635999999MW1001REMMET077KCHA 060453Z 15004KT 10SM CLR 13/04 A3001 RMK AO2 SLP159 T01280039 401890006;EQDQ01+000000PRSWM2N01 00000JPWTH 0QNNAA1D0 00000BA1 0 00000GA1U0 99999KA1D0 00039JA1 0 00039LA1 0 01000CA1 0 03001NA1 0 00000QA1 0 10159SA1D0 00055RA1 0 00128YA1 0 15004
031372324013882200004061653C+35033-085200FM-15+0204CHA  V0202205N00675220005MN0160005N1+02115+00945101545ADDAA101000095GF100991999999999999999999MA1101595999999MW1001REMMET073KCHA 061653Z COR 22013KT 10SM CLR 21/09 A3000 RMK AO2 SLP154 T02110094 $;EQDQ01+000000PRSWM2N01 00000JPWTH 0QNNAA1D0 00000BA1 0 00000GA1U0 99999KA1D0 00049JA1 0 00094LA1 0 01000CA1 0 03000NA1 0 00000QA1 0 10154SA1D0 00070RA1 0 00211YA1 0 22013
044972324013882200004081353C+35033-085200FM-15+0204CHA  V0202905N00675009145MN0160005N1+01005+00395101395ADDAA101000095GD12995+0076259GD23995+0091459GD33995+0137259GF107991999999999999999999MA1101425999999MW1001OC101181REMMET112KCHA 081353Z 29013G23KT 10SM SCT025 BKN030 BKN045 10/04 A2995 RMK AO2 PK WND 33028/1338 PRESRR SLP139 T01000039;EQDQ01+000000PRSWM2N01 00000JPWTH 0QNNAA1D0 02025BA1 0 02025AA1D0 04030BA1 0 04030AA1D0 04045BA1 0 04045GA1 0 00030KA1D0 00039JA1 0 00039LA1 0 01000CA1 0 02995NA1 0 00000QA1 0 10139SA1D0 00050RA1 0 00100YA1 0 29013
0204723240138822000040911534+35030-085200FM-15+0210KCHA V0209999C000012200019N0160931N1+00101-00201102711ADDGF100991999999999999999999KA1999M+00501KA2999N+00001MA1102681999999MD1110221+9999MW1001REMMET086KCHA 091153Z 00000KT 10SM CLR 01/M02 A3032 RMK AO2 SLP271 T00061022 10050 20000 51022;EQDQ01+000000PRSWM2
030872324013882200004100053C+35033-085200FM-15+0204CHA  V0202205N00265220005MN0160005N1+01335-00395102255ADDAA101000095GF100991999999999999999999MA1102245999999MW1001REMMET068KCHA 100053Z 22005KT 10SM CLR 13/M04 A3019 RMK AO2 SLP225 T01331039;EQDQ01+000000PRSWM2N01 00000JPWTH 0QNNAA1D0 00000BA1 0 00000GA1U0 99999KA1D0 00025JA1 0-00039LA1 0 01000CA1 0 03019NA1 0 00000QA1 0 10225SA1D0 00056RA1 0 00133YA1 0 22005
0071723240138822000041001009+35033-085200NSRDB+020499999V020999999999999999999999999999+99999+99999999999ADDGP10060000002008000002015000002008GQ100600893927969GR100600002901709
0071723240138822000041019009+35033-085200NSRDB+020499999V020999999999999999999999999999+99999+99999999999ADDGP10060046802008009002015038902008GQ100600292920489GR100601188913619
032572324013882200004121653C+35033-085200FM-15+0204CHA  V0200205N00525010365MN0160005N1+01835+01115102565ADDAA101000095GD13995+0103659GF107991999999999999999999MA1102615999999MW1001REMMET070KCHA 121653Z 02010KT 10SM BKN034 18/11 A3030 RMK AO2 SLP256 T01830111;EQDQ01+000000PRSWM2N01 00000JPWTH 0QNNAA1D0 04034BA1 0 04034GA1 0 00034KA1D0 00052JA1 0 00111LA1 0 01000CA1 0 03030NA1 0 00000QA1 0 10256SA1D0 00065RA1 0 00183YA1 0 02010
0474723240138822000041318003+35033-085200SY-MT+0204CHA  V0203505N00265002135MN0064005N1+01065+01005102445ADDAA101000025AA206008991GD14995+0021359GF108991999999002501999999GP10060015102008000002015015102008GQ100600261917389GR100601220913599KA1120M+01331KA2240N+00941MA1102475099951MD1610061+9999MW1455MW2615REMSYN110AAXX  13184 72324 11356 83505 10106 20100 39995 40244 56006 60091 761// 91753 333 10133 20094 96010 555 91318;EQDN01 02070JPWTH 0QNNAA1D0 06007BA1 0 06007GA1 0 00007KA1D0 00050JA1 0 00100LA1 0 00400CA1 0 03026NA1 0 02070QA1 0 10244SA1D0 00051RA1 0 00106YA1 0 35005
0186723240138822000041413164+35030-085200FM-16+0210KCHA V0209999C000010039019N0032181N1+01101+00901999999ADDGD12991+0018019GD24991+0039019GF108991999999999999999999MA1102241999999MW1101REMMET062KCHA 141316Z 00000KT 2SM BR SCT006 OVC013 11/09 A3019 RMK AO2;EQDQ01+000003PRSWM1Q02    003PRSWM1
0071723240138822000041415009+35033-085200NSRDB+020499999V020999999999999999999999999999+99999+99999999999ADDGP10060009802008000002015009802008GQ100600503910869GR100600866913589
0054723240138822000041505009+35033-085200NSRDB+020499999V020999999999999999999999999999+99999+99999999999ADDGP10060000002000000002000000002000GR100600000900009
036172324013882200004170453C+35033-085200FM-15+0204CHA  V0209999C00005220005MN0160005N1+01505+01335101525ADDAA101000095GD12995+0335359GF104991999999999999999999KA1999M+02721KA2999N+00941MA1101595999999MW1001REMMET080KCHA 170453Z 00000KT 10SM SCT110 15/13 A3000 RMK AO2 SLP152 T01500133 402720094;EQDQ01+000000PRSWM2N01 00000JPWTH 0QNNAA1D0 02110BA1 0 02110GA1U0 99999KA1D0 00056JA1 0 00133LA1 0 01000CA1 0 03000NA1 0 00000QA1 0 10152SA1D0 00059RA1 0 00150YA1 0 00000
0250723240138822000041717534+35030-085200FM-15+0210KCHA V0202701N007210180019N0160931N1+02301+00901101041ADDGD13991+0180019GF107991999999999999999999KA1999M+02441KA2999N+01561MA1101081999999MD1510081+9999MW1001OC101031REMMET109KCHA 171753Z 27014G20KT 10SM BKN060 23/09 A2985 RMK AO2 PK WND 23026/1702 SLP104 T02280094 10244 20156 55008;EQDQ01+000000PRSWM2
0275723240138822000042021284+35030-085200FM-16+0210KCHA V0202101N009312200019N0160931N1+02701+01101999999ADDGD12991+0210019GD22991+0300019GF104991999999999999999999MA1100811999999MW1801MW2951OC101291REMMET137KCHA 202128Z 21018G25KT 10SM -TSRA FEW070 SCT100 27/11 A2977 RMK AO2 PK WND 18031/2103 TSB27RAB27 FRQ LTGCG VC W-NW TS W-NW MOV NE P0000;EQDQ01+000003PRSWM1Q02    003PRSWM1
0071723240138822000042115009+35033-085200NSRDB+020499999V020999999999999999999999999999+99999+99999999999ADDGP10060022002008000602015021602008GQ100600485910639GR100600894913529
0481723240138822000042300003+35033-085200SY-MT+0204CHA  V0203205N00415220005MN0160005N1+01895+00445101005ADDAA101000095GA1001+999999999GD10995+9999999GF100991001001999999001001GP10060010002008034302015004602008GQ100600809927919GR100600214913529KA1120M+02171KA2180N+00941MA1101055098551MD1310011+9999REMSYN092AAXX  23004 72324 32966 03208 10189 20044 39855 40100 53001 92353 333 10217 20094 555 92300;EQDQ01  00002PRCP99Q02  00003PRCP99N01 00000JPWTH 0QNNAA1D0 00000BA1 0 00000GA1U0 99999KA1D0 00040JA1 0 00044LA1 0 01000CA1 0 02984NA1 0 00000QA1 0 10100SA1D0 00066RA1 0 00189YA1 0 32008
0054723240138822000042308009+35033-085200NSRDB+020499999V020999999999999999999999999999+99999+99999999999ADDGP10060000002000000002000000002000GR100600000900009
036972324013882200004281653C+35033-085200FM-15+0204CHA  V0209999V00155009455MN0160005N1+01725+01005101085ADDAA101000095GD13995+0094559GD23995+0152459GF107991999999999999999999MA1101125999999MW1001REMMET077KCHA 281653Z VRB03KT 10SM BKN031 BKN050 17/10 A2986 RMK AO2 SLP108 T01720100;EQDQ01+000000PRSWM2N01 00000JPWTH 0QNNAA1D0 04031BA1 0 04031AA1D0 04050BA1 0 04050GA1 0 00031KA1D0 00050JA1 0 00100LA1 0 01000CA1 0 02986NA1 0 00000QA1 0 10108SA1D0 00063RA1 0 00172YA1 0 00003
030972324013882200005010053C+35033-085200FM-15+0204CHA  V0209999C00005220005MN0160005N1+01945+00945102075ADDAA101000095GF100991999999999999999999MA1102105999999MW1001REMMET069KCHA 010053Z 00000KT 10SM CLR 19/09 A3015 RMK AO2 SLP207 T01940094 $;EQDQ01+000000PRSWM2N01 00000JPWTH 0QNNAA1D0 00000BA1 0 00000GA1U0 99999KA1D0 00049JA1 0 00094LA1 0 01000CA1 0 03015NA1 0 00000QA1 0 10207SA1D0 00067RA1 0 00194YA1 0 00000
033172324013882200005030653C+35033-085200FM-15+0204CHA  V0209999C00005220005MN0080005N1+01785+01725101835ADDAA101000095GF100991999999999999999999MA1101905999999MW1101MW2455REMMET069KCHA 030653Z 00000KT 5SM BR CLR 18/17 A3009 RMK AO2 SLP183 T01780172;EQDQ01+000003PRSWM1Q02    003PRSWM1N01 00070JPWTH 0QNNAA1D0 00000BA1 0 00000GA1U0 99999KA1D0 00063JA1 0 00172LA1 0 00500CA1 0 03009NA1 0 00070QA1 0 10183SA1D0 00064RA1 0 00178YA1 0 00000
032772324013882200005060253C+35033-085200FM-15+0204CHA  V0209999C00005220005MN0160005N1+02005+01725102155ADDAA101000095GF100991999999999999999999MA1102205999999MD1310141+9999MW1001REMMET073KCHA 060253Z 00000KT 10SM CLR 20/17 A3018 RMK AO2 SLP215 T02000172 53014;EQDQ01+000000PRSWM2N01 00000JPWTH 0QNNAA1D0 00000BA1 0 00000GA1U0 99999KA1D0 00063JA1 0 00172LA1 0 01000CA1 0 03018NA1 0 00000QA1 0 10215SA1D0 00068RA1 0 00200YA1 0 00000
032572324013882200005080753C+35033-085200FM-15+0204CHA  V0209999C00005220005MN0160005N1+01895+01785101595ADDAA101000095GD11995+0365859GF102991999999999999999999MA1101665999999MW1001REMMET070KCHA 080753Z 00000KT 10SM FEW120 19/18 A3002 RMK AO2 SLP159 T01890178;EQDQ01+000000PRSWM2N01 00000JPWTH 0QNNAA1D0 02120BA1 0 01120GA1U0 99999KA1D0 00064JA1 0 00178LA1 0 01000CA1 0 03002NA1 0 00000QA1 0 10159SA1D0 00066RA1 0 00189YA1 0 00000
0071723240138822000051121009+35033-085200NSRDB+020499999V020999999999999999999999999999+99999+99999999999ADDGP10060060302008042802015028402008GQ100600418925749GR100600996913399
032972324013882200005121853C+35033-085200FM-15+0204CHA  V0202005N00465220005MN0160005N1+03065+01895101205ADDAA101000095GD11995+0137259GF102991999999999999999999MA1101295999999MW1001REMMET074KCHA 121853Z COR 20009KT 10SM FEW045 31/19 A2991 RMK AO2 SLP120 T03060189;EQDQ01+000000PRSWM2N01 00000JPWTH 0QNNAA1D0 02045BA1 0 01045GA1U0 99999KA1D0 00066JA1 0 00189LA1 0 01000CA1 0 02991NA1 0 00000QA1 0 10120SA1D0 00087RA1 0 00306YA1 0 20009
0071723240138822000051414009+35033-085200NSRDB+020499999V020999999999999999999999999999+99999+99999999999ADDGP10060050302008067002015013302008GQ100600565908969GR100600736913379
0071723240138822000051422009+35033-085200NSRDB+020499999V020999999999999999999999999999+99999+99999999999ADDGP10060053902008067802015013702008GQ100600536926849GR100600793913379
0203723240138822000051605534+35030-085200FM-15+0210KCHA V0209999C000012200019N0160931N1+01401+01101102071ADDGF100991999999999999999999KA1999M+02171KA2999N+01441MA1102131999999MD1610031+9999MW1001REMMET085KCHA 160553Z 00000KT 10SM CLR 14/11 A3016 RMK AO2 SLP207 T01440106 10217 20144 56003;EQDQ01+000000PRSWM2
0071723240138822000051614009+35033-085200NSRDB+020499999V020999999999999999999999999999+99999+99999999999ADDGP10060050202008065802015013702008GQ100600563908919GR100600740913369
0071723240138822000051917009+35033-085200NSRDB+020499999V020999999999999999999999999999+99999+99999999999ADDGP10060086402008055402015034702008GQ100600213913209GR100601241913349
0195723240138822000051923154+35030-085200FM-16+0210KCHA V0202001N004110270019N0128741N1+02801+02101999999ADDGD12991+0180019GD23991+0270019GF107991999999999999999999MA1101631999999MW1001REMMET087KCHA 192315Z 20008KT 8SM FEW060 BKN090 28/21 A3001 RMK AO2 TSE15 TSB34E10 TS N MOVD NE;EQDQ01+000000PRSWM2
038572324013882200005210153C+35033-085200FM-15+0204CHA  V0200405N00315220005MN0160005N1+02225+02005101545ADDAA101000025GD12995+0131159GD22995+0274359GF104991999999999999999999MA1101635999999MW1001REMMET093KCHA 210153Z COR 04006KT 10SM SCT043 SCT090 22/20 A3001 RMK AO2 RAE16 SLP154 P0000 T02220200;EQDQ01+000000PRSWM2N01 00000JPWTH 0QNNAA1D0 02043BA1 0 02043AA1D0 02090BA1 0 02090GA1U0 99999KA1D0 00068JA1 0 00200LA1 0 01000CA1 0 03001NA1 0 00000QA1 0 10154SA1D0 00072RA1 0 00222YA1 0 04006
0502723240138822000052500003+35033-085200SY-MT+0204CHA  V0202505N00265015245MN0160005N1+02785+02175100755ADDAA101000095GD11995+0115859GD23995+0152459GF106991999999012501999999GP10060006302008000002015006302008GQ100600766928649GR100600309913319KA1120M+02891KA2180N+02001MA1100855098351MD1310021+9999REMSYN092AAXX  25004 72324 32666 62505 10278 20217 39835 40075 53002 92353 333 10289 20200 555 92500;EQDQ01  00002PRCP99Q02  00003PRCP99N01 00000JPWTH 0QNNAA1D0 02038BA1 0 01038AA1D0 04050BA1 0 04050GA1 0 00050KA1D0 00071JA1 0 00217LA1 0 01000CA1 0 02978NA1 0 00000QA1 0 10075SA1D0 00082RA1 0 00278YA1 0 25005
0054723240138822000052502009+35033-085200NSRDB+020499999V020999999999999999999999999999+99999+99999999999ADDGP10060000002000000002000000002000GR100600000900009
030772324013882200005260153C+35033-085200FM-15+0204CHA  V0209999C00005220005MN0160005N1+02065+01945101225ADDAA101000095GF100991999999999999999999MA1101325999999MW1001REMMET067KCHA 260153Z 00000KT 10SM CLR 21/19 A2992 RMK AO2 SLP122 T02060194;EQDQ01+000000PRSWM2N01 00000JPWTH 0QNNAA1D0 00000BA1 0 00000GA1U0 99999KA1D0 00067JA1 0 00194LA1 0 01000CA1 0 02992NA1 0 00000QA1 0 10122SA1D0 00069RA1 0 00206YA1 0 00000
0176723240138822000052607124+35030-085200FM-16+0210KCHA V0209999C00001000301CN0048281N1+01901+01901999999ADDGD14991+0015019GF108991999999999999999999MA1101391999999MW1101REMMET067KCHA 260712Z 00000KT 3SM BR OVC005 19/19 A2994 RMK AO2 CIG 001V007;EQDQ01+000003PRSWM1Q02    003PRSWM1
0071723240138822000052901009+35033-085200NSRDB+020499999V020999999999999999999999999999+99999+99999999999ADDGP10060000402008000002015000402008GQ100600860929409GR100600069910089
0206723240138822000053011534+35030-085200FM-15+0210KCHA V0209999C000012200019N0112651N1+01401+01301101901ADDGF100991999999999999999999KA1999M+01501KA2999N+01391MA1101961999999MD1110241+9999MW1001REMMET088KCHA 301153Z COR 00000KT 7SM CLR 14/13 A3011 RMK AO2 SLP190 T01440133 10150 20139 51024;EQDQ01+000000PRSWM2
0071723240138822000053021009+35033-085200NSRDB+020499999V020999999999999999999999999999+99999+99999999999ADDGP10060069602008051702015029702008GQ100600396926229GR100601022913299
032572324013882200006021953C+35033-085200FM-15+0204CHA  V0202705N00315220005MN0160005N1+03225+01725101875ADDAA101000095GD12995+0198159GF104991999999999999999999MA1101965999999MW1001REMMET070KCHA 021953Z 27006KT 10SM SCT065 32/17 A3011 RMK AO2 SLP187 T03220172;EQDQ01+000000PRSWM2N01 00000JPWTH 0QNNAA1D0 02065BA1 0 02065GA1U0 99999KA1D0 00063JA1 0 00172LA1 0 01000CA1 0 03011NA1 0 00000QA1 0 10187SA1D0 00090RA1 0 00322YA1 0 27006
0054723240138822000060404009+35033-085200NSRDB+020499999V020999999999999999999999999999+99999+99999999999ADDGP10060000002000000002000000002000GR100600000900009
0226723240138822000060508394+35030-085200FM-16+0210KCHA V0203101N00261001201CN0032181N1+02201+02201999999ADDGD13991+0015019GD23991+0150019GF107991999999999999999999MA1101421999999MW1611REMMET086KCHA 050839Z 31005KT 2SM -RA BR BKN005 BKN055 22/22 A2995 RMK AO2 CIG 004V011 P0001 $;EQDQ01+000100PRSWM3Q02+000003PRSWM1Q03    003PRSWM1
0071723240138822000061201009+35033-085200NSRDB+020499999V020999999999999999999999999999+99999+99999999999ADDGP10060002202008005502015001902008GQ100600854929549GR100600094911819
0150723240138822000061210344+35030-085200FM-16+0210KCHA V0209999C000012200019N0040231N1+02001+01801999999ADDGF100991999999999999999999MA1102271999999MW1101REMMET056KCHA 121034Z 00000KT 2 1/2SM BR CLR 20/18 A3020 RMK AO2;EQDQ01+000003PRSWM1Q02    003PRSWM1
033172324013882200006140053C+35033-085200FM-15+0204CHA  V0203305N00215220005MN0160005N1+02335+02115101715ADDAA101000095GD11995+0152459GF102991999999999999999999MA1101795999999MW1001REMMET076KCHA 140053Z 33004KT 10SM FEW050 23/21 A3006 RMK AO2 TSE18 SLP171 T02330211;EQDQ01+000000PRSWM2N01 00000JPWTH 0QNNAA1D0 02050BA1 0 01050GA1U0 99999KA1D0 00070JA1 0 00211LA1 0 01000CA1 0 03006NA1 0 00000QA1 0 10171SA1D0 00074RA1 0 00233YA1 0 33004
0071723240138822000061511009+35033-085200NSRDB+020499999V020999999999999999999999999999+99999+99999999999ADDGP10060000002008000102015000002008GQ100600874906299GR100600033907179
0071723240138822000061515009+35033-085200NSRDB+020499999V020999999999999999999999999999+99999+99999999999ADDGP10060062102008044902015029202008GQ100600429909269GR100600967913249
0288723240138822000061802214+35300-085190FM-16+0210KCHA V02099999999990012019N0012071N1+02101+02001999999ADDGD13991+0012019GD23991+0108019GD34991+0270019GF108991999999999999999999MA1102241999999MW1971REMMET133KCHA 180221Z VRB05G24KT 3/4SM +TSRA BR BKN004 BKN036 OVC095 21/20 A3019 RMK AO2 RAB01 PRESRR FQT LTGICCG ALQDS TS ALQDS MOV NE P0062;EQDQ01+000820PRSWM3Q02+000100PRSWM4Q03+000003PRSWM1
0254723240138822000061802454+35300-085190FM-15+0210KCHA V0202201N003610039019N0080461N1+02201+02101999999ADDAA101025791GD13991+0039019GD24991+0210019GF108991999999999999999999MA1102271999999MW1101MW2811MW3951REMMET123KCHA 180245Z 22007KT 5SM TSRA BR BKN013 OVC070 22/21 A3020 RMK AO2 RAB01 PRESRR OCNL LTGICCG VC N-S TS VC N-S MOV NE P0101;EQDQ01+000003PRSWM1
0054723240138822000062210009+35033-085200NSRDB+020499999V020999999999999999999999999999+99999+99999999999ADDGP10060000002000000002000000002000GR100600000900009
041672324013882200006270453C+35033-085200FM-15+0204CHA  V0201505N00775010365MN0160005N1+02395+02005101855ADDAA101000095GD13995+0103659GD24995+0128059GF108991999999999999999999KA1999M+03281KA2999N+02001MA1101935999999MW1001OC101181REMMET090KCHA 270453Z 15015G23KT 10SM BKN034 OVC042 24/20 A3010 RMK AO2 SLP185 T02390200 403280200;EQDQ01+000000PRSWM2N01 00000JPWTH 0QNNAA1D0 04034BA1 0 04034AA1D0 06042BA1 0 06042GA1 0 00034KA1D0 00068JA1 0 00200LA1 0 01000CA1 0 03010NA1 0 00000QA1 0 10185SA1D0 00075RA1 0 00239YA1 0 15015
0054723240138822000062803009+35033-085200NSRDB+020499999V020999999999999999999999999999+99999+99999999999ADDGP10060000002000000002000000002000GR100600000900009
0238723240138822000062823534+35300-085190FM-15+0210KCHA V0201901N003112200019N0160931N1+02601+02301101341ADDAA106004891GD12991+0120019GF102991999999999999999999KA1999M+02891KA2999N+02501MA1101421999999MD1510031+9999MW1001REMMET094KCHA 282353Z 19006KT 10SM FEW040 26/23 A2995 RMK AO2 SLP134 60019 T02610228 10289 20250 55003;EQDQ01+000000PRSWM2
044472324013882200006290653C+35033-085200FM-15+0204CHA  V0200405N00215007925MN0128005N1+02335+02175101335ADDAA101000395GD11995+0054959GD23995+0079259GD33995+0097559GF107991999999999999999999MA1101425999999MW1615REMMET099KCHA 290653Z 04004KT 8SM -RA FEW018 BKN026 BKN032 23/22 A2995 RMK AO2 RAB00 SLP133 P0001 T02330217;EQDQ01+000003PRSWM1Q02    003PRSWM1N01 00020JPWTH 0QNNAA1D0 02018BA1 0 01018AA1D0 04026BA1 0 04026AA1D0 04032BA1 0 04032GA1 0 00026KA1D0 00071JA1 0 00217LA1 0 00800CA1 0 02995NA1 0 00020QA1 0 10133SA1D0 00074RA1 0 00233YA1 0 04004
0203723240138822000062923534+35300-085190FM-15+0210KCHA V0203201N003612200019N0160931N1+02701+01601101311ADDGF100991999999999999999999KA1999M+02781KA2999N+02331MA1101391999999MD1510011+9999MW1001REMMET085KCHA 292353Z 32007KT 10SM CLR 27/16 A2994 RMK AO2 SLP131 T02670161 10278 20233 55001;EQDQ01+000000PRSWM2
0150723240138822000063008414+35300-085190FM-16+0210KCHA V0209999C000012200019N0040231N1+01701+01601999999ADDGF100991999999999999999999MA1101661999999MW1101REMMET056KCHA 300841Z 00000KT 2 1/2SM BR CLR 17/16 A3002 RMK AO2;EQDQ01+000003PRSWM1Q02    003PRSWM1
0054723240138822000070104009+35033-085200NSRDB+020499999V020999999999999999999999999999+99999+99999999999ADDGP10060000002000000002000000002000GR100600000900009
0071723240138822000070723009+35033-085200NSRDB+020499999V020999999999999999999999999999+99999+99999999999ADDGP10060033902008040202015015202008GQ100600622927919GR100600614913219
0221723240138822000071011534+35300-085190FM-15+0210KCHA V0209999C000012200019N0096561N1+02501+02301101671ADDGF100991999999999999999999KA1999M+02561KA2999N+02281MA1101761999999MD1310131+9999MW1101REMMET087KCHA 101153Z 00000KT 6SM BR CLR 25/23 A3005 RMK AO2 SLP167 T02500228 10256 20228 53013;EQDQ01+000003PRSWM1Q02    003PRSWM1
032572324013882200007121353C+35033-085200FM-15+0204CHA  V0209999C00005220005MN0160005N1+02725+02115101485ADDAA101000095GD11995+0335359GF102991999999999999999999MA1101595999999MW1001REMMET070KCHA 121353Z 00000KT 10SM FEW110 27/21 A3000 RMK AO2 SLP148 T02720211;EQDQ01+000000PRSWM2N01 00000JPWTH 0QNNAA1D0 02110BA1 0 01110GA1U0 99999KA1D0 00070JA1 0 00211LA1 0 01000CA1 0 03000NA1 0 00000QA1 0 10148SA1D0 00081RA1 0 00272YA1 0 00000
0071723240138822000071321009+35033-085200NSRDB+020499999V020999999999999999999999999999+99999+99999999999ADDGP10060070402008063102015020702008GQ100600380926049GR100601039913229
032472324013882200007141653C+35033-085200FM-15+0204CHA  V0209999V00155220005MN0112005N1+03175+02005101295ADDAA101000095GD12995+0137259GF104991999999999999999999MA1101395999999MW1001REMMET069KCHA 141653Z VRB03KT 7SM SCT045 32/20 A2994 RMK AO2 SLP129 T03170200;EQDQ01+000000PRSWM2N01 00000JPWTH 0QNNAA1D0 02045BA1 0 02045GA1U0 99999KA1D0 00068JA1 0 00200LA1 0 00700CA1 0 02994NA1 0 00000QA1 0 10129SA1D0 00089RA1 0 00317YA1 0 00003
0071723240138822000071515009+35033-085200NSRDB+020499999V020999999999999999999999999999+99999+99999999999ADDGP10060064302008068702015015702008GQ100600449909429GR100600934913229
0071723240138822000071614009+35033-085200NSRDB+020499999V020999999999999999999999999999+99999+99999999999ADDGP10060043702008050502015016402008GQ100600573908579GR100600713913229
034772324013882200007161453C+35033-085200FM-15+0204CHA  V0203505N00365220005MN0160005N1+02565+01895101085ADDAA101000095GD11995+0106759GF102991999999999999999999MA1101155999999MD1010081+9999MW1001REMMET078KCHA 161453Z 35007KT 10SM FEW035 26/19 A2987 RMK AO2 SLP108 T02560189 50008 $;EQDQ01+000000PRSWM2N01 00000JPWTH 0QNNAA1D0 02035BA1 0 01035GA1U0 99999KA1D0 00066JA1 0 00189LA1 0 01000CA1 0 02987NA1 0 00000QA1 0 10108SA1D0 00078RA1 0 00256YA1 0 35007
0054723240138822000071705009+35033-085200NSRDB+020499999V020999999999999999999999999999+99999+99999999999ADDGP10060000002000000002000000002000GR100600000900009
033372324013882200007171453C+35033-085200FM-15+0204CHA  V0200105N00155220005MN0160005N1+02725+01725101665ADDAA101000095GF100991999999999999999999MA1101765999999MD1110121+9999MW1001REMMET079KCHA 171453Z 01003KT 10SM CLR 27/17 A3005 RMK AO2 SLP166 T02720172 51012 PNO $;EQDQ01+000000PRSWM2N01 00000JPWTH 0QNNAA1D0 00000BA1 0 00000GA1U0 99999KA1D0 00063JA1 0 00172LA1 0 01000CA1 0 03005NA1 0 00000QA1 0 10166SA1D0 00081RA1 0 00272YA1 0 01003
030772324013882200007172153C+35033-085200FM-15+0204CHA  V0203605N00465220005MN0160005N1+03225+01565101585ADDAA101000095GF100991999999999999999999MA1101665999999MW1001REMMET067KCHA 172153Z 36009KT 10SM CLR 32/16 A3002 RMK AO2 SLP158 T03220156;EQDQ01+000000PRSWM2N01 00000JPWTH 0QNNAA1D0 00000BA1 0 00000GA1U0 99999KA1D0 00060JA1 0 00156LA1 0 01000CA1 0 03002NA1 0 00000QA1 0 10158SA1D0 00090RA1 0 00322YA1 0 36009
0221723240138822000071923534+35030-085190FM-15+0210KCHA V0203001N004612200019N0160931N1+03401+02101101161ADDGD12991+0180019GF102991999999999999999999KA1999M+03721KA2999N+03391MA1101251999999MD1510001+9999MW1001REMMET088KCHA 192353Z 30009KT 10SM FEW065 34/21 A2990 RMK AO2 SLP116 T03440206 10372 20339 55000;EQDQ01+000000PRSWM2
0054723240138822000072007009+35033-085200NSRDB+020499999V020999999999999999999999999999+99999+99999999999ADDGP10060000002000000002000000002000GR100600000900009
030672324013882200007201053C+35033-085200FM-15+0204CHA  V0203205N00265220005MN0112005N1+02115+01835101505ADDAA101000095GF100991999999999999999999MA1101595999999MW1001REMMET066KCHA 201053Z 32005KT 7SM CLR 21/18 A3000 RMK AO2 SLP150 T02110183;EQDQ01+000000PRSWM2N01 00000JPWTH 0QNNAA1D0 00000BA1 0 00000GA1U0 99999KA1D0 00065JA1 0 00183LA1 0 00700CA1 0 03000NA1 0 00000QA1 0 10150SA1D0 00070RA1 0 00211YA1 0 32005
0302723240138822000072023534+35030-085190FM-15+0210KCHA V0200201N004010360019N0160931N1+03101+01701101231ADDGD12991+0135019GD22991+0210019GD33991+0360019GF107991999999999999999999KA1999M+03501KA2999N+03061MA1101321999999MD1310071+9999MW1001REMMET139KCHA 202353Z 02004KT 10SM FEW045 SCT070 BKN120 31/17 A2992 RMK AO2 PRESRR SLP123 OCNL LTGICCG DSNT SW TS MOV E T03110172 10350 20306 53007;EQDQ01+000000PRSWM2
0465723240138822000072218003+35033-085200SY-MT+0204CHA  V0203505N00265220005MN0160005N1+03175+01615101555ADDAA101000095GD12995+0182959GF104991999999017501999999GP10060093002008073302015022402008GQ100600158916539GR100601273913239KA1120M+03221KA2240N+02331MA1101665099151MD1510041+9999REMSYN092AAXX  22184 72324 32766 43505 10317 20161 39915 40155 55004 91753 333 10322 20233 555 92218;EQDQ01  00002PRCP99Q02  00003PRCP99N01 00000JPWTH 0QNNAA1D0 02060BA1 0 02060GA1U0 99999KA1D0 00061JA1 0 00161LA1 0 01000CA1 0 03002NA1 0 00000QA1 0 10155SA1D0 00089RA1 0 00317YA1 0 35005
032772324013882200007230253C+35033-085200FM-15+0204CHA  V0203605N00265220005MN0160005N1+02565+01675101595ADDAA101000095GF100991999999999999999999MA1101695999999MD1110151+9999MW1001REMMET073KCHA 230253Z 36005KT 10SM CLR 26/17 A3003 RMK AO2 SLP159 T02560167 51015;EQDQ01+000000PRSWM2N01 00000JPWTH 0QNNAA1D0 00000BA1 0 00000GA1U0 99999KA1D0 00062JA1 0 00167LA1 0 01000CA1 0 03003NA1 0 00000QA1 0 10159SA1D0 00078RA1 0 00256YA1 0 36005
043372324013882200007251453C+35033-085200FM-15+0204CHA  V0202005N00215012505MN0160005N1+02445+01895101795ADDAA101000095GD11995+0051859GD23995+0125059GD33995+0152459GF107991999999999999999999MA1101865999999MD1010091+9999MW1001REMMET090KCHA 251453Z 20004KT 10SM FEW017 BKN041 BKN050 24/19 A3008 RMK AO2 SLP179 T02440189 50009;EQDQ01+000000PRSWM2N01 00000JPWTH 0QNNAA1D0 02017BA1 0 01017AA1D0 04041BA1 0 04041AA1D0 04050BA1 0 04050GA1 0 00041KA1D0 00066JA1 0 00189LA1 0 01000CA1 0 03008NA1 0 00000QA1 0 10179SA1D0 00076RA1 0 00244YA1 0 20004
0054723240138822000072602009+35033-085200NSRDB+020499999V020999999999999999999999999999+99999+99999999999ADDGP10060000002000000002000000002000GR100600000900009
0071723240138822000072721009+35033-085200NSRDB+020499999V020999999999999999999999999999+99999+99999999999ADDGP10060066302008057102015022102008GQ100600393925669GR100601023913259
0054723240138822000072809009+35033-085200NSRDB+020499999V020999999999999999999999999999+99999+99999999999ADDGP10060000002000000002000000002000GR100600000900009
0247723240138822000073021324+35030-085190FM-16+0210KCHA V0201501N006210240019N0160931N1+03001+02101999999ADDGD12991+0135019GD23991+0240019GF107991999999999999999999MA1101321999999MW1171OC100821REMMET115KCHA 302132Z 15012G16KT 10SM TS SCT045 BKN085 30/21 A2992 RMK AO2 TSB30 CONS LTGICCG OHD-S-SW TS OHD-S-SW MOV NE $;EQDQ01+000003PRSWM1Q02    003PRSWM1
0145723240138822000080312164+35030-085190FM-16+0210KCHA V0209999C000012200019N0112651N1+02201+02101999999ADDGD12991+0084019GF104991999999999999999999MA1101931999999MW1001REMMET052KCHA 031216Z 00000KT 7SM SCT028 22/21 A3010 RMK AO2;EQDQ01+000000PRSWM2
032572324013882200008032153C+35033-085200FM-15+0204CHA  V0202405N00315220005MN0160005N1+03115+02005101555ADDAA101000095GD11995+0137259GF102991999999999999999999MA1101635999999MW1001REMMET070KCHA 032153Z 24006KT 10SM FEW045 31/20 A3001 RMK AO2 SLP155 T03110200;EQDQ01+000000PRSWM2N01 00000JPWTH 0QNNAA1D0 02045BA1 0 01045GA1U0 99999KA1D0 00068JA1 0 00200LA1 0 01000CA1 0 03001NA1 0 00000QA1 0 10155SA1D0 00088RA1 0 00311YA1 0 24006
0221723240138822000080805534+35030-085190FM-15+0210KCHA V0209999C000012200019N0096561N1+02601+02301101911ADDGF100991999999999999999999KA1999M+03221KA2999N+02441MA1102001999999MD1110081+9999MW1051REMMET087KCHA 080553Z 00000KT 6SM HZ CLR 26/23 A3012 RMK AO2 SLP191 T02560228 10322 20244 51008;EQDQ01+000003PRSWM1Q02    003PRSWM1
032572324013882200008090053C+35033-085200FM-15+0204CHA  V0209999C00005220005MN0160005N1+02945+02175101645ADDAA101000095GD11995+0137259GF102991999999999999999999MA1101735999999MW1001REMMET070KCHA 090053Z 00000KT 10SM FEW045 29/22 A3004 RMK AO2 SLP164 T02940217;EQDQ01+000000PRSWM2N01 00000JPWTH 0QNNAA1D0 02045BA1 0 01045GA1U0 99999KA1D0 00071JA1 0 00217LA1 0 01000CA1 0 03004NA1 0 00000QA1 0 10164SA1D0 00085RA1 0 00294YA1 0 00000
0733723240138822000080904596+35031-085201SOD  +0210KCHA V020999999999999999999999999999+99999+99999999999ADDAA124000096AT1MW03TS  5AT2MW01FG  5AT3MW13BR  1AT4MW08HZ  5KA1240M+03445KA2240N+02335MG1099269999994OE11240067130014555OE22240058130014565OE33240020199999995REMSOD54524 HR PRECIPITATION (IN): 0.00 24 HR MAX TEMP (F): 9424 HR MAX TEMP TIME (LST):1419 24 HR MIN TEMP (F): 7424 HR MIN TEMP TIME (LST):0619 AVERAGE STATION PRESSURE:29.31  PEAK WIND SPEED (MPH): 15 PEAK WIND DIR (DEG):300 PEAK WIND TIME (LST):1455  FASTEST 2MIN SPEED (MPH): 13FASTEST 2MIN DIR (DEG):300 FASTEST 2MIN TIME (LST):1456 AVERAGE WIND SPEED (MPH): 4.5 24 HR AVG TEMP (F):84 HOURLY INCREMENTAL PRECIPITATION VALUES (IN):.00  .00  .00  .00  .00  .00  .00  .00  .00  .00  .00  .00  .00  .00  .00  .00  .00  .00  .00  .00  .00  .00  .00  .00EQDR01  0.007AAP092
0071723240138822000080914009+35033-085200NSRDB+020499999V020999999999999999999999999999+99999+99999999999ADDGP10060041002008050102015015902008GQ100600600909149GR100600664913309
0071723240138822000081122009+35033-085200NSRDB+020499999V020999999999999999999999999999+99999+99999999999ADDGP10060031402008010602015025102008GQ100600538926299GR100600784913309
030772324013882200008120153C+35033-085200FM-15+0204CHA  V0203305N00265220005MN0160005N1+02395+01675101515ADDAA101000095GF100991999999999999999999MA1101595999999MW1001REMMET067KCHA 120153Z 33005KT 10SM CLR 24/17 A3000 RMK AO2 SLP151 T02390167;EQDQ01+000000PRSWM2N01 00000JPWTH 0QNNAA1D0 00000BA1 0 00000GA1U0 99999KA1D0 00062JA1 0 00167LA1 0 01000CA1 0 03000NA1 0 00000QA1 0 10151SA1D0 00075RA1 0 00239YA1 0 33005
0054723240138822000082008009+35033-085200NSRDB+020499999V020999999999999999999999999999+99999+99999999999ADDGP10060000002000000002000000002000GR100600000900009
0054723240138822000082109009+35033-085200NSRDB+020499999V020999999999999999999999999999+99999+99999999999ADDGP10060000002000000002000000002000GR100600000900009
036972324013882200008211953C+35033-085200FM-15+0204CHA  V0201905N00415009755MN0160005N1+02445+01785102355ADDAA101000095GD12995+0082359GD24995+0097559GF108991999999999999999999MA1102445999999MW1001REMMET077KCHA 211953Z 19008KT 10SM SCT027 OVC032 24/18 A3025 RMK AO2 SLP235 T02440178;EQDQ01+000000PRSWM2N01 00000JPWTH 0QNNAA1D0 02027BA1 0 02027AA1D0 06032BA1 0 06032GA1 0 00032KA1D0 00064JA1 0 00178LA1 0 01000CA1 0 03025NA1 0 00000QA1 0 10235SA1D0 00076RA1 0 00244YA1 0 19008
0071723240138822000082313009+35033-085200NSRDB+020499999V020999999999999999999999999999+99999+99999999999ADDGP10060017902008024502015011202008GQ100600740908739GR100600367913379
030772324013882200008260053C+35033-085200FM-15+0204CHA  V0209999C00005220005MN0160005N1+02675+01565101515ADDAA101000095GF100991999999999999999999MA1101595999999MW1001REMMET067KCHA 260053Z 00000KT 10SM CLR 27/16 A3000 RMK AO2 SLP151 T02670156;EQDQ01+000000PRSWM2N01 00000JPWTH 0QNNAA1D0 00000BA1 0 00000GA1U0 99999KA1D0 00060JA1 0 00156LA1 0 01000CA1 0 03000NA1 0 00000QA1 0 10151SA1D0 00080RA1 0 00267YA1 0 00000
030772324013882200008300053C+35033-085200FM-15+0204CHA  V0209999C00005220005MN0160005N1+02835+02285101285ADDAA101000095GF100991999999999999999999MA1101395999999MW1001REMMET067KCHA 300053Z 00000KT 10SM CLR 28/23 A2994 RMK AO2 SLP128 T02830228;EQDQ01+000000PRSWM2N01 00000JPWTH 0QNNAA1D0 00000BA1 0 00000GA1U0 99999KA1D0 00073JA1 0 00228LA1 0 01000CA1 0 02994NA1 0 00000QA1 0 10128SA1D0 00083RA1 0 00283YA1 0 00000
032572324013882200008301553C+35033-085200FM-15+0204CHA  V0201905N00155220005MN0160005N1+02895+01895101605ADDAA101000095GD11995+0121959GF102991999999999999999999MA1101695999999MW1001REMMET070KCHA 301553Z 19003KT 10SM FEW040 29/19 A3003 RMK AO2 SLP160 T02890189;EQDQ01+000000PRSWM2N01 00000JPWTH 0QNNAA1D0 02040BA1 0 01040GA1U0 99999KA1D0 00066JA1 0 00189LA1 0 01000CA1 0 03003NA1 0 00000QA1 0 10160SA1D0 00084RA1 0 00289YA1 0 19003
0071723240138822000083117009+35033-085200NSRDB+020499999V020999999999999999999999999999+99999+99999999999ADDGP10060071402008049402015029102008GQ100600314914499GR100601144913429
0071723240138822000090117009+35033-085200NSRDB+020499999V020999999999999999999999999999+99999+99999999999ADDGP10060020902008000002015020902008GQ100600317914539GR100601141913429
0071723240138822000090220009+35033-085200NSRDB+020499999V020999999999999999999999999999+99999+99999999999ADDGP10060012202008000002015012202008GQ100600373922879GR100601067913439
036072324013882200009030453C+35033-085200FM-15+0204CHA  V0209999C00005220005MN0112005N1+02175+02115101285ADDAA101000095GD11995+0152459GF102991999999999999999999KA1999M+02721KA2999N+02171MA1101355999999MW1001REMMET079KCHA 030453Z 00000KT 7SM FEW050 22/21 A2993 RMK AO2 SLP128 T02170211 402720217;EQDQ01+000000PRSWM2N01 00000JPWTH 0QNNAA1D0 02050BA1 0 01050GA1U0 99999KA1D0 00070JA1 0 00211LA1 0 00700CA1 0 02993NA1 0 00000QA1 0 10128SA1D0 00071RA1 0 00217YA1 0 00000
0241723240138822000090517534+35030-085190FM-15+0210KCHA V0209999C000012200019N0096561N1+02901+02001101521ADDGD12991+0108019GF104991999999999999999999KA1999M+02891KA2999N+02221MA1101591999999MD1810071+9999MW1051REMMET092KCHA 051753Z 00000KT 6SM HZ SCT036 29/20 A3000 RMK AO2 SLP152 T02890200 10289 20222 58007 $;EQDQ01+000003PRSWM1Q02    003PRSWM1
0170723240138822000090608284+35030-085190FM-16+0210KCHA V0209999C000010123019N0160931N1+02101+01901999999ADDGD12991+0075019GD24991+0123019GF108991999999999999999999MA1101931999999MW1001REMMET062KCHA 060828Z 00000KT 10SM SCT025 OVC041 21/19 A3010 RMK AO2 $;EQDQ01+000000PRSWM2
037172324013882200009061353C+35033-085200FM-15+0204CHA  V0200805N00315018295MN0160005N1+02065+01835102155ADDAA101000095GD12995+0024459GD23995+0182959GF107991999999999999999999MA1102245999999MW1001REMMET079KCHA 061353Z 08006KT 10SM SCT008 BKN060 21/18 A3019 RMK AO2 SLP215 T02060183 $;EQDQ01+000000PRSWM2N01 00000JPWTH 0QNNAA1D0 02008BA1 0 02008AA1D0 04060BA1 0 04060GA1 0 00060KA1D0 00065JA1 0 00183LA1 0 01000CA1 0 03019NA1 0 00000QA1 0 10215SA1D0 00069RA1 0 00206YA1 0 08006
0488723240138822000090817003+35033-085200FM-15+0204CHA  V0202605N00155004575MN0032005N1+02225+02005102095ADDAA101000025GD12995+0024459GD23995+0045759GD34995+0079259GF108991999999999999999999GP10060020302008000002015020302008GQ100600337914849GR100601120913479MA1102175999999MW1101MW2455REMMET069KCHA 081700Z 27004KT 4SM BR SCT008 BKN015 OVC021 22/20 A3016 RMK AO2;EQDQ01+000003PRSWM1Q02    003PRSWM1N01 00070JPWTH 0QNNAA1D0 02008BA1 0 02008AA1D0 04015BA1 0 04015AA1D0 06026BA1 0 06026GA1 0 00015KA1D0 00068JA1 0 00200LA1 0 00200CA1 0 03017NA1 0 00070QA1 0 10209SA1D0 00072RA1 0 00222YA1 0 26003
030772324013882200009140153C+35033-085200FM-15+0204CHA  V0209999C00005220005MN0160005N1+02335+02005101515ADDAA101000095GF100991999999999999999999MA1101595999999MW1001REMMET067KCHA 140153Z 00000KT 10SM CLR 23/20 A3000 RMK AO2 SLP151 T02330200;EQDQ01+000000PRSWM2N01 00000JPWTH 0QNNAA1D0 00000BA1 0 00000GA1U0 99999KA1D0 00068JA1 0 00200LA1 0 01000CA1 0 03000NA1 0 00000QA1 0 10151SA1D0 00074RA1 0 00233YA1 0 00000
032572324013882200009161853C+35033-085200FM-15+0204CHA  V0200405N00465220005MN0160005N1+02225+00505101765ADDAA101000095GD11995+0182959GF102991999999999999999999MA1101835999999MW1001REMMET070KCHA 161853Z 04009KT 10SM FEW060 22/05 A3007 RMK AO2 SLP176 T02220050;EQDQ01+000000PRSWM2N01 00000JPWTH 0QNNAA1D0 02060BA1 0 01060GA1U0 99999KA1D0 00041JA1 0 00050LA1 0 01000CA1 0 03007NA1 0 00000QA1 0 10176SA1D0 00072RA1 0 00222YA1 0 04009
030772324013882200009182253C+35033-085200FM-15+0204CHA  V0209999C00005220005MN0160005N1+02785+00785101435ADDAA101000095GF100991999999999999999999MA1101495999999MW1001REMMET067KCHA 182253Z 00000KT 10SM CLR 28/08 A2997 RMK AO2 SLP143 T02780078;EQDQ01+000000PRSWM2N01 00000JPWTH 0QNNAA1D0 00000BA1 0 00000GA1U0 99999KA1D0 00046JA1 0 00078LA1 0 01000CA1 0 02997NA1 0 00000QA1 0 10143SA1D0 00082RA1 0 00278YA1 0 00000
0239723240138822000092405534+35030-085190FM-15+0210KCHA V0209999C000012200019N0064371N1+02201+02101101331ADDGD12991+0057019GF104991999999999999999999KA1999M+02441KA2999N+02171MA1101421999999MD1810081+9999MW1101REMMET090KCHA 240553Z 00000KT 4SM BR SCT019 22/21 A2995 RMK AO2 SLP133 T02170211 10244 20217 58008;EQDQ01+000003PRSWM1Q02    003PRSWM1
036672324013882200009250453C+35033-085200FM-15+0204CHA  V0209999C00005220005MN0144005N1+02225+02115101065ADDAA101000095GD11995+0182959GF102991999999999999999999KA1999M+03001KA2999N+02171MA1101155999999MW1001REMMET085KCHA 250453Z 00000KT 9SM FEW060 22/21 A2987 RMK AO2 SLP106 T02220211 403000217 PNO $;EQDQ01+000000PRSWM2N01 00000JPWTH 0QNNAA1D0 02060BA1 0 01060GA1U0 99999KA1D0 00070JA1 0 00211LA1 0 00900CA1 0 02987NA1 0 00000QA1 0 10106SA1D0 00072RA1 0 00222YA1 0 00000
034372324013882200009270453C+35033-085200FM-15+0204CHA  V0209999C00005220005MN0160005N1+01175+00895102235ADDAA101000095GF100991999999999999999999KA1999M+01941KA2999N+01061MA1102275999999MW1001REMMET077KCHA 270453Z 00000KT 10SM CLR 12/09 A3020 RMK AO2 SLP223 T01170089 401940106;EQDQ01+000000PRSWM2N01 00000JPWTH 0QNNAA1D0 00000BA1 0 00000GA1U0 99999KA1D0 00048JA1 0 00089LA1 0 01000CA1 0 03020NA1 0 00000QA1 0 10223SA1D0 00053RA1 0 00117YA1 0 00000
030772324013882200009271053C+35033-085200FM-15+0204CHA  V0209999C00005220005MN0160005N1+00895+00725102335ADDAA101000095GF100991999999999999999999MA1102375999999MW1001REMMET067KCHA 271053Z 00000KT 10SM CLR 09/07 A3023 RMK AO2 SLP233 T00890072;EQDQ01+000000PRSWM2N01 00000JPWTH 0QNNAA1D0 00000BA1 0 00000GA1U0 99999KA1D0 00045JA1 0 00072LA1 0 01000CA1 0 03023NA1 0 00000QA1 0 10233SA1D0 00048RA1 0 00089YA1 0 00000
0202723240138822000092805534+35030-085190FM-15+0210KCHA V0209999C000012200019N0144841N1+01201+01101102131ADDGF100991999999999999999999KA1999M+01781KA2999N+01111MA1102171999999MD1310021+9999MW1001REMMET084KCHA 280553Z 00000KT 9SM CLR 12/11 A3017 RMK AO2 SLP213 T01220106 10178 20111 53002;EQDQ01+000000PRSWM2
0054723240138822000092809009+35033-085200NSRDB+020499999V020999999999999999999999999999+99999+99999999999ADDGP10060000002000000002000000002000GR100600000900009
0487723240138822000092812003+35033-085200SY-MT+0204CHA  V0209999C00005220005MN0160005N1+00945+00835102235ADDAA101000095GA1001+999999999GD10995+9999999GF100991001001999999001001GP10060000002008000002015000002008GQ100600877909419GR100600023905799KA1999M+02331KA2120N+00891MA1102275099751MD1310091+9999MW1415REMSYN092AAXX  28124 72324 31966 00000 10094 20083 39975 40223 53009 91153 333 10233 20089 555 92812;EQDQ01  00002PRCP99Q02  00003PRCP99N01 00096JPWTH 0QNNAA1D0 00000BA1 0 00000GA1U0 99999KA1D0 00047JA1 0 00083LA1 0 01000CA1 0 03020NA1 0 00096QA1 0 10223SA1D0 00049RA1 0 00094YA1 0 00000
0203723240138822000092923534+35030-085190FM-15+0210KCHA V0209999C000012200019N0160931N1+02001+01201102151ADDGF100991999999999999999999KA1999M+02561KA2999N+02001MA1102201999999MD1310021+9999MW1001REMMET085KCHA 292353Z 00000KT 10SM CLR 20/12 A3018 RMK AO2 SLP215 T02000117 10256 20200 53002;EQDQ01+000000PRSWM2
0190723240138822000100111264+35030-085190FM-16+0210KCHA V0209999C000012200019N0028161N1+01201+01201999999ADDGD12991+0003019GD22991+0210019GF104991999999999999999999MA1102001999999MW1101REMMET066KCHA 011126Z 00000KT 1 3/4SM BR FEW001 SCT075 12/12 A3012 RMK AO2;EQDQ01+000003PRSWM1Q02    003PRSWM1
0765723240138822000100304596+35031-085201SOD  +0210KCHA V020999999999999999999999999999+99999+99999999999ADDAA124000095AT1MW01FG  5AT2MW13BR  1GJ100005GK10005KA1240M+02835KA2240N+01285MG1099099999994OE11240058124015045OE22240044725015045OE33240009499999995REMSOD60524 HR PRECIPITATION (IN): 0.00 TOTAL SUNSHINE (MINUTES):   0 PERCENT POSSIBLE SUNSHINE:  0 24 HR MAX TEMP (F): 8324 HR MAX TEMP TIME (LST):1641 24 HR MIN TEMP (F): 5524 HR MIN TEMP TIME (LST):0655 AVERAGE STATION PRESSURE:29.26  PEAK WIND SPEED (MPH): 13 PEAK WIND DIR (DEG):240 PEAK WIND TIME (LST):1504  FASTEST 2MIN SPEED (MPH): 10FASTEST 2MIN DIR (DEG):250 FASTEST 2MIN TIME (LST):1504 AVERAGE WIND SPEED (MPH): 2.1 24 HR AVG TEMP (F):69 HOURLY INCREMENTAL PRECIPITATION VALUES (IN):.00  .00  .00  .00  .00  .00  .00  .00  .00  .00  .00  .00  .00  .00  .00  .00  .00  .00  .00  .00  .00  .00  .00  .00
0163723240138822000100409534+35030-085190FM-15+0210KCHA V0209999C000012200019N0096561N1+01401+01301101731ADDGF100991999999999999999999MA1101801999999MW1101REMMET069KCHA 040953Z 00000KT 6SM BR CLR 14/13 A3006 RMK AO2 SLP173 T01440133;EQDQ01+000003PRSWM1Q02    003PRSWM1
036772324013882200010050453C+35033-085200FM-15+0204CHA  V0209999C00005220005MN0064005N1+01725+01565101655ADDAA101000095GF100991999999999999999999KA1999M+02891KA2999N+01441MA1101735999999MW1101MW2455REMMET079KCHA 050453Z 00000KT 4SM BR CLR 17/16 A3004 RMK AO2 SLP165 T01720156 402890144;EQDQ01+000003PRSWM1Q02    003PRSWM1N01 00070JPWTH 0QNNAA1D0 00000BA1 0 00000GA1U0 99999KA1D0 00060JA1 0 00156LA1 0 00400CA1 0 03004NA1 0 00070QA1 0 10165SA1D0 00063RA1 0 00172YA1 0 00000
036872324013882200010060753C+35033-085200FM-15+0204CHA  V0201305N00155215805MN0144005N1+01895+01675101355ADDAA101000095GD13995+0213459GD24995+0304859GF108991999999999999999999MA1101425999999MW1001REMMET076KCHA 060753Z 13003KT 9SM BKN070 OVC100 19/17 A2995 RMK AO2 SLP135 T01890167;EQDQ01+000000PRSWM2N01 00000JPWTH 0QNNAA1D0 04070BA1 0 04070AA1D0 06100BA1 0 06100GA1 0 00708KA1D0 00062JA1 0 00167LA1 0 00900CA1 0 02995NA1 0 00000QA1 0 10135SA1D0 00066RA1 0 00189YA1 0 13003
0054723240138822000100704009+35033-085200NSRDB+020499999V020999999999999999999999999999+99999+99999999999ADDGP10060000002000000002000000002000GR100600000900009
0071723240138822000100713009+35033-085200NSRDB+020499999V020999999999999999999999999999+99999+99999999999ADDGP10060009002008008402015007602008GQ100600808910379GR100600219913699
0071723240138822000100914009+35033-085200NSRDB+020499999V020999999999999999999999999999+99999+99999999999ADDGP10060030102008051502015012102008GQ100600696911429GR100600476913719
0054723240138822000101408009+35033-085200NSRDB+020499999V020999999999999999999999999999+99999+99999999999ADDGP10060000002000000002000000002000GR100600000900009
030672324013882200010140953C+35033-085200FM-15+0204CHA  V0203005N00155220005MN0144005N1+00445+00335102515ADDAA101000095GF100991999999999999999999MA1102545999999MW1001REMMET066KCHA 140953Z 30003KT 9SM CLR 04/03 A3028 RMK AO2 SLP251 T00440033;EQDQ01+000000PRSWM2N01 00000JPWTH 0QNNAA1D0 00000BA1 0 00000GA1U0 99999KA1D0 00038JA1 0 00033LA1 0 00900CA1 0 03028NA1 0 00000QA1 0 10251SA1D0 00040RA1 0 00044YA1 0 30003
0145723240138822000101814454+35030-085190FM-15+0210KCHA V0200201N006712200019N0144841N1+02101+01401999999ADDGD12991+0093019GF102991999999999999999999MA1102171999999MW1001REMMET052KCHA 181445Z 02013KT 9SM FEW031 21/14 A3017 RMK AO2;EQDQ01+000000PRSWM2
0071723240138822000102021009+35033-085200NSRDB+020499999V020999999999999999999999999999+99999+99999999999ADDGP10060037902008047402015016502008GQ100600632923249GR100600621913809
032572324013882200010302253C+35033-085200FM-15+0204CHA  V0209999C00005220005MN0160005N1+02115+00615102115ADDAA101000095GD11995+0365859GF102991999999999999999999MA1102175999999MW1001REMMET070KCHA 302253Z 00000KT 10SM FEW120 21/06 A3017 RMK AO2 SLP211 T02110061;EQDQ01+000000PRSWM2N01 00000JPWTH 0QNNAA1D0 02120BA1 0 01120GA1U0 99999KA1D0 00043JA1 0 00061LA1 0 01000CA1 0 03017NA1 0 00000QA1 0 10211SA1D0 00070RA1 0 00211YA1 0 00000
0168723240138822000110701184+35030-085190FM-16+0210KCHA V0201901N005110075019N0160931N1+01601+01201999999ADDGD13991+0075019GD24991+0108019GF108991999999999999999999MA1101251999999MW1001REMMET060KCHA 070118Z 19010KT 10SM BKN025 OVC036 16/12 A2990 RMK AO2;EQDQ01+000000PRSWM2
0186723240138822000110714454+35030-085190FM-15+0210KCHA V02099999999990042019N0064371N1+01701+01601999999ADDGD12991+0024019GD24991+0042019GF108991999999999999999999MA1101521999999MW1101REMMET062KCHA 071445Z VRB03KT 4SM BR FEW008 OVC014 17/16 A2998 RMK AO2;EQDQ01+000003PRSWM1Q02    003PRSWM1
030772324013882200011110153C+35033-085200FM-15+0204CHA  V0203605N00465220005MN0160005N1+00565+00115102075ADDAA101000095GF100991999999999999999999MA1102075999999MW1001REMMET067KCHA 110153Z 36009KT 10SM CLR 06/01 A3014 RMK AO2 SLP207 T00560011;EQDQ01+000000PRSWM2N01 00000JPWTH 0QNNAA1D0 00000BA1 0 00000GA1U0 99999KA1D0 00034JA1 0 00011LA1 0 01000CA1 0 03014NA1 0 00000QA1 0 10207SA1D0 00042RA1 0 00056YA1 0 36009
0054723240138822000111203009+35033-085200NSRDB+020499999V020999999999999999999999999999+99999+99999999999ADDGP10060000002000000002000000002000GR100600000900009
0164723240138822000112010264+35030-085190FM-16+0210KCHA V0202001N002110009019N0032181N1+00101+00101999999ADDGD14991+0009019GF108991999999999999999999MA1102271999999MW1101REMMET055KCHA 201026Z 20004KT 2SM BR OVC003 01/01 A3020 RMK AO2;EQDQ01+000003PRSWM1Q02    003PRSWM1
0182723240138822000112011344+35030-085190FM-16+0210KCHA V0209999C000010003019N0024141N1+00101+00101999999ADDGD14991+0003019GF108991999999999999999999MA1102301999999MW1101REMMET073KCHA 201134Z 00000KT 1 1/2SM BR OVC001 01/01 A3021 RMK AO2 SFC VIS 1 3/4;EQDQ01+000003PRSWM1Q02    003PRSWM1
0205723240138822000112111534+35030-085190FM-15+0210KCHA V0203101N004612200019N0160931N1-00201-01101102921ADDGF100991999999999999999999KA1999M+00061KA2999N-00331MA1102881999999MD1310221+9999MW1001REMMET087KCHA 211153Z 31009KT 10SM CLR M02/M11 A3038 RMK AO2 SLP292 T10171106 10006 21033 53022;EQDQ01+000000PRSWM2
030872324013882200011220053C+35033-085200FM-15+0204CHA  V0209999C00005220005MN0160005N1+00065-01225103105ADDAA101000095GF100991999999999999999999MA1103055999999MW1001REMMET068KCHA 220053Z 00000KT 10SM CLR 01/M12 A3043 RMK AO2 SLP310 T00061122;EQDQ01+000000PRSWM2N01 00000JPWTH 0QNNAA1D0 00000BA1 0 00000GA1U0 99999KA1D0 00010JA1 0-00122LA1 0 01000CA1 0 03043NA1 0 00000QA1 0 10310SA1D0 00033RA1 0 00006YA1 0 00000
034472324013882200011230453C+35033-085200FM-15+0204CHA  V0209999C00005220005MN0160005N1+00175-00065102575ADDAA101000095GF100991999999999999999999KA1999M+01281KA2999N-00561MA1102545999999MW1001REMMET078KCHA 230453Z 00000KT 10SM CLR 02/M01 A3028 RMK AO2 SLP257 T00171006 401281056;EQDQ01+000000PRSWM2N01 00000JPWTH 0QNNAA1D0 00000BA1 0 00000GA1U0 99999KA1D0 00031JA1 0-00006LA1 0 01000CA1 0 03028NA1 0 00000QA1 0 10257SA1D0 00035RA1 0 00017YA1 0 00000
0054723240138822000112700009+35033-085200NSRDB+020499999V020999999999999999999999999999+99999+99999999999ADDGP10060000002000000002000000002000GR100600000900009
0071723240138822000112921009+35033-085200NSRDB+020499999V020999999999999999999999999999+99999+99999999999ADDGP10060025102009039202021012302009GQ100600711922419GR100600456914069
032872324013882200011302053C+35033-085200FM-15+0204CHA  V0203005N00155220005MN0160005N1+00895-00445102425ADDAA101000095GF100991999999999999999999MA1102405999999MD1510141+9999MW1001REMMET074KCHA 302053Z 30003KT 10SM CLR 09/M04 A3024 RMK AO2 SLP242 T00891044 55014;EQDQ01+000000PRSWM2N01 00000JPWTH 0QNNAA1D0 00000BA1 0 00000GA1U0 99999KA1D0 00024JA1 0-00044LA1 0 01000CA1 0 03024NA1 0 00000QA1 0 10242SA1D0 00048RA1 0 00089YA1 0 30003
0071723240138822000120216009+35033-085200NSRDB+020499999V020999999999999999999999999999+99999+99999999999ADDGP10060043602009066802021014202009GQ100600639914899GR100600619914089
0449723240138822000120318003+35033-085200SY-MT+0204CHA  V0200105N00315005185MN0160005N1+00175-00065103135ADDAA101000095GD14995+0051859GF108991999999004501999999GP10060016302009000002021016302009GQ100600574917989GR100600759914089KA1120M+00221KA2240N+00111MA1103125100581MD1810021+9999REMSYN092AAXX  03184 72324 32466 80106 10017 21006 30058 40313 58002 91753 333 10022 20011 555 90318;EQDQ01  00003PRCP99N01 00000JPWTH 0QNNAA1D0 06017BA1 0 06017GA1 0 00017KA1D0 00031JA1 0-00006LA1 0 01000CA1 0 03045NA1 0 00000QA1 0 10313SA1D0 00035RA1 0 00017YA1 0 01006
033372324013882200012050653C+35033-085200FM-15+0204CHA  V0209999C00005220005MN0080005N1-00225-00285102765ADDAA101000095GF100991999999999999999999MA1102745999999MW1101MW2455REMMET071KCHA 050653Z 00000KT 5SM BR CLR M02/M03 A3034 RMK AO2 SLP276 T10221028;EQDQ01+000003PRSWM1Q02    003PRSWM1N01 00070JPWTH 0QNNAA1D0 00000BA1 0 00000GA1U0 99999KA1D0 00027JA1 0-00028LA1 0 00500CA1 0 03034NA1 0 00070QA1 0 10276SA1D0 00028RA1 0-00022YA1 0 00000
0071723240138822000120713009+35033-085200NSRDB+020499999V020999999999999999999999999999+99999+99999999999ADDGP10060000002009000002021000002009GQ100600882911939GR100600017905299
041372324013882200012120653C+35033-085200FM-15+0204CHA  V0203005N00625006105MN0160005N1+00895+00615101785ADDAA101000095GD13995+0061059GD23995+0085359GD34995+0259159GF108991999999999999999999MA1101765999999MW1001REMMET084KCHA 120653Z 30012KT 10SM BKN020 BKN028 OVC085 09/06 A3005 RMK AO2 SLP178 T00890061;EQDQ01+000000PRSWM2N01 00000JPWTH 0QNNAA1D0 04020BA1 0 04020AA1D0 04028BA1 0 04028AA1D0 06085BA1 0 06085GA1 0 00020KA1D0 00043JA1 0 00061LA1 0 01000CA1 0 03005NA1 0 00000QA1 0 10178SA1D0 00048RA1 0 00089YA1 0 30012
0355723240138822000121405534+35030-085190FM-15+0210KCHA V0201801N003610090019N0096561N1+00601+00401102251ADDAA101000391AA206015291GD12991+0039019GD22991+0054019GD34991+0090019GF108991999999999999999999KA1999M+00671KA2999N+00331MA1102241999999MD1710011+9999MW1101REMMET122KCHA 140553Z 18007KT 6SM BR SCT013 SCT018 OVC030 06/04 A3019 RMK AO2 RAE24 SLP225 P0001 60060 T00560044 10067 20033 52000;EQDQ01+000022APCTENQ02+000002APC3  Q03+000003PRSWM1Q04    003PRSWM1
0543723240138822000121406003+35033-085200SY-MT+0204CHA  V0201805N00365009145MN0096005N1+00565+00445102255ADDAA101000395AA206015091GD12995+0039659GD22995+0054959GD34995+0091459GF108991999999004501999999GP10060000002000000002000000002000GR100600000900009KA1240M+00671KA2240N-00211MA1102245099711MW1101MW2455REMSYN104AAXX  14064 72324 11459 81807 10056 20044 39971 40225 52000 60151 710// 90553 333 10067 21021 555 91406;EQDQ01+000022APCTENQ02+000002APC3  N01 00070JPWTH 0QNNAA1D0 02013BA1 0 02013AA1D0 02018BA1 0 02018AA1D0 06030BA1 0 06030GA1 0 00030KA1D0 00040JA1 0 00044LA1 0 00600CA1 0 03019NA1 0 00070QA1 0 10225SA1D0 00042RA1 0 00056YA1 0 18007
036972324013882200012141953C+35033-085200FM-15+0204CHA  V0202805N00365004575MN0160005N1+00895+00565102715ADDAA101000095GD13995+0045759GD23995+0076259GF107991999999999999999999MA1102715999999MW1001REMMET077KCHA 141953Z 28007KT 10SM BKN015 BKN025 09/06 A3033 RMK AO2 SLP271 T00890056;EQDQ01+000000PRSWM2N01 00000JPWTH 0QNNAA1D0 04015BA1 0 04015AA1D0 04025BA1 0 04025GA1 0 00015KA1D0 00042JA1 0 00056LA1 0 01000CA1 0 03033NA1 0 00000QA1 0 10271SA1D0 00048RA1 0 00089YA1 0 28007
0071723240138822000121720009+35033-085200NSRDB+020499999V020999999999999999999999999999+99999+99999999999ADDGP10060041602009075602021008702009GQ100600643920879GR100600612914139
0464723240138822000121812003+35033-085200SY-MT+0204CHA  V0209999C00005220005MN0160005N1-00785-00945102435ADDAA101000095GA1001+999999999GD10995+9999999GF100991001001999999001001GP10060000002000000002000000002000GR100600000900009KA1999M+01001KA2120N-00781MA1102345099811MD1810051+9999REMSYN092AAXX  18124 72324 32966 00000 11078 21094 39981 40243 58005 91153 333 10100 21078 555 91812;EQDQ01  00002PRCP99Q02  00003PRCP99N01 00000JPWTH 0QNNAA1D0 00000BA1 0 00000GA1U0 99999KA1D0 00015JA1 0-00094LA1 0 01000CA1 0 03022NA1 0 00000QA1 0 10243SA1D0 00018RA1 0-00078YA1 0 00000
0147723240138822000121909394+35030-085190FM-16+0210KCHA V0202601N003610093019N0160931N1+00201-00201999999ADDGD14991+0093019GF108991999999999999999999MA1101421999999MW1001REMMET054KCHA 190939Z 26007KT 10SM OVC031 02/M02 A2995 RMK AO2;EQDQ01+000000PRSWM2
0071723240138822000122116009+35033-085200NSRDB+020499999V020999999999999999999999999999+99999+99999999999ADDGP10060006602009000002021006602009GQ100600661914769GR100600573914149
0054723240138822000122402009+35033-085200NSRDB+020499999V020999999999999999999999999999+99999+99999999999ADDGP10060000002000000002000000002000GR100600000900009
030872324013882200012250153C+35033-085200FM-15+0204CHA  V0203505N00415220005MN0160005N1+00225-00505103095ADDAA101000095GF100991999999999999999999MA1103055999999MW1001REMMET068KCHA 250153Z 35008KT 10SM CLR 02/M05 A3043 RMK AO2 SLP309 T00221050;EQDQ01+000000PRSWM2N01 00000JPWTH 0QNNAA1D0 00000BA1 0 00000GA1U0 99999KA1D0 00023JA1 0-00050LA1 0 01000CA1 0 03043NA1 0 00000QA1 0 10309SA1D0 00036RA1 0 00022YA1 0 35008
0071723240138822000122522009+35033-085200NSRDB+020499999V020999999999999999999999999999+99999+99999999999ADDGP10060011902009033402021005902009GQ100600796923169GR100600255914149
033672324013882200012261953C+35033-085200FM-15+0204CHA  V0202405N00155220005MN0160005N1+00225-00565103135ADDAA101000095GD11995+0274359GF102991999999999999999999MA1103085999999MW1001REMMET081KCHA 261953Z 24003KT 10SM FEW090 02/M06 A3044 RMK AO2 SLP313 VIRGA S-W T00221056;EQDQ01+000000PRSWM2N01 00000JPWTH 0QNNAA1D0 02090BA1 0 01090GA1U0 99999KA1D0 00022JA1 0-00056LA1 0 01000CA1 0 03044NA1 0 00000QA1 0 10313SA1D0 00036RA1 0 00022YA1 0 24003
038372324013882200012301053C+35033-085200FM-15+0204CHA  V0203005N00465015245MN0160005N1-00725-01335101865ADDAA101000025GD12995+0118959GD24995+0152459GF108991999999999999999999MA1101795999999MW1001REMMET091KCHA 301053Z 30009KT 10SM SCT039 OVC050 M07/M13 A3006 RMK AO2 SNE14 SLP186 P0000 T10721133;EQDQ01+000000PRSWM2N01 00000JPWTH 0QNNAA1D0 02039BA1 0 02039AA1D0 06050BA1 0 06050GA1 0 00050KA1D0 00008JA1 0-00133LA1 0 01000CA1 0 03006NA1 0 00000QA1 0 10186SA1D0 00019RA1 0-00072YA1 0 30009
0164723246538682000010618005+36017-084233FM-15+0277OQT  V0209995V002159999999N016000599+99999+99999999999ADDGD10995+9999999MA1103185999999EQDN01 00000JALM1 3N02 99999CCLHTU3N03 00000JPWTH 0QNNAA1D0 00000BA1 3 00000GA1U3 99999LA1 0 01000CA1 0 03047NA1 0 00000YA1 0 00004
0315723246538682000010621533+36017-084233FM-15+0277OQT  V0209995V00265220005MN0160005N1+00945-00395102965ADDGF100991999999999999999999MA1102845999999MW1001REMMET086KOQT 062153Z AUTO 27007KT 220V300 10SM CLR 08/M04 A3037 RMK AO2 SLP298 T00831044 TSNO;EQDQ01+000000PRSWM2N01 00000JPWTH 0QNNAA1D0 00000BA1 0 00000GA1U0 99999KA1D0 00025JA1 0-00039LA1 0 01000CA1 0 03037NA1 0 00000QA1 0 10296SA1D0 00049RA1 0 00094YA1 0 00005
0361723246538682000011404533+36017-084233FM-15+0277OQT  V0203305N00365014335MN0160005N1+00225-00565103565ADDGD14995+0143359GF108991999999999999999999KA1999M+01441KA2999N+00171MA1103495999999MW1001REMMET091KOQT 140453Z AUTO 01004KT 10SM OVC049 02/M04 A3057 RMK AO2 SLP358 T00171044 401440017 TSNO;EQDQ01+000000PRSWM2N01 00000JPWTH 0QNNAA1D0 06047BA1 0 06047GA1 0 00047KA1D0 00022JA1 0-00056LA1 0 01000CA1 0 03056NA1 0 00000QA1 0 10356SA1D0 00036RA1 0 00022YA1 0 33007
0308723246538682000011510533+36017-084233FM-15+0277OQT  V0209995C00005220005MN0160005N1-00565-00615103945ADDGF100991999999999999999999MA1103765999999MW1001REMMET079KOQT 151053Z AUTO 00000KT 10SM CLR M06/M07 A3064 RMK AO2 SLP397 T10611067 TSNO;EQDQ01+000000PRSWM2N01 00000JPWTH 0QNNAA1D0 00000BA1 0 00000GA1U0 99999KA1D0 00021JA1 0-00061LA1 0 01000CA1 0 03064NA1 0 00000QA1 0 10394SA1D0 00022RA1 0-00056YA1 0 00000
0193723246538682000011802002+36017-084233FM-15+0277OQT  V0200805N00155021345MN016000599+00565-00895102625ADDGD14995+0213459MA1102515999999MW1615EQDN01 00020JPWTH 0QNNAA1D0 06070BA1 0 06070GA1 0 00070KA1D0 00016JA1 0-00089LA1 0 01000CA1 0 03027NA1 0 00020QA1 0 10262SA1D0 00042RA1 0 00056YA1 0 08003
0209723246538682000011813531+36020-084230FM-15+0277KOQT V0200501N00211000601CN0040231N1+00201+00201101841ADDGD14991+0012099GF108991999999999999999999MA1101731999999MW1101REMMET100KOQT 181353Z AUTO 05004KT 2 1/2SM BR OVC004 02/02 A3004 RMK AO2 CIG 002V007 SLP184 T00220022 TSNO $;EQDQ01+000003PRSWM1Q02    003PRSWM1
0187723246538682000011918002+36017-084233FM-15+0277OQT  V0200705N00215220005MN016000599+00285-00115101965ADDGD10995+9999999MA1101835999999EQDN01 00000JPWTH 0QNNAA1D0 00000BA1 0 00000GA1U0 99999KA1D0 00030JA1 0-00011LA1 0 01000CA1 0 03007NA1 0 00000QA1 0 10196SA1D0 00037RA1 0 00028YA1 0 07004
0224723246538682000012008002+36017-084233FM-15+0277OQT  V0202305N00365007325MN012800599+00445+00445100465ADDGD12995+0051859GD24995+0073259MA1100375999999EQDN01 00000JPWTH 0QNNAA1D0 02017BA1 0 02017AA1D0 06024BA1 0 06024GA1 0 00024KA1D0 00040JA1 0 00044LA1 0 00800CA1 0 02964NA1 0 00000QA1 0 10046SA1D0 00040RA1 0 00044YA1 0 23007
0224723246538682000012013002+36017-084233FM-15+0277OQT  V0209995V00315011285MN016000599+00395-00065100995ADDGD13995+0112859GD24995+0137259MA1100885999999EQDN01 00000JPWTH 0QNNAA1D0 04037BA1 0 04037AA1D0 06045BA1 0 06045GA1 0 00037KA1D0 00031JA1 0-00006LA1 0 01000CA1 0 02979NA1 0 00000QA1 0 10099SA1D0 00039RA1 0 00039YA1 0 00006
0291723246538682000012017531+36020-084230FM-15+0277KOQT V0209999V003110099019N0144841N1+00101-00301101651ADDAA101000021AA206000021GD14991+0099099GF108991999999999999999999KA1999M+00391KA2999N+00061MA1101521999999MD1110171+9999MW1711REMMET120KOQT 201753Z AUTO VRB06KT 9SM -SN OVC033 01/M03 A2998 RMK AO2 SNB26 SLP165 P0000 60000 T00111028 10039 20006 51017 TSNO;EQDQ01+000003PRSWM1Q02    003PRSWM1
0157723246538682000012503531+36020-084230FM-15+0277KOQT V0200701N002112200019N0160931N1-00401-01001101781ADDGF100991999999999999999999MA1101591999999MW1001REMMET079KOQT 250353Z AUTO 07004KT 10SM CLR M04/M10 A3000 RMK AO2 SLP178 T10441100 TSNO;EQDQ01+000000PRSWM2
0344723246538682000020104533+36017-084233FM-15+0277OQT  V0202505N00155220005MN0160005N1-00225-00505102415ADDGF100991999999999999999999KA1999M+00061KA2999N-00331MA1102245999999MW1001REMMET089KOQT 010453Z AUTO 26004KT 10SM CLR M03/M05 A3019 RMK AO2 SLP243 T10281050 400061033 TSNO;EQDQ01+000000PRSWM2N01 00000JPWTH 0QNNAA1D0 00000BA1 0 00000GA1U0 99999KA1D0 00023JA1 0-00050LA1 0 01000CA1 0 03019NA1 0 00000QA1 0 10241SA1D0 00028RA1 0-00022YA1 0 25003
0298723246538682000020215533+36017-084233FM-15+0277OQT  V0209995C00005220005MN0112005N1-00285-00445103265ADDGD10995+9999999MA1103055999999MW1001REMMET080KOQT 021553Z AUTO 00000KT 10SM 00/M07 A3043 RMK AO2 SLP325 T00001067 TSNO PNO $;EQDQ01+000000PRSWM2N01 00000JPWTH 0QNNAA1D0 00000BA1 0 00000GA1U0 99999KA1D0 00024JA1 0-00044LA1 0 00700CA1 0 03043NA1 0 00000QA1 0 10326SA1D0 00027RA1 0-00028YA1 0 00000
0156723246538682000020600531+36020-084230FM-15+0277KOQT V0202901N002612200019N0160931N1+00201-01001103021ADDGF100991999999999999999999MA1102881999999MW1001REMMET078KOQT 060053Z AUTO 29005KT 10SM CLR 02/M10 A3038 RMK AO2 SLP302 T00221100 TSNO;EQDQ01+000000PRSWM2
0156723246538682000020819531+36020-084230FM-15+0277KOQT V0201001N002112200019N0160931N1+01401-00101102631ADDGF100991999999999999999999MA1102571999999MW1001REMMET078KOQT 081953Z AUTO 10004KT 10SM CLR 14/M01 A3029 RMK AO2 SLP263 T01441006 TSNO;EQDQ01+000000PRSWM2
0193723246538682000021015002+36017-084233FM-15+0277OQT  V0209995C00005220005MN006400599+00225+00115101905ADDGD10995+9999999MA1101795999999MW1455EQDN01 00070JPWTH 0QNNAA1D0 00000BA1 0 00000GA1U0 99999KA1D0 00034JA1 0 00011LA1 0 00400CA1 0 03006NA1 0 00070QA1 0 10190SA1D0 00036RA1 0 00022YA1 0 00000
0154723246538682000021121531+36020-084230FM-15+0277KOQT V0200301N002612200019N0128741N1+01701+01001101391ADDGF100991999999999999999999MA1101421999999MW1001REMMET076KOQT 112153Z AUTO 03005KT 8SM CLR 17/10 A2995 RMK AO2 SLP139 T01670100 TSNO;EQDQ01+000000PRSWM2
0187723246538682000021620002+36017-084233FM-15+0277OQT  V0203005N00415220005MN016000599+02115+00565102035ADDGD10995+9999999MA1102075999999EQDN01 00000JPWTH 0QNNAA1D0 00000BA1 0 00000GA1U0 99999KA1D0 00042JA1 0 00056LA1 0 01000CA1 0 03014NA1 0 00000QA1 0 10203SA1D0 00070RA1 0 00211YA1 0 30008
0195723246538682000022412531+36020-084230FM-15+0277KOQT V0209999C000010180019N0160931N1+00701+00301102781ADDGD13991+0180099GD24991+0240099GF108991999999999999999999MA1102741999999MW1001REMMET087KOQT 241253Z AUTO 00000KT 10SM BKN065 OVC080 07/03 A3034 RMK AO2 SLP278 T00720033 TSNO;EQDQ01+000000PRSWM2
0193723246538682000022420531+36020-084230FM-15+0277KOQT V0202101N004110147019N0160931N1+02201+01201102291ADDGD13991+0147099GF107991999999999999999999MA1102301999999MD1610271+9999MW1001REMMET086KOQT 242053Z AUTO 21008KT 10SM BKN049 22/12 A3021 RMK AO2 SLP229 T02170117 56027 TSNO;EQDQ01+000000PRSWM2
0187723246538682000022516005+36017-084233FM-15+0277OQT  V0209995V00155220005MN016000599+01725+01225102665ADDGD10995+9999999MA1102715999999EQDN01 00000JPWTH 0QNNAA1D0 00000BA1 0 00000GA1U0 99999KA1D0 00054JA1 0 00122LA1 0 01000CA1 0 03033NA1 0 00000QA1 0 10266SA1D0 00063RA1 0 00172YA1 0 00003
0340723246538682000022607533+36017-084233FM-15+0277OQT  V0209995C00005220005MN0160005N1+01225+00895102275ADDGD19999+0180099GF104991999999999999999999MA1102345999999MW1001REMMET080KOQT 260753Z AUTO 00000KT 10SM SCT060 13/09 A3023 RMK AO2 SLP229 T01280089 TSNO;EQDQ01+000000PRSWM2N01 00000JPWTH 0P01     03SCCGD1QNNAA1D0 00000BA1 0 00000GA1U0 99999KA1D0 00048JA1 0 00089LA1 0 01000CA1 0 03022NA1 0 00000QA1 0 10227SA1D0 00054RA1 0 00122YA1 0 00000
0209723246538682000022704531+36020-084230FM-15+0277KOQT V0202101N003110270019N0160931N1+01901+00901101871ADDGD14991+0270099GF108991999999999999999999KA1999M+02441KA2999N+01001MA1102001999999MW1001REMMET090KOQT 270453Z AUTO 21006KT 10SM OVC090 19/09 A3012 RMK AO2 SLP187 T01890094 402440100 TSNO;EQDQ01+000000PRSWM2
0175723246538682000030208531+36020-084230FM-15+0277KOQT V0203401N002612200019N0160931N1+00801+00101101951ADDGF100991999999999999999999MA1101961999999MD1010001+9999MW1001REMMET083KOQT 020853Z AUTO 34005KT 10SM CLR 08/01 A3011 RMK AO2 SLP195 T00780006 50000 TSNO;EQDQ01+000000PRSWM2
0187723246538682000030615002+36017-084233FM-15+0277OQT  V0200505N00215220005MN016000599+00725+00395102405ADDGD10995+9999999MA1102405999999EQDN01 00000JPWTH 0QNNAA1D0 00000BA1 0 00000GA1U0 99999KA1D0 00039JA1 0 00039LA1 0 01000CA1 0 03024NA1 0 00000QA1 0 10240SA1D0 00045RA1 0 00072YA1 0 05004
0187723246538682000030705002+36017-084233FM-15+0277OQT  V0209995C00005220005MN016000599+01005+00505102375ADDGD10995+9999999MA1102375999999EQDN01 00000JPWTH 0QNNAA1D0 00000BA1 0 00000GA1U0 99999KA1D0 00041JA1 0 00050LA1 0 01000CA1 0 03023NA1 0 00000QA1 0 10237SA1D0 00050RA1 0 00100YA1 0 00000
0187723246538682000030714002+36017-084233FM-15+0277OQT  V0209995C00005220005MN016000599+00565+00395102745ADDGD10995+9999999MA1102715999999EQDN01 00000JPWTH 0QNNAA1D0 00000BA1 0 00000GA1U0 99999KA1D0 00039JA1 0 00039LA1 0 01000CA1 0 03033NA1 0 00000QA1 0 10274SA1D0 00042RA1 0 00056YA1 0 00000
0155723246538682000031519531+36020-084230FM-15+0277KOQT V0202101N004112200019N0160931N1+01901+00701102051ADDGF100991999999999999999999MA1102071999999MW1001REMMET077KOQT 151953Z AUTO 21008KT 10SM CLR 19/07 A3014 RMK AO2 SLP205 T01940067 TSNO;EQDQ01+000000PRSWM2
0230723246538682000031705002+36017-084233FM-15+0277OQT  V0209995C00005016765MN008000599+01505+01445101095ADDGD13995+0167659GD24995+0228659MA1101125999999MW1455EQDN01 00070JPWTH 0QNNAA1D0 04055BA1 0 04055AA1D0 06075BA1 0 06075GA1 0 00055KA1D0 00058JA1 0 00144LA1 0 00500CA1 0 02986NA1 0 00070QA1 0 10109SA1D0 00059RA1 0 00150YA1 0 00000
0187723246538682000032103002+36017-084233FM-15+0277OQT  V0209995V00215016765MN016000599+01115+00565101825ADDGD14995+0167659MA1101835999999EQDN01 00000JPWTH 0QNNAA1D0 06055BA1 0 06055GA1 0 00055KA1D0 00042JA1 0 00056LA1 0 01000CA1 0 03007NA1 0 00000QA1 0 10182SA1D0 00052RA1 0 00111YA1 0 00004
0187723246538682000032914002+36017-084233FM-15+0277OQT  V0209995C00005220005MN016000599+00285-00115101635ADDGD10995+9999999MA1101565999999EQDN01 00000JPWTH 0QNNAA1D0 00000BA1 0 00000GA1U0 99999KA1D0 00030JA1 0-00011LA1 0 01000CA1 0 02999NA1 0 00000QA1 0 10163SA1D0 00037RA1 0 00028YA1 0 00000
0155723246538682000033110531+36020-084230FM-15+0277KOQT V0209999C000012200019N0160931N1+00601+00301101831ADDGF100991999999999999999999MA1101801999999MW1001REMMET077KOQT 311053Z AUTO 00000KT 10SM CLR 06/03 A3006 RMK AO2 SLP183 T00610028 TSNO;EQDQ01+000000PRSWM2
0187723246538682000040106002+36017-084233FM-15+0277OQT  V0209995C00005220005MN016000599+00835+00395102085ADDGD10995+9999999MA1102105999999EQDN01 00000JPWTH 0QNNAA1D0 00000BA1 0 00000GA1U0 99999KA1D0 00039JA1 0 00039LA1 0 01000CA1 0 03015NA1 0 00000QA1 0 10208SA1D0 00047RA1 0 00083YA1 0 00000
0175723246538682000040120531+36020-084230FM-15+0277KOQT V0201901N003612200019N0160931N1+02401+01001101821ADDGF100991999999999999999999MA1101861999999MD1810281+9999MW1001REMMET083KOQT 012053Z AUTO 19007KT 10SM CLR 24/10 A3008 RMK AO2 SLP182 T02390100 58028 TSNO;EQDQ01+000000PRSWM2
0702723246538682000040404596+36024-084238SOD  +0277KOQT V020999999999999999999999999999+99999+99999999999ADDAA124084695AT1MW16RA  5AT2MW01FG  5AT3MW13BR  1KA1240M+01675KA2240N+01225MG1097739999994OE11240107324018085OE22240071525018085OE33240018399999995REMSOD54524 HR PRECIPITATION (IN): 3.33 24 HR MAX TEMP (F): 6224 HR MAX TEMP TIME (LST):1732 24 HR MIN TEMP (F): 5424 HR MIN TEMP TIME (LST):2317 AVERAGE STATION PRESSURE:28.86  PEAK WIND SPEED (MPH): 24 PEAK WIND DIR (DEG):240 PEAK WIND TIME (LST):1808  FASTEST 2MIN SPEED (MPH): 16FASTEST 2MIN DIR (DEG):250 FASTEST 2MIN TIME (LST):1808 AVERAGE WIND SPEED (MPH): 4.1 24 HR AVG TEMP (F):58 HOURLY INCREMENTAL PRECIPITATION VALUES (IN):.14  .02  .03  .01  .01  .00  .00   T   .02  .03  .06  .06  .25  .22  .84  .40  .21  .50  .24  .06  .04  .06  .08  .07
0155723246538682000041012531+36020-084230FM-15+0277KOQT V0209999C000012200019N0160931N1+00801+00201102581ADDGF100991999999999999999999MA1102571999999MW1001REMMET077KOQT 101253Z AUTO 00000KT 10SM CLR 08/02 A3029 RMK AO2 SLP258 T00780017 TSNO;EQDQ01+000000PRSWM2
0387723246538682000041318533+36017-084233FM-15+0277OQT  V0200605N00415028655MN0080005N1+00895+00895102565ADDAA101000891GD14995+0027459GF108991999999999999999999MA1102545999999MW1101MW2455MW3615REMMET104KOQT 131853Z AUTO 04005KT 4SM -RA BR OVC009 09/09 A3026 RMK AO2 CIG 006V013 SLP251 P0003 T00940094 TSNO;EQDQ01+000003PRSWM1Q02    003PRSWM1N01 02070JPWTH 0QNNAA1D0 06009BA1 0 06009GA1 0 00094KA1D0 00048JA1 0 00089LA1 0 00500CA1 0 03028NA1 0 02070QA1 0 10256SA1D0 00048RA1 0 00089YA1 0 06008
0421723246538682000041523533+36017-084233FM-15+0277OQT  V0201405N00155013415MN0160005N1+02005+01395101565ADDAA106000021GD13995+0134159GD23991+0150099GF107991999999999999999999KA1999M+02061KA2999N+01831MA1101635999999MD1310041+9999MW1001REMMET111KOQT 152353Z AUTO 18004KT 10SM FEW044 BKN055 19/14 A3002 RMK AO2 SLP159 60000 T01940144 10206 20183 53004 TSNO;EQDQ01+000000PRSWM2N01 00000JPWTH 0QNNAA1D0 04044BA1 0 04044GA1 0 00044KA1D0 00057JA1 0 00139LA1 0 01000CA1 0 03001NA1 0 00000QA1 0 10156SA1D0 00068RA1 0 00200YA1 0 14003
0398723246538682000042519533+36017-084233FM-15+0277OQT  V0209995V00315010065MN0160005N1+01395+00945101215ADDGD12995+0073259GD23995+0100659GD34995+0152459GF108991999999999999999999MA1101225999999MW1001REMMET080KOQT 251953Z AUTO VRB05KT 10SM OVC029 13/09 A2991 RMK AO2 SLP130 T01330089 TSNO;EQDQ01+000000PRSWM2N01 00000JPWTH 0QNNAA1D0 02024BA1 0 02024AA1D0 04033BA1 0 04033AA1D0 06050BA1 0 06050GA1 0 00033KA1D0 00049JA1 0 00094LA1 0 01000CA1 0 02989NA1 0 00000QA1 0 10121SA1D0 00057RA1 0 00139YA1 0 00006
0366723246538682000042520533+36017-084233FM-15+0277OQT  V0209995V00265008845MN0160005N1+01335+00895101305ADDGD14995+0088459GD24991+0180099GF108991999999999999999999MA1101295999999MD1110151+9999MW1001REMMET093KOQT 252053Z AUTO VRB05KT 10SM BKN041 OVC060 14/09 A2992 RMK AO2 SLP130 T01390094 51015 TSNO;EQDQ01+000000PRSWM2N01 00000JPWTH 0QNNAA1D0 06029BA1 0 06029GA1 0 00029KA1D0 00048JA1 0 00089LA1 0 01000CA1 0 02991NA1 0 00000QA1 0 10130SA1D0 00056RA1 0 00133YA1 0 00005
0187723246538682000042720002+36017-084233FM-15+0277OQT  V0202505N00365220005MN016000599+02115+00285101265ADDGD10995+9999999MA1101295999999EQDN01 00000JPWTH 0QNNAA1D0 00000BA1 0 00000GA1U0 99999KA1D0 00037JA1 0 00028LA1 0 01000CA1 0 02991NA1 0 00000QA1 0 10126SA1D0 00070RA1 0 00211YA1 0 25007
0359723246538682000050503533+36017-084233FM-15+0277OQT  V0209995C00005220005MN0080005N1+01835+01785102325ADDGD19999+0001599GF109991999999000251999999MA1102405999999MW1455REMMET083KOQT 050353Z AUTO 00000KT 1/4SM FG VV001 18/18 A3025 RMK AO2 SLP234 T01780178 TSNO;EQDQ01+000003PRSWM1Q02    003PRSWM1N01 00070JPWTH 0P01     03SCCGD1QNNAA1D0 00000BA1 0 00000GA1U0 99999KA1D0 00064JA1 0 00178LA1 0 00500CA1 0 03024NA1 0 00070QA1 0 10232SA1D0 00065RA1 0 00183YA1 0 00000
0154723246538682000050707531+36020-084230FM-15+0277KOQT V0209999C000012200019N0112651N1+01701+01601101901ADDGF100991999999999999999999MA1102031999999MW1001REMMET076KOQT 070753Z AUTO 00000KT 7SM CLR 17/16 A3013 RMK AO2 SLP190 T01720161 TSNO;EQDQ01+000000PRSWM2
0155723246538682000051101531+36020-084230FM-15+0277KOQT V0209999C000012200019N0160931N1+01701+01201101501ADDGF100991999999999999999999MA1101591999999MW1001REMMET077KOQT 110153Z AUTO 00000KT 10SM CLR 17/12 A3000 RMK AO2 SLP150 T01670122 TSNO;EQDQ01+000000PRSWM2
0187723246538682000051314002+36017-084233FM-15+0277OQT  V0209995V00155220005MN011200599+02285+01895101175ADDGD10995+9999999MA1101325999999EQDN01 00000JPWTH 0QNNAA1D0 00000BA1 0 00000GA1U0 99999KA1D0 00066JA1 0 00189LA1 0 00700CA1 0 02992NA1 0 00000QA1 0 10117SA1D0 00073RA1 0 00228YA1 0 00003
0187723246538682000051411002+36017-084233FM-15+0277OQT  V0209995V00215220005MN016000599+01335+00675101955ADDGD10995+9999999MA1102075999999EQDN01 00000JPWTH 0QNNAA1D0 00000BA1 0 00000GA1U0 99999KA1D0 00044JA1 0 00067LA1 0 01000CA1 0 03014NA1 0 00000QA1 0 10195SA1D0 00056RA1 0 00133YA1 0 00004
0155723246538682000051421531+36020-084230FM-15+0277KOQT V0209999V002612200019N0160931N1+02301+00401102011ADDGF100991999999999999999999MA1102101999999MW1001REMMET077KOQT 142153Z AUTO VRB05KT 10SM CLR 23/04 A3015 RMK AO2 SLP201 T02280044 TSNO;EQDQ01+000000PRSWM2
0173723246538682000051515531+36020-084230FM-15+0277KOQT V0200701N004612200019N0160931N1+01901+00301102471ADDGD12991+0300099GF102991999999999999999999MA1102541999999MW1001REMMET080KOQT 151553Z AUTO 07009KT 10SM FEW100 19/03 A3028 RMK AO2 SLP247 T01940033 TSNO;EQDQ01+000000PRSWM2
0437723246538682000052001533+36017-084233FM-15+0277OQT  V0209995V00155028965MN0128005N1+02115+02005101595ADDAA101000391GD11995+0128059GD23995+0289659GD34995+0335359GF108991999999999999999999MA1101695999999MW1001REMMET108KOQT 200153Z AUTO VRB03KT 9SM FEW060 SCT080 OVC110 21/20 A3005 RMK AO2 RAB22E53 SLP161 P0001 T02060200 TSNO;EQDQ01+000000PRSWM2N01 00000JPWTH 0QNNAA1D0 02042BA1 0 01042AA1D0 04095BA1 0 04095AA1D0 06110BA1 0 06110GA1 0 00095KA1D0 00068JA1 0 00200LA1 0 00800CA1 0 03003NA1 0 00000QA1 0 10159SA1D0 00070RA1 0 00211YA1 0 00003
0387723246538682000052521533+36017-084233FM-15+0277OQT  V0209995C00005025915MN0160005N1+02285+01945101135ADDAA101000021GD13995+0259159GD24995+0335359GF108991999999999999999999MA1101255999999MW1001REMMET095KOQT 252153Z AUTO 00000KT 10SM OVC065 23/19 A2991 RMK AO2 RAB08E22 SLP117 P0000 T02280194 TSNO;EQDQ01+000000PRSWM2N01 00000JPWTH 0QNNAA1D0 04085BA1 0 04085AA1D0 06110BA1 0 06110GA1 0 00085KA1D0 00067JA1 0 00194LA1 0 01000CA1 0 02990NA1 0 00000QA1 0 10113SA1D0 00073RA1 0 00228YA1 0 00000
0231723246538682000060305531+36020-084230FM-15+0277KOQT V0209999C000012200019N0080461N1+02301+02101101811ADDGF100991999999999999999999KA1999M+02941KA2999N+02281MA1102001999999MD1810031+9999MW1101REMMET097KOQT 030553Z AUTO 00000KT 5SM BR CLR 23/21 A3012 RMK AO2 SLP181 T02280206 10294 20228 58003 TSNO;EQDQ01+000003PRSWM1Q02    003PRSWM1
0384723246538682000060402533+36017-084233FM-15+0277OQT  V0209995C00005220005MN0064005N1+02065+02005101705ADDGD19999+0126099GF104991999999999999999999MA1101835999999MD1310071+9999MW1101MW2455REMMET088KOQT 040253Z AUTO 00000KT 3SM BR SCT042 21/20 A3009 RMK AO2 SLP175 T02060200 53007 TSNO;EQDQ01+000003PRSWM1Q02    003PRSWM1N01 00070JPWTH 0P01     03SCCGD1QNNAA1D0 00000BA1 0 00000GA1U0 99999KA1D0 00068JA1 0 00200LA1 0 00400CA1 0 03007NA1 0 00070QA1 0 10170SA1D0 00069RA1 0 00206YA1 0 00000
0306723246538682000060607533+36017-084233FM-15+0277OQT  V0200105N00155220005MN0160005N1+01565+01335101405ADDGF100991999999999999999999MA1101495999999MW1001REMMET077KOQT 060753Z AUTO VRB05KT 10SM CLR 16/13 A2997 RMK AO2 SLP141 T01560128 TSNO;EQDQ01+000000PRSWM2N01 00000JPWTH 0QNNAA1D0 00000BA1 0 00000GA1U0 99999KA1D0 00056JA1 0 00133LA1 0 01000CA1 0 02997NA1 0 00000QA1 0 10140SA1D0 00060RA1 0 00156YA1 0 01003
0326723246538682000060720533+36017-084233FM-15+0277OQT  V0209995V00215220005MN0160005N1+02505+01115102215ADDGF100991999999999999999999MA1102275999999MD1610201+9999MW1001REMMET083KOQT 072053Z AUTO VRB05KT 10SM CLR 25/10 A3019 RMK AO2 SLP216 T02500100 56020 TSNO;EQDQ01+000000PRSWM2N01 00000JPWTH 0QNNAA1D0 00000BA1 0 00000GA1U0 99999KA1D0 00052JA1 0 00111LA1 0 01000CA1 0 03020NA1 0 00000QA1 0 10221SA1D0 00077RA1 0 00250YA1 0 00004
0193723246538682000061115005+36017-084233FM-15+0277OQT  V0209995C00005220005MN009600599+02565+01895102245ADDGD10995+9999999MA1102405999999MW1055EQDN01 00081JPWTH 0QNNAA1D0 00000BA1 0 00000GA1U0 99999KA1D0 00066JA1 0 00189LA1 0 00600CA1 0 03024NA1 0 00081QA1 0 10224SA1D0 00078RA1 0 00256YA1 0 00000
0195723246538682000061207531+36020-084230FM-15+0277KOQT V0209999C000012200019N0040231N1+02001+01901102061ADDGD12991+0330099GF102991999999999999999999MA1102241999999MW1101REMMET086KOQT 120753Z AUTO 00000KT 2 1/2SM BR FEW110 20/19 A3019 RMK AO2 SLP206 T02000194 TSNO;EQDQ01+000003PRSWM1Q02    003PRSWM1
0173723246538682000061501531+36190-084220FM-15+0277KOQT V0209999C000012200019N0160931N1+02701+01901101441ADDGD12991+0360099GF102991999999999999999999MA1101631999999MW1001REMMET080KOQT 150153Z AUTO 00000KT 10SM FEW120 27/19 A3001 RMK AO2 SLP144 T02720189 TSNO;EQDQ01+000000PRSWM2
0363723246538682000061622533+36017-084233FM-15+0277OQT  V0202205N00315220005MN0160005N1+02505+02175101475ADDAA101000021GD11995+0064059GF199999999999999999999999MA1101635999999MW1001REMMET092KOQT 162253Z AUTO 21005KT 10SM CLR 24/22 A3001 RMK AO2 RAB19E33 SLP149 P0000 T02390217 TSNO;EQDQ01+000000PRSWM2Q02    003SCOTCVN01 00000JPWTH 0QNNAA1D0 02021BA1 0 01021GA1U0 99999KA1D0 00071JA1 0 00217LA1 0 01000CA1 0 03001NA1 0 00000QA1 0 10147SA1D0 00077RA1 0 00250YA1 0 22006
0361723246538682000061714533+36017-084233FM-15+0277OQT  V0209995V00155004275MN0160005N1+02285+02115102065ADDAA103000391GD14995+0042759GF108991999999999999999999MA1102205999999MD1010071+9999MW1001REMMET092KOQT 171453Z AUTO VRB04KT 10SM OVC012 24/22 A3017 RMK AO2 SLP204 60001 T02390217 50007 TSNO;EQDQ01+000000PRSWM2N01 00000JPWTH 0QNNAA1D0 06014BA1 0 06014GA1 0 00014KA1D0 00070JA1 0 00211LA1 0 01000CA1 0 03018NA1 0 00000QA1 0 10206SA1D0 00073RA1 0 00228YA1 0 00003
0405723246538682000061915533+36017-084233FM-15+0277OQT  V0202105N00365007925MN0160005N1+02505+02175102105ADDGD12995+0042759GD22995+0061059GD33995+0079259GF108991999999999999999999MA1102275999999MW1001REMMET087KOQT 191553Z AUTO 22006KT 10SM FEW018 OVC036 25/22 A3021 RMK AO2 SLP216 T02500217 TSNO;EQDQ01+000000PRSWM2N01 00000JPWTH 0QNNAA1D0 02014BA1 0 02014AA1D0 02020BA1 0 02020AA1D0 04026BA1 0 04026GA1 0 00026KA1D0 00071JA1 0 00217LA1 0 01000CA1 0 03020NA1 0 00000QA1 0 10210SA1D0 00077RA1 0 00250YA1 0 21007
0408723246538682000062020533+36017-084233FM-15+0277OQT  V0202605N00315220005MN0160005N1+02895+02175101785ADDAA101000021AA203000021GD11995+0152459GF102991999999999999999999MA1101965999999MD1810131+9999MW1615REMMET112KOQT 202053Z AUTO 22010KT 190V260 10SM FEW100 30/22 A3008 RMK AO2 RAE03 SLP170 P0000 60000 T03000217 58013 TSNO;EQDQ01+000000PRSWM2Q02    003PRSWM1N01 00020JPWTH 0QNNAA1D0 02050BA1 0 01050GA1U0 99999KA1D0 00071JA1 0 00217LA1 0 01000CA1 0 03011NA1 0 00020QA1 0 10178SA1D0 00084RA1 0 00289YA1 0 26006
0418723246538682000062207533+36017-084233FM-15+0277OQT  V0209995V00155008845MN0032005N1+02175+02175101425ADDAA101004191GD14995+0088459GD23991+0210099GD34991+0240099GF108991999999999999999999MA1101595999999MW1101MW2455MW3635REMMET105KOQT 220753Z AUTO 00000KT 4SM RA BR FEW004 BKN070 OVC080 22/22 A2999 RMK AO2 SLP137 P0016 T02170217 TSNO;EQDQ01+000003PRSWM1Q02    003PRSWM1N01 02170JPWTH 0QNNAA1D0 06029BA1 0 06029GA1 0 00029KA1D0 00071JA1 0 00217LA1 0 00200CA1 0 03000NA1 0 02170QA1 0 10142SA1D0 00071RA1 0 00217YA1 0 00003
0155723246538682000062603531+36190-084220FM-15+0277KOQT V0209999V001512200019N0160931N1+02301+02201101681ADDGF100991999999999999999999MA1101831999999MW1001REMMET077KOQT 260353Z AUTO VRB03KT 10SM CLR 23/22 A3007 RMK AO2 SLP168 T02280222 TSNO;EQDQ01+000000PRSWM2
0398723246538682000062722533+36017-084233FM-15+0277OQT  V0209995C00005007325MN0128005N1+02675+02285101585ADDGD12995+0054959GD23995+0073259GD34995+0128059GF102991999999999999999999MA1101735999999MW1001REMMET080KOQT 272253Z AUTO 28003KT 10SM FEW037 27/22 A3004 RMK AO2 SLP157 T02720222 TSNO;EQDQ01+000000PRSWM2N01 00000JPWTH 0QNNAA1D0 02018BA1 0 02018AA1D0 04024BA1 0 04024AA1D0 06042BA1 0 06042GA1 0 00024KA1D0 00073JA1 0 00228LA1 0 00800CA1 0 03004NA1 0 00000QA1 0 10158SA1D0 00080RA1 0 00267YA1 0 00000
0404723246538682000062920533+36017-084233FM-15+0277OQT  V0209995C00005024005MN0160005N1+02725+01675101285ADDGD11995+0137259GD22991+0180099GD33991+0240099GF107991999999999999999999MA1101425999999MD1610121+9999MW1001REMMET100KOQT 292053Z AUTO 00000KT 10SM FEW050 SCT065 BKN080 27/16 A2995 RMK AO2 SLP127 T02670161 56012 TSNO;EQDQ01+000000PRSWM2N01 00000JPWTH 0P01 220003SCOCIGQNNAA1D0 02045BA1 0 01045GA1U0 99999KA1D0 00062JA1 0 00167LA1 0 01000CA1 0 02995NA1 0 00000QA1 0 10128SA1D0 00081RA1 0 00272YA1 0 00000
0187723246538682000070206002+36017-084233FM-15+0277OQT  V0209995C00005220005MN016000599+01835+01725101775ADDGD10995+9999999MA1101905999999EQDN01 00000JPWTH 0QNNAA1D0 00000BA1 0 00000GA1U0 99999KA1D0 00063JA1 0 00172LA1 0 01000CA1 0 03009NA1 0 00000QA1 0 10177SA1D0 00065RA1 0 00183YA1 0 00000
0191723246538682000070304531+36190-084220FM-15+0277KOQT V0209999C000012200019N0160931N1+02101+01801101781ADDGF100991999999999999999999KA1999M+03111KA2999N+01611MA1101961999999MW1001REMMET087KOQT 030453Z AUTO 00000KT 10SM CLR 21/18 A3011 RMK AO2 SLP178 T02110178 403110161 TSNO;EQDQ01+000000PRSWM2
0224723246538682000070606002+36017-084233FM-15+0277OQT  V0202405N00155033535MN016000599+02505+02225101255ADDGD11995+0213459GD23995+0335359MA1101425999999EQDN01 00000JPWTH 0QNNAA1D0 02070BA1 0 01070AA1D0 04110BA1 0 04110GA1 0 00110KA1D0 00072JA1 0 00222LA1 0 01000CA1 0 02995NA1 0 00000QA1 0 10125SA1D0 00077RA1 0 00250YA1 0 24003
0193723246538682000071016002+36017-084233FM-15+0277OQT  V0209995V00265220005MN009600599+03005+02335101595ADDGD10995+9999999MA1101795999999MW1055EQDN01 00081JPWTH 0QNNAA1D0 00000BA1 0 00000GA1U0 99999KA1D0 00074JA1 0 00233LA1 0 00600CA1 0 03006NA1 0 00081QA1 0 10159SA1D0 00086RA1 0 00300YA1 0 00005
0190723246538682000071104531+36190-084220FM-15+0277KOQT V0209999C000012200019N0112651N1+02601+02101101391ADDGF100991999999999999999999KA1999M+03501KA2999N+02331MA1101591999999MW1001REMMET086KOQT 110453Z AUTO 00000KT 7SM CLR 26/21 A3000 RMK AO2 SLP139 T02560211 403500233 TSNO;EQDQ01+000000PRSWM2
0342723246538682000071123531+36190-084220FM-15+0277KOQT V0200601N003110126019N0048281N1+02401+02201101341ADDAA101000591AA206001391GD12991+0093099GD23991+0126099GD34991+0210099GF108991999999999999999999KA1999M+03441KA2999N+02391MA1101491999999MD1310211+9999MW1101MW2631REMMET135KOQT 112353Z AUTO 06006KT 3SM RA BR SCT031 BKN042 OVC075 24/22 A2997 RMK AO2 RAB45 SLP134 P0002 60005 T02390217 10344 20239 53021 TSNO;EQDQ01+000003PRSWM1Q02    003PRSWM1
