0095028690999992000040119004+65970+029180SAO  +0263EFKS V0209999C000012200019N9999999N1+99999+99999999999ADDMW1001REMAWY077EFKS 011920Z AUTO 29009KT 9999 -SN FEW008 SCT014 BKN021 BKN029 M08/M10 Q0993;
0156028690999992000040815004+65970+029180FM-12+0263EFKS V0202201N001012200019N0500001N1+00451-00801102721ADDAY101031AY201031GF101991001001999999001011MD1710081+9999MW1021REMSYN082AAXX  08154 02869 42984 12202 10045 21080 40272 57008 70200 80001 555 60003 738//;
0257028690999992000040918004+65970+029180FM-12+0263EFKS V0202001N001012200019N0500001N1+00181-00811101501ADDAA199000091AJ100989199999999AY101061AY201061GF103991011001017501041021IA1279KA1120M+00541KA2120N-00321MD1610221+9999MW1031REMSYN104AAXX  09184 02869 32784 32002 10018 21081 40150 56022 70300 81042 333 10054 21032 43098 555 61014 745//;EQDQ01  00002PRCP99
0093028690999992000041104204+65970+029180FM-15+0263EFKS V0201001N00051220001CN0099001N1-00201-00401999999ADDMA1100711999999MW1001REMMET041EFKS 110420Z 10001KT CAVOK M02/M04 Q1007;EQDQ01+000000PRSWM2
0162028690999992000041816504+65970+029180FM-15+0263EFKS V0201701N004110300019N0112651N1+00401+00101999999ADDGA1021+012009999GA2071+030009999GF107991999999999999999999MA1101191999999MW1001REMMET052EFKS 181650Z 17008KT 9999 FEW040 BKN100 04/01 Q1012;EQDQ01+000000PRSWM2
0147028690999992000041904504+65970+029180FM-15+0263EFKS V0202101N004610015019N0112651N1+00301+00201999999ADDGA1071+001509999GF107991999999999999999999MA1101081999999MW1001REMMET053EFKS 190450Z 21009KT 180V240 9999 BKN005 03/02 Q1011;EQDQ01+000000PRSWM2
0068028690999992000042112504+65970+029180FM-15+0263EFKS V02099999999992200019N0099001N1+99999+99999999999ADDMW1001REMMET031EFKS 211250Z CAVOK ///// Q////;EQDQ01+000000PRSWM2
0148028690999992000050513504+65970+029180FM-15+0263EFKS V0202901N005712200019N0112651N1+00701-00101999999ADDGA1021+009009999GF104991999999999999999999MA1100001999999MW1001REMMET054EFKS 051350Z 29011KT 260V330 9999 SCT030 07/M01 Q1000;EQDQ01+000000PRSWM2
0156028690999992000051800004+65970+029180FM-12+0263EFKS V0201401N001012200019N0500001N1+00021-00371101621ADDAY121061AY221061GF103991021001017501041021MD1510051+9999MW1011REMSYN082AAXX  18004 02869 42784 31402 10002 21037 40162 55005 70122 82042 555 61012 767//;
0075028690999992000052610004+65970+029180SAO  +0263EFKS V0201201N000512200019N9999999N1+99999+99999999999ADDMW1001REMAWY057EFKS 261020Z AUTO 12012KT 9999 BKN028 BKN040 13/07 Q1001;
0075028690999992000052804004+65970+029180SAO  +0263EFKS V0209999C000012200019N9999999N1+99999+99999999999ADDMW1001REMAWY057EFKS 280350Z AUTO 25002KT 9999 BKN005 BKN007 05/04 Q1008;
0075028690999992000052807004+65970+029180SAO  +0263EFKS V0209999C000012200019N9999999N1+99999+99999999999ADDMW1001REMAWY057EFKS 280650Z AUTO 16007KT 9999 BKN013 BKN018 07/04 Q1008;
0096028690999992000060400004+65970+029180SAO  +0263EFKS V0209999C000012200019N9999999N1+99999+99999999999ADDAA199000021MW1001REMAWY067EFKS 032350Z AUTO 19007KT 9999 DZ FEW007 SCT009 BKN038 03/02 Q0994;
0309028690999992000060512004+65970+029180SY-SA+0263EFKS V0203401N002112200019N0100001N1+00691+00611100931ADDAA199999929AY181061AY221061GF108991081031004501999999MD1310111+9999MW1801REMSYN082AAXX  05124 02869 41460 83404 10069 20061 40093 53011 78082 883// 555 60065 795//;AWY085EFKS 051150Z AUTO 33008KT 280V040 9999 -SHRA FEW009 SCT013 BKN016 BKN037 07/05 Q1008;EQDQ01+000990PRSWM4Q02+000003PRSWM2Q03    003PRSWM1
0156028690999992000060703004+65970+029180FM-12+0263EFKS V0201901N001012200019N0500001N1+00771+00411101711ADDAY101031AY201031GF102991011001017501041021MD1710021+9999MW1031REMSYN082AAXX  07034 02869 42784 21902 10077 20041 40171 57002 70300 81042 555 60060 772//;
0156028690999992000060712004+65970+029180FM-12+0263EFKS V0201401N001010075019N0500001N1+01621+00321101291ADDAY121061AY221061GF107991061021008001001021MD1710141+9999MW1031REMSYN082AAXX  07124 02869 42584 71402 10162 20032 40129 57014 70322 86202 555 60098 736//;
0091028690999992000070717504+65970+029180FM-15+0263EFKS V0200501N00151220001CN0099001N1+01501+00501999999ADDMA1100911999999MW1001REMMET039EFKS 071750Z 05003KT CAVOK 15/05 Q1009;EQDQ01+000000PRSWM2
0147028690999992000071510504+65970+029180FM-15+0263EFKS V0200901N002110051019N0112651N1+01701+01301999999ADDGA1071+005109999GF107991999999999999999999MA1101021999999MW1001REMMET053EFKS 151050Z 09004KT 040V140 9999 BKN017 17/13 Q1010;EQDQ01+000000PRSWM2
0096028690999992000080220004+65970+029180SAO  +0263EFKS V0209999C000012200019N9999999N1+99999+99999999999ADDMW1001REMAWY078EFKS 021950Z AUTO 09006KT 050V140 9999 -SHRA FEW015 BKN024 BKN048 09/07 Q1015;
0090028690999992000080223004+65970+029180SAO  +0263EFKS V0209999C000012200019N9999999N1+99999+99999999999ADDMW1001REMAWY072EFKS 022250Z AUTO 08006KT 030V110 9999 FEW013 BKN017 BKN048 09/08 Q1014;
0147028690999992000080308504+65970+029180FM-15+0263EFKS V0201001N004110069019N0112651N1+01201+00601999999ADDGA1071+006909999GF107991999999999999999999MA1101391999999MW1001REMMET053EFKS 030850Z 10008KT 050V150 9999 BKN023 12/06 Q1014;EQDQ01+000000PRSWM2
0256028690999992000080812004+65970+029180SY-SA+0263EFKS V0201201N002112200019N0500001N1+01621+00721999999ADDAA199999999GF101991011999012501999999MD1710061+9999MW1001REMSYN088AAXX  08124 02869 4/684 11204 10162 20072 57006 70000 81/// 91151 555 755// 81250 0/008;AWY058EFKS 081150Z AUTO 12009KT 090V150 9999 FEW041 16/07 Q1000;EQDQ01+000990PRSWM4Q02  99992PRCP99
0071028690999992000080901004+65970+029180SAO  +0263EFKS V0209999C000019999999N9999999N1+99999+99999999999ADDMW1001REMAWY053EFKS 090050Z AUTO 07001KT 0150 FG OVC001 08/07 Q1000;
0083028690999992000081613004+65970+029180SAO  +0263EFKS V0209999C000019999999N9999999N1+99999+99999999999ADDMW1001REMAWY065EFKS 161250Z AUTO 08007KT 040V110 9999 FEW020 OVC029 13/08 Q1007;
0170028690999992000082108504+65970+029180FM-15+0263EFKS V0201001N004110138019N0112651N1+01101+00501999999ADDGA1021+008409999GA2071+013809999GF107991999999999999999999MA1101081999999MW1001REMMET060EFKS 210850Z 10008KT 070V130 9999 FEW028 BKN046 11/05 Q1011;EQDQ01+000000PRSWM2
0242028690999992000082115004+65970+029180SY-SA+0263EFKS V0200801N001012200019N0500001N1+01321+00811101081ADDGF107991071999008001999999MD1710051+9999MW1001REMSYN094AAXX  21154 02869 4/584 70802 10132 20081 40108 57005 70000 87/// 91451 555 771// 80945 0/004;AWY065EFKS 211450Z AUTO 07005KT 030V140 9999 FEW031 BKN050 13/08 Q1010;EQDQ01+000990PRSWM4
0146028690999992000082500004+65970+029180FM-12+0263EFKS V0209999C000019999999N0250001N1+01061+00921100651ADDGF107991011999017501999999MD1210051+9999REMSYN094AAXX  25004 02869 4/775 70000 10106 20092 40065 52005 70000 81/// 92351 555 791// 81830 0/001;
0198028690999992000082518004+65970+029180FM-12+0263EFKS V0209999C000012200019N0500001N1+01061+00901101411ADDGA1001+999999999GF100991001001999999001001KA1120M+01551KA2120N+01031MD1210141+9999REMSYN104AAXX  25184 02869 4/984 00000 10106 20090 40141 52014 70060 80/// 91751 333 10155 20103 555 790// 0/002;
0170028690999992000083111204+65970+029180FM-15+0263EFKS V0201801N005110240019N0112651N1+01701+01001999999ADDGA1021+010209999GA2071+024009999GF107991999999999999999999MA1101081999999MW1001REMMET060EFKS 311120Z 18010KT 140V210 9999 FEW034 BKN086 17/10 Q1011;EQDQ01+000000PRSWM2
0079028690999992000091812504+65970+029180SAO  +0263EFKS V0202301N000519999999N9999999N1+99999+99999999999ADDMW1001REMAWY061EFKS 181250Z AUTO 23014G24KT 210V270 9999 FEW037 13/05 Q1013;
0147028690999992000091818504+65970+029180FM-15+0263EFKS V0202501N005712200019N0112651N1+00901+00501999999ADDGA1021+006309999GF104991999999999999999999MA1101391999999MW1001REMMET053EFKS 181850Z 25011KT 210V300 9999 SCT021 09/05 Q1014;EQDQ01+000000PRSWM2
0083028690999992000091901504+65970+029180SAO  +0263EFKS V0209999C000019999999N9999999N1+99999+99999999999ADDMW1001REMAWY065EFKS 190150Z AUTO 24008KT 200V280 9999 FEW014 OVC045 09/06 Q1015;
0071028690999992000092201504+65970+029180SAO  +0263EFKS V0209999C000019999999N9999999N1+99999+99999999999ADDMW1001REMAWY053EFKS 220150Z AUTO 28003KT 0350 FG OVC001 04/03 Q1029;
0146028690999992000092215004+65970+029180FM-12+0263EFKS V0202301N001019999999N0250001N1+00761+00571103211ADDGF108991081999002501999999MD1710031+9999REMSYN094AAXX  22154 02869 4/375 82302 10076 20057 40321 57003 70000 88/// 91451 555 788// 80244 0/005;
0068028690999992000092500504+65970+029180SAO  +0263EFKS V0209999C000012200019N9999999N1+99999+99999999999ADDMW1001REMAWY050EFKS 250050Z AUTO 30007KT 9999 SCT048 08/06 Q1018;
0188028690999992000092618004+65970+029180FM-12+0263EFKS V0202801N000519999999N0500001N1+00471+00211102671ADDGF108991081999012501999999KA1120M+00781KA2120N+00011MD1710071+9999REMSYN110AAXX  26184 02869 4/684 82801 10047 20021 40267 57007 70000 88/// 91751 333 10078 20001 555 783// 81037 0/003;
0068028690999992000092703504+65970+029180SAO  +0263EFKS V0209999C000019999999N9999999N1+99999+99999999999ADDMW1001REMAWY050EFKS 270350Z AUTO 00000KT 9999 OVC040 02/01 Q1023;
0081028690999992000092919504+65970+029180SAO  +0263EFKS V0209999C000012200019N9999999N1+99999+99999999999ADDMW1001REMAWY063EFKS 291950Z AUTO 22007KT 3200 -SHRA BKN023 OVC030 09/09 Q1012;
0113028690999992000101111504+65970+029180SAO  +0263EFKS V0201701N000512200019N9999999N1+99999+99999999999ADDAA199000091MW1001REMAWY065EFKS 111150Z AUTO 17012KT 110V240 9999 BKN022 BKN055 07/03 Q1023;EQDQ01  00002PRCP99
0157028690999992000101314504+65970+029180FM-15+0263EFKS V0201501N00511000151CN0015001N1+00601+00501999999ADDGA1091+000159999GF109991999999000251999999MA1101391999999MW1101REMMET047EFKS 131450Z 15010KT 1500 BR VV002 06/05 Q1014;EQDQ01+000003PRSWM1Q02    003PRSWM1
0146028690999992000101321004+65970+029180FM-12+0263EFKS V0201601N002619999999N0100001N1+00751+00691101181ADDGF107991071999001501999999MD1710161+9999REMSYN094AAXX  13214 02869 4/260 71605 10075 20069 40118 57016 70021 87/// 92051 555 796// 80183 0/009;
0071028690999992000101620504+65970+029180SAO  +0263EFKS V0209999C000019999999N9999999N1+99999+99999999999ADDMW1001REMAWY053EFKS 162050Z AUTO 21005KT 2100 BR OVC001 04/03 Q1029;
0085028690999992000102810504+65970+029180SAO  +0263EFKS V0209999C000012200019N9999999N1+99999+99999999999ADDMW1001REMAWY067EFKS 281050Z AUTO 35006KT 310V040 9999 FEW042 BKN049 M03/M05 Q1013;
0096028690999992000103122504+65970+029180SAO  +0263EFKS V0209999C000012200019N9999999N1+99999+99999999999ADDMW1001REMAWY078EFKS 312250Z AUTO 10009KT 060V130 9999 -SN FEW009 BKN011 OVC028 M04/M06 Q1002;
0098028690999992000111223504+65970+029180SAO  +0263EFKS V0209999C000019999999N9999999N1+99999+99999999999ADDAA199000091MW1001REMAWY050EFKS 122350Z AUTO 13005KT 5000 OVC003 01/01 Q1015;EQDQ01  00002PRCP99
0105028690999992000111400204+65970+029180SAO  +0263EFKS V0201201N000512200019N9999999N1+99999+99999999999ADDAA199000091MW1001REMAWY057EFKS 140020Z AUTO 12011KT 9999 FEW007 BKN009 01/00 Q1011;EQDQ01  00002PRCP99
0172028690999992000111610504+65970+029180FM-15+0263EFKS V0203401N002610039019N0112651N1-00101-00301999999ADDGA1021+003309999GA2071+003909999GF107991999999999999999999MA1100811999999MW1001REMMET062EFKS 161050Z 34005KT 290V040 9999 FEW011 BKN013 M01/M03 Q1008;EQDQ01+000000PRSWM2
0146028690999992000111815004+65970+029180FM-12+0263EFKS V0209999C000019999999N0080001N1-00491-00541102201ADDGF108991081999000751999999MD1710101+9999REMSYN094AAXX  18154 02869 4/158 80000 11049 21054 40220 57010 70082 88/// 91451 555 796// 80091 0/002;
0071028690999992000112501504+65970+029180SAO  +0263EFKS V0209999C000019999999N9999999N1+99999+99999999999ADDMW1001REMAWY053EFKS 250150Z AUTO 18005KT 0450 FG OVC001 01/01 Q1016;
0183028690999992000112708504+65970+029180FM-15+0263EFKS V0202201N000510003019N0040001N1-00201-00201999999ADDGA1071+000309999GA2081+001809999GF108991999999999999999999MA1101691999999MW1101REMMET057EFKS 270850Z 22001KT 4000 BR BKN001 OVC006 M02/M02 Q1017;EQDQ01+000003PRSWM1Q02    003PRSWM1
0146028690999992000112900004+65970+029180FM-12+0263EFKS V0201801N000519999999N0048001N1-00581-00631101211ADDGF108991081999001501999999MD1710181+9999REMSYN094AAXX  29004 02869 4/248 81801 11058 21063 40121 57018 77110 88/// 92351 555 796// 80122 0/004;
0088028690999992000120122204+65970+029180SAO  +0263EFKS V0209999C000012200019N9999999N1+99999+99999999999ADDMW1001REMAWY070EFKS 012220Z AUTO 10003KT 9999 -SN FEW035 BKN065 OVC090 M04/M05 Q1009;
0099028690999992000120200204+65970+029180SAO  +0263EFKS V0209999C000012200019N9999999N1+99999+99999999999ADDAA199000021MW1001REMAWY070EFKS 020020Z AUTO 11001KT 6000 -SN FEW040 BKN080 OVC095 M05/M06 Q1009;
0167028690999992000121609504+65970+029180FM-15+0263EFKS V0201001N001010003019N0010001N1-00201-00201999999ADDGA1081+000309999GF108991999999999999999999MA1100411999999MW1481REMMET057EFKS 160950Z AUTO 10002KT 1000 FZFG OVC001 M02/M02 Q1004;EQDQ01+000003PRSWM1Q02    003PRSWM1
0197028690999992000122223504+65970+029180FM-15+0263EFKS V0200901N003110042019N0112651N1-00701-00801999999ADDGA1021+003009999GA2081+004209999GF108991999999999999999999MA1099701999999MW1771REMMET071EFKS 222350Z AUTO 09006KT 060V130 9999 -SG FEW010 OVC014 M07/M08 Q0997;EQDQ01+000003PRSWM1Q02    003PRSWM1
0169028690999992000122703504+65970+029180FM-15+0263EFKS V0200401N000510003019N0112651N1-03301-03601999999ADDGA1071+000309999GA2081+001209999GF108991999999999999999999MA1100511999999MW1001REMMET059EFKS 270350Z AUTO 04001KT 9999 BKN001 OVC004 M33/M36 Q1005;EQDQ01+000000PRSWM2
0101028690999992000122817504+65970+029180FM-15+0263EFKS V0200801N00261220001CN0099001N1-02001-02201999999ADDMA1101081999999MW1001REMMET049EFKS 281750Z 08005KT 040V110 CAVOK M20/M22 Q1011;EQDQ01+000000PRSWM2
0161028690999992000123004504+65970+029180FM-15+0263EFKS V0201201N005710015019N0040001N1-01001-01101999999ADDGA1081+001509999GF108991999999999999999999MA1099801999999MW1711REMMET051EFKS 300450Z 12011KT 4000 -SN OVC005 M10/M11 Q0998;EQDQ01+000003PRSWM1Q02    003PRSWM1
0244028740999992000011218004+65030+024800FM-12+0006EFHL V0202201N003110042019N0200001N1+00121-00031099901ADDAA112002091AJ100509199999999AY121061AY221061GF107991071061004501001001IA1279KA1120M+00121KA2120N-00081MD1710151+9999MW1011REMSYN110AAXX  12184 02874 12470 72206 10012 21003 49990 57015 60022 70122 87600 333 10012 21008 43050 555 60006 785/6;
0156028740999992000021309004+65030+024800FM-12+0006EFHL V0201601N002610042019N0200001N1+00241-00061099291ADDAY161031AY221031GF108991081061004501999999MD1710061+9999MW1021REMSYN082AAXX  13094 02874 41470 81605 10024 21006 49929 57006 70262 886// 555 60012 778//;
0156028740999992000021715004+65030+024800FM-12+0006EFHL V0201001N001010042019N0005001N1-00341-00381100101ADDAY171031AY221031GF108991081071004501999999MD1310031+9999MW1731REMSYN082AAXX  17154 02874 41405 81002 11034 21038 40010 53003 77372 887// 555 61034 797//;
0156028740999992000030515004+65030+024800FM-12+0006EFHL V0200101N002112200019N0300001N1-00761-01081100861ADDAY101031AY201031GF104991041001022501041001MD1210301+9999MW1021REMSYN082AAXX  05154 02874 42880 40104 11076 21108 40086 52030 70200 84040 555 61082 775//;
0156028740999992000031509004+65030+024800FM-12+0006EFHL V0202601N002112200019N0300001N1-00561-00761099731ADDAY101031AY201031GF101991011001022501041001MD1210181+9999MW1011REMSYN082AAXX  15094 02874 42880 12604 11056 21076 49973 52018 70100 81040 555 61060 784//;
0156028740999992000040603004+65030+024800FM-12+0006EFHL V0202201N004110042019N0008001N1-00401-00451098881ADDAY171031AY221031GF108991081071004501999999MD1010051+9999MW1711REMSYN082AAXX  06034 02874 41408 82208 11040 21045 49888 50005 77172 887// 555 61040 795//;
0262028740999992000041506004+65030+024800FM-12+0006EFHL V0200101N001010042019N0010001N1+00101+00101099341ADDAA112000191AJ100409199999999AY121061AY221061GF108991081061004501999999IA1279IA2999+00009KA1120M+00161KA2120N+00081MD1310121+9999MW1101REMSYN116AAXX  15064 02874 11410 80102 10010 20010 49934 53012 69922 71022 886// 333 10016 20008 3/000 43040 555 60010 70042;
0156028740999992000042309004+65030+024800FM-12+0006EFHL V0201201N001012200019N0300001N1+00501-00211101991ADDAY101031AY201031GF102991011001022501041041MD1210041+9999MW1021REMSYN082AAXX  23094 02874 42880 21202 10050 21021 40199 52004 70200 81044 555 60022 758//;
0156028740999992000061412004+65300+024790FM-12+0006EFHL V0202301N003610120019N0300001N1+01061+00391099421ADDAY111061AY211061GF106991051051012501041001MD1210101+9999MW1031REMSYN082AAXX  14124 02874 42680 62307 10106 20039 49942 52010 70311 85540 555 60074 758//;
0252028740999992000071106004+65300+024790FM-12+0006EFHL V0202301N001012200019N0300001N1+01521+01211100661ADDAA199000091AY101061AY201061GF101991001001999999001011IA1019IA2999+00309KA1120M+01521KA2120N+00621MD1210111+9999MW1031REMSYN104AAXX  11064 02874 32980 12302 10152 20121 40066 52011 70300 80001 333 10152 20062 30003 555 60134 7770/;EQDQ01  00002PRCP99
0156028740999992000071215004+65300+024790FM-12+0006EFHL V0200601N001010042019N0100001N1+01761+01471100671ADDAY161031AY221031GF108991081061004501999999MD1710091+9999MW1601REMSYN082AAXX  12154 02874 41460 80602 10176 20147 40067 57009 76062 886// 555 60158 782//;
0156028740999992000071315004+65300+024790FM-12+0006EFHL V0200901N001010042019N0080001N1+02301+01651099761ADDAY191031AY221031GF107991071031004501001001MD1710151+9999MW1951REMSYN082AAXX  13154 02874 41458 70902 10230 20165 49976 57015 79592 87300 555 60188 762//;
0156028740999992000072115004+65020+024790FM-12+0006EFHL V0203101N002110750019N0300001N1+01961+01301102171ADDAY121031AY221031GF107991021001022501041051MD1710091+9999MW1031REMSYN082AAXX  21154 02874 42880 73104 10196 20130 40217 57009 70322 82045 555 60156 761//;
0156028740999992000080203004+65020+024790FM-12+0006EFHL V0209999C000012200019N0300001N1+01201+01161101231ADDAY111031AY211031GF102991011001022501041011MD1210041+9999MW1011REMSYN082AAXX  02034 02874 42880 20000 10120 20116 40123 52004 70111 81041 555 60118 798//;
0156028740999992000081109004+65020+024790FM-12+0006EFHL V0202801N000510300019N0300001N1+01621+00941100971ADDAY111031AY211031GF107991041051012501041001MD1210051+9999MW1031REMSYN082AAXX  11094 02874 42680 72801 10162 20094 40097 52005 70311 84540 555 60124 755//;
0156028740999992000081312004+65020+024790FM-12+0006EFHL V0203101N001012200019N0300001N1+01741+00961101751ADDAY111061AY211061GF103991011021004501001011MD1210061+9999MW1011REMSYN082AAXX  13124 02874 42480 33102 10174 20096 40175 52006 70111 81201 555 60130 752//;
0156028740999992000082209004+65020+024790FM-12+0006EFHL V0200701N001510042019N0100001N1+01321+01291100661ADDAY161031AY221031GF108991081071004501999999MD1410001+9999MW1021REMSYN082AAXX  22094 02874 41460 80703 10132 20129 40066 54000 70262 887// 555 60130 798//;
0252028740999992000082706004+65020+024790FM-12+0006EFHL V0202201N002610042019N0200001N1+01381+01311102211ADDAA199000091AY121061AY221061GF107991071061004501001001IA1019IA2999+01109KA1120M+01381KA2120N+01321MD1210021+9999MW1011REMSYN104AAXX  27064 02874 32470 72205 10138 20131 40221 52002 70122 87600 333 10138 20132 30011 555 60134 7954/;EQDQ01  00002PRCP99
0156028740999992000092012004+65020+024790FM-12+0006EFHL V0200501N001012200019N0300001N1+01001-00011102911ADDAY111061AY211061GF103991011001022501041011MD1210031+9999MW1011REMSYN082AAXX  20124 02874 42880 30502 10100 21001 40291 52003 70111 81041 555 60056 745//;
0156028740999992000092715004+65020+024790FM-12+0006EFHL V0202201N001012200019N0300001N1+01121+00731102181ADDAY101031AY201031GF101991011001022501041001MD1710161+9999MW1011REMSYN082AAXX  27154 02874 42880 12202 10112 20073 40218 57016 70100 81040 555 60092 774//;
0156028740999992000100409004+65020+024790FM-12+0006EFHL V0200701N001010042019N0008001N1+01061+01041101911ADDAY141031AY221031GF108991081061004501999999MD1210071+9999MW1461REMSYN082AAXX  04094 02874 41408 80702 10106 20104 40191 52007 74642 886// 555 60105 799//;
0240028740999992000100818004+65020+024790FM-12+0006EFHL V0201401N001510120019N0200001N1+01121+00901102491ADDAA199000091AY121061AY221061GF107991071051012501001001IA1019KA1120M+01181KA2120N+00941MD1710081+9999MW1021REMSYN104AAXX  08184 02874 32670 71403 10112 20090 40249 57008 70222 87500 333 10118 20094 30/// 555 60100 781//;EQDQ01  00002PRCP99
0227028740999992000121418004+65020+024790FM-12+0006EFHL V0201301N001510042019N0100001N1+00161+00111099181ADDAA112000391AY161061AY221061GF108991081071004501999999IA1099KA1120M+00181KA2120N+00061MD1210011+9999MW1611REMSYN110AAXX  14184 02874 11460 81303 10016 20011 49918 52001 69932 76162 887// 333 10018 20006 31/// 555 60014 796/3;
0167028750999992000010500504+64930+025370FM-15+0015EFOU V0201401N001010006019N0020001N1-00201-00301999999ADDGA1081+000609999GF108991999999999999999999MA1098821999999MW1101REMMET057EFOU 0050Z 14002KT 2000 BR OVC002 M02/M03 Q0988 12490342;EQDQ01+000003PRSWM1Q02    003PRSWM1
0202028750999992000010501504+64930+025370FM-15+0015EFOU V0201201N00051000151CN0008001N1-00201-00201999999ADDED199U14009GA1091+000159999GF109991999999000251999999MA1098921999999MW1451REMMET081EFOU 0150Z 12001KT 0800 R12/1400D R30/1000V1400D FG VV001 M02/M02 Q0989 12490342;EQDQ01+000003PRSWM1Q02    003PRSWM1
0206028750999992000010600504+64930+025370FM-15+0015EFOU V0201401N00311000151CN0012001N1-00701-00801999999ADDED199U15009GA1091+000159999GF109991999999000251999999MA1100611999999MW1451REMMET085EFOU 0050Z 14006KT 1200 R12/P1500N R30/P1500N FG OVC001 VV002 M07/M08 Q1006 1219//95;EQDQ01+000003PRSWM1Q02    003PRSWM1
0220028750999992000010707504+64930+025370FM-15+0015EFOU V0202401N004110033019N0060001N1+00101+00101999999ADDGA1021+002109999GA2071+003309999GA3071+006009999GF107991999999999999999999MA1098711999999MW1611REMMET078EFOU 0750Z 24008KT 210V300 6000 -RA SCT007 BKN011 BKN020 01/01 Q0987 12290195;EQDQ01+000003PRSWM1Q02    003PRSWM1
0110028750999992000010901504+64930+025370FM-15+0015EFOU V0202301N00931220001CN0099001N1+00301-00101999999ADDMA1098611999999MW1001OC101441REMMET050EFOU 0150Z 23018G28KT CAVOK 03/M01 Q0986 12390172;EQDQ01+000000PRSWM2
0100028750999992000011510504+64930+025370FM-15+0015EFOU V0202201N00261220001CN0099001N1-00501-00501999999ADDMA1101081999999MW1001REMMET048EFOU 1050Z 22005KT CAVOK M05/M05 Q1011 12390138;EQDQ01+000000PRSWM2
0102028750999992000012218474+64930+025370FM-15+0015EFOU V0202601N00101220001CN0099001N1-02101-02401999999ADDMA1100611999999MW1001REMMET050EFOU 221847Z 26002KT CAVOK M21/M24 Q1006 30390252;EQDQ01+000000PRSWM2
0262028750999992000012506004+64930+025370FM-12+0015EFOU V0201701N002110042019N0018001N1-00771-00881100461ADDAA112001091AJ100469199999999AY171061AY221061GF108991081051004501999999IA1239IA2999-02209KA1120M-00761KA2120N-02211MD1719999+9999MW1731REMSYN116AAXX  25064 02875 11418 81704 11077 21088 40046 57/// 60012 77372 885// 333 11076 21221 3/122 47046 555 79213 80360;
0275028750999992000012806004+64930+025370FM-12+0015EFOU V0201801N000512200019N0400001N1-01671-01831098711ADDAA199000091AJ100479199999999AY111061AY211061GF101991011001022501041001IA1239IA2999-02009KA1120M-01021KA2120N-01681MD1719999+9999MW1021REMSYN110AAXX  28064 02875 32882 11801 11167 21183 49871 57/// 70211 81040 333 11102 21168 3/120 47047 555 7875/ 82100;EQDQ01  00002PRCP99
0171028750999992000013106494+64930+025370FM-15+0015EFOU V0202901N008712200019N0112651N1-00801-01301999999ADDGA1021+012009999GF102991999999999999999999MA1097701999999MW1361REMMET061EFOU 310649Z 29017KT 9999 DRSN FEW040 M08/M13 Q0977 30390158;EQDQ01+000003PRSWM1Q02    003PRSWM1
0198028750999992000020318004+64930+025370FM-12+0015EFOU V0202801N001012200019N0500001N1-00921-01161100281ADDGA1001+999999999GF100991001001999999001001KA1120M-00771KA2120N-01431MD1210251+9999REMSYN104AAXX  03184 02875 4/984 02802 11092 21116 40028 52025 70000 80/// 91747 333 11077 21143 555 783// 0/007;
0102028750999992000021005504+64930+025370FM-15+0015EFOU V0202101N00311220001CN0099001N1-00801-00901999999ADDMA1099701999999MW1001REMMET050EFOU 100550Z 21006KT CAVOK M08/M09 Q0997 12350139;EQDQ01+000000PRSWM2
0180028750999992000021301504+64930+025370FM-15+0015EFOU V0201601N005710063019N0112651N1+00201+00001999999ADDGA1071+006309999GA2071+015009999GF107991999999999999999999MA1099591999999MW1001REMMET070EFOU 130150Z 16011KT 130V190 9999 BKN021 BKN055 02/M00 Q0996 1219//95;EQDQ01+000000PRSWM2
0188028750999992000021518004+64930+025370FM-12+0015EFOU V0201601N001019999999N0150001N1-00651-00721099971ADDGF108991081999001501999999KA1120M-00511KA2120N-01091MD1410001+9999REMSYN110AAXX  15184 02875 4/265 81602 11065 21072 49997 54000 70077 88/// 91751 333 11051 21109 555 795// 80122 0/405;
0146028750999992000022100004+64930+025370FM-12+0015EFOU V0201801N000519999999N0009001N1-01511-01651101871ADDGF108991081999000251999999MD1210071+9999REMSYN094AAXX  21004 02875 4/009 81801 11151 21165 40187 52007 77277 88/// 92351 555 789// 80030 0/003;
0156028750999992000022412004+64930+025370FM-12+0015EFOU V0201301N001512200019N0250001N1-01181-01341102041ADDGA1001+999999999GF100991001001999999001001MD1710161+9999REMSYN088AAXX  24124 02875 4/975 01303 11118 21134 40204 57016 70087 80/// 91151 555 788// 0/006;
0146028750999992000022621004+64930+025370FM-12+0015EFOU V0201601N002119999999N0450001N1-00921-01161101571ADDGF108991081999008001999999MD1710101+9999REMSYN094AAXX  26214 02875 4/583 81604 11092 21116 40157 57010 70000 88/// 92051 555 783// 80884 0/506;
0158028750999992000022621504+64930+025370FM-15+0015EFOU V0201701N003110090019N0112651N1-00901-01101999999ADDGA1071+009009999GF107991999999999999999999MA1101491999999MW1001REMMET064EFOU 262150Z 17006KT 140V200 9999 BKN030 M09/M11 Q1015 1209//95;EQDQ01+000000PRSWM2
0225028750999992000022707504+64930+025370FM-15+0015EFOU V0201601N004110048019N0013001N1-00601-00601999999ADDED199U15009GA1021+002109999GA2071+004809999GF107991999999999999999999MA1100511999999MW1731REMMET088EFOU 270650Z 16008KT 1300 R12/P1500N R30/P1500D SN SCT007 BKN016 M06/M06 Q1005 1209//46;EQDQ01+000003PRSWM1Q02    003PRSWM1
0180028750999992000022810504+64930+025370FM-15+0015EFOU V0202301N005710600019N0112651N1+00201-00101999999ADDGA1021+006009999GA2071+060009999GF107991999999999999999999MA1098511999999MW1001REMMET070EFOU 281050Z 23011KT 210V270 9999 FEW020 BKN200 02/M01 Q0985 3029//52;EQDQ01+000000PRSWM2
0223028750999992000030105504+64930+025370FM-15+0015EFOU V0201801N003610045019N0112651N1+00101+00001999999ADDGA1021+003609999GA2071+004509999GA3071+005709999GF107991999999999999999999MA1098711999999MW1611REMMET081EFOU 010550Z 18007KT 150V210 9999 -RA FEW012 BKN015 BKN019 01/M00 Q0987 1249//33;EQDQ01+000003PRSWM1Q02    003PRSWM1
0192028750999992000030204504+64930+025370FM-15+0015EFOU V0203201N003610006019N0015001N1-00101-00101999999ADDGA1071+000609999GA2071+001509999GF107991999999999999999999MA1097291999999MW1731REMMET066EFOU 020450Z 32007KT 1500 SN BKN002 BKN005 M01/M01 Q0973 12550429;EQDQ01+000003PRSWM1Q02    003PRSWM1
0215028750999992000030406504+64930+025370FM-15+0015EFOU V0200301N004610069019N0023001N1-00501-00601999999ADDGA1021+003909999GA2071+006909999GA3081+009009999GF108991999999999999999999MA1097291999999MW1731REMMET073EFOU 040650Z 03009KT 2300 SN FEW013 BKN023 OVC030 M05/M06 Q0973 12451044;EQDQ01+000003PRSWM1Q02    003PRSWM1
0173028750999992000030612504+64930+025370FM-15+0015EFOU V0201201N006210600019N0112651N1-00801-01101999999ADDGA1021+012009999GA2081+060009999GF108991999999999999999999MA1099291999999MW1001REMMET063EFOU 061250Z 12012KT 9999 FEW040 OVC200 M08/M11 Q0993 1239//66;EQDQ01+000000PRSWM2
0196028750999992000030701504+64930+025370FM-15+0015EFOU V0200201N000510054019N0112651N1-00701-00801999999ADDGA1021+003609999GA2071+005409999GA3071+009009999GF107991999999999999999999MA1097391999999MW1001REMMET070EFOU 070150Z 02001KT 9999 SCT012 BKN018 BKN030 M07/M08 Q0974 12450254;EQDQ01+000000PRSWM2
0150028750999992000031112504+64930+025370FM-15+0015EFOU V0203201N006712200019N0112651N1-00601-01001999999ADDGA1021+011109999GF102991999999999999999999MA1100411999999MW1001REMMET056EFOU 111250Z 32013KT 9999 FEW037 M06/M10 Q1004 3009//95;EQDQ01+000000PRSWM2
0150028750999992000031323504+64930+025370FM-15+0015EFOU V0202201N004112200019N0112651N1-00101-00401999999ADDGA1021+013509999GF102991999999999999999999MA1099091999999MW1001REMMET056EFOU 132350Z 22008KT 9999 FEW045 M01/M04 Q0991 12950261;EQDQ01+000000PRSWM2
0150028750999992000031707504+64930+025370FM-15+0015EFOU V0203501N001512200019N0112651N1-00901-01001999999ADDGA1021+003609999GF102991999999999999999999MA1102201999999MW1001REMMET056EFOU 170750Z 35003KT 9999 FEW012 M09/M10 Q1022 1209//95;EQDQ01+000000PRSWM2
0180028750999992000031917504+64930+025370FM-15+0015EFOU V0202001N006710600019N0112651N1+00201-00201999999ADDGA1021+010509999GA2071+060009999GF107991999999999999999999MA1100711999999MW1001REMMET070EFOU 191750Z 20013KT 170V230 9999 FEW035 BKN200 02/M02 Q1007 1209//95;EQDQ01+000000PRSWM2
0156028750999992000032021004+64930+025370FM-12+0015EFOU V0202601N002612200019N0500001N1-00161-00651100041ADDGA1001+999999999GF100991001001999999001001MD1210091+9999REMSYN088AAXX  20214 02875 4/984 02605 11016 21065 40004 52009 70000 80/// 92051 555 769// 0/009;
0223028750999992000032106004+64930+025370FM-12+0015EFOU V0202501N003612200019N0500001N1-00121-00611100031ADDAA199000091AJ100859199999999AY101061AY201061GF101991011001999999041001IA1279IA2999-00309MW1021REMSYN098AAXX  21064 02875 32984 12507 11012 21061 40003 5//// 70200 81040 333 3/103 43085 555 7694/ 82800;EQDQ01  00002PRCP99
0168028750999992000032109504+64930+025370FM-15+0015EFOU V0202501N006712200019N0112651N1+00001-00601999999ADDGA1021+009909999GF102991999999999999999999MA1100101999999MW1001OC101181REMMET066EFOU 210950Z 25013G23KT 220V290 9999 FEW033 00/M06 Q1001 3009//95;EQDQ01+000000PRSWM2
0102028750999992000032614504+64930+025370FM-15+0015EFOU V0203001N00511220001CN0099001N1-00301-00801999999ADDMA1101801999999MW1001REMMET050EFOU 261450Z 30010KT CAVOK M03/M08 Q1018 1209//95;EQDQ01+000000PRSWM2
0102028750999992000032705504+64930+025370FM-15+0015EFOU V0209999C00001220001CN0099001N1-01401-01601999999ADDMA1102401999999MW1001REMMET050EFOU 270550Z 00000KT CAVOK M14/M16 Q1024 300///95;EQDQ01+000000PRSWM2
0156028750999992000040815004+64930+025370FM-12+0015EFOU V0203201N000512200019N0300001N1+00481-00701102791ADDGA1001+999999999GF100991001001999999001001MD1710091+9999REMSYN088AAXX  08154 02875 4/980 03201 10048 21070 40279 57009 70000 80/// 91437 555 742// 0/003;
0102028750999992000040820504+64930+025370FM-15+0015EFOU V0201301N00211220001CN0099001N1-00401-00701999999ADDMA1102711999999MW1001REMMET050EFOU 082050Z 13004KT CAVOK M04/M07 Q1027 3009//95;EQDQ01+000000PRSWM2
0109028750999992000040919504+64930+025370FM-15+0015EFOU V0202101N00361220001CN0099001N1+00001-00601999999ADDMA1101391999999MW1001REMMET057EFOU 091950Z 21007KT 170V230 CAVOK 00/M06 Q1014 1209//95;EQDQ01+000000PRSWM2
0223028750999992000041203504+64930+025370FM-15+0015EFOU V0201601N001010039019N0017001N1+00001+00001999999ADDGA1021+001809999GA2071+003909999GA3071+004509999GF107991999999999999999999MA1100911999999MW1101MW2611REMMET075EFOU 120350Z 16002KT 1700 -RA BR FEW006 BKN013 BKN015 00/00 Q1009 3029//95;EQDQ01+000003PRSWM1Q02    003PRSWM1
0171028750999992000041218504+64930+025370FM-15+0015EFOU V0201301N002610210019N0090001N1+00301+00101999999ADDGA1071+021009999GA2071+027009999GF107991999999999999999999MA1100811999999MW1001REMMET061EFOU 121850Z 13005KT 9000 BKN070 BKN090 03/01 Q1008 3029//95;EQDQ01+000000PRSWM2
0099028750999992000042204504+64930+025370FM-15+0015EFOU V0201801N00211220001CN0099001N1+00601+00301999999ADDMA1100711999999MW1001REMMET047EFOU 220450Z 18004KT 140V220 CAVOK 06/03 Q1007;EQDQ01+000000PRSWM2
0156028750999992000042415004+64930+025370FM-12+0015EFOU V0202601N001012200019N0500001N1+00831+00121101281ADDGA1001+999999999GF100991001001999999001001MD1210081+9999REMSYN088AAXX  24154 02875 4/984 02602 10083 20012 40128 52008 70000 80/// 91451 555 761// 0/006;
0092028750999992000042716204+64930+025370FM-15+0015EFOU V0203501N00151220001CN0099001N1+00701-00701999999ADDMA1102811999999MW1001REMMET040EFOU 271620Z 35003KT CAVOK 07/M07 Q1028;EQDQ01+000000PRSWM2
0092028750999992000050117504+64930+025370FM-15+0015EFOU V0201401N00211220001CN0099001N1+00601-00901999999ADDMA1103291999999MW1001REMMET040EFOU 011750Z 14004KT CAVOK 06/M09 Q1033;EQDQ01+000000PRSWM2
0148028750999992000050410504+64930+025370FM-15+0015EFOU V0202701N005112200019N0112651N1+00601-00301999999ADDGA1021+011709999GF102991999999999999999999MA1101691999999MW1001REMMET054EFOU 041050Z 27010KT 220V320 9999 FEW039 06/M03 Q1017;EQDQ01+000000PRSWM2
0099028750999992000050500504+64930+025370FM-15+0015EFOU V0202401N00311220001CN0099001N1+00501+00001999999ADDMA1100611999999MW1001REMMET047EFOU 050050Z 24006KT 190V280 CAVOK 05/00 Q1006;EQDQ01+000000PRSWM2
0100028750999992000050820504+64930+025370FM-15+0015EFOU V0202401N00311220001CN0099001N1+00401-00101999999ADDMA1101901999999MW1001REMMET048EFOU 082050Z 24006KT 210V270 CAVOK 04/M01 Q1019;EQDQ01+000000PRSWM2
0171028750999992000051309504+64930+025370FM-15+0015EFOU V0203101N003110135019N0112651N1+00501-00101999999ADDGA1021+007509999GA2071+013509999GF107991999999999999999999MA1101291999999MW1001REMMET061EFOU 130950Z 31006KT 260V010 9999 SCT025 BKN045 05/M01 Q1013;EQDQ01+000000PRSWM2
0100028750999992000051610504+64930+025370FM-15+0015EFOU V0203001N00311220001CN0099001N1+00801-00501999999ADDMA1102001999999MW1001REMMET048EFOU 161050Z 30006KT 230V350 CAVOK 08/M05 Q1020;EQDQ01+000000PRSWM2
0100028750999992000051709504+64930+025370FM-15+0015EFOU V0202701N00311220001CN0099001N1+01401-00101999999ADDMA1101081999999MW1001REMMET048EFOU 170950Z 27006KT 220V330 CAVOK 14/M01 Q1011;EQDQ01+000000PRSWM2
0091028750999992000051922504+64930+025370FM-15+0015EFOU V0201301N00361220001CN0099001N1+01301+00301999999ADDMA1100911999999MW1001REMMET039EFOU 192250Z 13007KT CAVOK 13/03 Q1009;EQDQ01+000000PRSWM2
0091028750999992000052022504+64930+025370FM-15+0015EFOU V0201101N00411220001CN0099001N1+01201+00401999999ADDMA1100611999999MW1001REMMET039EFOU 202250Z 11008KT CAVOK 12/04 Q1006;EQDQ01+000000PRSWM2
0172028750999992000052418504+64930+025370FM-15+0015EFOU V0202901N002112200019N0112651N1+01201+00601999999ADDGA1021+015009099GA2021+036009999GF104991999999999999999999MA1100911999999MW1001REMMET062EFOU 241850Z 29004KT 260V340 9999 FEW050CB SCT120 12/06 Q1009;EQDQ01+000000PRSWM2
0213028750999992000052511504+64930+025370FM-15+0015EFOU V0201501N004110030019N0060001N1+01201+01101999999ADDGA1021+002109999GA2071+003009999GA3071+003909999GF107991999999999999999999MA1100511999999MW1611REMMET071EFOU 251150Z 15008KT 130V190 6000 -RA SCT007 BKN010 BKN013 12/11 Q1005;EQDQ01+000003PRSWM1Q02    003PRSWM1
0195028750999992000052615504+64930+025370FM-15+0015EFOU V0202301N003110105019N0112651N1+01201+00901999999ADDGA1021+007509999GA2021+009909099GA3071+010509999GF107991999999999999999999MA1099191999999MW1001REMMET069EFOU 261550Z 23006KT 200V260 9999 FEW025 FEW033CB BKN035 12/09 Q0992;EQDQ01+000000PRSWM2
0147028750999992000060110504+64930+025370FM-15+0015EFOU V0202701N005712200019N0112651N1+01201+00201999999ADDGA1021+010509999GF102991999999999999999999MA1101391999999MW1001REMMET053EFOU 011050Z 27011KT 230V320 9999 FEW035 12/02 Q1014;EQDQ01+000000PRSWM2
0146028750999992000060209004+64930+025370FM-12+0015EFOU V0201701N002612200019N0450001N1+01591+00161101341ADDGF101991011999017501999999MD1710171+9999REMSYN094AAXX  02094 02875 4/783 11705 10159 20016 40134 57017 70000 81/// 90851 555 738// 81830 0/607;
0147028750999992000060708504+64930+025370FM-15+0015EFOU V0201501N003612200019N0112651N1+01701+00101999999ADDGA1021+012009999GF104991999999999999999999MA1101291999999MW1001REMMET053EFOU 070850Z 15007KT 110V190 9999 SCT040 17/01 Q1013;EQDQ01+000000PRSWM2
0193028750999992000061211504+64930+025370FM-15+0015EFOU V0202601N003610600019N0112651N1+01501+01001999999ADDGA1021+007509999GA2021+024009999GA3071+060009999GF107991999999999999999999MA1099591999999MW1001REMMET067EFOU 121150Z 26007KT 210V320 9999 SCT025 SCT080 BKN200 15/10 Q0996;EQDQ01+000000PRSWM2
0156028750999992000061303004+64930+025370FM-12+0015EFOU V0203001N002612200019N0400001N1+01031+00571100241ADDGA1001+999999999GF100991001001999999001001MD1210231+9999REMSYN088AAXX  13034 02875 4/982 03005 10103 20057 40024 52023 70000 80/// 90251 555 773// 0/209;
0146028750999992000061521004+64930+025360FM-12+0015EFOU V0203101N001519999999N0500001N1+00741+00501099961ADDGF107991071999008001999999MD1210091+9999REMSYN094AAXX  15214 02875 4/584 73103 10074 20050 49996 52009 74160 87/// 92051 555 785// 80701 0/009;
0163028750999992000061805504+64930+025360FM-15+0015EFOU V02099999999990300019N0112651N1+01201+00001999999ADDGA1021+007509999GA2071+030009999GF107991999999999999999999MA1102001999999MW1001REMMET053EFOU 180550Z VRB02KT 9999 FEW025 BKN100 12/M00 Q1020;EQDQ01+000000PRSWM2
0213028750999992000061916504+64930+025360FM-15+0015EFOU V0202501N002610150019N0112651N1+01201+00801999999ADDGA1021+006009999GA2071+015009999GA3081+021009999GF108991999999999999999999MA1101081999999MW1611REMMET071EFOU 191650Z 25005KT 200V300 9999 -RA FEW020 BKN050 OVC070 12/08 Q1011;EQDQ01+000003PRSWM1Q02    003PRSWM1
0185028750999992000062220504+64930+025360FM-15+0015EFOU V0200201N001510330019N0112651N1+01501+01401999999ADDGA1021+010509999GA2021+012909999GA3071+033009999GF107991999999999999999999MA1100911999999MW1001REMMET059EFOU 222050Z 02003KT 9999 FEW035 SCT043 BKN110 15/14 Q1009;EQDQ01+000000PRSWM2
0099028750999992000062322504+64930+025360FM-15+0015EFOU V0201601N00311220001CN0099001N1+01301+01001999999ADDMA1100711999999MW1001REMMET047EFOU 232250Z 16006KT 140V210 CAVOK 13/10 Q1007;EQDQ01+000000PRSWM2
0170028750999992000062408504+64930+025360FM-15+0015EFOU V0202801N002112200019N0112651N1+01901+01201999999ADDGA1021+013509999GA2021+060009999GF104991999999999999999999MA1100811999999MW1001REMMET060EFOU 240850Z 28004KT 200V360 9999 FEW045 SCT200 19/12 Q1008;EQDQ01+000000PRSWM2
0195028750999992000062713504+64930+025360FM-15+0015EFOU V0200601N003610600019N0112651N1+02301+01801999999ADDGA1021+006009099GA2021+012909999GA3071+060009999GF107991999999999999999999MA1100411999999MW1001REMMET069EFOU 271350Z 06007KT 030V110 9999 FEW020CB SCT043 BKN200 23/18 Q1004;EQDQ01+000000PRSWM2
0099028750999992000063016504+64930+025360FM-15+0015EFOU V0200601N00411220001CN0099001N1+02901+01301999999ADDMA1101021999999MW1001REMMET047EFOU 301650Z 06008KT 030V090 CAVOK 29/13 Q1010;EQDQ01+000000PRSWM2
0099028750999992000070103504+64930+025360FM-15+0015EFOU V0200901N00411220001CN0099001N1+01901+01301999999ADDMA1101191999999MW1001REMMET047EFOU 010350Z 09008KT 050V110 CAVOK 19/13 Q1012;EQDQ01+000000PRSWM2
0170028750999992000070904504+64930+025360FM-15+0015EFOU V0201901N003610150019N0112651N1+01301+00901999999ADDGA1021+004509999GA2071+015009999GF107991999999999999999999MA1099801999999MW1001REMMET060EFOU 090450Z 19007KT 140V230 9999 FEW015 BKN055 13/09 Q0998;EQDQ01+000000PRSWM2
0172028750999992000071012504+64930+025360FM-15+0015EFOU V0202701N003110600019N0112651N1+01701+01001999999ADDGA1021+012009099GA2071+060009999GF107991999999999999999999MA1100001999999MW1001REMMET062EFOU 101250Z 27006KT 220V310 9999 SCT040CB BKN200 17/10 Q1000;EQDQ01+000000PRSWM2
0170028750999992000071315504+64930+025360FM-15+0015EFOU V0201601N006210300019N0112651N1+02001+01601999999ADDGA1021+007509999GA2071+030009999GF107991999999999999999999MA1099701999999MW1001REMMET060EFOU 131550Z 16012KT 130V210 9999 SCT025 BKN100 20/16 Q0997;EQDQ01+000000PRSWM2
0091028750999992000072919504+64930+025360FM-15+0015EFOU V0203601N00151220001CN0099001N1+01701+01201999999ADDMA1101081999999MW1001REMMET039EFOU 291950Z 36003KT CAVOK 17/12 Q1011;EQDQ01+000000PRSWM2
0099028750999992000073008504+64930+025360FM-15+0015EFOU V0201701N00261220001CN0099001N1+02301+00801999999ADDMA1101081999999MW1001REMMET047EFOU 300850Z 17005KT 120V230 CAVOK 23/08 Q1011;EQDQ01+000000PRSWM2
0156028750999992000073115004+64930+025360FM-12+0015EFOU V0203301N002112200019N0200001N1+02081+01491100991ADDGA1001+999999999GF100991001001999999001001MD1710021+9999REMSYN088AAXX  31154 02875 4/970 03304 10208 20149 40099 57002 70020 80/// 91451 555 769// 0/006;
0170028750999992000080206504+64930+025360FM-15+0015EFOU V0200801N003110048019N0112651N1+01501+01101999999ADDGA1021+004209999GA2071+004809999GF107991999999999999999999MA1101081999999MW1001REMMET060EFOU 020650Z 08006KT 050V110 9999 FEW014 BKN016 15/11 Q1011;EQDQ01+000000PRSWM2
0146028750999992000080409004+64930+025360FM-12+0015EFOU V0200201N000512200019N0450001N1+01581+00861101431ADDGF101991011999008001999999MD1210011+9999REMSYN094AAXX  04094 02875 4/583 10201 10158 20086 40143 52001 70000 81/// 90851 555 762// 80884 0/004;
0172028750999992000080715504+64930+025360FM-15+0015EFOU V0201901N004112200019N0112651N1+01601+00701999999ADDGA1021+009009099GA2021+012609999GF104991999999999999999999MA1099591999999MW1001REMMET062EFOU 071550Z 19008KT 140V230 9999 FEW030CB SCT042 16/07 Q0996;EQDQ01+000000PRSWM2
0162028750999992000090212504+64930+025360FM-15+0015EFOU V0202901N001512200019N0112651N1+01501+01001999999ADDGA1021+008409999GA2021+013509999GF104991999999999999999999MA1100201999999MW1001REMMET052EFOU 021250Z 29003KT 9999 SCT028 SCT045 15/10 Q1002;EQDQ01+000000PRSWM2
0139028750999992000090322504+64930+025360FM-15+0015EFOU V0209999C000012200019N0112651N1+00601+00501999999ADDGA1021+009009999GF102991999999999999999999MA1100711999999MW1001REMMET045EFOU 032250Z 00000KT 9999 FEW030 06/05 Q1007;EQDQ01+000000PRSWM2
0091028750999992000091019504+64930+025360FM-15+0015EFOU V0202201N00211220001CN0099001N1+00901+00701999999ADDMA1099801999999MW1001REMMET039EFOU 101950Z 22004KT CAVOK 09/07 Q0998;EQDQ01+000000PRSWM2
0099028750999992000091623504+64930+025360FM-15+0015EFOU V0201801N00361220001CN0099001N1+00701+00501999999ADDMA1101391999999MW1001REMMET047EFOU 162350Z 18007KT 140V230 CAVOK 07/05 Q1014;EQDQ01+000000PRSWM2
0170028750999992000091702504+64930+025360FM-15+0015EFOU V0201801N004110270019N0112651N1+00801+00501999999ADDGA1021+006309999GA2071+027009999GF107991999999999999999999MA1101291999999MW1001REMMET060EFOU 170250Z 18008KT 150V220 9999 SCT021 BKN090 08/05 Q1013;EQDQ01+000000PRSWM2
0147028750999992000091707504+64930+025360FM-15+0015EFOU V0202001N004610048019N0112651N1+01001+00701999999ADDGA1071+004809999GF107991999999999999999999MA1101291999999MW1001REMMET053EFOU 170750Z 20009KT 170V240 9999 BKN016 10/07 Q1013;EQDQ01+000000PRSWM2
0156028750999992000092312004+64930+025360FM-12+0015EFOU V0202301N002112200019N0500001N1+01521+00461103131ADDGA1001+999999999GF100991001001999999001001MD1710051+9999REMSYN088AAXX  23124 02875 4/984 02304 10152 20046 40313 57005 70000 80/// 91151 555 749// 0/308;
0156028750999992000100109004+64930+025360FM-12+0015EFOU V0202001N001512200019N0200001N1+01341+01001101951ADDGA1001+999999999GF100991001001999999001001MD1210031+9999REMSYN088AAXX  01094 02875 4/970 02003 10134 20100 40195 52003 70000 80/// 90851 555 780// 0/005;
0156028750999992000100209004+64930+025360FM-12+0015EFOU V0201201N001512200019N0250001N1+01081+00751101551ADDGA1001+999999999GF100991001001999999001001MD1710071+9999REMSYN088AAXX  02094 02875 4/975 01203 10108 20075 40155 57007 70000 80/// 90851 555 780// 0/205;
0171028750999992000100402504+64930+025360FM-15+0015EFOU V0201001N00261000151CN0040001N1+01101+01001999999ADDGA1091+000159999GF109991999999000251999999MA1101591999999MW1101REMMET061EFOU 040250Z 10005KT 4000 BR SCT001 BKN002 VV003 11/10 Q1016;EQDQ01+000003PRSWM1Q02    003PRSWM1
0188028750999992000100506004+64930+025360FM-12+0015EFOU V0201801N000519999999N0017001N1+01181+01151101751ADDGF108991081999000251999999KA1120M+01181KA2120N+01141MD1710021+9999REMSYN110AAXX  05064 02875 4/017 81801 10118 20115 40175 57002 75363 88/// 90551 333 10118 20114 555 798// 80030 0/002;
0146028750999992000101003004+64930+025360FM-12+0015EFOU V0201401N001519999999N0070001N1+00781+00661102451ADDGF107991071999008001999999MD1710031+9999REMSYN094AAXX  10034 02875 4/557 71403 10078 20066 40245 57003 70000 87/// 90251 555 792// 80610 0/006;
0146028750999992000101121004+64930+025360FM-12+0015EFOU V0201201N002619999999N0200001N1+00851+00411102211ADDGF108991081999012501999999MD1210061+9999REMSYN094AAXX  11214 02875 4/670 81205 10085 20041 40221 52006 70000 88/// 92051 555 774// 81311 0/009;
0146028750999992000101212004+64930+025360FM-12+0015EFOU V0201201N003119999999N0300001N1+00801+00351102151ADDGF108991051999008001999999MD1710091+9999REMSYN094AAXX  12124 02875 4/580 81206 10080 20035 40215 57009 70000 85/// 91151 555 773// 80793 0/210;
0162028750999992000101615504+64930+025360FM-15+0015EFOU V0201501N001010051019N0112651N1+00901+00601999999ADDGA1021+004509999GA2071+005109999GF107991999999999999999999MA1102811999999MW1001REMMET052EFOU 161550Z 15002KT 9999 SCT015 BKN017 09/06 Q1028;EQDQ01+000000PRSWM2
0162028750999992000101713504+64930+025360FM-15+0015EFOU V0201501N003110270019N0112651N1+01001+00601999999ADDGA1021+012009999GA2071+027009999GF107991999999999999999999MA1102301999999MW1001REMMET052EFOU 171350Z 15006KT 9999 FEW040 BKN090 10/06 Q1023;EQDQ01+000000PRSWM2
0146028750999992000102612004+64930+025360FM-12+0015EFOU V0203401N002119999999N0300001N1+00211+00111098791ADDGF108991081999002501999999MD1210081+9999REMSYN094AAXX  26124 02875 4/380 83404 10021 20011 49879 52008 75166 88/// 91151 555 793// 80244 0/006;
0171028750999992000103122504+64930+025360FM-15+0015EFOU V0201001N004610009019N0080001N1+00101+00101999999ADDGA1021+000609999GA2071+000909999GF107991999999999999999999MA1099701999999MW1001REMMET061EFOU 312250Z 10009KT 8000 SCT002 BKN003 01/01 Q0997 12950069;EQDQ01+000000PRSWM2
0239028750999992000110222504+64930+025360FM-15+0015EFOU V0200901N004110090019N0040001N1+00001-00101999999ADDGA1021+002409999GA2021+002709999GA3071+009009999GA4071+009009999GF107991999999999999999999MA1100711999999MW1711REMMET081EFOU 022250Z 09008KT 4000 -SN FEW008 SCT009 BKN030 BKN030 M00/M01 Q1007 1219//95;EQDQ01+000003PRSWM1Q02    003PRSWM1
0188028750999992000110318004+64930+025360FM-12+0015EFOU V0200801N001019999999N0100001N1+00031-00041101431ADDGF108991081999001501999999KA1120M+00051KA2120N-00071MD1210091+9999REMSYN110AAXX  03184 02875 4/260 80802 10003 21004 40143 52009 70000 88/// 91751 333 10005 21007 555 795// 80152 0/606;
0168028750999992000110418504+64930+025360FM-15+0015EFOU V0201301N004610039019N0112651N1+00501+00401999999ADDGA1071+003909999GF107991999999999999999999MA1100911999999MW1611REMMET058EFOU 041850Z 13009KT 9999 -RA BKN013 05/04 Q1009 1219//95;EQDQ01+000003PRSWM1Q02    003PRSWM1
0156028750999992000110721004+64930+025360FM-12+0015EFOU V0201201N001012200019N0250001N1+00351+00191101851ADDGA1001+999999999GF100991001001999999001001MD1710021+9999REMSYN088AAXX  07214 02875 4/975 01202 10035 20019 40185 57002 70000 80/// 92045 555 789// 0/005;
0179028750999992000111516504+64930+025360FM-15+0015EFOU V0202201N003110039019N0112651N1+00401+00301999999ADDGA1071+003909999GA2071+006009999GF107991999999999999999999MA1100711999999MW1001REMMET069EFOU 151650Z 22006KT 180V250 9999 BKN013 BKN020 04/03 Q1007 1219//95;EQDQ01+000000PRSWM2
0214028750999992000111614504+64930+025360FM-15+0015EFOU V0203601N001510045019N0112651N1+00101+00001999999ADDGA1021+001509999GA2071+004509999GA3071+005409999GF107991999999999999999999MA1101191999999MW1611REMMET072EFOU 161450Z 36003KT 9999 -RA SCT005 BKN015 BKN018 01/00 Q1012 1219//95;EQDQ01+000003PRSWM1Q02    003PRSWM1
0188028750999992000111806004+64930+025360FM-12+0015EFOU V0201101N001519999999N0050001N1-00121-00251102231ADDGF108991081999002501999999KA1120M-00081KA2120N-00131MD1710061+9999REMSYN110AAXX  18064 02875 4/350 81103 11012 21025 40223 57006 77700 88/// 90551 333 11008 21013 555 791// 80274 0/004;
0102028750999992000112206504+64930+025360FM-15+0015EFOU V0201201N00361220001CN0099001N1-01301-01501999999ADDMA1103291999999MW1001REMMET050EFOU 220650Z 12007KT CAVOK M13/M15 Q1033 1239//95;EQDQ01+000000PRSWM2
0146028750999992000112721004+64930+025360FM-12+0015EFOU V0201501N001019999999N0023001N1+00061+00031101881ADDGF108991081999000251999999MD1710011+9999REMSYN094AAXX  27214 02875 4/023 81502 10006 20003 40188 57001 72031 88/// 92051 555 798// 80030 0/005;
0173028750999992000120501504+64930+025360FM-15+0015EFOU V0201101N004110027019N0112651N1-00201-00301999999ADDGA1071+002709999GA2071+006909999GF107991999999999999999999MA1101291999999MW1001REMMET063EFOU 050150Z 11008KT 9999 BKN009 BKN023 M02/M03 Q1013 1219//95;EQDQ01+000000PRSWM2
0156028750999992000120700504+64930+025360FM-15+0015EFOU V0202301N007210024019N0112651N1+00601+00501999999ADDGA1071+002409999GF107991999999999999999999MA1100511999999MW1001REMMET062EFOU 070050Z 23014KT 200V280 9999 BKN008 06/05 Q1005 1229//95;EQDQ01+000000PRSWM2
0193028750999992000121006504+64930+025360FM-15+0015EFOU V0201001N004110120019N0040001N1-00401-00601999999ADDGA1021+004509999GA2081+012009999GF108991999999999999999999MA1100411999999MW1711REMMET067EFOU 100650Z 10008KT 4000 -SN SCT015 OVC040 M04/M06 Q1004 1209//95;EQDQ01+000003PRSWM1Q02    003PRSWM1
0206028750999992000121107504+64930+025360FM-15+0015EFOU V0203401N00051000151CN0006001N1-00101-00101999999ADDED199U13009GA1091+000159999GF109991999999000251999999MA1100001999999MW1451REMMET085EFOU 110750Z 34001KT 0600 R12/1300U R30/1300U FG BKN001 VV002 M01/M01 Q1000 1229//95;EQDQ01+000003PRSWM1Q02    003PRSWM1
0168028750999992000121520504+64930+025360FM-15+0015EFOU V0201301N003610009019N0080001N1+00301+00201999999ADDGA1071+000909999GF107991999999999999999999MA1099901999999MW1511REMMET058EFOU 152050Z 13007KT 8000 -DZ BKN003 03/02 Q0999 1219//95;EQDQ01+000003PRSWM1Q02    003PRSWM1
0173028750999992000121811504+64930+025360FM-15+0015EFOU V0203301N003610015019N0112651N1-00301-00301999999ADDGA1021+000909999GA2071+001509999GF107991999999999999999999MA1101901999999MW1001REMMET063EFOU 181150Z 33007KT 9999 SCT003 BKN005 M03/M03 Q1019 30490160;EQDQ01+000000PRSWM2
0173028750999992000121903504+64930+025360FM-15+0015EFOU V0202201N002110018019N0112651N1-00401-00501999999ADDGA1021+000609999GA2071+001809999GF107991999999999999999999MA1102401999999MW1001REMMET063EFOU 190350Z 22004KT 9999 SCT002 BKN006 M04/M05 Q1024 12450166;EQDQ01+000000PRSWM2
0224028750999992000122115204+64930+025360FM-15+0015EFOU V0201901N002110069019N0090001N1-00301-00301999999ADDGA1021+004509999GA2071+006909999GA3071+008109999GF107991999999999999999999MA1102611999999MW1711REMMET082EFOU 211520Z 19004KT 140V230 9000 -SN SCT015 BKN023 BKN027 M03/M03 Q1026 12390147;EQDQ01+000003PRSWM1Q02    003PRSWM1
0188028750999992000122418004+64930+025360FM-12+0015EFOU V0201001N001519999999N0500001N1-01851-02101100501ADDGF107991071999999999999999KA1120M-01091KA2120N-01851MD1210071+9999REMSYN110AAXX  24184 02875 4/984 71003 11185 21210 40050 52007 70000 87/// 91751 333 11109 21185 555 781// 83507 0/005;
0216028750999992000122710504+64930+025360FM-15+0015EFOU V0200901N003110048019N0112651N1-01201-01401999999ADDGA1021+004209999GA2071+004809999GA3081+012909999GF108991999999999999999999MA1100511999999MW1711REMMET074EFOU 271050Z 09006KT 9999 -SN FEW014 BKN016 OVC043 M12/M14 Q1005 12490046;EQDQ01+000003PRSWM1Q02    003PRSWM1
0196028750999992000122918504+64930+025360FM-15+0015EFOU V0200901N005110180019N0112651N1-00901-01101999999ADDGA1021+003009999GA2021+010509999GA3071+018009999GF107991999999999999999999MA1099901999999MW1001REMMET070EFOU 291850Z 09010KT 9999 FEW010 SCT035 BKN060 M09/M11 Q0999 12450338;EQDQ01+000000PRSWM2
0156028790999992000010403004+64900+029020FM-12+0224EFSU V0201401N002110012019N0100001N1-00791-00921099811ADDAY151031AY251031GF108991081061001501999999MD1710331+9999MW1561REMSYN082AAXX  04034 02879 41260 81404 11079 21092 49981 57033 75655 886// 555 61080 792//;
0266028790999992000011506004+64900+029020FM-12+022499999V0202101N00101001201SN0150001N1-00651-00731101131ADDAA112000191AJ100549199999999AY171061AY221061GF108991081071001501999999IA1239IA2999-00709KA1120M-00561KA2120N-00721MD1710101+9999MW1711REMSYN120    AAXX  15064 02879 11265 82102 11065 21073 40113 57010 69922 77172 887// 333 11056 21072 3/107 47054 555 61065 79512;
0160028790999992000012409004+64900+029020FM-12+0224EFSU V0203401N000512200019N0500001N1-02701-02951101891ADDAY101031AY201031GA1001+999999999GF100991001001999999001001MD1110151+9999MW1021REMSYN070AAXX  24094 02879 42984 03401 11270 21295 40189 51015 70200 555 779//;
0275028790999992000020406004+64900+029020FM-12+0224EFSU V0201701N000510210019N0500001N1-01651-01831099901ADDAA199000091AJ100709199999999AY111061AY211061GF107991071001022501071999IA1239IA2999-02409KA1120M-01161KA2120N-01981MD1710251+9999MW1021REMSYN110AAXX  04064 02879 32884 71701 11165 21183 49990 57025 70211 8707/ 333 11116 21198 3/124 47070 555 61165 7889/;EQDQ01  00002PRCP99
0156028790999992000021703004+64900+029020FM-12+0224EFSU V0201101N000510012019N0200001N1-00591-00701100251ADDAY171031AY271031GF108991081071001501999999MD1210041+9999MW1711REMSYN082AAXX  17034 02879 41270 81101 11059 21070 40025 52004 77177 887// 555 61060 794//;
0156028790999992000022809004+64900+029020FM-12+0224EFSU V0202301N002610012019N0080001N1+00101+00051098271ADDAY171031AY251031GF108991081071001501999999MD1510061+9999MW1681REMSYN082AAXX  28094 02879 41258 82305 10010 20005 49827 55006 76875 887// 555 60008 798//;
0166028790999992000032703004+64900+029020FM-12+0224EFSU V0209999C000012200019N0500001N1-01781-01851102311ADDAY101031AY201031GA1001+999999999GF100991001001999999001001MD1210111+9999MW1021REMSYN076AAXX  27034 02879 42984 00000 11178 21185 40231 52011 70200 555 61176 790//;
0156028790999992000041421004+64900+029020FM-12+0224EFSU V0201101N001510006019N0060001N1+00091+00011099491ADDAY161031AY221031GF108991081071000751999999MD1710121+9999MW1611REMSYN082AAXX  14214 02879 41156 81103 10009 20001 49949 57012 76162 887// 555 60006 798//;
0156028790999992000042215004+64900+029020FM-12+0224EFSU V0202501N002110300019N0500001N1+01211+00251100521ADDAY181031AY221031GF106991031031012501061031MD1510051+9999MW1021REMSYN082AAXX  22154 02879 41684 62504 10121 20025 40052 55005 70282 83363 555 60076 749//;
0156028790999992000060321004+64900+029020FM-12+0224EFSU V0202001N002610012019N0150001N1+00391+00281099661ADDAY161031AY261031GF108991081071001501999999MD1110121+9999MW1611REMSYN082AAXX  03214 02879 41265 82005 10039 20028 49966 51012 76166 887// 555 60034 797//;
0239028790999992000061106004+64900+029020FM-12+0224EFSU V0202301N002110012019N0500001N1+01201+00841100601ADDAA112002091AY161061AY221061GF108991051071001501071999IA1099IA2999+01009KA1120M+01691KA2120N+01091MD1510051+9999MW1021REMSYN110AAXX  11064 02879 11284 82304 10120 20084 40060 55005 60022 70262 8577/ 333 10169 20109 31010 555 60101 78299;
0156028790999992000062521004+64890+029200FM-12+0224EFSU V0200901N001010300019N0500001N1+01771+01131101071ADDAY121031AY221031GF108991031091012501071999MD1310031+9999MW1021REMSYN082AAXX  25214 02879 42684 80902 10177 20113 40107 53003 70222 8397/ 555 60140 765//;
0156028790999992000081200004+64890+029010FM-12+0224EFSU V0201201N000512200019N0400001N1+00821+00741101031ADDAY111061AY211061GF105991041051012501001011MD1210021+9999MW1021REMSYN082AAXX  12004 02879 42682 51201 10082 20074 40103 52002 70211 84501 555 60078 798//;
0252028790999992000082406004+64890+029010FM-12+0224EFSU V0209999C000010300019N0300001N1+01041+01001100461ADDAA199000091AY111061AY211061GF107991021011012501071999IA1099IA2999+00309KA1120M+01181KA2120N+00441MD1510001+9999MW1021REMSYN104AAXX  24064 02879 32680 70000 10104 20100 40046 55000 70211 8217/ 333 10118 20044 31003 555 60102 7984/;EQDQ01  00002PRCP99
0156028790999992000082815004+64890+029010FM-12+0224EFSU V0202401N001510150019N0500001N1+01811+01041102051ADDAY121031AY221031GF106991061081012501001001MD1710061+9999MW1021REMSYN082AAXX  28154 02879 42684 62403 10181 20104 40205 57006 70222 86800 555 60137 755//;
0156028790999992000092103004+64890+029010FM-12+0224EFSU V0201901N001010120019N0500001N1+00261+00011103081ADDAY121031AY221031GF107991071051012501999999MD1010001+9999MW1021REMSYN082AAXX  21034 02879 42684 71902 10026 20001 40308 50000 70222 875// 555 60016 789//;
0156028790999992000092309004+64890+029010FM-12+0224EFSU V0202301N001010006019N0060001N1+00441+00421103311ADDAY141031AY221031GF108991081061000751999999MD1210071+9999MW1101REMSYN082AAXX  23094 02879 41156 82302 10044 20042 40331 52007 71042 886// 555 60043 798//;
0156028790999992000093021004+64890+029010FM-12+0224EFSU V0202301N001010006019N0030001N1+01271+01251101741ADDAY151031AY251031GF108991081061000751999999MD1210011+9999MW1511REMSYN082AAXX  30214 02879 41130 82302 10127 20125 40174 52001 75155 886// 555 60126 797//;
0156028790999992000100803004+64890+029010FM-12+0224EFSU V0201801N001510042019N0250001N1+00831+00651103191ADDAY121031AY221031GF108991081061004501999999MD1710021+9999MW1021REMSYN082AAXX  08034 02879 42475 81803 10083 20065 40319 57002 70222 886// 555 60074 786//;
0188028970999992000010709504+64280+027680FM-15+0136EFKI V0202401N004110021019N0080001N1+00101+00001999999ADDGA1071+002109999GA2071+003909999GF107991999999999999999999MA1098921999999MW1611REMMET062EFKI 0950Z 24008KT 180V280 8000 -RA BKN007 BKN013 01/00 Q0989;EQDQ01+000003PRSWM1Q02    003PRSWM1
0188028970999992000010809504+64280+027680FM-15+0136EFKI V0201901N005110030019N0060001N1+00201+00101999999ADDGA1021+002409999GA2071+003009999GF107991999999999999999999MA1098711999999MW1511REMMET062EFKI 0950Z 19010KT 110V280 6000 -DZ FEW008 BKN010 02/01 Q0987;EQDQ01+000003PRSWM1Q02    003PRSWM1
0151028970999992000010904204+64280+027680FM-15+0136EFKI V0202201N005112200019N0112651N1+00201-00101999999ADDGA1021+006909999GF102991999999999999999999MA1098921999999MW1001REMMET057EFKI 0420Z AUTO 22010KT 140V270 9999 FEW023 02/M01 Q0989;EQDQ01+000000PRSWM2
0099028970999992000010917504+64280+027680FM-15+0136EFKI V0202201N00361220001CN0099001N1-00101-00401999999ADDMA1099901999999MW1001REMMET047EFKI 1750Z 22007KT 170V260 CAVOK M01/M04 Q0999;EQDQ01+000000PRSWM2
0140028970999992000011112004+64280+027680FM-12+0136EFKI V0202201N002110012019N0120001N1-00051-00161100871ADDAY171061AY221061GF108991081061001501999999MD1510041+9999MW1021REMSYN066AAXX  11124 02897 41262 82204 11005 21016 40087 55004 70272 886//;
0154028970999992000011900004+64280+027680FM-12+013699999V0203201N000512200019N0400001N1-01991-02131100541ADDAY101061AY201061GA1001+999999999GF100991001001999999001001MD1110061+9999MW1021REMSYN064    AAXX  19004 02897 42982 03201 11199 21213 40054 51006 70200;
0164028970999992000012722464+64280+027680FM-15+0136EFKI V0201501N001010015019N0112651N1-01401-01501999999ADDGA1021+000609999GA2071+001509999GF107991999999999999999999MA1098611999999MW1001REMMET054EFKI 272246Z 15002KT 9999 SCT002 BKN005 M14/M15 Q0986;EQDQ01+000000PRSWM2
0215028970999992000020305524+64280+027680FM-15+0136EFKI V0202601N003110150019N0050001N1-01401-01501999999ADDGA1021+009009999GA2021+012009999GA3071+015009999GF107991999999999999999999MA1098711999999MW1711REMMET073EFKI 030552Z 26006KT 220V280 5000 -SN SCT030 SCT040 BKN055 M14/M15 Q0987;EQDQ01+000003PRSWM1Q02    003PRSWM1
0191028970999992000020618464+64280+027680FM-15+0136EFKI V0202501N006710018019N0040001N1+00001+00001999999ADDGA1071+001809999GA2081+004209999GF108991999999999999999999MA1098101999999MW1711REMMET065EFKI 061846Z 25013KT 220V280 4000 -SN BKN006 OVC014 00/M00 Q0981;EQDQ01+000003PRSWM1Q02    003PRSWM1
0140028970999992000020800004+64280+027680FM-12+0136EFKI V0201701N003110021019N0090001N1+00081-00021098061ADDAY171061AY251061GF108991081061002501999999MD1810221+9999MW1561REMSYN066AAXX  08004 02897 41359 81706 10008 21002 49806 58022 75675 886//;
0093028970999992000021003494+64280+027680FM-15+0136EFKI V0202001N00101220001CN0099001N1-01001-01101999999ADDMA1099701999999MW1001REMMET041EFKI 100349Z 20002KT CAVOK M10/M11 Q0997;EQDQ01+000000PRSWM2
0141028970999992000021403494+64280+027680FM-15+0136EFKI V0201601N001510108019N0112651N1-00101-00301999999ADDGA1071+010809999GF107991999999999999999999MA1099291999999MW1001REMMET047EFKI 140349Z 16003KT 9999 BKN036 M01/M03 Q0993;EQDQ01+000000PRSWM2
0140028970999992000022212004+64280+027680FM-12+0136EFKI V0203201N000512200019N0250001N1-01201-01341102311ADDAY171061AY211061GF102991011061002501041001MD1110071+9999MW1021REMSYN066AAXX  22124 02897 41375 23201 11120 21134 40231 51007 70271 81640;
0140028970999992000022415004+64280+027680FM-12+0136EFKI V0201201N000512200019N0200001N1-01241-01481102121ADDAY101031AY201031GF102991001001999999001051MD1810151+9999MW1031REMSYN066AAXX  24154 02897 42970 21201 11124 21148 40212 58015 70300 80005;
0222028970999992000022418004+64280+027680FM-12+0136EFKI V0201301N001012200019N0200001N1-01461-01571101901ADDAA199000021AJ100669199999999AY101061AY201061GF102991001001999999001081IA1239KA1120M-00861KA2120N-02651MD1710241+9999MW1021REMSYN088AAXX  24184 02897 32970 21302 11146 21157 40190 57024 70200 80008 333 11086 21265 47066;
0093028970999992000022509504+64280+027680FM-15+0136EFKI V0201201N00211220001CN0099001N1-01501-01701999999ADDMA1101081999999MW1001REMMET041EFKI 250950Z 12004KT CAVOK M15/M17 Q1011;EQDQ01+000000PRSWM2
0093028970999992000022608504+64280+027680FM-15+0136EFKI V0209999C00001220001CN0099001N1-01901-02201999999ADDMA1101691999999MW1001REMMET041EFKI 260850Z 00000KT CAVOK M19/M22 Q1017;EQDQ01+000000PRSWM2
0147028970999992000022806504+64280+027680FM-15+0136EFKI V0202301N004610021019N0112651N1+00101+00101999999ADDGA1081+002109999GF108991999999999999999999MA1098411999999MW1001REMMET053EFKI 280650Z 23009KT 150V270 9999 OVC007 01/01 Q0984;EQDQ01+000000PRSWM2
0164028970999992000022904504+64280+027680FM-15+0136EFKI V0202801N003610012019N0112651N1-00101-00101999999ADDGA1071+001209999GA2071+002709999GF107991999999999999999999MA1098311999999MW1001REMMET054EFKI 290450Z 28007KT 9999 BKN004 BKN009 M01/M01 Q0983;EQDQ01+000000PRSWM2
0171028970999992000030117504+64280+027680FM-15+0136EFKI V0201501N003610330019N0112651N1+00101-00101999999ADDGA1021+009009999GA2071+033009999GF107991999999999999999999MA1098311999999MW1001REMMET061EFKI 011750Z 15007KT 100V210 9999 SCT030 BKN110 01/M01 Q0983;EQDQ01+000000PRSWM2
0101028970999992000031304504+64280+027680FM-15+0136EFKI V0201801N00361220001CN0099001N1-00901-01301999999ADDMA1100511999999MW1001REMMET049EFKI 130450Z 18007KT 130V230 CAVOK M09/M13 Q1005;EQDQ01+000000PRSWM2
0190028970999992000031420504+64280+027680FM-15+0136EFKI V0202801N002610021019N0060001N1-00201-00201999999ADDGA1071+002109999GA2071+002709999GF107991999999999999999999MA1098921999999MW1711REMMET064EFKI 142050Z 28005KT 6000 -SN FW005 BKN007 BKN009 M02/M02 Q0989;EQDQ01+000003PRSWM1Q02    003PRSWM1
0140028970999992000031615004+64280+027680FM-12+0136EFKI V0200201N001010750019N0300001N1-00291-00781101171ADDAY121031AY221031GF107991041001022501071091MD1310191+9999MW1021REMSYN066AAXX  16154 02897 42880 70202 11029 21078 40117 53019 70222 84079;
0093028970999992000032103504+64280+027680FM-15+0136EFKI V0202401N00511220001CN0099001N1-00301-00701999999ADDMA1100001999999MW1001REMMET041EFKI 210350Z 24010KT CAVOK M03/M07 Q1000;EQDQ01+000000PRSWM2
0140028970999992000032500004+64280+027680FM-12+0136EFKI V0201701N000512200019N0300001N1-00731-01001100641ADDAY111061AY211061GF102991021001022501041001MD1210091+9999MW1021REMSYN066AAXX  25004 02897 42880 21701 11073 21100 40064 52009 70211 82040;
0187028970999992000032512504+64280+027680FM-15+0136EFKI V0202801N005110120019N0112651N1-00201-00801999999ADDGA1021+009009999GA2071+012009999GA3071+060009999GF107991999999999999999999MA1100811999999MW1001REMMET061EFKI 251250Z 28010KT 9999 FEW030 BKN040 BKN200 M02/M08 Q1008;EQDQ01+000000PRSWM2
0150028970999992000032521004+64280+027680FM-12+0136EFKI V0202801N000512200019N0300001N1-00751-01031101151ADDAY101031AY201031GA1001+999999999GF100991001001999999001001MD1210111+9999MW1021REMSYN060AAXX  25214 02897 42980 02801 11075 21103 40115 52011 70200;
0162028970999992000033008504+64280+027680FM-15+0136EFKI V0202601N007210600019N0112651N1+00501+00001999999ADDGA1021+006009999GA2071+060009999GF107991999999999999999999MA1100201999999MW1001REMMET052EFKI 300850Z 26014KT 9999 FEW020 BKN200 05/00 Q1002;EQDQ01+000000PRSWM2
0164028970999992000041703504+64280+027680FM-15+0136EFKI V0201201N003110600019N0080001N1+00001-00101999999ADDGA1021+000309999GA2071+060009999GF107991999999999999999999MA1101191999999MW1001REMMET054EFKI 170350Z 12006KT 8000 FEW001 BKN200 M00/M01 Q1012;EQDQ01+000000PRSWM2
0099028970999992000042508504+64280+027680FM-15+0136EFKI V0201401N00571220001CN0099001N1+01101+00601999999ADDMA1100611999999MW1001REMMET047EFKI 250850Z 14011KT 100V180 CAVOK 11/06 Q1006;EQDQ01+000000PRSWM2
0162028970999992000051014504+64280+027680FM-15+0136EFKI V0202801N004110210019N0112651N1+01101+00201999999ADDGA1021+010509999GA2071+021009999GF107991999999999999999999MA1100911999999MW1001REMMET052EFKI 101450Z 28008KT 9999 SCT035 BKN076 11/02 Q1009;EQDQ01+000000PRSWM2
0100028970999992000051314504+64280+027680FM-15+0136EFKI V0203501N00461220001CN0099001N1+00501-00701999999ADDMA1101291999999MW1001REMMET048EFKI 131450Z 35009KT 320V030 CAVOK 05/M07 Q1013;EQDQ01+000000PRSWM2
0100028970999992000051409504+64280+027680FM-15+0136EFKI V0203401N00511220001CN0099001N1+00601-00801999999ADDMA1101491999999MW1001REMMET048EFKI 140950Z 34010KT 300V020 CAVOK 06/M08 Q1015;EQDQ01+000000PRSWM2
0091028970999992000052002204+64280+027680FM-15+0136EFKI V0201201N00261220001CN0099001N1+00901+00201999999ADDMA1101081999999MW1001REMMET039EFKI 200220Z 12005KT CAVOK 09/02 Q1011;EQDQ01+000000PRSWM2
0099028970999992000052015504+64280+027680FM-15+0136EFKI V0201201N00571220001CN0099001N1+02101+00301999999ADDMA1100711999999MW1001REMMET047EFKI 201550Z 12011KT 090V150 CAVOK 21/03 Q1007;EQDQ01+000000PRSWM2
0091028970999992000052306504+64280+027680FM-15+0136EFKI V0203301N00151220001CN0099001N1+01301+00701999999ADDMA1101291999999MW1001REMMET039EFKI 230650Z 33003KT CAVOK 13/07 Q1013;EQDQ01+000000PRSWM2
0213028970999992000052512504+64280+027680FM-15+0136EFKI V0201601N003610042019N0112651N1+01101+01001999999ADDGA1021+003309999GA2071+004209999GA3071+006009999GF107991999999999999999999MA1100711999999MW1611REMMET071EFKI 251250Z 16007KT 120V200 9999 -RA SCT011 BKN014 BKN020 11/10 Q1007;EQDQ01+000003PRSWM1Q02    003PRSWM1
0217028970999992000052615204+64280+027680FM-15+0136EFKI V0201801N004610129019N0112651N1+01101+00801999999ADDGA1021+010809099GA2071+012909999GA3071+018009999GF107991999999999999999999MA1099491999999MW1801REMMET075EFKI 261520Z 18009KT 130V260 9999 -SHRA FEW036CB BKN043 BKN065 11/08 Q0995;EQDQ01+000003PRSWM1Q02    003PRSWM1
0170028970999992000060605504+64280+027680FM-15+0136EFKI V0200401N003610051019N0112651N1+00801+00601999999ADDGA1021+004209999GA2071+005109999GF107991999999999999999999MA1101591999999MW1001REMMET060EFKI 060550Z 04007KT 360V070 9999 SCT014 BKN017 08/06 Q1016;EQDQ01+000000PRSWM2
0213028970999992000060809504+64280+027680FM-15+0136EFKI V0200401N004610147019N0090001N1+01001+00801999999ADDGA1021+006609999GA2071+014709999GA3081+018009999GF108991999999999999999999MA1100311999999MW1611REMMET071EFKI 080950Z 04009KT 010V090 9000 -RA FEW022 BKN049 OVC060 10/08 Q1003;EQDQ01+000003PRSWM1Q02    003PRSWM1
0147028970999992000061109504+64280+027680FM-15+0136EFKI V0202601N004110036019N0112651N1+01301+01101999999ADDGA1071+003609999GF107991999999999999999999MA1100811999999MW1001REMMET053EFKI 110950Z 26008KT 210V280 9999 BKN012 13/11 Q1008;EQDQ01+000000PRSWM2
0207028970999992000061413504+64270+027680FM-15+0136EFKI V0202501N007210180019N0112651N1+01301+00301999999ADDGA1021+010509999GA2071+018009999GA3071+024009999GF107991999999999999999999MA1099491999999MW1801REMMET065EFKI 141350Z 25014KT 9999 -SHRA SCT035 BKN065 BKN081 13/03 Q0995;EQDQ01+000003PRSWM1Q02    003PRSWM1
0227028970999992000061416504+64270+027680FM-15+0136EFKI V0202501N007210270019N0112651N1+01201+00201999999ADDGA1021+010509099GA2021+021009999GA3071+027009999GF107991999999999999999999MA1099491999999MW1161OC101231REMMET077EFKI 141650Z 25014G24KT 190V310 9999 VCSH FEW035CB SCT070 BKN090 12/02 Q0995;EQDQ01+000003PRSWM1Q02    003PRSWM1
0124028970999992000061512004+64270+027680FM-12+0136EFKI V0202801N003619999999N0150001N1+01031+00721099651ADDGF105991051999008001999999MD1210161+9999REMSYN072AAXX  15124 02897 4/565 52807 10103 20072 49965 52016 70080 85/// 91150;
0100028970999992000061813504+64270+027680FM-15+0136EFKI V0202501N00211220001CN0099001N1+01201-00101999999ADDMA1102001999999MW1001REMMET048EFKI 181350Z 25004KT 140V310 CAVOK 12/M01 Q1020;EQDQ01+000000PRSWM2
0162028970999992000062816504+64270+027680FM-15+0136EFKI V0203601N001510060019N0112651N1+01801+01501999999ADDGA1071+006009999GA2071+015009999GF107991999999999999999999MA1101191999999MW1001REMMET052EFKI 281650Z 36003KT 9999 BKN020 BKN050 18/15 Q1012;EQDQ01+000000PRSWM2
0222028970999992000070212504+64270+027680FM-15+0136EFKI V0202801N004610138019N0050001N1+01701+01401999999ADDGA1021+010509099GA2071+013809999GA3071+027009999GF107991999999999999999999MA1101021999999MW1811MW2951REMMET074EFKI 021250Z 28009KT 240V320 5000 TSRA SCT035CB BKN046 BKN090 17/14 Q1010;EQDQ01+000003PRSWM1Q02    003PRSWM1
0091028970999992000070716504+64270+027680FM-15+0136EFKI V0203601N00151220001CN0099001N1+01801+00501999999ADDMA1100711999999MW1001REMMET039EFKI 071650Z 36003KT CAVOK 18/05 Q1007;EQDQ01+000000PRSWM2
0099028970999992000071413504+64270+027680FM-15+0136EFKI V0201701N00411220001CN0099001N1+01901+00701999999ADDMA1100611999999MW1001REMMET047EFKI 141350Z 17008KT 110V260 CAVOK 19/07 Q1006;EQDQ01+000000PRSWM2
0147028970999992000071511504+64270+027680FM-15+0136EFKI V0200201N004112200019N0112651N1+02301+01601999999ADDGA1021+007509999GF104991999999999999999999MA1100711999999MW1001REMMET053EFKI 151150Z 02008KT 350V060 9999 SCT025 23/16 Q1007;EQDQ01+000000PRSWM2
0139028970999992000072106504+64270+027680FM-15+0136EFKI V0203001N002010012019N0080001N1+01701+01701999999ADDGA1071+001209999GF107991999999999999999999MA1102101999999MW1001REMMET045EFKI 210650Z 30002KT 8000 BKN004 17/17 Q1021;EQDQ01+000000PRSWM2
0214028970999992000072317504+64270+027680FM-15+0136EFKI V0201601N002610180019N0112651N1+01801+01601999999ADDGA1021+004509999GA2071+018009999GA3071+021009999GF107991999999999999999999MA1101081999999MW1161REMMET072EFKI 231750Z 16005KT 110V210 9999 VCSH FEW015 BKN060 BKN070 18/16 Q1011;EQDQ01+000003PRSWM1Q02    003PRSWM1
0098028970999992000080106504+64270+027680FM-15+0136EFKI V0209999999999220001CN0099001N1+01701+01101999999ADDMA1100911999999MW1001REMMET046EFKI 010650Z 1104KT 070V140 CAVOK 17/11 Q1009;EQDQ01+000000PRSWM2
0193028970999992000080216504+64270+027680FM-15+0136EFKI V0200801N003610060019N0112651N1+01301+01201999999ADDGA1021+004509999GA2071+006009999GA3071+007509999GF107991999999999999999999MA1101191999999MW1001REMMET067EFKI 021650Z 08007KT 040V100 9999 SCT015 BKN020 BKN025 13/12 Q1012;EQDQ01+000000PRSWM2
0196028970999992000080807504+64270+027680FM-15+0136EFKI V0201601N003610210019N0112651N1+01501+00801999999ADDGA1021+009909999GA2021+011409029GA3071+021009999GF107991999999999999999999MA1099801999999MW1001REMMET070EFKI 080750Z 16007KT 110V230 9999 FEW033 SCT038TCU BKN075 15/08 Q0998;EQDQ01+000000PRSWM2
0185028970999992000081213504+64270+027680FM-15+0136EFKI V0201201N003110180019N0112651N1+01501+01401999999ADDGA1021+007509999GA2021+015009999GA3081+018009999GF108991999999999999999999MA1100911999999MW1001REMMET059EFKI 121350Z 12006KT 9999 FEW025 SCT050 OVC060 15/14 Q1009;EQDQ01+000000PRSWM2
0170028970999992000081415504+64270+027680FM-15+0136EFKI V0202901N003610300019N0112651N1+01701+01301999999ADDGA1021+009609999GA2081+030009999GF108991999999999999999999MA1101591999999MW1001REMMET060EFKI 141550Z 29007KT 260V320 9999 FEW032 OVC100 17/13 Q1016;EQDQ01+000000PRSWM2
0170028970999992000081613504+64270+027680FM-15+0136EFKI V0201101N005110021019N0112651N1+01401+01301999999ADDGA1071+002109999GA2081+003009999GF108991999999999999999999MA1100311999999MW1001REMMET060EFKI 161350Z 11010KT 070V150 9999 BKN007 OVC010 14/13 Q1003;EQDQ01+000000PRSWM2
0085028970999992000082221504+64270+027680SAO  +0136EFKI V0209999C000012200019N9999999N1+99999+99999999999ADDMW1001REMAWY067EFKI 222150Z AUTO 07003KT 4400 BR FEW037 SCT043 OVC090 10/09 Q1005;
0124028970999992000082315004+64270+027680FM-12+0136EFKI V0200801N001519999999N0450001N1+01451+00931100471ADDGF107991051999008001999999MD1710021+9999REMSYN072AAXX  23154 02897 4/583 70803 10145 20093 40047 57002 70000 85/// 91450;
0099028970999992000082708504+64270+027680FM-15+0136EFKI V0202101N00261220001CN0099001N1+01701+01101999999ADDMA1102301999999MW1001REMMET047EFKI 270850Z 21005KT 140V280 CAVOK 17/11 Q1023;EQDQ01+000000PRSWM2
0140028970999992000082903004+64270+027680FM-12+0136EFKI V0201801N001012200019N0450001N1+00851+00701102311ADDGA1001+999999999GF100991001001999999001001MD1710051+9999REMSYN072AAXX  29034 02897 4/983 01802 10085 20070 40231 57005 70000 80/// 90250;
0170028970999992000090316504+64270+027680FM-15+0136EFKI V0202801N002110300019N0112651N1+01201+00701999999ADDGA1021+008709999GA2071+030009999GF107991999999999999999999MA1100611999999MW1001REMMET060EFKI 031650Z 28004KT 250V310 9999 FEW029 BKN100 12/07 Q1006;EQDQ01+000000PRSWM2
0181028970999992000090405504+64270+027680FM-15+0136EFKI V02099999999990015019N0040001N1+00701+00601999999ADDGA1021+000609999GA2071+001509999GF107991999999999999999999MA1100811999999MW1101REMMET055EFKI 040550Z VRB01KT 4000 BR FEW002 BKN005 07/06 Q1008;EQDQ01+000003PRSWM1Q02    003PRSWM1
0213028970999992000090912504+64270+027680FM-15+0136EFKI V0202501N002610099019N0112651N1+01301+00901999999ADDGA1021+007509999GA2071+009909999GA3071+015009999GF107991999999999999999999MA1100201999999MW1611REMMET071EFKI 091250Z 25005KT 220V290 9999 -RA SCT025 BKN033 BKN050 13/09 Q1002;EQDQ01+000003PRSWM1Q02    003PRSWM1
0162028970999992000091508504+64270+027680FM-15+0136EFKI V02099999999990180019N0112651N1+00801+00401999999ADDGA1021+006009999GA2071+018009999GF107991999999999999999999MA1102511999999MW1001REMMET052EFKI 150850Z VRB03KT 9999 FEW020 BKN060 08/04 Q1025;EQDQ01+000000PRSWM2
0124028970999992000091512004+64270+027680FM-12+0136EFKI V0200201N000519999999N0400001N1+00871+00021102501ADDGF105991051999012501999999MD1710071+9999REMSYN072AAXX  15124 02897 4/682 50201 10087 20002 40250 57007 70000 85/// 91150;
0182028970999992000092518004+64270+027680FM-12+0136EFKI V0203401N000512200019N0500001N1+00781+00371102641ADDGA1001+999999999GF100991001001999999001001KA1120M+01211KA2999N+00771MD1210131+9999REMSYN088AAXX  25184 02897 4/984 03401 10078 20037 40264 52013 70000 80/// 91750 333 10121 20077;
0124028970999992000093012004+64270+027680FM-12+0136EFKI V0202001N000519999999N0100001N1+01301+01221101831ADDGF107991071999002501999999MD1210021+9999REMSYN072AAXX  30124 02897 4/360 72001 10130 20122 40183 52002 70062 87/// 91150;
0094028970999992000100319504+64270+027680SAO  +0136EFKI V0209999C000012200019N9999999N1+99999+99999999999ADDMW1001REMAWY076EFKI 031950Z AUTO 12004KT 100V170 8000 -RA FEW009 SCT013 BKN019 10/09 Q1014;
0166028970999992000100806004+64270+027680FM-12+0136EFKI V0201401N001019999999N0100001N1+00891+00721103131ADDGF108991081999008001999999KA1120M+00941KA2999N+00521MD1710081+9999REMSYN088AAXX  08064 02897 4/560 81402 10089 20072 40313 57008 70010 88/// 90550 333 10094 20052;
0124028970999992000101721004+64270+027680FM-12+0136EFKI V0201801N001519999999N0300001N1+00621+00371102711ADDGF105991051999012501999999MD1210061+9999REMSYN072AAXX  17214 02897 4/680 51803 10062 20037 40271 52006 70000 85/// 92050;
0190028970999992000101814504+64270+027680FM-15+0136EFKI V0202001N002610021019N0080001N1+00701+00601999999ADDGA1071+002109999GA2071+003309999GF107991999999999999999999MA1102611999999MW1511REMMET064EFKI 181450Z 20005KT 130V260 8000 -DZ BKN007 BKN011 07/06 Q1026;EQDQ01+000003PRSWM1Q02    003PRSWM1
0190028970999992000102413504+64270+027680FM-15+0136EFKI V0201601N003110024019N0060001N1+00901+00801999999ADDGA1021+001209999GA2071+002409999GF107991999999999999999999MA1099701999999MW1611REMMET064EFKI 241350Z 16006KT 110V210 6000 -RA SCT004 BKN008 09/08 Q0997;EQDQ01+000003PRSWM1Q02    003PRSWM1
0193028970999992000102605504+64270+027680FM-15+0136EFKI V0202601N004610042019N0112651N1+00201+00001999999ADDGA1021+002409999GA2071+004209999GA3071+015009999GF107991999999999999999999MA1098611999999MW1001REMMET067EFKI 260550Z 26009KT 230V290 9999 SCT008 BKN014 BKN050 02/00 Q0986;EQDQ01+000000PRSWM2
0217028970999992000102813504+64270+027680FM-15+0136EFKI V0200301N002610132019N0112651N1-00101-00401999999ADDGA1021+005109999GA2021+010209999GA3071+013209999GF107991999999999999999999MA1101391999999MW1851REMMET075EFKI 281350Z 03005KT 360V070 9999 -SHSN FEW017 SCT034 BKN044 M01/M04 Q1014;EQDQ01+000003PRSWM1Q02    003PRSWM1
0147028970999992000110917504+64270+027680FM-15+0136EFKI V0201701N002610024019N0112651N1+00501+00401999999ADDGA1071+002409999GF107991999999999999999999MA1101081999999MW1001REMMET053EFKI 091750Z 17005KT 130V240 9999 BKN008 05/04 Q1011;EQDQ01+000000PRSWM2
0139028970999992000111006504+64270+027680FM-15+0136EFKI V0201301N002610015019N0112651N1+00201+00101999999ADDGA1081+001509999GF108991999999999999999999MA1101391999999MW1001REMMET045EFKI 100650Z 13005KT 9999 OVC005 02/01 Q1014;EQDQ01+000000PRSWM2
0079028970999992000111023504+64270+027680SAO  +0136EFKI V0209999C000019999999N9999999N1+99999+99999999999ADDAA199000021MW1001REMAWY050EFKI 102350Z AUTO 19002KT 9999 OVC010 01/01 Q1013;
0139028970999992000111112504+64270+027680FM-15+0136EFKI V0202301N001010009019N0070001N1+00201+00101999999ADDGA1081+000909999GF108991999999999999999999MA1101291999999MW1001REMMET045EFKI 111250Z 23002KT 7000 OVC003 02/01 Q1013;EQDQ01+000000PRSWM2
0162028970999992000111516504+64270+027680FM-15+0136EFKI V0202001N001510009019N0080001N1+00201+00201999999ADDGA1071+000909999GA2071+006009999GF107991999999999999999999MA1100711999999MW1001REMMET052EFKI 151650Z 20003KT 8000 BKN003 BKN020 02/02 Q1007;EQDQ01+000000PRSWM2
0141028970999992000111709504+64270+027680FM-15+0136EFKI V0202901N000510027019N0112651N1-00101-00301999999ADDGA1071+002709999GF107991999999999999999999MA1102101999999MW1001REMMET047EFKI 170950Z 29001KT 9999 BKN009 M01/M03 Q1021;EQDQ01+000000PRSWM2
0092028970999992000111822504+64270+027680SAO  +0136EFKI V0209999C000012200019N9999999N1+99999+99999999999ADDMW1001REMAWY074EFKI 182250Z AUTO 10009KT 070V130 9999 FEW013 SCT070 OVC090 M04/M06 Q1013;
0141028970999992000112009504+64270+027680FM-15+0136EFKI V0200801N003610069019N0112651N1-00601-00801999999ADDGA1071+006909999GF107991999999999999999999MA1103011999999MW1001REMMET047EFKI 200950Z 08007KT 9999 BKN023 M06/M08 Q1030;EQDQ01+000000PRSWM2
0192028970999992000112611504+64270+027680FM-15+0136EFKI V0201601N002110024019N0060001N1-00101-00201999999ADDGA1071+002409999GA2071+003309999GF107991999999999999999999MA1101591999999MW1711REMMET066EFKI 261150Z 16004KT 090V220 6000 -SN BKN008 BKN011 M01/M02 Q1016;EQDQ01+000003PRSWM1Q02    003PRSWM1
0124028970999992000112612004+64270+027680FM-12+0136EFKI V0201601N001019999999N0060001N1-00131-00241101731ADDGF108991081999002501999999MD1710041+9999REMSYN072AAXX  26124 02897 4/356 81602 11013 21024 40173 57004 77172 88/// 91150;
0166028970999992000112718004+64270+027680FM-12+0136EFKI V0201801N001019999999N0017001N1-00041-00081102031ADDGF108991081999000251999999KA1120M-00021KA2999N-00091MD1210041+9999REMSYN088AAXX  27184 02897 4/017 81802 11004 21008 40203 52004 71010 88/// 91750 333 11002 21009;
0124028970999992000120615004+64270+027680FM-12+0136EFKI V0202101N001519999999N0090001N1+00491+00431100851ADDGF107991071999001501999999MD1710081+9999REMSYN072AAXX  06154 02897 4/259 72103 10049 20043 40085 57008 70020 87/// 91450;
0168028970999992000120805504+64270+027680FM-15+0136EFKI V0202001N001510006019N0025001N1+00301+00201999999ADDGA1081+000609999GF108991999999999999999999MA1100311999999MW1101MW2511REMMET052EFKI 080550Z 20003KT 2500 -DZ BR OVC002 03/02 Q1003;EQDQ01+000003PRSWM1Q02    003PRSWM1
0158028970999992000120902504+64270+027680FM-15+0136EFKI V0203101N002610009019N0050001N1+00001+00001999999ADDGA1071+000909999GF107991999999999999999999MA1100611999999MW1101REMMET048EFKI 090250Z 31005KT 5000 BR BKN003 00/00 Q1006;EQDQ01+000003PRSWM1Q02    003PRSWM1
0187028970999992000120905504+64270+027680FM-15+0136EFKI V0200301N001510039019N0112651N1+00001+00001999999ADDGA1021+002409999GA2071+003909999GA3071+007209999GF107991999999999999999999MA1100711999999MW1001REMMET061EFKI 090550Z 03003KT 9999 SCT008 BKN013 BKN024 M00/M00 Q1007;EQDQ01+000000PRSWM2
0081028970999992000120906504+64270+027680SAO  +0136EFKI V0209999C000012200019N9999999N1+99999+99999999999ADDMW1001REMAWY063EFKI 090650Z AUTO 05003KT 9000 -SN FEW006 BKN028 M01/M01 Q1007;
0124028970999992000121512004+64270+027680FM-12+0136EFKI V0201201N001019999999N0450001N1+00021-00041099791ADDGF107991071999001501999999MD1210071+9999REMSYN072AAXX  15124 02897 4/283 71202 10002 21004 49979 52007 70010 87/// 91150;
0212028970999992000121704504+64270+027680FM-15+0136EFKI V0200801N001510051019N0070001N1-00201-00301999999ADDGA1021+003309999GA2071+005109999GA3071+006309999GF107991999999999999999999MA1100711999999MW1711REMMET070EFKI 170450Z AUTO 08003KT 7000 -SN SCT011 BKN017 BKN021 M02/M03 Q1007;EQDQ01+000003PRSWM1Q02    003PRSWM1
0154028970999992000121901504+64270+027680FM-15+0136EFKI V0203001N002110012019N0112651N1-00501-00601999999ADDGA1081+001209999GF108991999999999999999999MA1102201999999MW1001REMMET060EFKI 190150Z AUTO 30004KT 270V340 9999 OVC004 M05/M06 Q1022;EQDQ01+000000PRSWM2
0124028970999992000122703004+64270+027680FM-12+0136EFKI V0200801N001019999999N0022001N1-01631-01821100621ADDGF108991081999008001999999MD1710011+9999REMSYN072AAXX  27034 02897 4/522 80802 11163 21182 40062 57001 77177 88/// 90250;
0184028970999992000122705504+64270+027680FM-15+0136EFKI V0200901N002610036019N0025001N1-01501-01601999999ADDGA1021+001509999GA2071+003609999GF107991999999999999999999MA1100311999999MW1711REMMET058EFKI 270550Z 09005KT 2500 -SN SCT005 BKN012 M15/M16 Q1003;EQDQ01+000003PRSWM1Q02    003PRSWM1
0093028970999992000122812504+64270+027680FM-15+0136EFKI V0201101N00101220001CN0099001N1-01701-01801999999ADDMA1101081999999MW1001REMMET041EFKI 281250Z 11002KT CAVOK M17/M18 Q1011;EQDQ01+000000PRSWM2
0240029050999992000022306004+63920+024970FM-12+008199999V0209999C000010012019N0060001N1-01161-01301102681ADDAA112000191AJ100449199999999AY171061AY221061GF108991081061001501999999IA2999-01409KA1120M-01021KA2120N-01161MD1210051+9999MW1701REMSYN100AAXX  23064 02905 11256 80000 11116 21130 40268 52005 69922 77072 886// 333 11102 21116 3/114 47044;
0140029050999992000030200004+63920+024970FM-12+008199999V0200801N001510012019N0010001N1+00041-00011097541ADDAY171061AY251061GF108991071071001501999999MD1710291+9999MW1691REMSYN066AAXX  02004 02905 41210 80803 10004 21001 49754 57029 76975 877//;
0140029050999992000030312004+63920+024970FM-12+008199999V0201401N001012200019N0300001N1-00591-00731098951ADDAY101061AY201061GF102991001001999999001051MD1810131+9999MW1021REMSYN066AAXX  03124 02905 42980 21402 11059 21073 49895 58013 70200 80005;
0140029050999992000031415004+63920+024970FM-12+008199999V0202101N001010012019N0020001N1+00101-00031098891ADDAY171031AY221031GF108991081071001501999999MD1810091+9999MW1681REMSYN066AAXX  14154 02905 41220 82102 10010 21003 49889 58009 76872 887//;
0140029050999992000040315004+63920+024970FM-12+008199999V0202401N002112200019N0300001N1-00051-00491101311ADDAY111031AY211031GF104991031051004501071001MD1710151+9999MW1021REMSYN066AAXX  03154 02905 42480 42404 11005 21049 40131 57015 70211 83570;
0140029050999992000041215004+63920+024970FM-12+008199999V0202401N000510075019N0200001N1+00671-00141100751ADDAY181031AY221031GF106991061031008001001001MD1710101+9999MW1021REMSYN066AAXX  12154 02905 41570 62401 10067 21014 40075 57010 70282 86300;
0140029050999992000041509004+63920+024970FM-12+008199999V0202801N002610012019N0008001N1+00131+00111099471ADDAY171031AY241031GF108991081061001501999999MD1210251+9999MW1461REMSYN066AAXX  15094 02905 41208 82805 10013 20011 49947 52025 74674 886//;
0140029050999992000042615004+63920+024970FM-12+008199999V0203201N002112200019N0300001N1+00931-00181101761ADDAY111031AY211031GF103991031021008001001001MD1210161+9999MW1021REMSYN066AAXX  26154 02905 42580 33204 10093 21018 40176 52016 70211 83200;
0140029050999992000051815004+63920+024970FM-12+008199999V0201701N003112200019N0200001N1+02221+00741100651ADDAY101031AY201031GF101991001001999999001011MD1710071+9999MW1021REMSYN066AAXX  18154 02905 42970 11706 10222 20074 40065 57007 70200 80001;
0140029050999992000052121004+63920+024970FM-12+008199999V0201401N001512200019N0300001N1+00801+00421100551ADDAY101031AY201031GF102991011041017501001041MD1210041+9999MW1021REMSYN066AAXX  21214 02905 42780 21403 10080 20042 40055 52004 70200 81404;
0211029050999992000052918004+63920+024970FM-12+008199999V0201801N001010012019N0080001N1+01251+01221100251ADDAA112006191AY181061AY251061GF108991081061001501999999IA1119KA1120M+01701KA2120N+01091MD1410001+9999MW1101REMSYN094AAXX  29184 02905 11258 81802 10125 20122 40025 54000 60062 71085 886// 333 10170 20109 32///;
0140029050999992000060303004+63920+024970FM-12+008199999V0201301N001010012019N0015001N1+00941+00901099741ADDAY161031AY221031GF108991081061001501999999MD1710341+9999MW1021REMSYN066AAXX  03034 02905 41215 81302 10094 20090 49974 57034 70262 886//;
0140029050999992000060621004+63920+024970FM-12+008199999V0200801N001012200019N0300001N1+00921+00621101621ADDAY101031AY201031GF103991031041017501001001MD1710031+9999MW1021REMSYN066AAXX  06214 02905 42780 30802 10092 20062 40162 57003 70200 83400;
0223029050999992000061206004+63920+024970FM-12+008199999V0202401N002612200019N0200001N1+01491+00871099761ADDAA112000191AY101061AY201061GF101991001001999999001011IA1099IA2999+01009KA1120M+01551KA2120N+01251MD1310041+9999MW1021REMSYN094AAXX  12064 02905 12970 12405 10149 20087 49976 53004 69912 70200 80001 333 10155 20125 31010;
0140029050999992000061321004+63920+024970FM-12+008199999V0202401N004612200019N0200001N1+01231+01031099181ADDAY181031AY211031GF102991021031008001001001MD1610221+9999MW1021REMSYN066AAXX  13214 02905 41570 22409 10123 20103 49918 56022 70281 82300;
0140029050999992000062521004+63920+024970FM-12+008199999V0200701N001012200019N0150001N1+01621+01471100931ADDAY181031AY211031GF103991021031008001041001MD1810021+9999MW1021REMSYN066AAXX  25214 02905 41565 30702 10162 20147 40093 58002 70281 82340;
0206029100999992000011818004+63430+021070FM-12+000899999V0203501N006719999999N0450001N1-00411-00601100871ADDAA112000891AW1851AZ181061KA1120M-00311KA2120N-00491MA1999999100731MD1210211+9999REMSYN114    AAXX  18184 02910 14/83 /3513 11041 21060 30073 40087 52021 69972 78587 91739 333 11031 21049 555 787/7 0/516;
0123029100999992000013021004+63430+021070FM-12+000899999V0203101N009819999999N0500001N1-00331-00891097671ADDMA1999999097531MD1210461+9999REMSYN082AAXX  30214 02910 45/99 /3119 11033 21089 39753 49767 52046 92039 555 765// 0/321;
0129029100999992000020521004+63430+021070FM-12+000899999V0201901N003119999999N0350001N1+00031-00121100371ADDMA1999999100231MD1710171+9999REMSYN088AAXX  05214 02910 44/81 /1906 10003 21012 30023 40037 57017 7//8/ 92039 555 789// 0/309;
0187029100999992000021503004+63430+021070FM-12+000899999V0202501N002112200019N0400001N1-00241-00431100041ADDAY101031AY201031GA1001+999999999GF100991001001999999001001MA1999999099911MD1710041+9999MW1021REMSYN082AAXX  15034 02910 42982 02504 11024 21043 39991 40004 57004 70200 555 787// 0/105;
0278029100999992000021506004+63430+021070FM-12+000899999V0202701N001012200019N0300001N1-00361-00471099941ADDAA199000091AJ100069199999999AY101061AY201061GF101991011001017501041001IA1309KA1120M-00031KA2120N-00371MA1999999099801MD1710111+9999MW1031REMSYN110AAXX  15064 02910 32780 12702 11036 21047 39980 49994 57011 70300 81040 333 11003 21037 42006 555 792// 0/604;EQDQ01  00002PRCP99
0202029100999992000030118004+63430+021070FM-12+000899999V0201301N001019999999N0013001N1+00031+00011097881ADDAA112005191AW1711AZ181061KA1120M+00111KA2120N+00031MA1999999097741MD1710141+9999REMSYN110AAXX  01184 02910 14/13 /1302 10003 20001 39774 49788 57014 60052 77187 91739 333 10011 20003 555 798/3 0/604;
0123029100999992000030621004+63430+021070FM-12+000899999V0202701N002619999999N9999999N1-00221-00241097691ADDMA1999999097561MD1710081+9999REMSYN082AAXX  06214 02910 45/// /2705 11022 21024 39756 49769 57008 92039 555 798// 0/507;
0278029100999992000032106004+63430+021070FM-12+000899999V0202301N003612200019N0300001N1-00021-00211100711ADDAA199000091AJ100219199999999AY111061AY211061GF104991011041012501041001IA1279KA1120M+00251KA2120N-00051MA1999999100571MD1410001+9999MW1031REMSYN110AAXX  21064 02910 32680 42307 11002 21021 30057 40071 54001 70311 81440 333 10025 21005 43021 555 787// 02609;EQDQ01  00002PRCP99
0123029100999992000033021004+63430+021070FM-12+000899999V0202401N003119999999N0500001N1+00191+00031100481ADDMA1999999100341MD1410001+9999REMSYN082AAXX  30214 02910 45/99 /2406 10019 20003 30034 40048 54002 92039 555 789// 0/609;
0195029100999992000050606004+63430+021070FM-12+000899999V0203301N003119999999N0500001N1+00501+00161102161ADDAA199000091KA1120M+00681KA2120N+00291MA1999999102021MD1210341+9999REMSYN098AAXX  06064 02910 35/99 /3306 10050 20016 30202 40216 52034 90539 333 10068 20029 555 779// 0/408;EQDQ01  00002PRCP99
0177029100999992000060300004+63430+021070FM-12+000899999V0201301N001510075019N0150001N1+00971+00861099811ADDAY161061AY221061GF108991051051008001071999MA1999999099681MD1710381+9999MW1601REMSYN088AAXX  03004 02910 41565 81303 10097 20086 39968 49981 57038 76062 8557/ 555 793// 02605;
0248029100999992000061006004+63430+021070FM-12+000899999V0201801N003612200019N0400001N1+01101+00691101771ADDAA112000791AY101061AY201061GF103991021021022501041011IA1019KA1120M+01131KA2120N+00781MA1999999101631MD1710051+9999MW1011REMSYN116AAXX  10064 02910 12882 31807 10110 20069 30163 40177 57005 69902 70100 82241 333 10113 20078 30/// 555 776/0 03007;
0202029100999992000061318004+63430+021070FM-12+000899999V0202001N007219999999N0100001N1+01091+01021099231ADDAA112005191AW1801AZ181061KA1120M+01351KA2120N+01031MA1999999099101MD1710451+9999REMSYN110AAXX  13184 02910 14/60 /2014 10109 20102 39910 49923 57045 60052 78086 91739 333 10135 20103 555 795/6 0/216;
0123029100999992000062812004+63420+021700FM-12+000899999V0202201N002119999999N0160001N1+01421+01271101211ADDMA1999999101081MD1210141+9999REMSYN082AAXX  28124 02910 45/66 /2204 10142 20127 30108 40121 52014 91139 555 791// 0/605;
0129029100999992000091403004+63420+021060FM-12+000899999V0200201N003619999999N0500001N1+00951+00641102101ADDMA1999999101961MD1410001+9999REMSYN088AAXX  14034 02910 44/99 /0207 10095 20064 30196 40210 54001 7//8/ 90239 555 781// 0/109;
0129029100999992000101700004+63420+021060FM-12+000899999V0201601N003119999999N0130001N1+00901+00771102551ADDMA1999999102411MD1710061+9999REMSYN088AAXX  17004 02910 44/63 /1606 10090 20077 30241 40255 57006 7//86 92339 555 792// 0/006;
0196029100999992000103103004+63420+021060FM-12+000899999V0201201N006710042019N0030001N1+00211+00121098781ADDAY161031AY221031GF108991081071004501999999MA1999999098641MD1710512+9999MW1651REMSYN088AAXX  31034 02910 41430 81213 10021 20012 39864 49878 57051 76562 887// 555 794// 05617;EQDQ01+000512APC3  
0135029100999992000120703004+63420+021060FM-12+000899999V0202101N003619999999N0060001N1+00591+00591100831ADDAW1101MA1999999100691MD1210031+9999REMSYN088AAXX  07034 02910 44/56 /2107 10059 20059 30069 40083 52003 710// 90239 555 700// 0/609;
0177029100999992000122200004+63420+021060FM-12+000899999V0202601N003110075019N0250001N1+00031-00181101961ADDAY121061AY221061GF108991061051008001071999MA1999999101821MD1710291+9999MW1021REMSYN088AAXX  22004 02910 42575 82606 10003 21018 30182 40196 57029 70222 8657/ 555 786// 02408;
0148029110999992000010614504+63050+021770FM-15+0004EFVA V0202001N009310033019N0112651N1+00201+00001999999ADDGA1081+003309999GF108991999999999999999999MA1099591999999MW1001OC101541REMMET046EFVA 1450Z 20018G30KT 9999 OVC011 02/00 Q0996;EQDQ01+000000PRSWM2
0162029110999992000010623504+63050+021770FM-15+0004EFVA V0202001N008710042019N0090001N1+00401+00201999999ADDGA1071+004209999GF107991999999999999999999MA1098981999999MW1611REMMET052EFVA 2350Z AUTO 20017KT 9000 -RA BKN014 04/02 Q0990;EQDQ01+000003PRSWM1Q02    003PRSWM1
0090029110999992000010910504+63050+021770FM-15+0004EFVA V0202201N00571220001CN0099001N1+00301-00101999999ADDMA1100001999999MW1001REMMET038EFVA 1050Z 22011KT CAVOK 03/M01 Q1000;EQDQ01+000000PRSWM2
0091029110999992000011507504+63050+021770FM-15+0004EFVA V0202401N00311220001CN0099001N1-00201-00201999999ADDMA1101591999999MW1001REMMET039EFVA 0750Z 24006KT CAVOK M02/M02 Q1016;EQDQ01+000000PRSWM2
0170029110999992000011913504+63050+021770FM-15+0004EFVA V0203201N003612200019N0112651N1-00501-00901999999ADDGA1021+009009999GA2021+060009999GF104991999999999999999999MA1100911999999MW1001REMMET060EFVA 1350Z 32007KT 280V350 9999 FEW030 SCT200 M05/M09 Q1009;EQDQ01+000000PRSWM2
0091029110999992000011918504+63050+021770FM-15+0004EFVA V0202701N00261220001CN0099001N1-01101-01101999999ADDMA1100811999999MW1001REMMET039EFVA 1850Z 27005KT CAVOK M11/M11 Q1008;EQDQ01+000000PRSWM2
0184029110999992000012907494+63050+021770FM-15+0004EFVA V0201601N006210030019N0070001N1-00201-00301999999ADDGA1071+003009999GA2081+007809999GF108991999999999999999999MA1098101999999MW1711REMMET058EFVA 290749Z 16012KT 7000 -SN BKN010 OVC026 M02/M03 Q0981;EQDQ01+000003PRSWM1Q02    003PRSWM1
0183029110999992000020606494+63050+021770FM-15+0004EFVA V0201701N005110015019N0112651N1+00101+00001999999ADDGA1071+001509999GA2081+002109999GF108991999999999999999999MA1099391999999MW1611REMMET057EFVA 060649Z 17010KT 9999 -RA BKN005 OVC007 01/M00 Q0994;EQDQ01+000003PRSWM1Q02    003PRSWM1
0183029110999992000020607494+63050+021770FM-15+0004EFVA V0201601N006210012019N0112651N1+00101+00001999999ADDGA1071+001209999GA2081+001809999GF108991999999999999999999MA1099191999999MW1611REMMET057EFVA 060749Z 16012KT 9999 -RA BKN004 OVC006 01/M00 Q0992;EQDQ01+000003PRSWM1Q02    003PRSWM1
0151029110999992000021017524+63050+021770FM-15+0004EFVA V0201901N011310048019N0112651N1+00201+00001999999ADDGA1081+004809999GF108991999999999999999999MA1098921999999MW1001OC101701REMMET049EFVA 101752Z 19022G33KT 9999 OVC016 02/M00 Q0989;EQDQ01+000000PRSWM2
0091029110999992000021702004+63050+021770SAO  +0004EFVA V0209999C000012200019N9999999N1+99999+99999999999ADDMW1001REMAWY073EFVA 170220Z AUTO 22001KT 9999 FEW004 SCT006 BKN025 OVC030 M03/M04 Q0997;
0141029110999992000022209504+63050+021770FM-15+0004EFVA V0202701N000510054019N0112651N1-01001-01101999999ADDGA1081+005409999GF108991999999999999999999MA1102301999999MW1001REMMET047EFVA 220950Z 27001KT 9999 OVC018 M10/M11 Q1023;EQDQ01+000000PRSWM2
0184029110999992000022518504+63050+021770FM-15+0004EFVA V0201101N002110084019N0060001N1-00801-00901999999ADDGA1071+008409999GA2081+012909999GF108991999999999999999999MA1100811999999MW1711REMMET058EFVA 251850Z 11004KT 6000 -SN BKN028 OVC043 M08/M09 Q1008;EQDQ01+000003PRSWM1Q02    003PRSWM1
0093029110999992000031421504+63050+021770FM-15+0004EFVA V0202001N00101220001CN0099001N1-00601-00601999999ADDMA1099391999999MW1001REMMET041EFVA 142150Z 20002KT CAVOK M06/M06 Q0994;EQDQ01+000000PRSWM2
0093029110999992000031516504+63050+021770FM-15+0004EFVA V0202201N00101220001CN0099001N1-00401-00701999999ADDMA1100411999999MW1001REMMET041EFVA 151650Z 22002KT CAVOK M04/M07 Q1004;EQDQ01+000000PRSWM2
0092029110999992000040910504+63050+021770FM-15+0004EFVA V0209999999999220001CN0099001N1+00701-00601999999ADDMA1102201999999MW1001REMMET040EFVA 091050Z VRB01KT CAVOK 07/M06 Q1022;EQDQ01+000000PRSWM2
0093029110999992000041002204+63050+021770FM-15+0004EFVA V0202001N00261220001CN0099001N1+00001-00501999999ADDMA1101491999999MW1001REMMET041EFVA 100220Z 20005KT CAVOK M00/M05 Q1015;EQDQ01+000000PRSWM2
0185029110999992000042314504+63050+021770FM-15+0004EFVA V0201001N001010180019N0112651N1+01001+00801999999ADDGA1021+014109999GA2071+018009999GA3081+024009999GF108991999999999999999999MA1101191999999MW1001REMMET059EFVA 231450Z 10002KT 9999 FEW047 BKN060 OVC085 10/08 Q1012;EQDQ01+000000PRSWM2
0162029110999992000042905504+63050+021770FM-15+0004EFVA V0200501N001010069019N0112651N1+00601+00301999999ADDGA1071+006909999GA2071+009009999GF107991999999999999999999MA1102511999999MW1001REMMET052EFVA 290550Z 05002KT 9999 BKN023 BKN030 06/03 Q1025;EQDQ01+000000PRSWM2
0147029110999992000042911504+63050+021770FM-15+0004EFVA V0201101N002110096019N0112651N1+01001+00401999999ADDGA1081+009609999GF108991999999999999999999MA1102401999999MW1001REMMET053EFVA 291150Z 11004KT 050V170 9999 OVC032 10/04 Q1024;EQDQ01+000000PRSWM2
0100029110999992000043014504+63050+021770FM-15+0004EFVA V0203501N00621220001CN0099001N1+00601-00301999999ADDMA1103121999999MW1001REMMET048EFVA 301450Z 35012KT 330V040 CAVOK 06/M03 Q1031;EQDQ01+000000PRSWM2
0100029110999992000050405504+63050+021770FM-15+0004EFVA V0203501N00571220001CN0099001N1+00501-00201999999ADDMA1101901999999MW1001REMMET048EFVA 040550Z 35011KT 320V020 CAVOK 05/M02 Q1019;EQDQ01+000000PRSWM2
0099029110999992000051017504+63050+021770FM-15+0004EFVA V0202801N00361220001CN0099001N1+01001+00201999999ADDMA1101191999999MW1001REMMET047EFVA 101750Z 28007KT 250V320 CAVOK 10/02 Q1012;EQDQ01+000000PRSWM2
0091029110999992000051814504+63050+021770FM-15+0004EFVA V0202901N00621220001CN0099001N1+01601+00601999999ADDMA1100411999999MW1001REMMET039EFVA 181450Z 29012KT CAVOK 16/06 Q1004;EQDQ01+000000PRSWM2
0215029110999992000052214504+63050+021770FM-15+0004EFVA V0202301N002610036019N0112651N1+01101+01001999999ADDGA1021+001509999GA2071+003609999GA3081+006009099GF108991999999999999999999MA1100911999999MW1511REMMET073EFVA 221450Z 23005KT 170V270 9999 -DZ SCT005 BKN012 OVC020CB 11/10 Q1009;EQDQ01+000003PRSWM1Q02    003PRSWM1
0099029110999992000052817504+63050+021770FM-15+0004EFVA V0201901N00571220001CN0099001N1+01401+00501999999ADDMA1100711999999MW1001REMMET047EFVA 281750Z 19011KT 150V230 CAVOK 14/05 Q1007;EQDQ01+000000PRSWM2
0170029110999992000052915504+63050+021770FM-15+0004EFVA V0201401N003110039019N0112651N1+01201+01001999999ADDGA1021+002709999GA2081+003909999GF108991999999999999999999MA1100201999999MW1001REMMET060EFVA 291550Z 14006KT 110V170 9999 SCT009 OVC013 12/10 Q1002;EQDQ01+000000PRSWM2
0099029110999992000053112504+63050+021770FM-15+0004EFVA V0201801N00621220001CN0099001N1+01401+00301999999ADDMA1100711999999MW1001REMMET047EFVA 311250Z 18012KT 150V220 CAVOK 14/03 Q1007;EQDQ01+000000PRSWM2
0091029110999992000060606504+63050+021770FM-15+0004EFVA V0203301N00411220001CN0099001N1+01201+00601999999ADDMA1101801999999MW1001REMMET039EFVA 060650Z 33008KT CAVOK 12/06 Q1018;EQDQ01+000000PRSWM2
0099029110999992000061919504+63500+021760FM-15+0004EFVA V0201701N00621220001CN0099001N1+01501+01001999999ADDMA1100811999999MW1001REMMET047EFVA 191950Z 17012KT 150V220 CAVOK 15/10 Q1008;EQDQ01+000000PRSWM2
0099029110999992000062204504+63500+021760FM-15+0004EFVA V0201801N00411220001CN0099001N1+01601+00701999999ADDMA1100911999999MW1001REMMET047EFVA 220450Z 18008KT 150V220 CAVOK 16/07 Q1009;EQDQ01+000000PRSWM2
0170029110999992000062308504+63500+021760FM-15+0004EFVA V0202001N005710036019N0112651N1+01501+01301999999ADDGA1021+002709999GA2071+003609999GF107991999999999999999999MA1100611999999MW1001REMMET060EFVA 230850Z 20011KT 180V250 9999 SCT009 BKN012 15/13 Q1006;EQDQ01+000000PRSWM2
0139029110999992000070106504+63500+021760FM-15+0004EFVA V0201701N001010057019N0112651N1+01701+01301999999ADDGA1081+005709999GF108991999999999999999999MA1101291999999MW1001REMMET045EFVA 010650Z 17002KT 9999 OVC019 17/13 Q1013;EQDQ01+000000PRSWM2
0170029110999992000070913504+63500+021760FM-15+0004EFVA V0202201N005710600019N0112651N1+01501+00601999999ADDGA1021+010509999GA2071+060009999GF107991999999999999999999MA1099901999999MW1001REMMET060EFVA 091350Z 22011KT 200V270 9999 FEW035 BKN200 15/06 Q0999;EQDQ01+000000PRSWM2
0091029110999992000071508504+63500+021760FM-15+0004EFVA V0200501N00211220001CN0099001N1+01501+01101999999ADDMA1100711999999MW1001REMMET039EFVA 150850Z 05004KT CAVOK 15/11 Q1007;EQDQ01+000000PRSWM2
0162029110999992000071812504+63050+021760FM-15+0004EFVA V0200901N004110600019N0112651N1+02401+01501999999ADDGA1021+010509999GA2071+060009999GF107991999999999999999999MA1100411999999MW1001REMMET052EFVA 181250Z 09008KT 9999 FEW035 BKN200 24/15 Q1004;EQDQ01+000000PRSWM2
0185029110999992000072310504+63050+021760FM-15+0004EFVA V0203401N004110150019N0090001N1+01901+01801999999ADDGA1021+001509999GA2071+015009999GA3071+033009999GF107991999999999999999999MA1100811999999MW1001REMMET059EFVA 231050Z 34008KT 9000 SCT005 BKN050 BKN110 19/18 Q1008;EQDQ01+000000PRSWM2
