0157039200999992000121108004+54800-006170FM-12+003899999V0202101N003112200019N0300001N1+00751+00501100261ADDGA1011+015009059GF102991011051017501999011MD1110391+9999REMSYN070AAXX  11084 03920 42780 22106 10075 20050 40026 51039 81501 333 81650;EQDQ01    003SCOMCG
0144039200999992000121201004+54800-006170FM-12+003899999V0202101N00361030001CN0300001N1+01081+00841099861ADDGA1011+003009079GF106991021051004501031999MD1610031+9999REMSYN076AAXX  12014 03920 42480 62107 10108 20084 49986 56003 8253/ 333 81710 85363;
0166039200999992000121408004+54800-006170FM-12+003899999V0202701N003610001519N0007001N1+00141+00141100141ADDAY141999AY221999GA1071+000159069GF107991071061000251999999MD1710071+9999MW1461REMSYN076AAXX  14084 03920 41007 72707 10014 20014 40014 57007 74642 876// 333 87700;
0172039200999992000121503004+54800-006170FM-12+003899999V0203101N00151009001CN0400001N1+00291+00101101011ADDAY181031AY211031GA1041+004509089GF107991071081004501999999MD1310141+9999MW1031REMSYN082AAXX  15034 03920 41482 73103 10029 20010 40101 53014 70381 878// 333 84815 86632;
0172039200999992000121609004+54800-006170FM-12+003899999V0202701N004610012019N0050001N1+00341+00271101091ADDAY171031AY261031GA1051+001209079GF108991081071001501999999MD1310051+9999MW1511REMSYN082AAXX  16094 03920 41250 82709 10034 20027 40109 53005 75176 887// 333 85704 88710;
0144039200999992000121814004+54800-006170FM-12+003899999V0200801N00211009001CN0130001N1+00721+00591101091ADDGA1031+004809089GF107991071081004501999999MD1010021+9999REMSYN076AAXX  18144 03920 42463 70804 10072 20059 40109 50002 878// 333 83816 86640;
0166039200999992000122215004+54800-006170FM-12+003899999V0200901N004610039019N0050001N1+00741+00491101291ADDAY121031AY221031GA1081+003909069GF108991081061004501999999MD1710151+9999MW1051REMSYN076AAXX  22154 03920 41450 80909 10074 20049 40129 57015 70522 886// 333 88713;
0222039200999992000122411004+54800-006170FM-12+003899999V0200701N007210075019N0300001N1+00571-00091100771ADDAY181999AY221999GA1011+005409089GA2051+007509069GA3071+014709069GF107991071081004501999999MD1210111+9999MW1251REMSYN100AAXX  24114 03920 41480 70714 10057 21009 40077 52011 72582 878// 333 81818 85625 87649 90710 91130;
0242039200999992000122715004+54800-006170FM-12+003899999V0201601N001510045019N0010001N1+00011-00051099231ADDAJ199993999999999AY171031AY221031GA1021+001209079GA2061+004509069GF108991081051001501999999IA1309MD1710171+9999MW1711REMSYN094AAXX  27154 03920 41210 81603 10001 21005 49923 57017 77172 885// 333 42997 82704 86615 88650;EQDQ01  09982SNDP  
0096039230999992000010307004+54230-006500FM-12+016199999V0202401N006719999999N0220001N1+00591+00191101071ADDMD1210161+9999REMSYN070AAXX  03074 03923 46572 /2413 10059 20019 40107 52016 555 82/29 90652;
0096039230999992000011204004+54230-006500FM-12+016199999V0202001N003119999999N0090001N1+00501+00451101641ADDMD1710101+9999REMSYN070AAXX  12044 03923 46159 /2006 10050 20045 40164 57010 555 87/02 90352;
0148039230999992000011318004+54230-006500FM-12+016199999V0203501N008219999999N0220001N1+00441+00181102111ADDAA112000591KA1120M+00571MD1210261+9999REMSYN098AAXX  13184 03923 16572 /3516 10044 20018 40211 52026 69962 333 10057 555 84/22 82/35 82/49 91753;
0100039230999992000011715004+54230-006500FM-12+016199999V0203301N005119999999N0140001N1+00781+00601104141ADDMD1710091+9999REMSYN074    AAXX  17154 03923 46364 /3310 10078 20060 40414 57009 555 88/06 91453;
0100039230999992000011720004+54230-006500FM-12+016199999V0203501N004619999999N0050001N1+00661+00571104151ADDMD1410001+9999REMSYN074    AAXX  17204 03923 46150 /3509 10066 20057 40415 54000 555 88/02 91953;
0096039230999992000012017004+54230-006500FM-12+016199999V0202901N003619999999N0160001N1+00551+00431103511ADDMD1210081+9999REMSYN070AAXX  20174 03923 46666 /2907 10055 20043 40351 52008 555 87/30 91653;
0136039230999992000012118004+54230-006500FM-12+016199999V0203001N005719999999N0270001N1+00491+00291103431ADDAA112000191KA1120M+00721MD1710101+9999REMSYN086AAXX  21184 03923 16977 /3011 10049 20029 40343 57010 69922 333 10072 555 80/99 91753;
0096039230999992000012522004+54230-006500FM-12+016199999V0209999C000019999999N0090001N1+00231+00151103131ADDMD1210021+9999REMSYN070AAXX  25224 03923 46459 /0000 10023 20015 40313 52002 555 88/18 92154;
0114039230999992000012907004+54230-006500FM-12+016199999V0202601N009819999999N0045001N1+00951+00691098991ADDMD1210011+9999REMSYN088AAXX  29074 03923 46445 /2619 10095 20069 49899 52001 555 1//43 81/19 86/22 82/50 90654;
0114039230999992000013020004+54230-006500FM-12+016199999V0202401N010819999999N0140001N1+00981+00721100421ADDMD1710061+9999REMSYN088AAXX  30204 03923 46464 /2421 10098 20072 40042 57006 555 1//36 86/13 81/24 84/50 91954;
0090039230999992000020901004+54230-006500FM-12+016199999V0202601N007219999999N9999999N1+00271+00021101181ADDMD1210341+9999REMSYN064AAXX  09014 03923 46/// /2614 10027 20002 40118 52034 555 90055;
0102039230999992000021001004+54230-006500FM-12+016199999V0201801N012919999999N0060001N1+00791+00681099591ADDMD1710611+9999REMSYN076AAXX  10014 03923 46356 /1825 10079 20068 49959 57061 555 1//38 88/08 90055;
0118039230999992000021009004+54230-006500FM-12+016199999V0202501N007719999999N0250001N1+00161-00121100321ADDIA2999-00109MD1210501+9999REMSYN080AAXX  10094 03923 46275 /2515 10016 21012 40032 52050 333 3/101 555 81/05 90855;
0108039230999992000021221004+54230-006500FM-12+016199999V0202401N005719999999N0110001N1+00271+00081101061ADDMD1210051+9999REMSYN082AAXX  12214 03923 46361 /2411 10027 20008 40106 52005 555 81/09 81/13 83/25 92055;
0096039230999992000030404004+54230-006500FM-12+016199999V0202701N003619999999N0270001N1+00011-00191102541ADDMD1210141+9999REMSYN070AAXX  04044 03923 46777 /2707 10001 21019 40254 52014 555 81/56 90357;
0096039230999992000030508004+54230-006500FM-12+016199999V0202001N004619999999N0130001N1-00041-00151102831ADDMD1710091+9999REMSYN070AAXX  05084 03923 46663 /2009 11004 21015 40283 57009 555 81/34 90757;
0096039230999992000031908004+54230-006500FM-12+016199999V0202601N000519999999N0260001N1+00851+00511103801ADDMD1710021+9999REMSYN070AAXX  19084 03923 46976 /2601 10085 20051 40380 57002 555 80/99 90752;
0102039230999992000032217004+54230-006500FM-12+016199999V0200201N002619999999N0190001N1+00691+00111101611ADDMD1710071+9999REMSYN076AAXX  22174 03923 46569 /0205 10069 20011 40161 57007 555 84/28 87/37 91652;
0113039230999992000032312004+54230-006500FM-12+016199999V0201301N004619999999N0021001N1+00741+00651100601ADDAA106000191MD1710251+9999REMSYN076AAXX  23124 03923 16221 /1309 10074 20065 40060 57025 69921 555 87/03 91152;
0096039230999992000032520004+54230-006500FM-12+016199999V0202001N004119999999N0230001N1+00381+00171100401ADDMD1210021+9999REMSYN070AAXX  25204 03923 46973 /2008 10038 20017 40040 52002 555 80/99 91953;
0096039230999992000032703004+54230-006500FM-12+016199999V0203401N002619999999N0140001N1+00301+00171101961ADDMD1210201+9999REMSYN070AAXX  27034 03923 46964 /3405 10030 20017 40196 52020 555 80/99 90253;
0096039230999992000032705004+54230-006500FM-12+016199999V0203401N002619999999N0050001N1+00221+00141102051ADDMD1210151+9999REMSYN070AAXX  27054 03923 46950 /3405 10022 20014 40205 52015 555 80/99 90453;
0108039230999992000033113004+54230-006500FM-12+016199999V0201501N002119999999N0150001N1+00911+00351100481ADDMD1710181+9999REMSYN082AAXX  31134 03923 46465 /1504 10091 20035 40048 57018 555 81/15 82/18 87/25 91253;
0096039230999992000033121004+54230-006500FM-12+016199999V0201901N002619999999N0050001N1+00471+00291100161ADDMD1710041+9999REMSYN070AAXX  31214 03923 46650 /1905 10047 20029 40016 57004 555 82/32 92053;
0119039230999992000041100004+54230-006500FM-12+016199999V0202501N003619999999N0230001N1+00491+00291100521ADDAA106001091MD1710491+9999REMSYN082AAXX  11004 03923 16473 /2507 10049 20029 40052 57049 60011 555 81/16 84/22 92352;
0102039230999992000041713004+54230-006500FM-12+016199999V0200101N004119999999N0100001N1+00471+00241099071ADDMD1210041+9999REMSYN076AAXX  17134 03923 46460 /0108 10047 20024 49907 52004 555 87/14 85/24 91252;
0096039230999992000041907004+54230-006500FM-12+016199999V0201701N001519999999N0090001N1+00471+00371100191ADDMD1710011+9999REMSYN070AAXX  19074 03923 46959 /1703 10047 20037 40019 57001 555 80/99 90652;
0096039230999992000042001004+54230-006500FM-12+016199999V0201801N007219999999N0180001N1+00791+00631099271ADDMD1210081+9999REMSYN070AAXX  20014 03923 46968 /1814 10079 20063 49927 52008 555 80/99 90052;
0108039230999992000042313004+54230-006500FM-12+016199999V0201501N006219999999N0200001N1+01101+00831100541ADDMD1710031+9999REMSYN082AAXX  23134 03923 46470 /1512 10110 20083 40054 57003 555 85/10 82/16 81/19 91253;
0096039230999992000043002004+54230-006500FM-12+016199999V0202101N004119999999N0130001N1+00671+00511101911ADDMD1210121+9999REMSYN070AAXX  30024 03923 46963 /2108 10067 20051 40191 52012 555 80/99 90153;
0096039230999992000050108004+54230-006500FM-12+016199999V0200401N001519999999N0120001N1+01191+00641102541ADDMD1210021+9999REMSYN070AAXX  01084 03923 46962 /0403 10119 20064 40254 52002 555 80/99 90753;
0096039230999992000050613004+54230-006500FM-12+016199999V0200601N003119999999N0110001N1+01731+00991101541ADDMD1710051+9999REMSYN070AAXX  06134 03923 46961 /0606 10173 20099 40154 57005 555 80/99 91254;
0118039230999992000050709004+54230-006500FM-12+016199999V0200101N001519999999N0070001N1+01371+01021101831ADDIA2999+00709MD1210061+9999REMSYN080AAXX  07094 03923 46957 /0103 10137 20102 40183 52006 333 3/007 555 80/99 90854;
0096039230999992000050801004+54230-006500FM-12+016199999V0200501N001519999999N0100001N1+01181+00921101981ADDMD1210051+9999REMSYN070AAXX  08014 03923 46860 /0503 10118 20092 40198 52005 555 81/57 90054;
0096039230999992000050902004+54230-006500FM-12+016199999V0209999C000019999999N0120001N1+01121+00701101901ADDMD1710031+9999REMSYN070AAXX  09024 03923 46962 /0000 10112 20070 40190 57003 555 80/99 90154;
0102039230999992000051701004+54230-006500FM-12+016199999V0202901N004119999999N0270001N1+00651+00441100491ADDMD1210021+9999REMSYN076AAXX  17014 03923 46877 /2908 10065 20044 40049 52002 555 81/57 81/59 90056;
0096039230999992000051922004+54230-006500FM-12+016199999V0202801N002619999999N0240001N1+00621+00281101181ADDMD1210111+9999REMSYN070AAXX  19224 03923 46774 /2805 10062 20028 40118 52011 555 81/50 92156;
0108039230999992000052211004+54230-006500FM-12+016199999V0202301N003619999999N0280001N1+01261+00371101461ADDMD1210011+9999REMSYN082AAXX  22114 03923 46678 /2307 10126 20037 40146 52001 555 82/33 81/42 81/49 91056;
0096039230999992000053108004+54230-006500FM-12+016199999V0201401N000519999999N0260001N1+01061+00561101591ADDMD1710081+9999REMSYN070AAXX  31084 03923 46976 /1401 10106 20056 40159 57008 555 80/99 90757;
0108039230999992000060123004+54230-006500FM-12+016199999V0202101N003619999999N0038001N1+01251+01171100861ADDMD1210181+9999REMSYN082AAXX  01234 03923 46538 /2107 10125 20117 40086 52018 555 82/23 81/29 83/56 92257;
0102039230999992000060221004+54230-006500FM-12+016199999V0200401N003119999999N0180001N1+01041+00831101751ADDMD1210111+9999REMSYN076AAXX  02214 03923 46468 /0406 10104 20083 40175 52011 555 87/11 83/18 92057;
0136039230999992000060418004+54230-006500FM-12+016199999V0200201N002119999999N0032001N1+00921+00871101881ADDAA112001091KA1120M+00921MD1210061+9999REMSYN086AAXX  04184 03923 16032 /0204 10092 20087 40188 52006 60012 333 10092 555 87/01 91757;
0096039230999992000060511004+54230-006500FM-12+016199999V0200401N002119999999N0210001N1+01301+00811102051ADDMD1710031+9999REMSYN070AAXX  05114 03923 46471 /0404 10130 20081 40205 57003 555 87/16 91057;
0108039230999992000060802004+54230-006500FM-12+016199999V0201501N007719999999N0080001N1+00981+00831100881ADDMD1710361+9999REMSYN082AAXX  08024 03923 46458 /1515 10098 20083 40088 57036 555 81/12 85/17 84/34 90151;
0096039230999992000060823004+54230-006500FM-12+016199999V0202101N003119999999N0210001N1+00781+00551100971ADDMD1210111+9999REMSYN070AAXX  08234 03923 46971 /2106 10078 20055 40097 52011 555 80/99 92251;
0096039230999992000061304004+54230-006500FM-12+016199999V0202101N006219999999N0160001N1+01001+00721101571ADDMD1210071+9999REMSYN070AAXX  13044 03923 46966 /2112 10100 20072 40157 52007 555 80/99 90352;
0096039230999992000061923004+54230-006500FM-12+016199999V0201801N007719999999N0070001N1+01521+01361100881ADDMD1210061+9999REMSYN070AAXX  19234 03923 46357 /1815 10152 20136 40088 52006 555 82/08 92252;
0108039230999992000070310004+54230-006500FM-12+016199999V0200801N003119999999N0050001N1+01481+01301101051ADDMD1210031+9999REMSYN082AAXX  03104 03923 46250 /0806 10148 20130 40105 52003 555 86/03 84/18 83/57 90953;
0108039230999992000070315004+54230-006500FM-12+016199999V0200901N003119999999N0120001N1+01791+01231100991ADDMD1710081+9999REMSYN082AAXX  03154 03923 46562 /0906 10179 20123 40099 57008 555 81/20 82/39 84/58 91453;
0096039230999992000070620004+54230-006500FM-12+016199999V0203601N004619999999N0200001N1+01281+00771102271ADDMD1210141+9999REMSYN070AAXX  06204 03923 46570 /3609 10128 20077 40227 52014 555 82/23 91952;
0108039230999992000071308004+54230-006500FM-12+016199999V0203101N004619999999N0220001N1+01271+01011101211ADDMD1210141+9999REMSYN082AAXX  13084 03923 46372 /3109 10127 20101 40121 52014 555 81/08 81/11 87/14 90752;
0096039230999992000071614004+54230-006500FM-12+016199999V0202801N001019999999N0230001N1+01861+00981102031ADDMD1710091+9999REMSYN070AAXX  16144 03923 46673 /2802 10186 20098 40203 57009 555 85/30 91352;
0096039230999992000071916004+54230-006500FM-12+016199999V0202901N004119999999N0220001N1+01991+01161102111ADDMD1210041+9999REMSYN070AAXX  19164 03923 46772 /2908 10199 20116 40211 52004 555 82/50 91552;
0102039230999992000073011004+54230-006500FM-12+016199999V0201801N002119999999N0270001N1+01961+01311102021ADDMD1710061+9999REMSYN076AAXX  30114 03923 46577 /1804 10196 20131 40202 57006 555 85/22 83/47 91052;
0108039230999992000080103004+54230-006500FM-12+016199999V0202201N004619999999N0210001N1+01341+01151101161ADDMD1210141+9999REMSYN082AAXX  01034 03923 46471 /2209 10134 20115 40116 52014 555 81/13 82/18 82/21 90252;
0149039230999992000080318004+54230-006500FM-12+016199999V0203201N005719999999N0300001N1+01601+01151102061ADDAA199000091KA1120M+01811MD1210101+9999REMSYN080AAXX  03184 03923 36680 /3211 10160 20115 40206 52010 333 10181 555 85/37 91752;EQDQ01  00002PRCP99
0108039230999992000081204004+54230-006500FM-12+016199999V0201601N004119999999N0200001N1+01471+01341100881ADDMD1710121+9999REMSYN082AAXX  12044 03923 46270 /1608 10147 20134 40088 57012 555 81/04 87/08 83/22 90352;
0102039230999992000081210004+54230-006500FM-12+016199999V0202101N004119999999N0250001N1+01751+01521100841ADDMD1210031+9999REMSYN076AAXX  12104 03923 46475 /2108 10175 20152 40084 52003 555 84/13 85/38 90952;
0108039230999992000081611004+54230-006500FM-12+016199999V0202101N005119999999N0240001N1+01591+00981100701ADDMD1710191+9999REMSYN082AAXX  16114 03923 46574 /2110 10159 20098 40070 57019 555 83/24 81/35 83/50 91052;
0136039230999992000081706004+54230-006500FM-12+016199999V0202201N003619999999N0100001N1+00981+00931100621ADDAA112002091KA1120N+00851MD1210021+9999REMSYN086AAXX  17064 03923 16060 /2207 10098 20093 40062 52002 60022 333 20085 555 86/00 90552;
0096039230999992000090420004+54230-006500FM-12+016199999V0201901N005119999999N0160001N1+01511+01401101801ADDMD1710021+9999REMSYN070AAXX  04204 03923 46366 /1910 10151 20140 40180 57002 555 87/06 91952;
0126039230999992000091912004+54230-006500FM-12+016199999V0201601N005719999999N0300001N1+01391+00641099821ADDAA199000091MD1210011+9999REMSYN070AAXX  19124 03923 36980 /1611 10139 20064 49982 52001 555 80/99 91152;EQDQ01  00002PRCP99
0118039230999992000092309004+54230-006500FM-12+016199999V0201501N009319999999N0080001N1+01541+01431101041ADDIA2999+01009MD1710081+9999REMSYN080AAXX  23094 03923 46258 /1518 10154 20143 40104 57008 333 3/010 555 88/03 90852;
0096039230999992000092602004+54230-006500FM-12+016199999V0201101N002619999999N0039001N1+01291+01191100951ADDMD1710181+9999REMSYN070AAXX  26024 03923 46239 /1105 10129 20119 40095 57018 555 87/05 90152;
0102039230999992000100101004+54230-006500FM-12+016199999V0209999C000019999999N0000001N1+00951+00881100761ADDMD1710041+9999REMSYN076AAXX  01014 03923 46000 /0000 10095 20088 40076 57004 555 190// 86/00 90052;
0102039230999992000100110004+54230-006500FM-12+016199999V0201601N006719999999N0100001N1+01191+01031099851ADDMD1710321+9999REMSYN076AAXX  01104 03923 46360 /1613 10119 20103 49985 57032 555 82/06 87/17 90952;
0096039230999992000100722004+54230-006500FM-12+016199999V0202401N003119999999N0200001N1+00801+00401101401ADDMD1210021+9999REMSYN070AAXX  07224 03923 46970 /2406 10080 20040 40140 52002 555 80/99 92152;
0096039230999992000101010004+54230-006500FM-12+016199999V0202801N007219999999N0250001N1+00871+00301098181ADDMD1710191+9999REMSYN070AAXX  10104 03923 46575 /2814 10087 20030 49818 57019 555 87/24 90951;
0149039230999992000101918004+54230-006500FM-12+016199999V0201701N002619999999N0220001N1+00631+00391101311ADDAA199000091KA1120M+01181MD1210091+9999REMSYN080AAXX  19184 03923 36972 /1705 10063 20039 40131 52009 333 10118 555 80/99 91751;EQDQ01  00002PRCP99
0136039230999992000102018004+54230-006500FM-12+016199999V0202001N003119999999N0250001N1+00631+00261101151ADDAA112000191KA1120M+01051MD1210271+9999REMSYN086AAXX  20184 03923 16975 /2006 10063 20026 40115 52027 69922 333 10105 555 80/99 91751;
0096039230999992000110115004+54230-006500FM-12+016199999V0202501N003619999999N0300001N1+00871+00361098791ADDMD1210211+9999REMSYN070AAXX  01154 03923 46980 /2507 10087 20036 49879 52021 555 80/99 91451;
0102039230999992000110608004+54230-006500FM-12+016199999V0200101N009319999999N0090001N1+00591+00421098641ADDMD1210151+9999REMSYN076AAXX  06084 03923 46459 /0118 10059 20042 49864 52015 555 86/15 86/23 90751;
0096039230999992000110704004+54230-006500FM-12+016199999V0203501N009819999999N0180001N1+00631+00441098741ADDMD1210031+9999REMSYN070AAXX  07044 03923 46368 /3519 10063 20044 49874 52003 555 87/09 90351;
0102039230999992000111502004+54230-006500FM-12+016199999V0202101N001519999999N0270001N1+00261+00071100711ADDMD1710111+9999REMSYN076AAXX  15024 03923 46677 /2103 10026 20007 40071 57011 555 81/40 81/63 90151;
0102039230999992000111702004+54230-006500FM-12+016199999V0202701N004119999999N0170001N1+00361+00151100631ADDMD1210111+9999REMSYN076AAXX  17024 03923 46767 /2708 10036 20015 40063 52011 555 82/50 83/59 90151;
0096039230999992000112102004+54230-006500FM-12+016199999V0202401N002119999999N0210001N1+00281+00171099341ADDMD1710041+9999REMSYN070AAXX  21024 03923 46571 /2404 10028 20017 49934 57004 555 87/29 90151;
0096039230999992000112405004+54230-006500FM-12+016199999V0202201N004119999999N0180001N1+00251+00111100041ADDMD1710071+9999REMSYN070AAXX  24054 03923 46968 /2208 10025 20011 40004 57007 555 80/99 90451;
0108039230999992000120202004+54230-006500FM-12+016199999V0201801N013419999999N0100001N1+00821+00601098691ADDMD1210071+9999REMSYN082AAXX  02024 03923 46460 /1826 10082 20060 49869 52007 555 1//41 81/15 88/18 90151;
0108039230999992000120315004+54230-006500FM-12+016199999V0201501N006219999999N0140001N1+00801+00601100071ADDMD1710371+9999REMSYN082AAXX  03154 03923 46564 /1512 10080 20060 40007 57037 555 85/21 82/47 82/57 91451;
0096039230999992000121015004+54230-006500FM-12+016199999V0202301N006719999999N0250001N1+00711+00401099591ADDMD1210321+9999REMSYN070AAXX  10154 03923 46475 /2313 10071 20040 49959 52032 555 82/17 91451;
0096039230999992000121707004+54230-006500FM-12+016199999V0202101N003619999999N0190001N1+00011-00131101101ADDMD1710131+9999REMSYN070AAXX  17074 03923 46969 /2107 10001 21013 40110 57013 555 80/99 90651;
0096039230999992000121805004+54230-006500FM-12+016199999V0201801N003619999999N0015001N1+00511+00461100821ADDMD1210121+9999REMSYN070AAXX  18054 03923 46015 /1807 10051 20046 40082 52012 555 88/00 90451;
0149039230999992000121906004+54230-006500FM-12+016199999V0201401N008719999999N0080001N1+00711+00551100951ADDAA199000091KA1120N+00671MD1710111+9999REMSYN080AAXX  19064 03923 36358 /1417 10071 20055 40095 57011 333 20067 555 88/06 90551;EQDQ01  00002PRCP99
0108039230999992000122504004+54230-006500FM-12+016199999V0200301N004119999999N0300001N1+00131-00321100721ADDMD1410001+9999REMSYN082AAXX  25044 03923 46680 /0308 10013 21032 40072 54000 555 81/32 81/37 85/44 90351;
0096039230999992000122514004+54230-006500FM-12+016199999V0200501N005119999999N0290001N1+00231-00231100641ADDMD1710141+9999REMSYN070AAXX  25144 03923 46779 /0510 10023 21023 40064 57014 555 83/50 91351;
0139039240999992000010609504+54600-005880FM-15+0005EGAC V0202801N002612200019N0112651N1+00501+00201999999ADDGA1021+009009999GF102991999999999999999999MA1100611999999MW1001REMMET045EGAC 060950Z 28005KT 9999 FEW030 05/02 Q1006;EQDQ01+000000PRSWM2
0139039240999992000010916504+54600-005880FM-15+0005EGAC V0202101N004112200019N0112651N1+00301+00101999999ADDGA1021+003609999GF102991999999999999999999MA1102711999999MW1001REMMET045EGAC 091650Z 21008KT 9999 FEW012 03/01 Q1027;EQDQ01+000000PRSWM2
0185039240999992000011222504+54600-005880FM-15+0005EGAC V0202301N004610240019N0112651N1+00101+00001999999ADDGA1021+004509999GA2021+018009999GA3071+024009999GF107991999999999999999999MA1101391999999MW1001REMMET059EGAC 122250Z 23009KT 9999 FEW015 SCT060 BKN080 01/00 Q1014;EQDQ01+000000PRSWM2
0185039240999992000011310504+54600-005880FM-15+0005EGAC V0202301N002612200019N0112651N1+00401+00201999999ADDGA1021+003609999GA2021+004209099GF102991999999999999999999MA1101801999999MW1161REMMET059EGAC 131050Z 23005KT 9999 VCSH FEW012 FEW014CB 04/02 Q1018;EQDQ01+000003PRSWM1Q02    003PRSWM1
0162039240999992000012016504+54600-005880FM-15+0005EGAC V0203401N001512200019N0112651N1+00601+00501999999ADDGA1021+002709999GA2021+006009999GF104991999999999999999999MA1103491999999MW1001REMMET052EGAC 201650Z 34003KT 9999 FEW009 SCT020 06/05 Q1035;EQDQ01+000000PRSWM2
0195039240999992000012209504+54600-005880FM-15+0005EGAC V0203401N010810072019N0112651N1+00601+00301999999ADDGA1021+005409999GA2071+007209999GF107991999999999999999999MA1102511999999MW1801OC101591REMMET061EGAC 220950Z 34021G31KT 9999 -SHRA SCT018 BKN024 06/03 Q1025;EQDQ01+000003PRSWM1Q02    003PRSWM1
0173039240999992000020508504+54600-005880FM-15+0005EGAC V0202001N005710045019N0112651N1+00901+00701999999ADDGA1021+003009999GA2071+004509999GF107991999999999999999999MA1101691999999MW1001OC101081REMMET055EGAC 050850Z 20011G21KT 9999 FEW010 BKN015 09/07 Q1017;EQDQ01+000000PRSWM2
0173039240999992000020613504+54600-005880FM-15+0005EGAC V0201801N007210075019N0112651N1+01001+00701999999ADDGA1021+006009999GA2071+007509999GF107991999999999999999999MA1099391999999MW1001OC101491REMMET055EGAC 061350Z 18014G29KT 9999 SCT020 BKN025 10/07 Q0994;EQDQ01+000000PRSWM2
0102039240999992000020906204+54600-005880FM-15+0005EGAC V0202501N00671220001CN0099001N1+00501+00101999999ADDMA1101391999999MW1001OC101231REMMET042EGAC 090620Z 25013G24KT CAVOK 05/01 Q1014;EQDQ01+000000PRSWM2
0207039240999992000021516504+54600-005880FM-15+0005EGAC V0202601N005710090019N0112651N1+00301+00101999999ADDGA1021+003009999GA2021+005109999GA3071+009009999GF107991999999999999999999MA1099901999999MW1801REMMET065EGAC 151650Z 26011KT 9999 -SHRA FEW010 SCT017 BKN030 03/01 Q0999;EQDQ01+000003PRSWM1Q02    003PRSWM1
0194039240999992000021814504+54600-005880FM-15+0005EGAC V0203001N007712200019N0112651N1+00801+00401999999ADDGA1021+003909999GA2021+005409999GF104991999999999999999999MA1099491999999MW1161OC101701REMMET060EGAC 181450Z 30015G33KT 9999 VCSH FEW013 SCT018 08/04 Q0995;EQDQ01+000003PRSWM1Q02    003PRSWM1
0139039240999992000022509504+54600-005880FM-15+0005EGAC V0202301N006212200019N0112651N1+00401+00101999999ADDGA1021+003309999GF102991999999999999999999MA1102301999999MW1001REMMET045EGAC 250950Z 23012KT 9999 FEW011 04/01 Q1023;EQDQ01+000000PRSWM2
0173039240999992000022617504+54600-005880FM-15+0005EGAC V0201701N003610030019N0112651N1+00801+00801999999ADDGA1021+001809999GA2071+003009999GF107991999999999999999999MA1101081999999MW1001OC100871REMMET055EGAC 261750Z 17007G17KT 9999 SCT006 BKN010 08/08 Q1011;EQDQ01+000000PRSWM2
0173039240999992000030519504+54600-005880FM-15+0005EGAC V0202201N008210090019N0112651N1+00901+00601999999ADDGA1021+004809999GA2071+009009999GF107991999999999999999999MA1102001999999MW1001OC101341REMMET055EGAC 051950Z 22016G26KT 9999 FEW016 BKN030 09/06 Q1020;EQDQ01+000000PRSWM2
0183039240999992000031408504+54600-005880FM-15+0005EGAC V0202701N004112200019N0112651N1+00601+00301999999ADDGA1021+003609999GA2021+004509999GF104991999999999999999999MA1102401999999MW1161REMMET057EGAC 140850Z 27008KT 9999 VCSH FEW012 SCT015 06/03 Q1024;EQDQ01+000003PRSWM1Q02    003PRSWM1
0139039240999992000032616504+54600-005880FM-15+0005EGAC V0200101N004112200019N0112651N1+01001+00301999999ADDGA1021+006009999GF102991999999999999999999MA1101081999999MW1001REMMET045EGAC 261650Z 01008KT 9999 FEW020 10/03 Q1011;EQDQ01+000000PRSWM2
0182039240999992000040107504+54600-005880FM-15+0005EGAC V0200801N000510150019N0070001N1+00601+00401999999ADDGA1021+003609999GA2081+015009999GF108991999999999999999999MA1099801999999MW1511REMMET056EGAC 010750Z 08001KT 7000 -DZ SCT012 OVC050 06/04 Q0998;EQDQ01+000003PRSWM1Q02    003PRSWM1
0140039240999992000040412504+54600-005880FM-15+0005EGAC V0200101N006712200019N0112651N1+00701-00401999999ADDGA1021+007509999GF102991999999999999999999MA1101081999999MW1001REMMET046EGAC 041250Z 01013KT 9999 FEW025 07/M04 Q1011;EQDQ01+000000PRSWM2
0162039240999992000042511504+54600-005880FM-15+0005EGAC V0200201N011810042019N0112651N1+00701+00601999999ADDGA1021+003009999GA2071+004209999GF107991999999999999999999MA1100511999999MW1001REMMET052EGAC 251150Z 02023KT 9999 SCT010 BKN014 07/06 Q1005;EQDQ01+000000PRSWM2
0139039240999992000043009504+54600-005880FM-15+0005EGAC V0200901N000512200019N0112651N1+01301+00601999999ADDGA1021+007509999GF102991999999999999999999MA1102201999999MW1001REMMET045EGAC 300950Z 09001KT 9999 FEW025 13/06 Q1022;EQDQ01+000000PRSWM2
0139039240999992000050313504+54600-005880FM-15+0005EGAC V0200401N004112200019N0112651N1+01401+00901999999ADDGA1021+005409999GF102991999999999999999999MA1102911999999MW1001REMMET045EGAC 031350Z 04008KT 9999 FEW018 14/09 Q1029;EQDQ01+000000PRSWM2
0091039240999992000050809504+54600-005880FM-15+0005EGAC V0200501N00151220001CN0099001N1+01601+00801999999ADDMA1102101999999MW1001REMMET039EGAC 080950Z 05003KT CAVOK 16/08 Q1021;EQDQ01+000000PRSWM2
0091039240999992000050815504+54600-005880FM-15+0005EGAC V0200301N00411220001CN0099001N1+01901+00601999999ADDMA1101901999999MW1001REMMET039EGAC 081550Z 03008KT CAVOK 19/06 Q1019;EQDQ01+000000PRSWM2
0139039240999992000051206504+54600-005880FM-15+0005EGAC V0200501N001512200019N0112651N1+01001+00601999999ADDGA1021+004809999GF102991999999999999999999MA1102301999999MW1001REMMET045EGAC 120650Z 05003KT 9999 FEW016 10/06 Q1023;EQDQ01+000000PRSWM2
0205039240999992000051618504+54600-005880FM-15+0005EGAC V0200201N005710084019N0112651N1+00901+00801999999ADDGA1021+003009999GA2021+005409999GA3071+008409999GF107991999999999999999999MA1100311999999MW1611REMMET063EGAC 161850Z 02011KT 9999 -RA FEW010 SCT018 BKN028 09/08 Q1003;EQDQ01+000003PRSWM1Q02    003PRSWM1
0139039240999992000052706504+54600-005880FM-15+0005EGAC V0202901N001012200019N0112651N1+00801+00501999999ADDGA1021+003009999GF102991999999999999999999MA1100201999999MW1001REMMET045EGAC 270650Z 29002KT 9999 FEW010 08/05 Q1002;EQDQ01+000000PRSWM2
0187039240999992000052716504+54600-005880FM-15+0005EGAC V0202401N001512200019N0112651N1+01201+00201999999ADDGA1021+006009999GA2021+006609099GA3021+007509999GF104991999999999999999999MA1099901999999MW1001REMMET061EGAC 271650Z 24003KT 9999 FEW020 FEW022CB SCT025 12/02 Q0999;EQDQ01+000000PRSWM2
0164039240999992000053015504+54600-005880FM-15+0005EGAC V0200501N001012200019N0112651N1+01301+00601999999ADDGA1021+006009099GA2021+013509999GF104991999999999999999999MA1101391999999MW1001REMMET054EGAC 301550Z 05002KT 9999 FEW020CB SCT045 13/06 Q1014;EQDQ01+000000PRSWM2
0184039240999992000060117504+54600-005880FM-15+0005EGAC V0202301N004112200019N0112651N1+01601+01401999999ADDGA1021+004509999GA2021+005409999GF104991999999999999999999MA1100511999999MW1801REMMET058EGAC 011750Z 23008KT 9999 -SHRA FEW015 SCT018 16/14 Q1005;EQDQ01+000003PRSWM1Q02    003PRSWM1
0162039240999992000060206504+54600-005880FM-15+0005EGAC V0200201N004610075019N0112651N1+00901+00801999999ADDGA1021+003009999GA2071+007509999GF107991999999999999999999MA1101191999999MW1001REMMET052EGAC 020650Z 02009KT 9999 FEW010 BKN025 09/08 Q1012;EQDQ01+000000PRSWM2
0162039240999992000062318504+54590-005870FM-15+0005EGAC V0203201N006210054019N0112651N1+01201+00801999999ADDGA1021+004209999GA2071+005409999GF107991999999999999999999MA1101801999999MW1001REMMET052EGAC 231850Z 32012KT 9999 FEW014 BKN018 12/08 Q1018;EQDQ01+000000PRSWM2
0185039240999992000070505204+54590-005870FM-15+0005EGAC V0200301N002110450019N0112651N1+01401+01201999999ADDGA1021+010509999GA2021+021009999GA3071+045009999GF107991999999999999999999MA1101191999999MW1001REMMET059EGAC 050520Z 03004KT 9999 FEW035 SCT070 BKN150 14/12 Q1012;EQDQ01+000000PRSWM2
0162039240999992000071012504+54590-005870FM-15+0005EGAC V0203301N010312200019N0112651N1+01601+00901999999ADDGA1021+006009999GA2021+009009999GF104991999999999999999999MA1100101999999MW1001REMMET052EGAC 101250Z 33020KT 9999 FEW020 SCT030 16/09 Q1001;EQDQ01+000000PRSWM2
0139039240999992000072010504+54590-005870FM-15+0005EGAC V0203301N002110075019N0112651N1+01601+01001999999ADDGA1071+007509999GF107991999999999999999999MA1102511999999MW1001REMMET045EGAC 201050Z 33004KT 9999 BKN025 16/10 Q1025;EQDQ01+000000PRSWM2
0091039240999992000072119504+54590-005870FM-15+0005EGAC V0200501N00261220001CN0099001N1+01601+01201999999ADDMA1102611999999MW1001REMMET039EGAC 211950Z 05005KT CAVOK 16/12 Q1026;EQDQ01+000000PRSWM2
0185039240999992000072517504+54590-005870FM-15+0005EGAC V0201901N001510180019N0112651N1+01601+01301999999ADDGA1021+005409999GA2021+007809999GA3071+018009999GF107991999999999999999999MA1100711999999MW1001REMMET059EGAC 251750Z 19003KT 9999 FEW018 SCT026 BKN060 16/13 Q1007;EQDQ01+000000PRSWM2
0185039240999992000072611504+54590-005870FM-15+0005EGAC V0200201N005110360019N0112651N1+01901+01301999999ADDGA1021+004509999GA2021+007509999GA3071+036009999GF107991999999999999999999MA1100811999999MW1001REMMET059EGAC 261150Z 02010KT 9999 FEW015 SCT025 BKN120 19/13 Q1008;EQDQ01+000000PRSWM2
0162039240999992000080316504+54590-005870FM-15+0005EGAC V0203401N006212200019N0112651N1+01601+01101999999ADDGA1021+006609999GA2021+010509999GF104991999999999999999999MA1102001999999MW1001REMMET052EGAC 031650Z 34012KT 9999 FEW022 SCT035 16/11 Q1020;EQDQ01+000000PRSWM2
0162039240999992000080417204+54590-005870FM-15+0005EGAC V0202701N004610072019N0112651N1+01801+01201999999ADDGA1021+004809999GA2071+007209999GF107991999999999999999999MA1102401999999MW1001REMMET052EGAC 041720Z 27009KT 9999 FEW016 BKN024 18/12 Q1024;EQDQ01+000000PRSWM2
0173039240999992000080911504+54590-005870FM-15+0005EGAC V0201901N003110045019N0112651N1+01701+01601999999ADDGA1021+003009999GA2071+004509999GF107991999999999999999999MA1101021999999MW1001OC100871REMMET055EGAC 091150Z 19006G17KT 9999 SCT010 BKN015 17/16 Q1010;EQDQ01+000000PRSWM2
0162039240999992000081108504+54590-005870FM-15+0005EGAC V0201701N001510033019N0112651N1+01501+01401999999ADDGA1021+002409999GA2071+003309999GF107991999999999999999999MA1101491999999MW1001REMMET052EGAC 110850Z 17003KT 9999 SCT008 BKN011 15/14 Q1015;EQDQ01+000000PRSWM2
0187039240999992000081514504+54590-005870FM-15+0005EGAC V0202101N005110300019N0112651N1+01901+00901999999ADDGA1021+005409099GA2021+009009999GA3071+030009999GF107991999999999999999999MA1101191999999MW1001REMMET061EGAC 151450Z 21010KT 9999 SCT018CB SCT030 BKN100 19/09 Q1012;EQDQ01+000000PRSWM2
0184039240999992000090413504+54590-005870FM-15+0005EGAC V0201701N003112200019N0112651N1+01601+01401999999ADDGA1021+006009999GA2021+007509999GF104991999999999999999999MA1101901999999MW1801REMMET058EGAC 041350Z 17006KT 9999 -SHRA FEW020 SCT025 16/14 Q1019;EQDQ01+000003PRSWM1Q02    003PRSWM1
0139039240999992000090909504+54590-005870FM-15+0005EGAC V0202201N004612200019N0112651N1+01301+01101999999ADDGA1021+010509999GF102991999999999999999999MA1102101999999MW1001REMMET045EGAC 090950Z 22009KT 9999 FEW035 13/11 Q1021;EQDQ01+000000PRSWM2
0139039240999992000091820504+54590-005870FM-15+0005EGAC V0201701N001012200019N0112651N1+00901+00701999999ADDGA1021+007509999GF102991999999999999999999MA1099591999999MW1001REMMET045EGAC 182050Z 17002KT 9999 FEW025 09/07 Q0996;EQDQ01+000000PRSWM2
0185039240999992000100508504+54590-005870FM-15+0005EGAC V0202701N004110600019N0112651N1+00801+00601999999ADDGA1021+002709999GA2021+007509999GA3071+060009999GF107991999999999999999999MA1101191999999MW1001REMMET059EGAC 050850Z 27008KT 9999 FEW009 SCT025 BKN200 08/06 Q1012;EQDQ01+000000PRSWM2
0182039240999992000100717504+54590-005870FM-15+0005EGAC V0202901N006212200019N0112651N1+01201+00901999999ADDGA1021+006009999GA2021+012009999GF104991999999999999999999MA1101191999999MW1511REMMET056EGAC 071750Z 29012KT 9999 -DZ FEW020 SCT040 12/09 Q1012;EQDQ01+000003PRSWM1Q02    003PRSWM1
0204039240999992000100909504+54590-005870FM-15+0005EGAC V0200401N004610054019N0080001N1+00701+00701999999ADDGA1021+001509999GA2071+005409999GA3071+009009999GF107991999999999999999999MA1099191999999MW1631REMMET062EGAC 090950Z 04009KT 8000 RA SCT005 BKN018 BKN030 07/07 Q0992;EQDQ01+000003PRSWM1Q02    003PRSWM1
0185039240999992000101108204+54590-005870FM-15+0005EGAC V0202201N002610060019N0080001N1+00601+00601999999ADDGA1021+001509999GA2021+003009999GA3071+006009999GF107991999999999999999999MA1096821999999MW1001REMMET059EGAC 110820Z 22005KT 8000 FEW005 SCT010 BKN020 06/06 Q0968;EQDQ01+000000PRSWM2
0187039240999992000101112504+54590-005870FM-15+0005EGAC V0203601N002110120019N0112651N1+01101+00901999999ADDGA1021+002409999GA2021+006009999GA3071+012009099GF107991999999999999999999MA1096991999999MW1001REMMET061EGAC 111250Z 36004KT 9999 FEW008 SCT020 BKN040CB 11/09 Q0970;EQDQ01+000000PRSWM2
0091039240999992000101806504+54590-005870FM-15+0005EGAC V0202201N00621220001CN0099001N1+00901+00801999999ADDMA1100511999999MW1001REMMET039EGAC 180650Z 22012KT CAVOK 09/08 Q1005;EQDQ01+000000PRSWM2
0207039240999992000110107504+54590-005870FM-15+0005EGAC V0202301N005110120019N0112651N1+00401+00301999999ADDGA1021+002709999GA2021+003609999GA3071+012009999GF107991999999999999999999MA1098311999999MW1801REMMET065EGAC 010750Z 23010KT 9999 -SHRA FEW009 SCT012 BKN040 04/03 Q0983;EQDQ01+000003PRSWM1Q02    003PRSWM1
0216039240999992000110608504+54590-005870FM-15+0005EGAC V0200101N016510090019N0080001N1+00701+00601999999ADDGA1021+005409999GA2021+006609999GA3071+009009999GF107991999999999999999999MA1098611999999MW1611OC102421REMMET066EGAC 060850Z 01032G47KT 8000 -RA FEW018 SCT022 BKN030 07/06 Q0986;EQDQ01+000003PRSWM1Q02    003PRSWM1
0139039240999992000111618504+54590-005870FM-15+0005EGAC V0202501N004612200019N0112651N1+00401+00301999999ADDGA1021+003609999GF102991999999999999999999MA1100101999999MW1001REMMET045EGAC 161850Z 25009KT 9999 FEW012 04/03 Q1001;EQDQ01+000000PRSWM2
0181039240999992000112111504+54590-005870FM-15+0005EGAC V0203601N000510105019N0050001N1+00401+00401999999ADDGA1021+003009999GA2071+010509999GF107991999999999999999999MA1098981999999MW1101REMMET055EGAC 211150Z 36001KT 5000 BR FEW010 BKN035 04/04 Q0990;EQDQ01+000003PRSWM1Q02    003PRSWM1
0182039240999992000112719504+54590-005870FM-15+0005EGAC V0201501N006710075019N0080001N1+00801+00801999999ADDGA1021+002409999GA2081+007509999GF108991999999999999999999MA1099701999999MW1611REMMET056EGAC 271950Z 15013KT 8000 -RA SCT008 OVC025 08/08 Q0997;EQDQ01+000003PRSWM1Q02    003PRSWM1
0139039240999992000121116504+54590-005870FM-15+0005EGAC V0209999C000012200019N0112651N1+00701+00701999999ADDGA1021+007509999GF102991999999999999999999MA1100201999999MW1001REMMET045EGAC 111650Z 00000KT 9999 FEW025 07/07 Q1002;EQDQ01+000000PRSWM2
0162039240999992000121314504+54590-005870FM-15+0005EGAC V0202501N004112200019N0112651N1+00601+00401999999ADDGA1021+003009999GA2021+012009999GF104991999999999999999999MA1099591999999MW1001REMMET052EGAC 131450Z 25008KT 9999 FEW010 SCT040 06/04 Q0996;EQDQ01+000000PRSWM2
0150039270999992000010521004+54670-005670FM-12+001199999V0202201N010810075019N0240001N1+01021+00661098911ADDGA1061+007509069GF106991061051008001999999MD1410001+9999REMSYN082AAXX  05214 03927 42574 62221 10102 20066 49891 54000 865// 333 86625 90710 91132;
0144039270999992000010903004+54670-005670FM-12+001199999V0202601N005712200019N0250001N1+00321+00001101811ADDGA1031+060009009GF103991001001999999001051MD1210201+9999REMSYN076AAXX  09034 03927 42975 32611 10032 20000 40181 52020 80005 333 83070 92438;
0172039270999992000012600004+54670-005670FM-12+001199999V0202801N004612200019N0080001N1+00351+00091103091ADDAY141061AY211061GA1031+009009069GF103991031051012501001051MD1410001+9999MW1401REMSYN082AAXX  26004 03927 41658 32809 10035 20009 40309 54000 74041 83505 333 83630 83070;
0167039270999992000013018004+54670-005670FM-12+001199999V0202601N013910075019N0150001N1+01161+00961100241ADDGA1081+007509069GF108991081051008001999999MD1310011+9999OA140101961REMSYN088AAXX  30184 03927 42565 82627 10116 20096 40024 53001 885// 333 88625 90710 91138 92447;
0166039270999992000020403004+54670-005670FM-12+001199999V0202401N005110054019N0180001N1+01181+00981102151ADDAY161031AY221031GA1081+005409059GF108991081051004501999999MD1810121+9999MW1621REMSYN076AAXX  04034 03927 41468 82410 10118 20098 40215 58012 76262 885// 333 88618;
0166039270999992000022321004+54670-005670FM-12+001199999V0202601N007710060019N0180001N1+00811+00241101201ADDAY151031AY201031GA1071+006009059GF107991071051008001999999MD1210251+9999MW1511REMSYN076AAXX  23214 03927 41568 72615 10081 20024 40120 52025 75150 875// 333 87620;
0144039270999992000031506004+54670-005670FM-12+001199999V0202601N004110210019N0220001N1+00701+00291103341ADDGA1061+021009049GF106991061001022501011999MD1410001+9999REMSYN076AAXX  15064 03927 42872 62608 10070 20029 40334 54000 8601/ 333 86457 92428;
0138039270999992000031603004+54670-005670FM-12+001199999V0202801N005110090019N0220001N1+00901+00691103451ADDGA1061+009009059GF106991061051012501999999MD1310011+9999REMSYN070AAXX  16034 03927 42672 62810 10090 20069 40345 53001 865// 333 86630;
0172039270999992000031918004+54670-005670FM-12+001199999V0202901N003610240019N0200001N1+01281+00731103511ADDAY121061AY221061GA1081+024009049GF108991081001999999021999MD1710131+9999MW1051REMSYN082AAXX  19184 03927 41970 82907 10128 20073 40351 57013 70522 8802/ 333 88458 92437;
0172039270999992000032209004+54670-005670FM-12+001199999V0203601N003610090019N0240001N1+00721+00121101781ADDAY151031AY221031GA1061+009009069GF106991061051012501999999MD1110021+9999MW1021REMSYN082AAXX  22094 03927 41674 63607 10072 20012 40178 51002 70252 865// 333 86630 92438;
0157039270999992000032821004+54670-005670FM-12+001199999V0203501N003110600019N0250001N1+00621+00201102901ADDGA1061+060009089GF106991999001999999001081MD1410001+9999REMSYN070AAXX  28214 03927 42975 63506 10062 20020 40290 54000 80008 333 86270;EQDQ01+000002SCOTLC
0167039270999992000040309004+54670-005670FM-12+001199999V0200401N016412200019N0750001N1+00391-00341100581ADDGA1031+006009089GF105991031081008001001011MD1210051+9999OA140101961REMSYN088AAXX  03094 03927 42589 50432 10039 21034 40058 52005 83801 333 83820 90710 91138 92469;
0172039270999992000040506004+54670-005670FM-12+001199999V0203001N004110240019N0200001N1+00201-00141101861ADDAY111061AY211061GA1051+024009049GF105991051001999999011001MD1210091+9999MW1101REMSYN082AAXX  05064 03927 41970 53008 10020 21014 40186 52009 71011 85010 333 85458 92427;
0172039270999992000040509004+54670-005670FM-12+001199999V0202901N004112200019N0220001N1+00601-00491102091ADDAY111031AY211031GA1041+024009049GF104991041001999999071001MD1210231+9999MW1051REMSYN082AAXX  05094 03927 41972 42908 10060 21049 40209 52023 70511 84070 333 84458 92428;
0172039270999992000040609004+54670-005670FM-12+001199999V0201901N004112200019N0220001N1+00751+00271103001ADDAY101031AY201031GA1021+030009039GF104991021001999999031081MD1210171+9999MW1051REMSYN082AAXX  06094 03927 41972 41908 10075 20027 40300 52017 70500 82038 333 82360 92428;
0172039270999992000041018004+54670-005670FM-12+001199999V0203301N004610033019N0150001N1+00881+00601101231ADDAY161061AY221061GA1081+003309079GF108991081061004501999999MD1710321+9999MW1611REMSYN082AAXX  10184 03927 41465 83309 10088 20060 40123 57032 76162 886// 333 88711 92437;
0138039270999992000041521004+54670-005670FM-12+001199999V0201501N007710090019N0220001N1+00651+00151099411ADDGA1081+009009059GF108991081051012501999999MD1410001+9999REMSYN070AAXX  15214 03927 42672 81515 10065 20015 49941 54000 885// 333 88630;
0144039270999992000042709004+54670-005670FM-12+001199999V0202001N003110090019N0200001N1+00601+00411100611ADDGA1081+009009069GF108991081051012501999999MD1210091+9999REMSYN076AAXX  27094 03927 42670 82006 10060 20041 40061 52009 885// 333 88630 92417;
0194039270999992000050706004+54670-005670FM-12+001199999V0203601N004610270019N0150001N1+00951+00831101861ADDAY121061AY221061GA1021+007509089GA2031+027009039GF105991021021008001051001MD1210091+9999MW1051REMSYN088AAXX  07064 03927 41565 53609 10095 20083 40186 52009 70522 82250 333 82825 83359 92426;
0194039270999992000051812004+54670-005670FM-12+001199999V0203201N009310060019N0250001N1+01171+00571100521ADDAY181061AY221061GA1011+004509079GA2061+006009069GF107991061051004501031001MD1210081+9999MW1251REMSYN088AAXX  18124 03927 41475 73218 10117 20057 40052 52008 72582 86530 333 81715 86620 92448;
0138039270999992000052103004+54670-005670FM-12+001199999V0203101N002110060019N0220001N1+01001+00841100591ADDGA1081+006009059GF108991081051008001999999MD1510041+9999REMSYN070AAXX  21034 03927 42572 83104 10100 20084 40059 55004 885// 333 88620;
0194039270999992000062809004+54670-005670FM-12+001199999V0200201N003112200019N0120001N1+01451+01191102201ADDAY111031AY211031GA1031+024009039GA2041+090009029GF104991031001999999031081MD1410001+9999MW1051REMSYN088AAXX  28094 03927 41962 40206 10145 20119 40220 54000 70511 83038 333 83358 84280 92427;
0166039270999992000072803004+54670-005670FM-12+001199999V0201401N002110060019N0200001N1+01641+01401101041ADDGA1051+006009069GA2031+024009049GF108991051051008001021001MD1310011+9999REMSYN082AAXX  28034 03927 42570 81404 10164 20140 40104 53001 85520 333 85620 83458 92427;
0138039270999992000081003004+54670-005670FM-12+001199999V0202901N007710030019N0200001N1+01561+01371101361ADDGA1081+003009069GF108991081071004501999999MD1110011+9999REMSYN070AAXX  10034 03927 42470 82915 10156 20137 40136 51001 887// 333 88710;
0166039270999992000081903004+54670-005670FM-12+001199999V0202901N003110060019N0250001N1+01291+01041100951ADDGA1021+005409089GA2031+006009069GF105991051081004501001001MD1810061+9999REMSYN082AAXX  19034 03927 42475 52906 10129 20104 40095 58006 85800 333 82818 83620 92428;
0160039270999992000082218004+54670-005670FM-12+001199999V0200101N003112200019N0220001N1+01791+01371102281ADDAY101061AY201061GA1001+999999999GF100991001001999999001001MD1210061+9999MW1051REMSYN070AAXX  22184 03927 41972 00106 10179 20137 40228 52006 70500 333 92428;
0122039270999992000082500004+54670-005670FM-12+001199999V0202901N002112200019N0240001N1+01351+01071102431ADDGA1001+999999999GF100991001001999999001001MD1710061+9999REMSYN054AAXX  25004 03927 42974 02904 10135 20107 40243 57006;
0172039270999992000090112004+54670-005670FM-12+001199999V0200201N004110045019N0200001N1+01501+01301099881ADDAY151061AY221061GA1061+004509089GF106991061021004501001001MD1210141+9999MW1051REMSYN082AAXX  01124 03927 41470 60208 10150 20130 49988 52014 70552 86200 333 86815 92428;
0172039270999992000092409004+54670-005670FM-12+001199999V0201401N007710060019N0180001N1+01691+01451100821ADDAY151031AY211031GA1081+006009069GF108991081051008001999999MD1210171+9999MW1021REMSYN082AAXX  24094 03927 41568 81415 10169 20145 40082 52017 70251 885// 333 88620 92427;
0166039270999992000092700004+54670-005670FM-12+001199999V0202701N006712200019N0200001N1+01351+01111100591ADDAY151061AY221061GA1041+004509059GF104991041051004501001001MD1610011+9999MW1011REMSYN076AAXX  27004 03927 41470 42713 10135 20111 40059 56001 70152 84500 333 84615;
0172039270999992000101106004+54670-005670FM-12+001199999V0202101N004110300019N0220001N1+00781+00631096711ADDAY151061AY221061GA1041+006009069GF106991041051008001071999MD1310071+9999MW1021REMSYN082AAXX  11064 03927 41572 62108 10078 20063 49671 53007 70252 8457/ 333 84620 86360;
0138039270999992000101821004+54670-005670FM-12+001199999V0202101N006212200019N0220001N1+00971+00601100851ADDGA1021+004509029GF102991021011004501001001MD1210101+9999REMSYN070AAXX  18214 03927 42472 22112 10097 20060 40085 52010 82100 333 82815;
0178039270999992000102421004+54670-005670FM-12+001199999V0201901N009310024019N0120001N1+01201+01121099521ADDAY161031AY221031GA1081+002409079GF108991081061002501999999MD1710611+9999MW1611REMSYN088AAXX  24214 03927 41362 81918 10120 20112 49952 57061 76162 886// 333 88708 90710 91126;
0178039270999992000110603004+54670-005670FM-12+001199999V0200401N018510060019N0160001N1+00911+00491098551ADDAY161031AY221031GA1081+006009069GF108991081051008001999999MD1710051+9999MW1611REMSYN088AAXX  06034 03927 41566 80436 10091 20049 49855 57005 76162 885// 333 88620 90710 91147;
0195039270999992000110618004+54670-005670FM-12+001199999V0200101N020010075019N0080001N1+00801+00581098581ADDAY161061AY221061GA1081+007509069GF108991081051008001999999MD1510001+9999MW1631OA140102571REMSYN094AAXX  06184 03927 41558 80139 10080 20058 49858 55000 76362 885// 333 88625 90710 91150 92466;
0160039270999992000112321004+54670-005670FM-12+001199999V0202701N005112200019N0100001N1+00471+00191100061ADDAY101031AY201031GA1001+999999999GF100991001001999999001001MD1210121+9999MW1051REMSYN070AAXX  23214 03927 41960 02710 10047 20019 40006 52012 70500 333 92427;
0144039270999992000112709004+54670-005670FM-12+001199999V0202001N006210300019N0220001N1+00461+00361100211ADDGA1021+006009089GF105991021021008001031001MD1210141+9999REMSYN076AAXX  27094 03927 42572 52012 10046 20036 40021 52014 82230 333 82820 83360;
0178039270999992000120321004+54670-005670FM-12+001199999V0201601N013410024019N0120001N1+01001+00961099501ADDAY161031AY221031GA1081+002409079GF108991081071002501999999MD1710351+9999MW1631REMSYN088AAXX  03214 03927 41362 81626 10100 20096 49950 57035 76362 887// 333 88708 90710 91138;
0194039270999992000121712004+54670-005670FM-12+001199999V0201701N004610360019N0180001N1+00351+00221100971ADDAY111061AY211061GA1031+006009069GA2061+036009049GF108991031051008001011999MD1710111+9999MW1101REMSYN088AAXX  17124 03927 41568 81709 10035 20022 40097 57011 71011 8351/ 333 83620 86462 92427;
0138039270999992000122109004+54670-005670FM-12+001199999V0200901N009310030019N0150001N1+00871+00771101571ADDGA1081+003009069GF108991081061004501999999MD1210171+9999REMSYN070AAXX  21094 03927 42465 80918 10087 20077 40157 52017 886// 333 88710;
0138039270999992000123012004+54670-005670FM-12+001199999V0202701N006212200019N0200001N1+00121+00041101051ADDGA1011+003009029GF103991021081004501071001MD1110121+9999REMSYN070AAXX  30124 03927 42470 32712 10012 20004 40105 51012 82870 333 81810;
0118039280999992000010803004+54850-005800FM-12+000399999V0202001N012910066019N0300001N1+00511-00051999999ADDGA1051+006609069GF105991051051008001001001REMSYN064AAXX  08034 03928 42580 52025 10051 21005 85500 333 85622 92438;
0118039280999992000011203004+54850-005800FM-12+000399999V0209999C000010060019N0200001N1+00551+00411999999ADDGA1061+006009069GF106991061051008001999999REMSYN064AAXX  12034 03928 42570 60000 10055 20041 865// 333 86620 92408;
0122039280999992000011621004+54850-005800FM-12+000399999V0203501N008210066019N0250001N1+00871+00631999999ADDGA1081+006609069GF108991081051008001999999REMSYN068    AAXX  16214 03928 42575 83516 10087 20063 885// 333 88622 92438;
0140039280999992000022115004+54850-005800FM-12+000399999V0202801N00511220001CN0350001N1+00881-00101999999ADDGA1021+006009069GA2031+060009009GF105991021051008001001011REMSYN070AAXX  21154 03928 42581 52810 10088 21010 82501 333 82620 83070 92418;
0118039280999992000030600004+54850-005800FM-12+000399999V0202401N009310060019N0200001N1+00941+00771999999ADDGA1071+006009069GF107991071051008001999999REMSYN064AAXX  06004 03928 42570 72418 10094 20077 875// 333 87620 92438;
0118039280999992000030621004+54850-005800FM-12+000399999V0209999C000010060019N0200001N1+01151+00851999999ADDGA1061+006009069GF106991061051008001999999REMSYN064AAXX  06214 03928 42570 60000 10115 20085 865// 333 86620 92408;
0118039280999992000030903004+54850-005800FM-12+000399999V0202801N007712200019N0300001N1+01151+00671999999ADDGA1041+006009069GF104991041051008001001001REMSYN064AAXX  09034 03928 42580 42815 10115 20067 84500 333 84620 92438;
0118039280999992000031309004+54850-005800FM-12+000399999V0209999C000010060019N0250001N1+01101+00901999999ADDGA1081+006009069GF108991081051008001999999REMSYN064AAXX  13094 03928 42575 80000 10110 20090 885// 333 88620 92408;
0118039280999992000031906004+54850-005800FM-12+000399999V0202401N002110072019N0300001N1+00951+00671999999ADDGA1081+007209069GF108991081051008001999999REMSYN064AAXX  19064 03928 42580 82404 10095 20067 885// 333 88624 92418;
0118039280999992000032215004+54850-005800FM-12+000399999V0200201N002610060019N0450001N1+00831+00311999999ADDGA1081+006009069GF108991081051008001999999REMSYN064AAXX  22154 03928 42583 80205 10083 20031 885// 333 88620 92418;
0146039280999992000040215004+54850-005800FM-12+000399999V0200501N012910060019N0150001N1+00601+00361999999ADDAY161031AY221031GA1081+006009069GF108991081051008001999999MW1021REMSYN070AAXX  02154 03928 41565 80525 10060 20036 70262 885// 333 88620 92447;
0146039280999992000042506004+54850-005800FM-12+000399999V0200501N009310060019N0120001N1+00821+00741999999ADDAY161061AY221061GA1081+006009069GF108991081051008001999999MW1611REMSYN070AAXX  25064 03928 41562 80518 10082 20074 76162 885// 333 88620 92437;
0146039280999992000042521004+54850-005800FM-12+000399999V0200201N013410060019N0120001N1+00751+00531999999ADDAY161031AY231031GA1081+006009069GF108991081051008001999999MW1621REMSYN070AAXX  25214 03928 41562 80226 10075 20053 76263 885// 333 88620 92417;
0146039280999992000051809004+54850-005800FM-12+000399999V0203001N005110060019N0150001N1+01131+00671999999ADDAY181031AY221031GA1081+006009069GF108991081051008001999999MW1811REMSYN070AAXX  18094 03928 41565 83010 10113 20067 78182 885// 333 88620 92427;
0146039280999992000052812004+54850-005800FM-12+000399999V0200201N003112200019N0500001N1+01451+00901999999ADDAY181061AY211061GA1031+007209089GF103991031011008001001001MW1021REMSYN070AAXX  28124 03928 41584 30206 10145 20090 70281 83100 333 83824 92429;
0146039280999992000081012004+54840-005800FM-12+000399999V0203501N005110060019N0400001N1+01581+01351999999ADDAY121061AY221061GA1071+006009069GF107991071051008001999999MW1601REMSYN070AAXX  10124 03928 41582 73510 10158 20135 76022 875// 333 87620 92428;
0146039280999992000081018004+54840-005800FM-12+000399999V0203401N004610060019N0400001N1+01581+01331999999ADDAY161061AY221061GA1061+006009069GF106991061051008001999999MW1021REMSYN070AAXX  10184 03928 41582 63409 10158 20133 70262 865// 333 86620 92428;
0146039280999992000081812004+54840-005800FM-12+000399999V0209999C000010060019N0250001N1+01401+01221999999ADDAY161061AY211061GA1061+006009069GF106991061051008001999999MW1601REMSYN070AAXX  18124 03928 41575 60000 10140 20122 76061 865// 333 86620 92408;
0118039280999992000100218004+54840-005800FM-12+000399999V0202601N001010072019N0250001N1+01201+00631999999ADDGA1071+007209069GF107991071051008001999999REMSYN064AAXX  02184 03928 42575 72602 10120 20063 875// 333 87624 92418;
0146039280999992000102221004+54840-005800FM-12+000399999V0201701N010310060019N0200001N1+01151+01051999999ADDAY181031AY201031GA1081+006009069GF108991081051008001999999MW1811REMSYN070AAXX  22214 03928 41570 81720 10115 20105 78180 885// 333 88620 92438;
0141039280999992000120121004+54840-005800FM-12+000399999V0201701N014912200019N0250001N1+01041+00631999999ADDGA1041+006609089GF104991041021008001001001OA140102321REMSYN076AAXX  01214 03928 42575 41729 10104 20063 84200 333 84822 90710 91145 92448;
0146039280999992000121100004+54840-005800FM-12+000399999V0201501N007710060019N0180001N1+00731+00661999999ADDAY161061AY221061GA1081+006009069GF108991081051008001999999MW1631REMSYN070AAXX  11004 03928 41568 81515 10073 20066 76362 885// 333 88620 92427;
0118039280999992000121200004+54840-005800FM-12+000399999V0202101N007710060019N0200001N1+01121+00881999999ADDGA1061+006009069GF106991061051008001999999REMSYN064AAXX  12004 03928 42570 62115 10112 20088 865// 333 86620 92418;
0118039280999992000122321004+54840-005800FM-12+000399999V0200901N003610060019N0200001N1+00751+00481999999ADDGA1081+006009069GF108991081051008001999999REMSYN064AAXX  23214 03928 42570 80907 10075 20048 885// 333 88620 92428;
0118039280999992000122915004+54840-005800FM-12+000399999V0202701N005112200019N0400001N1+00101-00271999999ADDGA1041+006609069GF104991041051008001001001REMSYN064AAXX  29154 03928 42582 42710 10010 21027 84500 333 84622 92428;
0251039530999992000010218004+51930-010250FM-12+001499999V0202001N007010030019N0150001N1+01021+00861101161ADDAA112001091AY181061AY221061GA1051+003009079GA2041+007509089GF107991071021004501999999KA1120M+01051MA1999999100801MD1610301+9999MW1021REMSYN106AAXX  02181 03953 11465 72007 10102 20086 30080 40116 56030 69992 70282 872// 333 10105 85710 84825 92427;
0169039530999992000011322004+51930-010250FM-12+001499999V0200101N009012200019N0250001N1+00651+00071102851ADDGA1021+006609099GF102991021031008001001001MA1999999102481MD1210081+9999REMSYN086    AAXX  13221 03953 42575 20109 10065 20007 30248 40285 52008 82300 333 82922 92438;
0157039530999992000011422004+51930-010250FM-12+001499999V0200801N005012200019N0550001N1+00261-00201103841ADDGA1001+999999999GF100991001001999999001001MA1999999103461MD1110241+9999REMSYN074    AAXX  14221 03953 42985 00805 10026 21020 30346 40384 51024 333 92429;
0187039530999992000012007004+51930-010250FM-12+001499999V0202101N001010045019N0200001N1+00591+00431103811ADDGA1051+004509079GA2071+010509069GF107991071061004501999999MA1999999103431MD1610091+9999REMSYN088AAXX  20071 03953 42470 72101 10059 20043 30343 40381 56009 876// 333 85715 87635 92417;
0165039530999992000012620004+51930-010250FM-12+001499999V0201101N001010105019N0150001N1+00441+00271103271ADDGA1071+010509069GF107991071051012501999999MA1999999102891MD1210141+9999REMSYN082AAXX  26201 03953 42665 71101 10044 20027 30289 40327 52014 875// 333 87635 92417;
0165039530999992000012803004+51930-010250FM-12+001499999V0202301N009010042019N0150001N1+00811+00421102011ADDGA1081+004209079GF108991081061004501999999MA1999999101641MD1710381+9999REMSYN082AAXX  28031 03953 42465 82309 10081 20042 30164 40201 57038 886// 333 88714 92437;
0215039530999992000013019004+51930-010250FM-12+001499999V0202301N011010030019N0100001N1+01091+00951101641ADDAY161999AY221999GA1061+003009079GA2081+009009069GF108991081061004501999999MA1999999101281MD1310041+9999MW1601REMSYN094AAXX  30191 03953 41460 82311 10109 20095 30128 40164 53004 76062 886// 333 86710 88630 92446;
0165039530999992000020121004+51930-010250FM-12+001499999V0203501N003010084019N0250001N1+00781+00311101701ADDGA1051+008409089GF106991061081008001999999MA1999999101331MD1210291+9999REMSYN082AAXX  01211 03953 42575 63503 10078 20031 30133 40170 52029 868// 333 85828 92438;
0187039530999992000020123004+51930-010250FM-12+001499999V0203101N005010120019N0250001N1+00781+00361101901ADDGA1021+008409089GA2071+012009069GF107991071081008001999999MA1999999101531MD1210321+9999REMSYN088AAXX  01231 03953 42575 73105 10078 20036 30153 40190 52032 878// 333 82828 87640 92438;
0193039530999992000020304004+51930-010250FM-12+001499999V0201801N003010048019N0180001N1+00801+00671103051ADDAY161999AY221999GA1081+004809079GF108991081061004501999999MA1999999102681MD1710121+9999MW1601REMSYN088AAXX  03041 03953 41468 81803 10080 20067 30268 40305 57012 76062 886// 333 88716 92437;
0228039530999992000021005004+51930-010250FM-12+001499999V0202901N012010066019N0150001N1+00641-00171100781ADDGA1031+004509079GA2031+006609089GA3081+010509069GF108991081081004501999999MA1999999100411MD1210441+9999UA1M999999049REMSYN100AAXX  10051 03953 42465 82912 10064 21017 30041 40078 52044 888// 333 83715 83822 88635 92447 91120;
0193039530999992000021011004+51930-010250FM-12+001499999V0202901N009010066019N0200001N1+00701-00121101741ADDAY111999AY211999GA1051+006609099GF105991051031008001001001MA1999999101371MD1210481+9999MW1151REMSYN088AAXX  10111 03953 41570 52909 10070 21012 30137 40174 52048 71511 85300 333 85922 92447;
0165039530999992000021111004+51930-010250FM-12+001499999V0202301N008010066019N0250001N1+01011+00651102431ADDGA1061+006609099GF106991061031008001999999MA1999999102061MD1810041+9999REMSYN082AAXX  11111 03953 42575 62308 10101 20065 30206 40243 58004 863// 333 86922 92438;
0165039530999992000021907004+51930-010250FM-12+001499999V0200101N003012200019N0200001N1+00751+00451102081ADDGA1011+006309089GF101991011021008001001001MA1999999101711MD1210291+9999REMSYN082AAXX  19071 03953 42570 10103 10075 20045 30171 40208 52029 81200 333 81821 92437;
0210039530999992000022600004+51930-010250FM-12+001499999V0201701N004010072019N0400001N1+00701+00501102491ADDAA106000191AY181061AY211061GA1051+007209099GF105991051031008001001001MA1999999102121MD1710171+9999MW1251REMSYN094AAXX  26001 03953 11582 51704 10070 20050 30212 40249 57017 69911 72581 85300 333 85924 92438;
0165039530999992000030116004+51930-010250FM-12+001499999V0203001N003012200019N0500001N1+00941+00231102421ADDGA1011+007509089GF101991011021008001001021MA1999999102051MD1310041+9999REMSYN082AAXX  01161 03953 42584 13003 10094 20023 30205 40242 53004 81202 333 81825 92439;
0187039530999992000030119004+51930-010250FM-12+001499999V0202101N002010600019N0500001N1+00631+00351102521ADDGA1031+007509089GA2031+060009009GF105991031021008001001021MA1999999102151MD1210101+9999REMSYN088AAXX  01191 03953 42584 52102 10063 20035 30215 40252 52010 83202 333 83825 83070 92429;
0215039530999992000030217004+51930-010250FM-12+001499999V0202401N010010027019N0050001N1+01131+00931101111ADDAY151999AY221999GA1061+002709079GA2081+004809079GF108991081061002501999999MA1999999100751MD1710251+9999MW1501REMSYN094AAXX  02171 03953 41350 82410 10113 20093 30075 40111 57025 75052 886// 333 86709 88716 92446;
0193039530999992000030802004+51930-010250FM-12+001499999V0202301N010010018019N0030001N1+01131+01131102301ADDAY161999AY221999GA1081+001809079GF108991081061002501999999MA1999999101931MD1510001+9999MW1501REMSYN088AAXX  08021 03953 41330 82310 10113 20113 30193 40230 55000 75062 886// 333 88706 92445;
0217039530999992000031200004+51930-010250FM-12+001499999V0200201N001010024019N0150001N1+00781+00721102861ADDAA199000091GA1051+002409079GA2081+009009069GF108991081061002501999999MA1999999102491MD1010011+9999REMSYN088AAXX  12001 03953 32365 80201 10078 20072 30249 40286 50001 886// 333 85708 88630 92427;EQDQ01  00002PRCP99
0187039530999992000031505004+51930-010250FM-12+001499999V0201101N001010600019N0450001N1+00541+00491103801ADDGA1041+012009069GA2031+060009009GF105991041051012501001021MA1999999103421MD1610031+9999REMSYN088AAXX  15051 03953 42683 51101 10054 20049 30342 40380 56003 84502 333 84640 83070 92428;
0239039530999992000031706004+51930-010250FM-12+001499999V0201501N002010105019N0300001N1+00821+00511103671ADDAA112000791GA1081+010509069GF108991081051012501999999GJ100489IA1099IA2999+00709KA1120N+00791MA1999999103301MD1810061+9999REMSYN106AAXX  17061 03953 12680 81502 10082 20051 30330 40367 58006 69902 885// 333 20079 31007 55008 88635 92418;
0165039530999992000031810004+51930-010250FM-12+001499999V0202301N001010120019N0450001N1+00941+00751104011ADDGA1081+012009069GF108991081051012501999999MA1999999103641MD1110031+9999REMSYN082AAXX  18101 03953 42683 82301 10094 20075 30364 40401 51003 885// 333 88640 92418;
0165039530999992000031816004+51930-010250FM-12+001499999V0203001N001010135019N0500001N1+01031+00621104021ADDGA1081+013509069GF108991081051012501999999MA1999999103651MD1710061+9999REMSYN082AAXX  18161 03953 42684 83001 10103 20062 30365 40402 57006 885// 333 88645 92429;
0229039530999992000032518004+51930-010250FM-12+001499999V0203001N009010072019N0300001N1+00731+00361101001ADDAA112001091AY181061AY221061GA1071+007209099GF107991071031008001999999KA1120M+00981MA1999999100631MD1310111+9999MW1801REMSYN100AAXX  25181 03953 11580 73009 10073 20036 30063 40100 53011 60012 78082 873// 333 10098 87924 92438;
0165039530999992000040314004+51930-010250FM-12+001499999V0200201N011012200019N0350001N1+00671-00381100521ADDGA1031+006609089GF103991031021008001001001MA1999999100151MD1010001+9999REMSYN082AAXX  03141 03953 42581 30211 10067 21038 30015 40052 50000 83200 333 83822 92448;
0165039530999992000040517004+51930-010250FM-12+001499999V0201601N005010075019N0600001N1+00891-00051102141ADDGA1061+007509089GF106991061021008001999021MA1999999101771MD1310051+9999REMSYN082AAXX  05171 03953 42586 61605 10089 21005 30177 40214 53005 862/2 333 86825 92429;
0184039530999992000040805004+51930-010250FM-12+001499999V0200701N002012200019N0400001N1+00181+00071102731ADDGA1011+007809089GF102991021011008001001001MA1999999102351MD1710101+9999UA1M999999029REMSYN088AAXX  08051 03953 42582 20702 10018 20007 30235 40273 57010 82100 333 81826 92428 92610;
0232039530999992000041100004+51930-010250FM-12+001499999V0202901N008010069019N0150001N1+00751+00401101241ADDAA106000391AY181061AY221061GA1061+006909089GA2081+010509069GF108991081081008001999999MA1999999100871MD1710381+9999MW1801REMSYN100AAXX  11001 03953 11565 82908 10075 20040 30087 40124 57038 69931 78082 888// 333 86823 88635 92437;
0187039530999992000041316004+51930-010250FM-12+001499999V0200201N006010600019N0400001N1+00811+00061100201ADDGA1041+006609089GA2051+060009009GF106991041021008001001021MA1999999099841MD1610071+9999REMSYN088AAXX  13161 03953 42582 60206 10081 20006 39984 40020 56007 84202 333 84822 85070 92438;
0165039530999992000041421004+51930-010250FM-12+001499999V0200101N004012200019N0400001N1+00601+00061100481ADDGA1011+008109089GF101991011021008001001001MA1999999100111MD1310041+9999REMSYN082AAXX  14211 03953 42582 10104 10060 20006 30011 40048 53004 81200 333 81827 92428;
0193039530999992000041603004+51930-010250FM-12+001499999V0201701N003010075019N0300001N1+00561+00191098761ADDAY181031AY221031GA1071+007509099GF107991071031008001999999MA1999999098401MD1710181+9999MW1251REMSYN088AAXX  16031 03953 41580 71703 10056 20019 39840 49876 57018 72582 873// 333 87925 92438;
0215039530999992000042521004+51930-010250FM-12+001499999V0200201N010010048019N0140001N1+00771+00301101001ADDAY161031AY221031GA1061+004809079GA2071+008409069GF107991071061004501999999MA1999999100631MD1210141+9999MW1601REMSYN094AAXX  25211 03953 41464 70210 10077 20030 30063 40100 52014 76062 876// 333 86716 87628 92437;
0187039530999992000050221004+51930-010250FM-12+001499999V0200801N002012200019N0350001N1+01311+00811102861ADDGA1021+012009069GA2031+060009009GF104991021051012501001021MA1999999102491MD1210081+9999REMSYN088AAXX  02211 03953 42681 40802 10131 20081 30249 40286 52008 82502 333 82640 83070 92428;
0193039530999992000050816004+51930-010250FM-12+001499999V0202301N001010072019N0150001N1+01481+01391101851ADDAY191999AY281999GA1081+007209099GF108991081031008001999999MA1999999101491MD1010051+9999MW1911REMSYN088AAXX  08161 03953 41565 82301 10148 20139 30149 40185 50005 79198 883// 333 88924 92417;
0251039530999992000050818004+51930-010250FM-12+001499999V0203201N002010600019N0200001N1+01571+01411101781ADDAA112006191AY191061AY281061GA1031+007209099GA2041+060009009GF105991031031008001001021KA1120M+01791MA1999999101421MD1710081+9999MW1251REMSYN106AAXX  08181 03953 11570 53202 10157 20141 30142 40178 57008 60062 72598 83302 333 10179 83924 84070 92417;
0165039530999992000050920004+51930-010250FM-12+001499999V0202301N002012200019N0150001N1+01341+01191102001ADDGA1031+060009009GF103991001001999999001021MA1999999101641MD1310071+9999REMSYN082AAXX  09201 03953 42965 32302 10134 20119 30164 40200 53007 80002 333 83070 92427;
0187039530999992000051022004+51930-010250FM-12+001499999V0201001N004012200019N0250001N1+01831+00991101981ADDGA1011+007809089GA2031+060009009GF103991011021008001001021MA1999999101621MD1210111+9999REMSYN088AAXX  10221 03953 42575 31004 10183 20099 30162 40198 52011 81202 333 81826 83070 92428;
0215039530999992000051714004+51930-010250FM-12+001499999V0202901N008010030019N0120001N1+01011+00891101141ADDAY161999AY221999GA1051+003009079GA2071+010509069GF107991071061004501999999MA1999999100781MD1610031+9999MW1601REMSYN094AAXX  17141 03953 41462 72908 10101 20089 30078 40114 56003 76062 876// 333 85710 87635 92437;
0193039530999992000052510004+51930-010250FM-12+001499999V0202601N007010075019N0300001N1+01131+00501101081ADDAY181999AY221999GA1051+007509099GF105991051031008001001001MA1999999100721MD1110071+9999MW1251REMSYN088AAXX  25101 03953 41580 52607 10113 20050 30072 40108 51007 72582 85300 333 85925 92438;
0187039530999992000060709004+51930-010250FM-12+001499999V0201701N006010600019N0150001N1+01291+00921102231ADDGA1021+003609079GA2061+060009029GF108991031061004501001081MA1999999101871MD1710161+9999REMSYN088AAXX  07091 03953 42465 81706 10129 20092 30187 40223 57016 83608 333 82712 86270 92427;
0215039530999992000061115004+51930-010250FM-12+001499999V0202001N006010015019N0020001N1+01361+01321101651ADDAY161031AY251031GA1061+001509079GA2081+003609079GF108991081061001501999999MA1999999101291MD1510011+9999MW1611REMSYN094AAXX  11151 03953 41220 82006 10136 20132 30129 40165 55001 76165 886// 333 86705 88712 92434;
0187039530999992000061305004+51930-010250FM-12+001499999V0202501N006010240019N0150001N1+01221+00901102231ADDGA1011+004809079GA2051+024009039GF105991011061004501031021MA1999999101871MD1110071+9999REMSYN088AAXX  13051 03953 42465 52506 10122 20090 30187 40223 51007 81632 333 81716 85358 92437;
0187039530999992000061804004+51920-010250FM-12+001499999V0202301N001010105019N0120001N1+01251+01191101811ADDGA1011+003009079GA2061+010509069GF106991061051004501999999MA1999999101451MD1710211+9999REMSYN088AAXX  18041 03953 42462 62301 10125 20119 30145 40181 57021 865// 333 81710 86635 92427;
0215039530999992000062013004+51920-010250FM-12+001499999V0201701N007010054019N0200001N1+01501+01211100271ADDAY161999AY221999GA1061+005409079GA2081+011409069GF108991081061004501999999MA1999999099921MD1810051+9999MW1601REMSYN094AAXX  20131 03953 41470 81707 10150 20121 39992 40027 58005 76062 886// 333 86718 88638 92437;
0187039530999992000062611004+51920-010250FM-12+001499999V0201601N003010090019N0300001N1+01441+01061102531ADDGA1011+004209079GA2071+009009069GF107991071051004501001001MA1999999102171MD1110041+9999REMSYN088AAXX  26111 03953 42480 71603 10144 20106 30217 40253 51004 87500 333 81714 87630 92418;
0193039530999992000062922004+51920-010250FM-12+001499999V0209999C000010003019N0004001N1+01351+01331101881ADDAY141999AY241999GA1081+000309079GF108991081061000251999999MA1999999101521MD1310011+9999MW1461REMSYN088AAXX  29221 03953 41004 80000 10135 20133 30152 40188 53001 74644 886// 333 88701 92412;
0165039530999992000070404004+51920-010250FM-12+001499999V0200701N001012200019N0250001N1+01131+01111100841ADDGA1031+006609099GF103991031031008001001001MA1999999100481MD1310011+9999REMSYN082AAXX  04041 03953 42575 30701 10113 20111 30048 40084 53001 83300 333 83922 92418;
0187039530999992000070717004+51920-010250FM-12+001499999V0203501N006010105019N0400001N1+01371+00921102851ADDGA1031+006009089GA2071+010509069GF107991071081008001999999MA1999999102491MD1210071+9999REMSYN088AAXX  07171 03953 42582 73506 10137 20092 30249 40285 52007 878// 333 83820 87635 92439;
0209039530999992000071115004+51920-010250FM-12+001499999V0202901N005010300019N0500001N1+01421+00891101691ADDGA1031+006009089GA2031+030009039GA3051+060009009GF107991031021008001031021MA1999999101331MD1810041+9999REMSYN094AAXX  11151 03953 42584 72905 10142 20089 30133 40169 58004 83232 333 83820 83360 85070 92429;
0237039530999992000071119004+51920-010250FM-12+001499999V0202801N003010270019N0450001N1+01371+01071101681ADDAY181999AY221999GA1021+006009089GA2041+012009069GA3081+027009049GF108991041081008001071999MA1999999101321MD1510021+9999MW1801REMSYN100AAXX  11191 03953 41583 82803 10137 20107 30132 40168 55002 78082 8487/ 333 82820 84640 88459 92428;
0165039530999992000072208004+51920-010250FM-12+001499999V0200501N003010600019N0300001N1+01991+01351101991ADDGA1061+060009009GF106991001001999999001021MA1999999101641MD1810071+9999REMSYN082AAXX  22081 03953 42980 60503 10199 20135 30164 40199 58007 80002 333 86070 92428;
0165039530999992000072315004+51920-010250FM-12+001499999V0201201N004010090019N0140001N1+02001+01241101401ADDGA1051+009009069GF105991051051012501001001MA1999999101051MD1710021+9999REMSYN082AAXX  23151 03953 42664 51204 10200 20124 30105 40140 57002 85500 333 85630 92427;
0187039530999992000072711004+51920-010250FM-12+001499999V0202101N004010024019N0200001N1+01621+01481100941ADDGA1061+002409079GA2051+011109069GF107991071061002501999999MA1999999100591MD1210051+9999REMSYN088AAXX  27111 03953 42370 72104 10162 20148 30059 40094 52005 876// 333 86708 85637 92427;
0187039530999992000072720004+51920-010250FM-12+001499999V0202201N003010300019N0200001N1+01561+01441101091ADDGA1021+002709079GA2021+006009099GF105991031031002501031021MA1999999100731MD1210091+9999REMSYN088AAXX  27201 03953 42370 52203 10156 20144 30073 40109 52009 83332 333 82709 82920 92427;
0193039530999992000073022004+51920-010250FM-12+001499999V0201901N005010012019N0010001N1+01701+01701101801ADDAY151999AY251999GA1081+001209079GF108991081061001501999999MA1999999101441MD1310011+9999MW1511REMSYN088AAXX  30221 03953 41210 81905 10170 20170 30144 40180 53001 75155 886// 333 88704 92423;
0215039530999992000080203004+51920-010250FM-12+001499999V0202801N006010060019N0120001N1+01471+01361101101ADDAY121031AY221031GA1021+003009079GA2051+006009089GF105991051021004501001001MA1999999100741MD1110101+9999MW1101REMSYN094AAXX  02031 03953 41462 52806 10147 20136 30074 40110 51010 71022 85200 333 82710 85820 92437;
0187039530999992000081117004+51920-010250FM-12+001499999V0201801N006010105019N0350001N1+01861+01591101151ADDGA1031+003009079GA2031+010509069GF107991051081004501031999MA1999999100801MD1710151+9999REMSYN088AAXX  11171 03953 42481 71806 10186 20159 30080 40115 57015 8583/ 333 83710 83635 92428;
0187039530999992000081222004+51920-010250FM-12+001499999V0201501N002010135019N0400001N1+01541+01471101131ADDGA1021+002109079GA2061+013509069GF106991061051002501999999MA1999999100771MD1210051+9999REMSYN088AAXX  12221 03953 42382 61502 10154 20147 30077 40113 52005 865// 333 82707 86645 92428;
0215039530999992000082108004+51920-010250FM-12+001499999V0201601N003010600019N0750001N1+01401+01061101001ADDAY181999AY221999GA1011+007209099GA2061+060009009GF107991021031008001001021MA1999999100641MD1710031+9999MW1251REMSYN094AAXX  21081 03953 41589 71603 10140 20106 30064 40100 57003 72582 82302 333 81924 86070 92429;
0165039530999992000082409004+51920-010250FM-12+001499999V0202801N001012200019N0450001N1+01851+01321102481ADDGA1011+012009069GF101991011051012501001001MA1999999102121MD1110061+9999REMSYN082AAXX  24091 03953 42683 12801 10185 20132 30212 40248 51006 81500 333 81640 92428;
0251039530999992000082718004+51920-010250FM-12+001499999V0202801N005010120019N0400001N1+01531+01281101721ADDAA112002091AY181061AY211061GA1011+006309089GA2071+012009069GF107991071081008001999999KA1120M+01701MA1999999101361MD1210081+9999MW1011REMSYN106AAXX  27181 03953 11582 72805 10153 20128 30136 40172 52008 60022 70181 878// 333 10170 81821 87640 92428;
0165039530999992000082802004+51920-010250FM-12+001499999V0201801N001012200019N0400001N1+01101+01021101851ADDGA1011+006309089GF101991011021008001001001MA1999999101491MD1510011+9999REMSYN082AAXX  28021 03953 42582 11801 10110 20102 30149 40185 55001 81200 333 81821 92418;
0239039530999992000090512004+51920-010250FM-12+001499999V0202101N005010060019N0140001N1+01721+01461101891ADDAA199000091GA1031+005409079GA2041+006009089GA3061+010509069GF107991071081004501999999MA1999999101531MD1710081+9999REMSYN094AAXX  05121 03953 32464 72105 10172 20146 30153 40189 57008 878// 333 83718 84820 86635 92427;EQDQ01  00002PRCP99
0193039530999992000090923004+51920-010250FM-12+001499999V0201601N006010024019N0080001N1+01681+01651101911ADDAY121999AY221999GA1081+002409079GF108991081061002501999999MA1999999101551MD1210071+9999MW1101REMSYN088AAXX  09231 03953 41358 81606 10168 20165 30155 40191 52007 71022 886// 333 88708 92426;
0165039530999992000091920004+51920-010250FM-12+001499999V0200101N005012200019N0300001N1+01101+00701100101ADDGA1031+007209099GF103991031031008001001001MA1999999099741MD1210151+9999REMSYN082AAXX  19201 03953 42580 30105 10110 20070 39974 40010 52015 83300 333 83924 92438;
0165039530999992000092123004+51920-010250FM-12+001499999V0202001N004012200019N0300001N1+01271+01041100511ADDGA1021+005709089GF102991021021004501001001MA1999999100151MD1210141+9999REMSYN082AAXX  21231 03953 42480 22004 10127 20104 30015 40051 52014 82200 333 82819 92428;
0165039530999992000092311004+51920-010250FM-12+001499999V0201701N009010066019N0250001N1+01591+01231100261ADDGA1071+006609089GF107991071021008001999021MA1999999099911MD1710041+9999REMSYN082AAXX  23111 03953 42575 71709 10159 20123 39991 40026 57004 872/2 333 87822 92438;
0187039530999992000092507004+51920-010250FM-12+001499999V0200801N006010600019N0600001N1+01291+00871101161ADDGA1011+007809089GA2051+060009009GF105991021081008001001021MA1999999100801MD1710091+9999REMSYN088AAXX  25071 03953 42586 50806 10129 20087 30080 40116 57009 82802 333 81826 85070 92429;
0215039530999992000092620004+51920-010250FM-12+001499999V0202301N004010042019N0200001N1+01341+01231101241ADDAY181999AY221999GA1051+004209079GA2041+006009089GF107991061021004501999021MA1999999100881MD1310021+9999MW1251REMSYN094AAXX  26201 03953 41470 72304 10134 20123 30088 40124 53002 72582 862/2 333 85714 84820 92427;
0193039530999992000092722004+51920-010250FM-12+001499999V0202301N004010060019N0250001N1+01111+00761099511ADDAY181999AY221999GA1071+006009099GF107991071031008001999999MA1999999099151MD1710131+9999MW1251REMSYN088AAXX  27221 03953 41575 72304 10111 20076 39915 49951 57013 72582 873// 333 87920 92438;
0215039530999992000100409004+51920-010250FM-12+001499999V0202101N009010054019N0200001N1+01271+01121101321ADDAY161031AY221031GA1051+005409079GA2071+012009069GF107991071061004501999999MA1999999100961MD1510081+9999MW1601REMSYN094AAXX  04091 03953 41470 72109 10127 20112 30096 40132 55008 76062 876// 333 85718 87640 92437;
0193039530999992000100701004+51920-010250FM-12+001499999V0202101N006010027019N0100001N1+01361+01291102341ADDAY151999AY221999GA1081+002709079GF108991081061002501999999MA1999999101981MD1710181+9999MW1201REMSYN088AAXX  07011 03953 41360 82106 10136 20129 30198 40234 57018 72052 886// 333 88709 92436;
0215039530999992000102003004+51920-010250FM-12+001499999V0202801N008010060019N0200001N1+00811+00501100421ADDAY161031AY221031GA1061+006009079GA2071+010509069GF107991071081008001999999MA1999999100061MD1110391+9999MW1011REMSYN094AAXX  20031 03953 41570 72808 10081 20050 30006 40042 51039 70162 878// 333 86720 87635 92447;
0165039530999992000102008004+51920-010250FM-12+001499999V0202401N005012200019N0300001N1+00851+00441100791ADDGA1031+007209099GF103991031031008001001001MA1999999100431MD1210261+9999REMSYN082AAXX  20081 03953 42580 32405 10085 20044 30043 40079 52026 83300 333 83924 92438;
0212039530999992000102423004+51920-010250FM-12+001499999V0202401N010012200019N0100001N1+01091+00871100221ADDAY161999AY211999GA1031+002709079GF104991041061002501001001MA1999999099861MD1510071+9999MW1211UA1M999999049REMSYN094AAXX  24231 03953 41360 42410 10109 20087 39986 40022 55007 72161 84600 333 83709 92447 91117;
0184039530999992000103010004+51920-010250FM-12+001499999V0202501N014010081019N0180001N1+01021+00541098021ADDGA1071+008109099GF107991071031008001999999MA1999999097671MD1010011+9999UA1M999999049REMSYN088AAXX  30101 03953 42568 72514 10102 20054 39767 49802 50001 873// 333 87927 92447 91120;
0218039530999992000103015004+51920-010250FM-12+001499999V0202801N013010066019N0150001N1+01011+00691098021ADDAY181031AY221031GA1071+006609099GF107991071031008001999999MA1999999097671MD1010021+9999MW1251UA1M999999049REMSYN100AAXX  30151 03953 41565 72813 10101 20069 39767 49802 50002 72582 873// 333 87922 92447 90710 91119;
0212039530999992000103023004+51920-010250FM-12+001499999V0203101N010010054019N0120001N1+01101+00791098911ADDAY181999AY221999GA1081+005409099GF108991081031004501999999MA1999999098561MD1210521+9999MW1801UA1M999999059REMSYN094AAXX  30231 03953 41462 83110 10110 20079 39856 49891 52052 78082 883// 333 88918 92457 91120;
0165039530999992000111123004+51920-010250FM-12+001499999V0202901N008010063019N0180001N1+00791+00501099431ADDGA1051+006309099GF105991051031008001001001MA1999999099071MD1210131+9999REMSYN082AAXX  11231 03953 42568 52908 10079 20050 39907 49943 52013 85300 333 85921 92437;
0165039530999992000111205004+51920-010250FM-12+001499999V0202901N005012200019N0250001N1+00781+00231099401ADDGA1031+006609099GF103991031031008001001001MA1999999099041MD1710041+9999REMSYN082AAXX  12051 03953 42575 32905 10078 20023 39904 49940 57004 83300 333 83922 92438;
0215039530999992000111308004+51920-010250FM-12+001499999V0203401N002010066019N0200001N1+00591+00501099801ADDAY181999AY221999GA1011+003609079GA2071+006609099GF107991071031004501999999MA1999999099441MD1510041+9999MW1251REMSYN094AAXX  13081 03953 41470 73402 10059 20050 39944 49980 55004 72582 873// 333 81712 87922 92437;
0165039530999992000112019004+51920-010250FM-12+001499999V0203001N004010066019N0350001N1+00761+00341099961ADDGA1071+006609099GF107991071031008001999999MA1999999099601MD1810041+9999REMSYN082AAXX  20191 03953 42581 73004 10076 20034 39960 49996 58004 873// 333 87922 92438;
0193039530999992000112101004+51920-010250FM-12+001499999V0203001N002010066019N0300001N1+00631+00401099671ADDAY181999AY211999GA1071+006609099GF107991071031008001999999MA1999999099311MD1710221+9999MW1251REMSYN088AAXX  21011 03953 41580 73002 10063 20040 39931 49967 57022 72581 873// 333 87922 92438;
0165039530999992000120519004+51920-010250FM-12+001499999V0201701N007010042019N0200001N1+01011+00831098411ADDGA1071+004209079GF107991071061004501999999MA1999999098061MD1510011+9999REMSYN082AAXX  05191 03953 42470 71707 10101 20083 39806 49841 55001 876// 333 87714 92437;
0232039530999992000120800004+51920-010250FM-12+001499999V0203301N001010030019N0100001N1+00751+00661098731ADDAA106000891AY161061AY261061GA1051+003009079GA2081+012009059GF108991051061004501021999MA1999999098371MD1510001+9999MW1611REMSYN100AAXX  08001 03953 11460 83301 10075 20066 39837 49873 55000 69971 76166 8562/ 333 85710 88540 92426;
0187039530999992000120916004+51920-010250FM-12+001499999V0201701N005010105019N0400001N1+00921+00751099201ADDGA1011+003009079GA2071+010509069GF107991071081004501999999MA1999999098841MD1710281+9999REMSYN088AAXX  09161 03953 42482 71705 10092 20075 39884 49920 57028 878// 333 81710 87635 92438;
0187039530999992000122020004+51920-010250FM-12+001499999V0200801N006010120019N0600001N1+00921+00621100311ADDGA1011+006609089GA2071+012009069GF107991071081008001999999MA1999999099951MD1510061+9999REMSYN088AAXX  20201 03953 42586 70806 10092 20062 39995 40031 55006 878// 333 81822 87640 92429;
0229039530999992000122718004+51920-010250FM-12+001499999V0203401N008010066019N0250001N1+00201+00041099721ADDAA112002091AY181061AY221061GA1071+006609099GF107991071031008001999999KA1120M+00511MA1999999099351MD1310091+9999MW1251REMSYN100AAXX  27181 03953 11575 73408 10020 20004 39935 49972 53009 60022 72582 873// 333 10051 87922 92438;
0193039530999992000122814004+51920-010250FM-12+001499999V0202901N005010063019N0300001N1+00631+00241099511ADDAY181999AY221999GA1071+006309099GF107991071031008001999999MA1999999099151MD1510071+9999MW1251REMSYN088AAXX  28141 03953 41580 72905 10063 20024 39915 49951 55007 72582 873// 333 87921 92438;
0165039550999992000010319004+51850-008480FM-12+0162EICK V0202101N002012200019N0200001N1+00381+00311101601ADDGA1011+004509079GF103991021051004501001011MA1999999099591MD1510051+9999REMSYN082AAXX  03191 03955 42470 32102 10038 20031 39959 40160 55005 82501 333 81715 83072;
0325039550999992000010713004+51850-008480SY-MT+0162EICK V0202101N013010015019N0035001N1+00911+00831100431ADDAY161999AY261999GA1071+001509999GA2071+002709999GF108991081071001501999999MA1100411098481MD1810281+9999MW1611OC101951REMSYN094AAXX  07131 03955 41235 82113 10091 20083 39848 40043 58028 76166 887// 333 85705 87709 91122;MET077EICK 071300Z 21026G38KT 3500 -RA BKN005 BKN009 09/08 Q1004 TEMPO 1500 BKN002;EQDQ01    003PRSWM1
0145039550999992000010805004+51850-008480FM-15+0162EICK V0202301N004112200019N0112651N1+00301+00101999999ADDGA1021+012009999GF104991999999999999999999MA1101081999999MW1001REMMET051EICK 080500Z 23008KT 9999 SCT040 03/01 Q1011 NOSIG;EQDQ01+000000PRSWM2
0274039550999992000011511004+51850-008480SY-MT+016299999V0203601N00501220001CN0500001N1+00161+00081104191ADDGA1021+006009999GA2021+010509999GF103991031081008001001001MA1104001102111MD1210181+9999MW1001REMSYN086    AAXX  15111 03955 42584 33605 10016 20008 30211 40419 52018 83800 333 81820 83635;MET058EICK 151100Z 36010KT 9999 FEW020 SCT035 02/01 Q1040 NOSIG;EQDQ01+000000PRSWM2
0269039550999992000011800004+51850-008480SY-MT+016299999V0203401N00601220001CN0150001N1+00351+00251104171ADDAA106000791GA1021+012009999GF103991031051012501001001MA1104001102111MD1010001+9999MW1001REMSYN086    AAXX  18001 03955 12665 33406 10035 20025 30211 40417 50000 69901 83500 333 83640;MET058EICK 180000Z 34012KT 9999 SCT040 04/03 Q1040 BECMG BKN005;EQDQ01+000000PRSWM2
0350039550999992000011818004+51850-008480SY-MT+016299999V0203401N00201000601CN0025001N1+00581+00541103911ADDAA199000091AY121061AY221061GA1021+000309999GA2081+000609999GF108991081061000251999999KA1120M+00831MA1103791101871MD1510011+9999MW1101REMSYN098    AAXX  18181 03955 31025 83402 10058 20054 30187 40391 55001 71022 886// 333 10083 83701 88702;MET066EICK 181800Z 34004KT 2500 BR SCT001 OVC002 06/05 Q1038 TEMPO 1500;EQDQ01  00002PRCP99Q02    003PRSWM1
0283039550999992000011915004+51850-008480SY-MT+016299999V0202501N00101003001CN0110001N1+00311+00121104011ADDAY121031AY221031GA1081+003009999GF108991081061004501999999MA1103891101941MD1710101+9999MW1101REMSYN086    AAXX  19151 03955 41461 82501 10031 20012 30194 40401 57010 71022 886// 333 88710;MET051EICK 191500Z VRB01KT 9999 OVC010 03/01 Q1039 NOSIG;EQDQ01+000000PRSWM2Q02    003PRSWM1
0145039550999992000012002304+51850-008480FM-15+0162EICK V0202901N001510039019N0112651N1+00201+00101999999ADDGA1081+003909999GF108991999999999999999999MA1103791999999MW1001REMMET051EICK 200330Z 29003KT 9999 OVC013 02/01 Q1038 NOSIG;EQDQ01+000000PRSWM2
0270039550999992000012715004+51850-008480SY-MT+0162EICK V0202401N003010150019N0300001N1+00551+00091102831ADDGA1021+007809999GA2071+015009999GF107991071051008001999021MA1102711100801MD1610241+9999MW1001REMSYN082AAXX  27151 03955 42580 72403 10055 20009 30080 40283 56024 875/2 333 82626 87650;MET058EICK 271500Z 24006KT 9999 FEW026 BKN050 06/01 Q1027 NOSIG;EQDQ01+000000PRSWM2
0310039550999992000013114004+51850-008480SY-MT+0162EICK V0202201N01001015001CN0200001N1+00991+00761101731ADDGA1021+003609999GA2021+005709999GA3071+015009999GF107991061081004501031021MA1101691099761MD1810151+9999MW1001OC101541REMSYN088AAXX  31141 03955 42470 72210 10099 20076 39976 40173 58015 86832 333 82712 84819 85650;MET068EICK 311400Z 22020G30KT 9999 FEW012 SCT019 BKN050 10/08 Q1017 NOSIG;EQDQ01+000000PRSWM2
0316039550999992000020808004+51850-008480SY-MT+0162EICK V0202501N011012200019N0250001N1+00761+00231100011ADDAY181999AY211999GA1021+006009099GA2021+013509999GF104991041031008001001001MA1099901098061MD1310361+9999MW1251REMSYN094AAXX  08081 03955 41575 42511 10076 20023 39806 40001 53036 72581 84300 333 81920 84645 91122;MET060EICK 080800Z 25022KT 9999 FEW020CB SCT045 08/02 Q0999 NOSIG;EQDQ01+000000PRSWM2Q02    003PRSWM1
0296039550999992000020813004+51850-008480SY-MT+0162EICK V0202501N016012200019N0350001N1+00841-00231100631ADDAY111999AY211999GA1021+006009099GF103991031091008001001001MA1100611098681MD1010301+9999MW1151MW2161OC102521REMSYN088AAXX  08131 03955 41581 32516 10084 21023 39868 40063 50030 71511 83900 333 82920 91125;MET064EICK 081300Z 25032G49KT 9999 VCSHRA FEW020CB 08/M02 Q1006 NOSIG;EQDQ01    003PRSWM1
0270039550999992000021105004+51850-008480SY-MT+0162EICK V0202301N00301030001CN0400001N1+00481+00331102501ADDGA1021+012009999GA2021+024009999GF105991021051012501031001MA1102401100481MD1510011+9999MW1001REMSYN082AAXX  11051 03955 42682 52303 10048 20033 30048 40250 55001 82530 333 82640 84358;MET058EICK 110500Z 23006KT 9999 FEW040 SCT080 05/03 Q1024 NOSIG;EQDQ01+000000PRSWM2
0362039550999992000021121004+51850-008480SY-MT+0162EICK V0202101N014010066019N0150001N1+00871+00611101621ADDAY181031AY221031GA1021+005409099GA2071+006609999GA3071+009609999GF107991071031004501999999MA1101491099651MD1610311+9999MW1021OC102061REMSYN106AAXX  11211 03955 41465 72114 10087 20061 39965 40162 56031 70282 873// 333 83918 85822 87632 90710 91121;MET070EICK 112100Z 21028G40KT 9999 SCT018CB BKN022 BKN032 09/06 Q1015 NOSIG;EQDQ01+000000PRSWM2Q02    003PRSWM1
0179039550999992000021204004+51850-008480FM-15+0162EICK V0202701N008212200019N0112651N1+00601+00201999999ADDGA1021+005409999GA2021+013509999GF104991999999999999999999MA1101291999999MW1001OC101391REMMET061EICK 120400Z 27016G27KT 9999 FEW018 SCT045 06/02 Q1013 NOSIG;EQDQ01+000000PRSWM2
0331039550999992000021708004+51850-008480SY-MT+0162EICK V0202401N003010045019N0140001N1+00511+00461101491ADDAY151999AY221999GA1021+002409999GA2071+004509999GA3071+008409999GF108991081061002501999999MA1101391099491MD1110071+9999MW1501MW2511REMSYN094AAXX  17081 03955 41364 82403 10051 20046 39949 40149 51007 75052 886// 333 82708 85715 87628;MET069EICK 170800Z 24006KT 9999 -DZ FEW008 BKN015 BKN028 05/05 Q1014 NOSIG;EQDQ01    003PRSWM1
0275039550999992000022303004+51850-008480SY-MT+0162EICK V0202401N00401004201CN0070001N1+00821+00741101791ADDGA1021+004809999GA2021+007209999GF107991061061004501031021MA1101691099811MD1810041+9999MW1001REMSYN082AAXX  23031 03955 42457 72404 10082 20074 39981 40179 58004 86632 333 83716 84624;MET063EICK 230300Z 25008KT 7000 SCT016 SCT024 08/07 Q1017 TEMPO 2000;EQDQ01+000000PRSWM2
0327039550999992000022605004+51850-008480SY-MT+0162EICK V0201701N004010045019N0200001N1+00681+00571102351ADDAY181999AY221999GA1021+002409999GA2071+004509999GA3071+006009999GF107991071081002501999999MA1102201100341MD1710191+9999MW1801REMSYN094AAXX  26051 03955 41370 71704 10068 20057 30034 40235 57019 78082 878// 333 82708 85815 86620;MET071EICK 260500Z 17007KT 9999 -SHRA FEW008 BKN015 BKN020 07/06 Q1022 NOSIG;EQDQ01    003PRSWM1
0337039550999992000022716004+51850-008480SY-MT+0162EICK V0202501N00401036001CN0400001N1+00631+00271100631ADDAY161999AY221999GA1021+004509999GA2021+009009999GA3081+036009999GF108991051051004501071999MA1100511098661MD1610031+9999MW1211REMSYN094AAXX  27161 03955 41482 82504 10063 20027 39866 40063 56003 72162 8557/ 333 82715 84630 88462;MET065EICK 271600Z 25008KT 9999 FEW015 SCT030 OVC120 06/03 Q1005 NOSIG;EQDQ01+000000PRSWM2Q02    003PRSWM1
0258039550999992000030421004+51850-008480SY-MT+0162EICK V0209999C000012200019N0400001N1+00381-00151103381ADDGA1021+012009999GF199999011051012501001001MA1103291101331MD1110111+9999MW1001REMSYN076AAXX  04211 03955 42682 10000 10038 21015 30133 40338 51011 81500 333 81640;MET052EICK 042100Z 00000KT 9999 FEW040 04/M01 Q1033 NOSIG;EQDQ01+000012SCOTCVQ02+000000PRSWM2
0270039550999992000030819004+51850-008480SY-MT+0162EICK V0202501N00601004201CN0250001N1+01201+01031102551ADDGA1021+003609999GA2021+006909999GF105991051061004501001001MA1102511100591MD1210101+9999MW1001REMSYN082AAXX  08191 03955 42475 52506 10120 20103 30059 40255 52010 85600 333 83712 84623;MET058EICK 081900Z 25011KT 9999 SCT012 SCT023 12/10 Q1025 NOSIG;EQDQ01+000000PRSWM2
0182039550999992000031300004+51850-008480FM-12+0162EICK V0202901N003012200019N0200001N1+00991+00801102881ADDAA106000791GA1011+005109079GF104991011061004501031021MA1999999100891MD1010001+9999REMSYN088AAXX  13001 03955 12470 42903 10099 20080 30089 40288 50000 69901 81632 333 81717 83080;
0286039550999992000031422004+51850-008480SY-MT+0162EICK V0202901N003010750019N0500001N1+00511+00231103661ADDGA1021+010209999GA2071+075009999GF199999011051012501001021MA1103491101621MD1110171+9999MW1001REMSYN082AAXX  14221 03955 42684 52903 10051 20023 30162 40366 51017 81502 333 81634 85075;MET058EICK 142200Z 29006KT 9999 FEW034 BKN250 05/02 Q1035 NOSIG;EQDQ01+000052SCOTCVQ02+000000PRSWM2
0241039550999992000031504004+51850-008480SY-MT+0162EICK V0203301N003012200019N0400001N1+00371+00271103731ADDGA1021+012009999GF102991021051012501001001MA1103591101681MD1710051+9999MW1001REMSYN076AAXX  15041 03955 42682 23303 10037 20027 30168 40373 57005 82500 333 82640;MET051EICK 150400Z 33006KT 9999 FEW040 04/03 Q1036 NOSIG;EQDQ01+000000PRSWM2
0241039550999992000031602004+51850-008480SY-MT+0162EICK V0203301N003010054019N0400001N1+00751+00481103811ADDGA1081+005409999GF108991081051004501999999MA1103691101781MD1610021+9999MW1001REMSYN076AAXX  16021 03955 42482 83303 10075 20048 30178 40381 56002 885// 333 88618;MET051EICK 160200Z 33006KT 9999 OVC018 08/05 Q1037 NOSIG;EQDQ01+000000PRSWM2
0325039550999992000031706004+51850-008480SY-MT+0162EICK V0202901N002010060019N0200001N1+00731+00501103661ADDAA199000091GA1081+006009999GF108991081051008001999999GJ100009IA1019IA2999+00709KA1120N+00731MA1103591101641MD1710031+9999MW1001REMSYN094AAXX  17061 03955 32570 82902 10073 20050 30164 40366 57003 885// 333 20073 30007 55000 88620;MET051EICK 170600Z 29003KT 9999 OVC020 07/05 Q1036 NOSIG;EQDQ01+000000PRSWM2Q02  00002PRCP99
0265039550999992000032217004+51850-008480SY-MT+0162EICK V0201201N003012200019N0200001N1+01001+00391101401ADDGA1021+007509999GF199999011011008001001001MA1101291099441MD1610111+9999MW1001REMSYN076AAXX  22171 03955 42570 11203 10100 20039 39944 40140 56011 81100 333 81825;MET059EICK 221700Z 12005KT 080V150 9999 FEW025 10/04 Q1013 NOSIG;EQDQ01+000012SCOTCVQ02+000000PRSWM2
0319039550999992000040200004+51850-008480SY-MT+0162EICK V0200901N001010090019N0180001N1+00601+00341099591ADDAA106000791AY161061AY211061GA1021+004809999GA2071+009009999GF107991071081004501999999MA1099491097641MD1610021+9999MW1601MW2611REMSYN094AAXX  02001 03955 11468 70901 10060 20034 39764 49959 56002 69901 76061 878// 333 81716 86630;MET062EICK 020000Z 08002KT 9999 -RA FEW016 BKN030 06/03 Q0995 NOSIG;EQDQ01    003PRSWM1
0247039550999992000041201004+51850-008480SY-MT+0162EICK V0203101N005012200019N0300001N1+00151+00021099241ADDGA1021+010509999GF103991031051012501001001MA1099091097251MD1710121+9999MW1001REMSYN082AAXX  12011 03955 42680 33105 10015 20002 39725 49924 57012 83500 333 83635 92600;MET051EICK 120100Z 31009KT 9999 SCT035 02/00 Q0991 NOSIG;EQDQ01+000000PRSWM2
0258039550999992000041409004+51850-008480SY-MT+0162EICK V0200401N007012200019N0400001N1+00571-00041100341ADDGA1021+006009999GF199999011081008001001021MA1100201098371MD1110111+9999MW1001REMSYN076AAXX  14091 03955 42582 10407 10057 21004 39837 40034 51011 81802 333 81820;MET052EICK 140900Z 04013KT 9999 FEW020 06/M00 Q1002 NOSIG;EQDQ01+000012SCOTCVQ02+000000PRSWM2
0325039550999992000041620004+51850-008480SY-MT+0162EICK V0201201N005010042019N0090001N1+00521+00421098881ADDAY181999AY261999GA1021+003009999GA2071+004209999GA3071+006909999GF108991081061004501999999MA1098821096931MD1010011+9999MW1611REMSYN094AAXX  16201 03955 41459 81205 10052 20042 39693 49888 50001 76186 886// 333 83710 85714 87623;MET069EICK 162000Z 12010KT 9000 -RA SCT010 BKN014 BKN023 05/04 Q0988 NOSIG;EQDQ01    003PRSWM1
0346039550999992000041922004+51850-008480SY-MT+0162EICK V0201701N00701001501CN0050001N1+00931+00891099181ADDAY161999AY251999GA1021+000909999GA2071+001509999GA3071+002409999GF108991081061001501999999MA1099091097261MD1610011+9999MW1601MW2611REMSYN094AAXX  19221 03955 41250 81707 10093 20089 39726 49918 56001 76065 886// 333 84703 85707 87708;MET084EICK 192200Z 17013KT 120V220 5000 -RA SCT003 BKN005 BKN008 09/09 Q0991 BECMG BKN010;EQDQ01    003PRSWM1
0299039550999992000042110004+51850-008480SY-MT+0162EICK V0201701N008010051019N0250001N1+01061+00731099681ADDGA1021+003609999GA2071+005109999GA3071+010209999GF107991071081004501999999MA1099591097751MD1010091+9999MW1001REMSYN088AAXX  21101 03955 42475 71708 10106 20073 39775 49968 50009 878// 333 83712 85817 85634;MET065EICK 211000Z 17016KT 9999 SCT012 BKN017 BKN034 11/07 Q0996 NOSIG;EQDQ01+000000PRSWM2
0307039550999992000042813004+51850-008480SY-MT+0162EICK V0201401N005010054019N0250001N1+01071+00601100801ADDGA1021+004509999GA2071+005409999GA3071+018009999GF107991071081004501999999MA1100711098851MD1310021+9999MW1001REMSYN088AAXX  28131 03955 42475 71405 10107 20060 39885 40080 53002 878// 333 82715 86818 85656;MET073EICK 281300Z 14009KT 110V180 9999 FEW015 BKN018 BKN060 11/06 Q1007 NOSIG;EQDQ01+000000PRSWM2
0286039550999992000042916004+51850-008480SY-MT+0162EICK V0201501N005010069019N0500001N1+01221+00601101361ADDGA1071+006909999GA2021+018009999GF199999061081008001999021MA1101291099411MD1210091+9999MW1001REMSYN082AAXX  29161 03955 42584 61505 10122 20060 39941 40136 52009 868/2 333 85823 83656;MET058EICK 291600Z 15010KT 9999 BKN023 SCT060 12/06 Q1013 NOSIG;EQDQ01+000062SCOTCVQ02+000000PRSWM2
0257039550999992000050405004+51850-008480SY-MT+0162EICK V0200301N004012200019N0250001N1+00691+00511102541ADDGA1021+012009999GF199999011051012501001001MA1102511100541MD1710071+9999MW1001REMSYN076AAXX  04051 03955 42675 10304 10069 20051 30054 40254 57007 81500 333 81640;MET051EICK 040500Z 03007KT 9999 FEW040 07/05 Q1025 NOSIG;EQDQ01+000012SCOTCVQ02+000000PRSWM2
0241039550999992000050503004+51850-008480SY-MT+0162EICK V0200701N004010114019N0150001N1+00891+00611101941ADDGA1071+011409999GF107991071051012501999999MA1101901099961MD1710111+9999MW1001REMSYN076AAXX  05031 03955 42665 70704 10089 20061 39996 40194 57011 875// 333 87638;MET051EICK 050300Z 07008KT 9999 BKN038 09/06 Q1019 NOSIG;EQDQ01+000000PRSWM2
0307039550999992000051520004+51850-008480SY-MT+0162EICK V0201901N005010015019N0020001N1+01121+01041101031ADDGA1071+001509999GA2071+002409999GA3071+005109999GF107991071061001501999999MA1101021099091MD1710221+9999MW1001REMSYN088AAXX  15201 03955 42220 71905 10112 20104 39909 40103 57022 876// 333 85705 85708 87717;MET073EICK 152000Z 19010KT 150V220 9999 BKN005 BKN008 BKN017 11/10 Q1010 NOSIG;EQDQ01+000000PRSWM2
0270039550999992000051717004+51850-008480SY-MT+0162EICK V0203001N007010090019N0200001N1+01051+00801100871ADDGA1021+005409999GA2071+009009999GF107991071081004501999999MA1100811098921MD1710041+9999MW1001REMSYN082AAXX  17171 03955 42470 73007 10105 20080 39892 40087 57004 878// 333 83818 86630;MET058EICK 171700Z 30014KT 9999 SCT018 BKN030 11/06 Q1008 NOSIG;EQDQ01+000000PRSWM2
0281039550999992000051810004+51850-008480SY-MT+0162EICK V0202901N00901009001CN0400001N1+00991+00601101181ADDGA1021+005409999GA2021+012009999GF105991051081004501001001MA1101081099231MD1210111+9999MW1001OC101491REMSYN082AAXX  18101 03955 42482 52909 10099 20060 39923 40118 52011 85800 333 83818 83640;MET061EICK 181000Z 29017G29KT 9999 SCT018 SCT040 10/06 Q1011 NOSIG;EQDQ01+000000PRSWM2
0300039550999992000052021004+51850-008480SY-MT+0162EICK V0202801N005010120019N0140001N1+00801+00671101231ADDAY181031AY221031GA1021+005409099GA2071+012009999GF107991071031004501999999MA1101081099251MD1310041+9999MW1801REMSYN088AAXX  20211 03955 41464 72805 10080 20067 39925 40123 53004 78082 873// 333 83918 85640;MET066EICK 202100Z 28010KT 9999 -SHRA SCT018CB BKN040 08/07 Q1011 NOSIG;EQDQ01    003PRSWM1
0351039550999992000052220004+51850-008480SY-MT+0162EICK V0201901N005010081019N0150001N1+00961+00771101271ADDAY161999AY221999GA1021+004209999GA2071+008109999GA3081+021009999GF108991061061004501021999MA1101191099311MD1810221+9999MW1601MW2611REMSYN094AAXX  22201 03955 41465 81905 10096 20077 39931 40127 58022 76062 8662/ 333 84714 85627 88557;MET089EICK 222000Z 19009KT 140V220 9999 -RA SCT014 BKN027 OVC070 10/08 Q1012 BECMG 5000 BKN015;EQDQ01    003PRSWM1
0193039550999992000060204004+51850-008480FM-12+0162EICK V0201901N003010012019N0070001N1+01181+01141101091ADDAY121011AY221011GA1051+001209079GF108991081061001501999999MA1999999099151MD1810011+9999MW1101REMSYN088AAXX  02041 03955 41257 81903 10118 20114 39915 40109 58001 71022 886// 333 85704 87708;
0307039550999992000061600004+51840-008480SY-MT+0162EICK V0201401N00301000151CN0002001N1+01011+01011102641ADDAA106000791AY141061AY211061ED199U05509GA1091+000159999GF109991091999000151999999MA1102611100661MD1010031+9999MW1451REMSYN082AAXX  16001 03955 11/02 91403 10101 20101 30066 40264 50003 69901 74541 333 89/01;MET073EICK 160000Z 14006KT 0200 R17/0550D R35/0650D FG VV001 10/10 Q1026 NOSIG;EQDQ01    003PRSWM1
0322039550999992000062016004+51840-008480SY-MT+0162EICK V0201601N007010009019N0030001N1+01401+01351100291ADDAY161999AY221999GA1071+000909999GA2071+001809999GF108991081061001501999999MA1100201098371MD1810171+9999MW1601MW2611REMSYN088AAXX  20161 03955 41230 81607 10140 20135 39837 40029 58017 76062 886// 333 85703 87706;MET082EICK 201600Z 16014KT 130V200 3000 -RA BKN003 BKN006 14/14 Q1002 TEMPO 1500 BKN001;EQDQ01    003PRSWM1
0308039550999992000062803004+51840-008480SY-MT+0162EICK V0200701N004019999999N0090001N1+01171+00911101941ADDAY111031AY211031GA1021+036009999GA2021+075009999GF105991021001999999031021MA1101901099981MD1710101+9999MW1101REMSYN088AAXX  28031 03955 41959 50704 10117 20091 39998 40194 57010 71011 82032 333 82362 84075;MET058EICK 280300Z 07008KT 9000 FEW120 SCT250 12/09 Q1019 NOSIG;EQDQ01+000000PRSWM2Q02    003PRSWM1
0336039550999992000070204004+51840-008480SY-MT+0162EICK V0201001N001010180019N0070001N1+01321+01281100791ADDAY121999AY221999GA1021+002409999GA2071+018009999GF199999061051002501999999MA1100711098861MD1510001+9999MW1101REMSYN088AAXX  02041 03955 41357 61001 10132 20128 39886 40079 55000 71022 865// 333 82708 85656;MET070EICK 020400Z 08002KT 7000 FEW008 BKN060 13/13 Q1007 TEMPO 1500 BKN002;EQDQ01+000062SCOTCVQ02+000000PRSWM2Q03    003PRSWM1
0270039550999992000070601004+51840-008480SY-MT+0162EICK V0203301N004012200019N0400001N1+01261+01151101771ADDGA1021+006009999GA2021+030009999GF103991011081008001031021MA1101691099821MD1210021+9999MW1001REMSYN082AAXX  06011 03955 42582 33304 10126 20115 39982 40177 52002 81832 333 81820 83360;MET058EICK 060100Z 33007KT 9999 FEW020 SCT100 13/12 Q1017 NOSIG;EQDQ01+000000PRSWM2
0344039550999992000071018004+51840-008480SY-MT+0162EICK V0203301N010010069019N0300001N1+01391+00791100891ADDAA112000191AY181061AY221061GA1071+006909999GA2071+015009999GF107991071081008001999999KA1120M+01651MA1100811098961MD1210151+9999MW1251REMSYN100AAXX  10181 03955 11580 73310 10139 20079 39896 40089 52015 69912 72582 878// 333 10165 85823 85640;MET058EICK 101800Z 33020KT 9999 BKN023 BKN050 14/08 Q1008 NOSIG;EQDQ01+000000PRSWM2Q02    003PRSWM1
0297039550999992000071112004+51840-008480SY-MT+0162EICK V0203001N007010069019N0300001N1+01481+00801101491ADDAA199000091GA1071+006909999GA2071+075009999GF107991061081008001999021MA1101491099561MD1210081+9999MW1001REMSYN082AAXX  11121 03955 32580 73007 10148 20080 39956 40149 52008 868/2 333 86823 85075;MET058EICK 111200Z 30013KT 9999 BKN023 BKN250 15/08 Q1015 NOSIG;EQDQ01+000000PRSWM2Q02  00002PRCP99
0307039550999992000071508004+51840-008480SY-MT+0162EICK V0200101N004010045019N0350001N1+01391+01211102101ADDGA1021+002409999GA2071+004509999GA3071+007509999GF107991071061002501999999MA1102001100151MD1310211+9999MW1001REMSYN088AAXX  15081 03955 42381 70104 10139 20121 30015 40210 53021 876// 333 81708 87715 86625;MET073EICK 150800Z 01008KT 320V030 9999 FEW008 BKN015 BKN025 14/12 Q1020 NOSIG;EQDQ01+000000PRSWM2
