0098623060999992000100422004+31320+027220FM-15+0030HEMM V0201101N00361220001CN0099001N1+02001+01701999999ADDMA1101191999999MW1001REMMET046HEMM 042200Z 11007KT CAVOK 20/17 Q1012 SNOSIG;EQDQ01+000000PRSWM2
0097623060999992000101823004+31320+027220FM-15+0030HEMM V0203501N00261220001CN0099001N1+02301+01801999999ADDMA1101801999999MW1001REMMET045HEMM 182300Z 35005KT CAVOK 23/18 Q1018 NOSIG;EQDQ01+000000PRSWM2
0224623060999992000110409004+31320+027220SY-MT+0030HEMM V0203601N00261220001CN0100001N1+02621+01611102151ADDAA199000091GF100991001001999999001001MA1102101999999MD1110081+9999MW1001REMSYN054AAXX  04094 62306 32960 03605 10262 20161 40215 51008;MET045HEMM 040900Z 36005KT CAVOK 26/16 Q1021 NOSIG;EQDQ01+000000PRSWM2Q02  00002PRCP99
0224623060999992000110800004+31320+027220SY-MT+0030HEMM V0209999C000012200019N0100001N1+01851+01121101841ADDAA199000091GF100991001001999999001001MA1101801999999MD1410001+9999MW1001REMSYN054AAXX  08004 62306 32960 00000 10185 20112 40184 54000;MET045HEMM 080000Z 00000KT CAVOK 19/11 Q1018 NOSIG;EQDQ01+000000PRSWM2Q02  00002PRCP99
0145623060999992000110811004+31320+027220FM-15+0030HEMM V0200301N004612200019N0112651N1+02601+01401999999ADDGA1021+006909999GF104991999999999999999999MA1101901999999MW1001REMMET051HEMM 081100Z 03009KT 9999 SCT023 26/14 Q1019 NOSIG;EQDQ01+000000PRSWM2
0145623060999992000110817004+31320+027220FM-15+0030HEMM V0200301N004112200019N0112651N1+02401+01501999999ADDGA1021+006909999GF102991999999999999999999MA1101901999999MW1001REMMET051HEMM 081700Z 03008KT 9999 FEW023 24/15 Q1019 NOSIG;EQDQ01+000000PRSWM2
0097623060999992000111110004+31320+027220FM-15+0030HEMM V0200801N00461220001CN0099001N1+02601+01601999999ADDMA1102201999999MW1001REMMET045HEMM 111000Z 08009KT CAVOK 26/16 Q1022 NOSIG;EQDQ01+000000PRSWM2
0097623060999992000111919004+31320+027220FM-15+0030HEMM V0201201N00101220001CN0099001N1+01601+01201999999ADDMA1102101999999MW1001REMMET045HEMM 191900Z 12002KT CAVOK 16/12 Q1021 NOSIG;EQDQ01+000000PRSWM2
0168623060999992000112413004+31320+027220FM-15+0030HEMM V0200201N004112200019N0112651N1+02101+01401999999ADDGA1021+006009999GA2021+006909999GF104991999999999999999999MA1101901999999MW1001REMMET058HEMM 241300Z 02008KT 9999 FEW020 SCT023 21/14 Q1019 NOSIG;EQDQ01+000000PRSWM2
0097623060999992000112501004+31320+027220FM-15+0030HEMM V0201701N00101220001CN0099001N1+01301+01201999999ADDMA1102101999999MW1001REMMET045HEMM 250100Z 17002KT CAVOK 13/12 Q1021 NOSIG;EQDQ01+000000PRSWM2
0246623060999992000112721004+31320+027220SY-MT+0030HEMM V0202401N00771220001CN0100001N1+01861+01101101531ADDAA199000091GF104991999001999999011001MA1101491999999MD1710111+9999MW1001REMSYN060AAXX  27214 62306 32960 42415 10186 20110 40153 57011 80010;MET045HEMM 272100Z 24015KT CAVOK 19/11 Q1015 NOSIG;EQDQ01+000000PRSWM2Q02+000002SCOTLCQ03  00002PRCP99
0097623060999992000112804304+31320+027220FM-15+0030HEMM V0202301N01031220001CN0099001N1+01601+00901999999ADDMA1101081999999MW1001REMMET045HEMM 280430Z 23020KT CAVOK 16/09 Q1011 NOSIG;EQDQ01+000000PRSWM2
0288623060999992000120118004+31320+027220SY-MT+0030HEMM V0200401N001510360019N0100001N1+01881+01391102231ADDAA112004191GA1021+006009999GA2021+027009999GF106991031081008001011001KA1999M+02171MA1102201999999MD1110101+9999MW1001REMSYN076AAXX  01184 62306 12560 60403 10188 20139 40223 51010 60042 83810 333 10217;MET058HEMM 011800Z 04003KT 9999 FEW020 SCT090 19/14 Q1022 NOSIG;EQDQ01+000000PRSWM2
0196623060999992000120205004+31320+027220FM-15+0030HEMM V0202101N002110600019N0112651N1+01601+01101999999ADDGA1021+006009099GA2021+006909999GA3071+060009999GF107991999999999999999999MA1102101999999MW1001REMMET070HEMM 020500Z 21004KT 9999 FEW020CB SCT023 BKN200 16/11 Q1021 TEMPO TS;EQDQ01+000000PRSWM2
0180623060999992000120406004+31320+027220FM-12+0030HEMM V0201801N001510360019N0100001N1+01571+01291102311ADDAA124000791AY161061AY211061GF107991041081008001021999KA1999N+01471MD1310051+9999MW1031REMSYN082AAXX  04064 62306 11560 71803 10157 20129 40231 53005 69904 70361 8482/ 333 20147;
0168623060999992000120614004+31320+027220FM-15+0030HEMM V0203301N004612200019N0112651N1+02001+01101999999ADDGA1021+006909999GA2021+060009999GF104991999999999999999999MA1102001999999MW1001REMMET058HEMM 061400Z 33009KT 9999 SCT023 SCT200 20/11 Q1020 NOSIG;EQDQ01+000000PRSWM2
0275623060999992000120812004+31320+027220SY-MT+0030HEMM V0203501N004612200019N0100001N1+01981+01291101771ADDAA199000091GA1021+006009999GA2021+006909999GF105991051081008001001001MA1101691999999MD1710091+9999MW1001REMSYN060AAXX  08124 62306 32560 53509 10198 20129 40177 57009 85800;MET058HEMM 081200Z 35009KT 9999 FEW020 SCT023 20/13 Q1017 NOSIG;EQDQ01+000000PRSWM2Q02  00002PRCP99
0222623060999992000120900004+31320+027220SY-MT+0030HEMM V0203301N008212200019N0100001N1+01771+00911101801ADDAA199000091GF105991051051008001001001MD1710061+9999MW1001REMSYN060AAXX  09004 62306 32560 53316 10177 20091 40180 57006 85500;MET052HEMM 090000Z 33016KT 99999 BKN023 18/09 Q1018 NOSIG;EQDQ01+000000PRSWM2Q02  00002PRCP99
0145623060999992000120902004+31320+027220FM-15+0030HEMM V0203301N009312200019N0112651N1+01701+00801999999ADDGA1021+006909999GF104991999999999999999999MA1101691999999MW1001REMMET051HEMM 090200Z 33018KT 9999 SCT023 17/08 Q1017 NOSIG;EQDQ01+000000PRSWM2
0145623060999992000121322004+31320+027220FM-15+0030HEMM V0203001N005112200019N0112651N1+01701+00801999999ADDGA1021+006909999GF102991999999999999999999MA1101901999999MW1001REMMET051HEMM 132200Z 30010KT 9999 FEW023 17/08 Q1019 NOSIG;EQDQ01+000000PRSWM2
0145623060999992000122423004+31320+027220FM-15+0030HEMM V0202601N004110069019N0112651N1+01501+00801999999ADDGA1071+006909999GF107991999999999999999999MA1102001999999MW1001REMMET051HEMM 242300Z 26008KT 9999 BKN023 15/08 Q1020 NOSIG;EQDQ01+000000PRSWM2
0097623060999992000122604004+31320+027220FM-15+0030HEMM V0201801N00511220001CN0099001N1+01201+00801999999ADDMA1102301999999MW1001REMMET045HEMM 260400Z 18010KT CAVOK 12/08 Q1023 NOSIG;EQDQ01+000000PRSWM2
0097623060999992000122607004+31320+027220FM-15+0030HEMM V0201801N00621220001CN0099001N1+01401+00801999999ADDMA1102301999999MW1001REMMET045HEMM 260700Z 18012KT CAVOK 14/08 Q1023 NOSIG;EQDQ01+000000PRSWM2
0142623090999992000012403004+99999+999999FM-12+999999999V0201201N004012200019N0100001N1+00741+00311101481ADDAA199000091GF103991031021008001041001MD1510161+9999REMSYN060AAXX  2403  62309 32560 31204 10074 20031 40148 55016 83240;EQDQ01  00002PRCP99
0180623090999992000021700004+99999+999999FM-12+999999999V0209999C000012200019N0060001N1+00741+00671102081ADDAA199000091AY101061AY201061GA1001+999999999GF100991001001999999001001MD1810051+9999MW1101REMSYN060AAXX  1700  62309 31956 00000 10074 20067 40208 58005 71000;EQDQ01  00002PRCP99
0162623090999992000021918004+99999+999999FM-12+999999999V0202801N005012200019N0100001N1+01311+00541102201ADDAA112000791GA1001+999999999GF100991001001999999001001KA1999M+01791MD1310071+9999REMSYN070AAXX  1918  62309 12960 02805 10131 20054 40220 53007 69902 333 10179;
0142623090999992000022812004+99999+999999FM-12+999999999V0203201N009012200019N0100001N1+01661+00501102341ADDAA199000091GF102991021021008001001001MD1510111+9999REMSYN060AAXX  2812  62309 32560 23209 10166 20050 40234 55011 82200;EQDQ01  00002PRCP99
0175623090999992000030418004+99999+999999FM-12+999999999V0202901N006012200019N0100001N1+01441+00931102291ADDAA199000091GA1001+999999999GF100991001001999999001001KA1999M+01801MD1310081+9999REMSYN064AAXX  0418  62309 32960 02906 10144 20093 40229 53008 333 10180;EQDQ01  00002PRCP99
0170623090999992000030721004+99999+999999FM-12+999999999V0203101N014010075019N0080001N1+01141+00091102431ADDAA199000091AY121031AY221031GF105991051051008001001001MD1110071+9999MW1071REMSYN066AAXX  0721  62309 31558 53114 10114 20009 40243 51007 70722 85500;EQDQ01  00002PRCP99
0180623090999992000042300004+99999+999999FM-12+999999999V0202101N001012200019N0060001N1+01341+01261101471ADDAA199000091AY101061AY201061GA1001+999999999GF100991001001999999001001MD1610041+9999MW1101REMSYN060AAXX  2300  62309 31856 02101 10134 20126 40147 56004 71000;EQDQ01  00002PRCP99
0142623090999992000042903004+99999+999999FM-12+999999999V0209999C000012200019N0100001N1+01421+01111101291ADDAA199000091GF103991001001999999001041MD1310031+9999REMSYN060AAXX  2903  62309 32960 30000 10142 20111 40129 53003 80004;EQDQ01  00002PRCP99
0142623090999992000050409004+99999+999999FM-12+999999999V0202801N011012200019N0100001N1+02131+01521101121ADDAA199000091GF103991031021008001001001MD1210151+9999REMSYN060AAXX  0409  62309 32560 32811 10213 20152 40112 52015 83200;EQDQ01  00002PRCP99
0180623090999992000052000004+99999+999999FM-12+999999999V0209999C000012200019N0080001N1+01641+01481101021ADDAA199000091AY101061AY201061GA1001+999999999GF100991001001999999001001MD1610091+9999MW1101REMSYN060AAXX  2000  62309 31958 00000 10164 20148 40102 56009 71000;EQDQ01  00002PRCP99
0142623090999992000052621004+99999+999999FM-12+999999999V0203201N002012200019N0100001N1+01971+01611101321ADDAA199000091GF104991041051008001001001MD1310021+9999REMSYN060AAXX  2621  62309 32560 43202 10197 20161 40132 53002 84500;EQDQ01  00002PRCP99
0170623090999992000060100004+99999+999999FM-12+999999999V0202901N002012200019N0080001N1+02041+01891101251ADDAA199000091AY101061AY201061GF103991031051008001001001MD1710091+9999MW1101REMSYN066AAXX  0100  62309 31558 32902 10204 20189 40125 57009 71000 83500;EQDQ01  00002PRCP99
0203623090999992000061018004+99999+999999FM-12+999999999V0203101N002012200019N0080001N1+02341+02111101241ADDAA199000091AY101061AY201061GA1001+999999999GF100991001001999999001001KA1999M+02941MD1510031+9999MW1101REMSYN070AAXX  1018  62309 31958 03102 10234 20211 40124 55003 71000 333 10294;EQDQ01  00002PRCP99
0162623090999992000061503004+30930+028470FM-12+001899999V0202901N002112200019N0040001N1+02161+02071100861ADDAA199000091AY101031GF102991021021008001001001MD1710061+9999MW1101REMSYN066AAXX  15034 62309 31540 22904 10216 20207 40086 57006 7100/ 82200;EQDQ01  00002PRCP99
0152623090999992000062115004+30930+028470FM-12+001899999V0203001N005712200019N0100001N1+02421+01551101321ADDAA199000091GA1001+999999999GF100991001001999999001001MD1810031+9999REMSYN054AAXX  21154 62309 32960 03011 10242 20155 40132 58003;EQDQ01  00002PRCP99
0152623090999992000062415004+30930+028470FM-12+001899999V0202901N004112200019N0100001N1+02781+01841100961ADDAA199000091GA1001+999999999GF100991001001999999001001MD1610051+9999REMSYN054AAXX  24154 62309 32960 02908 10278 20184 40096 56005;EQDQ01  00002PRCP99
0165623090999992000080206004+30930+028470FM-12+001899999V0203001N005712200019N0100001N1+02651+01951101001ADDAA199000091GF101991011011008001001001KA1999N+02431MD1310061+9999REMSYN070AAXX  02064 62309 32560 13011 10265 20195 40100 53006 81100 333 20243;EQDQ01  00002PRCP99
0180623090999992000080803004+30930+028470FM-12+001899999V0202201N000512200019N0080001N1+01901+01751101021ADDAA199000091AY101031AY201031GA1001+999999999GF100991001001999999001001MD1610041+9999MW1101REMSYN060AAXX  08034 62309 31958 02201 10190 20175 40102 56004 71000;EQDQ01  00002PRCP99
0142623090999992000081409004+30930+028470FM-12+001899999V0203301N005112200019N0100001N1+02861+02091100971ADDAA199000091GF102991021051008001001001MD1510011+9999REMSYN060AAXX  14094 62309 32560 23310 10286 20209 40097 55001 82500;EQDQ01  00002PRCP99
0142623090999992000081421004+30930+028470FM-12+001899999V0203301N003112200019N0100001N1+02551+02141100851ADDAA199000091GF103991031051008001001001MD1110031+9999REMSYN060AAXX  14214 62309 32560 33306 10255 20214 40085 51003 83500;EQDQ01  00002PRCP99
0180623090999992000082200004+30930+028470FM-12+001899999V0209999C000012200019N0080001N1+02181+02061100781ADDAA199000091AY101061AY201061GA1001+999999999GF100991001001999999001001MD1810091+9999MW1101REMSYN060AAXX  22004 62309 31958 00000 10218 20206 40078 58009 71000;EQDQ01  00002PRCP99
0175623090999992000082818004+30930+028470FM-12+001899999V0203501N005112200019N0100001N1+02581+01701101321ADDAA199000091GA1001+999999999GF100991001001999999001001KA1999M+03061MD1210031+9999REMSYN064AAXX  28184 62309 32960 03510 10258 20170 40132 52003 333 10306;EQDQ01  00002PRCP99
0152623090999992000100700004+30930+028470FM-12+001899999V0201201N000512200019N0100001N1+02041+01811101401ADDAA199000091GA1001+999999999GF100991001001999999001001MD1610091+9999REMSYN054AAXX  07004 62309 32960 01201 10204 20181 40140 56009;EQDQ01  00002PRCP99
0142623090999992000101415004+30930+028470FM-12+001899999V0203001N004612200019N0100001N1+02501+01781100921ADDAA199000091GF103991031021008001001001MD1610051+9999REMSYN060AAXX  14154 62309 32560 33009 10250 20178 40092 56005 83200;EQDQ01  00002PRCP99
0152623090999992000102206004+30930+028470FM-12+001899999V0203001N006210360019N0100001N1+02181+01141102001ADDAA124000791GF106991031021008001041001KA1999N+02021MD1310041+9999REMSYN076AAXX  22064 62309 12560 63012 10218 20114 40200 53004 69904 83240 333 20202;
0142623090999992000112015004+30930+028470FM-12+001899999V0200201N001012200019N0100001N1+02101+01561101891ADDAA199000091GF104991041001022501041001MD1110031+9999REMSYN060AAXX  20154 62309 32860 40202 10210 20156 40189 51003 84040;EQDQ01  00002PRCP99
0152623090999992000112209004+30930+028470FM-12+001899999V0201201N002612200019N0100001N1+02241+01441101731ADDAA199000091GA1001+999999999GF100991001001999999001001MD1810051+9999REMSYN054AAXX  22094 62309 32960 01205 10224 20144 40173 58005;EQDQ01  00002PRCP99
0165623090999992000122218004+30930+028470FM-12+001899999V0201101N001512200019N0100001N1+01441+00941101381ADDAA199000091GF103991031021008001001001KA1999M+02141MD1310031+9999REMSYN070AAXX  22184 62309 32560 31103 10144 20094 40138 53003 83200 333 10214;EQDQ01  00002PRCP99
0175623090999992000122906004+30930+028470FM-12+001899999V0201601N005112200019N0100001N1+01051-00121100691ADDAA199000091GA1001+999999999GF100991001001999999001001KA1999N+00751MD1610121+9999REMSYN064AAXX  29064 62309 32960 01610 10105 21012 40069 56012 333 20075;EQDQ01  00002PRCP99
0247623180999992000010215004+31200+029950SY-MT+0007HEAX V0200501N005710270019N0100001N1+01751+01161101471ADDAA106000091GA1021+006009999GA2071+027009999GF107991999999008001999999MA1101391999999MW1001REMSYN048AAXX  02154 62318 32560 70511 10175 20116 40147;MET056HEAX 1500Z 05011KT 9999 FEW020 BKN090 18/12 Q1014 NOSIG;EQDQ01+000000PRSWM2Q02  00002PRCP06
0145623180999992000011916004+31200+029950FM-15+0007HEAX V0202301N005112200019N0112651N1+01401+00801999999ADDGA1021+006009999GF104991999999999999999999MA1101291999999MW1001REMMET051HEAX 191600Z 23010KT 9999 SCT020 14/08 Q1013 NOSIG;EQDQ01+000000PRSWM2
0144623180999992000011922004+31200+029950FM-15+0007HEAX V0202301N007712200019N0112651N1+01201+00801999999ADDGA1021+006909999GF104991999999999999999999MA1101391999999MW1001REMMET050HEAX 2200Z 23015KT 9999 SCT0230 12/08 Q1014 NOISG;EQDQ01+000000PRSWM2
0166623180999992000012220004+31200+029950FM-15+0007HEAX V0202101N001512200019N0112651N1+01301+00501999999ADDGA1021+006009999GA2021+030009999GF104991999999999999999999MA1102001999999MW1001REMMET056HEAX 2000Z 21003KT 9999 SCT020 SCT100 13/05 Q1020 NOSIG;EQDQ01+000000PRSWM2
0116623180999992000012523004+31200+029950FM-15+0007HEAX V0203301N006212200019N0080001N1+01301+01001999999ADDMA1102001999999MW1801REMMET048HEAX 2300Z 33012KT 8000 -SHRA 13/10 Q1020 NOSIG;EQDQ01+000003PRSWM1Q02    003PRSWM1
0166623180999992000012814004+31200+029950FM-15+0007HEAX V0203301N006212200019N0112651N1+01301+00301999999ADDGA1021+006009999GA2021+006609999GF104991999999999999999999MA1102001999999MW1001REMMET056HEAX 1400Z 33012KT 9999 SCT020 SCT022 13/03 Q1020 NOSIG;EQDQ01+000000PRSWM2
0236623180999992000020112004+31200+029950SY-MT+0007HEAX V0203501N007712200019N0100001N1+01751+00871102531ADDAA199000021GA1021+006009999GF104991041081008001001001MA1102511999999MD1810101+9999MW1001REMSYN060AAXX  01124 62318 32560 43515 10175 20087 40253 58010 84800;MET051HEAX 011200Z 35015KT 9999 SCT020 18/09 Q1025 NOSIG;EQDQ01+000000PRSWM2
0311623180999992000020409004+31200+029950SY-MT+0007HEAX V0201801N001510360019N0080001N1+01741+01241102241ADDAA199000091AY121031AY201031GA1021+006009999GA2021+030009999GF106991041081008001071001MA1102201999999MD1010081+9999MW1101REMSYN066AAXX  04094 62318 31558 61803 10174 20124 40224 50008 71020 84870;MET056HEAX 0900Z 18003KT 8000 FEW020 SCT100 17/12 Q1022 NOSIG;EQDQ01+000000PRSWM2Q02  00002PRCP99Q03    003PRSWM1
0250623180999992000020512004+31200+029950SY-MT+0007HEAX V0203301N007212200019N0100001N1+01621+01021102001ADDAA199000091GA1021+006009999GF104991041081008001001001MA1102001999999MD1810081+9999MW1001REMSYN060AAXX  05124 62318 32560 43314 10162 20102 40200 58008 84800;MET049HEAX 1200Z 33014KT 9999 SCT020 16/10 Q1020 NOSIG;EQDQ01+000000PRSWM2Q02  00002PRCP99
0176623180999992000021311004+31200+029950FM-15+0007HEAX V0203001N008712200019N0112651N1+01701+00901999999ADDGA1021+005109099GA2021+006009999GF104991999999999999999999MA1101591999999MW1001REMMET066HEAX 1100Z 30017KT 9999 SCT017CB SCT020 17/09 Q1016 TEMPO 3000 TS;EQDQ01+000000PRSWM2
0233623180999992000022803004+31200+029950SY-MT+0007HEAX V0203201N005112200019N0100001N1+01591+00571102541ADDAA199000091GA1021+006009999GF104991041081008001001001MD1610031+9999MW1001REMSYN060AAXX  28034 62318 32560 43210 10159 20057 40254 56003 84800;MET047HEAX 0300Z 32010KT 9999 SCT020 14/06 Q023 OSIG;EQDQ01+000000PRSWM2Q02  00002PRCP99
0095623180999992000022908004+31200+029950FM-15+0007HEAX V0201901N00571220001CN0099001N1+01601+00701999999ADDMA1102401999999MW1001REMMET043HEAX 0800Z 19011KT CAVOK 16/07 Q1024 NOSIG;EQDQ01+000000PRSWM2
0143623180999992000030507004+31200+029950FM-15+0007HEAX V0201501N002610060019N0112651N1+01501+01101999999ADDGA1071+006009999GF107991999999999999999999MA1102511999999MW1001REMMET049HEAX 0700Z 15005KT 9999 BKN020 15/11 Q1025 NOSIG;EQDQ01+000000PRSWM2
0095623180999992000031422004+31200+029950FM-15+0007HEAX V0200201N00211220001CN0099001N1+01501+01001999999ADDMA1102101999999MW1001REMMET043HEAX 2200Z 02004KT CAVOK 15/10 Q1021 NOSIG;EQDQ01+000000PRSWM2
0273623180999992000032012004+31200+029950SY-MT+0007HEAX V0200401N006210360019N0100001N1+01801+00901101921ADDAA199000091GA1021+006009999GA2021+027009999GF105991031081008001011001MA1101901999999MD1810101+9999MW1001REMSYN060AAXX  20124 62318 32560 50412 10180 20090 40192 58010 83810;MET056HEAX 1200Z 04012KT 9999 FEW020 SCT090 18/19 Q1019 NOSIG;EQDQ01+000000PRSWM2Q02  00002PRCP99
0250623180999992000032421004+31200+029950SY-MT+0007HEAX V0203001N004112200019N0100001N1+01501+00841101761ADDAA199000091GA1021+006009999GF102991021081008001001001MA1101691999999MD1110021+9999MW1001REMSYN060AAXX  24214 62318 32560 23008 10150 20084 40176 51002 82800;MET049HEAX 2100Z 30008KT 9999 FEW020 15/08 Q1017 NOSIG;EQDQ01+000000PRSWM2Q02  00002PRCP99
0166623180999992000041811004+31200+029950FM-15+0007HEAX V0200301N004110300019N0080001N1+02201+01401999999ADDGA1021+006009999GA2071+030009999GF107991999999999999999999MA1100101999999MW1001REMMET056HEAX 1100Z 03008KT 8000 SCT020 BKN100 22/14 Q1001 NOSIG;EQDQ01+000000PRSWM2
0097623180999992000042022004+31200+029950FM-15+0007HEAX V0201801N00051220001CN0099001N1+01301+01201999999ADDMA1101291999999MW1001REMMET045HEAX 202200Z 18001KT CAVOK 13/12 Q1013 NOSIG;EQDQ01+000000PRSWM2
0097623180999992000042115004+31200+029950FM-15+0007HEAX V0203301N00771220001CN0099001N1+02001+01201999999ADDMA1101081999999MW1001REMMET045HEAX 211500Z 33015KT CAVOK 20/12 Q1011 NOSIG;EQDQ01+000000PRSWM2
0247623180999992000042218004+31200+029950SY-MT+0007HEAX V0203501N002612200019N0100001N1+01801+01151101531ADDAA199000091GF100991001001999999001001KA1999M+02201MA1101491999999MD1310081+9999MW1001REMSYN064AAXX  22184 62318 32960 03505 10180 20115 40153 53008 333 10220;MET045HEAX 221800Z 35005KT CAVOK 18/12 Q1015 NOSIG;EQDQ01+000000PRSWM2Q02  00002PRCP99
0262623180999992000042612004+31200+029950SY-MT+0007HEAX V0200101N005112200019N0100001N1+02361+00911101451ADDAA199000091AY141061AY201061GF100991001001999999001001MA1101391999999MD1710101+9999MW1021REMSYN060AAXX  26124 62318 31960 00110 10236 20091 40145 57010 70240;MET045HEAX 261200Z 01010KT CAVOK 24/09 Q1014 NOSIG;EQDQ01+000000PRSWM2Q02  00002PRCP99Q03    003PRSWM1
0224623180999992000042621004+31200+029950SY-MT+0007HEAX V0200501N003112200019N0100001N1+01881+01521101341ADDAA199000091GF100991001001999999001001MA1101291999999MD1010001+9999MW1001REMSYN054AAXX  26214 62318 32960 00506 10188 20152 40134 50000;MET045HEAX 262100Z 05006KT CAVOK 19/15 Q1013 NOSIG;EQDQ01+000000PRSWM2Q02  00002PRCP99
0126623180999992000042707004+31200+029950FM-15+0007HEAX V0200301N001512200019N0080001N1+02101+01701999999ADDGF100991999999999999999999MA1101191999999MW1001REMMET048HEAX 270700Z 03003KT 8000 SKC 21/17 Q1012 NOSIG;EQDQ01+000000PRSWM2
0219623180999992000043018004+31200+029950SY-MT+0007HEAX V0200201N00571220001CN0100001N1+01901+01201999999ADDAA199000091GF100991001001999999001001MA1101491999999MW1001REMSYN063AAXX  30184 62318 32960 00211 10190 2012 40153 51006 333 10244;MET045HEAX 301800Z 02011KT CAVOK 19/12 Q1015 NOSIG;EQDQ01+000000PRSWM2Q02  00002PRCP99
0145623180999992000050809004+31200+029950FM-15+0007HEAX V0203301N006712200019N0112651N1+02201+01301999999ADDGA1021+006009999GF102991999999999999999999MA1102001999999MW1001REMMET051HEAX 080900Z 33013KT 9999 FEW020 22/13 Q1020 NOSIG;EQDQ01+000000PRSWM2
0145623180999992000050815004+31200+029950FM-15+0007HEAX V0203501N006712200019N0112651N1+02101+01501999999ADDGA1021+006009999GF102991999999999999999999MA1101901999999MW1001REMMET051HEAX 081500Z 35013KT 9999 FEW020 21/15 Q1019 NOSIG;EQDQ01+000000PRSWM2
0097623180999992000050904004+31200+029950FM-15+0007HEAX V0203501N00261220001CN0099001N1+01701+01401999999ADDMA1101801999999MW1001REMMET045HEAX 090400Z 35005KT CAVOK 17/14 Q1018 NOSIG;EQDQ01+000000PRSWM2
0265623180999992000051715004+31200+029950SY-MT+0007HEAX V0203201N006212200019N0080001N1+02591+01831100571ADDAA199000091AY101031AY201031GF100991001001999999001001MA1100511999999MD1310071+9999MW1071REMSYN060AAXX  17154 62318 32958 03212 10259 20183 40057 53007 70700;MET048HEAX 171500Z 32012KT 8000 SKC 26/18 Q1005 NOSIG;EQDQ01+000000PRSWM2Q02  00002PRCP99Q03    003PRSWM1
0247623180999992000051918004+31200+029950SY-MT+0007HEAX V0200101N002112200019N0100001N1+02161+01241101201ADDAA199000091GF100991001001999999001001KA1999M+02481MA1101191999999MD1510001+9999MW1001REMSYN064AAXX  19184 62318 32960 00104 10216 20124 40120 55000 333 10248;MET045HEAX 191800Z 01004KT CAVOK 22/12 Q1012 NOSIG;EQDQ01+000000PRSWM2Q02  00002PRCP99
0145623180999992000052319004+31200+029950FM-15+0007HEAX V0203001N004112200019N0112651N1+02201+02001999999ADDGA1021+006009999GF102991999999999999999999MA1101391999999MW1001REMMET051HEAX 231900Z 30008KT 9999 FEW020 22/20 Q1014 NOSIG;EQDQ01+000000PRSWM2
0145623180999992000060413004+31200+029950FM-15+0007HEAX V0203301N006212200019N0112651N1+02601+01801999999ADDGA1021+006009999GF102991999999999999999999MA1101291999999MW1001REMMET051HEAX 041300Z 33012KT 9999 FEW020 26/18 Q1013 NOSIG;EQDQ01+000000PRSWM2
0252623180999992000060609004+31200+029950SY-MT+0007HEAX V0203001N005712200019N0100001N1+02501+01571101101ADDAA199000091GA1021+006009999GF103991031081008001001001MA1101081999999MD1510021+9999MW1001REMSYN060AAXX  06094 62318 32560 33011 10250 20157 40110 55002 83800;MET051HEAX 060900Z 30011KT 9999 FEW020 25/16 Q1011 NOSIG;EQDQ01+000000PRSWM2Q02  00002PRCP99
0152623180999992000060900004+31200+029950FM-12+0007HEAX V0203301N004112200019N0100001N1+02281+01961101391ADDAA199000091GA1001+999999999GF100991001001999999001001MD1410001+9999REMSYN054AAXX  09004 62318 32960 03308 10228 20196 40139 54000;EQDQ01  00002PRCP99
0247623180999992000061406004+31200+029950SY-MT+0007HEAX V0203501N003612200019N0100001N1+02671+02041101151ADDAA199000091GF100991001001999999001001KA1999N+02081MA1101081999999MD1310051+9999MW1001REMSYN064AAXX  14064 62318 32960 03507 10267 20204 40115 53005 333 20208;MET045HEAX 140600Z 35007KT CAVOK 27/20 Q1011 NOSIG;EQDQ01+000000PRSWM2Q02  00002PRCP99
0097623180999992000061509004+31200+029950FM-15+0007HEAX V0203201N00411220001CN0099001N1+02901+02001999999ADDMA1100811999999MW1001REMMET045HEAX 150900Z 32008KT CAVOK 29/20 Q1008 NOSIG;EQDQ01+000000PRSWM2
0145623180999992000061810004+31200+029950FM-15+0007HEAX V0203101N006712200019N0112651N1+02801+02001999999ADDGA1021+006009999GF102991999999999999999999MA1101081999999MW1001REMMET051HEAX 181000Z 31013KT 9999 FEW020 28/20 Q1011 NOSIG;EQDQ01+000000PRSWM2
0225623180999992000061903004+31200+029950SY-MT+0007HEAX V0203201N006212200019N0100001N1+02281+01571101101ADDAA199000091GF100991001001999999001001MA1101081999999MD1810061+9999MW1001REMSYN054AAXX  19034 62318 32960 03212 10228 20157 40110 58006;MET046HEAX 190300Z 32012KT CAVOK 23/167 Q1011 NOSIG;EQDQ01+000000PRSWM2Q02  00002PRCP99
0268623180999992000070415004+31200+029950SY-MT+0007HEAX V0203301N005712200019N0100001N1+02761+02231100671ADDAA199000091GA1021+006009999GF199999011011008001001001MA1100611999999MD1710041+9999MW1001REMSYN060AAXX  04154 62318 32560 13311 10276 20223 40067 57004 81100;MET051HEAX 041500Z 33011KT 9999 FEW020 28/22 Q1006 NOSIG;EQDQ01+000012SCOTCVQ02+000000PRSWM2Q03  00002PRCP99
0097623180999992000071501004+31200+029950FM-15+0007HEAX V0203401N00311220001CN0099001N1+02501+02001999999ADDMA1100611999999MW1001REMMET045HEAX 150100Z 34006KT CAVOK 25/20 Q1006 NOSIG;EQDQ01+000000PRSWM2
0146623180999992000072420304+31200+029950FM-15+0007HEAX V02099999999992200019N0112651N1+02501+02201999999ADDGA1021+006009999GF102991999999999999999999MA1100811999999MW1001REMMET052HEAX 242130Z 367003KT 9999 FEW020 25/22 Q1008 NOSIG;EQDQ01+000000PRSWM2
0145623180999992000072602004+31200+029950FM-15+0007HEAX V0202901N001512200019N0112651N1+02501+02201999999ADDGA1021+006009999GF102991999999999999999999MA1100811999999MW1001REMMET051HEAX 260200Z 29003KT 9999 FEW020 25/22 Q1008 NOSIG;EQDQ01+000000PRSWM2
0145623180999992000072616004+31200+029950FM-15+0007HEAX V0203301N004612200019N0112651N1+02801+02101999999ADDGA1021+006009999GF102991999999999999999999MA1100911999999MW1001REMMET051HEAX 261600Z 33009KT 9999 FEW020 28/21 Q1009 NOSIG;EQDQ01+000000PRSWM2
0097623180999992000072907004+31200+029950FM-15+0007HEAX V0201601N00311220001CN0099001N1+03001+02001999999ADDMA1100611999999MW1001REMMET045HEAX 290700Z 16006KT CAVOK 30/20 Q1006 NOSIG;EQDQ01+000000PRSWM2
0224623180999992000072921004+31200+029950SY-MT+0007HEAX V0201101N001012200019N0100001N1+02761+02351100741ADDAA199000091GF100991001001999999001001MA1100711999999MD1210111+9999MW1001REMSYN054AAXX  29214 62318 32960 01102 10276 20235 40074 52011;MET045HEAX 292100Z 11002KT CAVOK 28/24 Q1007 NOSIG;EQDQ01+000000PRSWM2Q02  00002PRCP99
0145623180999992000080111004+31200+029950FM-15+0007HEAX V0203401N006212200019N0112651N1+03001+02101999999ADDGA1021+006009999GF102991999999999999999999MA1101021999999MW1001REMMET051HEAX 011100Z 34012KT 9999 FEW020 30/21 Q1010 NOSIG;EQDQ01+000000PRSWM2
0097623180999992000080323004+31200+029950FM-15+0007HEAX V0200101N00411220001CN0099001N1+02501+02201999999ADDMA1101021999999MW1001REMMET045HEAX 032300Z 01008KT CAVOK 25/22 Q1010 NOSIG;EQDQ01+000000PRSWM2
0097623180999992000080823004+31200+029950FM-15+0007HEAX V0203001N00311220001CN0099001N1+02501+02101999999ADDMA1101191999999MW1001REMMET045HEAX 082300Z 30006KT CAVOK 25/21 Q1012 NOSIG;EQDQ01+000000PRSWM2
0145623180999992000080917004+31200+029950FM-15+0007HEAX V0203301N005112200019N0112651N1+02701+01801999999ADDGA1021+006009999GF102991999999999999999999MA1101081999999MW1001REMMET051HEAX 091700Z 33010KT 9999 FEW020 27/18 Q1011 NOSIG;EQDQ01+000000PRSWM2
0145623180999992000081002004+31200+029950FM-15+0007HEAX V0203101N002112200019N0112651N1+02401+01501999999ADDGA1021+006009999GF102991999999999999999999MA1101021999999MW1001REMMET051HEAX 100200Z 31004KT 9999 FEW020 24/15 Q1010 NOSIG;EQDQ01+000000PRSWM2
0252623180999992000081221004+31200+029950SY-MT+0007HEAX V0203301N004612200019N0100001N1+02601+02011100921ADDAA199000091GA1021+006009999GF103991031081008001001001MA1100911999999MD1210081+9999MW1001REMSYN060AAXX  12214 62318 32560 33309 10260 20201 40092 52008 83800;MET051HEAX 122100Z 33009KT 9999 FEW020 26/20 Q1009 NOSIG;EQDQ01+000000PRSWM2Q02  00002PRCP99
0097623180999992000081513004+31200+029950FM-15+0007HEAX V0203201N00511220001CN0099001N1+02901+02001999999ADDMA1100711999999MW1001REMMET045HEAX 151300Z 32010KT CAVOK 29/20 Q1007 NOSIG;EQDQ01+000000PRSWM2
0145623180999992000081701004+31200+029950FM-15+0007HEAX V0203201N005112200019N0112651N1+02601+02301999999ADDGA1021+006009999GF102991999999999999999999MA1100711999999MW1001REMMET051HEAX 170100Z 32010KT 9999 FEW020 26/23 Q1007 NOSIG;EQDQ01+000000PRSWM2
0097623180999992000082319004+31200+029950FM-15+0007HEAX V0203601N00211220001CN0099001N1+02701+02201999999ADDMA1101021999999MW1001REMMET045HEAX 231900Z 36004KT CAVOK 27/22 Q1010 NOSIG;EQDQ01+000000PRSWM2
0224623180999992000082500004+31200+029950SY-MT+0007HEAX V0202901N00361220001CN0100001N1+02641+02341100781ADDAA199000091GF100991001001999999001001MA1100711999999MD1710051+9999MW1001REMSYN054AAXX  25004 62318 32960 02907 10264 20234 40078 57005;MET045HEAX 250000Z 29007KT CAVOK 26/23 Q1007 NOSIG;EQDQ01+000000PRSWM2Q02  00002PRCP99
0145623180999992000090317004+31200+029950FM-15+0007HEAX V0203401N006212200019N0112651N1+02701+02201999999ADDGA1021+006009999GF102991999999999999999999MA1100811999999MW1001REMMET051HEAX 031700Z 34012KT 9999 FEW020 27/22 Q1008 NOSIG;EQDQ01+000000PRSWM2
0097623180999992000090823004+31200+029950FM-15+0007HEAX V0200201N00151220001CN0099001N1+02501+01801999999ADDMA1101591999999MW1001REMMET045HEAX 082300Z 02003KT CAVOK 25/18 Q1016 NOSIG;EQDQ01+000000PRSWM2
0275623180999992000090906004+31200+029950SY-MT+0007HEAX V0200801N001512200019N0100001N1+02601+01961101671ADDAA199000091GA1021+006009999GF104991041081008001001001KA1999N+02101MA1101591999999MD1110131+9999MW1001REMSYN070AAXX  09064 62318 32560 40803 10260 20196 40167 51013 84800 333 20210;MET051HEAX 090600Z 08003KT 9999 SCT020 26/20 Q1016 NOSIG;EQDQ01+000000PRSWM2Q02  00002PRCP99
0145623180999992000090909004+31200+029950FM-15+0007HEAX V0200401N006212200019N0112651N1+02901+01901999999ADDGA1021+006009999GF104991999999999999999999MA1101691999999MW1001REMMET051HEAX 090900Z 04012KT 9999 SCT020 29/19 Q1017 NOSIG;EQDQ01+000000PRSWM2
0145623180999992000091607004+31200+029950FM-15+0007HEAX V0203301N002112200019N0112651N1+02701+01801999999ADDGA1021+006009999GF104991999999999999999999MA1101191999999MW1001REMMET051HEAX 160700Z 33004KT 9999 SCT020 27/18 Q1012 NOSIG;EQDQ01+000000PRSWM2
0252623180999992000091800004+31200+029950SY-MT+0007HEAX V0203401N002612200019N0100001N1+02481+01971101381ADDAA199000091GA1021+006009999GF103991031081008001001001MA1101291999999MD1810071+9999MW1001REMSYN060AAXX  18004 62318 32560 33405 10248 20197 40138 58007 83800;MET051HEAX 180000Z 34005KT 9999 FEW020 25/20 Q1013 NOSIG;EQDQ01+000000PRSWM2Q02  00002PRCP99
0097623180999992000091817004+31200+029950FM-15+0007HEAX V0203601N00411220001CN0099001N1+02601+01901999999ADDMA1101391999999MW1001REMMET045HEAX 181700Z 36008KT CAVOK 26/19 Q1014 NOSIG;EQDQ01+000000PRSWM2
0145623180999992000092406004+31200+029950FM-15+0007HEAX V0203501N005112200019N0112651N1+02701+02201999999ADDGA1021+007509999GF102991999999999999999999MA1101391999999MW1001REMMET051HEAX 240600Z 35010KT 9999 FEW025 27/22 Q1014 NOSIG;EQDQ01+000000PRSWM2
0145623180999992000100114004+31200+029950FM-15+0007HEAX V0203401N006212200019N0112651N1+02501+01301999999ADDGA1021+006009999GF104991999999999999999999MA1101691999999MW1001REMMET051HEAX 011400Z 34012KT 9999 SCT020 25/13 Q1017 NOSIG;EQDQ01+000000PRSWM2
0291623180999992000100318004+31200+029950SY-MT+0007HEAX V0200301N003612200019N0100001N1+02441+01781101071ADDAA199000091GA1021+006009999GF199999011011008001001001KA1999M+03111MA1101021999999MD1310061+9999MW1001REMSYN070AAXX  03184 62318 32560 10307 10244 20178 40107 53006 81100 333 10311;MET051HEAX 031800Z 03007KT 9999 FEW020 24/18 Q1010 NOSIG;EQDQ01+000012SCOTCVQ02+000000PRSWM2Q03  00002PRCP99
0145623180999992000100504004+31200+029950FM-15+0007HEAX V0203201N000512200019N0112651N1+02001+01901999999ADDGA1021+006009999GF102991999999999999999999MA1101081999999MW1001REMMET051HEAX 050400Z 32001KT 9999 FEW020 20/19 Q1011 NOSIG;EQDQ01+000000PRSWM2
0252623180999992000101121004+31200+029950SY-MT+0007HEAX V0200201N000512200019N0100001N1+02281+01671101821ADDAA199000091GA1021+006009999GF104991041081008001001001MA1101801999999MD1310061+9999MW1001REMSYN060AAXX  11214 62318 32560 40201 10228 20167 40182 53006 84800;MET051HEAX 112100Z 02001KT 9999 SCT020 23/17 Q1018 NOSIG;EQDQ01+000000PRSWM2Q02  00002PRCP99
0145623180999992000101305004+31200+029950FM-15+0007HEAX V0203001N000512200019N0112651N1+02001+01701999999ADDGA1021+006009999GF104991999999999999999999MA1101491999999MW1001REMMET051HEAX 130500Z 30001KT 9999 SCT020 20/17 Q1015 NOSIG;EQDQ01+000000PRSWM2
0252623180999992000101909004+31200+029950SY-MT+0007HEAX V0203401N004610120019N0100001N1+02521+01491101681ADDAA199000091GA1021+006009999GF105991051081008001001001MA1101591999999MD1110021+9999MW1001REMSYN060AAXX  19094 62318 32560 53409 10252 20149 40168 51002 85800;MET051HEAX 190900Z 34009KT 9999 SCT020 25/15 Q1016 NOSIG;EQDQ01+000000PRSWM2Q02  00002PRCP99
0307623180999992000102403004+31200+029950SY-MT+0007HEAX V0203001N005110120019N0100001N1+01681+01261101451ADDAA103004191AY181031AY221031GA1021+006009999GA2021+006609999GF105991051081008001001001MA1101391999999MD1710161+9999MW1801REMSYN076AAXX  24034 62318 21560 53010 10168 20126 40145 57016 78082 85800 333 60047;MET058HEAX 240300Z 30010KT 9999 FEW020 SCT022 17/13 Q1014 NOSIG;EQDQ01+000000PRSWM2Q02    003PRSWM1
0145623180999992000102622004+31200+029950FM-15+0007HEAX V0203201N002612200019N0112651N1+01901+01101999999ADDGA1021+006009999GF102991999999999999999999MA1102001999999MW1001REMMET051HEAX 262200Z 32005KT 9999 FEW020 19/11 Q1020 NOSIG;EQDQ01+000000PRSWM2
0224623180999992000102809004+31200+029950SY-MT+0007HEAX V0201001N003612200019N0100001N1+02341+01301102131ADDAA199000091GF100991001001999999001001MA1102101999999MD1810021+9999MW1001REMSYN054AAXX  28094 62318 32960 01007 10234 20130 40213 58002;MET045HEAX 280900Z 10007KT CAVOK 23/13 Q1021 NOISG;EQDQ01+000000PRSWM2Q02  00002PRCP99
0224623180999992000110921004+31200+029950SY-MT+0007HEAX V0200301N002612200019N0100001N1+02041+01481102031ADDAA199000091GF100991001001999999001001MA1102001999999MD1110011+9999MW1001REMSYN054AAXX  09214 62318 32960 00305 10204 20148 40203 51001;MET045HEAX 092100Z 03005KT CAVOK 20/15 Q1020 NOSIG;EQDQ01+000000PRSWM2Q02  00002PRCP99
0252623180999992000111415004+31200+029950SY-MT+0007HEAX V0200301N004112200019N0100001N1+02181+01541101531ADDAA199000091GA1021+006009999GF102991021081008001001001MA1101491999999MD1410001+9999MW1001REMSYN060AAXX  14154 62318 32560 20308 10218 20154 40153 54000 82800;MET051HEAX 141500Z 03008KT 9999 FEW020 22/15 Q1015 NOSIG;EQDQ01+000000PRSWM2Q02  00002PRCP99
0265623180999992000112003004+31200+029950SY-MT+0007HEAX V0209999C000012200019N0060001N1+01431+01381101981ADDAA199000091AY101031AY201031GF100991001001999999001001MA1101901999999MD1410001+9999MW1101REMSYN060AAXX  20034 62318 31956 00000 10143 20138 40198 54000 71000;MET048HEAX 200300Z 00000KT 6000 SKC 14/14 Q1019 NOSIG;EQDQ01+000000PRSWM2Q02  00002PRCP99Q03    003PRSWM1
0164623180999992000112205004+31200+029950FM-15+0007HEAX V0209999C000012200019N0030001N1+01201+01101999999ADDGA1021+006009999GF102991999999999999999999MA1101801999999MW1101REMMET054HEAX 220500Z 00000KT 3000 BR FEW020 12/11 Q1018 NOSIG;EQDQ01+000003PRSWM1Q02    003PRSWM1
0173623180999992000112910004+31200+029950FM-15+0007HEAX V0202201N008212200019N0112651N1+01601+01301999999ADDGA1021+005109099GA2021+006009999GF104991999999999999999999MA1100811999999MW1001REMMET063HEAX 291000Z 22016KT 9999 SCT017CB SCT020 16/13 Q1008 TEMPO RA;EQDQ01+000000PRSWM2
0295623180999992000120806004+31200+029950SY-MT+0007HEAX V0202401N000512200019N0030001N1+01301+01231101691ADDAA124004191AY101061AY201061GA1021+006009999GF104991041081008001001001KA1999N+01081MA1101591999999MD1210121+9999MW1101REMSYN082AAXX  08064 62318 11530 42401 10130 20123 40169 52012 60044 71000 84800 333 20108;MET059HEAX 080600Z 24001KT 3000 BR SCT020 13/12 Q1016 TEMPO 6000;EQDQ01    003PRSWM1
0145623180999992000121120004+31200+029950FM-15+0007HEAX V0202401N003612200019N0112651N1+01601+01201999999ADDGA1021+006009999GF104991999999999999999999MA1101901999999MW1001REMMET051HEAX 112000Z 24007KT 9999 SCT020 16/12 Q1019 NOSIG;EQDQ01+000000PRSWM2
0145623180999992000121201004+31200+029950FM-15+0007HEAX V0203401N004112200019N0112651N1+01801+01301999999ADDGA1021+006009999GF104991999999999999999999MA1101801999999MW1001REMMET051HEAX 120100Z 34008KT 9999 SCT020 18/13 Q1018 NOSIG;EQDQ01+000000PRSWM2
0145623180999992000121219004+31200+029950FM-15+0007HEAX V0203201N008210060019N0112651N1+01801+00601999999ADDGA1071+006009999GF107991999999999999999999MA1101801999999MW1001REMMET051HEAX 121900Z 32016KT 9999 BKN020 18/06 Q1018 NOSIG;EQDQ01+000000PRSWM2
0145623180999992000121414004+31200+029950FM-15+0007HEAX V0203401N009812200019N0112651N1+01901+01101999999ADDGA1021+006009999GF104991999999999999999999MA1101491999999MW1001REMMET051HEAX 141400Z 34019KT 9999 SCT020 19/11 Q1015 NOSIG;EQDQ01+000000PRSWM2
0303623180999992000121418004+31200+029950SY-MT+0007HEAX V0203001N005112200019N0100001N1+01801+01111101651ADDAA112006191AY161061AY221061GA1021+006009999GF104991041081008001001001KA1999M+01961MA1101591999999MD1310081+9999MW1021REMSYN082AAXX  14184 62318 11560 43010 10180 20111 40165 53008 60062 70262 84800 333 10196;MET051HEAX 141800Z 31009KT 9999 SCT020 18/11 Q1016 NOSIG;EQDQ01+000000PRSWM2Q02    003PRSWM1
0134623180999992000121603004+31200+029950FM-15+0007HEAX V0201901N001012200019N0060001N1+01001+01001999999ADDGF100991999999999999999999MA1101901999999MW1001REMMET056HEAX 160300Z 19002KT 6000 SKC 10/10 Q1019 TEMPO 3000 BR;EQDQ01+000000PRSWM2
0145623180999992000121905004+31200+029950FM-15+0007HEAX V0203001N002112200019N0112651N1+01701+00901999999ADDGA1021+006009999GF104991999999999999999999MA1101801999999MW1001REMMET051HEAX 190500Z 30004KT 9999 SCT020 17/09 Q1018 NOSIG;EQDQ01+000000PRSWM2
0168623180999992000122007004+31200+029950FM-15+0007HEAX V0203101N006712200019N0112651N1+01801+01001999999ADDGA1021+006009999GA2021+006609999GF104991999999999999999999MA1101591999999MW1001REMMET058HEAX 200700Z 31013KT 9999 SCT020 SCT022 18/10 Q1016 NOSIG;EQDQ01+000000PRSWM2
0145623180999992000122019004+31200+029950FM-15+0007HEAX V0203101N002612200019N0112651N1+01601+01001999999ADDGA1021+006009999GF104991999999999999999999MA1101801999999MW1001REMMET051HEAX 201900Z 31005KT 9999 SCT020 16/10 Q1018 NOSIG;EQDQ01+000000PRSWM2
0165623250999992000011318004+31550+031100FM-12+000299999V0209999C000012200019N0100001N1+01361+00931102141ADDAA106000091GF103991031021008001001001KA1999M+01821MD1310021+9999REMSYN070AAXX  13184 62325 32560 30000 10136 20093 40214 53002 83200 333 10182;EQDQ01  00002PRCP06
0142623250999992000020315004+31550+031100FM-12+000299999V0209999C000012200019N0100001N1+01661+01031102121ADDAA199000091GF103991031021008001001001MD1410001+9999REMSYN060AAXX  03154 62325 3/560 30000 10166 20103 40212 54000 83200;EQDQ01  00002PRCP99
0175623250999992000021718004+31550+031100FM-12+000299999V0201301N001512200019N0100001N1+01321+00771102151ADDAA199000091GA1001+999999999GF100991001001999999001001KA1999M+01761MD1310061+9999REMSYN064AAXX  17184 62325 32960 01303 10132 20077 40215 53006 333 10176;EQDQ01  00002PRCP99
0152623250999992000030206004+31550+031100FM-12+000299999V0202201N002612200019N0160001N1+01251+00791102491ADDAA124000191GF102991021021008001001001KA1999N+00941MD1310151+9999REMSYN076AAXX  02064 62325 12566 22205 10125 20079 40249 53015 69914 82200 333 20094;
0152623250999992000052309004+31550+031100FM-12+000299999V0202901N004112200019N0100001N1+02341+01611101641ADDAA199000091GA1001+999999999GF100991001001999999001001MD1010051+9999REMSYN054AAXX  23094 62325 32960 02908 10234 20161 40164 50005;EQDQ01  00002PRCP99
0175623250999992000052918004+31550+031100FM-12+000299999V0200701N002112200019N0100001N1+02581+01751101031ADDAA199000091GA1001+999999999GF100991001001999999001001KA1999M+03081MD1610041+9999REMSYN064AAXX  29184 62325 32960 00704 10258 20175 40103 56004 333 10308;EQDQ01  00002PRCP99
0175623250999992000060718004+31550+031100FM-12+000299999V0202901N003612200019N0100001N1+02311+01901101091ADDAA199000091GA1001+999999999GF100991001001999999001001KA1999M+02671MD1310011+9999REMSYN064AAXX  07184 62325 32960 02907 10231 20190 40109 53001 333 10267;EQDQ01  00002PRCP99
0152623250999992000061403004+31540+031090FM-12+000299999V0203601N001512200019N0100001N1+02281+01861101031ADDAA199000091GA1001+999999999GF100991001001999999001001MD1610061+9999REMSYN054AAXX  14034 62325 32960 03603 10228 20186 40103 56006;EQDQ01  00002PRCP99
0152623250999992000070215004+31540+031090FM-12+000299999V0203301N003612200019N0100001N1+02791+02251100941ADDAA199000091GA1001+999999999GF100991001001999999001001MD1610121+9999REMSYN054AAXX  02154 62325 32960 03307 10279 20225 40094 56012;EQDQ01  00002PRCP99
0175623250999992000070618004+31540+031090FM-12+000299999V0209999C000012200019N0100001N1+02341+02221100571ADDAA199000091GA1001+999999999GF100991001001999999001001KA1999M+03201MD1610021+9999REMSYN064AAXX  06184 62325 32960 00000 10234 20222 40057 56002 333 10320;EQDQ01  00002PRCP99
0152623250999992000071121004+31540+031090FM-12+000299999V0203101N003112200019N0100001N1+02481+02171100721ADDAA199000091GA1001+999999999GF100991001001999999001001MD1110091+9999REMSYN054AAXX  11214 62325 32960 03106 10248 20217 40072 51009;EQDQ01  00002PRCP99
0165623250999992000081018004+31540+031090FM-12+000299999V0203201N002112200019N0100001N1+02551+02141100801ADDAA199000091GF104991041041008001001001KA1999M+02861MD1310031+9999REMSYN070AAXX  10184 62325 32560 43204 10255 20214 40080 53003 84400 333 10286;EQDQ01  00002PRCP99
0152623250999992000081103004+31540+031090FM-12+000299999V0209999C000012200019N0100001N1+02381+02131100651ADDAA199000091GA1001+999999999GF100991001001999999001001MD1510001+9999REMSYN054AAXX  11034 62325 32960 00000 10238 20213 40065 55000;EQDQ01  00002PRCP99
0142623250999992000083109004+31540+031090FM-12+000299999V0203401N003612200019N0100001N1+02901+02081100921ADDAA199000091GF104991041021008001001001MD1110081+9999REMSYN060AAXX  31094 62325 32560 43407 10290 20208 40092 51008 84200;EQDQ01  00002PRCP99
0112623250999992000091512004+31540+031090FM-12+000299999V0203401N003112200019N0100001N1+02781+01981101211ADDGF102991021021008001001001MD1610111+9999REMSYN060AAXX  15124 62325 /2560 23406 10278 20198 40121 56011 82200;
0175623250999992000091906004+31540+031090FM-12+000299999V0203601N002112200019N0100001N1+02551+02021101511ADDAA199000091GA1001+999999999GF100991001001999999001001KA1999N+02261MD1110071+9999REMSYN064AAXX  19064 62325 32960 03604 10255 20202 40151 51007 333 20226;EQDQ01  00002PRCP99
0152623250999992000100203004+31540+031090FM-12+000299999V0209999C000012200019N0100001N1+02031+01741101421ADDAA199000091GA1001+999999999GF100991001001999999001001MD1610081+9999REMSYN054AAXX  02034 62325 32960 00000 10203 20174 40142 56008;EQDQ01  00002PRCP99
0203623250999992000100506004+31540+031090FM-12+000299999V0209999C000012200019N0060001N1+02261+02161101151ADDAA199000091AY101061AY201061GA1001+999999999GF100991001001999999001001KA1999N+01941MD1310121+9999MW1101REMSYN070AAXX  05064 62325 31956 00000 10226 20216 40115 53012 71000 333 20194;EQDQ01  00002PRCP99
0165623250999992000100618004+31540+031090FM-12+000299999V0209999C000012200019N0100001N1+02371+01901101481ADDAA199000091GF103991031021008001001001KA1999M+02761MD1310141+9999REMSYN070AAXX  06184 62325 32560 30000 10237 20190 40148 53014 83200 333 10276;EQDQ01  00002PRCP99
0142623250999992000101909004+31540+031090FM-12+000299999V0203201N004612200019N0100001N1+02531+01641101521ADDAA199000091GF104991041021008001001001MD1610011+9999REMSYN060AAXX  19094 62325 32560 43209 10253 20164 40152 56001 84200;EQDQ01  00002PRCP99
0175623250999992000120418004+31540+031090FM-12+000299999V0209999C000012200019N0100001N1+01801+01461102201ADDAA199000091GA1001+999999999GF100991001001999999001001KA1999M+02281MD1310071+9999REMSYN064AAXX  04184 62325 32960 00000 10180 20146 40220 53007 333 10228;EQDQ01  00002PRCP99
0123623250999992000121012004+31540+031090FM-12+000299999V0203601N002612200019N0100001N1+02011+01151101951ADDAA199000021GF103991031021008001001001MD1510001+9999REMSYN060AAXX  10124 62325 32560 33605 10201 20115 40195 55000 83200;
0142623250999992000121615004+31540+031090FM-12+000299999V0209999C000012200019N0100001N1+01841+01361101941ADDAA199000091GF103991031021008001001001MD1610051+9999REMSYN060AAXX  16154 62325 32560 30000 10184 20136 40194 56005 83200;EQDQ01  00002PRCP99
0142623320999992000011221004+31280+032230FM-12+000699999V0200301N002610120019N0100001N1+01391+00731102321ADDAA106000091GF105991051081008001001001MD1110111+9999REMSYN060AAXX  12214 62332 32560 50305 10139 20073 40232 51011 85800;EQDQ01  00002PRCP06
0155623320999992000012021004+31280+032230FM-12+000699999V0202401N006719999999N0100001N1+01251+00981101721ADDAA103000591AY161031AY221031GF107991999999008001999999MD1110161+9999MW1021REMSYN070AAXX  20214 62332 21560 72413 10125 20098 40172 51016 70262 333 69967;
0152623320999992000021800004+31280+032230FM-12+000699999V0201601N002112200019N0100001N1+01261+00751102201ADDAA199000091GA1001+999999999GF100991001001999999001001MD1810051+9999REMSYN054AAXX  18004 62332 32960 01604 10126 20075 40220 58005;EQDQ01  00002PRCP99
0152623320999992000022209004+31280+032230FM-12+000699999V0202401N007712200019N0100001N1+01801+00641101631ADDAA199000091GA1001+999999999GF100991001001999999001001MD1810011+9999REMSYN054AAXX  22094 62332 32960 02415 10180 20064 40163 58001;EQDQ01  00002PRCP99
0142623320999992000022412004+31280+032230FM-12+000699999V0200101N002612200019N0100001N1+01741+00441101981ADDAA199000091GF102991021011008001001001MD1610091+9999REMSYN060AAXX  24124 62332 32560 20105 10174 20044 40198 56009 82100;EQDQ01  00002PRCP99
0142623320999992000030509004+31280+032230FM-12+000699999V0202201N001512200019N0100001N1+01741+00881102581ADDAA199000091GF102991021011008001001001MD1110071+9999REMSYN060AAXX  05094 62332 32560 22203 10174 20088 40258 51007 82100;EQDQ01  00002PRCP99
0175623320999992000031906004+31280+032230FM-12+000699999V0200301N001012200019N0100001N1+01521+00901101681ADDAA199000091GA1001+999999999GF100991001001999999001001KA1999N+01281MD1310111+9999REMSYN064AAXX  19064 62332 32960 00302 10152 20090 40168 53011 333 20128;EQDQ01  00002PRCP99
0142623320999992000040812004+31280+032230FM-12+000699999V0203501N005710120019N0100001N1+02061+01381101591ADDAA199000091GF106991061081008001001001MD1810081+9999REMSYN060AAXX  08124 62332 32560 63511 10206 20138 40159 58008 86800;EQDQ01  00002PRCP99
0152623320999992000040903004+31280+032230FM-12+000699999V0202601N004612200019N0100001N1+01501+01201101511ADDAA199000091GA1001+999999999GF100991001001999999001001MD1810021+9999REMSYN054AAXX  09034 62332 32960 02609 10150 20120 40151 58002;EQDQ01  00002PRCP99
0142623320999992000041700004+31280+032230FM-12+000699999V0200701N006712200019N0100001N1+01831+01601100771ADDAA199000091GF104991041001999999041001MD1710231+9999REMSYN060AAXX  17004 62332 32960 40713 10183 20160 40077 57023 84040;EQDQ01  00002PRCP99
0142623320999992000051703004+31280+032230FM-12+000699999V0201101N002612200019N0100001N1+02081+01531101151ADDAA199000091GF101991011011008001001001MD1510071+9999REMSYN060AAXX  17034 62332 32560 11105 10208 20153 40115 55007 81100;EQDQ01  00002PRCP99
0142623320999992000060509004+31280+032230FM-12+000699999V0203501N003612200019N0100001N1+02561+01921101421ADDAA199000091GF101991011011008001001001MD1210061+9999REMSYN060AAXX  05094 62332 32560 13507 10256 20192 40142 52006 81100;EQDQ01  00002PRCP99
0152623320999992000070515004+31270+032230FM-12+000699999V0203301N008212200019N0100001N1+02921+02251100661ADDAA199000091GA1001+999999999GF100991001001999999001001MD1810091+9999REMSYN054AAXX  05154 62332 32960 03316 10292 20225 40066 58009;EQDQ01  00002PRCP99
0152623320999992000071312004+31270+032230FM-12+000699999V0203301N005712200019N0100001N1+03281+02531100381ADDAA199000091GA1001+999999999GF100991001001999999001001MD1710091+9999REMSYN054AAXX  13124 62332 32960 03311 10328 20253 40038 57009;EQDQ01  00002PRCP99
0142623320999992000072303004+31270+032230FM-12+000699999V0203501N006210075019N0100001N1+02531+01981101061ADDAA199000091GF105991051051008001001001MD1610021+9999REMSYN060AAXX  23034 62332 32560 53512 10253 20198 40106 56002 85500;EQDQ01  00002PRCP99
0175623320999992000072818004+31270+032230FM-12+000699999V0200301N005712200019N0100001N1+02881+02111100741ADDAA199000091GA1001+999999999GF100991001001999999001001KA1999M+03411MD1310061+9999REMSYN064AAXX  28184 62332 32960 00311 10288 20211 40074 53006 333 10341;EQDQ01  00002PRCP99
0175623320999992000080218004+31270+032230FM-12+000699999V0203601N008712200019N0100001N1+02801+02171100991ADDAA199000091GA1001+999999999GF100991001001999999001001KA1999M+03041MD1310161+9999REMSYN064AAXX  02184 62332 32960 03617 10280 20217 40099 53016 333 10304;EQDQ01  00002PRCP99
0142623320999992000080821004+31270+032230FM-12+000699999V0203401N003112200019N0100001N1+02641+02281101271ADDAA199000091GF102991021011008001001001MD1110081+9999REMSYN060AAXX  08214 62332 32560 23406 10264 20228 40127 51008 82100;EQDQ01  00002PRCP99
0142623320999992000081103004+31270+032230FM-12+000699999V0202601N005712200019N0100001N1+02461+02181100741ADDAA199000091GF103991031011008001001001MD1110011+9999REMSYN060AAXX  11034 62332 32560 32611 10246 20218 40074 51001 83100;EQDQ01  00002PRCP99
0203623320999992000091306004+31270+032230FM-12+000699999V0202501N005112200019N0040001N1+02561+02221101091ADDAA199000091AY101061AY201061GA1001+999999999GF100991001001999999001001KA1999N+02421MD1310071+9999MW1101REMSYN070AAXX  13064 62332 31940 02510 10256 20222 40109 53007 71000 333 20242;EQDQ01  00002PRCP99
0142623320999992000101912004+31270+032230FM-12+000699999V0203501N005112200019N0100001N1+02581+01751101501ADDAA199000091GF103991011011008001031001MD1610101+9999REMSYN060AAXX  19124 62332 32560 33510 10258 20175 40150 56010 81130;EQDQ01  00002PRCP99
0142623320999992000110315004+31270+032230FM-12+000699999V0200301N007212200019N0100001N1+02211+01551101891ADDAA199000091GF101991011041008001001001MD1310011+9999REMSYN060AAXX  03154 62332 32560 10314 10221 20155 40189 53001 81400;EQDQ01  00002PRCP99
0152623320999992000111109004+31270+032230FM-12+000699999V0200801N003612200019N0100001N1+02501+01941102101ADDAA199000091GA1001+999999999GF100991001001999999001001MD1010061+9999REMSYN054AAXX  11094 62332 32960 00807 10250 20194 40210 50006;EQDQ01  00002PRCP99
0152623320999992000111515004+31270+032230FM-12+000699999V0200301N006212200019N0100001N1+02241+01761101441ADDAA199000091GA1001+999999999GF100991001001999999001001MD1310021+9999REMSYN054AAXX  15154 62332 32960 00312 10224 20176 40144 53002;EQDQ01  00002PRCP99
0142623320999992000120709004+31270+032230FM-12+000699999V0200201N003612200019N0100001N1+02061+01311101711ADDAA199000091GF104991021021008001001041MD1010021+9999REMSYN060AAXX  07094 62332 32560 40207 10206 20131 40171 50002 82204;EQDQ01  00002PRCP99
0142623320999992000122712004+31270+032230FM-12+000699999V0203601N003112200019N0100001N1+01981+01171102251ADDAA199000091GF104991021011008001001021MD1610121+9999REMSYN060AAXX  27124 62332 32560 43606 10198 20117 40225 56012 82102;EQDQ01  00002PRCP99
0166623330999992000010504004+31270+032300FM-15+0006HEPS V0202201N008712200019N0112651N1+01001+00701999999ADDGA1021+006009999GA2021+007509999GF104991999999999999999999MA1101021999999MW1001REMMET056HEPS 0400Z 22017KT 9999 SCT020 SCT025 10/07 Q1010 NOSIG;EQDQ01+000000PRSWM2
0144623330999992000010713004+31270+032300FM-15+0006HEPS V0203101N004612200019N0112651N1+01601+01101999999ADDGA1021+007509999GF104991999999999999999999MA1101801999999MW1001REMMET050HEPS 1300Z 31009KT 9999S SCT025 16/11 Q1018 NOSIG;EQDQ01+000000PRSWM2
0129623330999992000011309004+31270+032300FM-15+0006HEPS V0203001N002610075019N0112651N1+01701+01001999999ADDGA1071+007509999GF107991999999999999999999MW1001REMMET050HEPS 0900Z 30005KT 9999 BKN025 17/10 Q 1022 NOSIG;EQDQ01+000000PRSWM2
0173623330999992000012612004+31270+032300FM-15+0006HEPS V0203501N006212200019N0112651N1+01501+01001999999ADDGA1021+006009099GA2021+007509999GF104991999999999999999999MA1101801999999MW1001REMMET063HEPS 261200Z 35012KT 9999 SCT020CB SCT025 15/10 Q1018 TEMPO TS;EQDQ01+000000PRSWM2
0166623330999992000020208304+31270+032300FM-15+0006HEPS V0202701N002610300019N0112651N1+01701+01101999999ADDGA1021+007509999GA2071+030009999GF107991999999999999999999MA1102401999999MW1001REMMET056HEPS 0930Z 27005KT 9999 SCT025 BKN100 17/11 Q1024 NOSIG;EQDQ01+000000PRSWM2
0166623330999992000020406304+31270+032300FM-15+0006HEPS V0203401N002112200019N0112651N1+01601+01201999999ADDGA1021+007509999GA2021+009009999GF104991999999999999999999MA1102101999999MW1001REMMET056HEPS 0730Z 34004KT 9999 SCT025 SCT030 16/12 Q1021 NOSIG;EQDQ01+000000PRSWM2
0143623330999992000020407304+31270+032300FM-15+0006HEPS V0203401N002112200019N0112651N1+01701+01301999999ADDGA1021+007509999GF104991999999999999999999MA1102201999999MW1001REMMET049HEPS 0830Z 34004KT 9999 SCT025 17/13 Q1022 NOSIG;EQDQ01+000000PRSWM2
0162623330999992000020506004+31270+032300FM-15+0006HEPS V0202801N001512200019N0020001N1+01401+01201999999ADDGA1021+007509999GF102991999999999999999999MA1101901999999MW1101REMMET052HEPS 0600Z 28003KT 2000 BR FEW025 14/12 Q1019 NOSIG;EQDQ01+000003PRSWM1Q02    003PRSWM1
0166623330999992000020705004+31270+032300FM-15+0006HEPS V0202701N002112200019N0112651N1+01101+00901999999ADDGA1021+007509999GA2021+009009999GF104991999999999999999999MA1102001999999MW1001REMMET056HEPS 0500Z 27004KT 9999 FEW025 SCT030 11/09 Q1020 NOSIG;EQDQ01+000000PRSWM2
0143623330999992000020901004+31270+032300FM-15+0006HEPS V0202801N002612200019N0112651N1+01201+00901999999ADDGA1021+009009999GF104991999999999999999999MA1102101999999MW1001REMMET049HEPS 0100Z 28005KT 9999 SCT030 12/09 Q1021 NOSIG;EQDQ01+000000PRSWM2
0166623330999992000020905004+31270+032300FM-15+0006HEPS V0202701N003612200019N0112651N1+01301+00901999999ADDGA1021+007509999GA2021+009009999GF104991999999999999999999MA1102101999999MW1001REMMET056HEPS 0500Z 27007KT 9999 SCT025 SCT030 13/09 Q1021 NOISG;EQDQ01+000000PRSWM2
0143623330999992000021300004+31270+032300FM-15+0006HEPS V0202501N006212200019N0112651N1+01201+01001999999ADDGA1021+007509999GF104991999999999999999999MA1101391999999MW1001REMMET049HEPS 0000Z 25012KT 9999 SCT025 12/10 Q1014 NOSIG;EQDQ01+000000PRSWM2
0166623330999992000021614004+31270+032300FM-15+0006HEPS V0202901N007212200019N0112651N1+01601+00701999999ADDGA1021+007509999GA2021+009009999GF104991999999999999999999MA1101901999999MW1001REMMET056HEPS 1400Z 29014KT 9999 SCT025 SCT030 16/07 Q1019 NOSIG;EQDQ01+000000PRSWM2
0095623330999992000021820004+31270+032300FM-15+0006HEPS V0201201N00311220001CN0099001N1+01401+00901999999ADDMA1101901999999MW1001REMMET043HEPS 2000Z 12006KT CAVOK 14/09 Q1019 NOSIG;EQDQ01+000000PRSWM2
0095623330999992000022021004+31270+032300FM-15+0006HEPS V0200601N00261220001CN0099001N1+01501+01001999999ADDMA1102201999999MW1001REMMET043HEPS 2100Z 06005KT CAVOK 15/10 Q1022 NOSIG;EQDQ01+000000PRSWM2
0095623330999992000022121004+31270+032300FM-15+0006HEPS V0209999C00001220001CN0099001N1+01501+00901999999ADDMA1101801999999MW1001REMMET043HEPS 2100Z 00000KT CAVOK 15/09 Q1018 NOSIG;EQDQ01+000000PRSWM2
0143623330999992000022908004+31270+032300FM-15+0006HEPS V0202601N004112200019N0112651N1+01501+00901999999ADDGA1021+007509999GF102991999999999999999999MA1102401999999MW1001REMMET049HEPS 0800Z 26008KT 9999 FEW025 15/09 Q1024 NOSIG;EQDQ01+000000PRSWM2
0143623330999992000030201004+31270+032300FM-15+0006HEPS V0202601N004112200019N0112651N1+01101+00801999999ADDGA1021+007509999GF104991999999999999999999MA1102301999999MW1001REMMET049HEPS 0100Z 26008KT 9999 SCT025 11/08 Q1023 NOSIG;EQDQ01+000000PRSWM2
0095623330999992000031822004+31270+032300FM-15+0006HEPS V0200201N00311220001CN0099001N1+01501+00901999999ADDMA1101591999999MW1001REMMET043HEPS 2200Z 02006KT CAVOK 15/09 Q1016 NOSIG;EQDQ01+000000PRSWM2
0166623330999992000040219004+31270+032300FM-15+0006HEPS V0203101N006210600019N0112651N1+01801+01501999999ADDGA1021+007509999GA2071+060009999GF107991999999999999999999MA1101191999999MW1001REMMET056HEPS 1900Z 31012KT 9999 FEW025 BKN200 18/15 Q1012 NOSIG;EQDQ01+000000PRSWM2
0166623330999992000040220004+31270+032300FM-15+0006HEPS V0202901N004110600019N0112651N1+01801+01501999999ADDGA1021+007509999GA2071+060009999GF107991999999999999999999MA1101291999999MW1001REMMET056HEPS 2000Z 29008KT 9999 SCT025 BKN200 18/15 Q1013 NOSIG;EQDQ01+000000PRSWM2
0143623330999992000040408004+31270+032300FM-15+0006HEPS V0200101N004110600019N0080001N1+02101+01501999999ADDGA1071+060009999GF107991999999999999999999MA1101801999999MW1001REMMET049HEPS 0800Z 01008KT 8000 BKN200 21/15 Q1018 NOSIG;EQDQ01+000000PRSWM2
0143623330999992000041102004+31270+032300FM-15+0006HEPS V0200901N005112200019N0112651N1+01701+01201999999ADDGA1021+007509999GF104991999999999999999999MA1101491999999MW1001REMMET049HEPS 0200Z 09010KT 9999 SCT025 17/12 Q1015 NOSIG;EQDQ01+000000PRSWM2
0095623330999992000041403004+31270+032300FM-15+0006HEPS V0203001N00101220001CN0099001N1+01701+01301999999ADDMA1101191999999MW1001REMMET043HEPS 0300Z 30002KT CAVOK 17/13 Q1012 NOSIG;EQDQ01+000000PRSWM2
0143623330999992000041607004+31270+032300FM-15+0006HEPS V0200701N005112200019N0112651N1+02001+01501999999ADDGA1021+007509999GF104991999999999999999999MA1101291999999MW1001REMMET049HEPS 0700Z 07010KT 9999 SCT025 20/15 Q1013 NOSIG;EQDQ01+000000PRSWM2
0095623330999992000041612004+31270+032300FM-15+0006HEPS V0200401N00621220001CN0099001N1+02201+01601999999ADDMA1101081999999MW1001REMMET043HEPS 1200Z 04012KT CAVOK 22/16 Q1011 NOSIG;EQDQ01+000000PRSWM2
0145623330999992000042722004+31270+032300FM-15+0006HEPS V0200601N005112200019N0112651N1+01901+01601999999ADDGA1021+007509999GF104991999999999999999999MA1101081999999MW1001REMMET051HEPS 272200Z 06010KT 9999 SCT025 19/16 Q1011 NOSIG;EQDQ01+000000PRSWM2
0097623330999992000043010004+31270+032300FM-15+0006HEPS V0200501N00261220001CN0099001N1+02401+01601999999ADDMA1101591999999MW1001REMMET045HEPS 301000Z 05005KT CAVOK 24/16 Q1016 NOSIG;EQDQ01+000000PRSWM2
0097623330999992000051014004+31270+032300FM-15+0006HEPS V0200201N00721220001CN0099001N1+02201+01401999999ADDMA1101491999999MW1001REMMET045HEPS 101400Z 02014KT CAVOK 22/14 Q1015 NOSIG;EQDQ01+000000PRSWM2
0097623330999992000051021004+31270+032300FM-15+0006HEPS V0200101N00931220001CN0099001N1+02001+01601999999ADDMA1101591999999MW1001REMMET045HEPS 102100Z 01018KT CAVOK 20/16 Q1016 NOSIG;EQDQ01+000000PRSWM2
0097623330999992000052414004+31270+032300FM-15+0006HEPS V0200401N00411220001CN0099001N1+02601+01801999999ADDMA1101021999999MW1001REMMET045HEPS 241400Z 04008KT CAVOK 26/18 Q1010 NOSIG;EQDQ01+000000PRSWM2
0097623330999992000052508004+31270+032300FM-15+0006HEPS V0200301N00411220001CN0099001N1+02601+01701999999ADDMA1100911999999MW1001REMMET045HEPS 250800Z 03008KT CAVOK 26/17 Q1009 NOSIG;EQDQ01+000000PRSWM2
0097623330999992000052802004+31270+032300FM-15+0006HEPS V0200801N00211220001CN0099001N1+02101+01701999999ADDMA1101081999999MW1001REMMET045HEPS 280200Z 08004KT CAVOK 21/17 Q1011 NOSIG;EQDQ01+000000PRSWM2
0097623330999992000052909004+31270+032300FM-15+0006HEPS V0200801N00511220001CN0099001N1+02601+01901999999ADDMA1101191999999MW1001REMMET045HEPS 290900Z 08010KT CAVOK 26/19 Q1012 NOSIG;EQDQ01+000000PRSWM2
0145623330999992000060106004+31270+032300FM-15+0006HEPS V0200101N002612200019N0112651N1+02401+02101999999ADDGA1021+007509999GF104991999999999999999999MA1101191999999MW1001REMMET051HEPS 010600Z 01005KT 9999 SCT025 24/21 Q1012 NOSIG;EQDQ01+000000PRSWM2
0097623330999992000060118004+31270+032300FM-15+0006HEPS V0203401N00721220001CN0099001N1+02401+02001999999ADDMA1101021999999MW1001REMMET045HEPS 011800Z 34014KT CAVOK 24/20 Q1010 NOSIG;EQDQ01+000000PRSWM2
0145623330999992000060413004+31270+032300FM-15+0006HEPS V0203601N006212200019N0112651N1+02601+01801999999ADDGA1021+007509999GF102991999999999999999999MA1101291999999MW1001REMMET051HEPS 041300Z 36012KT 9999 FEW025 26/18 Q1013 NOSIG;EQDQ01+000000PRSWM2
0097623330999992000061708004+31260+032300FM-15+0006HEPS V0203601N00311220001CN0099001N1+02901+02201999999ADDMA1100811999999MW1001REMMET045HEPS 170800Z 36006KT CAVOK 29/22 Q1008 NOSIG;EQDQ01+000000PRSWM2
0097623330999992000062119004+31260+032300FM-15+0006HEPS V0200101N00931220001CN0099001N1+02501+01701999999ADDMA1101291999999MW1001REMMET045HEPS 211900Z 01018KT CAVOK 25/17 Q1013 NOSIG;EQDQ01+000000PRSWM2
0097623330999992000062314004+31260+032300FM-15+0006HEPS V0203501N00771220001CN0099001N1+02701+02001999999ADDMA1101021999999MW1001REMMET045HEPS 231400Z 35015KT CAVOK 27/20 Q1010 NOSIG;EQDQ01+000000PRSWM2
0130623330999992000070120004+31260+032300FM-15+0006HEPS V0203601N005112200019N0112651N1+02501+02001999999ADDGA1021+007509999GF104991999999999999999999MW1001REMMET051HEPS 012000Z 36010KT 9999 SCT025 25/20Q 1010 NOSIG;EQDQ01+000000PRSWM2
0145623330999992000070505004+31260+032300FM-15+0006HEPS V0202701N003612200019N0060001N1+02601+02301999999ADDGA1021+007509999GF104991999999999999999999MA1100711999999MW1001REMMET051HEPS 050500Z 27007KT 6000 SCT025 26/23 Q1007 NOSIG;EQDQ01+000000PRSWM2
0145623330999992000071821004+31260+032300FM-15+0006HEPS V0202801N005112200019N0112651N1+02601+02101999999ADDGA1021+007509999GF102991999999999999999999MA1100511999999MW1001REMMET051HEPS 182100Z 28010KT 9999 FEW025 26/21 Q1005 NOSIG;EQDQ01+000000PRSWM2
0097623330999992000071916004+31260+032300FM-15+0006HEPS V0203201N00931220001CN0099001N1+02801+02301999999ADDMA1100311999999MW1001REMMET045HEPS 191600Z 32018KT CAVOK 28/23 Q1003 NOSIG;EQDQ01+000000PRSWM2
0097623330999992000072018004+31260+032300FM-15+0006HEPS V0203401N01101220001CN0099001N1+02701+02101999999ADDMA1100611999999MW1001REMMET045HEPS 201800Z 34011KT CAVOK 27/21 Q1006 NOSIG;EQDQ01+000000PRSWM2
0145623330999992000072222004+31260+032300FM-15+0006HEPS V0203601N006212200019N0112651N1+02601+02001999999ADDGA1021+007509999GF104991999999999999999999MA1101021999999MW1001REMMET051HEPS 222200Z 36012KT 9999 SCT025 26/20 Q1010 NOSIG;EQDQ01+000000PRSWM2
0145623330999992000072603304+31260+032300FM-15+0006HEPS V0202801N002112200019N0060001N1+02601+02301999999ADDGA1021+007509999GF102991999999999999999999MA1100811999999MW1001REMMET051HEPS 260430Z 28004KT 6000 FEW025 26/23 Q1008 NOSIG;EQDQ01+000000PRSWM2
0161623330999992000080808004+31260+032300FM-15+0006HEPS V0203401N002612200019N9999999N1+02901+02301999999ADDGA1021+007509999GF104991999999999999999999MA1101081999999MW1001REMMET051HEPS 080800Z 34005KT 7000 SCT025 29/23 Q1011 NOSIG;EQDQ01+070002VODIS Q02+000000PRSWM2
0145623330999992000081504004+31260+032300FM-15+0006HEPS V0203001N002112200019N0112651N1+02501+02201999999ADDGA1021+007509999GF104991999999999999999999MA1100711999999MW1001REMMET051HEPS 150400Z 30004KT 9999 SCT025 25/22 Q1007 NOSIG;EQDQ01+000000PRSWM2
0097623330999992000081619004+31260+032300FM-15+0006HEPS V0203401N00461220001CN0099001N1+02701+02301999999ADDMA1100611999999MW1001REMMET045HEPS 161900Z 34009KT CAVOK 27/23 Q1006 NOSIG;EQDQ01+000000PRSWM2
0145623330999992000081723004+31260+032300FM-15+0006HEPS V0203201N006212200019N0112651N1+02701+02301999999ADDGA1021+007509999GF102991999999999999999999MA1100811999999MW1001REMMET051HEPS 172300Z 32012KT 9999 FEW025 27/23 Q1008 NOSIG;EQDQ01+000000PRSWM2
0145623330999992000081820004+31260+032300FM-15+0006HEPS V0203301N006212200019N0112651N1+02701+02301999999ADDGA1021+007509999GF102991999999999999999999MA1101081999999MW1001REMMET051HEPS 182000Z 33012KT 9999 FEW025 27/23 Q1011 NOSIG;EQDQ01+000000PRSWM2
0168623330999992000081900004+31260+032300FM-15+0006HEPS V0203401N004112200019N0112651N1+02601+02201999999ADDGA1021+007509999GA2021+009009999GF104991999999999999999999MA1101021999999MW1001REMMET058HEPS 190000Z 34008KT 9999 FEW025 SCT030 26/22 Q1010 NOSIG;EQDQ01+000000PRSWM2
0145623330999992000082412004+31260+032300FM-15+0006HEPS V0202801N005712200019N0112651N1+03301+02401999999ADDGA1021+007509999GF102991999999999999999999MA1100811999999MW1001REMMET051HEPS 241200Z 28011KT 9999 FEW025 33/24 Q1008 NOSIG;EQDQ01+000000PRSWM2
0097623330999992000082600004+31260+032300FM-15+0006HEPS V0200901N00411220001CN0099001N1+02701+02201999999ADDMA1100511999999MW1001REMMET045HEPS 260000Z 09008KT CAVOK 27/22 Q1005 NOSIG;EQDQ01+000000PRSWM2
0126623330999992000090312004+31260+032300FM-15+0006HEPS V0203001N007212200019N0080001N1+03001+02401999999ADDGF100991999999999999999999MA1100711999999MW1001REMMET048HEPS 031200Z 30014KT 8000 SKC 30/24 Q1007 NOSIG;EQDQ01+000000PRSWM2
0145623330999992000090404004+31260+032300FM-15+0006HEPS V0202501N004112200019N0060001N1+02401+02301999999ADDGA1021+007509999GF102991999999999999999999MA1100911999999MW1001REMMET051HEPS 040400Z 25008KT 6000 FEW025 24/23 Q1009 NOSIG;EQDQ01+000000PRSWM2
0145623330999992000090912004+31260+032300FM-15+0006HEPS V0200301N008712200019N0112651N1+02801+01901999999ADDGA1021+007509999GF102991999999999999999999MA1101591999999MW1001REMMET051HEPS 091200Z 03017KT 9999 FEW025 28/19 Q1016 NOSIG;EQDQ01+000000PRSWM2
0145623330999992000091618004+31260+032300FM-15+0006HEPS V0203501N006212200019N0112651N1+02601+01801999999ADDGA1021+007509999GF104991999999999999999999MA1101191999999MW1001REMMET051HEPS 161800Z 35012KT 9999 SCT025 26/18 Q1012 NOSIG;EQDQ01+000000PRSWM2
0097623330999992000093002004+31260+032300FM-15+0006HEPS V0200301N00311220001CN0099001N1+02401+01601999999ADDMA1101591999999MW1001REMMET045HEPS 300200Z 03006KT CAVOK 24/16 Q1016 NOSIG;EQDQ01+000000PRSWM2
0097623330999992000100221004+31260+032300FM-15+0006HEPS V0200401N00571220001CN0099001N1+02501+01901999999ADDMA1101191999999MW1001REMMET045HEPS 022100Z 04011KT CAVOK 25/19 Q1012 NOSIG;EQDQ01+000000PRSWM2
0145623330999992000101108004+31260+032300FM-15+0006HEPS V0202601N005712200019N0112651N1+02601+01901999999ADDGA1021+007509999GF102991999999999999999999MA1101691999999MW1001REMMET051HEPS 110800Z 26011KT 9999 FEW025 26/19 Q1017 NOSIG;EQDQ01+000000PRSWM2
0097623330999992000102002004+31260+032300FM-15+0006HEPS V0203201N00621220001CN0099001N1+02201+01801999999ADDMA1101491999999MW1001REMMET045HEPS 200200Z 32012KT CAVOK 22/18 Q1015 NOSIG;EQDQ01+000000PRSWM2
0145623330999992000102717004+31260+032300FM-15+0006HEPS V0200201N003612200019N0112651N1+02101+01401999999ADDGA1021+007509999GF104991999999999999999999MA1102001999999MW1001REMMET051HEPS 271700Z 02007KT 9999 SCT025 21/14 Q1020 NOSIG;EQDQ01+000000PRSWM2
0097623330999992000102803004+31260+032300FM-15+0006HEPS V0202701N00311220001CN0099001N1+01801+01501999999ADDMA1102001999999MW1001REMMET045HEPS 280300Z 27006KT CAVOK 18/15 Q1020 NOSIG;EQDQ01+000000PRSWM2
0097623330999992000102919004+31260+032300FM-15+0006HEPS V0203501N00511220001CN0099001N1+02201+01601999999ADDMA1102001999999MW1001REMMET045HEPS 291900Z 35010KT CAVOK 22/16 Q1020 NOSIG;EQDQ01+000000PRSWM2
0097623330999992000102920004+31260+032300FM-15+0006HEPS V0203601N00571220001CN0099001N1+02201+01601999999ADDMA1102001999999MW1001REMMET045HEPS 292000Z 36011KT CAVOK 22/16 Q1020 NOSIG;EQDQ01+000000PRSWM2
0145623330999992000103012004+31260+032300FM-15+0006HEPS V0203501N005112200019N0112651N1+02401+01601999999ADDGA1021+007509999GF104991999999999999999999MA1101901999999MW1001REMMET051HEPS 301200Z 35010KT 9999 SCT025 24/16 Q1019 NOSIG;EQDQ01+000000PRSWM2
0145623330999992000103015004+31260+032300FM-15+0006HEPS V0203301N006212200019N0112651N1+02201+01601999999ADDGA1021+007509999GF104991999999999999999999MA1102001999999MW1001REMMET051HEPS 301500Z 33012KT 9999 SCT025 22/16 Q1020 NOSIG;EQDQ01+000000PRSWM2
0097623330999992000110612004+31260+032300FM-15+0006HEPS V0200501N00411220001CN0099001N1+02401+01601999999ADDMA1101491999999MW1001REMMET045HEPS 061200Z 05008KT CAVOK 24/16 Q1015 NOSIG;EQDQ01+000000PRSWM2
0145623330999992000111805004+31260+032300FM-15+0006HEPS V0203501N006712200019N0112651N1+02101+01501999999ADDGA1021+007509999GF104991999999999999999999MA1101391999999MW1001REMMET051HEPS 180500Z 35013KT 9999 SCT025 21/15 Q1014 NOSIG;EQDQ01+000000PRSWM2
0168623330999992000111812004+31260+032300FM-15+0006HEPS V0203601N007212200019N0112651N1+02401+01601999999ADDGA1021+007509999GA2021+060009999GF104991999999999999999999MA1101391999999MW1001REMMET058HEPS 181200Z 36014KT 9999 SCT025 SCT200 24/16 Q1014 NOSIG;EQDQ01+000000PRSWM2
0145623330999992000112410004+31260+032300FM-15+0006HEPS V0200501N003112200019N0112651N1+02301+01401999999ADDGA1021+007509999GF104991999999999999999999MA1101691999999MW1001REMMET051HEPS 241000Z 05006KT 9999 SCT025 23/14 Q1017 NOSIG;EQDQ01+000000PRSWM2
0168623330999992000112903004+31260+032300FM-15+0006HEPS V0202301N009312200019N0112651N1+01401+01101999999ADDGA1021+007509999GA2021+009009999GF104991999999999999999999MA1100911999999MW1001REMMET058HEPS 290300Z 23018KT 9999 FEW025 SCT030 14/11 Q1009 NOSIG;EQDQ01+000000PRSWM2
0097623330999992000113009004+31260+032300FM-15+0006HEPS V0202401N00871220001CN0099001N1+01801+01201999999ADDMA1101291999999MW1001REMMET045HEPS 300900Z 24017KT CAVOK 18/12 Q1013 NOSIG;EQDQ01+000000PRSWM2
0145623330999992000120112004+31260+032300FM-15+0006HEPS V0203401N002612200019N0112651N1+02301+01501999999ADDGA1021+007509999GF104991999999999999999999MA1101901999999MW1001REMMET051HEPS 011200Z 34005KT 9999 SCT025 23/15 Q1019 NOSIG;EQDQ01+000000PRSWM2
0097623330999992000120514004+31260+032300FM-15+0006HEPS V0200701N00411220001CN0099001N1+02101+01501999999ADDMA1101901999999MW1001REMMET045HEPS 051400Z 07008KT CAVOK 21/15 Q1019 NOSIG;EQDQ01+000000PRSWM2
0097623330999992000121417004+31260+032300FM-15+0006HEPS V0203401N00511220001CN0099001N1+01601+01201999999ADDMA1101591999999MW1001REMMET045HEPS 141700Z 34010KT CAVOK 16/12 Q1016 NOSIG;EQDQ01+000000PRSWM2
0192623330999992000122007004+31260+032300FM-15+0006HEPS V0202601N008210300019N0040001N1+01501+01201999999ADDGA1021+007509999GA2071+030009999GF107991999999999999999999MA1101391999999MW1071REMMET066HEPS 200700Z 26016KT 4000 SA SCT025 BKN100 15/12 Q1014 TEMPO 3000;EQDQ01+000003PRSWM1Q02    003PRSWM1
0145623330999992000122115004+31260+032300FM-15+0006HEPS V0202401N002612200019N0112651N1+01701+01201999999ADDGA1021+007509999GF104991999999999999999999MA1101801999999MW1001REMMET051HEPS 211500Z 24005KT 9999 SCT025 17/12 Q1018 NOSIG;EQDQ01+000000PRSWM2
0168623330999992000122714004+31260+032300FM-15+0006HEPS V0200201N003112200019N0112651N1+01901+01101999999ADDGA1021+007509999GA2021+060009999GF104991999999999999999999MA1102201999999MW1001REMMET058HEPS 271400Z 02006KT 9999 FEW025 SCT200 19/11 Q1022 NOSIG;EQDQ01+000000PRSWM2
0097623330999992000123115004+31260+032300FM-15+0006HEPS V0209999C00001220001CN0099001N1+01901+01001999999ADDMA1101801999999MW1001REMMET045HEPS 311500Z 00000KT CAVOK 19/10 Q1018 NOSIG;EQDQ01+000000PRSWM2
0142623360999992000101112004+31070+033820FM-12+000099999V0203301N002112200019N0100001N1+02751+01731101571ADDAA199000091GF103991031021008001001001MD1710121+9999REMSYN060AAXX  11124 62336 32560 33304 10275 20173 40157 57012 83200;EQDQ01  00002PRCP99
0170623370999992000010115004+31080+033830FM-12+0032HEAR V0203201N000512200019N0100001N1+01871+01541101571ADDAA106000091AY101031AY201031GF104991001001999999001041MD1310011+9999MW1101REMSYN066AAXX  01154 62337 31960 43201 10187 20154 40157 53001 71000 80004;EQDQ01  00002PRCP06
0161623370999992000010903004+31080+033830FM-12+0032HEAR V0202301N000512200019N0060001N1+01021+00991101861ADDAA103000391AY101031AY261031GF104991041051008001001001MD1610021+9999MW1101REMSYN076AAXX  09034 62337 21556 42301 10102 20099 40186 56002 71006 84500 333 69937;
0142623370999992000011112004+31080+033830FM-12+0032HEAR V0200301N003610120019N0100001N1+01631+00791102141ADDAA106000091GF106991061081008001001001MD1610141+9999REMSYN060AAXX  11124 62337 32560 60307 10163 20079 40214 56014 86800;EQDQ01  00002PRCP06
0156623370999992000011400004+31080+033830FM-12+003299999V0201201N00101220001AN0100001N1+00751+00371102031ADDAA199000091GA1001+999999999GF100991001001999999001001MD1610121+9999REMSYN058    AAXX  14004 62337 32960 01202 10075 20037 40203 56012;EQDQ01  00002PRCP99
0175623370999992000013118004+31080+033830FM-12+0032HEAR V0209999C000012200019N0100001N1+01101+00781102401ADDAA199000091GA1001+999999999GF100991001001999999001001KA1999M+01761MD1310081+9999REMSYN064AAXX  31184 62337 32960 00000 10110 20078 40240 53008 333 10176;EQDQ01  00002PRCP99
0165623370999992000021006004+31080+033830FM-12+0032HEAR V0201701N000519999999N0100001N1+00771+00551102101ADDAA199000091GF106991001001999999001041KA1999N+00531MD1510001+9999REMSYN070AAXX  10064 62337 32960 61701 10077 20055 40210 55000 80004 333 20053;EQDQ01  00002PRCP99
0142623370999992000021412004+31080+033830FM-12+0032HEAR V0203101N003110120019N0100001N1+01791+00941101931ADDAA199000091GF105991051081008001001001MD1610141+9999REMSYN060AAXX  14124 62337 32560 53106 10179 20094 40193 56014 85800;EQDQ01  00002PRCP99
0180623370999992000022803004+31080+033830FM-12+0032HEAR V0201901N000512200019N0060001N1+00751+00631102251ADDAA199000091AY101031AY201031GA1001+999999999GF100991001001999999001001MD1510011+9999MW1101REMSYN060AAXX  28034 62337 31956 01901 10075 20063 40225 55001 71000;EQDQ01  00002PRCP99
0152623370999992000031103004+31080+033830FM-12+0032HEAR V0201901N000512200019N0100001N1+00641+00451102211ADDAA199000091GA1001+999999999GF100991001001999999001001MD1610051+9999REMSYN054AAXX  11034 62337 32960 01901 10064 20045 40221 56005;EQDQ01  00002PRCP99
0175623370999992000031106004+31080+033830FM-12+0032HEAR V0201901N000512200019N0100001N1+01141+00761102331ADDAA199000091GA1001+999999999GF100991001001999999001001KA1999N+00521MD1310131+9999REMSYN064AAXX  11064 62337 32960 01901 10114 20076 40233 53013 333 20052;EQDQ01  00002PRCP99
0152623370999992000031203004+31080+033830FM-12+0032HEAR V0201601N002112200019N0100001N1+00801+00631102061ADDAA199000091GA1001+999999999GF100991001001999999001001MD1810081+9999REMSYN054AAXX  12034 62337 32960 01604 10080 20063 40206 58008;EQDQ01  00002PRCP99
0142623370999992000032021004+31080+033830FM-12+0032HEAR V0203401N003119999999N0100001N1+01581+01211101911ADDAA199000091GF106991061001999999051001MD1310181+9999REMSYN060AAXX  20214 62337 32960 63406 10158 20121 40191 53018 86050;EQDQ01  00002PRCP99
0152623370999992000050215004+31080+033830FM-12+0032HEAR V0200101N002112200019N0100001N1+02161+01691101011ADDAA199000091GA1001+999999999GF100991001001999999001001MD1810101+9999REMSYN054AAXX  02154 62337 32960 00104 10216 20169 40101 58010;EQDQ01  00002PRCP99
0165623370999992000050718004+31080+033830FM-12+0032HEAR V0203401N000512200019N0100001N1+01741+01151101711ADDAA199000091GF103991031051008001001001KA1999M+02301MD1310071+9999REMSYN070AAXX  07184 62337 32560 33401 10174 20115 40171 53007 83500 333 10230;EQDQ01  00002PRCP99
0165623370999992000050806004+31080+033830FM-12+0032HEAR V0202501N001012200019N0100001N1+02021+01141101771ADDAA199000091GF103991031021008001001001KA1999N+01411MD1310121+9999REMSYN070AAXX  08064 62337 32560 32502 10202 20114 40177 53012 83200 333 20141;EQDQ01  00002PRCP99
0180623370999992000051503004+31080+033830FM-12+0032HEAR V0209999C000012200019N0040001N1+01401+01351101251ADDAA199000091AY101031AY201031GA1001+999999999GF100991001001999999001001MD1310021+9999MW1101REMSYN060AAXX  15034 62337 31940 00000 10140 20135 40125 53002 71000;EQDQ01  00002PRCP99
0175623370999992000052118004+31080+033830FM-12+0032HEAR V0200301N000512200019N0100001N1+02121+01591101431ADDAA199000091GA1001+999999999GF100991001001999999001001KA1999M+02901MD1310101+9999REMSYN064AAXX  21184 62337 32960 00301 10212 20159 40143 53010 333 10290;EQDQ01  00002PRCP99
0180623370999992000060203004+31080+033830FM-12+0032HEAR V0209999C000012200019N0060001N1+01721+01611100901ADDAA199000091AY101031AY201031GA1001+999999999GF100991001001999999001001MD1610021+9999MW1101REMSYN060AAXX  02034 62337 31956 00000 10172 20161 40090 56002 71000;EQDQ01  00002PRCP99
0142623370999992000060403004+31080+033830FM-12+0032HEAR V0202601N001512200019N0100001N1+01901+01681101151ADDAA199000091GF103991031051008001001001MD1110041+9999REMSYN060AAXX  04034 62337 32560 32603 10190 20168 40115 51004 83500;EQDQ01  00002PRCP99
0152623370999992000070100004+31790+033820FM-12+0032HEAR V0209999C000012200019N0100001N1+02091+01901100951ADDAA199000091GA1001+999999999GF100991001001999999001001MD1610011+9999REMSYN054AAXX  01004 62337 32960 00000 10209 20190 40095 56001;EQDQ01  00002PRCP99
0142623370999992000071809004+31070+033820FM-12+0032HEAR V0203101N002612200019N0100001N1+03081+02091100721ADDAA199000091GF103991031021008001001001MD1610131+9999REMSYN060AAXX  18094 62337 32560 33105 10308 20209 40072 56013 83200;EQDQ01  00002PRCP99
0175623370999992000071818004+31070+033820FM-12+0032HEAR V0203201N000512200019N0100001N1+02601+02131100521ADDAA199000091GA1001+999999999GF100991001001999999001001KA1999M+03221MD1110011+9999REMSYN064AAXX  18184 62337 32960 03201 10260 20213 40052 51001 333 10322;EQDQ01  00002PRCP99
0152623370999992000092615004+31070+033820FM-12+0032HEAR V0203301N001012200019N0100001N1+02661+01781101141ADDAA199000091GA1001+999999999GF100991001001999999001001MD1610071+9999REMSYN054AAXX  26154 62337 32960 03302 10266 20178 40114 56007;EQDQ01  00002PRCP99
0203623370999992000100606004+31070+033820FM-12+0032HEAR V0209999C000012200019N0060001N1+02401+02051101341ADDAA199000091AY101061AY201061GA1001+999999999GF100991001001999999001001KA1999N+01931MD1110081+9999MW1101REMSYN070AAXX  06064 62337 31956 00000 10240 20205 40134 51008 71000 333 20193;EQDQ01  00002PRCP99
0152623370999992000100815004+31070+033820FM-12+0032HEAR V0203601N002112200019N0100001N1+02661+01981101391ADDAA199000091GA1001+999999999GF100991001001999999001001MD1510001+9999REMSYN054AAXX  08154 62337 32960 03604 10266 20198 40139 55000;EQDQ01  00002PRCP99
0165623370999992000101218004+31070+033820FM-12+0032HEAR V0200101N000512200019N0100001N1+02331+01711101481ADDAA199000091GF103991031051008001001001KA1999M+02851MD1110081+9999REMSYN070AAXX  12184 62337 32560 30101 10233 20171 40148 51008 83500 333 10285;EQDQ01  00002PRCP99
0142623370999992000101809004+31070+033820FM-12+0032HEAR V0200501N000512200019N0100001N1+02741+01871101761ADDAA199000091GF104991041021008001001001MD1810071+9999REMSYN060AAXX  18094 62337 32560 40501 10274 20187 40176 58007 84200;EQDQ01  00002PRCP99
0152623370999992000111700004+31070+033820FM-12+0032HEAR V0200801N000512200019N0100001N1+01491+00691101481ADDAA199000091GA1001+999999999GF100991001001999999001001MD1610061+9999REMSYN054AAXX  17004 62337 32960 00801 10149 20069 40148 56006;EQDQ01  00002PRCP99
0180623370999992000112000004+31070+033820FM-12+0032HEAR V0201601N001512200019N0060001N1+01161+01051101941ADDAA199000091AY121061AY201061GA1001+999999999GF100991001001999999001001MD1810051+9999MW1101REMSYN060AAXX  20004 62337 31956 01603 10116 20105 40194 58005 71020;EQDQ01  00002PRCP99
0161623370999992000121309004+31070+033820FM-12+0032HEAR V0202501N006210120019N0100001N1+01681+01191101471ADDAA103001091AY181031AY211031GF106991061081008001001001MD1810051+9999MW1021REMSYN076AAXX  13094 62337 21560 62512 10168 20119 40147 58005 70281 86800 333 60017;
0175623370999992000122406004+31070+033820FM-12+0032HEAR V0202001N003612200019N0100001N1+01361+00521101421ADDAA199000091GA1001+999999999GF100991001001999999001001KA1999N+01031MD1310061+9999REMSYN064AAXX  24064 62337 32960 02007 10136 20052 40142 53006 333 20103;EQDQ01  00002PRCP99
0152623370999992000122518004+31070+033820FM-12+0032HEAR V0202501N001510120019N0100001N1+01321+00961102241ADDAA112000191GF105991051081008001001001KA1999M+01941MD1210121+9999REMSYN076AAXX  25184 62337 12560 52503 10132 20096 40224 52012 69912 85800 333 10194;
0152623370999992000122821004+31070+033820FM-12+0032HEAR V0201701N001512200019N0100001N1+00921+00791101701ADDAA199000091GA1001+999999999GF100991001001999999001001MD1610061+9999REMSYN054AAXX  28214 62337 32960 01703 10092 20079 40170 56006;EQDQ01  00002PRCP99
0142623570999992000031009004+30400+030350FM-12+000199999V0203401N003112200019N0100001N1+01901+01001102421ADDAA199000091GF104991041011008001001001MD1010051+9999REMSYN060AAXX  10094 62357 32560 43406 10190 20100 40242 50005 84100;EQDQ01  00002PRCP99
0175623570999992000042618004+30400+030350FM-12+000199999V0200201N006212200019N0100001N1+02281+01771101261ADDAA199000091GA1001+999999999GF100991001001999999001001KA1999M+03161MD1310041+9999REMSYN064AAXX  26184 62357 32960 00212 10228 20177 40126 53004 333 10316;EQDQ01  00002PRCP99
0175623570999992000052018004+30400+030350FM-12+000199999V0200201N004112200019N0100001N1+02571+01011101201ADDAA199000091GA1001+999999999GF100991001001999999001001KA1999M+03251MD1310151+9999REMSYN064AAXX  20184 62357 32960 00208 10257 20101 40120 53015 333 10325;EQDQ01  00002PRCP99
0152623570999992000052715004+30400+030350FM-12+000199999V0200201N004612200019N0100001N1+02861+01761101131ADDAA199000091GA1001+999999999GF100991001001999999001001MD1610011+9999REMSYN054AAXX  27154 62357 32960 00209 10286 20176 40113 56001;EQDQ01  00002PRCP99
0142623570999992000060415004+30400+030350FM-12+000199999V0200201N006212200019N0100001N1+02991+01381101151ADDAA199000091GF104991041011008001001001MD1610101+9999REMSYN060AAXX  04154 62357 32560 40212 10299 20138 40115 56010 84100;EQDQ01  00002PRCP99
0175623570999992000062818004+30400+030340FM-12+000199999V0203401N006212200019N0100001N1+02601+01801100121ADDAA199000091GA1001+999999999GF100991001001999999001001KA1999M+03441MD1310111+9999REMSYN064AAXX  28184 62357 32960 03412 10260 20180 40012 53011 333 10344;EQDQ01  00002PRCP99
0175623570999992000080506004+30400+030340FM-12+000199999V0203401N002612200019N0100001N1+02581+02331100921ADDAA199000091GA1001+999999999GF100991001001999999001001KA1999N+02051MD1319999+9999REMSYN064AAXX  05064 62357 33960 03405 10258 20233 40092 53/// 333 20205;EQDQ01  00002PRCP99
0152623570999992000081209004+30400+030340FM-12+000199999V0203601N002612200019N0100001N1+03191+02171100881ADDAA199000091GA1001+999999999GF100991001001999999001001MD1010031+9999REMSYN054AAXX  12094 62357 32960 03605 10319 20217 40088 50003;EQDQ01  00002PRCP99
0161623570999992000081606004+30400+030340FM-12+000199999V0209999C000012200019N0100001N1+02681+02051100861ADDAA199000091GA1001+999999999GF100991001001999999001001KA1999N+02231REMSYN064AAXX  16064 62357 33960 00000 10268 20205 40086 5//// 333 20223;EQDQ01  00002PRCP99
0142623570999992000091309004+30400+030340FM-12+000199999V0203201N003112200019N0100001N1+03081+01871101131ADDAA199000091GF103991031011008001001001MD1010031+9999REMSYN060AAXX  13094 62357 32560 33206 10308 20187 40113 50003 83100;EQDQ01  00002PRCP99
0173623570999992000110806004+30400+030340FM-12+000199999V0203601N002112200019N0040001N1+01841+01491101711ADDAA199000091GA1001+999999999GF100991001001999999001001KA1999N+01341MW1101REMSYN070AAXX  08064 62357 31940 03604 10184 20149 40171 5//// 710// 333 20134;EQDQ01  00002PRCP99
0145623660999992000010604004+30130+031400FM-15+0074HECA V0202101N004112200019N0112651N1+00901+00501999999ADDGA1021+007509999GF104991999999999999999999MA1101691999999MW1001REMMET051HECA 060400Z 21008KT 9999 SCT025 09/05 Q1017 NOSIG;EQDQ01+000000PRSWM2
0193623660999992000010606004+30130+031400FM-12+0074HECA V0201901N004110210019N0030001N1+00901+00471101861ADDAA106000091AY121061AY201061GF105991051001022501051001KA1999N+00811MD1310131+9999MW1051REMSYN076AAXX  06064 62366 31830 51908 10090 20047 40186 53013 70520 85050 333 20081;EQDQ01  00002PRCP06
0256623660999992000011715004+30130+031400SY-MT+007499999V0202101N00571220001CN0100001N1+01711+00791101201ADDAA199000091GA1021+007509999GF102991021021008001001001MA1101191999999MD1810111+9999MW1001REMSYN064    AAXX  17154 62366 32560 22111 10171 20079 40120 58011 82200;MET051HECA 171500Z 21011KT 9999 FEW025 17/08 Q1012 NOSIG;EQDQ01+000000PRSWM2Q02  00002PRCP99
0124623660999992000011815304+30130+031400FM-16+0074HECA V0202501N010819999999N0008001N1+99999+99999999999ADDED199U08009MW1001MW2311REMMET070HECA 181530Z 25021KT 0800 R23R/0800 SS OVC 070 16/04 Q1008 TEMPO 0500;EQDQ01+000003PRSWM1
0097623660999992000012519004+30130+031400FM-15+0074HECA V0203201N00261220001CN0099001N1+01501+00301999999ADDMA1102001999999MW1001REMMET045HECA 251900Z 32005KT CAVOK 15/03 Q1020 NOSIG;EQDQ01+000000PRSWM2
0199623660999992000012721004+30130+031400SY-MT+0074HECA V0202801N005712200019N0100001N1+00701+00271101781ADDAA199000021GF104991041001022501031001MD1110021+9999MW1001REMSYN060AAXX  27214 62366 32860 42811 10070 20027 40178 51002 84030;MET045HECA 272100 28011KT CAVOK 07/03 Q1 017 NOSIG;EQDQ01+000000PRSWM2
0097623660999992000013013004+30130+031400FM-15+0074HECA V0200901N00311220001CN0099001N1+01601+00001999999ADDMA1102401999999MW1001REMMET045HECA 301300Z 09006KT CAVOK 16/00 Q1024 NOSIG;EQDQ01+000000PRSWM2
0265623660999992000020403004+30130+031400SY-MT+0074HECA V0209999C000012200019N0060001N1+00851+00701102061ADDAA199000091AY101031AY201031GF100991001001999999001001MA1102001999999MD1710071+9999MW1101REMSYN060AAXX  04034 62366 31956 00000 10085 20070 40206 57007 71000;MET048HECA 040300Z 00000KT 6000 SKC 08/07 Q1020 NOSIG;EQDQ01+000000PRSWM2Q02  00002PRCP99Q03    003PRSWM1
0150623660999992000020405004+30130+031400FM-15+0074HECA V0200901N001012200019N0040001N1+00801+00701999999ADDGF100991999999999999999999MA1102001999999MW1101REMMET056HECA 040500Z 09002KT 4000 BR SKC 08/07 Q1020 TEMPO 3000;EQDQ01+000003PRSWM1Q02    003PRSWM1
0275623660999992000020615004+30130+031400SY-MT+0074HECA V0203201N005710210019N0100001N1+01541+00531102051ADDAA199000091GA1021+007509999GA2071+021009999GF105991021021008001051001MA1102001999999MD1310051+9999MW1001REMSYN060AAXX  06154 62366 32560 53211 10154 20053 40205 53005 82250;MET058HECA 061500Z 32011KT 9999 FEW025 BKN070 15/05 Q1020 NOSIG;EQDQ01+000000PRSWM2Q02  00002PRCP99
0168623660999992000020801004+30130+031400FM-15+0074HECA V0203601N002610210019N0112651N1+01301+00701999999ADDGA1021+007509999GA2071+021009999GF107991999999999999999999MA1101801999999MW1001REMMET058HECA 080100Z 36005KT 9999 SCT025 BKN070 13/07 Q1018 NOSIG;EQDQ01+000000PRSWM2
0094623660999992000021604004+30130+031400FM-15+0074HECA V0202301N00411220001CN0099001N1+01201+00601999999ADDMA1101801999999MW1001REMMET042HECA 0400Z 23008KT CAVOK 12/06 Q1018 NOSL;EQDQ01+000000PRSWM2
0224623660999992000021621004+30130+031400SY-MT+0074HECA V0203601N000512200019N0100001N1+01271+00831102241ADDAA199000091GF100991001001999999001001MA1102201999999MD1210041+9999MW1001REMSYN054AAXX  16214 62366 32960 03601 10127 20083 40224 52004;MET045HECA 162100Z 36001KT CAVOK 13/08 Q1022 NOSIG;EQDQ01+000000PRSWM2Q02  00002PRCP99
0097623660999992000022016004+30130+031400FM-15+0074HECA V0203501N00461220001CN0099001N1+01701+00601999999ADDMA1102101999999MW1001REMMET045HECA 201600Z 35009KT CAVOK 17/06 Q1021 NOSIG;EQDQ01+000000PRSWM2
0252623660999992000022809004+30130+031400SY-MT+0074HECA V0203201N001512200019N0100001N1+01561+00651102411ADDAA199000091GA1021+007509999GF103991031021008001001001MA1102401999999MD1010051+9999MW1001REMSYN060AAXX  28094 62366 32560 33203 10156 20065 40241 50005 83200;MET051HECA 280900Z 32003KT 9999 SCT025 16/07 Q1024 NOSIG;EQDQ01+000000PRSWM2Q02  00002PRCP99
0097623660999992000031122004+30130+031400FM-15+0074HECA V0200201N00151220001CN0099001N1+01401+01001999999ADDMA1102201999999MW1001REMMET045HECA 112200Z 02003KT CAVOK 14/10 Q1022 NOSIG;EQDQ01+000000PRSWM2
0262623660999992000031312004+30130+031400SY-MT+0074HECA V0203501N002112200019N0100001N1+02011+00361101981ADDAA199000091AY141061AY201061GF100991001001999999001001MA1101901999999MD1710191+9999MW1021REMSYN060AAXX  13124 62366 31960 03504 10201 20036 40198 57019 70240;MET045HECA 131200Z 35004KT CAVOK 20/04 Q1019 NOSIG;EQDQ01+000000PRSWM2Q02  00002PRCP99Q03    003PRSWM1
0097623660999992000032701004+30130+031400FM-15+0074HECA V0200701N00361220001CN0099001N1+01201+00801999999ADDMA1102001999999MW1001REMMET045HECA 270100Z 07007KT CAVOK 12/08 Q1020 NOSIG;EQDQ01+000000PRSWM2
0079623660999992000032800304+30130+031400FM-15+0074HECA V02099999999992200019N0060001N1+99999+99999999999ADDMW1001REMMET042HECA 280130 ///// CAVOK 12/10 Q1019 NOSIG;EQDQ01+000000PRSWM2
0081623660999992000040320004+30130+031400FM-15+0074HECA V0200601N00361220001CN0099001N1+02201+00501999999ADDMW1001REMMET044HECA 032000Z 06007KT CAVOK 22/05 1016 NOSIG;EQDQ01+000000PRSWM2
0097623660999992000040709004+30130+031400FM-15+0074HECA V0200101N00571220001CN0099001N1+02101+01001999999ADDMA1101591999999MW1001REMMET045HECA 070900Z 01011KT CAVOK 21/10 Q1016 NOSIG;EQDQ01+000000PRSWM2
0224623660999992000041000004+30130+031400SY-MT+0074HECA V0200901N002112200019N0100001N1+01421+00881101871ADDAA199000091GF100991001001999999001001MA1101801999999MD1810101+9999MW1001REMSYN054AAXX  10004 62366 32960 00904 10142 20088 40187 58010;MET045HECA 100000Z 09004KT CAVOK 14/09 Q1018 NOSIG;EQDQ01+000000PRSWM2Q02  00002PRCP99
0230623660999992000041212004+30130+031400SY-MT+0074HECA V0202301N008219999999N0100001N1+04141+00251100641ADDAA199000091GF107991001001999999001071MA1100711999999MD1710151+9999MW1001REMSYN060AAXX  12124 62366 32960 72316 10414 20025 40064 57015 80007;MET045HECA 121200Z 23016KT CAVOK 41/03 Q1007 NOSIG;EQDQ01+000000PRSWM2Q02  00002PRCP99
0097623660999992000041222004+30130+031400FM-15+0074HECA V0201801N00511220001CN0099001N1+03201+00401999999ADDMA1100511999999MW1001REMMET045HECA 122200Z 18010KT CAVOK 32/04 Q1005 NOSIG;EQDQ01+000000PRSWM2
0142623660999992000041807004+30130+031400FM-15+0074HECA V0202201N003612200019N9999999N1+02501+01401999999ADDGF100991999999999999999999MA1100311999999MW1001REMMET048HECA 180700Z 22007KT 6000 SKC 25/14 Q1003 NOSIG;EQDQ01+060002VODIS Q02+000000PRSWM2
0224623660999992000042415004+30130+031400SY-MT+0074HECA V0203501N005712200019N0100001N1+02761+00821101401ADDAA199000091GF100991001001999999001001MA1101391999999MD1610051+9999MW1001REMSYN054AAXX  24154 62366 32960 03511 10276 20082 40140 56005;MET045HECA 241500Z 35011KT CAVOK 28/08 Q1014 NOSIG;EQDQ01+000000PRSWM2Q02  00002PRCP99
0097623660999992000050908004+30130+031400FM-15+0074HECA V0200401N00571220001CN0099001N1+02301+01101999999ADDMA1101801999999MW1001REMMET045HECA 090800Z 04011KT CAVOK 23/11 Q1018 NOSIG;EQDQ01+000000PRSWM2
0096623660999992000051119004+30130+031400FM-15+0074HECA V0200401N00621220001CN0099001N1+02401+00801999999ADDMA1101491999999MW1001REMMET044HECA 111900 04012KT CAVOK 24/08 Q1015 NOSIG;EQDQ01+000000PRSWM2
0224623660999992000051209004+30130+031400SY-MT+0074HECA V0200201N004612200019N0100001N1+02701+00701101541ADDAA199000091GF100991001001999999001001MA1101491999999MD1810031+9999MW1001REMSYN054AAXX  12094 62366 32960 00209 10270 20070 40154 58003;MET045HECA 120900Z 02009KT CAVOK 27/07 Q1015 NOSIG;EQDQ01+000000PRSWM2Q02  00002PRCP99
0095623660999992000052414004+30130+031400FM-15+0074HECA V0203301N00211220001CN0099001N1+03101+01601999999ADDMA1101021999999MW1001REMMET043HECA 1400Z 33004KT CAVOK 31/16 Q1010 NOSIG;EQDQ01+000000PRSWM2
0095623660999992000060216004+30130+031400FM-15+0074HECA V0203501N00671220001CN0099001N1+03101+01701999999ADDMA1100711999999MW1001REMMET043HECA 1600Z 35013KT CAVOK 31/17 Q1007 NOSIG;EQDQ01+000000PRSWM2
0097623660999992000061407004+30130+031400FM-15+0074HECA V0200301N00461220001CN0099001N1+02901+01601999999ADDMA1101021999999MW1001REMMET045HECA 140700Z 03009KT CAVOK 29/16 Q1010 NOSIG;EQDQ01+000000PRSWM2
0096623660999992000061905004+30130+031400FM-15+0074HECA V0203501N00211220001CN0099001N1+02301+01901999999ADDMA1101081999999MW1001REMMET044HECA 190500 35004KT CAVOK 23/19 Q1011 NOSIG;EQDQ01+000000PRSWM2
0097623660999992000062914004+30130+031400FM-15+0074HECA V0203501N00461220001CN0099001N1+03201+01801999999ADDMA1100711999999MW1001REMMET045HECA 291400Z 35009KT CAVOK 32/18 Q1007 NOSIG;EQDQ01+000000PRSWM2
0145623660999992000063005004+30130+031400FM-15+0074HECA V0200401N003612200019N0060001N1+02301+01801999999ADDGA1021+007509999GF104991999999999999999999MA1100911999999MW1001REMMET051HECA 300500 04007KT 6000S SCT025 23/18 Q1009 NOSIG;EQDQ01+000000PRSWM2
0097623660999992000070314004+30130+031400FM-15+0074HECA V0203401N00511220001CN0099001N1+03301+02101999999ADDMA1100611999999MW1001REMMET045HECA 031400Z 34010KT CAVOK 33/21 Q1006 NOSIG;EQDQ01+000000PRSWM2
0128623660999992000070402004+30130+031400FM-15+0074HECA V0203501N000512200019N0020001N1+02301+02201999999ADDGF100991999999999999999999MA1100711999999MW1001REMMET050HECA 040200 35001KT 2000B R SKC 23/22 Q1007 NOSIG;EQDQ01+000000PRSWM2
0142623660999992000070601004+30130+031400FM-15+0074HECA V0203101N002112200019N9999999N1+02501+01901999999ADDGF100991999999999999999999MA1100811999999MW1001REMMET048HECA 060100Z 31004KT 6000 SKC 25/19 Q1008 NOSIG;EQDQ01+060002VODIS Q02+000000PRSWM2
0224623660999992000071221004+30130+031400SY-MT+0074HECA V0203101N001512200019N0100001N1+02821+02141100641ADDAA199000091GF100991001001999999001001MA1100611999999MD1410001+9999MW1001REMSYN054AAXX  12214 62366 32960 03103 10282 20214 40064 54000;MET045HECA 122100Z 31003KT CAVOK 28/21 Q1006 NOSIG;EQDQ01+000000PRSWM2Q02  00002PRCP99
0097623660999992000072206004+30130+031400FM-15+0074HECA V0200301N00621220001CN0099001N1+02701+02101999999ADDMA1100911999999MW1001REMMET045HECA 220600Z 03012KT CAVOK 27/21 Q1009 NOSIG;EQDQ01+000000PRSWM2
0095623660999992000072323004+30130+031400FM-15+0074HECA V0203501N00311220001CN0099001N1+02401+01901999999ADDMA1101081999999MW1001REMMET043HECA 2300Z 35006KT CAVOK 24/19 Q1011 NOSIG;EQDQ01+000000PRSWM2
0224623660999992000073003004+30130+031400SY-MT+0074HECA V0203001N00151220001CN0100001N1+02791+01361100701ADDAA199000091GF100991001001999999001001MA1100711999999MD1410001+9999MW1001REMSYN054AAXX  30034 62366 32960 03003 10279 20136 40070 54000;MET045HECA 300300Z 03003KT CAVOK 28/14 Q1007 NOSIG;EQDQ01+000000PRSWM2Q02  00002PRCP99
0247623660999992000073106004+30130+031400SY-MT+0074HECA V0200701N004112200019N0100001N1+03021+02021100971ADDAA199000091GF100991001001999999001001KA1999N+02561MA1101021999999MD1210071+9999MW1001REMSYN064AAXX  31064 62366 32960 00708 10302 20202 40097 52007 333 20256;MET045HECA 310600Z 07008KT CAVOK 30/20 Q1010 NOSIG;EQDQ01+000000PRSWM2Q02  00002PRCP99
0169623660999992000081404004+30130+031400FM-15+0074HECA V0203501N001512200019N0020001N1+02401+02101999999ADDGA1021+007509999GF104991999999999999999999MA1101021999999MW1101REMMET059HECA 140400Z 35003KT 2000 BR SCT025 24/21 Q1010 TEMPO 1500;EQDQ01+000003PRSWM1Q02    003PRSWM1
0224623660999992000081412004+30130+031400SY-MT+0074HECA V0203101N005112200019N0100001N1+03191+01991100841ADDAA199000091GF100991001001999999001001MA1100911999999MD1710161+9999MW1001REMSYN054AAXX  14124 62366 32960 03110 10319 20199 40084 57016;MET045HECA 141200Z 31010KT CAVOK 32/20 Q1009 NOSIG;EQDQ01+000000PRSWM2Q02  00002PRCP99
0097623660999992000081504004+30130+031400FM-15+0074HECA V0200101N00211220001CN0099001N1+02401+02001999999ADDMA1100811999999MW1001REMMET045HECA 150400Z 01004KT CAVOK 24/20 Q1008 NOSIG;EQDQ01+000000PRSWM2
0095623660999992000081616004+30130+031400FM-15+0074HECA V0200101N00411220001CN0099001N1+03401+02001999999ADDMA1100511999999MW1001REMMET043HECA 1600Z 01008KT CAVOK 34/20 Q1005 NOSIG;EQDQ01+000000PRSWM2
0274623660999992000082118004+30130+031400SY-MT+0074HECA V0203501N005112200019N0100001N1+02921+02311100861ADDAA199000091GA1021+009009999GF101991011011008001001001KA1999M+03441MA1100911999999MD1310191+9999MW1001REMSYN070AAXX  21184 62366 32560 13510 10292 20231 40086 53019 81100 333 10344;MET050HECA 211800 35010KT 9999 FEW030 29/23 Q1009 NOSIG;EQDQ01+000000PRSWM2Q02  00002PRCP99
0097623660999992000082923004+30130+031400FM-15+0074HECA V0203601N00101220001CN0099001N1+02401+01901999999ADDMA1101021999999MW1001REMMET045HECA 292300Z 36002KT CAVOK 24/19 Q1010 NOSIG;EQDQ01+000000PRSWM2
0097623660999992000083016004+30130+031400FM-15+0074HECA V0203501N00511220001CN0099001N1+03101+01901999999ADDMA1100711999999MW1001REMMET045HECA 301600Z 35010KT CAVOK 31/19 Q1007 NOSIG;EQDQ01+000000PRSWM2
0145623660999992000090108004+30130+031400FM-15+0074HECA V0200301N004612200019N0112651N1+02901+02001999999ADDGA1021+007509999GF104991999999999999999999MA1101021999999MW1001REMMET051HECA 010800Z 03009KT 9999 SCT025 29/20 Q1010 NOSIG;EQDQ01+000000PRSWM2
0097623660999992000090201004+30130+031400FM-15+0074HECA V0200201N00101220001CN0099001N1+02301+02001999999ADDMA1101021999999MW1001REMMET045HECA 020100Z 02002KT CAVOK 23/20 Q1010 NOSIG;EQDQ01+000000PRSWM2
0097623660999992000090220004+30130+031400FM-15+0074HECA V0200101N00261220001CN0099001N1+02801+01801999999ADDMA1101021999999MW1001REMMET045HECA 022000Z 01005KT CAVOK 28/18 Q1010 NOSIG;EQDQ01+000000PRSWM2
0097623660999992000091312004+30130+031400FM-15+0074HECA V0203301N00411220001CN0099001N1+03301+01801999999ADDMA1101021999999MW1001REMMET045HECA 131200Z 33008KT CAVOK 33/18 Q1010 NOSIG;EQDQ01+000000PRSWM2
0097623660999992000091620004+30130+031400FM-15+0074HECA V0200201N00361220001CN0099001N1+02501+01801999999ADDMA1101291999999MW1001REMMET045HECA 162000Z 02007KT CAVOK 25/18 Q1013 NOSIG;EQDQ01+000000PRSWM2
0097623660999992000091923004+30130+031400FM-15+0074HECA V0200201N00311220001CN0099001N1+02301+02001999999ADDMA1101191999999MW1001REMMET045HECA 192300Z 02006KT CAVOK 23/20 Q1012 NOSIG;EQDQ01+000000PRSWM2
0246623660999992000092818004+30130+031400SY-MT+0074HECA V0200101N002612200019N0100001N1+02401+01571101111ADDAA199000091GF100991001001999999001001KA1999M+02721MA1101081999999MD1210131+9999MW1001REMSYN064AAXX  28184 62366 32960 00105 10240 20157 40111 52013 333 10272;MET044HECA 281800 01005KT CAVOK 24/16 Q1011 NOSIG;EQDQ01+000000PRSWM2Q02  00002PRCP99
0097623660999992000100207004+30130+031400FM-15+0074HECA V0200201N00511220001CN0099001N1+02401+01501999999ADDMA1101391999999MW1001REMMET045HECA 020700Z 02010KT CAVOK 24/15 Q1014 NOSIG;EQDQ01+000000PRSWM2
0097623660999992000100310004+30130+031400FM-15+0074HECA V0200601N00621220001CN0099001N1+02901+01501999999ADDMA1101021999999MW1001REMMET045HECA 031000Z 06012KT CAVOK 29/15 Q1010 NOSIG;EQDQ01+000000PRSWM2
0164623660999992000100505004+30130+031400FM-15+0074HECA V0209999C000012200019N0040001N1+02201+02101999999ADDGA1021+007509999GF104991999999999999999999MA1101081999999MW1101REMMET054HECA 050500Z 00000KT 4000 BR SCT025 22/21 Q1011 NOSIG;EQDQ01+000003PRSWM1Q02    003PRSWM1
0097623660999992000101317004+30130+031400FM-15+0074HECA V0203401N00511220001CN0099001N1+02401+01601999999ADDMA1101191999999MW1001REMMET045HECA 131700Z 34010KT CAVOK 24/16 Q1012 NOSIG;EQDQ01+000000PRSWM2
0168623660999992000102313004+30130+031400FM-15+0074HECA V0203401N006710210019N0112651N1+02301+00901999999ADDGA1021+007509999GA2071+021009999GF107991999999999999999999MA1101591999999MW1001REMMET058HECA 231300Z 34013KT 9999 SCT025 BKN070 23/09 Q1016 NOSIG;EQDQ01+000000PRSWM2
0275623660999992000102412004+30130+031400SY-MT+0074HECA V0202701N008710360019N0100001N1+02161+00911101421ADDAA199000091GA1021+007509999GA2021+021009999GF106991031021008001071001MA1101391999999MD1610181+9999MW1001REMSYN060AAXX  24124 62366 32560 62717 10216 20091 40142 56018 83270;MET058HECA 241200Z 27017KT 9999 SCT025 SCT070 22/09 Q1014 NOSIG;EQDQ01+000000PRSWM2Q02  00002PRCP99
0145623660999992000102504004+30130+031400FM-15+0074HECA V0202401N006210075019N0112651N1+01501+01201999999ADDGA1071+007509999GF107991999999999999999999MA1101491999999MW1001REMMET051HECA 250400Z 24012KT 9999 BKN025 15/12 Q1015 NOSIG;EQDQ01+000000PRSWM2
0252623660999992000110203004+30130+031400SY-MT+0074HECA V0209999C000012200019N0030001N1+01661+01381101811ADDAA199000091AY101031AY201031GF100991001001999999001001MA1101801999999MD1710051+9999MW1101REMSYN060AAXX  02034 62366 31930 00000 10166 20138 40181 57005 71000;MET051HECA 020300Z 000)0KT 3000 BR SKC 17/14 Q1018 NOSIG;EQDQ01  00002PRCP99Q02    003PRSWM1
0080623660999992000110417304+30130+031400FM-15+0074HECA V0200601N00411220001CN0099001N1+02201+01301999999ADDMW1001REMMET043HECA 041730Z 06008KT CAVOK22/13 .-(0 NOSIG;EQDQ01+000000PRSWM2
0299623660999992000111309004+30130+031400SY-MT+0074HECA V0200101N003110075019N0020001N1+02191+01801101541ADDAA199000091AY141031AY241031GA1071+007509999GF199999051021008001001001MA1101491999999MD1810021+9999MW1101REMSYN066AAXX  13094 62366 31520 50106 10219 20180 40154 58002 71044 85200;MET060HECA 130900Z 01006KT 2000 BR BKN025 22/18 Q1015 BECMG 3000M;EQDQ01+000052SCOTCVQ02  00002PRCP99Q03    003PRSWM1
0150623660999992000111608004+30130+031400FM-15+0074HECA V0200201N003612200019N0040001N1+02201+01601999999ADDGF100991999999999999999999MA1101491999999MW1051REMMET056HECA 160800Z 02007KT 4000 HZ SKC 22/16 Q1015 BECMG 6000;EQDQ01+000003PRSWM1Q02    003PRSWM1
