0262071470999992000030402004+48770+002200SY-MT+0179LFPV V0203401N004112200019N0200001N1+00431+00221101811ADDAA199000021GA1021+003909999GF199999011011004501999999MA1101691099601MD1310321+9999MW1001REMSYN076AAXX  04024 07147 32470 13408 10043 20022 39960 40181 53032 811// 333 81813;MET045LFPV 040200Z 34009KT 9999 FEW013 04/02 Q1017;EQDQ01+000012SCOTCVQ02+000000PRSWM2
0131071470999992000030815004+48770+002200FM-12+0179LFPV V0202401N005119999999N0600001N1+01561+00691102841ADDAA199000091MA1999999100701MD1610131+9999REMSYN060AAXX  08154 07147 36/86 /2410 10156 20069 30070 40284 56013;EQDQ01  00002PRCP99
0291071470999992000031008004+48770+002200SY-MT+0179LFPV V0202901N004110018019N0050001N1+00971+00801103081ADDAA199000091GA1071+001809999GA2071+003609999GF107991071061001501999999MA1103011100891MD1310011+9999MW1001REMSYN082AAXX  10084 07147 32250 72908 10097 20080 30089 40308 53001 876// 333 85706 85612;MET052LFPV 100800Z 29008KT 5000 BKN006 BKN012 10/08 Q1030;EQDQ01+000000PRSWM2Q02  00002PRCP99
0316071470999992000031608004+48770+002200SY-MT+0179LFPV V0203101N003110006019N0025001N1+00371+00281103461ADDAA199000091AY121999AY221999GA1071+000609999GA2021+012009999GF108991071061000751999999MA1103291101211MD1110071+9999MW1101REMSYN088AAXX  16084 07147 31125 83106 10037 20028 30121 40346 51007 71022 876// 333 86702 84640;MET055LFPV 160800Z 31006KT 2500 BR BKN002 SCT040 04/03 Q1033;EQDQ01  00002PRCP99Q02    003PRSWM1
0112071470999992000031910004+48770+002200FM-12+0179LFPV V0200601N006219999999N0250001N1+00661+00151103291ADDAA199000021MA1999999101071MD1110111+9999REMSYN060AAXX  19104 07147 36/75 /0612 10066 20015 30107 40329 51011;
0241071470999992000032105004+48770+002200SY-MT+0179LFPV V0200601N003112200019N0150001N1+00411-00111102251ADDAA199000091GF102991001001999999001011MA1102101100031MD1610081+9999MW1001REMSYN076AAXX  21054 07147 32965 20606 10041 21011 30003 40225 56008 80001 333 82075;MET040LFPV 210500Z 06006KT CAVOK 04/M01 Q1021;EQDQ01+000000PRSWM2Q02  00002PRCP99
0304071470999992000032513004+48770+002200SY-MT+0179LFPV V0202101N005110084019N0200001N1+01101+00471101371ADDAA199000021GA1071+008409999GA2021+013809999GA3071+069009999GF107991061081008001001021MA1101291099221MD1810111+9999MW1001REMSYN088AAXX  25134 07147 32570 72110 10110 20047 39922 40137 58011 86802 333 85828 83646 87073;MET059LFPV 251300Z 22010KT 9999 BKN028 SCT046 BKN230 11/05 Q1013;EQDQ01+000000PRSWM2
0298071470999992000032609004+48770+002200SY-MT+0179LFPV V0202301N005110024019N0120001N1+00541+00391101121ADDAA103000491AY161031AY251031GA1071+002409999GF108991071071002501999999MA1101021098941MD1610071+9999MW1211REMSYN088AAXX  26094 07147 21362 82310 10054 20039 39894 40112 56007 72165 877// 333 69947 87708;MET053LFPV 260900Z 23010KT 180V250 9999 BKN008 05/04 Q1010;EQDQ01+000000PRSWM2Q02    003PRSWM1
0337071470999992000032617004+48770+002200SY-MT+0179LFPV V0202801N00211007501CN0120001N1+00491+00361100741ADDAA101001091AY181999AY271999GA1021+006309099GA2021+009309999GF107991071091008001999999MA1100611098561MD1510061+9999MW1271REMSYN094AAXX  26174 07147 21562 72804 10049 20036 39856 40074 55006 72787 879// 333 60015 82921 84831;MET070LFPV 261700Z 28005KT 9999 R27/1100VP1500U FEW021CB SCT031 05/04 Q1006;EQDQ01+000000PRSWM2Q02    003PRSWM1
0281071470999992000032916004+48770+002200SY-MT+0179LFPV V0203201N003110015019N0030001N1+00431+00361101081ADDAA101000491AY161999AY261999GA1071+001509999GF107991071071001501999999MA1101021098891MD1610051+9999MW1611REMSYN088AAXX  29164 07147 21230 73206 10043 20036 39889 40108 56005 76166 877// 333 69945 87705;MET052LFPV 291600Z 32005KT 3000 -RA BR BKN005 04/04 Q1010;EQDQ01    003PRSWM1
0341071470999992000032918004+48770+002200SY-MT+0179LFPV V0202801N002110009019N0013001N1+00461+00431101091ADDAA103001091AY161061AY251061ED199U15009GA1071+000909999GF107991071071000751999999KA1999M+00521KA2999N+00341MA1101021098901MD1310011+9999MW1101MW2511MW3581REMSYN106AAXX  29184 07147 /1113 72804 10046 20043 39890 40109 53001 60022 75865 877// 333 10052 20034 60017 87703;MET064LFPV 291800Z 28003KT 1300 R27/P1500 -DZRA BR BKN003 05/04 Q1010;
0263071470999992000040608004+48770+002200SY-MT+0179LFPV V0200401N005112200019N0150001N1+00331-00371102581ADDAA199000091GA1021+012309999GF103991031051012501001001MA1102401100351MD1110241+9999MW1001REMSYN076AAXX  06084 07147 32665 30410 10033 21037 30035 40258 51024 83500 333 83641;MET046LFPV 060800Z 04010KT 9999 SCT041 03/M04 Q1024;EQDQ01+000000PRSWM2Q02  00002PRCP99
0159071470999992000041905004+48770+002200FM-15+0179LFPV V0201901N002110006019N0050001N1+00901+00901999999ADDGA1081+000609999GF108991999999999999999999MA1100611999999MW1511REMMET049LFPV 190500Z 19004KT 5000 -DZ OVC002 09/09 Q1006;EQDQ01+000003PRSWM1Q02    003PRSWM1
0304071470999992000042110004+48770+002200SY-MT+0179LFPV V0202101N005110750019N0150001N1+01381+00781101671ADDAA199000021GA1021+007809999GA2021+024009999GA3071+075009999GF107991011011008001031021MA1101591099541MD1110081+9999MW1001REMSYN088AAXX  21104 07147 32565 72110 10138 20078 39954 40167 51008 81132 333 81826 83358 85075;MET059LFPV 211000Z 21009KT 9999 FEW026 SCT080 BKN250 14/08 Q1016;EQDQ01+000000PRSWM2
0292071470999992000050107004+48770+002200SY-MT+0179LFPV V0200301N00511000151CN0008001N1+01201+01141101991ADDAA199000091AY141999AY241999GA1091+000159999GF109991091999000151999999MA1101901099841MD1310071+9999MW1451MW2471REMSYN066AAXX  01074 07147 31/08 90310 10120 20114 39984 40199 53007 74744;MET063LFPV 010700Z 03010KT 0800 R27/1400VP1500U FG VV/// 12/11 Q1019;EQDQ01  00002PRCP99Q02    003PRSWM1
0131071470999992000050501004+48770+002200FM-12+0179LFPV V0200301N005119999999N0013001N1+01221+01171101481ADDAA199000091MA1999999099351MD1810091+9999REMSYN060AAXX  05014 07147 36/13 /0310 10122 20117 39935 40148 58009;EQDQ01  00002PRCP99
0099071470999992000051602304+48770+002200FM-15+0179LFPV V0201801N00211220001CN0099001N1+01701+01401999999ADDMA1101491999999MW1001REMMET047LFPV 160330Z 18004KT 140V210 CAVOK 17/14 Q1015;EQDQ01+000000PRSWM2
0278071470999992000052505004+48770+002200SY-MT+0179LFPV V0202201N005110015019N0100001N1+01381+01321101011ADDAA101000291AY161999AY221999GA1071+001509999GF108991071071001501999999MA1101021098901MD1510021+9999MW1611REMSYN088AAXX  25054 07147 21260 82210 10138 20132 39890 40101 55002 76162 877// 333 69925 87705;MET049LFPV 250500Z 22010KT 9999 -RA BKN005 14/13 Q1010;EQDQ01    003PRSWM1
0291071470999992000053115004+48770+002200SY-MT+0179LFPV V0201901N001010120019N0150001N1+01601+00971102131ADDAA199000091GA1021+008109999GA2071+012009999GF107991071051008001999999MA1102101100011MD1110011+9999MW1001REMSYN082AAXX  31154 07147 32565 71902 10160 20097 30001 40213 51001 875// 333 83627 87640;MET052LFPV 311500Z 21003KT 9999 SCT027 BKN040 16/09 Q1021;EQDQ01+000000PRSWM2Q02  00002PRCP99
0240071470999992000060205004+48770+002200SY-MT+0179LFPV V0200301N002112200019N0120001N1+01451+01371101821ADDAA199000091GF102991011001999999051011MA1101801099701MD1710041+9999MW1001REMSYN076AAXX  02054 07147 32962 20304 10145 20137 39970 40182 57004 81051 333 81360;MET039LFPV 020500Z 03003KT CAVOK 15/14 Q1018;EQDQ01+000000PRSWM2Q02  00002PRCP99
0315071470999992000060312004+48770+002200SY-MT+0179LFPV V0201901N002110360019N0120001N1+02381+01911101601ADDAA103999929AY181061AY261061GA1021+007809999GA2021+012009999GF107991031021008001071011MA1101591099551MD1810071+9999MW1801REMSYN100AAXX  03124 07147 /1562 71904 10238 20191 39955 40160 58007 69901 78086 83271 333 69907 81826 83840;MET058LFPV 031200Z 19004KT 9999 -SHRA FEW026 SCT040 24/19 Q1016;EQDQ01    003PRSWM1
0307071470999992000060422004+48770+002200SY-MT+0179LFPV V0203601N002110240019N0070001N1+01521+01251101921ADDAA101000691AY161999AY261999GA1021+009909999GA2071+024009999GF107991021051012501071001MA1101901099801MD1110051+9999MW1611REMSYN094AAXX  04224 07147 21657 73604 10152 20125 39980 40192 51005 76166 82570 333 69965 82633 87358;MET056LFPV 042200Z 36004KT 7000 -RA FEW033 BKN086 15/13 Q1019;EQDQ01    003PRSWM1
0189071470999992000060609004+48770+002200FM-12+0179LFPV V0202601N004110021019N0090001N1+01221+01041102341ADDAA199000091GA1071+002109069GF107991071061002501999999MA1999999100191MD1110141+9999REMSYN076AAXX  06094 07147 32359 72608 10122 20104 30019 40234 51014 876// 333 87707;EQDQ01  00002PRCP99
0232071470999992000060815004+48770+002200SY-MT+0179LFPV V0201201N005112200019N0250001N1+02381+00941101171ADDAA199000091GF100991001001999999001001MA1101191099121MD1610251+9999MW1001REMSYN060AAXX  08154 07147 32975 01210 10238 20094 39912 40117 56025;MET047LFPV 081500Z 12010KT 080V150 CAVOK 24/09 Q1012;EQDQ01+000000PRSWM2Q02  00002PRCP99
0339071470999992000061306004+48770+002200SY-MT+0179LFPV V0203101N00101220001CN0100001N1+01691+01511102691ADDAA124000091GA1071+004209999GA2021+075009999GJ106729IA2999+01109KA1999M+02211KA2999N+01351MA1102711100571MD1310011+9999MW1001REMSYN094AAXX  13064 07147 36/60 /3102 10169 20151 30057 40269 53001 333 10221 20135 3/011 55112 70000;MET052LFPV 130600Z 32003KT 9999 BKN014 SCT250 17/15 Q1027;EQDQ01+000042SCOTCVQ02+000000PRSWM2Q03  00002PRCP24
0200071470999992000062009004+48760+002190SY-MT+0179LFPV V0201901N005119999999Y0230001N1+02481+01301101401ADDAA103000591MA1101391099361MD1710021+9999MW1001REMSYN070AAXX  20094 07147 26/73 /1910 10248 20130 39936 40140 57002 333 69947;MET047LFPV 200900Z 19008KT 160V230 CAVOK 25/13 Q1014;EQDQ01+000000PRSWM2
0300071470999992000062718004+48760+002190SY-MT+0179LFPV V0200701N005119999999N0150001N1+02011+00251101781ADDAA199000091GA1011+042009039GF107991011001999999031021KA1999M+02061KA2999N+01261MA1101801099691MD1610161+9999MW1001REMSYN094AAXX  27184 07147 32965 70710 10201 20025 39969 40178 56016 81032 333 10206 20126 81364 87075;MET039LFPV 271800Z 06010KT CAVOK 20/03 Q1018;EQDQ01+000000PRSWM2Q02  00002PRCP99
0291071470999992000070208004+48760+002190SY-MT+0179LFPV V0201801N001010750019N0200001N1+02121+01511101081ADDAA199000091GA1021+013509999GA2071+075009999GF107991011051012501001011MA1101081099021MD1610011+9999MW1001REMSYN082AAXX  02084 07147 32670 71802 10212 20151 39902 40108 56001 81501 333 81645 86075;MET052LFPV 020800Z 19002KT 9999 FEW045 BKN250 21/15 Q1011;EQDQ01+000000PRSWM2Q02  00002PRCP99
0182071470999992000070303004+48760+002190SY-MT+0179LFPV V0202301N001019999999Y0120001N1+01451+01421101121ADDAA199000021MA1101081099011MD1210011+9999MW1001REMSYN060AAXX  03034 07147 36/62 /2302 10145 20142 39901 40112 52001;MET039LFPV 030300Z 00000KT CAVOK 15/14 Q1011;EQDQ01+000000PRSWM2
0315071470999992000070611004+48760+002190SY-MT+0179LFPV V0200901N002110093019N0150001N1+02291+01281101821ADDAA199000091GA1071+009309999GA2021+075009999GF199999051021008001001011MA1101801099761MD1610051+9999MW1001REMSYN082AAXX  06114 07147 32565 60904 10229 20128 39976 40182 56005 85201 333 85831 84075;MET060LFPV 061100Z 09004KT 040V160 9999 BKN031 SCT250 23/13 Q1018;EQDQ01+000062SCOTCVQ02+000000PRSWM2Q03  00002PRCP99
0299071470999992000070614004+48760+002190SY-MT+0179LFPV V0201301N003110600019N0150001N1+02401+01071101621ADDAA199000091GA1021+013809999GA2071+060009999GF107991041011012501001081MA1101691099571MD1710191+9999MW1001REMSYN082AAXX  06144 07147 32665 71306 10240 20107 39957 40162 57019 84108 333 83846 85270;MET060LFPV 061400Z 13005KT 070V180 9999 SCT046 BKN200 24/10 Q1017;EQDQ01+000000PRSWM2Q02  00002PRCP99
0309071470999992000070814004+48760+002190SY-MT+0179LFPV V0203101N00311015001CN0150001N1+01601+01051101931ADDAA101999929AY181999AY261999GA1021+011109999GA2021+018009999GF107991051081012501031999MA1101901099811MD1610051+9999MW1801REMSYN094AAXX  08144 07147 21665 73106 10160 20105 39981 40193 56005 78086 8583/ 333 69905 83837 84656;MET058LFPV 081400Z 30005KT 9999 -SHRA SCT037 SCT060 16/11 Q1019;EQDQ01    003PRSWM1
0246071470999992000070902004+48760+002190SY-MT+0179LFPV V0202301N003110300019N0100001N1+01111+00981101461ADDAA199000021GA1051+030009039GF107991051001999999071021MA1101391099321MD1810221+9999MW1001REMSYN082AAXX  09024 07147 32960 72306 10111 20098 39932 40146 58022 85072 333 85360 84075;MET039LFPV 090200Z 23006KT CAVOK 11/10 Q1014;EQDQ01+000000PRSWM2
0286071470999992000070907004+48760+002190SY-MT+0179LFPV V0202201N006210024019N0090001N1+01221+01141101041ADDAA101000691AY161999AY221999GA1071+002409999GF107991071071002501999999MA1101021098911MD1710251+9999MW1611REMSYN088AAXX  09074 07147 21359 72212 10122 20114 39891 40104 57025 76162 877// 333 69965 87708;MET057LFPV 090700Z 22010KT 180V260 9000 -RA BKN008 12/11 Q1010;EQDQ01    003PRSWM1
0173071470999992000072115004+48760+002190FM-12+0179LFPV V0200401N006212200019N0200001N1+02371+01241102141ADDAA199000091GA1001+999999999GF100991001001999999001001MA1999999100071MD1610151+9999REMSYN060AAXX  21154 07147 32970 00412 10237 20124 30007 40214 56015;EQDQ01  00002PRCP99
0262071470999992000072202004+48760+002190SY-MT+0179LFPV V0200301N005110021019N0060001N1+01391+01191102071ADDAA199000091GA1071+002109999GF107991071061002501999999MA1102001099941MD1610071+9999MW1001REMSYN076AAXX  22024 07147 32356 70310 10139 20119 39994 40207 56007 876// 333 87707;MET045LFPV 220200Z 03010KT 6000 BKN007 14/12 Q1020;EQDQ01+000000PRSWM2Q02  00002PRCP99
0275071470999992000072422004+48760+002190SY-MT+0179LFPV V0203001N003110060019N0080001N1+01561+01401100711ADDAA199000021GA1021+002409999GA2071+006009999GF108991071051002501999999MA1100711098621MD1110121+9999MW1001REMSYN082AAXX  24224 07147 32358 83006 10156 20140 39862 40071 51012 875// 333 84708 87620;MET052LFPV 242200Z 30007KT 8000 SCT008 BKN020 16/14 Q1007;EQDQ01+000000PRSWM2
0246071470999992000072807004+48760+002190SY-MT+0179LFPV V0203001N005110027019N0200001N1+01571+01371101651ADDAA199000021GA1071+002709999GF107991071061002501999999MA1101591099541MD1310151+9999MW1001REMSYN076AAXX  28074 07147 32370 73010 10157 20137 39954 40165 53015 876// 333 87709;MET045LFPV 280700Z 30010KT 9999 BKN009 16/14 Q1016;EQDQ01+000000PRSWM2
0328071470999992000072900004+48760+002190SY-MT+0179LFPV V0202301N002110210019N0150001N1+01511+01451101841ADDAA103003091AY191061AY281061GA1021+012909029GA2071+021009999GF107991061021012501001021MA1101801099721MD1010001+9999MW1011REMSYN100AAXX  29004 07147 /1665 72304 10151 20145 39972 40184 50000 60031 70198 86202 333 60037 82843 85657;MET055LFPV 290000Z 23003KT 9999 FEW043TCU BKN073 15/15 Q1018;EQDQ01+000000PRSWM2Q02    003PRSWM1
0352071470999992000082006004+48760+002190SY-MT+0179LFPV V0200301N002110006019N0040001N1+01561+01531999999ADDAA124002691GA1071+000609999GF108991999999000751999999GJ100369IA1019IA2999+01409KA1999M+01801KA2999N+01541MA1101291099171MW1101REMSYN117AAXX  20064 07147 11140 80304 10156 20153 39917 4127 56004 60012 71041 877// 333 10180 20154 30014 55006 70026 87702;MET056LFPV 200600Z 03004KT 360V070 4000 BR BKN002 16/15 Q1013;EQDQ01+000003PRSWM1Q02    003PRSWM1
0287071470999992000082104004+48760+002190SY-MT+0179LFPV V0202901N001010087019N0030001N1+01171+01141101621ADDAA199000091AY121999AY221999GA1071+008709999GF107991071051008001999999MA1101591099481MD1810031+9999MW1101REMSYN082AAXX  21044 07147 31530 72902 10117 20114 39948 40162 58003 71022 875// 333 87629;MET048LFPV 210400Z 29003KT 3000 BR BKN029 12/11 Q1016;EQDQ01  00002PRCP99Q02    003PRSWM1
0299071470999992000082112004+48760+002190SY-MT+0179LFPV V0202201N002110066019N0150001N1+01831+01271101521ADDAA199000091GA1071+006609999GA2071+018009999GF107991071081008001999999MA1101491099431MD1810091+9999MW1001REMSYN082AAXX  21124 07147 32565 72204 10183 20127 39943 40152 58009 878// 333 85822 86656;MET060LFPV 211200Z 22004KT 150V280 9999 BKN022 BKN060 18/12 Q1015;EQDQ01+000000PRSWM2Q02  00002PRCP99
0224071470999992000082222004+48760+002190SY-MT+0179LFPV V0200701N004112200019N0150001N1+01761+00921101891ADDAA199000091GF100991001001999999001001MA1101901099781MD1110041+9999MW1001REMSYN060AAXX  22224 07147 32965 00708 10176 20092 39978 40189 51004;MET039LFPV 222200Z 07008KT CAVOK 18/09 Q1019;EQDQ01+000000PRSWM2Q02  00002PRCP99
0275071470999992000082622004+48760+002190SY-MT+0179LFPV V0202901N00311009001CN0150001N1+01741+01681101291ADDAA199000021GA1021+004509999GA2021+018009999GF107991051081004501031999MA1101291099201MD1110091+9999MW1001REMSYN082AAXX  26224 07147 32465 72906 10174 20168 39920 40129 51009 8583/ 333 83815 84656;MET052LFPV 262200Z 29006KT 9999 SCT015 SCT060 17/17 Q1013;EQDQ01+000000PRSWM2
0290071470999992000082918004+48760+002190SY-MT+0179LFPV V0200501N00311220001CN0200001N1+02111+01061101791ADDAA199000091GF107991011051017501031021KA1999M+02291KA2999N+01391MA1101801099711MD1710091+9999MW1001REMSYN100AAXX  29184 07147 32770 70506 10211 20106 39971 40179 57009 81532 333 10229 20139 81650 83360 87075;MET039LFPV 291800Z 05006KT CAVOK 21/11 Q1018;EQDQ01+000000PRSWM2Q02  00002PRCP99
0256071470999992000090916004+48760+002190SY-MT+0179LFPV V0200501N002112200019N0200001N1+02261+01371102351ADDAA199000091GA1011+039009079GF102991011001999999031011MA1102401100271MD1610041+9999MW1001REMSYN076AAXX  09164 07147 32970 20504 10226 20137 30027 40235 56004 81031 333 81363;MET039LFPV 091600Z 05005KT CAVOK 23/14 Q1024;EQDQ01+000000PRSWM2Q02  00002PRCP99
0264071470999992000091112004+48760+002190SY-MT+0179LFPV V0201401N003110750019N0100001N1+02631+01621101481ADDAA199000091GA1051+075009019GF105991001001999999001021MA1101491099451MD1810151+9999MW1001REMSYN076AAXX  11124 07147 32960 51406 10263 20162 39945 40148 58015 80002 333 85075;MET047LFPV 111200Z 14005KT 090V180 CAVOK 26/16 Q1015;EQDQ01+000000PRSWM2Q02  00002PRCP99
0162071470999992000091408134+48760+002190FM-15+0179LFPV V0200101N003112200019N0112651N1+01701+01101999999ADDGA1021+012009999GA2021+075009999GF104991999999999999999999MA1101591999999MW1001REMMET052LFPV 140813Z 01006KT 9999 FEW040 SCT250 17/11 Q1016;EQDQ01+000000PRSWM2
0277071470999992000091803004+48760+002190SY-MT+0179LFPV V0209999C000012200019N0060001N1+01111+01051100991ADDAA199000091GA1021+003009999GF199999011001999999031001MA1100911098861MD1610151+9999MW1001REMSYN076AAXX  18034 07147 32956 10000 10111 20105 39886 40099 56015 81030 333 81361;MET044LFPV 180300Z 00000KT 6000 FEW10 11/11 Q1009;EQDQ01+000012SCOTCVQ02+000000PRSWM2Q03  00002PRCP99
0162071470999992000091811304+48760+002190FM-15+0179LFPV V0201811N028310138019N0112651N1+01901+01101999999ADDGA1021+007809999GA2071+013809999GF107991999999999999999999MA1100611999999MW1001REMMET052LFPV 181130Z 18155KT 9999 FEW026 BKN046 19/11 Q1006;EQDQ01+000000PRSWM2
0325071470999992000092118004+48760+002190SY-MT+0179LFPV V0201701N004110045019N0030001N1+01511+01401101851ADDAA103000491AY161061AY221061GA1081+004509999GF108991081051004501999999KA1999M+01941KA2999N+00761MA1101801099731MD1210081+9999MW1611REMSYN106AAXX  21184 07147 /1430 81708 10151 20140 39973 40185 52008 69962 76162 885// 333 10194 20076 69947 88615;MET052LFPV 211800Z 17007KT 3000 -RA BR OVC015 15/14 Q1018;EQDQ01    003PRSWM1
0284071470999992000092119004+48760+002190SY-MT+0179LFPV V0201601N003110033019N0050001N1+01501+01421101891ADDAA101000291AY161999AY261999GA1081+003309999GF108991081051004501999999MA1101901099771MD1310091+9999MW1601MW2611REMSYN088AAXX  21194 07147 21450 81606 10150 20142 39977 40189 53009 76066 885// 333 69925 88611;MET049LFPV 211900Z 16006KT 5000 -RA OVC011 15/14 Q1019;EQDQ01    003PRSWM1
0291071470999992000092202004+48760+002190SY-MT+0179LFPV V0202101N002110090019N0100001N1+01461+01381101981ADDAA199000021GA1021+003009999GA2071+009009999GF199999061051004501001001MA1101901099851MD1410001+9999MW1001REMSYN082AAXX  22024 07147 32460 62104 10146 20138 39985 40198 54000 86500 333 83710 86630;MET052LFPV 220200Z 21003KT 9999 SCT010 BKN030 15/14 Q1019;EQDQ01+000062SCOTCVQ02+000000PRSWM2
0307071470999992000092214004+48760+002190SY-MT+0179LFPV V0201801N003110180019N0200001N1+02141+01571102151ADDAA199000091GA1021+007809999GA2071+018009999GF199999061081008001001001MA1102201100071MD1810031+9999MW1001REMSYN082AAXX  22144 07147 32570 61806 10214 20157 30007 40215 58003 86800 333 82826 86656;MET052LFPV 221400Z 18006KT 9999 FEW026 BKN060 21/16 Q1022;EQDQ01+000062SCOTCVQ02+000000PRSWM2Q03  00002PRCP99
0224071470999992000092301004+48760+002190SY-MT+0179LFPV V0201001N001012200019N0100001N1+01521+01371102201ADDAA199000091GF100991001001999999001001MA1102201100071MD1710041+9999MW1001REMSYN060AAXX  23014 07147 32960 01002 10152 20137 30007 40220 57004;MET039LFPV 230100Z 10003KT CAVOK 15/14 Q1022;EQDQ01+000000PRSWM2Q02  00002PRCP99
0264071470999992000092314004+48760+002190SY-MT+0179LFPV V0201001N005110750019N0400001N1+02211+01241101641ADDAA199000091GA1061+075009019GF106991001001999999001011MA1101691099571MD1810251+9999MW1001REMSYN076AAXX  23144 07147 32982 61010 10221 20124 39957 40164 58025 80001 333 86075;MET047LFPV 231400Z 10009KT 060V140 CAVOK 22/12 Q1017;EQDQ01+000000PRSWM2Q02  00002PRCP99
0357071470999992000092818004+48760+002190SY-MT+0179LFPV V0202101N003110024019N0120001N1+01551+01441100291ADDAA103000491AY161061AY261061GA1071+002409999GA2081+018009999GF108991081081002501999999KA1999M+01571KA2999N+01341MA1100311098211MD1510071+9999MW1601MW2611REMSYN112AAXX  28184 07147 /1362 82106 10155 20144 39821 40029 55007 60032 76066 888// 333 10157 20134 69947 86808 88656;MET056LFPV 281800Z 21006KT 9999 -RA BKN008 OVC060 16/14 Q1003;EQDQ01    003PRSWM1
0320071470999992000100313004+48760+002190SY-MT+0179LFPV V0202001N00411030001CN0150001N1+01571+00841102201ADDAA199000091GA1021+009009999GA2021+024009999GA3071+030009999GF107991021011008001031999MA1102201100071MD1810111+9999MW1001REMSYN088AAXX  03134 07147 32565 72008 10157 20084 30007 40220 58011 8213/ 333 82830 83358 87360;MET059LFPV 031300Z 20007KT 9999 FEW030 SCT080 BKN100 16/09 Q1022;EQDQ01+000000PRSWM2Q02  00002PRCP99
0299071470999992000100512004+48760+002190SY-MT+0179LFPV V0202501N005110750019N0200001N1+01661+00811101861ADDAA199000021GA1021+013809999GA2071+075009999GF199999021021012501051011MA1101801099751MD1810051+9999MW1001REMSYN082AAXX  05124 07147 32670 52510 10166 20081 39975 40186 58005 82251 333 82846 85075;MET060LFPV 051200Z 25009KT 220V290 9999 FEW046 BKN250 17/07 Q1018;EQDQ01+000052SCOTCVQ02+000000PRSWM2
0344071470999992000100518004+48760+002190SY-MT+0179LFPV V0202801N003112200019N0200001N1+01051+00651102071ADDAA103999929AY161061AY211061GA1021+018009059GF102991021051017501999001KA1999M+01661KA2999N+01051MA1102001099911MD1310111+9999MW1011REMSYN106AAXX  05184 07147 /1770 22806 10105 20065 39991 40207 53011 69902 70161 82500 333 10166 20105 69907 82656;MET039LFPV 051800Z 28007KT CAVOK 11/07 Q1020;EQDQ01+000002SCOMCGQ02+000000PRSWM2Q03    003PRSWM1
0281071470999992000101115004+48760+002190SY-MT+0179LFPV V0202101N009812200019N0150001N1+01321+00541098531ADDAA199000021GA1021+010509999GA2021+015009999GF103991031041012501001001MA1098511096461MD1310031+9999MW1001REMSYN088AAXX  11154 07147 32665 32119 10132 20054 39646 49853 53003 83400 333 81835 83650 91131;MET052LFPV 111500Z 21019KT 9999 FEW035 SCT050 13/05 Q0985;EQDQ01+000000PRSWM2
0257071470999992000101210004+48760+002190SY-MT+0179LFPV V0202001N007210048019N0600001N1+01141+00791099441ADDAA199000091GA1071+004809999GF107991999999999999999999MA1099391097341MD1310121+9999MW1001OC101131REMSYN060AAXX  12104 07147 36/86 /2014 10114 20079 39734 49944 53012;MET048LFPV 121000Z 20012G22KT 9999 BKN016 11/08 Q0994;EQDQ01+000000PRSWM2Q02  00002PRCP99
0262071470999992000101417004+48760+002190SY-MT+0179LFPV V0203601N003110300019N0070001N1+01121+00961101601ADDAA199000091GA1071+030009999GF107991071001999999071999MA1101491099451MD1510031+9999MW1001REMSYN076AAXX  14174 07147 32957 73606 10112 20096 39945 40160 55003 8707/ 333 87360;MET045LFPV 141700Z 36005KT 7000 BKN100 11/10 Q1015;EQDQ01+000000PRSWM2Q02  00002PRCP99
0256071470999992000102303004+48760+002190SY-MT+0179LFPV V0201801N003112200019N0100001N1+01221+01081102201ADDAA199000091GA1021+039009079GF102991021001999999031001MA1102101100051MD1710071+9999MW1001REMSYN076AAXX  23034 07147 32960 21806 10122 20108 30005 40220 57007 82030 333 82363;MET039LFPV 230300Z 18005KT CAVOK 12/11 Q1021;EQDQ01+000000PRSWM2Q02  00002PRCP99
0299071470999992000102513004+48760+002190SY-MT+0179LFPV V0202201N005110036019N0150001N1+01401+01171101351ADDAA199000091GA1071+003609999GA2081+006009999GF108991081081004501999999MA1101291099231MD1810111+9999MW1001REMSYN082AAXX  25134 07147 32465 82210 10140 20117 39923 40135 58011 888// 333 85812 88620;MET060LFPV 251300Z 22010KT 180V250 9999 BKN012 OVC020 14/12 Q1013;EQDQ01+000000PRSWM2Q02  00002PRCP99
0246071470999992000102603004+48760+002190SY-MT+0179LFPV V0202501N003110138019N0150001N1+00961+00771101571ADDAA199000021GA1071+013809999GF107991071051012501999999MA1101491099411MD1110041+9999MW1001REMSYN076AAXX  26034 07147 32665 72506 10096 20077 39941 40157 51004 875// 333 87646;MET045LFPV 260300Z 25005KT 9999 BKN046 10/08 Q1015;EQDQ01+000000PRSWM2
0198071470999992000102619004+48760+002190SY-MT+0179LFPV V0202701N005119999999Y0500001N1+01051+00681101971ADDAA199000091MA1101901099811MD1310101+9999MW1001REMSYN060AAXX  26194 07147 36/84 /2710 10105 20068 39981 40197 53010;MET039LFPV 261900Z 27009KT CAVOK 11/07 Q1019;EQDQ01+000000PRSWM2Q02  00002PRCP99
0256071470999992000110516004+48760+002190SY-MT+0179LFPV V0201301N007210240019N0200001N1+01041+00411099771ADDAA199000091GA1071+024009019GF107991071001022501071999MA1099701097651MD1810621+9999MW1001REMSYN076AAXX  05164 07147 32870 71314 10104 20041 39765 49977 58062 8707/ 333 87458;MET039LFPV 051600Z 13013KT CAVOK 10/04 Q0997;EQDQ01+000000PRSWM2Q02  00002PRCP99
0198071470999992000111114004+48760+002190SY-MT+0179LFPV V0201901N006219999999Y0400001N1+01011+00551101691ADDAA199000091MA1101591099531MD1710251+9999MW1001REMSYN060AAXX  11144 07147 36/82 /1912 10101 20055 39953 40169 57025;MET039LFPV 111400Z 19010KT CAVOK 10/06 Q1016;EQDQ01+000000PRSWM2Q02  00002PRCP99
0278071470999992000112908004+48760+002190SY-MT+0179LFPV V0201401N004110750019N0200001N1+01041+00731100791ADDAA199000091GA1041+039009079GA2051+075009019GF106991041001999999071021MA1100711098651MD1610021+9999MW1001REMSYN082AAXX  29084 07147 32970 61408 10104 20073 39865 40079 56002 84072 333 84363 85075;MET039LFPV 290800Z 14008KT CAVOK 10/07 Q1007;EQDQ01+000000PRSWM2Q02  00002PRCP99
0131071470999992000120102004+48760+002190FM-12+0179LFPV V0201601N005119999999N0400001N1+01131+00851100971ADDAA199000091MA1999999098841MD1810101+9999REMSYN060AAXX  01024 07147 36/82 /1610 10113 20085 39884 40097 58010;EQDQ01  00002PRCP99
0291071470999992000121319004+48760+002190SY-MT+0179LFPV V0202201N006210108019N0100001N1+01051+00831101711ADDAA199000091GA1021+003909999GA2071+010809999GF107991071081004501999999MA1101591099561MD1310011+9999MW1001REMSYN082AAXX  13194 07147 32460 72212 10105 20083 39956 40171 53001 878// 333 84813 87636;MET052LFPV 131900Z 22010KT 9999 SCT013 BKN036 11/08 Q1016;EQDQ01+000000PRSWM2Q02  00002PRCP99
0291071470999992000121322004+48760+002190SY-MT+0179LFPV V0202201N007210048019N0100001N1+00981+00771101681ADDAA199000091GA1071+004809999GA2071+069009999GF107991061051004501001011MA1101591099521MD1810041+9999MW1001REMSYN082AAXX  13224 07147 32460 72214 10098 20077 39952 40168 58004 86501 333 86616 86073;MET052LFPV 132200Z 22013KT 9999 BKN016 BKN230 10/08 Q1016;EQDQ01+000000PRSWM2Q02  00002PRCP99
0302071470999992000121811004+48760+002190SY-MT+0179LFPV V0202001N003110003019N0009001N1+00821+00791101611ADDAA101999929AY151999AY241999GA1081+000309999GF108991081071000751999999MA1101491099441MD1010101+9999MW1501MW2511REMSYN088AAXX  18114 07147 21109 82006 10082 20079 39944 40161 50010 75054 887// 333 69905 88701;MET067LFPV 181100Z 20006KT 0900 R27/1000V1200U -DZ FG OVC001 08/08 Q1015;EQDQ01    003PRSWM1
0162071470999992000122010414+48760+002190FM-15+0179LFPV V0201001N004110750019N0080001N1+00601+00501999999ADDGA1021+001809999GA2071+075009999GF107991999999999999999999MA1101391999999MW1001REMMET052LFPV 201041Z 10008KT 8000 SCT006 BKN250 06/05 Q1014;EQDQ01+000000PRSWM2
0314071470999992000122700004+48760+002190SY-MT+0179LFPV V0200401N002110003019N0014001N1+00401+00371098611ADDAA103000491AY161061AY251061ED199U15009GA1081+000309999GF108991081061000751999999MA1098511096471MD1810081+9999MW1501MW2511REMSYN094AAXX  27004 07147 /1114 80404 10040 20037 39647 49861 58008 69961 75065 886// 333 69947 88701;MET062LFPV 270000Z 04003KT 1400 R27/P1500 -DZ BR OVC001 04/04 Q0985;EQDQ01    003PRSWM1
0331071470999992000122718004+48760+002190SY-MT+0179LFPV V0203301N005110006019N0020001N1+00131+00101099261ADDAA103999929AY151061AY221061GA1081+000609999GF108991081071000751999999KA1999M+00331KA2999N+00131MA1099091097081MD1210211+9999MW1501MW2511REMSYN106AAXX  27184 07147 /1120 83310 10013 20010 39708 49926 52021 60022 75052 887// 333 10033 20013 69907 88702;MET052LFPV 271800Z 33009KT 2000 -DZ BR OVC002 01/01 Q0991;EQDQ01    003PRSWM1
0263071470999992000122809004+48760+002190SY-MT+0179LFPV V0202301N005110078019N0150001N1+00171-00071099991ADDAA199000091GA1071+007809999GF107991071051008001001001MA1099901097801MD1510011+9999MW1001REMSYN076AAXX  28094 07147 32565 72310 10017 21007 39780 49999 55001 87500 333 87626;MET046LFPV 280900Z 23009KT 9999 BKN026 02/M01 Q0999;EQDQ01+000000PRSWM2Q02  00002PRCP99
0345071470999992000123002004+48760+002190SY-MT+0179LFPV V0203101N003110054019N0005001N1-00121-00161100221ADDAA199000021AY141999AY221999ED199U15009GA1021+000309999GA2071+005409999GF199999051051000751001001MA1100101098001MD1210051+9999MW1441MW2461REMSYN088AAXX  30024 07147 31105 53106 11012 21016 39800 40022 52005 74642 85500 333 83701 85618;MET067LFPV 300200Z 31006KT 0500 R27/P1500 FG SCT001 BKN018 M01/M02 Q1001;EQDQ01+000052SCOTCVQ02    003PRSWM1
0264071470999992000123005004+48760+002190SY-MT+0179LFPV V0203101N00311000151CN0003001N1-00101-00101999999ADDAA199000021ED199U09009GA1091+000159999GF109991091999000151999999MA1100101999999MW1491REMSYN065AAXX  30054 07147 31/03 93106 11011 1014 39808 40030 53008 74944;MET061LFPV 300500Z 31006KT 0300 R27/0900N FZFG VV/// M01/M01 Q1001;EQDQ01+000003PRSWM1Q02    003PRSWM1
0140071470999992000123014304+48760+002190FM-15+0179LFPV V0203101N005112200019N0112651N1+00301-00101999999ADDGA1021+006909999GF102991999999999999999999MA1100811999999MW1001REMMET046LFPV 301430Z 31010KT 9999 FEW023 03/M01 Q1008;EQDQ01+000000PRSWM2
0226071470999992000123023004+48760+002190SY-MT+0179LFPV V0203101N004112200019N0150001N1-00031-00141101741ADDAA199000091GF100991001001999999001001MA1101591099501MD1310181+9999MW1001REMSYN060AAXX  30234 07147 32965 03108 11003 21014 39950 40174 53018;MET041LFPV 302300Z 31008KT CAVOK M00/M01 Q1016;EQDQ01+000000PRSWM2Q02  00002PRCP99
0273071490999992000011604004+48730+002400SY-MT+009699999V0200401N005112200019N0080001N1+00001-00321103621ADDAA199000091GA1021+008409999GF103991031051008001001001MA1103491102461MD1010021+9999MW1001REMSYN080    AAXX  16044 07149 32558 30410 10000 21032 30246 40362 50002 83500 333 83628;MET052LFPO 160400Z 04010KT 8000 SCT028 00/M03 Q1035 NOSIG;EQDQ01+000000PRSWM2Q02  00002PRCP99
0276071490999992000011922004+48730+002400SY-MT+0096LFPO V0200301N003110132019N0130001N1+00431+00151103581ADDAA199000091GA1081+013209999GF108991081051012501999999MA1103491102441MD1210031+9999MW1001REMSYN076AAXX  19224 07149 32663 80306 10043 20015 30244 40358 52003 885// 333 88644;MET059LFPO 192200Z 03006KT 360V070 9999 OVC044 04/02 Q1035 NOSIG;EQDQ01+000000PRSWM2Q02  00002PRCP99
0275071490999992000012317004+48730+002400SY-MT+0096LFPO V0203501N006210048019N0150001N1+00341+00161102081ADDAA199000021GA1071+004809999GF199999051021004501001001MA1102001100961MD1310161+9999MW1001REMSYN076AAXX  23174 07149 32465 53512 10034 20016 30096 40208 53016 85200 333 85816;MET058LFPO 231700Z 35011KT 9999 BKN016 03/02 Q1020 TEMPO BKN012;EQDQ01+000052SCOTCVQ02+000000PRSWM2
0314071490999992000012410004+48730+002400SY-MT+0096LFPO V0200801N004110045019N0080001N1+00011-00201102341ADDAA199000091GA1021+003009999GA2071+004509999GF199999061081004501001001MA1102201101201MD1310071+9999MW1001REMSYN082AAXX  24104 07149 32458 60808 10001 21020 30120 40234 53007 86800 333 83810 85615;MET059LFPO 241000Z 08007KT 8000 SCT010 BKN015 00/M02 Q1022 NOSIG;EQDQ01+000062SCOTCVQ02+000000PRSWM2Q03  00002PRCP99
0392071490999992000020106004+48730+002400SY-MT+0096LFPO V0202101N004110030019N0080001N1+00771+00631102331ADDAA112000191AA224000291AY151061AY221061GA1021+002709999GA2071+003009999GF108991071051002501999999IA1099KA1999M+00881KA2999N+00771MA1102301101221MD1810151+9999MW1031REMSYN118AAXX  01064 07149 11358 82108 10077 20063 30122 40233 58015 69922 70352 875// 333 10088 20077 31/// 70002 84709 87710;MET058LFPO 010600Z 21007KT 8000 SCT009 BKN010 08/06 Q1023 NOSIG;EQDQ01+000000PRSWM2Q02    003PRSWM1
0262071490999992000020419004+48730+002400SY-MT+0096LFPO V0201801N002110750019N0100001N1+00511+00301103641ADDAA199000091GA1071+075009019GF107991001001999999001021MA1103591102511MD1010031+9999MW1001REMSYN076AAXX  04194 07149 32960 71804 10051 20030 30251 40364 50003 80002 333 87075;MET045LFPO 041900Z 18004KT CAVOK 05/03 Q1036 NOSIG;EQDQ01+000000PRSWM2Q02  00002PRCP99
0297071490999992000020501004+48730+002400SY-MT+0096LFPO V0201701N001010750019N0080001N1+00371+00221103531ADDAA199000091GA1021+030009999GA2071+075009999GF107991041001999999031021MA1103391102391MD1610091+9999MW1001REMSYN082AAXX  05014 07149 32958 71702 10037 20022 30239 40353 56009 84032 333 84360 87075;MET058LFPO 050100Z 17003KT 8000 SCT100 BKN250 04/02 Q1034 NOSIG;EQDQ01+000000PRSWM2Q02  00002PRCP99
0230071490999992000020922004+48730+002400SY-MT+0096LFPO V0202201N004112200019N0220001N1+00431+00251103021ADDAA199000091GF100991001001999999001001MA1102911101891MD1810071+9999MW1001REMSYN060AAXX  09224 07149 32972 02208 10043 20025 30189 40302 58007;MET045LFPO 092200Z 22008KT CAVOK 04/03 Q1029 NOSIG;EQDQ01+000000PRSWM2Q02  00002PRCP99
0319071490999992000021217004+48730+002400SY-MT+0096LFPO V0202301N008210045019N0080001N1+00661+00461102471ADDAA101000291AY161999AY261999GA1071+004509999GA2071+006309999GF108991071081004501999999MA1102401101361MD1610041+9999MW1601MW2611REMSYN094AAXX  12174 07149 21458 82316 10066 20046 30136 40247 56004 76066 878// 333 69925 85815 87621;MET062LFPO 121700Z 23016KT 8000 -RA BKN015 BKN021 07/05 Q1024 NOSIG;EQDQ01    003PRSWM1
0325071490999992000021219004+48730+002400SY-MT+0096LFPO V0202401N007210042019N0120001N1+00681+00531102511ADDAA101000291AY161999AY221999GA1021+003609999GA2071+004209999GF108991071081004501999999MA1102401101401MD1210031+9999MW1211REMSYN094AAXX  12194 07149 21462 82414 10068 20053 30140 40251 52003 72162 878// 333 69925 83812 86614;MET058LFPO 121900Z 24014KT 9999 SCT012 BKN014 07/05 Q1024 NOSIG;EQDQ01+000000PRSWM2Q02    003PRSWM1
0281071490999992000021908004+48730+002400SY-MT+0096LFPO V0202801N005112200019N0250001N1+00661+00431101131ADDAA199000021GA1021+004809999GA2021+012009999GF104991041081004501001001MA1101081100031MD1310171+9999MW1001REMSYN082AAXX  19084 07149 32475 42810 10066 20043 30003 40113 53017 84800 333 82816 83640;MET058LFPO 190800Z 28010KT 9999 FEW016 SCT040 07/04 Q1011 NOSIG;EQDQ01+000000PRSWM2
0335071490999992000022401004+48730+002400SY-MT+0096LFPO V0202301N006210012019N0028001N1+00821+00781102611ADDAA101000291AY151999AY251999GA1021+000909999GA2071+001209999GF108991081071000751999999MA1102511101501MD1510031+9999MW1511REMSYN094AAXX  24014 07149 21128 82312 10082 20078 30150 40261 55003 75155 887// 333 69925 83703 87704;MET084LFPO 240100Z 23011KT 2800 -DZ BR SCT003 BKN004 08/08 Q1025 TEMPO 6000 BKN007 BKN015;EQDQ01    003PRSWM1
0269071490999992000022411004+48730+002400SY-MT+0096LFPO V0202501N006210024019N0112651N1+01081+00961102691ADDAA101000791GA1071+002409999GA2071+003009999GF107991999999999999999999MA1102611101591MD1010041+9999MW1001REMSYN070AAXX  24114 07149 26/// /2512 10108 20096 30159 40269 50004 333 69905;MET058LFPO 241100Z 24012KT 9999 BKN008 BKN010 11/10 Q1026 NOSIG;EQDQ01+000000PRSWM2
0342071490999992000022911004+48730+002400SY-MT+0096LFPO V0202001N009810036019N0120001N1+00661+00541101151ADDAA101000491AY161999AY261999GA1021+002709999GA2071+003609999GA3071+008709999GF108991071051002501999999MA1101081100051MD1810441+9999MW1611REMSYN100AAXX  29114 07149 21362 82019 10066 20054 30005 40115 58044 76166 875// 333 69945 83709 86612 87629;MET069LFPO 291100Z 20019KT 9999 -RA SCT009 BKN012 BKN029 07/05 Q1011 NOSIG;EQDQ01    003PRSWM1
0233071490999992000030608004+48730+002400SY-MT+0096LFPO V0202001N001012200019N0090001N1+00101+00031103341ADDAA199000091GF100991001001999999001001MA1103181102191MD1310011+9999MW1001REMSYN060AAXX  06084 07149 32959 02002 10010 20003 30219 40334 53001;MET048LFPO 060800Z 20002KT 9000 SKC 01/00 Q1032 NOSIG;EQDQ01+000000PRSWM2Q02  00002PRCP99
0231071490999992000030614004+48730+002400SY-MT+0096LFPO V0202301N001012200019N0300001N1+01031-00271103021ADDAA199000091GF100991001001999999001001MA1103011101911MD1810201+9999MW1001REMSYN060AAXX  06144 07149 32980 02302 10103 21027 30191 40302 58020;MET046LFPO 061400Z VRB01KT CAVOK 10/M03 Q1030 NOSIG;EQDQ01+000000PRSWM2Q02  00002PRCP99
0246071490999992000031310004+48730+002400SY-MT+0096LFPO V0202701N002112200019N0120001N1+01101+00351102821ADDAA199000091GF101991001001999999001011MA1102811101721MD1010031+9999MW1001REMSYN076AAXX  13104 07149 32962 12704 10110 20035 30172 40282 50003 80001 333 81075;MET045LFPO 131000Z 27003KT CAVOK 11/04 Q1028 NOSIG;EQDQ01+000000PRSWM2Q02  00002PRCP99
0263071490999992000032117004+48730+002400SY-MT+0096LFPO V0201301N004112200019N0200001N1+01471-00141101811ADDAA199000091GA1041+075009019GF104991001001999999001011MA1101801100731MD1610091+9999MW1001REMSYN076AAXX  21174 07149 32970 41308 10147 21014 30073 40181 56009 80001 333 84075;MET046LFPO 211700Z 13007KT CAVOK 15/M01 Q1018 NOSIG;EQDQ01+000000PRSWM2Q02  00002PRCP99
0265071490999992000032500004+48730+002400SY-MT+0096LFPO V0202201N005110084019N0112651N1+00991+00801101381ADDAA106000191GA1021+004209999GA2071+008409999GF107991999999999999999999MA1101291100291MD1110061+9999MW1001REMSYN066AAXX  25004 07149 16/// /2210 10099 20080 30029 40138 51006 69921;MET058LFPO 250000Z 22009KT 9999 SCT014 BKN028 10/08 Q1013 NOSIG;EQDQ01+000000PRSWM2
0293071490999992000033013004+48730+002400SY-MT+0096LFPO V0202701N005110075019N0080001N1+00771+00471101231ADDAA199000021GA1021+004209999GA2071+007509999GF108991071081004501999999MA1101191100131MD1210021+9999MW1001REMSYN082AAXX  30134 07149 32458 82710 10077 20047 30013 40123 52002 878// 333 81814 87625;MET070LFPO 301300Z 27010KT 8000 FEW014 BKN025 08/05 Q1012 TEMPO 3000 BKN008;EQDQ01+000000PRSWM2
0362071490999992000041316004+48730+002400SY-MT+0096LFPO V0202601N00871075001CN0250001N1+01021+00481099691ADDAA101999929AY181999AY261999GA1021+005409099GA2021+009009999GA3071+075009999GF199999051031004501001021MA1099591098621MD1310081+9999MW1801REMSYN100AAXX  13164 07149 21475 62617 10102 20048 39862 49969 53008 78086 85302 333 69905 83918 83830 85075;MET073LFPO 131600Z 26017KT 9999 -SHRA SCT018CB SCT030 BKN250 10/05 Q0996 NOSIG;EQDQ01+000062SCOTCVQ02    003PRSWM1
0361071490999992000041408004+48730+002400SY-MT+0096LFPO V0202101N005110042019N0170001N1+00661+00461100101ADDAA101999929AY161999AY221999GA1021+002709999GA2071+004209999GA3071+006009999GF108991071081002501999999MA1100001099011MD1110111+9999MW1211REMSYN100AAXX  14084 07149 21367 82110 10066 20046 39901 40010 51011 72162 878// 333 69905 84809 85614 87620;MET072LFPO 140800Z 21009KT 9999 SCT009 BKN014 BKN020 07/05 Q1000 TEMPO BKN008;EQDQ01+000000PRSWM2Q02    003PRSWM1
0325071490999992000041512004+48730+002400SY-MT+0096LFPO V0202201N013910063019N0250001N1+00871+00431099351ADDAA103000291AY181061AY261061GA1071+006309999GF107991071051008001999999MA1099291098281MD1110091+9999MW1011OC102211REMSYN106AAXX  15124 07149 /1575 72227 10087 20043 39828 49935 51009 69921 70186 875// 333 69927 87621 91045 91145;MET054LFPO 151200Z 22028G43KT 9999 BKN021 09/04 Q0993 NOSIG;EQDQ01+000000PRSWM2Q02    003PRSWM1
0329071490999992000050212004+48730+002400SY-MT+0096LFPO V0200301N005110024019N0035001N1+01391+01181101981ADDAA199000091AY121061AY221061GA1071+002409999GA2071+002709999GF107991071061002501999999MA1101901100901MD1810011+9999MW1101REMSYN088AAXX  02124 07149 31335 70310 10139 20118 30090 40198 58001 71022 876// 333 86708 87709;MET068LFPO 021200Z 03010KT 3500 BR BKN008 BKN009 14/12 Q1019 BECMG BKN010;EQDQ01  00002PRCP99Q02    003PRSWM1
0327071490999992000050304004+48730+002400SY-MT+0096LFPO V0200201N004110009019N0015001N1+01081+01031101871ADDAA101999929AY151999AY251999GA1021+000609999GA2081+000909999GF108991081071000751999999MA1101801100781MD1810051+9999MW1501MW2511REMSYN094AAXX  03044 07149 21115 80208 10108 20103 30078 40187 58005 75055 887// 333 69905 84702 88703;MET070LFPO 030400Z 02007KT 1500 -DZ BR SCT002 OVC003 11/10 Q1018 TEMPO 1200;EQDQ01    003PRSWM1
0187071490999992000050712154+48730+002400FM-16+0096LFPO V0201301N001512200019N0112651N1+02101+01501999999ADDGA1021+006909099GA2021+009009999GF104991999999999999999999MA1101391999999MW1001REMMET077LFPO 071215Z 13003KT 9999 FEW023CB SCT030 21/15 Q1014 TEMPO 4000 TSRA RMK B8;EQDQ01+000000PRSWM2
0281071490999992000051908004+48730+002400SY-MT+0096LFPO V0202501N006210144019N0200001N1+01111+00761101331ADDAA199000021GA1021+004809999GA2071+014409999GF107991071081004501999999MA1101291100251MD1010011+9999MW1001REMSYN082AAXX  19084 07149 32470 72512 10111 20076 30025 40133 50001 878// 333 84816 87648;MET058LFPO 190800Z 25012KT 9999 SCT016 BKN048 11/08 Q1013 NOSIG;EQDQ01+000000PRSWM2
0297071490999992000052222004+48730+002400SY-MT+0096LFPO V0202301N004110150019N0250001N1+01391+00951102031ADDAA199000091GA1021+012009999GA2071+015009999GF107991071081012501999999MA1102001100951MD1110051+9999MW1001REMSYN082AAXX  22224 07149 32675 72308 10139 20095 30095 40203 51005 878// 333 81840 87650;MET058LFPO 222200Z 23007KT 9999 FEW040 BKN050 14/10 Q1020 NOSIG;EQDQ01+000000PRSWM2Q02  00002PRCP99
0176071490999992000052511004+48730+002400FM-12+0096LFPO V0202901N007210075019N0250001N1+01401+00861101571ADDAA199000021GA1061+007509089GF107991071081008001999999MA1999999100491MD1110301+9999REMSYN082AAXX  25114 07149 32575 72914 10140 20086 30049 40157 51030 878// 333 86825 86650;
0274071490999992000052608004+48730+002400SY-MT+0096LFPO V0201301N003110300019N0180001N1+01481+00831101481ADDGA1021+014409999GA2071+030009999GF199999031051012501031001MA1101391100411MW1001REMSYN076AAXX  26084 07149 42668 61306 10148 20083 30041 40148 83530 333 83648 85360;MET066LFPO 260800Z 13005KT 090V160 9999 SCT048 BKN100 15/08 Q1014 NOSIG;EQDQ01+000062SCOTCVQ02+000000PRSWM2
0297071490999992000060310004+48730+002400SY-MT+0096LFPO V0202201N002110300019N0080001N1+02431+01891101691ADDAA199000091GA1071+030009999GA2021+075009999GF107991051001999999081021MA1101691100651MD1410001+9999MW1001REMSYN082AAXX  03104 07149 32958 72204 10243 20189 30065 40169 54000 85082 333 85360 84075;MET058LFPO 031000Z 22003KT 8000 BKN100 SCT250 24/19 Q1017 NOSIG;EQDQ01+000000PRSWM2Q02  00002PRCP99
0284071490999992000061608004+48730+002400SY-MT+0096LFPO V0200601N003112200019N0120001N1+01891+01401102731ADDAA199000091GA1021+003909999GF102991011081004501001011MA1102711101661MD1110061+9999MW1001REMSYN076AAXX  16084 07149 32462 20606 10189 20140 30166 40273 51006 81801 333 81813;MET067LFPO 160800Z 06005KT 9999 R07/1400VP1500N FEW013 19/14 Q1027 NOSIG;EQDQ01+000000PRSWM2Q02  00002PRCP99
0238071490999992000061716004+48730+002400SY-MT+0096LFPO V0201101N004112200019N0250001N1+02521+00591102631ADDAA199000091GF100991001001999999001001MA1102611101581MD1610141+9999MW1001REMSYN060AAXX  17164 07149 32975 01108 10252 20059 30158 40263 56014;MET053LFPO 171600Z 11008KT 080V160 CAVOK 25/06 Q1026 NOSIG;EQDQ01+000000PRSWM2Q02  00002PRCP99
0246071490999992000062107004+48730+002400SY-MT+0096LFPO V0202001N004119999999N0160001N1+02031+01401101541ADDAA199000091GF105991051001999999031001MA1101491100491MD1010051+9999MW1001REMSYN076AAXX  21074 07149 32966 52008 10203 20140 30049 40154 50005 85030 333 85360;MET045LFPO 210700Z 20007KT CAVOK 20/14 Q1015 NOSIG;EQDQ01+000000PRSWM2Q02  00002PRCP99
0399071490999992000071118004+48730+002400SY-MT+0096LFPO V0203101N001010150019N0180001N1+01271+01061100871ADDAA103002091AY191061AY281061GA1021+003009999GA2021+008409099GA3071+015009999GF108991071091004501999999KA1999M+01731KA2999N+01131MA1100811099801MD1110271+9999MW1611MW2911REMSYN118AAXX  11184 07149 /1468 83102 10127 20106 39980 40087 51027 60052 79198 879// 333 10173 20113 60027 82810 81928 87650;MET076LFPO 111800Z 31002KT 9999 -RA FEW010 FEW028CB BKN050 13/11 Q1008 RETS NOSIG;EQDQ01    003PRSWM1
0297071490999992000071702004+48730+002400SY-MT+0096LFPO V0203601N001010210019N0200001N1+01011+00871101961ADDAA199000091GA1021+012009999GA2071+021009999GF107991061051012501031999MA1101901100871MD1510001+9999MW1001REMSYN082AAXX  17024 07149 32670 73602 10101 20087 30087 40196 55000 8653/ 333 83640 85657;MET058LFPO 170200Z 36002KT 9999 SCT040 BKN070 10/09 Q1019 NOSIG;EQDQ01+000000PRSWM2Q02  00002PRCP99
0300071490999992000072118004+48730+002400SY-MT+0096LFPO V0200601N004112200019N0300001N1+02271+01111102101ADDAA199000091GA1011+078009019GF101991001001999999001011KA1999M+02451KA2999N+01621MA1102101101051MD1610061+9999MW1001REMSYN088AAXX  21184 07149 32980 10608 10227 20111 30105 40210 56006 80001 333 10245 20162 81076;MET045LFPO 211800Z 06008KT CAVOK 23/11 Q1021 NOSIG;EQDQ01+000000PRSWM2Q02  00002PRCP99
0262071490999992000072121004+48730+002400SY-MT+0096LFPO V0200501N006212200019N0230001N1+01821+01291102121ADDAA199000091GA1011+078009019GF101991001001999999001011MA1102101101061MD1310011+9999MW1001REMSYN076AAXX  21214 07149 32973 10512 10182 20129 30106 40212 53001 80001 333 81076;MET045LFPO 212100Z 05012KT CAVOK 18/13 Q1021 NOSIG;EQDQ01+000000PRSWM2Q02  00002PRCP99
0345071490999992000072322004+48730+002400SY-MT+0096LFPO V0203501N00211007801CN0050001N1+01941+01661100691ADDAA101002091AY191999AY261999GA1021+001209999GA2021+005109999GA3071+007809099GF108991071091001501999999MA1100711099651MD1510011+9999MW1951REMSYN100AAXX  23224 07149 21250 83504 10194 20166 39965 40069 55001 79596 879// 333 60025 82704 83817 85926;MET072LFPO 232200Z 35004KT 5000 TSRA FEW004 SCT017 BKN026CB 19/17 Q1007 NOSIG;EQDQ01    003PRSWM1
0191071490999992000072408304+48730+002400FM-15+0096LFPO V0203101N003110120019N0112651N1+01901+01601999999ADDGA1021+003909999GA2021+006009999GA3071+012009999GF107991999999999999999999MA1100511999999MW1001REMMET065LFPO 240930Z 31006KT 9999 SCT013 SCT020 BKN040 19/16 Q1005 NOSIG;EQDQ01+000000PRSWM2
0359071490999992000072414004+48730+002400SY-MT+0096LFPO V0202901N00411030001CN0170001N1+02031+01611100481ADDAA101000291AY161999AY221999GA1021+004209999GA2021+012009999GA3071+030009999GF107991051081004501071999MA1100511099441MD1810031+9999MW1211REMSYN100AAXX  24144 07149 21467 72908 10203 20161 39944 40048 58003 72162 8587/ 333 69925 83814 84640 87360;MET070LFPO 241400Z 29008KT 9999 SCT014 SCT040 BKN100 20/16 Q1005 TEMPO 4000;EQDQ01+000000PRSWM2Q02    003PRSWM1
0297071490999992000072423004+48730+002400SY-MT+0096LFPO V0203001N003110051019N0100001N1+01621+01421100721ADDAA199000021GA1021+002709999GA2071+005109999GF199999061051002501001001MA1100711099661MD1110091+9999MW1001REMSYN082AAXX  24234 07149 32360 63006 10162 20142 39966 40072 51009 86500 333 83709 86617;MET058LFPO 242300Z 30005KT 9999 SCT009 BKN017 16/14 Q1007 NOSIG;EQDQ01+000062SCOTCVQ02+000000PRSWM2
0246071490999992000072623004+48730+002400SY-MT+0096LFPO V0202001N003110150019N0200001N1+01801+01621101381ADDAA199000021GA1071+015009059GF107991071051017501999999MA1101291100321MD1110101+9999MW1001REMSYN076AAXX  26234 07149 32770 72006 10180 20162 30032 40138 51010 875// 333 87650;MET045LFPO 262300Z 20006KT CAVOK 18/16 Q1013 NOSIG;EQDQ01+000000PRSWM2
0262071490999992000080121004+48730+002400SY-MT+0096LFPO V0203601N005112200019N0250001N1+02261+01571101661ADDAA199000091GA1031+030009079GF103991031001999999031011MA1101591100621MD1310101+9999MW1001REMSYN076AAXX  01214 07149 32975 33610 10226 20157 30062 40166 53010 83031 333 83360;MET045LFPO 012100Z 36010KT CAVOK 23/16 Q1016 NOSIG;EQDQ01+000000PRSWM2Q02  00002PRCP99
0278071490999992000080303004+48730+002400SY-MT+0096LFPO V0202301N004112200019N0250001N1+01561+01251101891ADDAA199000091GA1041+018009059GF104991041051017501999001MA1101901100821MD1810081+9999MW1001REMSYN076AAXX  03034 07149 32775 42308 10156 20125 30082 40189 58008 84500 333 84656;MET045LFPO 030300Z 23007KT CAVOK 16/13 Q1019 NOSIG;EQDQ01+000002SCOMCGQ02+000000PRSWM2Q03  00002PRCP99
0270071490999992000080608004+48730+002400SY-MT+0096LFPO V0200401N002110750019N0140001N1+01761+01231102481ADDAA199000091GA1051+075009019GF105991001001999999001021MA1102401101411MD1010041+9999MW1001REMSYN076AAXX  06084 07149 32964 50404 10176 20123 30141 40248 50004 80002 333 85075;MET053LFPO 060800Z 04004KT 340V070 CAVOK 18/12 Q1024 NOSIG;EQDQ01+000000PRSWM2Q02  00002PRCP99
0335071490999992000081921004+48730+002400SY-MT+0096LFPO V0202701N001010180019N0180001N1+01831+01701101281ADDAA103999999AY191031AY281031GA1021+015009029GA2061+018009059GF107991071081017501999999MA1101291100231MD1310041+9999MW1011REMSYN094AAXX  19214 07149 21768 72702 10183 20170 30023 40128 53004 70198 878// 333 69907 82850 86656;MET052LFPO 192100Z 27002KT CAVOK 18/17 Q1013 NOSIG RMK B8;EQDQ01+000000PRSWM2Q02  99992PRCP03Q03    003PRSWM1
0198071490999992000082707454+48730+002400FM-15+0096LFPO V0202401N003610270019N0080001N1+01601+01501999999ADDGA1021+002709999GA2021+012009999GA3071+027009999GF107991999999999999999999MA1101691999999MW1001REMMET072LFPO 270745Z 24007KT 8000 SCT009 SCT040 BKN090 16/15 Q1017 NOSIG RMK B3;EQDQ01+000000PRSWM2
0370071490999992000082709004+48730+002400SY-MT+0096LFPO V0202501N004110300019N0120001N1+01691+01471101761ADDAA103000891AY161031AY221031GA1021+003309999GA2021+013809999GA3071+030009999GF199999031081004501071001MA1101691100701MD1110191+9999MW1011REMSYN100AAXX  27094 07149 21462 52508 10169 20147 30070 40176 51019 70162 83870 333 69987 83811 83646 85360;MET065LFPO 270900Z 25007KT 9999 SCT011 SCT046 BKN100 17/15 Q1017 NOSIG;EQDQ01+000052SCOTCVQ02+000000PRSWM2Q03    003PRSWM1
0265071490999992000090613004+48730+002400SY-MT+0096LFPO V0202501N007210048019N0150001N1+01891+01481101431ADDAA199000021GA1071+004809999GF108991071051004501999999MA1101391100381MD1810151+9999MW1001REMSYN082AAXX  06134 07149 32465 82514 10189 20148 30038 40143 58015 875// 333 87616 91127;MET058LFPO 061300Z 25013KT 9999 BKN016 19/15 Q1014 TEMPO BKN012;EQDQ01+000000PRSWM2
0357071490999992000091106004+48730+002400SY-MT+0096LFPO V0200701N002112200019N0090001N1+01621+01571101661ADDAA124000091AY101061AY201061GA1021+078009999GF199999001001999999001011IA1019KA1999M+02391KA2999N+01401MA1101591100591MD1610061+9999MW1111MW2121REMSYN106AAXX  11064 07149 31959 10704 10162 20157 30059 40166 56006 71100 80001 333 10239 20140 30/// 70000 81076;MET056LFPO 110600Z 07003KT 9000 MIFG FEW260 16/16 Q1016 NOSIG;EQDQ01+000012SCOTCVQ02    003PRSWM1
0317071490999992000092910004+48730+002400SY-MT+0096LFPO V0201801N00411030001CN0220001N1+01631+01321100121ADDAA199000021GA1021+003009999GA2021+013509999GA3071+030009999GF107991061081004501031999MA1100101099071MD1010051+9999MW1001REMSYN088AAXX  29104 07149 32472 71808 10163 20132 39907 40012 50005 8683/ 333 84810 84645 87360;MET072LFPO 291000Z 18007KT 9999 SCT010 SCT045 BKN100 16/13 Q1001 TEMPO BKN012;EQDQ01+000000PRSWM2
0326071490999992000100404004+48730+002400SY-MT+0096LFPO V0201801N002110105019N0150001N1+01251+00861102111ADDAA199000091GA1021+007809999GA2071+010509999GA3071+015009999GF107991071051008001999999MA1102101101021MD1310011+9999MW1001REMSYN088AAXX  04044 07149 32565 71804 10125 20086 30102 40211 53001 875// 333 84626 85635 87650;MET065LFPO 040400Z 18003KT 9999 SCT026 BKN035 BKN050 13/09 Q1021 NOSIG;EQDQ01+000000PRSWM2Q02  00002PRCP99
0317071490999992000100500004+48730+002400SY-MT+0096LFPO V0201701N001010129019N0090001N1+01341+01291101981ADDAA199000021GA1021+006909999GA2071+012909999GA3071+030009999GF107991051051008001031999MA1101901100901MD1810041+9999MW1001REMSYN088AAXX  05004 07149 32559 71702 10134 20129 30090 40198 58004 8553/ 333 81623 85643 87360;MET072LFPO 050000Z 17003KT 9000 FEW023 BKN043 BKN100 13/13 Q1019 TEMPO BKN008;EQDQ01+000000PRSWM2
0348071490999992000100711004+48730+002400SY-MT+0096LFPO V0202401N003110300019N0180001N1+01111+00701102581ADDAA101999929AY161999AY221999GA1021+004509999GA2021+009009999GA3071+030009999GF108991041081004501071999MA1102511101481MD1810021+9999MW1601MW2611REMSYN100AAXX  07114 07149 21468 82406 10111 20070 30148 40258 58002 76062 8487/ 333 69905 82815 83630 87360;MET069LFPO 071100Z 24006KT 9999 -RA FEW015 SCT030 BKN100 11/07 Q1025 NOSIG;EQDQ01    003PRSWM1
0443071490999992000101106004+48730+002400SY-MT+0096LFPO V0202201N011810054019N0150001N1+01191+00841097771ADDAA103999999AA224009491AY181061AY261061GA1071+005409999GA2071+009909999GF108991071081004501999999IA1119IA2999+00909KA1999M+01191KA2999N+00941MA1097701096731MD1310031+9999MW1031OC101701REMSYN130AAXX  11064 07149 /1465 82223 10119 20084 39673 49777 53003 60092 70386 878// 333 10119 20094 32009 69907 70094 85818 87633 91141;MET061LFPO 110600Z 22023G33KT 9999 BKN018 BKN033 12/08 Q0977 NOSIG;EQDQ01+000000PRSWM2Q02  99992PRCP03Q03    003PRSWM1
0286071490999992000101208004+48730+002400SY-MT+0096LFPO V0201901N00821036001CN0250001N1+01121+00811099381ADDAA199000091GA1021+004209999GF105991041081004501031001MA1099291098321MD1110111+9999MW1001OC101291REMSYN076AAXX  12084 07149 32475 51916 10112 20081 39832 49938 51011 84830 333 84814;MET061LFPO 120800Z 19015G25KT 9999 SCT014 11/08 Q0993 NOSIG RMK M0;EQDQ01+000000PRSWM2Q02  00002PRCP99
0318071490999992000101611004+48730+002400SY-MT+0096LFPO V0202401N003110021019N0060001N1+01031+00951100811ADDAA101002091AY161999AY261999GA1071+002109999GA2071+007209999GF108991071051002501999999MA1100811099731MD1210251+9999MW1611REMSYN094AAXX  16114 07149 21356 82406 10103 20095 39973 40081 52025 76166 875// 333 60025 85707 87624;MET067LFPO 161100Z 24006KT 6000 -RA BKN007 BKN024 10/10 Q1008 TEMPO 4000;EQDQ01    003PRSWM1
0340071490999992000102318004+48730+002400SY-MT+0096LFPO V0202301N004112200019N0170001N1+01521+01341102131ADDAA103999929AY161061AY211061GA1021+014409999GF104991031051012501031001KA1999M+01761KA2999N+01191MA1102101101051MD1310031+9999MW1011REMSYN106AAXX  23184 07149 /1667 42308 10152 20134 30105 40213 53003 69922 70161 83530 333 10176 20119 69907 83648;MET051LFPO 231800Z 23008KT 9999 SCT048 15/13 Q1021 NOSIG;EQDQ01+000000PRSWM2Q02    003PRSWM1
0175071490999992000102905524+48730+002400FM-16+0096LFPO V0202201N008710150019N0112651N1+01001+00601999999ADDGA1021+009309999GA2071+015009999GF107991999999999999999999MA1101291999999MW1001REMMET065LFPO 290552Z 22017KT 9999 FEW031 BKN050 10/06 Q1013 NOSIG RMK B0;EQDQ01+000000PRSWM2
0304071490999992000110412004+48730+002400SY-MT+0096LFPO V0202401N004110030019N0150001N1+00831+00581101111ADDAA199000091GA1071+003009999GA2071+030009999GF107991061051004501031999MA1101021100021MD1110081+9999MW1001REMSYN082AAXX  04124 07149 32465 72408 10083 20058 30002 40111 51008 8653/ 333 86610 85360;MET065LFPO 041200Z 24008KT 9999 BKN010 BKN100 08/06 Q1010 BECMG SCT015;EQDQ01+000000PRSWM2Q02  00002PRCP99
0354071490999992000110719004+48730+002400SY-MT+0096LFPO V0202301N007210300019N0180001N1+00801+00631098521ADDAA101999929AY161999AY221999GA1021+010509999GA2021+013209999GA3071+030009999GF107991031051012501031999MA1098511097451MD1110201+9999MW1211REMSYN100AAXX  07194 07149 21668 72314 10080 20063 39745 49852 51020 72162 8353/ 333 69905 81635 83644 87360;MET065LFPO 071900Z 23013KT 9999 FEW035 SCT044 BKN100 08/06 Q0985 NOSIG;EQDQ01+000000PRSWM2Q02    003PRSWM1
0354071490999992000110813004+48730+002400SY-MT+0096LFPO V0202301N00511012001CN0140001N1+00891+00721099321ADDAA101999929AY161999AY221999GA1021+002409999GA2021+003609999GA3071+012009999GF107991061051002501071999MA1099291098251MD1210101+9999MW1211REMSYN100AAXX  08134 07149 21364 72310 10089 20072 39825 49932 52010 72162 8657/ 333 69905 82708 84712 85640;MET065LFPO 081300Z 23010KT 9999 FEW008 SCT012 BKN040 09/07 Q0993 NOSIG;EQDQ01+000000PRSWM2Q02    003PRSWM1
0281071490999992000110917004+48730+002400SY-MT+0096LFPO V0202201N004112200019N0280001N1+00821+00331101241ADDAA199000021GA1021+010809999GA2021+012909999GF104991031081012501001011MA1101191100141MD1310211+9999MW1001REMSYN082AAXX  09174 07149 32678 42208 10082 20033 30014 40124 53021 83801 333 81836 83643;MET058LFPO 091700Z 22007KT 9999 FEW036 SCT043 08/03 Q1012 NOSIG;EQDQ01+000000PRSWM2
0284071490999992000111012004+48730+002400SY-MT+0096LFPO V0202501N006212200019N0300001N1+00991+00411102001ADDAA199000091GA1021+006909999GF199999011011008001001011MA1101901100901MD1010061+9999MW1001REMSYN076AAXX  10124 07149 32580 12512 10099 20041 30090 40200 50006 81101 333 81823;MET051LFPO 101200Z 25012KT 9999 FEW023 10/04 Q1019 NOSIG;EQDQ01+000012SCOTCVQ02+000000PRSWM2Q03  00002PRCP99
0313071490999992000111117004+48730+002400SY-MT+0096LFPO V0201901N005110750019N0250001N1+00991+00391101561ADDAA199000091GA1021+013809999GA2071+075009999GF199999011051012501031011MA1101491100471MD1610151+9999MW1001REMSYN082AAXX  11174 07149 32675 51910 10099 20039 30047 40156 56015 81531 333 81646 85075;MET058LFPO 111700Z 19009KT 9999 FEW046 BKN250 10/04 Q1015 NOSIG;EQDQ01+000052SCOTCVQ02+000000PRSWM2Q03  00002PRCP99
0283071490999992000111614004+48730+002400SY-MT+0096LFPO V0202001N008210033019N0080001N1+00841+00751100701ADDAA101002091GA1021+002409999GA2071+003309999GF108991999999004501999999MA1100611099611MD1610181+9999MW1611REMSYN070AAXX  16144 07149 264// 82016 10084 20075 39961 40070 56018 333 60025;MET056LFPO 161400Z 20015KT 8000 -RA SCT008 BKN011 08/08 Q1006;EQDQ01+000003PRSWM1Q02    003PRSWM1
0290071490999992000111621004+48730+002400SY-MT+0096LFPO V0202501N005112200019N0200001N1+00551+00481101151ADDAA103999929AY181031AY261031GA1021+012009999GF102991021051012501001001MA1101081100051MD1110201+9999MW1011REMSYN088AAXX  16214 07149 21670 22510 10055 20048 30005 40115 51020 70186 82500 333 69907 82640;MET045LFPO 162100Z 25009KT 9999 FEW040 06/05 Q1011;EQDQ01+000000PRSWM2Q02    003PRSWM1
0185071490999992000112311304+48730+002400FM-15+0096LFPO V0202301N007710048019N0112651N1+01201+01001999999ADDGA1021+003909999GA2071+004809999GA3071+030009999GF107991999999999999999999MA1099701999999MW1001REMMET059LFPO 231130Z 23015KT 9999 FEW013 BKN016 BKN100 12/10 Q0997;EQDQ01+000000PRSWM2
0268071490999992000112414004+48730+002400SY-MT+0096LFPO V0202301N005112200019N0250001N1+00881+00551100991ADDAA199000091GA1021+004809999GF103991021011004501001011MA1100911099901MD1610191+9999MW1001REMSYN076AAXX  24144 07149 32475 32310 10088 20055 39990 40099 56019 82101 333 82816;MET051LFPO 241400Z 23009KT 9999 FEW016 09/06 Q1009 NOSIG;EQDQ01+000000PRSWM2Q02  00002PRCP99
0297071490999992000112611004+48730+002400SY-MT+0096LFPO V0202501N008210750019N0200001N1+00901+00401100571ADDAA199000021GA1021+008109999GA2071+075009999GF199999041081008001001021MA1100511099491MD1110311+9999MW1001REMSYN082AAXX  26114 07149 32570 62516 10090 20040 39949 40057 51031 84802 333 83827 85075;MET058LFPO 261100Z 25015KT 9999 SCT027 BKN250 09/04 Q1005 NOSIG;EQDQ01+000062SCOTCVQ02+000000PRSWM2
0348071490999992000120210004+48730+002400SY-MT+0096LFPO V0202401N00211030001CN0130001N1+01141+01051101371ADDAA101999929AY161999AY261999GA1021+002109999GA2021+009909999GA3081+030009999GF108991051051002501071999MA1101291100291MD1810011+9999MW1601MW2611REMSYN100AAXX  02104 07149 21363 82404 10114 20105 30029 40137 58001 76066 8557/ 333 69905 84707 84633 88460;MET069LFPO 021000Z 24004KT 9999 -RA SCT007 SCT033 OVC100 11/11 Q1013 NOSIG;EQDQ01    003PRSWM1
0297071490999992000120316004+48730+002400SY-MT+0096LFPO V0201901N004110060019N0200001N1+00881+00621101981ADDAA199000091GA1021+003909999GA2071+006009999GF107991071051004501999999MA1101901100881MD1610071+9999MW1001REMSYN082AAXX  03164 07149 32470 71908 10088 20062 30088 40198 56007 875// 333 82613 87620;MET058LFPO 031600Z 19008KT 9999 FEW013 BKN020 09/06 Q1019 NOSIG;EQDQ01+000000PRSWM2Q02  00002PRCP99
0343071490999992000121516004+48730+002400SY-MT+0096LFPO V0202701N004110078019N0250001N1+00661+00411101251ADDAA101999929AY181999AY261999GA1021+005109099GA2071+007809999GF199999051031004501031021MA1101191100151MD1310111+9999MW1251REMSYN094AAXX  15164 07149 21475 62708 10066 20041 30015 40125 53011 72586 85332 333 69905 82917 85826;MET060LFPO 151600Z 27008KT 9999 FEW017CB BKN026 07/04 Q1012 NOSIG;EQDQ01+000062SCOTCVQ02+000000PRSWM2Q03    003PRSWM1
0182071490999992000121801404+48730+002400FM-16+0096LFPO V0201701N004610024019N0112651N1+00501+00401999999ADDGA1071+002409999GA2071+004809999GF107991999999999999999999MA1101491999999MW1001REMMET072LFPO 180140Z 17009KT 9999 BKN008 BKN016 05/04 Q1015 TEMPO BKN005 RMK M3;EQDQ01+000000PRSWM2
0300071490999992000122002004+48730+002400SY-MT+0096LFPO V0200801N004112200019N0150001N1+00661+00591101561ADDAA199000091GA1021+015009059GA2031+075009019GF104991021051017501999011MA1101491100461MD1810071+9999MW1001REMSYN082AAXX  20024 07149 32765 40808 10066 20059 30046 40156 58007 82501 333 82650 83075;MET045LFPO 200200Z 08008KT CAVOK 07/06 Q1015 NOSIG;EQDQ01+000000PRSWM2Q02  00002PRCP99Q03    003SCOMCG
0297071490999992000122009004+48730+002400SY-MT+0096LFPO V0201101N004110750019N0080001N1+00621+00521101531ADDAA199000091GA1021+002109999GA2071+075009999GF107991011061002501031021MA1101391100421MD1310061+9999MW1001REMSYN082AAXX  20094 07149 32358 71108 10062 20052 30042 40153 53006 81632 333 82707 87075;MET058LFPO 200900Z 12007KT 8000 FEW007 BKN250 06/05 Q1014 NOSIG;EQDQ01+000000PRSWM2Q02  00002PRCP99
0335071490999992000122018004+48730+002400SY-MT+0096LFPO V0201101N003110750019N0100001N1+00631+00511101401ADDAA199000091GA1021+002409999GA2071+075009999GF107991011061002501001021KA1999M+00931KA2999N+00541MA1101291100301MD1110021+9999MW1001REMSYN094AAXX  20184 07149 32360 71106 10063 20051 30030 40140 51002 81602 333 10093 20054 81708 87075;MET058LFPO 201800Z 11006KT 9999 FEW008 BKN250 06/05 Q1013 NOSIG;EQDQ01+000000PRSWM2Q02  00002PRCP99
0268071500999992000010212004+48970+002450SY-MT+0065LFPB V0201601N003110027019N0090001N1+00991+00851102961ADDAA106000091GA1071+002709999GF108991071061002501999999MA1102911102321MD1810011+9999MW1001REMSYN076AAXX  02124 07150 32359 81606 10099 20085 30232 40296 58001 876// 333 86709;MET051LFPB 021200Z 16005KT 9000 BKN009 10/09 Q1029 NOSIG;EQDQ01+000000PRSWM2Q02  00002PRCP06
0112071500999992000010405004+48970+002450FM-12+0065LFPB V0201801N005119999999N9999999N1+00801+00611102091ADDAA106000021MA1999999101451MD1610091+9999REMSYN060AAXX  04054 07150 36/// /1810 10080 20061 30145 40209 56009;
0304071500999992000010412004+48970+002450SY-MT+0065LFPB V0201801N007210030019N0090001N1+00891+00751101831ADDAA103001091AY161061AY261061GA1071+003009999GF108991081051004501999999MA1101801101191MD1810151+9999MW1601MW2611REMSYN094AAXX  04124 07150 /1459 81814 10089 20075 30119 40183 58015 60041 76066 885// 333 60017 87610;MET063LFPB 041200Z 18015KT 170V240 9000 -RA BKN010 09/07 Q1018 NOSIG;EQDQ01    003PRSWM1
0215071500999992000011106304+48970+002450FM-15+0065LFPB V0201601N00151000151CN0005001N1-00101-00101999999ADDGA1091+000159999GF109991999999000251999999MA1103791999999MW1491REMMET105LFPB 110730Z 16003KT 0500 R27/0800VP1500U R09/0800VP1500U R07/0650VP1500U FZFG VV/// M01/M01 Q1038 NOSIG;EQDQ01+000003PRSWM1Q02    003PRSWM1
0323071500999992000012311004+48970+002450SY-MT+0065LFPB V0203201N005110054019N0090001N1+00381+00181101971ADDAA101000491AY181999AY261999GA1021+003609999GA2071+005409999GF107991071011004501999999MA1101901101321MD1310011+9999MW1801REMSYN094AAXX  23114 07150 21459 73210 10038 20018 30132 40197 53001 78086 871// 333 69945 83812 87818;MET072LFPB 231100Z 32009KT 260V340 9000 -SHRA SCT012 BKN018 04/02 Q1019 NOSIG;EQDQ01    003PRSWM1
0184071500999992000012904304+48970+002450FM-15+0065LFPB V0202301N009310036019N0112651N1+00701+00601999999ADDGA1071+003609999GF107991999999999999999999MA1100911999999MW1611OC101541REMMET066LFPB 290530Z 23018G30KT 170V240 9999 -RA BKN012 07/06 Q1009 NOSIG;EQDQ01+000003PRSWM1Q02    003PRSWM1
0268071500999992000020319004+48970+002450SY-MT+0065LFPB V0202401N002110111019N0120001N1+00731+00321103781ADDAA199000091GA1071+011109999GF107991071051012501999999MA1103691103131MD1310081+9999MW1001REMSYN076AAXX  03194 07150 32662 72404 10073 20032 30313 40378 53008 875// 333 87637;MET051LFPB 031900Z 24004KT 9999 BKN037 07/03 Q1037 NOSIG;EQDQ01+000000PRSWM2Q02  00002PRCP99
0131071500999992000020922004+48970+002450FM-12+0065LFPB V0201901N003119999999N9999999N1+00571+00201102951ADDAA199000091MA1999999102301MD1810081+9999REMSYN060AAXX  09224 07150 36/// /1906 10057 20020 30230 40295 58008;EQDQ01  00002PRCP99
0268071500999992000021410004+48970+002450SY-MT+0065LFPB V0201501N001010018019N0060001N1+00731+00641102441ADDAA199000091GA1081+001809999GF108991081061001501999999MA1102401101801MD1810041+9999MW1001REMSYN076AAXX  14104 07150 32256 81502 10073 20064 30180 40244 58004 886// 333 88706;MET051LFPB 141000Z 16003KT 6000 OVC006 07/07 Q1024 NOSIG;EQDQ01+000000PRSWM2Q02  00002PRCP99
0122071500999992000021605004+48970+002450FM-12+0065LFPB V0202601N006219999999N9999999N1+00461+00071100921ADDAA101000791MA1999999100281MD1310131+9999REMSYN070AAXX  16054 07150 26/// /2612 10046 20007 30028 40092 53013 333 69905;
0321071500999992000021816004+48970+002450SY-MT+0065LFPB V0202501N007210150019N0250001N1+01001+00461100701ADDAA101999929AY181999AY261999GA1021+010209999GA2071+015009999GF107991071081012501999999MA1100611100071MD1610011+9999MW1801REMSYN100AAXX  18164 07150 21675 72514 10100 20046 30007 40070 56001 78086 878// 333 69905 84834 86650 91129;MET064LFPB 181600Z 25014KT 9999 -SHRA SCT034 BKN050 10/05 Q1006 NOSIG;EQDQ01    003PRSWM1
0131071500999992000022323004+48970+002450FM-12+0065LFPB V0202001N004119999999N9999999N1+00911+00751102571ADDAA199000091MA1999999101931MD1810021+9999REMSYN060AAXX  23234 07150 36/// /2008 10091 20075 30193 40257 58002;EQDQ01  00002PRCP99
0112071500999992000030104004+48970+002450FM-12+0065LFPB V0202301N004119999999N9999999N1+00701+00471100501ADDAA199000021MA1999999099871MD1810091+9999REMSYN060AAXX  01044 07150 36/// /2308 10070 20047 39987 40050 58009;
0284071500999992000031307004+48970+002450SY-MT+0065LFPB V0203601N001012200019N0080001N1+00151+00051102831ADDAA199000091GA1021+075009999GF199999001001999999001011MA1102711102171MD1310101+9999MW1001REMSYN076AAXX  13074 07150 32958 13602 10015 20005 30217 40283 53010 80001 333 81075;MET051LFPB 130700Z 36002KT 8000 FEW250 02/01 Q1027 NOSIG;EQDQ01+000012SCOTCVQ02+000000PRSWM2Q03  00002PRCP99
0131071500999992000031523004+48970+002450FM-12+0065LFPB V0203101N001019999999N9999999N1+00451-00031103531ADDAA199000091MA1999999102871MD1110081+9999REMSYN060AAXX  15234 07150 36/// /3102 10045 21003 30287 40353 51008;EQDQ01  00002PRCP99
0268071500999992000031720004+48970+002450SY-MT+0065LFPB V0203501N004110108019N0090001N1+00981+00331103151ADDAA199000091GA1081+010809999GF108991081051012501999999MA1103121102511MD1110091+9999MW1001REMSYN076AAXX  17204 07150 32659 83508 10098 20033 30251 40315 51009 885// 333 88636;MET051LFPB 172000Z 35007KT 9000 OVC036 10/03 Q1031 NOSIG;EQDQ01+000000PRSWM2Q02  00002PRCP99
0122071500999992000032323004+48970+002450FM-12+0065LFPB V0201501N002119999999N9999999N1+01171+00991100821ADDAA101000791MA1999999100201MD1810021+9999REMSYN070AAXX  23234 07150 26/// /1504 10117 20099 30020 40082 58002 333 69905;
0112071500999992000032502004+48970+002450FM-12+0065LFPB V0202301N002119999999N9999999N1+00961+00721101341ADDAA199000021MA1999999100711MD1010011+9999REMSYN060AAXX  25024 07150 36/// /2304 10096 20072 30071 40134 50001;
0366071500999992000033118004+48970+002450SY-MT+0065LFPB V0203401N002110150019N0070001N1+00851+00511100481ADDAA103000291AY111061AY211061GA1021+009009099GA2071+015009999GF107991071031008001999999KA1999M+01241KA2999N+00541MA1100411099851MD1510021+9999MW1161REMSYN112AAXX  31184 07150 /1557 73404 10085 20051 39985 40048 55002 69922 71611 873// 333 10124 20054 69927 84930 85650;MET071LFPB 311800Z 34004KT 7000 VCSH SCT030CB BKN050 09/05 Q1004 TEMPO -SHRA;EQDQ01    003PRSWM1
0131071500999992000033120004+48970+002450FM-12+0065LFPB V0203301N001019999999N9999999N1+00671+00451100541ADDAA199000091MA1999999099911MD1210091+9999REMSYN060AAXX  31204 07150 36/// /3302 10067 20045 39991 40054 52009;EQDQ01  00002PRCP99
0254071500999992000040918004+48970+002450FM-12+0065LFPB V0201001N00311012001CN0100001N1+01081+00791100771ADDAA103000691AY161061AY221061GA1011+010809069GF107991071051012501999999KA1999M+01481KA2999N+00611MA1999999100141MD1310101+9999MW1601REMSYN112AAXX  09184 07150 /1660 71006 10108 20079 30014 40077 53010 69962 76062 875// 333 10148 20061 69967 81636 87656;
0274071500999992000041018004+48970+002450SY-MT+0065LFPB V0203601N004112200019N0150001N1+01271+00141100681ADDAA112000791GF102991021001999999031001KA1999M+01581KA2999N+00801MA1100611100061MD1510031+9999MW1001REMSYN094AAXX  10184 07150 12965 23608 10127 20014 30006 40068 55003 69902 82030 333 10158 20080 82360;MET045LFPB 101800Z 36010KT CAVOK 13/01 Q1006 NOSIG;EQDQ01+000000PRSWM2
0141071500999992000041720004+48970+002450FM-12+0065LFPB V0202201N008219999999N9999999N1+01211+00461100611ADDAA199000091MA1999999099991MD1310271+9999REMSYN070AAXX  17204 07150 36/// /2216 10121 20046 39999 40061 53027 333 91027;EQDQ01  00002PRCP99
0188071500999992000042303304+48970+002450FM-15+0065LFPB V0203601N001010111019N0080001N1+01101+01001999999ADDGA1021+004809999GA2071+011109999GF107991999999999999999999MA1101021999999MW1611REMMET062LFPB 230430Z 36002KT 8000 -RA SCT016 BKN037 11/10 Q1010 NOSIG;EQDQ01+000003PRSWM1Q02    003PRSWM1
0305071500999992000050113004+48970+002450SY-MT+0065LFPB V0200301N005110720019N0100001N1+01971+01321101901ADDAA199000091GA1021+007809999GA2071+072009999GF107991011011008001001011MA1101901101291MD1610091+9999MW1001REMSYN082AAXX  01134 07150 32560 70310 10197 20132 30129 40190 56009 81101 333 81826 87074;MET066LFPB 011300Z 03009KT 010V080 9999 FEW026 BKN240 20/13 Q1019 NOSIG;EQDQ01+000000PRSWM2Q02  00002PRCP99
0363071500999992000051618004+48970+002450SY-MT+0065LFPB V0202401N007212200019N0300001N1+02301+01381101131ADDAA112002091AY191061AY281061GA1021+012609999GA2021+072009999GF104991011011012501081041KA1999M+02781KA2999N+01981MA1101081100531MD1310041+9999MW1011REMSYN106AAXX  16184 07150 11680 42414 10230 20138 30053 40113 53004 60022 70198 81184 333 10278 20198 81842 84074;MET058LFPB 161800Z 24015KT 9999 FEW042 SCT240 23/14 Q1011 NOSIG;EQDQ01+000000PRSWM2Q02    003PRSWM1
0170071500999992000051803304+48970+002450FM-15+0065LFPB V0202401N005110330019N0112651N1+01101+00601999999ADDGA1021+009009999GA2071+033009999GF107991999999999999999999MA1101081999999MW1001REMMET060LFPB 180430Z 24010KT 190V260 9999 FEW030 BKN110 11/06 Q1011;EQDQ01+000000PRSWM2
0345071500999992000051812004+48970+002450SY-MT+0065LFPB V0202601N00721220001CN0400001N1+01541+00611101001ADDAA103000491AY181061AY261061GA1021+011409029GA2071+011409999GF107991061021012501031999MA1100911100381MD1810101+9999MW1251REMSYN100AAXX  18124 07150 /1682 72614 10154 20061 30038 40100 58010 60011 72586 8623/ 333 69947 83838 85838;MET072LFPB 181200Z 26011G21KT 230V320 9999 SCT038TCU BKN038 16/06 Q1009 NOSIG;EQDQ01+000000PRSWM2Q02    003PRSWM1
0112071500999992000051822004+48970+002450FM-12+0065LFPB V0202501N005119999999N9999999N1+01131+00621101261ADDAA199000021MA1999999100631MD1110161+9999REMSYN060AAXX  18224 07150 36/// /2510 10113 20062 30063 40126 51016;
0176071500999992000052115004+48970+002450FM-15+0065LFPB V0202601N006212200019N0112651N1+01501+00701999999ADDGA1021+010509999GA2021+015009999GF104991999999999999999999MA1100911999999MW1001REMMET066LFPB 211500Z 26012KT 230V320 9999 FEW035 SCT050 15/07 Q1009 NOSIG;EQDQ01+000000PRSWM2
0268071500999992000052605004+48970+002450SY-MT+0065LFPB V0200201N001010300019N0150001N1+00881+00771101681ADDAA199000091GA1051+030009039GF107991051001999999031011MA1101591101041MD1610151+9999MW1001REMSYN082AAXX  26054 07150 32965 70202 10088 20077 30104 40168 56015 85031 333 85360 87075;MET045LFPB 260500Z 02002KT CAVOK 09/08 Q1016 NOSIG;EQDQ01+000000PRSWM2Q02  00002PRCP99
0305071500999992000053108004+48970+002450SY-MT+0065LFPB V0203501N002110060019N0150001N1+01171+00911101981ADDAA199000091GA1021+004209999GA2071+006009999GF108991071051004501999999MA1101901101351MD1110291+9999MW1001REMSYN082AAXX  31084 07150 32465 83504 10117 20091 30135 40198 51029 875// 333 84614 87620;MET066LFPB 310800Z 35005KT 330V060 9999 SCT014 BKN020 12/09 Q1019 NOSIG;EQDQ01+000000PRSWM2Q02  00002PRCP99
0131071500999992000060222004+48970+002450FM-12+0065LFPB V0200101N002119999999N9999999N1+02061+01821101761ADDAA199000091MA1999999101151MD1310061+9999REMSYN060AAXX  02224 07150 36/// /0104 10206 20182 30115 40176 53006;EQDQ01  00002PRCP99
0319071500999992000060512004+48970+002450SY-MT+0065LFPB V0203301N004110036019N0100001N1+01201+01061101661ADDAA103000691AY161061AY221061GA1021+002409999GA2071+003609999GF108991071081002501999999MA1101591101031MD1010011+9999MW1611REMSYN100AAXX  05124 07150 /1360 83308 10120 20106 30103 40166 50001 60021 76162 878// 333 69967 83808 87612;MET062LFPB 051200Z 33007KT 9999 -RA SCT008 BKN012 12/11 Q1016 NOSIG;EQDQ01    003PRSWM1
0262071500999992000060819004+48970+002450SY-MT+0065LFPB V0201001N004112200019N0500001N1+02361+01231100971ADDAA199000091GA1011+072009019GF101991001001999999001011MA1100911100371MD1610141+9999MW1001REMSYN076AAXX  08194 07150 32984 11008 10236 20123 30037 40097 56014 80001 333 81074;MET045LFPB 081900Z 10008KT CAVOK 24/12 Q1009 NOSIG;EQDQ01+000000PRSWM2Q02  00002PRCP99
0270071500999992000062108004+48960+002440SY-MT+0065LFPB V0201801N005110300019N0200001N1+02321+01371101491ADDAA199000091GA1061+030009079GF106991061001999999031001MA1101491100891MD1110011+9999MW1001REMSYN076AAXX  21084 07150 32970 61810 10232 20137 30089 40149 51001 86030 333 86360;MET053LFPB 210800Z 19009KT 170V240 CAVOK 23/14 Q1015 NOSIG;EQDQ01+000000PRSWM2Q02  00002PRCP99
0308071500999992000062817004+48960+002440SY-MT+0065LFPB V0203501N004110750019N0300001N1+02201+00891101871ADDAA199000091GA1031+015009059GA2071+075009019GF107991031051017501999011MA1101801101261MD1510001+9999MW1001REMSYN082AAXX  28174 07150 32780 73508 10220 20089 30126 40187 55000 83501 333 83650 87075;MET053LFPB 281700Z 35008KT 320V030 CAVOK 22/09 Q1018 NOSIG;EQDQ01+000000PRSWM2Q02  00002PRCP99Q03    003SCOMCG
0284071500999992000062819004+48960+002440SY-MT+0065LFPB V0200101N004110750019N0300001N1+01941+00901101931ADDAA199000091GA1021+030009079GA2071+075009019GF107991021001999999031021MA1101901101321MD1310071+9999MW1001REMSYN082AAXX  28194 07150 32980 70108 10194 20090 30132 40193 53007 82032 333 82360 87075;MET045LFPB 281900Z 01008KT CAVOK 20/09 Q1019 NOSIG;EQDQ01+000000PRSWM2Q02  00002PRCP99
0280071500999992000070305004+48960+002440SY-MT+0065LFPB V0200101N002110300019N0050001N1+01571+01551101081ADDAA199000021GA1051+030009079GA2051+075009019GF107991051001999999081011MA1999999100471MD1810031+9999MW1001REMSYN082AAXX  03054 07150 32950 70104 10157 20155 30047 40108 58003 85081 333 85360 85075;MET057LFPB 030500Z 01004KT 500 BKN100 BKN250 15/15 Q1011 NOSIG;EQDQ01+000000PRSWM2
0334071500999992000070416004+48960+002440SY-MT+0065LFPB V0202601N006210750019N0200001N1+02061+01281100761ADDAA199000021GA1021+009909999GA2021+015009999GA3071+075009999GF199999041081012501001021MA1100711100161MD1210091+9999MW1001REMSYN088AAXX  04164 07150 32670 62612 10206 20128 30016 40076 52009 84802 333 82833 83650 85075;MET073LFPB 041600Z 26011KT 240V320 9999 FEW033 SCT050 BKN250 21/13 Q1007 NOSIG;EQDQ01+000062SCOTCVQ02+000000PRSWM2
0284071500999992000070511004+48960+002440SY-MT+0065LFPB V0202301N006210150019N0300001N1+01941+01221101511ADDAA199000021GA1021+010209029GA2071+015009999GF107991071081012501001001MA1101491100901MD1210061+9999MW1001REMSYN082AAXX  05114 07150 32680 72312 10194 20122 30090 40151 52006 87800 333 82834 85650;MET061LFPB 051100Z 23012KT 9999 FEW034TCU BKN050 20/12 Q1015 NOSIG;EQDQ01+000000PRSWM2
0131071500999992000072702004+48960+002440FM-12+0065LFPB V0201801N002119999999N9999999N1+01681+01651101351ADDAA199000091MA1999999100741MD1010011+9999REMSYN060AAXX  27024 07150 36/// /1804 10168 20165 30074 40135 50001;EQDQ01  00002PRCP99
0168071500999992000072806004+48960+002440FM-15+0065LFPB V0202601N003612200019N0112651N1+01601+01501999999ADDGA1021+003309999GA2021+009009999GF104991999999999999999999MA1101491999999MW1001REMMET058LFPB 280600Z 26007KT 9999 SCT011 SCT030 16/15 Q1015 NOSIG;EQDQ01+000000PRSWM2
0305071500999992000072907004+48960+002440SY-MT+0065LFPB V0202601N005110180019N0250001N1+01601+01381101841ADDAA199000091GA1021+003609999GA2071+018009999GF107991071081004501001001MA1101801101221MD1310031+9999MW1001REMSYN082AAXX  29074 07150 32475 72610 10160 20138 30122 40184 53003 87800 333 83812 86656;MET066LFPB 290700Z 25009KT 240V310 9999 SCT012 BKN060 16/14 Q1018 NOSIG;EQDQ01+000000PRSWM2Q02  00002PRCP99
0153071500999992000073012004+48960+002440FM-15+0065LFPB V0202401N003112200019N0112651N1+02101+01401999999ADDGA1021+008709999GF104991999999999999999999MA1102401999999MW1001REMMET059LFPB 301200Z 24006KT 170V320 9999 SCT029 21/14 Q1024 NOSIG;EQDQ01+000000PRSWM2
0131071500999992000073020004+48960+002440FM-12+0065LFPB V0203401N002119999999N9999999N1+02041+01411102421ADDAA199000091MA1999999101811MD1310081+9999REMSYN060AAXX  30204 07150 36/// /3404 10204 20141 30181 40242 53008;EQDQ01  00002PRCP99
0131071500999992000073022004+48960+002440FM-12+0065LFPB V0200101N002119999999N9999999N1+01741+01351102521ADDAA199000091MA1999999101901MD1110141+9999REMSYN060AAXX  30224 07150 36/// /0104 10174 20135 30190 40252 51014;EQDQ01  00002PRCP99
0292071500999992000073110004+48960+002440SY-MT+0065LFPB V0201701N002112200019N0300001N1+02321+01471102401ADDAA199000091GA1021+012009999GF199999011011012501001001MA1102401101791MD1810071+9999MW1001REMSYN076AAXX  31104 07150 32680 11704 10232 20147 30179 40240 58007 81100 333 81840;MET059LFPB 311000Z 16005KT 110V180 9999 FEW040 23/14 Q1024 NOSIG;EQDQ01+000012SCOTCVQ02+000000PRSWM2Q03  00002PRCP99
0131071500999992000081701004+48960+002440FM-12+0065LFPB V0201001N002119999999N9999999N1+01651+01501101321ADDAA199000091MA1999999100711MD1610071+9999REMSYN060AAXX  17014 07150 36/// /1004 10165 20150 30071 40132 56007;EQDQ01  00002PRCP99
0097071500999992000082806004+48960+002440FM-15+0065LFPB V0202201N00051220001CN0099001N1+01501+01301999999ADDMA1102001999999MW1001REMMET045LFPB 280600Z 22001KT CAVOK 15/13 Q1020 NOSIG;EQDQ01+000000PRSWM2
0336071500999992000090210004+48960+002440SY-MT+0065LFPB V0202501N00621012001CN0350001N1+01781+01271100771ADDAA101999929AY181999AY261999GA1021+007809029GA2021+018009999GF106991061081008001001001MA1100711100161MD1110151+9999MW1251REMSYN094AAXX  02104 07150 21581 62512 10178 20127 30016 40077 51015 72586 86800 333 69905 84826 84656;MET069LFPB 021000Z 25011KT 230V300 9999 SCT026TCU SCT060 18/13 Q1007 NOSIG;EQDQ01+000000PRSWM2Q02    003PRSWM1
0131071500999992000090520004+48960+002440FM-12+0065LFPB V0202301N002119999999N9999999N1+01711+00951102161ADDAA199000091MA1999999101541MD1610011+9999REMSYN060AAXX  05204 07150 36/// /2304 10171 20095 30154 40216 56001;EQDQ01  00002PRCP99
0097071500999992000091015004+48960+002440FM-15+0065LFPB V0200901N00261220001CN0099001N1+02601+01801999999ADDMA1102001999999MW1001REMMET045LFPB 101500Z 09005KT CAVOK 26/18 Q1020 NOSIG;EQDQ01+000000PRSWM2
0193071500999992000091218004+48960+002440FM-15+0065LFPB V0202601N002110300019N0112651N1+01801+01501999999ADDGA1021+006309099GA2021+006609999GA3071+030009999GF107991999999999999999999MA1101291999999MW1001REMMET067LFPB 121800Z 26004KT 9999 FEW021CB SCT022 BKN100 18/15 Q1013 NOSIG;EQDQ01+000000PRSWM2
0297071500999992000092511004+48960+002440SY-MT+0065LFPB V0201901N001012200019N0300001N1+02001+01231102271ADDAA199000091GA1021+009009999GA2021+075009999GF104991021011008001001011MA1102201101661MD1010001+9999MW1001REMSYN082AAXX  25114 07150 32580 41902 10200 20123 30166 40227 50000 82101 333 82830 83075;MET058LFPB 251100Z 21002KT 9999 FEW030 SCT250 20/11 Q1022 NOSIG;EQDQ01+000000PRSWM2Q02  00002PRCP99
0131071500999992000092620004+48960+002440FM-12+0065LFPB V0202501N003119999999N9999999N1+02141+01551101631ADDAA199000091MA1999999101021MD1310121+9999REMSYN060AAXX  26204 07150 36/// /2506 10214 20155 30102 40163 53012;EQDQ01  00002PRCP99
0179071500999992000100215004+48960+002440FM-15+0065LFPB V0202701N005112200019N0112651N1+01301+01201999999ADDGA1021+007209029GA2021+015009999GF104991999999999999999999MA1101191999999MW1001REMMET069LFPB 021500Z 27010KT 250V320 9999 SCT024TCU SCT050 13/12 Q1012 NOSIG;EQDQ01+000000PRSWM2
0334071500999992000102814004+48960+002440SY-MT+0065LFPB V0201801N008210105019N0300001N1+01541+01021101091ADDAA199000091GA1021+008409999GA2071+010509999GA3071+030009999GF107991061081008001031999MA1101021100471MD1810341+9999MW1001REMSYN088AAXX  28144 07150 32580 71816 10154 20102 30047 40109 58034 8683/ 333 83828 86635 85360;MET073LFPB 281400Z 18015KT 170V240 9999 SCT028 BKN035 BKN100 15/10 Q1010 NOSIG;EQDQ01+000000PRSWM2Q02  00002PRCP99
0298071500999992000110811004+48960+002440SY-MT+0065LFPB V0202201N006210048019N0250001N1+00961+00721099201ADDAA101999929AY161999AY221999GA1081+004809999GF108991081051004501999999MA1099091098581MD1110131+9999MW1601MW2611REMSYN088AAXX  08114 07150 21475 82212 10096 20072 39858 49920 51013 76062 885// 333 69905 88616;MET063LFPB 081100Z 22011KT 170V240 9999 -RA OVC016 10/07 Q0991 NOSIG;EQDQ01    003PRSWM1
0112071500999992000111404004+48960+002440FM-12+0065LFPB V0202101N003119999999N9999999N1+00631+00571100371ADDAA199000021MA1999999099741MD1210031+9999REMSYN060AAXX  14044 07150 36/// /2106 10063 20057 39974 40037 52003;
0122071500999992000112605004+48960+002440FM-12+0065LFPB V0202301N006219999999N9999999N1+00801+00421099901ADDAA101000791MA1999999099271MD1310051+9999REMSYN070AAXX  26054 07150 26/// /2312 10080 20042 39927 49990 53005 333 69905;
0313071500999992000121414004+48960+002440SY-MT+0065LFPB V0202401N003110033019N0120001N1+00911+00821100561ADDAA101003091AY161999AY261999GA1071+003309999GA2071+010509999GF108991081081004501999999MA1100511099931MD1610211+9999MW1611REMSYN094AAXX  14144 07150 21462 82406 10091 20082 39993 40056 56021 76166 888// 333 60035 85811 87635;MET062LFPB 141400Z 24006KT 9999 -RA BKN011 BKN035 09/08 Q1005 NOSIG;EQDQ01    003PRSWM1
0354071500999992000121820004+48960+002440SY-MT+0065LFPB V0201601N002110120019N0120001N1+00941+00851101691ADDAA101999929AY161999AY221999GA1021+004209999GA2071+012009999GA3071+027009999GF108991061081004501031999MA1101591101061MD1310011+9999MW1211REMSYN100AAXX  18204 07150 21462 81604 10094 20085 30106 40169 53001 72162 8683/ 333 69905 81814 86640 87359;MET065LFPB 182000Z 17004KT 9999 FEW014 BKN040 BKN090 09/09 Q1016 NOSIG;EQDQ01+000000PRSWM2Q02    003PRSWM1
0277071500999992000122808004+48960+002440SY-MT+0065LFPB V0201901N005110120019N0400001N1+00271-00021099901ADDAA199000091GA1071+012009999GF107991071051012501001001MA1099801099261MD1810091+9999MW1001REMSYN076AAXX  28084 07150 32682 71910 10027 21002 39926 49990 58009 87500 333 87640;MET060LFPB 280800Z 19010KT 170V240 9999 BKN040 03/M00 Q0998 NOSIG;EQDQ01+000000PRSWM2Q02  00002PRCP99
0264071500999992000123108004+48960+002440SY-MT+0065LFPB V0200901N003112200019N0150001N1-00311-00351101881ADDAA199000091GA1041+075009019GF104991001001999999001011MA1101801101211MD1510031+9999MW1001REMSYN076AAXX  31084 07150 32965 40906 11031 21035 30121 40188 55003 80001 333 84075;MET047LFPB 310800Z 09005KT CAVOK M03/M04 Q1018 NOSIG;EQDQ01+000000PRSWM2Q02  00002PRCP99
0135071530999992000011721004+48620+002680FM-12+009299999V0203601N006219999999N9999999N1+00461+00291103431ADDAA199000091MA1999999102271MD1110081+9999REMSYN064    AAXX  17214 07153 36/// /3612 10046 20029 30227 40343 51008;EQDQ01  00002PRCP99
0128071530999992000013000004+48620+002680FM-12+0092LFPM V0202301N009819999999N9999999N1+00971+00851101541ADDAA199000021MA1999999100421MD1310201+9999REMSYN076AAXX  30004 07153 36/// /2319 10097 20085 30042 40154 53020 333 91031 91135;
0262071530999992000020315004+48620+002680SY-MT+0092LFPM V0201901N002110105019N0060001N1+00611+00491103761ADDAA199000091GA1081+010509999GF108991081051012501999999MA1103691102601MD1510011+9999MW1001REMSYN076AAXX  03154 07153 32656 81904 10061 20049 30260 40376 55001 885// 333 88635;MET045LFPM 031500Z 19004KT 6000 OVC035 06/05 Q1037;EQDQ01+000000PRSWM2Q02  00002PRCP99
0131071530999992000020501004+48620+002680FM-12+0092LFPM V0201001N001019999999N9999999N1+00241+00181103581ADDAA199000091MA1999999102411MD1510071+9999REMSYN060AAXX  05014 07153 36/// /1002 10024 20018 30241 40358 55007;EQDQ01  00002PRCP99
0131071530999992000020917004+48620+002680FM-12+0092LFPM V0202901N004119999999N9999999N1+00861+00241103061ADDAA199000091MA1999999101921MD1310051+9999REMSYN060AAXX  09174 07153 36/// /2908 10086 20024 30192 40306 53005;EQDQ01  00002PRCP99
0131071530999992000021202004+48620+002680FM-12+0092LFPM V0202001N002119999999N9999999N1-00141-00171103001ADDAA199000091MA1999999101821MD1610081+9999REMSYN060AAXX  12024 07153 36/// /2004 11014 21017 30182 40300 56008;EQDQ01  00002PRCP99
0319071530999992000021216004+48620+002680SY-MT+0092LFPM V0202201N008210069019N0150001N1+00681+00501102551ADDAA101999929AY161999AY261999GA1021+005409999GA2071+006909999GF107991071051004501999999MA1102511101411MD1510091+9999MW1601MW2611REMSYN100AAXX  12164 07153 21465 72216 10068 20050 30141 40255 55009 76066 875// 333 69905 83618 87623 91129;MET056LFPM 121600Z 22017KT 9999 -RA SCT018 BKN023 07/05 Q1025;EQDQ01    003PRSWM1
0122071530999992000021221004+48620+002680FM-12+0092LFPM V0202101N008219999999N9999999N1+00621+00561102551ADDAA103000591MA1999999101411MD1710031+9999REMSYN070AAXX  12214 07153 26/// /2116 10062 20056 30141 40255 57003 333 69947;
0122071530999992000021704004+48620+002680FM-12+0092LFPM V0202601N003119999999N9999999N1+00241+00171100971ADDAA101000591MA1999999099831MD1810031+9999REMSYN070AAXX  17044 07153 26/// /2606 10024 20017 39983 40097 58003 333 69945;
0112071530999992000021921004+48620+002680FM-12+0092LFPM V0203301N005119999999N9999999N1+00321+00161102191ADDAA199000021MA1999999101041MD1110331+9999REMSYN060AAXX  19214 07153 36/// /3310 10032 20016 30104 40219 51033;
0173071530999992000022218004+48620+002680FM-12+0092LFPM V0201901N001019999999N9999999N1+00551+00251102551ADDAA199000091KA1999M+00821KA2999N+00221MA1999999101401MD1310031+9999REMSYN076AAXX  22184 07153 36/// /1902 10055 20025 30140 40255 53003 333 10082 20022;EQDQ01  00002PRCP99
0122071530999992000022921004+48620+002680FM-12+0092LFPM V0202301N007219999999N9999999N1+00781+00591100581ADDAA103002091MA1999999099471MD1310051+9999REMSYN070AAXX  29214 07153 26/// /2314 10078 20059 39947 40058 53005 333 60027;
0112071530999992000030103004+48620+002680FM-12+0092LFPM V0202201N004119999999N9999999N1+00501+00411100681ADDAA199000021MA1999999099551MD1810011+9999REMSYN060AAXX  01034 07153 36/// /2208 10050 20041 39955 40068 58001;
0256071530999992000031316004+48620+002680SY-MT+0092LFPM V0203201N003112200019N0100001N1+01491+00491102611ADDAA199000091GA1021+075009019GF102991001001999999001011MA1102611101501MD1610101+9999MW1001REMSYN076AAXX  13164 07153 32960 23206 10149 20049 30150 40261 56010 80001 333 82075;MET039LFPM 131600Z 32006KT CAVOK 15/06 Q1026;EQDQ01+000000PRSWM2Q02  00002PRCP99
0160071530999992000031418004+48620+002680FM-12+0092LFPM V0202901N008719999999N9999999N1+01091+00741102471ADDAA112000891KA1999M+01621KA2999N+00721MA1999999101351MD1310191+9999REMSYN082AAXX  14184 07153 16/// /2917 10109 20074 30135 40247 53019 69982 333 10162 20072;
0128071530999992000031500004+48620+002680FM-12+0092LFPM V0203301N005119999999N9999999N1+00611+00331102861ADDAA103000191MA1999999101711MD1110191+9999REMSYN076AAXX  15004 07153 /6/// /3310 10061 20033 30171 40286 51019 69961 333 69927;
0262071530999992000031608004+48620+002680SY-MT+0092LFPM V0202301N001010120019N0080001N1+00351+00261103451ADDAA199000091GA1071+012009999GF108991081051012501999999MA1103391102291MD1110041+9999MW1001REMSYN076AAXX  16084 07153 32658 82302 10035 20026 30229 40345 51004 885// 333 87640;MET045LFPM 160800Z 24002KT 8000 BKN040 04/03 Q1034;EQDQ01+000000PRSWM2Q02  00002PRCP99
0131071530999992000032104004+48620+002680FM-12+0092LFPM V0200501N002119999999N9999999N1+00141-00081102281ADDAA199000091MA1999999101121MD1610081+9999REMSYN060AAXX  21044 07153 36/// /0504 10014 21008 30112 40228 56008;EQDQ01  00002PRCP99
0131071530999992000032120004+48620+002680FM-12+0092LFPM V0200601N003119999999N9999999N1+00741+00151101871ADDAA199000091MA1999999100741MD1310011+9999REMSYN060AAXX  21204 07153 36/// /0606 10074 20015 30074 40187 53001;EQDQ01  00002PRCP99
0112071530999992000032701004+48620+002680FM-12+0092LFPM V0202601N004119999999N9999999N1+00431+00341100811ADDAA199000021MA1999999099681MD1810011+9999REMSYN060AAXX  27014 07153 36/// /2608 10043 20034 39968 40081 58001;
0131071530999992000032802004+48620+002680FM-12+0092LFPM V0200101N004119999999N9999999N1+00541+00441101201ADDAA199000091MA1999999100071MD1710021+9999REMSYN060AAXX  28024 07153 36/// /0108 10054 20044 30007 40120 57002;EQDQ01  00002PRCP99
0262071530999992000040104004+48620+002680SY-MT+0092LFPM V0202401N005110033019N0080001N1+00481+00391100571ADDAA199000091GA1071+003309999GF107991071051004501999999MA1100511099441MD1310011+9999MW1001REMSYN076AAXX  01044 07153 32458 72410 10048 20039 39944 40057 53001 875// 333 87611;MET045LFPM 010400Z 24010KT 8000 BKN011 05/04 Q1005;EQDQ01+000000PRSWM2Q02  00002PRCP99
0329071530999992000040610004+48620+002680SY-MT+0092LFPM V0200501N005110300019N0150001N1+00591+00001102621ADDAA199000091GA1021+006009999GA2021+015009999GA3071+030009999GF107991031081008001031001MA1102511101481MD1110161+9999MW1001REMSYN088AAXX  06104 07153 32565 70510 10059 20000 30148 40262 51016 83830 333 81820 83650 87360;MET068LFPM 061000Z 05009KT 010V080 9999 FEW020 SCT050 BKN100 06/M00 Q1025;EQDQ01+000000PRSWM2Q02  00002PRCP99
0131071530999992000040816004+48620+002680FM-12+0092LFPM V0200801N005119999999N9999999N1+01631+00161101741ADDAA199000091MA1999999100651MD1810281+9999REMSYN060AAXX  08164 07153 36/// /0810 10163 20016 30065 40174 58028;EQDQ01  00002PRCP99
0128071530999992000041300004+48620+002680FM-12+0092LFPM V0202001N006219999999N9999999N1+00431+00341099601ADDAA103000891MA1999999098481MD1110141+9999REMSYN076AAXX  13004 07153 /6/// /2012 10043 20034 39848 49960 51014 60021 333 69987;
0131071530999992000042120004+48620+002680FM-12+0092LFPM V0200901N003119999999N9999999N1+01331+00921101501ADDAA199000091MA1999999100401MD1610051+9999REMSYN060AAXX  21204 07153 36/// /0906 10133 20092 30040 40150 56005;EQDQ01  00002PRCP99
0131071530999992000042416004+48620+002680FM-12+0092LFPM V0201401N005119999999N9999999N1+01531+00761101291ADDAA199000091MA1999999100201MD1710181+9999REMSYN060AAXX  24164 07153 36/// /1410 10153 20076 30020 40129 57018;EQDQ01  00002PRCP99
0131071530999992000042922004+48620+002680FM-12+0092LFPM V0200901N001019999999N9999999N1+01111+00981101901ADDAA199000091MA1999999100791MD1110111+9999REMSYN060AAXX  29224 07153 36/// /0902 10111 20098 30079 40190 51011;EQDQ01  00002PRCP99
0315071530999992000050113004+48620+002680SY-MT+0092LFPM V0200301N004110900019N0070001N1+02071+01551101831ADDAA199000091GA1021+007509999GA2071+090009999GF199999011021008001001011MA1101801100761MD1810101+9999MW1001REMSYN082AAXX  01134 07153 32557 50308 10207 20155 30076 40183 58010 81201 333 81825 85080;MET060LFPM 011300Z 03007KT 350V070 7000 FEW025 BKN300 21/14 Q1018;EQDQ01+000052SCOTCVQ02+000000PRSWM2Q03  00002PRCP99
0131071530999992000050922004+48620+002680FM-12+0092LFPM V0203501N005119999999N9999999N1+01831+01501101431ADDAA199000091MA1999999100351MD1810021+9999REMSYN060AAXX  09224 07153 36/// /3510 10183 20150 30035 40143 58002;EQDQ01  00002PRCP99
0131071530999992000051600004+48620+002680FM-12+0092LFPM V0201401N002119999999N9999999N1+01721+01611101631ADDAA199000091MA1999999100551MD1810061+9999REMSYN060AAXX  16004 07153 36/// /1404 10172 20161 30055 40163 58006;EQDQ01  00002PRCP99
0262071530999992000051610004+48620+002680SY-MT+0092LFPM V0201601N004112200019N0200001N1+02541+01731101421ADDAA199000091GA1011+015009089GF104991011021017501031011MA1101391100371MD1810111+9999MW1001REMSYN082AAXX  16104 07153 32770 41608 10254 20173 30037 40142 58011 81231 333 81850 83075;MET039LFPM 161000Z 16008KT CAVOK 25/17 Q1014;EQDQ01+000000PRSWM2Q02  00002PRCP99
0131071530999992000052103004+48620+002680FM-12+0092LFPM V0201501N002119999999N9999999N1+00761+00641101071ADDAA199000091MA1999999099951MD1710151+9999REMSYN060AAXX  21034 07153 36/// /1504 10076 20064 39995 40107 57015;EQDQ01  00002PRCP99
0262071530999992000052708004+48620+002680SY-MT+0092LFPM V0202301N007212200019N0300001N1+01201+00611101661ADDAA199000021GA1021+007809999GF199999011011008001001001MA1101591100551MD1110131+9999MW1001REMSYN076AAXX  27084 07153 32580 12314 10120 20061 30055 40166 51013 81100 333 81826;MET045LFPM 270800Z 23013KT 9999 FEW026 12/06 Q1016;EQDQ01+000012SCOTCVQ02+000000PRSWM2
0268071530999992000052814004+48620+002680SY-MT+0092LFPM V0202901N008710108019N0200001N1+01511+00791101121ADDAA199000021GA1071+010809999GF199999051021012501071021MA1101081100031MD1110131+9999MW1001REMSYN082AAXX  28144 07153 32670 62917 10151 20079 30003 40112 51013 85272 333 85836 91129;MET045LFPM 281400Z 29017KT 9999 BKN036 15/08 Q1011;EQDQ01+000062SCOTCVQ02+000000PRSWM2
0131071530999992000060116004+48620+002680FM-12+0092LFPM V0202001N003119999999N9999999N1+01881+01411102101ADDAA199000091MA1999999101021MD1710141+9999REMSYN060AAXX  01164 07153 36/// /2006 10188 20141 30102 40210 57014;EQDQ01  00002PRCP99
0166071530999992000060518004+48620+002680FM-12+0092LFPM V0202901N004119999999N9999999N1+01221+01111101881ADDAA103000191KA1999M+01331KA2999N+01101MA1999999100771MD1110111+9999REMSYN088AAXX  05184 07153 /6/// /2908 10122 20111 30077 40188 51011 60032 333 10133 20110 69927;
0131071530999992000060903004+48620+002680FM-12+0092LFPM V0201401N004119999999N9999999N1+01621+01541100941ADDAA199000091MA1999999099861MD1510021+9999REMSYN060AAXX  09034 07153 36/// /1408 10162 20154 39986 40094 55002;EQDQ01  00002PRCP99
0131071530999992000061119004+48620+002680FM-12+0092LFPM V0202901N004119999999N9999999N1+01751+01041102231ADDAA199000091MA1999999101141MD1310091+9999REMSYN060AAXX  11194 07153 36/// /2908 10175 20104 30114 40223 53009;EQDQ01  00002PRCP99
0270071530999992000062809004+48610+002680SY-MT+0092LFPM V0200301N003112200019N0150001N1+01591+00861101851ADDAA199000091GA1011+018009069GF103991011051017501031011MA1101801100761MD1110111+9999MW1001REMSYN082AAXX  28094 07153 32765 30306 10159 20086 30076 40185 51011 81531 333 81656 83360;MET047LFPM 280900Z 03006KT 350V070 CAVOK 16/08 Q1018;EQDQ01+000000PRSWM2Q02  00002PRCP99
0286071530999992000062811004+48610+002680SY-MT+0092LFPM V0200101N003112200019N0200001N1+02041+00521101901ADDAA199000091GA1021+009009999GF199999011011008001031001MA1101901100821MD1110101+9999MW1001REMSYN076AAXX  28114 07153 32570 10106 10204 20052 30082 40190 51010 81130 333 81830;MET053LFPM 281100Z 36005KT 300V100 9999 FEW030 21/06 Q1019;EQDQ01+000012SCOTCVQ02+000000PRSWM2Q03  00002PRCP99
0131071530999992000063002004+48610+002680FM-12+0092LFPM V0201001N002119999999N9999999N1+01161+00901101751ADDAA199000091MA1999999100641MD1810101+9999REMSYN060AAXX  30024 07153 36/// /1004 10116 20090 30064 40175 58010;EQDQ01  00002PRCP99
0291071530999992000070105004+48610+002680SY-MT+0092LFPM V0202001N002112200019N0080001N1+01481+01401100961ADDAA199000091GA1021+018009999GA2021+075009999GF103991021001022501081011MA1100911099871MD1510011+9999MW1001REMSYN082AAXX  01054 07153 32858 32004 10148 20140 39987 40096 55001 82081 333 82356 83075;MET052LFPM 010500Z 20003KT 8000 FEW066 SCT250 15/14 Q1009;EQDQ01+000000PRSWM2Q02  00002PRCP99
0131071530999992000070120004+48610+002680FM-12+0092LFPM V0202501N002119999999N9999999N1+02091+01501101041ADDAA199000091MA1999999099971MD1310041+9999REMSYN060AAXX  01204 07153 36/// /2504 10209 20150 39997 40104 53004;EQDQ01  00002PRCP99
0270071530999992000070612004+48610+002680SY-MT+0092LFPM V0201001N00311220001CN0250001N1+02461+01351101771ADDAA199000091GA1031+015009089GF105991031011017501001011MA1101801100711MD1810101+9999MW1001REMSYN082AAXX  06124 07153 32775 51006 10246 20135 30071 40177 58010 83101 333 83850 83075;MET047LFPM 061200Z 10006KT 040V180 CAVOK 25/13 Q1018;EQDQ01+000000PRSWM2Q02  00002PRCP99
0131071530999992000071500004+48610+002680FM-12+0092LFPM V0202701N003119999999N9999999N1+01161+00971101411ADDAA199000091MA1999999100301MD1110021+9999REMSYN060AAXX  15004 07153 36/// /2706 10116 20097 30030 40141 51002;EQDQ01  00002PRCP99
0270071530999992000071811004+48610+002680SY-MT+0092LFPM V0200201N003112200019N0180001N1+01891+00991102091ADDAA199000091GA1021+011409999GF102991021011012501001001MA1102101101001MD1710031+9999MW1001REMSYN076AAXX  18114 07153 32668 20206 10189 20099 30100 40209 57003 82100 333 82838;MET053LFPM 181100Z 02006KT 340V070 9999 FEW038 19/10 Q1021;EQDQ01+000000PRSWM2Q02  00002PRCP99
0131071530999992000071916004+48610+002680FM-12+0092LFPM V0200301N003119999999N9999999N1+02281+01121102061ADDAA199000091MA1999999100991MD1510021+9999REMSYN060AAXX  19164 07153 36/// /0306 10228 20112 30099 40206 55002;EQDQ01  00002PRCP99
0154071530999992000072718004+48610+002680FM-12+0092LFPM V0202001N005119999999N9999999N1+01971+01491101471ADDAA199000021KA1999M+02051KA2999N+01611MA1999999100401MD1810111+9999REMSYN076AAXX  27184 07153 36/// /2010 10197 20149 30040 40147 58011 333 10205 20161;
0198071530999992000073104004+48610+002680SY-MT+0092LFPM V0203501N003119999999Y0099001N1+01291+01231102491ADDAA199000091MA1102401101381MD1710021+9999MW1001REMSYN060AAXX  31044 07153 36/// /3506 10129 20123 30138 40249 57002;MET039LFPM 310400Z 35005KT CAVOK 13/12 Q1024;EQDQ01+000000PRSWM2Q02  00002PRCP99
0269071530999992000080705004+48610+002680SY-MT+0092LFPM V0203001N001010135019N0060001N1+01611+01561102481ADDAA199000091GA1071+013509999GA2071+030009999GF107991999999999999999999MA1102401101381MD1510001+9999MW1001REMSYN060AAXX  07054 07153 36/// /3002 10161 20156 30138 40248 55000;MET052LFPM 070500Z 29003KT 6000 BKN045 BKN100 16/16 Q1024;EQDQ01+000000PRSWM2Q02  00002PRCP99
0131071530999992000081422004+48610+002680FM-12+0092LFPM V0202201N002119999999N9999999N1+02051+01711102121ADDAA199000091MA1999999101041MD1110121+9999REMSYN060AAXX  14224 07153 36/// /2204 10205 20171 30104 40212 51012;EQDQ01  00002PRCP99
0147071530999992000081612004+48610+002680FM-15+0092LFPM V0201901N003612200019N0112651N1+02601+01501999999ADDGA1021+013809999GF102991999999999999999999MA1101691999999MW1001REMMET053LFPM 161200Z 19007KT 150V220 9999 FEW046 26/15 Q1017;EQDQ01+000000PRSWM2
0189071530999992000082213004+48610+002680FM-12+0092LFPM V0201101N004112200019N0300001N1+02261+00831101941ADDAA199000091GA1021+015009029GF103991021011017501001021MA1999999100871MD1610041+9999REMSYN076AAXX  22134 07153 32780 31108 10226 20083 30087 40194 56004 82102 333 82850;EQDQ01  00002PRCP99
0256071530999992000082508004+48610+002680SY-MT+0092LFPM V0200701N004112200019N0180001N1+02221+01621101921ADDAA199000091GA1011+090009019GF101991001001999999001011MA1101901100851MD1710031+9999MW1001REMSYN076AAXX  25084 07153 32968 10708 10222 20162 30085 40192 57003 80001 333 81080;MET039LFPM 250800Z 07008KT CAVOK 22/16 Q1019;EQDQ01+000000PRSWM2Q02  00002PRCP99
0291071530999992000090305004+48610+002680SY-MT+0092LFPM V0203001N003110051019N0100001N1+01411+01301101451ADDAA199000091GA1071+005109999GA2021+018009999GF107991071051004501999999MA1101391100351MD1310101+9999MW1001REMSYN082AAXX  03054 07153 32460 73006 10141 20130 30035 40145 53010 875// 333 86617 84656;MET052LFPM 030500Z 30005KT 9999 BKN017 SCT060 14/13 Q1014;EQDQ01+000000PRSWM2Q02  00002PRCP99
0291071530999992000090412004+48610+002680SY-MT+0092LFPM V0203501N003110150019N0200001N1+01781+00941102371ADDAA199000091GA1021+010809999GA2021+015009999GF105991051081012501001001MA1102301101281MD1210041+9999MW1001REMSYN082AAXX  04124 07153 32670 53506 10178 20094 30128 40237 52004 85800 333 83836 83650;MET052LFPM 041200Z 35007KT 9999 SCT036 SCT053 18/09 Q1023;EQDQ01+000000PRSWM2Q02  00002PRCP99
0131071530999992000090816004+48610+002680FM-12+0092LFPM V0202901N002119999999N9999999N1+02011+01491102211ADDAA199000091MA1999999101131MD1610051+9999REMSYN060AAXX  08164 07153 36/// /2904 10201 20149 30113 40221 56005;EQDQ01  00002PRCP99
0131071530999992000091100004+48610+002680FM-12+0092LFPM V0200301N002119999999N9999999N1+01681+01581101831ADDAA199000091MA1999999100741MD1710111+9999REMSYN060AAXX  11004 07153 36/// /0304 10168 20158 30074 40183 57011;EQDQ01  00002PRCP99
